0243601010999992024010100004+35733-005900FM-12+002199999V0200901N002110600019N006000199+01311+01311102061ADDAA103000091AA206000091GA1061+060001001GE19AGL   +99999+99999GF106991061999060001999999MA1999999101861MD1110031+9999OD139900311999OD249900261999REMSYN08860101 02956 60904 10131 20131 30186 40206 51003 60001 80004 333 60007 86070 91005 91106=
0107601010999992024010100004+35727-005917FM-15+001999999V0200901N002112200019N006000199+01301+01301999999ADDGF100991999999999999999999MA1102001999999REMMET054METAR GMTT 010000Z 09004KT 6000 NSC 13/13 Q1020 NOSIG=
0107601010999992024010100304+35727-005917FM-15+001999999V0200701N001012200019N006000199+01301+01301999999ADDGF100991999999999999999999MA1102001999999REMMET054METAR GMTT 010030Z 07002KT 6000 NSC 13/13 Q1020 NOSIG=
0107601010999992024010101004+35727-005917FM-15+001999999V0200601N001012200019N006000199+01301+01301999999ADDGF100991999999999999999999MA1102001999999REMMET054METAR GMTT 010100Z 06002KT 6000 NSC 13/13 Q1020 NOSIG=
0107601010999992024010101304+35727-005917FM-15+001999999V0209999V001012200019N005000199+01301+01301999999ADDGF100991999999999999999999MA1102001999999REMMET054METAR GMTT 010130Z VRB02KT 5000 NSC 13/13 Q1020 NOSIG=
0171601010999992024010102004+35727-005917FM-15+001999999V0200901N001510609619N005000199+01301+01301999999ADDGA1021+003051999GA2071+060961999GE19AGL   +99999+99999GF199999021999003051999999MA1102001999999REMMET064METAR GMTT 010200Z 09003KT 5000 FEW010 BKN200 13/13 Q1020 NOSIG=
0171601010999992024010102304+35727-005917FM-15+001999999V0201101N001510609619N005000199+01301+01301999999ADDGA1021+003051999GA2071+060961999GE19AGL   +99999+99999GF199999021999003051999999MA1102001999999REMMET064METAR GMTT 010230Z 11003KT 5000 FEW010 BKN200 13/13 Q1020 NOSIG=
0248601010999992024010103004+35733-005900FM-12+002199999V0201101N00151060001CN005000199+01301+01301101991ADDAA103000091GA1011+003001081GA2061+060001001GE19AGL   +99999+99999GF106991011999003001999999MA1999999101791MD1810071+9999OD139900261999OD249900211999REMSYN08860101 22450 61103 10130 20130 30179 40199 58007 81104 333 60007 81810 86070 91004 91105=
0171601010999992024010103004+35727-005917FM-15+001999999V0201101N001510609619N005000199+01301+01301999999ADDGA1021+003051999GA2071+060961999GE19AGL   +99999+99999GF199999021999003051999999MA1101901999999REMMET064METAR GMTT 010300Z 11003KT 5000 FEW010 BKN200 13/13 Q1019 NOSIG=
0176601010999992024010103304+35727-005917FM-15+001999999V0209999V001010609619N005000199+01301+01301999999ADDGA1021+003051999GA2071+060961999GE19AGL   +99999+99999GF199999021999003051999999MA1102001999999REMMET069METAR GMTT 010330Z AUTO VRB02KT 5000 FEW010 BKN200 13/13 Q1020 NOSIG=
0171601010999992024010104004+35727-005917FM-15+001999999V0209999V001010609619N005000199+01301+01301999999ADDGA1021+003051999GA2071+060961999GE19AGL   +99999+99999GF199999021999003051999999MA1102001999999REMMET064METAR GMTT 010400Z VRB02KT 5000 FEW010 BKN200 13/13 Q1020 NOSIG=
0176601010999992024010104304+35727-005917FM-15+001999999V0200801N002110609619N005000199+01301+01301999999ADDGA1021+003051999GA2071+060961999GE19AGL   +99999+99999GF199999021999003051999999MA1101901999999REMMET069METAR GMTT 010430Z AUTO 08004KT 5000 FEW010 BKN200 13/13 Q1019 NOSIG=
0107601010999992024010105004+35727-005917FM-15+001999999V0201001N002612200019N005000199+01301+01301999999ADDGF100991999999999999999999MA1101901999999REMMET054METAR GMTT 010500Z 10005KT 5000 NSC 13/13 Q1019 NOSIG=
0107601010999992024010105304+35727-005917FM-15+001999999V0200901N002112200019N005000199+01301+01301999999ADDGF100991999999999999999999MA1101901999999REMMET054METAR GMTT 010530Z 09004KT 5000 NSC 13/13 Q1019 NOSIG=
0296601010999992024010106004+35733-005900FM-12+002199999V0200801N00211036001CN006000199+01291+01291102021ADDAA103000091AA224000231GA1051+036001031GA2031+060001001GE19AGL   +99999+99999GF106991051999036001999999KA1240N+01231MA1999999101821MD1310031+9999OD139900461999OD249900361999REMSYN11260101 02956 60804 10129 20129 30182 40202 53003 69924 85052 333 20123 55064 20889 60007 85362 83070 91007 91109=
0107601010999992024010106004+35727-005917FM-15+001999999V0200801N002112200019N006000199+01301+01301999999ADDGF100991999999999999999999MA1102001999999REMMET054METAR GMTT 010600Z 08004KT 6000 NSC 13/13 Q1020 NOSIG=
0107601010999992024010106304+35727-005917FM-15+001999999V0200601N002112200019N006000199+01201+01201999999ADDGF100991999999999999999999MA1102001999999REMMET054METAR GMTT 010630Z 06004KT 6000 NSC 12/12 Q1020 NOSIG=
0107601010999992024010107004+35727-005917FM-15+001999999V0209999V000512200019N005000199+01301+01301999999ADDGF100991999999999999999999MA1102101999999REMMET054METAR GMTT 010700Z VRB01KT 5000 NSC 13/13 Q1021 NOSIG=
0171601010999992024010107304+35727-005917FM-15+001999999V0201501N001510304819N006000199+01301+01301999999ADDGA1021+014021999GA2071+030481999GE19AGL   +99999+99999GF199999021999014021999999MA1102101999999REMMET064METAR GMTT 010730Z 15003KT 6000 FEW046 BKN100 13/13 Q1021 NOSIG=
0171601010999992024010108004+35727-005917FM-15+001999999V0209999V001010304819N006000199+01401+01401999999ADDGA1021+007921999GA2071+030481999GE19AGL   +99999+99999GF199999021999007921999999MA1102101999999REMMET064METAR GMTT 010800Z VRB02KT 6000 FEW026 BKN100 14/14 Q1021 NOSIG=
0171601010999992024010108304+35727-005917FM-15+001999999V0200101N00151060961CN006000199+01201+01201999999ADDGA1021+007921999GA2041+060961999GE19AGL   +99999+99999GF199999021999007921999999MA1102101999999REMMET064METAR GMTT 010830Z 01003KT 6000 FEW026 SCT200 12/12 Q1021 NOSIG=
0267601010999992024010109004+35733-005900FM-12+002199999V0200601N00211999999CN006000199+01251+01251102241ADDAA103000091GA1011+007801081GA2052+060001001GE19AGL   +99999+99999GF103992011999007801999999MA1999999102041MD1110221+9999OD139900261999OD249900261999REMSYN08860101 22556 30604 10125 20125 30204 40224 51022 81106 333 60007 81826 85070 91005 91105=EQDQ01 060003SCOCIG
0171601010999992024010109004+35727-005917FM-15+001999999V0200601N00211060961CN006000199+01301+01301999999ADDGA1021+007921999GA2041+060961999GE19AGL   +99999+99999GF199999021999007921999999MA1102201999999REMMET064METAR GMTT 010900Z 06004KT 6000 FEW026 SCT200 13/13 Q1022 NOSIG=
0171601010999992024010109304+35727-005917FM-15+001999999V0201101N00151060961CN006000199+01501+01501999999ADDGA1021+007921999GA2041+060961999GE19AGL   +99999+99999GF199999021999007921999999MA1102201999999REMMET064METAR GMTT 010930Z 11003KT 6000 FEW026 SCT200 15/15 Q1022 NOSIG=
0148601010999992024010110004+35727-005917FM-15+001999999V0200801N001519999999N006000199+01601+01601999999ADDGA1041+007921999GE19AGL   +99999+99999GF199999041999007921999999MA1102301999999REMMET057METAR GMTT 011000Z 08003KT 6000 SCT026 16/16 Q1023 NOSIG=
0148601010999992024010110304+35727-005917FM-15+001999999V0209999V001019999999N006000199+01801+01601999999ADDGA1041+007921999GE19AGL   +99999+99999GF199999041999007921999999MA1102301999999REMMET057METAR GMTT 011030Z VRB02KT 6000 SCT026 18/16 Q1023 NOSIG=
0148601010999992024010111004+35727-005917FM-15+001999999V0209999V001019999999N009999199+01801+01601999999ADDGA1041+007921999GE19AGL   +99999+99999GF199999041999007921999999MA1102301999999REMMET057METAR GMTT 011100Z VRB02KT 9999 SCT026 18/16 Q1023 NOSIG=
0156601010999992024010111304+35727-005917FM-15+001999999V0202501V002119999999N009999199+01801+01601999999ADDGA1041+007921999GE19AGL   +99999+99999GF199999041999007921999999MA1102201999999REMMET065METAR GMTT 011130Z 25004KT 200V300 9999 SCT026 18/16 Q1022 NOSIG=
0243601010999992024010112004+35733-005900FM-12+002199999V0202601N002112200019N010000199+01841+01581102281ADDAA103000091AA206000091GA1031+007801081GE19AGL   +99999+99999GF103991031999007801999999MA1999999102081MD1990041+9999OD139900361999OD249900361999REMSYN08860101 02560 32604 10184 20158 30208 40228 50004 60001 83200 333 60007 83826 91007 91107=
0156601010999992024010112004+35727-005917FM-15+001999999V0202701V002119999999N009999199+01801+01601999999ADDGA1041+007921999GE19AGL   +99999+99999GF199999041999007921999999MA1102201999999REMMET065METAR GMTT 011200Z 27004KT 230V310 9999 SCT026 18/16 Q1022 NOSIG=
0156601010999992024010112304+35727-005917FM-15+001999999V0202601V001519999999N009999199+01901+01601999999ADDGA1041+007921999GE19AGL   +99999+99999GF199999041999007921999999MA1102201999999REMMET065METAR GMTT 011230Z 26003KT 220V290 9999 SCT026 19/16 Q1022 NOSIG=
0156601010999992024010113004+35727-005917FM-15+001999999V0202701V002619999999N009999199+01901+01601999999ADDGA1041+007921999GE19AGL   +99999+99999GF199999041999007921999999MA1102201999999REMMET065METAR GMTT 011300Z 27005KT 230V300 9999 SCT026 19/16 Q1022 NOSIG=
0156601010999992024010113304+35727-005917FM-15+001999999V0202701V002619999999N009999199+01901+01601999999ADDGA1041+007921999GE19AGL   +99999+99999GF199999041999007921999999MA1102101999999REMMET065METAR GMTT 011330Z 27005KT 250V310 9999 SCT026 19/16 Q1021 NOSIG=
0148601010999992024010114004+35727-005917FM-15+001999999V0202701N003119999999N009999199+01801+01601999999ADDGA1041+007921999GE19AGL   +99999+99999GF199999041999007921999999MA1102101999999REMMET057METAR GMTT 011400Z 27006KT 9999 SCT026 18/16 Q1021 NOSIG=
0156601010999992024010114304+35727-005917FM-15+001999999V0202801V002119999999N009999199+01801+01701999999ADDGA1041+007921999GE19AGL   +99999+99999GF199999041999007921999999MA1102101999999REMMET065METAR GMTT 011430Z 28004KT 230V310 9999 SCT026 18/17 Q1021 NOSIG=
0226601010999992024010115004+35733-005900FM-12+002199999V0202701N002612200019N010000199+01841+01661102171ADDAA103000091GA1031+007801081GE19AGL   +99999+99999GF103991031999007801999999MA1999999101971MD1610111+9999OD139900461999OD249900361999REMSYN08260101 22560 32705 10184 20166 30197 40217 56011 83200 333 60007 83826 91007 91109=
0156601010999992024010115004+35727-005917FM-15+001999999V0202601V002619999999N009999199+01801+01701999999ADDGA1041+007921999GE19AGL   +99999+99999GF199999041999007921999999MA1102101999999REMMET065METAR GMTT 011500Z 26005KT 230V300 9999 SCT026 18/17 Q1021 NOSIG=
0156601010999992024010115304+35727-005917FM-15+001999999V0202701V002119999999N009999199+01801+01601999999ADDGA1041+007921999GE19AGL   +99999+99999GF199999041999007921999999MA1102101999999REMMET065METAR GMTT 011530Z 27004KT 230V290 9999 SCT026 18/16 Q1021 NOSIG=
0156601010999992024010116004+35727-005917FM-15+001999999V0202601V002119999999N009999199+01801+01701999999ADDGA1041+007921999GE19AGL   +99999+99999GF199999041999007921999999MA1102101999999REMMET065METAR GMTT 011600Z 26004KT 230V300 9999 SCT026 18/17 Q1021 NOSIG=
0148601010999992024010116304+35727-005917FM-15+001999999V0202601N001519999999N009999199+01801+01701999999ADDGA1041+007921999GE19AGL   +99999+99999GF199999041999007921999999MA1102201999999REMMET057METAR GMTT 011630Z 26003KT 9999 SCT026 18/17 Q1022 NOSIG=
0156601010999992024010117004+35727-005917FM-15+001999999V0202601V001519999999N009999199+01701+01701999999ADDGA1041+003961999GE19AGL   +99999+99999GF199999041999003961999999MA1102201999999REMMET065METAR GMTT 011700Z 26003KT 220V280 9999 SCT013 17/17 Q1022 NOSIG=
0148601010999992024010117304+35727-005917FM-15+001999999V0202501N001519999999N009999199+01701+01701999999ADDGA1041+003961999GE19AGL   +99999+99999GF199999041999003961999999MA1102201999999REMMET057METAR GMTT 011730Z 25003KT 9999 SCT013 17/17 Q1022 NOSIG=
0279601010999992024010118004+35733-005900FM-12+002199999V0202101N000512200019N010000199+01651+01651102311ADDAA103000091AA212000091AA324000091GA1041+003901081GE19AGL   +99999+99999GF104991041999003901999999KA1120M+01921MA1999999102111MD1310141+9999OD139900461999OD249900101999REMSYN10060101 02460 42101 10165 20165 30211 40231 53014 60002 84200 333 10192 60007 70000 84813 91002 91109=
0148601010999992024010118004+35727-005917FM-15+001999999V0209999V000519999999N009999199+01701+01701999999ADDGA1041+003961999GE19AGL   +99999+99999GF199999041999003961999999MA1102301999999REMMET057METAR GMTT 011800Z VRB01KT 9999 SCT013 17/17 Q1023 NOSIG=
0148601010999992024010118304+35727-005917FM-15+001999999V0209999V000519999999N009999199+01501+01501999999ADDGA1041+003961999GE19AGL   +99999+99999GF199999041999003961999999MA1102301999999REMMET057METAR GMTT 011830Z VRB01KT 9999 SCT013 15/15 Q1023 NOSIG=
0148601010999992024010119004+35727-005917FM-15+001999999V0209999V001019999999N009999199+01401+01401999999ADDGA1041+003961999GE19AGL   +99999+99999GF199999041999003961999999MA1102301999999REMMET057METAR GMTT 011900Z VRB02KT 9999 SCT013 14/14 Q1023 NOSIG=
0148601010999992024010119304+35727-005917FM-15+001999999V0200701N001519999999N006000199+01401+01401999999ADDGA1021+009141999GE19AGL   +99999+99999GF199999021999009141999999MA1102301999999REMMET057METAR GMTT 011930Z 07003KT 6000 FEW030 14/14 Q1023 NOSIG=
0148601010999992024010120004+35727-005917FM-15+001999999V0200701N002119999999N006000199+01301+01301999999ADDGA1021+009141999GE19AGL   +99999+99999GF199999021999009141999999MA1102301999999REMMET057METAR GMTT 012000Z 07004KT 6000 FEW030 13/13 Q1023 NOSIG=
0148601010999992024010120304+35727-005917FM-15+001999999V0200801N002119999999N005000199+01301+01301999999ADDGA1021+009141999GE19AGL   +99999+99999GF199999021999009141999999MA1102401999999REMMET057METAR GMTT 012030Z 08004KT 5000 FEW030 13/13 Q1024 NOSIG=
0254601010999992024010121004+35733-005900FM-12+002199999V0200801N002612200019N004000199+01301+01301102391ADDAA103000091AY101021AY201021GA1021+009001081GE19AGL   +99999+99999GF102991021999009001999999MA1999999102191MD1110081+9999MW1101OD139900311999OD249900311999REMSYN08860101 21540 20805 10130 20130 30219 40239 51008 71000 82100 333 60007 82830 91006 91106=
0157601010999992024010121004+35727-005917FM-15+001999999V0200801N002619999999N004000199+01301+01301999999ADDGA1021+009141999GE19AGL   +99999+99999GF199999021999009141999999MA1102301999999MW1101REMMET060METAR GMTT 012100Z 08005KT 4000 BR FEW030 13/13 Q1023 NOSIG=
0157601010999992024010121304+35727-005917FM-15+001999999V0200901N002619999999N004000199+01301+01301999999ADDGA1021+009141999GE19AGL   +99999+99999GF199999021999009141999999MA1102301999999MW1101REMMET060METAR GMTT 012130Z 09005KT 4000 BR FEW030 13/13 Q1023 NOSIG=
0157601010999992024010122004+35727-005917FM-15+001999999V0200801N002119999999N004000199+01301+01301999999ADDGA1021+009141999GE19AGL   +99999+99999GF199999021999009141999999MA1102301999999MW1101REMMET060METAR GMTT 012200Z 08004KT 4000 BR FEW030 13/13 Q1023 NOSIG=
0157601010999992024010122304+35727-005917FM-15+001999999V0200701N002119999999N003000199+01301+01301999999ADDGA1021+009141999GE19AGL   +99999+99999GF199999021999009141999999MA1102401999999MW1101REMMET060METAR GMTT 012230Z 07004KT 3000 BR FEW030 13/13 Q1024 NOSIG=
0157601010999992024010123004+35727-005917FM-15+001999999V0200801N002119999999N002000199+01301+01301999999ADDGA1021+009141999GE19AGL   +99999+99999GF199999021999009141999999MA1102401999999MW1101REMMET060METAR GMTT 012300Z 08004KT 2000 BR FEW030 13/13 Q1024 NOSIG=
0157601010999992024010123304+35727-005917FM-15+001999999V0200801N002119999999N002000199+01201+01201999999ADDGA1021+009141999GE19AGL   +99999+99999GF199999021999009141999999MA1102301999999MW1101REMMET060METAR GMTT 012330Z 08004KT 2000 BR FEW030 12/12 Q1023 NOSIG=
0195601010999992024010200004+35733-005900FM-12+002199999V0200801N002119999999N002000199+01141+01141102381ADDAA103000091AA206000091AY101021AY201021MA1999999102181MD1810011+9999MW1101OD139900361999OD249900211999REMSYN08260101 01920 00804 10114 20114 30218 40238 58001 60001 71000 333 60007 91004 91107=
0116601010999992024010200004+35727-005917FM-15+001999999V0200801N002112200019N002000199+01201+01201999999ADDGF100991999999999999999999MA1102301999999MW1101REMMET057METAR GMTT 020000Z 08004KT 2000 BR NSC 12/12 Q1023 NOSIG=
0116601010999992024010200304+35727-005917FM-15+001999999V0200601N002112200019N002000199+01101+01101999999ADDGF100991999999999999999999MA1102301999999MW1101REMMET057METAR GMTT 020030Z 06004KT 2000 BR NSC 11/11 Q1023 NOSIG=
0116601010999992024010201004+35727-005917FM-15+001999999V0200801N002112200019N002500199+01201+01201999999ADDGF100991999999999999999999MA1102201999999MW1101REMMET057METAR GMTT 020100Z 08004KT 2500 BR NSC 12/12 Q1022 NOSIG=
0116601010999992024010201304+35727-005917FM-15+001999999V0200801N002112200019N002500199+01201+01201999999ADDGF100991999999999999999999MA1102201999999MW1101REMMET057METAR GMTT 020130Z 08004KT 2500 BR NSC 12/12 Q1022 NOSIG=
0116601010999992024010202004+35727-005917FM-15+001999999V0200901N002612200019N002000199+01201+01201999999ADDGF100991999999999999999999MA1102201999999MW1101REMMET057METAR GMTT 020200Z 09005KT 2000 BR NSC 12/12 Q1022 NOSIG=
0116601010999992024010202304+35727-005917FM-15+001999999V0200801N003112200019N004000199+01101+01101999999ADDGF100991999999999999999999MA1102201999999MW1101REMMET057METAR GMTT 020230Z 08006KT 4000 BR NSC 11/11 Q1022 NOSIG=
0178601010999992024010203004+35733-005900FM-12+002199999V0200801N003119999999N005000199+01181+01181102231ADDAA103000091AY101021AY201021MA1999999102031MD1610151+9999MW1101OD139900411999OD249900411999REMSYN07660101 21950 00806 10118 20118 30203 40223 56015 71000 333 60007 91008 91108=
0107601010999992024010203004+35727-005917FM-15+001999999V0200801N003112200019N005000199+01201+01201999999ADDGF100991999999999999999999MA1102201999999REMMET054METAR GMTT 020300Z 08006KT 5000 NSC 12/12 Q1022 NOSIG=
0107601010999992024010203304+35727-005917FM-15+001999999V0200901N002612200019N005000199+01201+01201999999ADDGF100991999999999999999999MA1102201999999REMMET054METAR GMTT 020330Z 09005KT 5000 NSC 12/12 Q1022 NOSIG=
0107601010999992024010204004+35727-005917FM-15+001999999V0200801N002612200019N006000199+01101+01101999999ADDGF100991999999999999999999MA1102201999999REMMET054METAR GMTT 020400Z 08005KT 6000 NSC 11/11 Q1022 NOSIG=
0120601010999992024010204304+35727-005917FM-15+001999999V0200601V001512200019N006000199+01101+01101999999ADDGF100991999999999999999999MA1102201999999REMMET067METAR GMTT 020430Z AUTO 06003KT 010V090 6000 NSC 11/11 Q1022 NOSIG=
0107601010999992024010205004+35727-005917FM-15+001999999V0200501N002112200019N006000199+01101+01101999999ADDGF100991999999999999999999MA1102201999999REMMET054METAR GMTT 020500Z 05004KT 6000 NSC 11/11 Q1022 NOSIG=
0148601010999992024010205304+35727-005917FM-15+001999999V0200801N001519999999N009999199+01101+01101999999ADDGA1021+006101999GE19AGL   +99999+99999GF199999021999006101999999MA1102201999999REMMET057METAR GMTT 020530Z 08003KT 9999 FEW020 11/11 Q1022 NOSIG=
0274601010999992024010206004+35733-005900FM-12+002199999V0200901N002112200019N010000199+01031+01031102261ADDAA103000091AA224000091GA1021+006001081GE19AGL   +99999+99999GF102991021999006001999999KA1240N+00991MA1999999102061MD1310031+9999OD139900411999OD249900261999REMSYN10660101 02560 20904 10103 20103 30206 40226 53003 60004 82100 333 20099 55074 20000 60007 82820 91005 91108=
0148601010999992024010206004+35727-005917FM-15+001999999V0200901N002119999999N009999199+01001+01001999999ADDGA1021+006101999GE19AGL   +99999+99999GF199999021999006101999999MA1102201999999REMMET057METAR GMTT 020600Z 09004KT 9999 FEW020 10/10 Q1022 NOSIG=
0148601010999992024010206304+35727-005917FM-15+001999999V0201201N002119999999N009999199+01101+01101999999ADDGA1021+006101999GE19AGL   +99999+99999GF199999021999006101999999MA1102201999999REMMET057METAR GMTT 020630Z 12004KT 9999 FEW020 11/11 Q1022 NOSIG=
0171601010999992024010207004+35727-005917FM-15+001999999V0201201N00211048771CN009999199+01201+01201999999ADDGA1021+006101999GA2041+048771999GE19AGL   +99999+99999GF199999021999006101999999MA1102201999999REMMET064METAR GMTT 020700Z 12004KT 9999 FEW020 SCT160 12/12 Q1022 NOSIG=
0078601010999992024010207304+35727-005917FM-15+001999999V0201201N002119999999Y009900599+01301+01301999999ADDMA1102301999999REMMET051METAR GMTT 020730Z 12004KT CAVOK 13/13 Q1023 NOSIG=
0078601010999992024010208004+35727-005917FM-15+001999999V0200801N002619999999Y009900599+01101+01101999999ADDMA1102301999999REMMET051METAR GMTT 020800Z 08005KT CAVOK 11/11 Q1023 NOSIG=
0078601010999992024010208304+35727-005917FM-15+001999999V0200901N002119999999Y009900599+01201+01201999999ADDMA1102301999999REMMET051METAR GMTT 020830Z 09004KT CAVOK 12/12 Q1023 NOSIG=
0226601010999992024010209004+35733-005900FM-12+002199999V0201001N003112200019N010000199+01301+01301102371ADDAA103000091GA1031+060001001GE19AGL   +99999+99999GF103991031999060001999999MA1999999102171MD1210111+9999OD139900461999OD249900461999REMSYN08260101 22960 31006 10130 20130 30217 40237 52011 80002 333 60007 83070 91009 91109=
0078601010999992024010209004+35727-005917FM-15+001999999V0201001N003119999999Y009900599+01301+01301999999ADDMA1102301999999REMMET051METAR GMTT 020900Z 10006KT CAVOK 13/13 Q1023 NOSIG=
0078601010999992024010209304+35727-005917FM-15+001999999V0200901N002619999999Y009900599+01401+01301999999ADDMA1102401999999REMMET051METAR GMTT 020930Z 09005KT CAVOK 14/13 Q1024 NOSIG=
0078601010999992024010210004+35727-005917FM-15+001999999V0200801N001019999999Y009900599+01601+01501999999ADDMA1102401999999REMMET051METAR GMTT 021000Z 08002KT CAVOK 16/15 Q1024 NOSIG=
0078601010999992024010210304+35727-005917FM-15+001999999V0200901N002619999999Y009900599+01701+01501999999ADDMA1102401999999REMMET051METAR GMTT 021030Z 09005KT CAVOK 17/15 Q1024 NOSIG=
0078601010999992024010211004+35727-005917FM-15+001999999V0201001N002119999999Y009900599+01801+01401999999ADDMA1102401999999REMMET051METAR GMTT 021100Z 10004KT CAVOK 18/14 Q1024 NOSIG=
0086601010999992024010211304+35727-005917FM-15+001999999V0201001V001519999999Y009900599+01901+01401999999ADDMA1102301999999REMMET059METAR GMTT 021130Z 10003KT 050V160 CAVOK 19/14 Q1023 NOSIG=
0243601010999992024010212004+35733-005900FM-12+002199999V0201001N001512200019N010000199+02051+01441102361ADDAA103000091AA206000091GA1021+060001001GE19AGL   +99999+99999GF102991021999060001999999MA1999999102161MD1810011+9999OD139900461999OD249900261999REMSYN08860101 02960 21003 10205 20144 30216 40236 58001 60001 80002 333 60007 82070 91005 91109=
0086601010999992024010212004+35727-005917FM-15+001999999V0201001V001519999999Y009900599+02001+01401999999ADDMA1102301999999REMMET059METAR GMTT 021200Z 10003KT 060V130 CAVOK 20/14 Q1023 NOSIG=
0078601010999992024010212304+35727-005917FM-15+001999999V0200901N002119999999Y009900599+02101+01301999999ADDMA1102301999999REMMET051METAR GMTT 021230Z 09004KT CAVOK 21/13 Q1023 NOSIG=
0086601010999992024010213004+35727-005917FM-15+001999999V0200801V002119999999Y009900599+02201+01401999999ADDMA1102201999999REMMET059METAR GMTT 021300Z 08004KT 050V120 CAVOK 22/14 Q1022 NOSIG=
0078601010999992024010213304+35727-005917FM-15+001999999V0202801N002119999999Y009900599+02101+01401999999ADDMA1102201999999REMMET051METAR GMTT 021330Z 28004KT CAVOK 21/14 Q1022 NOSIG=
0086601010999992024010214004+35727-005917FM-15+001999999V0202401V001519999999Y009900599+02101+01201999999ADDMA1102201999999REMMET059METAR GMTT 021400Z 24003KT 210V280 CAVOK 21/12 Q1022 NOSIG=
0078601010999992024010214304+35727-005917FM-15+001999999V0200401N002619999999Y009900599+02101+01101999999ADDMA1102201999999REMMET051METAR GMTT 021430Z 04005KT CAVOK 21/11 Q1022 NOSIG=
0226601010999992024010215004+35733-005900FM-12+002199999V0200501N002112200019N010000199+02141+01001102221ADDAA103000091GA1021+060001001GE19AGL   +99999+99999GF102991021999060001999999MA1999999102031MD1610131+9999OD139900411999OD249900361999REMSYN08260101 22960 20504 10214 20100 30203 40222 56013 80002 333 60007 82070 91007 91108=
0078601010999992024010215004+35727-005917FM-15+001999999V0200501N002119999999Y009900599+02101+01001999999ADDMA1102201999999REMMET051METAR GMTT 021500Z 05004KT CAVOK 21/10 Q1022 NOSIG=
0078601010999992024010215304+35727-005917FM-15+001999999V0200401N002119999999Y009900599+02101+01101999999ADDMA1102201999999REMMET051METAR GMTT 021530Z 04004KT CAVOK 21/11 Q1022 NOSIG=
0078601010999992024010216004+35727-005917FM-15+001999999V0200401N002619999999Y009900599+02001+01201999999ADDMA1102201999999REMMET051METAR GMTT 021600Z 04005KT CAVOK 20/12 Q1022 NOSIG=
0078601010999992024010216304+35727-005917FM-15+001999999V0200401N002119999999Y009900599+01901+01201999999ADDMA1102201999999REMMET051METAR GMTT 021630Z 04004KT CAVOK 19/12 Q1022 NOSIG=
0078601010999992024010217004+35727-005917FM-15+001999999V0209999V000519999999Y009900599+01901+01301999999ADDMA1102201999999REMMET051METAR GMTT 021700Z VRB01KT CAVOK 19/13 Q1022 NOSIG=
0078601010999992024010217304+35727-005917FM-15+001999999V0209999V000519999999Y009900599+01701+01301999999ADDMA1102201999999REMMET051METAR GMTT 021730Z VRB01KT CAVOK 17/13 Q1022 NOSIG=
0279601010999992024010218004+35733-005900FM-12+002199999V0200201N001012200019N010000199+01521+01201102231ADDAA103000091AA212000091AA324000091GA1021+060001001GE19AGL   +99999+99999GF102991021999060001999999KA1120M+02221MA1999999102031MD1510001+9999OD139900411999OD249900311999REMSYN10060101 02960 20202 10152 20120 30203 40223 55000 60002 80002 333 10222 60007 70000 82070 91006 91108=
0078601010999992024010218004+35727-005917FM-15+001999999V0209999V001019999999Y009900599+01501+01201999999ADDMA1102201999999REMMET051METAR GMTT 021800Z VRB02KT CAVOK 15/12 Q1022 NOSIG=
0078601010999992024010218304+35727-005917FM-15+001999999V0209999V000519999999Y009900599+01501+01301999999ADDMA1102201999999REMMET051METAR GMTT 021830Z VRB01KT CAVOK 15/13 Q1022 NOSIG=
0078601010999992024010219004+35727-005917FM-15+001999999V0200901N001519999999Y009900599+01401+01101999999ADDMA1102201999999REMMET051METAR GMTT 021900Z 09003KT CAVOK 14/11 Q1022 NOSIG=
0078601010999992024010219304+35727-005917FM-15+001999999V0201101N002119999999Y009900599+01301+01201999999ADDMA1102201999999REMMET051METAR GMTT 021930Z 11004KT CAVOK 13/12 Q1022 NOSIG=
0078601010999992024010220004+35727-005917FM-15+001999999V0201001N002119999999Y009900599+01301+01201999999ADDMA1102201999999REMMET051METAR GMTT 022000Z 10004KT CAVOK 13/12 Q1022 NOSIG=
0078601010999992024010220304+35727-005917FM-15+001999999V0203601N002119999999Y009900599+01201+01101999999ADDMA1102201999999REMMET051METAR GMTT 022030Z 36004KT CAVOK 12/11 Q1022 NOSIG=
0150601010999992024010221004+35733-005900FM-12+002199999V0203601N001019999999N010000199+01121+01101102271ADDAA103000091MA1999999102071MD1110041+9999OD139900261999OD249900101999REMSYN07060101 22960 03602 10112 20110 30207 40227 51004 333 60007 91002 91105=
0078601010999992024010221004+35727-005917FM-15+001999999V0209999V001019999999Y009900599+01101+01101999999ADDMA1102201999999REMMET051METAR GMTT 022100Z VRB02KT CAVOK 11/11 Q1022 NOSIG=
0078601010999992024010221304+35727-005917FM-15+001999999V0200601N001019999999Y009900599+01201+01201999999ADDMA1102201999999REMMET051METAR GMTT 022130Z 06002KT CAVOK 12/12 Q1022 NOSIG=
0078601010999992024010222004+35727-005917FM-15+001999999V0209999V000519999999Y009900599+01201+01201999999ADDMA1102301999999REMMET051METAR GMTT 022200Z VRB01KT CAVOK 12/12 Q1023 NOSIG=
0078601010999992024010222304+35727-005917FM-15+001999999V0200801N001519999999Y009900599+01101+01101999999ADDMA1102201999999REMMET051METAR GMTT 022230Z 08003KT CAVOK 11/11 Q1022 NOSIG=
0078601010999992024010223004+35727-005917FM-15+001999999V0200901N002619999999Y009900599+01101+01101999999ADDMA1102201999999REMMET051METAR GMTT 022300Z 09005KT CAVOK 11/11 Q1022 NOSIG=
0086601010999992024010223304+35727-005917FM-15+001999999V0200901V001519999999Y009900599+01101+01101999999ADDMA1102201999999REMMET059METAR GMTT 022330Z 09003KT 060V120 CAVOK 11/11 Q1022 NOSIG=
0167601010999992024010300004+35733-005900FM-12+002199999V0200601N001019999999N010000199+01151+01151102261ADDAA103000091AA206000091MA1999999102061MD1810011+9999OD139900261999OD249900101999REMSYN07660101 02960 00602 10115 20115 30206 40226 58001 60001 333 60007 91002 91105=
0078601010999992024010300004+35727-005917FM-15+001999999V0200501N000519999999Y009900599+01201+01201999999ADDMA1102201999999REMMET051METAR GMTT 030000Z 05001KT CAVOK 12/12 Q1022 NOSIG=
0078601010999992024010300304+35727-005917FM-15+001999999V0200901N001519999999Y009900599+01001+01001999999ADDMA1102201999999REMMET051METAR GMTT 030030Z 09003KT CAVOK 10/10 Q1022 NOSIG=
0111601010999992024010301004+35727-005917FM-15+001999999V0200701N002612200019N008000199+01001+01001999999ADDGF100991999999999999999999MA1102201999999REMMET058METAR COR GMTT 030100Z 07005KT 8000 NSC 10/10 Q1022 NOSIG=
0107601010999992024010301304+35727-005917FM-15+001999999V0200801N002112200019N008000199+01001+01001999999ADDGF100991999999999999999999MA1102201999999REMMET054METAR GMTT 030130Z 08004KT 8000 NSC 10/10 Q1022 NOSIG=
0078601010999992024010302004+35727-005917FM-15+001999999V0201001N002119999999Y009900599+01001+01001999999ADDMA1102201999999REMMET051METAR GMTT 030200Z 10004KT CAVOK 10/10 Q1022 NOSIG=
0078601010999992024010302304+35727-005917FM-15+001999999V0200801N003119999999Y009900599+01001+01001999999ADDMA1102201999999REMMET051METAR GMTT 030230Z 08006KT CAVOK 10/10 Q1022 NOSIG=
0150601010999992024010303004+35733-005900FM-12+002199999V0200801N002619999999N010000199+00961+00961102221ADDAA103000091MA1999999102021MD1610041+9999OD139900311999OD249900311999REMSYN07060101 22960 00805 10096 20096 30202 40222 56004 333 60007 91006 91106=
0078601010999992024010303004+35727-005917FM-15+001999999V0200801N002619999999Y009900599+01001+01001999999ADDMA1102201999999REMMET051METAR GMTT 030300Z 08005KT CAVOK 10/10 Q1022 NOSIG=
0078601010999992024010303304+35727-005917FM-15+001999999V0200801N002619999999Y009900599+00901+00901999999ADDMA1102201999999REMMET051METAR GMTT 030330Z 08005KT CAVOK 09/09 Q1022 NOSIG=
0083601010999992024010304004+35727-005917FM-15+001999999V0200801N002619999999Y009900599+00901+00901999999ADDMA1102201999999REMMET056METAR GMTT 030400Z AUTO 08005KT CAVOK 09/09 Q1022 NOSIG=
0083601010999992024010304304+35727-005917FM-15+001999999V0200801N003119999999Y009900599+00901+00901999999ADDMA1102201999999REMMET056METAR GMTT 030430Z AUTO 08006KT CAVOK 09/09 Q1022 NOSIG=
0091601010999992024010305004+35727-005917FM-15+001999999V0200801V002119999999Y009900599+00901+00901999999ADDMA1102201999999REMMET064METAR GMTT 030500Z AUTO 08004KT 360V100 CAVOK 09/09 Q1022 NOSIG=
0083601010999992024010305304+35727-005917FM-15+001999999V0200901N002119999999Y009900599+00901+00901999999ADDMA1102201999999REMMET056METAR GMTT 030530Z AUTO 09004KT CAVOK 09/09 Q1022 NOSIG=
0226601010999992024010306004+35733-005900FM-12+002199999V0200801N001519999999N003000199+00851+00851102251ADDAA103000231AA224000431AY101021AY201021KA1240N+00831MA1999999102051MD1310031+9999MW1101OD139900361999OD249900211999REMSYN10060101 01930 00803 10085 20085 30205 40225 53003 69944 71000 333 20083 55078 20000 69927 91004 91107=
0116601010999992024010306004+35727-005917FM-15+001999999V0200801N001512200019N003000199+00901+00901999999ADDGF100991999999999999999999MA1102201999999MW1101REMMET057METAR GMTT 030600Z 08003KT 3000 BR NSC 09/09 Q1022 NOSIG=
0121601010999992024010306304+35727-005917FM-15+001999999V0200901N001512200019N003000199+01001+01001999999ADDAW1101GF100991999999999999999999MA1102201999999REMMET062METAR GMTT 030630Z AUTO 09003KT 3000 BR NSC 10/10 Q1022 NOSIG=
0121601010999992024010307004+35727-005917FM-15+001999999V0200701N002112200019N003000199+00901+00901999999ADDAW1101GF100991999999999999999999MA1102201999999REMMET062METAR GMTT 030700Z AUTO 07004KT 3000 BR NSC 09/09 Q1022 NOSIG=
0116601010999992024010307304+35727-005917FM-15+001999999V0200801N003112200019N004000199+00901+00901999999ADDGF100991999999999999999999MA1102201999999MW1101REMMET057METAR GMTT 030730Z 08006KT 4000 BR NSC 09/09 Q1022 NOSIG=
0116601010999992024010308004+35727-005917FM-15+001999999V0201001N003112200019N004000199+01001+01001999999ADDGF100991999999999999999999MA1102301999999MW1101REMMET057METAR GMTT 030800Z 10006KT 4000 BR NSC 10/10 Q1023 NOSIG=
0116601010999992024010308304+35727-005917FM-15+001999999V0200901N003112200019N003500199+01101+01101999999ADDGF100991999999999999999999MA1102301999999MW1101REMMET057METAR GMTT 030830Z 09006KT 3500 BR NSC 11/11 Q1023 NOSIG=
0178601010999992024010309004+35733-005900FM-12+002199999V0200801N002119999999N004000199+01211+01211102331ADDAA103000091AY101021AY201021MA1999999102131MD1110081+9999MW1101OD139900461999OD249900261999REMSYN07660101 21940 00804 10121 20121 30213 40233 51008 71000 333 60007 91005 91109=
0129601010999992024010309004+35727-005917FM-15+001999999V0200801N002112200019N004000199+01201+01201999999ADDGF100991999999999999999999MA1102301999999MW1101REMMET070METAR COR GMTT 030900Z 08004KT 4000 BR NSC 12/12 Q1023 BECMG 8000 NSW=
0107601010999992024010309304+35727-005917FM-15+001999999V0200801N002112200019N006000199+01401+01401999999ADDGF100991999999999999999999MA1102301999999REMMET054METAR GMTT 030930Z 08004KT 6000 NSC 14/14 Q1023 NOSIG=
0107601010999992024010310004+35727-005917FM-15+001999999V0200901N001512200019N006000199+01601+01401999999ADDGF100991999999999999999999MA1102301999999REMMET054METAR GMTT 031000Z 09003KT 6000 NSC 16/14 Q1023 NOSIG=
0115601010999992024010310304+35727-005917FM-15+001999999V0200901V002112200019N008000199+01701+01501999999ADDGF100991999999999999999999MA1102301999999REMMET062METAR GMTT 031030Z 09004KT 060V130 8000 NSC 17/15 Q1023 NOSIG=
0107601010999992024010311004+35727-005917FM-15+001999999V0209999V001012200019N009000199+01801+01501999999ADDGF100991999999999999999999MA1102301999999REMMET054METAR GMTT 031100Z VRB02KT 9000 NSC 18/15 Q1023 NOSIG=
0086601010999992024010311304+35727-005917FM-15+001999999V0201701V001519999999Y009900599+02001+01101999999ADDMA1102301999999REMMET059METAR GMTT 031130Z 17003KT 100V240 CAVOK 20/11 Q1023 NOSIG=
0167601010999992024010312004+35733-005900FM-12+002199999V0202201N002119999999N010000199+02051+01061102281ADDAA103000091AA206000091MA1999999102081MD1810051+9999OD139900461999OD249900461999REMSYN07660101 02960 02204 10205 20106 30208 40228 58005 60001 333 60007 91009 91109=
0086601010999992024010312004+35727-005917FM-15+001999999V0202201V001519999999Y009900599+02101+01201999999ADDMA1102201999999REMMET059METAR GMTT 031200Z 22003KT 170V250 CAVOK 21/12 Q1022 NOSIG=
0086601010999992024010312304+35727-005917FM-15+001999999V0202601V002619999999Y009900599+02001+01401999999ADDMA1102201999999REMMET059METAR GMTT 031230Z 26005KT 240V300 CAVOK 20/14 Q1022 NOSIG=
0082601010999992024010313004+35727-005917FM-15+001999999V0202401N003119999999Y009900599+02001+01301999999ADDMA1102101999999REMMET055METAR COR GMTT 031300Z 24006KT CAVOK 20/13 Q1021 NOSIG=
0078601010999992024010313304+35727-005917FM-15+001999999V0202501N003119999999Y009900599+02001+01301999999ADDMA1102101999999REMMET051METAR GMTT 031330Z 25006KT CAVOK 20/13 Q1021 NOSIG=
0078601010999992024010314004+35727-005917FM-15+001999999V0202801N003119999999Y009900599+01901+01401999999ADDMA1102101999999REMMET051METAR GMTT 031400Z 28006KT CAVOK 19/14 Q1021 NOSIG=
0078601010999992024010314304+35727-005917FM-15+001999999V0202801N003119999999Y009900599+01901+01401999999ADDMA1102101999999REMMET051METAR GMTT 031430Z 28006KT CAVOK 19/14 Q1021 NOSIG=
0150601010999992024010315004+35733-005900FM-12+002199999V0202601N003119999999N010000199+01921+01381102111ADDAA103000091MA1999999101911MD1610171+9999OD139900511999OD249900411999REMSYN07060101 22960 02606 10192 20138 30191 40211 56017 333 60007 91008 91110=
0078601010999992024010315004+35727-005917FM-15+001999999V0202601N003119999999Y009900599+01901+01401999999ADDMA1102101999999REMMET051METAR GMTT 031500Z 26006KT CAVOK 19/14 Q1021 NOSIG=
0078601010999992024010315304+35727-005917FM-15+001999999V0202701N002619999999Y009900599+01901+01301999999ADDMA1102001999999REMMET051METAR GMTT 031530Z 27005KT CAVOK 19/13 Q1020 NOSIG=
0078601010999992024010316004+35727-005917FM-15+001999999V0202701N002119999999Y009900599+01901+01301999999ADDMA1102001999999REMMET051METAR GMTT 031600Z 27004KT CAVOK 19/13 Q1020 NOSIG=
0078601010999992024010316304+35727-005917FM-15+001999999V0202801N002119999999Y009900599+01801+01401999999ADDMA1102001999999REMMET051METAR GMTT 031630Z 28004KT CAVOK 18/14 Q1020 NOSIG=
0078601010999992024010317004+35727-005917FM-15+001999999V0209999V001019999999Y009900599+01901+01301999999ADDMA1102001999999REMMET051METAR GMTT 031700Z VRB02KT CAVOK 19/13 Q1020 NOSIG=
0078601010999992024010317304+35727-005917FM-15+001999999V0209999V001019999999Y009900599+01601+01401999999ADDMA1102101999999REMMET051METAR GMTT 031730Z VRB02KT CAVOK 16/14 Q1021 NOSIG=
0203601010999992024010318004+35733-005900FM-12+002199999V0203101N000519999999N010000199+01581+01431102131ADDAA103000091AA212000091AA324000091KA1120M+02091MA1999999101931MD1310021+9999OD139900511999OD249900151999REMSYN08860101 02960 03101 10158 20143 30193 40213 53002 60002 333 10209 60007 70000 91003 91110=
0078601010999992024010318004+35727-005917FM-15+001999999V0209999V000519999999Y009900599+01601+01401999999ADDMA1102101999999REMMET051METAR GMTT 031800Z VRB01KT CAVOK 16/14 Q1021 NOSIG=
0148601010999992024010318304+35727-005917FM-15+001999999V0200601N000519999999N009999199+01501+01401999999ADDGA1021+004881999GE19AGL   +99999+99999GF199999021999004881999999MA1102101999999REMMET057METAR GMTT 031830Z 06001KT 9999 FEW016 15/14 Q1021 NOSIG=
0156601010999992024010319004+35727-005917FM-15+001999999V0200901V001519999999N009999199+01401+01301999999ADDGA1021+004881999GE19AGL   +99999+99999GF199999021999004881999999MA1102101999999REMMET065METAR GMTT 031900Z 09003KT 040V110 9999 FEW016 14/13 Q1021 NOSIG=
0148601010999992024010319304+35727-005917FM-15+001999999V0200801N001519999999N009999199+01301+01301999999ADDGA1021+004881999GE19AGL   +99999+99999GF199999021999004881999999MA1102101999999REMMET057METAR GMTT 031930Z 08003KT 9999 FEW016 13/13 Q1021 NOSIG=
0115601010999992024010320004+35727-005917FM-15+001999999V0200901V001512200019N008000199+01201+01201999999ADDGF100991999999999999999999MA1102101999999REMMET062METAR GMTT 032000Z 09003KT 040V130 8000 NSC 12/12 Q1021 NOSIG=
0115601010999992024010320304+35727-005917FM-15+001999999V0200901V001512200019N007000199+01301+01301999999ADDGF100991999999999999999999MA1102101999999REMMET062METAR GMTT 032030Z 09003KT 010V120 7000 NSC 13/13 Q1021 NOSIG=
0150601010999992024010321004+35733-005900FM-12+002199999V0201101N001519999999N007000199+01251+01251102191ADDAA103000091MA1999999101991MD1110061+9999OD139900261999OD249900261999REMSYN07060101 22957 01103 10125 20125 30199 40219 51006 333 60007 91005 91105=
0115601010999992024010321004+35727-005917FM-15+001999999V0201101V001512200019N007000199+01301+01301999999ADDGF100991999999999999999999MA1102101999999REMMET062METAR GMTT 032100Z 11003KT 070V160 7000 NSC 13/13 Q1021 NOSIG=
0107601010999992024010321304+35727-005917FM-15+001999999V0200801N002112200019N007000199+01201+01201999999ADDGF100991999999999999999999MA1102101999999REMMET054METAR GMTT 032130Z 08004KT 7000 NSC 12/12 Q1021 NOSIG=
0107601010999992024010322004+35727-005917FM-15+001999999V0200801N002612200019N007000199+01201+01201999999ADDGF100991999999999999999999MA1102101999999REMMET054METAR GMTT 032200Z 08005KT 7000 NSC 12/12 Q1021 NOSIG=
0107601010999992024010322304+35727-005917FM-15+001999999V0200801N002612200019N007000199+01201+01201999999ADDGF100991999999999999999999MA1102101999999REMMET054METAR GMTT 032230Z 08005KT 7000 NSC 12/12 Q1021 NOSIG=
0107601010999992024010323004+35727-005917FM-15+001999999V0200801N002612200019N007000199+01201+01201999999ADDGF100991999999999999999999MA1102101999999REMMET054METAR GMTT 032300Z 08005KT 7000 NSC 12/12 Q1021 NOSIG=
0107601010999992024010323304+35727-005917FM-15+001999999V0200901N002612200019N007000199+01201+01201999999ADDGF100991999999999999999999MA1102101999999REMMET054METAR GMTT 032330Z 09005KT 7000 NSC 12/12 Q1021 NOSIG=
0284601010999992024010400004+35733-005900FM-12+002199999V0200701N00151999999CN008000199+01191+01191102121ADDAA103000091AA206000091GA1021+003901081GA2031+030001031GE19AGL   +99999+99999GF104991021999003901999999MA1999999101921MD1810071+9999OD139900361999OD249900211999REMSYN09460101 02458 40703 10119 20119 30192 40212 58007 60001 82230 333 60007 82813 83360 91004 91107=EQDQ01 030003SCOCIG
0171601010999992024010400004+35727-005917FM-15+001999999V0200701N00151030481CN007000199+01201+01201999999ADDGA1021+003961999GA2041+030481999GE19AGL   +99999+99999GF199999021999003961999999MA1102101999999REMMET064METAR GMTT 040000Z 07003KT 7000 FEW013 SCT100 12/12 Q1021 NOSIG=
0171601010999992024010400304+35727-005917FM-15+001999999V0209999V00101030481CN006000199+01101+01101999999ADDGA1021+003961999GA2041+030481999GE19AGL   +99999+99999GF199999021999003961999999MA1102101999999REMMET064METAR GMTT 040030Z VRB02KT 6000 FEW013 SCT100 11/11 Q1021 NOSIG=
0171601010999992024010401004+35727-005917FM-15+001999999V0200801N00151030481CN006000199+01201+01201999999ADDGA1021+003961999GA2041+030481999GE19AGL   +99999+99999GF199999021999003961999999MA1102001999999REMMET064METAR GMTT 040100Z 08003KT 6000 FEW013 SCT100 12/12 Q1020 NOSIG=
0171601010999992024010401304+35727-005917FM-15+001999999V0200801N00151030481CN006000199+01201+01201999999ADDGA1021+003961999GA2041+030481999GE19AGL   +99999+99999GF199999021999003961999999MA1102001999999REMMET064METAR GMTT 040130Z 08003KT 6000 FEW013 SCT100 12/12 Q1020 NOSIG=
0171601010999992024010402004+35727-005917FM-15+001999999V0200901N00311030481CN006000199+01201+01201999999ADDGA1021+003961999GA2041+030481999GE19AGL   +99999+99999GF199999021999003961999999MA1101901999999REMMET064METAR GMTT 040200Z 09006KT 6000 FEW013 SCT100 12/12 Q1019 NOSIG=
0171601010999992024010402304+35727-005917FM-15+001999999V0200901N00261030481CN006000199+01101+01101999999ADDGA1021+003961999GA2041+030481999GE19AGL   +99999+99999GF199999021999003961999999MA1101901999999REMMET064METAR GMTT 040230Z 09005KT 6000 FEW013 SCT100 11/11 Q1019 NOSIG=
0150601010999992024010403004+35733-005900FM-12+002199999V0200901N002119999999N006000199+01021+01021101971ADDAA103000091MA1999999101771MD1610151+9999OD139900411999OD249900261999REMSYN07060101 22956 00904 10102 20102 30177 40197 56015 333 60007 91005 91108=
0171601010999992024010403004+35727-005917FM-15+001999999V0200901N00211030481CN006000199+01001+01001999999ADDGA1021+003961999GA2041+030481999GE19AGL   +99999+99999GF199999021999003961999999MA1101901999999REMMET064METAR GMTT 040300Z 09004KT 6000 FEW013 SCT100 10/10 Q1019 NOSIG=
0176601010999992024010403304+35727-005917FM-15+001999999V0200801N00211030481CN006000199+01101+01101999999ADDGA1021+003961999GA2041+030481999GE19AGL   +99999+99999GF199999021999003961999999MA1101901999999REMMET069METAR GMTT 040330Z AUTO 08004KT 6000 FEW013 SCT100 11/11 Q1019 NOSIG=
0107601010999992024010404004+35727-005917FM-15+001999999V0201001N002112200019N006000199+01101+01101999999ADDGF100991999999999999999999MA1101801999999REMMET054METAR GMTT 040400Z 10004KT 6000 NSC 11/11 Q1018 NOSIG=
0112601010999992024010404304+35727-005917FM-15+001999999V0200901N002112200019N006000199+01001+01001999999ADDGF100991999999999999999999MA1101801999999REMMET059METAR GMTT 040430Z AUTO 09004KT 6000 NSC 10/10 Q1018 NOSIG=
0171601010999992024010405004+35727-005917FM-15+001999999V0200701N00261020121CN006000199+01101+01101999999ADDGA1021+003961999GA2041+020121999GE19AGL   +99999+99999GF199999021999003961999999MA1101801999999REMMET064METAR GMTT 040500Z 07005KT 6000 FEW013 SCT066 11/11 Q1018 NOSIG=
0171601010999992024010405304+35727-005917FM-15+001999999V0200601N001510201219N006000199+01101+01101999999ADDGA1021+003961999GA2071+020121999GE19AGL   +99999+99999GF199999021999003961999999MA1101801999999REMMET064METAR GMTT 040530Z 06003KT 6000 FEW013 BKN066 11/11 Q1018 NOSIG=
0296601010999992024010406004+35733-005900FM-12+002199999V0200101N00211024001CN006000199+01181+01181101901ADDAA103000091AA224000091GA1021+003901081GA2041+024001031GE19AGL   +99999+99999GF105991021999003901999999KA1240N+00971MA1999999101701MD1510071+9999OD139900411999OD249900261999REMSYN11260101 02456 50104 10118 20118 30170 40190 55007 60004 82230 333 20097 55084 20000 60007 82813 84358 91005 91108=
0171601010999992024010406004+35727-005917FM-15+001999999V0201001N002110201219N006000199+01201+01201999999ADDGA1021+003961999GA2071+020121999GE19AGL   +99999+99999GF199999021999003961999999MA1101801999999REMMET064METAR GMTT 040600Z 10004KT 6000 FEW013 BKN066 12/12 Q1018 NOSIG=
0171601010999992024010406304+35727-005917FM-15+001999999V0200701N002610201219N006000199+01201+01201999999ADDGA1021+003961999GA2071+020121999GE19AGL   +99999+99999GF199999021999003961999999MA1101901999999REMMET064METAR GMTT 040630Z 07005KT 6000 FEW013 BKN066 12/12 Q1019 NOSIG=
0171601010999992024010407004+35727-005917FM-15+001999999V0200601N001510243819N007000199+01201+01201999999ADDGA1021+003961999GA2071+024381999GE19AGL   +99999+99999GF199999021999003961999999MA1101901999999REMMET064METAR GMTT 040700Z 06003KT 7000 FEW013 BKN080 12/12 Q1019 NOSIG=
0171601010999992024010407304+35727-005917FM-15+001999999V0209999V001510243819N007000199+01201+01201999999ADDGA1021+003961999GA2071+024381999GE19AGL   +99999+99999GF199999021999003961999999MA1101901999999REMMET064METAR GMTT 040730Z VRB03KT 7000 FEW013 BKN080 12/12 Q1019 NOSIG=
0179601010999992024010408004+35727-005917FM-15+001999999V0202301V001510243819N009999199+01301+01101999999ADDGA1021+003961999GA2071+024381999GE19AGL   +99999+99999GF199999021999003961999999MA1101901999999REMMET072METAR GMTT 040800Z 23003KT 190V260 9999 FEW013 BKN080 13/11 Q1019 NOSIG=
0175601010999992024010408304+35727-005917FM-15+001999999V0209999V001010222519N005000199+01501+01001999999ADDGA1021+003051999GA2071+022251999GE19AGL   +99999+99999GF199999021999003051999999MA1101901999999REMMET068METAR COR GMTT 040830Z VRB02KT 5000 FEW010 BKN073 15/10 Q1019 NOSIG=
0298601010999992024010409004+35733-005900FM-12+002199999V0200601N00151013801CN008000199+01411+01281101961ADDAA103000431AY161021AY221021GA1021+003001081GA2031+013801061GA3051+018001031GE19AGL   +99999+99999GF107991021999003001999999MA1999999101761MD1110061+9999MW1211OD139900411999OD249900211999REMSYN10060101 21458 70603 10141 20128 30176 40196 51006 72162 8487/ 333 69947 82810 83646 85356 91004 91108=
0207601010999992024010409004+35727-005917FM-15+001999999V0200601V00151014021CN009999199+01401+01301999999ADDGA1021+003051999GA2041+014021999GA3071+020121999GE19AGL   +99999+99999GF199999021999003051999999MA1101901999999REMMET084METAR GMTT 040900Z 06003KT 010V150 9999 FEW010 SCT046 BKN066 14/13 Q1019 RERA NOSIG=
0199601010999992024010409304+35727-005917FM-15+001999999V0209999V00101030481CN009999199+01501+01401999999ADDGA1021+012191999GA2041+030481999GA3071+039621999GE19AGL   +99999+99999GF199999021999012191999999MA1101901999999REMMET076METAR GMTT 040930Z VRB02KT 9999 FEW040 SCT100 BKN130 15/14 Q1019 RERA NOSIG=
0176601010999992024010410004+35727-005917FM-15+001999999V0209999V001010304819N009999199+01601+01401999999ADDGA1041+012191999GA2071+030481999GE19AGL   +99999+99999GF199999041999012191999999MA1101901999999REMMET069METAR GMTT 041000Z VRB02KT 9999 SCT040 BKN100 16/14 Q1019 RERA NOSIG=
0184601010999992024010410304+35727-005917FM-15+001999999V0201601V002110365819N009999199+01701+01001999999ADDGA1041+012191999GA2071+036581999GE19AGL   +99999+99999GF199999041999012191999999MA1101901999999REMMET077METAR GMTT 041030Z 16004KT 110V210 9999 SCT040 BKN120 17/10 Q1019 RERA NOSIG=
0184601010999992024010411004+35727-005917FM-15+001999999V0201801V002110253019N009999199+01701+00901999999ADDGA1041+012191999GA2071+025301999GE19AGL   +99999+99999GF199999041999012191999999MA1101901999999REMMET077METAR GMTT 041100Z 18004KT 130V220 9999 SCT040 BKN083 17/09 Q1019 RERA NOSIG=
0184601010999992024010411304+35727-005917FM-15+001999999V0201901V00261025301CN009999199+01701+01001999999ADDGA1041+012191999GA2041+025301999GE19AGL   +99999+99999GF199999041999012191999999MA1101901999999REMMET077METAR GMTT 041130Z 19005KT 130V230 9999 SCT040 SCT083 17/10 Q1019 RERA NOSIG=
0271601010999992024010412004+35733-005900FM-12+002199999V0201901N00361030001CN010000199+01771+00991101851ADDAA103000231AA206000631AY161021AY221021GA1051+030001031GE19AGL   +99999+99999GF105991051999030001999999MA1999999101651MD1810111+9999MW1211OD139900671999OD249900671999REMSYN09460101 01960 51907 10177 20099 30165 40185 58011 69961 72162 85070 333 69927 85360 91013 91113=
0091601010999992024010412004+35727-005917FM-15+001999999V0201901V003619999999Y009900599+01801+01001999999ADDMA1101801999999REMMET064METAR GMTT 041200Z 19007KT 140V220 CAVOK 18/10 Q1018 RERA NOSIG=
0091601010999992024010412304+35727-005917FM-15+001999999V0202201V003119999999Y009900599+01801+01101999999ADDMA1101801999999REMMET064METAR GMTT 041230Z 22006KT 180V260 CAVOK 18/11 Q1018 RERA NOSIG=
0091601010999992024010413004+35727-005917FM-15+001999999V0202101V003119999999Y009900599+01801+00901999999ADDMA1101701999999REMMET064METAR GMTT 041300Z 21006KT 150V250 CAVOK 18/09 Q1017 RERA NOSIG=
0207601010999992024010413304+35727-005917FM-15+001999999V0202101V00311025301CN009999199+01901+01101999999ADDGA1021+012191999GA2041+025301999GA3071+033531999GE19AGL   +99999+99999GF199999021999012191999999MA1101601999999REMMET084METAR GMTT 041330Z 21006KT 170V260 9999 FEW040 SCT083 BKN110 19/11 Q1016 RERA NOSIG=
0202601010999992024010414004+35727-005917FM-15+001999999V0202001V00411006401CN009999199+01901+01601999999ADDGA1021+003051999GA2041+006401999GA3071+030481999GE19AGL   +99999+99999GF199999021999003051999999MA1101601999999REMMET079METAR GMTT 041400Z 20008KT 170V240 9999 FEW010 SCT021 BKN100 19/16 Q1016 NOSIG=
0202601010999992024010414304+35727-005917FM-15+001999999V0201901V00311006401CN009999199+01901+01201999999ADDGA1021+003051999GA2041+006401999GA3071+030481999GE19AGL   +99999+99999GF199999021999003051999999MA1101601999999REMMET079METAR GMTT 041430Z 19006KT 140V230 9999 FEW010 SCT021 BKN100 19/12 Q1016 NOSIG=
0270601010999992024010415004+35733-005900FM-12+002199999V0201901N00361024001CN021000199+01801+01541101601ADDAA103000091GA1021+006001081GA2051+024001031GA3051+078001001GE19AGL   +99999+99999GF108991021999006001999999MA1999999101401MD1610251+9999OD139900771999OD249900671999REMSYN09460101 22571 81907 10180 20154 30140 40160 56025 82274 333 60007 82820 85358 85076 91013 91115=
0202601010999992024010415004+35727-005917FM-15+001999999V0201901V003610253019N009999199+01801+01501999999ADDGA1021+006101999GA2071+025301999GA3071+079251999GE19AGL   +99999+99999GF199999021999006101999999MA1101501999999REMMET079METAR GMTT 041500Z 19007KT 130V220 9999 FEW020 BKN083 BKN260 18/15 Q1015 NOSIG=
0179601010999992024010415304+35727-005917FM-15+001999999V0201901V003610243819N009999199+01801+01501999999ADDGA1021+003961999GA2071+024381999GE19AGL   +99999+99999GF199999021999003961999999MA1101601999999REMMET072METAR GMTT 041530Z 19007KT 140V230 9999 FEW013 BKN080 18/15 Q1016 NOSIG=
0202601010999992024010416004+35727-005917FM-15+001999999V0201901V00361006101CN009999199+01801+01501999999ADDGA1041+004571999GA2041+006101999GA3071+020121999GE19AGL   +99999+99999GF199999041999004571999999MA1101501999999REMMET079METAR GMTT 041600Z 19007KT 160V230 9999 SCT015 SCT020 BKN066 18/15 Q1015 NOSIG=
0202601010999992024010416304+35727-005917FM-15+001999999V0201901V00361007921CN009999199+01701+01401999999ADDGA1041+004881999GA2041+007921999GA3071+020121999GE19AGL   +99999+99999GF199999041999004881999999MA1101501999999REMMET079METAR GMTT 041630Z 19007KT 140V220 9999 SCT016 SCT026 BKN066 17/14 Q1015 NOSIG=
0179601010999992024010417004+35727-005917FM-15+001999999V0201801V002610201219N009999199+01701+01401999999ADDGA1041+004881999GA2071+020121999GE19AGL   +99999+99999GF199999041999004881999999MA1101501999999REMMET072METAR GMTT 041700Z 18005KT 130V220 9999 SCT016 BKN066 17/14 Q1015 NOSIG=
0179601010999992024010417304+35727-005917FM-15+001999999V0201901V002610201219N009999199+01701+01301999999ADDGA1041+004881999GA2071+020121999GE19AGL   +99999+99999GF199999041999004881999999MA1101501999999REMMET072METAR GMTT 041730Z 19005KT 160V240 9999 SCT016 BKN066 17/13 Q1015 NOSIG=
0323601010999992024010418004+35733-005900FM-12+002199999V0201801N00361006901CN010000199+01671+01291101521ADDAA103000091AA212000631AA324000631GA1021+005401081GA2041+006901081GA3061+012001061GE19AGL   +99999+99999GF108991021999005401999999KA1120M+01941MA1999999101321MD1610081+9999OD139900771999OD249900771999REMSYN11260101 02460 81807 10167 20129 30132 40152 56008 69962 888// 333 10194 60007 70006 82818 84823 86640 91015 91115=
0202601010999992024010418004+35727-005917FM-15+001999999V0201801V00361007011CN009999199+01701+01301999999ADDGA1021+005491999GA2041+007011999GA3071+012191999GE19AGL   +99999+99999GF199999021999005491999999MA1101501999999REMMET079METAR GMTT 041800Z 18007KT 130V220 9999 FEW018 SCT023 BKN040 17/13 Q1015 NOSIG=
0202601010999992024010418304+35727-005917FM-15+001999999V0201601V00361007011CN009999199+01601+01401999999ADDGA1021+005491999GA2041+007011999GA3071+012191999GE19AGL   +99999+99999GF199999021999005491999999MA1101401999999REMMET079METAR GMTT 041830Z 16007KT 120V220 9999 FEW018 SCT023 BKN040 16/14 Q1014 NOSIG=
0202601010999992024010419004+35727-005917FM-15+001999999V0201701V003610045719N008000199+01501+01501999999ADDGA1021+001831999GA2071+004571999GA3071+006101999GE19AGL   +99999+99999GF199999021999001831999999MA1101401999999REMMET079METAR GMTT 041900Z 17007KT 120V210 8000 FEW006 BKN015 BKN020 15/15 Q1014 NOSIG=
0212601010999992024010419304+35727-005917FM-15+001999999V0201801V004110039619N004000199+01501+01501999999ADDGA1021+000911999GA2071+003961999GA3071+006101999GE19AGL   +99999+99999GF199999021999000911999999MA1101401999999MW1611REMMET083METAR GMTT 041930Z 18008KT 140V210 4000 -RA FEW003 BKN013 BKN020 15/15 Q1014 NOSIG=
0217601010999992024010420004+35727-005917FM-15+001999999V0201701V003610039619N004000199+01401+01401999999ADDGA1021+000911999GA2071+003961999GA3071+006101999GE19AGL   +99999+99999GF199999021999000911999999MA1101401999999MW1631REMMET088METAR GMTT 042000Z 17007KT 130V220 4000 2000W RA FEW003 BKN013 BKN020 14/14 Q1014 NOSIG=
0214601010999992024010420304+35727-005917FM-15+001999999V0201801V00411003961CN003000199+01501+01501999999ADDGA1021+000911999GA2041+003961081GA3071+006101999GE19AGL   +99999+99999GF199999021999000911999999MA1101401999999MW1631REMMET085METAR GMTT 042030Z 18008KT 130V220 3000 RA FEW003 SCT013TCU BKN020 15/15 Q1014 NOSIG=
0298601010999992024010421004+35733-005900FM-12+002199999V0202001N00411002401CN001500199+01571+01571101441ADDAA103002031AY161021AY261021GA1021+000901081GA2031+002401081GA3051+003901061GE19AGL   +99999+99999GF108991021999000901999999MA1999999101241MD1510081+9999MW1601OD139900931999OD249900721999REMSYN10060101 21215 82008 10157 20157 30124 40144 55008 76066 888// 333 60027 82803 83808 85613 91014 91118=
0221601010999992024010421004+35727-005917FM-15+001999999V0202001V00411003961CN003000199+01601+01601999999ADDGA1021+000911999GA2041+003961081GA3071+006101999GE19AGL   +99999+99999GF199999021999000911999999MA1101401999999MW1611REMMET092METAR GMTT 042100Z 20008KT 160V240 3000 1500W -RA FEW003 SCT013TCU BKN020 16/16 Q1014 NOSIG=
0201601010999992024010421304+35727-005917FM-15+001999999V0202401N00461003961CN005000199+01801+01801999999ADDGA1021+001831999GA2041+003961999GA3071+010061999GE19AGL   +99999+99999GF199999021999001831999999MA1101401999999REMMET078METAR GMTT 042130Z 24009KT 5000 FEW006 SCT013 BKN033 18/18 Q1014 RESHRA NOSIG=
0201601010999992024010422004+35727-005917FM-15+001999999V0202701N00571003961CN005000199+01701+01701999999ADDGA1021+001831999GA2041+003961999GA3071+010061999GE19AGL   +99999+99999GF199999021999001831999999MA1101401999999REMMET078METAR GMTT 042200Z 27011KT 5000 FEW006 SCT013 BKN033 17/17 Q1014 RESHRA NOSIG=
0201601010999992024010422304+35727-005917FM-15+001999999V0202801N00621003961CN005000199+01701+01701999999ADDGA1021+001831999GA2041+003961999GA3071+010061999GE19AGL   +99999+99999GF199999021999001831999999MA1101401999999REMMET078METAR GMTT 042230Z 28012KT 5000 FEW006 SCT013 BKN033 17/17 Q1014 RESHRA NOSIG=
0201601010999992024010423004+35727-005917FM-15+001999999V0202801N00771003961CN005000199+01701+01701999999ADDGA1021+001831999GA2041+003961999GA3071+010061999GE19AGL   +99999+99999GF199999021999001831999999MA1101401999999REMMET078METAR GMTT 042300Z 28015KT 5000 FEW006 SCT013 BKN033 17/17 Q1014 RESHRA NOSIG=
0201601010999992024010423304+35727-005917FM-15+001999999V0203101N00621003961CN005000199+01701+01501999999ADDGA1021+001831999GA2041+003961999GA3071+010061999GE19AGL   +99999+99999GF199999021999001831999999MA1101401999999REMMET078METAR GMTT 042330Z 31012KT 5000 FEW006 SCT013 BKN033 17/15 Q1014 RESHRA NOSIG=
0293601010999992024010500004+35733-005900FM-12+002199999V0203101N00671009901CN006000199+01701+01501101481ADDAA103000831AA206003031AY161021AY261021GA1031+003901081GA2051+009901061GE19AGL   +99999+99999GF108991031999003901999999MA1999999101281MD1110041+9999MW1021OD139901031999OD249901031999REMSYN10060101 01456 83113 10170 20150 30128 40148 51004 60031 70266 888// 333 69987 83813 85633 91020 91120=
0201601010999992024010500004+35727-005917FM-15+001999999V0203101N00621006101CN006000199+01701+01501999999ADDGA1021+003961999GA2041+006101999GA3071+010061999GE19AGL   +99999+99999GF199999021999003961999999MA1101401999999REMMET078METAR GMTT 050000Z 31012KT 6000 FEW013 SCT020 BKN033 17/15 Q1014 RESHRA NOSIG=
0201601010999992024010500304+35727-005917FM-15+001999999V0203101N00571006101CN006000199+01701+01601999999ADDGA1021+003961999GA2041+006101999GA3071+010061999GE19AGL   +99999+99999GF199999021999003961999999MA1101401999999REMMET078METAR GMTT 050030Z 31011KT 6000 FEW013 SCT020 BKN033 17/16 Q1014 RESHRA NOSIG=
0209601010999992024010501004+35727-005917FM-15+001999999V0203101V00571006101CN006000199+01701+01601999999ADDGA1021+003961999GA2041+006101999GA3071+010061999GE19AGL   +99999+99999GF199999021999003961999999MA1101401999999REMMET086METAR GMTT 050100Z 31011KT 270V330 6000 FEW013 SCT020 BKN033 17/16 Q1014 RESHRA NOSIG=
0171601010999992024010502004+35727-005917FM-15+001999999V0203101N005710100619N006000199+01601+01201999999ADDGA1041+003961999GA2071+010061999GE19AGL   +99999+99999GF199999041999003961999999MA1101401999999REMMET064METAR GMTT 050200Z 31011KT 6000 SCT013 BKN033 16/12 Q1014 NOSIG=
0171601010999992024010502304+35727-005917FM-15+001999999V0203101N004610100619N006000199+01601+01301999999ADDGA1041+003961999GA2071+010061999GE19AGL   +99999+99999GF199999041999003961999999MA1101401999999REMMET064METAR GMTT 050230Z 31009KT 6000 SCT013 BKN033 16/13 Q1014 NOSIG=
0254601010999992024010503004+35733-005900FM-12+002199999V0202901N00461009901CN006000199+01521+01221101461ADDAA103000091GA1031+003901081GA2051+009901061GE19AGL   +99999+99999GF108991031999003901999999MA1999999101261MD1810021+9999OD139901081999OD249900671999REMSYN09460101 22456 82909 10152 20122 30126 40146 58002 888// 90321 333 60007 83813 85633 91013 91121=
0171601010999992024010503004+35727-005917FM-15+001999999V0202901N004610100619N006000199+01501+01201999999ADDGA1041+003961999GA2071+010061999GE19AGL   +99999+99999GF199999041999003961999999MA1101401999999REMMET064METAR GMTT 050300Z 29009KT 6000 SCT013 BKN033 15/12 Q1014 NOSIG=
0171601010999992024010503304+35727-005917FM-15+001999999V0202801N004110100619N006000199+01501+01301999999ADDGA1041+003961999GA2071+010061999GE19AGL   +99999+99999GF199999041999003961999999MA1101401999999REMMET064METAR GMTT 050330Z 28008KT 6000 SCT013 BKN033 15/13 Q1014 NOSIG=
0204601010999992024010504004+35727-005917FM-15+001999999V0202801N00511003051CN005000199+01501+01501999999ADDGA1021+000911999GA2041+003051999GA3071+006101999GE19AGL   +99999+99999GF199999021999000911999999MA1101401999999MW1611REMMET075METAR GMTT 050400Z 28010KT 5000 -RA FEW003 SCT010 BKN020 15/15 Q1014 NOSIG=
0218601010999992024010504304+35727-005917FM-15+001999999V0202801N00771003051CN003000199+01401+01401999999ADDGA1021+000911999GA2041+003051999GA3071+006101999GE19AGL   +99999+99999GF199999021999000911999999MA1101401999999MW1631OC101391REMMET081METAR COR GMTT 050430Z 28015G27KT 3000 RA FEW003 SCT010 BKN020 14/14 Q1014 NOSIG=
0194601010999992024010505304+35727-005917FM-15+001999999V0203201N006710094519N006000199+01501+01401999999ADDGA1041+007321999GA2071+009451999GA3071+013111999GE19AGL   +99999+99999GF199999041999007321999999MA1101401999999REMMET071METAR GMTT 050530Z 32013KT 6000 SCT024 BKN031 BKN043 15/14 Q1014 NOSIG=
0330601010999992024010506004+35733-005900FM-12+002199999V0203201N00621009901CN006000199+01511+01331101481ADDAA103003031AA224007031AY181021AY261021GA1031+006001081GA2051+009901061GE19AGL   +99999+99999GF108991031999006001999999KA1240N+01331MA1999999101281MD1310021+9999MW1021OD139901391999OD249900931999REMSYN12460101 01556 83212 10151 20133 30128 40148 53002 60074 70286 888// 90740 333 20133 55036 20712 60037 83820 85633 91018 91127=
0179601010999992024010506004+35727-005917FM-15+001999999V0203201V006210100619N006000199+01501+01301999999ADDGA1041+006101999GA2071+010061999GE19AGL   +99999+99999GF199999041999006101999999MA1101401999999REMMET072METAR GMTT 050600Z 32012KT 280V340 6000 SCT020 BKN033 15/13 Q1014 NOSIG=
0171601010999992024010506304+35727-005917FM-15+001999999V0203201N006710100619N006000199+01501+01201999999ADDGA1041+006101999GA2071+010061999GE19AGL   +99999+99999GF199999041999006101999999MA1101401999999REMMET064METAR GMTT 050630Z 32013KT 6000 SCT020 BKN033 15/12 Q1014 NOSIG=
0179601010999992024010507004+35727-005917FM-15+001999999V0203101V004610100619N006000199+01501+01301999999ADDGA1041+006101999GA2071+010061999GE19AGL   +99999+99999GF199999041999006101999999MA1101501999999REMMET072METAR GMTT 050700Z 31009KT 280V340 6000 SCT020 BKN033 15/13 Q1015 NOSIG=
0171601010999992024010507304+35727-005917FM-15+001999999V0203001N008210121919N006000199+01501+01201999999ADDGA1041+006101999GA2071+012191999GE19AGL   +99999+99999GF199999041999006101999999MA1101501999999REMMET064METAR GMTT 050730Z 30016KT 6000 SCT020 BKN040 15/12 Q1015 NOSIG=
0198601010999992024010508004+35727-005917FM-15+001999999V0203201V011310121919N006000199+01201+01201999999ADDGA1041+006101081GA2071+012191999GE19AGL   +99999+99999GF199999041999006101999999MA1101501999999OC101961REMMET083METAR GMTT 050800Z 32022G38KT 280V340 6000 SCT020TCU BKN040 12/12 Q1015 RERA NOSIG=
0171601010999992024010508304+35727-005917FM-15+001999999V0203101N005710121919N008000199+01401+01301999999ADDGA1041+006101999GA2071+012191999GE19AGL   +99999+99999GF199999041999006101999999MA1101601999999REMMET064METAR GMTT 050830Z 31011KT 8000 SCT020 BKN040 14/13 Q1016 NOSIG=
0226601010999992024010509004+35733-005900FM-12+002199999V0203101N00881009901CN008000199+01481+01101101651ADDAA103002031GA1061+009901081GE19AGL   +99999+99999GF106991061999009901999999MA1999999101451MD1310171+9999OD139902011999OD249901291999REMSYN08260101 22658 63117 10148 20110 30145 40165 53017 86200 333 60027 86833 91025 91139=
0156601010999992024010509004+35727-005917FM-15+001999999V0203101V00881010061CN008000199+01501+01101999999ADDGA1071+010061999GE19AGL   +99999+99999GF199999071999010061999999MA1101601999999REMMET065METAR GMTT 050900Z 31017KT 270V330 8000 BKN033 15/11 Q1016 NOSIG=
0148601010999992024010509304+35727-005917FM-15+001999999V0203101N00931010061CN009999199+01501+01001999999ADDGA1071+010061999GE19AGL   +99999+99999GF199999071999010061999999MA1101701999999REMMET057METAR GMTT 050930Z 31018KT 9999 BKN033 15/10 Q1017 NOSIG=
0148601010999992024010510004+35727-005917FM-15+001999999V0203101N00771010061CN009999199+01501+01001999999ADDGA1071+010061999GE19AGL   +99999+99999GF199999071999010061999999MA1101701999999REMMET057METAR GMTT 051000Z 31015KT 9999 BKN033 15/10 Q1017 NOSIG=
0148601010999992024010510304+35727-005917FM-15+001999999V0203001N00881010061CN009999199+01501+01001999999ADDGA1071+010061999GE19AGL   +99999+99999GF199999071999010061999999MA1101701999999REMMET057METAR GMTT 051030Z 30017KT 9999 BKN033 15/10 Q1017 NOSIG=
0148601010999992024010511004+35727-005917FM-15+001999999V0203001N00931010061CN009999199+01501+00901999999ADDGA1071+010061999GE19AGL   +99999+99999GF199999071999010061999999MA1101701999999REMMET057METAR GMTT 051100Z 30018KT 9999 BKN033 15/09 Q1017 NOSIG=
0148601010999992024010511304+35727-005917FM-15+001999999V0203001N00881010061CN009999199+01501+00901999999ADDGA1071+010061999GE19AGL   +99999+99999GF199999071999010061999999MA1101701999999REMMET057METAR GMTT 051130Z 30017KT 9999 BKN033 15/09 Q1017 NOSIG=
0271601010999992024010512004+35733-005900FM-12+002199999V0202901N00931009901CN010000199+01491+00821101771ADDAA103000091AA206002031AY161021AY221021GA1061+009901081GE19AGL   +99999+99999GF106991061999009901999999MA1999999101571MD1990121+9999MW1021OD139902011999OD249901181999REMSYN09460101 01660 62918 10149 20082 30157 40177 50012 60021 70262 86200 333 60007 86833 91023 91139=
0148601010999992024010512004+35727-005917FM-15+001999999V0202901N00931010061CN009999199+01501+00801999999ADDGA1071+010061999GE19AGL   +99999+99999GF199999071999010061999999MA1101701999999REMMET057METAR GMTT 051200Z 29018KT 9999 BKN033 15/08 Q1017 NOSIG=
0148601010999992024010512304+35727-005917FM-15+001999999V0203001N00771010061CN009999199+01501+00901999999ADDGA1071+010061999GE19AGL   +99999+99999GF199999071999010061999999MA1101701999999REMMET057METAR GMTT 051230Z 30015KT 9999 BKN033 15/09 Q1017 NOSIG=
0148601010999992024010513004+35727-005917FM-15+001999999V0202801N00821010061CN009999199+01501+00901999999ADDGA1071+010061999GE19AGL   +99999+99999GF199999071999010061999999MA1101701999999REMMET057METAR GMTT 051300Z 28016KT 9999 BKN033 15/09 Q1017 NOSIG=
0148601010999992024010513304+35727-005917FM-15+001999999V0202901N00931010061CN009999199+01501+00901999999ADDGA1071+010061999GE19AGL   +99999+99999GF199999071999010061999999MA1101701999999REMMET057METAR GMTT 051330Z 29018KT 9999 BKN033 15/09 Q1017 NOSIG=
0148601010999992024010514004+35727-005917FM-15+001999999V0203001N00881010061CN009999199+01501+00801999999ADDGA1071+010061999GE19AGL   +99999+99999GF199999071999010061999999MA1101701999999REMMET057METAR GMTT 051400Z 30017KT 9999 BKN033 15/08 Q1017 NOSIG=
0153601010999992024010514304+35727-005917FM-15+001999999V0202901N00931010061CN009999199+01501+00901999999ADDGA1071+010061999GE19AGL   +99999+99999GF199999071999010061999999MA1101701999999REMMET062METAR GMTT 051430Z AUTO 29018KT 9999 BKN033 15/09 Q1017 NOSIG=
0150601010999992024010515004+35733-005900FM-12+002199999V0203001N008219999999N050000199+01491+00771101771ADDAA103000091MA1999999101571MD1510001+9999OD139901241999OD249901131999REMSYN07060101 26/84 /3016 10149 20077 30157 40177 55000 333 60007 91022 91124=
0152601010999992024010515004+35727-005917FM-15+001999999V0203001N00821010061CN009999199+01501+00801999999ADDGA1071+010061999GE19AGL   +99999+99999GF199999071999010061999999MA1101701999999REMMET061METAR COR GMTT 051500Z 30016KT 9999 BKN033 15/08 Q1017 NOSIG=
0148601010999992024010515304+35727-005917FM-15+001999999V0203001N00881010061CN009999199+01501+00801999999ADDGA1071+010061999GE19AGL   +99999+99999GF199999071999010061999999MA1101701999999REMMET057METAR GMTT 051530Z 30017KT 9999 BKN033 15/08 Q1017 NOSIG=
0148601010999992024010516004+35727-005917FM-15+001999999V0202801N00771010061CN009999199+01501+00901999999ADDGA1071+010061999GE19AGL   +99999+99999GF199999071999010061999999MA1101801999999REMMET057METAR GMTT 051600Z 28015KT 9999 BKN033 15/09 Q1018 NOSIG=
0152601010999992024010516304+35727-005917FM-15+001999999V0202901N00771010061CN009999199+01501+00901999999ADDGA1071+010061999GE19AGL   +99999+99999GF199999071999010061999999MA1101801999999REMMET061METAR COR GMTT 051630Z 29015KT 9999 BKN033 15/09 Q1018 NOSIG=
0148601010999992024010517004+35727-005917FM-15+001999999V0202901N00771010061CN009999199+01501+00901999999ADDGA1071+010061999GE19AGL   +99999+99999GF199999071999010061999999MA1101801999999REMMET057METAR GMTT 051700Z 29015KT 9999 BKN033 15/09 Q1018 NOSIG=
0148601010999992024010517304+35727-005917FM-15+001999999V0203001N00671010061CN009999199+01501+00801999999ADDGA1071+010061999GE19AGL   +99999+99999GF199999071999010061999999MA1101801999999REMMET057METAR GMTT 051730Z 30013KT 9999 BKN033 15/08 Q1018 NOSIG=
0279601010999992024010518004+35733-005900FM-12+002199999V0203001N00571009901CN010000199+01441+00751101931ADDAA103000091AA212002031AA324008131GA1051+009901081GE19AGL   +99999+99999GF105991051999009901999999KA1120M+01611MA1999999101731MD1110161+9999OD139901241999OD249900821999REMSYN10060101 02660 53011 10144 20075 30173 40193 51016 60022 85200 333 10161 60007 70081 85833 91016 91124=
0148601010999992024010518004+35727-005917FM-15+001999999V0203001N00571010061CN009999199+01401+00801999999ADDGA1071+010061999GE19AGL   +99999+99999GF199999071999010061999999MA1101901999999REMMET057METAR GMTT 051800Z 30011KT 9999 BKN033 14/08 Q1019 NOSIG=
0156601010999992024010518304+35727-005917FM-15+001999999V0203101V00621010061CN009999199+01401+00601999999ADDGA1071+010061999GE19AGL   +99999+99999GF199999071999010061999999MA1101901999999REMMET065METAR GMTT 051830Z 31012KT 290V350 9999 BKN033 14/06 Q1019 NOSIG=
0156601010999992024010519004+35727-005917FM-15+001999999V0203101V005119999999N009999199+01401+00701999999ADDGA1041+010061999GE19AGL   +99999+99999GF199999041999010061999999MA1101901999999REMMET065METAR GMTT 051900Z 31010KT 280V340 9999 SCT033 14/07 Q1019 NOSIG=
0148601010999992024010519304+35727-005917FM-15+001999999V0203101N005719999999N009999199+01501+00701999999ADDGA1041+012191999GE19AGL   +99999+99999GF199999041999012191999999MA1102001999999REMMET057METAR GMTT 051930Z 31011KT 9999 SCT040 15/07 Q1020 NOSIG=
0148601010999992024010520004+35727-005917FM-15+001999999V0203101N005119999999N009999199+01501+00701999999ADDGA1041+012191999GE19AGL   +99999+99999GF199999041999012191999999MA1102001999999REMMET057METAR GMTT 052000Z 31010KT 9999 SCT040 15/07 Q1020 NOSIG=
0148601010999992024010520304+35727-005917FM-15+001999999V0203201N005119999999N009999199+01401+00601999999ADDGA1041+012191999GE19AGL   +99999+99999GF199999041999012191999999MA1102001999999REMMET057METAR GMTT 052030Z 32010KT 9999 SCT040 14/06 Q1020 NOSIG=
0226601010999992024010521004+35733-005900FM-12+002199999V0203101N005712200019N010000199+01401+00661102081ADDAA103000091GA1041+012001081GE19AGL   +99999+99999GF104991041999012001999999MA1999999101881MD1110151+9999OD139901031999OD249900821999REMSYN08260101 22660 43111 10140 20066 30188 40208 51015 84200 333 60007 84840 91016 91120=
0148601010999992024010521004+35727-005917FM-15+001999999V0203101N005719999999N009999199+01401+00701999999ADDGA1041+012191999GE19AGL   +99999+99999GF199999041999012191999999MA1102001999999REMMET057METAR GMTT 052100Z 31011KT 9999 SCT040 14/07 Q1020 NOSIG=
0148601010999992024010521304+35727-005917FM-15+001999999V0203001N004619999999N009999199+01401+00701999999ADDGA1021+012191999GE19AGL   +99999+99999GF199999021999012191999999MA1102001999999REMMET057METAR GMTT 052130Z 30009KT 9999 FEW040 14/07 Q1020 NOSIG=
0148601010999992024010522004+35727-005917FM-15+001999999V0203101N004119999999N009999199+01401+00701999999ADDGA1041+012191999GE19AGL   +99999+99999GF199999041999012191999999MA1102101999999REMMET057METAR GMTT 052200Z 31008KT 9999 SCT040 14/07 Q1021 NOSIG=
0148601010999992024010522304+35727-005917FM-15+001999999V0203201N004619999999N009999199+01401+00701999999ADDGA1041+012191999GE19AGL   +99999+99999GF199999041999012191999999MA1102101999999REMMET057METAR GMTT 052230Z 32009KT 9999 SCT040 14/07 Q1021 NOSIG=
0171601010999992024010523004+35727-005917FM-15+001999999V0203201N00411014021CN009999199+01401+00801999999ADDGA1041+012191999GA2041+014021999GE19AGL   +99999+99999GF199999041999012191999999MA1102101999999REMMET064METAR GMTT 052300Z 32008KT 9999 SCT040 SCT046 14/08 Q1021 NOSIG=
0171601010999992024010523304+35727-005917FM-15+001999999V0203101N00361020121CN009999199+01401+00801999999ADDGA1041+012191999GA2041+020121999GE19AGL   +99999+99999GF199999041999012191999999MA1102101999999REMMET064METAR GMTT 052330Z 31007KT 9999 SCT040 SCT066 14/08 Q1021 NOSIG=
0265601010999992024010600004+35733-005900FM-12+002199999V0203101N003110129019N010000199+01421+00801102141ADDAA103000091AA206000091GA1041+010801081GA2051+012901061GE19AGL   +99999+99999GF107991041999010801999999MA1999999101941MD1990061+9999OD139901031999OD249900571999REMSYN09460101 02660 73106 10142 20080 30194 40214 50006 60001 878// 333 60007 84836 85643 91011 91120=
0171601010999992024010600004+35727-005917FM-15+001999999V0203101N003110131119N009999199+01401+00801999999ADDGA1041+010971999GA2071+013111999GE19AGL   +99999+99999GF199999041999010971999999MA1102101999999REMMET064METAR GMTT 060000Z 31006KT 9999 SCT036 BKN043 14/08 Q1021 NOSIG=
0184601010999992024010600304+35727-005917FM-15+001999999V0203101V00461014021CN009999199+01301+00901999999ADDGA1041+010061999GA2041+014021999GE19AGL   +99999+99999GF199999041999010061999999MA1102101999999REMMET077METAR GMTT 060030Z 31009KT 280V340 9999 SCT033 SCT046 13/09 Q1021 RERA NOSIG=
0184601010999992024010601004+35727-005917FM-15+001999999V0203101V00571020121CN009999199+01401+00901999999ADDGA1041+010061999GA2041+020121999GE19AGL   +99999+99999GF199999041999010061999999MA1102101999999REMMET077METAR GMTT 060100Z 31011KT 290V350 9999 SCT033 SCT066 14/09 Q1021 RERA NOSIG=
0171601010999992024010601304+35727-005917FM-15+001999999V0203101N00571020121CN009999199+01401+00901999999ADDGA1041+010061999GA2041+020121999GE19AGL   +99999+99999GF199999041999010061999999MA1102101999999REMMET064METAR GMTT 060130Z 31011KT 9999 SCT033 SCT066 14/09 Q1021 NOSIG=
0156601010999992024010602004+35727-005917FM-15+001999999V0203101V005719999999N009999199+01401+00801999999ADDGA1021+010971999GE19AGL   +99999+99999GF199999021999010971999999MA1102101999999REMMET065METAR GMTT 060200Z 31011KT 280V340 9999 FEW036 14/08 Q1021 NOSIG=
0148601010999992024010602304+35727-005917FM-15+001999999V0203101N006219999999N009999199+01301+00801999999ADDGA1021+010971999GE19AGL   +99999+99999GF199999021999010971999999MA1102101999999REMMET057METAR GMTT 060230Z 31012KT 9999 FEW036 13/08 Q1021 NOSIG=
0254601010999992024010603004+35733-005900FM-12+002199999V0203101N005112200019N010000199+01321+00811102141ADDAA103000631AY161021AY211021GA1031+000901081GE19AGL   +99999+99999GF103991031999000901999999MA1999999101941MD1510001+9999MW1031OD139900981999OD249900721999REMSYN08860101 21260 33110 10132 20081 30194 40214 55000 70361 83200 333 69967 83803 91014 91119=
0148601010999992024010603004+35727-005917FM-15+001999999V0203101N005119999999N009999199+01301+00801999999ADDGA1041+010971999GE19AGL   +99999+99999GF199999041999010971999999MA1102101999999REMMET057METAR GMTT 060300Z 31010KT 9999 SCT036 13/08 Q1021 NOSIG=
0148601010999992024010603304+35727-005917FM-15+001999999V0203101N005119999999N009999199+01301+00801999999ADDGA1041+010971999GE19AGL   +99999+99999GF199999041999010971999999MA1102101999999REMMET057METAR GMTT 060330Z 31010KT 9999 SCT036 13/08 Q1021 NOSIG=
0148601010999992024010604004+35727-005917FM-15+001999999V0203101N004619999999N009999199+01301+00801999999ADDGA1041+010971999GE19AGL   +99999+99999GF199999041999010971999999MA1102101999999REMMET057METAR GMTT 060400Z 31009KT 9999 SCT036 13/08 Q1021 NOSIG=
0148601010999992024010604304+35727-005917FM-15+001999999V0203101N004119999999N009999199+01301+00801999999ADDGA1041+010971999GE19AGL   +99999+99999GF199999041999010971999999MA1102101999999REMMET057METAR GMTT 060430Z 31008KT 9999 SCT036 13/08 Q1021 NOSIG=
0171601010999992024010605004+35727-005917FM-15+001999999V0203201N00461013111CN009999199+01301+00801999999ADDGA1021+010061999GA2041+013111999GE19AGL   +99999+99999GF199999021999010061999999MA1102101999999REMMET064METAR GMTT 060500Z 32009KT 9999 FEW033 SCT043 13/08 Q1021 NOSIG=
0148601010999992024010605304+35727-005917FM-15+001999999V0203101N004119999999N009999199+01301+00801999999ADDGA1041+010971999GE19AGL   +99999+99999GF199999041999010971999999MA1102101999999REMMET057METAR GMTT 060530Z 31008KT 9999 SCT036 13/08 Q1021 NOSIG=
0349601010999992024010606004+35733-005900FM-12+002199999V0203201N00411999999CN010000199+01261+00731102171ADDAA103000091AA224003031AY161021AY211021GA1021+009901081GA2031+012901061GE19AGL   +99999+99999GF104991021999009901999999KA1240N+01211MA1999999101971MD1310031+9999MW1011OD139900981999OD249900621999REMSYN12460101 01660 43208 10126 20073 30197 40217 53003 60034 70161 84800 333 20121 30010 55046 20823 60007 82833 83643 91012 91119=EQDQ01 012903SCOCIG
0171601010999992024010606004+35727-005917FM-15+001999999V0203201N00411013111CN009999199+01301+00701999999ADDGA1041+010061999GA2041+013111999GE19AGL   +99999+99999GF199999041999010061999999MA1102101999999REMMET064METAR GMTT 060600Z 32008KT 9999 SCT033 SCT043 13/07 Q1021 NOSIG=
0148601010999992024010606304+35727-005917FM-15+001999999V0203101N003619999999N009999199+01301+00701999999ADDGA1041+010061999GE19AGL   +99999+99999GF199999041999010061999999MA1102101999999REMMET057METAR GMTT 060630Z 31007KT 9999 SCT033 13/07 Q1021 NOSIG=
0179601010999992024010607004+35727-005917FM-15+001999999V0203301V00261010971CN009999199+01201+00801999999ADDGA1021+009451999GA2041+010971999GE19AGL   +99999+99999GF199999021999009451999999MA1102101999999REMMET072METAR GMTT 060700Z 33005KT 310V040 9999 FEW031 SCT036 12/08 Q1021 NOSIG=
0171601010999992024010607304+35727-005917FM-15+001999999V0200401N00211010971CN009999199+01101+01001999999ADDGA1041+009141999GA2041+010971999GE19AGL   +99999+99999GF199999041999009141999999MA1102201999999REMMET064METAR GMTT 060730Z 04004KT 9999 SCT030 SCT036 11/10 Q1022 NOSIG=
0148601010999992024010608004+35727-005917FM-15+001999999V0200301N001519999999N009999199+01001+00901999999ADDGA1041+009141999GE19AGL   +99999+99999GF199999041999009141999999MA1102201999999REMMET057METAR GMTT 060800Z 03003KT 9999 SCT030 10/09 Q1022 NOSIG=
0148601010999992024010608304+35727-005917FM-15+001999999V0209999V001019999999N009999199+01001+01001999999ADDGA1041+009141999GE19AGL   +99999+99999GF199999041999009141999999MA1102301999999REMMET057METAR GMTT 060830Z VRB02KT 9999 SCT030 10/10 Q1023 NOSIG=
0248601010999992024010609004+35733-005900FM-12+002199999V0200901N00151069001CN010000199+01091+01061102341ADDAA103000091GA1031+007801081GA2051+069001001GE19AGL   +99999+99999GF105991031999007801999999MA1999999102141MD1310171+9999OD139900571999OD249900211999REMSYN08860101 22560 50903 10109 20106 30214 40234 53017 84802 333 60007 83826 85073 91004 91111=
0171601010999992024010609004+35727-005917FM-15+001999999V0200901N001510701019N009999199+01101+01101999999ADDGA1041+009141999GA2071+070101999GE19AGL   +99999+99999GF199999041999009141999999MA1102301999999REMMET064METAR GMTT 060900Z 09003KT 9999 SCT030 BKN230 11/11 Q1023 NOSIG=
0171601010999992024010609304+35727-005917FM-15+001999999V0201101N001510701019N008000199+01101+01101999999ADDGA1021+007921999GA2071+070101999GE19AGL   +99999+99999GF199999021999007921999999MA1102301999999REMMET064METAR GMTT 060930Z 11003KT 8000 FEW026 BKN230 11/11 Q1023 NOSIG=
0171601010999992024010610004+35727-005917FM-15+001999999V0209999V001010701019N008000199+01201+01101999999ADDGA1021+007921999GA2071+070101999GE19AGL   +99999+99999GF199999021999007921999999MA1102401999999REMMET064METAR GMTT 061000Z VRB02KT 8000 FEW026 BKN230 12/11 Q1024 NOSIG=
0171601010999992024010610304+35727-005917FM-15+001999999V0209999V000510701019N008000199+01401+01201999999ADDGA1021+007921999GA2071+070101999GE19AGL   +99999+99999GF199999021999007921999999MA1102401999999REMMET064METAR GMTT 061030Z VRB01KT 8000 FEW026 BKN230 14/12 Q1024 NOSIG=
0179601010999992024010611004+35727-005917FM-15+001999999V0203101V002610701019N009999199+01401+01001999999ADDGA1021+007921999GA2071+070101999GE19AGL   +99999+99999GF199999021999007921999999MA1102401999999REMMET072METAR GMTT 061100Z 31005KT 280V350 9999 FEW026 BKN230 14/10 Q1024 NOSIG=
0179601010999992024010611304+35727-005917FM-15+001999999V0203001V002110701019N009999199+01401+01101999999ADDGA1021+007921999GA2071+070101999GE19AGL   +99999+99999GF199999021999007921999999MA1102401999999REMMET072METAR GMTT 061130Z 30004KT 270V360 9999 FEW026 BKN230 14/11 Q1024 NOSIG=
0167601010999992024010612004+35733-005900FM-12+002199999V0203101N002619999999N070000199+01441+01011102341ADDAA103000091AA206000091MA1999999102141MD1990001+9999OD139900571999OD249900461999REMSYN07660101 06/88 /3105 10144 20101 30214 40234 50000 60001 333 60007 91009 91111=
0179601010999992024010612004+35727-005917FM-15+001999999V0203101V002610701019N009999199+01401+01001999999ADDGA1021+007921999GA2071+070101999GE19AGL   +99999+99999GF199999021999007921999999MA1102301999999REMMET072METAR GMTT 061200Z 31005KT 260V060 9999 FEW026 BKN230 14/10 Q1023 NOSIG=
0179601010999992024010612304+35727-005917FM-15+001999999V0203201V002610701019N009999199+01401+01001999999ADDGA1021+007921999GA2071+070101999GE19AGL   +99999+99999GF199999021999007921999999MA1102301999999REMMET072METAR GMTT 061230Z 32005KT 280V360 9999 FEW026 BKN230 14/10 Q1023 NOSIG=
0184601010999992024010613004+35727-005917FM-15+001999999V0202901V002610701019N009999199+01401+01101999999ADDGA1021+007921999GA2071+070101999GE19AGL   +99999+99999GF199999021999007921999999MA1102201999999REMMET077METAR GMTT 061300Z AUTO 29005KT 250V320 9999 FEW026 BKN230 14/11 Q1022 NOSIG=
0179601010999992024010613304+35727-005917FM-15+001999999V0202801V003110701019N009999199+01401+01101999999ADDGA1021+007621999GA2071+070101999GE19AGL   +99999+99999GF199999021999007621999999MA1102201999999REMMET072METAR GMTT 061330Z 28006KT 240V300 9999 FEW025 BKN230 14/11 Q1022 NOSIG=
0176601010999992024010614004+35727-005917FM-15+001999999V0202701N004110701019N009999199+01501+01001999999ADDGA1021+007621999GA2071+070101999GE19AGL   +99999+99999GF199999021999007621999999MA1102201999999REMMET069METAR GMTT 061400Z AUTO 27008KT 9999 FEW025 BKN230 15/10 Q1022 NOSIG=
0171601010999992024010614304+35727-005917FM-15+001999999V0202801N00411070101CN009999199+01401+01001999999ADDGA1021+007921999GA2041+070101999GE19AGL   +99999+99999GF199999021999007921999999MA1102201999999REMMET064METAR GMTT 061430Z 28008KT 9999 FEW026 SCT230 14/10 Q1022 NOSIG=
0242601010999992024010615004+35733-005900FM-12+002199999V0202801N003612200019N010000199+01461+00881102201ADDAA103000091GA1021+007801081GA2999+999999001GE19AGL   +99999+99999GF103991021999007801999999MA1999999102001MD1610141+9999OD139900621999OD249900571999REMSYN08260101 22560 32807 10146 20088 30200 40220 56014 82202 333 60007 82826 91011 91112=
0156601010999992024010615004+35727-005917FM-15+001999999V0202801V003619999999N009999199+01501+00901999999ADDGA1021+007921999GE19AGL   +99999+99999GF199999021999007921999999MA1102101999999REMMET065METAR GMTT 061500Z 28007KT 260V320 9999 FEW026 15/09 Q1021 NOSIG=
0156601010999992024010615304+35727-005917FM-15+001999999V0202801V003119999999N009999199+01401+00701999999ADDGA1021+007921999GE19AGL   +99999+99999GF199999021999007921999999MA1102101999999REMMET065METAR GMTT 061530Z 28006KT 250V310 9999 FEW026 14/07 Q1021 NOSIG=
0148601010999992024010616004+35727-005917FM-15+001999999V0202701N002119999999N009999199+01501+00801999999ADDGA1021+007921999GE19AGL   +99999+99999GF199999021999007921999999MA1102101999999REMMET057METAR GMTT 061600Z 27004KT 9999 FEW026 15/08 Q1021 NOSIG=
0156601010999992024010616304+35727-005917FM-15+001999999V0202901V002119999999N009999199+01401+00801999999ADDGA1021+007921999GE19AGL   +99999+99999GF199999021999007921999999MA1102101999999REMMET065METAR GMTT 061630Z 29004KT 250V310 9999 FEW026 14/08 Q1021 NOSIG=
0148601010999992024010617004+35727-005917FM-15+001999999V0202701N001519999999N009999199+01401+00701999999ADDGA1021+007921999GE19AGL   +99999+99999GF199999021999007921999999MA1102101999999REMMET057METAR GMTT 061700Z 27003KT 9999 FEW026 14/07 Q1021 NOSIG=
0148601010999992024010617304+35727-005917FM-15+001999999V0202601N001519999999N009999199+01301+00701999999ADDGA1021+007921999GE19AGL   +99999+99999GF199999021999007921999999MA1102101999999REMMET057METAR GMTT 061730Z 26003KT 9999 FEW026 13/07 Q1021 NOSIG=
0203601010999992024010618004+35733-005900FM-12+002199999V0202901N000519999999N010000199+01121+00671102201ADDAA103000091AA212000091AA324000631KA1120M+01491MA1999999102001MD1510001+9999OD139900621999OD249900051999REMSYN08860101 02960 02901 10112 20067 30200 40220 55000 60002 333 10149 60007 70006 91001 91112=
0078601010999992024010618004+35727-005917FM-15+001999999V0209999V000519999999Y009900599+01101+00701999999ADDMA1102101999999REMMET051METAR GMTT 061800Z VRB01KT CAVOK 11/07 Q1021 NOSIG=
0078601010999992024010618304+35727-005917FM-15+001999999V0209999V001019999999Y009900599+01001+00701999999ADDMA1102201999999REMMET051METAR GMTT 061830Z VRB02KT CAVOK 10/07 Q1022 NOSIG=
0078601010999992024010619004+35727-005917FM-15+001999999V0200701N001519999999Y009900599+01001+00801999999ADDMA1102201999999REMMET051METAR GMTT 061900Z 07003KT CAVOK 10/08 Q1022 NOSIG=
0078601010999992024010619304+35727-005917FM-15+001999999V0209999V001019999999Y009900599+00901+00701999999ADDMA1102201999999REMMET051METAR GMTT 061930Z VRB02KT CAVOK 09/07 Q1022 NOSIG=
0078601010999992024010620004+35727-005917FM-15+001999999V0200501N001519999999Y009900599+00801+00601999999ADDMA1102201999999REMMET051METAR GMTT 062000Z 05003KT CAVOK 08/06 Q1022 NOSIG=
0078601010999992024010620304+35727-005917FM-15+001999999V0200901N002619999999Y009900599+00801+00701999999ADDMA1102201999999REMMET051METAR GMTT 062030Z 09005KT CAVOK 08/07 Q1022 NOSIG=
0150601010999992024010621004+35733-005900FM-12+002199999V0200801N002119999999N010000199+00791+00701102301ADDAA103000091MA1999999102091MD1310091+9999OD139900311999OD249900261999REMSYN07060101 22960 00804 10079 20070 30209 40230 53009 333 60007 91005 91106=
0086601010999992024010621004+35727-005917FM-15+001999999V0200801V002119999999Y009900599+00801+00701999999ADDMA1102201999999REMMET059METAR GMTT 062100Z 08004KT 360V100 CAVOK 08/07 Q1022 NOSIG=
0078601010999992024010621304+35727-005917FM-15+001999999V0200901N002119999999Y009900599+00701+00701999999ADDMA1102201999999REMMET051METAR GMTT 062130Z 09004KT CAVOK 07/07 Q1022 NOSIG=
0078601010999992024010622004+35727-005917FM-15+001999999V0200801N002619999999Y009900599+00701+00601999999ADDMA1102201999999REMMET051METAR GMTT 062200Z 08005KT CAVOK 07/06 Q1022 NOSIG=
0078601010999992024010622304+35727-005917FM-15+001999999V0200801N003119999999Y009900599+00701+00701999999ADDMA1102201999999REMMET051METAR GMTT 062230Z 08006KT CAVOK 07/07 Q1022 NOSIG=
0078601010999992024010623004+35727-005917FM-15+001999999V0200901N002619999999Y009900599+00701+00701999999ADDMA1102201999999REMMET051METAR GMTT 062300Z 09005KT CAVOK 07/07 Q1022 NOSIG=
0078601010999992024010623304+35727-005917FM-15+001999999V0200901N002619999999Y009900599+00701+00701999999ADDMA1102201999999REMMET051METAR GMTT 062330Z 09005KT CAVOK 07/07 Q1022 NOSIG=
0167601010999992024010700004+35733-005900FM-12+002199999V0200901N003119999999N010000199+00701+00701102281ADDAA103000091AA206000091MA1999999102071MD1510021+9999OD139900411999OD249900411999REMSYN07660101 02960 00906 10070 20070 30207 40228 55002 60001 333 60007 91008 91108=
0078601010999992024010700004+35727-005917FM-15+001999999V0200901N003119999999Y009900599+00701+00701999999ADDMA1102201999999REMMET051METAR GMTT 070000Z 09006KT CAVOK 07/07 Q1022 NOSIG=
0078601010999992024010700304+35727-005917FM-15+001999999V0200801N003119999999Y009900599+00701+00701999999ADDMA1102201999999REMMET051METAR GMTT 070030Z 08006KT CAVOK 07/07 Q1022 NOSIG=
0078601010999992024010701004+35727-005917FM-15+001999999V0200901N002119999999Y009900599+00701+00701999999ADDMA1102201999999REMMET051METAR GMTT 070100Z 09004KT CAVOK 07/07 Q1022 NOSIG=
0078601010999992024010701304+35727-005917FM-15+001999999V0200701N001519999999Y009900599+00601+00601999999ADDMA1102201999999REMMET051METAR GMTT 070130Z 07003KT CAVOK 06/06 Q1022 NOSIG=
0078601010999992024010702004+35727-005917FM-15+001999999V0200801N003119999999Y009900599+00601+00601999999ADDMA1102201999999REMMET051METAR GMTT 070200Z 08006KT CAVOK 06/06 Q1022 NOSIG=
0078601010999992024010702304+35727-005917FM-15+001999999V0200901N002619999999Y009900599+00701+00701999999ADDMA1102201999999REMMET051METAR GMTT 070230Z 09005KT CAVOK 07/07 Q1022 NOSIG=
0226601010999992024010703004+35733-005900FM-12+002199999V0200801N001512200019N010000199+00671+00641102251ADDAA103000091GA1041+060001001GE19AGL   +99999+99999GF104991041999060001999999MA1999999102041MD1610031+9999OD139900361999OD249900211999REMSYN08260101 22960 40803 10067 20064 30204 40225 56003 80002 333 60007 84070 91004 91107=
0078601010999992024010703004+35727-005917FM-15+001999999V0200801N001519999999Y009900599+00701+00601999999ADDMA1102201999999REMMET051METAR GMTT 070300Z 08003KT CAVOK 07/06 Q1022 NOSIG=
0107601010999992024010703304+35727-005917FM-15+001999999V0201001N001512200019N008000199+00701+00701999999ADDGF100991999999999999999999MA1102201999999REMMET054METAR GMTT 070330Z 10003KT 8000 NSC 07/07 Q1022 NOSIG=
0107601010999992024010704004+35727-005917FM-15+001999999V0200801N002612200019N008000199+00601+00601999999ADDGF100991999999999999999999MA1102101999999REMMET054METAR GMTT 070400Z 08005KT 8000 NSC 06/06 Q1021 NOSIG=
0112601010999992024010704304+35727-005917FM-15+001999999V0200901N002612200019N008000199+00601+00601999999ADDGF100991999999999999999999MA1102101999999REMMET059METAR GMTT 070430Z AUTO 09005KT 8000 NSC 06/06 Q1021 NOSIG=
0107601010999992024010705004+35727-005917FM-15+001999999V0200801N002612200019N008000199+00601+00601999999ADDGF100991999999999999999999MA1102101999999REMMET054METAR GMTT 070500Z 08005KT 8000 NSC 06/06 Q1021 NOSIG=
0112601010999992024010705304+35727-005917FM-15+001999999V0201001N002612200019N008000199+00701+00701999999ADDGF100991999999999999999999MA1102101999999REMMET059METAR GMTT 070530Z AUTO 10005KT 8000 NSC 07/07 Q1021 NOSIG=
0274601010999992024010706004+35733-005900FM-12+002199999V0200901N001512200019N008000199+00651+00651102211ADDAA103000091AA224000091GA1041+060001001GE19AGL   +99999+99999GF104991041999060001999999KA1240N+00561MA1999999102001MD1510041+9999OD139900361999OD249900211999REMSYN10660101 02958 40903 10065 20065 30200 40221 55004 60004 80002 333 20056 55069 20938 60007 84070 91004 91107=
0107601010999992024010706004+35727-005917FM-15+001999999V0200901N001512200019N008000199+00701+00701999999ADDGF100991999999999999999999MA1102101999999REMMET054METAR GMTT 070600Z 09003KT 8000 NSC 07/07 Q1021 NOSIG=
0112601010999992024010706304+35727-005917FM-15+001999999V0200801N001512200019N008000199+00601+00601999999ADDGF100991999999999999999999MA1102201999999REMMET059METAR GMTT 070630Z AUTO 08003KT 8000 NSC 06/06 Q1022 NOSIG=
0107601010999992024010707004+35727-005917FM-15+001999999V0200901N002612200019N008000199+00601+00601999999ADDGF100991999999999999999999MA1102201999999REMMET054METAR GMTT 070700Z 09005KT 8000 NSC 06/06 Q1022 NOSIG=
0107601010999992024010707304+35727-005917FM-15+001999999V0201001N002612200019N008000199+00601+00601999999ADDGF100991999999999999999999MA1102201999999REMMET054METAR GMTT 070730Z 10005KT 8000 NSC 06/06 Q1022 NOSIG=
0107601010999992024010708004+35727-005917FM-15+001999999V0200901N002112200019N008000199+00601+00601999999ADDGF100991999999999999999999MA1102201999999REMMET054METAR GMTT 070800Z 09004KT 8000 NSC 06/06 Q1022 NOSIG=
0107601010999992024010708304+35727-005917FM-15+001999999V0200801N002112200019N008000199+00601+00601999999ADDGF100991999999999999999999MA1102201999999REMMET054METAR GMTT 070830Z 08004KT 8000 NSC 06/06 Q1022 NOSIG=
0226601010999992024010709004+35733-005900FM-12+002199999V0200801N001512200019N009000199+00821+00821102311ADDAA103000091GA1021+060001001GE19AGL   +99999+99999GF102991021999060001999999MA1999999102111MD1310111+9999OD139900411999OD249900211999REMSYN08260101 22959 20803 10082 20082 30211 40231 53011 80002 333 60007 82070 91004 91108=
0107601010999992024010709004+35727-005917FM-15+001999999V0200801N001512200019N009000199+00801+00801999999ADDGF100991999999999999999999MA1102301999999REMMET054METAR GMTT 070900Z 08003KT 9000 NSC 08/08 Q1023 NOSIG=
0107601010999992024010709304+35727-005917FM-15+001999999V0201001N001512200019N009000199+01001+00901999999ADDGF100991999999999999999999MA1102301999999REMMET054METAR GMTT 070930Z 10003KT 9000 NSC 10/09 Q1023 NOSIG=
0078601010999992024010710004+35727-005917FM-15+001999999V0209999V001019999999Y009900599+01201+01001999999ADDMA1102301999999REMMET051METAR GMTT 071000Z VRB02KT CAVOK 12/10 Q1023 NOSIG=
0078601010999992024010710304+35727-005917FM-15+001999999V0209999V000519999999Y009900599+01301+01001999999ADDMA1102401999999REMMET051METAR GMTT 071030Z VRB01KT CAVOK 13/10 Q1024 NOSIG=
0078601010999992024010711004+35727-005917FM-15+001999999V0202901N003119999999Y009900599+01301+00901999999ADDMA1102301999999REMMET051METAR GMTT 071100Z 29006KT CAVOK 13/09 Q1023 NOSIG=
0086601010999992024010711304+35727-005917FM-15+001999999V0202901V002119999999Y009900599+01301+00701999999ADDMA1102301999999REMMET059METAR GMTT 071130Z 29004KT 260V340 CAVOK 13/07 Q1023 NOSIG=
0167601010999992024010712004+35733-005900FM-12+002199999V0202601N002619999999N010000199+01371+00771102301ADDAA103000091AA206000091MA1999999102101MD1810011+9999OD139900511999OD249900411999REMSYN07660101 02960 02605 10137 20077 30210 40230 58001 60001 333 60007 91008 91110=
0086601010999992024010712004+35727-005917FM-15+001999999V0202601V002619999999Y009900599+01401+00801999999ADDMA1102301999999REMMET059METAR GMTT 071200Z 26005KT 240V300 CAVOK 14/08 Q1023 NOSIG=
0086601010999992024010712304+35727-005917FM-15+001999999V0202601V002619999999Y009900599+01401+00801999999ADDMA1102201999999REMMET059METAR GMTT 071230Z 26005KT 190V290 CAVOK 14/08 Q1022 NOSIG=
0086601010999992024010713004+35727-005917FM-15+001999999V0202701V002619999999Y009900599+01401+00801999999ADDMA1102201999999REMMET059METAR GMTT 071300Z 27005KT 230V350 CAVOK 14/08 Q1022 NOSIG=
0086601010999992024010713304+35727-005917FM-15+001999999V0202701V002619999999Y009900599+01401+00801999999ADDMA1102101999999REMMET059METAR GMTT 071330Z 27005KT 230V320 CAVOK 14/08 Q1021 NOSIG=
0086601010999992024010714004+35727-005917FM-15+001999999V0202801V002619999999Y009900599+01401+00801999999ADDMA1102101999999REMMET059METAR GMTT 071400Z 28005KT 240V340 CAVOK 14/08 Q1021 NOSIG=
0086601010999992024010714304+35727-005917FM-15+001999999V0202801V002619999999Y009900599+01401+00801999999ADDMA1102101999999REMMET059METAR GMTT 071430Z 28005KT 230V310 CAVOK 14/08 Q1021 NOSIG=
0150601010999992024010715004+35733-005900FM-12+002199999V0202601N002119999999N010000199+01441+00651102141ADDAA103000091MA1999999101941MD1610161+9999OD139900511999OD249900411999REMSYN07060101 22960 02604 10144 20065 30194 40214 56016 333 60007 91008 91110=
0086601010999992024010715004+35727-005917FM-15+001999999V0202601V002119999999Y009900599+01401+00701999999ADDMA1102101999999REMMET059METAR GMTT 071500Z 26004KT 210V310 CAVOK 14/07 Q1021 NOSIG=
0086601010999992024010715304+35727-005917FM-15+001999999V0202701V002619999999Y009900599+01401+00601999999ADDMA1102101999999REMMET059METAR GMTT 071530Z 27005KT 240V300 CAVOK 14/06 Q1021 NOSIG=
0078601010999992024010716004+35727-005917FM-15+001999999V0202701N003119999999Y009900599+01401+00701999999ADDMA1102101999999REMMET051METAR GMTT 071600Z 27006KT CAVOK 14/07 Q1021 NOSIG=
0078601010999992024010716304+35727-005917FM-15+001999999V0202901N002619999999Y009900599+01401+00701999999ADDMA1102201999999REMMET051METAR GMTT 071630Z 29005KT CAVOK 14/07 Q1022 NOSIG=
0078601010999992024010717004+35727-005917FM-15+001999999V0202901N002119999999Y009900599+01301+00701999999ADDMA1102201999999REMMET051METAR GMTT 071700Z 29004KT CAVOK 13/07 Q1022 NOSIG=
0078601010999992024010717304+35727-005917FM-15+001999999V0202601N001519999999Y009900599+01201+00701999999ADDMA1102201999999REMMET051METAR GMTT 071730Z 26003KT CAVOK 12/07 Q1022 NOSIG=
0279601010999992024010718004+35733-005900FM-12+002199999V0202601N000512200019N010000199+01151+00721102241ADDAA103000091AA212000091AA324000091GA1011+060001001GE19AGL   +99999+99999GF101991011999060001999999KA1120M+01481MA1999999102041MD1110101+9999OD139900511999OD249900101999REMSYN10060101 02960 12601 10115 20072 30204 40224 51010 60002 80001 333 10148 60007 70000 81070 91002 91110=
0078601010999992024010718004+35727-005917FM-15+001999999V0209999V000519999999Y009900599+01201+00701999999ADDMA1102201999999REMMET051METAR GMTT 071800Z VRB01KT CAVOK 12/07 Q1022 NOSIG=
0078601010999992024010718304+35727-005917FM-15+001999999V0209999V001019999999Y009900599+00901+00701999999ADDMA1102201999999REMMET051METAR GMTT 071830Z VRB02KT CAVOK 09/07 Q1022 NOSIG=
0107601010999992024010719004+35727-005917FM-15+001999999V0200701N002112200019N009000199+00901+00801999999ADDGF100991999999999999999999MA1102201999999REMMET054METAR GMTT 071900Z 07004KT 9000 NSC 09/08 Q1022 NOSIG=
0115601010999992024010719304+35727-005917FM-15+001999999V0201301V001512200019N009000199+00901+00801999999ADDGF100991999999999999999999MA1102201999999REMMET062METAR GMTT 071930Z 13003KT 100V170 9000 NSC 09/08 Q1022 NOSIG=
0107601010999992024010720004+35727-005917FM-15+001999999V0200701N001512200019N009000199+00801+00801999999ADDGF100991999999999999999999MA1102201999999REMMET054METAR GMTT 072000Z 07003KT 9000 NSC 08/08 Q1022 NOSIG=
0107601010999992024010720304+35727-005917FM-15+001999999V0200901N002112200019N009000199+00801+00801999999ADDGF100991999999999999999999MA1102201999999REMMET054METAR GMTT 072030Z 09004KT 9000 NSC 08/08 Q1022 NOSIG=
0150601010999992024010721004+35733-005900FM-12+002199999V0201001N002119999999N010000199+00751+00751102281ADDAA103000091MA1999999102071MD1110031+9999OD139900361999OD249900261999REMSYN07060101 22960 01004 10075 20075 30207 40228 51003 333 60007 91005 91107=
0115601010999992024010721004+35727-005917FM-15+001999999V0201001V002112200019N009000199+00801+00701999999ADDGF100991999999999999999999MA1102201999999REMMET062METAR GMTT 072100Z 10004KT 090V160 9000 NSC 08/07 Q1022 NOSIG=
0107601010999992024010721304+35727-005917FM-15+001999999V0201001N002112200019N009000199+00801+00701999999ADDGF100991999999999999999999MA1102201999999REMMET054METAR GMTT 072130Z 10004KT 9000 NSC 08/07 Q1022 NOSIG=
0107601010999992024010722004+35727-005917FM-15+001999999V0200801N002612200019N009000199+00701+00701999999ADDGF100991999999999999999999MA1102201999999REMMET054METAR GMTT 072200Z 08005KT 9000 NSC 07/07 Q1022 NOSIG=
0107601010999992024010722304+35727-005917FM-15+001999999V0200901N002112200019N009000199+00701+00701999999ADDGF100991999999999999999999MA1102201999999REMMET054METAR GMTT 072230Z 09004KT 9000 NSC 07/07 Q1022 NOSIG=
0107601010999992024010723004+35727-005917FM-15+001999999V0200901N002112200019N009000199+00701+00701999999ADDGF100991999999999999999999MA1102201999999REMMET054METAR GMTT 072300Z 09004KT 9000 NSC 07/07 Q1022 NOSIG=
0107601010999992024010723304+35727-005917FM-15+001999999V0200701N001512200019N009000199+00601+00601999999ADDGF100991999999999999999999MA1102201999999REMMET054METAR GMTT 072330Z 07003KT 9000 NSC 06/06 Q1022 NOSIG=
0167601010999992024010800004+35733-005900FM-12+002199999V0200801N002619999999N010000199+00611+00611102281ADDAA103000091AA206000091MA1999999102071MD1510001+9999OD139900361999OD249900261999REMSYN07660101 02960 00805 10061 20061 30207 40228 55000 60001 333 60007 91005 91107=
0107601010999992024010800004+35727-005917FM-15+001999999V0200801N002112200019N009000199+00601+00601999999ADDGF100991999999999999999999MA1102201999999REMMET054METAR GMTT 080000Z 08004KT 9000 NSC 06/06 Q1022 NOSIG=
0107601010999992024010800304+35727-005917FM-15+001999999V0200801N003112200019N009000199+00501+00501999999ADDGF100991999999999999999999MA1102201999999REMMET054METAR GMTT 080030Z 08006KT 9000 NSC 05/05 Q1022 NOSIG=
0107601010999992024010801004+35727-005917FM-15+001999999V0200901N002612200019N009000199+00501+00501999999ADDGF100991999999999999999999MA1102201999999REMMET054METAR GMTT 080100Z 09005KT 9000 NSC 05/05 Q1022 NOSIG=
0107601010999992024010801304+35727-005917FM-15+001999999V0200801N002612200019N009000199+00501+00501999999ADDGF100991999999999999999999MA1102201999999REMMET054METAR GMTT 080130Z 08005KT 9000 NSC 05/05 Q1022 NOSIG=
0107601010999992024010802004+35727-005917FM-15+001999999V0200901N002612200019N009000199+00501+00501999999ADDGF100991999999999999999999MA1102201999999REMMET054METAR GMTT 080200Z 09005KT 9000 NSC 05/05 Q1022 NOSIG=
0107601010999992024010802304+35727-005917FM-15+001999999V0200901N003112200019N009000199+00501+00501999999ADDGF100991999999999999999999MA1102101999999REMMET054METAR GMTT 080230Z 09006KT 9000 NSC 05/05 Q1021 NOSIG=
0150601010999992024010803004+35733-005900FM-12+002199999V0200901N002119999999N010000199+00461+00461102191ADDAA103000091MA1999999101981MD1610091+9999OD139900411999OD249900261999REMSYN07060101 22960 00904 10046 20046 30198 40219 56009 333 60007 91005 91108=
