0113035290999992000010100004+52150-002030FM-12+003299999V0202001N003619999999N0050001N1+00851+00781101961ADDAA106000891MD1210081+9999REMSYN076AAXX  01004 03529 16450 /2007 10085 20078 40196 52008 69981 555 87/19 92351;
0108035290999992000010101004+52150-002030FM-12+003299999V0202001N003119999999N0049001N1+00841+00751102031ADDMD1210121+9999REMSYN082AAXX  01014 03529 46549 /2006 10084 20075 40203 52012 555 84/20 85/36 87/50 90051;
0096035290999992000010102004+52150-002030FM-12+003299999V0202101N002619999999N0043001N1+00781+00711102041ADDMD1210101+9999REMSYN070AAXX  01024 03529 46543 /2105 10078 20071 40204 52010 555 85/24 90151;
0096035290999992000010103004+52150-002030FM-12+003299999V0202201N002619999999N0023001N1+00841+00771102141ADDMD1210181+9999REMSYN070AAXX  01034 03529 46423 /2205 10084 20077 40214 52018 555 87/18 90251;
0096035290999992000010104004+52150-002030FM-12+003299999V0209999C000019999999N0060001N1+00801+00731102221ADDMD1210191+9999REMSYN070AAXX  01044 03529 46456 /0000 10080 20073 40222 52019 555 88/19 90351;
0102035290999992000010105004+52150-002030FM-12+003299999V0209999C000019999999N0070001N1+00801+00731102251ADDMD1210211+9999REMSYN076AAXX  01054 03529 46557 /0000 10080 20073 40225 52021 555 85/27 84/31 90451;
0136035290999992000010106004+52150-002030FM-12+003299999V0209999C000019999999N0060001N1+00631+00561102361ADDAA112000891KA1120N+00591MD1210221+9999REMSYN086AAXX  01064 03529 16956 /0000 10063 20056 40236 52022 69982 333 20059 555 80/99 90551;
0096035290999992000010107004+52150-002030FM-12+003299999V0209999C000019999999N0042001N1+00371+00291102431ADDMD1210211+9999REMSYN070AAXX  01074 03529 46942 /0000 10037 20029 40243 52021 555 80/99 90651;
0096035290999992000010108004+52150-002030FM-12+003299999V0209999C000019999999N0018001N1+00201+00121102511ADDMD1210261+9999REMSYN070AAXX  01084 03529 46918 /0000 10020 20012 40251 52026 555 80/99 90751;
0124035290999992000010109004+52150-002030FM-12+003299999V0209999C000019999999N0000901N1+00031+00001102561ADDIA2999-00109MD1210201+9999REMSYN086AAXX  01094 03529 46000 /0000 10003 20000 40256 52020 333 3/101 555 190// 81/00 90851;
0096035290999992000010110004+52150-002030FM-12+003299999V0209999C000019999999N0002001N1+00101+00041102641ADDMD1210211+9999REMSYN070AAXX  01104 03529 46002 /0000 10010 20004 40264 52021 555 81/00 90951;
0096035290999992000010111004+52150-002030FM-12+003299999V0209999C000019999999N0001001N1+00331+00301102651ADDMD1210141+9999REMSYN070AAXX  01114 03529 46001 /0000 10033 20030 40265 52014 555 86/00 91051;
0113035290999992000010112004+52150-002030FM-12+003299999V0209999C000019999999N0002001N1+00561+00441102591ADDAA106000191MD1210031+9999REMSYN076AAXX  01124 03529 16002 /0000 10056 20044 40259 52003 69921 555 81/00 91151;
0096035290999992000010113004+52150-002030FM-12+003299999V0209999C000019999999N0090001N1+00801+00551102561ADDMD1710081+9999REMSYN070AAXX  01134 03529 46959 /0000 10080 20055 40256 57008 555 80/99 91251;
0096035290999992000010114004+52150-002030FM-12+003299999V0209999C000019999999N0110001N1+00891+00561102561ADDMD1710091+9999REMSYN070AAXX  01144 03529 46961 /0000 10089 20056 40256 57009 555 80/99 91351;
0096035290999992000010115004+52150-002030FM-12+003299999V0209999C000019999999N0100001N1+00871+00531102521ADDMD1710071+9999REMSYN070AAXX  01154 03529 46960 /0000 10087 20053 40252 57007 555 80/99 91451;
0096035290999992000010116004+52150-002030FM-12+003299999V0209999C000019999999N0070001N1+00731+00591102521ADDMD1710041+9999REMSYN070AAXX  01164 03529 46957 /0000 10073 20059 40252 57004 555 80/99 91551;
0096035290999992000010117004+52150-002030FM-12+003299999V0209999C000019999999N0043001N1+00431+00331102561ADDMD1410001+9999REMSYN070AAXX  01174 03529 46543 /0000 10043 20033 40256 54000 555 85/28 91651;
0136035290999992000010118004+52150-002030FM-12+003299999V0209999C000019999999N0047001N1+00501+00451102571ADDAA112000191KA1120M+00911MD1210051+9999REMSYN086AAXX  01184 03529 16547 /0000 10050 20045 40257 52005 69922 333 10091 555 88/29 91751;
0096035290999992000010119004+52150-002030FM-12+003299999V0209999C000019999999N0070001N1+00531+00461102521ADDMD1410001+9999REMSYN070AAXX  01194 03529 46557 /0000 10053 20046 40252 54000 555 88/28 91851;
0096035290999992000010120004+52150-002030FM-12+003299999V0209999C000019999999N0034001N1+00501+00421102561ADDMD1410001+9999REMSYN070AAXX  01204 03529 46534 /0000 10050 20042 40256 54000 555 88/28 91951;
0096035290999992000010121004+52150-002030FM-12+003299999V0209999C000019999999N0034001N1+00531+00461102531ADDMD1710041+9999REMSYN070AAXX  01214 03529 46534 /0000 10053 20046 40253 57004 555 88/26 92051;
0102035290999992000010122004+52150-002030FM-12+003299999V0201901N000519999999N0060001N1+00691+00531102471ADDMD1710051+9999REMSYN076AAXX  01224 03529 46356 /1901 10069 20053 40247 57005 555 84/09 87/30 92151;
0102035290999992000010123004+52150-002030FM-12+003299999V0202001N003119999999N0046001N1+00731+00611102491ADDMD1710071+9999REMSYN076AAXX  01234 03529 46246 /2006 10073 20061 40249 57007 555 81/04 87/30 92251;
0126035290999992000010200004+52150-002030FM-12+003299999V0209999C000019999999N0022001N1+00671+00601102511ADDAA106000091MD1710021+9999REMSYN070AAXX  02004 03529 36522 /0000 10067 20060 40251 57002 555 87/24 92351;EQDQ01  00002PRCP06
0096035290999992000010201004+52150-002030FM-12+003299999V0202101N002619999999N0050001N1+00541+00391102501ADDMD1210031+9999REMSYN070AAXX  02014 03529 46950 /2105 10054 20039 40250 52003 555 80/99 90051;
0096035290999992000010202004+52150-002030FM-12+003299999V0202501N001519999999N0060001N1+00431+00331102521ADDMD1210031+9999REMSYN070AAXX  02024 03529 46956 /2503 10043 20033 40252 52003 555 80/99 90151;
0096035290999992000010203004+52150-002030FM-12+003299999V0209999C000019999999N0050001N1+00361+00261102521ADDMD1210011+9999REMSYN070AAXX  02034 03529 46550 /0000 10036 20026 40252 52001 555 87/21 90251;
0096035290999992000010204004+52150-002030FM-12+003299999V0201901N002619999999N0090001N1+00471+00371102501ADDMD1410001+9999REMSYN070AAXX  02044 03529 46559 /1905 10047 20037 40250 54000 555 87/24 90351;
0096035290999992000010205004+52150-002030FM-12+003299999V0201801N002619999999N0130001N1+00501+00331102531ADDMD1210011+9999REMSYN070AAXX  02054 03529 46563 /1805 10050 20033 40253 52001 555 88/25 90451;
0149035290999992000010206004+52150-002030FM-12+003299999V0201901N002119999999N0100001N1+00541+00371102561ADDAA106000091KA1120N+00301MD1210041+9999REMSYN080AAXX  02064 03529 36560 /1904 10054 20037 40256 52004 333 20030 555 88/24 90551;EQDQ01  00002PRCP06
0096035290999992000010207004+52150-002030FM-12+003299999V0202101N001519999999N0100001N1+00561+00391102541ADDMD1210041+9999REMSYN070AAXX  02074 03529 46560 /2103 10056 20039 40254 52004 555 88/25 90651;
0096035290999992000010208004+52150-002030FM-12+003299999V0201901N000519999999N0090001N1+00571+00381102551ADDMD1210021+9999REMSYN070AAXX  02084 03529 46559 /1901 10057 20038 40255 52002 555 88/25 90751;
0118035290999992000010209004+52150-002030FM-12+003299999V0201901N002119999999N0120001N1+00621+00401102571ADDIA2999-00109MD1210011+9999REMSYN080AAXX  02094 03529 46562 /1904 10062 20040 40257 52001 333 3/101 555 88/25 90851;
0096035290999992000010210004+52150-002030FM-12+003299999V0202001N002119999999N0130001N1+00681+00441102651ADDMD1210111+9999REMSYN070AAXX  02104 03529 46563 /2004 10068 20044 40265 52011 555 88/24 90951;
0108035290999992000010211004+52150-002030FM-12+003299999V0201701N003619999999N0120001N1+00731+00451102631ADDMD1210081+9999REMSYN082AAXX  02114 03529 46562 /1707 10073 20045 40263 52008 555 81/25 86/30 87/35 91052;
0132035290999992000010212004+52150-002030FM-12+003299999V0201801N004119999999N0230001N1+00921+00391102581ADDAA106000091MD1210011+9999REMSYN076AAXX  02124 03529 36673 /1808 10092 20039 40258 52001 555 85/31 82/36 91152;EQDQ01  00002PRCP06
0102035290999992000010213004+52150-002030FM-12+003299999V0201701N003119999999N0270001N1+00881+00401102531ADDMD1710121+9999REMSYN076AAXX  02134 03529 46677 /1706 10088 20040 40253 57012 555 84/31 81/38 91252;
0096035290999992000010214004+52150-002030FM-12+003299999V0201801N003119999999N0230001N1+00881+00451102471ADDMD1710161+9999REMSYN070AAXX  02144 03529 46573 /1806 10088 20045 40247 57016 555 87/26 91352;
0102035290999992000010215004+52150-002030FM-12+003299999V0201701N004619999999N0190001N1+00871+00511102431ADDMD1710151+9999REMSYN076AAXX  02154 03529 46569 /1709 10087 20051 40243 57015 555 87/23 84/37 91452;
0102035290999992000010216004+52150-002030FM-12+003299999V0201401N005719999999N0110001N1+00781+00641102281ADDMD1710251+9999REMSYN076AAXX  02164 03529 46461 /1411 10078 20064 40228 57025 555 87/15 85/26 91552;
0096035290999992000010217004+52150-002030FM-12+003299999V0201801N002119999999N0210001N1+00821+00641102311ADDMD1710161+9999REMSYN070AAXX  02174 03529 46471 /1804 10082 20064 40231 57016 555 88/11 91652;
0149035290999992000010218004+52150-002030FM-12+003299999V0201601N004619999999N0044001N1+00841+00731102181ADDAA106000091KA1120M+00951MD1710251+9999REMSYN080AAXX  02184 03529 36344 /1609 10084 20073 40218 57025 333 10095 555 88/07 91752;EQDQ01  00002PRCP06
0096035290999992000010219004+52150-002030FM-12+003299999V0201701N004619999999N0090001N1+00921+00811102101ADDMD1710181+9999REMSYN070AAXX  02194 03529 46359 /1709 10092 20081 40210 57018 555 88/06 91852;
0096035290999992000010220004+52150-002030FM-12+003299999V0201701N005719999999N0120001N1+01011+00841101991ADDMD1710321+9999REMSYN070AAXX  02204 03529 46362 /1711 10101 20084 40199 57032 555 88/07 91952;
0108035290999992000010221004+52150-002030FM-12+003299999V0201901N005119999999N0060001N1+01031+00881101991ADDMD1710191+9999REMSYN082AAXX  02214 03529 46356 /1910 10103 20088 40199 57019 555 81/08 86/10 84/18 92052;
0102035290999992000010222004+52150-002030FM-12+003299999V0201901N007719999999N0400001N1+01131+00881101921ADDMD1710181+9999REMSYN076AAXX  02224 03529 46482 /1915 10113 20088 40192 57018 555 87/13 82/45 92152;
0096035290999992000010223004+52150-002030FM-12+003299999V0201901N007219999999N0450001N1+01121+00901101831ADDMD1710161+9999REMSYN070AAXX  02234 03529 46483 /1914 10112 20090 40183 57016 555 87/11 92252;
0132035290999992000010300004+52150-002030FM-12+003299999V0202001N009819999999N0350001N1+01121+00831101771ADDAA106000091MD1710221+9999REMSYN076AAXX  03004 03529 36481 /2019 10112 20083 40177 57022 555 86/12 86/24 92352;EQDQ01  00002PRCP06
0108035290999992000010301004+52150-002030FM-12+003299999V0201901N009819999999N0190001N1+01061+00831101741ADDMD1710181+9999REMSYN082AAXX  03014 03529 46469 /1919 10106 20083 40174 57018 555 86/10 85/22 85/26 90052;
0108035290999992000010302004+52150-002030FM-12+003299999V0202001N009319999999N0120001N1+01021+00811101671ADDMD1710161+9999REMSYN082AAXX  03024 03529 46462 /2018 10102 20081 40167 57016 555 81/10 87/18 82/27 90152;
0102035290999992000010303004+52150-002030FM-12+003299999V0201901N007219999999N0210001N1+01011+00801101671ADDMD1710101+9999REMSYN076AAXX  03034 03529 46371 /1914 10101 20080 40167 57010 555 81/09 88/14 90252;
0102035290999992000010304004+52150-002030FM-12+003299999V0201901N007219999999N0300001N1+01011+00841101601ADDMD1710141+9999REMSYN076AAXX  03044 03529 46380 /1914 10101 20084 40160 57014 555 82/07 87/15 90352;
0108035290999992000010305004+52150-002030FM-12+003299999V0202001N009319999999N0140001N1+01001+00851101531ADDMD1710141+9999REMSYN082AAXX  03054 03529 46364 /2018 10100 20085 40153 57014 555 81/08 86/15 82/21 90452;
0155035290999992000010306004+52150-002030FM-12+003299999V0202001N007219999999N0100001N1+01031+00901101591ADDAA106000091KA1120N+00841MD1710081+9999REMSYN086AAXX  03064 03529 36360 /2014 10103 20090 40159 57008 333 20084 555 87/06 84/16 90552;EQDQ01  00002PRCP06
0108035290999992000010307004+52150-002030FM-12+003299999V0202001N007219999999N0110001N1+01031+00901101631ADDMD1210031+9999REMSYN082AAXX  03074 03529 46361 /2014 10103 20090 40163 52003 555 82/07 83/17 86/29 90652;
0108035290999992000010308004+52150-002030FM-12+003299999V0201901N006219999999N0110001N1+01021+00941101631ADDMD1210101+9999REMSYN082AAXX  03084 03529 46261 /1912 10102 20094 40163 52010 555 81/05 86/17 83/50 90752;
0130035290999992000010309004+52150-002030FM-12+003299999V0202001N004619999999N0200001N1+01021+00941101681ADDIA2999+00909MD1210091+9999REMSYN092AAXX  03094 03529 46270 /2009 10102 20094 40168 52009 333 3/009 555 82/04 83/11 86/56 90852;
0102035290999992000010310004+52150-002030FM-12+003299999V0202301N003119999999N0250001N1+01021+00911101721ADDMD1210091+9999REMSYN076AAXX  03104 03529 46275 /2306 10102 20091 40172 52009 555 87/04 82/22 90952;
0102035290999992000010311004+52150-002030FM-12+003299999V0202601N004619999999N0160001N1+00881+00521101781ADDMD1210151+9999REMSYN076AAXX  03114 03529 46566 /2609 10088 20052 40178 52015 555 82/29 86/59 91052;
0113035290999992000010312004+52150-002030FM-12+003299999V0202501N002619999999N0150001N1+00861+00421101781ADDAA106000191MD1210101+9999REMSYN076AAXX  03124 03529 16965 /2505 10086 20042 40178 52010 69921 555 82/61 91152;
0102035290999992000010313004+52150-002030FM-12+003299999V0209999C000019999999N0140001N1+00831+00411101741ADDMD1210021+9999REMSYN076AAXX  03134 03529 46564 /0000 10083 20041 40174 52002 555 81/27 86/46 91252;
0096035290999992000010314004+52150-002030FM-12+003299999V0202501N002119999999N0150001N1+00831+00391101731ADDMD1710051+9999REMSYN070AAXX  03144 03529 46765 /2504 10083 20039 40173 57005 555 86/50 91352;
0108035290999992000010315004+52150-002030FM-12+003299999V0202601N004619999999N0080001N1+00761+00281101731ADDMD1710051+9999REMSYN082AAXX  03154 03529 46558 /2609 10076 20028 40173 57005 555 85/22 81/35 84/56 91452;
0108035290999992000010316004+52150-002030FM-12+003299999V0202101N003119999999N0080001N1+00591+00401101761ADDMD1210021+9999REMSYN082AAXX  03164 03529 46458 /2106 10059 20040 40176 52002 555 81/17 86/24 84/29 91552;
0102035290999992000010317004+52150-002030FM-12+003299999V0201901N003619999999N0100001N1+00551+00401101781ADDMD1210051+9999REMSYN076AAXX  03174 03529 46460 /1907 10055 20040 40178 52005 555 81/17 87/23 91652;
0136035290999992000010318004+52150-002030FM-12+003299999V0202001N003119999999N0050001N1+00521+00401101811ADDAA112003091KA1120M+01031MD1210081+9999REMSYN086AAXX  03184 03529 16550 /2006 10052 20040 40181 52008 60032 333 10103 555 88/20 91752;
0096035290999992000010319004+52150-002030FM-12+003299999V0201801N003619999999N0080001N1+00491+00391101831ADDMD1210071+9999REMSYN070AAXX  03194 03529 46558 /1807 10049 20039 40183 52007 555 88/23 91852;
0102035290999992000010320004+52150-002030FM-12+003299999V0202401N000519999999N0220001N1+00471+00371101771ADDMD1710011+9999REMSYN076AAXX  03204 03529 46572 /2401 10047 20037 40177 57001 555 81/25 85/50 91952;
0096035290999992000010321004+52150-002030FM-12+003299999V0202001N002619999999N0200001N1+00431+00301101781ADDMD1710031+9999REMSYN070AAXX  03214 03529 46970 /2005 10043 20030 40178 57003 555 81/61 92052;
0096035290999992000010322004+52150-002030FM-12+003299999V0202001N002119999999N0110001N1+00401+00321101801ADDMD1710031+9999REMSYN070AAXX  03224 03529 46661 /2004 10040 20032 40180 57003 555 86/31 92152;
0096035290999992000010323004+52150-002030FM-12+003299999V0202001N003119999999N0090001N1+00411+00331101851ADDMD1210081+9999REMSYN070AAXX  03234 03529 46659 /2006 10041 20033 40185 52008 555 88/31 92252;
0113035290999992000010400004+52150-002030FM-12+003299999V0201901N002619999999N0060001N1+00391+00311101871ADDAA106000891MD1210091+9999REMSYN076AAXX  04004 03529 16656 /1905 10039 20031 40187 52009 69981 555 88/30 92352;
0102035290999992000010401004+52150-002030FM-12+003299999V0202001N002619999999N0046001N1+00371+00291101811ADDMD1210011+9999REMSYN076AAXX  04014 03529 46646 /2005 10037 20029 40181 52001 555 82/30 87/36 90052;
0096035290999992000010402004+52150-002030FM-12+003299999V0201401N001519999999N0028001N1+00191+00111101751ADDMD1710101+9999REMSYN070AAXX  04024 03529 46628 /1403 10019 20011 40175 57010 555 82/34 90152;
0096035290999992000010403004+52150-002030FM-12+003299999V0209999C000019999999N0019001N1+00171+00141101681ADDMD1710191+9999REMSYN070AAXX  04034 03529 46919 /0000 10017 20014 40168 57019 555 80/99 90252;
0096035290999992000010404004+52150-002030FM-12+003299999V0202101N002619999999N0002001N1+00271+00211101631ADDMD1710181+9999REMSYN070AAXX  04044 03529 46002 /2105 10027 20021 40163 57018 555 87/00 90352;
0136035290999992000010406004+52150-002030FM-12+003299999V0202001N002619999999N0002001N1+00261+00231101491ADDAA112000891KA1120N+00161MD1710191+9999REMSYN086AAXX  04064 03529 16002 /2005 10026 20023 40149 57019 69982 333 20016 555 88/00 90552;
0096035290999992000010407004+52150-002030FM-12+003299999V0202001N002119999999N0001001N1+00221+00191101491ADDMD1710141+9999REMSYN070AAXX  04074 03529 46001 /2004 10022 20019 40149 57014 555 88/00 90652;
0096035290999992000010408004+52150-002030FM-12+003299999V0201601N001519999999N0001001N1+00111+00081101421ADDMD1710151+9999REMSYN070AAXX  04084 03529 46001 /1603 10011 20008 40142 57015 555 88/00 90752;
0130035290999992000010409004+52150-002030FM-12+003299999V0209999C000019999999N0005001N1+00081+00051101341ADDIA2999-00109MD1710151+9999REMSYN092AAXX  04094 03529 46005 /0000 10008 20005 40134 57015 333 3/101 555 84/00 81/09 87/31 90852;
0096035290999992000010410004+52150-002030FM-12+003299999V0201801N005719999999N0070001N1+00261+00201101271ADDMD1710221+9999REMSYN070AAXX  04104 03529 46257 /1811 10026 20020 40127 57022 555 87/04 90952;
0096035290999992000010411004+52150-002030FM-12+003299999V0201501N005719999999N0080001N1+00331+00251101081ADDMD1710341+9999REMSYN070AAXX  04114 03529 46158 /1511 10033 20025 40108 57034 555 85/02 91052;
0132035290999992000010412004+52150-002030FM-12+003299999V0201601N002119999999N0170001N1+00591+00321100951ADDAA106000091MD1710391+9999REMSYN076AAXX  04124 03529 36367 /1604 10059 20032 40095 57039 555 86/08 82/50 91152;EQDQ01  00002PRCP06
0102035290999992000010413004+52150-002030FM-12+003299999V0201901N008219999999N0230001N1+00691+00381100811ADDMD1710461+9999REMSYN076AAXX  04134 03529 46473 /1916 10069 20038 40081 57046 555 81/17 83/25 91252;
0102035290999992000010414004+52150-002030FM-12+003299999V0202501N009319999999N0270001N1+00661+00301100991ADDMD1710091+9999REMSYN076AAXX  04144 03529 46477 /2518 10066 20030 40099 57009 555 81/15 87/19 91352;
0096035290999992000010415004+52150-002030FM-12+003299999V0202101N003619999999N0400001N1+00611+00161101011ADDMD1210061+9999REMSYN070AAXX  04154 03529 46982 /2107 10061 20016 40101 52006 555 82/60 91452;
0096035290999992000010416004+52150-002030FM-12+003299999V0202101N003619999999N0300001N1+00491+00131101121ADDMD1210311+9999REMSYN070AAXX  04164 03529 46980 /2107 10049 20013 40112 52031 555 80/99 91552;
0096035290999992000010417004+52150-002030FM-12+003299999V0202401N004619999999N0290001N1+00481+00031101211ADDMD1210221+9999REMSYN070AAXX  04174 03529 46979 /2409 10048 20003 40121 52022 555 80/99 91652;
0136035290999992000010418004+52150-002030FM-12+003299999V0202301N004119999999N0300001N1+00421+00001101351ADDAA112000591KA1120M+00711MD1210341+9999REMSYN086AAXX  04184 03529 16980 /2308 10042 20000 40135 52034 69942 333 10071 555 80/99 91752;
0096035290999992000010420004+52150-002030FM-12+003299999V0202201N005719999999N0300001N1+00371-00061101531ADDMD1210321+9999REMSYN070AAXX  04204 03529 46980 /2211 10037 21006 40153 52032 555 80/99 91952;
0096035290999992000010421004+52150-002030FM-12+003299999V0201901N003619999999N0300001N1+00311-00071101601ADDMD1210251+9999REMSYN070AAXX  04214 03529 46980 /1907 10031 21007 40160 52025 555 80/99 92052;
0096035290999992000010422004+52150-002030FM-12+003299999V0202001N003619999999N0290001N1+00271-00091101621ADDMD1210141+9999REMSYN070AAXX  04224 03529 46979 /2007 10027 21009 40162 52014 555 80/99 92152;
0096035290999992000010423004+52150-002030FM-12+003299999V0202001N004619999999N0240001N1+00251-00051101641ADDMD1210111+9999REMSYN070AAXX  04234 03529 46974 /2009 10025 21005 40164 52011 555 80/99 92252;
0126035290999992000010500004+52150-002030FM-12+003299999V0202001N004119999999N0180001N1+00261-00011101651ADDAA106000091MD1210051+9999REMSYN070AAXX  05004 03529 36968 /2008 10026 21001 40165 52005 555 80/99 92352;EQDQ01  00002PRCP06
0096035290999992000010501004+52150-002030FM-12+003299999V0201901N004619999999N0190001N1+00281+00011101631ADDMD1210011+9999REMSYN070AAXX  05014 03529 46669 /1909 10028 20001 40163 52001 555 81/41 90052;
0096035290999992000010502004+52150-002030FM-12+003299999V0201701N004119999999N0220001N1+00271+00001101641ADDMD1410001+9999REMSYN070AAXX  05024 03529 46672 /1708 10027 20000 40164 54000 555 82/48 90152;
0096035290999992000010503004+52150-002030FM-12+003299999V0201801N003619999999N0240001N1+00271+00001101581ADDMD1710071+9999REMSYN070AAXX  05034 03529 46974 /1807 10027 20000 40158 57007 555 80/99 90252;
0096035290999992000010504004+52150-002030FM-12+003299999V0201901N003619999999N0260001N1+00351-00021101511ADDMD1710121+9999REMSYN070AAXX  05044 03529 46976 /1907 10035 21002 40151 57012 555 81/69 90352;
0096035290999992000010505004+52150-002030FM-12+003299999V0201801N003619999999N0290001N1+00321-00031101451ADDMD1710191+9999REMSYN070AAXX  05054 03529 46679 /1807 10032 21003 40145 57019 555 85/46 90452;
0149035290999992000010506004+52150-002030FM-12+003299999V0201701N004619999999N0300001N1+00521+00051101361ADDAA106000091KA1120N+00221MD1710221+9999REMSYN080AAXX  05064 03529 36680 /1709 10052 20005 40136 57022 333 20022 555 87/39 90552;EQDQ01  00002PRCP06
0096035290999992000010507004+52150-002030FM-12+003299999V0201701N004119999999N0270001N1+00511+00121101331ADDMD1710181+9999REMSYN070AAXX  05074 03529 46677 /1708 10051 20012 40133 57018 555 81/42 90652;
0096035290999992000010508004+52150-002030FM-12+003299999V0201701N005119999999N0280001N1+00591+00221101261ADDMD1710191+9999REMSYN070AAXX  05084 03529 46778 /1710 10059 20022 40126 57019 555 87/50 90752;
0124035290999992000010509004+52150-002030FM-12+003299999V0201701N005119999999N0250001N1+00691+00301101271ADDIA2999-00109MD1710091+9999REMSYN086AAXX  05094 03529 46675 /1710 10069 20030 40127 57009 333 3/101 555 84/44 84/50 90852;
0096035290999992000010510004+52150-002030FM-12+003299999V0201701N007219999999N0230001N1+00741+00411101201ADDMD1710131+9999REMSYN070AAXX  05104 03529 46573 /1714 10074 20041 40120 57013 555 81/22 90952;
0102035290999992000010511004+52150-002030FM-12+003299999V0201701N005719999999N0210001N1+00891+00511101161ADDMD1710101+9999REMSYN076AAXX  05114 03529 46571 /1711 10089 20051 40116 57010 555 81/22 87/50 91052;
0126035290999992000010512004+52150-002030FM-12+003299999V0201801N007719999999N0210001N1+00981+00591101071ADDAA106000091MD1710201+9999REMSYN070AAXX  05124 03529 36771 /1815 10098 20059 40107 57020 555 88/50 91152;EQDQ01  00002PRCP06
0102035290999992000010513004+52150-002030FM-12+003299999V0201801N009319999999N0210001N1+01021+00651100971ADDMD1710231+9999REMSYN076AAXX  05134 03529 46571 /1818 10102 20065 40097 57023 555 82/23 87/50 91252;
0102035290999992000010514004+52150-002030FM-12+003299999V0201801N007719999999N0220001N1+01021+00651100871ADDMD1710291+9999REMSYN076AAXX  05144 03529 46572 /1815 10102 20065 40087 57029 555 82/25 85/45 91352;
0102035290999992000010515004+52150-002030FM-12+003299999V0201701N007219999999N0260001N1+01051+00591100771ADDMD1710301+9999REMSYN076AAXX  05154 03529 46576 /1714 10105 20059 40077 57030 555 81/27 87/39 91452;
0102035290999992000010516004+52150-002030FM-12+003299999V0201701N009819999999N0240001N1+01061+00631100711ADDMD1710261+9999REMSYN076AAXX  05164 03529 46574 /1719 10106 20063 40071 57026 555 82/24 86/41 91552;
0096035290999992000010517004+52150-002030FM-12+003299999V0201701N007719999999N0240001N1+01081+00681100671ADDMD1710201+9999REMSYN070AAXX  05174 03529 46574 /1715 10108 20068 40067 57020 555 87/20 91652;
0096035290999992000010519004+52150-002030FM-12+003299999V0201701N009319999999N0210001N1+01141+00741100521ADDMD1710191+9999REMSYN070AAXX  05194 03529 46571 /1718 10114 20074 40052 57019 555 87/21 91852;
0102035290999992000010521004+52150-002030FM-12+003299999V0201801N012919999999N0160001N1+01211+00911100391ADDMD1710211+9999REMSYN076AAXX  05214 03529 46466 /1825 10121 20091 40039 57021 555 87/16 86/22 92052;
0102035290999992000010522004+52150-002030FM-12+003299999V0201801N011819999999N0150001N1+01201+00941100391ADDMD1710131+9999REMSYN076AAXX  05224 03529 46465 /1823 10120 20094 40039 57013 555 1//35 88/15 92152;
0108035290999992000010601004+52150-002030FM-12+003299999V0202001N007219999999N0150001N1+00971+00731100411ADDMD1210021+9999REMSYN082AAXX  06014 03529 46565 /2014 10097 20073 40041 52002 555 81/24 84/37 85/50 90052;
0108035290999992000010602004+52150-002030FM-12+003299999V0201901N005719999999N0200001N1+00931+00651100491ADDMD1210111+9999REMSYN082AAXX  06024 03529 46570 /1911 10093 20065 40049 52011 555 81/24 81/33 86/40 90152;
0108035290999992000010603004+52150-002030FM-12+003299999V0201901N007719999999N0210001N1+00921+00611100521ADDMD1210171+9999REMSYN082AAXX  06034 03529 46571 /1915 10092 20061 40052 52017 555 81/27 83/57 81/66 90252;
0102035290999992000010604004+52150-002030FM-12+003299999V0201901N007719999999N0220001N1+00921+00611100541ADDMD1210131+9999REMSYN076AAXX  06044 03529 46972 /1915 10092 20061 40054 52013 555 82/61 84/66 90352;
0102035290999992000010605004+52150-002030FM-12+003299999V0201901N006219999999N0210001N1+00901+00611100561ADDMD1210071+9999REMSYN076AAXX  06054 03529 46571 /1912 10090 20061 40056 52007 555 83/25 86/60 90452;
0142035290999992000010606004+52150-002030FM-12+003299999V0201901N006719999999N0190001N1+00891+00631100611ADDAA112001091KA1120N+00891MD1210091+9999REMSYN092AAXX  06064 03529 16569 /1913 10089 20063 40061 52009 60012 333 20089 555 82/25 87/60 90552;
0096035290999992000010607004+52150-002030FM-12+003299999V0201901N005719999999N0170001N1+00891+00631100701ADDMD1210161+9999REMSYN070AAXX  06074 03529 46967 /1911 10089 20063 40070 52016 555 87/61 90652;
0102035290999992000010608004+52150-002030FM-12+003299999V0202001N005119999999N0160001N1+00841+00621100761ADDMD1210201+9999REMSYN076AAXX  06084 03529 46566 /2010 10084 20062 40076 52020 555 81/23 82/50 90752;
0118035290999992000010609004+52150-002030FM-12+003299999V0202001N005719999999N0150001N1+00801+00571100861ADDIA2999+00609MD1210251+9999REMSYN080AAXX  06094 03529 46665 /2011 10080 20057 40086 52025 333 3/006 555 84/32 90852;
0096035290999992000010610004+52150-002030FM-12+003299999V0202001N005719999999N0120001N1+00831+00581100931ADDMD1210231+9999REMSYN070AAXX  06104 03529 46762 /2011 10083 20058 40093 52023 555 82/50 90952;
0096035290999992000010611004+52150-002030FM-12+003299999V0202001N005719999999N0150001N1+00841+00591101001ADDMD1210241+9999REMSYN070AAXX  06114 03529 46665 /2011 10084 20059 40100 52024 555 82/35 91052;
0132035290999992000010612004+52150-002030FM-12+003299999V0202201N006719999999N0300001N1+00971+00551101081ADDAA106000091MD1210221+9999REMSYN076AAXX  06124 03529 36780 /2213 10097 20055 40108 52022 555 81/50 81/59 91152;EQDQ01  00002PRCP06
0096035290999992000010613004+52150-002030FM-12+003299999V0202401N004619999999N0290001N1+01001+00441101131ADDMD1210201+9999REMSYN070AAXX  06134 03529 46779 /2409 10100 20044 40113 52020 555 82/50 91252;
0102035290999992000010614004+52150-002030FM-12+003299999V0202501N006219999999N0300001N1+01021+00381101251ADDMD1210251+9999REMSYN076AAXX  06144 03529 46680 /2512 10102 20038 40125 52025 555 84/39 82/46 91352;
0102035290999992000010615004+52150-002030FM-12+003299999V0202501N003619999999N0400001N1+00921+00361101351ADDMD1210271+9999REMSYN076AAXX  06154 03529 46682 /2507 10092 20036 40135 52027 555 83/31 87/40 91452;
0096035290999992000010616004+52150-002030FM-12+003299999V0202701N005119999999N0400001N1+00781+00361101461ADDMD1210331+9999REMSYN070AAXX  06164 03529 46982 /2710 10078 20036 40146 52033 555 80/99 91552;
0102035290999992000010617004+52150-002030FM-12+003299999V0203401N001019999999N0300001N1+00711+00431101561ADDMD1210311+9999REMSYN076AAXX  06174 03529 46580 /3402 10071 20043 40156 52031 555 84/25 84/34 91652;
0149035290999992000010618004+52150-002030FM-12+003299999V0202301N002119999999N0300001N1+00581+00311101681ADDAA106000091KA1120M+01031MD1210331+9999REMSYN080AAXX  06184 03529 36580 /2304 10058 20031 40168 52033 333 10103 555 82/29 91752;EQDQ01  00002PRCP06
0096035290999992000010620004+52150-002030FM-12+003299999V0201801N003119999999N0290001N1+00531+00281101801ADDMD1210241+9999REMSYN070AAXX  06204 03529 46979 /1806 10053 20028 40180 52024 555 80/99 91952;
0096035290999992000010621004+52150-002030FM-12+003299999V0201901N002119999999N0230001N1+00461+00231101851ADDMD1210171+9999REMSYN070AAXX  06214 03529 46973 /1904 10046 20023 40185 52017 555 80/99 92052;
0096035290999992000010622004+52150-002030FM-12+003299999V0201801N002619999999N0170001N1+00391+00211101881ADDMD1210161+9999REMSYN070AAXX  06224 03529 46967 /1805 10039 20021 40188 52016 555 80/99 92152;
0096035290999992000010623004+52150-002030FM-12+003299999V0201801N003619999999N0170001N1+00471+00241101881ADDMD1210081+9999REMSYN070AAXX  06234 03529 46967 /1807 10047 20024 40188 52008 555 80/99 92252;
0126035290999992000010700004+52150-002030FM-12+003299999V0201801N004119999999N0110001N1+00481+00331101921ADDAA106000091MD1210071+9999REMSYN070AAXX  07004 03529 36961 /1808 10048 20033 40192 52007 555 80/99 92352;EQDQ01  00002PRCP06
0096035290999992000010701004+52150-002030FM-12+003299999V0201901N005119999999N0140001N1+00541+00371101871ADDMD1710011+9999REMSYN070AAXX  07014 03529 46964 /1910 10054 20037 40187 57001 555 80/99 90052;
0096035290999992000010702004+52150-002030FM-12+003299999V0201801N004619999999N0150001N1+00541+00371101841ADDMD1710041+9999REMSYN070AAXX  07024 03529 46965 /1809 10054 20037 40184 57004 555 83/58 90152;
0096035290999992000010703004+52150-002030FM-12+003299999V0201901N005719999999N0170001N1+00591+00351101821ADDMD1710101+9999REMSYN070AAXX  07034 03529 46967 /1911 10059 20035 40182 57010 555 87/58 90252;
0096035290999992000010704004+52150-002030FM-12+003299999V0201901N008219999999N0200001N1+00641+00301101721ADDMD1710151+9999REMSYN070AAXX  07044 03529 46970 /1916 10064 20030 40172 57015 555 83/58 90352;
0096035290999992000010705004+52150-002030FM-12+003299999V0202001N007719999999N0180001N1+00611+00341101721ADDMD1710121+9999REMSYN070AAXX  07054 03529 46968 /2015 10061 20034 40172 57012 555 80/99 90452;
0155035290999992000010706004+52150-002030FM-12+003299999V0201801N006219999999N0180001N1+00611+00391101721ADDAA106000091KA1120N+00381MD1710101+9999REMSYN086AAXX  07064 03529 36668 /1812 10061 20039 40172 57010 333 20038 555 82/34 81/43 90552;EQDQ01  00002PRCP06
0096035290999992000010707004+52150-002030FM-12+003299999V0201901N007719999999N0190001N1+00671+00431101681ADDMD1710041+9999REMSYN070AAXX  07074 03529 46669 /1915 10067 20043 40168 57004 555 84/39 90652;
0096035290999992000010708004+52150-002030FM-12+003299999V0201801N006219999999N0190001N1+00671+00461101631ADDMD1710091+9999REMSYN070AAXX  07084 03529 46669 /1812 10067 20046 40163 57009 555 82/37 90752;
0118035290999992000010709004+52150-002030FM-12+003299999V0201901N007219999999N0200001N1+00721+00461101631ADDIA2999+00009MD1710091+9999REMSYN080AAXX  07094 03529 46970 /1914 10072 20046 40163 57009 333 3/000 555 80/99 90852;
0096035290999992000010710004+52150-002030FM-12+003299999V0202001N008219999999N0230001N1+00771+00471101581ADDMD1710101+9999REMSYN070AAXX  07104 03529 46673 /2016 10077 20047 40158 57010 555 83/30 90952;
0102035290999992000010711004+52150-002030FM-12+003299999V0201901N006719999999N0240001N1+00841+00501101561ADDMD1710071+9999REMSYN076AAXX  07114 03529 46574 /1913 10084 20050 40156 57007 555 84/22 83/29 91052;
0126035290999992000010712004+52150-002030FM-12+003299999V0202001N007719999999N0250001N1+00971+00501101451ADDAA106000091MD1710181+9999REMSYN070AAXX  07124 03529 36575 /2015 10097 20050 40145 57018 555 87/24 91152;EQDQ01  00002PRCP06
0102035290999992000010713004+52150-002030FM-12+003299999V0202001N008719999999N0290001N1+00971+00481101371ADDMD1710211+9999REMSYN076AAXX  07134 03529 46679 /2017 10097 20048 40137 57021 555 85/31 84/39 91252;
0096035290999992000010714004+52150-002030FM-12+003299999V0201901N008219999999N0300001N1+00981+00491101271ADDMD1710291+9999REMSYN070AAXX  07144 03529 46680 /1916 10098 20049 40127 57029 555 87/40 91352;
0108035290999992000010716004+52150-002030FM-12+003299999V0201901N008719999999N0260001N1+00991+00401101111ADDMD1710261+9999REMSYN082AAXX  07164 03529 46576 /1917 10099 20040 40111 57026 555 81/29 84/33 87/44 91552;
0096035290999992000010717004+52150-002030FM-12+003299999V0201901N008219999999N0270001N1+00941+00441101091ADDMD1710181+9999REMSYN070AAXX  07174 03529 46677 /1916 10094 20044 40109 57018 555 86/35 91652;
0155035290999992000010718004+52150-002030FM-12+003299999V0201901N007219999999N0240001N1+00961+00411101041ADDAA106000091KA1120M+01001MD1710151+9999REMSYN086AAXX  07184 03529 36574 /1914 10096 20041 40104 57015 333 10100 555 87/27 83/57 91752;EQDQ01  00002PRCP06
0102035290999992000010719004+52150-002030FM-12+003299999V0201901N008719999999N0280001N1+00941+00491100981ADDMD1710131+9999REMSYN076AAXX  07194 03529 46578 /1917 10094 20049 40098 57013 555 81/20 87/25 91852;
0108035290999992000010720004+52150-002030FM-12+003299999V0202001N008219999999N0220001N1+00891+00581100961ADDMD1710131+9999REMSYN082AAXX  07204 03529 46472 /2016 10089 20058 40096 57013 555 83/13 84/26 87/56 91952;
0108035290999992000010721004+52150-002030FM-12+003299999V0202001N009319999999N0200001N1+00891+00651100931ADDMD1710111+9999REMSYN082AAXX  07214 03529 46470 /2018 10089 20065 40093 57011 555 81/11 84/25 87/50 92052;
0102035290999992000010722004+52150-002030FM-12+003299999V0201901N007219999999N0160001N1+00871+00691100921ADDMD1710061+9999REMSYN076AAXX  07224 03529 46366 /1914 10087 20069 40092 57006 555 85/07 86/20 92152;
0102035290999992000010723004+52150-002030FM-12+003299999V0201901N007219999999N0140001N1+00891+00741100921ADDMD1710041+9999REMSYN076AAXX  07234 03529 46364 /1914 10089 20074 40092 57004 555 85/06 87/17 92252;
0108035290999992000010801004+52150-002030FM-12+003299999V0202201N004619999999N0180001N1+00881+00771101001ADDMD1210081+9999REMSYN082AAXX  08014 03529 46568 /2209 10088 20077 40100 52008 555 85/22 81/30 85/36 90052;
0096035290999992000010802004+52150-002030FM-12+003299999V0202101N003119999999N0350001N1+00841+00571101051ADDMD1210131+9999REMSYN070AAXX  08024 03529 46781 /2106 10084 20057 40105 52013 555 87/50 90152;
0102035290999992000010803004+52150-002030FM-12+003299999V0202001N003119999999N0290001N1+00821+00531101101ADDMD1210171+9999REMSYN076AAXX  08034 03529 46679 /2006 10082 20053 40110 52017 555 81/37 87/50 90252;
0096035290999992000010804004+52150-002030FM-12+003299999V0202301N003119999999N0240001N1+00691+00281101151ADDMD1210151+9999REMSYN070AAXX  08044 03529 46774 /2306 10069 20028 40115 52015 555 83/56 90352;
0096035290999992000010805004+52150-002030FM-12+003299999V0202201N003119999999N0250001N1+00581+00261101221ADDMD1210171+9999REMSYN070AAXX  08054 03529 46975 /2206 10058 20026 40122 52017 555 80/99 90452;
0136035290999992000010806004+52150-002030FM-12+003299999V0202001N002619999999N0200001N1+00511+00101101301ADDAA112001091KA1120N+00491MD1210201+9999REMSYN086AAXX  08064 03529 16970 /2005 10051 20010 40130 52020 60012 333 20049 555 80/99 90552;
0096035290999992000010807004+52150-002030FM-12+003299999V0202001N003619999999N0200001N1+00481+00171101341ADDMD1210191+9999REMSYN070AAXX  08074 03529 46970 /2007 10048 20017 40134 52019 555 80/99 90652;
0096035290999992000010808004+52150-002030FM-12+003299999V0201901N003119999999N0190001N1+00411+00181101451ADDMD1210231+9999REMSYN070AAXX  08084 03529 46969 /1906 10041 20018 40145 52023 555 80/99 90752;
0118035290999992000010809004+52150-002030FM-12+003299999V0201701N003119999999N0200001N1+00431+00141101581ADDIA2999+00009MD1210281+9999REMSYN080AAXX  08094 03529 46970 /1706 10043 20014 40158 52028 333 3/000 555 80/99 90852;
0096035290999992000010810004+52150-002030FM-12+003299999V0201901N003119999999N0190001N1+00511+00181101591ADDMD1210251+9999REMSYN070AAXX  08104 03529 46969 /1906 10051 20018 40159 52025 555 80/99 90952;
0096035290999992000010811004+52150-002030FM-12+003299999V0202001N003619999999N0190001N1+00691+00171101631ADDMD1210181+9999REMSYN070AAXX  08114 03529 46969 /2007 10069 20017 40163 52018 555 80/99 91052;
0126035290999992000010812004+52150-002030FM-12+003299999V0201901N004119999999N0190001N1+00771+00211101611ADDAA106000091MD1210031+9999REMSYN070AAXX  08124 03529 36969 /1908 10077 20021 40161 52003 555 80/99 91152;EQDQ01  00002PRCP06
0096035290999992000010813004+52150-002030FM-12+003299999V0202201N005119999999N0240001N1+00771+00151101621ADDMD1210031+9999REMSYN070AAXX  08134 03529 46774 /2210 10077 20015 40162 52003 555 82/50 91252;
0096035290999992000010814004+52150-002030FM-12+003299999V0202201N004619999999N0230001N1+00821+00221101591ADDMD1710041+9999REMSYN070AAXX  08144 03529 46673 /2209 10082 20022 40159 57004 555 81/39 91352;
0096035290999992000010815004+52150-002030FM-12+003299999V0202201N003619999999N0230001N1+00791+00151101631ADDMD1210021+9999REMSYN070AAXX  08154 03529 46673 /2207 10079 20015 40163 52002 555 81/43 91452;
0096035290999992000010816004+52150-002030FM-12+003299999V0202301N003619999999N0260001N1+00701+00001101661ADDMD1210041+9999REMSYN070AAXX  08164 03529 46676 /2307 10070 20000 40166 52004 555 81/42 91552;
0096035290999992000010817004+52150-002030FM-12+003299999V0202101N002119999999N0220001N1+00561+00131101701ADDMD1210111+9999REMSYN070AAXX  08174 03529 46972 /2104 10056 20013 40170 52011 555 80/99 91652;
0149035290999992000010818004+52150-002030FM-12+003299999V0201801N002119999999N0250001N1+00511+00011101801ADDAA106000091KA1120M+00841MD1210171+9999REMSYN080AAXX  08184 03529 36975 /1804 10051 20001 40180 52017 333 10084 555 80/99 91752;EQDQ01  00002PRCP06
0096035290999992000010819004+52150-002030FM-12+003299999V0202001N003119999999N0220001N1+00491+00041101851ADDMD1210191+9999REMSYN070AAXX  08194 03529 46972 /2006 10049 20004 40185 52019 555 80/99 91852;
0096035290999992000010820004+52150-002030FM-12+003299999V0201801N002619999999N0180001N1+00381+00061101951ADDMD1210251+9999REMSYN070AAXX  08204 03529 46668 /1805 10038 20006 40195 52025 555 82/33 91952;
0096035290999992000010821004+52150-002030FM-12+003299999V0202001N003619999999N0170001N1+00281+00031102001ADDMD1210201+9999REMSYN070AAXX  08214 03529 46967 /2007 10028 20003 40200 52020 555 80/99 92052;
0096035290999992000010822004+52150-002030FM-12+003299999V0202201N003619999999N0190001N1+00241+00021102011ADDMD1210161+9999REMSYN070AAXX  08224 03529 46969 /2207 10024 20002 40201 52016 555 80/99 92152;
0096035290999992000010823004+52150-002030FM-12+003299999V0202101N003619999999N0210001N1+00231-00011102061ADDMD1210111+9999REMSYN070AAXX  08234 03529 46971 /2107 10023 21001 40206 52011 555 80/99 92252;
0126035290999992000010900004+52150-002030FM-12+003299999V0202101N003119999999N0180001N1+00211+00021102111ADDAA106000091MD1210111+9999REMSYN070AAXX  09004 03529 36968 /2106 10021 20002 40211 52011 555 80/99 92352;EQDQ01  00002PRCP06
0096035290999992000010901004+52150-002030FM-12+003299999V0202101N002119999999N0220001N1+00201-00041102111ADDMD1210101+9999REMSYN070AAXX  09014 03529 46972 /2104 10020 21004 40211 52010 555 80/99 90052;
0096035290999992000010902004+52150-002030FM-12+003299999V0202001N003119999999N0190001N1+00131-00061102161ADDMD1210101+9999REMSYN070AAXX  09024 03529 46969 /2006 10013 21006 40216 52010 555 80/99 90152;
0096035290999992000010903004+52150-002030FM-12+003299999V0201501N001019999999N0160001N1-00021-00161102261ADDMD1210151+9999REMSYN070AAXX  09034 03529 46966 /1502 11002 21016 40226 52015 555 80/99 90252;
0096035290999992000010904004+52150-002030FM-12+003299999V0209999C000019999999N0180001N1-00031-00171102331ADDMD1210221+9999REMSYN070AAXX  09044 03529 46968 /0000 11003 21017 40233 52022 555 80/99 90352;
0096035290999992000010905004+52150-002030FM-12+003299999V0202101N002119999999N0240001N1+00041-00131102341ADDMD1210181+9999REMSYN070AAXX  09054 03529 46974 /2104 10004 21013 40234 52018 555 80/99 90452;
0096035290999992000010907004+52150-002030FM-12+003299999V0202201N002119999999N0240001N1+00021-00121102471ADDMD1210141+9999REMSYN070AAXX  09074 03529 46974 /2204 10002 21012 40247 52014 555 80/99 90652;
0096035290999992000010908004+52150-002030FM-12+003299999V0201901N002119999999N0230001N1+00051-00121102521ADDMD1210181+9999REMSYN070AAXX  09084 03529 46973 /1904 10005 21012 40252 52018 555 80/99 90752;
0118035290999992000010909004+52150-002030FM-12+003299999V0201901N002119999999N0200001N1+00091-00101102651ADDIA2999-00409MD1210241+9999REMSYN080AAXX  09094 03529 46970 /1904 10009 21010 40265 52024 333 3/104 555 80/99 90852;
0096035290999992000010910004+52150-002030FM-12+003299999V0201901N002119999999N0200001N1+00251-00021102701ADDMD1210231+9999REMSYN070AAXX  09104 03529 46970 /1904 10025 21002 40270 52023 555 80/99 90952;
0096035290999992000010911004+52150-002030FM-12+003299999V0202201N003619999999N0220001N1+00361-00011102761ADDMD1210241+9999REMSYN070AAXX  09114 03529 46972 /2207 10036 21001 40276 52024 555 80/99 91052;
0113035290999992000010912004+52150-002030FM-12+003299999V0202201N002619999999N0210001N1+00491+00071102811ADDAA106000191MD1210161+9999REMSYN076AAXX  09124 03529 16971 /2205 10049 20007 40281 52016 69921 555 80/99 91152;
0096035290999992000010913004+52150-002030FM-12+003299999V0202001N002619999999N0250001N1+00611+00131102851ADDMD1210151+9999REMSYN070AAXX  09134 03529 46975 /2005 10061 20013 40285 52015 555 80/99 91252;
0096035290999992000010914004+52150-002030FM-12+003299999V0202101N002619999999N0240001N1+00591+00131102891ADDMD1210131+9999REMSYN070AAXX  09144 03529 46574 /2105 10059 20013 40289 52013 555 81/24 91352;
0096035290999992000010915004+52150-002030FM-12+003299999V0202101N002119999999N0260001N1+00651+00121102951ADDMD1210141+9999REMSYN070AAXX  09154 03529 46976 /2104 10065 20012 40295 52014 555 80/99 91452;
0102035290999992000010916004+52150-002030FM-12+003299999V0202101N001519999999N0230001N1+00531+00151103041ADDMD1210191+9999REMSYN076AAXX  09164 03529 46673 /2103 10053 20015 40304 52019 555 81/35 83/44 91552;
0096035290999992000010917004+52150-002030FM-12+003299999V0201501N002619999999N0100001N1+00281+00031103071ADDMD1210181+9999REMSYN070AAXX  09174 03529 46760 /1505 10028 20003 40307 52018 555 81/50 91652;
0136035290999992000010918004+52150-002030FM-12+003299999V0202001N002119999999N0140001N1+00341+00041103131ADDAA112000191KA1120M+00661MD1210181+9999REMSYN086AAXX  09184 03529 16764 /2004 10034 20004 40313 52018 69922 333 10066 555 82/50 91752;
0096035290999992000010919004+52150-002030FM-12+003299999V0202201N002119999999N0110001N1+00171-00021103201ADDMD1210161+9999REMSYN070AAXX  09194 03529 46661 /2204 10017 21002 40320 52016 555 82/41 91852;
0096035290999992000010920004+52150-002030FM-12+003299999V0209999C000019999999N0090001N1+00001-00201103271ADDMD1210201+9999REMSYN070AAXX  09204 03529 46959 /0000 10000 21020 40327 52020 555 80/99 91952;
0096035290999992000010921004+52150-002030FM-12+003299999V0202201N001519999999N0110001N1+00091-00071103301ADDMD1210171+9999REMSYN070AAXX  09214 03529 46961 /2203 10009 21007 40330 52017 555 80/99 92052;
0096035290999992000010922004+52150-002030FM-12+003299999V0209999C000019999999N0110001N1+00021-00151103321ADDMD1210121+9999REMSYN070AAXX  09224 03529 46961 /0000 10002 21015 40332 52012 555 80/99 92152;
0096035290999992000010923004+52150-002030FM-12+003299999V0209999C000019999999N0060001N1-00091-00211103351ADDMD1210081+9999REMSYN070AAXX  09234 03529 46956 /0000 11009 21021 40335 52008 555 80/99 92252;
0126035290999992000011000004+52150-002030FM-12+003299999V0209999C000019999999N0060001N1-00131+99999103361ADDAA106000091MD1210061+9999REMSYN070AAXX  10004 03529 36956 /0000 11013 20021 40336 52006 555 80/99 92352;EQDQ01  00002PRCP06
0096035290999992000011001004+52150-002030FM-12+003299999V0209999C000019999999N0039001N1-00231+99999103371ADDMD1210051+9999REMSYN070AAXX  10014 03529 46939 /0000 11023 21022 40337 52005 555 80/99 90052;
0096035290999992000011002004+52150-002030FM-12+003299999V0209999C000019999999N0048001N1-00241-00271103371ADDMD1210021+9999REMSYN070AAXX  10024 03529 46948 /0000 11024 21027 40337 52002 555 80/99 90152;
0096035290999992000011003004+52150-002030FM-12+003299999V0201901N000519999999N0041001N1-00311-00341103391ADDMD1210031+9999REMSYN070AAXX  10034 03529 46941 /1901 11031 21034 40339 52003 555 80/99 90252;
0096035290999992000011004004+52150-002030FM-12+003299999V0209999C000019999999N0060001N1-00321+99999103391ADDMD1210021+9999REMSYN070AAXX  10044 03529 46956 /0000 11032 21031 40339 52002 555 80/99 90352;
0096035290999992000011005004+52150-002030FM-12+003299999V0201901N002119999999N0049001N1+00001-00081103361ADDMD1710011+9999REMSYN070AAXX  10054 03529 46949 /1904 10000 21008 40336 57001 555 80/99 90452;
0149035290999992000011006004+52150-002030FM-12+003299999V0201901N002119999999N0050001N1+00031-00081103361ADDAA106000091KA1120N-00381MD1710031+9999REMSYN080AAXX  10064 03529 36950 /1904 10003 21008 40336 57003 333 21038 555 80/99 90552;EQDQ01  00002PRCP06
0096035290999992000011007004+52150-002030FM-12+003299999V0202001N003619999999N0110001N1+00101-00191103391ADDMD1410001+9999REMSYN070AAXX  10074 03529 46961 /2007 10010 21019 40339 54000 555 80/99 90652;
0096035290999992000011008004+52150-002030FM-12+003299999V0202001N004119999999N0140001N1+00141-00021103421ADDMD1210061+9999REMSYN070AAXX  10084 03529 46964 /2008 10014 21002 40342 52006 555 80/99 90752;
0118035290999992000011009004+52150-002030FM-12+003299999V0201901N003119999999N0170001N1+00201-00011103391ADDIA2999-00509MD1210031+9999REMSYN080AAXX  10094 03529 46967 /1906 10020 21001 40339 52003 333 3/105 555 80/99 90852;
0096035290999992000011010004+52150-002030FM-12+003299999V0201801N002619999999N0160001N1+00271+00021103401ADDMD1210011+9999REMSYN070AAXX  10104 03529 46966 /1805 10027 20002 40340 52001 555 80/99 90952;
0096035290999992000011011004+52150-002030FM-12+003299999V0201901N005119999999N0190001N1+00361+00091103341ADDMD1710081+9999REMSYN070AAXX  10114 03529 46969 /1910 10036 20009 40334 57008 555 80/99 91052;
0126035290999992000011012004+52150-002030FM-12+003299999V0202001N005119999999N0210001N1+00521+00191103311ADDAA106000091MD1710081+9999REMSYN070AAXX  10124 03529 36671 /2010 10052 20019 40331 57008 555 81/46 91152;EQDQ01  00002PRCP06
0096035290999992000011013004+52150-002030FM-12+003299999V0201901N004619999999N0190001N1+00561+00241103291ADDMD1710111+9999REMSYN070AAXX  10134 03529 46969 /1909 10056 20024 40329 57011 555 80/99 91252;
0096035290999992000011014004+52150-002030FM-12+003299999V0201901N003619999999N0230001N1+00601+00281103241ADDMD1710101+9999REMSYN070AAXX  10144 03529 46773 /1907 10060 20028 40324 57010 555 81/50 91352;
0096035290999992000011015004+52150-002030FM-12+003299999V0201801N005719999999N0260001N1+00681+00291103201ADDMD1710111+9999REMSYN070AAXX  10154 03529 46776 /1811 10068 20029 40320 57011 555 81/50 91452;
0096035290999992000011016004+52150-002030FM-12+003299999V0201801N004619999999N0280001N1+00671+00311103211ADDMD1710081+9999REMSYN070AAXX  10164 03529 46678 /1809 10067 20031 40321 57008 555 85/49 91552;
0102035290999992000011017004+52150-002030FM-12+003299999V0202001N005119999999N0290001N1+00681+00321103201ADDMD1710041+9999REMSYN076AAXX  10174 03529 46679 /2010 10068 20032 40320 57004 555 86/40 87/49 91652;
0161035290999992000011018004+52150-002030FM-12+003299999V0201901N005719999999N0260001N1+00681+00321103181ADDAA106000091KA1120M+00691MD1710021+9999REMSYN092AAXX  10184 03529 36676 /1911 10068 20032 40318 57002 333 10069 555 84/34 81/40 83/64 91752;EQDQ01  00002PRCP06
0108035290999992000011020004+52150-002030FM-12+003299999V0202001N005719999999N0250001N1+00681+00341103171ADDMD1710031+9999REMSYN082AAXX  10204 03529 46775 /2011 10068 20034 40317 57003 555 84/50 86/58 85/62 91952;
0096035290999992000011021004+52150-002030FM-12+003299999V0201901N004119999999N0260001N1+00661+00351103181ADDMD1410001+9999REMSYN070AAXX  10214 03529 46776 /1908 10066 20035 40318 54000 555 87/56 92052;
0096035290999992000011022004+52150-002030FM-12+003299999V0202001N006219999999N0240001N1+00661+00371103171ADDMD1710031+9999REMSYN070AAXX  10224 03529 46774 /2012 10066 20037 40317 57003 555 87/56 92152;
0108035290999992000011023004+52150-002030FM-12+003299999V0201901N005119999999N0120001N1+00661+00421103181ADDMD1210011+9999REMSYN082AAXX  10234 03529 46562 /1910 10066 20042 40318 52001 555 81/27 87/50 84/60 92252;
0113035290999992000011100004+52150-002030FM-12+003299999V0202001N006219999999N0260001N1+00671+00461103141ADDAA106000591MD1710041+9999REMSYN076AAXX  11004 03529 16776 /2012 10067 20046 40314 57004 69941 555 82/50 92352;
0108035290999992000011101004+52150-002030FM-12+003299999V0201901N007219999999N0350001N1+00711+00451103161ADDMD1710011+9999REMSYN082AAXX  11014 03529 46781 /1914 10071 20045 40316 57001 555 83/50 84/57 83/62 90052;
0108035290999992000011102004+52150-002030FM-12+003299999V0201801N005719999999N0300001N1+00731+00451103161ADDMD1710021+9999REMSYN082AAXX  11024 03529 46480 /1811 10073 20045 40316 57002 555 81/16 82/24 87/50 90152;
0102035290999992000011103004+52150-002030FM-12+003299999V0201901N007719999999N0290001N1+00751+00521103121ADDMD1710021+9999REMSYN076AAXX  11034 03529 46779 /1915 10075 20052 40312 57002 555 84/56 87/59 90252;
0102035290999992000011104004+52150-002030FM-12+003299999V0201901N007219999999N0300001N1+00751+00501103131ADDMD1710031+9999REMSYN076AAXX  11044 03529 46780 /1914 10075 20050 40313 57003 555 81/56 84/59 90352;
0108035290999992000011105004+52150-002030FM-12+003299999V0201901N006219999999N0300001N1+00801+00531103111ADDMD1710051+9999REMSYN082AAXX  11054 03529 46580 /1912 10080 20053 40311 57005 555 86/20 84/50 82/60 90452;
0136035290999992000011106004+52150-002030FM-12+003299999V0201901N006219999999N0300001N1+00801+00571103111ADDAA112000591KA1120N+00631MD1710011+9999REMSYN086AAXX  11064 03529 16480 /1912 10080 20057 40311 57001 69942 333 20063 555 87/13 90552;
0096035290999992000011107004+52150-002030FM-12+003299999V0201801N006719999999N0300001N1+00831+00561103111ADDMD1710021+9999REMSYN070AAXX  11074 03529 46480 /1813 10083 20056 40311 57002 555 88/13 90652;
0096035290999992000011108004+52150-002030FM-12+003299999V0201701N007219999999N0300001N1+00851+00561103101ADDMD1710011+9999REMSYN070AAXX  11084 03529 46480 /1714 10085 20056 40310 57001 555 88/16 90752;
0118035290999992000011109004+52150-002030FM-12+003299999V0201701N006719999999N0300001N1+00861+00591103111ADDIA2999+00509MD1410001+9999REMSYN080AAXX  11094 03529 46480 /1713 10086 20059 40311 54000 333 3/005 555 88/15 90852;
0102035290999992000011110004+52150-002030FM-12+003299999V0202001N007719999999N0300001N1+00901+00591103101ADDMD1710011+9999REMSYN076AAXX  11104 03529 46480 /2015 10090 20059 40310 57001 555 84/17 87/24 90952;
0102035290999992000011111004+52150-002030FM-12+003299999V0201901N006719999999N0260001N1+00961+00611103121ADDMD1210021+9999REMSYN076AAXX  11114 03529 46576 /1913 10096 20061 40312 52002 555 85/21 87/27 91052;
0126035290999992000011112004+52150-002030FM-12+003299999V0201901N007219999999N0290001N1+01021+00651103051ADDAA106000091MD1710061+9999REMSYN070AAXX  11124 03529 36579 /1914 10102 20065 40305 57006 555 86/21 91152;EQDQ01  00002PRCP06
0096035290999992000011113004+52150-002030FM-12+003299999V0201901N006719999999N0280001N1+01031+00641103001ADDMD1710101+9999REMSYN070AAXX  11134 03529 46578 /1913 10103 20064 40300 57010 555 87/24 91252;
0096035290999992000011114004+52150-002030FM-12+003299999V0201901N006719999999N0350001N1+00991+00621102921ADDMD1710201+9999REMSYN070AAXX  11144 03529 46581 /1913 10099 20062 40292 57020 555 87/23 91352;
0096035290999992000011115004+52150-002030FM-12+003299999V0202001N006719999999N0350001N1+00971+00571102901ADDMD1710151+9999REMSYN070AAXX  11154 03529 46581 /2013 10097 20057 40290 57015 555 87/22 91452;
0096035290999992000011116004+52150-002030FM-12+003299999V0202001N008219999999N0350001N1+00981+00541102841ADDMD1710161+9999REMSYN070AAXX  11164 03529 46581 /2016 10098 20054 40284 57016 555 87/29 91552;
0096035290999992000011117004+52150-002030FM-12+003299999V0202001N008219999999N0400001N1+00951+00481102811ADDMD1710111+9999REMSYN070AAXX  11174 03529 46582 /2016 10095 20048 40281 57011 555 87/28 91652;
0155035290999992000011118004+52150-002030FM-12+003299999V0202101N008719999999N0400001N1+00901+00471102781ADDAA106000091KA1120M+01041MD1710121+9999REMSYN086AAXX  11184 03529 36682 /2117 10090 20047 40278 57012 333 10104 555 83/34 82/67 91752;EQDQ01  00002PRCP06
0102035290999992000011119004+52150-002030FM-12+003299999V0202001N007719999999N0350001N1+00881+00451102791ADDMD1710051+9999REMSYN076AAXX  11194 03529 46681 /2015 10088 20045 40279 57005 555 86/48 85/69 91852;
0108035290999992000011120004+52150-002030FM-12+003299999V0201901N006219999999N0400001N1+00891+00431102781ADDMD1710031+9999REMSYN082AAXX  11204 03529 46582 /1912 10089 20043 40278 57003 555 81/22 85/42 81/50 91952;
0108035290999992000011121004+52150-002030FM-12+003299999V0201901N006219999999N0300001N1+00861+00471102781ADDMD1410001+9999REMSYN082AAXX  11214 03529 46580 /1912 10086 20047 40278 54000 555 81/26 81/34 81/64 92052;
0102035290999992000011122004+52150-002030FM-12+003299999V0201901N006719999999N0300001N1+00881+00451102711ADDMD1710081+9999REMSYN076AAXX  11224 03529 46580 /1913 10088 20045 40271 57008 555 87/26 83/34 92152;
0096035290999992000011123004+52150-002030FM-12+003299999V0202001N007719999999N0350001N1+00871+00411102651ADDMD1710131+9999REMSYN070AAXX  11234 03529 46581 /2015 10087 20041 40265 57013 555 88/25 92252;
0138035290999992000011200004+52150-002030FM-12+003299999V0202001N007719999999N0300001N1+00861+00401102591ADDAA106000091MD1710191+9999REMSYN082AAXX  12004 03529 36580 /2015 10086 20040 40259 57019 555 85/26 83/43 84/63 92352;EQDQ01  00002PRCP06
0096035290999992000011201004+52150-002030FM-12+003299999V0201901N006219999999N0350001N1+00861+00401102541ADDMD1710171+9999REMSYN070AAXX  12014 03529 46581 /1912 10086 20040 40254 57017 555 87/26 90053;
0102035290999992000011202004+52150-002030FM-12+003299999V0202001N007719999999N0350001N1+00871+00411102501ADDMD1710151+9999REMSYN076AAXX  12024 03529 46581 /2015 10087 20041 40250 57015 555 85/27 87/37 90153;
0096035290999992000011203004+52150-002030FM-12+003299999V0201901N005119999999N0350001N1+00871+00411102431ADDMD1710161+9999REMSYN070AAXX  12034 03529 46581 /1910 10087 20041 40243 57016 555 88/27 90253;
0102035290999992000011204004+52150-002030FM-12+003299999V0201901N005119999999N0300001N1+00831+00441102381ADDMD1710161+9999REMSYN076AAXX  12044 03529 46580 /1910 10083 20044 40238 57016 555 84/29 86/46 90353;
0102035290999992000011205004+52150-002030FM-12+003299999V0201901N007219999999N0300001N1+00851+00441102291ADDMD1710211+9999REMSYN076AAXX  12054 03529 46580 /1914 10085 20044 40229 57021 555 82/29 82/44 90453;
0155035290999992000011206004+52150-002030FM-12+003299999V0201901N006719999999N0300001N1+00851+00461102241ADDAA106000091KA1120N+00821MD1710191+9999REMSYN086AAXX  12064 03529 36580 /1913 10085 20046 40224 57019 333 20082 555 86/25 85/47 90553;EQDQ01  00002PRCP06
0096035290999992000011207004+52150-002030FM-12+003299999V0201901N007719999999N0280001N1+00851+00511102221ADDMD1710161+9999REMSYN070AAXX  12074 03529 46578 /1915 10085 20051 40222 57016 555 87/24 90653;
0096035290999992000011208004+52150-002030FM-12+003299999V0201801N007219999999N0250001N1+00831+00541102181ADDMD1710111+9999REMSYN070AAXX  12084 03529 46575 /1814 10083 20054 40218 57011 555 88/23 90753;
0124035290999992000011209004+52150-002030FM-12+003299999V0201901N003619999999N0230001N1+00831+00541102171ADDIA2999+00709MD1710071+9999REMSYN086AAXX  12094 03529 46473 /1907 10083 20054 40217 57007 333 3/007 555 87/19 85/50 90853;
0096035290999992000011210004+52150-002030FM-12+003299999V0201901N009319999999N0250001N1+00901+00521102111ADDMD1710111+9999REMSYN070AAXX  12104 03529 46775 /1918 10090 20052 40211 57011 555 87/56 90953;
0108035290999992000011211004+52150-002030FM-12+003299999V0202001N007219999999N0250001N1+00921+00561102101ADDMD1710081+9999REMSYN082AAXX  12114 03529 46475 /2014 10092 20056 40210 57008 555 86/15 81/43 84/57 91053;
0138035290999992000011212004+52150-002030FM-12+003299999V0202001N008719999999N0270001N1+00931+00531102021ADDAA106000091MD1710151+9999REMSYN082AAXX  12124 03529 36477 /2017 10093 20053 40202 57015 555 83/17 81/21 87/28 91153;EQDQ01  00002PRCP06
0108035290999992000011213004+52150-002030FM-12+003299999V0202001N007719999999N0250001N1+00941+00491101951ADDMD1710161+9999REMSYN082AAXX  12134 03529 46475 /2015 10094 20049 40195 57016 555 85/19 82/27 86/31 91253;
0102035290999992000011214004+52150-002030FM-12+003299999V0202001N008219999999N0260001N1+00941+00471101891ADDMD1710211+9999REMSYN076AAXX  12144 03529 46576 /2016 10094 20047 40189 57021 555 83/21 87/31 91353;
0108035290999992000011215004+52150-002030FM-12+003299999V0201901N007719999999N0270001N1+00941+00391101811ADDMD1710211+9999REMSYN082AAXX  12154 03529 46577 /1915 10094 20039 40181 57021 555 81/23 86/38 82/45 91453;
0096035290999992000011216004+52150-002030FM-12+003299999V0201801N006719999999N0200001N1+00911+00431101761ADDMD1710191+9999REMSYN070AAXX  12164 03529 46670 /1813 10091 20043 40176 57019 555 87/31 91553;
0102035290999992000011217004+52150-002030FM-12+003299999V0201801N006719999999N0220001N1+00871+00361101721ADDMD1710171+9999REMSYN076AAXX  12174 03529 46672 /1813 10087 20036 40172 57017 555 81/36 87/43 91653;
0161035290999992000011218004+52150-002030FM-12+003299999V0201801N006219999999N0180001N1+00841+00371101671ADDAA106000091KA1120M+01001MD1710141+9999REMSYN092AAXX  12184 03529 36568 /1812 10084 20037 40167 57014 333 10100 555 81/24 83/31 87/42 91753;EQDQ01  00002PRCP06
0102035290999992000011219004+52150-002030FM-12+003299999V0201701N006719999999N0150001N1+00811+00421101611ADDMD1710151+9999REMSYN076AAXX  12194 03529 46465 /1713 10081 20042 40161 57015 555 86/19 86/27 91853;
0096035290999992000011220004+52150-002030FM-12+003299999V0201801N005719999999N0100001N1+00751+00451101571ADDMD1710151+9999REMSYN070AAXX  12204 03529 46460 /1811 10075 20045 40157 57015 555 87/17 91953;
0102035290999992000011221004+52150-002030FM-12+003299999V0201701N006719999999N0080001N1+00721+00461101511ADDMD1710161+9999REMSYN076AAXX  12214 03529 46458 /1713 10072 20046 40151 57016 555 87/16 87/25 92053;
0102035290999992000011222004+52150-002030FM-12+003299999V0201701N006719999999N0090001N1+00681+00491101421ADDMD1710191+9999REMSYN076AAXX  12224 03529 46459 /1713 10068 20049 40142 57019 555 87/12 86/18 92153;
0096035290999992000011223004+52150-002030FM-12+003299999V0201701N007719999999N0090001N1+00671+00511101341ADDMD1710231+9999REMSYN070AAXX  12234 03529 46459 /1715 10067 20051 40134 57023 555 88/11 92253;
0113035290999992000011300004+52150-002030FM-12+003299999V0201701N006719999999N0070001N1+00681+00521101261ADDAA106000891MD1710251+9999REMSYN076AAXX  13004 03529 16457 /1713 10068 20052 40126 57025 69981 555 88/11 92353;
0102035290999992000011301004+52150-002030FM-12+003299999V0201901N004619999999N0048001N1+00671+00551101221ADDMD1710201+9999REMSYN076AAXX  13014 03529 46448 /1909 10067 20055 40122 57020 555 87/10 84/20 90053;
0108035290999992000011302004+52150-002030FM-12+003299999V0203201N006719999999N0100001N1+00281+00171101361ADDMD1210021+9999REMSYN082AAXX  13024 03529 46460 /3213 10028 20017 40136 52002 555 82/19 84/25 85/30 90153;
0108035290999992000011303004+52150-002030FM-12+003299999V0203101N003619999999N0070001N1+00211+00101101401ADDMD1210141+9999REMSYN082AAXX  13034 03529 46257 /3107 10021 20010 40140 52014 555 86/05 84/20 83/25 90253;
0096035290999992000011304004+52150-002030FM-12+003299999V0202901N002619999999N0070001N1+00201+00121101421ADDMD1210201+9999REMSYN070AAXX  13044 03529 46257 /2905 10020 20012 40142 52020 555 88/05 90353;
0096035290999992000011305004+52150-002030FM-12+003299999V0203001N004119999999N0070001N1+00281+00221101431ADDMD1210071+9999REMSYN070AAXX  13054 03529 46357 /3008 10028 20022 40143 52007 555 87/07 90453;
0142035290999992000011306004+52150-002030FM-12+003299999V0203101N004619999999N0060001N1+00301+00191101461ADDAA112004191KA1120N+00171MD1210061+9999REMSYN092AAXX  13064 03529 16356 /3109 10030 20019 40146 52006 60042 333 20017 555 83/08 87/20 90553;
0108035290999992000011307004+52150-002030FM-12+003299999V0202901N003619999999N0070001N1+00291+00181101511ADDMD1210091+9999REMSYN082AAXX  13074 03529 46357 /2907 10029 20018 40151 52009 555 85/08 82/26 86/50 90653;
0108035290999992000011308004+52150-002030FM-12+003299999V0202901N003119999999N0070001N1+00261+00181101581ADDMD1210151+9999REMSYN082AAXX  13084 03529 46557 /2906 10026 20018 40158 52015 555 81/27 81/35 87/56 90753;
0118035290999992000011309004+52150-002030FM-12+003299999V0202801N001519999999N0050001N1+00231+00151101621ADDIA2999+00109MD1210161+9999REMSYN080AAXX  13094 03529 46750 /2803 10023 20015 40162 52016 333 3/001 555 85/56 90853;
0102035290999992000011310004+52150-002030FM-12+003299999V0209999C000019999999N0060001N1+00261+00181101691ADDMD1210181+9999REMSYN076AAXX  13104 03529 46456 /0000 10026 20018 40169 52018 555 81/10 82/50 90953;
0096035290999992000011311004+52150-002030FM-12+003299999V0202801N003619999999N0080001N1+00401+00251101691ADDMD1210111+9999REMSYN070AAXX  13114 03529 46358 /2807 10040 20025 40169 52011 555 81/06 91053;
0126035290999992000011312004+52150-002030FM-12+003299999V0203001N002619999999N0120001N1+00351+00221101701ADDAA106000091MD1210081+9999REMSYN070AAXX  13124 03529 36362 /3005 10035 20022 40170 52008 555 83/08 91153;EQDQ01  00002PRCP06
0096035290999992000011313004+52150-002030FM-12+003299999V0203101N001519999999N0160001N1+00441+00211101671ADDMD1710021+9999REMSYN070AAXX  13134 03529 46966 /3103 10044 20021 40167 57002 555 80/99 91253;
0108035290999992000011314004+52150-002030FM-12+003299999V0203101N004619999999N0240001N1+00581+00231101651ADDMD1710041+9999REMSYN082AAXX  13144 03529 46474 /3109 10058 20023 40165 57004 555 82/19 82/23 81/29 91353;
0096035290999992000011315004+52150-002030FM-12+003299999V0203101N003619999999N0300001N1+00541+00131101661ADDMD1710041+9999REMSYN070AAXX  13154 03529 46980 /3107 10054 20013 40166 57004 555 80/99 91453;
0096035290999992000011316004+52150-002030FM-12+003299999V0203101N002119999999N0270001N1+00421+00131101701ADDMD1210031+9999REMSYN070AAXX  13164 03529 46977 /3104 10042 20013 40170 52003 555 80/99 91553;
0096035290999992000011317004+52150-002030FM-12+003299999V0209999C000019999999N0160001N1+00301+00001101741ADDMD1210091+9999REMSYN070AAXX  13174 03529 46566 /0000 10030 20000 40174 52009 555 81/25 91653;
0149035290999992000011318004+52150-002030FM-12+003299999V0202501N001519999999N0170001N1+00211-00031101751ADDAA106000091KA1120M+00601MD1210091+9999REMSYN080AAXX  13184 03529 36967 /2503 10021 21003 40175 52009 333 10060 555 80/99 91753;EQDQ01  00002PRCP06
0096035290999992000011319004+52150-002030FM-12+003299999V0209999C000019999999N0090001N1+00061-00051101811ADDMD1210111+9999REMSYN070AAXX  13194 03529 46959 /0000 10006 21005 40181 52011 555 80/99 91853;
0100035290999992000011320004+52150-002030FM-12+003299999V0209999C000019999999N0140001N1+00111-00021101861ADDMD1210121+9999REMSYN074    AAXX  13204 03529 46564 /0000 10011 21002 40186 52012 555 86/29 91953;
0100035290999992000011321004+52150-002030FM-12+003299999V0209999C000019999999N0035001N1+00111+00001101901ADDMD1210151+9999REMSYN074    AAXX  13214 03529 46535 /0000 10011 20000 40190 52015 555 88/28 92053;
0112035290999992000011322004+52150-002030FM-12+003299999V0209999C000019999999N0049001N1+00111+00021101971ADDMD1210161+9999REMSYN086    AAXX  13224 03529 46449 /0000 10011 20002 40197 52016 555 83/18 81/31 86/39 92153;
0106035290999992000011323004+52150-002030FM-12+003299999V0209999C000019999999N0080001N1+00081+00021102031ADDMD1210171+9999REMSYN080    AAXX  13234 03529 46658 /0000 10008 20002 40203 52017 555 86/38 84/50 92253;
0130035290999992000011400004+52150-002030FM-12+003299999V0209999C000019999999N0060001N1+00071-00011102081ADDAA199000091MD1210181+9999REMSYN074    AAXX  14004 03529 36756 /0000 10007 21001 40208 52018 555 86/50 92353;EQDQ01  00002PRCP99
0100035290999992000011401004+52150-002030FM-12+003299999V0209999C000019999999N0060001N1-00021-00071102111ADDMD1210141+9999REMSYN074    AAXX  14014 03529 46956 /0000 11002 21007 40211 52014 555 80/99 90053;
0100035290999992000011402004+52150-002030FM-12+003299999V0203201N004119999999N0080001N1+00051-00091102141ADDMD1210111+9999REMSYN074    AAXX  14024 03529 46958 /3208 10005 21009 40214 52011 555 80/99 90153;
0100035290999992000011403004+52150-002030FM-12+003299999V0203301N003119999999N0080001N1+00101-00031102191ADDMD1210111+9999REMSYN074    AAXX  14034 03529 46458 /3306 10010 21003 40219 52011 555 87/16 90253;
0100035290999992000011404004+52150-002030FM-12+003299999V0203301N003119999999N0060001N1+00131+00001102231ADDMD1210121+9999REMSYN074    AAXX  14044 03529 46456 /3306 10013 20000 40223 52012 555 87/11 90353;
0112035290999992000011405004+52150-002030FM-12+003299999V0203201N002619999999N0050001N1+00131+00021102281ADDMD1210141+9999REMSYN086    AAXX  14054 03529 46450 /3205 10013 20002 40228 52014 555 83/11 87/20 83/50 90453;
0165035290999992000011406004+52150-002030FM-12+003299999V0203201N004619999999N0060001N1+00151+00041102331ADDAA199000091KA1120N-00101MD1210141+9999REMSYN096    AAXX  14064 03529 36456 /3209 10015 20004 40233 52014 333 21010 555 86/13 81/34 81/47 90553;EQDQ01  00002PRCP99
0106035290999992000011407004+52150-002030FM-12+003299999V0203301N004119999999N0050001N1+00141+00031102371ADDMD1210141+9999REMSYN080    AAXX  14074 03529 46650 /3308 10014 20003 40237 52014 555 84/35 85/42 90653;
0100035290999992000011408004+52150-002030FM-12+003299999V0203301N003119999999N0060001N1+00101+00011102461ADDMD1210181+9999REMSYN074    AAXX  14084 03529 46756 /3306 10010 20001 40246 52018 555 81/50 90753;
0122035290999992000011409004+52150-002030FM-12+003299999V0203301N004119999999N0090001N1+00111+00021102521ADDIA2999-00409MD1210191+9999REMSYN084    AAXX  14094 03529 46559 /3308 10011 20002 40252 52019 333 3/104 555 81/26 90853;
0100035290999992000011410004+52150-002030FM-12+003299999V0203201N004119999999N0150001N1+00211+00041102601ADDMD1210231+9999REMSYN074    AAXX  14104 03529 46565 /3208 10021 20004 40260 52023 555 81/29 90953;
0100035290999992000011411004+52150-002030FM-12+003299999V0203201N005119999999N0170001N1+00351+00141102631ADDMD1210171+9999REMSYN074    AAXX  14114 03529 46567 /3210 10035 20014 40263 52017 555 83/26 91053;
0130035290999992000011412004+52150-002030FM-12+003299999V0203301N004619999999N0210001N1+00481+00151102631ADDAA199000091MD1210111+9999REMSYN074    AAXX  14124 03529 36571 /3309 10048 20015 40263 52011 555 84/24 91153;EQDQ01  00002PRCP99
0100035290999992000011413004+52150-002030FM-12+003299999V0203401N005119999999N0190001N1+00501+00111102601ADDMD1410001+9999REMSYN074    AAXX  14134 03529 46569 /3410 10050 20011 40260 54000 555 87/25 91253;
0100035290999992000011414004+52150-002030FM-12+003299999V0203301N004619999999N0240001N1+00511+00101102631ADDMD1410001+9999REMSYN074    AAXX  14144 03529 46574 /3309 10051 20010 40263 54000 555 88/27 91353;
0100035290999992000011415004+52150-002030FM-12+003299999V0203401N005119999999N0160001N1+00481+00171102661ADDMD1210031+9999REMSYN074    AAXX  14154 03529 46566 /3410 10048 20017 40266 52003 555 87/20 91453;
0106035290999992000011416004+52150-002030FM-12+003299999V0203301N004619999999N0150001N1+00411+00201102681ADDMD1210081+9999REMSYN080    AAXX  14164 03529 46465 /3309 10041 20020 40268 52008 555 87/19 83/36 91553;
0100035290999992000011417004+52150-002030FM-12+003299999V0203401N004619999999N0190001N1+00451+00171102721ADDMD1210091+9999REMSYN074    AAXX  14174 03529 46569 /3409 10045 20017 40272 52009 555 87/23 91653;
0152035290999992000011418004+52150-002030FM-12+003299999V0203301N005719999999N0180001N1+00441+00181102821ADDAA112000191KA1120M+00511MD1210161+9999REMSYN102    AAXX  14184 03529 16568 /3311 10044 20018 40282 52016 69922 333 10051 555 81/20 86/26 83/44 91753;
0100035290999992000011419004+52150-002030FM-12+003299999V0203301N004619999999N0140001N1+00421+00211102901ADDMD1210221+9999REMSYN074    AAXX  14194 03529 46464 /3309 10042 20021 40290 52022 555 87/19 91853;
0106035290999992000011420004+52150-002030FM-12+003299999V0203301N005719999999N0090001N1+00401+00221102941ADDMD1210221+9999REMSYN080    AAXX  14204 03529 46459 /3311 10040 20022 40294 52022 555 85/17 85/25 91953;
0106035290999992000011421004+52150-002030FM-12+003299999V0203301N004619999999N0110001N1+00391+00261103021ADDMD1210201+9999REMSYN080    AAXX  14214 03529 46461 /3309 10039 20026 40302 52020 555 87/18 83/49 92053;
0106035290999992000011422004+52150-002030FM-12+003299999V0203301N005119999999N0130001N1+00421+00241103101ADDMD1210201+9999REMSYN080    AAXX  14224 03529 46463 /3310 10042 20024 40310 52020 555 87/19 83/29 92153;
0106035290999992000011423004+52150-002030FM-12+003299999V0203501N005719999999N0140001N1+00451+00171103161ADDMD1210221+9999REMSYN080    AAXX  14234 03529 46464 /3511 10045 20017 40316 52022 555 87/19 86/27 92253;
0130035290999992000011500004+52150-002030FM-12+003299999V0203501N006219999999N0120001N1+00441+00181103161ADDAA199000091MD1210141+9999REMSYN074    AAXX  15004 03529 36462 /3512 10044 20018 40316 52014 555 88/18 92353;EQDQ01  00002PRCP99
0106035290999992000011501004+52150-002030FM-12+003299999V0203501N005719999999N0130001N1+00441+00181103181ADDMD1210081+9999REMSYN080    AAXX  15014 03529 46463 /3511 10044 20018 40318 52008 555 87/16 87/33 90053;
0106035290999992000011502004+52150-002030FM-12+003299999V0200101N006219999999N0130001N1+00461+00151103241ADDMD1210081+9999REMSYN080    AAXX  15024 03529 46463 /0112 10046 20015 40324 52008 555 87/16 84/46 90153;
0106035290999992000011503004+52150-002030FM-12+003299999V0200101N006219999999N0100001N1+00441+00181103321ADDMD1210161+9999REMSYN080    AAXX  15034 03529 46460 /0112 10044 20018 40332 52016 555 87/15 82/26 90253;
0100035290999992000011504004+52150-002030FM-12+003299999V0200201N005119999999N0060001N1+00461+00231103361ADDMD1210181+9999REMSYN074    AAXX  15044 03529 46456 /0210 10046 20023 40336 52018 555 87/13 90353;
0112035290999992000011505004+52150-002030FM-12+003299999V0200201N006219999999N0080001N1+00471+00191103431ADDMD1210191+9999REMSYN086    AAXX  15054 03529 46458 /0212 10047 20019 40343 52019 555 81/17 85/34 85/56 90453;
0165035290999992000011506004+52150-002030FM-12+003299999V0200201N005119999999N0060001N1+00471+00221103491ADDAA199000091KA1120N+00381MD1210171+9999REMSYN096    AAXX  15064 03529 36456 /0210 10047 20022 40349 52017 333 20038 555 81/14 82/35 86/50 90553;EQDQ01  00002PRCP99
0112035290999992000011507004+52150-002030FM-12+003299999V0200201N005119999999N0070001N1+00481+00231103591ADDMD1210231+9999REMSYN086    AAXX  15074 03529 46457 /0210 10048 20023 40359 52023 555 81/14 81/17 87/50 90653;
0106035290999992000011508004+52150-002030FM-12+003299999V0200301N004119999999N0080001N1+00471+00191103711ADDMD1210281+9999REMSYN080    AAXX  15084 03529 46458 /0308 10047 20019 40371 52028 555 82/17 88/50 90753;
0122035290999992000011509004+52150-002030FM-12+003299999V0200201N004619999999N0090001N1+00451+00141103821ADDIA2999+00309MD1210331+9999REMSYN084    AAXX  15094 03529 46759 /0209 10045 20014 40382 52033 333 3/003 555 88/50 90853;
0100035290999992000011510004+52150-002030FM-12+003299999V0200201N004619999999N0090001N1+00471+00191103891ADDMD1210301+9999REMSYN074    AAXX  15104 03529 46759 /0209 10047 20019 40389 52030 555 87/50 90953;
0100035290999992000011511004+52150-002030FM-12+003299999V0200301N005119999999N0100001N1+00491+00131103961ADDMD1210251+9999REMSYN074    AAXX  15114 03529 46660 /0310 10049 20013 40396 52025 555 87/44 91053;
0130035290999992000011512004+52150-002030FM-12+003299999V0200301N004619999999N0110001N1+00521+00161103991ADDAA199000091MD1210171+9999REMSYN074    AAXX  15124 03529 36661 /0309 10052 20016 40399 52017 555 88/48 91153;EQDQ01  00002PRCP99
0106035290999992000011513004+52150-002030FM-12+003299999V0200301N005719999999N0160001N1+00541+00101104011ADDMD1210121+9999REMSYN080    AAXX  15134 03529 46566 /0311 10054 20010 40401 52012 555 81/21 87/49 91253;
0112035290999992000011514004+52150-002030FM-12+003299999V0200401N004119999999N0200001N1+00651+00181104031ADDMD1210071+9999REMSYN086    AAXX  15144 03529 46470 /0408 10065 20018 40403 52007 555 84/18 83/29 81/50 91353;
0112035290999992000011515004+52150-002030FM-12+003299999V0200201N004619999999N0210001N1+00511+00101104081ADDMD1210091+9999REMSYN086    AAXX  15154 03529 46471 /0209 10051 20010 40408 52009 555 81/19 81/22 85/43 91453;
0100035290999992000011516004+52150-002030FM-12+003299999V0200301N003119999999N0250001N1+00441+00041104101ADDMD1210091+9999REMSYN074    AAXX  15164 03529 46675 /0306 10044 20004 40410 52009 555 83/45 91553;
0100035290999992000011517004+52150-002030FM-12+003299999V0200201N002619999999N0280001N1+00301+00001104171ADDMD1210141+9999REMSYN074    AAXX  15174 03529 46678 /0205 10030 20000 40417 52014 555 82/43 91653;
0153035290999992000011518004+52150-002030FM-12+003299999V0200101N002619999999N0140001N1+00351+00081104191ADDAA199000091KA1120M+00651MD1210111+9999REMSYN084    AAXX  15184 03529 36664 /0105 10035 20008 40419 52011 333 10065 555 87/43 91753;EQDQ01  00002PRCP99
0100035290999992000011519004+52150-002030FM-12+003299999V0200101N002619999999N0150001N1+00321+00081104231ADDMD1210131+9999REMSYN074    AAXX  15194 03529 46665 /0105 10032 20008 40423 52013 555 83/44 91853;
0100035290999992000011520004+52150-002030FM-12+003299999V0200101N002619999999N0120001N1+00201+00031104221ADDMD1210051+9999REMSYN074    AAXX  15204 03529 46662 /0105 10020 20003 40422 52005 555 81/42 91953;
0100035290999992000011521004+52150-002030FM-12+003299999V0200101N001519999999N0100001N1+00111-00021104211ADDMD1210021+9999REMSYN074    AAXX  15214 03529 46960 /0103 10011 21002 40421 52002 555 80/99 92053;
0100035290999992000011522004+52150-002030FM-12+003299999V0203401N000519999999N0090001N1+00011-00101104271ADDMD1210041+9999REMSYN074    AAXX  15224 03529 46959 /3401 10001 21010 40427 52004 555 80/99 92153;
0100035290999992000011523004+52150-002030FM-12+003299999V0209999C000019999999N0090001N1-00031-00141104251ADDMD1210031+9999REMSYN074    AAXX  15234 03529 46959 /0000 11003 21014 40425 52003 555 81/72 92253;
0130035290999992000011600004+52150-002030FM-12+003299999V0209999C000019999999N0080001N1-00061-00141104241ADDAA199000091MD1210031+9999REMSYN074    AAXX  16004 03529 36958 /0000 11006 21014 40424 52003 555 81/70 92353;EQDQ01  00002PRCP99
0106035290999992000011601004+52150-002030FM-12+003299999V0209999C000019999999N0049001N1-00191-00281104341ADDMD1210071+9999REMSYN080    AAXX  16014 03529 46649 /0000 11019 21028 40434 52007 555 81/35 82/67 90053;
0100035290999992000011602004+52150-002030FM-12+003299999V0209999C000019999999N0060001N1-00091-00171104271ADDMD1210021+9999REMSYN074    AAXX  16024 03529 46656 /0000 11009 21017 40427 52002 555 87/34 90153;
0100035290999992000011603004+52150-002030FM-12+003299999V0209999C000019999999N0060001N1-00051-00131104261ADDMD1210021+9999REMSYN074    AAXX  16034 03529 46656 /0000 11005 21013 40426 52002 555 88/34 90253;
0100035290999992000011604004+52150-002030FM-12+003299999V0209999C000019999999N0050001N1-00091-00141104251ADDMD1710091+9999REMSYN074    AAXX  16044 03529 46650 /0000 11009 21014 40425 57009 555 84/34 90353;
0100035290999992000011605004+52150-002030FM-12+003299999V0209999C000019999999N0048001N1-00141-00231104271ADDMD1410001+9999REMSYN074    AAXX  16054 03529 46948 /0000 11014 21023 40427 54000 555 80/99 90453;
0153035290999992000011606004+52150-002030FM-12+003299999V0209999C000019999999N0040001N1-00181-00241104251ADDAA199000091KA1120N-00191MD1710011+9999REMSYN084    AAXX  16064 03529 36940 /0000 11018 21024 40425 57001 333 21019 555 80/99 90553;EQDQ01  00002PRCP99
0100035290999992000011607004+52150-002030FM-12+003299999V0209999C000019999999N0050001N1-00151-00241104251ADDMD1410001+9999REMSYN074    AAXX  16074 03529 46550 /0000 11015 21024 40425 54000 555 86/20 90653;
0100035290999992000011608004+52150-002030FM-12+003299999V0209999C000019999999N0046001N1-00111-00161104251ADDMD1710021+9999REMSYN074    AAXX  16084 03529 46546 /0000 11011 21016 40425 57002 555 88/20 90753;
0122035290999992000011609004+52150-002030FM-12+003299999V0209999C000019999999N0033001N1-00051-00101104231ADDIA2999-00409MD1710021+9999REMSYN084    AAXX  16094 03529 46533 /0000 11005 21010 40423 57002 333 3/104 555 88/21 90853;
0100035290999992000011610004+52150-002030FM-12+003299999V0209999C000019999999N0038001N1+00021-00031104271ADDMD1210021+9999REMSYN074    AAXX  16104 03529 46538 /0000 10002 21003 40427 52002 555 88/21 90953;
0100035290999992000011611004+52150-002030FM-12+003299999V0209999C000019999999N0040001N1+00131+00021104291ADDMD1210041+9999REMSYN074    AAXX  16114 03529 46540 /0000 10013 20002 40429 52004 555 88/21 91053;
0130035290999992000011612004+52150-002030FM-12+003299999V0209999C000019999999N0049001N1+00241+00081104261ADDAA199000091MD1210031+9999REMSYN074    AAXX  16124 03529 36549 /0000 10024 20008 40426 52003 555 88/21 91153;EQDQ01  00002PRCP99
0100035290999992000011613004+52150-002030FM-12+003299999V0209999C000019999999N0070001N1+00411+00121104171ADDMD1710101+9999REMSYN074    AAXX  16134 03529 46557 /0000 10041 20012 40417 57010 555 87/20 91253;
0100035290999992000011614004+52150-002030FM-12+003299999V0202601N000519999999N0070001N1+00441+00181104121ADDMD1710171+9999REMSYN074    AAXX  16144 03529 46457 /2601 10044 20018 40412 57017 555 87/19 91353;
0100035290999992000011615004+52150-002030FM-12+003299999V0209999C000019999999N0080001N1+00431+00171104091ADDMD1710171+9999REMSYN074    AAXX  16154 03529 46458 /0000 10043 20017 40409 57017 555 84/19 91453;
0100035290999992000011616004+52150-002030FM-12+003299999V0203501N001019999999N0110001N1+00381+00201104071ADDMD1710101+9999REMSYN074    AAXX  16164 03529 46461 /3502 10038 20020 40407 57010 555 85/18 91553;
0100035290999992000011617004+52150-002030FM-12+003299999V0209999C000019999999N0070001N1+00331+00171104071ADDMD1710051+9999REMSYN074    AAXX  16174 03529 46457 /0000 10033 20017 40407 57005 555 87/17 91653;
0153035290999992000011618004+52150-002030FM-12+003299999V0209999C000019999999N0060001N1+00311+00181104111ADDAA199000091KA1120M+00471MD1210021+9999REMSYN084    AAXX  16184 03529 36456 /0000 10031 20018 40411 52002 333 10047 555 88/15 91753;EQDQ01  00002PRCP99
0100035290999992000011619004+52150-002030FM-12+003299999V0209999C000019999999N0070001N1+00401+00221104081ADDMD1210011+9999REMSYN074    AAXX  16194 03529 46457 /0000 10040 20022 40408 52001 555 88/12 91853;
0100035290999992000011620004+52150-002030FM-12+003299999V0209999C000019999999N0049001N1+00371+00241104101ADDMD1210031+9999REMSYN074    AAXX  16204 03529 46449 /0000 10037 20024 40410 52003 555 88/10 91953;
0100035290999992000011621004+52150-002030FM-12+003299999V0203301N004119999999N0070001N1+00491+00341104091ADDMD1710021+9999REMSYN074    AAXX  16214 03529 46357 /3308 10049 20034 40409 57002 555 87/07 92053;
0100035290999992000011622004+52150-002030FM-12+003299999V0203301N003119999999N0080001N1+00481+00351104061ADDMD1710021+9999REMSYN074    AAXX  16224 03529 46358 /3306 10048 20035 40406 57002 555 88/07 92153;
0100035290999992000011623004+52150-002030FM-12+003299999V0203201N002619999999N0050001N1+00501+00381104081ADDMD1710021+9999REMSYN074    AAXX  16234 03529 46350 /3205 10050 20038 40408 57002 555 88/07 92253;
0130035290999992000011700004+52150-002030FM-12+003299999V0203201N004119999999N0080001N1+00541+00391104081ADDAA199000091MD1710011+9999REMSYN074    AAXX  17004 03529 36358 /3208 10054 20039 40408 57001 555 88/08 92353;EQDQ01  00002PRCP99
0100035290999992000011701004+52150-002030FM-12+003299999V0203201N002619999999N0100001N1+00551+00381104071ADDMD1210011+9999REMSYN074    AAXX  17014 03529 46360 /3205 10055 20038 40407 52001 555 88/08 90053;
0100035290999992000011702004+52150-002030FM-12+003299999V0202901N002619999999N0090001N1+00541+00391104001ADDMD1710081+9999REMSYN074    AAXX  17024 03529 46359 /2905 10054 20039 40400 57008 555 88/09 90153;
0100035290999992000011703004+52150-002030FM-12+003299999V0203001N003119999999N0070001N1+00561+00391104001ADDMD1710081+9999REMSYN074    AAXX  17034 03529 46357 /3006 10056 20039 40400 57008 555 88/09 90253;
0100035290999992000011704004+52150-002030FM-12+003299999V0203101N004119999999N0050001N1+00571+00421104001ADDMD1710071+9999REMSYN074    AAXX  17044 03529 46350 /3108 10057 20042 40400 57007 555 88/08 90353;
0100035290999992000011705004+52150-002030FM-12+003299999V0203001N002619999999N0060001N1+00561+00411103961ADDMD1710041+9999REMSYN074    AAXX  17054 03529 46356 /3005 10056 20041 40396 57004 555 88/08 90453;
0153035290999992000011706004+52150-002030FM-12+003299999V0203001N003119999999N0070001N1+00551+00401103941ADDAA199000091KA1120N+00311MD1710061+9999REMSYN084    AAXX  17064 03529 36357 /3006 10055 20040 40394 57006 333 20031 555 88/08 90553;EQDQ01  00002PRCP99
0100035290999992000011707004+52150-002030FM-12+003299999V0203001N004619999999N0050001N1+00551+00401103941ADDMD1710061+9999REMSYN074    AAXX  17074 03529 46350 /3009 10055 20040 40394 57006 555 88/08 90653;
0100035290999992000011708004+52150-002030FM-12+003299999V0203001N004619999999N0060001N1+00531+00381103941ADDMD1710021+9999REMSYN074    AAXX  17084 03529 46356 /3009 10053 20038 40394 57002 555 88/07 90753;
0122035290999992000011709004+52150-002030FM-12+003299999V0202901N004119999999N0080001N1+00531+00361103971ADDIA2999+00409MD1210031+9999REMSYN084    AAXX  17094 03529 46358 /2908 10053 20036 40397 52003 333 3/004 555 88/09 90853;
0100035290999992000011710004+52150-002030FM-12+003299999V0202801N004119999999N0160001N1+00561+00361103961ADDMD1210021+9999REMSYN074    AAXX  17104 03529 46466 /2808 10056 20036 40396 52002 555 88/10 90953;
0100035290999992000011711004+52150-002030FM-12+003299999V0203101N005119999999N0140001N1+00651+00441103981ADDMD1210041+9999REMSYN074    AAXX  17114 03529 46464 /3110 10065 20044 40398 52004 555 88/11 91053;
0130035290999992000011712004+52150-002030FM-12+003299999V0203301N005719999999N0110001N1+00681+00441103981ADDAA199000091MD1210011+9999REMSYN074    AAXX  17124 03529 36461 /3311 10068 20044 40398 52001 555 88/11 91153;EQDQ01  00002PRCP99
0100035290999992000011713004+52150-002030FM-12+003299999V0203201N005119999999N0140001N1+00711+00481103901ADDMD1710061+9999REMSYN074    AAXX  17134 03529 46464 /3210 10071 20048 40390 57006 555 88/11 91253;
0100035290999992000011714004+52150-002030FM-12+003299999V0203301N004119999999N0120001N1+00721+00691103861ADDMD1710121+9999REMSYN074    AAXX  17144 03529 46462 /3308 10072 20069 40386 57012 555 88/11 91353;
0100035290999992000011715004+52150-002030FM-12+003299999V0203301N004119999999N0150001N1+00731+00501103821ADDMD1710161+9999REMSYN074    AAXX  17154 03529 46465 /3308 10073 20050 40382 57016 555 88/12 91453;
0100035290999992000011717004+52150-002030FM-12+003299999V0203301N003619999999N0070001N1+00621+00401103831ADDMD1210011+9999REMSYN074    AAXX  17174 03529 46457 /3307 10062 20040 40383 52001 555 88/11 91653;
0140035290999992000011718004+52150-002030FM-12+003299999V0203301N003619999999N0100001N1+00641+00431103821ADDAA112003091KA1120M+00741MD1210011+9999REMSYN090    AAXX  17184 03529 16460 /3307 10064 20043 40382 52001 60032 333 10074 555 88/11 91753;
0100035290999992000011719004+52150-002030FM-12+003299999V0203501N004119999999N0080001N1+00601+00381103881ADDMD1210061+9999REMSYN074    AAXX  17194 03529 46458 /3508 10060 20038 40388 52006 555 88/11 91853;
0100035290999992000011720004+52150-002030FM-12+003299999V0203301N002619999999N0090001N1+00581+00411103841ADDMD1210011+9999REMSYN074    AAXX  17204 03529 46459 /3305 10058 20041 40384 52001 555 88/12 91953;
0100035290999992000011721004+52150-002030FM-12+003299999V0203301N002119999999N0070001N1+00551+00401103851ADDMD1210031+9999REMSYN074    AAXX  17214 03529 46457 /3304 10055 20040 40385 52003 555 88/12 92053;
0100035290999992000011722004+52150-002030FM-12+003299999V0209999C000019999999N0070001N1+00541+00371103841ADDMD1710041+9999REMSYN074    AAXX  17224 03529 46457 /0000 10054 20037 40384 57004 555 88/13 92153;
0100035290999992000011723004+52150-002030FM-12+003299999V0209999C000019999999N0060001N1+00471+00321103841ADDMD1410001+9999REMSYN074    AAXX  17234 03529 46456 /0000 10047 20032 40384 54000 555 85/14 92253;
0130035290999992000011800004+52150-002030FM-12+003299999V0209999C000019999999N0070001N1+00421+00341103791ADDAA199000091MD1710061+9999REMSYN074    AAXX  18004 03529 36957 /0000 10042 20034 40379 57006 555 80/99 92353;EQDQ01  00002PRCP99
0100035290999992000011801004+52150-002030FM-12+003299999V0209999C000019999999N0050001N1+00291+00211103751ADDMD1710091+9999REMSYN074    AAXX  18014 03529 46950 /0000 10029 20021 40375 57009 555 80/99 90053;
0100035290999992000011802004+52150-002030FM-12+003299999V0202701N002619999999N0060001N1+00301+00221103781ADDMD1710061+9999REMSYN074    AAXX  18024 03529 46956 /2705 10030 20022 40378 57006 555 80/99 90153;
0100035290999992000011803004+52150-002030FM-12+003299999V0202901N003119999999N0046001N1+00321+00261103721ADDMD1710071+9999REMSYN074    AAXX  18034 03529 46346 /2906 10032 20026 40372 57007 555 87/06 90253;
0100035290999992000011804004+52150-002030FM-12+003299999V0209999C000019999999N0028001N1+00321+00261103661ADDMD1710091+9999REMSYN074    AAXX  18044 03529 46328 /0000 10032 20026 40366 57009 555 83/06 90353;
0100035290999992000011805004+52150-002030FM-12+003299999V0203001N002619999999N0041001N1+00391+00311103691ADDMD1710091+9999REMSYN074    AAXX  18054 03529 46241 /3005 10039 20031 40369 57009 555 87/05 90453;
0153035290999992000011806004+52150-002030FM-12+003299999V0203301N004119999999N0050001N1+00441+00361103671ADDAA199000091KA1120N+00241MD1710051+9999REMSYN084    AAXX  18064 03529 36250 /3308 10044 20036 40367 57005 333 20024 555 88/04 90553;EQDQ01  00002PRCP99
0100035290999992000011807004+52150-002030FM-12+003299999V0203301N004619999999N0050001N1+00481+00401103641ADDMD1710021+9999REMSYN074    AAXX  18074 03529 46250 /3309 10048 20040 40364 57002 555 88/03 90653;
0100035290999992000011808004+52150-002030FM-12+003299999V0203301N003619999999N0050001N1+00541+00471103691ADDMD1410001+9999REMSYN074    AAXX  18084 03529 46150 /3307 10054 20047 40369 54000 555 88/02 90753;
0122035290999992000011809004+52150-002030FM-12+003299999V0203401N005119999999N0070001N1+00581+00531103731ADDIA2999-00109MD1210061+9999REMSYN084    AAXX  18094 03529 46157 /3410 10058 20053 40373 52006 333 3/101 555 88/02 90853;
0100035290999992000011810004+52150-002030FM-12+003299999V0203401N004619999999N0100001N1+00621+00551103761ADDMD1210121+9999REMSYN074    AAXX  18104 03529 46260 /3409 10062 20055 40376 52012 555 88/03 90953;
0100035290999992000011811004+52150-002030FM-12+003299999V0203401N005119999999N0110001N1+00651+00531103761ADDMD1210071+9999REMSYN074    AAXX  18114 03529 46261 /3410 10065 20053 40376 52007 555 88/04 91053;
0130035290999992000011812004+52150-002030FM-12+003299999V0203401N005119999999N0120001N1+00651+00561103781ADDAA199000091MD1210051+9999REMSYN074    AAXX  18124 03529 36262 /3410 10065 20056 40378 52005 555 88/03 91153;EQDQ01  00002PRCP99
0100035290999992000011813004+52150-002030FM-12+003299999V0203301N004619999999N0110001N1+00671+00551103761ADDMD1410001+9999REMSYN074    AAXX  18134 03529 46261 /3309 10067 20055 40376 54000 555 88/05 91253;
0100035290999992000011814004+52150-002030FM-12+003299999V0203301N004619999999N0120001N1+00681+00541103731ADDMD1710031+9999REMSYN074    AAXX  18144 03529 46262 /3309 10068 20054 40373 57003 555 88/04 91353;
0100035290999992000011815004+52150-002030FM-12+003299999V0203301N004619999999N0080001N1+00671+00551103681ADDMD1710101+9999REMSYN074    AAXX  18154 03529 46258 /3309 10067 20055 40368 57010 555 88/05 91453;
0100035290999992000011816004+52150-002030FM-12+003299999V0203301N003619999999N0080001N1+00671+00551103711ADDMD1710051+9999REMSYN074    AAXX  18164 03529 46358 /3307 10067 20055 40371 57005 555 88/06 91553;
0100035290999992000011817004+52150-002030FM-12+003299999V0203301N004619999999N0070001N1+00621+00501103731ADDMD1410001+9999REMSYN074    AAXX  18174 03529 46257 /3309 10062 20050 40373 54000 555 88/05 91653;
0159035290999992000011818004+52150-002030FM-12+003299999V0203401N003619999999N0043001N1+00611+00491103741ADDAA199000091KA1120M+00701MD1210061+9999REMSYN090    AAXX  18184 03529 36243 /3407 10061 20049 40374 52006 333 10070 555 85/05 88/25 91753;EQDQ01  00002PRCP99
0106035290999992000011819004+52150-002030FM-12+003299999V0203401N003619999999N0037001N1+00611+00511103731ADDMD1210021+9999REMSYN080    AAXX  18194 03529 46237 /3407 10061 20051 40373 52002 555 81/05 88/24 91853;
0106035290999992000011820004+52150-002030FM-12+003299999V0203301N004119999999N0033001N1+00611+00511103761ADDMD1210031+9999REMSYN080    AAXX  18204 03529 46233 /3308 10061 20051 40376 52003 555 85/04 87/25 91953;
0106035290999992000011821004+52150-002030FM-12+003299999V0203301N004119999999N0031001N1+00591+00491103781ADDMD1210041+9999REMSYN080    AAXX  18214 03529 46231 /3308 10059 20049 40378 52004 555 81/05 88/25 92053;
0106035290999992000011822004+52150-002030FM-12+003299999V0203301N003619999999N0032001N1+00581+00461103771ADDMD1210041+9999REMSYN080    AAXX  18224 03529 46532 /3307 10058 20046 40377 52004 555 81/20 87/24 92153;
0099035290999992000011823004+52150-002030FM-12+003299999V0203401N003619999999N0026001N1+00571+00471103791ADDMD1210031+9999REMSYN073    AAXX  18234 03529 46526 /3407 10057 20047 40379 52003 555 88/25 2253;
0130035290999992000011900004+52150-002030FM-12+003299999V0203201N003119999999N0024001N1+00561+00461103791ADDAA199000091MD1210011+9999REMSYN074    AAXX  19004 03529 36524 /3206 10056 20046 40379 52001 555 88/25 92353;EQDQ01  00002PRCP99
0100035290999992000011901004+52150-002030FM-12+003299999V0209999C000019999999N0024001N1+00541+00471103801ADDMD1210031+9999REMSYN074    AAXX  19014 03529 46524 /0000 10054 20047 40380 52003 555 88/26 90053;
0112035290999992000011902004+52150-002030FM-12+003299999V0209999C000019999999N0025001N1+00541+00471103751ADDMD1710041+9999REMSYN086    AAXX  19024 03529 46225 /0000 10054 20047 40375 57004 555 81/05 82/27 88/33 90153;
0106035290999992000011903004+52150-002030FM-12+003299999V0209999C000019999999N0028001N1+00521+00441103781ADDMD1710011+9999REMSYN080    AAXX  19034 03529 46228 /0000 10052 20044 40378 57001 555 82/05 88/35 90253;
0106035290999992000011904004+52150-002030FM-12+003299999V0209999C000019999999N0028001N1+00511+00431103761ADDMD1710041+9999REMSYN080    AAXX  19044 03529 46328 /0000 10051 20043 40376 57004 555 81/06 88/37 90353;
0099035290999992000011905004+52150-002030FM-12+003299999V0209999C000019999999N0027001N1+00511+00431103761ADDMD1210011+9999REMSYN073    AAXX  19054 03529 46627 /0000 10051 20043 40376 52001 555 8/38 90453;
0159035290999992000011906004+52150-002030FM-12+003299999V0203301N003119999999N0032001N1+00541+00421103791ADDAA199000091KA1120N+00501MD1210011+9999REMSYN090    AAXX  19064 03529 36332 /3306 10054 20042 40379 52001 333 20050 555 82/07 87/38 90553;EQDQ01  00002PRCP99
0106035290999992000011908004+52150-002030FM-12+003299999V0203301N003619999999N0034001N1+00551+00451103801ADDMD1210041+9999REMSYN080    AAXX  19084 03529 46334 /3307 10055 20045 40380 52004 555 82/06 88/39 90753;
0128035290999992000011909004+52150-002030FM-12+003299999V0203401N003619999999N0037001N1+00571+00451103821ADDIA2999+00409MD1210031+9999REMSYN090    AAXX  19094 03529 46337 /3407 10057 20045 40382 52003 333 3/004 555 85/07 87/39 90853;
0106035290999992000011910004+52150-002030FM-12+003299999V0203301N003619999999N0041001N1+00591+00471103881ADDMD1210101+9999REMSYN080    AAXX  19104 03529 46341 /3307 10059 20047 40388 52010 555 83/08 87/38 90953;
0100035290999992000011911004+52150-002030FM-12+003299999V0203201N003619999999N0046001N1+00641+00501103911ADDMD1210111+9999REMSYN074    AAXX  19114 03529 46646 /3207 10064 20050 40391 52011 555 88/37 91053;
0136035290999992000011912004+52150-002030FM-12+003299999V0203401N003619999999N0060001N1+00741+00461103881ADDAA199000091MD1210061+9999REMSYN080    AAXX  19124 03529 36456 /3407 10074 20046 40388 52006 555 81/10 86/37 91153;EQDQ01  00002PRCP99
0100035290999992000011913004+52150-002030FM-12+003299999V0203301N004119999999N0070001N1+00691+00411103851ADDMD1710031+9999REMSYN074    AAXX  19134 03529 46557 /3308 10069 20041 40385 57003 555 87/28 91253;
0100035290999992000011915004+52150-002030FM-12+003299999V0209999C000019999999N0200001N1+00721+00291103901ADDMD1210021+9999REMSYN074    AAXX  19154 03529 46670 /0000 10072 20029 40390 52002 555 87/32 91453;
0096035290999992000011916004+52150-002030FM-12+003299999V0200101N001019999999N0170001N1+00681+00181103881ADDMD1210031+9999REMSYN070AAXX  19164 03529 46667 /0102 10068 20018 40388 52003 555 88/33 91553;
0096035290999992000011917004+52150-002030FM-12+003299999V0209999C000019999999N0170001N1+00641+00161103901ADDMD1210021+9999REMSYN070AAXX  19174 03529 46667 /0000 10064 20016 40390 52002 555 88/32 91653;
0155035290999992000011918004+52150-002030FM-12+003299999V0209999C000019999999N0100001N1+00551+00201103911ADDAA199000091KA1120M+00791MD1210011+9999REMSYN086AAXX  19184 03529 36560 /0000 10055 20020 40391 52001 333 10079 555 81/26 88/31 91753;EQDQ01  00002PRCP99
0096035290999992000011919004+52150-002030FM-12+003299999V0209999C000019999999N0090001N1+00361+00151103931ADDMD1210051+9999REMSYN070AAXX  19194 03529 46659 /0000 10036 20015 40393 52005 555 84/32 91853;
0096035290999992000011920004+52150-002030FM-12+003299999V0209999C000019999999N0048001N1+00181+00101103911ADDMD1210011+9999REMSYN070AAXX  19204 03529 46948 /0000 10018 20010 40391 52001 555 80/99 91953;
0096035290999992000011921004+52150-002030FM-12+003299999V0209999C000019999999N0029001N1+00041-00071103911ADDMD1410001+9999REMSYN070AAXX  19214 03529 46929 /0000 10004 21007 40391 54000 555 80/99 92053;
0096035290999992000011922004+52150-002030FM-12+003299999V0209999C000019999999N0020001N1-00061-00141103931ADDMD1410001+9999REMSYN070AAXX  19224 03529 46920 /0000 11006 21014 40393 54000 555 80/99 92153;
0096035290999992000011923004+52150-002030FM-12+003299999V0209999C000019999999N0009001N1-00091-00141103911ADDMD1410001+9999REMSYN070AAXX  19234 03529 46609 /0000 11009 21014 40391 54000 555 86/30 92253;
0132035290999992000012000004+52150-002030FM-12+003299999V0209999C000019999999N0027001N1+00011-00071103881ADDAA199000091MD1710031+9999REMSYN076AAXX  20004 03529 36527 /0000 10001 21007 40388 57003 555 81/26 87/30 92353;EQDQ01  00002PRCP99
0096035290999992000012001004+52150-002030FM-12+003299999V0209999C000019999999N0031001N1+00101+00071103851ADDMD1710081+9999REMSYN070AAXX  20014 03529 46631 /0000 10010 20007 40385 57008 555 88/33 90053;
0096035290999992000012002004+52150-002030FM-12+003299999V0209999C000019999999N0020001N1+00101+00041103801ADDMD1710111+9999REMSYN070AAXX  20024 03529 46620 /0000 10010 20004 40380 57011 555 88/32 90153;
0096035290999992000012003004+52150-002030FM-12+003299999V0209999C000019999999N0032001N1+00131+00071103731ADDMD1710151+9999REMSYN070AAXX  20034 03529 46632 /0000 10013 20007 40373 57015 555 88/31 90253;
0096035290999992000012004004+52150-002030FM-12+003299999V0209999C000019999999N0039001N1+00261+00181103681ADDMD1710171+9999REMSYN070AAXX  20044 03529 46639 /0000 10026 20018 40368 57017 555 88/30 90353;
0096035290999992000012005004+52150-002030FM-12+003299999V0209999C000019999999N0044001N1+00281+00201103611ADDMD1710191+9999REMSYN070AAXX  20054 03529 46544 /0000 10028 20020 40361 57019 555 88/29 90453;
0149035290999992000012006004+52150-002030FM-12+003299999V0209999C000019999999N0042001N1+00281+00201103561ADDAA199000091KA1120N-00111MD1710171+9999REMSYN080AAXX  20064 03529 36542 /0000 10028 20020 40356 57017 333 21011 555 88/27 90553;EQDQ01  00002PRCP99
0096035290999992000012007004+52150-002030FM-12+003299999V0202201N002619999999N0050001N1+00351+00191103511ADDMD1710171+9999REMSYN070AAXX  20074 03529 46550 /2205 10035 20019 40351 57017 555 88/28 90653;
0096035290999992000012008004+52150-002030FM-12+003299999V0202301N002119999999N0060001N1+00401+00171103491ADDMD1710121+9999REMSYN070AAXX  20084 03529 46556 /2304 10040 20017 40349 57012 555 88/28 90753;
0117035290999992000012009004+52150-002030FM-12+003299999V0202301N002619999999N0050001N1+00401+00191103451ADDIA2999-00309MD1710111+9999REMSYN079AAXX  20094 03529 46550 /2305 10040 20019 40345 57011 333 3/103 555 8826 90853;
0096035290999992000012010004+52150-002030FM-12+003299999V0202201N002119999999N0060001N1+00421+00241103461ADDMD1710051+9999REMSYN070AAXX  20104 03529 46556 /2204 10042 20024 40346 57005 555 88/25 90953;
0096035290999992000012011004+52150-002030FM-12+003299999V0202501N002119999999N0070001N1+00481+00251103491ADDMD1410001+9999REMSYN070AAXX  20114 03529 46557 /2504 10048 20025 40349 54000 555 88/24 91053;
0126035290999992000012012004+52150-002030FM-12+003299999V0202801N002619999999N0060001N1+00501+00271103461ADDAA199000091MD1210011+9999REMSYN070AAXX  20124 03529 36556 /2805 10050 20027 40346 52001 555 88/23 91153;EQDQ01  00002PRCP99
0096035290999992000012013004+52150-002030FM-12+003299999V0203201N002619999999N0080001N1+00511+00181103411ADDMD1710051+9999REMSYN070AAXX  20134 03529 46558 /3205 10051 20018 40341 57005 555 88/24 91253;
0096035290999992000012014004+52150-002030FM-12+003299999V0203001N001519999999N0070001N1+00501+00251103391ADDMD1710101+9999REMSYN070AAXX  20144 03529 46557 /3003 10050 20025 40339 57010 555 88/25 91353;
0096035290999992000012015004+52150-002030FM-12+003299999V0203101N002119999999N0070001N1+00461+00181103341ADDMD1710121+9999REMSYN070AAXX  20154 03529 46557 /3104 10046 20018 40334 57012 555 88/26 91453;
0102035290999992000012016004+52150-002030FM-12+003299999V0202901N002119999999N0080001N1+00381+00121103341ADDMD1710071+9999REMSYN076AAXX  20164 03529 46558 /2904 10038 20012 40334 57007 555 82/29 82/33 91553;
0096035290999992000012017004+52150-002030FM-12+003299999V0209999C000019999999N0090001N1+00331+00061103381ADDMD1710011+9999REMSYN070AAXX  20174 03529 46559 /0000 10033 20006 40338 57001 555 87/29 91653;
0149035290999992000012018004+52150-002030FM-12+003299999V0202701N001519999999N0050001N1+00331+00141103391ADDAA199000091KA1120M+00531MD1210051+9999REMSYN080AAXX  20184 03529 36650 /2703 10033 20014 40339 52005 333 10053 555 88/32 91753;EQDQ01  00002PRCP99
0102035290999992000012019004+52150-002030FM-12+003299999V0203001N002119999999N0070001N1+00341+00131103431ADDMD1210091+9999REMSYN076AAXX  20194 03529 46657 /3004 10034 20013 40343 52009 555 87/33 83/40 91853;
0102035290999992000012020004+52150-002030FM-12+003299999V0209999C000019999999N0060001N1+00301+00111103451ADDMD1210071+9999REMSYN076AAXX  20204 03529 46456 /0000 10030 20011 40345 52007 555 82/15 87/35 91953;
0096035290999992000012021004+52150-002030FM-12+003299999V0209999C000019999999N0050001N1+00241+00101103471ADDMD1210081+9999REMSYN070AAXX  20214 03529 46450 /0000 10024 20010 40347 52008 555 85/19 92053;
0096035290999992000012022004+52150-002030FM-12+003299999V0209999C000019999999N0070001N1+00221+00081103481ADDMD1210051+9999REMSYN070AAXX  20224 03529 46957 /0000 10022 20008 40348 52005 555 80/99 92153;
0096035290999992000012023004+52150-002030FM-12+003299999V0209999C000019999999N0050001N1+00161+00051103491ADDMD1210041+9999REMSYN070AAXX  20234 03529 46950 /0000 10016 20005 40349 52004 555 80/99 92253;
0126035290999992000012100004+52150-002030FM-12+003299999V0209999C000019999999N0037001N1+00061-00051103541ADDAA199000091MD1210071+9999REMSYN070AAXX  21004 03529 36637 /0000 10006 21005 40354 52007 555 85/33 92353;EQDQ01  00002PRCP99
0096035290999992000012101004+52150-002030FM-12+003299999V0209999C000019999999N0040001N1+00201+00121103541ADDMD1210061+9999REMSYN070AAXX  21014 03529 46640 /0000 10020 20012 40354 52006 555 87/30 90053;
0096035290999992000012102004+52150-002030FM-12+003299999V0209999C000019999999N0031001N1+00251+00191103511ADDMD1210021+9999REMSYN070AAXX  21024 03529 46631 /0000 10025 20019 40351 52002 555 88/30 90153;
