0120036913999992000010108204+51570+000700FM-15+0015EGMC V0203001N001510045019N0060001N1+00901+00701999999ADDGA1071+004509999GF107991999999999999999999MA1102401999999MW1001REMMET045EGMC 010820Z 30003KT 6000 BKN015 09/07 Q1024;
0120036913999992000010108504+51570+000700FM-15+0015EGMC V0203101N001010045019N0060001N1+00901+00701999999ADDGA1071+004509999GF107991999999999999999999MA1102401999999MW1001REMMET045EGMC 010850Z 31002KT 6000 BKN015 09/07 Q1024;
0143036913999992000010109504+51570+000700FM-15+0015EGMC V0203101N001010048019N0070001N1+00901+00701999999ADDGA1021+003009999GA2071+004809999GF107991999999999999999999MA1102511999999MW1001REMMET052EGMC 010950Z 31002KT 7000 FEW010 BKN016 09/07 Q1025;
0143036913999992000010110504+51570+000700FM-15+0015EGMC V0203501N001010054019N0112651N1+00901+00701999999ADDGA1021+003009999GA2071+005409999GF107991999999999999999999MA1102511999999MW1001REMMET052EGMC 011050Z 35002KT 9999 FEW010 BKN018 09/07 Q1025;
0120036913999992000010112204+51570+000700FM-15+0015EGMC V0209999C000010054019N0112651N1+00901+00701999999ADDGA1071+005409999GF107991999999999999999999MA1102511999999MW1001REMMET045EGMC 011220Z 00000KT 9999 BKN018 09/07 Q1025;
0120036913999992000010112504+51570+000700FM-15+0015EGMC V0209999C000010054019N0112651N1+01001+00701999999ADDGA1071+005409999GF107991999999999999999999MA1102301999999MW1001REMMET045EGMC 011250Z 00000KT 9999 BKN018 10/07 Q1023;
0143036913999992000010113504+51570+000700FM-15+0015EGMC V0202201N001510051019N0112651N1+00901+00701999999ADDGA1021+003009999GA2071+005109999GF107991999999999999999999MA1102511999999MW1001REMMET052EGMC 011350Z 22003KT 9999 SCT010 BKN017 09/07 Q1025;
0143036913999992000010114504+51570+000700FM-15+0015EGMC V0202401N002110045019N0112651N1+00901+00601999999ADDGA1021+003009999GA2071+004509999GF107991999999999999999999MA1102511999999MW1001REMMET052EGMC 011450Z 24004KT 9999 SCT010 BKN015 09/06 Q1025;
0143036913999992000010115504+51570+000700FM-15+0015EGMC V0202501N001510045019N0112651N1+00901+00601999999ADDGA1021+003309999GA2071+004509999GF107991999999999999999999MA1102611999999MW1001REMMET052EGMC 011550Z 25003KT 9999 FEW011 BKN015 09/06 Q1026;
0120036913999992000010116504+51570+000700FM-15+0015EGMC V0202201N003110042019N0112651N1+00901+00601999999ADDGA1071+004209999GF107991999999999999999999MA1102611999999MW1001REMMET045EGMC 011650Z 22006KT 9999 BKN014 09/06 Q1026;
0143036913999992000010117504+51570+000700FM-15+0015EGMC V0202101N003110042019N0112651N1+00901+00601999999ADDGA1021+003009999GA2071+004209999GF107991999999999999999999MA1102611999999MW1001REMMET052EGMC 011750Z 21006KT 9999 SCT010 BKN014 09/06 Q1026;
0120036913999992000010118504+51570+000700FM-15+0015EGMC V0202201N003610039019N0112651N1+00901+00601999999ADDGA1071+003909999GF107991999999999999999999MA1102611999999MW1001REMMET045EGMC 011850Z 22007KT 9999 BKN013 09/06 Q1026;
0143036913999992000010119504+51570+000700FM-15+0015EGMC V0202401N002110048019N0112651N1+00901+00601999999ADDGA1021+003609999GA2071+004809999GF107991999999999999999999MA1102611999999MW1001REMMET052EGMC 011950Z 24004KT 9999 FEW012 BKN016 09/06 Q1026;
0120036913999992000010120504+51570+000700FM-15+0015EGMC V0202201N001510045019N0112651N1+00901+00601999999ADDGA1071+004509999GF107991999999999999999999MA1102611999999MW1001REMMET045EGMC 012050Z 22003KT 9999 BKN015 09/06 Q1026;
0120036913999992000010121504+51570+000700FM-15+0015EGMC V0209999C000010048019N0112651N1+00901+00601999999ADDGA1071+004809999GF107991999999999999999999MA1102611999999MW1001REMMET045EGMC 012150Z 00000KT 9999 BKN016 09/06 Q1026;
0120036913999992000010122504+51570+000700FM-15+0015EGMC V0209999C000010045019N0112651N1+00901+00601999999ADDGA1071+004509999GF107991999999999999999999MA1102611999999MW1001REMMET045EGMC 012250Z 00000KT 9999 BKN015 09/06 Q1026;
0120036913999992000010123504+51570+000700FM-15+0015EGMC V0209999C000010045019N0112651N1+00901+00601999999ADDGA1071+004509999GF107991999999999999999999MA1102611999999MW1001REMMET045EGMC 012350Z 00000KT 9999 BKN015 09/06 Q1026;
0139036913999992000010200504+51570+000700FM-15+0015EGMC V0201701N001510042019N0112651N1+00901+00701999999ADDGA1071+004209999GF107991999999999999999999MA1102511999999MW1001REMMET045EGMC 020050Z 17003KT 9999 BKN014 09/07 Q1025;EQDQ01+000000PRSWM2
0139036913999992000010201504+51570+000700FM-15+0015EGMC V0201901N001510039019N0112651N1+00901+00701999999ADDGA1071+003909999GF107991999999999999999999MA1102511999999MW1001REMMET045EGMC 020150Z 19003KT 9999 BKN013 09/07 Q1025;EQDQ01+000000PRSWM2
0139036913999992000010202504+51570+000700FM-15+0015EGMC V0201901N001510036019N0112651N1+00901+00701999999ADDGA1071+003609999GF107991999999999999999999MA1102511999999MW1001REMMET045EGMC 020250Z 19003KT 9999 BKN012 09/07 Q1025;EQDQ01+000000PRSWM2
0139036913999992000010203504+51570+000700FM-15+0015EGMC V0201901N001510033019N0112651N1+00901+00701999999ADDGA1071+003309999GF107991999999999999999999MA1102511999999MW1001REMMET045EGMC 020350Z 19003KT 9999 BKN011 09/07 Q1025;EQDQ01+000000PRSWM2
0139036913999992000010204504+51570+000700FM-15+0015EGMC V0201801N001510030019N0112651N1+00901+00701999999ADDGA1071+003009999GF107991999999999999999999MA1102511999999MW1001REMMET045EGMC 020450Z 18003KT 9999 BKN010 09/07 Q1025;EQDQ01+000000PRSWM2
0162036913999992000010205504+51570+000700FM-15+0015EGMC V0202501N002110090019N0112651N1+00801+00701999999ADDGA1021+003009999GA2071+009009999GF107991999999999999999999MA1102511999999MW1001REMMET052EGMC 020550Z 25004KT 9999 SCT010 BKN030 08/07 Q1025;EQDQ01+000000PRSWM2
0162036913999992000010207504+51570+000700FM-15+0015EGMC V0202301N003110087019N0112651N1+00901+00701999999ADDGA1021+004509999GA2071+008709999GF107991999999999999999999MA1102611999999MW1001REMMET052EGMC 020750Z 23006KT 9999 FEW015 BKN029 09/07 Q1026;EQDQ01+000000PRSWM2
0162036913999992000010208504+51570+000700FM-15+0015EGMC V0202301N003110075019N0112651N1+00801+00601999999ADDGA1021+004509999GA2071+007509999GF107991999999999999999999MA1102611999999MW1001REMMET052EGMC 020850Z 23006KT 9999 FEW015 BKN025 08/06 Q1026;EQDQ01+000000PRSWM2
0162036913999992000010209504+51570+000700FM-15+0015EGMC V0202501N004110075019N0112651N1+00801+00501999999ADDGA1021+004509999GA2071+007509999GF107991999999999999999999MA1102611999999MW1001REMMET052EGMC 020950Z 25008KT 9999 FEW015 BKN025 08/05 Q1026;EQDQ01+000000PRSWM2
0139036913999992000010210504+51570+000700FM-15+0015EGMC V0202501N002610078019N0112651N1+00901+00401999999ADDGA1071+007809999GF107991999999999999999999MA1102711999999MW1001REMMET045EGMC 021050Z 25005KT 9999 BKN026 09/04 Q1027;EQDQ01+000000PRSWM2
0162036913999992000010211504+51570+000700FM-15+0015EGMC V0202901N003610078019N0112651N1+00901+00401999999ADDGA1021+004509999GA2071+007809999GF107991999999999999999999MA1102711999999MW1001REMMET052EGMC 021150Z 29007KT 9999 FEW015 BKN026 09/04 Q1027;EQDQ01+000000PRSWM2
0139036913999992000010212504+51570+000700FM-15+0015EGMC V0202701N002610078019N0112651N1+00901+00301999999ADDGA1071+007809999GF107991999999999999999999MA1102611999999MW1001REMMET045EGMC 021250Z 27005KT 9999 BKN026 09/03 Q1026;EQDQ01+000000PRSWM2
0139036913999992000010213504+51570+000700FM-15+0015EGMC V0202501N003610066019N0112651N1+00801+00301999999ADDGA1071+006609999GF107991999999999999999999MA1102611999999MW1001REMMET045EGMC 021350Z 25007KT 9999 BKN022 08/03 Q1026;EQDQ01+000000PRSWM2
0139036913999992000010214504+51570+000700FM-15+0015EGMC V0202301N003112200019N0112651N1+00801+00201999999ADDGA1021+006609999GF102991999999999999999999MA1102611999999MW1001REMMET045EGMC 021450Z 23006KT 9999 FEW022 08/02 Q1026;EQDQ01+000000PRSWM2
0139036913999992000010216204+51570+000700FM-15+0015EGMC V0202001N002110075019N0112651N1+00801+00301999999ADDGA1071+007509999GF107991999999999999999999MA1102511999999MW1001REMMET045EGMC 021620Z 20004KT 9999 BKN025 08/03 Q1025;EQDQ01+000000PRSWM2
0139036913999992000010216504+51570+000700FM-15+0015EGMC V0201701N002610066019N0112651N1+00801+00401999999ADDGA1071+006609999GF107991999999999999999999MA1102511999999MW1001REMMET045EGMC 021650Z 17005KT 9999 BKN022 08/04 Q1025;EQDQ01+000000PRSWM2
0139036913999992000010217504+51570+000700FM-15+0015EGMC V0201901N003110051019N0112651N1+00801+00401999999ADDGA1071+005109999GF107991999999999999999999MA1102511999999MW1001REMMET045EGMC 021750Z 19006KT 9999 BKN017 08/04 Q1025;EQDQ01+000000PRSWM2
0162036913999992000010218504+51570+000700FM-15+0015EGMC V0201601N005110042019N0112651N1+00801+00601999999ADDGA1021+003309999GA2071+004209999GF107991999999999999999999MA1102401999999MW1001REMMET052EGMC 021850Z 16010KT 9999 SCT011 BKN014 08/06 Q1024;EQDQ01+000000PRSWM2
0162036913999992000010219504+51570+000700FM-15+0015EGMC V0202101N007710018019N0112651N1+00801+00601999999ADDGA1071+001809999GA2081+002709999GF108991999999999999999999MA1102301999999MW1001REMMET052EGMC 021950Z 21015KT 9999 BKN006 OVC009 08/06 Q1023;EQDQ01+000000PRSWM2
0139036913999992000010221204+51570+000700FM-15+0015EGMC V0202201N006210012019N0070001N1+00901+00801999999ADDGA1081+001209999GF108991999999999999999999MA1102301999999MW1001REMMET045EGMC 022120Z 22012KT 7000 OVC004 09/08 Q1023;EQDQ01+000000PRSWM2
0162036913999992000010221504+51570+000700FM-15+0015EGMC V0202101N007710018019N0070001N1+00901+00801999999ADDGA1021+001209999GA2081+001809999GF108991999999999999999999MA1102201999999MW1001REMMET052EGMC 022150Z 21015KT 7000 SCT004 OVC006 09/08 Q1022;EQDQ01+000000PRSWM2
0162036913999992000010222504+51570+000700FM-15+0015EGMC V0202201N008210027019N0112651N1+01001+00801999999ADDGA1021+002109999GA2081+002709999GF108991999999999999999999MA1102201999999MW1001REMMET052EGMC 022250Z 22016KT 9999 SCT007 OVC009 10/08 Q1022;EQDQ01+000000PRSWM2
0162036913999992000010223504+51570+000700FM-15+0015EGMC V0202201N006710036019N0112651N1+01001+00901999999ADDGA1021+002709999GA2081+003609999GF108991999999999999999999MA1102101999999MW1001REMMET052EGMC 022350Z 22013KT 9999 SCT009 OVC012 10/09 Q1021;EQDQ01+000000PRSWM2
0162036913999992000010300504+51570+000700FM-15+0015EGMC V0202201N007210036019N0112651N1+01001+00801999999ADDGA1021+003009999GA2071+003609999GF107991999999999999999999MA1102101999999MW1001REMMET052EGMC 030050Z 22014KT 9999 SCT010 BKN012 10/08 Q1021;EQDQ01+000000PRSWM2
0162036913999992000010301504+51570+000700FM-15+0015EGMC V0202301N009310036019N0112651N1+01001+00701999999ADDGA1071+003609999GA2081+018009999GF108991999999999999999999MA1102001999999MW1001REMMET052EGMC 030150Z 23018KT 9999 BKN012 OVC060 10/07 Q1020;EQDQ01+000000PRSWM2
0162036913999992000010302504+51570+000700FM-15+0015EGMC V0202301N008710180019N0112651N1+01001+00701999999ADDGA1021+003609999GA2081+018009999GF108991999999999999999999MA1102001999999MW1001REMMET052EGMC 030250Z 23017KT 9999 SCT012 OVC060 10/07 Q1020;EQDQ01+000000PRSWM2
0162036913999992000010303504+51570+000700FM-15+0015EGMC V0202301N009310180019N0112651N1+01001+00701999999ADDGA1021+004509999GA2071+018009999GF107991999999999999999999MA1102001999999MW1001REMMET052EGMC 030350Z 23018KT 9999 SCT015 BKN060 10/07 Q1020;EQDQ01+000000PRSWM2
0173036913999992000010304504+51570+000700FM-15+0015EGMC V0202301N010310057019N0112651N1+01101+00701999999ADDGA1021+004209999GA2071+005709999GF107991999999999999999999MA1101901999999MW1001OC101651REMMET055EGMC 030450Z 23020G32KT 9999 SCT014 BKN019 11/07 Q1019;EQDQ01+000000PRSWM2
0150036913999992000010305504+51570+000700FM-15+0015EGMC V0202201N010310054019N0112651N1+01101+00701999999ADDGA1071+005409999GF107991999999999999999999MA1101901999999MW1001OC101651REMMET048EGMC 030550Z 22020G32KT 9999 BKN018 11/07 Q1019;EQDQ01+000000PRSWM2
0162036913999992000010307204+51570+000700FM-15+0015EGMC V0202201N009310045019N0112651N1+01001+00701999999ADDGA1021+003609999GA2071+004509999GF107991999999999999999999MA1101901999999MW1001REMMET052EGMC 030720Z 22018KT 9999 SCT012 BKN015 10/07 Q1019;EQDQ01+000000PRSWM2
0139036913999992000010307504+51570+000700FM-15+0015EGMC V0202201N008710042019N0112651N1+01001+00701999999ADDGA1071+004209999GF107991999999999999999999MA1101901999999MW1001REMMET045EGMC 030750Z 22017KT 9999 BKN014 10/07 Q1019;EQDQ01+000000PRSWM2
0162036913999992000010308504+51570+000700FM-15+0015EGMC V0202201N009310045019N0112651N1+01001+00701999999ADDGA1021+003609999GA2071+004509999GF107991999999999999999999MA1101901999999MW1001REMMET052EGMC 030850Z 22018KT 9999 SCT012 BKN015 10/07 Q1019;EQDQ01+000000PRSWM2
0162036913999992000010309504+51570+000700FM-15+0015EGMC V0202201N009310048019N0112651N1+01001+00801999999ADDGA1021+003609999GA2071+004809999GF107991999999999999999999MA1101901999999MW1001REMMET052EGMC 030950Z 22018KT 9999 SCT012 BKN016 10/08 Q1019;EQDQ01+000000PRSWM2
0159036913999992000010310504+51570+000700FM-15+0015EGMC V0202201N008710036019N0070001N1+01001+00801999999ADDGA1081+003609999GF108991999999999999999999MA1101901999999MW1511REMMET049EGMC 031050Z 22017KT 7000 -DZ OVC012 10/08 Q1019;EQDQ01+000003PRSWM1Q02    003PRSWM1
0150036913999992000010311504+51570+000700FM-15+0015EGMC V0202201N008710033019N0112651N1+01001+00801999999ADDGA1081+003309999GF108991999999999999999999MA1101801999999MW1001OC101391REMMET048EGMC 031150Z 22017G27KT 9999 OVC011 10/08 Q1018;EQDQ01+000000PRSWM2
0190036913999992000010313204+51570+000700FM-15+0015EGMC V0202301N008710033019N0112651N1+01001+00801999999ADDGA1071+003309999GA2081+003909999GF108991999999999999999999MA1101801999999MW1511MW2611REMMET058EGMC 031320Z 23017KT 9999 -RADZ BKN011 OVC013 10/08 Q1018;EQDQ01+000003PRSWM1Q02    003PRSWM1
0162036913999992000010313504+51570+000700FM-15+0015EGMC V0202201N009310033019N0112651N1+01001+00801999999ADDGA1071+003309999GA2081+003909999GF108991999999999999999999MA1101691999999MW1001REMMET052EGMC 031350Z 22018KT 9999 BKN011 OVC013 10/08 Q1017;EQDQ01+000000PRSWM2
0139036913999992000010314504+51570+000700FM-15+0015EGMC V0202201N007210036019N0112651N1+01001+00801999999ADDGA1081+003609999GF108991999999999999999999MA1101691999999MW1001REMMET045EGMC 031450Z 22014KT 9999 OVC012 10/08 Q1017;EQDQ01+000000PRSWM2
0190036913999992000010315504+51570+000700FM-15+0015EGMC V0202201N007210033019N0070001N1+01001+00901999999ADDGA1021+002709999GA2081+003309999GF108991999999999999999999MA1101691999999MW1511MW2611REMMET058EGMC 031550Z 22014KT 7000 -RADZ SCT009 OVC011 10/09 Q1017;EQDQ01+000003PRSWM1Q02    003PRSWM1
0205036913999992000010316504+51570+000700FM-15+0015EGMC V0202201N007710024019N0070001N1+01001+00801999999ADDGA1021+001809999GA2071+002409999GA3081+003309999GF108991999999999999999999MA1101591999999MW1511REMMET063EGMC 031650Z 22015KT 7000 -DZ FEW006 BKN008 OVC011 10/08 Q1016;EQDQ01+000003PRSWM1Q02    003PRSWM1
0205036913999992000010317504+51570+000700FM-15+0015EGMC V0203001N003610021019N0040001N1+00801+00701999999ADDGA1021+001509999GA2071+002109999GA3081+003009999GF108991999999999999999999MA1101691999999MW1511REMMET063EGMC 031750Z 30007KT 4000 -DZ FEW005 BKN007 OVC010 08/07 Q1017;EQDQ01+000003PRSWM1Q02    003PRSWM1
0205036913999992000010318504+51570+000700FM-15+0015EGMC V0203201N003110030019N0060001N1+00601+00401999999ADDGA1021+001509999GA2071+003009999GA3081+006009999GF108991999999999999999999MA1101691999999MW1511REMMET063EGMC 031850Z 32006KT 6000 -DZ FEW005 BKN010 OVC020 06/04 Q1017;EQDQ01+000003PRSWM1Q02    003PRSWM1
0182036913999992000010319504+51570+000700FM-15+0015EGMC V0203201N003610021019N0080001N1+00601+00401999999ADDGA1071+002109999GA2081+003009999GF108991999999999999999999MA1101801999999MW1511REMMET056EGMC 031950Z 32007KT 8000 -DZ BKN007 OVC010 06/04 Q1018;EQDQ01+000003PRSWM1Q02    003PRSWM1
0182036913999992000010320504+51570+000700FM-15+0015EGMC V0203401N003110018019N0080001N1+00501+00401999999ADDGA1071+001809999GA2081+002409999GF108991999999999999999999MA1101801999999MW1511REMMET056EGMC 032050Z 34006KT 8000 -DZ BKN006 OVC008 05/04 Q1018;EQDQ01+000003PRSWM1Q02    003PRSWM1
0205036913999992000010321504+51570+000700FM-15+0015EGMC V0203301N001010021019N0080001N1+00501+00401999999ADDGA1021+001509999GA2071+002109999GA3081+002709999GF108991999999999999999999MA1101801999999MW1511REMMET063EGMC 032150Z 33002KT 8000 -DZ SCT005 BKN007 OVC009 05/04 Q1018;EQDQ01+000003PRSWM1Q02    003PRSWM1
0182036913999992000010322504+51570+000700FM-15+0015EGMC V0209999C000010135019N0112651N1+00501+00401999999ADDGA1021+001509999GA2071+013509999GF107991999999999999999999MA1101801999999MW1511REMMET056EGMC 032250Z 00000KT 9999 -DZ SCT005 BKN045 05/04 Q1018;EQDQ01+000003PRSWM1Q02    003PRSWM1
0162036913999992000010323504+51570+000700FM-15+0015EGMC V0201601N002110141019N0112651N1+00501+00401999999ADDGA1021+001509999GA2071+014109999GF107991999999999999999999MA1101691999999MW1001REMMET052EGMC 032350Z 16004KT 9999 FEW005 BKN047 05/04 Q1017;EQDQ01+000000PRSWM2
0091036913999992000010401204+51570+000700FM-15+0015EGMC V0209999C00001220001CN0099001N1+00401+00301999999ADDMA1101691999999MW1001REMMET039EGMC 040120Z 00000KT CAVOK 04/03 Q1017;EQDQ01+000000PRSWM2
0091036913999992000010402204+51570+000700FM-15+0015EGMC V0209999C00001220001CN0099001N1+00301+00201999999ADDMA1101691999999MW1001REMMET039EGMC 040220Z 00000KT CAVOK 03/02 Q1017;EQDQ01+000000PRSWM2
0139036913999992000010402504+51570+000700FM-15+0015EGMC V0203401N001010027019N0112651N1+00401+00201999999ADDGA1071+002709999GF107991999999999999999999MA1101801999999MW1001REMMET045EGMC 040250Z 34002KT 9999 BKN009 04/02 Q1018;EQDQ01+000000PRSWM2
0139036913999992000010403504+51570+000700FM-15+0015EGMC V0209999C000010027019N0112651N1+00401+00301999999ADDGA1071+002709999GF107991999999999999999999MA1101691999999MW1001REMMET045EGMC 040350Z 00000KT 9999 BKN009 04/03 Q1017;EQDQ01+000000PRSWM2
0185036913999992000010404504+51570+000700FM-15+0015EGMC V0200801N001010027019N0112651N1+00501+00301999999ADDGA1021+001809999GA2021+002109999GA3071+002709999GF107991999999999999999999MA1101591999999MW1001REMMET059EGMC 040450Z 08002KT 9999 FEW006 SCT007 BKN009 05/03 Q1016;EQDQ01+000000PRSWM2
0162036913999992000010406204+51570+000700FM-15+0015EGMC V0209999C000010027019N0112651N1+00501+00301999999ADDGA1021+002109999GA2071+002709999GF107991999999999999999999MA1101491999999MW1001REMMET052EGMC 040620Z 00000KT 9999 SCT007 BKN009 05/03 Q1015;EQDQ01+000000PRSWM2
0162036913999992000010407204+51570+000700FM-15+0015EGMC V0209999C000010021019N0112651N1+00501+00401999999ADDGA1021+001509999GA2071+002109999GF107991999999999999999999MA1101391999999MW1001REMMET052EGMC 040720Z 00000KT 9999 SCT005 BKN007 05/04 Q1014;EQDQ01+000000PRSWM2
0162036913999992000010407504+51570+000700FM-15+0015EGMC V0200901N001510021019N0112651N1+00501+00401999999ADDGA1021+001509999GA2071+002109999GF107991999999999999999999MA1101391999999MW1001REMMET052EGMC 040750Z 09003KT 9999 SCT005 BKN007 05/04 Q1014;EQDQ01+000000PRSWM2
0181036913999992000010408504+51570+000700FM-15+0015EGMC V0200801N001510009019N0025001N1+00501+00401999999ADDGA1071+000909999GA2081+001509999GF108991999999999999999999MA1101291999999MW1051REMMET055EGMC 040850Z 08003KT 2500 HZ BKN003 OVC005 05/04 Q1013;EQDQ01+000003PRSWM1Q02    003PRSWM1
0182036913999992000010409504+51570+000700FM-15+0015EGMC V0209999C000010006019N0015001N1+00601+00401999999ADDGA1071+000609999GA2081+000909999GF108991999999999999999999MA1101191999999MW1511REMMET056EGMC 040950Z 00000KT 1500 -DZ BKN002 OVC003 06/04 Q1012;EQDQ01+000003PRSWM1Q02    003PRSWM1
0182036913999992000010410504+51570+000700FM-15+0015EGMC V0202901N002110012019N0020001N1+00601+00501999999ADDGA1071+001209999GA2081+001509999GF108991999999999999999999MA1101191999999MW1511REMMET056EGMC 041050Z 29004KT 2000 -DZ BKN004 OVC005 06/05 Q1012;EQDQ01+000003PRSWM1Q02    003PRSWM1
0185036913999992000010411504+51570+000700FM-15+0015EGMC V0202701N004110015019N0060001N1+00601+00501999999ADDGA1071+001509999GA2071+001809999GA3081+003009999GF108991999999999999999999MA1101081999999MW1001REMMET059EGMC 041150Z 27008KT 6000 BKN005 BKN006 OVC010 06/05 Q1011;EQDQ01+000000PRSWM2
0139036913999992000010412504+51570+000700FM-15+0015EGMC V0202401N006212200019N0112651N1+00701+00401999999ADDGA1021+004809999GF102991999999999999999999MA1101081999999MW1001REMMET045EGMC 041250Z 24012KT 9999 FEW016 07/04 Q1011;EQDQ01+000000PRSWM2
0091036913999992000010413504+51570+000700FM-15+0015EGMC V0202401N00571220001CN0099001N1+00801+00401999999ADDMA1101021999999MW1001REMMET039EGMC 041350Z 24011KT CAVOK 08/04 Q1010;EQDQ01+000000PRSWM2
0162036913999992000010414504+51570+000700FM-15+0015EGMC V0202301N009312200019N0112651N1+00801+00401999999ADDGA1021+006609999GA2021+015009999GF104991999999999999999999MA1101021999999MW1001REMMET052EGMC 041450Z 23018KT 9999 FEW022 SCT050 08/04 Q1010;EQDQ01+000000PRSWM2
0162036913999992000010415504+51570+000700FM-15+0015EGMC V0202201N007210135019N0112651N1+00901+00501999999ADDGA1021+007209999GA2071+013509999GF107991999999999999999999MA1101021999999MW1001REMMET052EGMC 041550Z 22014KT 9999 SCT024 BKN045 09/05 Q1010;EQDQ01+000000PRSWM2
0169036913999992000010416504+51570+000700FM-15+0015EGMC V0202701N006210120019N0112651N1+00901+00501999999ADDGA1021+005709999GA2071+012009999GF107991999999999999999999MA1101081999999MW1001REMMET059EGMC 041650Z 27012KT 9999 FEW019 BKN040 09/05 Q1011 RESHRA;EQDQ01+000000PRSWM2
0091036913999992000010417504+51570+000700FM-15+0015EGMC V0202801N00411220001CN0099001N1+00601+00101999999ADDMA1101191999999MW1001REMMET039EGMC 041750Z 28008KT CAVOK 06/01 Q1012;EQDQ01+000000PRSWM2
0091036913999992000010418504+51570+000700FM-15+0015EGMC V0202701N00511220001CN0099001N1+00601+00101999999ADDMA1101391999999MW1001REMMET039EGMC 041850Z 27010KT CAVOK 06/01 Q1014;EQDQ01+000000PRSWM2
0091036913999992000010420204+51570+000700FM-15+0015EGMC V0202601N00411220001CN0099001N1+00501+00001999999ADDMA1101591999999MW1001REMMET039EGMC 042020Z 26008KT CAVOK 05/00 Q1016;EQDQ01+000000PRSWM2
0091036913999992000010420504+51570+000700FM-15+0015EGMC V0202601N00461220001CN0099001N1+00501+00101999999ADDMA1101691999999MW1001REMMET039EGMC 042050Z 26009KT CAVOK 05/01 Q1017;EQDQ01+000000PRSWM2
0091036913999992000010421504+51570+000700FM-15+0015EGMC V0202501N00311220001CN0099001N1+00401+00101999999ADDMA1101691999999MW1001REMMET039EGMC 042150Z 25006KT CAVOK 04/01 Q1017;EQDQ01+000000PRSWM2
0091036913999992000010422504+51570+000700FM-15+0015EGMC V0202401N00311220001CN0099001N1+00401+00101999999ADDMA1101691999999MW1001REMMET039EGMC 042250Z 24006KT CAVOK 04/01 Q1017;EQDQ01+000000PRSWM2
0091036913999992000010423504+51570+000700FM-15+0015EGMC V0202301N00311220001CN0099001N1+00401+00101999999ADDMA1101801999999MW1001REMMET039EGMC 042350Z 23006KT CAVOK 04/01 Q1018;EQDQ01+000000PRSWM2
0091036913999992000010500504+51570+000700FM-15+0015EGMC V0202301N00261220001CN0099001N1+00301+00101999999ADDMA1101801999999MW1001REMMET039EGMC 040050Z 23005KT CAVOK 03/01 Q1018;EQDQ01+000000PRSWM2
0091036913999992000010501504+51570+000700FM-15+0015EGMC V0202401N00411220001CN0099001N1+00301+00001999999ADDMA1101801999999MW1001REMMET039EGMC 040150Z 24008KT CAVOK 03/00 Q1018;EQDQ01+000000PRSWM2
0091036913999992000010502504+51570+000700FM-15+0015EGMC V0202401N00361220001CN0099001N1+00301+00101999999ADDMA1101801999999MW1001REMMET039EGMC 040250Z 24007KT CAVOK 03/01 Q1018;EQDQ01+000000PRSWM2
0092036913999992000010503504+51570+000700FM-15+0015EGMC V0202301N00261220001CN0099001N1+00101+00001999999ADDMA1101801999999MW1001REMMET040EGMC 050350Z 23005KT CAVOK 01/M00 Q1018;EQDQ01+000000PRSWM2
0092036913999992000010504504+51570+000700FM-15+0015EGMC V0202301N00311220001CN0099001N1+00101+00001999999ADDMA1101801999999MW1001REMMET040EGMC 050450Z 23006KT CAVOK 01/M00 Q1018;EQDQ01+000000PRSWM2
0092036913999992000010505504+51570+000700FM-15+0015EGMC V0202201N00361220001CN0099001N1+00301+00001999999ADDMA1101801999999MW1001REMMET040EGMC 050550Z 22007KT CAVOK 03/M00 Q1018;EQDQ01+000000PRSWM2
0091036913999992000010507204+51570+000700FM-15+0015EGMC V0201901N00621220001CN0099001N1+00501+00301999999ADDMA1101691999999MW1001REMMET039EGMC 050720Z 19012KT CAVOK 05/03 Q1017;EQDQ01+000000PRSWM2
0139036913999992000010507504+51570+000700FM-15+0015EGMC V0201901N006212200019N0112651N1+00501+00201999999ADDGA1021+013509999GF102991999999999999999999MA1101691999999MW1001REMMET045EGMC 050750Z 19012KT 9999 FEW045 05/02 Q1017;EQDQ01+000000PRSWM2
0139036913999992000010508504+51570+000700FM-15+0015EGMC V0202001N005112200019N0112651N1+00601+00301999999ADDGA1021+010509999GF104991999999999999999999MA1101691999999MW1001REMMET045EGMC 050850Z 20010KT 9999 SCT035 06/03 Q1017;EQDQ01+000000PRSWM2
0162036913999992000010509504+51570+000700FM-15+0015EGMC V0202001N005112200019N0112651N1+00601+00401999999ADDGA1021+007509999GA2021+012009999GF104991999999999999999999MA1101691999999MW1001REMMET052EGMC 050950Z 20010KT 9999 FEW025 SCT040 06/04 Q1017;EQDQ01+000000PRSWM2
0162036913999992000010510504+51570+000700FM-15+0015EGMC V0201901N005112200019N0112651N1+00801+00501999999ADDGA1021+012009999GA2021+075009999GF104991999999999999999999MA1101691999999MW1001REMMET052EGMC 051050Z 19010KT 9999 FEW040 SCT250 08/05 Q1017;EQDQ01+000000PRSWM2
0091036913999992000010511504+51570+000700FM-15+0015EGMC V0202001N00411220001CN0099001N1+00901+00501999999ADDMA1101491999999MW1001REMMET039EGMC 051150Z 20008KT CAVOK 09/05 Q1015;EQDQ01+000000PRSWM2
0162036913999992000010512504+51570+000700FM-15+0015EGMC V0202001N008212200019N0112651N1+00901+00401999999ADDGA1021+006009999GA2021+013509999GF104991999999999999999999MA1101391999999MW1001REMMET052EGMC 051250Z 20016KT 9999 FEW020 SCT045 09/04 Q1014;EQDQ01+000000PRSWM2
0162036913999992000010513504+51570+000700FM-15+0015EGMC V0201901N007210150019N0112651N1+00901+00501999999ADDGA1021+007509999GA2071+015009999GF107991999999999999999999MA1101391999999MW1001REMMET052EGMC 051350Z 19014KT 9999 FEW025 BKN050 09/05 Q1014;EQDQ01+000000PRSWM2
0162036913999992000010514504+51570+000700FM-15+0015EGMC V0202101N009310120019N0112651N1+01001+00601999999ADDGA1021+006909999GA2071+012009999GF107991999999999999999999MA1101291999999MW1001REMMET052EGMC 051450Z 21018KT 9999 SCT023 BKN040 10/06 Q1013;EQDQ01+000000PRSWM2
0139036913999992000010515504+51570+000700FM-15+0015EGMC V0202001N008212200019N0112651N1+00901+00501999999ADDGA1021+006909999GF102991999999999999999999MA1101191999999MW1001REMMET045EGMC 051550Z 20016KT 9999 FEW023 09/05 Q1012;EQDQ01+000000PRSWM2
0150036913999992000010516504+51570+000700FM-15+0015EGMC V0202001N009310054019N0112651N1+00901+00501999999ADDGA1071+005409999GF107991999999999999999999MA1101191999999MW1001OC101441REMMET048EGMC 051650Z 20018G28KT 9999 BKN018 09/05 Q1012;EQDQ01+000000PRSWM2
0173036913999992000010517504+51570+000700FM-15+0015EGMC V0202101N009310075019N0112651N1+00901+00501999999ADDGA1021+005409999GA2071+007509999GF107991999999999999999999MA1101191999999MW1001OC101541REMMET055EGMC 051750Z 21018G30KT 9999 SCT018 BKN025 09/05 Q1012;EQDQ01+000000PRSWM2
0139036913999992000010520504+51570+000700FM-15+0015EGMC V0202101N010310060019N0112651N1+01001+00601999999ADDGA1071+006009999GF107991999999999999999999MA1101081999999MW1001REMMET045EGMC 052050Z 21020KT 9999 BKN020 10/06 Q1011;EQDQ01+000000PRSWM2
0173036913999992000010521504+51570+000700FM-15+0015EGMC V0202101N010310066019N0112651N1+01001+00601999999ADDGA1021+004509999GA2071+006609999GF107991999999999999999999MA1101021999999MW1001OC101751REMMET055EGMC 052150Z 21020G34KT 9999 SCT015 BKN022 10/06 Q1010;EQDQ01+000000PRSWM2
0150036913999992000010600504+51570+000700FM-15+0015EGMC V0202201N011810048019N0112651N1+01001+00601999999ADDGA1071+004809999GF107991999999999999999999MA1100911999999MW1001OC101851REMMET048EGMC 060050Z 22023G36KT 9999 BKN016 10/06 Q1009;EQDQ01+000000PRSWM2
0150036913999992000010601504+51570+000700FM-15+0015EGMC V0202101N011810051019N0112651N1+01001+00601999999ADDGA1071+005109999GF107991999999999999999999MA1100911999999MW1001OC101851REMMET048EGMC 060150Z 21023G36KT 9999 BKN017 10/06 Q1009;EQDQ01+000000PRSWM2
0139036913999992000010602504+51570+000700FM-15+0015EGMC V0202201N011810051019N0112651N1+01001+00601999999ADDGA1071+005109999GF107991999999999999999999MA1100911999999MW1001REMMET045EGMC 060250Z 22023KT 9999 BKN017 10/06 Q1009;EQDQ01+000000PRSWM2
0139036913999992000010603504+51570+000700FM-15+0015EGMC V0202101N011310051019N0112651N1+01101+00601999999ADDGA1071+005109999GF107991999999999999999999MA1100911999999MW1001REMMET045EGMC 060350Z 21022KT 9999 BKN017 11/06 Q1009;EQDQ01+000000PRSWM2
0150036913999992000010604504+51570+000700FM-15+0015EGMC V0202201N011810048019N0112651N1+01101+00601999999ADDGA1071+004809999GF107991999999999999999999MA1100911999999MW1001OC101701REMMET048EGMC 060450Z 22023G33KT 9999 BKN016 11/06 Q1009;EQDQ01+000000PRSWM2
0162036913999992000010605504+51570+000700FM-15+0015EGMC V0202101N010310048019N0112651N1+01001+00801999999ADDGA1021+003009999GA2071+004809999GF107991999999999999999999MA1100911999999MW1001REMMET052EGMC 060550Z 21020KT 9999 SCT010 BKN016 10/08 Q1009;EQDQ01+000000PRSWM2
0159036913999992000010606504+51570+000700FM-15+0015EGMC V0202101N010310030019N0112651N1+01001+00801999999ADDGA1071+003009999GF107991999999999999999999MA1100911999999MW1511REMMET049EGMC 060650Z 21020KT 9999 -DZ BKN010 10/08 Q1009;EQDQ01+000003PRSWM1Q02    003PRSWM1
0158036913999992000010607504+51570+000700FM-15+0015EGMC V0202301N007210027019N0060001N1+01001+00801999999ADDGA1071+002709999GF107991999999999999999999MA1101021999999MW1531REMMET048EGMC 060750Z 23014KT 6000 DZ BKN009 10/08 Q1010;EQDQ01+000003PRSWM1Q02    003PRSWM1
0162036913999992000010609504+51570+000700FM-15+0015EGMC V0202301N006210150019N0112651N1+00901+00601999999ADDGA1021+007509999GA2071+015009999GF107991999999999999999999MA1101081999999MW1001REMMET052EGMC 060950Z 23012KT 9999 SCT025 BKN050 09/06 Q1011;EQDQ01+000000PRSWM2
0185036913999992000010610504+51570+000700FM-15+0015EGMC V0202301N005710750019N0112651N1+01001+00701999999ADDGA1021+005409999GA2021+015009999GA3071+075009999GF107991999999999999999999MA1101191999999MW1001REMMET059EGMC 061050Z 23011KT 9999 FEW018 SCT050 BKN250 10/07 Q1012;EQDQ01+000000PRSWM2
0185036913999992000010611504+51570+000700FM-15+0015EGMC V0202201N007710750019N0112651N1+01001+00701999999ADDGA1021+005409999GA2021+015009999GA3071+075009999GF107991999999999999999999MA1101191999999MW1001REMMET059EGMC 061150Z 22015KT 9999 FEW018 SCT050 BKN250 10/07 Q1012;EQDQ01+000000PRSWM2
0139036913999992000010612504+51570+000700FM-15+0015EGMC V0202301N006710066019N0112651N1+01001+00701999999ADDGA1071+006609999GF107991999999999999999999MA1101081999999MW1001REMMET045EGMC 061250Z 23013KT 9999 BKN022 10/07 Q1011;EQDQ01+000000PRSWM2
0162036913999992000010614204+51570+000700FM-15+0015EGMC V0202401N005112200019N0112651N1+01001+00701999999ADDGA1021+006609999GA2021+009009999GF104991999999999999999999MA1101291999999MW1001REMMET052EGMC 061420Z 24010KT 9999 SCT022 SCT030 10/07 Q1013;EQDQ01+000000PRSWM2
0162036913999992000010615504+51570+000700FM-15+0015EGMC V0202401N005112200019N0112651N1+01001+00501999999ADDGA1021+007509999GA2021+015009999GF104991999999999999999999MA1101391999999MW1001REMMET052EGMC 061550Z 24010KT 9999 SCT025 SCT050 10/05 Q1014;EQDQ01+000000PRSWM2
0139036913999992000010617504+51570+000700FM-15+0015EGMC V0202401N002612200019N0112651N1+00901+00501999999ADDGA1021+007509999GF102991999999999999999999MA1101591999999MW1001REMMET045EGMC 061750Z 24005KT 9999 FEW025 09/05 Q1016;EQDQ01+000000PRSWM2
0091036913999992000010618504+51570+000700FM-15+0015EGMC V0202401N00311220001CN0099001N1+00801+00501999999ADDMA1101691999999MW1001REMMET039EGMC 061850Z 24006KT CAVOK 08/05 Q1017;EQDQ01+000000PRSWM2
0091036913999992000010620204+51570+000700FM-15+0015EGMC V0202801N00261220001CN0099001N1+00801+00401999999ADDMA1101801999999MW1001REMMET039EGMC 062020Z 28005KT CAVOK 08/04 Q1018;EQDQ01+000000PRSWM2
0091036913999992000010620504+51570+000700FM-15+0015EGMC V0202601N00211220001CN0099001N1+00601+00401999999ADDMA1101801999999MW1001REMMET039EGMC 062050Z 26004KT CAVOK 06/04 Q1018;EQDQ01+000000PRSWM2
0091036913999992000010621504+51570+000700FM-15+0015EGMC V0202201N00151220001CN0099001N1+00601+00401999999ADDMA1101901999999MW1001REMMET039EGMC 062150Z 22003KT CAVOK 06/04 Q1019;EQDQ01+000000PRSWM2
0091036913999992000010622504+51570+000700FM-15+0015EGMC V0202601N00261220001CN0099001N1+00601+00401999999ADDMA1101901999999MW1001REMMET039EGMC 062250Z 26005KT CAVOK 06/04 Q1019;EQDQ01+000000PRSWM2
0091036913999992000010623504+51570+000700FM-15+0015EGMC V0202501N00211220001CN0099001N1+00501+00301999999ADDMA1102001999999MW1001REMMET039EGMC 062350Z 25004KT CAVOK 05/03 Q1020;EQDQ01+000000PRSWM2
0091036913999992000010700504+51570+000700FM-15+0015EGMC V0202401N00361220001CN0099001N1+00501+00301999999ADDMA1102001999999MW1001REMMET039EGMC 070050Z 24007KT CAVOK 05/03 Q1020;EQDQ01+000000PRSWM2
0091036913999992000010701504+51570+000700FM-15+0015EGMC V0202401N00361220001CN0099001N1+00501+00301999999ADDMA1102001999999MW1001REMMET039EGMC 070150Z 24007KT CAVOK 05/03 Q1020;EQDQ01+000000PRSWM2
0091036913999992000010702504+51570+000700FM-15+0015EGMC V0202401N00411220001CN0099001N1+00501+00301999999ADDMA1102001999999MW1001REMMET039EGMC 070250Z 24008KT CAVOK 05/03 Q1020;EQDQ01+000000PRSWM2
0091036913999992000010703504+51570+000700FM-15+0015EGMC V0202201N00311220001CN0099001N1+00401+00201999999ADDMA1102001999999MW1001REMMET039EGMC 070350Z 22006KT CAVOK 04/02 Q1020;EQDQ01+000000PRSWM2
0091036913999992000010704504+51570+000700FM-15+0015EGMC V0202201N00311220001CN0099001N1+00401+00201999999ADDMA1102001999999MW1001REMMET039EGMC 070450Z 22006KT CAVOK 04/02 Q1020;EQDQ01+000000PRSWM2
0091036913999992000010705504+51570+000700FM-15+0015EGMC V0202201N00261220001CN0099001N1+00401+00201999999ADDMA1102001999999MW1001REMMET039EGMC 070550Z 22005KT CAVOK 04/02 Q1020;EQDQ01+000000PRSWM2
0091036913999992000010706504+51570+000700FM-15+0015EGMC V0202301N00461220001CN0099001N1+00501+00301999999ADDMA1102001999999MW1001REMMET039EGMC 070650Z 23009KT CAVOK 05/03 Q1020;EQDQ01+000000PRSWM2
0091036913999992000010707504+51570+000700FM-15+0015EGMC V0202201N00461220001CN0099001N1+00501+00301999999ADDMA1102001999999MW1001REMMET039EGMC 070750Z 22009KT CAVOK 05/03 Q1020;EQDQ01+000000PRSWM2
0091036913999992000010708504+51570+000700FM-15+0015EGMC V0202101N00621220001CN0099001N1+00601+00401999999ADDMA1102001999999MW1001REMMET039EGMC 070850Z 21012KT CAVOK 06/04 Q1020;EQDQ01+000000PRSWM2
0091036913999992000010709504+51570+000700FM-15+0015EGMC V0202101N00621220001CN0099001N1+00701+00401999999ADDMA1102001999999MW1001REMMET039EGMC 070950Z 21012KT CAVOK 07/04 Q1020;EQDQ01+000000PRSWM2
0162036913999992000010710504+51570+000700FM-15+0015EGMC V0202201N008212200019N0112651N1+00801+00601999999ADDGA1021+003009999GA2021+075009999GF104991999999999999999999MA1101901999999MW1001REMMET052EGMC 071050Z 22016KT 9999 FEW010 SCT250 08/06 Q1019;EQDQ01+000000PRSWM2
0162036913999992000010711504+51570+000700FM-15+0015EGMC V0202101N007710750019N0112651N1+00901+00601999999ADDGA1021+004209999GA2071+075009999GF107991999999999999999999MA1101801999999MW1001REMMET052EGMC 071150Z 21015KT 9999 SCT014 BKN250 09/06 Q1018;EQDQ01+000000PRSWM2
0139036913999992000010712504+51570+000700FM-15+0015EGMC V0202101N008210048019N0112651N1+01001+00601999999ADDGA1071+004809999GF107991999999999999999999MA1101691999999MW1001REMMET045EGMC 071250Z 21016KT 9999 BKN016 10/06 Q1017;EQDQ01+000000PRSWM2
0162036913999992000010713504+51570+000700FM-15+0015EGMC V0202201N008710075019N0112651N1+01001+00601999999ADDGA1021+005709999GA2071+007509999GF107991999999999999999999MA1101591999999MW1001REMMET052EGMC 071350Z 22017KT 9999 SCT019 BKN025 10/06 Q1016;EQDQ01+000000PRSWM2
0162036913999992000010714504+51570+000700FM-15+0015EGMC V0202201N008210135019N0112651N1+01001+00501999999ADDGA1021+007209999GA2071+013509999GF107991999999999999999999MA1101591999999MW1001REMMET052EGMC 071450Z 22016KT 9999 SCT024 BKN045 10/05 Q1016;EQDQ01+000000PRSWM2
0162036913999992000010715504+51570+000700FM-15+0015EGMC V0202101N009312200019N0112651N1+00901+00501999999ADDGA1021+007809999GA2021+075009999GF104991999999999999999999MA1101491999999MW1001REMMET052EGMC 071550Z 21018KT 9999 FEW026 SCT250 09/05 Q1015;EQDQ01+000000PRSWM2
0162036913999992000010716504+51570+000700FM-15+0015EGMC V0202101N008712200019N0112651N1+00901+00501999999ADDGA1021+007809999GA2021+013209999GF104991999999999999999999MA1101491999999MW1001REMMET052EGMC 071650Z 21017KT 9999 FEW026 SCT044 09/05 Q1015;EQDQ01+000000PRSWM2
0162036913999992000010718204+51570+000700FM-15+0015EGMC V0202301N009310135019N0112651N1+00901+00501999999ADDGA1021+006909999GA2071+013509999GF107991999999999999999999MA1101391999999MW1001REMMET052EGMC 071820Z 23018KT 9999 SCT023 BKN045 09/05 Q1014;EQDQ01+000000PRSWM2
0162036913999992000010719204+51570+000700FM-15+0015EGMC V0202201N008710126019N0112651N1+00901+00501999999ADDGA1021+006609999GA2071+012609999GF107991999999999999999999MA1101391999999MW1001REMMET052EGMC 071920Z 22017KT 9999 FEW022 BKN042 09/05 Q1014;EQDQ01+000000PRSWM2
0162036913999992000010719504+51570+000700FM-15+0015EGMC V0202201N008710132019N0112651N1+00901+00501999999ADDGA1021+006909999GA2071+013209999GF107991999999999999999999MA1101391999999MW1001REMMET052EGMC 071950Z 22017KT 9999 FEW023 BKN044 09/05 Q1014;EQDQ01+000000PRSWM2
0162036913999992000010720504+51570+000700FM-15+0015EGMC V0202301N008710135019N0112651N1+00901+00501999999ADDGA1021+007809999GA2071+013509999GF107991999999999999999999MA1101291999999MW1001REMMET052EGMC 072050Z 23017KT 9999 FEW026 BKN045 09/05 Q1013;EQDQ01+000000PRSWM2
0185036913999992000010721504+51570+000700FM-15+0015EGMC V0202301N010310120019N0112651N1+00901+00501999999ADDGA1021+005409999GA2021+007209999GA3071+012009999GF107991999999999999999999MA1101291999999MW1001REMMET059EGMC 072150Z 23020KT 9999 FEW018 SCT024 BKN040 09/05 Q1013;EQDQ01+000000PRSWM2
0173036913999992000010722504+51570+000700FM-15+0015EGMC V0202201N010310090019N0112651N1+01001+00501999999ADDGA1021+007509999GA2071+009009999GF107991999999999999999999MA1101291999999MW1001OC101591REMMET055EGMC 072250Z 22020G31KT 9999 SCT025 BKN030 10/05 Q1013;EQDQ01+000000PRSWM2
0185036913999992000010723504+51570+000700FM-15+0015EGMC V0202201N009310114019N0112651N1+01001+00501999999ADDGA1021+005409999GA2021+006609999GA3071+011409999GF107991999999999999999999MA1101191999999MW1001REMMET059EGMC 072350Z 22018KT 9999 FEW018 SCT022 BKN038 10/05 Q1012;EQDQ01+000000PRSWM2
0162036913999992000010800504+51570+000700FM-15+0015EGMC V0202201N009310090019N0112651N1+01001+00601999999ADDGA1021+005109999GA2071+009009999GF107991999999999999999999MA1101191999999MW1001REMMET052EGMC 080050Z 22018KT 9999 SCT017 BKN030 10/06 Q1012;EQDQ01+000000PRSWM2
0162036913999992000010801504+51570+000700FM-15+0015EGMC V0202201N010310096019N0112651N1+00901+00601999999ADDGA1021+005409999GA2071+009609999GF107991999999999999999999MA1101191999999MW1001REMMET052EGMC 080150Z 22020KT 9999 SCT018 BKN032 09/06 Q1012;EQDQ01+000000PRSWM2
0162036913999992000010802504+51570+000700FM-15+0015EGMC V0202201N009310102019N0112651N1+00901+00601999999ADDGA1021+005409999GA2071+010209999GF107991999999999999999999MA1101191999999MW1001REMMET052EGMC 080250Z 22018KT 9999 SCT018 BKN034 09/06 Q1012;EQDQ01+000000PRSWM2
0162036913999992000010804204+51570+000700FM-15+0015EGMC V0202101N007210042019N0112651N1+00901+00701999999ADDGA1021+003009999GA2071+004209999GF107991999999999999999999MA1101191999999MW1001REMMET052EGMC 080420Z 21014KT 9999 SCT010 BKN014 09/07 Q1012;EQDQ01+000000PRSWM2
0162036913999992000010805204+51570+000700FM-15+0015EGMC V0202201N007210036019N0112651N1+00901+00701999999ADDGA1021+002709999GA2071+003609999GF107991999999999999999999MA1101191999999MW1001REMMET052EGMC 080520Z 22014KT 9999 SCT009 BKN012 09/07 Q1012;EQDQ01+000000PRSWM2
0182036913999992000010805504+51570+000700FM-15+0015EGMC V0202601N003110099019N0112651N1+00801+00601999999ADDGA1021+004209999GA2071+009909999GF107991999999999999999999MA1101291999999MW1611REMMET056EGMC 080550Z 26006KT 9999 -RA SCT014 BKN033 08/06 Q1013;EQDQ01+000003PRSWM1Q02    003PRSWM1
0185036913999992000010806504+51570+000700FM-15+0015EGMC V0202301N003610300019N0112651N1+00801+00601999999ADDGA1021+004509999GA2021+012009999GA3071+030009999GF107991999999999999999999MA1101391999999MW1001REMMET059EGMC 080650Z 23007KT 9999 FEW015 SCT040 BKN100 08/06 Q1014;EQDQ01+000000PRSWM2
0091036913999992000010807504+51570+000700FM-15+0015EGMC V0202401N00411220001CN0099001N1+00801+00601999999ADDMA1101491999999MW1001REMMET039EGMC 080750Z 24008KT CAVOK 08/06 Q1015;EQDQ01+000000PRSWM2
0091036913999992000010808504+51570+000700FM-15+0015EGMC V0202501N00261220001CN0099001N1+00801+00501999999ADDMA1101591999999MW1001REMMET039EGMC 080850Z 25005KT CAVOK 08/05 Q1016;EQDQ01+000000PRSWM2
0091036913999992000010809504+51570+000700FM-15+0015EGMC V0202501N00511220001CN0099001N1+00701+00401999999ADDMA1101691999999MW1001REMMET039EGMC 080950Z 25010KT CAVOK 07/04 Q1017;EQDQ01+000000PRSWM2
0091036913999992000010810504+51570+000700FM-15+0015EGMC V0202501N00311220001CN0099001N1+00801+00301999999ADDMA1101691999999MW1001REMMET039EGMC 081050Z 25006KT CAVOK 08/03 Q1017;EQDQ01+000000PRSWM2
0091036913999992000010811504+51570+000700FM-15+0015EGMC V0202501N00511220001CN0099001N1+00901+00201999999ADDMA1101691999999MW1001REMMET039EGMC 081150Z 25010KT CAVOK 09/02 Q1017;EQDQ01+000000PRSWM2
0139036913999992000010812504+51570+000700FM-15+0015EGMC V0202501N006212200019N0112651N1+00901+00201999999ADDGA1021+008409999GF102991999999999999999999MA1101691999999MW1001REMMET045EGMC 081250Z 25012KT 9999 FEW028 09/02 Q1017;EQDQ01+000000PRSWM2
0139036913999992000010813504+51570+000700FM-15+0015EGMC V0202401N006212200019N0112651N1+00901+00101999999ADDGA1021+008409999GF102991999999999999999999MA1101691999999MW1001REMMET045EGMC 081350Z 24012KT 9999 FEW028 09/01 Q1017;EQDQ01+000000PRSWM2
0139036913999992000010814504+51570+000700FM-15+0015EGMC V0202401N003612200019N0112651N1+00901+00201999999ADDGA1021+009609999GF102991999999999999999999MA1101691999999MW1001REMMET045EGMC 081450Z 24007KT 9999 FEW032 09/02 Q1017;EQDQ01+000000PRSWM2
0139036913999992000010815504+51570+000700FM-15+0015EGMC V0202401N003112200019N0112651N1+00801+00201999999ADDGA1021+010509999GF102991999999999999999999MA1101801999999MW1001REMMET045EGMC 081550Z 24006KT 9999 FEW035 08/02 Q1018;EQDQ01+000000PRSWM2
0091036913999992000010816504+51570+000700FM-15+0015EGMC V0202501N00311220001CN0099001N1+00701+00201999999ADDMA1101801999999MW1001REMMET039EGMC 081650Z 25006KT CAVOK 07/02 Q1018;EQDQ01+000000PRSWM2
0091036913999992000010817504+51570+000700FM-15+0015EGMC V0202401N00411220001CN0099001N1+00601+00201999999ADDMA1101901999999MW1001REMMET039EGMC 081750Z 24008KT CAVOK 06/02 Q1019;EQDQ01+000000PRSWM2
0091036913999992000010818504+51570+000700FM-15+0015EGMC V0202301N00361220001CN0099001N1+00601+00201999999ADDMA1101901999999MW1001REMMET039EGMC 081850Z 23007KT CAVOK 06/02 Q1019;EQDQ01+000000PRSWM2
0091036913999992000010819504+51570+000700FM-15+0015EGMC V0202301N00311220001CN0099001N1+00601+00101999999ADDMA1101901999999MW1001REMMET039EGMC 081950Z 23006KT CAVOK 06/01 Q1019;EQDQ01+000000PRSWM2
0091036913999992000010820504+51570+000700FM-15+0015EGMC V0202401N00461220001CN0099001N1+00601+00101999999ADDMA1102001999999MW1001REMMET039EGMC 082050Z 24009KT CAVOK 06/01 Q1020;EQDQ01+000000PRSWM2
0091036913999992000010821504+51570+000700FM-15+0015EGMC V0202501N00411220001CN0099001N1+00501+00201999999ADDMA1102001999999MW1001REMMET039EGMC 082150Z 25008KT CAVOK 05/02 Q1020;EQDQ01+000000PRSWM2
0091036913999992000010822504+51570+000700FM-15+0015EGMC V0202601N00311220001CN0099001N1+00501+00101999999ADDMA1102001999999MW1001REMMET039EGMC 082250Z 26006KT CAVOK 05/01 Q1020;EQDQ01+000000PRSWM2
0091036913999992000010823504+51570+000700FM-15+0015EGMC V0202601N00361220001CN0099001N1+00401+00101999999ADDMA1102001999999MW1001REMMET039EGMC 082350Z 26007KT CAVOK 04/01 Q1020;EQDQ01+000000PRSWM2
0091036913999992000010900504+51570+000700FM-15+0015EGMC V0202601N00211220001CN0099001N1+00401+00101999999ADDMA1102101999999MW1001REMMET039EGMC 090050Z 26004KT CAVOK 04/01 Q1021;EQDQ01+000000PRSWM2
0091036913999992000010901504+51570+000700FM-15+0015EGMC V0202401N00261220001CN0099001N1+00301+00101999999ADDMA1102101999999MW1001REMMET039EGMC 090150Z 24005KT CAVOK 03/01 Q1021;EQDQ01+000000PRSWM2
0091036913999992000010902504+51570+000700FM-15+0015EGMC V0202501N00211220001CN0099001N1+00301+00101999999ADDMA1102101999999MW1001REMMET039EGMC 090250Z 25004KT CAVOK 03/01 Q1021;EQDQ01+000000PRSWM2
0091036913999992000010904204+51570+000700FM-15+0015EGMC V0202601N00261220001CN0099001N1+00301+00101999999ADDMA1102201999999MW1001REMMET039EGMC 090420Z 26005KT CAVOK 03/01 Q1022;EQDQ01+000000PRSWM2
0091036913999992000010904504+51570+000700FM-15+0015EGMC V0202501N00261220001CN0099001N1+00301+00101999999ADDMA1102201999999MW1001REMMET039EGMC 090450Z 25005KT CAVOK 03/01 Q1022;EQDQ01+000000PRSWM2
0076036913999992000010907204+51570+000700FM-15+0015EGMC V0202601N00211220001CN0099001N1+00201+00001999999ADDMW1001REMMET039EGMC 090720Z 26004KT CAVOK 02/M00 Q102;EQDQ01+000000PRSWM2
0092036913999992000010907504+51570+000700FM-15+0015EGMC V0202701N00261220001CN0099001N1+00201-00101999999ADDMA1102401999999MW1001REMMET040EGMC 090750Z 27005KT CAVOK 02/M01 Q1024;EQDQ01+000000PRSWM2
0092036913999992000010908504+51570+000700FM-15+0015EGMC V0202701N00151220001CN0099001N1+00201+00001999999ADDMA1102511999999MW1001REMMET040EGMC 090850Z 27003KT CAVOK 02/M00 Q1025;EQDQ01+000000PRSWM2
0091036913999992000010909504+51570+000700FM-15+0015EGMC V0202701N00311220001CN0099001N1+00301+00001999999ADDMA1102611999999MW1001REMMET039EGMC 090950Z 27006KT CAVOK 03/00 Q1026;EQDQ01+000000PRSWM2
0091036913999992000010910504+51570+000700FM-15+0015EGMC V0203001N00411220001CN0099001N1+00401+00001999999ADDMA1102711999999MW1001REMMET039EGMC 091050Z 30008KT CAVOK 04/00 Q1027;EQDQ01+000000PRSWM2
0091036913999992000010911504+51570+000700FM-15+0015EGMC V0202901N00411220001CN0099001N1+00501+00101999999ADDMA1102711999999MW1001REMMET039EGMC 091150Z 29008KT CAVOK 05/01 Q1027;EQDQ01+000000PRSWM2
0091036913999992000010912504+51570+000700FM-15+0015EGMC V0202901N00411220001CN0099001N1+00601+00101999999ADDMA1102711999999MW1001REMMET039EGMC 091250Z 29008KT CAVOK 06/01 Q1027;EQDQ01+000000PRSWM2
0091036913999992000010913504+51570+000700FM-15+0015EGMC V0203001N00361220001CN0099001N1+00601+00101999999ADDMA1102811999999MW1001REMMET039EGMC 091350Z 30007KT CAVOK 06/01 Q1028;EQDQ01+000000PRSWM2
0091036913999992000010914504+51570+000700FM-15+0015EGMC V0203001N00101220001CN0099001N1+00601+00001999999ADDMA1102811999999MW1001REMMET039EGMC 091450Z 30002KT CAVOK 06/00 Q1028;EQDQ01+000000PRSWM2
0091036913999992000010915504+51570+000700FM-15+0015EGMC V0203001N00211220001CN0099001N1+00501+00001999999ADDMA1102911999999MW1001REMMET039EGMC 091550Z 30004KT CAVOK 05/00 Q1029;EQDQ01+000000PRSWM2
0092036913999992000010917504+51570+000700FM-15+0015EGMC V0202701N00051220001CN0099001N1+00301-00101999999ADDMA1103121999999MW1001REMMET040EGMC 091750Z 27001KT CAVOK 03/M01 Q1031;EQDQ01+000000PRSWM2
0092036913999992000010919204+51570+000700FM-15+0015EGMC V0202701N00101220001CN0099001N1+00201-00101999999ADDMA1103121999999MW1001REMMET040EGMC 091920Z 27002KT CAVOK 02/M01 Q1031;EQDQ01+000000PRSWM2
0092036913999992000010919504+51570+000700FM-15+0015EGMC V0209999C00001220001CN0099001N1+00101-00101999999ADDMA1103121999999MW1001REMMET040EGMC 091950Z 00000KT CAVOK 01/M01 Q1031;EQDQ01+000000PRSWM2
0092036913999992000010920504+51570+000700FM-15+0015EGMC V0202601N00101220001CN0099001N1+00201-00101999999ADDMA1103181999999MW1001REMMET040EGMC 092050Z 26002KT CAVOK 02/M01 Q1032;EQDQ01+000000PRSWM2
0092036913999992000010921504+51570+000700FM-15+0015EGMC V0202701N00151220001CN0099001N1+00201-00101999999ADDMA1103291999999MW1001REMMET040EGMC 092150Z 27003KT CAVOK 02/M01 Q1033;EQDQ01+000000PRSWM2
0092036913999992000010923504+51570+000700FM-15+0015EGMC V0202501N00151220001CN0099001N1+00101-00101999999ADDMA1103291999999MW1001REMMET040EGMC 092350Z 25003KT CAVOK 01/M01 Q1033;EQDQ01+000000PRSWM2
0092036913999992000011001204+51570+000700FM-15+0015EGMC V0202201N00151220001CN0099001N1+00101-00101999999ADDMA1103391999999MW1001REMMET040EGMC 100120Z 22003KT CAVOK 01/M01 Q1034;EQDQ01+000000PRSWM2
0092036913999992000011001504+51570+000700FM-15+0015EGMC V0209999C00001220001CN0099001N1+00001-00101999999ADDMA1103391999999MW1001REMMET040EGMC 100150Z 00000KT CAVOK 00/M01 Q1034;EQDQ01+000000PRSWM2
0093036913999992000011004204+51570+000700FM-15+0015EGMC V0209999C00001220001CN0099001N1-00101-00201999999ADDMA1103391999999MW1001REMMET041EGMC 100420Z 00000KT CAVOK M01/M02 Q1034;EQDQ01+000000PRSWM2
0093036913999992000011004504+51570+000700FM-15+0015EGMC V0209999C00001220001CN0099001N1+00001-00201999999ADDMA1103391999999MW1001REMMET041EGMC 100450Z 00000KT CAVOK M00/M02 Q1034;EQDQ01+000000PRSWM2
0091036913999992000011005504+51570+000700FM-15+0015EGMC V0209999C00001220001CN0099001N1-00201+99999999999ADDMA1103491999999MW1001REMMET039EGMC 100550Z 00000KT CAVOK M02// Q1035;EQDQ01+000000PRSWM2
0092036913999992000011006504+51570+000700FM-15+0015EGMC V0209999C00001220001CN0099001N1+00001-00201999999ADDMA1103491999999MW1001REMMET040EGMC 100650Z 00000KT CAVOK 00/M02 Q1035;EQDQ01+000000PRSWM2
0140036913999992000011007504+51570+000700FM-15+0015EGMC V0209999C000012200019N0080001N1+00001-00201999999ADDGA1021+075009999GF102991999999999999999999MA1103491999999MW1001REMMET046EGMC 100750Z 00000KT 8000 FEW250 00/M02 Q1035;EQDQ01+000000PRSWM2
0092036913999992000011008504+51570+000700FM-15+0015EGMC V0209999C00001220001CN0099001N1-00101+99999999999ADDMA1103591999999MW1001REMMET040EGMC 100850Z 00000KT CAVOK M01/// Q1036;EQDQ01+000000PRSWM2
0092036913999992000011009504+51570+000700FM-15+0015EGMC V0202201N00311220001CN0099001N1+00201-00201999999ADDMA1103591999999MW1001REMMET040EGMC 100950Z 22006KT CAVOK 02/M02 Q1036;EQDQ01+000000PRSWM2
0091036913999992000011010504+51570+000700FM-15+0015EGMC V0202001N00311220001CN0099001N1+00401+00001999999ADDMA1103591999999MW1001REMMET039EGMC 101050Z 20006KT CAVOK 04/00 Q1036;EQDQ01+000000PRSWM2
0091036913999992000011012204+51570+000700FM-15+0015EGMC V0202201N00511220001CN0099001N1+00601+00201999999ADDMA1103491999999MW1001REMMET039EGMC 101220Z 22010KT CAVOK 06/02 Q1035;EQDQ01+000000PRSWM2
0091036913999992000011012504+51570+000700FM-15+0015EGMC V0202201N00411220001CN0099001N1+00601+00101999999ADDMA1103491999999MW1001REMMET039EGMC 101250Z 22008KT CAVOK 06/01 Q1035;EQDQ01+000000PRSWM2
0091036913999992000011013504+51570+000700FM-15+0015EGMC V0202201N00621220001CN0099001N1+00601+00101999999ADDMA1103391999999MW1001REMMET039EGMC 101350Z 22012KT CAVOK 06/01 Q1034;EQDQ01+000000PRSWM2
0091036913999992000011014504+51570+000700FM-15+0015EGMC V0202201N00571220001CN0099001N1+00601+00101999999ADDMA1103391999999MW1001REMMET039EGMC 101450Z 22011KT CAVOK 06/01 Q1034;EQDQ01+000000PRSWM2
0091036913999992000011015504+51570+000700FM-15+0015EGMC V0202201N00261220001CN0099001N1+00601+00201999999ADDMA1103391999999MW1001REMMET039EGMC 101550Z 22005KT CAVOK 06/02 Q1034;EQDQ01+000000PRSWM2
0091036913999992000011017204+51570+000700FM-15+0015EGMC V0202001N00211220001CN0099001N1+00501+00201999999ADDMA1103391999999MW1001REMMET039EGMC 101720Z 20004KT CAVOK 05/02 Q1034;EQDQ01+000000PRSWM2
0091036913999992000011017504+51570+000700FM-15+0015EGMC V0202001N00311220001CN0099001N1+00501+00201999999ADDMA1103391999999MW1001REMMET039EGMC 101750Z 20006KT CAVOK 05/02 Q1034;EQDQ01+000000PRSWM2
0091036913999992000011018504+51570+000700FM-15+0015EGMC V0202001N00411220001CN0099001N1+00501+00201999999ADDMA1103391999999MW1001REMMET039EGMC 101850Z 20008KT CAVOK 05/02 Q1034;EQDQ01+000000PRSWM2
0091036913999992000011019504+51570+000700FM-15+0015EGMC V0202101N00361220001CN0099001N1+00501+00201999999ADDMA1103391999999MW1001REMMET039EGMC 101950Z 21007KT CAVOK 05/02 Q1034;EQDQ01+000000PRSWM2
0091036913999992000011020504+51570+000700FM-15+0015EGMC V0202201N00361220001CN0099001N1+00501+00201999999ADDMA1103391999999MW1001REMMET039EGMC 102050Z 22007KT CAVOK 05/02 Q1034;EQDQ01+000000PRSWM2
0091036913999992000011021504+51570+000700FM-15+0015EGMC V0202101N00461220001CN0099001N1+00501+00301999999ADDMA1103391999999MW1001REMMET039EGMC 102150Z 21009KT CAVOK 05/03 Q1034;EQDQ01+000000PRSWM2
0091036913999992000011022504+51570+000700FM-15+0015EGMC V0202101N00461220001CN0099001N1+00501+00301999999ADDMA1103391999999MW1001REMMET039EGMC 102250Z 21009KT CAVOK 05/03 Q1034;EQDQ01+000000PRSWM2
0091036913999992000011023504+51570+000700FM-15+0015EGMC V0202101N00511220001CN0099001N1+00601+00301999999ADDMA1103391999999MW1001REMMET039EGMC 102350Z 21010KT CAVOK 06/03 Q1034;EQDQ01+000000PRSWM2
0091036913999992000011100504+51570+000700FM-15+0015EGMC V0202201N00621220001CN0099001N1+00601+00401999999ADDMA1103391999999MW1001REMMET039EGMC 110050Z 22012KT CAVOK 06/04 Q1034;EQDQ01+000000PRSWM2
0091036913999992000011101504+51570+000700FM-15+0015EGMC V0202201N00621220001CN0099001N1+00601+00401999999ADDMA1103391999999MW1001REMMET039EGMC 110150Z 22012KT CAVOK 06/04 Q1034;EQDQ01+000000PRSWM2
0091036913999992000011103204+51570+000700FM-15+0015EGMC V0202201N00621220001CN0099001N1+00701+00401999999ADDMA1103391999999MW1001REMMET039EGMC 110320Z 22012KT CAVOK 07/04 Q1034;EQDQ01+000000PRSWM2
0091036913999992000011104204+51570+000700FM-15+0015EGMC V0202201N00571220001CN0099001N1+00701+00501999999ADDMA1103291999999MW1001REMMET039EGMC 110420Z 22011KT CAVOK 07/05 Q1033;EQDQ01+000000PRSWM2
0075036913999992000011105504+51570+000700FM-15+0015EGMC V0202201N00721220001CN0099001N1+00701+00501999999ADDMW1001REMMET038EGMC 110550Z 22014KT CAVOK 07/05 1033;EQDQ01+000000PRSWM2
0091036913999992000011107204+51570+000700FM-15+0015EGMC V0202201N00571220001CN0099001N1+00701+00501999999ADDMA1103291999999MW1001REMMET039EGMC 110720Z 22011KT CAVOK 07/05 Q1033;EQDQ01+000000PRSWM2
0162036913999992000011108204+51570+000700FM-15+0015EGMC V0202101N005110180019N0112651N1+00701+00501999999ADDGA1021+009009999GA2071+018009999GF107991999999999999999999MA1103391999999MW1001REMMET052EGMC 110820Z 21010KT 9999 FEW030 BKN060 07/05 Q1034;EQDQ01+000000PRSWM2
0091036913999992000011108504+51570+000700FM-15+0015EGMC V0202101N00671220001CN0099001N1+00701+00501999999ADDMA1103291999999MW1001REMMET039EGMC 110850Z 21013KT CAVOK 07/05 Q1033;EQDQ01+000000PRSWM2
0091036913999992000011109504+51570+000700FM-15+0015EGMC V0202201N00621220001CN0099001N1+00801+00601999999ADDMA1103291999999MW1001REMMET039EGMC 110950Z 22012KT CAVOK 08/06 Q1033;EQDQ01+000000PRSWM2
0139036913999992000011110504+51570+000700FM-15+0015EGMC V0202201N006712200019N0112651N1+00801+00601999999ADDGA1021+003909999GF104991999999999999999999MA1103291999999MW1001REMMET045EGMC 111050Z 22013KT 9999 SCT013 08/06 Q1033;EQDQ01+000000PRSWM2
0162036913999992000011111504+51570+000700FM-15+0015EGMC V0202201N007210048019N0112651N1+00901+00601999999ADDGA1021+003909999GA2071+004809999GF107991999999999999999999MA1103291999999MW1001REMMET052EGMC 111150Z 22014KT 9999 FEW013 BKN016 09/06 Q1033;EQDQ01+000000PRSWM2
0139036913999992000011112504+51570+000700FM-15+0015EGMC V0202201N006710048019N0112651N1+00901+00601999999ADDGA1071+004809999GF107991999999999999999999MA1103291999999MW1001REMMET045EGMC 111250Z 22013KT 9999 BKN016 09/06 Q1033;EQDQ01+000000PRSWM2
0162036913999992000011114204+51570+000700FM-15+0015EGMC V0202101N006210135019N0112651N1+00901+00501999999ADDGA1021+004209999GA2071+013509999GF107991999999999999999999MA1103181999999MW1001REMMET052EGMC 111420Z 21012KT 9999 SCT014 BKN045 09/05 Q1032;EQDQ01+000000PRSWM2
0139036913999992000011114504+51570+000700FM-15+0015EGMC V0202201N006210051019N0112651N1+00901+00501999999ADDGA1071+005109999GF107991999999999999999999MA1103181999999MW1001REMMET045EGMC 111450Z 22012KT 9999 BKN017 09/05 Q1032;EQDQ01+000000PRSWM2
0162036913999992000011115504+51570+000700FM-15+0015EGMC V0202201N007210069019N0112651N1+00901+00501999999ADDGA1021+005409999GA2071+006909999GF107991999999999999999999MA1103181999999MW1001REMMET052EGMC 111550Z 22014KT 9999 FEW018 BKN023 09/05 Q1032;EQDQ01+000000PRSWM2
0162036913999992000011116504+51570+000700FM-15+0015EGMC V0202201N006710120019N0112651N1+00901+00501999999ADDGA1021+004809999GA2071+012009999GF107991999999999999999999MA1103121999999MW1001REMMET052EGMC 111650Z 22013KT 9999 SCT016 BKN040 09/05 Q1031;EQDQ01+000000PRSWM2
0162036913999992000011117504+51570+000700FM-15+0015EGMC V0202201N007710105019N0112651N1+00901+00501999999ADDGA1021+005409999GA2071+010509999GF107991999999999999999999MA1103121999999MW1001REMMET052EGMC 111750Z 22015KT 9999 SCT018 BKN035 09/05 Q1031;EQDQ01+000000PRSWM2
0162036913999992000011118504+51570+000700FM-15+0015EGMC V0202201N006210135019N0112651N1+00801+00601999999ADDGA1021+006009999GA2071+013509999GF107991999999999999999999MA1103121999999MW1001REMMET052EGMC 111850Z 22012KT 9999 FEW020 BKN045 08/06 Q1031;EQDQ01+000000PRSWM2
0162036913999992000011119504+51570+000700FM-15+0015EGMC V0202101N006710144019N0112651N1+00801+00601999999ADDGA1021+006009999GA2071+014409999GF107991999999999999999999MA1103121999999MW1001REMMET052EGMC 111950Z 21013KT 9999 SCT020 BKN048 08/06 Q1031;EQDQ01+000000PRSWM2
0162036913999992000011120504+51570+000700FM-15+0015EGMC V0202101N007212200019N0112651N1+00801+00501999999ADDGA1021+006009999GA2021+015009999GF104991999999999999999999MA1103011999999MW1001REMMET052EGMC 112050Z 21014KT 9999 FEW020 SCT050 08/05 Q1030;EQDQ01+000000PRSWM2
0091036913999992000011121504+51570+000700FM-15+0015EGMC V0202001N00621220001CN0099001N1+00701+00501999999ADDMA1103011999999MW1001REMMET039EGMC 112150Z 20012KT CAVOK 07/05 Q1030;EQDQ01+000000PRSWM2
0162036913999992000011123204+51570+000700FM-15+0015EGMC V0202101N006710135019N0112651N1+00701+00401999999ADDGA1021+004509999GA2071+013509999GF107991999999999999999999MA1103011999999MW1001REMMET052EGMC 112320Z 21013KT 9999 SCT015 BKN045 07/04 Q1030;EQDQ01+000000PRSWM2
0162036913999992000011200204+51570+000700FM-15+0015EGMC V0202101N007210045019N0112651N1+00701+00501999999ADDGA1021+003609999GA2071+004509999GF107991999999999999999999MA1102911999999MW1001REMMET052EGMC 120020Z 21014KT 9999 SCT012 BKN015 07/05 Q1029;EQDQ01+000000PRSWM2
0162036913999992000011200504+51570+000700FM-15+0015EGMC V0202101N007710045019N0112651N1+00701+00501999999ADDGA1021+003609999GA2071+004509999GF107991999999999999999999MA1102911999999MW1001REMMET052EGMC 120050Z 21015KT 9999 SCT012 BKN015 07/05 Q1029;EQDQ01+000000PRSWM2
0162036913999992000011203204+51570+000700FM-15+0015EGMC V0202101N007210060019N0112651N1+00701+00501999999ADDGA1021+005109999GA2071+006009999GF107991999999999999999999MA1102711999999MW1001REMMET052EGMC 120320Z 21014KT 9999 SCT017 BKN020 07/05 Q1027;EQDQ01+000000PRSWM2
0162036913999992000011204204+51570+000700FM-15+0015EGMC V0202101N006710120019N0112651N1+00701+00501999999ADDGA1021+005109999GA2071+012009999GF107991999999999999999999MA1102711999999MW1001REMMET052EGMC 120420Z 21013KT 9999 SCT017 BKN040 07/05 Q1027;EQDQ01+000000PRSWM2
0162036913999992000011205204+51570+000700FM-15+0015EGMC V0202101N006710114019N0112651N1+00701+00501999999ADDGA1021+005109999GA2071+011409999GF107991999999999999999999MA1102611999999MW1001REMMET052EGMC 120520Z 21013KT 9999 SCT017 BKN038 07/05 Q1026;EQDQ01+000000PRSWM2
0162036913999992000011206504+51570+000700FM-15+0015EGMC V0202101N008210135019N0112651N1+00701+00401999999ADDGA1021+004209999GA2071+013509999GF107991999999999999999999MA1102511999999MW1001REMMET052EGMC 120650Z 21016KT 9999 SCT014 BKN045 07/04 Q1025;EQDQ01+000000PRSWM2
0162036913999992000011207504+51570+000700FM-15+0015EGMC V0202201N008210045019N0112651N1+00701+00401999999ADDGA1071+004509999GA2071+012609999GF107991999999999999999999MA1102511999999MW1001REMMET052EGMC 120750Z 22016KT 9999 BKN015 BKN042 07/04 Q1025;EQDQ01+000000PRSWM2
0162036913999992000011208504+51570+000700FM-15+0015EGMC V0202001N007710036019N0080001N1+00701+00401999999ADDGA1071+003609999GA2071+012009999GF107991999999999999999999MA1102511999999MW1001REMMET052EGMC 120850Z 20015KT 8000 BKN012 BKN040 07/04 Q1025;EQDQ01+000000PRSWM2
0162036913999992000011210204+51570+000700FM-15+0015EGMC V0202001N006210048019N0080001N1+00701+00401999999ADDGA1021+003909999GA2071+004809999GF107991999999999999999999MA1102511999999MW1001REMMET052EGMC 121020Z 20012KT 8000 SCT013 BKN016 07/04 Q1025;EQDQ01+000000PRSWM2
0162036913999992000011210504+51570+000700FM-15+0015EGMC V0202101N009310120019N0080001N1+00701+00401999999ADDGA1021+003909999GA2071+012009999GF107991999999999999999999MA1102511999999MW1001REMMET052EGMC 121050Z 21018KT 8000 SCT013 BKN040 07/04 Q1025;EQDQ01+000000PRSWM2
0162036913999992000011211504+51570+000700FM-15+0015EGMC V0202001N008710045019N0090001N1+00701+00401999999ADDGA1071+004509999GA2071+012009999GF107991999999999999999999MA1102401999999MW1001REMMET052EGMC 121150Z 20017KT 9000 BKN015 BKN040 07/04 Q1024;EQDQ01+000000PRSWM2
0162036913999992000011212504+51570+000700FM-15+0015EGMC V0202001N007210048019N0090001N1+00701+00401999999ADDGA1071+004809999GA2071+012009999GF107991999999999999999999MA1102301999999MW1001REMMET052EGMC 121250Z 20014KT 9000 BKN016 BKN040 07/04 Q1023;EQDQ01+000000PRSWM2
0162036913999992000011213504+51570+000700FM-15+0015EGMC V0202001N006710126019N0090001N1+00801+00401999999ADDGA1021+005409999GA2071+012609999GF107991999999999999999999MA1102201999999MW1001REMMET052EGMC 121350Z 20013KT 9000 FEW018 BKN042 08/04 Q1022;EQDQ01+000000PRSWM2
0162036913999992000011214504+51570+000700FM-15+0015EGMC V0202101N006710129019N0112651N1+00801+00401999999ADDGA1021+006009999GA2071+012909999GF107991999999999999999999MA1102201999999MW1001REMMET052EGMC 121450Z 21013KT 9999 SCT020 BKN043 08/04 Q1022;EQDQ01+000000PRSWM2
0162036913999992000011215504+51570+000700FM-15+0015EGMC V0202101N009310450019N0112651N1+00701+00301999999ADDGA1021+006009999GA2071+045009999GF107991999999999999999999MA1102201999999MW1001REMMET052EGMC 121550Z 21018KT 9999 SCT020 BKN150 07/03 Q1022;EQDQ01+000000PRSWM2
0162036913999992000011216504+51570+000700FM-15+0015EGMC V0202101N008210750019N0112651N1+00701+00301999999ADDGA1021+006009999GA2071+075009999GF107991999999999999999999MA1102101999999MW1001REMMET052EGMC 121650Z 21016KT 9999 SCT020 BKN250 07/03 Q1021;EQDQ01+000000PRSWM2
0162036913999992000011217504+51570+000700FM-15+0015EGMC V0202101N008210750019N0112651N1+00601+00301999999ADDGA1021+006009999GA2071+075009999GF107991999999999999999999MA1102001999999MW1001REMMET052EGMC 121750Z 21016KT 9999 SCT020 BKN250 06/03 Q1020;EQDQ01+000000PRSWM2
0139036913999992000011218504+51570+000700FM-15+0015EGMC V0202201N009310060019N0112651N1+00601+00201999999ADDGA1071+006009999GF107991999999999999999999MA1102001999999MW1001REMMET045EGMC 121850Z 22018KT 9999 BKN020 06/02 Q1020;EQDQ01+000000PRSWM2
0139036913999992000011219504+51570+000700FM-15+0015EGMC V0202201N010310054019N0112651N1+00601+00201999999ADDGA1071+005409999GF107991999999999999999999MA1102001999999MW1001REMMET045EGMC 121950Z 22020KT 9999 BKN018 06/02 Q1020;EQDQ01+000000PRSWM2
0162036913999992000011221204+51570+000700FM-15+0015EGMC V0202201N011310045019N0112651N1+00501+00201999999ADDGA1071+004509999GA2081+005409999GF108991999999999999999999MA1101901999999MW1001REMMET052EGMC 122120Z 22022KT 9999 BKN015 OVC018 05/02 Q1019;EQDQ01+000000PRSWM2
0162036913999992000011222204+51570+000700FM-15+0015EGMC V0202101N008210450019N0112651N1+00401+00001999999ADDGA1021+004509999GA2071+045009999GF107991999999999999999999MA1101801999999MW1001REMMET052EGMC 122220Z 21016KT 9999 SCT015 BKN150 04/00 Q1018;EQDQ01+000000PRSWM2
0162036913999992000011222504+51570+000700FM-15+0015EGMC V0202001N009312200019N0112651N1+00401+00001999999ADDGA1021+004509999GA2021+045009999GF104991999999999999999999MA1101801999999MW1001REMMET052EGMC 122250Z 20018KT 9999 FEW015 SCT150 04/00 Q1018;EQDQ01+000000PRSWM2
0162036913999992000011223504+51570+000700FM-15+0015EGMC V0202101N008212200019N0112651N1+00401+00001999999ADDGA1021+004509999GA2021+005109999GF104991999999999999999999MA1101691999999MW1001REMMET052EGMC 122350Z 21016KT 9999 FEW015 SCT017 04/00 Q1017;EQDQ01+000000PRSWM2
0162036913999992000011300504+51570+000700FM-15+0015EGMC V0202001N009310051019N0112651N1+00401+00001999999ADDGA1021+004209999GA2071+005109999GF107991999999999999999999MA1101691999999MW1001REMMET052EGMC 130050Z 20018KT 9999 SCT014 BKN017 04/00 Q1017;EQDQ01+000000PRSWM2
0162036913999992000011301504+51570+000700FM-15+0015EGMC V0202001N007710045019N0112651N1+00401+00101999999ADDGA1021+003909999GA2071+004509999GF107991999999999999999999MA1101491999999MW1001REMMET052EGMC 130150Z 20015KT 9999 FEW013 BKN015 04/01 Q1015;EQDQ01+000000PRSWM2
0139036913999992000011302504+51570+000700FM-15+0015EGMC V0201901N006210042019N0090001N1+00501+00101999999ADDGA1081+004209999GF108991999999999999999999MA1101491999999MW1001REMMET045EGMC 130250Z 19012KT 9000 OVC014 05/01 Q1015;EQDQ01+000000PRSWM2
0139036913999992000011303504+51570+000700FM-15+0015EGMC V0201901N006710039019N0090001N1+00501+00301999999ADDGA1081+003909999GF108991999999999999999999MA1101491999999MW1001REMMET045EGMC 130350Z 19013KT 9000 OVC013 05/03 Q1015;EQDQ01+000000PRSWM2
0139036913999992000011304504+51570+000700FM-15+0015EGMC V0202001N008210024019N0080001N1+00501+00301999999ADDGA1081+002409999GF108991999999999999999999MA1101391999999MW1001REMMET045EGMC 130450Z 20016KT 8000 OVC008 05/03 Q1014;EQDQ01+000000PRSWM2
0159036913999992000011305504+51570+000700FM-15+0015EGMC V0202001N006210024019N0080001N1+00501+00301999999ADDGA1081+002409999GF108991999999999999999999MA1101291999999MW1511REMMET049EGMC 130550Z 20012KT 8000 -DZ OVC008 05/03 Q1013;EQDQ01+000003PRSWM1Q02    003PRSWM1
0139036913999992000011306504+51570+000700FM-15+0015EGMC V0201901N004610024019N0112651N1+00501+00401999999ADDGA1081+002409999GF108991999999999999999999MA1101291999999MW1001REMMET045EGMC 130650Z 19009KT 9999 OVC008 05/04 Q1013;EQDQ01+000000PRSWM2
0139036913999992000011307504+51570+000700FM-15+0015EGMC V0202001N005110021019N0112651N1+00601+00401999999ADDGA1081+002109999GF108991999999999999999999MA1101291999999MW1001REMMET045EGMC 130750Z 20010KT 9999 OVC007 06/04 Q1013;EQDQ01+000000PRSWM2
0182036913999992000011308504+51570+000700FM-15+0015EGMC V0202101N005110018019N0060001N1+00601+00401999999ADDGA1071+001809999GA2081+002709999GF108991999999999999999999MA1101291999999MW1611REMMET056EGMC 130850Z 21010KT 6000 -RA BKN006 OVC009 06/04 Q1013;EQDQ01+000003PRSWM1Q02    003PRSWM1
0182036913999992000011309504+51570+000700FM-15+0015EGMC V0202201N004110018019N0070001N1+00601+00401999999ADDGA1071+001809999GA2081+002709999GF108991999999999999999999MA1101291999999MW1611REMMET056EGMC 130950Z 22008KT 7000 -RA BKN006 OVC009 06/04 Q1013;EQDQ01+000003PRSWM1Q02    003PRSWM1
0182036913999992000011310504+51570+000700FM-15+0015EGMC V0203101N004110024019N0090001N1+00301+00101999999ADDGA1071+002409999GA2071+004809999GF107991999999999999999999MA1101391999999MW1611REMMET056EGMC 131050Z 31008KT 9000 -RA BKN008 BKN016 03/01 Q1014;EQDQ01+000003PRSWM1Q02    003PRSWM1
0162036913999992000011311504+51570+000700FM-15+0015EGMC V0203201N004110030019N0112651N1+00301+00101999999ADDGA1071+003009999GA2071+003609999GF107991999999999999999999MA1101391999999MW1001REMMET052EGMC 131150Z 32008KT 9999 BKN010 BKN012 03/01 Q1014;EQDQ01+000000PRSWM2
0162036913999992000011312504+51570+000700FM-15+0015EGMC V0203301N005110030019N0112651N1+00301+00101999999ADDGA1071+003009999GA2071+003609999GF107991999999999999999999MA1101391999999MW1001REMMET052EGMC 131250Z 33010KT 9999 BKN010 BKN012 03/01 Q1014;EQDQ01+000000PRSWM2
0162036913999992000011313504+51570+000700FM-15+0015EGMC V0203301N003110030019N0112651N1+00301+00101999999ADDGA1071+003009999GA2071+004509999GF107991999999999999999999MA1101391999999MW1001REMMET052EGMC 131350Z 33006KT 9999 BKN010 BKN015 03/01 Q1014;EQDQ01+000000PRSWM2
0162036913999992000011315204+51570+000700FM-15+0015EGMC V0203301N002610027019N0112651N1+00301+00201999999ADDGA1071+002709999GA2081+003609999GF108991999999999999999999MA1101391999999MW1001REMMET052EGMC 131520Z 33005KT 9999 BKN009 OVC012 03/02 Q1014;EQDQ01+000000PRSWM2
0162036913999992000011315504+51570+000700FM-15+0015EGMC V0203301N003610027019N0112651N1+00401+00101999999ADDGA1071+002709999GA2081+003909999GF108991999999999999999999MA1101391999999MW1001REMMET052EGMC 131550Z 33007KT 9999 BKN009 OVC013 04/01 Q1014;EQDQ01+000000PRSWM2
0162036913999992000011316504+51570+000700FM-15+0015EGMC V0203301N003110039019N0112651N1+00401+00101999999ADDGA1021+003009999GA2081+003909999GF108991999999999999999999MA1101491999999MW1001REMMET052EGMC 131650Z 33006KT 9999 SCT010 OVC013 04/01 Q1015;EQDQ01+000000PRSWM2
0162036913999992000011317504+51570+000700FM-15+0015EGMC V0203201N003610075019N0112651N1+00401+00101999999ADDGA1021+004509999GA2071+007509999GF107991999999999999999999MA1101491999999MW1001REMMET052EGMC 131750Z 32007KT 9999 FEW015 BKN025 04/01 Q1015;EQDQ01+000000PRSWM2
0162036913999992000011318504+51570+000700FM-15+0015EGMC V0203301N003110087019N0112651N1+00301+00001999999ADDGA1021+006909999GA2071+008709999GF107991999999999999999999MA1101591999999MW1001REMMET052EGMC 131850Z 33006KT 9999 SCT023 BKN029 03/00 Q1016;EQDQ01+000000PRSWM2
0162036913999992000011319504+51570+000700FM-15+0015EGMC V0203301N003110150019N0112651N1+00301+00001999999ADDGA1021+009009999GA2071+015009999GF107991999999999999999999MA1101591999999MW1001REMMET052EGMC 131950Z 33006KT 9999 SCT030 BKN050 03/00 Q1016;EQDQ01+000000PRSWM2
0075036913999992000011321004+51570+000700FM-15+0015EGMC V02099999999992200019N0080001N1+99999+99999999999ADDMW1001REMMET038EGMC 13250Z 33007KT CAVOK 03/00 Q1017;EQDQ01+000000PRSWM2
0092036913999992000011321504+51570+000700FM-15+0015EGMC V0203201N00261220001CN0099001N1+00101-00101999999ADDMA1101691999999MW1001REMMET040EGMC 132150Z 32005KT CAVOK 01/M01 Q1017;EQDQ01+000000PRSWM2
0092036913999992000011322504+51570+000700FM-15+0015EGMC V0203001N00151220001CN0099001N1+00101-00101999999ADDMA1101691999999MW1001REMMET040EGMC 132250Z 30003KT CAVOK 01/M01 Q1017;EQDQ01+000000PRSWM2
0092036913999992000011323504+51570+000700FM-15+0015EGMC V0203201N00261220001CN0099001N1+00001-00201999999ADDMA1101801999999MW1001REMMET040EGMC 132350Z 32005KT CAVOK 00/M02 Q1018;EQDQ01+000000PRSWM2
0092036913999992000011400504+51570+000700FM-15+0015EGMC V0203201N00211220001CN0099001N1+00001-00201999999ADDMA1101801999999MW1001REMMET040EGMC 140050Z 32004KT CAVOK 00/M02 Q1018;EQDQ01+000000PRSWM2
0163036913999992000011401504+51570+000700FM-15+0015EGMC V0203201N002110084019N0112651N1+00101-00201999999ADDGA1021+006009999GA2071+008409999GF107991999999999999999999MA1101801999999MW1001REMMET053EGMC 140150Z 32004KT 9999 SCT020 BKN028 01/M02 Q1018;EQDQ01+000000PRSWM2
0163036913999992000011402504+51570+000700FM-15+0015EGMC V0203201N002110084019N0112651N1+00101-00201999999ADDGA1021+006009999GA2071+008409999GF107991999999999999999999MA1101801999999MW1001REMMET053EGMC 140250Z 32004KT 9999 SCT020 BKN028 01/M02 Q1018;EQDQ01+000000PRSWM2
0163036913999992000011403504+51570+000700FM-15+0015EGMC V0203201N001510048019N0112651N1+00201+00001999999ADDGA1021+002409999GA2071+004809999GF107991999999999999999999MA1101901999999MW1001REMMET053EGMC 140350Z 32003KT 9999 SCT008 BKN016 02/M00 Q1019;EQDQ01+000000PRSWM2
0139036913999992000011404504+51570+000700FM-15+0015EGMC V0203301N003610018019N0080001N1+00201+00001999999ADDGA1071+001809999GF107991999999999999999999MA1101901999999MW1001REMMET045EGMC 140450Z 33007KT 8000 BKN006 02/00 Q1019;EQDQ01+000000PRSWM2
0185036913999992000011405504+51570+000700FM-15+0015EGMC V0203301N002610075019N0080001N1+00201+00001999999ADDGA1021+001809999GA2021+004209999GA3071+007509999GF107991999999999999999999MA1101901999999MW1001REMMET059EGMC 140550Z 33005KT 8000 FEW006 SCT014 BKN025 02/00 Q1019;EQDQ01+000000PRSWM2
0185036913999992000011406504+51570+000700FM-15+0015EGMC V0203301N001510180019N0090001N1+00201+00001999999ADDGA1021+004209999GA2021+007509999GA3071+018009999GF107991999999999999999999MA1102001999999MW1001REMMET059EGMC 140650Z 33003KT 9000 FEW014 SCT025 BKN060 02/00 Q1020;EQDQ01+000000PRSWM2
0162036913999992000011407504+51570+000700FM-15+0015EGMC V0203401N003112200019N0070001N1+00101+00001999999ADDGA1021+001809999GA2021+021009999GF104991999999999999999999MA1102101999999MW1001REMMET052EGMC 140750Z 34006KT 7000 SCT006 SCT070 01/00 Q1021;EQDQ01+000000PRSWM2
0158036913999992000011408504+51570+000700FM-15+0015EGMC V0203401N003610015019N0050001N1+00201+00101999999ADDGA1071+001509999GF107991999999999999999999MA1102101999999MW1051REMMET048EGMC 140850Z 34007KT 5000 HZ BKN005 02/01 Q1021;EQDQ01+000003PRSWM1Q02    003PRSWM1
0091036913999992000011409504+51570+000700FM-15+0015EGMC V0203401N00311220001CN0099001N1+00301+00101999999ADDMA1102201999999MW1001REMMET039EGMC 140950Z 34006KT CAVOK 03/01 Q1022;EQDQ01+000000PRSWM2
0091036913999992000011410504+51570+000700FM-15+0015EGMC V0203301N00311220001CN0099001N1+00401+00001999999ADDMA1102201999999MW1001REMMET039EGMC 141050Z 33006KT CAVOK 04/00 Q1022;EQDQ01+000000PRSWM2
0139036913999992000011411504+51570+000700FM-15+0015EGMC V0203301N002612200019N0112651N1+00501+00201999999ADDGA1021+003009999GF102991999999999999999999MA1102201999999MW1001REMMET045EGMC 141150Z 33005KT 9999 FEW010 05/02 Q1022;EQDQ01+000000PRSWM2
0139036913999992000011412504+51570+000700FM-15+0015EGMC V0203301N004112200019N0112651N1+00501+00201999999ADDGA1021+003009999GF102991999999999999999999MA1102201999999MW1001REMMET045EGMC 141250Z 33008KT 9999 FEW010 05/02 Q1022;EQDQ01+000000PRSWM2
0139036913999992000011413504+51570+000700FM-15+0015EGMC V0203301N004112200019N0112651N1+00501+00101999999ADDGA1021+004209999GF102991999999999999999999MA1102201999999MW1001REMMET045EGMC 141350Z 33008KT 9999 FEW014 05/01 Q1022;EQDQ01+000000PRSWM2
0162036913999992000011415204+51570+000700FM-15+0015EGMC V0203301N004112200019N0112651N1+00501+00201999999ADDGA1021+005409999GA2021+007509999GF104991999999999999999999MA1102301999999MW1001REMMET052EGMC 141520Z 33008KT 9999 FEW018 SCT025 05/02 Q1023;EQDQ01+000000PRSWM2
0162036913999992000011415504+51570+000700FM-15+0015EGMC V0203201N004110078019N0112651N1+00501+00201999999ADDGA1021+005409999GA2071+007809999GF107991999999999999999999MA1102301999999MW1001REMMET052EGMC 141550Z 32008KT 9999 FEW018 BKN026 05/02 Q1023;EQDQ01+000000PRSWM2
0162036913999992000011416504+51570+000700FM-15+0015EGMC V0203101N002610078019N0112651N1+00401+00101999999ADDGA1021+004809999GA2071+007809999GF107991999999999999999999MA1102301999999MW1001REMMET052EGMC 141650Z 31005KT 9999 SCT016 BKN026 04/01 Q1023;EQDQ01+000000PRSWM2
0185036913999992000011418204+51570+000700FM-15+0015EGMC V0203001N002610060019N0112651N1+00501+00201999999ADDGA1021+003009999GA2021+005109999GA3071+006009999GF107991999999999999999999MA1102401999999MW1001REMMET059EGMC 141820Z 30005KT 9999 FEW010 SCT017 BKN020 05/02 Q1024;EQDQ01+000000PRSWM2
0162036913999992000011419204+51570+000700FM-15+0015EGMC V0203101N001510051019N0112651N1+00501+00301999999ADDGA1021+003309999GA2071+005109999GF107991999999999999999999MA1102511999999MW1001REMMET052EGMC 141920Z 31003KT 9999 SCT011 BKN017 05/03 Q1025;EQDQ01+000000PRSWM2
0162036913999992000011420204+51570+000700FM-15+0015EGMC V0203101N002110060019N0112651N1+00501+00301999999ADDGA1021+003309999GA2071+006009999GF107991999999999999999999MA1102511999999MW1001REMMET052EGMC 142020Z 31004KT 9999 SCT011 BKN020 05/03 Q1025;EQDQ01+000000PRSWM2
0185036913999992000011421204+51570+000700FM-15+0015EGMC V0203201N001010060019N0112651N1+00501+00301999999ADDGA1021+003009999GA2071+006009999GA3081+011409999GF108991999999999999999999MA1102611999999MW1001REMMET059EGMC 142120Z 32002KT 9999 SCT010 BKN020 OVC038 05/03 Q1026;EQDQ01+000000PRSWM2
0185036913999992000011422504+51570+000700FM-15+0015EGMC V0203601N002610060019N0112651N1+00501+00301999999ADDGA1021+002409999GA2071+006009999GA3071+010509999GF107991999999999999999999MA1102711999999MW1001REMMET059EGMC 142250Z 36005KT 9999 SCT008 BKN020 BKN035 05/03 Q1027;EQDQ01+000000PRSWM2
0162036913999992000011423504+51570+000700FM-15+0015EGMC V0200201N002610018019N0112651N1+00401+00301999999ADDGA1071+001809999GA2081+006009999GF108991999999999999999999MA1102811999999MW1001REMMET052EGMC 142350Z 02005KT 9999 BKN006 OVC020 04/03 Q1028;EQDQ01+000000PRSWM2
0139036913999992000011500504+51570+000700FM-15+0015EGMC V0203601N001010021019N0112651N1+00401+00301999999ADDGA1081+002109999GF108991999999999999999999MA1102911999999MW1001REMMET045EGMC 150050Z 36002KT 9999 OVC007 04/03 Q1029;EQDQ01+000000PRSWM2
0139036913999992000011501504+51570+000700FM-15+0015EGMC V0200301N001510018019N0112651N1+00401+00301999999ADDGA1071+001809999GF107991999999999999999999MA1102911999999MW1001REMMET045EGMC 150150Z 03003KT 9999 BKN006 04/03 Q1029;EQDQ01+000000PRSWM2
0139036913999992000011502504+51570+000700FM-15+0015EGMC V0200401N002110015019N0060001N1+00401+00301999999ADDGA1071+001509999GF107991999999999999999999MA1103011999999MW1001REMMET045EGMC 150250Z 04004KT 6000 BKN005 04/03 Q1030;EQDQ01+000000PRSWM2
0158036913999992000011503504+51570+000700FM-15+0015EGMC V0200401N002110015019N0050001N1+00401+00301999999ADDGA1071+001509999GF107991999999999999999999MA1103011999999MW1051REMMET048EGMC 150350Z 04004KT 5000 HZ BKN005 04/03 Q1030;EQDQ01+000003PRSWM1Q02    003PRSWM1
0162036913999992000011504504+51570+000700FM-15+0015EGMC V0200501N002610144019N0080001N1+00401+00301999999ADDGA1021+001509999GA2071+014409999GF107991999999999999999999MA1103181999999MW1001REMMET052EGMC 150450Z 05005KT 8000 SCT005 BKN048 04/03 Q1032;EQDQ01+000000PRSWM2
0139036913999992000011505504+51570+000700FM-15+0015EGMC V0200401N001510135019N0112651N1+00401+00201999999ADDGA1071+013509999GF107991999999999999999999MA1103181999999MW1001REMMET045EGMC 150550Z 04003KT 9999 BKN045 04/02 Q1032;EQDQ01+000000PRSWM2
0139036913999992000011507204+51570+000700FM-15+0015EGMC V0200101N003610144019N0112651N1+00301+00101999999ADDGA1071+014409999GF107991999999999999999999MA1103391999999MW1001REMMET045EGMC 150720Z 01007KT 9999 BKN048 03/01 Q1034;EQDQ01+000000PRSWM2
0091036913999992000011507504+51570+000700FM-15+0015EGMC V0200101N00151220001CN0099001N1+00301+00101999999ADDMA1103391999999MW1001REMMET039EGMC 150750Z 01003KT CAVOK 03/01 Q1034;EQDQ01+000000PRSWM2
0091036913999992000011508504+51570+000700FM-15+0015EGMC V0200201N00361220001CN0099001N1+00401+00201999999ADDMA1103491999999MW1001REMMET039EGMC 150850Z 02007KT CAVOK 04/02 Q1035;EQDQ01+000000PRSWM2
0091036913999992000011509504+51570+000700FM-15+0015EGMC V0200201N00411220001CN0099001N1+00501+00301999999ADDMA1103591999999MW1001REMMET039EGMC 150950Z 02008KT CAVOK 05/03 Q1036;EQDQ01+000000PRSWM2
0139036913999992000011510504+51570+000700FM-15+0015EGMC V0200301N005110036019N0070001N1+00501+00301999999ADDGA1071+003609999GF107991999999999999999999MA1103591999999MW1001REMMET045EGMC 151050Z 03010KT 7000 BKN012 05/03 Q1036;EQDQ01+000000PRSWM2
0162036913999992000011511504+51570+000700FM-15+0015EGMC V0200401N005110054019N0070001N1+00601+00301999999ADDGA1021+003609999GA2071+005409999GF107991999999999999999999MA1103691999999MW1001REMMET052EGMC 151150Z 04010KT 7000 FEW012 BKN018 06/03 Q1037;EQDQ01+000000PRSWM2
0185036913999992000011512504+51570+000700FM-15+0015EGMC V0200401N004110120019N0080001N1+00601+00201999999ADDGA1021+003909999GA2021+007509999GA3071+012009999GF107991999999999999999999MA1103691999999MW1001REMMET059EGMC 151250Z 04008KT 8000 FEW013 SCT025 BKN040 06/02 Q1037;EQDQ01+000000PRSWM2
0162036913999992000011513504+51570+000700FM-15+0015EGMC V0200301N005110120019N0112651N1+00601+00201999999ADDGA1021+007209999GA2071+012009999GF107991999999999999999999MA1103691999999MW1001REMMET052EGMC 151350Z 03010KT 9999 SCT024 BKN040 06/02 Q1037;EQDQ01+000000PRSWM2
0162036913999992000011514504+51570+000700FM-15+0015EGMC V0200301N004112200019N0112651N1+00501+00201999999ADDGA1021+007209999GA2021+012009999GF104991999999999999999999MA1103791999999MW1001REMMET052EGMC 151450Z 03008KT 9999 FEW024 SCT040 05/02 Q1038;EQDQ01+000000PRSWM2
0139036913999992000011515504+51570+000700FM-15+0015EGMC V0200401N003612200019N0112651N1+00501+00101999999ADDGA1021+007209999GF104991999999999999999999MA1103791999999MW1001REMMET045EGMC 151550Z 04007KT 9999 SCT024 05/01 Q1038;EQDQ01+000000PRSWM2
0139036913999992000011516504+51570+000700FM-15+0015EGMC V0200301N002112200019N0112651N1+00301+00001999999ADDGA1021+007209999GF102991999999999999999999MA1103891999999MW1001REMMET045EGMC 151650Z 03004KT 9999 FEW024 03/00 Q1039;EQDQ01+000000PRSWM2
0092036913999992000011517504+51570+000700FM-15+0015EGMC V0200101N00211220001CN0099001N1+00201-00101999999ADDMA1103891999999MW1001REMMET040EGMC 151750Z 01004KT CAVOK 02/M01 Q1039;EQDQ01+000000PRSWM2
0092036913999992000011518504+51570+000700FM-15+0015EGMC V0200101N00311220001CN0099001N1+00101+00001999999ADDMA1103891999999MW1001REMMET040EGMC 151850Z 01006KT CAVOK 01/M00 Q1039;EQDQ01+000000PRSWM2
0092036913999992000011519504+51570+000700FM-15+0015EGMC V0203601N00211220001CN0099001N1+00001-00101999999ADDMA1104001999999MW1001REMMET040EGMC 151950Z 36004KT CAVOK 00/M01 Q1040;EQDQ01+000000PRSWM2
0140036913999992000011520504+51570+000700FM-15+0015EGMC V0203601N002112200019N0112651N1+00201+00001999999ADDGA1021+011409999GF104991999999999999999999MA1104001999999MW1001REMMET046EGMC 152050Z 36004KT 9999 SCT038 02/M00 Q1040;EQDQ01+000000PRSWM2
0092036913999992000011521504+51570+000700FM-15+0015EGMC V0203501N00101220001CN0099001N1+00001-00101999999ADDMA1104001999999MW1001REMMET040EGMC 152150Z 35002KT CAVOK 00/M01 Q1040;EQDQ01+000000PRSWM2
0140036913999992000011523504+51570+000700FM-15+0015EGMC V0203501N002112200019N0112651N1+00201+00001999999ADDGA1021+010809999GF104991999999999999999999MA1104001999999MW1001REMMET046EGMC 152350Z 35004KT 9999 SCT036 02/M00 Q1040;EQDQ01+000000PRSWM2
0140036913999992000011600504+51570+000700FM-15+0015EGMC V0203401N001510096019N0112651N1+00101+00001999999ADDGA1071+009609999GF107991999999999999999999MA1104001999999MW1001REMMET046EGMC 160050Z 34003KT 9999 BKN032 01/M00 Q1040;EQDQ01+000000PRSWM2
0139036913999992000011602204+51570+000700FM-15+0015EGMC V0203401N002110084019N0112651N1+00201+00001999999ADDGA1071+008409999GF107991999999999999999999MA1104001999999MW1001REMMET045EGMC 160220Z 34004KT 9999 BKN028 02/00 Q1040;EQDQ01+000000PRSWM2
0162036913999992000011603204+51570+000700FM-15+0015EGMC V0203301N002110081019N0070001N1+00301+00201999999ADDGA1021+002109999GA2071+008109999GF107991999999999999999999MA1103891999999MW1001REMMET052EGMC 160320Z 33004KT 7000 SCT007 BKN027 03/02 Q1039;EQDQ01+000000PRSWM2
0162036913999992000011603504+51570+000700FM-15+0015EGMC V0203301N002110021019N0060001N1+00301+00201999999ADDGA1071+002109999GA2071+008109999GF107991999999999999999999MA1103891999999MW1001REMMET052EGMC 160350Z 33004KT 6000 BKN007 BKN027 03/02 Q1039;EQDQ01+000000PRSWM2
0162036913999992000011605204+51570+000700FM-15+0015EGMC V0203401N002610015019N0060001N1+00301+00201999999ADDGA1071+001509999GA2071+002109999GF107991999999999999999999MA1103891999999MW1001REMMET052EGMC 160520Z 34005KT 6000 BKN005 BKN007 03/02 Q1039;EQDQ01+000000PRSWM2
0162036913999992000011606204+51570+000700FM-15+0015EGMC V0203301N002610090019N0080001N1+00301+00201999999ADDGA1021+001809999GA2071+009009999GF107991999999999999999999MA1103891999999MW1001REMMET052EGMC 160620Z 33005KT 8000 SCT006 BKN030 03/02 Q1039;EQDQ01+000000PRSWM2
0162036913999992000011606504+51570+000700FM-15+0015EGMC V0203201N002610096019N0090001N1+00301+00201999999ADDGA1021+002109999GA2071+009609999GF107991999999999999999999MA1103891999999MW1001REMMET052EGMC 160650Z 32005KT 9000 FEW007 BKN032 03/02 Q1039;EQDQ01+000000PRSWM2
0139036913999992000011607504+51570+000700FM-15+0015EGMC V0203301N002610096019N0090001N1+00301+00201999999ADDGA1071+009609999GF107991999999999999999999MA1103891999999MW1001REMMET045EGMC 160750Z 33005KT 9000 BKN032 03/02 Q1039;EQDQ01+000000PRSWM2
0139036913999992000011609204+51570+000700FM-15+0015EGMC V0203401N002110090019N0112651N1+00401+00101999999ADDGA1071+009009999GF107991999999999999999999MA1104001999999MW1001REMMET045EGMC 160920Z 34004KT 9999 BKN030 04/01 Q1040;EQDQ01+000000PRSWM2
0139036913999992000011609504+51570+000700FM-15+0015EGMC V0203401N002110102019N0112651N1+00401+00101999999ADDGA1071+010209999GF107991999999999999999999MA1104001999999MW1001REMMET045EGMC 160950Z 34004KT 9999 BKN034 04/01 Q1040;EQDQ01+000000PRSWM2
0139036913999992000011610504+51570+000700FM-15+0015EGMC V0203301N002612200019N0112651N1+00401+00101999999ADDGA1021+009009999GF102991999999999999999999MA1104001999999MW1001REMMET045EGMC 161050Z 33005KT 9999 FEW030 04/01 Q1040;EQDQ01+000000PRSWM2
0139036913999992000011611504+51570+000700FM-15+0015EGMC V0203301N004112200019N0112651N1+00601+00101999999ADDGA1021+009009999GF102991999999999999999999MA1104001999999MW1001REMMET045EGMC 161150Z 33008KT 9999 FEW030 06/01 Q1040;EQDQ01+000000PRSWM2
0139036913999992000011612504+51570+000700FM-15+0015EGMC V0203301N003610108019N0112651N1+00601+00101999999ADDGA1071+010809999GF107991999999999999999999MA1103891999999MW1001REMMET045EGMC 161250Z 33007KT 9999 BKN036 06/01 Q1039;EQDQ01+000000PRSWM2
0139036913999992000011613504+51570+000700FM-15+0015EGMC V0203401N003610102019N0112651N1+00601+00101999999ADDGA1071+010209999GF107991999999999999999999MA1103891999999MW1001REMMET045EGMC 161350Z 34007KT 9999 BKN034 06/01 Q1039;EQDQ01+000000PRSWM2
0139036913999992000011615204+51570+000700FM-15+0015EGMC V0203401N003110093019N0112651N1+00501+00101999999ADDGA1071+009309999GF107991999999999999999999MA1103891999999MW1001REMMET045EGMC 161520Z 34006KT 9999 BKN031 05/01 Q1039;EQDQ01+000000PRSWM2
0139036913999992000011615504+51570+000700FM-15+0015EGMC V0203301N003110090019N0112651N1+00501+00101999999ADDGA1071+009009999GF107991999999999999999999MA1103891999999MW1001REMMET045EGMC 161550Z 33006KT 9999 BKN030 05/01 Q1039;EQDQ01+000000PRSWM2
0091036913999992000011617504+51570+000700FM-15+0015EGMC V0209999C00001220001CN0099001N1+00301+00101999999ADDMA1103891999999MW1001REMMET039EGMC 161750Z 00000KT CAVOK 03/01 Q1039;EQDQ01+000000PRSWM2
0140036913999992000011618504+51570+000700FM-15+0015EGMC V0203101N001012200019N0112651N1+00201+00001999999ADDGA1021+008409999GF104991999999999999999999MA1103891999999MW1001REMMET046EGMC 161850Z 31002KT 9999 SCT028 02/M00 Q1039;EQDQ01+000000PRSWM2
0091036913999992000011619504+51570+000700FM-15+0015EGMC V0209999C00001220001CN0099001N1+00301+00001999999ADDMA1103891999999MW1001REMMET039EGMC 161950Z 00000KT CAVOK 03/00 Q1039;EQDQ01+000000PRSWM2
0092036913999992000011620504+51570+000700FM-15+0015EGMC V0203301N00101220001CN0099001N1+00201+00001999999ADDMA1103891999999MW1001REMMET040EGMC 162050Z 33002KT CAVOK 02/M00 Q1039;EQDQ01+000000PRSWM2
0091036913999992000011621504+51570+000700FM-15+0015EGMC V0202901N00101220001CN0099001N1+00201+00001999999ADDMA1103891999999MW1001REMMET039EGMC 162150Z 29002KT CAVOK 02/00 Q1039;EQDQ01+000000PRSWM2
0092036913999992000011622504+51570+000700FM-15+0015EGMC V0202601N00151220001CN0099001N1+00201-00101999999ADDMA1103891999999MW1001REMMET040EGMC 162250Z 26003KT CAVOK 02/M01 Q1039;EQDQ01+000000PRSWM2
0092036913999992000011623504+51570+000700FM-15+0015EGMC V0202601N00211220001CN0099001N1+00201-00101999999ADDMA1103891999999MW1001REMMET040EGMC 162350Z 26004KT CAVOK 02/M01 Q1039;EQDQ01+000000PRSWM2
0092036913999992000011700504+51570+000700FM-15+0015EGMC V0202701N00211220001CN0099001N1+00101-00101999999ADDMA1103791999999MW1001REMMET040EGMC 170050Z 27004KT CAVOK 01/M01 Q1038;EQDQ01+000000PRSWM2
0092036913999992000011701504+51570+000700FM-15+0015EGMC V0202701N00211220001CN0099001N1+00201-00101999999ADDMA1103791999999MW1001REMMET040EGMC 170150Z 27004KT CAVOK 02/M01 Q1038;EQDQ01+000000PRSWM2
0092036913999992000011702504+51570+000700FM-15+0015EGMC V0202601N00151220001CN0099001N1+00101-00101999999ADDMA1103791999999MW1001REMMET040EGMC 170250Z 26003KT CAVOK 01/M01 Q1038;EQDQ01+000000PRSWM2
0121036913999992000011704204+51570+000700FM-15+0015EGMC V0202801N002612200019N0070001N1+00101-00101999999ADDGF100991999999999999999999MA1103691999999MW1001REMMET043EGMC 170420Z 28005KT 7000 SKC 01/M01 Q1037;EQDQ01+000000PRSWM2
0121036913999992000011705204+51570+000700FM-15+0015EGMC V0202801N002612200019N0070001N1+00101-00101999999ADDGF100991999999999999999999MA1103691999999MW1001REMMET043EGMC 170520Z 28005KT 7000 SKC 01/M01 Q1037;EQDQ01+000000PRSWM2
0159036913999992000011706204+51570+000700FM-15+0015EGMC V0202801N002612200019N0020001N1+00101-00101999999ADDGA1021+000609999GF104991999999999999999999MA1103691999999MW1051REMMET049EGMC 170620Z 28005KT 2000 HZ SCT002 01/M01 Q1037;EQDQ01+000003PRSWM1Q02    003PRSWM1
0179036913999992000011706504+51570+000700FM-15+0015EGMC V0202801N004110006019N0011001N1+00101+00001999999ADDED199U11009GA1071+000609999GF107991999999999999999999MA1103591999999MW1101REMMET058EGMC 170650Z 28008KT 1100 R24/1100 BR BKN002 01/M00 Q1036;EQDQ01+000003PRSWM1Q02    003PRSWM1
0159036913999992000011707504+51570+000700FM-15+0015EGMC V0202801N003610006019N0011001N1+00201+00101999999ADDED199U11009GA1071+000609999GF107991999999999999999999MA1103691999999MW1001REMMET054EGMC 170750Z 28007KT 1100 R24/1100 BKN002 02/01 Q1037;EQDQ01+000000PRSWM2
0201036913999992000011708504+51570+000700FM-15+0015EGMC V0202701N004110009019N0014001N1+00201+00101999999ADDED199U12009GA1021+000609999GA2071+000909999GF107991999999999999999999MA1103591999999MW1101REMMET064EGMC 170850Z 27008KT 1400 R24/1200 BR SCT002 BKN003 02/01 Q1036;EQDQ01+000003PRSWM1Q02    003PRSWM1
0181036913999992000011709504+51570+000700FM-15+0015EGMC V0202801N004110009019N0019001N1+00301+00201999999ADDGA1021+000609999GA2071+000909999GF107991999999999999999999MA1103591999999MW1101REMMET055EGMC 170950Z 28008KT 1900 BR SCT002 BKN003 03/02 Q1036;EQDQ01+000003PRSWM1Q02    003PRSWM1
0158036913999992000011710504+51570+000700FM-15+0015EGMC V0203101N005110015019N0034001N1+00401+00201999999ADDGA1071+001509999GF107991999999999999999999MA1103691999999MW1101REMMET048EGMC 171050Z 31010KT 3400 BR BKN005 04/02 Q1037;EQDQ01+000003PRSWM1Q02    003PRSWM1
0162036913999992000011711504+51570+000700FM-15+0015EGMC V0203101N004610027019N0060001N1+00501+00301999999ADDGA1021+002409999GA2071+002709999GF107991999999999999999999MA1103691999999MW1001REMMET052EGMC 171150Z 31009KT 6000 SCT008 BKN009 05/03 Q1037;EQDQ01+000000PRSWM2
0139036913999992000011712504+51570+000700FM-15+0015EGMC V0203201N003112200019N0070001N1+00601+00301999999ADDGA1021+002709999GF102991999999999999999999MA1103591999999MW1001REMMET045EGMC 171250Z 32006KT 7000 FEW009 06/03 Q1036;EQDQ01+000000PRSWM2
0120036913999992000011713504+51570+000700FM-15+0015EGMC V0203101N004612200019N0080001N1+00701+00401999999ADDGF100991999999999999999999MA1103491999999MW1001REMMET042EGMC 171350Z 31009KT 8000 SKC 07/04 Q1035;EQDQ01+000000PRSWM2
0091036913999992000011714504+51570+000700FM-15+0015EGMC V0203101N00311220001CN0099001N1+00801+00401999999ADDMA1103491999999MW1001REMMET039EGMC 171450Z 31006KT CAVOK 08/04 Q1035;EQDQ01+000000PRSWM2
0091036913999992000011715504+51570+000700FM-15+0015EGMC V0203201N00151220001CN0099001N1+00601+00401999999ADDMA1103491999999MW1001REMMET039EGMC 171550Z 32003KT CAVOK 06/04 Q1035;EQDQ01+000000PRSWM2
0120036913999992000011716504+51570+000700FM-15+0015EGMC V0209999C000012200019N0090001N1+00601+00301999999ADDGF100991999999999999999999MA1103591999999MW1001REMMET042EGMC 171650Z 00000KT 9000 SKC 06/03 Q1036;EQDQ01+000000PRSWM2
0091036913999992000011718204+51570+000700FM-15+0015EGMC V0209999C00001220001CN0099001N1+00501+00201999999ADDMA1103591999999MW1001REMMET039EGMC 171820Z 00000KT CAVOK 05/02 Q1036;EQDQ01+000000PRSWM2
0091036913999992000011718504+51570+000700FM-15+0015EGMC V0209999C00001220001CN0099001N1+00501+00301999999ADDMA1103591999999MW1001REMMET039EGMC 171850Z 00000KT CAVOK 05/03 Q1036;EQDQ01+000000PRSWM2
0091036913999992000011720504+51570+000700FM-15+0015EGMC V0203101N00151220001CN0099001N1+00201+00101999999ADDMA1103491999999MW1001REMMET039EGMC 172050Z 31003KT CAVOK 02/01 Q1035;EQDQ01+000000PRSWM2
0140036913999992000011721504+51570+000700FM-15+0015EGMC V0202901N001012200019N0112651N1+00301+00101999999ADDGA1021+007509999GF104991999999999999999999MA1103181999999MW1001REMMET046EGMC 172150Z 29002KT 9999 SCT025 03/01 Q10325;EQDQ01+000000PRSWM2
0139036913999992000011723204+51570+000700FM-15+0015EGMC V0203001N002112200019N0090001N1+00301+00201999999ADDGA1021+006009999GF102991999999999999999999MA1103491999999MW1001REMMET045EGMC 172320Z 30004KT 9000 FEW020 03/02 Q1035;EQDQ01+000000PRSWM2
0139036913999992000011800204+51570+000700FM-15+0015EGMC V0202901N002612200019N0009001N1+00201+00101999999ADDGF100991999999999999999999MA1103391999999MW1441REMMET045EGMC 180020Z 29005KT 0900 FG SKC 02/01 Q1034;EQDQ01+000003PRSWM1Q02    003PRSWM1
0120036913999992000011800504+51570+000700FM-15+0015EGMC V0203001N004112200019N0020001N1+00201+00101999999ADDGF100991999999999999999999MA1103391999999MW1001REMMET042EGMC 180050Z 30008KT 2000 SKC 02/01 Q1034;EQDQ01+000000PRSWM2
0120036913999992000011802204+51570+000700FM-15+0015EGMC V0203001N003112200019N0040001N1+00201+00101999999ADDGF100991999999999999999999MA1103391999999MW1001REMMET042EGMC 180220Z 30006KT 4000 SKC 02/01 Q1034;EQDQ01+000000PRSWM2
0139036913999992000011803204+51570+000700FM-15+0015EGMC V0202801N002612200019N0080001N1+00201+00101999999ADDGA1021+075009999GF102991999999999999999999MA1103291999999MW1001REMMET045EGMC 180320Z 28005KT 8000 FEW250 02/01 Q1033;EQDQ01+000000PRSWM2
0139036913999992000011804204+51570+000700FM-15+0015EGMC V0202901N003612200019N0080001N1+00301+00101999999ADDGA1021+007509999GF104991999999999999999999MA1103291999999MW1001REMMET045EGMC 180420Z 29007KT 8000 SCT025 03/01 Q1033;EQDQ01+000000PRSWM2
0120036913999992000011804504+51570+000700FM-15+0015EGMC V0203001N003612200019N0080001N1+00301+00101999999ADDGF100991999999999999999999MA1103291999999MW1001REMMET042EGMC 180450Z 30007KT 8000 SKC 03/01 Q1033;EQDQ01+000000PRSWM2
0162036913999992000011806504+51570+000700FM-15+0015EGMC V0203201N004610075019N0090001N1+00501+00301999999ADDGA1021+005409999GA2071+007509999GF107991999999999999999999MA1103291999999MW1001REMMET052EGMC 180650Z 32009KT 9000 SCT018 BKN025 05/03 Q1033;EQDQ01+000000PRSWM2
0139036913999992000011807504+51570+000700FM-15+0015EGMC V0203201N005110039019N0090001N1+00601+00301999999ADDGA1071+003909999GF107991999999999999999999MA1103291999999MW1001REMMET045EGMC 180750Z 32010KT 9000 BKN013 06/03 Q1033;EQDQ01+000000PRSWM2
0139036913999992000011808504+51570+000700FM-15+0015EGMC V0203401N005710036019N0112651N1+00701+00401999999ADDGA1071+003609999GF107991999999999999999999MA1103291999999MW1001REMMET045EGMC 180850Z 34011KT 9999 BKN012 07/04 Q1033;EQDQ01+000000PRSWM2
0139036913999992000011809504+51570+000700FM-15+0015EGMC V0203501N005710033019N0112651N1+00701+00501999999ADDGA1081+003309999GF108991999999999999999999MA1103291999999MW1001REMMET045EGMC 180950Z 35011KT 9999 OVC011 07/05 Q1033;EQDQ01+000000PRSWM2
0139036913999992000011810504+51570+000700FM-15+0015EGMC V0203401N007210033019N0112651N1+00701+00501999999ADDGA1081+003309999GF108991999999999999999999MA1103291999999MW1001REMMET045EGMC 181050Z 34014KT 9999 OVC011 07/05 Q1033;EQDQ01+000000PRSWM2
0139036913999992000011811504+51570+000700FM-15+0015EGMC V0203501N005110033019N0112651N1+00701+00501999999ADDGA1071+003309999GF107991999999999999999999MA1103291999999MW1001REMMET045EGMC 181150Z 35010KT 9999 BKN011 07/05 Q1033;EQDQ01+000000PRSWM2
0162036913999992000011812504+51570+000700FM-15+0015EGMC V0203501N005710048019N0112651N1+00801+00501999999ADDGA1021+003609999GA2071+004809999GF107991999999999999999999MA1103291999999MW1001REMMET052EGMC 181250Z 35011KT 9999 SCT012 BKN016 08/05 Q1033;EQDQ01+000000PRSWM2
0162036913999992000011813504+51570+000700FM-15+0015EGMC V0203601N006210048019N0112651N1+00801+00501999999ADDGA1021+003609999GA2071+004809999GF107991999999999999999999MA1103291999999MW1001REMMET052EGMC 181350Z 36012KT 9999 SCT012 BKN016 08/05 Q1033;EQDQ01+000000PRSWM2
0162036913999992000011814504+51570+000700FM-15+0015EGMC V0203601N006710045019N0112651N1+00801+00501999999ADDGA1021+003609999GA2071+004509999GF107991999999999999999999MA1103291999999MW1001REMMET052EGMC 181450Z 36013KT 9999 SCT012 BKN015 08/05 Q1033;EQDQ01+000000PRSWM2
0162036913999992000011815504+51570+000700FM-15+0015EGMC V0203601N006710045019N0112651N1+00701+00401999999ADDGA1021+003609999GA2071+004509999GF107991999999999999999999MA1103291999999MW1001REMMET052EGMC 181550Z 36013KT 9999 FEW012 BKN015 07/04 Q1033;EQDQ01+000000PRSWM2
0139036913999992000011816504+51570+000700FM-15+0015EGMC V0203501N007712200019N0112651N1+00601+00301999999ADDGA1021+006009999GF104991999999999999999999MA1103291999999MW1001REMMET045EGMC 181650Z 35015KT 9999 SCT020 06/03 Q1033;EQDQ01+000000PRSWM2
0139036913999992000011817504+51570+000700FM-15+0015EGMC V0203601N004612200019N0112651N1+00601+00401999999ADDGA1021+006009999GF104991999999999999999999MA1103291999999MW1001REMMET045EGMC 181750Z 36009KT 9999 SCT020 06/04 Q1033;EQDQ01+000000PRSWM2
0139036913999992000011818504+51570+000700FM-15+0015EGMC V0203401N005112200019N0112651N1+00601+00401999999ADDGA1021+007209999GF102991999999999999999999MA1103391999999MW1001REMMET045EGMC 181850Z 34010KT 9999 FEW024 06/04 Q1034;EQDQ01+000000PRSWM2
0139036913999992000011820204+51570+000700FM-15+0015EGMC V0203401N004612200019N0112651N1+00601+00301999999ADDGA1021+007509999GF102991999999999999999999MA1103391999999MW1001REMMET045EGMC 182020Z 34009KT 9999 FEW025 06/03 Q1034;EQDQ01+000000PRSWM2
0139036913999992000011821204+51570+000700FM-15+0015EGMC V0203401N003610066019N0112651N1+00601+00401999999ADDGA1071+006609999GF107991999999999999999999MA1103391999999MW1001REMMET045EGMC 182120Z 34007KT 9999 BKN022 06/04 Q1034;EQDQ01+000000PRSWM2
0162036913999992000011821504+51570+000700FM-15+0015EGMC V0203301N004110090019N0112651N1+00601+00401999999ADDGA1021+006609999GA2071+009009999GF107991999999999999999999MA1103391999999MW1001REMMET052EGMC 182150Z 33008KT 9999 SCT022 BKN030 06/04 Q1034;EQDQ01+000000PRSWM2
0139036913999992000011822504+51570+000700FM-15+0015EGMC V0203401N004110105019N0112651N1+00601+00401999999ADDGA1071+010509999GF107991999999999999999999MA1103391999999MW1001REMMET045EGMC 182250Z 34008KT 9999 BKN035 06/04 Q1034;EQDQ01+000000PRSWM2
0139036913999992000011823504+51570+000700FM-15+0015EGMC V0203301N003110105019N0112651N1+00601+00301999999ADDGA1071+010509999GF107991999999999999999999MA1103391999999MW1001REMMET045EGMC 182350Z 33006KT 9999 BKN035 06/03 Q1034;EQDQ01+000000PRSWM2
0162036913999992000011900504+51570+000700FM-15+0015EGMC V0203401N004110105019N0112651N1+00601+00401999999ADDGA1021+007209999GA2071+010509999GF107991999999999999999999MA1103391999999MW1001REMMET052EGMC 190050Z 34008KT 9999 SCT024 BKN035 06/04 Q1034;EQDQ01+000000PRSWM2
0139036913999992000011901504+51570+000700FM-15+0015EGMC V0203301N002610090019N0112651N1+00601+00401999999ADDGA1071+009009999GF107991999999999999999999MA1103391999999MW1001REMMET045EGMC 190150Z 33005KT 9999 BKN030 06/04 Q1034;EQDQ01+000000PRSWM2
0139036913999992000011902504+51570+000700FM-15+0015EGMC V0203401N002610084019N0112651N1+00501+00401999999ADDGA1071+008409999GF107991999999999999999999MA1103391999999MW1001REMMET045EGMC 190250Z 34005KT 9999 BKN028 05/04 Q1034;EQDQ01+000000PRSWM2
0139036913999992000011903504+51570+000700FM-15+0015EGMC V0203401N002110105019N0112651N1+00501+00301999999ADDGA1071+010509999GF107991999999999999999999MA1103391999999MW1001REMMET045EGMC 190350Z 34004KT 9999 BKN035 05/03 Q1034;EQDQ01+000000PRSWM2
0162036913999992000011905204+51570+000700FM-15+0015EGMC V0203401N003610135019N0112651N1+00501+00401999999ADDGA1021+007509999GA2071+013509999GF107991999999999999999999MA1103391999999MW1001REMMET052EGMC 190520Z 34007KT 9999 FEW025 BKN045 05/04 Q1034;EQDQ01+000000PRSWM2
0137036913999992000011906204+51570+000700FM-15+0015EGMC V0203301N002112200019N0112651N1+00501+00401999999ADDGA1021+013509999GF104991999999999999999999MA1103491999999MW1001REMMET043EGMC 0620Z 33004KT 9999 SCT045 05/04 Q1035;EQDQ01+000000PRSWM2
0139036913999992000011907204+51570+000700FM-15+0015EGMC V0203201N003110129019N0112651N1+00501+00401999999ADDGA1071+012909999GF107991999999999999999999MA1103491999999MW1001REMMET045EGMC 190720Z 32006KT 9999 BKN043 05/04 Q1035;EQDQ01+000000PRSWM2
0139036913999992000011908204+51570+000700FM-15+0015EGMC V0203301N003110120019N0112651N1+00501+00301999999ADDGA1071+012009999GF107991999999999999999999MA1103491999999MW1001REMMET045EGMC 190820Z 33006KT 9999 BKN040 05/03 Q1035;EQDQ01+000000PRSWM2
0162036913999992000011909204+51570+000700FM-15+0015EGMC V0203301N004110120019N0112651N1+00601+00301999999ADDGA1021+003609999GA2071+012009999GF107991999999999999999999MA1103491999999MW1001REMMET052EGMC 190920Z 33008KT 9999 FEW012 BKN040 06/03 Q1035;EQDQ01+000000PRSWM2
0162036913999992000011910204+51570+000700FM-15+0015EGMC V0203401N003610030019N0090001N1+00601+00401999999ADDGA1071+003009999GA2071+012009999GF107991999999999999999999MA1103591999999MW1001REMMET052EGMC 191020Z 34007KT 9000 BKN010 BKN040 06/04 Q1036;EQDQ01+000000PRSWM2
