0159037155999992000010407504+51400-003430FM-15+0050EGDX V0200601N001010001519N0000501N1+00301+00301999999ADDGA1091+000159999GF109991999999000251999999MA1101291999999MW1451REMMET049EGDX 0750Z 06002KT 0050 FG VV/// 03/03 Q1013 RED;EQDQ01+000003PRSWM1Q02    003PRSWM1
0164037155999992000010408504+51400-003430FM-15+0050EGDX V0209999C000012200019N0112651N1+00301+00301999999ADDGA1021+000159999GA2021+014109999GF104991999999999999999999MA1101191999999MW1001REMMET054EGDX 0850Z 00000KT 9999 FEW000 SCT047 03/03 Q1012 BLU;EQDQ01+000000PRSWM2
0141037155999992000010409504+51400-003430FM-15+0050EGDX V0201701N004110141019N0112651N1+00601+00501999999ADDGA1071+014109999GF107991999999999999999999MA1101081999999MW1001REMMET047EGDX 0950Z 17008KT 9999 BKN047 06/05 Q1011 BLU;EQDQ01+000000PRSWM2
0164037155999992000010410504+51400-003430FM-15+0050EGDX V0202101N006210129019N0112651N1+00701+00501999999ADDGA1021+011409999GA2071+012909999GF107991999999999999999999MA1101081999999MW1001REMMET054EGDX 1050Z 21012KT 9999 FEW038 BKN043 07/05 Q1011 BLU;EQDQ01+000000PRSWM2
0185037155999992000010411504+51400-003430FM-15+0050EGDX V0202301N010310114019N0112651N1+00801+00501999999ADDGA1021+007809999GA2071+011409999GF107991999999999999999999MA1101021999999MW1811REMMET059EGDX 1150Z 23020KT 9999 SHRA FEW026 BKN038 08/05 Q1010 BLU;EQDQ01+000003PRSWM1Q02    003PRSWM1
0173037155999992000010412504+51400-003430FM-15+0050EGDX V0202501N012310060019N0050001N1+00701+00501999999ADDGA1081+006009999GF108991999999999999999999MA1101021999999MW1811OC102261REMMET055EGDX 1250Z 25024G44KT 5000 SHRA OVC020 07/05 Q1010 WHT;EQDQ01+000003PRSWM1Q02    003PRSWM1
0141037155999992000010413504+51400-003430FM-15+0050EGDX V0203001N005110117019N0112651N1+00501+00301999999ADDGA1071+011709999GF107991999999999999999999MA1101081999999MW1001REMMET047EGDX 1350Z 30010KT 9999 BKN039 05/03 Q1011 BLU;EQDQ01+000000PRSWM2
0141037155999992000010414504+51400-003430FM-15+0050EGDX V0202601N003112200019N0112651N1+00601+00401999999ADDGA1021+013509999GF104991999999999999999999MA1101191999999MW1001REMMET047EGDX 1450Z 26006KT 9999 SCT045 06/04 Q1012 BLU;EQDQ01+000000PRSWM2
0093037155999992000010507504+51400-003430FM-15+0050EGDX V0201901N00771220001CN0099001N1+00801+00801999999ADDMA1101191999999MW1001REMMET041EGDX 0750Z 19015KT CAVOK 08/08 Q1012 BLU;EQDQ01+000000PRSWM2
0141037155999992000010508504+51400-003430FM-15+0050EGDX V0201801N006710144019N0112651N1+00901+00801999999ADDGA1071+014409999GF107991999999999999999999MA1101081999999MW1001REMMET047EGDX 0850Z 18013KT 9999 BKN048 09/08 Q1011 BLU;EQDQ01+000000PRSWM2
0164037155999992000010509504+51400-003430FM-15+0050EGDX V0201901N006210144019N0112651N1+01001+00901999999ADDGA1021+011409999GA2071+014409999GF107991999999999999999999MA1101081999999MW1001REMMET054EGDX 0950Z 19012KT 9999 FEW038 BKN048 10/09 Q1011 BLU;EQDQ01+000000PRSWM2
0141037155999992000010510504+51400-003430FM-15+0050EGDX V0201901N006710075019N0112651N1+01001+01001999999ADDGA1071+007509999GF107991999999999999999999MA1101081999999MW1001REMMET047EGDX 1050Z 19013KT 9999 BKN025 10/10 Q1011 BLU;EQDQ01+000000PRSWM2
0141037155999992000010511504+51400-003430FM-15+0050EGDX V0202001N006710084019N0112651N1+01101+00601999999ADDGA1071+008409999GF107991999999999999999999MA1101021999999MW1001REMMET047EGDX 1150Z 20013KT 9999 BKN028 11/06 Q1010 BLU;EQDQ01+000000PRSWM2
0164037155999992000010512504+51400-003430FM-15+0050EGDX V0201901N006710129019N0112651N1+01101+00501999999ADDGA1021+009609999GA2071+012909999GF107991999999999999999999MA1100911999999MW1001REMMET054EGDX 1250Z 19013KT 9999 SCT032 BKN043 11/05 Q1009 BLU;EQDQ01+000000PRSWM2
0141037155999992000010513504+51400-003430FM-15+0050EGDX V0201701N003610087019N0112651N1+01101+00601999999ADDGA1071+008709999GF107991999999999999999999MA1100811999999MW1001REMMET047EGDX 1350Z 17007KT 9999 BKN029 11/06 Q1008 BLU;EQDQ01+000000PRSWM2
0141037155999992000010514504+51400-003430FM-15+0050EGDX V0202201N007712200019N0112651N1+01101+00601999999ADDGA1021+010209999GF104991999999999999999999MA1100711999999MW1001REMMET047EGDX 1450Z 22015KT 9999 SCT034 11/06 Q1007 BLU;EQDQ01+000000PRSWM2
0164037155999992000010515504+51400-003430FM-15+0050EGDX V0202001N008712200019N0112651N1+01101+00701999999ADDGA1021+008409999GA2021+012009999GF104991999999999999999999MA1100611999999MW1001REMMET054EGDX 1550Z 20017KT 9999 FEW028 SCT040 11/07 Q1006 BLU;EQDQ01+000000PRSWM2
0141037155999992000010607504+51400-003430FM-15+0050EGDX V0202401N006210111019N0112651N1+00901+00701999999ADDGA1071+011109999GF107991999999999999999999MA1100911999999MW1001REMMET047EGDX 0750Z 24012KT 9999 BKN037 09/07 Q1009 BLU;EQDQ01+000000PRSWM2
0187037155999992000010608504+51400-003430FM-15+0050EGDX V0202501N007210081019N0060001N1+00901+00601999999ADDGA1021+004509999GA2071+008109999GA3071+015009999GF107991999999999999999999MA1101021999999MW1001REMMET061EGDX 0850Z 25014KT 6000 FEW015 BKN027 BKN050 09/06 Q1010 WHT;EQDQ01+000000PRSWM2
0164037155999992000010609504+51400-003430FM-15+0050EGDX V0202401N008210129019N0070001N1+00901+00701999999ADDGA1021+007209999GA2071+012909999GF107991999999999999999999MA1101021999999MW1001REMMET054EGDX 0950Z 24016KT 7000 FEW024 BKN043 09/07 Q1010 WHT;EQDQ01+000000PRSWM2
0164037155999992000010610504+51400-003430FM-15+0050EGDX V0202501N006710108019N0070001N1+00801+00601999999ADDGA1021+006909999GA2071+010809999GF107991999999999999999999MA1101081999999MW1001REMMET054EGDX 1050Z 25013KT 7000 FEW023 BKN036 08/06 Q1011 WHT;EQDQ01+000000PRSWM2
0164037155999992000010611504+51400-003430FM-15+0050EGDX V0202701N005112200019N0070001N1+00801+00601999999ADDGA1021+005409999GA2021+012309999GF104991999999999999999999MA1101191999999MW1001REMMET054EGDX 1150Z 27010KT 7000 SCT018 SCT041 08/06 Q1012 WHT;EQDQ01+000000PRSWM2
0141037155999992000010612504+51400-003430FM-15+0050EGDX V0202701N006712200019N0112651N1+00901+00701999999ADDGA1021+006909999GF102991999999999999999999MA1101191999999MW1001REMMET047EGDX 1250Z 27013KT 9999 FEW023 09/07 Q1012 BLU;EQDQ01+000000PRSWM2
0141037155999992000010613504+51400-003430FM-15+0050EGDX V0202801N007712200019N0112651N1+00901+00601999999ADDGA1021+007509999GF104991999999999999999999MA1101391999999MW1001REMMET047EGDX 1350Z 28015KT 9999 SCT025 09/06 Q1014 BLU;EQDQ01+000000PRSWM2
0141037155999992000010614504+51400-003430FM-15+0050EGDX V0202701N004110081019N0112651N1+00901+00501999999ADDGA1071+008109999GF107991999999999999999999MA1101491999999MW1001REMMET047EGDX 1450Z 27008KT 9999 BKN027 09/05 Q1015 BLU;EQDQ01+000000PRSWM2
0141037155999992000010615504+51400-003430FM-15+0050EGDX V0202801N004112200019N0112651N1+00801+00501999999ADDGA1021+008409999GF104991999999999999999999MA1101491999999MW1001REMMET047EGDX 1550Z 28008KT 9999 SCT028 08/05 Q1015 BLU;EQDQ01+000000PRSWM2
0141037155999992000010707504+51400-003430FM-15+0050EGDX V0202201N007710108019N0112651N1+00901+00601999999ADDGA1071+010809999GF107991999999999999999999MA1101691999999MW1001REMMET047EGDX 0750Z 22015KT 9999 BKN036 09/06 Q1017 BLU;EQDQ01+000000PRSWM2
0141037155999992000010708504+51400-003430FM-15+0050EGDX V0202201N007712200019N0112651N1+00901+00601999999ADDGA1021+012609999GF104991999999999999999999MA1101691999999MW1001REMMET047EGDX 0850Z 22015KT 9999 SCT042 09/06 Q1017 BLU;EQDQ01+000000PRSWM2
0141037155999992000010709504+51400-003430FM-15+0050EGDX V0202201N006710117019N0112651N1+00901+00601999999ADDGA1071+011709999GF107991999999999999999999MA1101691999999MW1001REMMET047EGDX 0950Z 22013KT 9999 BKN039 09/06 Q1017 BLU;EQDQ01+000000PRSWM2
0141037155999992000010710504+51400-003430FM-15+0050EGDX V0202201N008210135019N0112651N1+01001+00501999999ADDGA1071+013509999GF107991999999999999999999MA1101591999999MW1001REMMET047EGDX 1050Z 22016KT 9999 BKN045 10/05 Q1016 BLU;EQDQ01+000000PRSWM2
0141037155999992000010711504+51400-003430FM-15+0050EGDX V0202201N008210126019N0112651N1+01001+00501999999ADDGA1071+012609999GF107991999999999999999999MA1101491999999MW1001REMMET047EGDX 1150Z 22016KT 9999 BKN042 10/05 Q1015 BLU;EQDQ01+000000PRSWM2
0164037155999992000010712504+51400-003430FM-15+0050EGDX V0202201N007210108019N0112651N1+01001+00501999999ADDGA1021+008409999GA2071+010809999GF107991999999999999999999MA1101391999999MW1001REMMET054EGDX 1250Z 22014KT 9999 FEW028 BKN036 10/05 Q1014 BLU;EQDQ01+000000PRSWM2
0141037155999992000010713504+51400-003430FM-15+0050EGDX V0202301N008210114019N0112651N1+01001+00501999999ADDGA1071+011409999GF107991999999999999999999MA1101291999999MW1001REMMET047EGDX 1350Z 23016KT 9999 BKN038 10/05 Q1013 BLU;EQDQ01+000000PRSWM2
0164037155999992000010714504+51400-003430FM-15+0050EGDX V0202201N007710132019N0112651N1+01001+00501999999ADDGA1021+007809999GA2071+013209999GF107991999999999999999999MA1101191999999MW1001REMMET054EGDX 1450Z 22015KT 9999 SCT026 BKN044 10/05 Q1012 BLU;EQDQ01+000000PRSWM2
0164037155999992000010715504+51400-003430FM-15+0050EGDX V0202301N007710180019N0112651N1+01001+00501999999ADDGA1021+008709999GA2071+018009999GF107991999999999999999999MA1101191999999MW1001REMMET054EGDX 1550Z 23015KT 9999 SCT029 BKN060 10/05 Q1012 BLU;EQDQ01+000000PRSWM2
0141037155999992000010808504+51400-003430FM-15+0050EGDX V0202701N006212200019N0112651N1+00701+00101999999ADDGA1021+009009999GF102991999999999999999999MA1101591999999MW1001REMMET047EGDX 0850Z 27012KT 9999 FEW030 07/01 Q1016 BLU;EQDQ01+000000PRSWM2
0141037155999992000010809504+51400-003430FM-15+0050EGDX V0202601N007212200019N0112651N1+00801+00301999999ADDGA1021+010509999GF102991999999999999999999MA1101591999999MW1001REMMET047EGDX 0950Z 26014KT 9999 FEW035 08/03 Q1016 BLU;EQDQ01+000000PRSWM2
0164037155999992000010810504+51400-003430FM-15+0050EGDX V0202601N007212200019N0112651N1+00801+00301999999ADDGA1021+011409999GA2021+015009999GF104991999999999999999999MA1101691999999MW1001REMMET054EGDX 1050Z 26014KT 9999 FEW038 SCT050 08/03 Q1017 BLU;EQDQ01+000000PRSWM2
0141037155999992000010811504+51400-003430FM-15+0050EGDX V0202501N007212200019N0112651N1+00801+00401999999ADDGA1021+007809999GF102991999999999999999999MA1101691999999MW1001REMMET047EGDX 1150Z 25014KT 9999 FEW026 08/04 Q1017 BLU;EQDQ01+000000PRSWM2
0141037155999992000010812504+51400-003430FM-15+0050EGDX V0202601N008212200019N0112651N1+00901+00301999999ADDGA1021+007809999GF102991999999999999999999MA1101691999999MW1001REMMET047EGDX 1250Z 26016KT 9999 FEW026 09/03 Q1017 BLU;EQDQ01+000000PRSWM2
0141037155999992000010813504+51400-003430FM-15+0050EGDX V0202701N007712200019N0112651N1+00901+00201999999ADDGA1021+009009999GF102991999999999999999999MA1101691999999MW1001REMMET047EGDX 1350Z 27015KT 9999 FEW030 09/02 Q1017 BLU;EQDQ01+000000PRSWM2
0141037155999992000010923504+51400-003430FM-15+0050EGDX V0202301N004610090019N0112651N1+01001+00501999999ADDGA1071+009009999GF107991999999999999999999MA1103011999999MW1001REMMET047EGDX 1450Z 23009KT 9999 BKN030 10/05 Q1030 BLU;EQDQ01+000000PRSWM2
0141037155999992000011007504+51400-003430FM-15+0050EGDX V0202401N004612200019N0112651N1+00601+00301999999ADDGA1021+014409999GF102991999999999999999999MA1103291999999MW1001REMMET047EGDX 0750Z 24009KT 9999 FEW048 06/03 Q1033 BLU;EQDQ01+000000PRSWM2
0164037155999992000011008504+51400-003430FM-15+0050EGDX V0202301N005712200019N0112651N1+00601+00301999999ADDGA1021+014409999GA2021+027009999GF104991999999999999999999MA1103291999999MW1001REMMET054EGDX 0850Z 23011KT 9999 FEW048 SCT090 06/03 Q1033 BLU;EQDQ01+000000PRSWM2
0164037155999992000011009504+51400-003430FM-15+0050EGDX V0202301N005712200019N0112651N1+00701+00301999999ADDGA1021+013809999GA2021+027009999GF104991999999999999999999MA1103291999999MW1001REMMET054EGDX 0950Z 23011KT 9999 FEW046 SCT090 07/03 Q1033 BLU;EQDQ01+000000PRSWM2
0093037155999992000011010504+51400-003430FM-15+0050EGDX V0202201N00571220001CN0099001N1+00801+00301999999ADDMA1103291999999MW1001REMMET041EGDX 1050Z 22011KT CAVOK 08/03 Q1033 BLU;EQDQ01+000000PRSWM2
0093037155999992000011011504+51400-003430FM-15+0050EGDX V0202201N00571220001CN0099001N1+00801+00301999999ADDMA1103291999999MW1001REMMET041EGDX 1150Z 22011KT CAVOK 08/03 Q1033 BLU;EQDQ01+000000PRSWM2
0141037155999992000011013504+51400-003430FM-15+0050EGDX V0202201N006210135019N0112651N1+00801+00401999999ADDGA1071+013509999GF107991999999999999999999MA1103181999999MW1001REMMET047EGDX 1350Z 22012KT 9999 BKN045 08/04 Q1032 BLU;EQDQ01+000000PRSWM2
0093037155999992000011015504+51400-003430FM-15+0050EGDX V0202201N00511220001CN0099001N1+00801+00401999999ADDMA1103181999999MW1001REMMET041EGDX 1550Z 22010KT CAVOK 08/04 Q1032 BLU;EQDQ01+000000PRSWM2
0164037155999992000011107504+51400-003430FM-15+0050EGDX V0202301N005710111019N0112651N1+00901+00701999999ADDGA1021+005409999GA2071+011109999GF107991999999999999999999MA1103121999999MW1001REMMET054EGDX 0750Z 23011KT 9999 FEW018 BKN037 09/07 Q1031 BLU;EQDQ01+000000PRSWM2
0141037155999992000011108504+51400-003430FM-15+0050EGDX V0202301N005110114019N0112651N1+00901+00701999999ADDGA1071+011409999GF107991999999999999999999MA1103181999999MW1001REMMET047EGDX 0850Z 23010KT 9999 BKN038 09/07 Q1032 BLU;EQDQ01+000000PRSWM2
0164037155999992000011109504+51400-003430FM-15+0050EGDX V0202401N005110051019N0112651N1+00901+00701999999ADDGA1071+005109999GA2071+011409999GF107991999999999999999999MA1103181999999MW1001REMMET054EGDX 0950Z 24010KT 9999 BKN017 BKN038 09/07 Q1032 WHT;EQDQ01+000000PRSWM2
0164037155999992000011110504+51400-003430FM-15+0050EGDX V0202201N004610123019N0112651N1+00901+00601999999ADDGA1021+005109999GA2071+012309999GF107991999999999999999999MA1103181999999MW1001REMMET054EGDX 1050Z 22009KT 9999 FEW017 BKN041 09/06 Q1032 BLU;EQDQ01+000000PRSWM2
0164037155999992000011111504+51400-003430FM-15+0050EGDX V0202301N003610114019N0112651N1+01001+00601999999ADDGA1021+007509999GA2071+011409999GF107991999999999999999999MA1103121999999MW1001REMMET054EGDX 1150Z 23007KT 9999 FEW025 BKN038 10/06 Q1031 BLU;EQDQ01+000000PRSWM2
0164037155999992000011113504+51400-003430FM-15+0050EGDX V0202301N006210126019N0112651N1+01001+00501999999ADDGA1021+008709999GA2071+012609999GF107991999999999999999999MA1103011999999MW1001REMMET054EGDX 1350Z 23012KT 9999 FEW029 BKN042 10/05 Q1030 BLU;EQDQ01+000000PRSWM2
0141037155999992000011115504+51400-003430FM-15+0050EGDX V0202301N004610090019N0112651N1+00901+00501999999ADDGA1071+009009999GF107991999999999999999999MA1102911999999MW1001REMMET047EGDX 1550Z 23009KT 9999 BKN030 09/05 Q1029 BLU;EQDQ01+000000PRSWM2
0141037155999992000011207504+51400-003430FM-15+0050EGDX V0202201N007210132019N0112651N1+00901+00501999999ADDGA1071+013209999GF107991999999999999999999MA1102201999999MW1001REMMET047EGDX 0750Z 22014KT 9999 BKN044 09/05 Q1022 BLU;EQDQ01+000000PRSWM2
0164037155999992000011208504+51400-003430FM-15+0050EGDX V0202301N008710129019N0112651N1+00901+00501999999ADDGA1021+007509999GA2081+012909999GF108991999999999999999999MA1102101999999MW1001REMMET054EGDX 0850Z 23017KT 9999 SCT025 OVC043 09/05 Q1021 BLU;EQDQ01+000000PRSWM2
0164037155999992000011209504+51400-003430FM-15+0050EGDX V0202201N008710105019N0112651N1+00901+00501999999ADDGA1021+006609999GA2071+010509999GF107991999999999999999999MA1102101999999MW1001REMMET054EGDX 0950Z 22017KT 9999 SCT022 BKN035 09/05 Q1021 WHT;EQDQ01+000000PRSWM2
0187037155999992000011210504+51400-003430FM-15+0050EGDX V0202201N010310105019N0112651N1+00901+00501999999ADDGA1021+007509999GA2071+010509999GA3071+015009999GF107991999999999999999999MA1102101999999MW1001REMMET061EGDX 1050Z 22020KT 9999 FEW025 BKN035 BKN050 09/05 Q1021 BLU;EQDQ01+000000PRSWM2
0187037155999992000011211504+51400-003430FM-15+0050EGDX V0202101N007710150019N0112651N1+00901+00501999999ADDGA1021+007509999GA2021+009609999GA3071+015009999GF107991999999999999999999MA1102001999999MW1001REMMET061EGDX 1150Z 21015KT 9999 FEW025 SCT032 BKN050 09/05 Q1020 BLU;EQDQ01+000000PRSWM2
0187037155999992000011212504+51400-003430FM-15+0050EGDX V0202101N007710111019N0112651N1+00901+00501999999ADDGA1071+011109999GA2021+012609999GA3071+014409999GF107991999999999999999999MA1101901999999MW1001REMMET061EGDX 1250Z 21015KT 9999 BKN037 SCT042 BKN048 09/05 Q1019 BLU;EQDQ01+000000PRSWM2
0164037155999992000011213504+51400-003430FM-15+0050EGDX V0202201N008210120019N0112651N1+00901+00401999999ADDGA1071+012009999GA2071+015009999GF107991999999999999999999MA1101801999999MW1001REMMET054EGDX 1350Z 22016KT 9999 BKN040 BKN050 09/04 Q1018 BLU;EQDQ01+000000PRSWM2
0141037155999992000011214504+51400-003430FM-15+0050EGDX V0202101N010310123019N0112651N1+00901+00301999999ADDGA1071+012309999GF107991999999999999999999MA1101691999999MW1001REMMET047EGDX 1450Z 21020KT 9999 BKN041 09/03 Q1017 BLU;EQDQ01+000000PRSWM2
0164037155999992000011215504+51400-003430FM-15+0050EGDX V0202201N008710090019N0112651N1+00901+00301999999ADDGA1071+009009999GA2071+012609999GF107991999999999999999999MA1101691999999MW1001REMMET054EGDX 1550Z 22017KT 9999 BKN030 BKN042 09/03 Q1017 BLU;EQDQ01+000000PRSWM2
0164037155999992000011307504+51400-003430FM-15+0050EGDX V0202901N001512200019N0112651N1+00301+00101999999ADDGA1021+007509999GA2021+030009999GF104991999999999999999999MA1101591999999MW1001REMMET054EGDX 0750Z 29003KT 9999 FEW025 SCT100 03/01 Q1016 BLU;EQDQ01+000000PRSWM2
0164037155999992000011308504+51400-003430FM-15+0050EGDX V0202901N001512200019N0112651N1+00301+00101999999ADDGA1021+007509999GA2021+030009999GF104991999999999999999999MA1101591999999MW1001REMMET054EGDX 0850Z 29003KT 9999 FEW025 SCT100 03/01 Q1016 BLU;EQDQ01+000000PRSWM2
0141037155999992000011309504+51400-003430FM-15+0050EGDX V0203401N001512200019N0112651N1+00201+00101999999ADDGA1021+014409999GF104991999999999999999999MA1101691999999MW1001REMMET047EGDX 0950Z 34003KT 9999 SCT048 02/01 Q1017 BLU;EQDQ01+000000PRSWM2
0141037155999992000011310504+51400-003430FM-15+0050EGDX V0209999C000010132019N0112651N1+00401+00201999999ADDGA1071+013209999GF107991999999999999999999MA1101691999999MW1001REMMET047EGDX 1050Z 00000KT 9999 BKN044 04/02 Q1017 BLU;EQDQ01+000000PRSWM2
0141037155999992000011311504+51400-003430FM-15+0050EGDX V0200301N002610132019N0112651N1+00401+00201999999ADDGA1071+013209999GF107991999999999999999999MA1101691999999MW1001REMMET047EGDX 1150Z 03005KT 9999 BKN044 04/02 Q1017 BLU;EQDQ01+000000PRSWM2
0141037155999992000011312504+51400-003430FM-15+0050EGDX V0203601N002110135019N0112651N1+00501+00201999999ADDGA1071+013509999GF107991999999999999999999MA1101691999999MW1001REMMET047EGDX 1250Z 36004KT 9999 BKN045 05/02 Q1017 BLU;EQDQ01+000000PRSWM2
0141037155999992000011313504+51400-003430FM-15+0050EGDX V0203601N002112200019N0112651N1+00501+00201999999ADDGA1021+013509999GF102991999999999999999999MA1101591999999MW1001REMMET047EGDX 1350Z 36004KT 9999 FEW045 05/02 Q1016 BLU;EQDQ01+000000PRSWM2
0141037155999992000011314504+51400-003430FM-15+0050EGDX V0203401N002112200019N0112651N1+00601+00001999999ADDGA1021+009009999GF102991999999999999999999MA1101691999999MW1001REMMET047EGDX 1450Z 34004KT 9999 FEW030 06/00 Q1017 BLU;EQDQ01+000000PRSWM2
0141037155999992000011315504+51400-003430FM-15+0050EGDX V0203101N001512200019N0112651N1+00501+00101999999ADDGA1021+009009999GF102991999999999999999999MA1101691999999MW1001REMMET047EGDX 1550Z 31003KT 9999 FEW030 05/01 Q1017 BLU;EQDQ01+000000PRSWM2
0141037155999992000011407504+51400-003430FM-15+0050EGDX V0203501N002112200019N0112651N1+00301+00001999999ADDGA1021+006309999GF104991999999999999999999MA1102401999999MW1001REMMET047EGDX 0750Z 35004KT 9999 SCT021 03/00 Q1024 WHT;EQDQ01+000000PRSWM2
0141037155999992000011408504+51400-003430FM-15+0050EGDX V0203401N002110126019N0112651N1+00301+00001999999ADDGA1071+012609999GF107991999999999999999999MA1102401999999MW1001REMMET047EGDX 0850Z 34004KT 9999 BKN042 03/00 Q1024 BLU;EQDQ01+000000PRSWM2
0141037155999992000011409504+51400-003430FM-15+0050EGDX V0203501N002110141019N0112651N1+00401+00001999999ADDGA1071+014109999GF107991999999999999999999MA1102511999999MW1001REMMET047EGDX 0950Z 35004KT 9999 BKN047 04/00 Q1025 BLU;EQDQ01+000000PRSWM2
0141037155999992000011410504+51400-003430FM-15+0050EGDX V0200301N004610084019N0112651N1+00501+00101999999ADDGA1071+008409999GF107991999999999999999999MA1102511999999MW1001REMMET047EGDX 1050Z 03009KT 9999 BKN028 05/01 Q1025 BLU;EQDQ01+000000PRSWM2
0164037155999992000011411504+51400-003430FM-15+0050EGDX V0200401N004112200019N0112651N1+00601+00001999999ADDGA1021+009309999GA2021+013809999GF104991999999999999999999MA1102611999999MW1001REMMET054EGDX 1150Z 04008KT 9999 SCT031 SCT046 06/00 Q1026 BLU;EQDQ01+000000PRSWM2
0142037155999992000011412504+51400-003430FM-15+0050EGDX V0200401N007212200019N0112651N1+00601+00001999999ADDGA1021+009909999GF102991999999999999999999MA1102511999999MW1001REMMET048EGDX 1250Z 04014KT 9999 FEW033 06/M00 Q1025 BLU;EQDQ01+000000PRSWM2
0142037155999992000011413504+51400-003430FM-15+0050EGDX V0200401N005712200019N0112651N1+00601+00001999999ADDGA1021+009609999GF102991999999999999999999MA1102611999999MW1001REMMET048EGDX 1350Z 04011KT 9999 FEW032 06/M00 Q1026 BLU;EQDQ01+000000PRSWM2
0142037155999992000011414504+51400-003430FM-15+0050EGDX V0200501N006210090019N0112651N1+00501-00101999999ADDGA1071+009009999GF107991999999999999999999MA1102611999999MW1001REMMET048EGDX 1450Z 05012KT 9999 BKN030 05/M01 Q1026 BLU;EQDQ01+000000PRSWM2
0164037155999992000011507504+51400-003430FM-15+0050EGDX V0200501N008210150019N0050001N1+00501+00201999999ADDGA1021+007509999GA2071+015009999GF107991999999999999999999MA1103491999999MW1001REMMET054EGDX 0750Z 05016KT 5000 FEW025 BKN050 05/02 Q1035 WHT;EQDQ01+000000PRSWM2
0164037155999992000011508504+51400-003430FM-15+0050EGDX V0200501N006210132019N0060001N1+00501+00201999999ADDGA1021+006309999GA2071+013209999GF107991999999999999999999MA1103591999999MW1001REMMET054EGDX 0850Z 05012KT 6000 FEW021 BKN044 05/02 Q1036 WHT;EQDQ01+000000PRSWM2
0164037155999992000011509504+51400-003430FM-15+0050EGDX V0200501N006710126019N0060001N1+00501+00301999999ADDGA1021+004509999GA2071+012609999GF107991999999999999999999MA1103691999999MW1001REMMET054EGDX 0950Z 05013KT 6000 FEW015 BKN042 05/03 Q1037 WHT;EQDQ01+000000PRSWM2
0164037155999992000011510504+51400-003430FM-15+0050EGDX V0200601N005710147019N0070001N1+00501+00301999999ADDGA1021+004809999GA2071+014709999GF107991999999999999999999MA1103691999999MW1001REMMET054EGDX 1050Z 06011KT 7000 FEW016 BKN049 05/03 Q1037 WHT;EQDQ01+000000PRSWM2
0164037155999992000011511504+51400-003430FM-15+0050EGDX V0200601N006710144019N0112651N1+00601+00301999999ADDGA1021+005109999GA2071+014409999GF107991999999999999999999MA1103791999999MW1001REMMET054EGDX 1150Z 06013KT 9999 SCT017 BKN048 06/03 Q1038 WHT;EQDQ01+000000PRSWM2
0164037155999992000011513504+51400-003430FM-15+0050EGDX V0200501N006710132019N0070001N1+00601+00201999999ADDGA1021+005109999GA2071+013209999GF107991999999999999999999MA1103791999999MW1001REMMET054EGDX 1350Z 05013KT 7000 FEW017 BKN044 06/02 Q1038 WHT;EQDQ01+000000PRSWM2
0141037155999992000011514504+51400-003430FM-15+0050EGDX V0200501N006710144019N0070001N1+00601+00201999999ADDGA1071+014409999GF107991999999999999999999MA1103891999999MW1001REMMET047EGDX 1450Z 05013KT 7000 BKN048 06/02 Q1039 WHT;EQDQ01+000000PRSWM2
0160037155999992000011707504+51400-003430FM-15+0050EGDX V0203001N003110015019N0040001N1+00401+00301999999ADDGA1081+001509999GF108991999999999999999999MA1104001999999MW1101REMMET050EGDX 0750Z 30006KT 4000 BR OVC005 04/03 Q1040 YLO;EQDQ01+000003PRSWM1Q02    003PRSWM1
0160037155999992000011708504+51400-003430FM-15+0050EGDX V0203001N003610009019N0040001N1+00401+00301999999ADDGA1081+000909999GF108991999999999999999999MA1103891999999MW1101REMMET050EGDX 0850Z 30007KT 4000 BR OVC003 04/03 Q1039 YLO;EQDQ01+000003PRSWM1Q02    003PRSWM1
0160037155999992000011709504+51400-003430FM-15+0050EGDX V0209999C000012200019N0025001N1+00401+00301999999ADDGA1021+000909999GF102991999999999999999999MA1103891999999MW1101REMMET050EGDX 0950Z 00000KT 2500 BR FEW003 04/03 Q1039 YLO;EQDQ01+000003PRSWM1Q02    003PRSWM1
0160037155999992000011710504+51400-003430FM-15+0050EGDX V0209999C000010018019N0025001N1+00401+00301999999ADDGA1071+001809999GF107991999999999999999999MA1104001999999MW1101REMMET050EGDX 1050Z 00000KT 2500 BR BKN006 04/03 Q1040 YLO;EQDQ01+000003PRSWM1Q02    003PRSWM1
0160037155999992000011711504+51400-003430FM-15+0050EGDX V0200501N000512200019N0050001N1+00501+00401999999ADDGA1021+002409999GF102991999999999999999999MA1103891999999MW1101REMMET050EGDX 1150Z 05001KT 5000 BR FEW008 05/04 Q1039 WHT;EQDQ01+000003PRSWM1Q02    003PRSWM1
0122037155999992000011712504+51400-003430FM-15+0050EGDX V0209999C000012200019N0050001N1+00801+00401999999ADDGF100991999999999999999999MA1103791999999MW1001REMMET044EGDX 1250Z 00000KT 5000 SKC 08/04 Q1038 WHT;EQDQ01+000000PRSWM2
0141037155999992000011713504+51400-003430FM-15+0050EGDX V0201301N001012200019N0050001N1+00701+00501999999ADDGA1021+002409999GF102991999999999999999999MA1103791999999MW1001REMMET047EGDX 1350Z 13002KT 5000 FEW008 07/05 Q1038 WHT;EQDQ01+000000PRSWM2
0141037155999992000011714504+51400-003430FM-15+0050EGDX V0201401N001512200019N0050001N1+00601+00401999999ADDGF100991999999999999999999MA1103791999999MW1051REMMET047EGDX 1450Z 14003KT 5000 HZ SKC 06/04 Q1038 WHT;EQDQ01+000003PRSWM1Q02    003PRSWM1
0141037155999992000011715504+51400-003430FM-15+0050EGDX V0201101N001012200019N0035001N1+00401+00201999999ADDGF100991999999999999999999MA1103791999999MW1051REMMET047EGDX 1550Z 11002KT 3500 HZ SKC 04/02 Q1038 YLO;EQDQ01+000003PRSWM1Q02    003PRSWM1
0143037155999992000011807504+51400-003430FM-15+0050EGDX V0203501N002612200019N0020001N1+00001+00001999999ADDGF100991999999999999999999MA1103591999999MW1101REMMET049EGDX 0750Z 35005KT 2000 BR SKC M00/M00 Q1036 YLO;EQDQ01+000003PRSWM1Q02    003PRSWM1
0160037155999992000011808504+51400-003430FM-15+0050EGDX V0209999C000012200019N0005001N1+00101+00001999999ADDGA1021+000159999GF104991999999999999999999MA1103691999999MW1441REMMET050EGDX 0850Z 00000KT 0500 FG SCT000 01/00 Q1037 RED;EQDQ01+000003PRSWM1Q02    003PRSWM1
0141037155999992000011809504+51400-003430FM-15+0050EGDX V0209999C000012200019N0040001N1+00201+00201999999ADDGF100991999999999999999999MA1103691999999MW1101REMMET047EGDX 0950Z 00000KT 4000 BR SKC 02/02 Q1037 GRN;EQDQ01+000003PRSWM1Q02    003PRSWM1
0122037155999992000011810504+51400-003430FM-15+0050EGDX V0209999C000012200019N0070001N1+00401+00401999999ADDGF100991999999999999999999MA1103691999999MW1001REMMET044EGDX 1050Z 00000KT 7000 SKC 04/04 Q1037 WHT;EQDQ01+000000PRSWM2
0093037155999992000011811504+51400-003430FM-15+0050EGDX V0209999C00001220001CN0099001N1+00601+00501999999ADDMA1103691999999MW1001REMMET041EGDX 1150Z 00000KT CAVOK 06/05 Q1037 BLU;EQDQ01+000000PRSWM2
0093037155999992000011812504+51400-003430FM-15+0050EGDX V0209999C00001220001CN0099001N1+00801+00501999999ADDMA1103691999999MW1001REMMET041EGDX 1250Z 00000KT CAVOK 08/05 Q1037 BLU;EQDQ01+000000PRSWM2
0093037155999992000011813504+51400-003430FM-15+0050EGDX V0209999C00001220001CN0099001N1+00801+00401999999ADDMA1103591999999MW1001REMMET041EGDX 1350Z 00000KT CAVOK 08/04 Q1036 BLU;EQDQ01+000000PRSWM2
0093037155999992000011814504+51400-003430FM-15+0050EGDX V0209999C00001220001CN0099001N1+00701+00401999999ADDMA1103591999999MW1001REMMET041EGDX 1450Z 00000KT CAVOK 07/04 Q1036 BLU;EQDQ01+000000PRSWM2
0093037155999992000011815504+51400-003430FM-15+0050EGDX V0209999C00001220001CN0099001N1+00601+00401999999ADDMA1103591999999MW1001REMMET041EGDX 1550Z 00000KT CAVOK 06/04 Q1036 BLU;EQDQ01+000000PRSWM2
0141037155999992000011907504+51400-003430FM-15+0050EGDX V0209999C000010096019N0080001N1+00601+00401999999ADDGA1081+009609999GF108991999999999999999999MA1103791999999MW1001REMMET047EGDX 0750Z 00000KT 8000 OVC032 06/04 Q1038 BLU;EQDQ01+000000PRSWM2
0141037155999992000011908504+51400-003430FM-15+0050EGDX V0209999C000010108019N0080001N1+00601+00301999999ADDGA1071+010809999GF107991999999999999999999MA1103791999999MW1001REMMET047EGDX 0850Z 00000KT 8000 BKN036 06/03 Q1038 BLU;EQDQ01+000000PRSWM2
0141037155999992000011909504+51400-003430FM-15+0050EGDX V0209999C000010117019N0112651N1+00601+00301999999ADDGA1071+011709999GF107991999999999999999999MA1103791999999MW1001REMMET047EGDX 0950Z 00000KT 9999 BKN039 06/03 Q1038 BLU;EQDQ01+000000PRSWM2
0141037155999992000011910504+51400-003430FM-15+0050EGDX V0209999C000010111019N0112651N1+00701+00401999999ADDGA1071+011109999GF107991999999999999999999MA1103891999999MW1001REMMET047EGDX 1050Z 00000KT 9999 BKN037 07/04 Q1039 BLU;EQDQ01+000000PRSWM2
0141037155999992000011911504+51400-003430FM-15+0050EGDX V0209999C000010111019N0112651N1+00801+00301999999ADDGA1071+011109999GF107991999999999999999999MA1103791999999MW1001REMMET047EGDX 1150Z 00000KT 9999 BKN037 08/03 Q1038 BLU;EQDQ01+000000PRSWM2
0141037155999992000011912504+51400-003430FM-15+0050EGDX V0209999C000010114019N0112651N1+00801+00401999999ADDGA1071+011409999GF107991999999999999999999MA1103791999999MW1001REMMET047EGDX 1250Z 00000KT 9999 BKN038 08/04 Q1038 BLU;EQDQ01+000000PRSWM2
0160037155999992000011915504+51400-003430FM-15+0050EGDX V0201701N000510087019N0090001N1+00701+00401999999ADDGA1081+008709999GF108991999999999999999999MA1103791999999MW1051REMMET050EGDX 1550Z 17001KT 9000 HZ OVC029 07/04 Q1038 BLU;EQDQ01+000003PRSWM1Q02    003PRSWM1
0160037155999992000012007504+51400-003430FM-15+0050EGDX V0203001N001510072019N0080001N1+00601+00301999999ADDGA1081+007209999GF108991999999999999999999MA1103491999999MW1051REMMET050EGDX 0750Z 30003KT 8000 HZ OVC024 06/03 Q1035 WHT;EQDQ01+000003PRSWM1Q02    003PRSWM1
0160037155999992000012008504+51400-003430FM-15+0050EGDX V0202901N002610075019N0090001N1+00601+00301999999ADDGA1081+007509999GF108991999999999999999999MA1103491999999MW1051REMMET050EGDX 0850Z 29005KT 9000 HZ OVC025 06/03 Q1035 BLU;EQDQ01+000003PRSWM1Q02    003PRSWM1
0160037155999992000012009504+51400-003430FM-15+0050EGDX V0203101N004610069019N0090001N1+00601+00301999999ADDGA1081+006909999GF108991999999999999999999MA1103491999999MW1051REMMET050EGDX 0950Z 31009KT 9000 HZ OVC023 06/03 Q1035 WHT;EQDQ01+000003PRSWM1Q02    003PRSWM1
0183037155999992000012010504+51400-003430FM-15+0050EGDX V0203101N004610051019N0060001N1+00601+00201999999ADDGA1071+005109999GA2081+006009999GF108991999999999999999999MA1103491999999MW1051REMMET057EGDX 1050Z 31009KT 6000 HZ BKN017 OVC020 06/02 Q1035 WHT;EQDQ01+000003PRSWM1Q02    003PRSWM1
0160037155999992000012011504+51400-003430FM-15+0050EGDX V0203201N004110060019N0060001N1+00601+00201999999ADDGA1081+006009999GF108991999999999999999999MA1103491999999MW1051REMMET050EGDX 1150Z 32008KT 6000 HZ OVC020 06/02 Q1035 WHT;EQDQ01+000003PRSWM1Q02    003PRSWM1
0141037155999992000012012504+51400-003430FM-15+0050EGDX V0203401N004110054019N0060001N1+00501+00101999999ADDGA1081+005409999GF108991999999999999999999MA1103391999999MW1001REMMET047EGDX 1250Z 34008KT 6000 OVC018 05/01 Q1034 WHT;EQDQ01+000000PRSWM2
0183037155999992000012013504+51400-003430FM-15+0050EGDX V0203101N003110057019N0070001N1+00501+00101999999ADDGA1071+005709999GA2081+007209999GF108991999999999999999999MA1103391999999MW1051REMMET057EGDX 1350Z 31006KT 7000 HZ BKN019 OVC024 05/01 Q1034 WHT;EQDQ01+000003PRSWM1Q02    003PRSWM1
0141037155999992000012014504+51400-003430FM-15+0050EGDX V0203001N002610057019N0070001N1+00501+00101999999ADDGA1081+005709999GF108991999999999999999999MA1103391999999MW1001REMMET047EGDX 1450Z 30005KT 7000 OVC019 05/01 Q1034 WHT;EQDQ01+000000PRSWM2
0160037155999992000012015504+51400-003430FM-15+0050EGDX V0202901N003610066019N0050001N1+00401+00201999999ADDGA1071+006609999GF107991999999999999999999MA1103391999999MW1051REMMET050EGDX 1550Z 29007KT 5000 HZ BKN022 04/02 Q1034 WHT;EQDQ01+000003PRSWM1Q02    003PRSWM1
0142037155999992000012107504+51400-003430FM-15+0050EGDX V0203601N002612200019N0112651N1+00101+00001999999ADDGA1021+009309999GF102991999999999999999999MA1103491999999MW1001REMMET048EGDX 0750Z 36005KT 9999 FEW031 01/M00 Q1035 BLU;EQDQ01+000000PRSWM2
0142037155999992000012108504+51400-003430FM-15+0050EGDX V0202901N001512200019N0112651N1+00201+00001999999ADDGA1021+009309999GF102991999999999999999999MA1103591999999MW1001REMMET048EGDX 0850Z 29003KT 9999 FEW031 02/M00 Q1036 BLU;EQDQ01+000000PRSWM2
0141037155999992000012109504+51400-003430FM-15+0050EGDX V0203001N001510117019N0112651N1+00401+00001999999ADDGA1071+011709999GF107991999999999999999999MA1103591999999MW1001REMMET047EGDX 0950Z 30003KT 9999 BKN039 04/00 Q1036 BLU;EQDQ01+000000PRSWM2
0141037155999992000012110504+51400-003430FM-15+0050EGDX V0202901N003110114019N0112651N1+00501+00301999999ADDGA1071+011409999GF107991999999999999999999MA1103591999999MW1001REMMET047EGDX 1050Z 29006KT 9999 BKN038 05/03 Q1036 BLU;EQDQ01+000000PRSWM2
0141037155999992000012111504+51400-003430FM-15+0050EGDX V0202901N004110114019N0112651N1+00601+00201999999ADDGA1071+011409999GF107991999999999999999999MA1103591999999MW1001REMMET047EGDX 1150Z 29008KT 9999 BKN038 06/02 Q1036 BLU;EQDQ01+000000PRSWM2
0141037155999992000012112504+51400-003430FM-15+0050EGDX V0202901N003110105019N0112651N1+00601+00101999999ADDGA1071+010509999GF107991999999999999999999MA1103591999999MW1001REMMET047EGDX 1250Z 29006KT 9999 BKN035 06/01 Q1036 BLU;EQDQ01+000000PRSWM2
0141037155999992000012113504+51400-003430FM-15+0050EGDX V0202701N004110120019N0112651N1+00601+00201999999ADDGA1071+012009999GF107991999999999999999999MA1103491999999MW1001REMMET047EGDX 1350Z 27008KT 9999 BKN040 06/02 Q1035 BLU;EQDQ01+000000PRSWM2
0141037155999992000012114504+51400-003430FM-15+0050EGDX V0202901N003110114019N0112651N1+00601+00301999999ADDGA1081+011409999GF108991999999999999999999MA1103391999999MW1001REMMET047EGDX 1450Z 29006KT 9999 OVC038 06/03 Q1034 BLU;EQDQ01+000000PRSWM2
0208037155999992000012208504+51400-003430FM-15+0050EGDX V0202801N009310066019N0070001N1+00701+00401999999ADDGA1021+005409999GA2071+006609999GA3071+009009999GF107991999999999999999999MA1102201999999MW1811REMMET066EGDX 0850Z 28018KT 7000 SHRA FEW018 BKN022 BKN030 07/04 Q1022 WHT;EQDQ01+000003PRSWM1Q02    003PRSWM1
0162037155999992000012209504+51400-003430FM-15+0050EGDX V0203301N006712200019N0112651N1+00701+00401999999ADDGA1021+006609999GF104991999999999999999999MA1102201999999MW1811REMMET052EGDX 0950Z 33013KT 9999 SHRA SCT022 07/04 Q1022 WHT;EQDQ01+000003PRSWM1Q02    003PRSWM1
0162037155999992000012211504+51400-003430FM-15+0050EGDX V0203101N008710150019N0112651N1+00801+00101999999ADDGA1071+015009999GF107991999999999999999999MA1102201999999MW1811REMMET052EGDX 1150Z 31017KT 9999 SHRA BKN050 08/01 Q1022 BLU;EQDQ01+000003PRSWM1Q02    003PRSWM1
0165037155999992000012407504+51400-003430FM-15+0050EGDX V0203001N002610180019N0112651N1+00201-00101999999ADDGA1021+013509999GA2071+018009999GF107991999999999999999999MA1102401999999MW1001REMMET055EGDX 0750Z 30005KT 9999 FEW045 BKN060 02/M01 Q1024 BLU;EQDQ01+000000PRSWM2
0165037155999992000012408504+51400-003430FM-15+0050EGDX V0203401N002110150019N0112651N1+00301+00001999999ADDGA1021+012009999GA2071+015009999GF107991999999999999999999MA1102401999999MW1001REMMET055EGDX 0850Z 34004KT 9999 SCT040 BKN050 03/M00 Q1024 BLU;EQDQ01+000000PRSWM2
0142037155999992000012409504+51400-003430FM-15+0050EGDX V0203601N002110078019N0112651N1+00301+00001999999ADDGA1071+007809999GF107991999999999999999999MA1102401999999MW1001REMMET048EGDX 0950Z 36004KT 9999 BKN026 03/M00 Q1024 BLU;EQDQ01+000000PRSWM2
0141037155999992000012410504+51400-003430FM-15+0050EGDX V0203501N001010075019N0112651N1+00401+00101999999ADDGA1071+007509999GF107991999999999999999999MA1102401999999MW1001REMMET047EGDX 1050Z 35002KT 9999 BKN025 04/01 Q1024 BLU;EQDQ01+000000PRSWM2
0164037155999992000012411504+51400-003430FM-15+0050EGDX V0200501N003110105019N0112651N1+00501+00101999999ADDGA1021+007509999GA2071+010509999GF107991999999999999999999MA1102511999999MW1001REMMET054EGDX 1150Z 05006KT 9999 FEW025 BKN035 05/01 Q1025 BLU;EQDQ01+000000PRSWM2
0164037155999992000012412504+51400-003430FM-15+0050EGDX V0200701N004110090019N0112651N1+00501+00001999999ADDGA1021+005409999GA2071+009009999GF107991999999999999999999MA1102401999999MW1001REMMET054EGDX 1250Z 07008KT 9999 FEW018 BKN030 05/00 Q1024 BLU;EQDQ01+000000PRSWM2
0141037155999992000012413504+51400-003430FM-15+0050EGDX V0200501N003110078019N0112651N1+00401+00101999999ADDGA1071+007809999GF107991999999999999999999MA1102401999999MW1001REMMET047EGDX 1350Z 05006KT 9999 BKN026 04/01 Q1024 BLU;EQDQ01+000000PRSWM2
0160037155999992000012414504+51400-003430FM-15+0050EGDX V0200901N002610102019N0112651N1+00401+00101999999ADDGA1071+010209999GF107991999999999999999999MA1102401999999MW1051REMMET050EGDX 1450Z 09005KT 9999 HZ BKN034 04/01 Q1024 BLU;EQDQ01+000003PRSWM1Q02    003PRSWM1
0141037155999992000012415504+51400-003430FM-15+0050EGDX V0200801N003610096019N0112651N1+00401+00001999999ADDGA1081+009609999GF108991999999999999999999MA1102511999999MW1001REMMET047EGDX 1550Z 08007KT 9999 OVC032 04/00 Q1025 BLU;EQDQ01+000000PRSWM2
0161037155999992000012507504+51400-003430FM-15+0050EGDX V0203401N000510135019N0060001N1+00001-00101999999ADDGA1081+013509999GF108991999999999999999999MA1102911999999MW1051REMMET051EGDX 0750Z 34001KT 6000 HZ OVC045 00/M01 Q1029 WHT;EQDQ01+000003PRSWM1Q02    003PRSWM1
0161037155999992000012508504+51400-003430FM-15+0050EGDX V0209999C000010135019N0112651N1+00101-00201999999ADDGA1071+013509999GF107991999999999999999999MA1102911999999MW1051REMMET051EGDX 0850Z 00000KT 9999 HZ BKN045 01/M02 Q1029 BLU;EQDQ01+000003PRSWM1Q02    003PRSWM1
0161037155999992000012509504+51400-003430FM-15+0050EGDX V0209999C000010135019N0112651N1+00201-00101999999ADDGA1071+013509999GF107991999999999999999999MA1102911999999MW1051REMMET051EGDX 0950Z 00000KT 9999 HZ BKN045 02/M01 Q1029 BLU;EQDQ01+000003PRSWM1Q02    003PRSWM1
0160037155999992000012510504+51400-003430FM-15+0050EGDX V0209999C000010135019N0112651N1+00401+00001999999ADDGA1071+013509999GF107991999999999999999999MA1103011999999MW1051REMMET050EGDX 1050Z 00000KT 9999 HZ BKN045 04/00 Q1030 BLU;EQDQ01+000003PRSWM1Q02    003PRSWM1
0160037155999992000012511504+51400-003430FM-15+0050EGDX V0209999C000010147019N0090001N1+00501+00101999999ADDGA1071+014709999GF107991999999999999999999MA1102911999999MW1051REMMET050EGDX 1150Z 00000KT 9000 HZ BKN049 05/01 Q1029 BLU;EQDQ01+000003PRSWM1Q02    003PRSWM1
0160037155999992000012512504+51400-003430FM-15+0050EGDX V0200901N001012200019N0090001N1+00601+00101999999ADDGA1021+014109999GF102991999999999999999999MA1102911999999MW1051REMMET050EGDX 1250Z 09002KT 9000 HZ FEW047 06/01 Q1029 BLU;EQDQ01+000003PRSWM1Q02    003PRSWM1
0141037155999992000012513504+51400-003430FM-15+0050EGDX V0201701N002612200019N0060001N1+00601+00201999999ADDGA1021+005709999GF102991999999999999999999MA1102911999999MW1001REMMET047EGDX 1350Z 17005KT 6000 FEW019 06/02 Q1029 WHT;EQDQ01+000000PRSWM2
0160037155999992000012514504+51400-003430FM-15+0050EGDX V0201401N002612200019N0050001N1+00501+00201999999ADDGA1021+006009999GF102991999999999999999999MA1102911999999MW1051REMMET050EGDX 1450Z 14005KT 5000 HZ FEW020 05/02 Q1029 WHT;EQDQ01+000003PRSWM1Q02    003PRSWM1
0171037155999992000012515504+51400-003430FM-15+0050EGDX V0201401N001012200019N0040001N1+00401+00201999999ADDGA1021+007509999GF102991999999999999999999MA1102911999999MW1051MW2401REMMET055EGDX 1550Z 14002KT 4000 VCFG HZ FEW025 04/02 Q1029 GRN;EQDQ01+000003PRSWM1Q02    003PRSWM1
0163037155999992000012607504+51400-003430FM-15+0050EGDX V0200401N002110001519N0001001N1-00201-00201999999ADDGA1091+000159999GF109991999999000251999999MA1103181999999MW1491REMMET053EGDX 0750Z 04004KT 0100 FZFG VV000 M02/M02 Q1032 RED;EQDQ01+000003PRSWM1Q02    003PRSWM1
0163037155999992000012608504+51400-003430FM-15+0050EGDX V0200401N002110001519N0000501N1-00101-00101999999ADDGA1091+000159999GF109991999999000251999999MA1103291999999MW1491REMMET053EGDX 0850Z 04004KT 0050 FZFG VV000 M01/M01 Q1033 RED;EQDQ01+000003PRSWM1Q02    003PRSWM1
0163037155999992000012609504+51400-003430FM-15+0050EGDX V0200701N001510001519N0001001N1+00001-00101999999ADDGA1091+000159999GF109991999999000251999999MA1103291999999MW1491REMMET053EGDX 0950Z 07003KT 0100 FZFG VV000 M00/M01 Q1033 RED;EQDQ01+000003PRSWM1Q02    003PRSWM1
0160037155999992000012610504+51400-003430FM-15+0050EGDX V0200601N002110001519N0001001N1+00001-00101999999ADDGA1091+000159999GF109991999999000251999999MA1103291999999MW1451REMMET050EGDX 1050Z 06004KT 0100 FG VV000 00/M01 Q1033 RED;EQDQ01+000003PRSWM1Q02    003PRSWM1
0159037155999992000012611504+51400-003430FM-15+0050EGDX V0200601N001010001519N0001001N1+00101+00101999999ADDGA1091+000159999GF109991999999000251999999MA1103291999999MW1451REMMET049EGDX 1150Z 06002KT 0100 FG VV000 01/01 Q1033 RED;EQDQ01+000003PRSWM1Q02    003PRSWM1
0113037155999992000012612504+51400-003430FM-15+0050EGDX V0201001N001012200019N0002001N1+00101+00101999999ADDMA1103291999999MW1441REMMET045EGDX 1250Z 10002KT 0200 FG ///// 01/01 Q1033;EQDQ01+000003PRSWM1Q02    003PRSWM1
0160037155999992000012613504+51400-003430FM-15+0050EGDX V0209999C000012200019N0014001N1+00201+00201999999ADDGA1021+000609999GF104991999999999999999999MA1103181999999MW1441REMMET050EGDX 1350Z 00000KT 1400 FG SCT002 02/02 Q1032 AMB;EQDQ01+000003PRSWM1Q02    003PRSWM1
0160037155999992000012614504+51400-003430FM-15+0050EGDX V0209999C00001220001CN0000501N1+00201+00201999999ADDGA1071+000159999GF107991999999999999999999MA1103181999999MW1441REMMET050EGDX 1450Z 00000KT 0050 FG BKN000 02/02 Q1032 RED;EQDQ01+000003PRSWM1Q02    003PRSWM1
0160037155999992000012615504+51400-003430FM-15+0050EGDX V0209999C000012200019N0020001N1+00301+00201999999ADDGA1021+000909999GF104991999999999999999999MA1103181999999MW1441REMMET050EGDX 1550Z 00000KT 2000 FG SCT003 03/02 Q1032 YLO;EQDQ01+000003PRSWM1Q02    003PRSWM1
0162037155999992000012616504+51400-003430FM-15+0050EGDX V0209999C000012200019N0020001N1+00201+00201999999ADDGA1021+000909999GF104991999999999999999999MA1103181999999MW1121REMMET052EGDX 1650Z 00000KT 2000 MIFG SCT003 02/02 Q1032 YLO;EQDQ01+000003PRSWM1Q02    003PRSWM1
0107037155999992000012707504+51400-003430FM-15+0050EGDX V0200301N001512200019N0024001N1+99999+99999999999ADDMA1103121999999MW1001MW2401REMMET049EGDX 0750Z 03003KT 2400 VCFG ///// M05/M05 Q1031;EQDQ01+000003PRSWM1
0107037155999992000012708504+51400-003430FM-15+0050EGDX V0200301N001512200019N0031001N1+99999+99999999999ADDMA1103121999999MW1001MW2401REMMET049EGDX 0850Z 03003KT 3100 VCFG ///// M04/M04 Q1031;EQDQ01+000003PRSWM1
0107037155999992000012709504+51400-003430FM-15+0050EGDX V0200301N000512200019N0031001N1+99999+99999999999ADDMA1103121999999MW1001MW2401REMMET049EGDX 0950Z 03001KT 3100 VCFG ///// M01/M02 Q1031;EQDQ01+000003PRSWM1
0115037155999992000012710504+51400-003430FM-15+0050EGDX V0209999C000012200019N0030001N1+00101+00001999999ADDMA1103121999999MW1401REMMET047EGDX 1050Z 00000KT 3000 VCFG ///// 01/00 Q1031;EQDQ01+000003PRSWM1Q02    003PRSWM1
0115037155999992000012711504+51400-003430FM-15+0050EGDX V0209999C000012200019N0040001N1+00401+00001999999ADDMA1103121999999MW1401REMMET047EGDX 1150Z 00000KT 4000 VCFG ///// 04/00 Q1031;EQDQ01+000003PRSWM1Q02    003PRSWM1
0162037155999992000012712504+51400-003430FM-15+0050EGDX V0209999C000012200019N0028001N1+00401+00201999999ADDGA1021+013509999GF102991999999999999999999MA1103011999999MW1401REMMET052EGDX 1250Z 00000KT 2800 VCFG FEW045 04/02 Q1030 YLO;EQDQ01+000003PRSWM1Q02    003PRSWM1
0143037155999992000012713504+51400-003430FM-15+0050EGDX V0202001N001512200019N0036001N1+00401+00101999999ADDGF100991999999999999999999MA1102911999999MW1401REMMET049EGDX 1350Z 20003KT 3600 VCFG SKC 04/01 Q1029 YLO;EQDQ01+000003PRSWM1Q02    003PRSWM1
0141037155999992000012714504+51400-003430FM-15+0050EGDX V0202501N001512200019N0080001N1+00501+00101999999ADDGF100991999999999999999999MA1102811999999MW1051REMMET047EGDX 1450Z 25003KT 8000 HZ SKC 05/01 Q1028 BLU;EQDQ01+000003PRSWM1Q02    003PRSWM1
0142037155999992000012715504+51400-003430FM-15+0050EGDX V0202601N002112200019N0090001N1+00501+00001999999ADDGF100991999999999999999999MA1102711999999MW1051REMMET048EGDX 1550Z 26004KT 9000 HZ SKC 05/M00 Q1027 BLU;EQDQ01+000003PRSWM1Q02    003PRSWM1
0164037155999992000012807504+51400-003430FM-15+0050EGDX V0202401N008710180019N0070001N1+00601+00201999999ADDGA1021+008109999GA2071+018009999GF107991999999999999999999MA1101691999999MW1001REMMET054EGDX 0750Z 24017KT 7000 SCT027 BKN060 06/02 Q1017 WHT;EQDQ01+000000PRSWM2
0164037155999992000012808504+51400-003430FM-15+0050EGDX V0202401N009310072019N0112651N1+00601+00201999999ADDGA1071+007209999GA2071+018009999GF107991999999999999999999MA1101691999999MW1001REMMET054EGDX 0850Z 24018KT 9999 BKN024 BKN060 06/02 Q1017 WHT;EQDQ01+000000PRSWM2
0174037155999992000012809504+51400-003430FM-15+0050EGDX V0202301N00931220001CN0112651N1+00601+00201999999ADDGA1071+006309999GA2021+015009999MA1101591999999MW1611REMMET058EGDX 0950Z 23018KT 9999 -RA BKN021 SCT050 06/02 Q1016 WHT;EQDQ01+000042SCOTCVQ02+000003PRSWM1Q03    003PRSWM1
0164037155999992000012810504+51400-003430FM-15+0050EGDX V0202501N010310042019N0060001N1+00601+00401999999ADDGA1071+004209999GA2071+006009999GF107991999999999999999999MA1101491999999MW1001REMMET054EGDX 1050Z 25020KT 6000 BKN014 BKN020 06/04 Q1015 GRN;EQDQ01+000000PRSWM2
0141037155999992000012811504+51400-003430FM-15+0050EGDX V0202401N009810051019N0112651N1+00701+00401999999ADDGA1071+005109999GF107991999999999999999999MA1101391999999MW1001REMMET047EGDX 1150Z 24019KT 9999 BKN017 07/04 Q1014 WHT;EQDQ01+000000PRSWM2
0194037155999992000012812504+51400-003430FM-15+0050EGDX V0202501N011810054019N0080001N1+00801+00401999999ADDGA1071+005409999GA2071+018009999GF107991999999999999999999MA1101191999999MW1631OC101751REMMET060EGDX 1250Z 25023G34KT 8000 RA BKN018 BKN060 08/04 Q1012 WHT;EQDQ01+000003PRSWM1Q02    003PRSWM1
0187037155999992000012813504+51400-003430FM-15+0050EGDX V0202501N011310090019N0112651N1+00801+00401999999ADDGA1021+006009999GA2071+009009999GA3081+015009999GF108991999999999999999999MA1101081999999MW1001REMMET061EGDX 1350Z 25022KT 9999 SCT020 BKN030 OVC050 08/04 Q1011 WHT;EQDQ01+000000PRSWM2
0141037155999992000012814504+51400-003430FM-15+0050EGDX V0202501N012310054019N0070001N1+00801+00401999999ADDGA1071+005409999GF107991999999999999999999MA1101021999999MW1001REMMET047EGDX 1450Z 25024KT 7000 BKN018 08/04 Q1010 WHT;EQDQ01+000000PRSWM2
0160037155999992000013107504+51400-003430FM-15+0050EGDX V0202501N008710006019N0035001N1+00901+00801999999ADDGA1081+000609999GF108991999999999999999999MA1102101999999MW1531REMMET050EGDX 0750Z 25017KT 3500 DZ OVC002 09/08 Q1021 AMB;EQDQ01+000003PRSWM1Q02    003PRSWM1
0164037155999992000013108504+51400-003430FM-15+0050EGDX V0202501N008210021019N0045001N1+00901+00901999999ADDGA1021+000609999GA2081+002109999GF108991999999999999999999MA1102101999999MW1001REMMET054EGDX 0850Z 25016KT 4500 SCT002 OVC007 09/09 Q1021 AMB;EQDQ01+000000PRSWM2
0160037155999992000013109504+51400-003430FM-15+0050EGDX V0202501N007210021019N0045001N1+00901+00801999999ADDGA1081+002109999GF108991999999999999999999MA1102201999999MW1101REMMET050EGDX 0950Z 25014KT 4500 BR OVC007 09/08 Q1022 GRN;EQDQ01+000003PRSWM1Q02    003PRSWM1
0164037155999992000013110504+51400-003430FM-15+0050EGDX V0202601N008210027019N0048001N1+01001+00801999999ADDGA1071+002709999GA2081+009009999GF108991999999999999999999MA1102201999999MW1001REMMET054EGDX 1050Z 26016KT 4800 BKN009 OVC030 10/08 Q1022 GRN;EQDQ01+000000PRSWM2
0164037155999992000013111504+51400-003430FM-15+0050EGDX V0202601N006210090019N0050001N1+01001+00801999999ADDGA1021+003609999GA2071+009009999GF107991999999999999999999MA1102301999999MW1001REMMET054EGDX 1150Z 26012KT 5000 SCT012 BKN030 10/08 Q1023 GRN;EQDQ01+000000PRSWM2
0141037155999992000013112504+51400-003430FM-15+0050EGDX V0202601N006710042019N0070001N1+01001+00801999999ADDGA1071+004209999GF107991999999999999999999MA1102201999999MW1001REMMET047EGDX 1250Z 26013KT 7000 BKN014 10/08 Q1022 GRN;EQDQ01+000000PRSWM2
0164037155999992000013113504+51400-003430FM-15+0050EGDX V0202401N007210063019N0112651N1+01001+00701999999ADDGA1021+004509999GA2071+006309999GF107991999999999999999999MA1102201999999MW1001REMMET054EGDX 1350Z 24014KT 9999 FEW015 BKN021 10/07 Q1022 WHT;EQDQ01+000000PRSWM2
0141037155999992000013114504+51400-003430FM-15+0050EGDX V0202601N004110066019N0112651N1+01001+00701999999ADDGA1071+006609999GF107991999999999999999999MA1102201999999MW1001REMMET047EGDX 1450Z 26008KT 9999 BKN022 10/07 Q1022 WHT;EQDQ01+000000PRSWM2
0164037155999992000013115504+51400-003430FM-15+0050EGDX V0202601N003610090019N0112651N1+01001+00701999999ADDGA1021+006609999GA2071+009009999GF107991999999999999999999MA1102101999999MW1001REMMET054EGDX 1550Z 26007KT 9999 FEW022 BKN030 10/07 Q1021 BLU;EQDQ01+000000PRSWM2
0141037155999992000020107504+51400-003430FM-15+0050EGDX V0202301N005710117019N0060001N1+00901+00501999999ADDGA1081+011709999GF108991999999999999999999MA1101391999999MW1001REMMET047EGDX 0750Z 23011KT 6000 OVC039 09/05 Q1014 WHT;EQDQ01+000000PRSWM2
0141037155999992000020108504+51400-003430FM-15+0050EGDX V0202301N004610135019N0060001N1+00901+00601999999ADDGA1071+013509999GF107991999999999999999999MA1101391999999MW1001REMMET047EGDX 0850Z 23009KT 6000 BKN045 09/06 Q1014 WHT;EQDQ01+000000PRSWM2
0141037155999992000020109504+51400-003430FM-15+0050EGDX V0202401N005110132019N0060001N1+00901+00601999999ADDGA1071+013209999GF107991999999999999999999MA1101391999999MW1001REMMET047EGDX 0950Z 24010KT 6000 BKN044 09/06 Q1014 WHT;EQDQ01+000000PRSWM2
0164037155999992000020110504+51400-003430FM-15+0050EGDX V0202301N004610240019N0060001N1+01001+00601999999ADDGA1021+013209999GA2071+024009999GF107991999999999999999999MA1101391999999MW1001REMMET054EGDX 1050Z 23009KT 6000 FEW044 BKN080 10/06 Q1014 WHT;EQDQ01+000000PRSWM2
0164037155999992000020111504+51400-003430FM-15+0050EGDX V0202401N004610210019N0060001N1+00901+00601999999ADDGA1021+007809999GA2081+021009999GF108991999999999999999999MA1101291999999MW1001REMMET054EGDX 1150Z 24009KT 6000 FEW026 OVC070 09/06 Q1013 WHT;EQDQ01+000000PRSWM2
0162037155999992000020112504+51400-003430FM-15+0050EGDX V0202301N005710054019N0060001N1+01001+00701999999ADDGA1071+005409999GF107991999999999999999999MA1101291999999MW1811REMMET052EGDX 1250Z 23011KT 6000 SHRA BKN018 10/07 Q1013 WHT;EQDQ01+000003PRSWM1Q02    003PRSWM1
0162037155999992000020113504+51400-003430FM-15+0050EGDX V0202501N004610042019N0039001N1+00901+00801999999ADDGA1081+004209999GF108991999999999999999999MA1101191999999MW1811REMMET052EGDX 1350Z 25009KT 3900 SHRA OVC014 09/08 Q1012 GRN;EQDQ01+000003PRSWM1Q02    003PRSWM1
0183037155999992000020114504+51400-003430FM-15+0050EGDX V0202501N004610039019N0030001N1+00901+00801999999ADDGA1071+003909999GA2071+006609999GF107991999999999999999999MA1101191999999MW1631REMMET057EGDX 1450Z 25009KT 3000 RA BKN013 BKN022 09/08 Q1012 YLO;EQDQ01+000003PRSWM1Q02    003PRSWM1
0162037155999992000020115504+51400-003430FM-15+0050EGDX V0202501N004110042019N0045001N1+00901+00801999999ADDGA1081+004209999GF108991999999999999999999MA1101081999999MW1811REMMET052EGDX 1550Z 25008KT 4500 SHRA OVC014 09/08 Q1011 GRN;EQDQ01+000003PRSWM1Q02    003PRSWM1
0141037155999992000020207504+51400-003430FM-15+0050EGDX V0202901N002612200019N0112651N1+00501+00301999999ADDGA1021+006909999GF102991999999999999999999MA1102101999999MW1001REMMET047EGDX 0750Z 29005KT 9999 FEW023 05/03 Q1021 BLU;EQDQ01+000000PRSWM2
0141037155999992000020208504+51400-003430FM-15+0050EGDX V0202901N002112200019N0112651N1+00501+00301999999ADDGA1021+006009999GF102991999999999999999999MA1102201999999MW1001REMMET047EGDX 0850Z 29004KT 9999 FEW020 05/03 Q1022 BLU;EQDQ01+000000PRSWM2
0141037155999992000020209504+51400-003430FM-15+0050EGDX V0203001N004112200019N0112651N1+00601+00301999999ADDGA1021+006009999GF102991999999999999999999MA1102301999999MW1001REMMET047EGDX 0950Z 30008KT 9999 FEW020 06/03 Q1023 BLU;EQDQ01+000000PRSWM2
0141037155999992000020210504+51400-003430FM-15+0050EGDX V0202901N005712200019N0112651N1+00701+00301999999ADDGA1021+006009999GF102991999999999999999999MA1102401999999MW1001REMMET047EGDX 1050Z 29011KT 9999 FEW020 07/03 Q1024 BLU;EQDQ01+000000PRSWM2
0141037155999992000020211504+51400-003430FM-15+0050EGDX V0202901N006712200019N0112651N1+00801+00301999999ADDGA1021+007509999GF102991999999999999999999MA1102511999999MW1001REMMET047EGDX 1150Z 29013KT 9999 FEW025 08/03 Q1025 BLU;EQDQ01+000000PRSWM2
0187037155999992000020212504+51400-003430FM-15+0050EGDX V0202901N008210540019N0112651N1+00901+00401999999ADDGA1021+006909999GA2021+009009999GA3071+054009999GF107991999999999999999999MA1102511999999MW1001REMMET061EGDX 1250Z 29016KT 9999 FEW023 SCT030 BKN180 09/04 Q1025 BLU;EQDQ01+000000PRSWM2
0141037155999992000020213504+51400-003430FM-15+0050EGDX V0202801N007712200019N0112651N1+00901+00401999999ADDGA1021+011109999GF104991999999999999999999MA1102611999999MW1001REMMET047EGDX 1350Z 28015KT 9999 SCT037 09/04 Q1026 BLU;EQDQ01+000000PRSWM2
0141037155999992000020214504+51400-003430FM-15+0050EGDX V0202801N007712200019N0112651N1+00901+00501999999ADDGA1021+009009999GF102991999999999999999999MA1102611999999MW1001REMMET047EGDX 1450Z 28015KT 9999 FEW030 09/05 Q1026 BLU;EQDQ01+000000PRSWM2
0141037155999992000020215504+51400-003430FM-15+0050EGDX V0202701N008712200019N0112651N1+00801+00401999999ADDGA1021+010209999GF104991999999999999999999MA1102711999999MW1001REMMET047EGDX 1550Z 27017KT 9999 SCT034 08/04 Q1027 BLU;EQDQ01+000000PRSWM2
0164037155999992000020307504+51400-003430FM-15+0050EGDX V0202601N005110390019N0112651N1+00701+00601999999ADDGA1021+009009999GA2071+039009999GF107991999999999999999999MA1103291999999MW1001REMMET054EGDX 0750Z 26010KT 9999 FEW030 BKN130 07/06 Q1033 BLU;EQDQ01+000000PRSWM2
0164037155999992000020308504+51400-003430FM-15+0050EGDX V0202601N003610330019N0112651N1+00701+00601999999ADDGA1021+007509999GA2071+033009999GF107991999999999999999999MA1103291999999MW1001REMMET054EGDX 0850Z 26007KT 9999 FEW025 BKN110 07/06 Q1033 BLU;EQDQ01+000000PRSWM2
0164037155999992000020309504+51400-003430FM-15+0050EGDX V0202601N004110240019N0112651N1+00801+00601999999ADDGA1021+001509999GA2071+024009999GF107991999999999999999999MA1103291999999MW1001REMMET054EGDX 0950Z 26008KT 9999 FEW005 BKN080 08/06 Q1033 BLU;EQDQ01+000000PRSWM2
0187037155999992000020310504+51400-003430FM-15+0050EGDX V0202601N003610240019N0112651N1+00801+00701999999ADDGA1021+001509999GA2021+007509999GA3071+024009999GF107991999999999999999999MA1103391999999MW1001REMMET061EGDX 1050Z 26007KT 9999 FEW005 SCT025 BKN080 08/07 Q1034 BLU;EQDQ01+000000PRSWM2
0192037155999992000020311504+51400-003430FM-15+0050EGDX V0202501N004110210019N0112651N1+00801+00701999999ADDGA1021+006009999GA2021+012009999GA3071+021009999GF107991999999999999999999MA1103391999999MW1001REMMET066EGDX 1150Z 25008KT 9999 FEW020 SCT040 BKN070 08/07 Q1034 RERA BLU;EQDQ01+000000PRSWM2
0185037155999992000020312504+51400-003430FM-15+0050EGDX V0202601N005110066019N0112651N1+00801+00701999999ADDGA1021+003609999GA2071+006609999GF107991999999999999999999MA1103391999999MW1811REMMET059EGDX 1250Z 26010KT 9999 SHRA SCT012 BKN022 08/07 Q1034 GRN;EQDQ01+000003PRSWM1Q02    003PRSWM1
0185037155999992000020313504+51400-003430FM-15+0050EGDX V0202601N004110108019N0112651N1+00801+00701999999ADDGA1021+007809999GA2071+010809999GF107991999999999999999999MA1103291999999MW1811REMMET059EGDX 1350Z 26008KT 9999 SHRA SCT026 BKN036 08/07 Q1033 BLU;EQDQ01+000003PRSWM1Q02    003PRSWM1
0141037155999992000020314504+51400-003430FM-15+0050EGDX V0202601N005110063019N0070001N1+00801+00701999999ADDGA1071+006309999GF107991999999999999999999MA1103291999999MW1001REMMET047EGDX 1450Z 26010KT 7000 BKN021 08/07 Q1033 WHT;EQDQ01+000000PRSWM2
0187037155999992000020315504+51400-003430FM-15+0050EGDX V0202601N006210138019N0112651N1+00901+00701999999ADDGA1021+009009999GA2021+010209999GA3071+013809999GF107991999999999999999999MA1103291999999MW1001REMMET061EGDX 1550Z 26012KT 9999 FEW030 SCT034 BKN046 09/07 Q1033 BLU;EQDQ01+000000PRSWM2
0141037155999992000020407504+51400-003430FM-15+0050EGDX V0202501N005110036019N0070001N1+00901+00701999999ADDGA1081+003609999GF108991999999999999999999MA1103181999999MW1001REMMET047EGDX 0750Z 25010KT 7000 OVC012 09/07 Q1032 GRN;EQDQ01+000000PRSWM2
0141037155999992000020408504+51400-003430FM-15+0050EGDX V0202601N004610042019N0112651N1+00901+00701999999ADDGA1081+004209999GF108991999999999999999999MA1103181999999MW1001REMMET047EGDX 0850Z 26009KT 9999 OVC014 09/07 Q1032 GRN;EQDQ01+000000PRSWM2
0141037155999992000020409504+51400-003430FM-15+0050EGDX V0202601N005710033019N0112651N1+00901+00701999999ADDGA1081+003309999GF108991999999999999999999MA1103181999999MW1001REMMET047EGDX 0950Z 26011KT 9999 OVC011 09/07 Q1032 GRN;EQDQ01+000000PRSWM2
0141037155999992000020410504+51400-003430FM-15+0050EGDX V0202701N003110033019N0112651N1+00901+00701999999ADDGA1081+003309999GF108991999999999999999999MA1103181999999MW1001REMMET047EGDX 1050Z 27006KT 9999 OVC011 09/07 Q1032 GRN;EQDQ01+000000PRSWM2
0164037155999992000020411504+51400-003430FM-15+0050EGDX V0202701N003610060019N0070001N1+01001+00801999999ADDGA1021+003309999GA2081+006009999GF108991999999999999999999MA1103181999999MW1001REMMET054EGDX 1150Z 27007KT 7000 SCT011 OVC020 10/08 Q1032 GRN;EQDQ01+000000PRSWM2
0141037155999992000020412504+51400-003430FM-15+0050EGDX V0202901N003610033019N0070001N1+01001+00801999999ADDGA1081+003309999GF108991999999999999999999MA1103181999999MW1001REMMET047EGDX 1250Z 29007KT 7000 OVC011 10/08 Q1032 GRN;EQDQ01+000000PRSWM2
0164037155999992000020413504+51400-003430FM-15+0050EGDX V0202701N003610036019N0080001N1+01001+00801999999ADDGA1021+002109999GA2071+003609999GF107991999999999999999999MA1103121999999MW1001REMMET054EGDX 1350Z 27007KT 8000 SCT007 BKN012 10/08 Q1031 GRN;EQDQ01+000000PRSWM2
0141037155999992000020414504+51400-003430FM-15+0050EGDX V0202501N002110024019N0060001N1+01001+00801999999ADDGA1081+002409999GF108991999999999999999999MA1103121999999MW1001REMMET047EGDX 1450Z 25004KT 6000 OVC008 10/08 Q1031 GRN;EQDQ01+000000PRSWM2
0160037155999992000020507504+51400-003430FM-15+0050EGDX V0201701N003110027019N0070001N1+00701+00601999999ADDGA1081+002709999GF108991999999999999999999MA1102611999999MW1051REMMET050EGDX 0750Z 17006KT 7000 HZ OVC009 07/06 Q1026 GRN;EQDQ01+000003PRSWM1Q02    003PRSWM1
0160037155999992000020508504+51400-003430FM-15+0050EGDX V0202001N002610027019N0070001N1+00701+00601999999ADDGA1081+002709999GF108991999999999999999999MA1102611999999MW1051REMMET050EGDX 0850Z 20005KT 7000 HZ OVC009 07/06 Q1026 GRN;EQDQ01+000003PRSWM1Q02    003PRSWM1
0183037155999992000020509504+51400-003430FM-15+0050EGDX V0202401N002610036019N0080001N1+00801+00501999999ADDGA1021+002709999GA2071+003609999GF107991999999999999999999MA1102611999999MW1051REMMET057EGDX 0950Z 24005KT 8000 HZ FEW009 BKN012 08/05 Q1026 GRN;EQDQ01+000003PRSWM1Q02    003PRSWM1
0183037155999992000020707504+51400-003430FM-15+0050EGDX V0202201N008710075019N0060001N1+00801+00401999999ADDGA1021+004209999GA2071+007509999GF107991999999999999999999MA1101191999999MW1631REMMET057EGDX 0750Z 22017KT 6000 RA SCT014 BKN025 08/04 Q1012 GRN;EQDQ01+000003PRSWM1Q02    003PRSWM1
0183037155999992000020708504+51400-003430FM-15+0050EGDX V0202001N007210066019N0060001N1+00701+00401999999ADDGA1021+004209999GA2071+006609999GF107991999999999999999999MA1101021999999MW1631REMMET057EGDX 0850Z 20014KT 6000 RA SCT014 BKN022 07/04 Q1010 GRN;EQDQ01+000003PRSWM1Q02    003PRSWM1
0183037155999992000020709504+51400-003430FM-15+0050EGDX V0201901N006710060019N0060001N1+00801+00501999999ADDGA1021+004209999GA2071+006009999GF107991999999999999999999MA1100811999999MW1631REMMET057EGDX 0950Z 19013KT 6000 RA SCT014 BKN020 08/05 Q1008 GRN;EQDQ01+000003PRSWM1Q02    003PRSWM1
0162037155999992000020710504+51400-003430FM-15+0050EGDX V0202101N012310060019N0112651N1+00901+00701999999ADDGA1081+006009999GF108991999999999999999999MA1100611999999MW1811REMMET052EGDX 1050Z 21024KT 9999 SHRA OVC020 09/07 Q1006 WHT;EQDQ01+000003PRSWM1Q02    003PRSWM1
0162037155999992000020711504+51400-003430FM-15+0050EGDX V0202401N010310039019N0060001N1+01001+00801999999ADDGA1081+003909999GF108991999999999999999999MA1100511999999MW1811REMMET052EGDX 1150Z 24020KT 6000 SHRA OVC013 10/08 Q1005 GRN;EQDQ01+000003PRSWM1Q02    003PRSWM1
0185037155999992000020712504+51400-003430FM-15+0050EGDX V0202701N011810045019N0040001N1+01101+01001999999ADDGA1021+001209999GA2071+004509999GF107991999999999999999999MA1100511999999MW1811REMMET059EGDX 1250Z 27023KT 4000 SHRA SCT004 BKN015 11/10 Q1005 YLO;EQDQ01+000003PRSWM1Q02    003PRSWM1
0205037155999992000020713504+51400-003430FM-15+0050EGDX V0202601N011810036019N0050001N1+01001+00901999999ADDGA1021+001209999GA2071+003609999GF107991999999999999999999MA1100511999999MW1051MW2811OC101801REMMET065EGDX 1350Z 26023G35KT 5000 SHRA HZ FEW004 BKN012 10/09 Q1005 GRN;EQDQ01+000003PRSWM1Q02    003PRSWM1
0171037155999992000020714504+51400-003430FM-15+0050EGDX V0202701N013410240019N0050001N1+01001+00601999999ADDGA1071+024009999GF107991999999999999999999MA1100511999999MW1051OC101951REMMET053EGDX 1450Z 27026G38KT 5000 HZ BKN080 10/06 Q1005 WHT;EQDQ01+000003PRSWM1Q02    003PRSWM1
0160037155999992000020715504+51400-003430FM-15+0050EGDX V0202701N013910105019N0050001N1+01001+00601999999ADDGA1081+010509999GF108991999999999999999999MA1100511999999MW1051REMMET050EGDX 1550Z 27027KT 5000 HZ OVC035 10/06 Q1005 WHT;EQDQ01+000003PRSWM1Q02    003PRSWM1
0160037155999992000020716504+51400-003430FM-15+0050EGDX V0202701N013910105019N0050001N1+00901+00601999999ADDGA1071+010509999GF107991999999999999999999MA1100511999999MW1051REMMET050EGDX 1650Z 27027KT 5000 HZ BKN035 09/06 Q1005 WHT;EQDQ01+000003PRSWM1Q02    003PRSWM1
0171037155999992000020807504+51400-003430FM-15+0050EGDX V0202501N012910015019N0047001N1+01101+01001999999ADDGA1081+001509999GF108991999999999999999999MA1099901999999MW1631OC101801REMMET053EGDX 0750Z 25025G35KT 4700 RA OVC005 11/10 Q0999 YLO;EQDQ01+000003PRSWM1Q02    003PRSWM1
0180037155999992000020808504+51400-003430FM-15+0050EGDX V0202601N013410012019N0050001N1+01001+01001999999ADDGA1071+001209999GA2071+004509999GF107991999999999999999999MA1100101999999MW1001OC101851REMMET062EGDX 0850Z 26026G36KT 5000 BKN004 BKN015 10/10 Q1001 RERA YLO;EQDQ01+000000PRSWM2
0187037155999992000020809504+51400-003430FM-15+0050EGDX V0202601N013410180019N0070001N1+01101+00901999999ADDGA1021+002409999GA2021+004209999GA3071+018009999GF107991999999999999999999MA1100101999999MW1001REMMET061EGDX 0950Z 26026KT 7000 FEW008 SCT014 BKN060 11/09 Q1001 GRN;EQDQ01+000000PRSWM2
0198037155999992000020810504+51400-003430FM-15+0050EGDX V0202701N012910240019N0070001N1+01101+00801999999ADDGA1021+003609999GA2021+013509999GA3071+024009999GF107991999999999999999999MA1100311999999MW1001OC101801REMMET064EGDX 1050Z 27025G35KT 7000 FEW012 SCT045 BKN080 11/08 Q1003 WHT;EQDQ01+000000PRSWM2
0152037155999992000020811504+51400-003430FM-15+0050EGDX V0202801N012912200019N0112651N1+01101+00401999999ADDGA1021+006009999GF102991999999999999999999MA1100411999999MW1001OC101851REMMET050EGDX 1150Z 28025G36KT 9999 FEW020 11/04 Q1004 BLU;EQDQ01+000000PRSWM2
0093037155999992000020812504+51400-003430FM-15+0050EGDX V0202801N01231220001CN0099001N1+01001+00501999999ADDMA1100511999999MW1001REMMET041EGDX 1250Z 28024KT CAVOK 10/05 Q1005 BLU;EQDQ01+000000PRSWM2
0104037155999992000020813504+51400-003430FM-15+0050EGDX V0202801N01291220001CN0099001N1+01001+00401999999ADDMA1100611999999MW1001OC101801REMMET044EGDX 1350Z 28025G35KT CAVOK 10/04 Q1006 BLU;EQDQ01+000000PRSWM2
0141037155999992000020814504+51400-003430FM-15+0050EGDX V0202801N013412200019N0112651N1+00901+00301999999ADDGA1021+010509999GF102991999999999999999999MA1100811999999MW1001REMMET047EGDX 1450Z 28026KT 9999 FEW035 09/03 Q1008 BLU;EQDQ01+000000PRSWM2
0104037155999992000020815504+51400-003430FM-15+0050EGDX V0202701N01181220001CN0099001N1+00801+00301999999ADDMA1100911999999MW1001OC101801REMMET044EGDX 1550Z 27023G35KT CAVOK 08/03 Q1009 BLU;EQDQ01+000000PRSWM2
0164037155999992000020907504+51400-003430FM-15+0050EGDX V0202801N007712200019N0112651N1+00801+00501999999ADDGA1021+009309999GA2021+010809999GF104991999999999999999999MA1102301999999MW1001REMMET054EGDX 0750Z 28015KT 9999 FEW031 SCT036 08/05 Q1023 BLU;EQDQ01+000000PRSWM2
0141037155999992000020908504+51400-003430FM-15+0050EGDX V0202801N006712200019N0112651N1+00801+00501999999ADDGA1021+009909999GF104991999999999999999999MA1102401999999MW1001REMMET047EGDX 0850Z 28013KT 9999 SCT033 08/05 Q1024 BLU;EQDQ01+000000PRSWM2
0141037155999992000020909504+51400-003430FM-15+0050EGDX V0202501N006710093019N0112651N1+00801+00501999999ADDGA1071+009309999GF107991999999999999999999MA1102511999999MW1001REMMET047EGDX 0950Z 25013KT 9999 BKN031 08/05 Q1025 BLU;EQDQ01+000000PRSWM2
0141037155999992000020910504+51400-003430FM-15+0050EGDX V0202501N005710093019N0112651N1+00901+00401999999ADDGA1071+009309999GF107991999999999999999999MA1102511999999MW1001REMMET047EGDX 1050Z 25011KT 9999 BKN031 09/04 Q1025 BLU;EQDQ01+000000PRSWM2
0164037155999992000020911504+51400-003430FM-15+0050EGDX V0202501N008210099019N0112651N1+00901+00401999999ADDGA1071+009909999GA2071+012609999GF107991999999999999999999MA1102511999999MW1001REMMET054EGDX 1150Z 25016KT 9999 BKN033 BKN042 09/04 Q1025 BLU;EQDQ01+000000PRSWM2
0141037155999992000020913504+51400-003430FM-15+0050EGDX V0202401N006710120019N0112651N1+00901+00601999999ADDGA1071+012009999GF107991999999999999999999MA1102511999999MW1001REMMET047EGDX 1350Z 24013KT 9999 BKN040 09/06 Q1025 BLU;EQDQ01+000000PRSWM2
0141037155999992000020914504+51400-003430FM-15+0050EGDX V0202301N006710120019N0112651N1+00901+00501999999ADDGA1071+012009999GF107991999999999999999999MA1102401999999MW1001REMMET047EGDX 1450Z 23013KT 9999 BKN040 09/05 Q1024 BLU;EQDQ01+000000PRSWM2
0141037155999992000020915504+51400-003430FM-15+0050EGDX V0202401N006210120019N0112651N1+00901+00401999999ADDGA1081+012009999GF108991999999999999999999MA1102401999999MW1001REMMET047EGDX 1550Z 24012KT 9999 OVC040 09/04 Q1024 BLU;EQDQ01+000000PRSWM2
0160037155999992000021007504+51400-003430FM-15+0050EGDX V0202701N008710006019N0030001N1+00901+00801999999ADDGA1071+000609999GF107991999999999999999999MA1100611999999MW1631REMMET050EGDX 0750Z 27017KT 3000 RA BKN002 09/08 Q1006 AMB;EQDQ01+000003PRSWM1Q02    003PRSWM1
0152037155999992000021008504+51400-003430FM-15+0050EGDX V0203101N010810051019N0070001N1+00501+00301999999ADDGA1071+005109999GF107991999999999999999999MA1100911999999MW1001OC101801REMMET050EGDX 0850Z 31021G35KT 7000 BKN017 05/03 Q1009 WHT;EQDQ01+000000PRSWM2
0164037155999992000021009504+51400-003430FM-15+0050EGDX V0202901N006710060019N0112651N1+00501+00201999999ADDGA1021+005109999GA2071+006009999GF107991999999999999999999MA1101081999999MW1001REMMET054EGDX 0950Z 29013KT 9999 FEW017 BKN020 05/02 Q1011 WHT;EQDQ01+000000PRSWM2
0164037155999992000021010504+51400-003430FM-15+0050EGDX V0202801N007210180019N0112651N1+00601+00301999999ADDGA1021+006009999GA2071+018009999GF107991999999999999999999MA1101191999999MW1001REMMET054EGDX 1050Z 28014KT 9999 SCT020 BKN060 06/03 Q1012 WHT;EQDQ01+000000PRSWM2
0165037155999992000021011504+51400-003430FM-15+0050EGDX V0202901N010312200019N0112651N1+00701-00101999999ADDGA1021+006009999GA2021+027009999GF104991999999999999999999MA1101291999999MW1001REMMET055EGDX 1150Z 29020KT 9999 SCT020 SCT090 07/M01 Q1013 WHT;EQDQ01+000000PRSWM2
0142037155999992000021012504+51400-003430FM-15+0050EGDX V0202901N009812200019N0112651N1+00701+00001999999ADDGA1021+007509999GF102991999999999999999999MA1101491999999MW1001REMMET048EGDX 1250Z 29019KT 9999 FEW025 07/M00 Q1015 BLU;EQDQ01+000000PRSWM2
0142037155999992000021013504+51400-003430FM-15+0050EGDX V0203001N010312200019N0112651N1+00701+00001999999ADDGA1021+007509999GF102991999999999999999999MA1101591999999MW1001REMMET048EGDX 1350Z 30020KT 9999 FEW025 07/M00 Q1016 BLU;EQDQ01+000000PRSWM2
0141037155999992000021014504+51400-003430FM-15+0050EGDX V0202901N009312200019N0112651N1+00701+00001999999ADDGA1021+009009999GF102991999999999999999999MA1101691999999MW1001REMMET047EGDX 1450Z 29018KT 9999 FEW030 07/00 Q1017 BLU;EQDQ01+000000PRSWM2
0141037155999992000021015504+51400-003430FM-15+0050EGDX V0202901N008712200019N0112651N1+00701+00101999999ADDGA1021+009009999GF102991999999999999999999MA1101801999999MW1001REMMET047EGDX 1550Z 29017KT 9999 FEW030 07/01 Q1018 BLU;EQDQ01+000000PRSWM2
0164037155999992000021107504+51400-003430FM-15+0050EGDX V0202501N006710120019N0112651N1+00701+00501999999ADDGA1021+007509999GA2071+012009999GF107991999999999999999999MA1102711999999MW1001REMMET054EGDX 0750Z 25013KT 9999 FEW025 BKN040 07/05 Q1027 BLU;EQDQ01+000000PRSWM2
0164037155999992000021108504+51400-003430FM-15+0050EGDX V0202401N006710126019N0112651N1+00801+00501999999ADDGA1021+007209999GA2071+012609999GF107991999999999999999999MA1102811999999MW1001REMMET054EGDX 0850Z 24013KT 9999 SCT024 BKN042 08/05 Q1028 WHT;EQDQ01+000000PRSWM2
0185037155999992000021109504+51400-003430FM-15+0050EGDX V0202401N006710120019N0112651N1+00801+00501999999ADDGA1021+006009999GA2071+012009999GF107991999999999999999999MA1102811999999MW1811REMMET059EGDX 0950Z 24013KT 9999 SHRA SCT020 BKN040 08/05 Q1028 WHT;EQDQ01+000003PRSWM1Q02    003PRSWM1
0164037155999992000021110504+51400-003430FM-15+0050EGDX V0202501N007712200019N0112651N1+00901+00601999999ADDGA1021+006009999GA2021+010509999GF104991999999999999999999MA1102811999999MW1001REMMET054EGDX 1050Z 25015KT 9999 FEW020 SCT035 09/06 Q1028 BLU;EQDQ01+000000PRSWM2
0141037155999992000021111504+51400-003430FM-15+0050EGDX V0202401N005712200019N0112651N1+00901+00601999999ADDGA1021+006009999GF104991999999999999999999MA1102811999999MW1001REMMET047EGDX 1150Z 24011KT 9999 SCT020 09/06 Q1028 WHT;EQDQ01+000000PRSWM2
0164037155999992000021112504+51400-003430FM-15+0050EGDX V0202601N008710120019N0112651N1+01001+00601999999ADDGA1021+006009999GA2071+012009999GF107991999999999999999999MA1102811999999MW1001REMMET054EGDX 1250Z 26017KT 9999 FEW020 BKN040 10/06 Q1028 BLU;EQDQ01+000000PRSWM2
0183037155999992000021113504+51400-003430FM-15+0050EGDX V0202501N008712200019N0070001N1+00801+00601999999ADDGA1021+006009999GA2021+008409999GF104991999999999999999999MA1102711999999MW1631REMMET057EGDX 1350Z 25017KT 7000 RA SCT020 SCT028 08/06 Q1027 WHT;EQDQ01+000003PRSWM1Q02    003PRSWM1
0164037155999992000021114504+51400-003430FM-15+0050EGDX V0202501N008712200019N0112651N1+00801+00601999999ADDGA1021+006309999GA2021+013209999GF104991999999999999999999MA1102611999999MW1001REMMET054EGDX 1450Z 25017KT 9999 FEW021 SCT044 08/06 Q1026 BLU;EQDQ01+000000PRSWM2
0152037155999992000021207504+51400-003430FM-15+0050EGDX V0202901N009812200019N0112651N1+00601+00401999999ADDGA1021+005409999GF104991999999999999999999MA1101491999999MW1001OC101491REMMET050EGDX 0750Z 29019G29KT 9999 SCT018 06/04 Q1015 WHT;EQDQ01+000000PRSWM2
0141037155999992000021208504+51400-003430FM-15+0050EGDX V0202801N007710090019N0112651N1+00701+00401999999ADDGA1071+009009999GF107991999999999999999999MA1101591999999MW1001REMMET047EGDX 0850Z 28015KT 9999 BKN030 07/04 Q1016 BLU;EQDQ01+000000PRSWM2
0141037155999992000021209504+51400-003430FM-15+0050EGDX V0202801N007210144019N0112651N1+00701+00301999999ADDGA1071+014409999GF107991999999999999999999MA1101591999999MW1001REMMET047EGDX 0950Z 28014KT 9999 BKN048 07/03 Q1016 BLU;EQDQ01+000000PRSWM2
0185037155999992000021210504+51400-003430FM-15+0050EGDX V0202801N010312200019N0090001N1+00601+00301999999ADDGA1021+005709999GA2021+015009999GF104991999999999999999999MA1101691999999MW1811REMMET059EGDX 1050Z 28020KT 9000 SHRA SCT019 SCT050 06/03 Q1017 WHT;EQDQ01+000003PRSWM1Q02    003PRSWM1
0093037155999992000021211504+51400-003430FM-15+0050EGDX V0202701N01181220001CN0099001N1+00801+00401999999ADDMA1101691999999MW1001REMMET041EGDX 1150Z 27023KT CAVOK 08/04 Q1017 BLU;EQDQ01+000000PRSWM2
0093037155999992000021212504+51400-003430FM-15+0050EGDX V0202701N00871220001CN0099001N1+00801+00401999999ADDMA1101691999999MW1001REMMET041EGDX 1250Z 27017KT CAVOK 08/04 Q1017 BLU;EQDQ01+000000PRSWM2
0093037155999992000021213504+51400-003430FM-15+0050EGDX V0202701N00931220001CN0099001N1+00801+00401999999ADDMA1101691999999MW1001REMMET041EGDX 1350Z 27018KT CAVOK 08/04 Q1017 BLU;EQDQ01+000000PRSWM2
0093037155999992000021214504+51400-003430FM-15+0050EGDX V0202701N00981220001CN0099001N1+00801+00401999999ADDMA1101691999999MW1001REMMET041EGDX 1450Z 27019KT CAVOK 08/04 Q1017 BLU;EQDQ01+000000PRSWM2
0093037155999992000021215504+51400-003430FM-15+0050EGDX V0202601N00931220001CN0099001N1+00801+00401999999ADDMA1101691999999MW1001REMMET041EGDX 1550Z 26018KT CAVOK 08/04 Q1017 BLU;EQDQ01+000000PRSWM2
0160037155999992000021407504+51400-003430FM-15+0050EGDX V0201501N002610030019N0040001N1+00601+00501999999ADDGA1081+003009999GF108991999999999999999999MA1101801999999MW1631REMMET050EGDX 0750Z 15005KT 4000 RA OVC010 06/05 Q1018 GRN;EQDQ01+000003PRSWM1Q02    003PRSWM1
0183037155999992000021408504+51400-003430FM-15+0050EGDX V0201501N004110039019N0040001N1+00601+00601999999ADDGA1021+003009999GA2081+003909999GF108991999999999999999999MA1101801999999MW1631REMMET057EGDX 0850Z 15008KT 4000 RA SCT010 OVC013 06/06 Q1018 GRN;EQDQ01+000003PRSWM1Q02    003PRSWM1
0160037155999992000021409504+51400-003430FM-15+0050EGDX V0201401N002610030019N0022001N1+00701+00601999999ADDGA1081+003009999GF108991999999999999999999MA1101691999999MW1631REMMET050EGDX 0950Z 14005KT 2200 RA OVC010 07/06 Q1017 YLO;EQDQ01+000003PRSWM1Q02    003PRSWM1
0161037155999992000021410504+51400-003430FM-15+0050EGDX V0202001N002110027019N0040001N1+00801+00801999999ADDGA1081+002709999GF108991999999999999999999MA1101591999999MW1611REMMET051EGDX 1050Z 20004KT 4000 -RA OVC009 08/08 Q1016 GRN;EQDQ01+000003PRSWM1Q02    003PRSWM1
0160037155999992000021411504+51400-003430FM-15+0050EGDX V0202501N008710006019N0020001N1+01001+00901999999ADDGA1081+000609999GF108991999999999999999999MA1101491999999MW1631REMMET050EGDX 1150Z 25017KT 2000 RA OVC002 10/09 Q1015 AMB;EQDQ01+000003PRSWM1Q02    003PRSWM1
0160037155999992000021412504+51400-003430FM-15+0050EGDX V0202601N010810006019N0005001N1+00901+00901999999ADDGA1081+000609999GF108991999999999999999999MA1101491999999MW1631REMMET050EGDX 1250Z 26021KT 0500 RA OVC002 09/09 Q1015 RED;EQDQ01+000003PRSWM1Q02    003PRSWM1
0160037155999992000021413504+51400-003430FM-15+0050EGDX V0202701N009810003019N0005001N1+00901+00901999999ADDGA1081+000309999GF108991999999999999999999MA1101491999999MW1441REMMET050EGDX 1350Z 27019KT 0500 FG OVC001 09/09 Q1015 RED;EQDQ01+000003PRSWM1Q02    003PRSWM1
0160037155999992000021414504+51400-003430FM-15+0050EGDX V0202701N007210003019N0007001N1+00901+00901999999ADDGA1081+000309999GF108991999999999999999999MA1101591999999MW1441REMMET050EGDX 1450Z 27014KT 0700 FG OVC001 09/09 Q1016 RED;EQDQ01+000003PRSWM1Q02    003PRSWM1
0173037155999992000021415504+51400-003430FM-15+0050EGDX V0202601N00621220001CN0040001N1+00901+00901999999ADDGA1071+000609999GA2021+008109999MA1101591999999MW1101REMMET057EGDX 1550Z 26012KT 4000 BR BKN002 SCT027 09/09 Q1016 AMB;EQDQ01+000042SCOTCVQ02+000003PRSWM1Q03    003PRSWM1
0206037155999992000021507504+51400-003430FM-15+0050EGDX V0202901N005110150019N0050001N1+00501+00301999999ADDGA1021+000609999GA2021+004809999GA3071+015009999GF107991999999999999999999MA1101901999999MW1631REMMET064EGDX 0750Z 29010KT 5000 RA FEW002 SCT016 BKN050 05/03 Q1019 WHT;EQDQ01+000003PRSWM1Q02    003PRSWM1
0093037155999992000021508504+51400-003430FM-15+0050EGDX V0202601N00361220001CN0099001N1+00601+00301999999ADDMA1101801999999MW1001REMMET041EGDX 0850Z 26007KT CAVOK 06/03 Q1018 BLU;EQDQ01+000000PRSWM2
0164037155999992000021509504+51400-003430FM-15+0050EGDX V0202301N004110150019N0112651N1+00701+00501999999ADDGA1021+007509999GA2071+015009999GF107991999999999999999999MA1101691999999MW1001REMMET054EGDX 0950Z 23008KT 9999 FEW025 BKN050 07/05 Q1017 BLU;EQDQ01+000000PRSWM2
0164037155999992000021510504+51400-003430FM-15+0050EGDX V0202201N004110150019N0112651N1+00701+00501999999ADDGA1021+006609999GA2071+015009999GF107991999999999999999999MA1101591999999MW1001REMMET054EGDX 1050Z 22008KT 9999 FEW022 BKN050 07/05 Q1016 BLU;EQDQ01+000000PRSWM2
0164037155999992000021511504+51400-003430FM-15+0050EGDX V0202401N006210150019N0112651N1+00801+00401999999ADDGA1021+007509999GA2071+015009999GF107991999999999999999999MA1101491999999MW1001REMMET054EGDX 1150Z 24012KT 9999 FEW025 BKN050 08/04 Q1015 BLU;EQDQ01+000000PRSWM2
0187037155999992000021512504+51400-003430FM-15+0050EGDX V0202301N004110150019N0112651N1+00801+00401999999ADDGA1021+007509999GA2021+010209999GA3071+015009999GF107991999999999999999999MA1101391999999MW1001REMMET061EGDX 1250Z 23008KT 9999 SCT025 SCT034 BKN050 08/04 Q1014 BLU;EQDQ01+000000PRSWM2
0164037155999992000021513504+51400-003430FM-15+0050EGDX V0202401N005710150019N0112651N1+00801+00401999999ADDGA1021+007509999GA2071+015009999GF107991999999999999999999MA1101191999999MW1001REMMET054EGDX 1350Z 24011KT 9999 SCT025 BKN050 08/04 Q1012 BLU;EQDQ01+000000PRSWM2
0184037155999992000021514504+51400-003430FM-15+0050EGDX V0202401N007710069019N0112651N1+00701+00401999999ADDGA1021+005109999GA2081+006909999GF108991999999999999999999MA1101021999999MW1611REMMET058EGDX 1450Z 24015KT 9999 -RA SCT017 OVC023 07/04 Q1010 WHT;EQDQ01+000003PRSWM1Q02    003PRSWM1
0208037155999992000021515504+51400-003430FM-15+0050EGDX V0202201N005110075019N0080001N1+00701+00401999999ADDGA1021+004209999GA2071+007509999GA3081+009609999GF108991999999999999999999MA1100811999999MW1811REMMET066EGDX 1550Z 22010KT 8000 SHRA SCT014 BKN025 OVC032 07/04 Q1008 GRN;EQDQ01+000003PRSWM1Q02    003PRSWM1
0142037155999992000021607504+51400-003430FM-15+0050EGDX V0203001N008212200019N0112651N1+00301+00001999999ADDGA1021+009009999GF104991999999999999999999MA1100611999999MW1001REMMET048EGDX 0750Z 30016KT 9999 SCT030 03/M00 Q1006 BLU;EQDQ01+000000PRSWM2
0141037155999992000021608504+51400-003430FM-15+0050EGDX V0202901N010312200019N0112651N1+00501+00001999999ADDGA1021+009009999GF102991999999999999999999MA1100611999999MW1001REMMET047EGDX 0850Z 29020KT 9999 FEW030 05/00 Q1006 BLU;EQDQ01+000000PRSWM2
0141037155999992000021609504+51400-003430FM-15+0050EGDX V0202901N009812200019N0112651N1+00501+00101999999ADDGA1021+008109999GF102991999999999999999999MA1100611999999MW1001REMMET047EGDX 0950Z 29019KT 9999 FEW027 05/01 Q1006 BLU;EQDQ01+000000PRSWM2
0141037155999992000021610504+51400-003430FM-15+0050EGDX V0202901N010312200019N0112651N1+00601+00101999999ADDGA1021+008109999GF104991999999999999999999MA1100711999999MW1001REMMET047EGDX 1050Z 29020KT 9999 SCT027 06/01 Q1007 BLU;EQDQ01+000000PRSWM2
0141037155999992000021611504+51400-003430FM-15+0050EGDX V0202801N011312200019N0112651N1+00601+00101999999ADDGA1021+009009999GF102991999999999999999999MA1100711999999MW1001REMMET047EGDX 1150Z 28022KT 9999 FEW030 06/01 Q1007 BLU;EQDQ01+000000PRSWM2
0152037155999992000021612504+51400-003430FM-15+0050EGDX V0202701N012312200019N0112651N1+00701+00201999999ADDGA1021+008109999GF104991999999999999999999MA1100711999999MW1001OC101751REMMET050EGDX 1250Z 27024G34KT 9999 SCT027 07/02 Q1007 BLU;EQDQ01+000000PRSWM2
0164037155999992000021613504+51400-003430FM-15+0050EGDX V0202801N011312200019N0112651N1+00701+00301999999ADDGA1021+007809999GA2021+015009999GF104991999999999999999999MA1100611999999MW1001REMMET054EGDX 1350Z 28022KT 9999 FEW026 SCT050 07/03 Q1006 BLU;EQDQ01+000000PRSWM2
0175037155999992000021614504+51400-003430FM-15+0050EGDX V0202801N012310150019N0112651N1+00701+00301999999ADDGA1021+006909999GA2071+015009999GF107991999999999999999999MA1100611999999MW1001OC101751REMMET057EGDX 1450Z 28024G34KT 9999 SCT023 BKN050 07/03 Q1006 WHT;EQDQ01+000000PRSWM2
0175037155999992000021615504+51400-003430FM-15+0050EGDX V0202801N009812200019N0050001N1+00601+00301999999ADDGA1021+006609999GA2021+015009999GF104991999999999999999999MA1100611999999MW1001OC101751REMMET057EGDX 1550Z 28019G34KT 5000 SCT022 SCT050 06/03 Q1006 WHT;EQDQ01+000000PRSWM2
0141037155999992000021707504+51400-003430FM-15+0050EGDX V0203601N001512200019N0112651N1+00201+00101999999ADDGA1021+006009999GF102991999999999999999999MA1101291999999MW1001REMMET047EGDX 0750Z 36003KT 9999 FEW020 02/01 Q1013 BLU;EQDQ01+000000PRSWM2
0093037155999992000021708504+51400-003430FM-15+0050EGDX V0203001N00461220001CN0099001N1+00501+00201999999ADDMA1101291999999MW1001REMMET041EGDX 0850Z 30009KT CAVOK 05/02 Q1013 BLU;EQDQ01+000000PRSWM2
0141037155999992000021709504+51400-003430FM-15+0050EGDX V0202801N006212200019N0112651N1+00601+00301999999ADDGA1021+006009999GF102991999999999999999999MA1101391999999MW1001REMMET047EGDX 0950Z 28012KT 9999 FEW020 06/03 Q1014 BLU;EQDQ01+000000PRSWM2
0164037155999992000021710504+51400-003430FM-15+0050EGDX V0202801N006212200019N0112651N1+00701+00301999999ADDGA1021+006009999GA2021+045009999GF104991999999999999999999MA1101391999999MW1001REMMET054EGDX 1050Z 28012KT 9999 FEW020 SCT150 07/03 Q1014 BLU;EQDQ01+000000PRSWM2
0164037155999992000021712504+51400-003430FM-15+0050EGDX V0202801N005110270019N0112651N1+00701+00401999999ADDGA1021+007509999GA2071+027009999GF107991999999999999999999MA1101391999999MW1001REMMET054EGDX 1250Z 28010KT 9999 FEW025 BKN090 07/04 Q1014 BLU;EQDQ01+000000PRSWM2
0164037155999992000021714504+51400-003430FM-15+0050EGDX V0202501N005110150019N0112651N1+00801+00501999999ADDGA1021+007509999GA2081+015009999GF108991999999999999999999MA1101391999999MW1001REMMET054EGDX 1450Z 25010KT 9999 FEW025 OVC050 08/05 Q1014 BLU;EQDQ01+000000PRSWM2
0186037155999992000021715504+51400-003430FM-15+0050EGDX V0202401N004110060019N0045001N1+00701+00501999999ADDGA1071+006009999GA2081+015009999GF108991999999999999999999MA1101291999999MW1801REMMET060EGDX 1550Z 24008KT 4500 -SHRA BKN020 OVC050 07/05 Q1013 GRN;EQDQ01+000003PRSWM1Q02    003PRSWM1
0194037155999992000021807504+51400-003430FM-15+0050EGDX V0202801N011312200019N0080001N1+00801+00501999999ADDGA1021+014409999GA2021+024009999GF104991999999999999999999MA1100411999999MW1051OC101651REMMET060EGDX 0750Z 28022G32KT 8000 HZ FEW048 SCT080 08/05 Q1004 BLU;EQDQ01+000003PRSWM1Q02    003PRSWM1
0196037155999992000021808504+51400-003430FM-15+0050EGDX V0202901N009310099019N0080001N1+00801+00501999999ADDGA1021+004509999GA2071+009909999GF107991999999999999999999MA1100411999999MW1811OC101491REMMET062EGDX 0850Z 29018G29KT 8000 SHRA SCT015 BKN033 08/05 Q1004 WHT;EQDQ01+000003PRSWM1Q02    003PRSWM1
0196037155999992000021809504+51400-003430FM-15+0050EGDX V0202701N013912200019N0112651N1+00801+00401999999ADDGA1021+004509999GA2021+013509999GF104991999999999999999999MA1100411999999MW1811OC102011REMMET062EGDX 0950Z 27027G39KT 9999 SHRA SCT015 SCT045 08/04 Q1004 WHT;EQDQ01+000003PRSWM1Q02    003PRSWM1
0173037155999992000021810504+51400-003430FM-15+0050EGDX V0202801N011312200019N0112651N1+00901+00601999999ADDGA1021+015009999GF104991999999999999999999MA1100411999999MW1811OC101801REMMET055EGDX 1050Z 28022G35KT 9999 SHRA SCT050 09/06 Q1004 BLU;EQDQ01+000003PRSWM1Q02    003PRSWM1
0104037155999992000021811504+51400-003430FM-15+0050EGDX V0202801N01231220001CN0099001N1+00901+00601999999ADDMA1100411999999MW1001OC101851REMMET044EGDX 1150Z 28024G36KT CAVOK 09/06 Q1004 BLU;EQDQ01+000000PRSWM2
0104037155999992000021812504+51400-003430FM-15+0050EGDX V0202701N01181220001CN0099001N1+00901+00701999999ADDMA1100411999999MW1001OC101801REMMET044EGDX 1250Z 27023G35KT CAVOK 09/07 Q1004 BLU;EQDQ01+000000PRSWM2
0093037155999992000021813504+51400-003430FM-15+0050EGDX V0202701N01341220001CN0099001N1+00901+00601999999ADDMA1100411999999MW1001REMMET041EGDX 1350Z 27026KT CAVOK 09/06 Q1004 BLU;EQDQ01+000000PRSWM2
0194037155999992000021814504+51400-003430FM-15+0050EGDX V0202701N011812200019N0060001N1+00901+00601999999ADDGA1021+009009999GA2021+018009999GF104991999999999999999999MA1100411999999MW1631OC101851REMMET060EGDX 1450Z 27023G36KT 6000 RA FEW030 SCT060 09/06 Q1004 WHT;EQDQ01+000003PRSWM1Q02    003PRSWM1
0093037155999992000021908504+51400-003430FM-15+0050EGDX V0203201N00511220001CN0099001N1+00701+00501999999ADDMA1101491999999MW1001REMMET041EGDX 0850Z 32010KT CAVOK 07/05 Q1015 BLU;EQDQ01+000000PRSWM2
0141037155999992000021909504+51400-003430FM-15+0050EGDX V0203301N003110138019N0112651N1+00801+00401999999ADDGA1071+013809999GF107991999999999999999999MA1101591999999MW1001REMMET047EGDX 0950Z 33006KT 9999 BKN046 08/04 Q1016 BLU;EQDQ01+000000PRSWM2
0141037155999992000021910504+51400-003430FM-15+0050EGDX V0203601N003110090019N0112651N1+00901+00401999999ADDGA1071+009009999GF107991999999999999999999MA1101801999999MW1001REMMET047EGDX 1050Z 36006KT 9999 BKN030 09/04 Q1018 BLU;EQDQ01+000000PRSWM2
0141037155999992000021911504+51400-003430FM-15+0050EGDX V0203501N003610111019N0112651N1+00901+00401999999ADDGA1071+011109999GF107991999999999999999999MA1101801999999MW1001REMMET047EGDX 1150Z 35007KT 9999 BKN037 09/04 Q1018 BLU;EQDQ01+000000PRSWM2
0141037155999992000021912504+51400-003430FM-15+0050EGDX V0203301N004112200019N0112651N1+01001+00501999999ADDGA1021+011709999GF102991999999999999999999MA1101901999999MW1001REMMET047EGDX 1250Z 33008KT 9999 FEW039 10/05 Q1019 BLU;EQDQ01+000000PRSWM2
0141037155999992000021913504+51400-003430FM-15+0050EGDX V0203601N005112200019N0112651N1+00901+00401999999ADDGA1021+012009999GF104991999999999999999999MA1102001999999MW1001REMMET047EGDX 1350Z 36010KT 9999 SCT040 09/04 Q1020 BLU;EQDQ01+000000PRSWM2
0141037155999992000021914504+51400-003430FM-15+0050EGDX V0203601N005112200019N0112651N1+01001+00401999999ADDGA1021+013509999GF102991999999999999999999MA1102001999999MW1001REMMET047EGDX 1450Z 36010KT 9999 FEW045 10/04 Q1020 BLU;EQDQ01+000000PRSWM2
0141037155999992000021915504+51400-003430FM-15+0050EGDX V0203501N003612200019N0112651N1+01001+00401999999ADDGA1021+013509999GF102991999999999999999999MA1102101999999MW1001REMMET047EGDX 1550Z 35007KT 9999 FEW045 10/04 Q1021 BLU;EQDQ01+000000PRSWM2
0141037155999992000022107504+51400-003430FM-15+0050EGDX V0203001N002612200019N0112651N1+00401+00301999999ADDGA1021+010509999GF104991999999999999999999MA1102611999999MW1001REMMET047EGDX 0750Z 30005KT 9999 SCT035 04/03 Q1026 BLU;EQDQ01+000000PRSWM2
0141037155999992000022108504+51400-003430FM-15+0050EGDX V0203101N003612200019N0112651N1+00501+00301999999ADDGA1021+010509999GF104991999999999999999999MA1102711999999MW1001REMMET047EGDX 0850Z 31007KT 9999 SCT035 05/03 Q1027 BLU;EQDQ01+000000PRSWM2
0141037155999992000022109504+51400-003430FM-15+0050EGDX V0203001N005112200019N0112651N1+00601+00301999999ADDGA1021+012009999GF104991999999999999999999MA1102711999999MW1001REMMET047EGDX 0950Z 30010KT 9999 SCT040 06/03 Q1027 BLU;EQDQ01+000000PRSWM2
0141037155999992000022110504+51400-003430FM-15+0050EGDX V0203101N004610105019N0112651N1+00701+00301999999ADDGA1071+010509999GF107991999999999999999999MA1102811999999MW1001REMMET047EGDX 1050Z 31009KT 9999 BKN035 07/03 Q1028 BLU;EQDQ01+000000PRSWM2
0141037155999992000022114504+51400-003430FM-15+0050EGDX V0202601N006212200019N0112651N1+00801+00401999999ADDGA1021+013509999GF104991999999999999999999MA1102711999999MW1001REMMET047EGDX 1450Z 26012KT 9999 SCT045 08/04 Q1027 BLU;EQDQ01+000000PRSWM2
0141037155999992000022115504+51400-003430FM-15+0050EGDX V0202701N006712200019N0112651N1+00801+00401999999ADDGA1021+013509999GF104991999999999999999999MA1102711999999MW1001REMMET047EGDX 1550Z 27013KT 9999 SCT045 08/04 Q1027 BLU;EQDQ01+000000PRSWM2
0141037155999992000022116504+51400-003430FM-15+0050EGDX V0202701N004612200019N0112651N1+00601+00301999999ADDGA1021+013509999GF104991999999999999999999MA1102711999999MW1001REMMET047EGDX 1650Z 27009KT 9999 SCT045 06/03 Q1027 BLU;EQDQ01+000000PRSWM2
0160037155999992000022207504+51400-003430FM-15+0050EGDX V0200701N003110270019N0060001N1+00101+00101999999ADDGA1071+027009999GF107991999999999999999999MA1102201999999MW1051REMMET050EGDX 0750Z 07006KT 6000 HZ BKN090 01/01 Q1022 WHT;EQDQ01+000003PRSWM1Q02    003PRSWM1
0093037155999992000022208504+51400-003430FM-15+0050EGDX V0200801N00261220001CN0099001N1+00201+00101999999ADDMA1102201999999MW1001REMMET041EGDX 0850Z 08005KT CAVOK 02/01 Q1022 BLU;EQDQ01+000000PRSWM2
0093037155999992000022209504+51400-003430FM-15+0050EGDX V0200901N00311220001CN0099001N1+00501+00301999999ADDMA1102201999999MW1001REMMET041EGDX 0950Z 09006KT CAVOK 05/03 Q1022 BLU;EQDQ01+000000PRSWM2
0093037155999992000022210504+51400-003430FM-15+0050EGDX V0201201N00411220001CN0099001N1+00701+00401999999ADDMA1102101999999MW1001REMMET041EGDX 1050Z 12008KT CAVOK 07/04 Q1021 BLU;EQDQ01+000000PRSWM2
0093037155999992000022212504+51400-003430FM-15+0050EGDX V0201301N00411220001CN0099001N1+00901+00401999999ADDMA1102101999999MW1001REMMET041EGDX 1250Z 13008KT CAVOK 09/04 Q1021 BLU;EQDQ01+000000PRSWM2
0093037155999992000022213504+51400-003430FM-15+0050EGDX V0201401N00461220001CN0099001N1+00901+00501999999ADDMA1102001999999MW1001REMMET041EGDX 1350Z 14009KT CAVOK 09/05 Q1020 BLU;EQDQ01+000000PRSWM2
0141037155999992000022214504+51400-003430FM-15+0050EGDX V0201401N004110105019N0112651N1+00901+00601999999ADDGA1071+010509999GF107991999999999999999999MA1102001999999MW1001REMMET047EGDX 1450Z 14008KT 9999 BKN035 09/06 Q1020 BLU;EQDQ01+000000PRSWM2
0141037155999992000022215504+51400-003430FM-15+0050EGDX V0201301N003610075019N0112651N1+00801+00601999999ADDGA1071+007509999GF107991999999999999999999MA1101901999999MW1001REMMET047EGDX 1550Z 13007KT 9999 BKN025 08/06 Q1019 BLU;EQDQ01+000000PRSWM2
0161037155999992000022307504+51400-003430FM-15+0050EGDX V0201701N001010015019N0030001N1+00701+00701999999ADDGA1081+001509999GF108991999999999999999999MA1102001999999MW1551REMMET051EGDX 0750Z 17002KT 3000 +DZ OVC005 07/07 Q1020 YLO;EQDQ01+000003PRSWM1Q02    003PRSWM1
0183037155999992000022308504+51400-003430FM-15+0050EGDX V0202201N001510030019N0080001N1+00801+00801999999ADDGA1021+002109999GA2081+003009999GF108991999999999999999999MA1102001999999MW1051REMMET057EGDX 0850Z 22003KT 8000 HZ FEW007 OVC010 08/08 Q1020 GRN;EQDQ01+000003PRSWM1Q02    003PRSWM1
0183037155999992000022309504+51400-003430FM-15+0050EGDX V0202501N002610027019N0050001N1+00901+00801999999ADDGA1021+001509999GA2081+002709999GF108991999999999999999999MA1102001999999MW1051REMMET057EGDX 0950Z 25005KT 5000 HZ FEW005 OVC009 09/08 Q1020 GRN;EQDQ01+000003PRSWM1Q02    003PRSWM1
0183037155999992000022310504+51400-003430FM-15+0050EGDX V0202501N002610027019N0050001N1+00901+00901999999ADDGA1021+001509999GA2081+002709999GF108991999999999999999999MA1102001999999MW1051REMMET057EGDX 1050Z 25005KT 5000 HZ FEW005 OVC009 09/09 Q1020 GRN;EQDQ01+000003PRSWM1Q02    003PRSWM1
0170037155999992000022311504+51400-003430FM-15+0050EGDX V0202501N002110003019N0010001N1+00901+00901999999ADDGA1081+000309999GF108991999999999999999999MA1102001999999MW1101MW2551REMMET054EGDX 1150Z 25004KT 1000 +DZ BR OVC001 09/09 Q1020 RED;EQDQ01+000003PRSWM1Q02    003PRSWM1
0169037155999992000022312504+51400-003430FM-15+0050EGDX V0201701N001510001519N0005001N1+00901+00901999999ADDGA1091+000159999GF109991999999000251999999MA1102001999999MW1451MW2551REMMET053EGDX 1250Z 17003KT 0500 +DZ FG VV000 09/09 Q1020 RED;EQDQ01+000003PRSWM1Q02    003PRSWM1
0160037155999992000022313504+51400-003430FM-15+0050EGDX V0202401N002610003019N0005001N1+00901+00901999999ADDGA1081+000309999GF108991999999999999999999MA1101901999999MW1101REMMET050EGDX 1350Z 24005KT 0500 BR OVC001 09/09 Q1019 RED;EQDQ01+000003PRSWM1Q02    003PRSWM1
0160037155999992000022314504+51400-003430FM-15+0050EGDX V0202501N00621220001CN0005001N1+01001+01001999999ADDGA1081+000159999GF108991999999999999999999MA1101901999999MW1441REMMET050EGDX 1450Z 25012KT 0500 FG OVC000 10/10 Q1019 RED;EQDQ01+000003PRSWM1Q02    003PRSWM1
0160037155999992000022315504+51400-003430FM-15+0050EGDX V0202501N00621220001CN0040001N1+01001+01001999999ADDGA1081+000159999GF108991999999999999999999MA1101901999999MW1101REMMET050EGDX 1550Z 25012KT 4000 BR OVC000 10/10 Q1019 RED;EQDQ01+000003PRSWM1Q02    003PRSWM1
0183037155999992000022407504+51400-003430FM-15+0050EGDX V0202501N003110150019N0050001N1+00701+00701999999ADDGA1021+007509999GA2071+015009999GF107991999999999999999999MA1102201999999MW1051REMMET057EGDX 0750Z 25006KT 5000 HZ FEW025 BKN050 07/07 Q1022 WHT;EQDQ01+000003PRSWM1Q02    003PRSWM1
0183037155999992000022408504+51400-003430FM-15+0050EGDX V0202201N003610150019N0090001N1+00801+00701999999ADDGA1021+004509999GA2071+015009999GF107991999999999999999999MA1102201999999MW1051REMMET057EGDX 0850Z 22007KT 9000 HZ SCT015 BKN050 08/07 Q1022 WHT;EQDQ01+000003PRSWM1Q02    003PRSWM1
0206037155999992000022409504+51400-003430FM-15+0050EGDX V0202401N004110240019N0060001N1+00801+00701999999ADDGA1021+003009999GA2021+009009999GA3071+024009999GF107991999999999999999999MA1102301999999MW1051REMMET064EGDX 0950Z 24008KT 6000 HZ FEW010 SCT030 BKN080 08/07 Q1023 WHT;EQDQ01+000003PRSWM1Q02    003PRSWM1
0164037155999992000022410504+51400-003430FM-15+0050EGDX V0202501N005112200019N0112651N1+01001+00701999999ADDGA1021+006009999GA2021+012009999GF104991999999999999999999MA1102301999999MW1001REMMET054EGDX 1050Z 25010KT 9999 FEW020 SCT040 10/07 Q1023 BLU;EQDQ01+000000PRSWM2
0164037155999992000022411504+51400-003430FM-15+0050EGDX V0202501N004110300019N0112651N1+00901+00701999999ADDGA1021+014409999GA2071+030009999GF107991999999999999999999MA1102201999999MW1001REMMET054EGDX 1150Z 25008KT 9999 SCT048 BKN100 09/07 Q1022 BLU;EQDQ01+000000PRSWM2
0164037155999992000022412504+51400-003430FM-15+0050EGDX V0202601N005710150019N0112651N1+00901+00701999999ADDGA1021+011409999GA2071+015009999GF107991999999999999999999MA1102201999999MW1001REMMET054EGDX 1250Z 26011KT 9999 FEW038 BKN050 09/07 Q1022 BLU;EQDQ01+000000PRSWM2
0164037155999992000022413504+51400-003430FM-15+0050EGDX V0202701N003610096019N0112651N1+00901+00701999999ADDGA1021+006009999GA2071+009609999GF107991999999999999999999MA1102101999999MW1001REMMET054EGDX 1350Z 27007KT 9999 FEW020 BKN032 09/07 Q1021 BLU;EQDQ01+000000PRSWM2
0183037155999992000022414504+51400-003430FM-15+0050EGDX V0202701N005110024019N0050001N1+00801+00701999999ADDGA1021+001809999GA2081+002409999GF108991999999999999999999MA1102001999999MW1631REMMET057EGDX 1450Z 27010KT 5000 RA FEW006 OVC008 08/07 Q1020 GRN;EQDQ01+000003PRSWM1Q02    003PRSWM1
0160037155999992000022415504+51400-003430FM-15+0050EGDX V0202701N003610021019N0050001N1+00701+00601999999ADDGA1081+002109999GF108991999999999999999999MA1102001999999MW1631REMMET050EGDX 1550Z 27007KT 5000 RA OVC007 07/06 Q1020 GRN;EQDQ01+000003PRSWM1Q02    003PRSWM1
0141037155999992000022507504+51400-003430FM-15+0050EGDX V0202901N006212200019N0112651N1+00501+00201999999ADDGA1021+009009999GF102991999999999999999999MA1102811999999MW1001REMMET047EGDX 0750Z 29012KT 9999 FEW030 05/02 Q1028 BLU;EQDQ01+000000PRSWM2
0141037155999992000022508504+51400-003430FM-15+0050EGDX V0202901N006212200019N0112651N1+00601+00301999999ADDGA1021+009009999GF102991999999999999999999MA1102811999999MW1001REMMET047EGDX 0850Z 29012KT 9999 FEW030 06/03 Q1028 BLU;EQDQ01+000000PRSWM2
0141037155999992000022509504+51400-003430FM-15+0050EGDX V0202801N003112200019N0112651N1+00701+00301999999ADDGA1021+009009999GF102991999999999999999999MA1103011999999MW1001REMMET047EGDX 0950Z 28006KT 9999 FEW030 07/03 Q1030 BLU;EQDQ01+000000PRSWM2
0141037155999992000022510504+51400-003430FM-15+0050EGDX V0202901N006212200019N0112651N1+00801+00301999999ADDGA1021+009009999GF102991999999999999999999MA1103011999999MW1001REMMET047EGDX 1050Z 29012KT 9999 FEW030 08/03 Q1030 BLU;EQDQ01+000000PRSWM2
0141037155999992000022511504+51400-003430FM-15+0050EGDX V0202701N004112200019N0112651N1+00801+00401999999ADDGA1021+010509999GF104991999999999999999999MA1103011999999MW1001REMMET047EGDX 1150Z 27008KT 9999 SCT035 08/04 Q1030 BLU;EQDQ01+000000PRSWM2
0141037155999992000022512504+51400-003430FM-15+0050EGDX V0202601N006212200019N0112651N1+00801+00501999999ADDGA1021+007809999GF102991999999999999999999MA1103011999999MW1001REMMET047EGDX 1250Z 26012KT 9999 FEW026 08/05 Q1030 BLU;EQDQ01+000000PRSWM2
0141037155999992000022513504+51400-003430FM-15+0050EGDX V0202701N005712200019N0112651N1+00901+00601999999ADDGA1021+008409999GF102991999999999999999999MA1103121999999MW1001REMMET047EGDX 1350Z 27011KT 9999 FEW028 09/06 Q1031 BLU;EQDQ01+000000PRSWM2
0141037155999992000022514504+51400-003430FM-15+0050EGDX V0202601N005112200019N0112651N1+00901+00501999999ADDGA1021+009009999GF104991999999999999999999MA1103011999999MW1001REMMET047EGDX 1450Z 26010KT 9999 SCT030 09/05 Q1030 BLU;EQDQ01+000000PRSWM2
0093037155999992000022608504+51400-003430FM-15+0050EGDX V0201601N00311220001CN0099001N1+00601+00401999999ADDMA1102811999999MW1001REMMET041EGDX 0850Z 16006KT CAVOK 06/04 Q1028 BLU;EQDQ01+000000PRSWM2
0093037155999992000022609504+51400-003430FM-15+0050EGDX V0201401N00361220001CN0099001N1+00701+00501999999ADDMA1102811999999MW1001REMMET041EGDX 0950Z 14007KT CAVOK 07/05 Q1028 BLU;EQDQ01+000000PRSWM2
0093037155999992000022610504+51400-003430FM-15+0050EGDX V0201301N00461220001CN0099001N1+00801+00501999999ADDMA1102711999999MW1001REMMET041EGDX 1050Z 13009KT CAVOK 08/05 Q1027 BLU;EQDQ01+000000PRSWM2
0164037155999992000022611504+51400-003430FM-15+0050EGDX V0201301N004610144019N0112651N1+00801+00601999999ADDGA1021+009009999GA2071+014409999GF107991999999999999999999MA1102711999999MW1001REMMET054EGDX 1150Z 13009KT 9999 FEW030 BKN048 08/06 Q1027 BLU;EQDQ01+000000PRSWM2
0166037155999992000022807504+51400-003430FM-15+0050EGDX V0202701N007212200019N0112651N1+00601+00301999999ADDGA1021+006009099GA2021+009009999GF104991999999999999999999MA1100711999999MW1001REMMET056EGDX 0750Z 27014KT 9999 FEW020CB SCT030 06/03 Q1007 BLU;EQDQ01+000000PRSWM2
0166037155999992000022808504+51400-003430FM-15+0050EGDX V0202601N010812200019N0112651N1+00701+00301999999ADDGA1021+006009099GA2021+009009999GF104991999999999999999999MA1100911999999MW1001REMMET056EGDX 0850Z 26021KT 9999 FEW020CB SCT030 07/03 Q1009 BLU;EQDQ01+000000PRSWM2
0166037155999992000022809504+51400-003430FM-15+0050EGDX V0202701N008712200019N0112651N1+00801+00401999999ADDGA1021+006009099GA2021+009009999GF104991999999999999999999MA1100911999999MW1001REMMET056EGDX 0950Z 27017KT 9999 FEW020CB SCT030 08/04 Q1009 BLU;EQDQ01+000000PRSWM2
0166037155999992000022810504+51400-003430FM-15+0050EGDX V0202601N008712200019N0112651N1+00801+00501999999ADDGA1021+004509099GA2021+009009999GF104991999999999999999999MA1101021999999MW1001REMMET056EGDX 1050Z 26017KT 9999 FEW015CB SCT030 08/05 Q1010 BLU;EQDQ01+000000PRSWM2
0166037155999992000022811504+51400-003430FM-15+0050EGDX V0202701N010812200019N0112651N1+00901+00601999999ADDGA1021+009009999GA2021+010509099GF102991999999999999999999MA1101081999999MW1001REMMET056EGDX 1150Z 27021KT 9999 SCT030 FEW035CB 09/06 Q1011 BLU;EQDQ01+000000PRSWM2
0187037155999992000022812504+51400-003430FM-15+0050EGDX V0202501N009810150019N0112651N1+00901+00601999999ADDGA1021+007209099GA2071+015009999GF107991999999999999999999MA1101081999999MW1811REMMET061EGDX 1250Z 25019KT 9999 SHRA FEW024CB BKN050 09/06 Q1011 BLU;EQDQ01+000003PRSWM1Q02    003PRSWM1
0189037155999992000022813504+51400-003430FM-15+0050EGDX V0202401N009810180019N0112651N1+00501+00401999999ADDGA1021+000909999GA2021+008709099GA3071+018009999GF107991999999999999999999MA1101191999999MW1001REMMET063EGDX 1350Z 24019KT 9999 FEW003 FEW029CB BKN060 05/04 Q1012 BLU;EQDQ01+000000PRSWM2
0185037155999992000022814504+51400-003430FM-15+0050EGDX V0202601N010810150019N0112651N1+00701+00401999999ADDGA1021+007509999GA2071+015009999GF107991999999999999999999MA1101191999999MW1811REMMET059EGDX 1450Z 26021KT 9999 SHRA SCT025 BKN050 07/04 Q1012 BLU;EQDQ01+000003PRSWM1Q02    003PRSWM1
0164037155999992000022912504+51400-003430FM-15+0050EGDX V0202801N009310066019N0112651N1+00901+00601999999ADDGA1071+006609999GA2071+009309999GF107991999999999999999999MA1099701999999MW1001REMMET054EGDX 1250Z 28018KT 9999 BKN022 BKN031 09/06 Q0997 WHT;EQDQ01+000000PRSWM2
0164037155999992000022913504+51400-003430FM-15+0050EGDX V0202801N008710114019N0112651N1+00901+00701999999ADDGA1021+008409999GA2071+011409999GF107991999999999999999999MA1099701999999MW1001REMMET054EGDX 1350Z 28017KT 9999 FEW028 BKN038 09/07 Q0997 BLU;EQDQ01+000000PRSWM2
0185037155999992000022914504+51400-003430FM-15+0050EGDX V0202801N007210066019N0045001N1+00701+00701999999ADDGA1021+001209999GA2071+006609999GF107991999999999999999999MA1099701999999MW1811REMMET059EGDX 1450Z 28014KT 4500 SHRA SCT004 BKN022 07/07 Q0997 YLO;EQDQ01+000003PRSWM1Q02    003PRSWM1
0164037155999992000022915504+51400-003430FM-15+0050EGDX V0202801N006710120019N0112651N1+00701+00701999999ADDGA1021+006009999GA2071+012009999GF107991999999999999999999MA1099801999999MW1001REMMET054EGDX 1550Z 28013KT 9999 SCT020 BKN040 07/07 Q0998 WHT;EQDQ01+000000PRSWM2
0141037155999992000030107504+51400-003430FM-15+0050EGDX V0202901N005712200019N0112651N1+00501+00301999999ADDGA1021+009909999GF104991999999999999999999MA1100811999999MW1001REMMET047EGDX 0750Z 29011KT 9999 SCT033 05/03 Q1008 BLU;EQDQ01+000000PRSWM2
0141037155999992000030109504+51400-003430FM-15+0050EGDX V0203001N007212200019N0112651N1+00701+00401999999ADDGA1021+007509999GF104991999999999999999999MA1101081999999MW1001REMMET047EGDX 0950Z 30014KT 9999 SCT025 07/04 Q1011 BLU;EQDQ01+000000PRSWM2
