0112040870999992000011000004+99999+999999FM-12+999999999V0201401N022010012019N0200001N1+00291+00081097601ADDGF108991081051001501999999MD1710881+9999REMSYN060AAXX  1000  04087 //270 81422 10029 20008 4976/ 57088 885//;
0165040870999992000011318004+99999+999999FM-12+999999999V02099999999990042019N0400001N1+00131-00191102141ADDAA106000091GF108991081051004501999999KA1999M+00131MD1710081+9999REMSYN070AAXX  1318  04087 32482 8232/ 10013 21019 40214 57008 885// 333 10013;EQDQ01  00002PRCP06
0096040870999992000011803004+99999+999999FM-12+999999999V0202301N010010012019N0100001N1+00151-00041103421ADDGF108991081061001501999999REMSYN058    AAXX  1803  04087 42260 82310 10015 21004 40342 886//;
0112040870999992000012212004+99999+999999FM-12+999999999V0202301N00501045001CN0400001N1+99999+99999999999ADDGF107991021051002501071999MD1719999+9999REMSYN060AAXX  2212  04087 42382 72305 188/9 27883 402/9 570/0 8257/;
0132040870999992000032006004+99999+999999FM-12+999999999V0200501N011010021019N0300001N1-00301-00571100561ADDAW1021AZ181061GF107991071051002501999999MD1210251+9999REMSYN066AAXX  2006  04087 46380 70511 11030 21057 40056 52025 70288 875//;
0203040870999992000032318004+99999+999999FM-12+999999999V0200901N011010006019N0008001N1+99999+99999101381ADDAA109007191AY171061AY271061GA1091+999999999GF109991091999999999999999KA1999M-00231KA2999N-00431MD1012501+9999MW1731REMSYN076AAXX  2318  04087 21/08 90911 21042 40138 5025/ 77377 333 11023 21043 60078;
0122040870999992000032612004+99999+999999FM-12+999999999V0201601N015012200019N0450001N1+00261-00011101511ADDGA1001+999999999GF100991001001999999001001MD1410001+9999REMSYN054AAXX  2612  04087 42983 01615 10026 21001 40151 54000;
