0141041150999992000110412004+72570-038760FM-15+321399999V02099999999992200019N0112651N1+99999+99999101701ADDMD1110051+9999MW1001REMMET090041154Z KSSC 04155Z VRB01KT 3SM BR SCT150 BKN250 14/12 A3004 RMK SLP170 8/071 9/034 51005;EQDQ01+000000PRSWM2
