0095042280999992000010115004+67780-053970FM-12+001299999V0202801N007719999999N9999999N1-01221+99999098141ADDMA1999999097991MD1210431+9999REMSYN054AAXX  01154 04228 46/// /2815 11122 39799 49814 52043;
0095042280999992000010118004+67780-053970FM-12+001299999V0202701N004619999999N9999999N1-01171+99999098391ADDMA1999999098251MD1210261+9999REMSYN054AAXX  01184 04228 46/// /2709 11117 39825 49839 52026;
0095042280999992000010121004+67780-053970FM-12+001299999V0202901N003619999999N9999999N1-01241+99999098671ADDMA1999999098541MD1210291+9999REMSYN054AAXX  01214 04228 46/// /2907 11124 39854 49867 52029;
0075042280999992000010203004+67780-053970FM-12+001299999V0200501N001519999999N9999999N1-01241+99999099001ADDMA1999999098851REMSYN048AAXX  02034 04228 46/// /0503 11124 39885 49900;
0095042280999992000010206004+67780-053970FM-12+001299999V0200901N002619999999N9999999N1-01181+99999099051ADDMA1999999098911MD1210061+9999REMSYN054AAXX  02064 04228 46/// /0905 11118 39891 49905 52006;
0095042280999992000010209004+67780-053970FM-12+001299999V0200701N004619999999N9999999N1-01201+99999099121ADDMA1999999098981MD1210071+9999REMSYN054AAXX  02094 04228 46/// /0709 11120 39898 49912 52007;
0095042280999992000010212004+67780-053970FM-12+001299999V0201001N004119999999N9999999N1-01181+99999099151ADDMA1999999099011MD1210031+9999REMSYN054AAXX  02124 04228 46/// /1008 11118 39901 49915 52003;
0095042280999992000010215004+67780-053970FM-12+001299999V0201201N004119999999N9999999N1-01241+99999099171ADDMA1999999099021MD1210011+9999REMSYN054AAXX  02154 04228 46/// /1208 11124 39902 49917 52001;
0095042280999992000010218004+67780-053970FM-12+001299999V0202901N006719999999N9999999N1-01151+99999099141ADDMA1999999098991MD1710021+9999REMSYN054AAXX  02184 04228 46/// /2913 11115 39899 49914 57002;
0095042280999992000010221004+67780-053970FM-12+001299999V0202901N006719999999N9999999N1-01211+99999099191ADDMA1999999099041MD1210051+9999REMSYN054AAXX  02214 04228 46/// /2913 11121 39904 49919 52005;
0075042280999992000010303004+67780-053970FM-12+001299999V0201001N006219999999N9999999N1-01461+99999099151ADDMA1999999099001REMSYN048AAXX  03034 04228 46/// /1012 11146 39900 49915;
0095042280999992000010306004+67780-053970FM-12+001299999V0200801N004619999999N9999999N1-01201+99999099201ADDMA1999999099051MD1210051+9999REMSYN054AAXX  03064 04228 46/// /0809 11120 39905 49920 52005;
0095042280999992000010309004+67780-053970FM-12+001299999V0201701N004619999999N9999999N1-01171+99999099271ADDMA1999999099131MD1210081+9999REMSYN054AAXX  03094 04228 46/// /1709 11117 39913 49927 52008;
0095042280999992000010312004+67780-053970FM-12+001299999V0201301N005719999999N9999999N1-01191+99999099441ADDMA1999999099291MD1210161+9999REMSYN054AAXX  03124 04228 46/// /1311 11119 39929 49944 52016;
0095042280999992000010315004+67780-053970FM-12+001299999V0201001N006219999999N9999999N1-01241+99999099401ADDMA1999999099261MD1710021+9999REMSYN054AAXX  03154 04228 46/// /1012 11124 39926 49940 57002;
0095042280999992000010318004+67780-053970FM-12+001299999V0201201N005719999999N9999999N1-01181+99999099421ADDMA1999999099281MD1210021+9999REMSYN054AAXX  03184 04228 46/// /1211 11118 39928 49942 52002;
0095042280999992000010321004+67780-053970FM-12+001299999V0201201N004619999999N9999999N1-01171+99999099491ADDMA1999999099341MD1210061+9999REMSYN054AAXX  03214 04228 46/// /1209 11117 39934 49949 52006;
0075042280999992000010403004+67780-053970FM-12+001299999V0201201N006719999999N9999999N1-01141+99999099471ADDMA1999999099321REMSYN048AAXX  04034 04228 46/// /1213 11114 39932 49947;
0114042280999992000010406004+67780-053970FM-12+001299999V0201101N006219999999N9999999N1-01101+99999099471ADDMA1999999099321MD1410001+9999REMSYN054AAXX  04064 04228 46/// /1112 11110 39932 49947 52000;EQDQ01+000022APCTEN
0095042280999992000010409004+67780-053970FM-12+001299999V0201101N008719999999N9999999N1-01041+99999099421ADDMA1999999099281MD1710031+9999REMSYN054AAXX  04094 04228 46/// /1117 11104 39928 49942 57003;
0095042280999992000010412004+67780-053970FM-12+001299999V0200901N008719999999N9999999N1-00991+99999099251ADDMA1999999099101MD1710171+9999REMSYN054AAXX  04124 04228 46/// /0917 11099 39910 49925 57017;
0095042280999992000010415004+67780-053970FM-12+001299999V0200801N007719999999N9999999N1-01001+99999099151ADDMA1999999099011MD1710081+9999REMSYN054AAXX  04154 04228 46/// /0815 11100 39901 49915 57008;
0095042280999992000010418004+67780-053970FM-12+001299999V0200801N008219999999N9999999N1-01001+99999099041ADDMA1999999098891MD1710111+9999REMSYN054AAXX  04184 04228 46/// /0816 11100 39889 49904 57011;
0095042280999992000010421004+67780-053970FM-12+001299999V0201401N005719999999N9999999N1-00881+99999099171ADDMA1999999099021MD1210131+9999REMSYN054AAXX  04214 04228 46/// /1411 11088 39902 49917 52013;
0075042280999992000010506004+67780-053970FM-12+001299999V0203101N002619999999N9999999N1-01661+99999100071ADDMA1999999099931REMSYN048AAXX  05064 04228 46/// /3105 11166 39993 40007;
0095042280999992000010509004+67780-053970FM-12+001299999V0202801N002119999999N9999999N1-01641+99999100071ADDMA1999999099921MD1410001+9999REMSYN054AAXX  05094 04228 46/// /2804 11164 39992 40007 54000;
0095042280999992000010512004+67780-053970FM-12+001299999V0200801N010319999999N9999999N1-01471+99999099751ADDMA1999999099611MD1710301+9999REMSYN054AAXX  05124 04228 46/// /0820 11147 39961 49975 57030;
0095042280999992000010515004+67780-053970FM-12+001299999V0201201N007719999999N9999999N1-01371+99999099601ADDMA1999999099451MD1710151+9999REMSYN054AAXX  05154 04228 46/// /1215 11137 39945 49960 57015;
0095042280999992000010518004+67780-053970FM-12+001299999V0202501N002619999999N9999999N1-01481+99999099421ADDMA1999999099281MD1710161+9999REMSYN054AAXX  05184 04228 46/// /2505 11148 39928 49942 57016;
0095042280999992000010521004+67780-053970FM-12+001299999V0203101N002619999999N9999999N1-01521+99999099101ADDMA1999999098961MD1710311+9999REMSYN054AAXX  05214 04228 46/// /3105 11152 39896 49910 57031;
0075042280999992000010603004+67780-053970FM-12+001299999V0203401N006219999999N9999999N1-01411+99999098621ADDMA1999999098481REMSYN048AAXX  06034 04228 46/// /3412 11141 39848 49862;
0095042280999992000010609004+67780-053970FM-12+001299999V0203201N011819999999N9999999N1-01541+99999098241ADDMA1999999098091MD1710141+9999REMSYN054AAXX  06094 04228 46/// /3223 11154 39809 49824 57014;
0095042280999992000010612004+67780-053970FM-12+001299999V0203001N011819999999N9999999N1-01561+99999098201ADDMA1999999098061MD1710021+9999REMSYN054AAXX  06124 04228 46/// /3023 11156 39806 49820 57002;
0114042280999992000010615004+67780-053970FM-12+001299999V0202801N011319999999N9999999N1-01711+99999098201ADDMA1999999098061MD1410001+9999REMSYN054AAXX  06154 04228 46/// /2822 11171 39806 49820 52000;EQDQ01+000022APCTEN
0095042280999992000010618004+67780-053970FM-12+001299999V0202801N010819999999N9999999N1-01601+99999098351ADDMA1999999098201MD1210141+9999REMSYN054AAXX  06184 04228 46/// /2821 11160 39820 49835 52014;
0095042280999992000010621004+67780-053970FM-12+001299999V0202501N005119999999N9999999N1-01781+99999098751ADDMA1999999098601MD1210401+9999REMSYN054AAXX  06214 04228 46/// /2510 11178 39860 49875 52040;
0095042280999992000010706004+67780-053970FM-12+001299999V0202101N005719999999N9999999N1-01741+99999099251ADDMA1999999099101MD1210201+9999REMSYN054AAXX  07064 04228 46/// /2111 11174 39910 49925 52020;
0095042280999992000010709004+67780-053970FM-12+001299999V0202201N006719999999N9999999N1-01781+99999099421ADDMA1999999099261MD1210161+9999REMSYN054AAXX  07094 04228 46/// /2213 11178 39926 49942 52016;
0095042280999992000010715004+67780-053970FM-12+001299999V0201901N004619999999N9999999N1-01741+99999099541ADDMA1999999099391MD1210051+9999REMSYN054AAXX  07154 04228 46/// /1909 11174 39939 49954 52005;
0095042280999992000010718004+67780-053970FM-12+001299999V0202601N005719999999N9999999N1-01841+99999099721ADDMA1999999099581MD1210191+9999REMSYN054AAXX  07184 04228 46/// /2611 11184 39958 49972 52019;
0095042280999992000010721004+67780-053970FM-12+001299999V0202201N003619999999N9999999N1-01881+99999099921ADDMA1999999099781MD1210201+9999REMSYN054AAXX  07214 04228 46/// /2207 11188 39978 49992 52020;
0075042280999992000010803004+67780-053970FM-12+001299999V0200901N003119999999N9999999N1-01941+99999100051ADDMA1999999099901REMSYN048AAXX  08034 04228 46/// /0906 11194 39990 40005;
0095042280999992000010806004+67780-053970FM-12+001299999V0200201N004119999999N9999999N1-01811+99999100001ADDMA1999999099861MD1710031+9999REMSYN054AAXX  08064 04228 46/// /0208 11181 39986 40000 57003;
0095042280999992000010812004+67780-053970FM-12+001299999V0203401N005119999999N9999999N1-01761+99999100121ADDMA1999999099971MD1210091+9999REMSYN054AAXX  08124 04228 46/// /3410 11176 39997 40012 52009;
0095042280999992000010815004+67780-053970FM-12+001299999V0203201N005719999999N9999999N1-01801+99999100251ADDMA1999999100101MD1210131+9999REMSYN054AAXX  08154 04228 46/// /3211 11180 30010 40025 52013;
0095042280999992000010818004+67780-053970FM-12+001299999V0203401N006219999999N9999999N1-01851+99999100321ADDMA1999999100181MD1210081+9999REMSYN054AAXX  08184 04228 46/// /3412 11185 30018 40032 52008;
0095042280999992000010821004+67780-053970FM-12+001299999V0203501N006719999999N9999999N1-01871+99999100351ADDMA1999999100201MD1210021+9999REMSYN054AAXX  08214 04228 46/// /3513 11187 30020 40035 52002;
0075042280999992000010903004+67780-053970FM-12+001299999V0200401N005719999999N9999999N1-01871+99999100191ADDMA1999999100041REMSYN048AAXX  09034 04228 46/// /0411 11187 30004 40019;
0095042280999992000010906004+67780-053970FM-12+001299999V0200501N006719999999N9999999N1-01801+99999100021ADDMA1999999099881MD1710151+9999REMSYN054AAXX  09064 04228 46/// /0513 11180 39988 40002 57015;
0095042280999992000010909004+67780-053970FM-12+001299999V0200501N008719999999N9999999N1-01811+99999099851ADDMA1999999099711MD1710161+9999REMSYN054AAXX  09094 04228 46/// /0517 11181 39971 49985 57016;
0095042280999992000010912004+67780-053970FM-12+001299999V0200401N009319999999N9999999N1-01761+99999099691ADDMA1999999099541MD1710161+9999REMSYN054AAXX  09124 04228 46/// /0418 11176 39954 49969 57016;
0095042280999992000010915004+67780-053970FM-12+001299999V0200301N009319999999N9999999N1-01841+99999099541ADDMA1999999099391MD1710141+9999REMSYN054AAXX  09154 04228 46/// /0318 11184 39939 49954 57014;
0095042280999992000010918004+67780-053970FM-12+001299999V0200501N006219999999N9999999N1-01851+99999099451ADDMA1999999099311MD1710071+9999REMSYN054AAXX  09184 04228 46/// /0512 11185 39931 49945 57007;
0095042280999992000010921004+67780-053970FM-12+001299999V0200401N007719999999N9999999N1-01791+99999099621ADDMA1999999099471MD1210161+9999REMSYN054AAXX  09214 04228 46/// /0415 11179 39947 49962 52016;
0075042280999992000011003004+67780-053970FM-12+001299999V0201001N003619999999N9999999N1-01701+99999100041ADDMA1999999099891REMSYN048AAXX  10034 04228 46/// /1007 11170 39989 40004;
0095042280999992000011006004+67780-053970FM-12+001299999V0200801N003619999999N9999999N1-01641+99999100251ADDMA1999999100111MD1210221+9999REMSYN054AAXX  10064 04228 46/// /0807 11164 30011 40025 52022;
0095042280999992000011009004+67780-053970FM-12+001299999V0200901N003619999999N9999999N1-01641+99999100441ADDMA1999999100291MD1210181+9999REMSYN054AAXX  10094 04228 46/// /0907 11164 30029 40044 52018;
0095042280999992000011015004+67780-053970FM-12+001299999V0201101N003119999999N9999999N1-01731+99999100601ADDMA1999999100461MD1210081+9999REMSYN054AAXX  10154 04228 46/// /1106 11173 30046 40060 52008;
0095042280999992000011018004+67780-053970FM-12+001299999V0200901N005119999999N9999999N1-01781+99999100601ADDMA1999999100451MD1410001+9999REMSYN054AAXX  10184 04228 46/// /0910 11178 30045 40060 54000;
0095042280999992000011021004+67780-053970FM-12+001299999V0200801N006719999999N9999999N1-01731+99999100671ADDMA1999999100511MD1210061+9999REMSYN054AAXX  10214 04228 46/// /0813 11173 30051 40067 52006;
0095042280999992000011100004+67780-053970FM-12+001299999V0200901N006719999999N9999999N1-01521+99999100721ADDMA1999999100571MD1210061+9999REMSYN054AAXX  11004 04228 46/// /0913 11152 30057 40072 52006;
0095042280999992000011103004+67780-053970FM-12+001299999V0201701N009819999999N9999999N1-01291+99999100871ADDMA1999999100711MD1210141+9999REMSYN054AAXX  11034 04228 46/// /1719 11129 30071 40087 52014;
0095042280999992000011106004+67780-053970FM-12+001299999V0202301N003119999999N9999999N1-01441+99999101071ADDMA1999999100921MD1210211+9999REMSYN054AAXX  11064 04228 46/// /2306 11144 30092 40107 52021;
0095042280999992000011109004+67780-053970FM-12+001299999V0200801N004619999999N9999999N1-01361+99999101121ADDMA1999999100971MD1210051+9999REMSYN054AAXX  11094 04228 46/// /0809 11136 30097 40112 52005;
0095042280999992000011112004+67780-053970FM-12+001299999V0201101N007719999999N9999999N1-01291+99999101151ADDMA1999999101001MD1210031+9999REMSYN054AAXX  11124 04228 46/// /1115 11129 30100 40115 52003;
0095042280999992000011115004+67780-053970FM-12+001299999V0200901N010819999999N9999999N1-01281+99999101071ADDMA1999999100921MD1710071+9999REMSYN054AAXX  11154 04228 46/// /0921 11128 30092 40107 57007;
0095042280999992000011118004+67780-053970FM-12+001299999V0200901N010819999999N9999999N1-01201+99999100851ADDMA1999999100701MD1710211+9999REMSYN054AAXX  11184 04228 46/// /0921 11120 30070 40085 57021;
0095042280999992000011121004+67780-053970FM-12+001299999V0200901N011319999999N9999999N1-01081+99999100601ADDMA1999999100451MD1710241+9999REMSYN054AAXX  11214 04228 46/// /0922 11108 30045 40060 57024;
0075042280999992000011203004+67780-053970FM-12+001299999V0201101N010319999999N9999999N1-00551+99999100221ADDMA1999999100081REMSYN048AAXX  12034 04228 46/// /1120 11055 30008 40022;
0095042280999992000011206004+67780-053970FM-12+001299999V0201201N009319999999N9999999N1-00361+99999100121ADDMA1999999099981MD1710091+9999REMSYN054AAXX  12064 04228 46/// /1218 11036 39998 40012 57009;
0075042280999992000011221004+67780-053970FM-12+001299999V0201401N007219999999N9999999N1-00091+99999099121ADDMA1999999098981REMSYN048AAXX  12214 04228 46/// /1414 11009 39898 49912;
0075042280999992000011306004+67780-053970FM-12+001299999V0203001N009319999999N9999999N1-01521+99999101351ADDMA1999999101211REMSYN048AAXX  13064 04228 46/// /3018 11152 30121 40135;
0095042280999992000011309004+67780-053970FM-12+001299999V0203301N006219999999N9999999N1-01621+99999101941ADDMA1999999101781MD1210571+9999REMSYN054AAXX  13094 04228 46/// /3312 11162 30178 40194 52057;
0095042280999992000011312004+67780-053970FM-12+001299999V0200501N006219999999N9999999N1-01591+99999102051ADDMA1999999101911MD1210131+9999REMSYN054AAXX  13124 04228 46/// /0512 11159 30191 40205 52013;
0095042280999992000011315004+67780-053970FM-12+001299999V0200401N008219999999N9999999N1-01441+99999101821ADDMA1999999101681MD1710221+9999REMSYN054AAXX  13154 04228 46/// /0416 11144 30168 40182 57022;
0095042280999992000011318004+67780-053970FM-12+001299999V0200401N008719999999N9999999N1-01291+99999101071ADDMA1999999100921MD1710751+9999REMSYN054AAXX  13184 04228 46/// /0417 11129 30092 40107 57075;
0134042280999992000011321004+67780-053970FM-12+001299999V0200201N011319999999N9999999N1-01151+99999100342ADDMA1999999100192MD1710721+9999REMSYN058    AAXX  13214 04228 46/// /0222 11115 30019 40034 57072;EQDQ01+100193APOSP Q02+100343APOSLP
0079042280999992000011406004+67780-053970FM-12+001299999V0203301N011819999999N9999999N1-00931+99999099971ADDMA1999999099831REMSYN052    AAXX  14064 04228 46/// /3323 11093 39983 49997;
0099042280999992000011409004+67780-053970FM-12+001299999V0200501N006719999999N9999999N1-00881+99999099901ADDMA1999999099771MD1710051+9999REMSYN058    AAXX  14094 04228 46/// /0513 11088 39977 49990 57005;
0099042280999992000011412004+67780-053970FM-12+001299999V0200501N009819999999N9999999N1-00881+99999099551ADDMA1999999099411MD1710351+9999REMSYN058    AAXX  14124 04228 46/// /0519 11088 39941 49955 57035;
0099042280999992000011415004+67780-053970FM-12+001299999V0200201N012919999999N9999999N1-00821+99999099051ADDMA1999999098911MD1710491+9999REMSYN058    AAXX  14154 04228 46/// /0225 11082 39891 49905 57049;
0099042280999992000011418004+67780-053970FM-12+001299999V0200301N009819999999N9999999N1-00891+99999098551ADDMA1999999098411MD1710491+9999REMSYN058    AAXX  14184 04228 46/// /0319 11089 39841 49855 57049;
0079042280999992000011503004+67780-053970FM-12+001299999V0203001N005719999999N9999999N1-00881+99999098521ADDMA1999999098381REMSYN052    AAXX  15034 04228 46/// /3011 11088 39838 49852;
0099042280999992000011506004+67780-053970FM-12+001299999V0203001N006219999999N9999999N1-00971+99999098671ADDMA1999999098541MD1210161+9999REMSYN058    AAXX  15064 04228 46/// /3012 11097 39854 49867 52016;
0099042280999992000011509004+67780-053970FM-12+001299999V0202801N006219999999N9999999N1-01221+99999098771ADDMA1999999098631MD1210091+9999REMSYN058    AAXX  15094 04228 46/// /2812 11122 39863 49877 52009;
0099042280999992000011512004+67780-053970FM-12+001299999V0202701N007719999999N9999999N1-01541+99999099051ADDMA1999999098901MD1210271+9999REMSYN058    AAXX  15124 04228 46/// /2715 11154 39890 49905 52027;
0099042280999992000011515004+67780-053970FM-12+001299999V0202601N007219999999N9999999N1-01741+99999099651ADDMA1999999099501MD1210601+9999REMSYN058    AAXX  15154 04228 46/// /2614 11174 39950 49965 52060;
0099042280999992000011518004+67780-053970FM-12+001299999V0202501N006719999999N9999999N1-01791+99999100251ADDMA1999999100101MD1210601+9999REMSYN058    AAXX  15184 04228 46/// /2513 11179 30010 40025 52060;
0099042280999992000011521004+67780-053970FM-12+001299999V0202401N004619999999N9999999N1-01821+99999100721ADDMA1999999100571MD1210471+9999REMSYN058    AAXX  15214 04228 46/// /2409 11182 30057 40072 52047;
0099042280999992000011600004+67780-053970FM-12+001299999V0202201N003619999999N9999999N1-01671+99999101001ADDMA1999999100851MD1210281+9999REMSYN058    AAXX  16004 04228 46/// /2207 11167 30085 40100 52028;
0099042280999992000011603004+67780-053970FM-12+001299999V0202201N003119999999N9999999N1-01561+99999101221ADDMA1999999101071MD1210221+9999REMSYN058    AAXX  16034 04228 46/// /2206 11156 30107 40122 52022;
0099042280999992000011606004+67780-053970FM-12+001299999V0200701N006719999999N9999999N1-01481+99999101171ADDMA1999999101031MD1710031+9999REMSYN058    AAXX  16064 04228 46/// /0713 11148 30103 40117 57003;
0099042280999992000011609004+67780-053970FM-12+001299999V0200801N005119999999N9999999N1-01241+99999101341ADDMA1999999101191MD1210161+9999REMSYN058    AAXX  16094 04228 46/// /0810 11124 30119 40134 52016;
0099042280999992000011615004+67780-053970FM-12+001299999V0202601N008719999999N9999999N1-01311+99999101871ADDMA1999999101721MD1210321+9999REMSYN058    AAXX  16154 04228 46/// /2617 11131 30172 40187 52032;
0099042280999992000011618004+67780-053970FM-12+001299999V0201001N001519999999N9999999N1-01361+99999102101ADDMA1999999101951MD1210231+9999REMSYN058    AAXX  16184 04228 46/// /1003 11136 30195 40210 52023;
0099042280999992000011621004+67780-053970FM-12+001299999V0201401N002119999999N9999999N1-01271+99999102291ADDMA1999999102141MD1210191+9999REMSYN058    AAXX  16214 04228 46/// /1404 11127 30214 40229 52019;
0079042280999992000011703004+67780-053970FM-12+001299999V0202101N003619999999N9999999N1-01451+99999102781ADDMA1999999102631REMSYN052    AAXX  17034 04228 46/// /2107 11145 30263 40278;
0099042280999992000011706004+67780-053970FM-12+001299999V0201201N002619999999N9999999N1-01481+99999102901ADDMA1999999102751MD1210121+9999REMSYN058    AAXX  17064 04228 46/// /1205 11148 30275 40290 52012;
0099042280999992000011709004+67780-053970FM-12+001299999V0200901N002619999999N9999999N1-01431+99999102951ADDMA1999999102791MD1210041+9999REMSYN058    AAXX  17094 04228 46/// /0905 11143 30279 40295 52004;
0099042280999992000011712004+67780-053970FM-12+001299999V0202501N006719999999N9999999N1-01381+99999103101ADDMA1999999102941MD1210151+9999REMSYN058    AAXX  17124 04228 46/// /2513 11138 30294 40310 52015;
0099042280999992000011715004+67780-053970FM-12+001299999V0202901N000519999999N9999999N1-01521+99999103191ADDMA1999999103031MD1210091+9999REMSYN058    AAXX  17154 04228 46/// /2901 11152 30303 40319 52009;
0099042280999992000011721004+67780-053970FM-12+001299999V0203401N005719999999N9999999N1-01761+99999103201ADDMA1999999103051MD1210031+9999REMSYN058    AAXX  17214 04228 46/// /3411 11176 30305 40320 52003;
0079042280999992000011803004+67780-053970FM-12+001299999V0203501N008219999999N9999999N1-01791+99999103051ADDMA1999999102901REMSYN052    AAXX  18034 04228 46/// /3516 11179 30290 40305;
0099042280999992000011806004+67780-053970FM-12+001299999V0203501N009319999999N9999999N1-01541+99999102831ADDMA1999999102681MD1710211+9999REMSYN058    AAXX  18064 04228 46/// /3518 11154 30268 40283 57021;
0099042280999992000011809004+67780-053970FM-12+001299999V0203401N012919999999N9999999N1-01611+99999102591ADDMA1999999102431MD1710241+9999REMSYN058    AAXX  18094 04228 46/// /3425 11161 30243 40259 57024;
0099042280999992000011812004+67780-053970FM-12+001299999V0203401N012919999999N9999999N1-01501+99999102241ADDMA1999999102081MD1710341+9999REMSYN058    AAXX  18124 04228 46/// /3425 11150 30208 40224 57034;
0099042280999992000011815004+67780-053970FM-12+001299999V0203401N011319999999N9999999N1-01381+99999101941ADDMA1999999101791MD1710281+9999REMSYN058    AAXX  18154 04228 46/// /3422 11138 30179 40194 57028;
0099042280999992000011818004+67780-053970FM-12+001299999V0203301N012919999999N9999999N1-01451+99999101801ADDMA1999999101641MD1710141+9999REMSYN058    AAXX  18184 04228 46/// /3325 11145 30164 40180 57014;
0099042280999992000011821004+67780-053970FM-12+001299999V0203301N010819999999N9999999N1-01531+99999102091ADDMA1999999101931MD1210291+9999REMSYN058    AAXX  18214 04228 46/// /3321 11153 30193 40209 52029;
0079042280999992000011903004+67780-053970FM-12+001299999V0203401N008219999999N9999999N1-01431+99999102101ADDMA1999999101961REMSYN052    AAXX  19034 04228 46/// /3416 11143 30196 40210;
0099042280999992000011906004+67780-053970FM-12+001299999V0203501N009819999999N9999999N1-01271+99999101891ADDMA1999999101741MD1710211+9999REMSYN058    AAXX  19064 04228 46/// /3519 11127 30174 40189 57021;
0099042280999992000011909004+67780-053970FM-12+001299999V0200601N009319999999N9999999N1-01221+99999101871ADDMA1999999101721MD1710011+9999REMSYN058    AAXX  19094 04228 46/// /0618 11122 30172 40187 57001;
0099042280999992000011912004+67780-053970FM-12+001299999V0203401N010319999999N9999999N1-01181+99999101721ADDMA1999999101581MD1710131+9999REMSYN058    AAXX  19124 04228 46/// /3420 11118 30158 40172 57013;
0099042280999992000011915004+67780-053970FM-12+001299999V0200501N009819999999N9999999N1-01091+99999101621ADDMA1999999101481MD1710091+9999REMSYN058    AAXX  19154 04228 46/// /0519 11109 30148 40162 57009;
0095042280999992000011918004+67780-053970FM-12+001299999V0200201N013419999999N9999999N1-01181+99999101041ADDMA1999999100891MD1710581+9999REMSYN054AAXX  19184 04228 46/// /0226 11118 30089 40104 57058;
0095042280999992000011921004+67780-053970FM-12+001299999V0200501N010819999999N9999999N1-01071+99999100541ADDMA1999999100391MD1710491+9999REMSYN054AAXX  19214 04228 46/// /0521 11107 30039 40054 57049;
0095042280999992000012000004+67780-053970FM-12+001299999V0200401N007719999999N9999999N1-00891+99999100141ADDMA1999999099991MD1710391+9999REMSYN054AAXX  20004 04228 46/// /0415 11089 39999 40014 57039;
0095042280999992000012003004+67780-053970FM-12+001299999V0200601N009819999999N9999999N1-00541+99999099791ADDMA1999999099651MD1710331+9999REMSYN054AAXX  20034 04228 46/// /0619 11054 39965 49979 57033;
0075042280999992000012203004+67780-053970FM-12+001299999V0201601N021119999999N9999999N1+00121+99999099571ADDMA1999999099441REMSYN048AAXX  22034 04228 46/// /1641 10012 39944 49957;
0095042280999992000012206004+67780-053970FM-12+001299999V0201701N018519999999N9999999N1-00151+99999099821ADDMA1999999099681MD1210241+9999REMSYN054AAXX  22064 04228 46/// /1736 11015 39968 49982 52024;
0095042280999992000012209004+67780-053970FM-12+001299999V0201901N030319999999N9999999N1-00071+99999100491ADDMA1999999100351MD1210671+9999REMSYN054AAXX  22094 04228 46/// /1959 11007 30035 40049 52067;
0130042280999992000012212004+67780-053970FM-12+001299999V0202201N017019999999N9999999N1-00321+99999101472ADDMA1999999101322MD1210971+9999REMSYN054AAXX  22124 04228 46/// /2233 11032 30132 40147 52097;EQDQ01+101323APOSP Q02+101473APOSLP
0095042280999992000012215004+67780-053970FM-12+001299999V0203501N002119999999N9999999N1-00441+99999101821ADDMA1999999101671MD1210351+9999REMSYN054AAXX  22154 04228 46/// /3504 11044 30167 40182 52035;
0146042280999992000012221004+67780-053970FM-12+001299999V0200701N008219999999N9999999N1-00251+99999100972ADDMA1999999100842MD1710512+9999REMSYN054AAXX  22214 04228 46/// /0716 11025 30084 40097 57051;EQDQ01+100843APOSP Q02+100973APOSLPQ03+000512APC3  
0075042280999992000012306004+67780-053970FM-12+001299999V0200901N009819999999N9999999N1+00181+99999099451ADDMA1999999099321REMSYN048AAXX  23064 04228 46/// /0919 10018 39932 49945;
0095042280999992000012309004+67780-053970FM-12+001299999V0200601N007219999999N9999999N1+00261+99999098891ADDMA1999999098751MD1710561+9999REMSYN054AAXX  23094 04228 46/// /0614 10026 39875 49889 57056;
0095042280999992000012312004+67780-053970FM-12+001299999V0200901N005719999999N9999999N1+00221+99999098471ADDMA1999999098331MD1710411+9999REMSYN054AAXX  23124 04228 46/// /0911 10022 39833 49847 57041;
0075042280999992000012615004+67780-053970FM-12+001299999V0201901N014919999999N9999999N1-00711+99999101171ADDMA1999999101021REMSYN048AAXX  26154 04228 46/// /1929 11071 30102 40117;
0095042280999992000012618004+67780-053970FM-12+001299999V0202001N012919999999N9999999N1-00991+99999101321ADDMA1999999101181MD1210161+9999REMSYN054AAXX  26184 04228 46/// /2025 11099 30118 40132 52016;
0075042280999992000012909004+67780-053970FM-12+001299999V0200701N003619999999N9999999N1-01141+99999099151ADDMA1999999099011REMSYN048AAXX  29094 04228 46/// /0707 11114 39901 49915;
0095042280999992000012912004+67780-053970FM-12+001299999V0200701N003619999999N9999999N1-01141+99999099121ADDMA1999999098971MD1710031+9999REMSYN054AAXX  29124 04228 46/// /0707 11114 39897 49912 57003;
0095042280999992000012918004+67780-053970FM-12+001299999V0201001N002119999999N9999999N1-01251+99999098891ADDMA1999999098741MD1710181+9999REMSYN054AAXX  29184 04228 46/// /1004 11125 39874 49889 57018;
0095042280999992000012921004+67780-053970FM-12+001299999V0200801N004119999999N9999999N1-01201+99999098751ADDMA1999999098611MD1710121+9999REMSYN054AAXX  29214 04228 46/// /0808 11120 39861 49875 57012;
0075042280999992000013006004+67780-053970FM-12+001299999V0200701N006219999999N9999999N1-01081+99999098051ADDMA1999999097911REMSYN048AAXX  30064 04228 46/// /0712 11108 39791 49805;
0095042280999992000013009004+67780-053970FM-12+001299999V0200301N008719999999N9999999N1-01161+99999097971ADDMA1999999097821MD1710081+9999REMSYN054AAXX  30094 04228 46/// /0317 11116 39782 49797 57008;
0095042280999992000013012004+67780-053970FM-12+001299999V0200301N010319999999N9999999N1-01111+99999097991ADDMA1999999097841MD1210021+9999REMSYN054AAXX  30124 04228 46/// /0320 11111 39784 49799 52002;
0095042280999992000013015004+67780-053970FM-12+001299999V0200501N008719999999N9999999N1-01121+99999098051ADDMA1999999097921MD1210081+9999REMSYN054AAXX  30154 04228 46/// /0517 11112 39792 49805 52008;
0095042280999992000013018004+67780-053970FM-12+001299999V0203201N014419999999N9999999N1-01171+99999098041ADDMA1999999097891MD1710021+9999REMSYN054AAXX  30184 04228 46/// /3228 11117 39789 49804 57002;
0095042280999992000013021004+67780-053970FM-12+001299999V0203201N012919999999N9999999N1-01361+99999098321ADDMA1999999098191MD1210301+9999REMSYN054AAXX  30214 04228 46/// /3225 11136 39819 49832 52030;
0075042280999992000013106004+67780-053970FM-12+001299999V0203201N007219999999N9999999N1-01661+99999098901ADDMA1999999098751REMSYN048AAXX  31064 04228 46/// /3214 11166 39875 49890;
0095042280999992000013109004+67780-053970FM-12+001299999V0203001N007719999999N9999999N1-01761+99999099051ADDMA1999999098911MD1210161+9999REMSYN054AAXX  31094 04228 46/// /3015 11176 39891 49905 52016;
0095042280999992000013112004+67780-053970FM-12+001299999V0203001N006219999999N9999999N1-01901+99999099391ADDMA1999999099231MD1210321+9999REMSYN054AAXX  31124 04228 46/// /3012 11190 39923 49939 52032;
0095042280999992000013115004+67780-053970FM-12+001299999V0202901N004619999999N9999999N1-01951+99999099471ADDMA1999999099321MD1210091+9999REMSYN054AAXX  31154 04228 46/// /2909 11195 39932 49947 52009;
0095042280999992000013118004+67780-053970FM-12+001299999V0202901N005119999999N9999999N1-02001+99999099721ADDMA1999999099561MD1210241+9999REMSYN054AAXX  31184 04228 46/// /2910 11200 39956 49972 52024;
0095042280999992000013121004+67780-053970FM-12+001299999V0202601N004619999999N9999999N1-02061+99999100041ADDMA1999999099881MD1210321+9999REMSYN054AAXX  31214 04228 46/// /2609 11206 39988 40004 52032;
0075042280999992000020106004+67780-053970FM-12+001299999V0202301N004119999999N9999999N1-02071+99999100691ADDMA1999999100541REMSYN048AAXX  01064 04228 46/// /2308 11207 30054 40069;
0095042280999992000020109004+67780-053970FM-12+001299999V0202601N005119999999N9999999N1-02061+99999100871ADDMA1999999100731MD1210191+9999REMSYN054AAXX  01094 04228 46/// /2610 11206 30073 40087 52019;
0095042280999992000020112004+67780-053970FM-12+001299999V0202701N003619999999N9999999N1-02051+99999101021ADDMA1999999100871MD1210141+9999REMSYN054AAXX  01124 04228 46/// /2707 11205 30087 40102 52014;
0095042280999992000020115004+67780-053970FM-12+001299999V0202001N002619999999N9999999N1-02031+99999101171ADDMA1999999101031MD1210161+9999REMSYN054AAXX  01154 04228 46/// /2005 11203 30103 40117 52016;
0095042280999992000020118004+67780-053970FM-12+001299999V0202501N002119999999N9999999N1-02011+99999101221ADDMA1999999101071MD1210041+9999REMSYN054AAXX  01184 04228 46/// /2504 11201 30107 40122 52004;
0095042280999992000020121004+67780-053970FM-12+001299999V0202201N002119999999N9999999N1-02001+99999101321ADDMA1999999101171MD1210101+9999REMSYN054AAXX  01214 04228 46/// /2204 11200 30117 40132 52010;
0075042280999992000020203004+67780-053970FM-12+001299999V0200601N004619999999N9999999N1-02011+99999101201ADDMA1999999101051REMSYN048AAXX  02034 04228 46/// /0609 11201 30105 40120;
0095042280999992000020206004+67780-053970FM-12+001299999V0200501N006219999999N9999999N1-02081+99999101021ADDMA1999999100871MD1710171+9999REMSYN054AAXX  02064 04228 46/// /0512 11208 30087 40102 57017;
0095042280999992000020209004+67780-053970FM-12+001299999V0200301N007219999999N9999999N1-02031+99999100771ADDMA1999999100631MD1710231+9999REMSYN054AAXX  02094 04228 46/// /0314 11203 30063 40077 57023;
0095042280999992000020212004+67780-053970FM-12+001299999V0200201N009319999999N9999999N1-02031+99999100571ADDMA1999999100431MD1710191+9999REMSYN054AAXX  02124 04228 46/// /0218 11203 30043 40057 57019;
0095042280999992000020215004+67780-053970FM-12+001299999V0200401N006719999999N9999999N1-01911+99999100521ADDMA1999999100361MD1710061+9999REMSYN054AAXX  02154 04228 46/// /0413 11191 30036 40052 57006;
0095042280999992000020218004+67780-053970FM-12+001299999V0201001N002619999999N9999999N1-01841+99999100441ADDMA1999999100291MD1710061+9999REMSYN054AAXX  02184 04228 46/// /1005 11184 30029 40044 57006;
0075042280999992000020303004+67780-053970FM-12+001299999V0200701N002119999999N9999999N1-01711+99999100441ADDMA1999999100291REMSYN048AAXX  03034 04228 46/// /0704 11171 30029 40044;
0095042280999992000020306004+67780-053970FM-12+001299999V0200401N003619999999N9999999N1-01691+99999100301ADDMA1999999100161MD1710121+9999REMSYN054AAXX  03064 04228 46/// /0407 11169 30016 40030 57012;
0095042280999992000020309004+67780-053970FM-12+001299999V0200501N004119999999N9999999N1-01851+99999100341ADDMA1999999100191MD1210031+9999REMSYN054AAXX  03094 04228 46/// /0508 11185 30019 40034 52003;
0095042280999992000020312004+67780-053970FM-12+001299999V0200501N004119999999N9999999N1-01891+99999100271ADDMA1999999100121MD1710061+9999REMSYN054AAXX  03124 04228 46/// /0508 11189 30012 40027 57006;
0095042280999992000020315004+67780-053970FM-12+001299999V0200201N004119999999N9999999N1-02061+99999100151ADDMA1999999099991MD1710121+9999REMSYN054AAXX  03154 04228 46/// /0208 11206 39999 40015 57012;
0095042280999992000020318004+67780-053970FM-12+001299999V0200301N003619999999N9999999N1-02171+99999099871ADDMA1999999099731MD1710251+9999REMSYN054AAXX  03184 04228 46/// /0307 11217 39973 49987 57025;
0095042280999992000020321004+67780-053970FM-12+001299999V0200201N003619999999N9999999N1-02191+99999099691ADDMA1999999099531MD1710191+9999REMSYN054AAXX  03214 04228 46/// /0207 11219 39953 49969 57019;
0075042280999992000020403004+67780-053970FM-12+001299999V0200501N004619999999N9999999N1-02231+99999098971ADDMA1999999098821REMSYN048AAXX  04034 04228 46/// /0509 11223 39882 49897;
0095042280999992000020406004+67780-053970FM-12+001299999V0200201N003619999999N9999999N1-02071+99999098571ADDMA1999999098431MD1710381+9999REMSYN054AAXX  04064 04228 46/// /0207 11207 39843 49857 57038;
0095042280999992000020409004+67780-053970FM-12+001299999V0200201N004119999999N9999999N1-02071+99999098351ADDMA1999999098201MD1710221+9999REMSYN054AAXX  04094 04228 46/// /0208 11207 39820 49835 57022;
0095042280999992000020412004+67780-053970FM-12+001299999V0200301N003119999999N9999999N1-02011+99999098201ADDMA1999999098051MD1710141+9999REMSYN054AAXX  04124 04228 46/// /0306 11201 39805 49820 57014;
0116042280999992000020712004+67780-053970FM-12+001299999V0200301N009319999999N9999999N1-01471+99999097551ADDMA1999999097401REMSYN054AAXX  07124 04228 46/// /0318 11147 39740 49755 52000;EQDQ01+000022APCTENQ02+000002APC3  
0095042280999992000020718004+67780-053970FM-12+001299999V0200601N007219999999N9999999N1-01461+99999097621ADDMA1999999097481MD1210041+9999REMSYN054AAXX  07184 04228 46/// /0614 11146 39748 49762 52004;
0095042280999992000020721004+67780-053970FM-12+001299999V0200401N006719999999N9999999N1-01451+99999097751ADDMA1999999097601MD1210121+9999REMSYN054AAXX  07214 04228 46/// /0413 11145 39760 49775 52012;
0075042280999992000020806004+67780-053970FM-12+001299999V0203201N006719999999N9999999N1-01361+99999097941ADDMA1999999097791REMSYN048AAXX  08064 04228 46/// /3213 11136 39779 49794;
0101042280999992000020809004+67780-053970FM-12+001299999V0203201N007719999999N9999999N1-01351-01391097891ADDMA1999999097741MD1710041+9999REMSYN060AAXX  08094 04228 46/// /3215 11135 21139 39774 49789 57004;
0101042280999992000020812004+67780-053970FM-12+001299999V0203401N007719999999N9999999N1-01401-01441097841ADDMA1999999097701MD1710031+9999REMSYN060AAXX  08124 04228 46/// /3415 11140 21144 39770 49784 57003;
0101042280999992000020815004+67780-053970FM-12+001299999V0203301N006719999999N9999999N1-01461-01501097801ADDMA1999999097651MD1710041+9999REMSYN060AAXX  08154 04228 46/// /3313 11146 21150 39765 49780 57004;
0101042280999992000020818004+67780-053970FM-12+001299999V0203201N006719999999N9999999N1-01571-01611097541ADDMA1999999097401MD1710241+9999REMSYN060AAXX  08184 04228 46/// /3213 11157 21161 39740 49754 57024;
0101042280999992000020821004+67780-053970FM-12+001299999V0203201N005719999999N9999999N1-01541-01571097341ADDMA1999999097191MD1710201+9999REMSYN060AAXX  08214 04228 46/// /3211 11154 21157 39719 49734 57020;
0081042280999992000020903004+67780-053970FM-12+001299999V0202701N004619999999N9999999N1-01431-01471096991ADDMA1999999096841REMSYN054AAXX  09034 04228 46/// /2709 11143 21147 39684 49699;
0101042280999992000020906004+67780-053970FM-12+001299999V0202801N005719999999N9999999N1-01561-01601097201ADDMA1999999097051MD1210211+9999REMSYN060AAXX  09064 04228 46/// /2811 11156 21160 39705 49720 52021;
0101042280999992000020909004+67780-053970FM-12+001299999V0202801N005719999999N9999999N1-01821-01861097501ADDMA1999999097361MD1210311+9999REMSYN060AAXX  09094 04228 46/// /2811 11182 21186 39736 49750 52031;
0101042280999992000020915004+67780-053970FM-12+001299999V0202101N003619999999N9999999N1-01801-01841097751ADDMA1999999097611MD1210091+9999REMSYN060AAXX  09154 04228 46/// /2107 11180 21184 39761 49775 52009;
0101042280999992000020921004+67780-053970FM-12+001299999V0202101N001019999999N9999999N1-01871-01911098021ADDMA1999999097881MD1210171+9999REMSYN060AAXX  09214 04228 46/// /2102 11187 21191 39788 49802 52017;
0081042280999992000021006004+67780-053970FM-12+001299999V0200401N003619999999N9999999N1-01821-01861098151ADDMA1999999098001REMSYN054AAXX  10064 04228 46/// /0407 11182 21186 39800 49815;
0101042280999992000021009004+67780-053970FM-12+001299999V0200101N003619999999N9999999N1-01721-01761097951ADDMA1999999097811MD1710181+9999REMSYN060AAXX  10094 04228 46/// /0107 11172 21176 39781 49795 57018;
0101042280999992000021012004+67780-053970FM-12+001299999V0200301N003119999999N9999999N1-01541-01581097801ADDMA1999999097671MD1710131+9999REMSYN060AAXX  10124 04228 46/// /0306 11154 21158 39767 49780 57013;
0101042280999992000021018004+67780-053970FM-12+001299999V0203201N005119999999N9999999N1-01221-01261097451ADDMA1999999097311MD1710161+9999REMSYN060AAXX  10184 04228 46/// /3210 11122 21126 39731 49745 57016;
0101042280999992000021021004+67780-053970FM-12+001299999V0202201N002619999999N9999999N1-01261-01301097501ADDMA1999999097371MD1210061+9999REMSYN060AAXX  10214 04228 46/// /2205 11126 21130 39737 49750 52006;
0101042280999992000021100004+67780-053970FM-12+001299999V0202801N007719999999N9999999N1-01451-01501097641ADDMA1999999097491MD1210121+9999REMSYN060AAXX  11004 04228 46/// /2815 11145 21150 39749 49764 52012;
0101042280999992000021106004+67780-053970FM-12+001299999V0202401N005719999999N9999999N1-01771-01811098201ADDMA1999999098051MD1210291+9999REMSYN060AAXX  11064 04228 46/// /2411 11177 21181 39805 49820 52029;
0101042280999992000021109004+67780-053970FM-12+001299999V0202301N006219999999N9999999N1-01871-01911098601ADDMA1999999098461MD1210411+9999REMSYN060AAXX  11094 04228 46/// /2312 11187 21191 39846 49860 52041;
0101042280999992000021112004+67780-053970FM-12+001299999V0202201N006219999999N9999999N1-01911-01971098971ADDMA1999999098831MD1210371+9999REMSYN060AAXX  11124 04228 46/// /2212 11191 21197 39883 49897 52037;
0101042280999992000021115004+67780-053970FM-12+001299999V0202201N006219999999N9999999N1-01881-01951099501ADDMA1999999099351MD1210521+9999REMSYN060AAXX  11154 04228 46/// /2212 11188 21195 39935 49950 52052;
0101042280999992000021118004+67780-053970FM-12+001299999V0202201N006219999999N9999999N1-01911-01991099921ADDMA1999999099781MD1210431+9999REMSYN060AAXX  11184 04228 46/// /2212 11191 21199 39978 49992 52043;
0101042280999992000021121004+67780-053970FM-12+001299999V0202001N005719999999N9999999N1-01821-01891100291ADDMA1999999100131MD1210351+9999REMSYN060AAXX  11214 04228 46/// /2011 11182 21189 30013 40029 52035;
0081042280999992000021206004+67780-053970FM-12+001299999V0200601N002619999999N9999999N1-01681-01741100701ADDMA1999999100551REMSYN054AAXX  12064 04228 46/// /0605 11168 21174 30055 40070;
0068042280999992000021209004+67780-053970FM-12+001299999V0200601N002619999999N9999999N1-01761-01821999999REMSYN059AAXX  12094 04228 46/// /0605 11176 21182 3005 40075 52004;
0101042280999992000021212004+67780-053970FM-12+001299999V0200701N001519999999N9999999N1-01701-01761100791ADDMA1999999100641MD1210051+9999REMSYN060AAXX  12124 04228 46/// /0703 11170 21176 30064 40079 52005;
0101042280999992000021215004+67780-053970FM-12+001299999V0200801N001519999999N9999999N1-01651-01711100871ADDMA1999999100711MD1210071+9999REMSYN060AAXX  12154 04228 46/// /0803 11165 21171 30071 40087 52007;
0101042280999992000021218004+67780-053970FM-12+001299999V0202501N002619999999N9999999N1-01511-01591100921ADDMA1999999100771MD1210061+9999REMSYN060AAXX  12184 04228 46/// /2505 11151 21159 30077 40092 52006;
0101042280999992000021221004+67780-053970FM-12+001299999V0203201N002619999999N9999999N1-01771-01811100901ADDMA1999999100741MD1710021+9999REMSYN060AAXX  12214 04228 46/// /3205 11177 21181 30074 40090 57002;
0081042280999992000021303004+67780-053970FM-12+001299999V0200401N004619999999N9999999N1-01751-01801100551ADDMA1999999100401REMSYN054AAXX  13034 04228 46/// /0409 11175 21180 30040 40055;
0101042280999992000021306004+67780-053970FM-12+001299999V0200401N007219999999N9999999N1-01901-01941100171ADDMA1999999100031MD1710361+9999REMSYN060AAXX  13064 04228 46/// /0414 11190 21194 30003 40017 57036;
0101042280999992000021309004+67780-053970FM-12+001299999V0200501N008219999999N9999999N1-01781-01831099851ADDMA1999999099701MD1710321+9999REMSYN060AAXX  13094 04228 46/// /0516 11178 21183 39970 49985 57032;
0101042280999992000021312004+67780-053970FM-12+001299999V0200301N006219999999N9999999N1-01891-01981099691ADDMA1999999099531MD1710161+9999REMSYN060AAXX  13124 04228 46/// /0312 11189 21198 39953 49969 57016;
0101042280999992000021315004+67780-053970FM-12+001299999V0200301N006219999999N9999999N1-01791-01851099471ADDMA1999999099331MD1710191+9999REMSYN060AAXX  13154 04228 46/// /0312 11179 21185 39933 49947 57019;
0101042280999992000021318004+67780-053970FM-12+001299999V0200501N005719999999N9999999N1-01861-01921099401ADDMA1999999099251MD1710071+9999REMSYN060AAXX  13184 04228 46/// /0511 11186 21192 39925 49940 57007;
0101042280999992000021321004+67780-053970FM-12+001299999V0200201N005119999999N9999999N1-01881-01981099371ADDMA1999999099221MD1710021+9999REMSYN060AAXX  13214 04228 46/// /0210 11188 21198 39922 49937 57002;
0081042280999992000021403004+67780-053970FM-12+001299999V0200401N005719999999N9999999N1-01941-01971099441ADDMA1999999099291REMSYN054AAXX  14034 04228 46/// /0411 11194 21197 39929 49944;
0101042280999992000021406004+67780-053970FM-12+001299999V0200501N006219999999N9999999N1-01871-01911099371ADDMA1999999099231MD1710051+9999REMSYN060AAXX  14064 04228 46/// /0512 11187 21191 39923 49937 57005;
0101042280999992000021409004+67780-053970FM-12+001299999V0200501N002619999999N9999999N1-01721-01921099591ADDMA1999999099441MD1210211+9999REMSYN060AAXX  14094 04228 46/// /0505 11172 21192 39944 49959 52021;
0101042280999992000021415004+67780-053970FM-12+001299999V0203101N004619999999N9999999N1-01621-01681099971ADDMA1999999099811MD1210171+9999REMSYN060AAXX  14154 04228 46/// /3109 11162 21168 39981 49997 52017;
0101042280999992000021418004+67780-053970FM-12+001299999V0202801N004619999999N9999999N1-01761-01801100141ADDMA1999999099991MD1210181+9999REMSYN060AAXX  14184 04228 46/// /2809 11176 21180 39999 40014 52018;
0101042280999992000021421004+67780-053970FM-12+001299999V0202901N005119999999N9999999N1-01801-01841100351ADDMA1999999100211MD1210221+9999REMSYN060AAXX  14214 04228 46/// /2910 11180 21184 30021 40035 52022;
0081042280999992000021503004+67780-053970FM-12+001299999V0203001N004619999999N9999999N1-01851-01891100901ADDMA1999999100751REMSYN054AAXX  15034 04228 46/// /3009 11185 21189 30075 40090;
0101042280999992000021506004+67780-053970FM-12+001299999V0202401N004619999999N9999999N1-01941-01971101291ADDMA1999999101131MD1210381+9999REMSYN060AAXX  15064 04228 46/// /2409 11194 21197 30113 40129 52038;
0101042280999992000021509004+67780-053970FM-12+001299999V0202601N004619999999N9999999N1-02001-02041101641ADDMA1999999101481MD1210351+9999REMSYN060AAXX  15094 04228 46/// /2609 11200 21204 30148 40164 52035;
0101042280999992000021512004+67780-053970FM-12+001299999V0202401N003119999999N9999999N1-02071-02111101901ADDMA1999999101751MD1210271+9999REMSYN060AAXX  15124 04228 46/// /2406 11207 21211 30175 40190 52027;
0101042280999992000021515004+67780-053970FM-12+001299999V0202701N002119999999N9999999N1-02021-02051102251ADDMA1999999102101MD1210351+9999REMSYN060AAXX  15154 04228 46/// /2704 11202 21205 30210 40225 52035;
0101042280999992000021521004+67780-053970FM-12+001299999V0202501N002119999999N9999999N1-01971-02021102561ADDMA1999999102411MD1210091+9999REMSYN060AAXX  15214 04228 46/// /2504 11197 21202 30241 40256 52009;
0101042280999992000021600004+67780-053970FM-12+001299999V0201601N002619999999N9999999N1-01991-02041102501ADDMA1999999102351MD1710051+9999REMSYN060AAXX  16004 04228 46/// /1605 11199 21204 30235 40250 57005;
0101042280999992000021603004+67780-053970FM-12+001299999V0203201N003119999999N9999999N1-02081-02121102401ADDMA1999999102251MD1710091+9999REMSYN060AAXX  16034 04228 46/// /3206 11208 21212 30225 40240 57009;
0101042280999992000021606004+67780-053970FM-12+001299999V0200301N006219999999N9999999N1-02091-02141102101ADDMA1999999101951MD1710291+9999REMSYN060AAXX  16064 04228 46/// /0312 11209 21214 30195 40210 57029;
0101042280999992000021609004+67780-053970FM-12+001299999V0200401N006719999999N9999999N1-01991-02041101791ADDMA1999999101641MD1710301+9999REMSYN060AAXX  16094 04228 46/// /0413 11199 21204 30164 40179 57030;
0101042280999992000021612004+67780-053970FM-12+001299999V0200301N005119999999N9999999N1-02041-02081101551ADDMA1999999101411MD1710221+9999REMSYN060AAXX  16124 04228 46/// /0310 11204 21208 30141 40155 57022;
0101042280999992000021618004+67780-053970FM-12+001299999V0203401N006219999999N9999999N1-01691-01751101151ADDMA1999999101001MD1710191+9999REMSYN060AAXX  16184 04228 46/// /3412 11169 21175 30100 40115 57019;
0101042280999992000021621004+67780-053970FM-12+001299999V0203501N004619999999N9999999N1-01751-01801101171ADDMA1999999101011MD1210011+9999REMSYN060AAXX  16214 04228 46/// /3509 11175 21180 30101 40117 52001;
0081042280999992000021703004+67780-053970FM-12+001299999V0200401N006219999999N9999999N1-01971-02021100851ADDMA1999999100701REMSYN054AAXX  17034 04228 46/// /0412 11197 21202 30070 40085;
0101042280999992000021706004+67780-053970FM-12+001299999V0200201N008219999999N9999999N1-01941-01971100601ADDMA1999999100451MD1710241+9999REMSYN060AAXX  17064 04228 46/// /0216 11194 21197 30045 40060 57024;
0101042280999992000021709004+67780-053970FM-12+001299999V0200401N006219999999N9999999N1-01901-01941100551ADDMA1999999100411MD1710031+9999REMSYN060AAXX  17094 04228 46/// /0412 11190 21194 30041 40055 57003;
0101042280999992000021712004+67780-053970FM-12+001299999V0200501N006219999999N9999999N1-01721-01761100491ADDMA1999999100341MD1710061+9999REMSYN060AAXX  17124 04228 46/// /0512 11172 21176 30034 40049 57006;
0101042280999992000021715004+67780-053970FM-12+001299999V0200201N007219999999N9999999N1-01711-01741100401ADDMA1999999100251MD1710081+9999REMSYN060AAXX  17154 04228 46/// /0214 11171 21174 30025 40040 57008;
0101042280999992000021718004+67780-053970FM-12+001299999V0200201N007719999999N9999999N1-01521-01571100091ADDMA1999999099941MD1710301+9999REMSYN060AAXX  17184 04228 46/// /0215 11152 21157 39994 40009 57030;
0081042280999992000022606004+67780-053970FM-12+001299999V0203401N003619999999N9999999N1-01991-02041101171ADDMA1999999101031REMSYN054AAXX  26064 04228 46/// /3407 11199 21204 30103 40117;
0101042280999992000022609004+67780-053970FM-12+001299999V0203301N004119999999N9999999N1-02071-02121101171ADDMA1999999101031MD1410001+9999REMSYN060AAXX  26094 04228 46/// /3308 11207 21212 30103 40117 54000;
0101042280999992000022612004+67780-053970FM-12+001299999V0200101N003119999999N9999999N1-02041-02091101121ADDMA1999999100971MD1710051+9999REMSYN060AAXX  26124 04228 46/// /0106 11204 21209 30097 40112 57005;
0101042280999992000022615004+67780-053970FM-12+001299999V0203101N001519999999N9999999N1-01851-01901101021ADDMA1999999100861MD1710101+9999REMSYN060AAXX  26154 04228 46/// /3103 11185 21190 30086 40102 57010;
0101042280999992000022618004+67780-053970FM-12+001299999V0203501N005119999999N9999999N1-01681-01731100891ADDMA1999999100731MD1710121+9999REMSYN060AAXX  26184 04228 46/// /3510 11168 21173 30073 40089 57012;
0101042280999992000022621004+67780-053970FM-12+001299999V0200401N002619999999N9999999N1-01631-01681100751ADDMA1999999100611MD1710111+9999REMSYN060AAXX  26214 04228 46/// /0405 11163 21168 30061 40075 57011;
0081042280999992000022703004+67780-053970FM-12+001299999V0200801N004119999999N9999999N1-01741-01791100521ADDMA1999999100381REMSYN054AAXX  27034 04228 46/// /0808 11174 21179 30038 40052;
0101042280999992000022706004+67780-053970FM-12+001299999V0200501N003119999999N9999999N1-01681-01751100271ADDMA1999999100131MD1710241+9999REMSYN060AAXX  27064 04228 46/// /0506 11168 21175 30013 40027 57024;
0101042280999992000022709004+67780-053970FM-12+001299999V0200601N005719999999N9999999N1-01621-01691100121ADDMA1999999099971MD1710151+9999REMSYN060AAXX  27094 04228 46/// /0611 11162 21169 39997 40012 57015;
0101042280999992000022712004+67780-053970FM-12+001299999V0200601N006719999999N9999999N1-01631-01691099941ADDMA1999999099781MD1710181+9999REMSYN060AAXX  27124 04228 46/// /0613 11163 21169 39978 49994 57018;
0101042280999992000022715004+67780-053970FM-12+001299999V0200201N005719999999N9999999N1-01631-01701099671ADDMA1999999099531MD1710241+9999REMSYN060AAXX  27154 04228 46/// /0211 11163 21170 39953 49967 57024;
0101042280999992000022718004+67780-053970FM-12+001299999V0200201N003619999999N9999999N1-01631-01701099591ADDMA1999999099441MD1710081+9999REMSYN060AAXX  27184 04228 46/// /0207 11163 21170 39944 49959 57008;
0101042280999992000022721004+67780-053970FM-12+001299999V0200201N004619999999N9999999N1-01601-01671099541ADDMA1999999099391MD1710041+9999REMSYN060AAXX  27214 04228 46/// /0209 11160 21167 39939 49954 57004;
0101042280999992000022809004+67780-053970FM-12+001299999V0203201N005119999999N9999999N1-01761-01811099891ADDMA1999999099741MD1210241+9999REMSYN060AAXX  28094 04228 46/// /3210 11176 21181 39974 49989 52024;
0101042280999992000022812004+67780-053970FM-12+001299999V0203401N003619999999N9999999N1-01731-01771100121ADDMA1999999099971MD1210231+9999REMSYN060AAXX  28124 04228 46/// /3407 11173 21177 39997 40012 52023;
0101042280999992000022815004+67780-053970FM-12+001299999V0200201N002619999999N9999999N1-01711-01761100301ADDMA1999999100161MD1210191+9999REMSYN060AAXX  28154 04228 46/// /0205 11171 21176 30016 40030 52019;
0101042280999992000022818004+67780-053970FM-12+001299999V0200501N006219999999N9999999N1-01661-01711100421ADDMA1999999100281MD1210121+9999REMSYN060AAXX  28184 04228 46/// /0512 11166 21171 30028 40042 52012;
0101042280999992000022821004+67780-053970FM-12+001299999V0200401N008219999999N9999999N1-01721-01781100521ADDMA1999999100371MD1210091+9999REMSYN060AAXX  28214 04228 46/// /0416 11172 21178 30037 40052 52009;
0101042280999992000022900004+67780-053970FM-12+001299999V0200401N008219999999N9999999N1-01711-01761100521ADDMA1999999100381MD1210011+9999REMSYN060AAXX  29004 04228 46/// /0416 11171 21176 30038 40052 52001;
0101042280999992000022903004+67780-053970FM-12+001299999V0200301N007719999999N9999999N1-01621-01681100491ADDMA1999999100341MD1710031+9999REMSYN060AAXX  29034 04228 46/// /0315 11162 21168 30034 40049 57003;
0101042280999992000022906004+67780-053970FM-12+001299999V0200401N003619999999N9999999N1-01551-01611100571ADDMA1999999100411MD1210071+9999REMSYN060AAXX  29064 04228 46/// /0407 11155 21161 30041 40057 52007;
0101042280999992000022909004+67780-053970FM-12+001299999V0200901N001519999999N9999999N1-01361-01431100801ADDMA1999999100651MD1210241+9999REMSYN060AAXX  29094 04228 46/// /0903 11136 21143 30065 40080 52024;
0101042280999992000022912004+67780-053970FM-12+001299999V0202201N003619999999N9999999N1-01271-01331101021ADDMA1999999100871MD1210221+9999REMSYN060AAXX  29124 04228 46/// /2207 11127 21133 30087 40102 52022;
0101042280999992000022915004+67780-053970FM-12+001299999V0202101N005719999999N9999999N1-01271-01341101201ADDMA1999999101051MD1210181+9999REMSYN060AAXX  29154 04228 46/// /2111 11127 21134 30105 40120 52018;
0101042280999992000022918004+67780-053970FM-12+001299999V0202101N003119999999N9999999N1-01281-01351101251ADDMA1999999101111MD1210061+9999REMSYN060AAXX  29184 04228 46/// /2106 11128 21135 30111 40125 52006;
0101042280999992000022921004+67780-053970FM-12+001299999V0202401N001019999999N9999999N1-01291-01361101291ADDMA1999999101141MD1210031+9999REMSYN060AAXX  29214 04228 46/// /2402 11129 21136 30114 40129 52003;
0081042280999992000030103004+67780-053970FM-12+001299999V0202701N004619999999N9999999N1-01641-01691101401ADDMA1999999101251REMSYN054AAXX  01034 04228 46/// /2709 11164 21169 30125 40140;
0101042280999992000030106004+67780-053970FM-12+001299999V0202701N003119999999N9999999N1-01861-01891101551ADDMA1999999101411MD1210161+9999REMSYN060AAXX  01064 04228 46/// /2706 11186 21189 30141 40155 52016;
0101042280999992000030112004+67780-053970FM-12+001299999V0202201N002619999999N9999999N1-02011-02061101971ADDMA1999999101811MD1210191+9999REMSYN060AAXX  01124 04228 46/// /2205 11201 21206 30181 40197 52019;
0101042280999992000030115004+67780-053970FM-12+001299999V0202001N003119999999N9999999N1-01791-01821102121ADDMA1999999101961MD1210151+9999REMSYN060AAXX  01154 04228 46/// /2006 11179 21182 30196 40212 52015;
0101042280999992000030118004+67780-053970FM-12+001299999V0203001N004119999999N9999999N1-01861-01921102301ADDMA1999999102151MD1210191+9999REMSYN060AAXX  01184 04228 46/// /3008 11186 21192 30215 40230 52019;
0101042280999992000030121004+67780-053970FM-12+001299999V0203301N003619999999N9999999N1-01981-02031102481ADDMA1999999102321MD1210171+9999REMSYN060AAXX  01214 04228 46/// /3307 11198 21203 30232 40248 52017;
0081042280999992000030203004+67780-053970FM-12+001299999V0200301N006219999999N9999999N1-02191-02231102411ADDMA1999999102261REMSYN054AAXX  02034 04228 46/// /0312 11219 21223 30226 40241;
0101042280999992000030206004+67780-053970FM-12+001299999V0200301N005719999999N9999999N1-02181-02221102351ADDMA1999999102201MD1710051+9999REMSYN060AAXX  02064 04228 46/// /0311 11218 21222 30220 40235 57005;
0101042280999992000030209004+67780-053970FM-12+001299999V0200301N007719999999N9999999N1-01871-01921102141ADDMA1999999101981MD1710211+9999REMSYN060AAXX  02094 04228 46/// /0315 11187 21192 30198 40214 57021;
0101042280999992000030212004+67780-053970FM-12+001299999V0200401N007719999999N9999999N1-01901-01951102001ADDMA1999999101841MD1710131+9999REMSYN060AAXX  02124 04228 46/// /0415 11190 21195 30184 40200 57013;
0101042280999992000030215004+67780-053970FM-12+001299999V0200501N007719999999N9999999N1-01801-01851101841ADDMA1999999101691MD1710141+9999REMSYN060AAXX  02154 04228 46/// /0515 11180 21185 30169 40184 57014;
0101042280999992000030221004+67780-053970FM-12+001299999V0200301N007719999999N9999999N1-01611-01661101451ADDMA1999999101301MD1710191+9999REMSYN060AAXX  02214 04228 46/// /0315 11161 21166 30130 40145 57019;
0081042280999992000030303004+67780-053970FM-12+001299999V0200201N011319999999N9999999N1-01391-01431100621ADDMA1999999100471REMSYN054AAXX  03034 04228 46/// /0222 11139 21143 30047 40062;
0101042280999992000030306004+67780-053970FM-12+001299999V0200301N013419999999N9999999N1-01281-01331100101ADDMA1999999099951MD1710511+9999REMSYN060AAXX  03064 04228 46/// /0326 11128 21133 39995 40010 57051;
0101042280999992000030312004+67780-053970FM-12+001299999V0203301N017019999999N9999999N1-01241-01291099621ADDMA1999999099481MD1210051+9999REMSYN060AAXX  03124 04228 46/// /3333 11124 21129 39948 49962 52005;
0101042280999992000030315004+67780-053970FM-12+001299999V0202901N013419999999N9999999N1-01731-01781100221ADDMA1999999100061MD1210581+9999REMSYN060AAXX  03154 04228 46/// /2926 11173 21178 30006 40022 52058;
0101042280999992000030318004+67780-053970FM-12+001299999V0203001N010319999999N9999999N1-02001-02051100751ADDMA1999999100591MD1210531+9999REMSYN060AAXX  03184 04228 46/// /3020 11200 21205 30059 40075 52053;
0081042280999992000030403004+67780-053970FM-12+001299999V0202601N004619999999N9999999N1-02161-02231101571ADDMA1999999101421REMSYN054AAXX  04034 04228 46/// /2609 11216 21223 30142 40157;
0101042280999992000030406004+67780-053970FM-12+001299999V0202901N004119999999N9999999N1-02191-02241101771ADDMA1999999101611MD1210191+9999REMSYN060AAXX  04064 04228 46/// /2908 11219 21224 30161 40177 52019;
0101042280999992000030412004+67780-053970FM-12+001299999V0200901N001519999999N9999999N1-02191-02241102101ADDMA1999999101941MD1210181+9999REMSYN060AAXX  04124 04228 46/// /0903 11219 21224 30194 40210 52018;
0101042280999992000030415004+67780-053970FM-12+001299999V0200601N001519999999N9999999N1-02131-02191102071ADDMA1999999101921MD1710011+9999REMSYN060AAXX  04154 04228 46/// /0603 11213 21219 30192 40207 57001;
0101042280999992000030421004+67780-053970FM-12+001299999V0200701N004619999999N9999999N1-02181-02231101971ADDMA1999999101821MD1710011+9999REMSYN060AAXX  04214 04228 46/// /0709 11218 21223 30182 40197 57001;
0081042280999992000030503004+67780-053970FM-12+001299999V0200501N004619999999N9999999N1-02261-02311101821ADDMA1999999101671REMSYN054AAXX  05034 04228 46/// /0509 11226 21231 30167 40182;
0101042280999992000030506004+67780-053970FM-12+001299999V0200501N005119999999N9999999N1-02311-02371101771ADDMA1999999101631MD1710031+9999REMSYN060AAXX  05064 04228 46/// /0510 11231 21237 30163 40177 57003;
0101042280999992000030509004+67780-053970FM-12+001299999V0200501N004619999999N9999999N1-02241-02301101741ADDMA1999999101581MD1710041+9999REMSYN060AAXX  05094 04228 46/// /0509 11224 21230 30158 40174 57004;
0101042280999992000030515004+67780-053970FM-12+001299999V0200401N007219999999N9999999N1-02101-02151101641ADDMA1999999101481MD1710041+9999REMSYN060AAXX  05154 04228 46/// /0414 11210 21215 30148 40164 57004;
0101042280999992000030518004+67780-053970FM-12+001299999V0200301N007719999999N9999999N1-02041-02111101541ADDMA1999999101381MD1710091+9999REMSYN060AAXX  05184 04228 46/// /0315 11204 21211 30138 40154 57009;
0101042280999992000030521004+67780-053970FM-12+001299999V0200401N009319999999N9999999N1-01991-02071101441ADDMA1999999101281MD1710091+9999REMSYN060AAXX  05214 04228 46/// /0418 11199 21207 30128 40144 57009;
0081042280999992000030603004+67780-053970FM-12+001299999V0200301N009819999999N9999999N1-01941-02091101121ADDMA1999999100981REMSYN054AAXX  06034 04228 46/// /0319 11194 21209 30098 40112;
0101042280999992000030606004+67780-053970FM-12+001299999V0200301N008719999999N9999999N1-01971-02061101021ADDMA1999999100871MD1710101+9999REMSYN060AAXX  06064 04228 46/// /0317 11197 21206 30087 40102 57010;
0101042280999992000030609004+67780-053970FM-12+001299999V0200501N007719999999N9999999N1-01841-01891100901ADDMA1999999100751MD1710111+9999REMSYN060AAXX  06094 04228 46/// /0515 11184 21189 30075 40090 57011;
0101042280999992000030612004+67780-053970FM-12+001299999V0200401N005719999999N9999999N1-01811-01861100851ADDMA1999999100711MD1710031+9999REMSYN060AAXX  06124 04228 46/// /0411 11181 21186 30071 40085 57003;
0101042280999992000030615004+67780-053970FM-12+001299999V0200401N006219999999N9999999N1-01731-01781100801ADDMA1999999100651MD1710051+9999REMSYN060AAXX  06154 04228 46/// /0412 11173 21178 30065 40080 57005;
0101042280999992000030621004+67780-053970FM-12+001299999V0200401N005719999999N9999999N1-01711-01761100691ADDMA1999999100541MD1710041+9999REMSYN060AAXX  06214 04228 46/// /0411 11171 21176 30054 40069 57004;
0081042280999992000030706004+67780-053970FM-12+001299999V0200501N004619999999N9999999N1-01901-01951100491ADDMA1999999100331REMSYN054AAXX  07064 04228 46/// /0509 11190 21195 30033 40049;
0136042280999992000030709004+67780-053970FM-12+001299999V0200501N003119999999N9999999N1-01911-01961100471ADDMA1999999100321MD1710021+9999REMSYN060AAXX  07094 04228 46/// /0506 11191 21196 30032 40047 57000;EQDQ01+000072APCTENQ02+000002APC3  
0101042280999992000030712004+67780-053970FM-12+001299999V0200701N003119999999N9999999N1-01951-01991100471ADDMA1999999100331MD1210011+9999REMSYN060AAXX  07124 04228 46/// /0706 11195 21199 30033 40047 52001;
0101042280999992000030715004+67780-053970FM-12+001299999V0200801N002119999999N9999999N1-01901-01951100541ADDMA1999999100381MD1210051+9999REMSYN060AAXX  07154 04228 46/// /0804 11190 21195 30038 40054 52005;
0101042280999992000030718004+67780-053970FM-12+001299999V0203401N002119999999N9999999N1-01791-01831100601ADDMA1999999100441MD1210061+9999REMSYN060AAXX  07184 04228 46/// /3404 11179 21183 30044 40060 52006;
0101042280999992000030721004+67780-053970FM-12+001299999V0203101N002619999999N9999999N1-01951-01991100751ADDMA1999999100601MD1210161+9999REMSYN060AAXX  07214 04228 46/// /3105 11195 21199 30060 40075 52016;
0081042280999992000030803004+67780-053970FM-12+001299999V0203301N003119999999N9999999N1-02051-02101101001ADDMA1999999100851REMSYN054AAXX  08034 04228 46/// /3306 11205 21210 30085 40100;
0101042280999992000030806004+67780-053970FM-12+001299999V0203401N002619999999N9999999N1-02051-02101101071ADDMA1999999100921MD1210071+9999REMSYN060AAXX  08064 04228 46/// /3405 11205 21210 30092 40107 52007;
0101042280999992000030809004+67780-053970FM-12+001299999V0203301N002119999999N9999999N1-02061-02121101191ADDMA1999999101041MD1210121+9999REMSYN060AAXX  08094 04228 46/// /3304 11206 21212 30104 40119 52012;
0101042280999992000030812004+67780-053970FM-12+001299999V0203501N001519999999N9999999N1-02071-02121101271ADDMA1999999101121MD1210081+9999REMSYN060AAXX  08124 04228 46/// /3503 11207 21212 30112 40127 52008;
0101042280999992000030815004+67780-053970FM-12+001299999V0200401N003119999999N9999999N1-01931-01981101321ADDMA1999999101171MD1210051+9999REMSYN060AAXX  08154 04228 46/// /0406 11193 21198 30117 40132 52005;
0101042280999992000030818004+67780-053970FM-12+001299999V0200401N003619999999N9999999N1-01811-01861101301ADDMA1999999101151MD1710011+9999REMSYN060AAXX  08184 04228 46/// /0407 11181 21186 30115 40130 57001;
0081042280999992000030821004+67780-053970FM-12+001299999V0200501N005719999999N9999999N1-02031-02081101221ADDMA1999999101061REMSYN054AAXX  08214 04228 46/// /0511 11203 21208 30106 40122;
0081042280999992000030900004+67780-053970FM-12+001299999V0200401N005719999999N9999999N1-01951-02001101051ADDMA1999999100901REMSYN054AAXX  09004 04228 46/// /0411 11195 21200 30090 40105;
0101042280999992000030903004+67780-053970FM-12+001299999V0200501N006219999999N9999999N1-02011-02061100901ADDMA1999999100761MD1710131+9999REMSYN060AAXX  09034 04228 46/// /0512 11201 21206 30076 40090 57013;
0101042280999992000030906004+67780-053970FM-12+001299999V0200401N005719999999N9999999N1-01951-02001100771ADDMA1999999100631MD1710121+9999REMSYN060AAXX  09064 04228 46/// /0411 11195 21200 30063 40077 57012;
0101042280999992000030909004+67780-053970FM-12+001299999V0200501N008719999999N9999999N1-01921-01971100621ADDMA1999999100481MD1710141+9999REMSYN060AAXX  09094 04228 46/// /0517 11192 21197 30048 40062 57014;
0101042280999992000030912004+67780-053970FM-12+001299999V0201001N008719999999N9999999N1-01901-01951100371ADDMA1999999100231MD1710241+9999REMSYN060AAXX  09124 04228 46/// /1017 11190 21195 30023 40037 57024;
0101042280999992000030915004+67780-053970FM-12+001299999V0200201N008719999999N9999999N1-01711-01751100101ADDMA1999999099961MD1710261+9999REMSYN060AAXX  09154 04228 46/// /0217 11171 21175 39996 40010 57026;
0101042280999992000030918004+67780-053970FM-12+001299999V0200401N008219999999N9999999N1-01431-01481099901ADDMA1999999099761MD1710191+9999REMSYN060AAXX  09184 04228 46/// /0416 11143 21148 39976 49990 57019;
0101042280999992000030921004+67780-053970FM-12+001299999V0200301N006719999999N9999999N1-01201-01321099701ADDMA1999999099561MD1710191+9999REMSYN060AAXX  09214 04228 46/// /0313 11120 21132 39956 49970 57019;
0081042280999992000031003004+67780-053970FM-12+001299999V0200401N005719999999N9999999N1-01061-01181099551ADDMA1999999099411REMSYN054AAXX  10034 04228 46/// /0411 11106 21118 39941 49955;
0101042280999992000031006004+67780-053970FM-12+001299999V0200501N007219999999N9999999N1-01061-01161099271ADDMA1999999099131MD1710271+9999REMSYN060AAXX  10064 04228 46/// /0514 11106 21116 39913 49927 57027;
0101042280999992000031012004+67780-053970FM-12+001299999V0200401N006219999999N9999999N1-00601-00721098801ADDMA1999999098661MD1710171+9999REMSYN060AAXX  10124 04228 46/// /0412 11060 21072 39866 49880 57017;
0101042280999992000031015004+67780-053970FM-12+001299999V0202001N007219999999N9999999N1-00261-00401098771ADDMA1999999098631MD1710021+9999REMSYN060AAXX  10154 04228 46/// /2014 11026 21040 39863 49877 57002;
0101042280999992000031018004+67780-053970FM-12+001299999V0201901N016419999999N9999999N1-00501-00561098921ADDMA1999999098781MD1210151+9999REMSYN060AAXX  10184 04228 46/// /1932 11050 21056 39878 49892 52015;
0101042280999992000031021004+67780-053970FM-12+001299999V0201801N023119999999N9999999N1-00581-00711099201ADDMA1999999099071MD1210291+9999REMSYN060AAXX  10214 04228 46/// /1845 11058 21071 39907 49920 52029;
0081042280999992000031103004+67780-053970FM-12+001299999V0202101N007219999999N9999999N1-01461-01611099901ADDMA1999999099751REMSYN054AAXX  11034 04228 46/// /2114 11146 21161 39975 49990;
0101042280999992000031106004+67780-053970FM-12+001299999V0202401N002119999999N9999999N1-01521-01621099801ADDMA1999999099651MD1710091+9999REMSYN060AAXX  11064 04228 46/// /2404 11152 21162 39965 49980 57009;
0101042280999992000031109004+67780-053970FM-12+001299999V0201201N003119999999N9999999N1-01571-01641099751ADDMA1999999099591MD1710051+9999REMSYN060AAXX  11094 04228 46/// /1206 11157 21164 39959 49975 57005;
0101042280999992000031112004+67780-053970FM-12+001299999V0201601N003119999999N9999999N1-01521-01601099671ADDMA1999999099531MD1710051+9999REMSYN060AAXX  11124 04228 46/// /1606 11152 21160 39953 49967 57005;
0101042280999992000031121004+67780-053970FM-12+001299999V0202201N005719999999N9999999N1-01501-01561100071ADDMA1999999099921MD1210161+9999REMSYN060AAXX  11214 04228 46/// /2211 11150 21156 39992 40007 52016;
0081042280999992000031203004+67780-053970FM-12+001299999V0202201N006219999999N9999999N1-01841-01941100551ADDMA1999999100401REMSYN054AAXX  12034 04228 46/// /2212 11184 21194 30040 40055;
0101042280999992000031212004+67780-053970FM-12+001299999V0201601N002619999999N9999999N1-01811-01871100851ADDMA1999999100711MD1210051+9999REMSYN060AAXX  12124 04228 46/// /1605 11181 21187 30071 40085 52005;
0101042280999992000031215004+67780-053970FM-12+001299999V0201801N003119999999N9999999N1-01641-01771100901ADDMA1999999100761MD1210051+9999REMSYN060AAXX  12154 04228 46/// /1806 11164 21177 30076 40090 52005;
0101042280999992000031221004+67780-053970FM-12+001299999V0201801N001019999999N9999999N1-01651-01821100971ADDMA1999999100821MD1210031+9999REMSYN060AAXX  12214 04228 46/// /1802 11165 21182 30082 40097 52003;
0101042280999992000031300004+67780-053970FM-12+001299999V0201201N003619999999N9999999N1-01671-01751100921ADDMA1999999100761MD1710051+9999REMSYN060AAXX  13004 04228 46/// /1207 11167 21175 30076 40092 57005;
0081042280999992000031306004+67780-053970FM-12+001299999V0202001N003619999999N9999999N1-01511-01731100841ADDMA1999999100691REMSYN054AAXX  13064 04228 46/// /2007 11151 21173 30069 40084;
0101042280999992000031312004+67780-053970FM-12+001299999V0202101N006219999999N9999999N1-01981-02061101371ADDMA1999999101231MD1210241+9999REMSYN060AAXX  13124 04228 46/// /2112 11198 21206 30123 40137 52024;
0101042280999992000031315004+67780-053970FM-12+001299999V0202201N004619999999N9999999N1-01941-02031101621ADDMA1999999101471MD1210241+9999REMSYN060AAXX  13154 04228 46/// /2209 11194 21203 30147 40162 52024;
0101042280999992000031318004+67780-053970FM-12+001299999V0202101N005119999999N9999999N1-01871-02011101791ADDMA1999999101631MD1210161+9999REMSYN060AAXX  13184 04228 46/// /2110 11187 21201 30163 40179 52016;
0101042280999992000031321004+67780-053970FM-12+001299999V0201901N001519999999N9999999N1-01941-02091101921ADDMA1999999101771MD1210141+9999REMSYN060AAXX  13214 04228 46/// /1903 11194 21209 30177 40192 52014;
0081042280999992000031403004+67780-053970FM-12+001299999V0201201N004619999999N9999999N1-01881-01951101771ADDMA1999999101631REMSYN054AAXX  14034 04228 46/// /1209 11188 21195 30163 40177;
0101042280999992000031406004+67780-053970FM-12+001299999V0201201N005119999999N9999999N1-01931-01991101621ADDMA1999999101461MD1710161+9999REMSYN060AAXX  14064 04228 46/// /1210 11193 21199 30146 40162 57016;
0101042280999992000031409004+67780-053970FM-12+001299999V0201101N005119999999N9999999N1-01951-02021101451ADDMA1999999101301MD1710151+9999REMSYN060AAXX  14094 04228 46/// /1110 11195 21202 30130 40145 57015;
0101042280999992000031412004+67780-053970FM-12+001299999V0201101N003119999999N9999999N1-01881-01941101341ADDMA1999999101191MD1710101+9999REMSYN060AAXX  14124 04228 46/// /1106 11188 21194 30119 40134 57010;
0101042280999992000031415004+67780-053970FM-12+001299999V0201201N003619999999N9999999N1-01711-01771101301ADDMA1999999101151MD1710031+9999REMSYN060AAXX  14154 04228 46/// /1207 11171 21177 30115 40130 57003;
0101042280999992000031418004+67780-053970FM-12+001299999V0201201N005119999999N9999999N1-01561-01641101251ADDMA1999999101111MD1710031+9999REMSYN060AAXX  14184 04228 46/// /1210 11156 21164 30111 40125 57003;
0101042280999992000031421004+67780-053970FM-12+001299999V0202801N006219999999N9999999N1-01581-01681101301ADDMA1999999101161MD1210051+9999REMSYN060AAXX  14214 04228 46/// /2812 11158 21168 30116 40130 52005;
0081042280999992000031503004+67780-053970FM-12+001299999V0202901N004619999999N9999999N1-01741-01791101221ADDMA1999999101071REMSYN054AAXX  15034 04228 46/// /2909 11174 21179 30107 40122;
0101042280999992000031506004+67780-053970FM-12+001299999V0201301N003119999999N9999999N1-01841-01891101151ADDMA1999999101001MD1710061+9999REMSYN060AAXX  15064 04228 46/// /1306 11184 21189 30100 40115 57006;
0101042280999992000031509004+67780-053970FM-12+001299999V0201201N003119999999N9999999N1-01791-01831101051ADDMA1999999100911MD1710081+9999REMSYN060AAXX  15094 04228 46/// /1206 11179 21183 30091 40105 57008;
0101042280999992000031512004+67780-053970FM-12+001299999V0202501N001019999999N9999999N1-01801-01851101051ADDMA1999999100911MD1410001+9999REMSYN060AAXX  15124 04228 46/// /2502 11180 21185 30091 40105 54000;
0101042280999992000031515004+67780-053970FM-12+001299999V0202701N001519999999N9999999N1-01771-01811101051ADDMA1999999100901MD1410001+9999REMSYN060AAXX  15154 04228 46/// /2703 11177 21181 30090 40105 54000;
0101042280999992000031518004+67780-053970FM-12+001299999V0202601N001519999999N9999999N1-01751-01801101091ADDMA1999999100931MD1210031+9999REMSYN060AAXX  15184 04228 46/// /2603 11175 21180 30093 40109 52003;
0101042280999992000031521004+67780-053970FM-12+001299999V0202501N003119999999N9999999N1-01821-01871101151ADDMA1999999101011MD1210081+9999REMSYN060AAXX  15214 04228 46/// /2506 11182 21187 30101 40115 52008;
0081042280999992000031606004+67780-053970FM-12+001299999V0202901N001519999999N9999999N1-01861-01921101171ADDMA1999999101031REMSYN054AAXX  16064 04228 46/// /2903 11186 21192 30103 40117;
0101042280999992000031609004+67780-053970FM-12+001299999V0201401N004619999999N9999999N1-01951-02021101201ADDMA1999999101061MD1210031+9999REMSYN060AAXX  16094 04228 46/// /1409 11195 21202 30106 40120 52003;
0101042280999992000031612004+67780-053970FM-12+001299999V0201401N003619999999N9999999N1-01901-02021101151ADDMA1999999101001MD1710051+9999REMSYN060AAXX  16124 04228 46/// /1407 11190 21202 30100 40115 57005;
0101042280999992000031615004+67780-053970FM-12+001299999V0201401N004119999999N9999999N1-01841-02011101021ADDMA1999999100871MD1710121+9999REMSYN060AAXX  16154 04228 46/// /1408 11184 21201 30087 40102 57012;
0101042280999992000031618004+67780-053970FM-12+001299999V0201201N007719999999N9999999N1-01871-01941100841ADDMA1999999100691MD1710171+9999REMSYN060AAXX  16184 04228 46/// /1215 11187 21194 30069 40084 57017;
0101042280999992000031621004+67780-053970FM-12+001299999V0201201N007719999999N9999999N1-01811-01871100701ADDMA1999999100551MD1710131+9999REMSYN060AAXX  16214 04228 46/// /1215 11181 21187 30055 40070 57013;
0081042280999992000031703004+67780-053970FM-12+001299999V0201201N007719999999N9999999N1-01871-01911100451ADDMA1999999100301REMSYN054AAXX  17034 04228 46/// /1215 11187 21191 30030 40045;
0101042280999992000031706004+67780-053970FM-12+001299999V0201201N006219999999N9999999N1-01901-01941100341ADDMA1999999100191MD1710101+9999REMSYN060AAXX  17064 04228 46/// /1212 11190 21194 30019 40034 57010;
0101042280999992000031709004+67780-053970FM-12+001299999V0201201N006219999999N9999999N1-01851-01901100291ADDMA1999999100131MD1710051+9999REMSYN060AAXX  17094 04228 46/// /1212 11185 21190 30013 40029 57005;
0101042280999992000031712004+67780-053970FM-12+001299999V0202801N005719999999N9999999N1-01841-01881100251ADDMA1999999100111MD1710011+9999REMSYN060AAXX  17124 04228 46/// /2811 11184 21188 30011 40025 57001;
0101042280999992000031715004+67780-053970FM-12+001299999V0201201N007219999999N9999999N1-01861-01891100171ADDMA1999999100021MD1710081+9999REMSYN060AAXX  17154 04228 46/// /1214 11186 21189 30002 40017 57008;
0101042280999992000031718004+67780-053970FM-12+001299999V0201201N006719999999N9999999N1-01821-01861100151ADDMA1999999100001MD1710011+9999REMSYN060AAXX  17184 04228 46/// /1213 11182 21186 30000 40015 57001;
0081042280999992000031803004+67780-053970FM-12+001299999V0202601N004619999999N9999999N1-01891-01941100551ADDMA1999999100401REMSYN054AAXX  18034 04228 46/// /2609 11189 21194 30040 40055;
0101042280999992000031809004+67780-053970FM-12+001299999V0202701N003619999999N9999999N1-01881-01931101001ADDMA1999999100841MD1210251+9999REMSYN060AAXX  18094 04228 46/// /2707 11188 21193 30084 40100 52025;
0101042280999992000031812004+67780-053970FM-12+001299999V0202601N003119999999N9999999N1-01961-02011101271ADDMA1999999101111MD1210271+9999REMSYN060AAXX  18124 04228 46/// /2606 11196 21201 30111 40127 52027;
0101042280999992000031815004+67780-053970FM-12+001299999V0202501N003119999999N9999999N1-01871-01911101491ADDMA1999999101341MD1210231+9999REMSYN060AAXX  18154 04228 46/// /2506 11187 21191 30134 40149 52023;
0101042280999992000031818004+67780-053970FM-12+001299999V0202701N003619999999N9999999N1-01791-01841101721ADDMA1999999101571MD1210231+9999REMSYN060AAXX  18184 04228 46/// /2707 11179 21184 30157 40172 52023;
0101042280999992000031821004+67780-053970FM-12+001299999V0201201N002619999999N9999999N1-01771-01821101921ADDMA1999999101771MD1210201+9999REMSYN060AAXX  18214 04228 46/// /1205 11177 21182 30177 40192 52020;
0081042280999992000031903004+67780-053970FM-12+001299999V0201401N002619999999N9999999N1-01931-01981102201ADDMA1999999102051REMSYN054AAXX  19034 04228 46/// /1405 11193 21198 30205 40220;
0101042280999992000031906004+67780-053970FM-12+001299999V0201201N001519999999N9999999N1-01911-01961102431ADDMA1999999102271MD1210221+9999REMSYN060AAXX  19064 04228 46/// /1203 11191 21196 30227 40243 52022;
0101042280999992000031909004+67780-053970FM-12+001299999V0201501N002619999999N9999999N1-01911-01961102551ADDMA1999999102401MD1210131+9999REMSYN060AAXX  19094 04228 46/// /1505 11191 21196 30240 40255 52013;
0101042280999992000031912004+67780-053970FM-12+001299999V0201601N002619999999N9999999N1-01781-01811102691ADDMA1999999102531MD1210131+9999REMSYN060AAXX  19124 04228 46/// /1605 11178 21181 30253 40269 52013;
0101042280999992000031915004+67780-053970FM-12+001299999V0201901N001019999999N9999999N1-01451-01601102831ADDMA1999999102671MD1210141+9999REMSYN060AAXX  19154 04228 46/// /1902 11145 21160 30267 40283 52014;
0101042280999992000031918004+67780-053970FM-12+001299999V0201401N002619999999N9999999N1-01501-01781102891ADDMA1999999102731MD1210061+9999REMSYN060AAXX  19184 04228 46/// /1405 11150 21178 30273 40289 52006;
0101042280999992000031921004+67780-053970FM-12+001299999V0202101N001519999999N9999999N1-01311-01361102981ADDMA1999999102831MD1210101+9999REMSYN060AAXX  19214 04228 46/// /2103 11131 21136 30283 40298 52010;
0081042280999992000032006004+67780-053970FM-12+001299999V0201301N002619999999N9999999N1-01691-01751103251ADDMA1999999103101REMSYN054AAXX  20064 04228 46/// /1305 11169 21175 30310 40325;
0120042280999992000032009004+67780-053970FM-12+001299999V0201301N004619999999N9999999N1-01731-01791103251ADDMA1999999103091MD1410001+9999REMSYN060AAXX  20094 04228 46/// /1309 11173 21179 30309 40325 57000;EQDQ01+000072APCTEN
0101042280999992000032012004+67780-053970FM-12+001299999V0201201N005119999999N9999999N1-01681-01781103181ADDMA1999999103021MD1710061+9999REMSYN060AAXX  20124 04228 46/// /1210 11168 21178 30302 40318 57006;
0101042280999992000032015004+67780-053970FM-12+001299999V0201301N006719999999N9999999N1-01531-01671103111ADDMA1999999102971MD1710041+9999REMSYN060AAXX  20154 04228 46/// /1313 11153 21167 30297 40311 57004;
0101042280999992000032018004+67780-053970FM-12+001299999V0201201N008719999999N9999999N1-01601-01851103041ADDMA1999999102881MD1710081+9999REMSYN060AAXX  20184 04228 46/// /1217 11160 21185 30288 40304 57008;
0136042280999992000032021004+67780-053970FM-12+001299999V0201201N009819999999N9999999N1-01561-01771103011ADDMA1999999102871MD1710031+9999REMSYN060AAXX  20214 04228 46/// /1219 11156 21177 30287 40301 57000;EQDQ01+000072APCTENQ02+000002APC3  
0081042280999992000032103004+67780-053970FM-12+001299999V0201201N007719999999N9999999N1-01541-01631103141ADDMA1999999102981REMSYN054AAXX  21034 04228 46/// /1215 11154 21163 30298 40314;
0101042280999992000032106004+67780-053970FM-12+001299999V0201101N007719999999N9999999N1-01491-01541103231ADDMA1999999103071MD1210091+9999REMSYN060AAXX  21064 04228 46/// /1115 11149 21154 30307 40323 52009;
0101042280999992000032109004+67780-053970FM-12+001299999V0201101N007719999999N9999999N1-01461-01581103381ADDMA1999999103221MD1210151+9999REMSYN060AAXX  21094 04228 46/// /1115 11146 21158 30322 40338 52015;
0101042280999992000032112004+67780-053970FM-12+001299999V0201201N005719999999N9999999N1-01591-01661103491ADDMA1999999103331MD1210111+9999REMSYN060AAXX  21124 04228 46/// /1211 11159 21166 30333 40349 52011;
0101042280999992000032115004+67780-053970FM-12+001299999V0201201N005119999999N9999999N1-01511-01621103551ADDMA1999999103401MD1210071+9999REMSYN060AAXX  21154 04228 46/// /1210 11151 21162 30340 40355 52007;
0120042280999992000032118004+67780-053970FM-12+001299999V0201201N005119999999N9999999N1-01481-01651103551ADDMA1999999103401MD1410001+9999REMSYN060AAXX  21184 04228 46/// /1210 11148 21165 30340 40355 52000;EQDQ01+000022APCTEN
0136042280999992000032121004+67780-053970FM-12+001299999V0201201N006219999999N9999999N1-01511-01681103541ADDMA1999999103391MD1710011+9999REMSYN060AAXX  21214 04228 46/// /1212 11151 21168 30339 40354 57000;EQDQ01+000072APCTENQ02+000002APC3  
0081042280999992000032206004+67780-053970FM-12+001299999V0201301N005719999999N9999999N1-01741-01881103161ADDMA1999999103011REMSYN054AAXX  22064 04228 46/// /1311 11174 21188 30301 40316;
0101042280999992000032209004+67780-053970FM-12+001299999V0201401N003119999999N9999999N1-01601-01891103041ADDMA1999999102881MD1710121+9999REMSYN060AAXX  22094 04228 46/// /1406 11160 21189 30288 40304 57012;
0101042280999992000032212004+67780-053970FM-12+001299999V0201401N003619999999N9999999N1-01561-01911102851ADDMA1999999102701MD1710171+9999REMSYN060AAXX  22124 04228 46/// /1407 11156 21191 30270 40285 57017;
0101042280999992000032215004+67780-053970FM-12+001299999V0201501N002619999999N9999999N1-01261-01791102711ADDMA1999999102571MD1710121+9999REMSYN060AAXX  22154 04228 46/// /1505 11126 21179 30257 40271 57012;
0101042280999992000032218004+67780-053970FM-12+001299999V0201401N002619999999N9999999N1-01161-01721102451ADDMA1999999102301MD1710261+9999REMSYN060AAXX  22184 04228 46/// /1405 11116 21172 30230 40245 57026;
0101042280999992000032221004+67780-053970FM-12+001299999V0201301N002619999999N9999999N1-01321-01871102251ADDMA1999999102101MD1710191+9999REMSYN060AAXX  22214 04228 46/// /1305 11132 21187 30210 40225 57019;
0081042280999992000032306004+67780-053970FM-12+001299999V0201401N002619999999N9999999N1-01211-01611101641ADDMA1999999101481REMSYN054AAXX  23064 04228 46/// /1405 11121 21161 30148 40164;
0101042280999992000032309004+67780-053970FM-12+001299999V0201801N002619999999N9999999N1-01021-01371101671ADDMA1999999101521MD1210041+9999REMSYN060AAXX  23094 04228 46/// /1805 11102 21137 30152 40167 52004;
0101042280999992000032312004+67780-053970FM-12+001299999V0201601N002119999999N9999999N1-00911-01411101721ADDMA1999999101571MD1210051+9999REMSYN060AAXX  23124 04228 46/// /1604 11091 21141 30157 40172 52005;
0081042280999992000032518004+67780-053970FM-12+001299999V0202901N009819999999N9999999N1-01021-01201101351ADDMA1999999101201REMSYN054AAXX  25184 04228 46/// /2919 11102 21120 30120 40135;
0101042280999992000032521004+67780-053970FM-12+001299999V0202901N010819999999N9999999N1-00841-01011101321ADDMA1999999101181MD1710011+9999REMSYN060AAXX  25214 04228 46/// /2921 11084 21101 30118 40132 57001;
0081042280999992000032606004+67780-053970FM-12+001299999V0202601N007719999999N9999999N1-00951-00991100871ADDMA1999999100731REMSYN054AAXX  26064 04228 46/// /2615 11095 21099 30073 40087;
0086042280999992000032609004+67780-053970FM-12+001299999V0202701N007219999999N9999999N1-00961-01011100721ADDMA1999999100571REMSYN059AAXX  26094 04228 46/// /2714 11096 21101 30057 40072 5715;
0101042280999992000032612004+67780-053970FM-12+001299999V0202701N006719999999N9999999N1-00961-01011100601ADDMA1999999100461MD1710101+9999REMSYN060AAXX  26124 04228 46/// /2713 11096 21101 30046 40060 57010;
0101042280999992000032615004+67780-053970FM-12+001299999V0202801N004619999999N9999999N1-00871-00941100441ADDMA1999999100291MD1710161+9999REMSYN060AAXX  26154 04228 46/// /2809 11087 21094 30029 40044 57016;
0081042280999992000032715004+67780-053970FM-12+001299999V0202601N008719999999N9999999N1-00481-00551099351ADDMA1999999099211REMSYN054AAXX  27154 04228 46/// /2617 11048 21055 39921 49935;
0101042280999992000032718004+67780-053970FM-12+001299999V0202601N007219999999N9999999N1-00601-00671099451ADDMA1999999099301MD1210091+9999REMSYN060AAXX  27184 04228 46/// /2614 11060 21067 39930 49945 52009;
0101042280999992000032721004+67780-053970FM-12+001299999V0202501N004119999999N9999999N1-00691-00761099801ADDMA1999999099671MD1210371+9999REMSYN060AAXX  27214 04228 46/// /2508 11069 21076 39967 49980 52037;
0081042280999992000032918004+67780-053970FM-12+001299999V0201201N002619999999N9999999N1-00871-00971102961ADDMA1999999102811REMSYN054AAXX  29184 04228 46/// /1205 11087 21097 30281 40296;
0101042280999992000032921004+67780-053970FM-12+001299999V0201201N002619999999N9999999N1-00891-01001103161ADDMA1999999103011MD1210201+9999REMSYN060AAXX  29214 04228 46/// /1205 11089 21100 30301 40316 52020;
0081042280999992000033003004+67780-053970FM-12+001299999V0200401N006219999999N9999999N1-01011-01131103301ADDMA1999999103151REMSYN054AAXX  30034 04228 46/// /0412 11101 21113 30315 40330;
0101042280999992000033006004+67780-053970FM-12+001299999V0200401N007219999999N9999999N1-01091-01201103301ADDMA1999999103151MD1410001+9999REMSYN060AAXX  30064 04228 46/// /0414 11109 21120 30315 40330 54000;
0101042280999992000033009004+67780-053970FM-12+001299999V0200401N007219999999N9999999N1-01081-01251103351ADDMA1999999103211MD1210061+9999REMSYN060AAXX  30094 04228 46/// /0414 11108 21125 30321 40335 52006;
0101042280999992000033012004+67780-053970FM-12+001299999V0200301N006719999999N9999999N1-01081-01331103381ADDMA1999999103221MD1210011+9999REMSYN060AAXX  30124 04228 46/// /0313 11108 21133 30322 40338 52001;
0101042280999992000033015004+67780-053970FM-12+001299999V0200301N005719999999N9999999N1-00951-01201103341ADDMA1999999103191MD1710021+9999REMSYN060AAXX  30154 04228 46/// /0311 11095 21120 30319 40334 57002;
0101042280999992000033018004+67780-053970FM-12+001299999V0200301N008219999999N9999999N1-00891-01121103241ADDMA1999999103091MD1710091+9999REMSYN060AAXX  30184 04228 46/// /0316 11089 21112 30309 40324 57009;
0101042280999992000033021004+67780-053970FM-12+001299999V0200301N007719999999N9999999N1-00811-01001103151ADDMA1999999103001MD1710081+9999REMSYN060AAXX  30214 04228 46/// /0315 11081 21100 30300 40315 57008;
0081042280999992000033103004+67780-053970FM-12+001299999V0200401N005119999999N9999999N1-00891-01051103151ADDMA1999999103011REMSYN054AAXX  31034 04228 46/// /0410 11089 21105 30301 40315;
0120042280999992000033106004+67780-053970FM-12+001299999V0200701N002119999999N9999999N1-00951-01071103161ADDMA1999999103011MD1210011+9999REMSYN060AAXX  31064 04228 46/// /0704 11095 21107 30301 40316 52000;EQDQ01+000002APC3  
0101042280999992000033109004+67780-053970FM-12+001299999V0200601N003119999999N9999999N1-00951-01051103051ADDMA1999999102901MD1710101+9999REMSYN060AAXX  31094 04228 46/// /0606 11095 21105 30290 40305 57010;
0101042280999992000033112004+67780-053970FM-12+001299999V0200501N002619999999N9999999N1-00871-00961102951ADDMA1999999102801MD1710091+9999REMSYN060AAXX  31124 04228 46/// /0505 11087 21096 30280 40295 57009;
0101042280999992000033115004+67780-053970FM-12+001299999V0200401N002119999999N9999999N1-00811-00901102661ADDMA1999999102521MD1710271+9999REMSYN060AAXX  31154 04228 46/// /0404 11081 21090 30252 40266 57027;
0101042280999992000033118004+67780-053970FM-12+001299999V0200501N003619999999N9999999N1-00651-00761102371ADDMA1999999102221MD1710291+9999REMSYN060AAXX  31184 04228 46/// /0507 11065 21076 30222 40237 57029;
0101042280999992000033121004+67780-053970FM-12+001299999V0203501N003619999999N9999999N1-00511-00631102171ADDMA1999999102041MD1710171+9999REMSYN060AAXX  31214 04228 46/// /3507 11051 21063 30204 40217 57017;
0081042280999992000040103004+67780-053970FM-12+001299999V0200201N002619999999N9999999N1-00641-00731101951ADDMA1999999101801REMSYN054AAXX  01034 04228 46/// /0205 11064 21073 30180 40195;
0101042280999992000040106004+67780-053970FM-12+001299999V0200201N004619999999N9999999N1-00531-00601101701ADDMA1999999101561MD1710231+9999REMSYN060AAXX  01064 04228 46/// /0209 11053 21060 30156 40170 57023;
0101042280999992000040109004+67780-053970FM-12+001299999V0200101N003119999999N9999999N1-00301-00371101601ADDMA1999999101461MD1710091+9999REMSYN060AAXX  01094 04228 46/// /0106 11030 21037 30146 40160 57009;
0101042280999992000040112004+67780-053970FM-12+001299999V0200101N003119999999N9999999N1-00231-00301101501ADDMA1999999101351MD1710101+9999REMSYN060AAXX  01124 04228 46/// /0106 11023 21030 30135 40150 57010;
0101042280999992000040115004+67780-053970FM-12+001299999V0203401N001519999999N9999999N1-00081-00161101451ADDMA1999999101311MD1710031+9999REMSYN060AAXX  01154 04228 46/// /3403 11008 21016 30131 40145 57003;
0101042280999992000040118004+67780-053970FM-12+001299999V0203401N002119999999N9999999N1-00111-00181101371ADDMA1999999101231MD1710071+9999REMSYN060AAXX  01184 04228 46/// /3404 11011 21018 30123 40137 57007;
0120042280999992000040121004+67780-053970FM-12+001299999V0203601N001019999999N9999999N1-00151-00221101371ADDMA1999999101231MD1410001+9999REMSYN060AAXX  01214 04228 46/// /3602 11015 21022 30123 40137 52000;EQDQ01+000022APCTEN
0081042280999992000040206004+67780-053970FM-12+001299999V0200201N001019999999N9999999N1-00311-00381100971ADDMA1999999100841REMSYN054AAXX  02064 04228 46/// /0202 11031 21038 30084 40097;
0101042280999992000040209004+67780-053970FM-12+001299999V0203501N001519999999N9999999N1-00571-00631100591ADDMA1999999100441MD1710391+9999REMSYN060AAXX  02094 04228 46/// /3503 11057 21063 30044 40059 57039;
0081042280999992000040215004+67780-053970FM-12+001299999V0203401N002619999999N9999999N1-00211-00321099621ADDMA1999999099481REMSYN054AAXX  02154 04228 46/// /3405 11021 21032 39948 49962;
0101042280999992000040218004+67780-053970FM-12+001299999V0203301N003619999999N9999999N1-00201-00311099491ADDMA1999999099341MD1710131+9999REMSYN060AAXX  02184 04228 46/// /3307 11020 21031 39934 49949 57013;
0101042280999992000040221004+67780-053970FM-12+001299999V0203201N003619999999N9999999N1-00231-00321099491ADDMA1999999099351MD1210011+9999REMSYN060AAXX  02214 04228 46/// /3207 11023 21032 39935 49949 52001;
0081042280999992000040403004+67780-053970FM-12+001299999V0203301N002619999999N9999999N1-00531-00601099221ADDMA1999999099091REMSYN054AAXX  04034 04228 46/// /3305 11053 21060 39909 49922;
0101042280999992000040406004+67780-053970FM-12+001299999V0203301N002119999999N9999999N1-00561-00621099241ADDMA1999999099101MD1210011+9999REMSYN060AAXX  04064 04228 46/// /3304 11056 21062 39910 49924 52001;
0101042280999992000040409004+67780-053970FM-12+001299999V0203401N002619999999N9999999N1-00591-00651099341ADDMA1999999099201MD1210101+9999REMSYN060AAXX  04094 04228 46/// /3405 11059 21065 39920 49934 52010;
0101042280999992000040412004+67780-053970FM-12+001299999V0203401N003619999999N9999999N1-00601-00661099451ADDMA1999999099321MD1210121+9999REMSYN060AAXX  04124 04228 46/// /3407 11060 21066 39932 49945 52012;
0101042280999992000040415004+67780-053970FM-12+001299999V0203301N005719999999N9999999N1-00701-00771099621ADDMA1999999099481MD1210161+9999REMSYN060AAXX  04154 04228 46/// /3311 11070 21077 39948 49962 52016;
0081042280999992000040503004+67780-053970FM-12+001299999V0203201N002619999999N9999999N1-00911-00981100241ADDMA1999999100101REMSYN054AAXX  05034 04228 46/// /3205 11091 21098 30010 40024;
0101042280999992000040506004+67780-053970FM-12+001299999V0203101N001519999999N9999999N1-00981-01041100321ADDMA1999999100181MD1210081+9999REMSYN060AAXX  05064 04228 46/// /3103 11098 21104 30018 40032 52008;
0101042280999992000040509004+67780-053970FM-12+001299999V0203001N001019999999N9999999N1-00991-01051100471ADDMA1999999100321MD1210141+9999REMSYN060AAXX  05094 04228 46/// /3002 11099 21105 30032 40047 52014;
0081042280999992000040603004+67780-053970FM-12+001299999V0200201N002119999999N9999999N1-01001-01061100821ADDMA1999999100671REMSYN054AAXX  06034 04228 46/// /0204 11100 21106 30067 40082;
0101042280999992000040606004+67780-053970FM-12+001299999V0200101N001019999999N9999999N1-01191-01241100751ADDMA1999999100601MD1710061+9999REMSYN060AAXX  06064 04228 46/// /0102 11119 21124 30060 40075 57006;
0101042280999992000040609004+67780-053970FM-12+001299999V0203601N002119999999N9999999N1-01111-01161100551ADDMA1999999100411MD1710181+9999REMSYN060AAXX  06094 04228 46/// /3604 11111 21116 30041 40055 57018;
0101042280999992000040612004+67780-053970FM-12+001299999V0203601N006219999999N9999999N1-00941-00991100371ADDMA1999999100221MD1710181+9999REMSYN060AAXX  06124 04228 46/// /3612 11094 21099 30022 40037 57018;
0101042280999992000040615004+67780-053970FM-12+001299999V0200101N006219999999N9999999N1-00721-00831100101ADDMA1999999099971MD1710241+9999REMSYN060AAXX  06154 04228 46/// /0112 11072 21083 39997 40010 57024;
0136042280999992000040621004+67780-053970FM-12+001299999V0203601N011819999999N9999999N1-00441-00661099292ADDMA1999999099142MD1710401+9999REMSYN060AAXX  06214 04228 46/// /3623 11044 21066 39914 49929 57040;EQDQ01+099143APOSP Q02+099293APOSLP
0081042280999992000041009004+67780-053970FM-12+001299999V0200401N002619999999N9999999N1-01211-01291103241ADDMA1999999103081REMSYN054AAXX  10094 04228 46/// /0405 11121 21129 30308 40324;
0101042280999992000041012004+67780-053970FM-12+001299999V0203001N001519999999N9999999N1-01151-01291103401ADDMA1999999103251MD1210171+9999REMSYN060AAXX  10124 04228 46/// /3003 11115 21129 30325 40340 52017;
0101042280999992000041015004+67780-053970FM-12+001299999V0200201N002619999999N9999999N1-01041-01271103461ADDMA1999999103321MD1210071+9999REMSYN060AAXX  10154 04228 46/// /0205 11104 21127 30332 40346 52007;
0101042280999992000041021004+67780-053970FM-12+001299999V0200101N007719999999N9999999N1-00841-01061103201ADDMA1999999103051MD1710251+9999REMSYN060AAXX  10214 04228 46/// /0115 11084 21106 30305 40320 57025;
0081042280999992000041318004+67780-053970FM-12+001299999V0203401N003619999999N9999999N1-00611-00931103891ADDMA1999999103741REMSYN054AAXX  13184 04228 46/// /3407 11061 21093 30374 40389;
0081042280999992000041603004+67780-053970FM-12+001299999V0202601N002619999999N9999999N1-00131-00181101371ADDMA1999999101221REMSYN054AAXX  16034 04228 46/// /2605 11013 21018 30122 40137;
0101042280999992000041606004+67780-053970FM-12+001299999V0203001N002119999999N9999999N1-00191-00241101251ADDMA1999999101111MD1710101+9999REMSYN060AAXX  16064 04228 46/// /3004 11019 21024 30111 40125 57010;
0120042280999992000041609004+67780-053970FM-12+001299999V0203401N001019999999N9999999N1-00211-00261101251ADDMA1999999101101MD1410001+9999REMSYN060AAXX  16094 04228 46/// /3402 11021 21026 30110 40125 57000;EQDQ01+000072APCTEN
0101042280999992000041612004+67780-053970FM-12+001299999V0203401N002619999999N9999999N1-00151-00201101341ADDMA1999999101201MD1210101+9999REMSYN060AAXX  16124 04228 46/// /3405 11015 21020 30120 40134 52010;
0101042280999992000041615004+67780-053970FM-12+001299999V0203601N007219999999N9999999N1-00071-00121101271ADDMA1999999101141MD1710051+9999REMSYN060AAXX  16154 04228 46/// /3614 11007 21012 30114 40127 57005;
0101042280999992000041618004+67780-053970FM-12+001299999V0203601N008219999999N9999999N1-00051-00161101151ADDMA1999999101011MD1710121+9999REMSYN060AAXX  16184 04228 46/// /3616 11005 21016 30101 40115 57012;
0101042280999992000041621004+67780-053970FM-12+001299999V0203601N006219999999N9999999N1-00121-00191101091ADDMA1999999100951MD1710051+9999REMSYN060AAXX  16214 04228 46/// /3612 11012 21019 30095 40109 57005;
0081042280999992000041703004+67780-053970FM-12+001299999V0203501N002619999999N9999999N1-00231-00301101101ADDMA1999999100951REMSYN054AAXX  17034 04228 46/// /3505 11023 21030 30095 40110;
0101042280999992000041706004+67780-053970FM-12+001299999V0203501N001019999999N9999999N1-00261-00331101051ADDMA1999999100921MD1710021+9999REMSYN060AAXX  17064 04228 46/// /3502 11026 21033 30092 40105 57002;
0120042280999992000041709004+67780-053970FM-12+001299999V0200201N001019999999N9999999N1-00251-00321101051ADDMA1999999100911MD1410001+9999REMSYN060AAXX  17094 04228 46/// /0202 11025 21032 30091 40105 57000;EQDQ01+000072APCTEN
0136042280999992000041712004+67780-053970FM-12+001299999V0203601N001019999999N9999999N1-00051-00231101041ADDMA1999999100901MD1710011+9999REMSYN060AAXX  17124 04228 46/// /3602 11005 21023 30090 40104 57000;EQDQ01+000072APCTENQ02+000002APC3  
0122042280999992000041718004+67780-053970FM-12+001299999V0203401N002619999999N9999999N1+00011-00161101121ADDMA1999999100981REMSYN060AAXX  17184 04228 46/// /3405 10001 21016 30098 40112 52000;EQDQ01+000022APCTENQ02+000002APC3  
0101042280999992000041721004+67780-053970FM-12+001299999V0203501N004619999999N9999999N1-00111-00201101151ADDMA1999999101011MD1210031+9999REMSYN060AAXX  17214 04228 46/// /3509 11011 21020 30101 40115 52003;
0101042280999992000041800004+67780-053970FM-12+001299999V0203401N003619999999N9999999N1-00221-00281101251ADDMA1999999101111MD1210101+9999REMSYN060AAXX  18004 04228 46/// /3407 11022 21028 30111 40125 52010;
0081042280999992000041806004+67780-053970FM-12+001299999V0203501N003119999999N9999999N1-00391-00451101421ADDMA1999999101271REMSYN054AAXX  18064 04228 46/// /3506 11039 21045 30127 40142;
0101042280999992000041809004+67780-053970FM-12+001299999V0203601N001019999999N9999999N1-00471-00531101541ADDMA1999999101391MD1210121+9999REMSYN060AAXX  18094 04228 46/// /3602 11047 21053 30139 40154 52012;
0101042280999992000041812004+67780-053970FM-12+001299999V0202901N000519999999N9999999N1-00231-00281101701ADDMA1999999101561MD1210171+9999REMSYN060AAXX  18124 04228 46/// /2901 11023 21028 30156 40170 52017;
0101042280999992000041815004+67780-053970FM-12+001299999V0202601N001019999999N9999999N1+00101-00261101801ADDMA1999999101651MD1210091+9999REMSYN060AAXX  18154 04228 46/// /2602 10010 21026 30165 40180 52009;
0101042280999992000041818004+67780-053970FM-12+001299999V0202901N001519999999N9999999N1+00071-00331101921ADDMA1999999101771MD1210121+9999REMSYN060AAXX  18184 04228 46/// /2903 10007 21033 30177 40192 52012;
0101042280999992000041821004+67780-053970FM-12+001299999V0202601N001019999999N9999999N1+00101-00201102051ADDMA1999999101911MD1210141+9999REMSYN060AAXX  18214 04228 46/// /2602 10010 21020 30191 40205 52014;
0081042280999992000041906004+67780-053970FM-12+001299999V0200401N002119999999N9999999N1-00341-00401102401ADDMA1999999102261REMSYN054AAXX  19064 04228 46/// /0404 11034 21040 30226 40240;
0081042280999992000041915004+67780-053970FM-12+001299999V0200101N001519999999N9999999N1+00031-00351102701ADDMA1999999102561REMSYN054AAXX  19154 04228 46/// /0103 10003 21035 30256 40270;
0101042280999992000041918004+67780-053970FM-12+001299999V0203401N002619999999N9999999N1-00031-00211102731ADDMA1999999102581MD1210021+9999REMSYN060AAXX  19184 04228 46/// /3405 11003 21021 30258 40273 52002;
0101042280999992000041921004+67780-053970FM-12+001299999V0203401N004119999999N9999999N1-00081-00181102751ADDMA1999999102601MD1210021+9999REMSYN060AAXX  19214 04228 46/// /3408 11008 21018 30260 40275 52002;
0081042280999992000042018004+67780-053970FM-12+001299999V0202801N001019999999N9999999N1+00141-00271102101ADDMA1999999101961REMSYN054AAXX  20184 04228 46/// /2802 10014 21027 30196 40210;
0101042280999992000042021004+67780-053970FM-12+001299999V0200601N001519999999N9999999N1-00011-00211102071ADDMA1999999101931MD1710021+9999REMSYN060AAXX  20214 04228 46/// /0603 11001 21021 30193 40207 57002;
0081042280999992000042115004+67780-053970FM-12+001299999V0200401N002619999999N9999999N1-00021-00201101801ADDMA1999999101651REMSYN054AAXX  21154 04228 46/// /0405 11002 21020 30165 40180;
0081042280999992000042218004+67780-053970FM-12+001299999V0203301N002119999999N9999999N1-00031-00231101701ADDMA1999999101561REMSYN054AAXX  22184 04228 46/// /3304 11003 21023 30156 40170;
0101042280999992000042221004+67780-053970FM-12+001299999V0203101N001519999999N9999999N1-00061-00221101791ADDMA1999999101641MD1210081+9999REMSYN060AAXX  22214 04228 46/// /3103 11006 21022 30164 40179 52008;
0081042280999992000042415004+67780-053970FM-12+001299999V0200201N001019999999N9999999N1+00341-00271102171ADDMA1999999102031REMSYN054AAXX  24154 04228 46/// /0202 10034 21027 30203 40217;
0101042280999992000042418004+67780-053970FM-12+001299999V0203401N003119999999N9999999N1+00061-00081102021ADDMA1999999101881MD1710141+9999REMSYN060AAXX  24184 04228 46/// /3406 10006 21008 30188 40202 57014;
0101042280999992000042421004+67780-053970FM-12+001299999V0203501N004119999999N9999999N1-00011-00101101871ADDMA1999999101721MD1710151+9999REMSYN060AAXX  24214 04228 46/// /3508 11001 21010 30172 40187 57015;
0081042280999992000042609004+67780-053970FM-12+001299999V0203101N002119999999N9999999N1-00751-00791100421ADDMA1999999100291REMSYN054AAXX  26094 04228 46/// /3104 11075 21079 30029 40042;
0101042280999992000042612004+67780-053970FM-12+001299999V0203101N002119999999N9999999N1-00771-00811100451ADDMA1999999100301MD1210011+9999REMSYN060AAXX  26124 04228 46/// /3104 11077 21081 30030 40045 52001;
0122042280999992000042618004+67780-053970FM-12+001299999V0203301N002619999999N9999999N1-00631-00701100471ADDMA1999999100321REMSYN060AAXX  26184 04228 46/// /3305 11063 21070 30032 40047 52000;EQDQ01+000022APCTENQ02+000002APC3  
0101042280999992000042621004+67780-053970FM-12+001299999V0203301N004619999999N9999999N1-00621-00701100471ADDMA1999999100331MD1210011+9999REMSYN060AAXX  26214 04228 46/// /3309 11062 21070 30033 40047 52001;
0101042280999992000042700004+67780-053970FM-12+001299999V0200201N002119999999N9999999N1-00541-00591100491ADDMA1999999100351MD1210021+9999REMSYN060AAXX  27004 04228 46/// /0204 11054 21059 30035 40049 52002;
0101042280999992000042703004+67780-053970FM-12+001299999V0203301N004119999999N9999999N1-00461-00521100451ADDMA1999999100311MD1710031+9999REMSYN060AAXX  27034 04228 46/// /3308 11046 21052 30031 40045 57003;
0101042280999992000042706004+67780-053970FM-12+001299999V0200101N004619999999N9999999N1-00481-00551100471ADDMA1999999100331MD1210021+9999REMSYN060AAXX  27064 04228 46/// /0109 11048 21055 30033 40047 52002;
0101042280999992000042709004+67780-053970FM-12+001299999V0203601N006219999999N9999999N1-00431-00511100491ADDMA1999999100351MD1210021+9999REMSYN060AAXX  27094 04228 46/// /3612 11043 21051 30035 40049 52002;
0101042280999992000042712004+67780-053970FM-12+001299999V0203501N006219999999N9999999N1-00351-00461100471ADDMA1999999100321MD1710021+9999REMSYN060AAXX  27124 04228 46/// /3512 11035 21046 30032 40047 57002;
0101042280999992000042715004+67780-053970FM-12+001299999V0203401N007219999999N9999999N1-00391-00491100421ADDMA1999999100291MD1710021+9999REMSYN060AAXX  27154 04228 46/// /3414 11039 21049 30029 40042 57002;
