0215043900999992000010100004+60030-043120FM-12+0019BGPC V0202501N011812200019N9999999N1-00841-00851096591ADDAA106000191AY101061AY201061GA1001+999999999GF100991001001999999001001MA1999999095671MD1210191+9999MW1361OA149902521REMSYN088AAXX  01004 04390 119// 02523 11084 21085 39567 49659 52019 69911 73600 333 91149 91037;
0181043900999992000010103004+60030-043120FM-12+0019BGPC V0202301N009812200019N0150001N1-00771-00801096671ADDAY131031AY231031GA1001+999999999GF100991001001999999001001MA1999999095751MD1210081+9999MW1361REMSYN076AAXX  01034 04390 41965 02319 11077 21080 39575 49667 52008 73633 333 91141;
0215043900999992000010106004+60030-043120FM-12+0019BGPC V0202301N006710150019N0010001N1-00771-00781096691ADDAA112002091GF108991081021017501999999KA1120M-00671KA2120N-00901MA1999999095771MD1210021+9999OA149902111REMSYN100AAXX  01064 04390 12710 82313 11077 21078 39577 49669 52002 60022 882// 333 11067 21090 91141 91229;
0181043900999992000010109004+60030-043120FM-12+0019BGPC V0202701N013912200019N0150001N1-00721-00731096421ADDAY131031AY231031GA1001+999999999GF100991001001999999001001MA1999999095511MD1710261+9999MW1361REMSYN076AAXX  01094 04390 41965 02727 11072 21073 39551 49642 57026 73633 333 91137;
0111043900999992000010112004+60030-043120FM-12+0019BGPC V0202601N010319999999N9999999N1-00451-00501096491ADDMA1999999095591MD1210081+9999REMSYN070AAXX  01124 04390 46/// /2620 11045 21050 39559 49649 52008 333 91137;
0188043900999992000010115004+60030-043120FM-12+0019BGPC V0202701N017510150019N0250001N1-00371-00971097011ADDAY131031AY221031GF107991071001017501021999MA1999999096101MD1210511+9999MW1361OA149902521REMSYN088AAXX  01154 04390 41775 72734 11037 21097 39610 49701 52051 73632 8702/ 333 91149 91046;
0262043900999992000010118004+60030-043120FM-12+0019BGPC V0202601N010810300019N0300001N1-00191-01141097571ADDAA106000091AY131061AY231061GF107991031081008001021999KA1120M-00171KA2120N-00771MA1999999096661MD1210561+9999MW1361OA149902521REMSYN106AAXX  01184 04390 31580 72621 11019 21114 39666 49757 52056 73633 8382/ 333 11017 21077 91149 91032 91239;EQDQ01  00002PRCP06
0143043900999992000010121004+60030-043120FM-12+0019BGPC V0202601N009819999999N0050001N1-00221-01171097991ADDGF108991081001999999041999MA1999999097081MD1210421+9999REMSYN076AAXX  01214 04390 42950 82619 11022 21117 39708 49799 52042 8804/ 333 91140;
0187043900999992000010200004+60030-043120FM-12+0019BGPC V0202501N007712200019N9999999N1-00301-01221098191ADDAA106000791GA1001+999999999GF100991001001999999001001MA1999999097271MD1210191+9999OA149902061REMSYN082AAXX  02004 04390 129// 02515 11030 21122 39727 49819 52019 69901 333 91140 91226;
0170043900999992000010203004+60030-043120FM-12+0019BGPC V0202701N009812200019N9999999N1-00371-01361098251ADDGA1001+999999999GF100991001001999999001001MA1999999097331MD1210061+9999OA149901601REMSYN076AAXX  02034 04390 429// 02719 11037 21136 39733 49825 52006 333 91131 91031;
0149043900999992000010206004+60030-043120FM-12+0019BGPC V0202601N007219999999N9999999N1-00431-01491098371ADDKA1120M-00191KA2120N-00441MA1999999097451MD1210121+9999REMSYN082AAXX  02064 04390 46/// /2614 11043 21149 39745 49837 52012 333 11019 21044 91134;
0188043900999992000010209004+60030-043120FM-12+0019BGPC V0202701N009312200019N0250001N1-00421-01551098371ADDAY131031AY211031GF102991021001017501021999MA1999999097451MD1410001+9999MW1361OA149901901REMSYN088AAXX  02094 04390 41775 22718 11042 21155 39745 49837 54000 73631 8202/ 333 91137 91033;
0190043900999992000010212004+60030-043120FM-12+0019BGPC V0202601N006212200019N0300001N1-00491-01581098521ADDAA106000091GF101991011041012501999999MA1999999097591MD1210141+9999OA149901901REMSYN082AAXX  02124 04390 32680 12612 11049 21158 39759 49852 52014 814// 333 91137 91227;EQDQ01  00002PRCP06
0181043900999992000010215004+60030-043120FM-12+0019BGPC V0202701N014412200019N0250001N1-00481-01661098391ADDAY131031AY201031GA1001+999999999GF100991001001999999001001MA1999999097471MD1710121+9999MW1361REMSYN076AAXX  02154 04390 41975 02728 11048 21166 39747 49839 57012 73630 333 91140;
0228043900999992000010218004+60030-043120FM-12+0019BGPC V0202601N007712200019N0500001N1-00411-02071098431ADDAA106000091GF102991021001017501021999KA1120M-00361KA2120N-00541MA1999999097511MD1210041+9999OA149902111REMSYN094AAXX  02184 04390 32784 22615 11041 21207 39751 49843 52004 8202/ 333 11036 21054 91141 91231;EQDQ01  00002PRCP06
0170043900999992000010221004+60030-043120FM-12+0019BGPC V0202501N004112200019N9999999N1-00551-02101098461ADDGA1001+999999999GF100991001001999999001001MA1999999097531MD1210021+9999OA149901541REMSYN076AAXX  02214 04390 429// 02508 11055 21210 39753 49846 52002 333 91130 91221;
0183043900999992000010300004+60030-043120FM-12+0019BGPC V0202801N006712200019N9999999N1-00531-02221098441ADDAA106000091GA1001+999999999GF100991001001999999001001MA1999999097511MD1710021+9999REMSYN070AAXX  03004 04390 329// 02813 11053 21222 39751 49844 57002 333 91130;EQDQ01  00002PRCP06
0153043900999992000010303004+60030-043120FM-12+0019BGPC V0202801N007712200019N9999999N1-00641-02031098401ADDGA1001+999999999GF100991001001999999001001MA1999999097471MD1710041+9999REMSYN070AAXX  03034 04390 429// 02815 11064 21203 39747 49840 57004 333 91124;
0266043900999992000010306004+60030-043120FM-12+0019BGPC V0202701N010312200019N0150001N1-00751-02131098261ADDAA106000091AY131061AY201061GA1001+999999999GF100991001001999999001001KA1120M-00411KA2120N-00771MA1999999097331MD1710141+9999MW1361OA149901851REMSYN094AAXX  03064 04390 31965 02720 11075 21213 39733 49826 57014 73630 333 11041 21077 91136 91031;EQDQ01  00002PRCP06
0128043900999992000010309004+60030-043120FM-12+0019BGPC V0202701N014919999999N9999999N1-00761-01681098331ADDMA1999999097401MD1210071+9999OA149902521REMSYN076AAXX  03094 04390 46/// /2729 11076 21168 39740 49833 52007 333 91149 91040;
0211043900999992000010312004+60030-043120FM-12+0019BGPC V0202701N013912200019N0500001N1-00781-01661098601ADDAA106000091AY131061AY201061GA1001+999999999GF100991001001999999001001MA1999999097661MD1210261+9999MW1001REMSYN076AAXX  03124 04390 31984 02727 11078 21166 39766 49860 52026 70030 333 91149;EQDQ01  00002PRCP06
0188043900999992000010315004+60030-043120FM-12+0019BGPC V0202801N012312200019N0250001N1-00721-01681098831ADDAY131031AY201031GF101991011001999999041999MA1999999097891MD1210231+9999MW1361OA149902011REMSYN088AAXX  03154 04390 41975 12824 11072 21168 39789 49883 52023 73630 8104/ 333 91139 91037;
0256043900999992000010318004+60030-043120FM-12+0019BGPC V0202701N017512200019N0500001N1-00731-01591098781ADDAA106000091AY131061AY201061GF103991031001022501041999KA1120M-00691KA2120N-00801MA1999999097841MD1710051+9999MW1361OA149903041REMSYN100AAXX  03184 04390 31884 32734 11073 21159 39784 49878 57005 73630 8304/ 333 11069 21080 91159 91049;EQDQ01  00002PRCP06
0198043900999992000010321004+60030-043120FM-12+0019BGPC V0202701N020012200019N0250001N1-00711-01721098911ADDAY131031AY231031GA1001+999999999GF100991001001999999001001MA1999999097971MD1210131+9999MW1361OA149902731REMSYN082AAXX  03214 04390 41975 02739 11071 21172 39797 49891 52013 73633 333 91153 91051;
0228043900999992000010400004+60030-043120FM-12+0019BGPC V0202801N016412200019N0250001N1-00711-01711098991ADDAA106000091AY131061AY231061GA1001+999999999GF100991001001999999001001MA1999999098051MD1210081+9999MW1361OA149902831REMSYN082AAXX  04004 04390 31975 02832 11071 21171 39805 49899 52008 73633 333 91155 91045;EQDQ01  00002PRCP06
0170043900999992000010403004+60030-043120FM-12+0019BGPC V0202801N012912200019N9999999N1-00661-01701098981ADDGA1001+999999999GF100991001001999999001001MA1999999098041MD1710011+9999OA149902471REMSYN076AAXX  04034 04390 429// 02825 11066 21170 39804 49898 57001 333 91148 91037;
0266043900999992000010406004+60030-043120FM-12+0019BGPC V0202801N009812200019N0150001N1-00621-01691098981ADDAA106000091AY131061AY201061GA1001+999999999GF100991001001999999001001KA1120M-00581KA2120N-00761MA1999999098051MD1210011+9999MW1001OA149902471REMSYN094AAXX  04064 04390 31965 02819 11062 21169 39805 49898 52001 70030 333 11058 21076 91148 91234;EQDQ01  00002PRCP06
0170043900999992000010409004+60030-043120FM-12+0019BGPC V0202901N004612200019N9999999N1-00641-01681099061ADDGA1001+999999999GF100991001001999999001001MA1999999098121MD1210071+9999OA149901601REMSYN076AAXX  04094 04390 429// 02909 11064 21168 39812 49906 52007 333 91131 91224;
0190043900999992000010412004+60030-043120FM-12+0019BGPC V0202901N005712200019N0500001N1-00621-01611099231ADDAA106000091GF103991031001999999041999MA1999999098291MD1210171+9999OA149901601REMSYN082AAXX  04124 04390 32984 32911 11062 21161 39829 49923 52017 8304/ 333 91131 91224;EQDQ01  00002PRCP06
0101043900999992000010415004+60030-043120FM-12+0019BGPC V0202501N003619999999N9999999N1-00651-01711099351ADDMA1999999098411MD1210121+9999REMSYN060AAXX  04154 04390 46/// /2507 11065 21171 39841 49935 52012;
0205043900999992000010418004+60030-043120FM-12+0019BGPC V0202401N003619999999N0500001N1-00651-01751099421ADDAA106000091GF105991001001999999001061KA1120M-00561KA2999N-00711MA1999999098481MD1210071+9999REMSYN082AAXX  04184 04390 32984 52407 11065 21175 39848 49942 52007 80006 333 11056 21071;EQDQ01  00002PRCP06
0143043900999992000010421004+60030-043120FM-12+0019BGPC V0202901N006712200019N0250001N1-00551-01651099521ADDGF102991021001999999021999MA1999999098581MD1210101+9999REMSYN076AAXX  04214 04390 42975 22913 11055 21165 39858 49952 52010 8202/ 333 91124;
0183043900999992000010500004+60030-043120FM-12+0019BGPC V0202801N012312200019N0250001N1-00511-01621099581ADDAA106000091GA1001+999999999GF100991001001999999001001MA1999999098641MD1210061+9999REMSYN070AAXX  05004 04390 32975 02824 11051 21162 39864 49958 52006 333 91134;EQDQ01  00002PRCP06
0153043900999992000010503004+60030-043120FM-12+0019BGPC V0202701N010812200019N9999999N1-00561-01671099681ADDGA1001+999999999GF100991001001999999001001MA1999999098741MD1210101+9999REMSYN070AAXX  05034 04390 429// 02721 11056 21167 39874 49968 52010 333 91137;
0238043900999992000010506004+60030-043120FM-12+0019BGPC V0202601N009312200019N0150001N1-00621-01721099651ADDAA106000091GA1001+999999999GF100991001001999999001001KA1120M-00481KA2120N-00651MA1999999098711MD1710031+9999OA149901901REMSYN088AAXX  05064 04390 32965 02618 11062 21172 39871 49965 57003 333 11048 21065 91137 91231;EQDQ01  00002PRCP06
0160043900999992000010509004+60030-043120FM-12+0019BGPC V0202501N010819999999N0400001N1-00721-01731099581ADDGF105991051001999999071999MA1999999098641MD1710071+9999OA149901751REMSYN082AAXX  05094 04390 42982 52521 11072 21173 39864 49958 57007 8507/ 333 91134 91031;
0190043900999992000010512004+60030-043120FM-12+0019BGPC V0202701N010810210019N0350001N1-00681-01751099321ADDAA106000091GF106991061001022501021999MA1999999098381MD1710261+9999OA149901751REMSYN082AAXX  05124 04390 32881 62721 11068 21175 39838 49932 57026 8602/ 333 91134 91032;EQDQ01  00002PRCP06
0160043900999992000010515004+60030-043120FM-12+0019BGPC V0202501N004110210019N0300001N1-00611-01631099151ADDGF108991081001022501021999MA1999999098211MD1710171+9999OA149901901REMSYN082AAXX  05154 04390 42880 82508 11061 21163 39821 49915 57017 8802/ 333 91137 91227;
0228043900999992000010518004+60030-043120FM-12+0019BGPC V0202801N003110120019N0250001N1-00581-01401098791ADDAA106000091GF108991081001012501021999KA1120M-00541KA2120N-00741MA1999999097861MD1710351+9999OA149901901REMSYN094AAXX  05184 04390 32675 82806 11058 21140 39786 49879 57035 8802/ 333 11054 21074 91137 91227;EQDQ01  00002PRCP06
0161043900999992000010521004+60030-043120FM-12+0019BGPC V0200301N006210120019N0005001N1-00681+99999098421ADDAY171031AY221031GF108991081001012501021999MA1999999097491MD1710371+9999MW1711REMSYN072AAXX  05214 04390 41605 80312 11068 21067 39749 49842 57037 77172 8802/;
0207043900999992000010603004+60030-043120FM-12+0019BGPC V0200301N019010120019N0002001N1-00611-00631097101ADDAY171031AY271031GF108991081001012501021999MA1999999096181MD1710742+9999MW1711OA149902781REMSYN088AAXX  06034 04390 41602 80337 11061 21063 39618 49710 57074 77177 8802/ 333 91154 91053;EQDQ01+000742APC3  
0243043900999992000010606004+60030-043120FM-12+0019BGPC V0200101N016410120019N0003001N1-00431-00431096571ADDAA112001091AY171061AY271061GF108991081001012501021999KA1120M-00431KA2120N-00721MA1999999095671MD1710511+9999MW1711OA149903401REMSYN106AAXX  06064 04390 11603 80132 11043 21043 39567 49657 57051 60012 77177 8802/ 333 11043 21072 91166 91051;
0188043900999992000010609004+60030-043120FM-12+0019BGPC V0203201N015410075019N0010001N1-00311-00311096121ADDAY171031AY271031GF108991081021008001999999MA1999999095221MD1710451+9999MW1731OA149902931REMSYN088AAXX  06094 04390 41510 83230 11031 21031 39522 49612 57045 77377 882// 333 91157 91048;
0211043900999992000010612004+60030-043120FM-12+0019BGPC V0203301N013910042019N0003001N1-00251-00251095881ADDAA106007991AY171061AY271061GF108991081071004501999999MA1999999094991MD1710231+9999MW1711OA149902931REMSYN100AAXX  06124 04390 11403 83327 11025 21025 39499 49588 57023 60081 77177 887// 333 91157 91042 91238;
0188043900999992000010615004+60030-043120FM-12+0019BGPC V0203301N013410012019N0001001N1-00201-00201095851ADDAY171031AY271031GF108991081071001501999999MA1999999094961MD1710031+9999MW1731OA149902371REMSYN088AAXX  06154 04390 41201 83326 11020 21020 39496 49585 57003 77377 887// 333 91146 91045;
0190043900999992000010621004+60030-043120FM-12+0019BGPC V0203301N010310042019N0005001N1-00101+99999096551ADDAY171031AY271031GF108991081071004501999999MA1999999095661MD1210522+9999MW1711REMSYN082AAXX  06214 04390 41405 83320 11010 21009 39566 49655 52052 77177 887// 333 91143;EQDQ01+000522APC3  
0205043900999992000010700004+60030-043120FM-12+0019BGPC V0203101N005710120019N0100001N1-00051-00051097201ADDAA106000591AY171061AY221061GF108991081001012501021999MA1999999096301MD1210641+9999MW1001OA149902211REMSYN094AAXX  07004 04390 11660 83111 11005 21005 39630 49720 52064 69961 70072 8802/ 333 91143 91227;
0190043900999992000010703004+60030-043120FM-12+0019BGPC V0203301N007210042019N0010001N1-00261-00261097761ADDAY171031AY271031GF108991081071004501999999MA1999999096851MD1210552+9999MW1711REMSYN082AAXX  07034 04390 41410 83314 11026 21026 39685 49776 52055 77177 887// 333 91124;EQDQ01+000552APC3  
0243043900999992000010706004+60030-043120FM-12+0019BGPC V0203301N011310042019N0003001N1-00491-00491098221ADDAA112003091AY171061AY271061GF108991081071004501999999KA1120M-00031KA2120N-00491MA1999999097301MD1210451+9999MW1711OA149901701REMSYN106AAXX  07064 04390 11403 83322 11049 21049 39730 49822 52045 60032 77177 887// 333 11003 21049 91133 91033;
0188043900999992000010709004+60030-043120FM-12+0019BGPC V0203301N015410075019N0010001N1-00761-00791098551ADDAY171031AY271031GF108991081051008001999999MA1999999097621MD1210321+9999MW1731OA149902471REMSYN088AAXX  07094 04390 41510 83330 11076 21079 39762 49855 52032 77377 885// 333 91148 91045;
0205043900999992000010712004+60030-043120FM-12+0019BGPC V0203301N018512200019N0100001N1-00881-00951098711ADDAA106006191AY121061AY211061GF103991031001017501021999MA1999999097771MD1210151+9999MW1391OA149902831REMSYN094AAXX  07124 04390 11760 33336 11088 21095 39777 49871 52015 60061 73921 8302/ 333 91155 91051;
0198043900999992000010715004+60030-043120FM-12+0019BGPC V0203301N014912200019N0100001N1-00881-01161098861ADDAY111031AY201031GA1001+999999999GF100991001001999999001001MA1999999097921MD1210151+9999MW1391OA149902831REMSYN082AAXX  07154 04390 41960 03329 11088 21116 39792 49886 52015 73910 333 91155 91048;
0249043900999992000010718004+60030-043120FM-12+0019BGPC V0203301N014410210019N0100001N1-00871-01481099081ADDAA112000191AY121061AY201061GF105991051001022501041051KA1120M-00491KA2120N-00981MA1999999098141MD1210221+9999MW1381OA149902831REMSYN112AAXX  07184 04390 11860 53328 11087 21148 39814 49908 52022 69912 73820 85045 333 11049 21098 91155 91041 91239;
0160043900999992000010721004+60030-043120FM-12+0019BGPC V0203301N006712200019N0150001N1-00901-01701099461ADDGF102991021001999999041999MA1999999098511MD1210371+9999OA149902111REMSYN082AAXX  07214 04390 42965 23313 11090 21170 39851 49946 52037 8204/ 333 91141 91228;
0200043900999992000010800004+60030-043120FM-12+0019BGPC V0203301N006212200019N0250001N1-00881-01821099631ADDAA106000091GA1001+999999999GF100991001001999999001001MA1999999098681MD1210171+9999OA149902111REMSYN076AAXX  08004 04390 32975 03312 11088 21182 39868 49963 52017 333 91141 91228;EQDQ01  00002PRCP06
0153043900999992000010803004+60030-043120FM-12+0019BGPC V0203301N005112200019N9999999N1-00811-01761099621ADDGA1001+999999999GF100991001001999999001001MA1999999098671MD1710011+9999REMSYN070AAXX  08034 04390 429// 03310 11081 21176 39867 49962 57001 333 91124;
0221043900999992000010806004+60030-043120FM-12+0019BGPC V0203301N006212200019N0150001N1-00781-01761099581ADDAA106000091GA1001+999999999GF100991001001999999001001KA1120M-00761KA2120N-00991MA1999999098631MD1710041+9999REMSYN082AAXX  08064 04390 32965 03312 11078 21176 39863 49958 57004 333 11076 21099 91124;EQDQ01  00002PRCP06
0111043900999992000010809004+60030-043120FM-12+0019BGPC V0203301N004619999999N9999999N1-00781-01841099611ADDMA1999999098661MD1210031+9999REMSYN070AAXX  08094 04390 46/// /3309 11078 21184 39866 49961 52003 333 91128;
0183043900999992000010812004+60030-043120FM-12+0019BGPC V0203301N005112200019N0250001N1-00701-01771099751ADDAA106000091GA1001+999999999GF100991001001999999001001MA1999999098811MD1210151+9999REMSYN070AAXX  08124 04390 32975 03310 11070 21177 39881 49975 52015 333 91128;EQDQ01  00002PRCP06
0133043900999992000010815004+60030-043120FM-12+0019BGPC V0203301N007712200019N0300001N1-00701-01711099841ADDGF101991011001022501021999MA1999999098901MD1210091+9999REMSYN066AAXX  08154 04390 42880 13315 11070 21171 39890 49984 52009 8102/;
0205043900999992000010818004+60030-043120FM-12+0019BGPC V0203301N005712200019N0500001N1-00761-01771099721ADDAA106000091GF103991001001999999001061KA1120M-00671KA2999N-00831MA1999999098771MD1710131+9999REMSYN082AAXX  08184 04390 32984 33311 11076 21177 39877 49972 57013 80006 333 11067 21083;EQDQ01  00002PRCP06
0143043900999992000010821004+60030-043120FM-12+0019BGPC V0203301N003612200019N0250001N1-00771-01781099651ADDGA1001+999999999GF100991001001999999001001MA1999999098701MD1710071+9999REMSYN060AAXX  08214 04390 42975 03307 11077 21178 39870 49965 57007;
0193043900999992000010900004+60030-043120FM-12+0019BGPC V0203301N002112200019N0250001N1-00801-01721099211ADDAA106000091GA1001+999999999GF100991001001999999001001MA1999999098271MD1710431+9999REMSYN080AAXX  09004 04390 32975 03304 11080 21172 39827 49921 57043 333 91215 555 61025;EQDQ01  00002PRCP06
0162043900999992000010903004+60030-043120FM-12+0019BGPC V0203301N007710150019N0050001N1-00771-01581098671ADDGF108991081001017501021999MA1999999097731MD1710542+9999REMSYN076AAXX  09034 04390 42750 83315 11077 21158 39773 49867 57054 8802/ 333 91121;EQDQ01+000542APC3  
0179043900999992000010909004+60030-043120FM-12+0019BGPC V0203301N014419999999N9999999N1-00791-01261097222ADDMA1999999096302MD1710512+9999OA149902681REMSYN076AAXX  09094 04390 46/// /3328 11079 21126 39630 49722 57051 333 91152 91046;EQDQ01+096303APOSP Q02+097223APOSLPQ03+000512APC3  
0205043900999992000010912004+60030-043120FM-12+0019BGPC V0203301N005710120019N0080001N1-00741-00961097321ADDAA106000191AY171061AY221061GF108991081001012501021999MA1999999096401MD1210101+9999MW1711OA149902681REMSYN094AAXX  09124 04390 11658 83311 11074 21096 39640 49732 52010 69921 77172 8802/ 333 91152 91230;
0161043900999992000010915004+60030-043120FM-12+0019BGPC V0203301N001510150019N0020001N1-00761-00771097501ADDAY171031AY271031GF108991081001017501021999MA1999999096581MD1210181+9999MW1711REMSYN072AAXX  09154 04390 41720 83303 11076 21077 39658 49750 52018 77177 8802/;
0220043900999992000010918004+60030-043120FM-12+0019BGPC V0203301N00411030001CN0300001N1-00581-00601097691ADDAA112003091AY171061AY221061GF106991021061004501021999KA1120M-00581KA2999N-00821MA1999999096771MD1210191+9999MW1001REMSYN094AAXX  09184 04390 11480 63308 11058 21060 39677 49769 52019 60032 70072 8262/ 333 11058 21082;
0188043900999992000010921004+60030-043120FM-12+0019BGPC V0203301N012312200019N0020001N1-00601-01651097981ADDAY131031AY221031GF102991021001012501051999MA1999999097061MD1210291+9999MW1361OA149901801REMSYN088AAXX  09214 04390 41620 23324 11060 21165 39706 49798 52029 73632 8205/ 333 91135 91035;
0218043900999992000011000004+60030-043120FM-12+0019BGPC V0203301N012312200019N0050001N1-00771-01751098221ADDAA106000091AY111061AY201061GF104991041001022501051999MA1999999097291MD1210231+9999MW1371OA149902211REMSYN088AAXX  10004 04390 31850 43324 11077 21175 39729 49822 52023 73710 8405/ 333 91143 91037;EQDQ01  00002PRCP06
0211043900999992000011003004+60030-043120FM-12+0019BGPC V0203301N011812200019N0100001N1-00831-01911098421ADDAA106000091AY111031AY201031GA1001+999999999GF100991001001999999001001MA1999999097481MD1210191+9999MW1361REMSYN076AAXX  10034 04390 31960 03323 11083 21191 39748 49842 52019 73610 333 91148;EQDQ01  00002PRCP06
0214043900999992000011006004+60030-043120FM-12+0019BGPC V0203301N014912200019N9999999N1-00841-01891999999ADDAA106000091GA1001+999999999GF100991001001999999001001KA1120M-00551KA2120N-00871OA149902521REMSYN093AAXX  10064 04390 319// 03329 11084 21189 3974 49841 57001 73600 333 11055 21087 91149 91046;EQDQ01  00002PRCP06
0198043900999992000011009004+60030-043120FM-12+0019BGPC V0203301N015412200019N0100001N1-00821-01871098231ADDAY131031AY231031GA1001+999999999GF100991001001999999001001MA1999999097301MD1710171+9999MW1361OA149903141REMSYN082AAXX  10094 04390 41960 03330 11082 21187 39730 49823 57017 73633 333 91161 91045;
0228043900999992000011012004+60030-043120FM-12+0019BGPC V0203301N019512200019N0100001N1-00921-01971098041ADDAA106000091AY131061AY201061GA1001+999999999GF100991001001999999001001MA1999999097101MD1710201+9999MW1391OA149903141REMSYN082AAXX  10124 04390 31960 03338 11092 21197 39710 49804 57020 73930 333 91161 91055;EQDQ01  00002PRCP06
0188043900999992000011015004+60030-043120FM-12+0019BGPC V0202701N020012200019N0500001N1-00841-01841098011ADDAY131031AY231031GF104991041001999999041999MA1999999097081MD1710021+9999MW1361OA149903241REMSYN088AAXX  10154 04390 41984 42739 11084 21184 39708 49801 57002 73633 8404/ 333 91163 91056;
0256043900999992000011018004+60030-043120FM-12+0019BGPC V0202701N019519999999N0300001N1-00731-01691098341ADDAA106000091AY131061AY231061GF105991051001999999041999KA1120M-00731KA2120N-00971MA1999999097411MD1210331+9999MW1361OA149903241REMSYN100AAXX  10184 04390 31980 52738 11073 21169 39741 49834 52033 73633 8504/ 333 11073 21097 91163 91050;EQDQ01  00002PRCP06
0194043900999992000011021004+60030-043120FM-12+0019BGPC V0202801N015419999999N0080001N1-00661-01621098671ADDAY121031AY221031GF106991061001999999041999MA1999999097741MD1210331+9999MW1361OA149903091REMSYN094AAXX  10214 04390 41958 62830 11066 21162 39774 49867 52033 73622 8604/ 333 91160 91045 91243;
0206043900999992000011103004+60030-043120FM-12+0019BGPC V0202701N013912200019N0250001N1-00571-01771099341ADDAA106000091GA1001+999999999GF100991001001999999001001MA1999999098401MD1210391+9999OA149902631REMSYN082AAXX  11034 04390 32975 02727 11057 21177 39840 49934 52039 333 91151 91037 91238;EQDQ01  00002PRCP06
0266043900999992000011106004+60030-043120FM-12+0019BGPC V0202701N018012200019N9999999N1-00481-01781099591ADDAA106000091AY101061AY201061GA1001+999999999GF100991001001999999001001KA1120M-00471KA2120N-00731MA1999999098661MD1210261+9999MW1361OA149902631REMSYN094AAXX  11064 04390 319// 02735 11048 21178 39866 49959 52026 73600 333 11047 21073 91151 91050;EQDQ01  00002PRCP06
0204043900999992000011109004+60030-043120FM-12+0019BGPC V0202801N014412200019N0100001N1-00431-01671099951ADDAY131031AY231031GA1001+999999999GF100991001001999999001001MA1999999099011MD1210351+9999MW1361OA149902631REMSYN088AAXX  11094 04390 41960 02828 11043 21167 39901 49995 52035 73633 333 91151 91040 91239;
0218043900999992000011112004+60030-043120FM-12+0019BGPC V0202801N018012200019N0300001N1-00221-01741100291ADDAA106000091AY101061AY201061GF101991011001022501021999MA1999999099361MD1210351+9999MW1361OA149902631REMSYN088AAXX  11124 04390 31880 12835 11022 21174 39936 40029 52035 73600 8102/ 333 91151 91046;EQDQ01  00002PRCP06
0166043900999992000011115004+60030-043120FM-12+0019BGPC V0202801N010312200019N0500001N1-00211-01621100881ADDGF101991011001999999041001MA1999999099941MD1210581+9999OA149902371REMSYN088AAXX  11154 04390 42984 12820 11021 21162 39994 40088 52058 81040 333 91146 91031 91236;
0228043900999992000011118004+60030-043120FM-12+0019BGPC V0203001N008219999999N0350001N1-00221-01491101341ADDAA106000091GF105991031001999999041051KA1120M-00141KA2120N-00481MA1999999100401MD1210461+9999OA149902371REMSYN094AAXX  11184 04390 32981 53016 11022 21149 30040 40134 52046 83045 333 11014 21048 91146 91236;EQDQ01  00002PRCP06
0143043900999992000011121004+60030-043120FM-12+0019BGPC V0202901N008212200019N0250001N1-00291-01551101691ADDGF104991041001999999041001MA1999999100741MD1210341+9999REMSYN076AAXX  11214 04390 42975 42916 11029 21155 30074 40169 52034 84040 333 91127;
0200043900999992000011200004+60030-043120FM-12+0019BGPC V0202801N004112200019N0250001N1-00321-01531101811ADDAA106000091GA1001+999999999GF100991001001999999001001MA1999999100861MD1210121+9999OA149901391REMSYN076AAXX  12004 04390 32975 02808 11032 21153 30086 40181 52012 333 91127 91219;EQDQ01  00002PRCP06
0143043900999992000011203004+60030-043120FM-12+0019BGPC V0202501N004612200019N0250001N1-00341-01441101851ADDGA1001+999999999GF100991001001999999001001MA1999999100901MD1210041+9999REMSYN060AAXX  12034 04390 42975 02509 11034 21144 30090 40185 52004;
0215043900999992000011206004+60030-043120FM-12+0019BGPC V0202201N004112200019N9999999N1-00261-01281101921ADDAA106000091GA1001+999999999GF100991001001999999001001KA1120M-00201KA2999N-00431MA1999999100971MD1210071+9999REMSYN076AAXX  12064 04390 329// 02208 11026 21128 30097 40192 52007 333 11020 21043;EQDQ01  00002PRCP06
0143043900999992000011209004+60030-043120FM-12+0019BGPC V0202701N001010075019N0100001N1-00211-00661101981ADDGF108991081051008001999999MA1999999101031MD1210061+9999REMSYN076AAXX  12094 04390 42560 82702 11021 21066 30103 40198 52006 885// 333 91217;
0188043900999992000011212004+60030-043120FM-12+0019BGPC V0201701N001510021019N0010001N1-00081-00191101861ADDAA106000191AY171061AY221061GF108991081071002501999999MA1999999100921MD1710111+9999MW1711REMSYN088AAXX  12124 04390 11310 81703 11008 21019 30092 40186 57011 69911 77172 887// 333 91217;
0161043900999992000011215004+60030-043120FM-12+0019BGPC V0209999C000010042019N0030001N1-00131-00131101761ADDAY171031AY271031GF108991081071004501999999MA1999999100821MD1710101+9999MW1731REMSYN072AAXX  12154 04390 41430 80000 11013 21013 30082 40176 57010 77377 887//;
0220043900999992000011218004+60030-043120FM-12+0019BGPC V0209999C000010042019N0020001N1-00181-00181101651ADDAA112025991AY171061AY271061GF108991081021004501999999KA1120M-00041KA2999N-00261MA1999999100711MD1710111+9999MW1731REMSYN094AAXX  12184 04390 11420 80000 11018 21018 30071 40165 57011 60262 77377 882// 333 11004 21026;
0161043900999992000011221004+60030-043120FM-12+0019BGPC V0200401N002610120019N0010001N1-00231-00231101841ADDAY171031AY271031GF108991081001012501021999MA1999999100891MD1210181+9999MW1711REMSYN072AAXX  12214 04390 41610 80405 11023 21023 30089 40184 52018 77177 8802/;
0178043900999992000011300004+60030-043120FM-12+0019BGPC V0200301N004110042019N0020001N1-00261-00261101991ADDAA106007991AY171061AY221061GF108991081021004501999999MA1999999101041MD1210151+9999MW1701REMSYN078AAXX  13004 04390 11420 80308 11026 21026 30104 40199 52015 60081 77072 882//;
0161043900999992000011303004+60030-043120FM-12+0019BGPC V0200401N002610120019N0050001N1-00281-00281102001ADDAY171031AY271031GF108991081001012501021999MA1999999101051MD1210011+9999MW1711REMSYN072AAXX  13034 04390 41650 80405 11028 21028 30105 40200 52001 77177 8802/;
0220043900999992000011306004+60030-043120FM-12+0019BGPC V0200401N004110120019N0015001N1-00291-00291101911ADDAA112013091AY171061AY271061GF108991081001012501021999KA1120M-00181KA2999N-00331MA1999999100961MD1710091+9999MW1711REMSYN094AAXX  13064 04390 11615 80408 11029 21029 30096 40191 57009 60132 77177 8802/ 333 11018 21033;
0171043900999992000011309004+60030-043120FM-12+0019BGPC V0200301N005710120019N0005001N1-00291-00291101771ADDAY171031AY201031GF108991081001012501021999MA1999999100821MD1710141+9999MW1711REMSYN082AAXX  13094 04390 41605 80311 11029 21029 30082 40177 57014 77170 8802/ 333 91118;
0188043900999992000011312004+60030-043120FM-12+0019BGPC V0200301N010810120019N0005001N1-00201-00201101401ADDAA106008991AY171061AY271061GF108991081001012501021999MA1999999100461MD1710361+9999MW1711REMSYN088AAXX  13124 04390 11605 80321 11020 21020 30046 40140 57036 60091 77177 8802/ 333 91135;
0188043900999992000011315004+60030-043120FM-12+0019BGPC V0200201N009310120019N0004001N1-00121-00121100921ADDAY171031AY271031GF108991081001012501021999MA1999999099991MD1710471+9999MW1711OA149901961REMSYN088AAXX  13154 04390 41604 80218 11012 21012 39999 40092 57047 77177 8802/ 333 91138 91029;
0243043900999992000011318004+60030-043120FM-12+0019BGPC V0200201N006210042019N0020001N1-00101-00101100531ADDAA112013091AY171061AY271061GF108991081021004501999999KA1120M-00061KA2120N-00301MA1999999099601MD1710391+9999MW1731OA149901961REMSYN106AAXX  13184 04390 11420 80212 11010 21010 39960 40053 57039 60132 77377 882// 333 11006 21030 91138 91226;
0164043900999992000011321004+60030-043120FM-12+001999999V0209999C000010120019N0050001N1-00031-00031100631ADDGF108991081051012501999999MA1999999099701MD1210101+9999OA149900931REMSYN086    AAXX  13214 04390 42650 80000 11003 21003 39970 40063 52010 885// 333 91118 91212;
0209043900999992000011400004+60030-043120FM-12+001999999V0209999C000010075019N0050001N1-00131-00131100821ADDAA106003091AY171061AY221061GF108991081051008001999999MA1999999099891MD1210191+9999MW1001OA149900931REMSYN098    AAXX  14004 04390 11550 80000 11013 21013 39989 40082 52019 60031 70072 885// 333 91118 91212;
0137043900999992000011403004+60030-043120FM-12+001999999V0209999C000010075019N0100001N1-00131-00131100781ADDGF108991081051008001999999MA1999999099851MD1710041+9999REMSYN070    AAXX  14034 04390 42560 80000 11013 21013 39985 40078 57004 885//;
0196043900999992000011406004+60030-043120FM-12+001999999V0209999C000010075019N0050001N1-00081-00081100521ADDAA112003091GF108991081051008001999999KA1120M-00011KA2999N-00161MA1999999099591MD1710261+9999REMSYN092    AAXX  14064 04390 12550 80000 11008 21008 39959 40052 57026 60032 885// 333 11001 21016;
0244043900999992000011412004+60030-043120FM-12+001999999V0200301N012910120019N0020001N1-00021-00021099322ADDAA106004191AY171061AY221061GF108991081001012501021999MA1999999098401MD1710742+9999MW1681OA149902111REMSYN098    AAXX  14124 04390 11620 80325 11002 21002 39840 49932 57074 60041 76872 8802/ 333 91141 91036;EQDQ01+099323APOSLPQ02+000742APC3  
0175043900999992000011415004+60030-043120FM-12+001999999V0200301N003610075019N0020001N1-00021-00021099051ADDAY171031AY271031GF108991081001008001021999MA1999999098141MD1710261+9999MW1711REMSYN086    AAXX  14154 04390 41520 80307 11002 21002 39814 49905 57026 77177 8802/ 333 911/5;
0209043900999992000011500004+60030-043120FM-12+001999999V0202101N003110075019N0010001N1-00061-00231100081ADDAA106000791AY171061AY221061GF108991081001008001021999MA1999999099151MD1710011+9999MW1711OA149901601REMSYN098    AAXX  15004 04390 11510 82106 11006 21023 39915 40008 57001 69901 77172 8802/ 333 91131 91222;
0184043900999992000011503004+60030-043120FM-12+001999999V0200701N004110075019N0020001N1-00061-00141099401ADDAY171031AY271031GF108991081001008001021999MA1999999098481MD1710672+9999MW1711REMSYN076    AAXX  15034 04390 41520 80708 11006 21014 39848 49940 57067 77177 8802/;EQDQ01+000672APC3  
0282043900999992000011506004+60030-043120FM-12+001999999V0201901N021110120019N0020001N1+00381+00381098742ADDAA112017091AY161061AY221061GF108991081001012501021999KA1120M+00411KA2120N-00161MA1999999097842MD1710641+9999MW1601OA149903041REMSYN110    AAXX  15064 04390 11620 81941 10038 20038 39784 49874 57064 60172 76062 8802/ 333 10041 21016 91159 91059;EQDQ01+097843APOSP Q02+098743APOSLP
0202043900999992000011509004+60030-043120FM-12+001999999V0202301N018012200019N0100001N1+00471-00481099191ADDAY171031AY201031GA1001+999999999GF100991001001999999001001MA1999999098291MD1210451+9999MW1001OA149903041REMSYN086    AAXX  15094 04390 41960 02335 10047 21048 39829 49919 52045 70070 333 91159 91055;
0244043900999992000011512004+60030-043120FM-12+001999999V0202201N008210021019N0050001N1+00021-00041100562ADDAA106003091AY171061AY271061GF108991081061002501999999MA1999999099632MD1211341+9999MW1771OA149903041REMSYN098    AAXX  15124 04390 11350 82216 10002 21004 39963 40056 52134 60031 77777 886// 333 91159 91241;EQDQ01+099633APOSP Q02+100563APOSLP
0210043900999992000011515004+60030-043120FM-12+001999999V0202001N011310042019N0150001N1+00131-00251101111ADDAY171031AY271031GF107991071021004501021999MA1999999100181MD1410001+9999MW1771REMSYN086    AAXX  15154 04390 41465 72022 10013 21025 30018 40111 52055 77777 8722/ 333 91135;EQDQ01+000022APCTENQ02+000552APC3  
0219043900999992000011518004+60030-043120FM-12+001999999V0202201N007710120019N0150001N1+00081-00211101411ADDAA112003091GF108991081001012501021999KA1120M+00471KA2120N+00001MA1999999100481MD1210301+9999OA149901801REMSYN104    AAXX  15184 04390 12665 82215 10008 21021 30048 40141 52030 60032 8802/ 333 10047 20000 91135 91225;
0175043900999992000011521004+60030-043120FM-12+001999999V0202201N002610075019N0020001N1-00051-00141101491ADDAY171031AY221031GF108991081001008001021999MA1999999100551MD1210071+9999MW1711REMSYN086    AAXX  15214 04390 41520 82205 11005 21014 30055 40149 52007 77172 8802/ 333 91217;
0192043900999992000011600004+60030-043120FM-12+001999999V0201701N001010075019N0020001N1-00091-00101101471ADDAA106000891AY171061AY271061GF108991081001008001021999MA1999999100531MD1710021+9999MW1711REMSYN092    AAXX  16004 04390 11520 81702 11009 21010 30053 40147 57002 69981 77177 8802/ 333 91217;
0105043900999992000011603004+60030-043120FM-12+001999999V0202501N003619999999N9999999N1-00061-00081101431ADDMA1999999100491MD1710041+9999REMSYN064    AAXX  16034 04390 46/// /2507 11006 21008 30049 40143 57004;
0224043900999992000011606004+60030-043120FM-12+001999999V0202401N002119999999N0030001N1-00051-00111101461ADDAA112000891AY171061AY221061GF108991081001999999041999KA1120M+00081KA2999N-00131MA1999999100521MD1210031+9999MW1701REMSYN098    AAXX  16064 04390 11930 82404 11005 21011 30052 40146 52003 69982 77072 8804/ 333 10008 21013;
0165043900999992000011609004+60030-043120FM-12+001999999V0202201N002110120019N0010001N1-00071-00071101581ADDAY171031AY221031GF108991081001012501021999MA1999999100641MD1210121+9999MW1681REMSYN076    AAXX  16094 04390 41610 82204 11007 21007 30064 40158 52012 76872 8802/;
0182043900999992000011612004+60030-043120FM-12+001999999V0202601N002610075019N0100001N1-00101-00151101791ADDAA106000391AY171061AY221061GF108991081001008001021999MA1999999100851MD1210211+9999MW1701REMSYN082    AAXX  16124 04390 11560 82605 11010 21015 30085 40179 52021 69931 77072 8802/;
0165043900999992000011615004+60030-043120FM-12+001999999V0202301N002610210019N0200001N1-00061-00331101901ADDAY171031AY221031GF107991071001022501071999MA1999999100961MD1210111+9999MW1001REMSYN076    AAXX  16154 04390 41870 72305 11006 21033 30096 40190 52011 70072 8707/;
0137043900999992000011621004+60030-043120FM-12+001999999V0202301N003610120019N0200001N1-00031-00471102131ADDGF108991081001012501021999MA1999999101191MD1210151+9999REMSYN070    AAXX  16214 04390 42670 82307 11003 21047 30119 40213 52015 8802/;
0182043900999992000011700004+60030-043120FM-12+001999999V0202201N002610075019N0005001N1-00201+99999102261ADDAA106001091AY171061AY271061GF108991081001008001021999MA1999999101311MD1210121+9999MW1711REMSYN082    AAXX  17004 04390 11505 82205 11020 21019 30131 40226 52012 60011 77177 8802/;
0165043900999992000011703004+60030-043120FM-12+001999999V0202201N001510075019N0005001N1-00201+99999102321ADDAY171031AY271031GF108991081001008001021999MA1999999101371MD1210061+9999MW1711REMSYN076    AAXX  17034 04390 41505 82203 11020 21019 30137 40232 52006 77177 8802/;
0224043900999992000011706004+60030-043120FM-12+001999999V0202201N005710075019N0100001N1-00131-00141102451ADDAA112004191AY171061AY271061GF108991081051008001999999KA1120M+00031KA2999N-00221MA1999999101501MD1210131+9999MW1681REMSYN098    AAXX  17064 04390 11560 82211 11013 21014 30150 40245 52013 60042 76877 885// 333 10003 21022;
0165043900999992000011709004+60030-043120FM-12+001999999V0200201N005110042019N0010001N1-00101-00101102621ADDAY171031AY271031GF108991081051004501999999MA1999999101671MD1210171+9999MW1711REMSYN076    AAXX  17094 04390 41410 80210 11010 21010 30167 40262 52017 77177 885//;
0182043900999992000011712004+60030-043120FM-12+001999999V0200301N003610042019N0020001N1-00151-00151102851ADDAA106004191AY171061AY271061GF108991081051004501999999MA1999999101901MD1210231+9999MW1711REMSYN082    AAXX  17124 04390 11420 80307 11015 21015 30190 40285 52023 60041 77177 885//;
0165043900999992000011715004+60030-043120FM-12+001999999V0200201N005710075019N0010001N1-00171-00171102921ADDAY171031AY271031GF108991081001008001021999MA1999999101961MD1210061+9999MW1711REMSYN076    AAXX  17154 04390 41510 80211 11017 21017 30196 40292 52006 77177 8802/;
0224043900999992000011718004+60030-043120FM-12+001999999V0200501N002610021019N0050001N1-00181-00181102881ADDAA106006191AY171061AY271061GF108991081071002501999999KA1120M-00101KA2999N-00201MA1999999101921MD1710041+9999MW1711REMSYN098    AAXX  17184 04390 11350 80505 11018 21018 30192 40288 57004 60061 77177 887// 333 11010 21020;
0165043900999992000011721004+60030-043120FM-12+001999999V0200401N004610042019N0005001N1-00161-00161102931ADDAY171031AY271031GF108991081051004501999999MA1999999101981MD1210061+9999MW1711REMSYN076    AAXX  17214 04390 41405 80409 11016 21016 30198 40293 52006 77177 885//;
0182043900999992000011800004+60030-043120FM-12+001999999V0200401N005110075019N0030001N1-00161-00161102981ADDAA106003091AY171061AY271061GF108991081021008001999999MA1999999102021MD1210041+9999MW1791REMSYN082    AAXX  18004 04390 11530 80410 11016 21016 30202 40298 52004 60031 77977 882//;
0165043900999992000011803004+60030-043120FM-12+001999999V0200401N004110075019N0050001N1-00161-00171102921ADDAY171031AY271031GF108991081001008001021999MA1999999101971MD1710051+9999MW1711REMSYN076    AAXX  18034 04390 41550 80408 11016 21017 30197 40292 57005 77177 8802/;
0224043900999992000011806004+60030-043120FM-12+001999999V0200301N004610075019N0100001N1-00131-00141102881ADDAA112005191AY171061AY271061GF108991081051008001999999KA1120M-00061KA2999N-00181MA1999999101931MD1710041+9999MW1711REMSYN098    AAXX  18064 04390 11560 80309 11013 21014 30193 40288 57004 60052 77177 885// 333 11006 21018;
0165043900999992000011809004+60030-043120FM-12+001999999V0200301N006210075019N0020001N1-00161-00161102781ADDAY171031AY271031GF108991081051008001999999MA1999999101831MD1710101+9999MW1711REMSYN076    AAXX  18094 04390 41520 80312 11016 21016 30183 40278 57010 77177 885//;
0182043900999992000011812004+60030-043120FM-12+001999999V0200301N006210042019N0020001N1-00191-00191102771ADDAA106003091AY171061AY271061GF108991081071004501999999MA1999999101821MD1710011+9999MW1711REMSYN082    AAXX  18124 04390 11420 80312 11019 21019 30182 40277 57001 60031 77177 887//;
0165043900999992000011815004+60030-043120FM-12+001999999V0200401N005110042019N0070001N1-00081-00091102671ADDAY171031AY221031GF108991081071004501999999MA1999999101721MD1710101+9999MW1001REMSYN076    AAXX  18154 04390 41457 80410 11008 21009 30172 40267 57010 70072 887//;
0224043900999992000011818004+60030-043120FM-12+001999999V0200401N005110042019N0200001N1-00061-00071102441ADDAA112006191AY171061AY271061GF108991081021004501999999KA1120M-00031KA2999N-00211MA1999999101491MD1710231+9999MW1791REMSYN098    AAXX  18184 04390 11470 80410 11006 21007 30149 40244 57023 60062 77977 882// 333 11003 21021;
0175043900999992000011821004+60030-043120FM-12+001999999V0200301N007210075019N0010001N1-00091-00101102431ADDAY171031AY221031GF108991081051008001999999MA1999999101481MD1710011+9999MW1711REMSYN086    AAXX  18214 04390 41510 80314 11009 21010 30148 40243 57001 77172 885// 333 91127;
0209043900999992000011900004+60030-043120FM-12+001999999V0200501N004110075019N0050001N1-00091-00091102351ADDAA106002091AY171061AY271061GF108991081021008001999999MA1999999101401MD1710081+9999MW1561OA149901391REMSYN098    AAXX  19004 04390 11550 80508 11009 21009 30140 40235 57008 60021 75677 882// 333 91127 91219;
0175043900999992000011903004+60030-043120FM-12+001999999V0200101N004610042019N0020001N1-00081-00081102221ADDAY151031AY251031GF108991081061004501999999MA1999999101271MD1710131+9999MW1561REMSYN086    AAXX  19034 04390 41420 80109 11008 21008 30127 40222 57013 75655 886// 333 91116;
0182043900999992000011912004+60030-043120FM-12+001999999V0200301N005710042019N0100001N1+00091+00061101721ADDAA106013091AY171061AY271061GF108991081071004501999999MA1999999100781MD1710151+9999MW1631REMSYN082    AAXX  19124 04390 11460 80311 10009 20006 30078 40172 57015 60131 76377 887//;
0175043900999992000011915004+60030-043120FM-12+001999999V0200201N007710021019N0050001N1+00071+00061101561ADDAY161031AY261031GF108991081071002501999999MA1999999100631MD1710151+9999MW1631REMSYN086    AAXX  19154 04390 41350 80215 10007 20006 30063 40156 57015 76366 887// 333 91122;
0243043900999992000011918004+60030-043120FM-12+0019BGPC V0200301N014410042019N0100001N1+00071+00061101371ADDAA112030091AY171061AY271061GF108991081071004501999999KA1120M+00111KA2120N-00071MA1999999100441MD1710191+9999MW1631OA149902061REMSYN106AAXX  19184 04390 11460 80328 10007 20006 30044 40137 57019 60302 76377 887// 333 10011 21007 91140 91040;
0171043900999992000011921004+60030-043120FM-12+0019BGPC V0200301N011810075019N0050001N1+00111+00111101281ADDAY161031AY261031GF108991081051008001999999MA1999999100351MD1710091+9999MW1611REMSYN082AAXX  19214 04390 41550 80323 10011 20011 30035 40128 57009 76166 885// 333 91144;
0211043900999992000012000004+60030-043120FM-12+0019BGPC V0200201N007210075019N0030001N1+00121+00121101191ADDAA106008991AY171061AY271061GF108991081021008001999999MA1999999100261MD1710091+9999MW1631OA149902261REMSYN100AAXX  20004 04390 11530 80214 10012 20012 30026 40119 57009 60091 76377 882// 333 91144 91024 91231;
0243043900999992000012006004+60030-043120FM-12+0019BGPC V0200801N001510012019N0005001N1+00071+00071101491ADDAA112013091AY161061AY241061GF108991081061001501999999KA1120M+00271KA2120N+00061MA1999999100561MD1210211+9999MW1511OA149901241REMSYN106AAXX  20064 04390 11205 80803 10007 20007 30056 40149 52021 60132 75164 886// 333 10027 20006 91124 91215;
0133043900999992000012009004+60030-043120FM-12+0019BGPC V0202101N004110075019N0100001N1+00161+00041101671ADDGF107991071041008001999999MA1999999100741MD1210181+9999REMSYN066AAXX  20094 04390 42560 72108 10016 20004 30074 40167 52018 874//;
0150043900999992000012012004+60030-043120FM-12+0019BGPC V0202101N006710042019N0100001N1+00161-00221101981ADDAA106000191GF106991061071004501021999MA1999999101041MD1210301+9999REMSYN072AAXX  20124 04390 12460 62113 10016 21022 30104 40198 52030 69921 8672/;
0143043900999992000012015004+60030-043120FM-12+0019BGPC V0202301N007710042019N0150001N1+00131-00251102291ADDGF105991051071004501999999MA1999999101351MD1210311+9999REMSYN076AAXX  20154 04390 42465 52315 10013 21025 30135 40229 52031 857// 333 91123;
0226043900999992000012018004+60030-043120FM-12+0019BGPC V0202101N007210042019N0150001N1+00111-00271102431ADDAA106000191AY171061AY221061GF106991051071004501021051KA1120M+00211KA2120N+00051MA1999999101491MD1210141+9999MW1001REMSYN100AAXX  20184 04390 11465 62114 10011 21027 30149 40243 52014 69921 70072 85725 333 10021 20005 91123;
0133043900999992000012021004+60030-043120FM-12+0019BGPC V0202201N004112200019N0150001N1+00161-00451102731ADDGF104991041021004501999999MA1999999101791MD1210301+9999REMSYN066AAXX  20214 04390 42465 42208 10016 21045 30179 40273 52030 842//;
0163043900999992000012100004+60030-043120FM-12+0019BGPC V0202101N004119999999N0250001N1+00151-00401102791ADDAA199000091GF108991001001999999001071MA1999999101851MD1210061+9999REMSYN066AAXX  21004 04390 32975 82108 10015 21040 30185 40279 52006 80007;EQDQ01  00002PRCP99
0133043900999992000012103004+60030-043120FM-12+0019BGPC V0201701N001519999999N0200001N1+00061-00281102731ADDGF108991001001999999001071MA1999999101781MD1710071+9999REMSYN066AAXX  21034 04390 42970 81703 10006 21028 30178 40273 57007 80007;
0205043900999992000012106004+60030-043120FM-12+0019BGPC V0200301N003619999999N0250001N1-00021-00221102631ADDAA199000091GF106991001001999999001071KA1120M+00201KA2999N-00091MA1999999101681MD1710101+9999REMSYN082AAXX  21064 04390 32975 60307 11002 21022 30168 40263 57010 80007 333 10020 21009;EQDQ01  00002PRCP99
0171043900999992000012109004+60030-043120FM-12+0019BGPC V0200301N011310075019N0020001N1+00021+00011102421ADDAY171031AY221031GF108991081071008001999999MA1999999101481MD1710201+9999MW1681REMSYN082AAXX  21094 04390 41520 80322 10002 20001 30148 40242 57020 76872 887// 333 91132;
0205043900999992000012112004+60030-043120FM-12+0019BGPC V0200201N013410021019N0010001N1-00121-00121101981ADDAA106004191AY171061AY221061GF108991081071002501999999MA1999999101041MD1710441+9999MW1711OA149902631REMSYN094AAXX  21124 04390 11310 80226 11012 21012 30104 40198 57044 60041 77172 887// 333 91151 91039;
0188043900999992000012115004+60030-043120FM-12+0019BGPC V0200301N018010042019N0010001N1-00061-00061101651ADDAY171031AY271031GF108991081061004501999999MA1999999100711MD1710331+9999MW1771OA149902631REMSYN088AAXX  21154 04390 41410 80335 11006 21006 30071 40165 57033 77777 886// 333 91151 91048;
0161043900999992000012203004+60030-043120FM-12+0019BGPC V0201501N001010042019N0050001N1-00071+99999102161ADDAY171031AY271031GF108991081071004501999999MA1999999101221MD1210361+9999MW1711REMSYN072AAXX  22034 04390 41450 81502 11007 21006 30122 40216 52036 77177 887//;
0154043900999992000012212004+60030-043120FM-12+0019BGPC V0209999C000019999999N0350001N1-00151-00151102821ADDAA199000021GF106991061001999999051999MA1999999101871MD1210191+9999REMSYN076AAXX  22124 04390 32981 60000 11015 21015 30187 40282 52019 8605/ 333 91212;
0161043900999992000012214004+60030-043120FM-12+0019BGPC V0200301N008210042019N0005001N1-00081-00081102581ADDAY171999AY221999GF108991081051004501999999MA1999999101631MD1710121+9999MW1711REMSYN072AAXX  22144 04390 41405 80316 11008 21008 30163 40258 57012 77172 885//;
0101043900999992000012215004+60030-043120FM-12+0019BGPC V0203201N001019999999N9999999N1-00081+99999102781ADDMA1999999101831MD1710041+9999REMSYN060AAXX  22154 04390 46/// /3202 11008 21007 30183 40278 57004;
0161043900999992000012221004+60030-043120FM-12+0019BGPC V0200301N008210042019N0005001N1-00081-00081102581ADDAY171031AY221031GF108991081051004501999999MA1999999101631MD1710121+9999MW1711REMSYN072AAXX  22214 04390 41405 80316 11008 21008 30163 40258 57012 77172 885//;
0188043900999992000012300004+60030-043120FM-12+0019BGPC V0200201N009310075019N0050001N1-00061-00061102251ADDAA106002091AY171061AY271061GF108991081021008001999999MA1999999101301MD1710331+9999MW1661REMSYN088AAXX  23004 04390 11550 80218 11006 21006 30130 40225 57033 60021 76677 882// 333 91131;
0161043900999992000012303004+60030-043120FM-12+0019BGPC V0200301N006710042019N0050001N1-00021+99999101751ADDAY161031AY261031GF108991081071004501999999MA1999999100811MD1710491+9999MW1661REMSYN072AAXX  23034 04390 41450 80313 11002 21001 30081 40175 57049 76666 887//;
0243043900999992000012306004+60030-043120FM-12+0019BGPC V0200201N009810042019N0100001N1+00111-00111101221ADDAA112015091AY161061AY261061GF108991081071004501999999KA1120M+00111KA2120N-00121MA1999999100291MD1710521+9999MW1631OA149901541REMSYN106AAXX  23064 04390 11460 80219 10011 21011 30029 40122 57052 60152 76366 887// 333 10011 21012 91130 91030;
0188043900999992000012309004+60030-043120FM-12+0019BGPC V0203201N004610120019N0030001N1+00161+00161101261ADDAY161031AY261031GF108991081001012501021999MA1999999100331MD1210041+9999MW1611OA149902111REMSYN088AAXX  23094 04390 41630 83209 10016 20016 30033 40126 52004 76166 8802/ 333 91141 91228;
0205043900999992000012312004+60030-043120FM-12+0019BGPC V0200401N002610042019N0150001N1+00171+00101101601ADDAA106007191AY161061AY251061GF108991081071004501999999MA1999999100671MD1210341+9999MW1681OA149902111REMSYN094AAXX  23124 04390 11465 80405 10017 20010 30067 40160 52034 60071 76865 887// 333 91141 91228;
0171043900999992000012315004+60030-043120FM-12+0019BGPC V0200901N002110001519N0001001N1+00041+00041101761ADDAY141031AY221031GA1091+999999999GF109991091999999999999999MA1999999100821MD1210151+9999MW1471REMSYN066AAXX  23154 04390 41/01 90904 10004 20004 30082 40176 52015 74742;
0220043900999992000012318004+60030-043120FM-12+0019BGPC V0203401N001010012019N0020001N1+00011+00011101761ADDAA112007191AY151061AY241061GF108991081061001501999999KA1120M+00221KA2999N-00011MA1999999100821MD1410001+9999MW1511REMSYN094AAXX  23184 04390 11220 83402 10001 20001 30082 40176 54000 60072 75154 886// 333 10022 21001;
0133043900999992000012321004+60030-043120FM-12+0019BGPC V0203301N002610021019N0005001N1-00031-00031101721ADDGF108991081071002501999999MA1999999100781MD1710041+9999REMSYN066AAXX  23214 04390 43305 83305 11003 21003 30078 40172 57004 887//;
0178043900999992000012400004+60030-043120FM-12+0019BGPC V0200301N006710042019N0030001N1-00021-00021101491ADDAA106000791AY151061AY221061GF108991081051004501999999MA1999999100551MD1710231+9999MW1511REMSYN078AAXX  24004 04390 11430 80313 11002 21002 30055 40149 57023 69901 75152 885//;
0188043900999992000012403004+60030-043120FM-12+0019BGPC V0200301N013910042019N0010001N1-00071-00081101041ADDAY171031AY271031GF108991081021004501999999MA1999999100111MD1710441+9999MW1731OA149902011REMSYN088AAXX  24034 04390 41410 80327 11007 21008 30011 40104 57044 77377 882// 333 91139 91039;
0243043900999992000012406004+60030-043120FM-12+0019BGPC V0200301N013410075019N0010001N1-00031-00031100641ADDAA112002091AY171061AY271061GF108991081001008001021999KA1120M+00011KA2120N-00091MA1999999099711MD1710401+9999MW1711OA149902681REMSYN106AAXX  24064 04390 11510 80326 11003 21003 39971 40064 57040 60022 77177 8802/ 333 10001 21009 91152 91237;
0188043900999992000012409004+60030-043120FM-12+0019BGPC V0201601N002110042019N0100001N1-00021-00021100781ADDAY171031AY271031GF108991081051004501999999MA1999999099851MD1210141+9999MW1701OA149901851REMSYN088AAXX  24094 04390 41460 81604 11002 21002 39985 40078 52014 77077 885// 333 91136 91226;
0177043900999992000012412004+60030-043120FM-12+0019BGPC V0202201N004610042019N0100001N1+00011-00131100931ADDAA106001091GF105991051021004501021999MA1999999100001MD1210151+9999OA149901851REMSYN088AAXX  24124 04390 12460 52209 10001 21013 30000 40093 52015 60011 8522/ 333 91136 91226;
0171043900999992000012415004+60030-043120FM-12+0019BGPC V0202201N009310075019N0300001N1-00151-00381101141ADDAY171031AY221031GF106991061021008001999999MA1999999100201MD1210201+9999MW1701REMSYN082AAXX  24154 04390 41580 62218 11015 21038 30020 40114 52020 77072 862// 333 91136;
0154043900999992000012500004+60030-043120FM-12+0019BGPC V0202201N004112200019N0100001N1-00281-00801101951ADDAA199000021GF103991031071004501999999MA1999999101001MD1210181+9999REMSYN076AAXX  25004 04390 32460 32208 11028 21080 30100 40195 52018 837// 333 91125;
0143043900999992000012503004+60030-043120FM-12+0019BGPC V0202201N006212200019N0300001N1-00281-00801101961ADDGA1001+999999999GF100991001001999999001001MA1999999101011MD1210011+9999REMSYN060AAXX  25034 04390 42980 02212 11028 21080 30101 40196 52001;
0215043900999992000012506004+60030-043120FM-12+0019BGPC V0202201N005712200019N0250001N1-00221-00921101961ADDAA199000091GA1001+999999999GF100991001001999999001001KA1120M-00201KA2999N-00331MA1999999101011MD1410001+9999REMSYN076AAXX  25064 04390 32975 02211 11022 21092 30101 40196 54000 333 11020 21033;EQDQ01  00002PRCP99
0170043900999992000012509004+60030-043120FM-12+0019BGPC V0202701N005112200019N0250001N1-00191-00971102001ADDGA1001+999999999GF100991001001999999001001MA1999999101051MD1210041+9999OA149901601REMSYN076AAXX  25094 04390 42975 02710 11019 21097 30105 40200 52004 333 91131 91223;
0190043900999992000012512004+60030-043120FM-12+0019BGPC V0202701N006719999999N0200001N1-00171-01071101951ADDAA199000091GF107991071001999999021999MA1999999101001MD1710051+9999OA149901601REMSYN082AAXX  25124 04390 32970 72713 11017 21107 30100 40195 57005 8702/ 333 91131 91226;EQDQ01  00002PRCP99
0171043900999992000012515004+60030-043120FM-12+0019BGPC V0202801N013412200019N0350001N1-00241-01061101921ADDAY101031AY201031GF102991001001999999001041MA1999999100971MD1710031+9999MW1361REMSYN082AAXX  25154 04390 41981 22826 11024 21106 30097 40192 57003 73600 80004 333 91144;
0228043900999992000012518004+60030-043120FM-12+0019BGPC V0202401N007719999999N0250001N1-00251-01011102031ADDAA199000091GF106991061001999999021999KA1120M-00141KA2120N-00331MA1999999101081MD1210111+9999OA149902261REMSYN094AAXX  25184 04390 32975 62415 11025 21101 30108 40203 52011 8602/ 333 11014 21033 91144 91233;EQDQ01  00002PRCP99
0143043900999992000012521004+60030-043120FM-12+0019BGPC V0202501N006219999999N0050001N1-00231-01031102151ADDGF108991001001999999001061MA1999999101201MD1210121+9999REMSYN076AAXX  25214 04390 42950 82512 11023 21103 30120 40215 52012 80006 333 91132;
0190043900999992000012600004+60030-043120FM-12+0019BGPC V0202401N005712200019N0150001N1-00261-00971102321ADDAA199000091GF102991001001999999001061MA1999999101371MD1210171+9999OA149901651REMSYN082AAXX  26004 04390 32965 22411 11026 21097 30137 40232 52017 80006 333 91132 91222;EQDQ01  00002PRCP99
0133043900999992000012603004+60030-043120FM-12+0019BGPC V0202401N005712200019N0150001N1-00221-00871102371ADDGF103991031001999999031001MA1999999101421MD1210051+9999REMSYN066AAXX  26034 04390 42965 32411 11022 21087 30142 40237 52005 83030;
0205043900999992000012606004+60030-043120FM-12+0019BGPC V0202401N003112200019N0150001N1-00281-00811102391ADDAA199000091GF104991041001022501031999KA1120M-00191KA2999N-00351MA1999999101441MD1210021+9999REMSYN082AAXX  26064 04390 32865 42406 11028 21081 30144 40239 52002 8403/ 333 11019 21035;EQDQ01  00002PRCP99
0133043900999992000012609004+60030-043120FM-12+0019BGPC V0202401N002612200019N0250001N1-00191-00661102451ADDGF102991021021008001999999MA1999999101501MD1210061+9999REMSYN066AAXX  26094 04390 42575 22405 11019 21066 30150 40245 52006 822//;
0163043900999992000012612004+60030-043120FM-12+0019BGPC V0202401N003610300019N0200001N1-00111-00781102511ADDAA199000091GF108991021021004501041071MA1999999101561MD1210061+9999REMSYN066AAXX  26124 04390 32470 82407 11011 21078 30156 40251 52006 82247;EQDQ01  00002PRCP99
0133043900999992000012615004+60030-043120FM-12+0019BGPC V0202201N001519999999N0300001N1-00091-00681102411ADDGF108991081001999999021999MA1999999101461MD1710101+9999REMSYN066AAXX  26154 04390 42980 82203 11009 21068 30146 40241 57010 8802/;
0220043900999992000012618004+60030-043120FM-12+0019BGPC V0202101N003110210019N0250001N1-00251-00361102391ADDAA112000791AY171061AY221061GF108991081001022501021999KA1120M-00031KA2999N-00281MA1999999101441MD1710021+9999MW1711REMSYN094AAXX  26184 04390 11875 82106 11025 21036 30144 40239 57002 69902 77172 8802/ 333 11003 21028;
0161043900999992000012621004+60030-043120FM-12+0019BGPC V0202101N000510075019N0020001N1-00291-00391102101ADDAY171031AY221031GF108991081001008001021999MA1999999101151MD1710291+9999MW1711REMSYN072AAXX  26214 04390 41520 82101 11029 21039 30115 40210 57029 77172 8802/;
0178043900999992000012700004+60030-043120FM-12+0019BGPC V0202101N002610012019N0004001N1-00151-00231101761ADDAA106003091AY171061AY271061GF108991081071001501999999MA1999999100821MD1710331+9999MW1711REMSYN078AAXX  27004 04390 11204 82105 11015 21023 30082 40176 57033 60031 77177 887//;
0243043900999992000012706004+60030-043120FM-12+0019BGPC V0200201N010810021019N0003001N1-00361-00391100881ADDAA112010991AY171061AY271061GF108991081071002501999999KA1120M-00121KA2120N-00391MA1999999099941MD1710391+9999MW1731OA149901961REMSYN106AAXX  27064 04390 11303 80221 11036 21039 39994 40088 57039 60112 77377 887// 333 11012 21039 91138 91032;
0171043900999992000012709004+60030-043120FM-12+0019BGPC V0200301N008710021019N0030001N1-00281-00291100581ADDAY171031AY271031GF108991081071002501999999MA1999999099641MD1710301+9999MW1001REMSYN082AAXX  27094 04390 41330 80317 11028 21029 39964 40058 57030 70077 887// 333 91135;
0205043900999992000012712004+60030-043120FM-12+0019BGPC V0200301N002610042019N0020001N1-00251-00261100471ADDAA106002091AY171061AY271061GF108991081071004501999999MA1999999099531MD1710111+9999MW1711OA149901801REMSYN094AAXX  27124 04390 11420 80305 11025 21026 39953 40047 57011 60021 77177 887// 333 91135 91226;
0220043900999992000012718004+60030-043120FM-12+0019BGPC V0200301N003610021019N0050001N1-00301-00311100341ADDAA112003091AY171061AY271061GF108991081071002501999999KA1120M-00231KA2999N-00361MA1999999099401MD1710041+9999MW1711REMSYN094AAXX  27184 04390 11350 80307 11030 21031 39940 40034 57004 60032 77177 887// 333 11023 21036;
0161043900999992000012721004+60030-043120FM-12+0019BGPC V0200501N001010042019N0050001N1-00321-00331100081ADDAY171031AY221031GF108991081071004501999999MA1999999099151MD1710251+9999MW1711REMSYN072AAXX  27214 04390 41450 80502 11032 21033 39915 40008 57025 77172 887//;
0138043900999992000012800004+60030-043120FM-12+0019BGPC V0202501N004112200019N0050001N1-00111-00141099631ADDAA199000021GF104991999999017501999999MA1999999098711MD1710441+9999REMSYN060AAXX  28004 04390 32750 42508 11011 21014 39871 49963 57044;
0143043900999992000012803004+60030-043120FM-12+0019BGPC V0202901N007212200019N0200001N1-00031-00301099321ADDGF103991031001999999041001MA1999999098401MD1710311+9999REMSYN076AAXX  28034 04390 42970 32914 11003 21030 39840 49932 57031 83040 333 91125;
0230043900999992000012806004+60030-043120FM-12+0019BGPC V0202801N011812200019N0250001N1-00421-01011099151ADDAA199000021AY131061AY231061GA1001+999999999GF100991001001999999001001KA1120M+00021KA2120N-00461MA1999999098221MD1710181+9999MW1361REMSYN088AAXX  28064 04390 31975 02823 11042 21101 39822 49915 57018 73633 333 10002 21046 91133;
0143043900999992000012809004+60030-043120FM-12+0019BGPC V0202801N003612200019N0150001N1-00411-01391099341ADDGF103991031001999999071999MA1999999098411MD1210191+9999REMSYN076AAXX  28094 04390 42965 32807 11041 21139 39841 49934 52019 8307/ 333 91227;
0160043900999992000012812004+60030-043120FM-12+0019BGPC V0202801N002612200019N0300001N1-00571-01571099571ADDAA106000791GF104991021001022501061051MA1999999098631MD1210221+9999REMSYN082AAXX  28124 04390 12880 42805 11057 21157 39863 49957 52022 69901 82065 333 91227;
0133043900999992000012815004+60030-043120FM-12+0019BGPC V0202801N005112200019N0350001N1-00541-01441099691ADDGF102991001001999999001011MA1999999098751MD1210121+9999REMSYN066AAXX  28154 04390 42981 22810 11054 21144 39875 49969 52012 80001;
0205043900999992000012818004+60030-043120FM-12+0019BGPC V0202801N004612200019N0350001N1-00521-01441099611ADDAA199000091GF104991001001999999001041KA1120M-00361KA2999N-00621MA1999999098671MD1710081+9999REMSYN082AAXX  28184 04390 32981 42809 11052 21144 39867 49961 57008 80004 333 11036 21062;EQDQ01  00002PRCP99
0133043900999992000012821004+60030-043120FM-12+0019BGPC V0202801N002112200019N0200001N1-00641-01661099681ADDGF104991001001999999001051MA1999999098741MD1210071+9999REMSYN066AAXX  28214 04390 42970 42804 11064 21166 39874 49968 52007 80005;
0173043900999992000012900004+60030-043120FM-12+0019BGPC V0202801N001512200019N0100001N1-00671-01531099621ADDAA199000091GA1001+999999999GF100991001001999999001001MA1999999098681MD1710061+9999REMSYN060AAXX  29004 04390 32960 02803 11067 21153 39868 49962 57006;EQDQ01  00002PRCP99
0143043900999992000012903004+60030-043120FM-12+0019BGPC V0202801N003112200019N0300001N1-00711-01451099471ADDGA1001+999999999GF100991001001999999001001MA1999999098531MD1710151+9999REMSYN060AAXX  29034 04390 42980 02806 11071 21145 39853 49947 57015;
0215043900999992000012906004+60030-043120FM-12+0019BGPC V0202801N002612200019N0250001N1-00841-01461099371ADDAA199000091GA1001+999999999GF100991001001999999001001KA1120M-00521KA2999N-00881MA1999999098421MD1710111+9999REMSYN076AAXX  29064 04390 32975 02805 11084 21146 39842 49937 57011 333 11052 21088;EQDQ01  00002PRCP99
0143043900999992000012909004+60030-043120FM-12+0019BGPC V0202801N001012200019N0100001N1-00761-01371099411ADDGA1001+999999999GF100991001001999999001001MA1999999098471MD1210051+9999REMSYN060AAXX  29094 04390 42960 02802 11076 21137 39847 49941 52005;
0173043900999992000012912004+60030-043120FM-12+0019BGPC V0202801N000512200019N9999999N1-00801-01391099471ADDAA199000091GA1001+999999999GF100991001001999999001001MA1999999098531MD1210061+9999REMSYN060AAXX  29124 04390 329// 02801 11080 21139 39853 49947 52006;EQDQ01  00002PRCP99
0133043900999992000012915004+60030-043120FM-12+0019BGPC V0202801N001012200019N0300001N1-00521-01321099561ADDGF103991001001999999001061MA1999999098621MD1210091+9999REMSYN066AAXX  29154 04390 42980 32802 11052 21132 39862 49956 52009 80006;
0205043900999992000012918004+60030-043120FM-12+0019BGPC V0200201N001012200019N0500001N1-00711-01351099421ADDAA199000091GF103991021001999999041091KA1120M-00401KA2999N-00851MA1999999098481MD1710141+9999REMSYN082AAXX  29184 04390 32984 30202 11071 21135 39848 49942 57014 82049 333 11040 21085;EQDQ01  00002PRCP99
0143043900999992000012921004+60030-043120FM-12+0019BGPC V0200201N001512200019N0100001N1-00891-01401099421ADDGA1001+999999999GF100991001001999999001001MA1999999098471MD1710011+9999REMSYN060AAXX  29214 04390 42960 00203 11089 21140 39847 49942 57001;
0163043900999992000013000004+60030-043120FM-12+0019BGPC V0200201N001512200019N0100001N1-00931-01391099401ADDAA199000091GF102991021001999999021999MA1999999098451MD1710021+9999REMSYN066AAXX  30004 04390 32960 20203 11093 21139 39845 49940 57002 8202/;EQDQ01  00002PRCP99
0101043900999992000013003004+60030-043120FM-12+0019BGPC V0200201N001019999999N9999999N1-00951-01321099321ADDMA1999999098371MD1710081+9999REMSYN060AAXX  30034 04390 42/// /0202 11095 21132 39837 49932 57008;
0205043900999992000013006004+60030-043120FM-12+0019BGPC V0209999C000010150019N0100001N1-00871-01241099271ADDAA199000091GF108991081001017501021999KA1120M-00711KA2999N-01021MA1999999098321MD1710051+9999REMSYN082AAXX  30064 04390 32760 80000 11087 21124 39832 49927 57005 8802/ 333 11071 21102;EQDQ01  00002PRCP99
0161043900999992000013009004+60030-043120FM-12+0019BGPC V0200201N002619999999N0150001N1-00821-01051099151ADDAY171031AY221031GF108991081001999999021999MA1999999098211MD1710111+9999MW1701REMSYN072AAXX  30094 04390 41965 80205 11082 21105 39821 49915 57011 77072 8802/;
0178043900999992000013012004+60030-043120FM-12+0019BGPC V0200201N002110042019N0015001N1-00751-00971099021ADDAA106001091AY171061AY271061GF108991081071004501999999MA1999999098081MD1710131+9999MW1711REMSYN078AAXX  30124 04390 11415 80204 11075 21097 39808 49902 57013 60011 77177 887//;
0161043900999992000013015004+60030-043120FM-12+0019BGPC V0200201N005710042019N0040001N1-00721-00971098801ADDAY171031AY221031GF108991081051004501999999MA1999999097861MD1710221+9999MW1711REMSYN072AAXX  30154 04390 41440 80211 11072 21097 39786 49880 57022 77172 885//;
0226043900999992000013018004+60030-043120FM-12+0019BGPC V0200201N006710042019N0020001N1-00701-00891098601ADDAA112002091AY171061AY271061GF108991081021004501999999KA1120M-00681KA2120N-00871MA1999999097671MD1710191+9999MW1711REMSYN100AAXX  30184 04390 11420 80213 11070 21089 39767 49860 57019 60022 77177 882// 333 11068 21087 91126;
0188043900999992000013021004+60030-043120FM-12+0019BGPC V0203201N006210150019N0020001N1-00641-00851098641ADDAY171031AY271031GF108991081001017501021999MA1999999097711MD1210041+9999MW1711OA149901241REMSYN088AAXX  30214 04390 41720 83212 11064 21085 39771 49864 52004 77177 8802/ 333 91124 91022;
0188043900999992000013100004+60030-043120FM-12+0019BGPC V0200201N007210210019N0005001N1-00581-00851098641ADDAA106000591AY171061AY271061GF108991081001022501021999MA1999999097711MD1410001+9999MW1711REMSYN088AAXX  31004 04390 11805 80214 11058 21085 39771 49864 54000 69951 77177 8802/ 333 91124;
0171043900999992000013103004+60030-043120FM-12+0019BGPC V0200301N004110150019N0004001N1-00681-00811098751ADDAY171031AY271031GF108991081001017501021999MA1999999097821MD1210111+9999MW1711REMSYN082AAXX  31034 04390 41704 80308 11068 21081 39782 49875 52011 77177 8802/ 333 91124;
0226043900999992000013106004+60030-043120FM-12+0019BGPC V0200301N004112200019N0100001N1-00731-00891098801ADDAA112001091AY171061AY211061GF103991031001022501021001KA1120M-00571KA2120N-00731MA1999999097861MD1210041+9999MW1001REMSYN100AAXX  31064 04390 11860 30308 11073 21089 39786 49880 52004 69992 70071 83020 333 11057 21073 91124;
0143043900999992000013109004+60030-043120FM-12+0019BGPC V0203201N000512200019N0150001N1-00871-01011098941ADDGA1001+999999999GF100991001001999999001001MA1999999098001MD1210141+9999REMSYN060AAXX  31094 04390 42965 03201 11087 21101 39800 49894 52014;
0144043900999992000013112004+60030-043120FM-12+0019BGPC V0200301N001010150019N0200001N1-00911-01071099061ADDAA199000021GF108991081001017501021999MA1999999098121MD1210121+9999REMSYN066AAXX  31124 04390 32770 80302 11091 21107 39812 49906 52012 8802/;
0161043900999992000013115004+60030-043120FM-12+0019BGPC V0200301N001510150019N0150001N1-00731-00921099011ADDAY171031AY221031GF106991061001017501021999MA1999999098071MD1710051+9999MW1001REMSYN072AAXX  31154 04390 41765 60303 11073 21092 39807 49901 57005 70072 8602/;
0220043900999992000013118004+60030-043120FM-12+0019BGPC V0202701N008212200019N0200001N1-00541-00911098931ADDAA112000191AY171061AY211061GF104991041001017501021999KA1120M-00541KA2999N-00941MA1999999098001MD1710071+9999MW1001REMSYN094AAXX  31184 04390 11770 42716 11054 21091 39800 49893 57007 69912 70071 8402/ 333 11054 21094;
0143043900999992000013121004+60030-043120FM-12+0019BGPC V0202701N009312200019N0200001N1-00581-01521099091ADDGF104991041071004501999999MA1999999098161MD1210161+9999REMSYN076AAXX  31214 04390 42470 42718 11058 21152 39816 49909 52016 847// 333 91128;
0215043900999992000020100004+60030-043120FM-12+0019BGPC V0202601N012312200019N0020001N1-00801-01471099151ADDAA106000191AY101061AY201061GA1001+999999999GF100991001001999999001001MA1999999098211MD1210051+9999MW1391OA149901901REMSYN088AAXX  01004 04390 11920 02624 11080 21147 39821 49915 52005 69921 73900 333 91137 91036;
0198043900999992000020103004+60030-043120FM-12+0019BGPC V0202601N011312200019N0050001N1-00821-01621099261ADDAY111031AY201031GA1001+999999999GF100991001001999999001001MA1999999098321MD1210111+9999MW1361OA149902111REMSYN082AAXX  01034 04390 41950 02622 11082 21162 39832 49926 52011 73610 333 91141 91038;
0249043900999992000020106004+60030-043120FM-12+0019BGPC V0202701N008712200019N0100001N1-00791-01771099341ADDAA112001091AY171061AY201061GF101991011001022501021001KA1120M-00541KA2120N-00891MA1999999098401MD1210081+9999MW1001OA149902111REMSYN112AAXX  01064 04390 11860 12717 11079 21177 39840 49934 52008 60012 70070 81020 333 11054 21089 91141 91027 91228;
0181043900999992000020109004+60030-043120FM-12+0019BGPC V0202701N009812200019N0150001N1-00771-02001099491ADDAY131031AY231031GA1001+999999999GF100991001001999999001001MA1999999098551MD1210151+9999MW1361REMSYN076AAXX  01094 04390 41965 02719 11077 21200 39855 49949 52015 73633 333 91138;
0221043900999992000020112004+60030-043120FM-12+0019BGPC V0202701N007712200019N9999999N1-00691-01911099611ADDAA106002091AY131061AY201061GA1001+999999999GF100991001001999999001001MA1999999098671MD1210121+9999MW1001OA149901961REMSYN094AAXX  01124 04390 119// 02715 11069 21191 39867 49961 52012 60021 70030 333 91138 91025 91229;
0170043900999992000020115004+60030-043120FM-12+0019BGPC V0202201N005112200019N0500001N1-00471-01811099711ADDGA1001+999999999GF100991001001999999001001MA1999999098771MD1210101+9999OA149901801REMSYN076AAXX  01154 04390 42984 02210 11047 21181 39877 49971 52010 333 91135 91227;
0234043900999992000020118004+60030-043120FM-12+0019BGPC V0202601N007712200019N0500001N1-00521-01751099691ADDAA199000091GF103991001001999999001061KA1120M-00431KA2120N-00791MA1999999098751MD1710021+9999OA149901801REMSYN100AAXX  01184 04390 32984 32615 11052 21175 39875 49969 57002 80006 333 11043 21079 91135 91026 91227;EQDQ01  00002PRCP99
0153043900999992000020121004+60030-043120FM-12+0019BGPC V0202701N007712200019N0250001N1-00531-01801099781ADDGA1001+999999999GF100991001001999999001001MA1999999098841MD1210091+9999REMSYN070AAXX  01214 04390 42975 02715 11053 21180 39884 49978 52009 333 91126;
0190043900999992000020200004+60030-043120FM-12+0019BGPC V0202901N004119999999N0100001N1-00551-01421099941ADDAA199000091GF108991001001999999001051MA1999999099001MD1210161+9999OA149901341REMSYN082AAXX  02004 04390 32960 82908 11055 21142 39900 49994 52016 80005 333 91126 91222;EQDQ01  00002PRCP99
0133043900999992000020203004+60030-043120FM-12+0019BGPC V0200301N005719999999N0050001N1-00521-01371100021ADDGF108991081001999999021999MA1999999099081MD1210081+9999REMSYN066AAXX  02034 04390 42950 80311 11052 21137 39908 40002 52008 8802/;
0205043900999992000020206004+60030-043120FM-12+0019BGPC V0200201N011310210019N0100001N1-00531-01381099881ADDAA199000091GF108991081001022501021999KA1120M-00491KA2999N-00651MA1999999098941MD1710141+9999REMSYN082AAXX  02064 04390 32860 80222 11053 21138 39894 49988 57014 8802/ 333 11049 21065;EQDQ01  00002PRCP99
0171043900999992000020209004+60030-043120FM-12+0019BGPC V0200201N013910120019N0010001N1-00581-00861099801ADDAY171031AY231031GF108991081001012501021999MA1999999098861MD1710081+9999MW1711REMSYN082AAXX  02094 04390 41610 80227 11058 21086 39886 49980 57008 77173 8802/ 333 91142;
0205043900999992000020212004+60030-043120FM-12+0019BGPC V0200201N013919999999N9999999N1-00611-00611099721ADDAA106000191AY171061AY231061GF108991081001999999021999MA1999999098781MD1710081+9999MW1711OA149902371REMSYN094AAXX  02124 04390 11/// 80227 11061 21061 39878 49972 57008 69911 77173 8802/ 333 91146 91039;
0194043900999992000020215004+60030-043120FM-12+0019BGPC V0200101N010810075019N0030001N1-00581-00621099641ADDAY171031AY271031GF108991081001008001021999MA1999999098701MD1710081+9999MW1731OA149902261REMSYN094AAXX  02154 04390 41530 80121 11058 21062 39870 49964 57008 77377 8802/ 333 91144 91033 91232;
0243043900999992000020218004+60030-043120FM-12+0019BGPC V0200301N005710120019N0005001N1-00611-00611099641ADDAA112002091AY171061AY221061GF108991081001012501021999KA1120M-00531KA2120N-00651MA1999999098701MD1410001+9999MW1711OA149902261REMSYN106AAXX  02184 04390 11605 80311 11061 21061 39870 49964 54000 60022 77172 8802/ 333 11053 21065 91144 91232;
0188043900999992000020221004+60030-043120FM-12+0019BGPC V0203601N010310120019N0010001N1-00541-00551099751ADDAY171031AY271031GF108991081001012501021999MA1999999098811MD1210111+9999MW1731OA149901751REMSYN088AAXX  02214 04390 41610 83620 11054 21055 39881 49975 52011 77377 8802/ 333 91134 91033;
0188043900999992000020300004+60030-043120FM-12+0019BGPC V0200101N007210150019N0010001N1-00461-00471099781ADDAA106001091AY171061AY271061GF108991081001017501021999MA1999999098841MD1210031+9999MW1711REMSYN088AAXX  03004 04390 11710 80114 11046 21047 39884 49978 52003 69991 77177 8802/ 333 91134;
0171043900999992000020303004+60030-043120FM-12+0019BGPC V0200401N007210120019N0004001N1-00441-00441099881ADDAY171031AY271031GF108991081001012501021999MA1999999098941MD1210101+9999MW1711REMSYN082AAXX  03034 04390 41604 80414 11044 21044 39894 49988 52010 77177 8802/ 333 91130;
0226043900999992000020306004+60030-043120FM-12+0019BGPC V0200201N008710210019N0010001N1-00431-00431099751ADDAA112002091AY171061AY271061GF108991081001022501021999KA1120M-00401KA2120N-00611MA1999999098821MD1710121+9999MW1711REMSYN100AAXX  03064 04390 11810 80217 11043 21043 39882 49975 57012 60022 77177 8802/ 333 11040 21061 91130;
0188043900999992000020309004+60030-043120FM-12+0019BGPC V0200201N011310120019N0005001N1-00441+99999099761ADDAY171031AY271031GF108991081001012501021999MA1999999098821MD1410001+9999MW1711OA149901751REMSYN088AAXX  03094 04390 41605 80222 11044 21043 39882 49976 54000 77177 8802/ 333 91134 91033;
0205043900999992000020312004+60030-043120FM-12+0019BGPC V0200201N013410120019N0250001N1-00401-00401099601ADDAA106001091AY121061AY221061GF108991081051012501999999MA1999999098671MD1710151+9999MW1361OA149902371REMSYN094AAXX  03124 04390 11675 80226 11040 21040 39867 49960 57015 69991 73622 885// 333 91146 91037;
0188043900999992000020315004+60030-043120FM-12+0019BGPC V0200201N014410150019N0350001N1-00381-00551099271ADDAY171031AY221031GF108991081001017501021999MA1999999098341MD1710331+9999MW1361OA149902321REMSYN088AAXX  03154 04390 41781 80228 11038 21055 39834 49927 57033 73672 8802/ 333 91145 91039;
0243043900999992000020318004+60030-043120FM-12+0019BGPC V0200301N018510075019N0005001N1-00471-00471098921ADDAA112001091AY171061AY231061GF108991081001008001021999KA1120M-00351KA2120N-00491MA1999999097991MD1710351+9999MW1711OA149902881REMSYN106AAXX  03184 04390 11505 80336 11047 21047 39799 49892 57035 60012 77173 8802/ 333 11035 21049 91156 91056;
0188043900999992000020321004+60030-043120FM-12+0019BGPC V0200201N019510120019N0005001N1-00291-00301098551ADDAY131031AY231031GF108991081001012501021999MA1999999097631MD1710361+9999MW1711OA149902881REMSYN088AAXX  03214 04390 41605 80238 11029 21030 39763 49855 57036 77133 8802/ 333 91156 91055;
0205043900999992000020400004+60030-043120FM-12+0019BGPC V0200201N021610120019N0002001N1-00301-00301098371ADDAA106001091AY131061AY231061GF108991081001012501021999MA1999999097451MD1710181+9999MW1391OA149903191REMSYN094AAXX  04004 04390 11602 80242 11030 21030 39745 49837 57018 60011 73933 8802/ 333 91162 91057;
0188043900999992000020403004+60030-043120FM-12+0019BGPC V0200301N020610075019N0004001N1-00251-00261097981ADDAY171031AY231031GF108991081051008001999999MA1999999097071MD1710381+9999MW1371OA149903191REMSYN088AAXX  04034 04390 41504 80340 11025 21026 39707 49798 57038 73773 885// 333 91162 91054;
0243043900999992000020406004+60030-043120FM-12+0019BGPC V0200201N020010120019N0010001N1-00291-00291097401ADDAA112002091AY171061AY271061GF108991081021012501999999KA1120M-00191KA2120N-00471MA1999999096491MD1710581+9999MW1711OA149903191REMSYN106AAXX  04064 04390 11610 80239 11029 21029 39649 49740 57058 60022 77177 882// 333 11019 21047 91162 91059;
0188043900999992000020409004+60030-043120FM-12+0019BGPC V0200201N020010042019N0001001N1-00321+99999097161ADDAY171031AY271031GF108991081071004501999999MA1999999096251MD1710241+9999MW1711OA149903241REMSYN088AAXX  04094 04390 41401 80239 11032 21031 39625 49716 57024 77177 887// 333 91163 91051;
0205043900999992000020412004+60030-043120FM-12+0019BGPC V0203201N002610120019N0003001N1-00251-00251096781ADDAA106002091AY171061AY221061GF108991081001012501021999MA1999999095881MD1710371+9999MW1711OA149903241REMSYN094AAXX  04124 04390 11603 83205 11025 21025 39588 49678 57037 60021 77172 8802/ 333 91163 91241;
0220043900999992000020418004+60030-043120FM-12+0019BGPC V0202601N004610042019N0050001N1-00151-00151096371ADDAA112007191AY171061AY271061GF108991081051004501999999KA1120M-00131KA2999N-00341MA1999999095481MD1710121+9999MW1711REMSYN094AAXX  04184 04390 11450 82609 11015 21015 39548 49637 57012 60072 77177 885// 333 11013 21034;
0171043900999992000020421004+60030-043120FM-12+0019BGPC V0202901N008710120019N0010001N1-00131-00131096481ADDAY171031AY271031GF108991081001012501021999MA1999999095591MD1210111+9999MW1721REMSYN082AAXX  04214 04390 41610 82917 11013 21013 39559 49648 52011 77277 8802/ 333 91123;
0188043900999992000020500004+60030-043120FM-12+0019BGPC V0202601N005110120019N0015001N1-00161-00161096711ADDAA106000591AY171061AY271061GF108991081001012501021999MA1999999095811MD1210221+9999MW1711REMSYN088AAXX  05004 04390 11615 82610 11016 21016 39581 49671 52022 69941 77177 8802/ 333 91123;
0171043900999992000020503004+60030-043120FM-12+0019BGPC V0202701N011319999999N0007001N1-00311-00311097001ADDAY171031AY231031GF108991081001999999071999MA1999999096101MD1210291+9999MW1361REMSYN082AAXX  05034 04390 41907 82722 11031 21031 39610 49700 52029 73673 8807/ 333 91130;
0166043900999992000020506004+60030-043120FM-12+0019BGPC V0202401N007719999999N9999999N1-00401-00401097281ADDKA1120M-00131KA2120N-00431MA1999999096371MD1210271+9999OA149901541REMSYN088AAXX  05064 04390 46/// /2415 11040 21040 39637 49728 52027 333 11013 21043 91130 91227;
0160043900999992000020515004+60030-043120FM-12+0019BGPC V0202701N012312200019N0250001N1-00401-00961097661ADDGF103991021001022501041051MA1999999096751MD1210131+9999OA149902321REMSYN082AAXX  05154 04390 42875 32724 11040 21096 39675 49766 52013 82045 333 91145 91034;
0256043900999992000020518004+60030-043120FM-12+0019BGPC V0202501N008212200019N0350001N1-00351-01211097911ADDAA199000091AY131061AY211061GF104991021021999999999041KA1120M-00331KA2120N-00541MA1999999097001MD1210251+9999MW1001OA149902321REMSYN100AAXX  05184 04390 31981 42516 11035 21121 39700 49791 52025 70031 822/4 333 11033 21054 91145 91231;EQDQ01  00002PRCP99
0160043900999992000020521004+60030-043120FM-12+0019BGPC V0202501N004112200019N0250001N1-00421-01331098061ADDGF103991001001999999001061MA1999999097141MD1210141+9999OA149901341REMSYN082AAXX  05214 04390 42975 32508 11042 21133 39714 49806 52014 80006 333 91126 91219;
0183043900999992000020600004+60030-043120FM-12+0019BGPC V0202401N007212200019N9999999N1-00431-01241098211ADDAA199000091GA1001+999999999GF100991001001999999001001MA1999999097291MD1210151+9999REMSYN070AAXX  06004 04390 329// 02414 11043 21124 39729 49821 52015 333 91133;EQDQ01  00002PRCP99
0111043900999992000020603004+60030-043120FM-12+0019BGPC V0202401N005119999999N9999999N1-00421-01221098291ADDMA1999999097371MD1210081+9999REMSYN070AAXX  06034 04390 46/// /2410 11042 21122 39737 49829 52008 333 91126;
0208043900999992000020606004+60030-043120FM-12+0019BGPC V0202201N004612200019N9999999N1-00421-00861098351ADDAA112000591GA1001+999999999GF100991001001999999001001KA1120M-00351KA2120N-00481MA1999999097431MD1210061+9999REMSYN088AAXX  06064 04390 129// 02209 11042 21086 39743 49835 52006 69942 333 11035 21048 91126;
0133043900999992000020609004+60030-043120FM-12+0019BGPC V0202101N004112200019N0100001N1-00431-00741098281ADDGF103991031051017501999999MA1999999097361MD1710071+9999REMSYN066AAXX  06094 04390 42760 32108 11043 21074 39736 49828 57007 835//;
0163043900999992000020612004+60030-043120FM-12+0019BGPC V0202201N004110300019N0250001N1-00491-00891098321ADDAA199000091GF106991011071004501021051MA1999999097401MD1210041+9999REMSYN066AAXX  06124 04390 32475 62208 11049 21089 39740 49832 52004 81725;EQDQ01  00002PRCP99
0133043900999992000020615004+60030-043120FM-12+0019BGPC V0201901N002619999999N0300001N1-00321-00821098151ADDGF106991001001999999001081MA1999999097231MD1710171+9999REMSYN066AAXX  06154 04390 42980 61905 11032 21082 39723 49815 57017 80008;
0205043900999992000020618004+60030-043120FM-12+0019BGPC V0202401N001010120019N0350001N1-00461-00721097931ADDAA199000091GF108991081001012501021999KA1120M-00281KA2999N-00521MA1999999097011MD1710221+9999REMSYN082AAXX  06184 04390 32681 82402 11046 21072 39701 49793 57022 8802/ 333 11028 21052;EQDQ01  00002PRCP99
0133043900999992000020621004+60030-043120FM-12+0019BGPC V0202501N003112200019N0250001N1-00581-00661097851ADDGF104991041001999999011999MA1999999096931MD1710081+9999REMSYN066AAXX  06214 04390 42975 42506 11058 21066 39693 49785 57008 8401/;
0163043900999992000020700004+60030-043120FM-12+0019BGPC V0202401N003612200019N9999999N1-00701-00791097701ADDAA199000091GF102991021001999999011999MA1999999096781MD1710151+9999REMSYN066AAXX  07004 04390 32/// 22407 11070 21079 39678 49770 57015 8201/;EQDQ01  00002PRCP99
0133043900999992000020703004+60030-043120FM-12+0019BGPC V0202601N002610210019N0250001N1-00651-00841097611ADDGF106991061001022501011999MA1999999096691MD1710091+9999REMSYN066AAXX  07034 04390 42875 62605 11065 21084 39669 49761 57009 8601/;
0215043900999992000020706004+60030-043120FM-12+0019BGPC V0202601N003612200019N0050001N1-00631-00821097541ADDAA199000091GA1001+999999999GF100991001001999999001001KA1120M-00451KA2999N-00711MA1999999096621MD1710071+9999REMSYN076AAXX  07064 04390 32950 02607 11063 21082 39662 49754 57007 333 11045 21071;EQDQ01  00002PRCP99
0133043900999992000020709004+60030-043120FM-12+0019BGPC V0203301N001512200019N0200001N1-00711-00931097481ADDGF101991011001022501021001MA1999999096561MD1710061+9999REMSYN066AAXX  07094 04390 42870 13303 11071 21093 39656 49748 57006 81020;
0163043900999992000020712004+60030-043120FM-12+0019BGPC V0202801N001512200019N0300001N1-00761-01051097551ADDAA199000091GF103991021001017501021081MA1999999096621MD1210061+9999REMSYN066AAXX  07124 04390 32780 32803 11076 21105 39662 49755 52006 82028;EQDQ01  00002PRCP99
0133043900999992000020715004+60030-043120FM-12+0019BGPC V0203001N003610150019N0350001N1-00591-01041097441ADDGF105991051001017501021999MA1999999096521MD1710101+9999REMSYN066AAXX  07154 04390 42781 53007 11059 21104 39652 49744 57010 8502/;
0220043900999992000020718004+60030-043120FM-12+0019BGPC V0203101N001510120019N0050001N1-00671-00801097371ADDAA112000791AY171061AY211061GF108991081001012501021999KA1120M-00501KA2999N-00801MA1999999096451MD1710071+9999MW1711REMSYN094AAXX  07184 04390 11650 83103 11067 21080 39645 49737 57007 69902 77171 8802/ 333 11050 21080;
0161043900999992000020721004+60030-043120FM-12+0019BGPC V0202101N002610120019N0100001N1-00691-00751097371ADDAY171031AY221031GF108991081001012501021999MA1999999096451MD1410001+9999MW1001REMSYN072AAXX  07214 04390 41660 82105 11069 21075 39645 49737 54000 70072 8802/;
0178043900999992000020800004+60030-043120FM-12+0019BGPC V0202501N006219999999N0200001N1-00591-01101097401ADDAA106000791AY171061AY221061GF106991001001999999001061MA1999999096481MD1210031+9999MW1001REMSYN078AAXX  08004 04390 11970 62512 11059 21110 39648 49740 52003 69901 70072 80006;
0143043900999992000020803004+60030-043120FM-12+0019BGPC V0202401N007712200019N9999999N1-00691-01291097431ADDGA1001+999999999GF100991001001999999001001MA1999999096511MD1210031+9999REMSYN060AAXX  08034 04390 429// 02415 11069 21129 39651 49743 52003;
0224043900999992000020806004+60030-043120FM-12+0019BGPC V0202301N011312200019N0050001N1-00821-00981097511ADDAA199000021AY121061AY201061GA1001+999999999GF100991001001999999001001KA1120M-00581KA2999N-00841MA1999999096581MD1210071+9999MW1361REMSYN082AAXX  08064 04390 31950 02322 11082 21098 39658 49751 52007 73620 333 11058 21084;
0153043900999992000020809004+60030-043120FM-12+0019BGPC V0202401N008712200019N0200001N1-00841-01091097661ADDGA1001+999999999GF100991001001999999001001MA1999999096731MD1210151+9999REMSYN070AAXX  08094 04390 42970 02417 11084 21109 39673 49766 52015 333 91131;
0173043900999992000020812004+60030-043120FM-12+0019BGPC V0202301N007712200019N0300001N1-00851-01401097621ADDAA199000091GF102991021001017501021999MA1999999096691MD1710041+9999REMSYN076AAXX  08124 04390 32780 22315 11085 21140 39669 49762 57004 8202/ 333 91131;EQDQ01  00002PRCP99
0133043900999992000020815004+60030-043120FM-12+0019BGPC V0202401N004612200019N0250001N1-00841-01431097401ADDGF102991021001012501021999MA1999999096471MD1710221+9999REMSYN066AAXX  08154 04390 42675 22409 11084 21143 39647 49740 57022 8202/;
0205043900999992000020818004+60030-043120FM-12+0019BGPC V0202401N003612200019N0250001N1-00901-01611097191ADDAA199000091GF103991031001022501021999KA1120M-00731KA2999N-00941MA1999999096261MD1710211+9999REMSYN082AAXX  08184 04390 32875 32407 11090 21161 39626 49719 57021 8302/ 333 11073 21094;EQDQ01  00002PRCP99
0133043900999992000020821004+60030-043120FM-12+0019BGPC V0202301N003112200019N0250001N1-01011-01721097231ADDGF102991001001999999001061MA1999999096301MD1210041+9999REMSYN066AAXX  08214 04390 42975 22306 11101 21172 39630 49723 52004 80006;
0143043900999992000020903004+60030-043120FM-12+0019BGPC V0202501N004612200019N9999999N1-00941-01731097331ADDGA1001+999999999GF100991001001999999001001MA1999999096401MD1210041+9999REMSYN060AAXX  09034 04390 429// 02509 11094 21173 39640 49733 52004;
0221043900999992000020906004+60030-043120FM-12+0019BGPC V0202501N005112200019N0100001N1-00771-01651097351ADDAA199000091GA1001+999999999GF100991001001999999001001KA1120M-00721KA2120N-01081MA1999999096431MD1210031+9999REMSYN082AAXX  09064 04390 32960 02510 11077 21165 39643 49735 52003 333 11072 21108 91220;EQDQ01  00002PRCP99
0171043900999992000020909004+60030-043120FM-12+0019BGPC V0202401N005110120019N0050001N1-00801-00861097421ADDAY171031AY201031GF108991081001012501021999MA1999999096491MD1210061+9999MW1701REMSYN082AAXX  09094 04390 41650 82410 11080 21086 39649 49742 52006 77070 8802/ 333 91123;
0188043900999992000020912004+60030-043120FM-12+0019BGPC V0202101N006212200019N0200001N1-00761-00851097441ADDAA106000591AY171061AY201061GF103991031001012501021999MA1999999096521MD1210031+9999MW1711REMSYN088AAXX  09124 04390 11670 32112 11076 21085 39652 49744 52003 69951 77170 8302/ 333 91124;
0171043900999992000020915004+60030-043120FM-12+0019BGPC V0202201N008712200019N0200001N1-00621-01281097331ADDAY171031AY201031GF103991031031008001999999MA1999999096411MD1710111+9999MW1001REMSYN082AAXX  09154 04390 41570 32217 11062 21128 39641 49733 57011 70070 833// 333 91128;
0243043900999992000020918004+60030-043120FM-12+0019BGPC V0202701N007712200019N0350001N1-00691-01551097411ADDAA112000591AY171061AY201061GF102991021011008001001001KA1120M-00571KA2120N-00821MA1999999096491MD1210081+9999MW1361OA149901751REMSYN106AAXX  09184 04390 11581 22715 11069 21155 39649 49741 52008 69952 73670 82100 333 11057 21082 91134 91026;
0181043900999992000020921004+60030-043120FM-12+0019BGPC V0202601N011312200019N0200001N1-00661-01661097581ADDAY131031AY231031GA1001+999999999GF100991001001999999001001MA1999999096661MD1210171+9999MW1361REMSYN076AAXX  09214 04390 41970 02622 11066 21166 39666 49758 52017 73633 333 91138;
0209043900999992000021000004+60030-043120FM-12+0019BGPC V0202401N005112200019N0250001N1-00681-01541097761ADDAA199000021AY101061AY201061GA1001+999999999GF100991001001999999001001MA1999999096841MD1210181+9999MW1361OA149901961REMSYN082AAXX  10004 04390 31975 02410 11068 21154 39684 49776 52018 73600 333 91138 91225;
0101043900999992000021003004+60030-043120FM-12+0019BGPC V0202401N007219999999N9999999N1-00671-01481097801ADDMA1999999096881MD1210041+9999REMSYN060AAXX  10034 04390 42/// /2414 11067 21148 39688 49780 52004;
0215043900999992000021006004+60030-043120FM-12+0019BGPC V0202501N003612200019N0100001N1-00731-01451097791ADDAA199000091GA1001+999999999GF100991001001999999001001KA1120M-00611KA2999N-00751MA1999999096861MD1710021+9999REMSYN076AAXX  10064 04390 32960 02507 11073 21145 39686 49779 57002 333 11061 21075;EQDQ01  00002PRCP99
0143043900999992000021009004+60030-043120FM-12+0019BGPC V0202601N003612200019N0250001N1-00781-01481097661ADDGA1001+999999999GF100991001001999999001001MA1999999096731MD1710131+9999REMSYN060AAXX  10094 04390 42975 02607 11078 21148 39673 49766 57013;
0178043900999992000021012004+60030-043120FM-12+0019BGPC V0202901N002110021019N0005001N1-00811-00881097331ADDAA106000791AY171061AY201061GF108991081061002501999999MA1999999096411MD1710321+9999MW1731REMSYN078AAXX  10124 04390 11305 82904 11081 21088 39641 49733 57032 69901 77370 886//;
0171043900999992000021015004+60030-043120FM-12+0019BGPC V0202301N010312200019N0100001N1-00761-00891097321ADDAY171031AY221031GF104991041071004501999999MA1999999096401MD1710011+9999MW1361REMSYN082AAXX  10154 04390 41460 42320 11076 21089 39640 49732 57001 73672 847// 333 91122;
0226043900999992000021018004+60030-043120FM-12+0019BGPC V0202301N007212200019N0100001N1-00901-01251097261ADDAA112002091AY171061AY231061GF103991031071004501999999KA1120M-00571KA2120N-00951MA1999999096331MD1710071+9999MW1361REMSYN100AAXX  10184 04390 11460 32314 11090 21125 39633 49726 57007 60022 73673 837// 333 11057 21095 91127;
0133043900999992000021021004+60030-043120FM-12+0019BGPC V0202401N005112200019N0200001N1-00941-01581097401ADDGF103991031031008001999999MA1999999096471MD1210141+9999REMSYN066AAXX  10214 04390 42570 32410 11094 21158 39647 49740 52014 833//;
0188043900999992000021100004+60030-043120FM-12+0019BGPC V0202101N002610042019N0020001N1-00911-00911097371ADDAA106001091AY171061AY271061GF108991081071004501999999MA1999999096441MD1710031+9999MW1711REMSYN088AAXX  11004 04390 11420 82105 11091 21091 39644 49737 57003 60011 77177 887// 333 91216;
0148043900999992000021103004+60030-043120FM-12+0019BGPC V02099999999990042019N0010001N1+99999+99999999999ADDAY171031AY271031GF108991081071004501999999MW1711OA149999999REMSYN058AAXX  11034 04390 41410 8//// 77177 887// 333 91119 91213;EQDQ01  00982WGOSPD
0203043900999992000021106004+60030-043120FM-12+0019BGPC V02099999999990021019N0002001N1+99999+99999999999ADDAA112005191AY171061AY271061GF108991081071002501999999KA1120M-00831KA2120N-01051MW1731OA149999999REMSYN076AAXX  11064 04390 11302 8//// 60052 77377 887// 333 11083 21105 91119 91213;EQDQ01  00982WGOSPD
0129043900999992000021112004+60030-043120FM-12+0019BGPC V02099999999992200019N0350001N1+99999+99999999999ADDAA106002091AY171061AY231061GA1001+999999999GF100991001001999999001001MW1361REMSYN042AAXX  11124 04390 11981 0//// 60021 73673;
0168043900999992000021115004+60030-043120FM-12+0019BGPC V0202801N015912200019N0200001N1-00621-01051098111ADDAY131031AY231031GF101991011021004501999999MA1999999097181MW1361OA149902371REMSYN082AAXX  11154 04390 41470 12831 11062 21105 39718 49811 73633 812// 333 91146 91046;
0249043900999992000021118004+60030-043120FM-12+0019BGPC V0202701N021110210019N0150001N1-00361-01301098401ADDAA112002091AY131061AY231061GF106991061001022501071999KA1120M-00361KA2120N-00691MA1999999097481MD1210301+9999MW1371OA149903451REMSYN112AAXX  11184 04390 11865 62741 11036 21130 39748 49840 52030 60022 73733 8607/ 333 11036 21069 91167 91053 91254;
0188043900999992000021121004+60030-043120FM-12+0019BGPC V0202701N018012200019N0150001N1-00441-01731098971ADDAY131031AY221031GF103991031001022501071999MA1999999098041MD1210561+9999MW1371OA149902931REMSYN088AAXX  11214 04390 41865 32735 11044 21173 39804 49897 52056 73732 8307/ 333 91157 91048;
0228043900999992000021200004+60030-043120FM-12+0019BGPC V0202701N017512200019N0100001N1-00571-01741099301ADDAA199000091AY101061AY201061GA1001+999999999GF100991001001999999001001MA1999999098361MD1210321+9999MW1361OA149902931REMSYN082AAXX  12004 04390 31960 02734 11057 21174 39836 49930 52032 73600 333 91157 91052;EQDQ01  00002PRCP99
0170043900999992000021203004+60030-043120FM-12+0019BGPC V0202701N013912200019N9999999N1-00581-01871099651ADDGA1001+999999999GF100991001001999999001001MA1999999098711MD1210351+9999OA149902681REMSYN076AAXX  12034 04390 429// 02727 11058 21187 39871 49965 52035 333 91152 91042;
0272043900999992000021206004+60030-043120FM-12+0019BGPC V0202701N008712200019N0100001N1-00651-01721099951ADDAA199000091AY131061AY201061GA1001+999999999GF100991001001999999001001KA1120M-00361KA2120N-00681MA1999999099011MD1210301+9999MW1001OA149902681REMSYN100AAXX  12064 04390 31960 02717 11065 21172 39901 49995 52030 70030 333 11036 21068 91152 91031 91234;EQDQ01  00002PRCP99
0153043900999992000021209004+60030-043120FM-12+0019BGPC V0202801N009812200019N0100001N1-00691-01841100171ADDGA1001+999999999GF100991001001999999001001MA1999999099221MD1210211+9999REMSYN070AAXX  12094 04390 42960 02819 11069 21184 39922 40017 52021 333 91138;
0190043900999992000021212004+60030-043120FM-12+0019BGPC V0202701N009312200019N0250001N1-00681-01911100241ADDAA199000091GF102991001001999999001061MA1999999099291MD1210071+9999OA149901961REMSYN082AAXX  12124 04390 32975 22718 11068 21191 39929 40024 52007 80006 333 91138 91228;EQDQ01  00002PRCP99
0133043900999992000021215004+60030-043120FM-12+0019BGPC V0202601N006212200019N0300001N1-00651-01811100351ADDGF103991001001999999001051MA1999999099401MD1210111+9999REMSYN066AAXX  12154 04390 42980 32612 11065 21181 39940 40035 52011 80005;
0149043900999992000021218004+60030-043120FM-12+0019BGPC V0202501N005719999999N9999999N1-00701-01741100291ADDKA1120M-00621KA2120N-00761MA1999999099341MD1710061+9999REMSYN082AAXX  12184 04390 46/// /2511 11070 21174 39934 40029 57006 333 11062 21076 91221;
0133043900999992000021221004+60030-043120FM-12+0019BGPC V0202501N003612200019N0150001N1-00771-01861100311ADDGF103991031001017501021999MA1999999099361MD1210021+9999REMSYN066AAXX  12214 04390 42765 32507 11077 21186 39936 40031 52002 8302/;
0163043900999992000021300004+60030-043120FM-12+0019BGPC V0202601N003612200019N0250001N1-00741-01771100201ADDAA199000091GF104991001001999999001071MA1999999099251MD1710111+9999REMSYN066AAXX  13004 04390 32975 42607 11074 21177 39925 40020 57011 80007;EQDQ01  00002PRCP99
0133043900999992000021303004+60030-043120FM-12+0019BGPC V0202201N002610150019N0200001N1-00651-01591099991ADDGF108991081001017501021999MA1999999099051MD1710201+9999REMSYN066AAXX  13034 04390 42770 82205 11065 21159 39905 49999 57020 8802/;
0205043900999992000021306004+60030-043120FM-12+0019BGPC V0201201N000519999999N0150001N1-00651-01081099581ADDAA199000091GF108991081001999999071999KA1120M-00621KA2999N-00791MA1999999098641MD1710411+9999REMSYN082AAXX  13064 04390 32965 81201 11065 21108 39864 49958 57041 8807/ 333 11062 21079;EQDQ01  00002PRCP99
0133043900999992000021309004+60030-043120FM-12+0019BGPC V0200301N006219999999N0100001N1-00651-00861099191ADDGF108991081001999999071999MA1999999098251MD1710391+9999REMSYN066AAXX  13094 04390 42960 80312 11065 21086 39825 49919 57039 8807/;
0205043900999992000021312004+60030-043120FM-12+0019BGPC V0200301N019510120019N0002001N1-00691-00691098621ADDAA106000791AY171061AY231061GF108991081001012501021999MA1999999097691MD1710561+9999MW1711OA149902831REMSYN094AAXX  13124 04390 11602 80338 11069 21069 39769 49862 57056 69901 77173 8802/ 333 91155 91054;
0188043900999992000021315004+60030-043120FM-12+0019BGPC V0200201N019510120019N0020001N1-00651-00671097851ADDAY171031AY271031GF108991081001012501021999MA1999999096931MD1710761+9999MW1731OA149902931REMSYN088AAXX  13154 04390 41620 80238 11065 21067 39693 49785 57076 77377 8802/ 333 91157 91054;
0249043900999992000021318004+60030-043120FM-12+0019BGPC V0203301N015410120019N0015001N1-00521-00541097401ADDAA112001091AY171061AY231061GF108991081001012501021999KA1120M-00511KA2120N-00731MA1999999096481MD1710451+9999MW1711OA149902931REMSYN112AAXX  13184 04390 11615 83330 11052 21054 39648 49740 57045 60012 77173 8802/ 333 11051 21073 91157 91043 91241;
0171043900999992000021321004+60030-043120FM-12+0019BGPC V0202801N011810120019N0005001N1-00371+99999097961ADDAY171031AY271031GF108991081001012501021999MA1999999097041MD1210561+9999MW1711REMSYN082AAXX  13214 04390 41605 82823 11037 21036 39704 49796 52056 77177 8802/ 333 91146;
0177043900999992000021400004+60030-043120FM-12+0019BGPC V0202701N009319999999N0100001N1-00311-00491098141ADDAA106000591GF106991061001999999071999MA1999999097221MD1210181+9999OA149902371REMSYN088AAXX  14004 04390 12960 62718 11031 21049 39722 49814 52018 69941 8607/ 333 91146 91230;
0160043900999992000021403004+60030-043120FM-12+0019BGPC V0202601N011319999999N0100001N1-00361-00921098241ADDGF108991081001999999071999MA1999999097321MD1210101+9999OA149901851REMSYN082AAXX  14034 04390 42960 82622 11036 21092 39732 49824 52010 8807/ 333 91136 91036;
0243043900999992000021406004+60030-043120FM-12+0019BGPC V0202701N014910150019N0100001N1-00621-01371098301ADDAA112000591AY131061AY231061GF108991081001017501021999KA1120M-00291KA2120N-00631MA1999999097371MD1210051+9999MW1001OA149902321REMSYN106AAXX  14064 04390 11760 82729 11062 21137 39737 49830 52005 69942 70033 8802/ 333 11029 21063 91145 91040;
0218043900999992000021412004+60030-043120FM-12+0019BGPC V0202601N015412200019N0250001N1-00851-01961098301ADDAA199000091AY131061AY231061GF104991001001999999001051MA1999999097361MD1410001+9999MW1361OA149903241REMSYN088AAXX  14124 04390 31975 42630 11085 21196 39736 49830 54000 73633 80005 333 91163 91047;EQDQ01  00002PRCP99
0188043900999992000021415004+60030-043120FM-12+0019BGPC V0202601N016410210019N0300001N1-00981-01771098281ADDAY131031AY211031GF105991051001022501021999MA1999999097341MD1710021+9999MW1361OA149902731REMSYN088AAXX  14154 04390 41880 52632 11098 21177 39734 49828 57002 73631 8502/ 333 91153 91045;
0256043900999992000021418004+60030-043120FM-12+0019BGPC V0202701N023110150019N0250001N1-01011-01841098161ADDAA199000091AY131061AY221061GF108991081001017501021999KA1120M-00601KA2120N-01031MA1999999097221MD1710121+9999MW1371OA149903291REMSYN100AAXX  14184 04390 31775 82745 11101 21184 39722 49816 57012 73732 8802/ 333 11060 21103 91164 91062;EQDQ01  00002PRCP99
0188043900999992000021421004+60030-043120FM-12+0019BGPC V0202701N022612200019N0100001N1-01041-01851098391ADDAY131031AY201031GF103991001001999999001061MA1999999097451MD1210231+9999MW1371OA149903291REMSYN088AAXX  14214 04390 41960 32744 11104 21185 39745 49839 52023 73730 80006 333 91164 91062;
0228043900999992000021500004+60030-043120FM-12+0019BGPC V0202701N023612200019N0150001N1-01001-01971098381ADDAA199000091AY131061AY231061GA1001+999999999GF100991001001999999001001MA1999999097441MD1710011+9999MW1371OA149903451REMSYN082AAXX  15004 04390 31965 02746 11100 21197 39744 49838 57001 73733 333 91167 91066;EQDQ01  00002PRCP99
0149043900999992000021503004+60030-043120FM-12+0019BGPC V0202701N025712200019N0100001N1-00981-01971098581ADDGA1001+999999999GF100991001001999999001001MA1999999097641MD1210201+9999REMSYN066AAXX  15034 04390 41960 02750 11098 21197 39764 49858 52020 73//5;
0202043900999992000021506004+60030-043120FM-12+0019BGPC V0202701N025719999999N9999999N1-00941-01901099181ADDAA199000091KA1120M-00931KA2120N-01061MA1999999098231MD1210591+9999OA149904121REMSYN094AAXX  15064 04390 32/// /2750 11094 21190 39823 49918 52059 333 11093 21106 91180 91066 91263;EQDQ01  00002PRCP99
0176043900999992000021509004+60030-043120FM-12+0019BGPC V0202801N014412200019N0100001N1-00801-01861099921ADDGA1001+999999999GF100991001001999999001001MA1999999098971MD1210741+9999OA149903501REMSYN082AAXX  15094 04390 42960 02828 11080 21186 39897 49992 52074 333 91168 91046 91251;
0196043900999992000021511004+60030-043120FM-12+0019BGPC V0202801N018012200019N0350001N1-00781-01631100211ADDAA199000091GF101991011001999999041999MA1999999099261MD1210291+9999OA149903501REMSYN088AAXX  15114 04390 32981 12835 11078 21163 39926 40021 52029 8104/ 333 91168 91051 91251;EQDQ01  00002PRCP99
0196043900999992000021512004+60030-043120FM-12+0019BGPC V0202801N018012200019N0350001N1-00781-01631100211ADDAA199000091GF101991011001999999041999MA1999999099261MD1210291+9999OA149903501REMSYN088AAXX  15124 04390 32981 12835 11078 21163 39926 40021 52029 8104/ 333 91168 91051 91251;EQDQ01  00002PRCP99
0198043900999992000021515004+60030-043120FM-12+0019BGPC V0202801N018012200019N0300001N1-00741-01671100581ADDAY101031AY201031GA1001+999999999GF100991001001999999001001MA1999999099631MD1210371+9999MW1361OA149902881REMSYN082AAXX  15154 04390 41980 02835 11074 21167 39963 40058 52037 73600 333 91156 91049;
0244043900999992000021518004+60030-043120FM-12+0019BGPC V0202901N014912200019N0300001N1-00661-01681100701ADDAA199000091GA1001+999999999GF100991001001999999001001KA1120M-00641KA2120N-00961MA1999999099751MD1210121+9999OA149902881REMSYN094AAXX  15184 04390 32980 02929 11066 21168 39975 40070 52012 333 11064 21096 91156 91040 91240;EQDQ01  00002PRCP99
0170043900999992000021521004+60030-043120FM-12+0019BGPC V0202901N012312200019N0150001N1-00701-01791100801ADDGA1001+999999999GF100991001001999999001001MA1999999099851MD1210101+9999OA149902111REMSYN076AAXX  15214 04390 42965 02924 11070 21179 39985 40080 52010 333 91141 91037;
0200043900999992000021600004+60030-043120FM-12+0019BGPC V0202901N007212200019N0250001N1-00721-01641100901ADDAA199000091GA1001+999999999GF100991001001999999001001MA1999999099941MD1210091+9999OA149902111REMSYN076AAXX  16004 04390 32975 02914 11072 21164 39994 40090 52009 333 91141 91230;EQDQ01  00002PRCP99
