0235082130999992000010106004+40950-004120FM-12+100599999V0200901N001512200019N0200001N1+00001-00551999999ADDAA106000091GA1001+999999999GF100991001001999999001001IA1149IA2999-00809KA1120N-00041MA1999999091101MD1610031+9999ME1315569REMSYN082AAXX  01064 08213 32970 00903 10000 21055 39110 48556 56003 333 21004 34108 55067;EQDQ01  00002PRCP06
0152082130999992000010109004+40950-004120FM-12+100599999V0200801N001512200019N0200001N1+00141-00591999999ADDGA1001+999999999GF100991001001999999001001MA1999999091141MD1210041+9999ME1315639REMSYN060AAXX  01094 08213 42970 00803 10014 21059 39114 48563 52004;
0182082130999992000010112004+40950-004120FM-12+100599999V0202801N001512200019N0200001N1+00681-00161999999ADDAA106000091GF102991011001017501041011MA1999999091111MD1810031+9999ME1315719REMSYN076AAXX  01124 08213 32770 22803 10068 21016 39111 48571 58003 81041 333 5///0;EQDQ01  00002PRCP06
0142082130999992000010115004+40950-004120FM-12+100599999V0203201N002112200019N0200001N1+00881-00161999999ADDGF102991011001017501041091MA1999999091071MD1710041+9999ME1315729REMSYN066AAXX  01154 08213 42770 23204 10088 21016 39107 48572 57004 81049;
0195082130999992000010118004+40950-004120FM-12+100599999V0202801N000512200019N0200001N1+00561-00101999999ADDAA106000091GF102991011001017501041081KA1999M+00901MA1999999091061MD1810011+9999ME1315659REMSYN076AAXX  01184 08213 32770 22801 10056 21010 39106 48565 58001 81048 333 10090;EQDQ01  00002PRCP06
0235082130999992000010206004+40950-004120FM-12+100599999V0200901N001012200019N0200001N1-00121-00621999999ADDAA106000091GA1001+999999999GF100991001001999999001001IA1149IA2999-00909KA1120N-00161MA1999999091071MD1810021+9999ME1315519REMSYN082AAXX  02064 08213 32970 00902 11012 21062 39107 48551 58002 333 21016 34109 55079;EQDQ01  00002PRCP06
0152082130999992000010209004+40950-004120FM-12+100599999V0201101N001512200019N0200001N1+00021-00761999999ADDGA1001+999999999GF100991001001999999001001MA1999999091071MD1410001+9999ME1315549REMSYN060AAXX  02094 08213 42970 01103 10002 21076 39107 48554 54000;
0192082130999992000010212004+40950-004120FM-12+100599999V0202901N001512200019N0200001N1+00601-00301999999ADDAA106000091GA1001+999999999GF100991001001999999001001MA1999999091071MD1010001+9999ME1315669REMSYN070AAXX  02124 08213 32970 02903 10060 21030 39107 48566 50000 333 5///1;EQDQ01  00002PRCP06
0142082130999992000010215004+40950-004120FM-12+100599999V0203201N001512200019N0200001N1+00801-00151999999ADDGF102991001001999999001081MA1999999090991MD1610081+9999ME1315639REMSYN066AAXX  02154 08213 42970 23203 10080 21015 39099 48563 56008 80008;
0205082130999992000010218004+40950-004120FM-12+100599999V0209999C000012200019N0200001N1+00461-00131999999ADDAA106000091GA1001+999999999GF100991001001999999001001KA1999M+00901MA1999999090991MD1410001+9999ME1315569REMSYN070AAXX  02184 08213 32970 00000 10046 21013 39099 48556 54000 333 10090;EQDQ01  00002PRCP06
0235082130999992000010306004+40950-004120FM-12+100599999V0200801N001512200019N0300001N1-00181-00631999999ADDAA106000091GA1001+999999999GF100991001001999999001001IA1149IA2999-00909KA1120N-00181MA1999999091021MD1410001+9999ME1315469REMSYN082AAXX  03064 08213 32980 00803 11018 21063 39102 48546 54000 333 21018 34109 55079;EQDQ01  00002PRCP06
0152082130999992000010309004+40950-004120FM-12+100599999V0200801N001012200019N0300001N1-00061-00611999999ADDGA1001+999999999GF100991001001999999001001MA1999999091111MD1210091+9999ME1315569REMSYN060AAXX  03094 08213 42980 00802 11006 21061 39111 48556 52009;
0182082130999992000010312004+40950-004120FM-12+100599999V0202901N001512200019N0300001N1+00561-00291999999ADDAA106000091GF101991001001999999001011MA1999999091181MD1010071+9999ME1315759REMSYN076AAXX  03124 08213 32980 12903 10056 21029 39118 48575 50007 80001 333 5///0;EQDQ01  00002PRCP06
0142082130999992000010315004+40950-004120FM-12+100599999V0202801N001512200019N0300001N1+00641+00061999999ADDGF101991001001999999001041MA1999999091071MD1610111+9999ME1315679REMSYN066AAXX  03154 08213 42980 12803 10064 20006 39107 48567 56011 80004;
0195082130999992000010318004+40950-004120FM-12+100599999V0209999C000012200019N0300001N1+00421+00021999999ADDAA106000091GF103991001001999999001041KA1999M+00701MA1999999091111MD1210041+9999ME1315669REMSYN076AAXX  03184 08213 32980 30000 10042 20002 39111 48566 52004 80004 333 10070;EQDQ01  00002PRCP06
0225082130999992000010406004+40950-004120FM-12+100599999V0200901N001512200019N0300001N1-00101-00661999999ADDAA106000091GF102991001001999999001041IA1149IA2999-00809KA1120N-00201MA1999999091151MD1410001+9999ME1315599REMSYN088AAXX  04064 08213 32980 20903 11010 21066 39115 48559 54000 80004 333 21020 34108 55080;EQDQ01  00002PRCP06
0142082130999992000010409004+40950-004120FM-12+100599999V0200801N000512200019N0300001N1-00041-00511999999ADDGF101991001001999999001011MA1999999091341MD1210191+9999ME1315769REMSYN066AAXX  04094 08213 42980 10801 11004 21051 39134 48576 52019 80001;
0182082130999992000010412004+40950-004120FM-12+100599999V0202801N002112200019N0300001N1+00501-00181999999ADDAA106000091GF101991001001999999001011MA1999999091311MD1810031+9999ME1315859REMSYN076AAXX  04124 08213 32980 12804 10050 21018 39131 48585 58003 80001 333 5///0;EQDQ01  00002PRCP06
0142082130999992000010415004+40950-004120FM-12+100599999V0203301N002112200019N0300001N1+00781-00241999999ADDGF102991011001017501041011MA1999999091181MD1710131+9999ME1315809REMSYN066AAXX  04154 08213 42780 23304 10078 21024 39118 48580 57013 81041;
0195082130999992000010418004+40950-004120FM-12+100599999V0200301N000512200019N0300001N1+00501-00181999999ADDAA106000091GF102991011001017501041011KA1999M+00801MA1999999091181MD1410001+9999ME1315749REMSYN076AAXX  04184 08213 32780 20301 10050 21018 39118 48574 54000 81041 333 10080;EQDQ01  00002PRCP06
0225082130999992000010506004+40950-004120FM-12+100599999V0200701N000512200019N0300001N1-00161-00541999999ADDAA106000091GF101991001001999999001011IA1149IA2999-00809KA1120N-00161MA1999999090831MD1710161+9999ME1315309REMSYN088AAXX  05064 08213 32980 10701 11016 21054 39083 48530 57016 80001 333 21016 34108 55085;EQDQ01  00002PRCP06
0142082130999992000010509004+40950-004120FM-12+100599999V0209999C000012200019N0300001N1-00041-00511999999ADDGF104991001001999999001041MA1999999090741MD1710091+9999ME1315249REMSYN066AAXX  05094 08213 42980 40000 11004 21051 39074 48524 57009 80004;
0182082130999992000010512004+40950-004120FM-12+100599999V0203001N001519999999N0300001N1+00361-00231999999ADDAA106000091GF106991001001999999001041MA1999999090791MD1010051+9999ME1315379REMSYN076AAXX  05124 08213 32980 63003 10036 21023 39079 48537 50005 80004 333 5///0;EQDQ01  00002PRCP06
0195082130999992000010518004+40950-004120FM-12+100599999V0203201N001512200019N0300001N1+00361-00051999999ADDAA106000091GF104991011001017501041051KA1999M+00641MA1999999090591MD1610031+9999ME1315199REMSYN076AAXX  05184 08213 32780 43203 10036 21005 39059 48519 56003 81045 333 10064;EQDQ01  00002PRCP06
0235082130999992000010606004+40950-004120FM-12+100599999V0201101N001512200019N0300001N1+00041-00281999999ADDAA106000091GA1001+999999999GF100991001001999999001001IA1149IA2999-00909KA1120N-00151MA1999999090541MD1410001+9999ME1315099REMSYN082AAXX  06064 08213 32980 01103 10004 21028 39054 48509 54000 333 21015 34109 55084;EQDQ01  00002PRCP06
0142082130999992000010609004+40950-004120FM-12+100599999V0201001N001512200019N0250001N1+00271-00181999999ADDGF103991021001017501051011MA1999999090671MD1210131+9999ME1315249REMSYN066AAXX  06094 08213 42775 31003 10027 21018 39067 48524 52013 82051;
0176082130999992000010612004+40950-004120FM-12+100599999V0202601N001012200019N0300001N1+00921-00011999999ADDAA106000091GF103991011011008001031011MA1999999090791MD1110121+9999ME1315489REMSYN070AAXX  06124 08213 32580 32602 10092 21001 39079 48548 51012 81131 333;EQDQ01  00002PRCP06
0142082130999992000010615004+40950-004120FM-12+100599999V0200101N001012200019N0250001N1+01031+00031999999ADDGF102991011051008001001011MA1999999090781MD1810011+9999ME1315499REMSYN066AAXX  06154 08213 42575 20102 10103 20003 39078 48549 58001 81501;
0225082130999992000010706004+40950-004120FM-12+100599999V0200801N001012200019N0150001N1-00121-00361999999ADDAA106000091GF102991001001999999001081IA1149IA2999-00709KA1120N-00121MA1999999091071MD1510001+9999ME1315529REMSYN088AAXX  07064 08213 32965 20802 11012 21036 39107 48552 55000 80008 333 21012 34107 55083;EQDQ01  00002PRCP06
0142082130999992000010709004+40950-004120FM-12+100599999V0200501N001012200019N0150001N1+00021-00331999999ADDGF102991001001999999001081MA1999999091071MD1410001+9999ME1315549REMSYN066AAXX  07094 08213 42965 20502 10002 21033 39107 48554 54000 80008;
0176082130999992000010712004+40950-004120FM-12+100599999V0202901N001012200019N0150001N1+00621+00091999999ADDAA106000091GF102991001001999999001081MA1999999091101MD1010031+9999ME1315709REMSYN070AAXX  07124 08213 32965 22902 10062 20009 39110 48570 50003 80008 333;EQDQ01  00002PRCP06
0142082130999992000010715004+40950-004120FM-12+100599999V0203001N001512200019N0150001N1+00901+00171999999ADDGF102991001001999999001081MA1999999090951MD1710151+9999ME1315629REMSYN066AAXX  07154 08213 42965 23003 10090 20017 39095 48562 57015 80008;
0195082130999992000010718004+40950-004120FM-12+100599999V0209999C000012200019N0150001N1+00581+00151999999ADDAA106000091GF102991001001999999001081KA1999M+00901MA1999999090951MD1410001+9999ME1315559REMSYN076AAXX  07184 08213 32965 20000 10058 20015 39095 48555 54000 80008 333 10090;EQDQ01  00002PRCP06
0225082130999992000010806004+40950-004120FM-12+100599999V0200901N001012200019N0150001N1-00101-00331999999ADDAA106000091GF102991001001999999001081IA1149IA2999-00809KA1120N-00101MA1999999090871MD1610021+9999ME1315359REMSYN088AAXX  08064 08213 32965 20902 11010 21033 39087 48535 56002 80008 333 21010 34108 55082;EQDQ01  00002PRCP06
0142082130999992000010809004+40950-004120FM-12+100599999V0209999C000012200019N0150001N1-00061-00291999999ADDGF102991001001999999001081MA1999999090951MD1310081+9999ME1315429REMSYN066AAXX  08094 08213 42965 20000 11006 21029 39095 48542 53008 80008;
0182082130999992000010812004+40950-004120FM-12+100599999V0202701N001512200019N0120001N1+00461+00011999999ADDAA106000091GF103991011041008001001081MA1999999090981MD1010031+9999ME1315569REMSYN076AAXX  08124 08213 32562 32703 10046 20001 39098 48556 50003 81408 333 5///1;EQDQ01  00002PRCP06
0142082130999992000010815004+40950-004120FM-12+100599999V0203001N001512200019N0120001N1+00661+00191999999ADDGF104991021041008001001081MA1999999090831MD1710151+9999ME1315469REMSYN066AAXX  08154 08213 42562 43003 10066 20019 39083 48546 57015 82408;
0233082130999992000010818004+40950-004120FM-12+100599999V0202701N002110001519N0001001N1+00121+00121999999ADDAA106000091AY111061AY211061GA1091+999999999GF109991091999999999999999KA1999M+00701MA1999999090901MD1110071+9999ME1315429MW1451REMSYN076AAXX  08184 08213 31/01 92704 10012 20012 39090 48542 51007 74511 333 10070;EQDQ01  00002PRCP06
0240082130999992000010906004+40950-004120FM-12+100599999V0201801N001510075019N0120001N1+00211+00081999999ADDAA112000591AY161061AY261061GF108991081051008001999999IA1099IA2999-00309KA1120N-00141MA1999999090791MD1610051+9999ME1315349MW1601REMSYN100AAXX  09064 08213 11562 81803 10021 20008 39079 48534 56005 69962 76066 885// 333 21014 31103 55077;
0170082130999992000010909004+40950-004120FM-12+100599999V0209999C000010075019N0020001N1+00231+00131999999ADDAY161031AY251031GF108991081051008001999999MA1999999090911MD1210121+9999ME1315459MW1511REMSYN072AAXX  09094 08213 41520 80000 10023 20013 39091 48545 52012 75165 885//;
0197082130999992000010912004+40950-004120FM-12+100599999V0200401N003610075019N0200001N1+00351+00161999999ADDAA106001091AY171061AY251061GF108991081051008001999999MA1999999091021MD1110111+9999ME1315579MW1601REMSYN088AAXX  09124 08213 11570 80407 10035 20016 39102 48557 51011 60011 76075 885// 333 5///0;
0170082130999992000010915004+40950-004120FM-12+100599999V0200401N003110075019N0200001N1+00341+00071999999ADDAY171031AY261031GF108991081061008001999999MA1999999090901MD1810121+9999ME1315469MW1021REMSYN072AAXX  09154 08213 41570 80406 10034 20007 39090 48546 58012 70276 886//;
0210082130999992000010918004+40950-004120FM-12+100599999V0200401N002110075019N0150001N1+00321+00071999999ADDAA112002091AY161061AY221061GF107991051051008001071999KA1999M+00401MA1999999090981MD1310081+9999ME1315539MW1021REMSYN088AAXX  09184 08213 11565 70404 10032 20007 39098 48553 53008 60022 70262 8557/ 333 10040;
0241082130999992000011006004+40950-004120FM-12+100599999V0200801N001510075019N0150001N1-00061-00231999999ADDAA106000091GF108991051051008001071999IA1099IA2999-00209KA1120N-00091MA1999999999999MD1210041+9999ME1315569REMSYN088AAXX  10064 08213 32565 80803 11006 21023 39911 48556 52004 8557/ 333 21009 31102 55002;EQDQ01  00002PRCP06Q02 099113APOSP 
0189082130999992000011009004+40950-004120FM-12+100599999V0200501N002110075019N0080001N1-00141-00261999999ADDAY121031AY221031GF108991081061008001999999MA1999999091272MD1210161+9999ME1315689MW1101REMSYN072AAXX  10094 08213 41558 80504 11014 21026 39127 48568 52016 71022 886//;EQDQ01+091273APOSP 
0182082130999992000011012004+40950-004120FM-12+100599999V0202901N001510075019N0200001N1+00041-00241999999ADDAA106000091GF107991071051008001999999MA1999999091271MD1010001+9999ME1315729REMSYN076AAXX  10124 08213 32570 72903 10004 21024 39127 48572 50000 875// 333 5///0;EQDQ01  00002PRCP06
0142082130999992000011015004+40950-004120FM-12+100599999V0202501N001012200019N0180001N1+00341-00131999999ADDGF104991041051008001001001MA1999999091181MD1710091+9999ME1315719REMSYN066AAXX  10154 08213 42568 42502 10034 21013 39118 48571 57009 84500;
0195082130999992000011018004+40950-004120FM-12+100599999V0202501N001012200019N0200001N1+00071-00241999999ADDAA106000091GF103991021051008001031001KA1999M+00381MA1999999091221MD1310041+9999ME1315699REMSYN076AAXX  10184 08213 32570 32502 10007 21024 39122 48569 53004 82530 333 10038;EQDQ01  00002PRCP06
0225082130999992000011106004+40950-004120FM-12+100599999V0200701N000512200019N0150001N1-00171-00261999999ADDAA106000091GF104991041061008001001001IA1149IA2999-00709KA1120N-00311MA1999999091271MD1010001+9999ME1315689REMSYN088AAXX  11064 08213 32565 40701 11017 21026 39127 48568 50000 84600 333 21031 34107 55034;EQDQ01  00002PRCP06
0170082130999992000011109004+40950-004120FM-12+100599999V0200701N001010075019N0080001N1-00121-00251999999ADDAY171031AY211031GF105991051061008001001001MA1999999091391MD1210121+9999ME1315799MW1101REMSYN072AAXX  11094 08213 41558 50702 11012 21025 39139 48579 52012 71071 85600;
0197082130999992000011112004+40950-004120FM-12+100599999V0203201N001512200019N0180001N1+00491-00041999999ADDAA106000791AY171061AY211061GF104991041051008001001001MA1999999091471MD1110081+9999ME1315999MW1021REMSYN088AAXX  11124 08213 11568 43203 10049 21004 39147 48599 51008 69901 70271 84500 333 5///0;
0142082130999992000011115004+40950-004120FM-12+100599999V0202401N002112200019N0250001N1+00581+00131999999ADDGF101991011051008001001001MA1999999091351MD1710121+9999ME1315919REMSYN066AAXX  11154 08213 42575 12404 10058 20013 39135 48591 57012 81500;
0192082130999992000011118004+40950-004120FM-12+100599999V0201801N001512200019N0300001N1+00271-00041999999ADDAA112000791GA1001+999999999GF100991001001999999001001KA1999M+00601MA1999999091351MD1510001+9999ME1315849REMSYN076AAXX  11184 08213 12980 01803 10027 21004 39135 48584 55000 69902 333 10060;
0225082130999992000011206004+40950-004120FM-12+100599999V0200801N001512200019N0150001N1-00101-00541999999ADDAA106000091GF102991001001999999001081IA1149IA2999-00709KA1120N-00121MA1999999091311MD1610041+9999ME1315739REMSYN088AAXX  12064 08213 32965 20803 11010 21054 39131 48573 56004 80008 333 21012 34107 55075;EQDQ01  00002PRCP06
0142082130999992000011209004+40950-004120FM-12+100599999V0200801N001512200019N0150001N1+00021-00391999999ADDGF102991001001999999001081MA1999999091351MD1310041+9999ME1315799REMSYN066AAXX  12094 08213 42965 20803 10002 21039 39135 48579 53004 80008;
0182082130999992000011212004+40950-004120FM-12+100599999V0202701N001512200019N0150001N1+00601-00241999999ADDAA106000091GF102991001001999999001081MA1999999091311MD1810041+9999ME1315879REMSYN076AAXX  12124 08213 32965 22703 10060 21024 39131 48587 58004 80008 333 5///1;EQDQ01  00002PRCP06
0142082130999992000011215004+40950-004120FM-12+100599999V0202801N002612200019N0200001N1+00781-00051999999ADDGF102991011011008001001011MA1999999091141MD1710171+9999ME1315769REMSYN066AAXX  12154 08213 42570 22805 10078 21005 39114 48576 57017 81101;
0195082130999992000011218004+40950-004120FM-12+100599999V0202201N001012200019N0200001N1+00381-00141999999ADDAA106000091GF102991011011008001001011KA1999M+00801MA1999999091101MD1810041+9999ME1315649REMSYN076AAXX  12184 08213 32570 22202 10038 21014 39110 48564 58004 81101 333 10080;EQDQ01  00002PRCP06
0142082130999992000011309004+40950-004120FM-12+100599999V0201301N002612200019N0200001N1+00121-00471999999ADDGF105991021001017501021081MA1999999090461MD1810081+9999ME1315039REMSYN066AAXX  13094 08213 42770 51305 10012 21047 39046 48503 58008 82028;
0176082130999992000011312004+40950-004120FM-12+100599999V0202201N002610900019N0200001N1+00861-00401999999ADDAA106000091GF105991011011008001021081MA1999999090231MD1810231+9999ME1314969REMSYN070AAXX  13124 08213 32570 52205 10086 21040 39023 48496 58023 81128 333;EQDQ01  00002PRCP06
0142082130999992000011315004+40950-004120FM-12+100599999V0202201N005110360019N0200001N1+00581-00251999999ADDGF106991031041008001021081MA1999999089951MD1710281+9999ME1314669REMSYN066AAXX  13154 08213 42570 62210 10058 21025 38995 48466 57028 83428;
0195082130999992000011318004+40950-004120FM-12+100599999V0201501N003610360019N0120001N1+00341-00251999999ADDAA106000091GF107991021041008001021081KA1999M+00861MA1999999089861MD1810091+9999ME1314549REMSYN076AAXX  13184 08213 32562 71507 10034 21025 38986 48454 58009 82428 333 10086;EQDQ01  00002PRCP06
0229082130999992000011406004+40950-004120FM-12+100599999V0202601N002110120019N0160001N1+00221-00211999999ADDAA199000091GF106991061081008001001001IA1019IA2999-00609KA1120N+00221MA1999999089221MD1710131+9999ME1313959REMSYN092    AAXX  14064 08213 32566 62604 10022 21021 38922 48395 57013 86800 333 20022 30106 55034;EQDQ01  00002PRCP99
0174082130999992000011409004+40950-004120FM-12+100599999V0203101N001010360019N0004001N1+00081-00021999999ADDAY171031AY221031GF108991041051008001021999MA1999999089231MD1210011+9999ME1313949MW1711REMSYN076    AAXX  14094 08213 41504 83102 10008 21002 38923 48394 52001 77172 8452/;
0201082130999992000011412004+40950-004120FM-12+100599999V0202701N001510120019N0180001N1+00381-00021999999ADDAA106000591AY171061AY221061GF107991071081008001001001MA1999999089191MD1810041+9999ME1313949MW1011REMSYN092    AAXX  14124 08213 11568 72703 10038 21002 38919 48394 58004 69951 70172 87800 333 5///0;
0146082130999992000011415004+40950-004120FM-12+100599999V0201301N002610120019N0140001N1+00321-00341999999ADDGF107991071081008001001001MA1999999089071MD1610121+9999ME1313829REMSYN070    AAXX  14154 08213 42564 71305 10032 21034 38907 48382 56012 87800;
0186082130999992000011418004+40950-004120FM-12+100599999V0201201N001510075019N0200001N1+00161-00221999999ADDAA112000591GF107991051051008001021001KA1999M+00501MA1999999089101MD1210031+9999ME1313839REMSYN086    AAXX  14184 08213 12570 71203 10016 21022 38910 48383 52003 69952 85520 333 10050;
0229082130999992000011506004+40950-004120FM-12+100599999V0200701N003112200019N0200001N1+00101-00491999999ADDAA199000091GF104991041021008001001001IA1019IA2999-00509KA1120N+00101MA1999999089661MD1310101+9999ME1314329REMSYN092    AAXX  15064 08213 32570 40706 10010 21049 38966 48432 53010 84200 333 20010 30105 55025;EQDQ01  00002PRCP99
0146082130999992000011509004+40950-004120FM-12+100599999V0200901N003110075019N0200001N1+00201-00431999999ADDGF105991051021008001001001MA1999999089991MD1210331+9999ME1314639REMSYN070    AAXX  15094 08213 42570 50906 10020 21043 38999 48463 52033 85200;
0186082130999992000011512004+40950-004120FM-12+100599999V0200901N003612200019N0200001N1+00541-00611999999ADDAA199000091GF103991031021008001001001MA1999999090111MD1110121+9999ME1314799REMSYN080    AAXX  15124 08213 32570 30907 10054 21061 39011 48479 51012 83200 333 5///0;EQDQ01  00002PRCP99
0146082130999992000011515004+40950-004120FM-12+100599999V0201101N002612200019N0200001N1+00621-00561999999ADDGF101991011021008001001001MA1999999090101MD1710011+9999ME1314809REMSYN070    AAXX  15154 08213 42570 11105 10062 21056 39010 48480 57001 81200;
0199082130999992000011518004+40950-004120FM-12+100599999V0201501N002112200019N0300001N1+00301-00591999999ADDAA199000091GF101991011021008001001001KA1999M+00641MA1999999090231MD1110131+9999ME1314869REMSYN080    AAXX  15184 08213 32580 11504 10030 21059 39023 48486 51013 81200 333 10064;EQDQ01  00002PRCP99
0229082130999992000011606004+40950-004120FM-12+100599999V0209999C000012200019N0200001N1-00101-00401999999ADDAA199000091GF103991031021008001001001IA1149IA2999-00709KA1120N-00221MA1999999090581MD1010021+9999ME1315099REMSYN092    AAXX  16064 08213 32570 30000 11010 21040 39058 48509 50002 83200 333 21022 34107 55065;EQDQ01  00002PRCP99
0146082130999992000011609004+40950-004120FM-12+100599999V0202601N002612200019N0200001N1-00021-00421999999ADDGF102991021021008001001001MA1999999090751MD1210171+9999ME1315269REMSYN070    AAXX  16094 08213 42570 22605 11002 21042 39075 48526 52017 82200;
0146082130999992000011615004+40950-004120FM-12+100599999V0202401N002612200019N0200001N1+00721-00131999999ADDGF101991011021008001001001MA1999999090701MD1710121+9999ME1315369REMSYN070    AAXX  16154 08213 42570 12405 10072 21013 39070 48536 57012 81200;
0199082130999992000011618004+40950-004120FM-12+100599999V0202201N001512200019N0200001N1+00361-00231999999ADDAA199000091GF101991011021008001001001KA1999M+00801MA1999999090741MD1210041+9999ME1315329REMSYN080    AAXX  16184 08213 32570 12203 10036 21023 39074 48532 52004 81200 333 10080;EQDQ01  00002PRCP99
0239082130999992000011706004+40950-004120FM-12+100599999V0201301N001512200019N0300001N1-00161-00471999999ADDAA199000091GA1001+999999999GF100991001001999999001001IA1149IA2999-00909KA1120N-00161MA1999999091031MD1410001+9999ME1315479REMSYN086    AAXX  17064 08213 32980 01303 11016 21047 39103 48547 54000 333 21016 34109 55084;EQDQ01  00002PRCP99
0156082130999992000011709004+40950-004120FM-12+100599999V0209999C000012200019N0150001N1+00081-00351999999ADDGA1001+999999999GF100991001001999999001001MA1999999091151MD1310121+9999ME1315639REMSYN064    AAXX  17094 08213 42965 00000 10008 21035 39115 48563 53012;
0190082130999992000011712004+40950-004120FM-12+100599999V0203301N001012200019N0250001N1+00661-00181999999ADDAA199000091GA1001+999999999GF100991001001999999001001MA1999999091221MD1110071+9999ME1315819REMSYN068    AAXX  17124 08213 32975 03302 10066 21018 39122 48581 51007 333;EQDQ01  00002PRCP99
0156082130999992000011715004+40950-004120FM-12+100599999V0202701N001512200019N0250001N1+00881-00071999999ADDGA1001+999999999GF100991001001999999001001MA1999999091071MD1810151+9999ME1315729REMSYN064    AAXX  17154 08213 42975 02703 10088 21007 39107 48572 58015;
0209082130999992000011718004+40950-004120FM-12+100599999V0200401N001512200019N0250001N1+00581-00071999999ADDAA199000091GA1001+999999999GF100991001001999999001001KA1999M+00891MA1999999091111MD1310041+9999ME1315699REMSYN074    AAXX  17184 08213 32975 00403 10058 21007 39111 48569 53004 333 10089;EQDQ01  00002PRCP99
0239082130999992000011806004+40950-004120FM-12+100599999V0209999C000012200019N0300001N1-00221-00541999999ADDAA199000091GA1001+999999999GF100991001001999999001001IA1149IA2999-01109KA1120N-00281MA1999999090861MD1710151+9999ME1315319REMSYN086    AAXX  18064 08213 32980 00000 11022 21054 39086 48531 57015 333 21028 34111 55089;EQDQ01  00002PRCP99
0174082130999992000011809004+40950-004120FM-12+100599999V0201301N001012200019N0080001N1+00001-00451999999ADDAY101031AY201031GF101991001001999999001011MA1999999090831MD1610031+9999ME1315339MW1401REMSYN076    AAXX  18094 08213 41958 11302 10000 21045 39083 48533 56003 74000 80001;
0180082130999992000011812004+40950-004120FM-12+100599999V0202901N001512200019N0200001N1+00551-00141999999ADDAA199000091GF102991011001017501031011MA1999999090831MD1010001+9999ME1315449REMSYN074    AAXX  18124 08213 32770 22903 10055 21014 39083 48544 50000 81031 333;EQDQ01  00002PRCP99
0146082130999992000011815004+40950-004120FM-12+100599999V0203001N001512200019N0150001N1+00801-00281999999ADDGF101991001001999999001011MA1999999090711MD1710121+9999ME1315389REMSYN070    AAXX  18154 08213 42965 13003 10080 21028 39071 48538 57012 80001;
0199082130999992000011818004+40950-004120FM-12+100599999V0202601N001512200019N0150001N1+00301+00001999999ADDAA199000091GF101991011001017501031011KA1999M+00811MA1999999090711MD1010001+9999ME1315299REMSYN080    AAXX  18184 08213 32765 12603 10030 20000 39071 48529 50000 81031 333 10081;EQDQ01  00002PRCP99
0265082130999992000011906004+40950-004120FM-12+100599999V0202401N001010003019N0002001N1-00321-00391999999ADDAA199000091GA1091+000309999GF109991091999999999999999GJ105409IA1149IA2999-01209KA1120N-00451MA1999999090621MD1510001+9999ME1315099MW1491REMSYN098    AAXX  19064 08213 31/02 92402 11032 21039 39062 48509 55000 749// 333 21045 34112 55090 89/01;EQDQ01  00002PRCP99
0200082130999992000011909004+40950-004120FM-12+100599999V0202401N001010001519N0001001N1-00301-00341999999ADDAY141031AY241031GA1091+000159999GF109991091999999999999999MA1999999090701MD1110081+9999ME1315169MW1491REMSYN086    AAXX  19094 08213 41/01 92402 11030 21034 39070 48516 51008 74944 333 89/00 96049;
0224082130999992000011912004+40950-004120FM-12+100599999V0202201N001510001519N0008001N1-00201-00251999999ADDAA199000091AY141061AY241061GA1091+000159999GF109991091999999999999999MA1999999090711MD1010011+9999ME1315199MW1491REMSYN080    AAXX  19124 08213 31/08 92203 11020 21025 39071 48519 50001 74944 333 89/00;EQDQ01  00002PRCP99
0190082130999992000011915004+40950-004120FM-12+100599999V0201501N001510003019N0009001N1-00021-00101999999ADDAY141031AY241031GA1091+000309999GF109991091999999999999999MA1999999090671MD1710041+9999ME1315199MW1491REMSYN076AAXX  19154 08213 41/09 91503 11002 21010 39067 48519 57004 74944 333 89/01;
0210082130999992000011918004+40950-004120FM-12+100599999V02099999999992200019N9999999N1+00071-00121999999ADDAA112000191AY141061AY241061GF101991011001017501031001KA1999M+00171MA1999999090671MD1510001+9999ME1315219MW1101REMSYN088AAXX  19184 08213 117// 1//// 10007 21012 39067 48521 55000 69912 71044 81030 333 10017;
0247082130999992000012006004+40950-004120FM-12+100599999V0200501N001512200019N0020001N1-00501-00561999999ADDAA199000091GA1001+999999999GF100991001001999999001001IA1149IA2999-01109KA1120N-00541MA1999999090871MD1410001+9999ME1315279MW1401REMSYN088AAXX  20064 08213 31920 00503 11050 21056 39087 48527 54000 740// 333 21054 34111 55012;EQDQ01  00002PRCP99
0190082130999992000012009004+40950-004120FM-12+100599999V0201001N001010001519N0001001N1-00461-00521999999ADDAY141031AY201031GA1091+000159999GF109991091999999999999999MA1999999091031MD1210161+9999ME1315419MW1491REMSYN076AAXX  20094 08213 41/01 91002 11046 21052 39103 48541 52016 74940 333 89/00;
0226082130999992000012012004+40950-004120FM-12+100599999V0202801N001510001519N0001001N1-00061-00071999999ADDAA199000091AY141061AY241061GA1091+000159999GF109991091999999999999999MA1999999091071MD1110041+9999ME1315539MW1491REMSYN082AAXX  20124 08213 31/01 92803 11006 21007 39107 48553 51004 74944 333 5///0 89/00;EQDQ01  00002PRCP99
0152082130999992000012015004+40950-004120FM-12+100599999V0203001N001512200019N0110001N1+00621-00141999999ADDGA1001+999999999GF100991001001999999001001MA1999999091021MD1610051+9999ME1315629REMSYN060AAXX  20154 08213 42961 03003 10062 21014 39102 48562 56005;
0205082130999992000012018004+40950-004120FM-12+100599999V0200401N001012200019N0120001N1+00461-00361999999ADDAA199000091GA1001+999999999GF100991001001999999001001KA1999M+00661MA1999999091111MD1210091+9999ME1315679REMSYN070AAXX  20184 08213 32962 00402 10046 21036 39111 48567 52009 333 10066;EQDQ01  00002PRCP99
0235082130999992000012106004+40950-004120FM-12+100599999V0209999C000012200019N0150001N1-00221-00371999999ADDAA199000091GA1001+999999999GF100991001001999999001001IA1149IA2999-00909KA1120N-00221MA1999999091111MD1610021+9999ME1315539REMSYN082AAXX  21064 08213 32965 00000 11022 21037 39111 48553 56002 333 21022 34109 55056;EQDQ01  00002PRCP99
0152082130999992000012109004+40950-004120FM-12+100599999V0201001N000512200019N0100001N1-00141-00581999999ADDGA1001+999999999GF100991001001999999001001MA1999999091151MD1110041+9999ME1315589REMSYN060AAXX  21094 08213 42960 01001 11014 21058 39115 48558 51004;
0192082130999992000012112004+40950-004120FM-12+100599999V0202901N001012200019N0120001N1+00361-00301999999ADDAA199000091GA1001+999999999GF100991001001999999001001MA1999999091181MD1110031+9999ME1315719REMSYN070AAXX  21124 08213 32962 02902 10036 21030 39118 48571 51003 333 5///1;EQDQ01  00002PRCP99
0205082130999992000012118004+40950-004120FM-12+100599999V0202601N000512200019N0100001N1-00041-00271999999ADDAA199000091GA1001+999999999GF100991001001999999001001KA1999M+00601MA1999999090991MD1410001+9999ME1315469REMSYN070AAXX  21184 08213 32960 02601 11004 21027 39099 48546 54000 333 10060;EQDQ01  00002PRCP99
0180082130999992000012209004+40950-004120FM-12+100599999V0209999C000010001519N0001001N1-00821-00921999999ADDAY141031AY241031GA1091+999999999GF109991091999999999999999MA1999999090591MD1410001+9999ME1314979MW1491REMSYN066AAXX  22094 08213 41/01 90000 11082 21092 39059 48497 54000 74944;
0220082130999992000012212004+40950-004120FM-12+100599999V0203101N001010003019N0005001N1-00381-00431999999ADDAA199000091AY141061AY241061GA1091+999999999GF109991091999999999999999MA1999999090591MD1410001+9999ME1315059MW1491REMSYN076AAXX  22124 08213 31/05 93102 11038 21043 39059 48505 54000 74944 333 5///1;EQDQ01  00002PRCP99
0170082130999992000012215004+40950-004120FM-12+100599999V0202101N001510075019N0050001N1-00301-00401999999ADDAY141031AY241031GF106991061061008001001001MA1999999090541MD1610051+9999ME1315029MW1101REMSYN072AAXX  22154 08213 41550 62103 11030 21040 39054 48502 56005 71044 86600;
0223082130999992000012218004+40950-004120FM-12+100599999V0201401N001012200019N0080001N1-00301-00401999999ADDAA199000091AY141061AY221061GF104991041061008001001001KA1999M-00181MA1999999090511MD1710031+9999ME1315009MW1101REMSYN082AAXX  22184 08213 31558 41402 11030 21040 39051 48500 57003 71042 84600 333 11018;EQDQ01  00002PRCP99
0225082130999992000012306004+40950-004120FM-12+100599999V0200801N001510075019N0100001N1-00161-00291999999ADDAA199000091GF107991071071008001001001IA1149IA2999-01109KA1120N-00421MA1999999090471MD1810061+9999ME1314999REMSYN088AAXX  23064 08213 32560 70803 11016 21029 39047 48499 58006 87700 333 21042 34111 55008;EQDQ01  00002PRCP99
0142082130999992000012309004+40950-004120FM-12+100599999V0200801N000510075019N0200001N1-00021-00151999999ADDGF106991061051008001001001MA1999999090541MD1310071+9999ME1315089REMSYN066AAXX  23094 08213 42570 60801 11002 21015 39054 48508 53007 86500;
0182082130999992000012312004+40950-004120FM-12+100599999V0200401N003110120019N0200001N1+00301-00181999999ADDAA199000091GF106991061081008001001001MA1999999090541MD1010001+9999ME1315139REMSYN076AAXX  23124 08213 32570 60406 10030 21018 39054 48513 50000 86800 333 5///0;EQDQ01  00002PRCP99
0142082130999992000012315004+40950-004120FM-12+100599999V0200301N003110075019N0200001N1+00281-00331999999ADDGF106991061041008001001001MA1999999090431MD1610111+9999ME1315039REMSYN066AAXX  23154 08213 42570 60306 10028 21033 39043 48503 56011 86400;
0195082130999992000012318004+40950-004120FM-12+100599999V0200301N002112200019N0200001N1+00181-00461999999ADDAA199000091GF104991041041008001001001KA1999M+00361MA1999999090461MD1310031+9999ME1315049REMSYN076AAXX  23184 08213 32570 40304 10018 21046 39046 48504 53003 84400 333 10036;EQDQ01  00002PRCP99
0225082130999992000012406004+40950-004120FM-12+100599999V0200601N001012200019N0200001N1-00301-00521999999ADDAA199000091GF102991021021008001001001IA1149IA2999-01009KA1120N-00441MA1999999090391MD1810061+9999ME1314899REMSYN088AAXX  24064 08213 32570 20602 11030 21052 39039 48489 58006 82200 333 21044 34110 55015;EQDQ01  00002PRCP99
0142082130999992000012409004+40950-004120FM-12+100599999V0200701N001010075019N0180001N1-00201-00341999999ADDGF107991051051008001021001MA1999999090381MD1710011+9999ME1314909REMSYN066AAXX  24094 08213 42568 70702 11020 21034 39038 48490 57001 85520;
0182082130999992000012412004+40950-004120FM-12+100599999V0200401N001510075019N0180001N1+00121-00551999999ADDAA199000091GF107991051051008001021001MA1999999090381MD1010001+9999ME1314969REMSYN076AAXX  24124 08213 32568 70403 10012 21055 39038 48496 50000 85520 333 5///0;EQDQ01  00002PRCP99
0142082130999992000012415004+40950-004120FM-12+100599999V0202701N001510075019N0180001N1+00201-00641999999ADDGF107991051051008001021001MA1999999090191MD1710191+9999ME1314809REMSYN066AAXX  24154 08213 42568 72703 10020 21064 39019 48480 57019 85520;
0195082130999992000012418004+40950-004120FM-12+100599999V0203301N001010075019N0180001N1+00101-00731999999ADDAA199000091GF107991051051008001021001KA1999M+00241MA1999999090181MD1710011+9999ME1314789REMSYN076AAXX  24184 08213 32568 73302 10010 21073 39018 48478 57001 85520 333 10024;EQDQ01  00002PRCP99
0225082130999992000012506004+40950-004120FM-12+100599999V0209999C000012200019N0200001N1-00561-00841999999ADDAA199000091GF102991021021008001001001IA1149IA2999-01109KA1120N-00601MA1999999090031MD1710031+9999ME1314539REMSYN088AAXX  25064 08213 32570 20000 11056 21084 39003 48453 57003 82200 333 21060 34111 55032;EQDQ01  00002PRCP99
0142082130999992000012509004+40950-004120FM-12+100599999V0201001N002612200019N0300001N1-00381-00751999999ADDGF101991001001999999001011MA1999999090101MD1210071+9999ME1314639REMSYN066AAXX  25094 08213 42980 11005 11038 21075 39010 48463 52007 80001;
0182082130999992000012512004+40950-004120FM-12+100599999V0202801N001512200019N0300001N1+00181-00671999999ADDAA199000091GF101991011001017501041001MA1999999090061MD1810041+9999ME1314699REMSYN076AAXX  25124 08213 32780 12803 10018 21067 39006 48469 58004 81040 333 5///0;EQDQ01  00002PRCP99
0142082130999992000012515004+40950-004120FM-12+100599999V0200401N001012200019N0200001N1+00281-00661999999ADDGF103991031021008001001001MA1999999089951MD1710111+9999ME1314609REMSYN066AAXX  25154 08213 42570 30402 10028 21066 38995 48460 57011 83200;
0195082130999992000012518004+40950-004120FM-12+100599999V0200401N001510075019N0180001N1+00181-00671999999ADDAA199000091GF107991051051008001021001KA1999M+00321MA1999999089991MD1310041+9999ME1314629REMSYN076AAXX  25184 08213 32568 70403 10018 21067 38999 48462 53004 85520 333 10032;EQDQ01  00002PRCP99
0225082130999992000012606004+40950-004120FM-12+100599999V0201701N000512200019N0180001N1-00341-00851999999ADDAA199000091GF103991031021008001001001IA1149IA2999-01009KA1120N-00421MA1999999090221MD1310061+9999ME1314749REMSYN088AAXX  26064 08213 32568 31701 11034 21085 39022 48474 53006 83200 333 21042 34110 55067;EQDQ01  00002PRCP99
0182082130999992000012612004+40950-004120FM-12+100599999V0202801N001510360019N0180001N1+00241-00441999999ADDAA199000091GF106991041021008001041011MA1999999090511MD1110131+9999ME1315109REMSYN076AAXX  26124 08213 32568 62803 10024 21044 39051 48510 51013 84241 333 5///0;EQDQ01  00002PRCP99
0142082130999992000012615004+40950-004120FM-12+100599999V0201401N007210075019N0180001N1+00521-00341999999ADDGF106991051021008001001011MA1999999090391MD1510121+9999ME1315049REMSYN066AAXX  26154 08213 42568 61414 10052 21034 39039 48504 55012 85201;
0195082130999992000012618004+40950-004120FM-12+100599999V0201401N001510120019N0180001N1+00481-00271999999ADDAA199000091GF107991071081008001001001KA1999M+00541MA1999999090551MD1210161+9999ME1315189REMSYN076AAXX  26184 08213 32568 71403 10048 21027 39055 48518 52016 87800 333 10054;EQDQ01  00002PRCP99
0225082130999992000012706004+40950-004120FM-12+100599999V0201501N006210075019N0160001N1+00421-00151999999ADDAA199000091GF107991051051008001021001IA1019IA2999-00109KA1120N+00301MA1999999090861MD1810021+9999ME1315449REMSYN088AAXX  27064 08213 32566 71512 10042 21015 39086 48544 58002 85520 333 20030 30101 55039;EQDQ01  00002PRCP99
0170082130999992000012709004+40950-004120FM-12+100599999V0201401N003610075019N0160001N1+00421-00091999999ADDAY161031AY221031GF108991051051008001021999MA1999999091031MD1310171+9999ME1315599MW1021REMSYN072AAXX  27094 08213 41566 81407 10042 21009 39103 48559 53017 70262 8552/;
0197082130999992000012712004+40950-004120FM-12+100599999V0203001N001010120019N0180001N1+00701+00241999999ADDAA106000591AY161061AY221061GF107991071081008001001001MA1999999091061MD1110031+9999ME1315689MW1021REMSYN088AAXX  27124 08213 11568 73002 10070 20024 39106 48568 51003 69951 70262 87800 333 5///0;
0142082130999992000012715004+40950-004120FM-12+100599999V0203501N001010120019N0180001N1+00841+00311999999ADDGF107991071081008001001001MA1999999090951MD1710111+9999ME1315619REMSYN066AAXX  27154 08213 42568 73502 10084 20031 39095 48561 57011 87800;
0210082130999992000012718004+40950-004120FM-12+100599999V0200501N001512200019N0180001N1+00641+00121999999ADDAA112000591AY161061AY221061GF103991011021008001041041KA1999M+00861MA1999999090981MD1210031+9999ME1315599MW1011REMSYN088AAXX  27184 08213 11568 30503 10064 20012 39098 48559 52003 69952 70162 81244 333 10086;
0225082130999992000012806004+40950-004120FM-12+100599999V0201001N001012200019N0120001N1+00001-00161999999ADDAA199000091GF103991001001999999001081IA1149IA2999-00709KA1120N-00101MA1999999090991MD1010031+9999ME1315479REMSYN088AAXX  28064 08213 32962 31002 10000 21016 39099 48547 50003 80008 333 21010 34107 55035;EQDQ01  00002PRCP99
0142082130999992000012809004+40950-004120FM-12+100599999V0200901N002112200019N0100001N1+00161-00161999999ADDGF102991001001999999001081MA1999999091061MD1110071+9999ME1315569REMSYN066AAXX  28094 08213 42960 20904 10016 21016 39106 48556 51007 80008;
0176082130999992000012812004+40950-004120FM-12+100599999V0202901N002112200019N0100001N1+00741+00291999999ADDAA199000091GF103991011011008001041081MA1999999091031MD1810031+9999ME1315669REMSYN070AAXX  28124 08213 32560 32904 10074 20029 39103 48566 58003 81148 333;EQDQ01  00002PRCP99
0195082130999992000012818004+40950-004120FM-12+100599999V0209999C000010900019N0100001N1+00601+00281999999ADDAA199000091GF105991021041008001041081KA1999M+00861MA1999999090991MD1110041+9999ME1315609REMSYN076AAXX  28184 08213 32560 50000 10060 20028 39099 48560 51004 82448 333 10086;EQDQ01  00002PRCP99
0225082130999992000012906004+40950-004120FM-12+100599999V0200701N001512200019N0100001N1-00041-00271999999ADDAA199000091GF103991001001999999001081IA1149IA2999-00709KA1120N-00041MA1999999091111MD1110021+9999ME1315579REMSYN088AAXX  29064 08213 32960 30703 11004 21027 39111 48557 51002 80008 333 21004 34107 55054;EQDQ01  00002PRCP99
0170082130999992000012909004+40950-004120FM-12+100599999V0200601N000512200019N0080001N1+00161-00141999999ADDAY101031AY201031GF102991001001999999001081MA1999999091231MD1210121+9999ME1315719MW1101REMSYN072AAXX  29094 08213 41958 20601 10016 21014 39123 48571 52012 71000 80008;
0176082130999992000012912004+40950-004120FM-12+100599999V0202801N001012200019N0100001N1+00601+00121999999ADDAA199000091GF102991011011008001001081MA1999999091391MD1210161+9999ME1315959REMSYN070AAXX  29124 08213 32560 22802 10060 20012 39139 48595 52016 81108 333;EQDQ01  00002PRCP99
0142082130999992000012915004+40950-004120FM-12+100599999V0202901N002612200019N0150001N1+00901+00111999999ADDGF102991001001999999001081MA1999999091311MD1510081+9999ME1315949REMSYN066AAXX  29154 08213 42965 22905 10090 20011 39131 48594 55008 80008;
0195082130999992000012918004+40950-004120FM-12+100599999V0203201N001012200019N0120001N1+00681+00051999999ADDAA199000091GF103991021001017501041081KA1999M+00941MA1999999091391MD1110081+9999ME1315969REMSYN076AAXX  29184 08213 32762 33202 10068 20005 39139 48596 51008 82048 333 10094;EQDQ01  00002PRCP99
0235082130999992000013006004+40950-004120FM-12+100599999V0200901N001512200019N0300001N1+00061-00411999999ADDAA199000091GA1001+999999999GF100991001001999999001001IA1149IA2999-00709KA1120N-00031MA1999999091701MD1210031+9999ME1316109REMSYN082AAXX  30064 08213 32980 00903 10006 21041 39170 48610 52003 333 21003 34107 55089;EQDQ01  00002PRCP99
0174082130999992000013009004+40950-004120FM-12+100599999V0209999C000012200019N0090001N1+00081-00141999999ADDAY101031AY201031GF102991011001022501041041MD1110131+9999ME1316229MW1101REMSYN072AAXX  30094 08213 41859 20000 10008 21014 39095 48622 51013 71000 81044;EQDQ01+090953APOSP 
0186082130999992000013012004+40950-004120FM-12+100599999V0202801N002112200019N0300001N1+00931-00061999999ADDAA199000091GA1001+999999999GF100991001001999999001001MA1999999091821MD1010031+9999ME1316409REMSYN064AAXX  30124 08213 32980 02804 10093 21006 39182 48640 50003 333;EQDQ01  00002PRCP99
0152082130999992000013015004+40950-004120FM-12+100599999V0203401N000512200019N0300001N1+01371+00221999999ADDGA1001+999999999GF100991001001999999001001MA1999999091631MD1710191+9999ME1316339REMSYN060AAXX  30154 08213 42980 03401 10137 20022 39163 48633 57019;
0195082130999992000013018004+40950-004120FM-12+100599999V0209999C000012200019N0300001N1+01211+00481999999ADDAA199000091GF102991001001999999001011KA1999M+01461MA1999999091551MD1610081+9999ME1316239REMSYN076AAXX  30184 08213 32980 20000 10121 20048 39155 48623 56008 80001 333 10146;EQDQ01  00002PRCP99
0235082130999992000013106004+40950-004120FM-12+100599999V0201301N000512200019N0300001N1+00481-00171999999ADDAA199000091GA1001+999999999GF100991001001999999001001IA1019IA2999-00309KA1120N+00381MA1999999091421MD1610031+9999ME1315959REMSYN082AAXX  31064 08213 32980 01301 10048 21017 39142 48595 56003 333 20038 30103 55089;EQDQ01  00002PRCP99
0142082130999992000013109004+40950-004120FM-12+100599999V0209999C000012200019N0300001N1+00591-00061999999ADDGF103991011001017501031011MA1999999091471MD1310051+9999ME1316019REMSYN066AAXX  31094 08213 42780 30000 10059 21006 39147 48601 53005 81031;
0182082130999992000013112004+40950-004120FM-12+100599999V0203401N001512200019N0300001N1+01471-00031999999ADDAA199000091GF103991001001999999001021MA1999999091421MD1810051+9999ME1316169REMSYN076AAXX  31124 08213 32980 33403 10147 21003 39142 48616 58005 80002 333 50590;EQDQ01  00002PRCP99
0142082130999992000013115004+40950-004120FM-12+100599999V0202301N004112200019N0300001N1+01861-01362999999ADDGF103991011001017501031021MA1999999091191MD1710231+9999ME1316029REMSYN066AAXX  31154 08213 42780 32308 10186 21136 39119 48602 57023 81032;
0195082130999992000013118004+40950-004120FM-12+100599999V0202001N005112200019N0300001N1+01281-00711999999ADDAA199000091GF104991021001017501051021KA1999M+01931MA1999999091231MD1310041+9999ME1315949REMSYN076AAXX  31184 08213 32780 42010 10128 21071 39123 48594 53004 82052 333 10193;EQDQ01  00002PRCP99
0235082130999992000020106004+40950-004120FM-12+100599999V0202301N003112200019N0300001N1+01051+00171999999ADDAA199000091GA1001+999999999GF100991001001999999001001IA1019IA2999-00109KA1120N+00701MA1999999091141MD1710101+9999ME1315829REMSYN082AAXX  01064 08213 32980 02306 10105 20017 39114 48582 57010 333 20070 30101 55068;EQDQ01  00002PRCP99
0170082130999992000020109004+40950-004120FM-12+100599999V0201901N007210360019N0250001N1+01191+00361999999ADDAY121031AY201031GF108991031051008001071021MA1999999091151MD1310011+9999ME1315869MW1211REMSYN072AAXX  01094 08213 41575 81914 10119 20036 39115 48586 53001 72120 83572;
0197082130999992000020112004+40950-004120FM-12+100599999V0202001N005710360019N0300001N1+01221+00371999999ADDAA106000791AY161061AY221061GF107991041051008001041021MA1999999091151MD1410001+9999ME1315879MW1021REMSYN088AAXX  01124 08213 11580 72011 10122 20037 39115 48587 54000 69901 70262 84542 333 50260;
0142082130999992000020115004+40950-004120FM-12+100599999V0202201N005710360019N0300001N1+01201+00401999999ADDGF107991041051008001041999MA1999999091021MD1810131+9999ME1315749REMSYN066AAXX  01154 08213 42580 72211 10120 20040 39102 48574 58013 8454/;
0240082130999992000020206004+40950-004120FM-12+100599999V0202701N003610075019N0100001N1+00781+00661999999ADDAA112000191AY161061AY221061GF108991081071008001001001IA1099IA2999+00609KA1120N+00751MA1999999091271MD1110021+9999ME1315899MW1211REMSYN100AAXX  02064 08213 11560 82707 10078 20066 39127 48589 51002 69912 72162 88700 333 20075 31006 55009;
0170082130999992000020209004+40950-004120FM-12+100599999V0202801N004610075019N0060001N1+00721+00681999999ADDAY161031AY251031GF108991081071008001001001MA1999999091461MD1210191+9999ME1316049MW1501REMSYN072AAXX  02094 08213 41556 82809 10072 20068 39146 48604 52019 75065 88700;
0197082130999992000020212004+40950-004120FM-12+100599999V0202901N005110075019N0080001N1+00851+00691999999ADDAA106000191AY161061AY221061GF108991071071008001071001MA1999999091551MD1110091+9999ME1316159MW1101REMSYN088AAXX  02124 08213 11558 82910 10085 20069 39155 48615 51009 69921 71062 87770 333 50100;
0142082130999992000020215004+40950-004120FM-12+100599999V0202901N005710120019N0120001N1+01001+00631999999ADDGF107991071081008001001001MA1999999091461MD1610091+9999ME1316109REMSYN066AAXX  02154 08213 42562 72911 10100 20063 39146 48610 56009 87800;
0181082130999992000020218004+40950-004120FM-12+100599999V0202901N002610360019N0150001N1+00941+00561999999ADDAA112000191GF106991021081008001031001KA1999M+01101MA1999999091511MD1310051+9999ME1316139REMSYN081AAXX  02184 08213 12565 62905 10094 20056 3915148613 53005 69922 82830 333 10110;
0263082130999992000020306004+40950-004120FM-12+100599999V0201901N001010001519N0001001N1+00321+00271999999ADDAA199000091AY141061AY221061GA1091+999999999GF109991091999999999999999IA1099IA2999-00309KA1120N+00121MA1999999091711MD1610021+9999ME1316179MW1451REMSYN088AAXX  03064 08213 31/01 91902 10032 20027 39171 48617 56002 74542 333 20012 31103 55015;EQDQ01  00002PRCP99
0190082130999992000020309004+40950-004120FM-12+100599999V0201301N000510001519N0001001N1+00321+00321999999ADDAY141031AY221031GA1091+000159999GF109991091999999999999999MA1999999091901MD1210191+9999ME1316349MW1451REMSYN076AAXX  03094 08213 41/01 91301 10032 20032 39190 48634 52019 74542 333 89/00;
0182082130999992000020312004+40950-004120FM-12+100599999V0202701N001512200019N0120001N1+00751+00511999999ADDAA199000091GF104991021071008001001081MA1999999091951MD1110051+9999ME1316489REMSYN076AAXX  03124 08213 32562 42703 10075 20051 39195 48648 51005 82708 333 50030;EQDQ01  00002PRCP99
0142082130999992000020315004+40950-004120FM-12+100599999V0203301N001512200019N0150001N1+01221+00261999999ADDGF103991011001017501041081MA1999999091791MD1810161+9999ME1316449REMSYN066AAXX  03154 08213 42765 33303 10122 20026 39179 48644 58016 81048;
0195082130999992000020318004+40950-004120FM-12+100599999V0203501N001012200019N0200001N1+00961+00131999999ADDAA199000091GF103991011001017501041081KA1999M+01241MA1999999091791MD1510001+9999ME1316389REMSYN076AAXX  03184 08213 32770 33502 10096 20013 39179 48638 55000 81048 333 10124;EQDQ01  00002PRCP99
0225082130999992000020406004+40950-004120FM-12+100599999V0200801N000512200019N0200001N1+00261-00431999999ADDAA199000091GF102991011001017501041081IA1099IA2999-00509KA1120N+00181MA1999999091781MD1510041+9999ME1316219REMSYN088AAXX  04064 08213 32770 20801 10026 21043 39178 48621 55004 81048 333 20018 31105 55070;EQDQ01  00002PRCP99
0142082130999992000020409004+40950-004120FM-12+100599999V0200901N001012200019N0300001N1+00481-00341999999ADDGF101991001001999999001011MA1999999091831MD1010051+9999ME1316309REMSYN066AAXX  04094 08213 42980 10902 10048 21034 39183 48630 50005 80001;
0182082130999992000020412004+40950-004120FM-12+100599999V0202801N001019999999N0300001N1+01361-00641999999ADDAA199000091GF105991001001999999001041MA1999999091831MD1410001+9999ME1316509REMSYN076AAXX  04124 08213 32980 52802 10136 21064 39183 48650 54000 80004 333 50100;EQDQ01  00002PRCP99
0142082130999992000020415004+40950-004120FM-12+100599999V0203001N001019999999N0300001N1+01761-00301999999ADDGF106991001001999999001041MA1999999091631MD1710201+9999ME1316419REMSYN066AAXX  04154 08213 42980 63002 10176 21030 39163 48641 57020 80004;
0195082130999992000020418004+40950-004120FM-12+100599999V0200601N000510900019N0300001N1+01461-00431999999ADDAA199000091GF106991021001017501041051KA1999M+01761MA1999999091631MD1410001+9999ME1316349REMSYN076AAXX  04184 08213 32780 60601 10146 21043 39163 48634 54000 82045 333 10176;EQDQ01  00002PRCP99
0225082130999992000020506004+40950-004120FM-12+100599999V0202101N002612200019N0300001N1+00601-00981999999ADDAA199000091GF102991001001999999001041IA1019IA2999-00309KA1120N+00601MA1999999091551MD1610051+9999ME1316089REMSYN088AAXX  05064 08213 32980 22105 10060 21098 39155 48608 56005 80004 333 20060 30103 55088;EQDQ01  00002PRCP99
0142082130999992000020509004+40950-004120FM-12+100599999V0209999C000010360019N0200001N1+00641-00541999999ADDGF107991021021008001041081MA1999999091671MD1110121+9999ME1316209REMSYN066AAXX  05094 08213 42570 70000 10064 21054 39167 48620 51012 82248;
0182082130999992000020512004+40950-004120FM-12+100599999V0201001N001010360019N0200001N1+01241-00211999999ADDAA199000091GF107991011021008001041081MA1999999091701MD1310031+9999ME1316369REMSYN076AAXX  05124 08213 32570 71002 10124 21021 39170 48636 53003 81248 333 50300;EQDQ01  00002PRCP99
0142082130999992000020515004+40950-004120FM-12+100599999V0202701N000510360019N0200001N1+01561-00081999999ADDGF107991011021008001041081MA1999999091511MD1710191+9999ME1316269REMSYN066AAXX  05154 08213 42570 72701 10156 21008 39151 48626 57019 81248;
0195082130999992000020518004+40950-004120FM-12+100599999V0200701N001510360019N0200001N1+01241-00141999999ADDAA199000091GF107991011021008001041081KA1999M+01581MA1999999091501MD1710011+9999ME1316189REMSYN076AAXX  05184 08213 32570 70703 10124 21014 39150 48618 57001 81248 333 10158;EQDQ01  00002PRCP99
0224082130999992000020606004+40950-004120FM-12+100599999V0200901N001512200019N0200001N1+00301-00451999999ADDAA199000091GF105991021001017501041041IA1019IA2999-00409KA1999N+00301MA1999999091421MD1610031+9999ME1315919REMSYN087AAXX  06064 08213 32770 50903 10030 21045 39142 48591 56003 82044333 20030 30104 55028;EQDQ01  00002PRCP99
0142082130999992000020609004+40950-004120FM-12+100599999V0200901N000510900019N0200001N1+00661-00291999999ADDGF107991031001017501041081MA1999999091501MD1110081+9999ME1316059REMSYN066AAXX  06094 08213 42770 70901 10066 21029 39150 48605 51008 83048;
0182082130999992000020612004+40950-004120FM-12+100599999V0202901N002110900019N0200001N1+01201-00071999999ADDAA199000091GF107991031001017501041071MA1999999091511MD1210011+9999ME1316189REMSYN076AAXX  06124 08213 32770 72904 10120 21007 39151 48618 52001 83047 333 50100;EQDQ01  00002PRCP99
0142082130999992000020615004+40950-004120FM-12+100599999V0202901N002110900019N0200001N1+01281-00211999999ADDGF107991031001017501051051MA1999999091431MD1710081+9999ME1316129REMSYN066AAXX  06154 08213 42770 72904 10128 21021 39143 48612 57008 83055;
0195082130999992000020618004+40950-004120FM-12+100599999V0202801N001512200019N0300001N1+00961-00051999999ADDAA199000091GF103991021001017501051041KA1999M+01301MA1999999091461MD1310031+9999ME1316099REMSYN076AAXX  06184 08213 32780 32803 10096 21005 39146 48609 53003 82054 333 10130;EQDQ01  00002PRCP99
0253082130999992000020706004+40950-004120FM-12+100599999V0202501N002110042019N0050001N1+00551+00481999999ADDAA199000091AY121061AY221061GF108991081061004501999999IA1019IA2999-00209KA1120N+00541MA1999999091581MD1410001+9999ME1316119MW1401REMSYN094AAXX  07064 08213 31450 82504 10055 20048 39158 48611 54000 74022 886// 333 20054 30102 55057;EQDQ01  00002PRCP99
0174082130999992000020709004+40950-004120FM-12+100599999V0202001N001510042019N0015001N1+99999+99999999999ADDAY141031AY221031GF108991081061004501999999MA1999999091791MD1210211+9999ME1316299MW1501REMSYN076AAXX  07094 08213 41415 82003 20043 39179 48629 52021 75042 886// 333 96040;
0197082130999992000020712004+40950-004120FM-12+100599999V0202501N003610075019N0120001N1+00681+00461999999ADDAA106000791AY151061AY241061GF108991081061008001999999MA1999999091821MD1010031+9999ME1316359MW1021REMSYN088AAXX  07124 08213 11562 82507 10068 20046 39182 48635 50003 69901 70254 886// 333 50160;
0142082130999992000020715004+40950-004120FM-12+100599999V0202001N002110075019N0200001N1+00851+00491999999ADDGF108991081061008001999999MA1999999091661MD1710161+9999ME1316259REMSYN066AAXX  07154 08213 42570 82004 10085 20049 39166 48625 57016 886//;
0182082130999992000020718004+40950-004120FM-12+100599999V0201501N001510075019N0200001N1+00891+00481999999ADDAA112000791GF107991061051008001031999KA1999M+01031MA1999999091671MD1310011+9999ME1316269REMSYN082AAXX  07184 08213 12570 71503 10089 20048 39167 48626 53001 69902 8653/ 333 10103;
0235082130999992000020806004+40950-004120FM-12+100599999V0201601N002112200019N0250001N1+00521+00341999999ADDAA199000091GA1001+999999999GF100991001001999999001001IA1019IA2999+00109KA1120N+00521MA1999999091571MD1710101+9999ME1316079REMSYN082AAXX  08064 08213 32975 01604 10052 20034 39157 48607 57010 333 20052 30001 55003;EQDQ01  00002PRCP99
0170082130999992000020809004+40950-004120FM-12+100599999V0203201N001012200019N0015001N1+00441+00351999999ADDAY101031AY201031GF101991011001017501041001MA1999999091671MD1310131+9999ME1316169MW1101REMSYN072AAXX  08094 08213 41715 13202 10044 20035 39167 48616 53013 71000 81040;
0210082130999992000020812004+40950-004120FM-12+100599999V0202501N002110042019N0009001N1+00541+00411999999ADDAA199000091AY141061AY201061GF108991081061004501999999MA1999999091751MD1210081+9999ME1316269MW1441REMSYN082AAXX  08124 08213 31409 82504 10054 20041 39175 48626 52008 74440 886// 333 50030;EQDQ01  00002PRCP99
0170082130999992000020815004+40950-004120FM-12+100599999V0202701N002610360019N0200001N1+00781+00281999999ADDAY141031AY221031GF106991021061008001041011MA1999999091591MD1610161+9999ME1316179MW1021REMSYN072AAXX  08154 08213 41570 62705 10078 20028 39159 48617 56016 70242 82641;
0195082130999992000020818004+40950-004120FM-12+100599999V0209999C000010075019N0180001N1+00841+00331999999ADDAA199000091GF107991061051008001031999KA1999M+00871MA1999999091621MD1310031+9999ME1316219REMSYN076AAXX  08184 08213 32568 70000 10084 20033 39162 48621 53003 8653/ 333 10087;EQDQ01  00002PRCP99
0254082130999992000020906004+40950-004120FM-12+100599999V0203201N000510075019N0009001N1+00701+00661999999ADDAA112002091AY161061AY221061GF108991081061008001999999GJ101029IA1099IA2999+00309KA1120N+00631MA1999999091591MD1610041+9999ME1316159MW1601REMSYN106AAXX  09064 08213 11509 83201 10070 20066 39159 48615 56004 60022 76062 886// 333 20063 31003 55017 96041;
0170082130999992000020909004+40950-004120FM-12+100599999V0203301N001510042019N0002001N1+00701+00681999999ADDAY161031AY241031GF108991081061004501999999MA1999999091711MD1210121+9999ME1316249MW1501REMSYN072AAXX  09094 08213 41402 83303 10070 20068 39171 48624 52012 75064 886//;
0201082130999992000020912004+40950-004120FM-12+100599999V0202901N001010120019N0120001N1+00841+00541999999ADDAA106000891AY161061AY251061GF107991071081008001999999MD1210071+9999ME1316359MW1021REMSYN088AAXX  09124 08213 11562 72902 10084 20054 39478 48635 52007 69981 70265 878// 333 50170;EQDQ01+094783APOSP 
0142082130999992000020915004+40950-004120FM-12+100599999V0203301N001012200019N0180001N1+01001+00241999999ADDGF102991021051008001001001MA1999999091621MD1810161+9999ME1316249REMSYN066AAXX  09154 08213 42568 23302 10100 20024 39162 48624 58016 82500;
0182082130999992000020918004+40950-004120FM-12+100599999V0202601N001512200019N0200001N1+00921+00161999999ADDAA112000891GF102991011001017501031011KA1999M+01201MA1999999091591MD1710031+9999ME1316209REMSYN082AAXX  09184 08213 12770 22603 10092 20016 39159 48620 57003 69982 81031 333 10120;
0225082130999992000021006004+40950-004120FM-12+100599999V0200901N001012200019N0200001N1+00371-00011999999ADDAA199000091GF104991041051008001001001IA1099IA2999-00409KA1120N+00291MA1999999091431MD1610041+9999ME1315939REMSYN088AAXX  10064 08213 32570 40902 10037 21001 39143 48593 56004 84500 333 20029 31104 55044;EQDQ01  00002PRCP99
0142082130999992000021009004+40950-004120FM-12+100599999V0209999C000010150019N0200001N1+00761+00261999999ADDGF107991061001017501071011MA1999999091421MD1610011+9999ME1316019REMSYN066AAXX  10094 08213 42770 70000 10076 20026 39142 48601 56001 86071;
0182082130999992000021012004+40950-004120FM-12+100599999V0202401N001510360019N0300001N1+01161+00491999999ADDAA199000091GF108991041051008001071999MA1999999091471MD1110051+9999ME1316149REMSYN076AAXX  10124 08213 32580 82403 10116 20049 39147 48614 51005 8457/ 333 50030;EQDQ01  00002PRCP99
0142082130999992000021015004+40950-004120FM-12+100599999V0202301N001510075019N0300001N1+01321+00571999999ADDGF107991051051008001071999MA1999999091261MD1710211+9999ME1315999REMSYN066AAXX  10154 08213 42580 72303 10132 20057 39126 48599 57021 8557/;
0195082130999992000021018004+40950-004120FM-12+100599999V0201601N001512200019N0300001N1+01201+00541999999ADDAA199000091GF104991031051008001001011KA1999M+01431MA1999999091191MD1710071+9999ME1315909REMSYN076AAXX  10184 08213 32580 41603 10120 20054 39119 48590 57007 83501 333 10143;EQDQ01  00002PRCP99
0225082130999992000021106004+40950-004120FM-12+100599999V0209999C000012200019N0100001N1+00681+00551999999ADDAA199000091GF105991031001017501031081IA1099IA2999+00209KA1120N+00681MA1999999091071MD1610071+9999ME1315699REMSYN088AAXX  11064 08213 32760 50000 10068 20055 39107 48569 56007 83038 333 20068 31002 55026;EQDQ01  00002PRCP99
0170082130999992000021109004+40950-004120FM-12+100599999V0201801N001510900019N0080001N1+00661+00531999999ADDAY121031AY221031GF106991041001017501031081MA1999999091111MD1310041+9999ME1315729MW1101REMSYN072AAXX  11094 08213 41758 61803 10066 20053 39111 48572 53004 71022 84038;
0142082130999992000021115004+40950-004120FM-12+100599999V0200301N000510900019N0120001N1+01261+00371999999ADDGF105991021041008001041081MA1999999090901MD1710211+9999ME1315659REMSYN066AAXX  11154 08213 42562 50301 10126 20037 39090 48565 57021 82448;
0195082130999992000021118004+40950-004120FM-12+100599999V0203501N000510900019N0120001N1+01101+00271999999ADDAA199000091GF105991021041008001041081KA1999M+01341MA1999999090901MD1410001+9999ME1315619REMSYN076AAXX  11184 08213 32562 53501 10110 20027 39090 48561 54000 82448 333 10134;EQDQ01  00002PRCP99
0240082130999992000021206004+40950-004120FM-12+100599999V0200601N001010075019N0080001N1+00561+00471999999ADDAA112000191AY161061AY221061GF108991061071008001071081IA1099IA2999+00009KA1120N+00501MA1999999091111MD1110071+9999ME1315709MW1101REMSYN100AAXX  12064 08213 11558 80602 10056 20047 39111 48570 51007 69922 71062 86778 333 20050 31000 55061;
0170082130999992000021209004+40950-004120FM-12+100599999V0200601N002610075019N0060001N1+00381+00291999999ADDAY121031AY221031GF107991071071008001001001MA1999999091311MD1110201+9999ME1315839MW1101REMSYN072AAXX  12094 08213 41556 70605 10038 20029 39131 48583 51020 71022 87700;
0182082130999992000021212004+40950-004120FM-12+100599999V0200101N002112200019N0120001N1+00821-00121999999ADDAA199000091GF103991021011008001001081MA1999999091461MD1110151+9999ME1316059REMSYN076AAXX  12124 08213 32562 30104 10082 21012 39146 48605 51015 82108 333 50120;EQDQ01  00002PRCP99
0142082130999992000021215004+40950-004120FM-12+100599999V0203501N001512200019N0200001N1+00981-00081999999ADDGF102991001001999999001081MA1999999091381MD1810081+9999ME1316029REMSYN066AAXX  12154 08213 42970 23503 10098 21008 39138 48602 58008 80008;
0205082130999992000021218004+40950-004120FM-12+100599999V0203501N001512200019N0200001N1+00881-00301999999ADDAA199000091GA1001+999999999GF100991001001999999001001KA1999M+01041MA1999999091381MD1510001+9999ME1315999REMSYN070AAXX  12184 08213 32970 03503 10088 21030 39138 48599 55000 333 10104;EQDQ01  00002PRCP99
0225082130999992000021306004+40950-004120FM-12+100599999V0200901N001512200019N0200001N1+00121-00621999999ADDAA199000091GF104991031001017501041091IA1019IA2999-00709KA1120N+00121MA1999999091461MD1610091+9999ME1315909REMSYN088AAXX  13064 08213 32770 40903 10012 21062 39146 48590 56009 83049 333 20012 30107 55083;EQDQ01  00002PRCP99
0142082130999992000021309004+40950-004120FM-12+100599999V0201001N001012200019N0200001N1+00461-00591999999ADDGF104991021001017501041091MA1999999091461MD1410001+9999ME1315979REMSYN066AAXX  13094 08213 42770 41002 10046 21059 39146 48597 54000 82049;
0182082130999992000021312004+40950-004120FM-12+100599999V0202401N001510900019N0200001N1+01101-00731999999ADDAA199000091GF105991021001017501041021MA1999999091551MD1110091+9999ME1316199REMSYN076AAXX  13124 08213 32770 52403 10110 21073 39155 48619 51009 82042 333 50160;EQDQ01  00002PRCP99
0142082130999992000021315004+40950-004120FM-12+100599999V0202801N003112200019N0200001N1+01341-00501999999ADDGF103991021001017501041091MA1999999091351MD1710201+9999ME1316069REMSYN066AAXX  13154 08213 42770 32806 10134 21050 39135 48606 57020 82049;
0195082130999992000021318004+40950-004120FM-12+100599999V0202301N002612200019N0200001N1+01301-00251999999ADDAA199000091GF104991021001017501041011KA1999M+01461MA1999999091351MD1410001+9999ME1316069REMSYN076AAXX  13184 08213 32770 42305 10130 21025 39135 48606 54000 82041 333 10146;EQDQ01  00002PRCP99
0225082130999992000021406004+40950-004120FM-12+100599999V0209999C000012200019N0200001N1+00321-00221999999ADDAA199000091GF104991021001017501041011IA1019IA2999-00409KA1120N+00301MA1999999091381MD1710051+9999ME1315889REMSYN088AAXX  14064 08213 32770 40000 10032 21022 39138 48588 57005 82041 333 20030 30104 55069;EQDQ01  00002PRCP99
0142082130999992000021409004+40950-004120FM-12+100599999V0201301N001012200019N0200001N1+00661+00031999999ADDGF101991011041008001001001MA1999999091431MD1210051+9999ME1316009REMSYN066AAXX  14094 08213 42570 11302 10066 20003 39143 48600 52005 81400;
0182082130999992000021412004+40950-004120FM-12+100599999V0203201N001512200019N0200001N1+01181+00371999999ADDAA199000091GF101991011021008001001001MA1999999091431MD1410001+9999ME1316119REMSYN076AAXX  14124 08213 32570 13203 10118 20037 39143 48611 54000 81200 333 50100;EQDQ01  00002PRCP99
0195082130999992000021418004+40950-004120FM-12+100599999V0200201N001510900019N0200001N1+01281+00501999999ADDAA199000091GF106991011021008001041041KA1999M+01501MA1999999091271MD1410001+9999ME1315999REMSYN076AAXX  14184 08213 32570 60203 10128 20050 39127 48599 54000 81244 333 10150;EQDQ01  00002PRCP99
0225082130999992000021506004+40950-004120FM-12+100599999V0200801N001012200019N0200001N1+00381+00191999999ADDAA199000091GF102991011041008001001011IA1019IA2999-00409KA1120N+00381MA1999999091351MD1710031+9999ME1315879REMSYN088AAXX  15064 08213 32570 20802 10038 20019 39135 48587 57003 81401 333 20038 30104 55094;EQDQ01  00002PRCP99
0152082130999992000021509004+40950-004120FM-12+100599999V0200601N001512200019N0300001N1+00741+00291999999ADDGA1001+999999999GF100991001001999999001001MA1999999091381MD1110031+9999ME1315979REMSYN060AAXX  15094 08213 42980 00603 10074 20029 39138 48597 51003;
0182082130999992000021512004+40950-004120FM-12+100599999V0202701N002112200019N0300001N1+01241+00541999999ADDAA199000091GF101991011011008001001001MA1999999091431MD1110051+9999ME1316139REMSYN076AAXX  15124 08213 32580 12704 10124 20054 39143 48613 51005 81100 333 50140;EQDQ01  00002PRCP99
0152082130999992000021515004+40950-004120FM-12+100599999V0202701N002112200019N0300001N1+01461+00431999999ADDGA1001+999999999GF100991001001999999001001MA1999999091231MD1710201+9999ME1315999REMSYN060AAXX  15154 08213 42980 02704 10146 20043 39123 48599 57020;
0205082130999992000021518004+40950-004120FM-12+100599999V0202801N002612200019N0300001N1+01201+00401999999ADDAA199000091GA1001+999999999GF100991001001999999001001KA1999M+01481MA1999999091151MD1710081+9999ME1315869REMSYN070AAXX  15184 08213 32980 02805 10120 20040 39115 48586 57008 333 10148;EQDQ01  00002PRCP99
0225082130999992000021606004+40950-004120FM-12+100599999V0202101N001510360019N0180001N1+00401+00311999999ADDAA199000091GF106991011021008001021001IA1019IA2999-00309KA1120N+00301MA1999999091071MD1610081+9999ME1315639REMSYN088AAXX  16064 08213 32568 62103 10040 20031 39107 48563 56008 81220 333 20030 30103 55097;EQDQ01  00002PRCP99
0170082130999992000021609004+40950-004120FM-12+100599999V0202401N002610360019N0040001N1+00381+00291999999ADDAY121031AY221031GF108991021051008001021999MA1999999091111MD1110041+9999ME1315669MW1101REMSYN072AAXX  16094 08213 41540 82405 10038 20029 39111 48566 51004 71022 8252/;
0182082130999992000021612004+40950-004120FM-12+100599999V0202801N004610075019N0120001N1+00601+00231999999ADDAA199000091GF108991051051008001021999MA1999999091111MD1010001+9999ME1315709REMSYN076AAXX  16124 08213 32562 82809 10060 20023 39111 48570 50000 8552/ 333 50180;EQDQ01  00002PRCP99
0142082130999992000021615004+40950-004120FM-12+100599999V0203001N005710120019N0180001N1+01001+00131999999ADDGF107991071081008001001001MA1999999090911MD1810201+9999ME1315609REMSYN066AAXX  16154 08213 42568 73011 10100 20013 39091 48560 58020 87800;
0195082130999992000021618004+40950-004120FM-12+100599999V0203101N005112200019N0170001N1+00761-00021999999ADDAA199000091GF106991041081008001001011KA1999M+01001MA1999999090951MD1110041+9999ME1315599REMSYN076AAXX  16184 08213 32567 63110 10076 21002 39095 48559 51004 84801 333 10100;EQDQ01  00002PRCP99
0225082130999992000021706004+40950-004120FM-12+100599999V0202401N003112200019N0160001N1+00161+00001999999ADDAA199000091GF106991041081008001001011IA1019IA2999-00509KA1120N-00061MA1999999091231MD1010001+9999ME1315719REMSYN088AAXX  17064 08213 32566 62406 10016 20000 39123 48571 50000 84801 333 21006 30105 55014;EQDQ01  00002PRCP99
0142082130999992000021709004+40950-004120FM-12+100599999V0202401N002110360019N0160001N1+00301+00051999999ADDGF107991041051008001021001MA1999999091191MD1810041+9999ME1315719REMSYN066AAXX  17094 08213 42566 72404 10030 20005 39119 48571 58004 84520;
0182082130999992000021712004+40950-004120FM-12+100599999V0202901N004610075019N0160001N1+00861+00331999999ADDAA199000091GF107991051051008001021001MA1999999091231MD1210041+9999ME1315869REMSYN076AAXX  17124 08213 32566 72909 10086 20033 39123 48586 52004 85520 333 50080;EQDQ01  00002PRCP99
0142082130999992000021715004+40950-004120FM-12+100599999V0202801N005710075019N0160001N1+00981+00371999999ADDGF108991051051008001021999MA1999999091141MD1810091+9999ME1315819REMSYN066AAXX  17154 08213 42566 82811 10098 20037 39114 48581 58009 8552/;
0195082130999992000021718004+40950-004120FM-12+100599999V0203001N004610120019N0160001N1+01101+00421999999ADDAA199000091GF106991061081008001001001KA1999M+01121MA1999999091101MD1610041+9999ME1315809REMSYN076AAXX  17184 08213 32566 63009 10110 20042 39110 48580 56004 86800 333 10112;EQDQ01  00002PRCP99
0225082130999992000021806004+40950-004120FM-12+100599999V0200901N001512200019N0100001N1+00281+00081999999ADDAA199000091GF102991001001999999001081IA1099IA2999-00309KA1120N+00281MA1999999091151MD1810021+9999ME1315679REMSYN088AAXX  18064 08213 32960 20903 10028 20008 39115 48567 58002 80008 333 20028 31103 55017;EQDQ01  00002PRCP99
0142082130999992000021809004+40950-004120FM-12+100599999V0209999C000012200019N0100001N1+00681+00221999999ADDGF102991001001999999001081MA1999999091151MD1510001+9999ME1315759REMSYN066AAXX  18094 08213 42960 20000 10068 20022 39115 48575 55000 80008;
0182082130999992000021812004+40950-004120FM-12+100599999V0202801N001512200019N0120001N1+01361+00291999999ADDAA199000091GF102991001001999999001081MA1999999091151MD1410001+9999ME1315899REMSYN076AAXX  18124 08213 32962 22803 10136 20029 39115 48589 54000 80008 333 50040;EQDQ01  00002PRCP99
0205082130999992000021818004+40950-004120FM-12+100599999V0202701N002112200019N0200001N1+01351+00191999999ADDAA199000091GA1001+999999999GF100991001001999999001001KA1999M+01661MA1999999090981MD1410001+9999ME1315739REMSYN070AAXX  18184 08213 32970 02704 10135 20019 39098 48573 54000 333 10166;EQDQ01  00002PRCP99
0225082130999992000021906004+40950-004120FM-12+100599999V0209999C000012200019N0120001N1+00451+00031999999ADDAA199000091GF102991001001999999001081IA1099IA2999-00309KA1120N+00421MA1999999090941MD1410001+9999ME1315529REMSYN088AAXX  19064 08213 32962 20000 10045 20003 39094 48552 54000 80008 333 20042 31103 55096;EQDQ01  00002PRCP99
0142082130999992000021909004+40950-004120FM-12+100599999V0201001N001012200019N0100001N1+00761+00211999999ADDGF102991001001999999001081MA1999999090911MD1810031+9999ME1315569REMSYN066AAXX  19094 08213 42960 21002 10076 20021 39091 48556 58003 80008;
0182082130999992000021912004+40950-004120FM-12+100599999V0202901N002112200019N0150001N1+01321+00401999999ADDAA199000091GF102991001001999999001081MA1999999090951MD1110041+9999ME1315709REMSYN076AAXX  19124 08213 32965 22904 10132 20040 39095 48570 51004 80008 333 50100;EQDQ01  00002PRCP99
0142082130999992000021915004+40950-004120FM-12+100599999V0203401N001012200019N0200001N1+01501+00211999999ADDGF102991001001999999001081MA1999999090831MD1710121+9999ME1315639REMSYN066AAXX  19154 08213 42970 23402 10150 20021 39083 48563 57012 80008;
0195082130999992000021918004+40950-004120FM-12+100599999V0200201N001012200019N0200001N1+01301+00031999999ADDAA199000091GF102991001001999999001081KA1999M+01541MA1999999090791MD1610041+9999ME1315559REMSYN076AAXX  19184 08213 32970 20202 10130 20003 39079 48555 56004 80008 333 10154;EQDQ01  00002PRCP99
0225082130999992000022006004+40950-004120FM-12+100599999V0200701N001012200019N0100001N1+00221-00101999999ADDAA199000091GF102991001001999999001081IA1099IA2999-00509KA1120N+00221MA1999999090831MD1710041+9999ME1315389REMSYN088AAXX  20064 08213 32960 20702 10022 21010 39083 48538 57004 80008 333 20022 31105 55097;EQDQ01  00002PRCP99
0152082130999992000022009004+40950-004120FM-12+100599999V0209999C000012200019N0100001N1+00621+00091999999ADDGA1001+999999999GF100991001001999999001001MA1999999090871MD1310041+9999ME1315499REMSYN060AAXX  20094 08213 42960 00000 10062 20009 39087 48549 53004;
0182082130999992000022012004+40950-004120FM-12+100599999V0203301N002112200019N0120001N1+01201+00351999999ADDAA199000091GF102991001001999999001081MA1999999090871MD1010001+9999ME1315619REMSYN076AAXX  20124 08213 32962 23304 10120 20035 39087 48561 50000 80008 333 50130;EQDQ01  00002PRCP99
0142082130999992000022015004+40950-004120FM-12+100599999V0203501N002112200019N0200001N1+01421+00121999999ADDGF102991001001999999001081MA1999999090751MD1610121+9999ME1315549REMSYN066AAXX  20154 08213 42970 23504 10142 20012 39075 48554 56012 80008;
0195082130999992000022018004+40950-004120FM-12+100599999V0203601N001512200019N0200001N1+01281+00241999999ADDAA199000091GF102991001001999999001081KA1999M+01461MA1999999090751MD1410001+9999ME1315519REMSYN076AAXX  20184 08213 32970 23603 10128 20024 39075 48551 54000 80008 333 10146;EQDQ01  00002PRCP99
0225082130999992000022106004+40950-004120FM-12+100599999V0200901N001512200019N0200001N1+00181-00651999999ADDAA199000091GF103991001001999999001011IA1019IA2999-00609KA1120N+00141MA1999999090831MD1110061+9999ME1315369REMSYN088AAXX  21064 08213 32970 30903 10018 21065 39083 48536 51006 80001 333 20014 30106 55101;EQDQ01  00002PRCP99
0142082130999992000022109004+40950-004120FM-12+100599999V0200801N001012200019N0250001N1+00621-00571999999ADDGF102991001001999999001011MA1999999090871MD1210041+9999ME1315489REMSYN066AAXX  21094 08213 42975 20802 10062 21057 39087 48548 52004 80001;
0142082130999992000022115004+40950-004120FM-12+100599999V0202801N001512200019N0300001N1+01561-00221999999ADDGF102991001001999999001041MA1999999090831MD1810081+9999ME1315639REMSYN066AAXX  21154 08213 42980 22803 10156 21022 39083 48563 58008 80004;
0195082130999992000022118004+40950-004120FM-12+100599999V0203001N001512200019N0300001N1+01321-00401999999ADDAA199000091GF101991011001017501031001KA1999M+01591MA1999999090821MD1710011+9999ME1315589REMSYN076AAXX  21184 08213 32780 13003 10132 21040 39082 48558 57001 81030 333 10159;EQDQ01  00002PRCP99
0225082130999992000022206004+40950-004120FM-12+100599999V0202501N002612200019N0150001N1+00601+00071999999ADDAA199000091GF103991031001017501051001IA1019IA2999-00309KA1120N+00451MA1999999090831MD1510001+9999ME1315459REMSYN088AAXX  22064 08213 32765 32505 10060 20007 39083 48545 55000 83050 333 20045 30103 55102;EQDQ01  00002PRCP99
0170082130999992000022209004+40950-004120FM-12+100599999V0202301N003112200019N0080001N1+00581+00261999999ADDAY101031AY201031GF101991011061008001001001MA1999999090911MD1210081+9999ME1315529MW1101REMSYN072AAXX  22094 08213 41558 12306 10058 20026 39091 48552 52008 71000 81600;
0210082130999992000022212004+40950-004120FM-12+100599999V0202801N003612200019N0080001N1+01001+00191999999ADDAA199000091AY101061AY201061GF102991011001017501041011MA1999999090951MD1110041+9999ME1315649MW1051REMSYN082AAXX  22124 08213 31758 22807 10100 20019 39095 48564 51004 70500 81041 333 50230;EQDQ01  00002PRCP99
0142082130999992000022215004+40950-004120FM-12+100599999V0203001N005110150019N0180001N1+01011-00541999999ADDGF107991071001017501071999MA1999999090831MD1710121+9999ME1315529REMSYN066AAXX  22154 08213 42768 73010 10101 21054 39083 48552 57012 8707/;
0210082130999992000022218004+40950-004120FM-12+100599999V0201101N001510360019N0060001N1+00441+00301999999ADDAA112001091AY161061AY221061GF108991011061008001071999KA1999M+01131MA1999999090901MD1110071+9999ME1315489MW1611REMSYN088AAXX  22184 08213 11556 81103 10044 20030 39090 48548 51007 60012 76162 8167/ 333 10113;
0240082130999992000022306004+40950-004120FM-12+100599999V0209999C000010360019N0080001N1+00941+00861999999ADDAA112000191AY161061AY221061GF106991031071008001031081IA1119IA2999+00209KA1120N+00901MA1999999091111MD1310041+9999ME1315789MW1101REMSYN100AAXX  23064 08213 11558 60000 10094 20086 39111 48578 53004 69922 71062 83738 333 20090 32002 55045;
0170082130999992000022309004+40950-004120FM-12+100599999V0202901N001510075019N0060001N1+00621+00531999999ADDAY121031AY221031GF107991051061008001031081MA1999999091221MD1310111+9999ME1315819MW1101REMSYN072AAXX  23094 08213 41556 72903 10062 20053 39122 48581 53011 71022 85638;
0210082130999992000022312004+40950-004120FM-12+100599999V0202401N001010075019N0050001N1+00771+00651999999ADDAA199000091AY121061AY221061GF108991061061008001071081MA1999999091301MD1110081+9999ME1315919MW1101REMSYN082AAXX  23124 08213 31550 82402 10077 20065 39130 48591 51008 71022 86678 333 50090;EQDQ01  00002PRCP99
0170082130999992000022315004+40950-004120FM-12+100599999V0200301N002110120019N0060001N1+01161+00591999999ADDAY121031AY221031GF106991061081008001001001MA1999999091261MD1610041+9999ME1315969MW1051REMSYN072AAXX  23154 08213 41556 60304 10116 20059 39126 48596 56004 70522 86800;
0195082130999992000022318004+40950-004120FM-12+100599999V0203301N001012200019N0100001N1+01101+00521999999ADDAA199000091GF104991021081008001041081KA1999M+01241MA1999999091261MD1410001+9999ME1315949REMSYN076AAXX  23184 08213 32560 43302 10110 20052 39126 48594 54000 82848 333 10124;EQDQ01  00002PRCP99
0235082130999992000022406004+40950-004120FM-12+100599999V0200901N001012200019N0300001N1+00261+00031999999ADDAA199000091GA1001+999999999GF100991001001999999001001IA1099IA2999-00409KA1120N+00221MA1999999091381MD1410001+9999ME1315879REMSYN082AAXX  24064 08213 32980 00902 10026 20003 39138 48587 54000 333 20022 31104 55036;EQDQ01  00002PRCP99
0152082130999992000022409004+40950-004120FM-12+100599999V0209999C000012200019N0120001N1+00641+00221999999ADDGA1001+999999999GF100991001001999999001001MA1999999091471MD1210091+9999ME1316039REMSYN060AAXX  24094 08213 42962 00000 10064 20022 39147 48603 52009;
0192082130999992000022412004+40950-004120FM-12+100599999V0202901N001012200019N0250001N1+01201+00441999999ADDAA199000091GA1001+999999999GF100991001001999999001001MA1999999091501MD1010031+9999ME1316189REMSYN070AAXX  24124 08213 32975 02902 10120 20044 39150 48618 50003 333 50090;EQDQ01  00002PRCP99
0122082130999992000022415004+40950-004120FM-12+100599999V0203001N002112200019N0300001N1+01621+00441999999ADDGF101991011011008001001001MA1999999091311ME1316099REMSYN060AAXX  24154 08213 42580 13004 10162 20044 39131 48609 81100;
0205082130999992000022418004+40950-004120FM-12+100599999V0203301N001012200019N0250001N1+01431+00441999999ADDAA199000091GA1001+999999999GF100991001001999999001001KA1999M+01651MA1999999091341MD1010031+9999ME1316089REMSYN070AAXX  24184 08213 32975 03302 10143 20044 39134 48608 50003 333 10165;EQDQ01  00002PRCP99
0235082130999992000022506004+40950-004120FM-12+100599999V0200901N001012200019N0300001N1+00481+00091999999ADDAA199000091GA1001+999999999GF100991001001999999001001IA1019IA2999-00209KA1120N+00481MA1999999091351MD1610051+9999ME1315899REMSYN082AAXX  25064 08213 32980 00902 10048 20009 39135 48589 56005 333 20048 30102 55102;EQDQ01  00002PRCP99
0152082130999992000022509004+40950-004120FM-12+100599999V0209999C000012200019N0300001N1+00901+00271999999ADDGA1001+999999999GF100991001001999999001001MA1999999091471MD1210121+9999ME1316099REMSYN060AAXX  25094 08213 42980 00000 10090 20027 39147 48609 52012;
0192082130999992000022512004+40950-004120FM-12+100599999V0202901N001512200019N0300001N1+01401+00351999999ADDAA199000091GA1001+999999999GF100991001001999999001001MA1999999091471MD1010001+9999ME1316199REMSYN070AAXX  25124 08213 32980 02903 10140 20035 39147 48619 50000 333 50100;EQDQ01  00002PRCP99
0142082130999992000022515004+40950-004120FM-12+100599999V0202301N001012200019N0300001N1+01741+00461999999ADDGF101991011011008001001001MA1999999091311MD1710161+9999ME1316129REMSYN066AAXX  25154 08213 42580 12302 10174 20046 39131 48612 57016 81100;
0205082130999992000022518004+40950-004120FM-12+100599999V0203001N002112200019N0300001N1+01621+00391999999ADDAA199000091GA1001+999999999GF100991001001999999001001KA1999M+01801MA1999999091231MD1610081+9999ME1316029REMSYN070AAXX  25184 08213 32980 03004 10162 20039 39123 48602 56008 333 10180;EQDQ01  00002PRCP99
0235082130999992000022606004+40950-004120FM-12+100599999V0200801N002112200019N0300001N1+00601-00171999999ADDAA199000091GA1001+999999999GF100991001001999999001001IA1019IA2999-00209KA1120N+00581MA1999999091181MD1710021+9999ME1315769REMSYN082AAXX  26064 08213 32980 00804 10060 21017 39118 48576 57002 333 20058 30102 55102;EQDQ01  00002PRCP99
0152082130999992000022609004+40950-004120FM-12+100599999V0201601N000512200019N0300001N1+01061+00041999999ADDGA1001+999999999GF100991001001999999001001MA1999999091301MD1210121+9999ME1315969REMSYN060AAXX  26094 08213 42980 01601 10106 20004 39130 48596 52012;
0182082130999992000022612004+40950-004120FM-12+100599999V0202701N001512200019N0300001N1+01261+00151999999ADDAA199000091GF106991021001017501041041MA1999999091301MD1410001+9999ME1316019REMSYN076AAXX  26124 08213 32780 62703 10126 20015 39130 48601 54000 82044 333 50200;EQDQ01  00002PRCP99
0142082130999992000022615004+40950-004120FM-12+100599999V0203501N000510360019N0300001N1+01701-00031999999ADDGF107991011021008001041051MA1999999091151MD1710151+9999ME1315969REMSYN066AAXX  26154 08213 42580 73501 10170 21003 39115 48596 57015 81245;
0195082130999992000022618004+40950-004120FM-12+100599999V0200101N001010360019N0300001N1+01521+00121999999ADDAA199000091GF107991011021008001041071KA1999M+01721MA1999999091141MD1610011+9999ME1315919REMSYN076AAXX  26184 08213 32580 70102 10152 20012 39114 48591 56001 81247 333 10172;EQDQ01  00002PRCP99
0225082130999992000022706004+40950-004120FM-12+100599999V0200901N003112200019N0300001N1+00561-00591999999ADDAA199000091GF102991001001999999001041IA1019IA2999-00209KA1120N+00501MA1999999091071MD1610031+9999ME1315659REMSYN088AAXX  27064 08213 32980 20906 10056 21059 39107 48565 56003 80004 333 20050 30102 55073;EQDQ01  00002PRCP99
0152082130999992000022709004+40950-004120FM-12+100599999V0200901N001512200019N0300001N1+00981-00281999999ADDGA1001+999999999GF100991001001999999001001MA1999999091191MD1210121+9999ME1315859REMSYN060AAXX  27094 08213 42980 00903 10098 21028 39119 48585 52012;
0192082130999992000022712004+40950-004120FM-12+100599999V0202701N002112200019N0300001N1+01561+00121999999ADDAA199000091GA1001+999999999GF100991001001999999001001MA1999999091191MD1010001+9999ME1315979REMSYN070AAXX  27124 08213 32980 02704 10156 20012 39119 48597 50000 333 50220;EQDQ01  00002PRCP99
0205082130999992000022718004+40950-004120FM-12+100599999V0203301N001012200019N0300001N1+01741+00041999999ADDAA199000091GA1001+999999999GF100991001001999999001001KA1999M+01901MA1999999090981MD1710011+9999ME1315819REMSYN070AAXX  27184 08213 32980 03302 10174 20004 39098 48581 57001 333 10190;EQDQ01  00002PRCP99
0235082130999992000022806004+40950-004120FM-12+100599999V0200901N001512200019N0300001N1+00481-00111999999ADDAA199000091GA1001+999999999GF100991001001999999001001IA1019IA2999+00009KA1120N+00431MA1999999090951MD1310041+9999ME1315539REMSYN082AAXX  28064 08213 32980 00903 10048 21011 39095 48553 53004 333 20043 30000 55103;EQDQ01  00002PRCP99
0142082130999992000022809004+40950-004120FM-12+100599999V0200801N001012200019N0120001N1+00981+00191999999ADDGF103991001001999999001021MA1999999091071MD1210121+9999ME1315749REMSYN066AAXX  28094 08213 42962 30802 10098 20019 39107 48574 52012 80002;
0182082130999992000022812004+40950-004120FM-12+100599999V0203001N003112200019N0200001N1+00931+00441999999ADDAA199000091GF105991031001017501071011MA1999999091111MD1210041+9999ME1315779REMSYN076AAXX  28124 08213 32770 53006 10093 20044 39111 48577 52004 83071 333 50230;EQDQ01  00002PRCP99
0170082130999992000022815004+40950-004120FM-12+100599999V0203201N002110900019N0080001N1+01061+00401999999ADDAY121031AY221031GF107991041001017501071051MA1999999091061MD1710051+9999ME1315759MW1051REMSYN072AAXX  28154 08213 41758 73204 10106 20040 39106 48575 57005 70522 84075;
0223082130999992000022818004+40950-004120FM-12+100599999V0209999C000010360019N0050001N1+01001+00541999999ADDAA199000091AY121061AY221061GF108991011051008001071061KA1999M+01201MA1999999091061MD1510001+9999ME1315749MW1051REMSYN082AAXX  28184 08213 31550 80000 10100 20054 39106 48574 55000 70522 81576 333 10120;EQDQ01  00002PRCP99
0225082130999992000022906004+40950-004120FM-12+100599999V0201401N003112200019N0120001N1+00501+00301999999ADDAA199000091GF102991011051008001001011IA1019IA2999+00009KA1120N+00441MA1999999091031MD1610051+9999ME1315619REMSYN088AAXX  29064 08213 32562 21406 10050 20030 39103 48561 56005 81501 333 20044 30000 55040;EQDQ01  00002PRCP99
0190082130999992000022909004+40950-004120FM-12+100599999V0202701N001010001519N0005001N1+00451+00381999999ADDAY111031AY201031GA1091+000159999GF109991091999999999999999MA1999999091151MD1310121+9999ME1315719MW1471REMSYN076AAXX  29094 08213 41/05 92702 10045 20038 39115 48571 53012 74710 333 89/00;
0210082130999992000022912004+40950-004120FM-12+100599999V0202401N002612200019N0300001N1+01161+00291999999ADDAA199000091AY141061AY211061GF103991001001999999001041MA1999999091071MD1810081+9999ME1315789MW1021REMSYN082AAXX  29124 08213 31980 32405 10116 20029 39107 48578 58008 70241 80004 333 50150;EQDQ01  00002PRCP99
0142082130999992000022915004+40950-004120FM-12+100599999V0202901N003110900019N0300001N1+01341-00181999999ADDGF105991011001017501031021MA1999999090941MD1710131+9999ME1315699REMSYN066AAXX  29154 08213 42780 52906 10134 21018 39094 48569 57013 81032;
0195082130999992000022918004+40950-004120FM-12+100599999V0202701N004112200019N0200001N1+01221-00601999999ADDAA199000091GF104991021001017501031021KA1999M+01431MA1999999090871MD1610071+9999ME1315609REMSYN076AAXX  29184 08213 32770 42708 10122 21060 39087 48560 56007 82032 333 10143;EQDQ01  00002PRCP99
0225082130999992000030106004+40950-004120FM-12+100599999V0202301N004110075019N0200001N1+00401+00111999999ADDAA199000091GF107991061051008001071999IA1019IA2999+00009KA1120N+00351MA1999999090911MD1610031+9999ME1315489REMSYN088AAXX  01064 08213 32570 72308 10040 20011 39091 48548 56003 8657/ 333 20035 30000 55061;EQDQ01  00002PRCP99
0142082130999992000030109004+40950-004120FM-12+100599999V0202601N004110075019N0180001N1+00541+00161999999ADDGF107991071051008001999999MA1999999090981MD1310071+9999ME1315579REMSYN066AAXX  01094 08213 42568 72608 10054 20016 39098 48557 53007 875//;
0182082130999992000030112004+40950-004120FM-12+100599999V0202801N005710075019N0250001N1+01001+00191999999ADDAA199000091GF106991061051008001001001MA1999999090871MD1810111+9999ME1315579REMSYN076AAXX  01124 08213 32575 62811 10100 20019 39087 48557 58011 86500 333 50390;EQDQ01  00002PRCP99
0195082130999992000030118004+40950-004120FM-12+100599999V0202901N004610075019N0300001N1+01041+00241999999ADDAA199000091GF106991051051008001001011KA1999M+01241MA1999999090821MD1310071+9999ME1315539REMSYN076AAXX  01184 08213 32580 62909 10104 20024 39082 48553 53007 85501 333 10124;EQDQ01  00002PRCP99
0235082130999992000030206004+40950-004120FM-12+100599999V0209999C000012200019N0300001N1-00061-00491999999ADDAA199000091GA1001+999999999GF100991001001999999001001IA1019IA2999-00709KA1120N-00121MA1999999091221MD1210071+9999ME1315669REMSYN082AAXX  02064 08213 32980 00000 11006 21049 39122 48566 52007 333 21012 30107 55043;EQDQ01  00002PRCP99
0176082130999992000030212004+40950-004120FM-12+100599999V0203101N001512200019N0300001N1+01001-00361999999ADDAA199000091GF102991001001999999001011MA1999999091351MD1010001+9999ME1315999REMSYN070AAXX  02124 08213 32980 23103 10100 21036 39135 48599 50000 80001 333;EQDQ01  00002PRCP99
0195082130999992000030218004+40950-004120FM-12+100599999V0203301N001512200019N0300001N1+01151-00331999999ADDAA199000091GF101991011001017501031001KA1999M+01361MA1999999091071MD1710111+9999ME1315779REMSYN076AAXX  02184 08213 32780 13303 10115 21033 39107 48577 57011 81030 333 10136;EQDQ01  00002PRCP99
0235082130999992000030306004+40950-004120FM-12+100599999V0201001N001512200019N0150001N1+00121-00621999999ADDAA199000091GA1001+999999999GF100991001001999999001001IA1019IA2999-00509KA1120N+00121MA1999999090941MD1310041+9999ME1315459REMSYN082AAXX  03064 08213 32965 01003 10012 21062 39094 48545 53004 333 20012 30105 55104;EQDQ01  00002PRCP99
0182082130999992000030312004+40950-004120FM-12+100599999V0202701N001512200019N0150001N1+01361-00291999999ADDAA199000091GF103991001001999999001081MA1999999091031MD1210041+9999ME1315789REMSYN076AAXX  03124 08213 32965 32703 10136 21029 39103 48578 52004 80008 333 5///0;EQDQ01  00002PRCP99
0195082130999992000030318004+40950-004120FM-12+100599999V0202701N000510900019N0200001N1+01381-00041999999ADDAA199000091GF106991021001017501041081KA1999M+01621MA1999999090791MD1610041+9999ME1315569REMSYN076AAXX  03184 08213 32770 62701 10138 21004 39079 48556 56004 82048 333 10162;EQDQ01  00002PRCP99
0225082130999992000030406004+40950-004120FM-12+100599999V0200801N001512200019N0150001N1+00361-00171999999ADDAA199000091GF102991001001999999001011IA1019IA2999-00509KA1120N+00321MA1999999090871MD1310021+9999ME1315449REMSYN088AAXX  04064 08213 32965 20803 10036 21017 39087 48544 53002 80001 333 20032 30105 55086;EQDQ01  00002PRCP99
0182082130999992000030412004+40950-004120FM-12+100599999V0203001N001019999999N0100001N1+01321+00321999999ADDAA199000091GF106991001001999999001081MA1999999090981MD1110071+9999ME1315739REMSYN076AAXX  04124 08213 32960 63002 10132 20032 39098 48573 51007 80008 333 50190;EQDQ01  00002PRCP99
0195082130999992000030418004+40950-004120FM-12+100599999V0203501N000510900019N0150001N1+01421+00151999999ADDAA199000091GF106991021001017501041081KA1999M+01621MA1999999090871MD1310011+9999ME1315659REMSYN076AAXX  04184 08213 32765 63501 10142 20015 39087 48565 53001 82048 333 10162;EQDQ01  00002PRCP99
0235082130999992000030506004+40950-004120FM-12+100599999V0200801N001512200019N0120001N1+00361+00011999999ADDAA199000091GA1001+999999999GF100991001001999999001001IA1099IA2999-00409KA1120N+00321MA1999999091071MD1110031+9999ME1315629REMSYN082AAXX  05064 08213 32962 00803 10036 20001 39107 48562 51003 333 20032 31104 55090;EQDQ01  00002PRCP99
0182082130999992000030512004+40950-004120FM-12+100599999V0203001N001519999999N0100001N1+01481+00181999999ADDAA199000091GF106991001001999999001081MA1999999091151MD1110011+9999ME1315929REMSYN076AAXX  05124 08213 32960 63003 10148 20018 39115 48592 51001 80008 333 50210;EQDQ01  00002PRCP99
0195082130999992000030518004+40950-004120FM-12+100599999V0203601N000510900019N0120001N1+01641+00471999999ADDAA199000091GF106991011011008001001081KA1999M+01801MA1999999091021MD1610011+9999ME1315839REMSYN076AAXX  05184 08213 32562 63601 10164 20047 39102 48583 56001 81108 333 10180;EQDQ01  00002PRCP99
0225082130999992000030606004+40950-004120FM-12+100599999V0201001N001012200019N0200001N1+00661-00031999999ADDAA199000091GF102991001001999999001081IA1019IA2999-00209KA1120N+00601MA1999999091151MD1610021+9999ME1315759REMSYN088AAXX  06064 08213 32970 21002 10066 21003 39115 48575 56002 80008 333 20060 30102 55095;EQDQ01  00002PRCP99
0182082130999992000030612004+40950-004120FM-12+100599999V0202401N002612200019N0300001N1+01721+00071999999ADDAA199000091GF101991001001999999001041MA1999999091301MD1110071+9999ME1316109REMSYN076AAXX  06124 08213 32980 12405 10172 20007 39130 48610 51007 80004 333 50210;EQDQ01  00002PRCP99
0195082130999992000030618004+40950-004120FM-12+100599999V0203201N002110360019N0200001N1+01541+00151999999ADDAA199000091GF107991011021008001051081KA1999M+01901MA1999999091141MD1510001+9999ME1315929REMSYN076AAXX  06184 08213 32570 73204 10154 20015 39114 48592 55000 81258 333 10190;EQDQ01  00002PRCP99
0225082130999992000030706004+40950-004120FM-12+100599999V0200801N002110900019N0200001N1+00881+00081999999ADDAA199000091GF105991011021008001051081IA1019IA2999+00009KA1120N+00801MA1999999091231MD1610041+9999ME1315869REMSYN088AAXX  07064 08213 32570 50804 10088 20008 39123 48586 56004 81258 333 20080 30000 55080;EQDQ01  00002PRCP99
0182082130999992000030712004+40950-004120FM-12+100599999V0202701N001512200019N0300001N1+01601+00411999999ADDAA199000091GF102991001001999999001081MA1999999091351MD1410001+9999ME1316139REMSYN076AAXX  07124 08213 32980 22703 10160 20041 39135 48613 54000 80008 333 50240;EQDQ01  00002PRCP99
0195082130999992000030718004+40950-004120FM-12+100599999V0202801N001510360019N0200001N1+01641+00131999999ADDAA199000091GF105991011021008001031001KA1999M+01821MA1999999091271MD1410001+9999ME1316069REMSYN076AAXX  07184 08213 32570 52803 10164 20013 39127 48606 54000 81230 333 10182;EQDQ01  00002PRCP99
0225082130999992000030806004+40950-004120FM-12+100599999V0200801N001512200019N0200001N1+00641-00061999999ADDAA199000091GF103991011021008001031001IA1019IA2999+00009KA1120N+00641MA1999999091501MD1310031+9999ME1316059REMSYN088AAXX  08064 08213 32570 30803 10064 21006 39150 48605 53003 81230 333 20064 30000 55058;EQDQ01  00002PRCP99
0192082130999992000030812004+40950-004120FM-12+100599999V0200401N001512200019N0300001N1+01781-00181999999ADDAA199000091GA1001+999999999GF100991001001999999001001MA1999999091591MD1110051+9999ME1316389REMSYN070AAXX  08124 08213 32980 00403 10178 21018 39159 48638 51005 333 50220;EQDQ01  00002PRCP99
0205082130999992000030818004+40950-004120FM-12+100599999V0203301N002112200019N0300001N1+01841-00211999999ADDAA199000091GA1001+999999999GF100991001001999999001001KA1999M+02001MA1999999091471MD1410001+9999ME1316289REMSYN070AAXX  08184 08213 32980 03304 10184 21021 39147 48628 54000 333 10200;EQDQ01  00002PRCP99
0235082130999992000030906004+40950-004120FM-12+100599999V0200901N001512200019N0300001N1+00801-00361999999ADDAA199000091GA1001+999999999GF100991001001999999001001IA1019IA2999-00109KA1120N+00801MA1999999091581MD1510001+9999ME1316159REMSYN082AAXX  09064 08213 32980 00903 10080 21036 39158 48615 55000 333 20080 30101 55103;EQDQ01  00002PRCP99
0192082130999992000030912004+40950-004120FM-12+100599999V0200501N002112200019N0300001N1+01921-00131999999ADDAA199000091GA1001+999999999GF100991001001999999001001MA1999999091671MD1410001+9999ME1316489REMSYN070AAXX  09124 08213 32980 00504 10192 21013 39167 48648 54000 333 50320;EQDQ01  00002PRCP99
0195082130999992000030918004+40950-004120FM-12+100599999V0203301N002112200019N0300001N1+01921-00131999999ADDAA199000091GF101991001001999999001041KA1999M+02081MA1999999091381MD1610051+9999ME1316229REMSYN076AAXX  09184 08213 32980 13304 10192 21013 39138 48622 56005 80004 333 10208;EQDQ01  00002PRCP99
0225082130999992000031006004+40950-004120FM-12+100599999V0200901N001512200019N0150001N1+00721-00271999999ADDAA199000091GF104991021001017501031081IA1019IA2999-00209KA1120N+00621MA1999999091271MD1810031+9999ME1315869REMSYN088AAXX  10064 08213 32765 40903 10072 21027 39127 48586 58003 82038 333 20062 30102 55105;EQDQ01  00002PRCP99
0182082130999992000031012004+40950-004120FM-12+100599999V0203101N001510900019N0120001N1+01781-00071999999ADDAA199000091GF106991041001017501041081MA1999999091271MD1410001+9999ME1316089REMSYN076AAXX  10124 08213 32762 63103 10178 21007 39127 48608 54000 84048 333 50341;EQDQ01  00002PRCP99
0195082130999992000031018004+40950-004120FM-12+100599999V0201101N002119999999N0300001N1+01741+00181999999ADDAA199000091GF105991001001999999001051KA1999M+02141MA1999999090251MD1610051+9999ME1315909REMSYN076AAXX  10184 08213 32980 51104 10174 20018 39025 48590 56005 80005 333 10214;EQDQ01  00002PRCP99
0225082130999992000031106004+40950-004120FM-12+100599999V0201101N002112200019N0150001N1+00921-00381999999ADDAA199000091GF103991001001999999001081IA1019IA2999+00109KA1120N+00801MA1999999090781MD1610071+9999ME1315469REMSYN088AAXX  11064 08213 32965 31104 10092 21038 39078 48546 56007 80008 333 20080 30001 55070;EQDQ01  00002PRCP99
0182082130999992000031112004+40950-004120FM-12+100599999V0202801N001512200019N0150001N1+02041+00111999999ADDAA199000091GF102991001001999999001081MA1999999090661MD1810091+9999ME1315579REMSYN076AAXX  11124 08213 32965 22803 10204 20011 39066 48557 58009 80008 333 50320;EQDQ01  00002PRCP99
0195082130999992000031118004+40950-004120FM-12+100599999V0201401N002110900019N0150001N1+01841+00021999999ADDAA199000091GF106991021001017501041081KA1999M+02301MA1999999090391MD1610071+9999ME1315289REMSYN076AAXX  11184 08213 32765 61404 10184 20002 39039 48528 56007 82048 333 10230;EQDQ01  00002PRCP99
0225082130999992000031206004+40950-004120FM-12+100599999V0203201N001512200019N0200001N1+01181+00101999999ADDAA199000091GF101991011001017501031001IA1019IA2999+00009KA1120N+01151MA1999999090221MD1410001+9999ME1315019REMSYN088AAXX  12064 08213 32770 13203 10118 20010 39022 48501 54000 81030 333 20115 30000 55092;EQDQ01  00002PRCP99
0182082130999992000031212004+40950-004120FM-12+100599999V0201501N005112200019N0150001N1+01761-00451999999ADDAA199000091GF101991011021008001001001MA1999999090311MD1010011+9999ME1315199REMSYN076AAXX  12124 08213 32565 11510 10176 21045 39031 48519 50001 81200 333 50390;EQDQ01  00002PRCP99
0205082130999992000031218004+40950-004120FM-12+100599999V0201401N004612200019N0120001N1+01481-00061999999ADDAA199000091GA1001+999999999GF100991001001999999001001KA1999M+01851MA1999999090191MD1510001+9999ME1315039REMSYN070AAXX  12184 08213 32962 01409 10148 21006 39019 48503 55000 333 10185;EQDQ01  00002PRCP99
0225082130999992000031306004+40950-004120FM-12+100599999V0200801N001510360019N0120001N1+00641+00121999999ADDAA199000091GF108991041051008001071999IA1019IA2999-00209KA1120N+00481MA1999999090541MD1310031+9999ME1315209REMSYN088AAXX  13064 08213 32562 80803 10064 20012 39054 48520 53003 8457/ 333 20048 30102 55102;EQDQ01  00002PRCP99
0210082130999992000031312004+40950-004120FM-12+100599999V0203601N000512200019N0080001N1+01381+00431999999ADDAA199000091AY101061AY201061GF101991011081008001001001MA1999999090671MD1110041+9999ME1315469MW1051REMSYN082AAXX  13124 08213 31558 13601 10138 20043 39067 48546 51004 70500 81800 333 50320;EQDQ01  00002PRCP99
0217082130999992000031318004+40950-004120FM-12+100599999V0200101N002112200019N0150001N1+01521-00211999999ADDAA199000091GA1011+008009099GF103991021091008001061021KA1120M+01791MA1999999090621MD1310071+9999ME1315439REMSYN082AAXX  13184 08213 32565 30104 10152 21021 39062 48543 53007 82962 333 10179 81995;EQDQ01  00002PRCP99
0235082130999992000031406004+40950-004120FM-12+100599999V0209999C000012200019N0300001N1+00201-00181999999ADDAA199000091GA1001+999999999GF100991001001999999001001IA1019IA2999-00509KA1120N+00091MA1999999090991MD1210051+9999ME1315519REMSYN082AAXX  14064 08213 32980 00000 10020 21018 39099 48551 52005 333 20009 30105 55095;EQDQ01  00002PRCP99
0192082130999992000031412004+40950-004120FM-12+100599999V0203101N001012200019N0120001N1+01041-00021999999ADDAA199000091GA1001+999999999GF100991001001999999001001MA1999999091221MD1110111+9999ME1315899REMSYN070AAXX  14124 08213 32962 03102 10104 21002 39122 48589 51011 333 50320;EQDQ01  00002PRCP99
0195082130999992000031418004+40950-004120FM-12+100599999V0203501N000512200019N0150001N1+01561-00301999999ADDAA199000091GF103991011001017501031021KA1999M+01691MA1999999091031MD1510001+9999ME1315829REMSYN076AAXX  14184 08213 32765 33501 10156 21030 39103 48582 55000 81032 333 10169;EQDQ01  00002PRCP99
0225082130999992000031506004+40950-004120FM-12+100599999V0209999C000012200019N0150001N1+00201-00121999999ADDAA199000091GF102991001001999999001081IA1099IA2999-00509KA1120N+00161MA1999999091311MD1310041+9999ME1315799REMSYN088AAXX  15064 08213 32965 20000 10020 21012 39131 48579 53004 80008 333 20016 31105 55098;EQDQ01  00002PRCP99
0176082130999992000031512004+40950-004120FM-12+100599999V0200401N004112200019N0120001N1+01361+00501999999ADDAA199000091GF103991011011008001001081MA1999999091351MD1410001+9999ME1316089REMSYN070AAXX  15124 08213 32562 30408 10136 20050 39135 48608 54000 81108 333;EQDQ01  00002PRCP99
0205082130999992000031518004+40950-004120FM-12+100599999V0203601N002612200019N0200001N1+01281+00341999999ADDAA199000091GA1001+999999999GF100991001001999999001001KA1999M+01481MA1999999091111MD1610071+9999ME1315849REMSYN070AAXX  15184 08213 32970 03605 10128 20034 39111 48584 56007 333 10148;EQDQ01  00002PRCP99
0235082130999992000031606004+40950-004120FM-12+100599999V0201501N001512200019N0150001N1-00041-00271999999ADDAA199000091GA1001+999999999GF100991001001999999001001IA1149IA2999-00709KA1120N-00101MA1999999091101MD1410001+9999ME1315569REMSYN082AAXX  16064 08213 32965 01503 11004 21027 39110 48556 54000 333 21010 34107 55104;EQDQ01  00002PRCP99
0182082130999992000031612004+40950-004120FM-12+100599999V0202301N002612200019N0150001N1+01081+00071999999ADDAA199000091GF102991001001999999001081MA1999999091061MD1810041+9999ME1315759REMSYN076AAXX  16124 08213 32965 22305 10108 20007 39106 48575 58004 80008 333 50220;EQDQ01  00002PRCP99
0195082130999992000031618004+40950-004120FM-12+100599999V0200301N001512200019N0200001N1+01661-00601999999ADDAA199000091GF102991001001999999001081KA1999M+01841MA1999999090821MD1610041+9999ME1315649REMSYN076AAXX  16184 08213 32970 20303 10166 21060 39082 48564 56004 80008 333 10184;EQDQ01  00002PRCP99
0235082130999992000031706004+40950-004120FM-12+100599999V0201401N001512200019N0300001N1+00101-00431999999ADDAA199000091GA1001+999999999GF100991001001999999001001IA1149IA2999-00509KA1120N+00081MA1999999090941MD1410001+9999ME1315459REMSYN082AAXX  17064 08213 32980 01403 10010 21043 39094 48545 54000 333 20008 34105 55104;EQDQ01  00002PRCP99
0192082130999992000031712004+40950-004120FM-12+100599999V0203001N002112200019N0300001N1+01321-00141999999ADDAA199000091GA1001+999999999GF100991001001999999001001MA1999999091021MD1010031+9999ME1315769REMSYN070AAXX  17124 08213 32980 03004 10132 21014 39102 48576 50003 333 50230;EQDQ01  00002PRCP99
0235082130999992000031806004+40950-004120FM-12+100599999V0202301N002112200019N0300001N1-00101-00401999999ADDAA199000091GA1001+999999999GF100991001001999999001001IA1149IA2999-00609KA1120N-00101MA1999999090791MD1710031+9999ME1315289REMSYN082AAXX  18064 08213 32980 02304 11010 21040 39079 48528 57003 333 21010 34106 55104;EQDQ01  00002PRCP99
0192082130999992000031812004+40950-004120FM-12+100599999V0200501N001012200019N0300001N1+01101-00031999999ADDAA199000091GA1001+999999999GF100991001001999999001001MA1999999090831MD1410001+9999ME1315559REMSYN070AAXX  18124 08213 32980 00502 10110 21003 39083 48555 54000 333 50280;EQDQ01  00002PRCP99
0205082130999992000031818004+40950-004120FM-12+100599999V0200201N003612200019N0300001N1+01501-00041999999ADDAA199000091GA1001+999999999GF100991001001999999001001KA1999M+01821MA1999999090621MD1510051+9999ME1315439REMSYN070AAXX  18184 08213 32980 00207 10150 21004 39062 48543 55005 333 10182;EQDQ01  00002PRCP99
