0281106400999992000010106004+50120+008730FM-12+011299999V0202001N002110012019N0030001N1+00291+00261102611ADDAA124999999AY121061AY221061GA1051+001209079GF108991081051001501999999GJ100009KA1120M+00301KA2120N+00141MA1999999101401MD1210031+9999MW1101REMSYN112AAXX  01064 10640 41230 82004 10029 20026 30140 40261 52003 71022 885// 333 10030 20014 55000 79999 85704 87615;EQDQ01  99992PRCP24
0193106400999992000010109004+50120+008730FM-12+011299999V0202101N00261001201CN0020001N1+00261+00261102681ADDAY161031AY221031GA1041+001209079GF108991081051001501999999MA1999999101471MD1210071+9999MW1581REMSYN088AAXX  01094 10640 41220 82105 10026 20026 30147 40268 52007 75862 885// 333 84704 87610;
0193106400999992000010112004+50120+008730FM-12+011299999V0202101N00311001201CN0040001N1+00371+00371102611ADDAY161061AY221061GA1041+001209079GF108991081051001501999999MA1999999101411MD1710061+9999MW1201REMSYN088AAXX  01124 10640 41240 82106 10037 20037 30141 40261 57006 72062 885// 333 84704 87616;
0193106400999992000010115004+50120+008730FM-12+011299999V0202301N00261001201CN0050001N1+00441+00441102581ADDAY161031AY221031GA1041+000909079GF108991081061001501999999MA1999999101381MD1710031+9999MW1201REMSYN088AAXX  01154 10640 41250 82305 10044 20044 30138 40258 57003 72062 886// 333 84703 87709;
0231106400999992000010118004+50120+008730FM-12+011299999V0202301N00261001201CN0050001N1+00491+00491102671ADDAY121061AY221061GA1041+000909079GF108991081061001501999999KA1120M+00491KA2120N+00491MA1999999101471MD1210071+9999MW1611REMSYN100AAXX  01184 10640 41250 82305 10049 20049 30147 40267 52007 76122 886// 333 10049 20049 84703 87709;
0244106400999992000010206004+50120+008730FM-12+011299999V0202401N000512200019N0030001N1+00181+00051103161ADDAA124000591AY111061AY211061GA1001+999999999GF100991001001999999001001GJ100009KA1120M+00491KA2120N+00171MA1999999101941MD1410001+9999MW1101REMSYN094AAXX  02064 10640 41930 02401 10018 20005 30194 40316 54000 71011 333 10049 20017 55000 70005;
0181106400999992000010209004+50120+008730FM-12+011299999V0201901N000510001519N0005001N1+00241+00241103301ADDAY141031AY211031GA1091+000159999GF109991091999999999999999MA1999999102081MD1210131+9999MW1451REMSYN076AAXX  02094 10640 41905 91901 10024 20024 30208 40330 52013 74541 333 89/00;
0187106400999992000010212004+50120+008730FM-12+011299999V0202101N001019999999N0035001N1+00391+00391103291ADDAY121061AY221061GA1041+000909079GF108991999999001501999999MA1999999102081MD1410001+9999MW1281REMSYN082AAXX  02124 10640 41235 82102 10039 20039 30208 40329 54000 72822 333 84703 87709;
0193106400999992000010215004+50120+008730FM-12+011299999V0202001N001010012019N0040001N1+00401+00401103191ADDAY121031AY221031GA1031+000609079GF107991071071001501999999MA1999999101981MD1710071+9999MW1101REMSYN088AAXX  02154 10640 41240 72002 10040 20040 30198 40319 57007 71022 877// 333 83702 86704;
0225106400999992000010218004+50120+008730FM-12+011299999V0202101N000510006019N0009001N1+00271+00271103241ADDAY121061AY221061GA1081+000609069GF108991081061000751999999KA1120M+00421KA2120N+00111MA1999999102021MD1310061+9999MW1461REMSYN094AAXX  02184 10640 41109 82101 10027 20027 30202 40324 53006 74622 886// 333 10042 20011 88702;
0256106400999992000010306004+50120+008730FM-12+011299999V0202401N001510060019N0010001N1+00161+00161103121ADDAA124000091AY141061AY221061GA1081+006009059GF108991081051004501001001GJ100069KA1120M+00291KA2120N+00141MA1999999101901MD1710011+9999MW1411REMSYN106AAXX  03064 10640 41410 82403 10016 20016 30190 40312 57001 74142 88500 333 10029 20014 55001 70000 88620;
0193106400999992000010309004+50120+008730FM-12+011299999V0202201N00311000601CN0060001N1+00211+00211103121ADDAY121031AY221031GA1041+000909079GF108991081061000751999999MA1999999101901MD1410001+9999MW1101REMSYN088AAXX  03094 10640 41156 82206 10021 20021 30190 40312 54000 71022 886// 333 84703 87706;
0193106400999992000010312004+50120+008730FM-12+011299999V0202201N00361000601CN0070001N1+00351+00291103021ADDAY121061AY221061GA1021+000909079GF108991081051000751999999MA1999999101811MD1710091+9999MW1101REMSYN088AAXX  03124 10640 41157 82207 10035 20029 30181 40302 57009 71022 885// 333 82703 87615;
0165106400999992000010315004+50120+008730FM-12+011299999V0202101N00411004201CN0150001N1+00431+00311102831ADDGA1041+003609069GF108991081051004501999999MA1999999101631MD1710181+9999REMSYN082AAXX  03154 10640 42465 82108 10043 20031 30163 40283 57018 885// 333 84612 87640;
0203106400999992000010318004+50120+008730FM-12+011299999V0202001N00361002101CN0150001N1+00441+00261102771ADDGA1031+003009069GF108991081051002501999999KA1120M+00441KA2120N+00261MA1999999101571MD1710111+9999REMSYN094AAXX  03184 10640 42365 82007 10044 20026 30157 40277 57011 885// 333 10044 20026 83610 87615;
0247106400999992000010406004+50120+008730FM-12+011299999V0201801N002110099019N0120001N1+00531+00231102311ADDAA124999999GA1081+009909059GF108991081051008001999999GJ100009KA1120M+00531KA2120N+00441MA1999999101121MD1710091+9999REMSYN100AAXX  04064 10640 42562 81804 10053 20023 30112 40231 57009 885// 333 10053 20044 55000 79999 88633;EQDQ01  99992PRCP24
0165106400999992000010409004+50120+008730FM-12+011299999V0202001N00261001201CN0120001N1+00511+00361102281ADDGA1011+001209079GF108991081051001501999999MA1999999101091MD1710011+9999REMSYN082AAXX  04094 10640 42262 82005 10051 20036 30109 40228 57001 885// 333 81704 88630;
0192106400999992000010412004+50120+008730FM-12+011299999V0202001N00411002101CN0120001N1+00591+00371102141ADDAY161061AY221061GA1031+003009069GF108991081051002501999999MA1999999100951MD1710141+9999MW1211REMSYN087AAXX  04124 10640 41362 82008 10059 2003730095 40214 57014 72162 885// 333 83610 87620;
0187106400999992000010415004+50120+008730FM-12+011299999V0201901N003110060019N0060001N1+00651+00551101931ADDAY161031AY221031GA1071+006009059GF108991081051008001999999MA1999999100751MD1710201+9999MW1611REMSYN082AAXX  04154 10640 41556 81906 10065 20055 30075 40193 57020 76162 885// 333 87620;
0225106400999992000010418004+50120+008730FM-12+011299999V0202101N005110069019N0070001N1+00701+00591101861ADDAY161061AY221061GA1071+006909059GF108991081051008001999999KA1120M+00701KA2120N+00491MA1999999100681MD1610071+9999MW1601REMSYN094AAXX  04184 10640 41557 82110 10070 20059 30068 40186 56007 76062 885// 333 10070 20049 87623;
0256106400999992000010506004+50120+008730FM-12+011299999V0202401N002112200019N0230001N1+00661+00351102331ADDAA124001891AY181061AY211061GA1011+006009029GF102991011011008001031001GJ100009KA1120M+00851KA2120N+00661MA1999999101141MD1210231+9999MW1011REMSYN106AAXX  05064 10640 41573 22404 10066 20035 30114 40233 52023 70181 81130 333 10085 20066 55000 70018 81820;
0165106400999992000010509004+50120+008730FM-12+011299999V0202201N001012200019N0250001N1+00551+00311102531ADDGA1011+007509089GF103991011011008001001011MA1999999101341MD1210201+9999REMSYN082AAXX  05094 10640 42575 32202 10055 20031 30134 40253 52020 81101 333 81825 83075;
0187106400999992000010515004+50120+008730FM-12+011299999V0202001N00211030001CN0350001N1+00811+00141102481ADDGA1011+009009089GA2031+030009039GF106991011021008001031011MA1999999101301MD1710051+9999REMSYN088AAXX  05154 10640 42581 62004 10081 20014 30130 40248 57005 81231 333 81830 83360 86079;
0203106400999992000010518004+50120+008730FM-12+011299999V0201201N00151220001CN0250001N1+00531+00171102421ADDGA1021+015009069GF105991021051017501001011KA1120M+00851KA2120N+00531MA1999999101231MD1710071+9999REMSYN094AAXX  05184 10640 42775 51203 10053 20017 30123 40242 57007 82501 333 10085 20053 82650 85078;
0228106400999992000010606004+50120+008730FM-12+011299999V0200101N000510036019N0080001N1+00101+00071102251ADDAA124000091GA1071+003609059GF107991071051004501999999GJ104389KA1120M+00531KA2120N+00001MA1999999101041MD1710081+9999REMSYN100AAXX  06064 10640 42458 70101 10010 20007 30104 40225 57008 875// 333 10053 20000 55073 70000 87612;
0193106400999992000010609004+50120+008730FM-12+011299999V0201301N00151000601CN0020001N1+00131+00101102371ADDAY141031AY221031GA1031+000909079GF108991081051000751999999MA1999999101161MD1210121+9999MW1281REMSYN088AAXX  06094 10640 42120 81303 10013 20010 30116 40237 52012 72842 885// 333 83703 87610;
0193106400999992000010612004+50120+008730FM-12+011299999V0201501N001010006019N0011001N1+00281+00271102361ADDAY141061AY221061GA1051+000609079GF108991081061000751999999MA1999999101161MD1410001+9999MW1101REMSYN088AAXX  06124 10640 41111 81502 10028 20027 30116 40236 54000 71042 886// 333 85702 87703;
0193106400999992000010615004+50120+008730FM-12+011299999V0202001N00211000601CN0025001N1+00411+00381102391ADDAY121031AY221031GA1041+000609079GF108991081061000751999999MA1999999101091MD1710141+9999MW1101REMSYN088AAXX  06154 10640 41125 82004 10041 20038 30109 40239 57014 71022 886// 333 84702 88703;
0193106400999992000010709004+50120+008730FM-12+011299999V0202201N00151002101CN0020001N1+00601+00571102731ADDAY111031AY211031GA1021+003009079GF106991061051002501031001MA1999999101541MD1210171+9999MW1101REMSYN088AAXX  07094 10640 41320 62203 10060 20057 30154 40273 52017 71011 86530 333 82710 86630;
0165106400999992000010712004+50120+008730FM-12+011299999V0202401N00151009001CN0100001N1+00761+00541102671ADDGA1011+004509089GF106991061081004501031001MA1999999101481MD1710061+9999REMSYN082AAXX  07124 10640 42460 62403 10076 20054 30148 40267 57006 86830 333 81815 86640;
0165106400999992000010715004+50120+008730FM-12+011299999V0202201N001510090019N0100001N1+00801+00451102551ADDGA1011+003609089GF106991061081004501031001MA1999999101371MD1710091+9999REMSYN082AAXX  07154 10640 42460 62203 10080 20045 30137 40255 57009 86830 333 81812 85630;
0216106400999992000010718004+50120+008730FM-12+011299999V0201801N002112200019N0100001N1+00691+00471102501ADDGA1031+015009059GF103991031051004501999001KA1120M+00841KA2120N+00541MA1999999101311MD1710061+9999REMSYN088AAXX  07184 10640 42460 31804 10069 20047 30131 40250 57006 83500 333 10084 20054 83650;EQDQ01    003SCOMCG
0282106400999992000010806004+50120+008730FM-12+011299999V0202101N003110090019N0200001N1+00591+00131102331ADDAA106000091AA224000091GA1071+009009059GF107991071051008001999999GJ101089IA1099IA2999+00509KA1120M+00721KA2120N+00581MA1999999101141MD1710011+9999REMSYN106AAXX  08064 10640 32570 72106 10059 20013 30114 40233 57001 875// 333 10072 20058 31005 55018 70000 87630;EQDQ01  00002PRCP06
0159106400999992000010809004+50120+008730FM-12+011299999V0202101N002110099019N0200001N1+00591+00141102421ADDGA1071+009909059GF107991071051008001999999MA1999999101231MD1210091+9999REMSYN076AAXX  08094 10640 42570 72104 10059 20014 30123 40242 52009 875// 333 87633;
0165106400999992000010812004+50120+008730FM-12+011299999V0202101N00311007501CN0200001N1+00661+00291102331ADDGA1011+006309069GF107991071051008001999999MA1999999101141MD1710081+9999REMSYN082AAXX  08124 10640 42570 72106 10066 20029 30114 40233 57008 875// 333 81621 86536;
0165106400999992000010815004+50120+008730FM-12+011299999V0202001N00211007501CN0150001N1+00701+00361102321ADDGA1031+007509069GF107991071051008001999999MA1999999101131MD1710011+9999REMSYN082AAXX  08154 10640 42565 72004 10070 20036 30113 40232 57001 875// 333 83625 87640;
0197106400999992000010818004+50120+008730FM-12+011299999V0202101N001510075019N0150001N1+00661+00441102351ADDGA1071+007509059GF107991071051008001999999KA1120M+00711KA2120N+00571MA1999999101161MD1310071+9999REMSYN088AAXX  08184 10640 42565 72103 10066 20044 30116 40235 53007 875// 333 10071 20057 87625;
0193106400999992000010909004+50120+008730FM-12+011299999V0203501N00261001201CN0020001N1+00601+00581102431ADDAY151031AY251031GA1031+000909079GF108991081051001501999999MA1999999101241MD1710151+9999MW1511REMSYN088AAXX  09094 10640 41220 83505 10060 20058 30124 40243 57015 75155 885// 333 83703 88615;
0193106400999992000010912004+50120+008730FM-12+011299999V0203401N00211009001CN0180001N1+00601+00571102481ADDAY161061AY251061GA1011+003609089GF108991071081004501999999MA1999999101291MD1210061+9999MW1601REMSYN088AAXX  09124 10640 41468 83404 10060 20057 30129 40248 52006 76065 878// 333 81812 87633;
0159106400999992000010915004+50120+008730FM-12+011299999V0200101N002110138019N0250001N1+00671+00521102541ADDGA1071+013809059GF107991071051012501999999MA1999999101351MD1110061+9999REMSYN076AAXX  09154 10640 42675 70104 10067 20052 30135 40254 51006 875// 333 87646;
0225106400999992000010918004+50120+008730FM-12+011299999V0203601N002610150019N0250001N1+00651+00431102751ADDAY161061AY221061GA1071+015009059GF107991071051017501999999KA1120M+00681KA2120N+00561MA1999999101561MD1010211+9999MW1211REMSYN094AAXX  09184 10640 41775 73605 10065 20043 30156 40275 50021 72162 875// 333 10068 20056 87650;
0262106400999992000011006004+50120+008730FM-12+011299999V0203501N00261030001CN0140001N1+00361+00081103421ADDAA124003791AY161061AY221061GA1041+010509069GF108991041051012501071999GJ100009KA1120M+00651KA2120N+00351MA1999999102211MD1210111+9999MW1211REMSYN112AAXX  10064 10640 41664 83505 10036 20008 30221 40342 52011 72162 8457/ 333 10065 20035 55000 70037 84635 88361;
0187106400999992000011009004+50120+008730FM-12+011299999V0203601N002610099019N0200001N1+00341+00091103601ADDAY161031AY221031GA1071+009909059GF107991071051012501999999MA1999999102381MD1210171+9999MW1011REMSYN082AAXX  10094 10640 41670 73605 10034 20009 30238 40360 52017 70162 875// 333 87633;
0187106400999992000011012004+50120+008730FM-12+011299999V0203601N003110120019N0180001N1+00381+00091103701ADDAY161061AY221061GA1071+012009059GF107991071051012501999999MA1999999102481MD1110101+9999MW1031REMSYN082AAXX  10124 10640 41668 73606 10038 20009 30248 40370 51010 70362 875// 333 87640;
0178106400999992000011015004+50120+008730FM-12+011299999V0203601N001510180019N0150001N1+00431+00121103701ADDGA1061+018009059GF106991061051017501999011MA1999999102491MD1410001+9999REMSYN076AAXX  10154 10640 42765 63603 10043 20012 30249 40370 54000 86501 333 86656;EQDQ01+000002SCOMCG
0216106400999992000011018004+50120+008730FM-12+011299999V0203601N002612200019N0180001N1+00281-00011103821ADDGA1041+018009059GF104991041051017501999001KA1120M+00471KA2120N+00291MA1999999102601MD1210121+9999REMSYN088AAXX  10184 10640 42768 43605 10028 21001 30260 40382 52012 84500 333 10047 20029 84656;EQDQ01+000002SCOMCG
0262106400999992000011106004+50120+008730FM-12+011299999V0200501N00051004201CN0035001N1+00191-00051103951ADDAA124999929AY121061AY221061GA1041+003909079GF108991081061004501999999GJ100069KA1120M+00291KA2120N+00191MA1999999102721MD1110021+9999MW1101REMSYN112AAXX  11064 10640 41435 80501 10019 21005 30272 40395 51002 71022 886// 333 10029 20019 55001 79999 84713 88719;
0165106400999992000011112004+50120+008730FM-12+011299999V0200501N000510030019N0100001N1+00271+00031104051ADDGA1051+003009079GF108991081051004501999999MA1999999102821MD1810021+9999REMSYN082AAXX  11124 10640 42460 80501 10027 20003 30282 40405 58002 885// 333 85710 88626;
0165106400999992000011115004+50120+008730FM-12+011299999V0201101N00101004201CN0100001N1+00341+00111103981ADDGA1041+003009079GF108991081051004501999999MA1999999102761MD1710021+9999REMSYN082AAXX  11154 10640 42460 81102 10034 20011 30276 40398 57002 885// 333 84710 88626;
0197106400999992000011118004+50120+008730FM-12+011299999V0202601N000510051019N0100001N1+00371+00111103991ADDGA1081+005109059GF108991081051004501999999KA1120M+00371KA2120N+00181MA1999999102771MD1510031+9999REMSYN088AAXX  11184 10640 42460 82601 10037 20011 30277 40399 55003 885// 333 10037 20018 88617;
0228106400999992000011206004+50120+008730FM-12+011299999V0201601N001510039019N0100001N1+00181-00041103621ADDAA124000091GA1081+003909069GF108991081061004501999999GJ100009KA1120M+00381KA2120N+00181MA1999999102401MD1810081+9999REMSYN100AAXX  12064 10640 42460 81603 10018 21004 30240 40362 58008 886// 333 10038 20018 55000 70000 88713;
0159106400999992000011209004+50120+008730FM-12+011299999V0201501N002110039019N0100001N1+00131-00101103641ADDGA1081+003909069GF108991081061004501999999MA1999999102411MD1210011+9999REMSYN076AAXX  12094 10640 42460 81504 10013 21010 30241 40364 52001 886// 333 88713;
0159106400999992000011212004+50120+008730FM-12+011299999V0201501N001510039019N0090001N1+00141-00081103461ADDGA1081+003909069GF108991081061004501999999MA1999999102241MD1810171+9999REMSYN076AAXX  12124 10640 42459 81503 10014 21008 30224 40346 58017 886// 333 88713;
0159106400999992000011215004+50120+008730FM-12+011299999V0201601N001510030019N0080001N1+00131-00111103291ADDGA1081+003009069GF108991081061002501999999MA1999999102071MD1710171+9999REMSYN076AAXX  12154 10640 42358 81603 10013 21011 30207 40329 57017 886// 333 88710;
0197106400999992000011218004+50120+008730FM-12+011299999V0201401N001510045019N0080001N1+00101-00151103211ADDGA1081+004509059GF108991081061004501999999KA1120M+00181KA2120N+00091MA1999999101991MD1710081+9999REMSYN088AAXX  12184 10640 42458 81403 10010 21015 30199 40321 57008 886// 333 10018 20009 88615;
0207106400999992000011306004+50120+008730FM-12+011299999V0201401N001010042019N0120001N1-00051-00341102561ADDAA124000091GA1081+004209069GF108991081061004501999999GJ100009KA1120M+00111KA2120N-00071MD1610121+9999REMSYN094AAXX  13064 10640 42462 81402 11005 21034 40256 56012 886// 333 10011 21007 55000 70000 88714;
0159106400999992000011309004+50120+008730FM-12+011299999V0201401N001510039019N0100001N1+00011-00301102511ADDGA1081+003909069GF108991081061004501999999MA1999999101291MD1610051+9999REMSYN076AAXX  13094 10640 42460 81403 10001 21030 30129 40251 56005 886// 333 88713;
0159106400999992000011312004+50120+008730FM-12+011299999V0201101N002110048019N0120001N1+00081-00301102281ADDGA1071+004809059GF108991071051004501999999MA1999999101071MD1810221+9999REMSYN076AAXX  13124 10640 42462 81104 10008 21030 30107 40228 58022 875// 333 87616;
0159106400999992000011315004+50120+008730FM-12+011299999V0201401N002110075019N0120001N1+00201-00211102091ADDGA1051+007509059GF105991051051008001001001MA1999999100881MD1710181+9999REMSYN076AAXX  13154 10640 42562 51404 10020 21021 30088 40209 57018 85500 333 85625;
0197106400999992000011318004+50120+008730FM-12+011299999V0201401N002610090019N0120001N1+00101-00171102081ADDGA1061+009009059GF106991061051008001001001KA1120M+00221KA2120N-00061MA1999999100871MD1710081+9999REMSYN088AAXX  13184 10640 42562 61405 10010 21017 30087 40208 57008 86500 333 10022 21006 86630;
0238106400999992000011406004+50120+008730FM-12+011299999V0201301N00051007501CN0080001N1+00091-00081102221ADDAA124000091GA1031+007209069GF108991081051008001999999GJ100489KA1120M+00101KA2120N-00031MA1999999101001MD1110081+9999REMSYN110    AAXX  14064 10640 42558 81301 10009 21008 30100 40222 51008 885// 333 10010 21003 55008 70000 83624 87630;
0163106400999992000011409004+50120+008730FM-12+011299999V0201401N001010060019N0080001N1+00131-00061102341ADDGA1071+006009059GF107991071051008001999999MA1999999101131MD1110131+9999REMSYN080    AAXX  14094 10640 42558 71402 10013 21006 30113 40234 51013 875// 333 87620;
0191106400999992000011412004+50120+008730FM-12+011299999V0201401N001010060019N0070001N1+00251-00031102411ADDAY121061AY221061GA1071+006009059GF108991071051008001999999MA1999999101201MD1110071+9999MW1101REMSYN086    AAXX  14124 10640 41557 81402 10025 21003 30120 40241 51007 71022 875// 333 87620;
0163106400999992000011415004+50120+008730FM-12+011299999V0201201N001510180019N0080001N1+00301-00041102451ADDGA1071+018009059GF107991071051022501999999MA1999999101251MD1110051+9999REMSYN080    AAXX  14154 10640 42858 71203 10030 21004 30125 40245 51005 875// 333 87656;
0201106400999992000011418004+50120+008730FM-12+011299999V0200901N001010180019N0080001N1+00241-00031102631ADDGA1071+018009059GF107991071051022501999999KA1120M+00321KA2120N+00091MA1999999101421MD1210171+9999REMSYN092    AAXX  14184 10640 42858 70902 10024 21003 30142 40263 52017 875// 333 10032 20009 87656;
0251106400999992000011506004+50120+008730FM-12+011299999V0201301N000510180019N0070001N1-00121-00231103171ADDAA124000091GA1051+018009059GF105991051051017501999001GJ100009KA1120M+00241KA2120N-00121MA1999999101941MD1210111+9999REMSYN104    AAXX  15064 10640 42757 51301 11012 21023 30194 40317 52011 85500 333 10024 21012 55000 70000 85656;EQDQ01+000002SCOMCG
0191106400999992000011509004+50120+008730FM-12+011299999V0209999C000010180019N0070001N1-00011-00171103341ADDAY121031AY221031GA1071+018009059GF107991071051017501999999MA1999999102111MD1210171+9999MW1101REMSYN086    AAXX  15094 10640 42757 70000 11001 21017 30211 40334 52017 71022 875// 333 87656;
0191106400999992000011512004+50120+008730FM-12+011299999V0203601N000510180019N0060001N1+00231-00021103391ADDAY121061AY221061GA1071+018009059GF108991071051017501999999MA1999999102171MD1010061+9999MW1101REMSYN086    AAXX  15124 10640 41756 83601 10023 21002 30217 40339 50006 71022 875// 333 87656;
0197106400999992000011515004+50120+008730FM-12+011299999V0200201N00101007501CN0060001N1+00351+00081103391ADDAY121031AY221031GA1031+005409069GF108991071051008001999999MA1999999102181MD1010011+9999MW1101REMSYN092    AAXX  15154 10640 41556 80202 10035 20008 30218 40339 50001 71022 875// 333 83618 87650;
0232106400999992000011606004+50120+008730FM-12+011299999V0203301N001010099019N0140001N1+00091-00421103701ADDAA124000091GA1071+009909059GF108991071051012501999999GJ100009KA1120M+00331KA2120N+00081MA1999999102471MD1610041+9999REMSYN104    AAXX  16064 10640 42664 83302 10009 21042 30247 40370 56004 875// 333 10033 20008 55000 70000 87633;
0169106400999992000011609004+50120+008730FM-12+011299999V0202101N00051030001CN0300001N1+00111-00311103761ADDGA1021+009909069GF105991021051012501031001MA1999999102531MD1110061+9999REMSYN086    AAXX  16094 10640 42680 52101 10011 21031 30253 40376 51006 82530 333 82633 85359;
0169106400999992000011612004+50120+008730FM-12+011299999V0202301N000510300019N0250001N1+00341-00371103711ADDGA1021+010809069GF107991021051012501031001MA1999999102491MD1710061+9999REMSYN086    AAXX  16124 10640 42675 72301 10034 21037 30249 40371 57006 82530 333 82636 86360;
0169106400999992000011615004+50120+008730FM-12+011299999V0202201N002110060019N0200001N1+00341-00201103581ADDGA1051+006009069GF107991051051004501071999MA1999999102361MD1710141+9999REMSYN086    AAXX  16154 10640 42470 72204 10034 21020 30236 40358 57014 8557/ 333 85620 86360;
0207106400999992000011618004+50120+008730FM-12+011299999V0202301N00151030001CN0200001N1+00311-00011103561ADDGA1041+009009069GF107991041051008001071999KA1120M+00411KA2120N-00031MA1999999102341MD1410001+9999REMSYN098    AAXX  16184 10640 42570 72303 10031 21001 30234 40356 54000 8457/ 333 10041 21003 84630 87359;
0214106400999992000011812004+50120+008730FM-12+011299999V0203201N004610060019N0150001N1+00831+00391101981ADDAY151061AY221061GA1071+006009069GF107991071051008001999999MA1999999100801MD1710061+9999MW1201OA149900981REMSYN098    AAXX  18124 10640 41565 73209 10083 20039 30080 40198 57006 72052 875// 333 87620 91119 91212;
0219106400999992000011815004+50120+008730FM-12+011299999V0203201N004110099019N0200001N1+00811+00171102081ADDAY161031AY221031GA1021+006009089GA2061+009909069GF106991061081008001001021MA1999999100901MD1210101+9999MW1021REMSYN098    AAXX  18154 10640 41570 63208 10081 20017 30090 40208 52010 70262 86802 333 82820 86633 91118;
0257106400999992000011818004+50120+008730FM-12+011299999V0203201N004110150019N0200001N1+00611-00111102321ADDAY161061AY221061GA1021+006909089GA2061+015009069GF106991061081008001001001KA1120M+00891KA2120N+00621MA1999999101131MD1210261+9999MW1021REMSYN110    AAXX  18184 10640 41570 63208 10061 21011 30113 40232 52026 70262 86800 333 10089 20062 82823 86650 91117;
0232106400999992000011906004+50120+008730FM-12+011299999V0202301N001510105019N0180001N1+00201-00331102861ADDAA124001291GA1051+010509059GF105991051051012501001001GJ100429KA1120M+00611KA2120N+00191MA1999999101651MD1310121+9999REMSYN104    AAXX  19064 10640 42668 52303 10020 21033 30165 40286 53012 85500 333 10061 20019 55007 70012 85635;
0163106400999992000011909004+50120+008730FM-12+011299999V0202801N001510120019N0250001N1+00401-00171102961ADDGA1051+012009059GF105991051051012501001001MA1999999101751MD1210101+9999REMSYN080    AAXX  19094 10640 42675 52803 10040 21017 30175 40296 52010 85500 333 85640;
0163106400999992000011912004+50120+008730FM-12+011299999V0203101N002112200019N0250001N1+00521-00331103011ADDGA1041+009909029GF104991041011012501001001MA1999999101811MD1010061+9999REMSYN080    AAXX  19124 10640 42675 43104 10052 21033 30181 40301 50006 84100 333 84833;
0169106400999992000011915004+50120+008730FM-12+011299999V0203401N003110120019N0250001N1+00551-00331103051ADDGA1031+009009089GF107991071081008001999999MA1999999101851MD1210041+9999REMSYN086    AAXX  19154 10640 42575 73406 10055 21033 30185 40305 52004 878// 333 83830 87640;
0197106400999992000011918004+50120+008730FM-12+011299999V0203101N002610120019N0250001N1+00461-00281103191ADDGA1071+012009059GF107991071051012501999999KA1120M+00561KA2120N+00201MA1999999101981MD1210131+9999REMSYN088AAXX  19184 10640 42675 73105 10046 21028 30198 40319 52013 875// 333 10056 20020 87640;
0247106400999992000012006004+50120+008730FM-12+011299999V0202201N001510750019N0180001N1+00111-00121103241ADDAA124999999GA1051+075009019GF105991001001999999001011GJ102769KA1120M+00471KA2120N+00051MA1999999102021MD1610061+9999REMSYN100AAXX  20064 10640 42968 52203 10011 21012 30202 40324 56006 80001 333 10047 20005 55046 79999 85075;EQDQ01  99992PRCP24
0159106400999992000012009004+50120+008730FM-12+011299999V0202201N002110300019N0180001N1+00221-00091103251ADDGA1041+012009059GF106991041051012501031021MA1999999102031MD1010011+9999REMSYN076AAXX  20094 10640 42668 62204 10022 21009 30203 40325 50001 84532 333 84640;
0187106400999992000012012004+50120+008730FM-12+011299999V0202201N002610120019N0180001N1+00451+00091103111ADDGA1011+007809089GA2051+012009069GF107991051081008001031011MA1999999101901MD1810131+9999REMSYN088AAXX  20124 10640 42568 72205 10045 20009 30190 40311 58013 85831 333 81826 85640 87360;
0215106400999992000012015004+50120+008730FM-12+011299999V0202201N003619999999N0200001N1+00281+00081102931ADDAY161031AY221031GA1011+003609079GA2031+005709069GF108991071999004501999999MA1999999101721MD1710151+9999MW1601REMSYN094AAXX  20154 10640 41470 82207 10028 20008 30172 40293 57015 76062 87/// 333 81712 83619 87625;
0231106400999992000012018004+50120+008730FM-12+011299999V0202401N00311012001CN0200001N1+00431+00001102781ADDAY161061AY221061GA1031+012009069GF108991071051012501999999KA1120M+00471KA2120N+00091MA1999999101581MD1710151+9999MW1021REMSYN100AAXX  20184 10640 41670 82406 10043 20000 30158 40278 57015 70262 875// 333 10047 20009 83640 87650;
0276106400999992000012106004+50120+008730FM-12+011299999V0202401N003610060019N0100001N1+00401+00171102331ADDAA124000491AY161061GA1031+003909079GA2051+006009069GF108991051051004501071999GJ100549KA1120M+00441KA2120N+00361MA1999999101131MD1710081+9999MW1581REMSYN118AAXX  21064 10640 41460 82407 10040 20017 30113 40233 57008 7586/ 8557/ 333 10044 20036 55009 70004 83713 85620 87360;
0193106400999992000012109004+50120+008730FM-12+011299999V0202701N00361004201CN0160001N1+00571+00131102271ADDAY161031AY221031GA1021+004509069GF107991071051004501999999MA1999999101081MD1610051+9999MW1021REMSYN088AAXX  21094 10640 41466 72707 10057 20013 30108 40227 56005 70262 875// 333 82615 87620;
0237106400999992000012112004+50120+008730FM-12+011299999V0202801N004110060019N0150001N1+00611+00261102301ADDAY161061AY221061GA1021+003009069GA2031+006009069GA3071+009009069GF107991071051004501999999MA1999999101111MD1010031+9999MW1211REMSYN100AAXX  21124 10640 41465 72808 10061 20026 30111 40230 50003 72162 875// 333 82610 83620 87630 91115;
0215106400999992000012115004+50120+008730FM-12+011299999V0203501N002110090019N0250001N1+00561+00081102431ADDAY181031AY261031GA1031+004509089GA2071+009009069GF107991071081004501999999MA1999999101241MD1210131+9999MW1251REMSYN094AAXX  21154 10640 41475 73504 10056 20008 30124 40243 52013 72586 878// 333 83815 87630 91114;
0253106400999992000012118004+50120+008730FM-12+011299999V0203001N002610138019N0150001N1+00471-00121102561ADDAY181061AY261061GA1011+004509089GA2071+013809069GF107991071081004501999999KA1120M+00621KA2120N+00361MA1999999101361MD1210121+9999MW1021REMSYN106AAXX  21184 10640 41465 73005 10047 21012 30136 40256 52012 70286 878// 333 10062 20036 81815 87646 91114;
0193106400999992000012209004+50120+008730FM-12+011299999V0202001N00311004201CN0070001N1+00171+00011101331ADDAY161031AY221031GA1031+003009079GF108991081051004501999999MA1999999100131MD1710351+9999MW1681REMSYN088AAXX  22094 10640 41457 82006 10017 20001 30013 40133 57035 76862 885// 333 83710 87626;
0193106400999992000012212004+50120+008730FM-12+011299999V0202201N00411002101CN0150001N1+00371+00081100861ADDAY171061AY261061GA1031+003009079GF108991081051002501999999MA1999999099681MD1710391+9999MW1601REMSYN088AAXX  22124 10640 41365 82208 10037 20008 39968 40086 57039 76076 885// 333 83710 87627;
0251106400999992000012218004+50120+008730FM-12+011299999V0202401N003110042019N0200001N1+00431+00101100851ADDAJ199999999999999AY121061AY261061GF108991081051004501999999IA1239KA1120M+00451KA2120N+00171MA1999999099671MD1210051+9999MW1021REMSYN094AAXX  22184 10640 41470 82406 10043 20010 39967 40085 52005 70226 885// 333 10045 20017 47620;EQDQ01  06202SNDP  
0234106400999992000012306004+50120+008730FM-12+011299999V0200601N00051004201CN0200001N1+00361+00021101261ADDAA124002391GA1021+005109069GF108991071051004501999999GJ100069KA1120M+00441KA2120N+00361MA1999999100071MD1110091+9999REMSYN106AAXX  23064 10640 42470 80601 10036 20002 30007 40126 51009 875// 333 10044 20036 55001 70023 82617 87627;
0215106400999992000012315004+50120+008730FM-12+011299999V0200201N00311009001CN0060001N1+00111-00331101741ADDAY171031AY261031GA1011+003609089GA2031+006309059GF107991071081004501999999MA1999999100571MD1210221+9999MW1221REMSYN094AAXX  23154 10640 41456 70206 10011 21033 30057 40174 52022 72276 878// 333 81812 83521 87636;
0231106400999992000012318004+50120+008730FM-12+011299999V0200201N003610300019N0060001N1-00151-00691102041ADDAY171061AY261061GA1021+006309069GF106991041051012501031011KA1120M+00371KA2120N-00151MA1999999100821MD1210361+9999MW1101REMSYN100AAXX  23184 10640 41656 60207 11015 21069 30082 40204 52036 71076 84531 333 10037 21015 82621 83660;
0216106400999992000012406004+50120+008730FM-12+011299999V0200401N002112200019N0300001N1-00631-01021102581ADDAA124001891GA1001+999999999GF100991001001999999001001GJ100009KA1120M-00141KA2120N-00651MA1999999101331MD1210081+9999REMSYN088AAXX  24064 10640 42980 00404 11063 21102 30133 40258 52008 333 11014 21065 55000 70017;
0143106400999992000012409004+50120+008730FM-12+011299999V0200301N001512200019N0300001N1-00491-01011102731ADDGA1001+999999999GF100991001001999999001001MA1999999101481MD1110151+9999REMSYN060AAXX  24094 10640 42980 00303 11049 21101 30148 40273 51015;
0143106400999992000012412004+50120+008730FM-12+011299999V0203601N001012200019N0300001N1-00251-01071102731ADDGA1001+999999999GF100991001001999999001001MA1999999101501MD1010021+9999REMSYN060AAXX  24124 10640 42980 03602 11025 21107 30150 40273 50002;
0159106400999992000012415004+50120+008730FM-12+011299999V0200101N001512200019N0350001N1-00121-01161102681ADDGA1011+087009019GF101991001001999999001011MA1999999101451MD1710051+9999REMSYN076AAXX  24154 10640 42981 10103 11012 21116 30145 40268 57005 80001 333 81079;
0197106400999992000012418004+50120+008730FM-12+011299999V0203501N000512200019N0300001N1-00271-01141102761ADDGA1011+087009019GF101991001001999999001011KA1120M-00061KA2120N-00681MA1999999101531MD1210081+9999REMSYN088AAXX  24184 10640 42980 13501 11027 21114 30153 40276 52008 80001 333 11006 21068 81079;
0228106400999992000012506004+50120+008730FM-12+011299999V0200801N000512200019N0180001N1-00791-01001103001ADDAA124000091GA1021+072009019GF102991001001999999001011GJ105049KA1120M-00261KA2120N-00801MA1999999101741MD1110071+9999REMSYN100AAXX  25064 10640 42968 20801 11079 21100 30174 40300 51007 80001 333 11026 21080 55084 70000 82074;
0159106400999992000012509004+50120+008730FM-12+011299999V0200701N001012200019N0200001N1-00611-00961103191ADDGA1011+072009019GF101991001001999999001011MA1999999101931MD1110171+9999REMSYN076AAXX  25094 10640 42970 10702 11061 21096 30193 40319 51017 80001 333 81074;
0143106400999992000012512004+50120+008730FM-12+011299999V0203301N000512200019N0150001N1-00291-00861103251ADDGA1001+999999999GF100991001001999999001001MA1999999102011MD1210041+9999REMSYN060AAXX  25124 10640 42965 03301 11029 21086 30201 40325 52004;
0159106400999992000012515004+50120+008730FM-12+011299999V0201401N000512200019N0200001N1-00111-01121103201ADDGA1011+075009019GF101991001001999999001011MA1999999101971MD1810041+9999REMSYN076AAXX  25154 10640 42970 11401 11011 21112 30197 40320 58004 80001 333 81075;
0197106400999992000012518004+50120+008730FM-12+011299999V0202101N001012200019N0200001N1-00251-01001103321ADDGA1011+075009019GF101991001001999999001011KA1120M-00031KA2120N-00791MA1999999102081MD1210111+9999REMSYN088AAXX  25184 10640 42970 12102 11025 21100 30208 40332 52011 80001 333 11003 21079 81075;
0235106400999992000012606004+50120+008730FM-12+011299999V0202101N001012200019N0080001N1-00931-01141103501ADDAA124000091GA1001+999999999GF100991001001999999001001GJ103849KA1120M-00251KA2120N-00951MA1999999102221MD1210021+9999REMSYN088AAXX  26064 10640 42958 02102 11093 21114 30222 40350 52002 333 11025 21095 55064 70000;EQDQ01  00002PRCP24
0159106400999992000012609004+50120+008730FM-12+011299999V0202101N001012200019N0180001N1-00631-00931103591ADDGA1011+012009059GF103991011051012501001011MA1999999102331MD1210111+9999REMSYN076AAXX  26094 10640 42668 32102 11063 21093 30233 40359 52011 81501 333 81640;
0159106400999992000012612004+50120+008730FM-12+011299999V0202001N001512200019N0180001N1-00261-00941103561ADDGA1011+012009059GF103991011051012501001011MA1999999102321MD1810011+9999REMSYN076AAXX  26124 10640 42668 32003 11026 21094 30232 40356 58001 81501 333 81640;
0159106400999992000012615004+50120+008730FM-12+011299999V0202101N002112200019N0180001N1-00051-00861103491ADDGA1011+027009079GF102991011001999999031011MA1999999102261MD1710061+9999REMSYN076AAXX  26154 10640 42968 22104 11005 21086 30226 40349 57006 81031 333 81359;
0228106400999992000012706004+50120+008730FM-12+011299999V0202201N002612200019N0100001N1-00521-00871103461ADDAA124000091GA1021+009009059GF102991021051008001001001GJ103609KA1120M-00141KA2120N-00521MA1999999102201MD1410001+9999REMSYN100AAXX  27064 10640 42560 22205 11052 21087 30220 40346 54000 82500 333 11014 21052 55060 70000 82630;
0159106400999992000012709004+50120+008730FM-12+011299999V0202201N002110120019N0100001N1-00431-00811103441ADDGA1071+012009059GF108991071051012501999999MA1999999102191MD1710011+9999REMSYN076AAXX  27094 10640 42660 82204 11043 21081 30219 40344 57001 875// 333 87640;
0187106400999992000012712004+50120+008730FM-12+011299999V0202101N002110099019N0060001N1-00231-00681103321ADDAY111061AY211061GA1071+009909059GF107991071051012501999999MA1999999102081MD1810111+9999MW1051REMSYN082AAXX  27124 10640 41656 72104 11023 21068 30208 40332 58011 70511 875// 333 87633;
0159106400999992000012715004+50120+008730FM-12+011299999V0202101N002112200019N0080001N1+00071-00511103091ADDGA1041+012009059GF104991041051012501001001MA1999999101871MD1710261+9999REMSYN076AAXX  27154 10640 42658 42104 10007 21051 30187 40309 57026 84500 333 84640;
0185106400999992000012718004+50120+008730FM-12+011299999V0202201N001512200019N0080001N1-00051-00571102981ADDGA1001+999999999GF100991001001999999001001KA1120M+00101KA2999N-00521MA1999999101751MD1710151+9999REMSYN076AAXX  27184 10640 42958 02203 11005 21057 30175 40298 57015 333 10010 21052;
0263106400999992000012806004+50120+008730FM-12+011299999V0202201N002112200019N0070001N1-00361-00651102571ADDAA124000091AY101061AY201061GA1001+999999999GF100991001001999999001001GJ100729KA1120M-00051KA2120N-00361MA1999999101331MD1810081+9999MW1101REMSYN094AAXX  28064 10640 41957 02204 11036 21065 30133 40257 58008 71000 333 11005 21036 55012 70000;EQDQ01  00002PRCP24
0187106400999992000012809004+50120+008730FM-12+011299999V0202101N003612200019N0070001N1-00271-00611102511ADDAY101031AY201031GA1011+072009019GF101991001001999999001011MA1999999101281MD1610051+9999MW1051REMSYN082AAXX  28094 10640 41957 12107 11027 21061 30128 40251 56005 70500 80001 333 81074;
0193106400999992000012812004+50120+008730FM-12+011299999V0202201N004119999999N0070001N1+00131-00561102261ADDAY111061AY211061GA1011+030009039GF105991011001999999031011MA1999999101051MD1810231+9999MW1051REMSYN088AAXX  28124 10640 41957 52208 10013 21056 30105 40226 58023 70511 81031 333 81360 84074;
0159106400999992000012815004+50120+008730FM-12+011299999V0202201N002610180019N0100001N1+00291-00431102041ADDGA1071+018009059GF108991071051017501999999MA1999999100841MD1710201+9999REMSYN076AAXX  28154 10640 41760 82205 10029 21043 30084 40204 57020 875// 333 87656;
0279106400999992000012906004+50120+008730FM-12+011299999V0202001N006210069019N0120001N1+00561+00171100881ADDAA124000591AY161061AY221061GA1071+006909069GF108991071051008001999999GJ102649KA1120M+00581KA2120N+00361MA1999999099701MD1710371+9999MW1611OA149900931REMSYN118AAXX  29064 10640 41562 82012 10056 20017 39970 40088 57037 76162 875// 333 10058 20036 55044 70005 87623 91118 91212;
0232106400999992000012909004+50120+008730FM-12+011299999V0202101N007210060019N0060001N1+00501+00231100521ADDAY161031AY261031GA1031+003909079GA2081+006009069GF108991081051004501999999MA1999999099351MD1710351+9999MW1631OA149901081REMSYN100AAXX  29094 10640 41456 82114 10050 20023 39935 40052 57035 76366 885// 333 83713 88620 91121 91216;
0210106400999992000012912004+50120+008730FM-12+011299999V0202201N005710051019N0100001N1+00621+00261100421ADDAY161061AY261061GA1081+005109069GF108991081051004501999999MA1999999099251MD1710121+9999MW1211OA149900671REMSYN094AAXX  29124 10640 41460 82211 10062 20026 39925 40042 57012 72166 885// 333 88617 91113 91217;
0232106400999992000012915004+50120+008730FM-12+011299999V0202101N005710042019N0070001N1+00661+00481100291ADDAY161031AY261031GA1061+004209069GA2081+006009069GF108991081051004501999999MA1999999099131MD1710131+9999MW1211OA149900931REMSYN100AAXX  29154 10640 41457 82111 10066 20048 39913 40029 57013 72166 885// 333 86614 88620 91118 91211;
0270106400999992000012918004+50120+008730FM-12+011299999V0202201N006210030019N0080001N1+00871+00641100361ADDAY161061AY221061GA1061+003009069GA2071+006009069GF108991071051002501999999KA1120M+00891KA2120N+00481MA1999999099191MD1410001+9999MW1211OA149900671REMSYN112AAXX  29184 10640 41358 82212 10087 20064 39919 40036 54006 72162 875// 333 10089 20048 86610 87620 91113 91212;
0276106400999992000013006004+50120+008730FM-12+011299999V0202901N003610120019N0250001N1+00871+00391100981ADDAA124013791AY161061GA1021+006309069GA2061+012009069GF106991061051008001999999GJ100009KA1120M+01011KA2120N+00781MA1999999099821MD1210401+9999MW1211REMSYN118AAXX  30064 10640 42575 62907 10087 20039 39982 40098 52040 7216/ 865// 333 10101 20078 55000 70137 82621 86640 91211;
0215106400999992000013009004+50120+008730FM-12+011299999V0202201N002610141019N0250001N1+00821+00381101411ADDAY161031AY221031GA1011+006009089GA2071+014109069GF107991071081008001999999MA1999999100241MD1710421+9999MW1211REMSYN094AAXX  30094 10640 41575 72205 10082 20038 30024 40141 57042 72162 878// 333 81820 87647 91111;
0215106400999992000013012004+50120+008730FM-12+011299999V0202301N00311012001CN0150001N1+00881+00451101631ADDAY121061AY221061GA1011+004509089GA2031+009009069GF107991071081008001999999MA1999999100471MD1210261+9999MW1211REMSYN094AAXX  30124 10640 41565 72306 10088 20045 30047 40163 52026 72122 878// 333 81815 83630 87650;
0215106400999992000013015004+50120+008730FM-12+011299999V0202001N002610060019N0040001N1+00821+00661101711ADDAY161031AY221031GA1031+002709079GA2061+006009069GF108991071051002501071999MA1999999100541MD1210081+9999MW1581REMSYN094AAXX  30154 10640 41340 82005 10082 20066 30054 40171 52008 75862 8757/ 333 83709 86620 88359;
0231106400999992000013018004+50120+008730FM-12+011299999V0202101N004610015019N0080001N1+01001+00821101731ADDAY161061AY221061GA1051+001509079GF108991081051001501999999KA1120M+01011KA2120N+00791MA1999999100551MD1210031+9999MW1611REMSYN100AAXX  30184 10640 41258 82109 10100 20082 30055 40173 52003 76162 885// 333 10101 20079 85705 88615;
0273106400999992000013106004+50120+008730FM-12+011299999V0202301N005110060019N0300001N1+01091+00351101991ADDAA124002291GA1051+006009069GA2071+010509069GF108991081051008001999999GJ100009KA1120M+01131KA2120N+00991MA1999999100831MD1210121+9999OA149900821REMSYN118AAXX  31064 10640 42580 82310 10109 20035 30083 40199 52012 885// 333 10113 20099 55000 70022 85620 87635 91116 91211;
0210106400999992000013109004+50120+008730FM-12+011299999V0202201N006710078019N0150001N1+00981+00471102251ADDAY161031AY221031GA1071+007809069GF107991071051008001999999MA1999999101081MD1210251+9999MW1151OA149900931REMSYN094AAXX  31094 10640 41565 72213 10098 20047 30108 40225 52025 71562 875// 333 87626 91118 91214;
0232106400999992000013112004+50120+008730FM-12+011299999V0202401N006210099019N0250001N1+01161+00531102421ADDAY161061AY221061GA1011+006009069GA2051+009909069GF107991051051008001031011MA1999999101251MD1010171+9999MW1011OA149900981REMSYN100AAXX  31124 10640 41575 72412 10116 20053 30125 40242 50017 70162 85531 333 81620 85633 91119 91214;
0165106400999992000013115004+50120+008730FM-12+011299999V0202301N00461007501CN0200001N1+01121+00571102571ADDGA1031+006309069GF107991071051008001999999MA1999999101401MD1210141+9999REMSYN082AAXX  31154 10640 42570 72309 10112 20057 30140 40257 52014 875// 333 83621 86627;
0225106400999992000013118004+50120+008730FM-12+011299999V0202301N005110072019N0150001N1+01051+00601102691ADDGA1031+005409059GA2061+007209059GF107991071051008001999999KA1120M+01181KA2120N+00941MA1999999101521MD1210191+9999REMSYN100AAXX  31184 10640 42565 72310 10105 20060 30152 40269 52019 875// 333 10118 20094 83518 86524 91113;
0247106400999992000020106004+50120+008730FM-12+011299999V0202001N002610060019N0250001N1+00851+00381102491ADDAA124999999GA1071+006009059GF107991071051008001999999GJ100969KA1120M+01041KA2120N+00841MA1999999101311MD1710101+9999REMSYN100AAXX  01064 10640 42575 72005 10085 20038 30131 40249 57010 875// 333 10104 20084 55016 79999 87620;EQDQ01  99992PRCP24
0159106400999992000020109004+50120+008730FM-12+011299999V0201801N002610078019N0150001N1+00791+00451102461ADDGA1071+007809059GF107991071051008001999999MA1999999101281MD1810031+9999REMSYN076AAXX  01094 10640 42565 71805 10079 20045 30128 40246 58003 875// 333 87626;
0159106400999992000020115004+50120+008730FM-12+011299999V0202001N003110075019N0200001N1+00931+00441102041ADDGA1061+007509059GF106991061051008001001011MA1999999100871MD1710251+9999REMSYN076AAXX  01154 10640 42570 62006 10093 20044 30087 40204 57025 86501 333 86625;
0203106400999992000020118004+50120+008730FM-12+011299999V0202401N00311220001CN0200001N1+00801+00431101961ADDGA1031+007509069GF107991031051008001001011KA1120M+00961KA2120N+00791MA1999999100781MD1710091+9999REMSYN094AAXX  01184 10640 42570 72406 10080 20043 30078 40196 57009 83501 333 10096 20079 83625 86075;
0247106400999992000020206004+50120+008730FM-12+011299999V0202101N002112200019N0200001N1+00691+00421101711ADDAA124999999GA1021+009009059GF102991021051008001001001GJ100609KA1120M+00811KA2120N+00651MA1999999100531MD1710091+9999REMSYN100AAXX  02064 10640 42570 22104 10069 20042 30053 40171 57009 82500 333 10081 20065 55010 79999 82630;EQDQ01  99992PRCP24
0165106400999992000020209004+50120+008730FM-12+011299999V0202201N00311030001CN0100001N1+00691+00281101731ADDGA1011+007809069GF107991011051008001071011MA1999999100551MD1010201+9999REMSYN082AAXX  02094 10640 42560 72206 10069 20028 30055 40173 5002/ 81571 333 81626 87074;
0193106400999992000020212004+50120+008730FM-12+011299999V0202201N00311007501CN0090001N1+00821+00451101761ADDAY111061AY211061GA1011+007809069GF108991081051008001999999MA1999999100591MD1210041+9999MW1611REMSYN088AAXX  02124 10640 41559 82206 10082 20045 30059 40176 52004 76111 885// 333 81626 88640;
0231106400999992000020218004+50120+008730FM-12+011299999V0202901N00211004201CN0080001N1+00861+00361102151ADDAY121061AY221061GA1041+004509069GF107991071051004501999999KA1120M+00861KA2120N+00611MA1999999100971MD1210321+9999MW1211REMSYN100AAXX  02184 10640 41458 72904 10086 20036 30097 40215 52032 72122 875// 333 10086 20061 84615 87624;
0206106400999992000020312004+50120+008730FM-12+011299999V0202301N003110078019N0100001N1+00591+00361103371ADDAY161061AY221061GA1071+007809059GF108991071051012501999999MA1999999102171MD1011702+9999MW1611REMSYN082AAXX  03124 10640 41660 82306 10059 20036 30217 40337 5017/ 76162 875// 333 87626;EQDQ01+001702APC3  
0225106400999992000020318004+50120+008730FM-12+011299999V0202301N002110090019N0150001N1+00581+00351103651ADDAY121061AY261061GA1071+009009059GF107991071051008001999999KA1120M+00631KA2120N+00381MA1999999102441MD1210131+9999MW1221REMSYN094AAXX  03184 10640 41565 72304 10058 20035 30244 40365 52013 72226 875// 333 10063 20038 87630;
0159106400999992000020409004+50120+008730FM-12+011299999V0202101N002110120019N0100001N1+00431+00191103861ADDGA1071+012009059GF107991051999012501999999MA1999999102641MD1310021+9999REMSYN076AAXX  04094 10640 42660 72104 10043 20019 30264 40386 53002 85/// 333 87640;
0165106400999992000020412004+50120+008730FM-12+011299999V0202101N003610120019N0150001N1+00711+00261103731ADDGA1011+007809089GF107991071081008001999999MA1999999102531MD1810111+9999REMSYN082AAXX  04124 10640 42565 72107 10071 20026 30253 40373 58011 878// 333 81826 87640;
0165106400999992000020415004+50120+008730FM-12+011299999V0202201N00311007501CN0200001N1+00841+00291103511ADDGA1021+009009069GF108991071051008001031999MA1999999102321MD1710201+9999REMSYN082AAXX  04154 10640 42570 82206 10084 20029 30232 40351 57020 8753/ 333 82630 86640;
0203106400999992000020418004+50120+008730FM-12+011299999V0202101N00361007501CN0200001N1+00801+00311103541ADDGA1031+008109069GF108991071051008001999999KA1120M+00851KA2120N+00311MA1999999102341MD1710061+9999REMSYN094AAXX  04184 10640 42570 82107 10080 20031 30234 40354 57006 875// 333 10085 20031 83627 87640;
0262106400999992000020506004+50120+008730FM-12+011299999V0202001N002110300019N0100001N1+00641+00311103461ADDAA124001591AY121061AY221061GA1021+015009069GF107991021051017501031999GJ100189KA1120M+00801KA2120N+00611MA1999999102251MD1210021+9999MW1211REMSYN112AAXX  05064 10640 /1760 72004 10064 20031 30225 40346 52002 72122 8253/ 333 10080 20061 55003 70015 82650 87360;
0159106400999992000020509004+50120+008730FM-12+011299999V0202001N003110300019N0100001N1+00741+00261103491ADDGA1061+030009079GF106991061001022501031999MA1999999102801MD1210021+9999REMSYN076AAXX  05094 10640 42860 62006 10074 20026 3028/ 40349 52002 8603/ 333 86360;
0159106400999992000020512004+50120+008730FM-12+011299999V0202001N003110300019N0250001N1+00991+00201103411ADDGA1061+030009079GF106991061001022501031001MA1999999102221MD1610061+9999REMSYN076AAXX  05124 10640 42875 62006 10099 20020 30222 40341 56006 86030 333 86360;
0143106400999992000020515004+50120+008730FM-12+011299999V0202101N003112200019N0200001N1+00181+99999103231ADDGA1001+999999999GF100991001001999999001001MA1999999102061MD1710161+9999REMSYN060AAXX  05154 10640 42970 02106 10018 20028 30206 40323 57016;
0216106400999992000020606004+50120+008730FM-12+011299999V0202201N001012200019N0150001N1+00241+00061102661ADDAA124000021GA1001+999999999GF100991001001999999001001GJ102469KA1120M+01001KA2120N+00241MA1999999101451MD1710131+9999REMSYN088AAXX  06064 10640 42965 02202 10024 20006 30145 40266 57013 333 10100 20024 55041 70000;
0165106400999992000020609004+50120+008730FM-12+011299999V0202101N000519999999N0100001N1+00581+00221102671ADDGA1031+030009039GF105991031001999999071011MA1999999101481MD1210031+9999REMSYN082AAXX  06094 10640 42960 52101 10058 20022 30148 40267 52003 83071 333 83360 83075;
0165106400999992000020612004+50120+008730FM-12+011299999V0202001N003119999999N0100001N1+01061+00241102501ADDGA1021+030009039GF105991021001999999031011MA1999999101331MD1710151+9999REMSYN082AAXX  06124 10640 42960 52006 10106 20024 30133 40250 57015 82031 333 82360 85078;
0165106400999992000020615004+50120+008730FM-12+011299999V0202201N002119999999N0120001N1+01201+00411102311ADDGA1031+027009039GF106991031001999999031011MA1999999101151MD1710181+9999REMSYN082AAXX  06154 10640 42962 62204 10120 20041 30115 40231 57018 83031 333 83359 84078;
0203106400999992000020618004+50120+008730FM-12+011299999V0202001N002619999999N0120001N1+01071+00451102281ADDGA1041+027009039GF107991041001999999031011KA1120M+01191KA2120N+00621MA1999999101111MD1710081+9999REMSYN094AAXX  06184 10640 42962 72005 10107 20045 30111 40228 57008 84031 333 10119 20062 84359 84078;
0228106400999992000020706004+50120+008730FM-12+011299999V0202001N004110090019N0120001N1+00991+00551101751ADDAA124000191GA1071+009009059GF108991071051008001999999GJ103609KA1120M+01071KA2120N+00891MA1999999100581MD1610161+9999REMSYN100AAXX  07064 10640 42562 82008 10099 20055 30058 40175 56016 875// 333 10107 20089 55060 70001 87630;
0193106400999992000020709004+50120+008730FM-12+011299999V0202101N004610078019N0150001N1+00961+00631101871ADDAY161031AY221031GA1071+007809069GF108991071051008001999999MA1999999100701MD1310121+9999MW1611REMSYN088AAXX  07094 10640 41565 82109 10096 20063 30070 40187 53012 76162 875// 333 87626 91115;
0215106400999992000020712004+50120+008730FM-12+011299999V0202301N004612200019N0350001N1+01031+00191102021ADDAY111061AY251061GA1011+007809089GA2031+012009069GF104991041081008001031011MA1999999100851MD1210151+9999MW1011REMSYN094AAXX  07124 10640 41581 42309 10103 20019 30085 40202 52015 70115 84831 333 81826 83640 91116;
0204106400999992000020715004+50120+008730FM-12+011299999V0202301N004610300019N0400001N1+01021+00021101971ADDGA1041+012009069GA2031+030009039GF106991041051012501031011MA1999999100801MD1510051+9999OA149900881REMSYN094AAXX  07154 10640 42682 62309 10102 20002 30080 40197 55005 84531 333 84640 83360 91117 91212;
0248106400999992000020718004+50120+008730FM-12+011299999V0202001N004110129019N0250001N1+00921+00191101861ADDAY121061AY221061GA1071+012909069GF108991071051012501999999KA1120M+01161KA2120N+00901MA1999999100691MD1710111+9999MW1601OA149900881REMSYN106AAXX  07184 10640 41675 82008 10092 20019 30069 40186 57011 76022 875// 333 10116 20090 87643 91117 91212;
0262106400999992000020806004+50120+008730FM-12+011299999V0202001N004110090019N0200001N1+00981+00581100131ADDAA124001291AY161061AY221061GA1051+009009069GF108991081051008001999999GJ101449KA1120M+00981KA2120N+00741MA1999999101291MD1710071+9999MW1611REMSYN112AAXX  08064 10640 41570 82008 10098 20058 30129 40013 57007 76162 885// 333 10098 20074 55024 70012 85630 87640;
0245106400999992000020812004+50120+008730FM-12+011299999V0202001N004610060019N0150001N1+01021+00631100992ADDAY161061AY221061GA1081+006009069GF108991081051008001999999MA1999999099832MD1810271+9999MW1611OA149900981REMSYN094AAXX  08124 10640 41565 82009 10102 20063 39983 40099 58027 76162 885// 333 88620 91119 91214;EQDQ01+099833APOSP Q02+100993APOSLP
0228106400999992000020815004+50120+008730FM-12+011299999V0202001N004110060019N0050001N1+01031+00931100421ADDAY161031AY221031GA1081+006009069GF108991081051004501999999MA1999999099271MD1410001+9999MW1591REMSYN088AAXX  08154 10640 41450 82008 10103 20093 39927 40042 57052 75962 885// 333 88620 91115;EQDQ01+000072APCTENQ02+000522APC3  
0292106400999992000020818004+50120+008730FM-12+011299999V0202201N005710060019N0150001N1+01241+01081100511ADDAY161061AY221061GA1021+004509089GA2041+006009069GA3071+007509069GF108991081081004501999999KA1120M+01231KA2120N+00971MA1999999099371MD1210171+9999MW1631OA149900881REMSYN118AAXX  08184 10640 41465 82211 10124 20108 39937 40051 52017 76362 888// 333 10123 20097 82815 84620 87625 91117 91211;
0262106400999992000020906004+50120+008730FM-12+011299999V0202301N005710300019N0200001N1+00541-00021101681ADDAA124012191AY181061AY211061GA1031+013509069GF105991031051012501031001GJ100009KA1120M+01281KA2120N+00461MA1999999100491MD1110211+9999MW1021REMSYN112AAXX  09064 10640 11670 52311 10054 21002 30049 40168 51021 70281 83530 333 10128 20046 55000 70121 83645 84360;
0249106400999992000020909004+50120+008730FM-12+011299999V0202201N002610078019N0200001N1+00321+00101102041ADDAY181031AY261031GA1021+006009099GA2041+007809069GF106991061031008001001001MA1999999100841MD1210351+9999MW1261OA149900981OA259900671REMSYN106AAXX  09094 10640 41570 62205 10032 20010 30084 40204 52035 72686 86300 333 82920 84626 91119 91213 96486;
0232106400999992000020912004+50120+008730FM-12+011299999V0202401N003110120019N0250001N1+00641+00051102261ADDAY181061AY261061GA1041+007809089GA2031+012009069GF106991051081008001001011MA1999999101071MD1210231+9999MW1151OA149900981REMSYN100AAXX  09124 10640 41575 62406 10064 20005 30107 40226 52023 71586 85801 333 84826 83640 91119 91213;
0144106400999992000020915004+50120+008730FM-12+011299999V0202401N004610120019N0200001N1+00691+00041102421ADDGA1031+008409089GF107991071081008001999999MD1210141+9999REMSYN076AAXX  09154 10640 41570 72409 10069 20004 40242 52014 878// 333 83828 85640;
0203106400999992000020918004+50120+008730FM-12+011299999V0202501N00361012001CN0200001N1+00691+00111102641ADDGA1031+008109089GF107991071081008001999999KA1120M+00731KA2120N+00691MA1999999101451MD1210261+9999REMSYN094AAXX  09184 10640 42570 72507 10069 20011 30145 40264 52026 878// 333 10073 20069 83827 85636;
0228106400999992000021006004+50120+008730FM-12+011299999V0201901N002110120019N0200001N1+00471+00111102821ADDAA124000991GA1071+012009059GF107991071051012501999999GJ101689KA1120M+00691KA2120N+00411MA1999999101621MD1810091+9999REMSYN100AAXX  10064 10640 42670 71904 10047 20011 30162 40282 58009 875// 333 10069 20041 55028 70009 87640;
0159106400999992000021012004+50120+008730FM-12+011299999V0202101N005110078019N0180001N1+00801+00181102411ADDGA1051+007809029GF105991051081008001001011MA1999999101231MD1810291+9999REMSYN076AAXX  10124 10640 42568 52110 10080 20018 30123 40241 58029 85801 333 85826;
0165106400999992000021015004+50120+008730FM-12+011299999V0201901N00361220001CN0150001N1+00981+00011101961ADDGA1011+009909089GF106991011081012501001011MA1999999100991MD1710421+9999REMSYN082AAXX  10154 10640 42665 61907 10098 20001 30099 40196 57042 81801 333 81833 86075;
0231106400999992000021018004+50120+008730FM-12+011299999V0202101N002610072019N0100001N1+00761+00251101861ADDAY121061AY221061GA1051+007209069GF107991051061008001031999KA1120M+01011KA2120N+00401MA1999999100681MD1710131+9999MW1601REMSYN100AAXX  10184 10640 41560 72105 10076 20025 30068 40186 57013 76022 8563/ 333 10101 20040 85624 87360;
0273106400999992000021106004+50120+008730FM-12+011299999V0202201N001510120019N0150001N1+00411+00111102851ADDAA112007992AA224007892AY161061AY221061GA1071+012009059GF107991071051012501999999GJ102949KA1120M+00791KA2120N+00291MA1999999101651MD1210341+9999MW1021REMSYN112AAXX  11064 10640 12665 72203 10041 20011 30165 40285 52034 60082 70262 875// 333 10079 20029 55049 70078 87640;
0165106400999992000021109004+50120+008730FM-12+011299999V0202801N001512200019N0200001N1+00521+00001103071ADDGA1011+007809089GF103991031081008001001001MA1999999101871MD1210261+9999REMSYN082AAXX  11094 10640 42570 32803 10052 21000 30187 40307 52026 83800 333 81826 83640;
0138106400999992000021115004+50120+008730FM-12+011299999V0202901N000512200019N0250001N1+00671-00161103151ADDGA1021+012009029GF103991031081012501001001MD1810021+9999REMSYN070AAXX  11154 10640 42675 32901 10067 21016 40315 58002 83800 333 82840;
0216106400999992000021118004+50120+008730FM-12+011299999V0201901N001512200019N0300001N1+00571-00151103191ADDGA1011+015009059GF101991011051017501999001KA1120M+00701KA2120N+00381MA1999999101991MD1110041+9999REMSYN088AAXX  11184 10640 42780 11903 10057 21015 30199 40319 51004 81500 333 10070 20038 81650;EQDQ01    003SCOMCG
0258106400999992000021206004+50120+008730FM-12+011299999V0202301N001012200019N0100001N1-00211-00341102951ADDAA124000091GA1011+001509079GF104991021061001501001011GJ103429IA1149IA2999-00209KA1120M+00571KA2120N-00211MA1999999101721MD1710061+9999REMSYN112AAXX  12064 10640 42260 42302 11021 21034 30172 40295 57006 82601 333 10057 21021 34102 55057 70000 81705 84075;
0159106400999992000021209004+50120+008730FM-12+011299999V0202101N001510108019N0120001N1-00031-00181102741ADDGA1051+010809059GF105991051051012501001011MA1999999101711MD1610021+9999REMSYN076AAXX  12094 10640 42662 52103 11003 21018 30171 40274 56002 85501 333 85636;
0187106400999992000021212004+50120+008730FM-12+011299999V0202101N002110108019N0150001N1+00321-00091102751ADDGA1011+005409089GA2051+010809069GF106991051081008001031011MA1999999101541MD1710171+9999REMSYN088AAXX  12124 10640 42565 62104 10032 21009 30154 40275 57017 85831 333 81818 85636 85075;
0165106400999992000021215004+50120+008730FM-12+011299999V0202101N004112200019N0350001N1+00621-00231102421ADDGA1011+006009089GF103991031081008001031011MA1999999101231MD1710311+9999REMSYN082AAXX  12154 10640 42581 32108 10062 21023 30123 40242 57031 83831 333 81820 91114;
0193106400999992000021218004+50120+008730FM-12+011299999V0202101N005710120019N0200001N1+00511-00011102361ADDAY181061AY221061GA1011+009009089GF107991071081008001999999MA1999999101171MD1710061+9999MW1611REMSYN088AAXX  12184 10640 41570 72111 10051 21001 30117 40236 57006 76182 878// 333 81830 87640;
0301106400999992000021306004+50120+008730FM-12+011299999V0202001N003610045019N0100001N1+00501+00251101971ADDAA124000291AY161061AY221061GA1021+002709089GA2081+004509069GF108991081081002501999999GJ102289KA1120M+00551KA2120N+00441MA1999999100781MD1710191+9999MW1601OA149900671REMSYN124AAXX  13064 10640 11360 82007 10050 20025 30078 40197 57019 76062 888// 333 10055 20044 55038 70002 82809 88615 91113 91111;
0187106400999992000021309004+50120+008730FM-12+011299999V0201901N003110045019N0280001N1+00481+00321101851ADDAY161031AY221031GA1061+004509029GF108991081051004501999999MA1999999100671MD1610111+9999MW1611REMSYN082AAXX  13094 10640 41478 81906 10048 20032 30067 40185 56011 76162 885// 333 86815;
0215106400999992000021312004+50120+008730FM-12+011299999V0202101N004110045019N0150001N1+00581+00391101771ADDAY161061AY261061GA1071+004509069GA2071+006009069GF108991081051004501999999MA1999999100591MD1710081+9999MW1611REMSYN094AAXX  13124 10640 41465 82108 10058 20039 30059 40177 57008 76166 885// 333 87615 87620 91113;
0193106400999992000021315004+50120+008730FM-12+011299999V0202301N00211012001CN0250001N1+00601+00301101861ADDAY161031AY221031GA1021+009009089GF105991051081008001001001MA1999999100691MD1310091+9999MW1011REMSYN088AAXX  13154 10640 41575 52304 10060 20030 30069 40186 53009 70162 85800 333 82830 85645;
0225106400999992000021318004+50120+008730FM-12+011299999V0202201N002612200019N0300001N1+00541+00231102121ADDAY161061AY221061GA1021+009009059GF102991021051008001001011KA1120M+00661KA2120N+00471MA1999999100931MD1210141+9999MW1011REMSYN094AAXX  13184 10640 41580 22205 10054 20023 30093 40212 52014 70162 82501 333 10066 20047 82630;
0253106400999992000021406004+50120+008730FM-12+011299999V0202201N002112200019N0180001N1+00171-00141102631ADDAA124004591GA1021+009009069GF199999011051008001031001GJ100669KA1120M+00541KA2120N+00181MA1999999101421MD1210011+9999REMSYN106AAXX  14064 10640 42568 12204 10017 21014 30142 40263 52001 81530 333 10054 20018 55011 70045 82630 91130;EQDQ01+000012SCOTCV
0159106400999992000021409004+50120+008730FM-12+011299999V0202301N002110120019N0250001N1+00171-00141102731ADDGA1061+012009059GF106991061051012501001001MA1999999101521MD1210101+9999REMSYN076AAXX  14094 10640 42675 62304 10017 21014 30152 40273 52010 86500 333 86640;
0165106400999992000021412004+50120+008730FM-12+011299999V0202301N002610300019N0300001N1+00621-00051102651ADDGA1021+012009089GF105991041081012501031011MA1999999101451MD1710071+9999REMSYN082AAXX  14124 10640 42680 52305 10062 21005 30145 40265 57007 84831 333 82840 83647;
0153106400999992000021415004+50120+008730FM-12+011299999V0202201N002612200019N0300001N1+99999+99999102441ADDGA1011+012009029GF102991011011012501031011MA1999999101251MD1710181+9999REMSYN070AAXX  14154 10640 42680 22205 21018 30125 40244 57018 81131 333 81840;
0197106400999992000021418004+50120+008730FM-12+011299999V0201901N002610270019N0300001N1+00481+00041102321ADDGA1051+027009079GF105991051001999999051011KA1120M+00761KA2120N+00131MA1999999101121MD1710141+9999REMSYN088AAXX  14184 10640 42980 51905 10048 20004 30112 40232 57014 85051 333 10076 20013 85359;
0284106400999992000021506004+50120+008730FM-12+011299999V0202401N002610051019N0140001N1+00751+00581101711ADDAA124004891AY161061AY221061GA1021+003609079GA2041+005109069GF107991071051004501999999GJ104149KA1120M+00751KA2120N+00581MA1999999100531MD1110111+9999MW1211REMSYN118AAXX  15064 10640 11464 72405 10075 20058 30053 40171 51011 72162 875// 333 10075 20058 55069 70048 82712 84617 87635;
0187106400999992000021509004+50120+008730FM-12+011299999V0202201N002110300019N0180001N1+00841+00581101801ADDAY161031AY211031GA1041+009909059GF105991041051012501031001MA1999999100631MD1110101+9999MW1031REMSYN082AAXX  15094 10640 41668 52204 10084 20058 30063 40180 51010 70361 84530 333 84633;
0215106400999992000021512004+50120+008730FM-12+011299999V0202401N004610120019N0300001N1+01101+00461101751ADDAY161061AY211061GA1031+007809089GA2041+012009069GF106991061081008001001001MA1999999100601MD1810031+9999MW1031REMSYN094AAXX  15124 10640 41580 62409 10110 20046 30060 40175 58003 70361 86800 333 83826 84640 91113;
0187106400999992000021515004+50120+008730FM-12+011299999V0202301N004610138019N0400001N1+01151+00471101511ADDGA1021+007509089GA2051+013809069GF106991051081008001001011MA1999999100351MD1710251+9999REMSYN088AAXX  15154 10640 42582 62309 10115 20047 30035 40151 57025 85801 333 82825 85646 91114;
0270106400999992000021518004+50120+008730FM-12+011299999V0202501N003610150019N0350001N1+00921+00411101471ADDAY121061AY221061GA1031+007509089GA2051+015009069GF106991051081008001001011KA1120M+01261KA2120N+00691MA1999999100301MD1510051+9999MW1801OA149900721REMSYN112AAXX  15184 10640 41581 62507 10092 20041 30030 40147 55005 78022 85801 333 10126 20069 83825 85650 91114 91211;
0262106400999992000021606004+50120+008730FM-12+011299999V0202201N00361004201CN0150001N1+00531+00441100091ADDAA124007391AY161061AY221061GA1031+003609069GF108991081051004501999999GJ102469KA1120M+00921KA2120N+00491MA1999999098921MD1710411+9999MW1631REMSYN112AAXX  16064 10640 41465 82207 10053 20044 39892 40009 57041 76362 885// 333 10092 20049 55041 70073 83612 87635;
0237106400999992000021609004+50120+008730FM-12+011299999V0202501N004110120019N0400001N1+00451+00121100421ADDAY181031AY261031GA1011+006009099GA2031+007809089GA3051+012009069GF106991061031008001001001MA1999999099251MD1210331+9999MW1251REMSYN100AAXX  16094 10640 41582 62508 10045 20012 39925 40042 52033 72586 86300 333 81920 83826 85640 91114;
0210106400999992000021612004+50120+008730FM-12+011299999V0202501N005712200019N0400001N1+00571-00471100651ADDAY181061AY261061GA1041+007809089GF104991041021008001001001MA1999999099481MD1010231+9999MW1011OA149900881REMSYN094AAXX  16124 10640 41582 42511 10057 21047 39948 40065 50023 70186 84200 333 84826 91117 91212;
0215106400999992000021615004+50120+008730FM-12+011299999V0202401N00461030001CN0100001N1+00551+00551100561ADDAY181031AY221031GA1031+001809079GA2011+002709089GF108991041081001501051999MA1999999099391MD1710101+9999MW1021REMSYN094AAXX  16154 10640 41260 82409 10055 20055 39939 40056 57010 70282 8485/ 333 83706 81809 87615;
0231106400999992000021618004+50120+008730FM-12+011299999V0202901N00211006001CN0100001N1+00201-00081100621ADDAY181061AY271061GA1031+001809089GF106991061081001501031999KA1120M+00691KA2120N+00131MA1999999099431MD1210061+9999MW1231REMSYN100AAXX  16184 10640 41260 62904 10020 21008 39943 40062 52006 72387 8683/ 333 10069 20013 83806 85615;
0276106400999992000021706004+50120+008730FM-12+011299999V0202301N003610048019N0100001N1+00161+00031100401ADDAA124002691AY171061GA1021+002409079GA2071+004809069GF107991071051004501999999GJ101989KA1120M+00211KA2120N+00041MA1999999099211MD1110051+9999MW1221REMSYN118AAXX  17064 10640 41460 72307 10016 20003 39921 40040 51005 7227/ 875// 333 10021 20004 55033 70026 82708 87616 91213;
0187106400999992000021709004+50120+008730FM-12+011299999V0202401N002610078019N0180001N1+00231-00111100541ADDAY171031AY211031GA1071+007809029GF107991071021008001011011MA1999999099351MD1310141+9999MW1151REMSYN082AAXX  17094 10640 41568 72405 10023 21011 39935 40054 53014 71571 87211 333 87826;
0193106400999992000021712004+50120+008730FM-12+011299999V0202701N003110120019N0300001N1+00351-00091100781ADDAY171061AY211061GA1041+007809089GF106991051081008001031001MA1999999099601MD1210251+9999MW1021REMSYN088AAXX  17124 10640 41580 62706 10035 21009 39960 40078 52025 70271 85830 333 84826 83640;
0193106400999992000021715004+50120+008730FM-12+011299999V0202601N002610075019N0300001N1+00371-00021100971ADDAY121031AY221031GA1011+006009099GF106991051091008001031011MA1999999099791MD1210251+9999MW1151REMSYN088AAXX  17154 10640 41580 62605 10037 21002 39979 40097 52025 71522 85931 333 81920 85825;
0203106400999992000021718004+50120+008730FM-12+011299999V0202801N00261007501CN0300001N1+00361-00101101331ADDGA1031+006009069GF106991061051008001999999KA1120M+00471KA2120N+00131MA1999999100141MD1210271+9999REMSYN094AAXX  17184 10640 42580 62805 10036 21010 30014 40133 52027 865// 333 10047 20013 83620 86630;
0228106400999992000021806004+50120+008730FM-12+011299999V0201901N002610300019N0150001N1+00171-00201101371ADDAA124999929GA1081+030009079GF108991081001999999071999GJ100309KA1120M+00371KA2120N+00071MA1999999100171MD1710191+9999REMSYN100AAXX  18064 10640 42965 81905 10017 21020 30017 40137 57019 8807/ 333 10037 20007 55005 79999 88360;
0171106400999992000021809004+50120+008730FM-12+011299999V0201801N004110006019N0009001N1+00061-00031101151ADDAY171031AY241031GA1091+999999999GF109991091999999999999999MA1999999099951MD1810221+9999MW1751REMSYN066AAXX  18094 10640 41109 91808 10006 21003 39995 40115 58022 77574;
0187106400999992000021815004+50120+008730FM-12+011299999V0202001N003610027019N0040001N1+00191+00081100491ADDAY171031AY261031GA1081+002709059GF108991081051002501999999MA1999999099301MD1710291+9999MW1681REMSYN082AAXX  18154 10640 41340 82007 10019 20008 39930 40049 57029 76876 885// 333 88609;
0231106400999992000021818004+50120+008730FM-12+011299999V0202301N001010027019N0050001N1+00311+00221100491ADDAY161061AY271061GA1051+002709079GF108991081051002501999999KA1120M+00311KA2120N+00051MA1999999099311MD1410001+9999MW1231REMSYN100AAXX  18184 10640 41350 82302 10031 20022 39931 40049 54000 72367 885// 333 10031 20005 85709 87615;
0284106400999992000021906004+50120+008730FM-12+011299999V0202201N002610120019N0200001N1+00521+00261100391ADDAA124006091AY161061AY221061GA1031+006009069GA2051+012009069GF107991061051008001071999GJ100009KA1120M+00541KA2120N+00301MA1999999099221MD1210031+9999MW1601REMSYN118AAXX  19064 10640 41570 72205 10052 20026 39922 40039 52003 76062 8657/ 333 10054 20030 55000 70060 83620 85640 87360;
0187106400999992000021912004+50120+008730FM-12+011299999V0202701N002610060019N0250001N1+00691+00231100771ADDGA1021+004509089GA2041+006009069GF106991061081004501031999MA1999999099601MD1210241+9999REMSYN088AAXX  19124 10640 42475 62705 10069 20023 39960 40077 52024 8683/ 333 82815 84620 85359;
0165106400999992000021915004+50120+008730FM-12+011299999V0202801N00311012001CN0250001N1+00671+00141100961ADDGA1031+006009089GF107991071081008001999999MA1999999099791MD1210191+9999REMSYN082AAXX  19154 10640 42575 72806 10067 20014 39979 40096 52019 878// 333 83820 86635;
0203106400999992000021918004+50120+008730FM-12+011299999V0202801N00311012001CN0200001N1+00541+00001101121ADDGA1021+009009089GF106991061081008001001001KA1120M+00721KA2120N+00481MA1999999099941MD1210141+9999REMSYN094AAXX  19184 10640 42570 62806 10054 21000 39994 40112 52014 86800 333 10072 20048 82830 86645;
0262106400999992000022006004+50120+008730FM-12+011299999V0203201N00261012001CN0200001N1+00361-00101102141ADDAA124000791AY161061AY221061GA1011+006009089GF108991071081008001999999GJ100549KA1120M+00541KA2120N+00361MA1999999100941MD1210361+9999MW1211REMSYN112AAXX  20064 10640 11570 83205 10036 21010 30094 40214 52036 72162 878// 333 10054 20036 55009 70007 81820 87624;
0193106400999992000022009004+50120+008730FM-12+011299999V0203401N00261007501CN0100001N1+00341-00141102441ADDAY161031AY221031GA1031+007209069GF107991071051008001999999MA1999999101241MD1210361+9999MW1211REMSYN088AAXX  20094 10640 41560 73405 10034 21014 30124 40244 52036 72162 875// 333 83624 87640;
0215106400999992000022012004+50120+008730FM-12+011299999V0203401N004110120019N0200001N1+00451-00451102711ADDAY161061AY221061GA1021+009009069GA2061+012009069GF106991061051008001031999MA1999999101511MD1210281+9999MW1011REMSYN094AAXX  20124 10640 41570 63408 10045 21045 30151 40271 52028 70162 8653/ 333 82630 86640 91114;
0159106400999992000022015004+50120+008730FM-12+011299999V0203401N003110126019N0200001N1+00501-00471102831ADDGA1051+012609059GF106991051051012501001011MA1999999101631MD1210111+9999REMSYN076AAXX  20154 10640 41670 63406 10050 21047 30163 40283 52011 85501 333 85642;
0197106400999992000022018004+50120+008730FM-12+011299999V0203301N001012200019N0200001N1+00361-00501102991ADDGA1031+012609059GF103991031051012501001011KA1120M+00551KA2120N+00271MA1999999101781MD1210171+9999REMSYN088AAXX  20184 10640 41670 33302 10036 21050 30178 40299 52017 83501 333 10055 20027 83642;
0228106400999992000022106004+50120+008730FM-12+011299999V0201501N000512200019N0200001N1-00131-00301103131ADDAA124999929GA1031+012009059GF103991031051012501001001GJ101089KA1120M+00381KA2120N-00131MA1999999101901MD1710021+9999REMSYN100AAXX  21064 10640 42670 31501 11013 21030 30190 40313 57002 83500 333 10038 21013 55018 79999 83640;
0159106400999992000022109004+50120+008730FM-12+011299999V0209999C000010078019N0150001N1-00011-00201103271ADDGA1071+007809059GF108991071051008001999999MA1999999102041MD1210141+9999REMSYN076AAXX  21094 10640 42565 80000 11001 21020 30204 40327 52014 875// 333 87626;
0187106400999992000022115004+50120+008730FM-12+011299999V0201801N00051030001CN0170001N1+00491-00301103041ADDGA1011+007509089GA2031+030009039GF106991031081008001031011MA1999999101841MD1710161+9999REMSYN088AAXX  21154 10640 42567 61801 10049 21030 30184 40304 57016 83831 333 81825 83360 85074;
0203106400999992000022118004+50120+008730FM-12+011299999V0202001N001510300019N0170001N1+00391-00211103041ADDGA1021+012009069GF106991021051012501031011KA1120M+00511KA2120N-00141MA1999999101831MD1510011+9999REMSYN094AAXX  21184 10640 42667 62003 10039 21021 30183 40304 55001 82531 333 10051 21014 82640 84360;
0262106400999992000022206004+50120+008730FM-12+011299999V0202101N00151030001CN0120001N1+00191-00071102771ADDAA124999929AY171061AY251061GA1041+010509069GF107991041051012501071999GJ102049KA1120M+00411KA2120N+00131MA1999999101561MD1810041+9999MW1501REMSYN112AAXX  22064 10640 11662 72103 10019 21007 30156 40277 58004 75075 8457/ 333 10041 20013 55034 79999 84635 87359;
0193106400999992000022209004+50120+008730FM-12+011299999V0202101N001010300019N0100001N1+00241-00041102771ADDAY171031AY251031GA1041+007809069GF107991041051008001071999MA1999999101561MD1510001+9999MW1221REMSYN088AAXX  22094 10640 41560 72102 10024 21004 30156 40277 55000 72275 8457/ 333 84626 87360;
0193106400999992000022212004+50120+008730FM-12+011299999V0202301N002110300019N0100001N1+00511-00011102701ADDAY171061AY251061GA1031+007809069GF107991031051008001071999MA1999999101501MD1810061+9999MW1021REMSYN088AAXX  22124 10640 41560 72304 10051 21001 30150 40270 58006 70275 8357/ 333 83626 87360;
0165106400999992000022215004+50120+008730FM-12+011299999V0202201N001510078019N0100001N1+00581+00101102621ADDGA1051+007809069GF107991051051008001071999MA1999999101431MD1710071+9999REMSYN082AAXX  22154 10640 42560 72203 10058 20010 30143 40262 57007 8557/ 333 85626 87459;
0203106400999992000022218004+50120+008730FM-12+011299999V0202101N00151007501CN0100001N1+00531+00091102671ADDGA1041+007809069GF107991071051008001999999KA1120M+00581KA2120N+00181MA1999999101461MD1510011+9999REMSYN094AAXX  22184 10640 42560 72103 10053 20009 30146 40267 55001 875// 333 10058 20018 84626 87650;
0262106400999992000022306004+50120+008730FM-12+011299999V0209999C00001007501CN0120001N1+00121-00011102761ADDAA124000191AY161061AY221061GA1041+006909069GF107991071051008001999999GJ100489KA1120M+00531KA2120N+00081MA1999999101541MD1210031+9999MW1021REMSYN112AAXX  23064 10640 41562 70000 10012 21001 30154 40276 52003 70262 875// 333 10053 20008 55008 70001 84623 87650;
0187106400999992000022309004+50120+008730FM-12+011299999V0200801N000510120019N0040001N1+00231+00071102851ADDAY121031AY221031GA1071+012009059GF108991071051012501999999MA1999999101641MD1210101+9999MW1101REMSYN082AAXX  23094 10640 41640 80801 10023 20007 30164 40285 52010 71022 875// 333 87640;
0195106400999992000022312004+50120+008730FM-12+011299999V0202201N002110300019N0100001N1+00671+00091102801ADDAA199000091GA1031+013809069GF106991031051012501031001MA1999999101611MD1810031+9999REMSYN082AAXX  23124 10640 32660 62204 10067 20009 30161 40280 58003 83530 333 83646 83360;EQDQ01  00002PRCP99
0165106400999992000022315004+50120+008730FM-12+011299999V0202001N001510300019N0200001N1+00771+00161102701ADDGA1021+006009089GF106991021081004501031001MA1999999101511MD1710091+9999REMSYN082AAXX  23154 10640 42470 62003 10077 20016 30151 40270 57009 82830 333 82820 86360;
0197106400999992000022318004+50120+008730FM-12+011299999V0201801N001510093019N0120001N1+00691+00131102761ADDGA1061+009309059GF106991061051008001999999KA1120M+00821KA2120N+00111MA1999999101571MD1310051+9999REMSYN088AAXX  23184 10640 42562 61803 10069 20013 30157 40276 53005 865// 333 10082 20011 86631;
0248106400999992000022406004+50120+008730FM-12+011299999V0201901N002610120019N0100001N1+00641-00041102611ADDAA124999929AY121061GA1071+012009059GF107991071051012501999999GJ102229KA1120M+00691KA2120N+00581MA1999999101411MD1610091+9999MW1201REMSYN106AAXX  24064 10640 41660 71905 10064 21004 30141 40261 56009 7202/ 875// 333 10069 20058 55037 79999 87640;
0193106400999992000022409004+50120+008730FM-12+011299999V0202001N00411004201CN0090001N1+00501+00261102611ADDAY161031AY221031GA1041+003009079GF108991081051004501999999MA1999999101411MD1010001+9999MW1611REMSYN088AAXX  24094 10640 41459 82008 10050 20026 30141 40261 50000 76162 885// 333 84710 88620;
0215106400999992000022412004+50120+008730FM-12+011299999V0202101N004110060019N0020001N1+00541+00401102581ADDAY161061AY221061GA1041+003009079GA2081+006009069GF108991081051004501999999MA1999999101381MD1810031+9999MW1611REMSYN094AAXX  24124 10640 41420 82108 10054 20040 30138 40258 58003 76162 885// 333 84710 88620 91114;
0193106400999992000022415004+50120+008730FM-12+011299999V0202001N003110054019N0090001N1+00631+00491102541ADDAY161031AY221031GA1071+005409069GF108991081051004501999999MA1999999101351MD1510031+9999MW1021REMSYN088AAXX  24154 10640 41459 82006 10063 20049 30135 40254 55003 70262 885// 333 87618 91113;
0253106400999992000022418004+50120+008730FM-12+011299999V0202101N002110045019N0050001N1+00701+00541102581ADDAY151061AY221061GA1031+001809079GA2081+004509079GF108991081071001501999999KA1120M+00701KA2120N+00491MA1999999101391MD1310041+9999MW1201REMSYN106AAXX  24184 10640 41250 82104 10070 20054 30139 40258 53004 72052 887// 333 10070 20049 83706 88715 91113;
0301106400999992000022506004+50120+008730FM-12+011299999V0202101N006210090019N0130001N1+01001+00751101811ADDAA124001791AY161061AY221061GA1031+004509089GA2071+009009069GF107991071081004501999999GJ100009KA1120M+01011KA2120N+00681MA1999999100641MD1710221+9999MW1211OA149900931REMSYN124AAXX  25064 10640 41463 72112 10100 20075 30064 40181 57022 72162 878// 333 10101 20068 55000 70017 83815 87630 91118 91212;
0232106400999992000022509004+50120+008730FM-12+011299999V0202401N004610030019N0090001N1+00991+00821102031ADDAY161031AY221031GA1051+003009079GA2081+006009069GF108991081051004501999999MA1999999100841MD1310201+9999MW1631OA149900981REMSYN100AAXX  25094 10640 41459 82409 10099 20082 30084 40203 53020 76362 885// 333 85710 88620 91119 91214;
0232106400999992000022512004+50120+008730FM-12+011299999V0203101N005110300019N0300001N1+00781+00221102571ADDAY161061AY221061GA1031+006009089GA2041+012009069GF106991041081008001031001MA1999999101381MD1210521+9999MW1021OA149900981REMSYN100AAXX  25124 10640 41580 63110 10078 20022 30138 40257 52052 70262 84830 333 83820 84640 91119 91214;
0203106400999992000022518004+50120+008730FM-12+011299999V0202401N002612200019N0250001N1+00651+00121103181ADDGA1011+010509069GF101991011051012501001001KA1120M+01041KA2120N+00641MA1999999101981MD1210481+9999REMSYN094AAXX  25184 10640 42675 12405 10065 20012 30198 40318 52048 81500 333 10104 20064 81635 91119;
0216106400999992000022606004+50120+008730FM-12+011299999V0200301N001012200019N0120001N1-00031-00161103471ADDAA124002591GA1001+999999999GF100991001001999999001001GJ101749KA1120M+00691KA2120N-00071MA1999999102251MD1110031+9999REMSYN088AAXX  26064 10640 42962 00302 11003 21016 30225 40347 51003 333 10069 21007 55029 70026;
0159106400999992000022609004+50120+008730FM-12+011299999V0209999V000510750019N0100001N1+00291-00061103531ADDGA1061+075009019GF106991001001999999001021MA1999999102311MD1210061+9999REMSYN076AAXX  26094 10640 42960 69901 10029 21006 30231 40353 52006 80002 333 86075;
0159106400999992000022612004+50120+008730FM-12+011299999V0201301N000512200019N0300001N1+00781-00091103391ADDGA1021+007509029GF102991021011999999001021MA1999999102201MD1710081+9999REMSYN076AAXX  26124 10640 42980 21301 10078 21009 30220 40339 57008 82102 333 82825;
0159106400999992000022615004+50120+008730FM-12+011299999V0203601N001010750019N0250001N1+00911-00231103271ADDGA1051+075009019GF105991001001999999001021MA1999999102081MD1810121+9999REMSYN076AAXX  26154 10640 42975 53602 10091 21023 30208 40327 58012 80002 333 85075;
0197106400999992000022618004+50120+008730FM-12+011299999V0200301N001010750019N0210001N1+00701-00241103281ADDGA1051+075009019GF105991001001999999001021KA1120M+00941KA2120N-00121MA1999999102081MD1510001+9999REMSYN088AAXX  26184 10640 42971 50302 10070 21024 30208 40328 55000 80002 333 10094 21012 85075;
0235106400999992000022706004+50120+008730FM-12+011299999V0200701N001012200019N0150001N1-00021-00201103171ADDAA124000091GA1001+999999999GF100991001001999999001001GJ104989KA1120M+00701KA2120N-00041MA1999999101941MD1610041+9999REMSYN088AAXX  27064 10640 42965 00702 11002 21020 30194 40317 56004 333 10070 21004 55083 70000;EQDQ01  00002PRCP24
0159106400999992000022709004+50120+008730FM-12+011299999V0200901N000512200019N0150001N1+00301-00051103151ADDGA1011+012009059GF101991011051012501001011MA1999999101941MD1410001+9999REMSYN076AAXX  27094 10640 42665 10901 10030 21005 30194 40315 54000 81501 333 81640;
0165106400999992000022712004+50120+008730FM-12+011299999V0201901N002612200019N0250001N1+00971+00271102961ADDGA1011+009009089GF103991011011008001001011MA1999999101781MD1710161+9999REMSYN082AAXX  27124 10640 42575 31905 10097 20027 30178 40296 57016 81101 333 81830 84075;
0159106400999992000022715004+50120+008730FM-12+011299999V0201801N002612200019N0250001N1+01201+00311102741ADDGA1041+075009019GF104991001001999999001011MA1999999101571MD1710211+9999REMSYN076AAXX  27154 10640 42975 41805 10120 20031 30157 40274 57021 80001 333 84075;
0133106400999992000022718004+50120+008730FM-12+011299999V0201901N002112200019N0200001N1+01111+00371102631ADDGF103991021001999999031011MA1999999101461MD1110111+9999REMSYN066AAXX  27184 10640 42970 31904 10111 20037 30146 40263 51011 82031;
0252106400999992000022806004+50120+008730FM-12+011299999V0202201N001012200019N0200001N1+00231+00091102011ADDAA124000091GA1021+030009079GF102991021001999999031011GJ105049IA1099IA2999+00209KA1120M+01111KA2120N+00231MA1999999100811MD1710141+9999REMSYN106AAXX  28064 10640 42970 22202 10023 20009 30081 40201 57014 82031 333 10111 20023 31002 55084 70000 82360;
0163106400999992000022809004+50120+008730FM-12+011299999V0202101N002112200019N0180001N1+00981+00381101871ADDGA1011+030009079GF102991011001999999031011MD1810111+9999REMSYN076AAXX  28094 10640 42968 22104 10098 20038 31007 40187 58011 81031 333 81360;EQDQ01+010071APOSP 
0159106400999992000022815004+50120+008730FM-12+011299999V0202101N005110120019N0200001N1+01601+00561101521ADDGA1061+012009059GF106991061051012501999999MA1999999100381MD1710151+9999REMSYN076AAXX  28154 10640 42670 62110 10160 20056 30038 40152 57015 865// 333 86640;
0231106400999992000022818004+50120+008730FM-12+011299999V0202301N006710120019N0150001N1+01301+00601101731ADDAY121061AY211061GA1051+012009069GF107991051051012501071999KA1120M+01631KA2120N+00231MA1999999100581MD1210051+9999MW1611REMSYN100AAXX  28184 10640 41665 72313 10130 20060 30058 40173 52005 76121 8557/ 333 10163 20023 85640 87360;
0262106400999992000022906004+50120+008730FM-12+011299999V0201801N002110750019N0280001N1+00581+00341102151ADDAA124000891AY181061AY211061GA1021+012009069GF105991021051012501001021GJ103369KA1120M+01291KA2120N+00561MA1999999100961MD1810091+9999MW1921REMSYN112AAXX  29064 10640 41678 51804 10058 20034 30096 40215 58009 79281 82502 333 10129 20056 55056 70008 82640 85075;
0159106400999992000022909004+50120+008730FM-12+011299999V0202001N003110099019N0150001N1+00791+00451101951ADDGA1071+009909059GF107991071051012501999999MA1999999100771MD1710191+9999REMSYN076AAXX  29094 10640 42665 72006 10079 20045 30077 40195 57019 875// 333 87633;
0198106400999992000022912004+50120+008730FM-12+011299999V0201901N004610300019N0250001N1+00891+00411101601ADDAA199000021GA1031+007809089GA2081+030009049GF108991031021008001011999MA1999999100431MD1810341+9999REMSYN088AAXX  29124 10640 32575 81909 10089 20041 30043 40160 58034 8321/ 333 83826 88460 91113;
0237106400999992000022915004+50120+008730FM-12+011299999V0201901N004610120019N0250001N1+00791+00201101181ADDAY121031AY221031GA1021+007809089GA2041+012009069GA3081+030009049GF108991081071008001999999MA1999999100011MD1710111+9999MW1251REMSYN100AAXX  29154 10640 41575 81909 10079 20020 30001 40118 57011 72522 887// 333 82826 84640 88460 91113;
0253106400999992000022918004+50120+008730FM-12+011299999V0201801N003110099019N0200001N1+00731+00441100731ADDAY161061AY221061GA1041+007209069GA2081+009909069GF108991071051008001999999KA1120M+00961KA2120N+00581MA1999999099561MD1710461+9999MW1601REMSYN106AAXX  29184 10640 41570 81806 10073 20044 39956 40073 57046 76062 875// 333 10096 20058 84624 88633 91113;
0301106400999992000030106004+50120+008730FM-12+011299999V0202101N004110135019N0250001N1+00761+00321100251ADDAA124004091AY161061AY221061GA1021+009009069GA2071+013509069GF107991071051008001999999GJ100369KA1120M+00801KA2120N+00701MA1999999099091MD1310021+9999MW1021OA149900671REMSYN124AAXX  01064 10640 41575 72108 10076 20032 39909 40025 53002 70262 875// 333 10080 20070 55006 70040 82630 87645 91113 91211;
0215106400999992000030109004+50120+008730FM-12+011299999V0202301N00311030001CN0350001N1+00801+00171100441ADDAY161031AY221031GA1011+007809089GA2031+030009039GF108991031081008001031021MA1999999099291MD1210201+9999MW1031REMSYN094AAXX  01094 10640 41581 82306 10080 20017 39929 40044 52020 70362 83832 333 81826 83360 88074;
0237106400999992000030115004+50120+008730FM-12+011299999V0202401N001510078019N0250001N1+00571+00251100431ADDAY161031AY221031GA1011+003909089GA2051+007809089GA3071+027009039GF107991051081004501031999MA1999999099261MD1310041+9999MW1251REMSYN100AAXX  01154 10640 41475 72403 10057 20025 39926 40043 53004 72562 8583/ 333 81813 85826 87359 91116;
0272106400999992000030118004+50120+008730FM-12+011299999V0203101N002610084019N0250001N1+00581+00061100821ADDAY181061AY261061GA1021+004809089GA2071+008409069GF107991071081004501999999KA1120M+00861KA2120N+99999MA1999999099651MD1210391+9999MW1601REMSYN106AAXX  01184 10640 41475 73105 10058 20006 39965 40082 52039 76086 878// 333 10086 20070 82816 87628 91116;EQDQ01 +00702ATMN  
0315106400999992000030206004+50120+008730FM-12+011299999V0202501N002610099019N0250001N1+00361-00041102221ADDAA124000591AY151061AY221061GA1021+009009089GA2041+009909069GA3061+012909069GF106991061081008001001001KA1120M+00591KA2120N+00361MA1999999101021MD1210321+9999MW1021OA149900881REMSYN130AAXX  02064 10640 41575 62505 10036 21004 30102 40222 52032 70252 86800 333 10059 20036 50002 70005 82830 84633 86643 91117 91211;
0159106400999992000030209004+50120+008730FM-12+011299999V0202801N003112200019N0350001N1+00451-00171102511ADDGA1031+006909029GF103991031021008001001011MA1999999101311MD1210291+9999REMSYN076AAXX  02094 10640 42581 32806 10045 21017 30131 40251 52029 83201 333 83823;
0193106400999992000030212004+50120+008730FM-12+011299999V0202401N00361007501CN0250001N1+00571-00201102491ADDAY181061AY211061GA1021+006009099GF106991061031008001001001MA1999999101301MD1810011+9999MW1251REMSYN088AAXX  02124 10640 41575 62407 10057 21020 30130 40249 58001 72581 86300 333 82920 84826;
0187106400999992000030215004+50120+008730FM-12+011299999V0202301N002610750019N0500001N1+00691-00301102371ADDGA1021+009009089GA2041+012009089GF106991041021008001001021MA1999999101181MD1710111+9999REMSYN088AAXX  02154 10640 42584 62305 10069 21030 30118 40237 57011 84202 333 82830 84840 91113;
0225106400999992000030218004+50120+008730FM-12+011299999V0202101N00411013501CN0300001N1+00581-00011102231ADDGA1021+012009089GA2031+013509069GF107991041041012501001011KA1120M+00721KA2120N+00361MA1999999101041MD1710131+9999REMSYN100AAXX  02184 10640 42680 72108 10058 21001 30104 40223 57013 84401 333 10072 20036 82840 83645 91113;
0262106400999992000030306004+50120+008730FM-12+011299999V0202101N005710060019N0300001N1+00651+00201101171ADDAA124000391AY161061AY221061GA1071+006009069GF108991071051004501999999GJ102709KA1120M+00651KA2120N+00521MA1999999100001MD1710201+9999MW1211REMSYN112AAXX  03064 10640 41480 82111 10065 20020 30000 40117 57020 72162 875// 333 10065 20052 55045 70003 87620 91115;
0210106400999992000030309004+50120+008730FM-12+011299999V0202101N007210060019N0160001N1+00731+00341100871ADDAY161031AY221031GA1081+006009069GF108991081051008001999999MA1999999099701MD1810301+9999MW1211OA149901181REMSYN094AAXX  03094 10640 41566 82114 10073 20034 39970 40087 58030 72162 885// 333 88620 91123 91216;
0210106400999992000030312004+50120+008730FM-12+011299999V0202101N007710078019N0180001N1+00781+00341100721ADDAY161061AY221061GA1071+007809069GF108991071051008001999999MA1999999099561MD1810141+9999MW1211OA149901291REMSYN094AAXX  03124 10640 41568 82115 10078 20034 39956 40072 58014 72162 875// 333 87626 91125 91218;
0232106400999992000030315004+50120+008730FM-12+011299999V0202001N006210060019N0300001N1+00831+00511100701ADDAY161031AY221031GA1041+005109069GA2081+006009069GF108991081051004501999999MA1999999099541MD1710171+9999MW1211OA149901291REMSYN100AAXX  03154 10640 41480 82012 10083 20051 39954 40070 57017 72162 885// 333 84617 88620 91125 91217;
0292106400999992000030318004+50120+008730FM-12+011299999V0203601N001510039019N0050001N1+00451+00281100951ADDAY161061AY221061GA1041+003309079GA2061+003909069GA3081+005109069GF108991081051004501999999KA1120M+00871KA2120N+00451MA1999999099781MD1310241+9999MW1631OA149901291REMSYN118AAXX  03184 10640 11450 83603 10045 20028 39978 40095 53024 76362 885// 333 10087 20045 84711 86613 88617 91125 91218;
0262106400999992000030406004+50120+008730FM-12+011299999V0202701N00261009001CN0300001N1+00311+00011101511ADDAA124018691AY161061AY221061GA1011+003909089GF106991061081004501001001GJ100009KA1120M+00471KA2120N+00311MA1999999100321MD1210411+9999MW1211REMSYN112AAXX  04064 10640 41480 62705 10031 20001 30032 40151 52041 72162 86800 333 10047 20031 55000 70186 81813 86625;
0159106400999992000030409004+50120+008730FM-12+011299999V0202901N00361009001CN0300001N1+00391-00271102001ADDGA1041+004809029GF106991051081004501031001MA1999999100801MD1210481+9999REMSYN076AAXX  04094 10640 42480 62907 10039 21027 30080 40200 52048 85830 333 84816;
0253106400999992000030418004+50120+008730FM-12+011299999V0202901N003610300019N0300001N1+00191-00341102561ADDAY181061AY211061GA1011+003009089GA2031+007509069GF105991031081004501031011KA1120M+00521KA2120N+00091MA1999999101351MD1210221+9999MW1011REMSYN106AAXX  04184 10640 41480 52907 10019 21034 30135 40256 52022 70181 83831 333 10052 20009 81810 83625 85360;
0256106400999992000030506004+50120+008730FM-12+011299999V0202301N003119999999N0300001N1+00041-00291103291ADDAA124000691AY181061AY211061GA1011+007509089GF105991999999008001999999GJ103909KA1120M+00221KA2120N+00011MA1999999102061MD1210121+9999MW1261REMSYN106AAXX  05064 10640 11580 52306 10004 21029 30206 40329 52012 72681 333 10022 20001 55065 70006 81825 83650;
0165106400999992000030509004+50120+008730FM-12+011299999V0202601N002610300019N0300001N1+00291-00291103421ADDGA1031+007509089GF105991041081012501031011MA1999999102201MD1210201+9999REMSYN082AAXX  05094 10640 42680 52605 10029 21029 30220 40342 52020 84831 333 83825 83625;
0169106400999992000030512004+50120+008730FM-12+011299999V0202401N002610750019N0400001N1+00561-00271103471ADDGA1031+007509089GF105991031021008001001021MD1110061+9999REMSYN082AAXX  05124 10640 42582 52405 10056 21027 30026 40347 51006 83202 333 83825 85075;EQDQ01+100263APOSP 
0187106400999992000030515004+50120+008730FM-12+011299999V0202701N00311030001CN0300001N1+00581-00431103351ADDGA1031+009009089GA2041+012009069GF107991041081008001031011MA1999999102151MD1710091+9999REMSYN088AAXX  05154 10640 42580 72706 10058 21043 30215 40335 57009 84831 333 83830 84640 86075;
0225106400999992000030518004+50120+008730FM-12+011299999V0202701N002110150019N0300001N1+00511-00241103451ADDGA1031+012009089GA2041+015009069GF107991061081012501031011KA1120M+00631KA2120N+00031MA1999999102241MD1210091+9999REMSYN100AAXX  05184 10640 42680 72704 10051 21024 30224 40345 52009 86831 333 10063 20003 83840 84650 86075;
0228106400999992000030606004+50120+008730FM-12+011299999V0202101N003110150019N0210001N1+00261-00281103371ADDAA124999929GA1061+015009059GF106991061051017501999011GJ103069KA1120M+00561KA2120N+00241MA1999999102151MD1610041+9999REMSYN100AAXX  06064 10640 42771 62106 10026 21028 30215 40337 56004 865/1 333 10056 20024 55051 79999 86650;
0159106400999992000030609004+50120+008730FM-12+011299999V0202101N003112200019N0230001N1+00451-00271103361ADDGA1011+072009019GF101991001001999999001011MA1999999102151MD1010001+9999REMSYN076AAXX  06094 10640 42973 12106 10045 21027 30215 40336 50000 80001 333 81074;
0165106400999992000030612004+50120+008730FM-12+011299999V0202101N002112200019N0200001N1+00881-00091103141ADDGA1011+015009089GF104991011041999999001011MA1999999101941MD1710191+9999REMSYN082AAXX  06124 10640 41970 42104 10088 21009 30194 40314 57019 81401 333 81850 84075;
0165106400999992000030615004+50120+008730FM-12+011299999V0202301N00411075001CN0250001N1+01011-00261102951ADDGA1011+015009089GF105991011011017501031011MA1999999101771MD1710171+9999REMSYN082AAXX  06154 10640 41775 52308 10101 21026 30177 40295 57017 81131 333 81850 85074;
0197106400999992000030618004+50120+008730FM-12+011299999V0202101N002112200019N0250001N1+00851-00211102891ADDGA1031+027009079GF103991031001999999041011KA1120M+01041KA2120N+00211MA1999999101701MD1710081+9999REMSYN088AAXX  06184 10640 42975 32104 10085 21021 30170 40289 57008 83041 333 10104 20021 83359;
0234106400999992000030706004+50120+008730FM-12+011299999V0202001N00311007501CN0250001N1+00481-00151102711ADDAA124000091GA1021+008109069GF107991071051008001999999GJ106069KA1120M+00881KA2120N+00411MA1999999101511MD1710041+9999REMSYN106AAXX  07064 10640 42575 72006 10048 21015 30151 40271 57004 875// 333 10088 20041 55101 70000 82627 86633;
0159106400999992000030709004+50120+008730FM-12+011299999V0202101N004110099019N0180001N1+00661-00021102761ADDGA1051+009909059GF107991051051012501031001MA1999999101571MD1310061+9999REMSYN076AAXX  07094 10640 42668 72108 10066 21002 30157 40276 53006 85530 333 85633;
0165106400999992000030712004+50120+008730FM-12+011299999V0202101N005110300019N0180001N1+00851+00231102691ADDGA1041+007209069GF105991041051008001041001MA1999999101511MD1810061+9999REMSYN082AAXX  07124 10640 42568 52110 10085 20023 30151 40269 58006 84540 333 84624 83336;
0187106400999992000030715004+50120+008730FM-12+011299999V0202001N005110270019N0250001N1+01121+00441102471ADDGA1041+007509069GA2071+027009039GF107991041051008001031999MA1999999101301MD1710211+9999REMSYN088AAXX  07154 10640 42575 72010 10112 20044 30130 40247 57021 8453/ 333 84625 87359 91113;
0281106400999992000030806004+50120+008730FM-12+011299999V0202201N00461004201CN0210001N1+01001+00591102381ADDAA124999999AY151061AY221061GA1011+004509079GF108991081051004501999999GJ101689KA1120M+01131KA2120N+00991MA1999999101201MD1810031+9999MW1021REMSYN112AAXX  08064 10640 41471 82209 10100 20059 30120 40238 58003 70252 885// 333 10113 20099 55028 79999 81715 88625;EQDQ01  99992PRCP24
0215106400999992000030809004+50120+008730FM-12+011299999V0202101N004610078019N0170001N1+00981+00661102371ADDAY161031AY221031GA1031+003909079GA2081+007809069GF108991081051004501999999MA1999999101201MD1010001+9999MW1211REMSYN094AAXX  08094 10640 41467 82109 10098 20066 30120 40237 50000 72162 885// 333 83713 88626 91113;
0232106400999992000030812004+50120+008730FM-12+011299999V0202101N005710099019N0170001N1+01171+00621102261ADDAY161061AY221061GA1051+009909069GA2081+030009049GF108991051051012501071999MA1999999101101MD1710101+9999MW1021OA149900931REMSYN100AAXX  08124 10640 41667 82111 10117 20062 30110 40226 57010 70262 8557/ 333 85633 88460 91118 91212;
0232106400999992000030815004+50120+008730FM-12+011299999V0202201N005110078019N0180001N1+01141+00821102151ADDAY161031AY221031GA1051+007809069GA2071+030009039GF107991051051008001071999MA1999999100991MD1810111+9999MW1211OA149900881REMSYN100AAXX  08154 10640 41568 72210 10114 20082 30099 40215 58011 72162 8557/ 333 85626 87360 91117 91212;
0270106400999992000030818004+50120+008730FM-12+011299999V0202201N004110060019N0080001N1+01061+00911102221ADDAY161061AY221061GA1031+003009079GA2071+006009069GF108991071051004501999999KA1120M+01181KA2120N+00941MA1999999101051MD1310061+9999MW1581OA149900881REMSYN112AAXX  08184 10640 41458 82208 10106 20091 30105 40222 53006 75862 875// 333 10118 20094 83710 87620 91117 91212;
0323106400999992000030906004+50120+008730FM-12+011299999V0202101N005110057019N0180001N1+01181+00851102031ADDAA124002691AY161061AY221061GA1021+004209079GA2051+005709069GA3081+007509069GF108991081051004501999999GJ100009KA1120M+01241KA2120N+01051MA1999999100871MD1810051+9999MW1601OA149900821REMSYN130AAXX  09064 10640 11468 82110 10118 20085 30087 40203 58005 76062 885// 333 10124 20105 55000 70026 82714 85619 88625 91116 91212;
0215106400999992000030909004+50120+008730FM-12+011299999V0202101N003610078019N0150001N1+01191+00821102031ADDAY161031AY221031GA1031+003909079GA2081+007809069GF108991081051004501999999MA1999999100871MD1510001+9999MW1021REMSYN094AAXX  09094 10640 41465 82107 10119 20082 30087 40203 55000 70262 885// 333 83713 88626 91115;
0232106400999992000030912004+50120+008730FM-12+011299999V0202301N005110090019N0250001N1+01381+00841102121ADDAY161061AY251061GA1021+003909089GA2041+009009069GF107991071081004501999999MA1999999100971MD1110101+9999MW1021OA149900881REMSYN100AAXX  09124 10640 41475 72310 10138 20084 30097 40212 51010 70265 878// 333 82813 84630 91117 91211;
0209106400999992000030915004+50120+008730FM-12+011299999V0202301N005110102019N0400001N1+01391+00711102171ADDGA1021+006009089GA2041+010209089GA3061+012009069GF107991071081004501999999MA1999999101021MD1210031+9999REMSYN094AAXX  09154 10640 42482 72310 10139 20071 30102 40217 52003 878// 333 82820 84834 86640 91115;
0247106400999992000030918004+50120+008730FM-12+011299999V0202801N003610102019N0250001N1+01371+00581102241ADDGA1021+006009089GA2041+010209069GA3071+013209069GF107991071081004501999999KA1120M+01441KA2120N+01171MA1999999101081MD1210041+9999REMSYN106AAXX  09184 10640 42475 72807 10137 20058 30108 40224 52004 878// 333 10144 20117 82820 84634 87644 91115;
0262106400999992000031006004+50120+008730FM-12+011299999V0203201N00151007501CN0180001N1+00891+00501102681ADDAA124000391AY161061AY221061GA1021+007509069GF107991071051008001999999GJ100489KA1120M+01381KA2120N+00881MA1999999101501MD1210171+9999MW1211REMSYN112AAXX  10064 10640 41568 73203 10089 20050 30150 40268 52017 72162 875// 333 10138 20088 55008 70003 82625 87650;
0193106400999992000031009004+50120+008730FM-12+011299999V0200101N002110078019N0200001N1+00691+00151102911ADDAY161031AY221031GA1071+007809069GF107991071051008001999999MA1999999101721MD1310221+9999MW1031REMSYN088AAXX  10094 10640 41570 70104 10069 20015 30172 40291 53022 70362 875// 333 87626 91113;
0215106400999992000031012004+50120+008730FM-12+011299999V0203001N002110300019N0200001N1+00831+00091102951ADDAY161061AY221061GA1021+007809089GA2061+030009039GF106991021011008001031001MA1999999101761MD1010041+9999MW1011REMSYN094AAXX  10124 10640 41570 63004 10083 20009 30176 40295 50004 70162 82130 333 82826 86360 91113;
0187106400999992000031015004+50120+008730FM-12+011299999V0202901N00151030001CN0250001N1+01021+00381102741ADDGA1011+009009089GA2031+012009069GF106991031081008001031011MA1999999101561MD1710221+9999REMSYN088AAXX  10154 10640 42575 62903 10102 20038 30156 40274 57022 83831 333 81830 83640 85075;
0203106400999992000031018004+50120+008730FM-12+011299999V0202301N00101012001CN0200001N1+01051+00491102551ADDGA1031+010509069GF107991071051012501999999KA1120M+01091KA2120N+00651MA1999999101381MD1710161+9999REMSYN094AAXX  10184 10640 42670 72302 10105 20049 30138 40255 57016 875// 333 10109 20065 83635 87642;
0232106400999992000031112004+50120+008730FM-12+011299999V0202301N004110060019N0250001N1+01061+00691101701ADDAY151061AY221061GA1051+006009069GA2071+009609069GF108991071051008001999999MA1999999100541MD1310041+9999MW1201OA149900721REMSYN100AAXX  11124 10640 41575 82308 10106 20069 30054 40170 53004 72052 875// 333 85620 87632 91114 91211;
0204106400999992000031115004+50120+008730FM-12+011299999V0202901N003610150019N0200001N1+01131+00471101771ADDGA1031+009009089GA2061+015009069GF106991061081008001031001MA1999999100611MD1210071+9999OA149900721REMSYN094AAXX  11154 10640 42570 62907 10113 20047 30061 40177 52007 86830 333 83830 86650 91114 91211;
0242106400999992000031118004+50120+008730FM-12+011299999V0202801N004110180019N0200001N1+01071+00241102011ADDGA1041+012009069GA2061+018009069GF106991061051012501001011KA1120M+01161KA2120N+00901MA1999999100841MD1210231+9999OA149900721REMSYN106AAXX  11184 10640 42670 62808 10107 20024 30084 40201 52023 86501 333 10116 20090 84640 86656 91114 91210;
0234106400999992000031206004+50120+008730FM-12+011299999V0203001N00151007501CN0250001N1+00791+00381102641ADDAA124999929GA1011+007509069GF107991071051008001999999GJ100129KA1120M+01071KA2120N+00791MA1999999101451MD1210111+9999REMSYN106AAXX  12064 10640 42575 73003 10079 20038 30145 40264 52011 875// 333 10107 20079 55002 79999 81625 87640;
0159106400999992000031209004+50120+008730FM-12+011299999V0203601N001010120019N0200001N1+00821+00311102791ADDGA1071+012009059GF107991071051012501999999MA1999999101601MD1210151+9999REMSYN076AAXX  12094 10640 42670 73602 10082 20031 30160 40279 52015 875// 333 87640;
0165106400999992000031212004+50120+008730FM-12+011299999V0203401N001510120019N0200001N1+00931+00321102791ADDGA1021+007809089GF107991071081008001999999MA1999999101611MD1110071+9999REMSYN082AAXX  12124 10640 42570 73403 10093 20032 30161 40279 51007 878// 333 82826 86640;
0197106400999992000031218004+50120+008730FM-12+011299999V0203301N001010120019N0030001N1+00961+00171102691ADDGA1071+012009059GF107991071061012501999999KA1120M+01001KA2120N+00781MA1999999101511MD1210011+9999REMSYN088AAXX  12184 10640 42630 73302 10096 20017 30151 40269 52001 876// 333 10100 20078 87640;
0247106400999992000031306004+50120+008730FM-12+011299999V0209999C000010120019N0200001N1+00721+00231102771ADDAA124999999GA1071+012009059GF107991071051008001999999GJ100009KA1120M+00971KA2120N+00681MA1999999101581MD1210031+9999REMSYN100AAXX  13064 10640 42570 70000 10072 20023 30158 40277 52003 875// 333 10097 20068 55000 79999 87640;EQDQ01  99992PRCP24
