0311111460999992000010106004+47050+012950FM-12+310799999V0200201N004119999999N0009001N1-01621-01981999999ADDAA112005191AJ101559199999999AL19901091AY171061AY241061GA1071+999999079GF107991071061999999999999GG1079999999999999IA1299KA1120N-01701MA1999999068931MD1410001+9999ME1429759MW1701REMSYN122AAXX  01064 11146 11/09 70208 11162 21198 36893 47975 54000 60052 77074 876// 333 21170 49155 877// 93110 92611 444 77///;
0206111460999992000010109004+47050+012950FM-12+310799999V0200201N002619999999N0005001N1-01631-01801999999ADDAY171031AY241031GA1071+999999079GF107991071061999999999999MA1999999068961MD1210031+9999ME1429989MW1481REMSYN092AAXX  01094 11146 41/05 70205 11163 21180 36896 47998 52003 74874 876// 333 877// 444 77///;
0241111460999992000010112004+47050+012950FM-12+310799999V0200201N002119999999N0003001N1-01481-01701999999ADDAA106000791AY171061AY241061GA1071+999999079GF107991071061999999999999GG1079999999999999MA1999999069001MD1210041+9999ME1430029MW1481REMSYN098AAXX  01124 11146 11/03 70204 11148 21170 36900 47002 52004 69901 74874 876// 333 877// 444 77///;
0190111460999992000010115004+47050+012950FM-12+310799999V0200201N003110001519N0001001N1-01401-01551999999ADDAY171031AY241031GA1091+000159999GF109991091999999999999999MA1999999069001MD1410001+9999ME1430029MW1701REMSYN076AAXX  01154 11146 41/01 90206 11140 21155 36900 47002 54000 77074 333 89/00;
0226111460999992000010118004+47050+012950FM-12+310799999V0200201N002610001519N0001001N1-01351-01501999999ADDAA112003091AY171061AY241061GA1091+000159999GF109991091999999999999999KA1120M-01351MA1999999069011MD1110011+9999ME1430039MW1701REMSYN088AAXX  01184 11146 11/01 90205 11135 21150 36901 47003 51001 60032 77074 333 11135 89/00;
0277111460999992000010206004+47050+012950FM-12+310799999V0202901N002610001519N0001001N1-01451-01601999999ADDAA112010991AJ101709199999999AL10602591AY171061AY241061GA1091+000159999GF109991091999999999999999IA1299KA1120N-01501MA1999999069121MD1210041+9999ME1430159MW1731REMSYN106AAXX  02064 11146 11/01 92905 11145 21160 36912 47015 52004 60112 77374 333 21150 49170 89/00 92611 93125;
0196111460999992000010209004+47050+012950FM-12+310799999V0202901N003610001519N0001001N1-01501-01651999999ADDAY171031AY241031GA1091+000159999GF109991091999999999999999MA1999999069301MD1210181+9999ME1430359MW1701REMSYN082AAXX  02094 11146 41/01 92907 11150 21165 36930 47035 52018 77074 333 89/00 92611;
0264111460999992000010212004+47050+012950FM-12+310799999V0203601N004619999999N0002001N1-01371-01501999999ADDAA106004191AY171061AY241061GA1071+999999079GF107991071061999999999999GG1079999999999999MA1999999069341MD1210041+9999ME1430399MW1481OA149900931REMSYN110AAXX  02124 11146 11/02 73609 11137 21150 36934 47039 52004 60041 74874 876// 333 877// 91118 92611 444 77///;
0241111460999992000010215004+47050+012950FM-12+310799999V0203601N005712200019N0005001N1-01421-01601999999ADDAY141031AY231031GA1041+999999079GF104991041061999999001001GG1079999999999999MA1999999069421MD1210081+9999ME1430489MW1481OA149900821REMSYN098AAXX  02154 11146 41/05 43611 11142 21160 36942 47048 52008 74843 84600 333 847// 91116 444 47///;
0277111460999992000010218004+47050+012950FM-12+310799999V0203601N006212200019N0300001N1-01241-01501999999ADDAA112004191AY131061AY211061GA1031+999999079GF103991031061999999001001GG1079999999999999KA1120M-01241MA1999999069571MD1210151+9999ME1430649MW1011OA149900821REMSYN110AAXX  02184 11146 11/80 33612 11124 21150 36957 47064 52015 60042 70131 83600 333 11124 837// 91116 444 37///;
0269111460999992000010306004+47050+012950FM-12+310799999V0200201N008212200019N0750001N1-01001-01531999999ADDAA106000091AJ101709199999999AL19900691GA1011+012009049GA2031+060009009GF103991011001012501021011IA1299KA1120N-01241MD1210081+9999ME1430879REMSYN100AAXX  03064 11146 32689 30216 11100 21153 47087 52008 81021 333 21124 49170 81440 83070 93106 91120;EQDQ01  00002PRCP06
0174111460999992000010309004+47050+012950FM-12+310799999V0200201N006210900019N0750001N1-00911-01601999999ADDGA1031+013509039GF105991031001012501041021MA1999999069901MD1210101+9999ME1431009REMSYN082AAXX  03094 11146 42689 50212 11091 21160 36990 47100 52010 83042 333 83345 91120;
0204111460999992000010312004+47050+012950FM-12+310799999V0200201N006710900019N0750001N1-00711-01801999999ADDAA106000091GA1031+012009049GF105991031001012501071021MA1999999069911MD1410001+9999ME1431019REMSYN082AAXX  03124 11146 32689 50213 11071 21180 36991 47101 54000 83072 333 83440 91117;EQDQ01  00002PRCP06
0196111460999992000010315004+47050+012950FM-12+310799999V0200201N005110600019N0750001N1-00681-02431999999ADDGA1031+012609049GA2031+060009009GF105991031001012501071021MA1999999069871MD1710041+9999ME1430979REMSYN088AAXX  03154 11146 42689 50210 11068 21243 36987 47097 57004 83072 333 83442 83070 91117;
0245111460999992000010318004+47050+012950FM-12+310799999V0200201N006710660019N0750001N1-00681-02241999999ADDAA106000091GA1031+012009049GA2031+066009009GF105991031001012501071021KA1120M-00651MA1999999069841MD1710031+9999ME1430949REMSYN094AAXX  03184 11146 32689 50213 11068 21224 36984 47094 57003 83072 333 11065 83440 83072 91126;EQDQ01  00002PRCP06
0240111460999992000010406004+47050+012950FM-12+310799999V0202701N005112200019N0750001N1-00571-01801999999ADDAA106000091AJ101709199999999GA1001+999999999GF100991001001999999001001IA1299KA1120N-00701MA1999999069671MD1710091+9999ME1430749REMSYN082AAXX  04064 11146 32989 02710 11057 21180 36967 47074 57009 333 21070 49170 91118;EQDQ01  00002PRCP06
0198111460999992000010412004+47050+012950FM-12+310799999V0202701N003612200019N0750001N1-00461-02251999999ADDAA106000091GA1021+060009019GF102991001001999999001021MA1999999069601MD1710051+9999ME1430669REMSYN076AAXX  04124 11146 32989 22707 11046 21225 36960 47066 57005 80002 333 82070;EQDQ01  00002PRCP06
0168111460999992000010415004+47050+012950FM-12+310799999V0202201N002612200019N0750001N1-00461-02191999999ADDGA1021+060009019GF102991001001999999001021MA1999999069511MD1710091+9999ME1430569REMSYN076AAXX  04154 11146 42989 22205 11046 21219 36951 47056 57009 80002 333 82070;
0217111460999992000010418004+47050+012950FM-12+310799999V0202401N002612200019N0750001N1-00571-02441999999ADDAA106000091GA1021+060009019GF102991001001999999001021KA1120M-00421MA1999999069471MD1710041+9999ME1430519REMSYN082AAXX  04184 11146 32989 22405 11057 21244 36947 47051 57004 80002 333 11042 82070;EQDQ01  00002PRCP06
0322111460999992000010506004+47050+012950FM-12+310799999V0202701N007219999999N0009001N1-00841-01261999999ADDAA112001091AJ101709199999999AL19900291AY171061AY241061GA1071+999999079GF107991071061999999999999GG1079999999999999IA1299KA1120N-00861MA1999999069331MD1710051+9999ME1430369MW1701OA149901341REMSYN122AAXX  05064 11146 11/09 72714 11084 21126 36933 47036 57005 60012 77074 876// 333 21086 49170 877// 93102 91126 444 77///;
0196111460999992000010509004+47050+012950FM-12+310799999V0202901N007210001519N0002001N1-00861-01051999999ADDAY171031AY241031GA1091+000159999GF109991091999999999999999MA1999999069391MD1310061+9999ME1430439MW1701REMSYN082AAXX  05094 11146 41/02 92914 11086 21105 36939 47043 53006 77074 333 89/00 91130;
0240111460999992000010512004+47050+012950FM-12+310799999V0202901N004619999999N0003001N1-00861-01051999999ADDAA106002091AY171061AY241061GA1071+999999079GF107991071061999999999999MA1999999069461MD1210071+9999ME1430519MW1701OA149901081REMSYN104AAXX  05124 11146 11/03 72909 11086 21105 36946 47051 52007 60021 77074 876// 333 877// 91121 444 77///;
0206111460999992000010515004+47050+012950FM-12+310799999V0202701N005112200019N0600001N1-00871-01041999999ADDAY171031AY241031GA1021+001809069GF102991021051001501001001MA1999999069421MD1710041+9999ME1430489MW1011REMSYN092AAXX  05154 11146 41286 22710 11087 21104 36942 47048 57004 70174 82500 333 82606 444 36282;
0250111460999992000010606004+47050+012950FM-12+310799999V0203201N011312200019N0750001N1-00551-01401999999ADDAA106000091AJ101709199999999AL10600591GA1001+999999999GF100991001001999999001001IA1299KA1120N-00941MA1999999069481MD1410001+9999ME1430529REMSYN082AAXX  06064 11146 32989 03222 11055 21140 36948 47052 54000 333 21094 49170 93105;EQDQ01  00002PRCP06
0152111460999992000010609004+47050+012950FM-12+310799999V0203201N003612200019N0750001N1-00541-01521999999ADDGA1001+999999999GF100991001001999999001001MA1999999069571MD1310091+9999ME1430639REMSYN060AAXX  06094 11146 42989 03207 11054 21152 36957 47063 53009;
0182111460999992000010612004+47050+012950FM-12+310799999V0203201N002112200019N0750001N1-00461-01521999999ADDAA106000091GA1001+999999999GF100991001001999999001001MA1999999069601MD1210031+9999ME1430669REMSYN060AAXX  06124 11146 32989 03204 11046 21152 36960 47066 52003;EQDQ01  00002PRCP06
0152111460999992000010615004+47050+012950FM-12+310799999V0203601N003112200019N0750001N1-00561-01681999999ADDGA1001+999999999GF100991001001999999001001MA1999999069541MD1810061+9999ME1430599REMSYN060AAXX  06154 11146 42989 03606 11056 21168 36954 47059 58006;
0262111460999992000010706004+47050+012950FM-12+310799999V0202701N002112200019N0750001N1-00801-01871999999ADDAA106000091AJ101709199999999GA1011+012009079GF101991011999012501031001IA1299KA1120N-00901MA1999999069591MD1210021+9999ME1430669REMSYN088AAXX  07064 11146 32689 12704 11080 21187 36959 47066 52002 81030 333 21090 49170 81340;EQDQ01+000002SCOLCGQ02  00002PRCP06
0187111460999992000010709004+47050+012950FM-12+310799999V0202501N004112200019N0750001N1-00781-02001999999ADDGA1011+013509079GF102991011999012501031021MA1999999069641MD1210051+9999ME1430719REMSYN076AAXX  07094 11146 42689 22508 11078 21200 36964 47071 52005 81032 333 81345;EQDQ01+000002SCOLCG
0182111460999992000010712004+47050+012950FM-12+310799999V0202301N000512200019N0750001N1-00741-02001999999ADDAA106000091GA1001+999999999GF100991001001999999001001MA1999999069651MD1110011+9999ME1430729REMSYN060AAXX  07124 11146 32989 02301 11074 21200 36965 47072 51001;EQDQ01  00002PRCP06
0168111460999992000010715004+47050+012950FM-12+310799999V0202301N008212200019N0750001N1-00771-01801999999ADDGA1011+060009019GF101991001001999999001011MA1999999069521MD1710131+9999ME1430589REMSYN076AAXX  07154 11146 42989 12316 11077 21180 36952 47058 57013 80001 333 81070;
0217111460999992000010718004+47050+012950FM-12+310799999V0202301N005712200019N0750001N1-00881-01591999999ADDAA106000091GA1011+060009019GF101991001001999999001011KA1120M-00721MA1999999069511MD1710021+9999ME1430579REMSYN082AAXX  07184 11146 32989 12311 11088 21159 36951 47057 57002 80001 333 11072 81070;EQDQ01  00002PRCP06
0234111460999992000010806004+47050+012950FM-12+310799999V0202701N001512200019N0750001N1-00891-01511999999ADDAA106000091AJ101609199999999GA1001+999999999GF100991001001999999001001IA1299KA1120N-00951MA1999999069371MD1710051+9999ME1430419REMSYN076AAXX  08064 11146 32989 02703 11089 21151 36937 47041 57005 333 21095 49160;EQDQ01  00002PRCP06
0152111460999992000010809004+47050+012950FM-12+310799999V0202701N001012200019N0750001N1-00871-01951999999ADDGA1001+999999999GF100991001001999999001001MA1999999069411MD1210041+9999ME1430459REMSYN060AAXX  08094 11146 42989 02702 11087 21195 36941 47045 52004;
0182111460999992000010812004+47050+012950FM-12+310799999V0202301N001512200019N0750001N1-00761-01981999999ADDAA106000091GA1001+999999999GF100991001001999999001001MA1999999069401MD1810011+9999ME1430449REMSYN060AAXX  08124 11146 32989 02303 11076 21198 36940 47044 58001;EQDQ01  00002PRCP06
0152111460999992000010815004+47050+012950FM-12+310799999V0202801N001512200019N0750001N1-00761-02021999999ADDGA1001+999999999GF100991001001999999001001MA1999999069321MD1710081+9999ME1430359REMSYN060AAXX  08154 11146 42989 02803 11076 21202 36932 47035 57008;
0205111460999992000010818004+47050+012950FM-12+310799999V0200201N000512200019N0750001N1-00931-01601999999ADDAA106000091GA1001+999999999GF100991001001999999001001KA1999M-00751MA1999999069331MD1110011+9999ME1430379REMSYN070AAXX  08184 11146 32989 00201 11093 21160 36933 47037 51001 333 11075;EQDQ01  00002PRCP06
0196111460999992000010909004+47050+012950FM-12+310799999V0202901N001012200019N0750001N1-01131-02351999999ADDGA1021+013509039GF103991021001012501031021GG1079056009029999MA1999999069121MD1110011+9999ME1430149REMSYN086AAXX  09094 11146 42689 32902 11113 21235 36912 47014 51001 82032 333 82345 444 17256;
0210111460999992000010912004+47050+012950FM-12+310799999V0200201N004110900019N0750001N1-01131-01861999999ADDAA106000091GF105991041001012501071021GG1069056009029999MA1999999069121MD1410001+9999ME1430149REMSYN086AAXX  09124 11146 32689 50208 11113 21186 36912 47014 54000 84072 333 74340 444 16256;EQDQ01  00002PRCP06
0174111460999992000010915004+47050+012950FM-12+310799999V0203601N00571012001CN0750001N1-01171-01851999999ADDGA1021+012009049GF106991051001012501071021MA1999999069091MD1710031+9999ME1430129REMSYN082AAXX  09154 11146 42689 63611 11117 21185 36909 47012 57003 85072 333 82440 83345;
0201111460999992000010918004+47050+012950FM-12+310799999V0203301N002119999999N0200001N1-01191-01301999999ADDAA106000091GF106991061061999999071021KA1120M-01111MA1999999069131MD1310041+9999ME1430159REMSYN082AAXX  09184 11146 32/70 63304 11119 21130 36913 47015 53004 86672 333 11111 867//;EQDQ01  00002PRCP06
0271111460999992000011006004+47050+012950FM-12+310799999V0203601N000510001519N0001001N1-01351-01401999999ADDAA112002091AJ101609199999999AL10600591AY171061AY241061GA1091+000159999GF109991091999999999999999IA1299KA1120N-01361MA1999999069321MD1210071+9999ME1430379MW1701REMSYN100AAXX  10064 11146 11/01 93601 11135 21140 36932 47037 52007 60022 77074 333 21136 49160 89/00 93105;
0190111460999992000011009004+47050+012950FM-12+310799999V0203601N003110001519N0001001N1-01411-01451999999ADDAY171031AY241031GA1091+000159999GF109991091999999999999999MA1999999069391MD1210071+9999ME1430459MW1701REMSYN076AAXX  10094 11146 41/01 93606 11141 21145 36939 47045 52007 77074 333 89/00;
0207111460999992000011012004+47050+012950FM-12+310799999V0203601N002610001519N0000001N1-01341-01401999999ADDAA106001091AY171061AY241061GA1091+000159999GF109991091999999999999999MA1999999069491MD1210101+9999ME1430559MW1701REMSYN082AAXX  10124 11146 11/00 93605 11134 21140 36949 47055 52010 60011 77074 333 89/00;
0190111460999992000011015004+47050+012950FM-12+310799999V0200201N003110001519N0000001N1-01361-01531999999ADDAY171031AY241031GA1091+000159999GF109991091999999999999999MA1999999069511MD1210021+9999ME1430579MW1701REMSYN076AAXX  10154 11146 41/00 90206 11136 21153 36951 47057 52002 77074 333 89/00;
0226111460999992000011018004+47050+012950FM-12+310799999V0200101N002110001519N0000001N1-01471-01551999999ADDAA112003091AY171061AY241061GA1091+000159999GF109991091999999999999999KA1120M-01301MA1999999069601MD1210091+9999ME1430689MW1701REMSYN088AAXX  10184 11146 11/00 90104 11147 21155 36960 47068 52009 60032 77074 333 11130 89/00;
0327111460999992000011106004+47050+012950FM-12+310799999V0200601N004112200019N0500001N1-01491-01841999999ADDAA112001091AJ101659199999999AL19900891AY171061AY241061GA1021+001809069GA2031+012009039GF104991021051001501031001GG1069999999999999IA1299KA1120N-01501MA1999999069711MD1210041+9999ME1430809MW1701REMSYN122AAXX  11064 11146 11284 40608 11149 21184 36971 47080 52004 60012 77074 82530 333 21150 49165 82606 83340 93108 444 26///;
0206111460999992000011109004+47050+012950FM-12+310799999V0203601N002619999999N0002001N1-01491-01601999999ADDAY141031AY221031GA1071+999999079GF107991071061999999999999MA1999999069781MD1210071+9999ME1430879MW1481REMSYN092AAXX  11094 11146 41/02 73605 11149 21160 36978 47087 52007 74842 876// 333 877// 444 77///;
0217111460999992000011112004+47050+012950FM-12+310799999V0203601N003619999999N0003001N1-01441-01501999999ADDAA106000021AY141061AY221061GA1051+999999079GF105991051061999999001001MA1999999069801MD1110021+9999ME1430899MW1411REMSYN092AAXX  11124 11146 31/03 53607 11144 21150 36980 47089 51002 74142 85600 333 857// 444 57///;
0206111460999992000011115004+47050+012950FM-12+310799999V0203601N005112200019N0008001N1-01371-01501999999ADDAY141031AY221031GA1041+999999079GF104991041061999999001001MA1999999069771MD1810031+9999ME1430869MW1411REMSYN092AAXX  11154 11146 41/08 43610 11137 21150 36977 47086 58003 74142 84600 333 847// 444 47///;
0227111460999992000011118004+47050+012950FM-12+310799999V0203601N005712200019N0300001N1-01401-01511999999ADDAA106000091GA1011+013509039GF101991011001012501031021KA1120M-01341MA1999999069801MD1210031+9999ME1430899REMSYN092AAXX  11184 11146 32680 13611 11140 21151 36980 47089 52003 81032 333 11134 81345 444 47276;EQDQ01  00002PRCP06
0262111460999992000011206004+47050+012950FM-12+310799999V0200201N004112200019N0750001N1-01431+99999999999ADDAA106000091AJ101659199999999GA1021+012609079GF102991021999012501041001IA1299KA1120N-01461MA1999999069641MD1710051+9999ME1430729REMSYN088AAXX  12064 11146 32689 20208 11143 21132 36964 47072 57005 82040 333 21146 49165 82342;EQDQ01+000002SCOLCGQ02  00002PRCP06
0196111460999992000011209004+47050+012950FM-12+310799999V0200201N005712200019N0750001N1-01391-01841999999ADDGA1011+014409039GF101991011001012501041001GG1069041009019999MA1999999069641MD1410001+9999ME1430729REMSYN086AAXX  12094 11146 42689 10211 11139 21184 36964 47072 54000 81040 333 81348 444 26141;
0226111460999992000011212004+47050+012950FM-12+310799999V0200501N002612200019N0750001N1-01291-02681999999ADDAA106000091GA1011+066009009GF101991001001999999001021GG1069051009019999MA1999999069571MD1810071+9999ME1430649REMSYN086AAXX  12124 11146 32989 10505 11129 21268 36957 47064 58007 80002 333 81072 444 26151;EQDQ01  00002PRCP06
0180111460999992000011215004+47050+012950FM-12+310799999V0200401N002612200019N0750001N1-01171-02821999999ADDGA1001+999999999GF100991001001999999001001GG1069051009019999MA1999999069461MD1710111+9999ME1430529REMSYN070AAXX  12154 11146 42989 00405 11117 21282 36946 47052 57011 444 26151;
0215111460999992000011218004+47050+012950FM-12+310799999V0200501N002112200019N0750001N1-01191-03451999999ADDAA106000091GA1001+999999999GF100991001001999999001001KA1120M-01141MA1999999069411MD1710051+9999ME1430469REMSYN080AAXX  12184 11146 32989 00504 11119 21345 36941 47046 57005 333 11114 444 26171;EQDQ01  00002PRCP06
0234111460999992000011306004+47050+012950FM-12+310799999V0201201N002612200019N0750001N1-01201-02561999999ADDAA106000091AJ101609199999999GA1001+999999999GF100991001001999999001001IA1299KA1120N-01301MA1999999069071MD1710111+9999ME1430099REMSYN076AAXX  13064 11146 32989 01205 11120 21256 36907 47009 57011 333 21130 49160;EQDQ01  00002PRCP06
0180111460999992000011309004+47050+012950FM-12+310799999V0201501N003112200019N0750001N1-01211-03051999999ADDGA1001+999999999GF100991001001999999001001GG1079082009019999MA1999999069041MD1710031+9999ME1430059REMSYN070AAXX  13094 11146 42989 01506 11121 21305 36904 47005 57003 444 27182;
0210111460999992000011312004+47050+012950FM-12+310799999V0201801N002112200019N0750001N1-01111-02701999999ADDAA106000091GA1001+999999999GF100991001001999999001001GG1079086009019999MA1999999068981MD1710061+9999ME1429989REMSYN070AAXX  13124 11146 32989 01804 11111 21270 36898 47998 57006 444 27186;EQDQ01  00002PRCP06
0152111460999992000011315004+47050+012950FM-12+310799999V0202101N001012200019N0750001N1-01041-02951999999ADDGA1001+999999999GF100991001001999999001001MA1999999068891MD1710091+9999ME1429889REMSYN060AAXX  13154 11146 42989 02102 11104 21295 36889 47988 57009;
0205111460999992000011318004+47050+012950FM-12+310799999V0202801N000512200019N0750001N1-01151-02721999999ADDAA106000091GA1001+999999999GF100991001001999999001001KA1999M-01021MA1999999068871MD1710021+9999ME1429869REMSYN070AAXX  13184 11146 32989 02801 11115 21272 36887 47986 57002 333 11102;EQDQ01  00002PRCP06
0266111460999992000011406004+47050+012950FM-12+310799999V0202401N005112200019N0750001N1-01261-02331999999ADDAA199000091AJ101609199999999GA1011+013509079GF101991011999999999041001IA1299KA1120N-01321MA1999999068901MD1210011+9999ME1429909REMSYN092    AAXX  14064 11146 32989 12410 11126 21233 36890 47990 52001 81040 333 21132 49160 81345;EQDQ01+000002SCOLCGQ02  00002PRCP99
0178111460999992000011409004+47050+012950FM-12+310799999V0202401N006212200019N0750001N1-01191-02201999999ADDGA1011+013509039GF101991011001012501041001MA1999999068971MD1210071+9999ME1429979REMSYN086    AAXX  14094 11146 42689 12412 11119 21220 36897 47997 52007 81040 333 81345 91114;
0208111460999992000011412004+47050+012950FM-12+310799999V0202301N006212200019N0750001N1-01191-01941999999ADDAA199000091GA1011+001809069GF101991011051001501001001MA1999999069021MD1210051+9999ME1430039REMSYN086    AAXX  14124 11146 32289 12312 11119 21194 36902 47003 52005 81500 333 81606 91120;EQDQ01  00002PRCP99
0191111460999992000011415004+47050+012950FM-12+310799999V0202301N006212200019N0600001N1-01161+99999999999ADDGA1011+002409059GF101991011051001501001001MA1999999069021MD1210021+9999ME1430059REMSYN080    AAXX  14154 11146 42286 12312 11116 21330 36902 47005 52002 81500 333 81608;EQDQ01-003303ATOD  
0221111460999992000011418004+47050+012950FM-12+310799999V0202401N005712200019N0500001N1-00991-01391999999ADDAA199000091GA1011+002409059GF101991011051001501001001KA1120M-00991MA1999999069131MD1210091+9999ME1430159REMSYN086    AAXX  14184 11146 32284 12411 11099 21139 36913 47015 52009 81500 333 11099 81608;EQDQ01  00002PRCP99
0238111460999992000011506004+47050+012950FM-12+310799999V0202401N000512200019N0750001N1-00911-01541999999ADDAA199000091AJ101609199999999GA1001+999999999GF100991001001999999001001IA1299KA1120N-01021MA1999999069401MD1210091+9999ME1430449REMSYN080    AAXX  15064 11146 32989 02401 11091 21154 36940 47044 52009 333 21102 49160;EQDQ01  00002PRCP99
0172111460999992000011509004+47050+012950FM-12+310799999V0200301N001012200019N0750001N1-00861-01581999999ADDGA1011+060009019GF101991001001999999001011MA1999999069471MD1210071+9999ME1430529REMSYN080    AAXX  15094 11146 42989 10302 11086 21158 36947 47052 52007 80001 333 81070;
0202111460999992000011512004+47050+012950FM-12+310799999V0202201N002612200019N0750001N1-00801-01671999999ADDAA199000091GA1011+060009019GF101991001001999999001011MA1999999069511MD1210041+9999ME1430569REMSYN080    AAXX  15124 11146 32989 12205 11080 21167 36951 47056 52004 80001 333 81070;EQDQ01  00002PRCP99
0172111460999992000011515004+47050+012950FM-12+310799999V0200101N001012200019N0750001N1-00851-01491999999ADDGA1011+060009019GF101991001001999999001011MA1999999069461MD1810051+9999ME1430519REMSYN080    AAXX  15154 11146 42989 10102 11085 21149 36946 47051 58005 80001 333 81070;
0221111460999992000011518004+47050+012950FM-12+310799999V0203301N002612200019N0750001N1-00961-01621999999ADDAA199000091GA1011+066009019GF101991001001999999001011KA1120M-00761MA1999999069441MD1710021+9999ME1430499REMSYN086    AAXX  15184 11146 32989 13305 11096 21162 36944 47049 57002 80001 333 11076 81072;EQDQ01  00002PRCP99
0277111460999992000011606004+47050+012950FM-12+310799999V0203501N006712200019N0200001N1-01481-01711999999ADDAA199000091AJ101609199999999GA1011+999999069GF102991011051999999031001IA1299KA1120N-01481MA1999999069041MD1710131+9999ME1430079OA149901181REMSYN108    AAXX  16064 11146 32/70 23513 11148 21171 36904 47007 57013 81530 333 21148 49160 816// 91123 444 16///;EQDQ01  00002PRCP99
0200111460999992000011609004+47050+012950FM-12+310799999V0200201N006712200019N0500001N1-01571-02141999999ADDGA1011+003909069GF101991011051004501031001GG1069091009029999MA1999999069131MD1310091+9999ME1430179REMSYN090    AAXX  16094 11146 42484 10213 11157 21214 36913 47017 53009 81530 333 81613 444 36291;
0230111460999992000011612004+47050+012950FM-12+310799999V0200301N007212200019N0750001N1-01631-02571999999ADDAA199000091GA1011+013509039GF101991011001012501031001GG1069096009029999MA1999999069191MD1210061+9999ME1430239REMSYN090    AAXX  16124 11146 32689 10314 11163 21257 36919 47023 52006 81030 333 81345 444 26296;EQDQ01  00002PRCP99
0199111460999992000011615004+47050+012950FM-12+310799999V0200201N007212200019N0750001N1-01611-02231999999ADDGA1011+013509039GF101991011001012501041001MA1999999069141MD1810051+9999ME1430189OA149900981REMSYN096    AAXX  16154 11146 42689 10214 11161 21223 36914 47018 58005 81040 333 81345 91119 444 26286;
0266111460999992000011618004+47050+012950FM-12+310799999V0200201N007212200019N0750001N1-01711-01931999999ADDAA199000091GA1011+013509039GF101991011001012501041001GG1069076009029999KA1120M-01481MA1999999069141MD1410001+9999ME1430189OA149900881REMSYN102    AAXX  16184 11146 32689 10214 11171 21193 36914 47018 54000 81040 333 11148 81345 91117 444 26276;EQDQ01  00002PRCP99
0295111460999992000011706004+47050+012950FM-12+310799999V0200101N009810001519N0000001N1-01111-01131999999ADDAA199000091AJ101609199999999AY141061AY221061GA1091+000159999GF109991091999999999999999IA1299KA1120N-01721MA1999999068991MD1710051+9999ME1429999MW1491OA149901851REMSYN104    AAXX  17064 11146 31/00 90119 11111 21113 36899 47999 57005 74942 333 21172 49160 89/00 91136 92610;EQDQ01  00002PRCP99
0233111460999992000011709004+47050+012950FM-12+310799999V0200101N009819999999N0001001N1-00851-00921999999ADDAY141031AY221031GA1071+999999079GF107991071061999999999999MA1999999069001MD1310011+9999ME1429999MW1481OA149902161REMSYN108    AAXX  17094 11146 41/01 70119 11085 21092 36900 47999 53001 74842 876// 333 877// 91142 92610 444 77///;
0247111460999992000011712004+47050+012950FM-12+310799999V0200201N007210001519N0000001N1-00801-00961999999ADDAA199000091AY141061AY221061GA1091+000159999GF109991091999999999999999MA1999999069011MD1010011+9999ME1430009MW1491OA149901751REMSYN092    AAXX  17124 11146 31/00 90214 11080 21096 36901 47000 50001 74942 333 89/00 91134 92610;EQDQ01  00002PRCP99
0217111460999992000011715004+47050+012950FM-12+310799999V0203501N004110001519N0001001N1-00891-00961999999ADDAY171031AY241031GA1091+000159999GF109991091999999999999999MA1999999068911MD1810101+9999ME1429899MW1701OA149900981REMSYN092    AAXX  17154 11146 41/01 93508 11089 21096 36891 47989 58010 77074 333 89/00 91119 92610;
0253111460999992000011718004+47050+012950FM-12+310799999V0203601N006210001519N0000001N1-00941-01041999999ADDAA112002091AY171061AY241061GA1091+000159999GF109991091999999999999999KA1120M-00841MA1999999068821MD1710101+9999ME1429809MW1701OA149901801REMSYN104    AAXX  17184 11146 11/00 93612 11094 21104 36882 47980 57010 60022 77074 333 11084 89/00 91135 92610;
0298111460999992000011806004+47050+012950FM-12+310799999V0203601N006210001519N0000001N1-01211-01331999999ADDAA112007991AJ101709199999999AL19901591AY171061AY241061GA1091+000159999GF109991091999999999999999IA1299KA1120N-01241MA1999999068271MD1710181+9999ME1429199MW1711OA149901701REMSYN116    AAXX  18064 11146 11/00 93612 11121 21133 36827 47919 57018 60082 77174 333 21124 49170 89/00 93115 91133 92612;
0217111460999992000011809004+47050+012950FM-12+310799999V0203501N007710001519N0000001N1-01121-01121999999ADDAY171031AY241031GA1091+000159999GF109991091999999999999999MA1999999068201MD1710071+9999ME1429119MW1711OA149901601REMSYN092    AAXX  18094 11146 41/00 93515 11112 21112 36820 47911 57007 77174 333 89/00 91131 92612;
0234111460999992000011812004+47050+012950FM-12+310799999V0200201N008210001519N0000001N1-01051-01121999999ADDAA106006191AY171061AY241061GA1091+000159999GF109991091999999999999999MA1999999068051MD1710151+9999ME1428939MW1711OA149901961REMSYN098    AAXX  18124 11146 11/00 90216 11105 21112 36805 47893 57015 60061 77174 333 89/00 91138 92612;
0217111460999992000011815004+47050+012950FM-12+310799999V0203601N007710001519N0000001N1-01281-01361999999ADDAY171031AY241031GA1091+000159999GF109991091999999999999999MA1999999067921MD1710131+9999ME1428819MW1711OA149901961REMSYN092    AAXX  18154 11146 41/00 93615 11128 21136 36792 47881 57013 77174 333 89/00 91138 92612;
0253111460999992000011818004+47050+012950FM-12+310799999V0200101N009310001519N0000001N1-01371+99999999999ADDAA112016091AY171061AY241061GA1091+000159999GF109991091999999999999999KA1120M-01041MA1999999067881MD1710041+9999ME1428779MW1731OA149902371REMSYN104    AAXX  18184 11146 11/00 90118 11137 21114 36788 47877 57004 60162 77374 333 11104 89/00 91146 92612;
0298111460999992000011906004+47050+012950FM-12+310799999V0200101N005710001519N0000001N1-01941-02101999999ADDAA112008991AJ102109199999999AL19904091AY171061AY241061GA1091+000159999GF109991091999999999999999IA1299KA1120N-01941MA1999999068251MD1210121+9999ME1429239MW1731OA149901031REMSYN116    AAXX  19064 11146 11/00 90111 11194 21210 36825 47923 52012 60092 77374 333 21194 49210 89/00 93140 91120 92612;
0233111460999992000011909004+47050+012950FM-12+310799999V0200201N006219999999N0000001N1-01981-02141999999ADDAY171031AY241031GA1071+999999079GF107991071061999999999999MA1999999068331MD1210081+9999ME1429329MW1701OA149901181REMSYN108    AAXX  19094 11146 41/00 70212 11198 21214 36833 47932 52008 77074 876// 333 877// 91123 92612 444 77///;
0268111460999992000011912004+47050+012950FM-12+310799999V0203601N007219999999N0000001N1-01971-02151999999ADDAA106001091AY171061AY241061GA1071+999999079GF107991071061999999999999GG1079999999999999MA1999999068411MD1210081+9999ME1429409MW1481OA149902471REMSYN114    AAXX  19124 11146 11/00 73614 11197 21215 36841 47940 52008 60011 74874 876// 333 877// 91148 92612 444 77///;
0233111460999992000011915004+47050+012950FM-12+310799999V0200101N006719999999N0001001N1-01921-02111999999ADDAY141031AY221031GA1071+999999079GF107991071061999999999999MA1999999068481MD1210071+9999ME1429479MW1481OA149901961REMSYN108    AAXX  19154 11146 41/01 70113 11192 21211 36848 47947 52007 74842 876// 333 877// 91138 92612 444 77///;
0249111460999992000011918004+47050+012950FM-12+310799999V0200101N010310001519N0000001N1-02111-02241999999ADDAA112001091AY141061AY221061GA1091+000159999GF109991091999999999999999KA1120M-01921MA1999999068601MD1210121+9999ME1429629MW1491OA149902261REMSYN100AAXX  19184 11146 11/00 90120 11211 21224 36860 47962 52012 60012 74942 333 11192 89/00 91144 92612;
0285111460999992000012006004+47050+012950FM-12+310799999V0203501N007212200019N0500001N1-01811-01961999999ADDAA199000091AJ102109199999999AL19900391GA1011+002709069GF101991011051002501001001IA1299KA1120N-02121MA1999999068951MD1210121+9999ME1429989OA149902161REMSYN106AAXX  20064 11146 32384 13514 11181 21196 36895 47998 52012 81500 333 21212 49210 81609 93103 91142 92612;EQDQ01  00002PRCP99
0191111460999992000012009004+47050+012950FM-12+310799999V0200201N009312200019N0500001N1-01631-01841999999ADDGA1011+012009039GF101991011001012501011001MA1999999068941MD1010011+9999ME1429969OA149901801REMSYN088AAXX  20094 11146 42684 10218 11163 21184 36894 47996 50001 81010 333 81340 91135 92612;
0243111460999992000012012004+47050+012950FM-12+310799999V0200201N008710600019N0500001N1-01591-01791999999ADDAA199000091GA1011+012009039GA2051+060009029GF106991011001012501031061MA1999999069041MD1310101+9999ME1430079OA149901701REMSYN094AAXX  20124 11146 32684 60217 11159 21179 36904 47007 53010 81036 333 81340 85270 91133 92612;EQDQ01  00002PRCP99
0213111460999992000012015004+47050+012950FM-12+310799999V0203401N005710600019N0500001N1-01501-01671999999ADDGA1021+012009039GA2051+060009029GF107991021001012501031061MA1999999068941MD1810101+9999ME1429969OA149902011REMSYN094AAXX  20154 11146 42684 73411 11150 21167 36894 47996 58010 82036 333 82340 85270 91139 92612;
0290111460999992000012018004+47050+012950FM-12+310799999V0203401N014419999999N0150001N1-01551-01691999999ADDAA199000091GA1031+012009039GA2041+999999079GF107991041061999999031999GG1079999999999999KA1120M-01481MA1999999068821MD1710121+9999ME1429839OA149902011REMSYN110AAXX  20184 11146 32/65 73428 11155 21169 36882 47983 57012 8463/ 333 11148 847// 83340 91139 92611 444 47///;EQDQ01  00002PRCP99
0294111460999992000012106004+47050+012950FM-12+310799999V0203001N007210001519N0000001N1-01601-01721999999ADDAA112001091AJ102009199999999AL19900291AY171061AY241061GA1091+000159999GF109991091999999999999999IA1299KA1120N-01621MA1999999068441MD1710131+9999ME1429419MW1711OA149902161REMSYN112AAXX  21064 11146 11/00 93014 11160 21172 36844 47941 57013 60012 77174 333 21162 49200 89/00 93102 91142 92612;
0213111460999992000012109004+47050+012950FM-12+310799999V0203101N008210001519N0000001N1-01641-01761999999ADDAY171031AY241031GA1091+000159999GF109991091999999999999999MA1999999068431MD1710011+9999ME1429409MW1711OA149901801REMSYN088AAXX  21094 11146 41/00 93116 11164 21176 36843 47940 57001 77174 333 89/00 91135 92612;
0230111460999992000012112004+47050+012950FM-12+310799999V0202901N006210001519N0000001N1-01571-01671999999ADDAA106003091AY171061AY241061GA1091+000159999GF109991091999999999999999MA1999999068411MD1710021+9999ME1429379MW1711OA149901651REMSYN094AAXX  21124 11146 11/00 92912 11157 21167 36841 47937 57002 60031 77174 333 89/00 91132 92612;
0213111460999992000012115004+47050+012950FM-12+310799999V0202801N005110001519N0000001N1-01591-01661999999ADDAY171031AY241031GA1091+000159999GF109991091999999999999999MA1999999068331MD1710081+9999ME1429299MW1731OA149901961REMSYN088AAXX  21154 11146 41/00 92810 11159 21166 36833 47929 57008 77374 333 89/00 91138 92612;
0249111460999992000012118004+47050+012950FM-12+310799999V0203001N006210001519N0000001N1-01631-01721999999ADDAA112011991AY171061AY241061GA1091+000159999GF109991091999999999999999KA1120M-01551MA1999999068281MD1710051+9999ME1429249MW1731OA149901961REMSYN100AAXX  21184 11146 11/00 93012 11163 21172 36828 47924 57005 60122 77374 333 11155 89/00 91138 92612;
0294111460999992000012206004+47050+012950FM-12+310799999V0203401N003610001519N0000001N1-01621-01731999999ADDAA112010991AJ102009199999999AL19903591AY171061AY241061GA1091+000159999GF109991091999999999999999IA1299KA1120N-01731MA1999999069231MD1710021+9999ME1429189MW1711OA149901341REMSYN112AAXX  22064 11146 11/00 93407 11162 21173 36923 47918 57002 60112 77174 333 21173 49200 89/00 93135 91126 92612;
0196111460999992000012209004+47050+012950FM-12+310799999V0203001N002110001519N0001001N1-01591-01701999999ADDAY171031AY241031GA1091+000159999GF109991091999999999999999MA1999999068241MD1310021+9999ME1429209MW1711REMSYN082AAXX  22094 11146 41/01 93004 11159 21170 36824 47920 53002 77174 333 89/00 92612;
0230111460999992000012212004+47050+012950FM-12+310799999V0202801N005110001519N0001001N1-01501-01591999999ADDAA106002091AY171061AY241061GA1091+000159999GF109991091999999999999999MA1999999068091MD1810161+9999ME1429019MW1711OA149900931REMSYN094AAXX  22124 11146 11/01 92810 11150 21159 36809 47901 58016 60021 77174 333 89/00 91118 92612;
0213111460999992000012215004+47050+012950FM-12+310799999V0202701N005710001519N0002001N1-01531-01631999999ADDAY171031AY241031GA1091+000159999GF109991091999999999999999MA1999999067891MD1710201+9999ME1428799MW1701OA149900981REMSYN088AAXX  22154 11146 41/02 92711 11153 21163 36789 47879 57020 77074 333 89/00 91119 92612;
0209111460999992000012218004+47050+012950FM-12+310799999V0202601N003110001519N0001001N1-01611-01651999999ADDAA112003091AY171061AY241061GA1091+999999999GF109991091999999999999999MA1999999067801MD1710091+9999ME1428719MW1711REMSYN084AAXX  22184 11146 11/01 92606 11161 21165 36780 47871 57009 60032 77174 89/00 91119;
0294111460999992000012306004+47050+012950FM-12+310799999V0200101N008710001519N0000001N1-01791-01901999999ADDAA112003091AJ102009199999999AL19901091AY171061AY241061GA1091+000159999GF109991091999999999999999IA1299KA1120N-01801MA1999999067481MD1710111+9999ME1428369MW1711OA149901391REMSYN112AAXX  23064 11146 11/00 90117 11179 21190 36748 47836 57011 60032 77174 333 21180 49200 89/00 93110 91127 92612;
0213111460999992000012309004+47050+012950FM-12+310799999V0200201N007210001519N0000001N1-01841-01931999999ADDAY171031AY241031GA1091+000159999GF109991091999999999999999MA1999999067741MD1710011+9999ME1428369MW1701OA149902011REMSYN088AAXX  23094 11146 41/00 90214 11184 21193 36774 47836 57001 77074 333 89/00 91139 92312;
0192111460999992000012315004+47050+012950FM-12+310799999V0200201N008710001519N0000001N1-01721-01831999999ADDAY171031AY241031GA1091+999999999GF109991091999999999999999MA1999999067541MD1010011+9999ME1428429MW1701REMSYN078AAXX  23154 11146 41/00 90217 11172 21183 36754 47842 50001 77074 89/00 91125;
0249111460999992000012318004+47050+012950FM-12+310799999V0200101N010310001519N0000001N1-01911-01981999999ADDAA112003091AY171061AY241061GA1091+000159999GF109991091999999999999999KA1120M-01671MA1999999067591MD1210051+9999ME1428509MW1701OA149901961REMSYN100AAXX  23184 11146 11/00 90120 11191 21198 36759 47850 52005 60032 77074 333 11167 89/00 91138 92612;
0294111460999992000012406004+47050+012950FM-12+310799999V0203601N007210001519N0000001N1-02351-02461999999ADDAA112003091AJ102009199999999AL19901091AY171061AY241061GA1091+000159999GF109991091999999999999999IA1299KA1120N-02351MA1999999067551MD1710011+9999ME1428509MW1701OA149901441REMSYN112AAXX  24064 11146 11/00 93614 11235 21246 36755 47850 57001 60032 77074 333 21235 49200 89/00 93110 91128 92612;
0229111460999992000012409004+47050+012950FM-12+310799999V0200201N006219999999N0001001N1-02581-02701999999ADDAY171031AY241031GA1071+999999079GF107991071061999999999999MA1999999067611MD1310061+9999ME1428599MW1481OA149901081REMSYN104AAXX  24094 11146 41/01 70212 11258 21270 36761 47859 53006 74874 876// 333 877// 91121 92612 444 77///;
0264111460999992000012412004+47050+012950FM-12+310799999V0200301N006219999999N0001001N1-02651-02821999999ADDAA106000391AY171061AY241061GA1071+999999079GF107991071061999999999999GG1079999999999999MA1999999067661MD1110051+9999ME1428649MW1481OA149901441REMSYN110AAXX  24124 11146 11/01 70312 11265 21282 36766 47864 51005 69931 74874 876// 333 877// 91128 92612 444 77///;
0229111460999992000012415004+47050+012950FM-12+310799999V0200101N007712200019N0020001N1-02621-02861999999ADDAY141031AY221031GA1031+999999079GF103991031061999999001001MA1999999067721MD1210061+9999ME1428719MW1411OA149900981REMSYN104AAXX  24154 11146 41/20 30115 11262 21286 36772 47871 52006 74142 83600 333 837// 91119 92612 444 37///;
0243111460999992000012418004+47050+012950FM-12+310799999V0200201N007712200019N0750001N1-02661-02841999999ADDAA112000391GA1001+999999999GF100991001001999999001001GG1069075009029999KA1120M-02351MA1999999067841MD1210121+9999ME1428849OA149900931REMSYN098AAXX  24184 11146 12989 00215 11266 21284 36784 47884 52012 69932 333 11235 91118 92612 444 26275;
0273111460999992000012506004+47050+012950FM-12+310799999V0203601N006712200019N0500001N1-02261-02621999999ADDAA199000091AJ102009199999999AL10600191GA1001+999999999GF100991001001999999001001IA1299KA1120N-02661MA1999999068061MD1210061+9999ME1429039OA149901131REMSYN094AAXX  25064 11146 32984 03613 11226 21262 36806 47903 52006 333 21266 49200 91122 92612 93101;EQDQ01  00002PRCP99
0185111460999992000012509004+47050+012950FM-12+310799999V0200101N007212200019N0750001N1+99999+99999999999ADDGA1011+075009009GF101991001001999999001021MA1999999068241MD1310181+9999ME1429239OA149901031REMSYN082AAXX  25094 11146 42989 10114 21253 36824 47923 53018 80002 333 81075 91120 92612;
0192111460999992000012512004+47050+012950FM-12+310799999V0200201N004612200019N0750001N1-02181-02481999999ADDAA199000091GA1001+999999999GF100991001001999999001001MA1999999068361MD1110121+9999ME1429369REMSYN070AAXX  25124 11146 32989 00209 11218 21248 36836 47936 51012 333 92612;EQDQ01  00002PRCP99
0179111460999992000012515004+47050+012950FM-12+310799999V0200201N005712200019N0750001N1-02101-02501999999ADDGA1001+999999999GF100991001001999999001001MA1999999068461MD1210101+9999ME1429469OA149900671REMSYN076AAXX  25154 11146 42989 00211 11210 21250 36846 47946 52010 333 91113 92612;
0211111460999992000012518004+47050+012950FM-12+310799999V0200201N005712200019N0750001N1-02071-02711999999ADDAA199000091GA1001+999999999GF100991001001999999001001KA1120M-02051MA1999999068611MD1210151+9999ME1429629REMSYN076AAXX  25184 11146 32989 00211 11207 21271 36861 47962 52015 333 11205 91113;EQDQ01  00002PRCP99
0240111460999992000012606004+47050+012950FM-12+310799999V0200201N006712200019N0750001N1-01731-02611999999ADDAA199000091AJ101909199999999GA1001+999999999GF100991001001999999001001IA1299KA1120N-02071MA1999999068931MD1210091+9999ME1429969REMSYN082AAXX  26064 11146 32989 00213 11173 21261 36893 47996 52009 333 21207 49190 91120;EQDQ01  00002PRCP99
0162111460999992000012609004+47050+012950FM-12+310799999V0200201N006712200019N0750001N1-01691-02341999999ADDGA1001+999999999GF100991001001999999001001MA1999999069101MD1210171+9999ME1430149REMSYN070AAXX  26094 11146 42989 00213 11169 21234 36910 47014 52017 333 91117;
0204111460999992000012612004+47050+012950FM-12+310799999V0200201N008212200019N0750001N1-01481-02551999999ADDAA199000091GA1011+075009009GF101991001001999999001011MA1999999069221MD1210121+9999ME1430269REMSYN082AAXX  26124 11146 32989 10216 11148 21255 36922 47026 52012 80001 333 81075 91120;EQDQ01  00002PRCP99
0162111460999992000012615004+47050+012950FM-12+310799999V0200201N007212200019N0750001N1-01251-02051999999ADDGA1001+999999999GF100991001001999999001001MA1999999069301MD1210081+9999ME1430349REMSYN070AAXX  26154 11146 42989 00214 11125 21205 36930 47034 52008 333 91120;
0211111460999992000012618004+47050+012950FM-12+310799999V0200301N007212200019N0750001N1-01151-01801999999ADDAA199000091GA1001+999999999GF100991001001999999001001KA1120M-01151MA1999999069421MD1210141+9999ME1430489REMSYN076AAXX  26184 11146 32989 00314 11115 21180 36942 47048 52014 333 11115 91120;EQDQ01  00002PRCP99
0218111460999992000012706004+47050+012950FM-12+310799999V0200601N002612200019N0750001N1-00551-01391999999ADDAA199000091AJ101809199999999GF101991999999999999999999IA1299KA1120N-01201MA1999999069731MD1210101+9999ME1430819REMSYN076AAXX  27064 11146 32989 10605 11055 21139 36973 47081 52010 333 21120 49180;EQDQ01  00002PRCP99
0152111460999992000012709004+47050+012950FM-12+310799999V0202001N005112200019N0750001N1-00501+99999999999ADDGA1001+999999999GF100991001001999999001001MA1999999069791MD1210061+9999ME1430879REMSYN060AAXX  27094 11146 42989 02010 11050 21035 36979 47087 52006;
0182111460999992000012712004+47050+012950FM-12+310799999V0202301N003612200019N0750001N1-00581-01351999999ADDAA199000091GA1001+999999999GF100991001001999999001001MA1999999069841MD1210051+9999ME1430939REMSYN060AAXX  27124 11146 32989 02307 11058 21135 36984 47093 52005;EQDQ01  00002PRCP99
0152111460999992000012715004+47050+012950FM-12+310799999V0202401N003612200019N0750001N1-00601-01601999999ADDGA1001+999999999GF100991001001999999001001MA1999999069601MD1810241+9999ME1430669REMSYN060AAXX  27154 11146 42989 02407 11060 21160 36960 47066 58024;
0205111460999992000012718004+47050+012950FM-12+310799999V0202601N002112200019N0750001N1-00801-01851999999ADDAA199000091GA1001+999999999GF100991001001999999001001KA1999M-00481MA1999999069541MD1710061+9999ME1430609REMSYN070AAXX  27184 11146 32989 02604 11080 21185 36954 47060 57006 333 11048;EQDQ01  00002PRCP99
0240111460999992000012806004+47050+012950FM-12+310799999V0200301N003612200019N0750001N1-01791-02321999999ADDAA199000091AJ101759199999999GA1001+999999999GF100991001001999999001001IA1299KA1120N-01801MA1999999068921MD1510101+9999ME1429959REMSYN082AAXX  28064 11146 32989 00307 11179 21232 36892 47995 55010 333 21180 49175 91117;EQDQ01  00002PRCP99
0195111460999992000012809004+47050+012950FM-12+310799999V0203401N007212200019N0400001N1-01601-02351999999ADDGA1011+999999069GF101991011051999999041011MA1999999068921MD1410001+9999ME1429949OA149901131REMSYN092AAXX  28094 11146 42982 13414 11160 21235 36892 47994 54000 81541 333 816// 91122 444 16///;
0265111460999992000012812004+47050+012950FM-12+310799999V0203301N00671060001CN0400001N1-01311-02521999999ADDAA199000091GA1061+060009029GA2011+999999069GF106991011051999999001071GG1069999999999999MA1999999068941MD1310021+9999ME1429959OA149901441REMSYN098AAXX  28124 11146 32/82 63313 11131 21252 36894 47995 53002 81507 333 816// 86270 91128 444 16///;EQDQ01  00002PRCP99
0174111460999992000012815004+47050+012950FM-12+310799999V0203001N006212200019N0600001N1-01231-02301999999ADDGA1031+013509039GF104991031001012501051021MA1999999068871MD1810071+9999ME1429879REMSYN082AAXX  28154 11146 42686 43012 11123 21230 36887 47987 58007 83052 333 83345 91117;
0205111460999992000012818004+47050+012950FM-12+310799999V0202801N004612200019N0750001N1-01281-02671999999ADDAA199000091GA1001+999999999GF100991001001999999001001KA1999M-01081MA1999999068941MD1210071+9999ME1429959REMSYN070AAXX  28184 11146 32989 02809 11128 21267 36894 47995 52007 333 11108;EQDQ01  00002PRCP99
0252111460999992000012906004+47050+012950FM-12+310799999V0202801N006212200019N0750001N1-01321-02101999999ADDAA199000091AJ101609199999999GA1021+013509039GF102991021001012501041021IA1299KA1120N-01401MA1999999068671MD1710091+9999ME1429659REMSYN094AAXX  29064 11146 32689 22812 11132 21210 36867 47965 57009 82042 333 21140 49160 82345 91119;EQDQ01  00002PRCP99
0196111460999992000012909004+47050+012950FM-12+310799999V0202701N005712200019N0750001N1-01191-01991999999ADDGA1031+013509039GA2031+060009009GF104991031001012501051021MA1999999068621MD1710051+9999ME1429599REMSYN088AAXX  29094 11146 42689 42711 11119 21199 36862 47959 57005 83052 333 83345 83070 91117;
0204111460999992000012912004+47050+012950FM-12+310799999V0202301N008712200019N0750001N1-01271-02001999999ADDAA199000091GA1031+013509039GF104991031001012501051021MA1999999068541MD1610081+9999ME1429509REMSYN082AAXX  29124 11146 32689 42317 11127 21200 36854 47950 56008 83052 333 83345 91120;EQDQ01  00002PRCP99
0196111460999992000012915004+47050+012950FM-12+310799999V0202701N010310001519N0000001N1-00901-00921999999ADDAY171031AY241031GA1091+000159999GF109991091999999999999999MA1999999068351MD1510191+9999ME1429269MW1711REMSYN082AAXX  29154 11146 41/00 92720 11090 21092 36835 47926 55019 77174 333 89/00 91127;
0232111460999992000012918004+47050+012950FM-12+310799999V0203001N008210001519N0001001N1-00761-00771999999ADDAA112002091AY171061AY241061GA1091+000159999GF109991091999999999999999KA1120M-00751MA1999999068441MD1010091+9999ME1429359MW1711REMSYN094AAXX  29184 11146 11/01 93016 11076 21077 36844 47935 50009 60022 77174 333 11075 89/00 91133;
0294111460999992000013006004+47050+012950FM-12+310799999V0202801N004110001519N0000001N1-00791-00801999999ADDAA112016091AJ101859199999999AL10602591AY171061AY241061GA1091+000159999GF109991091999999999999999IA1299KA1120N-00821MA1999999068451MD1810081+9999ME1429379MW1731OA149901441REMSYN112AAXX  30064 11146 11/00 92808 11079 21080 36845 47937 58008 60162 77374 333 21082 49185 89/00 91128 92611 93125;
0196111460999992000013009004+47050+012950FM-12+310799999V0203001N003610001519N0000001N1-00891-00941999999ADDAY171031AY241031GA1091+000159999GF109991091999999999999999MA1999999068601MD1310151+9999ME1429549MW1711REMSYN082AAXX  30094 11146 41/00 93007 11089 21094 36860 47954 53015 77174 333 89/00 91118;
0230111460999992000013012004+47050+012950FM-12+310799999V0203201N004110001519N0000001N1-00821-00851999999ADDAA106007991AY171061AY241061GA1091+000159999GF109991091999999999999999MA1999999068721MD1210121+9999ME1429689MW1731OA149901341REMSYN094AAXX  30124 11146 11/00 93208 11082 21085 36872 47968 52012 60081 77374 333 89/00 91126 92611;
0213111460999992000013015004+47050+012950FM-12+310799999V0203201N004110001519N0000001N1-00821-00851999999ADDAY171031AY241031GA1091+000159999GF109991091999999999999999MA1999999068751MD1110031+9999ME1429719MW1731OA149901291REMSYN088AAXX  30154 11146 41/00 93208 11082 21085 36875 47971 51003 77374 333 89/00 91125 92611;
0249111460999992000013018004+47050+012950FM-12+310799999V0202901N004110001519N0000001N1-00751-00761999999ADDAA112019191AY171061AY241061GA1091+000159999GF109991091999999999999999KA1120M-00721MA1999999069051MD1310301+9999ME1430049MW1731OA149901341REMSYN100AAXX  30184 11146 11/00 92908 11075 21076 36905 47004 53030 60192 77374 333 11072 89/00 91126 92611;
0300111460999992000013106004+47050+012950FM-12+310799999V0203001N006212200019N0750001N1-00521-01001999999ADDAA112017091AJ102009199999999AL19903591AY171061AY211061GA1011+013509039GF101991011001012501031001IA1239KA1120N-00781MA1999999069581MD1210061+9999ME1430649MW1011OA149901651REMSYN118AAXX  31064 11146 11689 13012 11052 21100 36958 47064 52006 60172 70171 81030 333 21078 47200 81345 93135 91132 92611;
0195111460999992000013109004+47050+012950FM-12+310799999V0203001N007212200019N0600001N1-00481-00831999999ADDGA1011+002709069GF101991011051002501031021MA1999999069611MD1210031+9999ME1430679OA149901601REMSYN092AAXX  31094 11146 42386 13014 11048 21083 36961 47067 52003 81532 333 81609 91131 444 17183;
0204111460999992000013112004+47050+012950FM-12+310799999V0203001N006712200019N0500001N1-00451-00871999999ADDAA199000091GA1021+002709069GF103991021051002501021031MA1999999069701MD1210091+9999ME1430709REMSYN082AAXX  31124 11146 32384 33013 11045 21087 36970 47070 52009 82523 333 82609 91133;EQDQ01  00002PRCP99
0241111460999992000013115004+47050+012950FM-12+310799999V0203001N009312200019N0005001N1-00571-00801999999ADDAY141031AY231031GA1031+999999069GF104991031051999999031021GG1069999999999999MA1999999069641MD1810041+9999ME1430719MW1411OA149901851REMSYN098AAXX  31154 11146 41/05 43018 11057 21080 36964 47071 58004 74143 83532 333 836// 91136 444 36///;
0245111460999992000013118004+47050+012950FM-12+310799999V0200401N005110001519N0000001N1-00821-00831999999ADDAA199000091AY141061AY221061GA1091+000159999GF109991091999999999999999KA1120M-00411MA1999999069571MD1310131+9999ME1430859MW1491REMSYN088AAXX  31184 11146 31/00 90410 11082 21083 36957 47085 53013 74942 333 11041 89/00 91130;EQDQ01  00002PRCP99
0294111460999992000020106004+47050+012950FM-12+310799999V0202401N002112200019N0750001N1-00531-01511999999ADDAA199000091AJ101909199999999GA1031+012009079GF199999021999012501031001IA1299KA1120N-00821MA1999999999999MD1210071+9999ME1431109REMSYN088AAXX  01064 11146 32689 22404 11053 21151 36000 47110 52007 82030 333 21082 49190 83340;EQDQ01+000022SCOTCVQ02+000002SCOLCGQ03  00002PRCP99Q04 060003APOSP 
0187111460999992000020109004+47050+012950FM-12+310799999V0202901N010312200019N0750001N1-00421-01301999999ADDGA1011+060009019GF101991001001999999001021MA1999999070002MD1410001+9999ME1431109REMSYN076AAXX  01094 11146 42989 12920 11042 21130 37000 47110 54000 80002 333 81070;EQDQ01+070003APOSP 
0198111460999992000020112004+47050+012950FM-12+310799999V0202701N008212200019N0750001N1-00311-01261999999ADDAA199000091GA1011+060009019GF101991001001999999001021MA1999999069991MD1410001+9999ME1431099REMSYN076AAXX  01124 11146 32989 12716 11031 21126 36999 47109 54000 80002 333 81070;EQDQ01  00002PRCP99
0168111460999992000020115004+47050+012950FM-12+310799999V0202601N005112200019N0750001N1-00261-01381999999ADDGA1031+066009019GF103991001001999999001021MA1999999069891MD1810101+9999ME1430999REMSYN076AAXX  01154 11146 42989 32610 11026 21138 36989 47099 58010 80002 333 83072;
0217111460999992000020118004+47050+012950FM-12+310799999V0202601N005712200019N0750001N1-00281-01251999999ADDAA199000091GA1031+066009019GF103991001001999999001021KA1120M-00231MA1999999069861MD1710031+9999ME1430959REMSYN082AAXX  01184 11146 32989 32611 11028 21125 36986 47095 57003 80002 333 11023 83072;EQDQ01  00002PRCP99
0252111460999992000020206004+47050+012950FM-12+310799999V0203001N004612200019N0750001N1-00461-01321999999ADDAA199000091AJ101909199999999GA1011+012609039GF103991011001012501041021IA1299KA1120N-00641MA1999999069431MD1710141+9999ME1430479REMSYN094AAXX  02064 11146 32689 33009 11046 21132 36943 47047 57014 81042 333 21064 49190 81342 83072;EQDQ01  00002PRCP99
0196111460999992000020209004+47050+012950FM-12+310799999V0202701N004110660019N0750001N1-00561-01441999999ADDGA1031+012609039GA2071+066009029GF107991031001012501041061MA1999999069371MD1710061+9999ME1430409REMSYN088AAXX  02094 11146 42689 72708 11056 21144 36937 47040 57006 83046 333 83342 87272 91116;
0204111460999992000020212004+47050+012950FM-12+310799999V0202901N00361220001CN0750001N1-00551-01571999999ADDAA199000091GA1011+013509039GF106991011001012501041061MA1999999069351MD1710021+9999ME1430309REMSYN082AAXX  02124 11146 32689 62907 11055 21157 36935 47030 57002 81046 333 81345 85270;EQDQ01  00002PRCP99
0174111460999992000020215004+47050+012950FM-12+310799999V0202901N00151036001CN0400001N1-00481-01211999999ADDGA1021+001809079GF108991021061001501011061MA1999999069211MD1710141+9999ME1430229REMSYN082AAXX  02154 11146 42282 82903 11048 21121 36921 47022 57014 82616 333 82706 85442;
0226111460999992000020218004+47050+012950FM-12+310799999V0202801N005710001519N0001001N1-00701-00751999999ADDAA112000191AY171061AY241061GA1091+000159999GF109991091999999999999999KA1120M-00441MA1999999069141MD1710071+9999ME1430159MW1701REMSYN088AAXX  02184 11146 11/01 92811 11070 21075 36914 47015 57007 69922 77074 333 11044 89/00;
0294111460999992000020306004+47050+012950FM-12+310799999V0200301N005110001519N0000001N1-01181-01201999999ADDAA112007991AJ101909199999999AL10600891AY171061AY241061GA1091+000159999GF109991091999999999999999IA1299KA1120N-01201MA1999999069201MD1210021+9999ME1430239MW1701OA149901031REMSYN112AAXX  03064 11146 11/00 90310 11118 21120 36920 47023 52002 60082 77074 333 21120 49190 89/00 91120 92611 93108;
0213111460999992000020309004+47050+012950FM-12+310799999V0200301N005110001519N0000001N1-01211-01241999999ADDAY171031AY241031GA1091+000159999GF109991091999999999999999MA1999999069311MD1210111+9999ME1430359MW1701OA149900821REMSYN088AAXX  03094 11146 41/00 90310 11121 21124 36931 47035 52011 77074 333 89/00 91116 92611;
0213111460999992000020312004+47050+012950FM-12+310799999V0200301N002610001519N0000001N1-01231-01281999999ADDAA106004191AY171061AY241061GA1091+000159999GF109991091999999999999999MA1999999069461MD1210151+9999ME1430529MW1711REMSYN088AAXX  03124 11146 11/00 90305 11123 21128 36946 47052 52015 60041 77174 333 89/00 92612;
0213111460999992000020315004+47050+012950FM-12+310799999V0200301N005710001519N0000001N1-01311-01401999999ADDAY171031AY241031GA1091+000159999GF109991091999999999999999MA1999999069471MD1210011+9999ME1430539MW1711OA149900981REMSYN088AAXX  03154 11146 41/00 90311 11131 21140 36947 47053 52001 77174 333 89/00 91119 92612;
0249111460999992000020318004+47050+012950FM-12+310799999V0200201N007210001519N0000001N1-01371-01431999999ADDAA112007191AY171061AY241061GA1091+000159999GF109991091999999999999999KA1120M-01181MA1999999069541MD1210071+9999ME1430619MW1711OA149901131REMSYN100AAXX  03184 11146 11/00 90214 11137 21143 36954 47061 52007 60072 77174 333 11118 89/00 91122 92612;
0306111460999992000020406004+47050+012950FM-12+310799999V0203601N006212200019N0150001N1-01541-01621999999ADDAA112003091AJ102009199999999AL19901591GA1021+999999069GF102991021051999999001001GG1029999999069999IA1299KA1120N-01581MA1999999069861MD1210111+9999ME1430969OA149901031REMSYN128AAXX  04064 11146 12/65 23612 11154 21162 36986 47096 52011 60032 82500 333 21158 49200 826// 93115 91120 92612 444 26/// 24302;
0219111460999992000020409004+47050+012950FM-12+310799999V0203201N006212200019N0750001N1-01341-01361999999ADDGA1011+060009009GF101991001001999999001021GG1069006009039999MA1999999070011MD1210151+9999ME1431119OA149901031REMSYN098AAXX  04094 11146 42989 13212 11134 21136 37001 47111 52015 80002 333 81070 91120 92612 444 26306;
0204111460999992000020412004+47050+012950FM-12+310799999V0203201N008712200019N0750001N1-01251-01421999999ADDAA199000091GA1011+060009009GF101991001001999999001021MA1999999070141MD1210131+9999ME1431259REMSYN082AAXX  04124 11146 32989 13217 11125 21142 37014 47125 52013 80002 333 81070 91122;EQDQ01  00002PRCP99
0158111460999992000020415004+47050+012950FM-12+310799999V0203301N006712200019N0750001N1-01091-01351999999ADDGF103991001001999999001021MA1999999070111MD1810031+9999ME1431229REMSYN082AAXX  04154 11146 42989 33313 11109 21135 37011 47122 58003 80002 333 83070 91123;
0245111460999992000020418004+47050+012950FM-12+310799999V0203201N008712200019N0750001N1-00981-01371999999ADDAA199000091GA1011+013509039GA2031+066009009GF103991011001012501041021KA1120M-00971MA1999999070131MD1310021+9999ME1431249REMSYN094AAXX  04184 11146 32689 33217 11098 21137 37013 47124 53002 81042 333 11097 81345 83072 91128;EQDQ01  00002PRCP99
0294111460999992000020506004+47050+012950FM-12+310799999V0203601N004610001519N0000001N1-00581-00601999999ADDAA112001091AJ101959199999999AL19900291AY171061AY241061GA1091+000159999GF109991091999999999999999IA1299KA1120N-01001MA1999999070191MD1210021+9999ME1431319MW1701OA149901341REMSYN112AAXX  05064 11146 11/00 93609 11058 21060 37019 47131 52002 60012 77074 333 21100 49195 89/00 93102 91126 92611;
0213111460999992000020509004+47050+012950FM-12+310799999V0200201N005710001519N0001001N1-00581-00591999999ADDAY171031AY241031GA1091+000159999GF109991091999999999999999MA1999999070241MD1210051+9999ME1431379MW1711OA149901241REMSYN088AAXX  05094 11146 41/01 90211 11058 21059 37024 47137 52005 77174 333 89/00 91124 92611;
0230111460999992000020512004+47050+012950FM-12+310799999V0200201N007710001519N0001001N1-00511-00581999999ADDAA106004191AY171061AY241061GA1091+000159999GF109991091999999999999999MA1999999070261MD1210021+9999ME1431399MW1711OA149901341REMSYN094AAXX  05124 11146 11/01 90215 11051 21058 37026 47139 52002 60041 77174 333 89/00 91126 92611;
0213111460999992000020515004+47050+012950FM-12+310799999V0200201N006710001519N0001001N1-00561-00601999999ADDAY171031AY241031GA1091+000159999GF109991091999999999999999MA1999999070231MD1810031+9999ME1431369MW1701OA149901031REMSYN088AAXX  05154 11146 41/01 90213 11056 21060 37023 47136 58003 77074 333 89/00 91120 92611;
0192111460999992000020518004+47050+012950FM-12+310799999V0200201N004610001519N0000001N1-00611-00671999999ADDGA1091+000159999GF109991091999999999999999KA1120M-00501MA1999999070281OA149901031REMSYN099AAXX  05184 11146 11/00 90209 11061 21067 37028 7141 53005 60062 77074 333 11050 89/00 91120 92611;
0255111460999992000020606004+47050+012950FM-12+310799999V0202601N003112200019N0750001N1-00701-00861999999ADDAA112000591AJ101959199999999AL19900891GA1011+066009009GF101991001001999999001021IA1299KA1120N-00761MA1999999070171MD1810041+9999ME1431299REMSYN106AAXX  06064 11146 12989 12606 11070 21086 37017 47129 58004 69942 80002 333 21076 49195 81072 93108 92611;
0180111460999992000020609004+47050+012950FM-12+310799999V0203001N002612200019N0750001N1-00601-01091999999ADDGA1021+066009009GF102991001001999999001021MA1999999070171MD1410001+9999ME1431299REMSYN088AAXX  06094 11146 42989 23005 11060 21109 37017 47129 54000 80002 333 82072 92611 95110;
0210111460999992000020612004+47050+012950FM-12+310799999V0202501N002612200019N0750001N1-00471-01221999999ADDAA199000091GA1031+066009009GF103991001001999999001021MA1999999070141MD1810031+9999ME1431269REMSYN088AAXX  06124 11146 32989 32505 11047 21122 37014 47126 58003 80002 333 83072 92611 95110;EQDQ01  00002PRCP99
0196111460999992000020615004+47050+012950FM-12+310799999V0202501N005112200019N0500001N1-00521-01121999999ADDGA1011+002709069GA2031+045009009GF103991011051002501001021MA1999999070001MD1710141+9999ME1431109REMSYN088AAXX  06154 11146 42384 32510 11052 21112 37000 47110 57014 81502 333 81609 83065 95110;
0223111460999992000020618004+47050+012950FM-12+310799999V0202701N00361090001CN0500001N1-00581-01201999999ADDAA199000091GA1031+013509049GF106991031001012501021021KA1120M-00421MA1999999069941MD1710061+9999ME1431049REMSYN088AAXX  06184 11146 32684 62707 11058 21120 36994 47104 57006 83022 333 11042 83445 83065;EQDQ01  00002PRCP99
0252111460999992000020706004+47050+012950FM-12+310799999V0202601N004112200019N0750001N1-00741-00951999999ADDAA199000091AJ101909199999999GA1021+013509049GF104991021001012501021021IA1299KA1120N-00781MA1999999069501MD1710141+9999ME1430559REMSYN094AAXX  07064 11146 32689 42608 11074 21095 36950 47055 57014 82022 333 21078 49190 82445 83070;EQDQ01  00002PRCP99
0196111460999992000020709004+47050+012950FM-12+310799999V0202501N003110600019N0700001N1-00661-01081999999ADDGA1031+013509049GA2031+060009009GF105991031001012501021021MA1999999069491MD1710011+9999ME1430549REMSYN088AAXX  07094 11146 42688 52506 11066 21108 36949 47054 57001 83022 333 83445 83070 95110;
0254111460999992000020712004+47050+012950FM-12+310799999V0202601N003110600019N0700001N1-00571-00871999999ADDAA199000091GA1021+013509039GA2061+060009029GF107991021001012501041061GG1079073009029999MA1999999069471MD1710021+9999ME1430519REMSYN098AAXX  07124 11146 32688 72606 11057 21087 36947 47051 57002 82046 333 82345 86270 95110 444 17273;EQDQ01  00002PRCP99
0200111460999992000020715004+47050+012950FM-12+310799999V0202501N002119999999N0080001N1-00581-00681999999ADDGA1031+013509039GA2031+999999069GF105991031051999999041021MA1999999069361MD1710111+9999ME1430399REMSYN092AAXX  07154 11146 42/58 52504 11058 21068 36936 47039 57011 83542 333 836// 83345 444 36///;
0232111460999992000020718004+47050+012950FM-12+310799999V0203101N002610001519N0000001N1-00771-00831999999ADDAA112001091AY171061AY241061GA1091+000159999GF109991091999999999999999KA1120M-00561MA1999999069371MD1310011+9999ME1430419MW1711REMSYN094AAXX  07184 11146 11/00 93105 11077 21083 36937 47041 53001 60012 77174 333 11056 89/00 92610;
0294111460999992000020806004+47050+012950FM-12+310799999V0202801N002610001519N0000001N1-00731-00791999999ADDAA112003091AJ101959199999999AL19900591AY171061AY241061GA1091+000159999GF109991091999999999999999IA1299KA1120N-00971MA1999999069081MD1710101+9999ME1430089MW1711OA149900771REMSYN112AAXX  08064 11146 11/00 92805 11073 21079 36908 47008 57010 60032 77174 333 21097 49195 89/00 93105 91115 92612;
0200111460999992000020809004+47050+012950FM-12+310799999V0202701N00411013501CN0050001N1-00861-00901999999ADDGA1051+013509049GA2031+999999069GF107991031051999999021021MA1999999069131MD1310051+9999ME1430159REMSYN092AAXX  08094 11146 42/50 72708 11086 21090 36913 47015 53005 83522 333 836// 85445 444 36///;
0191111460999992000020812004+47050+012950FM-12+310799999V0202301N00411090001CN0750001N1-00711-01041999999ADDAA106000591GA1021+013509039GF106991021001012501031051MA1999999069111MD1810021+9999ME1430119REMSYN088AAXX  08124 11146 12689 62308 11071 21104 36911 47011 58002 69941 82035 333 82345 84272;
0196111460999992000020815004+47050+012950FM-12+310799999V0202901N00671012001CN0300001N1-00501-00661999999ADDGA1031+004509069GA2031+012009039GF107991031051004501041051MA1999999069001MD1710111+9999ME1429989REMSYN088AAXX  08154 11146 42480 72913 11050 21066 36900 47998 57011 83545 333 83615 83340 91127;
0232111460999992000020818004+47050+012950FM-12+310799999V0202601N006710001519N0001001N1-00541-00611999999ADDAA112002091AY171061AY241061GA1091+000159999GF109991091999999999999999KA1120M-00481MA1999999068911MD1710091+9999ME1429889MW1701REMSYN094AAXX  08184 11146 11/01 92613 11054 21061 36891 47988 57009 60022 77074 333 11048 89/00 91122;
0277111460999992000020906004+47050+012950FM-12+310799999V0200401N003110001519N0000001N1-01041-01091999999ADDAA112020191AJ102209199999999AL10603091AY171061AY241061GA1091+000159999GF109991091999999999999999IA1299KA1120N-01041MA1999999068701MD1710071+9999ME1429679MW1751REMSYN106AAXX  09064 11146 11/00 90406 11104 21109 36870 47967 57007 60202 77574 333 21104 49220 89/00 92611 93130;
0213111460999992000020909004+47050+012950FM-12+310799999V0203301N004110001519N0000001N1-01291-01341999999ADDAY171031AY241031GA1091+000159999GF109991091999999999999999MA1999999068741MD1310041+9999ME1429729MW1731OA149900931REMSYN088AAXX  09094 11146 41/00 93308 11129 21134 36874 47972 53004 77374 333 89/00 91118 92611;
0230111460999992000020912004+47050+012950FM-12+310799999V0202601N002110001519N0000001N1-01401-01461999999ADDAA106011991AY171061AY241061GA1091+000159999GF109991091999999999999999MA1999999068721MD1010021+9999ME1429719MW1731OA149900821REMSYN094AAXX  09124 11146 11/00 92604 11140 21146 36872 47971 50002 60121 77374 333 89/00 91116 92611;
0196111460999992000020915004+47050+012950FM-12+310799999V0200301N004110001519N0000001N1-01611-01661999999ADDAY171031AY241031GA1091+000159999GF109991091999999999999999MA1999999068551MD1710171+9999ME1429539MW1711REMSYN082AAXX  09154 11146 41/00 90308 11161 21166 36855 47953 57017 77174 333 89/00 92611;
0249111460999992000020918004+47050+012950FM-12+310799999V0200201N006210001519N0000001N1-01741-01841999999ADDAA112019191AY171061AY241061GA1091+000159999GF109991091999999999999999KA1120M-01041MA1999999068651MD1310101+9999ME1429659MW1711OA149901291REMSYN100AAXX  09184 11146 11/00 90212 11174 21184 36865 47965 53010 60192 77174 333 11104 89/00 91125 92611;
0294111460999992000021006004+47050+012950FM-12+310799999V0200901N007210001519N0000001N1-01631-01701999999ADDAA112006191AJ102409199999999AL19904091AY171061AY241061GA1091+000159999GF109991091999999999999999IA1299KA1120N-01741MA1999999069061MD1210141+9999ME1430099MW1711OA149901341REMSYN112AAXX  10064 11146 11/00 90914 11163 21170 36906 47009 52014 60062 77174 333 21174 49240 89/00 93140 91126 92612;
0229111460999992000021009004+47050+012950FM-12+310799999V0200201N009319999999N0001001N1-01591-01651999999ADDAY171031AY241031GA1071+999999079GF107991071061999999999999MA1999999069231MD1210171+9999ME1430289MW1701OA149902061REMSYN104AAXX  10094 11146 41/01 70218 11159 21165 36923 47028 52017 77074 876// 333 877// 91140 92612 444 77///;
0264111460999992000021012004+47050+012950FM-12+310799999V0200201N010312200019N0500001N1-01311-01421999999ADDAA106001091AY171061AY241061GA1021+999999069GF102991021051999999001001GG1069999999999999MA1999999069351MD1210121+9999ME1430409MW1011OA149901441REMSYN110AAXX  10124 11146 11/84 20220 11131 21142 36935 47040 52012 60011 70174 82500 333 826// 91128 92612 444 26///;
0191111460999992000021015004+47050+012950FM-12+310799999V0203501N007212200019N0750001N1-01081-01371999999ADDGA1011+060009009GF101991001001999999001011MA1999999069421MD1210071+9999ME1430479OA149900821REMSYN088AAXX  10154 11146 42989 13514 11108 21137 36942 47047 52007 80001 333 81070 91116 92612;
0227111460999992000021018004+47050+012950FM-12+310799999V0203601N006212200019N0750001N1-01191-01821999999ADDAA112001091GA1011+060009009GF101991001001999999001011KA1120M-01021MA1999999069501MD1210081+9999ME1430569OA149901081REMSYN100AAXX  10184 11146 12989 13612 11119 21182 36950 47056 52008 60012 80001 333 11102 81070 91121 92611;
0252111460999992000021106004+47050+012950FM-12+310799999V0200601N00101012001CN0750001N1-00861-01471999999ADDAA199000091AJ102409199999999GA1011+012009039GF107991071001012501071001IA1299KA1120N-01201MA1999999069371MD1710041+9999ME1430429REMSYN094AAXX  11064 11146 32689 70602 11086 21147 36937 47042 57004 87070 333 21120 49240 81340 86445;EQDQ01  00002PRCP99
0174111460999992000021109004+47050+012950FM-12+310799999V0200501N000519999999N0200001N1-00831-01591999999ADDGA1031+999999079GF107991031061999999021001MA1999999069461MD1310091+9999ME1430519REMSYN082AAXX  11094 11146 42/70 70501 11083 21159 36946 47051 53009 83620 333 837// 85440;
0230111460999992000021112004+47050+012950FM-12+310799999V0200401N00101012001CN0100001N1-00701-01621999999ADDAA199000091GA1051+012009049GA2031+999999079GF107991031061999999021001MA1999999069481MD1210021+9999ME1430539REMSYN092AAXX  11124 11146 32/60 70402 11070 21162 36948 47053 52002 83620 333 837// 85440 444 37///;EQDQ01  00002PRCP99
0200111460999992000021115004+47050+012950FM-12+310799999V0202401N00311012001CN0100001N1-00861-01141999999ADDGA1061+012009049GA2031+999999079GF108991031061999999021999MA1999999069461MD1810021+9999ME1430519REMSYN092AAXX  11154 11146 42/60 82406 11086 21114 36946 47051 58002 8362/ 333 837// 86440 444 37///;
0267111460999992000021118004+47050+012950FM-12+310799999V0202301N00311012001CN0100001N1-01041-01361999999ADDAA199000091GA1061+012009049GA2031+999999079GF108991031061999999021999GG1079999999999999KA1120M-00681MA1999999069491MD1310031+9999ME1430559REMSYN098AAXX  11184 11146 32/60 82306 11104 21136 36949 47055 53003 8362/ 333 11068 837// 86440 444 37///;EQDQ01  00002PRCP99
0200111460999992000021209004+47050+012950FM-12+310799999V0200801N002610660019N0750001N1-01061-01801999999ADDGA1021+012609039GA2041+066009029GF105991021001012501031031MA1999999069231MD1710051+9999ME1430269REMSYN092AAXX  12094 11146 42689 50805 11106 21180 36923 47026 57005 82033 333 82342 84272 444 16162;
0230111460999992000021212004+47050+012950FM-12+310799999V0200301N002110660019N0750001N1-01171-01921999999ADDAA199000091GA1021+012009049GA2041+066009029GF105991021001012501011031MA1999999069201MD1710031+9999ME1430239REMSYN092AAXX  12124 11146 32689 50304 11117 21192 36920 47023 57003 82013 333 82440 84272 444 16182;EQDQ01  00002PRCP99
0200111460999992000021215004+47050+012950FM-12+310799999V0200201N004610360019N0500001N1-01301-01481999999ADDGA1011+001809069GA2031+012009049GF106991011051001501031001MA1999999069111MD1710091+9999ME1430139REMSYN092AAXX  12154 11146 42284 60209 11130 21148 36911 47013 57009 81530 333 81606 83440 444 16182;
0227111460999992000021218004+47050+012950FM-12+310799999V0200201N003619999999N0000001N1-01321-01441999999ADDAA199000091GA1071+999999079GF107991071061999999999999KA1120M-01051MA1999999069111MD1410001+9999ME1430139REMSYN092AAXX  12184 11146 31/00 70207 11132 21144 36911 47013 54000 876// 333 11105 877// 444 77///;EQDQ01  00002PRCP99
0273111460999992000021306004+47050+012950FM-12+310799999V0203401N007212200019N0500001N1-01241-01851999999ADDAA199000091AJ102359199999999GA1011+002709069GF102991011051002501001021IA1299KA1120N-01381MA1999999069111MD1410001+9999ME1430139OA149901441REMSYN104AAXX  13064 11146 32384 23414 11124 21185 36911 47013 54000 81502 333 21138 49235 81609 91128 444 16272;EQDQ01  00002PRCP99
0132111460999992000021309004+47050+012950FM-12+310799999V0202601N004612200019N0300001N1-01211-01451999999ADDGF102991011051999999001021MA1999999069141ME1430169REMSYN070AAXX  13094 11146 42/80 22609 11121 21145 36914 47016 81502 333 816//;
0241111460999992000021312004+47050+012950FM-12+310799999V0202701N005719999999N0050001N1-00981-01131999999ADDAA106000791AY171061AY241061GA1041+002409079GA2031+999999069GF107991071061999999999999MA1999999069101MD1810041+9999ME1430119MW1481REMSYN100AAXX  13124 11146 11/50 72711 11098 21113 36910 47011 58004 69901 74874 876// 333 836// 84708 91122;
0160111460999992000021315004+47050+012950FM-12+310799999V0202301N004619999999N0010001N1-00971-01041999999ADDAY171031AY241031GF107991071061999999999999MA1999999069001ME1430009MW1701REMSYN076AAXX  13154 11146 41/10 72309 11097 21104 36900 47000 77074 876// 333 877//;
0249111460999992000021318004+47050+012950FM-12+310799999V0202401N005710001519N0001001N1-01041-01091999999ADDAA112003091AY171061AY241061GA1091+000159999GF109991091999999999999999KA1120M-00961MA1999999068931MD1710071+9999ME1429929MW1711OA149900721REMSYN100AAXX  13184 11146 11/01 92411 11104 21109 36893 47992 57007 60032 77174 333 11096 89/00 91114 92610;
0294111460999992000021406004+47050+012950FM-12+310799999V0202701N004610001519N0000001N1-01141-01471999999ADDAA112018091AJ102559199999999AL19903091AY171061AY241061GA1091+000159999GF109991091999999999999999IA1299KA1120N-01401MA1999999068881MD1710021+9999ME1429889MW1731OA149901241REMSYN112AAXX  14064 11146 11/00 92709 11114 21147 36888 47988 57002 60182 77374 333 21140 49255 89/00 93130 91124 92612;
0229111460999992000021409004+47050+012950FM-12+310799999V0202801N003119999999N0003001N1-01361-01421999999ADDAY171031AY241031GA1071+999999079GF108991071061999999999999MA1999999068951MD1310071+9999ME1429969MW1701OA149900981REMSYN104AAXX  14094 11146 41/03 82806 11136 21142 36895 47996 53007 77074 876// 333 877// 91119 92612 444 77///;
0264111460999992000021412004+47050+012950FM-12+310799999V0203001N005119999999N0003001N1-01291-01341999999ADDAA106002091AY171061AY241061GA1071+999999079GF107991071061999999999999GG1079999999999999MA1999999068991MD1210041+9999ME1430009MW1701OA149901081REMSYN110AAXX  14124 11146 11/03 73010 11129 21134 36899 47000 52004 60021 77074 876// 333 877// 91121 92612 444 77///;
0229111460999992000021415004+47050+012950FM-12+310799999V0203301N006219999999N0004001N1-01261-01341999999ADDAY141031AY221031GA1061+999999079GF106991061061999999001021MA1999999068951MD1810041+9999ME1429969MW1481OA149901131REMSYN104AAXX  14154 11146 41/04 63312 11126 21134 36895 47996 58004 74842 86602 333 867// 91122 92612 444 67///;
0249111460999992000021418004+47050+012950FM-12+310799999V0200401N005110001519N0000001N1-01361-01381999999ADDAA112002091AY171061AY241061GA1091+000159999GF109991091999999999999999KA1120M-01251MA1999999068991MD1310041+9999ME1430009MW1491OA149901181REMSYN100AAXX  14184 11146 11/00 90410 11136 21138 36899 47000 53004 60022 74974 333 11125 89/00 91123 92612;
0310111460999992000021506004+47050+012950FM-12+310799999V0202901N005110001519N0000001N1-00991-01091999999ADDAA112000591AJ102559199999999AL19900291AY171061AY241061GA1071+999999079GF109991091999999999999999IA1299KA1120N-01361MA1999999069051MD1010021+9999ME1430069MW1701OA149901081REMSYN128AAXX  15064 11146 11/00 92910 11099 21109 36905 47006 50002 69952 77074 876// 333 21136 49255 877// 91121 92611 93102 444 77///;
0213111460999992000021509004+47050+012950FM-12+310799999V0202901N007210001519N0001001N1-00811-00831999999ADDAY171031AY241031GA1091+000159999GF109991091999999999999999MA1999999068951MD1810101+9999ME1429959MW1701OA149901181REMSYN088AAXX  15094 11146 41/01 92914 11081 21083 36895 47995 58010 77074 333 89/00 91123 92611;
0213111460999992000021512004+47050+012950FM-12+310799999V0203201N005710001519N0002001N1-00781-00911999999ADDAA106002091AY171061AY241061GA1091+000159999GF109991091999999999999999MA1999999068981MD1210031+9999ME1429989MW1701REMSYN088AAXX  15124 11146 11/02 93211 11078 21091 36898 47998 52003 60021 77074 333 89/00 92611;
0196111460999992000021515004+47050+012950FM-12+310799999V0203201N004110001519N0000001N1-00851-00941999999ADDAY171031AY241031GA1091+000159999GF109991091999999999999999MA1999999068951MD1710041+9999ME1428959MW1701REMSYN082AAXX  15154 11146 41/00 93208 11085 21094 36895 47895 57004 77074 333 89/00 91115;
0226111460999992000021518004+47050+012950FM-12+310799999V0202701N002110001519N0000001N1-01021-01131999999ADDAA112007991AY171061AY241061GA1091+000159999GF109991091999999999999999KA1120M-00761MA1999999068921MD1710021+9999ME1433939MW1701REMSYN088AAXX  15184 11146 11/00 92704 11102 21113 36892 47393 57002 60082 77074 333 11076 89/00;
0311111460999992000021606004+47050+012950FM-12+310799999V0202301N005119999999N0009001N1-01131-01201999999ADDAA112000591AJ102609199999999AL19901591AY171061AY241061GA1071+999999079GF107991071061999999999999GG1079999999999999IA1299KA1120N-01151MA1999999068151MD1710201+9999ME1429059MW1701REMSYN122AAXX  16064 11146 11/09 72310 11113 21120 36815 47905 57020 69962 77074 876// 333 21115 49260 877// 93115 92611 444 77///;
0213111460999992000021612004+47050+012950FM-12+310799999V0202401N004110001519N0000001N1-01101-01201999999ADDAA106001091AY171061AY241061GA1091+000159999GF109991091999999999999999MA1999999067951MD1710071+9999ME1428859MW1701REMSYN088AAXX  16124 11146 11/00 92408 11110 21120 36795 47885 57007 60011 77074 333 89/00 92611;
0196111460999992000021615004+47050+012950FM-12+310799999V0200501N001510001519N0000001N1-01301-01461999999ADDAY171031AY241031GA1091+000159999GF109991091999999999999999MA1999999067781MD1710161+9999ME1428669MW1731REMSYN082AAXX  16154 11146 41/00 90503 11130 21146 36778 47866 57016 77374 333 89/00 92611;
0232111460999992000021618004+47050+012950FM-12+310799999V0200401N002110001519N0000001N1-01711-01761999999ADDAA112009991AY171061AY241061GA1091+000159999GF109991091999999999999999KA1120M-01101MA1999999067611MD1710171+9999ME1428509MW1711REMSYN094AAXX  16184 11146 11/00 90404 11171 21176 36761 47850 57017 60102 77174 333 11110 89/00 92610;
0277111460999992000021706004+47050+012950FM-12+310799999V0200201N005110001519N0000001N1-02071-02111999999ADDAA112003091AJ102709199999999AL19903091AY171061AY241061GA1091+000159999GF109991091999999999999999IA1299KA1120N-02101MA1999999067321MD1710101+9999ME1428229MW1701REMSYN106AAXX  17064 11146 11/00 90210 11207 21211 36732 47822 57010 60032 77074 333 21210 49270 89/00 93130 91130;
0241111460999992000021709004+47050+012950FM-12+310799999V0203201N008219999999N0009001N1-02091-02131999999ADDAY171031AY241031GA1071+999999079GF107991071061999999999999GG1079999999999999MA1999999067301MD1710021+9999ME1428189MW1411OA149903601REMSYN098AAXX  17094 11146 41/09 73216 11209 21213 36730 47818 57002 74174 876// 333 877// 91170 444 77///;
0219111460999992000021712004+47050+012950FM-12+310799999V0203201N008219999999N0008001N1-01881-01981999999ADDAA106001091AY141061AY221061GA1071+999999079GF107991071061999999999999MA1999999067381MD1210081+9999ME1428279MW1411REMSYN094AAXX  17124 11146 11/08 73216 11188 21198 36738 47827 52008 60011 74142 876// 333 877// 91119;
0260111460999992000021715004+47050+012950FM-12+310799999V0203201N003119999999N0002001N1+99999-01761999999ADDAY141031AY221031GA1071+999999079GF107991071061999999999999GG1079999999999999MA1999999067451MD1210071+9999ME1428329MW1411OA149900931REMSYN098AAXX  17154 11146 41/02 73206 11072 21176 36745 47832 52007 74142 876// 333 877// 91118 444 77///;EQDQ01-000723ATOT  
0277111460999992000021718004+47050+012950FM-12+310799999V0203101N004119999999N0005001N1-01931-01981999999ADDAA112002091AY171061AY241061GA1071+999999079GF107991071061999999999999GG1079999999999999KA1120M-01711MA1999999067581MD1710131+9999ME1428499MW1411OA149900771REMSYN110AAXX  17184 11146 11/05 73108 11193 21198 36758 47849 57013 60022 74174 876// 333 11171 877// 91115 444 77///;
0277111460999992000021806004+47050+012950FM-12+310799999V0203501N001510001519N0000001N1-01971-02041999999ADDAA112009991AJ102809199999999AL19902091AY171061AY241061GA1091+000159999GF109991091999999999999999IA1299KA1120N-02021MA1999999068001MD1210141+9999ME1428959MW1711REMSYN106AAXX  18064 11146 11/00 93503 11197 21204 36800 47895 52014 60102 77174 333 21202 49280 89/00 93120 92611;
0229111460999992000021809004+47050+012950FM-12+310799999V0203301N006219999999N0005001N1-01961-02041999999ADDAY171031AY241031GA1041+999999079GF105991041061999999001011MA1999999068061MD1210061+9999ME1429029MW1411OA149901031REMSYN104AAXX  18094 11146 41/05 53312 11196 21204 36806 47902 52006 74174 84601 333 847// 91120 92611 444 47///;
0213111460999992000021812004+47050+012950FM-12+310799999V0203601N00051090001CN0450001N1-01721-01911999999ADDAA106000591GA1041+060009039GA2041+060009029GF105991041001012501071051MA1999999068081MD1210021+9999ME1429049REMSYN094AAXX  18124 11146 12683 53601 11172 21191 36808 47904 52002 69951 84075 333 84370 84270 92611;
0213111460999992000021815004+47050+012950FM-12+310799999V0202501N006210001519N0002001N1-01481-01531999999ADDAY171031AY241031GA1091+000159999GF109991091999999999999999MA1999999067961MD1810121+9999ME1428879MW1701OA149900881REMSYN088AAXX  18154 11146 41/02 92512 11148 21153 36796 47887 58012 77074 333 89/00 91117 92611;
0249111460999992000021818004+47050+012950FM-12+310799999V0202601N006210001519N0000001N1-01281-01301999999ADDAA112003091AY171061AY241061GA1091+000159999GF109991091999999999999999KA1120M-01271MA1999999067981MD1010021+9999ME1428879MW1711OA149901131REMSYN100AAXX  18184 11146 11/00 92612 11128 21130 36798 47887 50002 60032 77174 333 11127 89/00 91122 92611;
0277111460999992000021906004+47050+012950FM-12+310799999V0202601N004110001519N0000001N1-01241-01291999999ADDAA112009991AJ102909199999999AL19902091AY171061AY241061GA1091+000159999GF109991091999999999999999IA1299KA1120N-01281MA1999999067931MD1510021+9999ME1428819MW1731REMSYN106AAXX  19064 11146 11/00 92608 11124 21129 36793 47881 55002 60102 77374 333 21128 49290 89/00 93120 92611;
0229111460999992000021909004+47050+012950FM-12+310799999V0202801N006719999999N0002001N1-01271-01341999999ADDAY171031AY241031GA1071+999999079GF107991071061999999999999MA1999999067921MD1510011+9999ME1428809MW1701OA149901181REMSYN104AAXX  19094 11146 41/02 72813 11127 21134 36792 47880 55001 77074 876// 333 877// 91123 92611 444 77///;
0230111460999992000021912004+47050+012950FM-12+310799999V0202701N004110001519N0001001N1-01151-01211999999ADDAA106002091AY171061AY241061GA1091+000159999GF109991091999999999999999MA1999999068001MD1310081+9999ME1428889MW1701OA149901241REMSYN094AAXX  19124 11146 11/01 92708 11115 21121 36800 47888 53008 60021 77074 333 89/00 91124 92611;
0196111460999992000021915004+47050+012950FM-12+310799999V0202601N004110001519N0001001N1-01201-01241999999ADDAY171031AY241031GA1091+000159999GF109991091999999999999999MA1999999068021MD1210021+9999ME1428919MW1711REMSYN082AAXX  19154 11146 41/01 92608 11120 21124 36802 47891 52002 77174 333 89/00 92611;
0232111460999992000021918004+47050+012950FM-12+310799999V0203001N002110001519N0000001N1-01271-01301999999ADDAA112007191AY171061AY241061GA1091+000159999GF109991091999999999999999KA1120M-01111MA1999999068041MD1210021+9999ME1428949MW1731REMSYN094AAXX  19184 11146 11/00 93004 11127 21130 36804 47894 52002 60072 77374 333 11111 89/00 92611;
0277111460999992000022006004+47050+012950FM-12+310799999V0203201N003110001519N0000001N1-01561-01601999999ADDAA112018091AJ103309199999999AL19905091AY171061AY241061GA1091+000159999GF109991091999999999999999IA1299KA1120N-01561MA1999999068181MD1210041+9999ME1429129MW1731REMSYN106AAXX  20064 11146 11/00 93206 11156 21160 36818 47912 52004 60182 77374 333 21156 49330 89/00 93150 92611;
0196111460999992000022009004+47050+012950FM-12+310799999V0200301N002110001519N0000001N1-01581-01601999999ADDAY171031AY241031GA1091+000159999GF109991091999999999999999MA1999999068241MD1210061+9999ME1429199MW1731REMSYN082AAXX  20094 11146 41/00 90304 11158 21160 36824 47919 52006 77374 333 89/00 92611;
0230111460999992000022012004+47050+012950FM-12+310799999V0200601N004110001519N0000001N1-01581-01641999999ADDAA106005191AY171061AY271061GA1091+000159999GF109991091999999999999999MA1999999068361MD1210121+9999ME1429339MW1711OA149901291REMSYN094AAXX  20124 11146 11/00 90608 11158 21164 36836 47933 52012 60051 77177 333 89/00 91125 92610;
0213111460999992000022015004+47050+012950FM-12+310799999V0200301N005710001519N0000001N1-01611-01641999999ADDAY171031AY241031GA1091+000159999GF109991091999999999999999MA1999999068441MD1210081+9999ME1429419MW1711OA149901031REMSYN088AAXX  20154 11146 41/00 90311 11161 21164 36844 47941 52008 77174 333 89/00 91120 92610;
0249111460999992000022018004+47050+012950FM-12+310799999V0200301N003110001519N0000001N1-01671-01701999999ADDAA112007991AY171061AY241061GA1091+000159999GF109991091999999999999999KA1120M-01551MA1999999068501MD1210061+9999ME1429489MW1701OA149901541REMSYN100AAXX  20184 11146 11/00 90306 11167 21170 36850 47948 52006 60082 77074 333 11155 89/00 91130 92610;
0294111460999992000022106004+47050+012950FM-12+310799999V0200101N007210001519N0000001N1-01971-02041999999ADDAA112005191AJ103409199999999AL19902091AY171061AY241061GA1091+000159999GF109991091999999999999999IA1299KA1120N-02021MA1999999068571MD1210041+9999ME1429589MW1701OA149901031REMSYN112AAXX  21064 11146 11/00 90114 11197 21204 36857 47958 52004 60052 77074 333 21202 49340 89/00 91120 93120 92611;
0196111460999992000022109004+47050+012950FM-12+310799999V0203501N007210001519N0000001N1-02171-02201999999ADDAY171031AY241031GA1091+000159999GF109991091999999999999999MA1999999068601MD1210031+9999ME1429609MW1451REMSYN082AAXX  21094 11146 41/00 93514 11217 21220 36860 47960 52003 74574 333 89/00 91122;
0241111460999992000022115004+47050+012950FM-12+310799999V0200101N004619999999N0009001N1-02131-02171999999ADDAY141031AY221031GA1071+999999079GF107991071061999999999999GG1079999999999999MA1999999068761MD1210011+9999ME1429799MW1411OA149900821REMSYN098AAXX  21154 11146 41/09 70109 11213 21217 36876 47979 52001 74142 876// 333 877// 91116 444 77///;
0226111460999992000022118004+47050+012950FM-12+310799999V0200101N003610001519N0001001N1-02171-02251999999ADDAA112000891AY171061AY241061GA1091+000159999GF109991091999999999999999KA1120M-01891MA1999999068801MD1210041+9999ME1429839MW1741REMSYN088AAXX  21184 11146 11/01 90107 11217 21225 36880 47983 52004 69982 77474 333 11189 89/00;
0288111460999992000022206004+47050+012950FM-12+310799999V0203501N008210600019N0750001N1-01721-03491999999ADDAA199000021AJ103309199999999AL19900191GA1041+012009039GA2031+060009009GF105991041001012501071011IA1299KA1120N-02201MA1999999068771MD1710021+9999ME1429789OA149901131REMSYN112AAXX  22064 11146 32689 53516 11172 21349 36877 47978 57002 84071 333 21220 49330 84340 83070 93101 91122 92611;
0213111460999992000022209004+47050+012950FM-12+310799999V0203601N006710600019N0750001N1-01681-03211999999ADDGA1031+013509039GA2031+060009009GF106991031001012501071021MA1999999069852MD1310071+9999ME1429869OA149901181REMSYN094AAXX  22094 11146 42689 63613 11168 21321 36985 47986 53007 83072 333 83345 83070 91123 92611;
0281111460999992000022212004+47050+012950FM-12+310799999V0203601N007719999999N0100001N1-01501-01752999999ADDAA199000091GA1041+060009009GA2031+999999069GF106991031051999999021021GG1069999999999999MA1999999069851MD1110011+9999ME1429869OA149901291REMSYN098AAXX  22124 11146 32/60 63615 11150 21175 36985 47986 51001 83522 333 836// 84070 91125 444 36///;EQDQ01-001753ATOD  Q02  00002PRCP99
0210111460999992000022215004+47050+012950FM-12+310799999V0200101N004119999999N0005001N1-01491-01521999999ADDAY141031AY221031GA1071+999999079GF107991071061999999999999MD1710011+9999ME1429859MW1411REMSYN092AAXX  22154 11146 42/05 70108 11149 21152 36884 47985 57001 74142 876// 333 877// 444 77///;EQDQ01+068843APOSP 
0277111460999992000022218004+47050+012950FM-12+310799999V0203401N005119999999N0003001N1-01621-01681999999ADDAA112001091AY171061AY241061GA1071+999999079GF107991071061999999999999GG1079999999999999KA1120M-01451MA1999999069851MD1310011+9999ME1429869MW1701OA149901181REMSYN110AAXX  22184 11146 11/03 73410 11162 21168 36985 47986 53001 60012 77074 876// 333 11145 877// 91123 444 77///;
0322111460999992000022306004+47050+012950FM-12+310799999V0203601N006719999999N0003001N1-01811-02001999999ADDAA112000791AJ103209199999999AL19900291AY141061AY221061GA1071+999999079GF107991071061999999999999GG1079999999999999IA1299KA1120N-01891MA1999999068781MD1710021+9999ME1429799MW1411OA149901181REMSYN122AAXX  23064 11146 11/03 73613 11181 21200 36878 47979 57002 69902 74142 876// 333 21189 49320 877// 93102 91123 444 77///;
0241111460999992000022309004+47050+012950FM-12+310799999V0203601N006219999999N0002001N1-01801-01851999999ADDAY171031AY241031GA1071+999999079GF107991071061999999999999GG1079999999999999MA1999999068831MD1310051+9999ME1429859MW1701OA149901131REMSYN098AAXX  23094 11146 41/02 73612 11180 21185 36883 47985 53005 77074 876// 333 877// 91122 444 77///;
0240111460999992000022312004+47050+012950FM-12+310799999V0203601N003619999999N0002001N1-01671-01801999999ADDAA106000791AY171061AY241061GA1071+999999079GF107991071061999999999999MA1999999068941MD1210111+9999ME1429969MW1411OA149900931REMSYN104AAXX  23124 11146 11/02 73607 11167 21180 36894 47996 52011 69901 74174 876// 333 877// 91118 444 77///;
0206111460999992000022315004+47050+012950FM-12+310799999V0200301N003119999999N0001001N1-01541-01601999999ADDAY171031AY241031GA1071+999999079GF107991071061999999999999MA1999999068961MD1110021+9999ME1429989MW1701REMSYN092AAXX  23154 11146 41/01 70306 11154 21160 36896 47998 51002 77074 876// 333 877// 444 77///;
0226111460999992000022318004+47050+012950FM-12+310799999V0200301N003110001519N0000001N1-01671-01771999999ADDAA112001091AY171061AY241061GA1091+000159999GF109991091999999999999999KA1120M-01521MA1999999068971MD1210011+9999ME1429989MW1701REMSYN088AAXX  23184 11146 11/00 90306 11167 21177 36897 47998 52001 60012 77074 333 11152 89/00;
0288111460999992000022406004+47050+012950FM-12+310799999V0203401N009812200019N0750001N1-01511-01971999999ADDAA112001091AJ103209199999999AL19900291GA1001+999999999GF100991001001999999001001GG1069003009039999IA1299KA1120N-01621MA1999999069131MD1210061+9999ME1430179OA149901291REMSYN110AAXX  24064 11146 12989 03419 11151 21197 36913 47017 52006 60012 333 21162 49320 93102 91125 92611 444 46303;
0237111460999992000022409004+47050+012950FM-12+310799999V0203601N010312200019N0750001N1-01331-02021999999ADDGA1011+999999069GF101991011051999999001021GG1019999999069999GG2069006009039999MA1999999069251MD1210121+9999ME1430299OA149901541REMSYN098AAXX  24094 11146 42/89 13620 11133 21202 36925 47029 52012 81502 333 816// 91130 444 16/// 36306;
0271111460999992000022412004+47050+012950FM-12+310799999V0203401N011312200019N0750001N1-01121-01621999999ADDAA199000091GA1031+060009009GA2011+999999069GF103991011051999999001021GG1019999999069999MA1999999069351MD1210101+9999ME1430399OA149901491REMSYN104AAXX  24124 11146 32/89 33422 11112 21162 36935 47039 52010 81502 333 816// 83070 91129 444 16/// 36306;EQDQ01  00002PRCP99
0235111460999992000022415004+47050+012950FM-12+310799999V0203401N011812200019N0300001N1-00961-01841999999ADDGA1031+013509039GA2021+999999069GF104991021051999999031021GG1069999999999999MA1999999069891MD1210041+9999ME1430439OA149901491REMSYN098AAXX  24154 11146 42/80 43423 11096 21184 36989 47043 52004 82532 333 826// 83345 91129 444 26///;
0238111460999992000022418004+47050+012950FM-12+310799999V0203401N007710001519N0002001N1-00771-00801999999ADDAA112000791AY171061AY241061GA1091+000159999GF109991091999999999999999KA1120M-00751MA1999999069541MD1210151+9999ME1430609MW1701REMSYN100AAXX  24184 11146 11/02 93415 11077 21080 36954 47060 52015 69902 77074 333 11075 89/00 92610 91127;
0300111460999992000022506004+47050+012950FM-12+310799999V0202901N004619999999N0002001N1-00641-00671999999ADDAA112002091AJ103109199999999AL19900491AY171061AY241061GA1071+999999079GF107991071061999999999999IA1299KA1120N-00801MA1999999069641MD1210031+9999ME1430719MW1481OA149900881REMSYN118AAXX  25064 11146 11/02 72909 11064 21067 36964 47071 52003 60022 74874 876// 333 21080 49310 877// 93104 91117 92610;
0229111460999992000022509004+47050+012950FM-12+310799999V0202901N004619999999N0002001N1-00591-00641999999ADDAY171031AY241031GA1071+999999079GF107991071061999999999999MA1999999069631MD1710011+9999ME1430709MW1701OA149900771REMSYN104AAXX  25094 11146 41/02 72909 11059 21064 36963 47070 57001 77074 876// 333 877// 91115 92610 444 77///;
0264111460999992000022512004+47050+012950FM-12+310799999V0202901N007719999999N0009001N1-00571-00761999999ADDAA106000591AY171061AY241061GA1071+999999079GF107991071061999999999999GG1079999999999999MA1999999069601MD1710031+9999ME1430689MW1701OA149901181REMSYN110AAXX  25124 11146 11/09 72915 11057 21076 36960 47068 57003 69951 77074 876// 333 877// 91123 92610 444 77///;
0190111460999992000022515004+47050+012950FM-12+310799999V0202901N002110001519N0001001N1-00511-00551999999ADDAY171031AY241031GA1091+000159999GF109991091999999999999999MA1999999069541MD1710061+9999ME1430599MW1701REMSYN076AAXX  25154 11146 41/01 92904 11051 21055 36954 47059 57006 77074 333 89/00;
0232111460999992000022518004+47050+012950FM-12+310799999V0203001N002110001519N0000001N1-00751-00841999999ADDAA112004191AY171061AY241061GA1091+000159999GF109991091999999999999999KA1120M-00481MA1999999069511MD1710031+9999ME1430579MW1711REMSYN094AAXX  25184 11146 11/00 93004 11075 21084 36951 47057 57003 60042 77174 333 11048 89/00 92610;
0272111460999992000022606004+47050+012950FM-12+310799999V0203401N005112200019N0750001N1-01211-01601999999ADDAA112016091AJ103209199999999AL19903091GF104991999999999999999999GG1069003009039999IA1299KA1120N-01221MA1999999069701MD1210071+9999ME1430789OA149900771REMSYN110AAXX  26064 11146 12989 43410 11121 21160 36970 47078 52007 60162 333 21122 49320 93130 91115 92611 444 46303;
0207111460999992000022609004+47050+012950FM-12+310799999V0203401N004112200019N0750001N1-01111-02141999999ADDGA1001+999999999GF100991001001999999001001GG1069063009039999MA1999999069751MD1210051+9999ME1430849OA149900821REMSYN086AAXX  26094 11146 42989 03408 11111 21214 36975 47084 52005 333 91116 92610 444 36363;
0226111460999992000022612004+47050+012950FM-12+310799999V0203401N002612200019N0750001N1-01081-02431999999ADDAA199000091GA1011+002709069GF101991011051002501001001GG1069006009039999MA1999999069821MD1210071+9999ME1430919REMSYN086AAXX  26124 11146 32389 13405 11108 21243 36982 47091 52007 81500 333 81609 444 26306;EQDQ01  00002PRCP99
0200111460999992000022615004+47050+012950FM-12+310799999V0202801N003610600019N0500001N1-00871-02201999999ADDGA1011+002709069GA2061+060009029GF106991011051002501001061MA1999999069761MD1810061+9999ME1430849REMSYN092AAXX  26154 11146 42384 62807 11087 21220 36976 47084 58006 81506 333 81609 86270 444 16306;
0267111460999992000022618004+47050+012950FM-12+310799999V0203201N004610660019N0750001N1-01001-02241999999ADDAA199000091GA1031+012609039GA2051+066009029GF106991031001012501041061GG1069076009029999KA1120M-00861MA1999999069771MD1310011+9999ME1430869REMSYN098AAXX  26184 11146 32689 63209 11100 21224 36977 47086 53001 83046 333 11086 83342 85272 444 16276;EQDQ01  00002PRCP99
0261111460999992000022706004+47050+012950FM-12+310799999V0203301N004612200019N0750001N1-01041-02121999999ADDAA199000091AJ103209199999999GA1001+999999999GF100991001001999999001001IA1299KA1120N-01301MA1999999069691MD1710031+9999ME1430779OA149900721REMSYN092AAXX  27064 11146 32989 03309 11104 21212 36969 47077 57003 333 21130 49320 91114 444 46303;EQDQ01  00002PRCP99
0183111460999992000022709004+47050+012950FM-12+310799999V0203501N005112200019N0750001N1-00931-01981999999ADDGA1001+999999999GF100991001001999999001001MA1999999069801MD1310111+9999ME1430899OA149900881REMSYN080AAXX  27094 11146 42989 03510 11093 21198 36980 47089 53011 333 91117 444 16292;
0213111460999992000022712004+47050+012950FM-12+310799999V0203201N004612200019N0750001N1-00831-02281999999ADDAA199000091GA1001+999999999GF100991001001999999001001MA1999999069921MD1210121+9999ME1431029OA149900881REMSYN080AAXX  27124 11146 32989 03209 11083 21228 36992 47102 52012 333 91117 444 16302;EQDQ01  00002PRCP99
0168111460999992000022715004+47050+012950FM-12+310799999V0203301N006212200019N0500001N1-00761-02411999999ADDGA1011+002709059GF101991011051002501001001MA1999999069931MD1210011+9999ME1431039REMSYN076AAXX  27154 11146 42384 13312 11076 21241 36993 47103 52001 81500 333 81609;
0223111460999992000022718004+47050+012950FM-12+310799999V0203401N004112200019N0750001N1-00761-02311999999ADDAA199000091GA1021+066009009GF102991001001999999001021KA1120M-00641MA1999999069981MD1210051+9999ME1431099REMSYN088AAXX  27184 11146 32989 23408 11076 21231 36998 47109 52005 80002 333 11064 82072 95110;EQDQ01  00002PRCP99
0262111460999992000022806004+47050+012950FM-12+310799999V0202301N006212200019N0750001N1-00601-02241999999ADDAA199000091AJ103109199999999GA1001+999999999GF100991001001999999001001GG1079053009029999IA1299KA1120N-00801MA1999999069911MD1710031+9999ME1431019REMSYN086AAXX  28064 11146 32989 02312 11060 21224 36991 47101 57003 333 21080 49310 444 17253;EQDQ01  00002PRCP99
0172111460999992000022809004+47050+012950FM-12+310799999V0202301N007212200019N0750001N1-00431-02101999999ADDGA1001+999999999GF100991001001999999001001MA1999999069941MD1210031+9999ME1431049REMSYN080AAXX  28094 11146 42989 02314 11043 21210 36994 47104 52003 333 95127 444 27253;
0192111460999992000022812004+47050+012950FM-12+310799999V0202301N010312200019N0750001N1-00561-02401999999ADDAA199000091GA1001+999999999GF100991001001999999001001MA1999999069861MD1810081+9999ME1430959REMSYN070AAXX  28124 11146 32989 02320 11056 21240 36986 47095 58008 333 95110;EQDQ01  00002PRCP99
0179111460999992000022815004+47050+012950FM-12+310799999V0202301N012312200019N0750001N1-00681-02421999999ADDGA1001+999999999GF100991001001999999001001MA1999999069681MD1710181+9999ME1430759OA149901441REMSYN076AAXX  28154 11146 42989 02324 11068 21242 36968 47075 57018 333 91128 95110;
0260111460999992000022818004+47050+012950FM-12+310799999V0202301N011312200019N0750001N1-00851-01122999999ADDAA199000091GA1001+999999999GF100991001001999999001001KA1120M+99999MA1999999069611MD1710071+9999ME1430689OA149901441REMSYN082AAXX  28184 11146 32989 02322 11085 21112 36961 47068 57007 333 11142 91128 95110;EQDQ01-001123ATOD  Q02  00002PRCP99Q03 -01422ATMX  
0274111460999992000022906004+47050+012950FM-12+310799999V0202101N002612200019N0750001N1-00701-01571999999ADDAA199000091AJ103059199999999GA1021+014409039GA2031+066009009GF104991021001012501041031IA1299KA1120N-00941MA1999999069511MD1710031+9999ME1430569REMSYN100AAXX  29064 11146 32689 42105 11070 21157 36951 47056 57003 82043 333 21094 49305 82348 83072 95110;EQDQ01  00002PRCP99
0213111460999992000022909004+47050+012950FM-12+310799999V0202401N005110600019N0750001N1-00731-01451999999ADDGA1031+013509039GA2041+060009029GF106991031001012501041051MA1999999069461MD1710051+9999ME1430519OA149900821REMSYN094AAXX  29094 11146 42689 62410 11073 21145 36946 47051 57005 83045 333 83345 84270 91116 95110;
0275111460999992000022912004+47050+012950FM-12+310799999V0202301N009319999999N0050001N1-00891-01371999999ADDAA199000091AY141061AY221061GA1041+060009029GA2041+999999069GF106991041051999999041051MA1999999069261MD1710201+9999ME1430299MW1401OA149901081REMSYN104AAXX  29124 11146 31/50 62318 11089 21137 36926 47029 57020 74042 84545 333 846// 84270 91121 444 46///;EQDQ01  00002PRCP99
0241111460999992000022915004+47050+012950FM-12+310799999V0202301N007219999999N0000001N1-00991-01041999999ADDAY141031AY221031GA1071+999999079GF107991071061999999999999GG1079999999999999MA1999999069001MD1710261+9999ME1430009MW1481OA149901131REMSYN098AAXX  29154 11146 41/00 72314 11099 21104 36900 47000 57026 74842 876// 333 877// 91122 444 77///;
0249111460999992000022918004+47050+012950FM-12+310799999V0202301N007710001519N0000001N1-01051-01111999999ADDAA112000791AY171061AY241061GA1091+000159999GF109991091999999999999999KA1120M-00701MA1999999068841MD1710161+9999ME1429829MW1701OA149901131REMSYN100AAXX  29184 11146 11/00 92315 11105 21111 36884 47982 57016 69902 77074 333 11070 89/00 91122 92611;
0294111460999992000030106004+47050+012950FM-12+310799999V0202301N007210001519N0000001N1-01021-01061999999ADDAA112007991AJ103059199999999AL10601091AY171061AY241061GA1091+000159999GF109991091999999999999999IA1299KA1120N-01081MA1999999068201MD1710221+9999ME1429109MW1701OA149901291REMSYN112AAXX  01064 11146 11/00 92314 11102 21106 36820 47910 57022 60082 77074 333 21108 49305 89/00 91125 92612 93110;
0213111460999992000030109004+47050+012950FM-12+310799999V0202301N007210001519N0000001N1-00991-01041999999ADDAY171031AY241031GA1091+000159999GF109991091999999999999999MA1999999068151MD1710051+9999ME1429049MW1701OA149901031REMSYN088AAXX  01094 11146 41/00 92314 11099 21104 36815 47904 57005 77074 333 89/00 91120 92612;
0230111460999992000030112004+47050+012950FM-12+310799999V0202501N006210001519N0000001N1-00971-01021999999ADDAA106004191AY171061AY241061GA1091+000159999GF109991091999999999999999MA1999999068081MD1710071+9999ME1428969MW1711OA149901031REMSYN094AAXX  01124 11146 11/00 92512 11097 21102 36808 47896 57007 60041 77174 333 89/00 91120 92612;
0213111460999992000030115004+47050+012950FM-12+310799999V0202401N003110001519N0000001N1-00931-00981999999ADDAY171031AY241031GA1091+000159999GF109991091999999999999999MA1999999067921MD1710161+9999ME1428789MW1711OA149900821REMSYN088AAXX  01154 11146 41/00 92406 11093 21098 36792 47878 57016 77174 333 89/00 91116 92612;
0249111460999992000030118004+47050+012950FM-12+310799999V0202001N002110001519N0000001N1-00941-00981999999ADDAA112007191AY171061AY241061GA1091+000159999GF109991091999999999999999KA1120M-00921MA1999999067881MD1710041+9999ME1428739MW1711OA149900821REMSYN100AAXX  01184 11146 11/00 92004 11094 21098 36788 47873 57004 60072 77174 333 11092 89/00 91116 92612;
0294111460999992000030206004+47050+012950FM-12+310799999V0200301N011310001519N0000001N1-01691-01751999999ADDAA112005191AJ103109199999999AL19901591AY171061AY241061GA1091+000159999GF109991091999999999999999IA1299KA1120N-01701MA1999999068101MD1210071+9999ME1429049MW1711OA149901601REMSYN112AAXX  02064 11146 11/00 90322 11169 21175 36810 47904 52007 60052 77174 333 21170 49310 89/00 93115 91131 92612;
0213111460999992000030209004+47050+012950FM-12+310799999V0200301N008210001519N0000001N1-01761-01821999999ADDAY171031AY241031GA1091+000159999GF109991091999999999999999MA1999999068311MD1210211+9999ME1429289MW1711OA149901701REMSYN088AAXX  02094 11146 41/00 90316 11176 21182 36831 47928 52021 77174 333 89/00 91133 92612;
0230111460999992000030212004+47050+012950FM-12+310799999V0200201N006210001519N0000001N1-01661-01721999999ADDAA106001091AY171061AY241061GA1091+000159999GF109991091999999999999999MA1999999068491MD1210181+9999ME1429479MW1711OA149901701REMSYN094AAXX  02124 11146 11/00 90212 11166 21172 36849 47947 52018 60011 77174 333 89/00 91133 92612;
