0268119330999992000010100004+49120+020080FM-12+136899999V0203501N002012200019N0015001N1-01591-01691999999ADDAA106000091AY101061AY201061GA1011+999999079GF101991011061999999001001GG1079041009019999GJ103609MA1999999086381MD1710021+9999ME1314799MW1401REMSYN098AAXX  01001 11933 31/15 13502 11159 21169 38638 48479 57002 74000 81600 333 55060 817// 444 17141;EQDQ01  00002PRCP06
0110119330999992000010103004+49120+020080FM-12+136899999V0203501N002019999999N9999999N1-01601-01731999999ADDMA1999999086371MD1710011+9999ME1314789REMSYN060AAXX  01031 11933 46/// /3502 11160 21173 38637 48478 57001;
0298119330999992000010106004+49120+020080FM-12+136899999V0200101N001012200019N0450001N1-01731-01871999999ADDAA106000091AJ100569199999999GA1011+009009069GF101991011051008001041001GG1079002009019999IA1249IA2999-02009KA1120N-01731MA1999999086431MD1310061+9999ME1314829REMSYN110AAXX  01061 11933 32583 10101 11173 21187 38643 48482 53006 81540 333 21173 3/120 48056 81630 9514/ 444 67102;EQDQ01  00002PRCP06
0184119330999992000010109004+49120+020080FM-12+136899999V0201601N001012200019N0600001N1-00791-00861999999ADDGA1011+006009089GF101991011011008001041001MA1999999086441MD1010011+9999ME1314889REMSYN092AAXX  01091 11933 42586 11601 11079 21086 38644 48488 50001 81140 333 81820 9514/ 444 67112;
0204119330999992000010112004+49120+020080FM-12+136899999V0202201N001010360019N0750001N1-00661-01061999999ADDAA106000091GA1041+004809069GF105991041051004501041011MA1999999086391MD1810051+9999ME1314849REMSYN082AAXX  01121 11933 32489 52201 11066 21106 38639 48484 58005 84541 333 84616 9513/;EQDQ01  00002PRCP06
0202119330999992000010115004+49120+020080FM-12+136899999V0203001N001010048019N0700001N1-00851-01031999999ADDAY121031AY221031GA1051+004809069GF107991051041004501041011MA1999999086401MD1310011+9999ME1314849MW1781REMSYN088AAXX  01151 11933 41488 73001 11085 21103 38640 48484 53001 77822 85441 333 85616 83358;
0232119330999992000010118004+49120+020080FM-12+136899999V0203501N001010048019N0200001N1-00991-01161999999ADDAA112000791AY171061AY221061GA1071+004809059GF108991071051004501999999KA1120M-00461MA1999999086401MD1010001+9999ME1314839MW1781REMSYN094AAXX  01181 11933 11470 83501 11099 21116 38640 48483 50000 69902 77872 875// 333 11046 87616;
0110119330999992000010121004+49120+020080FM-12+136899999V0203401N002019999999N9999999N1-01101-01201999999ADDMA1999999086381MD1710021+9999ME1314819REMSYN060AAXX  01211 11933 46/// /3402 11110 21120 38638 48481 57002;
0131119330999992000010200004+49120+020080FM-12+136899999V0203401N002019999999N9999999N1-01161-01331999999ADDAA106000021MA1999999086361MD1710021+9999ME1314799REMSYN070AAXX  02001 11933 36/// /3402 11116 21133 38636 48479 57002 333 55041;
0110119330999992000010203004+49120+020080FM-12+136899999V0200101N001019999999N9999999N1-01591-01701999999ADDMA1999999086391MD1210031+9999ME1314809REMSYN060AAXX  02031 11933 46/// /0101 11159 21170 38639 48480 52003;
0264119330999992000010206004+49120+020080FM-12+136899999V0203501N002012200019N0700001N1-01791-01891999999ADDAA106000091AJ100539199999999GA1021+001809059GF102991021051002501041011IA1249IA2999-02009KA1120N-01791MA1999999086501MD1310111+9999ME1314889REMSYN094AAXX  02061 11933 32388 23502 11179 21189 38650 48488 53011 82541 333 21179 3/120 48053 82606;EQDQ01  00002PRCP06
0196119330999992000010209004+49120+020080FM-12+136899999V0202701N001012200019N0750001N1-00821-00971999999ADDGA1011+999999069GF102991021081999999041011GG1069999999999999MA1999999086621MD1210121+9999ME1315049REMSYN086AAXX  02091 11933 42/89 22701 11082 21097 38662 48504 52012 82841 333 816// 444 16//4;
0276119330999992000010212004+49120+020080FM-12+136899999V0202401N00201003901CN0030001N1-00671-00921999999ADDAA106000091AY111061AY211061GA1071+003909069GA2011+999999069GF107991071051999999999999GG1069999999999999MA1999999086661MD1110041+9999ME1315099MW1401REMSYN098AAXX  02121 11933 31/30 72402 11067 21092 38666 48509 51004 74011 875// 333 816// 87613 444 16//6;EQDQ01  00002PRCP06
0246119330999992000010215004+49120+020080FM-12+136899999V0200901N00101001501CN0015001N1-00911-01001999999ADDAY121031AY221031GA1071+001509069GA2011+999999079GF107991071051999999001021GG1079044009019999MA1999999086701MD1310041+9999ME1315119MW1401REMSYN098AAXX  02151 11933 41/15 70901 11091 21100 38670 48511 53004 74022 87502 333 817// 87605 444 17144;
0282119330999992000010218004+49120+020080FM-12+136899999V0202801N00301004801CN0010001N1-00841-00881999999ADDAA112000791AY121061AY221061GA1081+004809069GA2011+999999079GF108991081051999999999999GG1079999999999999KA1120M-00531MA1999999086741MD1310041+9999ME1315159MW1711REMSYN110AAXX  02181 11933 11/10 82803 11084 21088 38674 48515 53004 69902 77122 885// 333 11053 817// 88616 444 17//4;
0110119330999992000010221004+49120+020080FM-12+136899999V0200201N001019999999N9999999N1-00781-00851999999ADDMA1999999086761MD1210021+9999ME1315179REMSYN060AAXX  02211 11933 46/// /0201 11078 21085 38676 48517 52002;
0131119330999992000010300004+49120+020080FM-12+136899999V0203401N002019999999N9999999N1-01091-01151999999ADDAA106000021MA1999999086731MD1710031+9999ME1315139REMSYN070AAXX  03001 11933 36/// /3402 11109 21115 38673 48513 57003 333 55049;
0110119330999992000010303004+49120+020080FM-12+136899999V0202801N004019999999N9999999N1-00701-00731999999ADDMA1999999086631MD1710101+9999ME1315069REMSYN060AAXX  03031 11933 46/// /2804 11070 21073 38663 48506 57010;
0333119330999992000010306004+49120+020080FM-12+136899999V0203201N00201003901CN0012001N1-00821-00871999999ADDAA112000191AJ100539199999999AY141061AY221061GA1031+000309079GA2051+003909069GA3021+999999079GF107991071051999999001001IA1249IA2999-01309KA1120N-01131MA1999999086551MD1610081+9999ME1314989MW1401REMSYN128AAXX  03061 11933 11/12 73202 11082 21087 38655 48498 56008 69912 74042 87500 333 21113 3/113 48053 827// 83701 85613 444 27//1;
0246119330999992000010309004+49120+020080FM-12+136899999V0203101N00301003001CN0015001N1-00601-00631999999ADDAY141031AY221031GA1081+003009069GA2021+999999079GF108991081051999999999999GG1079999999999999MA1999999086621MD1310071+9999ME1315069MW1701REMSYN098AAXX  03091 11933 41/15 83103 11060 21063 38662 48506 53007 77042 885// 333 827// 88610 444 27//1;
0207119330999992000010312004+49120+020080FM-12+136899999V0203201N003010001519N0005001N1-00391-00401999999ADDAA106000191AY141061AY221061GA1091+000159999GF109991091999999999999999MA1999999086501MD1810121+9999ME1314969MW1701REMSYN082AAXX  03121 11933 11/05 93203 11039 21040 38650 48496 58012 69911 77042 333 89/00;
0190119330999992000010315004+49120+020080FM-12+136899999V0202501N001010001519N0003001N1-00371-00371999999ADDAY171031AY241031GA1091+000159999GF109991091999999999999999MA1999999086471MD1610031+9999ME1314939MW1701REMSYN076AAXX  03151 11933 41/03 92501 11037 21037 38647 48493 56003 77074 333 89/00;
0242119330999992000010318004+49120+020080FM-12+136899999V0200701N001010018019N0120001N1-00421-00431999999ADDAA112000191AY171061AY241061GA1081+001809079GF108991081071002501999999KA1120M-00341MA1999999086471MD1010001+9999ME1314939MW1281REMSYN104AAXX  03181 11933 11362 80701 11042 21043 38647 48493 50000 69912 72874 887// 333 11034 88706 444 27111;
0110119330999992000010321004+49120+020080FM-12+136899999V0203501N002019999999N9999999N1-00431-00441999999ADDMA1999999086421MD1710051+9999ME1314889REMSYN060AAXX  03211 11933 46/// /3502 11043 21044 38642 48488 57005;
0150119330999992000010400004+49120+020080FM-12+136899999V0202901N001019999999N9999999N1-00501-00511999999ADDAA106000091MA1999999086371MD1710051+9999ME1314839REMSYN070AAXX  04001 11933 36/// /2901 11050 21051 38637 48483 57005 333 55008;EQDQ01  00002PRCP06
0110119330999992000010403004+49120+020080FM-12+136899999V0202901N001019999999N9999999N1-00501-00511999999ADDMA1999999086351MD1710021+9999ME1314819REMSYN060AAXX  04031 11933 46/// /2901 11050 21051 38635 48481 57002;
0279119330999992000010406004+49120+020080FM-12+136899999V0200201N001012200019N0120001N1-00841-00891999999ADDAA112000791AJ100539199999999GA1011+999999079GF102991011051999999041021GG1079999999999999IA1249IA2999-01009KA1120N-00841MA1999999086331MD1710021+9999ME1314789REMSYN110AAXX  04061 11933 12/62 20201 11084 21089 38633 48478 57002 69902 81542 333 21084 3/110 48053 817// 444 17//4;
0246119330999992000010409004+49120+020080FM-12+136899999V0203001N00101060001CN0060001N1-00301-00311999999ADDAY111031AY211031GA1051+060009009GA2011+999999079GF105991011061999999041011GG1079999999999999MA1999999086361MD1310031+9999ME1314839MW1401REMSYN098AAXX  04091 11933 41/56 53001 11030 21031 38636 48483 53003 74011 81641 333 817// 85070 444 17//4;
0276119330999992000010412004+49120+020080FM-12+136899999V0202801N00301001801CN0008001N1-00111-00181999999ADDAA106000091AY111061AY211061GA1051+001809079GA2021+999999079GF106991051061999999041011GG1079999999999999MA1999999086321MD1810041+9999ME1314809MW1421REMSYN098AAXX  04121 11933 31/08 62803 11011 21018 38632 48480 58004 74211 85641 333 827// 85706 444 27//4;EQDQ01  00002PRCP06
0206119330999992000010415004+49120+020080FM-12+136899999V0202901N003012200019N0600001N1-00231-00271999999ADDAY141031AY241031GA1021+003909069GF103991021051004501041011MA1999999086281MD1710041+9999ME1314769MW1011REMSYN092AAXX  04151 11933 41486 32903 11023 21027 38628 48476 57004 70144 82541 333 82613 444 17110;
0245119330999992000010418004+49120+020080FM-12+136899999V0203101N002010009019N0120001N1-00361-00371999999ADDAA106000091AY141061AY241061GA1071+000909069GF107991071061001501001001KA1120M+00071MA1999999086281MD1410001+9999ME1314759MW1021REMSYN088AAXX  04181 11933 31262 73102 11036 21037 38628 48475 54000 70244 87600 333 10007 87703;EQDQ01  00002PRCP06
0110119330999992000010421004+49120+020080FM-12+136899999V0203501N002019999999N9999999N1-00581-00591999999ADDMA1999999086251MD1710031+9999ME1314729REMSYN060AAXX  04211 11933 46/// /3502 11058 21059 38625 48472 57003;
0150119330999992000010500004+49120+020080FM-12+136899999V0203001N004019999999N9999999N1-00101-00201999999ADDAA106000091MA1999999086151MD1710101+9999ME1314649REMSYN070AAXX  05001 11933 36/// /3004 11010 21020 38615 48464 57010 333 55054;EQDQ01  00002PRCP06
0110119330999992000010503004+49120+020080FM-12+136899999V0203001N007019999999N9999999N1-00171-00181999999ADDMA1999999086041MD1710111+9999ME1314549REMSYN060AAXX  05031 11933 46/// /3007 11017 21018 38604 48454 57011;
0273119330999992000010506004+49120+020080FM-12+136899999V0202901N007010001519N0003001N1-00291-00291999999ADDAA112001091AJ100519199999999AY171061AY241061GA1091+000159999GF109991091999999999999999IA1289IA2999-00809KA1120N-00631MA1999999085991MD1610051+9999ME1314499MW1711REMSYN100AAXX  05061 11933 11/03 92907 11029 21029 38599 48449 56005 60012 77174 333 21063 3/108 44051 89/00;
0234119330999992000010509004+49120+020080FM-12+136899999V0202701N00401009001CN0015001N1-00301-00301999999ADDAY171031AY241031GA1061+009009089GA2011+999999069GF106991061081999999001021MA1999999086081MD1310091+9999ME1314579MW1871REMSYN104AAXX  05091 11933 41/15 62704 11030 21030 38608 48457 53009 78774 86802 333 816// 86830 93501 444 16//4;
0213119330999992000010512004+49120+020080FM-12+136899999V0202901N004010001519N0003001N1-00221-00261999999ADDAA106000591AY181061AY241061GA1091+000159999GF109991091999999999999999MA1999999086081MD1410001+9999ME1314579MW1861REMSYN088AAXX  05121 11933 11/03 92904 11022 21026 38608 48457 54000 69951 78684 333 89/00 93501;
0196119330999992000010515004+49120+020080FM-12+136899999V0203201N002012200019N0300001N1-00371-00971999999ADDAY181031AY241031GA1011+000909059GF102991021041001501001021MA1999999086171MD1310091+9999ME1314659MW1261REMSYN082AAXX  05151 11933 41280 23202 11037 21097 38617 48465 53009 72684 82402 333 81603;
0232119330999992000010518004+49120+020080FM-12+136899999V0202401N002012200019N0150001N1-00611-00781999999ADDAA112000591AY181061AY241061GA1011+000909059GF101991011041001501001001KA1120M-00081MA1999999086271MD1210101+9999ME1314739MW1021REMSYN094AAXX  05181 11933 11265 12402 11061 21078 38627 48473 52010 69962 70284 81400 333 11008 81603;
0110119330999992000010521004+49120+020080FM-12+136899999V0202801N002019999999N9999999N1-00781-00931999999ADDMA1999999086321MD1210051+9999ME1314779REMSYN060AAXX  05211 11933 46/// /2802 11078 21093 38632 48477 52005;
0110119330999992000010603004+49120+020080FM-12+136899999V0203101N002019999999N9999999N1-00701-00731999999ADDMA1999999086381MD1210031+9999ME1314839REMSYN060AAXX  06031 11933 46/// /3102 11070 21073 38638 48483 52003;
0289119330999992000010606004+49120+020080FM-12+136899999V0203501N002012200019N0300001N1-00781-00851999999ADDAA112000191AJ100519199999999AY171061AY271061GA1021+003909069GF103991021051004501041001IA1249IA2999-01109KA1120N-00841MA1999999086461MD1310081+9999ME1314909MW1701REMSYN116AAXX  06061 11933 11480 33502 11078 21085 38646 48490 53008 69922 77077 82540 333 21084 3/111 48051 82613 444 47111;
0206119330999992000010609004+49120+020080FM-12+136899999V0202701N002012200019N0350001N1-00361-00611999999ADDAY171031AY271031GA1011+007809069GF101991011051008001041011MA1999999086561MD1210101+9999ME1315019MW1011REMSYN092AAXX  06091 11933 41581 12702 11036 21061 38656 48501 52010 70177 81541 333 81626 444 17113;
0213119330999992000010612004+49120+020080FM-12+136899999V0202701N002012200019N0400001N1-00031-00591999999ADDAA106000791AY171061AY271061GA1011+007809069GF101991011061008001001011MA1999999086591MD1110031+9999ME1315069MW1011REMSYN088AAXX  06121 11933 11582 12702 11003 21059 38659 48506 51003 69901 70177 81601 333 81726;
0168119330999992000010615004+49120+020080FM-12+136899999V0202901N002012200019N0400001N1-00421-00651999999ADDGA1011+060009019GF101991001001999999001011MA1999999086631MD1310041+9999ME1315079REMSYN076AAXX  06151 11933 42982 12902 11042 21065 38663 48507 53004 80001 333 81070;
0192119330999992000010618004+49120+020080FM-12+136899999V0203401N002012200019N0250001N1-00891-00941999999ADDAA112000791GA1001+999999999GF100991001001999999001001KA1999M-00031MA1999999086571MD1810061+9999ME1314999REMSYN076AAXX  06181 11933 12975 03402 11089 21094 38657 48499 58006 69902 333 11003;
0110119330999992000010621004+49120+020080FM-12+136899999V0203101N003019999999N9999999N1-00651-00821999999ADDMA1999999086561MD1710011+9999ME1315009REMSYN060AAXX  06211 11933 46/// /3103 11065 21082 38656 48500 57001;
0150119330999992000010700004+49120+020080FM-12+136899999V0203201N004019999999N9999999N1-00701-00821999999ADDAA106000091MA1999999086521MD1710041+9999ME1314969REMSYN070AAXX  07001 11933 36/// /3204 11070 21082 38652 48496 57004 333 55066;EQDQ01  00002PRCP06
0274119330999992000010706004+49120+020080FM-12+136899999V0202901N004012200019N0600001N1-00591-00701999999ADDAA106000091AJ100519199999999GA1011+060009009GF101991001001999999001011IA1249IA2999-01209KA1120N-01101MA1999999086571MD1310041+9999ME1315019REMSYN104AAXX  07061 11933 32986 12904 11059 21070 38657 48501 53004 80001 333 21110 3/112 48051 81070 444 37101;EQDQ01  00002PRCP06
0206119330999992000010709004+49120+020080FM-12+136899999V0202801N004012200019N0060001N1-00361-00541999999ADDAY101031AY201031GA1011+999999079GF101991011061999999041001MA1999999086681MD1210111+9999ME1315129MW1401REMSYN092AAXX  07091 11933 41/56 12804 11036 21054 38668 48512 52011 74000 81640 333 817// 444 17154;
0226119330999992000010712004+49120+020080FM-12+136899999V0202701N002012200019N0300001N1+00011-00401999999ADDAA106000091GA1011+007809079GF101991011061008001001001GG1079013009019999MA1999999086681MD1010001+9999ME1315149REMSYN086AAXX  07121 11933 32580 12702 10001 21040 38668 48514 50000 81600 333 81726 444 27113;EQDQ01  00002PRCP06
0196119330999992000010715004+49120+020080FM-12+136899999V0201701N001012200019N0120001N1-00441-00591999999ADDGA1021+001809069GF102991021051002501041001GG1079024009019999MA1999999086781MD1310101+9999ME1315219REMSYN086AAXX  07151 11933 42362 21701 11044 21059 38678 48521 53010 82540 333 82606 444 57124;
0227119330999992000010718004+49120+020080FM-12+136899999V0200101N001012200019N0200001N1-00761-00811999999ADDAA106000091GA1011+007809069GF101991011051008001001001KA1120M+00111MA1999999086791MD1110011+9999ME1315209REMSYN092AAXX  07181 11933 32570 10101 11076 21081 38679 48520 51001 81500 333 10011 81626 444 57111;EQDQ01  00002PRCP06
0110119330999992000010721004+49120+020080FM-12+136899999V0203401N002019999999N9999999N1-00801-00831999999ADDMA1999999086811MD1210021+9999ME1315229REMSYN060AAXX  07211 11933 46/// /3402 11080 21083 38681 48522 52002;
0150119330999992000010800004+49120+020080FM-12+136899999V0202901N003019999999N9999999N1-00451-00461999999ADDAA106000091MA1999999086791MD1710021+9999ME1315229REMSYN070AAXX  08001 11933 36/// /2903 11045 21046 38679 48522 57002 333 55068;EQDQ01  00002PRCP06
0110119330999992000010803004+49120+020080FM-12+136899999V0202801N002019999999N9999999N1-00391-00401999999ADDMA1999999086731MD1710061+9999ME1315179REMSYN060AAXX  08031 11933 46/// /2802 11039 21040 38673 48517 57006;
0302119330999992000010806004+49120+020080FM-12+136899999V0203101N004010078019N0250001N1-00121-00161999999ADDAA106000091AJ100519199999999GA1021+003009079GA2051+007809069GF105991051051004501001001IA1249IA2999-01109KA1120N-00831MA1999999086721MD1610011+9999ME1315189REMSYN116AAXX  08061 11933 32475 53104 11012 21016 38672 48518 56001 85500 333 21083 3/111 48051 82710 85626 9514/ 444 77091;EQDQ01  00002PRCP06
0184119330999992000010809004+49120+020080FM-12+136899999V0203001N004010039019N0300001N1-00041-00151999999ADDGA1051+003909069GF105991051051004501001001MA1999999086811MD1310091+9999ME1315269REMSYN092AAXX  08091 11933 42480 53004 11004 21015 38681 48526 53009 85500 333 85613 9514/ 444 57091;
0214119330999992000010812004+49120+020080FM-12+136899999V0202901N004012200019N0300001N1+00011-00211999999ADDAA106000091GA1031+003909069GF103991031051004501001001MA1999999086731MD1810081+9999ME1315199REMSYN092AAXX  08121 11933 32480 32904 10001 21021 38673 48519 58008 83500 333 83613 9512/ 444 47103;EQDQ01  00002PRCP06
0184119330999992000010815004+49120+020080FM-12+136899999V0203001N004012200019N0300001N1-00181-00261999999ADDGA1031+003909069GF103991031051004501001011MA1999999086711MD1510021+9999ME1315169REMSYN092AAXX  08151 11933 42480 33004 11018 21026 38671 48516 55002 83501 333 83613 9513/ 444 27101;
0251119330999992000010818004+49120+020080FM-12+136899999V0203001N004010039019N0150001N1-00241-00311999999ADDAA106000091GA1051+003909069GF105991051051004501001001GG1079001009019999KA1120M+00071MA1999999086721MD1210011+9999ME1315179REMSYN098AAXX  08181 11933 32465 53004 11024 21031 38672 48517 52001 85500 333 10007 85613 9513/ 444 27101;EQDQ01  00002PRCP06
0110119330999992000010821004+49120+020080FM-12+136899999V0202801N004019999999N9999999N1-00341-00381999999ADDMA1999999086661MD1710061+9999ME1315119REMSYN060AAXX  08211 11933 46/// /2804 11034 21038 38666 48511 57006;
0150119330999992000010900004+49120+020080FM-12+136899999V0202901N004019999999N9999999N1-00391-00401999999ADDAA106000091MA1999999086651MD1710011+9999ME1315109REMSYN070AAXX  09001 11933 36/// /2904 11039 21040 38665 48510 57001 333 55003;EQDQ01  00002PRCP06
0110119330999992000010903004+49120+020080FM-12+136899999V0203001N002019999999N9999999N1-00481-00481999999ADDMA1999999086631MD1710021+9999ME1315079REMSYN060AAXX  09031 11933 46/// /3002 11048 21048 38663 48507 57002;
0196119330999992000010909004+49120+020080FM-12+136899999V0203101N002010001519N0004001N1-00541-00551999999ADDAY141031AY241031GA1091+000159999GF109991091999999999999999MA1999999086671MD1310061+9999ME1315109MW1451REMSYN082AAXX  09091 11933 41/04 93102 11054 21055 38667 48510 53006 74544 333 89/00 93506;
0264119330999992000010912004+49120+020080FM-12+136899999V0203201N00301000151CN0009001N1-00551-00581999999ADDAA106000091AY141061AY241061GA1071+000159079GA2021+999999079GF108991081061999999999999MA1999999086611MD1810061+9999ME1315059MW1411REMSYN104AAXX  09121 11933 31/09 83203 11055 21058 38661 48505 58006 74144 886// 333 827// 87700 93506 444 27//4;EQDQ01  00002PRCP06
0196119330999992000010915004+49120+020080FM-12+136899999V0202801N002010001519N0003001N1-00561-00571999999ADDAY141031AY241031GA1091+000159999GF109991091999999999999999MA1999999086631MD1310021+9999ME1315079MW1451REMSYN082AAXX  09151 11933 41/03 92802 11056 21057 38663 48507 53002 74544 333 89/00 93506;
0270119330999992000010918004+49120+020080FM-12+136899999V0203201N00101000301CN0009001N1-00631-00661999999ADDAA112000791AY171061AY241061GA1071+000309079GA2021+999999079GF108991081071999999999999KA1120M-00511MA1999999086651MD1310021+9999ME1315089MW1411REMSYN116AAXX  09181 11933 11/09 83201 11063 21066 38665 48508 53002 69902 74174 887// 333 11051 827// 87701 93508 444 27//4;
0110119330999992000010921004+49120+020080FM-12+136899999V0203401N002019999999N9999999N1-00701-00731999999ADDMA1999999086691MD1210041+9999ME1315119REMSYN060AAXX  09211 11933 46/// /3402 11070 21073 38669 48511 52004;
0150119330999992000011000004+49120+020080FM-12+136899999V0203401N002019999999N9999999N1-00791-00831999999ADDAA106000091MA1999999086751MD1210061+9999ME1315169REMSYN070AAXX  10001 11933 36/// /3402 11079 21083 38675 48516 52006 333 55000;EQDQ01  00002PRCP06
0110119330999992000011003004+49120+020080FM-12+136899999V0203401N002019999999N9999999N1-01061-01141999999ADDMA1999999086791MD1210041+9999ME1315189REMSYN060AAXX  10031 11933 46/// /3402 11106 21114 38679 48518 52004;
0267119330999992000011006004+49120+020080FM-12+136899999V0200401N001012200019N0350001N1-01111-01171999999ADDAA112000791AJ100499199999999GA1011+006009069GF102991011081008001041021IA1249IA2999-01309KA1120N-01141MA1999999086871MD1310081+9999ME1315259REMSYN116AAXX  10061 11933 12581 20401 11111 21117 38687 48525 53008 69902 81842 333 21114 3/113 48049 81620 93513 444 57112;
0230119330999992000011009004+49120+020080FM-12+136899999V0201701N001012200019N0350001N1-00341-00371999999ADDAY101031AY201031GA1011+006009089GF103991021081008001041021GG1079022009019999MA1999999087001MD1210131+9999ME1315429MW1851REMSYN098AAXX  10091 11933 41581 31701 11034 21037 38700 48542 52013 78500 82842 333 81820 93510 444 57122;
0285119330999992000011012004+49120+020080FM-12+136899999V0202501N00201010801CN0025001N1-00171-00401999999ADDAA106000791AY181061AY211061GA1031+003009089GA2051+010809069GA3011+999999079GF107991061081999999041021GG1079999999999999MA1999999087101MD1110101+9999ME1315529MW1851REMSYN110AAXX  10121 11933 11/25 72502 11017 21040 38710 48552 51010 69901 78581 86842 333 817// 83810 85636 444 17//6;
0190119330999992000011015004+49120+020080FM-12+136899999V0201801N001010001519N0003001N1-00451-00491999999ADDAY181031AY211031GA1091+000159999GF109991091999999999999999MA1999999087191MD1210091+9999ME1315599MW1471REMSYN076AAXX  10151 11933 41/03 91801 11045 21049 38719 48559 52009 74781 333 89/00;
0226119330999992000011018004+49120+020080FM-12+136899999V0200301N001010001519N0004001N1-00571-00581999999ADDAA112000191AY181061AY211061GA1091+000159999GF109991091999999999999999KA1120M-00101MA1999999087291MD1210101+9999ME1315679MW1431REMSYN088AAXX  10181 11933 11/04 90301 11057 21058 38729 48567 52010 69912 74381 333 11010 89/00;
0110119330999992000011021004+49120+020080FM-12+136899999V0209999C000019999999N9999999N1-00621-00651999999ADDMA1999999087391MD1210101+9999ME1315769REMSYN060AAXX  10211 11933 46/// /0000 11062 21065 38739 48576 52010;
0137119330999992000011100004+49120+020080FM-12+136899999V0202401N001019999999N9999999N1-00691-00721999999ADDAA106000191MA1999999087441MD1210051+9999ME1315799REMSYN076AAXX  11001 11933 16/// /2401 11069 21072 38744 48579 52005 69921 333 55064;
0110119330999992000011103004+49120+020080FM-12+136899999V0200501N001019999999N9999999N1-00771-00811999999ADDMA1999999087451MD1210011+9999ME1315809REMSYN060AAXX  11031 11933 46/// /0501 11077 21081 38745 48580 52001;
0313119330999992000011106004+49120+020080FM-12+136899999V0200501N001010048019N0110001N1-00831-00881999999ADDAA112000391AJ100509199999999AY181061AY221061GA1081+004809069GF108991081051004501999999GG1079013009019999IA1249IA2999-00809KA1120N-00841MA1999999087561MD1310111+9999ME1315899MW1021REMSYN122AAXX  11061 11933 11461 80501 11083 21088 38756 48589 53011 69932 70282 885// 333 21084 3/108 48050 88616 93505 444 17113;
0230119330999992000011109004+49120+020080FM-12+136899999V0200701N001010039019N0150001N1-00741-00891999999ADDAY121031AY221031GA1071+003909069GF108991071051004501999999GG1079026009019999MA1999999087621MD1110061+9999ME1315959MW1781REMSYN098AAXX  11091 11933 41465 80701 11074 21089 38762 48595 51006 77822 875// 333 87613 93503 444 17126;
0213119330999992000011112004+49120+020080FM-12+136899999V0202501N001010033019N0150001N1-00721-00901999999ADDAA106000791AY121061AY221061GA1071+003309059GF108991071051004501999999MA1999999087591MD1810031+9999ME1315939MW1781REMSYN088AAXX  11121 11933 11465 82501 11072 21090 38759 48593 58003 69901 77822 875// 333 87611;
0202119330999992000011115004+49120+020080FM-12+136899999V0201701N001010030019N0150001N1-00801-00911999999ADDAY171031AY221031GA1071+003009069GF108991071051004501021999MA1999999087601MD1310011+9999ME1315939MW1781REMSYN088AAXX  11151 11933 41465 81701 11080 21091 38760 48593 53001 77872 8752/ 333 87610 88458;
0282119330999992000011118004+49120+020080FM-12+136899999V0209999C00001004801CN0025001N1-00841-00951999999ADDAA112000791AY171061AY221061GA1081+004809069GA2011+999999079GF108991081051999999999999GG1079999999999999KA1120M-00701MA1999999087631MD1110031+9999ME1315959MW1401REMSYN110AAXX  11181 11933 11/25 80000 11084 21095 38763 48595 51003 69902 74072 885// 333 11070 817// 88616 444 17//5;
0110119330999992000011121004+49120+020080FM-12+136899999V0203301N001019999999N9999999N1-00911-01031999999ADDMA1999999087611MD1710021+9999ME1315939REMSYN060AAXX  11211 11933 46/// /3301 11091 21103 38761 48593 57002;
0150119330999992000011200004+49120+020080FM-12+136899999V0203601N001019999999N9999999N1-00981-01111999999ADDAA106000091MA1999999087571MD1710041+9999ME1315889REMSYN070AAXX  12001 11933 36/// /3601 11098 21111 38757 48588 57004 333 55000;EQDQ01  00002PRCP06
0110119330999992000011203004+49120+020080FM-12+136899999V0200101N002019999999N9999999N1-01051-01181999999ADDMA1999999087471MD1710101+9999ME1315799REMSYN060AAXX  12031 11933 46/// /0102 11105 21118 38747 48579 57010;
0285119330999992000011206004+49120+020080FM-12+136899999V0200301N00101006001CN0120001N1-01141-01281999999ADDAA112000791AJ100509199999999AY171061AY221061GA1011+000909069GF105991051081001501001001IA1249IA2999-01109KA1120N-01141MA1999999087491MD1310021+9999ME1315809MW1861REMSYN112AAXX  12061 11933 11262 50301 11114 21128 38749 48580 53002 69902 78672 85800 333 21114 3/111 48050 81603 85823;
0196119330999992000011209004+49120+020080FM-12+136899999V0201301N001012200019N0400001N1-00871-01181999999ADDAY181031AY281031GA1031+004809029GF103991031011004501001001MA1999999087491MD1010001+9999ME1315829MW1261REMSYN082AAXX  12091 11933 41482 31301 11087 21118 38749 48582 50000 72688 83100 333 83816;
0213119330999992000011212004+49120+020080FM-12+136899999V0202701N003012200019N0600001N1-00611-01141999999ADDAA106000791AY181061AY281061GA1011+006909059GF101991011041008001001001MA1999999087351MD1710141+9999ME1315729MW1021REMSYN088AAXX  12121 11933 11586 12703 11061 21114 38735 48572 57014 69901 70288 81400 333 81623;
0168119330999992000011215004+49120+020080FM-12+136899999V0202901N002012200019N0600001N1-00881-01151999999ADDGA1011+009909059GF101991011041012501001001MA1999999087301MD1710051+9999ME1315659REMSYN076AAXX  12151 11933 42686 12902 11088 21115 38730 48565 57005 81400 333 81633;
0192119330999992000011218004+49120+020080FM-12+136899999V0203501N002012200019N0250001N1-01531-01641999999ADDAA112000791GA1001+999999999GF100991001001999999001001KA1999M-00551MA1999999087231MD1710071+9999ME1315549REMSYN076AAXX  12181 11933 12975 03502 11153 21164 38723 48554 57007 69902 333 11055;
0110119330999992000011221004+49120+020080FM-12+136899999V0203401N002019999999N9999999N1-01681-01791999999ADDMA1999999087151MD1710081+9999ME1315469REMSYN060AAXX  12211 11933 46/// /3402 11168 21179 38715 48546 57008;
0150119330999992000011300004+49120+020080FM-12+136899999V0203101N004019999999N9999999N1-01301-01381999999ADDAA106000091MA1999999087051MD1710101+9999ME1315409REMSYN070AAXX  13001 11933 36/// /3104 11130 21138 38705 48540 57010 333 55059;EQDQ01  00002PRCP06
0110119330999992000011303004+49120+020080FM-12+136899999V0203201N006019999999N9999999N1-01001-01221999999ADDMA1999999086951MD1710101+9999ME1315339REMSYN060AAXX  13031 11933 46/// /3206 11100 21122 38695 48533 57010;
0264119330999992000011306004+49120+020080FM-12+136899999V0203201N004012200019N0600001N1-01031-01201999999ADDAA106000091AJ100509199999999GA1011+004809059GF101991011051004501001011IA1249IA2999-01909KA1120N-01701MA1999999086921MD1510031+9999ME1315309REMSYN094AAXX  13061 11933 32486 13204 11103 21120 38692 48530 55003 81501 333 21170 3/119 48050 81616;EQDQ01  00002PRCP06
0128119330999992000011309004+49120+020080FM-12+136899999V0202901N004012200019N0750001N1-00671-01141999999ADDGF101991999999004501999999MA1999999086921REMSYN075AAXX  13091 11933 42489 12904 11067 21114 38692 4532 54000 81500 333 81616;
0198119330999992000011312004+49120+020080FM-12+136899999V0202801N003012200019N0500001N1-00511-01061999999ADDAA106000091GA1011+003909059GF101991011051004501001001MA1999999086811MD1810111+9999ME1315239REMSYN076AAXX  13121 11933 32484 12803 11051 21106 38681 48523 58011 81500 333 81613;EQDQ01  00002PRCP06
0168119330999992000011315004+49120+020080FM-12+136899999V0202801N003012200019N0150001N1-00961-01111999999ADDGA1011+003009059GF101991011051004501001001MA1999999086741MD1710071+9999ME1315149REMSYN076AAXX  13151 11933 42465 12803 11096 21111 38674 48514 57007 81500 333 81610;
0217119330999992000011318004+49120+020080FM-12+136899999V0202901N004012200019N0150001N1-01101-01221999999ADDAA106000091GA1011+003009059GF101991011051004501001001KA1120M-00491MA1999999086691MD1710051+9999ME1315099REMSYN082AAXX  13181 11933 32465 12904 11110 21122 38669 48509 57005 81500 333 11049 81610;EQDQ01  00002PRCP06
0114119330999992000011321004+49120+020080FM-12+136899999V0203001N004019999999N9999999N1-00861-00921999999ADDMA1999999086711MD1210021+9999ME1315129REMSYN064    AAXX  13211 11933 46/// /3004 11086 21092 38671 48512 52002;
0154119330999992000011400004+49120+020080FM-12+136899999V0203301N002019999999N9999999N1-01101-01201999999ADDAA199000091MA1999999086611MD1710101+9999ME1315029REMSYN074    AAXX  14001 11933 36/// /3302 11110 21120 38661 48502 57010 333 55070;EQDQ01  00002PRCP99
0114119330999992000011403004+49120+020080FM-12+136899999V0203201N003019999999N9999999N1-00771-00821999999ADDMA1999999086641MD1210031+9999ME1315069REMSYN064    AAXX  14031 11933 46/// /3203 11077 21082 38664 48506 52003;
0268119330999992000011406004+49120+020080FM-12+136899999V0203101N004010048019N0200001N1-00641-00781999999ADDAA199000091AJ100509199999999GA1071+004809059GF107991071051004501001001IA1249IA2999-01409KA1120N-01251MA1999999086621MD1710021+9999ME1315059REMSYN098    AAXX  14061 11933 32470 73104 11064 21078 38662 48505 57002 87500 333 21125 3/114 48050 87616;EQDQ01  00002PRCP99
0206119330999992000011409004+49120+020080FM-12+136899999V0203101N00401002101CN0200001N1-00481-00711999999ADDAY121031AY221031GA1011+001809069GF107991071051002501001001MA1999999086671MD1310051+9999ME1315119MW1201REMSYN092    AAXX  14091 11933 41370 73104 11048 21071 38667 48511 53005 72022 87500 333 81606 87623;
0223119330999992000011412004+49120+020080FM-12+136899999V0202901N00301002101CN0200001N1-00431-00601999999ADDAA106000791AY171061AY221061GA1011+001809069GF105991051051002501001001MA1999999086611MD1810061+9999ME1315069MW1011REMSYN098    AAXX  14121 11933 11370 52903 11043 21060 38661 48506 58006 69901 70172 85500 333 81606 85626;
0172119330999992000011415004+49120+020080FM-12+136899999V0203201N004012200019N0250001N1-00501-00781999999ADDGA1011+003909059GF101991011051004501001001MA1999999086571MD1710041+9999ME1315019REMSYN080    AAXX  14151 11933 42475 13204 11050 21078 38657 48501 57004 81500 333 81613;
0196119330999992000011418004+49120+020080FM-12+136899999V0202801N004012200019N0250001N1-00611-00871999999ADDAA112000791GA1001+999999999GF100991001001999999001001KA1999M-00231MA1999999086641MD1310071+9999ME1315079REMSYN080    AAXX  14181 11933 12975 02804 11061 21087 38664 48507 53007 69902 333 11023;
0114119330999992000011421004+49120+020080FM-12+136899999V0202901N004019999999N9999999N1-00771-00921999999ADDMA1999999086661MD1210021+9999ME1315089REMSYN064    AAXX  14211 11933 46/// /2904 11077 21092 38666 48508 52002;
0154119330999992000011500004+49120+020080FM-12+136899999V0203101N005019999999N9999999N1-00621-00921999999ADDAA199000091MA1999999086651MD1710011+9999ME1315089REMSYN074    AAXX  15001 11933 36/// /3105 11062 21092 38665 48508 57001 333 55023;EQDQ01  00002PRCP99
0114119330999992000011503004+49120+020080FM-12+136899999V0203001N005019999999N9999999N1-00581-00971999999ADDMA1999999086641MD1710011+9999ME1315079REMSYN064    AAXX  15031 11933 46/// /3005 11058 21097 38664 48507 57001;
0296119330999992000011506004+49120+020080FM-12+136899999V0203101N005012200019N0750001N1-00671-00991999999ADDAA199000091AJ100509199999999GA1001+999999999GF100991001001999999001001GG1019013009079099IA1249IA2999-00909KA1120N-00781MA1999999086611MD1810031+9999ME1315049REMSYN108    AAXX  15061 11933 32989 03105 11067 21099 38661 48504 58003 333 21078 3/109 48050 9514/ 444 17139 77112;EQDQ01  00002PRCP99
0230119330999992000011509004+49120+020080FM-12+136899999V0202901N005012200019N0150001N1-00501-00871999999ADDGA1011+999999079GF101991011061999999001001GG1019014009079099GG2079022009019999MA1999999086641MD1310031+9999ME1315089REMSYN102    AAXX  15091 11933 42/65 12905 11050 21087 38664 48508 53003 81600 333 817// 9514/ 444 17149 67122;
0270119330999992000011512004+49120+020080FM-12+136899999V0202501N004012200019N0070001N1-00381-00791999999ADDAA199000091AY101061AY201061GA1011+999999069GF101991011081999999041011GG1019999999069099MA1999999086601MD1810041+9999ME1315059MW1401REMSYN108    AAXX  15121 11933 31/57 12504 11038 21079 38660 48505 58004 74000 81841 333 816// 9512/ 444 16//9 27123;EQDQ01  00002PRCP99
0250119330999992000011515004+49120+020080FM-12+136899999V0202901N00301000901CN0025001N1-00851-00901999999ADDAY111031AY211031GA1061+000909079GA2011+999999079GF108991071061999999999999GG1079999999999999MA1999999086561MD1810041+9999ME1314999MW1401REMSYN102    AAXX  15151 11933 41/25 82903 11085 21090 38656 48499 58004 74011 876// 333 817// 86703 444 17//4;
0286119330999992000011518004+49120+020080FM-12+136899999V0202801N00101001201CN0011001N1-00941-00991999999ADDAA112000791AY111061AY211061GA1081+001209069GA2011+999999079GF108991081051999999999999GG1079999999999999KA1120M-00331MA1999999086511MD1610051+9999ME1314949MW1781REMSYN114    AAXX  15181 11933 11/11 82801 11094 21099 38651 48494 56005 69902 77811 885// 333 11033 817// 88604 444 17//4;
0114119330999992000011521004+49120+020080FM-12+136899999V0201101N001019999999N9999999N1-00971-01011999999ADDMA1999999086481MD1710031+9999ME1314919REMSYN064    AAXX  15211 11933 46/// /1101 11097 21101 38648 48491 57003;
0141119330999992000011600004+49120+020080FM-12+136899999V0202001N001019999999N9999999N1-01001-01061999999ADDAA106000191MA1999999086431MD1710051+9999ME1314869REMSYN080    AAXX  16001 11933 16/// /2001 11100 21106 38643 48486 57005 69911 333 55054;
0114119330999992000011603004+49120+020080FM-12+136899999V0200101N001019999999N9999999N1-01121-01211999999ADDMA1999999086431MD1410001+9999ME1314869REMSYN064    AAXX  16031 11933 46/// /0101 11112 21121 38643 48486 54000;
0283119330999992000011606004+49120+020080FM-12+136899999V0200301N002012200019N0110001N1-01081-01271999999ADDAA112001091AJ100519199999999AY171061AY271061GA1011+004809059GF104991021051004501041021IA1249IA2999-01409KA1120N-01201MA1999999086451MD1310021+9999ME1314889MW1711REMSYN110    AAXX  16061 11933 11461 40302 11108 21127 38645 48488 53002 69992 77177 82542 333 21120 3/114 48051 81616;
0250119330999992000011609004+49120+020080FM-12+136899999V0202301N001019999999N0050001N1-00881-01071999999ADDAY171031AY271031GA1031+006009089GA2011+999999089GF107991051081999999041011GG1089999999999999MA1999999086581MD1310131+9999ME1315009MW1851REMSYN102    AAXX  16091 11933 41/50 72301 11088 21107 38658 48500 53013 78577 85841 333 818// 83820 444 18//5;
0217119330999992000011612004+49120+020080FM-12+136899999V0200701N003012200019N0200001N1-00531-01271999999ADDAA106000191AY171061AY271061GA1021+006009029GF102991021041008001001001MA1999999086591MD1110011+9999ME1315039MW1851REMSYN092    AAXX  16121 11933 11570 20703 11053 21127 38659 48503 51001 69921 78577 82400 333 82820;
0200119330999992000011615004+49120+020080FM-12+136899999V0202101N001012200019N0250001N1-00811-01091999999ADDAY181031AY201031GA1011+004809059GF102991021041004501001001MA1999999086601MD1310011+9999ME1315029MW1851REMSYN086    AAXX  16151 11933 41475 22101 11081 21109 38660 48502 53001 78580 82400 333 81616;
0236119330999992000011618004+49120+020080FM-12+136899999V0202601N002010360019N0130001N1-01011-01141999999ADDAA112000191AY181061AY211061GA1031+006909029GF105991041081008001041001KA1120M-00521MA1999999086531MD1810071+9999ME1314959MW1851REMSYN098    AAXX  16181 11933 11563 52602 11101 21114 38653 48495 58007 69922 78581 84840 333 11052 83823;
0114119330999992000011621004+49120+020080FM-12+136899999V0200801N001019999999N9999999N1-01351-01441999999ADDMA1999999086361MD1710171+9999ME1314789REMSYN064    AAXX  16211 11933 46/// /0801 11135 21144 38636 48478 57017;
0135119330999992000011700004+49120+020080FM-12+136899999V0203201N007019999999N9999999N1-00871-00941999999ADDAA199000021MA1999999086031MD1710331+9999ME1314509REMSYN074    AAXX  17001 11933 36/// /3207 11087 21094 38603 48450 57033 333 55068;
0124119330999992000011703004+49120+020080FM-12+136899999V0202401N004019999999N9999999N1-00881-00931999999ADDMA1999999085731MD1710301+9999ME1314239REMSYN074    AAXX  17031 11933 46/// /2404 11088 21093 38573 48423 57030 333 91009;
0356119330999992000011706004+49120+020080FM-12+136899999V0203601N006012200019N0080001N1-00391-00401999999ADDAA112002091AJ100529199999999AY181061AY271061GA1041+004809089GA2011+999999069GF104991041081999999031001IA1249IA2999-01809KA1120N-01381MA1999999085231MD1410001+9999ME1313779MW1851REMSYN132    AAXX  17061 11933 11/58 43606 11039 21040 38523 48377 57050 60022 78587 84830 333 21138 3/118 48052 816// 84816 91012 444 16//4;EQDQ01+000072APCTENQ02+000502APC3  
0234119330999992000011709004+49120+020080FM-12+136899999V0203601N008012200019N0080001N1-00061-00541999999ADDAY181031AY231031GA1011+999999069GF102991011081999999001021GG1069999999999999MA1999999085091MD1710141+9999ME1313649MW1851REMSYN102    AAXX  17091 11933 41/58 23608 11006 21054 38509 48364 57014 78583 81802 333 816// 91013 444 16//4;
0217119330999992000011712004+49120+020080FM-12+136899999V0203101N009010001519N0005001N1-00321-00401999999ADDAA106000591AY181061AY241061GA1091+000159999GF109991091999999999999999MA1999999084721MD1810371+9999ME1313299MW1881REMSYN092    AAXX  17121 11933 11/05 93109 11032 21040 38472 48329 58037 69951 78884 333 89/00 91018;
0206119330999992000011715004+49120+020080FM-12+136899999V0203001N007010001519N0007001N1-00181-00371999999ADDAY181031AY241031GA1091+000159999GF109991091999999999999999MA1999999084351MD1710371+9999ME1312939MW1881REMSYN092    AAXX  17151 11933 41/07 93007 11018 21037 38435 48293 57037 78884 333 89/00 91015 91124;
0242119330999992000011718004+49120+020080FM-12+136899999V0203101N007010001519N0002001N1-00211-00241999999ADDAA112007991AY181061AY241061GA1091+000159999GF109991091999999999999999KA1120M+00151MA1999999084051MD1710301+9999ME1312659MW1881REMSYN104    AAXX  17181 11933 11/02 93107 11021 21024 38405 48265 57030 60082 78884 333 10015 89/00 91014 91124;
0124119330999992000011721004+49120+020080FM-12+136899999V0203301N005019999999N9999999N1-00371-00401999999ADDMA1999999084021MD1710031+9999ME1312629REMSYN074    AAXX  17211 11933 46/// /3305 11037 21040 38402 48262 57003 333 91122;
0161119330999992000011800004+49120+020080FM-12+136899999V0203501N007019999999N9999999N1-00701-00741999999ADDAA106009991GJ102289MA1999999084021MD1410001+9999ME1312639REMSYN092    AAXX  18001 11933 16/// /3507 11070 21074 38402 48263 54000 60101 333 55038 91017 91124;
0124119330999992000011803004+49120+020080FM-12+136899999V0202301N002019999999N9999999N1-00741-00781999999ADDMA1999999084031MD1210011+9999ME1312649REMSYN074    AAXX  18031 11933 46/// /2302 11074 21078 38403 48264 52001 333 91007;
0277119330999992000011806004+49120+020080FM-12+136899999V0203001N004010001519N0003001N1-00781-00831999999ADDAA112022191AJ100849199999999AY171061AY241061GA1091+000159999GF109991091999999999999999IA1249IA2999-00809KA1120N-00781MA1999999083971MD1610061+9999ME1312599MW1711REMSYN104    AAXX  18061 11933 11/03 93004 11078 21083 38397 48259 56006 60222 77174 333 21078 3/108 48084 89/00;
0210119330999992000011809004+49120+020080FM-12+136899999V0202901N003010001519N0005001N1-00781-00831999999ADDAL10600591AY171031AY241031GA1091+000159999GF109991091999999999999999MA1999999083891MD1710081+9999ME1312519MW1711REMSYN086    AAXX  18091 11933 41/05 92903 11078 21083 38389 48251 57008 77174 333 89/00 93105;
0211119330999992000011812004+49120+020080FM-12+136899999V0203501N003010001519N0008001N1-00801-00951999999ADDAA106003091AY171061AY241061GA1091+000159999GF109991091999999999999999MA1999999083791MD1710101+9999ME1312429MW1711REMSYN086    AAXX  18121 11933 11/08 93503 11080 21095 38379 48242 57010 60031 77174 333 89/00;
0216119330999992000011815004+49120+020080FM-12+136899999V0203401N005010001519N0003001N1-00851-00941999999ADDAL10600691AY171031AY241031GA1091+000159999GF109991091999999999999999MA1999999084011MD1310221+9999ME1312639MW1731REMSYN092    AAXX  18151 11933 41/03 93405 11085 21094 38401 48263 53022 77374 333 89/00 91012 93106;
0236119330999992000011818004+49120+020080FM-12+136899999V0202801N005010001519N0002001N1-00811-00861999999ADDAA112013091AY171061AY241061GA1091+000159999GF109991091999999999999999KA1120M-00761MA1999999084261MD1110251+9999ME1312869MW1711REMSYN098    AAXX  18181 11933 11/02 92805 11081 21086 38426 48286 51025 60132 77174 333 11076 89/00 91010;
0124119330999992000011821004+49120+020080FM-12+136899999V0203101N004019999999N9999999N1-00771-00851999999ADDMA1999999084381MD1210121+9999ME1312989REMSYN074    AAXX  18211 11933 46/// /3104 11077 21085 38438 48298 52012 333 91010;
0141119330999992000011900004+49120+020080FM-12+136899999V0203301N005019999999N9999999N1-00851-00931999999ADDAA106003091MA1999999084431MD1210051+9999ME1313029REMSYN080    AAXX  19001 11933 16/// /3305 11085 21093 38443 48302 52005 60031 333 55001;
0124119330999992000011903004+49120+020080FM-12+136899999V0200101N005019999999N9999999N1-00941-01001999999ADDMA1999999084571MD1210141+9999ME1313169REMSYN074    AAXX  19031 11933 46/// /0105 11094 21100 38457 48316 52014 333 91013;
0283119330999992000011906004+49120+020080FM-12+136899999V0200201N004010001519N0002001N1-00981-01041999999ADDAA112023191AJ101189199999999AY171061AY241061GA1091+000159999GF109991091999999999999999IA1249IA2999-01009KA1120N-00981MA1999999084651MD1310081+9999ME1313239MW1711REMSYN110    AAXX  19061 11933 11/02 90204 11098 21104 38465 48323 53008 60232 77174 333 21098 3/110 48118 89/00 91010;
0194119330999992000011909004+49120+020080FM-12+136899999V0203101N002010001519N0008001N1-01031-01111999999ADDAY171031AY241031GA1091+000159999GF109991091999999999999999MA1999999084871MD1210221+9999ME1313449MW1711REMSYN080    AAXX  19091 11933 41/08 93102 11103 21111 38487 48344 52022 77174 333 89/00;
0277119330999992000011912004+49120+020080FM-12+136899999V0200301N00401000901CN0004001N1-01111-01201999999ADDAA106004191AY171061AY241061GA1051+000909069GA2071+006009089GA3021+999999069GF107991071081999999001001MA1999999085001MD1210131+9999ME1313569MW1851REMSYN120    AAXX  19121 11933 11/04 70304 11111 21120 38500 48356 52013 60041 78574 87800 333 826// 85603 87820 91011 444 26//4;
0273119330999992000011915004+49120+020080FM-12+136899999V0203601N00301003001CN0003001N1-01141-01241999999ADDAY181031AY241031GA1081+003009069GA2021+999999069GF108991081081999999999999GG1069999999999999MA1999999085231MD1210231+9999ME1313769MW1851OA149902101REMSYN114    AAXX  19151 11933 41/03 83603 11114 21124 38523 48376 52023 78584 888// 333 826// 88610 91008 91121 444 26//4;
0232119330999992000011918004+49120+020080FM-12+136899999V0203201N003010001519N0002001N1-01171-01271999999ADDAA112007191AY181061AY241061GA1091+000159999GF109991091999999999999999KA1120M-00981MA1999999085491MD1110261+9999ME1314009MW1711REMSYN094AAXX  19181 11933 11/02 93203 11117 21127 38549 48400 51026 60072 77184 333 11098 89/00 91121;
0110119330999992000011921004+49120+020080FM-12+136899999V0202801N004019999999N9999999N1-01081-01171999999ADDMA1999999085601MD1210111+9999ME1314109REMSYN060AAXX  19211 11933 46/// /2804 11108 21117 38560 48410 52011;
0151119330999992000012000004+49120+020080FM-12+136899999V0203101N004019999999N9999999N1-01101-01221999999ADDAA106007991GJ100369MA1999999085721MD1210121+9999ME1314219REMSYN082AAXX  20001 11933 16/// /3104 11110 21122 38572 48421 52012 60081 333 55006 91010;
0120119330999992000012003004+49120+020080FM-12+136899999V0200101N006019999999N9999999N1-01141-01271999999ADDMA1999999085691MD1710031+9999ME1314189REMSYN070AAXX  20031 11933 46/// /0106 11114 21127 38569 48418 57003 333 91016;
0285119330999992000012006004+49120+020080FM-12+136899999V0203101N00201001201CN0150001N1-01111-01311999999ADDAA112018091AJ101219199999999AY171061AY231061GA1041+000909079GF108991081051001501999999IA1249IA2999-01209KA1120N-01181MA1999999085851MD1310161+9999ME1314339MW1701REMSYN112AAXX  20061 11933 11265 83102 11111 21131 38585 48433 53016 60182 77073 885// 333 21118 3/112 48121 84703 88613;
0246119330999992000012009004+49120+020080FM-12+136899999V0202601N004019999999N0015001N1-01001-01091999999ADDAY171031AY231031GA1031+000909089GA2021+999999089GF107991071081999999001001GG1089999999999999MA1999999085861MD1110011+9999ME1314349MW1851REMSYN098AAXX  20091 11933 41/15 72604 11100 21109 38586 48434 51001 78573 87800 333 828// 83803 444 28//4;
0241119330999992000012012004+49120+020080FM-12+136899999V0203001N006010060019N0100001N1-00941-01031999999ADDAA106000191AY171061AY231061GA1031+000909089GA2071+006009069GF107991071081001501999999MA1999999085691MD1810171+9999ME1314199MW1261REMSYN100AAXX  20121 11933 11260 73006 11094 21103 38569 48419 58017 69921 72673 878// 333 83803 87620 91011;
0196119330999992000012015004+49120+020080FM-12+136899999V0203001N007010001519N0003001N1-00931-01001999999ADDAY181031AY241031GA1091+000159999GF109991091999999999999999MA1999999085491MD1710201+9999ME1314019MW1711REMSYN082AAXX  20151 11933 41/03 93007 11093 21100 38549 48401 57020 77184 333 89/00 91013;
0226119330999992000012018004+49120+020080FM-12+136899999V0203001N008010001519N0002001N1-00821-00861999999ADDAA112003091AY181061AY241061GA1091+000159999GF109991091999999999999999KA1120M-00721MA1999999085301MD1710191+9999ME1313839MW1711REMSYN088AAXX  20181 11933 11/02 93008 11082 21086 38530 48383 57019 60032 77184 333 11072 89/00;
0110119330999992000012021004+49120+020080FM-12+136899999V0203101N008019999999N9999999N1-00771-00811999999ADDMA1999999085021MD1710281+9999ME1313579REMSYN060AAXX  20211 11933 46/// /3108 11077 21081 38502 48357 57028;
0131119330999992000012100004+49120+020080FM-12+136899999V0203001N008019999999N9999999N1-00671-00711999999ADDAA199000021MA1999999084731MD1710291+9999ME1313309REMSYN070AAXX  21001 11933 36/// /3008 11067 21071 38473 48330 57029 333 55015;
0102119330999992000012103004+49120+020080FM-12+136899999V0203101N009019999999N9999999N1-00541-00571999999ADDMA1999999084391REMSYN075AAXX  21031 11933 46/// /3109 11054 21057 38439 4298 57034 333 91016 91120;
0279119330999992000012106004+49120+020080FM-12+136899999V0203001N006010001519N0002001N1-00601-00631999999ADDAA112011991AJ101309199999999AY171061AY241061GA1091+000159999GF109991091999999999999999IA1249IA2999-00809KA1120N-00831MA1999999084101MD1710291+9999ME1312719MW1731REMSYN106AAXX  21061 11933 11/02 93006 11060 21063 38410 48271 57029 60122 77374 333 21083 3/108 48130 89/00 91120;
0173119330999992000012109004+49120+020080FM-12+136899999V0200201N00401000151CN0003001N1-00891-00941999999ADDGA1091+000159999GF109991091999999999999999MA1999999084131MD1310031+9999ME1312749REMSYN081AAXX  21091 11933 41/03 90204 11089 21094 38413 48274 53003 7774 333 89/00 93107;
0213119330999992000012112004+49120+020080FM-12+136899999V0203101N003010039019N0120001N1-01001-01061999999ADDAA106009991AY171061AY241061GA1071+003909029GF108991071021004501999999MA1999999084231MD1110101+9999ME1312849MW1861REMSYN088AAXX  21121 11933 11462 83103 11100 21106 38423 48284 51010 60101 78674 872// 333 87813;
0212119330999992000012115004+49120+020080FM-12+136899999V0200201N004010001519N0003001N1-01271-01371999999ADDAL10600591AY181031AY281031GA1091+000159999GF109991091999999999999999MA1999999084471MD1310241+9999ME1313079MW1861REMSYN088AAXX  21151 11933 41/03 90204 11127 21137 38447 48307 53024 78688 333 89/00 91009 93105;
0254119330999992000012118004+49120+020080FM-12+136899999V0203101N003010001519N0002001N1-01381-01481999999ADDAA112016091AL10600591AY181061AY231061GA1091+000159999GF109991091999999999999999KA1120M-00571MA1999999084751MD1210281+9999ME1313339MW1861REMSYN106AAXX  21181 11933 11/02 93103 11138 21148 38475 48333 52028 60162 78683 333 11057 89/00 91008 90730 93105;
0120119330999992000012121004+49120+020080FM-12+136899999V0202901N004019999999N9999999N1-01371-01481999999ADDMA1999999085021MD1210271+9999ME1313579REMSYN070AAXX  21211 11933 46/// /2904 11137 21148 38502 48357 52027 333 91011;
0131119330999992000012200004+49120+020080FM-12+136899999V0202701N004019999999N9999999N1-01441-01551999999ADDAA199000021MA1999999085261MD1210241+9999ME1313799REMSYN070AAXX  22001 11933 36/// /2704 11144 21155 38526 48379 52024 333 55007;
0120119330999992000012203004+49120+020080FM-12+136899999V0202901N003019999999N9999999N1-01451-01561999999ADDMA1999999085301MD1210041+9999ME1313839REMSYN070AAXX  22031 11933 46/// /2903 11145 21156 38530 48383 52004 333 91008;
0273119330999992000012206004+49120+020080FM-12+136899999V0202501N003010001519N0007001N1-01551-01681999999ADDAA112006191AJ101339199999999AY181061AY221061GA1091+000159999GF109991091999999999999999IA1249IA2999-01609KA1120N-01551MA1999999085371MD1310071+9999ME1313899MW1861REMSYN100AAXX  22061 11933 11/07 92503 11155 21168 38537 48389 53007 60062 78682 333 21155 3/116 48133 89/00;
0202119330999992000012209004+49120+020080FM-12+136899999V0202601N00201036001CN0750001N1-01351-01451999999ADDAY181031AY281031GA1011+004809089GF106991011011004501041081MA1999999085401MD1010031+9999ME1313929MW1261REMSYN088AAXX  22091 11933 41489 62602 11135 21145 38540 48392 50003 72688 81148 333 81816 86270;
0213119330999992000012212004+49120+020080FM-12+136899999V0202601N002012200019N0750001N1-01041-01131999999ADDAA106000591AY181061AY281061GA1011+003909029GF102991011011004501001021MA1999999085301MD1710101+9999ME1313839MW1021REMSYN088AAXX  22121 11933 11489 22602 11104 21113 38530 48383 57010 69951 70288 81102 333 81813;
0174119330999992000012215004+49120+020080FM-12+136899999V0202901N00401036001CN0750001N1-01371-01601999999ADDGA1011+003909069GF107991011041004501071001MA1999999085161MD1710141+9999ME1313709REMSYN082AAXX  22151 11933 42489 72904 11137 21160 38516 48370 57014 81470 333 81613 87458;
0282119330999992000012218004+49120+020080FM-12+136899999V0202801N00401007801CN0050001N1-01451-01551999999ADDAA112000891AY111061AY211061GA1061+007809069GA2011+999999079GF106991061051999999001001GG1079999999999999KA1120M-01021MA1999999085041MD1710121+9999ME1313599MW1711REMSYN110AAXX  22181 11933 11/50 62804 11145 21155 38504 48359 57012 69972 77111 86500 333 11102 817// 86626 444 17//0;
0110119330999992000012221004+49120+020080FM-12+136899999V0203001N006019999999N9999999N1-01041-01161999999ADDMA1999999084991MD1710051+9999ME1313559REMSYN060AAXX  22211 11933 46/// /3006 11104 21116 38499 48355 57005;
0131119330999992000012300004+49120+020080FM-12+136899999V0203001N005019999999N9999999N1-00931-01051999999ADDAA199000021MA1999999084951MD1710041+9999ME1313519REMSYN070AAXX  23001 11933 36/// /3005 11093 21105 38495 48351 57004 333 55060;
0110119330999992000012303004+49120+020080FM-12+136899999V0203001N005019999999N9999999N1-01061-01141999999ADDMA1999999084951MD1410001+9999ME1313519REMSYN060AAXX  23031 11933 46/// /3005 11106 21114 38495 48351 54000;
0285119330999992000012306004+49120+020080FM-12+136899999V0203001N005010120019N0120001N1-01011-01091999999ADDAA112001091AJ101259199999999AY171061AY271061GA1011+009009089GF107991071081008001001001IA1249IA2999-01409KA1120N-01441MA1999999084911MD1710041+9999ME1313479MW1851REMSYN112AAXX  23061 11933 11562 73005 11101 21109 38491 48347 57004 69992 78577 87800 333 21144 3/114 48125 81830 87640;
0202119330999992000012309004+49120+020080FM-12+136899999V0202901N00201004201CN0400001N1-00961-01111999999ADDAY181031AY281031GA1011+004809069GF106991061051004501001001MA1999999084961MD1310051+9999ME1313529MW1021REMSYN088AAXX  23091 11933 41482 62902 11096 21111 38496 48352 53005 70288 86500 333 81616 86633;
0190119330999992000012315004+49120+020080FM-12+136899999V0201401N009010001519N0008001N1-01131-01221999999ADDAY181031AY241031GA1091+000159999GF109991091999999999999999MA1999999085011MD1310031+9999ME1313569MW1861REMSYN076AAXX  23151 11933 41/08 91409 11113 21122 38501 48356 53003 78684 333 89/00;
0226119330999992000012318004+49120+020080FM-12+136899999V0202801N001010001519N0002001N1-01271-01361999999ADDAA112000591AY181061AY241061GA1091+000159999GF109991091999999999999999KA1120M-00861MA1999999085031MD1210021+9999ME1313589MW1851REMSYN088AAXX  23181 11933 11/02 92801 11127 21136 38503 48358 52002 69942 78584 333 11086 89/00;
0110119330999992000012321004+49120+020080FM-12+136899999V0202001N001019999999N9999999N1-01461-01571999999ADDMA1999999085071MD1210041+9999ME1313629REMSYN060AAXX  23211 11933 46/// /2001 11146 21157 38507 48362 52004;
0131119330999992000012400004+49120+020080FM-12+136899999V0201101N002019999999N9999999N1-01691-01871999999ADDAA199000021MA1999999085101MD1210031+9999ME1313649REMSYN070AAXX  24001 11933 36/// /1102 11169 21187 38510 48364 52003 333 55015;
0110119330999992000012403004+49120+020080FM-12+136899999V0200101N004019999999N9999999N1-01651-02041999999ADDMA1999999085111MD1210011+9999ME1313659REMSYN060AAXX  24031 11933 46/// /0104 11165 21204 38511 48365 52001;
0289119330999992000012406004+49120+020080FM-12+136899999V0200801N002012200019N0400001N1-01691-02061999999ADDAA112000391AJ101289199999999AY151061AY211061GA1011+003009069GF101991011081004501041011IA1249IA2999-01909KA1120N-01711MA1999999085211MD1310101+9999ME1313749MW1021REMSYN116AAXX  24061 11933 11482 10802 11169 21206 38521 48374 53010 69932 70251 81841 333 21171 3/119 48128 81610 444 17113;
0202119330999992000012409004+49120+020080FM-12+136899999V0203601N002012200019N0600001N1-01221-02011999999ADDAY101031AY201031GA1011+003009089GF101991011011004501041011MA1999999085291MD1210081+9999ME1313829MW1361REMSYN088AAXX  24091 11933 41486 13602 11122 21201 38529 48382 52008 73600 81141 333 81810 91008;
0226119330999992000012412004+49120+020080FM-12+136899999V0203101N005012200019N0600001N1-01241-01861999999ADDAA199000091AY101061AY201061GA1011+003909029GF101991011081004501001011MA1999999085351MD1010061+9999ME1313879MW1361REMSYN082AAXX  24121 11933 31486 13105 11124 21186 38535 48387 50006 73600 81801 333 81813;EQDQ01  00002PRCP99
0196119330999992000012415004+49120+020080FM-12+136899999V0200901N004012200019N0550001N1-01441-01951999999ADDAY131031AY231031GA1011+006909029GF101991011041008001001001MA1999999085471MD1310121+9999ME1313989MW1361REMSYN082AAXX  24151 11933 41585 10904 11144 21195 38547 48398 53012 73633 81400 333 81823;
0245119330999992000012418004+49120+020080FM-12+136899999V0200301N003012200019N0350001N1-01601-02021999999ADDAA199000091AY131061AY231061GA1011+006909059GF101991011041008001001001KA1120M-01101MA1999999085591MD1110121+9999ME1314089MW1021REMSYN088AAXX  24181 11933 31581 10303 11160 21202 38559 48408 51012 70233 81400 333 11110 81623;EQDQ01  00002PRCP99
0110119330999992000012421004+49120+020080FM-12+136899999V0200101N003019999999N9999999N1-01741-02021999999ADDMA1999999085651MD1210061+9999ME1314149REMSYN060AAXX  24211 11933 46/// /0103 11174 21202 38565 48414 52006;
0150119330999992000012500004+49120+020080FM-12+136899999V0200501N002019999999N9999999N1-01851-02041999999ADDAA199000091MA1999999085701MD1210051+9999ME1314189REMSYN070AAXX  25001 11933 36/// /0502 11185 21204 38570 48418 52005 333 55074;EQDQ01  00002PRCP99
0110119330999992000012503004+49120+020080FM-12+136899999V0200201N002019999999N9999999N1-01711-01991999999ADDMA1999999085811MD1210111+9999ME1314289REMSYN060AAXX  25031 11933 46/// /0202 11171 21199 38581 48428 52011;
0279119330999992000012506004+49120+020080FM-12+136899999V0200201N002012200019N0250001N1-01721-02011999999ADDAA112000191AJ101199199999999GA1011+006009069GF101991011051008001001001GG1079033009019999IA1249IA2999-02409KA1120N-02121MA1999999085941MD1310131+9999ME1314399REMSYN110AAXX  25061 11933 12575 10202 11172 21201 38594 48439 53013 69912 81500 333 21212 3/124 48119 81620 444 27133;
0168119330999992000012509004+49120+020080FM-12+136899999V0202801N001012200019N0350001N1-01141-01951999999ADDGA1011+009009059GF101991011051008001041001MA1999999086111MD1110171+9999ME1314569REMSYN076AAXX  25091 11933 42581 12801 11114 21195 38611 48456 51017 81540 333 81630;
0236119330999992000012512004+49120+020080FM-12+136899999V0203301N002012200019N0030001N1-00811-01991999999ADDAA199000091AY101061AY201061GA1011+999999069GF101991011081999999041011MA1999999086191MD1210081+9999ME1314659MW1401REMSYN092AAXX  25121 11933 31/30 13302 11081 21199 38619 48465 52008 74000 81841 333 816// 444 16//5;EQDQ01  00002PRCP99
0168119330999992000012515004+49120+020080FM-12+136899999V0200101N003012200019N0550001N1-01241-02171999999ADDGA1011+006909059GF101991011041008001041001MA1999999086251MD1110061+9999ME1314699REMSYN076AAXX  25151 11933 42585 10103 11124 21217 38625 48469 51006 81440 333 81623;
0233119330999992000012518004+49120+020080FM-12+136899999V0203501N003012200019N0300001N1-01361-01821999999ADDAA199000091GA1031+024009079GF103991031999999999041001KA1120M-00811MA1999999086271MD1010021+9999ME1314709REMSYN082AAXX  25181 11933 32980 33503 11136 21182 38627 48470 50002 83040 333 11081 83358;EQDQ01  00002PRCP99Q02    003SCOLCG
0110119330999992000012521004+49120+020080FM-12+136899999V0202601N003019999999N9999999N1-01431-01821999999ADDMA1999999086251MD1710021+9999ME1314689REMSYN060AAXX  25211 11933 46/// /2603 11143 21182 38625 48468 57002;
0164119330999992000012600004+49120+020080FM-12+136899999V0202701N005019999999N9999999N1-01651-01791999999ADDAA199000091GJ104569MA1999999086101MD1710151+9999ME1314549REMSYN076AAXX  26001 11933 36/// /2705 11165 21179 38610 48454 57015 333 55076 91010;EQDQ01  00002PRCP99
0120119330999992000012603004+49120+020080FM-12+136899999V0203401N005019999999N9999999N1-00831-00951999999ADDMA1999999085981MD1710121+9999ME1314469REMSYN070AAXX  26031 11933 46/// /3405 11083 21095 38598 48446 57012 333 91010;
0273119330999992000012606004+49120+020080FM-12+136899999V0202601N002010001519N0005001N1-01131-01231999999ADDAA112002091AJ101199199999999AY171061AY241061GA1091+000159999GF109991091999999999999999IA1249IA2999-01609KA1120N-01651MA1999999086031MD1310051+9999ME1314499MW1731REMSYN100AAXX  26061 11933 11/05 92602 11113 21123 38603 48449 53005 60022 77374 333 21165 3/116 48119 89/00;
0190119330999992000012609004+49120+020080FM-12+136899999V0202801N003010001519N0003001N1-01091-01171999999ADDAY171031AY241031GA1091+000159999GF109991091999999999999999MA1999999086091MD1010061+9999ME1314559MW1731REMSYN076AAXX  26091 11933 41/03 92803 11109 21117 38609 48455 50006 77374 333 89/00;
0207119330999992000012612004+49120+020080FM-12+136899999V0202601N003010001519N0005001N1-01031-01091999999ADDAA106002091AY171061AY241061GA1091+000159999GF109991091999999999999999MA1999999086111MD1310021+9999ME1314579MW1731REMSYN082AAXX  26121 11933 11/05 92603 11103 21109 38611 48457 53002 60021 77374 333 89/00;
0246119330999992000012615004+49120+020080FM-12+136899999V0203001N00201007801CN0008001N1-01041-01101999999ADDAY181031AY271031GA1061+007809089GA2011+999999069GF106991061081999999001021GG1069999999999999MA1999999086131MD1210021+9999ME1314599MW1421REMSYN098AAXX  26151 11933 41/08 63002 11104 21110 38613 48459 52002 74287 86802 333 816// 86826 444 16//4;
0270119330999992000012618004+49120+020080FM-12+136899999V0203201N00301000901CN0004001N1-01041-01101999999ADDAA112003091AY181061AY271061GA1061+000909079GA2011+999999079GF106991061061999999001001KA1120M-00931MA1999999086231MD1310101+9999ME1314689MW1461REMSYN116AAXX  26181 11933 11/04 63203 11104 21110 38623 48468 53010 60032 74687 86600 333 11093 817// 86703 93501 444 17//4;
0110119330999992000012621004+49120+020080FM-12+136899999V0202601N004019999999N9999999N1-00931-00981999999ADDMA1999999086271MD1210041+9999ME1314729REMSYN060AAXX  26211 11933 46/// /2604 11093 21098 38627 48472 52004;
0131119330999992000012700004+49120+020080FM-12+136899999V0203001N004019999999N9999999N1-00881-00931999999ADDAA199000021MA1999999086301MD1210031+9999ME1314759REMSYN070AAXX  27001 11933 36/// /3004 11088 21093 38630 48475 52003 333 55012;
0110119330999992000012703004+49120+020080FM-12+136899999V0202801N002019999999N9999999N1-00941-00991999999ADDMA1999999086231MD1710071+9999ME1314689REMSYN060AAXX  27031 11933 46/// /2802 11094 21099 38623 48468 57007;
0279119330999992000012706004+49120+020080FM-12+136899999V0202801N003010001519N0001001N1-00931-01001999999ADDAA112000391AJ101139199999999AY171061AY241061GA1091+000159999GF109991091999999999999999IA1249IA2999-01209KA1120N-01061MA1999999086281MD1310051+9999ME1314739MW1711REMSYN106AAXX  27061 11933 11/01 92803 11093 21100 38628 48473 53005 69932 77174 333 21106 3/112 48113 89/00 93508;
0196119330999992000012709004+49120+020080FM-12+136899999V0202601N003010001519N0003001N1-00581-00611999999ADDAY171031AY241031GA1091+000159999GF109991091999999999999999MA1999999086371MD1210091+9999ME1314839MW1431REMSYN082AAXX  27091 11933 41/03 92603 11058 21061 38637 48483 52009 74374 333 89/00 93508;
0213119330999992000012712004+49120+020080FM-12+136899999V0202801N004010001519N0001001N1-00571-00601999999ADDAA106000791AY171061AY241061GA1091+000159999GF109991091999999999999999MA1999999086351MD1810021+9999ME1314819MW1491REMSYN088AAXX  27121 11933 11/01 92804 11057 21060 38635 48481 58002 69901 74974 333 89/00 93515;
0196119330999992000012715004+49120+020080FM-12+136899999V0202901N002010001519N0001001N1-00601-00631999999ADDAY141031AY241031GA1091+000159999GF109991091999999999999999MA1999999086361MD1310011+9999ME1314829MW1451REMSYN082AAXX  27151 11933 41/01 92902 11060 21063 38636 48482 53001 74544 333 89/00 93520;
0232119330999992000012718004+49120+020080FM-12+136899999V0203001N003010001519N0001001N1-00641-00671999999ADDAA112000791AY141061AY241061GA1091+000159999GF109991091999999999999999KA1120M-00541MA1999999086301MD1810061+9999ME1314769MW1451REMSYN094AAXX  27181 11933 11/01 93003 11064 21067 38630 48476 58006 69902 74544 333 11054 89/00 93520;
0110119330999992000012721004+49120+020080FM-12+136899999V0202901N005019999999N9999999N1-00641-00671999999ADDMA1999999086161MD1710141+9999ME1314639REMSYN060AAXX  27211 11933 46/// /2905 11064 21067 38616 48463 57014;
0150119330999992000012800004+49120+020080FM-12+136899999V0203001N003019999999N9999999N1-00711-00741999999ADDAA199000091MA1999999086061MD1710101+9999ME1314549REMSYN070AAXX  28001 11933 36/// /3003 11071 21074 38606 48454 57010 333 55005;EQDQ01  00002PRCP99
0110119330999992000012803004+49120+020080FM-12+136899999V0202901N002019999999N9999999N1-00781-00821999999ADDMA1999999086001MD1710061+9999ME1314489REMSYN060AAXX  28031 11933 46/// /2902 11078 21082 38600 48448 57006;
0292119330999992000012806004+49120+020080FM-12+136899999V0203001N003010001519N0001001N1-00811-00851999999ADDAA199000091AJ101099199999999AY141061AY241061GA1091+000159999GF109991091999999999999999IA1249IA2999-00809KA1120N-00811MA1999999085951MD1610051+9999ME1314439MW1491REMSYN100AAXX  28061 11933 31/01 93003 11081 21085 38595 48443 56005 74944 333 21081 3/108 48109 89/00 93525;EQDQ01  00002PRCP99
0196119330999992000012809004+49120+020080FM-12+136899999V0203101N002010001519N0001001N1-00731-00771999999ADDAY141031AY241031GA1091+000159999GF109991091999999999999999MA1999999085961MD1310011+9999ME1314449MW1491REMSYN082AAXX  28091 11933 41/01 93102 11073 21077 38596 48444 53001 74944 333 89/00 93529;
0226119330999992000012812004+49120+020080FM-12+136899999V0203001N004010001519N0003001N1-00671-00701999999ADDAA199000091AY141061AY241061GA1091+000159999GF109991091999999999999999MA1999999085851MD1810111+9999ME1314349MW1451REMSYN082AAXX  28121 11933 31/03 93004 11067 21070 38585 48434 58011 74544 333 89/00 93525;EQDQ01  00002PRCP99
0224119330999992000012815004+49120+020080FM-12+136899999V0203001N003012200019N0400001N1-00851-00901999999ADDAY141031AY241031GA1011+003909069GA2031+060009009GF103991011051004501041011MA1999999085821MD1610031+9999ME1314319MW1011REMSYN094AAXX  28151 11933 41482 33003 11085 21090 38582 48431 56003 70144 81541 333 81613 83070 93508;
0260119330999992000012818004+49120+020080FM-12+136899999V0202901N003010030019N0120001N1-00881-00931999999ADDAA112000791AY141061AY211061GA1031+001809079GA2081+003009069GF108991081051002501999999KA1120M-00601MA1999999085861MD1310041+9999ME1314359MW1701REMSYN106AAXX  28181 11933 11362 82903 11088 21093 38586 48435 53004 69902 77041 885// 333 11060 83706 88610 93505;
0110119330999992000012821004+49120+020080FM-12+136899999V0202801N002019999999N9999999N1-01001-01061999999ADDMA1999999085811MD1710051+9999ME1314309REMSYN060AAXX  28211 11933 46/// /2802 11100 21106 38581 48430 57005;
0131119330999992000012900004+49120+020080FM-12+136899999V0203001N004019999999N9999999N1-00871-00921999999ADDAA199000021MA1999999085751MD1710061+9999ME1314259REMSYN070AAXX  29001 11933 36/// /3004 11087 21092 38575 48425 57006 333 55018;
0120119330999992000012903004+49120+020080FM-12+136899999V0203001N006019999999N9999999N1-00761-00801999999ADDMA1999999085641MD1710111+9999ME1314159REMSYN070AAXX  29031 11933 46/// /3006 11076 21080 38564 48415 57011 333 91011;
0357119330999992000012906004+49120+020080FM-12+136899999V0203101N00701004801CN0080001N1-00611-00641999999ADDAA112000191AJ101069199999999AY171061AY231061GA1031+000909079GA2081+004809069GA3021+999999079GF108991081051999999999999GG1079999999999999IA1249IA2999-01109KA1120N-01001MA1999999085571MD1610071+9999ME1314099MW1701REMSYN134AAXX  29061 11933 11/58 83107 11061 21064 38557 48409 56007 69922 77073 885// 333 21100 3/111 48106 827// 83703 88616 91012 444 27//1;
0246119330999992000012909004+49120+020080FM-12+136899999V0203101N00801000901CN0040001N1-00501-00531999999ADDAY171031AY231031GA1081+000909079GA2021+999999079GF108991081071999999999999GG1079999999999999MA1999999085541MD1710031+9999ME1314069MW1711REMSYN098AAXX  29091 11933 41/40 83108 11050 21053 38554 48406 57003 77173 887// 333 827// 88703 444 27//1;
0245119330999992000012912004+49120+020080FM-12+136899999V0203101N00701000301CN0015001N1-00451-00461999999ADDAA106001091AY171061AY231061GA1081+000309079GA2021+999999079GF108991081071999999999999MA1999999085321MD1710221+9999ME1313869MW1711REMSYN104AAXX  29121 11933 11/15 83107 11045 21046 38532 48386 57022 60011 77173 887// 333 827// 88701 444 27//1;
0196119330999992000012915004+49120+020080FM-12+136899999V0203001N006010009019N0150001N1-00401-00411999999ADDAY171031AY231031GA1081+000909069GF108991081071001501999999MA1999999085101MD1710221+9999ME1313659MW1711REMSYN082AAXX  29151 11933 41265 83006 11040 21041 38510 48365 57022 77173 887// 333 88703;
0226119330999992000012918004+49120+020080FM-12+136899999V0203001N005010001519N0008001N1-00511-00541999999ADDAA112002091AY171061AY241061GA1091+000159999GF109991091999999999999999KA1120M-00391MA1999999084931MD1710171+9999ME1313499MW1711REMSYN088AAXX  29181 11933 11/08 93005 11051 21054 38493 48349 57017 60022 77174 333 11039 89/00;
0110119330999992000012921004+49120+020080FM-12+136899999V0203101N008019999999N9999999N1-00331-00341999999ADDMA1999999084751MD1710181+9999ME1313329REMSYN060AAXX  29211 11933 46/// /3108 11033 21034 38475 48332 57018;
0151119330999992000013000004+49120+020080FM-12+136899999V0203101N008019999999N9999999N1-00301-00301999999ADDAA106004191GJ100009MA1999999084591MD1710161+9999ME1313169REMSYN082AAXX  30001 11933 16/// /3108 11030 21030 38459 48316 57016 60041 333 55000 91014;
0110119330999992000013003004+49120+020080FM-12+136899999V0203101N007019999999N9999999N1-00241-00241999999ADDMA1999999084541MD1710051+9999ME1313129REMSYN060AAXX  30031 11933 46/// /3107 11024 21024 38454 48312 57005;
0273119330999992000013006004+49120+020080FM-12+136899999V0203101N006010001519N0004001N1-00171-00171999999ADDAA112009991AJ101139199999999AY171061AY241061GA1091+000159999GF109991091999999999999999IA1249IA2999-00509KA1120N-00501MA1999999084461MD1710081+9999ME1313049MW1731REMSYN100AAXX  30061 11933 11/04 93106 11017 21017 38446 48304 57008 60102 77374 333 21050 3/105 48113 89/00;
0268119330999992000013009004+49120+020080FM-12+136899999V0203101N00801009001CN0020001N1-00261-00291999999ADDAL19900591AY171031AY241031GA1061+009009089GA2011+999999069GF107991061081999999001011GG1069999999999999MA1999999084621MD1310161+9999ME1313199MW1851REMSYN110AAXX  30091 11933 41/20 73108 11026 21029 38462 48319 53016 78574 86801 333 816// 86830 91014 93105 444 16//0;
0241119330999992000013012004+49120+020080FM-12+136899999V0203101N008010048019N0250001N1-00311-00481999999ADDAA106006191AY171061AY241061GA1011+000909089GA2061+004809089GF106991061021001501001001MA1999999084751MD1210131+9999ME1313329MW1851REMSYN100AAXX  30121 11933 11275 63108 11031 21048 38475 48332 52013 60061 78574 86200 333 81803 86816 91015;
0234119330999992000013015004+49120+020080FM-12+136899999V0203101N00601004801CN0020001N1-00461-00631999999ADDAY181031AY231031GA1061+004809089GA2011+999999069GF107991071081999999999999MA1999999085021MD1210271+9999ME1313579MW1861REMSYN104AAXX  30151 11933 41/20 73106 11046 21063 38502 48357 52027 78683 878// 333 816// 86816 91012 444 16//0;
0232119330999992000013018004+49120+020080FM-12+136899999V0203101N010010018019N0150001N1-00491-00541999999ADDAA112010991AY181061AY241061GA1071+001809029GF107991071021002501999999KA1120M-00171MA1999999085331MD1210311+9999ME1313869MW1851REMSYN094AAXX  30181 11933 11365 73110 11049 21054 38533 48386 52031 60112 78584 872// 333 11017 87806;
0126119330999992000013021004+49120+020080FM-12+136899999V0203301N006019999999N9999999N1-00551-00671999999ADDMA1999999085621MD1210291+9999ME1314139REMSYN076AAXX  30211 11933 46/// /3306 11055 21067 38562 48413 52029 333 91013 91127;
0157119330999992000013100004+49120+020080FM-12+136899999V0202901N006019999999N9999999N1-00551-00991999999ADDAA106004191GJ101269MA1999999085731MD1210111+9999ME1314249REMSYN088AAXX  31001 11933 16/// /2906 11055 21099 38573 48424 52011 60041 333 55021 91011 91127;
0110119330999992000013103004+49120+020080FM-12+136899999V0203101N009019999999N9999999N1-00561-00631999999ADDMA1999999085661MD1710071+9999ME1314179REMSYN060AAXX  31031 11933 46/// /3109 11056 21063 38566 48417 57007;
0317119330999992000013106004+49120+020080FM-12+136899999V0203101N00901001801CN0012001N1-00191-00191999999ADDAA112004191AJ101219199999999AY131061AY231061GA1071+001809089GA2011+999999069GF107991071081999999999999IA1249IA2999-00709KA1120N-00651MA1999999085581MD1610081+9999ME1314109MW1851REMSYN128AAXX  31061 11933 11/12 73109 11019 21019 38558 48410 56008 60042 78533 878// 333 21065 3/107 48121 816// 87806 91016 444 16//0;
0190119330999992000013109004+49120+020080FM-12+136899999V0203101N008010001519N0004001N1-00041-00041999999ADDAY181031AY241031GA1091+000159999GF109991091999999999999999MA1999999085601MD1310021+9999ME1314139MW1851REMSYN076AAXX  31091 11933 41/04 93108 11004 21004 38560 48413 53002 78584 333 89/00;
0207119330999992000013112004+49120+020080FM-12+136899999V0203101N008010001519N0004001N1+00011+00011999999ADDAA106004191AY181061AY241061GA1091+000159999GF109991091999999999999999MA1999999085511MD1810091+9999ME1314049MW1451REMSYN082AAXX  31121 11933 11/04 93108 10001 20001 38551 48404 58009 60041 74584 333 89/00;
0190119330999992000013115004+49120+020080FM-12+136899999V0203101N008010001519N0007001N1+00071+00011999999ADDAY141031AY241031GA1091+000159999GF109991091999999999999999MA1999999085641MD1310131+9999ME1314179MW1861REMSYN076AAXX  31151 11933 41/07 93108 10007 20001 38564 48417 53013 78644 333 89/00;
0244119330999992000013118004+49120+020080FM-12+136899999V0203101N007012200019N0150001N1-00081-00471999999ADDAA112007191AY181061AY241061GA1011+003009079GF101991011061004501001001KA1120M+00121MA1999999085901MD1310261+9999ME1314419MW1361REMSYN106AAXX  31181 11933 11465 13107 11008 21047 38590 48441 53026 60072 73684 81600 333 10012 81710 91013 91130;
0126119330999992000013121004+49120+020080FM-12+136899999V0203401N007019999999N9999999N1-00201-00551999999ADDMA1999999086201MD1210301+9999ME1314699REMSYN076AAXX  31211 11933 46/// /3407 11020 21055 38620 48469 52030 333 91014 91122;
0157119330999992000020100004+49120+020080FM-12+136899999V0203501N010019999999N9999999N1-00251-00881999999ADDAA106007991GJ100609MA1999999086191MD1710011+9999ME1314679REMSYN088AAXX  01001 11933 16/// /3510 11025 21088 38619 48467 57001 60081 333 55010 91019 91124;
0120119330999992000020103004+49120+020080FM-12+136899999V0202801N003019999999N9999999N1-00121-00881999999ADDMA1999999086431MD1210241+9999ME1314909REMSYN070AAXX  01031 11933 46/// /2803 11012 21088 38643 48490 52024 333 91124;
0307119330999992000020106004+49120+020080FM-12+136899999V0203101N007012200019N0300001N1-00251-00331999999ADDAA112000791AJ101249199999999AY101061AY201061GA1011+003909069GA2031+007809069GF104991041051004501041001IA1289IA2999-00609KA1120N-00261MA1999999086561MD1110131+9999ME1315029MW1711REMSYN118AAXX  01061 11933 11480 43107 11025 21033 38656 48502 51013 69902 77100 84540 333 21026 3/106 44124 81613 83626 91124;
0190119330999992000020109004+49120+020080FM-12+136899999V0203101N009010001519N0003001N1+00021-00021999999ADDAY171031AY211031GA1091+000159999GF109991091999999999999999MA1999999086581MD1010021+9999ME1315059MW1471REMSYN076AAXX  01091 11933 41/03 93109 10002 21002 38658 48505 50002 74771 333 89/00;
0285119330999992000020112004+49120+020080FM-12+136899999V0203001N00701051001CN0750001N1+00231+00111999999ADDAA106000191AY171061AY241061GA1031+024009039GA2071+051009029GA3011+999999069GF107991031081999999041061GG1069046009019999MA1999999086521MD1810061+9999ME1315019MW1031REMSYN110AAXX  01121 11933 11/89 73007 10023 20011 38652 48501 58006 69911 70374 83846 333 816// 83358 87267 444 16146;
0228119330999992000020115004+49120+020080FM-12+136899999V0203001N00801054001CN0220001N1+00181+00121999999ADDGA1031+003009069GA2071+054009029GA3011+999999079GF107991031051999999041081MA1999999086471MD1610051+9999ME1314969REMSYN104AAXX  01151 11933 42/72 73008 10018 20012 38647 48496 56005 83548 333 817// 83610 87268 91013 444 17146;
0204119330999992000020118004+49120+020080FM-12+136899999V0203101N008012200019N0350001N1+00311+00121999999ADDAA112000191GA1011+027009079GF101991011001999999041001KA1120M+00431MA1999999086411MD1810061+9999ME1314919REMSYN088AAXX  01181 11933 12981 13108 10031 20012 38641 48491 58006 69912 81040 333 10043 81359;
0120119330999992000020121004+49120+020080FM-12+136899999V0203101N008019999999N9999999N1+00291-00041999999ADDMA1999999086331MD1710081+9999ME1314839REMSYN070AAXX  01211 11933 46/// /3108 10029 21004 38633 48483 57008 333 91015;
0150119330999992000020200004+49120+020080FM-12+136899999V0203001N006019999999N9999999N1+00201-00251999999ADDAA199000091MA1999999086171MD1710161+9999ME1314679REMSYN070AAXX  02001 11933 36/// /3006 10020 21025 38617 48467 57016 333 55031;EQDQ01  00002PRCP99
0110119330999992000020203004+49120+020080FM-12+136899999V0203001N007019999999N9999999N1+00281-00531999999ADDMA1999999086001MD1710171+9999ME1314529REMSYN060AAXX  02031 11933 46/// /3007 10028 21053 38600 48452 57017;
0280119330999992000020206004+49120+020080FM-12+136899999V0203001N008010240019N0750001N1+00241+00011999999ADDAA199000091AJ101119199999999GA1061+024009079GF106991061999999999071011IA1289IA2999+00109KA1120N+00181MA1999999085941MD1610061+9999ME1314469REMSYN094AAXX  02061 11933 32989 63008 10024 20001 38594 48446 56006 86071 333 20018 3/001 44111 86358;EQDQ01  00002PRCP99Q02    003SCOLCG
0174119330999992000020209004+49120+020080FM-12+136899999V0203001N00801090001CN0700001N1+00471+00031999999ADDGA1011+000909069GF105991011081001501041081MA1999999085911MD1710031+9999ME1314449REMSYN082AAXX  02091 11933 42288 53008 10047 20003 38591 48444 57003 81848 333 81603 85267;
0219119330999992000020212004+49120+020080FM-12+136899999V0202901N00701036001CN0550001N1+00471+00031999999ADDAA106000191AY111061AY211061GA1031+007809069GF106991031041008001041081MA1999999085761MD1810151+9999ME1314299MW1801REMSYN094AAXX  02121 11933 11585 62907 10047 20003 38576 48429 58015 69911 78011 83448 333 83626 85267;
0202119330999992000020215004+49120+020080FM-12+136899999V0203001N00701090001CN0550001N1+00151+00021999999ADDAY181031AY281031GA1021+009909069GF105991021041012501041081MA1999999085691MD1610071+9999ME1314229MW1021REMSYN088AAXX  02151 11933 41685 53007 10015 20002 38569 48422 56007 70288 82448 333 82633 83358;
0232119330999992000020218004+49120+020080FM-12+136899999V0203101N007012200019N0250001N1+00001-00061999999ADDAA112000191AY181061AY281061GA1011+004809059GF102991011051004501041001KA1120M+00571MA1999999085691MD1410001+9999ME1314219MW1011REMSYN094AAXX  02181 11933 11475 23107 10000 21006 38569 48421 54000 69912 70188 81540 333 10057 81616;
0120119330999992000020221004+49120+020080FM-12+136899999V0203101N008019999999N9999999N1+00081-00061999999ADDMA1999999085681MD1710011+9999ME1314209REMSYN070AAXX  02211 11933 46/// /3108 10008 21006 38568 48420 57001 333 91013;
0137119330999992000020300004+49120+020080FM-12+136899999V0202801N004019999999N9999999N1-00061-00061999999ADDAA106000191MA1999999085681MD1410001+9999ME1314209REMSYN076AAXX  03001 11933 16/// /2804 11006 21006 38568 48420 54000 69911 333 55053;
0120119330999992000020303004+49120+020080FM-12+136899999V0203301N005019999999N9999999N1-00111-00411999999ADDMA1999999085711MD1210031+9999ME1314239REMSYN070AAXX  03031 11933 46/// /3305 11011 21041 38571 48423 52003 333 91012;
0317119330999992000020306004+49120+020080FM-12+136899999V0203401N005012200019N0040001N1-00441-00801999999ADDAA112000891AJ101119199999999AY181061AY241061GA1041+003309069GA2011+999999079GF104991041041999999041001IA1249IA2999-00509KA1120N-00441MA1999999085781MD1310071+9999ME1314289MW1871REMSYN128AAXX  03061 11933 11/40 43405 11044 21080 38578 48428 53007 69982 78784 84440 333 21044 3/105 48111 817// 84611 91012 444 17//4;
0202119330999992000020309004+49120+020080FM-12+136899999V0203201N007010039019N0150001N1-00241-00911999999ADDAY181031AY231031GA1061+003909089GF106991061021004501001001MA1999999085971MD1110191+9999ME1314479MW1851REMSYN088AAXX  03091 11933 41465 63207 11024 21091 38597 48447 51019 78583 86200 333 86813 91014;
0225119330999992000020312004+49120+020080FM-12+136899999V0203001N009010048019N0100001N1-00201-00731999999ADDAA106000791AY181061AY231061GA1071+004809089GF107991071021004501001001MA1999999086041MD1110071+9999ME1314549MW1851REMSYN100AAXX  03121 11933 11460 73009 11020 21073 38604 48454 51007 69901 78583 87200 333 87816 91014 91128;
0269119330999992000020315004+49120+020080FM-12+136899999V0203101N00801003901CN0025001N1-00381-00721999999ADDAY181031AY231031GA1071+003909089GA2011+999999079GF107991071021999999001001GG1079999999999999MA1999999086171MD1310131+9999ME1314659MW1861OA149902001REMSYN110AAXX  03151 11933 41/25 73108 11038 21072 38617 48465 53013 78683 87200 333 817// 87813 91017 91120 444 17//4;
0305119330999992000020318004+49120+020080FM-12+136899999V0203201N00501003301CN0010001N1-00491-00751999999ADDAA112002091AY181061AY231061GA1071+003309089GA2011+999999079GF108991071021999999999999GG1079999999999999KA1120M-00111MA1999999086391MD1110221+9999ME1314859MW1871OA149902001REMSYN122AAXX  03181 11933 11/10 83205 11049 21075 38639 48485 51022 60022 78783 872// 333 11011 817// 87811 91010 91120 444 17//4;
0120119330999992000020321004+49120+020080FM-12+136899999V0203201N005019999999N9999999N1-00551-00761999999ADDMA1999999086561MD1210171+9999ME1315009REMSYN070AAXX  03211 11933 46/// /3205 11055 21076 38656 48500 52017 333 91013;
0151119330999992000020400004+49120+020080FM-12+136899999V0203401N006019999999N9999999N1-00681-01061999999ADDAA106002091GJ102769MA1999999086771MD1210211+9999ME1315199REMSYN082AAXX  04001 11933 16/// /3406 11068 21106 38677 48519 52021 60021 333 55046 91012;
0120119330999992000020403004+49120+020080FM-12+136899999V0200201N004019999999N9999999N1-00861-01271999999ADDMA1999999086991MD1210221+9999ME1315379REMSYN070AAXX  04031 11933 46/// /0204 11086 21127 38699 48537 52022 333 91009;
0279119330999992000020406004+49120+020080FM-12+136899999V0203201N002012200019N0750001N1-01121-01321999999ADDAA112005191AJ101199199999999AY171061AY231061GA1011+027009079GF101991011001999999041001IA1249IA2999-01609KA1120N-01261MA1999999087241MD1210251+9999ME1315589MW1011REMSYN106AAXX  04061 11933 11989 13202 11112 21132 38724 48558 52025 60052 70173 81040 333 21126 3/116 48119 81359;
0187119330999992000020409004+49120+020080FM-12+136899999V0202801N002010600019N0750001N1-00551-01121999999ADDGA1061+060009089GF106991999001999999001081MA1999999087361MD1210121+9999ME1315739REMSYN076AAXX  04091 11933 42989 62802 11055 21112 38736 48573 52012 80008 333 86270;EQDQ01+000002SCOTLC
0198119330999992000020412004+49120+020080FM-12+136899999V0202801N004012200019N0750001N1-00311-01201999999ADDAA199000091GA1041+060009019GF104991001001999999001021MA1999999087361MD1010001+9999ME1315759REMSYN076AAXX  04121 11933 32989 42804 11031 21120 38736 48575 50000 80002 333 84070;EQDQ01  00002PRCP99
0174119330999992000020415004+49120+020080FM-12+136899999V0202901N006019999999N0700001N1-00511-01521999999ADDGA1021+027009039GF106991021001999999041021MA1999999087221MD1710141+9999ME1315619REMSYN082AAXX  04151 11933 42988 62906 11051 21152 38722 48561 57014 82042 333 82359 86070;
0251119330999992000020418004+49120+020080FM-12+136899999V0202901N00701036001CN0150001N1-00591-00791999999ADDAA199000091AY131061AY221061GA1021+009909069GF107991021051012501041081KA1120M-00241MA1999999087071MD1710151+9999ME1315479MW1031REMSYN094AAXX  04181 11933 31665 72907 11059 21079 38707 48547 57015 70332 82548 333 11024 82633 87270;EQDQ01  00002PRCP99
0120119330999992000020421004+49120+020080FM-12+136899999V0203101N010019999999N9999999N1-00491-00521999999ADDMA1999999086841MD1710231+9999ME1315269REMSYN070AAXX  04211 11933 46/// /3110 11049 21052 38684 48526 57023 333 91018;
0157119330999992000020500004+49120+020080FM-12+136899999V0203101N011019999999N9999999N1-00431-00441999999ADDAA106005191GJ104869MA1999999086651MD1710191+9999ME1315099REMSYN088AAXX  05001 11933 16/// /3111 11043 21044 38665 48509 57019 60051 333 55081 91016 91120;
0120119330999992000020503004+49120+020080FM-12+136899999V0203001N009019999999N9999999N1-00321-00321999999ADDMA1999999086491MD1710161+9999ME1314959REMSYN070AAXX  05031 11933 46/// /3009 11032 21032 38649 48495 57016 333 91016;
0279119330999992000020506004+49120+020080FM-12+136899999V0202901N007010001519N0008001N1-00191-00191999999ADDAA112008991AJ101159199999999AY171061AY261061GA1091+000159999GF109991091999999999999999IA1289IA2999-00609KA1120N-00591MA1999999086461MD1610031+9999ME1314939MW1711REMSYN106AAXX  05061 11933 11/08 92907 11019 21019 38646 48493 56003 60092 77176 333 21059 3/106 44115 89/00 91015;
0202119330999992000020509004+49120+020080FM-12+136899999V0202701N006010001519N0008001N1-00141-00141999999ADDAY171031AY261031GA1091+000159999GF109991091999999999999999MA1999999086501MD1310041+9999ME1314979MW1791REMSYN088AAXX  05091 11933 41/08 92706 11014 21014 38650 48497 53004 77976 333 89/00 93507 96049;
0213119330999992000020512004+49120+020080FM-12+136899999V0202701N005010001519N0003001N1-00061-00061999999ADDAA106003091AY171061AY261061GA1091+000159999GF109991091999999999999999MA1999999086591MD1110091+9999ME1315069MW1771REMSYN088AAXX  05121 11933 11/03 92705 11006 21006 38659 48506 51009 60031 77776 333 89/00 93508;
0196119330999992000020515004+49120+020080FM-12+136899999V0202801N004010001519N0003001N1+00021+00021999999ADDAY171031AY241031GA1091+000159999GF109991091999999999999999MA1999999086611MD1310021+9999ME1315089MW1681REMSYN082AAXX  05151 11933 41/03 92804 10002 20002 38661 48508 53002 76874 333 89/00 93504;
0232119330999992000020518004+49120+020080FM-12+136899999V0202901N004010001519N0003001N1-00011-00011999999ADDAA112006191AY171061AY241061GA1091+000159999GF109991091999999999999999KA1120M+00021MA1999999086771MD1210161+9999ME1315239MW1681REMSYN094AAXX  05181 11933 11/03 92904 11001 21001 38677 48523 52016 60062 76874 333 10002 89/00 93604;
0110119330999992000020521004+49120+020080FM-12+136899999V0202601N003019999999N9999999N1-00041-00041999999ADDMA1999999086851MD1210081+9999ME1315309REMSYN060AAXX  05211 11933 46/// /2603 11004 21004 38685 48530 52008;
0131119330999992000020600004+49120+020080FM-12+136899999V0202701N004019999999N9999999N1+00001+00001999999ADDAA199000021MA1999999086901MD1210051+9999ME1315359REMSYN070AAXX  06001 11933 36/// /2704 10000 20000 38690 48535 52005 333 55000;
0110119330999992000020603004+49120+020080FM-12+136899999V0203101N004019999999N9999999N1+00001+00001999999ADDMA1999999086901MD1410001+9999ME1315359REMSYN060AAXX  06031 11933 46/// /3104 10000 20000 38690 48535 54000;
0319119330999992000020606004+49120+020080FM-12+136899999V0203601N003010270019N0200001N1+00031+00031999999ADDAA112000891AJ101129199999999AY141061AY221061GA1041+010809069GA2061+027009049GF106991041051012501071001IA1289IA2999-00109KA1120N-00061MA1999999086931MD1310031+9999ME1315389MW1281REMSYN130AAXX  06061 11933 11670 63603 10003 20003 38693 48538 53003 69982 72842 84570 333 21006 3/101 44112 84636 86459 91009 93608 9514/;
0224119330999992000020609004+49120+020080FM-12+136899999V0200101N001010270019N0150001N1+00271+00271999999ADDGA1031+009909069GA2041+027009039GF106991031051012501041011GG1079013009019999MA1999999087031MD1110101+9999ME1315499REMSYN098AAXX  06091 11933 42665 60101 10027 20027 38703 48549 51010 83541 333 83633 84359 93602 444 27113;
0226119330999992000020612004+49120+020080FM-12+136899999V0203101N003010600019N0300001N1+00911+00581999999ADDAA199000091GA1021+009909089GA2051+060009009GF105991021011012501041011MA1999999087031MD1010001+9999ME1315549REMSYN088AAXX  06121 11933 32680 53103 10091 20058 38703 48554 50000 82141 333 82833 85070 9512/;EQDQ01  00002PRCP99
0174119330999992000020615004+49120+020080FM-12+136899999V0203201N004019999999N0250001N1+00501+00221999999ADDGA1011+027009039GF106991011001999999041021MA1999999086991MD1610041+9999ME1315479REMSYN082AAXX  06151 11933 42975 63204 10050 20022 38699 48547 56004 81042 333 81359 86070;
0217119330999992000020618004+49120+020080FM-12+136899999V0203001N004012200019N0150001N1+00351+00121999999ADDAA199000091GA1021+060009019GF102991001001999999001011KA1120M+00981MA1999999086951MD1810041+9999ME1315429REMSYN082AAXX  06181 11933 32965 23004 10035 20012 38695 48542 58004 80001 333 10098 82070;EQDQ01  00002PRCP99
0110119330999992000020621004+49120+020080FM-12+136899999V0203101N005019999999N9999999N1+00491+00161999999ADDMA1999999086901MD1710051+9999ME1315389REMSYN060AAXX  06211 11933 46/// /3105 10049 20016 38690 48538 57005;
0150119330999992000020700004+49120+020080FM-12+136899999V0203101N004019999999N9999999N1+00331+00071999999ADDAA199000091MA1999999086801MD1710101+9999ME1315289REMSYN070AAXX  07001 11933 36/// /3104 10033 20007 38680 48528 57010 333 55058;EQDQ01  00002PRCP99
0110119330999992000020703004+49120+020080FM-12+136899999V0202901N004019999999N9999999N1+00401+00051999999ADDMA1999999086701MD1710101+9999ME1315199REMSYN060AAXX  07031 11933 46/// /2904 10040 20005 38670 48519 57010;
0302119330999992000020706004+49120+020080FM-12+136899999V0203301N004012200019N0300001N1+00371-00091999999ADDAA199000091AJ101099199999999GA1011+030009039GA2041+060009009GF104991011001999999041011IA1289IA2999+00109KA1120N+00241MA1999999086601MD1710101+9999ME1315099REMSYN116AAXX  07061 11933 32980 43304 10037 21009 38660 48509 57010 81041 333 20024 3/001 44109 81360 84070 9514/ 444 27094;EQDQ01  00002PRCP99
0196119330999992000020709004+49120+020080FM-12+136899999V0202801N003010600019N0350001N1+00671-00121999999ADDGA1011+003909089GA2051+060009009GF105991011011004501041021MA1999999086541MD1710061+9999ME1315059REMSYN088AAXX  07091 11933 42481 52803 10067 21012 38654 48505 57006 81142 333 81813 85070 9513/;
0226119330999992000020712004+49120+020080FM-12+136899999V0203001N004010600019N0400001N1+00831-00181999999ADDAA199000091GA1011+015009089GA2051+060009009GF105991011041017501041021MA1999999086391MD1810151+9999ME1314919REMSYN088AAXX  07121 11933 32782 53004 10083 21018 38639 48491 58015 81442 333 81850 85070 9513/;EQDQ01  00002PRCP99
0174119330999992000020715004+49120+020080FM-12+136899999V0203001N005019999999N0500001N1+00371-00071999999ADDGA1021+030009039GF106991021001999999041021MA1999999086371MD1610021+9999ME1314879REMSYN082AAXX  07151 11933 42984 63005 10037 21007 38637 48487 56002 82042 333 82360 86070;
0245119330999992000020718004+49120+020080FM-12+136899999V0203101N005010600019N0150001N1+00221-00041999999ADDAA199000091GA1011+030009039GA2061+060009009GF106991011001999999041021KA1120M+00861MA1999999086331MD1710041+9999ME1314839REMSYN094AAXX  07181 11933 32965 63105 10022 21004 38633 48483 57004 81042 333 10086 81360 86070 91010;EQDQ01  00002PRCP99
0110119330999992000020721004+49120+020080FM-12+136899999V0203001N007019999999N9999999N1+00151+00031999999ADDMA1999999086261MD1710071+9999ME1314769REMSYN060AAXX  07211 11933 46/// /3007 10015 20003 38626 48476 57007;
0150119330999992000020800004+49120+020080FM-12+136899999V0203101N006019999999N9999999N1-00021-00091999999ADDAA199000091MA1999999086141MD1710121+9999ME1314649REMSYN070AAXX  08001 11933 36/// /3106 11002 21009 38614 48464 57012 333 55073;EQDQ01  00002PRCP99
0110119330999992000020803004+49120+020080FM-12+136899999V0203001N006019999999N9999999N1-00121-00361999999ADDMA1999999086001MD1710141+9999ME1314509REMSYN060AAXX  08031 11933 46/// /3006 11012 21036 38600 48450 57014;
0270119330999992000020806004+49120+020080FM-12+136899999V0203101N00601004201CN0750001N1-00071-00321999999ADDAA199000091AJ101079199999999GA1011+003909069GF107991051051004501081021IA1289IA2999-00209KA1120N-00141MA1999999085811MD1810191+9999ME1314329REMSYN100AAXX  08061 11933 32489 73106 11007 21032 38581 48432 58019 85582 333 21014 3/102 44107 81613 85630;EQDQ01  00002PRCP99
0196119330999992000020809004+49120+020080FM-12+136899999V0203001N008010018019N0150001N1-00071-00121999999ADDAY171031AY221031GA1071+001809059GF107991071051002501999999MA1999999085761MD1710051+9999ME1314289MW1711REMSYN082AAXX  08091 11933 41365 73008 11007 21012 38576 48428 57005 77172 875// 333 87606;
0241119330999992000020812004+49120+020080FM-12+136899999V0203101N006010018019N0120001N1+00031-00071999999ADDAA106000191AY171061AY221061GA1011+000159079GA2081+001809069GF108991081051000251999999MA1999999085631MD1710131+9999ME1314169MW1771REMSYN100AAXX  08121 11933 11062 83106 10003 21007 38563 48416 57013 69911 77772 885// 333 81700 88606 91013;
0234119330999992000020815004+49120+020080FM-12+136899999V0203101N00901003901CN0150001N1+00011-00071999999ADDAY171031AY271031GA1071+003909089GA2011+999999079GF107991071021999999001011MA1999999085451MD1610181+9999ME1313989MW1261REMSYN104AAXX  08151 11933 41/65 73109 10001 21007 38545 48398 56018 72677 87201 333 817// 87813 91016 444 17//6;
0232119330999992000020818004+49120+020080FM-12+136899999V0203101N006010048019N0150001N1+00101-00091999999ADDAA112000591AY181061AY271061GA1071+004809029GF107991071021004501001021KA1120M+00101MA1999999085381MD1810071+9999ME1313929MW1021REMSYN094AAXX  08181 11933 11465 73106 10010 21009 38538 48392 58007 69942 70287 87202 333 10010 87816;
0120119330999992000020821004+49120+020080FM-12+136899999V0203201N007019999999N9999999N1+00111+00021999999ADDMA1999999085161MD1710221+9999ME1313719REMSYN070AAXX  08211 11933 46/// /3207 10011 20002 38516 48371 57022 333 91014;
0151119330999992000020900004+49120+020080FM-12+136899999V0203101N008019999999N9999999N1+00081+00051999999ADDAA106002091GJ100009MA1999999084951MD1710211+9999ME1313519REMSYN082AAXX  09001 11933 16/// /3108 10008 20005 38495 48351 57021 60021 333 55000 91014;
0120119330999992000020903004+49120+020080FM-12+136899999V0203101N007019999999N9999999N1+00121+00121999999ADDMA1999999084961MD1210011+9999ME1313529REMSYN070AAXX  09031 11933 46/// /3107 10012 20012 38496 48352 52001 333 91012;
0335119330999992000020906004+49120+020080FM-12+136899999V0203301N006010540019N0500001N1+00011-00311999999ADDAA112008991AJ101079199999999AY161061AY261061GA1011+000909079GA2031+009009089GA3061+054009009GF107991031041001501001021IA1289IA2999-00109KA1120N+00001MA1999999085081MD1310121+9999ME1313639MW1231REMSYN130AAXX  09061 11933 11284 73306 10001 21031 38508 48363 53012 60092 72366 83402 333 20000 3/101 44107 81703 83830 86068 91012 91121;
0196119330999992000020909004+49120+020080FM-12+136899999V0203001N008010540019N0750001N1+00051-00851999999ADDGA1011+004809089GA2071+054009029GF107991011041004501041081MA1999999085281MD1210201+9999ME1313829REMSYN088AAXX  09091 11933 42489 73008 10005 21085 38528 48382 52020 81448 333 81816 87268 91015;
0245119330999992000020912004+49120+020080FM-12+136899999V0203001N004010090019N0180001N1-00021-00391999999ADDAA106000191AY121061AY221061GA1011+003009089GA2061+009009089GF107991061021004501001021MA1999999085391MD1110111+9999ME1313939MW1881REMSYN104AAXX  09121 11933 11468 73004 11002 21039 38539 48393 51011 69911 78822 86202 333 81810 86830 444 17100;
0202119330999992000020915004+49120+020080FM-12+136899999V0202801N00301090001CN0500001N1-00251-01081999999ADDAY181031AY241031GA1011+004809089GF105991011021004501001021MA1999999085591MD1310201+9999ME1314119MW1021REMSYN088AAXX  09151 11933 41484 52803 11025 21108 38559 48411 53020 70284 81202 333 81816 85068;
0232119330999992000020918004+49120+020080FM-12+136899999V0203101N005012200019N0500001N1-00581-00691999999ADDAA112001091AY181061AY241061GA1011+004809059GF101991011041004501001011KA1120M+00101MA1999999085851MD1210261+9999ME1314359MW1011REMSYN094AAXX  09181 11933 11484 13105 11058 21069 38585 48435 52026 60012 70184 81401 333 10010 81616;
0110119330999992000020921004+49120+020080FM-12+136899999V0203001N006019999999N9999999N1-00611-00761999999ADDMA1999999085881MD1210031+9999ME1314379REMSYN060AAXX  09211 11933 46/// /3006 11061 21076 38588 48437 52003;
0137119330999992000021000004+49120+020080FM-12+136899999V0203101N006019999999N9999999N1-00541-00571999999ADDAA106000191MA1999999085831MD1710051+9999ME1314339REMSYN076AAXX  10001 11933 16/// /3106 11054 21057 38583 48433 57005 69921 333 55038;
0110119330999992000021003004+49120+020080FM-12+136899999V0203001N005019999999N9999999N1-00481-00491999999ADDMA1999999085931MD1210101+9999ME1314429REMSYN060AAXX  10031 11933 46/// /3005 11048 21049 38593 48442 52010;
0273119330999992000021006004+49120+020080FM-12+136899999V0202601N003010001519N0004001N1-00461-00471999999ADDAA112003091AJ101139199999999AY181061AY241061GA1091+000159999GF109991091999999999999999IA1249IA2999-00709KA1120N-00621MA1999999086181MD1210251+9999ME1314669MW1861REMSYN100AAXX  10061 11933 11/04 92603 11046 21047 38618 48466 52025 60032 78684 333 21062 3/107 48113 89/00;
0190119330999992000021009004+49120+020080FM-12+136899999V0202601N004010001519N0002001N1-00231-00431999999ADDAY181031AY241031GA1091+000159999GF109991091999999999999999MA1999999086441MD1210261+9999ME1314919MW1861REMSYN076AAXX  10091 11933 41/02 92604 11023 21043 38644 48491 52026 78684 333 89/00;
0245119330999992000021012004+49120+020080FM-12+136899999V0202901N00301001501CN0030001N1-00341-00411999999ADDAA106001091AY181061AY241061GA1051+001509089GA2011+999999089GF106991061021999999001001MA1999999086561MD1010121+9999ME1315019MW1401REMSYN104AAXX  10121 11933 11/30 62903 11034 21041 38656 48501 50012 60011 74084 86200 333 818// 85805 444 18//5;
0168119330999992000021015004+49120+020080FM-12+136899999V0202701N003012200019N0700001N1-00361-00471999999ADDGA1031+003009059GF103991031041004501041001MA1999999086601MD1310041+9999ME1315059REMSYN076AAXX  10151 11933 42488 32703 11036 21047 38660 48505 53004 83440 333 83610;
0204119330999992000021018004+49120+020080FM-12+136899999V0203601N002012200019N0350001N1-00761-00801999999ADDAA112001091GA1011+006009059GF101991011041008001041001KA1120M+00011MA1999999086651MD1310051+9999ME1315079REMSYN088AAXX  10181 11933 12581 13602 11076 21080 38665 48507 53005 60012 81440 333 10001 81620;
0110119330999992000021021004+49120+020080FM-12+136899999V0203201N005019999999N9999999N1-00511-00631999999ADDMA1999999086561MD1710091+9999ME1315009REMSYN060AAXX  10211 11933 46/// /3205 11051 21063 38656 48500 57009;
0150119330999992000021100004+49120+020080FM-12+136899999V0202901N005019999999N9999999N1-00541-00691999999ADDAA199000091MA1999999086401MD1710161+9999ME1314869REMSYN070AAXX  11001 11933 36/// /2905 11054 21069 38640 48486 57016 333 55030;EQDQ01  00002PRCP99
0110119330999992000021103004+49120+020080FM-12+136899999V0203101N007019999999N9999999N1-00231-01031999999ADDMA1999999086281MD1710121+9999ME1314769REMSYN060AAXX  11031 11933 46/// /3107 11023 21103 38628 48476 57012;
0314119330999992000021106004+49120+020080FM-12+136899999V0202901N005012200019N0700001N1-00221-01121999999ADDAA199000091AJ101139199999999GA1021+024009039GA2031+054009009GF104991021001999999041041GG1069016009019999IA1249IA2999-01009KA1120N-00801MA1999999086351MD1310071+9999ME1314829REMSYN110AAXX  11061 11933 32988 42905 11022 21112 38635 48482 53007 82044 333 21080 3/110 48113 82358 83068 444 16116;EQDQ01  00002PRCP99
0200119330999992000021109004+49120+020080FM-12+136899999V0203001N00601051001CN0600001N1+00151-01031999999ADDGA1051+051009009GA2011+999999069GF105991011051999999041051MA1999999086491MD1210141+9999ME1314979REMSYN092AAXX  11091 11933 42/86 53006 10015 21103 38649 48497 52014 81545 333 816// 85067 444 16145;
0219119330999992000021112004+49120+020080FM-12+136899999V0203001N00501036001CN0080001N1-00171-00361999999ADDAA106000791AY111061AY211061GA1041+006009069GF108991041051008001021999MA1999999086671MD1110181+9999ME1315139MW1731REMSYN094AAXX  11121 11933 11558 83005 11017 21036 38667 48513 51018 69901 77311 8452/ 333 84620 88458;
0246119330999992000021115004+49120+020080FM-12+136899999V0201401N00101024001CN0025001N1-00251-00441999999ADDAY181031AY271031GA1081+024009049GA2011+999999079GF108991021011999999071999GG1079999999999999MA1999999086771MD1310101+9999ME1315219MW1701REMSYN098AAXX  11151 11933 41/25 81401 11025 21044 38677 48521 53010 77087 8217/ 333 817// 88458 444 17//4;
0286119330999992000021118004+49120+020080FM-12+136899999V0201801N00101024001CN0150001N1-00371-00441999999ADDAA112000791AY181061AY271061GA1031+003309069GA2061+024009049GA3011+999999079GF108991031051999999071071KA1120M+00191MA1999999086911MD1210141+9999ME1315349MW1031REMSYN116AAXX  11181 11933 11/65 81801 11037 21044 38691 48534 52014 69902 70387 83577 333 10019 817// 83611 86458 444 17//4;
0110119330999992000021121004+49120+020080FM-12+136899999V0203501N001019999999N9999999N1-00511-00551999999ADDMA1999999086991MD1210081+9999ME1315409REMSYN060AAXX  11211 11933 46/// /3501 11051 21055 38699 48540 52008;
0131119330999992000021200004+49120+020080FM-12+136899999V0203601N001019999999N9999999N1-00421-00491999999ADDAA199000021MA1999999087001MD1210011+9999ME1315429REMSYN070AAXX  12001 11933 36/// /3601 11042 21049 38700 48542 52001 333 55042;
0110119330999992000021203004+49120+020080FM-12+136899999V0201401N001019999999N9999999N1-00471-00481999999ADDMA1999999086981MD1710021+9999ME1315399REMSYN060AAXX  12031 11933 46/// /1401 11047 21048 38698 48539 57002;
