0280122100999992000010106004+53770+015420FM-12+005699999V0201801N001010006019N0006001N1-00051-00071102361ADDAA106000091AJ100039199999999GA1091+999999999GF109991091999999999999999IA1309IA2999-00109KA1120M+00081KA2120N-00101MA1999999101651MD1710061+9999MW1451REMSYN100AAXX  01061 12210 31/06 91801 11005 21007 30165 40236 57006 745// 333 10008 21010 3/101 42003 70007;EQDQ01  00002PRCP06
0187122100999992000010107004+53770+015420FM-12+005699999V0201601N001010006019N0006001N1-00061-00091102341ADDAY141999AY241999GA1091+999999999GF109991091999999999999999MA1999999101631MD1710071+9999MW1451REMSYN082AAXX  01071 12210 41/06 91601 11006 21009 30163 40234 57007 74544 555 57001 80067;
0171122100999992000010108004+53770+015420FM-12+005699999V0201701N002010006019N0008001N1-00051-00121102371ADDAY141999AY241999GA1091+999999999GF109991091999999999999999MA1999999101661MD1510001+9999MW1431REMSYN066AAXX  01081 12210 41/08 91702 11005 21012 30166 40237 55000 74344;
0161122100999992000010109004+53770+015420FM-12+005699999V0201501N001010021019N0040001N1-00031-00091102311ADDAY121031AY221031GF108991081061002501999999MA1999999101601MD1810051+9999MW1281REMSYN072AAXX  01091 12210 41340 81501 11003 21009 30160 40231 58005 72822 886//;
0161122100999992000010110004+53770+015420FM-12+005699999V0201701N002010021019N0040001N1+00001-00091102281ADDAY121999AY221999GF108991081061002501999999MA1999999101571MD1710061+9999MW1101REMSYN072AAXX  01101 12210 41396 81702 10000 21009 30157 40228 57006 71022 886//;
0161122100999992000010111004+53770+015420FM-12+005699999V0201701N001010021019N0040001N1+00001-00091102241ADDAY121999AY221999GF108991081061002501999999MA1999999101531MD1710131+9999MW1101REMSYN072AAXX  01111 12210 41340 81701 10000 21009 30153 40224 57013 71022 886//;
0191122100999992000010112004+53770+015420FM-12+005699999V0201701N002010042019N0040001N1+00041-00071102161ADDAA106000091AY141061AY221061GF108991081051004501999999MA1999999101451MD1710151+9999MW1101REMSYN072AAXX  01121 12210 31440 81702 10004 21007 30145 40216 57015 71042 885//;EQDQ01  00002PRCP06
0171122100999992000010113004+53770+015420FM-12+005699999V0201701N002010042019N0040001N1+00061-00071102131ADDAY121999AY221999GF108991081051004501999999MA1999999101421MD1710151+9999MW1101REMSYN082AAXX  01131 12210 41440 81702 10006 21007 30142 40213 57015 71022 885// 555 57005;
0161122100999992000010114004+53770+015420FM-12+005699999V0201601N001010042019N0040001N1+00071-00071102111ADDAY121999AY221999GF108991081051004501999999MA1999999101401MD1710131+9999MW1101REMSYN072AAXX  01141 12210 41496 81601 10007 21007 30140 40211 57013 71022 885//;
0161122100999992000010115004+53770+015420FM-12+005699999V0201601N001010021019N0040001N1+00071-00071102081ADDAY121031AY221031GF108991051071002501021999MA1999999101371MD1710081+9999MW1711REMSYN072AAXX  01151 12210 41396 81601 10007 21007 30137 40208 57008 77122 8572/;
0161122100999992000010116004+53770+015420FM-12+005699999V0201601N002010021019N0040001N1+00061-00021102111ADDAY171999AY271999GF108991061071002501021999MA1999999101401MD1510021+9999MW1711REMSYN072AAXX  01161 12210 41340 81602 10006 21002 30140 40211 55002 77177 8672/;
0161122100999992000010117004+53770+015420FM-12+005699999V0201501N001010021019N0040001N1+00041-00021102101ADDAY171999AY271999GF108991061071002501021999MA1999999101391MD1710011+9999MW1711REMSYN072AAXX  01171 12210 41340 81501 10004 21002 30139 40210 57001 77177 8672/;
0220122100999992000010118004+53770+015420FM-12+005699999V0201501N001010021019N0040001N1+00041-00021102091ADDAA112002091AY121061AY221061GF108991061071002501021999KA1120M+00081KA2999N-00101MA1999999101381MD1010011+9999MW1711REMSYN094AAXX  01181 12210 11340 81501 10004 21002 30138 40209 50001 60022 77122 8672/ 333 10008 21010;
0267122100999992000010206004+53770+015420FM-12+005699999V0209999C000010003019N0005001N1+00121+00091102381ADDAA112002091AJ100049199999999GA1091+999999999GF109991091999999999999999IA1279IA2999+00009KA1120M+00121KA2120N-00101MA1999999101671MD1210081+9999MW1471REMSYN106AAXX  02061 12210 11/05 90000 10012 20009 30167 40238 52008 60022 747// 333 10012 21010 3/100 43004 70045;
0187122100999992000010207004+53770+015420FM-12+005699999V0202401N001010006019N0008001N1+00181+00151102431ADDAY141999AY241999GA1091+999999999GF109991091999999999999999MA1999999101721MD1210111+9999MW1431REMSYN082AAXX  02071 12210 41/08 92401 10018 20015 30172 40243 52011 74344 555 57001 80151;
0161122100999992000010208004+53770+015420FM-12+005699999V0202501N001010021019N0040001N1+00241+00211102521ADDAY121999AY221999GF108991081061002501999999MA1999999101811MD1210171+9999MW1281REMSYN072AAXX  02081 12210 41340 82501 10024 20021 30181 40252 52017 72822 886//;
0161122100999992000010209004+53770+015420FM-12+005699999V0202401N001010021019N0040001N1+00241+00211102531ADDAY141031AY221031GF108991081061002501999999MA1999999101821MD1210151+9999MW1101REMSYN072AAXX  02091 12210 41340 82401 10024 20021 30182 40253 52015 71042 886//;
0161122100999992000010210004+53770+015420FM-12+005699999V0202301N001010042019N0040001N1+00271+00211102491ADDAY121999AY221999GF107991071051004501999999MA1999999101781MD1010061+9999MW1101REMSYN072AAXX  02101 12210 41496 72301 10027 20021 30178 40249 50006 71022 875//;
0133122100999992000010211004+53770+015420FM-12+005699999V0202201N002010042019N0100001N1+00281+00211102491ADDGF107991071051004501999999MA1999999101781MD1610031+9999REMSYN066AAXX  02111 12210 42497 72202 10028 20021 30178 40249 56003 875//;
0191122100999992000010212004+53770+015420FM-12+005699999V0202101N002010042019N0100001N1+00281+00171102471ADDAA106000091AY141061AY221061GF108991081051004501999999MA1999999101761MD1710061+9999MW1031REMSYN072AAXX  02121 12210 31497 82102 10028 20017 30176 40247 57006 70342 885//;EQDQ01  00002PRCP06
0143122100999992000010213004+53770+015420FM-12+005699999V0202401N003010042019N0200001N1+00241+00111102521ADDGF108991081051004501999999MA1999999101811MD1310031+9999REMSYN076AAXX  02131 12210 42498 82403 10024 20011 30181 40252 53003 885// 555 57005;
0133122100999992000010214004+53770+015420FM-12+005699999V0202301N002010042019N0200001N1+00221+00151102541ADDGF108991081051004501999999MA1999999101831MD1210051+9999REMSYN066AAXX  02141 12210 42498 82302 10022 20015 30183 40254 52005 885//;
0133122100999992000010215004+53770+015420FM-12+005699999V0202301N002010042019N0100001N1+00241+00111102531ADDGF108991081051004501999999MA1999999101821MD1010061+9999REMSYN066AAXX  02151 12210 42497 82302 10024 20011 30182 40253 50006 885//;
0133122100999992000010216004+53770+015420FM-12+005699999V0202101N002010042019N0100001N1+00231+00071102361ADDGF107991061051004501031999MA1999999101651MD1810161+9999REMSYN066AAXX  02161 12210 42497 72102 10023 20007 30165 40236 58016 8653/;
0133122100999992000010217004+53770+015420FM-12+005699999V0202001N002010042019N0100001N1+00231+00071102401ADDGF107991061051004501031999MA1999999101691MD1510141+9999REMSYN066AAXX  02171 12210 42497 72002 10023 20007 30169 40240 55014 8653/;
0205122100999992000010218004+53770+015420FM-12+005699999V0202101N003010042019N0100001N1+00241+00091102341ADDAA106000091GF107991071051004501999999KA1120M+00301KA2999N+00091MA1999999101631MD1710191+9999REMSYN082AAXX  02181 12210 32497 72103 10024 20009 30163 40234 57019 875// 333 10030 20009;EQDQ01  00002PRCP06
0246122100999992000010306004+53770+015420FM-12+005699999V0202501N002010042019N0100001N1+00521+00401102111ADDAA106000091AJ100009199999999GF108991081051004501999999IA2999+00209KA1120M+00551KA2120N+00191MA1999999101411MD1710061+9999REMSYN094AAXX  03061 12210 31497 82502 10052 20040 30141 40211 57006 885// 333 10055 20019 3/002 41998;EQDQ01  00002PRCP06
0143122100999992000010307004+53770+015420FM-12+005699999V0202401N002010042019N0100001N1+00521+00401102121ADDGF108991081051004501999999MA1999999101421MD1610021+9999REMSYN076AAXX  03071 12210 42497 82402 10052 20040 30142 40212 56002 885// 555 57007;
0161122100999992000010308004+53770+015420FM-12+005699999V0202401N002010042019N0040001N1+00491+00401102091ADDAY121999AY221999GF108991081051004501999999MA1999999101391MD1710031+9999MW1101REMSYN072AAXX  03081 12210 41496 82402 10049 20040 30139 40209 57003 71022 885//;
0161122100999992000010309004+53770+015420FM-12+005699999V0202201N001010042019N0040001N1+00501+00431102051ADDAY121031AY221031GF108991081051004501999999MA1999999101351MD1710061+9999MW1101REMSYN072AAXX  03091 12210 41496 82201 10050 20043 30135 40205 57006 71022 885//;
0161122100999992000010310004+53770+015420FM-12+005699999V0202001N002010042019N0040001N1+00501+00431102031ADDAY121999AY221999GF108991081051004501999999MA1999999101331MD1710091+9999MW1101REMSYN072AAXX  03101 12210 41496 82002 10050 20043 30133 40203 57009 71022 885//;
0161122100999992000010311004+53770+015420FM-12+005699999V0201901N002010042019N0040001N1+00521+00431101961ADDAY121999AY221999GF108991081051004501999999MA1999999101261MD1710131+9999MW1101REMSYN072AAXX  03111 12210 41496 81902 10052 20043 30126 40196 57013 71022 885//;
0191122100999992000010312004+53770+015420FM-12+005699999V0201801N002010042019N0040001N1+00511+00411101901ADDAA106000091AY121061AY221061GF108991081051004501999999MA1999999101201MD1710151+9999MW1101REMSYN072AAXX  03121 12210 31496 81802 10051 20041 30120 40190 57015 71022 885//;EQDQ01  00002PRCP06
0171122100999992000010313004+53770+015420FM-12+005699999V0202201N003010042019N0040001N1+00561+00451101831ADDAY121999AY221999GF108991081051004501999999MA1999999101141MD1710191+9999MW1101REMSYN082AAXX  03131 12210 41496 82203 10056 20045 30114 40183 57019 71022 885// 555 57006;
0161122100999992000010314004+53770+015420FM-12+005699999V0202101N001010021019N0040001N1+00521+00401101771ADDAY121999AY221999GF108991061071002501021999MA1999999101081MD1710181+9999MW1611REMSYN072AAXX  03141 12210 41396 82101 10052 20040 30108 40177 57018 76122 8672/;
0161122100999992000010315004+53770+015420FM-12+005699999V0202101N002010042019N0040001N1+00501+00381101721ADDAY121031AY221031GF108991081051004501999999MA1999999101031MD1710171+9999MW1211REMSYN072AAXX  03151 12210 41496 82102 10050 20038 30103 40172 57017 72122 885//;
0161122100999992000010316004+53770+015420FM-12+005699999V0201901N002010042019N0040001N1+00561+00341101671ADDAY121999AY221999GF108991081051004501999999MA1999999100981MD1710161+9999MW1101REMSYN072AAXX  03161 12210 41496 81902 10056 20034 30098 40167 57016 71022 885//;
0161122100999992000010317004+53770+015420FM-12+005699999V0202001N003010021019N0040001N1+00561+00451101661ADDAY121999AY221999GF108991061071002501021999MA1999999100971MD1610111+9999MW1611REMSYN072AAXX  03171 12210 41396 82003 10056 20045 30097 40166 56011 76122 8672/;
0220122100999992000010318004+53770+015420FM-12+005699999V0202201N003010042019N0040001N1+00581+00451101621ADDAA112000191AY161061AY221061GF108991081051004501999999KA1120M+00601KA2999N+00371MA1999999100931MD1710101+9999MW1211REMSYN094AAXX  03181 12210 11496 82203 10058 20045 30093 40162 57010 69922 72162 885// 333 10060 20037;
0171122100999992000010407004+53770+015420FM-12+005699999V0202701N002010075019N0100001N1+00491+00381101421ADDAY121999AY221999GF108991061091008001071999MA1999999100731MD1310121+9999MW1251REMSYN082AAXX  04071 12210 41597 82702 10049 20038 30073 40142 53012 72522 8697/ 555 57004;
0133122100999992000010408004+53770+015420FM-12+005699999V0202301N002010300019N0100001N1+00441+00321101491ADDGF107991031031008001031081MA1999999100801MD1210191+9999REMSYN066AAXX  04081 12210 42597 72302 10044 20032 30080 40149 52019 83338;
0161122100999992000010409004+53770+015420FM-12+005699999V0202401N001019999999N0200001N1+00401+00311101571ADDAY181031AY221031GF107991061001999999031081MA1999999100871MD1210241+9999MW1011REMSYN072AAXX  04091 12210 41998 72401 10040 20031 30087 40157 52024 70182 86038;
0133122100999992000010410004+53770+015420FM-12+005699999V0202401N003010042019N0200001N1+00461+00341101611ADDGF107991071051004501999999MA1999999100921MD1210191+9999REMSYN066AAXX  04101 12210 42498 72403 10046 20034 30092 40161 52019 875//;
0133122100999992000010411004+53770+015420FM-12+005699999V0202301N002010042019N0200001N1+00471+00321101591ADDGF107991071051004501999999MA1999999100901MD1010101+9999REMSYN066AAXX  04111 12210 42498 72302 10047 20032 30090 40159 50010 875//;
0178122100999992000010412004+53770+015420FM-12+005699999V0202601N003010042019N0200001N1+00531+00311101581ADDAA106000591AY181061AY221061GF107991061051004501001081MA1999999100891MD1010021+9999MW1011REMSYN078AAXX  04121 12210 11498 72603 10053 20031 30089 40158 50002 69961 70182 86508;
0143122100999992000010413004+53770+015420FM-12+005699999V0202601N002010042019N0200001N1+00501+00251101611ADDGF107991071051004501999999MA1999999100921MD1410001+9999REMSYN076AAXX  04131 12210 42498 72602 10050 20025 30092 40161 54000 875// 555 57013;
0133122100999992000010414004+53770+015420FM-12+005699999V0202501N001010042019N0200001N1+00501+00291101591ADDGF107991071051004501999999MA1999999100901MD1410001+9999REMSYN066AAXX  04141 12210 42498 72501 10050 20029 30090 40159 54000 875//;
0133122100999992000010417004+53770+015420FM-12+005699999V0202001N001010042019N0100001N1+00351+00231101521ADDGF107991071051004501999999MA1999999100821MD1710081+9999REMSYN066AAXX  04171 12210 42497 72001 10035 20023 30082 40152 57008 875//;
0192122100999992000010418004+53770+015420FM-12+005699999V0209999C000010042019N0100001N1+00341+00211101481ADDAA112000591GF107991071051004501999999KA1120M+00621KA2999N+00321MA1999999100781MD1710111+9999REMSYN088AAXX  04181 12210 12497 70000 10034 20021 30078 40148 57011 69962 875// 333 10062 20032;
0252122100999992000010506004+53770+015420FM-12+005699999V0202601N005010042019N0040001N1+00531+00361100841ADDAA112003091GF108991081091004501999999IA1119IA2999+00009KA1120M+00581KA2120N+00231MA1999999100151MD1210151+9999MW1801REMSYN124AAXX  05061 12210 11496 82605 10053 20036 30015 40084 52015 60032 780// 889// 333 10058 20023 32000 55009 70035 91012 91112;
0187122100999992000010507004+53770+015420FM-12+005699999V0202501N006010042019N0040001N1+00421+00251100891ADDAY181999AY281999GF108991081091004501999999MA1999999100201MD1210171+9999MW1801REMSYN098AAXX  05071 12210 41496 82506 10042 20025 30020 40089 52017 78088 889// 333 91012 91112 555 57010;
0177122100999992000010508004+53770+015420FM-12+005699999V0202501N005010042019N0040001N1+00391+00251101011ADDAY181999AY281999GF108991081091004501999999MA1999999100321MD1210231+9999MW1801REMSYN088AAXX  05081 12210 41496 82505 10039 20025 30032 40101 52023 78088 889// 333 91013 91113;
0177122100999992000010509004+53770+015420FM-12+005699999V0202601N005010042019N0200001N1+00421+00271101121ADDAY121031AY221031GF108991061031004501071999MA1999999100431MD1210281+9999MW1251REMSYN088AAXX  05091 12210 41498 82605 10042 20027 30043 40112 52028 72522 8637/ 333 91011 91113;
0177122100999992000010510004+53770+015420FM-12+005699999V0202701N005010075019N0200001N1+00461+00191101261ADDAY121999AY221999GF108991051031008001071999MA1999999100571MD1210371+9999MW1251REMSYN088AAXX  05101 12210 41598 82705 10046 20019 30057 40126 52037 72522 8537/ 333 91011 91111;
0149122100999992000010511004+53770+015420FM-12+005699999V0202701N005010075019N0200001N1+00491+00091101381ADDGF108991081051008001999999MA1999999100691MD1210371+9999REMSYN082AAXX  05111 12210 42598 82705 10049 20009 30069 40138 52037 885// 333 91013 91113;
0194122100999992000010512004+53770+015420FM-12+005699999V0202701N005010075019N0200001N1+00481+00131101491ADDAA106002091AY181061AY221061GF108991081051008001999999MA1999999100801MD1210371+9999MW1011REMSYN094AAXX  05121 12210 11598 82705 10048 20013 30080 40149 52037 60021 70182 885// 333 91013 91113;
0159122100999992000010513004+53770+015420FM-12+005699999V0202701N005010075019N0200001N1+00491+00111101621ADDGF107991071051008001999999MA1999999100931MD1210361+9999REMSYN092AAXX  05131 12210 42598 72705 10049 20011 30093 40162 52036 875// 333 91012 91112 555 57019;
0133122100999992000010514004+53770+015420FM-12+005699999V0202701N004010075019N0200001N1+00491+00171101751ADDGF107991071051008001999999MA1999999101061MD1210371+9999REMSYN066AAXX  05141 12210 42598 72704 10049 20017 30106 40175 52037 875//;
0143122100999992000010515004+53770+015420FM-12+005699999V0202801N003012200019N0200001N1+00481+00171101851ADDGF104991041051008001001001MA1999999101151MD1210351+9999REMSYN076AAXX  05151 12210 42598 42803 10048 20017 30115 40185 52035 84500 333 91112;
0133122100999992000010516004+53770+015420FM-12+005699999V0202701N002012200019N0200001N1+00391+00131101931ADDGF104991041051008001001001MA1999999101231MD1210301+9999REMSYN066AAXX  05161 12210 42598 42702 10039 20013 30123 40193 52030 84500;
0133122100999992000010517004+53770+015420FM-12+005699999V0202401N001012200019N0200001N1+00311+00071102021ADDGF103991031051008001001001MA1999999101321MD1210261+9999REMSYN066AAXX  05171 12210 42598 32401 10031 20007 30132 40202 52026 83500;
0208122100999992000010518004+53770+015420FM-12+005699999V0202301N001012200019N0200001N1+00221+00021102071ADDAA112002091GA1001+999999999GF100991001001999999001001KA1120M+00561KA2120N+00201MA1999999101371MD1210221+9999REMSYN088AAXX  05181 12210 12998 02301 10022 20002 30137 40207 52022 60022 333 10056 20020 91112;
0245122100999992000010606004+53770+015420FM-12+005699999V0202001N001012200019N0100001N1-00061-00141102121ADDAA106000091GA1001+999999999GF100991001001999999001001IA1149IA2999-00409KA1120M+00221KA2120N-00171MA1999999101411MD1710081+9999REMSYN088AAXX  06061 12210 32997 02001 11006 21014 30141 40212 57008 333 10022 21017 34104 70022;EQDQ01  00002PRCP06
0143122100999992000010607004+53770+015420FM-12+005699999V0201901N001012200019N0200001N1-00061-00221102151ADDGF103991001001999999001011MA1999999101441MD1510011+9999REMSYN076AAXX  06071 12210 42998 31901 11006 21022 30144 40215 55001 80001 555 57004;
0133122100999992000010608004+53770+015420FM-12+005699999V0201501N002012200019N0200001N1+00001-00171102121ADDGF103991001001999999001011MA1999999101411MD1010021+9999REMSYN066AAXX  06081 12210 42998 31502 10000 21017 30141 40212 50002 80001;
0133122100999992000010609004+53770+015420FM-12+005699999V0201501N002012200019N0100001N1+00181-00141102111ADDGF102991001001999999001011MA1999999101401MD1710011+9999REMSYN066AAXX  06091 12210 42997 21502 10018 21014 30140 40211 57001 80001;
0133122100999992000010610004+53770+015420FM-12+005699999V0201601N002012200019N0100001N1+00281-00141102051ADDGF101991001001999999001011MA1999999101351MD1710091+9999REMSYN066AAXX  06101 12210 42997 11602 10028 21014 30135 40205 57009 80001;
0143122100999992000010611004+53770+015420FM-12+005699999V0201601N003012200019N0100001N1+00341-00121101991ADDGA1001+999999999GF100991001001999999001001MA1999999101291MD1710121+9999REMSYN060AAXX  06111 12210 42997 01603 10034 21012 30129 40199 57012;
0173122100999992000010612004+53770+015420FM-12+005699999V0201701N003012200019N0100001N1+00411-00051101951ADDAA106000091GA1001+999999999GF100991001001999999001001MA1999999101251MD1710151+9999REMSYN060AAXX  06121 12210 32997 01703 10041 21005 30125 40195 57015;EQDQ01  00002PRCP06
0153122100999992000010613004+53770+015420FM-12+005699999V0201601N002012200019N0200001N1+00401-00051101911ADDGA1001+999999999GF100991001001999999001001MA1999999101211MD1710141+9999REMSYN070AAXX  06131 12210 42998 01602 10040 21005 30121 40191 57014 555 57023;
0133122100999992000010615004+53770+015420FM-12+005699999V0201501N002012200019N0200001N1+00301-00121101851ADDGF103991001001999999001011MA1999999101151MD1610101+9999REMSYN066AAXX  06151 12210 42998 31502 10030 21012 30115 40185 56010 80001;
0133122100999992000010616004+53770+015420FM-12+005699999V0201401N003012200019N0200001N1+00241-00121101781ADDGF102991001001999999001011MA1999999101081MD1710131+9999REMSYN066AAXX  06161 12210 42998 21403 10024 21012 30108 40178 57013 80001;
0133122100999992000010617004+53770+015420FM-12+005699999V0201701N002012200019N0200001N1+00221-00091101771ADDGF102991001001999999001011MA1999999101071MD1710081+9999REMSYN066AAXX  06171 12210 42998 21702 10022 21009 30107 40177 57008 80001;
0315122100999992000010706004+53770+015420FM-12+005699999V0202301N00201030001CN0040001N1+00381+00311101901ADDAA112001091AJ101799199999999GA1071+999999059GF108991081051004501999999IA1179IA2999+01409KA1120M+01681KA2120N+99999MA1999999101201MD1210131+9999MW1101REMSYN135AAXX  07061 12210 11496 82302 10038 20031 30120 40190 52013 60012 710// 885// 333 170903 10168 20098 30014 40179 57032 875// 333 20132;EQDQ01 +00982ATMN  
0161122100999992000010708004+53770+015420FM-12+005699999V0202201N001010042019N0040001N1+00401+00361102061ADDAY121999AY221999GF108991081051004501999999MA1999999101361MD1210191+9999MW1101REMSYN072AAXX  07081 12210 41440 82201 10040 20036 30136 40206 52019 71022 885//;
0161122100999992000010709004+53770+015420FM-12+005699999V0202201N001010021019N0040001N1+00441+00401102111ADDAY121031AY221031GF108991081061002501999999MA1999999101411MD1210211+9999MW1101REMSYN072AAXX  07091 12210 41340 82201 10044 20040 30141 40211 52021 71022 886//;
0161122100999992000010710004+53770+015420FM-12+005699999V0202201N001010021019N0040001N1+00421+00381102151ADDAY121999AY221999GF108991081061002501999999MA1999999101451MD1210171+9999MW1101REMSYN072AAXX  07101 12210 41340 82201 10042 20038 30145 40215 52017 71022 886//;
0161122100999992000010711004+53770+015420FM-12+005699999V0201901N002010021019N0040001N1+00431+00361102131ADDAY121999AY221999GF108991081061002501999999MA1999999101431MD1010071+9999MW1101REMSYN072AAXX  07111 12210 41340 81902 10043 20036 30143 40213 50007 71022 886//;
0191122100999992000010712004+53770+015420FM-12+005699999V0201901N001010021019N0020001N1+00501+00451102121ADDAA106000091AY121061AY221061GF108991081061002501999999MA1999999101421MD1010011+9999MW1101REMSYN072AAXX  07121 12210 31320 81901 10050 20045 30142 40212 50001 71022 886//;EQDQ01  00002PRCP06
0171122100999992000010713004+53770+015420FM-12+005699999V0201801N002010021019N0020001N1+00501+00431102121ADDAY121999AY221999GF108991081061002501999999MA1999999101421MD1710031+9999MW1101REMSYN082AAXX  07131 12210 41320 81802 10050 20043 30142 40212 57003 71022 886// 555 57003;
0161122100999992000010714004+53770+015420FM-12+005699999V0202401N002010021019N0020001N1+00491+00411102161ADDAY121999AY221999GF108991081061002501999999MA1999999101461MD1310031+9999MW1101REMSYN072AAXX  07141 12210 41320 82402 10049 20041 30146 40216 53003 71022 886//;
0171122100999992000010715004+53770+015420FM-12+005699999V0201801N001010003019N0005001N1+00481+00431102161ADDAY121031AY221031GA1091+999999999GF109991091999999999999999MA1999999101461MD1110041+9999MW1471REMSYN066AAXX  07151 12210 41/05 91801 10048 20043 30146 40216 51004 74722;
0171122100999992000010716004+53770+015420FM-12+005699999V0201801N001010006019N0006001N1+00481+00431102141ADDAY141999AY241999GA1091+999999999GF109991091999999999999999MA1999999101441MD1010021+9999MW1431REMSYN066AAXX  07161 12210 41/06 91801 10048 20043 30144 40214 50002 74344;
0171122100999992000010717004+53770+015420FM-12+005699999V0201801N001010006019N0006001N1+00481+00431102161ADDAY141999AY241999GA1091+999999999GF109991091999999999999999MA1999999101461MD1510001+9999MW1451REMSYN066AAXX  07171 12210 41/06 91801 10048 20043 30146 40216 55000 74544;
0233122100999992000010718004+53770+015420FM-12+005699999V0201701N002010021019N0020001N1+00491+00401102121ADDAA106000091AY121061AY221061GF106991061061002501001001KA1120M+00501KA2999N+00351MA1999999101421MD1710041+9999MW1281REMSYN088AAXX  07181 12210 31320 61702 10049 20040 30142 40212 57004 72822 86600 333 10050 20035;EQDQ01  00002PRCP06
0241122100999992000010806004+53770+015420FM-12+005699999V0201801N002010021019N0040001N1+00221+00151101811ADDAA106000091GF108991081061002501999999IA1099IA2999+00209KA1120M+00501KA2120N+00191MA1999999101111MD1710081+9999MW1101REMSYN094AAXX  08061 12210 31396 81802 10022 20015 30111 40181 57008 710// 886// 333 10050 20019 31002;EQDQ01  00002PRCP06
0171122100999992000010807004+53770+015420FM-12+005699999V0201701N002010042019N0040001N1+00171+00071101831ADDAY121999AY221999GF108991081051004501999999MA1999999101131MD1410001+9999MW1101REMSYN082AAXX  08071 12210 41496 81702 10017 20007 30113 40183 54000 71022 885// 555 57004;
0161122100999992000010809004+53770+015420FM-12+005699999V0201801N002012200019N0040001N1+00221+00021101831ADDAY111031AY211031GF103991021051004501001011MA1999999101131MD1010021+9999MW1101REMSYN072AAXX  08091 12210 41496 31802 10022 20002 30113 40183 50002 71011 82501;
0133122100999992000010810004+53770+015420FM-12+005699999V0202001N002019999999N0100001N1+00301+00091101831ADDGF107991031001999999031061MA1999999101131MD1410001+9999REMSYN066AAXX  08101 12210 42997 72002 10030 20009 30113 40183 54000 83036;
0133122100999992000010811004+53770+015420FM-12+005699999V0201901N003012200019N0100001N1+00361+00071101771ADDGF104991031001999999031081MA1999999101071MD1810101+9999REMSYN066AAXX  08111 12210 42997 41903 10036 20007 30107 40177 58010 83038;
0163122100999992000010812004+53770+015420FM-12+005699999V0202001N003012200019N0100001N1+00461+00041101721ADDAA106000091GF104991001001999999001081MA1999999101021MD1710111+9999REMSYN066AAXX  08121 12210 32997 42003 10046 20004 30102 40172 57011 80008;EQDQ01  00002PRCP06
0143122100999992000010813004+53770+015420FM-12+005699999V0202101N003019999999N0200001N1+00471+00111101741ADDGF106991061001999999031001MA1999999101041MD1510091+9999REMSYN076AAXX  08131 12210 42998 62103 10047 20011 30104 40174 55009 86030 555 57022;
0133122100999992000010814004+53770+015420FM-12+005699999V0201801N003019999999N0200001N1+00461+00151101741ADDGF107991071001999999031999MA1999999101041MD1610031+9999REMSYN066AAXX  08141 12210 42998 71803 10046 20015 30104 40174 56003 8703/;
0133122100999992000010815004+53770+015420FM-12+005699999V0202101N002010300019N0200001N1+00431+00171101771ADDGF107991031051004501071999MA1999999101071MD1310051+9999REMSYN066AAXX  08151 12210 42498 72102 10043 20017 30107 40177 53005 8357/;
0133122100999992000010816004+53770+015420FM-12+005699999V0202001N002010042019N0100001N1+00401+00151101801ADDGF107991071051004501999999MA1999999101101MD1210061+9999REMSYN066AAXX  08161 12210 42497 72002 10040 20015 30110 40180 52006 875//;
0133122100999992000010817004+53770+015420FM-12+005699999V0201901N002010042019N0100001N1+00421+00151101821ADDGF107991071051004501999999MA1999999101121MD1210081+9999REMSYN066AAXX  08171 12210 42497 71902 10042 20015 30112 40182 52008 875//;
0205122100999992000010818004+53770+015420FM-12+005699999V0201801N002010042019N0100001N1+00411+00211101821ADDAA106000091GF108991081051004501999999KA1120M+00521KA2999N+00131MA1999999101121MD1110051+9999REMSYN082AAXX  08181 12210 32497 81802 10041 20021 30112 40182 51005 885// 333 10052 20013;EQDQ01  00002PRCP06
0171122100999992000010907004+53770+015420FM-12+005699999V0209999C000010042019N0040001N1+00421+00341102071ADDAY121999AY221999GF108991081051004501999999MA1999999101371MD1210091+9999MW1101REMSYN082AAXX  09071 12210 41496 80000 10042 20034 30137 40207 52009 71022 885// 555 57003;
0161122100999992000010908004+53770+015420FM-12+005699999V0209999C000010042019N0040001N1+00431+00381102111ADDAY121999AY221999GF108991081051004501999999MA1999999101411MD1210121+9999MW1101REMSYN072AAXX  09081 12210 41496 80000 10043 20038 30141 40211 52012 71022 885//;
0161122100999992000010909004+53770+015420FM-12+005699999V0202201N001010042019N0040001N1+00451+00401102171ADDAY121031AY221031GF108991081051004501999999MA1999999101471MD1210161+9999MW1101REMSYN072AAXX  09091 12210 41496 82201 10045 20040 30147 40217 52016 71022 885//;
0161122100999992000010910004+53770+015420FM-12+005699999V0202101N001010300019N0040001N1+00491+00381102181ADDAY121999AY221999GF107991031051004501031999MA1999999101481MD1110111+9999MW1101REMSYN072AAXX  09101 12210 41496 72101 10049 20038 30148 40218 51011 71022 8353/;
0161122100999992000010911004+53770+015420FM-12+005699999V0202301N001010300019N0040001N1+00491+00381102191ADDAY121999AY221999GF107991031051008001031999MA1999999101491MD1210081+9999MW1101REMSYN072AAXX  09111 12210 41596 72301 10049 20038 30149 40219 52008 71022 8353/;
0191122100999992000010912004+53770+015420FM-12+005699999V0202201N001010300019N0040001N1+00521+00321102171ADDAA106000091AY121061AY221061GF107991021021008001031999MA1999999101471MD1010001+9999MW1101REMSYN072AAXX  09121 12210 31596 72201 10052 20032 30147 40217 50000 71022 8223/;EQDQ01  00002PRCP06
0171122100999992000010913004+53770+015420FM-12+005699999V0202301N001010300019N0040001N1+00511+00291102221ADDAY121999AY221999GF107991031021008001031999MA1999999101521MD1210041+9999MW1101REMSYN082AAXX  09131 12210 41596 72301 10051 20029 30152 40222 52004 71022 8323/ 555 57011;
0161122100999992000010914004+53770+015420FM-12+005699999V0202601N001010300019N0040001N1+00501+00321102271ADDAY121999AY221999GF107991031021008001031999MA1999999101571MD1210081+9999MW1101REMSYN072AAXX  09141 12210 41596 72601 10050 20032 30157 40227 52008 71022 8323/;
0161122100999992000010915004+53770+015420FM-12+005699999V0202401N001010042019N0040001N1+00451+00311102331ADDAY121031AY221031GF107991051051004501031999MA1999999101631MD1210161+9999MW1101REMSYN072AAXX  09151 12210 41496 72401 10045 20031 30163 40233 52016 71022 8553/;
0161122100999992000010916004+53770+015420FM-12+005699999V0202801N002010042019N0040001N1+00331+00171102421ADDAY121999AY221999GF107991071051004501999999MA1999999101721MD1210201+9999MW1101REMSYN072AAXX  09161 12210 41496 72802 10033 20017 30172 40242 52020 71022 875//;
0161122100999992000010917004+53770+015420FM-12+005699999V0202801N002010042019N0040001N1+00251+00231102511ADDAY121999AY221999GF108991081061004501999999MA1999999101801MD1210231+9999MW1511REMSYN072AAXX  09171 12210 41496 82802 10025 20023 30180 40251 52023 75122 886//;
0220122100999992000010918004+53770+015420FM-12+005699999V0202601N001010042019N0040001N1+00221+00151102561ADDAA112000791AY121061AY221061GF108991081061004501999999KA1120M+00551KA2999N+00101MA1999999101851MD1210221+9999MW1201REMSYN094AAXX  09181 12210 11496 82601 10022 20015 30185 40256 52022 69902 72022 886// 333 10055 20010;
0257122100999992000011006004+53770+015420FM-12+005699999V0202401N002010006019N0006001N1+00081+00041103121ADDAA106000091GA1091+999999999GF109991091999999999999999IA1099IA2999+00009KA1120M+00221KA2120N+00041MA1999999102411MD1210201+9999MW1471REMSYN094AAXX  10061 12210 31/06 92402 10008 20004 30241 40312 52020 747// 333 10022 20004 31000 79999;EQDQ01  00002PRCP06
0181122100999992000011007004+53770+015420FM-12+005699999V0202501N002010006019N0008001N1+00121+00091103171ADDAY141999AY241999GA1091+999999999GF109991091999999999999999MA1999999102461MD1210191+9999MW1431REMSYN076AAXX  10071 12210 41/08 92502 10012 20009 30246 40317 52019 74344 555 57001;
0161122100999992000011008004+53770+015420FM-12+005699999V0202401N002010021019N0030001N1+00151+00131103231ADDAY121999AY221999GF108991081061002501999999MA1999999102521MD1210191+9999MW1281REMSYN072AAXX  10081 12210 41330 82402 10015 20013 30252 40323 52019 72822 886//;
0161122100999992000011009004+53770+015420FM-12+005699999V0202601N002010021019N0040001N1+00181+00131103281ADDAY141031AY221031GF108991081061002501999999MA1999999102571MD1210161+9999MW1101REMSYN072AAXX  10091 12210 41396 82602 10018 20013 30257 40328 52016 71042 886//;
0133122100999992000011010004+53770+015420FM-12+005699999V0202501N002010042019N0100001N1+00211+00151103301ADDGF108991081051004501999999MA1999999102591MD1210131+9999REMSYN066AAXX  10101 12210 42497 82502 10021 20015 30259 40330 52013 885//;
0133122100999992000011011004+53770+015420FM-12+005699999V0202601N003010042019N0100001N1+00251+00131103361ADDGF108991081051004501999999MA1999999102651MD1210131+9999REMSYN066AAXX  10111 12210 42497 82603 10025 20013 30265 40336 52013 885//;
0191122100999992000011012004+53770+015420FM-12+005699999V0202401N002010042019N0100001N1+00251+00131103371ADDAA106000091AY141061AY221061GF108991081051004501999999MA1999999102661MD1110091+9999MW1011REMSYN072AAXX  10121 12210 31497 82402 10025 20013 30266 40337 51009 70142 885//;EQDQ01  00002PRCP06
0142122100999992000011013004+53770+015420FM-12+005699999V0202501N002019999999N0100001N1+00241+00131103401ADDGF108991999999004501999999MA1999999102691MD1210101+9999REMSYN075AAXX  10131 12210 42497 82502 10024 20013 30269 40340 52010 88// 555 57007;
0133122100999992000011014004+53770+015420FM-12+005699999V0202301N002010042019N0100001N1+00241+00131103441ADDGF108991081051004501999999MA1999999102731MD1210081+9999REMSYN066AAXX  10141 12210 42497 82302 10024 20013 30273 40344 52008 885//;
0133122100999992000011015004+53770+015420FM-12+005699999V0202401N002010042019N0100001N1+00231+00131103481ADDGF108991081051004501999999MA1999999102771MD1210111+9999REMSYN066AAXX  10151 12210 42497 82402 10023 20013 30277 40348 52011 885//;
0133122100999992000011016004+53770+015420FM-12+005699999V0202401N002010042019N0100001N1+00231+00111103531ADDGF108991081051004501999999MA1999999102821MD1210131+9999REMSYN066AAXX  10161 12210 42497 82402 10023 20011 30282 40353 52013 885//;
0133122100999992000011017004+53770+015420FM-12+005699999V0202501N002010042019N0100001N1+00221+00111103541ADDGF108991081051004501999999MA1999999102831MD1210101+9999REMSYN066AAXX  10171 12210 42497 82502 10022 20011 30283 40354 52010 885//;
0205122100999992000011018004+53770+015420FM-12+005699999V0202401N002010042019N0100001N1+00211+00111103561ADDAA106000091GF108991081051004501999999KA1120M+00281KA2999N+00051MA1999999102851MD1210081+9999REMSYN082AAXX  10181 12210 32497 82402 10021 20011 30285 40356 52008 885// 333 10028 20005;EQDQ01  00002PRCP06
0229122100999992000011106004+53770+015420FM-12+005699999V0202301N002010042019N0100001N1+00091-00171103701ADDAA106000091GF108991081051004501999999IA1099IA2999+00109KA1120M+00211KA2120N+00051MA1999999102981MD1210011+9999REMSYN088AAXX  11061 12210 32497 82302 10009 21017 30298 40370 52001 885// 333 10021 20005 31001;EQDQ01  00002PRCP06
0143122100999992000011107004+53770+015420FM-12+005699999V0202001N003010042019N0100001N1+00071-00221103681ADDGF108991081051004501999999MA1999999102961MD1710021+9999REMSYN076AAXX  11071 12210 42497 82003 10007 21022 30296 40368 57002 885// 555 57011;
0133122100999992000011108004+53770+015420FM-12+005699999V0202101N002010042019N0200001N1+00091-00241103711ADDGF107991071051004501999999MA1999999102991MD1510001+9999REMSYN066AAXX  11081 12210 42498 72102 10009 21024 30299 40371 55000 875//;
0133122100999992000011109004+53770+015420FM-12+005699999V0202301N003010042019N0200001N1+00141-00221103731ADDGF108991081051004501999999MA1999999103011MD1210031+9999REMSYN066AAXX  11091 12210 42498 82303 10014 21022 30301 40373 52003 885//;
0133122100999992000011110004+53770+015420FM-12+005699999V0202001N004010042019N0200001N1+00151-00271103731ADDGF107991071051004501999999MA1999999103011MD1110051+9999REMSYN066AAXX  11101 12210 42498 72004 10015 21027 30301 40373 51005 875//;
0133122100999992000011111004+53770+015420FM-12+005699999V0201901N003010075019N0200001N1+00151-00221103681ADDGF107991051051008001001081MA1999999102961MD1810031+9999REMSYN066AAXX  11111 12210 42598 71903 10015 21022 30296 40368 58003 85508;
0163122100999992000011112004+53770+015420FM-12+005699999V0202001N003010075019N0200001N1+00111-00241103681ADDAA106000091GF107991071051008001999999MA1999999102961MD1610051+9999REMSYN066AAXX  11121 12210 32598 72003 10011 21024 30296 40368 56005 875//;EQDQ01  00002PRCP06
0143122100999992000011113004+53770+015420FM-12+005699999V0201901N003010075019N0200001N1+00101-00241103701ADDGF107991071051008001999999MA1999999102981MD1510031+9999REMSYN076AAXX  11131 12210 42598 71903 10010 21024 30298 40370 55003 875// 555 57015;
0133122100999992000011114004+53770+015420FM-12+005699999V0201801N003010075019N0200001N1+00061-00271103651ADDGF107991051051008001001081MA1999999102931MD1810031+9999REMSYN066AAXX  11141 12210 42598 71803 10006 21027 30293 40365 58003 85508;
0133122100999992000011115004+53770+015420FM-12+005699999V0201801N002010750019N0100001N1+00001-00271103651ADDGF106991041051008001001081MA1999999102931MD1610031+9999REMSYN066AAXX  11151 12210 42597 61802 10000 21027 30293 40365 56003 84508;
0133122100999992000011116004+53770+015420FM-12+005699999V0201801N002019999999N0100001N1-00031-00271103651ADDGF107991051001999999031081MA1999999102931MD1610051+9999REMSYN066AAXX  11161 12210 42997 71802 11003 21027 30293 40365 56005 85038;
0133122100999992000011117004+53770+015420FM-12+005699999V0201601N002019999999N0100001N1-00061-00241103621ADDGF106991031001999999031081MA1999999102901MD1710031+9999REMSYN066AAXX  11171 12210 42997 61602 11006 21024 30290 40362 57003 83038;
0205122100999992000011118004+53770+015420FM-12+005699999V0201801N002012200019N0100001N1-00061-00241103601ADDAA106000091GF104991021001999999031011KA1120M+00151KA2999N-00101MA1999999102881MD1710051+9999REMSYN082AAXX  11181 12210 32997 41802 11006 21024 30288 40360 57005 82031 333 10015 21010;EQDQ01  00002PRCP06
0239122100999992000011206004+53770+015420FM-12+005699999V0201801N002012200019N0100001N1-00301-00501103251ADDAA106000091GA1001+999999999GF100991001001999999001001IA1149IA2999-00509KA1120M-00051KA2120N-00411MA1999999102521MD1710111+9999REMSYN082AAXX  12061 12210 32997 01802 11030 21050 30252 40325 57011 333 11005 21041 34105;EQDQ01  00002PRCP06
0143122100999992000011207004+53770+015420FM-12+005699999V0201601N002012200019N0100001N1-00361-00471103281ADDGF106991041051004501001061MA1999999102551MD1510051+9999REMSYN076AAXX  12071 12210 42497 61602 11036 21047 30255 40328 55005 84506 555 57007;
0133122100999992000011208004+53770+015420FM-12+005699999V0201701N002010042019N0100001N1-00301-00441103291ADDGF107991071051004501999999MA1999999102561MD1410001+9999REMSYN066AAXX  12081 12210 42497 71702 11030 21044 30256 40329 54000 875//;
0133122100999992000011209004+53770+015420FM-12+005699999V0201601N003010042019N0100001N1-00241-00351103241ADDGF107991061051004501001081MA1999999102521MD1410001+9999REMSYN066AAXX  12091 12210 42497 71603 11024 21035 30252 40324 54000 86508;
0133122100999992000011211004+53770+015420FM-12+005699999V0201901N002019999999N0100001N1-00061-00301103141ADDGF107991001001999999001081MA1999999102421MD1710141+9999REMSYN066AAXX  12111 12210 42997 71902 11006 21030 30242 40314 57014 80008;
0163122100999992000011212004+53770+015420FM-12+005699999V0201801N002010750019N0100001N1-00051-00331103101ADDAA106000091GF107991031051004501001081MA1999999102381MD1710141+9999REMSYN066AAXX  12121 12210 32497 71802 11005 21033 30238 40310 57014 83508;EQDQ01  00002PRCP06
0143122100999992000011213004+53770+015420FM-12+005699999V0201801N002010750019N0100001N1-00021-00331103071ADDGF107991031051004501001081MA1999999102351MD1710131+9999REMSYN076AAXX  12131 12210 42497 71802 11002 21033 30235 40307 57013 83508 555 57011;
0133122100999992000011214004+53770+015420FM-12+005699999V0201601N002019999999N0100001N1+00001-00271103011ADDGF107991001001999999001081MA1999999102291MD1710131+9999REMSYN066AAXX  12141 12210 42997 71602 10000 21027 30229 40301 57013 80008;
0133122100999992000011215004+53770+015420FM-12+005699999V0201701N001019999999N0100001N1-00021-00221102991ADDGF107991001001999999001081MA1999999102271MD1710111+9999REMSYN066AAXX  12151 12210 42997 71701 11002 21022 30227 40299 57011 80008;
0133122100999992000011217004+53770+015420FM-12+005699999V0201701N002019999999N0100001N1-00051-00271102931ADDGF106991001001999999001081MA1999999102211MD1710081+9999REMSYN066AAXX  12171 12210 42997 61702 11005 21027 30221 40293 57008 80008;
0205122100999992000011218004+53770+015420FM-12+005699999V0201601N002019999999N0100001N1-00061-00271102891ADDAA106000091GF106991001001999999001081KA1120M+00001KA2999N-00381MA1999999102171MD1710101+9999REMSYN082AAXX  12181 12210 32997 61602 11006 21027 30217 40289 57010 80008 333 10000 21038;EQDQ01  00002PRCP06
0133122100999992000011300004+53770+015420FM-12+005699999V0201701N002019999999N0100001N1-00201-00671102361ADDGF105991001001999999001061MA1999999101641MD1710061+9999REMSYN066AAXX  13001 12210 42997 51702 11020 21067 30164 40236 57006 80006;
0235122100999992000011306004+53770+015420FM-12+005699999V0201501N001012200019N0200001N1-00381-00601102421ADDAA106000091GF101991001001999999001011IA1149IA2999-00609KA1120M-00061KA2120N-00481MA1999999101701MD1710111+9999REMSYN094AAXX  13061 12210 32998 11501 11038 21060 30170 40242 57011 80001 333 11006 21048 34106 55027;EQDQ01  00002PRCP06
0143122100999992000011307004+53770+015420FM-12+005699999V0201701N001012200019N0100001N1-00401-00701102421ADDGF102991001001999999001011MA1999999101701MD1610051+9999REMSYN076AAXX  13071 12210 42997 21701 11040 21070 30170 40242 56005 80001 555 57007;
0133122100999992000011308004+53770+015420FM-12+005699999V0201701N001012200019N0100001N1-00421-00671102421ADDGF103991001001999999001011MA1999999101701MD1610011+9999REMSYN066AAXX  13081 12210 42997 31701 11042 21067 30170 40242 56001 80001;
0133122100999992000011309004+53770+015420FM-12+005699999V0201801N002012200019N0100001N1-00331-00701102421ADDGF103991001001999999001011MA1999999101701MD1410001+9999REMSYN066AAXX  13091 12210 42997 31802 11033 21070 30170 40242 54000 80001;
0133122100999992000011311004+53770+015420FM-12+005699999V0201701N002019999999N0100001N1-00081-00601102271ADDGF105991001001999999001081MA1999999101561MD1710141+9999REMSYN066AAXX  13111 12210 42997 51702 11008 21060 30156 40227 57014 80008;
0143122100999992000011313004+53770+015420FM-12+005699999V0201701N002019999999N0100001N1-00011-00631102201ADDGF105991001001999999001081MA1999999101491MD1710151+9999REMSYN076AAXX  13131 12210 42997 51702 11001 21063 30149 40220 57015 80008 555 57022;
0133122100999992000011314004+53770+015420FM-12+005699999V0201701N001019999999N0100001N1+00001-00471102171ADDGF107991001001999999001061MA1999999101461MD1710101+9999REMSYN066AAXX  13141 12210 42997 71701 10000 21047 30146 40217 57010 80006;
0133122100999992000011315004+53770+015420FM-12+005699999V0201701N001019999999N0100001N1-00011-00471102161ADDGF107991001001999999001081MA1999999101451MD1610071+9999REMSYN066AAXX  13151 12210 42997 71701 11001 21047 30145 40216 56007 80008;
0133122100999992000011316004+53770+015420FM-12+005699999V0201701N002019999999N0100001N1-00161-00601102161ADDGF105991001001999999001081MA1999999101451MD1610041+9999REMSYN066AAXX  13161 12210 42997 51702 11016 21060 30145 40216 56004 80008;
0133122100999992000011317004+53770+015420FM-12+005699999V0201501N001012200019N0100001N1-00251-00671102171ADDGF104991001001999999001081MA1999999101451MD1510011+9999REMSYN066AAXX  13171 12210 42997 41501 11025 21067 30145 40217 55001 80008;
0205122100999992000011318004+53770+015420FM-12+005699999V0201601N001012200019N0100001N1-00291-00631102231ADDAA106000091GF102991001001999999001011KA1120M+00001KA2999N-00501MA1999999101511MD1310061+9999REMSYN082AAXX  13181 12210 32997 21601 11029 21063 30151 40223 53006 80001 333 10000 21050;EQDQ01  00002PRCP06
0239122100999992000011406004+53770+015420FM-12+005699999V0201601N001010042019N0100001N1-00681-00901102311ADDAA199000091GF108991081051004501999999IA1149IA2999-01209KA1120M-00291KA2120N-00901MA1999999101581MD1110061+9999REMSYN098    AAXX  14061 12210 32497 81601 11068 21090 30158 40231 51006 885// 333 11029 21090 34112 55047;EQDQ01  00002PRCP99
0147122100999992000011407004+53770+015420FM-12+005699999V0201701N001010042019N0100001N1-00541-00701102351ADDGF108991081051004501999999MA1999999101621MD1210071+9999REMSYN080    AAXX  14071 12210 42497 81701 11054 21070 30162 40235 52007 885// 555 57005;
0137122100999992000011408004+53770+015420FM-12+005699999V0201601N001010042019N0100001N1-00481-00701102401ADDGF108991081051004501999999MA1999999101681MD1210121+9999REMSYN070    AAXX  14081 12210 42497 81601 11048 21070 30168 40240 52012 885//;
0137122100999992000011409004+53770+015420FM-12+005699999V0201601N001010042019N0100001N1-00441-00601102461ADDGF108991081051004501999999MA1999999101741MD1210161+9999REMSYN070    AAXX  14091 12210 42497 81601 11044 21060 30174 40246 52016 885//;
0137122100999992000011410004+53770+015420FM-12+005699999V0201501N001010042019N0100001N1-00361-00571102461ADDGF108991081051004501999999MA1999999101741MD1110121+9999REMSYN070    AAXX  14101 12210 42497 81501 11036 21057 30174 40246 51012 885//;
0137122100999992000011411004+53770+015420FM-12+005699999V0201601N001010042019N0100001N1-00301-00541102451ADDGF108991081061004501999999MA1999999101731MD1010051+9999REMSYN070    AAXX  14111 12210 42497 81601 11030 21054 30173 40245 50005 886//;
0167122100999992000011412004+53770+015420FM-12+005699999V0201701N001010021019N0100001N1-00261-00471102461ADDAA199000091GF108991081061002501999999MA1999999101741MD1410001+9999REMSYN070    AAXX  14121 12210 32397 81701 11026 21047 30174 40246 54000 886//;EQDQ01  00002PRCP99
0137122100999992000011414004+53770+015420FM-12+005699999V0201701N001010042019N0100001N1-00191-00541102481ADDGF108991081051004501999999MA1999999101761MD1210031+9999REMSYN070    AAXX  14141 12210 42497 81701 11019 21054 30176 40248 52003 885//;
0137122100999992000011415004+53770+015420FM-12+005699999V0201501N001010042019N0100001N1-00201-00471102521ADDGF108991081051004501999999MA1999999101801MD1210061+9999REMSYN070    AAXX  14151 12210 42497 81501 11020 21047 30180 40252 52006 885//;
0137122100999992000011416004+53770+015420FM-12+005699999V0201601N001010042019N0100001N1-00211-00501102531ADDGF108991081051004501999999MA1999999101811MD1210071+9999REMSYN070    AAXX  14161 12210 42497 81601 11021 21050 30181 40253 52007 885//;
0137122100999992000011417004+53770+015420FM-12+005699999V0209999C000010042019N0100001N1-00211-00501102611ADDGF108991081051004501999999MA1999999101891MD1310131+9999REMSYN070    AAXX  14171 12210 42497 80000 11021 21050 30189 40261 53013 885//;
0209122100999992000011418004+53770+015420FM-12+005699999V0209999C000010042019N0100001N1-00211-00501102671ADDAA199000091GF108991081051004501999999KA1120M-00191KA2999N-00691MA1999999101951MD1210151+9999REMSYN086    AAXX  14181 12210 32497 80000 11021 21050 30195 40267 52015 885// 333 11019 21069;EQDQ01  00002PRCP99
0233122100999992000011506004+53770+015420FM-12+005699999V0202401N001010042019N0100001N1-00171-00331102821ADDAA199000091GF108991081051004501999999IA1149IA2999-00309KA1120M-00171KA2120N-00321MA1999999102101MD1710021+9999REMSYN092    AAXX  15061 12210 32497 82401 11017 21033 30210 40282 57002 885// 333 11017 21032 34103;EQDQ01  00002PRCP99
0147122100999992000011507004+53770+015420FM-12+005699999V0202501N001010042019N0100001N1-00131-00351102861ADDGF108991081051004501999999MA1999999102141MD1310051+9999REMSYN080    AAXX  15071 12210 42497 82501 11013 21035 30214 40286 53005 885// 555 57005;
0165122100999992000011508004+53770+015420FM-12+005699999V0209999C000010021019N0040001N1-00141-00301102861ADDAY121999AY221999GF108991081061002501999999MA1999999102141MD1110051+9999MW1771REMSYN076    AAXX  15081 12210 41396 80000 11014 21030 30214 40286 51005 77722 886//;
0165122100999992000011509004+53770+015420FM-12+005699999V0209999C000010021019N0040001N1-00121-00301102931ADDAY121031AY221031GF108991081061002501999999MA1999999102211MD1210111+9999MW1771REMSYN076    AAXX  15091 12210 41340 80000 11012 21030 30221 40293 52011 77722 886//;
0165122100999992000011510004+53770+015420FM-12+005699999V0202801N001010021019N0040001N1-00121-00241102941ADDAY171999AY271999GF108991081061002501999999MA1999999102221MD1210081+9999MW1771REMSYN076    AAXX  15101 12210 41340 82801 11012 21024 30222 40294 52008 77777 886//;
0165122100999992000011511004+53770+015420FM-12+005699999V0209999C000010021019N0040001N1-00091-00221102941ADDAY121999AY221999GF108991081061002501999999MA1999999102221MD1110081+9999MW1201REMSYN076    AAXX  15111 12210 41340 80000 11009 21022 30222 40294 51008 72022 886//;
0182122100999992000011512004+53770+015420FM-12+005699999V0202701N001010021019N0040001N1-00061-00241102921ADDAA106000591AY171061AY221061GF108991081061002501999999MA1999999102201MD1710011+9999MW1771REMSYN082    AAXX  15121 12210 11340 82701 11006 21024 30220 40292 57001 69941 77772 886//;
0175122100999992000011513004+53770+015420FM-12+005699999V0202501N002010021019N0040001N1-00051-00221102891ADDAY171999AY271999GF108991081061002501999999MA1999999102171MD1710051+9999MW1771REMSYN086    AAXX  15131 12210 41396 82502 11005 21022 30217 40289 57005 77777 886// 555 57007;
0165122100999992000011514004+53770+015420FM-12+005699999V0202701N002010042019N0040001N1-00051-00191102901ADDAY121999AY221999GF108991081051004501999999MA1999999102181MD1610041+9999MW1201REMSYN076    AAXX  15141 12210 41496 82702 11005 21019 30218 40290 56004 72022 885//;
0165122100999992000011515004+53770+015420FM-12+005699999V0202501N002010042019N0040001N1-00011-00191102911ADDAY171031AY221031GF108991081051004501999999MA1999999102191MD1510011+9999MW1101REMSYN076    AAXX  15151 12210 41496 82502 11001 21019 30219 40291 55001 71072 885//;
0165122100999992000011516004+53770+015420FM-12+005699999V0202701N002010042019N0040001N1+00011-00171102951ADDAY121999AY221999GF108991081051004501999999MA1999999102231MD1210061+9999MW1101REMSYN076    AAXX  15161 12210 41496 82702 10001 21017 30223 40295 52006 71022 885//;
0165122100999992000011517004+53770+015420FM-12+005699999V0202801N003010042019N0040001N1+00051-00141103001ADDAY121999AY221999GF105991051051004501001001MA1999999102291MD1210111+9999MW1101REMSYN076    AAXX  15171 12210 41496 52803 10005 21014 30229 40300 52011 71022 85500;
0224122100999992000011518004+53770+015420FM-12+005699999V0202801N003010042019N0100001N1+00041-00091103031ADDAA112000591AY171061AY221061GF107991071051004501999999KA1120M+00051KA2999N-00191MA1999999102311MD1210121+9999MW1031REMSYN098    AAXX  15181 12210 11497 72803 10004 21009 30231 40303 52012 69952 70372 875// 333 10005 21019;
0274122100999992000011606004+53770+015420FM-12+005699999V0202301N001010012019N0020001N1-00161-00221102851ADDAA124000591AJ199993999999999GF108991081061001501999999IA1239IA2999-00309KA1120M+00041KA2120N-00291MA1999999102131MD1710061+9999MW1101REMSYN110    AAXX  16061 12210 31220 82301 11016 21022 30213 40285 57006 710// 886// 333 10004 21029 3/103 47997 70005;EQDQ01  09982SNDP  
0175122100999992000011607004+53770+015420FM-12+005699999V0202401N001010012019N0015001N1-00141-00191102911ADDAY121999AY221999GF108991081061001501999999MA1999999102191MD1510011+9999MW1101REMSYN086    AAXX  16071 12210 41215 82401 11014 21019 30219 40291 55001 71022 886// 555 57002;
0165122100999992000011608004+53770+015420FM-12+005699999V0202301N001010012019N0020001N1-00101-00141102921ADDAY121999AY221999GF108991081061001501999999MA1999999102201MD1210031+9999MW1101REMSYN076    AAXX  16081 12210 41220 82301 11010 21014 30220 40292 52003 71022 886//;
0165122100999992000011609004+53770+015420FM-12+005699999V0202201N002010012019N0020001N1-00071-00121102851ADDAY121031AY221031GF108991081061001501999999MA1999999102131MD1010001+9999MW1101REMSYN076    AAXX  16091 12210 41220 82202 11007 21012 30213 40285 50000 71022 886//;
0165122100999992000011610004+53770+015420FM-12+005699999V0202101N002010012019N0020001N1-00041-00071102821ADDAY121999AY221999GF108991081061001501999999MA1999999102101MD1710091+9999MW1101REMSYN076    AAXX  16101 12210 41220 82102 11004 21007 30210 40282 57009 71022 886//;
0165122100999992000011611004+53770+015420FM-12+005699999V0202001N002010012019N0015001N1-00021-00051102751ADDAY121999AY221999GF108991081061001501999999MA1999999102041MD1710161+9999MW1101REMSYN076    AAXX  16111 12210 41215 82002 11002 21005 30204 40275 57016 71022 886//;
0205122100999992000011612004+53770+015420FM-12+005699999V0202101N002010006019N0006001N1+00011-00021102651ADDAA199000091AY121061AY221061GA1091+999999999GF109991091999999999999999MA1999999101941MD1710191+9999MW1471REMSYN070    AAXX  16121 12210 31/06 92102 10001 21002 30194 40265 57019 74722;EQDQ01  00002PRCP99
0185122100999992000011613004+53770+015420FM-12+005699999V0202101N001010006019N0006001N1+00041+00021102621ADDAY141999AY241999GA1091+999999999GF109991091999999999999999MA1999999101911MD1710191+9999MW1451REMSYN080    AAXX  16131 12210 41/06 92101 10004 20002 30191 40262 57019 74544 555 57001;
0175122100999992000011614004+53770+015420FM-12+005699999V0202101N002010006019N0006001N1+00051+00021102541ADDAY141999AY241999GA1091+999999999GF109991091999999999999999MA1999999101831MD1710211+9999MW1451REMSYN070    AAXX  16141 12210 41/06 92102 10005 20002 30183 40254 57021 74544;
0175122100999992000011615004+53770+015420FM-12+005699999V0202201N001010003019N0004001N1+00061+00041102421ADDAY141031AY241031GA1091+999999999GF109991091999999999999999MA1999999101711MD1710231+9999MW1471REMSYN070    AAXX  16151 12210 41/04 92201 10006 20004 30171 40242 57023 74744;
0175122100999992000011616004+53770+015420FM-12+005699999V0202001N002010003019N0004001N1+00101+00101102341ADDAY141999AY241999GA1091+999999999GF109991091999999999999999MA1999999101631MD1710281+9999MW1451REMSYN070    AAXX  16161 12210 41/04 92002 10010 20010 30163 40234 57028 74544;
0165122100999992000011617004+53770+015420FM-12+005699999V0202001N002010012019N0004001N1+00131+00111102201ADDAY141999AY241999GF108991081061001501999999MA1999999101491MD1710341+9999MW1511REMSYN076    AAXX  16171 12210 41204 82002 10013 20011 30149 40220 57034 75144 886//;
0224122100999992000011618004+53770+015420FM-12+005699999V0201801N002010012019N0006001N1+00181+00151102111ADDAA112000791AY141061AY241061GF108991081061001501999999KA1120M+00181KA2999N-00191MA1999999101401MD1710311+9999MW1511REMSYN098    AAXX  16181 12210 11206 81802 10018 20015 30140 40211 57031 69902 75144 886// 333 10018 21019;
0183122100999992000011812004+53770+015420FM-12+005699999V0202901N005010300019N0200001N1+00361-00381100401ADDAA199000091GF107991041021008001031999MA1999999099711MD1210251+9999REMSYN086    AAXX  18121 12210 32598 72905 10036 21038 39971 40040 52025 8423/ 333 91011 91111;EQDQ01  00002PRCP99
0147122100999992000011813004+53770+015420FM-12+005699999V0203101N005010300019N0200001N1+00361-00331100471ADDGF107991031021008001031999MA1999999099781MD1210231+9999REMSYN080    AAXX  18131 12210 42598 73105 10036 21033 39978 40047 52023 8323/ 555 57033;
0137122100999992000011814004+53770+015420FM-12+005699999V0202901N004010075019N0200001N1+00351-00331100561ADDGF107991051031008001031999MA1999999099871MD1210201+9999REMSYN070    AAXX  18141 12210 42598 72904 10035 21033 39987 40056 52020 8533/;
0137122100999992000011815004+53770+015420FM-12+005699999V0203001N004010300019N0200001N1+00341-00301100651ADDGF107991031041004501031999MA1999999099961MD1210251+9999REMSYN070    AAXX  18151 12210 42498 73004 10034 21030 39996 40065 52025 8343/;
0137122100999992000011816004+53770+015420FM-12+005699999V0202901N004019999999N0200001N1+00321-00241100711ADDGF108991081001999999071999MA1999999100021MD1210241+9999REMSYN070    AAXX  18161 12210 42998 82904 10032 21024 30002 40071 52024 8807/;
0137122100999992000011817004+53770+015420FM-12+005699999V0203001N004019999999N0200001N1+00361-00381100781ADDGF108991081001999999071999MA1999999100091MD1210221+9999REMSYN070    AAXX  18171 12210 42998 83004 10036 21038 30009 40078 52022 8807/;
0209122100999992000011818004+53770+015420FM-12+005699999V0203101N004019999999N0200001N1+00361-00301100841ADDAA199000091GF108991081001999999071999KA1120M+00371KA2999N+00291MA1999999100151MD1210191+9999REMSYN086    AAXX  18181 12210 32998 83104 10036 21030 30015 40084 52019 8807/ 333 10037 20029;EQDQ01  00002PRCP99
0153122100999992000011907004+53770+015420FM-12+005699999V0203201N002010075019N0200001N1+00021-00441101681ADDGF105991051051008001001001MA1999999100971MD1210191+9999REMSYN086    AAXX  19071 12210 42598 53202 10002 21044 30097 40168 52019 85500 555 57007 80311;
0165122100999992000011908004+53770+015420FM-12+005699999V0203201N003010075019N0200001N1+00101-00541101721ADDAY121999AY221999GF106991061091008001001001MA1999999101021MD1210151+9999MW1271REMSYN076    AAXX  19081 12210 41598 63203 10010 21054 30102 40172 52015 72722 86900;
0165122100999992000011909004+53770+015420FM-12+005699999V0203301N004010300019N0200001N1+00141-00441101761ADDAY181031AY211031GF106991041031008001031001MA1999999101061MD1210141+9999MW1271REMSYN076    AAXX  19091 12210 41598 63304 10014 21044 30106 40176 52014 72781 84330;
0137122100999992000011910004+53770+015420FM-12+005699999V0203101N003010300019N0200001N1+00151-00381101811ADDGF106991041031008001031001MA1999999101111MD1210141+9999REMSYN070    AAXX  19101 12210 42598 63103 10015 21038 30111 40181 52014 84330;
0137122100999992000011911004+53770+015420FM-12+005699999V0203101N004010075019N0200001N1+00201-00411101871ADDGF105991051021008001001001MA1999999101171MD1210151+9999REMSYN070    AAXX  19111 12210 42598 53104 10020 21041 30117 40187 52015 85200;
0182122100999992000011912004+53770+015420FM-12+005699999V0203201N004010300019N0200001N1+00191-00381101901ADDAA106000191AY181061AY211061GF106991041021008001061001MA1999999101201MD1210141+9999MW1011REMSYN082    AAXX  19121 12210 11598 63204 10019 21038 30120 40190 52014 69911 70181 84260;
0147122100999992000011913004+53770+015420FM-12+005699999V0203101N004010300019N0200001N1+00131-00411101961ADDGF106991041021008001061001MA1999999101251MD1210141+9999REMSYN080    AAXX  19131 12210 42598 63104 10013 21041 30125 40196 52014 84260 555 57024;
0137122100999992000011915004+53770+015420FM-12+005699999V0203201N003010750019N0200001N1+00071-00501102071ADDGF107991031041008001001061MA1999999101361MD1210161+9999REMSYN070    AAXX  19151 12210 42598 73203 10007 21050 30136 40207 52016 83406;
0133122100999992000011917004+53770+015420FM-12+005699999V0202901N002010075019N0200001N1-00021-00601102161ADDGF106991061051008001001001MA1999999101451MD1210161+9999REMSYN066AAXX  19171 12210 42598 62902 11002 21060 30145 40216 52016 86500;
0192122100999992000011918004+53770+015420FM-12+005699999V0202901N001010075019N0200001N1+00021-00541102221ADDAA112000191GF106991061051008001001001KA1120M+00221KA2999N-00151MA1999999101511MD1210151+9999REMSYN088AAXX  19181 12210 12598 62901 10002 21054 30151 40222 52015 69912 86500 333 10022 21015;
0245122100999992000012006004+53770+015420FM-12+005699999V0202201N002010042019N0100001N1-00101-00301101671ADDAA124000191AJ100029199999999GF108991081051004501999999IA1279IA2999-00609KA1120M+00051KA2120N-00381MA1999999100961MD1710301+9999REMSYN106AAXX  20061 12210 32497 82202 11010 21030 30096 40167 57030 885// 333 10005 21038 3/106 43002 55040 70001;
0149122100999992000012007004+53770+015420FM-12+005699999V0202101N002010042019N0100001N1-00021-00171101591ADDGF108991081051004501999999MA1999999100881MD1710281+9999REMSYN082AAXX  20071 12210 42497 82102 11002 21017 30088 40159 57028 885// 555 57008 80051;
0133122100999992000012008004+53770+015420FM-12+005699999V0202301N002010042019N0100001N1+00101-00091101501ADDGF108991081051004501999999MA1999999100801MD1710261+9999REMSYN066AAXX  20081 12210 42497 82302 10010 21009 30080 40150 57026 885//;
0133122100999992000012009004+53770+015420FM-12+005699999V0202501N002010042019N0100001N1+00181+00111101441ADDGF108991081051004501999999MA1999999100741MD1710221+9999REMSYN066AAXX  20091 12210 42497 82502 10018 20011 30074 40144 57022 885//;
0133122100999992000012010004+53770+015420FM-12+005699999V0202601N003010042019N0100001N1+00261+00131101371ADDGF108991081051004501999999MA1999999100671MD1710211+9999REMSYN066AAXX  20101 12210 42497 82603 10026 20013 30067 40137 57021 885//;
0133122100999992000012011004+53770+015420FM-12+005699999V0202601N004010042019N0100001N1+00371+00171101251ADDGF108991081051004501999999MA1999999100561MD1710241+9999REMSYN066AAXX  20111 12210 42497 82604 10037 20017 30056 40125 57024 885//;
0178122100999992000012012004+53770+015420FM-12+005699999V0202501N004010075019N0100001N1+00391+00171101171ADDAA106000791AY121061AY221061GF108991051091008001071999MA1999999100481MD1710261+9999MW1801REMSYN078AAXX  20121 12210 11597 82504 10039 20017 30048 40117 57026 69901 78022 8597/;
0171122100999992000012013004+53770+015420FM-12+005699999V0202601N003010090019N0200001N1+00401+00111101001ADDAY121999AY221999GF107991071081004501999999MA1999999100311MD1710361+9999MW1251REMSYN082AAXX  20131 12210 41498 72603 10040 20011 30031 40100 57036 72522 878// 555 57012;
0161122100999992000012014004+53770+015420FM-12+005699999V0202601N004010075019N0100001N1+00351+00191100931ADDAY181999AY221999GF108991061091008001071999MA1999999100241MD1710321+9999MW1801REMSYN072AAXX  20141 12210 41597 82604 10035 20019 30024 40093 57032 78082 8697/;
0161122100999992000012015004+53770+015420FM-12+005699999V0202601N004010075019N0040001N1+00341+00211100801ADDAY181031AY221031GF108991081091008001999999MA1999999100111MD1710371+9999MW1801REMSYN072AAXX  20151 12210 41596 82604 10034 20021 30011 40080 57037 78082 889//;
0161122100999992000012016004+53770+015420FM-12+005699999V0202701N003010075019N0040001N1+00351+00251100731ADDAY181999AY281999GF108991081091008001999999MA1999999100041MD1710271+9999MW1801REMSYN072AAXX  20161 12210 41596 82703 10035 20025 30004 40073 57027 78088 889//;
0161122100999992000012017004+53770+015420FM-12+005699999V0202601N004010075019N0040001N1+00381+00311100621ADDAY181999AY281999GF108991081091008001999999MA1999999099931MD1710311+9999MW1801REMSYN072AAXX  20171 12210 41596 82604 10038 20031 39993 40062 57031 78088 889//;
0220122100999992000012018004+53770+015420FM-12+005699999V0202701N004010075019N0200001N1+00401+00271100581ADDAA112002091AY181061AY221061GF108991051031008001071999KA1120M+00401KA2999N-00131MA1999999099891MD1710221+9999MW1251REMSYN094AAXX  20181 12210 11598 82704 10040 20027 39989 40058 57022 60022 72582 8537/ 333 10040 21013;
0257122100999992000012106004+53770+015420FM-12+005699999V0203501N002010075019N0040001N1-00031-00331100551ADDAA112002091AJ100039199999999GF108991081091008001999999IA1279IA2999-00309KA1120M+00431KA2120N-00211MA1999999099851MD1210101+9999MW1851REMSYN112AAXX  21061 12210 11596 83502 11003 21033 39985 40055 52010 60022 785// 889// 333 10043 21021 3/103 43003 70043;
0177122100999992000012107004+53770+015420FM-12+005699999V0203401N003010075019N0200001N1-00071-00471100611ADDAY181999AY221999GF108991061031008001071999MA1999999099911MD1210191+9999MW1271REMSYN088AAXX  21071 12210 41598 83403 11007 21047 39991 40061 52019 72782 8637/ 555 57012 80351;
0177122100999992000012108004+53770+015420FM-12+005699999V0203601N005010075019N0040001N1-00301-00441100781ADDAY181999AY221999GF108991081091008001999999MA1999999100071MD1210311+9999MW1851REMSYN088AAXX  21081 12210 41596 83605 11030 21044 30007 40078 52031 78582 889// 333 91011 91114;
0177122100999992000012109004+53770+015420FM-12+005699999V0203401N005010075019N0200001N1-00271-00821100891ADDAY181031AY221031GF107991071091008001999999MA1999999100181MD1210331+9999MW1271REMSYN088AAXX  21091 12210 41598 73405 11027 21082 30018 40089 52033 72782 879// 333 91013 91114;
0177122100999992000012110004+53770+015420FM-12+005699999V0203201N005010075019N0200001N1-00231-00781100981ADDAY181999AY221999GF106991061031008001001001MA1999999100271MD1210361+9999MW1361REMSYN088AAXX  21101 12210 41598 63205 11023 21078 30027 40098 52036 73682 86300 333 91015 91117;
0177122100999992000012111004+53770+015420FM-12+005699999V0203201N006010075019N0200001N1-00131-01171101111ADDAY131999AY231999GF106991061031008001001001MA1999999100401MD1210331+9999MW1361REMSYN088AAXX  21111 12210 41598 63206 11013 21117 30040 40111 52033 73633 86300 333 91014 91116;
0194122100999992000012112004+53770+015420FM-12+005699999V0203201N005010075019N0200001N1-00191-01031101191ADDAA106000591AY181061AY221061GF105991051031008001001001MA1999999100481MD1210301+9999MW1361REMSYN094AAXX  21121 12210 11598 53205 11019 21103 30048 40119 52030 69941 73682 85300 333 91012 91117;
0187122100999992000012113004+53770+015420FM-12+005699999V0203301N006010075019N0200001N1-00151-01071101301ADDAY131999AY231999GF105991051031008001001001MA1999999100591MD1210321+9999MW1361REMSYN098AAXX  21131 12210 41598 53306 11015 21107 30059 40130 52032 73633 85300 333 91013 91114 555 57025;
0177122100999992000012114004+53770+015420FM-12+005699999V0203401N005010075019N0200001N1-00171-01221101431ADDAY121999AY221999GF105991051031008001001001MA1999999100721MD1210321+9999MW1261REMSYN088AAXX  21141 12210 41598 53405 11017 21122 30072 40143 52032 72622 85300 333 91012 91114;
0177122100999992000012115004+53770+015420FM-12+005699999V0203301N005010075019N0200001N1-00231-01071101531ADDAY181031AY231031GF106991061091008001001001MA1999999100821MD1210341+9999MW1271REMSYN088AAXX  21151 12210 41598 63305 11023 21107 30082 40153 52034 72783 86900 333 91011 91114;
0161122100999992000012116004+53770+015420FM-12+005699999V0203201N003010075019N0200001N1-00261-01071101621ADDAY121999AY221999GF106991061031008001001001MA1999999100911MD1210321+9999MW1271REMSYN072AAXX  21161 12210 41598 63203 11026 21107 30091 40162 52032 72722 86300;
0226122100999992000012118004+53770+015420FM-12+005699999V0203101N002010075019N0040001N1-00351-01031101741ADDAA112000591AY181061AY231061GF107991071091008001999999KA1120M-00031KA2120N-00381MA1999999101021MD1210201+9999MW1871REMSYN100AAXX  21181 12210 11596 73102 11035 21103 30102 40174 52020 69962 78783 879// 333 11003 21038 91114;
0257122100999992000012206004+53770+015420FM-12+005699999V0209999C000019999999N0100001N1-00741-00981101371ADDAA112000391AJ100039199999999GF107991001001999999001081IA1289IA2999-01209KA1120M-00351KA2120N-00811MA1999999100651MD1710241+9999REMSYN118AAXX  22061 12210 11997 70000 11074 21098 30065 40137 57024 69932 7//// 80008 333 11035 21081 3/112 44003 55025 70009;
0133122100999992000012209004+53770+015420FM-12+005699999V0201601N001019999999N0200001N1-00611-01031101221ADDGF107991001001999999001081MA1999999100501MD1710151+9999REMSYN066AAXX  22091 12210 42998 71601 11061 21103 30050 40122 57015 80008;
0133122100999992000012210004+53770+015420FM-12+005699999V0201501N001019999999N0200001N1-00461-01031101181ADDGF107991001001999999001081MA1999999100461MD1710151+9999REMSYN066AAXX  22101 12210 42998 71501 11046 21103 30046 40118 57015 80008;
0133122100999992000012211004+53770+015420FM-12+005699999V0201201N001019999999N0200001N1-00361-00981101101ADDGF107991001001999999001081MA1999999100391MD1710181+9999REMSYN066AAXX  22111 12210 42998 71201 11036 21098 30039 40110 57018 80008;
0163122100999992000012212004+53770+015420FM-12+005699999V0201001N002019999999N0200001N1-00271-01071101051ADDAA199000091GF106991001001999999001081MA1999999100341MD1710161+9999REMSYN066AAXX  22121 12210 32998 61002 11027 21107 30034 40105 57016 80008;EQDQ01  00002PRCP99
0143122100999992000012213004+53770+015420FM-12+005699999V0200901N002019999999N0200001N1-00261-01121101031ADDGF106991001001999999001081MA1999999100321MD1610141+9999REMSYN076AAXX  22131 12210 42998 60902 11026 21112 30032 40103 56014 80008 555 57023;
0133122100999992000012214004+53770+015420FM-12+005699999V0201001N002019999999N0200001N1-00251-01071101051ADDGF106991001001999999001081MA1999999100341MD1510051+9999REMSYN066AAXX  22141 12210 42998 61002 11025 21107 30034 40105 55005 80008;
0133122100999992000012215004+53770+015420FM-12+005699999V0200801N002019999999N0200001N1-00351-01031101051ADDGF107991001001999999001061MA1999999100341MD1410001+9999REMSYN066AAXX  22151 12210 42998 70802 11035 21103 30034 40105 54000 80006;
0133122100999992000012216004+53770+015420FM-12+005699999V0200801N001019999999N0200001N1-00541-00941101091ADDGF107991001001999999001081MA1999999100371MD1310051+9999REMSYN066AAXX  22161 12210 42998 70801 11054 21094 30037 40109 53005 80008;
0133122100999992000012217004+53770+015420FM-12+005699999V0200501N001019999999N0200001N1-00641-01031101131ADDGF107991001001999999001081MA1999999100411MD1210071+9999REMSYN066AAXX  22171 12210 42998 70501 11064 21103 30041 40113 52007 80008;
0205122100999992000012218004+53770+015420FM-12+005699999V0200801N001019999999N0100001N1-00681-01221101141ADDAA199000091GF107991001001999999001081KA1120M-00251KA2999N-00761MA1999999100421MD1210081+9999REMSYN082AAXX  22181 12210 32997 70801 11068 21122 30042 40114 52008 80008 333 11025 21076;EQDQ01  00002PRCP99
0264122100999992000012306004+53770+015420FM-12+005699999V0209999C000012200019N0200001N1-01161-01571101661ADDAA199000091AJ100039199999999GF103991031001999999031001IA1249IA2999-01709KA1120M-00681KA2120N-01281MA1999999100921MD1210101+9999REMSYN106AAXX  23061 12210 31998 30000 11116 21157 30092 40166 52010 7//// 83030 333 11068 21128 3/117 48003 55031;EQDQ01  00002PRCP99
0149122100999992000012307004+53770+015420FM-12+005699999V0209999C000019999999N0200001N1-01151-01441101741ADDGF105991051001999999031001MA1999999101001MD1210161+9999REMSYN082AAXX  23071 12210 42998 50000 11115 21144 30100 40174 52016 85030 555 57007 80034;
0133122100999992000012308004+53770+015420FM-12+005699999V0209999C000019999999N0100001N1-01101-01331101801ADDGF106991061001999999031001MA1999999101061MD1210181+9999REMSYN066AAXX  23081 12210 42997 60000 11110 21133 30106 40180 52018 86030;
0133122100999992000012309004+53770+015420FM-12+005699999V0209999C000012200019N0100001N1-00921-01121101821ADDGF104991041001999999031001MA1999999101091MD1210171+9999REMSYN066AAXX  23091 12210 42997 40000 11092 21112 30109 40182 52017 84030;
0133122100999992000012310004+53770+015420FM-12+005699999V0209999C000012200019N0100001N1-00571-00861101841ADDGF102991021001999999031001MA1999999101121MD1110121+9999REMSYN066AAXX  23101 12210 42997 20000 11057 21086 30112 40184 51012 82030;
0133122100999992000012311004+53770+015420FM-12+005699999V0203101N001012200019N0100001N1-00301-00781101871ADDGF102991021001999999031001MA1999999101151MD1210091+9999REMSYN066AAXX  23111 12210 42997 23101 11030 21078 30115 40187 52009 82030;
0143122100999992000012313004+53770+015420FM-12+005699999V0202901N002010300019N0100001N1-00181-00781101881ADDGF106991041021008001041001MA1999999101171MD1210051+9999REMSYN076AAXX  23131 12210 42597 62902 11018 21078 30117 40188 52005 84240 555 57019;
0133122100999992000012314004+53770+015420FM-12+005699999V0202901N001010075019N0100001N1-00121-00741101881ADDGF106991051031008001041001MA1999999101171MD1110021+9999REMSYN066AAXX  23141 12210 42597 62901 11012 21074 30117 40188 51002 85340;
0161122100999992000012315004+53770+015420FM-12+005699999V0209999C000010075019N0040001N1-00231-00631101921ADDAY111031AY211031GF107991061091008001031999MA1999999101211MD1210051+9999MW1871REMSYN072AAXX  23151 12210 41596 70000 11023 21063 30121 40192 52005 78711 8693/;
0161122100999992000012316004+53770+015420FM-12+005699999V0209999C000010300019N0100001N1-00321-00631101971ADDAY121999AY221999GF107991041031008001031999MA1999999101251MD1210081+9999MW1271REMSYN072AAXX  23161 12210 41597 70000 11032 21063 30125 40197 52008 72722 8433/;
0133122100999992000012317004+53770+015420FM-12+005699999V0209999C000010075019N0100001N1-00331-00631101951ADDGF107991051041008001031999MA1999999101231MD1010061+9999REMSYN066AAXX  23171 12210 42597 70000 11033 21063 30123 40195 50006 8543/;
0220122100999992000012318004+53770+015420FM-12+005699999V0209999C000010300019N0100001N1-00391-00631101951ADDAA112000791AY181061AY211061GF107991031041008001031999KA1120M-00121KA2999N-01321MA1999999101231MD1110021+9999MW1011REMSYN094AAXX  23181 12210 11597 70000 11039 21063 30123 40195 51002 69902 70181 8343/ 333 11012 21132;
0251122100999992000012406004+53770+015420FM-12+005699999V0209999C000012200019N0200001N1-00801-00981102041ADDAA112006191AJ100179199999999GF103991031041004501001001IA1239IA2999-00709KA1120M-00351KA2120N-00911MA1999999101311MD1210061+9999REMSYN112AAXX  24061 12210 11498 30000 11080 21098 30131 40204 52006 60062 83400 333 11035 21091 3/107 47017 55041 70061;
0155122100999992000012407004+53770+015420FM-12+005699999V0209999C000012200019N0200001N1-01061-01271102101ADDGF103991021041004501031001MA1999999101361MD1210091+9999REMSYN088AAXX  24071 12210 42498 30000 11106 21127 30136 40210 52009 82430 555 57004 70014 81511;
0133122100999992000012408004+53770+015420FM-12+005699999V0209999C000010042019N0100001N1-01161-01381102161ADDGF106991061061004501001001MA1999999101421MD1210141+9999REMSYN066AAXX  24081 12210 42497 60000 11116 21138 30142 40216 52014 86600;
0161122100999992000012409004+53770+015420FM-12+005699999V0209999C000010021019N0005001N1-01021-01221102201ADDAY111031AY211031GF108991081061002501999999MA1999999101461MD1210151+9999MW1461REMSYN072AAXX  24091 12210 41305 80000 11102 21122 30146 40220 52015 74611 886//;
0161122100999992000012410004+53770+015420FM-12+005699999V0209999C000012200019N0006001N1-00781-00941102241ADDAY141999AY241999GF105991031061002501001011MA1999999101511MD1210151+9999MW1421REMSYN072AAXX  24101 12210 41306 50000 11078 21094 30151 40224 52015 74244 83601;
0161122100999992000012411004+53770+015420FM-12+005699999V0209999C000012200019N0040001N1-00331-00631102231ADDAY111999AY211999GF103991011061002501001011MA1999999101511MD1110091+9999MW1281REMSYN072AAXX  24111 12210 41396 30000 11033 21063 30151 40223 51009 72811 81601;
0205122100999992000012418004+53770+015420FM-12+005699999V0209999C000012200019N0100001N1-00681-00861102411ADDAA199000091GF102991001001999999001011KA1120M-00161KA2999N-01301MA1999999101681MD1210121+9999REMSYN082AAXX  24181 12210 32997 20000 11068 21086 30168 40241 52012 80001 333 11016 21130;EQDQ01  00002PRCP99
0258122100999992000012506004+53770+015420FM-12+005699999V0202301N001019999999N0100001N1-00901-01121102491ADDAA199000091AJ100159199999999GF107991071001999999031999IA1239IA2999-02309KA1120M-00681KA2120N-01721MA1999999101751MD1710011+9999REMSYN100AAXX  25061 12210 32997 72301 11090 21112 30175 40249 57001 8703/ 333 11068 21172 3/123 47015 55031;EQDQ01  00002PRCP99
0133122100999992000012514004+53770+015420FM-12+005699999V0202201N003010075019N0100001N1-00301-00671102341ADDGF108991061051008001071999MA1999999101621MD1710091+9999REMSYN066AAXX  25141 12210 42597 82203 11030 21067 30162 40234 57009 8657/;
0133122100999992000012515004+53770+015420FM-12+005699999V0202301N003010075019N0100001N1-00291-00631102321ADDGF108991081051008001999999MA1999999101601MD1710091+9999REMSYN066AAXX  25151 12210 42597 82303 11029 21063 30160 40232 57009 885//;
0133122100999992000012516004+53770+015420FM-12+005699999V0202301N002010042019N0100001N1-00291-00571102301ADDGF108991081051004501999999MA1999999101581MD1710071+9999REMSYN066AAXX  25161 12210 42497 82302 11029 21057 30158 40230 57007 885//;
0133122100999992000012517004+53770+015420FM-12+005699999V0202301N002010042019N0100001N1-00251-00671102301ADDGF108991081051004501999999MA1999999101581MD1610041+9999REMSYN066AAXX  25171 12210 42497 82302 11025 21067 30158 40230 56004 885//;
0205122100999992000012518004+53770+015420FM-12+005699999V0202301N002010042019N0100001N1-00241-00571102321ADDAA199000091GF108991081051004501999999KA1120M-00241KA2999N-00901MA1999999101601MD1510001+9999REMSYN082AAXX  25181 12210 32497 82302 11024 21057 30160 40232 55000 885// 333 11024 21090;EQDQ01  00002PRCP99
0245122100999992000012606004+53770+015420FM-12+005699999V0202601N002010021019N0100001N1-00011-00071102051ADDAA112001091AJ100109199999999GF108991081061002501999999IA1279IA2999-00309KA1120M-00011KA2120N-00281MA1999999101341MD1710051+9999REMSYN106AAXX  26061 12210 11397 82602 11001 21007 30134 40205 57005 69992 886// 333 11001 21028 3/103 43010 70009;
0177122100999992000012607004+53770+015420FM-12+005699999V0202401N002010021019N0040001N1+00041-00051102081ADDAY121999AY221999GF108991081061002501999999MA1999999101371MD1210031+9999MW1101REMSYN088AAXX  26071 12210 41396 82402 10004 21005 30137 40208 52003 71022 886// 555 57002 80151;
0161122100999992000012608004+53770+015420FM-12+005699999V0202501N002010021019N0040001N1+00061+00041102061ADDAY121999AY221999GF108991081061002501999999MA1999999101351MD1010061+9999MW1101REMSYN072AAXX  26081 12210 41396 82502 10006 20004 30135 40206 50006 71022 886//;
0161122100999992000012609004+53770+015420FM-12+005699999V0202301N002010021019N0015001N1+00061+00001102061ADDAY121031AY221031GF108991081061002501999999MA1999999101351MD1110011+9999MW1101REMSYN072AAXX  26091 12210 41315 82302 10006 20000 30135 40206 51001 71022 886//;
0161122100999992000012610004+53770+015420FM-12+005699999V0202501N003010021019N0008001N1+00101+00071102081ADDAY121999AY221999GF108991081061002501999999MA1999999101371MD1410001+9999MW1461REMSYN072AAXX  26101 12210 41308 82503 10010 20007 30137 40208 54000 74622 886//;
0161122100999992000012611004+53770+015420FM-12+005699999V0202301N002010021019N0020001N1+00141+00111102071ADDAY121999AY221999GF108991081061002501999999MA1999999101361MD1110011+9999MW1281REMSYN072AAXX  26111 12210 41320 82302 10014 20011 30136 40207 51001 72822 886//;
0191122100999992000012612004+53770+015420FM-12+005699999V0202301N002010021019N0040001N1+00161+00131102021ADDAA199000091AY141061AY221061GF108991081061002501999999MA1999999101311MD1710041+9999MW1101REMSYN072AAXX  26121 12210 31340 82302 10016 20013 30131 40202 57004 71042 886//;EQDQ01  00002PRCP99
0171122100999992000012613004+53770+015420FM-12+005699999V0202701N003010021019N0040001N1+00181+00111101991ADDAY121999AY221999GF108991081061002501999999MA1999999101291MD1710081+9999MW1101REMSYN082AAXX  26131 12210 41396 82703 10018 20011 30129 40199 57008 71022 886// 555 57001;
0161122100999992000012614004+53770+015420FM-12+005699999V0202401N003010042019N0040001N1+00181+00111101981ADDAY121999AY221999GF108991081051004501999999MA1999999101281MD1710081+9999MW1101REMSYN072AAXX  26141 12210 41496 82403 10018 20011 30128 40198 57008 71022 885//;
0133122100999992000012615004+53770+015420FM-12+005699999V0202401N003010042019N0100001N1+00201+00071101951ADDGF108991081051004501999999MA1999999101251MD1710061+9999REMSYN066AAXX  26151 12210 42497 82403 10020 20007 30125 40195 57006 885//;
0257122100999992000012706004+53770+015420FM-12+005699999V0202601N002010021019N0040001N1+00301+00251101941ADDAA112001091AJ100029199999999GF108991051071002501021999IA1309IA2999+00209KA1120M+00391KA2120N+00181MA1999999101241MD1210031+9999MW1611REMSYN112AAXX  27061 12210 11396 82602 10030 20025 30124 40194 52003 60012 761// 8572/ 333 10039 20018 3/002 42002 70013;
0177122100999992000012707004+53770+015420FM-12+005699999V0202501N003010021019N0040001N1+00311+00231101961ADDAY161999AY221999GF108991051071002501021999MA1999999101261MD1210071+9999MW1611REMSYN088AAXX  27071 12210 41396 82503 10031 20023 30126 40196 52007 76162 8572/ 555 57003 80057;
0161122100999992000012708004+53770+015420FM-12+005699999V0202601N003010021019N0040001N1+00301+00251101921ADDAY161999AY261999GF108991061071002501021999MA1999999101221MD1810021+9999MW1611REMSYN072AAXX  27081 12210 41396 82603 10030 20025 30122 40192 58002 76166 8672/;
0161122100999992000012709004+53770+015420FM-12+005699999V0202401N004010021019N0040001N1+00301+00251101891ADDAY161031AY221031GF108991061071002501021999MA1999999101191MD1710051+9999MW1611REMSYN072AAXX  27091 12210 41396 82404 10030 20025 30119 40189 57005 76162 8672/;
0161122100999992000012710004+53770+015420FM-12+005699999V0202501N004010021019N0040001N1+00311+00231101861ADDAY161999AY261999GF108991061071002501021999MA1999999101161MD1710101+9999MW1611REMSYN072AAXX  27101 12210 41396 82504 10031 20023 30116 40186 57010 76166 8672/;
0161122100999992000012711004+53770+015420FM-12+005699999V0202401N004010021019N0040001N1+00321+00251101831ADDAY161999AY261999GF108991061071002501021999MA1999999101131MD1710091+9999MW1611REMSYN072AAXX  27111 12210 41396 82404 10032 20025 30113 40183 57009 76166 8672/;
0178122100999992000012712004+53770+015420FM-12+005699999V0202601N004010021019N0040001N1+00331+00251101761ADDAA106001091AY161061AY221061GF108991061071002501021999MA1999999101061MD1710131+9999MW1611REMSYN078AAXX  27121 12210 11396 82604 10033 20025 30106 40176 57013 69991 76162 8672/;
0187122100999992000012713004+53770+015420FM-12+005699999V0202401N005010021019N0040001N1+00331+00251101711ADDAY161999AY261999GF108991061071002501021999MA1999999101011MD1710151+9999MW1611REMSYN098AAXX  27131 12210 41396 82405 10033 20025 30101 40171 57015 76166 8672/ 333 91011 91111 555 57004;
0177122100999992000012714004+53770+015420FM-12+005699999V0202301N005010042019N0100001N1+00341+00191101651ADDAY121999AY221999GF108991081051004501999999MA1999999100951MD1710181+9999MW1211REMSYN088AAXX  27141 12210 41497 82305 10034 20019 30095 40165 57018 72122 885// 333 91011 91111;
0171122100999992000012715004+53770+015420FM-12+005699999V0202301N003010021019N0040001N1+00291+00191101601ADDAY161031AY221031GF108991061071002501021999MA1999999100901MD1710161+9999MW1611REMSYN082AAXX  27151 12210 41396 82303 10029 20019 30090 40160 57016 76162 8672/ 333 91111;
0161122100999992000012716004+53770+015420FM-12+005699999V0202301N002010021019N0040001N1+00261+00151101601ADDAY161999AY261999GF108991061071002501021999MA1999999100901MD1610111+9999MW1611REMSYN072AAXX  27161 12210 41396 82302 10026 20015 30090 40160 56011 76166 8672/;
0161122100999992000012717004+53770+015420FM-12+005699999V0202201N003010021019N0040001N1+00231+00151101561ADDAY161999AY261999GF108991061071002501021999MA1999999100861MD1710091+9999MW1611REMSYN072AAXX  27171 12210 41396 82203 10023 20015 30086 40156 57009 76166 8672/;
0226122100999992000012718004+53770+015420FM-12+005699999V0202201N004010021019N0040001N1+00241+00171101511ADDAA112002091AY161061AY221061GF108991061071002501021999KA1120M+00351KA2120N+00211MA1999999100811MD1710091+9999MW1611REMSYN100AAXX  27181 12210 11396 82204 10024 20017 30081 40151 57009 60022 76162 8672/ 333 10035 20021 91111;
0222122100999992000012806004+53770+015420FM-12+005699999V0202401N003010042019N0100001N1+00281+00211101011ADDAA112000591GF108991081051004501999999IA1099IA2999+00109KA1120M+00301KA2120N+00121MA1999999100311MD1710131+9999REMSYN100AAXX  28061 12210 12497 82403 10028 20021 30031 40101 57013 69942 885// 333 10030 20012 31001 70026;
0143122100999992000012807004+53770+015420FM-12+005699999V0202101N004010042019N0100001N1+00261+00111101011ADDGF108991081051004501999999MA1999999100311MD1610031+9999REMSYN076AAXX  28071 12210 42497 82104 10026 20011 30031 40101 56003 885// 555 57004;
0161122100999992000012808004+53770+015420FM-12+005699999V0202201N003010042019N0040001N1+00251+00091101001ADDAY121999AY221999GF108991051071004501021999MA1999999100301MD1710031+9999MW1611REMSYN072AAXX  28081 12210 41496 82203 10025 20009 30030 40100 57003 76122 8572/;
0161122100999992000012809004+53770+015420FM-12+005699999V0202101N004010021019N0040001N1+00251+00071100991ADDAY121031AY221031GF108991061071002501021999MA1999999100291MD1710021+9999MW1611REMSYN072AAXX  28091 12210 41396 82104 10025 20007 30029 40099 57002 76122 8672/;
0161122100999992000012810004+53770+015420FM-12+005699999V0202301N003010021019N0040001N1+00241+00041100961ADDAY161999AY261999GF108991061071002501021999MA1999999100261MD1710051+9999MW1611REMSYN072AAXX  28101 12210 41396 82303 10024 20004 30026 40096 57005 76166 8672/;
0161122100999992000012811004+53770+015420FM-12+005699999V0202101N002010021019N0040001N1+00191+00091100931ADDAY161999AY261999GF108991061071002501021999MA1999999100231MD1710071+9999MW1611REMSYN072AAXX  28111 12210 41396 82102 10019 20009 30023 40093 57007 76166 8672/;
0178122100999992000012812004+53770+015420FM-12+005699999V0202101N003010021019N0040001N1+00231+00071100881ADDAA106001091AY121061AY221061GF108991081061002501999999MA1999999100181MD1710111+9999MW1211REMSYN078AAXX  28121 12210 11396 82103 10023 20007 30018 40088 57011 60011 72122 886//;
0171122100999992000012813004+53770+015420FM-12+005699999V0202101N002010021019N0040001N1+00171+00041100841ADDAY121999AY221999GF108991061071002501021999MA1999999100141MD1710121+9999MW1611REMSYN082AAXX  28131 12210 41396 82102 10017 20004 30014 40084 57012 76122 8672/ 555 57008;
0161122100999992000012814004+53770+015420FM-12+005699999V0202301N003010021019N0040001N1+00151+00021100811ADDAY161999AY261999GF108991061071002501021999MA1999999100111MD1710121+9999MW1611REMSYN072AAXX  28141 12210 41396 82303 10015 20002 30011 40081 57012 76166 8672/;
0161122100999992000012815004+53770+015420FM-12+005699999V0202101N004010021019N0040001N1+00131+00041100801ADDAY121031AY221031GF108991061071002501021999MA1999999100101MD1710081+9999MW1611REMSYN072AAXX  28151 12210 41396 82104 10013 20004 30010 40080 57008 76122 8672/;
0161122100999992000012816004+53770+015420FM-12+005699999V0202001N003010021019N0040001N1+00101+00001100771ADDAY161999AY261999GF108991061071002501021999MA1999999100071MD1710071+9999MW1681REMSYN072AAXX  28161 12210 41396 82003 10010 20000 30007 40077 57007 76866 8672/;
0161122100999992000012817004+53770+015420FM-12+005699999V0201801N004010042019N0040001N1+00121-00121100741ADDAY121999AY221999GF108991081061004501999999MA1999999100041MD1710071+9999MW1231REMSYN072AAXX  28171 12210 41496 81804 10012 21012 30004 40074 57007 72322 886//;
0220122100999992000012818004+53770+015420FM-12+005699999V0202101N004010042019N0100001N1+00111-00121100741ADDAA112003091AY171061AY261061GF108991081051004501999999KA1120M+00301KA2999N+00071MA1999999100041MD1610061+9999MW1031REMSYN094AAXX  28181 12210 11497 82104 10011 21012 30004 40074 56006 60032 70376 885// 333 10030 20007;
0257122100999992000012906004+53770+015420FM-12+005699999V0201801N001010021019N0040001N1+00101+00021099821ADDAA112003091AJ100019199999999GF108991061071002501021999IA1279IA2999+00009KA1120M+00121KA2120N+00011MA1999999099131MD1710311+9999MW1681REMSYN112AAXX  29061 12210 11396 81801 10010 20002 39913 49982 57031 60032 768// 8672/ 333 10012 20001 3/000 43001 70056;
0177122100999992000012907004+53770+015420FM-12+005699999V0201801N004010021019N0040001N1+00141+00071099661ADDAY171999AY271999GF108991061071002501021999MA1999999098971MD1710351+9999MW1681REMSYN088AAXX  29071 12210 41396 81804 10014 20007 39897 49966 57035 76877 8672/ 555 57004 80151;
0161122100999992000012908004+53770+015420FM-12+005699999V0201801N004010021019N0040001N1+00181+00111099511ADDAY171999AY271999GF108991061071002501021999MA1999999098821MD1710391+9999MW1681REMSYN072AAXX  29081 12210 41396 81804 10018 20011 39882 49951 57039 76877 8672/;
0161122100999992000012909004+53770+015420FM-12+005699999V0201801N004010021019N0040001N1+00221+00111099321ADDAY171031AY271031GF108991061071002501021999MA1999999098641MD1710491+9999MW1681REMSYN072AAXX  29091 12210 41340 81804 10022 20011 39864 49932 57049 76877 8672/;
0177122100999992000012910004+53770+015420FM-12+005699999V0201801N005010021019N0040001N1+00241+00111099121ADDAY171999AY271999GF108991061071002501021999MA1999999098441MD1710531+9999MW1611REMSYN088AAXX  29101 12210 41396 81805 10024 20011 39844 49912 57053 76177 8672/ 333 91012 91112;
0177122100999992000012911004+53770+015420FM-12+005699999V0201901N005010021019N0040001N1+00301+00171098901ADDAY161999AY261999GF108991061071002501021999MA1999999098221MD1710601+9999MW1611REMSYN088AAXX  29111 12210 41396 81905 10030 20017 39822 49890 57060 76166 8672/ 333 91012 91114;
0194122100999992000012912004+53770+015420FM-12+005699999V0201801N005010021019N0040001N1+00271+00171098711ADDAA106005191AY171061AY271061GF108991061071002501021999MA1999999098031MD1710611+9999MW1631REMSYN094AAXX  29121 12210 11396 81805 10027 20017 39803 49871 57061 60051 76377 8672/ 333 91013 91114;
0187122100999992000012913004+53770+015420FM-12+005699999V0201801N005010021019N0040001N1+00261+00131098561ADDAY161999AY261999GF108991061071002501021999MA1999999097881MD1710561+9999MW1631REMSYN098AAXX  29131 12210 41396 81805 10026 20013 39788 49856 57056 76366 8672/ 333 91012 91112 555 57005;
0177122100999992000012914004+53770+015420FM-12+005699999V0202001N005010021019N0040001N1+00241+00131098471ADDAY161999AY261999GF108991061071002501021999MA1999999097791MD1710431+9999MW1611REMSYN088AAXX  29141 12210 41396 82005 10024 20013 39779 49847 57043 76166 8672/ 333 91012 91112;
0171122100999992000012915004+53770+015420FM-12+005699999V0201901N004010021019N0040001N1+00361+00271098401ADDAY161031AY261031GF108991061071002501021999MA1999999097721MD1610311+9999MW1611REMSYN082AAXX  29151 12210 41396 81904 10036 20027 39772 49840 56031 76166 8672/ 333 91112;
0161122100999992000012916004+53770+015420FM-12+005699999V0202101N005010042019N0100001N1+00501+00381098341ADDAY121999AY221999GF108991081051004501999999MA1999999097671MD1710211+9999MW1211REMSYN072AAXX  29161 12210 41497 82105 10050 20038 39767 49834 57021 72122 885//;
0149122100999992000012917004+53770+015420FM-12+005699999V0202201N005010042019N0100001N1+00601+00461098341ADDGF108991081051004501999999MA1999999097671MD1610121+9999REMSYN082AAXX  29171 12210 42497 82205 10060 20046 39767 49834 56012 885// 333 91011 91111;
0226122100999992000012918004+53770+015420FM-12+005699999V0202101N004010042019N0100001N1+00621+00511098311ADDAA112010991AY161061AY221061GF108991081051004501999999KA1120M+00621KA2120N+00091MA1999999097641MD1710081+9999MW1021REMSYN100AAXX  29181 12210 11497 82104 10062 20051 39764 49831 57008 60112 70262 885// 333 10062 20009 91112;
0234122100999992000013006004+53770+015420FM-12+005699999V0202601N008010042019N0100001N1+00541+00041098581ADDAA112000591GF107991071051004501999999IA1099IA2999+00309KA1120M+00651KA2120N+00371MA1999999097911MD1210181+9999REMSYN112AAXX  30061 12210 12497 72608 10054 20004 39791 49858 52018 69942 875// 333 10065 20037 31003 70116 91017 91117;
0159122100999992000013007004+53770+015420FM-12+005699999V0202601N008010042019N0200001N1+00521-00221098731ADDGF107991071051004501999999MA1999999098061MD1210271+9999REMSYN092AAXX  30071 12210 42498 72608 10052 21022 39806 49873 52027 875// 333 91017 91117 555 57026;
0149122100999992000013008004+53770+015420FM-12+005699999V0202501N007010042019N0200001N1+00391-00071098901ADDGF107991071051004501999999MA1999999098221MD1210391+9999REMSYN082AAXX  30081 12210 42498 72507 10039 21007 39822 49890 52039 875// 333 91016 91119;
0149122100999992000013009004+53770+015420FM-12+005699999V0202501N009010075019N0200001N1+00501-00121099031ADDGF106991061021008001001001MA1999999098351MD1210441+9999REMSYN082AAXX  30091 12210 42598 62509 10050 21012 39835 49903 52044 86200 333 91020 91121;
0149122100999992000013010004+53770+015420FM-12+005699999V0202701N009010075019N0200001N1+00551-00351099231ADDGF106991061021008001001001MA1999999098551MD1210491+9999REMSYN082AAXX  30101 12210 42598 62709 10055 21035 39855 49923 52049 86200 333 91018 91118;
0179122100999992000013012004+53770+015420FM-12+005699999V0202701N011010090019N0200001N1+00481-00331099601ADDAA199000091GF107991071081004501999999MA1999999098921MD1210571+9999REMSYN082AAXX  30121 12210 32498 72711 10048 21033 39892 49960 52057 878// 333 91023 91123;EQDQ01  00002PRCP99
0159122100999992000013013004+53770+015420FM-12+005699999V0202701N010010075019N0200001N1+00481-00221099811ADDGF106991061021008001001001MA1999999099131MD1210581+9999REMSYN092AAXX  30131 12210 42598 62710 10048 21022 39913 49981 52058 86200 333 91019 91121 555 57038;
0168122100999992000013014004+53770+015420FM-12+005699999V0202701N011010075019N0200001N1+00441-00241100041ADDGF106991061021008001001001MA1999999099361MD1210612+9999REMSYN082AAXX  30141 12210 42598 62711 10044 21024 39936 40004 52061 86200 333 91019 91120;EQDQ01+000612APC3  
0149122100999992000013015004+53770+015420FM-12+005699999V0202701N009012200019N0200001N1+00381-00271100221ADDGF104991041021008001001001MA1999999099531MD1210611+9999REMSYN082AAXX  30151 12210 42598 42709 10038 21027 39953 40022 52061 84200 333 91017 91121;
0149122100999992000013016004+53770+015420FM-12+005699999V0202601N007012200019N0200001N1+00341-00271100401ADDGF102991021041008001001001MA1999999099711MD1210581+9999REMSYN082AAXX  30161 12210 42598 22607 10034 21027 39971 40040 52058 82400 333 91015 91117;
0149122100999992000013017004+53770+015420FM-12+005699999V0202701N006012200019N0200001N1+00311-00301100551ADDGF101991011041008001001001MA1999999099861MD1210501+9999REMSYN082AAXX  30171 12210 42598 12706 10031 21030 39986 40055 52050 81400 333 91014 91115;
0227122100999992000013018004+53770+015420FM-12+005699999V0202701N005012200019N0200001N1+00271-00241100661ADDAA199000091GA1001+999999999GF100991001001999999001001KA1120M+00561KA2120N+00231MA1999999099971MD1210441+9999REMSYN088AAXX  30181 12210 32998 02705 10027 21024 39997 40066 52044 333 10056 20023 91011 91121;EQDQ01  00002PRCP99
0252122100999992000013106004+53770+015420FM-12+005699999V0202101N005010021019N0040001N1+00661+00591099431ADDAA112007991GF108991061071002501021999IA1119IA2999-00109KA1120M+00661KA2120N-00031MA1999999098761MD1710391+9999MW1631REMSYN124AAXX  31061 12210 11396 82105 10066 20059 39876 49943 57039 60082 763// 8672/ 333 10066 21003 32101 55025 70075 91011 91111;
0187122100999992000013107004+53770+015420FM-12+005699999V0202301N007010021019N0040001N1+00781+00651099451ADDAY161999AY261999GF108991061071002501021999MA1999999098781MD1510141+9999MW1611REMSYN098AAXX  31071 12210 41396 82307 10078 20065 39878 49945 55014 76166 8672/ 333 91017 91118 555 57004;
0177122100999992000013108004+53770+015420FM-12+005699999V0202401N008010042019N0100001N1+00771+00581099531ADDAY161999AY221999GF107991071091004501999999MA1999999098861MD1210071+9999MW1801REMSYN088AAXX  31081 12210 41497 72408 10077 20058 39886 49953 52007 78062 879// 333 91015 91118;
0177122100999992000013109004+53770+015420FM-12+005699999V0202601N008010075019N0200001N1+00821+00321099601ADDAY161031AY221031GF106991061021008001001001MA1999999098931MD1210171+9999MW1251REMSYN088AAXX  31091 12210 41598 62608 10082 20032 39893 49960 52017 72562 86200 333 91020 91120;
0149122100999992000013110004+53770+015420FM-12+005699999V0202501N009010075019N0200001N1+00841+00251099771ADDGF106991061031008001001001MA1999999099101MD1210321+9999REMSYN082AAXX  31101 12210 42598 62509 10084 20025 39910 49977 52032 86300 333 91018 91120;
0149122100999992000013111004+53770+015420FM-12+005699999V0202701N008010120019N0200001N1+00801+00171099951ADDGF107991071081008001999999MA1999999099271MD1210411+9999REMSYN082AAXX  31111 12210 42598 72708 10080 20017 39927 49995 52041 878// 333 91020 91122;
0194122100999992000013112004+53770+015420FM-12+005699999V0202701N011010075019N0200001N1+00751+00191100111ADDAA106003091AY181061AY261061GF106991061021008001001001MA1999999099431MD1310501+9999MW1011REMSYN094AAXX  31121 12210 11598 62711 10075 20019 39943 40011 53050 60031 70186 86200 333 91022 91123;
0159122100999992000013113004+53770+015420FM-12+005699999V0202701N010010300019N0200001N1+00761+00131100301ADDGF107991041021008001031001MA1999999099621MD1210521+9999REMSYN092AAXX  31131 12210 42598 72710 10076 20013 39962 40030 52052 84230 333 91020 91122 555 57033;
0149122100999992000013114004+53770+015420FM-12+005699999V0202701N010010075019N0200001N1+00751+00131100581ADDGF107991051021008001031999MA1999999099901MD1210631+9999REMSYN082AAXX  31141 12210 42598 72710 10075 20013 39990 40058 52063 8523/ 333 91019 91121;
0155122100999992000013115004+53770+015420FM-12+005699999V0202701N009010075019N0100001N1+00731+00131100931ADDGF107991071051008001999999MA1999999100251MD1210821+9999REMSYN088AAXX  31151 12210 42597 72709 10073 20013 30025 40093 52082 875// 333 91016 91122 91520;
0149122100999992000013116004+53770+015420FM-12+005699999V0202701N006010075019N0100001N1+00601+00151101061ADDGF107991071051008001999999MA1999999100371MD1210751+9999REMSYN082AAXX  31161 12210 42597 72706 10060 20015 30037 40106 52075 875// 333 91014 91115;
0149122100999992000013117004+53770+015420FM-12+005699999V0202801N005010075019N0100001N1+00381+00091101281ADDGF108991081051008001999999MA1999999100591MD1210691+9999REMSYN082AAXX  31171 12210 42597 82805 10038 20009 30059 40128 52069 885// 333 91013 91113;
0198122100999992000013118004+53770+015420FM-12+005699999V0202901N002010075019N0100001N1+00321+00091101431ADDAA112003091GF105991051051008001001001KA1120M+00851KA2120N+00281MA1999999100731MD1210481+9999REMSYN094AAXX  31181 12210 12597 52902 10032 20009 30073 40143 52048 60032 85500 333 10085 20028 91122;
0171122100999992000020107004+53770+015420FM-12+005699999V0202101N001010021019N0040001N1+00441+00401101421ADDAY161999AY261999GF108991061071002501021999MA1999999100731MD1710131+9999MW1611REMSYN082AAXX  01071 12210 41396 82101 10044 20040 30073 40142 57013 76166 8672/ 555 57004;
0161122100999992000020108004+53770+015420FM-12+005699999V0201801N001010021019N0040001N1+00491+00451101381ADDAY161999AY261999GF108991061071002501021999MA1999999100691MD1710131+9999MW1611REMSYN072AAXX  01081 12210 41396 81801 10049 20045 30069 40138 57013 76166 8672/;
0161122100999992000020109004+53770+015420FM-12+005699999V0202201N002010021019N0040001N1+00621+00581101351ADDAY161031AY261031GF108991061071002501021999MA1999999100661MD1710091+9999MW1611REMSYN072AAXX  01091 12210 41396 82202 10062 20058 30066 40135 57009 76166 8672/;
0161122100999992000020110004+53770+015420FM-12+005699999V0202101N003010042019N0100001N1+00751+00711101351ADDAY121999AY221999GF108991081051004501999999MA1999999100661MD1610071+9999MW1211REMSYN072AAXX  01101 12210 41497 82103 10075 20071 30066 40135 56007 72122 885//;
0133122100999992000020111004+53770+015420FM-12+005699999V0202201N003010042019N0100001N1+00761+00701101321ADDGF108991081051004501999999MA1999999100631MD1710061+9999REMSYN066AAXX  01111 12210 42497 82203 10076 20070 30063 40132 57006 885//;
0178122100999992000020112004+53770+015420FM-12+005699999V0202301N003010042019N0100001N1+00761+00671101271ADDAA106002091AY161061AY221061GF108991081051004501999999MA1999999100591MD1710071+9999MW1021REMSYN078AAXX  01121 12210 11497 82303 10076 20067 30059 40127 57007 60021 70262 885//;
0171122100999992000020113004+53770+015420FM-12+005699999V0202101N003010042019N0040001N1+00721+00681101241ADDAY121999AY221999GF108991061071004501021999MA1999999100551MD1710111+9999MW1611REMSYN082AAXX  01131 12210 41496 82103 10072 20068 30055 40124 57011 76122 8672/ 555 57006;
0161122100999992000020114004+53770+015420FM-12+005699999V0202001N003010042019N0100001N1+00721+00651101181ADDAY121999AY221999GF108991081051004501999999MA1999999100491MD1710141+9999MW1211REMSYN072AAXX  01141 12210 41497 82003 10072 20065 30049 40118 57014 72122 885//;
0161122100999992000020115004+53770+015420FM-12+005699999V0202001N003010042019N0100001N1+00741+00621101141ADDAY161031AY221031GF108991081051004501999999MA1999999100461MD1710131+9999MW1021REMSYN072AAXX  01151 12210 41497 82003 10074 20062 30046 40114 57013 70262 885//;
0133122100999992000020116004+53770+015420FM-12+005699999V0202301N003010042019N0100001N1+00731+00641101111ADDGF108991061051004501071999MA1999999100431MD1710121+9999REMSYN066AAXX  01161 12210 42497 82303 10073 20064 30043 40111 57012 8657/;
0161122100999992000020117004+53770+015420FM-12+005699999V0202101N003010075019N0040001N1+00731+00641101091ADDAY121999AY221999GF108991081091008001999999MA1999999100411MD1710081+9999MW1801REMSYN072AAXX  01171 12210 41596 82103 10073 20064 30041 40109 57008 78022 889//;
0220122100999992000020118004+53770+015420FM-12+005699999V0202201N003010075019N0040001N1+00721+00651101071ADDAA112003091AY161061AY221061GF108991081091008001999999KA1120M+00771KA2999N+00401MA1999999100391MD1710071+9999MW1801REMSYN094AAXX  01181 12210 11596 82203 10072 20065 30039 40107 57007 60032 78062 889// 333 10077 20040;
0234122100999992000020206004+53770+015420FM-12+005699999V0202301N003010021019N0040001N1+00661+00591100611ADDAA112002091GF108991081061002501999999IA1099IA2999+00609KA1120M+00771KA2120N+00611MA1999999099931MD1710031+9999MW1101REMSYN106AAXX  02061 12210 11396 82303 10066 20059 39993 40061 57003 60022 710// 886// 333 10077 20061 31006 70044;
0171122100999992000020207004+53770+015420FM-12+005699999V0202301N003010042019N0040001N1+00671+00611100611ADDAY121011AY221011GF108991081051004501999999MA1999999099931MD1610021+9999MW1101REMSYN082AAXX  02071 12210 41496 82303 10067 20061 39993 40061 56002 71022 885// 555 57004;
0133122100999992000020208004+53770+015420FM-12+005699999V0202401N003010042019N0100001N1+00691+00621100631ADDGF108991081051004501999999MA1999999099951MD1210011+9999REMSYN066AAXX  02081 12210 42497 82403 10069 20062 39995 40063 52001 885//;
0133122100999992000020209004+53770+015420FM-12+005699999V0202401N003010042019N0100001N1+00711+00591100631ADDGF108991081051004501999999MA1999999099951MD1110021+9999REMSYN066AAXX  02091 12210 42497 82403 10071 20059 39995 40063 51002 885//;
0133122100999992000020210004+53770+015420FM-12+005699999V0202301N003010042019N0100001N1+00731+00591100631ADDGF108991081051004501999999MA1999999099951MD1110021+9999REMSYN066AAXX  02101 12210 42497 82303 10073 20059 39995 40063 51002 885//;
0133122100999992000020211004+53770+015420FM-12+005699999V0202401N004010042019N0100001N1+00771+00531100631ADDGF108991081051004501999999MA1999999099951MD1410001+9999REMSYN066AAXX  02111 12210 42497 82404 10077 20053 39995 40063 54000 885//;
