0071134624999992000010100004+42430+019280FM-15+0053LYPG V0203401N00671220001CN0099001N1+00401-00501999999ADDMA1101901999999MW1001REMMET038LYPG 0000Z 34013KT CAVOK 04/M05 Q1019;
0071134624999992000010101004+42430+019280FM-15+0053LYPG V0203401N00571220001CN0099001N1+00401-00601999999ADDMA1102001999999MW1001REMMET038LYPG 0100Z 34011KT CAVOK 04/M06 Q1020;
0071134624999992000010102004+42430+019280FM-15+0053LYPG V0203301N00511220001CN0099001N1+00401-00501999999ADDMA1102101999999MW1001REMMET038LYPG 0200Z 33010KT CAVOK 04/M05 Q1021;
0071134624999992000010103004+42430+019280FM-15+0053LYPG V0203401N00461220001CN0099001N1+00401-00601999999ADDMA1102101999999MW1001REMMET038LYPG 0300Z 34009KT CAVOK 04/M06 Q1021;
0057134624999992000010104004+42430+019280FM-15+0053LYPG V0203401N00621220001CN0099001N1+00401+99999999999ADDMW1001REMMET039LYPG 0400Z 34012KT CAVOK 04/M(06 Q1021;
0071134624999992000010105004+42430+019280FM-15+0053LYPG V0203401N00511220001CN0099001N1+00301-00601999999ADDMA1102201999999MW1001REMMET038LYPG 0500Z 34010KT CAVOK 03/M06 Q1022;
0077134624999992000010106004+42430+019280FM-15+0053LYPG V0203501N00511220001CN0099001N1+00401-00601999999ADDMA1102301999999MW1001REMMET044LYPG 0600Z 35010KT CAVOK 04/M06 Q1023 NOSIG;
0077134624999992000010107004+42430+019280FM-15+0053LYPG V0203401N00511220001CN0099001N1+00301-00701999999ADDMA1102301999999MW1001REMMET044LYPG 0700Z 34010KT CAVOK 03/M07 Q1023 NOSIG;
0077134624999992000010108004+42430+019280FM-15+0053LYPG V0203401N00621220001CN0099001N1+00501-00601999999ADDMA1102301999999MW1001REMMET044LYPG 0800Z 34012KT CAVOK 05/M06 Q1023 NOSIG;
0077134624999992000010109004+42430+019280FM-15+0053LYPG V0203401N00511220001CN0099001N1+00601-00701999999ADDMA1102401999999MW1001REMMET044LYPG 0900Z 34010KT CAVOK 06/M07 Q1024 NOSIG;
0077134624999992000010110004+42430+019280FM-15+0053LYPG V0203401N00511220001CN0099001N1+00701-00701999999ADDMA1102401999999MW1001REMMET044LYPG 1000Z 34010KT CAVOK 07/M07 Q1024 NOSIG;
0077134624999992000010111004+42430+019280FM-15+0053LYPG V0203601N00511220001CN0099001N1+00701-00701999999ADDMA1102401999999MW1001REMMET044LYPG 1100Z 36010KT CAVOK 07/M07 Q1024 NOSIG;
0077134624999992000010112004+42430+019280FM-15+0053LYPG V0203601N00621220001CN0099001N1+00701-00701999999ADDMA1102301999999MW1001REMMET044LYPG 1200Z 36012KT CAVOK 07/M07 Q1023 NOSIG;
0077134624999992000010113004+42430+019280FM-15+0053LYPG V0203601N00411220001CN0099001N1+00801-00701999999ADDMA1102301999999MW1001REMMET044LYPG 1300Z 36008KT CAVOK 08/M07 Q1023 NOSIG;
0077134624999992000010114004+42430+019280FM-15+0053LYPG V0203501N00721220001CN0099001N1+00701-00701999999ADDMA1102301999999MW1001REMMET044LYPG 1400Z 35014KT CAVOK 07/M07 Q1023 NOSIG;
0077134624999992000010115004+42430+019280FM-15+0053LYPG V0203501N00411220001CN0099001N1+00601-00701999999ADDMA1102401999999MW1001REMMET044LYPG 1500Z 35008KT CAVOK 06/M07 Q1024 NOSIG;
0077134624999992000010115304+42430+019280FM-15+0053LYPG V0203601N00411220001CN0099001N1+00301-00601999999ADDMA1102401999999MW1001REMMET044LYPG 1630Z 36008KT CAVOK 03/M06 Q1024 NOSIG;
0077134624999992000010117004+42430+019280FM-15+0053LYPG V0203501N00411220001CN0099001N1+00301-00601999999ADDMA1102401999999MW1001REMMET044LYPG 1700Z 35008KT CAVOK 03/M06 Q1024 NOSIG;
0077134624999992000010118004+42430+019280FM-15+0053LYPG V0203501N00311220001CN0099001N1+00301-00601999999ADDMA1102511999999MW1001REMMET044LYPG 1800Z 35006KT CAVOK 03/M06 Q1025 NOSIG;
0071134624999992000010119004+42430+019280FM-15+0053LYPG V0203401N00511220001CN0099001N1+00301-00601999999ADDMA1102511999999MW1001REMMET038LYPG 1900Z 34010KT CAVOK 03/M06 Q1025;
0071134624999992000010120004+42430+019280FM-15+0053LYPG V0203401N00511220001CN0099001N1+00301-00601999999ADDMA1102511999999MW1001REMMET038LYPG 2000Z 34010KT CAVOK 03/M06 Q1025;
0071134624999992000010120304+42430+019280FM-15+0053LYPG V0203301N00511220001CN0099001N1+00301-00601999999ADDMA1102511999999MW1001REMMET038LYPG 2130Z 33010KT CAVOK 03/M06 Q1025;
0071134624999992000010122004+42430+019280FM-15+0053LYPG V0203401N00511220001CN0099001N1+00201-00701999999ADDMA1102511999999MW1001REMMET038LYPG 2200Z 34010KT CAVOK 02/M07 Q1025;
0071134624999992000010123004+42430+019280FM-15+0053LYPG V0203401N00411220001CN0099001N1+00201-00701999999ADDMA1102511999999MW1001REMMET038LYPG 2300Z 34008KT CAVOK 02/M07 Q1025;
0090134624999992000010200004+42430+019280FM-15+0053LYPG V0203401N00411220001CN0099001N1+00201-00801999999ADDMA1102511999999MW1001REMMET038LYPG 0000Z 34008KT CAVOK 02/M08 Q1025;EQDQ01+000000PRSWM2
0090134624999992000010201004+42430+019280FM-15+0053LYPG V0203401N00511220001CN0099001N1+00101-00701999999ADDMA1102511999999MW1001REMMET038LYPG 0100Z 34010KT CAVOK 01/M07 Q1025;EQDQ01+000000PRSWM2
0090134624999992000010202004+42430+019280FM-15+0053LYPG V0203201N00411220001CN0099001N1+00101-00501999999ADDMA1102511999999MW1001REMMET038LYPG 0200Z 32008KT CAVOK 01/M05 Q1025;EQDQ01+000000PRSWM2
0090134624999992000010203004+42430+019280FM-15+0053LYPG V0203201N00411220001CN0099001N1+00101-00501999999ADDMA1102511999999MW1001REMMET038LYPG 0300Z 32008KT CAVOK 01/M05 Q1025;EQDQ01+000000PRSWM2
0091134624999992000010204004+42430+019280FM-15+0053LYPG V0202801N00311220001CN0099001N1-00101-00501999999ADDMA1102511999999MW1001REMMET039LYPG 0400Z 28006KT CAVOK M01/M05 Q1025;EQDQ01+000000PRSWM2
0091134624999992000010205004+42430+019280FM-15+0053LYPG V0203301N00211220001CN0099001N1-00101-00701999999ADDMA1102511999999MW1001REMMET039LYPG 0500Z 33004KT CAVOK M01/M07 Q1025;EQDQ01+000000PRSWM2
0145134624999992000010206004+42430+019280FM-15+0053LYPG V0203201N003112200019N0112651N1-00101-00801999999ADDGA1021+009909999GF102991999999999999999999MA1102611999999MW1001REMMET051LYPG 0700Z 32006KT 9999 FEW033 M01/M08 Q1026 NOSIG;EQDQ01+000000PRSWM2
0145134624999992000010207004+42430+019280FM-15+0053LYPG V0203201N003112200019N0112651N1-00101-00801999999ADDGA1021+009909999GF102991999999999999999999MA1102611999999MW1001REMMET051LYPG 0700Z 32006KT 9999 FEW033 M01/M08 Q1026 NOSIG;EQDQ01+000000PRSWM2
0096134624999992000010208004+42430+019280FM-15+0053LYPG V0200101N00411220001CN0099001N1+00201-00701999999ADDMA1102611999999MW1001REMMET044LYPG 0800Z 01008KT CAVOK 02/M07 Q1026 NOSIG;EQDQ01+000000PRSWM2
0096134624999992000010209004+42430+019280FM-15+0053LYPG V0203401N00411220001CN0099001N1+00401-00801999999ADDMA1102711999999MW1001REMMET044LYPG 0900Z 34008KT CAVOK 04/M08 Q1027 NOSIG;EQDQ01+000000PRSWM2
0096134624999992000010210004+42430+019280FM-15+0053LYPG V0203501N00721220001CN0099001N1+00501-00901999999ADDMA1102711999999MW1001REMMET044LYPG 1000Z 35014KT CAVOK 05/M09 Q1027 NOSIG;EQDQ01+000000PRSWM2
0096134624999992000010211004+42430+019280FM-15+0053LYPG V0203501N00821220001CN0099001N1+00501-00901999999ADDMA1102711999999MW1001REMMET044LYPG 1100Z 35016KT CAVOK 05/M09 Q1027 NOSIG;EQDQ01+000000PRSWM2
0096134624999992000010212004+42430+019280FM-15+0053LYPG V0203501N00821220001CN0099001N1+00501-00901999999ADDMA1102611999999MW1001REMMET044LYPG 1200Z 35016KT CAVOK 05/M09 Q1026 NOSIG;EQDQ01+000000PRSWM2
0096134624999992000010213004+42430+019280FM-15+0053LYPG V0203601N00721220001CN0099001N1+00501-00901999999ADDMA1102611999999MW1001REMMET044LYPG 1300Z 36014KT CAVOK 05/M09 Q1026 NOSIG;EQDQ01+000000PRSWM2
0096134624999992000010214004+42430+019280FM-15+0053LYPG V0203601N00721220001CN0099001N1+00401-01101999999ADDMA1102611999999MW1001REMMET044LYPG 1400Z 36014KT CAVOK 04/M11 Q1026 NOSIG;EQDQ01+000000PRSWM2
0075134624999992000010218304+42430+019280FM-15+0053LYPG V02099999999992200019N0112651N1+99999+99999999999ADDMW1001REMMET038LYPG 1930Z 34010LT CAVOK 02/M09 Q1028;EQDQ01+000000PRSWM2
0090134624999992000010220004+42430+019280FM-15+0053LYPG V0203501N00511220001CN0099001N1+00201-01101999999ADDMA1102811999999MW1001REMMET038LYPG 2000Z 35010KT CAVOK 02/M11 Q1028;EQDQ01+000000PRSWM2
0090134624999992000010221004+42430+019280FM-15+0053LYPG V0200101N00311220001CN0099001N1+00201-00901999999ADDMA1102811999999MW1001REMMET038LYPG 2100Z 01006KT CAVOK 02/M09 Q1028;EQDQ01+000000PRSWM2
0100134624999992000010222004+42430+019280FM-15+0053LYPG V0203601N00311220001CN0099001N1+00201-00901999999ADDMA1102811999999MW1001REMMET048LYPG 2200Z 36006KT CAVOK 02/M09 Q1028 EEE Q1029;EQDQ01+000000PRSWM2
0090134624999992000010223004+42430+019280FM-15+0053LYPG V0200101N00311220001CN0099001N1+00101-00901999999ADDMA1102911999999MW1001REMMET038LYPG 2300Z 01006KR CAVOK 01/M09 Q1029;EQDQ01+000000PRSWM2
0090134624999992000010300004+42430+019280FM-15+0053LYPG V0200101N00211220001CN0099001N1+00101-01001999999ADDMA1102911999999MW1001REMMET038LYPG 0000Z 01004KT CAVOK 01/M10 Q1029;EQDQ01+000000PRSWM2
0091134624999992000010301004+42430+019280FM-15+0053LYPG V0203301N00311220001CN0099001N1+00001-00901999999ADDMA1102911999999MW1001REMMET039LYPG 0100Z 33006KT CAVOK 00/M09 Q1029 ;EQDQ01+000000PRSWM2
0090134624999992000010302004+42430+019280FM-15+0053LYPG V0200101N00211220001CN0099001N1+00001-01001999999ADDMA1102911999999MW1001REMMET038LYPG 0200Z 01004KT CAVOK 00/M10 Q1029;EQDQ01+000000PRSWM2
0090134624999992000010303004+42430+019280FM-15+0053LYPG V0200101N00311220001CN0099001N1+00101-01001999999ADDMA1102911999999MW1001REMMET038LYPG 0300Z 01006KT CAVOK 01/M10 Q1029;EQDQ01+000000PRSWM2
0090134624999992000010304004+42430+019280FM-15+0053LYPG V0203601N00621220001CN0099001N1+00101-01101999999ADDMA1102911999999MW1001REMMET038LYPG 0400Z 36012KT CAVOK 01/M11 Q1029;EQDQ01+000000PRSWM2
0090134624999992000010305004+42430+019280FM-15+0053LYPG V0203401N00721220001CN0099001N1+00201-00901999999ADDMA1102911999999MW1001REMMET038LYPG 0500Z 34014KT CAVOK 02/M09 Q1029;EQDQ01+000000PRSWM2
0090134624999992000010306004+42430+019280FM-15+0053LYPG V0203601N00311220001CN0099001N1+00201-01001999999ADDMA1102911999999MW1001REMMET038LYPG 0600Z 36006KT CAVOK 02/M10 Q1029;EQDQ01+000000PRSWM2
0096134624999992000010307004+42430+019280FM-15+0053LYPG V0200201N00101220001CN0099001N1+00201-00901999999ADDMA1102911999999MW1001REMMET044LYPG 0700Z 02002KT CAVOK 02/M09 Q1029 NOSIG;EQDQ01+000000PRSWM2
0096134624999992000010308004+42430+019280FM-15+0053LYPG V0203601N00311220001CN0099001N1+00401-00901999999ADDMA1102911999999MW1001REMMET044LYPG 0800Z 36006KT CAVOK 04/M09 Q1029 NOSIG;EQDQ01+000000PRSWM2
0096134624999992000010309004+42430+019280FM-15+0053LYPG V0203301N00211220001CN0099001N1+00501-00901999999ADDMA1103011999999MW1001REMMET044LYPG 0900Z 33004KT CAVOK 05/M09 Q1030 NOSIG;EQDQ01+000000PRSWM2
0096134624999992000010310004+42430+019280FM-15+0053LYPG V0201101N00311220001CN0099001N1+00601-00601999999ADDMA1103011999999MW1001REMMET044LYPG 1000Z 11006KT CAVOK 06/M06 Q1030 NOSIG;EQDQ01+000000PRSWM2
0096134624999992000010311004+42430+019280FM-15+0053LYPG V0201101N00311220001CN0099001N1+00601-00601999999ADDMA1102911999999MW1001REMMET044LYPG 1100Z 11006KT CAVOK 06/M06 Q1029 NOSIG;EQDQ01+000000PRSWM2
0096134624999992000010312004+42430+019280FM-15+0053LYPG V0201101N00211220001CN0099001N1+00601-00601999999ADDMA1102911999999MW1001REMMET044LYPG 1200Z 11004KT CAVOK 06/M06 Q1029 NOSIG;EQDQ01+000000PRSWM2
0096134624999992000010313004+42430+019280FM-15+0053LYPG V0201501N00211220001CN0099001N1+00601-00601999999ADDMA1102811999999MW1001REMMET044LYPG 1300Z 15004KT CAVOK 06/M06 Q1028 NOSIG;EQDQ01+000000PRSWM2
0091134624999992000010314004+42430+019280FM-15+0053LYPG V0201401N00211220001CN0099001N1+00601-00701999999ADDMA1102711999999MW1001REMMET039LYPG 1400Z 14004KT CAVOK 06/M07 Q1027 ;EQDQ01+000000PRSWM2
0138134624999992000010315004+42430+019280FM-15+0053LYPG V0201101N001012200019N0112651N1+00501-00601999999ADDGA1021+030009999GF102991999999999999999999MA1102711999999MW1001REMMET044LYPG 1500Z 11002KT 9999 FEW100 05/M06 Q1027;EQDQ01+000000PRSWM2
0138134624999992000010316004+42430+019280FM-15+0053LYPG V0209999C000012200019N0112651N1+00201-00601999999ADDGA1021+030009999GF102991999999999999999999MA1102811999999MW1001REMMET044LYPG 1600Z 00000KT 9999 FEW100 02/M06 Q1028;EQDQ01+000000PRSWM2
0090134624999992000010317004+42430+019280FM-15+0053LYPG V0200801N00101220001CN0099001N1+00101-00601999999ADDMA1102811999999MW1001REMMET038LYPG 1700Z 08002KT CAVOK 01/M06 Q1028;EQDQ01+000000PRSWM2
0091134624999992000010318004+42430+019280FM-15+0053LYPG V0203301N00211220001CN0099001N1-00101-00601999999ADDMA1102811999999MW1001REMMET039LYPG 1800Z 33004KT CAVOK M01/M06 Q1028;EQDQ01+000000PRSWM2
0091134624999992000010319004+42430+019280FM-15+0053LYPG V0200201N00101220001CN0099001N1-00201-00601999999ADDMA1102711999999MW1001REMMET039LYPG 1900Z 02002KT CAVOK M02/M06 Q1027;EQDQ01+000000PRSWM2
0091134624999992000010320004+42430+019280FM-15+0053LYPG V0203201N00101220001CN0099001N1-00201-00501999999ADDMA1102711999999MW1001REMMET039LYPG 2000Z 32002KT CAVOK M02/M05 Q1027;EQDQ01+000000PRSWM2
0091134624999992000010321004+42430+019280FM-15+0053LYPG V0203401N00211220001CN0099001N1-00201-00601999999ADDMA1102711999999MW1001REMMET039LYPG 2100Z 34004KT CAVOK M02/M06 Q1027;EQDQ01+000000PRSWM2
0091134624999992000010322004+42430+019280FM-15+0053LYPG V0203401N00211220001CN0099001N1-00201-00601999999ADDMA1102711999999MW1001REMMET039LYPG 2200Z 34004KT CAVOK M02/M06 Q1027;EQDQ01+000000PRSWM2
0091134624999992000010323004+42430+019280FM-15+0053LYPG V0203201N00211220001CN0099001N1-00301-00601999999ADDMA1102611999999MW1001REMMET039LYPG 2300Z 32004KT CAVOK M03/M06 Q1026;EQDQ01+000000PRSWM2
0091134624999992000010400004+42430+019280FM-15+0053LYPG V0203401N00211220001CN0099001N1-00301-00601999999ADDMA1102611999999MW1001REMMET039LYPG 0000Z 34004KT CAVOK M03/M06 Q1026;EQDQ01+000000PRSWM2
0091134624999992000010401004+42430+019280FM-15+0053LYPG V0203201N00101220001CN0099001N1-00301-00601999999ADDMA1102511999999MW1001REMMET039LYPG 0100Z 32002KT CAVOK M03/M06 Q1025;EQDQ01+000000PRSWM2
0091134624999992000010402004+42430+019280FM-15+0053LYPG V0203201N00101220001CN0099001N1-00301-00601999999ADDMA1102511999999MW1001REMMET039LYPG 0200Z 32002KT CAVOK M03/M06 Q1025;EQDQ01+000000PRSWM2
0091134624999992000010403004+42430+019280FM-15+0053LYPG V0203401N00101220001CN0099001N1-00401-00601999999ADDMA1102511999999MW1001REMMET039LYPG 0300Z 34002KT CAVOK M04/M06 Q1025;EQDQ01+000000PRSWM2
0091134624999992000010404004+42430+019280FM-15+0053LYPG V0203401N00211220001CN0099001N1-00401-00601999999ADDMA1102511999999MW1001REMMET039LYPG 0400Z 34004KT CAVOK M04/M06 Q1025;EQDQ01+000000PRSWM2
0091134624999992000010405004+42430+019280FM-15+0053LYPG V0203201N00211220001CN0099001N1-00401-00601999999ADDMA1102511999999MW1001REMMET039LYPG 0500Z 32004KT CAVOK M04/M06 Q1025;EQDQ01+000000PRSWM2
0097134624999992000010406004+42430+019280FM-15+0053LYPG V0203401N00311220001CN0099001N1-00401-00501999999ADDMA1102511999999MW1001REMMET045LYPG 0600Z 34006KT CAVOK M04/M05 Q1025 NOSIG;EQDQ01+000000PRSWM2
0097134624999992000010407004+42430+019280FM-15+0053LYPG V0203301N00211220001CN0099001N1-00301-00501999999ADDMA1102511999999MW1001REMMET045LYPG 0700Z 33004KT CAVOK M03/M05 Q1025 NOSIG;EQDQ01+000000PRSWM2
0097134624999992000010408004+42430+019280FM-15+0053LYPG V0203301N00101220001CN0099001N1-00101-00301999999ADDMA1102511999999MW1001REMMET045LYPG 0800Z 33002KT CAVOK M01/M03 Q1025 NOSIG;EQDQ01+000000PRSWM2
0096134624999992000010409004+42430+019280FM-15+0053LYPG V0203401N00101220001CN0099001N1+00201-00301999999ADDMA1102511999999MW1001REMMET044LYPG 0900Z 34002KT CAVOK 02/M03 Q1025 NOSIG;EQDQ01+000000PRSWM2
0096134624999992000010410004+42430+019280FM-15+0053LYPG V0209999C00001220001CN0099001N1+00601-00301999999ADDMA1102511999999MW1001REMMET044LYPG 1000Z 00000KT CAVOK 06/M03 Q1025 NOSIG;EQDQ01+000000PRSWM2
0096134624999992000010411004+42430+019280FM-15+0053LYPG V0209999C00001220001CN0099001N1+00801-00101999999ADDMA1102401999999MW1001REMMET044LYPG 1100Z 00000KT CAVOK 08/M01 Q1024 NOSIG;EQDQ01+000000PRSWM2
0096134624999992000010412004+42430+019280FM-15+0053LYPG V0209999C00001220001CN0099001N1+00801-00201999999ADDMA1102301999999MW1001REMMET044LYPG 1200Z 00000KT CAVOK 08/M02 Q1023 NOSIG;EQDQ01+000000PRSWM2
0096134624999992000010412304+42430+019280FM-15+0053LYPG V0209999C00001220001CN0099001N1+00901-00301999999ADDMA1102201999999MW1001REMMET044LYPG 1330Z 00000KT CAVOK 09/M03 Q1022 NOSIG;EQDQ01+000000PRSWM2
0096134624999992000010413304+42430+019280FM-15+0053LYPG V0209999C00001220001CN0099001N1+01001-00201999999ADDMA1102201999999MW1001REMMET044LYPG 1430Z 00000KT CAVOK 10/M02 Q1022 NOSIG;EQDQ01+000000PRSWM2
0096134624999992000010415004+42430+019280FM-15+0053LYPG V0209999C00001220001CN0099001N1+00901-00101999999ADDMA1102201999999MW1001REMMET044LYPG 1500Z 00000KT CAVOK 09/M01 Q1022 NOSIG;EQDQ01+000000PRSWM2
0096134624999992000010416304+42430+019280FM-15+0053LYPG V0200501N00101220001CN0099001N1+00101-00101999999ADDMA1102201999999MW1001REMMET044LYPG 1730Z 05002KT CAVOK 01/M01 Q1022 NOSIG;EQDQ01+000000PRSWM2
0096134624999992000010418004+42430+019280FM-15+0053LYPG V0200201N00101220001CN0099001N1+00001-00201999999ADDMA1102201999999MW1001REMMET044LYPG 1800Z 02002KT CAVOK 00/M02 Q1022 NOSIG;EQDQ01+000000PRSWM2
0126134624999992000010419004+42430+019280FM-15+0053LYPG V0200301N001012200019N0070001N1-00101-00301999999ADDGF100991999999999999999999MA1102201999999MW1001REMMET048LYPG 1900Z 03002KT 7000 SKC M01/M03 Q1022 NOSIG;EQDQ01+000000PRSWM2
0120134624999992000010420004+42430+019280FM-15+0053LYPG V0203501N002112200019N0080001N1-00101-00301999999ADDGF100991999999999999999999MA1102301999999MW1001REMMET042LYPG 2000Z 35004KT 8000 SKC M01/M03 Q1023;EQDQ01+000000PRSWM2
0091134624999992000010421004+42430+019280FM-15+0053LYPG V0203301N00211220001CN0099001N1-00101-00301999999ADDMA1102301999999MW1001REMMET039LYPG 2100Z 33004KT CAVOK M01/M03 Q1023;EQDQ01+000000PRSWM2
0091134624999992000010422004+42430+019280FM-15+0053LYPG V0203501N00101220001CN0099001N1-00101-00401999999ADDMA1102301999999MW1001REMMET039LYPG 2200Z 35002KT CAVOK M01/M04 Q1023;EQDQ01+000000PRSWM2
0091134624999992000010423004+42430+019280FM-15+0053LYPG V0203501N00211220001CN0099001N1-00101-00301999999ADDMA1102301999999MW1001REMMET039LYPG 2300Z 35004KT CAVOK M01/M03 Q1023;EQDQ01+000000PRSWM2
0091134624999992000010500004+42430+019280FM-15+0053LYPG V0202801N00101220001CN0099001N1-00201-00401999999ADDMA1102301999999MW1001REMMET039LYPG 0000Z 28002KT CAVOK M02/M04 Q1023;EQDQ01+000000PRSWM2
0091134624999992000010501004+42430+019280FM-15+0053LYPG V0203301N00211220001CN0099001N1-00201-00401999999ADDMA1102301999999MW1001REMMET039LYPG 0100Z 33004KT CAVOK M02/M04 Q1023;EQDQ01+000000PRSWM2
0091134624999992000010502004+42430+019280FM-15+0053LYPG V0203601N00101220001CN0099001N1-00301-00401999999ADDMA1102301999999MW1001REMMET039LYPG 0200Z 36002KT CAVOK M03/M04 Q1023;EQDQ01+000000PRSWM2
0091134624999992000010503004+42430+019280FM-15+0053LYPG V0203301N00211220001CN0099001N1-00301-00401999999ADDMA1102201999999MW1001REMMET039LYPG 0300Z 33004KT CAVOK M03/M04 Q1022;EQDQ01+000000PRSWM2
0091134624999992000010504004+42430+019280FM-15+0053LYPG V0200101N00211220001CN0099001N1-00301-00501999999ADDMA1102201999999MW1001REMMET039LYPG 0400Z 01004KT CAVOK M03/M05 Q1022;EQDQ01+000000PRSWM2
0091134624999992000010505004+42430+019280FM-15+0053LYPG V0203601N00101220001CN0099001N1-00401-00501999999ADDMA1102201999999MW1001REMMET039LYPG 0500Z 36002KT CAVOK M04/M05 Q1022;EQDQ01+000000PRSWM2
0105134624999992000010506004+42430+019280FM-15+0053LYPG V0209999C00001220001CN0099001N1-00401-00701999999ADDMA1102201999999MW1001REMMET053LYPG 0600Z 00000KT CAVOK M04/M07 Q1022 BECMG 5000 BR;EQDQ01+000000PRSWM2
0145134624999992000010507004+42430+019280FM-15+0053LYPG V0203301N002112200019N0050001N1-00201-00501999999ADDGF100991999999999999999999MA1102812999999MW1101REMMET051LYPG 0700Z 33004KT 5000 BR SKC M02/M05 Q1028 NOSIG;EQDQ01+000003PRSWM1Q02    003PRSWM1
0145134624999992000010508004+42430+019280FM-15+0053LYPG V0203301N001012200019N0030001N1+00101-00501999999ADDGF100991999999999999999999MA1102811999999MW1101REMMET051LYPG 0800Z 33002KT 3000S BR SKC 01/M05 Q1028 NOSIG;EQDQ01+000003PRSWM1Q02    003PRSWM1
0144134624999992000010509004+42430+019280FM-15+0053LYPG V0209999C000012200019N0050001N1+00601-00201999999ADDGF100991999999999999999999MA1102202999999MW1101REMMET050LYPG 0900Z 00000KT 5000 BR SKC 06/M02 Q1022 NOSIG;EQDQ01+000003PRSWM1Q02    003PRSWM1
0141134624999992000010510004+42430+019280FM-15+0053LYPG V0209999C000012200019N9999999N1+00701-00101999999ADDGF100991999999999999999999MA1102201999999MW1001REMMET047LYPG 1000Z 00000KT 6000 SKC 07/M01 Q1022 NOSIG;EQDQ01+060002VODIS Q02+000000PRSWM2
0096134624999992000010511004+42430+019280FM-15+0053LYPG V0201101N00101220001CN0099001N1+00901+00001999999ADDMA1102201999999MW1001REMMET044LYPG 1100Z 11002KT CAVOK 09/M00 Q1022 NOSIG;EQDQ01+000000PRSWM2
0096134624999992000010512004+42430+019280FM-15+0053LYPG V0201101N00101220001CN0099001N1+01001-00101999999ADDMA1102201999999MW1001REMMET044LYPG 1200Z 11002KT CAVOK 10/M01 Q1022 NOSIG;EQDQ01+000000PRSWM2
0096134624999992000010513004+42430+019280FM-15+0053LYPG V0201501N00101220001CN0099001N1+01101-00101999999ADDMA1102201999999MW1001REMMET044LYPG 1300Z 15002KT CAVOK 11/M01 Q1022 NOSIG;EQDQ01+000000PRSWM2
0095134624999992000010514004+42430+019280FM-15+0053LYPG V0201501N00101220001CN0099001N1+00901+00101999999ADDMA1102101999999MW1001REMMET043LYPG 1400Z 15002KT CAVOK 09/01 Q1021 NOSIG;EQDQ01+000000PRSWM2
0095134624999992000010515004+42430+019280FM-15+0053LYPG V0209999C00001220001CN0099001N1+00901+00101999999ADDMA1102101999999MW1001REMMET043LYPG 1500Z 00000KT CAVOK 09/01 Q1021 NODIG;EQDQ01+000000PRSWM2
0096134624999992000010516004+42430+019280FM-15+0053LYPG V0209999C00001220001CN0099001N1+00501-00101999999ADDMA1102101999999MW1001REMMET044LYPG 1600Z 00000KT CAVOK 05/M01 Q1021 NOSIG;EQDQ01+000000PRSWM2
0096134624999992000010517004+42430+019280FM-15+0053LYPG V0200801N00101220001CN0099001N1+00401-00301999999ADDMA1102201999999MW1001REMMET044LYPG 1700Z 08002KT CAVOK 04/M03 Q1022 NOSIG;EQDQ01+000000PRSWM2
0096134624999992000010517304+42430+019280FM-15+0053LYPG V0200101N00101220001CN0099001N1+00101-00101999999ADDMA1102201999999MW1001REMMET044LYPG 1830Z 01002KT CAVOK 01/M01 Q1022 NOSIG;EQDQ01+000000PRSWM2
0096134624999992000010519004+42430+019280FM-15+0053LYPG V0200901N00101220001CN0099001N1+00101-00101999999ADDMA1102301999999MW1001REMMET044LYPG 1900Z 09002KT CAVOK 01/M01 Q1023 NOSIG;EQDQ01+000000PRSWM2
0090134624999992000010519304+42430+019280FM-15+0053LYPG V0203201N00101220001CN0099001N1+00001-00201999999ADDMA1102301999999MW1001REMMET038LYPG 2030Z 32002KT CAVOK 00/M02 Q1023;EQDQ01+000000PRSWM2
0090134624999992000010521004+42430+019280FM-15+0053LYPG V0200501N00101220001CN0099001N1+00101-00101999999ADDMA1102301999999MW1001REMMET038LYPG 2100Z 05002KT CAVOK 01/M01 Q1023;EQDQ01+000000PRSWM2
0090134624999992000010522004+42430+019280FM-15+0053LYPG V0203001N00101220001CN0099001N1+00101-00101999999ADDMA1102301999999MW1001REMMET038LYPG 2200Z 30002KT CAVOK 01/M01 Q1023;EQDQ01+000000PRSWM2
0090134624999992000010601004+42430+019280FM-15+0053LYPG V0200201N00211220001CN0099001N1+00101-00101999999ADDMA1102401999999MW1001REMMET038LYPG 0100Z 02004KT CAVOK 01/M01 Q1024;EQDQ01+000000PRSWM2
0090134624999992000010602004+42430+019280FM-15+0053LYPG V0201501N00211220001CN0099001N1+00301-00101999999ADDMA1102401999999MW1001REMMET038LYPG 0200Z 15004KT XAVOK 03/M01 Q1024;EQDQ01+000000PRSWM2
0090134624999992000010603004+42430+019280FM-15+0053LYPG V0202301N00101220001CN0099001N1+00101-00201999999ADDMA1102401999999MW1001REMMET038LYPG 0300Z 23002KT CAVOK 01/M02 Q1024;EQDQ01+000000PRSWM2
0090134624999992000010604004+42430+019280FM-15+0053LYPG V0201101N00211220001CN0099001N1+00001-00101999999ADDMA1102301999999MW1001REMMET038LYPG 0400Z 11004KT CAVOK 00/M01 Q1023;EQDQ01+000000PRSWM2
0090134624999992000010605004+42430+019280FM-15+0053LYPG V0200101N00211220001CN0099001N1+00101-00101999999ADDMA1102301999999MW1001REMMET038LYPG 0500Z 01004KT CAVOK 01/M01 Q1023;EQDQ01+000000PRSWM2
0096134624999992000010606004+42430+019280FM-15+0053LYPG V0201201N00211220001CN0099001N1+00301-00101999999ADDMA1102301999999MW1001REMMET044LYPG 0600Z 12004KT CAVOK 03/M01 Q1023 NOSIG;EQDQ01+000000PRSWM2
0096134624999992000010607004+42430+019280FM-15+0053LYPG V0203301N00211220001CN0099001N1+00601-00201999999ADDMA1102401999999MW1001REMMET044LYPG 0700Z 33004KT CAVOK 06/M02 Q1024 NOSIG;EQDQ01+000000PRSWM2
0096134624999992000010608004+42430+019280FM-15+0053LYPG V0200701N00211220001CN0099001N1+01001-00101999999ADDMA1102401999999MW1001REMMET044LYPG 0800Z 07004KT CAVOK 10/M01 Q1024 NOSIG;EQDQ01+000000PRSWM2
0095134624999992000010609004+42430+019280FM-15+0053LYPG V0201601N00101220001CN0099001N1+00901+00101999999ADDMA1102401999999MW1001REMMET043LYPG 0900Z 16002KT CAVOK 09/01 Q1024 NOSIG;EQDQ01+000000PRSWM2
0096134624999992000010609304+42430+019280FM-15+0053LYPG V0203601N00721220001CN0099001N1+01301-00301999999ADDMA1102401999999MW1001REMMET044LYPG 1030Z 36014KT CAVOK 13/M03 Q1024 NOSIG;EQDQ01+000000PRSWM2
0095134624999992000010611004+42430+019280FM-15+0053LYPG V0200101N00411220001CN0099001N1+01301+00001999999ADDMA1102301999999MW1001REMMET043LYPG 1100Z 01008KT CAVOK 13/00 Q1023 NOSIG;EQDQ01+000000PRSWM2
0096134624999992000010612004+42430+019280FM-15+0053LYPG V0201101N00211220001CN0099001N1+01401-00201999999ADDMA1102201999999MW1001REMMET044LYPG 1200Z 11004KT CAVOK 14/M02 Q1022 NOSIG;EQDQ01+000000PRSWM2
0096134624999992000010613004+42430+019280FM-15+0053LYPG V0201501N00211220001CN0099001N1+01501+00001999999ADDMA1102201999999MW1001REMMET044LYPG 1300Z 15004KT CAVOK 15/M00 Q1022 NOSIG;EQDQ01+000000PRSWM2
0096134624999992000010614004+42430+019280FM-15+0053LYPG V0201601N00311220001CN0099001N1+01201-00201999999ADDMA1102201999999MW1001REMMET044LYPG 1400Z 16006KT CAVOK 12/M02 Q1022 NOSIG;EQDQ01+000000PRSWM2
0096134624999992000010615004+42430+019280FM-15+0053LYPG V0201601N00101220001CN0099001N1+01101-00201999999ADDMA1102201999999MW1001REMMET044LYPG 1500Z 16002KT CAVOK 11/M02 Q1022 NOSIG;EQDQ01+000000PRSWM2
0096134624999992000010616004+42430+019280FM-15+0053LYPG V0200901N00101220001CN0099001N1+00801-00301999999ADDMA1102201999999MW1001REMMET044LYPG 1600Z 09002KT CAVOK 08/M03 Q1022 NOSIG;EQDQ01+000000PRSWM2
0096134624999992000010617004+42430+019280FM-15+0053LYPG V0203601N00101220001CN0099001N1+00701-00401999999ADDMA1102201999999MW1001REMMET044LYPG 1700Z 36002KT CAVOK 07/M04 Q1022 NOSIG;EQDQ01+000000PRSWM2
0090134624999992000010620004+42430+019280FM-15+0053LYPG V0203401N00311220001CN0099001N1+00801-00101999999ADDMA1102301999999MW1001REMMET038LYPG 2000Z 34006KT CAVOK 08/M01 Q1023;EQDQ01+000000PRSWM2
0090134624999992000010621004+42430+019280FM-15+0053LYPG V0201201N00101220001CN0099001N1+00501-00101999999ADDMA1102301999999MW1001REMMET038LYPG 2100Z 12002KT CAVOK 05/M01 Q1023;EQDQ01+000000PRSWM2
0090134624999992000010622004+42430+019280FM-15+0053LYPG V0209999C00001220001CN0099001N1+00401-00101999999ADDMA1102301999999MW1001REMMET038LYPG 2200Z 00000KT CAVOK 04/M01 Q1023;EQDQ01+000000PRSWM2
0090134624999992000010623004+42430+019280FM-15+0053LYPG V0209999C00001220001CN0099001N1+00201-00101999999ADDMA1102301999999MW1001REMMET038LYPG 2300Z 00000KT CAVOK 02/M01 Q1023;EQDQ01+000000PRSWM2
0090134624999992000010700004+42430+019280FM-15+0053LYPG V0203401N00101220001CN0099001N1+00101-00201999999ADDMA1102401999999MW1001REMMET038LYPG 0000Z 34002KT CAVOK 01/M02 Q1024;EQDQ01+000000PRSWM2
0090134624999992000010701004+42430+019280FM-15+0053LYPG V0209999C00001220001CN0099001N1+00101-00201999999ADDMA1102401999999MW1001REMMET038LYPG 0100Z 00000KT CAVOK 01/M02 Q1024;EQDQ01+000000PRSWM2
0090134624999992000010702004+42430+019280FM-15+0053LYPG V0209999C00001220001CN0099001N1+00001-00301999999ADDMA1102401999999MW1001REMMET038LYPG 0200Z 00000KT CAVOK 00/M03 Q1024;EQDQ01+000000PRSWM2
0090134624999992000010703004+42430+019280FM-15+0053LYPG V0200901N00101220001CN0099001N1+00001-00301999999ADDMA1102401999999MW1001REMMET038LYPG 0300Z 09002KT CAVOK 00/M03 Q1024;EQDQ01+000000PRSWM2
0075134624999992000010703304+42430+019280FM-16+0053LYPG V0203401N00151220001CN0099001N1+99999+99999999999ADDMW1001REMMET038LYPG 0330Z 34003KT CYVOK 001M03 Q1024;EQDQ01+000000PRSWM2
0091134624999992000010704004+42430+019280FM-15+0053LYPG V0200101N00101220001CN0099001N1+00001-00301999999ADDMA1102401999999MW1001REMMET039LYPG 0400Z 01002KT CAVOK M00/M03 Q1024;EQDQ01+000000PRSWM2
0091134624999992000010705004+42430+019280FM-15+0053LYPG V0209999C00001220001CN0099001N1+00001-00301999999ADDMA1102401999999MW1001REMMET039LYPG 0500Z 00000KT CAVOK M00/M03 Q1024;EQDQ01+000000PRSWM2
0091134624999992000010706004+42430+019280FM-15+0053LYPG V0203001N00101220001CN0099001N1-00101-00301999999ADDMA1102511999999MW1001REMMET039LYPG 0600Z 30002KT CAVOK M01/M03 Q1025;EQDQ01+000000PRSWM2
0098134624999992000010707004+42430+019280FM-15+0053LYPG V0200601N00101220001CN0099001N1-00101-00301999999ADDMA1102611999999MW1001REMMET046LYPG 0700Z 06002KT CAVOK M01/M03 Q1026 NODSIG;EQDQ01+000000PRSWM2
0125134624999992000010708004+42430+019280FM-15+0053LYPG V0203301N001012200019N0080001N1+00301-00101999999ADDGF100991999999999999999999MA1102611999999MW1001REMMET047LYPG 0800Z 33002KT 8000 SKC 03/M01 Q1026 NOSIG;EQDQ01+000000PRSWM2
0125134624999992000010709004+42430+019280FM-15+0053LYPG V0201101N001012200019N0080001N1+00701+00001999999ADDGF100991999999999999999999MA1102711999999MW1001REMMET047LYPG 0900Z 11002KT 8000 SKC 07/M00 Q1027 NOSIG;EQDQ01+000000PRSWM2
0125134624999992000010710004+42430+019280FM-15+0053LYPG V0209999C000012200019N0080001N1+00801-00201999999ADDGF100991999999999999999999MA1102711999999MW1001REMMET047LYPG 1000Z 00000KT 8000 SKC 08/M02 Q1027 NOSIG;EQDQ01+000000PRSWM2
0096134624999992000010711004+42430+019280FM-15+0053LYPG V0201501N00211220001CN0099001N1+01001-00201999999ADDMA1102611999999MW1001REMMET044LYPG 1100Z 15004KT CAVOK 10/M02 Q1026 NOSIG;EQDQ01+000000PRSWM2
0096134624999992000010712004+42430+019280FM-15+0053LYPG V0201501N00101220001CN0099001N1+01001-00101999999ADDMA1102611999999MW1001REMMET044LYPG 1200Z 15002KT CAVOK 10/M01 Q1026 NOSIG;EQDQ01+000000PRSWM2
0096134624999992000010713004+42430+019280FM-15+0053LYPG V0201101N00211220001CN0099001N1+01101-00301999999ADDMA1102511999999MW1001REMMET044LYPG 1300Z 11004KT CAVOK 11/M03 Q1025 NOSIG;EQDQ01+000000PRSWM2
0096134624999992000010714004+42430+019280FM-15+0053LYPG V0201301N00211220001CN0099001N1+01001-00301999999ADDMA1102511999999MW1001REMMET044LYPG 1400Z 13004KT CAVOK 10/M03 Q1025 NOSIG;EQDQ01+000000PRSWM2
0096134624999992000010715004+42430+019280FM-15+0053LYPG V0201301N00101220001CN0099001N1+00901-00301999999ADDMA1102511999999MW1001REMMET044LYPG 1500Z 13002KT CAVOK 09/M03 Q1025 NOSIG;EQDQ01+000000PRSWM2
0096134624999992000010715304+42430+019280FM-15+0053LYPG V0203401N00101220001CN0099001N1+00401-00401999999ADDMA1102511999999MW1001REMMET044LYPG 1630Z 34002KT CAVOK 04/M04 Q1025 NOSIG;EQDQ01+000000PRSWM2
0096134624999992000010717004+42430+019280FM-15+0053LYPG V0200401N00101220001CN0099001N1+00301-00401999999ADDMA1102511999999MW1001REMMET044LYPG 1700Z 04002KT CAVOK 03/M04 Q1025 NOSIG;EQDQ01+000000PRSWM2
0096134624999992000010718004+42430+019280FM-15+0053LYPG V0203601N00101220001CN0099001N1+00101-00401999999ADDMA1102611999999MW1001REMMET044LYPG 1800Z 36002KT CAVOK 01/M04 Q1026 NOSIG;EQDQ01+000000PRSWM2
0090134624999992000010719004+42430+019280FM-15+0053LYPG V0203501N00211220001CN0099001N1+00101-00301999999ADDMA1102611999999MW1001REMMET038LYPG 1900Z 35004KT CAVOK 01/M03 Q1026;EQDQ01+000000PRSWM2
0091134624999992000010720004+42430+019280FM-15+0053LYPG V0203301N00211220001CN0099001N1+00001-00401999999ADDMA1102711999999MW1001REMMET039LYPG 2000Z 33004KT CAVOK M00/M04 Q1027;EQDQ01+000000PRSWM2
0090134624999992000010721004+42430+019280FM-15+0053LYPG V0203601N00101220001CN0099001N1+00001-00401999999ADDMA1102711999999MW1001REMMET038LYPG 2100Z 36002KT CAVOK 00/M04 Q1027;EQDQ01+000000PRSWM2
0091134624999992000010722004+42430+019280FM-15+0053LYPG V0209999C00001220001CN0099001N1-00101-00301999999ADDMA1102711999999MW1001REMMET039LYPG 2200Z 00000KT CAVOK M01/M03 Q1027;EQDQ01+000000PRSWM2
0091134624999992000010723004+42430+019280FM-15+0053LYPG V0209999C00001220001CN0099001N1-00201-00401999999ADDMA1102711999999MW1001REMMET039LYPG 2300Z 00000KT CAVOK M02/M04 Q1027;EQDQ01+000000PRSWM2
0091134624999992000010800004+42430+019280FM-15+0053LYPG V0209999C00001220001CN0099001N1-00201-00601999999ADDMA1102711999999MW1001REMMET039LYPG 0000Z 00000KT CAVOK M02/M06 Q1027;EQDQ01+000000PRSWM2
0091134624999992000010801004+42430+019280FM-15+0053LYPG V0203201N00101220001CN0099001N1-00201-00601999999ADDMA1102711999999MW1001REMMET039LYPG 0100Z 32002KT CAVOK M02/M06 Q1027;EQDQ01+000000PRSWM2
0091134624999992000010803004+42430+019280FM-15+0053LYPG V0203301N00101220001CN0099001N1-00301-00601999999ADDMA1102711999999MW1001REMMET039LYPG 0300Z 33002KT CAVOK M03/M06 Q1027;EQDQ01+000000PRSWM2
0091134624999992000010804004+42430+019280FM-15+0053LYPG V0203401N00101220001CN0099001N1-00301-00701999999ADDMA1102711999999MW1001REMMET039LYPG 0400Z 34002KT CAVOK M03/M07 Q1027;EQDQ01+000000PRSWM2
0097134624999992000010806004+42430+019280FM-15+0053LYPG V0209999C00001220001CN0099001N1-00401-00601999999ADDMA1102711999999MW1001REMMET045LYPG 0600Z 00000KT CAVOK M04/M06 Q1027 NOSIG;EQDQ01+000000PRSWM2
0097134624999992000010806304+42430+019280FM-15+0053LYPG V0209999C00001220001CN0099001N1-00301-00601999999ADDMA1102811999999MW1001REMMET045LYPG 0730Z 00000KT CAVOK M03/M06 Q1028 NOSIG;EQDQ01+000000PRSWM2
0096134624999992000010808004+42430+019280FM-15+0053LYPG V0209999C00001220001CN0099001N1+00101-00501999999ADDMA1102811999999MW1001REMMET044LYPG 0800Z 00000KT CAVOK 01/M05 Q1028 NOSIG;EQDQ01+000000PRSWM2
0096134624999992000010809004+42430+019280FM-15+0053LYPG V0203601N00101220001CN0099001N1+00501-00401999999ADDMA1102811999999MW1001REMMET044LYPG 0900Z 36002KT CAVOK 05/M04 Q1028 NOSIG;EQDQ01+000000PRSWM2
0096134624999992000010810004+42430+019280FM-15+0053LYPG V0209999C00001220001CN0099001N1+00801-00601999999ADDMA1102811999999MW1001REMMET044LYPG 1000Z 00000KT CAVOK 08/M06 Q1028 NOSIG;EQDQ01+000000PRSWM2
0096134624999992000010811004+42430+019280FM-15+0053LYPG V0209999C00001220001CN0099001N1+00901-00401999999ADDMA1102811999999MW1001REMMET044LYPG 1100Z 00000KT CAVOK 09/M04 Q1028 NOSIG;EQDQ01+000000PRSWM2
0096134624999992000010812004+42430+019280FM-15+0053LYPG V0209999C00001220001CN0099001N1+01001-00501999999ADDMA1102711999999MW1001REMMET044LYPG 1200Z 00000KT CAVOK 10/M05 Q1027 NOSIG;EQDQ01+000000PRSWM2
0096134624999992000010813004+42430+019280FM-15+0053LYPG V0201701N00101220001CN0099001N1+01001-00201999999ADDMA1102611999999MW1001REMMET044LYPG 1300Z 17002KT CAVOK 10/M02 Q1026 NOSIG;EQDQ01+000000PRSWM2
0096134624999992000010814004+42430+019280FM-15+0053LYPG V0201701N00211220001CN0099001N1+00901-00401999999ADDMA1102611999999MW1001REMMET044LYPG 1400Z 17004KT CAVOK 09/M04 Q1026 NOSIG;EQDQ01+000000PRSWM2
0096134624999992000010815004+42430+019280FM-15+0053LYPG V0201601N00101220001CN0099001N1+00801-00301999999ADDMA1102611999999MW1001REMMET044LYPG 1500Z 16002KT CAVOK 08/M03 Q1026 NOSIG;EQDQ01+000000PRSWM2
0096134624999992000010816004+42430+019280FM-15+0053LYPG V0201901N00101220001CN0099001N1+00501-00201999999ADDMA1102611999999MW1001REMMET044LYPG 1600Z 19002KT CAVOK 05/M02 Q1026 NOSIG;EQDQ01+000000PRSWM2
0096134624999992000010817004+42430+019280FM-15+0053LYPG V0200701N00101220001CN0099001N1+00201-00401999999ADDMA1102711999999MW1001REMMET044LYPG 1700Z 07002KT CAVOK 02/M04 Q1027 NOSIG;EQDQ01+000000PRSWM2
0096134624999992000010818004+42430+019280FM-15+0053LYPG V0203201N00211220001CN0099001N1+00101-00301999999ADDMA1102711999999MW1001REMMET044LYPG 1800Z 32004KT CAVOK 01/M03 Q1027 NOSIG;EQDQ01+000000PRSWM2
0091134624999992000010818304+42430+019280FM-15+0053LYPG V0203401N00211220001CN0099001N1+00001-00301999999ADDMA1102711999999MW1001REMMET039LYPG 1930Z 34004KT CAVOK M00/M03 Q1027;EQDQ01+000000PRSWM2
0091134624999992000010820004+42430+019280FM-15+0053LYPG V0203401N00211220001CN0099001N1+00001-00401999999ADDMA1102711999999MW1001REMMET039LYPG 2000Z 34004KT CAVOK M00/M04 Q1027;EQDQ01+000000PRSWM2
0091134624999992000010821004+42430+019280FM-15+0053LYPG V0203201N00101220001CN0099001N1-00101-00401999999ADDMA1102711999999MW1001REMMET039LYPG 2100Z 32002KT CAVOK M01/M04 Q1027;EQDQ01+000000PRSWM2
0091134624999992000010823004+42430+019280FM-15+0053LYPG V0209999C00001220001CN0099001N1-00201-00501999999ADDMA1102711999999MW1001REMMET039LYPG 2300Z 00000KT CAVOK M02/M05 Q1027;EQDQ01+000000PRSWM2
0091134624999992000010900304+42430+019280FM-15+0053LYPG V0203201N00101220001CN0099001N1-00301-00601999999ADDMA1102711999999MW1001REMMET039LYPG 0130Z 32002KT CAVOK M03/M06 Q1027;EQDQ01+000000PRSWM2
0091134624999992000010902004+42430+019280FM-15+0053LYPG V0203201N00101220001CN0099001N1-00301-00601999999ADDMA1102811999999MW1001REMMET039LYPG 0200Z 32002KT CAVOK M03/M06 Q1028;EQDQ01+000000PRSWM2
0091134624999992000010903004+42430+019280FM-15+0053LYPG V0209999C00001220001CN0099001N1-00401-00601999999ADDMA1102711999999MW1001REMMET039LYPG 0300Z 00000KT CAVOK M04/M06 Q1027;EQDQ01+000000PRSWM2
0091134624999992000010904004+42430+019280FM-15+0053LYPG V0203401N00101220001CN0099001N1-00401-00701999999ADDMA1102711999999MW1001REMMET039LYPG 0400Z 34002KT CAVOK M04/M07 Q1027;EQDQ01+000000PRSWM2
0091134624999992000010905004+42430+019280FM-15+0053LYPG V0203401N00101220001CN0099001N1-00401-00601999999ADDMA1102711999999MW1001REMMET039LYPG 0500Z 34002KT CAVOK M04/M06 Q1027;EQDQ01+000000PRSWM2
0091134624999992000010907004+42430+019280FM-15+0053LYPG V0203401N00101220001CN0099001N1-00101-00701999999ADDMA1102711999999MW1001REMMET039LYPG 0700Z 34002KT CAVOK M01/M07 Q1027;EQDQ01+000000PRSWM2
0172134624999992000010908004+42430+019280FM-15+0053LYPG V0209999C000012200019N0040001N1+00101-00501999999ADDGA1021+060009999GF102991999999999999999999MA1102711999999MW1101REMMET062LYPG 0800Z 00000KT 4000S BR FEW200 01/M05 Q1027 BECMG 1000 BR;EQDQ01+000003PRSWM1Q02    003PRSWM1
0167134624999992000010909004+42430+019280FM-15+0053LYPG V0209999C000012200019N0050001N1+00501+00302999999ADDGA1021+060009999GF102991999999999999999999MA1102811999999MW1101REMMET057LYPG 0900Z 00000KT 5000 BR FEW200 05/03 Q1028 BECMG 8000;EQDQ01+000003PRSWM1Q02    003PRSWM1
0150134624999992000010910004+42430+019280FM-15+0053LYPG V0201101N001012200019N0080001N1+00601-00401999999ADDGA1021+060009999GF102991999999999999999999MA1102711999999MW1001REMMET056LYPG 1000Z 11002KT 8000 FEW200 06/M04 Q1027 BECMG CAVOK;EQDQ01+000000PRSWM2
0150134624999992000010911004+42430+019280FM-15+0053LYPG V0201101N001012200019N0080001N1+00801-00401999999ADDGA1021+060009999GF102991999999999999999999MA1102711999999MW1001REMMET056LYPG 1100Z 11002KT 8000 FEW200 08/M04 Q1027 BECMG CAVOK;EQDQ01+000000PRSWM2
0096134624999992000010912004+42430+019280FM-15+0053LYPG V0209999C00001220001CN0099001N1+00801-00401999999ADDMA1102611999999MW1001REMMET044LYPG 1200Z 00000KT CAVOK 08/M04 Q1026 NOSIG;EQDQ01+000000PRSWM2
0096134624999992000010913004+42430+019280FM-15+0053LYPG V0201601N00211220001CN0099001N1+00801-00201999999ADDMA1102611999999MW1001REMMET044LYPG 1300Z 16004KT CAVOK 08/M02 Q1026 NOSIG;EQDQ01+000000PRSWM2
0096134624999992000010914004+42430+019280FM-15+0053LYPG V0201801N00101220001CN0099001N1+00701-00301999999ADDMA1102611999999MW1001REMMET044LYPG 1400Z 18002KT CAVOK 07/M03 Q1026 NOSIG;EQDQ01+000000PRSWM2
0096134624999992000010915004+42430+019280FM-15+0053LYPG V0209999C00001220001CN0099001N1+00601-00201999999ADDMA1102611999999MW1001REMMET044LYPG 1500Z 00000KT CAVOK 06/M02 Q1026 NOSIG;EQDQ01+000000PRSWM2
0096134624999992000010916004+42430+019280FM-15+0053LYPG V0201301N00101220001CN0099001N1+00401-00101999999ADDMA1102611999999MW1001REMMET044LYPG 1600Z 13002KT CAVOK 04/M01 Q1026 NOSIG;EQDQ01+000000PRSWM2
0096134624999992000010917004+42430+019280FM-15+0053LYPG V0209999C00001220001CN0099001N1+00201-00301999999ADDMA1102611999999MW1001REMMET044LYPG 1700Z 00000KT CAVOK 02/M03 Q1026 NOSIG;EQDQ01+000000PRSWM2
0090134624999992000010919004+42430+019280FM-15+0053LYPG V0203301N00211220001CN0099001N1+00101-00301999999ADDMA1102611999999MW1001REMMET038LYPG 1900Z 33004KT CAVOK 01/M03 Q1026;EQDQ01+000000PRSWM2
0090134624999992000010920004+42430+019280FM-15+0053LYPG V0203301N00211220001CN0099001N1+00001-00301999999ADDMA1102711999999MW1001REMMET038LYPG 2000Z 33004KT CAVOK 00/M03 Q1027;EQDQ01+000000PRSWM2
0091134624999992000010921004+42430+019280FM-15+0053LYPG V0202801N00101220001CN0099001N1+00001-00301999999ADDMA1102711999999MW1001REMMET039LYPG 2100Z 28002KT CAVOK M00/M03 Q1027;EQDQ01+000000PRSWM2
0091134624999992000010922004+42430+019280FM-15+0053LYPG V0203501N00101220001CN0099001N1-00101-00401999999ADDMA1102711999999MW1001REMMET039LYPG 2200Z 35002KT CAVOK M01/M04 Q1027;EQDQ01+000000PRSWM2
0091134624999992000010923004+42430+019280FM-15+0053LYPG V0203301N00311220001CN0099001N1-00101-00401999999ADDMA1102711999999MW1001REMMET039LYPG 2300Z 33006KT CAVOK M01/M04 Q1027;EQDQ01+000000PRSWM2
0091134624999992000010923304+42430+019280FM-15+0053LYPG V0200101N00151220001CN0099001N1-00201-00401999999ADDMA1102711999999MW1001REMMET039LYPG 0030Z 01003KT CAVOK M02/M04 Q1027;EQDQ01+000000PRSWM2
0091134624999992000011001004+42430+019280FM-15+0053LYPG V0200101N00211220001CN0099001N1-00201-00401999999ADDMA1102811999999MW1001REMMET039LYPG 0100Z 01004KT CAVOK M02/M04 Q1028;EQDQ01+000000PRSWM2
0091134624999992000011004004+42430+019280FM-15+0053LYPG V0203501N00101220001CN0099001N1-00301-00501999999ADDMA1102811999999MW1001REMMET039LYPG 0400Z 35002KT CAVOK M03/M05 Q1028;EQDQ01+000000PRSWM2
0091134624999992000011005004+42430+019280FM-15+0053LYPG V0203001N00211220001CN0099001N1-00301-00501999999ADDMA1102811999999MW1001REMMET039LYPG 0500Z 30004KT CAVOK M03/M05 Q1028;EQDQ01+000000PRSWM2
0144134624999992000011007304+42430+019280FM-15+0053LYPG V0209999C000010300019N0112651N1+00301-00201999999ADDGA1071+030009999GF107991999999999999999999MA1103011999999MW1001REMMET050LYPG 0830Z 00000KT 9999 BKN100 03/M02 Q1030 NOSIG;EQDQ01+000000PRSWM2
0144134624999992000011010004+42430+019280FM-15+0053LYPG V0209999C000010300019N0112651N1+00601-00201999999ADDGA1071+030009999GF107991999999999999999999MA1103011999999MW1001REMMET050LYPG 1000Z 00000KT 9999 BKN100 06/M02 Q1030 NOSIG;EQDQ01+000000PRSWM2
0167134624999992000011012004+42430+019280FM-15+0053LYPG V0209999C000010600019N0112651N1+00801-00101999999ADDGA1021+030009999GA2071+060009999GF107991999999999999999999MA1102911999999MW1001REMMET057LYPG 1200Z 00000KT 9999 SCT100 BKN200 08/M01 Q1029 NOSIG;EQDQ01+000000PRSWM2
0152134624999992000011012304+42430+019280FM-15+0053LYPG V0209999C000010600019N0112651N1+99999+99999999999ADDGA1021+030009999GA2071+060009999GF107991999999999999999999MW1001REMMET057LYPG 1330Z 00000KT 9999 SCT100 BKN200 O7/M00 Q1029 NOSIG;EQDQ01+000000PRSWM2
0144134624999992000011014004+42430+019280FM-15+0053LYPG V0201801N002110300019N0112651N1+00601+00001999999ADDGA1071+030009999GF107991999999999999999999MA1102911999999MW1001REMMET050LYPG 1400Z 18004KT 9999 BKN100 06/M00 Q1029 NOSIG;EQDQ01+000000PRSWM2
0137134624999992000011015004+42430+019280FM-15+0053LYPG V0201501N001010300019N0112651N1+00601+00101999999ADDGA1071+030009999GF107991999999999999999999MA1102911999999MW1001REMMET043LYPG 1500Z 15002KT 9999 BKN100 06/01 Q1029;EQDQ01+000000PRSWM2
0143134624999992000011016004+42430+019280FM-15+0053LYPG V0201601N001010300019N0112651N1+00401+00101999999ADDGA1071+030009999GF107991999999999999999999MA1102911999999MW1001REMMET049LYPG 1600Z 16002KT 9999 BKN100 04/01 Q1029 NOSIG;EQDQ01+000000PRSWM2
0144134624999992000011017004+42430+019280FM-15+0053LYPG V0200501N001012200019N0112651N1+00401-00101999999ADDGA1021+030009999GF104991999999999999999999MA1102911999999MW1001REMMET050LYPG 1700Z 05002KT 9999 SCT100 04/M01 Q1029 NOSIG;EQDQ01+000000PRSWM2
0144134624999992000011018004+42430+019280FM-15+0053LYPG V0202601N001012200019N0112651N1+00101-00101999999ADDGA1021+030009999GF104991999999999999999999MA1102911999999MW1001REMMET050LYPG 1800Z 26002KT 9999 SCT100 01/M01 Q1029 NOSIG;EQDQ01+000000PRSWM2
0167134624999992000011019004+42430+019280FM-15+0053LYPG V0200201N002112200019N0080001N1+00101-00101999999ADDGA1021+033009999GA2021+060009999GF104991999999999999999999MA1102911999999MW1001REMMET057LYPG 1900Z 02004KT 8000 FEW110 SCT200 01/M01 Q1029 NOSIG;EQDQ01+000000PRSWM2
0138134624999992000011020004+42430+019280FM-15+0053LYPG V0209999C000012200019N0080001N1+00101-00101999999ADDGA1021+060009999GF104991999999999999999999MA1103011999999MW1001REMMET044LYPG 2000Z 00000KT 8000 SCT200 01/M01 Q1030;EQDQ01+000000PRSWM2
0090134624999992000011021004+42430+019280FM-15+0053LYPG V0201601N00101220001CN0099001N1+00101-00201999999ADDMA1103011999999MW1001REMMET038LYPG 2100Z 16002KT CAVOK 01/M02 Q1030;EQDQ01+000000PRSWM2
0090134624999992000011022004+42430+019280FM-15+0053LYPG V0200101N00101220001CN0099001N1+00101-00101999999ADDMA1103011999999MW1001REMMET038LYPG 2200Z 01002KT CAVOK 01/M01 Q1030;EQDQ01+000000PRSWM2
0090134624999992000011022304+42430+019280FM-15+0053LYPG V0203601N00211220001CN0099001N1+00101-00101999999ADDMA1103011999999MW1001REMMET038LYPG 2330Z 36004KT CAVOK 01/M01 Q1030;EQDQ01+000000PRSWM2
0090134624999992000011100004+42430+019280FM-15+0053LYPG V0200201N00101220001CN0099001N1+00101-00101999999ADDMA1103011999999MW1001REMMET038LYPG 0000Z 02002KT CAVOK 01/M01 Q1030;EQDQ01+000000PRSWM2
0090134624999992000011101004+42430+019280FM-15+0053LYPG V0200101N00101220001CN0099001N1+00101-00101999999ADDMA1103011999999MW1001REMMET038LYPG 0100Z 01002KT CAVOK 01/M01 Q1030;EQDQ01+000000PRSWM2
0090134624999992000011102004+42430+019280FM-15+0053LYPG V0203601N00101220001CN0099001N1+00201+00001999999ADDMA1103011999999MW1001REMMET038LYPG 0200Z 36002KT CAVOK 02/M00 Q1030;EQDQ01+000000PRSWM2
0090134624999992000011103004+42430+019280FM-15+0053LYPG V0209999C00001220001CN0099001N1+00101+00001999999ADDMA1103011999999MW1001REMMET038LYPG 0300Z 00000KT CAVOK 01/M00 Q1030;EQDQ01+000000PRSWM2
0090134624999992000011104004+42430+019280FM-15+0053LYPG V0209999C00001220001CN0099001N1+00101+00001999999ADDMA1103011999999MW1001REMMET038LYPG 0400Z 00000KT CAVOK 01/M00 Q1030;EQDQ01+000000PRSWM2
0090134624999992000011105004+42430+019280FM-15+0053LYPG V0200301N00101220001CN0099001N1+00101-00201999999ADDMA1103121999999MW1001REMMET038LYPG 0500Z 03002KT CAVOK 01/M02 Q1031;EQDQ01+000000PRSWM2
0172134624999992000011106004+42430+019280FM-15+0053LYPG V0201101N001012200019N0112651N1+00101-00101999999ADDGA1021+015009999GA2021+030009999GF104991999999999999999999MA1103181999999MW1001REMMET062LYPG 0600Z 11002KT 9999 FEW050 SCT100 01/M01 Q1032 BECMG 6000;EQDQ01+000000PRSWM2
0167134624999992000011107004+42430+019280FM-15+0053LYPG V0201501N001010300019N0080001N1+00101-00101999999ADDGA1021+015009999GA2071+030009999GF107991999999999999999999MA1103181999999MW1001REMMET057LYPG 0700Z 15002KT 8000 FEW050 BKN100 01/M01 Q1032 NOSIG;EQDQ01+000000PRSWM2
0166134624999992000011108004+42430+019280FM-15+0053LYPG V0202301N001010300019N0080001N1+00401+00201999999ADDGA1021+015009999GA2071+030009999GF107991999999999999999999MA1103181999999MW1001REMMET056LYPG 0800Z 23002KT 8000 FEW050 BKN100 04/02 Q1032 NOSIG;EQDQ01+000000PRSWM2
0166134624999992000011109004+42430+019280FM-15+0053LYPG V0201601N001012200019N0080001N1+00601+00101999999ADDGA1021+030009999GA2021+060009999GF104991999999999999999999MA1103291999999MW1001REMMET056LYPG 0900Z 16002KT 8000 FEW100 SCT200 06/01 Q1033 NOSIG;EQDQ01+000000PRSWM2
0143134624999992000011110004+42430+019280FM-15+0053LYPG V0201601N002112200019N0112651N1+00801+00001999999ADDGA1021+030009999GF102991999999999999999999MA1103291999999MW1001REMMET049LYPG 1000Z 16004KT 9999 FEW100 08/00 Q1033 NOSIG;EQDQ01+000000PRSWM2
0143134624999992000011111004+42430+019280FM-15+0053LYPG V0201601N002112200019N0112651N1+00801+00101999999ADDGA1021+030009999GF102991999999999999999999MA1103291999999MW1001REMMET049LYPG 1100Z 16004KT 9999 FEW100 08/01 Q1033 NOSIG;EQDQ01+000000PRSWM2
0143134624999992000011112004+42430+019280FM-15+0053LYPG V0201501N002112200019N0112651N1+00901+00001999999ADDGA1021+012009999GF102991999999999999999999MA1103181999999MW1001REMMET049LYPG 1200Z 15004KT 9999 FEW040 09/00 Q1032 NOSIG;EQDQ01+000000PRSWM2
0143134624999992000011113004+42430+019280FM-15+0053LYPG V0201701N002112200019N0112651N1+00901+00201999999ADDGA1021+012009999GF102991999999999999999999MA1103181999999MW1001REMMET049LYPG 1300Z 17004KT 9999 FEW040 09/02 Q1032 NOSIG;EQDQ01+000000PRSWM2
0144134624999992000011114004+42430+019280FM-15+0053LYPG V0201601N002112200019N0112651N1+00801-00101999999ADDGA1021+012009999GF102991999999999999999999MA1103181999999MW1001REMMET050LYPG 1400Z 16004KT 9999 FEW040 08/M01 Q1032 NOSIG;EQDQ01+000000PRSWM2
0144134624999992000011115004+42430+019280FM-15+0053LYPG V0201901N002112200019N0112651N1+00701-00101999999ADDGA1021+030009999GF104991999999999999999999MA1103181999999MW1001REMMET050LYPG 1500Z 19004KT 9999 SCT100 07/M01 Q1032 NOSIG;EQDQ01+000000PRSWM2
0144134624999992000011116004+42430+019280FM-15+0053LYPG V0201801N001012200019N0112651N1+00501-00101999999ADDGA1021+030009999GF104991999999999999999999MA1103181999999MW1001REMMET050LYPG 1600Z 18002KT 9999 SCT100 05/M01 Q1032 NOSIG;EQDQ01+000000PRSWM2
0144134624999992000011117004+42430+019280FM-15+0053LYPG V0203601N006212200019N0112651N1+00601-00501999999ADDGA1021+030009999GF104991999999999999999999MA1103181999999MW1001REMMET050LYPG 1700Z 36012KT 9999 SCT100 06/M05 Q1032 NOSIG;EQDQ01+000000PRSWM2
0144134624999992000011118004+42430+019280FM-15+0053LYPG V0203601N006212200019N0112651N1+00501-00501999999ADDGA1021+030009999GF102991999999999999999999MA1103291999999MW1001REMMET050LYPG 1800Z 36012KT 9999 FEW100 05/M05 Q1033 NOSIG;EQDQ01+000000PRSWM2
0144134624999992000011119004+42430+019280FM-15+0053LYPG V0200101N007212200019N0112651N1+00501-00601999999ADDGA1021+030009999GF102991999999999999999999MA1103291999999MW1001REMMET050LYPG 1900Z 01014KT 9999 FEW100 05/M06 Q1033 NOSIG;EQDQ01+000000PRSWM2
0096134624999992000011120004+42430+019280FM-15+0053LYPG V0203601N00621220001CN0099001N1+00401-00501999999ADDMA1103291999999MW1001REMMET044LYPG 2000Z 36012KT CAVOK 04/M05 Q1033 NOSIG;EQDQ01+000000PRSWM2
0090134624999992000011121004+42430+019280FM-15+0053LYPG V0203501N00621220001CN0099001N1+00501-00501999999ADDMA1103291999999MW1001REMMET038LYPG 2100Z 35012KT CAVOK 05/M05 Q1033;EQDQ01+000000PRSWM2
0090134624999992000011122004+42430+019280FM-15+0053LYPG V0203501N00721220001CN0099001N1+00401-00501999999ADDMA1103291999999MW1001REMMET038LYPG 2200Z 35014KT CAVOK 04/M05 Q1033;EQDQ01+000000PRSWM2
0090134624999992000011123004+42430+019280FM-15+0053LYPG V0200101N00311220001CN0099001N1+00401-00401999999ADDMA1103291999999MW1001REMMET038LYPG 2300Z 01006KT CAVOK 04/M04 Q1033;EQDQ01+000000PRSWM2
0090134624999992000011200004+42430+019280FM-15+0053LYPG V0200101N00411220001CN0099001N1+00401-00501999999ADDMA1103291999999MW1001REMMET038LYPG 0000Z 01008KT CAVOK 04/M05 Q1033;EQDQ01+000000PRSWM2
0090134624999992000011201004+42430+019280FM-15+0053LYPG V0200201N00311220001CN0099001N1+00401-00301999999ADDMA1103291999999MW1001REMMET038LYPG 0100Z 02006KT CAVOK 04/M03 Q1033;EQDQ01+000000PRSWM2
0090134624999992000011202004+42430+019280FM-15+0053LYPG V0200101N00311220001CN0099001N1+00401-00601999999ADDMA1103291999999MW1001REMMET038LYPG 0200Z 01006KT CAVOK 04/M06 Q1033;EQDQ01+000000PRSWM2
0090134624999992000011203004+42430+019280FM-15+0053LYPG V0200201N00411220001CN0099001N1+00401-00501999999ADDMA1103291999999MW1001REMMET038LYPG 0300Z 02008KT CAVOK 04/M05 Q1033;EQDQ01+000000PRSWM2
0090134624999992000011204004+42430+019280FM-15+0053LYPG V0203501N00511220001CN0099001N1+00401-00601999999ADDMA1103291999999MW1001REMMET038LYPG 0400Z 35010KT CAVOK 04/M06 Q1033;EQDQ01+000000PRSWM2
0090134624999992000011205004+42430+019280FM-15+0053LYPG V0200201N00211220001CN0099001N1+00301-00501999999ADDMA1103291999999MW1001REMMET038LYPG 0500Z 02004KT CAVOK 03/M05 Q1033;EQDQ01+000000PRSWM2
0096134624999992000011206004+42430+019280FM-15+0053LYPG V0200601N00101220001CN0099001N1+00101-00401999999ADDMA1103291999999MW1001REMMET044LYPG 0600Z 06002KT CAVOK 01/M04 Q1033 NOSIG;EQDQ01+000000PRSWM2
0145134624999992000011207004+42430+019280FM-15+0053LYPG V0209999C000012200019N0112651N1-00101-00401999999ADDGA1021+030009999GF102991999999999999999999MA1103291999999MW1001REMMET051LYPG 0700Z 00000KT 9999 FEW100 M01/M04 Q1033 NOSIG;EQDQ01+000000PRSWM2
0144134624999992000011207304+42430+019280FM-15+0053LYPG V0200201N001012200019N0112651N1+00501-00301999999ADDGA1021+030009999GF102991999999999999999999MA1103291999999MW1001REMMET050LYPG 0830Z 02002KT 9999 FEW100 05/M03 Q1033 NOSIG;EQDQ01+000000PRSWM2
0144134624999992000011209004+42430+019280FM-15+0053LYPG V0201101N001012200019N0112651N1+00601-00501999999ADDGA1021+030009999GF102991999999999999999999MA1103291999999MW1001REMMET050LYPG 0900Z 11002KT 9999 FEW100 06/M05 Q1033 NOSIF;EQDQ01+000000PRSWM2
0144134624999992000011210004+42430+019280FM-15+0053LYPG V0201401N002112200019N0112651N1+00701-00201999999ADDGA1021+030009999GF102991999999999999999999MA1103291999999MW1001REMMET050LYPG 1000Z 14004KT 9999 FEW100 07/M02 Q1033 NOSIG;EQDQ01+000000PRSWM2
0144134624999992000011210304+42430+019280FM-15+0053LYPG V0201201N001012200019N0112651N1+00701-00201999999ADDGA1021+030009999GF104991999999999999999999MA1103181999999MW1001REMMET050LYPG 1130Z 12002KT 9999 SCT100 07/M02 Q1032 NOSIG;EQDQ01+000000PRSWM2
0144134624999992000011212004+42430+019280FM-15+0053LYPG V0201701N002110300019N0112651N1+00701-00201999999ADDGA1071+030009999GF107991999999999999999999MA1103181999999MW1001REMMET050LYPG 1200Z 17004KT 9999 BKN100 07/M02 Q1032 NOSIG;EQDQ01+000000PRSWM2
0167134624999992000011213004+42430+019280FM-15+0053LYPG V0201501N002112200019N0112651N1+00801-00101999999ADDGA1021+030009999GA2021+060009999GF104991999999999999999999MA1103121999999MW1001REMMET057LYPG 1300Z 15004KT 9999 FEW100 SCT200 08/M01 Q1031 NOSIG;EQDQ01+000000PRSWM2
0167134624999992000011214004+42430+019280FM-15+0053LYPG V0201401N002112200019N0112651N1+00701-00201999999ADDGA1021+030009999GA2021+060009999GF104991999999999999999999MA1103121999999MW1001REMMET057LYPG 1400Z 14004KT 9999 FEW100 SCT200 07/M02 Q1031 NOSIG;EQDQ01+000000PRSWM2
0131134624999992000011214304+42430+019280FM-15+0053LYPG V0201501N001010300019N0112651N1+00601-00201999999ADDGA1071+030009999GF107991999999999999999999MW1001REMMET052LYPG 1530Z 15002KT 9999 BKN100 06/M02 / Q1031 NOSIG;EQDQ01+000000PRSWM2
0167134624999992000011216004+42430+019280FM-15+0053LYPG V0201401N001010300019N0112651N1+00401-00101999999ADDGA1021+015009999GA2071+030009999GF107991999999999999999999MA1103121999999MW1001REMMET057LYPG 1600Z 14002KT 9999 FEW050 BKN100 04/M01 Q1031 NOSIG;EQDQ01+000000PRSWM2
0167134624999992000011217004+42430+019280FM-15+0053LYPG V0201801N001012200019N0112651N1+00201-00101999999ADDGA1021+015009999GA2021+030009999GF104991999999999999999999MA1103181999999MW1001REMMET057LYPG 1700Z 18002KT 9999 FEW050 SCT100 02/M01 Q1032 NOSIG;EQDQ01+000000PRSWM2
0167134624999992000011218004+42430+019280FM-15+0053LYPG V0203601N001010300019N0112651N1+00201-00101999999ADDGA1021+015009999GA2071+030009999GF107991999999999999999999MA1103181999999MW1001REMMET057LYPG 1800Z 36002KT 9999 SCT050 BKN100 02/M01 Q1032 NOSIG;EQDQ01+000000PRSWM2
0167134624999992000011219004+42430+019280FM-15+0053LYPG V0203201N001010150019N0112651N1+00201-00101999999ADDGA1071+015009999GA2081+027009999GF108991999999999999999999MA1103181999999MW1001REMMET057LYPG 1900Z 32002KT 9999 BKN050 OVC090 02/M01 Q1032 NOSIG;EQDQ01+000000PRSWM2
0134134624999992000011219044+42430+019280FM-16+0053LYPG V0203601N004112200019N0112651N1+99999+99999999999ADDGA1021+015009999GA2021+030009999GF104991999999999999999999MW1001REMMET039LYPG 121904 36008KT 9999 FEW050 SCT100;EQDQ01+000000PRSWM2
0167134624999992000011220004+42430+019280FM-15+0053LYPG V0202901N001010150019N0112651N1+00201-00201999999ADDGA1071+015009999GA2071+027009999GF107991999999999999999999MA1103181999999MW1001REMMET057LYPG 2000Z 29002KT 9999 BKN050 BKN090 02/M02 Q1032 NOSIG;EQDQ01+000000PRSWM2
0162134624999992000011221004+42430+019280FM-15+0053LYPG V0203501N002110150019N0112651N1+00201-00101999999ADDGA1071+015009999GA2071+027009999GF107991999999999999999999MA1103181999999MW1001REMMET052LYPG 2100Z 35004KT 9999 BKN050 BKN090 02/M01 Q1032 ;EQDQ01+000000PRSWM2
0161134624999992000011222004+42430+019280FM-15+0053LYPG V0200101N001010150019N0112651N1+00201-00101999999ADDGA1071+015009999GA2071+027009999GF107991999999999999999999MA1103181999999MW1001REMMET051LYPG 2200Z 01002KT 9999 BKN050 BKN090 02/M01 Q1032;EQDQ01+000000PRSWM2
0161134624999992000011222304+42430+019280FM-15+0053LYPG V0200301N001010150019N0112651N1+00201-00101999999ADDGA1071+015009999GA2071+027009999GF107991999999999999999999MA1103181999999MW1001REMMET051LYPG 2330Z 03002KT 9999 BKN050 BKN090 02/M01 Q1032;EQDQ01+000000PRSWM2
0161134624999992000011300004+42430+019280FM-15+0053LYPG V0200301N001010150019N0112651N1+00201-00101999999ADDGA1071+015009999GA2081+027009999GF108991999999999999999999MA1103121999999MW1001REMMET051LYPG 0000Z 03002KT 9999 BKN050 OVC090 02/M01 Q1031;EQDQ01+000000PRSWM2
0161134624999992000011301004+42430+019280FM-15+0053LYPG V0203201N001010270019N0112651N1+00201-00101999999ADDGA1021+015009999GA2081+027009999GF108991999999999999999999MA1103121999999MW1001REMMET051LYPG 0100Z 32002KT 9999 SCT050 OVC090 02/M01 Q1031;EQDQ01+000000PRSWM2
0161134624999992000011303004+42430+019280FM-15+0053LYPG V0200201N000510270019N0112651N1+00201-00101999999ADDGA1021+015009999GA2071+027009999GF107991999999999999999999MA1103121999999MW1001REMMET051LYPG 0300Z 02001KT 9999 SCT050 BKN090 02/M01 Q1031;EQDQ01+000000PRSWM2
0162134624999992000011304004+42430+019280FM-15+0053LYPG V0203301N001010270019N0112651N1+00201-00101999999ADDGA1021+015009999GA2071+027009999GF107991999999999999999999MA1103121999999MW1001REMMET052LYPG 0400Z 33002KT 9999 SCT050 BKN090 02/M01 Q1031 ;EQDQ01+000000PRSWM2
0161134624999992000011305004+42430+019280FM-15+0053LYPG V0203301N002110270019N0112651N1+00201-00101999999ADDGA1021+015009999GA2071+027009999GF107991999999999999999999MA1103011999999MW1001REMMET051LYPG 0500Z 33004KT 9999 SCT050 BKN090 02/M01 Q1030;EQDQ01+000000PRSWM2
0166134624999992000011306004+42430+019280FM-15+0053LYPG V0203501N001010270019N0112651N1+00201+00101999999ADDGA1021+015009999GA2071+027009999GF107991999999999999999999MA1103011999999MW1001REMMET056LYPG 0600Z 35002KT 9999 SCT050 BKN090 02/01 Q1030 NOSIG;EQDQ01+000000PRSWM2
0166134624999992000011307004+42430+019280FM-15+0053LYPG V0203601N001010270019N0112651N1+00201+00101999999ADDGA1021+015009999GA2071+027009999GF107991999999999999999999MA1103011999999MW1001REMMET056LYPG 0700Z 36002KT 9999 SCT050 BKN090 02/01 Q1030 NOSIG;EQDQ01+000000PRSWM2
0166134624999992000011308004+42430+019280FM-15+0053LYPG V0209999C000010270019N0112651N1+00301+00201999999ADDGA1021+015009999GA2071+027009999GF107991999999999999999999MA1103011999999MW1001REMMET056LYPG 0800Z 00000KT 9999 SCT050 BKN090 03/02 Q1030 NOSIG;EQDQ01+000000PRSWM2
0166134624999992000011309004+42430+019280FM-15+0053LYPG V0209999C000010270019N0112651N1+00401+00201999999ADDGA1021+015009999GA2071+027009999GF107991999999999999999999MA1103011999999MW1001REMMET056LYPG 0900Z 00000KT 9999 SCT050 BKN090 04/02 Q1030 NOSIG;EQDQ01+000000PRSWM2
0166134624999992000011310004+42430+019280FM-15+0053LYPG V0200601N001010300019N0112651N1+00701+00301999999ADDGA1021+015009999GA2071+030009999GF107991999999999999999999MA1103011999999MW1001REMMET056LYPG 1000Z 06002KT 9999 SCT050 BKN100 07/03 Q1030 NOSIG;EQDQ01+000000PRSWM2
0166134624999992000011311004+42430+019280FM-15+0053LYPG V0201701N001010300019N0112651N1+00801+00301999999ADDGA1021+015009999GA2071+030009999GF107991999999999999999999MA1102911999999MW1001REMMET056LYPG 1100Z 17002KT 9999 FEW050 BKN100 08/03 Q1029 NOSIG;EQDQ01+000000PRSWM2
0166134624999992000011312004+42430+019280FM-15+0053LYPG V0209999C000010300019N0112651N1+00701+00301999999ADDGA1021+015009999GA2071+030009999GF107991999999999999999999MA1102811999999MW1001REMMET056LYPG 1200Z 00000KT 9999 SCT050 BKN100 07/03 Q1028 NOSIG;EQDQ01+000000PRSWM2
0165134624999992000011312304+42430+019280FM-15+0053LYPG V0202001N002110300019N0112651N1+00801+00401999999ADDGA1021+015009999GA2071+030009999GF107991999999999999999999MA1102811999999MW1001REMMET055LYPG 1330Z 20004KT 9999 SCT050 BKN100 08/04 Q1028NOSIG;EQDQ01+000000PRSWM2
0166134624999992000011314004+42430+019280FM-15+0053LYPG V0202301N002110300019N0112651N1+00801+00201999999ADDGA1021+015009999GA2071+030009999GF107991999999999999999999MA1102811999999MW1001REMMET056LYPG 1400Z 23004KT 9999 FEW050 BKN100 08/02 Q1028 NOSIG;EQDQ01+000000PRSWM2
0166134624999992000011315004+42430+019280FM-15+0053LYPG V0201601N001010300019N0112651N1+00701+00301999999ADDGA1021+015009999GA2071+030009999GF107991999999999999999999MA1102711999999MW1001REMMET056LYPG 1500Z 16002KT 9999 FEW050 BKN100 07/03 Q1027 NOSIG;EQDQ01+000000PRSWM2
0143134624999992000011316004+42430+019280FM-15+0053LYPG V0201901N001012200019N0080001N1+00401+00201999999ADDGA1021+030009999GF102991999999999999999999MA1102811999999MW1001REMMET049LYPG 1600Z 19002KT 8000 FEW100 04/02 Q1028 NOSIG;EQDQ01+000000PRSWM2
0143134624999992000011317004+42430+019280FM-15+0053LYPG V0201101N001012200019N0112651N1+00301+00101999999ADDGA1021+030009999GF102991999999999999999999MA1102811999999MW1001REMMET049LYPG 1700Z 11002KT 9999 FEW100 03/01 Q1028 NOSIG;EQDQ01+000000PRSWM2
0163134624999992000011319004+42430+019280FM-15+0053LYPG V0203401N001012200019N0015001N1+00101-00101999999ADDGA1021+030009999GF102991999999999999999999MA1102811999999MW1041REMMET053LYPG 1900Z 34002KT 1500 FU FEW100 01/M01 Q1028 NOSIG;EQDQ01+000003PRSWM1Q02    003PRSWM1
0138134624999992000011320004+42430+019280FM-15+0053LYPG V0200301N002112200019N0015001N1+00101+00001999999ADDGF100991999999999999999999MA1102711999999MW1041REMMET044LYPG 2000Z 03004KT 1500 FU SKC 01/M00 Q1027;EQDQ01+000003PRSWM1Q02    003PRSWM1
0139134624999992000011321004+42430+019280FM-15+0053LYPG V0203001N002112200019N0020001N1-00101-00201999999ADDGF100991999999999999999999MA1102711999999MW1041REMMET045LYPG 2100Z 30004KT 2000 FU SKC M01/M02 Q1027;EQDQ01+000003PRSWM1Q02    003PRSWM1
0139134624999992000011322004+42430+019280FM-15+0053LYPG V0203301N001012200019N0050001N1-00101-00201999999ADDGF100991999999999999999999MA1102711999999MW1041REMMET045LYPG 2200Z 33002KT 5000 FU SKC M01/M02 Q1027;EQDQ01+000003PRSWM1Q02    003PRSWM1
0091134624999992000011323004+42430+019280FM-15+0053LYPG V0200201N00211220001CN0099001N1+00001-00101999999ADDMA1102711999999MW1001REMMET039LYPG 2300Z 02004KT CAVOK M00/M01 Q1027;EQDQ01+000000PRSWM2
0091134624999992000011400004+42430+019280FM-15+0053LYPG V0203301N00211220001CN0099001N1-00101-00201999999ADDMA1102711999999MW1001REMMET039LYPG 0000Z 33004KT CAVOK M01/M02 Q1027;EQDQ01+000000PRSWM2
0091134624999992000011401004+42430+019280FM-15+0053LYPG V0200101N00211220001CN0099001N1-00101-00201999999ADDMA1102711999999MW1001REMMET039LYPG 0100Z 01004KT CAVOK M01/M02 Q1027;EQDQ01+000000PRSWM2
0091134624999992000011401304+42430+019280FM-15+0053LYPG V0203301N00211220001CN0099001N1-00201-00201999999ADDMA1102611999999MW1001REMMET039LYPG 0230Z 33004KT CAVOK M02/M02 Q1026;EQDQ01+000000PRSWM2
0120134624999992000011403004+42430+019280FM-15+0053LYPG V0203301N001012200019N0080001N1-00201-00301999999ADDGF100991999999999999999999MA1102611999999MW1001REMMET042LYPG 0300Z 33002KT 8000 SKC M02/M03 Q1026;EQDQ01+000000PRSWM2
0120134624999992000011404004+42430+019280FM-15+0053LYPG V0200601N003112200019N0080001N1-00201-00301999999ADDGF100991999999999999999999MA1102611999999MW1001REMMET042LYPG 0400Z 06006KT 8000 SKC M02/M03 Q1026;EQDQ01+000000PRSWM2
0162134624999992000011405004+42430+019280FM-15+0053LYPG V0203001N002110300019N0080001N1-00201-00301999999ADDGA1021+015009999GA2071+030009999GF107991999999999999999999MA1102611999999MW1001REMMET052LYPG 0500Z 30004KT 8000 FEW050 BKN100 M02/M03 Q1026;EQDQ01+000000PRSWM2
0150134624999992000011405304+42430+019280FM-15+0053LYPG V0203501N001012200019N0060001N1-00201-00201999999ADDGA1021+030009999GF104991999999999999999999MA1102511999999MW1001REMMET056LYPG 0630Z 35002KT 6000 SCT100 M02/M02 Q1025 BECMG 5000;EQDQ01+000000PRSWM2
0161134624999992000011406004+42430+019280FM-16+0053LYPG V0200101N001012200019N0080001N1+99999+99999999999ADDGA1021+015009999GA2021+030009999GF104991999999999999999999MW1001REMMET066LYPG 0600Z 01002KT 8000 FEW050 SCT100 -02 M02 Q1025 BECMG 5000 BR;EQDQ01+000000PRSWM2
0164134624999992000011407004+42430+019280FM-15+0053LYPG V0200201N001012200019N0050001N1-00101-00201999999ADDGA1021+030009999GF104991999999999999999999MA1102511999999MW1101REMMET054LYPG 0700Z 02002KT 5000 BR SCT100 M01/M02 Q1025 NOSIG;EQDQ01+000003PRSWM1Q02    003PRSWM1
0163134624999992000011407304+42430+019280FM-15+0053LYPG V0202701N001012200019N0050001N1+00201-00101999999ADDGA1021+030009999GF102991999999999999999999MA1102611999999MW1101REMMET053LYPG 0830Z 27002KT 5000 BR FEW100 02/M01 Q1026 NOSIG;EQDQ01+000003PRSWM1Q02    003PRSWM1
0185134624999992000011408304+42430+019280FM-15+0053LYPG V0209999C000012200019N0050001N1+00401+00101999999ADDGA1021+030009999GA2021+060009999GF104991999999999999999999MA1102611999999MW1101REMMET059LYPG 0930Z 00000KT 5000 BR FEW100 SCT200 04/01 Q1026 NOSIG;EQDQ01+000003PRSWM1Q02    003PRSWM1
0166134624999992000011410004+42430+019280FM-15+0053LYPG V0202101N001012200019N0060001N1+00601+00201999999ADDGA1021+030009999GA2021+060009999GF104991999999999999999999MA1102511999999MW1001REMMET056LYPG 1000Z 21002KT 6000 FEW100 SCT200 06/02 Q1025 NOSIG;EQDQ01+000000PRSWM2
0166134624999992000011411004+42430+019280FM-15+0053LYPG V0202001N001012200019N0080001N1+00701+00201999999ADDGA1021+030009999GA2021+060009999GF104991999999999999999999MA1102511999999MW1001REMMET056LYPG 1100Z 20002KT 8000 FEW100 SCT200 07/02 Q1025 NOSIG;EQDQ01+000000PRSWM2
0143134624999992000011412004+42430+019280FM-15+0053LYPG V0201901N001012200019N0080001N1+00901+00101999999ADDGA1021+060009999GF104991999999999999999999MA1102401999999MW1001REMMET049LYPG 1200Z 19002KT 8000 SCT200 09/01 Q1024 NOSIG;EQDQ01+000000PRSWM2
0143134624999992000011413004+42430+019280FM-15+0053LYPG V0201801N001012200019N0080001N1+01001+00201999999ADDGA1021+060009999GF102991999999999999999999MA1102301999999MW1001REMMET049LYPG 1300Z 18002KT 8000 FEW200 10/02 Q1023 NOSIG;EQDQ01+000000PRSWM2
0143134624999992000011414004+42430+019280FM-15+0053LYPG V0201801N002110600019N0080001N1+00701+00101999999ADDGA1071+060009999GF107991999999999999999999MA1102301999999MW1001REMMET049LYPG 1400Z 18004KT 8000 BKN200 07/01 Q1023 NOSIG;EQDQ01+000000PRSWM2
0166134624999992000011414304+42430+019280FM-15+0053LYPG V0201701N001010600019N0080001N1+00601+00301999999ADDGA1021+030009999GA2071+060009999GF107991999999999999999999MA1102201999999MW1001REMMET056LYPG 1530Z 17002KT 8000 FEW100 BKN200 06/03 Q1022 NOSIG;EQDQ01+000000PRSWM2
0153134624999992000011416004+42430+019280FM-15+0053LYPG V0201501N002112200019N0060001N1+00301+00101999999ADDGA1021+060009999GF104991999999999999999999MA1102201999999MW1001REMMET059LYPG 1600Z 15004KT 6000 SCT200 03/01 Q1022 NOBECMG 3000 BR;EQDQ01+000000PRSWM2
0143134624999992000011417004+42430+019280FM-15+0053LYPG V0201201N001012200019N0080001N1+00201+00001999999ADDGA1021+060009999GF104991999999999999999999MA1102301999999MW1001REMMET049LYPG 1700Z 12002KT 8000 SCT200 02/00 Q1023 NOSIG;EQDQ01+000000PRSWM2
0144134624999992000011418004+42430+019280FM-15+0053LYPG V0203601N002112200019N0080001N1+00101-00101999999ADDGA1021+060009999GF104991999999999999999999MA1102301999999MW1001REMMET050LYPG 1800Z 36004KT 8000 SCT200 01/M01 Q1023 NOSIG;EQDQ01+000000PRSWM2
0167134624999992000011419004+42430+019280FM-15+0053LYPG V0200401N001012200019N0060001N1+00101-00101999999ADDGA1021+030009999GA2021+060009999GF104991999999999999999999MA1102301999999MW1001REMMET057LYPG 1900Z 04002KT 6000 FEW100 SCT200 01/M01 Q1023 NOSIG;EQDQ01+000000PRSWM2
0119134624999992000011420004+42430+019280FM-15+0053LYPG V0203301N002112200019N0060001N1+00001-00201999999ADDGF100991999999999999999999MA1102401999999MW1001REMMET041LYPG 2000Z 33004KT 6000 SKC 00/M02 Q1024;EQDQ01+000000PRSWM2
0139134624999992000011421004+42430+019280FM-15+0053LYPG V0203401N002112200019N0050001N1+00001-00101999999ADDGF100991999999999999999999MA1102401999999MW1101REMMET045LYPG 2100Z 34004KT 5000 BR SKC M00/M01 Q1024;EQDQ01+000003PRSWM1Q02    003PRSWM1
0140134624999992000011422004+42430+019280FM-15+0053LYPG V0200101N001012200019N0040001N1-00101-00201999999ADDGF100991999999999999999999MA1102401999999MW1101REMMET046LYPG 2200Z 01002KT 4000S BR SKC M01/M02 Q1024;EQDQ01+000003PRSWM1Q02    003PRSWM1
0140134624999992000011423004+42430+019280FM-15+0053LYPG V0203401N003112200019N0030001N1-00101-00201999999ADDGF100991999999999999999999MA1102511999999MW1101REMMET046LYPG 2300Z 34006KT 3000S BR SKC M01/M02 Q1025;EQDQ01+000003PRSWM1Q02    003PRSWM1
0140134624999992000011500004+42430+019280FM-15+0053LYPG V0203501N003112200019N0040001N1-00101-00201999999ADDGF100991999999999999999999MA1102511999999MW1101REMMET046LYPG 0000Z 35006KT 4000S BR SKC M01/M02 Q1025;EQDQ01+000003PRSWM1Q02    003PRSWM1
0139134624999992000011501004+42430+019280FM-15+0053LYPG V0203401N002112200019N0050001N1-00101-00201999999ADDGF100991999999999999999999MA1102511999999MW1101REMMET045LYPG 0100Z 34004KT 5000 BR SKC M01/M02 Q1025;EQDQ01+000003PRSWM1Q02    003PRSWM1
0120134624999992000011503004+42430+019280FM-15+0053LYPG V0202901N002112200019N0060001N1-00201-00301999999ADDGF100991999999999999999999MA1102401999999MW1001REMMET042LYPG 0300Z 29004KT 6000 SKC M02/M03 Q1024;EQDQ01+000000PRSWM2
0162134624999992000011504004+42430+019280FM-15+0053LYPG V0203501N002112200019N0080001N1-00101-00201999999ADDGA1021+030009999GA2021+060009999GF104991999999999999999999MA1102401999999MW1001REMMET052LYPG 0400Z 35004KT 8000 FEW100 SCT200 M01/M02 Q1024;EQDQ01+000000PRSWM2
0162134624999992000011504304+42430+019280FM-15+0053LYPG V0203301N001512200019N0080001N1-00101-00201999999ADDGA1021+030009999GA2021+060009999GF104991999999999999999999MA1102401999999MW1001REMMET052LYPG 0530Z 33003KT 8000 FEW100 SCT200 M01/M02 Q1024;EQDQ01+000000PRSWM2
0199134624999992000011506004+42430+019280FM-15+0053LYPG V0203301N001010600019N0080001N1-00201-00301999999ADDGA1021+015009999GA2021+030009999GA3071+060009999GF107991999999999999999999MA1102401999999MW1001REMMET073LYPG 0600Z 33002KT 8000 FEW050 SCT100 BKN200 M02/M03 Q1024 BECMG 2000 BR;EQDQ01+000000PRSWM2
0211134624999992000011507004+42430+019280FM-15+0053LYPG V0203601N001010600019N0020001N1-00201-00401999999ADDGA1021+015009999GA2021+030009999GA3071+060009999GF107991999999999999999999MA1102511999999MW1101REMMET069LYPG 0700Z 36002KT 2000S BR FEW050 SCT100 BKN200 M02/M04 Q1025 NOSIG;EQDQ01+000003PRSWM1Q02    003PRSWM1
0155134624999992000011508004+42430+019280FM-15+0053LYPG V0203301N002112200019N0020001N1+99999+99999999999ADDGA1021+012009999GF102991999999999999999999MW1001MW2101REMMET070LYPG 0800Z 33004KT 2000S BR FEW040 B SCT100 BKN200 00/M03 Q1025 NOSIG;EQDQ01+000003PRSWM1
0183134624999992000011508304+42430+019280FM-15+0053LYPG V0209999C000010600019N9999999N1+00301-00301999999ADDGA1021+030009999GA2071+060009999GF107991999999999999999999MA1102511999999MW1001REMMET057LYPG 0930Z 00000KT 2000 SCT100 BKN200 03/M03 Q1025 NOSIG;EQDQ01+020002VODIS Q02+000000PRSWM2
0185134624999992000011510004+42430+019280FM-15+0053LYPG V0209999C000010600019N0020001N1+00701+00101999999ADDGA1021+030009999GA2071+060009999GF107991999999999999999999MA1102511999999MW1101REMMET059LYPG 1000Z 00000KT 2000 BR SCT100 BKN200 07/01 Q1025 NOSIG;EQDQ01+000003PRSWM1Q02    003PRSWM1
0162134624999992000011511004+42430+019280FM-15+0053LYPG V0201901N001012200019N0030001N1+00801+00101999999ADDGA1021+060009999GF104991999999999999999999MA1102511999999MW1101REMMET052LYPG 1100Z 19002KT 3000 BR SCT200 08/01 Q1025 NOSIG;EQDQ01+000003PRSWM1Q02    003PRSWM1
0163134624999992000011512004+42430+019280FM-15+0053LYPG V0209999C000012200019N0050001N1+01001-00101999999ADDGA1021+060009999GF104991999999999999999999MA1102401999999MW1101REMMET053LYPG 1200Z 00000KT 5000 BR SCT200 10/M01 Q1024 NOSIG;EQDQ01+000003PRSWM1Q02    003PRSWM1
0160134624999992000011513004+42430+019280FM-15+0053LYPG V0201901N001010600019N9999999N1+01001-00101999999ADDGA1071+060009999GF107991999999999999999999MA1102301999999MW1001REMMET050LYPG 1300Z 19002KT 6000 BKN200 10/M01 Q1023 NOSIG;EQDQ01+060002VODIS Q02+000000PRSWM2
0095134624999992000011514004+42430+019280FM-15+0053LYPG V0201901N00101220001CN0099001N1+00901+00101999999ADDMA1102301999999MW1001REMMET043LYPG 1400Z 19002KT CAVOK 09/01 Q1023 NOSIG;EQDQ01+000000PRSWM2
0095134624999992000011515004+42430+019280FM-15+0053LYPG V0201701N00101220001CN0099001N1+00701+00201999999ADDMA1102301999999MW1001REMMET043LYPG 1500Z 17002KT CAVOK 07/02 Q1023 NOSIG;EQDQ01+000000PRSWM2
0143134624999992000011516004+42430+019280FM-15+0053LYPG V0201901N001012200019N0080001N1+00501+00101999999ADDGA1021+036009999GF104991999999999999999999MA1102301999999MW1001REMMET049LYPG 1600Z 19002KT 8000 SCT120 05/01 Q1023 NOSIG;EQDQ01+000000PRSWM2
0143134624999992000011517004+42430+019280FM-15+0053LYPG V0209999C000012200019N0080001N1+00301+00101999999ADDGA1021+036009999GF104991999999999999999999MA1102301999999MW1001REMMET049LYPG 1700Z 00000KT 8000 SCT120 03/01 Q1023 NOSIG;EQDQ01+000000PRSWM2
0144134624999992000011518004+42430+019280FM-15+0053LYPG V0201501N001012200019N0080001N1+00201-00101999999ADDGA1021+036009999GF102991999999999999999999MA1102301999999MW1001REMMET050LYPG 1800Z 15002KT 8000 FEW120 02/M01 Q1023 NOSIG;EQDQ01+000000PRSWM2
0132134624999992000011519004+42430+019280FM-15+0053LYPG V0200401N001012200019N0080001N1+00101-00101999999ADDGA1021+060009999GF102991999999999999999999MW1001REMMET053LYPG 1900Z 04002KT 8000 FEW200 01/M01 Q1923EEE Q1023;EQDQ01+000000PRSWM2
0139134624999992000011520004+42430+019280FM-15+0053LYPG V0209999C000012200019N0040001N1+00001-00101999999ADDGF100991999999999999999999MA1102401999999MW1101REMMET045LYPG 2000Z 00000KT 4000 BR SKC M00/M01 Q1024;EQDQ01+000003PRSWM1Q02    003PRSWM1
0138134624999992000011521004+42430+019280FM-15+0053LYPG V0203301N002112200019N0030001N1+00001-00101999999ADDGF100991999999999999999999MA1102401999999MW1101REMMET044LYPG 2100Z 33004KT 3000 BR SKC 00/M01 Q1024;EQDQ01+000003PRSWM1Q02    003PRSWM1
0139134624999992000011522004+42430+019280FM-15+0053LYPG V0200201N002112200019N0030001N1+00001-00101999999ADDGF100991999999999999999999MA1102401999999MW1101REMMET045LYPG 2200Z 02004KT 3000 BR SKC M00/M01 Q1024;EQDQ01+000003PRSWM1Q02    003PRSWM1
0139134624999992000011523004+42430+019280FM-15+0053LYPG V0203401N003112200019N0030001N1-00101-00201999999ADDGF100991999999999999999999MA1102401999999MW1101REMMET045LYPG 2300Z 34006KT 3000 BR SKC M01/M02 Q1024;EQDQ01+000003PRSWM1Q02    003PRSWM1
0139134624999992000011600004+42430+019280FM-15+0053LYPG V0203501N002112200019N0040001N1-00101-00201999999ADDGF100991999999999999999999MA1102401999999MW1101REMMET045LYPG 0000Z 35004KT 4000 BR SKC M01/M02 Q1024;EQDQ01+000003PRSWM1Q02    003PRSWM1
0139134624999992000011601004+42430+019280FM-15+0053LYPG V0203501N002112200019N0050001N1+00001-00201999999ADDGF100991999999999999999999MA1102401999999MW1101REMMET045LYPG 0100Z 35004KT 5000 BR SKC M00/M02 Q1024;EQDQ01+000003PRSWM1Q02    003PRSWM1
0139134624999992000011602004+42430+019280FM-15+0053LYPG V0203501N002112200019N0050001N1+00001-00101999999ADDGF100991999999999999999999MA1102401999999MW1101REMMET045LYPG 0200Z 35004KT 5000 BR SKC M00/M01 Q1024;EQDQ01+000003PRSWM1Q02    003PRSWM1
0120134624999992000011603004+42430+019280FM-15+0053LYPG V0203601N002112200019N0080001N1-00101-00201999999ADDGF100991999999999999999999MA1102301999999MW1001REMMET042LYPG 0300Z 36004KT 8000 SKC M01/M02 Q1023;EQDQ01+000000PRSWM2
0120134624999992000011604004+42430+019280FM-15+0053LYPG V0203501N002112200019N0080001N1-00201-00301999999ADDGF100991999999999999999999MA1102301999999MW1001REMMET042LYPG 0400Z 35004KT 8000 SKC M02/M03 Q1023;EQDQ01+000000PRSWM2
0139134624999992000011605004+42430+019280FM-15+0053LYPG V0203301N001012200019N0050001N1-00201-00301999999ADDGF100991999999999999999999MA1102301999999MW1101REMMET045LYPG 0500Z 33002KT 5000 BR SKC M02/M03 Q1023;EQDQ01+000003PRSWM1Q02    003PRSWM1
0168134624999992000011606004+42430+019280FM-15+0053LYPG V0203301N001012200019N0060001N1-00101-00201999999ADDGA1021+030009999GA2021+060009999GF104991999999999999999999MA1102401999999MW1001REMMET058LYPG 0600Z 33002KT 6000 FEW100 SCT200 M01/M02 Q1024 NOSIG;EQDQ01+000000PRSWM2
0189134624999992000011607004+42430+019280FM-15+0053LYPG V0203501N001012200019N0040001N1-00201-00301999999ADDGA1021+030009999GA2021+060009999GF104991999999999999999999MA1102401999999MW1101REMMET063LYPG 0700Z 35002KT 4000SE BR FEW100 SCT200 M02/M03 Q1024 NOSIG;EQDQ01+000003PRSWM1Q02    003PRSWM1
0167134624999992000011608004+42430+019280FM-15+0053LYPG V0203301N005112200019N0080001N1+00301-00201999999ADDGA1021+030009999GA2021+060009999GF104991999999999999999999MA1102511999999MW1001REMMET057LYPG 0800Z 33010KT 8000 FEW100 SCT200 03/M02 Q1025 NOSIG;EQDQ01+000000PRSWM2
0167134624999992000011609004+42430+019280FM-15+0053LYPG V0203401N001012200019N0112651N1+00601-00701999999ADDGA1021+030009999GA2021+060009999GF104991999999999999999999MA1102511999999MW1001REMMET057LYPG 0900Z 34002KT 9999 FEW100 SCT200 06/M07 Q1025 NOSIG;EQDQ01+000000PRSWM2
0167134624999992000011610004+42430+019280FM-15+0053LYPG V0203501N007212200019N0112651N1+00701-00701999999ADDGA1021+030009999GA2021+060009999GF104991999999999999999999MA1102511999999MW1001REMMET057LYPG 1000Z 35014KT 9999 FEW100 SCT200 07/M07 Q1025 NOSIG;EQDQ01+000000PRSWM2
0167134624999992000011611004+42430+019280FM-15+0053LYPG V0203601N006212200019N0112651N1+00701-00801999999ADDGA1021+012009999GA2021+060009999GF104991999999999999999999MA1102511999999MW1001REMMET057LYPG 1100Z 36012KT 9999 FEW040 SCT200 07/M08 Q1025 NOSIG;EQDQ01+000000PRSWM2
0167134624999992000011612004+42430+019280FM-15+0053LYPG V0200201N005112200019N0112651N1+00801-00901999999ADDGA1021+012009999GA2021+060009999GF104991999999999999999999MA1102401999999MW1001REMMET057LYPG 1200Z 02010KT 9999 FEW040 SCT200 08/M09 Q1024 NOSIG;EQDQ01+000000PRSWM2
0096134624999992000011613004+42430+019280FM-15+0053LYPG V0201501N00311220001CN0099001N1+00801-00401999999ADDMA1102401999999MW1001REMMET044LYPG 1300Z 15006KT CAVOK 08/M04 Q1024 NOSIG;EQDQ01+000000PRSWM2
0096134624999992000011614004+42430+019280FM-15+0053LYPG V0201201N00211220001CN0099001N1+00701-00401999999ADDMA1102301999999MW1001REMMET044LYPG 1400Z 12004KT CAVOK 07/M04 Q1023 NOSIG;EQDQ01+000000PRSWM2
0095134624999992000011615004+42430+019280FM-15+0053LYPG V0201801N00311220001CN0099001N1+00501-00201999999ADDMA1102301999999MW1001REMMET043LYPG 1500Z 18006KT CAVOK 05/M02 Q1023 OSIG;EQDQ01+000000PRSWM2
0160134624999992000011616004+42430+019280FM-15+0053LYPG V0200201N003112200019N9999999N1+00501-00301999999ADDGA1021+030009999GF104991999999999999999999MA1102301999999MW1001REMMET050LYPG 1600Z 02006KT C999 SCT100 05/M03 Q1023 NOSIG;EQDQ01+020002VODIS Q02+000000PRSWM2
0089134624999992000011617004+42430+019280FM-15+0053LYPG V0200201N008212200019N0112651N1+99999+99999999999ADDMW1001REMMET052LYPG 1700Z 02016KT 9999 C SCT100 04/M07 Q1024 NOSIG;EQDQ01+000000PRSWM2
0144134624999992000011618004+42430+019280FM-15+0053LYPG V0200201N008212200019N0112651N1+00401-00801999999ADDGA1021+030009999GF104991999999999999999999MA1102401999999MW1001REMMET050LYPG 1800Z 02016KT 9999 SCT100 04/M08 Q1024 NOSIG;EQDQ01+000000PRSWM2
0066134624999992000011618304+42430+019280FM-16+0053LYPG V0200101N007212200019N0112651N1+99999+99999999999ADDMW1001REMMET029LYPG 1830 01014KT 9999 SCT2 ;EQDQ01+000000PRSWM2
0144134624999992000011619004+42430+019280FM-15+0053LYPG V0200101N006212200019N0112651N1+00401-00701999999ADDGA1021+030009999GF104991999999999999999999MA1102401999999MW1001REMMET050LYPG 1900Z 01012KT 9999 SCT100 04/M07 Q1024 NOSIG;EQDQ01+000000PRSWM2
0138134624999992000011620004+42430+019280FM-15+0053LYPG V0200101N006212200019N0112651N1+00301-00801999999ADDGA1021+030009999GF104991999999999999999999MA1102401999999MW1001REMMET044LYPG 2000Z 01012KT 9999 SCT100 03/M08 Q1024;EQDQ01+000000PRSWM2
0138134624999992000011621004+42430+019280FM-15+0053LYPG V0200101N007212200019N0112651N1+00301-00801999999ADDGA1021+030009999GF104991999999999999999999MA1102401999999MW1001REMMET044LYPG 2100Z 01014KT 9999 SCT100 03/M08 Q1024;EQDQ01+000000PRSWM2
0138134624999992000011622004+42430+019280FM-15+0053LYPG V0200101N008212200019N0112651N1+00301-00801999999ADDGA1021+030009999GF104991999999999999999999MA1102401999999MW1001REMMET044LYPG 2200Z 01016KT 9999 SCT100 03/M08 Q1024;EQDQ01+000000PRSWM2
0138134624999992000011623004+42430+019280FM-15+0053LYPG V0203601N006212200019N0112651N1+00301-00801999999ADDGA1021+030009999GF104991999999999999999999MA1102401999999MW1001REMMET044LYPG 2300Z 36012KT 9999 SCT100 03/M08 Q1024;EQDQ01+000000PRSWM2
0138134624999992000011700004+42430+019280FM-15+0053LYPG V0200101N009310300019N0112651N1+00301-00901999999ADDGA1071+030009999GF107991999999999999999999MA1102301999999MW1001REMMET044LYPG 0000Z 01018KT 9999 BKN100 03/M09 Q1023;EQDQ01+000000PRSWM2
0138134624999992000011701004+42430+019280FM-15+0053LYPG V0200101N007210300019N0112651N1+00301-01001999999ADDGA1071+030009999GF107991999999999999999999MA1102301999999MW1001REMMET044LYPG 0100Z 01014KT 9999 BKN100 03/M10 Q1023;EQDQ01+000000PRSWM2
0138134624999992000011702004+42430+019280FM-15+0053LYPG V0200101N008210300019N0112651N1+00301-01001999999ADDGA1071+030009999GF107991999999999999999999MA1102301999999MW1001REMMET044LYPG 0200Z 01016KT 9999 BKN100 03/M10 Q1023;EQDQ01+000000PRSWM2
0138134624999992000011703004+42430+019280FM-15+0053LYPG V0203601N009310300019N0112651N1+00301-01101999999ADDGA1071+030009999GF107991999999999999999999MA1102201999999MW1001REMMET044LYPG 0300Z 36018KT 9999 BKN100 03/M11 Q1022;EQDQ01+000000PRSWM2
0138134624999992000011704004+42430+019280FM-15+0053LYPG V0200101N009310300019N0112651N1+00301-01101999999ADDGA1071+030009999GF107991999999999999999999MA1102201999999MW1001REMMET044LYPG 0400Z 01018KT 9999 BKN100 03/M11 Q1022;EQDQ01+000000PRSWM2
0138134624999992000011705004+42430+019280FM-15+0053LYPG V0200101N007210300019N0112651N1+00201-01001999999ADDGA1071+030009999GF107991999999999999999999MA1102201999999MW1001REMMET044LYPG 0500Z 01014KT 9999 BKN100 02/M10 Q1022;EQDQ01+000000PRSWM2
0144134624999992000011706004+42430+019280FM-15+0053LYPG V0203601N009310300019N0112651N1+00201-00901999999ADDGA1071+030009999GF107991999999999999999999MA1102101999999MW1001REMMET050LYPG 0600Z 36018KT 9999 BKN100 02/M09 Q1021 NOSIG;EQDQ01+000000PRSWM2
0144134624999992000011707004+42430+019280FM-15+0053LYPG V0203501N006212200019N0112651N1+00101-00801999999ADDGA1021+030009999GF102991999999999999999999MA1102101999999MW1001REMMET050LYPG 0700Z 35012KT 9999 FEW100 01/M08 Q1021 NOSIG;EQDQ01+000000PRSWM2
0144134624999992000011708004+42430+019280FM-15+0053LYPG V0203501N006212200019N0112651N1+00301-01001999999ADDGA1021+015009999GF102991999999999999999999MA1102101999999MW1001REMMET050LYPG 0800Z 35012KT 9999 FEW050 03/M10 Q1021 NOSIG;EQDQ01+000000PRSWM2
0096134624999992000011709004+42430+019280FM-15+0053LYPG V0203501N00821220001CN0099001N1+00401-01001999999ADDMA1102001999999MW1001REMMET044LYPG 0900Z 35016KT CAVOK 04/M10 Q1020 NOSIG;EQDQ01+000000PRSWM2
0096134624999992000011710004+42430+019280FM-15+0053LYPG V0203401N00721220001CN0099001N1+00501-00801999999ADDMA1101901999999MW1001REMMET044LYPG 1000Z 34014KT CAVOK 05/M08 Q1019 NOSIG;EQDQ01+000000PRSWM2
0144134624999992000011711004+42430+019280FM-15+0053LYPG V0203301N003112200019N0112651N1+00701-00701999999ADDGA1021+030009999GF102991999999999999999999MA1101691999999MW1001REMMET050LYPG 1100Z 33006KT 9999 FEW100 07/M07 Q1017 NOSIG;EQDQ01+000000PRSWM2
0144134624999992000011712004+42430+019280FM-15+0053LYPG V0203301N002112200019N0112651N1+00801-00601999999ADDGA1021+030009999GF104991999999999999999999MA1101591999999MW1001REMMET050LYPG 1200Z 33004KT 9999 SCT100 08/M06 Q1016 NOSIG;EQDQ01+000000PRSWM2
0144134624999992000011713004+42430+019280FM-15+0053LYPG V0202401N001012200019N0112651N1+00701-00701999999ADDGA1021+030009999GF102991999999999999999999MA1101491999999MW1001REMMET050LYPG 1300Z 24002KT 9999 FEW100 07/M07 Q1015 NOSIG;EQDQ01+000000PRSWM2
0144134624999992000011714004+42430+019280FM-15+0053LYPG V0201801N002112200019N0112651N1+00801-00501999999ADDGA1021+030009999GF102991999999999999999999MA1101391999999MW1001REMMET050LYPG 1400Z 18004KT 9999 FEW100 08/M05 Q1014 NOSIG;EQDQ01+000000PRSWM2
0144134624999992000011715004+42430+019280FM-15+0053LYPG V0201501N002112200019N0112651N1+00601-00601999999ADDGA1021+030009999GF104991999999999999999999MA1101291999999MW1001REMMET050LYPG 1500Z 15004KT 9999 SCT100 06/M06 Q1013 NOSIG;EQDQ01+000000PRSWM2
0167134624999992000011716004+42430+019280FM-15+0053LYPG V0201601N001010300019N0112651N1+00401-00501999999ADDGA1021+015009999GA2071+030009999GF107991999999999999999999MA1101291999999MW1001REMMET057LYPG 1600Z 16002KT 9999 FEW050 BKN100 04/M05 Q1013 NOSIG;EQDQ01+000000PRSWM2
0167134624999992000011717004+42430+019280FM-15+0053LYPG V0201601N002110300019N0112651N1+00301-00501999999ADDGA1021+015009999GA2071+030009999GF107991999999999999999999MA1101291999999MW1001REMMET057LYPG 1700Z 16004KT 9999 FEW050 BKN100 03/M05 Q1013 NOSIG;EQDQ01+000000PRSWM2
0167134624999992000011717304+42430+019280FM-15+0053LYPG V0200601N001010300019N0112651N1+00201-00501999999ADDGA1021+015009999GA2071+030009999GF107991999999999999999999MA1101191999999MW1001REMMET057LYPG 1830Z 06002KT 9999 FEW050 BKN100 02/M05 Q1012 NOSIG;EQDQ01+000000PRSWM2
0167134624999992000011719004+42430+019280FM-15+0053LYPG V0209999C000010270019N0112651N1+00301-00401999999ADDGA1021+015009999GA2071+027009999GF107991999999999999999999MA1101191999999MW1001REMMET057LYPG 1900Z 00000KT 9999 SCT050 BKN090 03/M04 Q1012 NOSIG;EQDQ01+000000PRSWM2
0162134624999992000011720004+42430+019280FM-15+0053LYPG V0200301N001010270019N0112651N1+00301-00301999999ADDGA1021+015009999GA2071+027009999GF107991999999999999999999MA1101191999999MW1001REMMET052LYPG 2000Z 03002KT 9999 SCT050 BKN090 03/M03 Q1012 ;EQDQ01+000000PRSWM2
0161134624999992000011720304+42430+019280FM-15+0053LYPG V0202701N001010270019N0112651N1+00201-00301999999ADDGA1021+015009999GA2071+027009999GF107991999999999999999999MA1101081999999MW1001REMMET051LYPG 2130Z 27002KT 9999 SCT050 BKN090 02/M03 Q1011;EQDQ01+000000PRSWM2
0161134624999992000011721304+42430+019280FM-15+0053LYPG V0209999C000010270019N0112651N1+00201-00301999999ADDGA1021+015009999GA2071+027009999GF107991999999999999999999MA1101021999999MW1001REMMET051LYPG 2230Z 00000KT 9999 SCT050 BKN090 02/M03 Q1010;EQDQ01+000000PRSWM2
0162134624999992000011723004+42430+019280FM-15+0053LYPG V0203401N001010270019N0112651N1+00301-00301999999ADDGA1021+015009999GA2071+027009999GF107991999999999999999999MA1100911999999MW1001REMMET052LYPG 2300Z 34002KT 9999 SCT050 BKN090 03/M03 Q1009 ;EQDQ01+000000PRSWM2
0161134624999992000011723304+42430+019280FM-15+0053LYPG V0203001N002110270019N0112651N1+00301-00301999999ADDGA1021+015009999GA2071+027009999GF107991999999999999999999MA1100811999999MW1001REMMET051LYPG 0030Z 30004KT 9999 SCT050 BKN090 03/M03 Q1008;EQDQ01+000000PRSWM2
0161134624999992000011801004+42430+019280FM-15+0053LYPG V0200201N001010270019N0112651N1+00201-00301999999ADDGA1021+015009999GA2071+027009999GF107991999999999999999999MA1100811999999MW1001REMMET051LYPG 0100Z 02002KT 9999 SCT050 BKN090 02/M03 Q1008;EQDQ01+000000PRSWM2
0161134624999992000011802004+42430+019280FM-15+0053LYPG V0209999C000010300019N0112651N1+00201-00301999999ADDGA1021+015009999GA2071+030009999GF107991999999999999999999MA1100811999999MW1001REMMET051LYPG 0200Z 00000KT 9999 SCT050 BKN100 02/M03 Q1008;EQDQ01+000000PRSWM2
0161134624999992000011803004+42430+019280FM-15+0053LYPG V0203401N001012200019N0112651N1+00101-00301999999ADDGA1021+015009999GA2021+033009999GF104991999999999999999999MA1100711999999MW1001REMMET051LYPG 0300Z 34002KT 9999 FEW050 SCT110 01/M03 Q1007;EQDQ01+000000PRSWM2
0161134624999992000011804004+42430+019280FM-15+0053LYPG V0203601N001012200019N0112651N1+00001-00401999999ADDGA1021+015009999GA2021+030009999GF104991999999999999999999MA1100611999999MW1001REMMET051LYPG 0400Z 36002KT 9999 FEW050 SCT100 00/M04 Q1006;EQDQ01+000000PRSWM2
0162134624999992000011805004+42430+019280FM-15+0053LYPG V0202901N001012200019N0112651N1-00201-00501999999ADDGA1021+015009999GA2021+030009999GF104991999999999999999999MA1100511999999MW1001REMMET052LYPG 0500Z 29002KT 9999 FEW050 SCT100 M02/M05 Q1005;EQDQ01+000000PRSWM2
0144134624999992000011806004+42430+019280FM-15+0053LYPG V0203401N002112200019N0112651N1-00101-00501999999ADDGA1021+012009999GF104991999999999999999999MA1100511999999MW1001REMMET050LYPG 0600Z 34004KT 9999 SCT040 M01/M05 Q1005NOSIG;EQDQ01+000000PRSWM2
0145134624999992000011807004+42430+019280FM-15+0053LYPG V0209999C000012200019N0112651N1-00101-00301999999ADDGA1021+015009999GF104991999999999999999999MA1100511999999MW1001REMMET051LYPG 0700Z 00000KT 9999 SCT050 M01/M03 Q1005 NOSIG;EQDQ01+000000PRSWM2
0144134624999992000011808004+42430+019280FM-15+0053LYPG V0201101N001012200019N0112651N1+00201-00301999999ADDGA1021+015009999GF104991999999999999999999MA1100511999999MW1001REMMET050LYPG 0800Z 11002KT 9999 SCT050 02/M03 Q1005 NOSIG;EQDQ01+000000PRSWM2
0144134624999992000011809004+42430+019280FM-15+0053LYPG V0201001N001012200019N0112651N1+00601-00301999999ADDGA1021+015009999GF104991999999999999999999MA1100511999999MW1001REMMET050LYPG 0900Z 10002KT 9999 SCT050 06/M03 Q1005 NOSIG;EQDQ01+000000PRSWM2
0144134624999992000011810004+42430+019280FM-15+0053LYPG V0201701N002112200019N0112651N1+00701-00201999999ADDGA1021+015009999GF104991999999999999999999MA1100511999999MW1001REMMET050LYPG 1000Z 17004KT 9999 SCT050 07/M02 Q1005 NOSIG;EQDQ01+000000PRSWM2
0167134624999992000011811004+42430+019280FM-15+0053LYPG V0209999C000010300019N0112651N1+00801-00201999999ADDGA1021+015009999GA2071+030009999GF107991999999999999999999MA1100411999999MW1001REMMET057LYPG 1100Z 00000KT 9999 SCT050 BKN100 08/M02 Q1004 NOSIG;EQDQ01+000000PRSWM2
0167134624999992000011812004+42430+019280FM-15+0053LYPG V0201801N001010300019N0112651N1+00801-00101999999ADDGA1021+015009999GA2071+030009999GF107991999999999999999999MA1100311999999MW1001REMMET057LYPG 1200Z 18002KT 9999 SCT050 BKN100 08/M01 Q1003 NOSIG;EQDQ01+000000PRSWM2
0166134624999992000011813004+42430+019280FM-15+0053LYPG V0209999C000010300019N0112651N1+00701+00001999999ADDGA1021+015009999GA2071+030009999GF107991999999999999999999MA1100311999999MW1001REMMET056LYPG 1300Z 00000KT 9999 SCT050 BKN100 07/00 Q1003 NOSIG;EQDQ01+000000PRSWM2
0167134624999992000011814004+42430+019280FM-15+0053LYPG V0202301N001010300019N0112651N1+00801+00001999999ADDGA1021+015009999GA2071+030009999GF107991999999999999999999MA1100201999999MW1001REMMET057LYPG 1400Z 23002KT 9999 SCT050 BKN100 08/M00 Q1002 NOSIG;EQDQ01+000000PRSWM2
0156134624999992000011815004+42430+019280FM-15+0053LYPG V0203301N00101220001CN0080001N1+00801+00101999999ADDGA1071+015009999GA2021+030009999MA1100201999999MW1001REMMET056LYPG 1500Z 33002KT 8000 BKN050 SCT100 08/01 Q1002 NOSIG;EQDQ01+000042SCOTCVQ02+000000PRSWM2
0165134624999992000011815304+42430+019280FM-15+0053LYPG V0203301N003112200019N0050001N1+00501-00201999999ADDGA1021+015009999GF102991999999999999999999MA1100201999999MW1101REMMET055LYPG 1630Z 33006KT 5000SE BR FEW050 05/M02 Q1002 NOSIG;EQDQ01+000003PRSWM1Q02    003PRSWM1
0156134624999992000011817004+42430+019280FM-15+0053LYPG V0203401N003112200019N9999999N1+00401-00201999999ADDGA1021+015009999GF102991999999999999999999MA1100201999999MW1001REMMET046LYPG 1700Z 34006KT 6000SE FEW050 04/M02 Q1002;EQDQ01+060002VODIS Q02+000000PRSWM2
0160134624999992000011818004+42430+019280FM-15+0053LYPG V0200301N002110300019N0060001N1+00301+00101999999ADDGA1021+015009999GA2071+030009999GF107991999999999999999999MA1100201999999MW1001REMMET050LYPG 1800Z 03004KT 6000 FEW050 BKN100 03/01 Q1002;EQDQ01+000000PRSWM2
0161134624999992000011820004+42430+019280FM-15+0053LYPG V0203401N005110150019N0112651N1+00501-00101999999ADDGA1071+015009999GA2071+030009999GF107991999999999999999999MA1100411999999MW1001REMMET051LYPG 2000Z 34010KT 9999 BKN050 BKN100 05/M01 Q1004;EQDQ01+000000PRSWM2
0161134624999992000011821004+42430+019280FM-15+0053LYPG V0202901N004110300019N0112651N1+00501-00101999999ADDGA1021+015009999GA2071+030009999GF107991999999999999999999MA1100411999999MW1001REMMET051LYPG 2100Z 29008KT 9999 SCT050 BKN100 05/M01 Q1004;EQDQ01+000000PRSWM2
0161134624999992000011822004+42430+019280FM-15+0053LYPG V0203001N003110300019N0112651N1+00601-00301999999ADDGA1021+015009999GA2071+030009999GF107991999999999999999999MA1100411999999MW1001REMMET051LYPG 2200Z 30006KT 9999 SCT050 BKN100 06/M03 Q1004;EQDQ01+000000PRSWM2
0161134624999992000011900004+42430+019280FM-15+0053LYPG V0200101N009310300019N0112651N1+00601-00701999999ADDGA1021+015009999GA2071+030009999GF107991999999999999999999MA1100711999999MW1001REMMET051LYPG 0000Z 01018KT 9999 FEW050 BKN100 06/M07 Q1007;EQDQ01+000000PRSWM2
0149134624999992000011901004+42430+019280FM-15+0053LYPG V0203501N010312200019N0112651N1+00601-00801999999ADDGA1021+015009999GF102991999999999999999999MA1100811999999MW1001OC101541REMMET047LYPG 0100Z 35020G30KT 9999 FEW050 06/M08 Q1008;EQDQ01+000000PRSWM2
0149134624999992000011902004+42430+019280FM-15+0053LYPG V0203501N013412200019N0112651N1+00501-00801999999ADDGA1021+015009999GF104991999999999999999999MA1100811999999MW1001OC101851REMMET047LYPG 0200Z 35026G36KT 9999 SCT050 05/M08 Q1008;EQDQ01+000000PRSWM2
0090134624999992000011903004+42430+019280FM-15+0053LYPG V0203601N00821220001CN0099001N1+00401-00701999999ADDMA1100911999999MW1001REMMET038LYPG 0300Z 36016KT CAVOK 04/M07 Q1009;EQDQ01+000000PRSWM2
0090134624999992000011904004+42430+019280FM-15+0053LYPG V0203501N00511220001CN0099001N1+00301-00801999999ADDMA1100911999999MW1001REMMET038LYPG 0400Z 35010KT CAVOK 03/M08 Q1009;EQDQ01+000000PRSWM2
0090134624999992000011905004+42430+019280FM-15+0053LYPG V0203501N00511220001CN0099001N1+00301-00701999999ADDMA1101021999999MW1001REMMET038LYPG 0500Z 35010KT CAVOK 03/M07 Q1010;EQDQ01+000000PRSWM2
0144134624999992000011905304+42430+019280FM-15+0053LYPG V0202901N002112200019N0112651N1+00501-00701999999ADDGA1021+012009999GF102991999999999999999999MA1101021999999MW1001REMMET050LYPG 0630Z 29004KT 9999 FEW040 05/M07 Q1010 NOSIG;EQDQ01+000000PRSWM2
0144134624999992000011907004+42430+019280FM-15+0053LYPG V0203001N002112200019N0112651N1+00201-00601999999ADDGA1021+012009999GF102991999999999999999999MA1101081999999MW1001REMMET050LYPG 0700Z 30004KT 9999 FEW040 02/M06 Q1011 NOSIG;EQDQ01+000000PRSWM2
0144134624999992000011908004+42430+019280FM-15+0053LYPG V0203001N002112200019N0112651N1+00601-00501999999ADDGA1021+012009999GF102991999999999999999999MA1101191999999MW1001REMMET050LYPG 0800Z 30004KT 9999 FEW040 06/M05 Q1012 NOSIG;EQDQ01+000000PRSWM2
0144134624999992000011909004+42430+019280FM-15+0053LYPG V0200101N007212200019N0112651N1+00801-00601999999ADDGA1021+012009999GF102991999999999999999999MA1101291999999MW1001REMMET050LYPG 0900Z 01014KT 9999 FEW040 08/M06 Q1013 NOSIG;EQDQ01+000000PRSWM2
0144134624999992000011910004+42430+019280FM-15+0053LYPG V0200201N002112200019N0112651N1+00901-00601999999ADDGA1021+012009999GF102991999999999999999999MA1101291999999MW1001REMMET050LYPG 1000Z 02004KT 9999 FEW040 09/M06 Q1013 NOSIG;EQDQ01+000000PRSWM2
0144134624999992000011911004+42430+019280FM-15+0053LYPG V0200201N008212200019N0112651N1+00901-00601999999ADDGA1021+012009999GF102991999999999999999999MA1101291999999MW1001REMMET050LYPG 1100Z 02016KT 9999 FEW040 09/M06 Q1013 NOSIG;EQDQ01+000000PRSWM2
0144134624999992000011912004+42430+019280FM-15+0053LYPG V0200101N007212200019N0112651N1+01001-00501999999ADDGA1021+012009999GF104991999999999999999999MA1101291999999MW1001REMMET050LYPG 1200Z 01014KT 9999 SCT040 10/M05 Q1013 NOSIG;EQDQ01+000000PRSWM2
0144134624999992000011913004+42430+019280FM-15+0053LYPG V0200101N009312200019N0112651N1+00901-00601999999ADDGA1021+012009999GF104991999999999999999999MA1101291999999MW1001REMMET050LYPG 1300Z 01018KT 9999 SCT040 09/M06 Q1013 NOSIG;EQDQ01+000000PRSWM2
0144134624999992000011913304+42430+019280FM-15+0053LYPG V0200101N005112200019N0112651N1+00901-00701999999ADDGA1021+012009999GF102991999999999999999999MA1101291999999MW1001REMMET050LYPG 1430Z 01010KT 9999 FEW040 09/M07 Q1013 NOSIG;EQDQ01+000000PRSWM2
0144134624999992000011915004+42430+019280FM-15+0053LYPG V0200201N008212200019N0112651N1+00701-00601999999ADDGA1021+012009999GF102991999999999999999999MA1101391999999MW1001REMMET050LYPG 1500Z 02016KT 9999 FEW040 07/M06 Q1014 NOSIG;EQDQ01+000000PRSWM2
0144134624999992000011915304+42430+019280FM-15+0053LYPG V0200101N005112200019N0112651N1+00401-00601999999ADDGA1021+012009999GF102991999999999999999999MA1101591999999MW1001REMMET050LYPG 1630Z 01010KT 9999 FEW040 04/M06 Q1016 NOSIG;EQDQ01+000000PRSWM2
0144134624999992000011917004+42430+019280FM-15+0053LYPG V0203601N006212200019N0112651N1+00401-00701999999ADDGA1021+012009999GF102991999999999999999999MA1101691999999MW1001REMMET050LYPG 1700Z 36012KT 9999 FEW040 04/M07 Q1017 NOSIG;EQDQ01+000000PRSWM2
0144134624999992000011917304+42430+019280FM-15+0053LYPG V0203501N004112200019N0112651N1+00401-00701999999ADDGA1021+012009999GF104991999999999999999999MA1101801999999MW1001REMMET050LYPG 1830Z 35008KT 9999 SCT040 04/M07 Q1018 NOSIG;EQDQ01+000000PRSWM2
0144134624999992000011919004+42430+019280FM-15+0053LYPG V0203301N004112200019N0112651N1+00401-00601999999ADDGA1021+012009999GF102991999999999999999999MA1101901999999MW1001REMMET050LYPG 1900Z 33008KT 9999 FEW040 04/M06 Q1019 NOSIG;EQDQ01+000000PRSWM2
0138134624999992000011920004+42430+019280FM-15+0053LYPG V0203401N003112200019N0112651N1+00301-00601999999ADDGA1021+012009999GF104991999999999999999999MA1101901999999MW1001REMMET044LYPG 2000Z 34006KT 9999 SCT040 03/M06 Q1019;EQDQ01+000000PRSWM2
0138134624999992000011921004+42430+019280FM-15+0053LYPG V0209999C000012200019N0112651N1+00101-00701999999ADDGA1021+012009999GF102991999999999999999999MA1101901999999MW1001REMMET044LYPG 2100Z 00000KT 9999 FEW040 01/M07 Q1019;EQDQ01+000000PRSWM2
0138134624999992000011921304+42430+019280FM-15+0053LYPG V0202801N002112200019N0112651N1+00001-00701999999ADDGA1021+012009999GF102991999999999999999999MA1102001999999MW1001REMMET044LYPG 2230Z 28004KT 9999 FEW040 00/M07 Q1020;EQDQ01+000000PRSWM2
0139134624999992000011923004+42430+019280FM-15+0053LYPG V0202801N001012200019N0112651N1+00001-00601999999ADDGA1021+012009999GF102991999999999999999999MA1102001999999MW1001REMMET045LYPG 2300Z 28002KT 9999 FEW040 M00/M06 Q1020;EQDQ01+000000PRSWM2
0091134624999992000012000004+42430+019280FM-15+0053LYPG V0203501N00101220001CN0099001N1-00101-00701999999ADDMA1102101999999MW1001REMMET039LYPG 0000Z 35002KT CAVOK M01/M07 Q1021;EQDQ01+000000PRSWM2
0091134624999992000012001004+42430+019280FM-15+0053LYPG V0203201N00311220001CN0099001N1-00201-00801999999ADDMA1102201999999MW1001REMMET039LYPG 0100Z 32006KT CAVOK M02/M08 Q1022;EQDQ01+000000PRSWM2
0091134624999992000012002004+42430+019280FM-15+0053LYPG V0200201N00211220001CN0099001N1-00201-00801999999ADDMA1102201999999MW1001REMMET039LYPG 0200Z 02004KT CAVOK M02/M08 Q1022;EQDQ01+000000PRSWM2
0091134624999992000012002304+42430+019280FM-15+0053LYPG V0202901N00311220001CN0099001N1-00201-00801999999ADDMA1102201999999MW1001REMMET039LYPG 0330Z 29006KT CAVOK M02/M08 Q1022;EQDQ01+000000PRSWM2
0091134624999992000012004004+42430+019280FM-15+0053LYPG V0203001N00311220001CN0099001N1-00201-00901999999ADDMA1102301999999MW1001REMMET039LYPG 0400Z 30006KT CAVOK M02/M09 Q1023;EQDQ01+000000PRSWM2
0091134624999992000012005004+42430+019280FM-15+0053LYPG V0203501N00311220001CN0099001N1-00101-00801999999ADDMA1102401999999MW1001REMMET039LYPG 0500Z 35006KT CAVOK M01/M08 Q1024;EQDQ01+000000PRSWM2
0145134624999992000012006004+42430+019280FM-15+0053LYPG V0203501N003112200019N0112651N1-00101-00801999999ADDGA1021+012009999GF102991999999999999999999MA1102401999999MW1001REMMET051LYPG 0600Z 35006KT 9999 FEW040 M01/M08 Q1024 NOSIG;EQDQ01+000000PRSWM2
0144134624999992000012007004+42430+019280FM-15+0053LYPG V0203501N004112200019N0112651N1+00201-00701999999ADDGA1021+012009999GF102991999999999999999999MA1102511999999MW1001REMMET050LYPG 0700Z 35008KT 9999 FEW040 02/M07 Q1025 NOSIG;EQDQ01+000000PRSWM2
0144134624999992000012008004+42430+019280FM-15+0053LYPG V0203301N003112200019N0112651N1+00501-00601999999ADDGA1021+012009999GF102991999999999999999999MA1102611999999MW1001REMMET050LYPG 0800Z 33006KT 9999 FEW040 05/M06 Q1026 NOSIG;EQDQ01+000000PRSWM2
