0078136150999992000010107004+41330+019780FM-15+0090LATI V0209999C00001220001CN0099001N1+00201+00001999999ADDMA1101901999999MW1001REMMET045LATI 010700Z 00000KT CAVOK 02/00 Q1019 NOSIG;
0072136150999992000010109454+41330+019780FM-15+0090LATI V0209999C00001220001CN0099001N1+00601-00201999999ADDMA1102301999999MW1001REMMET039LATI 010945 00000KT CAVOK 06/M02 Q1023;
0091136150999992000010205004+41330+019780FM-15+0090LATI V0209999C00001220001CN0099001N1-00301-00601999999ADDMA1102401999999MW1001REMMET039LATI 0500Z 00000KT CAVOK M03/M06 Q1024;EQDQ01+000000PRSWM2
0097136150999992000010206304+41330+019780FM-15+0090LATI V0209999C00001220001CN0099001N1-00201-00701999999ADDMA1102401999999MW1001REMMET045LATI 0730Z 00000KT CAVOK M02/M07 Q1024 NOSIG;EQDQ01+000000PRSWM2
0146136150999992000010209004+41330+019780FM-15+0090LATI V0209999C000012200019N0112651N1+00201-00301999999ADDGA1021+060009999GF104991999999999999999999MA1102401999999MW1001REMMET052LATI 020900Z 00000KT 9999 SCT200 02/M03 Q1024 NOSIG;EQDQ01+000000PRSWM2
0091136150999992000010213004+41330+019780FM-15+0090LATI V0209999C00001220001CN0099001N1+00701+00101999999ADDMA1102301999999MW1001REMMET039LATI 021300Z 00000KT CAVOK 07/01 Q1023;EQDQ01+000000PRSWM2
0081136150999992000010214004+41330+019780FM-15+0090LATI V02099999999992200019N9999999N1+99999+99999999999ADDMW1001REMMET044LATI 1400Z 21400Z 00000KT CAVOK 05/00 Q1025;EQDQ01+000000PRSWM2
0097136150999992000010304004+41330+019780FM-15+0090LATI V0209999C00001220001CN0099001N1-00401-00701999999ADDMA1102711999999MW1001REMMET045LATI 0400Z 00000KT CAVOK M04/M07 Q1027 NOSIG;EQDQ01+000000PRSWM2
0097136150999992000010306004+41330+019780FM-15+0090LATI V0209999C00001220001CN0099001N1-00401-00701999999ADDMA1102711999999MW1001REMMET045LATI 0600Z 00000KT CAVOK M04/M07 Q1027 NOSIG;EQDQ01+000000PRSWM2
0099136150999992000010307004+41330+019780FM-15+0090LATI V0209999C00001220001CN0099001N1-00301-00701999999ADDMA1102711999999MW1001REMMET047LATI 030700Z 00000KT CAVOK M03/M07 Q1027 NOSIG;EQDQ01+000000PRSWM2
0099136150999992000010308004+41330+019780FM-15+0090LATI V0209999C00001220001CN0099001N1+00001-00501999999ADDMA1102811999999MW1001REMMET047LATI 030800Z 00000KT CAVOK M00/M05 Q1028 NOSIG;EQDQ01+000000PRSWM2
0098136150999992000010309054+41330+019780FM-15+0090LATI V0209999C00001220001CN0099001N1+00201-00501999999ADDMA1102811999999MW1001REMMET046LATI 030905Z 00000KT CAVOK 02/M05 Q1028 NOSIG;EQDQ01+000000PRSWM2
0098136150999992000010310004+41330+019780FM-15+0090LATI V0209999C00001220001CN0099001N1+00301-00601999999ADDMA1102811999999MW1001REMMET046LATI 031000Z 00000KT CAVOK 03/M06 Q1028 NOSIG;EQDQ01+000000PRSWM2
0098136150999992000010311104+41330+019780FM-15+0090LATI V0209999C00001220001CN0099001N1+00501-00301999999ADDMA1102811999999MW1001REMMET046LATI 031110Z 00000KT CAVOK 05/M03 Q1028 NOSIG;EQDQ01+000000PRSWM2
0098136150999992000010312004+41330+019780FM-15+0090LATI V0209999C00001220001CN0099001N1+00701-00101999999ADDMA1102911999999MW1001REMMET046LATI 031200Z 00000KT CAVOK 07/M01 Q1029 NOSIG;EQDQ01+000000PRSWM2
0097136150999992000010313004+41330+019780FM-15+0090LATI V0209999C00001220001CN0099001N1+00701+00001999999ADDMA1102711999999MW1001REMMET045LATI 031300Z 00000KT CAVOK 07/00 Q1027 NOSIG;EQDQ01+000000PRSWM2
0097136150999992000010314004+41330+019780FM-15+0090LATI V0203301N00211220001CN0099001N1+00701+00001999999ADDMA1102711999999MW1001REMMET045LATI 031400Z 33004KT CAVOK 07/00 Q1027 NOSIG;EQDQ01+000000PRSWM2
0097136150999992000010404304+41330+019780FM-15+0090LATI V0209999C00001220001CN0099001N1-00301-00601999999ADDMA1102401999999MW1001REMMET045LATI 0530Z 00000KT CAVOK M03/M06 Q1024 NOSIG;EQDQ01+000000PRSWM2
0139136150999992000010406004+41330+019780FM-15+0090LATI V0209999C000012200019N0112651N1-00301-00501999999ADDGA1021+060009999GF104991999999999999999999MA1102511999999MW1001REMMET045LATI 0600Z 00000KT 9999 SCT200 M03/M05 Q1025;EQDQ01+000000PRSWM2
0164136150999992000010407004+41330+019780FM-15+0090LATI V0209999C000012200019N0112651N1-00401-00801999999ADDGA1021+030009999GA2021+060009999GF104991999999999999999999MA1102401999999MW1001REMMET054LATI 040700Z 00000KT 9999 SCT100 SCT200 M04/M08 Q1024;EQDQ01+000000PRSWM2
0097136150999992000010411004+41330+019780FM-15+0090LATI V0209999C00001220001CN0099001N1+00801+00101999999ADDMA1102201999999MW1001REMMET045LATI 041100Z 00000KT CAVOK 08/01 Q1022 NOSIG;EQDQ01+000000PRSWM2
0097136150999992000010412004+41330+019780FM-15+0090LATI V0209999C00001220001CN0099001N1+00901+00101999999ADDMA1102201999999MW1001REMMET045LATI 041200Z 00000KT CAVOK 09/01 Q1022 NOSIG;EQDQ01+000000PRSWM2
0091136150999992000010415004+41330+019780FM-15+0090LATI V0209999C00001220001CN0099001N1+00801+00001999999ADDMA1102001999999MW1001REMMET039LATI 041500Z 00000KT CAVOK 08/00 Q1020;EQDQ01+000000PRSWM2
0099136150999992000010503004+41330+019780FM-15+0090LATI V0209999C00001220001CN0099001N1-00201-00601999999ADDMA1102201999999MW1001REMMET047LATI 050300Z 00000KT CAVOK M02/M06 Q1022 NOSIG;EQDQ01+000000PRSWM2
0099136150999992000010504004+41330+019780FM-15+0090LATI V0209999C00001220001CN0099001N1-00201-00601999999ADDMA1102201999999MW1001REMMET047LATI 050400Z 00000KT CAVOK M02/M06 Q1022 NOSIG;EQDQ01+000000PRSWM2
0099136150999992000010505004+41330+019780FM-15+0090LATI V0209999C00001220001CN0099001N1-00201-00601999999ADDMA1102101999999MW1001REMMET047LATI 050500Z 00000KT CAVOK M02/M06 Q1021 NOSIG;EQDQ01+000000PRSWM2
0099136150999992000010506004+41330+019780FM-15+0090LATI V0209999C00001220001CN0099001N1-00301-00601999999ADDMA1102101999999MW1001REMMET047LATI 050600Z 00000KT CAVOK M03/M06 Q1021 NOSIG;EQDQ01+000000PRSWM2
0097136150999992000010508004+41330+019780FM-15+0090LATI V0209999C00001220001CN0099001N1+00001-00701999999ADDMA1102201999999MW1001REMMET045LATI 0800Z 00000KT CAVOK M00/M07 Q1022 NOSIG;EQDQ01+000000PRSWM2
0096136150999992000010509004+41330+019780FM-15+0090LATI V0209999C00001220001CN0099001N1+00201-00601999999ADDMA1102201999999MW1001REMMET044LATI 0900Z 00000KT CAVOK 02/M06 Q1022 NOSIG;EQDQ01+000000PRSWM2
0167136150999992000010511004+41330+019780FM-15+0090LATI V0209999C000012200019N0112651N1+00501-00301999999ADDGA1021+006009999GA2021+030009999GF104991999999999999999999MA1102101999999MW1001REMMET057LATI 1100Z 00000KT 9999 FEW020 SCT100 05/M03 Q1021 NOSIG;EQDQ01+000000PRSWM2
0143136150999992000010512004+41330+019780FM-15+0090LATI V0209999C000012200019N0112651N1+00701+00001999999ADDGA1021+006009999GF102991999999999999999999MA1102101999999MW1001REMMET049LATI 1200Z 00000KT 9999 FEW020 07/00 Q1021 NOSIG;EQDQ01+000000PRSWM2
0139136150999992000010513004+41330+019780FM-15+0090LATI V0209999C000012200019N0112651N1+01301+00301999999ADDGA1021+009009999GF104991999999999999999999MA1102001999999MW1001REMMET045LATI 051300Z 00000KT 9999 SCT030 13/03 Q1020;EQDQ01+000000PRSWM2
0168136150999992000010515004+41330+019780FM-15+0090LATI V0209999C000012200019N0112651N1+01201+00401999999ADDGA1021+009009999GA2021+060009999GF104991999999999999999999MA1102001999999MW1001REMMET058LATI 051500Z 00000KT 9999 FEW030 SCT200 12/04 Q1020 NOSIG;EQDQ01+000000PRSWM2
0099136150999992000010606004+41330+019780FM-15+0090LATI V0209999C00001220001CN0099001N1-00301-00701999999ADDMA1102101999999MW1001REMMET047LATI 060600Z 00000KT CAVOK M03/M07 Q1021 NOSIG;EQDQ01+000000PRSWM2
0099136150999992000010607004+41330+019780FM-15+0090LATI V0209999C00001220001CN0099001N1-00201-00601999999ADDMA1102201999999MW1001REMMET047LATI 060700Z 00000KT CAVOK M02/M06 Q1022 NOSIG;EQDQ01+000000PRSWM2
0096136150999992000010608004+41330+019780FM-15+0090LATI V0209999C00001220001CN0099001N1+00201-00301999999ADDMA1102201999999MW1001REMMET044LATI 0800Z 00000KT CAVOK 02/M03 Q1022 NOSIG;EQDQ01+000000PRSWM2
0138136150999992000010612004+41330+019780FM-15+0090LATI V0209999C000012200019N0112651N1+01101-00501999999ADDGA1021+060009999GF104991999999999999999999MA1102201999999MW1001REMMET044LATI 1200Z 00000KT 9999 SCT200 11/M05 Q1022;EQDQ01+000000PRSWM2
0143136150999992000010612304+41330+019780FM-15+0090LATI V0209999C000012200019N0112651N1+01301+00201999999ADDGA1021+060009999GF104991999999999999999999MA1102101999999MW1001REMMET049LATI 1330Z 00000KT 9999 SCT200 13/02 Q1021 NOSIG;EQDQ01+000000PRSWM2
0145136150999992000010615004+41330+019780FM-15+0090LATI V0209999C000012200019N0112651N1+01201+00301999999ADDGA1021+060009999GF104991999999999999999999MA1102101999999MW1001REMMET051LATI 061500Z 00000KT 9999 SCT200 12/03 Q1021 TESIG;EQDQ01+000000PRSWM2
0111136150999992000010616014+41330+019780FM-16+0090LATI V02099999999992200019N0112651N1+99999+99999999999ADDGA1021+030009999GF104991999999999999999999MW1001REMMET032LATI 061601 VRB03KT 9999 SCT100;EQDQ01+000000PRSWM2
0093136150999992000010706004+41330+019780FM-15+0090LATI V0209999C00001220001CN0099001N1-00301-00601999999ADDMA1102401999999MW1001REMMET041LATI 070600Z 00000KT CAVOK M03/M06 Q1024;EQDQ01+000000PRSWM2
0091136150999992000010707004+41330+019780FM-15+0090LATI V0209999C00001220001CN0099001N1-00201-00601999999ADDMA1102401999999MW1001REMMET039LATI 0700Z 00000KT CAVOK M02/M06 Q1024;EQDQ01+000000PRSWM2
0090136150999992000010707304+41330+019780FM-15+0090LATI V0209999C00001220001CN0099001N1+00201-00201999999ADDMA1102511999999MW1001REMMET038LATI 0830Z 00000KT CAVOK 02/M02 Q1025;EQDQ01+000000PRSWM2
0090136150999992000010709004+41330+019780FM-15+0090LATI V0209999C00001220001CN0099001N1+00401+00001999999ADDMA1102511999999MW1001REMMET038LATI 0900Z 00000KT CAVOK 04/M00 Q1025;EQDQ01+000000PRSWM2
0095136150999992000010710004+41330+019780FM-15+0090LATI V0209999C00001220001CN0099001N1+00701+00301999999ADDMA1102511999999MW1001REMMET043LATI 1000Z 00000KT CAVOK 07/03 Q1025 NOSIG;EQDQ01+000000PRSWM2
0095136150999992000010711004+41330+019780FM-15+0090LATI V0209999C00001220001CN0099001N1+01001+00601999999ADDMA1102401999999MW1001REMMET043LATI 1100Z 00000KT CAVOK 10/06 Q1024 NOSIG;EQDQ01+000000PRSWM2
0095136150999992000010712004+41330+019780FM-15+0090LATI V0209999C00001220001CN0099001N1+01101+00701999999ADDMA1102401999999MW1001REMMET043LATI 1200Z 00000KT CAVOK 11/07 Q1024 NOSIG;EQDQ01+000000PRSWM2
0097136150999992000010805004+41330+019780FM-15+0090LATI V0209999C00001220001CN0099001N1-00201-00501999999ADDMA1102611999999MW1001REMMET045LATI 0500Z 00000KT CAVOK M02/M05 Q1026 NOSIG;EQDQ01+000000PRSWM2
0097136150999992000010806004+41330+019780FM-15+0090LATI V0209999C00001220001CN0099001N1-00301-00601999999ADDMA1102611999999MW1001REMMET045LATI 0600Z 00000KT CAVOK M03/M06 Q1026 NOSIG;EQDQ01+000000PRSWM2
0097136150999992000010807004+41330+019780FM-15+0090LATI V0209999C00001220001CN0099001N1-00201-00601999999ADDMA1102611999999MW1001REMMET045LATI 0700Z 00000KT CAVOK M02/M06 Q1026 NOSIG;EQDQ01+000000PRSWM2
0097136150999992000010808004+41330+019780FM-15+0090LATI V0209999C00001220001CN0099001N1+00001-00601999999ADDMA1102611999999MW1001REMMET045LATI 0800Z 00000KT CAVOK M00/M06 Q1026 NOSIG;EQDQ01+000000PRSWM2
0096136150999992000010809004+41330+019780FM-15+0090LATI V0209999C00001220001CN0099001N1+00201-00701999999ADDMA1102611999999MW1001REMMET044LATI 0900Z 00000KT CAVOK 02/M07 Q1026 NOSIG;EQDQ01+000000PRSWM2
0096136150999992000010809304+41330+019780FM-15+0090LATI V0209999C00001220001CN0099001N1+00401-00501999999ADDMA1102711999999MW1001REMMET044LATI 1030Z 00000KT CAVOK 04/M05 Q1027 NOSIG;EQDQ01+000000PRSWM2
0096136150999992000010811004+41330+019780FM-15+0090LATI V0209999C00001220001CN0099001N1+00701-00401999999ADDMA1102611999999MW1001REMMET044LATI 1100Z 00000KT CAVOK 07/M04 Q1026 NOSIG;EQDQ01+000000PRSWM2
0095136150999992000010811304+41330+019780FM-15+0090LATI V0209999C00001220001CN0099001N1+01101+00201999999ADDMA1102611999999MW1001REMMET043LATI 1230Z 00000KT CAVOK 11/02 Q1026 NOSIG;EQDQ01+000000PRSWM2
0095136150999992000010812304+41330+019780FM-15+0090LATI V0209999C00001220001CN0099001N1+01201+00201999999ADDMA1102511999999MW1001REMMET043LATI 1330Z 00000KT CAVOK 12/02 Q1025 NOSIG;EQDQ01+000000PRSWM2
0099136150999992000010907004+41330+019780FM-15+0090LATI V0209999C00001220001CN0099001N1-00101-00601999999ADDMA1102611999999MW1001REMMET047LATI 090700Z 00000KT CAVOK M01/M06 Q1026 NOSIG;EQDQ01+000000PRSWM2
0100136150999992000010908004+41330+019780FM-15+0090LATI V0209999C000012200019N0160931N1+99999+99999999999ADDMA1102611999999MW1001REMMET048LATI 090800Z 00000KT SCT200 M00/M06 Q1026 NOSIG;EQDQ01+000000PRSWM2
0097136150999992000010909004+41330+019780FM-15+0090LATI V0209999C00001220001CN0099001N1+00701+00001999999ADDMA1102611999999MW1001REMMET045LATI 090900Z 00000KT CAVOK 07/00 Q1026 NOSIG;EQDQ01+000000PRSWM2
0097136150999992000010910004+41330+019780FM-15+0090LATI V0209999C00001220001CN0099001N1+01001+00101999999ADDMA1102611999999MW1001REMMET045LATI 091000Z 00000KT CAVOK 10/01 Q1026 NOSIG;EQDQ01+000000PRSWM2
0097136150999992000010911004+41330+019780FM-15+0090LATI V0209999C00001220001CN0099001N1+01201+00201999999ADDMA1102611999999MW1001REMMET045LATI 091100Z 00000KT CAVOK 12/02 Q1026 NOSIG;EQDQ01+000000PRSWM2
0097136150999992000010912004+41330+019780FM-15+0090LATI V0209999C00001220001CN0099001N1+01301+00201999999ADDMA1102511999999MW1001REMMET045LATI 091200Z 00000KT CAVOK 13/02 Q1025 NOSIG;EQDQ01+000000PRSWM2
0097136150999992000010914004+41330+019780FM-15+0090LATI V0209999C00001220001CN0099001N1+01101+00201999999ADDMA1102511999999MW1001REMMET045LATI 091400Z 00000KT CAVOK 11/02 Q1025 NOSIG;EQDQ01+000000PRSWM2
0093136150999992000010915004+41330+019780FM-15+0090LATI V0209999999999220001CN0099001N1+01001+00401999999ADDMA1102511999999MW1001REMMET041LATI 1500Z 00000 CAVOK 10/04 Q1025 NOSIG;EQDQ01+000000PRSWM2
0097136150999992000011005004+41330+019780FM-15+0090LATI V0209999C00001220001CN0099001N1-00101-00301999999ADDMA1102811999999MW1001REMMET045LATI 0500Z 00000KT CAVOK M01/M03 Q1028 NOSIG;EQDQ01+000000PRSWM2
0097136150999992000011007004+41330+019780FM-15+0090LATI V0209999C00001220001CN0099001N1-00101-00601999999ADDMA1102811999999MW1001REMMET045LATI 0700Z 00000KT CAVOK M01/M06 Q1028 NOSIG;EQDQ01+000000PRSWM2
0097136150999992000011008004+41330+019780FM-15+0090LATI V0209999C00001220001CN0099001N1+00201-00601999999ADDMA1102811999999MW1001REMMET045LATI 100800 00000KT CAVOK 02/M06 Q1028 NOSIG;EQDQ01+000000PRSWM2
0098136150999992000011009004+41330+019780FM-15+0090LATI V0209999C00001220001CN0099001N1+00701-00201999999ADDMA1102811999999MW1001REMMET046LATI 100900Z 00000KT CAVOK 07/M02 Q1028 NOSIG;EQDQ01+000000PRSWM2
0097136150999992000011010004+41330+019780FM-15+0090LATI V0209999C00001220001CN0099001N1+00901+00001999999ADDMA1102811999999MW1001REMMET045LATI 101000Z 00000KT CAVOK 09/00 Q1028 NOSIG;EQDQ01+000000PRSWM2
0097136150999992000011012004+41330+019780FM-15+0090LATI V0209999C00001220001CN0099001N1+01301+00301999999ADDMA1102811999999MW1001REMMET045LATI 101200Z 00000KT CAVOK 13/03 Q1028 NOSIG;EQDQ01+000000PRSWM2
0139136150999992000011013004+41330+019780FM-15+0090LATI V0209999C000012200019N0112651N1+01201+00301999999ADDGA1021+060009999GF104991999999999999999999MA1102711999999MW1001REMMET045LATI 101300Z 00000KT 9999 SCT200 12/03 Q1027;EQDQ01+000000PRSWM2
0139136150999992000011014504+41330+019780FM-15+0090LATI V0209999C000012200019N0112651N1+01001+00601999999ADDGA1021+024009999GF104991999999999999999999MA1102711999999MW1001REMMET045LATI 101450Z 00000KT 9999 SCT080 10/06 Q1027;EQDQ01+000000PRSWM2
0140136150999992000011103404+41330+019780FM-15+0090LATI V0209999C000012200019N0112651N1+00101-00201999999ADDGA1021+030009999GF104991999999999999999999MA1102811999999MW1001REMMET046LATI 110440Z 00000KT 9999 SCT100 01/M02 Q1028;EQDQ01+000000PRSWM2
0146136150999992000011107004+41330+019780FM-15+0090LATI V0209999C000012200019N0112651N1+00101-00201999999ADDGA1021+060009999GF104991999999999999999999MA1102911999999MW1001REMMET052LATI 110700Z 00000KT 9999 SCT200 01/M02 Q1029 NOSIG;EQDQ01+000000PRSWM2
0139136150999992000011109004+41330+019780FM-15+0090LATI V0209999C000012200019N0112651N1+00801+00001999999ADDGA1021+060009999GF104991999999999999999999MA1103011999999MW1001REMMET045LATI 110900Z 00000KT 9999 SCT200 08/00 Q1030;EQDQ01+000000PRSWM2
0163136150999992000011112004+41330+019780FM-15+0090LATI V0203601N002112200019N0112651N1+01101+00201999999ADDGA1021+030009999GA2021+060009999GF104991999999999999999999MA1102911999999MW1001REMMET053LATI 111200Z 360004KT 9999 SCT100 SCT200 11/02 Q1029;EQDQ01+000000PRSWM2
0145136150999992000011115004+41330+019780FM-15+0090LATI V0203201N003112200019N0112651N1+01001+00301999999ADDGA1021+060009999GF104991999999999999999999MA1102911999999MW1001REMMET051LATI 111500Z 32006KT 9999 SCT200 10/03 Q1029 NOSIG;EQDQ01+000000PRSWM2
0099136150999992000011203004+41330+019780FM-15+0090LATI V0209999C00001220001CN0099001N1-00301-00501999999ADDMA1103011999999MW1001REMMET047LATI 120300Z 00000KT CAVOK M03/M05 Q1030 NOSIG;EQDQ01+000000PRSWM2
0099136150999992000011205004+41330+019780FM-15+0090LATI V0209999C00001220001CN0099001N1-00301-00501999999ADDMA1103011999999MW1001REMMET047LATI 120500Z 00000KT CAVOK M03/M05 Q1030 NOSIG;EQDQ01+000000PRSWM2
0164136150999992000011206004+41330+019780FM-15+0090LATI V0209999C000012200019N0080001N1-00201-00401999999ADDGA1021+030009999GA2021+060009999GF104991999999999999999999MA1103011999999MW1001REMMET054LATI 120600Z 00000KT 8000 SCT100 SCT200 M02/M04 Q1030;EQDQ01+000000PRSWM2
0164136150999992000011207004+41330+019780FM-15+0090LATI V0209999C000010300019N0080001N1-00101-00701999999ADDGA1071+030009999GA2071+060009999GF107991999999999999999999MA1103121999999MW1001REMMET054LATI 120700Z 00000KT 8000 BKN100 BKN200 M01/M07 Q1031;EQDQ01+000000PRSWM2
0161136150999992000011208004+41330+019780FM-15+0090LATI V0209999C000010300019N0112651N1+00101-00601999999ADDGA1071+030009999GA2071+060009999GF107991999999999999999999MA1103121999999MW1001REMMET051LATI 0800Z 00000KT 9999 BKN100 BKN200 01/M06 Q1031;EQDQ01+000000PRSWM2
0161136150999992000011209004+41330+019780FM-15+0090LATI V0209999C000010300019N0112651N1+00301-00401999999ADDGA1071+030009999GA2071+060009999GF107991999999999999999999MA1103181999999MW1001REMMET051LATI 0900Z 00000KT 9999 BKN100 BKN200 03/M04 Q1032;EQDQ01+000000PRSWM2
0138136150999992000011210004+41330+019780FM-15+0090LATI V0209999C000012200019N0112651N1+00501-00201999999ADDGA1021+060009999GF104991999999999999999999MA1103121999999MW1001REMMET044LATI 1000Z 00000KT 9999 SCT200 05/M02 Q1031;EQDQ01+000000PRSWM2
0134136150999992000011211004+41330+019780FM-15+0090LATI V0209999C000012200019N0080001N1+00701+00001999999ADDGF100991999999999999999999MA1103121999999MW1001REMMET040LATI 1100Z 00000KT 7000 SKC 07/00 Q1031;EQDQ01+070002VODIS Q02+000000PRSWM2
0124136150999992000011212004+41330+019780FM-15+0090LATI V0209999C000012200019N0080001N1+00901+00201999999ADDGF100991999999999999999999MA1103011999999MW1001REMMET046LATI 1200Z 00000KT 8000 SKC 09/02 Q1030 NOSIG;EQDQ01+000000PRSWM2
0137136150999992000011213004+41330+019780FM-15+0090LATI V0209999C000012200019N0112651N1+01101+00301999999ADDGA1021+060009999GF104991999999999999999999MA1102911999999MW1001REMMET043LATI 1300Z 00000KT 9999 SCT200 11/03 Q1029;EQDQ01+000000PRSWM2
0137136150999992000011214004+41330+019780FM-15+0090LATI V0209999C000012200019N0112651N1+01101+00301999999ADDGA1021+060009999GF104991999999999999999999MA1102911999999MW1001REMMET043LATI 1400Z 00000KT 9999 SCT200 11/03 Q1029;EQDQ01+000000PRSWM2
0145136150999992000011215004+41330+019780FM-15+0090LATI V0209999C000012200019N0112651N1+00801+00501999999ADDGA1021+060009999GF104991999999999999999999MA1102911999999MW1001REMMET051LATI 121500Z 00000KT 9999 SCT200 08/05 Q1029 NOSIG;EQDQ01+000000PRSWM2
0145136150999992000011306004+41330+019780FM-15+0090LATI V0209999C000012200019N0070001N1+00101+00001999999ADDGA1021+030009999GF104991999999999999999999MA1102811999999MW1001REMMET051LATI 130600Z 00000KT 7000 SCT100 01/00 Q1028 NOSIG;EQDQ01+000000PRSWM2
0137136150999992000011307004+41330+019780FM-15+0090LATI V0209999C000012200019N0080001N1+00101+00001999999ADDGA1021+030009999GF104991999999999999999999MA1102811999999MW1001REMMET043LATI 0700Z 00000KT 8000 SCT100 01/00 Q1028;EQDQ01+000000PRSWM2
0137136150999992000011308004+41330+019780FM-15+0090LATI V0209999C000010300019N0080001N1+00301+00101999999ADDGA1071+030009999GF107991999999999999999999MA1102911999999MW1001REMMET043LATI 0800Z 00000KT 8000 BKN100 03/01 Q1029;EQDQ01+000000PRSWM2
0137136150999992000011309004+41330+019780FM-15+0090LATI V0209999C000012200019N0080001N1+00501+00101999999ADDGA1021+030009999GF104991999999999999999999MA1102911999999MW1001REMMET043LATI 0900Z 00000KT 8000 SCT100 05/01 Q1029;EQDQ01+000000PRSWM2
0160136150999992000011310004+41330+019780FM-15+0090LATI V0209999C000010300019N0080001N1+00901+00501999999ADDGA1021+024009999GA2071+030009999GF107991999999999999999999MA1102911999999MW1001REMMET050LATI 1000Z 00000KT 8000 SCT080 BKN100 09/05 Q1029;EQDQ01+000000PRSWM2
0137136150999992000011312004+41330+019780FM-15+0090LATI V0209999C000012200019N0080001N1+01201+00701999999ADDGA1021+024009999GF104991999999999999999999MA1102711999999MW1001REMMET043LATI 1200Z 00000KT 8000 SCT080 12/07 Q1027;EQDQ01+000000PRSWM2
0091136150999992000011405004+41330+019780FM-15+0090LATI V0209999C00001220001CN0099001N1-00101-00501999999ADDMA1102401999999MW1001REMMET039LATI 0500Z 00000KT CAVOK M01/M05 Q1024;EQDQ01+000000PRSWM2
0145136150999992000011407004+41330+019780FM-15+0090LATI V0209999C000010600019N0080001N1-00101-00501999999ADDGA1071+060009999GF107991999999999999999999MA1102401999999MW1001REMMET051LATI 0700Z 00000KT 8000 BKN200 M01/M05 Q1024 NOSIG;EQDQ01+000000PRSWM2
0144136150999992000011408004+41330+019780FM-15+0090LATI V0209999C000010600019N0080001N1+00201-00401999999ADDGA1071+060009999GF107991999999999999999999MA1102401999999MW1001REMMET050LATI 0800Z 00000KT 8000 BKN200 02/M04 Q1024 NOSIG;EQDQ01+000000PRSWM2
0160136150999992000011409004+41330+019780FM-15+0090LATI V0209999C000010600019N9999999N1+00301-00301999999ADDGA1071+060009999GF107991999999999999999999MA1102401999999MW1001REMMET050LATI 0900Z 00000KT 7000 BKN200 03/M03 Q1024 NOSIG;EQDQ01+070002VODIS Q02+000000PRSWM2
0166136150999992000011411004+41330+019780FM-15+0090LATI V0209999C000010600019N0112651N1+00901+00501999999ADDGA1021+030009999GA2071+060009999GF107991999999999999999999MA1102301999999MW1001REMMET056LATI 1100Z 00000KT 9999 SCT100 BKN200 09/05 Q1023 NOSIG;EQDQ01+000000PRSWM2
0166136150999992000011412004+41330+019780FM-15+0090LATI V0209999C000010600019N0112651N1+01101+00701999999ADDGA1021+030009999GA2071+060009999GF107991999999999999999999MA1102301999999MW1001REMMET056LATI 1200Z 00000KT 9999 SCT100 BKN200 11/07 Q1023 NOSIG;EQDQ01+000000PRSWM2
0160136150999992000011415004+41330+019780FM-15+0090LATI V0209999C000010300019N0112651N1+00901+00601999999ADDGA1021+024009999GA2071+030009999GF107991999999999999999999MA1102001999999MW1001REMMET050LATI 1500Z 00000KT 9999 SCT080 BKN100 09/06 Q1020;EQDQ01+000000PRSWM2
0162136150999992000011504004+41330+019780FM-15+0090LATI V0209999C000010450019N0112651N1-00101-00201999999ADDGA1021+030009999GA2071+045009999GF107991999999999999999999MA1102201999999MW1001REMMET052LATI 0400Z 00000KT 9999 SCT100 BKN150 M01/M02 Q1022;EQDQ01+000000PRSWM2
0141136150999992000011507004+41330+019780FM-15+0090LATI V0209999C000010600019N0112651N1-00101-00601999999ADDGA1071+060009999GF107991999999999999999999MA1102401999999MW1001REMMET047LATI 150700Z 00000KT 9999 BKN200 M01/M06 Q1024;EQDQ01+000000PRSWM2
0140136150999992000011509004+41330+019780FM-15+0090LATI V0209999C000010600019N0112651N1+00501-00201999999ADDGA1071+060009999GF107991999999999999999999MA1102301999999MW1001REMMET046LATI 150900Z 00000KT 9999 BKN200 05/M02 Q1023;EQDQ01+000000PRSWM2
0139136150999992000011512004+41330+019780FM-15+0090LATI V0203601N002110600019N0112651N1+01001+00501999999ADDGA1071+060009999GF107991999999999999999999MA1102201999999MW1001REMMET045LATI 151200Z 36004KT 9999 BKN200 10/05 Q1022;EQDQ01+000000PRSWM2
0168136150999992000011605004+41330+019780FM-15+0090LATI V0209999C000010600019N0112651N1-00201-00501999999ADDGA1021+030009999GA2071+060009999GF107991999999999999999999MA1102301999999MW1001REMMET058LATI 0500Z 00000KT 9999 SCT100 BKN200 M02/M05 Q1023 NOSIG;EQDQ01+000000PRSWM2
0168136150999992000011606004+41330+019780FM-15+0090LATI V0209999C000010600019N0112651N1-00301-00501999999ADDGA1021+030009999GA2071+060009999GF107991999999999999999999MA1102301999999MW1001REMMET058LATI 0600Z 00000KT 9999 SCT100 BKN200 M03/M05 Q1023 NOSIG;EQDQ01+000000PRSWM2
0164136150999992000011607004+41330+019780FM-15+0090LATI V0209999C000010600019N0080001N1-00201-00401999999ADDGA1021+030009999GA2071+060009999GF107991999999999999999999MA1102301999999MW1001REMMET054LATI 160700Z 00000KT 8000 SCT100 BKN200 M02/M04 Q1023;EQDQ01+000000PRSWM2
0162136150999992000011609004+41330+019780FM-15+0090LATI V0209999C000010600019N0080001N1+00301+00001999999ADDGA1021+030009999GA2071+060009999GF107991999999999999999999MA1102301999999MW1001REMMET052LATI 160900Z 00000KT 8000 SCT100 BKN200 03/00 Q1023;EQDQ01+000000PRSWM2
0162136150999992000011610004+41330+019780FM-15+0090LATI V0209999C000010300019N0080001N1+00501+00001999999ADDGA1021+024009999GA2071+030009999GF107991999999999999999999MA1102301999999MW1001REMMET052LATI 161000Z 00000KT 8000 SCT080 BKN100 05/00 Q1023;EQDQ01+000000PRSWM2
0162136150999992000011611004+41330+019780FM-15+0090LATI V0209999C000010300019N0080001N1+00701+00201999999ADDGA1021+024009999GA2071+030009999GF107991999999999999999999MA1102201999999MW1001REMMET052LATI 161100Z 00000KT 8000 SCT080 BKN100 07/02 Q1022;EQDQ01+000000PRSWM2
0162136150999992000011612004+41330+019780FM-15+0090LATI V0209999C000010300019N0080001N1+01001+00201999999ADDGA1021+024009999GA2071+030009999GF107991999999999999999999MA1102201999999MW1001REMMET052LATI 161200Z 00000KT 8000 SCT080 BKN100 10/02 Q1022;EQDQ01+000000PRSWM2
0162136150999992000011613104+41330+019780FM-15+0090LATI V0203401N002110300019N0080001N1+01001+00201999999ADDGA1021+024009999GA2071+030009999GF107991999999999999999999MA1102101999999MW1001REMMET052LATI 161310Z 34004KT 8000 SCT080 BKN100 10/02 Q1021;EQDQ01+000000PRSWM2
0162136150999992000011705004+41330+019780FM-15+0090LATI V0209999C000010450019N0112651N1+00001+00001999999ADDGA1021+018009999GA2071+045009999GF107991999999999999999999MA1101801999999MW1001REMMET052LATI 170500Z 00000KT 9999 SCT060 BKN150 00/00 Q1018;EQDQ01+000000PRSWM2
0166136150999992000011707004+41330+019780FM-15+0090LATI V0209999C000010150019N0050001N1+00201+00101999999ADDGA1071+015009999GA2071+024009999GF107991999999999999999999MA1101801999999MW1001REMMET056LATI 170700Z 00000KT 5000 BKN050 BKN080 02/01 Q1018 NOS;EQDQ01+000000PRSWM2
0162136150999992000011708004+41330+019780FM-15+0090LATI V0209999C000010135019N0050001N1+00301+00201999999ADDGA1071+013509999GA2071+024009999GF107991999999999999999999MA1101801999999MW1001REMMET052LATI 170800Z 00000KT 5000 BKN045 BKN080 03/02 Q1018;EQDQ01+000000PRSWM2
0177136150999992000011711004+41330+019780FM-15+0090LATI V0209999C000010210019N9999999N1+00601-00201999999ADDGA1021+015009999GA2071+021009999GF107991999999999999999999MA1101591999999MW1001REMMET051LATI 1100Z 00000KT 5000 SCT050 BKN070 06/M02 Q1016;EQDQ01+050002VODIS Q02+000000PRSWM2
0179136150999992000011713254+41330+019780FM-15+0090LATI V0209999C000010240019N9999999N1+00701-00201999999ADDGA1021+015009999GA2071+024009999GF107991999999999999999999MA1101491999999MW1001REMMET053LATI 171325Z 00000KT 6000 SCT050 BKN080 07/-02 Q1015;EQDQ01+060002VODIS Q02+000000PRSWM2
0139136150999992000011803154+41330+019780FM-15+0090LATI V0209999C000012200019N0112651N1+00201+00101999999ADDGA1021+012009999GF104991999999999999999999MA1100711999999MW1001REMMET045LATI 180315Z 00000KT 9999 SCT040 02/01 Q1007;EQDQ01+000000PRSWM2
0090136150999992000011805104+41330+019780FM-15+0090LATI V0209999C00001220001CN0099001N1+00001-00201999999ADDMA1100511999999MW1001REMMET038LATI 180510Z 00000KT CAVOK0/M02 Q1005;EQDQ01+000000PRSWM2
0139136150999992000011806004+41330+019780FM-15+0090LATI V0209999C000012200019N0060001N1+00001-00301999999ADDGA1021+012009999GF104991999999999999999999MA1100511999999MW1001REMMET045LATI 180600 00000KT 6000 SCT040 00/M03 Q1005;EQDQ01+000000PRSWM2
0163136150999992000011807004+41330+019780FM-15+0090LATI V0209999C000010180019N0070001N1+00001-00301999999ADDGA1021+010509999GA2071+018009999GF107991999999999999999999MA1100611999999MW1001REMMET053LATI 180700Z 00000KT 7000 SCT035 BKN060 00/M03 Q1006;EQDQ01+000000PRSWM2
0168136150999992000011808004+41330+019780FM-15+0090LATI V0209999C000012200019N0060001N1+00401+00001999999ADDGA1021+009009999GA2021+018009999GF104991999999999999999999MA1100711999999MW1001REMMET058LATI 180800Z 00000KT 6000 SCT030 SCT060 04/00 Q1007 NOSIG;EQDQ01+000000PRSWM2
0158136150999992000011808304+41330+019780FM-15+0090LATI V02099999999990210019N0060001N1+00601+00201999999ADDGA1021+009009999GA2071+021009999GF107991999999999999999999MA1100711999999MW1001REMMET048LATI 0930Z 00000 6000 SCT030 BKN070 06/02 Q1007;EQDQ01+000000PRSWM2
0160136150999992000011810004+41330+019780FM-15+0090LATI V0209999C000012200019N0080001N1+00801+00201999999ADDGA1021+009009999GA2021+021009999GF104991999999999999999999MA1100711999999MW1001REMMET050LATI 1000Z 00000KT 8000 SCT030 SCT070 08/02 Q1007;EQDQ01+000000PRSWM2
0169136150999992000011812004+41330+019780FM-15+0090LATI V0209999C000010210019N0080001N1+01101+00401999999ADDGA1021+009009029GA2071+021009999GF107991999999999999999999MA1100411999999MW1001REMMET059LATI 1200Z 00000KT 8000 SCT030TCU BKN070 11/04 Q1004 NOSIG;EQDQ01+000000PRSWM2
0185136150999992000011815004+41330+019780FM-15+0090LATI V0209999C000010180019N0080001N1+01101+00401999999ADDGA1021+009009999GA2071+018009999GA3081+030009999GF108991999999999999999999MA1100201999999MW1001REMMET059LATI 181500Z 00000KT 8000 SCT030 BKN060 OVC100 11/04 Q1002;EQDQ01+000000PRSWM2
0163136150999992000011903004+41330+019780FM-15+0090LATI V0203001N003110300019N0112651N1+00401-00401999999ADDGA1021+024009999GA2071+030009999GF107991999999999999999999MA1100411999999MW1001REMMET053LATI 190300Z 30006KT 9999 SCT080 BKN100 04/-04 Q1004;EQDQ01+000000PRSWM2
0140136150999992000011906004+41330+019780FM-15+0090LATI V0203201N004112200019N0112651N1+00201-00501999999ADDGA1021+018009999GF102991999999999999999999MA1100711999999MW1001REMMET046LATI 190600Z 32008KT 9999 FEW060 02/-05 Q1007;EQDQ01+000000PRSWM2
0138136150999992000011907004+41330+019780FM-15+0090LATI V0203201N005112200019N0112651N1+00101-00601999999ADDGA1021+024009999GF102991999999999999999999MA1100911999999MW1001REMMET044LATI 0700Z 32010KT 9999 FEW080 01/M06 Q1009;EQDQ01+000000PRSWM2
0096136150999992000011909004+41330+019780FM-15+0090LATI V0200901N00311220001CN0099001N1+00701-00401999999ADDMA1101081999999MW1001REMMET044LATI 0900Z 09006KT CAVOK 07/M04 Q1011 NOSIG;EQDQ01+000000PRSWM2
0096136150999992000011911004+41330+019780FM-15+0090LATI V0203301N00511220001CN0099001N1+00901-00201999999ADDMA1101081999999MW1001REMMET044LATI 1100Z 33010KT CAVOK 09/M02 Q1011 NOSIG;EQDQ01+000000PRSWM2
0096136150999992000011912004+41330+019780FM-15+0090LATI V0203201N00511220001CN0099001N1+00901-00201999999ADDMA1101081999999MW1001REMMET044LATI 1200Z 32010KT CAVOK 09/M02 Q1011 NOSIG;EQDQ01+000000PRSWM2
0097136150999992000012005004+41330+019780FM-15+0090LATI V0209999C00001220001CN0099001N1-00301-00501999999ADDMA1102301999999MW1001REMMET045LATI 0500Z 00000KT CAVOK M03/M05 Q1023 NOSIG;EQDQ01+000000PRSWM2
0097136150999992000012006004+41330+019780FM-15+0090LATI V0209999C00001220001CN0099001N1-00301-00501999999ADDMA1102301999999MW1001REMMET045LATI 0600Z 00000KT CAVOK M03/M05 Q1023 NOSIG;EQDQ01+000000PRSWM2
0097136150999992000012007004+41330+019780FM-15+0090LATI V0209999C00001220001CN0099001N1-00201-00501999999ADDMA1102511999999MW1001REMMET045LATI 0700Z 00000KT CAVOK M02/M05 Q1025 NOSIG;EQDQ01+000000PRSWM2
0096136150999992000012008304+41330+019780FM-15+0090LATI V0203601N00511220001CN0099001N1+00501-00201999999ADDMA1102711999999MW1001REMMET044LATI 0930Z 36010KT CAVOK 05/M02 Q1027 NOSIG;EQDQ01+000000PRSWM2
0096136150999992000012010004+41330+019780FM-15+0090LATI V0203201N00311220001CN0099001N1+00801-00101999999ADDMA1102611999999MW1001REMMET044LATI 1000Z 32006KT CAVOK 08/M01 Q1026 NOSIG;EQDQ01+000000PRSWM2
0144136150999992000012011004+41330+019780FM-15+0090LATI V0203401N003112200019N0112651N1+01001+00001999999ADDGA1021+012009999GF102991999999999999999999MA1102611999999MW1001REMMET050LATI 1100Z 34006KT 9999 FEW040 10/M00 Q1026 NOSIG;EQDQ01+000000PRSWM2
0144136150999992000012012004+41330+019780FM-15+0090LATI V0203201N003112200019N0112651N1+00601-00201999999ADDGA1021+012009999GF102991999999999999999999MA1102611999999MW1001REMMET050LATI 1200Z 32006KT 9999 FEW040 06/M02 Q1026 NOSIG;EQDQ01+000000PRSWM2
0146136150999992000012014004+41330+019780FM-15+0090LATI V0203201N004112200019N0112651N1+00601-00201999999ADDGA1021+012009999GF102991999999999999999999MA1102611999999MW1001REMMET052LATI 201400Z 32008KT 9999 FEW040 06/M02 Q1026 NOSIG;EQDQ01+000000PRSWM2
0162136150999992000012106004+41330+019780FM-15+0090LATI V0201801N002112200019N0112651N1-00401-00501999999ADDGA1021+015009999GA2021+030009999GF104991999999999999999999MA1102201999999MW1001REMMET052LATI 0600Z 18004KT 9999 SCT050 SCT100 M04/M05 Q1022;EQDQ01+000000PRSWM2
0170136150999992000012107004+41330+019780FM-15+0090LATI V0201801N003112200019N0112651N1-00101-00501999999ADDGA1021+015009999GA2021+030009999GF104991999999999999999999MA1102201999999MW1001REMMET060LATI 210700Z 18006KT 9999 SCT050 SCT100 M01/M05 Q1022 NOSIG;EQDQ01+000000PRSWM2
0140136150999992000012108004+41330+019780FM-15+0090LATI V0209999C000010300019N0112651N1+00201-00401999999ADDGA1071+030009999GF107991999999999999999999MA1102101999999MW1001REMMET046LATI 210800Z 00000KT 9999 BKN100 02/M04 Q1021;EQDQ01+000000PRSWM2
0163136150999992000012109004+41330+019780FM-15+0090LATI V0201601N002110120019N0112651N1+00301-00301999999ADDGA1071+012009999GA2081+021009999GF108991999999999999999999MA1102101999999MW1001REMMET053LATI 210900Z 16004KT 9999 BKN040 OVC070 03/M03 Q1021;EQDQ01+000000PRSWM2
0163136150999992000012110004+41330+019780FM-15+0090LATI V0201701N003110120019N0112651N1+00401-00301999999ADDGA1071+012009999GA2081+021009999GF108991999999999999999999MA1102001999999MW1001REMMET053LATI 211000Z 17006KT 9999 BKN040 OVC070 04/M03 Q1020;EQDQ01+000000PRSWM2
0163136150999992000012111004+41330+019780FM-15+0090LATI V0201401N006210120019N0112651N1+00601-00301999999ADDGA1071+012009999GA2071+021009999GF107991999999999999999999MA1101801999999MW1001REMMET053LATI 211100Z 14012KT 9999 BKN040 BKN070 06/M03 Q1018;EQDQ01+000000PRSWM2
0163136150999992000012112004+41330+019780FM-15+0090LATI V0201201N006210120019N0112651N1+00601-00301999999ADDGA1071+012009999GA2071+018009999GF107991999999999999999999MA1101801999999MW1001REMMET053LATI 211200Z 12012KT 9999 BKN040 BKN060 06/M03 Q1018;EQDQ01+000000PRSWM2
0163136150999992000012113004+41330+019780FM-15+0090LATI V0201201N003110120019N0112651N1+00601-00201999999ADDGA1071+012009999GA2081+018009999GF108991999999999999999999MA1101591999999MW1001REMMET053LATI 211300Z 12006KT 9999 BKN040 OVC060 06/M02 Q1016;EQDQ01+000000PRSWM2
0166136150999992000012114004+41330+019780FM-15+0090LATI V0201201N002110090019N0112651N1+00701+00001999999ADDGA1071+009009029GA2081+015009999GF108991999999999999999999MA1101491999999MW1001REMMET056LATI 211400Z 12004KT 9999 BKN030TCU OVC050 07/M00 Q1015;EQDQ01+000000PRSWM2
0180136150999992000012115004+41330+019780FM-15+0090LATI V0209999C000010150019N0040001N1+00601+00301999999ADDGA1021+009009999GA2081+015009999GF108991999999999999999999MA1101491999999MW1611REMMET054LATI 1500Z 00000KT 4000 -RA SCT030 OVC050 06/03 Q1015;EQDQ01+000003PRSWM1Q02    003PRSWM1
0090136150999992000012204304+41330+019780FM-15+0090LATI V0203601N00621220001CN0099001N1+00101-00501999999ADDMA1101801999999MW1001REMMET038LATI 0530Z 36012KT CAVOK 01/M05 Q1018;EQDQ01+000000PRSWM2
0098136150999992000012207004+41330+019780FM-15+0090LATI V0209999C00001220001CN0099001N1+00101-00501999999ADDMA1101901999999MW1001REMMET046LATI 220700Z 00000KT CAVOK 01/M05 Q1019 NOSIG;EQDQ01+000000PRSWM2
0146136150999992000012209004+41330+019780FM-15+0090LATI V0203201N003112200019N0112651N1+00501-00401999999ADDGA1021+060009999GF104991999999999999999999MA1102001999999MW1001REMMET052LATI 220900Z 32006KT 9999 SCT200 05/M04 Q1020 NOSIG;EQDQ01+000000PRSWM2
0098136150999992000012210004+41330+019780FM-15+0090LATI V0201801N00211220001CN0099001N1+00801-00201999999ADDMA1101901999999MW1001REMMET046LATI 221000Z 18004KT CAVOK 08/M02 Q1019 NOSIG;EQDQ01+000000PRSWM2
0098136150999992000012211004+41330+019780FM-15+0090LATI V0201801N00311220001CN0099001N1+00901-00101999999ADDMA1101901999999MW1001REMMET046LATI 221100Z 18006KT CAVOK 09/M01 Q1019 NOSIG;EQDQ01+000000PRSWM2
0097136150999992000012212004+41330+019780FM-15+0090LATI V0209999C00001220001CN0099001N1+01001+00101999999ADDMA1101801999999MW1001REMMET045LATI 221200Z 00000KT CAVOK 10/01 Q1018 NOSIG;EQDQ01+000000PRSWM2
0145136150999992000012213104+41330+019780FM-15+0090LATI V0209999C000012200019N0112651N1+01201+00201999999ADDGA1021+060009999GF104991999999999999999999MA1101691999999MW1001REMMET051LATI 221310Z 00000KT 9999 SCT200 12/02 Q1017 NOSIG;EQDQ01+000000PRSWM2
0145136150999992000012214004+41330+019780FM-15+0090LATI V0209999C000012200019N0112651N1+01301+00201999999ADDGA1021+060009999GF104991999999999999999999MA1101691999999MW1001REMMET051LATI 221400Z 00000KT 9999 SCT200 13/02 Q1017 NOSIG;EQDQ01+000000PRSWM2
0145136150999992000012214504+41330+019780FM-15+0090LATI V0209999C000012200019N0112651N1+00701+00101999999ADDGA1021+060009999GF104991999999999999999999MA1101691999999MW1001REMMET051LATI 221450Z 00000KT 9999 SCT200 07/01 Q1017 NOSIG;EQDQ01+000000PRSWM2
0205136150999992000012304304+41330+019780FM-15+0090LATI V0201301N007210090019N0112651N1+00601+00401999999ADDGA1071+009009999GA2071+012009999GA3081+018009999GF108991999999999999999999MA1100611999999MW1611REMMET063LATI 230530Z 13014KT 9999 -RA BKN030 BKN040 OVC060 06/04 Q1006;EQDQ01+000003PRSWM1Q02    003PRSWM1
0183136150999992000012308004+41330+019780FM-15+0090LATI V0202501N005110210019N0112651N1+00801+00401999999ADDGA1021+009009999GA2021+012009999GA3081+021009999GF108991999999999999999999MA1100411999999MW1001REMMET057LATI 0800Z 25010KT 9999 FEW030 SCT040 OVC070 08/04 Q1004;EQDQ01+000000PRSWM2
0146136150999992000012312004+41330+019780FM-15+0090LATI V0201401N007710180019N0112651N1+00901+00701999999ADDGA1021+009009099GA2071+018009999GF107991999999999999999999MW1001REMMET051LATI 1200Z 14015KT 9999 SCT030CB BKN060 09/07 1002;EQDQ01+000000PRSWM2
0141136150999992000012315004+41330+019780FM-15+0090LATI V0201801N008212200019N0112651N1+99999+99999999999ADDGA1021+006009999GF104991999999999999999999MW1001REMMET062LATI 231500Z 18016KT 9999 SCT020 CB BKN030 BKN060 08/07 Q1001;EQDQ01+000000PRSWM2
0148136150999992000012405004+41330+019780FM-15+0090LATI V0201601N002112200019N0112651N1+99999+99999999999ADDGA1021+006009999GF104991999999999999999999MW1001REMMET069LATI 240500Z 16004KT 9999 RESHRA SCT020 CB BKN030 OVC050 03/03 Q1001;EQDQ01+000000PRSWM2
0150136150999992000012406004+41330+019780FM-15+0090LATI V0209999C000012200019N0080001N1+99999+99999999999ADDGA1021+003009999GF104991999999999999999999MW1001MW2631REMMET065LATI 240600Z 00000KT 8000 RA SCT010 CB BKN030 OVC050 04/04 Q1001;EQDQ01+000003PRSWM1
0183136150999992000012407004+41330+019780FM-15+0090LATI V0201601N006210090019N0112651N1+00401+00301999999ADDGA1021+004509999GA2071+009009999GA3071+015009999GF107991999999999999999999MA1100101999999MW1001REMMET057LATI 0700Z 16012KT 9999 SCT015 BKN030 BKN050 04/03 Q1001;EQDQ01+000000PRSWM2
0185136150999992000012408004+41330+019780FM-15+0090LATI V0201801N006210060019N0112651N1+00501+00301999999ADDGA1021+003009999GA2071+006009099GA3081+015009999GF108991999999999999999999MA1100101999999MW1001REMMET059LATI 0800Z 18012KT 9999 SCT010 BKN020CB OVC050 05/03 Q1001;EQDQ01+000000PRSWM2
0162136150999992000012409004+41330+019780FM-15+0090LATI V0202101N007710060019N0112651N1+00501+00301999999ADDGA1071+006009099GA2081+015009999GF108991999999999999999999MA1100201999999MW1001REMMET052LATI 0900Z 21015KT 9999 BKN020CB OVC050 05/03 Q1002;EQDQ01+000000PRSWM2
0185136150999992000012410004+41330+019780FM-15+0090LATI V0202101N003110060019N0112651N1+00501+00401999999ADDGA1021+003009999GA2071+006009099GA3081+015009999GF108991999999999999999999MA1100411999999MW1001REMMET059LATI 1000Z 21006KT 9999 SCT010 BKN020CB OVC050 05/04 Q1004;EQDQ01+000000PRSWM2
0164136150999992000012504004+41330+019780FM-15+0090LATI V0203201N003112200019N0112651N1-00101-00201999999ADDGA1021+015009999GA2021+024009999GF104991999999999999999999MA1101691999999MW1001REMMET054LATI 250400Z 32006KT 9999 SCT050 SCT080 -01/-02 Q1017;EQDQ01+000000PRSWM2
0164136150999992000012506004+41330+019780FM-15+0090LATI V0209999C000010300019N0112651N1-00201-00401999999ADDGA1021+012009999GA2071+030009999GF107991999999999999999999MA1101901999999MW1001REMMET054LATI 250600Z 00000KT 9999 SCT040 BKN100 -02/-04 Q1019;EQDQ01+000000PRSWM2
0170136150999992000012507004+41330+019780FM-15+0090LATI V0203201N003112200019N0112651N1-00101-00401999999ADDGA1021+021009999GA2021+060009999GF104991999999999999999999MA1101901999999MW1001REMMET060LATI 250700Z 32006KT 9999 SCT070 SCT200 M01/M04 Q1019 NOSIG;EQDQ01+000000PRSWM2
0098136150999992000012508004+41330+019780FM-15+0090LATI V0203401N00311220001CN0099001N1+00001-00401999999ADDMA1102001999999MW1001REMMET046LATI 250800Z 34006KT CAVOK 00/M04 Q1020 NOSIG;EQDQ01+000000PRSWM2
0098136150999992000012508304+41330+019780FM-15+0090LATI V0203401N00311220001CN0099001N1+00401+00001999999ADDMA1102101999999MW1001REMMET046LATI 250930Z 34006KT CAVOK 04/M00 Q1021 NOSIG;EQDQ01+000000PRSWM2
0090136150999992000012510004+41330+019780FM-15+0090LATI V0209999C00001220001CN0099001N1+00401-00101999999ADDMA1102101999999MW1001REMMET038LATI 1000Z 00000KT CAVOK 04/M01 Q1021;EQDQ01+000000PRSWM2
0098136150999992000012511004+41330+019780FM-15+0090LATI V0209999C00001220001CN0099001N1+00601-00201999999ADDMA1102101999999MW1001REMMET046LATI 251100Z 00000KT CAVOK 06/M02 Q1021 NOSIG;EQDQ01+000000PRSWM2
0096136150999992000012513304+41330+019780FM-15+0090LATI V0203201N00621220001CN0099001N1+00501-00101999999ADDMA1102201999999MW1001REMMET044LATI 1430Z 32012KT CAVOK 05/M01 Q1022 NOSIG;EQDQ01+000000PRSWM2
0096136150999992000012515004+41330+019780FM-15+0090LATI V0203401N00621220001CN0099001N1+00101-00401999999ADDMA1102301999999MW1001REMMET044LATI 1500Z 34012KT CAVOK 01/M04 Q1023 NOSIG;EQDQ01+000000PRSWM2
0087136150999992000012516004+41330+019780FM-15+0090LATI V0203201N005112200019N0112651N1+99999+99999999999ADDMW1001REMMET050LATI 1600Z 32010KT 9999 CAVOK M01/M12 Q1024 NOSIG;EQDQ01+000000PRSWM2
0139136150999992000012604004+41330+019780FM-15+0090LATI V0209999C000012200019N0112651N1-00601-00701999999ADDGA1021+060009999GF104991999999999999999999MA1102711999999MW1001REMMET045LATI 0400Z 00000KT 9999 SCT200 M06/M07 Q1027;EQDQ01+000000PRSWM2
0097136150999992000012606004+41330+019780FM-15+0090LATI V0209999C00001220001CN0099001N1-00701-00801999999ADDMA1102711999999MW1001REMMET045LATI 0600Z 00000KT CAVOK M07/M08 Q1027 NOSIG;EQDQ01+000000PRSWM2
0099136150999992000012607004+41330+019780FM-15+0090LATI V0209999C00001220001CN0099001N1-00601-00801999999ADDMA1102811999999MW1001REMMET047LATI 260700Z 00000KT CAVOK M06/M08 Q1028 NOSIG;EQDQ01+000000PRSWM2
0099136150999992000012608004+41330+019780FM-15+0090LATI V0209999C00001220001CN0099001N1-00201-00601999999ADDMA1102811999999MW1001REMMET047LATI 260800Z 00000KT CAVOK M02/M06 Q1028 NOSIG;EQDQ01+000000PRSWM2
0099136150999992000012608304+41330+019780FM-15+0090LATI V0209999C00001220001CN0099001N1-00101-00501999999ADDMA1102911999999MW1001REMMET047LATI 260930Z 00000KT CAVOK M01/M05 Q1029 NOSIG;EQDQ01+000000PRSWM2
0146136150999992000012610204+41330+019780FM-15+0090LATI V0209999C000012200019N0112651N1+00201-00501999999ADDGA1021+060009999GF102991999999999999999999MA1102911999999MW1001REMMET052LATI 261020Z 00000KT 9999 FEW200 02/M05 Q1029 NOSIG;EQDQ01+000000PRSWM2
0146136150999992000012611204+41330+019780FM-15+0090LATI V0209999C000012200019N0112651N1+00201-00501999999ADDGA1021+060009999GF102991999999999999999999MA1102911999999MW1001REMMET052LATI 261120Z 00000KT 9999 FEW200 02/M05 Q1029 NOSIG;EQDQ01+000000PRSWM2
0169136150999992000012613004+41330+019780FM-15+0090LATI V0203601N002612200019N0112651N1+00401-00701999999ADDGA1021+030009999GA2021+060009999GF104991999999999999999999MA1102811999999MW1001REMMET059LATI 261300Z 36005KT 9999 FEW100 SCT200 04/M07 Q1028 NOSIG;EQDQ01+000000PRSWM2
0096136150999992000012615004+41330+019780FM-15+0090LATI V0203201N00411220001CN0099001N1+00101-00901999999ADDMA1102811999999MW1001REMMET044LATI 1500Z 32008KT CAVOK 01/M09 Q1028 NOSIG;EQDQ01+000000PRSWM2
0097136150999992000012705004+41330+019780FM-15+0090LATI V0209999C00001220001CN0099001N1-00601-01201999999ADDMA1103181999999MW1001REMMET045LATI 0500Z 00000KT CAVOK M06/M12 Q1032 NOSIG;EQDQ01+000000PRSWM2
0099136150999992000012708184+41330+019780FM-15+0090LATI V0209999C00001220001CN0099001N1-00101-00601999999ADDMA1103181999999MW1001REMMET047LATI 270818Z 00000KT CAVOK M01/M06 Q1032 NOSIG;EQDQ01+000000PRSWM2
0092136150999992000012709004+41330+019780FM-15+0090LATI V0209999C00001220001CN0099001N1+00201-00501999999ADDMA1103181999999MW1001REMMET040LATI 270900Z 00000KT CAVOK 02/M05 Q1032;EQDQ01+000000PRSWM2
0098136150999992000012710004+41330+019780FM-15+0090LATI V0209999C00001220001CN0099001N1+00401-00301999999ADDMA1103121999999MW1001REMMET046LATI 271000Z 00000KT CAVOK 04/M03 Q1031 NOSIG;EQDQ01+000000PRSWM2
0098136150999992000012712004+41330+019780FM-15+0090LATI V0209999C00001220001CN0099001N1+00501-00201999999ADDMA1103011999999MW1001REMMET046LATI 271200Z 00000KT CAVOK 05/M02 Q1030 NOSIG;EQDQ01+000000PRSWM2
0098136150999992000012713004+41330+019780FM-15+0090LATI V0203601N00211220001CN0099001N1+00501-00201999999ADDMA1103011999999MW1001REMMET046LATI 271300Z 36004KT CAVOK 05/M02 Q1030 NOSIG;EQDQ01+000000PRSWM2
0098136150999992000012714004+41330+019780FM-15+0090LATI V0209999C00001220001CN0099001N1+00401-00301999999ADDMA1103011999999MW1001REMMET046LATI 271400Z 00000KT CAVOK 04/M03 Q1030 NOSIG;EQDQ01+000000PRSWM2
0096136150999992000012714304+41330+019780FM-15+0090LATI V0209999C00001220001CN0099001N1+00501-00601999999ADDMA1103011999999MW1001REMMET044LATI 1530Z 00000KT CAVOK 05/M06 Q1030 NOSIG;EQDQ01+000000PRSWM2
0097136150999992000012805004+41330+019780FM-15+0090LATI V0209999C00001220001CN0099001N1-00301-00801999999ADDMA1102811999999MW1001REMMET045LATI 0500Z 00000KT CAVOK M03/M08 Q1028 NOSIG;EQDQ01+000000PRSWM2
0097136150999992000012806004+41330+019780FM-15+0090LATI V0209999C00001220001CN0099001N1-00401-00801999999ADDMA1102811999999MW1001REMMET045LATI 0600Z 00000KT CAVOK M04/M08 Q1028 NOSIG;EQDQ01+000000PRSWM2
0099136150999992000012807004+41330+019780FM-15+0090LATI V0209999C00001220001CN0099001N1-00101-00301999999ADDMA1102911999999MW1001REMMET047LATI 280700Z 00000KT CAVOK -01/-03 Q1029 NOSIG;EQDQ01+000000PRSWM2
0098136150999992000012808204+41330+019780FM-15+0090LATI V0209999C00001220001CN0099001N1+00401-00101999999ADDMA1102911999999MW1001REMMET046LATI 280820Z 00000KT CAVOK 04/-01 Q1029 NOSIG;EQDQ01+000000PRSWM2
0092136150999992000012809004+41330+019780FM-15+0090LATI V0209999C00001220001CN0099001N1+00601-00101999999ADDMA1102811999999MW1001REMMET040LATI 280900Z 00000KT CAVOK 06/-01 Q1028;EQDQ01+000000PRSWM2
0096136150999992000012812004+41330+019780FM-15+0090LATI V0203601N00311220001CN0099001N1+01001+00001999999ADDMA1102611999999MW1001REMMET044LATI 281200 36006KT CAVOK 10/00 Q1026 NOSIG;EQDQ01+000000PRSWM2
0145136150999992000012814504+41330+019780FM-15+0090LATI V0209999C000012200019N0112651N1+00901+00201999999ADDGA1021+009009999GF102991999999999999999999MA1102511999999MW1001REMMET051LATI 281450Z 00000KT 9999 FEW030 09/02 Q1025 NOSIG;EQDQ01+000000PRSWM2
0162136150999992000012816004+41330+019780FM-15+0090LATI V0209999C000012200019N0112651N1+00701+00301999999ADDGA1021+009009999GA2021+015009999GF102991999999999999999999MA1102511999999MW1001REMMET052LATI 281600Z 00000KT 9999 SCT030 FEW050 07/03 Q1025;EQDQ01+000000PRSWM2
0162136150999992000012905004+41330+019780FM-15+0090LATI V0209999C000010150019N0112651N1+00101+00001999999ADDGA1021+012009999GA2071+015009999GF107991999999999999999999MA1102401999999MW1001REMMET052LATI 290500Z 00000KT 9999 SCT040 BKN050 01/00 Q1024;EQDQ01+000000PRSWM2
0088136150999992000012907004+41330+019780FM-15+0090LATI V0209999C000012200019N0112651N1+99999+99999999999ADDMW1001REMMET051LATI 0700 00000KT 99999 FEW060 M00/M00 Q1024 NOSIG;EQDQ01+000000PRSWM2
0061136150999992000012907164+41330+019780FM-16+0090LATI V0203201N00261220001CN0099001N1+99999+99999999999ADDMW1001REMMET024LATI 0716 32005KT CAVOK;EQDQ01+000000PRSWM2
0095136150999992000012909004+41330+019780FM-15+0090LATI V0209999C00001220001CN0099001N1+00701+00101999999ADDMA1102401999999MW1001REMMET043LATI 0900Z 00000KT CAVOK 07/01 Q1024 NOSIG;EQDQ01+000000PRSWM2
0145136150999992000012912004+41330+019780FM-15+0090LATI V0203601N002112200019N0112651N1+01101+00401999999ADDGA1021+009009999GF102991999999999999999999MA1102201999999MW1001REMMET051LATI 291200Z 36004KT 9999 FEW030 11/04 Q1022 NOSIG;EQDQ01+000000PRSWM2
0139136150999992000012915004+41330+019780FM-15+0090LATI V0209999C000012200019N0112651N1+01001+00001999999ADDGA1021+009009999GF102991999999999999999999MA1102201999999MW1001REMMET045LATI 291500Z 00000KT 9999 FEW030 10/00 Q1022;EQDQ01+000000PRSWM2
0139136150999992000012916004+41330+019780FM-15+0090LATI V0209999C000012200019N0112651N1+00801+00101999999ADDGA1021+009009999GF102991999999999999999999MA1102201999999MW1001REMMET045LATI 291600Z 00000KT 9999 FEW030 08/01 Q1022;EQDQ01+000000PRSWM2
0162136150999992000013006104+41330+019780FM-15+0090LATI V0201801N003110090019N0112651N1+00501+00101999999ADDGA1071+009009999GA2071+018009999GF107991999999999999999999MA1102001999999MW1001REMMET052LATI 300610Z 18006KT 9999 BKN030 BKN060 05/01 Q1020;EQDQ01+000000PRSWM2
0160136150999992000013007004+41330+019780FM-15+0090LATI V0201501N003110090019N0112651N1+00601+00201999999ADDGA1071+009009999GA2071+018009999GF107991999999999999999999MA1102101999999MW1001REMMET050LATI 0700Z 15006KT 9999 BKN030 BKN060 06/02 Q1021;EQDQ01+000000PRSWM2
0160136150999992000013008004+41330+019780FM-15+0090LATI V0201501N002110150019N0112651N1+00701+00201999999ADDGA1071+015009999GA2071+021009999GF107991999999999999999999MA1102101999999MW1001REMMET050LATI 0800Z 15004KT 9999 BKN050 BKN070 07/02 Q1021;EQDQ01+000000PRSWM2
0160136150999992000013009004+41330+019780FM-15+0090LATI V0201501N003110150019N0112651N1+00701+00301999999ADDGA1071+015009999GA2071+018009999GF107991999999999999999999MA1102101999999MW1001REMMET050LATI 0900Z 15006KT 9999 BKN050 BKN060 07/03 Q1021;EQDQ01+000000PRSWM2
0160136150999992000013013004+41330+019780FM-15+0090LATI V0209999C000010180019N0112651N1+01101+00601999999ADDGA1021+007509999GA2071+018009999GF107991999999999999999999MA1102001999999MW1001REMMET050LATI 1300Z 00000KT 9999 SCT025 BKN060 11/06 Q1020;EQDQ01+000000PRSWM2
0193136150999992000013014004+41330+019780FM-15+0090LATI V0201501N002110180019N0112651N1+01101+00701999999ADDGA1021+009009999GA2071+018009999GA3071+024009999GF107991999999999999999999MA1102001999999MW1001REMMET067LATI 1400Z 15004KT 9999 SCT030 BKN060 BKN080 11/07 Q1020 BECMG -RA;EQDQ01+000000PRSWM2
0185136150999992000013015004+41330+019780FM-15+0090LATI V0209999C000010120019N0112651N1+01001+00801999999ADDGA1021+009009999GA2071+012009999GA3071+024009999GF107991999999999999999999MA1102001999999MW1001REMMET059LATI 301500Z 00000KT 9999 SCT030 BKN040 BKN080 10/08 Q1020;EQDQ01+000000PRSWM2
0185136150999992000013016004+41330+019780FM-15+0090LATI V0209999C000010090019N0112651N1+00901+00801999999ADDGA1071+009009999GA2071+012009999GA3071+015009999GF107991999999999999999999MA1102001999999MW1001REMMET059LATI 301600Z 00000KT 9999 BKN030 BKN040 BKN050 09/08 Q1020;EQDQ01+000000PRSWM2
0162136150999992000013105004+41330+019780FM-15+0090LATI V0209999C000010120019N0112651N1+00201+00101999999ADDGA1021+009009999GA2071+012009999GF107991999999999999999999MA1102711999999MW1001REMMET052LATI 310500Z 00000KT 9999 SCT030 BKN040 02/01 Q1027;EQDQ01+000000PRSWM2
0139136150999992000013106004+41330+019780FM-15+0090LATI V0209999C000012200019N0010001N1+00201+00101999999ADDGF100991999999999999999999MA1102711999999MW1441REMMET045LATI 310600Z 00000KT 1000 FG CLR 02/01 Q1027;EQDQ01+000003PRSWM1Q02    003PRSWM1
0095136150999992000013107004+41330+019780FM-15+0090LATI V0209999C00001220001CN0099001N1+00401+00201999999ADDMA1102711999999MW1001REMMET043LATI 0700Z 00000KT CAVOK 04/02 Q1027 NOSIG;EQDQ01+000000PRSWM2
0095136150999992000013109004+41330+019780FM-15+0090LATI V0209999C00001220001CN0099001N1+01101+00601999999ADDMA1102811999999MW1001REMMET043LATI 0900Z 00000KT CAVOK 11/06 Q1028 NOSIG;EQDQ01+000000PRSWM2
0095136150999992000013110004+41330+019780FM-15+0090LATI V0209999C00001220001CN0099001N1+01301+00701999999ADDMA1102811999999MW1001REMMET043LATI 1000Z 00000KT CAVOK 13/07 Q1028 NOSIG;EQDQ01+000000PRSWM2
0095136150999992000013111004+41330+019780FM-15+0090LATI V0209999C00001220001CN0099001N1+01401+00901999999ADDMA1102811999999MW1001REMMET043LATI 1100Z 00000KT CAVOK 14/09 Q1028 NOSIG;EQDQ01+000000PRSWM2
0143136150999992000013112004+41330+019780FM-15+0090LATI V0209999C000012200019N0112651N1+01401+00901999999ADDGA1021+012009999GF102991999999999999999999MA1102711999999MW1001REMMET049LATI 1200Z 00000KT 9999 FEW040 14/09 Q1027 NOSIG;EQDQ01+000000PRSWM2
0095136150999992000020104004+41330+019780FM-15+0090LATI V0209999C00001220001CN0099001N1+00201+00101999999ADDMA1102811999999MW1001REMMET043LATI 0400Z 00000KT CANOK 02/01 Q1028 NOSIG;EQDQ01+000000PRSWM2
0095136150999992000020105004+41330+019780FM-15+0090LATI V0209999C00001220001CN0099001N1+00201+00101999999ADDMA1102811999999MW1001REMMET043LATI 0500Z 00000KT CANOK 02/01 Q1028 NOSIG;EQDQ01+000000PRSWM2
0124136150999992000020106004+41330+019780FM-15+0090LATI V0209999C000012200019N0080001N1+00201+00101999999ADDGF100991999999999999999999MA1102611999999MW1001REMMET046LATI 0600Z 00000KT 8000 SKC 02/01 Q1026 NOSIG;EQDQ01+000000PRSWM2
0096136150999992000020107004+41330+019780FM-15+0090LATI V0209999C00001220001CN0099001N1+00401+00201999999ADDMA1102811999999MW1001REMMET044LATI 0700Z 00000KT CAVOK 04/02 Q1028 NOSIOG;EQDQ01+000000PRSWM2
0096136150999992000020108004+41330+019780FM-15+0090LATI V0209999C00001220001CN0099001N1+00801+00501999999ADDMA1102911999999MW1001REMMET044LATI 0800Z 00000KT CAVOK 08/05 Q1029 NOSIOG;EQDQ01+000000PRSWM2
0096136150999992000020109004+41330+019780FM-15+0090LATI V0209999C00001220001CN0099001N1+01201+00601999999ADDMA1103011999999MW1001REMMET044LATI 0900Z 00000KT CAVOK 12/06 Q1030 NOSIOG;EQDQ01+000000PRSWM2
0095136150999992000020110004+41330+019780FM-15+0090LATI V0209999C00001220001CN0099001N1+01301+00401999999ADDMA1103011999999MW1001REMMET043LATI 1000Z 00000KT CAVOK 13/04 Q1030 NO IG;EQDQ01+000000PRSWM2
0095136150999992000020111004+41330+019780FM-15+0090LATI V0209999C00001220001CN0099001N1+01301+00401999999ADDMA1103011999999MW1001REMMET043LATI 1100Z 00000KT CAVOK 13/04 Q1030 NOSIG;EQDQ01+000000PRSWM2
0097136150999992000020112004+41330+019780FM-15+0090LATI V0209999C00001220001CN0099001N1+01601+00701999999ADDMA1102911999999MW1001REMMET045LATI 011200Z 00000KT CAVOK 16/07 Q1029 NOSIG;EQDQ01+000000PRSWM2
0096136150999992000020112304+41330+019780FM-15+0090LATI V0203201N00311220001CN0099001N1+01601+00701999999ADDMA1102811999999MW1001REMMET044LATI 1330Z 32006KT CAVOK 16/07 Q1028 NOSIOG;EQDQ01+000000PRSWM2
0095136150999992000020204004+41330+019780FM-15+0090LATI V0209999C00001220001CN0099001N1+00301+00201999999ADDMA1102811999999MW1001REMMET043LATI 0400Z 00000KT CAVOK 03/02 Q1028 NOSIG;EQDQ01+000000PRSWM2
0137136150999992000020205304+41330+019780FM-15+0090LATI V0209999C000012200019N0060001N1+00401+00201999999ADDGA1021+018009999GF104991999999999999999999MA1102811999999MW1001REMMET043LATI 0630Z 00000KT 6000 SCT060 04/02 Q1028;EQDQ01+000000PRSWM2
0181136150999992000020207004+41330+019780FM-15+0090LATI V0209999C000012200019N0050001N1+00501+00301999999ADDGA1021+012009999GA2021+015009999GF104991999999999999999999MA1102711999999MW1101REMMET055LATI 020700Z 00000KT 5000 BR FEW040 SCT050 05/03 Q1027;EQDQ01+000003PRSWM1Q02    003PRSWM1
0168136150999992000020208004+41330+019780FM-15+0090LATI V0209999C000012200019N0070001N1+00701+00501999999ADDGA1021+013509999GA2021+015009999GF104991999999999999999999MA1102711999999MW1001REMMET058LATI 020800Z 00000KT 7000 FEW045 SCT050 07/05 Q1027 NOSIG;EQDQ01+000000PRSWM2
0140136150999992000020211004+41330+019780FM-15+0090LATI V0201301N002110120019N0080001N1+99999+99999999999ADDGA1071+012009999GF107991999999999999999999MW1001REMMET061LATI 021100 13004KT 8000 BKN040 TCU BKN060 12/08 Q1026 NOSIG;EQDQ01+000000PRSWM2
0160136150999992000020215004+41330+019780FM-15+0090LATI V0209999C000010120019N0040001N1+01301+01001999999ADDGA1071+012009999GA2081+018009999GF108991999999999999999999MA1102301999999MW1001REMMET050LATI 1500Z 00000KT 4000 BKN040 OVC060 13/10 Q1023;EQDQ01+000000PRSWM2
0160136150999992000020305004+41330+019780FM-15+0090LATI V0209999C000010150019N0112651N1+00901+00801999999ADDGA1071+015009999GA2081+018009999GF108991999999999999999999MA1101901999999MW1001REMMET050LATI 0500Z 00000KT 9999 BKN050 OVC060 09/08 Q1019;EQDQ01+000000PRSWM2
0160136150999992000020307004+41330+019780FM-15+0090LATI V0209999C000010090019N0060001N1+00901+00801999999ADDGA1071+009009999GA2081+015009999GF108991999999999999999999MA1102001999999MW1001REMMET050LATI 0700Z 00000KT 6000 BKN030 OVC050 09/08 Q1020;EQDQ01+000000PRSWM2
0162136150999992000020308004+41330+019780FM-15+0090LATI V0209999C000010090019N0060001N1+01001+00801999999ADDGA1071+009009999GA2081+015009999GF108991999999999999999999MA1102001999999MW1001REMMET052LATI 030800Z 00000KT 6000 BKN030 OVC050 10/08 Q1020;EQDQ01+000000PRSWM2
0162136150999992000020309104+41330+019780FM-15+0090LATI V0209999C000010090019N0060001N1+01101+00801999999ADDGA1071+009009999GA2081+015009999GF108991999999999999999999MA1102101999999MW1001REMMET052LATI 030910Z 00000KT 6000 BKN030 OVC050 11/08 Q1021;EQDQ01+000000PRSWM2
0181136150999992000020311004+41330+019780FM-15+0090LATI V0209999C000010090019N0020001N1+01101+00901999999ADDGA1071+009009999GA2081+015009999GF108991999999999999999999MA1102101999999MW1101REMMET055LATI 031100Z 00000KT 2000 BR BKN030 OVC050 11/09 Q1021;EQDQ01+000003PRSWM1Q02    003PRSWM1
0189136150999992000020312004+41330+019780FM-15+0090LATI V0203201N002110090019N0030001N1+01101+00901999999ADDGA1071+009009999GA2081+015009999GF108991999999999999999999MA1102101999999MW1101MW2611REMMET057LATI 031200Z 32004KT 3000-RABR BKN030 OVC050 11/09 Q1021;EQDQ01+000003PRSWM1Q02    003PRSWM1
0189136150999992000020313004+41330+019780FM-15+0090LATI V0209999C000010090019N0030001N1+01101+00901999999ADDGA1071+009009999GA2081+015009999GF108991999999999999999999MA1102001999999MW1101MW2611REMMET057LATI 031300Z 00000KT 3000-RABR BKN030 OVC050 11/09 Q1020;EQDQ01+000003PRSWM1Q02    003PRSWM1
0214136150999992000020315004+41330+019780FM-15+0090LATI V0209999C000010150019N0030001N1+01001+00901999999ADDGA1021+003009999GA2021+006009099GA3081+015009999GF108991999999999999999999MA1102001999999MW1101MW2631REMMET066LATI 031500Z 00000KT 3000 RABR FEW010 SCT020CB OVC050 10/09 Q1020;EQDQ01+000003PRSWM1Q02    003PRSWM1
0140136150999992000020405004+41330+019780FM-15+0090LATI V0200401N005112200019N0112651N1+00801-00501999999ADDGA1021+060009999GF104991999999999999999999MA1102511999999MW1001REMMET046LATI 040500Z 04010KT 9999 SCT200 08/M05 Q1025;EQDQ01+000000PRSWM2
0103136150999992000020407004+41330+019780FM-15+0090LATI V0200401N00211220001CN0099001N1+00801-00401999999ADDMA1102711999999MW1001OC100621REMMET043LATI 040700Z 04004G12KT CAVOK 08/-04 Q1027;EQDQ01+000000PRSWM2
0098136150999992000020409004+41330+019780FM-15+0090LATI V0203601N00361220001CN0099001N1+01201-00401999999ADDMA1102911999999MW1001REMMET046LATI 040900Z 36007KT CAVOK 12/-04 Q1029 NOSIG;EQDQ01+000000PRSWM2
0066136150999992000020411004+41330+019780SAO  +0090LATI V0209999C000019999999N0000001N1+99999+99999999999ADDMW1001REMAWY048LATI 041100Z 36004G12KT CAVOK 13/06 Q1029 NOSIG;
0107136150999992000020413004+41330+019780FM-15+0090LATI V0200301N00211220001CN0099001N1+01401-00601999999ADDMA1102911999999MW1001OC100621REMMET047LATI 1300Z 03004G12KT CAVOK 14/-06 Q1029 NOSIG;EQDQ01+000000PRSWM2
0092136150999992000020415004+41330+019780FM-15+0090LATI V0203401N00311220001CN0099001N1+01201-00601999999ADDMA1102811999999MW1001REMMET040LATI 041500Z 34006KT CAVOK 12/M06 Q1028;EQDQ01+000000PRSWM2
0099136150999992000020505004+41330+019780FM-15+0090LATI V0209999C00001220001CN0099001N1-00401-00501999999ADDMA1103391999999MW1001REMMET047LATI 050500Z 00000KT CAVOK M04/M05 Q1034 NOSIG;EQDQ01+000000PRSWM2
0099136150999992000020505304+41330+019780FM-15+0090LATI V0209999C00001220001CN0099001N1-00101-00401999999ADDMA1103391999999MW1001REMMET047LATI 050630Z 00000KT CAVOK M01/M04 Q1034 NOSIG;EQDQ01+000000PRSWM2
0099136150999992000020507004+41330+019780FM-15+0090LATI V0209999C00001220001CN0099001N1-00201-00401999999ADDMA1103291999999MW1001REMMET047LATI 0700Z 00000KT CAVOK M02/M04 Q10334 NOSIG ;EQDQ01+000000PRSWM2
0096136150999992000020508004+41330+019780FM-15+0090LATI V0209999C00001220001CN0099001N1+00401-00301999999ADDMA1103391999999MW1001REMMET044LATI 0800Z 00000KT CAVOK 04/M03 Q1034 NOSIG;EQDQ01+000000PRSWM2
0096136150999992000020509004+41330+019780FM-15+0090LATI V0209999C00001220001CN0099001N1+00701-00101999999ADDMA1103391999999MW1001REMMET044LATI 0900Z 00000KT CAVOK 07/M01 Q1034 NOSIG;EQDQ01+000000PRSWM2
0096136150999992000020511004+41330+019780FM-15+0090LATI V0209999C00001220001CN0099001N1+01101-00801999999ADDMA1103291999999MW1001REMMET044LATI 1100Z 00000KT CAVOK 11/M08 Q1033 NOSIG;EQDQ01+000000PRSWM2
0097136150999992000020512004+41330+019780FM-15+0090LATI V0203601N00311220001CN0099001N1+01201-00601999999ADDMA1103181999999MW1001REMMET045LATI 1200Z 36006KT CAVOK 12/M06 Q1032 NOSSIG;EQDQ01+000000PRSWM2
0093136150999992000020606004+41330+019780FM-15+0090LATI V0209999C00001220001CN0099001N1+00001-00201999999ADDMA1102911999999MW1001REMMET041LATI 060600Z 00000KT CAVOK -00/-02 Q1029;EQDQ01+000000PRSWM2
0096136150999992000020607004+41330+019780FM-15+0090LATI V0209999C00001220001CN0099001N1+00201-00201999999ADDMA1102811999999MW1001REMMET044LATI 0700Z 00000KT CAVOK 02/M02 Q1028 NOSIG;EQDQ01+000000PRSWM2
0096136150999992000020607304+41330+019780FM-15+0090LATI V0209999C00001220001CN0099001N1+00601+00001999999ADDMA1102811999999MW1001REMMET044LATI 0830Z 00000KT CAVOK 06/M00 Q1028 NOSIG;EQDQ01+000000PRSWM2
0089136150999992000020609004+41330+019780FM-15+0090LATI V0209999C00001220001CN0099001N1+00801+00101999999ADDMA1102911999999MW1001REMMET037LATI 0900Z 00000KT CAVOK 08/01 Q1029;EQDQ01+000000PRSWM2
0096136150999992000020611004+41330+019780FM-15+0090LATI V0203601N00211220001CN0099001N1+01201-00101999999ADDMA1102811999999MW1001REMMET044LATI 1100Z 36004KT CAVOK 12/M01 Q1028 NOSIG;EQDQ01+000000PRSWM2
0095136150999992000020613004+41330+019780FM-15+0090LATI V0209999C00001220001CN0099001N1+01401+00001999999ADDMA1102711999999MW1001REMMET043LATI 1300Z 00000KT CAVOK 14/00 Q1027 NOSIG;EQDQ01+000000PRSWM2
0095136150999992000020614004+41330+019780FM-15+0090LATI V0203601N00411220001CN0099001N1+01401+00101999999ADDMA1102711999999MW1001REMMET043LATI 1400Z 36008KT CAVOK 14/01 Q1027 NOSIG;EQDQ01+000000PRSWM2
0095136150999992000020615004+41330+019780FM-15+0090LATI V0203401N00411220001CN0099001N1+01301+00301999999ADDMA1102611999999MW1001REMMET043LATI 1500Z 34008KT CAVOK 13/03 Q1026 NOSIG;EQDQ01+000000PRSWM2
0061136150999992000020616014+41330+019780FM-16+0090LATI V0203601N00261220001CN0099001N1+99999+99999999999ADDMW1001REMMET024LATI 1601 36005KT CAVOK;EQDQ01+000000PRSWM2
0078136150999992000020705004+41330+019780FM-15+0090LATI V0209999C00001220001CN0099001N1+00201+00101999999ADDMW1001REMMET041LATI 0500 00000KT CAVOK 02/01 1025 NOSIG;EQDQ01+000000PRSWM2
0095136150999992000020707004+41330+019780FM-15+0090LATI V0209999C00001220001CN0099001N1+00401+00201999999ADDMA1102711999999MW1001REMMET043LATI 0700Z 00000KT CAVOK 04/02 Q1027 NOSIG;EQDQ01+000000PRSWM2
0095136150999992000020709004+41330+019780FM-15+0090LATI V0209999C00001220001CN0099001N1+01201+00501999999ADDMA1102711999999MW1001REMMET043LATI 0900Z 00000KT CAVOK 12/05 Q1027 NOSIG;EQDQ01+000000PRSWM2
0095136150999992000020712004+41330+019780FM-15+0090LATI V0209999C00001220001CN0099001N1+01801+00501999999ADDMA1102511999999MW1001REMMET043LATI 1200Z 00000KT CAVOK 18/05 Q1025 NOSIG;EQDQ01+000000PRSWM2
0097136150999992000020713004+41330+019780FM-15+0090LATI V0209999C00001220001CN0099001N1+01801+00601999999ADDMA1102401999999MW1001REMMET045LATI 071300Z 00000KT CAVOK 18/06 Q1024 NOSIG;EQDQ01+000000PRSWM2
0095136150999992000020715004+41330+019780FM-15+0090LATI V0203401N00411220001CN0099001N1+01501+00701999999ADDMA1102401999999MW1001REMMET043LATI 1500Z 34008KT CAVOK 15/07 Q1024 NOSIG;EQDQ01+000000PRSWM2
0089136150999992000020804004+41330+019780FM-15+0090LATI V0201801N00211220001CN0099001N1+00201+00001999999ADDMA1102301999999MW1001REMMET037LATI 0400Z 18004KT CAVOK 02/00 Q1023;EQDQ01+000000PRSWM2
0162136150999992000020807104+41330+019780FM-15+0090LATI V0209999C000010300019N0050001N1+00401+00101999999ADDGA1021+009009999GA2071+030009999GF107991999999999999999999MA1102401999999MW1001REMMET052LATI 080710Z 00000KT 5000 FEW030 BKN100 04/01 Q1024;EQDQ01+000000PRSWM2
0178136150999992000020809004+41330+019780FM-15+0090LATI V0209999C000012200019N9999999N1+01201+00501999999ADDGA1021+009009999GA2021+060009999GF104991999999999999999999MA1102401999999MW1001REMMET052LATI 080900Z 00000KT 7000 FEW030 SCT200 12/05 Q1024;EQDQ01+070002VODIS Q02+000000PRSWM2
0178136150999992000020810004+41330+019780FM-15+0090LATI V0209999C000012200019N9999999N1+01401+00701999999ADDGA1021+009009999GA2021+060009999GF104991999999999999999999MA1102301999999MW1001REMMET052LATI 081000Z 00000KT 7000 FEW030 SCT200 14/07 Q1023;EQDQ01+070002VODIS Q02+000000PRSWM2
0168136150999992000020811004+41330+019780FM-15+0090LATI V0209999C000012200019N0080001N1+01501+00801999999ADDGA1021+009009999GA2021+060009999GF104991999999999999999999MA1102301999999MW1001REMMET058LATI 081100Z 00000KT 8000 SCT030 SCT200 15/08 Q1023 NOSIG;EQDQ01+000000PRSWM2
0134136150999992000020812004+41330+019780FM-15+0090LATI V0202001N002112200019N0080001N1+99999+99999999999ADDGA1021+006009999GF104991999999999999999999MW1001REMMET055LATI 081200Z 20004KT 8000 SCT020 CB BKN050 16/10 Q1022;EQDQ01+000000PRSWM2
0135136150999992000020813004+41330+019780FM-15+0090LATI V0202401N004112200019N0070001N1+99999+99999999999ADDGA1021+006009999GF104991999999999999999999MW1001REMMET056LATI 081300Z 24008KT 7000 SCT020 TCU BKN050 14/08 Q1022;EQDQ01+000000PRSWM2
0165136150999992000020814004+41330+019780FM-15+0090LATI V0202401N002110150019N0060001N1+01201+00901999999ADDGA1021+006009029GA2071+015009999GF107991999999999999999999MA1102101999999MW1001REMMET055LATI 081400Z 24004KT 6000 SCT020TCU BKN050 12/09 Q1021;EQDQ01+000000PRSWM2
0182136150999992000020815004+41330+019780FM-15+0090LATI V0209999C000010150019N0050001N1+01301+00901999999ADDGA1021+006009029GA2071+015009999GF107991999999999999999999MA1102201999999MW1101REMMET056LATI 1500Z 00000KT 5000 BR SCT020TCU BKN050 13/09 Q1022;EQDQ01+000003PRSWM1Q02    003PRSWM1
0160136150999992000020903004+41330+019780FM-15+0090LATI V0209999C000010210019N0112651N1+00701+00601999999ADDGA1021+012009999GA2071+021009999GF107991999999999999999999MA1101901999999MW1001REMMET050LATI 0300Z 00000KT 9999 SCT040 BKN070 07/06 Q1019;EQDQ01+000000PRSWM2
0160136150999992000020904004+41330+019780FM-15+0090LATI V0209999C000010210019N0112651N1+00701+00601999999ADDGA1021+012009999GA2071+021009999GF107991999999999999999999MA1101901999999MW1001REMMET050LATI 0400Z 00000KT 9999 SCT040 BKN070 07/06 Q1019;EQDQ01+000000PRSWM2
0160136150999992000020905004+41330+019780FM-15+0090LATI V0209999C000010210019N0112651N1+00701+00601999999ADDGA1021+012009999GA2071+021009999GF107991999999999999999999MA1101901999999MW1001REMMET050LATI 0500Z 00000KT 9999 SCT040 BKN070 07/06 Q1019;EQDQ01+000000PRSWM2
0181136150999992000020907004+41330+019780FM-15+0090LATI V0201801N003110150019N0040001N1+00801+00701999999ADDGA1071+015009999GA2081+018009999GF108991999999999999999999MA1101801999999MW1101REMMET055LATI 090700Z 18006KT 4000 BR BKN050 OVC060 08/07 Q1018;EQDQ01+000003PRSWM1Q02    003PRSWM1
0181136150999992000020908004+41330+019780FM-15+0090LATI V0202101N002110150019N0040001N1+00901+00701999999ADDGA1071+015009999GA2081+018009999GF108991999999999999999999MA1101801999999MW1101REMMET055LATI 090800Z 21004KT 4000 BR BKN050 OVC060 09/07 Q1018;EQDQ01+000003PRSWM1Q02    003PRSWM1
0181136150999992000020909004+41330+019780FM-15+0090LATI V0201801N002110150019N0040001N1+00901+00701999999ADDGA1071+015009999GA2081+018009999GF108991999999999999999999MA1101801999999MW1101REMMET055LATI 090900Z 18004KT 4000 BR BKN050 OVC060 09/07 Q1018;EQDQ01+000003PRSWM1Q02    003PRSWM1
0162136150999992000020910004+41330+019780FM-15+0090LATI V0201801N002110150019N0040001N1+01001+00801999999ADDGA1071+015009999GA2081+018009999GF108991999999999999999999MA1101801999999MW1001REMMET052LATI 091000Z 18004KT 4000 BKN050 OVC060 10/08 Q1018;EQDQ01+000000PRSWM2
0162136150999992000020911004+41330+019780FM-15+0090LATI V0201801N003110150019N0040001N1+01001+00901999999ADDGA1071+015009999GA2081+018009999GF108991999999999999999999MA1101691999999MW1001REMMET052LATI 091100Z 18006KT 4000 BKN050 OVC060 10/09 Q1017;EQDQ01+000000PRSWM2
0181136150999992000020912004+41330+019780FM-15+0090LATI V0201501N003110150019N0040001N1+01201+00401999999ADDGA1071+015009999GA2081+018009999GF108991999999999999999999MA1101591999999MW1101REMMET055LATI 091200Z 15006KT 4000 BR BKN050 OVC060 12/04 Q1016;EQDQ01+000003PRSWM1Q02    003PRSWM1
0162136150999992000020914504+41330+019780FM-15+0090LATI V0209999C000010150019N0050001N1+01201+00901999999ADDGA1071+015009999GA2081+021009999GF108991999999999999999999MA1101391999999MW1001REMMET052LATI 091450Z 00000KT 5000 BKN050 OVC070 12/09 Q1014;EQDQ01+000000PRSWM2
0185136150999992000021006004+41330+019780FM-15+0090LATI V0209999C000010150019N0060001N1+00701+00601999999ADDGA1021+009009999GA2071+015009999GA3081+024009999GF108991999999999999999999MA1101291999999MW1001REMMET059LATI 100600Z 00000KT 6000 SCT030 BKN050 OVC080 07/06 Q1013;EQDQ01+000000PRSWM2
0189136150999992000021007004+41330+019780FM-15+0090LATI V0200401N004110150019N0112651N1+00801+00501999999ADDGA1071+015009999GA2081+024009999GF108991999999999999999999MA1101191999999MW1611MW2631REMMET057LATI 100700Z 04008KT 9999 RARA BKN050 OVC080 08/05 Q1012;EQDQ01+000003PRSWM1Q02    003PRSWM1
0162136150999992000021008004+41330+019780FM-15+0090LATI V0209999C000010180019N0112651N1+00901+00501999999ADDGA1071+018009999GA2081+030009999GF108991999999999999999999MA1101291999999MW1001REMMET052LATI 100800Z 00000KT 9999 BKN060 OVC100 09/05 Q1013;EQDQ01+000000PRSWM2
0184136150999992000021009004+41330+019780FM-15+0090LATI V0200601N004110150019N0112651N1+01001+00301999999ADDGA1021+009009999GA2071+015009999GA3081+030009999GF108991999999999999999999MW1611REMMET057LATI 100900Z 06008KT 9999 -RA FEW030 BKN050 OVC100 10/03;EQDQ01+000003PRSWM1Q02    003PRSWM1
0205136150999992000021011004+41330+019780FM-15+0090LATI V0200401N003110120019N0080001N1+01101+00801999999ADDGA1021+009009999GA2071+012009999GA3081+024009999GF108991999999999999999999MA1101491999999MW1611REMMET063LATI 101100Z 04006KT 8000 -RA FEW030 BKN040 OVC080 11/08 Q1015;EQDQ01+000003PRSWM1Q02    003PRSWM1
0211136150999992000021012004+41330+019780FM-15+0090LATI V0200601N003110120019N0070001N1+01101+00801999999ADDGA1021+009009999GA2071+012009999GA3081+024009999GF108991999999999999999999MA1101491999999MW1611REMMET069LATI 101200Z 06006KT 7000 -RA FEW030 BKN040 OVC080 11/08 Q1015 NOSIG;EQDQ01+000003PRSWM1Q02    003PRSWM1
0204136150999992000021015154+41330+019780FM-15+0090LATI V0203001N002110150019N0070001N1+00801+00601999999ADDGA1021+006009999GA2071+015009999GA3081+024009999GF108991999999999999999999MA1101591999999MW1611REMMET062LATI 111515Z 30004KT 7000-RA FEW020 BKN050 OVC080 08/06 Q1016;EQDQ01+000003PRSWM1Q02    003PRSWM1
0139136150999992000021105004+41330+019780FM-15+0090LATI V0209999C000012200019N0112651N1+00401+00301999999ADDGA1021+024009999GF104991999999999999999999MA1102001999999MW1001REMMET045LATI 110500Z 00000KT 9999 SCT080 04/03 Q1020;EQDQ01+000000PRSWM2
0162136150999992000021107004+41330+019780FM-15+0090LATI V0209999C000010600019N0112651N1+00401+00301999999ADDGA1021+030009999GA2071+060009999GF107991999999999999999999MA1102101999999MW1001REMMET052LATI 110700Z 00000KT 9999 SCT100 BKN200 04/03 Q1021;EQDQ01+000000PRSWM2
0166136150999992000021109004+41330+019780FM-15+0090LATI V0209999C000012200019N0112651N1+01101+00701999999ADDGA1021+030009999GA2021+060009999GF104991999999999999999999MA1102201999999MW1001REMMET056LATI 0900Z 00000KT 9999 SCT100 SCT200 11/07 Q1022 NOSIG;EQDQ01+000000PRSWM2
0160136150999992000021110004+41330+019780FM-15+0090LATI V0209999C000012200019N0112651N1+01201+00701999999ADDGA1021+030009999GA2021+060009999GF104991999999999999999999MA1102201999999MW1001REMMET050LATI 1000Z 00000KT 9999 SCT100 SCT200 12/07 Q1022;EQDQ01+000000PRSWM2
0160136150999992000021112004+41330+019780FM-15+0090LATI V0209999C000012200019N0112651N1+01401+00601999999ADDGA1021+030009999GA2021+060009999GF104991999999999999999999MA1102101999999MW1001REMMET050LATI 1200Z 00000KT 9999 SCT100 SCT200 14/06 Q1021;EQDQ01+000000PRSWM2
0145136150999992000021115004+41330+019780FM-15+0090LATI V0203301N005112200019N0112651N1+01501+00401999999ADDGA1021+030009999GF102991999999999999999999MA1102101999999MW1001REMMET051LATI 111500Z 33010KT 9999 FEW100 15/04 Q1021 NOSIG;EQDQ01+000000PRSWM2
0168136150999992000021116004+41330+019780FM-15+0090LATI V0203301N003112200019N0112651N1+01301+00601999999ADDGA1021+030009999GA2021+045009999GF104991999999999999999999MA1102101999999MW1001REMMET058LATI 111600Z 33006KT 9999 FEW100 SCT150 13/06 Q1021 NOSIG;EQDQ01+000000PRSWM2
0162136150999992000021206004+41330+019780FM-15+0090LATI V0209999C000012200019N0112651N1+00501+00401999999ADDGA1021+024009999GA2021+030009999GF104991999999999999999999MA1102301999999MW1001REMMET052LATI 120600Z 00000KT 9999 SCT080 SCT100 05/04 Q1023;EQDQ01+000000PRSWM2
0133136150999992000021207004+41330+019780FM-16+0090LATI V0209999C000010300019N0080001N1+99999+99999999999ADDGA1021+018009999GA2071+030009999GF107991999999999999999999MW1001REMMET038LATI 0700Z 00000KT 8000 SCT060 BKN100;EQDQ01+000000PRSWM2
0167136150999992000021208004+41330+019780FM-15+0090LATI V0209999C000010300019N0112651N1+00901+00501999999ADDGA1021+018009999GA2071+030009999GF107991999999999999999999MA1102301999999MW1001REMMET057LATI 120800 00000KT 9999 SCT060 BKN100 09/05 Q1023 NOSIG;EQDQ01+000000PRSWM2
0166136150999992000021209004+41330+019780FM-15+0090LATI V0209999C000010300019N0112651N1+01101+00501999999ADDGA1021+024009999GA2071+030009999GF107991999999999999999999MA1102301999999MW1001REMMET056LATI 0900Z 00000KT 9999 SCT080 BKN100 11/05 Q1023 NOSIG;EQDQ01+000000PRSWM2
0160136150999992000021212004+41330+019780FM-15+0090LATI V0203601N004112200019N0112651N1+01401+00601999999ADDGA1021+012009999GA2021+030009999GF104991999999999999999999MA1102101999999MW1001REMMET050LATI 1200Z 36008KT 9999 SCT040 SCT100 14/06 Q1021;EQDQ01+000000PRSWM2
0160136150999992000021215004+41330+019780FM-15+0090LATI V0209999C000010300019N0112651N1+01501+00601999999ADDGA1021+015009999GA2071+030009999GF107991999999999999999999MA1102001999999MW1001REMMET050LATI 1500Z 00000KT 9999 SCT050 BKN100 15/06 Q1020;EQDQ01+000000PRSWM2
0160136150999992000021305004+41330+019780FM-15+0090LATI V0209999C000010240019N0112651N1+00801+00801999999ADDGA1021+012009999GA2071+024009999GF107991999999999999999999MA1102001999999MW1001REMMET050LATI 0500Z 00000KT 9999 SCT040 BKN080 08/08 Q1020;EQDQ01+000000PRSWM2
0160136150999992000021307004+41330+019780FM-15+0090LATI V0209999C000010240019N0060001N1+00801+00801999999ADDGA1021+015009999GA2071+024009999GF107991999999999999999999MA1102001999999MW1001REMMET050LATI 0700Z 00000KT 6000 SCT050 BKN080 08/08 Q1020;EQDQ01+000000PRSWM2
0160136150999992000021309004+41330+019780FM-15+0090LATI V0209999C000012200019N0112651N1+01201+00901999999ADDGA1021+015009999GA2021+024009999GF104991999999999999999999MA1102001999999MW1001REMMET050LATI 0900Z 00000KT 9999 FEW050 SCT080 12/09 Q1020;EQDQ01+000000PRSWM2
0160136150999992000021309304+41330+019780FM-15+0090LATI V0209999C000010180019N0112651N1+01501+00801999999ADDGA1021+009009999GA2071+018009999GF107991999999999999999999MA1102001999999MW1001REMMET050LATI 1030Z 00000KT 9999 FEW030 BKN060 15/08 Q1020;EQDQ01+000000PRSWM2
0088136150999992000021311304+41330+019780FM-15+0090LATI V02099999999992200019N0500001N1+99999+99999999999ADDMW1001REMMET051LATI 1230Z ///// 9999 FEW040TCU BKN090 15/08 Q1019;EQDQ01+000000PRSWM2
0166136150999992000021406004+41330+019780FM-15+0090LATI V0209999C000012200019N0112651N1+00501+00401999999ADDGA1021+012009999GA2021+024009999GF104991999999999999999999MA1101801999999MW1001REMMET056LATI 0600Z 00000KT 9999 SCT040 SCT080 05/04 Q1018 NOSIG;EQDQ01+000000PRSWM2
0162136150999992000021407004+41330+019780FM-15+0090LATI V0209999C000010270019N0112651N1+00601+00501999999ADDGA1021+015009999GA2071+027009999GF107991999999999999999999MA1101901999999MW1001REMMET052LATI 140700Z 00000KT 9999 SCT050 BKN090 06/05 Q1019;EQDQ01+000000PRSWM2
0162136150999992000021407504+41330+019780FM-15+0090LATI V0209999C000010180019N0070001N1+00701+00501999999ADDGA1021+012009999GA2071+018009999GF107991999999999999999999MA1101901999999MW1001REMMET052LATI 140750Z 00000KT 7000 SCT040 BKN060 07/05 Q1019;EQDQ01+000000PRSWM2
0176136150999992000021410004+41330+019780FM-15+0090LATI V0209999C000012200019N9999999N1+01301+00701999999ADDGA1021+015009999GA2021+060009999GF104991999999999999999999MA1101901999999MW1001REMMET050LATI 1000Z 00000KT 6000 SCT050 SCT200 13/07 Q1019;EQDQ01+060002VODIS Q02+000000PRSWM2
0162136150999992000021411004+41330+019780FM-15+0090LATI V0202401N002110120019N0112651N1+01501+00801999999ADDGA1071+012009999GA2071+021009999GF107991999999999999999999MA1101801999999MW1001REMMET052LATI 141100Z 24004KT 9999 BKN040 BKN070 15/08 Q1018;EQDQ01+000000PRSWM2
0135136150999992000021412004+41330+019780FM-15+0090LATI V0202401N002110060019N0112651N1+99999+99999999999ADDGA1071+006009999GF107991999999999999999999MW1001REMMET056LATI 141200Z 24004KT 9999 BKN020 TCU BKN050 15/08 Q1018;EQDQ01+000000PRSWM2
0134136150999992000021412304+41330+019780FM-15+0090LATI V0209999C000012200019N0112651N1+99999+99999999999ADDGA1021+006009099GF104991999999999999999999MW1001REMMET055LATI 1330Z 00000KT 9999 SCT020CB SW BKN050 13/07 Q1018;EQDQ01+000000PRSWM2
0162136150999992000021413504+41330+019780FM-15+0090LATI V0209999C000010060019N0112651N1+01201+01001999999ADDGA1071+006009999GA2071+012009999GF107991999999999999999999MA1101691999999MW1001REMMET052LATI 141350Z 00000KT 9999 BKN020 BKN040 12/10 Q1017;EQDQ01+000000PRSWM2
0115136150999992000021504004+41330+019780FM-15+0090LATI V0209999C000012200019N0003001N1+00201+00201999999ADDMA1101801999999MW1441REMMET047LATI 0400Z 00000KT 0300FG 02/02 Q1018 R18 0250;EQDQ01+000003PRSWM1Q02    003PRSWM1
0155136150999992000021505004+41330+019780FM-15+0090LATI V0209999C000012200019N0015001N1+00201+00201999999ADDGA1021+024009999GF104991999999999999999999MA1101901999999MW1101REMMET045LATI 0500Z 00000KT 1500BR SCT080 02/02 Q1019;EQDQ01+000003PRSWM1Q02    003PRSWM1
0087136150999992000021506004+41330+019780FM-15+0090LATI V0209999C000012200019N0030001N1+99999+99999999999ADDMW1001REMMET050LATI 0600Z 00000KT 3000N70000S BKN080 02/02 Q1020;EQDQ01+000000PRSWM2
0097136150999992000021507004+41330+019780FM-15+0090LATI V0209999C00001220001CN0099001N1+00501+00101999999ADDMA1102001999999MW1001REMMET045LATI 150700Z 00000KT CAVOK 05/01 Q1020 NOSIG;EQDQ01+000000PRSWM2
0097136150999992000021509004+41330+019780FM-15+0090LATI V0203601N00511220001CN0099001N1+01001+00401999999ADDMA1102001999999MW1001REMMET045LATI 150900Z 36010KT CAVOK 10/04 Q1020 NOSIG;EQDQ01+000000PRSWM2
0098136150999992000021510154+41330+019780FM-15+0090LATI V0203601N00721220001CN0099001N1+01201-00501999999ADDMA1102001999999MW1001REMMET046LATI 151015Z 36014KT CAVOK 12/M05 Q1020 NOSIG;EQDQ01+000000PRSWM2
0098136150999992000021512004+41330+019780FM-15+0090LATI V0203301N00621220001CN0099001N1+01201-00501999999ADDMA1101901999999MW1001REMMET046LATI 151200Z 33012KT CAVOK 12/M05 Q1019 NOSIG;EQDQ01+000000PRSWM2
0098136150999992000021513004+41330+019780FM-15+0090LATI V0203601N00621220001CN0099001N1+01201-00501999999ADDMA1101901999999MW1001REMMET046LATI 151300Z 36012KT CAVOK 12/M05 Q1019 NOSIG;EQDQ01+000000PRSWM2
0092136150999992000021514504+41330+019780FM-15+0090LATI V0203301N00511220001CN0099001N1+01101-00501999999ADDMA1101901999999MW1001REMMET040LATI 151450Z 33010KT CAVOK 11/M05 Q1019;EQDQ01+000000PRSWM2
0121136150999992000021604004+41330+019780FM-15+0090LATI V0209999C000012200019N0112651N1+00001-00301999999ADDGF100991999999999999999999MA1101901999999MW1001REMMET043LATI 160400Z 00000KT 9999 SKC 00/M03 Q1019;EQDQ01+000000PRSWM2
0099136150999992000021605504+41330+019780FM-15+0090LATI V0209999C00001220001CN0099001N1-00101-00301999999ADDMA1101901999999MW1001REMMET047LATI 160550Z 00000KT CAVOK M01/M03 Q1019 NOSIG;EQDQ01+000000PRSWM2
0146136150999992000021607204+41330+019780FM-15+0090LATI V0201801N003112200019N0112651N1+00201-00101999999ADDGA1021+015009999GF104991999999999999999999MA1101801999999MW1001REMMET052LATI 160720Z 18006KT 9999 SCT050 02/-01 Q1018 NOSIG;EQDQ01+000000PRSWM2
0143136150999992000021609004+41330+019780FM-15+0090LATI V0209999C000010300019N0112651N1+00801+00301999999ADDGA1071+030009999GF107991999999999999999999MA1101801999999MW1001REMMET049LATI 0900Z 00000KT 9999 BKN100 08/03 Q1018 NOSIG;EQDQ01+000000PRSWM2
0145136150999992000021610004+41330+019780FM-15+0090LATI V0201801N004110300019N0112651N1+01001+00401999999ADDGA1071+030009999GF107991999999999999999999MA1101801999999MW1001REMMET051LATI 161000Z 18008KT 9999 BKN100 10/04 Q1018 NOSIG;EQDQ01+000000PRSWM2
0161136150999992000021613004+41330+019780FM-15+0090LATI V0201401N003110300019N0112651N1+01301+00601999999ADDGA1021+012009999GA2071+030009999GF107991999999999999999999MA1101491999999MW1001REMMET051LATI 161300Z 14006KT 9999 SCT040 BKN100 13/06Q1015;EQDQ01+000000PRSWM2
0183136150999992000021705004+41330+019780FM-15+0090LATI V0209999C000012200019N0040001N1+99999+99999999999ADDGA1021+001809999GA2021+004509999GF104991999999999999999999MW1001MW2171MW3811REMMET076LATI 170500Z 00000KT 4000 TSSHRA FEW006 SCT015 CB BKN020 OVC040 09/09 Q1003;EQDQ01+000003PRSWM1
0239136150999992000021706004+41330+019780FM-15+0090LATI V0202001N004110060019N0040001N1+00901+00901999999ADDGA1021+002409999GA2021+003009099GA3071+006009999GA4081+009009999GF108991999999999999999999MA1100201999999MW1171MW2811REMMET075LATI 170600Z 20008KT 4000 TSSHRA FEW008 SCT010CB BKN020 OVC030 09/09 Q1002;EQDQ01+000003PRSWM1Q02    003PRSWM1
0208136150999992000021707004+41330+019780FM-15+0090LATI V0200601N002110060019N0020001N1+00901+00901999999ADDGA1021+003009999GA2071+006009099GA3081+012009999GF108991999999999999999999MA1100201999999MW1811REMMET066LATI 170700Z 06004KT 2000 SHRA FEW010 BKN020CB OVC040 09/09 Q1002;EQDQ01+000003PRSWM1Q02    003PRSWM1
0173136150999992000021708004+41330+019780FM-15+0090LATI V0201201N005112200019N0040001N1+99999+99999999999ADDGA1021+003009999GA2021+006009099GF104991999999999999999999MW1001MW2811REMMET072LATI 0800Z 12010KT 4000N 8000S SHRA FEW010 SCT020CBW OVC040 09/09 Q1001;EQDQ01+000003PRSWM1
0214136150999992000021709004+41330+019780FM-15+0090LATI V0201801N005110060019N0020001N1+00801+00801999999ADDGA1021+001209999GA2071+006009099GA3081+012009999GF108991999999999999999999MA1100001999999MW1821REMMET072LATI 0900Z 18010KT 2000N 4000S +SHRA FEW004 BKN020CB OVC040 08/08 Q1000;EQDQ01+000003PRSWM1Q02    003PRSWM1
0213136150999992000021710004+41330+019780FM-15+0090LATI V0201201N005110120019N0020001N1+00801+00801999999ADDGA1021+003009999GA2021+006009099GA3081+012009999GF108991999999999999999999MA1100101999999MW1811REMMET071LATI 1000Z 12010KT 2000N 4000S SHRA FEW010 SCT020CB OVC040 08/08 Q1001;EQDQ01+000003PRSWM1Q02    003PRSWM1
0183136150999992000021714004+41330+019780FM-15+0090LATI V0201401N004110060019N0112651N1+00901+00801999999ADDGA1021+003009999GA2071+006009999GA3081+012009999GF108991999999999999999999MA1100001999999MW1001REMMET057LATI 1400Z 14008KT 9999 FEW010 BKN020 OVC040 09/08 Q1000;EQDQ01+000000PRSWM2
0206136150999992000021716004+41330+019780FM-15+0090LATI V0201801N005110060019N0020001N1+00801+00801999999ADDGA1021+003009999GA2071+006009099GA3081+018009999GF108991999999999999999999MA1099901999999MW1811REMMET064LATI 1600Z 18010KT 2000 SHRA FEW010 BKN020CB OVC060 08/08 Q0999;EQDQ01+000003PRSWM1Q02    003PRSWM1
0185136150999992000021806004+41330+019780FM-15+0090LATI V0203401N005110120019N0112651N1+00401+00201999999ADDGA1021+009009999GA2071+012009999GA3081+021009999GF108991999999999999999999MA1100201999999MW1001REMMET059LATI 180600Z 34010KT 9999 SCT030 BKN040 OVC070 04/02 Q1002;EQDQ01+000000PRSWM2
0166136150999992000021807004+41330+019780FM-15+0090LATI V0203401N003110180019N0112651N1+00501+00301999999ADDGA1021+009009999GA2081+018009999GF108991999999999999999999MA1100411999999MW1001REMMET056LATI 0700Z 34006KT 9999 SCT030 OVC060 05/03 Q1004 NOSIG;EQDQ01+000000PRSWM2
0167136150999992000021808004+41330+019780FM-15+0090LATI V0203401N006210150019N0112651N1+00501+00001999999ADDGA1021+009009999GA2081+015009999GF108991999999999999999999MA1100411999999MW1001REMMET057LATI 0800Z 34012KT 9999 SCT030 OVC050 05/M00 Q1004 NOSIG;EQDQ01+000000PRSWM2
0169136150999992000021809004+41330+019780FM-15+0090LATI V0203601N006210180019N0112651N1+00501+00001999999ADDGA1021+009009999GA2081+018009999GF108991999999999999999999MA1100511999999MW1001REMMET059LATI 180900Z 36012KT 9999 SCT030 OVC060 05/M00 Q1005 NOSIG;EQDQ01+000000PRSWM2
0161136150999992000021812004+41330+019780FM-15+0090LATI V0203401N006210240019N0112651N1+00801-00101999999ADDGA1021+015009999GA2071+024009999GF107991999999999999999999MA1100811999999MW1001REMMET051LATI 1200Z 34012KT 9999 SCT050 BKN080 08/M01 Q1008;EQDQ01+000000PRSWM2
0161136150999992000021815004+41330+019780FM-15+0090LATI V0203401N004112200019N0112651N1+00901-00601999999ADDGA1021+012009999GA2021+060009999GF104991999999999999999999MA1101021999999MW1001REMMET051LATI 1500Z 34008KT 9999 FEW040 SCT200 09/M06 Q1010;EQDQ01+000000PRSWM2
0079136150999992000021816004+41330+019780FM-15+0090LATI V02099999999992200019N9999999N1+99999+99999999999ADDMW1001REMMET042LATI 1600Z ///// 9999 FEW040 07/M05 Q1011;EQDQ01+000000PRSWM2
0123136150999992000021904304+41330+019780FM-15+0090LATI V0201801N003612200019N0112651N1+00101-00401999999ADDGA1021+030009999GF104991999999999999999999MW1001REMMET044LATI 0530Z 18007KT 9999 SCT100 01/M04 Q1)16;EQDQ01+000000PRSWM2
0161136150999992000021907004+41330+019780FM-15+0090LATI V0201601N003110300019N0112651N1+00201-00301999999ADDGA1021+012009999GA2071+030009999GF107991999999999999999999MA1101691999999MW1001REMMET051LATI 0700Z 16006KT 9999 SCT040 BKN100 02/M03 Q1017;EQDQ01+000000PRSWM2
0137136150999992000021908004+41330+019780FM-15+0090LATI V0201701N002612200019N0112651N1+00501+00001999999ADDGA1021+015009999GF104991999999999999999999MA1101801999999MW1001REMMET043LATI 0800Z 17005KT 9999 SCT050 05/00 Q1018;EQDQ01+000000PRSWM2
0183136150999992000021909004+41330+019780FM-15+0090LATI V0201801N002612200019N0112651N1+00801+00101999999ADDGA1021+009009999GA2021+015009999GA3021+060009999GF104991999999999999999999MA1101691999999MW1001REMMET057LATI 0900Z 18005KT 9999 FEW030 SCT050 SCT200 08/01 Q1017;EQDQ01+000000PRSWM2
0160136150999992000021910004+41330+019780FM-15+0090LATI V0201501N002112200019N0112651N1+01101+00001999999ADDGA1021+015009999GA2021+060009999GF104991999999999999999999MA1101591999999MW1001REMMET050LATI 1000Z 15004KT 9999 FEW050 SCT200 11/00 Q1016;EQDQ01+000000PRSWM2
0180136150999992000021912004+41330+019780FM-15+0090LATI V0201901N006210150019N0112651N1+01001+00301999999ADDGA1021+009009999GA2071+015009999GF107991999999999999999999MA1101391999999MW1611REMMET054LATI 1200Z 19012KT 9999 -RA SCT030 BKN050 10/03 Q1014;EQDQ01+000003PRSWM1Q02    003PRSWM1
0180136150999992000021913004+41330+019780FM-15+0090LATI V0201801N003110180019N0112651N1+00901+00401999999ADDGA1021+009009999GA2071+018009999GF107991999999999999999999MA1101491999999MW1611REMMET054LATI 1300Z 18006KT 9999 -RA SCT030 BKN060 09/04 Q1015;EQDQ01+000003PRSWM1Q02    003PRSWM1
0167136150999992000021914004+41330+019780FM-15+0090LATI V0201501N003110180019N0112651N1+00801+00401999999ADDGA1021+009009999GA2081+018009999GF108991999999999999999999MA1101491999999MW1001REMMET057LATI 1400Z 15006KT 9999 RE -RA SCT030 OVC060 08/04 Q1015;EQDQ01+000000PRSWM2
0163136150999992000021915004+41330+019780FM-15+0090LATI V0201501N005110180019N0160931N1+00701+00401999999ADDGA1021+009009999GA2081+018009999GF108991999999999999999999MA1101391999999MW1001REMMET053LATI 1500Z 15010KT RA 9999 SCT030 OVC060 07/04 Q1014;EQDQ01+000000PRSWM2
0183136150999992000022005004+41330+019780FM-15+0090LATI V0209999C000010150019N0112651N1+00901+00801999999ADDGA1021+009009099GA2081+015009999GF108991999999999999999999MA1100511999999MW1811REMMET057LATI 0500Z 00000KT 9999 SHRA SCT030CB OVC050 09/08 Q1005;EQDQ01+000003PRSWM1Q02    003PRSWM1
0185136150999992000022008004+41330+019780FM-15+0090LATI V0201201N004110150019N0112651N1+00801+00801999999ADDGA1021+003009999GA2021+006009999GA3071+015009999GF107991999999999999999999MA1100611999999MW1001REMMET059LATI 200800Z 12008KT 9999 FEW010 SCT020 BKN050 08/08 Q1006;EQDQ01+000000PRSWM2
0185136150999992000022009004+41330+019780FM-15+0090LATI V0201601N003110180019N0112651N1+00801+00701999999ADDGA1021+009009999GA2071+018009999GA3071+024009999GF107991999999999999999999MA1100611999999MW1001REMMET059LATI 200900Z 16006KT 9999 SCT030 BKN060 BKN080 08/07 Q1006;EQDQ01+000000PRSWM2
0192136150999992000022010204+41330+019780FM-15+0090LATI V0201401N006210150019N0080001N1+00901+00801999999ADDGA1021+009009999GA2071+015009999GA3071+024009999GF107991999999999999999999MA1100711999999MW1001REMMET066LATI 201020Z 14012KT 8000S 9999N SCT030 BKN050 BKN080 09/08 Q1007;EQDQ01+000000PRSWM2
0185136150999992000022011004+41330+019780FM-15+0090LATI V0201201N006210240019N0112651N1+00901+00701999999ADDGA1021+009009999GA2021+015009999GA3071+024009999GF107991999999999999999999MA1100711999999MW1001REMMET059LATI 201100Z 12012KT 9999 SCT030 SCT050 BKN080 09/07 Q1007;EQDQ01+000000PRSWM2
0204136150999992000022012004+41330+019780FM-15+0090LATI V0201801N002110150019N0030001N1+00901+00801999999ADDGA1021+009009999GA2071+015009999GA3081+024009999GF108991999999999999999999MA1100611999999MW1631REMMET062LATI 201200Z 18004KT 3000 RA SCT030 BKN050 OVC080 09/08 Q1006;EQDQ01+000003PRSWM1Q02    003PRSWM1
0203136150999992000022103004+41330+019780FM-15+0090LATI V0209999C000012200019N0112651N1+00601+00101999999ADDGA1021+009009999GA2021+012009999GA3021+021009999GF104991999999999999999999MA1101081999999MW1611REMMET061LATI 0300Z 00000KT 9999 -RA FEW030 SCT040 SCT070 06/01 Q1011;EQDQ01+000003PRSWM1Q02    003PRSWM1
0160136150999992000022105304+41330+019780FM-15+0090LATI V0209999C000012200019N0112651N1+00501+00101999999ADDGA1021+012009999GA2021+024009999GF104991999999999999999999MA1101391999999MW1001REMMET050LATI 0630Z 00000KT 9999 SCT040 SCT080 05/01 Q1014;EQDQ01+000000PRSWM2
0160136150999992000022107004+41330+019780FM-15+0090LATI V0203601N002110300019N0112651N1+00301+00101999999ADDGA1021+012009999GA2071+030009999GF107991999999999999999999MA1101391999999MW1001REMMET050LATI 0700Z 36004KT 9999 SCT040 BKN100 03/01 Q1014;EQDQ01+000000PRSWM2
0162136150999992000022108004+41330+019780FM-15+0090LATI V0209999C000012200019N0112651N1+00801+00401999999ADDGA1021+012009999GA2021+030009999GF104991999999999999999999MA1101291999999MW1001REMMET052LATI 210800Z 00000KT 9999 FEW040 SCT100 08/04 Q1013;EQDQ01+000000PRSWM2
0162136150999992000022109004+41330+019780FM-15+0090LATI V0209999C000012200019N0112651N1+01001+00401999999ADDGA1021+012009999GA2021+030009999GF104991999999999999999999MA1101391999999MW1001REMMET052LATI 210900Z 00000KT 9999 FEW040 SCT100 10/04 Q1014;EQDQ01+000000PRSWM2
0162136150999992000022111004+41330+019780FM-15+0090LATI V0203301N004110300019N0112651N1+01101+00501999999ADDGA1021+015009999GA2071+030009999GF107991999999999999999999MA1101491999999MW1001REMMET052LATI 211100Z 33008KT 9999 SCT050 BKN100 11/05 Q1015;EQDQ01+000000PRSWM2
0162136150999992000022114454+41330+019780FM-15+0090LATI V0203301N005112200019N0112651N1+01001+00001999999ADDGA1021+015009999GA2021+060009999GF104991999999999999999999MA1101591999999MW1001REMMET052LATI 211445Z 33010KT 9999 SCT050 SCT200 10/00 Q1016;EQDQ01+000000PRSWM2
0145136150999992000022205304+41330+019780FM-15+0090LATI V0209999C000012200019N0112651N1+00101+00001999999ADDGA1021+015009999GF104991999999999999999999MA1102101999999MW1001REMMET051LATI 220630Z 00000KT 9999 SCT050 01/00 Q1021 NOSIG;EQDQ01+000000PRSWM2
0161136150999992000022206304+41330+019780FM-15+0090LATI V0209999C000012200019N0112651N1+00201-00101999999ADDGA1021+015009999GA2021+030009999GF104991999999999999999999MA1102201999999MW1001REMMET051LATI 0730Z 00000KT 9999 SCT050 SCT100 02/M01 Q1022;EQDQ01+000000PRSWM2
0138136150999992000022208004+41330+019780FM-15+0090LATI V0209999C000012200019N0112651N1+00401-00201999999ADDGA1021+018009999GF104991999999999999999999MA1102201999999MW1001REMMET044LATI 0800Z 00000KT 9999 SCT060 04/M02 Q1022;EQDQ01+000000PRSWM2
0144136150999992000022209004+41330+019780FM-15+0090LATI V0209999C000012200019N0112651N1+00601-00201999999ADDGA1021+018009999GF102991999999999999999999MA1102201999999MW1001REMMET050LATI 0900Z 00000KT 9999 FEW060 06/M02 Q1022 NOSIG;EQDQ01+000000PRSWM2
0145136150999992000022210004+41330+019780FM-15+0090LATI V0209999C000012200019N0112651N1+00801-00401999999ADDGA1021+018009999GF102991999999999999999999MA1102201999999MW1001REMMET051LATI 1000Z 00000KT 9999 FEW060 08/M04 Q1022 NOSSIG;EQDQ01+000000PRSWM2
0144136150999992000022213004+41330+019780FM-15+0090LATI V0209999C000012200019N0112651N1+01001-00501999999ADDGA1021+018009999GF104991999999999999999999MA1102001999999MW1001REMMET050LATI 1300Z 00000KT 9999 SCT060 10/M05 Q1020 NOSIG;EQDQ01+000000PRSWM2
0146136150999992000022215004+41330+019780FM-15+0090LATI V0203201N004112200019N0112651N1+00901-00501999999ADDGA1021+018009999GF102991999999999999999999MA1102001999999MW1001REMMET052LATI 221500Z 32008KT 9999 FEW060 09/M05 Q1020 NOSIG;EQDQ01+000000PRSWM2
0146136150999992000022216004+41330+019780FM-15+0090LATI V0203201N005112200019N0112651N1+00801-00401999999ADDGA1021+027009999GF104991999999999999999999MA1102001999999MW1001REMMET052LATI 221600Z 32010KT 9999 SCT090 08/M04 Q1020 NOSIG;EQDQ01+000000PRSWM2
0140136150999992000022217104+41330+019780FM-15+0090LATI V0203201N004112200019N0112651N1+00501-00501999999ADDGA1021+027009999GF104991999999999999999999MA1102101999999MW1001REMMET046LATI 221710Z 32008KT 9999 SCT090 05/M05 Q1021;EQDQ01+000000PRSWM2
0163136150999992000022305004+41330+019780FM-15+0090LATI V0209999C000010240019N0080001N1+00001-00101999999ADDGA1021+018009999GA2071+024009999GF107991999999999999999999MA1102201999999MW1001REMMET053LATI 230500Z 00000KT 8000 SCT060 BKN080 00/M01 Q1022;EQDQ01+000000PRSWM2
0163136150999992000022306004+41330+019780FM-15+0090LATI V0209999C000010240019N0112651N1+00001-00101999999ADDGA1021+018009999GA2071+024009999GF107991999999999999999999MA1102201999999MW1001REMMET053LATI 230600Z 00000KT 9999 SCT060 BKN080 00/M01 Q1022;EQDQ01+000000PRSWM2
0168136150999992000022307004+41330+019780FM-15+0090LATI V0209999C000010240019N0112651N1+00101+00001999999ADDGA1021+018009999GA2071+024009999GF107991999999999999999999MA1102301999999MW1001REMMET058LATI 230700Z 00000KT 9999 SCT060 BKN080 01/00 Q1023 NOSIG;EQDQ01+000000PRSWM2
0160136150999992000022308004+41330+019780FM-15+0090LATI V0209999C000010300019N0112651N1+00301+00001999999ADDGA1021+015009999GA2071+030009999GF107991999999999999999999MA1102201999999MW1001REMMET050LATI 0800Z 00000KT 9999 SCT050 BKN100 03/00 Q1022;EQDQ01+000000PRSWM2
0161136150999992000022309004+41330+019780FM-15+0090LATI V0209999C000010300019N0112651N1+00701-00101999999ADDGA1021+015009999GA2071+030009999GF107991999999999999999999MA1102201999999MW1001REMMET051LATI 0900Z 00000KT 9999 SCT050 BKN100 07/M01 Q1022;EQDQ01+000000PRSWM2
0161136150999992000022313004+41330+019780FM-15+0090LATI V0209999C000010300019N0112651N1+01001-00101999999ADDGA1021+018009999GA2071+030009999GF107991999999999999999999MA1102101999999MW1001REMMET051LATI 1300Z 00000KT 9999 SCT060 BKN100 10/M01 Q1021;EQDQ01+000000PRSWM2
0164136150999992000022405004+41330+019780FM-15+0090LATI V0209999C000012200019N0112651N1-00101-00101999999ADDGA1021+015009999GA2021+030009999GF104991999999999999999999MA1102301999999MW1001REMMET054LATI 240500Z 00000KT 9999 SCT050 SCT100 -01/-01 Q1023;EQDQ01+000000PRSWM2
0118136150999992000022407004+41330+019780FM-15+0090LATI V0209999C000012200019N0112651N1+00101+00001999999ADDGF100991999999999999999999MA1102511999999MW1001REMMET040LATI 0700Z 00000KT 9999 SKC 01/00 Q1025;EQDQ01+000000PRSWM2
0095136150999992000022408004+41330+019780FM-15+0090LATI V0209999C00001220001CN0099001N1+00301+00101999999ADDMA1102511999999MW1001REMMET043LATI 0800Z 00000KT CAVOK 03/01 Q1025 NOSIG;EQDQ01+000000PRSWM2
0096136150999992000022409004+41330+019780FM-15+0090LATI V0202601N00311220001CN0099001N1+00601-00101999999ADDMA1102511999999MW1001REMMET044LATI 0900Z 26006KT CAVOK 06/M01 Q1025 NOSIG;EQDQ01+000000PRSWM2
0095136150999992000022410004+41330+019780FM-15+0090LATI V0209999C00001220001CN0099001N1+00801+00001999999ADDMA1102511999999MW1001REMMET043LATI 1000Z 00000KT CAVOK 08/00 Q1025 NOSIG;EQDQ01+000000PRSWM2
0143136150999992000022410304+41330+019780FM-15+0090LATI V0203201N002112200019N0112651N1+00901+00101999999ADDGA1021+009009999GF102991999999999999999999MA1102401999999MW1001REMMET049LATI 1130Z 32004KT 9999 FEW030 09/01 Q1024 NOSIG;EQDQ01+000000PRSWM2
0143136150999992000022412004+41330+019780FM-15+0090LATI V0200401N003112200019N0112651N1+01001+00101999999ADDGA1021+012009999GF104991999999999999999999MA1102401999999MW1001REMMET049LATI 1200Z 04006KT 9999 SCT040 10/01 Q1024 NOSIG;EQDQ01+000000PRSWM2
0098136150999992000022508504+41330+019780FM-15+0090LATI V0209999C00001220001CN0099001N1+00501-00101999999ADDMA1103181999999MW1001REMMET046LATI 250850Z 00000KT CAVOK 05/M01 Q1032 NOSIG;EQDQ01+000000PRSWM2
0097136150999992000022511154+41330+019780FM-15+0090LATI V0209999C00001220001CN0099001N1+01001+00101999999ADDMA1103181999999MW1001REMMET045LATI 251115Z 00000KT CAVOK 10/01 Q1032 NOSIG;EQDQ01+000000PRSWM2
0097136150999992000022512004+41330+019780FM-15+0090LATI V0203401N00211220001CN0099001N1+01101+00201999999ADDMA1103121999999MW1001REMMET045LATI 251200Z 34004KT CAVOK 11/02 Q1031 NOSIG;EQDQ01+000000PRSWM2
0095136150999992000022605304+41330+019780FM-15+0090LATI V0209999C00001220001CN0099001N1+00401+00101999999ADDMA1102911999999MW1001REMMET043LATI 0630Z 00000KT CAVOK 04/01 Q1029 NOSIG;EQDQ01+000000PRSWM2
0097136150999992000022608154+41330+019780FM-15+0090LATI V0209999C00001220001CN0099001N1+00901+00201999999ADDMA1102911999999MW1001REMMET045LATI 260815Z 00000KT CAVOK 09/02 Q1029 NOSIG;EQDQ01+000000PRSWM2
0097136150999992000022609004+41330+019780FM-15+0090LATI V0203301N00411220001CN0099001N1+01001+00101999999ADDMA1102911999999MW1001REMMET045LATI 260900Z 33008KT CAVOK 10/01 Q1029 NOSIG;EQDQ01+000000PRSWM2
0098136150999992000022610004+41330+019780FM-15+0090LATI V0209999C00001220001CN0099001N1+01201+00101999999ADDMA1102911999999MW1001REMMET046LATI 261000Z 00000KT CAVOK 12/01 Q1029N NOSIG;EQDQ01+000000PRSWM2
0097136150999992000022611204+41330+019780FM-15+0090LATI V0203301N00211220001CN0099001N1+01101+00201999999ADDMA1102911999999MW1001REMMET045LATI 261120Z 33004KT CAVOK 11/02 Q1029 NOSIG;EQDQ01+000000PRSWM2
0097136150999992000022612004+41330+019780FM-15+0090LATI V0203301N00311220001CN0099001N1+01201+00001999999ADDMA1102811999999MW1001REMMET045LATI 261200Z 33006KT CAVOK 12/00 Q1028 NOSIG;EQDQ01+000000PRSWM2
0095136150999992000022615004+41330+019780FM-15+0090LATI V0203401N00411220001CN0099001N1+01401+00101999999ADDMA1102711999999MW1001REMMET043LATI 1500Z 34008KT CAVOK 14/01 Q1027 NOSIG;EQDQ01+000000PRSWM2
0162136150999992000022704304+41330+019780FM-15+0090LATI V0209999C000012200019N0112651N1-00101-00101999999ADDGA1021+024009999GA2021+045009999GF104991999999999999999999MA1102911999999MW1001REMMET052LATI 0530Z 00000KT 9999 FEW080 SCT150 M01/M01 Q1029;EQDQ01+000000PRSWM2
