0211152600999992000010100004+45800+024150FM-12+0444LRSB V0209999C000010042019N0040001N1-00461-00461102301ADDAA106000591AJ100139199999999AY171061AY221061GF108991081001004501021999IA1239MA1999999096721MD1710061+9999MW1711REMSYN088AAXX  01001 15260 /1440 80000 11046 21046 39672 40230 57006 69941 77172 8802/ 333 47013;
0108152600999992000010102004+45800+024150FM-12+0444LRSB V0209999C000010042019N0040001N1-00481+99999999999ADDAY171999AY271999GF108991081001004501021999MW1711REMSYN048AAXX  01021 15260 41440 80000 11048 77177 8802/;
0316152600999992000010103004+45800+024150SY-MT+0444LRSB V0209999C00001002401CN0040001N1-00501-00501102351ADDAA103000591AY171031AY271031GA1071+002409999GA2081+021009999GF108991081001004501021999MA1101901096751MD1310031+9999MW1711REMSYN082AAXX  01031 15260 21440 80000 11050 21050 39675 40235 53003 77177 8802/ 333 69967;MET077LRSB 010300Z 33002MPS 1800 -SN BR BKN008 OVC070 M05/M05 Q1019 NOSIG 27720494;EQDQ01    003PRSWM1
0257152600999992000010104004+45800+024150SY-MT+0444LRSB V0209999C00001002401CN0040001N1-00501-00501999999ADDAY171999AY271999GA1071+002409999GA2081+021009999GF108991081001004501021999MA1101901999999MW1711REMSYN048AAXX  01041 15260 41440 80000 11050 77177 8802/;MET077LRSB 010400Z 27001MPS 1600 -SN BR BKN008 OVC070 M05/M05 Q1019 NOSIG 27720494;EQDQ01    003PRSWM1
0230152600999992000010105004+45800+024150SY-MT+0444LRSB V0209999C00001004201CN0040001N1-00501-00501999999ADDAY171999AY271999GF108991081001004501021999MA1102001999999MW1711REMSYN048AAXX  01051 15260 41440 80000 11050 77177 8802/;MET082LRSB 010500Z 33001MPS 2500 -SN BR BKN009 OVC070 M05/M05 Q1020 TEMPO 3000 27590494;EQDQ01    003PRSWM1
0189152600999992000010106004+45800+024150SY-MT+0444LRSB V0209999C00001002701CN0040001N1-00501-00501102401ADDAA103001091AJ100159199999999AY171061AY271061ED199U15009GA1071+002709999GA2081+021009999GF108991081001004501021999IA1239KA1999N-00521MA1102001096801MD1210051+9999MW1711EQDQ01    003PRSWM1
0288152600999992000010107004+45800+024150SY-MT+0444LRSB V0209999C00001002701CN0040001N1-00501-00501999999ADDAY171999AY271999ED199U15009GA1071+002709999GA2081+018009999GF108991081001004501021999MA1102001999999MW1711REMSYN058AAXX  01071 15260 41440 80000 11052 77177 8802/ 333 95090;MET087LRSB 010700Z 26002MPS 1200 R27/P1500 -SN BR BKN009 OVC060 M05/M05 Q1020 NOSIG 27590494;EQDQ01    003PRSWM1
0220152600999992000010108004+45800+024150SY-MT+0444LRSB V0209999C000019999999N0040001N1+99999+99999999999ADDAY171999AY271999GF108991081001004501999999MW1001MW2711REMSYN058AAXX  01081 15260 41440 80000 11048 77177 880// 333 950-0;MET090LRSB 0800Z 000Z 26002MPS 1200 R27/P150--SN BR BKN009 OVC060 M05/M0 5 Q1020 NOSIG 27590494;
0320152600999992000010109004+45800+024150SY-MT+0444LRSB V0209999C00001018001CN0040001N1-00401-00401102531ADDAA103006091AY171031AY271031GA1021+004509999GA2081+018009999GF108991081001004501021999MA1102101096941MD1210141+9999MW1711REMSYN088AAXX  01091 15260 21440 80000 11040 21040 39694 40253 52014 77177 8802/ 333 60067 95090;MET075LRSB 010900Z 30002MPS 2000 -SN BR SCT015 OVC060 M03/M04 Q1021 NOSIG 275///;EQDQ01    003PRSWM1
0266152600999992000010110004+45800+024150SY-MT+0444LRSB V0209999C000010180019N0040001N1-00301-00401999999ADDAY171999AY271999GA1021+004509999GA2081+018009999GF108991999999004501999999MA1102101999999MW1711MW2731REMSYN052AAXX  01101 15260 /1440 80000 1102/ 77377 333 9590<;MET076LRSB 011000Z 25001MPS 2000S -SN BR SCT015 OVC060 M03/M04 Q1021 NOSIG 275///;EQDQ01    003PRSWM1
0185152600999992000010111004+45800+024150FM-15+0444LRSB V0202301N002010180019N0020001N1-00201-00401999999ADDGA1021+004509999GA2081+018009999GF108991999999999999999999MA1102101999999MW1711REMMET075LRSB 011100Z 23002MPS 2000 -SN BR SCT015 OVC060 M02/M04 Q1021 NOSIG 275///;EQDQ01    003PRSWM1
0217152600999992000010112004+45800+024150FM-12+0444LRSB V0209999C000010042019N0060001N1-00181-00221102441ADDAA103000891AJ100189199999999AY171061AY271061GF108991081001004501021999IA1239MA1999999096911MD1110031+9999MW1711REMSYN094AAXX  01121 15260 /1456 80000 11018 21022 39691 40244 51003 60061 77177 8802/ 333 47018 69977;
0080152600999992000010113004+45800+024150FM-12+0444LRSB V0209999C000019999999N0120001N1-00161+99999999999ADDGF108991999999004501999999REMSYN042AAXX  01131 15260 41462 80000 11016 95090;
0102152600999992000010114004+45800+024150FM-12+0444LRSB V02099999999990360019N0120001N1-00341+99999999999ADDGF108991031051004501071999MW1221REMSYN058AAXX  01141 15260 41462 8///0 11034 722/2 8357/ 333 95080;
0217152600999992000010114304+45800+024150FM-15+0444LRSB V02099999999992200019N0008001N1-00601-00601999999ADDED199U08009GA1021+024009999GA2021+060009999GF104991999999999999999999MA1102201999999MW1121REMMET096LRSB 011530Z VRB01MPS 0800SW R27/0800 MIFG SCT080 SCT200 M06/M06 Q1022 TEMPO 0600 FZFG 27490594;EQDQ01    003PRSWM1
0188152600999992000010115004+45800+024150FM-12+0444LRSB V0209999C000010360019N0120001N1-00381-00501102501ADDAA103999929AY171031AY221031GF106991031051004501071001MA1999999096931MD1210021+9999MW1011REMSYN088AAXX  01151 15260 21462 60000 11038 21050 39693 40250 52002 70172 83570 333 69907 95080;
0265152600999992000010116004+45800+024150SY-MT+0444LRSB V0209999C000010042019N0120001N1-00701-00701999999ADDED199U08009GA1021+024009999GA2021+060009999GF105991051051004501001001MA1102201999999MW1121REMSYN042AAXX  01161 15260 42462 50000 11062 85500;MET096LRSB 011600Z 08001MPS 0800SW R27/0800 MIFG SCT080 SCT200 M07/M07 Q1022 TEMPO 0600 FZFG 27490594;EQDQ01    003PRSWM1
0244152600999992000010117004+45800+024150SY-MT+0444LRSB V0209999C000012200019N0002001N1-00901-00901999999ADDAY101999ED199U02009GA1021+024009999GF199999001001999999001001MA1102201999999MW1461MW2481REMSYN042AAXX  01171 15260 413// 00000 11072 7460/;MET077LRSB 011700Z VRB01MPS 0200 R27/0200 FZFG SCT080 M09/M09 Q1022 NOSIG 27490594;EQDQ01    003PRSWM1
0349152600999992000010118004+45800+024150SY-MT+0444LRSB V0209999C000012200019N0001001N1-00981-00981102751ADDAA112006191AJ100189199999999AY171061AY211061GA1021+024009999GF199999001001999999001001IA1239KA1120M-00101MA1102301097031MD1210101+9999MW1101MW2461REMSYN100AAXX  01181 15260 11901 00000 11098 21098 39703 40275 52010 60062 74671 333 11010 3/002 47018 92802;MET066LRSB 011800Z 25001MPS 1600 BR SCT080 M09/M09 Q1023 NOSIG 27490594;EQDQ01    003PRSWM1
0269152600999992000010119004+45800+024150SY-MT+0444LRSB V0209999C000019999999N0040001N1-01001-01001999999ADDAY101999AY201999GA1021+009009999GA2071+024009999GF103991031051008001001001MA1102301999999MW1101REMSYN048AAXX  01191 15260 41540 30000 11084 71000 83500;MET073LRSB 011900Z 00000MPS 2000 BR FEW030 BKN080 M10/M10 Q1023 NOSIG 27490594;EQDQ01 024003SCOCIGQ02    003PRSWM1
0247152600999992000010120004+45800+024150SY-MT+0444LRSB V0209999C000012200019N0040001N1-00801-00801999999ADDAY101999AY201999GA1021+009009999GA2081+024009999GF199999031051008001001001MA1102301999999MW1101REMSYN048AAXX  01201 15260 41540 30000 11084 71000 83500;MET067LRSB 012000Z 00000MPS 2000 BR SCT030 OVC080 M08/M08 Q1023 27490594;EQDQ01    003PRSWM1
0322152600999992000010121004+45800+024150SY-MT+0444LRSB V0209999C00001008101CN0040001N1-00761-00761102761ADDAA106000091AY121031AY221031GA1071+008109999GA2081+024009999GF199999051051008001001001MA1102301097101MD1210071+9999MW1101REMSYN082AAXX  01211 15260 31540 50000 11076 21076 39710 40276 52007 71022 85500 333 55000;MET067LRSB 012100Z 24001MPS 2000 BR BKN027 OVC080 M07/M07 Q1023 27490594;EQDQ01  00002PRCP06Q02    003PRSWM1
0257152600999992000010122004+45800+024150SY-MT+0444LRSB V0209999C000010075019N0040001N1-00701-00701999999ADDAY121999AY221999GA1071+007509999GA2081+021009999GF108991081051008001999999MA1102401999999MW1101MW2711REMSYN048AAXX  01221 15260 41540 80000 11072 71022 885//;MET071LRSB 012200Z 27001MPS 2000 -SN BR BKN025 OVC070 M07/M07 Q1024 27490594;EQDQ01    003PRSWM1
0257152600999992000010123004+45800+024150SY-MT+0444LRSB V0209999C00001007501CN0040001N1-00701-00701999999ADDAY121999AY221999GA1071+007509999GA2081+021009999GF108991041031008001071999MA1102401999999MW1711MW2851REMSYN048AAXX  01231 15260 41540 80000 11072 78522 8437/;MET071LRSB 012300Z 22002MPS 2000 -SN BR BKN025 OVC070 M07/M07 Q1024 27490594;EQDQ01    003PRSWM1
0351152600999992000010200004+45800+024150SY-MT+0444LRSB V0209999C000010075019N0040001N1-00721-00771102821ADDAA103000791AJ100189199999999AY141061AY281061GA1071+007509999GA2081+021009999GF108991061031008001071999IA1239MA1102401097161MD1210061+9999MW1711MW2851REMSYN094AAXX  02001 15260 /1540 80000 11072 21077 39716 40282 52006 69901 78548 8637/ 333 47018 69907;MET071LRSB 020000Z 21001MPS 2000 -SN BR BKN025 OVC070 M07/M07 Q1024 27490594;EQDQ01    003PRSWM1
0253152600999992000010202004+45800+024150SY-MT+0444LRSB V0209999C00001024001CN0040001N1-00801-00801999999ADDAY181999AY281999GA1021+008109999GA2081+024009999GF108991061031008001071999MA1102401999999MW1101MW2861REMSYN048AAXX  02021 15260 41540 80000 11070 78688 8637/;MET067LRSB 020200Z 22001MPS 2000 BR SCT027 OVC080 M08/M08 Q1024 27490594;EQDQ01    003PRSWM1
0318152600999992000010203004+45800+024150SY-MT+0444LRSB V0209999C00001024001CN0040001N1-00701-00751102861ADDAA103000591AY181031AY281031GA1021+008109999GA2081+024009999GF108991061031008001071999MA1102401097191MD1510031+9999MW1101MW2861REMSYN082AAXX  02031 15260 21540 80000 11070 21075 39719 40286 55003 78688 8637/ 333 69967;MET073LRSB 020300Z 18001MPS 2000 BR SCT027 OVC080 M08/M08 Q1024 NOSIG 27490594;EQDQ01    003PRSWM1
0263152600999992000010204004+45800+024150SY-MT+0444LRSB V0209999C000010075019N0040001N1-00701-00701999999ADDAY181999AY281999GA1071+007509999GA2081+021009999GF108991051031008001071999MA1102401999999MW1711MW2851REMSYN048AAXX  02041 15260 41540 80000 11070 78588 8537/;MET077LRSB 020400Z 00000MPS 2000 -SN BR BKN025 OVC070 M07/M07 Q1024 NOSIG 27490594;EQDQ01    003PRSWM1
0263152600999992000010205004+45800+024150SY-MT+0444LRSB V0209999C00001006001CN0040001N1-00701-00701999999ADDAY181999AY281999GA1071+006009999GA2081+021009999GF108991051031008001071999MA1102511999999MW1711MW2851REMSYN048AAXX  02051 15260 41540 80000 11068 78588 8537/;MET077LRSB 020500Z 00000MPS 2000 -SN BR BKN020 OVC070 M07/M07 Q1025 NOSIG 27493094;EQDQ01    003PRSWM1
0184152600999992000010206004+45800+024150SY-MT+0444LRSB V0209999C00001004801CN0040001N1-00701-00701102861ADDAA103000891AJ100189199999999AY181061AY281061GA1071+004809999GA2081+021009999GF108991061031008001071999IA1239KA1999N-01021MA1102511097191MD1410001+9999MW1711MW2851EQDQ01    003PRSWM1
0209152600999992000010207004+45800+024150FM-15+0444LRSB V0209999C000010048019N0020001N1-00701-00701999999ADDGA1071+004809999GA2081+021009999GF108991999999999999999999MA1102511999999MW1101MW2711REMMET077LRSB 020700Z 00000MPS 2000 -SN BR BKN016 OVC070 M07/M07 Q1025 NOSIG 27493094;EQDQ01+000003PRSWM1Q02    003PRSWM1
0209152600999992000010207304+45800+024150FM-15+0444LRSB V0209999C000010048019N0025001N1-00601-00601999999ADDGA1071+004809999GA2081+021009999GF108991999999999999999999MA1102611999999MW1101MW2711REMMET077LRSB 020830Z 00000MPS 2500 -SN BR BKN016 OVC070 M06/M06 Q1026 NOSIG 27493094;EQDQ01+000003PRSWM1Q02    003PRSWM1
0112152600999992000010208004+45800+024150FM-12+0444LRSB V0209999C000010360019N0060001N1-00631+99999999999ADDAY121999AY221999GF108991031031008001071999MW1101REMSYN052AAXX  02081 15260 41556 80000 11063 71022 8337/ 333;
0328152600999992000010209004+45800+024150SY-MT+0444LRSB V0209999C00001004801CN0060001N1-00591-00591103071ADDAA103000291AY181031AY221031GA1071+004809999GA2081+021009999GF108991031031008001071999MA1102711097411MD1310251+9999MW1101MW2711REMSYN088AAXX  02091 15260 21556 80000 11059 21059 39741 40307 53025 71082 8337/ 333 69927 95090;MET077LRSB 020900Z 33001MPS 2500 -SN BR BKN016 OVC070 M06/M06 Q1027 NOSIG 27493094;EQDQ01    003PRSWM1
0214152600999992000010210004+45800+024150FM-15+0444LRSB V0203301N001010048019N0025001N1-00401-00401999999ADDGA1071+004809999GA2081+021009999GF108991999999999999999999MA1102711999999MW1101MW2711REMMET082LRSB 021000Z 33001MPS 2500 -SN BR BKN016 OVC070 M04/M04 Q1027 BECMG 3000 27493094;EQDQ01+000003PRSWM1Q02    003PRSWM1
0209152600999992000010211004+45800+024150FM-15+0444LRSB V0202801N001010060019N0030001N1-00401-00501999999ADDGA1071+006009999GA2081+021009999GF108991999999999999999999MA1102611999999MW1101MW2711REMMET077LRSB 021100Z 28001MPS 3000 -SN BR BKN020 OVC070 M04/M05 Q1026 NOSIG 27493093;EQDQ01+000003PRSWM1Q02    003PRSWM1
0373152600999992000010212004+45800+024150SY-MT+0444LRSB V0209999C00001006001CN0120001N1-00331-00441103031ADDAA106000191AJ100179199999999AY181061AY221061GA1071+006009999GA2081+021009999GF199999031031008001071001IA1239MA1102611097441MD1110031+9999MW1021MW2711REMSYN094AAXX  02121 15260 11562 70000 11033 21044 39744 40303 51003 69921 70282 83370 333 47017 95080;MET077LRSB 021200Z 34002MPS 3000 -SN BR BKN020 OVC070 M05/M06 Q1026 NOSIG 27493093;EQDQ01+000072SCOTCVQ02    003PRSWM1
0209152600999992000010213004+45800+024150FM-15+0444LRSB V0203201N002010045019N0030001N1-00501-00601999999ADDGA1071+004509999GA2081+021009999GF108991999999999999999999MA1102611999999MW1101MW2711REMMET077LRSB 021300Z 32002MPS 3000 -SN BR BKN015 OVC070 M05/M06 Q1026 NOSIG 27493093;EQDQ01+000003PRSWM1Q02    003PRSWM1
0261152600999992000010214004+45800+024150SY-MT+0444LRSB V0209999C00001003001CN0120001N1-00501-00501999999ADDGA1071+003009999GA2081+021009999GF108991061031008001071999MA1102711999999MW1711REMSYN052AAXX  02141 15260 42562 80000 11047 8637/ 333 95080;MET077LRSB 021400Z 36002MPS 2500 -SN BR BKN010 OVC070 M05/M05 Q1027 NOSIG 27493093;EQDQ01+000003PRSWM1Q02    003PRSWM1
0322152600999992000010215004+45800+024150SY-MT+0444LRSB V0203401N00201003001CN0060001N1-00551-00591103181ADDAA103000391AY181031AY221031GA1071+003009999GA2081+021009999GF108991061031008001081999MA1102811097531MD1210091+9999MW1261MW2711REMSYN082AAXX  02151 15260 21556 83402 11055 21059 39753 40318 52009 72682 8638/ 333 69937;MET077LRSB 021500Z 36002MPS 2000 -SN BR BKN010 OVC070 M05/M05 Q1028 NOSIG 27493093;EQDQ01    003PRSWM1
0263152600999992000010216004+45800+024150SY-MT+0444LRSB V0203201N00101003001CN0060001N1-00701-00701999999ADDAY121999AY221999GA1071+003009999GA2081+021009999GF108991051031008001071999MA1102811999999MW1101MW2711REMSYN048AAXX  02161 15260 41556 83201 11059 71022 8537/;MET077LRSB 021600Z 33002MPS 2500 -SN BR BKN010 OVC070 M07/M07 Q1028 NOSIG 27493093;EQDQ01    003PRSWM1
0199152600999992000010216304+45800+024150FM-15+0444LRSB V0203301N002010042019N0035001N1-00701-00701999999ADDGA1071+004209999GA2081+021009999GF108991999999999999999999MA1102811999999MW1101REMMET073LRSB 021730Z 33002MPS 3500 BR BKN014 OVC070 M07/M07 Q1028 NOSIG 27493093;EQDQ01+000003PRSWM1Q02    003PRSWM1
0080152600999992000010217004+45800+024150FM-12+0444LRSB V0209999C000010360019N0120001N1-00621+99999999999ADDGF108991041031008001071999REMSYN042AAXX  02171 15260 42562 80000 11062 8437/;
0199152600999992000010217304+45800+024150FM-15+0444LRSB V0203401N002010042019N0035001N1-00701-00701999999ADDGA1071+004209999GA2081+021009999GF108991999999999999999999MA1102911999999MW1101REMMET073LRSB 021830Z 34002MPS 3500 BR BKN014 OVC070 M07/M07 Q1029 NOSIG 27493093;EQDQ01+000003PRSWM1Q02    003PRSWM1
0242152600999992000010218004+45800+024150FM-12+0444LRSB V0209999C000010075019N0120001N1-00651-00651103261ADDAA112000591AJ100179199999999AY181061AY221061GF108991061031008001071999IA1239KA1120M-00281MA1999999097591MD1310061+9999MW1031REMSYN106AAXX  02181 15260 11562 80000 11065 21065 39759 40326 53006 69952 70382 8637/ 333 11028 3/001 47017 92802;
0080152600999992000010219004+45800+024150FM-12+0444LRSB V0209999C000010075019N0120001N1-00161+99999999999ADDGF108991051031008001999999REMSYN042AAXX  02191 15260 42562 80000 11016 853//;
0080152600999992000010220004+45800+024150FM-12+0444LRSB V0209999C000010360019N0120001N1-00671+99999999999ADDGF108991041031008001071999REMSYN042AAXX  02201 15260 42562 80000 11067 8437/;
0154152600999992000010221004+45800+024150FM-12+0444LRSB V0209999C000010360019N0120001N1-00661-00661103361ADDAA106000021GF108991041031008001071999MA1999999097691MD1210101+9999REMSYN076AAXX  02211 15260 32562 80000 11066 21066 39769 40336 52010 8437/ 333 55000;
0080152600999992000010222004+45800+024150FM-12+0444LRSB V0209999C000010360019N0120001N1-00671+99999999999ADDGF108991031031008001071999REMSYN042AAXX  02221 15260 42562 80000 11067 8337/;
0080152600999992000010223004+45800+024150FM-12+0444LRSB V0209999C000010360019N0120001N1-00641+99999999999ADDGF108991041031008001071999REMSYN042AAXX  02231 15260 42562 80000 11064 8437/;
0196152600999992000010300004+45800+024150FM-12+0444LRSB V0209999C000010075019N0120001N1-00691-00691103361ADDAA106000091AJ100179199999999GF108991061031008001071999IA1239MA1999999097691MD1410001+9999REMSYN076AAXX  03001 15260 32562 80000 11069 21069 39769 40336 54000 8637/ 333 47017;EQDQ01  00002PRCP06
0080152600999992000010301004+45800+024150FM-12+0444LRSB V0209999C000010075019N0120001N1-00711+99999999999ADDGF108991051031008001071999REMSYN042AAXX  03011 15260 42562 80000 11071 8537/;
0074152600999992000010302004+45800+024150FM-12+0444LRSB V0209999C000019999999N0120001N1-00781+99999999999ADDGF108991999999008001999999REMSYN036AAXX  03021 15260 42562 80000 11078;
0306152600999992000010303004+45800+024150SY-MT+0444LRSB V0209999C00001021001CN0120001N1-00721-00721103381ADDAA106000091GA1021+004209999GA2081+021009999GF108991081031008001999999MA1102911097691MD1410001+9999MW1101REMSYN066AAXX  03031 15260 32562 80000 11072 21072 39769 40338 54000 883//;MET067LRSB 030300Z 28003MPS 4000 BR SCT014 OVC070 M06/M06 Q1029 27491093;EQDQ01+000003PRSWM1Q02  00002PRCP06Q03    003PRSWM1
0241152600999992000010304004+45800+024150SY-MT+0444LRSB V0209999C00001021001CN0120001N1-00601-00601999999ADDGA1021+004209999GA2081+021009999GF108991051031008001041999MA1103011999999MW1101REMSYN042AAXX  03041 15260 42562 80000 11073 8534/;MET067LRSB 030400Z 18001MPS 5000 BR SCT014 OVC070 M06/M06 Q1030 27491093;EQDQ01+000003PRSWM1Q02    003PRSWM1
0228152600999992000010305004+45800+024150SY-MT+0444LRSB V0209999C000010210019N0120001N1-00701-00701999999ADDGA1021+006009999GA2081+021009999GF108991999999999999999999MA1102911999999MW1001REMSYN042AAXX  03051 15260 42562 /0000 11074 8437/;MET070LRSB 030500Z 13001MPS 6000 SCT020 OVC070 M07/M07 Q1029 NOSIG 27491093;EQDQ01+000000PRSWM2
0379152600999992000010306004+45800+024150SY-MT+0444LRSB V0203201N00201021001CN0120001N1-00781-00841103361ADDAA106000091AJ100179199999999GA1021+006009999GA2081+021009999GF108991041031008001071999IA1239IA2120-01009KA1120N-00801MA1102911097651MD1510041+9999MW1001REMSYN104AAXX  03061 15260 32562 83202 11078 21084 39765 40336 55004 8437/ 333 21080 3/110 47017 92802 555 69905;MET070LRSB 030600Z 22004MPS 8000 SCT020 OVC070 M10/M10 Q1029 NOSIG 27491093;EQDQ01+000000PRSWM2Q02  00002PRCP06
0157152600999992000010307004+45800+024150FM-15+0444LRSB V0201801N001012200019N0112651N1-00901-01101999999ADDGA1021+007809999GF104991999999999999999999MA1102911999999MW1001REMMET063LRSB 030700Z 18001MPS 9999 SCT026 M09/M11 Q1029 NOSIG 27491093;EQDQ01+000000PRSWM2
0238152600999992000010308004+45800+024150SY-MT+0444LRSB V0209999C000012200019N0150001N1-01001-01101999999ADDGA1021+007809999GA2021+027009999GF102991021001999999041001MA1102911999999MW1001REMSYN052AAXX  03081 15260 42965 20000 11109 82040 333 95080;MET070LRSB 030800Z 27002MPS 9999 FEW026 SCT090 M10/M11 Q1029 NOSIG 27491093;EQDQ01+000000PRSWM2
0280152600999992000010309004+45800+024150SY-MT+0444LRSB V0202501N002010360019N0120001N1-00801-00901103361ADDAA106000091GA1021+007809999GF105991031021008001041001MA1102911097651MD1510001+9999MW1001REMSYN076AAXX  03091 15260 32562 52502 11080 21090 39765 40336 55000 83240 333 95080;MET063LRSB 030900Z 22002MPS 9999 SCT026 M10/M12 Q1029 NOSIG 27491093;EQDQ01+000000PRSWM2Q02  00002PRCP06
0157152600999992000010310004+45800+024150FM-15+0444LRSB V0209999C000012200019N0112651N1-00701-00901999999ADDGA1021+007809999GF102991999999999999999999MA1102811999999MW1001REMMET063LRSB 031000Z 00000MPS 9999 FEW026 M07/M09 Q1028 NOSIG 27491093;EQDQ01+000000PRSWM2
0180152600999992000010311004+45800+024150FM-15+0444LRSB V0203201N002010600019N0112651N1-00601-00801999999ADDGA1021+007809999GA2081+060009999GF108991999999999999999999MA1102811999999MW1001REMMET070LRSB 031100Z 32002MPS 9999 SCT026 OVC200 M06/M08 Q1028 NOSIG 27451093;EQDQ01+000000PRSWM2
0332152600999992000010312004+45800+024150SY-MT+0444LRSB V0209999C00001060001CN0150001N1-00581-00801103151ADDAA106000091AJ100169199999999GA1021+007809999GA2081+060009999GF108991001001999999001071IA1239MA1102811097491MD1710161+9999MW1001REMSYN082AAXX  03121 15260 32965 80000 11058 21080 39749 40315 57016 80007 333 47016 95070;MET070LRSB 031200Z 21001MPS 9999 SCT026 OVC200 M07/M09 Q1028 NOSIG 27451093;EQDQ01+000000PRSWM2Q02  00002PRCP06
0180152600999992000010313004+45800+024150FM-15+0444LRSB V0203301N001010600019N0112651N1-00601-00801999999ADDGA1021+007809999GA2081+060009999GF108991999999999999999999MA1102711999999MW1001REMMET070LRSB 031300Z 33001MPS 9999 SCT026 OVC200 M06/M08 Q1027 NOSIG 27451093;EQDQ01+000000PRSWM2
0200152600999992000010314004+45800+024150FM-15+0444LRSB V0202601N001010210019N0060001N1-00601-00801999999ADDGA1021+006009999GA2081+021009999GF108991999999999999999999MA1102611999999MW1711REMMET074LRSB 031400Z 26001MPS 6000 -SN SCT020 OVC070 M06/M08 Q1026 NOSIG 27451093;EQDQ01+000003PRSWM1Q02    003PRSWM1
0322152600999992000010315004+45800+024150SY-MT+0444LRSB V0209999C00001003001CN0080001N1-00641-00721103001ADDAA106000021AY121031AY221031GA1071+003009999GA2081+006009999GF108991041051008001071999MA1102611097341MD1810151+9999MW1101MW2711REMSYN082AAXX  03151 15260 31558 80000 11064 21072 39734 40300 58015 71022 8457/ 333 95080;MET077LRSB 031500Z 21001MPS 2000 -SN BR BKN010 OVC020 M06/M08 Q1026 NOSIG 27451093;EQDQ01    003PRSWM1
0209152600999992000010316004+45800+024150FM-15+0444LRSB V0202801N001010030019N0020001N1-00701-00801999999ADDGA1071+003009999GA2081+006009999GF108991999999999999999999MA1102611999999MW1101MW2711REMMET077LRSB 031600Z 28001MPS 2000 -SN BR BKN010 OVC020 M07/M08 Q1026 NOSIG 27451093;EQDQ01+000003PRSWM1Q02    003PRSWM1
0251152600999992000010317004+45800+024150SY-MT+0444LRSB V0209999C00101003001CN0040001N1-00701-00701999999ADDAY171999AY271999GA1071+003009999GA2081+006009999GF108991041051008001071999MA1102611999999MW1711REMSYN042AAXX  03171 15260 41540 80001 77177 8457/;MET077LRSB 031700Z 18001MPS 2500 -SN BR BKN010 OVC020 M07/M07 Q1026 NOSIG 27451093;EQDQ01    003PRSWM1
0388152600999992000010318004+45800+024150SY-MT+0444LRSB V0209999C000010030019N0040001N1-00661-00661102921ADDAA103001091AJ100189199999999AY171061AY221061GA1071+003009999GA2081+021009999GF108991061051008001071999IA1239KA1120M-00421MA1102511097271MD1810071+9999MW1101MW2711REMSYN112AAXX  03181 15260 /1540 80000 11066 21066 39727 40292 58007 60012 77172 8657/ 333 11042 3/101 47018 60017 92802;MET077LRSB 031800Z 00000MPS 2500 -SN BR BKN010 OVC070 M07/M07 Q1025 NOSIG 27451093;EQDQ01    003PRSWM1
0108152600999992000010319004+45800+024150FM-12+0444LRSB V0209999C000010075019N0080001N1-00651+99999999999ADDAY171011AY271011GF108991061051008001071999MW1711REMSYN048AAXX  03191 15260 41558 80000 11065 77177 8657/;
0108152600999992000010320004+45800+024150FM-12+0444LRSB V02099999999990075019N0040001N1-00641+99999999999ADDAY171999AY271999GF108991061051008001071999MW1711REMSYN048AAXX  03201 15260 41540 825/1 11064 77177 8657/;
0167152600999992000010321004+45800+024150FM-12+0444LRSB V0209999C000010075019N0040001N1-00631-00681102891ADDAA103000391AY171031AY271031GF108991051051008001071999MD1710031+9999MW1711REMSYN082AAXX  03211 15260 21540 80000 11063 21068 40289 57003 77177 8557/ 333 55028 69937;
0108152600999992000010322004+45800+024150FM-12+0444LRSB V0209999C000010075019N0040001N1-00621+99999999999ADDAY171999AY221999GF108991051051008001071999MW1221REMSYN048AAXX  03221 15260 41540 80000 11062 72272 8557/;
0108152600999992000010323004+45800+024150FM-12+0444LRSB V0209999C000010075019N0040001N1-00601+99999999999ADDAY121999AY221999GF108991061051008001071999MW1101REMSYN048AAXX  03231 15260 41540 80000 11060 71022 8657/;
0209152600999992000010400004+45800+024150FM-12+0444LRSB V0209999C000010042019N9999999N1-00581-00581102811ADDAA103000591AJ100189199999999AW1101AZ171061GF108991081051004501999999IA1239MA1999999097191MD1810051+9999REMSYN094AAXX  04001 15260 /540/ 80000 11058 21058 39719 40281 58005 69971 71072 885// 333 47018 69947;
0108152600999992000010401004+45800+024150FM-12+0444LRSB V0209999C000010075019N0040001N1-00581+99999999999ADDAY121999AY221999GF108991081051008001999999MW1101REMSYN048AAXX  04011 15260 41540 80000 11058 71022 885//;
0108152600999992000010402004+45800+024150FM-12+0444LRSB V0209999C000010075019N0040001N1-00561+99999999999ADDAY171999AY221999GF108991081051008001999999MW1711REMSYN048AAXX  04021 15260 41540 80000 11056 77172 885//;
0193152600999992000010402304+45800+024150FM-15+0444LRSB V0209999C000010240019N0030001N1-00601-00601999999ADDGA1021+006909999GA2081+024009999GF108991999999999999999999MA1102301999999MW1101REMMET067LRSB 040330Z 00000MPS 3000 BR SCT023 OVC080 M06/M06 Q1023 27451093;EQDQ01+000003PRSWM1Q02    003PRSWM1
0182152600999992000010403004+45800+024150FM-12+0444LRSB V0209999C000010075019N0040001N1-00551-00551102761ADDAA103000791AY171031AY221031GF108991081051008001999999MA1999999097141MD1710051+9999MW1221REMSYN082AAXX  04031 15260 21540 80000 11055 21055 39714 40276 57005 72272 885// 333 69907;
0209152600999992000010403304+45800+024150FM-15+0444LRSB V0201801N001010030019N0025001N1-00501-00501999999ADDGA1071+003009999GA2081+021009999GF108991999999999999999999MA1102301999999MW1101MW2711REMMET077LRSB 040430Z 18001MPS 2500 -SN BR BKN010 OVC070 M05/M05 Q1023 NOSIG 27491093;EQDQ01+000003PRSWM1Q02    003PRSWM1
0209152600999992000010405004+45800+024150FM-15+0444LRSB V0200901N001010030019N0025001N1-00501-00501999999ADDGA1071+003009999GA2081+021009999GF108991999999999999999999MA1102301999999MW1101MW2711REMMET077LRSB 040500Z 09001MPS 2500 -SN BR BKN010 OVC070 M05/M05 Q1023 NOSIG 27491093;EQDQ01+000003PRSWM1Q02    003PRSWM1
0266152600999992000010405004+45800+024150FM-16+0444LRSB V0200901N001010030019N0025001N1+99999+99999999999ADDGA1071+003009999GA2081+021009999GF108991999999999999999999KA1999M+99999MW1001MW2711REMMET136LRSB 040500Z 09001MPS 2500 -SN BR BKN010 OVC0708M</VQ2# NOSIG 27491. .BM 040500Z 08001MPS -FZDZ BR SCT003 OVC020 M05/M 0511024 10891094;EQDQ01+000100PRSWM3Q02+000003PRSWM1
0400152600999992000010406004+45800+024150SY-MT+0444LRSB V0209999C00001003901CN0040001N1-00541-00541102691ADDAA112000891AJ100189199999999AY171061AY221061GA1071+003909999GA2081+021009999GF108991081051008001999999IA1239IA2120-00709KA1120N-00691MA1102301097081MD1710061+9999MW1101REMSYN122AAXX  04061 15260 11540 80000 11054 21054 39708 40269 57006 69972 71072 885// 333 21069 3/107 47018 92802 95090 555 60018;MET073LRSB 040600Z 09001MPS 2000 BR BKN013 OVC070 M05/M05 Q1023 NOSIG 27491093;EQDQ01    003PRSWM1
0199152600999992000010407004+45800+024150FM-15+0444LRSB V0201201N001010039019N0020001N1-00401-00401999999ADDGA1071+003909999GA2081+021009999GF108991999999999999999999MA1102401999999MW1101REMMET073LRSB 040700Z 12001MPS 2000 BR BKN013 OVC070 M04/M04 Q1024 NOSIG 27492093;EQDQ01+000003PRSWM1Q02    003PRSWM1
0199152600999992000010408004+45800+024150FM-15+0444LRSB V0209999C000010039019N0016001N1-00401-00401999999ADDGA1071+003909999GA2081+021009999GF108991999999999999999999MA1102401999999MW1101REMMET073LRSB 040800Z 00000MPS 1600 BR BKN013 OVC070 M04/M04 Q1024 NOSIG 27491093;EQDQ01+000003PRSWM1Q02    003PRSWM1
0322152600999992000010409004+45800+024150SY-MT+0444LRSB V0209999C00001003301CN0040001N1-00391-00391102711ADDAA103999929AY171031AY221031GA1071+003309999GA2081+021009999GF108991081051008001999999MA1102401097131MD1210051+9999MW1711REMSYN088AAXX  04091 15260 21540 80000 11039 21039 39713 40271 52005 77172 885// 333 69907 95090;MET077LRSB 040900Z 10001MPS 1800 -SN BR BKN011 OVC070 M03/M03 Q1024 NOSIG 27491093;EQDQ01    003PRSWM1
0199152600999992000010410004+45800+024150FM-15+0444LRSB V0201201N002010039019N0020001N1-00301-00301999999ADDGA1071+003909999GA2081+021009999GF108991999999999999999999MA1102301999999MW1101REMMET073LRSB 041000Z 12002MPS 2000 BR BKN013 OVC070 M03/M03 Q1023 NOSIG 27491093;EQDQ01+000003PRSWM1Q02    003PRSWM1
0199152600999992000010411004+45800+024150FM-15+0444LRSB V0201301N001010042019N0020001N1-00301-00401999999ADDGA1071+004209999GA2081+021009999GF108991999999999999999999MA1102301999999MW1101REMMET073LRSB 041100Z 13001MPS 2000 BR BKN014 OVC070 M03/M04 Q1023 NOSIG 27491093;EQDQ01+000003PRSWM1Q02    003PRSWM1
0352152600999992000010412004+45800+024150SY-MT+0444LRSB V0209999C00001004201CN0040001N1-00201-00331102571ADDAA103999929AJ100189199999999AY171061AY221061GA1071+004209999GA2081+021009999GF108991081051008001999999IA1239MA1102201097021MD1710111+9999MW1101REMSYN100AAXX  04121 15260 /1540 80000 11020 21033 39702 40257 57011 69901 71072 885// 333 47018 69907 95090;MET072LRSB 041200 13001MPS 2000 BR BKN014 OVC070 M02/M03 Q1022 NOSIG 27491093;EQDQ01    003PRSWM1
0199152600999992000010413004+45800+024150FM-15+0444LRSB V0209999C000010042019N0020001N1-00101-00201999999ADDGA1071+004209999GA2081+021009999GF108991999999999999999999MA1102201999999MW1101REMMET073LRSB 041300Z 00000MPS 2000 BR BKN014 OVC070 M01/M02 Q1022 NOSIG 27491093;EQDQ01+000003PRSWM1Q02    003PRSWM1
0199152600999992000010414004+45800+024150FM-15+0444LRSB V0203301N002010042019N0025001N1-00201-00301999999ADDGA1071+004209999GA2081+021009999GF108991999999999999999999MA1102201999999MW1101REMMET073LRSB 041400Z 33002MPS 2500 BR BKN014 OVC070 M02/M03 Q1022 NOSIG 27491093;EQDQ01+000003PRSWM1Q02    003PRSWM1
0312152600999992000010415004+45800+024150SY-MT+0444LRSB V0209999C00001004201CN0040001N1-00271-00271102571ADDAA106000021AY121031AY221031GA1071+004209999GA2081+021009999GF108991081051008001999999MA1102201097021MD1410001+9999MW1101REMSYN082AAXX  04151 15260 31540 80000 11027 21027 39702 40257 54000 71022 885// 333 95090;MET073LRSB 041500Z 31001MPS 2500 BR BKN014 OVC070 M03/M03 Q1022 NOSIG 27491093;EQDQ01    003PRSWM1
0199152600999992000010416004+45800+024150FM-15+0444LRSB V0203301N001010042019N0020001N1-00301-00301999999ADDGA1071+004209999GA2081+021009999GF108991999999999999999999MA1102301999999MW1101REMMET073LRSB 041600Z 33001MPS 2000 BR BKN014 OVC070 M03/M03 Q1023 NOSIG 27491093;EQDQ01+000003PRSWM1Q02    003PRSWM1
0199152600999992000010417004+45800+024150FM-15+0444LRSB V0203101N001010042019N0020001N1-00301-00301999999ADDGA1071+004209999GA2081+021009999GF108991999999999999999999MA1102301999999MW1101REMMET073LRSB 041700Z 31001MPS 2000 BR BKN014 OVC070 M03/M03 Q1023 NOSIG 27491093;EQDQ01+000003PRSWM1Q02    003PRSWM1
0372152600999992000010418004+45800+024150SY-MT+0444LRSB V0209999C00001004201CN0040001N1-00341-00341102581ADDAA112000791AJ100189199999999AY121061AY221061GA1071+004209999GA2081+021009999GF108991081051008001999999IA1239KA1120M-00131MA1102301097011MD1810011+9999MW1101REMSYN106AAXX  04181 15260 11540 80000 11034 21034 39701 40258 58001 69902 71022 885// 333 11013 3/000 47018 92802;MET073LRSB 041800Z 00000MPS 2500 BR BKN014 OVC070 M03/M03 Q1023 NOSIG 27491093;EQDQ01    003PRSWM1
0199152600999992000010419004+45800+024150FM-15+0444LRSB V0201201N003010048019N0025001N1-00301-00401999999ADDGA1071+004809999GA2081+021009999GF108991999999999999999999MA1102201999999MW1101REMMET073LRSB 041900Z 12003MPS 2500 BR BKN016 OVC070 M03/M04 Q1022 NOSIG 27491093;EQDQ01+000003PRSWM1Q02    003PRSWM1
0201152600999992000010421004+45800+024150FM-12+0444LRSB V0209999C000010075019N0080001N1-00321-00321102561ADDAA106000091AY121031AY221031GF108991061051008001071999MA1999999096991MD1810021+9999MW1101REMSYN082AAXX  04211 15260 31558 80000 11032 21032 39699 40256 58002 71022 8657/ 333 55000;EQDQ01  00002PRCP06
0108152600999992000010422004+45800+024150FM-12+0444LRSB V0209999C000010075019N0060001N1-00321+99999999999ADDAY121999AY221999GF108991061051008001071999MW1101REMSYN048AAXX  04221 15260 41556 80000 11032 71022 8657/;
0345152600999992000010500004+45800+024150SY-MT+0444LRSB V0209999C00001021001CN0080001N1-00351-00351102521ADDAA106000091AJ100189199999999AY121061AY221061GA1021+006009999GA2081+021009999GF108991081051008001999999IA1239MA1102101096951MD1810041+9999MW1101REMSYN082AAXX  05001 15260 31558 80000 11035 21035 39695 40252 58004 71022 885// 333 47018;MET067LRSB 040000Z 12002MPS 2500 BR SCT020 OVC070 M03/M03 Q1021 27491093;EQDQ01  00002PRCP06Q02    003PRSWM1
0100152600999992000010501004+45800+024150FM-12+0444LRSB V0209999C000010075019N0080001N1-00351+99999999999ADDAY121999GF108991081051008001999999MW1021REMSYN048AAXX  05011 15260 41558 80000 11035 7022/ 885//;
0108152600999992000010502004+45800+024150FM-12+0444LRSB V0209999C000010075019N0080001N1-00361+99999999999ADDAY121999AY221999GF108991081051008001999999MW1101REMSYN048AAXX  05021 15260 41558 80000 11036 71022 885//;
0318152600999992000010503004+45800+024150SY-MT+0444LRSB V0209999C00001021001CN0080001N1-00371-00371102441ADDAA106000091AY121031AY221031GA1021+006009999GA2081+021009999GF108991081051008001999999MA1102001096871MD1710081+9999MW1101REMSYN072AAXX  05031 15260 31558 80000 11037 21037 39687 40244 57008 71022 885//;MET073LRSB 050300Z 18001MPS 2500 BR SCT020 OVC070 M03/M03 Q1020 NOSIG 27491093;EQDQ01  00002PRCP06Q02    003PRSWM1
0199152600999992000010503304+45800+024150FM-15+0444LRSB V0202801N001010210019N0025001N1-00401-00401999999ADDGA1021+006009999GA2081+021009999GF108991999999999999999999MA1102001999999MW1101REMMET073LRSB 050430Z 28001MPS 2500 BR SCT020 OVC070 M04/M04 Q1020 NOSIG 27491094;EQDQ01+000003PRSWM1Q02    003PRSWM1
0108152600999992000010504004+45800+024150FM-12+0444LRSB V0209999C000010075019N0080001N1-00381+99999999999ADDAY121011AY221011GF108991081051008001999999MW1101REMSYN048AAXX  05041 15260 41558 80000 11038 71022 885//;
0199152600999992000010505004+45800+024150FM-15+0444LRSB V0203201N001010210019N0025001N1-00401-00401999999ADDGA1021+006009999GA2081+021009999GF108991999999999999999999MA1102001999999MW1101REMMET073LRSB 050500Z 32001MPS 2500 BR SCT020 OVC070 M04/M04 Q1020 NOSIG 27491094;EQDQ01+000003PRSWM1Q02    003PRSWM1
0176152600999992000010505304+45800+024150FM-15+0444LRSB V0203301N001010015019N0018001N1-00401-00401999999ADDGA1081+001509999GF108991999999999999999999MA1102101999999MW1101REMMET066LRSB 050630Z 33001MPS 1800 BR OVC005 M04/M04 Q1021 NOSIG 27491094;EQDQ01+000003PRSWM1Q02    003PRSWM1
0176152600999992000010506304+45800+024150FM-15+0444LRSB V0203201N002010015019N0018001N1-00401-00401999999ADDGA1081+001509999GF108991999999999999999999MA1102101999999MW1101REMMET066LRSB 050730Z 32002MPS 1800 BR OVC005 M04/M04 Q1021 NOSIG 27491094;EQDQ01+000003PRSWM1Q02    003PRSWM1
0222152600999992000010508004+45800+024150SY-MT+0444LRSB V0202301N00201001501CN0008001N1-00401-00401999999ADDGA1081+001509999GF109991091999999999999999MA1102201999999MW1101REMSYN040AAXX  05081 15260 41/08 92302 11036 333;MET066LRSB 050800Z 33002MPS 1800 BR OVC005 M04/M04 Q1022 NOSIG 27491094;EQDQ01+000003PRSWM1Q02    003PRSWM1
0296152600999992000010509004+45800+024150SY-MT+0444LRSB V0202901N00201001501CN0008001N1-00321-00321102501ADDAA106000091AY141031AY221031GA1081+001509999GF109991091999999999999999MA1102101096931MD1210051+9999MW1101MW2451REMSYN076AAXX  05091 15260 31/08 92902 11032 21032 39693 40250 52005 74542 333 95090;MET057LRSB 050900Z 18001MPS 1800 BR OVC005 M03/M03 Q1021 NOSIG;EQDQ01  00002PRCP06Q02    003PRSWM1
0176152600999992000010510004+45800+024150FM-15+0444LRSB V0202401N001010021019N0020001N1-00301-00301999999ADDGA1081+002109999GF108991999999999999999999MA1102101999999MW1101REMMET066LRSB 051000Z 24001MPS 2000 BR OVC007 M03/M03 Q1021 NOSIG 27491094;EQDQ01+000003PRSWM1Q02    003PRSWM1
0176152600999992000010510304+45800+024150FM-15+0444LRSB V0209999C000010018019N0025001N1-00201-00301999999ADDGA1081+001809999GF108991999999999999999999MA1102101999999MW1101REMMET066LRSB 051130Z 00000MPS 2500 BR OVC006 M02/M03 Q1021 NOSIG 27491094;EQDQ01+000003PRSWM1Q02    003PRSWM1
0199152600999992000010511304+45800+024150FM-15+0444LRSB V0201301N001010045019N0025001N1-00101-00301999999ADDGA1071+004509999GA2081+021009999GF108991999999999999999999MA1102001999999MW1101REMMET073LRSB 051230Z 13001MPS 2500 BR BKN015 OVC070 M01/M03 Q1020 NOSIG 27491094;EQDQ01+000003PRSWM1Q02    003PRSWM1
0246152600999992000010512004+45800+024150FM-12+0444LRSB V0209999C000010042019N0010001N1-00151-00231999999ADDAA100999999AJ100179199999999AY151061AY231061GF108991081061004501999999IA1279MA1999999096841MD1010001+9999MW1381REMSYN088AAXX  05121 15260 31410 80000 11015 21023 39684 50346 67020 73853 886// 333 43017 95090;EQDQ01+003462APC3  Q02  70212PRCP00
0199152600999992000010513004+45800+024150FM-15+0444LRSB V0203301N002010045019N0025001N1-00101-00301999999ADDGA1071+004509999GA2081+021009999GF108991999999999999999999MA1102001999999MW1101REMMET073LRSB 051300Z 33002MPS 2500 BR BKN015 OVC070 M01/M03 Q1020 NOSIG 27491094;EQDQ01+000003PRSWM1Q02    003PRSWM1
0208152600999992000010514004+45800+024150FM-15+0444LRSB V0203001N002010015019N0025001N1-00201-00301999999ADDGA1071+001509999GA2081+015009999GF108991999999999999999999MA1102001999999MW1101MW2731REMMET076LRSB 051400Z 30002MPS 2500 SN BR BKN005 OVC050 M02/M03 Q1020 NOSIG 27491094;EQDQ01+000003PRSWM1Q02    003PRSWM1
0321152600999992000010515004+45800+024150SY-MT+0444LRSB V0209999C00001001501CN0025001N1-00181-00181102381ADDAA106000021AY121031AY221031GA1071+001509999GA2081+015009999GF108991081061004501999999MA1102101096861MD1310031+9999MW1101MW2731REMSYN082AAXX  05151 15260 31425 80000 11018 21018 39686 40238 53003 71022 886// 333 95090;MET076LRSB 051500Z 32002MPS 2000 SN BR BKN005 OVC050 M02/M03 Q1021 NOSIG 27491094;EQDQ01    003PRSWM1
0225152600999992000010516004+45800+024150SY-MT+0444LRSB V0209999C000010003019N0005001N1+99999+99999999999ADDAY171999AY241999GF109991091999999999999999MW1001MW2711REMSYN052AAXX  05161 15260 41/05 90000 11022 77174 333 96047;MET082LRSB 1600 05158+ 00000MPS 2500 - SN BR BKN005 OHC050 M02/M03 Q1021 NOSIG 27491094;EQDQ01+000000PRSWM2
0262152600999992000010517004+45800+024150SY-MT+0444LRSB V0201201N001010015019N0005001N1-00201-00301999999ADDAY171999AY241999GA1071+001509999GA2081+015009999GF108991999999999999999999MA1102101999999MW1711REMSYN052AAXX  05171 15260 41/05 //000 11022 77174 333 96045;MET078LRSB 051700Z 12001MPS 2500 - SN BR BKN005 OVC050 M02/M03 Q1021 NOSIG 27491094;EQDQ01    003PRSWM1
0209152600999992000010517304+45800+024150FM-15+0444LRSB V0201301N001010015019N0020001N1-00201-00201999999ADDGA1071+001509999GA2081+015009999GF108991999999999999999999MA1102101999999MW1101MW2711REMMET077LRSB 051830Z 13001MPS 2000 -SN BR BKN005 OVC050 M02/M02 Q1021 NOSIG 27491094;EQDQ01+000003PRSWM1Q02    003PRSWM1
0257152600999992000010519004+45800+024150SY-MT+0444LRSB V0209999C00001001501CN0005001N1-00201-00201999999ADDAY171999AY241999GA1071+001509999GA2081+015009999GF109991091999999999999999MA1102101999999MW1451MW2711REMSYN042AAXX  05191 15260 41/05 90000 1102/ 74574;MET077LRSB 051900Z 13002MPS 2000 -SN BR BKN005 OVC050 M02/M02 Q1021 NOSIG 27491094;EQDQ01    003PRSWM1
0108152600999992000010520004+45800+024150FM-12+0444LRSB V0209999C000010042019N0020001N1-00211+99999999999ADDAY141999AY221999GF108991061051004501071999MW1281REMSYN048AAXX  05201 15260 41420 80000 11021 72842 8657/;
0166152600999992000010521004+45800+024150FM-12+0444LRSB V0209999C000010042019N0020001N1-00231-00231102381ADDAA103000791GF108991061051004501071999MA1999999096841MD1810051+9999REMSYN088AAXX  05211 15260 2/420 80000 11023 21023 39684 40238 58005 71074 8657/ 333 55000 69907;
0118152600999992000010522004+45800+024150FM-12+0444LRSB V0209999C000010003019N0005001N1-00231+99999999999ADDAY141999AY221999GA1091+999999999GF109991091999999999999999MW1471REMSYN042AAXX  05221 15260 41/05 90000 11023 74742;
0315152600999992000010603004+45800+024150SY-MT+0444LRSB V0209999C00001001501CN0005001N1-00201-00201102531ADDAA103000191AY171031AY241031ED199U10009GA1081+001509999GF109991091999999999999999MA1102201096981MD1210071+9999MW1451MW2711REMSYN076AAXX  06031 15260 21/05 90000 11020 21020 39698 40253 52007 74574 333 69917;MET081LRSB 060300Z 21001MPS 0600 R27/1000 -SN FZFG OVC005 M02/M02 Q1022 NOSIG 27491094;EQDQ01    003PRSWM1
0268152600999992000010604004+45800+024150SY-MT+0444LRSB V0209999C00001001501CN0005001N1-00201-00201999999ADDAY171999AY241999ED199U10009GA1081+001509999GF109991091999999999999999MA1102201999999MW1711REMSYN052AAXX  06041 15260 41/05 90000 11019 77174 333 960/5;MET089LRSB 060400Z 00000MPS 0600 R27/1000 -SN FZFG OVC005 M02/M02 Q1022 BECMG 1500 BR 27491094;EQDQ01    003PRSWM1
0206152600999992000010605004+45800+024150FM-15+0444LRSB V0209999C000010015019N0011001N1-00201-00201999999ADDED199U14009GA1081+001509999GF108991999999999999999999MA1102201999999MW1101MW2711REMMET079LRSB 060500Z 00000MPS 1100 R27/1400 -SN BR OVC005 M02/M02 Q1022 NOSIG 27491594;EQDQ01+000003PRSWM1Q02    003PRSWM1
0405152600999992000010606004+45800+024150SY-MT+0444LRSB V0209999C00001000901CN0005001N1-00281-00281102531ADDAA103000791AJ100199199999999AY171061AY241061ED199U08009GA1081+000909999GF109991091999999999999999IA1239IA2120-00409KA1120N-00301MA1102201096981MD1410001+9999MW1481MW2711REMSYN122AAXX  06061 15260 /1/05 90000 11028 21028 39698 40253 54000 60022 77174 333 21030 3/104 47019 69977 92802 96045 555 60015;MET077LRSB 060600Z 00000MPS 0800 R27/0800 FZFG OVC003 M03/M03 Q1022 NOSIG 27491594;EQDQ01    003PRSWM1
0208152600999992000010607004+45800+024150FM-15+0444LRSB V0201801N001010009019N0008001N1-00301-00301999999ADDED199U10009GA1081+000909999GF108991999999999999999999MA1102301999999MW1481MW2711REMMET081LRSB 060700Z 18001MPS 0800 R27/1000 -SN FZFG OVC003 M03/M03 Q1023 NOSIG 27491594;EQDQ01+000003PRSWM1Q02    003PRSWM1
0266152600999992000010608004+45800+024150SY-MT+0444LRSB V0209999C00001000901CN0005001N1-00301-00301999999ADDAY171999AY241999ED199U10009GA1081+000909999GF109991091999999999999999MA1102301999999MW1711REMSYN058AAXX  06081 15260 41/05 90000 11026 77174 333 95090 96045;MET081LRSB 060800Z 26001MPS 0800 R27/1000 -SN FZFG OVC003 M03/M03 Q1023 NOSIG 27491594;EQDQ01    003PRSWM1
0321152600999992000010609004+45800+024150SY-MT+0444LRSB V0209999C00001000901CN0040001N1-00141-00141102571ADDAA103000391AY171031AY241031ED199U12009GA1081+000909999GF108991081001004501021999MA1102301097041MD1210061+9999MW1711REMSYN088AAXX  06091 15260 21440 80000 11014 21014 39704 40257 52006 77174 8802/ 333 69937 95090;MET081LRSB 060900Z 23001MPS 0800 R27/1200 -SN FZFG OVC003 M03/M03 Q1023 NOSIG 27491594;EQDQ01    003PRSWM1
0229152600999992000010610004+45800+024150FM-15+0444LRSB V0202901N001010009019N0013001N1-00101-00101999999ADDED199U18009GA1071+000909999GA2081+021009999GF108991999999999999999999MA1102201999999MW1101MW2711REMMET086LRSB 061000Z 29001MPS 1300 R27/1800 -SN BR BKN003 OVC070 M01/M01 Q1022 NOSIG 27491594;EQDQ01+000003PRSWM1Q02    003PRSWM1
0209152600999992000010610304+45800+024150FM-15+0444LRSB V0203501N001010012019N0025001N1-00101-00101999999ADDGA1071+001209999GA2081+021009999GF108991999999999999999999MA1102201999999MW1101MW2711REMMET077LRSB 061130Z 35001MPS 2500 -SN BR BKN004 OVC070 M01/M01 Q1022 NOSIG 27491594;EQDQ01+000003PRSWM1Q02    003PRSWM1
0377152600999992000010612004+45800+024150SY-MT+0444LRSB V0209999C00001001201CN0040001N1-00041-00051102551ADDAA103000291AJ100209199999999AY171061AY271061ED199U15009GA1071+001209999GA2081+021009999GF108991081001004501021999IA1239MA1102201097041MD1410001+9999MW1711REMSYN100AAXX  06121 15260 /1440 80000 11004 21005 39704 40255 54000 60021 77177 8802/ 333 47020 69927 95080;MET086LRSB 061200Z 33002MPS 1200 R27/1500 -SN BR BKN004 OVC070 M01/M01 Q1022 NOSIG 27491594;EQDQ01    003PRSWM1
0265152600999992000010613004+45800+024150SY-MT+0444LRSB V0203201N00401000901CN0040001N1-00101-00101999999ADDAY111999GA1071+000909999GA2081+021009999GF108991081001004501021999MA1102301999999MW1711MW2871REMSYN058AAXX  06131 15260 41440 83204 11010 7871/ 8802/ 333 8/090;MET077LRSB 061300Z 31003MPS 1800 -SN BR BKN003 OVC070 M01/M01 Q1023 NOSIG 27590595;EQDQ01    003PRSWM1
0209152600999992000010614004+45800+024150FM-15+0444LRSB V0203001N003010009019N0020001N1-00101-00101999999ADDGA1071+000909999GA2081+021009999GF108991999999999999999999MA1102301999999MW1101MW2711REMMET077LRSB 061400Z 30003MPS 2000 -SN BR BKN003 OVC070 M01/M01 Q1023 NOSIG 27590595;EQDQ01+000003PRSWM1Q02    003PRSWM1
0231152600999992000010614304+45800+024150FM-15+0444LRSB V0203101N002010009019N0008001N1-00201-00201999999ADDED199U15009GA1071+000909999GA2081+021009999GF108991999999999999999999MA1102401999999MW1481MW2711REMMET088LRSB 061530Z 31002MPS 0800 R27/1500 -SN FZFG BKN003 OVC070 M02/M02 Q1024 NOSIG 27590595;EQDQ01+000003PRSWM1Q02    003PRSWM1
0188152600999992000010615004+45800+024150FM-12+0444LRSB V0203201N004010042019N0040001N1-00181-00181102671ADDAA103000591AY171031AY271031GF108991081001004501021999MA1999999097141MD1210101+9999MW1711REMSYN088AAXX  06151 15260 21440 83204 11018 21018 39714 40267 52010 77177 8802/ 333 69957 95090;
0263152600999992000010616004+45800+024150SY-MT+0444LRSB V0209999C00001001201CN0040001N1-00201-00201999999ADDAY171999AY271999GA1071+001209999GA2081+021009999GF108991081001004501021999MA1102511999999MW1711MW2731REMSYN048AAXX  06161 15260 41440 80000 11022 77377 8802/;MET077LRSB 061600Z 29002MPS 2500 -SN BR BKN004 OVC070 M02/M02 Q1025 NOSIG 27491594;EQDQ01    003PRSWM1
0209152600999992000010617004+45800+024150FM-15+0444LRSB V0202701N002010012019N0025001N1-00201-00201999999ADDGA1071+001209999GA2081+021009999GF108991999999999999999999MA1102511999999MW1101MW2711REMMET077LRSB 061700Z 27002MPS 2500 -SN BR BKN004 OVC070 M02/M02 Q1025 NOSIG 27491594;EQDQ01+000003PRSWM1Q02    003PRSWM1
0209152600999992000010618004+45800+024150FM-15+0444LRSB V0203101N002010009019N0025001N1-00301-00301999999ADDGA1071+000909999GA2081+021009999GF108991999999999999999999MA1102511999999MW1101MW2711REMMET077LRSB 061800Z 31002MPS 2500 -SN BR BKN003 OVC070 M03/M03 Q1025 NOSIG 27491594;EQDQ01+000003PRSWM1Q02    003PRSWM1
0199152600999992000010619004+45800+024150FM-15+0444LRSB V0209999C000010030019N0025001N1-00201-00201999999ADDGA1071+003009999GA2081+021009999GF108991999999999999999999MA1102611999999MW1101REMMET073LRSB 061900Z 00000MPS 2500 BR BKN010 OVC070 M02/M02 Q1026 NOSIG 27491594;EQDQ01+000003PRSWM1Q02    003PRSWM1
0080152600999992000010620004+45800+024150FM-12+0444LRSB V0209999C000010042019N0120001N1-00281+99999999999ADDGF108991081001004501021999REMSYN042AAXX  06201 15260 42462 80000 11028 8802/;
0171152600999992000010621004+45800+024150FM-12+0444LRSB V0209999C000019999999N0120001N1-00321-00321102861ADDAY171031AY221031GF108991081001008001071999MA1999999097291MD1210041+9999MW1011REMSYN082AAXX  06211 15260 21562 80000 11032 21032 39729 40286 52004 70172 8807/ 333 55000;
0080152600999992000010622004+45800+024150FM-12+0444LRSB V0209999C000010075019N0120001N1-00341+99999999999ADDGF108991081051008001999999REMSYN042AAXX  06221 15260 42562 80000 11034 885//;
0118152600999992000010623004+45800+024150FM-12+0444LRSB V0209999C000010003019N0005001N1-00421+99999999999ADDAY121999AY221999GA1091+999999999GF109991091999999999999999MW1471REMSYN042AAXX  06231 15260 41/05 90000 11042 74722;
0221152600999992000010700004+45800+024150FM-12+0444LRSB V0209999C000010003019N0005001N1-00741-00741103021ADDAA106004191AJ100229199999999AY171061AY221061GA1091+999999999GF109991091999999999999999IA1239MA1999999097341MD1210051+9999MW1451REMSYN082AAXX  07001 15260 11/05 90000 11074 21074 39734 40302 52005 60041 74572 333 47022;
0118152600999992000010701004+45800+024150FM-12+0444LRSB V0209999C000010001519N0001001N1-00761+99999999999ADDAY141999AY221999GA1091+999999999GF109991091999999999999999MW1471REMSYN042AAXX  07011 15260 41/01 90000 11076 74742;
0247152600999992000010702004+45800+024150SY-MT+0444LRSB V0209999C000010030019N0001001N1-00601-00601999999ADDAY141999AY241999GA1071+003009999GA2081+021009999GF109991091999999999999999MA1102611999999MW1101MW2471REMSYN042AAXX  07021 15260 41/01 90000 11078 74744;MET067LRSB 070200Z 18001MPS 1600 BR BKN010 OVC070 M06/M06 Q1026 27591594;EQDQ01    003PRSWM1
0193152600999992000010702304+45800+024150FM-15+0444LRSB V0200901N001010030019N0020001N1-00501-00501999999ADDGA1071+003009999GA2081+021009999GF108991999999999999999999MA1102711999999MW1101REMMET067LRSB 070330Z 09001MPS 2000 BR BKN010 OVC070 M05/M05 Q1027 27591594;EQDQ01+000003PRSWM1Q02    003PRSWM1
0201152600999992000010703004+45800+024150FM-12+0444LRSB V0209999C000010003019N0003001N1-00781-00781103011ADDAA106000091AY141031AY241031GA1091+999999999GF109991091999999999999999MA1999999097341MD1410001+9999MW1451REMSYN066AAXX  07031 15260 31/03 90000 11078 21078 39734 40301 54000 74544;EQDQ01  00002PRCP06
0247152600999992000010704004+45800+024150SY-MT+0444LRSB V0209999C00001003001CN0005001N1-00501-00501999999ADDAY141999AY241999GA1071+003009999GA2081+021009999GF109991091999999999999999MA1102711999999MW1101MW2451REMSYN042AAXX  07041 15260 41/05 90000 11058 74544;MET067LRSB 070400Z 33001MPS 2000 BR BKN010 OVC070 M05/M05 Q1027 27591594;EQDQ01    003PRSWM1
0193152600999992000010704304+45800+024150FM-15+0444LRSB V0202901N001010045019N0030001N1-00601-00601999999ADDGA1071+004509999GA2081+021009999GF108991999999999999999999MA1102811999999MW1101REMMET067LRSB 070530Z 29001MPS 3000 BR BKN015 OVC070 M06/M06 Q1028 27591594;EQDQ01+000003PRSWM1Q02    003PRSWM1
0118152600999992000010705004+45800+024150FM-12+0444LRSB V0209999C000010006019N0008001N1-00621+99999999999ADDAY141999AY241999GA1091+999999999GF109991091999999999999999MW1451REMSYN042AAXX  07051 15260 41/08 90000 11062 74544;
0394152600999992000010706004+45800+024150SY-MT+0444LRSB V0209999C00001004501CN0120001N1-00551-00551103131ADDAA112000791AJ100229199999999AY141061AY221061GA1071+004509999GA2081+021009999GF108991051051008001071999IA1239IA2120-01309KA1120N-00951MA1102811097491MD1310151+9999MW1101MW2281REMSYN116AAXX  07061 15260 11562 80000 11055 21055 39749 40313 53015 69902 72842 8557/ 333 21095 3/113 47022 92802 555 60039;MET067LRSB 070600Z 00000MPS 3000 BR BKN015 OVC070 M05/M05 Q1028 27591594;EQDQ01    003PRSWM1
0199152600999992000010706304+45800+024150FM-15+0444LRSB V0203301N001010045019N0040001N1-00501-00501999999ADDGA1071+004509999GA2081+021009999GF108991999999999999999999MA1102811999999MW1101REMMET073LRSB 070730Z 33001MPS 4000 BR BKN015 OVC070 M05/M05 Q1028 NOSIG 27491593;EQDQ01+000003PRSWM1Q02    003PRSWM1
0199152600999992000010708004+45800+024150FM-15+0444LRSB V0209999C000010039019N0040001N1-00501-00501999999ADDGA1071+003909999GA2081+021009999GF108991999999999999999999MA1102811999999MW1101REMMET073LRSB 070800Z 00000MPS 4000 BR BKN013 OVC070 M05/M05 Q1028 NOSIG 27491593;EQDQ01+000003PRSWM1Q02    003PRSWM1
0322152600999992000010709004+45800+024150SY-MT+0444LRSB V0209999C00001004201CN0120001N1-00521-00521103271ADDAA106000091GA1071+004209999GA2081+021009999GF108991081051008001999999MA1102911097621MD1210131+9999MW1101REMSYN076AAXX  07091 15260 32562 80000 11052 21052 39762 40327 52013 885// 333 95090;MET073LRSB 070900Z 22001MPS 5000 BR BKN014 OVC070 M05/M05 Q1029 NOSIG 27491593;EQDQ01+000003PRSWM1Q02  00002PRCP06Q03    003PRSWM1
0180152600999992000010710004+45800+024150FM-15+0444LRSB V0201301N001010210019N0060001N1-00301-00401999999ADDGA1021+006009999GA2071+021009999GF107991999999999999999999MA1102911999999MW1001REMMET070LRSB 071000Z 13001MPS 6000 SCT020 BKN070 M03/M04 Q1029 NOSIG 27491593;EQDQ01+000000PRSWM2
0180152600999992000010711004+45800+024150FM-15+0444LRSB V0200901N002012200019N0060001N1-00101-00401999999ADDGA1021+006009999GA2021+021009999GF104991999999999999999999MA1102811999999MW1001REMMET070LRSB 071100Z 09002MPS 6000 SCT020 SCT070 M01/M04 Q1028 NOSIG 27491593;EQDQ01+000000PRSWM2
0332152600999992000010712004+45800+024150SY-MT+0444LRSB V0209999C000012200019N0200001N1+00041-00261103021ADDAA106000091AJ100199199999999GA1021+006009999GA2021+024009999GF103991021021008001061001IA1239MA1102711097501MD1710121+9999MW1001REMSYN082AAXX  07121 15260 32570 30000 10004 21026 39750 40302 57012 82260 333 47019 95090;MET070LRSB 071200Z 24001MPS 6000 SCT020 SCT080 M01/M04 Q1027 NOSIG 27491593;EQDQ01+000000PRSWM2Q02  00002PRCP06
0199152600999992000010713004+45800+024150FM-15+0444LRSB V0203301N002010240019N0040001N1-00201-00401999999ADDGA1021+006009999GA2081+024009999GF108991999999999999999999MA1102811999999MW1101REMMET073LRSB 071300Z 33002MPS 4000 BR SCT020 OVC080 M02/M04 Q1028 NOSIG 27491593;EQDQ01+000003PRSWM1Q02    003PRSWM1
0263152600999992000010714004+45800+024150SY-MT+0444LRSB V0209999C00001024001CN0040001N1-00201-00401999999ADDAY121999AY221999GA1021+006009999GA2081+024009999GF108991081051008001999999MA1102811999999MW1101REMSYN058AAXX  07141 15260 41540 80000 11008 71022 885// 333 95090;MET073LRSB 071400Z 00000MPS 5000 BR SCT020 OVC080 M02/M04 Q1028 NOSIG 27491593;EQDQ01    003PRSWM1
0318152600999992000010715004+45800+024150SY-MT+0444LRSB V0209999C00001006001CN0040001N1-00321-00391103171ADDAA106000091AY121031AY221031GA1071+006009999GF108991081051008001999999MA1102811097561MD1210061+9999MW1101REMSYN082AAXX  07151 15260 31540 80000 11032 21039 39756 40317 52006 71022 885// 333 95090;MET063LRSB 071500Z 27001MPS 6000 BKN020 M05/M05 Q1028 NOSIG 27491593;EQDQ01+000000PRSWM2Q02  00002PRCP06Q03    003PRSWM1
0199152600999992000010715304+45800+024150FM-15+0444LRSB V0209999C000010060019N0040001N1-00401-00501999999ADDGA1071+006009999GA2081+024009999GF108991999999999999999999MA1102811999999MW1101REMMET073LRSB 071630Z 00000MPS 4000 BR BKN020 OVC080 M04/M05 Q1028 NOSIG 27491593;EQDQ01+000003PRSWM1Q02    003PRSWM1
0108152600999992000010716004+45800+024150FM-12+0444LRSB V0209999C000010075019N0040001N1-00421+99999999999ADDAY121011AY221011GF108991081051008001999999MW1101REMSYN048AAXX  07161 15260 41540 80000 11042 71022 885//;
0180152600999992000010716304+45800+024150FM-15+0444LRSB V0201801N001010240019N0060001N1-00401-00501999999ADDGA1021+007809999GA2081+024009999GF108991999999999999999999MA1102811999999MW1001REMMET070LRSB 071730Z 18001MPS 6000 SCT026 OVC080 M04/M05 Q1028 NOSIG 27491593;EQDQ01+000000PRSWM2
0108152600999992000010717004+45800+024150FM-12+0444LRSB V0209999C000010075019N0040001N1-00461+99999999999ADDAY121999AY221999GF108991051051008001071999MW1101REMSYN048AAXX  07171 15260 41540 80000 11046 71022 8557/;
0342152600999992000010718004+45800+024150SY-MT+0444LRSB V0209999C00001024001CN0040001N1-00441-00441103181ADDAA106000091AY121061AY221061GA1021+007809999GA2081+024009999GF108991041051008001071999MA1102811097831MD1410001+9999MW1101REMSYN083AAXX  07181 15260 31540 80000 11044 21044 39783 40318 54000 71022 8457/ 333 1001 0;MET070LRSB 071800Z 19001MPS 6000 SCT026 OVC080 M04/M05 Q1028 NOSIG 27491593;EQDQ01+000000PRSWM2Q02  00002PRCP06Q03    003PRSWM1
0266152600999992000010719004+45800+024150SY-MT+0444LRSB V0209999C00001024001CN0040001N1-00501-00501999999ADDAY121999AY221999GA1021+009009999GA2081+024009999GF108991041051008001071999MA1102911999999MW1101REMSYN048AAXX  07191 15260 41540 80000 11046 71022 8457/;MET070LRSB 071900Z 30001MPS 6000 SCT030 OVC083 M05/M05 Q1029 NOSIG 27491593;EQDQ01+000000PRSWM2Q02    003PRSWM1
0173152600999992000010721004+45800+024150FM-12+0444LRSB V0209999C000010360019N0120001N1-00541-00541103261ADDAA106000091GF108991041051008001071999MA1999999097611MD1210051+9999REMSYN076AAXX  07211 15260 32562 80000 11054 21054 39761 40326 52005 8457/ 333 55028;EQDQ01  00002PRCP06
0080152600999992000010722004+45800+024150FM-12+0444LRSB V0209999C000010360019N0120001N1-00561+99999999999ADDGF108991041051008001071999REMSYN042AAXX  07221 15260 42562 80000 11056 8457/;
0080152600999992000010723004+45800+024150FM-12+0444LRSB V0209999C000010360019N0120001N1-00581+99999999999ADDGF108991041051008001071999REMSYN042AAXX  07231 15260 42562 80000 11058 8457/;
0196152600999992000010800004+45800+024150FM-12+0444LRSB V0209999C000010360019N0120001N1-00541-00541103231ADDAA106000091AJ100189199999999GF108991031051008001071999IA1239MA1999999097581MD1810031+9999REMSYN076AAXX  08001 15260 32562 80000 11054 21054 39758 40323 58003 8357/ 333 47018;EQDQ01  00002PRCP06
0115152600999992000010801004+45800+024150FM-12+0444LRSB V0209999C999990360019N0120001N1+99999+99999999999ADDGF108991031051008001071999REMSYN042AAXX  08011 15260 42562 80081 11155 8357/;EQDQ01+008103WOSPD Q02-001553ATOT  
0080152600999992000010802004+45800+024150FM-12+0444LRSB V0209999C000019999999N0120001N1-00571+99999999999ADDGF108991999051008001071999REMSYN042AAXX  08021 15260 45562 80800 11057 8/57/;
0174152600999992000010802304+45800+024150FM-15+0444LRSB V0202701N003010240019N0112651N1-00501-00501999999ADDGA1021+009009999GA2081+024009999GF108991999999999999999999MA1102911999999MW1001REMMET064LRSB 080330Z 27003MPS 9999 SCT030 OVC083 M05/M05 Q1029 27491593;EQDQ01+000000PRSWM2
0163152600999992000010803004+45800+024150FM-12+0444LRSB V0202501N001010360019N0120001N1-00621-00621103251ADDAA106000091GF108991031051008001071999MA1999999097581MD1410001+9999REMSYN066AAXX  08031 15260 32562 82501 11062 21062 39758 40325 54000 8357/;EQDQ01  00002PRCP06
0180152600999992000010804004+45800+024150FM-15+0444LRSB V0202401N002010240019N0080001N1-00601-00601999999ADDGA1021+009009999GA2081+024009999GF108991999999999999999999MA1102811999999MW1001REMMET070LRSB 080400Z 24002MPS 8000 SCT030 OVC083 M06/M06 Q1028 NOSIG 27491593;EQDQ01+000000PRSWM2
0180152600999992000010804304+45800+024150FM-15+0444LRSB V0201901N001010240019N0080001N1-00601-00601999999ADDGA1021+009009999GA2081+024009999GF108991999999999999999999MA1102811999999MW1001REMMET070LRSB 080530Z 19001MPS 8000 SCT030 OVC083 M06/M06 Q1028 NOSIG 27491593;EQDQ01+000000PRSWM2
0409152600999992000010806004+45800+024150SY-MT+0444LRSB V0209999C00001024001CN0120001N1-00611-00611103161ADDAA106000091AJ100189199999999GA1021+001809999GA2021+009009999GA3081+024009999GF108991041051008001071999IA1239IA2120-00609KA1120N-00651MA1102811097551MD1610031+9999MW1001REMSYN100AAXX  08061 15260 32562 80000 11061 21061 39755 40316 56003 8457/ 333 21065 3/106 47018 92832 95080;MET088LRSB 080600Z 19002MPS 6000 FEW006 SCT030 OVC080 M06/M06 Q1028 BECMG 3000 BR SN 27491593;EQDQ01+000000PRSWM2Q02  00002PRCP06
0379152600999992000010807004+45800+024150SY-MT+0444LRSB V0209999C000010075019N0120001N1-00501-00501103151ADDAA106000091AJ100189199999999GA1021+001509999GA2071+007509999GA3081+024009999GF108991999999999999999999IA1239IA2999-00609KA1120N-00651MA1102811999999MW1101REMSYN076AAXX  08071 15260 32562 /0000 17077 40315 8457/ 333 21065 3/106 47018 92832;MET080LRSB 080700Z 15002MPS 2000 BR SCT005 BKN025 OVC080 M05/M05 Q1028 NOSIG 27491593;EQDQ01+000003PRSWM1Q02  00002PRCP06Q03    003PRSWM1
0222152600999992000010808004+45800+024150FM-15+0444LRSB V0201901N001010075019N0020001N1-00501-00501999999ADDGA1021+001509999GA2071+007509999GA3081+024009999GF108991999999999999999999MA1102911999999MW1101REMMET080LRSB 080800Z 19001MPS 2000 BR SCT005 BKN025 OVC080 M05/M05 Q1029 NOSIG 27491593;EQDQ01+000003PRSWM1Q02    003PRSWM1
0322152600999992000010809004+45800+024150SY-MT+0444LRSB V0209999C00001001501CN0120001N1-00581-00581103311ADDAA106000091GA1071+001509999GA2081+006009999GF108991041051008001071999MA1102911097661MD1310111+9999MW1101REMSYN076AAXX  08091 15260 32562 80000 11058 21058 39766 40331 53011 8457/ 333 95080;MET073LRSB 080900Z 15002MPS 2000 BR BKN005 OVC020 M05/M05 Q1029 NOSIG 27491093;EQDQ01+000003PRSWM1Q02  00002PRCP06Q03    003PRSWM1
0199152600999992000010810004+45800+024150FM-15+0444LRSB V0201501N002010015019N0020001N1-00601-00601999999ADDGA1071+001509999GA2081+006009999GF108991999999999999999999MA1102911999999MW1101REMMET073LRSB 081000Z 15002MPS 2000 BR BKN005 OVC020 M06/M06 Q1029 NOSIG 27491093;EQDQ01+000003PRSWM1Q02    003PRSWM1
0199152600999992000010811004+45800+024150FM-15+0444LRSB V0201501N001010015019N0025001N1-00501-00501999999ADDGA1071+001509999GA2081+006009999GF108991999999999999999999MA1102811999999MW1101REMMET073LRSB 081100Z 15001MPS 2500 BR BKN005 OVC020 M05/M05 Q1028 NOSIG 27491093;EQDQ01+000003PRSWM1Q02    003PRSWM1
0357152600999992000010812004+45800+024150SY-MT+0444LRSB V0209999C00001001501CN0040001N1-00521-00521103241ADDAA106000091AJ100189199999999AY121061AY221061GA1071+001509999GA2081+006009999GF108991081061004501999999IA1239MA1102811097591MD1810071+9999MW1101REMSYN088AAXX  08121 15260 31440 80000 11052 21052 39759 40324 58007 71022 886// 333 47018 95090;MET073LRSB 081200Z 19001MPS 2500 BR BKN005 OVC020 M05/M05 Q1028 NOSIG 27491093;EQDQ01  00002PRCP06Q02    003PRSWM1
0199152600999992000010813004+45800+024150FM-15+0444LRSB V0201501N002010015019N0025001N1-00501-00501999999ADDGA1071+001509999GA2081+006009999GF108991999999999999999999MA1102811999999MW1101REMMET073LRSB 081300Z 15002MPS 2500 BR BKN005 OVC020 M05/M05 Q1028 NOSIG 27491093;EQDQ01+000003PRSWM1Q02    003PRSWM1
0199152600999992000010814004+45800+024150FM-15+0444LRSB V0201001N001010015019N0025001N1-00601-00601999999ADDGA1071+001509999GA2081+006009999GF108991999999999999999999MA1102811999999MW1101REMMET073LRSB 081400Z 10001MPS 2500 BR BKN005 OVC020 M06/M06 Q1028 NOSIG 27491093;EQDQ01+000003PRSWM1Q02    003PRSWM1
0328152600999992000010815004+45800+024150SY-MT+0444LRSB V0209999C00001001501CN0040001N1-00581-00581103211ADDAA106000091AY121031AY221031GA1071+001509999GA2081+006009999GF108991081061004501999999MA1102811097561MD1710031+9999MW1101REMSYN082AAXX  08151 15260 31440 80000 11058 21058 39756 40321 57003 71022 886// 333 95090;MET073LRSB 081500Z 15002MPS 2500 BR BKN005 OVC020 M05/M05 Q1028 NOSIG 27491093;EQDQ01  00002PRCP06Q02    003PRSWM1
0199152600999992000010816004+45800+024150FM-15+0444LRSB V0201601N002010015019N0025001N1-00601-00601999999ADDGA1071+001509999GA2081+006009999GF108991999999999999999999MA1102811999999MW1101REMMET073LRSB 081600Z 16002MPS 2500 BR BKN005 OVC020 M06/M06 Q1028 NOSIG 27491093;EQDQ01+000003PRSWM1Q02    003PRSWM1
0253152600999992000010817004+45800+024150SY-MT+0444LRSB V0209999C00001001501CN0040001N1-00601-00601999999ADDAY121999AY221999GA1071+001509999GA2081+006009999GF108991081061004501999999MA1102811999999MW1101REMSYN048AAXX  08171 15260 41440 80000 11060 71022 886//;MET073LRSB 081700Z 11002MPS 2500 BR BKN005 OVC020 M06/M06 Q1028 NOSIG 27491093;EQDQ01    003PRSWM1
0382152600999992000010818004+45800+024150SY-MT+0444LRSB V0209999C00001001501CN0040001N1-00611-00611103231ADDAA106000091AJ100189199999999AY121061AY221061GA1071+001509999GA2081+021009999GF108991081061004501999999IA1239KA1120M-00521MA1102811097561MD1410001+9999MW1101REMSYN100AAXX  08181 15260 31440 80000 11061 21061 39756 40323 54000 71022 886// 333 11052 3/102 47018 92832;MET073LRSB 081800Z 15002MPS 2500 BR BKN005 OVC070 M06/M06 Q1028 NOSIG 27491093;EQDQ01  00002PRCP06Q02    003PRSWM1
0253152600999992000010819004+45800+024150SY-MT+0444LRSB V0209999C00001001501CN0040001N1-00601-00601999999ADDAY121999AY221999GA1071+001509999GA2081+021009999GF108991081061004501999999MA1102811999999MW1101REMSYN048AAXX  08191 15260 41440 80000 11061 71022 886//;MET073LRSB 081900Z 11001MPS 2500 BR BKN005 OVC070 M06/M06 Q1028 NOSIG 27491093;EQDQ01    003PRSWM1
0108152600999992000010820004+45800+024150FM-12+0444LRSB V0209999C000010042019N0040001N1-00611+99999999999ADDAY121999AY221999GF108991081061004501999999MW1101REMSYN048AAXX  08201 15260 41440 80000 11061 71022 886//;
0201152600999992000010821004+45800+024150FM-12+0444LRSB V0209999C000010042019N0060001N1-00631-00631103231ADDAA106000091AY121031AY221031GF108991081061004501999999MA1999999097561MD1410001+9999MW1101REMSYN082AAXX  08211 15260 31456 80000 11063 21063 39756 40323 54000 71022 886// 333 55000;EQDQ01  00002PRCP06
0108152600999992000010822004+45800+024150FM-12+0444LRSB V0209999C000010042019N0060001N1-00641+99999999999ADDAY121999AY281999GF108991081061004501999999MW1101REMSYN048AAXX  08221 15260 41456 80000 11064 71028 886//;
0224152600999992000010900004+45800+024150FM-12+0444LRSB V0209999C000010042019N0060001N1-00671-00671103171ADDAA106000091AJ100189199999999AY121061AY221061GF108991081061004501999999IA1239MA1999999097501MD1810061+9999MW1101REMSYN082AAXX  09001 15260 31456 80000 11067 21067 39750 40317 58006 71022 886// 333 47018;EQDQ01  00002PRCP06
0312152600999992000010903004+45800+024150SY-MT+0444LRSB V0209999C00001000601CN0040001N1-00711-00711103161ADDAA106000091AY121031AY221031GA1071+000609999GA2081+021009999GF108991081061004501999999MA1102711097481MD1810021+9999MW1101REMSYN072AAXX  09031 15260 31440 80000 11071 21071 39748 40316 58002 71022 886//;MET067LRSB 090300Z 13001MPS 1600 BR BKN002 OVC070 M07/M07 Q1027 27491093;EQDQ01  00002PRCP06Q02    003PRSWM1
0221152600999992000010904004+45800+024150FM-15+0444LRSB V0201301N002010006019N0008001N1-00801-00801999999ADDED199U08009GA1071+000609999GA2081+021009999GF108991999999999999999999MA1102711999999MW1481REMMET084LRSB 090400Z 13002MPS 0800 R27/0800 FZFG BKN002 OVC070 M08/M08 Q1027 NOSIG 27491093;EQDQ01+000003PRSWM1Q02    003PRSWM1
0221152600999992000010905004+45800+024150FM-15+0444LRSB V0201201N001010006019N0008001N1-00801-00801999999ADDED199U08009GA1071+000609999GA2081+021009999GF108991999999999999999999MA1102711999999MW1481REMMET084LRSB 090500Z 12001MPS 0800 R27/0800 FZFG BKN002 OVC070 M08/M08 Q1027 NOSIG 27491093;EQDQ01+000003PRSWM1Q02    003PRSWM1
0197152600999992000010906304+45800+024150FM-15+0444LRSB V0201301N00101000151CN0005001N1-00801-00801999999ADDED199U05009GA1091+000159999GF109991999999000251999999MA1102711999999MW1491REMMET076LRSB 090730Z 13001MPS 0500 R27/0500 FZFG VV002 M08/M08 Q1027 NOSIG 27491093;EQDQ01+000003PRSWM1Q02    003PRSWM1
0243152600999992000010907004+45800+024150FM-12+0444LRSB V0202301N002010003019N0003001N1-00781-00801999999ADDAA106000091AJ100689199999999AY141011AY221011GA1091+999999999GF109991091999999999999999IA1239MD1710061+9999MW1491REMSYN100AAXX  09071 15260 31/03 92302 11078 2108/ 39//4 57006 74942 333 2107/ 3/10/ 47068 92713 92832 95090;EQDQ01  00002PRCP06
0197152600999992000010908004+45800+024150FM-15+0444LRSB V0201301N00201000151CN0005001N1-00801-00801999999ADDED199U05009GA1091+000159999GF109991999999000251999999MA1102811999999MW1491REMMET076LRSB 090800Z 13002MPS 0500 R27/0500 FZFG VV002 M08/M08 Q1028 NOSIG 27491093;EQDQ01+000003PRSWM1Q02    003PRSWM1
0326152600999992000010909004+45800+024150SY-MT+0444LRSB V0209999C00001000151CN0003001N1-00791-00791103171ADDAA106000091AY141031AY241031ED199U09009GA1091+000159999GF109991091999000151999999MA1102811097471MD1110051+9999MW1491REMSYN082AAXX  09091 15260 31/03 90000 11079 21079 39747 40317 51005 74944 333 92712 95090;MET076LRSB 090900Z 17002MPS 0900 R27/0900 FZFG VV002 M08/M08 Q1028 NOSIG 27491093;EQDQ01  00002PRCP06Q02    003PRSWM1
0195152600999992000010910004+45800+024150FM-15+0444LRSB V0200301N00101000151CN0010001N1-00801-00801999999ADDED199U10009GA1091+000159999GF109991999999000251999999MA1102711999999MW1101REMMET074LRSB 091000Z 03001MPS 1000 R27/1000 BR VV002 M08/M08 Q1027 NOSIG 27491093;EQDQ01+000003PRSWM1Q02    003PRSWM1
0195152600999992000010911004+45800+024150FM-15+0444LRSB V0201201N00101000151CN0012001N1-00701-00701999999ADDED199U12009GA1091+000159999GF109991999999000251999999MA1102711999999MW1101REMMET074LRSB 091100Z 12001MPS 1200 R27/1200 BR VV002 M07/M07 Q1027 NOSIG 27491093;EQDQ01+000003PRSWM1Q02    003PRSWM1
0346152600999992000010912004+45800+024150SY-MT+0444LRSB V0200501N00201000601CN0004001N1-00721-00721103061ADDAA106000091AJ100189199999999AY141061AY241061GA1081+000609999GF109991091999999999999999IA1239MA1102711097381MD1810091+9999MW1101MW2431REMSYN094AAXX  09121 15260 31/04 90502 11072 21072 39738 40306 58009 74344 333 47018 92717 93508 95090;MET066LRSB 091200Z 10002MPS 1500 BR OVC002 M08/M08 Q1027 NOSIG 27491093;EQDQ01  00002PRCP06Q02    003PRSWM1
0176152600999992000010912304+45800+024150FM-15+0444LRSB V0201201N001010009019N0018001N1-00801-00801999999ADDGA1081+000909999GF108991999999999999999999MA1102611999999MW1101REMMET066LRSB 091330Z 12001MPS 1800 BR OVC003 M08/M08 Q1026 NOSIG 27491093;EQDQ01+000003PRSWM1Q02    003PRSWM1
0305152600999992000010915004+45800+024150SY-MT+0444LRSB V0209999C00001000601CN0004001N1-00791-00791103071ADDAA106000091AY141031AY241031GA1081+000609999GF109991091999999999999999MA1102611097371MD1610011+9999MW1101MW2451REMSYN076AAXX  09151 15260 31/04 90000 11079 21079 39737 40307 56001 74544 333 95090;MET066LRSB 091500Z 09001MPS 1600 BR OVC002 M08/M08 Q1026 NOSIG 27491093;EQDQ01  00002PRCP06Q02    003PRSWM1
0251152600999992000010916004+45800+024150SY-MT+0444LRSB V0209999C00001000151CN0004001N1-00801-00801999999ADDAY141999AY241999ED199U09009GA1091+000159999GF109991091999000151999999MA1102611999999MW1451MW2491REMSYN042AAXX  09161 15260 41/04 90000 11080 74544;MET076LRSB 091600Z 18002MPS 0900 R27/0900 FZFG VV002 M08/M08 Q1026 NOSIG 27491093;EQDQ01    003PRSWM1
0251152600999992000010917004+45800+024150SY-MT+0444LRSB V0202301N00301000151CN0004001N1-00801-00801999999ADDAY141999AY241999ED199U09009GA1091+000159999GF109991091999000251999999MA1102611999999MW1451MW2491REMSYN042AAXX  09171 15260 41/04 92303 11082 74544;MET076LRSB 091700Z 18002MPS 0900 R27/0900 FZFG VV002 M08/M08 Q1026 NOSIG 27491093;EQDQ01    003PRSWM1
0380152600999992000010918004+45800+024150SY-MT+0444LRSB V0209999C00001000151CN0003001N1-00841-00841103081ADDAA106000091AJ100189199999999AY141061AY241061ED199U04009GA1091+000159999GF109991091999000151999999IA1239KA1120M-00631MA1102711097381MD1110011+9999MW1471MW2491REMSYN094AAXX  09181 15260 31/03 90000 11084 21084 39738 40308 51001 74744 333 11063 3/102 47018 92832;MET076LRSB 091800Z 22001MPS 0400 R27/0400 FZFG VV001 M09/M09 Q1027 NOSIG 27491093;EQDQ01  00002PRCP06Q02    003PRSWM1
0251152600999992000010919004+45800+024150SY-MT+0444LRSB V0209999C00001000151CN0003001N1-00901-00901999999ADDAY141999AY241999ED199U10009GA1091+000159999GF109991091999000151999999MA1102711999999MW1451MW2491REMSYN042AAXX  09191 15260 41/03 90000 11085 74544;MET076LRSB 091900Z 22001MPS 0500 R27/1000 FZFG VV001 M09/M09 Q1027 NOSIG 27491093;EQDQ01    003PRSWM1
0118152600999992000010920004+45800+024150FM-12+0444LRSB V0209999C000010003019N0003001N1-00871+99999999999ADDAY141999AY241999GA1091+999999999GF109991091999999999999999MW1451REMSYN042AAXX  09201 15260 41/03 90000 11087 74544;
0211152600999992000010921004+45800+024150FM-12+0444LRSB V0209999C000010003019N0003001N1-00861-00861103141ADDAA106000091AY141031AY241031GA1091+999999999GF109991091999999999999999MA1999999097441MD1110061+9999MW1451REMSYN076AAXX  09211 15260 31/03 90000 11086 21086 39744 40314 51006 74544 333 55000;EQDQ01  00002PRCP06
0118152600999992000010922004+45800+024150FM-12+0444LRSB V0209999C000010003019N0003001N1-00861+99999999999ADDAY141999AY241999GA1091+999999999GF109991091999999999999999MW1451REMSYN042AAXX  09221 15260 41/03 90000 11086 74544;
0118152600999992000010923004+45800+024150FM-12+0444LRSB V0209999C000010003019N0003001N1-00911+99999999999ADDAY141999AY241999GA1091+999999999GF109991091999999999999999MW1451REMSYN042AAXX  09231 15260 41/03 90000 11091 74544;
0234152600999992000011000004+45800+024150FM-12+0444LRSB V0202001N002010003019N0003001N1-00941-00941103201ADDAA106000091AJ100189199999999AY141061AY241061GA1091+999999999GF109991091999999999999999IA1239MA1999999097481MD1310041+9999MW1451REMSYN076AAXX  10001 15260 31/03 92002 11094 21094 39748 40320 53004 74544 333 47018;EQDQ01  00002PRCP06
0118152600999992000011001004+45800+024150FM-12+0444LRSB V0209999C000010003019N0003001N1-00951+99999999999ADDAY141999AY241999GA1091+999999999GF109991091999999999999999MW1451REMSYN042AAXX  10011 15260 41/03 90000 11095 74544;
0320152600999992000011003004+45800+024150SY-MT+0444LRSB V0209999C00001000151CN0003001N1-00951-00951103321ADDAA106000091AY141031AY241031ED199U02009GA1091+000159999GF109991091999000151999999MA1102811097581MD1110101+9999MW1491REMSYN076AAXX  10031 15260 31/03 90000 11095 21095 39758 40332 51010 74944 333 92710;MET076LRSB 100300Z 19001MPS 0200 R27/0200 FZFG VV000 M10/M10 Q1028 NOSIG 27491093;EQDQ01  00002PRCP06Q02    003PRSWM1
0197152600999992000011004004+45800+024150FM-15+0444LRSB V0202201N002010001519N0002001N1-01001-01001999999ADDED199U02009GA1091+000159999GF109991999999000251999999MA1102811999999MW1491REMMET076LRSB 100400Z 22002MPS 0200 R27/0200 FZFG VV000 M10/M10 Q1028 NOSIG 27491093;EQDQ01+000003PRSWM1Q02    003PRSWM1
0283152600999992000011005004+45800+024150SY-MT+0444LRSB V0202301N00201000151CN0030001N1-01001-01001999999ADDAY141999AY241999GA1091+000159999GF109991091061004501999999MA1102811999999MW1101MW2281REMSYN064AAXX  10051 15260 41430 82302 11102 72844 886// 333 92717 93505;MET065LRSB 100500Z 23001MPS 1800 BR VV005 M10/M10 Q1028 NOSIG 27491093;EQDQ01+000082SCOTCVQ02+000082SCOTLCQ03    003PRSWM1
0399152600999992000011006004+45800+024150SY-MT+0444LRSB V0209999C00001003001CN0030001N1-01001-01001103381ADDAA106000091AJ100189199999999AY141061AY221061GA1081+003009999GF108991081061004501999999IA1239IA2120-00909KA1120N-01041MA1102911097621MD1210041+9999MW1101REMSYN128AAXX  10061 15260 31430 80000 11100 21100 39762 40338 52004 71042 886// 333 21104 3/109 47018 92717 92832 93505 95090 555 10016;MET066LRSB 100600Z 12001MPS 2500 BR OVC010 M10/M10 Q1029 NOSIG 27491093;EQDQ01  00002PRCP06Q02    003PRSWM1
0176152600999992000011007004+45800+024150FM-15+0444LRSB V0200801N002010012019N0030001N1-00801-00801999999ADDGA1081+001209999GF108991999999999999999999MA1102911999999MW1101REMMET066LRSB 100700Z 08002MPS 3000 BR OVC004 M08/M08 Q1029 NOSIG 27751093;EQDQ01+000003PRSWM1Q02    003PRSWM1
0176152600999992000011008004+45800+024150FM-15+0444LRSB V0200801N002010012019N0035001N1-00801-00801999999ADDGA1081+001209999GF108991999999999999999999MA1102911999999MW1101REMMET066LRSB 100800Z 08002MPS 3500 BR OVC004 M08/M08 Q1029 NOSIG 27751093;EQDQ01+000003PRSWM1Q02    003PRSWM1
0311152600999992000011009004+45800+024150SY-MT+0444LRSB V0209999C00001001501CN0030001N1-00721-00721103341ADDAA106000091AY121031AY221031GA1081+001509999GF108991081061004501999999MA1102911097651MD1310031+9999MW1101REMSYN088AAXX  10091 15260 31430 80000 11072 21072 39765 40334 53003 71022 886// 333 92717 95090;MET066LRSB 100900Z 12002MPS 3500 BR OVC005 M07/M07 Q1029 NOSIG 27751093;EQDQ01  00002PRCP06Q02    003PRSWM1
0199152600999992000011010004+45800+024150FM-15+0444LRSB V0201001N002010018019N0035001N1-00601-00601999999ADDGA1071+001809999GA2081+021009999GF108991999999999999999999MA1102911999999MW1101REMMET073LRSB 101000Z 10002MPS 3500 BR BKN006 OVC070 M06/M06 Q1029 NOSIG 27751093;EQDQ01+000003PRSWM1Q02    003PRSWM1
0180152600999992000011011004+45800+024150FM-15+0444LRSB V0200801N003010045019N0080001N1-00501-00501999999ADDGA1071+004509999GA2081+021009999GF108991999999999999999999MA1102911999999MW1001REMMET070LRSB 101100Z 08003MPS 8000 BKN015 OVC070 M05/M05 Q1029 NOSIG 27751093;EQDQ01+000000PRSWM2
0140152600999992000011011004+45800+024150FM-16+0444LRSB V0200801N00301001501CN0080001N1+99999+99999999999ADDGA1081+001509999GA2071+004509999GF108991999999999999999999MW1001REMMET045LRSB 101100Z 08003MPS 8000 BKN015 OVC005,5/9;EQDQ01+000000PRSWM2
0376152600999992000011012004+45800+024150SY-MT+0444LRSB V0209999C00001004501CN0040001N1-00471-00471103281ADDAA106000091AJ100119199999999AY121061AY221061GA1071+004509999GA2081+021009999GF108991081061004501999999IA1239MA1102911097651MD1410001+9999MW1101REMSYN094AAXX  10121 15260 31440 80000 11047 21047 39765 40328 54000 71022 886// 333 47011 93599 95090;MET070LRSB 101200Z 08002MPS 8000 BKN015 OVC070 M05/M05 Q1029 NOSIG 27751093;EQDQ01+000000PRSWM2Q02  00002PRCP06Q03    003PRSWM1
0180152600999992000011013004+45800+024150FM-15+0444LRSB V0201101N001010054019N0080001N1-00501-00501999999ADDGA1071+005409999GA2081+021009999GF108991999999999999999999MA1103011999999MW1001REMMET070LRSB 101300Z 11001MPS 8000 BKN018 OVC070 M05/M05 Q1030 NOSIG 27751093;EQDQ01+000000PRSWM2
0180152600999992000011013304+45800+024150FM-15+0444LRSB V0200801N001010054019N0060001N1-00501-00501999999ADDGA1071+005409999GA2081+021009999GF108991999999999999999999MA1103011999999MW1001REMMET070LRSB 101430Z 08001MPS 6000 BKN018 OVC070 M05/M05 Q1030 NOSIG 27751093;EQDQ01+000000PRSWM2
0341152600999992000011015004+45800+024150SY-MT+0444LRSB V0209999C00001005401CN0040001N1-00411-00411103441ADDAA106000091AY121031AY221031GA1071+005409999GA2081+021009999GF108991081061004501999999MA1103011097801MD1210151+9999MW1101REMSYN082AAXX  10151 15260 31440 80000 11041 21041 39780 40344 52015 71022 886// 333 95090;MET070LRSB 101500Z 33002MPS 6000 BKN018 OVC070 M05/M05 Q1030 NOSIG 27751093;EQDQ01+000000PRSWM2Q02  00002PRCP06Q03    003PRSWM1
0276152600999992000011016004+45800+024150SY-MT+0444LRSB V0209999C00001005401CN0040001N1-00501-00501999999ADDAY121999AY221999GA1071+005409999GA2081+021009999GF108991081061004501999999MA1103011999999MW1101REMSYN058AAXX  10161 15260 41440 80000 11050 71022 886// 333 95090;MET070LRSB 101600Z 33001MPS 6000 BKN018 OVC070 M05/M05 Q1030 NOSIG 27751093;EQDQ01+000000PRSWM2Q02    003PRSWM1
0266152600999992000011017004+45800+024150SY-MT+0444LRSB V0209999C00001005401CN0040001N1-00501-00501999999ADDAY121999AY221999GA1071+005409999GA2081+021009999GF108991081061004501999999MA1103011999999MW1101REMSYN048AAXX  10171 15260 41440 80000 11051 71022 886//;MET070LRSB 101700Z 31001MPS 6000 BKN018 OVC070 M05/M05 Q1030 NOSIG 27751093;EQDQ01+000000PRSWM2Q02    003PRSWM1
0395152600999992000011018004+45800+024150SY-MT+0444LRSB V0209999C00001005401CN0040001N1-00521-00521103501ADDAA106000091AJ100189199999999AY121061AY221061GA1071+005409999GA2081+021009999GF108991081061004501999999IA1239KA1120M-00391MA1103121097841MD1310041+9999MW1101REMSYN100AAXX  10181 15260 31440 80000 11052 21052 39784 40350 53004 71022 886// 333 11039 3/000 47018 92832;MET070LRSB 101800Z 32002MPS 6000 BKN018 OVC070 M05/M05 Q1031 NOSIG 27751093;EQDQ01+000000PRSWM2Q02  00002PRCP06Q03    003PRSWM1
0180152600999992000011018304+45800+024150FM-15+0444LRSB V0203201N003010054019N0060001N1-00601-00601999999ADDGA1071+005409999GA2081+021009999GF108991999999999999999999MA1103181999999MW1001REMMET070LRSB 101930Z 32003MPS 6000 BKN018 OVC070 M06/M06 Q1032 NOSIG 2775109-;EQDQ01+000000PRSWM2
0108152600999992000011019004+45800+024150FM-12+0444LRSB V0209999C000010042019N0040001N1-00551+99999999999ADDAY121999AY221999GF108991081061004501999999MW1101REMSYN048AAXX  10191 15260 41440 80000 11055 71022 886//;
0108152600999992000011020004+45800+024150FM-12+0444LRSB V0209999C000010042019N0040001N1-00571+99999999999ADDAY121021AY221021GF108991081061004501999999MW1101REMSYN048AAXX  10201 15260 41440 80000 11057 71022 886//;
0359152600999992000011021004+45800+024150SY-MT+0444LRSB V0209999C000010042019N0040001N1-00561-00561103651ADDAA106000091AY121031AY221031GF108991081061004501999999KA1999M+02101MA1999999097981MD1210141+9999MW1101REMSYN082AAXX  10211 15260 31440 80000 11056 21056 39798 40365 52014 71022 886// 333 55000;MET107LRSB 102100Z 31002MPS 6000 BKTLUONUP M)9M56 Q103 --4 . 102100Z 08001MPS0 -EN OVC014 M05/M06 Q1033 10890593;EQDQ01+000000PRSWM2Q02  00002PRCP06Q03    003PRSWM1
0217152600999992000011022004+45800+024150SY-MT+0444LRSB V0209999C00001003001CN0040001N1-00601-00601999999ADDAY121999AY221999GA1081+003009999GF108991081061004501999999MW1101MW2711REMSYN048AAXX  10221 15260 41440 80000 11056 71022 886//;MET062LRSB 102200Z 29002MPS 4000 -SN BR OVC010 M06/M06 Q13 27751093;EQDQ01    003PRSWM1
0108152600999992000011023004+45800+024150FM-12+0444LRSB V0209999C000010042019N0040001N1-00551+99999999999ADDAY121999AY221999GF108991081061004501999999MW1101REMSYN048AAXX  10231 15260 41440 80000 11055 71022 886//;
0321152600999992000011100004+45800+024150SY-MT+0444LRSB V0209999C000010030019N0040001N1-00551-00551103741ADDAA106000021AJ100189199999999AY121061AY221061GA1081+003009999GF108991081061004501999999IA1239MA1103391098071MD1210091+9999MW1101REMSYN082AAXX  11001 15260 31440 80000 11055 21055 39807 40374 52009 71022 886// 333 47018;MET059LRSB 110000Z 33002MPS 4800 B OVC010 M06/M06 Q1034 27751093;EQDQ01+000000PRSWM2Q02    003PRSWM1
0108152600999992000011101004+45800+024150FM-12+0444LRSB V0209999C000010042019N0040001N1-00561+99999999999ADDAY121011AY221011GF108991081061004501999999MW1101REMSYN048AAXX  11011 15260 41440 80000 11056 71022 886//;
0108152600999992000011102004+45800+024150FM-12+0444LRSB V0209999C000010042019N0040001N1-00561+99999999999ADDAY121021AY221021GF108991081061004501999999MW1101REMSYN048AAXX  11021 15260 41440 80000 11056 71022 886//;
0283152600999992000011103004+45800+024150SY-MT+0444LRSB V0209999C00001003001CN0040001N1-00561-00561104031ADDAA106000021AY121031AY221031GA1081+003009999GF108991081061004501999999MA1103391098141MD1210071+9999MW1101MW2711REMSYN072AAXX  11031 15260 31440 80000 11056 21056 39814 40403 52007 71022 886//;MET064LRSB 110300Z 31001MPS 4000 -SN BR OVC010 M05/M05 Q1034 27751093;EQDQ01    003PRSWM1
0224152600999992000011104004+45800+024150SY-MT+0444LRSB V0209999C000010030019N0040001N1-00501-00501999999ADDAY121999AY221999GA1081+003009999GF108991081061004501999999MA1103391999999MW1101REMSYN048AAXX  11041 15260 41440 80000 11055 71022 886//;MET060LRSB 110400Z 36001MPS 3000 BR OVC010 M05/M05 Q1034 27751093;EQDQ01    003PRSWM1
0186152600999992000011104304+45800+024150FM-15+0444LRSB V0201101N001010021019N0030001N1-00501-00501999999ADDGA1081+002109999GF108991999999999999999999MA1103491999999MW1101MW2771REMMET070LRSB 110530Z 11001MPS 3000 -SG BR OVC007 M05/M05 Q1035 NOSIG 27751093;EQDQ01+000003PRSWM1Q02    003PRSWM1
0108152600999992000011105004+45800+024150FM-12+0444LRSB V0209999C000010042019N0040001N1-00551+99999999999ADDAY121999AY221999GF108991081061004501999999MW1101REMSYN048AAXX  11051 15260 41440 80000 11055 71022 886//;
0367152600999992000011106004+45800+024150SY-MT+0444LRSB V0209999C00001001201CN0040001N1-00541-00541103881ADDAA106000021AJ100189199999999AY121061AY221061GA1081+001209999GF108991081061004501999999IA1239IA2120-00609KA1120N-00571MA1103491098201MD1310061+9999MW1101REMSYN106AAXX  11061 15260 31440 80000 11054 21054 39820 40388 53006 71022 886// 333 21057 3/106 47018 92832 95090;MET072LRSB 110600Z 15001MPS 2000 BR OVC004 M05/M05 Q1035 TEMPO VV002 27751093;EQDQ01    003PRSWM1
0176152600999992000011107004+45800+024150FM-15+0444LRSB V0201301N001010009019N0020001N1-00501-00501999999ADDGA1081+000909999GF108991999999999999999999MA1103491999999MW1101REMMET066LRSB 110700Z 13001MPS 2000 BR OVC003 M05/M05 Q1035 NOSIG 27751093;EQDQ01+000003PRSWM1Q02    003PRSWM1
0176152600999992000011108004+45800+024150FM-15+0444LRSB V0201301N002010009019N0025001N1-00501-00501999999ADDGA1081+000909999GF108991999999999999999999MA1103591999999MW1101REMMET066LRSB 110800Z 13002MPS 2500 BR OVC003 M05/M05 Q1036 NOSIG 27751093;EQDQ01+000003PRSWM1Q02    003PRSWM1
0312152600999992000011109004+45800+024150SY-MT+0444LRSB V0209999C00001001801CN0040001N1-00481-00481103921ADDAA106000021AY121031AY221031GA1071+001809999GA2081+021009999GF108991081061004501999999MA1103591098251MD1210051+9999MW1101REMSYN082AAXX  11091 15260 31440 80000 11048 21048 39825 40392 52005 71022 886// 333 95080;MET073LRSB 110900Z 10002MPS 3000 BR BKN006 OVC070 M05/M05 Q1036 NOSIG 27751093;EQDQ01    003PRSWM1
0247152600999992000011110004+45800+024150SY-MT+0444LRSB V0209999C000010018019N0040001N1-00501-00501999999ADDAY121999AY221999GA1071+001809999GA2081+021009999GF108991999999004501999999MA1103591999999MW1101REMSYN042AAXX  11101 15260 41440 80000 11040 71022;MET073LRSB 111000Z 14003MPS 3000 BR BKN006 OVC070 M05/M05 Q1036 NOSIG 27751093;EQDQ01    003PRSWM1
0199152600999992000011111004+45800+024150FM-15+0444LRSB V0201401N001010210019N0040001N1-00401-00401999999ADDGA1021+002409999GA2071+021009999GF107991999999999999999999MA1103491999999MW1101REMMET073LRSB 111100Z 14001MPS 4000 BR SCT008 BKN070 M04/M04 Q1035 NOSIG 27751093;EQDQ01+000003PRSWM1Q02    003PRSWM1
0373152600999992000011112004+45800+024150SY-MT+0444LRSB V0209999C000012200019N0040001N1-00201-00451103861ADDAA106000091AJ100189199999999AY121061AY221061GA1021+002709999GA2071+021009999GF199999041051008001001001IA1239MA1103491098241MD1210011+9999MW1101REMSYN088AAXX  11121 15260 31540 40000 11020 21045 39824 40386 52001 71022 84500 333 47018 95080;MET073LRSB 111200Z 33003MPS 4000 BR SCT009 BKN070 M02/M02 Q1035 NOSIG 27751093;EQDQ01+000042SCOTCVQ02  00002PRCP06Q03    003PRSWM1
0199152600999992000011113004+45800+024150FM-15+0444LRSB V0203101N002010210019N0040001N1-00301-00401999999ADDGA1021+006009999GA2071+021009999GF107991999999999999999999MA1103491999999MW1101REMMET073LRSB 111300Z 31002MPS 4000 BR SCT020 BKN070 M03/M04 Q1035 NOSIG 27751093;EQDQ01+000003PRSWM1Q02    003PRSWM1
0199152600999992000011114004+45800+024150FM-15+0444LRSB V0202601N001012200019N0040001N1-00301-00401999999ADDGA1021+006009999GA2021+024009999GF104991999999999999999999MA1103591999999MW1101REMMET073LRSB 111400Z 26001MPS 4000 BR SCT020 SCT080 M03/M04 Q1036 NOSIG 27450195;EQDQ01+000003PRSWM1Q02    003PRSWM1
0328152600999992000011115004+45800+024150SY-MT+0444LRSB V0209999C000012200019N0040001N1-00251-00471103861ADDAA106000091AY101031AY201031GA1021+006009999GA2021+024009999GF104991031051008001071001MA1103491098241MD1410001+9999MW1101REMSYN082AAXX  11151 15260 31540 40000 11025 21047 39824 40386 54000 71000 83570 333 95080;MET073LRSB 111500Z 22001MPS 4000 BR SCT020 SCT080 M03/M04 Q1035 NOSIG 27450195;EQDQ01  00002PRCP06Q02    003PRSWM1
0253152600999992000011116004+45800+024150SY-MT+0444LRSB V0202601N001019999999N0040001N1-00501-00501999999ADDAY121999AY221999GA1021+007809999GA2021+024009999GF106991061001999999071001MA1103491999999MW1101REMSYN048AAXX  11161 15260 42940 6000/ 1/850 71022 86070;MET073LRSB 111600Z 26001MPS 4000 BR SCT026 SCT080 M05/M05 Q1035 NOSIG 27450195;EQDQ01    003PRSWM1
0269152600999992000011117004+45800+024150SY-MT+0444LRSB V0209999C000010240019N0040001N1-00501-00601999999ADDAY121999AY221999GA1021+007809999GA2081+024009999GF199999071001999999071001MA1103591999999MW1101REMSYN048AAXX  11171 15260 41/// 70000 11050 71022 87070;MET073LRSB 111700Z 35001MPS 4000 BR SCT026 OVC080 M05/M06 Q1036 NOSIG 27450195;EQDQ01+000072SCOTCVQ02    003PRSWM1
0376152600999992000011118004+45800+024150SY-MT+0444LRSB V0209999C00001024001CN0040001N1-00501-00501103951ADDAA106000021AJ100189199999999AY121061AY221061GA1021+007809999GA2081+024009999GF108991081001999999071999IA1239KA1120M+00081MA1103591098261MD1210021+9999MW1101MW2711REMSYN100AAXX  11181 15260 31940 80000 11050 21050 39826 40395 52002 71022 8807/ 333 10008 3/003 47018 92832;MET077LRSB 111800Z 23002MPS 3500 -SN BR SCT026 OVC080 M05/M05 Q1036 NOSIG 27450195;EQDQ01    003PRSWM1
0257152600999992000011119004+45800+024150SY-MT+0444LRSB V0202501N00101024001CN0040001N1-00501-00501999999ADDAY171999AY221999GA1021+007809999GA2081+024009999GF108991051051008001071999MA1103591999999MW1711REMSYN048AAXX  11191 15260 41540 80/00 11052 77172 8557/;MET077LRSB 111900Z 25001MPS 3500 -SN BR SCT026 OVC080 M05/M05 Q1036 NOSIG 27450195;EQDQ01    003PRSWM1
0251152600999992000011120004+45800+024150SY-MT+0444LRSB V0209999C00001024001CN0040001N1-00501-00501999999ADDAY171999AY271999GA1021+006909999GA2081+024009999GF108991081051008001999999MA1103591999999MW1711REMSYN048AAXX  11201 15260 41540 80000 11052 77177 885//;MET071LRSB 112000Z 24001MPS 3000 -SN BR SCT023 OVC080 M05/M05 Q1036 27450195;EQDQ01    003PRSWM1
0318152600999992000011121004+45800+024150SY-MT+0444LRSB V0209999C00001024001CN0040001N1-00521-00521103981ADDAA103000191AY171031AY221031GA1021+006909999GA2081+024009999GF108991081051008001999999MA1103591098291MD1110031+9999MW1101MW2711REMSYN088AAXX  11211 15260 21540 80000 11052 21052 39829 40398 51003 77172 885// 333 55038 69917;MET067LRSB 112100Z 24001MPS 3000 BR SCT023 OVC080 M05/M05 Q1036 27450195;EQDQ01    003PRSWM1
0108152600999992000011122004+45800+024150FM-12+0444LRSB V0209999C000010075019N0040001N1-00541+99999999999ADDAY171999AY271999GF108991081051008001999999MW1711REMSYN048AAXX  11221 15260 41540 80000 11054 77177 885//;
0217152600999992000011200004+45800+024150FM-12+0444LRSB V0209999C000010075019N0040001N1-00551-00551103981ADDAA103000191AJ100189199999999AY171061AY271061GF108991081051008001999999IA1239MA1999999098291MD1410001+9999MW1711REMSYN094AAXX  12001 15260 /1540 80000 11055 21055 39829 40398 54000 69921 77177 885// 333 47018 69917;
0086152600999992000011201004+45800+024150FM-12+0444LRSB V0209999C000010075019N0040001N1-00561+99999999999ADDGF108991081051008001999999REMSYN048AAXX  12011 15260 4/540 80000 11056 77177 885//;
0108152600999992000011202004+45800+024150FM-12+0444LRSB V0209999C000010075019N0040001N1-00561+99999999999ADDAY171999AY271999GF108991081051008001999999MW1221REMSYN048AAXX  12021 15260 41540 80000 11056 72277 885//;
0199152600999992000011202304+45800+024150FM-15+0444LRSB V0201801N001010051019N0020001N1-00601-00601999999ADDGA1071+005109999GA2081+021009999GF108991999999999999999999MA1103491999999MW1101REMMET073LRSB 120330Z 18001MPS 2000 BR BKN017 OVC070 M06/M06 Q1035 NOSIG 27450195;EQDQ01+000003PRSWM1Q02    003PRSWM1
0182152600999992000011203004+45800+024150FM-12+0444LRSB V0209999C000010075019N0040001N1-00561-00561103971ADDAA103000791AY171031AY271031GF108991081051008001999999MA1999999098281MD1610011+9999MW1101REMSYN082AAXX  12031 15260 21540 80000 11056 21056 39828 40397 56001 71077 885// 333 69907;
0199152600999992000011204004+45800+024150FM-15+0444LRSB V0209999C000010051019N0020001N1-00601-00601999999ADDGA1071+005109999GA2081+021009999GF108991999999999999999999MA1103491999999MW1101REMMET073LRSB 120400Z 00000MPS 2000 BR BKN017 OVC070 M06/M06 Q1035 NOSIG 27450195;EQDQ01+000003PRSWM1Q02    003PRSWM1
0199152600999992000011204304+45800+024150FM-15+0444LRSB V0203301N001010051019N0020001N1-00601-00601999999ADDGA1071+005109999GA2081+021009999GF108991999999999999999999MA1103491999999MW1101REMMET073LRSB 120530Z 33001MPS 2000 BR BKN017 OVC070 M06/M06 Q1035 NOSIG 27450594;EQDQ01+000003PRSWM1Q02    003PRSWM1
0039152600999992000011205004+45800+024150FM-12+0444LRSB V0209999C000019999999N0040001N1+99999+99999999999REMSYN030AAXX  12051 15260 41540 /0000;
0406152600999992000011206004+45800+024150SY-MT+0444LRSB V0209999C00001003001CN0040001N1-00601-00601104021ADDAA103999929AJ100179199999999AY171061AY221061GA1071+003009999GA2081+021009999GF108991081051008001999999IA1239IA2120-00809KA1120N-00641MA1103591098301MD1310021+9999MW1101MW2221REMSYN122AAXX  12061 15260 /1540 80000 11060 21060 39830 40402 53002 69922 72272 885// 333 21064 3/108 47017 69907 92802 555 60002;MET073LRSB 120600Z 18001MPS 1600 BR BKN010 OVC070 M06/M06 Q1036 NOSIG 27450594;EQDQ01    003PRSWM1
0209152600999992000011207004+45800+024150FM-15+0444LRSB V0201401N001010024019N0016001N1-00501-00501999999ADDGA1071+002409999GA2081+021009999GF108991999999999999999999MA1103591999999MW1101MW2711REMMET077LRSB 120700Z 14001MPS 1600 -SN BR BKN008 OVC070 M05/M05 Q1036 NOSIG 27450594;EQDQ01+000003PRSWM1Q02    003PRSWM1
0199152600999992000011208004+45800+024150FM-15+0444LRSB V0200801N001010018019N0016001N1-00501-00501999999ADDGA1071+001809999GA2081+021009999GF108991999999999999999999MA1103591999999MW1101REMMET073LRSB 120800Z 08001MPS 1600 BR BKN006 OVC070 M05/M05 Q1036 NOSIG 27450594;EQDQ01+000003PRSWM1Q02    003PRSWM1
0312152600999992000011209004+45800+024150SY-MT+0444LRSB V0209999C00001002101CN0040001N1-00481-00481104001ADDAA106000021AY121031AY221031GA1071+002109999GA2081+021009999GF108991081051008001999999MA1103591098331MD1310031+9999MW1101REMSYN082AAXX  12091 15260 31540 80000 11048 21048 39833 40400 53003 71022 885// 333 95090;MET073LRSB 120900Z 12001MPS 2000 BR BKN007 OVC070 M04/M04 Q1036 NOSIG 27450594;EQDQ01    003PRSWM1
0199152600999992000011210004+45800+024150FM-15+0444LRSB V0201301N002010240019N0020001N1-00301-00401999999ADDGA1021+003909999GA2081+024009999GF108991999999999999999999MA1103591999999MW1101REMMET073LRSB 121000Z 13002MPS 2000 BR SCT013 OVC080 M03/M04 Q1036 NOSIG 27450594;EQDQ01+000003PRSWM1Q02    003PRSWM1
0222152600999992000011211004+45800+024150FM-15+0444LRSB V0203201N001010240019N0020001N1-00201-00401999999ADDGA1021+003009999GA2021+008109999GA3081+024009999GF108991999999999999999999MA1103491999999MW1101REMMET080LRSB 121100Z 32001MPS 2000 BR SCT010 SCT027 OVC080 M02/M04 Q1035 NOSIG 27450594;EQDQ01+000003PRSWM1Q02    003PRSWM1
0364152600999992000011212004+45800+024150SY-MT+0444LRSB V0209999C00001024001CN0040001N1-00221-00441103871ADDAA106000021AJ100169199999999AY121061AY221061GA1021+004509999GA2021+008109999GA3081+024009999GF108991081051008001999999IA1239MA1103491098251MD1710081+9999MW1101REMSYN088AAXX  12121 15260 31540 80000 11022 21044 39825 40387 57008 71022 885// 333 47016 95090;MET080LRSB 121200Z 23001MPS 2000 BR SCT015 SCT027 OVC080 M02/M03 Q1035 NOSIG 27450594;EQDQ01    003PRSWM1
0222152600999992000011213004+45800+024150FM-15+0444LRSB V0203401N002010240019N0020001N1-00201-00301999999ADDGA1021+004509999GA2021+008109999GA3081+024009999GF108991999999999999999999MA1103491999999MW1101REMMET080LRSB 121300Z 34002MPS 2000 BR SCT015 SCT027 OVC080 M02/M03 Q1035 NOSIG 27450594;EQDQ01+000003PRSWM1Q02    003PRSWM1
0222152600999992000011214004+45800+024150FM-15+0444LRSB V0203401N001010240019N0020001N1-00301-00401999999ADDGA1021+004509999GA2021+008109999GA3071+024009999GF107991999999999999999999MA1103491999999MW1101REMMET080LRSB 121400Z 34001MPS 2000 BR FEW015 SCT027 BKN080 M03/M04 Q1035 NOSIG 27450594;EQDQ01+000003PRSWM1Q02    003PRSWM1
0328152600999992000011215004+45800+024150SY-MT+0444LRSB V0209999C00001024001CN0040001N1-00321-00421103811ADDAA106000091AY121031AY221031GA1021+007509999GA2071+024009999GF107991071021008001001001MA1103491098171MD1710081+9999MW1101REMSYN082AAXX  12151 15260 31540 70000 11032 21042 39817 40381 57008 71022 87200 333 95090;MET073LRSB 121500Z 00000MPS 2000 BR SCT025 BKN080 M03/M04 Q1035 NOSIG 27450594;EQDQ01  00002PRCP06Q02    003PRSWM1
0199152600999992000011216004+45800+024150FM-15+0444LRSB V0209999C000012200019N0020001N1-00501-00501999999ADDGA1021+007509999GA2021+024009999GF104991999999999999999999MA1103491999999MW1101REMMET073LRSB 121600Z 00000MPS 2000 BR SCT025 SCT080 M05/M05 Q1035 NOSIG 27450594;EQDQ01+000003PRSWM1Q02    003PRSWM1
0198152600999992000011217004+45800+024150FM-15+0444LRSB V0209999C000012200019N0003001N1-00701-00701999999ADDED199U03509GA1021+007509999GF102991999999999999999999MA1103491999999MW1481REMMET077LRSB 121700Z 00000MPS 0300 R27/0350 FZFG FEW025 M07/M07 Q1035 NOSIG 27450594;EQDQ01+000003PRSWM1Q02    003PRSWM1
0397152600999992000011218004+45800+024150SY-MT+0444LRSB V0209999C000012200019N0001001N1-00881-00881103971ADDAA106000091AJ100169199999999AY121061AY211061ED199U00509GA1021+007509999GF199999001001999999001001IA1239KA1120M-00141MA1103491098201MD1310031+9999MW1441MW2481REMSYN094AAXX  12181 15260 31901 00000 11088 21088 39820 40397 53003 74421 333 11014 3/001 47016 92802;MET077LRSB 121800Z 24001MPS 0050 R27/0050 FZFG FEW025 M11/M11 Q1035 NOSIG 27450594;EQDQ01+000002SCOTCVQ02  00002PRCP06Q03    003PRSWM1
0198152600999992000011219004+45800+024150FM-15+0444LRSB V0202401N001012200019N0000501N1-01101-01101999999ADDED199U00509GA1021+007509999GF104991999999999999999999MA1103491999999MW1481REMMET077LRSB 121900Z 24001MPS 0050 R27/0050 FZFG SCT025 M11/M11 Q1035 NOSIG 27450594;EQDQ01+000003PRSWM1Q02    003PRSWM1
0277152600999992000011220004+45800+024150SY-MT+0444LRSB V0209999C000012200019N0001001N1-01101-01101999999ADDAY141999AY241999ED199U00509GA1091+000159999GF199999091001000151001001MA1103491999999MW1441MW2491REMSYN042AAXX  12201 15260 41901 00000 11096 74444;MET070LRSB 122000Z 18000MPS 0050 R27/0050 FZFG VV002 M11/M11 Q1035 27450594;EQDQ01+000002SCOTCVQ02+000002SCOTLCQ03    003PRSWM1
0201152600999992000011221004+45800+024150FM-12+0444LRSB V0209999C000012200019N0001001N1-01121-01121103981ADDAA106000091AY141031AY241031GA1001+999999999GF100991001001999999001001MA1999999098161MD1710041+9999MW1441REMSYN066AAXX  12211 15260 31901 00000 11112 21112 39816 40398 57004 74444;EQDQ01  00002PRCP06
0217152600999992000011223004+45800+024150SY-MT+0444LRSB V0209999C000010001519N0001001N1+99999+99999999999ADDAY141999AY241999GF109991091999999999999999MW1001MW2491REMSYN052AAXX  12231 15260 41/01 90000 11112 74944 333 92717;MET074LRSB02 2300Z 2300  22001MPS 0100 R27/022-<>6>< VV001M11/MQQ1035$ 27450594;EQDQ01+000000PRSWM2
0240152600999992000011300004+45800+024150FM-12+0444LRSB V0209999C000010001519N0001001N1-01161-01161103971ADDAA106000091AJ100169199999999AY141061AY241061GA1091+999999999GF109991091999999999999999IA1239MA1999999098151MD1810011+9999MW1491REMSYN082AAXX  13001 15260 31/01 90000 11116 21116 39815 40397 58001 74944 333 47016 92717;EQDQ01  00002PRCP06
0191152600999992000011301004+45800+024150FM-15+0444LRSB V0202401N00101000151CN0001001N1-01101-01101999999ADDED199U01009GA1091+000159999GF109991999999000251999999MA1103391999999MW1491REMMET070LRSB 130100Z 24001MPS 0100 R27/0100 FZFG VV001 M11/M11,Q1034 27450594;EQDQ01+000003PRSWM1Q02    003PRSWM1
0247152600999992000011302004+45800+024150SY-MT+0444LRSB V0209999C000010001519N0001001N1-01101-01101999999ADDAY141999AY241999ED199U01009GA1091+000159999GF109991091999000151999999KA1999M-00341MW1491REMSYN052AAXX  13021 15260 41/01 90000 11118 74944 333 92717;MET070LRSB 130200Z 24801MPS 0100 R27/0100 FZFG VV001 M11/M11 11034 27450594;EQDQ01    003PRSWM1
0320152600999992000011303004+45800+024150SY-MT+0444LRSB V0209999C000010001519N0001001N1-01241-01241103901ADDAA106000091AY141031AY241031ED199U01009GA1091+000159999GF109991091999000151999999MA1103391098071MD1710081+9999MW1491REMSYN076AAXX  13031 15260 31/01 90000 11124 21124 39807 40390 57008 74944 333 92717;MET076LRSB 130300Z 00000MPS 0100 R27/0100 FZFG VV001 M11/M11 Q1034 NOSIG 27450594;EQDQ01  00002PRCP06Q02    003PRSWM1
0197152600999992000011304004+45800+024150FM-15+0444LRSB V0200901N00101000151CN0002001N1-01201-01201999999ADDED199U02009GA1091+000159999GF109991999999000251999999MA1103291999999MW1491REMMET076LRSB 130400Z 09001MPS 0200 R27/0200 FZFG VV001 M12/M12 Q1033 NOSIG 27450594;EQDQ01+000003PRSWM1Q02    003PRSWM1
0197152600999992000011305004+45800+024150FM-15+0444LRSB V0201101N00101000151CN0002001N1-01001-01001999999ADDED199U02009GA1091+000159999GF109991999999000251999999MA1103291999999MW1491REMMET076LRSB 130500Z 11001MPS 0200 R27/0200 FZFG VV001 M10/M10 Q1033 NOSIG 27450594;EQDQ01+000003PRSWM1Q02    003PRSWM1
0197152600999992000011305304+45800+024150FM-15+0444LRSB V0201501N00101000151CN0002001N1-01001-01001999999ADDED199U02009GA1091+000159999GF109991999999000251999999MA1103291999999MW1491REMMET076LRSB 130630Z 15001MPS 0200 R27/0200 FZFG VV001 M10/M10 Q1033 NOSIG 27450594;EQDQ01+000003PRSWM1Q02    003PRSWM1
0289152600999992000011306004+45800+024150FM-12+0444LRSB V0209999C000010001519N0001001N1-00981-00981103801ADDAA106000091AJ100169199999999AY141061AY241061GA1091+999999999GF109991091999999999999999IA1239IA2120-01809KA1120N-01281MA1999999098021MD1810051+9999MW1491REMSYN106AAXX  13061 15260 31/01 90000 11098 21098 39802 40380 58005 74944 333 21128 3/118 47016 92702 92832 95090;EQDQ01  00002PRCP06
0261152600999992000011307004+45800+024150SY-MT+0444LRSB V0209999C000010001519N0001001N1-01001-01001999999ADDAY141999AY241999ED199U02009GA1091+000159999GF109991091999000151999999MA1103291999999MW1491REMSYN058AAXX  13071 15260 41/01 90000 11102 74944 333 92713 95090;MET076LRSB 130700Z 00000MPS 0200 R27/0200 FZFG VV001 M10/M10 Q1033 NOSIG 27450594;EQDQ01    003PRSWM1
0197152600999992000011308004+45800+024150FM-15+0444LRSB V0209999C00001000151CN0002001N1-01001-01001999999ADDED199U02009GA1091+000159999GF109991999999000251999999MA1103291999999MW1491REMMET076LRSB 130800Z 00000MPS 0200 R27/0200 FZFG VV001 M10/M10 Q1033 NOSIG 27450594;EQDQ01+000003PRSWM1Q02    003PRSWM1
0326152600999992000011309004+45800+024150SY-MT+0444LRSB V0209999C000010001519N0001001N1-01031-01031103851ADDAA106000091AY141031AY241031ED199U04009GA1091+000159999GF109991091999000151999999MA1103291098071MD1310051+9999MW1491REMSYN082AAXX  13091 15260 31/01 90000 11103 21103 39807 40385 53005 74944 333 92712 95090;MET076LRSB 130900Z 00000MPS 0400 R27/0400 FZFG VV001 M10/M10 Q1033 NOSIG 27450594;EQDQ01  00002PRCP06Q02    003PRSWM1
0198152600999992000011309304+45800+024150FM-15+0444LRSB V0202201N002010006019N0005001N1-00901-00901999999ADDED199U05009GA1071+000609999GF107991999999999999999999MA1103121999999MW1481REMMET077LRSB 131030Z 22002MPS 0500 R27/0500 FZFG BKN002 M09/M09 Q1031 NOSIG 27450594;EQDQ01+000003PRSWM1Q02    003PRSWM1
0198152600999992000011311004+45800+024150FM-15+0444LRSB V0202401N001010006019N0005001N1-00901-00901999999ADDED199U05009GA1071+000609999GF107991999999999999999999MA1103121999999MW1481REMMET077LRSB 131100Z 24001MPS 0500 R27/0500 FZFG BKN002 M09/M09 Q1031 NOSIG 27450594;EQDQ01+000003PRSWM1Q02    003PRSWM1
