0188154190999992000010100004+44650+025530FM-12+015999999V0200501N010010075019N0035001N1-00121-00171101851ADDAA103003091AY171061AY271061GF108991061071008001021999MA1999999099841MD1710341+9999MW1711REMSYN088AAXX  01001 15419 /1535 80510 11012 21017 39984 40185 57034 60011 77177 8672/ 333 60037;
0270154190999992000010106004+44650+025530FM-12+015999999V0209999C000010075019N0035001N1-00101-00191102061ADDAA112009991AJ100289199999999AY171061AY271061GF108991081001008001021999IA1239IA2120-00209KA1120N-00141MA1999999100041MD1219999+9999MW1711REMSYN122AAXX  01061 15419 11535 80000 11010 21019 30004 40206 52/16 60102 77177 8802/ 333 21014 3/102 47028 92801 96010 555 60126;
0108154190999992000010107004+44650+025530FM-12+015999999V0209999C000010075019N0035001N1-00101+99999999999ADDAY171011AY271011GF108991081001008001021999MW1711REMSYN048AAXX  01071 15419 41535 80000 11010 77177 8802/;
0108154190999992000010113004+44650+025530FM-12+015999999V0202701N002010075019N0040001N1+00001+99999999999ADDAY121999AY221999GF108991081051008001999999MW1101REMSYN048AAXX  01131 15419 41540 82702 10000 71022 885//;
0108154190999992000010114004+44650+025530FM-12+015999999V0202701N003010075019N0040001N1+00011+99999999999ADDAY121999AY221999GF108991081051008001999999MW1101REMSYN048AAXX  01141 15419 41540 82703 10001 71022 885//;
0191154190999992000010115004+44650+025530FM-12+015999999V0202701N002010075019N0040001N1+00001-00151102311ADDAA106000091AY121031AY221031GF108991081051008001999999MA1999999100291MD1210161+9999MW1101REMSYN072AAXX  01151 15419 31540 82702 10000 21015 30029 40231 52016 71022 885//;EQDQ01  00002PRCP06
0108154190999992000010116004+44650+025530FM-12+015999999V0202701N002010075019N0040001N1-00041+99999999999ADDAY121999AY221999GF108991081051008001999999MW1101REMSYN048AAXX  01161 15419 41540 82702 11004 71022 885//;
0108154190999992000010117004+44650+025530FM-12+015999999V0202701N001010075019N0035001N1-00101+99999999999ADDAY121999AY221999GF106991061051008001001001MW1101REMSYN048AAXX  01171 15419 41535 62701 11010 71022 86500;
0229154190999992000010118004+44650+025530FM-12+015999999V0202701N001010075019N0035001N1-00141-00221102441ADDAA112000191AJ100269199999999AY121061AY221061GF107991071051008001001001IA1279MA1999999100411MD1210121+9999MW1101REMSYN106AAXX  01181 15419 11535 72701 11014 21022 30041 40244 52012 69922 71022 87500 333 1000/ 3/001 43026 92822;
0108154190999992000010119004+44650+025530FM-12+015999999V0202701N001010075019N0035001N1-00181+99999999999ADDAY121999AY221999GF107991071051008001001001MW1101REMSYN048AAXX  01191 15419 41535 72701 11018 71022 87500;
0108154190999992000010120004+44650+025530FM-12+015999999V0209999C000010075019N0010001N1-00281+99999999999ADDAY121999AY221999GF108991081051008001999999MW1101REMSYN048AAXX  01201 15419 41510 80000 11028 71022 885//;
0201154190999992000010121004+44650+025530FM-12+015999999V0209999C000010075019N0010001N1-00261-00321102611ADDAA106000091AY121031AY221031GF108991081051008001999999MA1999999100571MD1210161+9999MW1101REMSYN082AAXX  01211 15419 31510 80000 11026 21032 30057 40261 52016 71022 885// 333 55000;EQDQ01  00002PRCP06
0108154190999992000010122004+44650+025530FM-12+015999999V0209999C000010075019N0010001N1-00341+99999999999ADDAY121999AY221999GF108991081051008001999999MW1101REMSYN048AAXX  01221 15419 41510 80000 11034 71022 885//;
0108154190999992000010123004+44650+025530FM-12+015999999V0209999C000010075019N0030001N1-00461+99999999999ADDAY121999AY221999GF108991081051008001999999MW1101REMSYN048AAXX  01231 15419 41530 80000 11046 71022 885//;
0230154190999992000010200004+44650+025530FM-12+015999999V0209999C000010075019N0030001N1-00481-00551102631ADDAA106000091AJ100269199999999AY121061AY221061GF108991081051008001999999IA1279MA1999999100571MD1410001+9999MW1101REMSYN088AAXX  02001 15419 31530 80000 11048 21055 30057 40263 54000 71022 885// 333 43026 92822;EQDQ01  00002PRCP06
0108154190999992000010201004+44650+025530FM-12+015999999V0209999C000010075019N0030001N1-00541+99999999999ADDAY121011AY221011GF108991081051008001999999MW1101REMSYN048AAXX  02011 15419 41530 80000 11054 71022 885//;
0108154190999992000010202004+44650+025530FM-12+015999999V0209999C000010075019N0030001N1-00581+99999999999ADDAY121999AY221999GF108991081051008001999999MW1101REMSYN048AAXX  02021 15419 41530 80000 11058 71022 885//;
0171154190999992000010203004+44650+025530FM-12+015999999V0209999C000010075019N0030001N1-00521-00591102651ADDAA106000091AY121031AY221031GF108991081051008001999999MA1999999100591MW1101REMSYN066AAXX  02031 15419 31530 80000 11052 21059 30059 40265 71022 885//;EQDQ01  00002PRCP06
0108154190999992000010204004+44650+025530FM-12+015999999V0209999C000010075019N0030001N1-00461+99999999999ADDAY121999AY221999GF108991081051008001999999MW1101REMSYN048AAXX  02041 15419 41530 80000 11046 71022 885//;
0108154190999992000010205004+44650+025530FM-12+015999999V0209999C000010075019N0030001N1-00401+99999999999ADDAY171999AY221999GF108991061071008001021999MW1711REMSYN048AAXX  02051 15419 41530 80000 11040 77172 8672/;
0260154190999992000010206004+44650+025530FM-12+015999999V0209999C000010075019N0030001N1-00381-00451102771ADDAA103000191AJ100269199999999AY171061AY221061GF108991061071008001021999IA1279IA2120-00809KA1120N-00581MA1999999100701MD1210111+9999MW1711REMSYN112AAXX  02061 15419 /1530 80000 11038 21045 30070 40277 52011 69911 77172 8672/ 333 21058 3/108 43026 69917 92822;
0108154190999992000010207004+44650+025530FM-12+015999999V0209999C000019999999N0030001N1-00381+99999999999ADDAY171011AY221011GF108991081001999999071999MW1221REMSYN048AAXX  02071 15419 41930 80000 11038 72272 8807/;
0182154190999992000010209004+44650+025530FM-12+015999999V0209999C000019999999N9999999N1-00121-00241102831ADDAA103000791AY171031AY221031GF107991071001999999071001MA1999999100801MD1210101+9999MW1101REMSYN082AAXX  02091 15419 /1/// 70000 11012 21024 30080 40283 52010 71072 87070 333 69907;
0234154190999992000010212004+44650+025530FM-12+015999999V0209999C000012200019N9999999N1-00551-00551999999ADDAA106000021AJ100379199999999AY141061AY201061GA1001+999999999GF100991001001999999001001IA1279MA1999999101402MD1410001+9999MW1281REMSYN076AAXX  02121 15419 31/// 01000 11055 21055 30140 54000 72840 333 43037 93503;EQDQ01+101403APOSP 
0108154190999992000010213004+44650+025530FM-12+015999999V0202301N001019999999N0060001N1+00071+99999999999ADDAY121011AY221011GF107991071001999999071001MW1101REMSYN048AAXX  02131 15419 41956 72301 10007 71022 87070;
0108154190999992000010214004+44650+025530FM-12+015999999V0202301N001019999999N0060001N1-00081+99999999999ADDAY121999AY221999GF107991071001999999071001MW1101REMSYN048AAXX  02141 15419 41956 72301 11008 71022 87070;
0191154190999992000010215004+44650+025530FM-12+015999999V0202301N002019999999N0040001N1-00261-00421102921ADDAA106000091AY121031AY221031GF107991071001999999071001MA1999999100871MD1310061+9999MW1101REMSYN072AAXX  02151 15419 31940 72302 11026 21042 30087 40292 53006 71022 87070;EQDQ01  00002PRCP06
0108154190999992000010216004+44650+025530FM-12+015999999V0202301N003019999999N0035001N1-00401+99999999999ADDAY121999AY221999GF108991081001999999071999MW1101REMSYN048AAXX  02161 15419 41935 82303 11040 71022 8807/;
0108154190999992000010217004+44650+025530FM-12+015999999V0202301N001010075019N0035001N1-00501+99999999999ADDAY121999AY221999GF108991061051008001071999MW1101REMSYN048AAXX  02171 15419 41535 82301 11050 71022 8657/;
0242154190999992000010218004+44650+025530FM-12+015999999V0209999C000010075019N0035001N1-00541-00611103081ADDAA112000791AJ100219199999999AY121061AY221061GF108991061051008001071999IA1279KA1120M+00211MA1999999101001MD1210131+9999MW1101REMSYN106AAXX  02181 15419 11535 80000 11054 21061 30100 40308 52013 69902 71022 8657/ 333 10021 3/004 43021 92822;
0068154190999992000010219004+44650+025530FM-12+015999999V0209999C000019999999N0002001N1+99999+99999999999ADDGF108991999999008001999999REMSYN030AAXX  02191 15419 41502 80000;
0118154190999992000010220004+44650+025530FM-12+015999999V0209999C000010001519N0000001N1-00621+99999999999ADDAY141999AY241999GA1091+999999999GF109991091999999999999999MW1471REMSYN042AAXX  02201 15419 41/00 90000 11062 74744;
0217154190999992000010221004+44650+025530FM-12+015999999V0209999C000010001519N0000001N1-00741-00741103171ADDAA106000091AY141031AY221031GA1091+999999999GF109991091999999999999999MA1999999101071MD1210071+9999MW1491REMSYN082AAXX  02211 15419 31/00 90000 11074 21074 30107 40317 52007 74942 333 55034 92713;EQDQ01  00002PRCP06
0100154190999992000010222004+44650+025530FM-12+015999999V0209999C000010001519N0000001N1-00681+99999999999ADDGA1091+999999999GF109991091999999999999999REMSYN046AAXX  02221 15419 41/00 90000 11068 333 92712;
0100154190999992000010223004+44650+025530FM-12+015999999V0209999C000010001519N0000001N1-00681+99999999999ADDGA1091+999999999GF109991091999999999999999REMSYN046AAXX  02231 15419 41/00 90000 11068 333 92710;
0231154190999992000010300004+44650+025530FM-12+015999999V0209999C000010001519N0000001N1-00721-00721103131ADDAA106000091AJ100219199999999AY141061AY241061GA1091+999999999GF109991091999999999999999IA1279MD1710041+9999MW1491REMSYN088AAXX  03001 15419 31/00 90000 11072 21072 3/103 40313 57004 74944 333 43021 92713 92822;EQDQ01  00002PRCP06
0100154190999992000010301004+44650+025530FM-12+015999999V0209999C000010001519N0000001N1-00721+99999999999ADDGA1091+999999999GF109991091999999999999999REMSYN046AAXX  03011 15419 41/00 90000 11072 333 92710;
0118154190999992000010302004+44650+025530FM-12+015999999V0209999C000010075019N0003001N1-01001+99999999999ADDAY141999AY241999GF108991081061008001999999MW1421REMSYN058AAXX  03021 15419 41503 80000 11100 74244 886// 333 92713;
0201154190999992000010303004+44650+025530FM-12+015999999V0209999C000010075019N0010001N1-01181-01181103221ADDAA106000091AY141031AY221031GF108991081061008001999999MA1999999101091MD1110061+9999MW1281REMSYN082AAXX  03031 15419 31510 80000 11118 21118 30109 40322 51006 72842 886// 333 92713;EQDQ01  00002PRCP06
0118154190999992000010304004+44650+025530FM-12+015999999V0209999C000010075019N0010001N1-01221+99999999999ADDAY121999AY221999GF108991081061008001999999MW1101REMSYN058AAXX  03041 15419 41510 80000 11122 71022 886// 333 92713;
0100154190999992000010305004+44650+025530FM-12+015999999V0209999C000012200019N0010001N1-01461+99999999999ADDGA1001+999999999GF100991001001999999001001REMSYN046AAXX  03051 15419 41910 00000 11146 333 92713;
0168154190999992000010309004+44650+025530FM-12+015999999V0209999C000012200019N0010001N1+99999+99999999999ADDAA106000091GA1001+999999999GF100991001001999999001001MD1810872+9999REMSYN054AAXX  03091 15419 31910 00000 11084 21899 3//// 58087;EQDQ01+000872APC3  Q02  00002PRCP06
0102154190999992000010316004+44650+025530FM-12+015999999V0202701N003019999999N0030001N1+99999+99999999999ADDAY121999AY221999GF108991081001999999071999MW1101REMSYN042AAXX  03161 15419 41930 82703 71022 8807/;
0080154190999992000010317004+44650+025530FM-12+015999999V0202701N003019999999N0030001N1-00741+99999999999ADDGF108991081001999999071999REMSYN042AAXX  03171 15419 41930 82703 11074 8807/;
0255154190999992000010318004+44650+025530FM-12+015999999V0202701N003019999999N0030001N1-00641-00751102581ADDAA106000091AJ100209199999999AY121061AY211061GF108991081001999999071999IA1279KA1120M-00341MA1999999100501MD1710201+9999MW1101REMSYN100AAXX  03181 15419 31930 82703 11064 21075 30050 40258 57020 71021 8807/ 333 11034 3/102 43020 92840;EQDQ01  00002PRCP06
0101154190999992000010319004+44650+025530FM-12+015999999V02099999999999999999N0030001N1+99999+99999999999ADDAY121011AY221011MW1101REMSYN048AAXX  03191 15419 41530 //301 1052/ 71022 8657/;EQDQ01+005203ATOT  
0108154190999992000010320004+44650+025530FM-12+015999999V0202701N003010075019N0030001N1-00521+99999999999ADDAY121999AY221999GF108991061051008001071999MW1101REMSYN048AAXX  03201 15419 41530 82703 11052 71022 8657/;
0201154190999992000010321004+44650+025530FM-12+015999999V0202701N003010075019N0030001N1-00521-00711102561ADDAA106000091AY121031AY221031GF108991061051008001071999MA1999999100491MD1610011+9999MW1101REMSYN082AAXX  03211 15419 31530 82703 11052 21071 30049 40256 56001 71022 8657/ 333 55065;EQDQ01  00002PRCP06
0108154190999992000010322004+44650+025530FM-12+015999999V0202701N003010075019N0030001N1-00521+99999999999ADDAY121999AY221999GF108991061051008001071999MW1101REMSYN048AAXX  03221 15419 41530 82703 11052 71022 8657/;
0108154190999992000010323004+44650+025530FM-12+015999999V0202801N003019999999N0030001N1-00521+99999999999ADDAY121999AY221999GF108991061999008001999999MW1101REMSYN048AAXX  03231 15419 41530 82803 11052 71022 86///;
0230154190999992000010400004+44650+025530FM-12+015999999V0200901N001019999999N0030001N1-00681-00801102511ADDAA106000091AJ100209199999999AY121061AY221061GF105991051001999999071001IA1279MA1999999100431MD1710061+9999MW1101REMSYN088AAXX  04001 15419 31930 50901 11068 2108/ 30043 40251 57006 71022 85070 333 43020 92840;EQDQ01  00002PRCP06
0108154190999992000010401004+44650+025530FM-12+015999999V0209999C000019999999N0030001N1-00681+99999999999ADDAY121011AY221011GF105991051001999999071001MW1101REMSYN048AAXX  04011 15419 41930 50000 11068 71022 85070;
0118154190999992000010402004+44650+025530FM-12+015999999V0200901N001012200019N0030001N1-00781+99999999999ADDAY111999AY211999GA1001+999999999GF100991001001999999001001MW1101REMSYN042AAXX  04021 15419 41930 00901 11078 71011;
0100154190999992000010404004+44650+025530FM-12+015999999V0200901N001012200019N0010001N1+99999+99999999999ADDGA1001+999999999GF100991001001999999001001REMSYN046AAXX  04041 15419 41910 00901 1/104 333 92611;
0100154190999992000010422004+44650+025530FM-12+015999999V0209999C000012200019N0100001N1-01101+99999999999ADDGA1001+999999999GF100991001001999999001001REMSYN046AAXX  04221 15419 42960 00000 11110 333 92600;
0246154190999992000010423004+44650+025530FM-12+015999999V0209999C000012200019N0035001N1-01101-01191102571ADDAA106000091AJ100179199999999AY101999AY201999GA1001+999999999GF100991001001999999001001IA1279MA1999999100451MD1719999+9999MW1101REMSYN088AAXX  04231 15419 31935 00000 11110 21119 30045 40257 57/09 71000 333 43017 92611 92840;EQDQ01  00002PRCP06
0101154190999992000010500004+44650+025530FM-12+015999999V0201101N001012200019N0000001N1+99999+99999102581ADDGF101991999999999999999999MA1999999100451REMSYN048AAXX  05001 15419 1//00 11101 30045 40258 7101/;
0100154190999992000010501004+44650+025530FM-12+015999999V0209999C000012200019N0035001N1-01181+99999999999ADDGA1001+999999999GF100991001001999999001001REMSYN046AAXX  05011 15419 41935 00000 11118 333 92611;
0094154190999992000010502004+44650+025530FM-12+015999999V0209999C000012200019N0035001N1-01101+99999999999ADDGA1001+999999999GF100991001001999999001001REMSYN040AAXX  05021 15419 41935 00000 11110 333;
0211154190999992000010503004+44650+025530FM-12+015999999V0209999C000012200019N0035001N1-01121-01211102471ADDAA106000091AY101031AY201031GA1001+999999999GF100991001001999999001001MA1999999100351MD1710101+9999MW1101REMSYN076AAXX  05031 15419 31935 00000 11112 21121 30035 40247 57010 71000 333 92611;EQDQ01  00002PRCP06
0100154190999992000010504004+44650+025530FM-12+015999999V0209999C000012200019N0035001N1-01131+99999999999ADDGA1001+999999999GF100991001001999999001001REMSYN046AAXX  05041 15419 41935 00000 11113 333 92611;
0100154190999992000010505004+44650+025530FM-12+015999999V0209999C000012200019N0035001N1-01221+99999999999ADDGA1001+999999999GF100991001001999999001001REMSYN046AAXX  05051 15419 41935 00000 11122 333 92611;
0189154190999992000010514004+44650+025530FM-12+015999999V0202301N999999999999N0100001N1+99999+99999102241ADDAA106000091GF107991061001999999071011MA1999999999999MD1710051+9999REMSYN060AAXX  05141 15419 32960 72383 1064/ 3078/ 40224 57005 86071;EQDQ01+008303WOSPD Q02  00002PRCP06Q03 097803APOSP 
0195154190999992000010515004+44650+025530FM-12+015999999V0202301N003019999999N0100001N1-00441-00641102241ADDAA106000091GF107991061999999999041999MA1999999100182MD1710802+9999REMSYN066AAXX  05151 15419 32960 72303 11044 21064 30018 40224 5708/ 86/4/;EQDQ01+100183APOSP Q02+000802APC3  Q03  00002PRCP06
0080154190999992000010516004+44650+025530FM-12+015999999V0202301N002019999999N0100001N1-00521+99999999999ADDGF107991071001999999071001REMSYN042AAXX  05161 15419 42960 72302 11052 87070;
0080154190999992000010517004+44650+025530FM-12+015999999V0202301N002019999999N0100001N1-00521+99999999999ADDGF105991051001999999071999REMSYN042AAXX  05171 15419 42960 52302 11052 8507/;
0255154190999992000010518004+44650+025530FM-12+015999999V0202301N002019999999N0035001N1-00501-00601102231ADDAA106000091AJ100159199999999AY111061AY211061GF105991051001999999071001IA1239KA1120M-00241MA1999999100171MD1610011+9999MW1101REMSYN100AAXX  05181 15419 31935 52302 11050 21060 30017 40223 56001 71011 85070 333 11024 3/000 47015 92830;EQDQ01  00002PRCP06
0128154190999992000010519004+44650+025530FM-12+015999999V0202301N002012200019N0100001N1-00501+99999999999ADDAY101011AY201011GA1001+999999999GF100991001001999999001001MW1101REMSYN052AAXX  05191 15419 41960 02302 11050 71000 333 92600;
0160154190999992000010521004+44650+025530FM-12+015999999V02099999999999999999N0030001N1-00361-00471999999ADDAA106000091AY121031AY211031GF108991081001999999071999MW1101REMSYN070AAXX  05211 15419 31930 8000/ 11036 21047 71021 8807/ 333 550/6 92400;EQDQ01  00002PRCP06
0118154190999992000010522004+44650+025530FM-12+015999999V0209999C000010075019N0030001N1-00321+99999999999ADDAY121999AY221999GF108991061051008001071999MW1101REMSYN058AAXX  05221 15419 41530 80000 11032 71022 8657/ 333 92#00;
0223154190999992000010600004+44650+025530FM-12+015999999V0209999C000010075019N0020001N1-00281-00381102291ADDAA103999929AJ100159199999999AY171061AY221061GF108991061071008001021999IA1239MA1999999100021MD1110031+9999MW1711REMSYN100AAXX  06001 15419 /1520 80000 11028 21038 30002 40229 51003 69901 77172 8672/ 333 47015 69907 92830;
0086154190999992000010602004+44650+025530FM-12+015999999V0209999C000010360019N0020001N1-00181+99999999999ADDGF108991011071008001071999REMSYN048AAXX  06021 15419 41520 80000 11018 8177/ 8672/;
0108154190999992000010604004+44650+025530FM-12+015999999V02099999999990075019N0020001N1-00141+99999999999ADDAY171999AY221999GF108991061071008001021999MW1731REMSYN048AAXX  06041 15419 41520 8000/ 11014 77372 8672/;
0108154190999992000010605004+44650+025530FM-12+015999999V0209999C000010075019N0020001N1-00101+99999999999ADDAY171999AY271999GF108991061071008001021999MW1731REMSYN048AAXX  06051 15419 41520 80000 11010 77377 8672/;
0080154190999992000010614004+44650+025530FM-12+015999999V0202701N001019999999N0100001N1+00201+99999999999ADDGF108991081001999999071999REMSYN042AAXX  06141 15419 42960 82701 10020 8807/;
0191154190999992000010615004+44650+025530FM-12+015999999V0202701N003019999999N0040001N1+00181+00021102381ADDAA106000091AY121031AY221031GF108991081001999999071999MA1999999100371MD1310021+9999MW1101REMSYN072AAXX  06151 15419 31940 82703 10018 20002 30037 40238 53002 71022 8807/;EQDQ01  00002PRCP06
0108154190999992000010616004+44650+025530FM-12+015999999V0202701N003019999999N0040001N1+00141+99999999999ADDAY121999AY221999GF108991081001999999071999MW1101REMSYN048AAXX  06161 15419 41940 82703 10014 71022 8807/;
0118154190999992000010620004+44650+025530FM-12+015999999V0209999C000010075019N0035001N1-00031+99999999999ADDAY111999AY211999GF108991081061008001999999MW1101REMSYN058AAXX  06201 15419 41535 80000 11003 71011 886// 333 92600;
0201154190999992000010621004+44650+025530FM-12+015999999V0209999C000010075019N0035001N1-00051-00141102601ADDAA106000091AY121031AY211031GF108991081061008001999999MA1999999100571MD1210101+9999MW1101REMSYN082AAXX  06211 15419 31535 80000 11005 21014 30057 40260 52010 71021 886// 333 92600;EQDQ01  00002PRCP06
0118154190999992000010622004+44650+025530FM-12+015999999V0209999C000010075019N0035001N1-00081+99999999999ADDAY121999AY221999GF108991081051008001999999MW1101REMSYN058AAXX  06221 15419 41535 80000 11008 71022 885// 333 92600;
0084154190999992000010623004+44650+025530FM-12+015999999V0209999C000019999999N0100001N1-00141+99999999999ADDGF106991999999999999999999REMSYN046AAXX  06231 15419 42960 60000 11014 333 92600;
0202154190999992000010700004+44650+025530FM-12+015999999V0203201N001012200019N0100001N1-00221-00351102821ADDAA106000091AJ100109199999999GF103991999999999999999999IA1279MA1999999100771MD1210201+9999REMSYN082AAXX  07001 15419 32960 33201 11022 21035 30077 40282 52020 333 43010 92600 92840;EQDQ01  00002PRCP06
0084154190999992000010701004+44650+025530FM-12+015999999V0209999C000019999999N0100001N1-00181+99999999999ADDGF108991999999999999999999REMSYN046AAXX  07011 15419 42960 80000 11018 333 92600;
0084154190999992000010702004+44650+025530FM-12+015999999V0209999C000019999999N0100001N1-00141+99999999999ADDGF108991999999999999999999REMSYN046AAXX  07021 15419 42960 80000 11014 333 92600;
0163154190999992000010703004+44650+025530FM-12+015999999V0209999C000019999999N0100001N1-00141-00361102831ADDAA106000091GF108991081001999999071999MA1999999100791MD1110021+9999REMSYN066AAXX  07031 15419 32960 80000 11014 21036 30079 40283 51002 8807/;EQDQ01  00002PRCP06
0080154190999992000010704004+44650+025530FM-12+015999999V0209999C000019999999N0100001N1-00101+99999999999ADDGF108991081001999999071999REMSYN042AAXX  07041 15419 42960 80000 11010 8807/;
0173154190999992000010715004+44650+025530FM-12+015999999V0202301N002012200019N0100001N1+00081-00311102981ADDAA106000091GA1001+999999999GF100991001001999999001001MA1999999100951MD1610041+9999REMSYN060AAXX  07151 15419 32960 02302 10008 21031 30095 40298 56004;EQDQ01  00002PRCP06
0118154190999992000010716004+44650+025530FM-12+015999999V0202301N001012200019N0035001N1-00241+99999999999ADDAY101999AY201999GA1001+999999999GF100991001001999999001001MW1101REMSYN042AAXX  07161 15419 41935 02301 11024 71000;
0118154190999992000010717004+44650+025530FM-12+015999999V0202301N001012200019N0035001N1-00461+99999999999ADDAY101999AY201999GA1001+999999999GF100991001001999999001001MW1101REMSYN042AAXX  07171 15419 41935 02301 11046 71000;
0271154190999992000010718004+44650+025530FM-12+015999999V0209999C000012200019N0035001N1-00501-00611103111ADDAA106000091AJ100099199999999AY101061AY201061GA1001+999999999GF100991001001999999001001IA1279KA1120M+00351MA1999999101031MD1210081+9999MW1101REMSYN100AAXX  07181 15419 31935 00000 11050 21061 30103 40311 52008 71000 333 10035 3/003 43009 92600 92880;EQDQ01  00002PRCP06
0100154190999992000010719004+44650+025530FM-12+015999999V0209999C000012200019N0035001N1-00621+99999999999ADDGA1001+999999999GF100991001001999999001001REMSYN046AAXX  07191 15419 41935 00000 11062 333 92600;
0217154190999992000010721004+44650+025530FM-12+015999999V0209999C000012200019N0010001N1-00741-00781103131ADDAA106000091AY101031AY201031GA1001+999999999GF100991001001999999001001MA1999999101031MD1410001+9999MW1101REMSYN082AAXX  07211 15419 31910 00000 11074 21078 30103 40313 54000 71000 333 55037 92611;EQDQ01  00002PRCP06
0100154190999992000010722004+44650+025530FM-12+015999999V0209999C000012200019N0010001N1-00821+99999999999ADDGA1001+999999999GF100991001001999999001001REMSYN046AAXX  07221 15419 41910 00000 11082 333 92611;
0100154190999992000010723004+44650+025530FM-12+015999999V0209999C000012200019N0010001N1-00981+99999999999ADDGA1001+999999999GF100991001001999999001001REMSYN046AAXX  07231 15419 41910 00000 11098 333 92611;
0246154190999992000010800004+44650+025530FM-12+015999999V0209999C000012200019N0010001N1-00961-01051103151ADDAA106000091AJ100099199999999AY101061AY201061GA1001+999999999GF100991001001999999001001IA1279MA1999999101031MD1410001+9999MW1101REMSYN088AAXX  08001 15419 31910 00000 11096 21105 30103 40315 54000 71000 333 43009 9261/ 92880;EQDQ01  00002PRCP06
0100154190999992000010801004+44650+025530FM-12+015999999V0209999C000012200019N0030001N1-00861+99999999999ADDGA1001+999999999GF100991001001999999001001REMSYN046AAXX  08011 15419 41930 00000 11086 333 92611;
0112154190999992000010802004+44650+025530FM-12+015999999V0209999C000012200019N0030001N1+99999+99999999999ADDAY101999AY201999GA1001+999999999GF100991001001999999001001MW1101REMSYN036AAXX  08021 15419 41930 00000 71000;
0100154190999992000010817004+44650+025530FM-12+015999999V0209999C000012200019N0002001N1-00841+99999999999ADDGA1001+999999999GF100991001001999999001001REMSYN046AAXX  08171 15419 41902 00000 11084 333 92611;
0271154190999992000010818004+44650+025530FM-12+015999999V0209999C000012200019N0035001N1-00881-00951103151ADDAA106000091AJ100089199999999AY141061AY201061GA1001+999999999GF100991001001999999001001IA1279KA1120M+00221MA1999999101041MD1110041+9999MW1101REMSYN100AAXX  08181 15419 31935 00000 11088 21095 30104 40315 51004 71040 333 10022 3/005 43008 92611 92840;EQDQ01  00002PRCP06
0100154190999992000010819004+44650+025530FM-12+015999999V0209999C000010001519N0000001N1-01101+99999999999ADDGA1091+999999999GF109991091999999999999999REMSYN046AAXX  08191 15419 41/00 90000 11110 333 92713;
0100154190999992000010820004+44650+025530FM-12+015999999V0209999C000012200019N0007001N1-01061+99999999999ADDGA1001+999999999GF100991001001999999001001REMSYN046AAXX  08201 15419 41907 00000 11106 333 92712;
0217154190999992000010821004+44650+025530FM-12+015999999V0209999C000012200019N0002001N1-01101-01191103141ADDAA106000091AY141031AY211031GA1001+999999999GF100991001001999999001001MA1999999101021MD1810021+9999MW1481REMSYN082AAXX  08211 15419 31902 00000 11110 21119 30102 40314 58002 74841 333 55069 92713;EQDQ01  00002PRCP06
0100154190999992000010822004+44650+025530FM-12+015999999V0209999C000010001519N0000001N1-01141+99999999999ADDGA1091+999999999GF109991091999999999999999REMSYN046AAXX  08221 15419 41/00 90000 11114 333 92713;
0100154190999992000010916004+44650+025530FM-12+015999999V0209999C000010001519N0001001N1-00781+99999999999ADDGA1091+999999999GF109991091999999999999999REMSYN046AAXX  09161 15419 41/01 90000 11078 333 92712;
0271154190999992000010918004+44650+025530FM-12+015999999V0209999C000010001519N0001001N1-00801-00861103111ADDAA106000091AJ100089199999999AY141061AY241061GA1091+999999999GF109991091999999999999999IA1279KA1120M-00741MA1999999101011MD1310051+9999MW1451REMSYN100AAXX  09181 15419 31/01 90000 11080 21086 30101 40311 53005 74544 333 11074 3/1/3 43008 92710 92840;EQDQ01  00002PRCP06
0100154190999992000010919004+44650+025530FM-12+015999999V0209999C000010001519N0001001N1-00831+99999999999ADDGA1091+999999999GF109991091999999999999999REMSYN046AAXX  09191 15419 41/01 90000 11083 333 92713;
0100154190999992000010920004+44650+025530FM-12+015999999V0209999C000010001519N0001001N1-00831+99999999999ADDGA1091+999999999GF109991091999999999999999REMSYN046AAXX  09201 15419 41/01 90000 11083 333 92713;
0217154190999992000010921004+44650+025530FM-12+015999999V0209999C000010001519N0001001N1-00841-00901103181ADDAA106000091AY141031AY241031GA1091+999999999GF109991091999999999999999MA1999999101081MD1110071+9999MW1491REMSYN082AAXX  09211 15419 31/01 90000 11084 21090 30108 40318 51007 74944 333 55000 92713;EQDQ01  00002PRCP06
0100154190999992000010922004+44650+025530FM-12+015999999V0209999C000010001519N0001001N1-00901+99999999999ADDGA1091+999999999GF109991091999999999999999REMSYN046AAXX  09221 15419 41/01 90000 11090 333 92713;
0100154190999992000010923004+44650+025530FM-12+015999999V0209999C000010001519N0001001N1-00961+99999999999ADDGA1091+999999999GF109991091999999999999999REMSYN046AAXX  09231 15419 41/01 90000 11096 333 92713;
0230154190999992000011000004+44650+025530FM-12+015999999V0209999C000019999999N0002001N1-01061-01121103201ADDAA106000091AJ100089199999999AY141061AY241061GF108991999999999999999999IA1279MA1999999101081MD1410001+9999MW1431REMSYN088AAXX  10001 15419 31/02 80000 11106 21112 30108 40320 54000 74344 333 43008 92713 92840;EQDQ01  00002PRCP06
0100154190999992000011001004+44650+025530FM-12+015999999V0209999C000010003019N0002001N1-01101+99999999999ADDGA1091+999999999GF109991091999999999999999REMSYN046AAXX  10011 15419 41/02 90000 11110 333 92713;
0100154190999992000011002004+44650+025530FM-12+015999999V0209999C000010003019N0002001N1-01141+99999999999ADDGA1091+999999999GF109991091999999999999999REMSYN046AAXX  10021 15419 41/02 90000 11114 333 92713;
0100154190999992000011005004+44650+025530FM-12+015999999V0209999C000010003019N0002001N1-01061+99999999999ADDGA1091+999999999GF109991091999999999999999REMSYN046AAXX  10051 15419 41/02 90000 11106 333 92712;
0106154190999992000011016004+44650+025530FM-12+015999999V0209999C000019999999N9999999N1-00801+99999999999ADDGA1091+999999999GF109991091999999999999999REMSYN052AAXX  10161 15419 2/02/ 90000 11080 74544 333 92713;
0100154190999992000011017004+44650+025530FM-12+015999999V0209999C000010003019N0002001N1-00861+99999999999ADDGA1091+999999999GF109991091999999999999999REMSYN046AAXX  10171 15419 41/02 90000 11086 333 92713;
0271154190999992000011018004+44650+025530FM-12+015999999V0209999C000010003019N0002001N1-00841-00901103491ADDAA106000091AJ100089199999999AY141061AY241061GA1091+999999999GF109991091999999999999999IA1279KA1120M-00761MA1999999101381MD1210091+9999MW1451REMSYN100AAXX  10181 15419 31/02 90000 11084 21090 30138 40349 52009 74544 333 11076 3/104 43008 92712 92840;EQDQ01  00002PRCP06
0282154190999992000011019004+44650+025530FM-12+015999999V0209999C000010003019N0002001N1-00841-00901103491ADDAA106000091AY141011AY241011GA1091+999999999GF109991091999999999999999IA1279IA2999-00409KA1120M+99999MA1999999101381MD1210091+9999MW1451REMSYN100AAXX  10191 15419 31/02 90000 11084 21090 30138 40349 52009 74544 333 11876 3/104 4300/ 92712 92840;EQDQ01  00002PRCP06Q02 -08762ATMX  
0100154190999992000011020004+44650+025530FM-12+015999999V0209999C000010003019N0002001N1-00861+99999999999ADDGA1091+999999999GF109991091999999999999999REMSYN046AAXX  10201 15419 41/02 90000 11086 333 92710;
0217154190999992000011021004+44650+025530FM-12+015999999V0209999C000010003019N0002001N1-00861-00891103631ADDAA106000091AY141031AY241031GA1091+999999999GF109991091999999999999999MA1999999101521MD1210141+9999MW1451REMSYN082AAXX  10211 15419 31/02 90000 11086 21089 30152 40363 52014 74544 333 55000 92710;EQDQ01  00002PRCP06
0118154190999992000011022004+44650+025530FM-12+015999999V0209999C000010003019N0002001N1-00861+99999999999ADDAY141999AY241999GA1091+999999999GF109991091999999999999999MW1451REMSYN042AAXX  10221 15419 41/02 90000 11086 74544;
0100154190999992000011023004+44650+025530FM-12+015999999V0209999C000010003019N0002001N1-00881+99999999999ADDGA1091+999999999GF109991091999999999999999REMSYN046AAXX  10231 15419 41/02 90000 11088 333 92713;
0246154190999992000011100004+44650+025530FM-12+015999999V0202701N001010003019N0002001N1-00861-00891103661ADDAA106000091AJ100089199999999AY141061AY241061GA1091+999999999GF109991091999999999999999IA1279MA1999999101551MD1110031+9999MW1451REMSYN088AAXX  11001 15419 31/02 92701 11086 21089 30155 40366 51003 74544 333 43008 92712 92840;EQDQ01  00002PRCP06
0100154190999992000011101004+44650+025530FM-12+015999999V0202701N001010003019N0002001N1-00861+99999999999ADDGA1091+999999999GF109991091999999999999999REMSYN046AAXX  11011 15419 41/02 92701 11086 333 92770;
0118154190999992000011102004+44650+025530FM-12+015999999V0202701N003010075019N0007001N1-00881+99999999999ADDAY141999AY241999GF108991081061008001999999MW1421REMSYN058AAXX  11021 15419 41507 82703 11088 74244 886// 333 92713;
0195154190999992000011103004+44650+025530FM-12+015999999V0202701N002010075019N0007001N1-00881+99999103731ADDAA106000091AY141031AY241031GF108991081061008001999999MA1999999101611MD1310061+9999MW1441REMSYN076AAXX  11031 15419 31507 82702 11088 30161 40373 53006 74444 886// 333 92710;EQDQ01  00002PRCP06
0122154190999992000011104004+44650+025530FM-12+015999999V0202701N002010075019N9999999N1-00921+99999999999ADDGF108991081061008001999999KA1999N+99999REMSYN052AAXX  11041 15419 4157/ 82702 11092 886// 333 29271;EQDQ01 +02712ATMN  
0118154190999992000011105004+44650+025530FM-12+015999999V0202701N003010075019N0007001N1-00941+99999999999ADDAY141999AY241999GF108991081061008001999999MW1441REMSYN058AAXX  11051 15419 41507 82703 11094 74444 886// 333 92713;
0273154190999992000011106004+44650+025530FM-12+015999999V0202701N002010075019N0010001N1-00901-00971103851ADDAA106000091AJ100089199999999AY141061AY221061GF108991081061008001999999IA1279IA2120-00909KA1120N-00941MA1999999101731MD1210121+9999MW1281REMSYN106AAXX  11061 15419 31510 82702 11090 21097 30173 40385 52012 72842 886// 333 21094 3/109 43008 92712 92840;EQDQ01  00002PRCP06
0108154190999992000011116004+44650+025530FM-12+015999999V0202301N001010075019N0020001N1-00401+99999999999ADDAY121999AY221999GF108991081051008001999999MW1181REMSYN048AAXX  11161 15419 41520 82301 11040 71822 885//;
0255154190999992000011118004+44650+025530FM-12+015999999V0202301N001010075019N0030001N1-00461-00531103901ADDAA106000091AJ100089199999999AY121061AY221061GF108991081051008001999999IA1279KA1120M-00381MA1999999101821MD1110061+9999MW1101REMSYN100AAXX  11181 15419 31530 82301 11046 21053 30182 40390 51006 71022 885// 333 11038 3/102 43008 9284/;EQDQ01  00002PRCP06
0108154190999992000011119004+44650+025530FM-12+015999999V0202301N001010075019N0030001N1-00461+99999999999ADDAY121011AY221011GF108991081051008001999999MW1101REMSYN048AAXX  11191 15419 41530 82301 11046 71022 885//;
0108154190999992000011120004+44650+025530FM-12+015999999V0202301N001010075019N0030001N1-00441+99999999999ADDAY121999AY221999GF108991081051008001999999MW1101REMSYN048AAXX  11201 15419 41530 82301 11044 71022 885//;
0201154190999992000011121004+44650+025530FM-12+015999999V0202301N001010075019N0030001N1-00461-00531103941ADDAA106000091AY121031AY221031GF108991081051008001999999MA1999999101861MD1110041+9999MW1101REMSYN082AAXX  11211 15419 31530 82301 11046 21053 30186 40394 51004 71022 885// 333 55000;EQDQ01  00002PRCP06
0108154190999992000011122004+44650+025530FM-12+015999999V0209999C000010075019N0035001N1-00441+99999999999ADDAY121999AY281999GF108991081051008001999999MW1101REMSYN048AAXX  11221 15419 41535 80000 11044 71028 885//;
0080154190999992000011202004+44650+025530FM-12+015999999V0209999C000010075019N0100001N1-00441+99999999999ADDGF108991081051008001999999REMSYN042AAXX  12021 15419 42560 80000 11044 885//;
0182154190999992000011203004+44650+025530FM-12+015999999V0202301N003010075019N0100001N1-00421-00491103951ADDAA103000791AY171031AY221031GF108991081051008001999999MA1999999101871MD1610011+9999MW1711REMSYN082AAXX  12031 15419 21560 82303 11042 21049 30187 40395 56001 77172 885// 333 69907;
0191154190999992000011215004+44650+025530FM-12+015999999V0200901N001019999999N0035001N1-00161-00381103931ADDAA106000091AY111031AY211031GF106991061001999999071001MA1999999101871MD1310041+9999MW1101REMSYN072AAXX  12151 15419 31935 60901 11016 21038 30187 40393 53004 71011 86070;EQDQ01  00002PRCP06
0255154190999992000011218004+44650+025530FM-12+015999999V0209999C000019999999N0010001N1-00241-00371104001ADDAA106000091AJ100069199999999AY121061AY211061GF108991081001999999071999IA1279KA1120M-00011MA1999999101921MD1210051+9999MW1101REMSYN100AAXX  12181 15419 31910 80000 11024 21037 30192 40400 52005 71021 8807/ 333 11001 3/002 43006 92840;EQDQ01  00002PRCP06
0108154190999992000011219004+44650+025530FM-12+015999999V0209999C000010075019N0010001N1-00201+99999999999ADDAY121999AY221999GF108991081051008001999999MW1101REMSYN048AAXX  12191 15419 41510 80000 11020 71022 885//;
0160154190999992000011221004+44650+025530FM-12+015999999V0209999C000019999999N0010001N1-00181-00301104001ADDAA106000021GF108991999999008001999999MA1999999101921MD1410001+9999MW1851REMSYN076AAXX  12211 15419 31510 80000 11018 21030 30192 40400 54000 785// 333 55038;
0108154190999992000011302004+44650+025530FM-12+015999999V0209999C000010075019N0010001N1-00301+99999999999ADDAY121999AY221999GF108991081051008001999999MW1101REMSYN048AAXX  13021 15419 41510 80000 11030 71022 885//;
0108154190999992000011307004+44650+025530FM-12+015999999V0209999C000010075019N0010001N1-00141+99999999999ADDAY121999AY221999GF108991081051008001999999MW1101REMSYN048AAXX  13071 15419 41510 80000 11014 71022 885//;
0121154190999992000011315004+44650+025530FM-12+015999999V0200501N001012200019N0100001N1+00801-00361999999ADDGF102991999999999999999999MA1999999101551MD1710131+9999REMSYN054AAXX  13151 15419 //960 20501 1008/ 21036 30155 57013;
0121154190999992000011316004+44650+025530FM-12+015999999V0200501N001012200019N0100001N1-00442+99999999999ADDGA1001+999999999GF100991001001999999001001REMSYN048AAXX  13161 15419 42960 00501 11044 33/// 92600;EQDQ01-000443ATOT  
0230154190999992000011318004+44650+025530FM-12+015999999V0200501N001012200019N0100001N1-00581-00651103691ADDAA112000791AJ100069199999999GA1001+999999999GF100991001001999999001001IA1279KA1120M+00061MA1999999101601MD1110051+9999REMSYN100AAXX  13181 15419 12960 00501 11058 21065 30160 40369 51005 69902 333 10006 3/002 43006 92600 92840;
0100154190999992000011319004+44650+025530FM-12+015999999V02099999999992200019N9999999N1-00661+99999999999ADDGA1001+999999999GF100991001001999999001001REMSYN046AAXX  13191 15419 429// 0//00 11066 333 92622;
0104154190999992000011320004+44650+025530FM-12+015999999V0200501N002010001519N0000001N1-00691+99999999999ADDGA1091+999999999GF109991091999999999999999REMSYN050    AAXX  13201 15419 41/00 90502 11069 333 92713;
0104154190999992000011401004+44650+025530FM-12+015999999V0202701N001012200019N0030001N1-01101+99999999999ADDGA1001+999999999GF100991001001999999001001REMSYN050    AAXX  14011 15419 41930 02701 11110 333 92713;
0104154190999992000011402004+44650+025530FM-12+015999999V0209999C000012200019N0030001N1-01101+99999999999ADDGA1001+999999999GF100991001001999999001001REMSYN050    AAXX  14021 15419 41930 00000 11110 333 92710;
0195154190999992000011415004+44650+025530FM-12+015999999V0202301N001012200019N0060001N1-00221-00521103431ADDAA199000091AY101031AY201031GF102991001001999999001011MA1999999101371MD1710041+9999MW1101REMSYN076    AAXX  14151 15419 31956 22301 11022 21052 30137 40343 57004 71000 80001;EQDQ01  00002PRCP99
0122154190999992000011416004+44650+025530FM-12+015999999V0202301N001012200019N0040001N1-00501+99999999999ADDAY101999AY201999GA1001+999999999GF100991001001999999001001MW1101REMSYN046    AAXX  14161 15419 41940 02301 11050 71000;
0104154190999992000011417004+44650+025530FM-12+015999999V0209999C000012200019N0035001N1-00681+99999999999ADDGA1001+999999999GF100991001001999999001001REMSYN050    AAXX  14171 15419 41935 00000 11068 333 92600;
0104154190999992000011419004+44650+025530FM-12+015999999V0209999C000012200019N0020001N1-00941+99999999999ADDGA1001+999999999GF100991001001999999001001REMSYN050    AAXX  14191 15419 41920 00000 11094 333 92611;
0104154190999992000011423004+44650+025530FM-12+015999999V0202301N002012200019N0030001N1-01501+99999999999ADDGA1001+999999999GF100991001001999999001001REMSYN050    AAXX  14231 15419 41930 02302 1115/ 333 92611;
0250154190999992000011500004+44650+025530FM-12+015999999V0202301N001012200019N0030001N1-01381-01431103501ADDAA199000091AJ100069199999999AY101061AY201061GA1001+999999999GF100991001001999999001001IA1279MA1999999101341MD1410001+9999MW1101REMSYN092    AAXX  15001 15419 31930 02301 11138 21143 30134 40350 54000 71000 333 43006 92611 92870;EQDQ01  00002PRCP99
0106154190999992000011501004+44650+025530FM-12+015999999V0202301N001012200019N0030001N1-01451+99999999999ADDGA1001+999999999GF100991001001999999001001REMSYN052    AAXX  15011 15419 41930 02301 11145 333// 92611;
0104154190999992000011502004+44650+025530FM-12+015999999V0209999C000012200019N0030001N1-01481+99999999999ADDGA1001+999999999GF100991001001999999001001REMSYN050    AAXX  15021 15419 41930 00000 11148 333 92611;
0215154190999992000011503004+44650+025530FM-12+015999999V0202301N002012200019N0030001N1-01521-01581103501ADDAA199000091AY101031AY201031GA1001+999999999GF100991001001999999001001MA1999999101341MD1410001+9999MW1101REMSYN080    AAXX  15031 15419 31930 02302 11152 21158 30134 40350 54000 71000 333 92611;EQDQ01  00002PRCP99
0110154190999992000011504004+44650+025530FM-12+015999999V0202301N001012200019N9999999N1-01561+99999999999ADDGA1001+999999999GF100991001001999999001001REMSYN056    AAXX  15041 15419 1//// 02301 11156 71000 333 92611;
0104154190999992000011505004+44650+025530FM-12+015999999V0202301N001012200019N0030001N1-01541+99999999999ADDGA1001+999999999GF100991001001999999001001REMSYN050    AAXX  15051 15419 41930 02301 11154 333 92611;
0112154190999992000011515004+44650+025530FM-12+015999999V0202301N001019999999N0010001N1-00601+99999999999ADDAY121031AY221031GF108991081001999999071999MW1101REMSYN052    AAXX  15151 15419 41910 82301 11060 71022 8807/;
0112154190999992000011516004+44650+025530FM-12+015999999V0202301N003010075019N0010001N1-00621+99999999999ADDAY121999AY221999GF108991081061008001999999MW1101REMSYN052    AAXX  15161 15419 41510 82303 11062 71022 886//;
0265154190999992000011518004+44650+025530FM-12+015999999V0202301N003010075019N0010001N1-00621-00661102941ADDAA199000091AJ100069199999999AY121061AY221061GF108991081061008001999999IA1279KA1120M-00581MA1999999100861MD1610151+9999MW1101REMSYN110    AAXX  15181 15419 31510 82303 11062 21066 30086 40294 56015 71022 886// 333 11058 3/103 43006 92600 92840;EQDQ01  00002PRCP99
0122154190999992000011519004+44650+025530FM-12+015999999V0202701N005010075019N0010001N1-00701+99999999999ADDAY121999AY221999GF108991081061008001999999MW1101REMSYN062    AAXX  15191 15419 41510 82705 11070 71022 886// 333 92600;
0122154190999992000011522004+44650+025530FM-12+015999999V0202701N001010042019N0002001N1-00761+99999999999ADDAY141999AY241999GF108991081061004501999999MW1481REMSYN062    AAXX  15221 15419 41402 82701 11076 74844 886// 333 92713;
0088154190999992000011523004+44650+025530FM-12+015999999V0203201N001019999999N0002001N1-00761+99999999999ADDGF108991999999999999999999REMSYN050    AAXX  15231 15419 41/02 83201 11076 333 92710;
0250154190999992000011600004+44650+025530FM-12+015999999V02099999999990003019N0002001N1-00761-00801102891ADDAA199000091AJ100069199999999AY141061AY221061GA1091+999999999GF109991091999999999999999IA1279MA1999999100801MD1010001+9999MW1491REMSYN092    AAXX  16001 15419 31/02 900/0 11076 21080 30080 40289 50000 74942 333 43006 92710 92840;EQDQ01  00002PRCP99
0104154190999992000011602004+44650+025530FM-12+015999999V0203201N001010003019N0002001N1-00901+99999999999ADDGA1091+999999999GF109991091999999999999999REMSYN050    AAXX  16021 15419 41/02 93201 11090 333 92713;
0174154190999992000011603004+44650+025530FM-12+015999999V0203201N007010003019N0002001N1-00921-00951999999ADDAA199000091AY141031AY241031GA1091+999999999GF109991091999999999999999MW1491REMSYN068    AAXX  16031 15419 31/02 93207 11092 21095 5//02 74944 333 92713;EQDQ01  00002PRCP99
0104154190999992000011604004+44650+025530FM-12+015999999V0202701N001010003019N0002001N1-00921+99999999999ADDGA1091+999999999GF109991091999999999999999REMSYN050    AAXX  16041 15419 41/02 92701 11092 333 92710;
0122154190999992000011605004+44650+025530FM-12+015999999V0202701N001010042019N0007001N1-00861+99999999999ADDAY141999AY241999GF108991081061004501999999MW1421REMSYN062    AAXX  16051 15419 41407 82701 11086 74244 886// 333 92712;
0259154190999992000011618004+44650+025530FM-12+015999999V0209999C000010075019N0010001N1-00441-00471102831ADDAA199000091AJ100069199999999AY121061AY221061GF108991081061008001999999IA1279KA1120M-00441MA1999999100751MD1810041+9999MW1101REMSYN104    AAXX  16181 15419 31510 80000 11044 21047 30075 40283 58004 71022 886// 333 11044 3/101 43006 92840;EQDQ01  00002PRCP99
0112154190999992000011619004+44650+025530FM-12+015999999V0209999C000010075019N0030001N1-00481+99999999999ADDAY121011AY221011GF108991081051008001999999MW1101REMSYN052    AAXX  16191 15419 41530 80000 11048 71022 885//;
0112154190999992000011620004+44650+025530FM-12+015999999V0209999C000010075019N0030001N1-00481+99999999999ADDAY121999AY221999GF108991081051008001999999MW1101REMSYN052    AAXX  16201 15419 41530 80000 11048 71022 885//;
0205154190999992000011621004+44650+025530FM-12+015999999V0209999C000010075019N0030001N1-00481-00551102801ADDAA199000091AY121031AY221031GF108991081051008001999999MA1999999100721MD1610031+9999MW1101REMSYN086    AAXX  16211 15419 31530 80000 11048 21055 30072 40280 56003 71022 885// 333 55000;EQDQ01  00002PRCP99
0112154190999992000011622004+44650+025530FM-12+015999999V0209999C000010075019N0030001N1-00481+99999999999ADDAY121999AY221999GF108991081051008001999999MW1101REMSYN052    AAXX  16221 15419 41530 80000 11048 71022 885//;
0112154190999992000011623004+44650+025530FM-12+015999999V0209999C000010075019N0030001N1-00481+99999999999ADDAY121999AY221999GF108991081051008001999999MW1101REMSYN052    AAXX  16231 15419 41530 80000 11048 71022 885//;
0234154190999992000011700004+44650+025530FM-12+015999999V0209999C000010075019N0030001N1-00481-00551102681ADDAA199000091AJ100069199999999AY121061AY221061GF108991081051008001999999IA1279MA1999999100621MD1710101+9999MW1101REMSYN092    AAXX  17001 15419 31530 80000 11048 21055 30062 40268 57010 71022 885// 333 43006 92840;EQDQ01  00002PRCP99
0112154190999992000011701004+44650+025530FM-12+015999999V0209999C000010075019N0030001N1-00481+99999999999ADDAY121999AY221999GF108991081051008001999999MW1101REMSYN052    AAXX  17011 15419 41530 80000 11048 71022 885//;
0112154190999992000011702004+44650+025530FM-12+015999999V0209999C000010075019N0030001N1-00481+99999999999ADDAY121999AY221999GF108991081051008001999999MW1101REMSYN052    AAXX  17021 15419 41530 80000 11048 71022 885//;
0165154190999992000011703004+44650+025530FM-12+015999999V0209999C000010075019N0030001N1-00481-00551102391ADDAY171031AY221031GF108991081051008001999999MA1999999100331MD1710291+9999MW1711REMSYN076    AAXX  17031 15419 21530 80000 11048 21055 30033 40239 57029 77172 885//;
0112154190999992000011704004+44650+025530FM-12+015999999V0209999C000010075019N0030001N1-00481+99999999999ADDAY171999AY271999GF108991081001008001021999MW1711REMSYN052    AAXX  17041 15419 41530 80000 11048 77177 8802/;
0112154190999992000011705004+44650+025530FM-12+015999999V0209999C000010075019N0030001N1-00481+99999999999ADDAY171999AY271999GF108991081001008001021999MW1711REMSYN052    AAXX  17051 15419 41530 80000 11048 77177 8802/;
0237154190999992000011718004+44650+025530FM-12+015999999V0202701N007019999999N0100001N1-00201-00501100361ADDAA112000191AJ100069199999999GF108991081001999999071999IA1279KA1120M-00161MA1999999098361MD1710502+9999REMSYN104    AAXX  17181 15419 12960 82707 11020 21050 39836 40036 57050 69912 8807/ 333 11016 3/002 43006 92840;EQDQ01+000502APC3  
0084154190999992000011719004+44650+025530FM-12+015999999V0202701N006019999999N9999999N1-00241+99999999999ADDGF108991081001999999071999REMSYN046    AAXX  17191 15419 429/0 82706 11024 8807/;
0084154190999992000011722004+44650+025530FM-12+015999999V0202701N006012200019N0100001N1-00301+99999999999ADDGF103991031001999999071001REMSYN046    AAXX  17221 15419 42960 32706 11030 83070;
0094154190999992000011723004+44650+025530FM-12+015999999V0202701N006012200019N0100001N1-00331+99999999999ADDGA1001+999999999GF100991001001999999001001REMSYN040    AAXX  17231 15419 42960 02706 11033;
0206154190999992000011800004+44650+025530FM-12+015999999V0202701N004019999999N0100001N1-00341-00551099581ADDAA199000091AJ100069199999999GF106991061001999999071001IA1279MA1999999097591MD1710351+9999REMSYN086    AAXX  18001 15419 32960 62704 11034 21055 39759 49958 57035 86070 333 43006 92840;EQDQ01  00002PRCP99
0084154190999992000011801004+44650+025530FM-12+015999999V0202701N003019999999N0100001N1-00341+99999999999ADDGF108991081001999999071999REMSYN046    AAXX  18011 15419 42960 82703 11034 8807/;
0084154190999992000011802004+44650+025530FM-12+015999999V0202701N004019999999N0100001N1-00381+99999999999ADDGF107991071001999999071001REMSYN046    AAXX  18021 15419 42960 72704 11038 87070;
0167154190999992000011803004+44650+025530FM-12+015999999V0202701N005019999999N0100001N1-00301-00501099261ADDAA199000091GF108991081001999999071999MA1999999097271MD1710321+9999REMSYN070    AAXX  18031 15419 32960 82705 11030 21050 39727 49926 57032 8807/;EQDQ01  00002PRCP99
0084154190999992000011804004+44650+025530FM-12+015999999V0202701N005019999999N0100001N1-00221+99999999999ADDGF108991081001999999071999REMSYN046    AAXX  18041 15419 42960 82705 11022 8807/;
0231154190999992000011818004+44650+025530FM-12+015999999V0209999C000019999999N0100001N1-00281-00711099551ADDAA199000091AJ100069199999999GF105991051001999999071001IA1279KA1120M+00441MA1999999097571MD1310121+9999REMSYN098    AAXX  18181 15419 32960 50000 11028 21071 39757 49955 53012 85070 333 10044 3/004 43006 92870;EQDQ01  00002PRCP99
0084154190999992000011819004+44650+025530FM-12+015999999V0209999C000019999999N0100001N1-00251+99999999999ADDGF107991031001999999071011REMSYN046    AAXX  18191 15419 42960 70000 11025 83071;
0084154190999992000011820004+44650+025530FM-12+015999999V0209999C000019999999N0100001N1-00301+99999999999ADDGF107991031001999999071081REMSYN046    AAXX  18201 15419 42960 70000 11030 83078;
0177154190999992000011821004+44650+025530FM-12+015999999V0209999C000019999999N0100001N1-00401-00611099821ADDAA199000091GF108991081001999999071999MA1999999097811MD1210241+9999REMSYN080    AAXX  18211 15419 32960 80000 11040 21061 39781 49982 52024 8807/ 333 55073;EQDQ01  00002PRCP99
0084154190999992000011822004+44650+025530FM-12+015999999V0209999C000019999999N0100001N1-00341+99999999999ADDGF108991081001999999071999REMSYN046    AAXX  18221 15419 42960 80000 11034 8807/;
0167154190999992000011903004+44650+025530FM-12+015999999V0203201N004012200019N0100001N1-00301-00541100141ADDAA199000091GF104991041001999999071001MA1999999098141MD1310111+9999REMSYN070    AAXX  19031 15419 32960 43204 11030 21054 39814 40014 53011 84070;EQDQ01  00002PRCP99
0084154190999992000011904004+44650+025530FM-12+015999999V0203201N002019999999N0100001N1-00201+99999999999ADDGF106991061001999999071001REMSYN046    AAXX  19041 15419 42960 63202 11020 86070;
0094154190999992000011905004+44650+025530FM-12+015999999V0202701N002012200019N0100001N1-00501+99999999999ADDGA1001+999999999GF100991001001999999001001REMSYN040    AAXX  19051 15419 42960 02702 11050;
0167154190999992000011915004+44650+025530FM-12+015999999V0203201N001010360019N0100001N1+99999+99999100651ADDAA199000091GF106991041031008001041001MA1999999098681MD1210151+9999REMSYN070    AAXX  19151 15419 32560 63201 10824 21039 39868 40065 52015 84340;EQDQ01  00002PRCP99
0080154190999992000011916004+44650+025530FM-12+015999999V0209999C000010360019N0100001N1+00141+99999999999ADDGF106991031031008001061001REMSYN042AAXX  19161 15419 42560 60000 10014 83360;
0227154190999992000011918004+44650+025530FM-12+015999999V0203201N001019999999N0100001N1-00081-00431101071ADDAA199000091AJ100049199999999GF106991061001999999071001IA1279KA1120M+00321MA1999999099071MD1210391+9999REMSYN094AAXX  19181 15419 32960 63201 11008 21043 39907 40107 52039 86070 333 10032 3/004 43004 92850;EQDQ01  00002PRCP99
0157154190999992000011921004+44650+025530FM-12+015999999V0203201N005019999999N0100001N1-00181-00551101241ADDAA199000091GF105991999999999999999999MA1999999099231MD1510381+9999REMSYN060AAXX  19211 15419 32960 53205 11018 21055 39923 40124 55038;EQDQ01  00002PRCP99
0080154190999992000012005004+44650+025530FM-12+015999999V0203201N001019999999N0100001N1-00631+99999999999ADDGF106991061001999999071001REMSYN042AAXX  20051 15419 42960 63201 11063 86070;
0090154190999992000012017004+44650+025530FM-12+015999999V0202301N001012200019N0100001N1-00261+99999999999ADDGA1001+999999999GF100991001001999999001001REMSYN036AAXX  20171 15419 42960 02301 11026;
0211154190999992000012018004+44650+025530FM-12+015999999V0202301N003012200019N9999999N1-01362+99999102081ADDAA199000091GA1001+999999999GF100991001001999999001001MA1999999100041MD1210061+9999REMSYN082AAXX  20181 15419 329/0 02303 11136 21085 30004 40208 52006 333 1006/ 3/003 00440;EQDQ01-001363ATOT  Q02  00002PRCP99
0084154190999992000012104004+44650+025530FM-12+015999999V0202701N009012200019N0100001N1-00401+99999999999ADDGF104991999999999999999999REMSYN046AAXX  21041 15419 42960 42709 11040 333 92600;
0245154190999992000012106004+44650+025530FM-12+015999999V0202701N007019999999N0100001N1-00361-00531101821ADDAA199000091AJ100049199999999GF107991071001999999071001IA1279IA2120-01309KA1120N-00681MA1999999098991MD1710421+9999REMSYN100AAXX  21061 15419 32960 72707 11036 21053 39899 40182 57042 87070 333 21068 3/113 43004 92600 92840;EQDQ01  00002PRCP99
0084154190999992000012116004+44650+025530FM-12+015999999V0202501N010019999999N0100001N1+00161+99999999999ADDGF108991999999008001999999REMSYN046AAXX  21161 15419 42560 82510 10016 333 91114;
0084154190999992000012117004+44650+025530FM-12+015999999V0202701N010019999999N0100001N1+00161+99999999999ADDGF107991999999008001999999REMSYN046AAXX  21171 15419 42560 72710 10016 333 91114;
0080154190999992000012202004+44650+025530FM-12+015999999V0209999C000019999999N0100001N1-00631+99999999999ADDGF107991071001999999071001REMSYN042AAXX  22021 15419 42960 70000 11063 87070;
0084154190999992000012204004+44650+025530FM-12+015999999V0200501N001012200019N0100001N1-00601+99999999999ADDGF101991999999999999999999REMSYN046AAXX  22041 15419 42960 10501 11060 333 92600;
0085154190999992000012207004+44650+025530FM-12+015999999V0203201N006019999999N0100001N1+99999+99999999999ADDAA102999999GF107991999999999999999999REMSYN036AAXX  22071 15419 41/60 73206 64/76;
0163154190999992000012215004+44650+025530FM-12+015999999V0202701N003019999999N0100001N1-00281-00931101511ADDAA199000091GF106991001001999999001061MA1999999099871MD1119999+9999REMSYN066AAXX  22151 15419 32960 62703 11028 21093 39987 40151 51/01 80006;EQDQ01  00002PRCP99
0074154190999992000012216004+44650+025530FM-12+015999999V02099999999992200019N0100001N1-00441+99999999999ADDGF103991999999999999999999REMSYN036AAXX  22161 15419 42960 327/2 11044;
0080154190999992000012217004+44650+025530FM-12+015999999V0202701N002012200019N0100001N1-00661+99999999999ADDGF101991011001999999041001REMSYN042AAXX  22171 15419 42960 12702 11066 81040;
0227154190999992000012218004+44650+025530FM-12+015999999V0202701N001012200019N0100001N1-00801-01011102091ADDAA199000091AJ100029199999999GF101991011001999999041001IA1239KA1120M-00031MA1999999099921MD1210051+9999REMSYN094AAXX  22181 15419 32960 12701 11080 21101 39992 40209 52005 81040 333 11003 3/001 47002 92800;EQDQ01  00002PRCP99
0080154190999992000012219004+44650+025530FM-12+015999999V0209999C000012200019N0100001N1+99999+99999999999ADDGF102991001001999999001011REMSYN042AAXX  22191 15419 42960 20000 110/4 80001;
0080154190999992000012220004+44650+025530FM-12+015999999V0209999C000012200019N0100001N1-01001+99999999999ADDGF102991001001999999001011REMSYN042AAXX  22201 15419 42960 20000 11100 80001;
0173154190999992000012221004+44650+025530FM-12+015999999V0209999C000012200019N0100001N1-01041-01121102061ADDAA199000091GF103991001001999999001011MA1999999099971MD1210051+9999REMSYN076AAXX  22211 15419 32960 30000 11104 21112 39997 40206 52005 80001 333 55078;EQDQ01  00002PRCP99
0084154190999992000012222004+44650+025530FM-12+015999999V0202701N001012200019N0100001N1-01141+99999999999ADDGF103991999999999999999999REMSYN046AAXX  22221 15419 42960 32701 11114 333 92600;
0103154190999992000012223004+44650+025530FM-12+015999999V0202701N002012200019N0100001N1-00801+99999999999ADDGF103991001001999999001011REMSYN046AAXX  22231 15419 42960 32702 1108/ 88001 333;EQDQ01+000082SCOTLC
0169154190999992000012300004+44650+025530FM-12+015999999V0202701N003012200019N0100001N1-01241-01291102081ADDAA199000091GF103991001001999999001011MA1999999099971MD1410001+9999REMSYN072AAXX  23001 15419 32960 32703 11124 21129 39997 40208 54000 80001 92610;EQDQ01  00002PRCP99
0084154190999992000012301004+44650+025530FM-12+015999999V0202701N002019999999N0100001N1-01161+99999999999ADDGF107991999999999999999999REMSYN046AAXX  23011 15419 42960 72702 11116 333 92610;
0084154190999992000012302004+44650+025530FM-12+015999999V0202701N002019999999N0100001N1-01241+99999999999ADDGF107991999999999999999999REMSYN046AAXX  23021 15419 42960 72702 11124 333 92610;
0173154190999992000012303004+44650+025530FM-12+015999999V0202701N003019999999N0100001N1-01241-01291102031ADDAA199000091GF107991001001999999001081MA1999999099921MD1810051+9999REMSYN076AAXX  23031 15419 32960 72703 11124 21129 39992 40203 58005 80008 333 92610;EQDQ01  00002PRCP99
0254154190999992000012318004+44650+025530FM-12+015999999V0200501N007010075019N0003001N1-00581+99999101181ADDAA103002091AJ100159199999999AY171061AY241061GF108991081001008001021999IA1239KA1120M-00401MA1999999099131MD1710221+9999MW1711REMSYN118AAXX  23181 15419 /1503 80507 11058 210/2 39913 40118 57022 60022 77174 8802/ 333 11040 3/101 47015 60027 92800 96044;
0118154190999992000012319004+44650+025530FM-12+015999999V0200501N007010075019N0003001N1-00541+99999999999ADDAY171999AY241999GF108991081001008001021999MW1711REMSYN058AAXX  23191 15419 41503 80507 11054 77174 8802/ 333 96044;
0108154190999992000012320004+44650+025530FM-12+015999999V0200501N007010075019N0030001N1-00481+99999999999ADDAY171021AY221021GF108991081001008001021999MW1221REMSYN048AAXX  23201 15419 41530 80507 11048 72272 8802/;
0188154190999992000012321004+44650+025530FM-12+015999999V0200501N007010075019N0030001N1-00481-00551100991ADDAA103001091AY171031AY221031GF108991061071008001021999MA1999999098951MD1710181+9999MW1711REMSYN088AAXX  23211 15419 21530 80507 11048 21055 39895 40099 57018 77172 8672/ 333 55000 60017;
0118154190999992000012323004+44650+025530FM-12+015999999V0200501N007010075019N0003001N1-00441+99999999999ADDAY171999AY241999GF108991061071008001021999MW1731REMSYN058AAXX  23231 15419 41503 80507 11044 77374 8672/ 333 96046;
0229154190999992000012400004+44650+025530FM-12+015999999V0200501N007010075019N0003001N1-00361-00391100781ADDAA103002091AJ100199199999999AY171061AY241061GF108991061071008001021999IA1249MA1999999098761MD1710191+9999MW1711REMSYN106AAXX  24001 15419 /1503 80507 11036 21039 39876 40078 57019 60031 77174 8672/ 333 48019 60027 92800 96044;
0118154190999992000012401004+44650+025530FM-12+015999999V0200501N007010075019N0003001N1-00361+99999999999ADDAY171999AY241999GF108991061071008001021999MW1711REMSYN058AAXX  24011 15419 41503 80507 11036 77174 8672/ 333 96044;
0118154190999992000012402004+44650+025530FM-12+015999999V0200501N007010075019N0003001N1-00361+99999999999ADDAY171999AY241999GF108991061071008001021999MW1711REMSYN058AAXX  24021 15419 41503 80507 11036 77174 8672/ 333 96044;
0092154190999992000012407004+44650+025530FM-12+015999999V0202301N003010075019N0010001N1-00281+99999999999ADDGF108991081001008001021999MW1171REMSYN048AAXX  24071 15419 41510 82303 11028 717// 8802/;
0203154190999992000012412004+44650+025530FM-12+015999999V0202301N002019999999N0010001N1-00281-00341100731ADDAA103002091AJ100269199999999AY171061AY241061GF108991081001999999021999IA1239MA1999999098731MW1711REMSYN094AAXX  24121 15419 /1910 82302 11028 21034 39873 40073 60041 77174 8802/ 333 47026 60027 92800;
0182154190999992000012415004+44650+025530FM-12+015999999V0209999C000019999999N0010001N1-00281-00411100921ADDAA103000391AY171031AY221031GF108991081001999999071999MA1999999098901MD1310171+9999MW1101REMSYN082AAXX  24151 15419 21910 80000 11028 21041 39890 40092 53017 71072 8807/ 333 69937;
0102154190999992000012416004+44650+025530FM-12+015999999V0202301N001019999999N0010001N1-00341+99999999999ADDAY121999AY221999GF108991999999999999999999MW1101REMSYN042AAXX  24161 15419 41910 82301 11034 71022;
0108154190999992000012417004+44650+025530FM-12+015999999V0202301N001010075019N0010001N1-00421+99999999999ADDAY121999AY221999GF108991081051008001999999MW1101REMSYN048AAXX  24171 15419 41510 82301 11042 71022 885//;
0242154190999992000012418004+44650+025530FM-12+015999999V0209999C000010075019N0030001N1-00441-00511101161ADDAA112004191AJ100269199999999AY171061AY221061GF108991081051008001999999IA1239KA1120M-00241MA1999999099121MD1210221+9999MW1101REMSYN106AAXX  24181 15419 11530 80000 11044 21051 39912 40116 52022 60042 71072 885// 333 11024 3/000 47026 92800;
0108154190999992000012419004+44650+025530FM-12+015999999V0200501N003010075019N0030001N1-00441+99999999999ADDAY121999AY221999GF108991081051008001999999MW1101REMSYN048AAXX  24191 15419 41530 80503 11044 71022 885//;
0108154190999992000012420004+44650+025530FM-12+015999999V0200501N003010075019N0030001N1-00441+99999999999ADDAY121999AY221999GF108991081051008001999999MW1101REMSYN048AAXX  24201 15419 41530 80503 11044 71022 885//;
0166154190999992000012421004+44650+025530FM-12+015999999V0200501N003010075019N0030001N1-00541-00611101301ADDAA199000021GF108991081051008001999999MA1999999099381MD1210261+9999MW1101REMSYN082AAXX  24211 15419 31530 80503 11054 21061 39938 4013/ 52026 710/2 885// 333 55000;
0108154190999992000012422004+44650+025530FM-12+015999999V0200501N005010075019N0030001N1-00581+99999999999ADDAY171999AY221999GF108991081051008001999999MW1711REMSYN048AAXX  24221 15419 41530 80505 11058 77172 885//;
0108154190999992000012423004+44650+025530FM-12+015999999V0200501N003010075019N0010001N1-00621+99999999999ADDAY171999AY271999GF108991081051008001999999MW1711REMSYN048AAXX  24231 15419 41510 80503 11062 77177 885//;
0223154190999992000012500004+44650+025530FM-12+015999999V0209999C000010075019N0010001N1-00641-00721101741ADDAA103000691AJ100269199999999AY171061AY221061GF108991081001008001021999IA1239MA1999999099671MD1210291+9999MW1711REMSYN100AAXX  25001 15419 /1510 80000 11064 21072 39967 40174 52029 69961 77172 8802/ 333 47026 69967 92800;
0108154190999992000012501004+44650+025530FM-12+015999999V0209999C000010075019N0010001N1-00641+99999999999ADDAY171999AY271999GF108991081001008001021999MW1711REMSYN048AAXX  25011 15419 41510 80000 11064 77177 8802/;
0108154190999992000012502004+44650+025530FM-12+015999999V0209999C000010075019N0010001N1-00561+99999999999ADDAY171999AY271999GF108991081001008001021999MW1711REMSYN048AAXX  25021 15419 41510 80000 11056 77177 8802/;
0182154190999992000012503004+44650+025530FM-12+015999999V0209999C000010075019N0010001N1-00701-00781101921ADDAA103000591AY171031AY271031GF108991081001008001021999MA1999999099851MD1210181+9999MW1711REMSYN082AAXX  25031 15419 21510 80000 11070 21078 39985 40192 52018 77177 8802/ 333 69967;
0108154190999992000012504004+44650+025530FM-12+015999999V0209999C000010075019N0010001N1-00701+99999999999ADDAY171999AY271999GF108991081001008001021999MW1711REMSYN048AAXX  25041 15419 41510 80000 11070 77177 8802/;
0108154190999992000012505004+44650+025530FM-12+015999999V0209999C000010075019N0030001N1-00801+99999999999ADDAY171999AY271999GF108991081001008001021999MW1711REMSYN048AAXX  25051 15419 41530 80000 11080 77177 8802/;
0080154190999992000012517004+44650+025530FM-12+015999999V0209999C000019999999N0100001N1-01021+99999999999ADDGF108991081001999999071999REMSYN042AAXX  25171 15419 42960 80000 11102 8807/;
0080154190999992000012614004+44650+025530FM-12+015999999V0202301N002019999999N0100001N1-00721+99999999999ADDGF106991011001999999041061REMSYN042AAXX  26141 15419 4/960 62302 11072 81046;
0163154190999992000012615004+44650+025530FM-12+015999999V0202301N003012200019N0100001N1-00721+99999102691ADDAA199000091GF104991021001999999041011MA1999999100411MD1610041+9999REMSYN066AAXX  26151 15419 32960 42303 11072 2/120 30041 40269 56004 82041;EQDQ01  00002PRCP99
0080154190999992000012616004+44650+025530FM-12+015999999V0202301N002019999999N0100001N1-00901+99999999999ADDGF107991071001999999071001REMSYN042AAXX  26161 15419 42960 72302 11090 87070;
0080154190999992000012617004+44650+025530FM-12+015999999V0202301N002019999999N0100001N1-00861+99999999999ADDGF107991071001999999071001REMSYN042AAXX  26171 15419 42960 72302 11086 87070;
0227154190999992000012618004+44650+025530FM-12+015999999V0202301N002019999999N0100001N1-00941-01191102711ADDAA199000091AJ100289199999999GF107991071001999999071001IA1239KA1120M-00661MA1999999100421MD1310011+9999REMSYN094AAXX  26181 15419 32960 72302 11094 21119 30042 40271 53001 87070 333 11066 3/001 47028 92800;EQDQ01  00002PRCP99
0080154190999992000012619004+44650+025530FM-12+015999999V0202301N002019999999N0100001N1-00881+99999999999ADDGF107991071001999999071001REMSYN042AAXX  26191 15419 42960 72302 11088 87070;
0080154190999992000012620004+44650+025530FM-12+015999999V0202301N001019999999N0100001N1-00801+99999999999ADDGF108991081001999999071999REMSYN042AAXX  26201 15419 42960 82301 11080 8807/;
0090154190999992000012622004+44650+025530FM-12+015999999V0209999C000012200019N0100001N1-00941+99999999999ADDGA1001+999999999GF100991001001999999001001REMSYN036AAXX  26221 15419 42960 00000 11094;
0080154190999992000012701004+44650+025530FM-12+015999999V0209999C000019999999N0100001N1-01061+99999999999ADDGF106991041001999999071011REMSYN042AAXX  27011 15419 42960 60000 11106 84071;
0163154190999992000012703004+44650+025530FM-12+015999999V0209999C000012200019N0100001N1-01301-01461102641ADDAA199000091GF102991011001999999041011MA1999999100511MD1110031+9999REMSYN066AAXX  27031 15419 32960 20000 11130 21146 30051 40264 51003 81041;EQDQ01  00002PRCP99
0080154190999992000012704004+44650+025530FM-12+015999999V02099999999992200019N0100001N1-01281+99999999999ADDGF104991021001999999041011REMSYN042AAXX  27041 15419 42960 4/100 11128 82041;
0080154190999992000012708004+44650+025530FM-12+015999999V0202301N003019999999N0100001N1-00781+99999999999ADDGF107991071001999999071001REMSYN042AAXX  27081 15419 42960 72303 11078 87070;
0173154190999992000012712004+44650+025530FM-12+015999999V02099999999999999999N0100001N1-00221-00721102451ADDAA199000091GF105991051001999999071001MA1999999100401MD1810061+9999REMSYN076AAXX  27121 15419 32960 523/3 11022 21072 30040 40245 58006 85070 333 9-800;EQDQ01  00002PRCP99
0090154190999992000012714004+44650+025530FM-12+015999999V02099999999992200019N0100001N1-00041+99999999999ADDGA1001+999999999GF100991001001999999001001REMSYN036AAXX  27141 15419 42960 023/1 11004;
0131154190999992000012715004+44650+025530FM-12+015999999V0201201N031019999999N0100001N1-00101-00681102371ADDAA199000091MA1999999100341MD1610061+9999REMSYN060AAXX  27151 15419 32960 /1231 11010 21068 30034 40237 56006;EQDQ01  00002PRCP99
0080154190999992000012716004+44650+025530FM-12+015999999V0209999C000012200019N0100001N1-00421+99999999999ADDGF101991011001999999041001REMSYN042AAXX  27161 15419 42960 10000 11042 81040;
0080154190999992000012717004+44650+025530FM-12+015999999V0209999C000012200019N0100001N1-00721+99999999999ADDGF101991011001999999041001REMSYN042AAXX  27171 15419 42960 10000 11072 81040;
0100154190999992000012722004+44650+025530FM-12+015999999V0209999C000012200019N0035001N1-01081+99999999999ADDGA1001+999999999GF100991001001999999001001REMSYN046AAXX  27221 15419 41935 00000 11108 333 92611;
0100154190999992000012723004+44650+025530FM-12+015999999V0209999C000012200019N0035001N1-01261+99999999999ADDGA1001+999999999GF100991001001999999001001REMSYN046AAXX  27231 15419 41935 00000 11126 333 92611;
0231154190999992000012800004+44650+025530FM-12+015999999V0209999C000012200019N0035001N1-00961-01081102671ADDAA199000091AJ100259199999999AY101061AY201061GA1001+999999999GF100991001001999999001001IA1239MD1310011+9999MW1101REMSYN088AAXX  28001 15419 31935 00000 11096 21108 3/058 40267 53001 71000 333 47025 92611 92830;EQDQ01  00002PRCP99
0100154190999992000012801004+44650+025530FM-12+015999999V0203201N001012200019N0035001N1-00801+99999999999ADDGA1001+999999999GF100991001001999999001001REMSYN046AAXX  28011 15419 41935 03201 11080 333 92611;
0100154190999992000012802004+44650+025530FM-12+015999999V0209999C000012200019N0100001N1-00841+99999999999ADDGA1001+999999999GF100991001001999999001001REMSYN046AAXX  28021 15419 42960 00000 11084 333 92611;
0183154190999992000012803004+44650+025530FM-12+015999999V0209999C000012200019N0100001N1-00901-01101102541ADDAA199000091GA1001+999999999GF100991001001999999001001MA1999999100451MD1810131+9999REMSYN070AAXX  28031 15419 32960 00000 11090 21110 30045 40254 58013 333 92611;EQDQ01  00002PRCP99
0100154190999992000012804004+44650+025530FM-12+015999999V0203201N001012200019N0100001N1-01001+99999999999ADDGA1001+999999999GF100991001001999999001001REMSYN046AAXX  28041 15419 42960 03201 11100 333 92611;
0100154190999992000012805004+44650+025530FM-12+015999999V0203201N001012200019N0100001N1-00841+99999999999ADDGA1001+999999999GF100991001001999999001001REMSYN046AAXX  28051 15419 42960 03201 11084 333 92611;
0100154190999992000012807004+44650+025530FM-12+015999999V0209999C000012200019N9999999N1-01241+99999999999ADDGA1001+999999999GF100991001001999999001001REMSYN046AAXX  28071 15419 429/0 00000 11124 333 92611;
0090154190999992000012813004+44650+025530FM-12+015999999V0202701N003012200019N0100001N1+00161+99999999999ADDGA1001+999999999GF100991001001999999001001REMSYN036AAXX  28131 15419 42960 02703 10016;
0090154190999992000012814004+44650+025530FM-12+015999999V0202701N002012200019N0100001N1+00071+99999999999ADDGA1001+999999999GF100991001001999999001001REMSYN036AAXX  28141 15419 42960 02702 10007;
0173154190999992000012815004+44650+025530FM-12+015999999V0202301N002012200019N0100001N1+00001-00591102181ADDAA199000091GA1001+999999999GF100991001001999999001001MA1999999100151MD1510091+9999REMSYN060AAXX  28151 15419 32960 02302 10000 21059 30015 40218 55009;EQDQ01  00002PRCP99
0080154190999992000012816004+44650+025530FM-12+015999999V0202301N001012200019N0100001N1-00561+99999999999ADDGF102991001001999999001011REMSYN042AAXX  28161 15419 42960 22301 11056 80001;
0090154190999992000012817004+44650+025530FM-12+015999999V0209999C000012200019N0100001N1-00801+99999999999ADDGA1001+999999999GF100991001001999999001001REMSYN036AAXX  28171 15419 42960 00000 11080;
0252154190999992000012818004+44650+025530FM-12+015999999V0209999C000012200019N0035001N1-00861-00941102291ADDAA199000091AY101061AY201061GA1001+999999999GF100991001001999999001001IA1279KA1120M+00141MA1999999100201MD1210051+9999MW1101REMSYN098AAXX  28181 15419 31935 00000 11086 21094 30020 40229 52005 71000 333 10014 3/004 4321/ 92840 926;EQDQ01  00002PRCP99
0100154190999992000012819004+44650+025530FM-12+015999999V0209999C000012200019N0010001N1-01321+99999999999ADDGA1001+999999999GF100991001001999999001001REMSYN046AAXX  28191 15419 41910 00000 11132 333 92611;
0100154190999992000012820004+44650+025530FM-12+015999999V0202201N011012200019N9999999N1+99999+99999999999ADDAY101051AY201051GF102991999999999999999999MW1101REMSYN040AAXX  28201 15419 4192/ 22211 71000 333;
0217154190999992000012821004+44650+025530FM-12+015999999V0209999C000012200019N0010001N1-01221-01271102351ADDAA199000091AY101031AY201031GA1001+999999999GF100991001001999999001001MA1999999100231MD1310031+9999MW1101REMSYN082AAXX  28211 15419 31910 00000 11122 21127 30023 40235 53003 71000 333 55080 92611;EQDQ01  00002PRCP99
0100154190999992000012822004+44650+025530FM-12+015999999V0209999C000012200019N0010001N1-01321+99999999999ADDGA1001+999999999GF100991001001999999001001REMSYN046AAXX  28221 15419 41910 00000 11132 333 92611;
0109154190999992000012823004+44650+025530FM-12+015999999V0202701N008012200019N0010001N1+99999+99999999999ADDGA1001+999999999GF100991001001999999001001REMSYN036AAXX  28231 15419 42910 02708 10000;EQDQ01+000003ATOT  
0246154190999992000012900004+44650+025530FM-12+015999999V0209999C000012200019N0010001N1-01281-01381102321ADDAA199000091AJ100219199999999AY101061AY201061GA1001+999999999GF100991001001999999001001IA1279MA1999999100191MD1710041+9999MW1101REMSYN088AAXX  29001 15419 31910 00000 11128 21138 30019 40232 57004 71000 333 43021 92840 92611;EQDQ01  00002PRCP99
0100154190999992000012901004+44650+025530FM-12+015999999V0209999C000012200019N0010001N1-01241+99999999999ADDGA1001+999999999GF100991001001999999001001REMSYN046AAXX  29011 15419 41910 00000 11124 333 92611;
0102154190999992000012902004+44650+025530FM-12+015999999V0209999C000012200019N0010001N1-01241+99999999999ADDGA1001+999999999GF100991001001999999001001REMSYN048AAXX  29021 15419 41910 00000 11124 3/3// 92611;
0201154190999992000012903004+44650+025530FM-12+015999999V0209999C000019999999N0010001N1-00801-00881102321ADDAA199000091AY111031AY211031GF106991061001999999071001MA1999999100231MD1110041+9999MW1101REMSYN082AAXX  29031 15419 31910 60000 11080 21088 30023 40232 51004 71011 86070 333 92611;EQDQ01  00002PRCP99
0100154190999992000012904004+44650+025530FM-12+015999999V0209999C000012200019N0030001N1-00941+99999999999ADDGA1001+999999999GF100991001001999999001001REMSYN046AAXX  29041 15419 41930 00000 11094 333 92611;
0100154190999992000012905004+44650+025530FM-12+015999999V0209999C000012200019N0030001N1-00921+99999999999ADDGA1001+999999999GF100991001001999999001001REMSYN046AAXX  29051 15419 41930 00000 11092 333 92611;
0090154190999992000012916004+44650+025530FM-12+015999999V0202301N002012200019N0100001N1-00411+99999999999ADDGA1001+999999999GF100991001001999999001001REMSYN036AAXX  29161 15419 42960 02302 11041;
0100154190999992000012917004+44650+025530FM-12+015999999V0202301N002012200019N0100001N1-00501+99999999999ADDGA1001+999999999GF100991001001999999001001REMSYN046AAXX  29171 15419 42960 02302 11050 333 92600;
0084154190999992000013002004+44650+025530FM-12+015999999V0202701N001019999999N0100001N1-00721+99999999999ADDGF108991999999999999999999REMSYN046AAXX  30021 15419 42960 82701 11072 333 92611;
0191154190999992000013015004+44650+025530FM-12+015999999V0202301N006019999999N0040001N1+00321+00061101111ADDAA199000091AY121031AY221031GF106991061001999999071001MA1999999099141MD1510061+9999MW1101REMSYN072AAXX  30151 15419 31940 62306 10032 20006 39914 40111 55006 71022 86070;EQDQ01  00002PRCP99
0080154190999992000013016004+44650+025530FM-12+015999999V0202301N005019999999N0100001N1+00321+99999999999ADDGF107991071001999999071001REMSYN042AAXX  30161 15419 42960 72305 10032 87070;
0080154190999992000013017004+44650+025530FM-12+015999999V0202301N007012200019N0100001N1+00331+99999999999ADDGF103991031001999999071001REMSYN042AAXX  30171 15419 42960 32307 10033 83070;
0227154190999992000013018004+44650+025530FM-12+015999999V0202301N006012200019N0100001N1+00321+00081101111ADDAA199000091AJ100209199999999GF103991031001999999071001IA1279KA1120M+00381MA1999999099141MD1510001+9999REMSYN094AAXX  30181 15419 32960 32306 10032 20008 39914 40111 55000 83070 333 10038 3/004 43020 92850;EQDQ01  00002PRCP99
0080154190999992000013019004+44650+025530FM-12+015999999V0202701N006019999999N0100001N1+00381+99999999999ADDGF106991061001999999071001REMSYN042AAXX  30191 15419 42960 62706 10038 86070;
0090154190999992000013102004+44650+025530FM-12+015999999V0202701N001012200019N0100001N1-00061+99999999999ADDGA1001+999999999GF100991001001999999001001REMSYN036AAXX  31021 15419 42960 02701 11006;
0227154190999992000013106004+44650+025530FM-12+015999999V0202701N004012200019N0100001N1-00141-00431999999ADDAA199000091GA1001+999999999GF100991001001999999001001IA1279KA1120N-00221MA1999999100141MD1210221+9999ME1312179REMSYN086AAXX  31061 15419 32960 02704 11014 21043 30014 48217 52022 333 21022 92880 555 10016;EQDQ01  00002PRCP99
0090154190999992000013107004+44650+025530FM-12+015999999V0202701N004012200019N0100001N1-00101+99999999999ADDGA1001+999999999GF100991001001999999001001REMSYN036AAXX  31071 15419 42960 02704 11010;
0080154190999992000013116004+44650+025530FM-12+015999999V0202301N007019999999N0100001N1+00401+99999999999ADDGF105991051001999999071001REMSYN042AAXX  31161 15419 42960 52307 10040 85070;
0080154190999992000013117004+44650+025530FM-12+015999999V0202301N005012200019N0100001N1+00361+99999999999ADDGF103991031001999999041001REMSYN042AAXX  31171 15419 42960 32305 10036 83040;
0074154190999992000013120004+44650+025530FM-12+015999999V02099999999999999999N0100001N1+99999+99999999999ADDGF107991999999999999999999REMSYN036AAXX  31201 15419 42960 7//// 226/1;
0153154190999992000013121004+44650+025530FM-12+015999999V0203201N003012200019N0100001N1+00421+00191101851ADDAA199000091GF101991999999999999999999MA1999999099871REMSYN070AAXX  31211 15419 32960 13203 10042 20019 39987 40185 92040 333 55072;EQDQ01  00002PRCP99
0169154190999992000020100004+44650+025530FM-12+015999999V0203201N003012200019N0100001N1+00341+00081101931ADDAA199000091GF101991011001999999041001MA1999999099951MD1110081+9999REMSYN072AAXX  01001 15419 32960 13203 10034 20008 39995 40193 51008 81040 92840;EQDQ01  00002PRCP99
0090154190999992000020101004+44650+025530FM-12+015999999V0203201N001012200019N0100001N1+00381+99999999999ADDGA1001+999999999GF100991001001999999001001REMSYN036AAXX  01011 15419 42960 03201 10038;
0090154190999992000020102004+44650+025530FM-12+015999999V0202301N007012200019N0100001N1+00461+99999999999ADDGA1001+999999999GF100991001001999999001001REMSYN036AAXX  01021 15419 42960 02307 10046;
0173154190999992000020103004+44650+025530FM-12+015999999V0202701N005012200019N0100001N1+00321+00031102041ADDAA199000091GA1001+999999999GF100991001001999999001001MA1999999100061MD1110111+9999REMSYN060AAXX  01031 15419 32960 02705 10032 20003 30006 40204 51011;EQDQ01  00002PRCP99
0090154190999992000020105004+44650+025530FM-12+015999999V0203201N005012200019N0100001N1+00441+99999999999ADDGA1001+999999999GF100991001001999999001001REMSYN036AAXX  01051 15419 42960 03205 10044;
0220154190999992000020106004+44650+025530FM-12+015999999V0209999C000012200019N0100001N1+00241-00121102291ADDAA199000091AJ100139199999999GF101991011001999999041001IA1279IA2120-00409MA1999999100291MD1210231+9999REMSYN088AAXX  01061 15419 32960 10000 10024 21012 30029 40229 52023 81040 333 3/104 43013 92840;EQDQ01  00002PRCP99
0080154190999992000020108004+44650+025530FM-12+015999999V0202701N002012200019N0200001N1+00501+99999999999ADDGF103991001001999999001011REMSYN042AAXX  01081 15419 42970 32702 10050 80001;
0090154190999992000020119004+44650+025530FM-12+015999999V0209999C000012200019N9999999N1+00101+99999999999ADDGA1001+999999999GF100991001001999999001001REMSYN036AAXX  01191 15419 429// 00000 10010;
0090154190999992000020120004+44650+025530FM-12+015999999V0209999C000012200019N0100001N1+00101+99999999999ADDGA1001+999999999GF100991001001999999001001REMSYN036AAXX  01201 15419 42960 00000 10010;
0183154190999992000020121004+44650+025530FM-12+015999999V0209999C000012200019N0100001N1+00021+99999102851ADDAA199000091GA1001+999999999GF100991001001999999001001MA1999999100821MD1810051+9999REMSYN070AAXX  01211 15419 32960 00000 10002 22004 30082 40285 58005 333 55087;EQDQ01  00002PRCP99
0090154190999992000020210004+44650+025530FM-12+015999999V0202301N005012200019N0100001N1+00701+99999999999ADDGA1001+999999999GF100991001001999999001001REMSYN036AAXX  02101 15419 42960 02305 10070;
0080154190999992000020211004+44650+025530FM-12+015999999V0202301N005012200019N0100001N1+00781+99999999999ADDGF101991001001999999001011REMSYN042AAXX  02111 15419 42960 12305 10078 80001;
0080154190999992000020214004+44650+025530FM-12+015999999V0202301N003012200019N0100001N1+00821+99999999999ADDGF102991001001999999001011REMSYN042AAXX  02141 15419 42960 22303 10082 80001;
0163154190999992000020215004+44650+025530FM-12+015999999V0202301N003012200019N0100001N1+00641+00141101731ADDAA199000091GF102991021001999999041001MA1999999099771MD1710201+9999REMSYN066AAXX  02151 15419 32960 22303 10064 20014 39977 40173 57020 82040;EQDQ01  00002PRCP99
0080154190999992000020216004+44650+025530FM-12+015999999V0202501N003012200019N0100001N1+00521+99999999999ADDGF103991031001999999041001REMSYN042AAXX  02161 15419 42960 32503 10052 83040;
0080154190999992000020217004+44650+025530FM-12+015999999V0202701N001012200019N0100001N1+00401+99999999999ADDGF103991031001999999041001REMSYN042AAXX  02171 15419 42960 32701 10040 83040;
0163154190999992000020218004+44650+025530FM-12+015999999V0202701N003012200019N0100001N1+00401+00221101671ADDAA199000091GF102991021001999999041001MA1999999099691MD1710081+9999REMSYN066AAXX  02181 15419 32960 22703 10040 20022 39969 40167 57008 82040;EQDQ01  00002PRCP99
0080154190999992000020219004+44650+025530FM-12+015999999V0202701N002012200019N0100001N1+00301+99999999999ADDGF102991021001999999041001REMSYN042AAXX  02191 15419 42960 22702 10030 82040;
0080154190999992000020220004+44650+025530FM-12+015999999V0202701N001012200019N0100001N1+00161+99999999999ADDGF101991011001999999041001REMSYN042AAXX  02201 15419 42960 12701 10016 81040;
0179154190999992000020221004+44650+025530FM-12+015999999V0202701N001012200019N0100001N1+00121+00071101641ADDAA199000091GF101991011001999999041001MA1999999099641MD1710051+9999REMSYN082AAXX  02211 15419 32960 12701 10012 20007 39964 40164 57005 81040 333 55086 92600;EQDQ01  00002PRCP99
0161154190999992000020300004+44650+025530FM-12+015999999V0202701N004012200019N0100001N1+00261+00161999999ADDAJ100039199999999GA1001+999999999GF100991001001999999001001IA1279MD1710091+9999REMSYN070AAXX  03001 15419 /2960 02704 10026 20016 57009 333 43003 92600 92882;
0100154190999992000020301004+44650+025530FM-12+015999999V0202701N003012200019N0100001N1+00181+99999999999ADDGA1001+999999999GF100991001001999999001001REMSYN046AAXX  03011 15419 42960 02703 10018 333 92600;
0183154190999992000020303004+44650+025530FM-12+015999999V0202701N003012200019N0100001N1+00181+00021101501ADDAA199000091GA1001+999999999GF100991001001999999001001MA1999999099501MD1810051+9999REMSYN070AAXX  03031 15419 32960 02703 10018 20002 39950 40150 58005 333 92600;EQDQ01  00002PRCP99
0084154190999992000020304004+44650+025530FM-12+015999999V0202701N003012200019N0100001N1+00021+99999999999ADDGF101991999999999999999999REMSYN046AAXX  03041 15419 42960 12703 10002 333 92600;
0080154190999992000020310004+44650+025530FM-12+015999999V0202701N003019999999N0100001N1+00671+99999999999ADDGF108991001001999999001071REMSYN042AAXX  03101 15419 42960 82703 10067 80007;
0133154190999992000020315004+44650+025530FM-12+015999999V0202701N002019999999N9999999N1+00401+00221101671ADDGF108991081001012501071999MA1999999099691MD1310071+9999REMSYN066AAXX  03151 15419 2/60/ 82702 10040 20022 39969 40167 53007 8807/;
0108154190999992000020316004+44650+025530FM-12+015999999V0202701N001019999999N0100001N1+00321+99999999999ADDAY121999AY221999GF108991081001999999071999MW1101REMSYN048AAXX  03161 15419 41960 82701 10032 71022 8807/;
0108154190999992000020317004+44650+025530FM-12+015999999V0200501N004019999999N0035001N1+00341+99999999999ADDAY121999AY221999GF108991081001999999071999MW1101REMSYN048AAXX  03171 15419 41935 80504 10034 71022 8807/;
0107154190999992000020319004+44650+025530FM-12+015999999V0200501N002019999999N0035001N1+00241+99999999999ADDAY121999AY221999GF108991999999999999999999MW1101REMSYN047AAXX  03191 15419 41935 80502 10024 71022 807/;
0108154190999992000020320004+44650+025530FM-12+015999999V0200501N001019999999N0035001N1+00221+99999999999ADDAY121999AY221999GF108991081001999999071999MW1101REMSYN048AAXX  03201 15419 41935 80501 10022 71022 8807/;
0201154190999992000020321004+44650+025530FM-12+015999999V0200501N001019999999N0035001N1+00241+00161102451ADDAA199000091AY121031AY221031GF108991081001999999071999MA1999999100451MD1210351+9999MW1101REMSYN082AAXX  03211 15419 31935 80501 10024 20016 30045 40245 52035 71022 8807/ 333 55009;EQDQ01  00002PRCP99
0090154190999992000020323004+44650+025530FM-12+015999999V0202701N003012200019N0100001N1+00061+99999999999ADDGA1001+999999999GF100991001001999999001001REMSYN036AAXX  03231 15419 42960 02703 10006;
0206154190999992000020400004+44650+025530FM-12+015999999V0202701N002012200019N0100001N1+00061-00051102521ADDAA199000091AJ100009199999999GA1001+999999999GF100991001001999999001001IA1309MA1999999100501MD1110051+9999REMSYN070AAXX  04001 15419 32960 02702 10006 21005 30050 40252 51005 333 42998;EQDQ01  00002PRCP99
0090154190999992000020402004+44650+025530FM-12+015999999V0202701N001012200019N0100001N1-00181+99999999999ADDGA1001+999999999GF100991001001999999001001REMSYN036AAXX  04021 15419 42960 02701 11018;
0173154190999992000020403004+44650+025530FM-12+015999999V0209999C000012200019N0100001N1-00081-00231102651ADDAA199000091GA1001+999999999GF100991001001999999001001MA1999999100621MD1210121+9999REMSYN060AAXX  04031 15419 32960 00000 11008 21023 30062 40265 52012;EQDQ01  00002PRCP99
0090154190999992000020416004+44650+025530FM-12+015999999V0201401N001012200019N0100001N1+00161+99999999999ADDGA1001+999999999GF100991001001999999001001REMSYN036AAXX  04161 15419 42960 01401 10016;
0074154190999992000020417004+44650+025530FM-12+015999999V0209999C000012200019N0100001N1-00101+99999999999ADDGF101991999999999999999999REMSYN036AAXX  04171 15419 42960 10000 11010;
0253154190999992000020418004+44650+025530FM-12+015999999V0209999C000012200019N0100001N1-00181-00271103731ADDAA199000091AJ199992999999999GA1001+999999999GF100991001001999999001001IA1309KA1120M+00741MA1999999101671MD1310191+9999REMSYN088AAXX  04181 15419 32960 00000 11018 21027 30167 40373 53019 333 10074 34007 42998 92600;EQDQ01  00002PRCP99Q02  09972SNDP  
0090154190999992000020423004+44650+025530FM-12+015999999V02099999999992200019N0100001N1-00581+99999999999ADDGA1001+999999999GF100991001001999999001001REMSYN036AAXX  04231 15419 42960 000/0 11058;
0080154190999992000020516004+44650+025530FM-12+015999999V0202301N001019999999N0100001N1+00181+99999999999ADDGF106991061001999999071001REMSYN042AAXX  05161 15419 42960 62301 10018 86070;
0080154190999992000020517004+44650+025530FM-12+015999999V0202301N001019999999N0100001N1+00181+99999999999ADDGF106991061001999999071001REMSYN042AAXX  05171 15419 42960 62301 10018 86070;
0090154190999992000020602004+44650+025530FM-12+015999999V0209999C000012200019N0100001N1-00201+99999999999ADDGA1001+999999999GF100991001001999999001001REMSYN036AAXX  06021 15419 42960 00000 11020;
0080154190999992000020610004+44650+025530FM-12+015999999V0203201N001019999999N0100001N1+00341+99999999999ADDGF106991061001999999071001REMSYN042AAXX  06101 15419 42960 63201 10034 86070;
0080154190999992000020616004+44650+025530FM-12+015999999V0202501N002012200019N0100001N1+00551+99999999999ADDGF101991011001999999041001REMSYN042AAXX  06161 15419 42960 12502 10055 81040;
0090154190999992000020617004+44650+025530FM-12+015999999V0209999C000012200019N0100001N1+00261+99999999999ADDGA1001+999999999GF100991001001999999001001REMSYN036AAXX  06171 15419 42960 00000 10026;
0253154190999992000020618004+44650+025530FM-12+015999999V0202701N001012200019N0100001N1+00141+00061102691ADDAA199000091AJ199992999999999GA1001+999999999GF100991001001999999001001IA1259KA1120M+00801MA1999999100681MD1610031+9999REMSYN088AAXX  06181 15419 32960 02701 10014 20006 30068 40269 56003 333 10080 31008 41998 92600;EQDQ01  00002PRCP99Q02  09972SNDP  
0100154190999992000020619004+44650+025530FM-12+015999999V0202501N002012200019N0100001N1+00221+99999999999ADDGA1001+999999999GF100991001001999999001001REMSYN046AAXX  06191 15419 42960 02502 10022 333 92600;
0100154190999992000020620004+44650+025530FM-12+015999999V0202901N003012200019N0100001N1+00341+99999999999ADDGA1001+999999999GF100991001001999999001001REMSYN046AAXX  06201 15419 42960 02903 10034 333 92600;
0109154190999992000020716004+44650+025530FM-12+015999999V0202701N999992200019N0100001N1+00581+99999999999ADDGA1001+999999999GF100991001001999999001001REMSYN036AAXX  07161 15419 42960 02782 10058;EQDQ01+008203WOSPD 
0090154190999992000020717004+44650+025530FM-12+015999999V0209999C000012200019N0100001N1+00521+99999999999ADDGA1001+999999999GF100991001001999999001001REMSYN036AAXX  07171 15419 42960 00000 10052;
0206154190999992000020718004+44650+025530FM-12+015999999V0209999C000012200019N0100001N1+00381+99999102271ADDAA199000091AJ100009199999999GA1001+999999999GF100991001001999999001001IA1099MA1999999100271MD1610051+9999REMSYN070AAXX  07181 15419 32960 00000 10038 30027 40227 56005 333 31008 41998;EQDQ01  00002PRCP99
0177154190999992000020721004+44650+025530FM-12+015999999V0202701N002012200019N0100001N1+00361+00291999999ADDAA199000091GA1001+999999999GF100991001001999999001001MA1999999100231MD1510041+9999REMSYN064AAXX  07211 15419 32960 02702 10036 20029 30023 55004 333 55079;EQDQ01  00002PRCP99
0100154190999992000020723004+44650+025530FM-12+015999999V0202701N002012200019N0100001N1+00241+99999999999ADDGA1001+999999999GF100991001001999999001001REMSYN046AAXX  07231 15419 42960 02702 10024 333 92600;
0179154190999992000020815004+44650+025530FM-12+015999999V0202301N005012200019N0100001N1+01001+00511101631ADDAA199000091GF103991001001999999001011MA1999999099701MD1710141+9999REMSYN066AAXX  08151 15419 32860 32305 10100 20051 39970 40163 57014 80001;EQDQ01+022502SCOLCBQ02  00002PRCP99
0099154190999992000020816004+44650+025530FM-12+015999999V02099999999992200019N0120001N1+00841+99999999999ADDGF102991999001004501071011REMSYN042AAXX  08161 15419 42462 24305 10084 84071;EQDQ01+000042SCOTLC
0080154190999992000020817004+44650+025530FM-12+015999999V0202701N001012200019N0100001N1+00621+99999999999ADDGF102991011001999999041011REMSYN042AAXX  08171 15419 42960 22701 10062 81041;
0080154190999992000020915004+44650+025530FM-12+015999999V0209999C000019999999N0100001N1+00741+99999999999ADDGF108991081001999999071999REMSYN042AAXX  09151 15419 42960 80000 10074 8807/;
0080154190999992000020917004+44650+025530FM-12+015999999V0209999C000019999999N0100001N1+00681+99999999999ADDGF108991081001999999071999REMSYN042AAXX  09171 15419 42960 80000 10068 8807/;
0080154190999992000020923004+44650+025530FM-12+015999999V0209999C000019999999N0100001N1+00561+99999999999ADDGF108991081001999999071999REMSYN042AAXX  09231 15419 42960 80000 10056 8807/;
0080154190999992000021013004+44650+025530FM-12+015999999V0200501N001010360019N0100001N1+00751+99999999999ADDGF107991021011008001071001REMSYN042AAXX  10131 15419 42560 70501 10075 82170;
0080154190999992000021016004+44650+025530FM-12+015999999V0201401N001019999999N0100001N1+00601+99999999999ADDGF108991081001999999071999REMSYN042AAXX  10161 15419 42960 81401 10060 8807/;
0068154190999992000021017004+44650+025530FM-12+015999999V02099999999992200019N0100001N1+99999+99999999999ADDGF102991999999999999999999REMSYN030AAXX  10171 15419 42960 2//22;
0197154190999992000021018004+44650+025530FM-12+015999999V0201401N001019999999N0100001N1+00381+00281102661ADDAA101000791GF107991071001999999071001IA1099IA2999+01309KA1120M+00751MA1999999100671MD1210081+9999REMSYN088AAXX  10181 15419 12960 71401 10038 20028 30067 40266 52008 69905 87070 333 10075 31013;
0080154190999992000021019004+44650+025530FM-12+015999999V0202301N002019999999N9999999N1+00451+99999999999ADDGF108991081001999999071999REMSYN042AAXX  10191 15419 42//0 82302 10045 8807/;
0074154190999992000021020004+44650+025530FM-12+015999999V0202301N002019999999N0100001N1+99999+99999999999ADDGF108991999999999999071999REMSYN036AAXX  10201 15419 42960 82302 8//7/;
0173154190999992000021021004+44650+025530FM-12+015999999V0202301N008012200019N0100001N1+00361+00291102741ADDAA199000091GF103991031001999999071001MA1999999100751MD1310081+9999REMSYN076AAXX  10211 15419 32960 32308 10036 20029 30075 40274 53008 83070 333 55010;EQDQ01  00002PRCP99
0090154190999992000021022004+44650+025530FM-12+015999999V0202301N001012200019N0100001N1+00221+99999999999ADDGA1001+999999999GF100991001001999999001001REMSYN036AAXX  10221 15419 42960 02301 10022;
0084154190999992000021105004+44650+025530FM-12+015999999V0209999C000012200019N0100001N1-00161+99999999999ADDGF101991999999999999999999REMSYN046AAXX  11051 15419 42960 10000 11016 333 92610;
0080154190999992000021116004+44650+025530FM-12+015999999V0202301N001012200019N0100001N1+00661+99999999999ADDGF101991011001999999041001REMSYN042AAXX  11161 15419 42960 12301 10066 81040;
0220154190999992000021118004+44650+025530FM-12+015999999V0202301N001012200019N0100001N1+99999+99999102791ADDAA199000091GA1001+999999999GF100991001001999999001001IA1099IA2999+05209KA1120M+00951MA1999999100801MD1010061+9999REMSYN076AAXX  11181 15419 32960 02301 1//40 20030 30080 40279 50006 333 10095 31052;EQDQ01  00002PRCP99
0090154190999992000021119004+44650+025530FM-12+015999999V0209999C000012200019N0100001N1+00301+99999999999ADDGA1001+999999999GF100991001001999999001001REMSYN036AAXX  11191 15419 42960 00000 10030;
0090154190999992000021120004+44650+025530FM-12+015999999V0209999C000012200019N0100001N1+00201+99999999999ADDGA1001+999999999GF100991001001999999001001REMSYN036AAXX  11201 15419 42960 00000 10020;
0211154190999992000021121004+44650+025530FM-12+015999999V0209999C000012200019N0002001N1+00041-00041102871ADDAA199000091AY141031AY201031GA1001+999999999GF100991001001999999001001MA1999999100851MD1310051+9999MW1461REMSYN076AAXX  11211 15419 31902 00000 10004 21004 30085 40287 53005 74640 333 55074;EQDQ01  00002PRCP99
0211154190999992000021203004+44650+025530FM-12+015999999V0209999C000012200019N0030001N1-00061-00061102951ADDAA199000091AY101031AY201031GA1001+999999999GF100991001001999999001001MA1999999100911MD1410001+9999MW1101REMSYN076AAXX  12031 15419 31930 00000 11006 21006 30091 40295 54000 71000 333 92611;EQDQ01  00002PRCP99
0080154190999992000021217004+44650+025530FM-12+015999999V0200501N001012200019N0100001N1+00361+99999999999ADDGF102991021001999999041001REMSYN042AAXX  12171 15419 42960 20501 10036 82040;
0117154190999992000021221004+44650+025530FM-12+015999999V0209999C000019999999N0100001N1+00021-00041102831ADDAA199000091MA1999999100801REMSYN060AAXX  12211 15419 32960 /0000 10002 21004 30080 40283 92600;EQDQ01  00002PRCP99
0108154190999992000021407004+44650+025530FM-12+015999999V0203201N001010075019N0010001N1+00101+99999999999ADDAY121999AY221999GF108991081061008001999999MW1101REMSYN048AAXX  14071 15419 41510 83201 10010 71022 886//;
0108154190999992000021417004+44650+025530FM-12+015999999V0202301N002019999999N0035001N1+00441+99999999999ADDAY121999AY221999GF108991081001999999071999MW1101REMSYN048AAXX  14171 15419 41935 82302 10044 71022 8807/;
0238154190999992000021418004+44650+025530FM-12+015999999V0202301N001019999999N0035001N1+00381+00261101521ADDAA199000091AY121061AY221061GF108991081001999999071999IA1099IA2999+01209KA1120M+00521MA1999999099541MD1610181+9999MW1101REMSYN088AAXX  14181 15419 31935 82301 10038 20026 39954 40152 56018 71022 8807/ 333 10052 31012;EQDQ01  00002PRCP99
0108154190999992000021419004+44650+025530FM-12+015999999V0200501N002010075019N0040001N1+00381+99999999999ADDAY161011AY221011GF108991051051008001071999MW1611REMSYN048AAXX  14191 15419 41540 80502 10038 76162 8557/;
0108154190999992000021420004+44650+025530FM-12+015999999V0200501N004010075019N0100001N1+00361+99999999999ADDAY161999AY221999GF108991081051008001999999MW1211REMSYN048AAXX  14201 15419 41560 80504 10036 72162 885//;
0074154190999992000021423004+44650+025530FM-12+015999999V0200901N001019999999N0100001N1+00201+99999999999ADDGF108991999999008001999999REMSYN036AAXX  14231 15419 42560 80901 1002/;
0178154190999992000021500004+44650+025530FM-12+015999999V0209999C000010360019N0100001N1+00141+00091101711ADDAA106000191AY161061AY221061GF106991031051008001071001MA1999999099711MD1310111+9999MW1011REMSYN078AAXX  15001 15419 11560 60000 10014 20009 39971 40171 53011 69911 70162 83570;
0080154190999992000021501004+44650+025530FM-12+015999999V0209999C000019999999N0100001N1+00161+99999999999ADDGF108991999999008001999999REMSYN042AAXX  15011 15419 42560 80000 10016 457//;
0080154190999992000021502004+44650+025530FM-12+015999999V0202701N001010360019N0100001N1+00221+99999999999ADDGF108991041051008001071061REMSYN042AAXX  15021 15419 42560 82701 10022 84576;
0182154190999992000021503004+44650+025530FM-12+015999999V0209999C000010360019N0100001N1+00121+00041101781ADDAA103001091AY171031AY221031GF108991041071008001021999MA1999999099781MD1210071+9999MW1681REMSYN082AAXX  15031 15419 /1560 80000 10012 20004 39978 40178 52007 76872 8472/ 333 69997;
0108154190999992000021505004+44650+025530FM-12+015999999V0202501N003010360019N0100001N1+00041+99999999999ADDAY171999AY271999GF108991041071008001021999MW1711REMSYN048AAXX  15051 15419 41560 82503 10004 77177 8472/;
0108154190999992000021507004+44650+025530FM-12+015999999V0202501N001010360019N0010001N1+00051+99999999999ADDAY121999AY221999GF108991041051008001071999MW1101REMSYN048AAXX  15071 15419 41510 82501 10005 71022 8457/;
0080154190999992000021510004+44650+025530FM-12+015999999V0200901N002012200019N0100001N1+00441+99999999999ADDGF103991031011008001001001REMSYN042AAXX  15101 15419 42560 30902 10044 83100;
0080154190999992000021511004+44650+025530FM-12+015999999V0200901N003012200019N0100001N1+00541+99999999999ADDGF104991041021008001001001REMSYN042AAXX  15111 15419 42560 40903 10054 84200;
0144154190999992000021512004+44650+025530FM-12+015999999V0202301N005012200019N0100001N1+00581+00071102051ADDAA199000021GF104991041031008001001001MA1999999100081MD1010001+9999REMSYN066AAXX  15121 15419 32560 42305 10058 20007 30008 40205 50000 84300;
0080154190999992000021513004+44650+025530FM-12+015999999V0202301N004010075019N0100001N1+00501+99999999999ADDGF107991071031008001001001REMSYN042AAXX  15131 15419 42560 72304 10050 87300;
0080154190999992000021516004+44650+025530FM-12+015999999V0202301N002012200019N0100001N1+00261+99999999999ADDGF103991031031008001001001REMSYN042AAXX  15161 15419 42560 32302 10026 83300;
0080154190999992000021517004+44650+025530FM-12+015999999V0202301N001012200019N0100001N1+00201+99999999999ADDGF103991031031008001001001REMSYN042AAXX  15171 15419 42560 32301 10020 83300;
0225154190999992000021518004+44650+025530FM-12+015999999V0202301N002010360019N0100001N1+00101-00011102181ADDAA112000191AY181061AY221061GF107991041051008001071001IA1099IA2999+01809KA1120M+00641MA1999999100171MD1310031+9999MW1021REMSYN094AAXX  15181 15419 11560 72302 10010 21001 30017 40218 53003 69912 70282 84570 333 10064 31018;
0080154190999992000021519004+44650+025530FM-12+015999999V0202301N002010075019N0100001N1+00181+99999999999ADDGF107991071051008001001001REMSYN042AAXX  15191 15419 42560 72302 10018 87500;
0080154190999992000021520004+44650+025530FM-12+015999999V0202301N001010075019N0100001N1+00141+99999999999ADDGF107991071051008001001001REMSYN042AAXX  15201 15419 42560 72301 10014 87500;
0173154190999992000021521004+44650+025530FM-12+015999999V0202301N001012200019N0100001N1+00041-00071102251ADDAA199000091GF103991031001999999071001MA1999999100241MD1110071+9999REMSYN076AAXX  15211 15419 32960 32301 10004 21007 30024 40225 51007 83070 333 55051;EQDQ01  00002PRCP99
0100154190999992000021522004+44650+025530FM-12+015999999V0209999C000012200019N0100001N1+00001+99999999999ADDGA1001+999999999GF100991001001999999001001REMSYN046AAXX  15221 15419 42960 00000 10000 333 92600;
0102154190999992000021523004+44650+025530FM-12+015999999V0209999C000012200019N0100001N1+00001+99999999999ADDGA1001+999999999GF100991001001999999001001REMSYN048AAXX  15231 15419 42960 00000 1100/ 333// 92610;
0211154190999992000021600004+44650+025530FM-12+015999999V0209999C000012200019N0002001N1-00121-00121102181ADDAA199000091AY141061AY201061GA1001+999999999GF100991001001999999001001MA1999999100171MD1810071+9999MW1461REMSYN076AAXX  16001 15419 31902 00000 11012 21012 30017 40218 58007 74640 333 92610;EQDQ01  00002PRCP99
0115154190999992000021601004+44650+025530FM-12+015999999V0209999C000010003019N0002001N1-00141+99999999999ADDGA1091+999999999GF109991091999999999999999REMSYN042AAXX  16011 15419 41/02 90000 11014 33310;EQDQ01+033101APOSP 
0100154190999992000021605004+44650+025530FM-12+015999999V0209999C000010003019N0002001N1-00241+99999999999ADDGA1091+999999999GF109991091999999999999999REMSYN046AAXX  16051 15419 41/02 90000 11024 333 92610;
0252154190999992000021606004+44650+025530FM-12+015999999V0209999C000010003019N0002001N1-00261-00291999999ADDAA199000091AY141061AY241061GA1091+999999999GF109991091999999999999999IA1149IA2120-00509KA1120N-00281MA1999999100031MD1510051+9999MW1451REMSYN086AAXX  16061 15419 31/02 90000 11026 21029 30003 55005 74544 333 21028 34105 555 60001;EQDQ01  00002PRCP99
0118154190999992000021611004+44650+025530FM-12+015999999V0202301N003012200019N0020001N1+00401+99999999999ADDAY111999AY261999GA1001+999999999GF100991001001999999001001MW1101REMSYN042AAXX  16111 15419 41920 02303 10040 71016;
0173154190999992000021612004+44650+025530FM-12+015999999V0202301N005012200019N0100001N1+00501+00061101811ADDAA199000091GA1001+999999999GF100991001001999999001001MA1999999099841MD1710161+9999REMSYN060AAXX  16121 15419 32960 02305 10050 20006 39984 40181 57016;EQDQ01  00002PRCP99
0090154190999992000021613004+44650+025530FM-12+015999999V0202301N005012200019N0100001N1+00601+99999999999ADDGA1001+999999999GF100991001001999999001001REMSYN036AAXX  16131 15419 42960 02305 10060;
