0094162430999992000010100004+41550+012900FM-15+0026LIRL V0209999C00001220001CN0099001N1+00001-00301999999ADDMA1102101999999MW1001REMMET061LIRL 010000Z 00000KT CAVOK 00/M03 Q1021 RMK MON INVIS NC BLU;
0074162430999992000010101004+41550+012900FM-15+0026LIRL V0209999C00001220001CN0099001N1+00001-00301999999ADDMA1102101999999MW1001REMMET041LIRL 010100Z 00000KT CAVOK M00/M03 Q1021;
0074162430999992000010102004+41550+012900FM-15+0026LIRL V0209999C00001220001CN0099001N1-00101-00301999999ADDMA1102101999999MW1001REMMET041LIRL 010200Z 00000KT CAVOK M01/M03 Q1021;
0074162430999992000010103004+41550+012900FM-15+0026LIRL V0209999C00001220001CN0099001N1+00001-00301999999ADDMA1102101999999MW1001REMMET041LIRL 010300Z 00000KT CAVOK M00/M03 Q1021;
0074162430999992000010104004+41550+012900FM-15+0026LIRL V0209999C00001220001CN0099001N1+00001-00301999999ADDMA1102101999999MW1001REMMET041LIRL 010400Z 00000KT CAVOK M00/M03 Q1021;
0074162430999992000010105004+41550+012900FM-15+0026LIRL V0203201N00211220001CN0099001N1+00001-00301999999ADDMA1102101999999MW1001REMMET041LIRL 010500Z 32004KT CAVOK M00/M03 Q1021;
0094162430999992000010106004+41550+012900FM-15+0026LIRL V0203201N00211220001CN0099001N1+00001-00301999999ADDMA1102201999999MW1001REMMET061LIRL 010600Z 32004KT CAVOK 00/M03 Q1022 RMK MON INVIS NC BLU;
0099162430999992000010107004+41550+012900FM-15+0026LIRL V0203301N00211220001CN0099001N1+00001-00301999999ADDMA1102301999999MW1001REMMET066LIRL 010700Z 33004KT CAVOK 00/M03 Q1023 RMK MON LIB VAR RAPID BLU;
0073162430999992000010108004+41550+012900FM-15+0026LIRL V0203201N00211220001CN0099001N1+00101-00201999999ADDMA1102301999999MW1001REMMET040LIRL 010800Z 32004KT CAVOK 01/M02 Q1023;
0092162430999992000010109004+41550+012900FM-15+0026LIRL V0203201N00051220001CN0099001N1+00401+00001999999ADDMA1102301999999MW1001REMMET059LIRL 010900Z 32001KT CAVOK 04/M00 Q1023 RMK MON LIB NC BLU;
0091162430999992000010110004+41550+012900FM-15+0026LIRL V0209999C00001220001CN0099001N1+00701+00101999999ADDMA1102401999999MW1001REMMET058LIRL 011000Z 00000KT CAVOK 07/01 Q1024 RMK MON LIB NC BLU;
0092162430999992000010111004+41550+012900FM-15+0026LIRL V0202001N00051220001CN0099001N1+00901+00001999999ADDMA1102301999999MW1001REMMET059LIRL 011100Z 20001KT CAVOK 09/M00 Q1023 RMK MON LIB NC BLU;
0092162430999992000010112004+41550+012900FM-15+0026LIRL V0202801N00261220001CN0099001N1+00901-00301999999ADDMA1102301999999MW1001REMMET059LIRL 011200Z 28005KT CAVOK 09/M03 Q1023 RMK MON LIB NC BLU;
0073162430999992000010113004+41550+012900FM-15+0026LIRL V0202801N00211220001CN0099001N1+01001-00401999999ADDMA1102301999999MW1001REMMET040LIRL 011300Z 28004KT CAVOK 10/M04 Q1023;
0073162430999992000010114004+41550+012900FM-15+0026LIRL V0202601N00411220001CN0099001N1+01001-00501999999ADDMA1102301999999MW1001REMMET040LIRL 011400Z 26008KT CAVOK 10/M05 Q1023;
0073162430999992000010115004+41550+012900FM-15+0026LIRL V0202601N00311220001CN0099001N1+00901-00101999999ADDMA1102301999999MW1001REMMET040LIRL 011500Z 26006KT CAVOK 09/M01 Q1023;
0073162430999992000010116004+41550+012900FM-15+0026LIRL V0202601N00101220001CN0099001N1+00801-00201999999ADDMA1102301999999MW1001REMMET040LIRL 011600Z 26002KT CAVOK 08/M02 Q1023;
0073162430999992000010117004+41550+012900FM-15+0026LIRL V0203001N00211220001CN0099001N1+00501-00201999999ADDMA1102301999999MW1001REMMET040LIRL 011700Z 30004KT CAVOK 05/M02 Q1023;
0094162430999992000010118004+41550+012900FM-15+0026LIRL V0203101N00151220001CN0099001N1+00401-00101999999ADDMA1102401999999MW1001REMMET061LIRL 011800Z 31003KT CAVOK 04/M01 Q1024 RMK MON INVIS NC BLU;
0073162430999992000010119004+41550+012900FM-15+0026LIRL V0200401N00051220001CN0099001N1+00201-00101999999ADDMA1102401999999MW1001REMMET040LIRL 011900Z 04001KT CAVOK 02/M01 Q1024;
0094162430999992000010120004+41550+012900FM-15+0026LIRL V0209999C00001220001CN0099001N1+00201+00001999999ADDMA1102401999999MW1001REMMET061LIRL 012000Z 00000KT CAVOK 02/M00 Q1024 RMK MON INVIS NC BLU;
0094162430999992000010121004+41550+012900FM-15+0026LIRL V0200301N00101220001CN0099001N1+00101-00101999999ADDMA1102401999999MW1001REMMET061LIRL 012100Z 03002KT CAVOK 01/M01 Q1024 RMK MON INVIS NC BLU;
0094162430999992000010122004+41550+012900FM-15+0026LIRL V0203001N00211220001CN0099001N1+00101-00101999999ADDMA1102401999999MW1001REMMET061LIRL 012200Z 30004KT CAVOK 01/M01 Q1024 RMK MON INVIS NC BLU;
0094162430999992000010123004+41550+012900FM-15+0026LIRL V0209999C00001220001CN0099001N1+00001-00201999999ADDMA1102401999999MW1001REMMET061LIRL 012300Z 00000KT CAVOK 00/M02 Q1024 RMK MON INVIS NC BLU;
0114162430999992000010200004+41550+012900FM-15+0026LIRL V0203101N00151220001CN0099001N1-00101-00301999999ADDMA1102401999999MW1001REMMET062LIRL 020000Z 31003KT CAVOK M01/M03 Q1024 RMK MON INVIS NC BLU;EQDQ01+000000PRSWM2
0093162430999992000010201004+41550+012900FM-15+0026LIRL V0203201N00051220001CN0099001N1-00101-00401999999ADDMA1102401999999MW1001REMMET041LIRL 020100Z 32001KT CAVOK M01/M04 Q1024;EQDQ01+000000PRSWM2
0093162430999992000010202004+41550+012900FM-15+0026LIRL V0203001N00051220001CN0099001N1-00101-00301999999ADDMA1102401999999MW1001REMMET041LIRL 020200Z 30001KT CAVOK M01/M03 Q1024;EQDQ01+000000PRSWM2
0093162430999992000010203004+41550+012900FM-15+0026LIRL V0203201N00151220001CN0099001N1-00101-00401999999ADDMA1102401999999MW1001REMMET041LIRL 020300Z 32003KT CAVOK M01/M04 Q1024;EQDQ01+000000PRSWM2
0092162430999992000010205004+41550+012900FM-15+0026LIRL V0203201N00211220001CN0099001N1+00101-00101999999ADDMA1102401999999MW1001REMMET040LIRL 020500Z 32004KT CAVOK 01/M01 Q1024;EQDQ01+000000PRSWM2
0188162430999992000010206004+41550+012900FM-15+0026LIRL V0209999C000012200019N0112651N1+00101-00101999999ADDGA1021+024009999GA2021+030009999GF104991999999999999999999MA1102401999999MW1001REMMET078LIRL 020600Z 00000KT 9999 SCT080 SCT100 01/M01 Q1024 RMK BKN MON INVIS NC BLU;EQDQ01+000000PRSWM2
0193162430999992000010207004+41550+012900FM-15+0026LIRL V0209999C000012200019N0112651N1+00101-00101999999ADDGA1021+024009999GA2021+030009999GF104991999999999999999999MA1102401999999MW1001REMMET083LIRL 020700Z 00000KT 9999 SCT080 SCT100 01/M01 Q1024 RMK BKN MON LIB VAR RAPID BLU;EQDQ01+000000PRSWM2
0186162430999992000010208004+41550+012900FM-15+0026LIRL V0203201N000512200019N0112651N1+00201-00101999999ADDGA1021+018009999GA2021+030009999GF104991999999999999999999MA1102511999999MW1001REMMET076LIRL 020800Z 32001KT 9999 SCT060 SCT100 02/M01 Q1025 RMK BKN MON LIB NC BLU;EQDQ01+000000PRSWM2
0162162430999992000010209004+41550+012900FM-15+0026LIRL V0203201N000512200019N0112651N1+00301+00001999999ADDGA1021+018009999GA2021+030009999GF104991999999999999999999MA1102511999999MW1001REMMET052LIRL 020900Z 32001KT 9999 SCT060 SCT100 03/00 Q1025;EQDQ01+000000PRSWM2
0185162430999992000010210004+41550+012900FM-15+0026LIRL V0203401N000512200019N0112651N1+00501+00201999999ADDGA1021+012009999GA2021+024009999GF104991999999999999999999MA1102511999999MW1001REMMET075LIRL 021000Z 34001KT 9999 FEW040 SCT080 05/02 Q1025 RMK SCT MON LIB NC BLU;EQDQ01+000000PRSWM2
0140162430999992000010211004+41550+012900FM-15+0026LIRL V0209999C000012200019N0112651N1+00701-00101999999ADDGA1021+024009999GF104991999999999999999999MA1102511999999MW1001REMMET046LIRL 021100Z 00000KT 9999 SCT080 07/M01 Q1025;EQDQ01+000000PRSWM2
0163162430999992000010212004+41550+012900FM-15+0026LIRL V0209999C000012200019N0112651N1+00901-00101999999ADDGA1021+024009999GF104991999999999999999999MA1102511999999MW1001REMMET069LIRL 021200Z 00000KT 9999 SCT080 09/M01 Q1025 RMK SCT MON LIB NC BLU;EQDQ01+000000PRSWM2
0140162430999992000010213004+41550+012900FM-15+0026LIRL V0209999C000012200019N0112651N1+01001-00101999999ADDGA1021+024009999GF104991999999999999999999MA1102401999999MW1001REMMET046LIRL 021300Z 00000KT 9999 SCT080 10/M01 Q1024;EQDQ01+000000PRSWM2
0140162430999992000010214004+41550+012900FM-15+0026LIRL V0209999C000012200019N0112651N1+01001-00101999999ADDGA1021+024009999GF102991999999999999999999MA1102401999999MW1001REMMET046LIRL 021400Z 00000KT 9999 FEW080 10/M01 Q1024;EQDQ01+000000PRSWM2
0118162430999992000010215004+41550+012900FM-15+0026LIRL V0201501N00051220001CN0099001N1+01001-00101999999ADDMA1102401999999MW1001REMMET066LIRL 021500Z 15001KT CAVOK 10/M01 Q1024 RMK FEW180 MON LIB NC BLU;EQDQ01+000000PRSWM2
0118162430999992000010216004+41550+012900FM-15+0026LIRL V0201301N00051220001CN0099001N1+00801+00001999999ADDMA1102401999999MW1001REMMET066LIRL 021600Z 13001KT CAVOK 08/M00 Q1024 RMK FEW180 MON LIB NC BLU;EQDQ01+000000PRSWM2
0091162430999992000010217004+41550+012900FM-15+0026LIRL V0200401N00051220001CN0099001N1+00701+00101999999ADDMA1102511999999MW1001REMMET039LIRL 021700Z 04001KT CAVOK 07/01 Q1025;EQDQ01+000000PRSWM2
0091162430999992000010218004+41550+012900FM-15+0026LIRL V0209999C00001220001CN0099001N1+00501+00101999999ADDMA1102511999999MW1001REMMET039LIRL 021800Z 00000KT CAVOK 05/01 Q1025;EQDQ01+000000PRSWM2
0091162430999992000010219004+41550+012900FM-15+0026LIRL V0203201N00101220001CN0099001N1+00401+00001999999ADDMA1102511999999MW1001REMMET039LIRL 021900Z 32002KT CAVOK 04/00 Q1025;EQDQ01+000000PRSWM2
0091162430999992000010220004+41550+012900FM-15+0026LIRL V0203101N00211220001CN0099001N1+00301+00101999999ADDMA1102611999999MW1001REMMET039LIRL 022000Z 31004KT CAVOK 03/01 Q1026;EQDQ01+000000PRSWM2
0091162430999992000010221004+41550+012900FM-15+0026LIRL V0201901N00051220001CN0099001N1+00201+00101999999ADDMA1102711999999MW1001REMMET039LIRL 022100Z 19001KT CAVOK 02/01 Q1027;EQDQ01+000000PRSWM2
0113162430999992000010222004+41550+012900FM-15+0026LIRL V0202601N00051220001CN0099001N1+00101+00001999999ADDMA1102711999999MW1001REMMET061LIRL 022200Z 26001KT CAVOK 01/M00 Q1027 RMK MON INVIS NC BLU;EQDQ01+000000PRSWM2
0092162430999992000010223004+41550+012900FM-15+0026LIRL V0202701N00101220001CN0099001N1+00101+00001999999ADDMA1102711999999MW1001REMMET040LIRL 022300Z 27002KT CAVOK 01/M00 Q1027;EQDQ01+000000PRSWM2
0092162430999992000010300004+41550+012900FM-15+0026LIRL V0200301N00151220001CN0099001N1+00101+00001999999ADDMA1102711999999MW1001REMMET040LIRL 030000Z 03003KT CAVOK 01/M00 Q1027;EQDQ01+000000PRSWM2
0092162430999992000010301004+41550+012900FM-15+0026LIRL V0203501N00151220001CN0099001N1+00101+00001999999ADDMA1102711999999MW1001REMMET040LIRL 030100Z 35003KT CAVOK 01/M00 Q1027;EQDQ01+000000PRSWM2
0091162430999992000010303004+41550+012900FM-15+0026LIRL V0209999C00001220001CN0099001N1+00401+00001999999ADDMA1102711999999MW1001REMMET039LIRL 030300Z 00000KT CAVOK 04/00 Q1027;EQDQ01+000000PRSWM2
0113162430999992000010304004+41550+012900FM-15+0026LIRL V0209999C00001220001CN0099001N1+00501+00001999999ADDMA1102711999999MW1001REMMET061LIRL 030400Z 00000KT CAVOK 05/M00 Q1027 RMK MON INVIS NC BLU;EQDQ01+000000PRSWM2
0091162430999992000010305004+41550+012900FM-15+0026LIRL V0203101N00211220001CN0099001N1+00501+00001999999ADDMA1102711999999MW1001REMMET039LIRL 030500Z 31004KT CAVOK 05/00 Q1027;EQDQ01+000000PRSWM2
0092162430999992000010306004+41550+012900FM-15+0026LIRL V0200201N00211220001CN0099001N1+00401-00101999999ADDMA1102711999999MW1001REMMET040LIRL 030600Z 02004KT CAVOK 04/M01 Q1027;EQDQ01+000000PRSWM2
0091162430999992000010307004+41550+012900FM-15+0026LIRL V0209999C00001220001CN0099001N1+00201+00101999999ADDMA1102711999999MW1001REMMET039LIRL 030700Z 00000KT CAVOK 02/01 Q1027;EQDQ01+000000PRSWM2
0140162430999992000010308004+41550+012900FM-15+0026LIRL V0209999C000012200019N0112651N1+00201+00001999999ADDGA1021+024009999GF102991999999999999999999MA1102711999999MW1001REMMET046LIRL 030800Z 00000KT 9999 FEW080 02/M00 Q1027;EQDQ01+000000PRSWM2
0162162430999992000010309004+41550+012900FM-15+0026LIRL V0209999C000012200019N0112651N1+00401+00101999999ADDGA1021+024009999GF102991999999999999999999MA1102811999999MW1001REMMET068LIRL 030900Z 00000KT 9999 FEW080 04/01 Q1028 RMK FEW MON LIB NC BLU;EQDQ01+000000PRSWM2
0139162430999992000010310004+41550+012900FM-15+0026LIRL V0209999C000012200019N0112651N1+00701+00201999999ADDGA1021+024009999GF102991999999999999999999MA1102811999999MW1001REMMET045LIRL 031000Z 00000KT 9999 FEW080 07/02 Q1028;EQDQ01+000000PRSWM2
0162162430999992000010311004+41550+012900FM-15+0026LIRL V0201701N000512200019N0112651N1+01001+00201999999ADDGA1021+024009999GF102991999999999999999999MA1102811999999MW1001REMMET068LIRL 031100Z 17001KT 9999 FEW080 10/02 Q1028 RMK FEW MON LIB NC BLU;EQDQ01+000000PRSWM2
0139162430999992000010312004+41550+012900FM-15+0026LIRL V0209999C000012200019N0112651N1+01101+00101999999ADDGA1021+024009999GF102991999999999999999999MA1102811999999MW1001REMMET045LIRL 031200Z 00000KT 9999 FEW080 11/01 Q1028;EQDQ01+000000PRSWM2
0091162430999992000010313004+41550+012900FM-15+0026LIRL V0202601N00101220001CN0099001N1+01201+00101999999ADDMA1102811999999MW1001REMMET039LIRL 031300Z 26002KT CAVOK 12/01 Q1028;EQDQ01+000000PRSWM2
0092162430999992000010314004+41550+012900FM-15+0026LIRL V0202401N00101220001CN0099001N1+01201-00101999999ADDMA1102811999999MW1001REMMET040LIRL 031400Z 24002KT CAVOK 12/M01 Q1028;EQDQ01+000000PRSWM2
0092162430999992000010315004+41550+012900FM-15+0026LIRL V0202601N00151220001CN0099001N1+01201+00001999999ADDMA1102811999999MW1001REMMET040LIRL 031500Z 26003KT CAVOK 12/M00 Q1028;EQDQ01+000000PRSWM2
0110162430999992000010316004+41550+012900FM-15+0026LIRL V0202601N00101220001CN0099001N1+01101+00001999999ADDMA1102811999999MW1001REMMET058LIRL 031600Z 26002KT CAVOK 11/00 Q1028 RMK MON LIB NC BLU;EQDQ01+000000PRSWM2
0091162430999992000010317004+41550+012900FM-15+0026LIRL V0203201N00101220001CN0099001N1+01001+00201999999ADDMA1102711999999MW1001REMMET039LIRL 031700Z 32002KT CAVOK 10/02 Q1027;EQDQ01+000000PRSWM2
0112162430999992000010318004+41550+012900FM-15+0026LIRL V0200501N00051220001CN0099001N1+00801+00201999999ADDMA1102711999999MW1001REMMET060LIRL 031800Z 05001KT CAVOK 08/02 Q1027 RMK MON INVIS NC BLU;EQDQ01+000000PRSWM2
0112162430999992000010319004+41550+012900FM-15+0026LIRL V0202901N00051220001CN0099001N1+00601+00201999999ADDMA1102711999999MW1001REMMET060LIRL 031900Z 29001KT CAVOK 06/02 Q1027 RMK MON INVIS NC BLU;EQDQ01+000000PRSWM2
0112162430999992000010320004+41550+012900FM-15+0026LIRL V0209999C00001220001CN0099001N1+00401+00201999999ADDMA1102811999999MW1001REMMET060LIRL 032000Z 00000KT CAVOK 04/02 Q1028 RMK MON INVIS NC BLU;EQDQ01+000000PRSWM2
0091162430999992000010321004+41550+012900FM-15+0026LIRL V0203101N00101220001CN0099001N1+00301+00201999999ADDMA1102811999999MW1001REMMET039LIRL 032100Z 31002KT CAVOK 03/02 Q1028;EQDQ01+000000PRSWM2
0092162430999992000010322004+41550+012900FM-15+0026LIRL V0203001N00211220001CN0099001N1+00101+00001999999ADDMA1102811999999MW1001REMMET040LIRL 032200Z 30004KT CAVOK 01/M00 Q1028;EQDQ01+000000PRSWM2
0091162430999992000010323004+41550+012900FM-15+0026LIRL V0209999C00001220001CN0099001N1+00101+00101999999ADDMA1102811999999MW1001REMMET039LIRL 032300Z 00000KT CAVOK 01/01 Q1028;EQDQ01+000000PRSWM2
0091162430999992000010400004+41550+012900FM-15+0026LIRL V0203001N00101220001CN0099001N1+00101+00101999999ADDMA1102811999999MW1001REMMET039LIRL 040000Z 30002KT CAVOK 01/01 Q1028;EQDQ01+000000PRSWM2
0091162430999992000010401004+41550+012900FM-15+0026LIRL V0203301N00051220001CN0099001N1+00101+00001999999ADDMA1102811999999MW1001REMMET039LIRL 040100Z 33001KT CAVOK 01/00 Q1028;EQDQ01+000000PRSWM2
0091162430999992000010402004+41550+012900FM-15+0026LIRL V0203301N00051220001CN0099001N1+00101+00001999999ADDMA1102711999999MW1001REMMET039LIRL 040200Z 33001KT CAVOK 01/00 Q1027;EQDQ01+000000PRSWM2
0092162430999992000010403004+41550+012900FM-15+0026LIRL V0203001N00051220001CN0099001N1+00101-00101999999ADDMA1102711999999MW1001REMMET040LIRL 040300Z 30001KT CAVOK 01/M01 Q1027;EQDQ01+000000PRSWM2
0093162430999992000010404004+41550+012900FM-15+0026LIRL V0209999C00001220001CN0099001N1-00101-00101999999ADDMA1102711999999MW1001REMMET041LIRL 040400Z 00000KT CAVOK M01/M01 Q1027;EQDQ01+000000PRSWM2
0114162430999992000010405004+41550+012900FM-15+0026LIRL V0209999C00001220001CN0099001N1+00001-00101999999ADDMA1102611999999MW1001REMMET062LIRL 040500Z 00000KT CAVOK M00/M01 Q1026 RMK MON INVIS NC BLU;EQDQ01+000000PRSWM2
0114162430999992000010406004+41550+012900FM-15+0026LIRL V0209999C00001220001CN0099001N1+00001-00101999999ADDMA1102611999999MW1001REMMET062LIRL 040600Z 00000KT CAVOK M00/M01 Q1026 RMK MON INVIS NC BLU;EQDQ01+000000PRSWM2
0126162430999992000010407004+41550+012900FM-15+0026LIRL V0209999C00001220001CN0099001N1-00101-00201999999ADDMA1102611999999MW1001REMMET074LIRL 040700Z 00000KT CAVOK M01/M02 Q1026 RMK FEW200 MON LIB VAR RAPID BLU;EQDQ01+000000PRSWM2
0112162430999992000010408004+41550+012900FM-15+0026LIRL V0203301N00101220001CN0099001N1+00001-00101999999ADDMA1102611999999MW1001REMMET060LIRL 040800Z 33002KT CAVOK M00/M01 Q1026 RMK MON LIB NC BLU;EQDQ01+000000PRSWM2
0092162430999992000010409004+41550+012900FM-15+0026LIRL V0209999C00001220001CN0099001N1+00301-00101999999ADDMA1102611999999MW1001REMMET040LIRL 040900Z 00000KT CAVOK 03/M01 Q1026;EQDQ01+000000PRSWM2
0091162430999992000010410004+41550+012900FM-15+0026LIRL V0209999C00001220001CN0099001N1+00601+00201999999ADDMA1102611999999MW1001REMMET039LIRL 041000Z 00000KT CAVOK 06/02 Q1026;EQDQ01+000000PRSWM2
0091162430999992000010411004+41550+012900FM-15+0026LIRL V0209999C00001220001CN0099001N1+00901+00301999999ADDMA1102611999999MW1001REMMET039LIRL 041100Z 00000KT CAVOK 09/03 Q1026;EQDQ01+000000PRSWM2
0091162430999992000010412004+41550+012900FM-15+0026LIRL V0209999C00001220001CN0099001N1+01101+00101999999ADDMA1102511999999MW1001REMMET039LIRL 041200Z 00000KT CAVOK 11/01 Q1025;EQDQ01+000000PRSWM2
0110162430999992000010413004+41550+012900FM-15+0026LIRL V0209999C00001220001CN0099001N1+01201+00201999999ADDMA1102401999999MW1001REMMET058LIRL 041300Z 00000KT CAVOK 12/02 Q1024 RMK MON LIB NC BLU;EQDQ01+000000PRSWM2
0091162430999992000010414004+41550+012900FM-15+0026LIRL V0202601N00311220001CN0099001N1+01301+00201999999ADDMA1102401999999MW1001REMMET039LIRL 041400Z 26006KT CAVOK 13/02 Q1024;EQDQ01+000000PRSWM2
0091162430999992000010415004+41550+012900FM-15+0026LIRL V0202701N00461220001CN0099001N1+01301+00201999999ADDMA1102401999999MW1001REMMET039LIRL 041500Z 27009KT CAVOK 13/02 Q1024;EQDQ01+000000PRSWM2
0110162430999992000010417004+41550+012900FM-15+0026LIRL V0202601N00511220001CN0099001N1+00901+00401999999ADDMA1102401999999MW1001REMMET058LIRL 041700Z 26010KT CAVOK 09/04 Q1024 RMK MON LIB NC BLU;EQDQ01+000000PRSWM2
0091162430999992000010418004+41550+012900FM-15+0026LIRL V0202801N00411220001CN0099001N1+00701+00501999999ADDMA1102401999999MW1001REMMET039LIRL 041800Z 28008KT CAVOK 07/05 Q1024;EQDQ01+000000PRSWM2
0112162430999992000010419004+41550+012900FM-15+0026LIRL V0200201N00101220001CN0099001N1+00701+00501999999ADDMA1102401999999MW1001REMMET060LIRL 041900Z 02002KT CAVOK 07/05 Q1024 RMK MON INVIS NC BLU;EQDQ01+000000PRSWM2
0091162430999992000010421004+41550+012900FM-15+0026LIRL V0209999C00001220001CN0099001N1+00401+00301999999ADDMA1102401999999MW1001REMMET039LIRL 042100Z 00000KT CAVOK 04/03 Q1024;EQDQ01+000000PRSWM2
0112162430999992000010422004+41550+012900FM-15+0026LIRL V0209999C00001220001CN0099001N1+00301+00301999999ADDMA1102401999999MW1001REMMET060LIRL 042200Z 00000KT CAVOK 03/03 Q1024 RMK MON INVIS NC BLU;EQDQ01+000000PRSWM2
0112162430999992000010423004+41550+012900FM-15+0026LIRL V0209999C00001220001CN0099001N1+00201+00201999999ADDMA1102301999999MW1001REMMET060LIRL 042300Z 00000KT CAVOK 02/02 Q1023 RMK MON INVIS NC BLU;EQDQ01+000000PRSWM2
0091162430999992000010500004+41550+012900FM-15+0026LIRL V0209999C00001220001CN0099001N1+00101+00101999999ADDMA1102301999999MW1001REMMET039LIRL 050000Z 00000KT CAVOK 01/01 Q1023;EQDQ01+000000PRSWM2
0092162430999992000010501004+41550+012900FM-15+0026LIRL V0209999C00001220001CN0099001N1+00001+00001999999ADDMA1102301999999MW1001REMMET040LIRL 050100Z 00000KT CAVOK 00/M00 Q1023;EQDQ01+000000PRSWM2
0092162430999992000010503004+41550+012900FM-15+0026LIRL V0209999C00001220001CN0099001N1+00001+00001999999ADDMA1102301999999MW1001REMMET040LIRL 050300Z 00000KT CAVOK 00/M00 Q1023;EQDQ01+000000PRSWM2
0092162430999992000010505004+41550+012900FM-15+0026LIRL V0209999C00001220001CN0099001N1+00001+00001999999ADDMA1102201999999MW1001REMMET040LIRL 050500Z 00000KT CAVOK 00/M00 Q1022;EQDQ01+000000PRSWM2
0093162430999992000010506004+41550+012900FM-15+0026LIRL V0209999C00001220001CN0099001N1-00101-00201999999ADDMA1102201999999MW1001REMMET041LIRL 050600Z 00000KT CAVOK M01/M02 Q1022;EQDQ01+000000PRSWM2
0119162430999992000010507004+41550+012900FM-15+0026LIRL V0209999C00001220001CN0099001N1-00101-00101999999ADDMA1102201999999MW1001REMMET067LIRL 050700Z 00000KT CAVOK M01/M01 Q1022 RMK MON LIB VAR RAPID BLU;EQDQ01+000000PRSWM2
0092162430999992000010508004+41550+012900FM-15+0026LIRL V0209999C00001220001CN0099001N1+00001+00001999999ADDMA1102201999999MW1001REMMET040LIRL 050800Z 00000KT CAVOK 00/M00 Q1022;EQDQ01+000000PRSWM2
0110162430999992000010509004+41550+012900FM-15+0026LIRL V0209999C00001220001CN0099001N1+00301+00301999999ADDMA1102201999999MW1001REMMET058LIRL 050900Z 00000KT CAVOK 03/03 Q1022 RMK MON LIB NC BLU;EQDQ01+000000PRSWM2
0162162430999992000010510004+41550+012900FM-15+0026LIRL V0201301N001012200019N0080001N1+00801+00501999999ADDGA1021+009009999GF102991999999999999999999MA1102201999999MW1001REMMET068LIRL 051000Z 13002KT 8000 FEW030 08/05 Q1022 RMK FEW MON LIB NC BLU;EQDQ01+000000PRSWM2
0139162430999992000010511004+41550+012900FM-15+0026LIRL V0201401N001012200019N0080001N1+01001+00601999999ADDGA1021+009009999GF102991999999999999999999MA1102201999999MW1001REMMET045LIRL 051100Z 14002KT 8000 FEW030 10/06 Q1022;EQDQ01+000000PRSWM2
0139162430999992000010512004+41550+012900FM-15+0026LIRL V0202801N001012200019N0112651N1+01201+00701999999ADDGA1021+009009999GF102991999999999999999999MA1102201999999MW1001REMMET045LIRL 051200Z 28002KT 9999 FEW030 12/07 Q1022;EQDQ01+000000PRSWM2
0162162430999992000010513004+41550+012900FM-15+0026LIRL V0202901N001512200019N0112651N1+01201+00801999999ADDGA1021+009009999GF102991999999999999999999MA1102201999999MW1001REMMET068LIRL 051300Z 29003KT 9999 FEW030 12/08 Q1022 RMK SCT MON LIB NC BLU;EQDQ01+000000PRSWM2
0162162430999992000010514004+41550+012900FM-15+0026LIRL V0203101N001012200019N0112651N1+01201+00801999999ADDGA1021+009009999GF102991999999999999999999MA1102101999999MW1001REMMET068LIRL 051400Z 31002KT 9999 FEW030 12/08 Q1021 RMK FEW MON LIB NC BLU;EQDQ01+000000PRSWM2
0162162430999992000010515004+41550+012900FM-15+0026LIRL V0202301N000512200019N0112651N1+01201+00801999999ADDGA1021+009009999GF102991999999999999999999MA1102101999999MW1001REMMET068LIRL 051500Z 23001KT 9999 FEW030 12/08 Q1021 RMK FEW MON LIB NC BLU;EQDQ01+000000PRSWM2
0139162430999992000010516004+41550+012900FM-15+0026LIRL V0202101N000512200019N0090001N1+01101+00701999999ADDGA1021+066009999GF102991999999999999999999MA1102101999999MW1001REMMET045LIRL 051600Z 21001KT 9000 FEW220 11/07 Q1021;EQDQ01+000000PRSWM2
0171162430999992000010517004+41550+012900FM-15+0026LIRL V0201101N000512200019N0090001N1+00901+00701999999ADDGA1021+060009999GF102991999999999999999999MA1102201999999MW1001REMMET077LIRL 051700Z 11001KT 9000 FEW200 09/07 Q1022 RMK FEW MON INVIS VAR RAPID BLU;EQDQ01+000000PRSWM2
0141162430999992000010519004+41550+012900FM-15+0026LIRL V0209999C000012200019N0090001N1+00501+00501999999ADDGF100991999999999999999999MA1102201999999MW1001REMMET063LIRL 051900Z 00000KT 9000 SKC 05/05 Q1022 RMK MON INVIS NC BLU;EQDQ01+000000PRSWM2
0091162430999992000010521004+41550+012900FM-15+0026LIRL V0209999C00001220001CN0099001N1+00401+00301999999ADDMA1102301999999MW1001REMMET039LIRL 052100Z 00000KT CAVOK 04/03 Q1023;EQDQ01+000000PRSWM2
0112162430999992000010522004+41550+012900FM-15+0026LIRL V0209999C00001220001CN0099001N1+00401+00301999999ADDMA1102301999999MW1001REMMET060LIRL 052200Z 00000KT CAVOK 04/03 Q1023 RMK MON INVIS NC BLU;EQDQ01+000000PRSWM2
0141162430999992000010601004+41550+012900FM-15+0026LIRL V0203301N001012200019N0090001N1+00301+00201999999ADDGF100991999999999999999999MA1102301999999MW1001REMMET063LIRL 060100Z 33002KT 9000 SKC 03/02 Q1023 RMK MON INVIS NC BLU;EQDQ01+000000PRSWM2
0091162430999992000010602004+41550+012900FM-15+0026LIRL V0203201N00211220001CN0099001N1+00301+00201999999ADDMA1102301999999MW1001REMMET039LIRL 060200Z 32004KT CAVOK 03/02 Q1023;EQDQ01+000000PRSWM2
0112162430999992000010603004+41550+012900FM-15+0026LIRL V0203201N00051220001CN0099001N1+00301+00201999999ADDMA1102301999999MW1001REMMET060LIRL 060300Z 32001KT CAVOK 03/02 Q1023 RMK MON INVIS NC BLU;EQDQ01+000000PRSWM2
0112162430999992000010604004+41550+012900FM-15+0026LIRL V0209999C00001220001CN0099001N1+00201+00201999999ADDMA1102301999999MW1001REMMET060LIRL 060400Z 00000KT CAVOK 02/02 Q1023 RMK MON INVIS NC BLU;EQDQ01+000000PRSWM2
0091162430999992000010605004+41550+012900FM-15+0026LIRL V0203201N00151220001CN0099001N1+00201+00101999999ADDMA1102301999999MW1001REMMET039LIRL 060500Z 32003KT CAVOK 02/01 Q1023;EQDQ01+000000PRSWM2
0091162430999992000010606004+41550+012900FM-15+0026LIRL V0203201N00051220001CN0099001N1+00301+00201999999ADDMA1102301999999MW1001REMMET039LIRL 060600Z 32001KT CAVOK 03/02 Q1023;EQDQ01+000000PRSWM2
0117162430999992000010607004+41550+012900FM-15+0026LIRL V0203101N00101220001CN0099001N1+00201+00101999999ADDMA1102301999999MW1001REMMET065LIRL 060700Z 31002KT CAVOK 02/01 Q1023 RMK MON LIB VAR RAPID BLU;EQDQ01+000000PRSWM2
0139162430999992000010609004+41550+012900FM-15+0026LIRL V0209999C000012200019N0090001N1+00601+00501999999ADDGF100991999999999999999999MA1102301999999MW1001REMMET061LIRL 060900Z 00000KT 9000 SKC 06/05 Q1023 RMK MON LIB NC BLU;EQDQ01+000000PRSWM2
0120162430999992000010610004+41550+012900FM-15+0026LIRL V0209999C000012200019N0090001N1+01001+00701999999ADDGF100991999999999999999999MA1102301999999MW1001REMMET042LIRL 061000Z 00000KT 9000 SKC 10/07 Q1023;EQDQ01+000000PRSWM2
0139162430999992000010611004+41550+012900FM-15+0026LIRL V0209999C000012200019N0090001N1+01201+00601999999ADDGF100991999999999999999999MA1102301999999MW1001REMMET061LIRL 061100Z 00000KT 9000 SKC 12/06 Q1023 RMK MON LIB NC BLU;EQDQ01+000000PRSWM2
0120162430999992000010612004+41550+012900FM-15+0026LIRL V0203001N001012200019N0090001N1+01301+00701999999ADDGF100991999999999999999999MA1102301999999MW1001REMMET042LIRL 061200Z 30002KT 9000 SKC 13/07 Q1023;EQDQ01+000000PRSWM2
0139162430999992000010613004+41550+012900FM-15+0026LIRL V0202601N002612200019N0090001N1+01301+00601999999ADDGF100991999999999999999999MA1102301999999MW1001REMMET061LIRL 061300Z 26005KT 9000 SKC 13/06 Q1023 RMK MON LIB NC BLU;EQDQ01+000000PRSWM2
0110162430999992000010614004+41550+012900FM-15+0026LIRL V0202501N00211220001CN0099001N1+01301+00601999999ADDMA1102301999999MW1001REMMET058LIRL 061400Z 25004KT CAVOK 13/06 Q1023 RMK MON LIB NC BLU;EQDQ01+000000PRSWM2
0110162430999992000010615004+41550+012900FM-15+0026LIRL V0202701N00211220001CN0099001N1+01301+00601999999ADDMA1102301999999MW1001REMMET058LIRL 061500Z 27004KT CAVOK 13/06 Q1023 RMK MON LIB NC BLU;EQDQ01+000000PRSWM2
0139162430999992000010616004+41550+012900FM-15+0026LIRL V0202701N003112200019N0070001N1+01101+00601999999ADDGF100991999999999999999999MA1102301999999MW1001REMMET061LIRL 061600Z 27006KT 7000 SKC 11/06 Q1023 RMK MON LIB NC WHT;EQDQ01+000000PRSWM2
0120162430999992000010617004+41550+012900FM-15+0026LIRL V0209999C000012200019N0060001N1+00901+00601999999ADDGF100991999999999999999999MA1102301999999MW1001REMMET042LIRL 061700Z 00000KT 6000 SKC 09/06 Q1023;EQDQ01+000000PRSWM2
0141162430999992000010620004+41550+012900FM-15+0026LIRL V0200401N000512200019N0060001N1+00501+00401999999ADDGF100991999999999999999999MA1102301999999MW1001REMMET063LIRL 062000Z 04001KT 6000 SKC 05/04 Q1023 RMK MON INVIS NC WHT;EQDQ01+000000PRSWM2
0141162430999992000010621004+41550+012900FM-15+0026LIRL V0209999C000012200019N0060001N1+00401+00301999999ADDGF100991999999999999999999MA1102301999999MW1001REMMET063LIRL 062100Z 00000KT 6000 SKC 04/03 Q1023 RMK MON INVIS NC WHT;EQDQ01+000000PRSWM2
0141162430999992000010622004+41550+012900FM-15+0026LIRL V0209999C000012200019N0070001N1+00301+00201999999ADDGF100991999999999999999999MA1102301999999MW1001REMMET063LIRL 062200Z 00000KT 7000 SKC 03/02 Q1023 RMK MON INVIS NC WHT;EQDQ01+000000PRSWM2
0141162430999992000010623004+41550+012900FM-15+0026LIRL V0209999C000012200019N0070001N1+00301+00301999999ADDGF100991999999999999999999MA1102301999999MW1001REMMET063LIRL 062300Z 00000KT 7000 SKC 03/03 Q1023 RMK MON INVIS NC WHT;EQDQ01+000000PRSWM2
0120162430999992000010700004+41550+012900FM-15+0026LIRL V0209999C000012200019N0070001N1+00201+00101999999ADDGF100991999999999999999999MA1102301999999MW1001REMMET042LIRL 070000Z 00000KT 7000 SKC 02/01 Q1023;EQDQ01+000000PRSWM2
0141162430999992000010701004+41550+012900FM-15+0026LIRL V0209999C000012200019N0070001N1+00201+00101999999ADDGF100991999999999999999999MA1102301999999MW1001REMMET063LIRL 070100Z 00000KT 7000 SKC 02/01 Q1023 RMK MON INVIS NC WHT;EQDQ01+000000PRSWM2
0121162430999992000010702004+41550+012900FM-15+0026LIRL V0203101N001512200019N0070001N1+00101+00001999999ADDGF100991999999999999999999MA1102301999999MW1001REMMET043LIRL 070200Z 31003KT 7000 SKC 01/M00 Q1023;EQDQ01+000000PRSWM2
0120162430999992000010703004+41550+012900FM-15+0026LIRL V0203101N001012200019N0070001N1+00101+00101999999ADDGF100991999999999999999999MA1102301999999MW1001REMMET042LIRL 070300Z 31002KT 7000 SKC 01/01 Q1023;EQDQ01+000000PRSWM2
0121162430999992000010705004+41550+012900FM-15+0026LIRL V0203001N000512200019N0060001N1+00101+00001999999ADDGF100991999999999999999999MA1102301999999MW1001REMMET043LIRL 070500Z 30001KT 6000 SKC 01/M00 Q1023;EQDQ01+000000PRSWM2
0143162430999992000010706004+41550+012900FM-15+0026LIRL V0209999C000012200019N0060001N1+00001-00101999999ADDGF100991999999999999999999MA1102301999999MW1001REMMET065LIRL 070600Z 00000KT 6000 SKC M00/M01 Q1023 RMK MON INVIS NC WHT;EQDQ01+000000PRSWM2
0148162430999992000010707004+41550+012900FM-15+0026LIRL V0203101N000512200019N0060001N1-00101-00201999999ADDGF100991999999999999999999MA1102301999999MW1001REMMET070LIRL 070700Z 31001KT 6000 SKC M01/M02 Q1023 RMK MON LIB VAR RAPID WHT;EQDQ01+000000PRSWM2
0139162430999992000010708004+41550+012900FM-15+0026LIRL V0203201N000512200019N0070001N1+00201+00101999999ADDGF100991999999999999999999MA1102401999999MW1001REMMET061LIRL 070800Z 32001KT 7000 SKC 02/01 Q1024 RMK MON LIB NC WHT;EQDQ01+000000PRSWM2
0139162430999992000010709004+41550+012900FM-15+0026LIRL V0203101N001012200019N0060001N1+00401+00301999999ADDGF100991999999999999999999MA1102401999999MW1001REMMET061LIRL 070900Z 31002KT 6000 SKC 04/03 Q1024 RMK MON LIB NC WHT;EQDQ01+000000PRSWM2
0139162430999992000010710004+41550+012900FM-15+0026LIRL V0209999C000012200019N0060001N1+00901+00701999999ADDGF100991999999999999999999MA1102401999999MW1001REMMET061LIRL 071000Z 00000KT 6000 SKC 09/07 Q1024 RMK MON LIB NC WHT;EQDQ01+000000PRSWM2
0158162430999992000010711004+41550+012900FM-15+0026LIRL V0209999C000012200019N0050001N1+01101+00701999999ADDGF100991999999999999999999MA1102401999999MW1101REMMET064LIRL 071100Z 00000KT 5000 BR SKC 11/07 Q1024 RMK MON LIB NC WHT;EQDQ01+000003PRSWM1Q02    003PRSWM1
0158162430999992000010712004+41550+012900FM-15+0026LIRL V0201801N001012200019N0050001N1+01201+00801999999ADDGA1021+006009999GF102991999999999999999999MA1102401999999MW1101REMMET048LIRL 071200Z 18002KT 5000 BR FEW020 12/08 Q1024;EQDQ01+000003PRSWM1Q02    003PRSWM1
0162162430999992000010713004+41550+012900FM-15+0026LIRL V0201401N001012200019N0060001N1+01201+00801999999ADDGA1021+006009999GF102991999999999999999999MA1102301999999MW1001REMMET068LIRL 071300Z 14002KT 6000 FEW020 12/08 Q1023 RMK FEW MON LIB NC WHT;EQDQ01+000000PRSWM2
0162162430999992000010714004+41550+012900FM-15+0026LIRL V0201901N000512200019N0060001N1+01201+00801999999ADDGA1021+006009999GF102991999999999999999999MA1102301999999MW1001REMMET068LIRL 071400Z 19001KT 6000 FEW020 12/08 Q1023 RMK FEW MON LIB NC WHT;EQDQ01+000000PRSWM2
0139162430999992000010715004+41550+012900FM-15+0026LIRL V0202301N000512200019N0060001N1+01201+00801999999ADDGA1021+012009999GF104991999999999999999999MA1102301999999MW1001REMMET045LIRL 071500Z 23001KT 6000 SCT040 12/08 Q1023;EQDQ01+000000PRSWM2
0139162430999992000010716004+41550+012900FM-15+0026LIRL V0209999C000012200019N0060001N1+01101+00801999999ADDGA1021+012009999GF104991999999999999999999MA1102301999999MW1001REMMET045LIRL 071600Z 00000KT 6000 SCT040 11/08 Q1023;EQDQ01+000000PRSWM2
0171162430999992000010717004+41550+012900FM-15+0026LIRL V0209999C000012200019N0060001N1+00901+00701999999ADDGA1021+012009999GF102991999999999999999999MA1102301999999MW1001REMMET077LIRL 071700Z 00000KT 6000 FEW040 09/07 Q1023 RMK FEW MON INVIS VAR RAPID WHT;EQDQ01+000000PRSWM2
0164162430999992000010718004+41550+012900FM-15+0026LIRL V0209999C000012200019N0060001N1+00701+00601999999ADDGA1021+009009999GF102991999999999999999999MA1102301999999MW1001REMMET070LIRL 071800Z 00000KT 6000 FEW030 07/06 Q1023 RMK FEW MON INVIS NC WHT;EQDQ01+000000PRSWM2
0139162430999992000010719004+41550+012900FM-15+0026LIRL V0209999C000012200019N0060001N1+00601+00501999999ADDGA1021+009009999GF102991999999999999999999MA1102301999999MW1001REMMET045LIRL 071900Z 00000KT 6000 FEW030 06/05 Q1023;EQDQ01+000000PRSWM2
0164162430999992000010720004+41550+012900FM-15+0026LIRL V0209999C000012200019N0060001N1+00401+00301999999ADDGA1021+013509999GF104991999999999999999999MA1102301999999MW1001REMMET070LIRL 072000Z 00000KT 6000 SCT045 04/03 Q1023 RMK SCT MON INVIS NC WHT;EQDQ01+000000PRSWM2
0164162430999992000010721004+41550+012900FM-15+0026LIRL V0202801N000510135019N0060001N1+00401+00401999999ADDGA1071+013509999GF107991999999999999999999MA1102301999999MW1001REMMET070LIRL 072100Z 28001KT 6000 BKN045 04/04 Q1023 RMK BKN MON INVIS NC WHT;EQDQ01+000000PRSWM2
0139162430999992000010722004+41550+012900FM-15+0026LIRL V0209999C000010135019N0060001N1+00401+00301999999ADDGA1071+013509999GF107991999999999999999999MA1102301999999MW1001REMMET045LIRL 072200Z 00000KT 6000 BKN045 04/03 Q1023;EQDQ01+000000PRSWM2
0164162430999992000010723004+41550+012900FM-15+0026LIRL V0203201N001010135019N0060001N1+00401+00301999999ADDGA1071+013509999GF107991999999999999999999MA1102301999999MW1001REMMET070LIRL 072300Z 32002KT 6000 BKN045 04/03 Q1023 RMK BKN MON INVIS NC WHT;EQDQ01+000000PRSWM2
0139162430999992000010800004+41550+012900FM-15+0026LIRL V0203201N001010135019N0070001N1+00701+00601999999ADDGA1071+013509999GF107991999999999999999999MA1102401999999MW1001REMMET045LIRL 080000Z 32002KT 7000 BKN045 07/06 Q1024;EQDQ01+000000PRSWM2
0139162430999992000010801004+41550+012900FM-15+0026LIRL V0203501N001010135019N0070001N1+00701+00601999999ADDGA1071+013509999GF107991999999999999999999MA1102401999999MW1001REMMET045LIRL 080100Z 35002KT 7000 BKN045 07/06 Q1024;EQDQ01+000000PRSWM2
0139162430999992000010802004+41550+012900FM-15+0026LIRL V0200201N000510135019N0070001N1+00601+00501999999ADDGA1071+013509999GF107991999999999999999999MA1102401999999MW1001REMMET045LIRL 080200Z 02001KT 7000 BKN045 06/05 Q1024;EQDQ01+000000PRSWM2
0139162430999992000010803004+41550+012900FM-15+0026LIRL V0209999C000012200019N0080001N1+00501+00401999999ADDGA1021+013509999GF104991999999999999999999MA1102401999999MW1001REMMET045LIRL 080300Z 00000KT 8000 SCT045 05/04 Q1024;EQDQ01+000000PRSWM2
0139162430999992000010804004+41550+012900FM-15+0026LIRL V0203601N000512200019N0080001N1+00501+00401999999ADDGA1021+013509999GF104991999999999999999999MA1102401999999MW1001REMMET045LIRL 080400Z 36001KT 8000 SCT045 05/04 Q1024;EQDQ01+000000PRSWM2
0139162430999992000010806004+41550+012900FM-15+0026LIRL V0203201N001512200019N0080001N1+00501+00301999999ADDGA1021+010509999GF104991999999999999999999MA1102301999999MW1001REMMET045LIRL 080600Z 32003KT 8000 SCT035 05/03 Q1023;EQDQ01+000000PRSWM2
0169162430999992000010807004+41550+012900FM-15+0026LIRL V0203201N001010180019N0060001N1+00501+00401999999ADDGA1071+018009999GF107991999999999999999999MA1102301999999MW1001REMMET075LIRL 080700Z 32002KT 6000 BKN060 05/04 Q1023 RMK BKN MON LIB VAR RAPID WHT;EQDQ01+000000PRSWM2
0139162430999992000010808004+41550+012900FM-15+0026LIRL V0203201N001010210019N0070001N1+00501+00301999999ADDGA1071+021009999GF107991999999999999999999MA1102401999999MW1001REMMET045LIRL 080800Z 32002KT 7000 BKN070 05/03 Q1024;EQDQ01+000000PRSWM2
0162162430999992000010809004+41550+012900FM-15+0026LIRL V0209999C000012200019N0080001N1+00601+00501999999ADDGA1021+010509999GA2021+021009999GF104991999999999999999999MA1102401999999MW1001REMMET052LIRL 080900Z 00000KT 8000 FEW035 SCT070 06/05 Q1024;EQDQ01+000000PRSWM2
0139162430999992000010810004+41550+012900FM-15+0026LIRL V0209999C000012200019N0060001N1+00801+00701999999ADDGA1021+010509999GF102991999999999999999999MA1102401999999MW1001REMMET045LIRL 081000Z 00000KT 6000 FEW035 08/07 Q1024;EQDQ01+000000PRSWM2
0204162430999992000010811004+41550+012900FM-15+0026LIRL V0209999C000012200019N0050001N1+01101+00801999999ADDGA1021+010509999GA2021+066009999GF104991999999999999999999MA1102401999999MW1101REMMET078LIRL 081100Z 00000KT 5000 BR FEW035 SCT220 11/08 Q1024 RMK BKN MON LIB NC WHT;EQDQ01+000003PRSWM1Q02    003PRSWM1
0185162430999992000010812004+41550+012900FM-15+0026LIRL V0201701N000512200019N0090001N1+01301+00801999999ADDGA1021+010509999GA2021+066009999GF104991999999999999999999MA1102401999999MW1001REMMET075LIRL 081200Z 17001KT 9000 FEW035 SCT220 13/08 Q1024 RMK BKN MON LIB NC BLU;EQDQ01+000000PRSWM2
0185162430999992000010813004+41550+012900FM-15+0026LIRL V0202001N000512200019N0080001N1+01201+00501999999ADDGA1021+010509999GA2021+021009999GF104991999999999999999999MA1102401999999MW1001REMMET075LIRL 081300Z 20001KT 8000 FEW035 SCT070 12/05 Q1024 RMK BKN MON LIB NC BLU;EQDQ01+000000PRSWM2
0185162430999992000010814004+41550+012900FM-15+0026LIRL V0209999C000012200019N0080001N1+01201+00501999999ADDGA1021+012009999GA2021+021009999GF104991999999999999999999MA1102301999999MW1001REMMET075LIRL 081400Z 00000KT 8000 SCT040 SCT070 12/05 Q1023 RMK BKN MON LIB NC BLU;EQDQ01+000000PRSWM2
0178162430999992000010815004+41550+012900FM-15+0026LIRL V0209999C000012200019N9999999N1+01201+00501999999ADDGA1021+012009999GA2021+024009999GF104991999999999999999999MA1102301999999MW1001REMMET052LIRL 081500Z 00000KT 7000 SCT040 SCT080 12/05 Q1023;EQDQ01+070002VODIS Q02+000000PRSWM2
0162162430999992000010816004+41550+012900FM-15+0026LIRL V0209999C000010240019N0060001N1+01101+00701999999ADDGA1021+012009999GA2071+024009999GF107991999999999999999999MA1102301999999MW1001REMMET052LIRL 081600Z 00000KT 6000 FEW040 BKN080 11/07 Q1023;EQDQ01+000000PRSWM2
0162162430999992000010817004+41550+012900FM-15+0026LIRL V0209999C000010240019N0060001N1+01001+00701999999ADDGA1021+013509999GA2071+024009999GF107991999999999999999999MA1102301999999MW1001REMMET052LIRL 081700Z 00000KT 6000 SCT045 BKN080 10/07 Q1023;EQDQ01+000000PRSWM2
0162162430999992000010818004+41550+012900FM-15+0026LIRL V0200401N001010240019N0060001N1+00901+00701999999ADDGA1021+015009999GA2071+024009999GF107991999999999999999999MA1102301999999MW1001REMMET052LIRL 081800Z 04002KT 6000 FEW050 BKN080 09/07 Q1023;EQDQ01+000000PRSWM2
0162162430999992000010819004+41550+012900FM-15+0026LIRL V0200401N001010240019N0060001N1+00801+00601999999ADDGA1021+015009999GA2071+024009999GF107991999999999999999999MA1102401999999MW1001REMMET052LIRL 081900Z 04002KT 6000 FEW050 BKN080 08/06 Q1024;EQDQ01+000000PRSWM2
0187162430999992000010820004+41550+012900FM-15+0026LIRL V0209999C000010240019N0070001N1+00801+00601999999ADDGA1021+015009999GA2071+024009999GF107991999999999999999999MA1102401999999MW1001REMMET077LIRL 082000Z 00000KT 7000 FEW050 BKN080 08/06 Q1024 RMK OVC MON INVIS NC WHT;EQDQ01+000000PRSWM2
0162162430999992000010821004+41550+012900FM-15+0026LIRL V0203201N001010240019N0080001N1+00801+00601999999ADDGA1021+015009999GA2071+024009999GF107991999999999999999999MA1102401999999MW1001REMMET052LIRL 082100Z 32002KT 8000 FEW050 BKN080 08/06 Q1024;EQDQ01+000000PRSWM2
0152162430999992000010822004+41550+012900FM-15+0026LIRL V0203301N00151220001CN0080001N1+00801+00601999999ADDGA1071+018009999GA2021+024009999MA1102401999999MW1001REMMET052LIRL 082200Z 33003KT 8000 BKN060 SCT080 08/06 Q1024;EQDQ01+000042SCOTCVQ02+000000PRSWM2
0162162430999992000010823004+41550+012900FM-15+0026LIRL V0203301N001010180019N0080001N1+00801+00601999999ADDGA1021+010809999GA2071+018009999GF107991999999999999999999MA1102401999999MW1001REMMET052LIRL 082300Z 33002KT 8000 FEW036 BKN060 08/06 Q1024;EQDQ01+000000PRSWM2
0187162430999992000010900004+41550+012900FM-15+0026LIRL V0203201N001010240019N0090001N1+00701+00601999999ADDGA1021+010809999GA2071+024009999GF107991999999999999999999MA1102401999999MW1001REMMET077LIRL 090000Z 32002KT 9000 FEW036 BKN080 07/06 Q1024 RMK OVC MON INVIS NC BLU;EQDQ01+000000PRSWM2
0187162430999992000010901004+41550+012900FM-15+0026LIRL V0203301N001010240019N0090001N1+00701+00601999999ADDGA1021+012009999GA2071+024009999GF107991999999999999999999MA1102401999999MW1001REMMET077LIRL 090100Z 33002KT 9000 FEW040 BKN080 07/06 Q1024 RMK OVC MON INVIS NC BLU;EQDQ01+000000PRSWM2
0162162430999992000010902004+41550+012900FM-15+0026LIRL V0203301N001510240019N0090001N1+00701+00501999999ADDGA1021+012009999GA2071+024009999GF107991999999999999999999MA1102401999999MW1001REMMET052LIRL 090200Z 33003KT 9000 FEW040 BKN080 07/05 Q1024;EQDQ01+000000PRSWM2
0162162430999992000010905004+41550+012900FM-15+0026LIRL V0202801N001510240019N0080001N1+00701+00601999999ADDGA1021+012009999GA2071+024009999GF107991999999999999999999MA1102301999999MW1001REMMET052LIRL 090500Z 28003KT 8000 SCT040 BKN080 07/06 Q1023;EQDQ01+000000PRSWM2
0192162430999992000010907004+41550+012900FM-15+0026LIRL V0203501N000510210019N0070001N1+00601+00601999999ADDGA1021+010509999GA2071+021009999GF107991999999999999999999MA1102301999999MW1001REMMET082LIRL 090700Z 35001KT 7000 SCT035 BKN070 06/06 Q1023 RMK OVC MON LIB VAR RAPID WHT;EQDQ01+000000PRSWM2
0162162430999992000010908004+41550+012900FM-15+0026LIRL V0209999C000010210019N0080001N1+00701+00501999999ADDGA1021+010509999GA2071+021009999GF107991999999999999999999MA1102301999999MW1001REMMET052LIRL 090800Z 00000KT 8000 SCT035 BKN070 07/05 Q1023;EQDQ01+000000PRSWM2
0185162430999992000010909004+41550+012900FM-15+0026LIRL V0209999C000010210019N0080001N1+00701+00601999999ADDGA1021+012009999GA2071+021009999GF107991999999999999999999MA1102301999999MW1001REMMET075LIRL 090900Z 00000KT 8000 SCT040 BKN070 07/06 Q1023 RMK OVC MON LIB NC BLU;EQDQ01+000000PRSWM2
0185162430999992000010910004+41550+012900FM-15+0026LIRL V0209999C000010210019N0080001N1+00801+00701999999ADDGA1021+012009999GA2071+021009999GF107991999999999999999999MA1102301999999MW1001REMMET075LIRL 091000Z 00000KT 8000 SCT040 BKN070 08/07 Q1023 RMK OVC MON LIB NC BLU;EQDQ01+000000PRSWM2
0162162430999992000010911004+41550+012900FM-15+0026LIRL V0203101N000510210019N0080001N1+00901+00701999999ADDGA1021+012009999GA2071+021009999GF107991999999999999999999MA1102301999999MW1001REMMET052LIRL 091100Z 31001KT 8000 SCT040 BKN070 09/07 Q1023;EQDQ01+000000PRSWM2
0185162430999992000010912004+41550+012900FM-15+0026LIRL V0202901N001010210019N0070001N1+01001+00701999999ADDGA1021+012009999GA2071+021009999GF107991999999999999999999MA1102301999999MW1001REMMET075LIRL 091200Z 29002KT 7000 SCT040 BKN070 10/07 Q1023 RMK OVC MON LIB NC WHT;EQDQ01+000000PRSWM2
0185162430999992000010913004+41550+012900FM-15+0026LIRL V0209999C000010210019N0070001N1+01101+00601999999ADDGA1021+012009999GA2071+021009999GF107991999999999999999999MA1102201999999MW1001REMMET075LIRL 091300Z 00000KT 7000 SCT040 BKN070 11/06 Q1022 RMK OVC MON LIB NC WHT;EQDQ01+000000PRSWM2
0162162430999992000010914004+41550+012900FM-15+0026LIRL V0209999C000010240019N0080001N1+01101+00601999999ADDGA1021+012009999GA2071+024009999GF107991999999999999999999MA1102201999999MW1001REMMET052LIRL 091400Z 00000KT 8000 FEW040 BKN080 11/06 Q1022;EQDQ01+000000PRSWM2
0185162430999992000010915004+41550+012900FM-15+0026LIRL V0209999C000010240019N0080001N1+01101+00601999999ADDGA1021+012009999GA2071+024009999GF107991999999999999999999MA1102201999999MW1001REMMET075LIRL 091500Z 00000KT 8000 FEW040 BKN080 11/06 Q1022 RMK BKN MON LIB NC WHT;EQDQ01+000000PRSWM2
0185162430999992000010916004+41550+012900FM-15+0026LIRL V0203201N000510240019N0080001N1+01101+00601999999ADDGA1021+012009999GA2071+024009999GF107991999999999999999999MA1102201999999MW1001REMMET075LIRL 091600Z 32001KT 8000 FEW040 BKN080 11/06 Q1022 RMK BKN MON LIB NC BLU;EQDQ01+000000PRSWM2
0194162430999992000010917004+41550+012900FM-15+0026LIRL V0209999C000010240019N0080001N1+01001+00701999999ADDGA1021+012009999GA2071+024009999GF107991999999999999999999MA1102201999999MW1001REMMET084LIRL 091700Z 00000KT 8000 FEW040 BKN080 10/07 Q1022 RMK BKN MON INVIS VAR RAPID BLU;EQDQ01+000000PRSWM2
0139162430999992000010918004+41550+012900FM-15+0026LIRL V0203501N000510240019N0070001N1+00901+00701999999ADDGA1071+024009999GF107991999999999999999999MA1102201999999MW1001REMMET045LIRL 091800Z 35001KT 7000 BKN080 09/07 Q1022;EQDQ01+000000PRSWM2
0139162430999992000010919004+41550+012900FM-15+0026LIRL V0209999C000010240019N0070001N1+00801+00601999999ADDGA1071+024009999GF107991999999999999999999MA1102301999999MW1001REMMET045LIRL 091900Z 00000KT 7000 BKN080 08/06 Q1023;EQDQ01+000000PRSWM2
0139162430999992000010920004+41550+012900FM-15+0026LIRL V0209999C000010240019N0070001N1+00801+00701999999ADDGA1071+024009999GF107991999999999999999999MA1102301999999MW1001REMMET045LIRL 092000Z 00000KT 7000 BKN080 08/07 Q1023;EQDQ01+000000PRSWM2
0164162430999992000010921004+41550+012900FM-15+0026LIRL V0203401N001010240019N0060001N1+00801+00701999999ADDGA1071+024009999GF107991999999999999999999MA1102301999999MW1001REMMET070LIRL 092100Z 34002KT 6000 BKN080 08/07 Q1023 RMK BKN MON INVIS NC WHT;EQDQ01+000000PRSWM2
0164162430999992000010922004+41550+012900FM-15+0026LIRL V0209999C000010240019N0060001N1+00701+00601999999ADDGA1071+024009999GF107991999999999999999999MA1102301999999MW1001REMMET070LIRL 092200Z 00000KT 6000 BKN080 07/06 Q1023 RMK BKN MON INVIS NC WHT;EQDQ01+000000PRSWM2
0187162430999992000010923004+41550+012900FM-15+0026LIRL V0209999C000010240019N0060001N1+00701+00701999999ADDGA1021+015009999GA2071+024009999GF107991999999999999999999MA1102301999999MW1001REMMET077LIRL 092300Z 00000KT 6000 SCT050 BKN080 07/07 Q1023 RMK BKN MON INVIS NC WHT;EQDQ01+000000PRSWM2
0162162430999992000011000004+41550+012900FM-15+0026LIRL V0209999C000010240019N0060001N1+00701+00601999999ADDGA1021+012009999GA2071+024009999GF107991999999999999999999MA1102301999999MW1001REMMET052LIRL 100000Z 00000KT 6000 SCT040 BKN080 07/06 Q1023;EQDQ01+000000PRSWM2
0162162430999992000011001004+41550+012900FM-15+0026LIRL V0209999C000010240019N0060001N1+00701+00601999999ADDGA1021+012009999GA2071+024009999GF107991999999999999999999MA1102301999999MW1001REMMET052LIRL 100100Z 00000KT 6000 SCT040 BKN080 07/06 Q1023;EQDQ01+000000PRSWM2
0162162430999992000011002004+41550+012900FM-15+0026LIRL V0209999C000010240019N0060001N1+00701+00601999999ADDGA1021+015009999GA2071+024009999GF107991999999999999999999MA1102301999999MW1001REMMET052LIRL 100200Z 00000KT 6000 SCT050 BKN080 07/06 Q1023;EQDQ01+000000PRSWM2
0162162430999992000011003004+41550+012900FM-15+0026LIRL V0209999C000010240019N0060001N1+00801+00601999999ADDGA1021+015009999GA2071+024009999GF107991999999999999999999MA1102401999999MW1001REMMET052LIRL 100300Z 00000KT 6000 SCT050 BKN080 08/06 Q1024;EQDQ01+000000PRSWM2
0187162430999992000011004004+41550+012900FM-15+0026LIRL V0209999C000010240019N0060001N1+00701+00601999999ADDGA1021+015009999GA2071+024009999GF107991999999999999999999MA1102401999999MW1001REMMET077LIRL 100400Z 00000KT 6000 SCT050 BKN080 07/06 Q1024 RMK OVC MON INVIS NC WHT;EQDQ01+000000PRSWM2
0162162430999992000011005004+41550+012900FM-15+0026LIRL V0209999C000010240019N0060001N1+00701+00601999999ADDGA1021+015009999GA2071+024009999GF107991999999999999999999MA1102401999999MW1001REMMET052LIRL 100500Z 00000KT 6000 SCT050 BKN080 07/06 Q1024;EQDQ01+000000PRSWM2
0187162430999992000011006004+41550+012900FM-15+0026LIRL V0203301N000510240019N0070001N1+00701+00601999999ADDGA1021+015009999GA2071+024009999GF107991999999999999999999MA1102401999999MW1001REMMET077LIRL 100600Z 33001KT 7000 FEW050 BKN080 07/06 Q1024 RMK BKN MON INVIS NC WHT;EQDQ01+000000PRSWM2
0192162430999992000011007004+41550+012900FM-15+0026LIRL V0203201N001010210019N0080001N1+00601+00501999999ADDGA1021+012009999GA2071+021009999GF107991999999999999999999MA1102401999999MW1001REMMET082LIRL 100700Z 32002KT 8000 FEW040 BKN070 06/05 Q1024 RMK BKN MON LIB VAR RAPID BLU;EQDQ01+000000PRSWM2
0162162430999992000011008004+41550+012900FM-15+0026LIRL V0203101N000512200019N0090001N1+00701+00501999999ADDGA1021+012009999GA2021+024009999GF104991999999999999999999MA1102511999999MW1001REMMET052LIRL 100800Z 31001KT 9000 FEW040 SCT080 07/05 Q1025;EQDQ01+000000PRSWM2
0162162430999992000011009004+41550+012900FM-15+0026LIRL V0209999C000012200019N0070001N1+00901+00701999999ADDGA1021+009009999GF102991999999999999999999MA1102611999999MW1001REMMET068LIRL 100900Z 00000KT 7000 FEW030 09/07 Q1026 RMK SCT MON LIB NC WHT;EQDQ01+000000PRSWM2
0162162430999992000011010004+41550+012900FM-15+0026LIRL V0209999C000012200019N0080001N1+01101+00801999999ADDGA1021+009009999GF102991999999999999999999MA1102611999999MW1001REMMET068LIRL 101000Z 00000KT 8000 FEW030 11/08 Q1026 RMK SCT MON LIB NC BLU;EQDQ01+000000PRSWM2
0139162430999992000011011004+41550+012900FM-15+0026LIRL V0209999C000012200019N0112651N1+01301+00701999999ADDGA1021+009009999GF102991999999999999999999MA1102611999999MW1001REMMET045LIRL 101100Z 00000KT 9999 FEW030 13/07 Q1026;EQDQ01+000000PRSWM2
0139162430999992000011012004+41550+012900FM-15+0026LIRL V0201701N001012200019N0112651N1+01301+00701999999ADDGA1021+009009999GF104991999999999999999999MA1102511999999MW1001REMMET045LIRL 101200Z 17002KT 9999 SCT030 13/07 Q1025;EQDQ01+000000PRSWM2
0162162430999992000011013004+41550+012900FM-15+0026LIRL V0201701N001012200019N0112651N1+01401+00701999999ADDGA1021+008409999GF104991999999999999999999MA1102511999999MW1001REMMET068LIRL 101300Z 17002KT 9999 SCT028 14/07 Q1025 RMK BKN MON LIB NC BLU;EQDQ01+000000PRSWM2
0139162430999992000011014004+41550+012900FM-15+0026LIRL V0202101N002112200019N0112651N1+01301+00701999999ADDGA1021+009009999GF104991999999999999999999MA1102511999999MW1001REMMET045LIRL 101400Z 21004KT 9999 SCT030 13/07 Q1025;EQDQ01+000000PRSWM2
0139162430999992000011015004+41550+012900FM-15+0026LIRL V0201901N001012200019N0112651N1+01301+00801999999ADDGA1021+009009999GF104991999999999999999999MA1102511999999MW1001REMMET045LIRL 101500Z 19002KT 9999 SCT030 13/08 Q1025;EQDQ01+000000PRSWM2
0139162430999992000011016004+41550+012900FM-15+0026LIRL V0202101N001012200019N0112651N1+01301+00801999999ADDGA1021+012009999GF104991999999999999999999MA1102511999999MW1001REMMET045LIRL 101600Z 21002KT 9999 SCT040 13/08 Q1025;EQDQ01+000000PRSWM2
0171162430999992000011017004+41550+012900FM-15+0026LIRL V0209999C000012200019N0112651N1+01101+00801999999ADDGA1021+012009999GF104991999999999999999999MA1102611999999MW1001REMMET077LIRL 101700Z 00000KT 9999 SCT040 11/08 Q1026 RMK BKN MON INVIS VAR RAPID BLU;EQDQ01+000000PRSWM2
0164162430999992000011018004+41550+012900FM-15+0026LIRL V0200401N001012200019N0112651N1+00901+00801999999ADDGA1021+009009999GF104991999999999999999999MA1102611999999MW1001REMMET070LIRL 101800Z 04002KT 9999 SCT030 09/08 Q1026 RMK SCT MON INVIS NC BLU;EQDQ01+000000PRSWM2
0164162430999992000011019004+41550+012900FM-15+0026LIRL V0209999C000012200019N0112651N1+00801+00701999999ADDGA1021+009009999GF104991999999999999999999MA1102611999999MW1001REMMET070LIRL 101900Z 00000KT 9999 SCT030 08/07 Q1026 RMK SCT MON INVIS NC BLU;EQDQ01+000000PRSWM2
0164162430999992000011020004+41550+012900FM-15+0026LIRL V0209999C000012200019N0112651N1+00701+00701999999ADDGA1021+009009999GF102991999999999999999999MA1102611999999MW1001REMMET070LIRL 102000Z 00000KT 9999 FEW030 07/07 Q1026 RMK FEW MON INVIS NC BLU;EQDQ01+000000PRSWM2
0112162430999992000011021004+41550+012900FM-15+0026LIRL V0209999C00001220001CN0099001N1+00501+00501999999ADDMA1102711999999MW1001REMMET060LIRL 102100Z 00000KT CAVOK 05/05 Q1027 RMK MON INVIS NC BLU;EQDQ01+000000PRSWM2
0091162430999992000011022004+41550+012900FM-15+0026LIRL V0209999C00001220001CN0099001N1+00401+00401999999ADDMA1102711999999MW1001REMMET039LIRL 102200Z 00000KT CAVOK 04/04 Q1027;EQDQ01+000000PRSWM2
0139162430999992000011023004+41550+012900FM-15+0026LIRL V0209999C000012200019N0112651N1+00401+00301999999ADDGA1021+024009999GF102991999999999999999999MA1102711999999MW1001REMMET045LIRL 102300Z 00000KT 9999 FEW080 04/03 Q1027;EQDQ01+000000PRSWM2
0139162430999992000011100004+41550+012900FM-15+0026LIRL V0209999C000012200019N0112651N1+00401+00301999999ADDGA1021+024009999GF102991999999999999999999MA1102711999999MW1001REMMET045LIRL 110000Z 00000KT 9999 FEW080 04/03 Q1027;EQDQ01+000000PRSWM2
0139162430999992000011101004+41550+012900FM-15+0026LIRL V0209999C000012200019N0112651N1+00401+00301999999ADDGA1021+024009999GF102991999999999999999999MA1102711999999MW1001REMMET045LIRL 110100Z 00000KT 9999 FEW080 04/03 Q1027;EQDQ01+000000PRSWM2
0139162430999992000011102004+41550+012900FM-15+0026LIRL V0203201N001012200019N0112651N1+00401+00301999999ADDGA1021+024009999GF102991999999999999999999MA1102811999999MW1001REMMET045LIRL 110200Z 32002KT 9999 FEW080 04/03 Q1028;EQDQ01+000000PRSWM2
0091162430999992000011103004+41550+012900FM-15+0026LIRL V0203301N00261220001CN0099001N1+00401+00301999999ADDMA1102811999999MW1001REMMET039LIRL 110300Z 33005KT CAVOK 04/03 Q1028;EQDQ01+000000PRSWM2
0112162430999992000011104004+41550+012900FM-15+0026LIRL V0203301N00101220001CN0099001N1+00501+00301999999ADDMA1102811999999MW1001REMMET060LIRL 110400Z 33002KT CAVOK 05/03 Q1028 RMK MON INVIS NC BLU;EQDQ01+000000PRSWM2
0112162430999992000011105004+41550+012900FM-15+0026LIRL V0203301N00101220001CN0099001N1+00501+00301999999ADDMA1102811999999MW1001REMMET060LIRL 110500Z 33002KT CAVOK 05/03 Q1028 RMK MON INVIS NC BLU;EQDQ01+000000PRSWM2
0091162430999992000011106004+41550+012900FM-15+0026LIRL V0209999C00001220001CN0099001N1+00401+00201999999ADDMA1102811999999MW1001REMMET039LIRL 110600Z 00000KT CAVOK 04/02 Q1028;EQDQ01+000000PRSWM2
0091162430999992000011107004+41550+012900FM-15+0026LIRL V0203201N00151220001CN0099001N1+00401+00301999999ADDMA1102811999999MW1001REMMET039LIRL 110700Z 32003KT CAVOK 04/03 Q1028;EQDQ01+000000PRSWM2
0120162430999992000011108004+41550+012900FM-15+0026LIRL V0209999C000012200019N0070001N1+00401+00301999999ADDGF100991999999999999999999MA1102911999999MW1001REMMET042LIRL 110800Z 00000KT 7000 SKC 04/03 Q1029;EQDQ01+000000PRSWM2
0139162430999992000011109004+41550+012900FM-15+0026LIRL V0203201N000512200019N0070001N1+00701+00501999999ADDGA1021+007509999GF102991999999999999999999MA1102911999999MW1001REMMET045LIRL 110900Z 32001KT 7000 FEW025 07/05 Q1029;EQDQ01+000000PRSWM2
0139162430999992000011110004+41550+012900FM-15+0026LIRL V0209999C000012200019N0070001N1+01001+00701999999ADDGA1021+006909999GF102991999999999999999999MA1102911999999MW1001REMMET045LIRL 111000Z 00000KT 7000 FEW023 10/07 Q1029;EQDQ01+000000PRSWM2
0162162430999992000011111004+41550+012900FM-15+0026LIRL V0201601N000512200019N0070001N1+01201+00701999999ADDGA1021+006909999GF102991999999999999999999MA1102911999999MW1001REMMET068LIRL 111100Z 16001KT 7000 FEW023 12/07 Q1029 RMK FEW MON LIB NC WHT;EQDQ01+000000PRSWM2
0139162430999992000011112004+41550+012900FM-15+0026LIRL V0202001N001012200019N0070001N1+01201+00801999999ADDGA1021+006609999GF104991999999999999999999MA1102911999999MW1001REMMET045LIRL 111200Z 20002KT 7000 SCT022 12/08 Q1029;EQDQ01+000000PRSWM2
0187162430999992000011113004+41550+012900FM-15+0026LIRL V0202201N002612200019N0070001N1+01301+00801999999ADDGA1021+006009999GA2021+006909099GF102991999999999999999999MA1102811999999MW1001REMMET077LIRL 111300Z 22005KT 7000 FEW020 FEW023CB 13/08 Q1028 RMK SCT MON LIB NC WHT;EQDQ01+000000PRSWM2
0203162430999992000011114004+41550+012900FM-15+0026LIRL V0202201N001512200019N9999999N1+01301+00701999999ADDGA1021+006009999GA2021+006909099GF102991999999999999999999MA1102811999999MW1001REMMET077LIRL 111400Z 22003KT 6000 FEW020 FEW023CB 13/07 Q1028 RMK SCT MON LIB NC WHT;EQDQ01+060002VODIS Q02+000000PRSWM2
0180162430999992000011115004+41550+012900FM-15+0026LIRL V0200601N001512200019N9999999N1+01201+00601999999ADDGA1021+006009999GA2021+006909099GF102991999999999999999999MA1102811999999MW1001REMMET054LIRL 111500Z 06003KT 7000 FEW020 FEW023CB 12/06 Q1028;EQDQ01+070002VODIS Q02+000000PRSWM2
0187162430999992000011116004+41550+012900FM-15+0026LIRL V0203201N000512200019N0060001N1+01101+00701999999ADDGA1021+006009999GA2021+007509099GF102991999999999999999999MA1102811999999MW1001REMMET077LIRL 111600Z 32001KT 6000 FEW020 FEW025CB 11/07 Q1028 RMK SCT MON LIB NC WHT;EQDQ01+000000PRSWM2
0164162430999992000011117004+41550+012900FM-15+0026LIRL V0203201N001512200019N0060001N1+00901+00701999999ADDGA1021+006009999GA2021+007509099GF102991999999999999999999MA1102811999999MW1001REMMET054LIRL 111700Z 32003KT 6000 FEW020 FEW025CB 09/07 Q1028;EQDQ01+000000PRSWM2
0164162430999992000011118004+41550+012900FM-15+0026LIRL V0203301N001012200019N0070001N1+00801+00701999999ADDGA1021+006009999GF102991999999999999999999MA1102811999999MW1001REMMET070LIRL 111800Z 33002KT 7000 FEW020 08/07 Q1028 RMK SCT MON INVIS NC WHT;EQDQ01+000000PRSWM2
0164162430999992000011119004+41550+012900FM-15+0026LIRL V0203301N000512200019N0070001N1+00701+00601999999ADDGA1021+006609999GF102991999999999999999999MA1102811999999MW1001REMMET070LIRL 111900Z 33001KT 7000 FEW022 07/06 Q1028 RMK FEW MON INVIS NC WHT;EQDQ01+000000PRSWM2
0164162430999992000011120004+41550+012900FM-15+0026LIRL V0209999C000012200019N0070001N1+00601+00501999999ADDGA1021+006909999GF102991999999999999999999MA1102811999999MW1001REMMET070LIRL 112000Z 00000KT 7000 FEW023 06/05 Q1028 RMK FEW MON INVIS NC WHT;EQDQ01+000000PRSWM2
0187162430999992000011121004+41550+012900FM-15+0026LIRL V0202401N001012200019N0070001N1+00501+00501999999ADDGA1021+006009999GA2021+018009999GF104991999999999999999999MA1102811999999MW1001REMMET077LIRL 112100Z 24002KT 7000 FEW020 SCT060 05/05 Q1028 RMK SCT MON INVIS NC WHT;EQDQ01+000000PRSWM2
0162162430999992000011122004+41550+012900FM-15+0026LIRL V0202701N001512200019N0070001N1+00501+00401999999ADDGA1021+006009999GA2021+018009999GF104991999999999999999999MA1102811999999MW1001REMMET052LIRL 112200Z 27003KT 7000 FEW020 SCT060 05/04 Q1028;EQDQ01+000000PRSWM2
0187162430999992000011123004+41550+012900FM-15+0026LIRL V0209999C000012200019N0070001N1+00501+00401999999ADDGA1021+006009999GA2021+018009999GF104991999999999999999999MA1102811999999MW1001REMMET077LIRL 112300Z 00000KT 7000 FEW020 SCT060 05/04 Q1028 RMK BKN MON INVIS NC WHT;EQDQ01+000000PRSWM2
0187162430999992000011200004+41550+012900FM-15+0026LIRL V0209999C000012200019N0070001N1+00601+00501999999ADDGA1021+006009999GA2021+021009999GF104991999999999999999999MA1102811999999MW1001REMMET077LIRL 120000Z 00000KT 7000 FEW020 SCT070 06/05 Q1028 RMK BKN MON INVIS NC WHT;EQDQ01+000000PRSWM2
0162162430999992000011201004+41550+012900FM-15+0026LIRL V0209999C000012200019N0070001N1+00601+00501999999ADDGA1021+006009999GA2021+021009999GF104991999999999999999999MA1102811999999MW1001REMMET052LIRL 120100Z 00000KT 7000 FEW020 SCT070 06/05 Q1028;EQDQ01+000000PRSWM2
0162162430999992000011202004+41550+012900FM-15+0026LIRL V0203101N001012200019N0090001N1+00601+00501999999ADDGA1021+007509999GA2021+021009999GF104991999999999999999999MA1102811999999MW1001REMMET052LIRL 120200Z 31002KT 9000 FEW025 SCT070 06/05 Q1028;EQDQ01+000000PRSWM2
0187162430999992000011203004+41550+012900FM-15+0026LIRL V0203301N002112200019N0090001N1+00601+00501999999ADDGA1021+006009999GA2021+027009999GF104991999999999999999999MA1102711999999MW1001REMMET077LIRL 120300Z 33004KT 9000 FEW020 SCT090 06/05 Q1027 RMK BKN MON INVIS NC BLU;EQDQ01+000000PRSWM2
0162162430999992000011204004+41550+012900FM-15+0026LIRL V0203301N001012200019N0070001N1+00501+00401999999ADDGA1021+006009999GA2021+024009999GF104991999999999999999999MA1102711999999MW1001REMMET052LIRL 120400Z 33002KT 7000 FEW020 SCT080 05/04 Q1027;EQDQ01+000000PRSWM2
0187162430999992000011205004+41550+012900FM-15+0026LIRL V0203201N001012200019N0070001N1+00501+00401999999ADDGA1021+006009999GA2021+024009999GF104991999999999999999999MA1102711999999MW1001REMMET077LIRL 120500Z 32002KT 7000 FEW020 SCT080 05/04 Q1027 RMK BKN MON INVIS NC WHT;EQDQ01+000000PRSWM2
0187162430999992000011206004+41550+012900FM-15+0026LIRL V0203201N000512200019N0080001N1+00401+00301999999ADDGA1021+006009999GA2021+030009999GF104991999999999999999999MA1102711999999MW1001REMMET077LIRL 120600Z 32001KT 8000 FEW020 SCT100 04/03 Q1027 RMK SCT MON INVIS NC BLU;EQDQ01+000000PRSWM2
0192162430999992000011207004+41550+012900FM-15+0026LIRL V0203101N001510210019N0080001N1+00501+00401999999ADDGA1021+006009999GA2071+021009999GF107991999999999999999999MA1102711999999MW1001REMMET082LIRL 120700Z 31003KT 8000 FEW020 BKN070 05/04 Q1027 RMK BKN MON LIB VAR RAPID BLU;EQDQ01+000000PRSWM2
0162162430999992000011208004+41550+012900FM-15+0026LIRL V0203001N001010240019N0080001N1+00601+00401999999ADDGA1021+006009999GA2071+024009999GF107991999999999999999999MA1102711999999MW1001REMMET052LIRL 120800Z 30002KT 8000 FEW020 BKN080 06/04 Q1027;EQDQ01+000000PRSWM2
0185162430999992000011209004+41550+012900FM-15+0026LIRL V0209999C000010240019N0080001N1+00601+00401999999ADDGA1021+006009999GA2071+024009999GF107991999999999999999999MA1102711999999MW1001REMMET075LIRL 120900Z 00000KT 8000 FEW020 BKN080 06/04 Q1027 RMK BKN MON LIB NC BLU;EQDQ01+000000PRSWM2
0205162430999992000011210004+41550+012900FM-15+0026LIRL V0203001N001010210019N0112651N1+00801+00601999999ADDGA1021+006009999GA2021+012009999GA3071+021009999GF107991999999999999999999MA1102711999999MW1611REMMET063LIRL 121000Z 30002KT 9999 -RA FEW020 SCT040 BKN070 08/06 Q1027;EQDQ01+000003PRSWM1Q02    003PRSWM1
0205162430999992000011211004+41550+012900FM-15+0026LIRL V0202901N000510210019N0112651N1+00801+00601999999ADDGA1021+006009999GA2021+012009999GA3071+021009999GF107991999999999999999999MA1102711999999MW1611REMMET063LIRL 121100Z 29001KT 9999 -RA FEW020 SCT040 BKN070 08/06 Q1027;EQDQ01+000003PRSWM1Q02    003PRSWM1
0172162430999992000011212004+41550+012900FM-15+0026LIRL V0203101N00101220001CN0112651N1+00801+00701999999ADDGA1071+012009999GA2021+021009999MA1102611999999MW1611REMMET056LIRL 121200Z 31002KT 9999 -RA BKN040 SCT070 08/07 Q1026;EQDQ01+000042SCOTCVQ02+000003PRSWM1Q03    003PRSWM1
0175162430999992000011213004+41550+012900FM-15+0026LIRL V0203001N00051220001CN0112651N1+00801+00701999999ADDGA1071+010509999GA2021+021009999MA1102511999999MW1001REMMET075LIRL 121300Z 30001KT 9999 BKN035 SCT070 08/07 Q1025 RMK OVC MON LIB NC BLU;EQDQ01+000042SCOTCVQ02+000000PRSWM2
0152162430999992000011214004+41550+012900FM-15+0026LIRL V0203001N00101220001CN0112651N1+00901+00701999999ADDGA1071+012009999GA2021+021009999MA1102511999999MW1001REMMET052LIRL 121400Z 30002KT 9999 BKN040 SCT070 09/07 Q1025;EQDQ01+000042SCOTCVQ02+000000PRSWM2
0152162430999992000011215004+41550+012900FM-15+0026LIRL V0209999C00001220001CN0112651N1+00901+00701999999ADDGA1071+012009999GA2021+021009999MA1102511999999MW1001REMMET052LIRL 121500Z 00000KT 9999 BKN040 SCT070 09/07 Q1025;EQDQ01+000042SCOTCVQ02+000000PRSWM2
0172162430999992000011216004+41550+012900FM-15+0026LIRL V0202901N00151220001CN0112651N1+00801+00701999999ADDGA1071+009909999GA2021+021009999MA1102511999999MW1611REMMET056LIRL 121600Z 29003KT 9999 -RA BKN033 SCT070 08/07 Q1025;EQDQ01+000042SCOTCVQ02+000003PRSWM1Q03    003PRSWM1
0172162430999992000011217004+41550+012900FM-15+0026LIRL V0203101N00101220001CN0112651N1+00701+00701999999ADDGA1071+009909999GA2021+021009999MA1102511999999MW1611REMMET056LIRL 121700Z 31002KT 9999 -RA BKN033 SCT070 07/07 Q1025;EQDQ01+000042SCOTCVQ02+000003PRSWM1Q03    003PRSWM1
0162162430999992000011218004+41550+012900FM-15+0026LIRL V0203001N000512200019N0112651N1+00701+00601999999ADDGA1021+010509999GA2021+021009999GF104991999999999999999999MA1102511999999MW1001REMMET052LIRL 121800Z 30001KT 9999 SCT035 SCT070 07/06 Q1025;EQDQ01+000000PRSWM2
0187162430999992000011219004+41550+012900FM-15+0026LIRL V0202801N000512200019N0112651N1+00701+00601999999ADDGA1021+012009999GA2021+021009999GF104991999999999999999999MA1102511999999MW1001REMMET077LIRL 121900Z 28001KT 9999 SCT040 SCT070 07/06 Q1025 RMK BKN MON INVIS NC BLU;EQDQ01+000000PRSWM2
0164162430999992000011220004+41550+012900FM-15+0026LIRL V0202801N000512200019N0112651N1+00701+00601999999ADDGA1021+013509999GF104991999999999999999999MA1102511999999MW1001REMMET070LIRL 122000Z 28001KT 9999 SCT045 07/06 Q1025 RMK BKN MON INVIS NC BLU;EQDQ01+000000PRSWM2
0139162430999992000011221004+41550+012900FM-15+0026LIRL V0203001N001012200019N0112651N1+00601+00501999999ADDGA1021+021009999GF102991999999999999999999MA1102511999999MW1001REMMET045LIRL 122100Z 30002KT 9999 FEW070 06/05 Q1025;EQDQ01+000000PRSWM2
0139162430999992000011222004+41550+012900FM-15+0026LIRL V0202901N001512200019N0112651N1+00501+00401999999ADDGA1021+021009999GF102991999999999999999999MA1102511999999MW1001REMMET045LIRL 122200Z 29003KT 9999 FEW070 05/04 Q1025;EQDQ01+000000PRSWM2
0139162430999992000011223004+41550+012900FM-15+0026LIRL V0203101N002112200019N0112651N1+00601+00401999999ADDGA1021+021009999GF104991999999999999999999MA1102511999999MW1001REMMET045LIRL 122300Z 31004KT 9999 SCT070 06/04 Q1025;EQDQ01+000000PRSWM2
0152162430999992000011300004+41550+012900FM-15+0026LIRL V0203201N00051220001CN0112651N1+00601+00501999999ADDGA1071+012009999GA2021+021009999MA1102511999999MW1001REMMET052LIRL 130000Z 32001KT 9999 BKN040 SCT070 06/05 Q1025;EQDQ01+000042SCOTCVQ02+000000PRSWM2
0177162430999992000011301004+41550+012900FM-15+0026LIRL V0203301N00101220001CN0112651N1+00601+00501999999ADDGA1071+012009999GA2021+021009999MA1102511999999MW1001REMMET077LIRL 130100Z 33002KT 9999 BKN040 SCT070 06/05 Q1025 RMK OVC MON INVIS NC BLU;EQDQ01+000042SCOTCVQ02+000000PRSWM2
0152162430999992000011302004+41550+012900FM-15+0026LIRL V0203001N00101220001CN0112651N1+00601+00501999999ADDGA1071+012009999GA2021+021009999MA1102401999999MW1001REMMET052LIRL 130200Z 30002KT 9999 BKN040 SCT070 06/05 Q1024;EQDQ01+000042SCOTCVQ02+000000PRSWM2
0177162430999992000011303004+41550+012900FM-15+0026LIRL V0203101N00101220001CN0112651N1+00701+00501999999ADDGA1071+010509999GA2021+021009999MA1102401999999MW1001REMMET077LIRL 130300Z 31002KT 9999 BKN035 SCT070 07/05 Q1024 RMK OVC MON INVIS NC BLU;EQDQ01+000042SCOTCVQ02+000000PRSWM2
0207162430999992000011304004+41550+012900FM-15+0026LIRL V0203201N001012200019N0112651N1+00701+00601999999ADDGA1021+010509999GA2021+021009999GF104991999999999999999999MA1102301999999MW1611REMMET081LIRL 130400Z 32002KT 9999 -RA SCT035 SCT070 07/06 Q1023 RMK OVC MON INVIS NC BLU;EQDQ01+000003PRSWM1Q02    003PRSWM1
0162162430999992000011305004+41550+012900FM-15+0026LIRL V0209999C000012200019N0112651N1+00601+00501999999ADDGA1021+010509999GA2021+021009999GF104991999999999999999999MA1102301999999MW1001REMMET052LIRL 130500Z 00000KT 9999 SCT035 SCT070 06/05 Q1023;EQDQ01+000000PRSWM2
0164162430999992000011306004+41550+012900FM-15+0026LIRL V0203101N001012200019N0112651N1+00601+00501999999ADDGA1021+015009999GF102991999999999999999999MA1102301999999MW1001REMMET070LIRL 130600Z 31002KT 9999 FEW050 06/05 Q1023 RMK SCT MON INVIS NC BLU;EQDQ01+000000PRSWM2
0169162430999992000011307004+41550+012900FM-15+0026LIRL V0202801N000512200019N0112651N1+00401+00301999999ADDGA1021+015009999GF104991999999999999999999MA1102201999999MW1001REMMET075LIRL 130700Z 28001KT 9999 SCT050 04/03 Q1022 RMK SCT MON LIB VAR RAPID BLU;EQDQ01+000000PRSWM2
0162162430999992000011308004+41550+012900FM-15+0026LIRL V0203201N001012200019N0112651N1+00501+00401999999ADDGA1021+013509999GF104991999999999999999999MA1102201999999MW1001REMMET068LIRL 130800Z 32002KT 9999 SCT045 05/04 Q1022 RMK BKN MON LIB NC BLU;EQDQ01+000000PRSWM2
0162162430999992000011309004+41550+012900FM-15+0026LIRL V0203201N000512200019N0112651N1+00801+00601999999ADDGA1021+012009999GA2021+021009999GF104991999999999999999999MA1102201999999MW1001REMMET052LIRL 130900Z 32001KT 9999 SCT040 SCT070 08/06 Q1022;EQDQ01+000000PRSWM2
0185162430999992000011310004+41550+012900FM-15+0026LIRL V0201001N003110240019N0112651N1+01001+00701999999ADDGA1021+012009999GA2071+024009999GF107991999999999999999999MA1102201999999MW1001REMMET075LIRL 131000Z 10006KT 9999 SCT040 BKN080 10/07 Q1022 RMK BKN MON LIB NC BLU;EQDQ01+000000PRSWM2
0195162430999992000011311004+41550+012900FM-15+0026LIRL V0200901N00511220001CN0112651N1+01001+00601999999ADDGA1071+013509999GA2021+021009999MA1102201999999MW1511REMMET079LIRL 131100Z 09010KT 9999 -DZ BKN045 SCT070 10/06 Q1022 RMK OVC MON LIB NC BLU;EQDQ01+000042SCOTCVQ02+000003PRSWM1Q03    003PRSWM1
0195162430999992000011312004+41550+012900FM-15+0026LIRL V0201001N00101220001CN0070001N1+00901+00801999999ADDGA1071+012009999GA2021+021009999MA1102101999999MW1611REMMET079LIRL 131200Z 10002KT 7000 -RA BKN040 SCT070 09/08 Q1021 RMK OVC MON LIB NC WHT;EQDQ01+000042SCOTCVQ02+000003PRSWM1Q03    003PRSWM1
0205162430999992000011313004+41550+012900FM-15+0026LIRL V0203301N001510120019N0070001N1+00901+00801999999ADDGA1021+007509999GA2071+012009999GF107991999999999999999999MA1102101999999MW1611REMMET079LIRL 131300Z 33003KT 7000 -RA SCT025 BKN040 09/08 Q1021 RMK OVC MON LIB NC WHT;EQDQ01+000003PRSWM1Q02    003PRSWM1
0182162430999992000011314004+41550+012900FM-15+0026LIRL V0200601N001510120019N0050001N1+00801+00701999999ADDGA1021+007509999GA2071+012009999GF107991999999999999999999MA1102001999999MW1611REMMET056LIRL 131400Z 06003KT 5000 -RA SCT025 BKN040 08/07 Q1020;EQDQ01+000003PRSWM1Q02    003PRSWM1
0205162430999992000011315004+41550+012900FM-15+0026LIRL V0203501N001010120019N0070001N1+00801+00701999999ADDGA1021+007509999GA2071+012009999GF107991999999999999999999MA1102001999999MW1611REMMET079LIRL 131500Z 35002KT 7000 -RA SCT025 BKN040 08/07 Q1020 RMK OVC MON LIB NC WHT;EQDQ01+000003PRSWM1Q02    003PRSWM1
0162162430999992000011316004+41550+012900FM-15+0026LIRL V0209999C000010120019N0112651N1+00801+00701999999ADDGA1021+007509999GA2071+012009999GF107991999999999999999999MA1101901999999MW1001REMMET052LIRL 131600Z 00000KT 9999 SCT025 BKN040 08/07 Q1019;EQDQ01+000000PRSWM2
0194162430999992000011317004+41550+012900FM-15+0026LIRL V0201001N005112200019N0112651N1+01001+00701999999ADDGA1021+010509999GA2021+018009999GF104991999999999999999999MA1101901999999MW1001REMMET084LIRL 131700Z 10010KT 9999 SCT035 SCT060 10/07 Q1019 RMK OVC MON INVIS VAR RAPID BLU;EQDQ01+000000PRSWM2
0162162430999992000011318004+41550+012900FM-15+0026LIRL V0200801N004112200019N0112651N1+01001+00601999999ADDGA1021+012009999GA2021+021009999GF104991999999999999999999MA1101901999999MW1001REMMET052LIRL 131800Z 08008KT 9999 FEW040 SCT070 10/06 Q1019;EQDQ01+000000PRSWM2
0187162430999992000011319004+41550+012900FM-15+0026LIRL V0200801N004112200019N0112651N1+01001+00601999999ADDGA1021+012009999GA2021+024009999GF104991999999999999999999MA1101801999999MW1001REMMET077LIRL 131900Z 08008KT 9999 FEW040 SCT080 10/06 Q1018 RMK BKN MON INVIS NC BLU;EQDQ01+000000PRSWM2
0162162430999992000011320004+41550+012900FM-15+0026LIRL V0200801N005112200019N0112651N1+01001+00601999999ADDGA1021+012009999GA2021+021009999GF104991999999999999999999MA1101801999999MW1001REMMET052LIRL 132000Z 08010KT 9999 SCT040 SCT070 10/06 Q1018;EQDQ01+000000PRSWM2
0162162430999992000011321004+41550+012900FM-15+0026LIRL V0200901N006712200019N0112651N1+01101+00601999999ADDGA1021+012009999GA2021+024009999GF104991999999999999999999MA1101691999999MW1001REMMET052LIRL 132100Z 09013KT 9999 SCT040 SCT080 11/06 Q1017;EQDQ01+000000PRSWM2
0139162430999992000011322004+41550+012900FM-15+0026LIRL V0200901N006212200019N0112651N1+01101+00501999999ADDGA1021+012009999GF104991999999999999999999MA1101691999999MW1001REMMET045LIRL 132200Z 09012KT 9999 SCT040 11/05 Q1017;EQDQ01+000000PRSWM2
0139162430999992000011323004+41550+012900FM-15+0026LIRL V0200901N006712200019N0112651N1+01101+00401999999ADDGA1021+024009999GF104991999999999999999999MA1101691999999MW1001REMMET045LIRL 132300Z 09013KT 9999 SCT080 11/04 Q1017;EQDQ01+000000PRSWM2
0164162430999992000011400004+41550+012900FM-15+0026LIRL V0200901N006710150019N0112651N1+01101+00401999999ADDGA1071+015009999GF107991999999999999999999MA1101691999999MW1001REMMET070LIRL 140000Z 09013KT 9999 BKN050 11/04 Q1017 RMK BKN MON INVIS NC BLU;EQDQ01+000000PRSWM2
0164162430999992000011401004+41550+012900FM-15+0026LIRL V0200901N007210150019N0112651N1+01101+00501999999ADDGA1071+015009999GF107991999999999999999999MA1101591999999MW1001REMMET070LIRL 140100Z 09014KT 9999 BKN050 11/05 Q1016 RMK BKN MON INVIS NC BLU;EQDQ01+000000PRSWM2
0164162430999992000011402004+41550+012900FM-15+0026LIRL V0200901N006210180019N0112651N1+01101+00601999999ADDGA1071+018009999GF107991999999999999999999MA1101591999999MW1001REMMET070LIRL 140200Z 09012KT 9999 BKN060 11/06 Q1016 RMK BKN MON INVIS NC BLU;EQDQ01+000000PRSWM2
0139162430999992000011403004+41550+012900FM-15+0026LIRL V0200901N007210180019N0112651N1+01101+00501999999ADDGA1071+018009999GF107991999999999999999999MA1101591999999MW1001REMMET045LIRL 140300Z 09014KT 9999 BKN060 11/05 Q1016;EQDQ01+000000PRSWM2
0139162430999992000011404004+41550+012900FM-15+0026LIRL V0201001N006210180019N0112651N1+01101+00501999999ADDGA1071+018009999GF107991999999999999999999MA1101591999999MW1001REMMET045LIRL 140400Z 10012KT 9999 BKN060 11/05 Q1016;EQDQ01+000000PRSWM2
0162162430999992000011405004+41550+012900FM-15+0026LIRL V0200901N007210240019N0112651N1+01101+00701999999ADDGA1021+012009999GA2071+024009999GF107991999999999999999999MA1101591999999MW1001REMMET052LIRL 140500Z 09014KT 9999 SCT040 BKN080 11/07 Q1016;EQDQ01+000000PRSWM2
0187162430999992000011406004+41550+012900FM-15+0026LIRL V0201101N005110180019N0112651N1+01101+00601999999ADDGA1021+012009999GA2071+018009999GF107991999999999999999999MA1101591999999MW1001REMMET077LIRL 140600Z 11010KT 9999 SCT040 BKN060 11/06 Q1016 RMK BKN MON INVIS NC BLU;EQDQ01+000000PRSWM2
0173162430999992000011407004+41550+012900FM-15+0026LIRL V0201001N007710180019N0112651N1+01101+00501999999ADDGA1021+012009999GA2071+018009999GF107991999999999999999999MA1101591999999MW1001OC101291REMMET055LIRL 140700Z 10015G25KT 9999 SCT040 BKN060 11/05 Q1016;EQDQ01+000000PRSWM2
0185162430999992000011408004+41550+012900FM-15+0026LIRL V0201001N008210180019N0112651N1+01101+00601999999ADDGA1021+012009999GA2071+018009999GF107991999999999999999999MA1101591999999MW1001REMMET075LIRL 140800Z 10016KT 9999 SCT040 BKN060 11/06 Q1016 RMK BKN MON LIB NC BLU;EQDQ01+000000PRSWM2
0185162430999992000011409004+41550+012900FM-15+0026LIRL V0201001N006212200019N0112651N1+01201+00601999999ADDGA1021+012009999GA2021+021009999GF104991999999999999999999MA1101591999999MW1001REMMET075LIRL 140900Z 10012KT 9999 SCT040 SCT070 12/06 Q1016 RMK BKN MON LIB NC BLU;EQDQ01+000000PRSWM2
0162162430999992000011410004+41550+012900FM-15+0026LIRL V0201001N005110210019N0112651N1+01201+00601999999ADDGA1021+012009999GA2071+021009999GF107991999999999999999999MA1101591999999MW1001REMMET052LIRL 141000Z 10010KT 9999 SCT040 BKN070 12/06 Q1016;EQDQ01+000000PRSWM2
0208162430999992000011411004+41550+012900FM-15+0026LIRL V0201001N005710240019N0112651N1+01201+00701999999ADDGA1021+010509999GA2021+021009999GA3071+024009999GF107991999999999999999999MA1101691999999MW1001REMMET082LIRL 141100Z 10011KT 9999 SCT035 SCT070 BKN080 12/07 Q1017 RMK OVC MON LIB NC BLU;EQDQ01+000000PRSWM2
0162162430999992000011412004+41550+012900FM-15+0026LIRL V0201201N005710210019N0112651N1+01401+00701999999ADDGA1021+015009999GA2071+021009999GF107991999999999999999999MA1101691999999MW1001REMMET052LIRL 141200Z 12011KT 9999 SCT050 BKN070 14/07 Q1017;EQDQ01+000000PRSWM2
0185162430999992000011413004+41550+012900FM-15+0026LIRL V0201401N003610210019N0112651N1+01301+00501999999ADDGA1021+012009999GA2071+021009999GF107991999999999999999999MA1101691999999MW1001REMMET075LIRL 141300Z 14007KT 9999 SCT040 BKN070 13/05 Q1017 RMK OVC MON LIB NC BLU;EQDQ01+000000PRSWM2
0162162430999992000011414004+41550+012900FM-15+0026LIRL V0201601N002110210019N0112651N1+01201+00601999999ADDGA1021+012009999GA2071+021009999GF107991999999999999999999MA1101591999999MW1001REMMET052LIRL 141400Z 16004KT 9999 SCT040 BKN070 12/06 Q1016;EQDQ01+000000PRSWM2
0185162430999992000011415004+41550+012900FM-15+0026LIRL V0200901N002110240019N0112651N1+01201+00701999999ADDGA1021+012009999GA2021+021009999GA3071+024009999GF107991999999999999999999MA1101591999999MW1001REMMET059LIRL 141500Z 09004KT 9999 FEW040 SCT070 BKN080 12/07 Q1016;EQDQ01+000000PRSWM2
0187162430999992000011416004+41550+012900FM-15+0026LIRL V0200901N004110240019N0112651N1+01201+00601999999ADDGA1021+015009999GA2071+024009999GF107991999999999999999999MA1101591999999MW1001REMMET077LIRL 141600Z 09008KT 9999 SCT050 BKN080 12/06 Q1016 RMK OVC MON INVIS NC BLU;EQDQ01+000000PRSWM2
0162162430999992000011417004+41550+012900FM-15+0026LIRL V0201401N002610210019N0112651N1+01101+00501999999ADDGA1021+015009999GA2071+021009999GF107991999999999999999999MA1101591999999MW1001REMMET052LIRL 141700Z 14005KT 9999 SCT050 BKN070 11/05 Q1016;EQDQ01+000000PRSWM2
0187162430999992000011418004+41550+012900FM-15+0026LIRL V0209999C000010240019N0112651N1+01001+00501999999ADDGA1021+015009999GA2071+024009999GF107991999999999999999999MA1101591999999MW1001REMMET077LIRL 141800Z 00000KT 9999 SCT050 BKN080 10/05 Q1016 RMK BKN MON INVIS NC BLU;EQDQ01+000000PRSWM2
0162162430999992000011419004+41550+012900FM-15+0026LIRL V0200801N002110240019N0112651N1+01001+00501999999ADDGA1021+015009999GA2071+024009999GF107991999999999999999999MA1101691999999MW1001REMMET052LIRL 141900Z 08004KT 9999 SCT050 BKN080 10/05 Q1017;EQDQ01+000000PRSWM2
0187162430999992000011420004+41550+012900FM-15+0026LIRL V0200801N006710240019N0112651N1+01101+00401999999ADDGA1021+015009999GA2071+024009999GF107991999999999999999999MA1101691999999MW1001REMMET077LIRL 142000Z 08013KT 9999 SCT050 BKN080 11/04 Q1017 RMK OVC MON INVIS NC BLU;EQDQ01+000000PRSWM2
0162162430999992000011421004+41550+012900FM-15+0026LIRL V0200801N004110240019N0112651N1+01201+00301999999ADDGA1021+021009999GA2071+024009999GF107991999999999999999999MA1101801999999MW1001REMMET052LIRL 142100Z 08008KT 9999 SCT070 BKN080 12/03 Q1018;EQDQ01+000000PRSWM2
0187162430999992000011422004+41550+012900FM-15+0026LIRL V0200701N002110240019N0112651N1+01101+00401999999ADDGA1021+021009999GA2071+024009999GF107991999999999999999999MA1101801999999MW1001REMMET077LIRL 142200Z 07004KT 9999 SCT070 BKN080 11/04 Q1018 RMK OVC MON INVIS NC BLU;EQDQ01+000000PRSWM2
0187162430999992000011423004+41550+012900FM-15+0026LIRL V0201501N002110240019N0112651N1+01101+00401999999ADDGA1021+021009999GA2071+024009999GF107991999999999999999999MA1101801999999MW1001REMMET077LIRL 142300Z 15004KT 9999 FEW070 BKN080 11/04 Q1018 RMK BKN MON INVIS NC BLU;EQDQ01+000000PRSWM2
0162162430999992000011500004+41550+012900FM-15+0026LIRL V0202901N002110240019N0112651N1+01001+00501999999ADDGA1021+021009999GA2071+024009999GF107991999999999999999999MA1101801999999MW1001REMMET052LIRL 150000Z 29004KT 9999 FEW070 BKN080 10/05 Q1018;EQDQ01+000000PRSWM2
0162162430999992000011501004+41550+012900FM-15+0026LIRL V0202901N002110240019N0112651N1+01001+00501999999ADDGA1021+021009999GA2071+024009999GF107991999999999999999999MA1101801999999MW1001REMMET052LIRL 150100Z 29004KT 9999 FEW070 BKN080 10/05 Q1018;EQDQ01+000000PRSWM2
0187162430999992000011502004+41550+012900FM-15+0026LIRL V0202901N002110240019N0112651N1+00801+00701999999ADDGA1021+021009999GA2071+024009999GF107991999999999999999999MA1101801999999MW1001REMMET077LIRL 150200Z 29004KT 9999 FEW070 BKN080 08/07 Q1018 RMK BKN MON INVIS NC BLU;EQDQ01+000000PRSWM2
0187162430999992000011504004+41550+012900FM-15+0026LIRL V0209999C000010240019N0112651N1+00801+00601999999ADDGA1021+018009999GA2071+024009999GF107991999999999999999999MA1102001999999MW1001REMMET077LIRL 150400Z 00000KT 9999 SCT060 BKN080 08/06 Q1020 RMK OVC MON INVIS NC BLU;EQDQ01+000000PRSWM2
0162162430999992000011505004+41550+012900FM-15+0026LIRL V0209999C000010240019N0112651N1+00701+00601999999ADDGA1021+018009999GA2071+024009999GF107991999999999999999999MA1102001999999MW1001REMMET052LIRL 150500Z 00000KT 9999 SCT060 BKN080 07/06 Q1020;EQDQ01+000000PRSWM2
0187162430999992000011506004+41550+012900FM-15+0026LIRL V0209999C000010240019N0112651N1+00701+00601999999ADDGA1021+021009999GA2071+024009999GF107991999999999999999999MA1102001999999MW1001REMMET077LIRL 150600Z 00000KT 9999 SCT070 BKN080 07/06 Q1020 RMK OVC MON INVIS NC BLU;EQDQ01+000000PRSWM2
0162162430999992000011507004+41550+012900FM-15+0026LIRL V0203501N000510210019N0112651N1+00601+00601999999ADDGA1071+021009999GA2071+024009999GF107991999999999999999999MA1102001999999MW1001REMMET052LIRL 150700Z 35001KT 9999 BKN070 BKN080 06/06 Q1020;EQDQ01+000000PRSWM2
0162162430999992000011508004+41550+012900FM-15+0026LIRL V0209999C000012200019N0112651N1+00701+00701999999ADDGA1021+024009999GF102991999999999999999999MA1102101999999MW1001REMMET068LIRL 150800Z 00000KT 9999 FEW080 07/07 Q1021 RMK SCT MON LIB NC BLU;EQDQ01+000000PRSWM2
0185162430999992000011509004+41550+012900FM-15+0026LIRL V0209999C000012200019N0112651N1+00901+00701999999ADDGA1021+021009999GA2021+066009999GF104991999999999999999999MA1102201999999MW1001REMMET075LIRL 150900Z 00000KT 9999 FEW070 SCT220 09/07 Q1022 RMK BKN MON LIB NC BLU;EQDQ01+000000PRSWM2
0162162430999992000011510004+41550+012900FM-15+0026LIRL V0202901N001012200019N0112651N1+01001+00601999999ADDGA1021+021009999GF104991999999999999999999MA1102201999999MW1001REMMET068LIRL 151000Z 29002KT 9999 SCT070 10/06 Q1022 RMK BKN MON LIB NC BLU;EQDQ01+000000PRSWM2
0139162430999992000011511004+41550+012900FM-15+0026LIRL V0202101N001012200019N0112651N1+01201+00601999999ADDGA1021+021009999GF104991999999999999999999MA1102201999999MW1001REMMET045LIRL 151100Z 21002KT 9999 SCT070 12/06 Q1022;EQDQ01+000000PRSWM2
0162162430999992000011512004+41550+012900FM-15+0026LIRL V0202101N000512200019N0112651N1+01201+00501999999ADDGA1021+010809999GF102991999999999999999999MA1102201999999MW1001REMMET068LIRL 151200Z 21001KT 9999 FEW036 12/05 Q1022 RMK SCT MON LIB NC BLU;EQDQ01+000000PRSWM2
0162162430999992000011513004+41550+012900FM-15+0026LIRL V0209999C000012200019N0112651N1+01301+00501999999ADDGA1021+010809999GF102991999999999999999999MA1102201999999MW1001REMMET068LIRL 151300Z 00000KT 9999 FEW036 13/05 Q1022 RMK SCT MON LIB NC BLU;EQDQ01+000000PRSWM2
0162162430999992000011514004+41550+012900FM-15+0026LIRL V0202201N001012200019N0112651N1+01301+00401999999ADDGA1021+010809999GA2021+066009999GF104991999999999999999999MA1102201999999MW1001REMMET052LIRL 151400Z 22002KT 9999 FEW036 SCT220 13/04 Q1022;EQDQ01+000000PRSWM2
0091162430999992000011515004+41550+012900FM-15+0026LIRL V0202001N00151220001CN0099001N1+01301+00501999999ADDMA1102201999999MW1001REMMET039LIRL 151500Z 20003KT CAVOK 13/05 Q1022;EQDQ01+000000PRSWM2
0091162430999992000011516004+41550+012900FM-15+0026LIRL V0209999C00001220001CN0099001N1+01101+00601999999ADDMA1102201999999MW1001REMMET039LIRL 151600Z 00000KT CAVOK 11/06 Q1022;EQDQ01+000000PRSWM2
0133162430999992000011517004+41550+012900FM-15+0026LIRL V0200501N00101220001CN0099001N1+01001+00701999999ADDMA1102201999999MW1001REMMET081LIRL 151700Z 05002KT CAVOK 10/07 Q1022 RMK FEW090 SCT220 MON INVIS VAR RAPID BLU;EQDQ01+000000PRSWM2
0091162430999992000011518004+41550+012900FM-15+0026LIRL V0209999C00001220001CN0099001N1+00901+00701999999ADDMA1102201999999MW1001REMMET039LIRL 151800Z 00000KT CAVOK 09/07 Q1022;EQDQ01+000000PRSWM2
0091162430999992000011519004+41550+012900FM-15+0026LIRL V0203301N00051220001CN0099001N1+00701+00601999999ADDMA1102201999999MW1001REMMET039LIRL 151900Z 33001KT CAVOK 07/06 Q1022;EQDQ01+000000PRSWM2
0139162430999992000011521004+41550+012900FM-15+0026LIRL V0209999C000012200019N0112651N1+00501+00401999999ADDGA1021+024009999GF102991999999999999999999MA1102301999999MW1001REMMET045LIRL 152100Z 00000KT 9999 FEW080 05/04 Q1023;EQDQ01+000000PRSWM2
0164162430999992000011522004+41550+012900FM-15+0026LIRL V0203301N001512200019N0112651N1+00501+00401999999ADDGA1021+015009999GF104991999999999999999999MA1102301999999MW1001REMMET070LIRL 152200Z 33003KT 9999 SCT050 05/04 Q1023 RMK SCT MON INVIS NC BLU;EQDQ01+000000PRSWM2
0139162430999992000011523004+41550+012900FM-15+0026LIRL V0203301N000512200019N0112651N1+00601+00501999999ADDGA1021+013509999GF104991999999999999999999MA1102301999999MW1001REMMET045LIRL 152300Z 33001KT 9999 SCT045 06/05 Q1023;EQDQ01+000000PRSWM2
0139162430999992000011600004+41550+012900FM-15+0026LIRL V0209999C000012200019N0112651N1+00501+00401999999ADDGA1021+013509999GF104991999999999999999999MA1102301999999MW1001REMMET045LIRL 160000Z 00000KT 9999 SCT045 05/04 Q1023;EQDQ01+000000PRSWM2
0139162430999992000011601004+41550+012900FM-15+0026LIRL V0209999C000012200019N0112651N1+00401+00301999999ADDGA1021+015009999GF102991999999999999999999MA1102301999999MW1001REMMET045LIRL 160100Z 00000KT 9999 FEW050 04/03 Q1023;EQDQ01+000000PRSWM2
0139162430999992000011602004+41550+012900FM-15+0026LIRL V0203001N000512200019N0112651N1+00301+00201999999ADDGA1021+015009999GF102991999999999999999999MA1102301999999MW1001REMMET045LIRL 160200Z 30001KT 9999 FEW050 03/02 Q1023;EQDQ01+000000PRSWM2
0139162430999992000011603004+41550+012900FM-15+0026LIRL V0209999C000010180019N0112651N1+00301+00201999999ADDGA1071+018009999GF107991999999999999999999MA1102301999999MW1001REMMET045LIRL 160300Z 00000KT 9999 BKN060 03/02 Q1023;EQDQ01+000000PRSWM2
0187162430999992000011604004+41550+012900FM-15+0026LIRL V0209999C000012200019N0112651N1+00301+00201999999ADDGA1021+010809999GA2021+018009999GF104991999999999999999999MA1102301999999MW1001REMMET077LIRL 160400Z 00000KT 9999 SCT036 SCT060 03/02 Q1023 RMK BKN MON INVIS NC BLU;EQDQ01+000000PRSWM2
0162162430999992000011605004+41550+012900FM-15+0026LIRL V0209999C000012200019N0112651N1+00501+00401999999ADDGA1021+010809999GA2021+018009999GF104991999999999999999999MA1102201999999MW1001REMMET052LIRL 160500Z 00000KT 9999 FEW036 SCT060 05/04 Q1022;EQDQ01+000000PRSWM2
0174162430999992000011606004+41550+012900FM-15+0026LIRL V0209999C000012200019N0112651N1+00501+00401999999ADDGA1021+012009999GA2021+018009999GF104991999999999999999999MA1102201999999MW1001REMMET064LIRL 160600Z 00000KT 9999 FEW040 SCT060 05/04 Q1022 RMK SCT MON;EQDQ01+000000PRSWM2
0169162430999992000011607004+41550+012900FM-15+0026LIRL V0209999C000012200019N0080001N1+00501+00401999999ADDGA1021+018009999GF102991999999999999999999MA1102201999999MW1001REMMET075LIRL 160700Z 00000KT 8000 FEW060 05/04 Q1022 RMK SCT MON LIB VAR RAPID BLU;EQDQ01+000000PRSWM2
0139162430999992000011608004+41550+012900FM-15+0026LIRL V0209999C000012200019N0080001N1+00401+00301999999ADDGA1021+012009999GF104991999999999999999999MA1102201999999MW1001REMMET045LIRL 160800Z 00000KT 8000 SCT040 04/03 Q1022;EQDQ01+000000PRSWM2
0185162430999992000011609004+41550+012900FM-15+0026LIRL V0209999C000012200019N0080001N1+00601+00501999999ADDGA1021+006609999GA2021+012009999GF104991999999999999999999MA1102201999999MW1001REMMET075LIRL 160900Z 00000KT 8000 FEW022 SCT040 06/05 Q1022 RMK SCT MON LIB NC BLU;EQDQ01+000000PRSWM2
0162162430999992000011610004+41550+012900FM-15+0026LIRL V0209999C000012200019N0080001N1+00801+00601999999ADDGA1021+006609999GA2021+012009999GF104991999999999999999999MA1102201999999MW1001REMMET052LIRL 161000Z 00000KT 8000 SCT022 SCT040 08/06 Q1022;EQDQ01+000000PRSWM2
0162162430999992000011611004+41550+012900FM-15+0026LIRL V0209999C000012200019N0070001N1+00901+00701999999ADDGA1021+006609999GF104991999999999999999999MA1102201999999MW1001REMMET068LIRL 161100Z 00000KT 7000 SCT022 09/07 Q1022 RMK SCT MON LIB NC WHT;EQDQ01+000000PRSWM2
0162162430999992000011612004+41550+012900FM-15+0026LIRL V0202201N001012200019N0080001N1+01201+00701999999ADDGA1021+006909999GF104991999999999999999999MA1102101999999MW1001REMMET068LIRL 161200Z 22002KT 8000 SCT023 12/07 Q1021 RMK SCT MON LIB NC BLU;EQDQ01+000000PRSWM2
0139162430999992000011613004+41550+012900FM-15+0026LIRL V0202601N000512200019N0080001N1+01301+00701999999ADDGA1021+006909999GF104991999999999999999999MA1102101999999MW1001REMMET045LIRL 161300Z 26001KT 8000 SCT023 13/07 Q1021;EQDQ01+000000PRSWM2
0185162430999992000011614004+41550+012900FM-15+0026LIRL V0202601N001012200019N0090001N1+01301+00801999999ADDGA1021+006009999GA2021+054009999GF104991999999999999999999MA1102101999999MW1001REMMET075LIRL 161400Z 26002KT 9000 FEW020 SCT180 13/08 Q1021 RMK SCT MON LIB NC BLU;EQDQ01+000000PRSWM2
0185162430999992000011615004+41550+012900FM-15+0026LIRL V0201701N002112200019N0090001N1+01201+00501999999ADDGA1021+006009999GA2021+027009999GF104991999999999999999999MA1102001999999MW1001REMMET075LIRL 161500Z 17004KT 9000 FEW020 SCT090 12/05 Q1020 RMK SCT MON LIB NC BLU;EQDQ01+000000PRSWM2
0162162430999992000011617004+41550+012900FM-15+0026LIRL V0209999C000012200019N0070001N1+00901+00801999999ADDGA1021+006009999GA2021+024009999GF104991999999999999999999MA1102001999999MW1001REMMET052LIRL 161700Z 00000KT 7000 FEW020 SCT080 09/08 Q1020;EQDQ01+000000PRSWM2
0162162430999992000011618004+41550+012900FM-15+0026LIRL V0200601N001012200019N0090001N1+00801+00701999999ADDGA1021+006009999GA2021+024009999GF104991999999999999999999MA1102001999999MW1001REMMET052LIRL 161800Z 06002KT 9000 FEW020 SCT080 08/07 Q1020;EQDQ01+000000PRSWM2
0187162430999992000011619004+41550+012900FM-15+0026LIRL V0203501N001012200019N0090001N1+00801+00701999999ADDGA1021+006009999GA2021+024009999GF104991999999999999999999MA1102001999999MW1001REMMET077LIRL 161900Z 35002KT 9000 FEW020 SCT080 08/07 Q1020 RMK SCT MON INVIS NC BLU;EQDQ01+000000PRSWM2
0187162430999992000011620004+41550+012900FM-15+0026LIRL V0202801N002112200019N0090001N1+00801+00701999999ADDGA1021+006009999GA2021+024009999GF104991999999999999999999MA1102001999999MW1001REMMET077LIRL 162000Z 28004KT 9000 FEW020 SCT080 08/07 Q1020 RMK SCT MON INVIS NC BLU;EQDQ01+000000PRSWM2
0162162430999992000011621004+41550+012900FM-15+0026LIRL V0209999C000012200019N0090001N1+00601+00501999999ADDGA1021+006009999GA2021+024009999GF104991999999999999999999MA1102001999999MW1001REMMET052LIRL 162100Z 00000KT 9000 FEW020 SCT080 06/05 Q1020;EQDQ01+000000PRSWM2
0187162430999992000011622004+41550+012900FM-15+0026LIRL V0203101N001012200019N0090001N1+00601+00601999999ADDGA1021+006009999GA2021+021009999GF104991999999999999999999MA1102001999999MW1001REMMET077LIRL 162200Z 31002KT 9000 FEW020 SCT070 06/06 Q1020 RMK BKN MON INVIS NC BLU;EQDQ01+000000PRSWM2
0162162430999992000011623004+41550+012900FM-15+0026LIRL V0203301N002112200019N0090001N1+00601+00501999999ADDGA1021+006009999GA2021+024009999GF104991999999999999999999MA1102001999999MW1001REMMET052LIRL 162300Z 33004KT 9000 FEW020 SCT080 06/05 Q1020;EQDQ01+000000PRSWM2
0162162430999992000011700004+41550+012900FM-15+0026LIRL V0203201N002112200019N0090001N1+00601+00401999999ADDGA1021+006009999GA2021+012009999GF104991999999999999999999MA1102001999999MW1001REMMET052LIRL 170000Z 32004KT 9000 FEW020 SCT040 06/04 Q1020;EQDQ01+000000PRSWM2
0162162430999992000011701004+41550+012900FM-15+0026LIRL V0203201N002112200019N0090001N1+00601+00401999999ADDGA1021+006009999GA2021+012009999GF104991999999999999999999MA1102001999999MW1001REMMET052LIRL 170100Z 32004KT 9000 FEW020 SCT040 06/04 Q1020;EQDQ01+000000PRSWM2
0182162430999992000011702004+41550+012900FM-15+0026LIRL V0200301N001512200019N0090001N1+00601+00501999999ADDGA1021+006009999GA2021+009909999GF104991999999999999999999MA1102001999999MW1611REMMET056LIRL 170200Z 03003KT 9000 -RA SCT020 SCT033 06/05 Q1020;EQDQ01+000003PRSWM1Q02    003PRSWM1
0162162430999992000011705004+41550+012900FM-15+0026LIRL V0200101N001012200019N0090001N1+00601+00501999999ADDGA1021+006009999GA2021+012009999GF104991999999999999999999MA1101901999999MW1001REMMET052LIRL 170500Z 01002KT 9000 SCT020 SCT040 06/05 Q1019;EQDQ01+000000PRSWM2
0162162430999992000011706004+41550+012900FM-15+0026LIRL V0203201N001512200019N0112651N1+00501+00401999999ADDGA1021+006009999GA2021+012009999GF104991999999999999999999MA1101901999999MW1001REMMET052LIRL 170600Z 32003KT 9999 SCT020 SCT040 05/04 Q1019;EQDQ01+000000PRSWM2
0192162430999992000011707004+41550+012900FM-15+0026LIRL V0203001N000512200019N0080001N1+00501+00401999999ADDGA1021+007509999GA2021+021009999GF104991999999999999999999MA1101901999999MW1001REMMET082LIRL 170700Z 30001KT 8000 SCT025 SCT070 05/04 Q1019 RMK BKN MON LIB VAR RAPID BLU;EQDQ01+000000PRSWM2
0185162430999992000011708004+41550+012900FM-15+0026LIRL V0203301N001012200019N0090001N1+00601+00401999999ADDGA1021+007509999GA2021+009009999GF104991999999999999999999MA1101901999999MW1001REMMET075LIRL 170800Z 33002KT 9000 SCT025 SCT030 06/04 Q1019 RMK BKN MON LIB NC BLU;EQDQ01+000000PRSWM2
0139162430999992000011709004+41550+012900FM-15+0026LIRL V0203201N001512200019N0080001N1+00701+00501999999ADDGA1021+006009999GF104991999999999999999999MA1101901999999MW1001REMMET045LIRL 170900Z 32003KT 8000 SCT020 07/05 Q1019;EQDQ01+000000PRSWM2
0139162430999992000011710004+41550+012900FM-15+0026LIRL V0203101N001512200019N0112651N1+00901+00501999999ADDGA1021+006009999GF102991999999999999999999MA1101901999999MW1001REMMET045LIRL 171000Z 31003KT 9999 FEW020 09/05 Q1019;EQDQ01+000000PRSWM2
0162162430999992000011711004+41550+012900FM-15+0026LIRL V0203101N002612200019N0112651N1+01001+00601999999ADDGA1021+006009999GF102991999999999999999999MA1101901999999MW1001REMMET068LIRL 171100Z 31005KT 9999 FEW020 10/06 Q1019 RMK FEW MON LIB NC BLU;EQDQ01+000000PRSWM2
0162162430999992000011712004+41550+012900FM-15+0026LIRL V0202701N002612200019N0112651N1+01001+00601999999ADDGA1021+006009999GF104991999999999999999999MA1101801999999MW1001REMMET068LIRL 171200Z 27005KT 9999 SCT020 10/06 Q1018 RMK SCT MON LIB NC BLU;EQDQ01+000000PRSWM2
0162162430999992000011713004+41550+012900FM-15+0026LIRL V0202801N003112200019N0112651N1+01001+00501999999ADDGA1021+006009999GF102991999999999999999999MA1101691999999MW1001REMMET068LIRL 171300Z 28006KT 9999 FEW020 10/05 Q1017 RMK FEW MON LIB NC BLU;EQDQ01+000000PRSWM2
0162162430999992000011714004+41550+012900FM-15+0026LIRL V0202601N003612200019N0112651N1+01001+00201999999ADDGA1021+006009999GF102991999999999999999999MA1101691999999MW1001REMMET068LIRL 171400Z 26007KT 9999 FEW020 10/02 Q1017 RMK FEW MON LIB NC BLU;EQDQ01+000000PRSWM2
0162162430999992000011715004+41550+012900FM-15+0026LIRL V0202801N004612200019N0112651N1+01001+00101999999ADDGA1021+007509999GA2021+024009999GF104991999999999999999999MA1101591999999MW1001REMMET052LIRL 171500Z 28009KT 9999 FEW025 SCT080 10/01 Q1016;EQDQ01+000000PRSWM2
0117162430999992000011716004+41550+012900FM-15+0026LIRL V0203001N00261220001CN0099001N1+00901+00101999999ADDMA1101491999999MW1001REMMET065LIRL 171600Z 30005KT CAVOK 09/01 Q1015 RMK FEW090 MON LIB NC BLU;EQDQ01+000000PRSWM2
0126162430999992000011717004+41550+012900FM-15+0026LIRL V0203101N00311220001CN0099001N1+00701+00101999999ADDMA1101491999999MW1001REMMET074LIRL 171700Z 31006KT CAVOK 07/01 Q1015 RMK FEW100 MON INVIS VAR RAPID BLU;EQDQ01+000000PRSWM2
0113162430999992000011719004+41550+012900FM-15+0026LIRL V0203101N00571220001CN0099001N1+00701-00101999999ADDMA1101491999999MW1001REMMET061LIRL 171900Z 31011KT CAVOK 07/M01 Q1015 RMK MON INVIS NC BLU;EQDQ01+000000PRSWM2
0092162430999992000011720004+41550+012900FM-15+0026LIRL V0203001N00411220001CN0099001N1+00701+00001999999ADDMA1101491999999MW1001REMMET040LIRL 172000Z 30008KT CAVOK 07/M00 Q1015;EQDQ01+000000PRSWM2
0092162430999992000011721004+41550+012900FM-15+0026LIRL V0202601N00411220001CN0099001N1+00601+00001999999ADDMA1101391999999MW1001REMMET040LIRL 172100Z 26008KT CAVOK 06/M00 Q1014;EQDQ01+000000PRSWM2
0113162430999992000011722004+41550+012900FM-15+0026LIRL V0202901N00051220001CN0099001N1+00501+00001999999ADDMA1101391999999MW1001REMMET061LIRL 172200Z 29001KT CAVOK 05/M00 Q1014 RMK MON INVIS NC BLU;EQDQ01+000000PRSWM2
0092162430999992000011723004+41550+012900FM-15+0026LIRL V0202701N00361220001CN0099001N1+00501-00101999999ADDMA1101291999999MW1001REMMET040LIRL 172300Z 27007KT CAVOK 05/M01 Q1013;EQDQ01+000000PRSWM2
0092162430999992000011800004+41550+012900FM-15+0026LIRL V0202801N00461220001CN0099001N1+00501-00201999999ADDMA1101291999999MW1001REMMET040LIRL 180000Z 28009KT CAVOK 05/M02 Q1013;EQDQ01+000000PRSWM2
0113162430999992000011801004+41550+012900FM-15+0026LIRL V0203301N00571220001CN0099001N1+00501-00301999999ADDMA1101191999999MW1001REMMET061LIRL 180100Z 33011KT CAVOK 05/M03 Q1012 RMK MON INVIS NC BLU;EQDQ01+000000PRSWM2
0113162430999992000011802004+41550+012900FM-15+0026LIRL V0203201N00511220001CN0099001N1+00701-00201999999ADDMA1101191999999MW1001REMMET061LIRL 180200Z 32010KT CAVOK 07/M02 Q1012 RMK MON INVIS NC BLU;EQDQ01+000000PRSWM2
0113162430999992000011803004+41550+012900FM-15+0026LIRL V0202901N00461220001CN0099001N1+00701-00301999999ADDMA1101081999999MW1001REMMET061LIRL 180300Z 29009KT CAVOK 07/M03 Q1011 RMK MON INVIS NC BLU;EQDQ01+000000PRSWM2
0112162430999992000011804004+41550+012900FM-15+0026LIRL V0203101N00411220001CN0099001N1+00601+00101999999ADDMA1101081999999MW1001REMMET060LIRL 180400Z 31008KT CAVOK 06/01 Q1011 RMK MON INVIS NC BLU;EQDQ01+000000PRSWM2
0091162430999992000011805004+41550+012900FM-15+0026LIRL V0203101N00411220001CN0099001N1+00701+00401999999ADDMA1101021999999MW1001REMMET039LIRL 180500Z 31008KT CAVOK 07/04 Q1010;EQDQ01+000000PRSWM2
0091162430999992000011806004+41550+012900FM-15+0026LIRL V0202901N00461220001CN0099001N1+00701+00401999999ADDMA1101021999999MW1001REMMET039LIRL 180600Z 29009KT CAVOK 07/04 Q1010;EQDQ01+000000PRSWM2
0091162430999992000011807004+41550+012900FM-15+0026LIRL V0202901N00571220001CN0099001N1+00701+00401999999ADDMA1100811999999MW1001REMMET039LIRL 180700Z 29011KT CAVOK 07/04 Q1008;EQDQ01+000000PRSWM2
0110162430999992000011808004+41550+012900FM-15+0026LIRL V0202901N00621220001CN0099001N1+00801+00401999999ADDMA1100811999999MW1001REMMET058LIRL 180800Z 29012KT CAVOK 08/04 Q1008 RMK MON LIB NC BLU;EQDQ01+000000PRSWM2
0091162430999992000011809004+41550+012900FM-15+0026LIRL V0202801N00211220001CN0099001N1+00901+00501999999ADDMA1100811999999MW1001REMMET039LIRL 180900Z 28004KT CAVOK 09/05 Q1008;EQDQ01+000000PRSWM2
0091162430999992000011810004+41550+012900FM-15+0026LIRL V0201601N00261220001CN0099001N1+01001+00501999999ADDMA1100911999999MW1001REMMET039LIRL 181000Z 16005KT CAVOK 10/05 Q1009;EQDQ01+000000PRSWM2
0110162430999992000011811004+41550+012900FM-15+0026LIRL V0201201N00261220001CN0099001N1+01001+00501999999ADDMA1100911999999MW1001REMMET058LIRL 181100Z 12005KT CAVOK 10/05 Q1009 RMK MON LIB NC BLU;EQDQ01+000000PRSWM2
0110162430999992000011812004+41550+012900FM-15+0026LIRL V0201101N00051220001CN0099001N1+01101+00601999999ADDMA1100711999999MW1001REMMET058LIRL 181200Z 11001KT CAVOK 11/06 Q1007 RMK MON LIB NC BLU;EQDQ01+000000PRSWM2
0120162430999992000011813004+41550+012900FM-15+0026LIRL V0201001N000512200019N0080001N1+01201+00601999999ADDGF100991999999999999999999MA1100611999999MW1001REMMET042LIRL 181300Z 10001KT 8000 SKC 12/06 Q1006;EQDQ01+000000PRSWM2
0139162430999992000011814004+41550+012900FM-15+0026LIRL V0202801N003612200019N0080001N1+01201+00701999999ADDGF100991999999999999999999MA1100511999999MW1001REMMET061LIRL 181400Z 28007KT 8000 SKC 12/07 Q1005 RMK MON LIB NC BLU;EQDQ01+000000PRSWM2
0139162430999992000011815004+41550+012900FM-15+0026LIRL V0202601N004612200019N0112651N1+01201+00901999999ADDGA1021+009009999GF102991999999999999999999MA1100511999999MW1001REMMET045LIRL 181500Z 26009KT 9999 FEW030 12/09 Q1005;EQDQ01+000000PRSWM2
0162162430999992000011816004+41550+012900FM-15+0026LIRL V0202801N003112200019N0112651N1+01101+00901999999ADDGA1021+009009999GF102991999999999999999999MA1100511999999MW1001REMMET068LIRL 181600Z 28006KT 9999 FEW030 11/09 Q1005 RMK FEW MON LIB NC BLU;EQDQ01+000000PRSWM2
0171162430999992000011817004+41550+012900FM-15+0026LIRL V0200301N001012200019N0112651N1+01001+00801999999ADDGA1021+009009999GF102991999999999999999999MA1100511999999MW1001REMMET077LIRL 181700Z 03002KT 9999 FEW030 10/08 Q1005 RMK FEW MON INVIS VAR RAPID BLU;EQDQ01+000000PRSWM2
0091162430999992000011818004+41550+012900FM-15+0026LIRL V0209999C00001220001CN0099001N1+00801+00701999999ADDMA1100511999999MW1001REMMET039LIRL 181800Z 00000KT CAVOK 08/07 Q1005;EQDQ01+000000PRSWM2
0112162430999992000011819004+41550+012900FM-15+0026LIRL V0209999C00001220001CN0099001N1+00801+00601999999ADDMA1100511999999MW1001REMMET060LIRL 181900Z 00000KT CAVOK 08/06 Q1005 RMK MON INVIS NC BLU;EQDQ01+000000PRSWM2
