0120167060999992000010103004+38330+026130FM-15+0004LGHI V0209999C000012200019N0112651N1+01201+00301999999ADDGA1021+006009999GF102991999999999999999999MA1101491999999MW1001REMMET045LGHI 010300Z 00000KT 9999 FEW020 12/03 Q1015;
0120167060999992000010104004+38330+026130FM-15+0004LGHI V0202801N002112200019N0112651N1+01101+00301999999ADDGA1021+006009999GF102991999999999999999999MA1101591999999MW1001REMMET045LGHI 010400Z 28004KT 9999 FEW020 11/03 Q1016;
0127167060999992000010105004+38330+026130FM-15+0004LGHI V0202901N002112200019N0112651N1+00901+00401999999ADDGA1021+006009999GF102991999999999999999999MA1101591999999MW1001REMMET052LGHI 010500Z 29004KT 9999 FEW020 09/04 Q1016 FEW080;
0126167060999992000010106004+38330+026130FM-15+0004LGHI V0209999C000012200019N0112651N1+00901+00401999999ADDGA1021+006009999GF102991999999999999999999MA1101691999999MW1001REMMET051LGHI 010600Z 00000KT 9999 FEW020 09/04 Q1017FEW080;
0120167060999992000010107004+38330+026130FM-15+0004LGHI V0202201N002112200019N0112651N1+00801+00501999999ADDGA1021+006009999GF102991999999999999999999MA1101801999999MW1001REMMET045LGHI 010700Z 22004KT 9999 FEW020 08/05 Q1018;
0143167060999992000010108004+38330+026130FM-15+0004LGHI V0209999C000012200019N0112651N1+01201+00601999999ADDGA1021+006009999GA2021+054009999GF104991999999999999999999MA1101801999999MW1001REMMET052LGHI 010800Z 00000KT 9999 FEW020 SCT180 12/06 Q1018;
0120167060999992000010109004+38330+026130FM-15+0004LGHI V0209999C000012200019N0112651N1+01201+00201999999ADDGA1021+006009999GF104991999999999999999999MA1101901999999MW1001REMMET045LGHI 010900Z 00000KT 9999 SCT020 12/02 Q1019;
0143167060999992000010110004+38330+026130FM-15+0004LGHI V0200301N005712200019N0112651N1+01301+00401999999ADDGA1021+006009999GA2021+054009999GF104991999999999999999999MA1101901999999MW1001REMMET052LGHI 011000Z 03011KT 9999 SCT020 SCT180 13/04 Q1019;
0143167060999992000010111004+38330+026130FM-15+0004LGHI V0200201N006710060019N0112651N1+01201+00301999999ADDGA1071+006009999GA2071+054009999GF107991999999999999999999MA1101801999999MW1001REMMET052LGHI 011100Z 02013KT 9999 BKN020 BKN180 12/03 Q1018;
0143167060999992000010112004+38330+026130FM-15+0004LGHI V0200201N006710060019N0112651N1+01201+00201999999ADDGA1071+006009999GA2071+054009999GF107991999999999999999999MA1101801999999MW1001REMMET052LGHI 011200Z 02013KT 9999 BKN020 BKN180 12/02 Q1018;
0166167060999992000010113004+38330+026130FM-15+0004LGHI V0200201N006210540019N0112651N1+01101+00101999999ADDGA1021+006009999GA2021+024009999GA3071+054009999GF107991999999999999999999MA1101801999999MW1001REMMET059LGHI 011300Z 02012KT 9999 FEW020 SCT080 BKN180 11/01 Q1018;
0166167060999992000010114004+38330+026130FM-15+0004LGHI V0200101N005110540019N0112651N1+01101+00101999999ADDGA1021+006009999GA2021+024009999GA3071+054009999GF107991999999999999999999MA1101801999999MW1001REMMET059LGHI 011400Z 01010KT 9999 FEW020 SCT080 BKN180 11/01 Q1018;
0143167060999992000010116004+38330+026130FM-15+0004LGHI V0200101N005110540019N0112651N1+01001+00201999999ADDGA1021+006009999GA2071+054009999GF107991999999999999999999MA1101901999999MW1001REMMET052LGHI 011600Z 01010KT 9999 FEW020 BKN180 10/02 Q1019;
0143167060999992000010117004+38330+026130FM-15+0004LGHI V0200101N005110540019N0112651N1+01001+00201999999ADDGA1021+006009999GA2071+054009999GF107991999999999999999999MA1101901999999MW1001REMMET052LGHI 011700Z 01010KT 9999 FEW020 BKN180 10/02 Q1019;
0120167060999992000010118004+38330+026130FM-15+0004LGHI V0200101N004112200019N0112651N1+01001+00101999999ADDGA1021+006009999GF102991999999999999999999MA1102001999999MW1001REMMET045LGHI 011800Z 01008KT 9999 FEW020 10/01 Q1020;
0120167060999992000010119004+38330+026130FM-15+0004LGHI V0209999C000012200019N0112651N1+01001+00101999999ADDGA1021+006009999GF102991999999999999999999MA1102001999999MW1001REMMET045LGHI 011900Z 00000KT 9999 FEW020 10/01 Q1020;
0120167060999992000010120004+38330+026130FM-15+0004LGHI V0203501N002612200019N0112651N1+00901+00201999999ADDGA1021+006009999GF102991999999999999999999MA1102001999999MW1001REMMET045LGHI 012000Z 35005KT 9999 FEW020 09/02 Q1020;
0120167060999992000010121004+38330+026130FM-15+0004LGHI V0209999C000012200019N0112651N1+00801+00101999999ADDGA1021+006009999GF102991999999999999999999MA1102001999999MW1001REMMET045LGHI 012100Z 00000KT 9999 FEW020 08/01 Q1020;
0162167060999992000010203004+38330+026130FM-15+0004LGHI V0209999C000010240019N0112651N1+00701+00501999999ADDGA1021+006009999GA2071+024009999GF107991999999999999999999MA1101901999999MW1001REMMET052LGHI 020300Z 00000KT 9999 FEW020 BKN080 07/05 Q1019;EQDQ01+000000PRSWM2
0181167060999992000010204004+38330+026130FM-15+0004LGHI V0209999C000010180019N0080001N1+00701+00501999999ADDGA1021+006009999GA2081+018009999GF108991999999999999999999MA1101901999999MW1631REMMET055LGHI 020400Z 00000KT 8000 RA SCT020 OVC060 07/05 Q1019;EQDQ01+000003PRSWM1Q02    003PRSWM1
0167167060999992000010205004+38330+026130FM-15+0004LGHI V0203501N002610180019N0112651N1+00801+00501999999ADDGA1021+006009999GA2081+018009999GF108991999999999999999999MA1101901999999MW1001REMMET057LGHI 020500Z 35005KT 9999 SCT020 OVC060 08/05 Q1019 RERA;EQDQ01+000000PRSWM2
0185167060999992000010206004+38330+026130FM-15+0004LGHI V0203401N002610180019N0112651N1+00801+00101999999ADDGA1021+006009999GA2071+018009999GA3081+054009999GF108991999999999999999999MA1101901999999MW1001REMMET059LGHI 020600Z 34005KT 9999 SCT020 BKN060 OVC180 08/01 Q1019;EQDQ01+000000PRSWM2
0185167060999992000010207004+38330+026130FM-15+0004LGHI V0200301N005110540019N0112651N1+00801+00101999999ADDGA1021+006009999GA2021+018009999GA3081+054009999GF108991999999999999999999MA1101901999999MW1001REMMET059LGHI 020700Z 03010KT 9999 FEW020 SCT060 OVC180 08/01 Q1019;EQDQ01+000000PRSWM2
0162167060999992000010208004+38330+026130FM-15+0004LGHI V0200301N005110540019N0112651N1+00901+00301999999ADDGA1021+006009999GA2081+054009999GF108991999999999999999999MA1101901999999MW1001REMMET052LGHI 020800Z 03010KT 9999 FEW020 OVC180 09/03 Q1019;EQDQ01+000000PRSWM2
0185167060999992000010209004+38330+026130FM-15+0004LGHI V0200101N005110240019N0112651N1+00901+00301999999ADDGA1021+006009999GA2071+024009999GA3071+054009999GF107991999999999999999999MA1101901999999MW1001REMMET059LGHI 020900Z 01010KT 9999 FEW020 BKN080 BKN180 09/03 Q1019;EQDQ01+000000PRSWM2
0162167060999992000010210004+38330+026130FM-15+0004LGHI V0200101N005110480019N0112651N1+00901+00301999999ADDGA1021+006009999GA2081+048009999GF108991999999999999999999MA1101901999999MW1001REMMET052LGHI 021000Z 01010KT 9999 FEW020 OVC160 09/03 Q1019;EQDQ01+000000PRSWM2
0162167060999992000010211004+38330+026130FM-15+0004LGHI V0200101N005710480019N0112651N1+00901+00301999999ADDGA1021+006009999GA2081+048009999GF108991999999999999999999MA1101901999999MW1001REMMET052LGHI 021100Z 01011KT 9999 FEW020 OVC160 09/03 Q1019;EQDQ01+000000PRSWM2
0162167060999992000010212004+38330+026130FM-15+0004LGHI V0200101N006210540019N0112651N1+00901+00301999999ADDGA1021+006009999GA2081+054009999GF108991999999999999999999MA1101901999999MW1001REMMET052LGHI 021200Z 01012KT 9999 FEW020 OVC180 09/03 Q1019;EQDQ01+000000PRSWM2
0185167060999992000010213004+38330+026130FM-15+0004LGHI V0200201N006710240019N0112651N1+00901+00101999999ADDGA1021+006009999GA2071+024009999GA3081+054009999GF108991999999999999999999MA1101801999999MW1001REMMET059LGHI 021300Z 02013KT 9999 FEW020 BKN080 OVC180 09/01 Q1018;EQDQ01+000000PRSWM2
0162167060999992000010214004+38330+026130FM-15+0004LGHI V0200301N007210240019N0112651N1+00901+00201999999ADDGA1021+006009999GA2071+024009999GF107991999999999999999999MA1101901999999MW1001REMMET052LGHI 021400Z 03014KT 9999 FEW020 BKN080 09/02 Q1019;EQDQ01+000000PRSWM2
0185167060999992000010215004+38330+026130FM-15+0004LGHI V0200301N007710240019N0112651N1+00901+00101999999ADDGA1021+006009999GA2021+009009999GA3071+024009999GF107991999999999999999999MA1101901999999MW1001REMMET059LGHI 021500Z 03015KT 9999 FEW020 SCT030 BKN080 09/01 Q1019;EQDQ01+000000PRSWM2
0185167060999992000010216004+38330+026130FM-15+0004LGHI V0200201N009310240019N0112651N1+00901+00201999999ADDGA1021+006009999GA2021+009009999GA3071+024009999GF107991999999999999999999MA1101901999999MW1001REMMET059LGHI 021600Z 02018KT 9999 FEW020 SCT030 BKN080 09/02 Q1019;EQDQ01+000000PRSWM2
0185167060999992000010217004+38330+026130FM-15+0004LGHI V0200301N008710240019N0112651N1+00901+00101999999ADDGA1021+006009999GA2021+009009999GA3071+024009999GF107991999999999999999999MA1101901999999MW1001REMMET059LGHI 021700Z 03017KT 9999 FEW020 SCT030 BKN080 09/01 Q1019;EQDQ01+000000PRSWM2
0162167060999992000010218004+38330+026130FM-15+0004LGHI V0200301N008710240019N0112651N1+00801+00201999999ADDGA1021+006009999GA2071+024009999GF107991999999999999999999MA1101901999999MW1001REMMET052LGHI 021800Z 03017KT 9999 FEW020 BKN080 08/02 Q1019;EQDQ01+000000PRSWM2
0162167060999992000010219004+38330+026130FM-15+0004LGHI V0200401N010312200019N0112651N1+00801+00101999999ADDGA1021+006009999GA2021+024009999GF104991999999999999999999MA1101901999999MW1001REMMET052LGHI 021900Z 04020KT 9999 FEW020 SCT080 08/01 Q1019;EQDQ01+000000PRSWM2
0162167060999992000010220004+38330+026130FM-15+0004LGHI V0200201N010312200019N0112651N1+00801+00101999999ADDGA1021+006009999GA2021+024009999GF104991999999999999999999MA1101901999999MW1001REMMET052LGHI 022000Z 02020KT 9999 FEW020 SCT080 08/01 Q1019;EQDQ01+000000PRSWM2
0162167060999992000010221004+38330+026130FM-15+0004LGHI V0200201N010810240019N0112651N1+00801+00101999999ADDGA1021+006009999GA2071+024009999GF107991999999999999999999MA1101901999999MW1001REMMET052LGHI 022100Z 02021KT 9999 FEW020 BKN080 08/01 Q1019;EQDQ01+000000PRSWM2
0139167060999992000010303004+38330+026130FM-15+0004LGHI V0200201N010312200019N0112651N1+00701+00001999999ADDGA1021+006009999GF104991999999999999999999MA1101901999999MW1001REMMET045LGHI 030300Z 02020KT 9999 SCT020 07/00 Q1019;EQDQ01+000000PRSWM2
0140167060999992000010304004+38330+026130FM-15+0004LGHI V0200301N011812200019N0112651N1+00701-00201999999ADDGA1021+006009999GF102991999999999999999999MA1101901999999MW1001REMMET046LGHI 030400Z 03023KT 9999 FEW020 07/M02 Q1019;EQDQ01+000000PRSWM2
0140167060999992000010305004+38330+026130FM-15+0004LGHI V0200201N011312200019N0112651N1+00701+00001999999ADDGA1021+006009999GF104991999999999999999999MA1102001999999MW1001REMMET046LGHI 030500Z 02022KT 9999 SCT020 07/M00 Q1020;EQDQ01+000000PRSWM2
0140167060999992000010306004+38330+026130FM-15+0004LGHI V0200301N010812200019N0112651N1+00701-00101999999ADDGA1021+006009999GF104991999999999999999999MA1102001999999MW1001REMMET046LGHI 030600Z 03021KT 9999 SCT020 07/M01 Q1020;EQDQ01+000000PRSWM2
0163167060999992000010307004+38330+026130FM-15+0004LGHI V0200201N008712200019N0112651N1+00601-00401999999ADDGA1021+006009999GA2021+007509999GF104991999999999999999999MA1102101999999MW1001REMMET053LGHI 030700Z 02017KT 9999 FEW020 SCT025 06/M04 Q1021;EQDQ01+000000PRSWM2
0166167060999992000010308004+38330+026130FM-15+0004LGHI V0200201N009312200019N0112651N1+00701-00101999999ADDGA1021+006009999GA2021+007509029GF104991999999999999999999MA1102101999999MW1001REMMET056LGHI 030800Z 02018KT 9999 SCT020 SCT025TCU 07/M01 Q1021;EQDQ01+000000PRSWM2
0166167060999992000010310004+38330+026130FM-15+0004LGHI V0203601N007712200019N0090001N1+00601+00001999999ADDGA1021+006009999GA2021+007509029GF104991999999999999999999MA1102101999999MW1001REMMET056LGHI 031000Z 36015KT 9000 SCT020 SCT025TCU 06/M00 Q1021;EQDQ01+000000PRSWM2
0166167060999992000010311004+38330+026130FM-15+0004LGHI V0200101N009812200019N0090001N1+00601-00101999999ADDGA1021+006009999GA2021+007509029GF104991999999999999999999MA1102001999999MW1001REMMET056LGHI 031100Z 01019KT 9000 FEW020 SCT025TCU 06/M01 Q1020;EQDQ01+000000PRSWM2
0166167060999992000010312004+38330+026130FM-15+0004LGHI V0200101N009812200019N0090001N1+00501-00101999999ADDGA1021+006009999GA2021+007509029GF104991999999999999999999MA1102001999999MW1001REMMET056LGHI 031200Z 01019KT 9000 SCT020 SCT025TCU 05/M01 Q1020;EQDQ01+000000PRSWM2
0174167060999992000010313004+38330+026130FM-15+0004LGHI V0203601N009810090019N0112651N1+00501-00101999999ADDGA1021+006009999GA2071+009009999GF107991999999999999999999MA1101901999999MW1001OC101651REMMET056LGHI 031300Z 36019G32KT 9999 SCT020 BKN030 05/M01 Q1019;EQDQ01+000000PRSWM2
0163167060999992000010314004+38330+026130FM-15+0004LGHI V0203601N008210090019N0112651N1+00501-00101999999ADDGA1021+006009999GA2071+009009999GF107991999999999999999999MA1101901999999MW1001REMMET053LGHI 031400Z 36016KT 9999 SCT020 BKN030 05/M01 Q1019;EQDQ01+000000PRSWM2
0163167060999992000010315004+38330+026130FM-15+0004LGHI V0203601N008210090019N0112651N1+00601+00001999999ADDGA1021+006009999GA2071+009009999GF107991999999999999999999MA1101901999999MW1001REMMET053LGHI 031500Z 36016KT 9999 SCT020 BKN030 06/M00 Q1019;EQDQ01+000000PRSWM2
0163167060999992000010316004+38330+026130FM-15+0004LGHI V0200301N012910090019N0112651N1+00601+00001999999ADDGA1021+006009999GA2071+009009999GF107991999999999999999999MA1101901999999MW1001REMMET053LGHI 031600Z 03025KT 9999 SCT020 BKN030 06/M00 Q1019;EQDQ01+000000PRSWM2
0163167060999992000010317004+38330+026130FM-15+0004LGHI V0200101N008710090019N0112651N1+00601+00001999999ADDGA1021+006009999GA2071+009009999GF107991999999999999999999MA1101901999999MW1001REMMET053LGHI 031700Z 01017KT 9999 SCT020 BKN030 06/M00 Q1019;EQDQ01+000000PRSWM2
0162167060999992000010318004+38330+026130FM-15+0004LGHI V0203601N009310090019N0112651N1+00601+00001999999ADDGA1021+006009999GA2071+009009999GF107991999999999999999999MA1101901999999MW1001REMMET052LGHI 031800Z 36018KT 9999 SCT020 BKN030 06/00 Q1019;EQDQ01+000000PRSWM2
0162167060999992000010319004+38330+026130FM-15+0004LGHI V0200201N008210090019N0112651N1+00501+00001999999ADDGA1021+006009999GA2071+009009999GF107991999999999999999999MA1101901999999MW1001REMMET052LGHI 031900Z 02016KT 9999 FEW020 BKN030 05/00 Q1019;EQDQ01+000000PRSWM2
0139167060999992000010320004+38330+026130FM-15+0004LGHI V0200101N008212200019N0112651N1+00501+00001999999ADDGA1021+006009999GF104991999999999999999999MA1101901999999MW1001REMMET045LGHI 032000Z 01016KT 9999 SCT020 05/00 Q1019;EQDQ01+000000PRSWM2
0139167060999992000010321004+38330+026130FM-15+0004LGHI V0200101N008712200019N0112651N1+00501+00201999999ADDGA1021+006009999GF104991999999999999999999MA1101901999999MW1001REMMET045LGHI 032100Z 01017KT 9999 SCT020 05/02 Q1019;EQDQ01+000000PRSWM2
0163167060999992000010403004+38330+026130FM-15+0004LGHI V0203501N006712200019N0112651N1+00401-00201999999ADDGA1021+006009999GA2021+009009999GF104991999999999999999999MA1101801999999MW1001REMMET053LGHI 040300Z 35013KT 9999 SCT020 SCT030 04/M02 Q1018;EQDQ01+000000PRSWM2
0163167060999992000010404004+38330+026130FM-15+0004LGHI V0203601N007212200019N0112651N1+00501-00301999999ADDGA1021+006009999GA2021+009009999GF104991999999999999999999MA1101801999999MW1001REMMET053LGHI 040400Z 36014KT 9999 SCT020 SCT030 05/M03 Q1018;EQDQ01+000000PRSWM2
0163167060999992000010405004+38330+026130FM-15+0004LGHI V0203601N007212200019N0112651N1+00401-00301999999ADDGA1021+006009999GA2021+009009999GF104991999999999999999999MA1101801999999MW1001REMMET053LGHI 040500Z 36014KT 9999 SCT020 SCT030 04/M03 Q1018;EQDQ01+000000PRSWM2
0163167060999992000010406004+38330+026130FM-15+0004LGHI V0203601N007712200019N0112651N1+00401-00201999999ADDGA1021+006009999GA2021+009009999GF104991999999999999999999MA1101801999999MW1001REMMET053LGHI 040600Z 36015KT 9999 SCT020 SCT030 04/M02 Q1018;EQDQ01+000000PRSWM2
0170167060999992000010407004+38330+026130FM-15+0004LGHI V0200101N008212200019N0112651N1+00401-00101999999ADDGA1021+006009999GA2021+009009999GF104991999999999999999999MA1101801999999MW1001REMMET060LGHI 040700Z 01016KT 9999 FEW020 SCT030 04/M01 Q1018 FEW080;EQDQ01+000000PRSWM2
0140167060999992000010408004+38330+026130FM-15+0004LGHI V0203601N008212200019N0112651N1+00501-00301999999ADDGA1021+007509999GF104991999999999999999999MA1101901999999MW1001REMMET046LGHI 040800Z 36016KT 9999 SCT025 05/M03 Q1019;EQDQ01+000000PRSWM2
0140167060999992000010410004+38330+026130FM-15+0004LGHI V0200201N008712200019N0112651N1+00601-00801999999ADDGA1021+007509999GF104991999999999999999999MA1101801999999MW1001REMMET046LGHI 041000Z 02017KT 9999 SCT025 06/M08 Q1018;EQDQ01+000000PRSWM2
0140167060999992000010411004+38330+026130FM-15+0004LGHI V0200101N008712200019N0112651N1+00601-00701999999ADDGA1021+007509999GF104991999999999999999999MA1101801999999MW1001REMMET046LGHI 041100Z 01017KT 9999 SCT025 06/M07 Q1018;EQDQ01+000000PRSWM2
0140167060999992000010412004+38330+026130FM-15+0004LGHI V0200201N009312200019N0112651N1+00701-00301999999ADDGA1021+007509999GF104991999999999999999999MA1101691999999MW1001REMMET046LGHI 041200Z 02018KT 9999 SCT025 07/M03 Q1017;EQDQ01+000000PRSWM2
0151167060999992000010413004+38330+026130FM-15+0004LGHI V0200101N009312200019N0112651N1+00701-00301999999ADDGA1021+007509999GF104991999999999999999999MA1101691999999MW1001OC101541REMMET049LGHI 041300Z 01018G30KT 9999 SCT025 07/M03 Q1017;EQDQ01+000000PRSWM2
0151167060999992000010414004+38330+026130FM-15+0004LGHI V0203601N007712200019N0112651N1+00601-00301999999ADDGA1021+007509999GF104991999999999999999999MA1101691999999MW1001OC101291REMMET049LGHI 041400Z 36015G25KT 9999 SCT025 06/M03 Q1017;EQDQ01+000000PRSWM2
0151167060999992000010415004+38330+026130FM-15+0004LGHI V0200101N008712200019N0112651N1+00601-00601999999ADDGA1021+007509999GF104991999999999999999999MA1101691999999MW1001OC101441REMMET049LGHI 041500Z 01017G28KT 9999 SCT025 06/M06 Q1017;EQDQ01+000000PRSWM2
0140167060999992000010416004+38330+026130FM-15+0004LGHI V0203601N008212200019N0112651N1+00601-00601999999ADDGA1021+007509999GF104991999999999999999999MA1101691999999MW1001REMMET046LGHI 041600Z 36016KT 9999 SCT025 06/M06 Q1017;EQDQ01+000000PRSWM2
0151167060999992000010417004+38330+026130FM-15+0004LGHI V0203601N007712200019N0112651N1+00501-00501999999ADDGA1021+007509999GF104991999999999999999999MA1101801999999MW1001OC101291REMMET049LGHI 041700Z 36015G25KT 9999 SCT025 05/M05 Q1018;EQDQ01+000000PRSWM2
0151167060999992000010418004+38330+026130FM-15+0004LGHI V0203601N007212200019N0112651N1+00501-00401999999ADDGA1021+007509999GF104991999999999999999999MA1101801999999MW1001OC101231REMMET049LGHI 041800Z 36014G24KT 9999 SCT025 05/M04 Q1018;EQDQ01+000000PRSWM2
0151167060999992000010419004+38330+026130FM-15+0004LGHI V0203601N007712200019N0112651N1+00501-00401999999ADDGA1021+007509999GF104991999999999999999999MA1101801999999MW1001OC101291REMMET049LGHI 041900Z 36015G25KT 9999 SCT025 05/M04 Q1018;EQDQ01+000000PRSWM2
0151167060999992000010420004+38330+026130FM-15+0004LGHI V0203601N006712200019N0112651N1+00501-00401999999ADDGA1021+007509999GF104991999999999999999999MA1101801999999MW1001OC101231REMMET049LGHI 042000Z 36013G24KT 9999 SCT025 05/M04 Q1018;EQDQ01+000000PRSWM2
0151167060999992000010421004+38330+026130FM-15+0004LGHI V0203601N007212200019N0112651N1+00501-00401999999ADDGA1021+007509999GF104991999999999999999999MA1101801999999MW1001OC101291REMMET049LGHI 042100Z 36014G25KT 9999 SCT025 05/M04 Q1018;EQDQ01+000000PRSWM2
0151167060999992000010503004+38330+026130FM-15+0004LGHI V0200201N009312200019N0112651N1+00601-00201999999ADDGA1021+007509999GF104991999999999999999999MA1101691999999MW1001OC101441REMMET049LGHI 050300Z 02018G28KT 9999 SCT025 06/M02 Q1017;EQDQ01+000000PRSWM2
0140167060999992000010504004+38330+026130FM-15+0004LGHI V0200201N008212200019N0112651N1+00601-00201999999ADDGA1021+007509999GF104991999999999999999999MA1101691999999MW1001REMMET046LGHI 050400Z 02016KT 9999 SCT025 06/M02 Q1017;EQDQ01+000000PRSWM2
0151167060999992000010505004+38330+026130FM-15+0004LGHI V0200201N007210075019N0112651N1+00701-00101999999ADDGA1071+007509999GF107991999999999999999999MA1101691999999MW1001OC101291REMMET049LGHI 050500Z 02014G25KT 9999 BKN025 07/M01 Q1017;EQDQ01+000000PRSWM2
0140167060999992000010506004+38330+026130FM-15+0004LGHI V0200301N008710075019N0112651N1+00701-00101999999ADDGA1071+007509999GF107991999999999999999999MA1101691999999MW1001REMMET046LGHI 050600Z 03017KT 9999 BKN025 07/M01 Q1017;EQDQ01+000000PRSWM2
0140167060999992000010509004+38330+026130FM-15+0004LGHI V0200301N008712200019N0112651N1+00701-00201999999ADDGA1021+010509999GF104991999999999999999999MA1101801999999MW1001REMMET046LGHI 050900Z 03017KT 9999 SCT035 07/M02 Q1018;EQDQ01+000000PRSWM2
0140167060999992000010510004+38330+026130FM-15+0004LGHI V0200301N008210105019N0112651N1+00801-00201999999ADDGA1071+010509999GF107991999999999999999999MA1101801999999MW1001REMMET046LGHI 051000Z 03016KT 9999 BKN035 08/M02 Q1018;EQDQ01+000000PRSWM2
0140167060999992000010511004+38330+026130FM-15+0004LGHI V0200101N006710105019N0112651N1+00801-00201999999ADDGA1071+010509999GF107991999999999999999999MA1101801999999MW1001REMMET046LGHI 051100Z 01013KT 9999 BKN035 08/M02 Q1018;EQDQ01+000000PRSWM2
0140167060999992000010512004+38330+026130FM-15+0004LGHI V0200201N007210105019N0112651N1+00801-00101999999ADDGA1071+010509999GF107991999999999999999999MA1101691999999MW1001REMMET046LGHI 051200Z 02014KT 9999 BKN035 08/M01 Q1017;EQDQ01+000000PRSWM2
0163167060999992000010513004+38330+026130FM-15+0004LGHI V0200201N006710090019N0112651N1+00801-00301999999ADDGA1021+007509999GA2071+009009999GF107991999999999999999999MA1101691999999MW1001REMMET053LGHI 051300Z 02013KT 9999 FEW025 BKN030 08/M03 Q1017;EQDQ01+000000PRSWM2
0163167060999992000010514004+38330+026130FM-15+0004LGHI V0200101N006210090019N0112651N1+00801-00301999999ADDGA1021+006009999GA2071+009009999GF107991999999999999999999MA1101801999999MW1001REMMET053LGHI 051400Z 01012KT 9999 FEW020 BKN030 08/M03 Q1018;EQDQ01+000000PRSWM2
0163167060999992000010515004+38330+026130FM-15+0004LGHI V0200101N005710075019N0112651N1+00801-00201999999ADDGA1021+006009999GA2071+007509999GF107991999999999999999999MA1101691999999MW1001REMMET053LGHI 051500Z 01011KT 9999 FEW020 BKN025 08/M02 Q1017;EQDQ01+000000PRSWM2
0163167060999992000010516004+38330+026130FM-15+0004LGHI V0200201N006210075019N0112651N1+00801-00301999999ADDGA1021+006009999GA2071+007509999GF107991999999999999999999MA1101801999999MW1001REMMET053LGHI 051600Z 02012KT 9999 FEW020 BKN025 08/M03 Q1018;EQDQ01+000000PRSWM2
0163167060999992000010517004+38330+026130FM-15+0004LGHI V0200101N005710075019N0112651N1+00801-00201999999ADDGA1021+006009999GA2071+007509999GF107991999999999999999999MA1101801999999MW1001REMMET053LGHI 051700Z 01011KT 9999 FEW020 BKN025 08/M02 Q1018;EQDQ01+000000PRSWM2
0140167060999992000010518004+38330+026130FM-15+0004LGHI V0200301N006210075019N0112651N1+00801-00301999999ADDGA1071+007509999GF107991999999999999999999MA1101801999999MW1001REMMET046LGHI 051800Z 03012KT 9999 BKN025 08/M03 Q1018;EQDQ01+000000PRSWM2
0140167060999992000010519004+38330+026130FM-15+0004LGHI V0200201N007210075019N0112651N1+00801-00201999999ADDGA1071+007509999GF107991999999999999999999MA1101801999999MW1001REMMET046LGHI 051900Z 02014KT 9999 BKN025 08/M02 Q1018;EQDQ01+000000PRSWM2
0140167060999992000010521004+38330+026130FM-15+0004LGHI V0200101N006710075019N0112651N1+00801-00201999999ADDGA1071+007509999GF107991999999999999999999MA1101801999999MW1001REMMET046LGHI 052100Z 01013KT 9999 BKN025 08/M02 Q1018;EQDQ01+000000PRSWM2
0140167060999992000010606004+38330+026130FM-15+0004LGHI V0200201N006210090019N0112651N1+00701-00101999999ADDGA1071+009009999GF107991999999999999999999MA1101901999999MW1001REMMET046LGHI 060600Z 02012KT 9999 BKN030 07/M01 Q1019;EQDQ01+000000PRSWM2
0140167060999992000010608004+38330+026130FM-15+0004LGHI V0200201N005712200019N0112651N1+00701-00101999999ADDGA1021+010509999GF104991999999999999999999MA1101901999999MW1001REMMET046LGHI 060800Z 02011KT 9999 SCT035 07/M01 Q1019;EQDQ01+000000PRSWM2
0140167060999992000010609004+38330+026130FM-15+0004LGHI V0200201N005112200019N0112651N1+00801-00101999999ADDGA1021+010509999GF104991999999999999999999MA1102001999999MW1001REMMET046LGHI 060900Z 02010KT 9999 SCT035 08/M01 Q1020;EQDQ01+000000PRSWM2
0140167060999992000010610004+38330+026130FM-15+0004LGHI V0200101N005112200019N0112651N1+00801-00101999999ADDGA1021+009009999GF104991999999999999999999MA1101901999999MW1001REMMET046LGHI 061000Z 01010KT 9999 SCT030 08/M01 Q1019;EQDQ01+000000PRSWM2
0139167060999992000010611004+38330+026130FM-15+0004LGHI V0200101N004610090019N0112651N1+00901+00001999999ADDGA1071+009009999GF107991999999999999999999MA1101801999999MW1001REMMET045LGHI 061100Z 01009KT 9999 BKN030 09/00 Q1018;EQDQ01+000000PRSWM2
0140167060999992000010612004+38330+026130FM-15+0004LGHI V0200101N005110090019N0112651N1+00901-00101999999ADDGA1071+009009999GF107991999999999999999999MA1101901999999MW1001REMMET046LGHI 061200Z 01010KT 9999 BKN030 09/M01 Q1019;EQDQ01+000000PRSWM2
0140167060999992000010613004+38330+026130FM-15+0004LGHI V0200101N005712200019N0112651N1+00901-00201999999ADDGA1021+009009999GF104991999999999999999999MA1101901999999MW1001REMMET046LGHI 061300Z 01011KT 9999 SCT030 09/M02 Q1019;EQDQ01+000000PRSWM2
0140167060999992000010614004+38330+026130FM-15+0004LGHI V0200101N004612200019N0112651N1+00901-00201999999ADDGA1021+007509999GF104991999999999999999999MA1101901999999MW1001REMMET046LGHI 061400Z 01009KT 9999 SCT025 09/M02 Q1019;EQDQ01+000000PRSWM2
0140167060999992000010615004+38330+026130FM-15+0004LGHI V0200101N004610075019N0112651N1+00901-00201999999ADDGA1071+007509999GF107991999999999999999999MA1101901999999MW1001REMMET046LGHI 061500Z 01009KT 9999 BKN025 09/M02 Q1019;EQDQ01+000000PRSWM2
0140167060999992000010616004+38330+026130FM-15+0004LGHI V0200201N004612200019N0112651N1+00801-00101999999ADDGA1021+007509999GF104991999999999999999999MA1101901999999MW1001REMMET046LGHI 061600Z 02009KT 9999 SCT025 08/M01 Q1019;EQDQ01+000000PRSWM2
0139167060999992000010620004+38330+026130FM-15+0004LGHI V0203601N005112200019N0112651N1+00701+00001999999ADDGA1021+007509999GF104991999999999999999999MA1101901999999MW1001REMMET045LGHI 062000Z 36010KT 9999 SCT025 07/00 Q1019;EQDQ01+000000PRSWM2
0140167060999992000010621004+38330+026130FM-15+0004LGHI V0203601N006212200019N0112651N1+00701-00201999999ADDGA1021+007509999GF102991999999999999999999MA1102001999999MW1001REMMET046LGHI 062100Z 36012KT 9999 FEW025 07/M02 Q1020;EQDQ01+000000PRSWM2
0139167060999992000010703004+38330+026130FM-15+0004LGHI V0200101N006212200019N0112651N1+00801+00101999999ADDGA1021+007509999GF104991999999999999999999MA1101901999999MW1001REMMET045LGHI 070300Z 01012KT 9999 SCT025 08/01 Q1019;EQDQ01+000000PRSWM2
0139167060999992000010704004+38330+026130FM-15+0004LGHI V0200401N007210075019N0112651N1+00801+00101999999ADDGA1071+007509999GF107991999999999999999999MA1102001999999MW1001REMMET045LGHI 070400Z 04014KT 9999 BKN025 08/01 Q1020;EQDQ01+000000PRSWM2
0139167060999992000010705004+38330+026130FM-15+0004LGHI V0200501N006710075019N0112651N1+00801+00101999999ADDGA1071+007509999GF107991999999999999999999MA1102101999999MW1001REMMET045LGHI 070500Z 05013KT 9999 BKN025 08/01 Q1021;EQDQ01+000000PRSWM2
0165167060999992000010707004+38330+026130FM-15+0004LGHI V0203601N005112200019N0112651N1+00701+00001999999ADDGA1021+006009999GA2021+007509029GF104991999999999999999999MA1102201999999MW1001REMMET055LGHI 070700Z 36010KT 9999 SCT020 SCT025TCU 07/00 Q1022;EQDQ01+000000PRSWM2
0146167060999992000010708004+38330+026130FM-15+0004LGHI V0203501N004610075019N0112651N1+00701+00101999999ADDGA1071+007509999GF107991999999999999999999MA1102201999999MW1001REMMET052LGHI 070800Z 35009KT 9999 BKN025 07/01 Q1022 FEW080;EQDQ01+000000PRSWM2
0147167060999992000010710004+38330+026130FM-15+0004LGHI V0200101N007210075019N0112651N1+00801-00101999999ADDGA1071+007509999GF107991999999999999999999MA1102201999999MW1001REMMET053LGHI 071000Z 01014KT 9999 BKN025 08/M01 Q1022 FEW080;EQDQ01+000000PRSWM2
0140167060999992000010711004+38330+026130FM-15+0004LGHI V0200101N006210075019N0112651N1+00801-00101999999ADDGA1071+007509999GF107991999999999999999999MA1102201999999MW1001REMMET046LGHI 071100Z 01012KT 9999 BKN025 08/M01 Q1022;EQDQ01+000000PRSWM2
0163167060999992000010712004+38330+026130FM-15+0004LGHI V0200101N007710075019N0112651N1+00701-00101999999ADDGA1021+006009999GA2071+007509999GF107991999999999999999999MA1102101999999MW1001REMMET053LGHI 071200Z 01015KT 9999 FEW020 BKN025 07/M01 Q1021;EQDQ01+000000PRSWM2
0163167060999992000010713004+38330+026130FM-15+0004LGHI V0200101N007210075019N0112651N1+00701-00101999999ADDGA1021+006009999GA2071+007509999GF107991999999999999999999MA1102101999999MW1001REMMET053LGHI 071300Z 01014KT 9999 FEW020 BKN025 07/M01 Q1021;EQDQ01+000000PRSWM2
0163167060999992000010714004+38330+026130FM-15+0004LGHI V0200101N006212200019N0112651N1+00701-00101999999ADDGA1021+006009999GA2021+007509999GF104991999999999999999999MA1102101999999MW1001REMMET053LGHI 071400Z 01012KT 9999 FEW020 SCT025 07/M01 Q1021;EQDQ01+000000PRSWM2
0163167060999992000010715004+38330+026130FM-15+0004LGHI V0203601N005710075019N0112651N1+00701-00101999999ADDGA1021+006009999GA2071+007509999GF107991999999999999999999MA1102101999999MW1001REMMET053LGHI 071500Z 36011KT 9999 FEW020 BKN025 07/M01 Q1021;EQDQ01+000000PRSWM2
0163167060999992000010716004+38330+026130FM-15+0004LGHI V0203601N005710075019N0112651N1+00701-00101999999ADDGA1021+006009999GA2071+007509999GF107991999999999999999999MA1102101999999MW1001REMMET053LGHI 071600Z 36011KT 9999 FEW020 BKN025 07/M01 Q1021;EQDQ01+000000PRSWM2
0163167060999992000010717004+38330+026130FM-15+0004LGHI V0200201N006712200019N0112651N1+00701-00101999999ADDGA1021+006009999GA2021+007509999GF104991999999999999999999MA1102101999999MW1001REMMET053LGHI 071700Z 02013KT 9999 FEW020 SCT025 07/M01 Q1021;EQDQ01+000000PRSWM2
0140167060999992000010718004+38330+026130FM-15+0004LGHI V0200101N006712200019N0112651N1+00701-00101999999ADDGA1021+007509999GF104991999999999999999999MA1102201999999MW1001REMMET046LGHI 071800Z 01013KT 9999 SCT025 07/M01 Q1022;EQDQ01+000000PRSWM2
0140167060999992000010720004+38330+026130FM-15+0004LGHI V0200101N007212200019N0112651N1+00601-00101999999ADDGA1021+007509999GF102991999999999999999999MA1102201999999MW1001REMMET046LGHI 072000Z 01014KT 9999 FEW025 06/M01 Q1022;EQDQ01+000000PRSWM2
0139167060999992000010721004+38330+026130FM-15+0004LGHI V0200101N006712200019N0112651N1+00701+00101999999ADDGA1021+007509999GF102991999999999999999999MA1102201999999MW1001REMMET045LGHI 072100Z 01013KT 9999 FEW025 07/01 Q1022;EQDQ01+000000PRSWM2
0139167060999992000010803004+38330+026130FM-15+0004LGHI V0203601N004612200019N0112651N1+00601+00101999999ADDGA1021+007509999GF102991999999999999999999MA1102201999999MW1001REMMET045LGHI 080300Z 36009KT 9999 FEW025 06/01 Q1022;EQDQ01+000000PRSWM2
0139167060999992000010804004+38330+026130FM-15+0004LGHI V0203501N004112200019N0112651N1+00601+00101999999ADDGA1021+007509999GF102991999999999999999999MA1102201999999MW1001REMMET045LGHI 080400Z 35008KT 9999 FEW025 06/01 Q1022;EQDQ01+000000PRSWM2
0139167060999992000010806004+38330+026130FM-15+0004LGHI V0203401N003612200019N0112651N1+00601+00101999999ADDGA1021+006009999GF104991999999999999999999MA1102201999999MW1001REMMET045LGHI 080600Z 34007KT 9999 SCT020 06/01 Q1022;EQDQ01+000000PRSWM2
0139167060999992000010807004+38330+026130FM-15+0004LGHI V0203601N005112200019N0112651N1+00601+00101999999ADDGA1021+006009999GF104991999999999999999999MA1102301999999MW1001REMMET045LGHI 080700Z 36010KT 9999 SCT020 06/01 Q1023;EQDQ01+000000PRSWM2
0139167060999992000010808004+38330+026130FM-15+0004LGHI V0203601N004112200019N0112651N1+00601+00101999999ADDGA1021+006009999GF104991999999999999999999MA1102301999999MW1001REMMET045LGHI 080800Z 36008KT 9999 SCT020 06/01 Q1023;EQDQ01+000000PRSWM2
0140167060999992000010809004+38330+026130FM-15+0004LGHI V0203601N005112200019N0112651N1+00901+00001999999ADDGA1021+007509999GF104991999999999999999999MA1102301999999MW1001REMMET046LGHI 080900Z 36010KT 9999 SCT025 09/M00 Q1023;EQDQ01+000000PRSWM2
0140167060999992000010810004+38330+026130FM-15+0004LGHI V0200101N005112200019N0112651N1+01001-00201999999ADDGA1021+007509999GF104991999999999999999999MA1102301999999MW1001REMMET046LGHI 081000Z 01010KT 9999 SCT025 10/M02 Q1023;EQDQ01+000000PRSWM2
0140167060999992000010811004+38330+026130FM-15+0004LGHI V0200201N007712200019N0112651N1+00901-00201999999ADDGA1021+007509999GF104991999999999999999999MA1102301999999MW1001REMMET046LGHI 081100Z 02015KT 9999 SCT025 09/M02 Q1023;EQDQ01+000000PRSWM2
0140167060999992000010812004+38330+026130FM-15+0004LGHI V0200101N006712200019N0112651N1+01001+00001999999ADDGA1021+007509999GF104991999999999999999999MA1102201999999MW1001REMMET046LGHI 081200Z 01013KT 9999 SCT025 10/M00 Q1022;EQDQ01+000000PRSWM2
0140167060999992000010813004+38330+026130FM-15+0004LGHI V0203601N005712200019N0112651N1+01001+00001999999ADDGA1021+007509999GF104991999999999999999999MA1102201999999MW1001REMMET046LGHI 081300Z 36011KT 9999 SCT025 10/M00 Q1022;EQDQ01+000000PRSWM2
0139167060999992000010814004+38330+026130FM-15+0004LGHI V0203601N005112200019N0112651N1+00901+00001999999ADDGA1021+007509999GF104991999999999999999999MA1102201999999MW1001REMMET045LGHI 081400Z 36010KT 9999 SCT025 09/00 Q1022;EQDQ01+000000PRSWM2
0165167060999992000010815004+38330+026130FM-15+0004LGHI V0203601N004110075019N0112651N1+00801+00001999999ADDGA1021+006009029GA2071+007509999GF107991999999999999999999MA1102301999999MW1001REMMET055LGHI 081500Z 36008KT 9999 FEW020TCU BKN025 08/00 Q1023;EQDQ01+000000PRSWM2
0165167060999992000010816004+38330+026130FM-15+0004LGHI V0203601N004610075019N0112651N1+00801+00001999999ADDGA1021+006009029GA2071+007509999GF107991999999999999999999MA1102301999999MW1001REMMET055LGHI 081600Z 36009KT 9999 FEW020TCU BKN025 08/00 Q1023;EQDQ01+000000PRSWM2
0165167060999992000010817004+38330+026130FM-15+0004LGHI V0203601N004110075019N0112651N1+00801+00001999999ADDGA1021+006009029GA2071+007509999GF107991999999999999999999MA1102301999999MW1001REMMET055LGHI 081700Z 36008KT 9999 FEW020TCU BKN025 08/00 Q1023;EQDQ01+000000PRSWM2
0139167060999992000010819004+38330+026130FM-15+0004LGHI V0200301N006210075019N0112651N1+00701+00101999999ADDGA1071+007509999GF107991999999999999999999MA1102301999999MW1001REMMET045LGHI 081900Z 03012KT 9999 BKN025 07/01 Q1023;EQDQ01+000000PRSWM2
0139167060999992000010820004+38330+026130FM-15+0004LGHI V0200301N005110075019N0112651N1+00701+00101999999ADDGA1071+007509999GF107991999999999999999999MA1102301999999MW1001REMMET045LGHI 082000Z 03010KT 9999 BKN025 07/01 Q1023;EQDQ01+000000PRSWM2
0139167060999992000010821004+38330+026130FM-15+0004LGHI V0200301N005110075019N0112651N1+00901+00201999999ADDGA1071+007509999GF107991999999999999999999MA1102301999999MW1001REMMET045LGHI 082100Z 03010KT 9999 BKN025 09/02 Q1023;EQDQ01+000000PRSWM2
0185167060999992000010903004+38330+026130FM-15+0004LGHI V0200501N004610240019N0112651N1+00801+00301999999ADDGA1021+004509999GA2021+007509999GA3071+024009999GF107991999999999999999999MA1102301999999MW1001REMMET059LGHI 090300Z 05009KT 9999 FEW015 SCT025 BKN080 08/03 Q1023;EQDQ01+000000PRSWM2
0185167060999992000010904004+38330+026130FM-15+0004LGHI V0200601N004610075019N0112651N1+00801+00301999999ADDGA1021+004509999GA2071+007509999GA3071+024009999GF107991999999999999999999MA1102301999999MW1001REMMET059LGHI 090400Z 06009KT 9999 FEW015 BKN025 BKN080 08/03 Q1023;EQDQ01+000000PRSWM2
0162167060999992000010907004+38330+026130FM-15+0004LGHI V0200101N003610090019N0112651N1+00801+00101999999ADDGA1021+006009999GA2071+009009999GF107991999999999999999999MA1102401999999MW1001REMMET052LGHI 090700Z 01007KT 9999 SCT020 BKN030 08/01 Q1024;EQDQ01+000000PRSWM2
0162167060999992000010908004+38330+026130FM-15+0004LGHI V0203601N003610090019N0112651N1+00801+00101999999ADDGA1021+006009999GA2071+009009999GF107991999999999999999999MA1102401999999MW1001REMMET052LGHI 090800Z 36007KT 9999 SCT020 BKN030 08/01 Q1024;EQDQ01+000000PRSWM2
0162167060999992000010909004+38330+026130FM-15+0004LGHI V0203601N003110105019N0112651N1+00901+00001999999ADDGA1021+006009999GA2071+010509999GF107991999999999999999999MA1102401999999MW1001REMMET052LGHI 090900Z 36006KT 9999 SCT020 BKN035 09/00 Q1024;EQDQ01+000000PRSWM2
0162167060999992000010910004+38330+026130FM-15+0004LGHI V0200301N005110090019N0112651N1+00901+00001999999ADDGA1021+006009999GA2071+009009999GF107991999999999999999999MA1102401999999MW1001REMMET052LGHI 091000Z 03010KT 9999 SCT020 BKN030 09/00 Q1024;EQDQ01+000000PRSWM2
0185167060999992000010911004+38330+026130FM-15+0004LGHI V0200501N003610090019N0112651N1+00901+00401999999ADDGA1021+006009999GA2071+009009999GA3071+024009999GF107991999999999999999999MA1102301999999MW1001REMMET059LGHI 091100Z 05007KT 9999 FEW020 BKN030 BKN080 09/04 Q1023;EQDQ01+000000PRSWM2
0205167060999992000010912004+38330+026130FM-15+0004LGHI V0200501N003610090019N0080001N1+00801+00401999999ADDGA1021+006009999GA2071+009009999GA3081+024009999GF108991999999999999999999MA1102301999999MW1611REMMET063LGHI 091200Z 05007KT 8000 -RA FEW020 BKN030 OVC080 08/04 Q1023;EQDQ01+000003PRSWM1Q02    003PRSWM1
0185167060999992000010913004+38330+026130FM-15+0004LGHI V0200401N003610090019N0080001N1+00801+00401999999ADDGA1021+006009999GA2071+009009999GA3071+024009999GF107991999999999999999999MA1102301999999MW1001REMMET059LGHI 091300Z 04007KT 8000 FEW020 BKN030 BKN080 08/04 Q1023;EQDQ01+000000PRSWM2
0185167060999992000010914004+38330+026130FM-15+0004LGHI V0200701N004610075019N0080001N1+00801+00401999999ADDGA1021+004509999GA2071+007509999GA3071+024009999GF107991999999999999999999MA1102301999999MW1001REMMET059LGHI 091400Z 07009KT 8000 FEW015 BKN025 BKN080 08/04 Q1023;EQDQ01+000000PRSWM2
0185167060999992000010915004+38330+026130FM-15+0004LGHI V0200601N004610075019N0080001N1+00901+00301999999ADDGA1021+004509999GA2071+007509999GA3081+021009999GF108991999999999999999999MA1102401999999MW1001REMMET059LGHI 091500Z 06009KT 8000 FEW015 BKN025 OVC070 09/03 Q1024;EQDQ01+000000PRSWM2
0185167060999992000010916004+38330+026130FM-15+0004LGHI V0200601N004110075019N0080001N1+00901+00301999999ADDGA1021+004509999GA2071+007509999GA3071+021009999GF107991999999999999999999MA1102301999999MW1001REMMET059LGHI 091600Z 06008KT 8000 FEW015 BKN025 BKN070 09/03 Q1023;EQDQ01+000000PRSWM2
0185167060999992000010917004+38330+026130FM-15+0004LGHI V0200501N004610075019N0080001N1+00801+00401999999ADDGA1021+004509999GA2071+007509999GA3071+021009999GF107991999999999999999999MA1102401999999MW1001REMMET059LGHI 091700Z 05009KT 8000 FEW015 BKN025 BKN070 08/04 Q1024;EQDQ01+000000PRSWM2
0185167060999992000010918004+38330+026130FM-15+0004LGHI V0200601N004110075019N0080001N1+00801+00301999999ADDGA1021+004509999GA2071+007509999GA3081+021009999GF108991999999999999999999MA1102401999999MW1001REMMET059LGHI 091800Z 06008KT 8000 FEW015 BKN025 OVC070 08/03 Q1024;EQDQ01+000000PRSWM2
0185167060999992000010919004+38330+026130FM-15+0004LGHI V0200701N003110075019N0080001N1+00801+00301999999ADDGA1021+004509999GA2071+007509999GA3071+021009999GF107991999999999999999999MA1102401999999MW1001REMMET059LGHI 091900Z 07006KT 8000 FEW015 BKN025 BKN070 08/03 Q1024;EQDQ01+000000PRSWM2
0185167060999992000010920004+38330+026130FM-15+0004LGHI V0200601N004110075019N0080001N1+00801+00301999999ADDGA1021+004509999GA2071+007509999GA3071+021009999GF107991999999999999999999MA1102401999999MW1001REMMET059LGHI 092000Z 06008KT 8000 FEW015 BKN025 BKN070 08/03 Q1024;EQDQ01+000000PRSWM2
0185167060999992000010921004+38330+026130FM-15+0004LGHI V0200601N004610075019N0080001N1+00901+00301999999ADDGA1021+004509999GA2071+007509999GA3081+021009999GF108991999999999999999999MA1102511999999MW1001REMMET059LGHI 092100Z 06009KT 8000 FEW015 BKN025 OVC070 09/03 Q1025;EQDQ01+000000PRSWM2
0185167060999992000011003004+38330+026130FM-15+0004LGHI V0200501N005110075019N0080001N1+00801+00201999999ADDGA1021+004509999GA2071+007509999GA3071+018009999GF107991999999999999999999MA1102511999999MW1001REMMET059LGHI 100300Z 05010KT 8000 FEW015 BKN025 BKN060 08/02 Q1025;EQDQ01+000000PRSWM2
0185167060999992000011004004+38330+026130FM-15+0004LGHI V0200601N006210075019N0080001N1+00801+00301999999ADDGA1021+004509999GA2071+007509999GA3071+018009999GF107991999999999999999999MA1102611999999MW1001REMMET059LGHI 100400Z 06012KT 8000 FEW015 BKN025 BKN060 08/03 Q1026;EQDQ01+000000PRSWM2
0185167060999992000011005004+38330+026130FM-15+0004LGHI V0200501N004110075019N0080001N1+00801+00301999999ADDGA1021+004509999GA2071+007509999GA3071+018009999GF107991999999999999999999MA1102611999999MW1001REMMET059LGHI 100500Z 05008KT 8000 FEW015 BKN025 BKN060 08/03 Q1026;EQDQ01+000000PRSWM2
0162167060999992000011006004+38330+026130FM-15+0004LGHI V0200401N004612200019N0090001N1+00801+00301999999ADDGA1021+003009999GA2021+006009999GF104991999999999999999999MA1102611999999MW1001REMMET052LGHI 100600Z 04009KT 9000 FEW010 SCT020 08/03 Q1026;EQDQ01+000000PRSWM2
0162167060999992000011007004+38330+026130FM-15+0004LGHI V0200501N004112200019N0112651N1+00801+00301999999ADDGA1021+003009999GA2021+006009999GF104991999999999999999999MA1102711999999MW1001REMMET052LGHI 100700Z 05008KT 9999 FEW010 SCT020 08/03 Q1027;EQDQ01+000000PRSWM2
0139167060999992000011008004+38330+026130FM-15+0004LGHI V0200601N005112200019N0112651N1+00901+00301999999ADDGA1021+004509999GF104991999999999999999999MA1102711999999MW1001REMMET045LGHI 100800Z 06010KT 9999 SCT015 09/03 Q1027;EQDQ01+000000PRSWM2
0139167060999992000011009004+38330+026130FM-15+0004LGHI V0200401N004612200019N0112651N1+00901+00201999999ADDGA1021+004509999GF104991999999999999999999MA1102711999999MW1001REMMET045LGHI 100900Z 04009KT 9999 SCT015 09/02 Q1027;EQDQ01+000000PRSWM2
0139167060999992000011010004+38330+026130FM-15+0004LGHI V0200401N004612200019N0112651N1+00901+00201999999ADDGA1021+004509999GF104991999999999999999999MA1102611999999MW1001REMMET045LGHI 101000Z 04009KT 9999 SCT015 09/02 Q1026;EQDQ01+000000PRSWM2
0139167060999992000011011004+38330+026130FM-15+0004LGHI V0200301N005112200019N0112651N1+01001+00201999999ADDGA1021+004509999GF104991999999999999999999MA1102611999999MW1001REMMET045LGHI 101100Z 03010KT 9999 SCT015 10/02 Q1026;EQDQ01+000000PRSWM2
0139167060999992000011012004+38330+026130FM-15+0004LGHI V0200301N005712200019N0112651N1+01001+00301999999ADDGA1021+006009999GF104991999999999999999999MA1102611999999MW1001REMMET045LGHI 101200Z 03011KT 9999 SCT020 10/03 Q1026;EQDQ01+000000PRSWM2
0139167060999992000011013004+38330+026130FM-15+0004LGHI V0200301N005112200019N0112651N1+01001+00301999999ADDGA1021+006009999GF104991999999999999999999MA1102511999999MW1001REMMET045LGHI 101300Z 03010KT 9999 SCT020 10/03 Q1025;EQDQ01+000000PRSWM2
0139167060999992000011014004+38330+026130FM-15+0004LGHI V0200201N005112200019N0112651N1+01001+00301999999ADDGA1021+006009999GF102991999999999999999999MA1102611999999MW1001REMMET045LGHI 101400Z 02010KT 9999 FEW020 10/03 Q1026;EQDQ01+000000PRSWM2
0140167060999992000011015004+38330+026130FM-15+0004LGHI V0200201N004612200019N0112651N1+01001+00001999999ADDGA1021+006009999GF102991999999999999999999MA1102611999999MW1001REMMET046LGHI 101500Z 02009KT 9999 FEW020 10/M00 Q1026;EQDQ01+000000PRSWM2
0140167060999992000011016004+38330+026130FM-15+0004LGHI V0203501N002112200019N0112651N1+00801+00001999999ADDGA1021+006009999GF102991999999999999999999MA1102611999999MW1001REMMET046LGHI 101600Z 35004KT 9999 FEW020 08/M00 Q1026;EQDQ01+000000PRSWM2
0140167060999992000011017004+38330+026130FM-15+0004LGHI V0203501N002112200019N0112651N1+00801+00001999999ADDGA1021+006009999GF102991999999999999999999MA1102611999999MW1001REMMET046LGHI 101700Z 35004KT 9999 FEW020 08/M00 Q1026;EQDQ01+000000PRSWM2
0139167060999992000011018004+38330+026130FM-15+0004LGHI V0203401N002112200019N0112651N1+00801+00101999999ADDGA1021+006009999GF102991999999999999999999MA1102611999999MW1001REMMET045LGHI 101800Z 34004KT 9999 FEW020 08/01 Q1026;EQDQ01+000000PRSWM2
0139167060999992000011019004+38330+026130FM-15+0004LGHI V0203601N002612200019N0112651N1+00801+00101999999ADDGA1021+006009999GF102991999999999999999999MA1102611999999MW1001REMMET045LGHI 101900Z 36005KT 9999 FEW020 08/01 Q1026;EQDQ01+000000PRSWM2
0139167060999992000011020004+38330+026130FM-15+0004LGHI V0200601N004112200019N0112651N1+00701+00001999999ADDGA1021+006009999GF102991999999999999999999MA1102611999999MW1001REMMET045LGHI 102000Z 06008KT 9999 FEW020 07/00 Q1026;EQDQ01+000000PRSWM2
0139167060999992000011021004+38330+026130FM-15+0004LGHI V0200501N004112200019N0112651N1+00901+00501999999ADDGA1021+006009999GF102991999999999999999999MA1102611999999MW1001REMMET045LGHI 102100Z 05008KT 9999 FEW020 09/05 Q1026;EQDQ01+000000PRSWM2
0139167060999992000011105004+38330+026130FM-15+0004LGHI V0200501N006210090019N0112651N1+00901+00301999999ADDGA1071+009009999GF107991999999999999999999MA1102711999999MW1001REMMET045LGHI 110500Z 05012KT 9999 BKN030 09/03 Q1027;EQDQ01+000000PRSWM2
0139167060999992000011106004+38330+026130FM-15+0004LGHI V0200401N006710090019N0112651N1+00901+00101999999ADDGA1071+009009999GF107991999999999999999999MA1102711999999MW1001REMMET045LGHI 110600Z 04013KT 9999 BKN030 09/01 Q1027;EQDQ01+000000PRSWM2
0139167060999992000011107004+38330+026130FM-15+0004LGHI V0200401N008210090019N0112651N1+00901+00101999999ADDGA1071+009009999GF107991999999999999999999MA1102711999999MW1001REMMET045LGHI 110700Z 04016KT 9999 BKN030 09/01 Q1027;EQDQ01+000000PRSWM2
0139167060999992000011108004+38330+026130FM-15+0004LGHI V0200501N009312200019N0112651N1+00901+00101999999ADDGA1021+009009999GF104991999999999999999999MA1102711999999MW1001REMMET045LGHI 110800Z 05018KT 9999 SCT030 09/01 Q1027;EQDQ01+000000PRSWM2
0139167060999992000011109004+38330+026130FM-15+0004LGHI V0200401N009312200019N0112651N1+00901+00201999999ADDGA1021+009009999GF104991999999999999999999MA1102711999999MW1001REMMET045LGHI 110900Z 04018KT 9999 SCT030 09/02 Q1027;EQDQ01+000000PRSWM2
0139167060999992000011110004+38330+026130FM-15+0004LGHI V0200501N008712200019N0112651N1+01001+00201999999ADDGA1021+009009999GF104991999999999999999999MA1102711999999MW1001REMMET045LGHI 111000Z 05017KT 9999 SCT030 10/02 Q1027;EQDQ01+000000PRSWM2
0146167060999992000011111004+38330+026130FM-15+0004LGHI V0200401N008712200019N0112651N1+01001+00101999999ADDGA1021+009009999GF104991999999999999999999MA1102711999999MW1001REMMET052LGHI 111100Z 04017KT 9999 SCT030 10/01 Q1027 FEW140;EQDQ01+000000PRSWM2
0139167060999992000011112004+38330+026130FM-15+0004LGHI V0200401N008710090019N0112651N1+01001+00001999999ADDGA1071+009009999GF107991999999999999999999MA1102711999999MW1001REMMET045LGHI 111200Z 04017KT 9999 BKN030 10/00 Q1027;EQDQ01+000000PRSWM2
0139167060999992000011113004+38330+026130FM-15+0004LGHI V0200301N007710090019N0112651N1+01001+00101999999ADDGA1071+009009999GF107991999999999999999999MA1102611999999MW1001REMMET045LGHI 111300Z 03015KT 9999 BKN030 10/01 Q1026;EQDQ01+000000PRSWM2
0147167060999992000011114004+38330+026130FM-15+0004LGHI V0200201N007710075019N0112651N1+01001+00001999999ADDGA1071+007509999GF107991999999999999999999MA1102611999999MW1001REMMET053LGHI 111400Z 02015KT 9999 BKN025 10/M00 Q1026 FEW180;EQDQ01+000000PRSWM2
0146167060999992000011115004+38330+026130FM-15+0004LGHI V0200301N007210075019N0112651N1+01001+00201999999ADDGA1071+007509999GF107991999999999999999999MA1102611999999MW1001REMMET052LGHI 111500Z 03014KT 9999 BKN025 10/02 Q1026 FEW180;EQDQ01+000000PRSWM2
0139167060999992000011116004+38330+026130FM-15+0004LGHI V0200301N007710075019N0112651N1+00901+00101999999ADDGA1071+007509999GF107991999999999999999999MA1102711999999MW1001REMMET045LGHI 111600Z 03015KT 9999 BKN025 09/01 Q1027;EQDQ01+000000PRSWM2
0139167060999992000011117004+38330+026130FM-15+0004LGHI V0200201N007710075019N0112651N1+00901+00201999999ADDGA1071+007509999GF107991999999999999999999MA1102711999999MW1001REMMET045LGHI 111700Z 02015KT 9999 BKN025 09/02 Q1027;EQDQ01+000000PRSWM2
0139167060999992000011118004+38330+026130FM-15+0004LGHI V0200401N008710075019N0112651N1+00901+00401999999ADDGA1071+007509999GF107991999999999999999999MA1102811999999MW1001REMMET045LGHI 111800Z 04017KT 9999 BKN025 09/04 Q1028;EQDQ01+000000PRSWM2
0139167060999992000011119004+38330+026130FM-15+0004LGHI V0200301N009310075019N0112651N1+00901+00201999999ADDGA1071+007509999GF107991999999999999999999MA1102811999999MW1001REMMET045LGHI 111900Z 03018KT 9999 BKN025 09/02 Q1028;EQDQ01+000000PRSWM2
0139167060999992000011120004+38330+026130FM-15+0004LGHI V0200301N010810075019N0112651N1+00901+00201999999ADDGA1071+007509999GF107991999999999999999999MA1102811999999MW1001REMMET045LGHI 112000Z 03021KT 9999 BKN025 09/02 Q1028;EQDQ01+000000PRSWM2
0139167060999992000011121004+38330+026130FM-15+0004LGHI V0200301N010310075019N0112651N1+00801+00301999999ADDGA1071+007509999GF107991999999999999999999MA1102811999999MW1001REMMET045LGHI 112100Z 03020KT 9999 BKN025 08/03 Q1028;EQDQ01+000000PRSWM2
0139167060999992000011203004+38330+026130FM-15+0004LGHI V0200401N010310075019N0112651N1+00801+00401999999ADDGA1071+007509999GF107991999999999999999999MA1102911999999MW1001REMMET045LGHI 120300Z 04020KT 9999 BKN025 08/04 Q1029;EQDQ01+000000PRSWM2
0139167060999992000011204004+38330+026130FM-15+0004LGHI V0200401N010810075019N0090001N1+00801+00501999999ADDGA1071+007509999GF107991999999999999999999MA1102811999999MW1001REMMET045LGHI 120400Z 04021KT 9000 BKN025 08/05 Q1028;EQDQ01+000000PRSWM2
0139167060999992000011205004+38330+026130FM-15+0004LGHI V0200301N011810075019N0090001N1+00801+00501999999ADDGA1071+007509999GF107991999999999999999999MA1102811999999MW1001REMMET045LGHI 120500Z 03023KT 9000 BKN025 08/05 Q1028;EQDQ01+000000PRSWM2
0139167060999992000011206004+38330+026130FM-15+0004LGHI V0200401N010810075019N0090001N1+00801+00301999999ADDGA1071+007509999GF107991999999999999999999MA1102811999999MW1001REMMET045LGHI 120600Z 04021KT 9000 BKN025 08/03 Q1028;EQDQ01+000000PRSWM2
0139167060999992000011207004+38330+026130FM-15+0004LGHI V0200401N009310075019N0090001N1+00801+00301999999ADDGA1071+007509999GF107991999999999999999999MA1102911999999MW1001REMMET045LGHI 120700Z 04018KT 9000 BKN025 08/03 Q1029;EQDQ01+000000PRSWM2
0139167060999992000011208004+38330+026130FM-15+0004LGHI V0200201N010810045019N0090001N1+00801+00501999999ADDGA1071+004509999GF107991999999999999999999MA1102911999999MW1001REMMET045LGHI 120800Z 02021KT 9000 BKN015 08/05 Q1029;EQDQ01+000000PRSWM2
0139167060999992000011209004+38330+026130FM-15+0004LGHI V0200401N009812200019N0090001N1+00801+00201999999ADDGA1021+006009999GF104991999999999999999999MA1102911999999MW1001REMMET045LGHI 120900Z 04019KT 9000 SCT020 08/02 Q1029;EQDQ01+000000PRSWM2
0139167060999992000011210004+38330+026130FM-15+0004LGHI V0200401N009310060019N0112651N1+00801+00201999999ADDGA1071+006009999GF107991999999999999999999MA1102911999999MW1001REMMET045LGHI 121000Z 04018KT 9999 BKN020 08/02 Q1029;EQDQ01+000000PRSWM2
0139167060999992000011211004+38330+026130FM-15+0004LGHI V0200401N008712200019N0112651N1+00801+00201999999ADDGA1021+006009999GF104991999999999999999999MA1102811999999MW1001REMMET045LGHI 121100Z 04017KT 9999 SCT020 08/02 Q1028;EQDQ01+000000PRSWM2
0139167060999992000011213004+38330+026130FM-15+0004LGHI V0200301N009310075019N0112651N1+00901+00101999999ADDGA1071+007509999GF107991999999999999999999MA1102811999999MW1001REMMET045LGHI 121300Z 03018KT 9999 BKN025 09/01 Q1028;EQDQ01+000000PRSWM2
0140167060999992000011214004+38330+026130FM-15+0004LGHI V0200301N009310075019N0112651N1+00901-00101999999ADDGA1071+007509999GF107991999999999999999999MA1102811999999MW1001REMMET046LGHI 121400Z 03018KT 9999 BKN025 09/M01 Q1028;EQDQ01+000000PRSWM2
0163167060999992000011215004+38330+026130FM-15+0004LGHI V0200201N009310075019N0112651N1+00901-00101999999ADDGA1021+006009999GA2071+007509999GF107991999999999999999999MA1102811999999MW1001REMMET053LGHI 121500Z 02018KT 9999 FEW020 BKN025 09/M01 Q1028;EQDQ01+000000PRSWM2
0162167060999992000011216004+38330+026130FM-15+0004LGHI V0200201N008710075019N0112651N1+00901+00201999999ADDGA1021+006009999GA2071+007509999GF107991999999999999999999MA1102911999999MW1001REMMET052LGHI 121600Z 02017KT 9999 FEW020 BKN025 09/02 Q1029;EQDQ01+000000PRSWM2
0162167060999992000011217004+38330+026130FM-15+0004LGHI V0200301N010310075019N0112651N1+00901+00201999999ADDGA1021+006009999GA2071+007509999GF107991999999999999999999MA1102911999999MW1001REMMET052LGHI 121700Z 03020KT 9999 FEW020 BKN025 09/02 Q1029;EQDQ01+000000PRSWM2
0139167060999992000011218004+38330+026130FM-15+0004LGHI V0200301N010810075019N0112651N1+00901+00101999999ADDGA1071+007509999GF107991999999999999999999MA1102911999999MW1001REMMET045LGHI 121800Z 03021KT 9999 BKN025 09/01 Q1029;EQDQ01+000000PRSWM2
0139167060999992000011219004+38330+026130FM-15+0004LGHI V0200401N009312200019N0112651N1+00801+00101999999ADDGA1021+007509999GF104991999999999999999999MA1102911999999MW1001REMMET045LGHI 121900Z 04018KT 9999 SCT025 08/01 Q1029;EQDQ01+000000PRSWM2
0162167060999992000011220004+38330+026130FM-15+0004LGHI V0200301N009812200019N0112651N1+00801+00101999999ADDGA1021+006009999GA2021+007509999GF104991999999999999999999MA1102911999999MW1001REMMET052LGHI 122000Z 03019KT 9999 FEW020 SCT025 08/01 Q1029;EQDQ01+000000PRSWM2
0162167060999992000011221004+38330+026130FM-15+0004LGHI V0200401N008712200019N0112651N1+00801+00201999999ADDGA1021+006009999GA2021+007509999GF104991999999999999999999MA1102911999999MW1001REMMET052LGHI 122100Z 04017KT 9999 FEW020 SCT025 08/02 Q1029;EQDQ01+000000PRSWM2
0139167060999992000011303004+38330+026130FM-15+0004LGHI V0200301N008212200019N0112651N1+00701+00201999999ADDGA1021+006009999GF102991999999999999999999MA1102811999999MW1001REMMET045LGHI 130300Z 03016KT 9999 FEW020 07/02 Q1028;EQDQ01+000000PRSWM2
0139167060999992000011304004+38330+026130FM-15+0004LGHI V0200401N008712200019N0112651N1+00701+00201999999ADDGA1021+006009999GF102991999999999999999999MA1102811999999MW1001REMMET045LGHI 130400Z 04017KT 9999 FEW020 07/02 Q1028;EQDQ01+000000PRSWM2
0139167060999992000011305004+38330+026130FM-15+0004LGHI V0200301N008712200019N0112651N1+00701+00201999999ADDGA1021+006009999GF102991999999999999999999MA1102811999999MW1001REMMET045LGHI 130500Z 03017KT 9999 FEW020 07/02 Q1028;EQDQ01+000000PRSWM2
0139167060999992000011306004+38330+026130FM-15+0004LGHI V0200401N009312200019N0112651N1+00701+00301999999ADDGA1021+006009999GF104991999999999999999999MA1102811999999MW1001REMMET045LGHI 130600Z 04018KT 9999 SCT020 07/03 Q1028;EQDQ01+000000PRSWM2
0139167060999992000011307004+38330+026130FM-15+0004LGHI V0200301N009312200019N0112651N1+00701+00301999999ADDGA1021+007509999GF104991999999999999999999MA1102911999999MW1001REMMET045LGHI 130700Z 03018KT 9999 SCT025 07/03 Q1029;EQDQ01+000000PRSWM2
0139167060999992000011308004+38330+026130FM-15+0004LGHI V0200301N008212200019N0112651N1+00801+00101999999ADDGA1021+007509999GF104991999999999999999999MA1102911999999MW1001REMMET045LGHI 130800Z 03016KT 9999 SCT025 08/01 Q1029;EQDQ01+000000PRSWM2
0139167060999992000011309004+38330+026130FM-15+0004LGHI V0200301N007712200019N0112651N1+00801+00101999999ADDGA1021+007509999GF104991999999999999999999MA1102811999999MW1001REMMET045LGHI 130900Z 03015KT 9999 SCT025 08/01 Q1028;EQDQ01+000000PRSWM2
0139167060999992000011310004+38330+026130FM-15+0004LGHI V0200301N007712200019N0112651N1+00901+00001999999ADDGA1021+007509999GF104991999999999999999999MA1102811999999MW1001REMMET045LGHI 131000Z 03015KT 9999 SCT025 09/00 Q1028;EQDQ01+000000PRSWM2
0139167060999992000011311004+38330+026130FM-15+0004LGHI V0200201N007712200019N0112651N1+00901+00001999999ADDGA1021+007509999GF104991999999999999999999MA1102711999999MW1001REMMET045LGHI 131100Z 02015KT 9999 SCT025 09/00 Q1027;EQDQ01+000000PRSWM2
0140167060999992000011312004+38330+026130FM-15+0004LGHI V0200301N008212200019N0112651N1+01001+00001999999ADDGA1021+007509999GF102991999999999999999999MA1102611999999MW1001REMMET046LGHI 131200Z 03016KT 9999 FEW025 10/M00 Q1026;EQDQ01+000000PRSWM2
0140167060999992000011313004+38330+026130FM-15+0004LGHI V0200401N007212200019N0112651N1+01001+00001999999ADDGA1021+007509999GF102991999999999999999999MA1102611999999MW1001REMMET046LGHI 131300Z 04014KT 9999 FEW025 10/M00 Q1026;EQDQ01+000000PRSWM2
0140167060999992000011314004+38330+026130FM-15+0004LGHI V0200401N006712200019N0112651N1+01001-00101999999ADDGA1021+007509999GF102991999999999999999999MA1102611999999MW1001REMMET046LGHI 131400Z 04013KT 9999 FEW025 10/M01 Q1026;EQDQ01+000000PRSWM2
0140167060999992000011315004+38330+026130FM-15+0004LGHI V0200301N006712200019N0112651N1+01001-00201999999ADDGA1021+007509999GF102991999999999999999999MA1102611999999MW1001REMMET046LGHI 131500Z 03013KT 9999 FEW025 10/M02 Q1026;EQDQ01+000000PRSWM2
0140167060999992000011316004+38330+026130FM-15+0004LGHI V0200401N006712200019N0112651N1+01001-00101999999ADDGA1021+007509999GF102991999999999999999999MA1102611999999MW1001REMMET046LGHI 131600Z 04013KT 9999 FEW025 10/M01 Q1026;EQDQ01+000000PRSWM2
0139167060999992000011317004+38330+026130FM-15+0004LGHI V0200501N007212200019N0112651N1+00901+00001999999ADDGA1021+007509999GF102991999999999999999999MA1102611999999MW1001REMMET045LGHI 131700Z 05014KT 9999 FEW025 09/00 Q1026;EQDQ01+000000PRSWM2
0139167060999992000011318004+38330+026130FM-15+0004LGHI V0200501N006212200019N0112651N1+00901+00101999999ADDGA1021+007509999GF104991999999999999999999MA1102611999999MW1001REMMET045LGHI 131800Z 05012KT 9999 SCT025 09/01 Q1026;EQDQ01+000000PRSWM2
0139167060999992000011319004+38330+026130FM-15+0004LGHI V0200401N007212200019N0112651N1+00901+00101999999ADDGA1021+007509999GF104991999999999999999999MA1102611999999MW1001REMMET045LGHI 131900Z 04014KT 9999 SCT025 09/01 Q1026;EQDQ01+000000PRSWM2
0139167060999992000011320004+38330+026130FM-15+0004LGHI V0200301N007212200019N0112651N1+00901+00101999999ADDGA1021+007509999GF104991999999999999999999MA1102611999999MW1001REMMET045LGHI 132000Z 03014KT 9999 SCT025 09/01 Q1026;EQDQ01+000000PRSWM2
0139167060999992000011321004+38330+026130FM-15+0004LGHI V0200201N005712200019N0112651N1+00801+00201999999ADDGA1021+007509999GF102991999999999999999999MA1102611999999MW1001REMMET045LGHI 132100Z 02011KT 9999 FEW025 08/02 Q1026;EQDQ01+000000PRSWM2
0139167060999992000011403004+38330+026130FM-15+0004LGHI V0203601N002112200019N0112651N1+00601+00101999999ADDGA1021+007509999GF102991999999999999999999MA1102511999999MW1001REMMET045LGHI 140300Z 36004KT 9999 FEW025 06/01 Q1025;EQDQ01+000000PRSWM2
0139167060999992000011404004+38330+026130FM-15+0004LGHI V0200501N005112200019N0112651N1+00601+00101999999ADDGA1021+007509999GF102991999999999999999999MA1102511999999MW1001REMMET045LGHI 140400Z 05010KT 9999 FEW025 06/01 Q1025;EQDQ01+000000PRSWM2
0139167060999992000011405004+38330+026130FM-15+0004LGHI V0200501N008712200019N0112651N1+00701+00101999999ADDGA1021+007509999GF102991999999999999999999MA1102401999999MW1001REMMET045LGHI 140500Z 05017KT 9999 FEW025 07/01 Q1024;EQDQ01+000000PRSWM2
0140167060999992000011406004+38330+026130FM-15+0004LGHI V0200201N007212200019N0112651N1+00701-00101999999ADDGA1021+007509999GF102991999999999999999999MA1102401999999MW1001REMMET046LGHI 140600Z 02014KT 9999 FEW025 07/M01 Q1024;EQDQ01+000000PRSWM2
0151167060999992000011407004+38330+026130FM-15+0004LGHI V0200301N007212200019N0112651N1+00701-00101999999ADDGA1021+006009999GF102991999999999999999999MA1102401999999MW1001OC101291REMMET049LGHI 140700Z 03014G25KT 9999 FEW020 07/M01 Q1024;EQDQ01+000000PRSWM2
0140167060999992000011408004+38330+026130FM-15+0004LGHI V0200301N005112200019N0112651N1+00701-00101999999ADDGA1021+006009999GF102991999999999999999999MA1102511999999MW1001REMMET046LGHI 140800Z 03010KT 9999 FEW020 07/M01 Q1025;EQDQ01+000000PRSWM2
0140167060999992000011409004+38330+026130FM-15+0004LGHI V0200201N005712200019N0112651N1+00801-00201999999ADDGA1021+006009999GF102991999999999999999999MA1102511999999MW1001REMMET046LGHI 140900Z 02011KT 9999 FEW020 08/M02 Q1025;EQDQ01+000000PRSWM2
0140167060999992000011410004+38330+026130FM-15+0004LGHI V0200401N003612200019N0112651N1+00901-00101999999ADDGA1021+054009999GF104991999999999999999999MA1102401999999MW1001REMMET046LGHI 141000Z 04007KT 9999 SCT180 09/M01 Q1024;EQDQ01+000000PRSWM2
0140167060999992000011411004+38330+026130FM-15+0004LGHI V0200201N007212200019N0112651N1+00901-00101999999ADDGA1021+054009999GF104991999999999999999999MA1102301999999MW1001REMMET046LGHI 141100Z 02014KT 9999 SCT180 09/M01 Q1023;EQDQ01+000000PRSWM2
0140167060999992000011412004+38330+026130FM-15+0004LGHI V0200201N006210540019N0112651N1+00901-00201999999ADDGA1071+054009999GF107991999999999999999999MA1102301999999MW1001REMMET046LGHI 141200Z 02012KT 9999 BKN180 09/M02 Q1023;EQDQ01+000000PRSWM2
0100167060999992000011413004+38330+026130FM-15+0004LGHI V0200201N00461220001CN0099001N1+00901-00301999999ADDMA1102301999999MW1001REMMET048LGHI 141300Z 02009KT CAVOK 09/M03 Q1023 NBKN180;EQDQ01+000000PRSWM2
0099167060999992000011414004+38330+026130FM-15+0004LGHI V0200701N00311220001CN0099001N1+01001-00101999999ADDMA1102301999999MW1001REMMET047LGHI 141400Z 07006KT CAVOK 10/M01 Q1023 BKN180;EQDQ01+000000PRSWM2
0099167060999992000011415004+38330+026130FM-15+0004LGHI V0200201N00671220001CN0099001N1+00901-00301999999ADDMA1102201999999MW1001REMMET047LGHI 141500Z 02013KT CAVOK 09/M03 Q1022 BKN180;EQDQ01+000000PRSWM2
0099167060999992000011416004+38330+026130FM-15+0004LGHI V0203601N00411220001CN0099001N1+00801-00301999999ADDMA1102201999999MW1001REMMET047LGHI 141600Z 36008KT CAVOK 08/M03 Q1022 BKN180;EQDQ01+000000PRSWM2
0098167060999992000011417004+38330+026130FM-15+0004LGHI V0203501N00311220001CN0099001N1+00801+00101999999ADDMA1102301999999MW1001REMMET046LGHI 141700Z 35006KT CAVOK 08/01 Q1023 BKN180;EQDQ01+000000PRSWM2
0097167060999992000011418004+38330+026130FM-15+0004LGHI V0203601N00361220001CN0099001N1+00801+00101999999ADDMA1102301999999MW1001REMMET045LGHI 141800Z 36007KT CAVOK 08/01 Q1023BKN180;EQDQ01+000000PRSWM2
0098167060999992000011419004+38330+026130FM-15+0004LGHI V0203401N00261220001CN0099001N1+00701-00401999999ADDMA1102301999999MW1001REMMET046LGHI 141900Z 34005KT CAVOK 07/M04 Q1023BKN180;EQDQ01+000000PRSWM2
0099167060999992000011420004+38330+026130FM-15+0004LGHI V0203601N00261220001CN0099001N1+00701-00401999999ADDMA1102301999999MW1001REMMET047LGHI 142000Z 36005KT CAVOK 07/M04 Q1023 BKN180;EQDQ01+000000PRSWM2
0092167060999992000011421004+38330+026130FM-15+0004LGHI V0209999C00001220001CN0099001N1+00601-00101999999ADDMA1102301999999MW1001REMMET040LGHI 142100Z 00000KT CAVOK 06/M01 Q1023;EQDQ01+000000PRSWM2
0140167060999992000011503004+38330+026130FM-15+0004LGHI V0200201N004112200019N0112651N1+00701-00101999999ADDGA1021+006009999GF102991999999999999999999MA1102101999999MW1001REMMET046LGHI 150300Z 02008KT 9999 FEW020 07/M01 Q1021;EQDQ01+000000PRSWM2
0091167060999992000011504004+38330+026130FM-15+0004LGHI V0209999C000012200019N0112651N1+00601-00101999999ADDMA1102101999999MW1001REMMET039LGHI 150400Z 00000KT 9999 06/M01 Q1021;EQDQ01+000000PRSWM2
0140167060999992000011505004+38330+026130FM-15+0004LGHI V0209999C000012200019N0112651N1+00601-00101999999ADDGA1021+006009999GF102991999999999999999999MA1102101999999MW1001REMMET046LGHI 150500Z 00000KT 9999 FEW020 06/M01 Q1021;EQDQ01+000000PRSWM2
0163167060999992000011506004+38330+026130FM-15+0004LGHI V0209999C000012200019N0112651N1+00501-00301999999ADDGA1021+006009999GA2021+018009999GF104991999999999999999999MA1102101999999MW1001REMMET053LGHI 150600Z 00000KT 9999 FEW020 SCT060 05/M03 Q1021;EQDQ01+000000PRSWM2
0147167060999992000011507004+38330+026130FM-15+0004LGHI V0209999C000012200019N0112651N1+00601-00101999999ADDGA1021+006009999GF102991999999999999999999MA1102101999999MW1001REMMET053LGHI 150700Z 00000KT 9999 FEW020 06/M01 Q1021 FEW060;EQDQ01+000000PRSWM2
0083167060999992000011508004+38330+026130FM-15+0004LGHI V0203401N00211220001CN0099001N1+99999+99999999999ADDMW1001REMMET046LGHI 150800Z 34004KT CAVOK FEW060 09/00 Q1022;EQDQ01+000000PRSWM2
0084167060999992000011509004+38330+026130FM-15+0004LGHI V0200501N00361220001CN0099001N1+99999+99999999999ADDMW1001REMMET047LGHI 150900Z 05007KT CAVOK SCT060 10/M02 Q1022;EQDQ01+000000PRSWM2
0084167060999992000011510004+38330+026130FM-15+0004LGHI V0200401N00511220001CN0099001N1+99999+99999999999ADDMW1001REMMET047LGHI 151000Z 04010KT CAVOK SCT060 10/M02 Q1021;EQDQ01+000000PRSWM2
0162167060999992000011511004+38330+026130FM-15+0004LGHI V0200301N006212200019N0112651N1+01001+00001999999ADDGA1021+007509999GA2021+018009999GF104991999999999999999999MA1102101999999MW1001REMMET052LGHI 151100Z 03012KT 9999 FEW025 SCT060 10/00 Q1021;EQDQ01+000000PRSWM2
0162167060999992000011512004+38330+026130FM-15+0004LGHI V0200301N005712200019N0112651N1+01001+00001999999ADDGA1021+007509999GA2021+018009999GF104991999999999999999999MA1102001999999MW1001REMMET052LGHI 151200Z 03011KT 9999 FEW025 SCT060 10/00 Q1020;EQDQ01+000000PRSWM2
0084167060999992000011513004+38330+026130FM-15+0004LGHI V0200201N00621220001CN0099001N1+99999+99999999999ADDMW1001REMMET047LGHI 151300Z 02012KT CAVOK SCT060 10/M02 Q1020;EQDQ01+000000PRSWM2
0092167060999992000011514004+38330+026130FM-15+0004LGHI V0200201N00621220001CN0099001N1+01001-00201999999ADDMA1102001999999MW1001REMMET040LGHI 151400Z 02012KT CAVOK 10/M02 Q1020;EQDQ01+000000PRSWM2
0092167060999992000011515004+38330+026130FM-15+0004LGHI V0200101N00461220001CN0099001N1+00901-00301999999ADDMA1102001999999MW1001REMMET040LGHI 151500Z 01009KT CAVOK 09/M03 Q1020;EQDQ01+000000PRSWM2
0092167060999992000011516004+38330+026130FM-15+0004LGHI V0203501N00261220001CN0099001N1+00901-00301999999ADDMA1102101999999MW1001REMMET040LGHI 151600Z 35005KT CAVOK 09/M03 Q1021;EQDQ01+000000PRSWM2
0092167060999992000011517004+38330+026130FM-15+0004LGHI V0203501N00211220001CN0099001N1+00901-00301999999ADDMA1102101999999MW1001REMMET040LGHI 151700Z 35004KT CAVOK 09/M03 Q1021;EQDQ01+000000PRSWM2
0099167060999992000011518004+38330+026130FM-15+0004LGHI V0203501N00261220001CN0099001N1+00801-00301999999ADDMA1102101999999MW1001REMMET047LGHI 151800Z 35005KT CAVOK 08/M03 Q1021 FEW180;EQDQ01+000000PRSWM2
0092167060999992000011521004+38330+026130FM-15+0004LGHI V0203401N00211220001CN0099001N1+00701-00101999999ADDMA1102101999999MW1001REMMET040LGHI 152100Z 34004KT CAVOK 07/M01 Q1021;EQDQ01+000000PRSWM2
0139167060999992000011603004+38330+026130FM-15+0004LGHI V0209999C000012200019N0112651N1+00701+00101999999ADDGA1021+007509999GF102991999999999999999999MA1102001999999MW1001REMMET045LGHI 160300Z 00000KT 9999 FEW025 07/01 Q1020;EQDQ01+000000PRSWM2
0140167060999992000011604004+38330+026130FM-15+0004LGHI V0209999C000012200019N0112651N1+00001-00101999999ADDGA1021+007509999GF102991999999999999999999MA1102001999999MW1001REMMET046LGHI 160400Z 00000KT 9999 FEW025 00/M01 Q1020;EQDQ01+000000PRSWM2
0141167060999992000011605004+38330+026130FM-15+0004LGHI V0209999C000012200019N0112651N1-00101-00201999999ADDGA1021+007509999GF102991999999999999999999MA1102001999999MW1001REMMET047LGHI 160500Z 00000KT 9999 FEW025 M01/M02 Q1020;EQDQ01+000000PRSWM2
0100167060999992000011606004+38330+026130FM-15+0004LGHI V0209999C00001220001CN0099001N1+00001-00201999999ADDMA1102101999999MW1001REMMET048LGHI 160600Z 00000KT CAVOK M00/M02 Q1021 FEW060;EQDQ01+000000PRSWM2
0098167060999992000011607004+38330+026130FM-15+0004LGHI V0200801N00211220001CN0099001N1+00801+00301999999ADDMA1102101999999MW1001REMMET046LGHI 160700Z 08004KT CAVOK 08/03 Q1021 FEW060;EQDQ01+000000PRSWM2
0083167060999992000011609004+38330+026130FM-15+0004LGHI V0200201N00261220001CN0099001N1+99999+99999999999ADDMW1001REMMET046LGHI 160900Z 02005KT CAVOK SCT060 10/02 Q1021;EQDQ01+000000PRSWM2
0083167060999992000011610004+38330+026130FM-15+0004LGHI V0200601N00261220001CN0099001N1+99999+99999999999ADDMW1001REMMET046LGHI 161000Z 06005KT CAVOK SCT080 10/02 Q1021;EQDQ01+000000PRSWM2
0083167060999992000011611004+38330+026130FM-15+0004LGHI V0200401N00261220001CN0099001N1+99999+99999999999ADDMW1001REMMET046LGHI 161100Z 04005KT CAVOK SCT080 10/02 Q1020;EQDQ01+000000PRSWM2
0163167060999992000011612004+38330+026130FM-15+0004LGHI V0200501N002612200019N0112651N1+01101-00101999999ADDGA1021+007509999GA2021+024009999GF104991999999999999999999MA1102001999999MW1001REMMET053LGHI 161200Z 05005KT 9999 FEW025 SCT080 11/M01 Q1020;EQDQ01+000000PRSWM2
0186167060999992000011613004+38330+026130FM-15+0004LGHI V0200201N003610540019N0112651N1+01101-00101999999ADDGA1021+007509999GA2021+024009999GA3071+054009999GF107991999999999999999999MA1102001999999MW1001REMMET060LGHI 161300Z 02007KT 9999 FEW025 SCT080 BKN180 11/M01 Q1020;EQDQ01+000000PRSWM2
0186167060999992000011614004+38330+026130FM-15+0004LGHI V0200301N003610540019N0112651N1+01101-00101999999ADDGA1021+007509999GA2021+024009999GA3071+054009999GF107991999999999999999999MA1102001999999MW1001REMMET060LGHI 161400Z 03007KT 9999 FEW025 SCT080 BKN180 11/M01 Q1020;EQDQ01+000000PRSWM2
0162167060999992000011616004+38330+026130FM-15+0004LGHI V0209999C000012200019N0112651N1+00901+00101999999ADDGA1021+007509999GA2021+024009999GF104991999999999999999999MA1102001999999MW1001REMMET052LGHI 161600Z 00000KT 9999 SCT025 SCT080 09/01 Q1020;EQDQ01+000000PRSWM2
0162167060999992000011617004+38330+026130FM-15+0004LGHI V0209999C000012200019N0112651N1+00701+00201999999ADDGA1021+006009999GA2021+024009999GF104991999999999999999999MA1102001999999MW1001REMMET052LGHI 161700Z 00000KT 9999 FEW020 SCT080 07/02 Q1020;EQDQ01+000000PRSWM2
0091167060999992000011618004+38330+026130FM-15+0004LGHI V0209999C00001220001CN0099001N1+00401+00201999999ADDMA1102001999999MW1001REMMET039LGHI 161800Z 00000KT CAVOK 04/02 Q1020;EQDQ01+000000PRSWM2
0162167060999992000011619004+38330+026130FM-15+0004LGHI V0209999C000012200019N0112651N1+00401+00201999999ADDGA1021+006009999GA2021+024009999GF104991999999999999999999MA1102001999999MW1001REMMET052LGHI 161900Z 00000KT 9999 FEW020 SCT080 04/02 Q1020;EQDQ01+000000PRSWM2
0162167060999992000011620004+38330+026130FM-15+0004LGHI V0209999C000012200019N0112651N1+00201+00101999999ADDGA1021+006009999GA2021+024009999GF104991999999999999999999MA1102001999999MW1001REMMET052LGHI 162000Z 00000KT 9999 FEW020 SCT080 02/01 Q1020;EQDQ01+000000PRSWM2
0162167060999992000011621004+38330+026130FM-15+0004LGHI V0209999C000010240019N0112651N1+00601+00301999999ADDGA1021+006009999GA2071+024009999GF107991999999999999999999MA1101901999999MW1001REMMET052LGHI 162100Z 00000KT 9999 FEW020 BKN080 06/03 Q1019;EQDQ01+000000PRSWM2
0139167060999992000011703004+38330+026130FM-15+0004LGHI V0202901N004112200019N0112651N1+00601+00301999999ADDGA1021+006009999GF102991999999999999999999MA1101691999999MW1001REMMET045LGHI 170300Z 29008KT 9999 FEW020 06/03 Q1017;EQDQ01+000000PRSWM2
0139167060999992000011704004+38330+026130FM-15+0004LGHI V0203401N002612200019N0112651N1+00801+00401999999ADDGA1021+006009999GF104991999999999999999999MA1101691999999MW1001REMMET045LGHI 170400Z 34005KT 9999 SCT020 08/04 Q1017;EQDQ01+000000PRSWM2
0162167060999992000011705004+38330+026130FM-15+0004LGHI V0203501N004612200019N0112651N1+00801+00401999999ADDGA1021+009009999GA2021+018009999GF104991999999999999999999MA1101691999999MW1001REMMET052LGHI 170500Z 35009KT 9999 SCT030 SCT060 08/04 Q1017;EQDQ01+000000PRSWM2
0162167060999992000011706004+38330+026130FM-15+0004LGHI V0200201N005110540019N0112651N1+00801+00001999999ADDGA1021+009009999GA2071+054009999GF107991999999999999999999MA1101591999999MW1001REMMET052LGHI 170600Z 02010KT 9999 SCT030 BKN180 08/00 Q1016;EQDQ01+000000PRSWM2
0162167060999992000011707004+38330+026130FM-15+0004LGHI V0203501N003610540019N0112651N1+00801+00001999999ADDGA1021+009009999GA2071+054009999GF107991999999999999999999MA1101591999999MW1001REMMET052LGHI 170700Z 35007KT 9999 FEW030 BKN180 08/00 Q1016;EQDQ01+000000PRSWM2
0162167060999992000011708004+38330+026130FM-15+0004LGHI V0203601N003610540019N0112651N1+00801+00001999999ADDGA1021+009009999GA2071+054009999GF107991999999999999999999MA1101591999999MW1001REMMET052LGHI 170800Z 36007KT 9999 FEW030 BKN180 08/00 Q1016;EQDQ01+000000PRSWM2
0186167060999992000011709004+38330+026130FM-15+0004LGHI V0200101N002610240019N0112651N1+01001-00101999999ADDGA1021+009009999GA2071+024009999GA3071+054009999GF107991999999999999999999MA1101491999999MW1001REMMET060LGHI 170900Z 01005KT 9999 FEW030 BKN080 BKN180 10/M01 Q1015;EQDQ01+000000PRSWM2
0186167060999992000011710004+38330+026130FM-15+0004LGHI V0209999C000010540019N0112651N1+00901-00101999999ADDGA1021+009009999GA2021+024009999GA3071+054009999GF107991999999999999999999MA1101491999999MW1001REMMET060LGHI 171000Z 00000KT 9999 FEW030 SCT080 BKN180 09/M01 Q1015;EQDQ01+000000PRSWM2
0185167060999992000011711004+38330+026130FM-15+0004LGHI V0200401N002110540019N0112651N1+01001+00101999999ADDGA1021+009009999GA2021+024009999GA3071+054009999GF107991999999999999999999MA1101291999999MW1001REMMET059LGHI 171100Z 04004KT 9999 FEW030 SCT080 BKN180 10/01 Q1013;EQDQ01+000000PRSWM2
0185167060999992000011712004+38330+026130FM-15+0004LGHI V0209999C000010540019N0112651N1+01001+00201999999ADDGA1021+009009999GA2021+024009999GA3071+054009999GF107991999999999999999999MA1101191999999MW1001REMMET059LGHI 171200Z 00000KT 9999 FEW030 SCT080 BKN180 10/02 Q1012;EQDQ01+000000PRSWM2
0185167060999992000011713004+38330+026130FM-15+0004LGHI V0209999C000010540019N0112651N1+01001+00201999999ADDGA1021+009009999GA2021+024009999GA3081+054009999GF108991999999999999999999MA1101081999999MW1001REMMET059LGHI 171300Z 00000KT 9999 FEW030 SCT080 OVC180 10/02 Q1011;EQDQ01+000000PRSWM2
0185167060999992000011714004+38330+026130FM-15+0004LGHI V0209999C000010540019N0112651N1+01001+00201999999ADDGA1021+009009999GA2021+024009999GA3071+054009999GF107991999999999999999999MA1101021999999MW1001REMMET059LGHI 171400Z 00000KT 9999 FEW030 SCT080 BKN180 10/02 Q1010;EQDQ01+000000PRSWM2
0185167060999992000011715004+38330+026130FM-15+0004LGHI V0209999C000010540019N0112651N1+00901+00101999999ADDGA1021+009009999GA2021+024009999GA3071+054009999GF107991999999999999999999MA1101021999999MW1001REMMET059LGHI 171500Z 00000KT 9999 FEW030 SCT080 BKN180 09/01 Q1010;EQDQ01+000000PRSWM2
0185167060999992000011716004+38330+026130FM-15+0004LGHI V0209999C000010540019N0112651N1+00901+00101999999ADDGA1021+009009999GA2021+024009999GA3071+054009999GF107991999999999999999999MA1100811999999MW1001REMMET059LGHI 171600Z 00000KT 9999 FEW030 SCT080 BKN180 09/01 Q1008;EQDQ01+000000PRSWM2
0185167060999992000011717004+38330+026130FM-15+0004LGHI V0209999C000010540019N0112651N1+00901+00101999999ADDGA1021+009009999GA2021+024009999GA3071+054009999GF107991999999999999999999MA1100811999999MW1001REMMET059LGHI 171700Z 00000KT 9999 FEW030 SCT080 BKN180 09/01 Q1008;EQDQ01+000000PRSWM2
0186167060999992000011718004+38330+026130FM-15+0004LGHI V0209999C000010540019N0112651N1+00701-00101999999ADDGA1021+009009999GA2021+024009999GA3071+054009999GF107991999999999999999999MA1100811999999MW1001REMMET060LGHI 171800Z 00000KT 9999 FEW030 SCT080 BKN180 07/M01 Q1008;EQDQ01+000000PRSWM2
0186167060999992000011719004+38330+026130FM-15+0004LGHI V0209999C000010540019N0112651N1+00501-00201999999ADDGA1021+009009999GA2021+024009999GA3071+054009999GF107991999999999999999999MA1100711999999MW1001REMMET060LGHI 171900Z 00000KT 9999 FEW030 SCT080 BKN180 05/M02 Q1007;EQDQ01+000000PRSWM2
0162167060999992000011720004+38330+026130FM-15+0004LGHI V0209999C000010240019N0090001N1+00501+00101999999ADDGA1021+009009999GA2071+024009999GF107991999999999999999999MA1100611999999MW1001REMMET052LGHI 172000Z 00000KT 9000 FEW030 BKN080 05/01 Q1006;EQDQ01+000000PRSWM2
0162167060999992000011721004+38330+026130FM-15+0004LGHI V0209999C000010240019N0080001N1+00501+00301999999ADDGA1021+009009999GA2071+024009999GF107991999999999999999999MA1100611999999MW1001REMMET052LGHI 172100Z 00000KT 8000 FEW030 BKN080 05/03 Q1006;EQDQ01+000000PRSWM2
0178167060999992000011803004+38330+026130FM-15+0004LGHI V0209999C000010240019N0112651N1+00701+00201999999ADDGA1021+009009999GA2071+024009999GF107991999999999999999999MA1099802999999MW1001REMMET052LGHI 180300Z 00000KT 9999 FEW030 BKN080 07/02 Q0998;EQDQ01+099803APOA  Q02+000000PRSWM2
0162167060999992000011804004+38330+026130FM-15+0004LGHI V0202601N002110240019N0112651N1+00701+00201999999ADDGA1021+009009999GA2071+024009999GF107991999999999999999999MA1099701999999MW1001REMMET052LGHI 180400Z 26004KT 9999 SCT030 BKN080 07/02 Q0997;EQDQ01+000000PRSWM2
0181167060999992000011805004+38330+026130FM-15+0004LGHI V0202701N002610240019N0090001N1+00901+00301999999ADDGA1021+006009999GA2071+024009999GF107991999999999999999999MA1099701999999MW1531REMMET055LGHI 180500Z 27005KT 9000 DZ SCT020 BKN080 09/03 Q0997;EQDQ01+000003PRSWM1Q02    003PRSWM1
0181167060999992000011806004+38330+026130FM-15+0004LGHI V0202901N003610240019N0080001N1+00901+00001999999ADDGA1021+009009999GA2081+024009999GF108991999999999999999999MA1099591999999MW1531REMMET055LGHI 180600Z 29007KT 8000 DZ SCT030 OVC080 09/00 Q0996;EQDQ01+000003PRSWM1Q02    003PRSWM1
0182167060999992000011807004+38330+026130FM-15+0004LGHI V0202901N002610090019N0080001N1+00901+00001999999ADDGA1071+009009999GA2081+024009999GF108991999999999999999999MA1099591999999MW1611REMMET056LGHI 180700Z 29005KT 8000 -RA BKN030 OVC080 09/00 Q0996;EQDQ01+000003PRSWM1Q02    003PRSWM1
0182167060999992000011808004+38330+026130FM-15+0004LGHI V0209999C000010090019N0060001N1+00701+00501999999ADDGA1071+009009999GA2081+024009999GF108991999999999999999999MA1099701999999MW1611REMMET056LGHI 180800Z 00000KT 6000 -RA BKN030 OVC080 07/05 Q0997;EQDQ01+000003PRSWM1Q02    003PRSWM1
0162167060999992000011809004+38330+026130FM-15+0004LGHI V0203001N005110090019N0080001N1+00801+00401999999ADDGA1071+009009999GA2081+024009999GF108991999999999999999999MA1099591999999MW1001REMMET052LGHI 180900Z 30010KT 8000 BKN030 OVC080 08/04 Q0996;EQDQ01+000000PRSWM2
0181167060999992000011810004+38330+026130FM-15+0004LGHI V0200201N002110090019N0070001N1+00801+00401999999ADDGA1071+009009999GA2081+024009999GF108991999999999999999999MA1099591999999MW1631REMMET055LGHI 181000Z 02004KT 7000 RA BKN030 OVC080 08/04 Q0996;EQDQ01+000003PRSWM1Q02    003PRSWM1
0165167060999992000011811004+38330+026130FM-15+0004LGHI V0203101N004110240019N0112651N1+01001+00401999999ADDGA1021+006009029GA2071+024009999GF107991999999999999999999MA1099491999999MW1001REMMET055LGHI 181100Z 31008KT 9999 SCT020TCU BKN080 10/04 Q0995;EQDQ01+000000PRSWM2
0153167060999992000011812004+38330+026130FM-15+0004LGHI V0203101N006712200019N0112651N1+01201+00401999999ADDGA1021+006009029GF104991999999999999999999MA1099391999999MW1001OC101391REMMET051LGHI 181200Z 31013G27KT 9999 SCT020TCU 12/04 Q0994;EQDQ01+000000PRSWM2
0142167060999992000011813004+38330+026130FM-15+0004LGHI V0203011N008712200019N0112651N1+01201+00401999999ADDGA1021+006009029GF104991999999999999999999MA1099391999999MW1001REMMET048LGHI 181300Z 30117KT 9999 SCT020TCU 12/04 Q0994;EQDQ01+000000PRSWM2
0162167060999992000011814004+38330+026130FM-15+0004LGHI V0202801N006710060019N0112651N1+01201+00401999999ADDGA1071+006009029GF107991999999999999999999MA1099491999999MW1611REMMET052LGHI 181400Z 28013KT 9999 -RA BKN020TCU 12/04 Q0995;EQDQ01+000003PRSWM1Q02    003PRSWM1
0146167060999992000011815004+38330+026130FM-15+0004LGHI V0203201N005110060019N0112651N1+00901+00301999999ADDGA1071+006009999GF107991999999999999999999MA1099491999999MW1001REMMET052LGHI 181500Z 32010KT 9999 BKN020 09/03 Q0995 RETSRA;EQDQ01+000000PRSWM2
0142167060999992000011816004+38330+026130FM-15+0004LGHI V0203001N007710045019N0112651N1+01101+00101999999ADDGA1071+004509029GF107991999999999999999999MA1099701999999MW1001REMMET048LGHI 181600Z 30015KT 9999 BKN015TCU 11/01 Q0997;EQDQ01+000000PRSWM2
0143167060999992000011817004+38330+026130FM-15+0004LGHI V0203101N007210045019N0090001N1+01201-00201999999ADDGA1071+004509029GF107991999999999999999999MA1099801999999MW1001REMMET049LGHI 181700Z 31014KT 9000 BKN015TCU 12/M02 Q0998;EQDQ01+000000PRSWM2
0143167060999992000011818004+38330+026130FM-15+0004LGHI V0203201N007210045019N0112651N1+01201+00001999999ADDGA1071+004509029GF107991999999999999999999MA1099901999999MW1001REMMET049LGHI 181800Z 32014KT 9999 BKN015TCU 12/M00 Q0999;EQDQ01+000000PRSWM2
0143167060999992000011819004+38330+026130FM-15+0004LGHI V0203201N006712200019N0090001N1+01201-00301999999ADDGA1021+004509029GF104991999999999999999999MA1100001999999MW1001REMMET049LGHI 181900Z 32013KT 9000 SCT015TCU 12/M03 Q1000;EQDQ01+000000PRSWM2
0142167060999992000011820004+38330+026130FM-15+0004LGHI V0203301N004112200019N0112651N1+01101+00101999999ADDGA1021+004509029GF104991999999999999999999MA1100001999999MW1001REMMET048LGHI 182000Z 33008KT 9999 SCT015TCU 11/01 Q1000;EQDQ01+000000PRSWM2
0142167060999992000011821004+38330+026130FM-15+0004LGHI V0203001N002612200019N0112651N1+01101+00101999999ADDGA1021+006009029GF104991999999999999999999MA1100101999999MW1001REMMET048LGHI 182100Z 30005KT 9999 SCT020TCU 11/01 Q1001;EQDQ01+000000PRSWM2
0140167060999992000011900004+38330+026130FM-15+0004LGHI V0209999C000012200019N0112651N1+00701-00301999999ADDGA1021+006009999GF102991999999999999999999MA1100001999999MW1001REMMET046LGHI 190000Z 00000KT 9999 FEW020 07/M03 Q1000;EQDQ01+000000PRSWM2
0142167060999992000011903004+38330+026130FM-15+0004LGHI V0202601N003112200019N0112651N1+00601+00101999999ADDGA1021+006009029GF104991999999999999999999MA1100001999999MW1001REMMET048LGHI 190300Z 26006KT 9999 SCT020TCU 06/01 Q1000;EQDQ01+000000PRSWM2
0165167060999992000011904004+38330+026130FM-15+0004LGHI V0202601N003112200019N0112651N1+01101+00101999999ADDGA1021+004509029GA2021+024009999GF104991999999999999999999MA1100001999999MW1001REMMET055LGHI 190400Z 26006KT 9999 SCT015TCU SCT080 11/01 Q1000;EQDQ01+000000PRSWM2
0165167060999992000011905004+38330+026130FM-15+0004LGHI V0200401N006710240019N0112651N1+01101+00601999999ADDGA1021+004509029GA2071+024009999GF107991999999999999999999MA1100101999999MW1001REMMET055LGHI 190500Z 04013KT 9999 SCT015TCU BKN080 11/06 Q1001;EQDQ01+000000PRSWM2
0207167060999992000011906004+38330+026130FM-15+0004LGHI V0200101N005710240019N0090001N1+00901+00601999999ADDGA1021+003009029GA2021+007509999GA3081+024009999GF108991999999999999999999MA1100201999999MW1531REMMET065LGHI 190600Z 01011KT 9000 DZ FEW010TCU SCT025 OVC080 09/06 Q1002;EQDQ01+000003PRSWM1Q02    003PRSWM1
0188167060999992000011907004+38330+026130FM-15+0004LGHI V0200101N005110240019N0090001N1+00901+00601999999ADDGA1021+003009999GA2021+006009029GA3071+024009999GF107991999999999999999999MA1100311999999MW1001REMMET062LGHI 190700Z 01010KT 9000 FEW010 SCT020TCU BKN080 09/06 Q1003;EQDQ01+000000PRSWM2
0208167060999992000011908004+38330+026130FM-15+0004LGHI V0209999C000010240019N0090001N1+00701+00501999999ADDGA1021+003009999GA2021+006009029GA3071+024009999GF107991999999999999999999MA1100411999999MW1611REMMET066LGHI 190800Z 00000KT 9000 -RA FEW010 SCT020TCU BKN080 07/05 Q1004;EQDQ01+000003PRSWM1Q02    003PRSWM1
0188167060999992000011909004+38330+026130FM-15+0004LGHI V0203001N002110210019N0090001N1+00701+00501999999ADDGA1021+002409999GA2021+006009029GA3081+021009999GF108991999999999999999999MA1100411999999MW1001REMMET062LGHI 190900Z 30004KT 9000 FEW008 SCT020TCU OVC070 07/05 Q1004;EQDQ01+000000PRSWM2
0208167060999992000011910004+38330+026130FM-15+0004LGHI V0202901N002110210019N0090001N1+00701+00501999999ADDGA1021+003009999GA2021+006009029GA3071+021009999GF107991999999999999999999MA1100411999999MW1611REMMET066LGHI 191000Z 29004KT 9000 -RA FEW010 SCT020TCU BKN070 07/05 Q1004;EQDQ01+000003PRSWM1Q02    003PRSWM1
0193167060999992000011911004+38330+026130FM-15+0004LGHI V0209999C000010210019N0090001N1+00801+00601999999ADDGA1021+002709999GA2021+006009029GA3071+021009999GF107991999999999999999999MA1100411999999MW1001REMMET067LGHI 191100Z 00000KT 9000 FEW009 SCT020TCU BKN070 08/06 Q1004 RERA;EQDQ01+000000PRSWM2
0165167060999992000011912004+38330+026130FM-15+0004LGHI V0203301N002610210019N0090001N1+00901+00301999999ADDGA1021+004509029GA2081+021009999GF108991999999999999999999MA1100411999999MW1001REMMET055LGHI 191200Z 33005KT 9000 SCT015TCU OVC070 09/03 Q1004;EQDQ01+000000PRSWM2
0188167060999992000011913004+38330+026130FM-15+0004LGHI V0203601N003610480019N0112651N1+00801+00301999999ADDGA1021+004509029GA2021+024009999GA3071+048009999GF107991999999999999999999MA1100411999999MW1001REMMET062LGHI 191300Z 36007KT 9999 SCT015TCU SCT080 BKN160 08/03 Q1004;EQDQ01+000000PRSWM2
0188167060999992000011914004+38330+026130FM-15+0004LGHI V0200401N006710240019N0090001N1+00801+00401999999ADDGA1021+003609029GA2071+024009999GA3081+048009999GF108991999999999999999999MA1100511999999MW1001REMMET062LGHI 191400Z 04013KT 9000 SCT012TCU BKN080 OVC160 08/04 Q1005;EQDQ01+000000PRSWM2
0207167060999992000011915004+38330+026130FM-15+0004LGHI V0200401N005110240019N0080001N1+00701+00301999999ADDGA1021+003009029GA2071+024009999GA3081+048009999GF108991999999999999999999MA1100611999999MW1531REMMET065LGHI 191500Z 04010KT 8000 DZ SCT010TCU BKN080 OVC160 07/03 Q1006;EQDQ01+000003PRSWM1Q02    003PRSWM1
0165167060999992000011917004+38330+026130FM-15+0004LGHI V0203601N004612200019N0080001N1+00601+00301999999ADDGA1021+004509029GA2021+024009999GF104991999999999999999999MA1100811999999MW1001REMMET055LGHI 191700Z 36009KT 8000 FEW015TCU SCT080 06/03 Q1008;EQDQ01+000000PRSWM2
0140167060999992000011918004+38330+026130FM-15+0004LGHI V0203501N005112200019N0080001N1+00601-00401999999ADDGA1021+006009999GF104991999999999999999999MA1100911999999MW1001REMMET046LGHI 191800Z 35010KT 8000 SCT020 06/M04 Q1009;EQDQ01+000000PRSWM2
0140167060999992000011919004+38330+026130FM-15+0004LGHI V0203501N004112200019N0090001N1+00601-00401999999ADDGA1021+006009999GF104991999999999999999999MA1101021999999MW1001REMMET046LGHI 191900Z 35008KT 9000 SCT020 06/M04 Q1010;EQDQ01+000000PRSWM2
0140167060999992000011920004+38330+026130FM-15+0004LGHI V0203401N002612200019N0090001N1+00501-00301999999ADDGA1021+006009999GF104991999999999999999999MA1101081999999MW1001REMMET046LGHI 192000Z 34005KT 9000 SCT020 05/M03 Q1011;EQDQ01+000000PRSWM2
0140167060999992000011921004+38330+026130FM-15+0004LGHI V0203301N002612200019N0090001N1+00501-00101999999ADDGA1021+007509999GF102991999999999999999999MA1101081999999MW1001REMMET046LGHI 192100Z 33005KT 9000 FEW025 05/M01 Q1011;EQDQ01+000000PRSWM2
0163167060999992000012000004+38330+026130FM-15+0004LGHI V0209999C000012200019N0112651N1+00101-00101999999ADDGA1021+006009999GA2021+024009999GF104991999999999999999999MA1101021999999MW1001REMMET053LGHI 200000Z 00000KT 9999 FEW020 SCT080 01/M01 Q1010;EQDQ01+000000PRSWM2
0205167060999992000012003004+38330+026130FM-15+0004LGHI V0209999C000010105019N0080001N1+00201-00101999999ADDGA1021+003009999GA2071+010509999GA3081+024009999GF108991999999999999999999MA1101191999999MW1531REMMET063LGHI 200300Z 00000KT 8000 DZ FEW010 BKN035 OVC080 02/M01 Q1012;EQDQ01+000003PRSWM1Q02    003PRSWM1
0186167060999992000012004004+38330+026130FM-15+0004LGHI V0209999C000010090019N0080001N1+00301-00101999999ADDGA1021+002409999GA2071+009009999GA3081+024009999GF108991999999999999999999MA1101191999999MW1001REMMET060LGHI 200400Z 00000KT 8000 FEW008 BKN030 OVC080 03/M01 Q1012;EQDQ01+000000PRSWM2
0213167060999992000012005004+38330+026130FM-15+0004LGHI V0209999C000010060019N0020001N1+00201-00101999999ADDGA1021+002409999GA2071+006009999GA3081+018009999GF108991999999999999999999MA1101191999999MW1611MW2731REMMET065LGHI 200500Z 00000KT 2000 SNRA SCT008 BKN020 OVC060 02/M01 Q1012;EQDQ01+000003PRSWM1Q02    003PRSWM1
0185167060999992000012006004+38330+026130FM-15+0004LGHI V0209999C000010060019N0050001N1+00201+00201999999ADDGA1021+001209999GA2071+006009999GA3081+018009999GF108991999999999999999999MA1101291999999MW1001REMMET059LGHI 200600Z 00000KT 5000 SCT004 BKN020 OVC060 02/02 Q1013;EQDQ01+000000PRSWM2
0205167060999992000012007004+38330+026130FM-15+0004LGHI V0209999C000010060019N0060001N1+00101+00101999999ADDGA1021+001209999GA2071+006009999GA3081+018009999GF108991999999999999999999MA1101391999999MW1611REMMET063LGHI 200700Z 00000KT 6000 -RA SCT004 BKN020 OVC060 01/01 Q1014;EQDQ01+000003PRSWM1Q02    003PRSWM1
0231167060999992000012008004+38330+026130FM-15+0004LGHI V0203501N003110060019N0006001N1+00001+00001999999ADDGA1021+000609999GA2021+004509029GA3071+006009999GA4081+018009999GF108991999999999999999999MA1101491999999MW1751REMMET073LGHI 200800Z 35006KT 0600 +SN SCT002 SCT015TCU BKN020 OVC060 00/00 Q1015;EQDQ01+000003PRSWM1Q02    003PRSWM1
0230167060999992000012009004+38330+026130FM-15+0004LGHI V0200101N004110060019N0005001N1+00001+00001999999ADDGA1021+000609999GA2021+004509029GA3071+006009999GA4081+018009999GF108991999999999999999999MA1101591999999MW1731REMMET072LGHI 200900Z 01008KT 0500 SN SCT002 SCT015TCU BKN020 OVC060 00/00 Q1016;EQDQ01+000003PRSWM1Q02    003PRSWM1
0236167060999992000012010004+38330+026130FM-15+0004LGHI V0200101N003610060019N0040001N1+00101+00001999999ADDGA1021+000609999GA2021+004509029GA3071+006009999GA4081+018009999GF108991999999999999999999MA1101591999999MW1711REMMET078LGHI 201000Z 01007KT 4000 -SN SCT002 SCT015TCU BKN020 OVC060 01/00 Q1016 RESN;EQDQ01+000003PRSWM1Q02    003PRSWM1
0230167060999992000012011004+38330+026130FM-15+0004LGHI V0200401N007710060019N0020001N1+00101+00001999999ADDGA1021+000609999GA2021+004509029GA3071+006009999GA4081+018009999GF108991999999999999999999MA1101591999999MW1731REMMET072LGHI 201100Z 04015KT 2000 SN SCT002 SCT015TCU BKN020 OVC060 01/00 Q1016;EQDQ01+000003PRSWM1Q02    003PRSWM1
0191167060999992000012012004+38330+026130FM-15+0004LGHI V0200301N007710060019N0020001N1+99999+99999999999ADDGA1021+000609999GA2021+004509029GA3071+006009999GF107991999999999999999999MW1001MW2711REMMET074LGHI 201200Z 03015KT 2000 -SN SCT002 SCT015TCU BKN020 0VC060 01/M01 Q1016;EQDQ01+000003PRSWM1
0189167060999992000012013004+38330+026130FM-15+0004LGHI V0200401N006710075019N0090001N1+00401-00401999999ADDGA1021+002409999GA2021+005409029GA3071+007509999GF107991999999999999999999MA1101691999999MW1001REMMET063LGHI 201300Z 04013KT 9000 SCT008 SCT018TCU BKN025 04/M04 Q1017;EQDQ01+000000PRSWM2
0189167060999992000012014004+38330+026130FM-15+0004LGHI V0203601N006212200019N0112651N1+00401-00401999999ADDGA1021+002409999GA2021+005409029GA3021+007509999GF104991999999999999999999MA1101801999999MW1001REMMET063LGHI 201400Z 36012KT 9999 SCT008 SCT018TCU SCT025 04/M04 Q1018;EQDQ01+000000PRSWM2
0200167060999992000012015004+38330+026130FM-15+0004LGHI V0203601N007210075019N0112651N1+00401-00601999999ADDGA1021+002409999GA2021+005409029GA3071+007509999GF107991999999999999999999MA1101901999999MW1001OC101231REMMET066LGHI 201500Z 36014G24KT 9999 SCT008 SCT018TCU BKN025 04/M06 Q1019;EQDQ01+000000PRSWM2
0189167060999992000012016004+38330+026130FM-15+0004LGHI V0203501N005110075019N0112651N1+00301-00701999999ADDGA1021+002409999GA2021+006009029GA3071+007509999GF107991999999999999999999MA1102001999999MW1001REMMET063LGHI 201600Z 35010KT 9999 SCT008 SCT020TCU BKN025 03/M07 Q1020;EQDQ01+000000PRSWM2
0189167060999992000012017004+38330+026130FM-15+0004LGHI V0203501N004610075019N0112651N1+00301-00701999999ADDGA1021+002409999GA2021+006009029GA3071+007509999GF107991999999999999999999MA1102101999999MW1001REMMET063LGHI 201700Z 35009KT 9999 SCT008 FEW020TCU BKN025 03/M07 Q1021;EQDQ01+000000PRSWM2
0174167060999992000012018004+38330+026130FM-15+0004LGHI V0200301N008710075019N0112651N1+00401-00901999999ADDGA1021+002409999GA2071+007509999GF107991999999999999999999MA1102101999999MW1001OC101391REMMET056LGHI 201800Z 03017G27KT 9999 FEW008 BKN025 04/M09 Q1021;EQDQ01+000000PRSWM2
0174167060999992000012019004+38330+026130FM-15+0004LGHI V0200201N008210075019N0112651N1+00401-00901999999ADDGA1021+002409999GA2071+007509999GF107991999999999999999999MA1102201999999MW1001OC101341REMMET056LGHI 201900Z 02016G26KT 9999 FEW008 BKN025 04/M09 Q1022;EQDQ01+000000PRSWM2
0151167060999992000012020004+38330+026130FM-15+0004LGHI V0203601N004112200019N0112651N1+00301-00901999999ADDGA1021+007509999GF104991999999999999999999MA1102201999999MW1001OC101031REMMET049LGHI 202000Z 36008G20KT 9999 SCT025 03/M09 Q1022;EQDQ01+000000PRSWM2
0140167060999992000012021004+38330+026130FM-15+0004LGHI V0203601N003612200019N0112651N1+00301-00701999999ADDGA1021+007509999GF104991999999999999999999MA1102201999999MW1001REMMET046LGHI 202100Z 36007KT 9999 SCT025 03/M07 Q1022;EQDQ01+000000PRSWM2
0140167060999992000012100004+38330+026130FM-15+0004LGHI V0203401N002612200019N0112651N1+00301-00801999999ADDGA1021+007509999GF104991999999999999999999MA1102201999999MW1001REMMET046LGHI 210000Z 34005KT 9999 SCT025 03/M08 Q1022;EQDQ01+000000PRSWM2
0141167060999992000012103004+38330+026130FM-15+0004LGHI V0209999C000012200019N0112651N1-00101-00601999999ADDGA1021+006009999GF102991999999999999999999MA1102101999999MW1001REMMET047LGHI 210300Z 00000KT 9999 FEW020 M01/M06 Q1021;EQDQ01+000000PRSWM2
0164167060999992000012104004+38330+026130FM-15+0004LGHI V0209999C000012200019N0090001N1-00201-00201999999ADDGA1021+006009999GA2021+018009999GF104991999999999999999999MA1102001999999MW1001REMMET054LGHI 210400Z 00000KT 9000 FEW020 SCT060 M02/M02 Q1020;EQDQ01+000000PRSWM2
0171167060999992000012105004+38330+026130FM-15+0004LGHI V0209999C000010060019N0090001N1-00101-00101999999ADDGA1021+002409999GA2071+006009999GF107991999999999999999999MA1102001999999MW1001REMMET061LGHI 210500Z 00000KT 9000 FEW008 BKN020 M01/M01 Q1020 FEW060;EQDQ01+000000PRSWM2
0190167060999992000012106004+38330+026130FM-15+0004LGHI V0202101N002110060019N0090001N1-00201-00201999999ADDGA1021+002409999GA2021+003009029GA3071+006009999GF107991999999999999999999MA1102001999999MW1001REMMET064LGHI 210600Z 21004KT 9000 SCT008 FEW010TCU BKN020 M02/M02 Q1020;EQDQ01+000000PRSWM2
0186167060999992000012108004+38330+026130FM-15+0004LGHI V0209999C000010060019N0112651N1+00101-00101999999ADDGA1021+002409999GA2071+006009999GA3071+018009999GF107991999999999999999999MA1102001999999MW1001REMMET060LGHI 210800Z 00000KT 9999 SCT008 BKN020 BKN060 01/M01 Q1020;EQDQ01+000000PRSWM2
0212167060999992000012109004+38330+026130FM-15+0004LGHI V0209999C000010060019N0080001N1+00401-00401999999ADDGA1021+002409999GA2021+003609029GA3071+006009999GA4081+018009999GF108991999999999999999999MA1101901999999MW1001REMMET070LGHI 210900Z 00000KT 8000 SCT008 FEW012TCU BKN020 OVC060 04/M04 Q1019;EQDQ01+000000PRSWM2
0212167060999992000012110004+38330+026130FM-15+0004LGHI V0209999C000010060019N0090001N1+00401-00401999999ADDGA1021+002409999GA2021+003609029GA3071+006009999GA4081+018009999GF108991999999999999999999MA1101801999999MW1001REMMET070LGHI 211000Z 00000KT 9000 SCT008 FEW012TCU BKN020 OVC060 04/M04 Q1018;EQDQ01+000000PRSWM2
0212167060999992000012111004+38330+026130FM-15+0004LGHI V0209999C000010060019N0090001N1+00401-00401999999ADDGA1021+002409999GA2021+003609029GA3071+006009999GA4081+018009999GF108991999999999999999999MA1101801999999MW1001REMMET070LGHI 211100Z 00000KT 9000 SCT008 FEW012TCU BKN020 OVC060 04/M04 Q1018;EQDQ01+000000PRSWM2
0188167060999992000012112004+38330+026130FM-15+0004LGHI V0209999C000010060019N0090001N1+00701+00201999999ADDGA1021+002409999GA2021+004509029GA3071+006009999GF107991999999999999999999MA1101591999999MW1001REMMET062LGHI 211200Z 00000KT 9000 FEW008 FEW015TCU BKN020 07/02 Q1016;EQDQ01+000000PRSWM2
0166167060999992000012113004+38330+026130FM-15+0004LGHI V0202401N004610075019N0090001N1+00801-00201999999ADDGA1021+003009029GA2071+007509999GF107991999999999999999999MA1101591999999MW1001REMMET056LGHI 211300Z 24009KT 9000 SCT010TCU BKN025 08/M02 Q1016;EQDQ01+000000PRSWM2
0166167060999992000012114004+38330+026130FM-15+0004LGHI V0202401N004112200019N0090001N1+00801-00201999999ADDGA1021+004509029GA2021+006009999GF104991999999999999999999MA1101491999999MW1001REMMET056LGHI 211400Z 24008KT 9000 FEW015TCU SCT020 08/M02 Q1015;EQDQ01+000000PRSWM2
0178167060999992000012115004+38330+026130FM-15+0004LGHI V0202201N00311220001CN0090001N1+00701+00001999999ADDGA1021+004509029GA2071+006009999GA3021+030009999MA1101391999999MW1001REMMET062LGHI 211500Z 22006KT 9000 FEW015TCU BKN020 SCT100 07/00 Q1014;EQDQ01+000042SCOTCVQ02+000000PRSWM2
0179167060999992000012116004+38330+026130FM-15+0004LGHI V0202601N00211220001CN0090001N1+00801-00201999999ADDGA1021+004509029GA2071+006009999GA3021+027009999MA1101491999999MW1001REMMET063LGHI 211600Z 26004KT 9000 FEW015TCU BKN020 SCT090 08/M02 Q1015;EQDQ01+000042SCOTCVQ02+000000PRSWM2
0189167060999992000012117004+38330+026130FM-15+0004LGHI V0202601N002612200019N0090001N1+00501+00001999999ADDGA1021+004509029GA2021+006009999GA3021+027009999GF104991999999999999999999MA1101291999999MW1001REMMET063LGHI 211700Z 26005KT 9000 FEW015TCU SCT020 SCT090 05/M00 Q1013;EQDQ01+000000PRSWM2
0173167060999992000012118004+38330+026130FM-15+0004LGHI V0202801N002612200019N0090001N1+00501-00101999999ADDGA1021+003009029GA2021+006009999GF102991999999999999999999MA1101291999999MW1001REMMET063LGHI 211800Z 28005KT 9000 FEW010TCU FEW020 05/M01 Q1013 FEW080;EQDQ01+000000PRSWM2
0173167060999992000012119004+38330+026130FM-15+0004LGHI V0202501N002612200019N0090001N1+00401-00401999999ADDGA1021+003009029GA2021+006009999GF104991999999999999999999MA1101291999999MW1001REMMET063LGHI 211900Z 25005KT 9000 FEW010TCU SCT020 04/M04 Q1013 FEW080;EQDQ01+000000PRSWM2
0172167060999992000012120004+38330+026130FM-15+0004LGHI V0202501N003112200019N0090001N1+00401-00401999999ADDGA1021+003009029GA2021+006009999GF104991999999999999999999MA1101191999999MW1001REMMET062LGHI 212000Z 25006KT 9000 FEW010TCU SCT020 04/M04 Q1012FEW080;EQDQ01+000000PRSWM2
0166167060999992000012121004+38330+026130FM-15+0004LGHI V0202701N002112200019N0090001N1+00601-00201999999ADDGA1021+003009029GA2021+006009999GF102991999999999999999999MA1101191999999MW1001REMMET056LGHI 212100Z 27004KT 9000 FEW010TCU FEW020 06/M02 Q1012;EQDQ01+000000PRSWM2
0166167060999992000012200004+38330+026130FM-15+0004LGHI V0202601N003112200019N0112651N1+00501+00001999999ADDGA1021+003009029GA2021+006009999GF102991999999999999999999MA1101081999999MW1001REMMET056LGHI 220000Z 26006KT 9999 FEW010TCU FEW020 05/M00 Q1011;EQDQ01+000000PRSWM2
0166167060999992000012203004+38330+026130FM-15+0004LGHI V0209999C000012200019N0112651N1+00501+00001999999ADDGA1021+003009029GA2021+006009999GF102991999999999999999999MA1101081999999MW1001REMMET056LGHI 220300Z 00000KT 9999 FEW010TCU FEW020 05/M00 Q1011;EQDQ01+000000PRSWM2
0188167060999992000012204004+38330+026130FM-15+0004LGHI V0202501N002610240019N0112651N1+00701+00201999999ADDGA1021+003009029GA2021+006009999GA3071+024009999GF107991999999999999999999MA1101081999999MW1001REMMET062LGHI 220400Z 25005KT 9999 FEW010TCU SCT020 BKN080 07/02 Q1011;EQDQ01+000000PRSWM2
0188167060999992000012205004+38330+026130FM-15+0004LGHI V0202301N002610240019N0090001N1+00701+00201999999ADDGA1021+003009029GA2021+006009999GA3081+024009999GF108991999999999999999999MA1101081999999MW1001REMMET062LGHI 220500Z 23005KT 9000 FEW010TCU SCT020 OVC080 07/02 Q1011;EQDQ01+000000PRSWM2
0188167060999992000012206004+38330+026130FM-15+0004LGHI V0202601N004110240019N0090001N1+01101+00401999999ADDGA1021+003009029GA2021+006009999GA3081+024009999GF108991999999999999999999MA1101081999999MW1001REMMET062LGHI 220600Z 26008KT 9000 FEW010TCU SCT020 OVC080 11/04 Q1011;EQDQ01+000000PRSWM2
0238167060999992000012207004+38330+026130FM-15+0004LGHI V0203601N00411006001CN0080001N1+01101+00401999999ADDGA1021+001509999GA2021+003009099GA3021+006009999GA4081+024009999GF108991999999999999999999MA1101291999999MW1801MW2951REMMET074LGHI 220700Z 36008KT 8000 -TSRA FEW005 FEW010CB SCT020 OVC080 11/04 Q1013;EQDQ01+000003PRSWM1Q02    003PRSWM1
0188167060999992000012208004+38330+026130FM-15+0004LGHI V0203601N007210240019N0090001N1+00701+00201999999ADDGA1021+003009029GA2021+006009999GA3071+024009999GF107991999999999999999999MA1101491999999MW1001REMMET062LGHI 220800Z 36014KT 9000 FEW010TCU SCT020 BKN080 07/02 Q1015;EQDQ01+000000PRSWM2
0162167060999992000012209004+38330+026130FM-15+0004LGHI V0203501N003612200019N0112651N1+00901+00401999999ADDGA1021+003009999GA2021+007509999GF104991999999999999999999MA1101491999999MW1001REMMET052LGHI 220900Z 35007KT 9999 FEW010 SCT025 09/04 Q1015;EQDQ01+000000PRSWM2
0165167060999992000012210004+38330+026130FM-15+0004LGHI V0203601N006712200019N0112651N1+00901+00401999999ADDGA1021+003009029GA2021+007509999GF104991999999999999999999MA1101491999999MW1001REMMET055LGHI 221000Z 36013KT 9999 FEW010TCU SCT025 09/04 Q1015;EQDQ01+000000PRSWM2
0166167060999992000012211004+38330+026130FM-15+0004LGHI V0200101N007212200019N0112651N1+00801-00201999999ADDGA1021+003009029GA2021+007509999GF104991999999999999999999MA1101591999999MW1001REMMET056LGHI 221100Z 01014KT 9999 FEW010TCU SCT025 08/M02 Q1016;EQDQ01+000000PRSWM2
0140167060999992000012212004+38330+026130FM-15+0004LGHI V0200201N007212200019N0112651N1+00701-00501999999ADDGA1021+006009999GF104991999999999999999999MA1101591999999MW1001REMMET046LGHI 221200Z 02014KT 9999 SCT020 07/M05 Q1016;EQDQ01+000000PRSWM2
0140167060999992000012213004+38330+026130FM-15+0004LGHI V0203301N005112200019N0112651N1+00701-00501999999ADDGA1021+006009999GF102991999999999999999999MA1101591999999MW1001REMMET046LGHI 221300Z 33010KT 9999 FEW020 07/M05 Q1016;EQDQ01+000000PRSWM2
