0192172030999992000010100004+38870+040500FM-12+117799999V0209999C000012200019N0200001N1+00221-00321999999ADDAA106000091GA1001+999999999GF100991001001999999001001MA1999999089101MD1610031+9999ME1315659REMSYN070AAXX  01004 17203 32970 00000 10022 21032 38910 48565 56003 333 10265;EQDQ01  00002PRCP06
0235172030999992000010106004+38870+040500FM-12+117799999V0209999C000012200019N0200001N1+00121-00391999999ADDAA106000091GA1001+999999999GF100991001001999999001001IA1099IA2999-00209KA1120N+00051MA1999999089081MD1310081+9999ME1315589REMSYN082AAXX  01064 17203 32970 00000 10012 21039 38908 48558 53008 333 20005 31102 55055;EQDQ01  00002PRCP06
0182172030999992000010112004+38870+040500FM-12+117799999V0209999C000012200019N0200001N1+01321+00111999999ADDAA106000091GF103991001001999999001011MA1999999088921MD1710181+9999ME1315519REMSYN076AAXX  01124 17203 32970 30000 10132 20011 38892 48551 57018 80001 333 10233;EQDQ01  00002PRCP06
0217172030999992000010118004+38870+040500FM-12+117799999V0209999C000012200019N0200001N1+00481-00111999999ADDAA106000091GA1011+060009019GF101991001001999999001011KA1120M+01341MA1999999089001MD1210081+9999ME1315519REMSYN082AAXX  01184 17203 32970 10000 10048 21011 38900 48551 52008 80001 333 10134 81070;EQDQ01  00002PRCP06
0192172030999992000010200004+38870+040500FM-12+117799999V0209999C000012200019N0200001N1+00101-00141999999ADDAA106000091GA1001+999999999GF100991001001999999001001MA1999999088991MD1810021+9999ME1315569REMSYN070AAXX  02004 17203 32970 00000 10010 21014 38899 48556 58002 333 10247;EQDQ01  00002PRCP06
0253172030999992000010206004+38870+040500FM-12+117799999V0209999C00001036001CN0200001N1+00001-00301999999ADDAA106000091GA1021+012009069GF107991021051012501071001IA1169IA2999-00509KA1120N-00081MA1999999089041MD1310061+9999ME1315559REMSYN100AAXX  02064 17203 32670 70000 10000 21030 38904 48555 53006 82570 333 21008 35105 55051 82640 87360;EQDQ01  00002PRCP06
0204172030999992000010212004+38870+040500FM-12+117799999V0209999C00001036001CN0200001N1+01041+00031999999ADDAA106000091GA1031+012009069GF106991031051012501071001MA1999999088841MD1710181+9999ME1315419REMSYN082AAXX  02124 17203 32670 60000 10104 20003 38884 48541 57018 83570 333 83640 86360;EQDQ01  00002PRCP06
0205172030999992000010218004+38870+040500FM-12+117799999V0209999C000012200019N0200001N1+00501+00021999999ADDAA106000091GA1001+999999999GF100991001001999999001001KA1999M+02521MA1999999088801MD1510001+9999ME1315329REMSYN070AAXX  02184 17203 32970 00000 10050 20002 38880 48532 55000 333 10252;EQDQ01  00002PRCP06
0204172030999992000010300004+38870+040500FM-12+117799999V0209999C00001036001CN0200001N1+00281-00091999999ADDAA106000091GA1031+012009089GF105991031011012501051001MA1999999088701MD1610081+9999ME1315299REMSYN082AAXX  03004 17203 32670 50000 10028 21009 38870 48529 56008 83150 333 83840 85360;EQDQ01  00002PRCP06
0253172030999992000010306004+38870+040500FM-12+117799999V0209999C00001036001CN0200001N1+00381+00071999999ADDAA106000091GA1041+012009069GF108991041051012501021999IA1099IA2999-00109KA1120N+00261MA1999999088501MD1610021+9999ME1315089REMSYN100AAXX  03064 17203 32670 80000 10038 20007 38850 48508 56002 8452/ 333 20026 31101 55023 84640 88460;EQDQ01  00002PRCP06
0232172030999992000010312004+38870+040500FM-12+117799999V0209999C000010111019N0150001N1+00561+00441999999ADDAA106002091AY121061AY221061GA1051+011109069GF108991051051012501021999MA1999999088331MD1710171+9999ME1314919REMSYN094AAXX  03124 17203 11665 80000 10056 20044 38833 48491 57017 60021 76622 8552/ 333 85637 88458;EQDQ01+000662PRSWM1
0238172030999992000010318004+38870+040500FM-12+117799999V0201601N003610108019N0080001N1+00521+00401999999ADDAA112006191AY161061AY221061GA1051+010809069GF108991051051012501021999KA1120M+00621MA1999999088151MD1710101+9999ME1314769MW1611REMSYN100AAXX  03184 17203 11658 81607 10052 20040 38815 48476 57010 60062 76162 8552/ 333 10062 85636 88457;
0219172030999992000010400004+38870+040500FM-12+117799999V0201301N001510108019N0080001N1+00301+00261999999ADDAA106010991AY161061AY261061GA1051+010809069GF108991051051012501021999MA1999999088081MD1810041+9999ME1314699MW1611REMSYN094AAXX  04004 17203 11658 81303 10030 20026 38808 48469 58004 60111 76166 8552/ 333 85636 88457;
0274172030999992000010406004+38870+040500FM-12+117799999V0201001N002110108019N0080001N1+00461+00341999999ADDAA112020191AY161061AY221061GA1051+010809069GF108991051051012501021999IA1119IA2999+00109KA1120N+00171MA1999999087881MD1710061+9999ME1314509MW1611REMSYN118AAXX  04064 17203 11658 81004 10046 20034 38788 48450 57006 60202 76162 8552/ 333 20017 32001 55000 70259 85636 88457;
0219172030999992000010412004+38870+040500FM-12+117799999V0203601N001510105019N0080001N1+00401+00361999999ADDAA106007191AY161061AY261061GA1051+010509069GF108991051051012501021999MA1999999087721MD1710101+9999ME1314349MW1611REMSYN094AAXX  04124 17203 11658 83603 10040 20036 38772 48434 57010 60071 76166 8552/ 333 85635 88457;
0238172030999992000010418004+38870+040500FM-12+117799999V0209999C000010105019N0100001N1+00201+00161999999ADDAA112016091AY161061AY261061GA1051+010509069GF108991051051012501021999KA1120M+00541MA1999999087721MD1410001+9999ME1314349MW1611REMSYN100AAXX  04184 17203 11660 80000 10020 20016 38772 48434 54000 60162 76166 8552/ 333 10054 85635 88457;
0219172030999992000010500004+38870+040500FM-12+117799999V0209999C000010105019N0080001N1+00201+00161999999ADDAA106006191AY161061AY261061GA1051+010509069GF108991051051012501021999MA1999999087621MD1610081+9999ME1314259MW1611REMSYN094AAXX  05004 17203 11658 80000 10020 20016 38762 48425 56008 60061 76166 8552/ 333 85635 88457;
0274172030999992000010506004+38870+040500FM-12+117799999V0209999C00001036001CN0200001N1+00151+00081999999ADDAA112008991AY161061AY221061GA1041+012009069GF107991041051012501021999IA1119IA2999+00009KA1120N+00101MA1999999087821MD1210181+9999ME1314429MW1011REMSYN118AAXX  05064 17203 11670 70000 10015 20008 38782 48442 52018 60092 70162 8452/ 333 20010 32000 55000 70244 84640 87460;
0204172030999992000010512004+38870+040500FM-12+117799999V0209999C00001036001CN0200001N1+00601+00181999999ADDAA106000091GA1031+012009089GF105991031011012501051001MA1999999087901MD1610101+9999ME1314519REMSYN082AAXX  05124 17203 32670 50000 10060 20018 38790 48451 56010 83150 333 83840 85360;EQDQ01  00002PRCP06
0223172030999992000010518004+38870+040500FM-12+117799999V0209999C00001036001CN0200001N1+00281-00091999999ADDAA106000091GA1031+012009089GF105991031011012501051001KA1120M+00621MA1999999088001MD1110101+9999ME1314589REMSYN088AAXX  05184 17203 32670 50000 10028 21009 38800 48458 51010 83150 333 10062 83840 85360;EQDQ01  00002PRCP06
0329172030999992000010606004+38870+040500FM-12+117799999V0209999C000010099019N0020001N1+00021-00031999999ADDAA112010991AJ100059199999999AL10600391AY171061AY271061GA1051+009909099GA2081+021009049GF108991051051008001021999IA1279IA2999-00109KA1120N-00021MA1999999087941MD1410001+9999ME1314539MW1711REMSYN130AAXX  06064 17203 11520 80000 10002 21003 38794 48453 54000 60112 77177 8552/ 333 21002 3/101 43005 55010 70106 85933 88457 93103;
0251172030999992000010612004+38870+040500FM-12+117799999V0209999C000010270019N0200001N1+00161+00091999999ADDAA106003091AL10600291AY171061AY211061GA1041+010809069GA2081+027009049GF108991041051012501021999MA1999999088041MD1810021+9999ME1314619MW1021REMSYN100AAXX  06124 17203 11670 80000 10016 20009 38804 48461 58002 60031 70271 8452/ 333 84636 88459 93102;
0204172030999992000010700004+38870+040500FM-12+117799999V0209999C00001036001CN0200001N1+00101+00031999999ADDAA106000091GA1041+012009069GF108991041051012501021999MA1999999088501MD1110081+9999ME1315039REMSYN082AAXX  07004 17203 32670 80000 10010 20003 38850 48503 51008 8452/ 333 84640 88460;EQDQ01  00002PRCP06
0282172030999992000010706004+38870+040500FM-12+117799999V0209999C00001036001CN0200001N1+00081+00031999999ADDAA106000091AJ100049199999999GA1041+012009069GF108991041051012501021999IA1279IA2999+00009KA1120N+00061MA1999999088721MD1210121+9999ME1315239REMSYN112AAXX  07064 17203 32670 80000 10008 20003 38872 48523 52012 8452/ 333 20006 3/000 43004 55000 70026 84640 88460;EQDQ01  00002PRCP06
0204172030999992000010712004+38870+040500FM-12+117799999V0203501N00151036001CN0200001N1+00401+00091999999ADDAA106000091GA1021+010509069GF108991021051012501021999MA1999999088831MD1610041+9999ME1315359REMSYN082AAXX  07124 17203 32670 83503 10040 20009 38883 48535 56004 8252/ 333 82635 88459;EQDQ01  00002PRCP06
0223172030999992000010718004+38870+040500FM-12+117799999V0209999C00001036001CN0200001N1+00181-00051999999ADDAA106000091GA1031+012009069GF108991031051012501021999KA1120M+00421MA1999999088981MD1210061+9999ME1315479REMSYN088AAXX  07184 17203 32670 80000 10018 21005 38898 48547 52006 8352/ 333 10042 83640 88460;EQDQ01  00002PRCP06
0204172030999992000010800004+38870+040500FM-12+117799999V0209999C00001036001CN0200001N1+00021-00171999999ADDAA106000091GA1031+012009069GF105991031051012501011001MA1999999089021MD1410001+9999ME1315529REMSYN082AAXX  08004 17203 32670 50000 10002 21017 38902 48552 54000 83510 333 83640 85460;EQDQ01  00002PRCP06
0192172030999992000010812004+38870+040500FM-12+117799999V0209999C000012200019N0200001N1+00601-00351999999ADDAA106000091GA1001+999999999GF100991001001999999001001MA1999999088921MD1710161+9999ME1315449REMSYN070AAXX  08124 17203 32970 00000 10060 21035 38892 48544 57016 333 10260;EQDQ01  00002PRCP06
0205172030999992000010818004+38870+040500FM-12+117799999V0202601N001512200019N0200001N1-00121-00351999999ADDAA106000091GA1001+999999999GF100991001001999999001001KA1999M+02921MA1999999088991MD1210081+9999ME1315459REMSYN070AAXX  08184 17203 32970 02603 11012 21035 38899 48545 52008 333 10292;EQDQ01  00002PRCP06
0192172030999992000010900004+38870+040500FM-12+117799999V0202801N001512200019N0200001N1-00381-00781999999ADDAA106000091GA1001+999999999GF100991001001999999001001MA1999999088921MD1610061+9999ME1315429REMSYN070AAXX  09004 17203 32970 02803 11038 21078 38892 48542 56006 333 10271;EQDQ01  00002PRCP06
0192172030999992000011000004+38870+040500FM-12+117799999V0209999C000012200019N0200001N1-00641-01121999999ADDAA106000091GA1001+999999999GF100991001001999999001001MA1999999088881MD1410001+9999ME1315329REMSYN070AAXX  10004 17203 32970 00000 11064 21112 38888 48532 54000 333 10289;EQDQ01  00002PRCP06
0162172030999992000011003004+38870+040500FM-12+117799999V0209999C000012200019N0200001N1-00641-01121999999ADDGA1001+999999999GF100991001001999999001001MA1999999088881MD1410001+9999ME1315329REMSYN070AAXX  10034 17203 42970 00000 11064 21112 38888 48532 54000 333 10289;
0235172030999992000011006004+38870+040500FM-12+117799999V0209999C000012200019N0200001N1-00521-01081999999ADDAA106000091GA1001+999999999GF100991001001999999001001IA1149IA2999-00809KA1120N-00721MA1999999088921MD1310041+9999ME1315359REMSYN082AAXX  10064 17203 32970 00000 11052 21108 38892 48535 53004 333 21072 34108 55061;EQDQ01  00002PRCP06
0162172030999992000011009004+38870+040500FM-12+117799999V0209999C000012200019N0200001N1+00301-00921999999ADDGA1001+999999999GF100991001001999999001001MA1999999088921MD1810021+9999ME1315419REMSYN070AAXX  10094 17203 42970 00000 10030 21092 38892 48541 58002 333 10280;
0204172030999992000011012004+38870+040500FM-12+117799999V0209999C00001036001CN0200001N1+00301-00621999999ADDAA106000091GA1031+012009089GF105991031011012501051001MA1999999088781MD1710121+9999ME1315249REMSYN082AAXX  10124 17203 32670 50000 10030 21062 38878 48524 57012 83150 333 83840 85360;EQDQ01  00002PRCP06
0152172030999992000011015004+38870+040500FM-12+117799999V0209999C000012200019N0200001N1+00001-00881999999ADDGF103991031001999999031001MA1999999088771MD1610011+9999ME1315229REMSYN076AAXX  10154 17203 42970 30000 10000 21088 38877 48522 56001 83030 333 10276;
0205172030999992000011018004+38870+040500FM-12+117799999V0209999C000012200019N0200001N1-00301-00851999999ADDAA106000091GA1001+999999999GF100991001001999999001001KA1999M+02831MA1999999088781MD1110011+9999ME1315229REMSYN070AAXX  10184 17203 32970 00000 11030 21085 38878 48522 51001 333 10283;EQDQ01  00002PRCP06
0162172030999992000011021004+38870+040500FM-12+117799999V0202501N002112200019N0200001N1-00401-00871999999ADDGA1001+999999999GF100991001001999999001001MA1999999088781MD1410001+9999ME1315279REMSYN070AAXX  10214 17203 42970 02504 11040 21087 38878 48527 54000 333 10261;
0192172030999992000011100004+38870+040500FM-12+117799999V0209999C000012200019N0200001N1-00571-01031999999ADDAA106000091GA1001+999999999GF100991001001999999001001MA1999999088771MD1610011+9999ME1315259REMSYN070AAXX  11004 17203 32970 00000 11057 21103 38877 48525 56001 333 10265;EQDQ01  00002PRCP06
0162172030999992000011103004+38870+040500FM-12+117799999V0202501N001512200019N0200001N1-00531-01091999999ADDGA1001+999999999GF100991001001999999001001MA1999999088761MD1610011+9999ME1315229REMSYN070AAXX  11034 17203 42970 02503 11053 21109 38876 48522 56001 333 10275;
0247172030999992000011106004+38870+040500FM-12+117799999V0209999C000012200019N0200001N1-00461-01071999999ADDAA106000091GA1021+030009079GF102991021001999999031001IA1149IA2999-00709KA1120N-00601MA1999999088841MD1210081+9999ME1315289REMSYN094AAXX  11064 17203 32970 20000 11046 21107 38884 48528 52008 82030 333 21060 34107 55043 82360;EQDQ01  00002PRCP06
0174172030999992000011109004+38870+040500FM-12+117799999V0201901N00151036001CN0200001N1+00281-00761999999ADDGA1031+012009089GF105991031011012501051001MA1999999088821MD1810021+9999ME1315309REMSYN082AAXX  11094 17203 42670 51903 10028 21076 38882 48530 58002 83150 333 83840 85360;
0182172030999992000011112004+38870+040500FM-12+117799999V0202501N001512200019N0200001N1+00501-00781999999ADDAA106000091GF102991021011012501001001MA1999999088721MD1710101+9999ME1315219REMSYN076AAXX  11124 17203 32670 22503 10050 21078 38872 48521 57010 82100 333 10254;EQDQ01  00002PRCP06
0152172030999992000011115004+38870+040500FM-12+117799999V0209999C000012200019N0200001N1+00101-00731999999ADDGF103991031011012501001001MA1999999088761MD1310041+9999ME1315239REMSYN076AAXX  11154 17203 42670 30000 10010 21073 38876 48523 53004 83100 333 10270;
0205172030999992000011118004+38870+040500FM-12+117799999V0202701N001512200019N0200001N1-00171-00931999999ADDAA106000091GA1001+999999999GF100991001001999999001001KA1999M+02871MA1999999088861MD1210101+9999ME1315309REMSYN070AAXX  11184 17203 32970 02703 11017 21093 38886 48530 52010 333 10287;EQDQ01  00002PRCP06
0162172030999992000011121004+38870+040500FM-12+117799999V0202701N001512200019N0200001N1-00301-01001999999ADDGA1001+999999999GF100991001001999999001001MA1999999088901MD1210041+9999ME1315389REMSYN070AAXX  11214 17203 42970 02703 11030 21100 38890 48538 52004 333 10275;
0192172030999992000011200004+38870+040500FM-12+117799999V0202501N002112200019N0200001N1-00321-00951999999ADDAA106000091GA1001+999999999GF100991001001999999001001MA1999999088901MD1410001+9999ME1315409REMSYN070AAXX  12004 17203 32970 02504 11032 21095 38890 48540 54000 333 10269;EQDQ01  00002PRCP06
0162172030999992000011203004+38870+040500FM-12+117799999V0202701N002112200019N0200001N1-00401-00951999999ADDGA1001+999999999GF100991001001999999001001MA1999999088881MD1810021+9999ME1315359REMSYN070AAXX  12034 17203 42970 02704 11040 21095 38888 48535 58002 333 10284;
0235172030999992000011206004+38870+040500FM-12+117799999V0202501N002612200019N0200001N1-00341-00901999999ADDAA106000091GA1001+999999999GF100991001001999999001001IA1149IA2999-00609KA1120N-00451MA1999999088901MD1310021+9999ME1315359REMSYN082AAXX  12064 17203 32970 02505 11034 21090 38890 48535 53002 333 21045 34106 55047;EQDQ01  00002PRCP06
0162172030999992000011209004+38870+040500FM-12+117799999V0203601N002112200019N0200001N1+00301-00461999999ADDGA1001+999999999GF100991001001999999001001MA1999999088901MD1010001+9999ME1315439REMSYN070AAXX  12094 17203 42970 03604 10030 21046 38890 48543 50000 333 10275;
0204172030999992000011212004+38870+040500FM-12+117799999V0203601N00261036001CN0200001N1+00361-00671999999ADDAA106000091GA1031+012009089GF105991031011012501051001MA1999999088801MD1710101+9999ME1315309REMSYN082AAXX  12124 17203 32670 53605 10036 21067 38880 48530 57010 83150 333 83840 85360;EQDQ01  00002PRCP06
0174172030999992000011215004+38870+040500FM-12+117799999V0209999C00001036001CN0200001N1+00101-00601999999ADDGA1031+012009089GF106991031011012501051001MA1999999088881MD1310081+9999ME1315359REMSYN082AAXX  12154 17203 42670 60000 10010 21060 38888 48535 53008 83150 333 83840 86360;
0223172030999992000011218004+38870+040500FM-12+117799999V0209999C00001036001CN0200001N1-00101-00861999999ADDAA106000091GA1031+012009089GF106991031011012501051001KA1120M+00401MA1999999088941MD1210061+9999ME1315399REMSYN088AAXX  12184 17203 32670 60000 11010 21086 38894 48539 52006 83150 333 10040 83840 86360;EQDQ01  00002PRCP06
0174172030999992000011221004+38870+040500FM-12+117799999V0209999C00001036001CN0200001N1-00181-00751999999ADDGA1041+012009069GF107991041051012501021001MA1999999088941MD1410001+9999ME1315419REMSYN082AAXX  12214 17203 42670 70000 11018 21075 38894 48541 54000 84520 333 84640 87460;
0204172030999992000011300004+38870+040500FM-12+117799999V0202501N00151036001CN0200001N1-00201-00781999999ADDAA106000091GA1041+012009069GF108991041051012501021999MA1999999088941MD1410001+9999ME1315439REMSYN082AAXX  13004 17203 32670 82503 11020 21078 38894 48543 54000 8452/ 333 84640 88460;EQDQ01  00002PRCP06
0174172030999992000011303004+38870+040500FM-12+117799999V0209999C00001036001CN0200001N1-00141-00701999999ADDGA1041+012009069GF108991041051012501021999MA1999999088981MD1110041+9999ME1315459REMSYN082AAXX  13034 17203 42670 80000 11014 21070 38898 48545 51004 8452/ 333 84640 88460;
0152172030999992000011309004+38870+040500FM-12+117799999V0202801N001512200019N0200001N1+00241-00681999999ADDGF102991001001999999001011MA1999999089101MD1010041+9999ME1315579REMSYN076AAXX  13094 17203 42970 22803 10024 21068 38910 48557 50004 80001 333 10298;
0152172030999992000011315004+38870+040500FM-12+117799999V0203301N001512200019N0200001N1-00101-00781999999ADDGF102991021001999999031001MA1999999088981MD1310031+9999ME1315449REMSYN076AAXX  13154 17203 42970 23303 11010 21078 38898 48544 53003 82030 333 10284;
0191172030999992000011318004+38870+040500FM-12+117799999V0209999C000012200019N0200001N1-00301-01091999999ADDAA106000091GA1001+999999999GF100991001001999999001001MA1999999089041MD1210061+9999ME1315469REMSYN069AAXX  13184 17203 32970 00000 11030 21109 38904 48546 52006 33 10308;EQDQ01  00002PRCP06
0166172030999992000011321004+38870+040500FM-12+117799999V0209999C000012200019N0200001N1-00481-00941999999ADDGA1001+999999999GF100991001001999999001001MA1999999089181MD1110141+9999ME1315629REMSYN074    AAXX  13214 17203 42970 00000 11048 21094 38918 48562 51014 333 10313;
0196172030999992000011400004+38870+040500FM-12+117799999V0202501N001512200019N0200001N1-00521-01001999999ADDAA199000091GA1001+999999999GF100991001001999999001001MA1999999089181MD1410001+9999ME1315619REMSYN074    AAXX  14004 17203 32970 02503 11052 21100 38918 48561 54000 333 10313;EQDQ01  00002PRCP99
0166172030999992000011403004+38870+040500FM-12+117799999V0209999C000012200019N0200001N1-00641-01161999999ADDGA1001+999999999GF100991001001999999001001MA1999999089181MD1410001+9999ME1315589REMSYN074    AAXX  14034 17203 42970 00000 11064 21116 38918 48558 54000 333 10330;
0178172030999992000011409004+38870+040500FM-12+117799999V0202601N00151036001CN0200001N1+00001-01041999999ADDGA1031+012009089GF107991031011012501061001MA1999999089221MD1010021+9999ME1315649REMSYN086    AAXX  14094 17203 42670 72603 10000 21104 38922 48564 50002 83160 333 83840 87360;
0186172030999992000011412004+38870+040500FM-12+117799999V0203301N002119999999N0200001N1+00181-00841999999ADDAA199000091GF106991001001999999001091MA1999999089061MD1710161+9999ME1315509REMSYN080    AAXX  14124 17203 32970 63304 10018 21084 38906 48550 57016 80009 333 10304;EQDQ01  00002PRCP99
0156172030999992000011415004+38870+040500FM-12+117799999V0203401N002119999999N0200001N1-00101-00861999999ADDGF107991001001999999001091MA1999999089101MD1110041+9999ME1315519REMSYN080    AAXX  14154 17203 42970 73404 11010 21086 38910 48551 51004 80009 333 10320;
0221172030999992000011418004+38870+040500FM-12+117799999V0209999C000010600019N0200001N1-00121-00971999999ADDAA199000091GA1051+060009019GF105991001001999999001011KA1120M+00241MA1999999089101MD1410001+9999ME1315519REMSYN086    AAXX  14184 17203 32970 50000 11012 21097 38910 48551 54000 80001 333 10024 85070;EQDQ01  00002PRCP99
0166172030999992000011421004+38870+040500FM-12+117799999V0209999C000012200019N0200001N1-00321-00951999999ADDGA1001+999999999GF100991001001999999001001MA1999999089101MD1010001+9999ME1315549REMSYN074    AAXX  14214 17203 42970 00000 11032 21095 38910 48554 50000 333 10309;
0196172030999992000011500004+38870+040500FM-12+117799999V0209999C000012200019N0200001N1-00401-01071999999ADDAA199000091GA1001+999999999GF100991001001999999001001MA1999999089101MD1410001+9999ME1315559REMSYN074    AAXX  15004 17203 32970 00000 11040 21107 38910 48555 54000 333 10303;EQDQ01  00002PRCP99
0166172030999992000011503004+38870+040500FM-12+117799999V0209999C000012200019N0200001N1-00501-01131999999ADDGA1001+999999999GF100991001001999999001001MA1999999089021MD1610081+9999ME1315459REMSYN074    AAXX  15034 17203 42970 00000 11050 21113 38902 48545 56008 333 10305;
0251172030999992000011506004+38870+040500FM-12+117799999V0209999C000012200019N0200001N1-00481-01191999999ADDAA199000091GA1031+030009079GF103991031001999999031001IA1149IA2999+00709KA1120N-00541MA1999999089001MD1810021+9999ME1315439REMSYN098    AAXX  15064 17203 32970 30000 11048 21119 38900 48543 58002 83030 333 21054 34007 55025 83360;EQDQ01  00002PRCP99
0156172030999992000011509004+38870+040500FM-12+117799999V0209999C000012200019N0200001N1+00101-01001999999ADDGF102991021001999999031001MA1999999088861MD1710141+9999ME1315339REMSYN080    AAXX  15094 17203 42970 20000 10010 21100 38886 48533 57014 82030 333 10276;
0186172030999992000011512004+38870+040500FM-12+117799999V0203401N003612200019N0200001N1+00241-01071999999ADDAA199000091GF103991031001999999031001MA1999999088661MD1710201+9999ME1315169REMSYN080    AAXX  15124 17203 32970 33407 10024 21107 38866 48516 57020 83030 333 10252;EQDQ01  00002PRCP99
0156172030999992000011515004+38870+040500FM-12+117799999V0203401N003112200019N0200001N1-00101-01301999999ADDGF102991021011012501001001MA1999999088631MD1710031+9999ME1315109REMSYN080    AAXX  15154 17203 42670 23406 11010 21130 38863 48510 57003 82100 333 10260;
0204172030999992000011518004+38870+040500FM-12+117799999V0202601N001512200019N0200001N1-00341-01241999999ADDAA199000091GF103991999999999999999999KA1120M+00261MA1999999088681MD1210051+9999ME1315139REMSYN085    AAXX  15184 17203 32970 32603 11034 21124 38868 48513 52005 8330 333 10026 83360;EQDQ01  00002PRCP99
0156172030999992000011521004+38870+040500FM-12+117799999V0202501N002619999999N0200001N1-00501-01131999999ADDGF106991061001999999031001MA1999999088701MD1110021+9999ME1315189REMSYN080    AAXX  15214 17203 42970 62505 11050 21113 38870 48518 51002 86030 333 10263;
0196172030999992000011600004+38870+040500FM-12+117799999V0202501N001512200019N0200001N1-00621-01051999999ADDAA199000091GA1001+999999999GF100991001001999999001001MA1999999088651MD1610051+9999ME1315139REMSYN074    AAXX  16004 17203 32970 02503 11062 21105 38865 48513 56005 333 10257;EQDQ01  00002PRCP99
0166172030999992000011603004+38870+040500FM-12+117799999V0209999C000012200019N0200001N1-00701-01121999999ADDGA1001+999999999GF100991001001999999001001MA1999999088621MD1810031+9999ME1315089REMSYN074    AAXX  16034 17203 42970 00000 11070 21112 38862 48508 58003 333 10265;
0239172030999992000011606004+38870+040500FM-12+117799999V0202601N001012200019N0200001N1-00601-01031999999ADDAA199000091GA1001+999999999GF100991001001999999001001IA1149IA2999-01009KA1120N-00801MA1999999088701MD1310081+9999ME1315149REMSYN086    AAXX  16064 17203 32970 02602 11060 21103 38870 48514 53008 333 21080 34110 55045;EQDQ01  00002PRCP99
0166172030999992000011609004+38870+040500FM-12+117799999V0209999C000012200019N0200001N1+00141-00821999999ADDGA1001+999999999GF100991001001999999001001MA1999999088701MD1410001+9999ME1315189REMSYN074    AAXX  16094 17203 42970 00000 10014 21082 38870 48518 54000 333 10263;
0186172030999992000011612004+38870+040500FM-12+117799999V0203401N002112200019N0200001N1+00321-00841999999ADDAA199000091GF102991021011012501001001MA1999999088541MD1710161+9999ME1315049REMSYN080    AAXX  16124 17203 32670 23404 10032 21084 38854 48504 57016 82100 333 10239;EQDQ01  00002PRCP99
0166172030999992000011615004+38870+040500FM-12+117799999V0209999C000012200019N0200001N1-00121-01051999999ADDGA1001+999999999GF100991001001999999001001MA1999999088621MD1110081+9999ME1315089REMSYN074    AAXX  16154 17203 42970 00000 11012 21105 38862 48508 51008 333 10265;
0209172030999992000011618004+38870+040500FM-12+117799999V0209999C000012200019N0200001N1-00441-01051999999ADDAA199000091GA1001+999999999GF100991001001999999001001KA1999M+02801MA1999999088701MD1210081+9999ME1315149REMSYN074    AAXX  16184 17203 32970 00000 11044 21105 38870 48514 52008 333 10280;EQDQ01  00002PRCP99
0166172030999992000011621004+38870+040500FM-12+117799999V0209999C000012200019N0200001N1-00601-01111999999ADDGA1001+999999999GF100991001001999999001001MA1999999088731MD1110031+9999ME1315209REMSYN074    AAXX  16214 17203 42970 00000 11060 21111 38873 48520 51003 333 10266;
0196172030999992000011700004+38870+040500FM-12+117799999V0209999C000012200019N0200001N1-00681-01171999999ADDAA199000091GA1001+999999999GF100991001001999999001001MA1999999088701MD1610031+9999ME1315189REMSYN074    AAXX  17004 17203 32970 00000 11068 21117 38870 48518 56003 333 10263;EQDQ01  00002PRCP99
0166172030999992000011703004+38870+040500FM-12+117799999V0209999C000012200019N0200001N1-00901-01291999999ADDGA1001+999999999GF100991001001999999001001MA1999999088661MD1810041+9999ME1315109REMSYN074    AAXX  17034 17203 42970 00000 11090 21129 38866 48510 58004 333 10275;
0221172030999992000011718004+38870+040500FM-12+117799999V0209999C000012200019N0200001N1-00521-01161999999ADDAA199000091GA1021+060009019GF102991001001999999001011KA1120M+00201MA1999999088201MD1410001+9999ME1314679REMSYN086    AAXX  17184 17203 32970 20000 11052 21116 38820 48467 54000 80001 333 10020 82070;EQDQ01  00002PRCP99
0178172030999992000011721004+38870+040500FM-12+117799999V0209999C00001036001CN0200001N1-00581-01001999999ADDGA1031+012009069GF106991031051012501051001MA1999999088321MD1210121+9999ME1314829REMSYN086    AAXX  17214 17203 42670 60000 11058 21100 38832 48482 52012 83550 333 83640 86360;
0208172030999992000011800004+38870+040500FM-12+117799999V0209999C00001036001CN0200001N1-00561-00971999999ADDAA199000091GA1041+012009069GF106991041051012501051001MA1999999088241MD1710081+9999ME1314759REMSYN086    AAXX  18004 17203 32670 60000 11056 21097 38824 48475 57008 84550 333 84640 86360;EQDQ01  00002PRCP99
0178172030999992000011803004+38870+040500FM-12+117799999V0209999C00001036001CN0200001N1-00601-00991999999ADDGA1041+012009069GF106991041051012501051001MA1999999088101MD1710141+9999ME1314629REMSYN086    AAXX  18034 17203 42670 60000 11060 21099 38810 48462 57014 84550 333 84640 86360;
0257172030999992000011806004+38870+040500FM-12+117799999V0209999C00001036001CN0200001N1-00521-00851999999ADDAA199000091GA1041+012009069GF108991041051012501011999IA1149IA2999-00909KA1120N-00621MA1999999088021MD1610081+9999ME1314539REMSYN104    AAXX  18064 17203 32670 80000 11052 21085 38802 48453 56008 8451/ 333 21062 34109 55064 84640 88460;EQDQ01  00002PRCP99
0178172030999992000011809004+38870+040500FM-12+117799999V0201601N00311036001CN0200001N1-00231-00821999999ADDGA1041+012009069GF108991041051012501021999MA1999999088011MD1810011+9999ME1314539REMSYN086    AAXX  18094 17203 42670 81606 11023 21082 38801 48453 58001 8452/ 333 84640 88460;
0255172030999992000011812004+38870+040500FM-12+117799999V0202701N003110099019N0020001N1-00461-00461999999ADDAA106002091AL10600491AY121061AY221061GA1051+009909069GA2081+021009049GF108991051051008001021999MA1999999087841MD1710171+9999ME1314369MW1711REMSYN104    AAXX  18124 17203 11520 82706 11046 21046 38784 48436 57017 60021 77122 8552/ 333 85633 88457 93104;
0206172030999992000011815004+38870+040500FM-12+117799999V0201901N001510099019N0020001N1-00501-00561999999ADDAY171031AY271031GA1051+009909069GF108991051051008001021999MA1999999087641MD1710201+9999ME1314189MW1711REMSYN092    AAXX  18154 17203 41520 81903 11050 21056 38764 48418 57020 77177 8552/ 333 85633 88457;
0274172030999992000011818004+38870+040500FM-12+117799999V0203401N002110099019N0020001N1-00701+99999999999ADDAA112014091AL10602291AY171061AY271061GA1051+009909069GA2081+021009049GF108991051051008001021999KA1120M-00221MA1999999087581MD1710061+9999ME1314149MW1711REMSYN110    AAXX  18184 17203 11520 83404 11070 21045 38758 48414 57006 60142 77177 8552/ 333 11022 85633 88457 93122;
0206172030999992000011821004+38870+040500FM-12+117799999V0203401N002110099019N0030001N1-00381-00431999999ADDAY171031AY271031GA1051+009909069GF108991051051008001021999MA1999999087501MD1610051+9999ME1314109MW1711REMSYN092    AAXX  18214 17203 41530 83404 11038 21043 38750 48410 56005 77177 8552/ 333 85633 88457;
0290172030999992000011900004+38870+040500FM-12+117799999V0203401N003110090019N0005001N1-00301-00341999999ADDAA106016091AL10602691AY171061AY271061GA1051+009009069GA2081+021009049GF108991051051008001021999MA1999999087001MD1410001+9999ME1313629MW1731REMSYN104    AAXX  19004 17203 11505 83406 11030 21034 38700 48362 57050 60161 77377 8552/ 333 85630 88457 93126;EQDQ01+000072APCTENQ02+000502APC3  
0206172030999992000011903004+38870+040500FM-12+117799999V0203401N002610090019N0005001N1-00201-00231999999ADDAY171031AY271031GA1051+009009069GF108991051051008001021999MA1999999086851MD1810151+9999ME1313589MW1731REMSYN092    AAXX  19034 17203 41505 83405 11020 21023 38685 48358 58015 77377 8552/ 333 85630 88457;
0333172030999992000011906004+38870+040500FM-12+117799999V0203401N003110090019N0005001N1-00241-00271999999ADDAA112033091AJ100609199999999AL10601291AY171061AY271061GA1051+009009069GA2081+021009049GF108991051051008001021999IA1279IA2999-00509KA1120N-00421MA1999999086851MD1410001+9999ME1313489MW1711REMSYN134    AAXX  19064 17203 11505 83406 11024 21027 38685 48348 54000 60332 77177 8552/ 333 21042 3/105 43060 55000 70465 85630 88457 93112;
0206172030999992000011909004+38870+040500FM-12+117799999V0209999C000010099019N0020001N1-00101-00161999999ADDAY171031AY271031GA1051+009909069GF108991051051008001021999MA1999999087081MD1310231+9999ME1313709MW1731REMSYN092    AAXX  19094 17203 41520 80000 11010 21016 38708 48370 53023 77377 8552/ 333 85633 88457;
0166172030999992000011915004+38870+040500FM-12+117799999V0209999C000012200019N0200001N1-00301-00511999999ADDGA1001+999999999GF100991001001999999001001MA1999999087701MD1210271+9999ME1314279REMSYN074    AAXX  19154 17203 42970 00000 11030 21051 38770 48427 52027 333 10147;
0204172030999992000011918004+38870+040500FM-12+117799999V0201901N001512200019N0200001N1-00401-00761999999ADDAA112007191GA1021+030009079GF102991021001999999031001KA1120M+00331MA1999999088001MD1210301+9999ME1314529REMSYN088AAXX  19184 17203 12970 21903 11040 21076 38800 48452 52030 60072 82030 333 10033 82360;
0223172030999992000012000004+38870+040500FM-12+117799999V0203401N003610099019N0020001N1-00121-00241999999ADDAA106002091AL10600391GA1051+009909069GA2081+021009049GF108991051051008001021999MA1999999087741MD1610281+9999ME1314349REMSYN094AAXX  20004 17203 11520 83407 11012 21024 38774 48434 56028 60021 8552/ 333 85633 88457 93103;
0202172030999992000012003004+38870+040500FM-12+117799999V0203401N005710090019N0006001N1-00121-00191999999ADDAY171031AY271031GA1051+009009069GF108991051051008001021999MA1999999087401MD1710341+9999ME1314009MW1731REMSYN088AAXX  20034 17203 41506 83411 11012 21019 38740 48400 57034 77377 8552/ 333 85630 88457;
0202172030999992000012009004+38870+040500FM-12+117799999V0203401N005110090019N0006001N1-00101-00161999999ADDAY171031AY271031GA1051+009009069GF108991051051008001021999MA1999999087321MD1710061+9999ME1313939MW1731REMSYN088AAXX  20094 17203 41506 83410 11010 21016 38732 48393 57006 77377 8552/ 333 85630 88457;
0251172030999992000012012004+38870+040500FM-12+117799999V0203401N003110099019N0040001N1+00101+00031999999ADDAA106011991AL10601491AY171061AY271061GA1051+009909069GA2081+021009049GF108991051051008001021999MA1999999087001MD1710331+9999ME1313639MW1711REMSYN100AAXX  20124 17203 11540 83406 10010 20003 38700 48363 57033 60121 77177 8552/ 333 85633 88457 93114;
0202172030999992000012015004+38870+040500FM-12+117799999V0203601N001510090019N0010001N1+00061+00021999999ADDAY171031AY271031GA1051+009009069GF108991051051008001021999MA1999999086841MD1710161+9999ME1313509MW1731REMSYN088AAXX  20154 17203 41510 83603 10006 20002 38684 48350 57016 77377 8552/ 333 85630 88457;
0270172030999992000012018004+38870+040500FM-12+117799999V0203401N002110210019N0080001N1-00101-00271999999ADDAA112023191AL10600691AY171061AY271061GA1041+009909069GA2081+021009049GF108991041051008001021999KA1120M+00131MA1999999086821MD1610021+9999ME1313479MW1711REMSYN106AAXX  20184 17203 11558 83404 11010 21027 38682 48347 56002 60232 77177 8452/ 333 10013 84633 88457 93106;
0202172030999992000012021004+38870+040500FM-12+117799999V0201201N00261036001CN0200001N1-00321-00801999999ADDAY171031AY221031GA1041+012009069GF107991041051012501011001MA1999999087001MD1110181+9999ME1313639MW1011REMSYN088AAXX  20214 17203 41670 71205 11032 21080 38700 48363 51018 70172 84510 333 84640 87460;
0251172030999992000012100004+38870+040500FM-12+117799999V0201201N004110120019N0200001N1-00481-00941999999ADDAA106000891AL10600191AY171061AY221061GA1051+012009069GA2081+030009049GF108991051051012501021999MA1999999087141MD1310141+9999ME1313779MW1021REMSYN100AAXX  21004 17203 11670 81208 11048 21094 38714 48377 53014 69971 70272 8552/ 333 85640 88460 93101;
0174172030999992000012103004+38870+040500FM-12+117799999V0201201N00261036001CN0200001N1-00541-01141999999ADDGA1041+012009069GF108991041051012501021999MA1999999087301MD1210161+9999ME1313909REMSYN082AAXX  21034 17203 42670 81205 11054 21114 38730 48390 52016 8452/ 333 84640 88460;
0263172030999992000012106004+38870+040500FM-12+117799999V0201301N002112200019N0200001N1-00631-01371999999ADDAA112000891AJ100779199999999GA1031+030009079GF103991031001999999031001IA1279IA2999-00809KA1120N-00661MA1999999087641MD1210341+9999ME1314209REMSYN112AAXX  21064 17203 12970 31304 11063 21137 38764 48420 52034 69972 83030 333 21066 3/108 43077 55000 70241 83360;
0162172030999992000012109004+38870+040500FM-12+117799999V0200101N001512200019N0200001N1-00201-01381999999ADDGA1001+999999999GF100991001001999999001001MA1999999087931MD1210241+9999ME1314479REMSYN070AAXX  21094 17203 42970 00103 11020 21138 38793 48447 52024 333 10179;
0192172030999992000012112004+38870+040500FM-12+117799999V0200101N002112200019N0200001N1-00181-01341999999ADDAA199000091GA1001+999999999GF100991001001999999001001MA1999999088001MD1210071+9999ME1314539REMSYN070AAXX  21124 17203 32970 00104 11018 21134 38800 48453 52007 333 10187;EQDQ01  00002PRCP99
0153172030999992000012115004+38870+040500FM-12+117799999V0203601N001512200019N0200001N1-00261-01191999999ADDGA1001+999999999GF100991001001999999001001MA1999999088171MD1210171+9999REMSYN070AAXX  21154 17203 42970 03603 11026 21119 38817 468// 52017 333 10213;
0205172030999992000012118004+38870+040500FM-12+117799999V0209999C000012200019N0200001N1-00501-01221999999ADDAA199000091GA1001+999999999GF100991001001999999001001KA1999M+02381MA1999999088291MD1310021+9999ME1314779REMSYN070AAXX  21184 17203 32970 00000 11050 21122 38829 48477 53002 333 10238;EQDQ01  00002PRCP99
0162172030999992000012121004+38870+040500FM-12+117799999V0209999C000012200019N0200001N1-01481-02071999999ADDGA1001+999999999GF100991001001999999001001MA1999999088481MD1210191+9999ME1314909REMSYN070AAXX  21214 17203 42970 00000 11148 21207 38848 48490 52019 333 10272;
0152172030999992000012203004+38870+040500FM-12+117799999V0209999C000012200019N0200001N1-01541-02011999999ADDGF103991031001999999031001MA1999999088501MD1610021+9999ME1314919REMSYN076AAXX  22034 17203 42970 30000 11154 21201 38850 48491 56002 83030 333 10280;
0329172030999992000012206004+38870+040500FM-12+117799999V0203601N001510108019N0080001N1-01541-01831999999ADDAA112000191AJ100689199999999AL10600291AY111061AY211061GA1051+010809069GA2081+024009059GF108991051051012501021999IA1279IA2999-01909KA1120N-01731MA1999999088561MD1310061+9999ME1314949MW1711REMSYN130AAXX  22064 17203 11658 83603 11154 21183 38856 48494 53006 69922 77111 8552/ 333 21173 3/119 43068 55064 70002 85636 88558 93102;
0202172030999992000012209004+38870+040500FM-12+117799999V0209999C00001036001CN0070001N1-01081-01291999999ADDAY171031AY271031GA1041+010209069GF108991041051012501021999MA1999999088621MD1110061+9999ME1314979MW1701REMSYN088AAXX  22094 17203 41657 80000 11108 21129 38862 48497 51006 77077 8452/ 333 84634 88458;
0251172030999992000012212004+38870+040500FM-12+117799999V0209999C000010090019N0030001N1-00681-00901999999ADDAA106003091AL10600691AY171061AY271061GA1051+009009069GA2081+021009049GF108991051051008001021999MA1999999088501MD1610121+9999ME1314899MW1711REMSYN100AAXX  22124 17203 11530 80000 11068 21090 38850 48489 56012 60031 77177 8552/ 333 85630 88457 93106;
0202172030999992000012215004+38870+040500FM-12+117799999V0209999C000010090019N0040001N1-00861-01001999999ADDAY171031AY271031GA1051+009009069GF108991051051008001021999MA1999999088501MD1410001+9999ME1314889MW1711REMSYN088AAXX  22154 17203 41540 80000 11086 21100 38850 48488 54000 77177 8552/ 333 85630 88457;
0270172030999992000012218004+38870+040500FM-12+117799999V0203201N001510081019N0020001N1-00621-00701999999ADDAA112007191AL10600791AY171061AY271061GA1051+008109069GA2081+021009049GF108991051051008001021999KA1120M-00621MA1999999088391MD1710111+9999ME1314799MW1711REMSYN106AAXX  22184 17203 11520 83203 11062 21070 38839 48479 57011 60072 77177 8552/ 333 11062 85627 88457 93107;
0202172030999992000012221004+38870+040500FM-12+117799999V0200701N001510081019N0030001N1-00361-00551999999ADDAY171031AY271031GA1051+008109069GF108991051051008001021999MA1999999088361MD1710031+9999ME1314819MW1711REMSYN088AAXX  22214 17203 41530 80703 11036 21055 38836 48481 57003 77177 8552/ 333 85627 88457;
0251172030999992000012300004+38870+040500FM-12+117799999V0201701N001510081019N0020001N1-00441-00591999999ADDAA106003091AL10600791AY171061AY271061GA1051+008109069GA2081+021009049GF108991051051008001021999MA1999999088481MD1310021+9999ME1314939MW1711REMSYN100AAXX  23004 17203 11520 81703 11044 21059 38848 48493 53002 60031 77177 8552/ 333 85627 88457 93107;
0202172030999992000012303004+38870+040500FM-12+117799999V0209999C000010081019N0020001N1-00441-00591999999ADDAY171031AY271031GA1051+008109069GF108991051051008001021999MA1999999088441MD1610041+9999ME1314899MW1711REMSYN088AAXX  23034 17203 41520 80000 11044 21059 38844 48489 56004 77177 8552/ 333 85627 88457;
0329172030999992000012306004+38870+040500FM-12+117799999V0209999C000010081019N0020001N1-00421-00591999999ADDAA112005191AJ100809199999999AL10600591AY171061AY271061GA1051+008109069GA2081+021009049GF108991051051008001021999IA1279IA2999-01009KA1120N-00621MA1999999088531MD1310091+9999ME1314989MW1711REMSYN130AAXX  23064 17203 11520 80000 11042 21059 38853 48498 53009 60052 77177 8552/ 333 21062 3/110 43080 55000 70113 85627 88457 93105;
0202172030999992000012309004+38870+040500FM-12+117799999V0200401N001510108019N0080001N1+00101-00301999999ADDAY121031AY221031GA1051+010809069GF108991051051012501021999MA1999999088661MD1210131+9999ME1315159MW1711REMSYN088AAXX  23094 17203 41658 80403 10010 21030 38866 48515 52013 77122 8552/ 333 85636 88458;
0251172030999992000012312004+38870+040500FM-12+117799999V0200601N004610099019N0080001N1-00021-00341999999ADDAA106000191AL10600091AY121061AY221061GA1051+009909069GA2081+021009049GF108991051051008001021999MA1999999088621MD1610041+9999ME1315109MW1711REMSYN100AAXX  23124 17203 11558 80609 11002 21034 38862 48510 56004 69921 77122 8552/ 333 85633 88457 93100;
0202172030999992000012315004+38870+040500FM-12+117799999V0209999C00001036001CN0200001N1-00101-00391999999ADDAY171031AY221031GA1031+012009069GF107991031051012501051001MA1999999088821MD1210201+9999ME1315289MW1031REMSYN088AAXX  23154 17203 41670 70000 11010 21039 38882 48528 52020 70372 83550 333 83640 87360;
0248172030999992000012318004+38870+040500FM-12+117799999V0209999C000012200019N0200001N1-00371-00571999999ADDAA112000191AL10600091AY171061AY211061GA1031+030009039GF103991031001999999031001KA1120M+00161MA1999999089001MD1210181+9999ME1315429MW1011REMSYN100AAXX  23184 17203 11970 30000 11037 21057 38900 48542 52018 69922 70171 83030 333 10016 83360 93100;
0174172030999992000012321004+38870+040500FM-12+117799999V0209999C00001036001CN0200001N1-00501-00661999999ADDGA1031+012009069GF105991031051012501051001MA1999999089161MD1210161+9999ME1315599REMSYN082AAXX  23214 17203 42670 50000 11050 21066 38916 48559 52016 83550 333 83640 85360;
0185172030999992000012400004+38870+040500FM-12+117799999V0209999C00001036001CN0200001N1-00371-00501999999ADDAA199000021GA1041+012009069GF107991041051012501011001MA1999999089241MD1210081+9999ME1315669REMSYN082AAXX  24004 17203 32670 70000 11037 21050 38924 48566 52008 84510 333 84640 87460;
0174172030999992000012403004+38870+040500FM-12+117799999V0209999C00001036001CN0200001N1-00381-00491999999ADDGA1041+012009069GF107991041051012501011001MA1999999089281MD1110041+9999ME1315699REMSYN082AAXX  24034 17203 42670 70000 11038 21049 38928 48569 51004 84510 333 84640 87460;
0263172030999992000012406004+38870+040500FM-12+117799999V0209999C00001036001CN0200001N1-00421-00531999999ADDAA124000391AJ100759199999999GA1041+012009069GF107991041051012501011001IA1279IA2999-00809KA1120N-00521MA1999999089441MD1210161+9999ME1315819REMSYN112AAXX  24064 17203 32670 70000 11042 21053 38944 48581 52016 84510 333 21052 3/108 43075 55001 70002 84640 87460;
0202172030999992000012409004+38870+040500FM-12+117799999V0209999C000010111019N0080001N1-00101-00391999999ADDAY121031AY221031GA1051+011109069GF108991051051012501021999MA1999999089481MD1310041+9999ME1315869MW1701REMSYN088AAXX  24094 17203 41658 80000 11010 21039 38948 48586 53004 77022 8552/ 333 85637 88458;
0251172030999992000012412004+38870+040500FM-12+117799999V0209999C000010111019N0080001N1-00031-00221999999ADDAA106000891AL10600291AY121061AY221061GA1051+011109069GA2081+021009049GF108991051051012501021999MA1999999089321MD1710161+9999ME1315739MW1701REMSYN100AAXX  24124 17203 11658 80000 11003 21022 38932 48573 57016 69981 77022 8552/ 333 85637 88457 93102;
0202172030999992000012415004+38870+040500FM-12+117799999V0209999C000010111019N0080001N1-00101-00161999999ADDAY171031AY271031GA1051+011109069GF108991051051012501021999MA1999999089271MD1710051+9999ME1315689MW1711REMSYN088AAXX  24154 17203 41658 80000 11010 21016 38927 48568 57005 77177 8552/ 333 85637 88457;
0270172030999992000012418004+38870+040500FM-12+117799999V0209999C000010099019N0040001N1-00101-00161999999ADDAA112003091AL10600391AY171061AY271061GA1051+009909069GA2081+021009049GF108991051051008001021999KA1120M+00001MA1999999089201MD1810071+9999ME1315639MW1711REMSYN106AAXX  24184 17203 11540 80000 11010 21016 38920 48563 58007 60032 77177 8552/ 333 10000 85633 88457 93103;
0202172030999992000012421004+38870+040500FM-12+117799999V0209999C000010099019N0040001N1-00101-00141999999ADDAY171031AY271031GA1051+009909069GF108991051051008001021999MA1999999089081MD1710121+9999ME1315539MW1711REMSYN088AAXX  24214 17203 41540 80000 11010 21014 38908 48553 57012 77177 8552/ 333 85633 88457;
0251172030999992000012500004+38870+040500FM-12+117799999V0209999C000010099019N0040001N1+00001-00051999999ADDAA106008991AL10600991AY171061AY271061GA1051+009909069GA2081+021009049GF108991051051008001021999MA1999999088941MD1710141+9999ME1315439MW1711REMSYN100AAXX  25004 17203 11540 80000 10000 21005 38894 48543 57014 60091 77177 8552/ 333 85633 88457 93109;
0202172030999992000012503004+38870+040500FM-12+117799999V0209999C000010099019N0040001N1+00081+00031999999ADDAY171031AY271031GA1051+009909069GF108991051051008001021999MA1999999088841MD1710101+9999ME1315339MW1711REMSYN088AAXX  25034 17203 41540 80000 10008 20003 38884 48533 57010 77177 8552/ 333 85633 88457;
0329172030999992000012506004+38870+040500FM-12+117799999V0200601N002610111019N0100001N1+00271+00121999999ADDAA112015091AJ100869199999999AL10600791AY171061AY261061GA1051+011109069GA2081+024009049GF108991051051012501021999IA1279IA2999-00209KA1120N-00141MA1999999088781MD1710061+9999ME1315299MW1681REMSYN130AAXX  25064 17203 11660 80605 10027 20012 38878 48529 57006 60152 76876 8552/ 333 21014 3/102 43086 55000 70181 85637 88458 93107;
0202172030999992000012509004+38870+040500FM-12+117799999V0200601N002110105019N0080001N1+00281+00151999999ADDAY171031AY271031GA1051+010509069GF108991051051012501021999MA1999999088721MD1810061+9999ME1315239MW1681REMSYN088AAXX  25094 17203 41658 80604 10028 20015 38872 48523 58006 76877 8552/ 333 85635 88457;
0251172030999992000012512004+38870+040500FM-12+117799999V0200401N002110099019N0080001N1+00341+00171999999ADDAA106005191AL10600091AY171061AY271061GA1051+009909069GA2081+021009049GF108991051051008001021999MA1999999088481MD1710241+9999ME1315039MW1681REMSYN100AAXX  25124 17203 11558 80404 10034 20017 38848 48503 57024 60051 76877 8552/ 333 85633 88457 93100;
0202172030999992000012515004+38870+040500FM-12+117799999V0200401N00151036001CN0100001N1+00281+00151999999ADDAY171031AY271031GA1041+011109069GF108991041051012501021999MA1999999088441MD1510041+9999ME1314999MW1611REMSYN088AAXX  25154 17203 41660 80403 10028 20015 38844 48499 55004 76177 8452/ 333 84637 88458;
0238172030999992000012518004+38870+040500FM-12+117799999V0200701N00311036001CN0100001N1+00301+00131999999ADDAA112008991AY171061AY221061GA1041+010809069GF108991041051012501021999KA1120M+00361MA1999999088331MD1810111+9999ME1314909MW1611REMSYN100AAXX  25184 17203 11660 80706 10030 20013 38833 48490 58011 60092 76172 8452/ 333 10036 84636 88457;
0202172030999992000012521004+38870+040500FM-12+117799999V0200701N00511036001CN0100001N1+00301+00131999999ADDAY161031AY261031GA1041+010809069GF108991041051012501021999MA1999999088141MD1710191+9999ME1314739MW1611REMSYN088AAXX  25214 17203 41660 80710 10030 20013 38814 48473 57019 76166 8452/ 333 84636 88457;
0219172030999992000012600004+38870+040500FM-12+117799999V0200701N00361036001CN0080001N1+00301+00131999999ADDAA106006191AY161061AY261061GA1041+010509069GF108991041051012501021999MA1999999087901MD1710241+9999ME1314519MW1611REMSYN094AAXX  26004 17203 11658 80707 10030 20013 38790 48451 57024 60061 76166 8452/ 333 84635 88457;
0202172030999992000012603004+38870+040500FM-12+117799999V0200701N00151036001CN0200001N1+00201+00021999999ADDAY161031AY261031GA1041+012009069GF108991041051000251021999MA1999999087851MD1610051+9999ME1314449MW1211REMSYN088AAXX  26034 17203 41070 80703 10020 20002 38785 48444 56005 72166 8452/ 333 84640 88460;
0297172030999992000012606004+38870+040500FM-12+117799999V0209999C00001036001CN0200001N1+00121-00021999999ADDAA112010991AJ100689199999999AY161061AY221061GA1041+012009069GF108991041051012501021999IA1279IA2999+00009KA1120N+00101MA1999999087901MD1310051+9999ME1314509MW1021REMSYN124AAXX  26064 17203 11670 80000 10012 21002 38790 48450 53005 60112 70262 8452/ 333 20010 3/000 43068 55000 70193 84640 88460;
0185172030999992000012609004+38870+040500FM-12+117799999V0209999C00001036001CN0200001N1+00231-00071999999ADDAA199000021GA1031+012009069GF107991031051012501071001MA1999999087901MD1610101+9999ME1314509REMSYN082AAXX  26094 17203 32670 70000 10023 21007 38790 48450 56010 83570 333 83640 87360;
0202172030999992000012615004+38870+040500FM-12+117799999V0209999C000010120019N0200001N1+00101-00141999999ADDAY171031AY221031GA1051+012009069GF108991051051012501021999MA1999999087901MD1410001+9999ME1314499MW1221REMSYN088AAXX  26154 17203 41670 80000 10010 21014 38790 48449 54000 72272 8552/ 333 85640 88460;
0270172030999992000012618004+38870+040500FM-12+117799999V0209999C000010105019N0060001N1-00021-00121999999ADDAA112000391AL10600191AY171061AY221061GA1051+010509069GA2081+021009049GF108991051051012501021999KA1120M+00251MA1999999087901MD1410001+9999ME1314489MW1711REMSYN106AAXX  26184 17203 11656 80000 11002 21012 38790 48448 54000 69932 77172 8552/ 333 10025 85635 88457 93101;
0202172030999992000012621004+38870+040500FM-12+117799999V0209999C000010090019N0030001N1-00081-00141999999ADDAY171031AY271031GA1051+009009069GF108991051051008001021999MA1999999087881MD1810021+9999ME1314469MW1711REMSYN088AAXX  26214 17203 41530 80000 11008 21014 38788 48446 58002 77177 8552/ 333 85630 88457;
0251172030999992000012700004+38870+040500FM-12+117799999V0209999C000010300019N0200001N1-00121-00241999999ADDAA106003091AL10600591AY171061AY271061GA1041+012009069GA2071+030009049GF107991041051012501011001MA1999999087781MD1710101+9999ME1314379MW1221REMSYN100AAXX  27004 17203 11670 70000 11012 21024 38778 48437 57010 60031 72277 84510 333 84640 87460 93105;
0202172030999992000012703004+38870+040500FM-12+117799999V0209999C000010090019N0006001N1-00201-00281999999ADDAY121031AY221031GA1051+009009069GF108991051051008001021999MA1999999087801MD1310021+9999ME1314389MW1731REMSYN088AAXX  27034 17203 41506 80000 11020 21028 38780 48438 53002 77322 8552/ 333 85630 88457;
0329172030999992000012706004+38870+040500FM-12+117799999V0209999C000010300019N0200001N1-00261-00521999999ADDAA112005191AJ100659199999999AL10600491AY171061AY221061GA1041+012009089GA2061+030009039GF106991041021012501051001IA1279IA2999-00409KA1120N-00301MA1999999087901MD1210101+9999ME1314469MW1021REMSYN130AAXX  27064 17203 11670 60000 11026 21052 38790 48446 52010 60052 70272 84250 333 21030 3/104 43065 55004 70052 84840 86360 93104;
0202172030999992000012709004+38870+040500FM-12+117799999V0209999C000010105019N0100001N1+00021-00501999999ADDAY121031AY221031GA1051+010509069GF108991051051012501021999MA1999999088021MD1210121+9999ME1314589MW1701REMSYN088AAXX  27094 17203 41660 80000 10002 21050 38802 48458 52012 77022 8552/ 333 85635 88458;
0251172030999992000012712004+38870+040500FM-12+117799999V0209999C000010099019N0060001N1-00031-00381999999ADDAA106000891AL10600091AY121061AY221061GA1051+009909069GA2081+021009049GF108991051051008001021999MA1999999087881MD1610141+9999ME1314459MW1711REMSYN100AAXX  27124 17203 11556 80000 11003 21038 38788 48445 56014 69981 77122 8552/ 333 85633 88457 93100;
0270172030999992000012718004+38870+040500FM-12+117799999V0201601N002110300019N0200001N1-00301-01001999999ADDAA112001091AL10600191AY171061AY221061GA1041+012009069GA2081+030009049GF108991041051012501021999KA1120M+00061MA1999999088201MD1210181+9999ME1314719MW1021REMSYN106AAXX  27184 17203 11670 81604 11030 21100 38820 48471 52018 60012 70272 8452/ 333 10006 84640 88460 93101;
0174172030999992000012721004+38870+040500FM-12+117799999V0201501N00211036001CN0200001N1-00361-00971999999ADDGA1041+012009069GF108991041051012501021999MA1999999088201MD1410001+9999ME1314739REMSYN082AAXX  27214 17203 42670 81504 11036 21097 38820 48473 54000 8452/ 333 84640 88460;
0185172030999992000012800004+38870+040500FM-12+117799999V0201601N00261036001CN0200001N1-00361-00931999999ADDAA199000021GA1031+012009069GF108991031051012501021999MA1999999088201MD1410001+9999ME1314729REMSYN082AAXX  28004 17203 32670 81605 11036 21093 38820 48472 54000 8352/ 333 83640 88460;
0174172030999992000012803004+38870+040500FM-12+117799999V0201601N00261036001CN0200001N1-00421-01011999999ADDGA1031+012009069GF108991031031000251051999MA1999999088201MD1410001+9999ME1314729REMSYN082AAXX  28034 17203 42070 81605 11042 21101 38820 48472 54000 8335/ 333 83640 88460;
0257172030999992000012806004+38870+040500FM-12+117799999V0201601N002612200019N0200001N1-00401-01151999999ADDAA124001391AJ100609199999999GA1021+030009079GF102991021001999999031001IA1279IA2999-00809KA1120N-00521MA1999999088281MD1310081+9999ME1314789REMSYN106AAXX  28064 17203 32970 21605 11040 21115 38828 48478 53008 82030 333 21052 3/108 43060 55005 70012 82360;
0152172030999992000012809004+38870+040500FM-12+117799999V0201601N001512200019N0200001N1+00041-01241999999ADDGF101991001001999999001011MA1999999088401MD1110121+9999ME1314919REMSYN076AAXX  28094 17203 42970 11603 10004 21124 38840 48491 51012 80001 333 10228;
0143172030999992000012812004+38870+040500FM-12+117799999V0201601N002119999999N0200001N1+00041+99999999999ADDAA199000091GF107991999999999999999999REMSYN075AAXX  28124 17203 32970 71604 10004 2101 38835 48487 56005 80008 333 10222;EQDQ01  00002PRCP99
0162172030999992000012815004+38870+040500FM-12+117799999V0201701N001512200019N0200001N1-00361-01271999999ADDGA1001+999999999GF100991001001999999001001MA1999999088481MD1210131+9999ME1314969REMSYN070AAXX  28154 17203 42970 01703 11036 21127 38848 48496 52013 333 10249;
0205172030999992000012818004+38870+040500FM-12+117799999V0201701N001512200019N0200001N1-00581-01251999999ADDAA199000091GA1001+999999999GF100991001001999999001001KA1999M+02741MA1999999088651MD1210171+9999ME1315099REMSYN070AAXX  28184 17203 32970 01703 11058 21125 38865 48509 52017 333 10274;EQDQ01  00002PRCP99
0162172030999992000012821004+38870+040500FM-12+117799999V0201601N002112200019N0200001N1-00701-01431999999ADDGA1001+999999999GF100991001001999999001001MA1999999088681MD1110031+9999ME1315149REMSYN070AAXX  28214 17203 42970 01604 11070 21143 38868 48514 51003 333 10266;
0192172030999992000012900004+38870+040500FM-12+117799999V0201801N001512200019N0200001N1-00821-01571999999ADDAA199000091GA1001+999999999GF100991001001999999001001MA1999999088681MD1410001+9999ME1315149REMSYN070AAXX  29004 17203 32970 01803 11082 21157 38868 48514 54000 333 10274;EQDQ01  00002PRCP99
0162172030999992000012903004+38870+040500FM-12+117799999V0209999C000012200019N0200001N1-00881-01661999999ADDGA1001+999999999GF100991001001999999001001MA1999999088701MD1310021+9999ME1315129REMSYN070AAXX  29034 17203 42970 00000 11088 21166 38870 48512 53002 333 10286;
0258172030999992000012906004+38870+040500FM-12+117799999V0201601N002112200019N0200001N1-00801-01541999999ADDAA199000091AJ100609199999999GA1001+999999999GF100991001001999999001001IA1279IA2999-01309KA1120N-01031MA1999999088861MD1210161+9999ME1315279REMSYN088AAXX  29064 17203 32970 01604 11080 21154 38886 48527 52016 333 21103 3/113 43060 55031;EQDQ01  00002PRCP99
0162172030999992000012909004+38870+040500FM-12+117799999V0201601N001512200019N0200001N1-00141-01181999999ADDGA1001+999999999GF100991001001999999001001MA1999999088941MD1010081+9999ME1315369REMSYN070AAXX  29094 17203 42970 01603 11014 21118 38894 48536 50008 333 10302;
0192172030999992000012912004+38870+040500FM-12+117799999V0209999C000012200019N0200001N1-00171-01141999999ADDAA199000091GA1001+999999999GF100991001001999999001001MA1999999088921MD1610021+9999ME1315349REMSYN070AAXX  29124 17203 32970 00000 11017 21114 38892 48534 56002 333 10305;EQDQ01  00002PRCP99
0162172030999992000012915004+38870+040500FM-12+117799999V0209999C000012200019N0200001N1-00501-01131999999ADDGA1001+999999999GF100991001001999999001001MA1999999089121MD1210201+9999ME1315489REMSYN070AAXX  29154 17203 42970 00000 11050 21113 38912 48548 52020 333 10340;
0221172030999992000012918004+38870+040500FM-12+117799999V0209999C000012200019N0200001N1-00981-01441999999ADDAA199000091GA1001+999999999GF100991001001999999001001KA1999M+99999MA1999999089491MD1210371+9999ME1315789REMSYN070AAXX  29184 17203 32970 00000 11098 21144 38949 48578 52037 333 10378;EQDQ01  00002PRCP99Q02 +03782ATMX  
0162172030999992000012921004+38870+040500FM-12+117799999V0209999C000012200019N0200001N1-01021-01501999999ADDGA1001+999999999GF100991001001999999001001MA1999999089581MD1310091+9999ME1315919REMSYN070AAXX  29214 17203 42970 00000 11102 21150 38958 48591 53009 333 10388;
0192172030999992000013000004+38870+040500FM-12+117799999V0209999C000012200019N0200001N1-01161-01481999999ADDAA199000091GA1001+999999999GF100991001001999999001001MA1999999089701MD1210121+9999ME1315969REMSYN070AAXX  30004 17203 32970 00000 11116 21148 38970 48596 52012 333 10419;EQDQ01  00002PRCP99
0162172030999992000013003004+38870+040500FM-12+117799999V0209999C000012200019N0200001N1-01321-01791999999ADDGA1001+999999999GF100991001001999999001001MA1999999089781MD1210081+9999ME1316169REMSYN070AAXX  30034 17203 42970 00000 11132 21179 38978 48616 52008 333 10429;
0318172030999992000013006004+38870+040500FM-12+117799999V0209999C000010240019N0200001N1-01141-01551999999ADDAA199000091AJ100559199999999GA1071+024009079GF107991071999022501031001IA1279IA2999-01809KA1120N-01351MA1999999089921MD1410001+9999ME1316129REMSYN100AAXX  30064 17203 32870 70000 11114 21155 38992 48612 52101 87030 333 21135 3/118 43055 55071 87358;EQDQ01+000022APCTENQ02+001012APC3  Q03  00002PRCP99Q04    003SCOLCG
0174172030999992000013009004+38870+040500FM-12+117799999V0209999C00001036001CN0200001N1-00501-01141999999ADDGA1031+012009089GF105991031011012501051001MA1999999090001MD1110081+9999ME1316249REMSYN082AAXX  30094 17203 42670 50000 11050 21114 39000 48624 51008 83150 333 83840 85360;
0182172030999992000013012004+38870+040500FM-12+117799999V0209999C000012200019N0200001N1-00281-00981999999ADDAA199000091GF103991031011012501001001MA1999999089921MD1710081+9999ME1316189REMSYN076AAXX  30124 17203 32670 30000 11028 21098 38992 48618 57008 83100 333 10433;EQDQ01  00002PRCP99
0174172030999992000013015004+38870+040500FM-12+117799999V0209999C00001036001CN0200001N1-00541-01031999999ADDGA1031+012009089GF106991031011012501051001MA1999999089861MD1710061+9999ME1316099REMSYN082AAXX  30154 17203 42670 60000 11054 21103 38986 48609 57006 83150 333 83840 86360;
0223172030999992000013018004+38870+040500FM-12+117799999V0209999C00001036001CN0200001N1-00781-01181999999ADDAA199000091GA1031+012009069GF106991031051012501051001KA1120M-00261MA1999999089921MD1210061+9999ME1316159REMSYN088AAXX  30184 17203 32670 60000 11078 21118 38992 48615 52006 83550 333 11026 83640 86360;EQDQ01  00002PRCP99
0152172030999992000013021004+38870+040500FM-12+117799999V0209999C000012200019N0200001N1-00901-01251999999ADDGF102991021001999999031001MA1999999089941MD1110021+9999ME1316209REMSYN076AAXX  30214 17203 42970 20000 11090 21125 38994 48620 51002 82030 333 10435;
0204172030999992000013100004+38870+040500FM-12+117799999V0209999C00001036001CN0200001N1-00861-01041999999ADDAA199000091GA1041+012009069GF107991041051012501011001MA1999999089901MD1610041+9999ME1316209REMSYN082AAXX  31004 17203 32670 70000 11086 21104 38990 48620 56004 84510 333 84640 87460;EQDQ01  00002PRCP99
0276172030999992000013106004+38870+040500FM-12+117799999V0209999C00001036001CN0200001N1-00861-01041999999ADDAA199000091AJ100529199999999GA1021+012009089GF105991021011012501051001IA1279IA2999-01509KA1120N-01061MA1999999089861MD1310061+9999ME1316119REMSYN106AAXX  31064 17203 32670 50000 11086 21104 38986 48611 53006 82150 333 21106 3/115 43052 55056 82840 85360;EQDQ01  00002PRCP99
0174172030999992000013109004+38870+040500FM-12+117799999V0209999C00001036001CN0200001N1-00301-00891999999ADDGA1031+012009089GF106991031011012501051001MA1999999089861MD1010001+9999ME1316229REMSYN082AAXX  31094 17203 42670 60000 11030 21089 38986 48622 50000 83150 333 83840 86360;
0204172030999992000013112004+38870+040500FM-12+117799999V0209999C00001036001CN0200001N1-00041-00731999999ADDAA199000091GA1031+012009089GF106991031011012501051001MA1999999089661MD1710201+9999ME1315999REMSYN082AAXX  31124 17203 32670 60000 11004 21073 38966 48599 57020 83150 333 83840 86360;EQDQ01  00002PRCP99
0174172030999992000013115004+38870+040500FM-12+117799999V0209999C00001036001CN0200001N1-00301-00891999999ADDGA1031+012009069GF107991031051012501011001MA1999999089501MD1710161+9999ME1315909REMSYN082AAXX  31154 17203 42670 70000 11030 21089 38950 48590 57016 83510 333 83640 87460;
0223172030999992000013118004+38870+040500FM-12+117799999V0209999C00001036001CN0200001N1-00461-00771999999ADDAA199000091GA1031+012009069GF107991031051012501011001KA1120M+00001MA1999999089501MD1410001+9999ME1315829REMSYN088AAXX  31184 17203 32670 70000 11046 21077 38950 48582 54000 83510 333 10000 83640 87460;EQDQ01  00002PRCP99
0202172030999992000013121004+38870+040500FM-12+117799999V0209999C000010108019N0080001N1-00501-00621999999ADDAY121031AY221031GA1051+010809069GF108991051051012501021999MA1999999089321MD1710181+9999ME1315709MW1711REMSYN088AAXX  31214 17203 41658 80000 11050 21062 38932 48570 57018 77122 8552/ 333 85636 88457;
0251172030999992000020100004+38870+040500FM-12+117799999V0209999C000010108019N0060001N1-00561-00661999999ADDAA106000591AL10600291AY121061AY221061GA1051+010809069GA2081+021009049GF108991051051012501021999MA1999999089241MD1810081+9999ME1315659MW1711REMSYN100AAXX  01004 17203 11656 80000 11056 21066 38924 48565 58008 69961 77122 8552/ 333 85636 88457 93102;
0202172030999992000020103004+38870+040500FM-12+117799999V0209999C000010108019N0060001N1-00561-00661999999ADDAY171031AY271031GA1051+010809069GF108991051051012501021999MA1999999089141MD1710101+9999ME1315549MW1711REMSYN088AAXX  01034 17203 41656 80000 11056 21066 38914 48554 57010 77177 8552/ 333 85636 88457;
0329172030999992000020106004+38870+040500FM-12+117799999V0209999C000010108019N0060001N1-00501-00591999999ADDAA112002091AJ100529199999999AL10600291AY171061AY271061GA1051+010809069GA2081+021009049GF108991051051012501021999IA1279IA2999-00709KA1120N-00601MA1999999089081MD1610061+9999ME1315499MW1711REMSYN130AAXX  01064 17203 11656 80000 11050 21059 38908 48549 56006 60022 77177 8552/ 333 21060 3/107 43052 55030 70018 85636 88457 93102;
0202172030999992000020109004+38870+040500FM-12+117799999V0209999C00001036001CN0200001N1-00241-00501999999ADDAY171031AY271031GA1041+012009069GF107991041051012501011001MA1999999089081MD1010001+9999ME1315499MW1221REMSYN088AAXX  01094 17203 41670 70000 11024 21050 38908 48549 50000 72277 84510 333 84640 87460;
0251172030999992000020112004+38870+040500FM-12+117799999V0209999C000010300019N0200001N1+00041-00421999999ADDAA106000591AL10600091AY171061AY221061GA1041+012009069GA2071+030009049GF107991041051012501011001MA1999999088901MD1710181+9999ME1315359MW1031REMSYN100AAXX  01124 17203 11670 70000 10004 21042 38890 48535 57018 69961 70372 84510 333 84640 87460 93100;
0174172030999992000020115004+38870+040500FM-12+117799999V0209999C00001036001CN0200001N1-00301-00571999999ADDGA1041+012009069GF107991041051012501071001MA1999999088921MD1310021+9999ME1315349REMSYN082AAXX  01154 17203 42670 70000 11030 21057 38892 48534 53002 84570 333 84640 87460;
0211172030999992000020118004+38870+040500FM-12+117799999V0209999C000012200019N0200001N1-00571-00801999999ADDAA112000591GA1001+999999999GF100991001001999999001001KA1999M+99999MA1999999089001MD1110081+9999ME1315409REMSYN076AAXX  01184 17203 12970 00000 11057 21080 38900 48540 51008 69962 333 10315;EQDQ01 +03152ATMX  
0162172030999992000020121004+38870+040500FM-12+117799999V0209999C000012200019N0200001N1-00801-01011999999ADDGA1001+999999999GF100991001001999999001001MA1999999089021MD1310021+9999ME1315429REMSYN070AAXX  01214 17203 42970 00000 11080 21101 38902 48542 53002 333 10317;
0192172030999992000020200004+38870+040500FM-12+117799999V0209999C000012200019N0200001N1-00901-01051999999ADDAA199000091GA1001+999999999GF100991001001999999001001MA1999999089011MD1010021+9999ME1315429REMSYN070AAXX  02004 17203 32970 00000 11090 21105 38901 48542 50002 333 10309;EQDQ01  00002PRCP99
0162172030999992000020203004+38870+040500FM-12+117799999V0209999C000012200019N0200001N1-01101-01271999999ADDGA1001+999999999GF100991001001999999001001MA1999999088941MD1810061+9999ME1315329REMSYN070AAXX  02034 17203 42970 00000 11110 21127 38894 48532 58006 333 10319;
0257172030999992000020206004+38870+040500FM-12+117799999V0209999C000012200019N0200001N1-01021-01181999999ADDAA124000591AJ100539199999999GA1031+030009079GF103991031001999999031001IA1279IA2999-01509KA1120N-01201MA1999999089001MD1310061+9999ME1315379REMSYN106AAXX  02064 17203 32970 30000 11102 21118 38900 48537 53006 83030 333 21120 3/115 43053 55002 70006 83360;
0162172030999992000020209004+38870+040500FM-12+117799999V0209999C000012200019N0200001N1-00401-00731999999ADDGA1001+999999999GF100991001001999999001001MA1999999089101MD1210101+9999ME1315489REMSYN070AAXX  02094 17203 42970 00000 11040 21073 38910 48548 52010 333 10332;
0192172030999992000020212004+38870+040500FM-12+117799999V0203601N002112200019N0200001N1+00361-00861999999ADDAA199000091GA1001+999999999GF100991001001999999001001MA1999999088981MD1610121+9999ME1315429REMSYN070AAXX  02124 17203 32970 03604 10036 21086 38898 48542 56012 333 10301;EQDQ01  00002PRCP99
0123172030999992000020215004+38870+040500FM-12+117799999V0201601N001512200019N0200001N1-00201-01061999999ADDGA1001+999999999GF100991001001999999001001REMSYN069AAXX  02154 17203 42970 01603 11020 21106 3898 48537 54000 333 10318;
0221172030999992000020218004+38870+040500FM-12+117799999V0201601N001512200019N0200001N1-00501-01221999999ADDAA199000091GA1001+999999999GF100991001001999999001001KA1999M+99999MA1999999089161MD1210181+9999ME1315519REMSYN070AAXX  02184 17203 32970 01603 11050 21122 38916 48551 52018 333 10351;EQDQ01  00002PRCP99Q02 +03512ATMX  
0162172030999992000020221004+38870+040500FM-12+117799999V0201601N002112200019N0200001N1-00701-01391999999ADDGA1001+999999999GF100991001001999999001001MA1999999089261MD1210101+9999ME1315639REMSYN070AAXX  02214 17203 42970 01604 11070 21139 38926 48563 52010 333 10351;
0192172030999992000020300004+38870+040500FM-12+117799999V0209999C000012200019N0200001N1-00961-01461999999ADDAA199000091GA1001+999999999GF100991001001999999001001MA1999999089301MD1110041+9999ME1315719REMSYN070AAXX  03004 17203 32970 00000 11096 21146 38930 48571 51004 333 10338;EQDQ01  00002PRCP99
0162172030999992000020303004+38870+040500FM-12+117799999V0209999C000012200019N0200001N1-01101-01501999999ADDGA1001+999999999GF100991001001999999001001MA1999999089331MD1310031+9999ME1315679REMSYN070AAXX  03034 17203 42970 00000 11110 21150 38933 48567 53003 333 10359;
0258172030999992000020306004+38870+040500FM-12+117799999V0209999C000012200019N0200001N1-01001-01331999999ADDAA199000091AJ100519199999999GA1001+999999999GF100991001001999999001001IA1279IA2999-01609KA1120N-01261MA1999999089461MD1210131+9999ME1315789REMSYN088AAXX  03064 17203 32970 00000 11100 21133 38946 48578 52013 333 21126 3/116 43051 55048;EQDQ01  00002PRCP99
0162172030999992000020309004+38870+040500FM-12+117799999V0200401N001512200019N0200001N1-00401-01071999999ADDGA1001+999999999GF100991001001999999001001MA1999999089501MD1110041+9999ME1315849REMSYN070AAXX  03094 17203 42970 00403 11040 21107 38950 48584 51004 333 10378;
0192172030999992000020312004+38870+040500FM-12+117799999V0203601N002112200019N0200001N1-00201-01021999999ADDAA199000091GA1001+999999999GF100991001001999999001001MA1999999089351MD1710151+9999ME1315719REMSYN070AAXX  03124 17203 32970 03604 11020 21102 38935 48571 57015 333 10361;EQDQ01  00002PRCP99
0162172030999992000020315004+38870+040500FM-12+117799999V0209999C000012200019N0200001N1-00541-01191999999ADDGA1001+999999999GF100991001001999999001001MA1999999089331MD1610021+9999ME1315659REMSYN070AAXX  03154 17203 42970 00000 11054 21119 38933 48565 56002 333 10370;
0221172030999992000020318004+38870+040500FM-12+117799999V0209999C000012200019N0200001N1-00831-01201999999ADDAA199000091GA1001+999999999GF100991001001999999001001KA1999M+99999MA1999999089401MD1110071+9999ME1315709REMSYN070AAXX  03184 17203 32970 00000 11083 21120 38940 48570 51007 333 10384;EQDQ01  00002PRCP99Q02 +03842ATMX  
0192172030999992000020400004+38870+040500FM-12+117799999V0209999C000012200019N0200001N1-01241-01481999999ADDAA199000091GA1001+999999999GF100991001001999999001001MA1999999089381MD1810021+9999ME1315719REMSYN070AAXX  04004 17203 32970 00000 11124 21148 38938 48571 58002 333 10370;EQDQ01  00002PRCP99
0162172030999992000020403004+38870+040500FM-12+117799999V0209999C000012200019N0200001N1-01321-01521999999ADDGA1001+999999999GF100991001001999999001001MA1999999089321MD1710061+9999ME1315629REMSYN070AAXX  04034 17203 42970 00000 11132 21152 38932 48562 57006 333 10375;
0258172030999992000020406004+38870+040500FM-12+117799999V0209999C000012200019N0200001N1-01181-01411999999ADDAA199000091AJ100489199999999GA1001+999999999GF100991001001999999001001IA1279IA2999-02009KA1120N-01431MA1999999089341MD1310021+9999ME1315639REMSYN088AAXX  04064 17203 32970 00000 11118 21141 38934 48563 53002 333 21143 3/120 43048 55078;EQDQ01  00002PRCP99
0162172030999992000020409004+38870+040500FM-12+117799999V0200201N002112200019N0200001N1-00701-01291999999ADDGA1001+999999999GF100991001001999999001001MA1999999089331MD1810011+9999ME1315649REMSYN070AAXX  04094 17203 42970 00204 11070 21129 38933 48564 58001 333 10376;
0192172030999992000020412004+38870+040500FM-12+117799999V0200301N001512200019N0200001N1-00341-01111999999ADDAA199000091GA1001+999999999GF100991001001999999001001MA1999999089201MD1710131+9999ME1315549REMSYN070AAXX  04124 17203 32970 00303 11034 21111 38920 48554 57013 333 10355;EQDQ01  00002PRCP99
0162172030999992000020415004+38870+040500FM-12+117799999V0209999C000012200019N0200001N1-00761-01241999999ADDGA1001+999999999GF100991001001999999001001MA1999999089141MD1710061+9999ME1315459REMSYN070AAXX  04154 17203 42970 00000 11076 21124 38914 48545 57006 333 10360;
0221172030999992000020418004+38870+040500FM-12+117799999V0209999C000012200019N0200001N1-00961-01241999999ADDAA199000091GA1001+999999999GF100991001001999999001001KA1999M+99999MA1999999089221MD1210081+9999ME1315519REMSYN070AAXX  04184 17203 32970 00000 11096 21124 38922 48551 52008 333 10375;EQDQ01  00002PRCP99Q02 +03752ATMX  
0162172030999992000020421004+38870+040500FM-12+117799999V0209999C000012200019N0200001N1-01021-01261999999ADDGA1001+999999999GF100991001001999999001001MA1999999089201MD1810021+9999ME1315539REMSYN070AAXX  04214 17203 42970 00000 11102 21126 38920 48553 58002 333 10361;
0204172030999992000020500004+38870+040500FM-12+117799999V0209999C00001036001CN0200001N1-01001-01241999999ADDAA199000091GA1031+012009089GF105991031011012501051001MA1999999089121MD1710081+9999ME1315499REMSYN082AAXX  05004 17203 32670 50000 11100 21124 38912 48549 57008 83150 333 83840 85360;EQDQ01  00002PRCP99
0174172030999992000020503004+38870+040500FM-12+117799999V0209999C00001036001CN0200001N1-01001-01241999999ADDGA1041+012009069GF108991041051012501021999MA1999999089001MD1710121+9999ME1315359REMSYN082AAXX  05034 17203 42670 80000 11100 21124 38900 48535 57012 8452/ 333 84640 88460;
0276172030999992000020506004+38870+040500FM-12+117799999V0209999C000010120019N0200001N1-00901-01161999999ADDAA199000091AJ100469199999999GA1051+012009069GF108991051051012501021999IA1279IA2999-01609KA1120N-01121MA1999999089041MD1310041+9999ME1315389REMSYN106AAXX  05064 17203 32670 80000 11090 21116 38904 48538 53004 8552/ 333 21112 3/116 43046 55068 85640 88460;EQDQ01  00002PRCP99
0202172030999992000020509004+38870+040500FM-12+117799999V0209999C000010111019N0080001N1-00501-00751999999ADDAY121031AY221031GA1051+011109069GF108991051051012501021999MA1999999088961MD1710081+9999ME1315339MW1701REMSYN088AAXX  05094 17203 41658 80000 11050 21075 38896 48533 57008 77022 8552/ 333 85637 88458;
0251172030999992000020512004+38870+040500FM-12+117799999V0209999C000010099019N0040001N1-00481-00601999999ADDAA106002091AL10600391AY121061AY221061GA1051+009909069GA2081+021009049GF108991051051008001021999MA1999999088821MD1510141+9999ME1315229MW1711REMSYN100AAXX  05124 17203 11540 80000 11048 21060 38882 48522 55014 60021 77122 8552/ 333 85633 88457 93103;
0202172030999992000020515004+38870+040500FM-12+117799999V0209999C000010099019N0040001N1-00581-00681999999ADDAY171031AY271031GA1051+009909069GF108991051051008001021999MA1999999088761MD1710061+9999ME1315159MW1711REMSYN088AAXX  05154 17203 41540 80000 11058 21068 38876 48515 57006 77177 8552/ 333 85633 88457;
0270172030999992000020518004+38870+040500FM-12+117799999V0209999C000010081019N0030001N1-00561-00631999999ADDAA112007191AL10601091AY171061AY271061GA1051+008109069GA2081+021009049GF108991051051008001021999KA1120M-00381MA1999999088701MD1710061+9999ME1315119MW1711REMSYN106AAXX  05184 17203 11530 80000 11056 21063 38870 48511 57006 60072 77177 8552/ 333 11038 85627 88457 93110;
0202172030999992000020521004+38870+040500FM-12+117799999V0209999C000010081019N0020001N1-00641-00721999999ADDAY171031AY271031GA1051+008109069GF108991051051008001021999MA1999999088541MD1710161+9999ME1314999MW1711REMSYN088AAXX  05214 17203 41520 80000 11064 21072 38854 48499 57016 77177 8552/ 333 85627 88457;
0137172030999992000020600004+38870+040500FM-12+117799999V0209999C000019999999N0020001N1-00601-00671999999ADDGF108991999999008001999999REMSYN099AAXX  06004 17203 11520 80000 11060 21067 3836 48483 57018 60041 77177 8552/ 333 85627 88457 93105;
0202172030999992000020603004+38870+040500FM-12+117799999V0209999C000010081019N0020001N1-00621-00701999999ADDAY171031AY271031GA1051+008109069GF108991051051008001021999MA1999999088151MD1710211+9999ME1314649MW1711REMSYN088AAXX  06034 17203 41520 80000 11062 21070 38815 48464 57021 77177 8552/ 333 85627 88457;
0323172030999992000020606004+38870+040500FM-12+117799999V0209999C000010078019N0020001N1-00541-00611999999ADDAA124014791AJ100709199999999AL10600891AY171061AY271061GA1051+007809069GA2081+021009049GF108991051051008001021999IA1279IA2999-00709KA1120N-00681MA1999999088041MD1710111+9999ME1314549MW1711REMSYN124AAXX  06064 17203 11520 80000 11054 21061 38804 48454 57011 77177 8552/ 333 21068 3/107 43070 55000 70147 85626 88457 93108;
0202172030999992000020609004+38870+040500FM-12+117799999V0209999C000010078019N0020001N1-00201-00391999999ADDAY171031AY271031GA1051+007809069GF108991051051008001021999MA1999999088041MD1010001+9999ME1314569MW1711REMSYN088AAXX  06094 17203 41520 80000 11020 21039 38804 48456 50000 77177 8552/ 333 85626 88456;
0251172030999992000020612004+38870+040500FM-12+117799999V0201601N003110300019N0200001N1+00001-00471999999ADDAA106002091AL10600491AY171061AY221061GA1041+012009069GA2071+030009049GF107991041051012501011001MA1999999087961MD1710081+9999ME1314499MW1021REMSYN100AAXX  06124 17203 11670 71606 10000 21047 38796 48449 57008 60021 70272 84510 333 84640 87460 93104;
0174172030999992000020615004+38870+040500FM-12+117799999V0201501N00211036001CN0200001N1-00061-00871999999ADDGA1041+012009089GF106991041021012501051001MA1999999088041MD1210081+9999ME1314579REMSYN082AAXX  06154 17203 42670 61504 11006 21087 38804 48457 52008 84250 333 84840 86360;
0192172030999992000020618004+38870+040500FM-12+117799999V0201601N002612200019N0200001N1-00201-00931999999ADDAA112002091GA1001+999999999GF100991001001999999001001KA1999M+02091MA1999999088141MD1210101+9999ME1314659REMSYN076AAXX  06184 17203 12970 01605 11020 21093 38814 48465 52010 60022 333 10209;
0162172030999992000020621004+38870+040500FM-12+117799999V0201801N002112200019N0200001N1-00281-01141999999ADDGA1001+999999999GF100991001001999999001001MA1999999088221MD1310081+9999ME1314749REMSYN070AAXX  06214 17203 42970 01804 11028 21114 38822 48474 53008 333 10207;
0192172030999992000020700004+38870+040500FM-12+117799999V0201601N002612200019N0200001N1-00361-01181999999ADDAA199000091GA1001+999999999GF100991001001999999001001MA1999999088401MD1310181+9999ME1314909REMSYN070AAXX  07004 17203 32970 01605 11036 21118 38840 48490 53018 333 10228;EQDQ01  00002PRCP99
0152172030999992000020703004+38870+040500FM-12+117799999V0200901N001512200019N0200001N1-00541-01281999999ADDGF102991021001999999031001MA1999999088501MD1310101+9999ME1314989REMSYN076AAXX  07034 17203 42970 20903 11054 21128 38850 48498 53010 82030 333 10245;
0257172030999992000020706004+38870+040500FM-12+117799999V0202701N003112200019N0200001N1-00261-01111999999ADDAA124002391AJ100739199999999GA1021+030009079GF102991021001999999031001IA1279IA2999-01009KA1120N-00601MA1999999088661MD1310161+9999ME1315159REMSYN106AAXX  07064 17203 32970 22706 11026 21111 38866 48515 53016 82030 333 21060 3/110 43073 55003 70024 82360;
0162172030999992000020709004+38870+040500FM-12+117799999V0202701N002112200019N0200001N1+00201-00961999999ADDGA1001+999999999GF100991001001999999001001MA1999999088801MD1210141+9999ME1315319REMSYN070AAXX  07094 17203 42970 02704 10020 21096 38880 48531 52014 333 10263;
0192172030999992000020712004+38870+040500FM-12+117799999V0201801N003612200019N0200001N1+00101-01001999999ADDAA199000091GA1001+999999999GF100991001001999999001001MA1999999088721MD1710081+9999ME1315219REMSYN070AAXX  07124 17203 32970 01807 10010 21100 38872 48521 57008 333 10259;EQDQ01  00002PRCP99
0162172030999992000020715004+38870+040500FM-12+117799999V0209999C000012200019N0200001N1-00201-01291999999ADDGA1001+999999999GF100991001001999999001001MA1999999088881MD1210161+9999ME1315359REMSYN070AAXX  07154 17203 42970 00000 11020 21129 38888 48535 52016 333 10295;
0221172030999992000020718004+38870+040500FM-12+117799999V0209999C000012200019N0200001N1-00601-01281999999ADDAA199000091GA1001+999999999GF100991001001999999001001KA1999M+99999MA1999999089021MD1210141+9999ME1315449REMSYN070AAXX  07184 17203 32970 00000 11060 21128 38902 48544 52014 333 10311;EQDQ01  00002PRCP99Q02 +03112ATMX  
0162172030999992000020721004+38870+040500FM-12+117799999V0209999C000012200019N0200001N1-00801-01391999999ADDGA1001+999999999GF100991001001999999001001MA1999999089071MD1110051+9999ME1315509REMSYN070AAXX  07214 17203 42970 00000 11080 21139 38907 48550 51005 333 10311;
0192172030999992000020800004+38870+040500FM-12+117799999V0201601N002112200019N0200001N1-00821-01421999999ADDAA199000091GA1001+999999999GF100991001001999999001001MA1999999089121MD1110051+9999ME1315539REMSYN070AAXX  08004 17203 32970 01604 11082 21142 38912 48553 51005 333 10323;EQDQ01  00002PRCP99
0162172030999992000020803004+38870+040500FM-12+117799999V0201601N003112200019N0200001N1-00901-01531999999ADDGA1001+999999999GF100991001001999999001001MA1999999089061MD1210061+9999ME1315459REMSYN070AAXX  08034 17203 42970 01606 11090 21153 38906 48545 52006 333 10327;
0258172030999992000020806004+38870+040500FM-12+117799999V0209999C000012200019N0200001N1-00741-01401999999ADDAA199000091AJ100709199999999GA1001+999999999GF100991001001999999001001IA1279IA2999-01209KA1120N-01021MA1999999089101MD1110041+9999ME1315479REMSYN088AAXX  08064 17203 32970 00000 11074 21140 38910 48547 51004 333 21102 3/112 43070 55081;EQDQ01  00002PRCP99
0162172030999992000020809004+38870+040500FM-12+117799999V0209999C000012200019N0200001N1-00041-01091999999ADDGA1001+999999999GF100991001001999999001001MA1999999089121MD1010021+9999ME1315529REMSYN070AAXX  08094 17203 42970 00000 11004 21109 38912 48552 50002 333 10323;
0192172030999992000020812004+38870+040500FM-12+117799999V0209999C000012200019N0200001N1+00361-00791999999ADDAA199000091GA1001+999999999GF100991001001999999001001MA1999999089041MD1710081+9999ME1315489REMSYN070AAXX  08124 17203 32970 00000 10036 21079 38904 48548 57008 333 10302;EQDQ01  00002PRCP99
0162172030999992000020815004+38870+040500FM-12+117799999V0209999C000012200019N0200001N1-00281-01141999999ADDGA1001+999999999GF100991001001999999001001MA1999999089001MD1610041+9999ME1315399REMSYN070AAXX  08154 17203 42970 00000 11028 21114 38900 48539 56004 333 10320;
0221172030999992000020818004+38870+040500FM-12+117799999V0209999C000012200019N0200001N1-00621-01271999999ADDAA199000091GA1001+999999999GF100991001001999999001001KA1999M+99999MA1999999089051MD1310051+9999ME1315439REMSYN070AAXX  08184 17203 32970 00000 11062 21127 38905 48543 53005 333 10332;EQDQ01  00002PRCP99Q02 +03322ATMX  
0162172030999992000020821004+38870+040500FM-12+117799999V0209999C000012200019N0200001N1-00851-01461999999ADDGA1001+999999999GF100991001001999999001001MA1999999089101MD1210051+9999ME1315509REMSYN070AAXX  08214 17203 42970 00000 11085 21146 38910 48550 52005 333 10320;
0192172030999992000020900004+38870+040500FM-12+117799999V0209999C000012200019N0200001N1-01031-01561999999ADDAA199000091GA1001+999999999GF100991001001999999001001MA1999999089101MD1410001+9999ME1315539REMSYN070AAXX  09004 17203 32970 00000 11103 21156 38910 48553 54000 333 10315;EQDQ01  00002PRCP99
0162172030999992000020903004+38870+040500FM-12+117799999V0209999C000012200019N0200001N1-01201-01741999999ADDGA1001+999999999GF100991001001999999001001MA1999999089101MD1410001+9999ME1315469REMSYN070AAXX  09034 17203 42970 00000 11120 21174 38910 48546 54000 333 10338;
0258172030999992000020906004+38870+040500FM-12+117799999V0209999C000012200019N0200001N1-01001-01571999999ADDAA199000091AJ100639199999999GA1001+999999999GF100991001001999999001001IA1279IA2999-01509KA1120N-01331MA1999999089101MD1410001+9999ME1315469REMSYN088AAXX  09064 17203 32970 00000 11100 21157 38910 48546 54000 333 21133 3/115 43063 55081;EQDQ01  00002PRCP99
0162172030999992000020909004+38870+040500FM-12+117799999V0209999C000012200019N0200001N1-00701-01341999999ADDGA1001+999999999GF100991001001999999001001MA1999999089181MD1110081+9999ME1315529REMSYN070AAXX  09094 17203 42970 00000 11070 21134 38918 48552 51008 333 10353;
0192172030999992000020912004+38870+040500FM-12+117799999V0209999C000012200019N0200001N1-00201-01101999999ADDAA199000091GA1001+999999999GF100991001001999999001001MA1999999089141MD1610041+9999ME1315529REMSYN070AAXX  09124 17203 32970 00000 11020 21110 38914 48552 56004 333 10337;EQDQ01  00002PRCP99
0162172030999992000020915004+38870+040500FM-12+117799999V0209999C000012200019N0200001N1-00401-01161999999ADDGA1001+999999999GF100991001001999999001001MA1999999089201MD1110061+9999ME1315539REMSYN070AAXX  09154 17203 42970 00000 11040 21116 38920 48553 51006 333 10355;
0221172030999992000020918004+38870+040500FM-12+117799999V0209999C000012200019N0200001N1-00801-01211999999ADDAA199000091GA1001+999999999GF100991001001999999001001KA1999M+99999MA1999999089301MD1310101+9999ME1315619REMSYN070AAXX  09184 17203 32970 00000 11080 21121 38930 48561 53010 333 10373;EQDQ01  00002PRCP99Q02 +03732ATMX  
0162172030999992000020921004+38870+040500FM-12+117799999V0209999C000012200019N0200001N1-01001-01281999999ADDGA1001+999999999GF100991001001999999001001MA1999999089481MD1210181+9999ME1315789REMSYN070AAXX  09214 17203 42970 00000 11100 21128 38948 48578 52018 333 10388;
0192172030999992000021000004+38870+040500FM-12+117799999V0209999C000012200019N0200001N1-01101-01311999999ADDAA199000091GA1001+999999999GF100991001001999999001001MA1999999089501MD1110021+9999ME1315839REMSYN070AAXX  10004 17203 32970 00000 11110 21131 38950 48583 51002 333 10378;EQDQ01  00002PRCP99
0162172030999992000021003004+38870+040500FM-12+117799999V0209999C000012200019N0200001N1-01201-01381999999ADDGA1001+999999999GF100991001001999999001001MA1999999089501MD1410001+9999ME1315809REMSYN070AAXX  10034 17203 42970 00000 11120 21138 38950 48580 54000 333 10390;
0258172030999992000021006004+38870+040500FM-12+117799999V0209999C000012200019N0200001N1-01021-01221999999ADDAA199000091AJ100559199999999GA1001+999999999GF100991001001999999001001IA1279IA2999-01609KA1120N-01321MA1999999089601MD1210101+9999ME1315889REMSYN088AAXX  10064 17203 32970 00000 11102 21122 38960 48588 52010 333 21132 3/116 43055 55081;EQDQ01  00002PRCP99
0162172030999992000021009004+38870+040500FM-12+117799999V0209999C000012200019N0200001N1-00301-01011999999ADDGA1001+999999999GF100991001001999999001001MA1999999089701MD1210101+9999ME1316009REMSYN070AAXX  10094 17203 42970 00000 11030 21101 38970 48600 52010 333 10402;
0192172030999992000021012004+38870+040500FM-12+117799999V0209999C000012200019N0200001N1-00041-00851999999ADDAA199000091GA1001+999999999GF100991001001999999001001MA1999999089611MD1810091+9999ME1315939REMSYN070AAXX  10124 17203 32970 00000 11004 21085 38961 48593 58009 333 10391;EQDQ01  00002PRCP99
0162172030999992000021015004+38870+040500FM-12+117799999V0209999C000012200019N0200001N1-00381-01091999999ADDGA1001+999999999GF100991001001999999001001MA1999999089571MD1610041+9999ME1315869REMSYN070AAXX  10154 17203 42970 00000 11038 21109 38957 48586 56004 333 10398;
0221172030999992000021018004+38870+040500FM-12+117799999V0209999C000012200019N0200001N1-00601-00951999999ADDAA199000091GA1001+999999999GF100991001001999999001001KA1999M+99999MA1999999089701MD1110131+9999ME1315979REMSYN070AAXX  10184 17203 32970 00000 11060 21095 38970 48597 51013 333 10413;EQDQ01  00002PRCP99Q02 +04132ATMX  
0162172030999992000021021004+38870+040500FM-12+117799999V0209999C000012200019N0200001N1-00761-01071999999ADDGA1001+999999999GF100991001001999999001001MA1999999089701MD1410001+9999ME1316029REMSYN070AAXX  10214 17203 42970 00000 11076 21107 38970 48602 54000 333 10396;
0192172030999992000021100004+38870+040500FM-12+117799999V0209999C000012200019N0200001N1-00881-01101999999ADDAA199000091GA1001+999999999GF100991001001999999001001MA1999999089601MD1810101+9999ME1315949REMSYN070AAXX  11004 17203 32970 00000 11088 21110 38960 48594 58010 333 10384;EQDQ01  00002PRCP99
0162172030999992000021103004+38870+040500FM-12+117799999V0209999C000012200019N0200001N1-01041-01251999999ADDGA1001+999999999GF100991001001999999001001MA1999999089601MD1410001+9999ME1315909REMSYN070AAXX  11034 17203 42970 00000 11104 21125 38960 48590 54000 333 10396;
0270172030999992000021106004+38870+040500FM-12+117799999V0209999C000012200019N0200001N1-00701-00931999999ADDAA199000091AJ100529199999999GA1031+030009079GF103991031001999999031001IA1279IA2999-01409KA1120N-01071MA1999999089501MD1610101+9999ME1315839REMSYN100AAXX  11064 17203 32970 30000 11070 21093 38950 48583 56010 83030 333 21107 3/114 43052 55076 83360;EQDQ01  00002PRCP99
0152172030999992000021109004+38870+040500FM-12+117799999V0209999C000019999999N0200001N1-00301-00641999999ADDGF106991001001999999001081MA1999999089501MD1410001+9999ME1315909REMSYN076AAXX  11094 17203 42970 60000 11030 21064 38950 48590 54000 80008 333 10373;
0182172030999992000021112004+38870+040500FM-12+117799999V0209999C000012200019N0200001N1+00051-00701999999ADDAA199000091GF102991001001999999001011MA1999999089361MD1710141+9999ME1315739REMSYN076AAXX  11124 17203 32970 20000 10005 21070 38936 48573 57014 80001 333 10350;EQDQ01  00002PRCP99
0162172030999992000021115004+38870+040500FM-12+117799999V0209999C000012200019N0200001N1-00381-00781999999ADDGA1001+999999999GF100991001001999999001001MA1999999089381MD1110021+9999ME1315719REMSYN070AAXX  11154 17203 42970 00000 11038 21078 38938 48571 51002 333 10370;
0221172030999992000021118004+38870+040500FM-12+117799999V0209999C000012200019N0200001N1-00601-00911999999ADDAA199000091GA1001+999999999GF100991001001999999001001KA1999M+99999MA1999999089461MD1210081+9999ME1315799REMSYN070AAXX  11184 17203 32970 00000 11060 21091 38946 48579 52008 333 10374;EQDQ01  00002PRCP99Q02 +03742ATMX  
0162172030999992000021121004+38870+040500FM-12+117799999V0209999C000012200019N0200001N1-00861-01201999999ADDGA1001+999999999GF100991001001999999001001MA1999999089501MD1110041+9999ME1315839REMSYN070AAXX  11214 17203 42970 00000 11086 21120 38950 48583 51004 333 10378;
0192172030999992000021200004+38870+040500FM-12+117799999V0209999C000012200019N0200001N1-01061-01311999999ADDAA199000091GA1001+999999999GF100991001001999999001001MA1999999089501MD1410001+9999ME1315859REMSYN070AAXX  12004 17203 32970 00000 11106 21131 38950 48585 54000 333 10375;EQDQ01  00002PRCP99
0162172030999992000021203004+38870+040500FM-12+117799999V0209999C000012200019N0200001N1-01201-01381999999ADDGA1001+999999999GF100991001001999999001001MA1999999089411MD1810091+9999ME1315729REMSYN070AAXX  12034 17203 42970 00000 11120 21138 38941 48572 58009 333 10380;
0258172030999992000021206004+38870+040500FM-12+117799999V0209999C000012200019N0200001N1-01001-01201999999ADDAA199000091AJ100509199999999GA1001+999999999GF100991001001999999001001IA1279IA2999-01509KA1120N-01321MA1999999089401MD1810011+9999ME1315719REMSYN088AAXX  12064 17203 32970 00000 11100 21120 38940 48571 58001 333 21132 3/115 43050 55049;EQDQ01  00002PRCP99
0162172030999992000021209004+38870+040500FM-12+117799999V0209999C000012200019N0200001N1-00401-00881999999ADDGA1001+999999999GF100991001001999999001001MA1999999089341MD1810061+9999ME1315699REMSYN070AAXX  12094 17203 42970 00000 11040 21088 38934 48569 58006 333 10360;
0192172030999992000021212004+38870+040500FM-12+117799999V0202501N001512200019N0200001N1+00001-00661999999ADDAA199000091GA1001+999999999GF100991001001999999001001MA1999999089141MD1710201+9999ME1315539REMSYN070AAXX  12124 17203 32970 02503 10000 21066 38914 48553 57020 333 10331;EQDQ01  00002PRCP99
0152172030999992000021215004+38870+040500FM-12+117799999V0209999C000012200019N0200001N1-00401-00841999999ADDGF101991001001999999001011MA1999999088961MD1710181+9999ME1315339REMSYN076AAXX  12154 17203 42970 10000 11040 21084 38896 48533 57018 80001 333 10327;
0221172030999992000021218004+38870+040500FM-12+117799999V0209999C000012200019N0200001N1-00501-00821999999ADDAA199000091GA1001+999999999GF100991001001999999001001KA1999M+99999MA1999999088941MD1810021+9999ME1315329REMSYN070AAXX  12184 17203 32970 00000 11050 21082 38894 48532 58002 333 10325;EQDQ01  00002PRCP99Q02 +03252ATMX  
0152172030999992000021221004+38870+040500FM-12+117799999V0209999C000019999999N0200001N1-00521-00851999999ADDGF106991001001999999001051MA1999999088831MD1810111+9999ME1315269REMSYN076AAXX  12214 17203 42970 60000 11052 21085 38883 48526 58011 80005 333 10295;
0182172030999992000021300004+38870+040500FM-12+117799999V0209999C000010210019N0200001N1-00541-00641999999ADDAA199000091GF108991081001022501011999MA1999999088691MD1710141+9999ME1315169REMSYN076AAXX  13004 17203 32870 80000 11054 21064 38869 48516 57014 8801/ 333 10267;EQDQ01  00002PRCP99
0180172030999992000021303004+38870+040500FM-12+117799999V0209999C000010210019N0200001N1-00541-00911999999ADDAY171031AY221031GF106991061001022501071001MA1999999088581MD1710111+9999ME1315049MW1011REMSYN082AAXX  13034 17203 41870 60000 11054 21091 38858 48504 57011 70172 86070 333 10266;
0329172030999992000021306004+38870+040500FM-12+117799999V0209999C000010081019N0020001N1-00441-00501999999ADDAA112000891AJ100469199999999AL10600191AY171061AY221061GA1051+008109069GA2081+021009049GF108991051051008001021999IA1279IA2999-00909KA1120N-00601MA1999999088521MD1710061+9999ME1314999MW1711REMSYN130AAXX  13064 17203 11520 80000 11044 21050 38852 48499 57006 69972 77172 8552/ 333 21060 3/109 43046 55065 70007 85627 88457 93101;
0202172030999992000021309004+38870+040500FM-12+117799999V0209999C00001036001CN0200001N1+00141-00141999999ADDAY171031AY221031GA1041+012009069GF107991041051012501011001MA1999999088341MD1710181+9999ME1314859MW1021REMSYN088AAXX  13094 17203 41670 70000 10014 21014 38834 48485 57018 70272 84510 333 84640 87460;
0279172030999992000021312004+38870+040500FM-12+117799999V0209999C000010090019N0008001N1+00271-00021999999ADDAA106001091AL19900091AY171061AY241061GA1011+002409079GA2051+009009069GA3081+021009049GF108991061071002501021999MA1999999088161MD1710181+9999ME1314699MW1711REMSYN112AAXX  13124 17203 11308 80000 10027 21002 38816 48469 57018 69991 77174 8672/ 333 81708 85630 88457 93100 96041;
0243172030999992000021315004+38870+040500FM-12+117799999V0209999C000010090019N0008001N1+00001-00141999999ADDAY171031AY241031GA1011+002409079GA2051+009009069GF108991061071002501021999MA1999999088041MD1610121+9999ME1314579MW1421REMSYN094AAXX  13154 17203 41308 80000 10000 21014 38804 48457 56012 74374 8672/ 333 81708 85630 88457;EQDQ01+000432PRSWM1
0270172030999992000021318004+38870+040500FM-12+117799999V0209999C000010300019N0200001N1-00121-00191999999ADDAA112001091AL10600091AY171061AY241061GA1041+012009069GA2071+030009049GF107991041051012501011001KA1120M+00301MA1999999088101MD1110061+9999ME1314629MW1281REMSYN106AAXX  13184 17203 11670 70000 11012 21019 38810 48462 51006 60012 72874 84510 333 10030 84640 87460 93100;
0152172030999992000021321004+38870+040500FM-12+117799999V0209999C000012200019N0200001N1-00361-00521999999ADDGF102991021001999999031001MA1999999088181MD1110081+9999ME1314729REMSYN076AAXX  13214 17203 42970 20000 11036 21052 38818 48472 51008 82030 333 10197;
0173172030999992000021400004+38870+040500FM-12+117799999V0209999C000012200019N0200001N1-00521-00581999999ADDAA199000021GA1001+999999999GF100991001001999999001001MA1999999088221MD1210041+9999ME1314749REMSYN070AAXX  14004 17203 32970 00000 11052 21058 38822 48474 52004 333 10202;
0162172030999992000021403004+38870+040500FM-12+117799999V0209999C000012200019N0200001N1-00761-00851999999ADDGA1001+999999999GF100991001001999999001001MA1999999088281MD1310061+9999ME1314789REMSYN070AAXX  14034 17203 42970 00000 11076 21085 38828 48478 53006 333 10226;
0263172030999992000021406004+38870+040500FM-12+117799999V0209999C00001036001CN0200001N1-00681-00801999999ADDAA124001391AJ100469199999999GA1041+012009069GF107991041041012501011001IA1279IA2999-01009KA1120N-00821MA1999999088501MD1210221+9999ME1314979REMSYN112AAXX  14064 17203 32670 70000 11068 21080 38850 48497 52022 84410 333 21082 3/110 43046 55000 70013 84640 87460;
0204172030999992000021412004+38870+040500FM-12+117799999V0209999C000010120019N0200001N1-00101-00481999999ADDAA199000091GA1051+012009069GF108991051051012501021999MA1999999088541MD1810011+9999ME1315029REMSYN082AAXX  14124 17203 32670 80000 11010 21048 38854 48502 58001 8552/ 333 85640 88460;EQDQ01  00002PRCP99
0202172030999992000021415004+38870+040500FM-12+117799999V0209999C000010111019N0150001N1-00201-00451999999ADDAY121031AY221031GA1051+011109069GF108991051051012501021999MA1999999088601MD1110041+9999ME1315059MW1701REMSYN088AAXX  14154 17203 41665 80000 11020 21045 38860 48505 51004 77022 8552/ 333 85637 88458;
0270172030999992000021418004+38870+040500FM-12+117799999V0209999C000010111019N0080001N1-00231-00341999999ADDAA112000191AL10600091AY121061AY221061GA1051+011109069GA2081+024009049GF108991051051012501021999KA1120M+00021MA1999999088761MD1210161+9999ME1315209MW1711REMSYN106AAXX  14184 17203 11658 80000 11023 21034 38876 48520 52016 69922 77122 8552/ 333 10002 85637 88458 93100;
0202172030999992000021421004+38870+040500FM-12+117799999V0209999C000010120019N0200001N1-00241-00331999999ADDAY171031AY221031GA1051+012009069GF108991051051012501021999MA1999999088821MD1110061+9999ME1315289MW1021REMSYN088AAXX  14214 17203 41670 80000 11024 21033 38882 48528 51006 70272 8552/ 333 85640 88460;
0251172030999992000021500004+38870+040500FM-12+117799999V0209999C000010300019N0200001N1-00281-00371999999ADDAA106000191AL10600091AY171061AY221061GA1041+012009069GA2081+030009049GF108991041051012501021999MA1999999088831MD1110011+9999ME1315309MW1021REMSYN100AAXX  15004 17203 11670 80000 11028 21037 38883 48530 51001 69911 70272 8452/ 333 84640 88460 93100;
0202172030999992000021503004+38870+040500FM-12+117799999V0209999C000010108019N0060001N1-00231-00291999999ADDAY121031AY221031GA1051+010809069GF108991051051012501021999MA1999999088831MD1410001+9999ME1315299MW1711REMSYN088AAXX  15034 17203 41656 80000 11023 21029 38883 48529 54000 77122 8552/ 333 85636 88457;
0329172030999992000021506004+38870+040500FM-12+117799999V0209999C000010108019N0060001N1-00241-00301999999ADDAA112000591AJ100449199999999AL10600191AY121061AY221061GA1051+010809069GA2081+021009049GF108991051051012501021999IA1279IA2999-00409KA1120N-00321MA1999999089001MD1210171+9999ME1315459MW1711REMSYN130AAXX  15064 17203 11656 80000 11024 21030 38900 48545 52017 69942 77122 8552/ 333 21032 3/104 43044 55000 70006 85636 88457 93101;
0202172030999992000021509004+38870+040500FM-12+117799999V0209999C000010099019N0100001N1+00021-00221999999ADDAY171031AY221031GA1051+009909069GF108991051051008001021999MA1999999089001MD1410001+9999ME1315469MW1711REMSYN088AAXX  15094 17203 41560 80000 10002 21022 38900 48546 54000 77172 8552/ 333 85633 88457;
0251172030999992000021512004+38870+040500FM-12+117799999V0209999C000010090019N0020001N1+00101-00041999999ADDAA106003091AL10600091AY171061AY221061GA1051+009009069GA2081+021009049GF108991051051008001021999MA1999999088901MD1710101+9999ME1315379MW1711REMSYN100AAXX  15124 17203 11520 80000 10010 21004 38890 48537 57010 60031 77172 8552/ 333 85630 88457 93100;
0202172030999992000021515004+38870+040500FM-12+117799999V0209999C000010090019N0008001N1+00001-00091999999ADDAY171031AY271031GA1051+009009069GF108991051051008001021999MA1999999088821MD1610081+9999ME1315309MW1731REMSYN088AAXX  15154 17203 41508 80000 10000 21009 38882 48530 56008 77377 8552/ 333 85630 88457;
0270172030999992000021518004+38870+040500FM-12+117799999V0209999C000010099019N0020001N1+00081+00031999999ADDAA112010991AL10600691AY171061AY271061GA1051+009909069GA2081+021009049GF108991051051008001021999KA1120M+00221MA1999999088781MD1610041+9999ME1315279MW1711REMSYN106AAXX  15184 17203 11520 80000 10008 20003 38878 48527 56004 60112 77177 8552/ 333 10022 85633 88457 93106;
0202172030999992000021521004+38870+040500FM-12+117799999V0209999C00001036001CN0030001N1+00081+00031999999ADDAY171031AY271031GA1041+009909069GF108991041051008001021999MA1999999088641MD1710141+9999ME1315169MW1711REMSYN088AAXX  15214 17203 41530 80000 10008 20003 38864 48516 57014 77177 8452/ 333 84633 88457;
0251172030999992000021600004+38870+040500FM-12+117799999V0209999C000010300019N0200001N1+00181+00091999999ADDAA106007191AL10600391AY171061AY221061GA1041+012009069GA2081+030009049GF108991041051012501021999MA1999999088551MD1710091+9999ME1315099MW1021REMSYN100AAXX  16004 17203 11670 80000 10018 20009 38855 48509 57009 60071 70272 8452/ 333 84640 88460 93103;
0202172030999992000021603004+38870+040500FM-12+117799999V0209999C000010105019N0060001N1+00101+00031999999ADDAY121031AY221031GA1051+010509069GF108991051051012501021999MA1999999088481MD1610071+9999ME1315019MW1711REMSYN088AAXX  16034 17203 41656 80000 10010 20003 38848 48501 56007 77122 8552/ 333 85635 88457;
0329172030999992000021606004+38870+040500FM-12+117799999V0209999C000010099019N0010001N1+00081+00031999999ADDAA112020191AJ100599199999999AL10600891AY121061AY221061GA1051+009909069GA2081+021009049GF108991051051008001021999IA1279IA2999-00109KA1120N+00021MA1999999088451MD1810031+9999ME1314999MW1731REMSYN130AAXX  16064 17203 11510 80000 10008 20003 38845 48499 58003 60202 77322 8552/ 333 20002 3/101 43059 55000 70306 85633 88457 93108;
0224172030999992000021609004+38870+040500FM-12+117799999V0209999C000010099019N0008001N1+00151+00111999999ADDAY171031AY271031GA1021+004509079GA2051+009909069GF108991061071004501021999MA1999999088431MD1610021+9999ME1314979MW1731REMSYN094AAXX  16094 17203 41408 80000 10015 20011 38843 48497 56002 77377 8672/ 333 82715 85633 88459;
0273172030999992000021612004+38870+040500FM-12+117799999V0209999C000010099019N0020001N1+00231+00141999999ADDAA106013091AL10600891AY171061AY271061GA1021+003609079GA2051+009909069GA3081+027009049GF108991061071004501021999MA1999999088321MD1710111+9999ME1314889MW1711REMSYN106AAXX  16124 17203 11420 80000 10023 20014 38832 48488 57011 60131 77177 8672/ 333 82712 85633 88459 93108;
0224172030999992000021615004+38870+040500FM-12+117799999V0209999C000010099019N0008001N1+00101+00031999999ADDAY171031AY271031GA1021+002409079GA2041+009909069GF108991061071002501021999MA1999999088271MD1710051+9999ME1314829MW1711REMSYN094AAXX  16154 17203 41308 80000 10010 20003 38827 48482 57005 77177 8672/ 333 82708 84633 88459;
0270172030999992000021618004+38870+040500FM-12+117799999V0209999C000010105019N0100001N1+00101+00061999999ADDAA112020191AL10600391AY171061AY271061GA1051+010509069GA2081+027009049GF108991051051012501021999KA1120M+00301MA1999999088271MD1410001+9999ME1314829MW1681REMSYN106AAXX  16184 17203 11660 80000 10010 20006 38827 48482 54000 60202 76877 8552/ 333 10030 85635 88459 93103;
0202172030999992000021621004+38870+040500FM-12+117799999V0209999C000010099019N0080001N1+00161+00121999999ADDAY171031AY271031GA1051+009909069GF108991051051012501021999MA1999999088181MD1710091+9999ME1314759MW1681REMSYN088AAXX  16214 17203 41658 80000 10016 20012 38818 48475 57009 76877 8552/ 333 85633 88457;
0251172030999992000021700004+38870+040500FM-12+117799999V0203101N001510090019N0008001N1+00041+00011999999ADDAA106018091AL10600491AY171061AY271061GA1051+009009069GA2081+021009049GF108991051051008001021999MA1999999088101MD1610081+9999ME1314679MW1731REMSYN100AAXX  17004 17203 11508 83103 10004 20001 38810 48467 56008 60181 77377 8552/ 333 85630 88457 93104;
