0045279950999992000122800004+52980+049420FM-15+004599999V02099999999992200019N0112651N1+99999+99999999999ADDMW1001REMMET008280000Z;EQDQ01+000000PRSWM2
