0161282550999992000010100004+58050+063680FM-12+007199999V0200601N002019999999N0090001N1-02461-02701102701ADDAY171061AY221061GF108991081001999999021999MA1999999101261MD1410001+9999MW1711REMSYN072AAXX  01001 28255 41959 80602 11246 21270 30126 40270 54000 77172 8802/;
0161282550999992000010103004+58050+063680FM-12+007199999V0200601N002012200019N0210001N1-02661-02901102841ADDAJ100569199999999GA1001+999999999GF100991001001999999001001IA1239MD1310131+9999REMSYN070AAXX  01031 28255 /2971 00602 11266 21290 40284 53013 333 47056 55000;
0152282550999992000010106004+58050+063680FM-12+007199999V0200601N002019999999N0500001N1-02641-02881102901ADDAA100001091GF108991001001999999001011KA1999N-02671MD1210061+9999REMSYN076AAXX  01061 28255 12999 80602 11264 21288 40290 52006 69990 80001 333 21267;
0122282550999992000010109004+58050+063680FM-12+007199999V0200201N001012200019N0500001N1-02701-02941103031ADDGA1001+999999999GF100991001001999999001001MD1210121+9999REMSYN054AAXX  01091 28255 42999 00201 11270 21294 40303 52012;
0143282550999992000010112004+58050+063680FM-12+007199999V0200201N001012200019N0210001N1-02801-03041103131ADDGA1001+999999999GF100991001001999999001001MA1999999101671MD1210101+9999REMSYN060AAXX  01121 28255 42971 00201 11280 21304 30167 40313 52010;
0175282550999992000010115004+58050+063680FM-12+007199999V0203501N001012200019N0200001N1-03061-03291103371ADDAA106000091GA1001+999999999GF100991001001999999001001KA1999M-02311MD1210221+9999REMSYN064AAXX  01151 28255 32970 03501 11306 21329 40337 52022 333 11231;EQDQ01  00002PRCP06
0175282550999992000010118004+58050+063680FM-12+007199999V0203201N002012200019N0200001N1-03251-03551103581ADDAA106000091GA1001+999999999GF100991001001999999001001KA1999M-02311MD1210191+9999REMSYN064AAXX  01181 28255 32970 03202 11325 21355 40358 52019 333 11231;EQDQ01  00002PRCP06
0122282550999992000010121004+58050+063680FM-12+007199999V0203101N002012200019N0180001N1-03361-03651103611ADDGA1001+999999999GF100991001001999999001001MD1210091+9999REMSYN054AAXX  01211 28255 42968 03102 11336 21365 40361 52009;
0143282550999992000010200004+58050+063680FM-12+007199999V0202901N002012200019N0190001N1-03661-03941103951ADDGA1001+999999999GF100991001001999999001001MA1999999102421MD1210251+9999REMSYN060AAXX  02001 28255 42969 02902 11366 21394 30242 40395 52025;
0191282550999992000010203004+58050+063680FM-12+007199999V0202701N002012200019N0170001N1-03811-04091104051ADDAA106000091AJ100569199999999GA1001+999999999GF100991001001999999001001IA1239MD1210091+9999REMSYN070AAXX  02031 28255 32967 02702 11381 21409 40405 52009 333 47056 55007;EQDQ01  00002PRCP06
0191282550999992000010206004+58050+063680FM-12+007199999V0202701N002012200019N0500001N1-03901-04091104171ADDAA106000091GA1001+999999999GF100991001001999999001001KA1999N+99999MD1210121+9999REMSYN064AAXX  02061 28255 32999 02702 11390 21409 40417 52012 333 21381;EQDQ01  00002PRCP06Q02 -03812ATMN  
0122282550999992000010209004+58050+063680FM-12+007199999V0202701N001012200019N0500001N1-03441-03671104151ADDGA1001+999999999GF100991001001999999001001MD1410001+9999REMSYN054AAXX  02091 28255 42999 02701 11344 21367 40415 54000;
0143282550999992000010212004+58050+063680FM-12+007199999V0201401N001012200019N0220001N1-03561-03831104141ADDGA1001+999999999GF100991001001999999001001MA1999999102611MD1810021+9999REMSYN060AAXX  02121 28255 42972 01401 11356 21383 30261 40414 58002;
0175282550999992000010215004+58050+063680FM-12+007199999V0201501N001012200019N0230001N1-03551-03831104171ADDAA106000091GA1001+999999999GF100991001001999999001001KA1999M-03401MD1310031+9999REMSYN064AAXX  02151 28255 32973 01501 11355 21383 40417 53003 333 11340;EQDQ01  00002PRCP06
0175282550999992000010218004+58050+063680FM-12+007199999V0201801N001012200019N0240001N1-03441-03741104151ADDAA106000091GA1001+999999999GF100991001001999999001001KA1999M-03401MD1810011+9999REMSYN064AAXX  02181 28255 32974 01801 11344 21374 40415 58001 333 11340;EQDQ01  00002PRCP06
0122282550999992000010221004+58050+063680FM-12+007199999V0201701N002012200019N0210001N1-03141-03421104091ADDGA1001+999999999GF100991001001999999001001MD1710041+9999REMSYN054AAXX  02211 28255 42971 01702 11314 21342 40409 57004;
0143282550999992000010300004+58050+063680FM-12+007199999V0201701N002012200019N0230001N1-03061-03361104031ADDGA1001+999999999GF100991001001999999001001MA1999999102541MD1710051+9999REMSYN060AAXX  03001 28255 42973 01702 11306 21336 30254 40403 57005;
0191282550999992000010303004+58050+063680FM-12+007199999V0201701N001012200019N0220001N1-03241-03551104111ADDAA106000091AJ100569199999999GA1001+999999999GF100991001001999999001001IA1239MD1310071+9999REMSYN070AAXX  03031 28255 32972 01701 11324 21355 40411 53007 333 47056 55027;EQDQ01  00002PRCP06
0175282550999992000010306004+58050+063680FM-12+007199999V0209999C000012200019N0200001N1-03361-03591104211ADDAA106000091GA1001+999999999GF100991001001999999001001KA1999N-03501MD1210081+9999REMSYN064AAXX  03061 28255 32998 00000 11336 21359 40421 52008 333 21350;EQDQ01  00002PRCP06
0122282550999992000010309004+58050+063680FM-12+007199999V0209999C000012200019N0500001N1-02971-03211104291ADDGA1001+999999999GF100991001001999999001001MD1210101+9999REMSYN054AAXX  03091 28255 42999 00000 11297 21321 40429 52010;
0143282550999992000010312004+58050+063680FM-12+007199999V0209999C000012200019N0220001N1-03041-03271104361ADDGA1001+999999999GF100991001001999999001001MA1999999102861MD1210071+9999REMSYN060AAXX  03121 28255 42972 00000 11304 21327 30286 40436 52007;
0175282550999992000010315004+58050+063680FM-12+007199999V0201301N002012200019N0210001N1-03091-03321104301ADDAA106000091GA1001+999999999GF100991001001999999001001KA1999M-02961MD1810061+9999REMSYN064AAXX  03151 28255 32971 01302 11309 21332 40430 58006 333 11296;EQDQ01  00002PRCP06
0175282550999992000010318004+58050+063680FM-12+007199999V0201201N002012200019N0200001N1-03191-03431104261ADDAA106000091GA1001+999999999GF100991001001999999001001KA1999M-02961MD1710051+9999REMSYN064AAXX  03181 28255 32970 01202 11319 21343 40426 57005 333 11296;EQDQ01  00002PRCP06
0122282550999992000010321004+58050+063680FM-12+007199999V0201201N001012200019N0190001N1-03271-03511104191ADDGA1001+999999999GF100991001001999999001001MD1710061+9999REMSYN054AAXX  03211 28255 42969 01201 11327 21351 40419 57006;
0143282550999992000010400004+58050+063680FM-12+007199999V0201201N002012200019N0180001N1-03331-03561104051ADDGA1001+999999999GF100991001001999999001001MA1999999102531MD1710161+9999REMSYN060AAXX  04001 28255 42968 01202 11333 21356 30253 40405 57016;
0191282550999992000010403004+58050+063680FM-12+007199999V0201101N002012200019N0170001N1-03281-03511103991ADDAA106000091AJ100569199999999GA1001+999999999GF100991001001999999001001IA1239MD1710041+9999REMSYN070AAXX  04031 28255 32967 01102 11328 21351 40399 57004 333 47056 55000;EQDQ01  00002PRCP06
0165282550999992000010406004+58050+063680FM-12+007199999V0201301N003019999999N0200001N1-03151-03381103801ADDAA106000091GF105991001001999999001011KA1999N-03361MD1710191+9999REMSYN070AAXX  04061 28255 32998 51303 11315 21338 40380 57019 80001 333 21336;EQDQ01  00002PRCP06
0112282550999992000010409004+58050+063680FM-12+007199999V0201101N002019999999N0500001N1-02511-02691103511ADDGF108991051001999999031011MD1710241+9999REMSYN060AAXX  04091 28255 42999 81102 11251 21269 40351 57024 85031;
0161282550999992000010412004+58050+063680FM-12+007199999V0201301N003019999999N0220001N1-02171-02351103271ADDAY171061AY211061GF108991081001999999071999MA1999999101831MD1710231+9999MW1721REMSYN072AAXX  04121 28255 41972 81303 11217 21235 30183 40327 57023 77271 8807/;
0163282550999992000010415004+58050+063680FM-12+007199999V0201201N004019999999N0060001N1-01871-02131102901ADDAY171031AY221031GF108991081001999999071999KA1999M-01871MD1710341+9999MW1711REMSYN076AAXX  04151 28255 /1956 81204 11187 21213 40290 57034 77172 8807/ 333 11187;
0199282550999992000010418004+58050+063680FM-12+007199999V0201301N003019999999N0036001N1-01811-02001102711ADDAA100000591AY171061AY221061GF108991081001999999071999KA1999M+99999MD1710191+9999MW1731REMSYN082AAXX  04181 28255 11936 81303 11181 21200 40271 57019 69960 77372 8807/ 333 11187;EQDQ01 -01872ATMX  
0140282550999992000010421004+58050+063680FM-12+007199999V0201201N004019999999N0035001N1-01811-02001102571ADDAY171031AY231031GF108991081001999999071999MD1710231+9999MW1731REMSYN066AAXX  04211 28255 41935 81204 11181 21200 40257 57023 77373 8807/;
0161282550999992000010500004+58050+063680FM-12+007199999V0201201N003019999999N0050001N1-01791-01981102271ADDAY171061AY231061GF108991081001999999071999MA1999999100871MD1710201+9999MW1711REMSYN072AAXX  05001 28255 41950 81203 11179 21198 30087 40227 57020 77173 8807/;
0179282550999992000010503004+58050+063680FM-12+007199999V0201301N004019999999N0060001N1-01761-01951101961ADDAJ100569199999999AY171031AY231031GF108991081001999999071999IA1239MD1710301+9999MW1711REMSYN082AAXX  05031 28255 /1956 81304 11176 21195 40196 57030 77173 8807/ 333 47056 55000;
0180282550999992000010506004+58050+063680FM-12+007199999V0201301N004019999999N0060001N1-01651-01841101901ADDAA100007191AY171061AY231061GF108991081001999999071999KA1999N-01891MD1710051+9999MW1711REMSYN082AAXX  05061 28255 11956 81304 11165 21184 40190 57005 60070 77173 8807/ 333 21189;
0140282550999992000010509004+58050+063680FM-12+007199999V0201401N001019999999N0060001N1-01551-01741101811ADDAY171031AY221031GF108991081001999999071999MD1710091+9999MW1711REMSYN066AAXX  05091 28255 41956 81401 11155 21174 40181 57009 77172 8807/;
0171282550999992000010512004+58050+063680FM-12+007199999V0209999C000012200019N0210001N1-01791-01981101851ADDAY171061AY211061GA1001+999999999GF100991001001999999001001MA1999999100461MD1310031+9999MW1021REMSYN066AAXX  05121 28255 41971 00000 11179 21198 30046 40185 53003 70271;
0145282550999992000010515004+58050+063680FM-12+007199999V0202901N001012200019N0190001N1-02121-02311101881ADDGA1001+999999999GF100991001001999999001001KA1999M-01551MD1210011+9999REMSYN064AAXX  05151 28255 /2969 02901 11212 21231 40188 52001 333 11155;
0162282550999992000010518004+58050+063680FM-12+007199999V0202801N005012200019N0190001N1-02561+99999102021ADDAA100002091GA1001+999999999GF100991001001999999001001KA1999M-01551MD1210111+9999REMSYN070AAXX  05181 28255 12969 02805 11256 20274 40202 52011 60020 333 11155;
0112282550999992000010521004+58050+063680FM-12+007199999V0202801N004019999999N0150001N1-02671-02851102071ADDGF105991001001999999001011MD1210051+9999REMSYN060AAXX  05211 28255 42965 52804 11267 21285 40207 52005 80001;
0179282550999992000010603004+58050+063680FM-12+007199999V0202901N002019999999N0080001N1-02691-02931102171ADDAJ100579199999999AY171031AY221031GF108991081001999999071999IA1239MD1810011+9999MW1711REMSYN082AAXX  06031 28255 /1958 82902 11269 21293 40217 58001 77172 8807/ 333 47057 55000;
0180282550999992000010606004+58050+063680FM-12+007199999V0202901N002019999999N0060001N1-02681-02931102121ADDAA100000791AY171061AY221061GF108991081001999999071999KA1999N-02781MD1710051+9999MW1711REMSYN082AAXX  06061 28255 11956 82902 11268 21293 40212 57005 69900 77172 8807/ 333 21278;
0140282550999992000010609004+58050+063680FM-12+007199999V0202601N001019999999N0060001N1-02581-02761102181ADDAY171031AY221031GF105991051001999999071001MD1310061+9999MW1711REMSYN066AAXX  06091 28255 41956 52601 11258 21276 40218 53006 77172 85070;
0161282550999992000010612004+58050+063680FM-12+007199999V0209999C000019999999N0210001N1-02591-02771102161ADDAY171061AY221061GF106991061001999999071001MA1999999100721MD1810021+9999MW1021REMSYN072AAXX  06121 28255 41971 60000 11259 21277 30072 40216 58002 70272 86070;
0163282550999992000010615004+58050+063680FM-12+007199999V0200701N001019999999N0070001N1-02421-02661102181ADDAY171031AY221031GF108991081001999999071999KA1999M-02421MD1310031+9999MW1711REMSYN076AAXX  06151 28255 /1957 80701 11242 21266 40218 53003 77172 8807/ 333 11242;
0140282550999992000010621004+58050+063680FM-12+007199999V0200901N001019999999N0060001N1-02351-02601102181ADDAY171031AY221031GF108991081001999999071999MD1810011+9999MW1711REMSYN066AAXX  06211 28255 41956 80901 11235 21260 40218 58001 77172 8807/;
0171282550999992000010700004+58050+063680FM-12+007199999V0200801N002012200019N0210001N1-02441-02691102171ADDAY171061AY211061GA1001+999999999GF100991001001999999001001MA1999999100741MD1710011+9999MW1021REMSYN066AAXX  07001 28255 41971 00802 11244 21269 30074 40217 57001 70271;
0179282550999992000010703004+58050+063680FM-12+007199999V0200701N002019999999N0060001N1-02481-02731102181ADDAJ100599199999999AY171031AY221031GF108991081001999999071999IA1239MD1310011+9999MW1711REMSYN082AAXX  07031 28255 /1956 80702 11248 21273 40218 53001 77172 8807/ 333 47059 55000;
0180282550999992000010706004+58050+063680FM-12+007199999V0209999C000019999999N0060001N1-02461-02701102201ADDAA100000591AY171061AY221061GF108991081001999999071999KA1999N-02521MD1210021+9999MW1711REMSYN082AAXX  07061 28255 11956 80000 11246 21270 40220 52002 69960 77172 8807/ 333 21252;
0140282550999992000010709004+58050+063680FM-12+007199999V0200601N002019999999N0060001N1-02401-02651102241ADDAY171031AY221031GF108991081001999999071999MD1210041+9999MW1711REMSYN066AAXX  07091 28255 41956 80602 11240 21265 40224 52004 77172 8807/;
0171282550999992000010712004+58050+063680FM-12+007199999V0200701N002012200019N0200001N1-02601-02841102261ADDAY171061AY211061GA1001+999999999GF100991001001999999001001MA1999999100821MD1210011+9999MW1021REMSYN066AAXX  07121 28255 41970 00702 11260 21284 30082 40226 52001 70271;
0163282550999992000010715004+58050+063680FM-12+007199999V0200601N003019999999N0060001N1-02691-02931102281ADDAY171031AY211031GF105991051001999999071001KA1999M-02401MD1210021+9999MW1711REMSYN076AAXX  07151 28255 /1956 50603 11269 21293 40228 52002 77171 85070 333 11240;
0180282550999992000010718004+58050+063680FM-12+007199999V0200401N002019999999N0060001N1-02781-03031102281ADDAA100001091AY171061AY211061GF106991061001999999071001KA1999M-02401MD1810021+9999MW1711REMSYN082AAXX  07181 28255 11956 60402 11278 21303 40228 58002 60010 77171 86070 333 11240;
0140282550999992000010721004+58050+063680FM-12+007199999V0200601N003019999999N0060001N1-02781-03031102281ADDAY171031AY221031GF108991081001999999071999MD1410001+9999MW1711REMSYN066AAXX  07211 28255 41956 80603 11278 21303 40228 54000 77172 8807/;
0161282550999992000010800004+58050+063680FM-12+007199999V0200501N002019999999N0070001N1-02831-03061102281ADDAY171061AY221061GF108991081001999999071999MA1999999100821MD1410001+9999MW1711REMSYN072AAXX  08001 28255 41957 80502 11283 21306 30082 40228 54000 77172 8807/;
0179282550999992000010803004+58050+063680FM-12+007199999V0200501N001019999999N0060001N1-02831-03061102291ADDAJ100599199999999AY171031AY221031GF108991081001999999071999IA1239MD1310011+9999MW1711REMSYN082AAXX  08031 28255 /1956 80501 11283 21306 40229 53001 77172 8807/ 333 47059 55000;
0180282550999992000010806004+58050+063680FM-12+007199999V0200601N001019999999N0080001N1-02841-03081102371ADDAA100000591AY171061AY221061GF108991081001999999071999KA1999N-02881MD1210081+9999MW1711REMSYN082AAXX  08061 28255 11958 80601 11284 21308 40237 52008 69950 77172 8807/ 333 21288;
0140282550999992000010809004+58050+063680FM-12+007199999V0200601N001019999999N0500001N1-02701-03011102331ADDAY171031AY221031GF108991061001999999031011MD1810021+9999MW1021REMSYN066AAXX  08091 28255 41999 80601 11270 21301 40233 58002 70272 86031;
0161282550999992000010812004+58050+063680FM-12+007199999V0209999C000019999999N0280001N1-02711-03011102341ADDAY171061AY221061GF108991051001999999031011MA1999999100891MD1410001+9999MW1021REMSYN072AAXX  08121 28255 41978 80000 11271 21301 30089 40234 54000 70272 85031;
0163282550999992000010815004+58050+063680FM-12+007199999V0201001N002019999999N0060001N1-02761-02991102351ADDAY171031AY221031GF108991081001999999071999KA1999M-02691MD1410001+9999MW1711REMSYN076AAXX  08151 28255 /1956 81002 11276 21299 40235 54000 77172 8807/ 333 11269;
0180282550999992000010818004+58050+063680FM-12+007199999V0209999C000019999999N0080001N1-02711-02941102351ADDAA100001091AY171061AY221061GF108991081001999999071999KA1999M-02691MD1310011+9999MW1711REMSYN082AAXX  08181 28255 11958 80000 11271 21294 40235 53001 60010 77172 8807/ 333 11269;
0140282550999992000010821004+58050+063680FM-12+007199999V0201101N002019999999N0250001N1-02671-02911102351ADDAY171031AY221031GF108991081001999999071999MD1210011+9999MW1021REMSYN066AAXX  08211 28255 41975 81102 11267 21291 40235 52001 70272 8807/;
0161282550999992000010900004+58050+063680FM-12+007199999V0201201N003019999999N0210001N1-02751-02991102301ADDAY171061AY221061GF108991081001999999071999MA1999999100841MD1810071+9999MW1021REMSYN072AAXX  09001 28255 41971 81203 11275 21299 30084 40230 58007 70272 8807/;
0209282550999992000010903004+58050+063680FM-12+007199999V0201401N001010063019N0050001N1-02551-02801102161ADDAJ100619199999999AY181031AY221031GA1061+006309099GF108991081031008001999999GJ100009IA1239MD1710121+9999MW1851REMSYN088AAXX  09031 28255 /1550 81401 11255 21280 40216 57012 78582 883// 333 47061 55000 86921;
0140282550999992000010909004+58050+063680FM-12+007199999V0201401N001019999999N0500001N1-02111-02361101921ADDAY181031AY221031GF108991081001999999071999MD1710151+9999MW1021REMSYN066AAXX  09091 28255 41999 81401 11211 21236 40192 57015 70282 8807/;
0161282550999992000010912004+58050+063680FM-12+007199999V0201501N002019999999N0200001N1-01911-02171101741ADDAY181061AY221061GF108991081001999999071999MA1999999100341MD1710171+9999MW1021REMSYN072AAXX  09121 28255 41970 81502 11191 21217 30034 40174 57017 70282 8807/;
0163282550999992000010915004+58050+063680FM-12+007199999V0201601N002019999999N0090001N1-01651-01841101391ADDAY171031AY221031GF108991081001999999071999KA1999M-01651MD1710321+9999MW1711REMSYN076AAXX  09151 28255 /1959 81602 11165 21184 40139 57032 77172 8807/ 333 11165;
0199282550999992000010918004+58050+063680FM-12+007199999V0202001N007019999999N0032001N1-01181-01381100941ADDAA100000391AY171061AY221061GF108991081001999999071999KA1999M+99999MD1710431+9999MW1731REMSYN082AAXX  09181 28255 11932 82007 11118 21138 40094 57043 69930 77372 8807/ 333 11165;EQDQ01 -01652ATMX  
0140282550999992000010921004+58050+063680FM-12+007199999V0202101N007019999999N0060001N1-00871-01021100741ADDAY171031AY231031GF108991081001999999071999MD1710181+9999MW1711REMSYN066AAXX  09211 28255 41956 82107 11087 21102 40074 57018 77173 8807/;
0161282550999992000011000004+58050+063680FM-12+007199999V0202201N006019999999N0090001N1-00571-00711100691ADDAY171061AY221061GF108991081001999999071999MA1999999099371MD1710041+9999MW1711REMSYN072AAXX  10001 28255 41959 82206 11057 21071 39937 40069 57004 77172 8807/;
0179282550999992000011003004+58050+063680FM-12+007199999V0202301N005019999999N0140001N1-00481-00611100661ADDAJ100649199999999AY171031AY221031GF106991061001999999031001IA1239MD1710021+9999MW1021REMSYN082AAXX  10031 28255 /1964 62305 11048 21061 40066 57002 70272 86030 333 47064 55000;
0202282550999992000011006004+58050+063680FM-12+007199999V0202401N006010057019N0500001N1-00281-00411100731ADDAA100003091AY181061AY221061GA1081+005709099GF108991081031999999999999KA1120N-01651MD1310081+9999MW1261REMSYN088AAXX  10061 28255 11999 82406 11028 21041 40073 53008 60030 72682 883// 333 21165 88919;
0166282550999992000011009004+58050+063680FM-12+007199999V0202301N005010063019N0090001N1-00141-00311100761ADDAY181031AY221031GA1081+006309099GF108991081031999999999999MD1210041+9999MW1851REMSYN076AAXX  10091 28255 41959 82305 11014 21031 40076 52004 78582 883// 333 88921;
0187282550999992000011012004+58050+063680FM-12+007199999V0202401N006010057019N0200001N1-00101-00291100811ADDAY171061AY221061GA1081+005709099GF108991081031004501999999MA1999999099511MD1210041+9999MW1021REMSYN082AAXX  10121 28255 41470 82406 11010 21029 39951 40081 52004 70272 883// 333 88919;
0157282550999992000011015004+58050+063680FM-12+007199999V0202401N004010054019N0250001N1-00061-00241100821ADDGA1061+005409099GF108991081031004501999999KA1120M-00061MD1210021+9999REMSYN076AAXX  10151 28255 /2475 82404 11006 21024 40082 52002 883// 333 11006 86918;
0174282550999992000011018004+58050+063680FM-12+007199999V0202301N004010051019N0240001N1-00041-00251100831ADDAA112000391GA1061+005109099GF108991081031004501999999KA1120M-00061MD1210011+9999REMSYN082AAXX  10181 28255 12474 82304 11004 21025 40083 52001 69932 883// 333 11006 86917;
0138282550999992000011021004+58050+063680FM-12+007199999V0202501N005010048019N0230001N1-00031-00241100851ADDGA1061+004809099GF108991081031999999999999MD1210021+9999REMSYN070AAXX  10211 28255 42973 82505 11003 21024 40085 52002 883// 333 86916;
0159282550999992000011100004+58050+063680FM-12+007199999V0202301N005010054019N0230001N1-00061-00271100841ADDGA1061+005409099GF108991081031004501999999MA1999999099551MD1810011+9999REMSYN076AAXX  11001 28255 42473 82305 11006 21027 39955 40084 58001 883// 333 86918;
0181282550999992000011103004+58050+063680FM-12+007199999V0202401N004019999999N0220001N1-00121-00411100841ADDAA106000091AJ100589199999999GF108991081001999999031999IA1239MD1410001+9999REMSYN076AAXX  11031 28255 32972 82404 11012 21041 40084 54000 8803/ 333 47058 55000;EQDQ01  00002PRCP06
0165282550999992000011106004+58050+063680FM-12+007199999V0202401N005010300019N0500001N1-00091-00381100891ADDAA106000091GF108991031031008001031001KA1999N-00161MD1310051+9999REMSYN070AAXX  11061 28255 32599 82405 11009 21038 40089 53005 83330 333 21016;EQDQ01  00002PRCP06
0111282550999992000011109004+58050+063680FM-12+007199999V0202401N004019999999N0500001N1-00101-00391100901ADDGF108991999999008001999999MD1210011+9999REMSYN059AAXX  11091 28255 42599 82404 11010 21039 40090 52001 8330;
0159282550999992000011112004+58050+063680FM-12+007199999V0202401N005010072019N0250001N1-00141-00441100991ADDGA1081+007209059GF108991081051008001999999MA1999999099691MD1210081+9999REMSYN076AAXX  11121 28255 42575 82405 11014 21044 39969 40099 52008 885// 333 88624;
0187282550999992000011115004+58050+063680FM-12+007199999V0202401N003010063019N0240001N1-00201-00451101021ADDAA106000091GA1081+006309099GF108991081031008001999999KA1120M-00061MD1210021+9999REMSYN076AAXX  11151 28255 32574 82403 11020 21045 40102 52002 883// 333 11006 88921;EQDQ01  00002PRCP06
0196282550999992000011118004+58050+063680FM-12+007199999V0202401N004010057019N0070001N1-00261-00491101001ADDAA106000021AY171061AY221061GA1081+005709099GF108991081031004501999999KA1120M-00061MD1810011+9999MW1711REMSYN082AAXX  11181 28255 31457 82404 11026 21049 40100 58001 77172 883// 333 11006 88919;
0140282550999992000011121004+58050+063680FM-12+007199999V0202601N004019999999N0060001N1-00321-00491101081ADDAY171031AY221031GF108991081001999999031999MD1310061+9999MW1021REMSYN066AAXX  11211 28255 41956 82604 11032 21049 40108 53006 70272 8803/;
0133282550999992000011200004+58050+063680FM-12+007199999V0202601N005019999999N0060001N1-00261-00451101191ADDGF108991081001999999031999MA1999999099891MD1210131+9999REMSYN066AAXX  12001 28255 42956 82605 11026 21045 39989 40119 52013 8803/;
0200282550999992000011203004+58050+063680FM-12+007199999V0202701N004010057019N0220001N1-00281-00511101281ADDAJ100559199999999GA1081+005709099GF108991999031004501031999GJ100009IA1239MD1210091+9999REMSYN082AAXX  12031 28255 /2472 82704 11028 21051 40128 52009 8833/ 333 47055 55000 88919;EQDQ01+000082SCOTLC
0171282550999992000011206004+58050+063680FM-12+007199999V0202601N004019999999N0500001N1-00421-00651101481ADDAA100000791GF105991051001999999031001KA1999N+99999MD1210191+9999REMSYN076AAXX  12061 28255 12999 52604 11042 21065 40148 52019 69900 85030 333 21036;EQDQ01 -00362ATMN  
0138282550999992000011209004+58050+063680FM-12+007199999V0202701N005010063019N0500001N1-00381-00711101471ADDGA1061+006309099GF108991081031008001999999MD1810011+9999REMSYN070AAXX  12091 28255 42599 82705 11038 21071 40147 58001 883// 333 86921;
0187282550999992000011212004+58050+063680FM-12+007199999V0202601N004010066019N0210001N1-00481-00841101541ADDAY181061AY221061GA1061+006609099GF108991081031008001999999MA1999999100231MD1310071+9999MW1021REMSYN082AAXX  12121 28255 41571 82604 11048 21084 30023 40154 53007 70282 883// 333 86922;
0135282550999992000011215004+58050+063680FM-12+007199999V0202301N004019999999N0250001N1-00651-00891101551ADDGF108991081001999999071999KA1999M-00271MD1410001+9999REMSYN070AAXX  12151 28255 /2975 82304 11065 21089 40155 54000 8807/ 333 11027;
0174282550999992000011218004+58050+063680FM-12+007199999V0202401N004010057019N0230001N1-00621-00811101451ADDAA100000791GA1061+005709099GF108991081031004501999999KA1120M-00271MD1810101+9999REMSYN082AAXX  12181 28255 12473 82404 11062 21081 40145 58010 69900 883// 333 11027 86919;
0166282550999992000011221004+58050+063680FM-12+007199999V0202101N003010054019N0080001N1-00681-00841101391ADDAY181031AY221031GA1061+005409099GF108991081031004501999999MD1710061+9999MW1851REMSYN076AAXX  12211 28255 41458 82103 11068 21084 40139 57006 78582 883// 333 86918;
0187282550999992000011300004+58050+063680FM-12+007199999V0202201N002010060019N0220001N1-00621-00741101351ADDAY181061AY221061GA1061+006009099GF108991081031008001999999MA1999999100031MD1710041+9999MW1021REMSYN082AAXX  13001 28255 41572 82202 11062 21074 30003 40135 57004 70282 883// 333 86920;
0181282550999992000011303004+58050+063680FM-12+007199999V0202101N001010063019N0210001N1-00621-00741101361ADDAJ100569199999999GA1061+006309099GF108991081031008001999999GJ100009IA1239MD1310011+9999REMSYN082AAXX  13031 28255 /2571 82101 11062 21074 40136 53001 883// 333 47056 55000 86921;
0202282550999992000011306004+58050+063680FM-12+007199999V0202501N001010063019N0060001N1-00481-00581101501ADDAA100000191AY181061AY221061GA1061+006309099GF108991081031008001999999KA1120N-00741MD1210151+9999MW1851REMSYN088AAXX  13061 28255 11556 82501 11048 21058 40150 52015 69920 78582 883// 333 21074 86921;
0166282550999992000011309004+58050+063680FM-12+007199999V0202701N002010060019N0500001N1-00381-00501101501ADDAY181031AY221031GA1061+006009099GF108991081031008001999999MD1410001+9999MW1021REMSYN076AAXX  13091 28255 41599 82702 11038 21050 40150 54000 70282 883// 333 86920;
0187282550999992000011312004+58050+063680FM-12+007199999V0202401N002010057019N0220001N1-00401-00521101591ADDAY181061AY221061GA1061+005709099GF108991081031004501999999MA1999999100271MD1310081+9999MW1021REMSYN082AAXX  13121 28255 41472 82402 11040 21052 30027 40159 53008 70282 883// 333 86919;
0157282550999992000011315004+58050+063680FM-12+007199999V0202001N003010078019N0110001N1-00421-00541101441ADDGA1061+007809059GF108991081031008001999999KA1120M-00381MD1810141+9999REMSYN076AAXX  13151 28255 /2561 82003 11042 21054 40144 58014 883// 333 11038 86626;
0174282550999992000011318004+58050+063680FM-12+007199999V0201901N004010081019N0140001N1-00431-00551101151ADDAA100000791GA1051+008109059GF108991081031999999999999KA1120M-00381MD1710291+9999REMSYN082AAXX  13181 28255 12964 81904 11043 21055 40115 57029 69900 883// 333 11038 85627;
0142282550999992000011321004+58050+063680FM-12+007199999V0201901N005010075019N0130001N1-00461-00621100681ADDGA1061+007509059GF108991081031008001999999MD1710471+9999REMSYN074    AAXX  13211 28255 42563 81905 11046 21062 40068 57047 883// 333 86625;
0191282550999992000011400004+58050+063680FM-12+007199999V0201901N007010039019N0050001N1-00381-00461100121ADDAY181061AY231061GA1071+003909099GF108991081031008001999999MA1999999098821MD1710551+9999MW1851REMSYN086    AAXX  14001 28255 41550 81907 11038 21046 39882 40012 57055 78583 883// 333 87913;
0213282550999992000011403004+58050+063680FM-12+007199999V0202301N004010060019N0080001N1-00251-00381099861ADDAJ100609199999999AY181031AY231031GA1071+006009099GF108991081031008001999999GJ100009IA1239MD1810241+9999MW1851REMSYN092    AAXX  14031 28255 /1558 82304 11025 21038 49986 58024 78583 883// 333 47060 55000 87920;
0206282550999992000011406004+58050+063680FM-12+007199999V0202601N005010060019N0500001N1-00161-00331099871ADDAA100004191AY181061AY221061GA1081+006009099GF108991081031008001999999KA1120N-00461MD1310011+9999MW1021REMSYN092    AAXX  14061 28255 11599 82605 11016 21033 49987 53001 60040 70282 883// 333 21046 88920;
0142282550999992000011409004+58050+063680FM-12+007199999V0202601N007010093019N0500001N1-00041-00341099911ADDGA1061+009309059GF107991071031008001999999MD1210031+9999REMSYN074    AAXX  14091 28255 42599 72607 11004 21034 49991 52003 873// 333 86631;
0191282550999992000011412004+58050+063680FM-12+007199999V0203001N007010060019N0220001N1-00241-00571100111ADDAY181061AY231061GA1061+006009059GF108991061031008001031999MA1999999098821MD1210201+9999MW1261REMSYN086    AAXX  14121 28255 41572 83007 11024 21057 39882 40011 52020 72683 8633/ 333 86620;
0161282550999992000011415004+58050+063680FM-12+007199999V0202801N006010057019N0210001N1-01121-01471100671ADDGA1081+005709099GF108991081031004501999999KA1120M-00021MD1210511+9999REMSYN080    AAXX  14151 28255 /2471 82806 11112 21147 40067 52051 883// 333 11002 88919;
0156282550999992000011418004+58050+063680FM-12+007199999V0203001N004019999999N0200001N1-01831-02161101081ADDAA100001091GF105991051001999999031001KA1999M-00021MD1210371+9999REMSYN080    AAXX  14181 28255 12970 53004 11183 21216 40108 52037 60010 85030 333 11002;
0126282550999992000011421004+58050+063680FM-12+007199999V0203101N005012200019N0210001N1-02271-02591101371ADDGA1001+999999999GF100991001001999999001001MD1210271+9999REMSYN058    AAXX  14211 28255 42971 03105 11227 21259 40137 52027;
0147282550999992000011500004+58050+063680FM-12+007199999V0202801N005012200019N0220001N1-02661-02971101721ADDGA1001+999999999GF100991001001999999001001MA1999999100281MD1210321+9999REMSYN064    AAXX  15001 28255 42972 02805 11266 21297 30028 40172 52032;
0147282550999992000011501004+58050+063680FM-12+007199999V0202801N005012200019N0220001N1-02661-02971101721ADDGA1001+999999999GF100991001001999999001001MA1999999100281MD1210321+9999REMSYN064    AAXX  15011 28255 42972 02805 11266 21297 30028 40172 52032;
0211282550999992000011503004+58050+063680FM-12+007199999V0202801N006012200019N0210001N1-02761-03061101951ADDAA199000091AJ199999999999999GA1001+999999999GF100991001001999999001001IA1239MD1210221+9999REMSYN074    AAXX  15031 28255 32971 02806 11276 21306 40195 52022 333 47508 55003;EQDQ01  00002PRCP99Q02  05082SNDP  
0195282550999992000011506004+58050+063680FM-12+007199999V0202801N005012200019N0500001N1-02901-03201102291ADDAA199000091GA1001+999999999GF100991001001999999001001KA1999N+99999MD1210321+9999REMSYN068    AAXX  15061 28255 32999 02805 11290 21320 40229 52032 333 21281;EQDQ01  00002PRCP99Q02 -02812ATMN  
0126282550999992000011509004+58050+063680FM-12+007199999V0202701N006012200019N0500001N1-02701-03011102421ADDGA1001+999999999GF100991001001999999001001MD1210151+9999REMSYN058    AAXX  15091 28255 42999 02706 11270 21301 40242 52015;
0147282550999992000011512004+58050+063680FM-12+007199999V0202701N003012200019N0250001N1-02861-03161102681ADDGA1001+999999999GF100991001001999999001001MA1999999101221MD1210241+9999REMSYN064    AAXX  15121 28255 42975 02703 11286 21316 30122 40268 52024;
0179282550999992000011515004+58050+063680FM-12+007199999V0202901N003012200019N0240001N1-02921-03221102781ADDAA199000091GA1001+999999999GF100991001001999999001001KA1999M-02691MD1210081+9999REMSYN068    AAXX  15151 28255 32974 02903 11292 21322 40278 52008 333 11269;EQDQ01  00002PRCP99
0179282550999992000011518004+58050+063680FM-12+007199999V0201701N002012200019N0230001N1-02901-03201102771ADDAA199000091GA1001+999999999GF100991001001999999001001KA1999M-02691MD1810011+9999REMSYN068    AAXX  15181 28255 32973 01702 11290 21320 40277 58001 333 11269;EQDQ01  00002PRCP99
0126282550999992000011521004+58050+063680FM-12+007199999V0201201N002012200019N0210001N1-03241-03551102711ADDGA1001+999999999GF100991001001999999001001MD1710061+9999REMSYN058    AAXX  15211 28255 42971 01202 11324 21355 40271 57006;
0137282550999992000011600004+58050+063680FM-12+007199999V0201101N002019999999N0220001N1-02741-03041102511ADDGF108991081001999999071999MA1999999101051MD1710181+9999REMSYN070    AAXX  16001 28255 42972 81102 11274 21304 30105 40251 57018 8807/;
0185282550999992000011603004+58050+063680FM-12+007199999V0201301N002019999999N0200001N1-02441-02761102281ADDAA199000091AJ100589199999999GF108991081001999999071999IA1239MD1710201+9999REMSYN080    AAXX  16031 28255 32970 81302 11244 21276 40228 57020 8807/ 333 47058 55034;EQDQ01  00002PRCP99
0197282550999992000011606004+58050+063680FM-12+007199999V0201401N002019999999N0150001N1-02071-02321102001ADDAA199000091AY171061AY221061GF108991061001999999031011KA1999N-03251MD1710251+9999MW1021REMSYN080    AAXX  16061 28255 31965 81402 11207 21232 40200 57025 70272 86031 333 21325;EQDQ01  00002PRCP99
0144282550999992000011609004+58050+063680FM-12+007199999V0201401N002019999999N0500001N1-01491-01761101891ADDAY171031AY221031GF108991081001999999071999MD1710081+9999MW1021REMSYN070    AAXX  16091 28255 41999 81402 11149 21176 40189 57008 70272 8807/;
0165282550999992000011612004+58050+063680FM-12+007199999V0201401N002019999999N0170001N1-01331-01601101781ADDAY171061AY221061GF108991081001999999031999MA1999999100411MD1710111+9999MW1021REMSYN076    AAXX  16121 28255 41967 81402 11133 21160 30041 40178 57011 70272 8803/;
0139282550999992000011615004+58050+063680FM-12+007199999V0201601N002019999999N0210001N1-01121-01321101651ADDGF108991081001999999071999KA1999M-01121MD1710121+9999REMSYN074    AAXX  16151 28255 /2971 81602 11112 21132 40165 57012 8807/ 333 11112;
0184282550999992000011618004+58050+063680FM-12+007199999V0201601N003019999999N0220001N1-01081-01281101461ADDAA100000591AY171061AY221061GF108991081001999999071999KA1999M-01121MD1710171+9999MW1021REMSYN086    AAXX  16181 28255 11972 81603 11108 21128 40146 57017 69950 70272 8807/ 333 11112;
0116282550999992000011621004+58050+063680FM-12+007199999V0201801N003019999999N0210001N1-01001-01201101251ADDGF108991081001999999071999MD1710211+9999REMSYN064    AAXX  16211 28255 42971 81803 11100 21120 40125 57021 8807/;
0137282550999992000011700004+58050+063680FM-12+007199999V0201701N003019999999N0230001N1-00951-01111101081ADDGF108991081001999999071999MA1999999099741MD1710171+9999REMSYN070    AAXX  17001 28255 42973 81703 11095 21111 39974 40108 57017 8807/;
0155282550999992000011703004+58050+063680FM-12+007199999V0201801N004019999999N0200001N1-00921-01081100891ADDAJ100589199999999GF108991081001999999071999IA1239MD1710181+9999REMSYN080    AAXX  17031 28255 /2970 81804 11092 21108 40089 57018 8807/ 333 47058 55000;
0184282550999992000011706004+58050+063680FM-12+007199999V0202001N006019999999N0500001N1-00841-01071100801ADDAA100000791AY171061AY221061GF108991081001999999071999KA1999N-01121MD1710091+9999MW1021REMSYN086    AAXX  17061 28255 11999 82006 11084 21107 40080 57009 69900 70272 8807/ 333 21112;
0116282550999992000011709004+58050+063680FM-12+007199999V0202201N005019999999N0500001N1-00761-01061100761ADDGF108991081001999999071999MD1710021+9999REMSYN064    AAXX  17091 28255 42999 82205 11076 21106 40076 57002 8807/;
0137282550999992000011712004+58050+063680FM-12+007199999V0201801N002019999999N0230001N1-01181-01381100811ADDGF108991001001999999001011MA1999999099461MD1310011+9999REMSYN070    AAXX  17121 28255 42973 81802 11118 21138 39946 40081 53001 80001;
0139282550999992000011715004+58050+063680FM-12+007199999V0201701N002019999999N0260001N1-01171-01371100881ADDGF108991081001999999031999KA1999M-00761MD1210071+9999REMSYN074    AAXX  17151 28255 /2976 81702 11117 21137 40088 52007 8803/ 333 11076;
0156282550999992000011718004+58050+063680FM-12+007199999V0201601N002019999999N0190001N1-01731-01921100891ADDAA100000791GF105991001001999999001011KA1999M-00761MD1810021+9999REMSYN080    AAXX  17181 28255 12969 51602 11173 21192 40089 58002 69900 80001 333 11076;
0116282550999992000011721004+58050+063680FM-12+007199999V0201201N001019999999N0170001N1-01931-02121100921ADDGF105991001001999999001011MD1310021+9999REMSYN064    AAXX  17211 28255 42967 51201 11193 21212 40092 53002 80001;
0137282550999992000011800004+58050+063680FM-12+007199999V0201101N001019999999N0180001N1-01991-02181101061ADDGF108991051001999999031011MA1999999099671MD1210141+9999REMSYN070    AAXX  18001 28255 42968 81101 11199 21218 39967 40106 52014 85031;
0185282550999992000011803004+58050+063680FM-12+007199999V0201201N001019999999N0150001N1-01721-01911100921ADDAA199000091AJ100589199999999GF108991081001999999071999IA1239MD1810101+9999REMSYN080    AAXX  18031 28255 32965 81201 11172 21191 40092 58010 8807/ 333 47058 55008;EQDQ01  00002PRCP99
0169282550999992000011806004+58050+063680FM-12+007199999V0201701N002019999999N0500001N1-01591-01721100941ADDAA199000091GF105991051001999999031001KA1999N-02001MD1410001+9999REMSYN074    AAXX  18061 28255 32999 51702 11159 21172 40094 54000 85030 333 21200;EQDQ01  00002PRCP99
0116282550999992000011809004+58050+063680FM-12+007199999V0201401N001019999999N0500001N1-01341-01541100931ADDGF105991051001999999031011MD1410001+9999REMSYN064    AAXX  18091 28255 42999 51401 11134 21154 40093 54000 85031;
0137282550999992000011812004+58050+063680FM-12+007199999V0201501N001019999999N0230001N1-01481-01681101001ADDGF106991061001999999031011MA1999999099641MD1310071+9999REMSYN070    AAXX  18121 28255 42973 61501 11148 21168 39964 40100 53007 86031;
0179282550999992000011815004+58050+063680FM-12+007199999V0201701N001012200019N0240001N1-01731-01921101151ADDAA199000091GA1001+999999999GF100991001001999999001001KA1999M-01341MD1210121+9999REMSYN068    AAXX  18151 28255 32974 01701 11173 21192 40115 52012 333 11134;EQDQ01  00002PRCP99
0179282550999992000011818004+58050+063680FM-12+007199999V0201201N002012200019N0220001N1-01771-01961101221ADDAA199000091GA1001+999999999GF100991001001999999001001KA1999M-01341MD1210071+9999REMSYN068    AAXX  18181 28255 32972 01202 11177 21196 40122 52007 333 11134;EQDQ01  00002PRCP99
0126282550999992000011821004+58050+063680FM-12+007199999V0201401N002012200019N0230001N1-01831-02021101391ADDGA1001+999999999GF100991001001999999001001MD1210171+9999REMSYN058    AAXX  18211 28255 42973 01402 11183 21202 40139 52017;
0147282550999992000011900004+58050+063680FM-12+007199999V0201401N002012200019N0210001N1-01811-02001101491ADDGA1001+999999999GF100991001001999999001001MA1999999100101MD1210101+9999REMSYN064    AAXX  19001 28255 42971 01402 11181 21200 30010 40149 52010;
0195282550999992000011903004+58050+063680FM-12+007199999V0201701N002012200019N0200001N1-01931-02121101541ADDAA199000091AJ100589199999999GA1001+999999999GF100991001001999999001001IA1239MD1210041+9999REMSYN074    AAXX  19031 28255 32970 01702 11193 21212 40154 52004 333 47058 55003;EQDQ01  00002PRCP99
0169282550999992000011906004+58050+063680FM-12+007199999V0201501N001019999999N0500001N1-01821-02011101651ADDAA199000091GF108991001001999999001011KA1999N-01941MD1210121+9999REMSYN074    AAXX  19061 28255 32999 81501 11182 21201 40165 52012 80001 333 21194;EQDQ01  00002PRCP99
0116282550999992000011909004+58050+063680FM-12+007199999V0201201N001019999999N0500001N1-01501-01701101711ADDGF108991001001999999001011MD1210081+9999REMSYN064    AAXX  19091 28255 42999 81201 11150 21170 40171 52008 80001;
0137282550999992000011912004+58050+063680FM-12+007199999V0201401N003019999999N0250001N1-01671-01861101791ADDGF108991001001999999001011MA1999999100411MD1210071+9999REMSYN070    AAXX  19121 28255 42975 81403 11167 21186 30041 40179 52007 80001;
0165282550999992000011915004+58050+063680FM-12+007199999V0201301N002019999999N0240001N1-01791-01911101811ADDAA199000091GF106991061001999999031011KA1999M-01491MD1210011+9999REMSYN070AAXX  19151 28255 32974 61302 11179 21191 40181 52001 86031 333 11149;EQDQ01  00002PRCP99
0165282550999992000011918004+58050+063680FM-12+007199999V0201201N001019999999N0230001N1-01771-01891101711ADDAA199000091GF105991051001999999031011KA1999M-01491MD1810101+9999REMSYN070AAXX  19181 28255 32973 51201 11177 21189 40171 58010 85031 333 11149;EQDQ01  00002PRCP99
0140282550999992000011921004+58050+063680FM-12+007199999V0201201N003019999999N0080001N1-01421-01551101621ADDAY181031AY221031GF108991081001999999031999MD1710061+9999MW1851REMSYN066AAXX  19211 28255 41958 81203 11142 21155 40162 57006 78582 8803/;
0161282550999992000012000004+58050+063680FM-12+007199999V0201201N004019999999N0220001N1-01161-01291101411ADDAY181061AY221061GF108991081001999999031999MA1999999100061MD1710201+9999MW1021REMSYN072AAXX  20001 28255 41972 81204 11116 21129 30006 40141 57020 70282 8803/;
0209282550999992000012003004+58050+063680FM-12+007199999V0201201N003010057019N0070001N1-01081-01211101151ADDAJ100559199999999AY181031AY221031GA1081+005709099GF108991081031004501999999GJ100009IA1239MD1710251+9999MW1851REMSYN088AAXX  20031 28255 /1457 81203 11108 21121 40115 57025 78582 883// 333 47055 55000 88919;
0202282550999992000012006004+58050+063680FM-12+007199999V0201201N005010060019N0500001N1-01021-01151100921ADDAA100000791AY181061AY221061GA1061+006009099GF108991081031008001999999KA1120N-01791MD1710231+9999MW1021REMSYN088AAXX  20061 28255 11599 81205 11102 21115 40092 57023 69900 70282 883// 333 21179 86920;
0138282550999992000012009004+58050+063680FM-12+007199999V0201301N005010060019N0500001N1-00821-01051100641ADDGA1061+006009099GF108991081031008001999999MD1710271+9999REMSYN070AAXX  20091 28255 42599 81305 11082 21105 40064 57027 883// 333 86920;
0187282550999992000012012004+58050+063680FM-12+007199999V0201401N007010057019N0210001N1-00811-01081100431ADDAY131061AY221061GA1061+005709099GF108991081031004501999999MA1999999099111MD1710201+9999MW1361REMSYN082AAXX  20121 28255 41471 81407 11081 21108 39911 40043 57020 73632 883// 333 86919;
0174282550999992000012015004+58050+063680FM-12+007199999V0201201N005019999999N0220001N1-00871-01201100241ADDAA199000021AY131031AY221031GF108991081001999999021999KA1999M-00791MD1710191+9999MW1361REMSYN076AAXX  20151 28255 31972 81205 11087 21120 40024 57019 73632 8802/ 333 11079;
0193282550999992000012018004+58050+063680FM-12+007199999V0201201N006019999999N0200001N1-00961-01261100041ADDAA199000091AY131061AY221061GF108991081001999999071999KA1999M-00791MD1210201+9999MW1361REMSYN076AAXX  20181 28255 31970 81206 11096 21126 40004 52020 73632 8807/ 333 11079;EQDQ01  00002PRCP99
0166282550999992000012021004+58050+063680FM-12+007199999V0201401N004010057019N0050001N1-00861-01011099921ADDAY181031AY231031GA1051+005709099GF108991081031004501999999MD1710111+9999MW1851REMSYN076AAXX  20211 28255 41450 81404 11086 21101 49992 57011 78583 883// 333 85919;
0187282550999992000012100004+58050+063680FM-12+007199999V0201501N001010051019N0060001N1-00821-00921099951ADDAY181061AY231061GA1061+005109099GF108991081031004501999999MA1999999098641MD1310031+9999MW1861REMSYN082AAXX  21001 28255 41456 81501 11082 21092 39864 49995 53003 78683 883// 333 86917;
0179282550999992000012103004+58050+063680FM-12+007199999V0201701N002019999999N0250001N1-00991-01111100291ADDAJ100589199999999AY181031AY221031GF108991001001999999001011IA1239MD1210321+9999MW1021REMSYN082AAXX  21031 28255 /1975 81702 11099 21111 40029 52032 70282 80001 333 47058 55000;
0190282550999992000012106004+58050+063680FM-12+007199999V0201901N004012200019N0500001N1-00851-00961100631ADDAA100003091AY181061AY211061GA1001+999999999GF100991001001999999001001KA1999N-01001MD1210341+9999MW1021REMSYN076AAXX  21061 28255 11999 01904 11085 21096 40063 52034 60030 70281 333 21100;
0112282550999992000012109004+58050+063680FM-12+007199999V0201701N003019999999N0500001N1-00451-00611100881ADDGF106991001001999999001011MD1210271+9999REMSYN060AAXX  21091 28255 42999 61703 11045 21061 40088 52027 80001;
0133282550999992000012112004+58050+063680FM-12+007199999V0201201N001019999999N0170001N1-00781-01091101031ADDGF108991051001999999031011MA1999999099701MD1210131+9999REMSYN066AAXX  21121 28255 42967 81201 11078 21109 39970 40103 52013 85031;
0165282550999992000012115004+58050+063680FM-12+007199999V0201301N003019999999N0200001N1-00521-00811101091ADDAA199000091GF108991081001999999071999KA1999M-00441MD1210081+9999REMSYN070AAXX  21151 28255 32970 81303 11052 21081 40109 52008 8807/ 333 11044;EQDQ01  00002PRCP99
0165282550999992000012118004+58050+063680FM-12+007199999V0201201N004019999999N0210001N1-00601-00831101011ADDAA199000091GF108991081001999999071999KA1999M-00441MD1810091+9999REMSYN070AAXX  21181 28255 32971 81204 11060 21083 40101 58009 8807/ 333 11044;EQDQ01  00002PRCP99
0166282550999992000012121004+58050+063680FM-12+007199999V0201301N003010057019N0070001N1-00561-00671100821ADDAY181031AY221031GA1061+005709099GF108991081031004501999999MD1710191+9999MW1851REMSYN076AAXX  21211 28255 41457 81303 11056 21067 40082 57019 78582 883// 333 86919;
0187282550999992000012200004+58050+063680FM-12+007199999V0201401N002010054019N0060001N1-00541-00611100771ADDAY181061AY221061GA1061+005409099GF108991081031004501999999MA1999999099451MD1710051+9999MW1851REMSYN082AAXX  22001 28255 41456 81402 11054 21061 39945 40077 57005 78582 883// 333 86918;
0209282550999992000012203004+58050+063680FM-12+007199999V0201201N002010051019N0060001N1-00481-00541100741ADDAJ100629199999999AY181031AY221031GA1061+005109099GF108991081031004501999999GJ100969IA1239MD1710021+9999MW1851REMSYN088AAXX  22031 28255 /1456 81202 11048 21054 40074 57002 78582 883// 333 47062 55016 86917;
0202282550999992000012206004+58050+063680FM-12+007199999V0209999C000010057019N0019001N1-00441-00501100811ADDAA100004191AY181061AY221061GA1081+005709099GF108991081031004501999999KA1120N-00621MD1310071+9999MW1851REMSYN088AAXX  22061 28255 11419 80000 11044 21050 40081 53007 60040 78582 883// 333 21062 88919;
0140282550999992000012209004+58050+063680FM-12+007199999V0209999C000019999999N0032001N1-00341-00421100851ADDAY181031AY271031GF108991081001999999021999MD1210051+9999MW1731REMSYN066AAXX  22091 28255 41932 80000 11034 21042 40085 52005 77387 8802/;
0161282550999992000012212004+58050+063680FM-12+007199999V0202701N002019999999N0048001N1-00421-00441100931ADDAY171061AY221061GF108991081001999999021999MA1999999099621MD1210071+9999MW1711REMSYN072AAXX  22121 28255 41948 82702 11042 21044 39962 40093 52007 77172 8802/;
0163282550999992000012215004+58050+063680FM-12+007199999V0202701N003019999999N0060001N1-00501-00571101041ADDAY171031AY221031GF108991081001999999021999KA1999M-00321MD1210101+9999MW1711REMSYN076AAXX  22151 28255 /1956 82703 11050 21057 40104 52010 77172 8802/ 333 11032;
0180282550999992000012218004+58050+063680FM-12+007199999V0202701N003019999999N0210001N1-00721-00771101131ADDAA100006191AY171061AY221061GF108991081001999999021999KA1999M-00321MD1210091+9999MW1021REMSYN082AAXX  22181 28255 11971 82703 11072 21077 40113 52009 60060 70272 8802/ 333 11032;
0112282550999992000012221004+58050+063680FM-12+007199999V0202801N004019999999N0200001N1-00861-00931101321ADDGF108991081001999999031999MD1210181+9999REMSYN060AAXX  22211 28255 42970 82804 11086 21093 40132 52018 8803/;
0190282550999992000012300004+58050+063680FM-12+007199999V0202801N004012200019N0060001N1-00941-01011101361ADDAY181061AY221061GA1001+999999999GF100991001001999999001001MA1999999100021MD1210031+9999REMSYN072AAXX  23001 28255 41956 02804 11094 21101 30002 40136 52003 78582 8803/;EQDQ01+000852PRSWM1
0209282550999992000012303004+58050+063680FM-12+007199999V0202801N004010060019N0060001N1-01041-01101101351ADDAJ100689199999999AY181031AY221031GA1081+006009099GF108991081031008001999999GJ100009IA1239MD1810011+9999MW1851REMSYN088AAXX  23031 28255 /1556 82804 11104 21110 40135 58001 78582 883// 333 47068 55000 88920;
0202282550999992000012306004+58050+063680FM-12+007199999V0202801N005010051019N0060001N1-01041-01171101331ADDAA100000191AY181061AY221061GA1061+005109099GF108991081031004501999999KA1120N-01051MD1710021+9999MW1851REMSYN088AAXX  23061 28255 11456 82805 11104 21117 40133 57002 69920 78582 883// 333 21105 86917;
0166282550999992000012309004+58050+063680FM-12+007199999V0202801N004010060019N0038001N1-01141-01271101331ADDAY181031AY221031GA1061+006009099GF108991081031008001999999MD1710011+9999MW1861REMSYN076AAXX  23091 28255 41538 82804 11114 21127 40133 57001 78682 883// 333 86920;
0187282550999992000012312004+58050+063680FM-12+007199999V0202701N004010057019N0037001N1-01131-01261101331ADDAY181061AY221061GA1051+005709099GF108991081031004501999999MA1999999099981MD1410001+9999MW1861REMSYN082AAXX  23121 28255 41437 82704 11113 21126 39998 40133 54000 78682 883// 333 85919;
0185282550999992000012315004+58050+063680FM-12+007199999V0202601N004010063019N0050001N1-01241-01371101231ADDAY181031AY221031GA1061+006309099GF108991081031008001999999KA1120M-01041MD1810101+9999MW1851REMSYN082AAXX  23151 28255 /1550 82604 11124 21137 40123 58010 78582 883// 333 11104 86921;
0180282550999992000012318004+58050+063680FM-12+007199999V0202601N003019999999N0220001N1-01461-01591101231ADDAA100006191AY181061AY221061GF108991081001999999071999KA1999M-01041MD1710011+9999MW1021REMSYN082AAXX  23181 28255 11972 82603 11146 21159 40123 57001 60060 70282 8807/ 333 11104;
0122282550999992000012321004+58050+063680FM-12+007199999V0202301N002012200019N0250001N1-01631-01761101321ADDGA1001+999999999GF100991001001999999001001MD1310081+9999REMSYN054AAXX  23211 28255 42975 02302 11163 21176 40132 53008;
0143282550999992000012400004+58050+063680FM-12+007199999V0202001N001012200019N0250001N1-02011-02131101361ADDGA1001+999999999GF100991001001999999001001MA1999999099961MD1210011+9999REMSYN060AAXX  24001 28255 42975 02001 11201 21213 39996 40136 52001;
0151282550999992000012403004+58050+063680FM-12+007199999V0202101N002019999999N0220001N1-01981-02171101291ADDAJ100789199999999GF108991081001999999071999IA1239MD1810071+9999REMSYN076AAXX  24031 28255 /2972 82102 11198 21217 40129 58007 8807/ 333 47078 55000;
0135282550999992000012406004+58050+063680FM-12+007199999V0202001N001019999999N0500001N1-01721-01911101291ADDGF108991081001999999071999KA1999N-02091MD1310011+9999REMSYN070AAXX  24061 28255 12999 82001 11172 21191 40129 53001 8807/ 333 21209;
0112282550999992000012409004+58050+063680FM-12+007199999V0209999C000019999999N0500001N1-01481-01611101271ADDGF108991081001999999071999MD1210011+9999REMSYN060AAXX  24091 28255 42999 80000 11148 21161 40127 52001 8807/;
0133282550999992000012412004+58050+063680FM-12+007199999V0209999C000019999999N0190001N1-01451-01651101331ADDGF108991081001999999071999MA1999999099971MD1210061+9999REMSYN066AAXX  24121 28255 42969 80000 11145 21165 39997 40133 52006 8807/;
0175282550999992000012415004+58050+063680FM-12+007199999V0202001N001012200019N0220001N1-01711-01901101451ADDAA199000091GA1001+999999999GF100991001001999999001001KA1999M-01451MD1210091+9999REMSYN064AAXX  24151 28255 32972 02001 11171 21190 40145 52009 333 11145;EQDQ01  00002PRCP99
0165282550999992000012418004+58050+063680FM-12+007199999V0202101N002019999999N0230001N1-01611-01801101461ADDAA199000091GF108991081001999999071999KA1999M-01451MD1210031+9999REMSYN070AAXX  24181 28255 32973 82102 11161 21180 40146 52003 8807/ 333 11145;EQDQ01  00002PRCP99
0122282550999992000012421004+58050+063680FM-12+007199999V0202201N003012200019N0220001N1-01651-01841101511ADDGA1001+999999999GF100991001001999999001001MD1210051+9999REMSYN054AAXX  24211 28255 42972 02203 11165 21184 40151 52005;
0143282550999992000012500004+58050+063680FM-12+007199999V0202401N004012200019N0210001N1-01601-01791101681ADDGA1001+999999999GF100991001001999999001001MA1999999100301MD1210161+9999REMSYN060AAXX  25001 28255 42971 02404 11160 21179 30030 40168 52016;
0191282550999992000012503004+58050+063680FM-12+007199999V0202401N004012200019N0230001N1-01771-02031101791ADDAA199000091AJ100779199999999GA1001+999999999GF100991001001999999001001IA1239MD1210101+9999REMSYN070AAXX  25031 28255 32973 02404 11177 21203 40179 52010 333 47077 55000;EQDQ01  00002PRCP99
0191282550999992000012506004+58050+063680FM-12+007199999V0202301N007012200019N0500001N1-01861-02121101991ADDAA199000091GA1001+999999999GF100991001001999999001001KA1999N+99999MD1210201+9999REMSYN064AAXX  25061 28255 32999 02307 11186 21212 40199 52020 333 21179;EQDQ01  00002PRCP99Q02 -01792ATMN  
0122282550999992000012509004+58050+063680FM-12+007199999V0202401N005012200019N0500001N1-01641-02061102191ADDGA1001+999999999GF100991001001999999001001MD1210201+9999REMSYN054AAXX  25091 28255 42999 02405 11164 21206 40219 52020;
0133282550999992000012512004+58050+063680FM-12+007199999V0202401N005012200019N0500001N1-01771-02101102441ADDGF102991021001999999031001MA1999999101041MD1210241+9999REMSYN066AAXX  25121 28255 42999 22405 11177 21210 30104 40244 52024 82030;
0175282550999992000012515004+58050+063680FM-12+007199999V0202301N005012200019N0160001N1-01771-02181102661ADDAA199000091GA1001+999999999GF100991001001999999001001KA1999M-01601MD1210211+9999REMSYN064AAXX  25151 28255 32966 02305 11177 21218 40266 52021 333 11160;EQDQ01  00002PRCP99
0175282550999992000012518004+58050+063680FM-12+007199999V0202501N004012200019N0170001N1-01901-02231102871ADDAA199000091GA1001+999999999GF100991001001999999001001KA1999M-01601MD1210211+9999REMSYN064AAXX  25181 28255 32967 02504 11190 21223 40287 52021 333 11160;EQDQ01  00002PRCP99
0122282550999992000012521004+58050+063680FM-12+007199999V0202201N004012200019N0180001N1-02101-02351103031ADDGA1001+999999999GF100991001001999999001001MD1210151+9999REMSYN054AAXX  25211 28255 42968 02204 11210 21235 40303 52015;
0143282550999992000012600004+58050+063680FM-12+007199999V0201501N002012200019N0160001N1-02201-02381103191ADDGA1001+999999999GF100991001001999999001001MA1999999101751MD1210141+9999REMSYN060AAXX  26001 28255 42966 01502 11220 21238 30175 40319 52014;
0191282550999992000012603004+58050+063680FM-12+007199999V0201101N002012200019N0150001N1-02171-02351103081ADDAA199000091AJ100769199999999GA1001+999999999GF100991001001999999001001IA1239MD1810101+9999REMSYN070AAXX  26031 28255 32965 01102 11217 21235 40308 58010 333 47076 55031;EQDQ01  00002PRCP99
0165282550999992000012606004+58050+063680FM-12+007199999V0201401N002019999999N0500001N1-01771-02031102881ADDAA199000091GF105991051001999999031001KA1999N-02201MD1710181+9999REMSYN070AAXX  26061 28255 32999 51402 11177 21203 40288 57018 85030 333 21220;EQDQ01  00002PRCP99
0112282550999992000012609004+58050+063680FM-12+007199999V0201501N005019999999N0500001N1-01101-01631102661ADDGF105991051001999999031001MD1710171+9999REMSYN060AAXX  26091 28255 42999 51505 11110 21163 40266 57017 85030;
0133282550999992000012612004+58050+063680FM-12+007199999V0201501N006019999999N0500001N1-01161-01781102551ADDGF108991081001999999071999MA1999999101181MD1710121+9999REMSYN066AAXX  26121 28255 42999 81506 11116 21178 30118 40255 57012 8807/;
0175282550999992000012615004+58050+063680FM-12+007199999V0201501N005012200019N0240001N1-01261-01881102461ADDAA199000091GA1001+999999999GF100991001001999999001001KA1999M-01101MD1710091+9999REMSYN064AAXX  26151 28255 32974 01505 11126 21188 40246 57009 333 11110;EQDQ01  00002PRCP99
0165282550999992000012618004+58050+063680FM-12+007199999V0201501N005019999999N0230001N1-01261-01881102411ADDAA199000091GF108991081001999999071999KA1999M-01101MD1710051+9999REMSYN070AAXX  26181 28255 32973 81505 11126 21188 40241 57005 8807/ 333 11110;EQDQ01  00002PRCP99
0122282550999992000012621004+58050+063680FM-12+007199999V0201301N004012200019N0220001N1-01481-01751102141ADDGA1001+999999999GF100991001001999999001001MD1710281+9999REMSYN054AAXX  26211 28255 42972 01304 11148 21175 40214 57028;
0143282550999992000012700004+58050+063680FM-12+007199999V0201301N004012200019N0210001N1-01491-01691101921ADDGA1001+999999999GF100991001001999999001001MA1999999100551MD1710211+9999REMSYN060AAXX  27001 28255 42971 01304 11149 21169 30055 40192 57021;
0181282550999992000012703004+58050+063680FM-12+007199999V0201301N003019999999N0220001N1-01301-01501101721ADDAA199000091AJ100769199999999GF108991081001999999071999IA1239MD1710191+9999REMSYN076AAXX  27031 28255 32972 81303 11130 21150 40172 57019 8807/ 333 47076 55000;EQDQ01  00002PRCP99
0165282550999992000012706004+58050+063680FM-12+007199999V0201501N003019999999N0500001N1-01051-01251101581ADDAA199000091GF108991081001999999071999KA1999N-01511MD1710121+9999REMSYN070AAXX  27061 28255 32999 81503 11105 21125 40158 57012 8807/ 333 21151;EQDQ01  00002PRCP99
0112282550999992000012709004+58050+063680FM-12+007199999V0201501N004019999999N0500001N1-00851-01131101431ADDGF108991081001999999071999MD1710141+9999REMSYN060AAXX  27091 28255 42999 81504 11085 21113 40143 57014 8807/;
0161282550999992000012712004+58050+063680FM-12+007199999V0201601N004019999999N0080001N1-00801-01021101381ADDAY171061AY221061GF108991081001999999021999MA1999999100051MD1710051+9999MW1711REMSYN072AAXX  27121 28255 41958 81604 11080 21102 30005 40138 57005 77172 8802/;
0173282550999992000012715004+58050+063680FM-12+007199999V0201601N003012200019N0210001N1-00821-01011101371ADDAY171031AY211031GA1001+999999999GF100991001001999999001001KA1999M-00771MD1710011+9999MW1021REMSYN070AAXX  27151 28255 /1971 01603 11082 21101 40137 57001 70271 333 11077;
0190282550999992000012718004+58050+063680FM-12+007199999V0201801N003012200019N0220001N1-00801-00981101511ADDAA100001091AY171061AY211061GA1001+999999999GF100991001001999999001001KA1999M-00771MD1310141+9999MW1021REMSYN076AAXX  27181 28255 11972 01803 11080 21098 40151 53014 69990 70271 333 11077;
0122282550999992000012721004+58050+063680FM-12+007199999V0202001N004012200019N0230001N1-00801-00981101631ADDGA1001+999999999GF100991001001999999001001MD1210111+9999REMSYN054AAXX  27211 28255 42973 02004 11080 21098 40163 52011;
0143282550999992000012800004+58050+063680FM-12+007199999V0202101N001012200019N0240001N1-01061-01191101731ADDGA1001+999999999GF100991001001999999001001MA1999999100381MD1210091+9999REMSYN060AAXX  28001 28255 42974 02101 11106 21119 30038 40173 52009;
0191282550999992000012803004+58050+063680FM-12+007199999V0201701N001012200019N0200001N1-01201-01331101861ADDAA199000091AJ100769199999999GA1001+999999999GF100991001001999999001001IA1239MD1210121+9999REMSYN070AAXX  28031 28255 32970 01701 11120 21133 40186 52012 333 47076 55000;EQDQ01  00002PRCP99
0181282550999992000012806004+58050+063680FM-12+007199999V0209999C000019999999N0500001N1-01341-01471101831ADDAA199000091GF108991051001999999031011KA1999N+99999MD1810041+9999REMSYN070AAXX  28061 28255 32999 80000 11134 21147 40183 58004 85031 333 21122;EQDQ01  00002PRCP99Q02 -01222ATMN  
0112282550999992000012809004+58050+063680FM-12+007199999V0209999C000019999999N0200001N1-01081-01211101741ADDGF108991001001999999001011MD1710071+9999REMSYN060AAXX  28091 28255 42998 80000 11108 21121 40174 57007 80001;
0133282550999992000012812004+58050+063680FM-12+007199999V0209999C000019999999N0200001N1-01171-01301101681ADDGF108991041001999999031011MA1999999100321MD1710071+9999REMSYN066AAXX  28121 28255 42998 80000 11117 21130 30032 40168 57007 84031;
0165282550999992000012815004+58050+063680FM-12+007199999V0202201N004019999999N0220001N1-01141-01491101661ADDAA199000091GF108991081001999999071999KA1999M-01081MD1710021+9999REMSYN070AAXX  28151 28255 32972 82204 11114 21149 40166 57002 8807/ 333 11108;EQDQ01  00002PRCP99
0175282550999992000012818004+58050+063680FM-12+007199999V0202001N004012200019N0250001N1-01571-01841101691ADDAA199000091GA1001+999999999GF100991001001999999001001KA1999M-01081MD1310011+9999REMSYN064AAXX  28181 28255 32975 02004 11157 21184 40169 53001 333 11108;EQDQ01  00002PRCP99
0122282550999992000012821004+58050+063680FM-12+007199999V0202101N005012200019N0240001N1-01601-01791101711ADDGA1001+999999999GF100991001001999999001001MD1210021+9999REMSYN054AAXX  28211 28255 42974 02105 11160 21179 40171 52002;
0143282550999992000012900004+58050+063680FM-12+007199999V0202301N003012200019N0250001N1-01681-01941101801ADDGA1001+999999999GF100991001001999999001001MA1999999100421MD1210091+9999REMSYN060AAXX  29001 28255 42975 02303 11168 21194 30042 40180 52009;
0191282550999992000012903004+58050+063680FM-12+007199999V0201801N001012200019N0260001N1-01771-01961101881ADDAA199000091AJ100769199999999GA1001+999999999GF100991001001999999001001IA1239MD1210071+9999REMSYN070AAXX  29031 28255 32976 01801 11177 21196 40188 52007 333 47076 55000;EQDQ01  00002PRCP99
0175282550999992000012906004+58050+063680FM-12+007199999V0201901N003012200019N0500001N1-01481-01751101951ADDAA199000091GA1001+999999999GF100991001001999999001001KA1999N-01861MD1210091+9999REMSYN064AAXX  29061 28255 32999 01903 11148 21175 40195 52009 333 21186;EQDQ01  00002PRCP99
0112282550999992000012909004+58050+063680FM-12+007199999V0201401N002019999999N0500001N1-01061-01501101871ADDGF108991001001999999001011MD1810061+9999REMSYN060AAXX  29091 28255 42999 81402 11106 21150 40187 58006 80001;
0133282550999992000012912004+58050+063680FM-12+007199999V0201101N002019999999N0500001N1-01281-01711101821ADDGF108991001001999999001011MA1999999100461MD1710061+9999REMSYN066AAXX  29121 28255 42999 81102 11128 21171 30046 40182 57006 80001;
0165282550999992000012915004+58050+063680FM-12+007199999V0201301N002019999999N0130001N1-01251-01681101761ADDAA199000091GF108991001001999999001011KA1999M-01061MD1710061+9999REMSYN070AAXX  29151 28255 32963 81302 11125 21168 40176 57006 80001 333 11106;EQDQ01  00002PRCP99
0175282550999992000012918004+58050+063680FM-12+007199999V0201601N002012200019N0190001N1-01371-01721101671ADDAA199000091GA1001+999999999GF100991001001999999001001KA1999M-01061MD1710101+9999REMSYN064AAXX  29181 28255 32969 01602 11137 21172 40167 57010 333 11106;EQDQ01  00002PRCP99
0112282550999992000012921004+58050+063680FM-12+007199999V0201401N002019999999N0180001N1-01471-01741101641ADDGF108991001001999999001011MD1710031+9999REMSYN060AAXX  29211 28255 42968 81402 11147 21174 40164 57003 80001;
0133282550999992000013000004+58050+063680FM-12+007199999V0201601N001019999999N0160001N1-01541-01811101551ADDGF108991001001999999001011MA1999999100181MD1710091+9999REMSYN066AAXX  30001 28255 42966 81601 11154 21181 30018 40155 57009 80001;
0179282550999992000013003004+58050+063680FM-12+007199999V0201401N001019999999N0070001N1-01271-01471101491ADDAJ100779199999999AY171031AY221031GF108991081001999999071999IA1239MD1710041+9999MW1711REMSYN082AAXX  30031 28255 /1957 81401 11127 21147 40149 57004 77172 8807/ 333 47077 55041;
0180282550999992000013006004+58050+063680FM-12+007199999V0201201N001019999999N0500001N1-01281-01481101411ADDAA100000791AY171061AY211061GF108991081001999999071999KA1999N-01541MD1710081+9999MW1021REMSYN082AAXX  30061 28255 11999 81201 11128 21148 40141 57008 69900 70271 8807/ 333 21154;
0166282550999992000013009004+58050+063680FM-12+007199999V0202101N003010060019N0080001N1-00721-00931101371ADDAY181031AY221031GA1081+006009099GF108991081031004501999999MD1710011+9999MW1861REMSYN076AAXX  30091 28255 41458 82103 11072 21093 40137 57001 78682 883// 333 88920;
0161282550999992000013012004+58050+063680FM-12+007199999V0202201N003012200019N0500001N1-00761-00941101491ADDAY181061AY211061GF103991031001999999031001MA1999999100161MD1310111+9999MW1021REMSYN072AAXX  30121 28255 41999 32203 11076 21094 30016 40149 53011 70281 83030;
0145282550999992000013015004+58050+063680FM-12+007199999V0202401N003012200019N0200001N1-01181-01311101721ADDGA1001+999999999GF100991001001999999001001KA1999M-00701MD1210201+9999REMSYN064AAXX  30151 28255 /2970 02403 11118 21131 40172 52020 333 11070;
0152282550999992000013018004+58050+063680FM-12+007199999V0202601N004019999999N0220001N1-01001-01131101911ADDAA100002091GF108991001001999999001011KA1999M-00701MD1210201+9999REMSYN076AAXX  30181 28255 12972 82604 11100 21113 40191 52020 60020 80001 333 11070;
0122282550999992000013021004+58050+063680FM-12+007199999V0202501N004012200019N0230001N1-01111-01241102121ADDGA1001+999999999GF100991001001999999001001MD1210201+9999REMSYN054AAXX  30211 28255 42973 02504 11111 21124 40212 52020;
0143282550999992000013100004+58050+063680FM-12+007199999V0202301N002012200019N0220001N1-01711-01831102261ADDGA1001+999999999GF100991001001999999001001MA1999999100861MD1210101+9999REMSYN060AAXX  31001 28255 42972 02302 11171 21183 30086 40226 52010;
0191282550999992000013103004+58050+063680FM-12+007199999V0202001N002012200019N0240001N1-01611-01741102371ADDAA199000091AJ100779199999999GA1001+999999999GF100991001001999999001001IA1239MD1210121+9999REMSYN070AAXX  31031 28255 32974 02002 11161 21174 40237 52012 333 47077 55000;EQDQ01  00002PRCP99
0175282550999992000013106004+58050+063680FM-12+007199999V0202001N003012200019N0500001N1-01511-01641102371ADDAA199000091GA1001+999999999GF100991001001999999001001KA1999N-01731MD1210011+9999REMSYN064AAXX  31061 28255 32999 02003 11151 21164 40237 52001 333 21173;EQDQ01  00002PRCP99
0122282550999992000013109004+58050+063680FM-12+007199999V0201601N001012200019N0500001N1-01081-01281102331ADDGA1001+999999999GF100991001001999999001001MD1810021+9999REMSYN054AAXX  31091 28255 42999 01601 11108 21128 40233 58002;
0133282550999992000013112004+58050+063680FM-12+007199999V0201201N003019999999N0500001N1-01121-01251102251ADDGF108991081001999999071999MA1999999100891MD1710081+9999REMSYN066AAXX  31121 28255 42999 81203 11112 21125 30089 40225 57008 8807/;
0175282550999992000013115004+58050+063680FM-12+007199999V0201301N002012200019N0280001N1-01351-01481102231ADDAA199000091GA1001+999999999GF100991001001999999001001KA1999M-01081MD1710041+9999REMSYN064AAXX  31151 28255 32978 01302 11135 21148 40223 57004 333 11108;EQDQ01  00002PRCP99
0165282550999992000013118004+58050+063680FM-12+007199999V0201301N002019999999N0240001N1-01141-01271102101ADDAA199000091GF105991051001999999031001KA1999M-01081MD1710111+9999REMSYN070AAXX  31181 28255 32974 51302 11114 21127 40210 57011 85030 333 11108;EQDQ01  00002PRCP99
0112282550999992000013121004+58050+063680FM-12+007199999V0201301N001019999999N0210001N1-00971-01091101901ADDGF108991081001999999071999MD1710191+9999REMSYN060AAXX  31211 28255 42971 81301 11097 21109 40190 57019 8807/;
0133282550999992000020100004+58050+063680FM-12+007199999V0201401N003019999999N0230001N1-00941-01011101701ADDGF108991081001999999071999MA1999999100351MD1710201+9999REMSYN066AAXX  01001 28255 42973 81403 11094 21101 30035 40170 57020 8807/;
0181282550999992000020103004+58050+063680FM-12+007199999V0201401N002012200019N0250001N1-00881-00991101541ADDAA199000091AJ100749199999999GF102991021001999999031001IA1239MD1710141+9999REMSYN076AAXX  01031 28255 32975 21402 11088 21099 40154 57014 82030 333 47074 55020;EQDQ01  00002PRCP99
0165282550999992000020106004+58050+063680FM-12+007199999V0201401N002010300019N0500001N1-00851-00961101331ADDAA199000091GF108991021051008001031011KA1999N-01351MD1710211+9999REMSYN070AAXX  01061 28255 32599 81402 11085 21096 40133 57021 82531 333 21135;EQDQ01  00002PRCP99
0166282550999992000020109004+58050+063680FM-12+007199999V0201701N003010057019N0060001N1-00781-00841101191ADDAY181031AY221031GA1081+005709099GF108991081031004501999999MD1710141+9999MW1851REMSYN076AAXX  01091 28255 41456 81703 11078 21084 40119 57014 78582 883// 333 88919;
0187282550999992000020112004+58050+063680FM-12+007199999V0201601N001010063019N0070001N1-00481-00581101091ADDAY181061AY221061GA1071+006309099GF108991081031008001999999MA1999999099781MD1710081+9999MW1851REMSYN082AAXX  01121 28255 41557 81601 11048 21058 39978 40109 57008 78582 883// 333 87921;
0185282550999992000020115004+58050+063680FM-12+007199999V0201801N003010057019N0036001N1-00361-00441101061ADDAY181031AY221031GA1061+005709099GF108991081031004501999999KA1120M-00361MD1710031+9999MW1851REMSYN082AAXX  01151 28255 /1436 81803 11036 21044 40106 57003 78582 883// 333 11036 86919;
0202282550999992000020118004+58050+063680FM-12+007199999V0201801N002010066019N0250001N1-00421-00541101011ADDAA100001091AY181061AY221061GA1061+006609099GF108991081031008001999999KA1120M-00361MD1710051+9999MW1021REMSYN088AAXX  01181 28255 11575 81802 11042 21054 40101 57005 60010 70282 883// 333 11036 86922;
0166282550999992000020121004+58050+063680FM-12+007199999V0201801N003010063019N0200001N1-00541-00681100981ADDAY181031AY221031GA1061+006309099GF108991081031008001999999MD1710041+9999MW1021REMSYN076AAXX  01211 28255 41570 81803 11054 21068 40098 57004 70282 883// 333 86921;
0187282550999992000020200004+58050+063680FM-12+007199999V0201601N004010066019N0220001N1-00481-00681100901ADDAY181061AY221061GA1051+006609099GF108991081031008001999999MA1999999099591MD1710071+9999MW1021REMSYN082AAXX  02001 28255 41572 81604 11048 21068 39959 40090 57007 70282 883// 333 85922;
0181282550999992000020203004+58050+063680FM-12+007199999V0201701N005010060019N0250001N1-00461-00701100841ADDAJ100759199999999GA1061+006009099GF108991081031008001999999GJ100009IA1239MD1710061+9999REMSYN082AAXX  02031 28255 /2575 81705 11046 21070 40084 57006 883// 333 47075 55000 86920;
0154282550999992000020206004+58050+063680FM-12+007199999V0201501N003010060019N0500001N1-00521-00771100701ADDAA100000591GA1081+006009099GF108991081031004501999999KA1120N-00621REMSYN076AAXX  02061 28255 12499 81503 11052 21077 40070 69940 883// 333 21062 88920;
0166282550999992000020209004+58050+063680FM-12+007199999V0201601N003010063019N0080001N1-00621-00851100621ADDAY181031AY221031GA1081+006309099GF108991081031008001999999MD1710091+9999MW1851REMSYN076AAXX  02091 28255 41558 81603 11062 21085 40062 57009 78582 883// 333 88921;
0148282550999992000020212004+58050+063680FM-12+007199999V0201401N003019999999N0070001N1-00681-00921100631ADDGF108991999999004501999999MA1999999099311MD1310011+9999REMSYN081AAXX  02121 28255 41457 81403 11068 21092 39931 40063 53001 7858 883// 333 88919;
0185282550999992000020215004+58050+063680FM-12+007199999V0201601N003010054019N0060001N1-00861-01051100621ADDAY181031AY221031GA1081+005409099GF108991081031004501999999KA1120M-00451MD1810011+9999MW1851REMSYN082AAXX  02151 28255 /1456 81603 11086 21105 40062 58001 78582 883// 333 11045 88918;
0202282550999992000020218004+58050+063680FM-12+007199999V0201501N003010057019N0080001N1-00861-01051100561ADDAA100002091AY181061AY221061GA1081+005709099GF108991081031004501999999KA1120M-00451MD1710071+9999MW1851REMSYN088AAXX  02181 28255 11458 81503 11086 21105 40056 57007 60020 78582 883// 333 11045 88919;
0166282550999992000020221004+58050+063680FM-12+007199999V0201401N001010060019N0100001N1-00841-01031100541ADDAY181031AY221031GA1081+006009099GF108991081031008001999999MD1710011+9999MW1851REMSYN076AAXX  02211 28255 41560 81401 11084 21103 40054 57001 78582 883// 333 88920;
0187282550999992000020300004+58050+063680FM-12+007199999V0201401N001010063019N0100001N1-00961-01171100501ADDAY181061AY221061GA1081+006309099GF108991081031008001999999MA1999999099171MD1710051+9999MW1851REMSYN082AAXX  03001 28255 41560 81401 11096 21117 39917 40050 57005 78582 883// 333 88921;
0176282550999992000020303004+58050+063680FM-12+007199999V0201301N002010075019N0140001N1-01371-01501100471ADDAJ100789199999999GF108991999031008001001011IA1239MD1710051+9999REMSYN082AAXX  03031 28255 //564 81302 11137 21150 40047 57005 70282 88301 333 47078 55000;EQDQ01+000082SCOTLC
0162282550999992000020306004+58050+063680FM-12+007199999V0201401N001012200019N0500001N1-01421-01561100451ADDAA100002091GA1001+999999999GF100991001001999999001001KA1999N-01371MD1710021+9999REMSYN070AAXX  03061 28255 12999 01401 11142 21156 40045 57002 60020 333 21137;
0122282550999992000020309004+58050+063680FM-12+007199999V0201201N003012200019N0500001N1-01101-01301100371ADDGA1001+999999999GF100991001001999999001001MD1710061+9999REMSYN054AAXX  03091 28255 42999 01203 11110 21130 40037 57006;
0152282550999992000020312004+58050+063680FM-12+007199999V0201201N001019999999N0500001N1-01201-01331100331ADDGF106991001001999999001011MA1999999098991MD1710051+9999REMSYN066AAXX  03121 28255 42999 61201 11120 21133 39899 40033 57005 86001;EQDQ01+000062SCOTLC
0175282550999992000020315004+58050+063680FM-12+007199999V0201301N001012200019N0220001N1-01451-01581100271ADDAA199000091GA1001+999999999GF100991001001999999001001KA1999M-01101MD1710071+9999REMSYN064AAXX  03151 28255 32972 01301 11145 21158 40027 57007 333 11110;EQDQ01  00002PRCP99
0165282550999992000020318004+58050+063680FM-12+007199999V0201401N002019999999N0210001N1-01401-01531100141ADDAA199000091GF108991001001999999001011KA1999M-01101MD1710131+9999REMSYN070AAXX  03181 28255 32971 81402 11140 21153 40014 57013 80001 333 11110;EQDQ01  00002PRCP99
0112282550999992000020321004+58050+063680FM-12+007199999V0201401N003019999999N0220001N1-01281-01411099851ADDGF108991081001999999071999MD1710271+9999REMSYN060AAXX  03211 28255 42972 81403 11128 21141 49985 57027 8807/;
0161282550999992000020400004+58050+063680FM-12+007199999V0201501N003019999999N0070001N1-01041-01171099641ADDAY171061AY221061GF108991081001999999071999MA1999999098321MD1710201+9999MW1711REMSYN072AAXX  04001 28255 41957 81503 11104 21117 39832 49964 57020 77172 8807/;
0179282550999992000020403004+58050+063680FM-12+007199999V0201801N003019999999N0070001N1-01001-01131099571ADDAJ100759199999999AY171031AY221031GF108991081001999999071999IA1239MD1710071+9999MW1711REMSYN082AAXX  04031 28255 /1957 81803 11100 21113 49957 57007 77172 8807/ 333 47075 55032;
0180282550999992000020406004+58050+063680FM-12+007199999V0201801N005019999999N0200001N1-01021-01151099591ADDAA100000891AY171061AY221061GF108991081001999999071999KA1999N-01451MD1310021+9999MW1021REMSYN082AAXX  04061 28255 11970 81805 11102 21115 49959 53002 69980 70272 8807/ 333 21145;
0112282550999992000020409004+58050+063680FM-12+007199999V0201601N002019999999N0500001N1-00791-01011099541ADDGF108991081001999999071999MD1810041+9999REMSYN060AAXX  04091 28255 42999 81602 11079 21101 49954 58004 8807/;
0133282550999992000020412004+58050+063680FM-12+007199999V0201201N001019999999N0500001N1-00801-01021099511ADDGF108991081001999999071999MA1999999098201MD1710031+9999REMSYN066AAXX  04121 28255 42999 81201 11080 21102 39820 49951 57003 8807/;
0135282550999992000020415004+58050+063680FM-12+007199999V0202401N002012200019N0220001N1-01101-01161099671ADDGF103991031001999999031001KA1999M-00761MD1310131+9999REMSYN070AAXX  04151 28255 /2972 32402 11110 21116 49967 53013 83030 333 11076;
0162282550999992000020418004+58050+063680FM-12+007199999V0202201N003012200019N0210001N1-01441-01571099671ADDAA100000791GA1001+999999999GF100991001001999999001001KA1999M-00761MD1410001+9999REMSYN070AAXX  04181 28255 12971 02203 11144 21157 49967 54000 69900 333 11076;
0112282550999992000020421004+58050+063680FM-12+007199999V0202201N003019999999N0200001N1-01241-01371099901ADDGF105991051001999999071001MD1310241+9999REMSYN060AAXX  04211 28255 42970 52203 11124 21137 49990 53024 85070;
0143282550999992000020500004+58050+063680FM-12+007199999V0202301N005012200019N0200001N1-01491-01621100141ADDGA1001+999999999GF100991001001999999001001MA1999999098791MD1210221+9999REMSYN060AAXX  05001 28255 42970 02305 11149 21162 39879 40014 52022;
0175282550999992000020506004+58050+063680FM-12+007199999V0202201N004012200019N0500001N1-01341-01541100431ADDAA199000091GA1001+999999999GF100991001001999999001001KA1999N-01591MD1210131+9999REMSYN064AAXX  05061 28255 32999 02204 11134 21154 40043 52013 333 21159;EQDQ01  00002PRCP99
0122282550999992000020509004+58050+063680FM-12+007199999V0202201N004012200019N0500001N1-00921-01121100461ADDGA1001+999999999GF100991001001999999001001MD1210061+9999REMSYN054AAXX  05091 28255 42999 02204 11092 21112 40046 52006;
0143282550999992000020512004+58050+063680FM-12+007199999V0202101N003012200019N0500001N1-01161-01511100591ADDGA1001+999999999GF100991001001999999001001MA1999999099251MD1210111+9999REMSYN060AAXX  05121 28255 42999 02103 11116 21151 39925 40059 52011;
0175282550999992000020515004+58050+063680FM-12+007199999V0202201N002012200019N0250001N1-01531-01721100711ADDAA199000091GA1001+999999999GF100991001001999999001001KA1999M-00921MD1210091+9999REMSYN064AAXX  05151 28255 32975 02202 11153 21172 40071 52009 333 11092;EQDQ01  00002PRCP99
0175282550999992000020518004+58050+063680FM-12+007199999V0202301N004012200019N0220001N1-01661-01851100831ADDAA199000091GA1001+999999999GF100991001001999999001001KA1999M-00921MD1210121+9999REMSYN064AAXX  05181 28255 32972 02304 11166 21185 40083 52012 333 11092;EQDQ01  00002PRCP99
0122282550999992000020521004+58050+063680FM-12+007199999V0202301N003012200019N0240001N1-01761-01951101011ADDGA1001+999999999GF100991001001999999001001MD1210171+9999REMSYN054AAXX  05211 28255 42974 02303 11176 21195 40101 52017;
0143282550999992000020600004+58050+063680FM-12+007199999V0202301N004012200019N0250001N1-01831-01951101161ADDGA1001+999999999GF100991001001999999001001MA1999999099971MD1210141+9999REMSYN060AAXX  06001 28255 42975 02304 11183 21195 39997 40116 52014;
0191282550999992000020603004+58050+063680FM-12+007199999V0202301N004012200019N0260001N1-02031-02151101341ADDAA199000091AJ100739199999999GA1001+999999999GF100991001001999999001001IA1239MD1210171+9999REMSYN070AAXX  06031 28255 32976 02304 11203 21215 40134 52017 333 47073 55046;EQDQ01  00002PRCP99
0175282550999992000020606004+58050+063680FM-12+007199999V0202301N004012200019N0500001N1-01771-01961101551ADDAA199000091GA1001+999999999GF100991001001999999001001KA1999N-02111MD1210221+9999REMSYN064AAXX  06061 28255 32999 02304 11177 21196 40155 52022 333 21211;EQDQ01  00002PRCP99
0122282550999992000020609004+58050+063680FM-12+007199999V0202101N002012200019N0500001N1-01021-01461101571ADDGA1001+999999999GF100991001001999999001001MD1210071+9999REMSYN054AAXX  06091 28255 42999 02102 11102 21146 40157 52007;
0143282550999992000020612004+58050+063680FM-12+007199999V0201701N001012200019N0500001N1-01461-01891101701ADDGA1001+999999999GF100991001001999999001001MA1999999100331MD1210101+9999REMSYN060AAXX  06121 28255 42999 01701 11146 21189 30033 40170 52010;
0175282550999992000020615004+58050+063680FM-12+007199999V0201401N001012200019N0240001N1-01591-01781101841ADDAA199000091GA1001+999999999GF100991001001999999001001KA1999M-01021MD1210131+9999REMSYN064AAXX  06151 28255 32974 01401 11159 21178 40184 52013 333 11102;EQDQ01  00002PRCP99
0165282550999992000020618004+58050+063680FM-12+007199999V0201601N001019999999N0220001N1-01531-01721101921ADDAA199000091GF108991001001999999001011KA1999M-01021MD1210081+9999REMSYN070AAXX  06181 28255 32972 81601 11153 21172 40192 52008 80001 333 11102;EQDQ01  00002PRCP99
0122282550999992000020621004+58050+063680FM-12+007199999V0201401N001012200019N0240001N1-01651-01841101951ADDGA1001+999999999GF100991001001999999001001MD1210031+9999REMSYN054AAXX  06211 28255 42974 01401 11165 21184 40195 52003;
0143282550999992000020700004+58050+063680FM-12+007199999V0201401N002012200019N0250001N1-01671-01861101931ADDGA1001+999999999GF100991001001999999001001MA1999999100551MD1810021+9999REMSYN060AAXX  07001 28255 42975 01402 11167 21186 30055 40193 58002;
0191282550999992000020703004+58050+063680FM-12+007199999V0201501N002012200019N0220001N1-01751-01941101931ADDAA199000091AJ100739199999999GA1001+999999999GF100991001001999999001001IA1239MD1710011+9999REMSYN070AAXX  07031 28255 32972 01502 11175 21194 40193 57001 333 47073 55048;EQDQ01  00002PRCP99
0181282550999992000020706004+58050+063680FM-12+007199999V0201301N002012200019N0500001N1-01691-01881101871ADDAA199000091GF103991001001999999001011KA1999N-01771MD1710051+9999REMSYN070AAXX  07061 28255 32999 31302 11169 21188 40187 57005 83001 333 21177;EQDQ01+000032SCOTLCQ02  00002PRCP99
0131282550999992000020709004+58050+063680FM-12+007199999V0201201N003012200019N0500001N1-01491-01911101791ADDGF103991001001999999001011MD1710071+9999REMSYN060AAXX  07091 28255 42999 31203 11149 21191 40179 57007 83001;EQDQ01+000032SCOTLC
0152282550999992000020712004+58050+063680FM-12+007199999V0201301N002019999999N0500001N1-01401-01751101681ADDGF105991001001999999001011MA1999999100311MD1710111+9999REMSYN066AAXX  07121 28255 42999 51302 11140 21175 30031 40168 57011 85001;EQDQ01+000052SCOTLC
0175282550999992000020715004+58050+063680FM-12+007199999V0201301N001012200019N0240001N1-01831-02091101671ADDAA199000091GA1001+999999999GF100991001001999999001001KA1999M-01401MD1710031+9999REMSYN064AAXX  07151 28255 32974 01301 11183 21209 40167 57003 333 11140;EQDQ01  00002PRCP99
0175282550999992000020718004+58050+063680FM-12+007199999V0201201N002012200019N0250001N1-01991-02181101651ADDAA199000091GA1001+999999999GF100991001001999999001001KA1999M-01401MD1710031+9999REMSYN064AAXX  07181 28255 32975 01202 11199 21218 40165 57003 333 11140;EQDQ01  00002PRCP99
0122282550999992000020721004+58050+063680FM-12+007199999V0201301N001012200019N0230001N1-02031-02221101651ADDGA1001+999999999GF100991001001999999001001MD1410001+9999REMSYN054AAXX  07211 28255 42973 01301 11203 21222 40165 54000;
0143282550999992000020800004+58050+063680FM-12+007199999V0201201N001012200019N0240001N1-02211-02401101631ADDGA1001+999999999GF100991001001999999001001MA1999999100221MD1810031+9999REMSYN060AAXX  08001 28255 42974 01201 11221 21240 30022 40163 58003;
0191282550999992000020803004+58050+063680FM-12+007199999V0201301N001012200019N0230001N1-02381-02561101641ADDAA199000091AJ100739199999999GA1001+999999999GF100991001001999999001001IA1239MD1410001+9999REMSYN070AAXX  08031 28255 32973 01301 11238 21256 40164 54000 333 47073 55052;EQDQ01  00002PRCP99
0175282550999992000020806004+58050+063680FM-12+007199999V0201001N002012200019N0200001N1-02331-02511101671ADDAA199000091GA1001+999999999GF100991001001999999001001KA1999N-02401MD1310031+9999REMSYN064AAXX  08061 28255 32998 01002 11233 21251 40167 53003 333 21240;EQDQ01  00002PRCP99
0122282550999992000020809004+58050+063680FM-12+007199999V0201301N001012200019N0200001N1-01811-02141101631ADDGA1001+999999999GF100991001001999999001001MD1810011+9999REMSYN054AAXX  08091 28255 42998 01301 11181 21214 40163 58001;
0143282550999992000020812004+58050+063680FM-12+007199999V0201201N001012200019N0500001N1-01701-01961101601ADDGA1001+999999999GF100991001001999999001001MA1999999100231MD1710011+9999REMSYN060AAXX  08121 28255 42999 01201 11170 21196 30023 40160 57001;
0175282550999992000020815004+58050+063680FM-12+007199999V0201501N001012200019N0240001N1-01971-02091101721ADDAA199000091GA1001+999999999GF100991001001999999001001KA1999M-01701MD1310091+9999REMSYN064AAXX  08151 28255 32974 01501 11197 21209 40172 53009 333 11170;EQDQ01  00002PRCP99
0175282550999992000020818004+58050+063680FM-12+007199999V0201201N001012200019N0250001N1-02151-02331101651ADDAA199000091GA1001+999999999GF100991001001999999001001KA1999M-01701MD1810081+9999REMSYN064AAXX  08181 28255 32975 01201 11215 21233 40165 58008 333 11170;EQDQ01  00002PRCP99
0122282550999992000020821004+58050+063680FM-12+007199999V0201501N001012200019N0240001N1-02311-02491101641ADDGA1001+999999999GF100991001001999999001001MD1710021+9999REMSYN054AAXX  08211 28255 42974 01501 11231 21249 40164 57002;
0143282550999992000020900004+58050+063680FM-12+007199999V0201201N001012200019N0230001N1-02481-02661101641ADDGA1001+999999999GF100991001001999999001001MA1999999100221MD1410001+9999REMSYN060AAXX  09001 28255 42973 01201 11248 21266 30022 40164 54000;
0191282550999992000020903004+58050+063680FM-12+007199999V0201201N001012200019N0230001N1-02541-02721101621ADDAA199000091AJ100739199999999GA1001+999999999GF100991001001999999001001IA1239MD1810031+9999REMSYN070AAXX  09031 28255 32973 01201 11254 21272 40162 58003 333 47073 55042;EQDQ01  00002PRCP99
0175282550999992000020906004+58050+063680FM-12+007199999V0201001N001012200019N0500001N1-02331-02511101581ADDAA199000091GA1001+999999999GF100991001001999999001001KA1999N-02561MD1710031+9999REMSYN064AAXX  09061 28255 32999 01001 11233 21251 40158 57003 333 21256;EQDQ01  00002PRCP99
0122282550999992000020909004+58050+063680FM-12+007199999V0201401N001012200019N0500001N1-01711-02131101651ADDGA1001+999999999GF100991001001999999001001MD1810111+9999REMSYN054AAXX  09091 28255 42999 01401 11171 21213 40165 58011;
0143282550999992000020912004+58050+063680FM-12+007199999V0201001N002012200019N0500001N1-01611-01871101661ADDGA1001+999999999GF100991001001999999001001MA1999999100281MD1210011+9999REMSYN060AAXX  09121 28255 42999 01002 11161 21187 30028 40166 52001;
0175282550999992000020915004+58050+063680FM-12+007199999V0201201N002012200019N0210001N1-01881-02071101831ADDAA199000091GA1001+999999999GF100991001001999999001001KA1999M-01621MD1210161+9999REMSYN064AAXX  09151 28255 32971 01202 11188 21207 40183 52016 333 11162;EQDQ01  00002PRCP99
0175282550999992000020918004+58050+063680FM-12+007199999V0201201N002012200019N0220001N1-01991-02181101851ADDAA199000091GA1001+999999999GF100991001001999999001001KA1999M-01621MD1210011+9999REMSYN064AAXX  09181 28255 32972 01202 11199 21218 40185 52001 333 11162;EQDQ01  00002PRCP99
0122282550999992000020921004+58050+063680FM-12+007199999V0201201N001012200019N0250001N1-02081-02201101841ADDGA1001+999999999GF100991001001999999001001MD1810011+9999REMSYN054AAXX  09211 28255 42975 01201 11208 21220 40184 58001;
0133282550999992000021000004+58050+063680FM-12+007199999V0201201N002019999999N0230001N1-01821-02011101761ADDGF108991081001999999071999MA1999999100391MD1710051+9999REMSYN066AAXX  10001 28255 42973 81202 11182 21201 30039 40176 57005 8807/;
0181282550999992000021003004+58050+063680FM-12+007199999V0201201N001019999999N0220001N1-01661-01851101811ADDAA199000091AJ100729199999999GF108991081001999999071999IA1239MD1310041+9999REMSYN076AAXX  10031 28255 32972 81201 11166 21185 40181 53004 8807/ 333 47072 55049;EQDQ01  00002PRCP99
0196282550999992000021006004+58050+063680FM-12+007199999V0201201N002010060019N0060001N1-01441-01641101841ADDAA199000021AY181061AY221061GA1061+006009099GF108991081031004501999999KA1120N-02141MD1210041+9999MW1851REMSYN082AAXX  10061 28255 31456 81202 11144 21164 40184 52004 78582 883// 333 21214 86920;
0166282550999992000021009004+58050+063680FM-12+007199999V0201201N002010060019N0060001N1-01141-01341101821ADDAY181031AY221031GA1061+006009099GF108991081031004501999999MD1810011+9999MW1851REMSYN076AAXX  10091 28255 41456 81202 11114 21134 40182 58001 78582 883// 333 86920;
0161282550999992000021012004+58050+063680FM-12+007199999V0201201N003019999999N0500001N1-00901-01061101791ADDAY181061AY221061GF105991051001999999031011MA1999999100451MD1710011+9999MW1021REMSYN072AAXX  10121 28255 41999 51203 11090 21106 30045 40179 57001 70282 85031;
0135282550999992000021015004+58050+063680FM-12+007199999V0201201N004019999999N0230001N1-01181-01381101831ADDGF108991061001999999031011KA1999M-00881MD1310021+9999REMSYN070AAXX  10151 28255 /2973 81204 11118 21138 40183 53002 86031 333 11088;
0152282550999992000021018004+58050+063680FM-12+007199999V0201301N004019999999N0220001N1-01461-01661101861ADDAA100000591GF108991081001999999071999KA1999M-00881MD1210021+9999REMSYN076AAXX  10181 28255 12972 81304 11146 21166 40186 52002 69940 8807/ 333 11088;
0112282550999992000021021004+58050+063680FM-12+007199999V0201201N005019999999N0220001N1-01491-01691101791ADDGF108991081001999999071999MD1810071+9999REMSYN060AAXX  10211 28255 42972 81205 11149 21169 40179 58007 8807/;
0161282550999992000021100004+58050+063680FM-12+007199999V0201301N003019999999N0080001N1-01461-01661101721ADDAY171061AY221061GF108991081001999999071999MA1999999100351MD1710071+9999MW1711REMSYN072AAXX  11001 28255 41958 81303 11146 21166 30035 40172 57007 77172 8807/;
0179282550999992000021103004+58050+063680FM-12+007199999V0201201N002019999999N0090001N1-01321-01521101711ADDAJ100739199999999AY171031AY221031GF108991081001999999071999IA1239MD1410001+9999MW1711REMSYN082AAXX  11031 28255 /1959 81202 11132 21152 40171 54000 77172 8807/ 333 47073 55000;
0180282550999992000021106004+58050+063680FM-12+007199999V0201101N002019999999N0070001N1-01191-01391101731ADDAA100001091AY171061AY221061GF108991081001999999071999KA1999N-01491MD1310021+9999MW1711REMSYN082AAXX  11061 28255 11957 81102 11119 21139 40173 53002 60010 77172 8807/ 333 21149;
0140282550999992000021109004+58050+063680FM-12+007199999V0201301N002019999999N0060001N1-00921-01081101701ADDAY171031AY221031GF108991081001999999071999MD1810011+9999MW1711REMSYN066AAXX  11091 28255 41956 81302 11092 21108 40170 58001 77172 8807/;
0161282550999992000021112004+58050+063680FM-12+007199999V0201501N001019999999N0070001N1-00821-01011101751ADDAY171061AY221061GF108991081001999999071999MA1999999100411MD1310051+9999MW1711REMSYN072AAXX  11121 28255 41957 81501 11082 21101 30041 40175 53005 77172 8807/;
0163282550999992000021115004+58050+063680FM-12+007199999V0201201N001019999999N0190001N1-00801-00981101791ADDAY171031AY221031GF108991081001999999071999KA1999M-00791MD1210041+9999MW1021REMSYN076AAXX  11151 28255 /1969 81201 11080 21098 40179 52004 70272 8807/ 333 11079;
0180282550999992000021118004+58050+063680FM-12+007199999V0201001N002019999999N0200001N1-00801-00981101781ADDAA100000591AY171061AY221061GF108991081001999999071999KA1999M-00791MD1810011+9999MW1021REMSYN082AAXX  11181 28255 11970 81002 11080 21098 40178 58001 69950 70272 8807/ 333 11079;
0140282550999992000021121004+58050+063680FM-12+007199999V0200901N001019999999N0080001N1-00781-00921101751ADDAY171031AY221031GF108991081001999999071999MD1710031+9999MW1711REMSYN066AAXX  11211 28255 41958 80901 11078 21092 40175 57003 77172 8807/;
0161282550999992000021200004+58050+063680FM-12+007199999V0200901N001019999999N0070001N1-00761-00891101641ADDAY171061AY221061GF108991081001999999071999MA1999999100301MD1710111+9999MW1711REMSYN072AAXX  12001 28255 41957 80901 11076 21089 30030 40164 57011 77172 8807/;
0179282550999992000021203004+58050+063680FM-12+007199999V0209999C000019999999N0200001N1-00801-00941101561ADDAJ100739199999999AY171031AY221031GF108991081001999999071999IA1239MD1710071+9999MW1021REMSYN082AAXX  12031 28255 /1970 80000 11080 21094 40156 57007 70272 8807/ 333 47073 55000;
0180282550999992000021206004+58050+063680FM-12+007199999V0201001N002019999999N0070001N1-00761-00891101451ADDAA100000591AY171061AY221061GF108991081001999999071999KA1999N-00821MD1710111+9999MW1711REMSYN082AAXX  12061 28255 11957 81002 11076 21089 40145 57011 69940 77172 8807/ 333 21082;
0140282550999992000021209004+58050+063680FM-12+007199999V0209999C000019999999N0070001N1-00541-00751101331ADDAY171031AY221031GF108991081001999999071999MD1710111+9999MW1711REMSYN066AAXX  12091 28255 41957 80000 11054 21075 40133 57011 77172 8807/;
0161282550999992000021212004+58050+063680FM-12+007199999V0200801N002019999999N0500001N1-00541-00751101301ADDAY171061AY221061GF108991031031999999031999MA1999999099981MD1710031+9999MW1021REMSYN072AAXX  12121 28255 41999 80802 11054 21075 39998 40130 57003 70272 8333/;
0135282550999992000021215004+58050+063680FM-12+007199999V0200801N002019999999N0200001N1-00591-00741101301ADDGF108991081001999999071999KA1999M-00541MD1410001+9999REMSYN070AAXX  12151 28255 /2970 80802 11059 21074 40130 54000 8807/ 333 11054;
0152282550999992000021218004+58050+063680FM-12+007199999V0209999C000019999999N0210001N1-00621-00741101271ADDAA100000791GF108991081001999999071999KA1999M-00541MD1810031+9999REMSYN076AAXX  12181 28255 12971 80000 11062 21074 40127 58003 69900 8807/ 333 11054;
0112282550999992000021221004+58050+063680FM-12+007199999V0200701N001019999999N0220001N1-00721-00851101231ADDGF108991081001999999071999MD1710041+9999REMSYN060AAXX  12211 28255 42972 80701 11072 21085 40123 57004 8807/;
0133282550999992000021300004+58050+063680FM-12+007199999V0209999C000019999999N0230001N1-00761-00891101251ADDGF108991081001999999071999MA1999999099921MD1310011+9999REMSYN066AAXX  13001 28255 42973 80000 11076 21089 39992 40125 53001 8807/;
0181282550999992000021303004+58050+063680FM-12+007199999V0209999C000019999999N0210001N1-00791-00931101221ADDAA199000091AJ100739199999999GF108991081001999999071999IA1239MD1810031+9999REMSYN076AAXX  13031 28255 32971 80000 11079 21093 40122 58003 8807/ 333 47073 55003;EQDQ01  00002PRCP99
0193282550999992000021306004+58050+063680FM-12+007199999V0209999C000019999999N0060001N1-00741-00801101201ADDAA199000091AY121061AY221061GF108991081001999999071999KA1999N-00801MD1710011+9999MW1101REMSYN076AAXX  13061 28255 31956 80000 11074 21080 40120 57001 71022 8807/ 333 21080;EQDQ01  00002PRCP99
0112282550999992000021309004+58050+063680FM-12+007199999V0209999C000019999999N0500001N1-00551-00691101191ADDGF108991081001999999071999MD1710011+9999REMSYN060AAXX  13091 28255 42999 80000 11055 21069 40119 57001 8807/;
0133282550999992000021312004+58050+063680FM-12+007199999V0209999C000019999999N0500001N1-00521-00691101211ADDGF108991081001999999071999MA1999999099901MD1310031+9999REMSYN066AAXX  13121 28255 42999 80000 11052 21069 39990 40121 53003 8807/;
0163282550999992000021315004+58050+063680FM-12+007199999V0209999C000019999999N0070001N1-00621-00771101271ADDAY171031AY221031GF108991081001999999071999KA1999M-00521MD1210051+9999MW1711REMSYN076AAXX  13151 28255 /1957 80000 11062 21077 40127 52005 77172 8807/ 333 11052;
0180282550999992000021318004+58050+063680FM-12+007199999V0201201N001019999999N0060001N1-00761-00851101241ADDAA100000791AY171061AY221061GF108991081001999999071999KA1999M-00521MD1810041+9999MW1711REMSYN082AAXX  13181 28255 11956 81201 11076 21085 40124 58004 69900 77172 8807/ 333 11052;
0140282550999992000021321004+58050+063680FM-12+007199999V0201201N001019999999N0070001N1-00781-00841101231ADDAY171031AY221031GF108991081001999999071999MD1710011+9999MW1711REMSYN066AAXX  13211 28255 41957 81201 11078 21084 40123 57001 77172 8807/;
0171282550999992000021400004+58050+063680FM-12+007199999V0201201N001012200019N0190001N1-00981-01061101261ADDAY171061AY211061GA1001+999999999GF100991001001999999001001MA1999999099921MD1310021+9999MW1021REMSYN066AAXX  14001 28255 41969 01201 11098 21106 39992 40126 53002 70271;
0151282550999992000021403004+58050+063680FM-12+007199999V0209999C000019999999N0200001N1-00861-00931101231ADDAJ100749199999999GF108991081001999999071999IA1239MD1810021+9999REMSYN076AAXX  14031 28255 /2970 80000 11086 21093 40123 58002 8807/ 333 47074 55000;
0202282550999992000021406004+58050+063680FM-12+007199999V0201001N001010099019N0060001N1-00791-00891101231ADDAA100001091AY171061AY211061GA1051+009909059GF108991051051008001071999KA1120N-01001MD1410001+9999MW1101REMSYN088AAXX  14061 28255 11556 81001 11079 21089 40123 54000 69990 71071 8557/ 333 21100 85633;
0112282550999992000021409004+58050+063680FM-12+007199999V0209999C000019999999N0500001N1-00511-00831101221ADDGF108991081001999999071999MD1310011+9999REMSYN060AAXX  14091 28255 42999 80000 11051 21083 40122 53001 8807/;
0133282550999992000021412004+58050+063680FM-12+007199999V0209999C000019999999N0500001N1-00501-00741101201ADDGF108991081001999999021999MA1999999099891MD1810021+9999REMSYN066AAXX  14121 28255 42999 80000 11050 21074 39989 40120 58002 8802/;
0163282550999992000021415004+58050+063680FM-12+007199999V0200901N001019999999N0060001N1-00541-00641101211ADDAY171031AY221031GF108991081001999999021999KA1999M-00471MD1410001+9999MW1711REMSYN076AAXX  14151 28255 /1956 80901 11054 21064 40121 54000 77172 8802/ 333 11047;
0180282550999992000021418004+58050+063680FM-12+007199999V0201001N001019999999N0060001N1-00641-00721101201ADDAA100000191AY171061AY221061GF108991081001999999071999KA1999M-00471MD1810011+9999MW1101REMSYN082AAXX  14181 28255 11956 81001 11064 21072 40120 58001 69920 71072 8807/ 333 11047;
0140282550999992000021421004+58050+063680FM-12+007199999V0209999C000019999999N0050001N1-00721-00771101171ADDAY171031AY221031GF108991081001999999071999MD1710031+9999MW1711REMSYN066AAXX  14211 28255 41950 80000 11072 21077 40117 57003 77172 8807/;
0161282550999992000021500004+58050+063680FM-12+007199999V0209999C000019999999N0070001N1-00821-00881101201ADDAY171061AY221061GF108991081001999999071999MA1999999099871MD1310021+9999MW1101REMSYN072AAXX  15001 28255 41957 80000 11082 21088 39987 40120 53002 71072 8807/;
0179282550999992000021503004+58050+063680FM-12+007199999V0209999C000019999999N0060001N1-00841-00991101191ADDAJ100739199999999AY171031AY221031GF108991081001999999071999IA1239MD1810011+9999MW1711REMSYN082AAXX  15031 28255 /1956 80000 11084 21099 40119 58001 77172 8807/ 333 47073 55006;
0180282550999992000021506004+58050+063680FM-12+007199999V0201501N001019999999N0500001N1-00821-00961101201ADDAA100000391AY171061AY221061GF108991081001999999071011KA1999N-00851MD1310011+9999MW1021REMSYN082AAXX  15061 28255 11999 81501 11082 21096 40120 53001 69930 70272 88071 333 21085;
0140282550999992000021509004+58050+063680FM-12+007199999V0201001N002019999999N0070001N1-00581-00841101191ADDAY171031AY221031GF108991081001999999021999MD1410001+9999MW1711REMSYN066AAXX  15091 28255 41957 81002 11058 21084 40119 54000 77172 8802/;
0161282550999992000021512004+58050+063680FM-12+007199999V0201201N001019999999N0500001N1-00561-00781101221ADDAY171061AY221061GF108991081001999999021999MA1999999099901MD1310031+9999MW1021REMSYN072AAXX  15121 28255 41999 81201 11056 21078 39990 40122 53003 70272 8802/;
0163282550999992000021515004+58050+063680FM-12+007199999V0202301N002019999999N0060001N1-00641-00761101321ADDAY171031AY221031GF108991081001999999021999KA1999M-00541MD1210101+9999MW1711REMSYN076AAXX  15151 28255 /1956 82302 11064 21076 40132 52010 77172 8802/ 333 11054;
0180282550999992000021518004+58050+063680FM-12+007199999V0202001N001019999999N0060001N1-00681-00761101391ADDAA100000391AY171061AY221061GF108991081001999999021999KA1999M-00541MD1210071+9999MW1101REMSYN082AAXX  15181 28255 11956 82001 11068 21076 40139 52007 69930 71072 8802/ 333 11054;
0112282550999992000021521004+58050+063680FM-12+007199999V0202101N003019999999N0070001N1-00761-00811101491ADDGF108991081001999999071999MD1210091+9999REMSYN060AAXX  15211 28255 42957 82103 11076 21081 40149 52009 8807/;
0161282550999992000021600004+58050+063680FM-12+007199999V0202201N004019999999N0060001N1-00601-00681101611ADDAY171061AY221061GF108991081001999999071999MA1999999100281MD1210121+9999MW1711REMSYN072AAXX  16001 28255 41956 82204 11060 21068 30028 40161 52012 77172 8807/;
0179282550999992000021603004+58050+063680FM-12+007199999V0202201N004019999999N0210001N1-00581-00691101651ADDAJ100739199999999AY171031AY221031GF108991081001999999071999IA1239MD1210041+9999MW1021REMSYN082AAXX  16031 28255 /1971 82204 11058 21069 40165 52004 70272 8807/ 333 47073 55012;
0180282550999992000021606004+58050+063680FM-12+007199999V0202201N004010300019N0500001N1-00501-00711101691ADDAA100000191AY171061AY221061GF108991021051008001031999KA1999N-00761MD1210051+9999MW1021REMSYN082AAXX  16061 28255 11599 82204 11050 21071 40169 52005 69920 70272 8253/ 333 21076;
0112282550999992000021609004+58050+063680FM-12+007199999V0201701N002019999999N0500001N1-00381-00641101701ADDGF108991081001999999071999MD1210011+9999REMSYN060AAXX  16091 28255 42999 81702 11038 21064 40170 52001 8807/;
0133282550999992000021612004+58050+063680FM-12+007199999V0201301N002019999999N0500001N1-00401-00621101671ADDGF108991081001999999021999MA1999999100351MD1810031+9999REMSYN066AAXX  16121 28255 42999 81302 11040 21062 30035 40167 58003 8802/;
0163282550999992000021615004+58050+063680FM-12+007199999V0201501N002019999999N0070001N1-00481-00611101651ADDAY171031AY221031GF108991081001999999071999KA1999M-00331MD1710021+9999MW1711REMSYN076AAXX  16151 28255 /1957 81502 11048 21061 40165 57002 77172 8807/ 333 11033;
0180282550999992000021618004+58050+063680FM-12+007199999V0201601N002012200019N0190001N1-00621-00741101651ADDAA100000791AY171061AY211061GF103991031001999999031001KA1999M-00331MD1710011+9999MW1021REMSYN082AAXX  16181 28255 11969 31602 11062 21074 40165 57001 69900 70271 83030 333 11033;
0112282550999992000021621004+58050+063680FM-12+007199999V0202301N003019999999N0200001N1-00761-00851101741ADDGF108991081001999999071999MD1310081+9999REMSYN060AAXX  16211 28255 42970 82303 11076 21085 40174 53008 8807/;
0127282550999992000021700004+58050+063680FM-12+007199999V0202201N003019999999N0210001N1-01081-01141101801ADDGF108991999999999999999999MA1999999100451MD1210051+9999REMSYN060AAXX  17001 28255 42971 82203 11108 21114 30045 40180 52005;
0151282550999992000021703004+58050+063680FM-12+007199999V0202101N003019999999N0200001N1-00701-00791101801ADDAJ100739199999999GF108991081001999999071999IA1239MD1210021+9999REMSYN076AAXX  17031 28255 /2970 82103 11070 21079 40180 52002 8807/ 333 47073 55000;
0165282550999992000021706004+58050+063680FM-12+007199999V0202001N002019999999N0500001N1-00521-00661101881ADDAA199000091GF108991031051999999071999KA1999N-01101MD1810011+9999REMSYN070AAXX  17061 28255 32999 82002 11052 21066 40188 58001 8357/ 333 21110;EQDQ01  00002PRCP99
0112282550999992000021709004+58050+063680FM-12+007199999V0201701N002019999999N0500001N1-00291-00631101781ADDGF105991001001999999001011MD1310011+9999REMSYN060AAXX  17091 28255 42999 51702 11029 21063 40178 53001 80001;
