0140285880999992000010100004+55570+071370FM-12+012999999V0201401N007019999999N0060001N1-02521-02771102691ADDAY171061AY231061GF108991081001999999021999MD1710301+9999MW1711REMSYN066AAXX  01001 28588 41956 81407 11252 21277 40269 57030 77173 8802/;
0180285880999992000010106004+55570+071370FM-12+012999999V0201401N007019999999N0400001N1-02591-02911102611ADDAA100002091AY171061AY231061GF105991001001999999001021KA1999N-02621MD1310031+9999MW1361REMSYN082AAXX  01061 28588 11982 51407 11259 21291 40261 53003 60020 73673 80002 333 21262;
0170285880999992000010112004+55570+071370FM-12+012999999V0203601N003012200019N0500001N1+99999+99999102541ADDAA106000091AY131061AY211061GF102991001001999999001021MD1410001+9999MW1021REMSYN066AAXX  01121 28588 31984 23603 19275 21321 40254 54000 70231 80002;EQDQ01  00002PRCP06
0162285880999992000010118004+55570+071370FM-12+012999999V0203601N001012200019N0500001N1-02861-03161102751ADDAA100000791GA1001+999999999GF100991001001999999001001KA1999M-02521MD1310091+9999REMSYN070AAXX  01181 28588 12984 03601 11286 21316 40275 53009 69900 333 11252;
0122285880999992000010121004+55570+071370FM-12+012999999V0203601N001012200019N0500001N1-02961-03261102911ADDGA1001+999999999GF100991001001999999001001MD1210141+9999REMSYN054AAXX  01211 28588 42984 03601 11296 21326 40291 52014;
0112285880999992000010200004+55570+071370FM-12+012999999V0203601N003019999999N0500001N1-02831-03131103071ADDGF107991001001999999001021MD1210181+9999REMSYN060AAXX  02001 28588 42984 73603 11283 21313 40307 52018 80002;
0191285880999992000010206004+55570+071370FM-12+012999999V0203201N005012200019N0400001N1-03201-03571103631ADDAA106000091GA1001+999999999GF100991001001999999001001KA1999N+99999MD1210321+9999REMSYN064AAXX  02061 28588 32982 03205 11320 21357 40363 52032 333 21303;EQDQ01  00002PRCP06Q02 -03032ATMN  
0122285880999992000010212004+55570+071370FM-12+012999999V0203201N005012200019N0500001N1-03041-03411103961ADDGA1001+999999999GF100991001001999999001001MD1210231+9999REMSYN054AAXX  02121 28588 42984 03205 11304 21341 40396 52023;
0122285880999992000010221004+55570+071370FM-12+012999999V0203201N003012200019N0500001N1-03211-03641104321ADDGA1001+999999999GF100991001001999999001001MD1210061+9999REMSYN054AAXX  02211 28588 42984 03203 11321 21364 40432 52006;
0112285880999992000010300004+55570+071370FM-12+012999999V0203201N003019999999N0500001N1-03051-03411104351ADDGF108991081001999999021999MD1210041+9999REMSYN060AAXX  03001 28588 42984 83203 11305 21341 40435 52004 8802/;
0180285880999992000010306004+55570+071370FM-12+012999999V0202701N003019999999N0400001N1-02751-03131104351ADDAA100000791AY171061AY221061GF107991071001999999071001KA1999N-03261MD1810031+9999MW1021REMSYN082AAXX  03061 28588 11982 72703 11275 21313 40435 58003 69900 70272 87070 333 21326;
0112285880999992000010312004+55570+071370FM-12+012999999V0202301N001012200019N0500001N1-02731-03121104551ADDGF102991001001999999001011MD1210161+9999REMSYN060AAXX  03121 28588 42984 22301 11273 21312 40455 52016 80001;
0162285880999992000010318004+55570+071370FM-12+012999999V0201801N001012200019N0500001N1-03521-03871104821ADDAA100000891GA1001+999999999GF100991001001999999001001KA1999M-02501MD1210101+9999REMSYN070AAXX  03181 28588 12984 01801 11352 21387 40482 52010 69970 333 11250;
0122285880999992000010321004+55570+071370FM-12+012999999V0201401N001012200019N0500001N1-03561-03901104891ADDGA1001+999999999GF100991001001999999001001MD1210061+9999REMSYN054AAXX  03211 28588 42984 01401 11356 21390 40489 52006;
0112285880999992000010400004+55570+071370FM-12+012999999V0202101N001012200019N0500001N1-03251-03551104871ADDGF103991001001999999001021MD1210011+9999REMSYN060AAXX  04001 28588 42984 32101 11325 21355 40487 52001 80002;
0203285880999992000010406004+55570+071370FM-12+012999999V0201401N001012200019N0060001N1-02981-03281104771ADDAA106000091AY111061AY211061GA1001+999999999GF100991001001999999001001KA1999N-03591MD1810081+9999MW1101REMSYN070AAXX  04061 28588 31956 01401 11298 21328 40477 58008 71011 333 21359;EQDQ01  00002PRCP06
0140285880999992000010412004+55570+071370FM-12+012999999V0201801N001012200019N0090001N1-02721-03031104531ADDAY101061AY201061GF101991001001999999001011MD1710121+9999MW1101REMSYN066AAXX  04121 28588 41959 11801 11272 21303 40453 57012 71000 80001;
0112285880999992000010421004+55570+071370FM-12+012999999V0201601N003019999999N0500001N1-02561-02811103871ADDGF108991001001999999001071MD1710241+9999REMSYN060AAXX  04211 28588 42984 81603 11256 21281 40387 57024 80007;
0112285880999992000010500004+55570+071370FM-12+012999999V0201401N003019999999N0500001N1-02421-02661103551ADDGF108991081001999999021999MD1710291+9999REMSYN060AAXX  05001 28588 42984 81403 11242 21266 40355 57029 8802/;
0165285880999992000010506004+55570+071370FM-12+012999999V0201401N005019999999N0400001N1-02201-02521103011ADDAA106000091GF108991081001999999021999KA1999N-02921MD1710301+9999REMSYN070AAXX  05061 28588 32982 81405 11220 21252 40301 57030 8802/ 333 21292;EQDQ01  00002PRCP06
0140285880999992000010512004+55570+071370FM-12+012999999V0200901N007019999999N0500001N1-02041-02711102311ADDAY171061AY231061GF108991081001999999021999MD1710431+9999MW1361REMSYN066AAXX  05121 28588 41984 80907 11204 21271 40231 57043 73673 8802/;
0180285880999992000010518004+55570+071370FM-12+012999999V0201401N007019999999N0060001N1-02011-02421101881ADDAA100000791AY171061AY231061GF108991081001999999021999KA1999M-01951MD1710241+9999MW1711REMSYN082AAXX  05181 28588 11956 81407 11201 21242 40188 57024 69900 77173 8802/ 333 11195;
0140285880999992000010521004+55570+071370FM-12+012999999V0200901N005019999999N0060001N1-01991-02401101841ADDAY171031AY231031GF108991081001999999021999MD1710041+9999MW1711REMSYN066AAXX  05211 28588 41956 80905 11199 21240 40184 57004 77173 8802/;
0180285880999992000010606004+55570+071370FM-12+012999999V0209999C000019999999N0400001N1-02381-02771101931ADDAA100000591AY171061AY211061GF106991001001999999001021KA1999N-02411MD1310081+9999MW1221REMSYN082AAXX  06061 28588 11982 60000 11238 21277 40193 53008 69940 72271 80002 333 21241;
0122285880999992000010700004+55570+071370FM-12+012999999V0203201N001012200019N0500001N1-02731-03121102341ADDGA1001+999999999GF100991001001999999001001MD1210131+9999REMSYN054AAXX  07001 28588 42984 03201 11273 21312 40234 52013;
0165285880999992000010706004+55570+071370FM-12+012999999V0209999C000012200019N0400001N1-02691-03001102421ADDAA106000091GF101991001001999999001011KA1999N-03011MD1210031+9999REMSYN070AAXX  07061 28588 32982 10000 11269 21300 40242 52003 80001 333 21301;EQDQ01  00002PRCP06
0112285880999992000010712004+55570+071370FM-12+012999999V0200501N001012200019N0500001N1-02871-03181102451ADDGF102991001001999999001011MD1310031+9999REMSYN060AAXX  07121 28588 42984 20501 11287 21318 40245 53003 80001;
0165285880999992000010718004+55570+071370FM-12+012999999V0209999C000019999999N0500001N1-02411-02731102291ADDAA106000091GF108991081001999999021999KA1999M-02401MD1710101+9999REMSYN070AAXX  07181 28588 32984 80000 11241 21273 40229 57010 8802/ 333 11240;EQDQ01  00002PRCP06
0150285880999992000010721004+55570+071370FM-12+012999999V0200501N001012200019N0500001N1-02601-02911102261ADDAY171031AY211031GA1001+999999999GF100991001001999999001001MD1710041+9999MW1011REMSYN060AAXX  07211 28588 41984 00501 11260 21291 40226 57004 70171;
0150285880999992000010800004+55570+071370FM-12+012999999V0200501N001012200019N0500001N1-02771-03081102231ADDAY171061AY211061GA1001+999999999GF100991001001999999001001MD1710041+9999MW1021REMSYN060AAXX  08001 28588 41984 00501 11277 21308 40223 57004 70271;
0152285880999992000010806004+55570+071370FM-12+012999999V0200501N003019999999N0400001N1-02691-03071102081ADDAA100000591GF106991061001999999051001KA1999N-03851MD1710031+9999REMSYN076AAXX  08061 28588 12982 60503 11269 21307 40208 57003 69940 86050 333 21385;
0112285880999992000010812004+55570+071370FM-12+012999999V0203601N003019999999N0500001N1-02901-03271102221ADDGF106991061001999999051001MD1310121+9999REMSYN060AAXX  08121 28588 42984 63603 11290 21327 40222 53012 86050;
0175285880999992000010818004+55570+071370FM-12+012999999V0203201N001012200019N0500001N1-03051-03411102491ADDAA106000091GA1001+999999999GF100991001001999999001001KA1999M-02661MD1210141+9999REMSYN064AAXX  08181 28588 32984 03201 11305 21341 40249 52014 333 11266;EQDQ01  00002PRCP06
0122285880999992000010821004+55570+071370FM-12+012999999V0209999C000012200019N0500001N1-02971-03351102651ADDGA1001+999999999GF100991001001999999001001MD1210161+9999REMSYN054AAXX  08211 28588 42984 00000 11297 21335 40265 52016;
0112285880999992000010900004+55570+071370FM-12+012999999V0202301N001019999999N0500001N1-02761-03131102791ADDGF108991081001999999021999MD1210151+9999REMSYN060AAXX  09001 28588 42984 82301 11276 21313 40279 52015 8802/;
0140285880999992000010912004+55570+071370FM-12+012999999V0202001N005019999999N0500001N1-02201-02681102821ADDAY171061AY221061GF107991071001999999051001MD1710111+9999MW1021REMSYN066AAXX  09121 28588 41984 72005 11220 21268 40282 57011 70272 87050;
0199285880999992000010918004+55570+071370FM-12+012999999V0202301N007019999999N0060001N1-01581-01851102361ADDAA100000391AY171061AY231061GF108991081001999999021999KA1999M+99999MD1710261+9999MW1711REMSYN082AAXX  09181 28588 11956 82307 11158 21185 40236 57026 69930 77173 8802/ 333 11195;EQDQ01 -01952ATMX  
0140285880999992000010921004+55570+071370FM-12+012999999V0202301N005010075019N0060001N1-01331-01531102141ADDAY171031AY231031GF108991081001008001021999MD1710211+9999MW1711REMSYN066AAXX  09211 28588 41556 82305 11133 21153 40214 57021 77173 8802/;
0140285880999992000011000004+55570+071370FM-12+012999999V0202301N003019999999N0500001N1-01171-01371101871ADDAY171061AY231061GF106991061001999999051001MD1710251+9999MW1021REMSYN066AAXX  10001 28588 41984 62303 11117 21137 40187 57025 70273 86050;
0180285880999992000011006004+55570+071370FM-12+012999999V0202301N007019999999N0060001N1-00871-01161101501ADDAA100000791AY171061AY231061GF108991081001999999021999KA1999N-01961MD1710081+9999MW1711REMSYN082AAXX  10061 28588 11956 82307 11087 21116 40150 57008 69900 77173 8802/ 333 21196;
0140285880999992000011012004+55570+071370FM-12+012999999V0202301N007019999999N0090001N1-00871-01201101521ADDAY171061AY231061GF108991081001999999021999MD1310031+9999MW1711REMSYN066AAXX  10121 28588 41959 82307 11087 21120 40152 53003 77173 8802/;
0112285880999992000011021004+55570+071370FM-12+012999999V0202301N005019999999N0500001N1-00721-01011101471ADDGF108991081001999999021999MD1310081+9999REMSYN060AAXX  10211 28588 42984 82305 11072 21101 40147 53008 8802/;
0112285880999992000011100004+55570+071370FM-12+012999999V0202301N005019999999N0500001N1-00681-00971101371ADDGF108991081001999999021999MD1810101+9999REMSYN060AAXX  11001 28588 42984 82305 11068 21097 40137 58010 8802/;
0180285880999992000011106004+55570+071370FM-12+012999999V0202701N005019999999N0070001N1-00501-00601101321ADDAA100000791AY171061AY221061GF108991081001999999021999KA1999N-00801MD1410001+9999MW1711REMSYN082AAXX  11061 28588 11957 82705 11050 21060 40132 54000 69900 77172 8802/ 333 21080;
0180285880999992000011118004+55570+071370FM-12+012999999V0202301N003019999999N0090001N1-00431-00551101351ADDAA100000591AY171061AY221061GF108991081001999999021999KA1999M-00351MD1810051+9999MW1711REMSYN082AAXX  11181 28588 11959 82303 11043 21055 40135 58005 69940 77172 8802/ 333 11035;
0140285880999992000011121004+55570+071370FM-12+012999999V0202301N003010075019N0090001N1-00431-00551101291ADDAY171031AY221031GF108991081001008001021999MD1710061+9999MW1711REMSYN066AAXX  11211 28588 41559 82303 11043 21055 40129 57006 77172 8802/;
0140285880999992000011200004+55570+071370FM-12+012999999V0202301N003010075019N0500001N1-00441-00571101311ADDAY171061AY221061GF108991081001008001021999MD1310021+9999MW1021REMSYN066AAXX  12001 28588 41584 82303 11044 21057 40131 53002 70272 8802/;
0180285880999992000011206004+55570+071370FM-12+012999999V0202301N001019999999N0090001N1-00471-00531101241ADDAA100000791AY171061AY221061GF108991081001999999021999KA1999N-00511MD1310011+9999MW1221REMSYN082AAXX  12061 28588 11959 82301 11047 21053 40124 53001 69900 72272 8802/ 333 21051;
0140285880999992000011212004+55570+071370FM-12+012999999V0202701N001019999999N0090001N1-00491-00591101331ADDAY171061AY221061GF106991061001999999051001MD1210081+9999MW1101REMSYN066AAXX  12121 28588 41959 62701 11049 21059 40133 52008 71072 86050;
0112285880999992000011221004+55570+071370FM-12+012999999V0202301N001010300019N0500001N1-00461-00811101501ADDGF107991041071012501071001MD1210021+9999REMSYN060AAXX  12211 28588 42684 72301 11046 21081 40150 52002 84770;
0112285880999992000011300004+55570+071370FM-12+012999999V0202301N001019999999N0500001N1-00591-00941101551ADDGF107991071001999999071001MD1210041+9999REMSYN060AAXX  13001 28588 42984 72301 11059 21094 40155 52004 87070;
0140285880999992000011312004+55570+071370FM-12+012999999V0202301N001019999999N0500001N1-00761-00941101871ADDAY171061AY221061GF107991071001999999031001MD1310071+9999MW1021REMSYN066AAXX  13121 28588 11984 72301 11076 21094 40187 53007 70272 87030;
0190285880999992000011318004+55570+071370FM-12+012999999V0202301N001012200019N0090001N1-01181-01311101911ADDAA100000191AY171061AY211061GA1001+999999999GF100991001001999999001001KA1999M-00541MD1810031+9999MW1101REMSYN076AAXX  13181 28588 11959 02301 11118 21131 40191 58003 69920 71071 333 11054;
0160285880999992000011321004+55570+071370FM-12+012999999V0202301N001012200019N0090001N1-00951-01071101831ADDAY111031AY211031GA1001+999999999GF100991001001999999001001MD1710061+9999MW1101REMSYN070    AAXX  13211 28588 41959 02301 11095 21107 40183 57006 71011 8802/;
0144285880999992000011400004+55570+071370FM-12+012999999V0202301N001019999999N0080001N1-00851-00921101621ADDAY111061AY211061GF108991081001999999021999MD1710201+9999MW1101REMSYN070    AAXX  14001 28588 41958 82301 11085 21092 40162 57020 71011 8802/;
0184285880999992000011406004+55570+071370FM-12+012999999V0201801N007019999999N0070001N1-00661-00981100981ADDAA100000791AY171061AY231061GF108991081001999999021999KA1999N-01221MD1710301+9999MW1711REMSYN086    AAXX  14061 28588 11957 81807 11066 21098 40098 57030 69900 77173 8802/ 333 21122;
0144285880999992000011412004+55570+071370FM-12+012999999V0202301N005019999999N0070001N1-00651-00931100381ADDAY171061AY231061GF107991071001999999071001MD1710181+9999MW1711REMSYN070    AAXX  14121 28588 41957 72305 11065 21093 40038 57018 77173 87070;
0203285880999992000011418004+55570+071370FM-12+012999999V0202301N007010075019N0060001N1-00221-00471100221ADDAA100001091AY171061AY231061GF108991081001008001021999KA1999M+99999MD1710021+9999MW1711REMSYN086    AAXX  14181 28588 11556 82307 11022 21047 40022 57002 60010 77173 8802/ 333 11042;EQDQ01 -00422ATMX  
0144285880999992000011421004+55570+071370FM-12+012999999V0202701N009010075019N0500001N1-00181-00391100371ADDAY171031AY231031GF106991061051008001001001MD1310151+9999MW1361REMSYN070    AAXX  14211 28588 41584 62709 11018 21039 40037 53015 73673 86500;
0144285880999992000011500004+55570+071370FM-12+012999999V0202701N009010075019N0500001N1-00501-00741100501ADDAY171061AY231061GF106991061051008001001001MD1210121+9999MW1361REMSYN070    AAXX  15001 28588 41584 62709 11050 21074 40050 52012 73673 86500;
0194285880999992000011506004+55570+071370FM-12+012999999V0202701N007012200019N0400001N1-01351-01551101171ADDAA100000791AY131061AY211061GA1001+999999999GF100991001001999999001001KA1999N-01351MD1210251+9999MW1361REMSYN080    AAXX  15061 28588 11982 02707 11135 21155 40117 52025 69900 73631 333 21135;
0154285880999992000011512004+55570+071370FM-12+012999999V0203401N007012200019N0400001N1+99999+99999101791ADDAY131061AY211061GA1001+999999999GF100991001001999999001001MD1210311+9999MW1021REMSYN064    AAXX  15121 28588 41982 03407 19062 21309 40179 52031 70231;
0179285880999992000011518004+55570+071370FM-12+012999999V0203201N003012200019N0500001N1-02751-03211102571ADDAA199000091GA1001+999999999GF100991001001999999001001KA1999M-01341MD1210351+9999REMSYN068    AAXX  15181 28588 32984 03203 11275 21321 40257 52035 333 11134;EQDQ01  00002PRCP99
0126285880999992000011521004+55570+071370FM-12+012999999V0203201N005012200019N0500001N1-02851-03291102891ADDGA1001+999999999GF100991001001999999001001MD1210311+9999REMSYN058    AAXX  15211 28588 42984 03205 11285 21329 40289 52031;
0126285880999992000011600004+55570+071370FM-12+012999999V0202701N001012200019N0500001N1-02941-03391103131ADDGA1001+999999999GF100991001001999999001001MD1210221+9999REMSYN058    AAXX  16001 28588 42984 02701 11294 21339 40313 52022;
0169285880999992000011606004+55570+071370FM-12+012999999V0201801N001012200019N0280001N1-02841-03021103381ADDAA199000091GF102991001001999999001011KA1999N-03101MD1210031+9999REMSYN074    AAXX  16061 28588 32978 21801 11284 21302 40338 52003 80001 333 21310;EQDQ01  00002PRCP99
0144285880999992000011612004+55570+071370FM-12+012999999V0201801N001019999999N0090001N1-02441-02761103161ADDAY111061AY211061GF106991041001999999031021MD1710111+9999MW1101REMSYN070    AAXX  16121 28588 41959 61801 11244 21276 40316 57011 71011 84032;
0177285880999992000011618004+55570+071370FM-12+012999999V0201601N005019999999N0500001N1-02161-02481102841ADDAA199000021AY111061AY281061GF107991071001999999071001KA1999M+99999MW1701REMSYN074    AAXX  16181 28588 32984 71605 11216 21248 40284 77018 87070 333 11232;EQDQ01 -02322ATMX  
0110285880999992000011621004+55570+071370FM-12+012999999V0201601N005019999999N0500001N1+99999+99999102571ADDGF107991071001999999051001MD1710261+9999REMSYN058    AAXX  16211 28588 42984 71605 21244 40257 57026 87050;
0116285880999992000011700004+55570+071370FM-12+012999999V0201801N003019999999N0500001N1-02111-02361102451ADDGF106991001001999999001011MD1710121+9999REMSYN064    AAXX  17001 28588 42984 61803 11211 21236 40245 57012 80001;
0184285880999992000011706004+55570+071370FM-12+012999999V0202301N005019999999N0400001N1-01641-01901102101ADDAA100000791AY171061AY221061GF108991081001999999011999KA1999N-02321MD1710131+9999MW1021REMSYN086    AAXX  17061 28588 11982 82305 11164 21190 40210 57013 69900 70272 8801/ 333 21232;
0144285880999992000011712004+55570+071370FM-12+012999999V0201801N003019999999N0400001N1-01081-01521101821ADDAY171061AY221061GF108991001001999999001071MD1710041+9999MW1021REMSYN070    AAXX  17121 28588 41982 81803 11108 21152 40182 57004 70272 80007;
0203285880999992000011718004+55570+071370FM-12+012999999V0202301N003019999999N0060001N1-00871-01111101681ADDAA100000791AY171061AY231061GF108991081001999999021999KA1999M+99999MD1710031+9999MW1711REMSYN086    AAXX  17181 28588 11956 82303 11087 21111 40168 57003 69900 77173 8802/ 333 11093;EQDQ01 -00932ATMX  
0144285880999992000011721004+55570+071370FM-12+012999999V0202301N001019999999N0060001N1-00951-01211101641ADDAY171031AY221031GF108991081001999999021999MD1710051+9999MW1711REMSYN070    AAXX  17211 28588 41956 82301 11095 21121 40164 57005 77172 8802/;
0144285880999992000011800004+55570+071370FM-12+012999999V0202301N001019999999N0060001N1-00951-01211101531ADDAY171061AY221061GF108991081001999999021999MD1710111+9999MW1711REMSYN070    AAXX  18001 28588 41956 82301 11095 21121 40153 57011 77172 8802/;
0184285880999992000011806004+55570+071370FM-12+012999999V0202301N003019999999N0070001N1-01101-01381101611ADDAA100000791AY171061AY221061GF108991081001999999021999KA1999N-01091MD1310111+9999MW1711REMSYN086    AAXX  18061 28588 11957 82303 11110 21138 40161 53011 69900 77172 8802/ 333 21109;
0144285880999992000011812004+55570+071370FM-12+012999999V0202301N003019999999N0060001N1-01031-01311101661ADDAY171061AY221061GF108991081001999999021999MD1810011+9999MW1711REMSYN070    AAXX  18121 28588 41956 82303 11103 21131 40166 58001 77172 8802/;
0126285880999992000011821004+55570+071370FM-12+012999999V0202301N003012200019N0500001N1-01301-01571101871ADDGA1001+999999999GF100991001001999999001001MD1210031+9999REMSYN058    AAXX  18211 28588 42984 02303 11130 21157 40187 52003;
0116285880999992000011900004+55570+071370FM-12+012999999V0202501N003019999999N0500001N1-01331-01601102071ADDGF108991081001999999011999MD1210191+9999REMSYN064    AAXX  19001 28588 42984 82503 11133 21160 40207 52019 8801/;
0213285880999992000011906004+55570+071370FM-12+012999999V0202001N003019999999N0060001N1-01551-01821102441ADDAA199000091AY121061AY221061GF106991001001999999001021KA1999N+99999MD1210141+9999MW1101REMSYN080    AAXX  19061 28588 31956 62003 11155 21182 40244 52014 71022 80002 333 21144;EQDQ01  00002PRCP99Q02 -01442ATMN  
0144285880999992000011912004+55570+071370FM-12+012999999V0202001N003019999999N0070001N1-00821-01011102551ADDAY171061AY221061GF108991081001999999021999MD1210121+9999MW1711REMSYN070    AAXX  19121 28588 41957 82003 11082 21101 40255 52012 77172 8802/;
0190285880999992000011918004+55570+071370FM-12+012999999V0202301N001012200019N0500001N1-01371-01501102781ADDAA100000591AY171061AY211061GA1001+999999999GF100991001001999999001001KA1999M-00781MD1210011+9999MW1021REMSYN076AAXX  19181 28588 11984 02301 11137 21150 40278 52001 69960 70271 333 11078;
0122285880999992000011921004+55570+071370FM-12+012999999V0209999C000012200019N0500001N1-01531-01661102681ADDGA1001+999999999GF100991001001999999001001MD1810111+9999REMSYN054AAXX  19211 28588 42984 00000 11153 21166 40268 58011;
0170285880999992000012000004+55570+071370FM-12+012999999V0201801N007019999999N0060001N1-01061-01341101952ADDAA199000021AY171061AY231061GF108991081001999999021999MD1210331+9999MW1711REMSYN066AAXX  10601 28588 31956 81807 11106 21134 40195 52033 77173 8802/;EQDQ01+101953APOSLP
0146285880999992000012006004+55570+071370FM-12+012999999V0201401N003019999999N0220001N1-01591-01721102401ADDAA199000021GF106991001001999999001021KA1999N-01871MD1810301+9999REMSYN070AAXX  20061 28588 32972 61403 11159 21172 40240 58030 80002 333 21187;
0140285880999992000012012004+55570+071370FM-12+012999999V0201401N005019999999N0080001N1-01121-01321102181ADDAY121061AY221061GF108991081001999999021999MD1710051+9999MW1101REMSYN066AAXX  20121 28588 41958 81405 11112 21132 40218 57005 71022 8802/;
0193285880999992000012018004+55570+071370FM-12+012999999V0201401N007019999999N0500001N1-01371-01571101761ADDAA199000091AY131061AY221061GF108991001001999999001071KA1999M-01111MD1710221+9999MW1361REMSYN076AAXX  20181 28588 31984 81407 11137 21157 40176 57022 73632 80007 333 11111;EQDQ01  00002PRCP99
0140285880999992000012021004+55570+071370FM-12+012999999V0201401N009019999999N0500001N1-01281-01481101581ADDAY131031AY221031GF108991001001999999001071MD1710161+9999MW1361REMSYN066AAXX  20211 28588 41984 81409 11128 21148 40158 57016 73632 80007;
0140285880999992000012100004+55570+071370FM-12+012999999V0201401N009019999999N0500001N1-01071-01271101541ADDAY131061AY221061GF108991001001999999001071MD1710031+9999MW1361REMSYN066AAXX  21001 28588 41984 81409 11107 21127 40154 57003 73632 80007;
0140285880999992000012112004+55570+071370FM-12+012999999V0201101N003019999999N0400001N1-01101-01541102311ADDAY171061AY231061GF106991001001999999001021MD1210191+9999MW1021REMSYN066AAXX  21121 28588 41982 61103 11110 21154 40231 52019 70273 80002;
0140285880999992000012121004+55570+071370FM-12+012999999V0201401N007019999999N0060001N1-01041-01171102151ADDAY171031AY231031GF108991081001999999021999MD1810171+9999MW1711REMSYN066AAXX  21211 28588 41956 81407 11104 21117 40215 58017 77173 8802/;
0140285880999992000012200004+55570+071370FM-12+012999999V0201401N007019999999N0500001N1-00801-00941102101ADDAY171061AY231061GF108991081001999999021999MD1710041+9999MW1361REMSYN066AAXX  22001 28588 41984 81407 11080 21094 40210 57004 73673 8802/;
0180285880999992000012206004+55570+071370FM-12+012999999V0201401N007019999999N0400001N1-00671-01091101901ADDAA100000791AY131061AY221061GF108991001001999999001021KA1999N-01401MD1710081+9999MW1361REMSYN082AAXX  22061 28588 11982 81407 11067 21109 40190 57008 69900 73632 80002 333 21140;
0140285880999992000012212004+55570+071370FM-12+012999999V0201401N007019999999N0500001N1-00871-01361101921ADDAY131061AY221061GF107991071001999999071001MD1310011+9999MW1361REMSYN066AAXX  22121 28588 41984 71407 11087 21136 40192 53001 73632 87070;
0140285880999992000012221004+55570+071370FM-12+012999999V0201401N009019999999N0500001N1-00721-01411101851ADDAY131031AY221031GF108991001001999999001071MD1310041+9999MW1361REMSYN066AAXX  22211 28588 41984 81409 11072 21141 40185 53004 73632 80007;
0140285880999992000012300004+55570+071370FM-12+012999999V0201101N009019999999N0500001N1-00881-01601101801ADDAY131061AY221061GF108991001001999999001071MD1810051+9999MW1361REMSYN066AAXX  23001 28588 41984 81109 11088 21160 40180 58005 73632 80007;
0193285880999992000012306004+55570+071370FM-12+012999999V0201101N007019999999N0400001N1-01021-01751101721ADDAA199000091AY131061AY221061GF108991081001999999011999KA1999N-01061MD1710021+9999MW1361REMSYN076AAXX  23061 28588 31982 81107 11102 21175 40172 57002 73632 8801/ 333 21106;EQDQ01  00002PRCP99
0140285880999992000012312004+55570+071370FM-12+012999999V0201101N007019999999N0500001N1-01001-01361101841ADDAY171061AY231061GF108991081001999999021999MD1210091+9999MW1361REMSYN066AAXX  23121 28588 41984 81107 11100 21136 40184 52009 73673 8802/;
0180285880999992000012318004+55570+071370FM-12+012999999V0201401N005019999999N0090001N1-01071-01271101871ADDAA100001091AY171061AY231061GF108991081001999999021999KA1999M-00931MD1210021+9999MW1711REMSYN082AAXX  23181 28588 11959 81405 11107 21127 40187 52002 60010 77173 8802/ 333 11093;
0140285880999992000012321004+55570+071370FM-12+012999999V0201401N003010075019N0500001N1-01131-01331101861ADDAY171031AY221031GF108991081001008001021999MD1810031+9999MW1021REMSYN066AAXX  23211 28588 41584 81403 11113 21133 40186 58003 70272 8802/;
0140285880999992000012400004+55570+071370FM-12+012999999V0201401N003010075019N0500001N1-01151-01351101771ADDAY171061AY221061GF108991081001008001021999MD1710091+9999MW1021REMSYN066AAXX  24001 28588 41584 81403 11115 21135 40177 57009 70272 8802/;
0185285880999992000012406004+55570+071370FM-12+012999999V0201601N002012200019N0200001N1-01091-01291101711ADDAA100002091AY171061AY211061GF102991001001999999001021IA1099IA2999-03209MD1410001+9999MW1011REMSYN082AAXX  24061 28588 11970 21602 11109 21129 40171 54000 60020 70171 80002 333 31132;
0150285880999992000012412004+55570+071370FM-12+012999999V0201801N003012200019N0090001N1-01111-01391101841ADDAY101061AY201061GA1001+999999999GF100991001001999999001001MD1210121+9999MW1101REMSYN060AAXX  24121 28588 41959 01803 11111 21139 40184 52012 71000;
0112285880999992000012421004+55570+071370FM-12+012999999V0202301N003019999999N0500001N1-01361-01561102011ADDGF108991001001999999001071MD1810031+9999REMSYN060AAXX  24211 28588 42984 82303 11136 21156 40201 58003 80007;
0140285880999992000012500004+55570+071370FM-12+012999999V0202301N003019999999N0060001N1-01161-01361102041ADDAY171061AY221061GF108991081001999999021999MD1310041+9999MW1711REMSYN066AAXX  25001 28588 41956 82303 11116 21136 40204 53004 77172 8802/;
0180285880999992000012506004+55570+071370FM-12+012999999V0202301N007019999999N0070001N1-01341-01691102391ADDAA100000791AY171061AY231061GF108991081001999999021999KA1999N-01531MD1210221+9999MW1711REMSYN082AAXX  25061 28588 11957 82307 11134 21169 40239 52022 69900 77173 8802/ 333 21153;
0150285880999992000012512004+55570+071370FM-12+012999999V0202701N007012200019N0400001N1-01461-02071102921ADDAY171061AY231061GA1001+999999999GF100991001001999999001001MD1210321+9999MW1361REMSYN060AAXX  25121 28588 41982 02707 11146 21207 40292 52032 73673;
0190285880999992000012518004+55570+071370FM-12+012999999V0202701N003012200019N0500001N1-01991-02401103531ADDAA100000591AY131061AY201061GA1001+999999999GF100991001001999999001001KA1999M-01221MD1210261+9999MW1021REMSYN076AAXX  25181 28588 11984 02703 11199 21240 40353 52026 69960 70230 333 11122;
0122285880999992000012521004+55570+071370FM-12+012999999V0202301N003012200019N0500001N1-02151-02551103731ADDGA1001+999999999GF100991001001999999001001MD1210181+9999REMSYN054AAXX  25211 28588 42984 02303 11215 21255 40373 52018;
0122285880999992000012600004+55570+071370FM-12+012999999V0201901N002012200019N0500001N1-02251-02571103911ADDGA1001+999999999GF100991001001999999001001MD1210181+9999REMSYN054AAXX  26001 28588 42984 01902 11225 21257 40391 52018;
0165285880999992000012606004+55570+071370FM-12+012999999V0201801N003019999999N0230001N1-01921-02411104231ADDAA199000091GF108991001001999999001021KA1999N-02331MD1210141+9999REMSYN070AAXX  26061 28588 32973 81803 11192 21241 40423 52014 80002 333 21233;EQDQ01  00002PRCP99
0112285880999992000012612004+55570+071370FM-12+012999999V0201801N004019999999N0210001N1-01741-02241104231ADDGF108991001001999999001021MD1010031+9999REMSYN060AAXX  26121 28588 42971 81804 11174 21224 40423 50003 80002;
0122285880999992000012621004+55570+071370FM-12+012999999V0201601N003012200019N0500001N1-01781-02191103781ADDGA1001+999999999GF100991001001999999001001MD1710191+9999REMSYN054AAXX  26211 28588 42984 01603 11178 21219 40378 57019;
0122285880999992000012700004+55570+071370FM-12+012999999V0201501N005012200019N0500001N1-01761-02351103651ADDGA1001+999999999GF100991001001999999001001MD1710121+9999REMSYN054AAXX  27001 28588 42984 01505 11176 21235 40365 57012;
0165285880999992000012706004+55570+071370FM-12+012999999V0201301N006019999999N0400001N1-01491-02091103321ADDAA199000091GF107991001001999999001021KA1999N-01951MD1710071+9999REMSYN070AAXX  27061 28588 32982 71306 11149 21209 40332 57007 80002 333 21195;EQDQ01  00002PRCP99
0140285880999992000012712004+55570+071370FM-12+012999999V0201601N006019999999N0400001N1-01321+99999103001ADDAY131061AY221061GF107991001001999999001021MD1710111+9999MW1361REMSYN066AAXX  27121 28588 41982 71606 11132 20193 40300 57011 73632 80002;
0203285880999992000012718004+55570+071370FM-12+012999999V0201601N004012200019N0500001N1-01361-01881102871ADDAA199000091AY131061AY211061GA1001+999999999GF100991001001999999001001KA1999M-01091MD1710031+9999MW1021REMSYN070AAXX  27181 28588 31984 01604 11136 21188 40287 57003 70231 333 11109;EQDQ01  00002PRCP99
0122285880999992000012721004+55570+071370FM-12+012999999V0201701N005012200019N0500001N1-01351-01871102771ADDGA1001+999999999GF100991001001999999001001MD1710101+9999REMSYN054AAXX  27211 28588 42984 01705 11135 21187 40277 57010;
0122285880999992000012800004+55570+071370FM-12+012999999V0201801N003012200019N0500001N1-01461-01971102631ADDGA1001+999999999GF100991001001999999001001MD1710131+9999REMSYN054AAXX  28001 28588 42984 01803 11146 21197 40263 57013;
0165285880999992000012806004+55570+071370FM-12+012999999V0201601N004019999999N0400001N1-01361-01971102531ADDAA199000091GF106991001001999999001021KA1999N-01571MD1710061+9999REMSYN070AAXX  28061 28588 32982 61604 11136 21197 40253 57006 80002 333 21157;EQDQ01  00002PRCP99
0165285880999992000012818004+55570+071370FM-12+012999999V0201801N004019999999N0500001N1-01271-01791102091ADDAA199000091GF107991071001999999051001KA1999M-00981MD1710011+9999REMSYN070AAXX  28181 28588 32984 71804 11127 21179 40209 57001 87050 333 11098;EQDQ01  00002PRCP99
0140285880999992000012821004+55570+071370FM-12+012999999V0202101N003019999999N0060001N1-01201-01401102111ADDAY171031AY221031GF108991081001999999021999MD1310021+9999MW1711REMSYN066AAXX  28211 28588 41956 82103 11120 21140 40211 53002 77172 8802/;
0140285880999992000012900004+55570+071370FM-12+012999999V0202001N002019999999N0080001N1-01031-01231102221ADDAY171061AY221061GF108991081001999999021999MD1210121+9999MW1711REMSYN066AAXX  29001 28588 41958 82002 11103 21123 40222 52012 77172 8802/;
0180285880999992000012906004+55570+071370FM-12+012999999V0202301N001019999999N0290001N1-01031-01161102401ADDAA100003091AY171061AY221061GF108991081001999999011999KA1999N-01291MD1210031+9999MW1021REMSYN082AAXX  29061 28588 11979 82301 11103 21116 40240 52003 60030 70272 8801/ 333 21129;
0112285880999992000012912004+55570+071370FM-12+012999999V0203501N001012200019N0400001N1-01121-01251102541ADDGF103991021001999999031011MD1210041+9999REMSYN060AAXX  29121 28588 42982 33501 11112 21125 40254 52004 82031;
0181285880999992000012918004+55570+071370FM-12+012999999V0200201N001012200019N0500001N1-01701-01831102551ADDAA199000091GF102991001001999999001011KA1999N+99999MD1810051+9999REMSYN070AAXX  29181 28588 32984 20201 11170 21183 40255 58005 80001 333 21096;EQDQ01  00002PRCP99Q02 -00962ATMN  
0150285880999992000012921004+55570+071370FM-12+012999999V0203301N001012200019N0080001N1-01921-01981102511ADDAY101031AY201031GA1001+999999999GF100991001001999999001001MD1710071+9999MW1101REMSYN060AAXX  29211 28588 41958 03301 11192 21198 40251 57007 71000;
0150285880999992000013000004+55570+071370FM-12+012999999V0203301N001012200019N0060001N1-01931-01991102451ADDAY101061AY201061GA1001+999999999GF100991001001999999001001MD1710061+9999MW1101REMSYN060AAXX  30001 28588 41956 03301 11193 21199 40245 57006 71000;
0203285880999992000013006004+55570+071370FM-12+012999999V0202401N001012200019N0060001N1-01831-02021102321ADDAA199000091AY111061AY211061GA1001+999999999GF100991001001999999001001KA1999N-02121MD1710101+9999MW1101REMSYN070AAXX  30061 28588 31956 02401 11183 21202 40232 57010 71011 333 21212;EQDQ01  00002PRCP99
0112285880999992000013012004+55570+071370FM-12+012999999V0201901N003019999999N0280001N1-01381-01651102041ADDGF106991061001999999051001MD1710071+9999REMSYN060AAXX  30121 28588 42978 61903 11138 21165 40204 57007 86050;
0199285880999992000013018004+55570+071370FM-12+012999999V0202401N005019999999N0060001N1-01061-01261102011ADDAA100000791AY171061AY221061GF108991081001999999021999KA1999M+99999MD1810011+9999MW1711REMSYN082AAXX  30181 28588 11956 82405 11106 21126 40201 58001 69900 77172 8802/ 333 11127;EQDQ01 -01272ATMX  
0140285880999992000013021004+55570+071370FM-12+012999999V0202501N005019999999N0500001N1-00961-01171102041ADDAY171031AY221031GF108991081001999999021999MD1310031+9999MW1021REMSYN066AAXX  30211 28588 41984 82505 11096 21117 40204 53003 70272 8802/;
0159285880999992000013100004+55570+071370FM-12+012999999V0200701N006012200019N0500001N1-01061-01191102131ADDAY171061AY231061GF102991999001999999021999MD1210081+9999MW1361REMSYN066AAXX  31001 28588 41984 20706 11106 21119 40213 52008 73673 8802/;EQDQ01+000082SCOTLC
0190285880999992000013106004+55570+071370FM-12+012999999V0202701N004012200019N0210001N1-01011-01211102581ADDAA100000591AY171061AY211061GA1001+999999999GF100991001001999999001001KA1999N-01281MD1210261+9999MW1011REMSYN076AAXX  31061 28588 11971 02704 11101 21121 40258 52026 69940 70171 333 21128;
0122285880999992000013112004+55570+071370FM-12+012999999V0202501N003012200019N0230001N1-01191-01461102891ADDGA1001+999999999GF100991001001999999001001MD1210171+9999REMSYN054AAXX  31121 28588 42973 02503 11119 21146 40289 52017;
0150285880999992000013121004+55570+071370FM-12+012999999V0201901N002012200019N0080001N1-01761-01951103061ADDAY101031AY201031GA1001+999999999GF100991001001999999001001MD1210021+9999MW1101REMSYN060AAXX  31211 28588 41958 01902 11176 21195 40306 52002 71000;
0150285880999992000020100004+55570+071370FM-12+012999999V0202001N002012200019N0060001N1-01801-01921103021ADDAY101061AY201061GA1001+999999999GF100991001001999999001001MD1810041+9999MW1101REMSYN060AAXX  01001 28588 41956 02002 11180 21192 40302 58004 71000;
0193285880999992000020106004+55570+071370FM-12+012999999V0201901N003019999999N0060001N1-01211-01341102921ADDAA199000091AY111061AY211061GF108991081001999999021999KA1999N-01821MD1310011+9999MW1101REMSYN076AAXX  01061 28588 31956 81903 11121 21134 40292 53001 71011 8802/ 333 21182;EQDQ01  00002PRCP99
0140285880999992000020112004+55570+071370FM-12+012999999V0201801N003019999999N0060001N1-00911-00981102641ADDAY171061AY221061GF107991071001999999071001MD1710201+9999MW1101REMSYN066AAXX  01121 28588 41956 71803 11091 21098 40264 57020 71072 87070;
0180285880999992000020118004+55570+071370FM-12+012999999V0201901N003010075019N0090001N1-00671-00721102491ADDAA100000191AY121061AY221061GF108991081001008001021999KA1999M-00701MD1710081+9999MW1101REMSYN082AAXX  01181 28588 11559 81903 11067 21072 40249 57008 69920 71022 8802/ 333 11070;
0140285880999992000020121004+55570+071370FM-12+012999999V0202101N003010075019N0090001N1-00551-00591102431ADDAY121031AY221031GF108991081001008001021999MD1710061+9999MW1101REMSYN066AAXX  01211 28588 41559 82103 11055 21059 40243 57006 71022 8802/;
0140285880999992000020200004+55570+071370FM-12+012999999V0201801N004010075019N0080001N1-00581-00621102431ADDAY121061AY221061GF108991081001008001021999MD1410001+9999MW1101REMSYN066AAXX  02001 28588 41558 81804 11058 21062 40243 54000 71022 8802/;
0181285880999992000020206004+55570+071370FM-12+012999999V0201701N004012200019N0400001N1-00851-00961102271ADDAA199000091GF103991001001999999001021KA1999N+99999MD1710051+9999REMSYN070AAXX  02061 28588 32982 31704 11085 21096 40227 57005 80002 333 21071;EQDQ01  00002PRCP99Q02 -00712ATMN  
0112285880999992000020212004+55570+071370FM-12+012999999V0201501N004019999999N0350001N1-00891-01281101991ADDGF106991001001999999001021MD1710211+9999REMSYN060AAXX  02121 28588 42981 61504 11089 21128 40199 57021 80002;
0175285880999992000020218004+55570+071370FM-12+012999999V0201501N005012200019N0500001N1-01331-01531101881ADDAA199000091GA1001+999999999GF100991001001999999001001KA1999M-00561MD1810171+9999REMSYN064AAXX  02181 28588 32984 01505 11133 21153 40188 58017 333 11056;EQDQ01  00002PRCP99
0122285880999992000020221004+55570+071370FM-12+012999999V0201601N005012200019N0500001N1-01401-01601101701ADDGA1001+999999999GF100991001001999999001001MD1710181+9999REMSYN054AAXX  02211 28588 42984 01605 11140 21160 40170 57018;
0122285880999992000020300004+55570+071370FM-12+012999999V0201601N005012200019N0500001N1-01561-01751101561ADDGA1001+999999999GF100991001001999999001001MD1710141+9999REMSYN054AAXX  03001 28588 42984 01605 11156 21175 40156 57014;
0165285880999992000020306004+55570+071370FM-12+012999999V0201401N006019999999N0220001N1-01611-01741101231ADDAA199000091GF106991001001999999001021KA1999N-01651MD1710201+9999REMSYN070AAXX  03061 28588 32972 61406 11161 21174 40123 57020 80002 333 21165;EQDQ01  00002PRCP99
0140285880999992000020312004+55570+071370FM-12+012999999V0201401N004019999999N0060001N1-01461-01591101061ADDAY171061AY221061GF108991081001999999021999MD1710011+9999MW1711REMSYN066AAXX  03121 28588 41956 81404 11146 21159 40106 57001 77172 8802/;
0180285880999992000020318004+55570+071370FM-12+012999999V0201401N003019999999N0060001N1-01541-01671101121ADDAA100000591AY171061AY221061GF108991081001999999021999KA1999M-01381MD1810071+9999MW1711REMSYN082AAXX  03181 28588 11956 81403 11154 21167 40112 58007 69950 77172 8802/ 333 11138;
0140285880999992000020321004+55570+071370FM-12+012999999V0201301N003019999999N0070001N1-01411-01471101061ADDAY171031AY221031GF108991081001999999021999MD1710041+9999MW1711REMSYN066AAXX  03211 28588 41957 81303 11141 21147 40106 57004 77172 8802/;
0140285880999992000020400004+55570+071370FM-12+012999999V0201301N004019999999N0070001N1-01401-01461101081ADDAY171061AY221061GF108991081001999999021999MD1310021+9999MW1711REMSYN066AAXX  04001 28588 41957 81304 11140 21146 40108 53002 77172 8802/;
0157285880999992000020406004+55570+071370FM-12+012999999V0201901N005019999999N0400001N1-01221-01421101081ADDAA100000791AY171061AY221061GF106991061001999999051001MD1810171+9999MW1021REMSYN072AAXX  04061 28588 11982 61905 11122 21142 40108 58017 69900 70272 86050;
0140285880999992000020412004+55570+071370FM-12+012999999V0201601N007019999999N0060001N1-00681-00971100661ADDAY171061AY231061GF108991081001999999021999MD1710231+9999MW1711REMSYN066AAXX  04121 28588 41956 81607 11068 21097 40066 57023 77173 8802/;
0222285880999992000020418004+55570+071370FM-12+012999999V0202001N008019999999N0060001N1-00121-00221099971ADDAA100000791AY171061AY231061GF108991081001999999021999KA1120M+99999MD1710291+9999MW1711OA140101301REMSYN094AAXX  04181 28588 11956 82008 11012 21022 49997 57029 69900 77173 8802/ 333 11030 91013 91113;EQDQ01 -00302ATMX  
0191285880999992000020421004+55570+071370FM-12+012999999V0202101N999999999999N0060001N1-00121+99999999999ADDAY171031AY231031GF105991999001999999021999MD1310041+9999MW1711REMSYN066AAXX  04211 28588 41956 52197 11012 21011 40102 53004 77173 8802/;EQDQ01+009701WOSPD Q02+000082SCOTLCQ03+101023APOSLP
0146285880999992000020500004+55570+071370FM-12+012999999V0202501N006019999999N0060001N1-00011-00071100371ADDAY171061AY231061GF108991081001999999021999MD1210351+9999MW1711REMSYN072AAXX  05001 28588 41956 82506 11001 21007 40037 52035 77173 8802/ 93701;
0180285880999992000020506004+55570+071370FM-12+012999999V0202301N004010300019N0060001N1-00191-00401100871ADDAA100001091AY171061AY221061GF107991021011008001071001KA1999N-00301MD1210211+9999MW1711REMSYN082AAXX  05061 28588 11556 72304 11019 21040 40087 52021 60010 77172 82170 333 21030;
0140285880999992000020512004+55570+071370FM-12+012999999V0202401N004019999999N0250001N1-00211-00601101021ADDAY171061AY221061GF107991071001999999071001MD1410001+9999MW1021REMSYN066AAXX  05121 28588 41975 72404 11021 21060 40102 54000 70272 87070;
0140285880999992000020521004+55570+071370FM-12+012999999V0202101N003019999999N0500001N1-00281-00441100871ADDAY171031AY221031GF108991081001999999021999MD1710041+9999MW1021REMSYN066AAXX  05211 28588 41984 82103 11028 21044 40087 57004 70272 8802/;
0140285880999992000020600004+55570+071370FM-12+012999999V0202601N004010075019N0500001N1-00321-00631100921ADDAY171061AY221061GF107991071051008001001001MD1310051+9999MW1021REMSYN066AAXX  06001 28588 41584 72604 11032 21063 40092 53005 70272 87500;
0209285880999992000020606004+55570+071370FM-12+012999999V0203001N005019999999N0400001N1-00871-01301101491ADDAA199000091AY131061AY221061GF106991001001999999001011KA1999N+99999MD1210431+9999MW1361REMSYN076AAXX  06061 28588 31982 63005 11087 21130 40149 52043 73632 80001 333 21052;EQDQ01  00002PRCP99Q02 -00522ATMN  
0150285880999992000020612004+55570+071370FM-12+012999999V0203001N002012200019N0400001N1-00941-01631102021ADDAY131061AY211061GA1001+999999999GF100991001001999999001001MD1210241+9999MW1021REMSYN060AAXX  06121 28588 41982 03002 11094 21163 40202 52024 70231;
0175285880999992000020618004+55570+071370FM-12+012999999V0202601N003012200019N0500001N1-01801-02061102581ADDAA199000091GA1001+999999999GF100991001001999999001001KA1999M-00511MD1210231+9999REMSYN064AAXX  06181 28588 32984 02603 11180 21206 40258 52023 333 11051;EQDQ01  00002PRCP99
0122285880999992000020621004+55570+071370FM-12+012999999V0201901N002012200019N0500001N1-01961-02221102701ADDGA1001+999999999GF100991001001999999001001MD1210091+9999REMSYN054AAXX  06211 28588 42984 01902 11196 21222 40270 52009;
0122285880999992000020700004+55570+071370FM-12+012999999V0202501N001012200019N0500001N1-01881-02141102771ADDGA1001+999999999GF100991001001999999001001MD1210091+9999REMSYN054AAXX  07001 28588 42984 02501 11188 21214 40277 52009;
0193285880999992000020706004+55570+071370FM-12+012999999V0201801N003012200019N0060001N1-01681-02021102761ADDAA199000091AY101061AY201061GF102991001001999999001021KA1999N-02101MD1810031+9999MW1101REMSYN076AAXX  07061 28588 31956 21803 11168 21202 40276 58003 71000 80002 333 21210;EQDQ01  00002PRCP99
0112285880999992000020712004+55570+071370FM-12+012999999V0201601N002019999999N0400001N1-01411-01921102491ADDGF108991001001999999001021MD1710161+9999REMSYN060AAXX  07121 28588 42982 81602 11141 21192 40249 57016 80002;
0193285880999992000020718004+55570+071370FM-12+012999999V0201501N004019999999N0500001N1-01511-01701102331ADDAA199000091AY171061AY211061GF108991001001999999001021KA1999M-01191MD1710131+9999MW1031REMSYN076AAXX  07181 28588 31984 81504 11151 21170 40233 57013 70371 80002 333 11119;EQDQ01  00002PRCP99
0112285880999992000020721004+55570+071370FM-12+012999999V0201401N003019999999N0500001N1-01771-01961102251ADDGF108991001001999999001021MD1710101+9999REMSYN060AAXX  07211 28588 42984 81403 11177 21196 40225 57010 80002;
0147285880999992000020800004+55570+071370FM-12+012999999V0201001N002019999999N0500001N1+99999+99999102111ADDGF108991001001999999001021MD1710141+9999REMSYN060AAXX  08001 28588 42984 81002 11742 21193 40211 57014 80002;EQDQ01-007423ATOT  Q02 -07423ATOT  
0180285880999992000020806004+55570+071370FM-12+012999999V0200401N003019999999N0060001N1-01331-01531101761ADDAA100000591AY171061AY221061GF108991081001999999021999KA1999N-01881MD1710171+9999MW1711REMSYN082AAXX  08061 28588 /1956 80403 11133 21153 40176 57017 69960 77172 8802/ 333 21188;
0140285880999992000020812004+55570+071370FM-12+012999999V0203201N002012200019N0080001N1-01221-01421101551ADDAY171061AY211061GF102991999999999999999999MD1710051+9999MW1101REMSYN066AAXX  08121 28588 41958 23202 11122 21142 40155 57005 71071 92080;
0152285880999992000020818004+55570+071370FM-12+012999999V0203301N002012200019N0500001N1-01711-01971101601ADDAA100003091GF102991001001999999001011KA1999M-01051MD1810021+9999REMSYN076AAXX  08181 28588 12984 23302 11171 21197 40160 58002 60030 80001 333 11105;
0122285880999992000020821004+55570+071370FM-12+012999999V0203301N002012200019N0500001N1-01961-02291101701ADDGA1001+999999999GF100991001001999999001001MD1310081+9999REMSYN054AAXX  08211 28588 42984 03302 11196 21229 40170 53008;
0122285880999992000020900004+55570+071370FM-12+012999999V0203401N003012200019N0500001N1-02021-02351101721ADDGA1001+999999999GF100991001001999999001001MD1210021+9999REMSYN054AAXX  09001 28588 42984 03403 11202 21235 40172 52002;
0152285880999992000020906004+55570+071370FM-12+012999999V0202501N002012200019N0210001N1-01931-02191101881ADDAA199000091GA1001+999999999GF100991001001999999001001MD1210011+9999REMSYN054AAXX  09061 28588 32971 02502 11193 21219 40188 52001;EQDQ01  00002PRCP99
0122285880999992000020912004+55570+071370FM-12+012999999V0202401N001012200019N0400001N1-01461-01891102001ADDGA1001+999999999GF100991001001999999001001MD1210091+9999REMSYN054AAXX  09121 28588 42982 02401 11146 21189 40200 52009;
0175285880999992000020918004+55570+071370FM-12+012999999V0201901N001012200019N0500001N1-02121-02371102361ADDAA199000091GA1001+999999999GF100991001001999999001001KA1999M-01451MD1210121+9999REMSYN064AAXX  09181 28588 32984 01901 11212 21237 40236 52012 333 11145;EQDQ01  00002PRCP99
0122285880999992000020921004+55570+071370FM-12+012999999V0202101N002012200019N0500001N1-02101-02351102431ADDGA1001+999999999GF100991001001999999001001MD1210081+9999REMSYN054AAXX  09211 28588 42984 02102 11210 21235 40243 52008;
0150285880999992000021000004+55570+071370FM-12+012999999V0202101N001012200019N0090001N1-02131-02381102501ADDAY101061AY201061GA1001+999999999GF100991001001999999001001MD1210061+9999MW1101REMSYN060AAXX  10001 28588 41959 02101 11213 21238 40250 52006 71000;
0190285880999992000021006004+55570+071370FM-12+012999999V0202001N003012200019N0130001N1-01801-02061102681ADDAA100000791AY171061AY211061GA1001+999999999GF100991001001999999001001KA1999N-02171MD1210051+9999MW1011REMSYN076AAXX  10061 28588 11963 02003 11180 21206 40268 52005 69900 70171 333 21217;
0122285880999992000021012004+55570+071370FM-12+012999999V0201901N003012200019N0200001N1-01511-01931102771ADDGA1001+999999999GF100991001001999999001001MD1210051+9999REMSYN054AAXX  10121 28588 42970 01903 11151 21193 40277 52005;
0112285880999992000021021004+55570+071370FM-12+012999999V0202101N002010075019N0500001N1-01421-01691102681ADDGF107991071051008001001001MD1710061+9999REMSYN060AAXX  10211 28588 42584 72102 11142 21169 40268 57006 87500;
0112285880999992000021100004+55570+071370FM-12+012999999V0201601N003019999999N0500001N1-01341-01611102591ADDGF108991081001999999021999MD1710081+9999REMSYN060AAXX  11001 28588 42984 81603 11134 21161 40259 57008 8802/;
0180285880999992000021106004+55570+071370FM-12+012999999V0201601N004019999999N0080001N1-01131-01411102561ADDAA100000791AY171061AY221061GF107991071001999999071001KA1999N-01751MD1310071+9999MW1711REMSYN082AAXX  11061 28588 11958 71604 11113 21141 40256 53007 69900 77172 87070 333 21175;
0140285880999992000021112004+55570+071370FM-12+012999999V0201401N005019999999N0070001N1-00971-01281102371ADDAY171061AY231061GF107991071001999999071001MD1710121+9999MW1711REMSYN066AAXX  11121 28588 41957 71405 11097 21128 40237 57012 77173 87070;
0174285880999992000021118004+55570+071370FM-12+012999999V0201301N004019999999N0060001N1-00971-01231102201ADDAA100000591AY171061AY231061GF108991999999008001999999KA1999M-00871MD1710111+9999MW1711REMSYN076AAXX  11181 28588 11556 81304 11097 21123 40220 57011 69960 77173 333 11087;
0140285880999992000021121004+55570+071370FM-12+012999999V0201201N003010075019N0060001N1-00861-01101102141ADDAY171031AY221031GF108991081001008001021999MD1710051+9999MW1711REMSYN066AAXX  11211 28588 41556 81203 11086 21110 40214 57005 77172 8802/;
0140285880999992000021200004+55570+071370FM-12+012999999V0201501N003010075019N0050001N1-00701-00831101981ADDAY171061AY221061GF108991081001008001021999MD1710141+9999MW1711REMSYN066AAXX  12001 28588 41550 81503 11070 21083 40198 57014 77172 8802/;
0199285880999992000021206004+55570+071370FM-12+012999999V0201401N003010075019N0080001N1-00351-00401101821ADDAA100000591AY171061AY221061GF108991081001008001021999KA1999M+99999MD1710101+9999MW1711REMSYN082AAXX  12061 28588 11558 81403 11035 21040 40182 57010 69960 77172 8802/ 333 11103;EQDQ01 -01032ATMX  
0140285880999992000021212004+55570+071370FM-12+012999999V0201201N004010075019N0280001N1-00271-00431101691ADDAY171061AY221061GF108991081001008001021999MD1710081+9999MW1711REMSYN066AAXX  12121 28588 41578 81204 11027 21043 40169 57008 77172 8802/;
0180285880999992000021218004+55570+071370FM-12+012999999V0201501N004019999999N0060001N1-00311-00481101441ADDAA100000591AY171061AY221061GF108991081001999999021999KA1999M-00221MD1710121+9999MW1711REMSYN082AAXX  12181 28588 11956 81504 11031 21048 40144 57012 69960 77172 8802/ 333 11022;
0140285880999992000021300004+55570+071370FM-12+012999999V0202401N006012200019N0500001N1-00071-00421101071ADDAY171061AY231061GF103991001001999999001011MD1710061+9999MW1361REMSYN066AAXX  13001 28588 41984 32406 11007 21042 40107 57006 73673 80001;
0180285880999992000021306004+55570+071370FM-12+012999999V0202101N004019999999N0060001N1-00171-00381101011ADDAA100002091AY171061AY231061GF107991071001999999071001KA1999N-00351MD1810081+9999MW1711REMSYN082AAXX  13061 28588 11956 72104 11017 21038 40101 58008 60020 77173 87070 333 21035;
0140285880999992000021312004+55570+071370FM-12+012999999V0202401N006010075019N0060001N1-00191-00431101131ADDAY171061AY231061GF108991081001008001021999MD1310121+9999MW1711REMSYN066AAXX  13121 28588 41556 82406 11019 21043 40113 53012 77173 8802/;
0180285880999992000021318004+55570+071370FM-12+012999999V0202601N005010075019N0060001N1-00571-00871101461ADDAA100000191AY171061AY231061GF108991081001008001021999KA1999M-00081MD1210181+9999MW1711REMSYN082AAXX  13181 28588 11556 82605 11057 21087 40146 52018 69920 77173 8802/ 333 11008;
0140285880999992000021321004+55570+071370FM-12+012999999V0202601N004010075019N0060001N1-00661-00901101561ADDAY171031AY231031GF108991081001008001021999MD1210101+9999MW1711REMSYN066AAXX  13211 28588 41556 82604 11066 21090 40156 52010 77173 8802/;
0140285880999992000021400004+55570+071370FM-12+012999999V0202601N004010075019N0500001N1-00631-00861101581ADDAY171061AY231061GF108991081001008001021999MD1210011+9999MW1021REMSYN066AAXX  14001 28588 41584 82604 11063 21086 40158 52001 70273 8802/;
0180285880999992000021406004+55570+071370FM-12+012999999V0201901N003019999999N0060001N1-00621-00891101631ADDAA100000791AY171061AY221061GF108991081001999999021999KA1999N-00671MD1210011+9999MW1711REMSYN082AAXX  14061 28588 11956 81903 11062 21089 40163 52001 69900 77172 8802/ 333 21067;
0140285880999992000021412004+55570+071370FM-12+012999999V0202301N002019999999N0220001N1-00471-00781101541ADDAY171061AY221061GF107991071001999999071001MD1710031+9999MW1021REMSYN066AAXX  14121 28588 41972 72302 11047 21078 40154 57003 70272 87070;
0199285880999992000021418004+55570+071370FM-12+012999999V0201101N001019999999N0060001N1+00531-00671101411ADDAA100000791AY171061AY221061GF108991081001999999021999KA1999M+99999MD1710071+9999MW1711REMSYN082AAXX  14181 28588 11956 81101 10053 21067 40141 57007 69900 77172 8802/ 333 11045;EQDQ01 -00452ATMX  
0140285880999992000021421004+55570+071370FM-12+012999999V0201101N002019999999N0060001N1-00551-00661101311ADDAY171031AY221031GF108991081001999999021999MD1710111+9999MW1711REMSYN066AAXX  14211 28588 41956 81102 11055 21066 40131 57011 77172 8802/;
0140285880999992000021500004+55570+071370FM-12+012999999V0201301N002019999999N0060001N1-00591-00661101191ADDAY171061AY221061GF108991081001999999021999MD1710121+9999MW1711REMSYN066AAXX  15001 28588 41956 81302 11059 21066 40119 57012 77172 8802/;
0180285880999992000021506004+55570+071370FM-12+012999999V0201901N003019999999N0035001N1-00551-00701101021ADDAA100002091AY171061AY221061GF108991081001999999011999KA1999N-00731MD1710081+9999MW1711REMSYN082AAXX  15061 28588 11935 81903 11055 21070 40102 57008 60020 77172 8801/ 333 21073;
0140285880999992000021512004+55570+071370FM-12+012999999V0202801N004010075019N0210001N1-00451-00761101091ADDAY181061AY271061GF107991071091008001001001MD1310091+9999MW1251REMSYN066AAXX  15121 28588 41571 72804 11045 21076 40109 53009 72587 87900;
0180285880999992000021518004+55570+071370FM-12+012999999V0202801N004019999999N0060001N1-00581-00801101421ADDAA100001091AY171061AY221061GF108991081001999999011999KA1999M-00401MD1210171+9999MW1711REMSYN082AAXX  15181 28588 11956 82804 11058 21080 40142 52017 60010 77172 8801/ 333 11040;
0140285880999992000021521004+55570+071370FM-12+012999999V0202801N003010300019N0500001N1-00591-00891101651ADDAY171031AY221031GF108991041071008001011999MD1210221+9999MW1021REMSYN066AAXX  15211 28588 41584 82803 11059 21089 40165 52022 70272 8471/;
0140285880999992000021600004+55570+071370FM-12+012999999V0202701N005019999999N0060001N1-00661-00941101781ADDAY171061AY231061GF108991081001999999021999MD1210131+9999MW1711REMSYN066AAXX  16001 28588 41956 82705 11066 21094 40178 52013 77173 8802/;
0140285880999992000021700004+55570+071370FM-12+012999999V0202001N004010075019N0060001N1-00871-01061102411ADDAY171061AY221061GF108991081001008001021999MD1710081+9999MW1711REMSYN066AAXX  17001 28588 41556 82004 11087 21106 40241 57008 77172 8802/;
0180285880999992000021706004+55570+071370FM-12+012999999V0202301N005019999999N0280001N1-00681-00971102361ADDAA100000591AY171061AY231061GF107991071001999999071001KA1999N-01071MD1410001+9999MW1361REMSYN082AAXX  17061 28588 11978 72305 11068 21097 40236 54000 69960 73673 87070 333 21107;
0140285880999992000021712004+55570+071370FM-12+012999999V0202201N004012200019N0400001N1-00721-01201102441ADDAY131061AY211061GF102991001001999999001021MD1210051+9999MW1021REMSYN066AAXX  17121 28588 41982 22204 11072 21120 40244 52005 70231 80002;
0152285880999992000021718004+55570+071370FM-12+012999999V0202101N003019999999N0500001N1-00831-01111102501ADDAA100000791GF108991001001999999001021KA1999M-00521MD1210051+9999REMSYN076AAXX  17181 28588 12984 82103 11083 21111 40250 52005 69900 80002 333 11052;
0140285880999992000021721004+55570+071370FM-12+012999999V0202201N004019999999N0050001N1-00701-00951102311ADDAY171031AY221031GF108991081001999999011999MD1810181+9999MW1711REMSYN066AAXX  17211 28588 41950 82204 11070 21095 40231 58018 77172 8801/;
0140285880999992000021800004+55570+071370FM-12+012999999V0202501N003019999999N0060001N1-00701-00911102291ADDAY171061AY221061GF108991081001999999011999MD1710021+9999MW1711REMSYN066AAXX  18001 28588 41956 82503 11070 21091 40229 57002 77172 8801/;
0180285880999992000021806004+55570+071370FM-12+012999999V0203001N002019999999N0280001N1-00811-00951102391ADDAA100000591AY171061AY221061GF108991001001999999001021KA1999N-01011MD1210041+9999MW1021REMSYN082AAXX  18061 28588 11978 83002 11081 21095 40239 52004 69940 70272 80002 333 21101;
0112285880999992000021812004+55570+071370FM-12+012999999V0202801N002019999999N0400001N1-00731-01031102541ADDGF105991001001999999001021MD1210111+9999REMSYN060AAXX  18121 28588 42982 52802 11073 21103 40254 52011 80002;
0140285880999992000021821004+55570+071370FM-12+012999999V0203101N003019999999N0060001N1-01031-01161102851ADDAY171031AY221031GF108991081001999999021999MD1210071+9999MW1711REMSYN066AAXX  18211 28588 41956 83103 11103 21116 40285 52007 77172 8802/;
0140285880999992000021900004+55570+071370FM-12+012999999V0203301N003019999999N0190001N1-01041-01171102911ADDAY171061AY221061GF107991071001999999071001MD1210061+9999MW1021REMSYN066AAXX  19001 28588 41969 73303 11104 21117 40291 52006 70272 87070;
0162285880999992000021906004+55570+071370FM-12+012999999V0203301N004012200019N0210001N1-01181-01381103211ADDAA100000791GA1001+999999999GF100991001001999999001001KA1999N-01721MD1210121+9999REMSYN070AAXX  19061 28588 12971 03304 11118 21138 40321 52012 69900 333 21172;
0150285880999992000021912004+55570+071370FM-12+012999999V0203201N004012200019N0400001N1-01011-01541103371ADDAY171061AY211061GA1001+999999999GF100991001001999999001001MD1210081+9999MW1011REMSYN060AAXX  19121 28588 41982 03204 11101 21154 40337 52008 70171;
0190285880999992000021918004+55570+071370FM-12+012999999V0203101N002012200019N0060001N1-01931-02051103641ADDAA100000791AY101061AY201061GA1001+999999999GF100991001001999999001001KA1999M-00951MD1210081+9999MW1101REMSYN076AAXX  19181 28588 11956 03102 11193 21205 40364 52008 69900 71000 333 11095;
0150285880999992000021921004+55570+071370FM-12+012999999V0202701N001012200019N0090001N1-02011-02131103641ADDAY101031AY201031GA1001+999999999GF100991001001999999001001MD1410001+9999MW1101REMSYN060AAXX  19211 28588 41959 02701 11201 21213 40364 54000 71000;
0103285880999992000022000004+55570+071370FM-12+012999999V0202201N001019999999N0050001N1-02011+99999999999ADDGF108991999999999999999999REMSYN065AAXX  20001 28588 41950 82201 11201 2122 40369 53005 71011 80007;
0193285880999992000022006004+55570+071370FM-12+012999999V0201901N003019999999N0140001N1-01621-01811103631ADDAA199000091AY141061AY221061GF107991071001999999071001KA1999N-02651MD1810071+9999MW1021REMSYN076AAXX  20061 28588 31964 71903 11162 21181 40363 58007 70242 87070 333 21265;EQDQ01  00002PRCP99
0140285880999992000022012004+55570+071370FM-12+012999999V0201901N004019999999N0110001N1-01061-01341103441ADDAY171061AY211061GF107991071001999999071001MD1710041+9999MW1221REMSYN066AAXX  20121 28588 41961 71904 11106 21134 40344 57004 72271 87070;
0171285880999992000022018004+55570+071370FM-12+012999999V0202301N003019999999N0500001N1-00981-01291103301ADDAA100000791GF106991061001999999051001KA1999M+99999MD1710111+9999REMSYN076AAXX  20181 28588 12984 62303 11098 21129 40330 57011 69900 86050 333 11106;EQDQ01 -01062ATMX  
0112285880999992000022021004+55570+071370FM-12+012999999V0202301N004019999999N0500001N1-01041-01481103361ADDGF106991001001999999001011MD1310061+9999REMSYN060AAXX  20211 28588 42984 62304 11104 21148 40336 53006 80001;
0122285880999992000022100004+55570+071370FM-12+012999999V0202301N003012200019N0500001N1-01281-01631103261ADDGA1001+999999999GF100991001001999999001001MD1810111+9999REMSYN054AAXX  21001 28588 42984 02303 11128 21163 40326 58011;
0165285880999992000022106004+55570+071370FM-12+012999999V0202601N005019999999N0400001N1-00981-01391103401ADDAA199000091GF107991001001999999001021KA1999N-01301MD1310151+9999REMSYN070AAXX  21061 28588 32982 72605 11098 21139 40340 53015 80002 333 21130;EQDQ01  00002PRCP99
0112285880999992000022112004+55570+071370FM-12+012999999V0202501N004019999999N0400001N1-00651-01411103341ADDGF105991051001999999031001MD1310091+9999REMSYN060AAXX  21121 28588 42982 52504 11065 21141 40334 53009 85030;
0165285880999992000022118004+55570+071370FM-12+012999999V0202501N004019999999N0500001N1-00691-01261103451ADDAA199000091GF107991071001999999051001KA1999M-00551MD1210041+9999REMSYN070AAXX  21181 28588 32984 72504 11069 21126 40345 52004 87050 333 11055;EQDQ01  00002PRCP99
0112285880999992000022121004+55570+071370FM-12+012999999V0202401N003012200019N0500001N1-00711-01241103501ADDGF102991021001999999031001MD1210051+9999REMSYN060AAXX  21211 28588 42984 22403 11071 21124 40350 52005 82030;
0112285880999992000022200004+55570+071370FM-12+012999999V0202401N005012200019N0500001N1-00931-01441103551ADDGF101991011001999999031001MD1210021+9999REMSYN060AAXX  22001 28588 42984 12405 11093 21144 40355 52002 81030;
0165285880999992000022206004+55570+071370FM-12+012999999V0202401N003019999999N0400001N1-00871-01791103521ADDAA199000091GF105991001001999999001011KA1999N-01251MD1810021+9999REMSYN070AAXX  22061 28588 32982 52403 11087 21179 40352 58002 80001 333 21125;EQDQ01  00002PRCP99
0140285880999992000022212004+55570+071370FM-12+012999999V0202501N007019999999N0400001N1-00501-01891103471ADDAY131061AY221061GF106991001001999999001011MD1310031+9999MW1361REMSYN066AAXX  22121 28588 41982 62507 11050 21189 40347 53003 73632 80001;
0203285880999992000022218004+55570+071370FM-12+012999999V0202301N005012200019N0500001N1-00871-01651103581ADDAA199000091AY131061AY211061GA1001+999999999GF100991001001999999001001KA1999M-00471MD1810011+9999MW1021REMSYN070AAXX  22181 28588 31984 02305 11087 21165 40358 58001 70231 333 11047;EQDQ01  00002PRCP99
0112285880999992000022221004+55570+071370FM-12+012999999V0202201N004019999999N0500001N1-01131-01751103541ADDGF108991001001999999001021MD1710061+9999REMSYN060AAXX  22211 28588 42984 82204 11113 21175 40354 57006 80002;
0112285880999992000022300004+55570+071370FM-12+012999999V0202101N004019999999N0500001N1-01191-01811103521ADDGF106991001001999999001021MD1710021+9999REMSYN060AAXX  23001 28588 42984 62104 11119 21181 40352 57002 80002;
0165285880999992000022306004+55570+071370FM-12+012999999V0202301N004012200019N0400001N1-01011-01851103531ADDAA199000091GF102991001001999999001011KA1999N-01401MD1810011+9999REMSYN070AAXX  23061 28588 32982 22304 11101 21185 40353 58001 80001 333 21140;EQDQ01  00002PRCP99
0112285880999992000022312004+55570+071370FM-12+012999999V0201901N003012200019N0400001N1-00821-01771103481ADDGF102991001001999999001011MD1710011+9999REMSYN060AAXX  23121 28588 42982 21903 11082 21177 40348 57001 80001;
0159285880999992000022318004+55570+071370FM-12+012999999V0201201N003012200019N0500001N1-01381-01901999999ADDAA199000091GF102991001001999999001011KA1999M-00701MD1810061+9999REMSYN064AAXX  23181 28588 32984 21203 11138 21190 58006 80001 333 11070;EQDQ01  00002PRCP99
0122285880999992000022321004+55570+071370FM-12+012999999V0202101N002012200019N0500001N1-01551-01971103391ADDGA1001+999999999GF100991001001999999001001MD1710081+9999REMSYN054AAXX  23211 28588 42984 02102 11155 21197 40339 57008;
0122285880999992000022400004+55570+071370FM-12+012999999V0202001N003012200019N0500001N1-01641-02061103351ADDGA1001+999999999GF100991001001999999001001MD1710041+9999REMSYN054AAXX  24001 28588 42984 02003 11164 21206 40335 57004;
0175285880999992000022406004+55570+071370FM-12+012999999V0202301N004012200019N0400001N1-01061-02021103161ADDAA199000091GA1001+999999999GF100991001001999999001001KA1999N-01681MD1710091+9999REMSYN064AAXX  24061 28588 32982 02304 11106 21202 40316 57009 333 21168;EQDQ01  00002PRCP99
0122285880999992000022412004+55570+071370FM-12+012999999V0202001N004012200019N0400001N1-00591-01931102911ADDGA1001+999999999GF100991001001999999001001MD1710101+9999REMSYN054AAXX  24121 28588 42982 02004 11059 21193 40291 57010;
0175285880999992000022418004+55570+071370FM-12+012999999V0201901N004012200019N0500001N1-01141-01491102641ADDAA199000091GA1001+999999999GF100991001001999999001001KA1999M-00421MD1710171+9999REMSYN064AAXX  24181 28588 32984 01904 11114 21149 40264 57017 333 11042;EQDQ01  00002PRCP99
0112285880999992000022421004+55570+071370FM-12+012999999V0201901N004012200019N0500001N1-01291-01721102471ADDGF102991021001999999031001MD1710161+9999REMSYN060AAXX  24211 28588 42984 21904 11129 21172 40247 57016 82030;
0112285880999992000022500004+55570+071370FM-12+012999999V0201801N005012200019N0500001N1-01351-01781102271ADDGF102991001001999999001011MD1710221+9999REMSYN060AAXX  25001 28588 42984 21805 11135 21178 40227 57022 80001;
0165285880999992000022506004+55570+071370FM-12+012999999V0201801N005019999999N0280001N1-00971-01611101911ADDAA199000091GF107991071001999999051001KA1999N-01421MD1710151+9999REMSYN070AAXX  25061 28588 32978 71805 11097 21161 40191 57015 87050 333 21142;EQDQ01  00002PRCP99
0112285880999992000022512004+55570+071370FM-12+012999999V0201801N004019999999N0290001N1-00601-01131101701ADDGF108991081001999999021999MD1710071+9999REMSYN060AAXX  25121 28588 42979 81804 11060 21113 40170 57007 8802/;
0175285880999992000022518004+55570+071370FM-12+012999999V0202001N003012200019N0500001N1-00871-01111101571ADDAA199000091GA1001+999999999GF100991001001999999001001KA1999M-00601MD1710081+9999REMSYN064AAXX  25181 28588 32984 02003 11087 21111 40157 57008 333 11060;EQDQ01  00002PRCP99
0150285880999992000022521004+55570+071370FM-12+012999999V0202301N003012200019N0090001N1-01201-01331101481ADDAY101031AY201031GA1001+999999999GF100991001001999999001001MD1710121+9999MW1101REMSYN060AAXX  25211 28588 41959 02303 11120 21133 40148 57012 71000;
0150285880999992000022600004+55570+071370FM-12+012999999V0202001N003012200019N0060001N1-01421-01621101421ADDAY101061AY201061GA1001+999999999GF100991001001999999001001MD1710071+9999MW1101REMSYN060AAXX  26001 28588 41956 02003 11142 21162 40142 57007 71000;
0165285880999992000022606004+55570+071370FM-12+012999999V0202101N004012200019N0400001N1-01181-01531101241ADDAA199000091GF102991001001999999001011KA1999N-01501MD1710051+9999REMSYN070AAXX  26061 28588 32982 22104 11118 21153 40124 57005 80001 333 21150;EQDQ01  00002PRCP99
0122285880999992000022612004+55570+071370FM-12+012999999V0202001N004012200019N0400001N1-00911-01651101121ADDGA1001+999999999GF100991001001999999001001MD1310041+9999REMSYN054AAXX  26121 28588 42982 02004 11091 21165 40112 53004;
0175285880999992000022618004+55570+071370FM-12+012999999V0202301N003012200019N0500001N1-01401-01751101221ADDAA199000091GA1001+999999999GF100991001001999999001001KA1999M-00811MD1210031+9999REMSYN064AAXX  26181 28588 32984 02303 11140 21175 40122 52003 333 11081;EQDQ01  00002PRCP99
0122285880999992000022621004+55570+071370FM-12+012999999V0202401N002012200019N0500001N1-01651-01911101271ADDGA1001+999999999GF100991001001999999001001MD1210041+9999REMSYN054AAXX  26211 28588 42984 02402 11165 21191 40127 52004;
0122285880999992000022700004+55570+071370FM-12+012999999V0201901N002012200019N0260001N1-01831-02021101301ADDGA1001+999999999GF100991001001999999001001MD1210011+9999REMSYN054AAXX  27001 28588 42976 01902 11183 21202 40130 52001;
0165285880999992000022706004+55570+071370FM-12+012999999V0201801N002019999999N0280001N1-01541-01731101251ADDAA199000091GF108991081001999999021999KA1999N-02271MD1710011+9999REMSYN070AAXX  27061 28588 32978 81802 11154 21173 40125 57001 8802/ 333 21227;EQDQ01  00002PRCP99
0112285880999992000022712004+55570+071370FM-12+012999999V0209999C000019999999N0400001N1-01021-01461101131ADDGF108991001001999999001041MD1710051+9999REMSYN060AAXX  27121 28588 42982 80000 11102 21146 40113 57005 80004;
0203285880999992000022718004+55570+071370FM-12+012999999V0202701N003012200019N0060001N1-01471-01671101481ADDAA199000091AY101061AY201061GA1001+999999999GF100991001001999999001001KA1999M-01001MD1210221+9999MW1101REMSYN070AAXX  27181 28588 31956 02703 11147 21167 40148 52022 71000 333 11100;EQDQ01  00002PRCP99
0150285880999992000022721004+55570+071370FM-12+012999999V0202601N003012200019N0090001N1-01851-02041101691ADDAY101031AY201031GA1001+999999999GF100991001001999999001001MD1210171+9999MW1101REMSYN060AAXX  27211 28588 41959 02603 11185 21204 40169 52017 71000;
0150285880999992000022800004+55570+071370FM-12+012999999V0202401N003012200019N0090001N1-01851-02041101921ADDAY101061AY201061GA1001+999999999GF100991001001999999001001MD1210231+9999MW1101REMSYN060AAXX  28001 28588 41959 02403 11185 21204 40192 52023 71000;
0165285880999992000022806004+55570+071370FM-12+012999999V0201201N002019999999N0270001N1-01561-01751101801ADDAA199000091GF108991001001999999001021KA1999N-02091MD1810161+9999REMSYN070AAXX  28061 28588 32977 81202 11156 21175 40180 58016 80002 333 21209;EQDQ01  00002PRCP99
0140285880999992000022812004+55570+071370FM-12+012999999V0201701N003019999999N0060001N1-01051-01331101441ADDAY171061AY221061GF108991081001999999021999MD1710101+9999MW1711REMSYN066AAXX  28121 28588 41956 81703 11105 21133 40144 57010 77172 8802/;
0180285880999992000022818004+55570+071370FM-12+012999999V0202301N003019999999N0500001N1-01461-01661101491ADDAA100000791AY171061AY221061GF105991001001999999001011KA1999M-01051MD1310061+9999MW1021REMSYN082AAXX  28181 28588 11984 52303 11146 21166 40149 53006 69900 70272 80001 333 11105;
0122285880999992000022821004+55570+071370FM-12+012999999V0202101N003012200019N0500001N1-01781-01971101601ADDGA1001+999999999GF100991001001999999001001MD1210081+9999REMSYN054AAXX  28211 28588 42984 02103 11178 21197 40160 52008;
0175285880999992000022906004+55570+071370FM-12+012999999V0202101N003012200019N0290001N1-01841-02101101611ADDAA199000091GA1001+999999999GF100991001001999999001001KA1999N-02201MD1810011+9999REMSYN064AAXX  29061 28588 32979 02103 11184 21210 40161 58001 333 21220;EQDQ01  00002PRCP99
0112285880999992000022912004+55570+071370FM-12+012999999V0202001N005019999999N0400001N1-01311-02131101151ADDGF108991081001999999021999MD1710261+9999REMSYN060AAXX  29121 28588 42982 82005 11131 21213 40115 57026 8802/;
0180285880999992000022918004+55570+071370FM-12+012999999V0202101N006019999999N0060001N1-01401-01751100721ADDAA100000791AY171061AY231061GF108991081001999999021999KA1999M-01301MD1710211+9999MW1711REMSYN082AAXX  29181 28588 11956 82106 11140 21175 40072 57021 69900 77173 8802/ 333 11130;
0140285880999992000022921004+55570+071370FM-12+012999999V0202001N006019999999N0060001N1-01191-01461100501ADDAY171031AY231031GF108991081001999999021999MD1710201+9999MW1711REMSYN066AAXX  29211 28588 41956 82006 11119 21146 40050 57020 77173 8802/;
0140285880999992000030100004+55570+071370FM-12+012999999V0202101N006010075019N0500001N1-01001-01281100241ADDAY171061AY231061GF107991071051008001001001MD1710251+9999MW1361REMSYN066AAXX  01001 28588 41584 72106 11100 21128 40024 57025 73673 87500;
0225285880999992000030106004+55570+071370FM-12+012999999V0202401N008010048019N0050001N1-00501-00671099741ADDAA100000791AY171061AY231061GA1081+004809059GF108991081001004501021999KA1120N-01441MD1710141+9999MW1711OA140101301REMSYN100AAXX  01061 28588 11450 82408 11050 21067 49974 57014 69900 77173 8802/ 333 21144 88516 91013 91113;
0208285880999992000030112004+55570+071370FM-12+012999999V0202701N009010063019N0260001N1+00131-00361100411ADDAY171061AY231061GA1071+006309069GF107991071051008001001001MD1210542+9999MW1381OA140101301REMSYN088AAXX  01121 28588 41576 72709 10013 21036 40041 52054 73873 87500 333 87621 91013 91115;EQDQ01+000542APC3  
0231285880999992000030118004+55570+071370FM-12+012999999V0203201N006012200019N0500001N1-00481-01201101832ADDAA100000591AY171061AY231061GA1001+999999999GF100991001001999999001001KA1120M+00131MD1210832+9999MW1361REMSYN082AAXX  01181 28588 11984 03206 11048 21120 40183 52083 69940 73673 333 10013 91113;EQDQ01+101833APOSLPQ02+000832APC3  
0150285880999992000030121004+55570+071370FM-12+012999999V0203301N005012200019N0500001N1-01181-02131102561ADDAY131031AY201031GA1001+999999999GF100991001001999999001001MD1210681+9999MW1021REMSYN060AAXX  01211 28588 41984 03305 11118 21213 40256 52068 70230;
0150285880999992000030200004+55570+071370FM-12+012999999V0202801N002012200019N0500001N1-01541-02351102911ADDAY131061AY201061GA1001+999999999GF100991001001999999001001MD1210311+9999MW1021REMSYN060AAXX  02001 28588 41984 02802 11154 21235 40291 52031 70230;
0152285880999992000030206004+55570+071370FM-12+012999999V0202001N003012200019N0400001N1-01061-02021103331ADDAA100000791GF102991001001999999001021KA1999N-01931MD1210111+9999REMSYN076AAXX  02061 28588 12982 22003 11106 21202 40333 52011 69900 80002 333 21193;
0112285880999992000030212004+55570+071370FM-12+012999999V0201801N006019999999N0400001N1-00731-01551103081ADDGF107991001001999999001011MD1710101+9999REMSYN060AAXX  02121 28588 42982 71806 11073 21155 40308 57010 80001;
0175285880999992000030218004+55570+071370FM-12+012999999V0202001N004012200019N0500001N1-00691-00851102651ADDAA199000091GA1001+999999999GF100991001001999999001001KA1999M-00711MD1710191+9999REMSYN064AAXX  02181 28588 32984 02004 11069 21085 40265 57019 333 11071;EQDQ01  00002PRCP99
0112285880999992000030221004+55570+071370FM-12+012999999V0202401N005019999999N0500001N1-00411-00831102451ADDGF107991071001999999071001MD1710181+9999REMSYN060AAXX  02211 28588 42984 72405 11041 21083 40245 57018 87070;
0112285880999992000030300004+55570+071370FM-12+012999999V0202301N006019999999N0500001N1-00471-00911102421ADDGF107991071001999999071001MD1710031+9999REMSYN060AAXX  03001 28588 42984 72306 11047 21091 40242 57003 87070;
0165285880999992000030306004+55570+071370FM-12+012999999V0202501N005012200019N0400001N1-00421-01111102461ADDAA199000091GF101991001001999999001011KA1999N-00881MD1710011+9999REMSYN070AAXX  03061 28588 32982 12505 11042 21111 40246 57001 80001 333 21088;EQDQ01  00002PRCP99
0122285880999992000030312004+55570+071370FM-12+012999999V0202501N005012200019N0400001N1-00051-01191102431ADDGA1001+999999999GF100991001001999999001001MD1310011+9999REMSYN054AAXX  03121 28588 42982 02505 11005 21119 40243 53001;
0175285880999992000030318004+55570+071370FM-12+012999999V0202501N004012200019N0500001N1-00611-01011102741ADDAA199000091GA1001+999999999GF100991001001999999001001KA1999M+00011MD1210131+9999REMSYN064AAXX  03181 28588 32984 02504 11061 21101 40274 52013 333 10001;EQDQ01  00002PRCP99
0122285880999992000030321004+55570+071370FM-12+012999999V0202601N004012200019N0500001N1-00831-01021102851ADDGA1001+999999999GF100991001001999999001001MD1210091+9999REMSYN054AAXX  03211 28588 42984 02604 11083 21102 40285 52009;
0112285880999992000030400004+55570+071370FM-12+012999999V0202401N006019999999N0500001N1-00681-00801102861ADDGF108991081001999999021999MD1210031+9999REMSYN060AAXX  04001 28588 42984 82406 11068 21080 40286 52003 8802/;
0193285880999992000030406004+55570+071370FM-12+012999999V0202601N005012200019N0270001N1-00351-00711103031ADDAA199000091AY171061AY211061GF102991001001999999001021KA1999N-00871MD1210041+9999MW1011REMSYN076AAXX  04061 28588 31977 22605 11035 21071 40303 52004 70171 80002 333 21087;EQDQ01  00002PRCP99
0122285880999992000030412004+55570+071370FM-12+012999999V0202501N004012200019N0400001N1-00081-00531103141ADDGA1001+999999999GF100991001001999999001001MD1210071+9999REMSYN054AAXX  04121 28588 42982 02504 11008 21053 40314 52007;
0162285880999992000030418004+55570+071370FM-12+012999999V0202201N002012200019N0500001N1-00781-00961103401ADDAA100000791GA1001+999999999GF100991001001999999001001KA1999M-00041MD1210121+9999REMSYN070AAXX  04181 28588 12984 02202 11078 21096 40340 52012 69900 333 11004;
0150285880999992000030500004+55570+071370FM-12+012999999V0202301N001012200019N0060001N1-01351-01481103411ADDAY101061AY201061GA1001+999999999GF100991001001999999001001MD1810021+9999MW1101REMSYN060AAXX  05001 28588 41956 02301 11135 21148 40341 58002 71000;
0203285880999992000030506004+55570+071370FM-12+012999999V0201601N001012200019N0060001N1-00801-00981103561ADDAA199000091AY101061AY201061GA1001+999999999GF100991001001999999001001KA1999N-01891MD1210161+9999MW1101REMSYN070AAXX  05061 28588 31956 01601 11080 21098 40356 52016 71000 333 21189;EQDQ01  00002PRCP99
0112285880999992000030512004+55570+071370FM-12+012999999V0201301N002012200019N0400001N1+00061-01061103291ADDGF102991001001999999001011MD1710101+9999REMSYN060AAXX  05121 28588 42982 21302 10006 21106 40329 57010 80001;
0150285880999992000030521004+55570+071370FM-12+012999999V0201501N005012200019N0090001N1-00821-00881103201ADDAY141031AY201031GA1001+999999999GF100991001001999999001001MD1710111+9999MW1101REMSYN060AAXX  05211 28588 41959 01505 11082 21088 40320 57011 71040;
0150285880999992000030600004+55570+071370FM-12+012999999V0200901N003012200019N0060001N1-01441-01501103161ADDAY141061AY201061GA1001+999999999GF100991001001999999001001MD1710071+9999MW1101REMSYN060AAXX  06001 28588 41956 00903 11144 21150 40316 57007 71040;
0150285880999992000030606004+55570+071370FM-12+012999999V0200901N003012200019N0060001N1-01441-01501103161ADDAY141061AY201061GA1001+999999999GF100991001001999999001001MD1710071+9999MW1101REMSYN060AAXX  06061 28588 41956 00903 11144 21150 40316 57007 71040;
0112285880999992000030612004+55570+071370FM-12+012999999V0201101N004012200019N0280001N1-00221-00991102691ADDGF102991001001999999001011MD1710081+9999REMSYN060AAXX  06121 28588 42978 21104 11022 21099 40269 57008 80001;
0175285880999992000030618004+55570+071370FM-12+012999999V0200801N003012200019N0500001N1-01241-01511102501ADDAA199000091GA1001+999999999GF100991001001999999001001KA1999M-00081MD1710121+9999REMSYN064AAXX  06181 28588 32984 00803 11124 21151 40250 57012 333 11008;EQDQ01  00002PRCP99
0122285880999992000030621004+55570+071370FM-12+012999999V0200801N003012200019N0500001N1-01471-01601102441ADDGA1001+999999999GF100991001001999999001001MD1710181+9999REMSYN054AAXX  06211 28588 42984 00803 11147 21160 40244 57018;
0150285880999992000030700004+55570+071370FM-12+012999999V0201201N004012200019N0060001N1-01461-01591102371ADDAY101061AY201061GA1001+999999999GF100991001001999999001001MD1710071+9999MW1101REMSYN060AAXX  07001 28588 41956 01204 11146 21159 40237 57007 71000;
0190285880999992000030706004+55570+071370FM-12+012999999V0201501N004012200019N0260001N1-00911-01251102401ADDAA100000791AY171061AY211061GA1001+999999999GF100991001001999999001001KA1999N-01521MD1210061+9999MW1011REMSYN076AAXX  07061 28588 11976 01504 11091 21125 40240 52006 69900 70171 333 21152;
0122285880999992000030712004+55570+071370FM-12+012999999V0201501N004012200019N0400001N1-00501-01231102421ADDGA1001+999999999GF100991001001999999001001MD1310101+9999REMSYN054AAXX  07121 28588 42982 01504 11050 21123 40242 53010;
0162285880999992000030718004+55570+071370FM-12+012999999V0201701N003012200019N0130001N1-01121-01321102481ADDAA100000791GA1001+999999999GF100991001001999999001001KA1999M-00501MD1310011+9999REMSYN070AAXX  07181 28588 11963 01703 11112 21132 40248 53001 69900 333 11050;
0140285880999992000030721004+55570+071370FM-12+012999999V0201701N003019999999N0060001N1-01261-01321102451ADDAY171031AY211031GF108991081001999999021999MD1810031+9999MW1711REMSYN066AAXX  07211 28588 41956 81703 11126 21132 40245 58003 77171 8802/;
0140285880999992000030800004+55570+071370FM-12+012999999V0202101N002019999999N0060001N1-01541-01671102531ADDAY171061AY211061GF108991081001999999021999MD1310051+9999MW1711REMSYN066AAXX  08001 28588 41956 82102 11154 21167 40253 53005 77171 8802/;
0190285880999992000030806004+55570+071370FM-12+012999999V0202001N002012200019N0190001N1-01041-01401102531ADDAA100000791AY171061AY211061GA1001+999999999GF100991001001999999001001KA1999N-02071MD1410001+9999MW1021REMSYN076AAXX  08061 28588 11969 02002 11104 21140 40253 54000 69900 70271 333 21207;
0122285880999992000030812004+55570+071370FM-12+012999999V0202001N004012200019N0300001N1-00581-01311102381ADDGA1001+999999999GF100991001001999999001001MD1710021+9999REMSYN054AAXX  08121 28588 42980 02004 11058 21131 40238 57002;
0175285880999992000030818004+55570+071370FM-12+012999999V0201801N003012200019N0500001N1-01291-01421102351ADDAA199000091GA1001+999999999GF100991001001999999001001KA1999M-00571MD1810061+9999REMSYN064AAXX  08181 28588 32984 01803 11129 21142 40235 58006 333 11057;EQDQ01  00002PRCP99
0122285880999992000030821004+55570+071370FM-12+012999999V0201701N002012200019N0180001N1-01451-01581102261ADDGA1001+999999999GF100991001001999999001001MD1710111+9999REMSYN054AAXX  08211 28588 42968 01702 11145 21158 40226 57011;
0122285880999992000030900004+55570+071370FM-12+012999999V0201601N003012200019N0210001N1-01551-01681102161ADDGA1001+999999999GF100991001001999999001001MD1710111+9999REMSYN054AAXX  09001 28588 42971 01603 11155 21168 40216 57011;
0165285880999992000030906004+55570+071370FM-12+012999999V0201701N005012200019N0300001N1-01081-01521101971ADDAA199000091GF104991001001999999001021KA1999N-01671MD1810021+9999REMSYN070AAXX  09061 28588 32980 41705 11108 21152 40197 58002 80002 333 21167;EQDQ01  00002PRCP99
0112285880999992000030912004+55570+071370FM-12+012999999V0201801N005019999999N0400001N1-00571-01591101741ADDGF106991001001999999001021MD1710101+9999REMSYN060AAXX  09121 28588 42982 61805 11057 21159 40174 57010 80002;
0165285880999992000030918004+55570+071370FM-12+012999999V0201601N004012200019N0500001N1-01161-01441101601ADDAA199000091GF102991001001999999001011KA1999M-00491MD1710151+9999REMSYN070AAXX  09181 28588 32984 21604 11116 21144 40160 57015 80001 333 11049;EQDQ01  00002PRCP99
0112285880999992000030921004+55570+071370FM-12+012999999V0201601N004019999999N0500001N1-00961-01301101471ADDGF107991071001999999071001MD1710121+9999REMSYN060AAXX  09211 28588 42984 71604 11096 21130 40147 57012 87070;
0112285880999992000031000004+55570+071370FM-12+012999999V0201601N003010075019N0500001N1-00921-01321101491ADDGF108991081001008001021999MD1310021+9999REMSYN060AAXX  10001 28588 42584 81603 11092 21132 40149 53002 8802/;
0175285880999992000031006004+55570+071370FM-12+012999999V0200901N002012200019N0400001N1-00581-01361101591ADDAA199000091GA1001+999999999GF100991001001999999001001KA1999N-01171MD1210021+9999REMSYN064AAXX  10061 28588 32982 00902 11058 21136 40159 52002 333 21117;EQDQ01  00002PRCP99
0122285880999992000031012004+55570+071370FM-12+012999999V0201701N004012200019N0400001N1-00401-01401101831ADDGA1001+999999999GF100991001001999999001001MD1210201+9999REMSYN054AAXX  10121 28588 42982 01704 11040 21140 40183 52020;
0175285880999992000031018004+55570+071370FM-12+012999999V0201801N002012200019N0500001N1-00981-01151102021ADDAA199000091GA1001+999999999GF100991001001999999001001KA1999M-00331MD1210061+9999REMSYN064AAXX  10181 28588 32984 01802 11098 21115 40202 52006 333 11033;EQDQ01  00002PRCP99
0150285880999992000031021004+55570+071370FM-12+012999999V0201801N001012200019N0040001N1-00941-01011102051ADDAY101031AY201031GA1001+999999999GF100991001001999999001001MD1210031+9999MW1101REMSYN060AAXX  10211 28588 41940 01801 11094 21101 40205 52003 71000;
0150285880999992000031100004+55570+071370FM-12+012999999V0201801N002010006019N0008001N1-00721-00771102101ADDAY141061AY241061GA1091+999999999GF109991091999999999999999MD1210061+9999MW1491REMSYN060AAXX  11001 28588 41/08 91802 11072 21077 40210 52006 74944;
0193285880999992000031106004+55570+071370FM-12+012999999V0201501N004019999999N0060001N1-00571-00571102201ADDAA199000091AY141061AY221061GF108991081001999999011999KA1999N-01071MD1210061+9999MW1101REMSYN076AAXX  11061 28588 31956 81504 11057 21057 40220 52006 71042 8801/ 333 21107;EQDQ01  00002PRCP99
0112285880999992000031112004+55570+071370FM-12+012999999V0201601N004012200019N0300001N1-00041-00551102111ADDGF102991001001999999001091MD1710041+9999REMSYN060AAXX  11121 28588 42980 21604 11004 21055 40211 57004 80009;
0175285880999992000031118004+55570+071370FM-12+012999999V0201301N004012200019N0500001N1-00611-00921102151ADDAA199000091GA1001+999999999GF100991001001999999001001KA1999M-00041MD1810131+9999REMSYN064AAXX  11181 28588 32984 01304 11061 21092 40215 58013 333 11004;EQDQ01  00002PRCP99
0122285880999992000031121004+55570+071370FM-12+012999999V0201401N004012200019N0500001N1-00781-01001102021ADDGA1001+999999999GF100991001001999999001001MD1710131+9999REMSYN054AAXX  11211 28588 42984 01404 11078 21100 40202 57013;
0122285880999992000031200004+55570+071370FM-12+012999999V0201501N003012200019N0500001N1-00901-01061102011ADDGA1001+999999999GF100991001001999999001001MD1710011+9999REMSYN054AAXX  12001 28588 42984 01503 11090 21106 40201 57001;
0165285880999992000031206004+55570+071370FM-12+012999999V0201701N003019999999N0290001N1-00291-01051101961ADDAA199000091GF107991001001999999001021KA1999N-00921MD1810081+9999REMSYN070AAXX  12061 28588 32979 71703 11029 21105 40196 58008 80002 333 21092;EQDQ01  00002PRCP99
0112285880999992000031212004+55570+071370FM-12+012999999V0201601N003019999999N0400001N1+00121-00901102051ADDGF108991001001999999001021MD1210061+9999REMSYN060AAXX  12121 28588 42982 81603 10012 21090 40205 52006 80002;
0175285880999992000031218004+55570+071370FM-12+012999999V0201501N002012200019N0290001N1-00421-00681101951ADDAA199000091GA1001+999999999GF100991001001999999001001KA1999M+00221MD1710031+9999REMSYN064AAXX  12181 28588 32979 01502 11042 21068 40195 57003 333 10022;EQDQ01  00002PRCP99
0122285880999992000031221004+55570+071370FM-12+012999999V0201401N002012200019N0270001N1-00851-01041101871ADDGA1001+999999999GF100991001001999999001001MD1710101+9999REMSYN054AAXX  12211 28588 42977 01402 11085 21104 40187 57010;
0122285880999992000031300004+55570+071370FM-12+012999999V0201501N003012200019N0180001N1-00891-01001101821ADDGA1001+999999999GF100991001001999999001001MD1710051+9999REMSYN054AAXX  13001 28588 42968 01503 11089 21100 40182 57005;
0175285880999992000031306004+55570+071370FM-12+012999999V0201401N004012200019N0400001N1-00261-00831101641ADDAA199000091GA1001+999999999GF100991001001999999001001KA1999N-01371MD1710091+9999REMSYN064AAXX  13061 28588 32982 01404 11026 21083 40164 57009 333 21137;EQDQ01  00002PRCP99
0122285880999992000031312004+55570+071370FM-12+012999999V0201101N006012200019N0400001N1+00101-00841101371ADDGA1001+999999999GF100991001001999999001001MD1710131+9999REMSYN054AAXX  13121 28588 42982 01106 10010 21084 40137 57013;
0165285880999992000031318004+55570+071370FM-12+012999999V0201401N007019999999N0500001N1-00361-00841101331ADDAA199000091GF106991001001999999001021KA1999M+00281MD1310011+9999REMSYN070AAXX  13181 28588 32984 61407 11036 21084 40133 53001 80002 333 10028;EQDQ01  00002PRCP99
0140285880999992000031321004+55570+071370FM-12+012999999V0201501N006010075019N0060001N1-00401-00621101251ADDAY171031AY221031GF108991081001008001021999MD1810081+9999MW1711REMSYN066AAXX  13211 28588 41556 81506 11040 21062 40125 58008 77172 8802/;
0140285880999992000031400004+55570+071370FM-12+012999999V0201501N006010075019N0500001N1-00291-00561101241ADDAY171061AY221061GF107991071051008001001001MD1410001+9999MW1021REMSYN066AAXX  14001 28588 41584 71506 11029 21056 40124 54000 70272 87500;
0180285880999992000031406004+55570+071370FM-12+012999999V0201701N006010075019N0300001N1-00181-00561101341ADDAA100000791AY171061AY231061GF107991071051008001001001KA1999N-00451MD1810011+9999MW1021REMSYN082AAXX  14061 28588 11580 71706 11018 21056 40134 58001 69900 70273 87500 333 21045;
0140285880999992000031412004+55570+071370FM-12+012999999V0201801N004019999999N0060001N1-00141-00401101581ADDAY171061AY221061GF108991081001999999021999MD1210101+9999MW1711REMSYN066AAXX  14121 28588 41956 81804 11014 21040 40158 52010 77172 8802/;
0180285880999992000031418004+55570+071370FM-12+012999999V0202001N003019999999N0500001N1-00381-00711101751ADDAA100000791AY171061AY221061GF108991081001999999021999KA1999M-00141MD1210051+9999MW1021REMSYN082AAXX  14181 28588 11984 82003 11038 21071 40175 52005 69900 70272 8802/ 333 11014;
0112285880999992000031421004+55570+071370FM-12+012999999V0201901N003019999999N0500001N1-00621-00771101791ADDGF108991001001999999001041MD1210031+9999REMSYN060AAXX  14211 28588 42984 81903 11062 21077 40179 52003 80004;
0112285880999992000031500004+55570+071370FM-12+012999999V0201901N002019999999N0500001N1-00621-00701101811ADDGF108991081001999999021999MD1210021+9999REMSYN060AAXX  15001 28588 42984 81902 11062 21070 40181 52002 8802/;
0180285880999992000031506004+55570+071370FM-12+012999999V0202401N004019999999N0270001N1-00391-00721101921ADDAA100000791AY171061AY221061GF106991001001999999001021KA1999N-00671MD1210081+9999MW1021REMSYN082AAXX  15061 28588 11977 62404 11039 21072 40192 52008 69900 70272 80002 333 21067;
0112285880999992000031512004+55570+071370FM-12+012999999V0202501N005012200019N0400001N1-00221-01131101981ADDGF103991001001999999001011MD1210061+9999REMSYN060AAXX  15121 28588 42982 32505 11022 21113 40198 52006 80001;
0175285880999992000031518004+55570+071370FM-12+012999999V0202601N002012200019N0500001N1-00991-01351102161ADDAA199000091GA1001+999999999GF100991001001999999001001KA1999M-00191MD1210031+9999REMSYN064AAXX  15181 28588 32984 02602 11099 21135 40216 52003 333 11019;EQDQ01  00002PRCP99
0122285880999992000031521004+55570+071370FM-12+012999999V0202501N003012200019N0500001N1-01151-01351102191ADDGA1001+999999999GF100991001001999999001001MD1210021+9999REMSYN054AAXX  15211 28588 42984 02503 11115 21135 40219 52002;
0150285880999992000031600004+55570+071370FM-12+012999999V0202501N003012200019N0090001N1-01281-01411102221ADDAY101061AY201061GA1001+999999999GF100991001001999999001001MD1210031+9999MW1101REMSYN060AAXX  16001 28588 41959 02503 11128 21141 40222 52003 71000;
0175285880999992000031606004+55570+071370FM-12+012999999V0201801N003012200019N0120001N1-00691-01211102361ADDAA199000091GA1001+999999999GF100991001001999999001001KA1999N-01421MD1210121+9999REMSYN064AAXX  16061 28588 32962 01803 11069 21121 40236 52012 333 21142;EQDQ01  00002PRCP99
0112285880999992000031612004+55570+071370FM-12+012999999V0202701N002012200019N0300001N1-00341-01131102291ADDGF102991001001999999001021MD1710021+9999REMSYN060AAXX  16121 28588 42980 22702 11034 21113 40229 57002 80002;
0165285880999992000031618004+55570+071370FM-12+012999999V0202101N002019999999N0290001N1-01031-01231102411ADDAA199000091GF108991001001999999001071KA1999M-00301MD1210061+9999REMSYN070AAXX  16181 28588 32979 82102 11103 21123 40241 52006 80007 333 11030;EQDQ01  00002PRCP99
0140285880999992000031621004+55570+071370FM-12+012999999V0203301N001019999999N0060001N1-01201-01261102361ADDAY121031AY221031GF108991081001999999011999MD1810061+9999MW1101REMSYN066AAXX  16211 28588 41956 83301 11120 21126 40236 58006 71022 8801/;
0140285880999992000031700004+55570+071370FM-12+012999999V0203601N002019999999N0090001N1-01321-01381102261ADDAY121061AY221061GF108991081001999999011999MD1710131+9999MW1101REMSYN066AAXX  17001 28588 41959 83602 11132 21138 40226 57013 71022 8801/;
0165285880999992000031706004+55570+071370FM-12+012999999V0200601N002019999999N0350001N1-00681-00971102131ADDAA199000091GF108991001001999999001021KA1999N-01361MD1710031+9999REMSYN070AAXX  17061 28588 32981 80602 11068 21097 40213 57003 80002 333 21136;EQDQ01  00002PRCP99
0112285880999992000031712004+55570+071370FM-12+012999999V0203301N004010750019N0400001N1-00381-01051102031ADDGF108991031021008001001021MD1810091+9999REMSYN060AAXX  17121 28588 42582 83304 11038 21105 40203 58009 83202;
0165285880999992000031718004+55570+071370FM-12+012999999V0202801N003019999999N0500001N1-00751-01051102121ADDAA199000091GF108991001001999999001071KA1999M-00381MD1410001+9999REMSYN070AAXX  17181 28588 32999 82803 11075 21105 40212 54000 80007 333 11038;EQDQ01  00002PRCP99
0112285880999992000031721004+55570+071370FM-12+012999999V0202701N003019999999N0500001N1-00931-01141102121ADDGF108991081001999999011999MD1810011+9999REMSYN060AAXX  17211 28588 42999 82703 11093 21114 40212 58001 8801/;
0140285880999992000031800004+55570+071370FM-12+012999999V0202701N003019999999N0500001N1-00871-00981102131ADDAY171061AY221061GF108991081001999999011999MD1310021+9999MW1021REMSYN066AAXX  18001 28588 41999 82703 11087 21098 40213 53002 70272 8801/;
0175285880999992000031818004+55570+071370FM-12+012999999V0203301N006012200019N0500001N1-01121-01961102821ADDAA199000091GA1001+999999999GF100991001001999999001001KA1999M-00471MD1210191+9999REMSYN064AAXX  18181 28588 32984 03306 11112 21196 40282 52019 333 11047;EQDQ01  00002PRCP99
0122285880999992000031821004+55570+071370FM-12+012999999V0203101N003012200019N0500001N1-01501-02101103001ADDGA1001+999999999GF100991001001999999001001MD1210161+9999REMSYN054AAXX  18211 28588 42984 03103 11150 21210 40300 52016;
0122285880999992000031900004+55570+071370FM-12+012999999V0203001N003012200019N0500001N1-01781-02191103091ADDGA1001+999999999GF100991001001999999001001MD1210071+9999REMSYN054AAXX  19001 28588 42984 03003 11178 21219 40309 52007;
0175285880999992000031906004+55570+071370FM-12+012999999V0203101N006012200019N0400001N1-01281-02001103241ADDAA199000091GA1001+999999999GF100991001001999999001001KA1999N-01831MD1210051+9999REMSYN064AAXX  19061 28588 32982 03106 11128 21200 40324 52005 333 21183;EQDQ01  00002PRCP99
0112285880999992000031912004+55570+071370FM-12+012999999V0203201N005012200019N0400001N1-00871-01861103301ADDGF102991001001999999001011MD1210051+9999REMSYN060AAXX  19121 28588 42982 23205 11087 21186 40330 52005 80001;
0175285880999992000031918004+55570+071370FM-12+012999999V0202701N003012200019N0500001N1-01381-02091103361ADDAA199000091GA1001+999999999GF100991001001999999001001KA1999M-00841MD1210011+9999REMSYN064AAXX  19181 28588 32984 02703 11138 21209 40336 52001 333 11084;EQDQ01  00002PRCP99
0122285880999992000031921004+55570+071370FM-12+012999999V0202601N003012200019N0500001N1-01671-02091103351ADDGA1001+999999999GF100991001001999999001001MD1310031+9999REMSYN054AAXX  19211 28588 42984 02603 11167 21209 40335 53003;
0122285880999992000032000004+55570+071370FM-12+012999999V0202601N003012200019N0500001N1-01811-02141103341ADDGA1001+999999999GF100991001001999999001001MD1710021+9999REMSYN054AAXX  20001 28588 42984 02603 11181 21214 40334 57002;
0165285880999992000032006004+55570+071370FM-12+012999999V0202601N003019999999N0400001N1-00801-01671103221ADDAA199000091GF107991071001999999071001KA1999N-01881MD1710051+9999REMSYN070AAXX  20061 28588 32982 72603 11080 21167 40322 57005 87070 333 21188;EQDQ01  00002PRCP99
0165285880999992000032018004+55570+071370FM-12+012999999V0202401N005019999999N0500001N1-00341-00901102561ADDAA199000091GF108991081001999999021999KA1999M-00321MD1710251+9999REMSYN070AAXX  20181 28588 32984 82405 11034 21090 40256 57025 8802/ 333 11032;EQDQ01  00002PRCP99
0112285880999992000032021004+55570+071370FM-12+012999999V0202301N006019999999N0500001N1-00441-00951102381ADDGF108991081001999999011999MD1710181+9999REMSYN060AAXX  20211 28588 42984 82306 11044 21095 40238 57018 8801/;
0112285880999992000032100004+55570+071370FM-12+012999999V0202401N006019999999N0500001N1-00481-00971102171ADDGF108991081001999999011999MD1710211+9999REMSYN060AAXX  21001 28588 42984 82406 11048 21097 40217 57021 8801/;
0188285880999992000032106004+55570+071370FM-12+012999999V0202601N009019999999N0400001N1-00381-01051102021ADDAA199000091GF108991001001999999001021KA1120N-00591MD1710081+9999OA140101201REMSYN082AAXX  21061 28588 32982 82609 11038 21105 40202 57008 80002 333 21059 91012 91112;EQDQ01  00002PRCP99
0139285880999992000032112004+55570+071370FM-12+012999999V0202501N007019999999N0400001N1-00091-00831101861ADDGF105991001001999999001011MD1310021+9999OA140101201REMSYN076AAXX  21121 28588 42982 52507 11009 21083 40186 53002 80001 333 91012 91114;
0181285880999992000032118004+55570+071370FM-12+012999999V0202401N005012200019N0500001N1-00401-00981101981ADDAA199000091GA1001+999999999GF100991001001999999001001KA1120M+00011MD1210041+9999REMSYN070AAXX  21181 28588 32984 02405 11040 21098 40198 52004 333 10001 91112;EQDQ01  00002PRCP99
0122285880999992000032121004+55570+071370FM-12+012999999V0202501N006012200019N0500001N1-00501-01081102031ADDGA1001+999999999GF100991001001999999001001MD1210051+9999REMSYN054AAXX  21211 28588 42984 02506 11050 21108 40203 52005;
0112285880999992000032200004+55570+071370FM-12+012999999V0202401N006019999999N0500001N1-00461-01171102091ADDGF108991001001999999001071MD1210061+9999REMSYN060AAXX  22001 28588 42984 82406 11046 21117 40209 52006 80007;
0165285880999992000032206004+55570+071370FM-12+012999999V0202101N004012200019N0400001N1-00171-01001102181ADDAA199000091GF102991001001999999001021KA1999N-00681MD1210021+9999REMSYN070AAXX  22061 28588 32982 22104 11017 21100 40218 52002 80002 333 21068;EQDQ01  00002PRCP99
0112285880999992000032212004+55570+071370FM-12+012999999V0202101N004019999999N0400001N1+00271-00711102111ADDGF105991051001999999081001MD1710011+9999REMSYN060AAXX  22121 28588 42982 52104 10027 21071 40211 57001 85080;
0165285880999992000032218004+55570+071370FM-12+012999999V0202201N004019999999N0500001N1+00061-00851102131ADDAA199000091GF106991001001999999001021KA1999M+00271MD1310011+9999REMSYN070AAXX  22181 28588 32984 62204 10006 21085 40213 53001 80002 333 10027;EQDQ01  00002PRCP99
0112285880999992000032221004+55570+071370FM-12+012999999V0202101N004019999999N0500001N1-00111-00901102031ADDGF108991001001999999001071MD1810091+9999REMSYN060AAXX  22211 28588 42984 82104 11011 21090 40203 58009 80007;
0112285880999992000032300004+55570+071370FM-12+012999999V0202001N004019999999N0500001N1-00421-01111102041ADDGF108991001001999999001071MD1710021+9999REMSYN060AAXX  23001 28588 42984 82004 11042 21111 40204 57002 80007;
0165285880999992000032306004+55570+071370FM-12+012999999V0201801N005019999999N0400001N1+00041-00931101811ADDAA199000091GF106991001001999999001021KA1999N-00531MD1710141+9999REMSYN070AAXX  23061 28588 32982 61805 10004 21093 40181 57014 80002 333 21053;EQDQ01  00002PRCP99
0165285880999992000032318004+55570+071370FM-12+012999999V0201901N004019999999N0500001N1-00071-00321101021ADDAA199000091GF108991001001999999001071KA1999M+00261MD1710161+9999REMSYN070AAXX  23181 28588 32984 81904 11007 21032 40102 57016 80007 333 10026;EQDQ01  00002PRCP99
0112285880999992000032321004+55570+071370FM-12+012999999V0202001N003019999999N0500001N1-00141-00401100921ADDGF108991081001999999021999MD1710101+9999REMSYN060AAXX  23211 28588 42984 82003 11014 21040 40092 57010 8802/;
0112285880999992000032400004+55570+071370FM-12+012999999V0202001N002019999999N0500001N1-00241-00461100831ADDGF106991061001999999031001MD1710101+9999REMSYN060AAXX  24001 28588 42984 62002 11024 21046 40083 57010 86030;
0165285880999992000032406004+55570+071370FM-12+012999999V0202301N003019999999N0400001N1+00121-00231100861ADDAA199000091GF108991081001999999011999KA1999N-00321MD1310091+9999REMSYN070AAXX  24061 28588 32982 82303 10012 21023 40086 53009 8801/ 333 21032;EQDQ01  00002PRCP99
0112285880999992000032412004+55570+071370FM-12+012999999V0202501N004019999999N0400001N1+00211-00161100971ADDGF108991081001999999021999MD1310111+9999REMSYN060AAXX  24121 28588 42982 82504 10021 21016 40097 53011 8802/;
0165285880999992000032418004+55570+071370FM-12+012999999V0202601N004019999999N0500001N1+00021-00151101181ADDAA199000091GF108991081001999999021999KA1999M+00301MD1310221+9999REMSYN070AAXX  24181 28588 32984 82604 10002 21015 40118 53022 8802/ 333 10030;EQDQ01  00002PRCP99
0112285880999992000032421004+55570+071370FM-12+012999999V0202501N003019999999N0500001N1-00161-00271101321ADDGF108991001001999999001071MD1210121+9999REMSYN060AAXX  24211 28588 42984 82503 11016 21027 40132 52012 80007;
0112285880999992000032500004+55570+071370FM-12+012999999V0202401N004019999999N0500001N1-00321-00421101551ADDGF106991001001999999001021MD1210231+9999REMSYN060AAXX  25001 28588 42984 62404 11032 21042 40155 52023 80002;
0175285880999992000032506004+55570+071370FM-12+012999999V0202101N003012200019N0300001N1+00311-00451101861ADDAA199000091GA1001+999999999GF100991001001999999001001KA1999N-00321MD1210081+9999REMSYN064AAXX  25061 28588 32980 02103 10031 21045 40186 52008 333 21032;EQDQ01  00002PRCP99
0122285880999992000032512004+55570+071370FM-12+012999999V0201901N004012200019N0400001N1+00411-00461101931ADDGA1001+999999999GF100991001001999999001001MD1210011+9999REMSYN054AAXX  25121 28588 42982 01904 10041 21046 40193 52001;
0175285880999992000032518004+55570+071370FM-12+012999999V0201701N004012200019N0500001N1-00041-00281101791ADDAA199000091GA1001+999999999GF100991001001999999001001KA1999M+00491MD1710111+9999REMSYN064AAXX  25181 28588 32984 01704 11004 21028 40179 57011 333 10049;EQDQ01  00002PRCP99
0122285880999992000032521004+55570+071370FM-12+012999999V0201501N004012200019N0500001N1-00131-00331101581ADDGA1001+999999999GF100991001001999999001001MD1710211+9999REMSYN054AAXX  25211 28588 42984 01504 11013 21033 40158 57021;
0122285880999992000032600004+55570+071370FM-12+012999999V0201301N004012200019N0270001N1-00161-00401101251ADDGA1001+999999999GF100991001001999999001001MD1710341+9999REMSYN054AAXX  26001 28588 42977 01304 11016 21040 40125 57034;
