0236308230999992000010100004+51800+107430FM-12+0510UIUU V0209999C000019999999N0140001N1-02411-02661103691ADDAA112000591AJ100119199999999AY171061AY271061GF107991071001999999021999IA1239KA1120N-02621MA1999999096661MD1210141+9999MW1711REMSYN100AAXX  01001 30823 11964 70000 11241 21266 39666 40369 52014 69942 77177 8702/ 333 21262 47011 55059;
0140308230999992000010103004+51800+107430FM-12+0510UIUU V0202001N002019999999N0200001N1-02211-02471103771ADDAY171031AY221031GF108991061001999999071021MD1210131+9999MW1011REMSYN066AAXX  01031 30823 41998 82002 11221 21247 40377 52013 70172 86072;
0140308230999992000010106004+51800+107430FM-12+0510UIUU V0203201N004019999999N0500001N1-01791-02291103621ADDAY171061AY221061GF107991071001999999021999MD1810041+9999MW1031REMSYN066AAXX  01061 30823 41999 73204 11179 21229 40362 58004 70372 8702/;
0112308230999992000010109004+51800+107430FM-12+0510UIUU V0202701N002019999999N0500001N1-01861-02351103761ADDGF107991071001999999011999MD1310121+9999REMSYN060AAXX  01091 30823 42999 72702 11186 21235 40376 53012 8701/;
0183308230999992000010112004+51800+107430FM-12+0510UIUU V0202001N002012200019N0500001N1-02311-02701103921ADDAA112000791GA1001+999999999GF100991001001999999001001KA1999M-01781MA1999999096911MD1210041+9999REMSYN076AAXX  01121 30823 12984 02002 11231 21270 39691 40392 52004 69902 333 11178;
0122308230999992000010115004+51800+107430FM-12+0510UIUU V0203201N003012200019N0500001N1-02671-02981103981ADDGA1001+999999999GF100991001001999999001001MD1810051+9999REMSYN054AAXX  01151 30823 42984 03203 11267 21298 40398 58005;
0122308230999992000010118004+51800+107430FM-12+0510UIUU V0203001N001012200019N0500001N1-03101-03341103971ADDGA1001+999999999GF100991001001999999001001MD1710131+9999REMSYN054AAXX  01181 30823 42984 03001 11310 21334 40397 57013;
0122308230999992000010121004+51800+107430FM-12+0510UIUU V0209999C000012200019N0500001N1-03311-03531103901ADDGA1001+999999999GF100991001001999999001001MD1710121+9999REMSYN054AAXX  01211 30823 42984 00000 11331 21353 40390 57012;
0231308230999992000010200004+51800+107430FM-12+0510UIUU V0209999C000012200019N0500001N1-03441-03741103891ADDAA106000091AJ100119199999999GA1001+999999999GF100991001001999999001001IA1239KA1120N-03531MA1999999096551MD1710061+9999REMSYN082AAXX  02001 30823 32984 00000 11344 21374 39655 40389 57006 333 21353 47011 55000;EQDQ01  00002PRCP06
0122308230999992000010203004+51800+107430FM-12+0510UIUU V0200801N001012200019N0100001N1-03351-03591103791ADDGA1001+999999999GF100991001001999999001001MD1710061+9999REMSYN054AAXX  02031 30823 42997 00801 11335 21359 40379 57006;
0112308230999992000010206004+51800+107430FM-12+0510UIUU V0209999C000019999999N0100001N1-02971-03211103391ADDGF106991001001999999001021MD1710251+9999REMSYN060AAXX  02061 30823 42997 60000 11297 21321 40339 57025 80002;
0112308230999992000010209004+51800+107430FM-12+0510UIUU V0209999C000019999999N0200001N1-03131-03421103411ADDGF108991011001999999031021MD1710051+9999REMSYN060AAXX  02091 30823 42998 80000 11313 21342 40341 57005 81032;
0186308230999992000010212004+51800+107430FM-12+0510UIUU V0209999C000019999999N0190001N1-03231-03461103411ADDAA106000091GF106991001001999999001021KA1999M-02971MA1999999096161MD1710031+9999REMSYN076AAXX  02121 30823 32969 60000 11323 21346 39616 40341 57003 80002 333 11297;EQDQ01  00002PRCP06
0112308230999992000010215004+51800+107430FM-12+0510UIUU V0209999C000012200019N0190001N1-03381-03611103371ADDGF104991001001999999001021MD1710081+9999REMSYN060AAXX  02151 30823 42969 40000 11338 21361 40337 57008 80002;
0112308230999992000010218004+51800+107430FM-12+0510UIUU V0209999C000019999999N0160001N1-03561-03831103371ADDGF105991001001999999001021MD1710041+9999REMSYN060AAXX  02181 30823 42966 50000 11356 21383 40337 57004 80002;
0112308230999992000010221004+51800+107430FM-12+0510UIUU V0200701N001019999999N0140001N1-03721-04011103411ADDGF105991001001999999001021MD1410001+9999REMSYN060AAXX  02211 30823 42964 50701 11372 21401 40341 54000 80002;
0168308230999992000010223004+51800+107430FM-15+0510UIUU V0209999C000012200019N0025001N1-04101-04301999999ADDGF100991999999999999999999MA1102101999999MW1101REMMET074UIUU 022300Z 00000MPS 2500 BR SKC M41/M43 Q1021 NOSIG RMK QFE721 26410160;EQDQ01+000003PRSWM1Q02    003PRSWM1
0363308230999992000010300004+51800+107430SY-MT+0510UIUU V0209999C000019999999N0100001N1-03881-04171999999ADDAA106000091AJ100119199999999GF105991001001999999001021IA1239KA1120N-03951MA1102101096121MD1310081+9999MW1101REMSYN088AAXX  03001 30823 32960 50000 11388 21417 39612 40541 53008 80002 333 21395 47011 55037;MET082UIUU 030000Z 00000MPS 2500 BR SKC M41/M43 Q1021 TEMPO 0500 FG RMK QFE721 26410160;EQDQ01+105413APOSLPQ02+000003PRSWM1Q03  00002PRCP06Q04    003PRSWM1
0168308230999992000010301004+51800+107430FM-15+0510UIUU V0209999C000012200019N0008001N1-04101-04401999999ADDGF100991999999999999999999MA1102201999999MW1441REMMET074UIUU 030100Z 00000MPS 0800 FG SKC M41/M44 Q1022 NOSIG RMK QFE722 26410160;EQDQ01+000003PRSWM1Q02    003PRSWM1
0176308230999992000010302004+51800+107430FM-15+0510UIUU V0209999C000012200019N0010001N1-04001-04401999999ADDGF100991999999999999999999MA1102201999999MW1101REMMET082UIUU 030200Z 00000MPS 1000 BR SKC M40/M44 Q1022 TEMPO 0500 FG RMK QFE722 26410160;EQDQ01+000003PRSWM1Q02    003PRSWM1
0140308230999992000010303004+51800+107430FM-12+0510UIUU V0209999C000012200019N0040001N1-03721-04011103561ADDAY111031AY211031GF103991001001999999001011MD1210051+9999MW1101REMSYN066AAXX  03031 30823 41996 30000 11372 21401 40356 52005 71011 80001;
0168308230999992000010304004+51800+107430FM-15+0510UIUU V0209999C000012200019N0025001N1-03701-04101999999ADDGF100991999999999999999999MA1102201999999MW1101REMMET074UIUU 030400Z 00000MPS 2500 BR SKC M37/M41 Q1022 NOSIG RMK QFE722 26410160;EQDQ01+000003PRSWM1Q02    003PRSWM1
0168308230999992000010305004+51800+107430FM-15+0510UIUU V0209999C000012200019N0025001N1-03501-03901999999ADDGF100991999999999999999999MA1102201999999MW1101REMMET074UIUU 030500Z 00000MPS 2500 BR SKC M35/M39 Q1022 NOSIG RMK QFE722 26410160;EQDQ01+000003PRSWM1Q02    003PRSWM1
0150308230999992000010306004+51800+107430FM-12+0510UIUU V0209999C000012200019N0040001N1-03241-03551103351ADDAY111061AY211061GA1001+999999999GF100991001001999999001001MD1810061+9999MW1101REMSYN060AAXX  03061 30823 41996 00000 11324 21355 40335 58006 71011;
0168308230999992000010307004+51800+107430FM-15+0510UIUU V0202401N002012200019N0050001N1-03301-03701999999ADDGF100991999999999999999999MA1102201999999MW1101REMMET074UIUU 030700Z 24002MPS 5000 BR SKC M33/M37 Q1022 NOSIG RMK QFE722 26410160;EQDQ01+000003PRSWM1Q02    003PRSWM1
0168308230999992000010308004+51800+107430FM-15+0510UIUU V0202401N002012200019N0050001N1-03301-03701999999ADDGF100991999999999999999999MA1102201999999MW1101REMMET074UIUU 030800Z 24002MPS 5000 BR SKC M33/M37 Q1022 NOSIG RMK QFE722 26410160;EQDQ01+000003PRSWM1Q02    003PRSWM1
0264308230999992000010309004+51800+107430SY-MT+0510UIUU V0209999C000012200019N0200001N1-03291-03571103371ADDGA1071+060009999GF199999001001999999001011MA1102201999999MD1310011+9999MW1001REMSYN060AAXX  03091 30823 42998 20000 11329 21357 40337 53001 80001;MET074UIUU 030900Z 22002MPS 7000 BKN200 M33/M37 Q1022 NOSIG RMK QFE722 26410160;EQDQ01+000022SCOTCVQ02+000000PRSWM2
0123308230999992000010310004+51800+107430FM-15+0510UIUU V0209999C000012200019N0070001N1+99999+99999999999ADDMA1102301999999MW1001REMMET071UIUU 031000Z 00000MPS 7000 NSC M34/M37 Q1023 NOSIG RMK QFE722 26410160;EQDQ01+000000PRSWM2
0123308230999992000010311004+51800+107430FM-15+0510UIUU V0209999C000012200019N0112651N1+99999+99999999999ADDMA1102401999999MW1001REMMET071UIUU 031100Z 00000MPS 9999 NSC M35/M37 Q1024 NOSIG RMK QFE723 26410160;EQDQ01+000000PRSWM2
0196308230999992000010312004+51800+107430FM-12+0510UIUU V0209999C000012200019N0200001N1-03351-03651103591ADDAA106000091GA1001+999999999GF100991001001999999001001KA1999M-03241MA1999999096301MD1210181+9999REMSYN070AAXX  03121 30823 32970 00000 11335 21365 39630 40359 52018 333 11324;EQDQ01  00002PRCP06
0149308230999992000010313004+51800+107430FM-15+0510UIUU V0209999C000012200019N0112651N1-03601-04001999999ADDGF100991999999999999999999MA1102511999999MW1001REMMET071UIUU 031300Z 00000MPS 9999 SKC M36/M40 Q1025 NOSIG RMK QFE724 26410160;EQDQ01+000000PRSWM2
0149308230999992000010314004+51800+107430FM-15+0510UIUU V0209999C000012200019N0112651N1-03701-04001999999ADDGF100991999999999999999999MA1102511999999MW1001REMMET071UIUU 031400Z 00000MPS 9999 SKC M37/M40 Q1025 NOSIG RMK QFE724 26410160;EQDQ01+000000PRSWM2
0223308230999992000010315004+51800+107430SY-MT+0510UIUU V0209999C000012200019N0160001N1-03541-03831103741ADDGF100991001001999999001001MA1102511999999MD1210081+9999MW1001REMSYN054AAXX  03151 30823 42966 00000 11354 21383 40374 52008;MET071UIUU 031500Z 00000MPS 9999 SKC M37/M41 Q1025 NOSIG RMK QFE724 26410160;EQDQ01+000000PRSWM2
0149308230999992000010316004+51800+107430FM-15+0510UIUU V0209999C000012200019N0112651N1-03701-04101999999ADDGF100991999999999999999999MA1102511999999MW1001REMMET071UIUU 031600Z 00000MPS 9999 SKC M37/M41 Q1025 NOSIG RMK QFE724 26410160;EQDQ01+000000PRSWM2
0149308230999992000010317004+51800+107430FM-15+0510UIUU V0209999C000012200019N0112651N1-03701-04101999999ADDGF100991999999999999999999MA1102511999999MW1001REMMET071UIUU 031700Z 00000MPS 9999 SKC M37/M41 Q1025 NOSIG RMK QFE724 26410160;EQDQ01+000000PRSWM2
0223308230999992000010318004+51800+107430SY-MT+0510UIUU V0209999C000012200019N0140001N1-03621-03901103921ADDGF100991001001999999001001MA1102511999999MD1210161+9999MW1001REMSYN054AAXX  03181 30823 42964 00000 11362 21390 40392 52016;MET071UIUU 031800Z 00000MPS 9999 SKC M38/M41 Q1025 NOSIG RMK QFE725 26410160;EQDQ01+000000PRSWM2
0149308230999992000010319004+51800+107430FM-15+0510UIUU V0209999C000012200019N0112651N1-03801-04201999999ADDGF100991999999999999999999MA1102711999999MW1001REMMET071UIUU 031900Z 00000MPS 9999 SKC M38/M42 Q1027 NOSIG RMK QFE725 26410160;EQDQ01+000000PRSWM2
0149308230999992000010320004+51800+107430FM-15+0510UIUU V0209999C000012200019N0070001N1-03801-04201999999ADDGF100991999999999999999999MA1102811999999MW1001REMMET071UIUU 032000Z 00000MPS 7000 SKC M38/M42 Q1028 NOSIG RMK QFE726 26410160;EQDQ01+000000PRSWM2
0122308230999992000010321004+51800+107430FM-12+0510UIUU V0209999C000012200019N0140001N1-03741-04011104121ADDGA1001+999999999GF100991001001999999001001MD1210141+9999REMSYN054AAXX  03211 30823 42964 00000 11374 21401 40412 52014;
0168308230999992000010322004+51800+107430FM-15+0510UIUU V0209999C000012200019N0025001N1-04001-04301999999ADDGF100991999999999999999999MA1102811999999MW1101REMMET074UIUU 032200Z 00000MPS 2500 BR SKC M40/M43 Q1028 NOSIG RMK QFE726 26410160;EQDQ01+000003PRSWM1Q02    003PRSWM1
0176308230999992000010323004+51800+107430FM-15+0510UIUU V0209999C000012200019N0025001N1-04001-04301999999ADDGF100991999999999999999999MA1102811999999MW1101REMMET082UIUU 032300Z 00000MPS 2500 BR SKC M40/M43 Q1028 TEMPO 0500 FG RMK QFE727 26410160;EQDQ01+000003PRSWM1Q02    003PRSWM1
0377308230999992000010400004+51800+107430SY-MT+0510UIUU V0200901N001012200019N0100001N1-03781-04051104231ADDAA106000091AJ100119199999999GF100991001001999999001001GJ102709IA1239KA1120N-03801MA1102911096761MD1210081+9999MW1101REMSYN110AAXX  04001 30823 32960 00901 11378 21405 39676 40423 52008 333 21380 47011 55045 555 1/138 51352 53004 7000/;MET082UIUU 040000Z 26002MPS 2500 BR SKC M39/M43 Q1029 TEMPO 0500 FG RMK QFE727 26410160;EQDQ01+000003PRSWM1Q02  00002PRCP06Q03    003PRSWM1
0176308230999992000010401004+51800+107430FM-15+0510UIUU V0209999C000012200019N0025001N1-03801-04101999999ADDGF100991999999999999999999MA1103011999999MW1101REMMET082UIUU 040100Z 00000MPS 2500 BR SKC M38/M41 Q1030 TEMPO 0800 FG RMK QFE727 26410160;EQDQ01+000003PRSWM1Q02    003PRSWM1
0132308230999992000010402004+51800+107430FM-15+0510UIUU V0201301N001012200019N0008001N1+99999+99999999999ADDMA1103121999999MW1001MW2441REMMET074UIUU 040200Z 13001MPS 0800 FG NSC M38/M41 Q1031 NOSIG RMK QFE728 26410160;EQDQ01+000003PRSWM1
0253308230999992000010403004+51800+107430SY-MT+0510UIUU V0200701N003012200019N0020001N1-03651-03941104411ADDAY101031AY201031GF100991001001999999001001MA1103121999999MD1210221+9999MW1101REMSYN060AAXX  04031 30823 41995 00703 11365 21394 40441 52022 71000;MET079UIUU 040300Z 00000MPS 1000 BR NSC M37/M41 Q1031 TEMPO 2500 RMK QFE728 26410160;EQDQ01    003PRSWM1
0187308230999992000010404004+51800+107430FM-15+0510UIUU V0209999C000010600019N0025001N1-03501-03901999999ADDGA1071+060009999GF107991999999999999999999MA1103121999999MW1101REMMET077UIUU 040400Z 00000MPS 2500 BR BKN200 M35/M39 Q1031 NOSIG RMK QFE728 26410160;EQDQ01+000003PRSWM1Q02    003PRSWM1
0187308230999992000010405004+51800+107430FM-15+0510UIUU V0209999C000010600019N0025001N1-03401-03701999999ADDGA1071+060009999GF107991999999999999999999MA1103011999999MW1101REMMET077UIUU 040500Z 00000MPS 2500 BR BKN200 M34/M37 Q1030 NOSIG RMK QFE728 26410160;EQDQ01+000003PRSWM1Q02    003PRSWM1
0299308230999992000010406004+51800+107430SY-MT+0510UIUU V0209999C000019999999N0040001N1-03281-03571104211ADDAY101061AY201061GA1071+060009999GF199999001001999999001001MA1103011999999MD1810081+9999MW1101REMSYN060AAXX  04061 30823 41996 00000 11328 21357 40421 58008 71000;MET077UIUU 040600Z 25001MPS 2500 BR BKN200 M34/M38 Q1030 NOSIG RMK QFE728 26410160;EQDQ01 060003SCOCIGQ02    003SCOTCVQ03    003PRSWM1
0187308230999992000010407004+51800+107430FM-15+0510UIUU V0202301N002010600019N0035001N1-03301-03701999999ADDGA1071+060009999GF107991999999999999999999MA1103011999999MW1101REMMET077UIUU 040700Z 23002MPS 3500 BR BKN200 M33/M37 Q1030 NOSIG RMK QFE728 26410160;EQDQ01+000003PRSWM1Q02    003PRSWM1
0187308230999992000010408004+51800+107430FM-15+0510UIUU V0209999C000010600019N0035001N1-03301-03801999999ADDGA1071+060009999GF107991999999999999999999MA1103011999999MW1101REMMET077UIUU 040800Z 00000MPS 3500 BR BKN200 M33/M38 Q1030 NOSIG RMK QFE728 26410160;EQDQ01+000003PRSWM1Q02    003PRSWM1
0187308230999992000010409004+51800+107430FM-15+0510UIUU V0209999C000010600019N0035001N1-03401-03801999999ADDGA1071+060009999GF107991999999999999999999MA1103011999999MW1101REMMET077UIUU 040900Z 00000MPS 3500 BR BKN200 M34/M38 Q1030 NOSIG RMK QFE728 26410160;EQDQ01+000003PRSWM1Q02    003PRSWM1
0132308230999992000010410004+51800+107430FM-15+0510UIUU V0209999C000012200019N0050001N1+99999+99999999999ADDMA1103121999999MW1001MW2101REMMET074UIUU 041000Z 00000MPS 5000 BR NSC M34/M38 Q1031 NOSIG RMK QFE728 26410160;EQDQ01+000003PRSWM1
0132308230999992000010411004+51800+107430FM-15+0510UIUU V0209999C000012200019N0050001N1+99999+99999999999ADDMA1103181999999MW1001MW2101REMMET074UIUU 041100Z 00000MPS 5000 BR NSC M34/M38 Q1032 NOSIG RMK QFE729 26410160;EQDQ01+000003PRSWM1
0304308230999992000010412004+51800+107430SY-MT+0510UIUU V0209999C000019999999N0100001N1-03301-03601104421ADDAA106000091GF108991001001999999001021KA1999M-03281MA1103181097091MD1210111+9999MW1101REMSYN076AAXX  04121 30823 32960 80000 11330 21360 39709 40442 52011 80002 333 11328;MET074UIUU 041200Z 00000MPS 5000 BR NSC M35/M39 Q1032 NOSIG RMK QFE729 26410160;EQDQ01+000003PRSWM1Q02  00002PRCP06Q03    003PRSWM1
0168308230999992000010413004+51800+107430FM-15+0510UIUU V0209999C000012200019N0050001N1-03601-03901999999ADDGF100991999999999999999999MA1103181999999MW1101REMMET074UIUU 041300Z 00000MPS 5000 BR SKC M36/M39 Q1032 NOSIG RMK QFE729 26410160;EQDQ01+000003PRSWM1Q02    003PRSWM1
0168308230999992000010414004+51800+107430FM-15+0510UIUU V0209999C000012200019N0050001N1-03501-03901999999ADDGF100991999999999999999999MA1103291999999MW1101REMMET074UIUU 041400Z 00000MPS 5000 BR SKC M35/M39 Q1033 NOSIG RMK QFE729 26410160;EQDQ01+000003PRSWM1Q02    003PRSWM1
0248308230999992000010415004+51800+107430SY-MT+0510UIUU V0200701N002019999999N0110001N1-03451-03741104581ADDGF108991001001999999001011MA1103291999999MD1210111+9999MW1101REMSYN060AAXX  04151 30823 42961 80702 11345 21374 40458 52011 80001;MET074UIUU 041500Z 00000MPS 5000 BR SKC M35/M39 Q1033 NOSIG RMK QFE729 26410160;EQDQ01+000003PRSWM1Q02    003PRSWM1
0168308230999992000010416004+51800+107430FM-15+0510UIUU V0202401N002012200019N0050001N1-03701-04001999999ADDGF100991999999999999999999MA1103391999999MW1101REMMET074UIUU 041600Z 24002MPS 5000 BR SKC M37/M40 Q1034 NOSIG RMK QFE730 26410160;EQDQ01+000003PRSWM1Q02    003PRSWM1
0168308230999992000010417004+51800+107430FM-15+0510UIUU V0209999C000012200019N0050001N1-03601-04001999999ADDGF100991999999999999999999MA1103391999999MW1101REMMET074UIUU 041700Z 00000MPS 5000 BR SKC M36/M40 Q1034 NOSIG RMK QFE730 26410160;EQDQ01+000003PRSWM1Q02    003PRSWM1
0248308230999992000010418004+51800+107430SY-MT+0510UIUU V0200701N001019999999N0100001N1-03491-03771104631ADDGF108991001001999999001011MA1103391999999MD1210031+9999MW1101REMSYN060AAXX  04181 30823 42960 80701 11349 21377 40463 52003 80001;MET074UIUU 041800Z 00000MPS 5000 BR SKC M37/M40 Q1034 NOSIG RMK QFE730 26410160;EQDQ01+000003PRSWM1Q02    003PRSWM1
0168308230999992000010419004+51800+107430FM-15+0510UIUU V0209999C000012200019N0050001N1-03701-04001999999ADDGF100991999999999999999999MA1103391999999MW1101REMMET074UIUU 041900Z 00000MPS 5000 BR SKC M37/M40 Q1034 NOSIG RMK QFE731 26410160;EQDQ01+000003PRSWM1Q02    003PRSWM1
0187308230999992000010420004+51800+107430FM-15+0510UIUU V0209999C000010600019N0050001N1-03601-04001999999ADDGA1071+060009999GF107991999999999999999999MA1103491999999MW1101REMMET077UIUU 042000Z 00000MPS 5000 BR BKN200 M36/M40 Q1035 NOSIG RMK QFE731 26410160;EQDQ01+000003PRSWM1Q02    003PRSWM1
0267308230999992000010421004+51800+107430SY-MT+0510UIUU V0209999C00001060001CN0100001N1-03491-03771104701ADDGA1071+060009999GF108991001001999999001011MA1103491999999MD1210061+9999MW1101REMSYN060AAXX  04211 30823 42960 80000 11349 21377 40470 52006 80001;MET077UIUU 042100Z 00000MPS 5000 BR BKN200 M36/M40 Q1035 NOSIG RMK QFE731 26410160;EQDQ01+000003PRSWM1Q02    003PRSWM1
0187308230999992000010422004+51800+107430FM-15+0510UIUU V0209999C000010600019N0050001N1-03601-04001999999ADDGA1071+060009999GF107991999999999999999999MA1103491999999MW1101REMMET077UIUU 042200Z 00000MPS 5000 BR BKN200 M36/M40 Q1035 NOSIG RMK QFE731 26410160;EQDQ01+000003PRSWM1Q02    003PRSWM1
0195308230999992000010423004+51800+107430FM-15+0510UIUU V0209999C000010600019N0050001N1-03701-04101999999ADDGA1071+060009999GF107991999999999999999999MA1103491999999MW1101REMMET085UIUU 042300Z 00000MPS 5000 BR BKN200 M37/M41 Q1035 BECMG 1500 BR RMK QFE731 26410160;EQDQ01+000003PRSWM1Q02    003PRSWM1
0372308230999992000010500004+51800+107430SY-MT+0510UIUU V0200801N00201060001CN0030001N1-03711-04011104841ADDAA106000091AJ100119199999999AY121061AY221061GA1071+060009999GF108991001001999999001011IA1239KA1120N-03731MA1103491097351MD1210071+9999MW1101REMSYN094AAXX  05001 30823 31930 80802 11371 21401 39735 40484 52007 71022 80001 333 21373 47011 55008;MET085UIUU 050000Z 00000MPS 5000 BR BKN200 M37/M40 Q1035 BECMG 1500 BR RMK QFE731 26410160;EQDQ01  00002PRCP06Q02    003PRSWM1
0140308230999992000010502004+51800+107430FM-15+0510UIUU V0209999C000012200019N0050001N1+99999+99999999999ADDMA1103591999999MW1001MW2101REMMET082UIUU 050200Z 00000MPS 5000 BR NSC M36/M40 Q1036 TEMPO 1500 BR RMK QFE732 26410160;EQDQ01+000003PRSWM1
0262308230999992000010503004+51800+107430SY-MT+0510UIUU V0209999C000019999999N0020001N1-03571-03861104911ADDAY121031AY221031GF105991001001999999001011MA1103591999999MD1210111+9999MW1101REMSYN066AAXX  05031 30823 41995 50000 11357 21386 40491 52011 71022 80001;MET082UIUU 050300Z 00000MPS 2500 BR NSC M34/M36 Q1036 TEMPO 1500 BR RMK QFE732 26410160;EQDQ01    003PRSWM1
0188308230999992000010504004+51800+107430FM-15+0510UIUU V0202401N001010600019N0025001N1-03201-03601999999ADDGA1071+060009999GF107991999999999999999999MA1103491999999MW1101REMMET078UIUU 050400Z 24001MPS 2500 BR BKN200 M32/M36 Q1035 NOSIG RMK QFE 732 26410160;EQDQ01+000003PRSWM1Q02    003PRSWM1
0198308230999992000010505004+51800+107430FM-15+0510UIUU V0202301N001010300019N0025001N1-03001-03401999999ADDGA1071+030009999GF107991999999999999999999MA1103491999999MW1101MW2711REMMET082UIUU 050500Z 23001MPS 2500 -SN BR BKN100 M30/M34 Q1035 NOSIG RMK QFE 731 26490150;EQDQ01+000003PRSWM1Q02    003PRSWM1
0284308230999992000010506004+51800+107430SY-MT+0510UIUU V0209999C00001030001CN0200001N1-02901-03201104581ADDGA1071+030009999GF199999001001999999001011MA1103491999999MD1810121+9999MW1101REMSYN060AAXX  05061 30823 42998 60000 11290 21320 40458 58012 80001;MET078UIUU 050600Z 23001MPS 5000 BR BKN100 M28/M32 Q1035 NOSIG RMK QFE 731 26490150;EQDQ01+000062SCOTCVQ02+000003PRSWM1Q03    003PRSWM1
0187308230999992000010507004+51800+107430FM-15+0510UIUU V0202501N002010300019N0050001N1-02701-03301999999ADDGA1071+030009999GF107991999999999999999999MA1103491999999MW1101REMMET077UIUU 050700Z 25002MPS 5000 BR BKN100 M27/M33 Q1035 NOSIG RMK QFE731 26490150;EQDQ01+000003PRSWM1Q02    003PRSWM1
0267308230999992000010509004+51800+107430SY-MT+0510UIUU V0209999C00001060001CN0200001N1-02821-03121104661ADDGA1071+060009999GF108991001001999999001021MA1103491999999MD1310101+9999MW1101REMSYN060AAXX  05091 30823 42998 80000 11282 21312 40466 53010 80002;MET077UIUU 050900Z 31001MPS 5000 BR BKN200 M29/M33 Q1035 NOSIG RMK QFE731 26490150;EQDQ01+000003PRSWM1Q02    003PRSWM1
0197308230999992000010510004+51800+107430FM-15+0510UIUU V0202201N001010300019N0050001N1-02801-03101999999ADDGA1081+030009999GF108991999999999999999999MA1103491999999MW1101MW2711REMMET081UIUU 051000Z 22001MPS 5000 -SN BR OVC100 M28/M31 Q1035 NOSIG RMK QFE731 26490150;EQDQ01+000003PRSWM1Q02    003PRSWM1
0197308230999992000010511004+51800+107430FM-15+0510UIUU V0202201N002010300019N0050001N1-02801-03101999999ADDGA1081+030009999GF108991999999999999999999MA1103591999999MW1101MW2711REMMET081UIUU 051100Z 22002MPS 5000 -SN BR OVC100 M28/M31 Q1036 NOSIG RMK QFE732 26490150;EQDQ01+000003PRSWM1Q02    003PRSWM1
0308308230999992000010512004+51800+107430SY-MT+0510UIUU V0209999C00001030001CN0140001N1-02711-03011104661ADDAA106000021GA1071+030009999GF108991001001999999001021KA1999M-02711MA1103591097481MD1210031+9999MW1711REMSYN076AAXX  05121 30823 32964 80000 11271 21301 39748 40466 52003 80002 333 11271;MET078UIUU 051200Z 24001MPS 9999 -SN BKN100 M28/M31 Q1036 NOSIG RMK QFE732 26490150;EQDQ01+000003PRSWM1Q02    003PRSWM1
0188308230999992000010513004+51800+107430FM-15+0510UIUU V0209999C000010300019N0112651N1-02901-03201999999ADDGA1071+030009999GF107991999999999999999999MA1103491999999MW1711REMMET078UIUU 051300Z 00000MPS 9999 -SN BKN100 M29/M32 Q1035 NOSIG RMK QFE731 26490150;EQDQ01+000003PRSWM1Q02    003PRSWM1
0168308230999992000010514004+51800+107430FM-15+0510UIUU V0209999C000010300019N0112651N1-03101-03401999999ADDGA1071+030009999GF107991999999999999999999MA1103491999999MW1001REMMET074UIUU 051400Z 00000MPS 9999 BKN100 M31/M34 Q1035 NOSIG RMK QFE731 26490150;EQDQ01+000000PRSWM2
0248308230999992000010515004+51800+107430SY-MT+0510UIUU V0209999C000012200019N0200001N1-03031-03271104691ADDGA1021+030009999GF102991001001999999001011MA1103491999999MD1810061+9999MW1001REMSYN060AAXX  05151 30823 42970 20000 11303 21327 40469 58006 80001;MET074UIUU 051500Z 23002MPS 9999 SCT100 M32/M34 Q1035 NOSIG RMK QFE731 26490150;EQDQ01+000000PRSWM2
0168308230999992000010516004+51800+107430FM-15+0510UIUU V0202301N001012200019N0112651N1-03201-03501999999ADDGA1021+030009999GF104991999999999999999999MA1103491999999MW1001REMMET074UIUU 051600Z 23001MPS 9999 SCT100 M32/M35 Q1035 NOSIG RMK QFE731 26490245;EQDQ01+000000PRSWM2
0168308230999992000010517004+51800+107430FM-15+0510UIUU V0209999C000012200019N0112651N1-03201-03501999999ADDGA1021+030009999GF102991999999999999999999MA1103491999999MW1001REMMET074UIUU 051700Z 00000MPS 9999 FEW100 M32/M35 Q1035 NOSIG RMK QFE731 26490245;EQDQ01+000000PRSWM2
0258308230999992000010518004+51800+107430SY-MT+0510UIUU V0209999C000012200019N0200001N1-03131-03361104701ADDGA1021+030009999GF199999001001999999001001MA1103491999999MD1710031+9999MW1001REMSYN054AAXX  05181 30823 42970 00000 11313 21336 40470 57003;MET074UIUU 051800Z 00000MPS 9999 FEW100 M32/M35 Q1035 NOSIG RMK QFE731 26490245;EQDQ01+000002SCOTCVQ02+000000PRSWM2
0149308230999992000010519004+51800+107430FM-15+0510UIUU V0209999C000012200019N0112651N1-03401-03701999999ADDGF100991999999999999999999MA1103491999999MW1001REMMET071UIUU 051900Z 00000MPS 9999 SKC M34/M37 Q1035 NOSIG RMK QFE731 26490245;EQDQ01+000000PRSWM2
0229308230999992000010521004+51800+107430SY-MT+0510UIUU V0209999C000012200019N0200001N1-03331-03561104691ADDGF102991001001999999001011MA1103391999999MD1410001+9999MW1001REMSYN060AAXX  05211 30823 42970 20000 11333 21356 40469 54006 80001;MET071UIUU 052100Z 00000MPS 9999 SKC M36/M39 Q1034 NOSIG RMK QFE731 26490245;EQDQ01+000000PRSWM2
0149308230999992000010522004+51800+107430FM-15+0510UIUU V0209999C000012200019N0112651N1-03601-03901999999ADDGF100991999999999999999999MA1103391999999MW1001REMMET071UIUU 052200Z 00000MPS 9999 SKC M36/M39 Q1034 NOSIG RMK QFE730 26490245;EQDQ01+000000PRSWM2
0182308230999992000010601004+51800+107430FM-15+0510UIUU V0209999C000012200019N0025001N1-04001-04301999999ADDGF100991999999999999999999MA1103391999999MW1101REMMET088UIUU 060100Z 00000MPS 2500 BR SKC M40/M43 Q1034 TEMPO 0800 FG VV003 RMK QFE730 26490150;EQDQ01+000003PRSWM1Q02    003PRSWM1
0168308230999992000010602004+51800+107430FM-15+0510UIUU V0209999C000012200019N0050001N1-03801-04101999999ADDGF100991999999999999999999MA1103391999999MW1101REMMET074UIUU 060200Z 00000MPS 5000 BR SKC M38/M41 Q1034 NOSIG RMK QFE730 26490150;EQDQ01+000003PRSWM1Q02    003PRSWM1
0242308230999992000010603004+51800+107430SY-MT+0510UIUU V0209999C000012200019N0100001N1-03461-03741104601ADDGF100991001001999999001001MA1103391999999MD1710061+9999MW1101REMSYN054AAXX  06031 30823 42997 00000 11346 21374 40460 57006;MET074UIUU 060300Z 26001MPS 5000 BR SKC M37/M41 Q1034 NOSIG RMK QFE730 26490150;EQDQ01+000003PRSWM1Q02    003PRSWM1
0168308230999992000010604004+51800+107430FM-15+0510UIUU V0209999C000012200019N0050001N1-03401-03701999999ADDGF100991999999999999999999MA1103291999999MW1101REMMET074UIUU 060400Z 00000MPS 5000 BR SKC M34/M37 Q1033 NOSIG RMK QFE730 26490150;EQDQ01+000003PRSWM1Q02    003PRSWM1
0168308230999992000010605004+51800+107430FM-15+0510UIUU V0209999C000012200019N0050001N1-03301-03601999999ADDGF100991999999999999999999MA1103181999999MW1101REMMET074UIUU 060500Z 00000MPS 5000 BR SKC M33/M36 Q1032 NOSIG RMK QFE729 26490150;EQDQ01+000003PRSWM1Q02    003PRSWM1
0242308230999992000010606004+51800+107430SY-MT+0510UIUU V0209999C000012200019N0100001N1-02951-03261104281ADDGF100991001001999999001001MA1103181999999MD1710161+9999MW1101REMSYN054AAXX  06061 30823 42997 00000 11295 21326 40428 57016;MET074UIUU 060600Z 00000MPS 5000 BR SKC M31/M34 Q1032 NOSIG RMK QFE729 26490150;EQDQ01+000003PRSWM1Q02    003PRSWM1
0149308230999992000010607004+51800+107430FM-15+0510UIUU V0209999C000012200019N0112651N1-02801-03101999999ADDGF100991999999999999999999MA1103121999999MW1001REMMET071UIUU 060700Z 00000MPS 9999 SKC M28/M31 Q1031 NOSIG RMK QFE728 26490150;EQDQ01+000000PRSWM2
0149308230999992000010608004+51800+107430FM-15+0510UIUU V0209999C000012200019N0112651N1-02901-03301999999ADDGF100991999999999999999999MA1103121999999MW1001REMMET071UIUU 060800Z 00000MPS 9999 SKC M29/M33 Q1031 NOSIG RMK QFE728 26490150;EQDQ01+000000PRSWM2
0223308230999992000010609004+51800+107430SY-MT+0510UIUU V0209999C000012200019N0100001N1-03061-03361104211ADDGF100991001001999999001001MA1103121999999MD1710091+9999MW1001REMSYN054AAXX  06091 30823 42997 00000 11306 21336 40421 57009;MET071UIUU 060900Z 00000MPS 9999 SKC M31/M34 Q1031 NOSIG RMK QFE728 26450160;EQDQ01+000000PRSWM2
0149308230999992000010610004+51800+107430FM-15+0510UIUU V0209999C000012200019N0112651N1-03301-03601999999ADDGF100991999999999999999999MA1103121999999MW1001REMMET071UIUU 061000Z 00000MPS 9999 SKC M33/M36 Q1031 NOSIG RMK QFE728 26450160;EQDQ01+000000PRSWM2
0149308230999992000010611004+51800+107430FM-15+0510UIUU V0202401N002012200019N0112651N1-03401-03601999999ADDGF100991999999999999999999MA1103121999999MW1001REMMET071UIUU 061100Z 24002MPS 9999 SKC M34/M36 Q1031 NOSIG RMK QFE728 26450160;EQDQ01+000000PRSWM2
0279308230999992000010612004+51800+107430SY-MT+0510UIUU V0209999C000012200019N0110001N1-03351-03591104231ADDAA106000091GF100991001001999999001001KA1999M-02951MA1103011096901MD1710071+9999MW1001REMSYN070AAXX  06121 30823 32961 00000 11335 21359 39690 40423 57007 333 11295;MET071UIUU 061200Z 00000MPS 9999 SKC M35/M38 Q1030 NOSIG RMK QFE728 26450160;EQDQ01+000000PRSWM2Q02  00002PRCP06
0168308230999992000010613004+51800+107430FM-15+0510UIUU V0202301N002012200019N0050001N1-03601-03901999999ADDGF100991999999999999999999MA1103011999999MW1101REMMET074UIUU 061300Z 23002MPS 5000 BR SKC M36/M39 Q1030 NOSIG RMK QFE728 26450160;EQDQ01+000003PRSWM1Q02    003PRSWM1
0149308230999992000010614004+51800+107430FM-15+0510UIUU V0209999C000012200019N0070001N1-03801-04101999999ADDGF100991999999999999999999MA1103011999999MW1001REMMET071UIUU 061400Z 00000MPS 7000 SKC M38/M41 Q1030 NOSIG RMK QFE727 26450160;EQDQ01+000000PRSWM2
0223308230999992000010615004+51800+107430SY-MT+0510UIUU V0209999C000012200019N0110001N1-03531-03771104241ADDGF100991001001999999001001MA1103011999999MD1710051+9999MW1001REMSYN054AAXX  06151 30823 42961 00000 11353 21377 40424 57005;MET071UIUU 061500Z 00000MPS 9999 SKC M38/M40 Q1030 NOSIG RMK QFE727 26450160;EQDQ01+000000PRSWM2
0149308230999992000010616004+51800+107430FM-15+0510UIUU V0209999C000012200019N0112651N1-03801-04001999999ADDGF100991999999999999999999MA1102911999999MW1001REMMET071UIUU 061600Z 00000MPS 9999 SKC M38/M40 Q1029 NOSIG RMK QFE727 26450160;EQDQ01+000000PRSWM2
0149308230999992000010617004+51800+107430FM-15+0510UIUU V0202401N003012200019N0112651N1-03901-04201999999ADDGF100991999999999999999999MA1102811999999MW1001REMMET071UIUU 061700Z 24003MPS 9999 SKC M39/M42 Q1028 NOSIG RMK QFE726 26450160;EQDQ01+000000PRSWM2
0141308230999992000010618004+51800+107430FM-12+0510UIUU V0209999C000012200019N0100001N1+99999-04131104281ADDGA1001+999999999GF100991001001999999001001MD1710131+9999REMSYN054AAXX  06181 30823 42960 00000 11138 21413 40428 57013;EQDQ01-001383ATOT  
0149308230999992000010620004+51800+107430FM-15+0510UIUU V0209999C000012200019N0112651N1-04101-04301999999ADDGF100991999999999999999999MA1102711999999MW1001REMMET071UIUU 062000Z 00000MPS 9999 SKC M41/M43 Q1027 NOSIG RMK QFE726 26450160;EQDQ01+000000PRSWM2
0262308230999992000010621004+51800+107430SY-MT+0510UIUU V0200801N002012200019N0040001N1-03731-04011104051ADDAY101031AY201031GF100991001001999999001001MA1102711999999MD1710211+9999MW1101MW2201REMSYN060AAXX  06211 30823 41940 00802 11373 21401 40405 57021 72000;MET082UIUU 062100Z 00000MPS 5000 BR SKC M41/M44 Q1027 BECMG 2500 BR RMK QFE725 26450160;EQDQ01    003PRSWM1
0176308230999992000010622004+51800+107430FM-15+0510UIUU V0209999C000012200019N0050001N1-04101-04401999999ADDGF100991999999999999999999MA1102711999999MW1101REMMET082UIUU 062200Z 00000MPS 5000 BR SKC M41/M44 Q1027 BECMG 2500 BR RMK QFE725 26450160;EQDQ01+000003PRSWM1Q02    003PRSWM1
0188308230999992000010623004+51800+107430FM-15+0510UIUU V0209999C000012200019N0015001N1-04101-04401999999ADDGF100991999999999999999999MA1102711999999MW1101REMMET094UIUU 062300Z 00000MPS 1500 R1500 BR SKC M41/M44 Q1027 BECMG 0500 FG VV002 RMK QFE725 26450160;EQDQ01+000003PRSWM1Q02    003PRSWM1
0349308230999992000010700004+51800+107430SY-MT+0510UIUU V0200801N002012200019N0030001N1-03831-04091104071ADDAA106000021AJ100119199999999AY101061AY201061GF100991001001999999001001IA1239KA1120N-03931MA1102711096601MD1710011+9999MW1101MW2441REMSYN088AAXX  07001 30823 31930 00802 11383 21409 39660 40407 57001 71000 333 21393 47011 55059;MET094UIUU 070000Z 00000MPS 0800 R1000 FG SKC M42/M45 Q1027 TEMPO 0500 FG VV002 RMK QFE725 26CLRD60;EQDQ01    003PRSWM1
0168308230999992000010701004+51800+107430FM-15+0510UIUU V0202401N002012200019N0008001N1-04201-04401999999ADDGF100991999999999999999999MA1102711999999MW1441REMMET074UIUU 070100Z 24002MPS 0800 FG SKC M42/M44 Q1027 NOSIG RMK QFE725 26CLRD60;EQDQ01+000003PRSWM1Q02    003PRSWM1
0168308230999992000010702004+51800+107430FM-15+0510UIUU V0209999C000012200019N0005001N1-04201-04501999999ADDGF100991999999999999999999MA1102711999999MW1441REMMET074UIUU 070200Z 00000MPS 0500 FG SKC M42/M45 Q1027 NOSIG RMK QFE725 26CLRD60;EQDQ01+000003PRSWM1Q02    003PRSWM1
0254308230999992000010703004+51800+107430SY-MT+0510UIUU V0200801N001012200019N0010001N1-03901-04201103981ADDAY101031AY201031GF100991001001999999001001MA1102711999999MD1710061+9999MW1101MW2441REMSYN060AAXX  07031 30823 41994 00801 11380 21109 40398 57006 71000;MET074UIUU 070300Z 00000MPS 0700 FG SKC M39/M42 Q1027 NOSIG RMK QFE725 26CLRD60;EQDQ01    003PRSWM1
0168308230999992000010704004+51800+107430FM-15+0510UIUU V0209999C000012200019N0050001N1-03801-04101999999ADDGF100991999999999999999999MA1102611999999MW1101REMMET074UIUU 070400Z 00000MPS 5000 BR SKC M38/M41 Q1026 NOSIG RMK QFE725 26CLRD60;EQDQ01+000003PRSWM1Q02    003PRSWM1
0168308230999992000010705004+51800+107430FM-15+0510UIUU V0209999C000012200019N0050001N1-03401-03701999999ADDGF100991999999999999999999MA1102511999999MW1101REMMET074UIUU 070500Z 00000MPS 5000 BR SKC M34/M37 Q1025 NOSIG RMK QFE724 26CLRD60;EQDQ01+000003PRSWM1Q02    003PRSWM1
0242308230999992000010706004+51800+107430SY-MT+0510UIUU V0209999C000012200019N0200001N1-03291-03511103681ADDGF100991001001999999001001MA1102511999999MD1710141+9999MW1101REMSYN054AAXX  07061 30823 42998 00000 11329 21351 40368 57014;MET074UIUU 070600Z 00000MPS 5000 BR SKC M35/M38 Q1025 NOSIG RMK QFE724 26CLRD60;EQDQ01+000003PRSWM1Q02    003PRSWM1
0168308230999992000010707004+51800+107430FM-15+0510UIUU V0202301N001012200019N0050001N1-03401-03701999999ADDGF100991999999999999999999MA1102401999999MW1101REMMET074UIUU 070700Z 23001MPS 5000 BR SKC M34/M37 Q1024 NOSIG RMK QFE723 26450160;EQDQ01+000003PRSWM1Q02    003PRSWM1
0149308230999992000010708004+51800+107430FM-15+0510UIUU V0209999C000012200019N0070001N1-03301-03801999999ADDGF100991999999999999999999MA1102401999999MW1001REMMET071UIUU 070800Z 00000MPS 7000 SKC M33/M38 Q1024 NOSIG RMK QFE723 26450160;EQDQ01+000000PRSWM2
0223308230999992000010709004+51800+107430SY-MT+0510UIUU V0209999C000012200019N0200001N1-03101-03511103551ADDGF100991001001999999001001MA1102401999999MD1710101+9999MW1001REMSYN054AAXX  07091 30823 42998 00000 11310 21351 40355 57010;MET071UIUU 070900Z 00000MPS 7000 SKC M35/M40 Q1024 NOSIG RMK QFE723 26450160;EQDQ01+000000PRSWM2
0149308230999992000010710004+51800+107430FM-15+0510UIUU V0209999C000012200019N0112651N1-03501-03901999999ADDGF100991999999999999999999MA1102401999999MW1001REMMET071UIUU 071000Z 00000MPS 9999 SKC M35/M39 Q1024 NOSIG RMK QFE723 26450160;EQDQ01+000000PRSWM2
0149308230999992000010711004+51800+107430FM-15+0510UIUU V0209999C000012200019N0112651N1-03701-04001999999ADDGF100991999999999999999999MA1102401999999MW1001REMMET071UIUU 071100Z 00000MPS 9999 SKC M37/M40 Q1024 NOSIG RMK QFE723 26450160;EQDQ01+000000PRSWM2
0295308230999992000010712004+51800+107430SY-MT+0510UIUU V0200601N001012200019N0200001N1-03471-03771103041ADDAA106000091GF100991001001999999001001KA1999M-03291MA1102401999999MD1310021+9999MW1001REMSYN070AAXX  07121 30823 32970 00601 11347 21377 39072 40304 53002 333 11329;MET071UIUU 071200Z 06001MPS 7000 SKC M39/M42 Q1024 NOSIG RMK QFE723 26450160;EQDQ01+000000PRSWM2Q02  00002PRCP06Q03 090723APOSP 
0149308230999992000010713004+51800+107430FM-15+0510UIUU V0200601N001012200019N0070001N1-03901-04201999999ADDGF100991999999999999999999MA1102401999999MW1001REMMET071UIUU 071300Z 06001MPS 7000 SKC M39/M42 Q1024 NOSIG RMK QFE723 26450160;EQDQ01+000000PRSWM2
0149308230999992000010714004+51800+107430FM-15+0510UIUU V0202301N003012200019N0050001N1-04101-04501999999ADDGF100991999999999999999999MA1102401999999MW1001REMMET071UIUU 071400Z 23003MPS 5000 SKC M41/M45 Q1024 NOSIG RMK QFE723 26450160;EQDQ01+000000PRSWM2
0264308230999992000010715004+51800+107430SY-MT+0510UIUU V0209999C000012200019N0011001N1-03891-04171103662ADDAY101031AY201031GF100991001001999999001001MA1102301999999MD1810111+9999MW1101REMSYN060AAXX  07151 30823 41911 00000 11389 21417 40366 58011 71000;MET074UIUU 071500Z 23001MPS 5000 BR SKC M40/M43 Q1023 NOSIG RMK QFE723 26450160;EQDQ01+103663APOSLPQ02    003PRSWM1
0176308230999992000010716004+51800+107430FM-15+0510UIUU V0209999C000012200019N0025001N1-04101-04401999999ADDGF100991999999999999999999MA1102301999999MW1101REMMET082UIUU 071600Z 00000MPS 2500 BR SKC M41/M44 Q1023 TEMPO 1000 BR RMK QFE722 26450160;EQDQ01+000003PRSWM1Q02    003PRSWM1
0176308230999992000010717004+51800+107430FM-15+0510UIUU V0200401N001012200019N0015001N1-04001-04401999999ADDGF100991999999999999999999MA1102301999999MW1101REMMET082UIUU 071700Z 04001MPS 1500 BR SKC M40/M44 Q1023 TEMPO 0500 FG RMK QFE722 26450160;EQDQ01+000003PRSWM1Q02    003PRSWM1
0262308230999992000010718004+51800+107430SY-MT+0510UIUU V0200801N003012200019N0008001N1-03831-04091103631ADDAY141061AY201061GF100991001001999999001001MA1102201999999MD1710021+9999MW1101MW2481REMSYN060AAXX  07181 30823 41908 00803 11383 21409 40363 57002 74840;MET082UIUU 071800Z 07003MPS 1500 BR SKC M40/M44 Q1022 TEMPO 0500 FG RMK QFE722 26450160;EQDQ01    003PRSWM1
0176308230999992000010719004+51800+107430FM-15+0510UIUU V0209999C000012200019N0015001N1-04001-04401999999ADDGF100991999999999999999999MA1102201999999MW1101REMMET082UIUU 071900Z 00000MPS 1500 BR SKC M40/M44 Q1022 BECMG 0500 FG RMK QFE722 26450160;EQDQ01+000003PRSWM1Q02    003PRSWM1
0182308230999992000010720004+51800+107430FM-15+0510UIUU V0209999C000012200019N0012001N1-04101-04501999999ADDGF100991999999999999999999MA1102201999999MW1101REMMET088UIUU 072000Z 00000MPS 1200 R1200 BR SKC M41/M45 Q1022 BECMG 0500 FG RMK QFE722 26450160;EQDQ01+000003PRSWM1Q02    003PRSWM1
0268308230999992000010721004+51800+107430SY-MT+0510UIUU V0209999C000012200019N0009001N1-03951-04221103621ADDAY141031AY241031GF100991001001999999001001MA1102201999999MD1710041+9999MW1101MW2481REMSYN060AAXX  07211 30823 41909 00000 11395 21422 40362 57004 74844;MET088UIUU 072100Z 00000MPS 1200 R1200 BR SKC M42/M44 Q1022 BECMG 0500 FG RMK QFE722 26450160;EQDQ01    003PRSWM1
0182308230999992000010722004+51800+107430FM-15+0510UIUU V0209999C000012200019N0008001N1-04201-04401999999ADDGF100991999999999999999999MA1102201999999MW1441REMMET088UIUU 072200Z 00000MPS 0800 R1000 FG SKC M42/M44 Q1022 BECMG 0500 FG RMK QFE722 26450160;EQDQ01+000003PRSWM1Q02    003PRSWM1
0182308230999992000010723004+51800+107430FM-15+0510UIUU V0209999C000012200019N0008001N1-04301-04501999999ADDGF100991999999999999999999MA1102201999999MW1101REMMET088UIUU 072300Z 00000MPS 0800 R1000 BR SKC M43/M45 Q1022 BECMG 0500 FG RMK QFE721 26450160;EQDQ01+000003PRSWM1Q02    003PRSWM1
0295308230999992000010800004+51800+107430FM-12+0510UIUU V0200701N003012200019N0008001N1-03951-04221103561ADDAA106000091AJ100119199999999AY141061AY241061GA1001+999999999GF100991001001999999001001GJ100009IA1239KA1120N-04151MA1999999096101MD1710051+9999MW1481REMSYN116AAXX  08001 30823 31908 00703 11395 21422 39610 40356 57005 74844 333 21415 47011 55000 555 1/141 51360 53005 7000/;EQDQ01  00002PRCP06
0132308230999992000010801004+51800+107430FM-15+0510UIUU V0209999C000012200019N0008001N1+99999+99999999999ADDMA1102201999999MW1001MW2441REMMET074UIUU 080100Z 00000MPS 0800 FG NSC M41/M44 Q1022 NOSIG RMK QFE722 26450160;EQDQ01+000003PRSWM1
0132308230999992000010802004+51800+107430FM-15+0510UIUU V0202201N001012200019N0008001N1+99999+99999999999ADDMA1102301999999MW1001MW2441REMMET074UIUU 080200Z 22001MPS 0800 FG NSC M42/M45 Q1023 NOSIG RMK QFE722 26450160;EQDQ01+000003PRSWM1
0150308230999992000010803004+51800+107430FM-12+0510UIUU V0200801N002012200019N0005001N1-03961-04221103671ADDAY141031AY241031GA1001+999999999GF100991001001999999001001MD1310101+9999MW1481REMSYN060AAXX  08031 30823 41993 00802 11396 21422 40367 53010 74844;
0195308230999992000010804004+51800+107430FM-15+0510UIUU V0209999C000010600019N0015001N1-03801-04101999999ADDGA1071+060009999GF107991999999999999999999MA1102201999999MW1101REMMET085UIUU 080400Z 00000MPS 1500 BR BKN200 M38/M41 Q1022 BECMG 3000 BR RMK QFE722 26450160;EQDQ01+000003PRSWM1Q02    003PRSWM1
0187308230999992000010805004+51800+107430FM-15+0510UIUU V0209999C000010600019N0025001N1-03701-04101999999ADDGA1071+060009999GF107991999999999999999999MA1102201999999MW1101REMMET077UIUU 080500Z 00000MPS 2500 BR BKN200 M37/M41 Q1022 NOSIG RMK QFE722 26450160;EQDQ01+000003PRSWM1Q02    003PRSWM1
0279308230999992000010806004+51800+107430SY-MT+0510UIUU V0202601N002010600019N0100001N1-03521-03801103391ADDAY141061AY211061GA1071+060009999GF105991001001999999001999MA1102101999999MD1810131+9999MW1031MW2101REMSYN066AAXX  08061 30823 41997 52602 11352 21380 40339 58013 70341 8000/;MET077UIUU 080600Z 00000MPS 5000 BR BKN200 M36/M40 Q1021 NOSIG RMK QFE721 26450160;EQDQ01    003PRSWM1
0168308230999992000010807004+51800+107430FM-15+0510UIUU V0202301N001010600019N0070001N1-03501-03801999999ADDGA1071+060009999GF107991999999999999999999MA1102101999999MW1001REMMET074UIUU 080700Z 23001MPS 7000 BKN200 M35/M38 Q1021 NOSIG RMK QFE721 26450160;EQDQ01+000000PRSWM2
0168308230999992000010808004+51800+107430FM-15+0510UIUU V0202301N001010600019N0112651N1-03501-03901999999ADDGA1071+060009999GF107991999999999999999999MA1102101999999MW1001REMMET074UIUU 080800Z 23001MPS 9999 BKN200 M35/M39 Q1021 NOSIG RMK QFE721 26450160;EQDQ01+000000PRSWM2
0264308230999992000010809004+51800+107430SY-MT+0510UIUU V0202801N00101060001CN0500001N1-03431-03711103411ADDGA1071+060009999GF199999001001999999001021MA1102201999999MD1310041+9999MW1001REMSYN060AAXX  08091 30823 42999 62801 11343 21371 40341 53004 80002;MET074UIUU 080900Z 30002MPS 9999 BKN200 M36/M39 Q1022 NOSIG RMK QFE722 26450160;EQDQ01+000062SCOTCVQ02+000000PRSWM2
0123308230999992000010810004+51800+107430FM-15+0510UIUU V0202301N001012200019N0112651N1+99999+99999999999ADDMA1102201999999MW1001REMMET071UIUU 081000Z 23001MPS 9999 NSC M36/M40 Q1022 NOSIG RMK QFE722 26450160;EQDQ01+000000PRSWM2
0123308230999992000010811004+51800+107430FM-15+0510UIUU V0202501N002012200019N0112651N1+99999+99999999999ADDMA1102301999999MW1001REMMET071UIUU 081100Z 25002MPS 9999 NSC M36/M40 Q1023 NOSIG RMK QFE722 26450160;EQDQ01+000000PRSWM2
0285308230999992000010812004+51800+107430SY-MT+0510UIUU V0202601N001012200019N0200001N1-03641-03941103701ADDAA106000091GF103991001001999999001011KA1999M-03431MA1102301096321MD1210211+9999MW1001REMSYN076AAXX  08121 30823 32970 32601 11364 21394 39632 40370 52021 80001 333 11343;MET071UIUU 081200Z 31001MPS 9999 SKC M36/M40 Q1023 NOSIG RMK QFE723 26450160;EQDQ01+000000PRSWM2Q02  00002PRCP06
0149308230999992000010813004+51800+107430FM-15+0510UIUU V0209999C000012200019N0112651N1-03801-04201999999ADDGF100991999999999999999999MA1102301999999MW1001REMMET071UIUU 081300Z 00000MPS 9999 SKC M38/M42 Q1023 NOSIG RMK QFE722 26450160;EQDQ01+000000PRSWM2
0149308230999992000010814004+51800+107430FM-15+0510UIUU V0209999C000012200019N0112651N1-03801-04201999999ADDGF100991999999999999999999MA1102301999999MW1001REMMET071UIUU 081400Z 00000MPS 9999 SKC M38/M42 Q1023 NOSIG RMK QFE723 26450160;EQDQ01+000000PRSWM2
0223308230999992000010815004+51800+107430SY-MT+0510UIUU V0209999C000012200019N0200001N1-03601-03901103611ADDGF100991001001999999001001MA1102301999999MD1810071+9999MW1001REMSYN054AAXX  08151 30823 42970 00000 11360 21390 40361 58007;MET071UIUU 081500Z 00000MPS 9999 SKC M39/M42 Q1023 NOSIG RMK QFE723 26450160;EQDQ01+000000PRSWM2
0149308230999992000010816004+51800+107430FM-15+0510UIUU V0209999C000012200019N0112651N1-03901-04201999999ADDGF100991999999999999999999MA1102401999999MW1001REMMET071UIUU 081600Z 00000MPS 9999 SKC M39/M42 Q1024 NOSIG RMK QFE723 26450160;EQDQ01+000000PRSWM2
0149308230999992000010817004+51800+107430FM-15+0510UIUU V0203301N002012200019N0112651N1-04001-04301999999ADDGF100991999999999999999999MA1102401999999MW1001REMMET071UIUU 081700Z 33002MPS 9999 SKC M40/M43 Q1024 NOSIG RMK QFE723 26450160;EQDQ01+000000PRSWM2
0223308230999992000010818004+51800+107430SY-MT+0510UIUU V0209999C000012200019N0200001N1-03531-03831103581ADDGF100991001001999999001001MA1102401999999MD1710011+9999MW1001REMSYN054AAXX  08181 30823 42970 00000 11353 21383 40358 57001;MET071UIUU 081800Z 00000MPS 9999 SKC M40/M43 Q1024 NOSIG RMK QFE723 26450160;EQDQ01+000000PRSWM2
0149308230999992000010819004+51800+107430FM-15+0510UIUU V0209999C000012200019N0112651N1-04001-04301999999ADDGF100991999999999999999999MA1102401999999MW1001REMMET071UIUU 081900Z 00000MPS 9999 SKC M40/M43 Q1024 NOSIG RMK QFE723 26450160;EQDQ01+000000PRSWM2
0149308230999992000010820004+51800+107430FM-15+0510UIUU V0209999C000012200019N0112651N1-04001-04301999999ADDGF100991999999999999999999MA1102401999999MW1001REMMET071UIUU 082000Z 00000MPS 9999 SKC M40/M43 Q1024 NOSIG RMK QFE723 26450160;EQDQ01+000000PRSWM2
0223308230999992000010821004+51800+107430SY-MT+0510UIUU V0209999C000012200019N0160001N1-03831-04031103721ADDGF100991001001999999001001MA1102401999999MD1310041+9999MW1001REMSYN054AAXX  08211 30823 42966 00000 11383 21403 40372 53004;MET071UIUU 082100Z 00000MPS 9999 SKC M40/M43 Q1024 NOSIG RMK QFE723 26450160;EQDQ01+000000PRSWM2
0149308230999992000010822004+51800+107430FM-15+0510UIUU V0209999C000012200019N0112651N1-04001-04301999999ADDGF100991999999999999999999MA1102401999999MW1001REMMET071UIUU 082200Z 00000MPS 9999 SKC M40/M43 Q1024 NOSIG RMK QFE723 26450160;EQDQ01+000000PRSWM2
0176308230999992000010823004+51800+107430FM-15+0510UIUU V0209999C000012200019N0025001N1-04101-04401999999ADDGF100991999999999999999999MA1102401999999MW1101REMMET082UIUU 082300Z 00000MPS 2500 BR SKC M41/M44 Q1024 TEMPO 0500 FG RMK QFE723 26450160;EQDQ01+000003PRSWM1Q02    003PRSWM1
0347308230999992000010900004+51800+107430SY-MT+0510UIUU V0200801N002012200019N0020001N1-03841-04131103731ADDAA106000091AJ100119199999999AY101061AY201061GF100991001001999999001001IA1239KA1120N-03941MA1102401096291MD1210011+9999MW1101REMSYN088AAXX  09001 30823 31920 00802 11384 21413 39629 40373 52001 71000 333 21394 47011 55023;MET082UIUU 090000Z 07002MPS 2500 BR SKC M40/M43 Q1024 TEMPO 0500 FG RMK QFE723 26450160;EQDQ01  00002PRCP06Q02    003PRSWM1
0176308230999992000010901004+51800+107430FM-15+0510UIUU V0200601N002012200019N0008001N1-03901-04301999999ADDGF100991999999999999999999MA1102401999999MW1441REMMET082UIUU 090100Z 06002MPS 0800 FG SKC M39/M43 Q1024 BECMG 0500 FG RMK QFE723 26450160;EQDQ01+000003PRSWM1Q02    003PRSWM1
0176308230999992000010902004+51800+107430FM-15+0510UIUU V0200501N001012200019N0005001N1-03901-04301999999ADDGF100991999999999999999999MA1102511999999MW1441REMMET082UIUU 090200Z 05001MPS 0500 FG SKC M39/M43 Q1025 BECMG 2000 BR RMK QFE724 26450160;EQDQ01+000003PRSWM1Q02    003PRSWM1
0250308230999992000010903004+51800+107430SY-MT+0510UIUU V0200801N002012200019N0010001N1-03801-04091103811ADDGF100991001001999999001001MA1102401999999MD1210081+9999MW1441REMSYN054AAXX  09031 30823 41994 00802 11380 21409 40381 52008;MET082UIUU 090300Z 05001MPS 0800 FG SKC M38/M41 Q1024 BECMG 5000 BR RMK QFE723 26450160;EQDQ01+000003PRSWM1Q02    003PRSWM1
0176308230999992000010904004+51800+107430FM-15+0510UIUU V0209999C000012200019N0025001N1-03801-04101999999ADDGF100991999999999999999999MA1102401999999MW1101REMMET082UIUU 090400Z 00000MPS 2500 BR SKC M38/M41 Q1024 BECMG 5000 BR RMK QFE723 26450160;EQDQ01+000003PRSWM1Q02    003PRSWM1
0176308230999992000010905004+51800+107430FM-15+0510UIUU V0209999C000012200019N0025001N1-03501-03801999999ADDGF100991999999999999999999MA1102301999999MW1101REMMET082UIUU 090500Z 00000MPS 2500 BR SKC M35/M38 Q1023 BECMG 5000 BR RMK QFE722 26450160;EQDQ01+000003PRSWM1Q02    003PRSWM1
0132308230999992000010905304+51800+107430FM-15+0510UIUU V0209999C000012200019N0050001N1+99999+99999999999ADDMA1102201999999MW1001MW2101REMMET074UIUU 090630Z 00000MPS 5000 BR NSC M32/M37 Q1022 NOSIG RMK QFE722 26450160;EQDQ01+000003PRSWM1
0187308230999992000010907004+51800+107430FM-15+0510UIUU V0209999C000010600019N0050001N1-03201-03701999999ADDGA1071+060009999GF107991999999999999999999MA1102201999999MW1101REMMET077UIUU 090700Z 00000MPS 5000 BR BKN200 M32/M37 Q1022 NOSIG RMK QFE722 26450160;EQDQ01+000003PRSWM1Q02    003PRSWM1
0187308230999992000010908004+51800+107430FM-15+0510UIUU V0209999C000010600019N0050001N1-03101-03501999999ADDGA1071+060009999GF107991999999999999999999MA1102201999999MW1101REMMET077UIUU 090800Z 00000MPS 5000 BR BKN200 M31/M35 Q1022 NOSIG RMK QFE722 26450160;EQDQ01+000003PRSWM1Q02    003PRSWM1
0306308230999992000010909004+51800+107430SY-MT+0510UIUU V0200801N00301060001CN0100001N1-03151-03451103431ADDGA1021+030009999GA2071+060009999GF199999001001999999001011MA1102201999999MD1310041+9999MW1101REMSYN060AAXX  09091 30823 42997 50803 11315 21345 40343 53004 80001;MET084UIUU 090900Z 02002MPS 5000 BR FEW100 BKN200 M32/M35 Q1022 NOSIG RMK QFE722 26450160;EQDQ01+000052SCOTCVQ02+000003PRSWM1Q03    003PRSWM1
0132308230999992000010910004+51800+107430FM-15+0510UIUU V0203301N003012200019N0050001N1+99999+99999999999ADDMA1102201999999MW1001MW2101REMMET074UIUU 091000Z 33003MPS 5000 BR NSC M32/M36 Q1022 NOSIG RMK QFE722 26450160;EQDQ01+000003PRSWM1
0168308230999992000010911004+51800+107430FM-15+0510UIUU V0202401N004012200019N0050001N1-03301-03701999999ADDGF100991999999999999999999MA1102301999999MW1101REMMET074UIUU 091100Z 24004MPS 5000 BR SKC M33/M37 Q1023 NOSIG RMK QFE722 26450160;EQDQ01+000003PRSWM1Q02    003PRSWM1
0298308230999992000010912004+51800+107430SY-MT+0510UIUU V0209999C000012200019N0200001N1-03401-03681103721ADDAA106000091GF100991001001999999001001KA1999M-03141MA1102301096411MD1210201+9999MW1101REMSYN070AAXX  09121 30823 32970 00000 11340 21368 39641 40372 52020 333 11314;MET074UIUU 091200Z 24003MPS 5000 BR SKC M35/M39 Q1023 NOSIG RMK QFE723 26450160;EQDQ01+000003PRSWM1Q02  00002PRCP06Q03    003PRSWM1
0149308230999992000010913004+51800+107430FM-15+0510UIUU V0203101N001012200019N0112651N1-03601-03901999999ADDGF100991999999999999999999MA1102401999999MW1001REMMET071UIUU 091300Z 31001MPS 9999 SKC M36/M39 Q1024 NOSIG RMK QFE723 26450160;EQDQ01+000000PRSWM2
0229308230999992000010915004+51800+107430SY-MT+0510UIUU V0200901N001012200019N0200001N1-03411-03711103721ADDGF102991001001999999999021MA1102511999999MD1410001+9999MW1001REMSYN060AAXX  09151 30823 42970 20901 11341 21371 40372 54000 800/2;MET071UIUU 091500Z 00000MPS 9999 SKC M37/M40 Q1025 NOSIG RMK QFE724 26450160;EQDQ01+000000PRSWM2
0168308230999992000010916004+51800+107430FM-15+0510UIUU V0209999C000010600019N0112651N1-03501-03701999999ADDGA1071+060009999GF107991999999999999999999MA1102511999999MW1001REMMET074UIUU 091600Z 00000MPS 9999 BKN200 M35/M37 Q1025 NOSIG RMK QFE724 26450160;EQDQ01+000000PRSWM2
0168308230999992000010917004+51800+107430FM-15+0510UIUU V0200601N001010600019N0112651N1-03401-03601999999ADDGA1081+060009999GF108991999999999999999999MA1102611999999MW1001REMMET074UIUU 091700Z 06001MPS 9999 OVC200 M34/M36 Q1026 NOSIG RMK QFE724 26450160;EQDQ01+000000PRSWM2
0264308230999992000010918004+51800+107430SY-MT+0510UIUU V0200901N00101060001CN0140001N1-03251-03551103851ADDGA1081+060009999GF199999001001999999001011MA1102611999999MD1310161+9999MW1001REMSYN060AAXX  09181 30823 42964 50901 11325 21355 40385 53016 80001;MET074UIUU 091800Z 00000MPS 9999 OVC200 M33/M36 Q1026 NOSIG RMK QFE725 26450160;EQDQ01+000052SCOTCVQ02+000000PRSWM2
0168308230999992000010919004+51800+107430FM-15+0510UIUU V0209999C000010600019N0112651N1-03301-03601999999ADDGA1081+060009999GF108991999999999999999999MA1102711999999MW1001REMMET074UIUU 091900Z 00000MPS 9999 OVC200 M33/M36 Q1027 NOSIG RMK QFE725 26450160;EQDQ01+000000PRSWM2
0168308230999992000010920004+51800+107430FM-15+0510UIUU V0209999C000010600019N0112651N1-03301-03601999999ADDGA1081+060009999GF108991999999999999999999MA1102811999999MW1001REMMET074UIUU 092000Z 00000MPS 9999 OVC200 M33/M36 Q1028 NOSIG RMK QFE726 26450160;EQDQ01+000000PRSWM2
0280308230999992000010921004+51800+107430SY-MT+0510UIUU V0200901N001010600019N0500001N1-03301-03601104121ADDGA1071+060009999GF199999001001999999001011MA1102911999999MD1210241+9999MW1001REMSYN060AAXX  09211 30823 42699 60901 11330 21360 40412 52024 80001;MET074UIUU 092100Z 00000MPS 9999 BKN200 M33/M36 Q1029 NOSIG RMK QFE727 26450160;EQDQ01+000062SCOTCVQ02+012502SCOLCBQ03+000000PRSWM2
0149308230999992000010922004+51800+107430FM-15+0510UIUU V0209999C000012200019N0112651N1-03401-03701999999ADDGF100991999999999999999999MA1103011999999MW1001REMMET071UIUU 092200Z 00000MPS 9999 SKC M34/M37 Q1030 NOSIG RMK QFE727 26450160;EQDQ01+000000PRSWM2
0149308230999992000010923004+51800+107430FM-15+0510UIUU V0209999C000012200019N0112651N1-03401-03701999999ADDGF100991999999999999999999MA1103011999999MW1001REMMET071UIUU 092300Z 00000MPS 9999 SKC M34/M37 Q1030 NOSIG RMK QFE727 26450160;EQDQ01+000000PRSWM2
0320308230999992000011000004+51800+107430SY-MT+0510UIUU V0209999C000012200019N0140001N1-03401-03681104291ADDAA106000091AJ100119199999999GF102991001001999999001011IA1239KA1120N-03481MA1103121096941MD1210131+9999MW1001REMSYN088AAXX  10001 30823 32964 20000 11340 21368 39694 40429 52013 80001 333 21348 47011 55036;MET071UIUU 100000Z 31001MPS 9999 SKC M35/M39 Q1031 NOSIG RMK QFE728 26420160;EQDQ01+000000PRSWM2Q02  00002PRCP06
0195308230999992000011001004+51800+107430FM-15+0510UIUU V0202601N002012200019N0050001N1-03601-03901999999ADDGA1021+030009999GF104991999999999999999999MA1103181999999MW1101REMMET085UIUU 100100Z 26002MPS 5000 BR SCT100 M36/M39 Q1032 TEMPO 1500 BR RMK QFE729 26420160;EQDQ01+000003PRSWM1Q02    003PRSWM1
0187308230999992000011002004+51800+107430FM-15+0510UIUU V0209999C000010600019N0050001N1-03501-03801999999ADDGA1071+060009999GF107991999999999999999999MA1103181999999MW1101REMMET077UIUU 100200Z 00000MPS 5000 BR BKN200 M35/M38 Q1032 NOSIG RMK QFE729 26420160;EQDQ01+000003PRSWM1Q02    003PRSWM1
0248308230999992000011003004+51800+107430SY-MT+0510UIUU V0209999C000012200019N0200001N1-03161-03451104441ADDGF101991001001999999001011MA1103291999999MD1210211+9999MW1101REMSYN060AAXX  10031 30823 42998 10000 11316 21345 40444 52021 80001;MET074UIUU 100300Z 00000MPS 5000 BR NSC M33/M36 Q1033 NOSIG RMK QFE730 26420160;EQDQ01+000003PRSWM1Q02    003PRSWM1
0168308230999992000011004004+51800+107430FM-15+0510UIUU V0209999C000012200019N0050001N1-03101-03501999999ADDGF100991999999999999999999MA1103291999999MW1101REMMET074UIUU 100400Z 00000MPS 5000 BR SKC M31/M35 Q1033 NOSIG RMK QFE730 26420160;EQDQ01+000003PRSWM1Q02    003PRSWM1
0168308230999992000011005004+51800+107430FM-15+0510UIUU V0209999C000012200019N0050001N1-02801-03201999999ADDGF100991999999999999999999MA1103291999999MW1101REMMET074UIUU 100500Z 00000MPS 5000 BR SKC M28/M32 Q1033 NOSIG RMK QFE729 26420160;EQDQ01+000003PRSWM1Q02    003PRSWM1
0248308230999992000011006004+51800+107430SY-MT+0510UIUU V0202601N001012200019N0200001N1-02571-03031104271ADDGF101991001001999999001011MA1103291999999MD1210011+9999MW1101REMSYN060AAXX  10061 30823 42998 12601 11257 21303 40427 52001 80001;MET074UIUU 100600Z 00000MPS 5000 BR SKC M28/M31 Q1033 NOSIG RMK QFE729 26420160;EQDQ01+000003PRSWM1Q02    003PRSWM1
0132308230999992000011007004+51800+107430FM-15+0510UIUU V0209999C000012200019N0050001N1+99999+99999999999ADDMA1103291999999MW1001MW2101REMMET074UIUU 100700Z 00000MPS 5000 BR NSC M26/M30 Q1033 NOSIG RMK QFE730 26420160;EQDQ01+000003PRSWM1
0132308230999992000011008004+51800+107430FM-15+0510UIUU V0209999C000012200019N0050001N1+99999+99999999999ADDMA1103291999999MW1001MW2101REMMET074UIUU 100800Z 00000MPS 5000 BR NSC M26/M31 Q1033 NOSIG RMK QFE730 26420160;EQDQ01+000003PRSWM1
0267308230999992000011009004+51800+107430SY-MT+0510UIUU V0209999C000019999999N0200001N1-02691-03151104411ADDGA1021+060009999GF105991001001999999001021MA1103391999999MD1210091+9999MW1101REMSYN060AAXX  10091 30823 42998 50000 11269 21315 40441 52009 80002;MET077UIUU 100900Z 00000MPS 5000 BR SCT200 M27/M32 Q1034 NOSIG RMK QFE730 26420160;EQDQ01+000003PRSWM1Q02    003PRSWM1
0187308230999992000011010004+51800+107430FM-15+0510UIUU V0202601N002012200019N0050001N1-02801-03301999999ADDGA1021+060009999GF104991999999999999999999MA1103391999999MW1101REMMET077UIUU 101000Z 26002MPS 5000 BR SCT200 M28/M33 Q1034 NOSIG RMK QFE730 26420160;EQDQ01+000003PRSWM1Q02    003PRSWM1
0168308230999992000011011004+51800+107430FM-15+0510UIUU V0209999C000012200019N0070001N1-02901-03301999999ADDGA1021+060009999GF104991999999999999999999MA1103391999999MW1001REMMET074UIUU 101100Z 00000MPS 7000 SCT200 M29/M33 Q1034 NOSIG RMK QFE731 26420160;EQDQ01+000000PRSWM2
0285308230999992000011012004+51800+107430SY-MT+0510UIUU V0202701N001012200019N0200001N1-02901-03201104581ADDAA106000091GF103991001001999999001011KA1999M-02571MA1103491097351MD1210101+9999MW1001REMSYN076AAXX  10121 30823 32970 32701 11290 21320 39735 40458 52010 80001 333 11257;MET071UIUU 101200Z 00000MPS 7000 SKC M31/M35 Q1035 NOSIG RMK QFE731 26420160;EQDQ01+000000PRSWM2Q02  00002PRCP06
0149308230999992000011013004+51800+107430FM-15+0510UIUU V0203101N001012200019N0112651N1-03201-03501999999ADDGF100991999999999999999999MA1103491999999MW1001REMMET071UIUU 101300Z 31001MPS 9999 SKC M32/M35 Q1035 NOSIG RMK QFE731 26420160;EQDQ01+000000PRSWM2
0149308230999992000011014004+51800+107430FM-15+0510UIUU V0209999C000012200019N0112651N1-03301-03601999999ADDGF100991999999999999999999MA1103491999999MW1001REMMET071UIUU 101400Z 00000MPS 9999 SKC M33/M36 Q1035 NOSIG RMK QFE731 26420160;EQDQ01+000000PRSWM2
0223308230999992000011015004+51800+107430SY-MT+0510UIUU V0209999C000012200019N0200001N1-03031-03341104631ADDGF100991001001999999001001MA1103491999999MD1210011+9999MW1001REMSYN054AAXX  10151 30823 42970 00000 11303 21334 40463 52001;MET071UIUU 101500Z 04001MPS 9999 SKC M34/M36 Q1035 NOSIG RMK QFE731 26420160;EQDQ01+000000PRSWM2
0149308230999992000011016004+51800+107430FM-15+0510UIUU V0209999C000012200019N0112651N1-03401-03701999999ADDGF100991999999999999999999MA1103491999999MW1001REMMET071UIUU 101600Z 00000MPS 9999 SKC M34/M37 Q1035 NOSIG RMK QFE731 26420160;EQDQ01+000000PRSWM2
0149308230999992000011017004+51800+107430FM-15+0510UIUU V0209999C000012200019N0112651N1-03401-03701999999ADDGF100991999999999999999999MA1103491999999MW1001REMMET071UIUU 101700Z 00000MPS 9999 SKC M34/M37 Q1035 NOSIG RMK QFE731 26420160;EQDQ01+000000PRSWM2
0274308230999992000011018004+51800+107430SY-MT+0510UIUU V0209999C000019999999N0200001N1-03191-03501104701ADDGA1071+060009999GF199999001001999999001001MA1103491999999MD1210021+9999MW1001REMSYN054AAXX  10181 30823 42970 00000 11319 21350 40470 52002;MET074UIUU 101800Z 00000MPS 9999 BKN200 M34/M37 Q1035 NOSIG RMK QFE731 26420160;EQDQ01+000000PRSWM2Q02 060003SCOCIGQ03    003SCOTCV
0168308230999992000011019004+51800+107430FM-15+0510UIUU V0200501N002010600019N0112651N1-03401-03701999999ADDGA1071+060009999GF107991999999999999999999MA1103491999999MW1001REMMET074UIUU 101900Z 05002MPS 9999 BKN200 M34/M37 Q1035 NOSIG RMK QFE731 26420160;EQDQ01+000000PRSWM2
0168308230999992000011020004+51800+107430FM-15+0510UIUU V0200601N002010600019N0112651N1-03401-03701999999ADDGA1071+060009999GF107991999999999999999999MA1103491999999MW1001REMMET074UIUU 102000Z 06002MPS 9999 BKN200 M34/M37 Q1035 NOSIG RMK QFE731 26420160;EQDQ01+000000PRSWM2
0258308230999992000011021004+51800+107430SY-MT+0510UIUU V0200801N003012200019N0200001N1-03361-03651104721ADDGA1071+060009999GF199999001001999999001001MA1103491999999MD1810031+9999MW1001REMSYN054AAXX  10211 30823 42970 00803 11336 21365 40472 58003;MET074UIUU 102100Z 05002MPS 9999 BKN200 M34/M37 Q1035 NOSIG RMK QFE731 26420160;EQDQ01+000002SCOTCVQ02+000000PRSWM2
0168308230999992000011022004+51800+107430FM-15+0510UIUU V0200501N002010600019N0070001N1-03501-03701999999ADDGA1071+060009999GF107991999999999999999999MA1103491999999MW1001REMMET074UIUU 102200Z 05002MPS 7000 BKN200 M35/M37 Q1035 NOSIG RMK QFE731 26420160;EQDQ01+000000PRSWM2
0168308230999992000011023004+51800+107430FM-15+0510UIUU V0200401N002010600019N0070001N1-03501-03701999999ADDGA1071+060009999GF107991999999999999999999MA1103491999999MW1001REMMET074UIUU 102300Z 04002MPS 7000 BKN200 M35/M37 Q1035 NOSIG RMK QFE731 26420160;EQDQ01+000000PRSWM2
0349308230999992000011100004+51800+107430SY-MT+0510UIUU V0200801N003012200019N0200001N1-03481-03771104801ADDAA106000091AJ100119199999999GA1071+060009999GF199999001001999999001001IA1239KA1120N-03511MA1103491097381MD1310031+9999MW1001REMSYN082AAXX  11001 30823 32970 00803 11348 21377 39738 40480 53003 333 21351 47011 55063;MET074UIUU 110000Z 03002MPS 7000 BKN200 M35/M38 Q1035 NOSIG RMK QFE731 26420160;EQDQ01+000002SCOTCVQ02+000000PRSWM2Q03  00002PRCP06
0123308230999992000011101004+51800+107430FM-15+0510UIUU V0200501N002012200019N0050001N1+99999+99999999999ADDMA1103491999999MW1001REMMET071UIUU 110100Z 05002MPS 5000 NSC M36/M39 Q1035 NOSIG RMK QFE731 26420160;EQDQ01+000000PRSWM2
0132308230999992000011102004+51800+107430FM-15+0510UIUU V0209999C000012200019N0050001N1+99999+99999999999ADDMA1103491999999MW1001MW2101REMMET074UIUU 110200Z 00000MPS 5000 BR NSC M36/M39 Q1035 NOSIG RMK QFE731 26420160;EQDQ01+000003PRSWM1
0242308230999992000011103004+51800+107430SY-MT+0510UIUU V0200801N002012200019N0100001N1-03341-03621104731ADDGF100991001001999999001001MA1103491999999MD1810021+9999MW1101REMSYN054AAXX  11031 30823 42997 00802 11334 21362 40473 58002;MET074UIUU 110300Z 00000MPS 2500 BR SKC M33/M37 Q1035 NOSIG RMK QFE731 26420160;EQDQ01+000003PRSWM1Q02    003PRSWM1
0168308230999992000011104004+51800+107430FM-15+0510UIUU V0209999C000012200019N0025001N1-03101-03501999999ADDGF100991999999999999999999MA1103491999999MW1101REMMET074UIUU 110400Z 00000MPS 2500 BR SKC M31/M35 Q1035 NOSIG RMK QFE731 26420160;EQDQ01+000003PRSWM1Q02    003PRSWM1
0168308230999992000011105004+51800+107430FM-15+0510UIUU V0209999C000012200019N0050001N1-02801-03301999999ADDGF100991999999999999999999MA1103391999999MW1101REMMET074UIUU 110500Z 00000MPS 5000 BR SKC M28/M33 Q1034 NOSIG RMK QFE730 26420160;EQDQ01+000003PRSWM1Q02    003PRSWM1
0242308230999992000011106004+51800+107430SY-MT+0510UIUU V0209999C000012200019N0200001N1-02841-03151104391ADDGF100991001001999999001001MA1103291999999MD1710171+9999MW1101REMSYN054AAXX  11061 30823 42998 00000 11284 21315 40439 57017;MET074UIUU 110600Z 00000MPS 5000 BR SKC M26/M31 Q1033 NOSIG RMK QFE730 26420160;EQDQ01+000003PRSWM1Q02    003PRSWM1
0168308230999992000011107004+51800+107430FM-15+0510UIUU V0209999C000012200019N0050001N1-02701-03101999999ADDGF100991999999999999999999MA1103181999999MW1101REMMET074UIUU 110700Z 00000MPS 5000 BR SKC M27/M31 Q1032 NOSIG RMK QFE729 26420160;EQDQ01+000003PRSWM1Q02    003PRSWM1
0128308230999992000011108004+51800+107430FM-15+0510UIUU V0209999C000012200019N0050001N1+99999+99999999999ADDMA1103181999999MW1001MW2101REMMET070UIUU 110800Z 00000MPS 5000 BR M28/M33 Q1032 NOSIG RMK QFE729 26420160;EQDQ01+000003PRSWM1
0122308230999992000011109004+51800+107430FM-12+0510UIUU V0209999C000012200019N0200001N1-02771-03231104261ADDGA1001+999999999GF100991001001999999001001MD1710091+9999REMSYN054AAXX  11091 30823 42998 00000 11277 21323 40426 57009;
0168308230999992000011111004+51800+107430FM-15+0510UIUU V0209999C000012200019N0050001N1-03101-03501999999ADDGF100991999999999999999999MA1103181999999MW1101REMMET074UIUU 111100Z 00000MPS 5000 BR SKC M31/M35 Q1032 NOSIG RMK QFE729 26420160;EQDQ01+000003PRSWM1Q02    003PRSWM1
0279308230999992000011112004+51800+107430SY-MT+0510UIUU V0200801N001012200019N0160001N1-02971-03211104331ADDAA106000091GF100991001001999999001001KA1999M-02771MA1103181097111MD1310011+9999MW1001REMSYN070AAXX  11121 30823 32966 00801 11297 21321 39711 40433 53001 333 11277;MET071UIUU 111200Z 25002MPS 7000 SKC M32/M36 Q1032 NOSIG RMK QFE729 26420160;EQDQ01+000000PRSWM2Q02  00002PRCP06
0149308230999992000011113004+51800+107430FM-15+0510UIUU V0202301N002012200019N0070001N1-03201-03601999999ADDGF100991999999999999999999MA1103181999999MW1001REMMET071UIUU 111300Z 23002MPS 7000 SKC M32/M36 Q1032 NOSIG RMK QFE729 26420160;EQDQ01+000000PRSWM2
0149308230999992000011114004+51800+107430FM-15+0510UIUU V0209999C000012200019N0070001N1-03301-03601999999ADDGF100991999999999999999999MA1103181999999MW1001REMMET071UIUU 111400Z 00000MPS 7000 SKC M33/M36 Q1032 NOSIG RMK QFE729 26420160;EQDQ01+000000PRSWM2
0242308230999992000011115004+51800+107430SY-MT+0510UIUU V0200801N002012200019N0130001N1-03201-03431104371ADDGF100991001001999999001001MA1103181999999MD1810041+9999MW1101REMSYN054AAXX  11151 30823 42963 00802 11320 21343 40437 58004;MET074UIUU 111500Z 00000MPS 5000 BR SKC M34/M37 Q1032 NOSIG RMK QFE729 26420160;EQDQ01+000003PRSWM1Q02    003PRSWM1
0132308230999992000011116004+51800+107430FM-15+0510UIUU V0209999C000012200019N0050001N1+99999+99999999999ADDMA1103181999999MW1001MW2101REMMET074UIUU 111600Z 00000MPS 5000 BR NSC M33/M35 Q1032 NOSIG RMK QFE728 26420160;EQDQ01+000003PRSWM1
0187308230999992000011117004+51800+107430FM-15+0510UIUU V0202401N002010600019N0050001N1-03301-03601999999ADDGA1071+060009999GF107991999999999999999999MA1103121999999MW1101REMMET077UIUU 111700Z 24002MPS 5000 BR BKN200 M33/M36 Q1031 NOSIG RMK QFE728 26420160;EQDQ01+000003PRSWM1Q02    003PRSWM1
0277308230999992000011118004+51800+107430SY-MT+0510UIUU V0200901N003012200019N0130001N1-03271-03571104241ADDGA1071+060009999GF199999001001999999001001MA1103121999999MD1710131+9999MW1101REMSYN054AAXX  11181 30823 42963 00903 11327 21357 40424 57013;MET077UIUU 111800Z 27001MPS 5000 BR BKN200 M33/M36 Q1031 NOSIG RMK QFE728 26420160;EQDQ01+000002SCOTCVQ02+000003PRSWM1Q03    003PRSWM1
0187308230999992000011119004+51800+107430FM-15+0510UIUU V0209999C000010600019N0050001N1-03401-03701999999ADDGA1071+060009999GF107991999999999999999999MA1103121999999MW1101REMMET077UIUU 111900Z 00000MPS 5000 BR BKN200 M34/M37 Q1031 NOSIG RMK QFE728 26420160;EQDQ01+000003PRSWM1Q02    003PRSWM1
0132308230999992000011120004+51800+107430FM-15+0510UIUU V0209999C000012200019N0050001N1+99999+99999999999ADDMA1103011999999MW1001MW2101REMMET074UIUU 112000Z 00000MPS 5000 BR NSC M35/M38 Q1030 NOSIG RMK QFE728 26420160;EQDQ01+000003PRSWM1
0277308230999992000011121004+51800+107430SY-MT+0510UIUU V0200901N003012200019N0100001N1-03291-03571104191ADDGA1081+060009999GF199999001001999999001001MA1103011999999MD1710061+9999MW1101REMSYN054AAXX  11211 30823 42960 00903 11329 21357 40419 57006;MET077UIUU 112100Z 00000MPS 5000 BR OVC200 M35/M38 Q1030 NOSIG RMK QFE727 26420160;EQDQ01+000002SCOTCVQ02+000003PRSWM1Q03    003PRSWM1
0209308230999992000011123004+51800+107430FM-15+0510UIUU V0209999C000010300019N0050001N1-03301-03601999999ADDGA1081+030009999GF108991999999999999999999MA1103011999999MW1101MW2711REMMET093UIUU 112300Z 00000MPS 5000 BR -SN OVC100 M33/M36 Q1030 TEMPO 1000 BR -SN RMK QFE727 26420160;EQDQ01+000003PRSWM1Q02    003PRSWM1
0374308230999992000011200004+51800+107430SY-MT+0510UIUU V0200901N00201030001CN0100001N1-03381-03681104171ADDAA106000021AJ100119199999999GA1081+030009999GF199999001001999999001021IA1239KA1120N-03451MA1103011096831MD1710051+9999MW1101REMSYN088AAXX  12001 30823 32960 50902 11338 21368 39683 40417 57005 80002 333 21345 47011 55059;MET093UIUU 120000Z 00000MPS 5000 BR -SN OVC100 M32/M36 Q1030 TEMPO 1000 BR -SN RMK QFE727 26420160;EQDQ01+000052SCOTCVQ02+000003PRSWM1Q03    003PRSWM1
0209308230999992000011201004+51800+107430FM-15+0510UIUU V0209999C000010300019N0050001N1-03201-03601999999ADDGA1081+030009999GF108991999999999999999999MA1103011999999MW1101MW2711REMMET093UIUU 120100Z 00000MPS 5000 BR -SN OVC100 M32/M36 Q1030 TEMPO 1000 BR -SN RMK QFE727 26420160;EQDQ01+000003PRSWM1Q02    003PRSWM1
0197308230999992000011202004+51800+107430FM-15+0510UIUU V0209999C000010300019N0050001N1-03101-03501999999ADDGA1081+030009999GF108991999999999999999999MA1103011999999MW1101MW2711REMMET081UIUU 120200Z 00000MPS 5000 BR -SN OVC100 M31/M35 Q1030 NOSIG RMK QFE727 26420160;EQDQ01+000003PRSWM1Q02    003PRSWM1
0295308230999992000011203004+51800+107430SY-MT+0510UIUU V0200901N002010600019N0100001N1-03131-03361103991ADDAY171031AY221031GA1081+060009999GF108991061001999999011071MA1103011999999MD1710091+9999MW1101MW2711REMSYN066AAXX  12031 30823 41960 80902 11313 21336 40399 57009 77172 86017;MET093UIUU 120300Z 00000MPS 2500 BR -SN OVC200 M31/M34 Q1030 BECMG 1500 BR -SN RMK QFE727 26420160;EQDQ01    003PRSWM1
0197308230999992000011204004+51800+107430FM-15+0510UIUU V0209999C000010600019N0025001N1-03001-03301999999ADDGA1081+060009999GF108991999999999999999999MA1102811999999MW1101MW2711REMMET081UIUU 120400Z 00000MPS 2500 BR -SN OVC200 M30/M33 Q1028 NOSIG RMK QFE726 26420160;EQDQ01+000003PRSWM1Q02    003PRSWM1
0197308230999992000011205004+51800+107430FM-15+0510UIUU V0209999C000010600019N0025001N1-02901-03301999999ADDGA1081+060009999GF108991999999999999999999MA1102711999999MW1101MW2711REMMET081UIUU 120500Z 00000MPS 2500 BR -SN OVC200 M29/M33 Q1027 NOSIG RMK QFE725 26420160;EQDQ01+000003PRSWM1Q02    003PRSWM1
0279308230999992000011206004+51800+107430SY-MT+0510UIUU V0200901N00201060001CN0100001N1-02671-02981103611ADDAY171061AY221061GA1071+060009999GF108991061001999999011071MA1102611999999MD1710221+9999MW1101MW2711REMSYN066AAXX  12061 30823 41960 80902 11267 21298 40361 57022 77172 86017;MET077UIUU 120600Z 00000MPS 5000 BR BKN200 M28/M31 Q1026 NOSIG RMK QFE724 26420160;EQDQ01    003PRSWM1
0210308230999992000011207004+51800+107430FM-15+0510UIUU V0209999C000010600019N0050001N1-02601-03001999999ADDGA1021+030009999GA2071+060009999GF107991999999999999999999MA1102511999999MW1101REMMET084UIUU 120700Z 00000MPS 5000 BR SCT100 BKN200 M26/M30 Q1025 NOSIG RMK QFE724 26490150;EQDQ01+000003PRSWM1Q02    003PRSWM1
0210308230999992000011208004+51800+107430FM-15+0510UIUU V0209999C000010600019N0050001N1-02701-03101999999ADDGA1021+030009999GA2071+060009999GF107991999999999999999999MA1102511999999MW1101REMMET084UIUU 120800Z 00000MPS 5000 BR SCT100 BKN200 M27/M31 Q1025 NOSIG RMK QFE724 26490150;EQDQ01+000003PRSWM1Q02    003PRSWM1
0302308230999992000011209004+51800+107430SY-MT+0510UIUU V0209999C00001060001CN0100001N1-02691-03001103511ADDAY171031AY221031GA1021+030009999GA2071+060009999GF108991051001999999031021MA1102511999999MD1710101+9999MW1011MW2101REMSYN066AAXX  12091 30823 41997 80000 11269 21300 40351 57010 70172 85032;MET084UIUU 120900Z 00000MPS 5000 BR FEW100 BKN200 M28/M31 Q1025 NOSIG RMK QFE724 26490150;EQDQ01    003PRSWM1
0210308230999992000011210004+51800+107430FM-15+0510UIUU V0209999C000010600019N0050001N1-02801-03101999999ADDGA1021+030009999GA2071+060009999GF107991999999999999999999MA1102511999999MW1101REMMET084UIUU 121000Z 00000MPS 5000 BR FEW100 BKN200 M28/M31 Q1025 NOSIG RMK QFE724 26490150;EQDQ01+000003PRSWM1Q02    003PRSWM1
0168308230999992000011211004+51800+107430FM-15+0510UIUU V0209999C000010600019N0070001N1-03001-03301999999ADDGA1071+060009999GF107991999999999999999999MA1102401999999MW1001REMMET074UIUU 121100Z 00000MPS 7000 BKN200 M30/M33 Q1024 NOSIG RMK QFE724 26490150;EQDQ01+000000PRSWM2
0332308230999992000011212004+51800+107430SY-MT+0510UIUU V0209999C00001060001CN0160001N1-02911-03151103511ADDAA112000791AY171061AY221061GA1071+060009999GF108991031001999999041021KA1999M-02621MA1102401096361MD1710061+9999MW1011REMSYN088AAXX  12121 30823 11966 80000 11291 21315 39636 40351 57006 69902 70172 83042 333 11262;MET074UIUU 121200Z 00000MPS 7000 BKN200 M30/M33 Q1024 NOSIG RMK QFE723 26490150;EQDQ01+000000PRSWM2Q02    003PRSWM1
0168308230999992000011213004+51800+107430FM-15+0510UIUU V0209999C000010600019N0070001N1-03101-03401999999ADDGA1071+060009999GF107991999999999999999999MA1102401999999MW1001REMMET074UIUU 121300Z 00000MPS 7000 BKN200 M31/M34 Q1024 NOSIG RMK QFE723 26490150;EQDQ01+000000PRSWM2
0168308230999992000011214004+51800+107430FM-15+0510UIUU V0209999C000010600019N0070001N1-03201-03501999999ADDGA1071+060009999GF107991999999999999999999MA1102401999999MW1001REMMET074UIUU 121400Z 00000MPS 7000 BKN200 M32/M35 Q1024 NOSIG RMK QFE723 26490150;EQDQ01+000000PRSWM2
0248308230999992000011215004+51800+107430SY-MT+0510UIUU V0209999C00001060001CN0160001N1-03001-03231103431ADDGA1071+060009999GF108991031001999999041021MA1102301999999MD1710111+9999MW1001REMSYN060AAXX  12151 30823 42966 80000 11300 21323 40343 57011 83042;MET074UIUU 121500Z 00000MPS 7000 BKN200 M32/M35 Q1023 NOSIG RMK QFE723 26490150;EQDQ01+000000PRSWM2
0168308230999992000011216004+51800+107430FM-15+0510UIUU V0209999C000010600019N0070001N1-03301-03601999999ADDGA1081+060009999GF108991999999999999999999MA1102301999999MW1001REMMET074UIUU 121600Z 00000MPS 7000 OVC200 M33/M36 Q1023 NOSIG RMK QFE722 26490150;EQDQ01+000000PRSWM2
0168308230999992000011217004+51800+107430FM-15+0510UIUU V0209999C000010600019N0070001N1-03301-03601999999ADDGA1081+060009999GF108991999999999999999999MA1102201999999MW1001REMMET074UIUU 121700Z 00000MPS 7000 OVC200 M33/M36 Q1022 NOSIG RMK QFE722 26490150;EQDQ01+000000PRSWM2
0271308230999992000011218004+51800+107430SY-MT+0510UIUU V0209999C00001060001CN0160001N1-03071-03291103301ADDGA1021+030009999GA2071+060009999GF108991051001999999031021MA1102201999999MD1710131+9999MW1001REMSYN060AAXX  12181 30823 42966 80000 11307 21329 40330 57013 85032;MET081UIUU 121800Z 00000MPS 7000 SCT100 BKN200 M32/M35 Q1022 NOSIG RMK QFE722 26490150;EQDQ01+000000PRSWM2
0191308230999992000011220004+51800+107430FM-15+0510UIUU V0209999C000010600019N0070001N1-03201-03501999999ADDGA1021+030009999GA2071+060009999GF107991999999999999999999MA1102201999999MW1001REMMET081UIUU 122000Z 00000MPS 7000 SCT100 BKN200 M32/M35 Q1022 NOSIG RMK QFE721 26490150;EQDQ01+000000PRSWM2
0271308230999992000011221004+51800+107430SY-MT+0510UIUU V0209999C00001060001CN0160001N1-03031-03271103241ADDGA1021+030009999GA2071+060009999GF108991061001999999031021MA1102201999999MD1710061+9999MW1001REMSYN060AAXX  12211 30823 42966 80000 11303 21327 40324 57006 86032;MET081UIUU 122100Z 00000MPS 7000 SCT100 BKN200 M32/M35 Q1022 NOSIG RMK QFE721 26490150;EQDQ01+000000PRSWM2
0339308230999992000011300004+51800+107430SY-MT+0510UIUU V0209999C000010600019N0150001N1-03001-03231103181ADDAA106000091AJ100119199999999GA1071+060009999GF108991031001999999041021IA1239KA1120N-03161MA1102101096031MD1710031+9999MW1001REMSYN088AAXX  13001 30823 32965 80000 11300 21323 39603 40318 57003 83042 333 21316 47011 55011;MET074UIUU 130000Z 00000MPS 7000 BKN200 M31/M34 Q1021 NOSIG RMK QFE721 26490150;EQDQ01+000000PRSWM2Q02  00002PRCP06
0215308230999992000011301004+51800+107430FM-15+0510UIUU V0202301N001010600019N0025001N1-03101-03401999999ADDGA1021+030009999GA2071+060009999GF107991999999999999999999MA1102101999999MW1101REMMET089UIUU 130100Z 23001MPS 2500 BR SCT100 BKN200 M31/M34 Q1021 TEMPO 1000 RMK QFE721 26490150;EQDQ01+000003PRSWM1Q02    003PRSWM1
0210308230999992000011302004+51800+107430FM-15+0510UIUU V0209999C000010600019N0050001N1-03001-03401999999ADDGA1021+030009999GA2081+060009999GF108991999999999999999999MA1102101999999MW1101REMMET084UIUU 130200Z 00000MPS 5000 BR SCT100 OVC200 M30/M34 Q1021 NOSIG RMK QFE721 26490150;EQDQ01+000003PRSWM1Q02    003PRSWM1
0290308230999992000011303004+51800+107430SY-MT+0510UIUU V0209999C000010300019N0100001N1-02861-03101103211ADDGA1071+030009999GA2071+060009999GF108991051001999999031011MA1102101999999MD1310061+9999MW1101REMSYN060AAXX  13031 30823 42997 80000 11286 21310 40321 53006 85031;MET084UIUU 130300Z 00000MPS 5000 BR BKN100 BKN200 M29/M32 Q1021 NOSIG RMK QFE721 26490150;EQDQ01+000003PRSWM1Q02    003PRSWM1
0210308230999992000011304004+51800+107430FM-15+0510UIUU V0209999C000010600019N0050001N1-02701-03001999999ADDGA1021+030009999GA2071+060009999GF107991999999999999999999MA1102101999999MW1101REMMET084UIUU 130400Z 00000MPS 5000 BR SCT100 BKN200 M27/M30 Q1021 NOSIG RMK QFE721 26490150;EQDQ01+000003PRSWM1Q02    003PRSWM1
0168308230999992000011305004+51800+107430FM-15+0510UIUU V0209999C000010600019N0070001N1-02601-02901999999ADDGA1071+060009999GF107991999999999999999999MA1102001999999MW1001REMMET074UIUU 130500Z 00000MPS 7000 BKN200 M26/M29 Q1020 NOSIG RMK QFE720 26490150;EQDQ01+000000PRSWM2
0248308230999992000011306004+51800+107430SY-MT+0510UIUU V0209999C00001060001CN0200001N1-02351-02831102871ADDGA1071+060009999GF107991001001999999001011MA1101901999999MD1810171+9999MW1001REMSYN060AAXX  13061 30823 42998 70000 11235 21283 40287 58017 80001;MET074UIUU 130600Z 31001MPS 7000 BKN200 M25/M29 Q1019 NOSIG RMK QFE720 26490150;EQDQ01+000000PRSWM2
0123308230999992000011307004+51800+107430FM-15+0510UIUU V0209999C000012200019N0112651N1+99999+99999999999ADDMA1101901999999MW1001REMMET071UIUU 130700Z 00000MPS 9999 NSC M23/M28 Q1019 NOSIG RMK QFE720 26490150;EQDQ01+000000PRSWM2
0149308230999992000011308004+51800+107430FM-15+0510UIUU V0209999C000012200019N0112651N1-02301-02901999999ADDGF100991999999999999999999MA1101901999999MW1001REMMET071UIUU 130800Z 00000MPS 9999 SKC M23/M29 Q1019 NOSIG RMK QFE720 26490150;EQDQ01+000000PRSWM2
0223308230999992000011309004+51800+107430SY-MT+0510UIUU V0209999C000012200019N0200001N1-02321-02791102881ADDGF100991001001999999001001MA1101901999999MD1310031+9999MW1001REMSYN054AAXX  13091 30823 42998 00000 11232 21279 40288 53003;MET071UIUU 130900Z 23002MPS 9999 SKC M25/M31 Q1019 NOSIG RMK QFE720 26490150;EQDQ01+000000PRSWM2
0149308230999992000011311004+51800+107430FM-15+0510UIUU V0209999C000012200019N0112651N1-02901-03201999999ADDGF100991999999999999999999MA1102001999999MW1001REMMET071UIUU 131100Z 00000MPS 9999 SKC M29/M32 Q1020 NOSIG RMK QFE720 26490150;EQDQ01+000000PRSWM2
0279308230999992000011312004+51800+107430SY-MT+0510UIUU V0209999C000012200019N0130001N1-02711-02941103031ADDAA106000091GF100991001001999999001001KA1999M-02301MA1102001095971MD1210031+9999MW1001REMSYN070AAXX  13121 30823 32963 00000 11271 21294 39597 40303 52003 333 11230;MET071UIUU 131200Z 00000MPS 9999 SKC M29/M32 Q1020 NOSIG RMK QFE720 26490150;EQDQ01+000000PRSWM2Q02  00002PRCP06
0149308230999992000011313004+51800+107430FM-15+0510UIUU V0209999C000012200019N0112651N1-03001-03301999999ADDGF100991999999999999999999MA1102101999999MW1001REMMET071UIUU 131300Z 00000MPS 9999 SKC M30/M33 Q1021 NOSIG RMK QFE721 26490150;EQDQ01+000000PRSWM2
0149308230999992000011314004+51800+107430FM-15+0510UIUU V0209999C000012200019N0112651N1-03001-03301999999ADDGF100991999999999999999999MA1102101999999MW1001REMMET071UIUU 131400Z 00000MPS 9999 SKC M30/M33 Q1021 NOSIG RMK QFE721 26490150;EQDQ01+000000PRSWM2
0223308230999992000011315004+51800+107430SY-MT+0510UIUU V0200901N001012200019N0140001N1-02921-03151103151ADDGF100991001001999999001001MA1102101999999MD1210061+9999MW1001REMSYN054AAXX  13151 30823 42964 00901 11292 21315 40315 52006;MET071UIUU 131500Z 00000MPS 7000 SKC M31/M34 Q1021 NOSIG RMK QFE721 26490150;EQDQ01+000000PRSWM2
0149308230999992000011317004+51800+107430FM-15+0510UIUU V0209999C000012200019N0070001N1-03101-03401999999ADDGF100991999999999999999999MA1102101999999MW1001REMMET071UIUU 131700Z 00000MPS 7000 SKC M31/M34 Q1021 NOSIG RMK QFE721 26490150;EQDQ01+000000PRSWM2
0122308230999992000011318004+51800+107430FM-12+0510UIUU V0200801N002012200019N0160001N1-03211-03501103251ADDGA1001+999999999GF100991001001999999001001MD1410001+9999REMSYN054AAXX  13181 30823 42966 00802 11321 21350 40325 54000;
0149308230999992000011319004+51800+107430FM-15+0510UIUU V0209999C000012200019N0070001N1-03401-03601999999ADDGF100991999999999999999999MA1102101999999MW1001REMMET071UIUU 131900Z 00000MPS 7000 SKC M34/M36 Q1021 NOSIG RMK QFE721 26490150;EQDQ01+000000PRSWM2
0149308230999992000011320004+51800+107430FM-15+0510UIUU V0209999C000012200019N0070001N1-03401-03701999999ADDGF100991999999999999999999MA1102201999999MW1001REMMET071UIUU 132000Z 00000MPS 7000 SKC M34/M37 Q1022 NOSIG RMK QFE722 26490150;EQDQ01+000000PRSWM2
0227308230999992000011321004+51800+107430SY-MT+051099999V0200801N002012200019N0130001N1-03351-03651103491ADDGF100991001001999999001001MA1102201999999MD1310181+9999MW1001REMSYN058    AAXX  13211 30823 42963 00802 11335 21365 40349 53018;MET071UIUU 132100Z 00000MPS 7000 SKC M34/M37 Q1022 NOSIG RMK QFE722 26490150;EQDQ01+000000PRSWM2
0149308230999992000011322004+51800+107430FM-15+0510UIUU V0209999C000012200019N0070001N1-03401-03701999999ADDGF100991999999999999999999MA1102201999999MW1001REMMET071UIUU 132200Z 00000MPS 7000 SKC M34/M37 Q1022 NOSIG RMK QFE722 26490150;EQDQ01+000000PRSWM2
0149308230999992000011323004+51800+107430FM-15+0510UIUU V0209999C000012200019N0070001N1-03501-03801999999ADDGF100991999999999999999999MA1102401999999MW1001REMMET071UIUU 132300Z 00000MPS 7000 SKC M35/M38 Q1024 NOSIG RMK QFE723 26490150;EQDQ01+000000PRSWM2
0336308230999992000011400004+51800+107430SY-MT+051099999V0200801N001019999999N0140001N1-03421-03711103641ADDAA199000091AJ100119199999999GF105991051001999999031001IA1239KA1120N-03471MA1102401096341MD1210131+9999MW1001REMSYN092    AAXX  14001 30823 32964 50801 11342 21371 39634 40364 52013 85030 333 21347 47011 55040;MET083UIUU 140000Z 00000MPS 7000 SKC M36/M38 Q1024 BECMG 2000 BR -SN RMK QFE723 36490106;EQDQ01+000000PRSWM2Q02  00002PRCP99
0199308230999992000011401004+51800+107430FM-15+0510UIUU V0209999C000010600019N0025001N1-03401-03701999999ADDGA1071+060009999GF107991999999999999999999MA1102511999999MW1101REMMET089UIUU 140100Z 00000MPS 2500 BR BKN200 M34/M37 Q1025 TEMPO 1000 BR -SN RMK QFE724 36490106;EQDQ01+000003PRSWM1Q02    003PRSWM1
0199308230999992000011402004+51800+107430FM-15+0510UIUU V0209999C000010600019N0025001N1-03301-03601999999ADDGA1071+060009999GF107991999999999999999999MA1102511999999MW1101REMMET089UIUU 140200Z 00000MPS 2500 BR BKN200 M33/M36 Q1025 TEMPO 1000 BR -SN RMK QFE724 26490160;EQDQ01+000003PRSWM1Q02    003PRSWM1
0116308230999992000011403004+51800+107430FM-12+051099999V0209999C000019999999N0100001N1-03151-03381103701ADDGF108991051001999999071021MD1210121+9999REMSYN064    AAXX  14031 30823 42997 80000 11315 21338 40370 52012 85072;
0187308230999992000011404004+51800+107430FM-15+0510UIUU V0209999C000010600019N0025001N1-03001-03301999999ADDGA1081+060009999GF108991999999999999999999MA1102511999999MW1101REMMET077UIUU 140400Z 00000MPS 2500 BR OVC200 M30/M33 Q1025 NOSIG RMK QFE724 26490160;EQDQ01+000003PRSWM1Q02    003PRSWM1
0187308230999992000011405004+51800+107430FM-15+0510UIUU V0209999C000010600019N0050001N1-02801-03101999999ADDGA1081+060009999GF108991999999999999999999MA1102511999999MW1101REMMET077UIUU 140500Z 00000MPS 5000 BR OVC200 M28/M31 Q1025 NOSIG RMK QFE724 26490160;EQDQ01+000003PRSWM1Q02    003PRSWM1
0275308230999992000011406004+51800+107430SY-MT+051099999V0202501N00201060001CN0100001N1-02651-02971103491ADDGA1081+060009999GF108991061001999999011021MA1102511999999MD1810051+9999MW1101REMSYN064    AAXX  14061 30823 42997 82502 11265 21297 40349 58005 86012;MET081UIUU 140600Z 00000MPS 5000 BR -SN OVC200 M27/M31 Q1025 NOSIG RMK QFE724 26490160;EQDQ01+000003PRSWM1Q02    003PRSWM1
0197308230999992000011407004+51800+107430FM-15+0510UIUU V0202401N001010600019N0050001N1-02701-03101999999ADDGA1081+060009999GF108991999999999999999999MA1102511999999MW1101MW2711REMMET081UIUU 140700Z 24001MPS 5000 BR -SN OVC200 M27/M31 Q1025 NOSIG RMK QFE724 26490160;EQDQ01+000003PRSWM1Q02    003PRSWM1
0197308230999992000011408004+51800+107430FM-15+0510UIUU V0209999C000010600019N0050001N1-02701-03001999999ADDGA1081+060009999GF108991999999999999999999MA1102511999999MW1101MW2711REMMET081UIUU 140800Z 00000MPS 5000 BR -SN OVC200 M27/M30 Q1025 NOSIG RMK QFE724 26490160;EQDQ01+000003PRSWM1Q02    003PRSWM1
0271308230999992000011409004+51800+107430SY-MT+051099999V0209999C00001060001CN0200001N1-02661-02971103561ADDGA1071+060009999GF108991061001999999011021MA1102511999999MD1310061+9999MW1101REMSYN064    AAXX  14091 30823 42998 80000 11266 21297 40356 53006 86012;MET077UIUU 140900Z 00000MPS 5000 BR BKN200 M27/M30 Q1025 NOSIG RMK QFE724 26490160;EQDQ01+000003PRSWM1Q02    003PRSWM1
0187308230999992000011410004+51800+107430FM-15+0510UIUU V0203101N001010600019N0050001N1-02701-03101999999ADDGA1071+060009999GF107991999999999999999999MA1102611999999MW1101REMMET077UIUU 141000Z 31001MPS 5000 BR BKN200 M27/M31 Q1026 NOSIG RMK QFE725 26490160;EQDQ01+000003PRSWM1Q02    003PRSWM1
0187308230999992000011411004+51800+107430FM-15+0510UIUU V0209999C000010600019N0050001N1-02701-03001999999ADDGA1071+060009999GF107991999999999999999999MA1102711999999MW1101REMMET077UIUU 141100Z 00000MPS 5000 BR BKN200 M27/M30 Q1027 NOSIG RMK QFE725 26490160;EQDQ01+000003PRSWM1Q02    003PRSWM1
0292308230999992000011412004+51800+107430SY-MT+051099999V0209999C000019999999N0200001N1-02831-03061103811ADDAA199000021GF106991031001999999011021KA1999M-02641MA1102711096651MD1210181+9999MW1101REMSYN080    AAXX  14121 30823 32970 60000 11283 21306 39665 40381 52018 83012 333 11264;MET074UIUU 141200Z 00000MPS 5000 BR NSC M30/M33 Q1027 NOSIG RMK QFE725 26490160;EQDQ01+000003PRSWM1Q02    003PRSWM1
0149308230999992000011413004+51800+107430FM-15+0510UIUU V0209999C000012200019N0070001N1-03101-03401999999ADDGF100991999999999999999999MA1102711999999MW1001REMMET071UIUU 141300Z 00000MPS 7000 SKC M31/M34 Q1027 NOSIG RMK QFE726 26490160;EQDQ01+000000PRSWM2
0149308230999992000011414004+51800+107430FM-15+0510UIUU V0209999C000012200019N0070001N1-03201-03501999999ADDGF100991999999999999999999MA1102811999999MW1001REMMET071UIUU 141400Z 00000MPS 7000 SKC M32/M35 Q1028 NOSIG RMK QFE726 26490160;EQDQ01+000000PRSWM2
0233308230999992000011415004+51800+107430SY-MT+0510UIUU V0209999C000012200019N0200001N1-03031-03271103941ADDGF103991001001999999001021MA1102811999999MD1210071+9999MW1001REMSYN064    AAXX  14151 30823 42970 30000 11303 21327 40394 52007 80002;MET071UIUU 141500Z 25001MPS 7000 SKC M33/M36 Q1028 NOSIG RMK QFE726 26490160;EQDQ01+000000PRSWM2
0149308230999992000011416004+51800+107430FM-15+0510UIUU V0209999C000012200019N0112651N1-03301-03601999999ADDGF100991999999999999999999MA1102811999999MW1001REMMET071UIUU 141600Z 00000MPS 9999 SKC M33/M36 Q1028 NOSIG RMK QFE726 26490160;EQDQ01+000000PRSWM2
0149308230999992000011417004+51800+107430FM-15+0510UIUU V0209999C000012200019N0112651N1-03301-03601999999ADDGF100991999999999999999999MA1102811999999MW1001REMMET071UIUU 141700Z 00000MPS 9999 SKC M33/M36 Q1028 NOSIG RMK QFE726 26490160;EQDQ01+000000PRSWM2
0233308230999992000011418004+51800+107430SY-MT+051099999V0200701N002019999999N0160001N1-03111-03341104031ADDGF106991021001999999031021MA1102811999999MD1210061+9999MW1001REMSYN064    AAXX  14181 30823 42966 60702 11311 21334 40403 52006 82032;MET071UIUU 141800Z 00000MPS 9999 SKC M33/M36 Q1028 NOSIG RMK QFE726 26490160;EQDQ01+000000PRSWM2
0149308230999992000011419004+51800+107430FM-15+0510UIUU V0209999C000012200019N0070001N1-03401-03601999999ADDGF100991999999999999999999MA1102911999999MW1001REMMET071UIUU 141900Z 00000MPS 7000 SKC M34/M36 Q1029 NOSIG RMK QFE727 26490160;EQDQ01+000000PRSWM2
0149308230999992000011420004+51800+107430FM-15+0510UIUU V0209999C000012200019N0070001N1-03401-03701999999ADDGF100991999999999999999999MA1102911999999MW1001REMMET071UIUU 142000Z 00000MPS 7000 SKC M34/M37 Q1029 NOSIG RMK QFE727 26490160;EQDQ01+000000PRSWM2
0233308230999992000011421004+51800+107430SY-MT+051099999V0200801N002019999999N0160001N1-03221-03461104111ADDGF106991021001999999031021MA1102911999999MD1210051+9999MW1001REMSYN064    AAXX  14211 30823 42966 60802 11322 21346 40411 52005 82032;MET071UIUU 142100Z 00000MPS 7000 SKC M34/M37 Q1029 NOSIG RMK QFE727 26490160;EQDQ01+000000PRSWM2
0149308230999992000011422004+51800+107430FM-15+0510UIUU V0209999C000012200019N0070001N1-03501-03801999999ADDGF100991999999999999999999MA1102911999999MW1001REMMET071UIUU 142200Z 00000MPS 7000 SKC M35/M38 Q1029 NOSIG RMK QFE727 26490160;EQDQ01+000000PRSWM2
0149308230999992000011423004+51800+107430FM-15+0510UIUU V0209999C000012200019N0070001N1-03501-03801999999ADDGF100991999999999999999999MA1103011999999MW1001REMMET071UIUU 142300Z 00000MPS 7000 SKC M35/M38 Q1030 NOSIG RMK QFE727 26490160;EQDQ01+000000PRSWM2
0324308230999992000011500004+51800+107430SY-MT+051099999V0200801N004012200019N0200001N1-03411-03711104231ADDAA199000091AJ100119199999999GF102991001001999999001011IA1239KA1120N-03461MA1103011096881MD1210051+9999MW1001REMSYN092    AAXX  15001 30823 32970 20804 11341 21371 39688 40423 52005 80001 333 21346 47011 55014;MET071UIUU 150000Z 00000MPS 7000 SKC M35/M38 Q1030 NOSIG RMK QFE727 26490160;EQDQ01+000000PRSWM2Q02  00002PRCP99
0168308230999992000011501004+51800+107430FM-15+0510UIUU V0209999C000012200019N0050001N1-03401-03701999999ADDGF100991999999999999999999MA1103011999999MW1101REMMET074UIUU 150100Z 00000MPS 5000 BR SKC M34/M37 Q1030 NOSIG RMK QFE728 26490160;EQDQ01+000003PRSWM1Q02    003PRSWM1
0168308230999992000011502004+51800+107430FM-15+0510UIUU V0209999C000012200019N0050001N1-03401-03701999999ADDGF100991999999999999999999MA1103121999999MW1101REMMET074UIUU 150200Z 00000MPS 5000 BR SKC M34/M37 Q1031 NOSIG RMK QFE728 26490160;EQDQ01+000003PRSWM1Q02    003PRSWM1
0246308230999992000011503004+51800+107430SY-MT+051099999V0200801N002012200019N0100001N1-03231-03521104261ADDGF100991001001999999001001MA1103121999999MD1210071+9999MW1101REMSYN058    AAXX  15031 30823 42997 00802 11323 21352 40426 52007;MET074UIUU 150300Z 00000MPS 5000 BR SKC M32/M35 Q1031 NOSIG RMK QFE728 26490160;EQDQ01+000003PRSWM1Q02    003PRSWM1
0168308230999992000011504004+51800+107430FM-15+0510UIUU V0209999C000012200019N0050001N1-02901-03201999999ADDGF100991999999999999999999MA1103011999999MW1101REMMET074UIUU 150400Z 00000MPS 5000 BR SKC M29/M32 Q1030 NOSIG RMK QFE728 26490160;EQDQ01+000003PRSWM1Q02    003PRSWM1
0168308230999992000011505004+51800+107430FM-15+0510UIUU V0209999C000012200019N0050001N1-02801-03101999999ADDGF100991999999999999999999MA1103011999999MW1101REMMET074UIUU 150500Z 00000MPS 5000 BR SKC M28/M31 Q1030 NOSIG RMK QFE727 26490160;EQDQ01+000003PRSWM1Q02    003PRSWM1
0246308230999992000011506004+51800+107430SY-MT+051099999V0200901N002012200019N0200001N1-02701-03011103951ADDGF100991001001999999001001MA1102911999999MD1810121+9999MW1101REMSYN058    AAXX  15061 30823 42998 00902 11270 21301 40395 58012;MET074UIUU 150600Z 00000MPS 5000 BR SKC M28/M32 Q1029 NOSIG RMK QFE727 26490160;EQDQ01+000003PRSWM1Q02    003PRSWM1
0168308230999992000011507004+51800+107430FM-15+0510UIUU V0209999C000012200019N0050001N1-02701-03001999999ADDGF100991999999999999999999MA1102811999999MW1101REMMET074UIUU 150700Z 00000MPS 5000 BR SKC M27/M30 Q1028 NOSIG RMK QFE727 26490160;EQDQ01+000003PRSWM1Q02    003PRSWM1
0149308230999992000011508004+51800+107430FM-15+0510UIUU V0209999C000012200019N0070001N1-02601-03001999999ADDGF100991999999999999999999MA1102811999999MW1001REMMET071UIUU 150800Z 00000MPS 7000 SKC M26/M30 Q1028 NOSIG RMK QFE726 26490160;EQDQ01+000000PRSWM2
0227308230999992000011509004+51800+107430SY-MT+051099999V0209999C000012200019N0100001N1-02561-02951103781ADDGF100991001001999999001001MA1102811999999MD1710121+9999MW1001REMSYN058    AAXX  15091 30823 42997 00000 11256 21295 40378 57012;MET071UIUU 150900Z 00000MPS 7000 SKC M27/M30 Q1028 NOSIG RMK QFE726 26490160;EQDQ01+000000PRSWM2
0149308230999992000011510004+51800+107430FM-15+0510UIUU V0209999C000012200019N0070001N1-02901-03301999999ADDGF100991999999999999999999MA1102811999999MW1001REMMET071UIUU 151000Z 00000MPS 7000 SKC M29/M33 Q1028 NOSIG RMK QFE726 26490160;EQDQ01+000000PRSWM2
0296308230999992000011511004+51800+107430SY-MT+0510UIUU V0200901N002012200019N0140001N1-02921-03131999999ADDAA199000091GF100991001001999999001001KA1999M-02541MA1102811096691MD1710021+9999MW1101REMSYN068    AAXX  15111 30823 32964 00902 11292 21313 39669 57002 333 11254;MET074UIUU 151100Z 00000MPS 5000 BR SKC M30/M33 Q1028 NOSIG RMK QFE726 26490160;EQDQ01+000003PRSWM1Q02  00002PRCP99Q03    003PRSWM1
0302308230999992000011512004+51800+107430SY-MT+051099999V0200901N002012200019N0140001N1-02921-03131103841ADDAA199000091GF100991001001999999001001KA1999M-02541MA1102811096691MD1710021+9999MW1101REMSYN074    AAXX  15121 30823 32964 00902 11292 21313 39669 40384 57002 333 11254;MET074UIUU 151200Z 00000MPS 5000 BR SKC M30/M33 Q1028 NOSIG RMK QFE726 26490160;EQDQ01+000003PRSWM1Q02  00002PRCP99Q03    003PRSWM1
0168308230999992000011513004+51800+107430FM-15+0510UIUU V0209999C000012200019N0050001N1-03301-03601999999ADDGF100991999999999999999999MA1102811999999MW1101REMMET074UIUU 151300Z 00000MPS 5000 BR SKC M33/M36 Q1028 NOSIG RMK QFE726 26490160;EQDQ01+000003PRSWM1Q02    003PRSWM1
0168308230999992000011514004+51800+107430FM-15+0510UIUU V0202301N003012200019N0050001N1-03301-03601999999ADDGF100991999999999999999999MA1102811999999MW1101REMMET074UIUU 151400Z 23003MPS 5000 BR SKC M33/M36 Q1028 NOSIG RMK QFE726 26490160;EQDQ01+000003PRSWM1Q02    003PRSWM1
0246308230999992000011515004+51800+107430SY-MT+0510UIUU V0209999C000012200019N0120001N1-03101-03361103891ADDGF100991999999999999999999MA1102711999999MD1710051+9999MW1101REMSYN058    AAXX  15151 30823 42962 /0000 1131/ 21336 40389 57005;MET074UIUU 151500Z 00000MPS 5000 BR SKC M33/M35 Q1027 NOSIG RMK QFE726 26490160;EQDQ01+000003PRSWM1Q02    003PRSWM1
0168308230999992000011516004+51800+107430FM-15+0510UIUU V0202301N002012200019N0050001N1-03301-03501999999ADDGF100991999999999999999999MA1102711999999MW1101REMMET074UIUU 151600Z 23002MPS 5000 BR SKC M33/M35 Q1027 NOSIG RMK QFE725 26490160;EQDQ01+000003PRSWM1Q02    003PRSWM1
0187308230999992000011517004+51800+107430FM-15+0510UIUU V0209999C000010600019N0050001N1-03101-03401999999ADDGA1071+060009999GF107991999999999999999999MA1102711999999MW1101REMMET077UIUU 151700Z 00000MPS 5000 BR BKN200 M31/M34 Q1027 NOSIG RMK QFE725 26490160;EQDQ01+000003PRSWM1Q02    003PRSWM1
0268308230999992000011518004+51800+107430SY-MT+051099999V0209999C00001060001CN0120001N1-03001-03231103701ADDGA1071+060009999GF199999031001999999031021MA1102611999999MD1710131+9999MW1001REMSYN064    AAXX  15181 30823 42962 60000 11300 21323 40370 57013 83032;MET074UIUU 151800Z 00000MPS 7000 BKN200 M31/M34 Q1026 NOSIG RMK QFE725 26490160;EQDQ01+000062SCOTCVQ02+000000PRSWM2
0233308230999992000011521004+51800+107430SY-MT+051099999V0200801N001019999999N0100001N1-03041-03271103641ADDGF106991031001999999031021MA1102511999999MD1710071+9999MW1001REMSYN064    AAXX  15211 30823 42960 60801 11304 21327 40364 57007 83032;MET071UIUU 152100Z 00000MPS 9999 NSC M32/M35 Q1025 NOSIG RMK QFE724 26490160;EQDQ01+000000PRSWM2
0123308230999992000011522004+51800+107430FM-15+0510UIUU V0209999C000012200019N0112651N1+99999+99999999999ADDMA1102511999999MW1001REMMET071UIUU 152200Z 00000MPS 9999 NSC M32/M35 Q1025 NOSIG RMK QFE724 26490160;EQDQ01+000000PRSWM2
0123308230999992000011523004+51800+107430FM-15+0510UIUU V0200601N001012200019N0112651N1+99999+99999999999ADDMA1102401999999MW1001REMMET071UIUU 152300Z 06001MPS 9999 NSC M32/M35 Q1024 NOSIG RMK QFE724 26490160;EQDQ01+000000PRSWM2
0359308230999992000011600004+51800+107430SY-MT+051099999V0209999C00001060001CN0160001N1-03071-03291103571ADDAA199000091AJ100119199999999GA1071+060009999GF199999021001999999031021IA1239KA1120N-03181MA1102401096371MD1710071+9999MW1001REMSYN092    AAXX  16001 30823 32966 50000 11307 21329 39637 40357 57007 82032 333 21318 47011 55043;MET074UIUU 160000Z 00000MPS 9999 BKN200 M32/M35 Q1024 NOSIG RMK QFE724 26490160;EQDQ01+000052SCOTCVQ02+000000PRSWM2Q03  00002PRCP99
0168308230999992000011601004+51800+107430FM-15+0510UIUU V0209999C000010600019N0112651N1-03301-03601999999ADDGA1071+060009999GF107991999999999999999999MA1102511999999MW1001REMMET074UIUU 160100Z 00000MPS 9999 BKN200 M33/M36 Q1025 NOSIG RMK QFE724 26490160;EQDQ01+000000PRSWM2
0168308230999992000011602004+51800+107430FM-15+0510UIUU V0209999C000010600019N0070001N1-03201-03501999999ADDGA1071+060009999GF107991999999999999999999MA1102511999999MW1001REMMET074UIUU 160200Z 00000MPS 7000 BKN200 M32/M35 Q1025 NOSIG RMK QFE724 26490160;EQDQ01+000000PRSWM2
0252308230999992000011603004+51800+107430SY-MT+051099999V0200701N00201060001CN0100001N1-02891-03131103551ADDGA1081+060009999GF108991061001999999031021MA1102511999999MD1310031+9999MW1001REMSYN064    AAXX  16031 30823 42997 80702 11289 21313 40355 53003 86032;MET074UIUU 160300Z 00000MPS 7000 OVC200 M31/M34 Q1025 NOSIG RMK QFE724 26490160;EQDQ01+000000PRSWM2
0168308230999992000011604004+51800+107430FM-15+0510UIUU V0209999C000010600019N0070001N1-02801-03101999999ADDGA1081+060009999GF108991999999999999999999MA1102511999999MW1001REMMET074UIUU 160400Z 00000MPS 7000 OVC200 M28/M31 Q1025 NOSIG RMK QFE724 26490160;EQDQ01+000000PRSWM2
0168308230999992000011605004+51800+107430FM-15+0510UIUU V0209999C000010600019N0070001N1-02601-03001999999ADDGA1081+060009999GF108991999999999999999999MA1102401999999MW1001REMMET074UIUU 160500Z 00000MPS 7000 OVC200 M26/M30 Q1024 NOSIG RMK QFE723 26410160;EQDQ01+000000PRSWM2
0233308230999992000011606004+51800+107430SY-MT+0510UIUU V0202001N001012200019N0200001N1-02331-02801103201ADDGF102991001001999999001021MA1102401999999MD1810161+9999MW1001REMSYN064    AAXX  16061 30823 42998 22001 11233 21280 40320 58016 80002;MET071UIUU 160600Z 00000MPS 9999 NSC M25/M30 Q1024 NOSIG RMK QFE723 26410160;EQDQ01+000000PRSWM2
0149308230999992000011607004+51800+107430FM-15+0510UIUU V0209999C000012200019N0112651N1-02401-02801999999ADDGF100991999999999999999999MA1102401999999MW1001REMMET071UIUU 160700Z 00000MPS 9999 SKC M24/M28 Q1024 NOSIG RMK QFE723 26410160;EQDQ01+000000PRSWM2
0149308230999992000011608004+51800+107430FM-15+0510UIUU V0209999C000012200019N0112651N1-02401-02801999999ADDGF100991999999999999999999MA1102301999999MW1001REMMET071UIUU 160800Z 00000MPS 9999 SKC M24/M28 Q1023 NOSIG RMK QFE722 26410160;EQDQ01+000000PRSWM2
0233308230999992000011609004+51800+107430SY-MT+051099999V0209999C000012200019N0200001N1-02411-02891103211ADDGF102991001001999999001021MA1102301999999MD1710021+9999MW1001REMSYN064    AAXX  16091 30823 42998 20000 11241 21289 40321 57002 80002;MET071UIUU 160900Z 00000MPS 9999 SKC M25/M29 Q1023 NOSIG RMK QFE722 26410160;EQDQ01+000000PRSWM2
0149308230999992000011610004+51800+107430FM-15+0510UIUU V0209999C000012200019N0112651N1-02801-03201999999ADDGF100991999999999999999999MA1102301999999MW1001REMMET071UIUU 161000Z 00000MPS 9999 SKC M28/M32 Q1023 NOSIG RMK QFE722 26410160;EQDQ01+000000PRSWM2
0149308230999992000011611004+51800+107430FM-15+0510UIUU V0209999C000012200019N0112651N1-02901-03201999999ADDGF100991999999999999999999MA1102401999999MW1001REMMET071UIUU 161100Z 00000MPS 9999 SKC M29/M32 Q1024 NOSIG RMK QFE723 26410160;EQDQ01+000000PRSWM2
0289308230999992000011612004+51800+107430SY-MT+051099999V0209999C000012200019N0200001N1-02681-02861103321ADDAA199000091GF102991001001999999001011KA1999M-02311MA1102401096251MD1310031+9999MW1001REMSYN080    AAXX  16121 30823 32970 20000 11268 21286 39625 40332 53003 80001 333 11231;MET071UIUU 161200Z 00000MPS 9999 SKC M30/M33 Q1024 NOSIG RMK QFE723 26410160;EQDQ01+000000PRSWM2Q02  00002PRCP99
0168308230999992000011613004+51800+107430FM-15+0510UIUU V0209999C000012200019N0112651N1-03101-03401999999ADDGA1021+030009999GF104991999999999999999999MA1102401999999MW1001REMMET074UIUU 161300Z 00000MPS 9999 SCT100 M31/M34 Q1024 NOSIG RMK QFE723 26410160;EQDQ01+000000PRSWM2
0168308230999992000011614004+51800+107430FM-15+0510UIUU V0202601N002010600019N0070001N1-03001-03301999999ADDGA1071+060009999GF107991999999999999999999MA1102401999999MW1001REMMET074UIUU 161400Z 26002MPS 7000 BKN200 M30/M33 Q1024 NOSIG RMK QFE723 26410160;EQDQ01+000000PRSWM2
0268308230999992000011615004+51800+107430SY-MT+051099999V0209999C000012200019N0180001N1-03061-03291103471ADDGA1071+060009999GF199999001001999999001011MA1102401999999MD1210031+9999MW1001REMSYN064    AAXX  16151 30823 42968 20000 11306 21329 40347 52003 80001;MET074UIUU 161500Z 26002MPS 7000 BKN200 M30/M33 Q1024 NOSIG RMK QFE723 26410160;EQDQ01+000022SCOTCVQ02+000000PRSWM2
0168308230999992000011616004+51800+107430FM-15+0510UIUU V0209999C000010600019N0070001N1-03201-03501999999ADDGA1071+060009999GF107991999999999999999999MA1102401999999MW1001REMMET074UIUU 161600Z 00000MPS 7000 BKN200 M32/M35 Q1024 NOSIG RMK QFE723 26410160;EQDQ01+000000PRSWM2
0268308230999992000011618004+51800+107430SY-MT+051099999V0200801N00201060001CN0160001N1-03131-03361103491ADDGA1081+060009999GF199999001001999999001011MA1102401999999MD1810011+9999MW1001REMSYN064    AAXX  16181 30823 42966 50802 11313 21336 40349 58001 80001;MET074UIUU 161800Z 00000MPS 7000 OVC200 M31/M34 Q1024 NOSIG RMK QFE723 26410160;EQDQ01+000052SCOTCVQ02+000000PRSWM2
0192308230999992000011619004+51800+107430FM-15+0510UIUU V0209999C000010600019N0070001N1-03101-03401999999ADDGA1021+030009999GA2081+060009999GF108991999999999999999999MA1102401999999MW1001REMMET082UIUU 161900Z 00000MPS 7000 SCT100 OVC200 M31/M34 Q1024 NOSIG RMK QFE 723 26410160;EQDQ01+000000PRSWM2
