0230309350999992000010100004+50370+108750FM-12+077099999V0209999C000019999999N0100001N1-02481-02661103501ADDAA112001091AJ100119199999999AY171061AY271061GF108991999999999999999999IA1239KA1120N-02771MA1999999093191MD1210241+9999MW1711REMSYN094AAXX  01001 30935 11997 80000 11248 21266 39319 40350 52024 60012 77177 333 21277 47011 55043;
0140309350999992000010103004+50370+108750FM-12+077099999V0209999C000019999999N0100001N1-02211-02401103641ADDAY171031AY271031GF108991081001999999021999MD1210231+9999MW1711REMSYN066AAXX  01031 30935 41997 80000 11221 21240 40364 52023 77177 8802/;
0140309350999992000010106004+50370+108750FM-12+077099999V0202401N001019999999N0100001N1-01891-02221103481ADDAY171061AY271061GF108991061001999999031011MD1810031+9999MW1221REMSYN066AAXX  01061 30935 41997 82401 11189 21222 40348 58003 72277 86031;
0140309350999992000010109004+50370+108750FM-12+077099999V0202701N001019999999N0100001N1-01961-02451103641ADDAY121031AY221031GF106991031001999999031011MD1310131+9999MW1151REMSYN066AAXX  01091 30935 41997 62701 11196 21245 40364 53013 71522 83031;
0173309350999992000010112004+50370+108750FM-12+077099999V0203101N001012200019N0500001N1-02491-02811103991ADDAA112000591GF102991001001999999001011KA1999M-01861MA1999999093631MD1210111+9999REMSYN082AAXX  01121 30935 12999 23101 11249 21281 39363 40399 52011 69952 80001 333 11186;
0140309350999992000010115004+50370+108750FM-12+077099999V0203201N001019999999N0100001N1-02471-02711103921ADDAY111031AY211031GF108991061001999999031011MD1810071+9999MW1151REMSYN066AAXX  01151 30935 41997 83201 11247 21271 40392 58007 71511 86031;
0112309350999992000010118004+50370+108750FM-12+077099999V0200201N001019999999N0500001N1-02771-03011103951ADDGF105991001001999999001011MD1710091+9999REMSYN060AAXX  01181 30935 42999 50201 11277 21301 40395 57009 80001;
0112309350999992000010121004+50370+108750FM-12+077099999V0209999C000012200019N0500001N1-03311-03471104111ADDGF102991001001999999001999MD1710071+9999REMSYN060AAXX  01211 30935 42999 20000 11331 21347 40411 57007 8000/;
0257309350999992000010200004+50370+108750FM-12+077099999V0209999C000012200019N0500001N1-03671+99999104261ADDAA106000091AJ100109199999999GF101991001001999999001011GJ100009IA1239KA1120N-03731MA1999999093381MD1710021+9999REMSYN116AAXX  02001 30935 32999 10000 11367 21/91 39338 40426 57002 80001 333 21373 47010 55000 555 1/141 51235 53004 7000/;EQDQ01  00002PRCP06
0122309350999992000010203004+50370+108750FM-12+077099999V0209999C000012200019N0500001N1-03471-03701104211ADDGA1001+999999999GF100991001001999999001001MD1310041+9999REMSYN054AAXX  02031 30935 42999 00000 11347 21370 40421 53004;
0122309350999992000010206004+50370+108750FM-12+077099999V0209999C000012200019N0500001N1-03041-03271103801ADDGA1001+999999999GF100991001001999999001001MD1810191+9999REMSYN054AAXX  02061 30935 42999 00000 11304 21327 40380 58019;
0112309350999992000010209004+50370+108750FM-12+077099999V0209999C000012200019N0500001N1-03031-03411103581ADDGF102991001001999999001011MD1710191+9999REMSYN060AAXX  02091 30935 42999 20000 11303 21341 40358 57019 80001;
0196309350999992000010212004+50370+108750FM-12+077099999V0209999C000012200019N0500001N1-03501-03741103791ADDAA106000091GA1001+999999999GF100991001001999999001001KA1999M-02471MA1999999093031MD1710011+9999REMSYN070AAXX  02121 30935 32999 00000 11350 21374 39303 40379 57001 333 11247;EQDQ01  00002PRCP06
0122309350999992000010215004+50370+108750FM-12+077099999V0201801N001012200019N0500001N1-03721-03951103881ADDGA1001+999999999GF100991001001999999001001MD1710011+9999REMSYN054AAXX  02151 30935 42999 01801 11372 21395 40388 57001;
0122309350999992000010218004+50370+108750FM-12+077099999V0209999C000012200019N0500001N1-03911-04171103801ADDGA1001+999999999GF100991001001999999001001MD1710161+9999REMSYN054AAXX  02181 30935 42999 00000 11391 21417 40380 57016;
0122309350999992000010221004+50370+108750FM-12+077099999V0209999C000012200019N0500001N1-04071-04321103881ADDGA1001+999999999GF100991001001999999001001MD1410001+9999REMSYN054AAXX  02211 30935 42999 00000 11407 21432 40388 54000;
0231309350999992000010300004+50370+108750FM-12+077099999V0209999C000012200019N0500001N1-04071-04321103901ADDAA106000091AJ100119199999999GA1001+999999999GF100991001001999999001001IA1239KA1120N-04071MA1999999092881MD1310021+9999REMSYN082AAXX  03001 30935 32999 00000 11407 21432 39288 40390 53002 333 21407 47011 55060;EQDQ01  00002PRCP06
0150309350999992000010303004+50370+108750FM-12+077099999V0209999C000010003019N0005001N1-03951-04221103881ADDAY141031AY211031GA1091+999999999GF109991091999999999999999MD1210041+9999MW1471REMSYN060AAXX  03031 30935 41/93 90000 11395 21422 40388 52004 74741;
0150309350999992000010306004+50370+108750FM-12+077099999V0209999C000012200019N0500001N1-03321-03621103381ADDAY141061AY211061GA1001+999999999GF100991001001999999001001MD1810181+9999MW1011REMSYN060AAXX  03061 30935 42999 00000 11332 21362 40338 58018 70141;
0112309350999992000010309004+50370+108750FM-12+077099999V0209999C000012200019N0500001N1-03211-03571103471ADDGF102991001001999999001011MD1310121+9999REMSYN060AAXX  03091 30935 42999 20000 11321 21357 40347 53012 80001;
0186309350999992000010312004+50370+108750FM-12+077099999V0209999C000012200019N0500001N1-03581-03861103691ADDAA106000091GF101991001001999999001011KA1999M-03221MA1999999092901MD1210041+9999REMSYN076AAXX  03121 30935 32999 10000 11358 21386 39290 40369 52004 80001 333 11322;EQDQ01  00002PRCP06
0112309350999992000010315004+50370+108750FM-12+077099999V0209999C000012200019N0500001N1-03811-04091103901ADDGF102991001001999999001011MD1210101+9999REMSYN060AAXX  03151 30935 42999 20000 11381 21409 40390 52010 80001;
0112309350999992000010318004+50370+108750FM-12+077099999V0209999C000012200019N0500001N1-03861-04131104031ADDGF101991001001999999001011MD1210091+9999REMSYN060AAXX  03181 30935 42999 10000 11386 21413 40403 52009 80001;
0122309350999992000010321004+50370+108750FM-12+077099999V0209999C000012200019N0500001N1-03951-04221104221ADDGA1001+999999999GF100991001001999999001001MD1210141+9999REMSYN054AAXX  03211 30935 42999 00000 11395 21422 40422 52014;
0295309350999992000010400004+50370+108750FM-12+077099999V0209999C000012200019N0100001N1-04011-04271104451ADDAA106000091AJ100119199999999AY141061AY201061GA1001+999999999GF100991001001999999001001GJ102589IA1239KA1120N-04091MA1999999093401MD1210171+9999MW1461REMSYN116AAXX  04001 30935 31997 00000 11401 21427 39340 40445 52017 74640 333 21409 47011 55043 555 1/142 51373 53002 7000/;EQDQ01  00002PRCP06
0150309350999992000010403004+50370+108750FM-12+077099999V0209999C000010003019N0005001N1-03921-04171104531ADDAY141031AY241031GA1091+999999999GF109991091999999999999999MD1210111+9999MW1451REMSYN060AAXX  04031 30935 41/93 90000 11392 21417 40453 52011 74544;
0140309350999992000010406004+50370+108750FM-12+077099999V0209999C000012200019N0100001N1-03191-03571104181ADDAY141061AY201061GF102991001001999999001011MD1410001+9999MW1031REMSYN066AAXX  04061 30935 41997 20000 11319 21357 40418 54000 70340 80001;
0112309350999992000010409004+50370+108750FM-12+077099999V0209999C000012200019N0500001N1-03191-03571104181ADDGF103991001001999999001011MD1410001+9999REMSYN060AAXX  04091 30935 42999 30000 11319 21357 40418 54000 80001;
0196309350999992000010412004+50370+108750FM-12+077099999V0209999C000012200019N0500001N1-03631-03841104531ADDAA106000091GA1001+999999999GF100991001001999999001001KA1999M-03171MA1999999093641MD1310131+9999REMSYN070AAXX  04121 30935 32999 00000 11363 21384 39364 40453 53013 333 11317;EQDQ01  00002PRCP06
0122309350999992000010415004+50370+108750FM-12+077099999V0209999C000012200019N0500001N1-03891-04171104711ADDGA1001+999999999GF100991001001999999001001MD1210051+9999REMSYN054AAXX  04151 30935 42999 00000 11389 21417 40471 52005;
0122309350999992000010418004+50370+108750FM-12+077099999V0209999C000012200019N0500001N1-04011-04271104881ADDGA1001+999999999GF100991001001999999001001MD1210091+9999REMSYN054AAXX  04181 30935 42999 00000 11401 21427 40488 52009;
0122309350999992000010421004+50370+108750FM-12+077099999V0209999C000012200019N0500001N1-03981-04271104951ADDGA1001+999999999GF100991001001999999001001MD1210071+9999REMSYN054AAXX  04211 30935 42999 00000 11398 21427 40495 52007;
0249309350999992000010500004+50370+108750FM-12+077099999V0209999C000019999999N0100001N1-03891-04171105091ADDAA106000091AJ100119199999999AY111061AY211061GF106991001001999999001011IA1239KA1120N-04021MA1999999094031MD1210181+9999MW1401REMSYN094AAXX  05001 30935 31997 60000 11389 21417 39403 40509 52018 74011 80001 333 21402 47011 55039;EQDQ01  00002PRCP06
0140309350999992000010503004+50370+108750FM-12+077099999V0209999C000019999999N0100001N1-03641-03941105021ADDAY141031AY221031GF108991001001999999001061MD1210041+9999MW1281REMSYN066AAXX  05031 30935 41997 80000 11364 21394 40502 52004 72842 80006;
0140309350999992000010506004+50370+108750FM-12+077099999V0209999C000019999999N0100001N1-03231-03461104691ADDAY171061AY241061GF108991081001999999021999MD1810121+9999MW1711REMSYN066AAXX  05061 30935 41997 80000 11323 21346 40469 58012 77174 8802/;
0140309350999992000010509004+50370+108750FM-12+077099999V0209999C000019999999N0100001N1-03041-03271104671ADDAY171031AY271031GF108991081001999999021999MD1310061+9999MW1711REMSYN066AAXX  05091 30935 41997 80000 11304 21327 40467 53006 77177 8802/;
0201309350999992000010512004+50370+108750FM-12+077099999V0209999C000019999999N0100001N1-03081-03321104711ADDAA112000191AY171061AY221061GF108991081001999999021999KA1999M-03001MA1999999094031MD1210021+9999MW1151REMSYN088AAXX  05121 30935 11997 80000 11308 21332 39403 40471 52002 69922 71572 8802/ 333 11300;
0112309350999992000010515004+50370+108750FM-12+077099999V0203001N001019999999N0500001N1-02781-03031104531ADDGF106991001001999999001011MD1810041+9999REMSYN060AAXX  05151 30935 42999 63001 11278 21303 40453 58004 80001;
0112309350999992000010518004+50370+108750FM-12+077099999V0209999C000019999999N0500001N1-02911-03751104561ADDGF105991001001999999001011MD1710031+9999REMSYN060AAXX  05181 30935 42999 50000 11291 21375 40456 57003 80001;
0112309350999992000010521004+50370+108750FM-12+077099999V0209999C000012200019N0500001N1-03041-03271104611ADDGF102991001001999999001011MD1710011+9999REMSYN060AAXX  05211 30935 42999 20000 11304 21327 40461 57001 80001;
0112309350999992000010603004+50370+108750FM-12+077099999V0202701N001012200019N0500001N1-03021-03251104561ADDGF101991999001999999001011MD1410001+9999REMSYN060AAXX  06031 30935 42999 12701 11302 21325 40456 54000 8/001;
0112309350999992000010606004+50370+108750FM-12+077099999V0202301N002012200019N0500001N1-02541-02921104131ADDGF102991001001999999001011MD1810181+9999REMSYN060AAXX  06061 30935 42999 22302 11254 21292 40413 58018 80001;
0140309350999992000010609004+50370+108750FM-12+077099999V0202901N001019999999N0100001N1-02591-02911104131ADDAY111031AY211031GF108991081001999999021999MD1710031+9999MW1151REMSYN066AAXX  06091 30935 41997 82901 11259 21291 40413 57003 71511 8802/;
0186309350999992000010612004+50370+108750FM-12+077099999V0202901N002012200019N0500001N1-03121-03421104421ADDAA106000091GF102991001001999999001011KA1999M-02511MA1999999093751MD1310041+9999REMSYN076AAXX  06121 30935 32999 22902 11312 21342 39375 40442 53004 80001 333 11251;EQDQ01  00002PRCP06
0122309350999992000010615004+50370+108750FM-12+077099999V0209999C000012200019N0500001N1-03511-03741104491ADDGA1001+999999999GF100991001001999999001001MD1810101+9999REMSYN054AAXX  06151 30935 42999 00000 11351 21374 40449 58010;
0122309350999992000010618004+50370+108750FM-12+077099999V0209999C000012200019N0500001N1-04001-04211104661ADDGA1001+999999999GF100991001001999999001001MD1710061+9999REMSYN054AAXX  06181 30935 42999 00000 11400 21421 40466 57006;
0122309350999992000010621004+50370+108750FM-12+077099999V0209999C000012200019N0500001N1-04011-04261104541ADDGA1001+999999999GF100991001001999999001001MD1710141+9999REMSYN054AAXX  06211 30935 42999 00000 11401 21426 40454 57014;
0180309350999992000010700004+50370+108750FM-12+077099999V0209999C000012200019N0100001N1-04211-04401999999ADDAA106000091AY101061AY201061GA1001+999999999GF100991001001999999001001MD1710041+9999MW1401REMSYN060AAXX  07001 30935 31997 00000 11421 2144/ 39/// 57004 74000;EQDQ01  00002PRCP06
0150309350999992000010703004+50370+108750FM-12+077099999V0209999C000010003019N0005001N1-04171-04431104531ADDAY141031AY201031GA1091+999999999GF109991091999999999999999MD1710011+9999MW1471REMSYN060AAXX  07031 30935 41/93 90000 11417 21443 40453 57001 74740;
0150309350999992000010706004+50370+108750FM-12+077099999V0200301N001012200019N0500001N1-03431-03711103941ADDAY141061AY201061GA1001+999999999GF100991001001999999001001MD1719999+9999MW1011REMSYN060AAXX  07061 30935 41999 00301 11343 21371 40394 57/20 70140;
0122309350999992000010709004+50370+108750FM-12+077099999V0200601N001012200019N0500001N1-03491-03771103871ADDGA1001+999999999GF100991001001999999001001MD1710091+9999REMSYN054AAXX  07091 30935 42999 00601 11349 21377 40387 57009;
0196309350999992000010712004+50370+108750FM-12+077099999V0200501N001012200019N0500001N1-03931-04221104051ADDAA106000091GA1001+999999999GF100991001001999999001001KA1999M-03401MA1999999093081MD1710031+9999REMSYN070AAXX  07121 30935 32999 00501 11393 21422 39308 40405 57003 333 11340;EQDQ01  00002PRCP06
0122309350999992000010715004+50370+108750FM-12+077099999V0209999C000012200019N0500001N1-04161-04431104091ADDGA1001+999999999GF100991001001999999001001MD1710071+9999REMSYN054AAXX  07151 30935 42999 00000 11416 21443 40409 57007;
0122309350999992000010718004+50370+108750FM-12+077099999V0209999C000012200019N0500001N1-04331-04611104191ADDGA1001+999999999GF100991001001999999001001MD1310021+9999REMSYN054AAXX  07181 30935 42999 00000 11433 21461 40419 53002;
0122309350999992000010721004+50370+108750FM-12+077099999V0209999C000012200019N0500001N1-04501-04761104231ADDGA1001+999999999GF100991001001999999001001MD1810051+9999REMSYN054AAXX  07211 30935 42999 00000 11450 21476 40423 58005;
0295309350999992000010800004+50370+108750FM-12+077099999V0209999C000012200019N0100001N1-04491-04761104241ADDAA106000091AJ100119199999999AY101061AY201061GA1001+999999999GF100991001001999999001001GJ102289IA1239KA1120N-04591MA1999999093001MD1310021+9999MW1401REMSYN116AAXX  08001 30935 31997 00000 11449 21476 39300 40424 53002 74000 333 21459 47011 55038 555 1/1// 51385 53003 7000/;EQDQ01  00002PRCP06
0150309350999992000010803004+50370+108750FM-12+077099999V0209999C000010003019N0005001N1-04111-04381104031ADDAY141031AY201031GA1091+999999999GF109991091999999999999999MD1810021+9999MW1471REMSYN060AAXX  08031 30935 41/93 90000 11411 21438 40403 58002 74740;
0140309350999992000010806004+50370+108750FM-12+077099999V0209999C000012200019N0500001N1-03551-03831999999ADDAY141061AY201061GF102991001001999999001011MD1210061+9999MW1031REMSYN066AAXX  08061 30935 41999 20000 11355 21383 40//9 52006 70340 80001;
0112309350999992000010809004+50370+108750FM-12+077099999V0209999C000019999999N0500001N1-03451-03811103641ADDGF106991001001999999001011MD1410001+9999REMSYN060AAXX  08091 30935 42999 60000 11345 21381 40364 54000 80001;
0186309350999992000010812004+50370+108750FM-12+077099999V0209999C000012200019N0500001N1-03881-04171103871ADDAA106000091GF102991001001999999001011KA1999M-03351MA1999999092941MD1310021+9999REMSYN076AAXX  08121 30935 32999 20000 11388 21417 39294 40387 53002 80001 333 11335;EQDQ01  00002PRCP06
0112309350999992000010815004+50370+108750FM-12+077099999V0203001N002012200019N0500001N1-03961-04221103991ADDGF103991001001999999001011MD1210071+9999REMSYN060AAXX  08151 30935 42999 33002 11396 21422 40399 52007 80001;
0122309350999992000010818004+50370+108750FM-12+077099999V0209999C000012200019N0500001N1-04181-04431104171ADDGA1001+999999999GF100991001001999999001001MD1210061+9999REMSYN054AAXX  08181 30935 42999 00000 11418 21443 40417 52006;
0122309350999992000010821004+50370+108750FM-12+077099999V0209999C000012200019N0500001N1-04221-04481104351ADDGA1001+999999999GF100991001001999999001001MD1210151+9999REMSYN054AAXX  08211 30935 42999 00000 11422 21448 40435 52015;
0247309350999992000010900004+50370+108750FM-12+077099999V0209999C000012200019N0500001N1-04331-04611104481ADDAA106000091AJ100119199999999GA1001+999999999GF100991001001999999001001IA1239KA1120N+99999MA1999999093281MD1210061+9999REMSYN082AAXX  09001 30935 32999 00000 11433 21461 39328 40448 52006 333 21338 47011 55024;EQDQ01  00002PRCP06Q02 -03382ATMN  
0150309350999992000010903004+50370+108750FM-12+077099999V0209999C000010003019N0005001N1-04151-04431104421ADDAY141031AY201031GA1091+999999999GF109991091999999999999999MD1210031+9999MW1471REMSYN060AAXX  09031 30935 41/93 90000 11415 21443 40442 52003 74740;
0112309350999992000010909004+50370+108750FM-12+077099999V0201801N001019999999N0500001N1-03441-03741103831ADDGF105991001001999999001011MD1710091+9999REMSYN060AAXX  09091 30935 42999 51801 11344 21374 40383 57009 80001;
0186309350999992000010912004+50370+108750FM-12+077099999V0209999C000012200019N0500001N1-03531-03831103871ADDAA106000091GF102991001001999999001011KA1999M-03401MA1999999093091MD1410001+9999REMSYN076AAXX  09121 30935 32999 20000 11353 21383 39309 40387 54000 80001 333 11340;EQDQ01  00002PRCP06
0080309350999992000010915004+50370+108750FM-12+077099999V0209999C000019999999N0000001N1-03731-04011103991ADDMD1310021+9999REMSYN054AAXX  09151 30935 42990 /0000 11373 21401 40399 53002;
0122309350999992000010918004+50370+108750FM-12+077099999V0209999C000012200019N0500001N1-03621-03841104081ADDGA1001+999999999GF100991001001999999001001MD1210131+9999REMSYN054AAXX  09181 30935 42999 00000 11362 21384 40408 52013;
0122309350999992000010921004+50370+108750FM-12+077099999V0209999C000012200019N0500001N1-03511-03741104351ADDGA1001+999999999GF100991001001999999001001MD1210291+9999REMSYN054AAXX  09211 30935 42999 00000 11351 21374 40435 52029;
0221309350999992000011000004+50370+108750FM-12+077099999V0209999C000019999999N0500001N1-03681-03971104651ADDAA106000091AJ100119199999999GF105991001001999999001011IA1239KA1120N-03691MA1999999093721MD1210191+9999REMSYN088AAXX  10001 30935 32999 50000 11368 21397 39372 40465 52019 80001 333 21369 47011 55031;EQDQ01  00002PRCP06
0112309350999992000011003004+50370+108750FM-12+077099999V0209999C000012200019N0500001N1-03491-03701104861ADDGF102991001001999999001011MD1210271+9999REMSYN060AAXX  10031 30935 42999 20000 11349 21370 40486 52027 80001;
0112309350999992000011006004+50370+108750FM-12+077099999V0200301N001012200019N0500001N1-03061-03431104671ADDGF102991001001999999001011MD1210011+9999REMSYN060AAXX  10061 30935 42999 20301 11306 21343 40467 52001 80001;
0112309350999992000011009004+50370+108750FM-12+077099999V0200401N001012200019N0500001N1-02921-03291104731ADDGF102991001001999999001011MD1210111+9999REMSYN060AAXX  10091 30935 42999 20401 11292 21329 40473 52011 80001;
0196309350999992000011012004+50370+108750FM-12+077099999V0203201N001012200019N0500001N1-03321-03621104931ADDAA106000091GA1001+999999999GF100991001001999999001001KA1999M-02851MA1999999094131MD1210021+9999REMSYN070AAXX  10121 30935 32999 03201 11332 21362 39413 40493 52002 333 11285;EQDQ01  00002PRCP06
0122309350999992000011015004+50370+108750FM-12+077099999V0209999C000012200019N0500001N1-03451-03671105031ADDGA1001+999999999GF100991001001999999001001MD1210031+9999REMSYN054AAXX  10151 30935 42999 00000 11345 21367 40503 52003;
0122309350999992000011018004+50370+108750FM-12+077099999V0209999C000012200019N0500001N1-03521-03741105091ADDGA1001+999999999GF100991001001999999001001MD1210021+9999REMSYN054AAXX  10181 30935 42999 00000 11352 21374 40509 52002;
0122309350999992000011021004+50370+108750FM-12+077099999V0209999C000012200019N0500001N1-03721-03951105191ADDGA1001+999999999GF100991001001999999001001MD1210011+9999REMSYN054AAXX  10211 30935 42999 00000 11372 21395 40519 52001;
0231309350999992000011100004+50370+108750FM-12+077099999V0209999C000012200019N0500001N1-03711-03951105191ADDAA106000091AJ100119199999999GA1001+999999999GF100991001001999999001001IA1239KA1120N-03721MA1999999094201MD1210011+9999REMSYN082AAXX  11001 30935 32999 00000 11371 21395 39420 40519 52001 333 21372 47011 55060;EQDQ01  00002PRCP06
0150309350999992000011103004+50370+108750FM-12+077099999V0209999C000012200019N0500001N1-03591-03801105141ADDAY101031AY201031GA1001+999999999GF100991001001999999001001MD1410001+9999MW1401REMSYN060AAXX  11031 30935 41999 00000 11359 21380 40514 54000 74000;
0122309350999992000011106004+50370+108750FM-12+077099999V0200801N001012200019N0500001N1-02931-03241104591ADDGA1001+999999999GF100991001001999999001001MD1810221+9999REMSYN054AAXX  11061 30935 42999 00801 11293 21324 40459 58022;
0122309350999992000011109004+50370+108750FM-12+077099999V0209999C000012200019N0500001N1-02731-03121104371ADDGA1001+999999999GF100991001001999999001001MD1710111+9999REMSYN054AAXX  11091 30935 42999 00000 11273 21312 40437 57011;
0196309350999992000011112004+50370+108750FM-12+077099999V0209999C000012200019N0500001N1-03241-03481104711ADDAA106000091GA1001+999999999GF100991001001999999001001KA1999M-02701MA1999999093961MD1310081+9999REMSYN070AAXX  11121 30935 32999 00000 11324 21348 39396 40471 53008 333 11270;EQDQ01  00002PRCP06
0122309350999992000011115004+50370+108750FM-12+077099999V0203201N001012200019N0500001N1-03431-03641104751ADDGA1001+999999999GF100991001001999999001001MD1810031+9999REMSYN054AAXX  11151 30935 42999 03201 11343 21364 40475 58003;
0122309350999992000011118004+50370+108750FM-12+077099999V0209999C000012200019N0500001N1-03611-03841104771ADDGA1001+999999999GF100991001001999999001001MD1710071+9999REMSYN054AAXX  11181 30935 42999 00000 11361 21384 40477 57007;
0122309350999992000011121004+50370+108750FM-12+077099999V0209999C000012200019N0500001N1-03701-03911104791ADDGA1001+999999999GF100991001001999999001001MD1710021+9999REMSYN054AAXX  11211 30935 42999 00000 11370 21391 40479 57002;
0231309350999992000011200004+50370+108750FM-12+077099999V0209999C000012200019N0500001N1-03791-04031104701ADDAA106000091AJ100119199999999GA1001+999999999GF100991001001999999001001IA1239KA1120N-03801MA1999999093721MD1710121+9999REMSYN082AAXX  12001 30935 32999 00000 11379 21403 39372 40470 57012 333 21380 47011 55062;EQDQ01  00002PRCP06
0122309350999992000011203004+50370+108750FM-12+077099999V0209999C000012200019N0500001N1-03561-03831104561ADDGA1001+999999999GF100991001001999999001001MD1710031+9999REMSYN054AAXX  12031 30935 42999 00000 11356 21383 40456 57003;
0112309350999992000011206004+50370+108750FM-12+077099999V0201401N001012200019N0500001N1-02741-03121103901ADDGF101991001001999999001011MD1710251+9999REMSYN060AAXX  12061 30935 42999 11401 11274 21312 40390 57025 80001;
0112309350999992000011209004+50370+108750FM-12+077099999V0209999C000012200019N0500001N1-02741-03121103771ADDGF102991001001999999001011MD1710121+9999REMSYN060AAXX  12091 30935 42999 20000 11274 21312 40377 57012 80001;
0196309350999992000011212004+50370+108750FM-12+077099999V0209999C000012200019N0500001N1-03181-03411103811ADDAA106000091GA1001+999999999GF100991001001999999001001KA1999M-02601MA1999999093181MD1710141+9999REMSYN070AAXX  12121 30935 32999 00000 11318 21341 39318 40381 57014 333 11260;EQDQ01  00002PRCP06
0112309350999992000011215004+50370+108750FM-12+077099999V0209999C000012200019N0500001N1-03211-03431103701ADDGF102991001001999999001011MD1710111+9999REMSYN060AAXX  12151 30935 42999 20000 11321 21343 40370 57011 80001;
0112309350999992000011218004+50370+108750FM-12+077099999V0209999C000012200019N0500001N1-03241-03481103571ADDGF102991001001999999001011MD1710131+9999REMSYN060AAXX  12181 30935 42999 20000 11324 21348 40357 57013 80001;
0112309350999992000011221004+50370+108750FM-12+077099999V0209999C000012200019N0500001N1-03401-03611103591ADDGF103991001001999999001011MD1710051+9999REMSYN060AAXX  12211 30935 42999 30000 11340 21361 40359 57005 80001;
0112309350999992000011303004+50370+108750FM-12+077099999V0209999C000019999999N0500001N1-03191-03431103481ADDGF106991001001999999001051MD1410001+9999REMSYN060AAXX  13031 30935 42999 60000 11319 21343 40348 54000 80005;
0112309350999992000011306004+50370+108750FM-12+077099999V0209999C000019999999N0500001N1-02711-02941103171ADDGF105991001001999999001011MD1810081+9999REMSYN060AAXX  13061 30935 42999 50000 11271 21294 40317 58008 80001;
0112309350999992000011309004+50370+108750FM-12+077099999V0209999C000012200019N0500001N1-02661-02971103121ADDGF103991001001999999001011MD1710031+9999REMSYN060AAXX  13091 30935 42999 30000 11266 21297 40312 57003 80001;
0186309350999992000011312004+50370+108750FM-12+077099999V0209999C000012200019N0500001N1-03061-03291103321ADDAA106000091GF103991001001999999001011KA1999M-02581MA1999999092791MD1310021+9999REMSYN076AAXX  13121 30935 32999 30000 11306 21329 39279 40332 53002 80001 333 11258;EQDQ01  00002PRCP06
0122309350999992000011315004+50370+108750FM-12+077099999V0200601N001012200019N0500001N1-03271-03431103461ADDGA1001+999999999GF100991001001999999001001MD1210051+9999REMSYN054AAXX  13151 30935 42999 00601 11327 21343 40346 52005;
0122309350999992000011318004+50370+108750FM-12+077099999V0209999C000012200019N0500001N1-03541-03771103771ADDGA1001+999999999GF100991001001999999001001MD1210151+9999REMSYN054AAXX  13181 30935 42999 00000 11354 21377 40377 52015;
0126309350999992000011321004+50370+108750FM-12+077099999V0209999C000012200019N0500001N1-03591-03801103841ADDGA1001+999999999GF100991001001999999001001MD1210051+9999REMSYN058    AAXX  13211 30935 42999 00000 11359 21380 40384 52005;
0235309350999992000011400004+50370+108750FM-12+077099999V0209999C000012200019N0500001N1-03741-03951103981ADDAA199000091AJ100119199999999GA1001+999999999GF100991001001999999001001IA1239KA1120N-03741MA1999999093091MD1210051+9999REMSYN086    AAXX  14001 30935 32999 00000 11374 21395 39309 40398 52005 333 21374 47011 55036;EQDQ01  00002PRCP99
0116309350999992000011403004+50370+108750FM-12+077099999V0209999C000019999999N0500001N1-03351-03591103941ADDGF108991031001999999041051MD1210141+9999REMSYN064    AAXX  14031 30935 42999 80000 11335 21359 40394 52014 83045;
0116309350999992000011406004+50370+108750FM-12+077099999V0209999C000019999999N0500001N1-02661-02901103591ADDGF108991041001999999041051MD1810031+9999REMSYN064    AAXX  14061 30935 42999 80000 11266 21290 40359 58003 84045;
0116309350999992000011409004+50370+108750FM-12+077099999V0209999C000019999999N0500001N1-02621-02941103601ADDGF108991041001999999041011MD1310031+9999REMSYN064    AAXX  14091 30935 42999 80000 11262 21294 40360 53003 84041;
0190309350999992000011412004+50370+108750FM-12+077099999V0209999C000019999999N0500001N1-03071-03251103921ADDAA199000091GF108991001001999999001051KA1999M-02601MA1999999093341MD1210111+9999REMSYN080    AAXX  14121 30935 32999 80000 11307 21325 39334 40392 52011 80005 333 11260;EQDQ01  00002PRCP99
0116309350999992000011415004+50370+108750FM-12+077099999V0201201N001012200019N0500001N1-03241-03481104281ADDGF102991001001999999001011MD1210231+9999REMSYN064    AAXX  14151 30935 42999 21201 11324 21348 40428 52023 80001;
0126309350999992000011418004+50370+108750FM-12+077099999V0200301N001012200019N0500001N1-03401-03611104421ADDGA1001+999999999GF100991001001999999001001MD1210071+9999REMSYN058    AAXX  14181 30935 42999 00301 11340 21361 40442 52007;
0116309350999992000011421004+50370+108750FM-12+077099999V0209999C000012200019N0500001N1-03431-03641104531ADDGF102991001001999999001011MD1210091+9999REMSYN064    AAXX  14211 30935 42999 20000 11343 21364 40453 52009 80001;
0225309350999992000011500004+50370+108750FM-12+077099999V0209999C000012200019N0500001N1-03321-03561104581ADDAA199000091AJ100119199999999GF103991021001999999031011IA1239KA1120N-03551MA1999999093811MD1210081+9999REMSYN092    AAXX  15001 30935 32999 30000 11332 21356 39381 40458 52008 82031 333 21355 47011 55012;EQDQ01  00002PRCP99
0126309350999992000011503004+50370+108750FM-12+077099999V0209999C000012200019N0500001N1-03051-03271104551ADDGA1001+999999999GF100991001001999999001001MD1210091+9999REMSYN058    AAXX  15031 30935 42999 00000 11305 21327 40455 52009;
0116309350999992000011506004+50370+108750FM-12+077099999V0200601N001012200019N0500001N1-02631-03011104071ADDGF103991001001999999001011MD1810261+9999REMSYN064    AAXX  15061 30935 42999 30601 11263 21301 40407 58026 80001;
0116309350999992000011509004+50370+108750FM-12+077099999V0209999C000012200019N0500001N1-02521-02991103921ADDGF103991001001999999001011MD1710091+9999REMSYN064    AAXX  15091 30935 42999 30000 11252 21299 40392 57009 80001;
0135309350999992000011511004+50370+108750FM-12+077099999V0209999C000012200019N0500001N1-03221-03461104221ADDGF102991999999999999999999MA1999999093501MD1710021+9999REMSYN068    AAXX  15111 30935 /2999 20000 11322 21346 3935/ 40422 57002 333;
0206309350999992000011512004+50370+108750FM-12+077099999V0209999C000012200019N0500001N1-03221-03461104221ADDAA199000091GF102991001001999999001011KA1999M+99999MA1999999093531MD1710021+9999REMSYN080    AAXX  15121 30935 32999 20000 11322 21346 39353 40422 57002 80001 333 10244;EQDQ01  00002PRCP99Q02 +02442ATMX  
0126309350999992000011515004+50370+108750FM-12+077099999V0209999C000012200019N0500001N1-03361-03591104361ADDGA1001+999999999GF100991001001999999001001MD1310071+9999REMSYN058    AAXX  15151 30935 42999 00000 11336 21359 40436 53007;
0116309350999992000011518004+50370+108750FM-12+077099999V0209999C000012200019N0500001N1-03461-03671104381ADDGF102991001001999999001011MD1810031+9999REMSYN064    AAXX  15181 30935 42999 20000 11346 21367 40438 58003 80001;
0116309350999992000011521004+50370+108750FM-12+077099999V0209999C000012200019N0500001N1-03621-03841104321ADDGF101991001001999999001011MD1710121+9999REMSYN064    AAXX  15211 30935 42999 10000 11362 21384 40432 57012 80001;
0225309350999992000011600004+50370+108750FM-12+077099999V0209999C000012200019N0500001N1-03731-03951104191ADDAA199000091AJ100119199999999GF102991001001999999001011IA1239KA1120N-03751MA1999999093291MD1710161+9999REMSYN092    AAXX  16001 30935 32999 20000 11373 21395 39329 40419 57016 80001 333 21375 47011 55068;EQDQ01  00002PRCP99
0116309350999992000011603004+50370+108750FM-12+077099999V0209999C000019999999N0500001N1-03271-03511103961ADDGF105991001001999999001011MD1710011+9999REMSYN064    AAXX  16031 30935 42999 50000 11327 21351 40396 57001 80001;
0116309350999992000011606004+50370+108750FM-12+077099999V0200701N001019999999N0500001N1-02601-02911103471ADDGF106991001001999999001011MD1710161+9999REMSYN064    AAXX  16061 30935 42999 60701 11260 21291 40347 57016 80001;
0126309350999992000011609004+50370+108750FM-12+077099999V0209999C000012200019N0500001N1-02451-02851103281ADDGA1001+999999999GF100991001001999999001001MD1710121+9999REMSYN058    AAXX  16091 30935 42999 00000 11245 21285 40328 57012;
0200309350999992000011612004+50370+108750FM-12+077099999V0209999C000012200019N0500001N1-03111-03341103641ADDAA199000091GA1001+999999999GF100991001001999999001001KA1999M-02421MA1999999093051MD1310051+9999REMSYN074    AAXX  16121 30935 32999 00000 11311 21334 39305 40364 53005 333 11242;EQDQ01  00002PRCP99
0116309350999992000011615004+50370+108750FM-12+077099999V0209999C000019999999N0500001N1-03151-03381103691ADDGF108991001001999999001061MD1210041+9999REMSYN064    AAXX  16151 30935 42999 80000 11315 21338 40369 52004 80006;
0116309350999992000011618004+50370+108750FM-12+077099999V0209999C000019999999N0500001N1-03201-03431103731ADDGF108991001001999999001061MD1210011+9999REMSYN064    AAXX  16181 30935 42999 80000 11320 21343 40373 52001 80006;
0116309350999992000011621004+50370+108750FM-12+077099999V0209999C000012200019N0500001N1-03451-03671103921ADDGF102991001001999999001011MD1210071+9999REMSYN064    AAXX  16211 30935 42999 20000 11345 21367 40392 52007 80001;
0219309350999992000011700004+50370+108750FM-12+077099999V0209999C000012200019N0500001N1-03531-03771104021ADDAA199000091AJ100119199999999GF103991999999999999999999IA1239KA1120N-03571MA1999999093231MD1210061+9999REMSYN086    AAXX  17001 30935 32999 30000 11353 21377 39323 40402 52006 333 21357 47011 55062;EQDQ01  00002PRCP99
0116309350999992000011703004+50370+108750FM-12+077099999V0203101N001019999999N0500001N1-03371-03591104091ADDGF105991021001999999041011MD1210121+9999REMSYN064    AAXX  17031 30935 42999 53101 11337 21359 40409 52012 82041;
0116309350999992000011706004+50370+108750FM-12+077099999V0200501N001019999999N0500001N1-02641-02951103721ADDGF108991001001999999001061MD1810021+9999REMSYN064    AAXX  17061 30935 42999 80501 11264 21295 40372 58002 80006;
0144309350999992000011709004+50370+108750FM-12+077099999V0209999C000019999999N0100001N1-02421-02731103731ADDAY121031AY221031GF108991081001999999071999MD1310101+9999MW1151REMSYN070    AAXX  17091 30935 41997 80000 11242 21273 40373 53010 71522 8807/;
0218309350999992000011712004+50370+108750FM-12+077099999V0200601N001019999999N0100001N1-02501-02741103961ADDAA199000091AY121061AY221061GF108991081001999999021999KA1999M-02371MA1999999093601MD1210181+9999MW1151REMSYN086    AAXX  17121 30935 31997 80601 11250 21274 39360 40396 52018 71522 8802/ 333 11237;EQDQ01  00002PRCP99
0144309350999992000011715004+50370+108750FM-12+077099999V0200901N001019999999N0100001N1-02801-02981104251ADDAY171031AY221031GF108991081001999999021999MD1210141+9999MW1711REMSYN070    AAXX  17151 30935 41997 80901 11280 21298 40425 52014 77172 8802/;
0144309350999992000011718004+50370+108750FM-12+077099999V0201201N001019999999N0100001N1-02671-02851104261ADDAY171061AY271061GF108991081001999999021999MD1210051+9999MW1711REMSYN070    AAXX  17181 30935 41997 81201 11267 21285 40426 52005 77177 8802/;
0110309350999992000011721004+50370+108750FM-12+077099999V0209999C000019999999N0500001N1+99999+99999104421ADDGF105991001001999999001011MD1210041+9999REMSYN058    AAXX  17211 30935 42999 50000 21313 40442 52004 80001;
0212309350999992000011800004+50370+108750FM-12+077099999V0209999C000012200019N0500001N1-03111-03341104561ADDAA112001091AJ100119199999999GF103991001001999999001011IA1239KA1120N-03171MA1999999093881MD1210051+9999REMSYN098    AAXX  18001 30935 12999 30000 11311 21334 39388 40456 52005 60012 80001 333 21317 47011 55022;
0116309350999992000011803004+50370+108750FM-12+077099999V0209999C000019999999N0500001N1-02791-03031104441ADDGF106991001001999999001051MD1210031+9999REMSYN064    AAXX  18031 30935 42999 60000 11279 21303 40444 52003 80005;
0116309350999992000011806004+50370+108750FM-12+077099999V0209999C000019999999N0500001N1-02261-02441104011ADDGF108991001001999999001051MD1810171+9999REMSYN064    AAXX  18061 30935 42999 80000 11226 21244 40401 58017 80005;
0144309350999992000011809004+50370+108750FM-12+077099999V0200501N002019999999N0100001N1-01851-02041103731ADDAY121031AY221031GF108991081001999999021999MD1710101+9999MW1151REMSYN070    AAXX  18091 30935 41997 80502 11185 21204 40373 57010 71522 8802/;
0190309350999992000011812004+50370+108750FM-12+077099999V0200701N002019999999N0500001N1-01691-02031103591ADDAA199000091GF106991051001999999041011KA1999M-01611MA1999999093561MD1710081+9999REMSYN080    AAXX  18121 30935 32999 60702 11169 21203 39356 40359 57008 85041 333 11161;EQDQ01  00002PRCP99
0116309350999992000011815004+50370+108750FM-12+077099999V0209999C000019999999N0500001N1-02241-02491103781ADDGF106991031001999999041011MD1710021+9999REMSYN064    AAXX  18151 30935 42999 60000 11224 21249 40378 57002 83041;
0116309350999992000011818004+50370+108750FM-12+077099999V0209999C000012200019N0500001N1-02741-02911103921ADDGF102991001001999999001011MD1710081+9999REMSYN064    AAXX  18181 30935 42999 20000 11274 21291 40392 57008 80001;
0116309350999992000011821004+50370+108750FM-12+077099999V0209999C000012200019N0500001N1-03131-03301104101ADDGF101991001001999999001011MD1410001+9999REMSYN064    AAXX  18211 30935 42999 10000 11313 21330 40410 54000 80001;
0225309350999992000011900004+50370+108750FM-12+077099999V0209999C000012200019N0500001N1-03431-03641104271ADDAA199000091AJ100119199999999GF102991001001999999001011IA1239KA1120N-03431MA1999999093491MD1310031+9999REMSYN092    AAXX  19001 30935 32999 20000 11343 21364 39349 40427 53003 80001 333 21343 47011 55027;EQDQ01  00002PRCP99
0126309350999992000011903004+50370+108750FM-12+077099999V0209999C000012200019N0500001N1-02941-03171104191ADDGA1001+999999999GF100991001001999999001001MD1210131+9999REMSYN058    AAXX  19031 30935 42999 00000 11294 21317 40419 52013;
0126309350999992000011906004+50370+108750FM-12+077099999V0209999C000012200019N0500001N1-02501-02811103851ADDGA1001+999999999GF100991001001999999001001MD1810121+9999REMSYN058    AAXX  19061 30935 42999 00000 11250 21281 40385 58012;
0126309350999992000011909004+50370+108750FM-12+077099999V0209999C000012200019N0500001N1-02331-02721103701ADDGA1001+999999999GF100991001001999999001001MD1710071+9999REMSYN058    AAXX  19091 30935 42999 00000 11233 21272 40370 57007;
0122309350999992000011911004+50370+108750FM-12+077099999V0209999C000012200019N0500001N1-03381-03611104281ADDGA1001+999999999GF100991001001999999001001MD1410001+9999REMSYN054AAXX  19111 30935 42999 00000 11338 21361 40428 54000;
0200309350999992000011912004+50370+108750FM-12+077099999V0209999C000012200019N0500001N1-02961-03191104021ADDAA199000091GA1001+999999999GF100991001001999999001001KA1999M-02251MA1999999093461MD1310031+9999REMSYN074    AAXX  19121 30935 32999 00000 11296 21319 39346 40402 53003 333 11225;EQDQ01  00002PRCP99
0126309350999992000011915004+50370+108750FM-12+077099999V0200501N001012200019N0500001N1-03211-03431104201ADDGA1001+999999999GF100991001001999999001001MD1210061+9999REMSYN058    AAXX  19151 30935 42999 00501 11321 21343 40420 52006;
0122309350999992000011918004+50370+108750FM-12+077099999V0209999C000012200019N0500001N1-03381-03611104281ADDGA1001+999999999GF100991001001999999001001MD1410001+9999REMSYN054AAXX  19181 30935 42999 00000 11338 21361 40428 54000;
0112309350999992000011921004+50370+108750FM-12+077099999V0209999C000019999999N0500001N1-03291-03581104281ADDGF105991001001999999001011MD1310031+9999REMSYN060AAXX  19211 30935 42999 50000 11329 21358 40428 53003 80001;
0221309350999992000012000004+50370+108750FM-12+077099999V0209999C000019999999N0500001N1-03061-03291104261ADDAA199000091AJ100119199999999GF105991001001999999001011IA1239KA1120N-03411MA1999999093641MD1210091+9999REMSYN088AAXX  20001 30935 32999 50000 11306 21329 39364 40426 52009 80001 333 21341 47011 55072;EQDQ01  00002PRCP99
0112309350999992000012003004+50370+108750FM-12+077099999V0209999C000019999999N0500001N1-02821-03061104251ADDGF108991031001999999041011MD1210081+9999REMSYN060AAXX  20031 30935 42999 80000 11282 21306 40425 52008 83041;
0112309350999992000012006004+50370+108750FM-12+077099999V0200801N001019999999N0500001N1-02351-02751103991ADDGF107991041001999999041011MD1810051+9999REMSYN060AAXX  20061 30935 42999 70801 11235 21275 40399 58005 84041;
0112309350999992000012009004+50370+108750FM-12+077099999V0209999C000019999999N0500001N1-02301-02701103971ADDGF108991051001999999041011MD1310011+9999REMSYN060AAXX  20091 30935 42999 80000 11230 21270 40397 53001 85041;
0200309350999992000012012004+50370+108750FM-12+077099999V02099999999999999999N0500001N1-02821-03061104291ADDAA199000091GF105991001001999999001021KA1120M-02201MA1999999093751MD1210071+9999REMSYN090AAXX  20121 30935 32999 5/000 11282 21306 39375 40429 52007 80002 333 11220 555 1/153 002;EQDQ01  00002PRCP99
0112309350999992000012015004+50370+108750FM-12+077099999V0209999C000012200019N0500001N1-03011-03251104411ADDGF103991001001999999001011MD1210041+9999REMSYN060AAXX  20151 30935 42999 30000 11301 21325 40441 52004 80001;
0112309350999992000012018004+50370+108750FM-12+077099999V0209999C000019999999N0500001N1-03121-03361104461ADDGF105991021001999999041011MD1410001+9999REMSYN060AAXX  20181 30935 42999 50000 11312 21336 40446 54000 82041;
0112309350999992000012021004+50370+108750FM-12+077099999V0209999C000012200019N0500001N1-03221-03461104561ADDGF103991001001999999001011MD1310051+9999REMSYN060AAXX  20211 30935 42999 30000 11322 21346 40456 53005 80001;
0221309350999992000012100004+50370+108750FM-12+077099999V0209999C000012200019N0500001N1-03251-03481104541ADDAA199000091AJ100119199999999GF103991001001999999001011IA1239KA1120N-03321MA1999999093811MD1810031+9999REMSYN088AAXX  21001 30935 32999 30000 11325 21348 39381 40454 58003 80001 333 21332 47011 55062;EQDQ01  00002PRCP99
0112309350999992000012103004+50370+108750FM-12+077099999V0209999C000019999999N0500001N1-02961-03191104521ADDGF106991041001999999031011MD1310101+9999REMSYN060AAXX  21031 30935 42999 60000 11296 21319 40452 53010 84031;
0112309350999992000012106004+50370+108750FM-12+077099999V0200901N001019999999N0500001N1-02321-02711103991ADDGF108991041001999999031011MD1810221+9999REMSYN060AAXX  21061 30935 42999 80901 11232 21271 40399 58022 84031;
0112309350999992000012109004+50370+108750FM-12+077099999V0209999C000019999999N0500001N1-02171-02491103791ADDGF108991061001999999031011MD1710131+9999REMSYN060AAXX  21091 30935 42999 80000 11217 21249 40379 57013 86031;
0186309350999992000012112004+50370+108750FM-12+077099999V0209999C000019999999N0500001N1-02361-02611104001ADDAA199000091GF108991061001999999031011KA1999M-02141MA1999999093681MD1310121+9999REMSYN076AAXX  21121 30935 32999 80000 11236 21261 39368 40400 53012 86031 333 11214;EQDQ01  00002PRCP99
0112309350999992000012115004+50370+108750FM-12+077099999V0209999C000019999999N0500001N1-02491-02741104071ADDGF108991031001999999041051MD1210011+9999REMSYN060AAXX  21151 30935 42999 80000 11249 21274 40407 52001 83045;
0112309350999992000012118004+50370+108750FM-12+077099999V0209999C000019999999N0500001N1-02681-02861104141ADDGF108991041001999999041051MD1410001+9999REMSYN060AAXX  21181 30935 42999 80000 11268 21286 40414 54000 84045;
0140309350999992000012121004+50370+108750FM-12+077099999V0209999C000019999999N0100001N1-02671-02851104161ADDAY121031AY221031GF108991041001999999041051MD1310021+9999MW1151REMSYN066AAXX  21211 30935 41997 80000 11267 21285 40416 53002 71522 84045;
0221309350999992000012200004+50370+108750FM-12+077099999V0209999C000019999999N0500001N1-02761-02931104301ADDAA199000091AJ100119199999999GF106991041001999999041011IA1239KA1120N-02821MA1999999093801MD1210091+9999REMSYN088AAXX  22001 30935 32999 60000 11276 21293 39380 40430 52009 84041 333 21282 47011 55040;EQDQ01  00002PRCP99
0159309350999992000012203004+50370+108750FM-12+077099999V0209999C000019999999N0100001N1-02461-02631104291ADDAY171031AY221031GF107991999001999999041001MD1210111+9999MW1711REMSYN066AAXX  22031 30935 41997 70000 11246 21263 40429 52011 77172 86040;EQDQ01+000062SCOTLC
0140309350999992000012206004+50370+108750FM-12+077099999V0209999C000019999999N0100001N1-01891-02221104051ADDAY171061AY221061GF105991031001999999041011MD1410001+9999MW1151REMSYN066AAXX  22061 30935 41997 50000 11189 21222 40405 54000 71572 83041;
0140309350999992000012209004+50370+108750FM-12+077099999V0209999C000019999999N0100001N1-01911-02171104141ADDAY171031AY271031GF106991041001999999041011MD1310071+9999MW1711REMSYN066AAXX  22091 30935 41997 60000 11191 21217 40414 53007 77177 84041;
0220309350999992000012212004+50370+108750FM-12+077099999V0209999C000019999999N0500001N1-02291-02481104581ADDAA112000891AY171061AY221061GF105991001001999999001011KA1999M+99999MA1999999094241MD1210261+9999MW1221REMSYN088AAXX  22121 30935 11999 50000 11229 21248 39424 40458 52026 69972 72272 80001 333 10184;EQDQ01 +01842ATMX  
0112309350999992000012215004+50370+108750FM-12+077099999V0209999C000019999999N0500001N1-02591-02771104991ADDGF106991001001999999001011MD1210241+9999REMSYN060AAXX  22151 30935 42999 60000 11259 21277 40499 52024 80001;
0131309350999992000012218004+50370+108750FM-12+077099999V0209999C000019999999N0500001N1-02871-03051999999ADDGF106991001001999999001011MD1210181+9999REMSYN060AAXX  22181 30935 42999 60000 11287 21305 40432 52018 80001;EQDQ01+104323APOSLP
0112309350999992000012221004+50370+108750FM-12+077099999V0209999C000019999999N0500001N1-03031-03211105651ADDGF106991001001999999001011MD1210241+9999REMSYN060AAXX  22211 30935 42999 60000 11303 21321 40565 52024 80001;
0202309350999992000012300004+50370+108750FM-12+077099999V0209999C000012200019N0500001N1-03341-03501105931ADDAA199000021AJ100119199999999GF102991011001999999041011IA1239KA1120N-03341MA1999999095021MD1210121+9999REMSYN088AAXX  23001 30935 32999 20000 11334 21350 39502 40593 52012 81041 333 21334 47011 55032;
0122309350999992000012303004+50370+108750FM-12+077099999V0209999C000012200019N0500001N1-02981-03151105931ADDGA1001+999999999GF100991001001999999001001MD1210141+9999REMSYN054AAXX  23031 30935 42999 00000 11298 21315 40593 52014;
0122309350999992000012306004+50370+108750FM-12+077099999V0209999C000012200019N0500001N1-02431-02611105631ADDGA1001+999999999GF100991001001999999001001MD1810031+9999REMSYN054AAXX  23061 30935 42999 00000 11243 21261 40563 58003;
0122309350999992000012309004+50370+108750FM-12+077099999V0200501N002012200019N0500001N1-01911-02401105381ADDGA1001+999999999GF100991001001999999001001MD1710031+9999REMSYN054AAXX  23091 30935 42999 00502 11191 21240 40538 57003;
0196309350999992000012312004+50370+108750FM-12+077099999V0200701N003012200019N0500001N1-02061-02391105471ADDAA199000091GA1001+999999999GF100991001001999999001001KA1999M-01811MA1999999095131MD1310031+9999REMSYN070AAXX  23121 30935 32999 00703 11206 21239 39513 40547 53003 333 11181;EQDQ01  00002PRCP99
0140309350999992000012315004+50370+108750FM-12+077099999V0202501N002019999999N0100001N1-02111-02361105431ADDAY171031AY221031GF108991051001999999041011MD1810071+9999MW1711REMSYN066AAXX  23151 30935 41997 82502 11211 21236 40543 58007 77172 85041;
0140309350999992000012318004+50370+108750FM-12+077099999V0202701N001019999999N0100001N1-02121-02371105431ADDAY171061AY221061GF107991041001999999041011MD1410001+9999MW1711REMSYN066AAXX  23181 30935 41997 72701 11212 21237 40543 54000 77172 84041;
0140309350999992000012321004+50370+108750FM-12+077099999V0202701N001019999999N0100001N1-02231-02481105541ADDAY171031AY271031GF106991001001999999001011MD1310061+9999MW1151REMSYN066AAXX  23211 30935 41997 62701 11223 21248 40554 53006 71577 80001;
0236309350999992000012400004+50370+108750FM-12+077099999V0202901N001012200019N0500001N1-02701-02941105951ADDAA112000591AJ100119199999999AY171061AY211061GF103991001001999999001011IA1239KA1120N-02711MA1999999095311MD1210191+9999MW1011REMSYN100AAXX  24001 30935 11999 32901 11270 21294 39531 40595 52019 69962 70171 80001 333 21271 47011 55073;
0112309350999992000012403004+50370+108750FM-12+077099999V0209999C000012200019N0500001N1-02511-02751105931ADDGF103991001001999999001011MD1210051+9999REMSYN060AAXX  24031 30935 42999 30000 11251 21275 40593 52005 80001;
0122309350999992000012406004+50370+108750FM-12+077099999V0200201N001012200019N0500001N1-02241-02561105821ADDGA1001+999999999GF100991001001999999001001MD1210011+9999REMSYN054AAXX  24061 30935 42999 00201 11224 21256 40582 52001;
0122309350999992000012409004+50370+108750FM-12+077099999V0200401N001012200019N0500001N1-02121-02521105771ADDGA1001+999999999GF100991001001999999001001MD1410001+9999REMSYN054AAXX  24091 30935 42999 00401 11212 21252 40577 54000;
0196309350999992000012412004+50370+108750FM-12+077099999V0209999C000012200019N0500001N1-02591-02771106011ADDAA199000091GA1001+999999999GF100991001001999999001001KA1999M-02051MA1999999095401MD1310031+9999REMSYN070AAXX  24121 30935 32999 00000 11259 21277 39540 40601 53003 333 11205;EQDQ01  00002PRCP99
0112309350999992000012415004+50370+108750FM-12+077099999V0200601N001012200019N0500001N1-02971-03151106181ADDGF101991001001999999001011MD1410001+9999REMSYN060AAXX  24151 30935 42999 10601 11297 21315 40618 54000 80001;
0122309350999992000012418004+50370+108750FM-12+077099999V0209999C000012200019N0500001N1-03161-03321106271ADDGA1001+999999999GF100991001001999999001001MD1410001+9999REMSYN054AAXX  24181 30935 42999 00000 11316 21332 40627 54000;
0116309350999992000012421004+50370+108750FM-12+077099999V0209999C000012200019N0500001N1-03231-03461999999ADDGA1001+999999999GF100991001001999999001001MD1410001+9999REMSYN048AAXX  24211 30935 42999 00000 11323 21346 54000;
0231309350999992000012500004+50370+108750FM-12+077099999V0209999C000012200019N0500001N1-03331-03561106371ADDAA199000091AJ100119199999999GA1001+999999999GF100991001001999999001001IA1239KA1120N-03421MA1999999095421MD1310021+9999REMSYN082AAXX  25001 30935 32999 00000 11333 21356 39542 40637 53002 333 21342 47011 55072;EQDQ01  00002PRCP99
0122309350999992000012503004+50370+108750FM-12+077099999V0209999C000012200019N0500001N1-02721-02961106121ADDGA1001+999999999GF100991001001999999001001MD1210031+9999REMSYN054AAXX  25031 30935 42999 00000 11272 21296 40612 52003;
0122309350999992000012506004+50370+108750FM-12+077099999V0209999C000012200019N0500001N1-02341-02661105931ADDGA1001+999999999GF100991001001999999001001MD1810011+9999REMSYN054AAXX  25061 30935 42999 00000 11234 21266 40593 58001;
0122309350999992000012509004+50370+108750FM-12+077099999V0209999C000012200019N0500001N1-02081-02561105741ADDGA1001+999999999GF100991001001999999001001MD1710081+9999REMSYN054AAXX  25091 30935 42999 00000 11208 21256 40574 57008;
0196309350999992000012512004+50370+108750FM-12+077099999V0209999C000012200019N0500001N1-02811-03041106041ADDAA199000091GA1001+999999999GF100991001001999999001001KA1999M-02041MA1999999095341MD1710021+9999REMSYN070AAXX  25121 30935 32999 00000 11281 21304 39534 40604 57002 333 11204;EQDQ01  00002PRCP99
0122309350999992000012515004+50370+108750FM-12+077099999V0202901N001012200019N0500001N1-03171-03411106251ADDGA1001+999999999GF100991001001999999001001MD1310041+9999REMSYN054AAXX  25151 30935 42999 02901 11317 21341 40625 53004;
0122309350999992000012518004+50370+108750FM-12+077099999V0209999C000012200019N0500001N1-03281-03511106361ADDGA1001+999999999GF100991001001999999001001MD1210051+9999REMSYN054AAXX  25181 30935 42999 00000 11328 21351 40636 52005;
0122309350999992000012521004+50370+108750FM-12+077099999V0200401N001012200019N0500001N1-03511-03741106451ADDGA1001+999999999GF100991001001999999001001MD1810021+9999REMSYN054AAXX  25211 30935 42999 00401 11351 21374 40645 58002;
0231309350999992000012600004+50370+108750FM-12+077099999V0209999C000012200019N0500001N1-03591-03801106451ADDAA199000091AJ100119199999999GA1001+999999999GF100991001001999999001001IA1239KA1120N-03611MA1999999095361MD1710051+9999REMSYN082AAXX  26001 30935 32999 00000 11359 21380 39536 40645 57005 333 21361 47011 55075;EQDQ01  00002PRCP99
0122309350999992000012603004+50370+108750FM-12+077099999V0209999C000012200019N0500001N1-03081-03321106091ADDGA1001+999999999GF100991001001999999001001MD1710101+9999REMSYN054AAXX  26031 30935 42999 00000 11308 21332 40609 57010;
0122309350999992000012606004+50370+108750FM-12+077099999V0209999C000012200019N0500001N1-02401-02801105441ADDGA1001+999999999GF100991001001999999001001MD1710301+9999REMSYN054AAXX  26061 30935 42999 00000 11240 21280 40544 57030;
0122309350999992000012609004+50370+108750FM-12+077099999V0209999C000012200019N0500001N1-02271-02751105131ADDGA1001+999999999GF100991001001999999001001MD1710221+9999REMSYN054AAXX  26091 30935 42999 00000 11227 21275 40513 57022;
0196309350999992000012612004+50370+108750FM-12+077099999V0209999C000012200019N0500001N1-02901-03131105251ADDAA199000091GA1001+999999999GF100991001001999999001001KA1999M-02201MA1999999094591MD1710151+9999REMSYN070AAXX  26121 30935 32999 00000 11290 21313 39459 40525 57015 333 11220;EQDQ01  00002PRCP99
0122309350999992000012615004+50370+108750FM-12+077099999V0209999C000012200019N0500001N1-03151-03381105241ADDGA1001+999999999GF100991001001999999001001MD1710111+9999REMSYN054AAXX  26151 30935 42999 00000 11315 21338 40524 57011;
0122309350999992000012618004+50370+108750FM-12+077099999V0209999C000012200019N0500001N1-03341-03561105221ADDGA1001+999999999GF100991001001999999001001MD1710111+9999REMSYN054AAXX  26181 30935 42999 00000 11334 21356 40522 57011;
0122309350999992000012621004+50370+108750FM-12+077099999V0209999C000012200019N0500001N1-03541-03771105231ADDGA1001+999999999GF100991001001999999001001MD1710071+9999REMSYN054AAXX  26211 30935 42999 00000 11354 21377 40523 57007;
0231309350999992000012700004+50370+108750FM-12+077099999V0209999C000012200019N0500001N1-03671-03911105261ADDAA199000091AJ100119199999999GA1001+999999999GF100991001001999999001001IA1239KA1120N-03691MA1999999094281MD1710021+9999REMSYN082AAXX  27001 30935 32999 00000 11367 21391 39428 40526 57002 333 21369 47011 55075;EQDQ01  00002PRCP99
0140309350999992000012703004+50370+108750FM-12+077099999V0209999C000012200019N0100001N1-03191-03431105131ADDAY101031AY201031GF103991001001999999001011MD1310081+9999MW1401REMSYN066AAXX  27031 30935 41997 30000 11319 21343 40513 53008 74000 80001;
0112309350999992000012706004+50370+108750FM-12+077099999V0200501N001012200019N0500001N1-02571-02881104571ADDGF102991001001999999001011MD1810251+9999REMSYN060AAXX  27061 30935 42999 20501 11257 21288 40457 58025 80001;
0112309350999992000012709004+50370+108750FM-12+077099999V0209999C000019999999N0500001N1-02181-02661104341ADDGF107991021001999999031021MD1710051+9999REMSYN060AAXX  27091 30935 42999 70000 11218 21266 40434 57005 82032;
0202309350999992000012712004+50370+108750FM-12+077099999V0209999C000012200019N0500001N1-02531-02841104621ADDAA199000091GF103991031001999999031001KA1120M-02111MA1999999094171MD1310111+9999REMSYN092AAXX  27121 30935 32999 30000 11253 21284 39417 40462 53011 83030 333 11211 555 1/128 53002;EQDQ01  00002PRCP99
0112309350999992000012715004+50370+108750FM-12+077099999V0209999C000012200019N0500001N1-02281-02531104551ADDGF103991001001999999001011MD1110041+9999REMSYN060AAXX  27151 30935 42999 30000 11228 21253 40455 51004 80001;
0112309350999992000012718004+50370+108750FM-12+077099999V0209999C000019999999N0500001N1-02011-02201104461ADDGF106991041001999999031011MD1210031+9999REMSYN060AAXX  27181 30935 42999 60000 11201 21220 40446 52003 84031;
0112309350999992000012721004+50370+108750FM-12+077099999V0209999C000012200019N0500001N1-02161-02411104611ADDGF103991021001999999031011MD1210071+9999REMSYN060AAXX  27211 30935 42999 30000 11216 21241 40461 52007 82031;
0221309350999992000012800004+50370+108750FM-12+077099999V0202001N001019999999N0500001N1-02121-02301104561ADDAA199000091AJ100119199999999GF106991041001999999031051IA1239KA1120N-02531MA1999999094281MD1810031+9999REMSYN088AAXX  28001 30935 32999 62001 11212 21230 39428 40456 58003 84035 333 21253 47011 55066;EQDQ01  00002PRCP99
0112309350999992000012803004+50370+108750FM-12+077099999V0201501N004019999999N0500001N1-01871-02131104671ADDGF106991021001999999041051MD1310191+9999REMSYN060AAXX  28031 30935 42999 61504 11187 21213 40467 53019 82045;
0112309350999992000012806004+50370+108750FM-12+077099999V0202601N004010750019N0500001N1-01441-02051104491ADDGF105991021011012501041011MD1410001+9999REMSYN060AAXX  28061 30935 42699 52604 11144 21205 40449 54000 82141;
0112309350999992000012809004+50370+108750FM-12+077099999V0202101N002012200019N0500001N1-01541-02141104621ADDGF103991021001999999041011MD1310081+9999REMSYN060AAXX  28091 30935 42999 32102 11154 21214 40462 53008 82041;
0186309350999992000012812004+50370+108750FM-12+077099999V0203201N001012200019N0500001N1-01971-02381105041ADDAA199000091GF102991001001999999001011KA1999M-01381MA1999999094771MD1210221+9999REMSYN076AAXX  28121 30935 32999 23201 11197 21238 39477 40504 52022 80001 333 11138;EQDQ01  00002PRCP99
0122309350999992000012815004+50370+108750FM-12+077099999V0209999C000012200019N0500001N1-02361-02611105261ADDGA1001+999999999GF100991001001999999001001MD1210051+9999REMSYN054AAXX  28151 30935 42999 00000 11236 21261 40526 52005;
0122309350999992000012818004+50370+108750FM-12+077099999V0202901N002012200019N0500001N1-02721-02901105511ADDGA1001+999999999GF100991001001999999001001MD1210081+9999REMSYN054AAXX  28181 30935 42999 02902 11272 21290 40551 52008;
0122309350999992000012821004+50370+108750FM-12+077099999V0202701N001012200019N0500001N1-02871-03051105621ADDGA1001+999999999GF100991001001999999001001MD1210041+9999REMSYN054AAXX  28211 30935 42999 02701 11287 21305 40562 52004;
0221309350999992000012900004+50370+108750FM-12+077099999V0209999C000012200019N0500001N1-03011-03191105781ADDAA199000091AJ100119199999999GF102991021001999999041001IA1239KA1120N-03171MA1999999095031MD1210091+9999REMSYN088AAXX  29001 30935 32999 20000 11301 21319 39503 40578 52009 82040 333 21317 47011 55052;EQDQ01  00002PRCP99
0112309350999992000012903004+50370+108750FM-12+077099999V0200401N001012200019N0500001N1-02671-02851105681ADDGF101991011001999999041001MD1210041+9999REMSYN060AAXX  29031 30935 42999 10401 11267 21285 40568 52004 81040;
0112309350999992000012906004+50370+108750FM-12+077099999V0200301N001019999999N0500001N1-02121-02441105381ADDGF108991031001999999041011MD1810041+9999REMSYN060AAXX  29061 30935 42999 80301 11212 21244 40538 58004 83041;
0112309350999992000012909004+50370+108750FM-12+077099999V0209999C000019999999N0500001N1-01711-02131105211ADDGF106991021001999999041011MD1710011+9999REMSYN060AAXX  29091 30935 42999 60000 11171 21213 40521 57001 82041;
0186309350999992000012912004+50370+108750FM-12+077099999V0201701N001012200019N0500001N1-02341-02521105631ADDAA199000091GF102991001001999999001011KA1999M-01641MA1999999095161MD1310141+9999REMSYN076AAXX  29121 30935 32999 21701 11234 21252 39516 40563 53014 80001 333 11164;EQDQ01  00002PRCP99
0122309350999992000012915004+50370+108750FM-12+077099999V0209999C000012200019N0500001N1-02821-03001105931ADDGA1001+999999999GF100991001001999999001001MD1210081+9999REMSYN054AAXX  29151 30935 42999 00000 11282 21300 40593 52008;
0122309350999992000012918004+50370+108750FM-12+077099999V0209999C000012200019N0500001N1-03101-03281106151ADDGA1001+999999999GF100991001001999999001001MD1210071+9999REMSYN054AAXX  29181 30935 42999 00000 11310 21328 40615 52007;
0122309350999992000012921004+50370+108750FM-12+077099999V0209999C000012200019N0500001N1-03501-03671106431ADDGA1001+999999999GF100991001001999999001001MD1210081+9999REMSYN054AAXX  29211 30935 42999 00000 11350 21367 40643 52008;
0231309350999992000013000004+50370+108750FM-12+077099999V0209999C000012200019N0500001N1-03651-03871106591ADDAA199000091AJ100119199999999GA1001+999999999GF100991001001999999001001IA1239KA1120N-03651MA1999999095471MD1210081+9999REMSYN082AAXX  30001 30935 32999 00000 11365 21387 39547 40659 52008 333 21365 47011 55067;EQDQ01  00002PRCP99
0122309350999992000013003004+50370+108750FM-12+077099999V0209999C000012200019N0500001N1-03231-03461106521ADDGA1001+999999999GF100991001001999999001001MD1210121+9999REMSYN054AAXX  30031 30935 42999 00000 11323 21346 40652 52012;
0122309350999992000013006004+50370+108750FM-12+077099999V0209999C000012200019N0500001N1-02671-02911106191ADDGA1001+999999999GF100991001001999999001001MD1810061+9999REMSYN054AAXX  30061 30935 42999 00000 11267 21291 40619 58006;
0122309350999992000013009004+50370+108750FM-12+077099999V0209999C000012200019N0500001N1-02411-02811105971ADDGA1001+999999999GF100991001001999999001001MD1710091+9999REMSYN054AAXX  30091 30935 42999 00000 11241 21281 40597 57009;
0186309350999992000013012004+50370+108750FM-12+077099999V0200401N001012200019N0500001N1-03051-03271106291ADDAA199000091GF102991001001999999001011KA1999M-02321MA1999999095461MD1310021+9999REMSYN076AAXX  30121 30935 32999 20401 11305 21327 39546 40629 53002 80001 333 11232;EQDQ01  00002PRCP99
0122309350999992000013015004+50370+108750FM-12+077099999V0209999C000012200019N0500001N1-03271-03511106391ADDGA1001+999999999GF100991001001999999001001MD1410001+9999REMSYN054AAXX  30151 30935 42999 00000 11327 21351 40639 54000;
0122309350999992000013018004+50370+108750FM-12+077099999V0209999C000012200019N0500001N1-03471-03701106491ADDGA1001+999999999GF100991001001999999001001MD1410001+9999REMSYN054AAXX  30181 30935 42999 00000 11347 21370 40649 54000;
0122309350999992000013021004+50370+108750FM-12+077099999V0209999C000012200019N0500001N1-03591-03801106451ADDGA1001+999999999GF100991001001999999001001MD1810091+9999REMSYN054AAXX  30211 30935 42999 00000 11359 21380 40645 58009;
0231309350999992000013100004+50370+108750FM-12+077099999V0209999C000012200019N0500001N1-03721-03951106431ADDAA199000091AJ100119199999999GA1001+999999999GF100991001001999999001001IA1239KA1120N-03721MA1999999095301MD1710071+9999REMSYN082AAXX  31001 30935 32999 00000 11372 21395 39530 40643 57007 333 21372 47011 55072;EQDQ01  00002PRCP99
0119309350999992000013101004+50370+108750FM-12+077099999V0209999C999992200019N0500001N1+99999+99999999999ADDGA1001+999999999GF100991001001999999001001REMSYN030AAXX  31011 30935 42999 00080;EQDQ01+008003WOSPD Q020008003WOSPD 
0150309350999992000013103004+50370+108750FM-12+077099999V0209999C000012200019N0500001N1-03321-03561106201ADDAY141031AY201031GA1001+999999999GF100991001001999999001001MD1710041+9999MW1281REMSYN060AAXX  31031 30935 41999 00000 11332 21356 40620 57004 72840;
0122309350999992000013106004+50370+108750FM-12+077099999V0209999C000012200019N0500001N1-02611-03001105571ADDGA1001+999999999GF100991001001999999001001MD1710261+9999REMSYN054AAXX  31061 30935 42999 00000 11261 21300 40557 57026;
0122309350999992000013109004+50370+108750FM-12+077099999V0209999C000012200019N0500001N1-02281-02761105111ADDGA1001+999999999GF100991001001999999001001MD1710281+9999REMSYN054AAXX  31091 30935 42999 00000 11228 21276 40511 57028;
0196309350999992000013112004+50370+108750FM-12+077099999V0209999C000012200019N0500001N1-03021-03251105391ADDAA199000091GA1001+999999999GF100991001001999999001001KA1999M-02161MA1999999094661MD1710061+9999REMSYN070AAXX  31121 30935 32999 00000 11302 21325 39466 40539 57006 333 11216;EQDQ01  00002PRCP99
0122309350999992000013115004+50370+108750FM-12+077099999V0209999C000012200019N0500001N1-03251-03481105421ADDGA1001+999999999GF100991001001999999001001MD1710061+9999REMSYN054AAXX  31151 30935 42999 00000 11325 21348 40542 57006;
0122309350999992000013118004+50370+108750FM-12+077099999V0209999C000012200019N0500001N1-03451-03671105421ADDGA1001+999999999GF100991001001999999001001MD1710081+9999REMSYN054AAXX  31181 30935 42999 00000 11345 21367 40542 57008;
0122309350999992000013121004+50370+108750FM-12+077099999V0209999C000012200019N0500001N1-03621-03841105381ADDGA1001+999999999GF100991001001999999001001MD1710121+9999REMSYN054AAXX  31211 30935 42999 00000 11362 21384 40538 57012;
0231309350999992000020100004+50370+108750FM-12+077099999V0209999C000012200019N0500001N1-03751-04051105331ADDAA199000091AJ100119199999999GA1001+999999999GF100991001001999999001001IA1239KA1120N-03751MA1999999094301MD1710101+9999REMSYN082AAXX  01001 30935 32999 00000 11375 21405 39430 40533 57010 333 21375 47011 55072;EQDQ01  00002PRCP99
0116309350999992000020103004+50370+108750FM-12+077099999V0209999C000012200019N0500001N1-03071+99999104921ADDGA1001+999999999GF100991001001999999001001MD1710071+9999REMSYN048AAXX  01031 30935 42999 00000 11307 40492 57007;
0122309350999992000020106004+50370+108750FM-12+077099999V0200201N001012200019N0500001N1-02541-02861104341ADDGA1001+999999999GF100991001001999999001001MD1710311+9999REMSYN054AAXX  01061 30935 42999 00201 11254 21286 40434 57031;
0122309350999992000020109004+50370+108750FM-12+077099999V0209999C000012200019N0500001N1-02171-02651103941ADDGA1001+999999999GF100991001001999999001001MD1710221+9999REMSYN054AAXX  01091 30935 42999 00000 11217 21265 40394 57022;
0196309350999992000020111004+50370+108750FM-12+077099999V0209999C000012200019N0500001N1-02891-03131104241ADDAA199000091GA1001+999999999GF100991001001999999001001KA1999M-02121MA1999999093691MD1710011+9999REMSYN070AAXX  01111 30935 32999 00000 11289 21313 39369 40424 57001 333 11212;EQDQ01  00002PRCP99
0196309350999992000020112004+50370+108750FM-12+077099999V0209999C000012200019N0500001N1-02891-03131104241ADDAA199000091GA1001+999999999GF100991001001999999001001KA1999M-02121MA1999999093691MD1710011+9999REMSYN070AAXX  01121 30935 32999 00000 11289 21313 39369 40424 57001 333 11212;EQDQ01  00002PRCP99
0122309350999992000020115004+50370+108750FM-12+077099999V0209999C000012200019N0500001N1-03181-03471104351ADDGA1001+999999999GF100991001001999999001001MD1710031+9999REMSYN054AAXX  01151 30935 42999 00000 11318 21347 40435 57003;
0122309350999992000020118004+50370+108750FM-12+077099999V0209999C000012200019N0500001N1-03341-03561104371ADDGA1001+999999999GF100991001001999999001001MD1710041+9999REMSYN054AAXX  01181 30935 42999 00000 11334 21356 40437 57004;
0122309350999992000020121004+50370+108750FM-12+077099999V0209999C000012200019N0500001N1-03631-03841104511ADDGA1001+999999999GF100991001001999999001001MD1410001+9999REMSYN054AAXX  01211 30935 42999 00000 11363 21384 40451 54000;
0231309350999992000020200004+50370+108750FM-12+077099999V0200901N001012200019N0500001N1-03671-03911104541ADDAA199000091AJ100119199999999GA1001+999999999GF100991001001999999001001IA1239KA1120N-03711MA1999999093631MD1310011+9999REMSYN082AAXX  02001 30935 32999 00901 11367 21391 39363 40454 53001 333 21371 47011 55082;EQDQ01  00002PRCP99
0122309350999992000020203004+50370+108750FM-12+077099999V0202101N001012200019N0500001N1-03071-03291104301ADDGA1001+999999999GF100991001001999999001001MD1210041+9999REMSYN054AAXX  02031 30935 42999 02101 11307 21329 40430 52004;
0112309350999992000020206004+50370+108750FM-12+077099999V0209999C000019999999N0500001N1-02431-02821103941ADDGF105991001001999999001011MD1810071+9999REMSYN060AAXX  02061 30935 42999 50000 11243 21282 40394 58007 80001;
0112309350999992000020209004+50370+108750FM-12+077099999V0209999C000012200019N0500001N1-02131-02611103781ADDGF102991001001999999001011MD1710031+9999REMSYN060AAXX  02091 30935 42999 20000 11213 21261 40378 57003 80001;
0196309350999992000020212004+50370+108750FM-12+077099999V0202601N001012200019N0500001N1-02701-03011104091ADDAA199000091GA1001+999999999GF100991001001999999001001KA1999M-02101MA1999999093641MD1310071+9999REMSYN070AAXX  02121 30935 32999 02601 11270 21301 39364 40409 53007 333 11210;EQDQ01  00002PRCP99
0122309350999992000020215004+50370+108750FM-12+077099999V0209999C000012200019N0500001N1-03001-03231104291ADDGA1001+999999999GF100991001001999999001001MD1210041+9999REMSYN054AAXX  02151 30935 42999 00000 11300 21323 40429 52004;
0122309350999992000020218004+50370+108750FM-12+077099999V0209999C000012200019N0500001N1-03181-03411104301ADDGA1001+999999999GF100991001001999999001001MD1810061+9999REMSYN054AAXX  02181 30935 42999 00000 11318 21341 40430 58006;
0122309350999992000020221004+50370+108750FM-12+077099999V0209999C000012200019N0500001N1-03271-03511104311ADDGA1001+999999999GF100991001001999999001001MD1710031+9999REMSYN054AAXX  02211 30935 42999 00000 11327 21351 40431 57003;
0231309350999992000020300004+50370+108750FM-12+077099999V0209999C000012200019N0500001N1-03511-03741104491ADDAA199000091AJ100119199999999GA1001+999999999GF100991001001999999001001IA1239KA1120N-03511MA1999999093651MD1310061+9999REMSYN082AAXX  03001 30935 32999 00000 11351 21374 39365 40449 53006 333 21351 47011 55074;EQDQ01  00002PRCP99
0122309350999992000020303004+50370+108750FM-12+077099999V0200301N001012200019N0500001N1-02911-03151104241ADDGA1001+999999999GF100991001001999999001001MD1210031+9999REMSYN054AAXX  03031 30935 42999 00301 11291 21315 40424 52003;
0122309350999992000020306004+50370+108750FM-12+077099999V0203501N001012200019N0500001N1-02321-02641103751ADDGA1001+999999999GF100991001001999999001001MD1810211+9999REMSYN054AAXX  03061 30935 42999 03501 11232 21264 40375 58021;
0122309350999992000020309004+50370+108750FM-12+077099999V0209999C000012200019N0500001N1-02011-02421103451ADDGA1001+999999999GF100991001001999999001001MD1710151+9999REMSYN054AAXX  03091 30935 42999 00000 11201 21242 40345 57015;
0196309350999992000020312004+50370+108750FM-12+077099999V0202401N001012200019N0500001N1-02701-02941103721ADDAA199000091GA1001+999999999GF100991001001999999001001KA1999M-01901MA1999999093301MD1710021+9999REMSYN070AAXX  03121 30935 32999 02401 11270 21294 39330 40372 57002 333 11190;EQDQ01  00002PRCP99
0122309350999992000020315004+50370+108750FM-12+077099999V0209999C000012200019N0500001N1-03011-03251103851ADDGA1001+999999999GF100991001001999999001001MD1710011+9999REMSYN054AAXX  03151 30935 42999 00000 11301 21325 40385 57001;
0122309350999992000020318004+50370+108750FM-12+077099999V0209999C000012200019N0500001N1-03281-03511103991ADDGA1001+999999999GF100991001001999999001001MD1310011+9999REMSYN054AAXX  03181 30935 42999 00000 11328 21351 40399 53001;
0122309350999992000020321004+50370+108750FM-12+077099999V0209999C000012200019N0500001N1-03451-03671104101ADDGA1001+999999999GF100991001001999999001001MD1210031+9999REMSYN054AAXX  03211 30935 42999 00000 11345 21367 40410 52003;
0231309350999992000020400004+50370+108750FM-12+077099999V0209999C000012200019N0500001N1-03551-03771104181ADDAA199000091AJ100119199999999GA1001+999999999GF100991001001999999001001IA1239KA1120N-03611MA1999999093361MD1210031+9999REMSYN082AAXX  04001 30935 32999 00000 11355 21377 39336 40418 52003 333 21361 47011 55075;EQDQ01  00002PRCP99
0122309350999992000020403004+50370+108750FM-12+077099999V0209999C000012200019N0500001N1-03111-03341104031ADDGA1001+999999999GF100991001001999999001001MD1210051+9999REMSYN054AAXX  04031 30935 42999 00000 11311 21334 40403 52005;
0122309350999992000020406004+50370+108750FM-12+077099999V0200101N001012200019N0500001N1-02331-02651103531ADDGA1001+999999999GF100991001001999999001001MD1810141+9999REMSYN054AAXX  04061 30935 42999 00101 11233 21265 40353 58014;
0122309350999992000020409004+50370+108750FM-12+077099999V0209999C000012200019N0500001N1-02001-02491103261ADDGA1001+999999999GF100991001001999999001001MD1710121+9999REMSYN054AAXX  04091 30935 42999 00000 11200 21249 40326 57012;
0196309350999992000020412004+50370+108750FM-12+077099999V0209999C000012200019N0500001N1-02791-03111103621ADDAA199000091GA1001+999999999GF100991001001999999001001KA1999M-01901MA1999999093171MD1310021+9999REMSYN070AAXX  04121 30935 32999 00000 11279 21311 39317 40362 53002 333 11190;EQDQ01  00002PRCP99
0112309350999992000020415004+50370+108750FM-12+077099999V0209999C000012200019N0500001N1-03081-03321103791ADDGF101991001001999999001011MD1210031+9999REMSYN060AAXX  04151 30935 42999 10000 11308 21332 40379 52003 80001;
0122309350999992000020418004+50370+108750FM-12+077099999V0209999C000012200019N0500001N1-03291-03511103971ADDGA1001+999999999GF100991001001999999001001MD1210081+9999REMSYN054AAXX  04181 30935 42999 00000 11329 21351 40397 52008;
0122309350999992000020421004+50370+108750FM-12+077099999V0209999C000012200019N0500001N1-03401-03611104081ADDGA1001+999999999GF100991001001999999001001MD1210051+9999REMSYN054AAXX  04211 30935 42999 00000 11340 21361 40408 52005;
0231309350999992000020500004+50370+108750FM-12+077099999V0209999C000012200019N0500001N1-03621-03841104351ADDAA199000091AJ100119199999999GA1001+999999999GF100991001001999999001001IA1239KA1120N-03641MA1999999093481MD1210151+9999REMSYN082AAXX  05001 30935 32999 00000 11362 21384 39348 40435 52015 333 21364 47011 55075;EQDQ01  00002PRCP99
0140309350999992000020503004+50370+108750FM-12+077099999V0200601N001019999999N9999999N1-03071-03291104171ADDAY111031AY211031GF105991001001999999001021MD1210071+9999MW1401REMSYN066AAXX  05031 30935 4197/ 50601 11307 21329 40417 52007 74011 80002;
0112309350999992000020506004+50370+108750FM-12+077099999V0209999C000019999999N0500001N1-02361-02611103721ADDGF106991021001999999031021MD1810111+9999REMSYN060AAXX  05061 30935 42999 60000 11236 21261 40372 58011 82032;
0112309350999992000020509004+50370+108750FM-12+077099999V0209999C000010750019N0500001N1-02021-02431103531ADDGF105991011011012501001021MD1710051+9999REMSYN060AAXX  05091 30935 42699 50000 11202 21243 40353 57005 81102;
0186309350999992000020512004+50370+108750FM-12+077099999V0209999C000012200019N0500001N1-02571-02811103811ADDAA199000091GF102991001001999999001011KA1999M-01981MA1999999093431MD1310041+9999REMSYN076AAXX  05121 30935 32999 20000 11257 21281 39343 40381 53004 80001 333 11198;EQDQ01  00002PRCP99
0122309350999992000020515004+50370+108750FM-12+077099999V0200901N001012200019N0500001N1-02731-02911103881ADDGA1001+999999999GF100991001001999999001001MD1410001+9999REMSYN054AAXX  05151 30935 42999 00901 11273 21291 40388 54000;
0122309350999992000020518004+50370+108750FM-12+077099999V0209999C000012200019N0500001N1-02881-03051104011ADDGA1001+999999999GF100991001001999999001001MD1310051+9999REMSYN054AAXX  05181 30935 42999 00000 11288 21305 40401 53005;
0122309350999992000020521004+50370+108750FM-12+077099999V0209999C000012200019N0500001N1-02831-03061104001ADDGA1001+999999999GF100991001001999999001001MD1210021+9999REMSYN054AAXX  05211 30935 42999 00000 11283 21306 40400 52002;
0221309350999992000020600004+50370+108750FM-12+077099999V0202201N001012200019N0500001N1-02661-02831103961ADDAA199000091AJ100119199999999GF103991001001999999001011IA1239KA1120N-02921MA1999999093541MD1210041+9999REMSYN088AAXX  06001 30935 32999 32201 11266 21283 39354 40396 52004 80001 333 21292 47011 55059;EQDQ01  00002PRCP99
0140309350999992000020603004+50370+108750FM-12+077099999V0201601N001019999999N0100001N1-02041-02231103761ADDAY111031AY211031GF106991001001999999001011MD1210051+9999MW1151REMSYN066AAXX  06031 30935 41997 61601 11204 21223 40376 52005 71511 80001;
0112309350999992000020606004+50370+108750FM-12+077099999V0201701N002019999999N0500001N1-01241-01671103221ADDGF105991001001999999001021MD1810181+9999REMSYN060AAXX  06061 30935 42999 51702 11124 21167 40322 58018 80002;
0112309350999992000020609004+50370+108750FM-12+077099999V0202401N003012200019N0500001N1-01151-01991103121ADDGF101991001001999999001011MD1710071+9999REMSYN060AAXX  06091 30935 42999 12403 11115 21199 40312 57007 80001;
0196309350999992000020612004+50370+108750FM-12+077099999V0202101N001012200019N0500001N1-01951-02361103511ADDAA199000091GA1001+999999999GF100991001001999999001001KA1999M-01091MA1999999093401MD1310061+9999REMSYN070AAXX  06121 30935 32999 02101 11195 21236 39340 40351 53006 333 11109;EQDQ01  00002PRCP99
0141309350999992000020615004+50370+108750FM-12+077099999V0209999C000012200019N0500001N1-02561-02811999999ADDGA1001+999999999GF100991001001999999001001MD1210081+9999REMSYN054AAXX  06151 30935 42999 00000 11256 21281 40286 52008;EQDQ01+102863APOSLP
0122309350999992000020618004+50370+108750FM-12+077099999V0209999C000012200019N0500001N1-02831-03001103971ADDGA1001+999999999GF100991001001999999001001MD1810011+9999REMSYN054AAXX  06181 30935 42999 00000 11283 21300 40397 58001;
0122309350999992000020621004+50370+108750FM-12+077099999V0209999C000012200019N0500001N1-03001-03171104061ADDGA1001+999999999GF100991001001999999001001MD1310011+9999REMSYN054AAXX  06211 30935 42999 00000 11300 21317 40406 53001;
0231309350999992000020700004+50370+108750FM-12+077099999V0202201N001012200019N0500001N1-03311-03531104241ADDAA199000091AJ100119199999999GA1001+999999999GF100991001001999999001001IA1239KA1120N-03371MA1999999093521MD1210041+9999REMSYN082AAXX  07001 30935 32999 02201 11331 21353 39352 40424 52004 333 21337 47011 55065;EQDQ01  00002PRCP99
0122309350999992000020703004+50370+108750FM-12+077099999V0209999C000012200019N0500001N1-02491-02671103911ADDGA1001+999999999GF100991001001999999001001MD1210031+9999REMSYN054AAXX  07031 30935 42999 00000 11249 21267 40391 52003;
0122309350999992000020706004+50370+108750FM-12+077099999V0200501N001012200019N0500001N1-02081-02411103701ADDGA1001+999999999GF100991001001999999001001MD1810021+9999REMSYN054AAXX  07061 30935 42999 00501 11208 21241 40370 58002;
0112309350999992000020709004+50370+108750FM-12+077099999V0201801N001012200019N0500001N1-01731-02231103541ADDGF102991001001999999001011MD1710021+9999REMSYN060AAXX  07091 30935 42999 21801 11173 21223 40354 57002 80001;
0196309350999992000020712004+50370+108750FM-12+077099999V0202401N001012200019N0500001N1-02421-02661103851ADDAA199000091GA1001+999999999GF100991001001999999001001KA1999M-01651MA1999999093531MD1310021+9999REMSYN070AAXX  07121 30935 32999 02401 11242 21266 39353 40385 53002 333 11165;EQDQ01  00002PRCP99
0122309350999992000020715004+50370+108750FM-12+077099999V0209999C000012200019N0500001N1-02581-02821103901ADDGA1001+999999999GF100991001001999999001001MD1810021+9999REMSYN054AAXX  07151 30935 42999 00000 11258 21282 40390 58002;
0112309350999992000020718004+50370+108750FM-12+077099999V0209999C000019999999N0500001N1-02441-02691103841ADDGF105991001001999999001011MD1410001+9999REMSYN060AAXX  07181 30935 42999 50000 11244 21269 40384 54000 80001;
0112309350999992000020721004+50370+108750FM-12+077099999V0209999C000012200019N0500001N1-02491-02741103921ADDGF103991001001999999001011MD1310051+9999REMSYN060AAXX  07211 30935 42999 30000 11249 21274 40392 53005 80001;
0237309350999992000020800004+50370+108750FM-12+077099999V0209999C000019999999N0500001N1-02511-02751999999ADDAA199000091AJ100119199999999GF106991041001999999031011IA1239KA1120N-02681MA1999999093571MD1210011+9999REMSYN088AAXX  08001 30935 32999 60000 11251 21275 39357 40494 52001 84031 333 21268 47011 55080;EQDQ01+104943APOSLPQ02  00002PRCP99
0112309350999992000020803004+50370+108750FM-12+077099999V0200301N001012200019N0500001N1-02101-02431103751ADDGF103991001001999999001011MD1810011+9999REMSYN060AAXX  08031 30935 42999 30301 11210 21243 40375 58001 80001;
0112309350999992000020806004+50370+108750FM-12+077099999V0203101N001012200019N0500001N1-01651-02151103431ADDGF102991001001999999001011MD1710121+9999REMSYN060AAXX  08061 30935 42999 23101 11165 21215 40343 57012 80001;
0122309350999992000020809004+50370+108750FM-12+077099999V0209999C000012200019N0500001N1-01401-02111103161ADDGA1001+999999999GF100991001001999999001001MD1710161+9999REMSYN054AAXX  08091 30935 42999 00000 11140 21211 40316 57016;
0196309350999992000020812004+50370+108750FM-12+077099999V0209999C000012200019N0500001N1-02171-02491103361ADDAA199000091GA1001+999999999GF100991001001999999001001KA1999M-01351MA1999999093181MD1710101+9999REMSYN070AAXX  08121 30935 32999 00000 11217 21249 39318 40336 57010 333 11135;EQDQ01  00002PRCP99
0122309350999992000020815004+50370+108750FM-12+077099999V0209999C000012200019N0500001N1-02511-02691103481ADDGA1001+999999999GF100991001001999999001001MD1710031+9999REMSYN054AAXX  08151 30935 42999 00000 11251 21269 40348 57003;
0112309350999992000020818004+50370+108750FM-12+077099999V0209999C000012200019N0500001N1-02661-02831103451ADDGF102991001001999999001011MD1410001+9999REMSYN060AAXX  08181 30935 42999 20000 11266 21283 40345 54000 80001;
0112309350999992000020821004+50370+108750FM-12+077099999V0209999C000012200019N0500001N1-02821-03001103531ADDGF101991001001999999001011MD1810071+9999REMSYN060AAXX  08211 30935 42999 10000 11282 21300 40353 58007 80001;
0221309350999992000020900004+50370+108750FM-12+077099999V0209999C000012200019N0500001N1-03011-03191103621ADDAA199000091AJ100119199999999GF103991021001999999031011IA1239KA1120N-03011MA1999999093081MD1410001+9999REMSYN088AAXX  09001 30935 32999 30000 11301 21319 39308 40362 54000 82031 333 21301 47011 55083;EQDQ01  00002PRCP99
0112309350999992000020903004+50370+108750FM-12+077099999V0201801N001012200019N0500001N1-02561-02741103411ADDGF103991001001999999001011MD1810011+9999REMSYN060AAXX  09031 30935 42999 31801 11256 21274 40341 58001 80001;
0112309350999992000020906004+50370+108750FM-12+077099999V0203201N001012200019N0500001N1-01791-02121102881ADDGF102991001001999999001011MD1710181+9999REMSYN060AAXX  09061 30935 42999 23201 11179 21212 40288 57018 80001;
0112309350999992000020909004+50370+108750FM-12+077099999V0209999C000012200019N0500001N1-01491-01911102581ADDGF102991001001999999001011MD1710161+9999REMSYN060AAXX  09091 30935 42999 20000 11149 21191 40258 57016 80001;
0186309350999992000020912004+50370+108750FM-12+077099999V0209999C000012200019N0500001N1-02051-02301102811ADDAA199000091GF103991001001999999001011KA1999M-01451MA1999999092731MD1410001+9999REMSYN076AAXX  09121 30935 32999 30000 11205 21230 39273 40281 54000 80001 333 11145;EQDQ01  00002PRCP99
0122309350999992000020915004+50370+108750FM-12+077099999V0209999C000012200019N0500001N1-02351-02531102971ADDGA1001+999999999GF100991001001999999001001MD1310021+9999REMSYN054AAXX  09151 30935 42999 00000 11235 21253 40297 53002;
0112309350999992000020918004+50370+108750FM-12+077099999V0209999C000019999999N0500001N1-02251-02431102951ADDGF108991061001999999041021MD1210031+9999REMSYN060AAXX  09181 30935 42999 80000 11225 21243 40295 52003 86042;
0112309350999992000020921004+50370+108750FM-12+077099999V0209999C000019999999N0500001N1-02221-02401102871ADDGF107991051001999999041021MD1810061+9999REMSYN060AAXX  09211 30935 42999 70000 11222 21240 40287 58006 85042;
0221309350999992000021000004+50370+108750FM-12+077099999V0200301N001012200019N0500001N1-02591-02771103001ADDAA199000091AJ100119199999999GF102991021001999999041001IA1239KA1120N-02621MA1999999092691MD1710031+9999REMSYN088AAXX  10001 30935 32999 20301 11259 21277 39269 40300 57003 82040 333 21262 47011 55059;EQDQ01  00002PRCP99
0112309350999992000021003004+50370+108750FM-12+077099999V0209999C000019999999N0500001N1-02061-02311102891ADDGF105991021001999999041011MD1310111+9999REMSYN060AAXX  10031 30935 42999 50000 11206 21231 40289 53011 82041;
0112309350999992000021006004+50370+108750FM-12+077099999V0202301N001012200019N0500001N1-01461-01811102341ADDGF102991001001999999001011MD1810271+9999REMSYN060AAXX  10061 30935 42999 22301 11146 21181 40234 58027 80001;
0112309350999992000021009004+50370+108750FM-12+077099999V0200301N001012200019N0500001N1-01271-01701102121ADDGF102991001001999999001011MD1710141+9999REMSYN060AAXX  10091 30935 42999 20301 11127 21170 40212 57014 80001;
0186309350999992000021012004+50370+108750FM-12+077099999V0209999C000012200019N0500001N1-01761-02021102331ADDAA199000091GF102991001001999999001011KA1999M-01211MA1999999092411MD1310021+9999REMSYN076AAXX  10121 30935 32999 20000 11176 21202 39241 40233 53002 80001 333 11121;EQDQ01  00002PRCP99
0122309350999992000021015004+50370+108750FM-12+077099999V0209999C000012200019N0500001N1-02001-02191102401ADDGA1001+999999999GF100991001001999999001001MD1810031+9999REMSYN054AAXX  10151 30935 42999 00000 11200 21219 40240 58003;
0122309350999992000021018004+50370+108750FM-12+077099999V0209999C000012200019N0500001N1-02181-02361102481ADDGA1001+999999999GF100991001001999999001001MD1410001+9999REMSYN054AAXX  10181 30935 42999 00000 11218 21236 40248 54000;
0112309350999992000021021004+50370+108750FM-12+077099999V0209999C000012200019N0500001N1-01881-02071102361ADDGF103991001001999999001011MD1310011+9999REMSYN060AAXX  10211 30935 42999 30000 11188 21207 40236 53001 80001;
0221309350999992000021100004+50370+108750FM-12+077099999V0202101N001019999999N0500001N1-01801-01991102421ADDAA199000091AJ100119199999999GF106991031001999999041011IA1239KA1120N-02221MA1999999092471MD1210081+9999REMSYN088AAXX  11001 30935 32999 62101 11180 21199 39247 40242 52008 83041 333 21222 47011 55075;EQDQ01  00002PRCP99
0140309350999992000021103004+50370+108750FM-12+077099999V0200101N001019999999N0100001N1-01471-01741102511ADDAY111031AY211031GF106991001001999999001021MD1210201+9999MW1401REMSYN066AAXX  11031 30935 41997 60101 11147 21174 40251 52020 74011 80002;
0097309350999992000021106004+50370+108750FM-12+077099999V0200601N001012200019N0500001N1-00591-01161102201ADDGF102991999999999999999999REMSYN059AAXX  11061 30935 42999 20601 11059 21116 40220 5203 81041;
0112309350999992000021109004+50370+108750FM-12+077099999V0202801N002019999999N0500001N1-00701-01771102331ADDGF105991001001999999001011MD1210081+9999REMSYN060AAXX  11091 30935 42999 52802 11070 21177 40233 52008 80001;
0202309350999992000021112004+50370+108750FM-12+077099999V0202101N001012200019N0500001N1-01091-01711102731ADDAA199000091GF102991001001999999001011KA1999N+99999MA1999999093011MD1210231+9999REMSYN076AAXX  11121 30935 32999 22101 11109 21171 39301 40273 52023 80001 333 21047;EQDQ01  00002PRCP99Q02 -00472ATMN  
0122309350999992000021115004+50370+108750FM-12+077099999V0202501N001012200019N0500001N1-01271-01881103031ADDGA1001+999999999GF100991001001999999001001MD1210201+9999REMSYN054AAXX  11151 30935 42999 02501 11127 21188 40303 52020;
0122309350999992000021118004+50370+108750FM-12+077099999V0203201N001012200019N0500001N1-01581-02091103361ADDGA1001+999999999GF100991001001999999001001MD1210191+9999REMSYN054AAXX  11181 30935 42999 03201 11158 21209 40336 52019;
0122309350999992000021121004+50370+108750FM-12+077099999V0209999C000012200019N0500001N1-02201-02451103631ADDGA1001+999999999GF100991001001999999001001MD1210021+9999REMSYN054AAXX  11211 30935 42999 00000 11220 21245 40363 52002;
0221309350999992000021200004+50370+108750FM-12+077099999V0200601N001012200019N0500001N1-02611-02791103871ADDAA199000091AJ100119199999999GF102991021001999999041001IA1239KA1120N-02631MA1999999093461MD1210041+9999REMSYN088AAXX  12001 30935 32999 20601 11261 21279 39346 40387 52004 82040 333 21263 47011 55017;EQDQ01  00002PRCP99
0112309350999992000021203004+50370+108750FM-12+077099999V0203301N001012200019N0500001N1-02041-02231103711ADDGF102991011001999999041011MD1210081+9999REMSYN060AAXX  12031 30935 42999 23301 11204 21223 40371 52008 81041;
0112309350999992000021206004+50370+108750FM-12+077099999V0201401N002012200019N0500001N1-01091-01711103231ADDGF103991021001999999041011MD1810081+9999REMSYN060AAXX  12061 30935 42999 31402 11109 21171 40323 58008 82041;
0112309350999992000021209004+50370+108750FM-12+077099999V0202001N004012200019N0500001N1-01031-01871103131ADDGF101991001001999999001011MD1710071+9999REMSYN060AAXX  12091 30935 42999 12004 11103 21187 40313 57007 80001;
0196309350999992000021212004+50370+108750FM-12+077099999V0202101N003012200019N0500001N1-01661-02251103541ADDAA199000091GA1001+999999999GF100991001001999999001001KA1999M-00721MA1999999093541MD1310151+9999REMSYN070AAXX  12121 30935 32999 02103 11166 21225 39354 40354 53015 333 11072;EQDQ01  00002PRCP99
0122309350999992000021215004+50370+108750FM-12+077099999V0201901N002012200019N0500001N1-02141-02391103811ADDGA1001+999999999GF100991001001999999001001MD1210061+9999REMSYN054AAXX  12151 30935 42999 01902 11214 21239 40381 52006;
0112309350999992000021218004+50370+108750FM-12+077099999V0202401N002012200019N0500001N1-02131-02381103871ADDGF102991001001999999001011MD1210051+9999REMSYN060AAXX  12181 30935 42999 22402 11213 21238 40387 52005 80001;
0122309350999992000021221004+50370+108750FM-12+077099999V0202101N003012200019N0500001N1-02291-02481103941ADDGA1001+999999999GF100991001001999999001001MD1410001+9999REMSYN054AAXX  12211 30935 42999 02103 11229 21248 40394 54000;
0221309350999992000021300004+50370+108750FM-12+077099999V0209999C000012200019N0500001N1-02511-02691104111ADDAA199000091AJ100119199999999GF103991021001999999041011IA1239KA1120N-02571MA1999999093731MD1310081+9999REMSYN088AAXX  13001 30935 32999 30000 11251 21269 39373 40411 53008 82041 333 21257 47011 55084;EQDQ01  00002PRCP99
0112309350999992000021303004+50370+108750FM-12+077099999V0201801N001019999999N0500001N1-01881-02211103821ADDGF105991001001999999001011MD1810021+9999REMSYN060AAXX  13031 30935 42999 51801 11188 21221 40382 58002 80001;
0112309350999992000021306004+50370+108750FM-12+077099999V0201601N003019999999N0500001N1-01201-01721103381ADDGF107991031001999999041011MD1710161+9999REMSYN060AAXX  13061 30935 42999 71603 11120 21172 40338 57016 83041;
0112309350999992000021309004+50370+108750FM-12+077099999V0202201N005010300019N0500001N1-01261-01981103351ADDGF106991021011012501041011MD1710041+9999REMSYN060AAXX  13091 30935 42699 62205 11126 21198 40335 57004 82141;
0202309350999992000021312004+50370+108750FM-12+077099999V0202201N002012200019N0500001N1-01941-02351103661ADDAA199000091GF102991001001999999001011KA1120M-01101MA1999999093541MD1310031+9999REMSYN092AAXX  13121 30935 32999 22202 11194 21235 39354 40366 53003 80001 333 11110 555 1/125 53009;EQDQ01  00002PRCP99
0112309350999992000021315004+50370+108750FM-12+077099999V0202701N001012200019N0500001N1-02321+99999103901ADDGF101991001001999999001011MD1210071+9999REMSYN060AAXX  13151 30935 42999 12701 11232 22264 40390 52007 80001;
0112309350999992000021318004+50370+108750FM-12+077099999V0202501N003012200019N0500001N1-02471-02651103971ADDGF102991001001999999001011MD1410001+9999REMSYN060AAXX  13181 30935 42999 22503 11247 21265 40397 54000 80001;
0122309350999992000021321004+50370+108750FM-12+077099999V0209999C000012200019N0500001N1-02811-02981104121ADDGA1001+999999999GF100991001001999999001001MD1410001+9999REMSYN054AAXX  13211 30935 42999 00000 11281 21298 40412 54000;
0221309350999992000021400004+50370+108750FM-12+077099999V0203401N001012200019N0500001N1-02931-03111104221ADDAA199000091AJ100119199999999GF103991021001999999041011IA1239KA1120N-02931MA1999999093651MD1310041+9999REMSYN088AAXX  14001 30935 32999 33401 11293 21311 39365 40422 53004 82041 333 21293 47011 55026;EQDQ01  00002PRCP99
0112309350999992000021403004+50370+108750FM-12+077099999V0203401N001019999999N0500001N1-02191-02371103901ADDGF105991031001999999041011MD1410001+9999REMSYN060AAXX  14031 30935 42999 53401 11219 21237 40390 54000 83041;
0112309350999992000021406004+50370+108750FM-12+077099999V0201101N003010300019N0500001N1-01331-01761103441ADDGF108991021011012501041011MD1810091+9999REMSYN060AAXX  14061 30935 42699 81103 11133 21176 40344 58009 82141;
0202309350999992000021412004+50370+108750FM-12+077099999V0202401N003012200019N0500001N1-01901-02311103621ADDAA199000091GF102991001001999999001011KA1120M-01071MA1999999093521MD1310021+9999REMSYN092AAXX  14121 30935 32999 22403 11190 21231 39352 40362 53002 80001 333 11107 555 1/124 53007;EQDQ01  00002PRCP99
0122309350999992000021415004+50370+108750FM-12+077099999V0209999C000012200019N0500001N1-02371-02551103871ADDGA1001+999999999GF100991001001999999001001MD1210041+9999REMSYN054AAXX  14151 30935 42999 00000 11237 21255 40387 52004;
0122309350999992000021418004+50370+108750FM-12+077099999V0209999C000012200019N0500001N1-02821-03061104021ADDGA1001+999999999GF100991001001999999001001MD1810041+9999REMSYN054AAXX  14181 30935 42999 00000 11282 21306 40402 58004;
0112309350999992000021421004+50370+108750FM-12+077099999V0209999C000012200019N0500001N1-03121-03361104111ADDGF103991001001999999001011MD1710051+9999REMSYN060AAXX  14211 30935 42999 30000 11312 21336 40411 57005 80001;
0259309350999992000021500004+50370+108750FM-12+077099999V0200901N001012200019N0500001N1-03291-03511104191ADDAA199000091AJ100119199999999GA1001+999999999GF100991001001999999001001IA1239KA1120N-03311MA1999999093481MD1310011+9999REMSYN110AAXX  15001 30935 32999 00901 11329 21351 39348 40419 53001 333 21331 47011 5500/ 555 1/140 51214 53084 7000/;EQDQ01  00002PRCP99
0122309350999992000021503004+50370+108750FM-12+077099999V0209999C000012200019N0500001N1-02721-02901103971ADDGA1001+999999999GF100991001001999999001001MD1210041+9999REMSYN054AAXX  15031 30935 42999 00000 11272 21290 40397 52004;
0122309350999992000021506004+50370+108750FM-12+077099999V0200301N001012200019N0500001N1-02041-02371103501ADDGA1001+999999999GF100991001001999999001001MD1810171+9999REMSYN054AAXX  15061 30935 42999 00301 11204 21237 40350 58017;
0122309350999992000021509004+50370+108750FM-12+077099999V0200301N002012200019N0500001N1-01821-02231103221ADDGA1001+999999999GF100991001001999999001001MD1710161+9999REMSYN054AAXX  15091 30935 42999 00302 11182 21223 40322 57016;
0196309350999992000021512004+50370+108750FM-12+077099999V0202301N001012200019N0500001N1-02511-02821103541ADDAA199000091GA1001+999999999GF100991001001999999001001KA1999M-01781MA1999999093211MD1310021+9999REMSYN070AAXX  15121 30935 32999 02301 11251 21282 39321 40354 53002 333 11178;EQDQ01  00002PRCP99
0122309350999992000021515004+50370+108750FM-12+077099999V0209999C000012200019N0500001N1-02761-02991103631ADDGA1001+999999999GF100991001001999999001001MD1810011+9999REMSYN054AAXX  15151 30935 42999 00000 11276 21299 40363 58001;
0122309350999992000021518004+50370+108750FM-12+077099999V0209999C000012200019N0500001N1-03151-03381103821ADDGA1001+999999999GF100991001001999999001001MD1010011+9999REMSYN054AAXX  15181 30935 42999 00000 11315 21338 40382 50001;
0202309350999992000021521004+50370+108750FM-12+077099999V0202401N003012200019N0500001N1+99999-02311103621ADDAA199000091GF102991001001999999001011KA1999M-01071MA1999999093521MD1310021+9999REMSYN076AAXX  15211 30935 32999 22403 11190 21231 39352 40362 53002 80001 333 11107;EQDQ01-001903ATOT  Q02  00002PRCP99
0231309350999992000021600004+50370+108750FM-12+077099999V0209999C000012200019N0500001N1-03411-03642104021ADDAA199000091AJ100119199999999GA1001+999999999GF100991001001999999001001IA1239KA1120N-03411MA1999999093271MD1210011+9999REMSYN082AAXX  16001 30935 32999 00000 11341 21364 39327 40402 52001 333 21341 47011 55088;EQDQ01  00002PRCP99
0122309350999992000021603004+50370+108750FM-12+077099999V0209999C000012200019N0500001N1-02701-02941103641ADDGA1001+999999999GF100991001001999999001001MD1810041+9999REMSYN054AAXX  16031 30935 42999 00000 11270 21294 40364 58004;
0112309350999992000021606004+50370+108750FM-12+077099999V0200301N001012200019N0500001N1-01941-02351103071ADDGF101991001001999999001011MD1710221+9999REMSYN060AAXX  16061 30935 42999 10301 11194 21235 40307 57022 80001;
0122309350999992000021609004+50370+108750FM-12+077099999V0201501N001012200019N0500001N1-01651-02151102711ADDGA1001+999999999GF100991001001999999001001MD1710231+9999REMSYN054AAXX  16091 30935 42999 01501 11165 21215 40271 57023;
0196309350999992000021612004+50370+108750FM-12+077099999V0209999C000012200019N0500001N1-02391-02711103161ADDAA199000091GA1001+999999999GF100991001001999999001001KA1999M-01591MA1999999092921MD1310141+9999REMSYN070AAXX  16121 30935 32999 00000 11239 21271 39292 40316 53014 333 11159;EQDQ01  00002PRCP99
0122309350999992000021615004+50370+108750FM-12+077099999V0209999C000012200019N0500001N1-02651-02901103291ADDGA1001+999999999GF100991001001999999001001MD1210011+9999REMSYN054AAXX  16151 30935 42999 00000 11265 21290 40329 52001;
0122309350999992000021618004+50370+108750FM-12+077099999V0202101N001012200019N0500001N1-02891-03131103401ADDGA1001+999999999GF100991001001999999001001MD1210011+9999REMSYN054AAXX  16181 30935 42999 02101 11289 21313 40340 52001;
0122309350999992000021621004+50370+108750FM-12+077099999V0209999C000012200019N0500001N1-03001-03231103521ADDGA1001+999999999GF100991001001999999001001MD1210051+9999REMSYN054AAXX  16211 30935 42999 00000 11300 21323 40352 52005;
0221309350999992000021700004+50370+108750FM-12+077099999V0209999C000012200019N0500001N1-03111-03341103701ADDAA199000091AJ100119199999999GF102991001001999999001011IA1239KA1120N-03131MA1999999093111MD1210121+9999REMSYN088AAXX  17001 30935 32999 20000 11311 21334 39311 40370 52012 80001 333 21313 47011 55090;EQDQ01  00002PRCP99
0122309350999992000021703004+50370+108750FM-12+077099999V0200601N001012200019N0500001N1-02461-02701103391ADDGA1001+999999999GF100991001001999999001001MD1810021+9999REMSYN054AAXX  17031 30935 42999 00601 11246 21270 40339 58002;
0112309350999992000021706004+50370+108750FM-12+077099999V0200601N001012200019N0500001N1-01571-02081102901ADDGF101991001001999999001011MD1710101+9999REMSYN060AAXX  17061 30935 42999 10601 11157 21208 40290 57010 80001;
0112309350999992000021709004+50370+108750FM-12+077099999V0203401N001019999999N0500001N1-01411-01921102731ADDGF108991051001999999041011MD1710101+9999REMSYN060AAXX  17091 30935 42999 83401 11141 21192 40273 57010 85041;
0186309350999992000021712004+50370+108750FM-12+077099999V0209999C000019999999N0500001N1-01571-01991102781ADDAA199000091GF106991001001999999001011KA1999M-01271MA1999999092881MD1710011+9999REMSYN076AAXX  17121 30935 32999 60000 11157 21199 39288 40278 57001 80001 333 11127;EQDQ01  00002PRCP99
0140309350999992000021715004+50370+108750FM-12+077099999V0201801N001019999999N0100001N1-01521-01821102911ADDAY171031AY221031GF108991081001999999071999MD1310141+9999MW1711REMSYN066AAXX  17151 30935 41997 81801 11152 21182 40291 53014 77172 8807/;
0134309350999992000021718004+50370+108750FM-12+077099999V0201901N002019999999N0100001N1+99999+99999103001ADDAY171061AY221061GF108991081001999999071999MD1210161+9999MW1711REMSYN060AAXX  17181 30935 41997 81902 21149 40300 52016 77172 8807/;
0140309350999992000021721004+50370+108750FM-12+077099999V0201701N001019999999N0100001N1-01361-01491103071ADDAY171031AY271031GF108991081001999999071999MD1210041+9999MW1711REMSYN066AAXX  17211 30935 41997 81701 11136 21149 40307 52004 77177 8807/;
0236309350999992000021800004+50370+108750FM-12+077099999V0201901N002019999999N0100001N1-01401-01531103251ADDAA112001091AJ100129199999999AY171061AY271061GF108991081001999999071999IA1239KA1120N-01571MA1999999093361MD1210141+9999MW1711REMSYN100AAXX  18001 30935 11997 81902 11140 21153 39336 40325 52014 60012 77177 8807/ 333 21157 47012 55057;
0140309350999992000021803004+50370+108750FM-12+077099999V0201801N003019999999N0100001N1-01091-01291103201ADDAY171031AY221031GF108991051001999999041071MD1210081+9999MW1221REMSYN066AAXX  18031 30935 42997 81803 11109 21129 40320 52008 72272 85047;
0112309350999992000021806004+50370+108750FM-12+077099999V0202101N003012200019N0500001N1-00771-01431103041ADDGF105991021021012501001011MD1810041+9999REMSYN060AAXX  18061 30935 42699 52103 11077 21143 40304 58004 82201;
0112309350999992000021809004+50370+108750FM-12+077099999V0202501N002012200019N0500001N1-00711-01511102981ADDGF103991021021012501001011MD1710041+9999REMSYN060AAXX  18091 30935 42699 32502 11071 21151 40298 57004 82201;
0173309350999992000021812004+50370+108750FM-12+077099999V0202201N002012200019N0500001N1-01481-01911103331ADDAA112000791GF102991001001999999001011KA1999M-00651MA1999999093411MD1310051+9999REMSYN082AAXX  18121 30935 12999 22202 11148 21191 39341 40333 53005 69902 80001 333 11065;
0112309350999992000021815004+50370+108750FM-12+077099999V0203401N001012200019N0500001N1-01921-02181103511ADDGF101991001001999999001011MD1410001+9999REMSYN060AAXX  18151 30935 42999 13401 11192 21218 40351 54000 80001;
0112309350999992000021818004+50370+108750FM-12+077099999V0209999C000012200019N0500001N1-02501-02671103801ADDGF102991011001999999041011MD1310041+9999REMSYN060AAXX  18181 30935 42999 20000 11250 21267 40380 53004 81041;
0112309350999992000021821004+50370+108750FM-12+077099999V0202601N001012200019N0500001N1-02731-02911103921ADDGF103991001001999999001011MD1810011+9999REMSYN060AAXX  18211 30935 42999 32601 11273 21291 40392 58001 80001;
0221309350999992000021900004+50370+108750FM-12+077099999V0209999C000019999999N0500001N1-02851-03021104011ADDAA199000091AJ100129199999999GF105991031001999999041011IA1239KA1120N-02891MA1999999093501MD1210041+9999REMSYN088AAXX  19001 30935 32999 50000 11285 21302 39350 40401 52004 83041 333 21289 47012 55053;EQDQ01  00002PRCP99
0112309350999992000021903004+50370+108750FM-12+077099999V0209999C000019999999N0500001N1-02231-02411103701ADDGF105991001001999999001011MD1810041+9999REMSYN060AAXX  19031 30935 42999 50000 11223 21241 40370 58004 80001;
0112309350999992000021906004+50370+108750FM-12+077099999V0200201N001012200019N0500001N1-01741-02001103321ADDGF103991001001999999001011MD1710151+9999REMSYN060AAXX  19061 30935 42999 30201 11174 21200 40332 57015 80001;
0112309350999992000021909004+50370+108750FM-12+077099999V0203501N001012200019N0500001N1-01411-01841103021ADDGF102991001001999999001011MD1710161+9999REMSYN060AAXX  19091 30935 42999 23501 11141 21184 40302 57016 80001;
0186309350999992000021912004+50370+108750FM-12+077099999V0200201N001012200019N0500001N1-02101-02431103281ADDAA199000091GF103991021001999999041011KA1999M-01361MA1999999093141MD1610011+9999REMSYN076AAXX  19121 30935 32999 30201 11210 21243 39314 40328 56001 82041 333 11136;EQDQ01  00002PRCP99
0122309350999992000021915004+50370+108750FM-12+077099999V0209999C000012200019N0500001N1-02421-02601103511ADDGA1001+999999999GF100991001001999999001001MD1310081+9999REMSYN054AAXX  19151 30935 42999 00000 11242 21260 40351 53008;
0122309350999992000021918004+50370+108750FM-12+077099999V0209999C000012200019N0500001N1-02621-02801103651ADDGA1001+999999999GF100991001001999999001001MD1210051+9999REMSYN054AAXX  19181 30935 42999 00000 11262 21280 40365 52005;
0112309350999992000021921004+50370+108750FM-12+077099999V0209999C000012200019N0500001N1-02881-03051103761ADDGF103991001001999999001011MD1810021+9999REMSYN060AAXX  19211 30935 42999 30000 11288 21305 40376 58002 80001;
