0161334150999992000010100004+49570+025600FM-12+032499999V0209999C000010360019N0100001N1-00611-00691102561ADDAY181061AY221061GF107991041031012501031001MA1999999098351MD1710031+9999MW1851REMSYN072AAXX  01001 33415 41697 70000 11061 21069 39835 40256 57003 78582 84330;
0156334150999992000010103004+49570+025600FM-12+032499999V0209999V002010360019N0100001N1-00421-00511102531ADDAY181031AY221031GF107991021031012501031001MD1410001+9999MW1021REMSYN082AAXX  01031 33415 41697 79902 11042 21051 40253 54000 70282 82330 555 21062 7993/;
0209334150999992000010106004+49570+025600FM-12+032499999V0202701N003010360019N0100001N1-00281-00351102471ADDAA112000791AJ100179199999999AY181061AY221061GF107991031051012501031001IA1239KA1120N-00621MD1810031+9999MW1021REMSYN088AAXX  01061 33415 11697 72703 11028 21035 40247 58003 69902 70282 83530 333 21062 47017;
0166334150999992000010109004+49570+025600FM-12+032499999V0203101N002010024019N0020001N1-00261-00321102451ADDAY121031AY221031GA1061+002409069GF108991061071002501031999MD1710021+9999MW1101REMSYN076AAXX  01091 33415 41395 83102 11026 21032 40245 57002 71022 8673/ 333 86708;
0187334150999992000010112004+49570+025600FM-12+032499999V0203301N003010036019N0040001N1-00191-00341102341ADDAY121061AY221061GA1061+003609069GF108991061071004501031999MA1999999098221MD1710081+9999MW1101REMSYN082AAXX  01121 33415 41496 83303 11019 21034 39822 40234 57008 71022 8673/ 333 86712;
0166334150999992000010115004+49570+025600FM-12+032499999V0203101N003010360019N0040001N1-00261-00391102401ADDAY121031AY221031GA1031+005709059GF108991031051004501031999MD1310041+9999MW1101REMSYN076AAXX  01151 33415 41496 83103 11026 21039 40240 53004 71022 8353/ 333 83619;
0215334150999992000010118004+49570+025600FM-12+032499999V0202901N002010360019N0040001N1-00321-00461102411ADDAA106000091AY121061AY221061GA1041+005709059GF107991041051004501031001KA1120M-00191MD1810011+9999MW1101REMSYN082AAXX  01181 33415 31496 72902 11032 21046 40241 58001 71022 84530 333 11019 84619;EQDQ01  00002PRCP06
0166334150999992000010121004+49570+025600FM-12+032499999V0209999C000010024019N0040001N1-00351-00461102441ADDAY121031AY221031GA1061+002409069GF108991061071002501031999MD1310031+9999MW1101REMSYN076AAXX  01211 33415 41396 80000 11035 21046 40244 53003 71022 8673/ 333 86708;
0187334150999992000010200004+49570+025600FM-12+032499999V0209999C000010039019N0040001N1-00281-00381102511ADDAY121061AY221061GA1081+003909059GF108991081051004501999999MA1999999098361MD1210081+9999MW1101REMSYN082AAXX  02001 33415 41496 80000 11028 21038 39836 40251 52008 71022 885// 333 88613;
0212334150999992000010203004+49570+025600FM-12+032499999V0202701N002010030019N0040001N1-00261-00361102541ADDAA106000091AY121031AY221031GA1081+003009069GF108991081051004501999999MD1210031+9999MW1101REMSYN092AAXX  02031 33415 31496 82702 11026 21036 40254 52003 71022 885// 333 88610 555 21036 7000/;EQDQ01  00002PRCP06
0244334150999992000010206004+49570+025600FM-12+032499999V0203101N004010027019N0040001N1-00281-00381102611ADDAA106000091AJ100169199999999AY121061AY221061GA1081+002709069GF108991081061002501999999IA1239KA1120N-00361MD1210071+9999MW1101REMSYN088AAXX  02061 33415 31396 83104 11028 21038 40261 52007 71022 886// 333 21036 47016 88709;EQDQ01  00002PRCP06
0166334150999992000010209004+49570+025600FM-12+032499999V0202901N004010027019N0040001N1-00271-00371102781ADDAY121031AY221031GA1081+002709069GF108991081061004501999999MD1210161+9999MW1101REMSYN076AAXX  02091 33415 41496 82904 11027 21037 40278 52016 71022 886// 333 88709;
0187334150999992000010212004+49570+025600FM-12+032499999V0202901N002010039019N0040001N1-00231-00421102801ADDAY121061AY221061GA1051+003909059GF107991041051004501031001MA1999999098641MD1210021+9999MW1101REMSYN082AAXX  02121 33415 41496 72902 11023 21042 39864 40280 52002 71022 84530 333 85613;
0166334150999992000010215004+49570+025600FM-12+032499999V0202701N003010051019N0040001N1-00431-00621102841ADDAY121031AY221031GA1051+005109059GF107991051051004501031001MD1210011+9999MW1101REMSYN076AAXX  02151 33415 41496 72703 11043 21062 40284 52001 71022 85530 333 85617;
0215334150999992000010218004+49570+025600FM-12+032499999V0202901N002010360019N0040001N1-00441-00641102861ADDAA106000091AY121061AY221061GA1041+005409059GF107991041051004501031001KA1120M-00221MD1210021+9999MW1101REMSYN082AAXX  02181 33415 31496 72902 11044 21064 40286 52002 71022 84530 333 11022 84618;EQDQ01  00002PRCP06
0134334150999992000010221004+49570+025600FM-12+032499999V0202701N002019999999N0005001N1-00691-00691102911ADDAY141031AY221031GF108991999999999999999999MD1410001+9999MW1491REMSYN060AAXX  02211 33415 41/93 82702 11069 21069 40291 54000 74942;
0155334150999992000010300004+49570+025600FM-12+032499999V0202701N002019999999N0005001N1-00731-00731102891ADDAY141061AY221061GF108991999999999999999999MA1999999098651MD1810021+9999MW1491REMSYN066AAXX  03001 33415 41/93 82702 11073 21073 39865 40289 58002 74942;
0180334150999992000010303004+49570+025600FM-12+032499999V0209999C000019999999N0005001N1-00171-01171102891ADDAA106000091AY141031AY241031GF108991999999999999999999MD1710081+9999MW1491REMSYN076AAXX  03031 33415 31/93 80000 11017 21117 40289 57008 74944 555 21118 7000/;EQDQ01  00002PRCP06
0222334150999992000010306004+49570+025600FM-12+032499999V0202501N003010360019N0040001N1-00971-01141102591ADDAA106000091AJ100169199999999AY141061AY221061GF107991041051008001031001IA1239KA1120N-01181MD1710241+9999MW1101REMSYN082AAXX  03061 33415 31596 72503 11097 21114 40259 57024 71042 84530 333 21118 47016;EQDQ01  00002PRCP06
0166334150999992000010309004+49570+025600FM-12+032499999V0202301N008010045019N0040001N1-00501-00711102321ADDAY181031AY221031GA1061+004509099GF108991061031004501031999MD1710201+9999MW1851REMSYN076AAXX  03091 33415 41496 82308 11050 21071 40232 57020 78582 8633/ 333 86915;
0193334150999992000010312004+49570+025600FM-12+032499999V0202701N005010039019N0040001N1-00291-00461102071ADDAY181061AY221061GA1061+003909099GF108991051031004501031999MA1999999097941MD1710191+9999MW1851REMSYN088AAXX  03121 33415 41496 82705 11029 21046 39794 40207 57019 78582 8533/ 333 86913 92982;
0166334150999992000010315004+49570+025600FM-12+032499999V0202701N006010027019N0040001N1-00201-00291102021ADDAY181031AY251031GA1081+002709069GF108991081061002501999999MD1710041+9999MW1561REMSYN076AAXX  03151 33415 41396 82706 11020 21029 40202 57004 75685 886// 333 88709;
0202334150999992000010318004+49570+025600FM-12+032499999V0202701N007010024019N0040001N1-00201-00261102091ADDAA112001091AY181061AY251061GA1081+002409069GF108991081061002501999999KA1120M-00201MD1310071+9999MW1101REMSYN088AAXX  03181 33415 11396 82707 11020 21026 40209 53007 60012 71085 886// 333 11020 88708;
0166334150999992000010321004+49570+025600FM-12+032499999V0202701N007010015019N0010001N1-00181-00201102111ADDAY121031AY221031GA1081+001509069GF108991081061001501999999MD1210021+9999MW1101REMSYN076AAXX  03211 33415 41294 82707 11018 21020 40211 52002 71022 886// 333 88705;
0171334150999992000010400004+49570+025600FM-12+032499999V0202701N005010003019N0005001N1-00181-00181102071ADDAY141061AY221061GA1091+999999999GF109991091999999999999999MA1999999097951MD1810041+9999MW1471REMSYN066AAXX  04001 33415 41/93 92705 11018 21018 39795 40207 58004 74742;
0196334150999992000010403004+49570+025600FM-12+032499999V0202701N005010003019N0005001N1-00151-00151102071ADDAA106000091AY141031AY241031GA1091+999999999GF109991091999999999999999MD1410001+9999MW1491REMSYN076AAXX  04031 33415 31/93 92705 11015 21015 40207 54000 74944 555 21020 7001/;EQDQ01  00002PRCP06
0244334150999992000010406004+49570+025600FM-12+032499999V0202301N004010021019N0040001N1-00151-00201102131ADDAA106000091AJ100179199999999AY141061AY221061GA1081+002109069GF108991081061001501999999IA1239KA1120N-00201MD1310061+9999MW1101REMSYN088AAXX  04061 33415 31296 82304 11015 21020 40213 53006 71042 886// 333 21020 47017 88707;EQDQ01  00002PRCP06
0166334150999992000010409004+49570+025600FM-12+032499999V0202201N003010033019N0020001N1-00101-00171102141ADDAY171031AY221031GA1081+003309069GF108991081061004501999999MD1210031+9999MW1201REMSYN076AAXX  04091 33415 41495 82203 11010 21017 40214 52003 72072 886// 333 88711;
0187334150999992000010412004+49570+025600FM-12+032499999V0202201N004010039019N0040001N1+00041-00131102041ADDAY181061AY271061GA1051+003909099GF107991051031004501031001MA1999999097951MD1810091+9999MW1101REMSYN082AAXX  04121 33415 41496 72204 10004 21013 39795 40204 58009 71087 85330 333 85913;
0174334150999992000010418004+49570+025600FM-12+032499999V0202501N006010036019N0100001N1+00111-00181101991ADDAA112000791GA1061+003609059GF108991061051004501031999KA1120M+00111MD1410001+9999REMSYN082AAXX  04181 33415 32497 82506 10011 21018 40199 54000 69902 8653/ 333 10011 86612;
0138334150999992000010421004+49570+025600FM-12+032499999V0202701N00401002101CN0100001N1+00091-00021101971ADDGA1041+002409069GF108991081061002501999999MD1410001+9999REMSYN070AAXX  04211 33415 42397 82704 10009 21002 40197 54000 886// 333 84708;
0159334150999992000010500004+49570+025600FM-12+032499999V0202701N004010021019N0100001N1+00131+00051101951ADDGA1081+002109069GF108991081061002501999999MA1999999097891MD1810011+9999REMSYN076AAXX  05001 33415 41397 82704 10013 20005 39789 40195 58001 886// 333 88707;
0184334150999992000010503004+49570+025600FM-12+032499999V0202701N003010024019N0100001N1+00051-00031101881ADDAA106000091GA1071+002409079GF108991081061002501999999MD1710091+9999REMSYN086AAXX  05031 33415 32397 82703 10005 21003 40188 57009 886// 333 87708 555 20005 7990/;EQDQ01  00002PRCP06
0231334150999992000010506004+49570+025600FM-12+032499999V0202501N003010027019N0040001N1+00021-00071101791ADDAA112000791AJ100129199999999AY171061AY221061GA1081+002709069GF108991081061002501999999IA1279KA1120N+00021MD1710091+9999MW1771REMSYN094AAXX  05061 33415 11396 82503 10002 21007 40179 57009 69902 77772 886// 333 20002 43012 88709;
0166334150999992000010509004+49570+025600FM-12+032499999V0202001N006010030019N0040001N1+00041-00021101761ADDAY171031AY221031GA1061+003009059GF108991061051004501031999MD1710021+9999MW1221REMSYN076AAXX  05091 33415 41496 82006 10004 21002 40176 57002 72272 8653/ 333 86610;
0187334150999992000010512004+49570+025600FM-12+032499999V0202301N007010033019N0020001N1+00071+00011101641ADDAY181061AY271061GA1061+003309099GF108991061031004501031999MA1999999097571MD1710121+9999MW1831REMSYN082AAXX  05121 33415 41495 82307 10007 20001 39757 40164 57012 78387 8633/ 333 86911;
0166334150999992000010515004+49570+025600FM-12+032499999V0202501N006010360019N0100001N1+00041-00101101671ADDAY181031AY221031GA1041+007209099GF108991041031008001031999MD1310031+9999MW1021REMSYN076AAXX  05151 33415 41597 82506 10004 21010 40167 53003 70282 8433/ 333 84924;
0180334150999992000010518004+49570+025600FM-12+032499999V0202701N007010120019N0100001N1+00101-00101101701ADDAA112002091AY181061AY221061GF108991051031012501031999KA1999M+00101MD1210051+9999MW1021REMSYN082AAXX  05181 33415 11697 82707 10010 21010 40170 52005 60022 70282 8533/ 333 10010;
0140334150999992000010521004+49570+025600FM-12+032499999V0202701N009010360019N0100001N1+00081-00061101771ADDAY181031AY221031GF107991041031012501031001MD1210061+9999MW1851REMSYN066AAXX  05211 33415 41697 72709 10008 21006 40177 52006 78582 84330;
0182334150999992000010603004+49570+025600FM-12+032499999V0203201N006010045019N0100001N1+00041-00071101861ADDAY181031AY221031GA1051+004509099GF108991051031004501031999MD1210021+9999MW1261REMSYN092AAXX  06031 33415 41497 83206 10004 21007 40186 52002 72682 8533/ 333 85915 555 20003 7005/;
0230334150999992000010606004+49570+025600FM-12+032499999V0203201N006010039019N0040001N1+00031-00031102021ADDAA112003091AJ100109199999999AY181061AY221061GA1051+003909099GF108991051031004501031999IA1279KA1120N+00031MD1210151+9999MW1851REMSYN093AAXX  06061 33415 1149683206 10003 21003 40202 52015 60032 78582 8533/ 333 20003 43010 85913;
0166334150999992000010609004+49570+025600FM-12+032499999V0203201N005010045019N0040001N1+00011-00141102241ADDAY181031AY221031GA1061+004509099GF107991061031004501031001MD1210221+9999MW1101REMSYN076AAXX  06091 33415 41496 73205 10001 21014 40224 52022 71082 86330 333 86915;
0187334150999992000010612004+49570+025600FM-12+032499999V0203201N004010048019N0040001N1+00081-00061102311ADDAY181061AY221061GA1061+004809099GF107991061031004501031001MA1999999098231MD1210081+9999MW1101REMSYN082AAXX  06121 33415 41496 73204 10008 21006 39823 40231 52008 71082 86330 333 86916;
0166334150999992000010615004+49570+025600FM-12+032499999V0203601N003010027019N0040001N1+00021-00071102461ADDAY121031AY221031GA1081+002709069GF108991081061002501999999MD1210131+9999MW1101REMSYN076AAXX  06151 33415 41396 83603 10002 21007 40246 52013 71022 886// 333 88709;
0166334150999992000010621004+49570+025600FM-12+032499999V0203601N001010024019N0020001N1-00011-00041102661ADDAY121031AY221031GA1061+002409069GF108991081061002501999999MD1210091+9999MW1101REMSYN076AAXX  06211 33415 41395 83601 11001 21004 40266 52009 71022 886// 333 86708;
0187334150999992000010700004+49570+025600FM-12+032499999V0209999C000010021019N0020001N1-00031-00091102721ADDAY121061AY221061GA1081+002109069GF108991081061002501999999MA1999999098591MD1210041+9999MW1101REMSYN082AAXX  07001 33415 41395 80000 11003 21009 39859 40272 52004 71022 886// 333 88707;
0212334150999992000010703004+49570+025600FM-12+032499999V0209999C000010021019N0020001N1-00061-00121102691ADDAA106000091AY121031AY221031GA1081+002109079GF108991081061002501999999MD1810031+9999MW1101REMSYN092AAXX  07031 33415 31395 80000 11006 21012 40269 58003 71022 886// 333 88707 555 21006 7993/;EQDQ01  00002PRCP06
0244334150999992000010706004+49570+025600FM-12+032499999V0201801N002010021019N0020001N1-00121-00181102681ADDAA106000091AJ100109199999999AY121061AY221061GA1081+002109069GF108991081061002501999999IA1279KA1120N-00121MD1710021+9999MW1101REMSYN088AAXX  07061 33415 31395 81802 11012 21018 40268 57002 71022 886// 333 21012 43010 88707;EQDQ01  00002PRCP06
0150334150999992000010709004+49570+025600FM-12+032499999V0202001N003010003019N0005001N1-00281-00281102751ADDAY141031AY221031GA1091+999999999GF109991091999999999999999MD1310051+9999MW1491REMSYN060AAXX  07091 33415 41/93 92003 11028 21028 40275 53005 74942;
0187334150999992000010712004+49570+025600FM-12+032499999V0202001N004010036019N0100001N1-00161-00301102721ADDAY141061AY221061GA1071+003609059GF107991071051004501001001MA1999999098581MD1810011+9999MW1021REMSYN082AAXX  07121 33415 41497 72004 11016 21030 39858 40272 58001 70242 87500 333 87612;
0112334150999992000010715004+49570+025600FM-12+032499999V0201801N003012200019N0100001N1-00461-00591102771ADDGF103991031001999999031001MD1410001+9999REMSYN060AAXX  07151 33415 42997 31803 11046 21059 40277 54000 83030;
0203334150999992000010718004+49570+025600FM-12+032499999V0202001N003010003019N0005001N1-00461-00461102821ADDAA106000091AY141061AY211061GA1091+999999999GF109991091999999999999999KA1999M-00121MD1310051+9999MW1491REMSYN070AAXX  07181 33415 31/93 92003 11046 21046 40282 53005 74941 333 11012;EQDQ01  00002PRCP06
0150334150999992000010721004+49570+025600FM-12+032499999V0201801N003010003019N0005001N1-00621-00621102891ADDAY141031AY241031GA1091+999999999GF109991091999999999999999MD1210041+9999MW1491REMSYN060AAXX  07211 33415 41/93 91803 11062 21062 40289 52004 74944;
0187334150999992000010800004+49570+025600FM-12+032499999V0202301N002010045019N0100001N1-00581-00621102871ADDAY141061AY221061GA1071+004509059GF107991071051004501001001MA1999999098671MD1410001+9999MW1021REMSYN082AAXX  08001 33415 41497 72302 11058 21062 39867 40287 54000 70242 87500 333 87615;
0184334150999992000010803004+49570+025600FM-12+032499999V0201801N002010030019N0100001N1-00451-00511102861ADDAA106000091GA1081+003009079GF108991081061002501999999MD1410001+9999REMSYN086AAXX  08031 33415 32397 81802 11045 21051 40286 54000 886// 333 88710 555 21062 7000/;EQDQ01  00002PRCP06
0216334150999992000010806004+49570+025600FM-12+032499999V0201801N003010033019N0100001N1-00301-00401102811ADDAA106000091AJ100099199999999GA1081+003309069GF108991081061004501999999IA1279KA1120N-00621MD1810021+9999REMSYN082AAXX  08061 33415 32497 81803 11030 21040 40281 58002 886// 333 21062 43009 88711;EQDQ01  00002PRCP06
0166334150999992000010809004+49570+025600FM-12+032499999V0201801N001010033019N0040001N1-00201-00351102871ADDAY121031AY221031GA1081+003309059GF108991081051004501999999MD1310071+9999MW1101REMSYN076AAXX  08091 33415 41496 81801 11020 21035 40287 53007 71022 885// 333 88611;
0161334150999992000010812004+49570+025600FM-12+032499999V0201801N003010360019N0040001N1-00051-00231102771ADDAY121061AY221061GF107991021051008001031001MA1999999098641MD1810081+9999MW1101REMSYN072AAXX  08121 33415 41596 71803 11005 21023 39864 40277 58008 71022 82530;
0140334150999992000010815004+49570+025600FM-12+032499999V0201401N003019999999N0040001N1-00241-00401102771ADDAY121031AY221031GF107991071001999999031001MD1710031+9999MW1101REMSYN066AAXX  08151 33415 41996 71403 11024 21040 40277 57003 71022 87030;
0193334150999992000010818004+49570+025600FM-12+032499999V0201401N003019999999N0040001N1-00291-00421102791ADDAA106000091AY121061AY221061GF107991071001999999031001KA1999M-00041MD1310021+9999MW1101REMSYN076AAXX  08181 33415 31996 71403 11029 21042 40279 53002 71022 87030 333 11004;EQDQ01  00002PRCP06
0166334150999992000010821004+49570+025600FM-12+032499999V0201401N003010360019N0040001N1-00291-00391102811ADDAY121031AY221031GA1031+006609059GF107991031051008001031001MD1210021+9999MW1101REMSYN076AAXX  08211 33415 41596 71403 11029 21039 40281 52002 71022 83530 333 83622;
0161334150999992000010900004+49570+025600FM-12+032499999V0201401N001019999999N0040001N1-00311-00411102731ADDAY121061AY221061GF107991071001999999031001MA1999999098531MD1810121+9999MW1101REMSYN072AAXX  09001 33415 41996 71401 11031 21041 39853 40273 58012 71022 87030;
0170334150999992000010903004+49570+025600FM-12+032499999V0201401N002010360019N0040001N1-00321-00421102731ADDAA106000091AY121031AY221031GF107991021051008001031001MD1310031+9999MW1101REMSYN066AAXX  09031 33415 31596 71402 11032 21042 40273 53003 71022 82530;EQDQ01  00002PRCP06
0140334150999992000010909004+49570+025600FM-12+032499999V0201601N003019999999N0040001N1-00291-00421102781ADDAY121031AY221031GF107991071001999999031001MD1210041+9999MW1101REMSYN066AAXX  09091 33415 41996 71603 11029 21042 40278 52004 71022 87030;
0161334150999992000010912004+49570+025600FM-12+032499999V0201601N003019999999N0040001N1-00161-00401102721ADDAY121061AY221061GF107991071001999999031001MA1999999098581MD1810041+9999MW1101REMSYN072AAXX  09121 33415 41996 71603 11016 21040 39858 40272 58004 71022 87030;
0150334150999992000010915004+49570+025600FM-12+032499999V0201401N003010003019N0005001N1-00521-00521102801ADDAY141031AY221031GA1091+999999999GF109991091999999999999999MD1310021+9999MW1491REMSYN060AAXX  09151 33415 41/93 91403 11052 21052 40280 53002 74942;
0150334150999992000010921004+49570+025600FM-12+032499999V0201801N002010003019N0005001N1-00561-00561102851ADDAY141031AY221031GA1091+999999999GF109991091999999999999999MD1210031+9999MW1491REMSYN060AAXX  09211 33415 41/93 91802 11056 21056 40285 52003 74942;
0187334150999992000011000004+49570+025600FM-12+032499999V0201801N002010021019N0040001N1-00581-00621102921ADDAY141061AY221061GA1081+002109069GF108991081061002501999999MA1999999098711MD1210061+9999MW1101REMSYN082AAXX  10001 33415 41396 81802 11058 21062 39871 40292 52006 71042 886// 333 88707;
0212334150999992000011003004+49570+025600FM-12+032499999V0201901N002010021019N0040001N1-00551-00591102941ADDAA106000091AY121031AY221031GA1081+002109079GF108991081061002501999999MD1210021+9999MW1101REMSYN092AAXX  10031 33415 31396 81902 11055 21059 40294 52002 71022 886// 333 88707 555 21062 7000/;EQDQ01  00002PRCP06
0244334150999992000011006004+49570+025600FM-12+032499999V0201801N002010021019N0040001N1-00621-00661103001ADDAA106000091AJ100099199999999AY121061AY221061GA1081+002109069GF108991081061002501999999IA1279KA1120N-00631MD1210041+9999MW1101REMSYN088AAXX  10061 33415 31396 81802 11062 21066 40300 52004 71022 886// 333 21063 43009 88707;EQDQ01  00002PRCP06
0166334150999992000011009004+49570+025600FM-12+032499999V0202001N002010360019N0040001N1-00481-00541103031ADDAY121031AY221031GA1041+005109059GF107991041051004501031001MD1210061+9999MW1101REMSYN076AAXX  10091 33415 41496 72002 11048 21054 40303 52006 71022 84530 333 84617;
0187334150999992000011012004+49570+025600FM-12+032499999V0202501N004010360019N0040001N1-00171-00221102991ADDAY121061AY221061GA1041+003909059GF107991041051004501031001MA1999999098841MD1210011+9999MW1101REMSYN082AAXX  10121 33415 41496 72504 11017 21022 39884 40299 52001 71022 84530 333 84613;
0166334150999992000011015004+49570+025600FM-12+032499999V0202701N004010039019N0020001N1-00081-00151103051ADDAY181031AY221031GA1051+003909099GF107991051031004501031001MD1210071+9999MW1851REMSYN076AAXX  10151 33415 41495 72704 11008 21015 40305 52007 78582 85330 333 85913;
0202334150999992000011018004+49570+025600FM-12+032499999V0203201N006010360019N0040001N1-00021-00111103081ADDAA112002091AY181061AY221061GA1041+004209099GF107991041031004501031001KA1120M-00021MD1210041+9999MW1851REMSYN088AAXX  10181 33415 11496 73206 11002 21011 40308 52004 60022 78582 84330 333 11002 84914;
0166334150999992000011021004+49570+025600FM-12+032499999V0203201N006010360019N0040001N1-00021-00111103221ADDAY181031AY221031GA1041+004509099GF107991041031004501031001MD1210141+9999MW1851REMSYN076AAXX  10211 33415 41496 73206 11002 21011 40322 52014 78582 84330 333 84915;
0187334150999992000011100004+49570+025600FM-12+032499999V0203201N005010360019N0040001N1-00031-00151103271ADDAY181061AY221061GA1041+006009099GF107991041031008001031001MA1999999099221MD1210131+9999MW1101REMSYN082AAXX  11001 33415 41596 73205 11003 21015 39922 40327 52013 71082 84330 333 84920;
0182334150999992000011103004+49570+025600FM-12+032499999V0203201N004010360019N0040001N1-00061-00181103491ADDAY121031AY221031GA1041+004809069GF107991041051004501031001MD1210111+9999MW1101REMSYN092AAXX  11031 33415 41496 73204 11006 21018 40349 52011 71022 84530 333 84616 555 21007 7002/;
0231334150999992000011106004+49570+025600FM-12+032499999V0203201N005010360019N0040001N1-00071-00221103601ADDAA112000391AJ100109199999999AY121061AY221061GA1041+003909059GF107991041051004501031001IA1239KA1120N-00081MD1210111+9999MW1101REMSYN094AAXX  11061 33415 11496 73205 11007 21022 40360 52011 69932 71022 84530 333 21008 47010 84613;
0166334150999992000011109004+49570+025600FM-12+032499999V0203201N004010042019N0040001N1-00051-00171103741ADDAY181031AY221031GA1051+004209099GF107991051031004501031001MD1210131+9999MW1851REMSYN076AAXX  11091 33415 41496 73204 11005 21017 40374 52013 78582 85330 333 85914;
0187334150999992000011112004+49570+025600FM-12+032499999V0203201N003010360019N0040001N1-00021-00221103741ADDAY181061AY221061GA1041+006009099GF107991041031008001031001MA1999999099571MD1410001+9999MW1261REMSYN082AAXX  11121 33415 41596 73203 11002 21022 39957 40374 54000 72682 84330 333 84920;
0166334150999992000011115004+49570+025600FM-12+032499999V0203201N002010360019N0040001N1-00091-00281103781ADDAY181031AY221031GA1041+006309099GF107991041031008001031001MD1310041+9999MW1101REMSYN076AAXX  11151 33415 41596 73202 11009 21028 40378 53004 71082 84330 333 84921;
0202334150999992000011118004+49570+025600FM-12+032499999V0209999C000010360019N0040001N1-00141-00281103891ADDAA112000791AY181061AY221061GA1041+006009099GF107991041031008001031001KA1120M-00011MD1210101+9999MW1021REMSYN088AAXX  11181 33415 11596 70000 11014 21028 40389 52010 69902 70282 84330 333 11001 84920;
0166334150999992000011121004+49570+025600FM-12+032499999V0209999C000010360019N0040001N1-00271-00401103951ADDAY121031AY221031GA1041+005709059GF107991041051008001031001MD1210031+9999MW1101REMSYN076AAXX  11211 33415 41596 70000 11027 21040 40395 52003 71022 84530 333 84619;
0187334150999992000011200004+49570+025600FM-12+032499999V0209999V002010360019N0040001N1-00291-00421104021ADDAY121061AY221061GA1041+005709059GF107991041051008001031001MA1999999099811MD1210071+9999MW1101REMSYN082AAXX  12001 33415 41596 79902 11029 21042 39981 40402 52007 71022 84530 333 84619;
0212334150999992000011203004+49570+025600FM-12+032499999V0203201N002010033019N0040001N1-00241-00331103971ADDAA106000091AY121031AY221031GA1081+003309069GF108991081051004501999999MD1810051+9999MW1101REMSYN092AAXX  12031 33415 31496 83202 11024 21033 40397 58005 71022 885// 333 88611 555 21030 7990/;EQDQ01  00002PRCP06
0210334150999992000011206004+49570+025600FM-12+032499999V0209999C000019999999N0005001N1-00241-00241999999ADDAA106000091AJ100109199999999AY141061AY221061GF108991999999999999999999IA1239KA1120N-00301MD1710021+9999MW1491REMSYN070AAXX  12061 33415 31/93 80000 11024 21024 57002 74942 333 21030 47010;EQDQ01  00002PRCP06
0166334150999992000011209004+49570+025600FM-12+032499999V0209999C000010012019N0010001N1-00221-00251103971ADDAY141031AY221031GA1081+001209069GF108991081061001501999999MD1310021+9999MW1281REMSYN076AAXX  12091 33415 41294 80000 11022 21025 40397 53002 72842 886// 333 88704;
0187334150999992000011212004+49570+025600FM-12+032499999V0209999C000010027019N0040001N1-00081-00121103881ADDAY141061AY221061GA1081+002709069GF108991081061002501999999MA1999999099701MD1810061+9999MW1101REMSYN082AAXX  12121 33415 41396 80000 11008 21012 39970 40388 58006 71042 886// 333 88709;
0166334150999992000011215004+49570+025600FM-12+032499999V0209999C000010027019N0040001N1-00231-00291103861ADDAY121031AY221031GA1081+002709069GF108991081061002501999999MD1710041+9999MW1101REMSYN076AAXX  12151 33415 41396 80000 11023 21029 40386 57004 71022 886// 333 88709;
0215334150999992000011218004+49570+025600FM-12+032499999V0200901N002010024019N0040001N1-00421-00511103811ADDAA106000091AY121061AY221061GA1061+002409069GF108991061071002501031999KA1120M-00081MD1710081+9999MW1101REMSYN082AAXX  12181 33415 31396 80902 11042 21051 40381 57008 71022 8673/ 333 11008 86708;EQDQ01  00002PRCP06
0166334150999992000011221004+49570+025600FM-12+032499999V0201601N004010021019N0020001N1-00451-00481103771ADDAY121031AY221031GA1081+002109069GF108991081061002501999999MD1710041+9999MW1101REMSYN076AAXX  12211 33415 41395 81604 11045 21048 40377 57004 71022 886// 333 88707;
0171334150999992000011300004+49570+025600FM-12+032499999V0201101N004010003019N0005001N1-00511-00511103791ADDAY141061AY221061GA1091+999999999GF109991091999999999999999MA1999999099541MD1410001+9999MW1491REMSYN066AAXX  13001 33415 41/93 91104 11051 21051 39954 40379 54000 74942;
0196334150999992000011303004+49570+025600FM-12+032499999V0201601N005010003019N0005001N1-00801-00801103741ADDAA106000091AY141031AY241031GA1091+999999999GF109991091999999999999999MD1810091+9999MW1491REMSYN076AAXX  13031 33415 31/93 91605 11080 21080 40374 58009 74944 555 21082 7000/;EQDQ01  00002PRCP06
0232334150999992000011306004+49570+025600FM-12+032499999V0201601N004010003019N0005001N1-00751-00751103681ADDAA106000091AJ100109199999999AY141061AY241061GA1091+999999999GF109991091999999999999999IA1239KA1120N-00821MD1710041+9999MW1491REMSYN076AAXX  13061 33415 31/93 91604 11075 21075 40368 57004 74944 333 21082 47010;EQDQ01  00002PRCP06
0166334150999992000011309004+49570+025600FM-12+032499999V0201801N003010012019N0010001N1-00651-00701103731ADDAY141031AY221031GA1081+001209069GF108991081061001501999999MD1310071+9999MW1101REMSYN076AAXX  13091 33415 41294 81803 11065 21070 40373 53007 71042 886// 333 88704;
0187334150999992000011312004+49570+025600FM-12+032499999V0201601N004010018019N0040001N1-00621-00701103541ADDAY141061AY221061GA1081+001809069GF108991081061002501999999MA1999999099291MD1810191+9999MW1101REMSYN082AAXX  13121 33415 41396 81604 11062 21070 39929 40354 58019 71042 886// 333 88706;
0166334150999992000011315004+49570+025600FM-12+032499999V0201501N004010021019N0040001N1-00651-00731103461ADDAY121031AY221031GA1081+002109069GF108991081061002501999999MD1710081+9999MW1101REMSYN076AAXX  13151 33415 41396 81504 11065 21073 40346 57008 71022 886// 333 88707;
0215334150999992000011318004+49570+025600FM-12+032499999V0201401N004010015019N0010001N1-00751-00811103411ADDAA106000091AY121061AY221061GA1081+001509069GF108991081061001501999999KA1120M-00601MD1710061+9999MW1101REMSYN082AAXX  13181 33415 31294 81404 11075 21081 40341 57006 71022 886// 333 11060 88705;EQDQ01  00002PRCP06
0170334150999992000011321004+49570+025600FM-12+032499999V0201401N004010015019N0010001N1-00771-00831103391ADDAY121031AY221031GA1081+001509069GF108991081061001501999999MD1710021+9999MW1101REMSYN080    AAXX  13211 33415 41294 81404 11077 21083 40339 57002 71022 886// 333 88705;
0191334150999992000011400004+49570+025600FM-12+032499999V0201601N003010015019N0010001N1-00771-00831103381ADDAY121061AY221061GA1081+001509069GF108991081061001501999999MA1999999099121MD1710011+9999MW1101REMSYN086    AAXX  14001 33415 41294 81603 11077 21083 39912 40338 57001 71022 886// 333 88705;
0216334150999992000011403004+49570+025600FM-12+032499999V0201401N002010015019N0010001N1-00761-00811103241ADDAA199000091AY121031AY221031GA1081+001509079GF108991081061001501999999MD1710131+9999MW1101REMSYN096    AAXX  14031 33415 31294 81402 11076 21081 40324 57013 71022 886// 333 88705 555 21078 7000/;EQDQ01  00002PRCP99
0248334150999992000011406004+49570+025600FM-12+032499999V0201401N003010018019N0020001N1-00661-00741103201ADDAA199000091AJ100109199999999AY121061AY221061GA1081+001809069GF108991081061001501999999IA1279KA1120N-00781MD1710031+9999MW1101REMSYN092    AAXX  14061 33415 31295 81403 11066 21074 40320 57003 71022 886// 333 21078 43010 88706;EQDQ01  00002PRCP99
0170334150999992000011409004+49570+025600FM-12+032499999V0201401N003010015019N0020001N1-00751-00811103241ADDAY121031AY221031GA1081+001509069GF108991081061001501999999MD1310031+9999MW1101REMSYN080    AAXX  14091 33415 41295 81403 11075 21081 40324 53003 71022 886// 333 88705;
0191334150999992000011412004+49570+025600FM-12+032499999V0201601N002010009019N0010001N1-00821-00841103221ADDAY121061AY221061GA1081+000909069GF108991081061001501999999MA1999999098951MD1810041+9999MW1101REMSYN086    AAXX  14121 33415 41294 81602 11082 21084 39895 40322 58004 71022 886// 333 88703;
0170334150999992000011415004+49570+025600FM-12+032499999V0201601N004010012019N0010001N1-00841-00871103181ADDAY121031AY221031GA1081+001209069GF108991081061001501999999MD1710041+9999MW1101REMSYN080    AAXX  14151 33415 41294 81604 11084 21087 40318 57004 71022 886// 333 88704;
0219334150999992000011418004+49570+025600FM-12+032499999V0201601N004010012019N0010001N1-00741-00801103161ADDAA199000091AY121061AY221061GA1081+001209069GF108991081061001501999999KA1120M-00661MD1410001+9999MW1101REMSYN086    AAXX  14181 33415 31294 81604 11074 21080 40316 54000 71022 886// 333 11066 88704;EQDQ01  00002PRCP99
0170334150999992000011421004+49570+025600FM-12+032499999V0201801N002010018019N0040001N1-00651-00731103021ADDAY121031AY221031GA1081+001809069GF108991081061001501999999MD1810121+9999MW1101REMSYN080    AAXX  14211 33415 41296 81802 11065 21073 40302 58012 71022 886// 333 88706;
0191334150999992000011500004+49570+025600FM-12+032499999V0201601N002010018019N0040001N1-00591-00661102951ADDAY121061AY221061GA1081+001809069GF108991081061001501999999MA1999999098721MD1710061+9999MW1101REMSYN086    AAXX  15001 33415 41296 81602 11059 21066 39872 40295 57006 71022 886// 333 88706;
0186334150999992000011503004+49570+025600FM-12+032499999V0201601N00201001201CN0020001N1-00591-00631102971ADDAY181031AY221031GA1031+001809079GF108991061031001501031999MD1310021+9999MW1851REMSYN096    AAXX  15031 33415 41295 81602 11059 21063 40297 53002 78582 8633/ 333 83706 555 21074 7002/;
0235334150999992000011506004+49570+025600FM-12+032499999V0202301N002010063019N0040001N1-00621-00701102861ADDAA112002091AJ100129199999999AY181061AY221061GA1051+006309099GF108991051031008001031999IA1239KA1120N-00741MD1810101+9999MW1851REMSYN098    AAXX  15061 33415 11596 82302 11062 21070 40286 58010 60022 78582 8533/ 333 21074 47012 85921;
0170334150999992000011509004+49570+025600FM-12+032499999V0202301N003010360019N0040001N1-00491-00621102841ADDAY181031AY221031GA1031+008109059GF107991031051008001031001MD1310011+9999MW1101REMSYN080    AAXX  15091 33415 41596 72303 11049 21062 40284 53001 71082 83530 333 83627;
0191334150999992000011512004+49570+025600FM-12+032499999V0202701N003010360019N0040001N1-00361-00541102711ADDAY181061AY221061GA1041+008709059GF107991041051008001031001MA1999999098541MD1810111+9999MW1101REMSYN086    AAXX  15121 33415 41596 72703 11036 21054 39854 40271 58011 71082 84530 333 84629;
0170334150999992000011515004+49570+025600FM-12+032499999V0202901N004010051019N0040001N1-00371-00521102641ADDAY121031AY221031GA1051+005109059GF107991051051004501031001MD1710061+9999MW1101REMSYN080    AAXX  15151 33415 41496 72904 11037 21052 40264 57006 71022 85530 333 85617;
0200334150999992000011518004+49570+025600FM-12+032499999V0202701N006010360019N0040001N1-00421-00611102691ADDAA199000021AY121061AY221061GA1041+006009059GF107991041051008001031001KA1120M-00341MD1310021+9999MW1101REMSYN086    AAXX  15181 33415 31596 72706 11042 21061 40269 53002 71022 84530 333 11034 84620;
0142334150999992000011521004+49570+025600FM-12+032499999V0202901N006010096019N0100001N1-00421-00721102651ADDGA1051+009609059GF107991051051008001031001MD1810031+9999REMSYN074    AAXX  15211 33415 41597 72906 11042 21072 40265 58003 85530 333 85632;
0191334150999992000011600004+49570+025600FM-12+032499999V0202701N003010069019N0040001N1-00441-00641102591ADDAY121061AY221061GA1061+006909059GF107991061051008001031001MA1999999098411MD1710061+9999MW1101REMSYN086    AAXX  16001 33415 41596 72703 11044 21064 39841 40259 57006 71022 86530 333 86623;
0216334150999992000011603004+49570+025600FM-12+032499999V0202701N005010084019N0040001N1-00471-00671102621ADDAA199000091AY121031AY221031GA1061+008409069GF108991061051008001031999MD1310031+9999MW1101REMSYN096    AAXX  16031 33415 31596 82705 11047 21067 40262 53003 71022 8653/ 333 86628 555 21048 7990/;EQDQ01  00002PRCP99
0235334150999992000011606004+49570+025600FM-12+032499999V0202901N004010051019N0040001N1-00511-00801102611ADDAA112000791AJ100129199999999AY181061AY221061GA1061+005109099GF108991061031004501031999IA1239KA1120N-00511MD1810031+9999MW1851REMSYN098    AAXX  16061 33415 11496 82904 11051 21080 40261 58003 69902 78582 8633/ 333 21051 47012 86917;
0170334150999992000011609004+49570+025600FM-12+032499999V0203101N004010036019N0020001N1-00451-00581102661ADDAY181031AY281031GA1081+003609059GF108991061031004501071999MD1310071+9999MW1851REMSYN080    AAXX  16091 33415 41495 83104 11045 21058 40266 53007 78588 8637/ 333 88612;
0191334150999992000011612004+49570+025600FM-12+032499999V0203201N004010042019N0020001N1-00461-00621102671ADDAY181061AY281061GA1061+004209099GF108991061031004501071999MA1999999098491MD1210011+9999MW1851REMSYN086    AAXX  16121 33415 41495 83204 11046 21062 39849 40267 52001 78588 8637/ 333 86914;
0170334150999992000011615004+49570+025600FM-12+032499999V0203101N003010033019N0020001N1-00471-00641102671ADDAY181031AY221031GA1061+003309069GF108991061071004501021999MD1410001+9999MW1711REMSYN080    AAXX  16151 33415 41495 83103 11047 21064 40267 54000 77182 8672/ 333 86711;
0206334150999992000011618004+49570+025600FM-12+032499999V0202701N003010036019N0040001N1-00501-00711102671ADDAA112002091AY181061AY221061GA1081+003609059GF108991081051004501999999KA1120M-00431MD1810021+9999MW1101REMSYN092    AAXX  16181 33415 11496 82703 11050 21071 40267 58002 60022 71082 885// 333 11043 88612;
0144334150999992000011621004+49570+025600FM-12+032499999V0202501N003019999999N0040001N1-00971-01091102561ADDAY121031AY221031GF105991001001999999001011MD1710171+9999MW1101REMSYN070    AAXX  16211 33415 41996 52503 11097 21109 40256 57017 71022 80001;
0165334150999992000011700004+49570+025600FM-12+032499999V0202501N004019999999N0040001N1-01091-01221102161ADDAY121061AY221061GF106991031001999999031011MA1999999097891MD1710411+9999MW1101REMSYN076    AAXX  17001 33415 41996 62504 11109 21122 39789 40216 57041 71022 83031;
0216334150999992000011703004+49570+025600FM-12+032499999V0202301N006010048019N0040001N1-00731-00861101542ADDAA199000021AY121031AY221031GA1061+004809069GF107991061051004501031001MD1710531+9999MW1101REMSYN096    AAXX  17031 33415 31496 72306 11073 21086 40154 57053 71022 86530 333 86616 555 21110 7002/;EQDQ01+101543APOSLP
0248334150999992000011706004+49570+025600FM-12+032499999V0202401N009010084019N0100001N1-00571-00831100941ADDAA199000091AJ100139199999999AY131061AY221061GA1061+008409059GF107991061051008001031001IA1239KA1120N-01101MD1710551+9999MW1361REMSYN092    AAXX  17061 33415 31597 72409 11057 21083 40094 57055 73632 86530 333 21110 47013 86628;EQDQ01  00002PRCP99
0170334150999992000011709004+49570+025600FM-12+032499999V0202501N009010039019N0100001N1-00381-00601100231ADDAY181031AY231031GA1061+003909099GF108991061031004501031999MD1710651+9999MW1851REMSYN080    AAXX  17091 33415 41497 82509 11038 21060 40023 57065 78583 8633/ 333 86913;
0191334150999992000011712004+49570+025600FM-12+032499999V0202401N008010021019N0005001N1-00281-00441099611ADDAY181061AY231061GA1041+002109069GF108991061031002501031999MA1999999095581MD1710581+9999MW1861REMSYN086    AAXX  17121 33415 41393 82408 11028 21044 39558 49961 57058 78683 8633/ 333 84707;
0170334150999992000011715004+49570+025600FM-12+032499999V0202501N008010021019N0010001N1-00121-00221099251ADDAY181031AY231031GA1041+002109099GF108991061031002501031999MD1710331+9999MW1861REMSYN080    AAXX  17151 33415 41394 82508 11012 21022 49925 57033 78683 8633/ 333 84907;
0206334150999992000011718004+49570+025600FM-12+032499999V0202701N00801002101CN0100001N1-00121-00251099111ADDAA112004191AY181061AY231061GA1031+003009069GF108991061031002501031999KA1120M-00061MD1710141+9999MW1021REMSYN092    AAXX  17181 33415 11397 82708 11012 21025 49911 57014 60042 70283 8633/ 333 11006 83710;
0142334150999992000011721004+49570+025600FM-12+032499999V0202801N008010039019N0100001N1-00141-00281098931ADDGA1051+003909059GF107991051051004501031001MD1710171+9999REMSYN074    AAXX  17211 33415 42497 72808 11014 21028 49893 57017 85530 333 85613;
0163334150999992000011800004+49570+025600FM-12+032499999V0202801N009010042019N0100001N1-00181-00361098851ADDGA1051+004209059GF107991051051004501031001MA1999999094871MD1710091+9999REMSYN080    AAXX  18001 33415 42497 72809 11018 21036 39487 49885 57009 85530 333 85614;
0169334150999992000011803004+49570+025600FM-12+032499999V02099999999990360019N0100001N1-00241-00461098991ADDAA199000021GA1041+004809069GF107991041051004501031001MD1310111+9999REMSYN090    AAXX  18031 33415 32497 7307/ 11024 21046 49899 53011 84530 333 84616 555 21025 7004/;
0235334150999992000011806004+49570+025600FM-12+032499999V0202801N00801002101CN0040001N1-00261-00391098861ADDAA112000891AJ100149199999999AY181061AY221061GA1031+002709069GF108991061031002501031999IA1249KA1120N-00271MD1810121+9999MW1851REMSYN098    AAXX  18061 33415 11396 82808 11026 21039 49886 58012 69972 78582 8633/ 333 21027 48014 83709;
0170334150999992000011809004+49570+025600FM-12+032499999V0202901N008010039019N0040001N1-00191-00371098851ADDAY181031AY281031GA1061+003909099GF107991071031004501031001MD1710021+9999MW1851REMSYN080    AAXX  18091 33415 41496 72908 11019 21037 49885 57002 78588 87330 333 86913;
0191334150999992000011812004+49570+025600FM-12+032499999V0202901N009010033019N0020001N1-00181-00291098811ADDAY181061AY231061GA1081+003309099GF108991081031004501999999MA1999999094831MD1710011+9999MW1851REMSYN086    AAXX  18121 33415 41495 82909 11018 21029 39483 49881 57001 78583 883// 333 88911;
0170334150999992000011815004+49570+025600FM-12+032499999V0202901N011010030019N0020001N1-00211-00301098911ADDAY181031AY231031GA1061+003009099GF107991061031004501031001MD1310071+9999MW1851REMSYN080    AAXX  18151 33415 41495 72911 11021 21030 49891 53007 78583 86330 333 86910;
0206334150999992000011818004+49570+025600FM-12+032499999V0202901N011010030019N0020001N1-00211-00301099011ADDAA112001091AY181061AY231061GA1061+003009099GF107991061091004501011001KA1120M-00151MD1210101+9999MW1851REMSYN092    AAXX  18181 33415 11495 72911 11021 21030 49901 52010 60012 78583 86910 333 11015 86910;
0170334150999992000011821004+49570+025600FM-12+032499999V0202901N010010033019N0020001N1-00241-00331099111ADDAY181031AY231031GA1061+003309099GF107991061031004501031001MD1210101+9999MW1851REMSYN080    AAXX  18211 33415 41495 72910 11024 21033 49911 52010 78583 86330 333 86911;
0191334150999992000011900004+49570+025600FM-12+032499999V0202901N006010036019N0040001N1-00261-00391099261ADDAY181061AY231061GA1061+003609099GF107991061031004501031001MA1999999095251MD1210151+9999MW1851REMSYN086    AAXX  19001 33415 41496 72906 11026 21039 39525 49926 52015 78583 86330 333 86912;
0186334150999992000011903004+49570+025600FM-12+032499999V0202901N006010039019N0040001N1-00411-00571099571ADDAY181031AY281031GA1061+003909099GF107991061031004501031001MD1210261+9999MW1851REMSYN096    AAXX  19031 33415 41496 72906 11041 21057 49957 52026 78588 86330 333 86913 555 21041 7004/;
0235334150999992000011906004+49570+025600FM-12+032499999V0202901N009010039019N0020001N1-00531-00671099881ADDAA112003091AJ100169199999999AY181061AY231061GA1081+003909099GF108991081031004501999999IA1249KA1120N-00531MD1210291+9999MW1851REMSYN098    AAXX  19061 33415 11495 82909 11053 21067 49988 52029 60032 78583 883// 333 21053 48016 88913;
0170334150999992000011909004+49570+025600FM-12+032499999V0202901N006010075019N0040001N1-00511-00721100151ADDAY181031AY231031GA1061+007509099GF108991061031008001031001MD1210261+9999MW1851REMSYN080    AAXX  19091 33415 41596 82906 11051 21072 40015 52026 78583 86330 333 86925;
0191334150999992000011912004+49570+025600FM-12+032499999V0202901N006010054019N0040001N1-00461-00701100231ADDAY181061AY231061GA1061+005409099GF108991061031004501031999MA1999999096141MD1210081+9999MW1381REMSYN086    AAXX  19121 33415 41496 82906 11046 21070 39614 40023 52008 73883 8633/ 333 86918;
0170334150999992000011915004+49570+025600FM-12+032499999V0202901N006010030019N0020001N1-00501-00631100411ADDAY181031AY231031GA1081+003009099GF108991081031004501999999MD1210161+9999MW1851REMSYN080    AAXX  19151 33415 41495 82906 11050 21063 40041 52016 78583 883// 333 88910;
0202334150999992000011918004+49570+025600FM-12+032499999V0202901N007010360019N0040001N1-00651-00971100701ADDAA112001091AY181061AY231061GA1031+006609099GF107991031031008001031001KA1120M-00461MD1210271+9999MW1361REMSYN088AAXX  19181 33415 11596 72907 11065 21097 40070 52027 60012 73683 83330 333 11046 83922;
0166334150999992000011921004+49570+025600FM-12+032499999V0202901N008010048019N0040001N1-00751-00971100911ADDAY181031AY231031GA1061+004809099GF108991061031004501031999MD1210181+9999MW1851REMSYN076AAXX  19211 33415 41496 82908 11075 21097 40091 52018 78583 8633/ 333 86916;
0187334150999992000012000004+49570+025600FM-12+032499999V0202901N007010360019N0100001N1-00801-01071101121ADDAY181061AY231061GA1031+003009099GF106991031031008001031001MA1999999096941MD1210191+9999MW1021REMSYN082AAXX  20001 33415 41597 62907 11080 21107 39694 40112 52019 70283 83330 333 83910;
0156334150999992000012003004+49570+025600FM-12+032499999V0202901N006012200019N0100001N1-00951-01301101321ADDAY131031AY211031GF102991021031008001001001MD1210171+9999MW1361REMSYN082AAXX  20031 33415 41597 22906 11095 21130 40132 52017 73631 82300 555 21097 7001/;
0231334150999992000012006004+49570+025600FM-12+032499999V0202701N005010360019N0100001N1-00991-01251101371ADDAA112000791AJ100179199999999AY131061AY211061GA1041+006909099GF107991041031008001031001IA1249KA1120N-01041MD1210041+9999MW1361REMSYN094AAXX  20061 33415 11597 72705 11099 21125 40137 52004 69902 73631 84330 333 21104 48017 84923;
0140334150999992000012009004+49570+025600FM-12+032499999V0202701N009010360019N0100001N1-00571-00831101411ADDAY181031AY221031GF106991021031008001031001MD1210121+9999MW1361REMSYN066AAXX  20091 33415 41597 62709 11057 21083 40141 52012 73682 82330;
0187334150999992000012012004+49570+025600FM-12+032499999V0202701N007010048019N0020001N1-00441-00671101231ADDAY131061AY221061GA1061+004809099GF107991061031004501031001MA1999999097101MD1810171+9999MW1851REMSYN082AAXX  20121 33415 41495 72707 11044 21067 39710 40123 58017 78532 86330 333 86916;
0140334150999992000012015004+49570+025600FM-12+032499999V0202501N007010360019N0100001N1-00411-00751100981ADDAY181031AY231031GF106991021031008001031001MD1710231+9999MW1361REMSYN066AAXX  20151 33415 41597 62507 11041 21075 40098 57023 73683 82330;
0180334150999992000012018004+49570+025600FM-12+032499999V0202401N010019999999N0100001N1-00391-00881100691ADDAA112000191AY181061AY231061GF106991041001999999031011KA1999M-00391MD1710281+9999MW1371REMSYN082AAXX  20181 33415 11997 62410 11039 21088 40069 57028 69922 73783 84031 333 11039;
0159334150999992000012021004+49570+025600FM-12+032499999V0202501N009019999999N0100001N1-00371-00521100331ADDAY131031AY231031GF107991999071999999999999MD1710331+9999MW1381REMSYN066AAXX  20211 33415 41997 72509 11037 21052 40033 57033 73833 887//;EQDQ01+000082SCOTLC
0161334150999992000012100004+49570+025600FM-12+032499999V0202501N010019999999N0020001N1-00371-00481100011ADDAY171061AY221061GF108991081001999999021999MA1999999095951MD1710311+9999MW1731REMSYN072AAXX  21001 33415 41995 82510 11037 21048 39595 40001 57031 77372 8802/;
0182334150999992000012103004+49570+025600FM-12+032499999V0202501N008010024019N0010001N1-00331-00371099551ADDAY171031AY231031GA1071+002409079GF108991071071002501021999MD1710451+9999MW1731REMSYN092AAXX  21031 33415 11394 82508 11033 21037 49955 57045 77373 8772/ 333 87708 555 21040 7003/;
0231334150999992000012106004+49570+025600FM-12+032499999V0202501N007010024019N0020001N1-00171-00221099331ADDAA112005191AJ100179199999999AY171061AY231061GA1071+002409069GF108991071071002501021999IA1239KA1120N-00401MD1710181+9999MW1731REMSYN094AAXX  21061 33415 11395 82507 11017 21022 49933 57018 60052 77373 8772/ 333 21040 47017 87708;
0166334150999992000012109004+49570+025600FM-12+032499999V0203201N008010360019N0100001N1-00361-00681099451ADDAY171031AY231031GA1041+007509099GF107991041031008001031001MD1310091+9999MW1021REMSYN076AAXX  21091 33415 41597 73208 11036 21068 49945 53009 70273 84330 333 84925;
0187334150999992000012112004+49570+025600FM-12+032499999V0203201N006010048019N0040001N1-00501-00861099561ADDAY181061AY221061GA1051+004809099GF108991051031004501031999MA1999999095491MD1210081+9999MW1851REMSYN082AAXX  21121 33415 41496 83206 11050 21086 39549 49956 52008 78582 8533/ 333 85916;
0166334150999992000012115004+49570+025600FM-12+032499999V0203201N003010045019N0100001N1-00601-00751099751ADDAY181031AY221031GA1051+004509099GF107991051031004501031001MD1210171+9999MW1261REMSYN076AAXX  21151 33415 41497 73203 11060 21075 49975 52017 72682 85330 333 85915;
0202334150999992000012118004+49570+025600FM-12+032499999V0203201N006010072019N0100001N1-00781-00961100061ADDAA112003091AY181061AY221061GA1051+007209099GF107991051031008001031001KA1120M-00171MD1210261+9999MW1021REMSYN088AAXX  21181 33415 11597 73206 11078 21096 40006 52026 60032 70282 85330 333 11017 85924;
0166334150999992000012121004+49570+025600FM-12+032499999V0203201N008010075019N0100001N1-00881-01031100461ADDAY131031AY221031GA1051+007509059GF107991051051008001031001MD1210371+9999MW1361REMSYN076AAXX  21211 33415 41597 73208 11088 21103 40046 52037 73632 85530 333 85625;
0161334150999992000012200004+49570+025600FM-12+032499999V0202901N008019999999N0100001N1-01241-01441100791ADDAY181061AY231061GF106991041001999999031011MA1999999096561MD1210271+9999MW1361REMSYN072AAXX  22001 33415 41997 62908 11124 21144 39656 40079 52027 73683 84031;
0182334150999992000012203004+49570+025600FM-12+032499999V0202501N004010039019N0020001N1-00961-01081100831ADDAY181031AY231031GA1051+003909099GF108991051031004501031999MD1210091+9999MW1851REMSYN092AAXX  22031 33415 41495 82504 11096 21108 40083 52009 78583 8533/ 333 85913 555 21124 7006/;
0231334150999992000012206004+49570+025600FM-12+032499999V0203201N008010039019N0020001N1-01041-01241101071ADDAA112001091AJ100189199999999AY181061AY231061GA1051+003909099GF108991051031004501031999IA1239KA1120N-01241MD1210211+9999MW1851REMSYN094AAXX  22061 33415 11495 83208 11104 21124 40107 52021 60012 78583 8533/ 333 21124 47018 85913;
0166334150999992000012209004+49570+025600FM-12+032499999V0202501N007012200019N0100001N1-01191-01541101311ADDAY181031AY231031GA1031+006009099GF103991031031004501001001MD1210261+9999MW1361REMSYN076AAXX  22091 33415 41497 32507 11119 21154 40131 52026 73683 83300 333 83920;
0171334150999992000012212004+49570+025600FM-12+032499999V0202701N008012200019N0100001N1-00951-01461101341ADDAY181061AY231061GA1001+999999999GF100991001001999999001001MA1999999097131MD1210011+9999MW1361REMSYN066AAXX  22121 33415 41997 02708 11095 21146 39713 40134 52001 73683;
0140334150999992000012215004+49570+025600FM-12+032499999V0202701N005012200019N0100001N1-01021-01461101421ADDAY131031AY201031GF102991021001999999031001MD1210071+9999MW1021REMSYN066AAXX  22151 33415 41997 22705 11102 21146 40142 52007 70230 82030;
0162334150999992000012218004+49570+025600FM-12+032499999V0202501N005012200019N0100001N1-01271-01621101521ADDAA112000791GA1001+999999999GF100991001001999999001001KA1999M-00911MD1210051+9999REMSYN070AAXX  22181 33415 12997 02505 11127 21162 40152 52005 69902 333 11091;
0112334150999992000012221004+49570+025600FM-12+032499999V0209999C000012200019N0100001N1-01581-01921101641ADDGF103991031001999999031001MD1210061+9999REMSYN060AAXX  22211 33415 42997 30000 11158 21192 40164 52006 83030;
0133334150999992000012300004+49570+025600FM-12+032499999V0209999C000012200019N0100001N1-01821-02081101621ADDGF101991011001999999031001MA1999999097261MD1810051+9999REMSYN066AAXX  23001 33415 42997 10000 11182 21208 39726 40162 58005 81030;
0158334150999992000012303004+49570+025600FM-12+032499999V0209999C000012200019N0100001N1-02061-02251101691ADDAA199000091GF103991031001999999031001MD1310021+9999REMSYN076AAXX  23031 33415 32997 30000 11206 21225 40169 53002 83030 555 21207 7994/;EQDQ01  00002PRCP99
0194334150999992000012306004+49570+025600FM-12+032499999V0209999C000019999999N0100001N1-01981-02171101721ADDAA199000091AJ100149199999999GF107991071001999999031001IA1249KA1120N-02081MD1210041+9999REMSYN076AAXX  23061 33415 32997 70000 11198 21217 40172 52004 87030 333 21208 48014;EQDQ01  00002PRCP99
0112334150999992000012309004+49570+025600FM-12+032499999V0209999C000019999999N0100001N1-01511-01781101671ADDGF107991041001999999031011MD1210031+9999REMSYN060AAXX  23091 33415 42997 70000 11151 21178 40167 52003 84031;
0133334150999992000012312004+49570+025600FM-12+032499999V0209999C000019999999N0100001N1-01361-01711101561ADDGF107991001001999999001011MA1999999097291MD1810061+9999REMSYN066AAXX  23121 33415 42997 70000 11136 21171 39729 40156 58006 80001;
0112334150999992000012315004+49570+025600FM-12+032499999V0209999C000019999999N0100001N1-01181-01701101581ADDGF107991041001999999031011MD1310021+9999REMSYN060AAXX  23151 33415 42997 70000 11118 21170 40158 53002 84031;
0165334150999992000012318004+49570+025600FM-12+032499999V0209999V001019999999N0100001N1-01291-01721101621ADDAA199000091GF107991071001999999031001KA1999M-01141MD1210031+9999REMSYN070AAXX  23181 33415 32997 79901 11129 21172 40162 52003 87030 333 11114;EQDQ01  00002PRCP99
0112334150999992000012321004+49570+025600FM-12+032499999V0203601N003019999999N0100001N1-01501-01841101681ADDGF107991071001999999031001MD1210021+9999REMSYN060AAXX  23211 33415 42997 73603 11150 21184 40168 52002 87030;
0133334150999992000012400004+49570+025600FM-12+032499999V0203401N003019999999N0100001N1-01631-01891101701ADDGF107991071001999999031001MA1999999097391MD1210031+9999REMSYN066AAXX  24001 33415 42997 73403 11163 21189 39739 40170 52003 87030;
0212334150999992000012403004+49570+025600FM-12+032499999V0203601N002010045019N0040001N1-01441-01641101691ADDAA199000091AY121031AY221031GA1051+004509069GF108991051051004501031999MD1410001+9999MW1101REMSYN092AAXX  24031 33415 31496 83602 11144 21164 40169 54000 71022 8553/ 333 85615 555 21164 7000/;EQDQ01  00002PRCP99
0194334150999992000012406004+49570+025600FM-12+032499999V0203601N005010360019N0100001N1-01301-01571101691ADDAA199000091AJ100149199999999GF107991021051008001031001IA1249KA1120N-01641MD1310021+9999REMSYN076AAXX  24061 33415 32597 73605 11130 21157 40169 53002 82530 333 21164 48014;EQDQ01  00002PRCP99
0112334150999992000012409004+49570+025600FM-12+032499999V0203601N006019999999N0100001N1-01321-01671101771ADDGF107991071001999999031001MD1210081+9999REMSYN060AAXX  24091 33415 42997 73606 11132 21167 40177 52008 87030;
0133334150999992000012412004+49570+025600FM-12+032499999V0203301N005012200019N0100001N1-01301-01731101761ADDGF103991031001999999031011MA1999999097461MD1810031+9999REMSYN066AAXX  24121 33415 42997 33305 11130 21173 39746 40176 58003 83031;
0112334150999992000012415004+49570+025600FM-12+032499999V0203101N006012200019N0100001N1-01431-01861101861ADDGF103991031001999999031011MD1310091+9999REMSYN060AAXX  24151 33415 42997 33106 11143 21186 40186 53009 83031;
0165334150999992000012418004+49570+025600FM-12+032499999V0203101N007012200019N0100001N1-01601-01941102051ADDAA199000091GF102991001001999999001011KA1999M-01281MD1210151+9999REMSYN070AAXX  24181 33415 32997 23107 11160 21194 40205 52015 80001 333 11128;EQDQ01  00002PRCP99
0122334150999992000012421004+49570+025600FM-12+032499999V0202801N006012200019N0100001N1-01981-02241102151ADDGA1001+999999999GF100991001001999999001001MD1210031+9999REMSYN054AAXX  24211 33415 42997 02806 11198 21224 40215 52003;
0161334150999992000012500004+49570+025600FM-12+032499999V0202901N003019999999N0020001N1-02091-02091102241ADDAY111061AY211061GF107991001001999999001011MA1999999097801MD1210071+9999MW1101REMSYN072AAXX  25001 33415 41995 72903 11209 21209 39780 40224 52007 71011 80001;
0186334150999992000012503004+49570+025600FM-12+032499999V0202701N006010360019N0040001N1-01701-01891102291ADDAA199000091AY121031AY221031GF107991031051012501031001MD1210111+9999MW1101REMSYN082AAXX  25031 33415 31696 72706 11170 21189 40229 52011 71022 83530 555 21210 7000/;EQDQ01  00002PRCP99
0222334150999992000012506004+49570+025600FM-12+032499999V0202701N005012200019N0040001N1-01781-01971102391ADDAA199000091AJ100149199999999AY111061AY211061GF102991001001999999001011IA1249KA1120N-02101MD1210081+9999MW1101REMSYN082AAXX  25061 33415 31996 22705 11178 21197 40239 52008 71011 80001 333 21210 48014;EQDQ01  00002PRCP99
0140334150999992000012509004+49570+025600FM-12+032499999V0202901N005019999999N0040001N1-01591-01861102451ADDAY111031AY211031GF106991001001999999001011MD1210101+9999MW1101REMSYN066AAXX  25091 33415 41996 62905 11159 21186 40245 52010 71011 80001;
0161334150999992000012512004+49570+025600FM-12+032499999V0202701N006012200019N0100001N1-01251-01601102401ADDAY181061AY211061GF106991021031008001001011MA1999999098101MD1210011+9999MW1261REMSYN072AAXX  25121 33415 41597 62706 11125 21160 39810 40240 52001 72681 82301;
0112334150999992000012515004+49570+025600FM-12+032499999V0202701N007019999999N0100001N1-01301-01651102431ADDGF107991001001999999001011MD1210011+9999REMSYN060AAXX  25151 33415 42997 72707 11130 21165 40243 52001 80001;
0152334150999992000012518004+49570+025600FM-12+032499999V0202501N006012200019N0100001N1-01331-01601102381ADDAA112000791GF103991001001999999001011KA1999M-01241MD1810041+9999REMSYN076AAXX  25181 33415 12997 32506 11133 21160 40238 58004 69902 80001 333 11124;
0166334150999992000012521004+49570+025600FM-12+032499999V0202501N005010360019N0100001N1-00951-01161102071ADDAY131031AY221031GA1041+009309059GF107991041051008001031001MD1710231+9999MW1361REMSYN076AAXX  25211 33415 41597 72505 11095 21116 40207 57023 73632 84530 333 84631;
0187334150999992000012600004+49570+025600FM-12+032499999V0202701N009010060019N0010001N1-00861-01011101851ADDAY181061AY231061GA1051+006009099GF108991051031008001031999MA1999999097641MD1710201+9999MW1851REMSYN082AAXX  26001 33415 41594 82709 11086 21101 39764 40185 57020 78583 8533/ 333 85920;
0182334150999992000012603004+49570+025600FM-12+032499999V0202701N009010051019N0010001N1-00821-00921101751ADDAY181031AY231031GA1061+005109099GF108991061031004501031999MD1710101+9999MW1851REMSYN092AAXX  26031 33415 41494 82709 11082 21092 40175 57010 78583 8633/ 333 86917 555 21133 7002/;
0231334150999992000012606004+49570+025600FM-12+032499999V0202701N008010036019N0020001N1-00761-00891101721ADDAA112002091AJ100159199999999AY181061AY231061GA1051+003609099GF108991051031004501031999IA1249KA1120N-01331MD1710011+9999MW1851REMSYN094AAXX  26061 33415 11495 82708 11076 21089 40172 57001 60022 78583 8533/ 333 21133 48015 85912;
0166334150999992000012609004+49570+025600FM-12+032499999V0202501N007010045019N0020001N1-00681-00841101751ADDAY181031AY231031GA1051+004509099GF107991051031004501031001MD1310031+9999MW1851REMSYN076AAXX  26091 33415 41495 72507 11068 21084 40175 53003 78583 85330 333 85915;
0187334150999992000012612004+49570+025600FM-12+032499999V0202701N009010048019N0040001N1-00531-00731101681ADDAY181061AY231061GA1051+004809099GF107991051031004501031001MA1999999097521MD1810041+9999MW1851REMSYN082AAXX  26121 33415 41496 72709 11053 21073 39752 40168 58004 78583 85330 333 85916;
0166334150999992000012615004+49570+025600FM-12+032499999V0202701N009010045019N0040001N1-00491-00661101691ADDAY181031AY231031GA1051+004509099GF107991051031004501031001MD1310021+9999MW1851REMSYN076AAXX  26151 33415 41496 72709 11049 21066 40169 53002 78583 85330 333 85915;
0202334150999992000012618004+49570+025600FM-12+032499999V0202701N005010051019N0040001N1-00441-00601101791ADDAA112002091AY181061AY231061GA1051+005109099GF108991051031004501031999KA1120M-00431MD1210101+9999MW1851REMSYN088AAXX  26181 33415 11496 82705 11044 21060 40179 52010 60022 78583 8533/ 333 11043 85917;
0166334150999992000012621004+49570+025600FM-12+032499999V0202701N009010054019N0040001N1-00431-00591101811ADDAY181031AY231031GA1051+005409099GF108991051031004501031999MD1210021+9999MW1851REMSYN076AAXX  26211 33415 41496 82709 11043 21059 40181 52002 78583 8533/ 333 85918;
0187334150999992000012700004+49570+025600FM-12+032499999V0202701N008010360019N0040001N1-00411-00571101631ADDAY181061AY231061GA1041+005109099GF107991041031004501031001MA1999999097491MD1810171+9999MW1851REMSYN082AAXX  27001 33415 41496 72708 11041 21057 39749 40163 58017 78583 84330 333 84917;
0199334150999992000012703004+49570+025600FM-12+032499999V0202701N013010042019N0010001N1-00371-00521101561ADDAA124003091AY181031AY231031GA1051+004209099GF108991051031004501031999MD1710051+9999MW1861REMSYN098AAXX  27031 33415 41494 82713 11037 21052 40156 57005 78683 8533/ 333 85914 555 21044 7003/ 91018;
0231334150999992000012706004+49570+025600FM-12+032499999V0202701N010010045019N0020001N1-00281-00411101601ADDAA112001091AJ100169199999999AY181061AY231061GA1051+004509099GF108991051031004501031999IA1249KA1120N-00441MD1310051+9999MW1861REMSYN094AAXX  27061 33415 11495 82710 11028 21041 40160 53005 60012 78683 8533/ 333 21044 48016 85915;
0166334150999992000012709004+49570+025600FM-12+032499999V0202701N012010051019N0020001N1-00101-00231101671ADDAY181031AY231031GA1061+005109099GF108991061031004501031001MD1210101+9999MW1851REMSYN076AAXX  27091 33415 41495 82712 11010 21023 40167 52010 78583 86330 333 86917;
0187334150999992000012712004+49570+025600FM-12+032499999V0202701N014010039019N0020001N1-00071-00171101641ADDAY181061AY231061GA1081+003909099GF108991081031004501999999MA1999999097561MD1810031+9999MW1851REMSYN082AAXX  27121 33415 41495 82714 11007 21017 39756 40164 58003 78583 883// 333 88913;
0166334150999992000012715004+49570+025600FM-12+032499999V0202701N007010042019N0040001N1+00011-00101101751ADDAY181031AY231031GA1061+004209099GF107991061031004501031001MD1310121+9999MW1101REMSYN076AAXX  27151 33415 41496 72707 10001 21010 40175 53012 71083 86330 333 86914;
0202334150999992000012718004+49570+025600FM-12+032499999V0202701N008010045019N0100001N1-00011-00191101791ADDAA112000391AY181061AY231061GA1061+004509099GF107991061031004501031001KA1120M+00021MD1210031+9999MW1021REMSYN088AAXX  27181 33415 11497 72708 11001 21019 40179 52003 69932 70283 86330 333 10002 86915;
0112334150999992000012721004+49570+025600FM-12+032499999V0202701N008010360019N0100001N1-00041-00281101771ADDGF107991021051008001031001MD1810021+9999REMSYN060AAXX  27211 33415 42597 72708 11004 21028 40177 58002 82530;
0159334150999992000012800004+49570+025600FM-12+032499999V0202701N007010030019N0100001N1-00031-00181101761ADDGA1061+003009099GF107991061031004501031001MA1999999097681MD1710011+9999REMSYN076AAXX  28001 33415 42497 72707 11003 21018 39768 40176 57001 86330 333 86910;
0212334150999992000012803004+49570+025600FM-12+032499999V0202501N007010039019N0100001N1-00121-00291101691ADDAA199000091AY131031AY221031GA1051+003909099GF107991051031004501031001MD1710091+9999MW1361REMSYN092AAXX  28031 33415 31497 72507 11012 21029 40169 57009 73632 85330 333 85913 555 21012 7998/;EQDQ01  00002PRCP99
0244334150999992000012806004+49570+025600FM-12+032499999V0202501N009010039019N0100001N1-00171-00551101611ADDAA199000091AJ100129199999999AY131061AY221061GA1061+003909099GF107991061031004501031001IA1249KA1120N-00171MD1710081+9999MW1361REMSYN088AAXX  28061 33415 31497 72509 11017 21055 40161 57008 73632 86330 333 21017 48012 86913;EQDQ01  00002PRCP99
0166334150999992000012809004+49570+025600FM-12+032499999V0202501N007010054019N0100001N1-00051-00501101591ADDAY131031AY231031GA1061+005409099GF107991061031004501031001MD1410001+9999MW1361REMSYN076AAXX  28091 33415 41497 72507 11005 21050 40159 54000 73633 86330 333 86918;
0187334150999992000012812004+49570+025600FM-12+032499999V0202701N007010078019N0100001N1+00001-00391101471ADDAY131061AY231061GA1061+007809099GF107991061031008001031001MA1999999097411MD1810101+9999MW1361REMSYN082AAXX  28121 33415 41597 72707 10000 21039 39741 40147 58010 73633 86330 333 86926;
0166334150999992000012815004+49570+025600FM-12+032499999V0202501N006010093019N0100001N1-00031-00301101491ADDAY181031AY231031GA1061+009309099GF107991061031008001031999MD1410001+9999MW1851REMSYN076AAXX  28151 33415 41597 72506 11003 21030 40149 54000 78583 8633/ 333 86931;
0202334150999992000012818004+49570+025600FM-12+032499999V0202301N007010099019N0100001N1-00071-00421101471ADDAA112000791AY181061AY231061GA1061+009909099GF108991061031012501031999KA1120M+00001MD1810021+9999MW1021REMSYN088AAXX  28181 33415 11697 82307 11007 21042 40147 58002 69902 70283 8633/ 333 10000 86933;
0166334150999992000012821004+49570+025600FM-12+032499999V0202501N009010090019N0100001N1-00091-00441101521ADDAY131031AY221031GA1061+009009099GF108991061031008001031999MD1310051+9999MW1361REMSYN076AAXX  28211 33415 41597 82509 11009 21044 40152 53005 73632 8633/ 333 86930;
0187334150999992000012900004+49570+025600FM-12+032499999V0202501N007010078019N0100001N1-00091-00441101521ADDAY131061AY221061GA1061+007809099GF108991061031008001031999MA1999999097441MD1410001+9999MW1021REMSYN082AAXX  29001 33415 41597 82507 11009 21044 39744 40152 54000 70232 8633/ 333 86926;
0182334150999992000012903004+49570+025600FM-12+032499999V0202301N006010099019N0100001N1-00141-00541101511ADDAY181031AY221031GA1061+009909099GF108991061031008001031999MD1810021+9999MW1851REMSYN092AAXX  29031 33415 41597 82306 11014 21054 40151 58002 78582 8633/ 333 86933 555 21016 7990/;
0209334150999992000012906004+49570+025600FM-12+032499999V0202001N004010360019N0100001N1-00211-00671101511ADDAA112000791AJ100119199999999AY181061AY221061GF107991041031012501031001IA1249KA1120N-00271MD1710021+9999MW1021REMSYN088AAXX  29061 33415 11697 72004 11021 21067 40151 57002 69902 70282 84330 333 21027 48011;
0112334150999992000012909004+49570+025600FM-12+032499999V0202001N006010120019N0100001N1-00181-00671101441ADDGF107991071051012501001001MD1710051+9999REMSYN060AAXX  29091 33415 42697 72006 11018 21067 40144 57005 87500;
0133334150999992000012912004+49570+025600FM-12+032499999V0202001N005010120019N0100001N1-00021-00601101241ADDGF107991061051012501031001MA1999999097171MD1710181+9999REMSYN066AAXX  29121 33415 42697 72005 11002 21060 39717 40124 57018 86530;
0086334150999992000012915004+49570+025600FM-12+032499999V0201801N005019999999N0100001N1+00021-00581100901ADDGF107991999999012501999999REMSYN048AAXX  29151 33415 42697 71805 10002 21058 4009/;
0165334150999992000012918004+49570+025600FM-12+032499999V0201601N006010120019N0100001N1-00051-00571100751ADDAA199000091GF107991051051012501031001KA1999M+00041MD1710231+9999REMSYN070AAXX  29181 33415 32697 71606 11005 21057 40075 57023 85530 333 10004;EQDQ01  00002PRCP99
0112334150999992000012921004+49570+025600FM-12+032499999V0201801N008010360019N0100001N1+00101-00391100461ADDGF107991041051012501031001MD1710241+9999REMSYN060AAXX  29211 33415 42697 71808 10010 21039 40046 57024 84530;
0112334150999992000013000004+49570+025600FM-12+032499999V0201801N006010360019N0100001N1+00141-00271999999ADDGF107991031051012501031041MD1710281+9999REMSYN060AAXX  30001 33415 42697 71806 10014 21027 392// 57028 83534;
0182334150999992000013003004+49570+025600FM-12+032499999V0202001N008010360019N0100001N1+00181-00101099991ADDAY181031AY221031GA1041+004509099GF107991041031004501031001MD1710161+9999MW1261REMSYN092AAXX  30031 33415 41497 72008 10018 21010 49999 57016 72682 84330 333 84915 555 21005 7990/;
0209334150999992000013006004+49570+025600FM-12+032499999V0202001N009010075019N0100001N1+00241+00031099761ADDAA112000891AJ100109199999999AY181061AY221061GF107991051031008001031001IA1289KA1120N-00051MD1710221+9999MW1021REMSYN088AAXX  30061 33415 11597 72009 10024 20003 49976 57022 69982 70282 85330 333 21005 44010;
0140334150999992000013009004+49570+025600FM-12+032499999V0202301N007010120019N0100001N1+00191+00081099771ADDAY181031AY221031GF108991051031012501031999MD1310011+9999MW1801REMSYN066AAXX  30091 33415 41697 82307 10019 20008 49977 53001 78082 8533/;
0161334150999992000013012004+49570+025600FM-12+032499999V0202501N010010360019N0100001N1+00251+00041099801ADDAY181061AY221061GF106991031031012501031001MA1999999095841MD1210031+9999MW1251REMSYN072AAXX  30121 33415 41697 62510 10025 20004 39584 49980 52003 72582 83330;
0140334150999992000013015004+49570+025600FM-12+032499999V0202701N009010120019N0040001N1+00271+00061100031ADDAY181031AY221031GF108991081031012501999999MD1210221+9999MW1831REMSYN066AAXX  30151 33415 41696 82709 10027 20006 40003 52022 78382 883//;
0190334150999992000013018004+49570+025600FM-12+032499999V0202501N010012200019N0100001N1+00071-00221100381ADDAA112004191AY181061AY211061GA1001+999999999GF100991001001999999001001KA1999M+00301MD1210301+9999MW1021REMSYN076AAXX  30181 33415 11997 02510 10007 21022 40038 52030 60042 70281 333 10030;
0112334150999992000013021004+49570+025600FM-12+032499999V0202701N010012200019N0100001N1+00121-00371100631ADDGF103991031031012501001001MD1210261+9999REMSYN060AAXX  30211 33415 42697 32710 10012 21037 40063 52026 83300;
0133334150999992000013100004+49570+025600FM-12+032499999V0202701N012010120019N0100001N1+00141-00341100941ADDGF106991061051012501001001MA1999999096911MD1210291+9999REMSYN066AAXX  31001 33415 42697 62712 10014 21034 39691 40094 52029 86500;
0149334150999992000013103004+49570+025600FM-12+032499999V0202701N009012200019N0100001N1-00061-00541101191ADDAA199000021GA1001+999999999GF100991001001999999001001MD1210211+9999REMSYN070AAXX  31031 33415 32997 02709 11006 21054 40119 52021 555 21007 7004/;
0194334150999992000013106004+49570+025600FM-12+032499999V0202501N004019999999N0100001N1-00241-00601101261ADDAA199000091AJ100069199999999GF106991061001999999031001IA1289KA1120N-00251MD1210041+9999REMSYN076AAXX  31061 33415 32997 62504 11024 21060 40126 52004 86030 333 21025 44006;EQDQ01  00002PRCP99
0138334150999992000013109004+49570+025600FM-12+032499999V0202001N002010360019N0100001N1-00081-00621101081ADDGA1041+005709059GF107991041051004501031001MD1810141+9999REMSYN070AAXX  31091 33415 42497 72002 11008 21062 40108 58014 84530 333 84619;
0187334150999992000013112004+49570+025600FM-12+032499999V0202001N006010066019N0100001N1+00011-00131100531ADDAY181061AY221061GA1051+006609099GF107991051031008001031001MA1999999096501MD1710521+9999MW1261REMSYN082AAXX  31121 33415 41597 72006 10001 21013 39650 40053 57052 72682 85330 333 85922;
0166334150999992000013115004+49570+025600FM-12+032499999V0202301N009010360019N0100001N1+00331-00141100341ADDAY181031AY221031GA1041+008109099GF107991041031008001031001MD1710131+9999MW1251REMSYN076AAXX  31151 33415 41597 72309 10033 21014 40034 57013 72582 84330 333 84927;
0202334150999992000013118004+49570+025600FM-12+032499999V0202701N012010093019N0100001N1+00341-00011100551ADDAA112003091AY181061AY221061GA1051+009309099GF107991051031008001031001KA1120M+00371MD1310201+9999MW1251REMSYN088AAXX  31181 33415 11597 72712 10034 21001 40055 53020 60032 72582 85330 333 10037 85931;
0112334150999992000013121004+49570+025600FM-12+032499999V0202701N013010360019N0100001N1+00401-00121100801ADDGF106991021031012501031001MD1210251+9999REMSYN060AAXX  31211 33415 42697 62713 10040 21012 40080 52025 82330;
0133334150999992000020100004+49570+025600FM-12+032499999V0202901N015010360019N0100001N1+00291-00291101351ADDGF105991021051012501031001MA1999999097331MD1210511+9999REMSYN066AAXX  01001 33415 42697 52915 10029 21029 39733 40135 52051 82530;
0139334150999992000020103004+49570+025600FM-12+032499999V0202901N010019999999N0100001N1+00081-00611101831ADDAA199000021GF107991071001999999031001MD1210421+9999REMSYN076AAXX  01031 33415 32997 72910 10008 21061 40183 52042 87030 555 20007 7003/;
0175334150999992000020106004+49570+025600FM-12+032499999V0202701N007019999999N0100001N1-00111-00581102111ADDAA199000021AJ100039199999999GF105991051001999999031001IA1279KA1120N-00121MD1210241+9999REMSYN076AAXX  01061 33415 32997 52707 11011 21058 40211 52024 85030 333 21012 43003;
0112334150999992000020109004+49570+025600FM-12+032499999V0202701N007010360019N0100001N1+00121-00371102221ADDGF107991041051012501031001MD1210041+9999REMSYN060AAXX  01091 33415 42697 72707 10012 21037 40222 52004 84530;
0161334150999992000020112004+49570+025600FM-12+032499999V0202501N005010360019N0100001N1+00261-00231102161ADDAY181061AY221061GF107991041031012501031001MA1999999098061MD1810071+9999MW1801REMSYN072AAXX  01121 33415 41697 72505 10026 21023 39806 40216 58007 78082 84330;
0140334150999992000020115004+49570+025600FM-12+032499999V0202501N002010360019N0100001N1+00211-00101102061ADDAY181031AY221031GF107991041031012501031001MD1710061+9999MW1751REMSYN066AAXX  01151 33415 41697 72502 10021 21010 40206 57006 77582 84330;
0202334150999992000020118004+49570+025600FM-12+032499999V0202201N006010360019N0100001N1+00221-00061101981ADDAA112000791AY181061AY221061GA1041+006309099GF107991041031008001031001KA1120M+00261MD1710081+9999MW1801REMSYN088AAXX  01181 33415 11597 72206 10022 21006 40198 57008 69902 78082 84330 333 10026 84921;
0166334150999992000020121004+49570+025600FM-12+032499999V0201801N004010360019N0100001N1+00201-00021101931ADDAY181031AY221031GA1041+008109059GF107991041051008001031001MD1710041+9999MW1021REMSYN076AAXX  01211 33415 41597 71804 10020 21002 40193 57004 70282 84530 333 84627;
0161334150999992000020200004+49570+025600FM-12+032499999V0202201N004010360019N0100001N1+00271+00061101711ADDAY181061AY221061GF107991041051012501031001MA1999999097671MD1710211+9999MW1021REMSYN072AAXX  02001 33415 41697 72204 10027 20006 39767 40171 57021 70282 84530;
0128334150999992000020203004+49570+025600FM-12+032499999V0202201N005019999999N0100001N1+00231+00101101481ADDGF105991051001999999031011MD1710221+9999REMSYN076AAXX  02031 33415 42997 52205 10023 20010 40148 57022 85031 555 20020 7990/;
0181334150999992000020206004+49570+025600FM-12+032499999V0202401N005019999999N0100001N1+00231+00011101371ADDAA112000791AJ100039199999999GF106991061001999999031011IA1279KA1120N+00201MD1710111+9999REMSYN082AAXX  02061 33415 12997 62405 10023 20001 40137 57011 69902 86031 333 20020 43003;
0112334150999992000020209004+49570+025600FM-12+032499999V0202301N007019999999N0100001N1+00541+00081101261ADDGF107991041001999999031011MD1710061+9999REMSYN060AAXX  02091 33415 42997 72307 10054 20008 40126 57006 84031;
0133334150999992000020212004+49570+025600FM-12+032499999V0202701N006019999999N0100001N1+00551+00061101061ADDGF107991041001999999031011MA1999999097091MD1710191+9999REMSYN066AAXX  02121 33415 42997 72706 10055 20006 39709 40106 57019 84031;
0112334150999992000020215004+49570+025600FM-12+032499999V0202501N006010360019N0100001N1+00491+00081100961ADDGF107991021051012501031001MD1710101+9999REMSYN060AAXX  02151 33415 42697 72506 10049 20008 40096 57010 82530;
0165334150999992000020218004+49570+025600FM-12+032499999V0202501N008010360019N0100001N1+00461+00101100961ADDAA199000091GF107991021051012501031001KA1999M+00581MD1710021+9999REMSYN070AAXX  02181 33415 32697 72508 10046 20010 40096 57002 82530 333 10058;EQDQ01  00002PRCP99
0140334150999992000020221004+49570+025600FM-12+032499999V0202501N005010360019N0100001N1+00381+00091100941ADDAY181031AY221031GF107991041031012501031001MD1710021+9999MW1801REMSYN066AAXX  02211 33415 41697 72505 10038 20009 40094 57002 78082 84330;
0161334150999992000020300004+49570+025600FM-12+032499999V0202301N007010360019N0100001N1+00351+00121100881ADDAY181061AY221061GF107991031051012501031001MA1999999096891MD1710061+9999MW1021REMSYN072AAXX  03001 33415 41697 72307 10035 20012 39689 40088 57006 70282 83530;
0182334150999992000020303004+49570+025600FM-12+032499999V0202701N007010066019N0100001N1+00311+00181100861ADDAY181031AY221031GA1051+006609099GF107991051031008001031001MD1710021+9999MW1801REMSYN092AAXX  03031 33415 41597 72707 10031 20018 40086 57002 78082 85330 333 85922 555 20030 7001/;
0209334150999992000020306004+49570+025600FM-12+032499999V0202901N006010360019N0100001N1+00221-00081101001ADDAA112002091AJ100029199999999AY181061AY221061GF105991021051008001031001IA1309KA1120N+00211MD1310121+9999MW1021REMSYN088AAXX  03061 33415 11597 52906 10022 21008 40100 53012 60022 70282 82530 333 20021 42002;
0112334150999992000020309004+49570+025600FM-12+032499999V0202901N007010360019N0100001N1+00191-00311101191ADDGF105991021051008001031001MD1210181+9999REMSYN060AAXX  03091 33415 42597 52907 10019 21031 40119 52018 82530;
0159334150999992000020312004+49570+025600FM-12+032499999V0202701N006010084019N0100001N1+00261-00441101271ADDGA1061+008409059GF106991061051008001001001MA1999999097251MD1210081+9999REMSYN076AAXX  03121 33415 42597 62706 10026 21044 39725 40127 52008 86500 333 86628;
0166334150999992000020315004+49570+025600FM-12+032499999V0202701N007010360019N0100001N1+00201-00371101331ADDAY181031AY221031GA1041+007209099GF106991041031008001031001MD1210051+9999MW1021REMSYN076AAXX  03151 33415 41597 62707 10020 21037 40133 52005 70282 84330 333 84924;
0202334150999992000020318004+49570+025600FM-12+032499999V0202701N007010081019N0100001N1+00081-00251101651ADDAA112001091AY181061AY221061GA1051+008109099GF106991051031008001031001KA1120M+00271MD1210281+9999MW1261REMSYN088AAXX  03181 33415 11597 62707 10008 21025 40165 52028 60012 72682 85330 333 10027 85927;
0166334150999992000020321004+49570+025600FM-12+032499999V0202701N006010072019N0100001N1+00021-00221101871ADDAY181031AY221031GA1051+007209099GF106991051031008001031001MD1210211+9999MW1851REMSYN076AAXX  03211 33415 41597 62706 10002 21022 40187 52021 78582 85330 333 85924;
0187334150999992000020400004+49570+025600FM-12+032499999V0202301N006010360019N0100001N1+00021-00181101911ADDAY181061AY221061GA1041+006009099GF107991041031008001031001MA1999999097831MD1210041+9999MW1021REMSYN082AAXX  04001 33415 41597 72306 10002 21018 39783 40191 52004 70282 84330 333 84920;
0201334150999992000020403004+49570+025600FM-12+032499999V0202901N006010360019N0100001N1-00271-00431102532ADDAY181031AY221031GA1041+006009099GF106991041031008001031001MD1210551+9999MW1021REMSYN092AAXX  04031 33415 41597 62906 11027 21043 40253 52055 70282 84330 333 84920 555 21028 7003/;EQDQ01+102533APOSLP
0209334150999992000020406004+49570+025600FM-12+032499999V0202701N009010360019N0100001N1-00431-00551102991ADDAA112001091AJ100049199999999AY181061AY231061GF106991041031008001031001IA1249KA1120N-00441MD1210411+9999MW1361REMSYN088AAXX  04061 33415 11597 62709 11043 21055 40299 52041 60012 73683 84330 333 21044 48004;
0140334150999992000020409004+49570+025600FM-12+032499999V0202701N008010360019N0100001N1-00301-00471103181ADDAY131031AY231031GF105991021031012501031001MD1210201+9999MW1361REMSYN066AAXX  04091 33415 41697 52708 11030 21047 40318 52020 73633 82330;
0161334150999992000020412004+49570+025600FM-12+032499999V0202901N007012200019N0100001N1-00221-00611103221ADDAY131061AY231061GF104991021051012501001011MA1999999099051MD1210061+9999MW1361REMSYN072AAXX  04121 33415 41697 42907 11022 21061 39905 40322 52006 73633 82501;
0140334150999992000020415004+49570+025600FM-12+032499999V0202501N005012200019N0100001N1-00261-00631103221ADDAY131031AY201031GF103991021001999999031011MD1410001+9999MW1011REMSYN066AAXX  04151 33415 41997 32505 11026 21063 40322 54000 70130 82031;
0193334150999992000020418004+49570+025600FM-12+032499999V0202301N003012200019N0100001N1-00451-00761103121ADDAA199000091AY131061AY201061GF102991001001999999001011KA1999M-00221MD1810141+9999MW1021REMSYN076AAXX  04181 33415 31997 22303 11045 21076 40312 58014 70230 80001 333 11022;EQDQ01  00002PRCP99
0112334150999992000020421004+49570+025600FM-12+032499999V0202001N009010360019N0100001N1-00351-00561102721ADDGF107991021031012501031001MD1710361+9999REMSYN060AAXX  04211 33415 42697 72009 11035 21056 40272 57036 82330;
0133334150999992000020500004+49570+025600FM-12+032499999V0202301N008010360019N0100001N1-00271-00431102351ADDGF107991021031012501031001MA1999999098211MD1710341+9999REMSYN066AAXX  05001 33415 42697 72308 11027 21043 39821 40235 57034 82330;
0201334150999992000020503004+49570+025600FM-12+032499999V0202501N008010069019N0100001N1-00081-00181101801ADDAY181031AY231031GA1051+006909099GF107991051031008001031001MD1710502+9999MW1851REMSYN092AAXX  05031 33415 41597 72508 11008 21018 40180 57050 78583 85330 333 85923 555 21045 7990/;EQDQ01+000502APC3  
0231334150999992000020506004+49570+025600FM-12+032499999V0202501N010010054019N0040001N1+00041-00021101521ADDAA112001091AJ100059199999999AY181061AY231061GA1061+005409099GF108991061031008001031999IA1279KA1120N-00451MD1710251+9999MW1851REMSYN094AAXX  05061 33415 11596 82510 10004 21002 40152 57025 60012 78583 8633/ 333 21045 43005 86918;
0166334150999992000020509004+49570+025600FM-12+032499999V0202701N008010060019N0100001N1+00131-00011101391ADDAY181031AY221031GA1061+006009099GF107991061031008001031001MD1710121+9999MW1021REMSYN076AAXX  05091 33415 41597 72708 10013 21001 40139 57012 70282 86330 333 86920;
0187334150999992000020512004+49570+025600FM-12+032499999V0202701N009010039019N0100001N1+00241+00171101431ADDAY181061AY221061GA1081+003909099GF108991081031004501999999MA1999999097401MD1310061+9999MW1801REMSYN082AAXX  05121 33415 41497 82709 10024 20017 39740 40143 53006 78082 883// 333 88913;
0166334150999992000020515004+49570+025600FM-12+032499999V0202701N008010033019N0040001N1+00301+00221101561ADDAY181031AY281031GA1061+003309099GF107991061031004501031001MD1210141+9999MW1801REMSYN076AAXX  05151 33415 41496 72708 10030 20022 40156 52014 78088 86330 333 86911;
0202334150999992000020518004+49570+025600FM-12+032499999V0202901N007010033019N0040001N1+00301+00221101781ADDAA112004191AY181061AY221061GA1061+003309099GF107991061031004501031001KA1120M+00301MD1210211+9999MW1101REMSYN088AAXX  05181 33415 11496 72907 10030 20022 40178 52021 60042 71082 86330 333 10030 86911;
0138334150999992000020521004+49570+025600FM-12+032499999V0203201N006010099019N0100001N1+00311+00101101991ADDGA1051+009909059GF107991051051008001031001MD1210201+9999REMSYN070AAXX  05211 33415 42597 73206 10031 20010 40199 52020 85530 333 85633;
0159334150999992000020600004+49570+025600FM-12+032499999V0202701N005010087019N0100001N1+00221+00031102171ADDGA1061+008709059GF107991061051008001031001MA1999999098111MD1210161+9999REMSYN076AAXX  06001 33415 42597 72705 10022 20003 39811 40217 52016 86530 333 86629;
0193334150999992000020603004+49570+025600FM-12+032499999V0202701N004010036019N0040001N1+00221+00141102211ADDAA199000021AY121031AY221031GA1071+003609069GF107991071051004501001001MD1210041+9999MW1101REMSYN092AAXX  06031 33415 31496 72704 10022 20014 40221 52004 71022 87500 333 87612 555 20022 7005/;
0231334150999992000020606004+49570+025600FM-12+032499999V0202501N004010021019N0040001N1+00231+00181102171ADDAA112000891AJ100029199999999AY181061AY221061GA1051+002109069GF108991081031002501999999IA1279KA1120N+00211MD1810041+9999MW1801REMSYN094AAXX  06061 33415 11396 82504 10023 20018 40217 58004 69982 78082 883// 333 20021 43002 85707;
0166334150999992000020609004+49570+025600FM-12+032499999V0202701N006010015019N0010001N1+00341+00291102211ADDAY161031AY251031GA1081+001509069GF108991081061001501999999MD1310051+9999MW1511REMSYN076AAXX  06091 33415 41294 82706 10034 20029 40221 53005 75165 886// 333 88705;
0187334150999992000020612004+49570+025600FM-12+032499999V0202701N007010015019N0020001N1+00361+00311102151ADDAY181061AY251061GA1081+001509069GF108991081061001501999999MA1999999098121MD1810041+9999MW1101REMSYN082AAXX  06121 33415 41295 82707 10036 20031 39812 40215 58004 71085 886// 333 88705;
0166334150999992000020615004+49570+025600FM-12+032499999V0202701N005010018019N0020001N1+00401+00281102131ADDAY121031AY221031GA1051+001809069GF107991051071002501031001MD1710021+9999MW1101REMSYN076AAXX  06151 33415 41395 72705 10040 20028 40213 57002 71022 85730 333 85706;
0180334150999992000020618004+49570+025600FM-12+032499999V0202701N007012200019N0040001N1+00431+00201102121ADDAA112000791AY121061AY221061GF104991041001999999031001KA1999M+00431MD1710011+9999MW1101REMSYN082AAXX  06181 33415 31996 42707 10043 20020 40212 57001 69902 71022 84030 333 10043;
0112334150999992000020621004+49570+025600FM-12+032499999V0202501N004019999999N0100001N1+00471+00191102101ADDGF105991051001999999031001MD1410001+9999REMSYN060AAXX  06211 33415 42997 52504 10047 20019 40210 54000 85030;
0133334150999992000020700004+49570+025600FM-12+032499999V0202701N005019999999N0100001N1+00421+00171102141ADDGF105991051001999999031001MA1999999098111MD1310021+9999REMSYN066AAXX  07001 33415 41997 52705 10042 20017 39811 40214 53002 85030;
0158334150999992000020703004+49570+025600FM-12+032499999V0202001N003019999999N0100001N1+00311+00071102081ADDAA199000091GF105991051001999999031001MD1810071+9999REMSYN076AAXX  07031 33415 32997 52003 10031 20007 40208 58007 85030 555 20031 7998/;EQDQ01  00002PRCP99
0142334150999992000020706004+49570+025600FM-12+032499999V0202501N003019999999N0100001N1+00201-00021102091ADDAA199000091GF106991061001999999031031MD1710011+9999REMSYN060AAXX  07061 33415 32997 62503 10020 21002 40209 57001 86033;EQDQ01  00002PRCP99
0112334150999992000020709004+49570+025600FM-12+032499999V0209999V001019999999N0100001N1+00491+00081102001ADDGF107991021001999999031011MD1710041+9999REMSYN060AAXX  07091 33415 42997 79901 10049 20008 40200 57004 82031;
0133334150999992000020712004+49570+025600FM-12+032499999V0209999V002019999999N0100001N1+00891+00171101801ADDGF106991021001999999031011MA1999999097851MD1710141+9999REMSYN066AAXX  07121 33415 42997 69902 10089 20017 39785 40180 57014 82031;
0112334150999992000020715004+49570+025600FM-12+032499999V0202001N002019999999N0100001N1+00731+00231101741ADDGF107991041001999999031011MD1710081+9999REMSYN060AAXX  07151 33415 42997 72002 10073 20023 40174 57008 84031;
0165334150999992000020718004+49570+025600FM-12+032499999V0202501N004019999999N0100001N1+00511+00071101711ADDAA199000091GF105991001001999999001011KA1999M+00911MD1710061+9999REMSYN070AAXX  07181 33415 32997 52504 10051 20007 40171 57006 80001 333 10091;EQDQ01  00002PRCP99
0122334150999992000020721004+49570+025600FM-12+032499999V0202501N004012200019N0100001N1+00381-00021101651ADDGA1001+999999999GF100991001001999999001001MD1710071+9999REMSYN054AAXX  07211 33415 42997 02504 10038 21002 40165 57007;
0133334150999992000020800004+49570+025600FM-12+032499999V0202701N002012200019N0100001N1+00381+00011101681ADDGF102991001001999999001011MA1999999097671MD1310031+9999REMSYN066AAXX  08001 33415 42997 22702 10038 20001 39767 40168 53003 80001;
0174334150999992000020803004+49570+025600FM-12+032499999V0202301N003019999999N0100001N1+00361+00041101551ADDAA199000091GF107991999001999999031001MD1810141+9999REMSYN076AAXX  08031 33415 32997 72303 10036 20004 40155 58014 88030 555 20035 7000/;EQDQ01+000082SCOTLCQ02  00002PRCP99
0194334150999992000020806004+49570+025600FM-12+032499999V0209999V001010360019N0100001N1+00321+00031101451ADDAA199000091AJ100009199999999GF107991041051012501031001IA1309KA1120N+00321MD1710101+9999REMSYN076AAXX  08061 33415 32697 79901 10032 20003 40145 57010 84530 333 20032 42997;EQDQ01  00002PRCP99
0106334150999992000020809004+49570+025600FM-12+032499999V0202001N005019999999N0100001N1+00511+00191101311ADDGF105991999999999999999999MD1710111+9999REMSYN054AAXX  08091 33415 41997 52005 10051 20019 40131 57011;
0161334150999992000020812004+49570+025600FM-12+032499999V0202001N005010360019N0100001N1+00741+00271100981ADDAY181061AY221061GF106991031051012501031011MA1999999097041MD1710281+9999MW1021REMSYN072AAXX  08121 33415 41697 62005 10074 20027 39704 40098 57028 70282 83531;
0140334150999992000020815004+49570+025600FM-12+032499999V0202301N007010360019N0100001N1+00641+00111100811ADDAY121031AY221031GF108991041031012501031999MD1710181+9999MW1251REMSYN066AAXX  08151 33415 41697 82307 10064 20011 40081 57018 72522 8433/;
0180334150999992000020818004+49570+025600FM-12+032499999V0202301N009010120019N0100001N1+00541+00081100801ADDAA112000791AY181061AY221061GF108991061051012501031999KA1999M+00751MD1710021+9999MW1021REMSYN082AAXX  08181 33415 11697 82309 10054 20008 40080 57002 69902 70282 8653/ 333 10075;
0122334150999992000020821004+49570+025600FM-12+032499999V0202301N007012200019N0100001N1+00441-00041100651ADDGA1001+999999999GF100991001001999999001001MD1710161+9999REMSYN054AAXX  08211 33415 42997 02307 10044 21004 40065 57016;
0133334150999992000020900004+49570+025600FM-12+032499999V0202001N007010360019N0100001N1+00391+00021100481ADDGF107991031051012501031001MA1999999096511MD1710171+9999REMSYN066AAXX  09001 33415 42697 72007 10039 20002 39651 40048 57017 83530;
0139334150999992000020903004+49570+025600FM-12+032499999V0201801N006010120019N0100001N1+00431+00091100161ADDAA199000021GF108991081051012501999999MD1710301+9999REMSYN076AAXX  09031 33415 32697 81806 10043 20009 40016 57030 885// 555 20038 7990/;
0209334150999992000020906004+49570+025600FM-12+032499999V0202001N006010120019N0100001N1+00441+00241100101ADDAA112001091AJ100009199999999AY181061AY221061GF108991051031012501031999IA1259KA1120N+00381MD1710061+9999MW1251REMSYN088AAXX  09061 33415 11697 82006 10044 20024 40010 57006 60012 72582 8533/ 333 20038 41997;
0112334150999992000020909004+49570+025600FM-12+032499999V0202401N008010360019N0100001N1+00681+00241100251ADDGF107991031031012501031001MD1310181+9999REMSYN060AAXX  09091 33415 42697 72408 10068 20024 40025 53018 83330;
0133334150999992000020912004+49570+025600FM-12+032499999V0202701N008012200019N0100001N1+00911-00091100631ADDGF105991021011012501001011MA1999999096721MD1210391+9999REMSYN066AAXX  09121 33415 42697 52708 10091 21009 39672 40063 52039 82101;
0112334150999992000020915004+49570+025600FM-12+032499999V0202701N007012200019N0100001N1+00521-00201100901ADDGF103991021051012501001011MD1210211+9999REMSYN060AAXX  09151 33415 42697 32707 10052 21020 40090 52021 82501;
0146334150999992000020918004+49570+025600FM-12+032499999V0202701N005012200019N0100001N1+00211-00221101211ADDAA199000021GF103991001001999999001011KA1999M+00911MD1210261+9999REMSYN070AAXX  09181 33415 32997 32705 10021 21022 40121 52026 80001 333 10091;
0112334150999992000020921004+49570+025600FM-12+032499999V0202701N007019999999N0100001N1+00241-00161101461ADDGF107991071001999999031011MD1210241+9999REMSYN060AAXX  09211 33415 42997 72707 10024 21016 40146 52024 87031;
0133334150999992000021000004+49570+025600FM-12+032499999V0202701N004019999999N0100001N1+00111-00211101591ADDGF105991001001999999001011MA1999999097541MD1210111+9999REMSYN066AAXX  10001 33415 42997 52704 10011 21021 39754 40159 52011 80001;
0158334150999992000021003004+49570+025600FM-12+032499999V0202201N003012200019N0100001N1-00021-00291101721ADDAA199000091GF102991001001999999001011MD1210101+9999REMSYN076AAXX  10031 33415 32997 22203 11002 21029 40172 52010 80001 555 21003 7001/;EQDQ01  00002PRCP99
0194334150999992000021006004+49570+025600FM-12+032499999V0202201N005019999999N0100001N1-00011-00281101861ADDAA199000091AJ100009199999999GF107991071001999999031011IA1259KA1120N-00081MD1210141+9999REMSYN076AAXX  10061 33415 32997 72205 11001 21028 40186 52014 87031 333 21008 41997;EQDQ01  00002PRCP99
0140334150999992000021009004+49570+025600FM-12+032499999V0202301N005010360019N0100001N1+00141-00271102011ADDAY181031AY221031GF107991041031012501031001MD1210161+9999MW1261REMSYN066AAXX  10091 33415 41697 72305 10014 21027 40201 52016 72682 84330;
0161334150999992000021012004+49570+025600FM-12+032499999V0202501N007010360019N0100001N1+00341-00261102101ADDAY181061AY221061GF107991041031012501031001MA1999999098061MD1210121+9999MW1021REMSYN072AAXX  10121 33415 41697 72507 10034 21026 39806 40210 52012 70282 84330;
0140334150999992000021015004+49570+025600FM-12+032499999V0202701N006010120019N0100001N1+00241-00061102221ADDAY181031AY221031GF107991051031012501031001MD1210101+9999MW1021REMSYN066AAXX  10151 33415 41697 72706 10024 21006 40222 52010 70282 85330;
0180334150999992000021018004+49570+025600FM-12+032499999V0202501N004010360019N0100001N1+00141+00001102341ADDAA112000791AY181061AY221061GF107991021031012501031001KA1999M+00371MD1210101+9999MW1021REMSYN082AAXX  10181 33415 11697 72504 10014 20000 40234 52010 69902 70282 82330 333 10037;
0112334150999992000021021004+49570+025600FM-12+032499999V0202501N004012200019N0100001N1+00051-00061102411ADDGF103991031001999999031001MD1210051+9999REMSYN060AAXX  10211 33415 42997 32504 10005 21006 40241 52005 83030;
0133334150999992000021100004+49570+025600FM-12+032499999V0202001N002012200019N0100001N1+00001-00121102411ADDGF103991031001999999031001MA1999999098311MD1410001+9999REMSYN066AAXX  11001 33415 42997 32002 10000 21012 39831 40241 54000 83030;
0186334150999992000021103004+49570+025600FM-12+032499999V0201801N002012200019N0040001N1-00121-00191102381ADDAA199000091AY101031AY201031GF103991031001999999031001MD1810051+9999MW1101REMSYN082AAXX  11031 33415 31996 31802 11012 21019 40238 58005 71000 83030 555 21014 7990/;EQDQ01  00002PRCP99
0222334150999992000021106004+49570+025600FM-12+032499999V0201601N003012200019N0040001N1-00331-00371102421ADDAA199000091AJ100009199999999AY101061AY201061GF102991021001999999031001IA1259KA1120N-00351MD1410001+9999MW1101REMSYN082AAXX  11061 33415 31996 21603 11033 21037 40242 54000 71000 82030 333 21035 41998;EQDQ01  00002PRCP99
0112334150999992000021109004+49570+025600FM-12+032499999V0201601N004012200019N0100001N1+00181-00191102391ADDGF103991021001999999031011MD1310041+9999REMSYN060AAXX  11091 33415 42997 31604 10018 21019 40239 53004 82031;
0133334150999992000021112004+49570+025600FM-12+032499999V0202001N005019999999N0100001N1+00561-00251102421ADDGF105991021001999999031011MA1999999098391MD1210091+9999REMSYN066AAXX  11121 33415 42997 52005 10056 21025 39839 40242 52009 82031;
0112334150999992000021115004+49570+025600FM-12+032499999V0202301N002019999999N0100001N1+00531-00361102431ADDGF106991031001999999031011MD1410001+9999REMSYN060AAXX  11151 33415 42997 62302 10053 21036 40243 54000 83031;
0165334150999992000021118004+49570+025600FM-12+032499999V0202701N003019999999N0100001N1+00171-00241102621ADDAA199000091GF105991021001999999031011KA1999M+00581MD1310131+9999REMSYN070AAXX  11181 33415 32997 52703 10017 21024 40262 53013 82031 333 10058;EQDQ01  00002PRCP99
0112334150999992000021121004+49570+025600FM-12+032499999V0202901N006019999999N0100001N1+00211-00071102751ADDGF107991041001999999031011MD1210151+9999REMSYN060AAXX  11211 33415 42997 72906 10021 21007 40275 52015 84031;
0133334150999992000021200004+49570+025600FM-12+032499999V0203201N003019999999N0100001N1+00201-00021102891ADDGF107991041001999999031011MA1999999098801MD1210131+9999REMSYN066AAXX  12001 33415 42997 73203 10020 21002 39880 40289 52013 84031;
0158334150999992000021203004+49570+025600FM-12+032499999V0203601N004019999999N0100001N1+00161-00061102921ADDAA199000091GF107991041001999999031011MD1210021+9999REMSYN076AAXX  12031 33415 32997 73604 10016 21006 40292 52002 84031 555 20015 7000/;EQDQ01  00002PRCP99
0194334150999992000021206004+49570+025600FM-12+032499999V0203601N001010360019N0100001N1+00121-00171103021ADDAA199000091AJ100009199999999GF107991021051012501031011IA1259KA1120N+00111MD1210091+9999REMSYN076AAXX  12061 33415 32697 73601 10012 21017 40302 52009 82531 333 20011 41998;EQDQ01  00002PRCP99
0112334150999992000021209004+49570+025600FM-12+032499999V0203201N002010360019N0100001N1+00271-00121102981ADDGF107991031051012501031001MD1810021+9999REMSYN060AAXX  12091 33415 42697 73202 10027 21012 40298 58002 83530;
0133334150999992000021212004+49570+025600FM-12+032499999V0203601N002010360019N0100001N1+00511-00241102861ADDGF105991021051012501031001MA1999999098821MD1710071+9999REMSYN066AAXX  12121 33415 42697 53602 10051 21024 39882 40286 57007 82530;
0112334150999992000021215004+49570+025600FM-12+032499999V0209999V001010360019N0100001N1+00381-00181102771ADDGF106991021051012501031001MD1710121+9999REMSYN060AAXX  12151 33415 42697 69901 10038 21018 40277 57012 82530;
0165334150999992000021218004+49570+025600FM-12+032499999V0209999C000019999999N0100001N1+00091-00301102751ADDAA199000091GF105991051001999999031001KA1999M+00521MD1710051+9999REMSYN070AAXX  12181 33415 32997 50000 10009 21030 40275 57005 85030 333 10052;EQDQ01  00002PRCP99
0112334150999992000021221004+49570+025600FM-12+032499999V0209999V002012200019N0100001N1-00051-00331102651ADDGF103991031001999999031001MD1710131+9999REMSYN060AAXX  12211 33415 42997 39902 11005 21033 40265 57013 83030;
0133334150999992000021300004+49570+025600FM-12+032499999V0201401N003012200019N0100001N1-00121-00351102531ADDGF102991021001999999031001MA1999999098401MD1710121+9999REMSYN066AAXX  13001 33415 42997 21403 11012 21035 39840 40253 57012 82030;
0158334150999992000021303004+49570+025600FM-12+032499999V0201401N003012200019N0100001N1-00291-00391102341ADDAA199000091GF102991021001999999031001MD1710201+9999REMSYN076AAXX  13031 33415 32997 21403 11029 21039 40234 57020 82030 555 21030 7000/;EQDQ01  00002PRCP99
0260334150999992000021306004+49570+025600FM-12+032499999V0201601N006010012019N0010001N1-00181-00201102211ADDAA199000091AJ199992999999999AY111061AY211061GA1081+001209069GF108991081061001501999999IA1259KA1120N-00301MD1710111+9999MW1101REMSYN088AAXX  13061 33415 31294 81606 11018 21020 40221 57011 71011 886// 333 21030 41998 88704;EQDQ01  00002PRCP99Q02  09972SNDP  
0166334150999992000021309004+49570+025600FM-12+032499999V0201801N003010018019N0020001N1-00101-00201102121ADDAY121031AY221031GA1061+001809069GF107991061071001501031001MD1710071+9999MW1101REMSYN076AAXX  13091 33415 41295 71803 11010 21020 40212 57007 71022 86730 333 86706;
0187334150999992000021312004+49570+025600FM-12+032499999V0201801N004010036019N0040001N1+00041-00191102031ADDAY121061AY221061GA1061+003609059GF107991061031004501031001MA1999999097941MD1710081+9999MW1101REMSYN082AAXX  13121 33415 41496 71804 10004 21019 39794 40203 57008 71022 86330 333 86612;
0112334150999992000021315004+49570+025600FM-12+032499999V0201601N004012200019N0100001N1+00191-00121101791ADDGF102991021001999999031011MD1710201+9999REMSYN060AAXX  13151 33415 42997 21604 10019 21012 40179 57020 82031;
0193334150999992000021318004+49570+025600FM-12+032499999V0201601N004019999999N0040001N1-00011-00131101781ADDAA199000091AY111061AY211061GF106991051001999999031011KA1999M+00241MD1710041+9999MW1101REMSYN076AAXX  13181 33415 31996 61604 11001 21013 40178 57004 71011 85031 333 10024;EQDQ01  00002PRCP99
0140334150999992000021321004+49570+025600FM-12+032499999V0201601N005019999999N0040001N1-00021-00141101661ADDAY121031AY221031GF107991071001999999031001MD1710141+9999MW1101REMSYN066AAXX  13211 33415 41996 71605 11002 21014 40166 57014 71022 87030;
0161334150999992000021400004+49570+025600FM-12+032499999V0201601N004012200019N0040001N1-00081-00181101521ADDAY111061AY211061GF102991021001999999031001MA1999999097441MD1710121+9999MW1101REMSYN072AAXX  14001 33415 41996 21604 11008 21018 39744 40152 57012 71011 82030;
0207334150999992000021403004+49570+025600FM-12+032499999V0201801N004019999999N0040001N1-00081-00181101241ADDAA199000091AY111031AY211031GF107991071001999999031001MA1999999097271MD1710171+9999MW1101REMSYN088AAXX  14031 33415 31996 71804 11008 21018 39727 40124 57017 71011 87030 555 21008 7000/;EQDQ01  00002PRCP99
0231334150999992000021406004+49570+025600FM-12+032499999V0202301N006010030019N0040001N1+00041-00021101231ADDAA112002091AJ100029199999999AY181061AY221061GA1061+003009099GF107991061031004501031001IA1279KA1120N-00081MD1710091+9999MW1851REMSYN094AAXX  14061 33415 11496 72306 10004 21002 40123 57009 60022 78582 86330 333 21008 43002 86910;
0161334150999992000021412004+49570+025600FM-12+032499999V0202701N007012200019N0100001N1+00151-00331101371ADDAY181061AY211061GF103991031011004501001001MA1999999097321MD1810051+9999MW1011REMSYN072AAXX  14121 33415 41497 32707 10015 21033 39732 40137 58005 70181 83100;
0112334150999992000021415004+49570+025600FM-12+032499999V0202501N004010360019N0100001N1+00111-00311101381ADDGF105991031051012501031001MD1310011+9999REMSYN060AAXX  14151 33415 42697 52504 10011 21031 40138 53001 83530;
0152334150999992000021418004+49570+025600FM-12+032499999V0202501N005012200019N0100001N1-00071-00291101461ADDAA112000791GF103991031051012501001001KA1999M+00181MD1210051+9999REMSYN076AAXX  14181 33415 12697 32505 11007 21029 40146 52005 69902 83500 333 10018;
0122334150999992000021421004+49570+025600FM-12+032499999V0202501N004012200019N0100001N1-00251-00381101541ADDGA1001+999999999GF100991001001999999001001MD1210111+9999REMSYN054AAXX  14211 33415 42997 02504 11025 21038 40154 52011;
0133334150999992000021500004+49570+025600FM-12+032499999V0202901N003012200019N0100001N1-00281-00411101701ADDGF103991031051012501001001MA1999999097571MD1210081+9999REMSYN066AAXX  15001 33415 42697 32903 11028 21041 39757 40170 52008 83500;
0156334150999992000021503004+49570+025600FM-12+032499999V0202901N003010120019N0100001N1-00121-00251101721ADDAY181031AY211031GF108991081031012501999999MD1210051+9999MW1851REMSYN082AAXX  15031 33415 41697 82903 11012 21025 40172 52005 78581 883// 555 21029 7002/;
0209334150999992000021505004+49570+025600FM-12+032499999V0202701N004010120019N0100001N1-00201-00351101861ADDAA112000791AJ100019199999999AY181999AY211999GF106991061031012501001001IA1239KA1120N-00291MD1210131+9999MW1021REMSYN088AAXX  15051 33415 11697 62704 11020 21035 40186 52013 69902 70281 86300 333 21029 47001;
0209334150999992000021506004+49570+025600FM-12+032499999V0202701N004010120019N0100001N1-00201-00351101861ADDAA112000791AJ100019199999999AY181061AY211061GF106991061031012501001001IA1239KA1120N-00291MD1210131+9999MW1021REMSYN088AAXX  15061 33415 11697 62704 11020 21035 40186 52013 69902 70281 86300 333 21029 47001;
0138334150999992000021509004+49570+025600FM-12+032499999V0202701N006010081019N0100001N1-00071-00491101971ADDGA1071+008109099GF107991071031008001001001MD1210131+9999REMSYN070AAXX  15091 33415 42597 72706 11007 21049 40197 52013 87300 333 87927;
0159334150999992000021512004+49570+025600FM-12+032499999V0202501N004010087019N0100001N1+00021-00701101851ADDGA1061+008709059GF107991061051008001001001MA1999999097771MD1810111+9999REMSYN076AAXX  15121 33415 42597 72504 10002 21070 39777 40185 58011 86500 333 86629;
0112334150999992000021515004+49570+025600FM-12+032499999V0202001N003012200019N0100001N1+00021-00741101731ADDGF103991011001999999031011MD1710111+9999REMSYN060AAXX  15151 33415 42997 32003 10002 21074 40173 57011 81031;
0165334150999992000021518004+49570+025600FM-12+032499999V0201601N002012200019N0100001N1-00221-00541101701ADDAA199000091GF102991001001999999001011KA1999M+00141MD1710071+9999REMSYN070AAXX  15181 33415 32997 21602 11022 21054 40170 57007 80001 333 10014;EQDQ01  00002PRCP99
