0132382320999992000010100004+42970+054120FM-12-007999999V0209999C000012200019N0200001N1-00291-00361102771ADDGA1001+999999999GF100991001001999999001001MD1410001+9999REMSYN064AAXX  01001 38232 42998 00000 11029 21036 40277 54000 555 14106;
0193382320999992000010106004+42970+054120FM-12-007999999V0200501N003019999999N0040001N1-00211-00251102561ADDAA106000091AY111061AY211061GF107991001001999999001061KA1999N-00331MD1410001+9999MW1101REMSYN076AAXX  01061 38232 31996 70503 11021 21025 40256 54000 71011 80006 333 21033;EQDQ01  00002PRCP06
0112382320999992000010109004+42970+054120FM-12-007999999V0201101N004019999999N0200001N1+00381-00081102381ADDGF106991001001999999001061MD1810151+9999REMSYN060AAXX  01091 38232 42998 61104 10038 21008 40238 58015 80006;
0143382320999992000010112004+42970+054120FM-12-007999999V0201101N004019999999N0200001N1+00471+00001102251ADDGF106991001001999999001061MA1999999101271MD1710121+9999REMSYN076AAXX  01121 38232 42998 61104 10047 21000 30127 40225 57012 80006 555 10004;
0165382320999992000010115004+42970+054120FM-12-007999999V0201101N003019999999N0200001N1+00301-00201102201ADDAA106000091GF106991001001999999001061KA1999M+00501MD1710051+9999REMSYN070AAXX  01151 38232 32998 61103 10030 21020 40220 57005 80006 333 10050;EQDQ01  00002PRCP06
0165382320999992000010118004+42970+054120FM-12-007999999V0201101N003019999999N0200001N1+00161-00321102151ADDAA106000091GF106991001001999999001061KA1999M+00501MD1710051+9999REMSYN070AAXX  01181 38232 32998 61103 10016 21032 40215 57005 80006 333 10050;EQDQ01  00002PRCP06
0092382320999992000010121004+42970+054120FM-12-007999999V0201101N003019999999N0200001N1+00101-00401102101ADDGF106991001001999999001061REMSYN054AAXX  01211 38232 42998 61103 10010 21040 40210 80006;
0143382320999992000010200004+42970+054120FM-12-007999999V0209999C000019999999N0200001N1-00201-00291102111ADDGF106991001001999999001021MA1999999101101MD1710081+9999REMSYN076AAXX  02001 38232 42998 60000 11020 21029 30110 40211 57008 80002 555 14105;
0158382320999992000010203004+42970+054120FM-12-007999999V0200901N003019999999N0200001N1-00201-00291102081ADDAA106000091GF107991071001999999051001MD1610031+9999REMSYN076AAXX  02031 38232 32998 70903 11020 21029 40208 56003 87050 555 21013 7000/;EQDQ01  00002PRCP06
0165382320999992000010206004+42970+054120FM-12-007999999V0200901N003019999999N0200001N1-00071-00141102211ADDAA106000091GF107991071001999999051001KA1999N-00231MD1210031+9999REMSYN070AAXX  02061 38232 32998 70903 11007 21014 40221 52003 87050 333 21023;EQDQ01  00002PRCP06
0112382320999992000010209004+42970+054120FM-12-007999999V0200901N003010075019N0200001N1+00181-00101102091ADDGF107991071051008001999999MD1810111+9999REMSYN060AAXX  02091 38232 42598 70903 10018 21010 40209 58011 875//;
0143382320999992000010212004+42970+054120FM-12-007999999V0200901N003010120019N0200001N1+00321+00061101951ADDGF106991061051012501001001MA1999999100961MD1710131+9999REMSYN076AAXX  02121 38232 42698 60903 10032 20006 30096 40195 57013 86500 555 10004;
0165382320999992000010215004+42970+054120FM-12-007999999V0200901N003010075019N0200001N1+00281+00111101991ADDAA106000091GF107991071051008001999999KA1999M+00351MD1310041+9999REMSYN070AAXX  02151 38232 32598 70903 10028 20011 40199 53004 875// 333 10035;EQDQ01  00002PRCP06
0165382320999992000010218004+42970+054120FM-12-007999999V0200901N005010075019N0200001N1+00201-00111102011ADDAA106000091GF107991071051008001999999KA1999M+00351MD1110021+9999REMSYN070AAXX  02181 38232 32598 70905 10020 21011 40201 51002 875// 333 10035;EQDQ01  00002PRCP06
0112382320999992000010221004+42970+054120FM-12-007999999V0200901N005010075019N0200001N1+00141-00111102011ADDGF107991071051008001999999MD1410001+9999REMSYN060AAXX  02211 38232 42598 70905 10014 21011 40201 54000 875//;
0143382320999992000010300004+42970+054120FM-12-007999999V0200901N004010075019N0200001N1+00091-00141101951ADDGF107991071051008001999999MA1999999100951MD1810061+9999REMSYN076AAXX  03001 38232 42598 70904 10009 21014 30095 40195 58006 875// 555 10001;
0158382320999992000010303004+42970+054120FM-12-007999999V0201101N004010042019N0100001N1+00081+00031101881ADDAA106000091GF108991081061004501999999MD1710071+9999REMSYN076AAXX  03031 38232 32497 81104 10008 20003 40188 57007 886// 555 20008 7000/;EQDQ01  00002PRCP06
0193382320999992000010306004+42970+054120FM-12-007999999V0201101N003010042019N0040001N1+00141+00091101951ADDAA106000091AY121061AY221061GF108991081061004501999999KA1999N+00081MD1310071+9999MW1101REMSYN076AAXX  03061 38232 31496 81103 10014 20009 40195 53007 71022 886// 333 20008;EQDQ01  00002PRCP06
0112382320999992000010309004+42970+054120FM-12-007999999V0201101N002010042019N0200001N1+00311+00131101831ADDGF108991081061004501999999MD1810111+9999REMSYN060AAXX  03091 38232 42498 81102 10031 20013 40183 58011 886//;
0143382320999992000010312004+42970+054120FM-12-007999999V0201101N003010075019N0200001N1+00421+00141101701ADDGF107991071051008001999999MA1999999100711MD1710131+9999REMSYN076AAXX  03121 38232 42598 71103 10042 20014 30071 40170 57013 875// 555 10006;
0165382320999992000010315004+42970+054120FM-12-007999999V0209999C000010075019N0200001N1+00361+00151101721ADDAA106000091GF107991071051008001999999KA1999M+00361MD1310021+9999REMSYN070AAXX  03151 38232 32598 70000 10036 20015 40172 53002 875// 333 10036;EQDQ01  00002PRCP06
0165382320999992000010318004+42970+054120FM-12-007999999V0209999C000010042019N0200001N1+00331+00151101691ADDAA106000091GF108991081061004501999999KA1999M+00361MD1810031+9999REMSYN070AAXX  03181 38232 32498 80000 10033 20015 40169 58003 886// 333 10036;EQDQ01  00002PRCP06
0112382320999992000010321004+42970+054120FM-12-007999999V0209999C000010042019N0200001N1+00301+00171101641ADDGF108991081061004501999999MD1710051+9999REMSYN060AAXX  03211 38232 42498 80000 10030 20017 40164 57005 886//;
0186382320999992000010403004+42970+054120FM-12-007999999V0203601N002010042019N0040001N1+00331+00301101561ADDAA106000091AY121031AY221031GF108991081061004501999999MD1610031+9999MW1101REMSYN082AAXX  04031 38232 31496 83602 10033 20030 40156 56003 71022 886// 555 20030 7000/;EQDQ01  00002PRCP06
0193382320999992000010406004+42970+054120FM-12-007999999V0201101N003010042019N0040001N1+00371+00321101601ADDAA106000091AY121061AY221061GF108991081061004501999999KA1999N+00301MD1310041+9999MW1101REMSYN076AAXX  04061 38232 31496 81103 10037 20032 40160 53004 71022 886// 333 20030;EQDQ01  00002PRCP06
0140382320999992000010409004+42970+054120FM-12-007999999V0201101N002010042019N0040001N1+00501+00411101481ADDAY151031AY221031GF108991081061004501999999MD1810111+9999MW1511REMSYN066AAXX  04091 38232 41496 81102 10050 20041 40148 58011 75152 886//;
0171382320999992000010412004+42970+054120FM-12-007999999V0201101N002010042019N0100001N1+00581+00511101481ADDAY151061AY221061GF108991081061004501999999MA1999999100501MD1410001+9999MW1201REMSYN082AAXX  04121 38232 41497 81102 10058 20051 30050 40148 54000 72052 886// 555 11006;
0173382320999992000010415004+42970+054120FM-12-007999999V0203601N003010042019N0040001N1+00381+00331101561ADDAY151031AY221031GF108991081061004501999999KA1120M+00621MD1310071+9999MW1101REMSYN086AAXX  04151 38232 /1496 83603 10038 20033 40156 53007 71052 886// 333 10062 555 69932;
0162382320999992000010418004+42970+054120FM-12-007999999V0203201N003012200019N0200001N1+00261+00231101601ADDAA100000391GA1001+999999999GF100991001001999999001001KA1999M+00621MD1110031+9999REMSYN070AAXX  04181 38232 12998 03203 10026 20023 40160 51003 69930 333 10062;
0122382320999992000010421004+42970+054120FM-12-007999999V0203201N003012200019N0200001N1+00151+00101101601ADDGA1001+999999999GF100991001001999999001001MD1410001+9999REMSYN054AAXX  04211 38232 42998 03203 10015 20010 40160 54000;
0153382320999992000010500004+42970+054120FM-12-007999999V0203201N002012200019N0200001N1+00061+00011101561ADDGA1001+999999999GF100991001001999999001001MA1999999100561MD1810041+9999REMSYN070AAXX  05001 38232 42998 03202 10006 20001 30056 40156 58004 555 10101;
0158382320999992000010503004+42970+054120FM-12-007999999V0203201N003010042019N0200001N1+00281+00231101601ADDAA106000091GF108991081061004501999999MD1310031+9999REMSYN076AAXX  05031 38232 32498 83203 10028 20023 40160 53003 886// 555 20006 7993/;EQDQ01  00002PRCP06
0193382320999992000010506004+42970+054120FM-12-007999999V0203401N002010042019N0040001N1+00331+00281101751ADDAA106000091AY121061AY221061GF108991081061004501999999KA1999N+00061MD1210151+9999MW1101REMSYN076AAXX  05061 38232 31496 83402 10033 20028 40175 52015 71022 886// 333 20006;EQDQ01  00002PRCP06
0140382320999992000010509004+42970+054120FM-12-007999999V0200501N004019999999N0200001N1+00361+00151101641ADDAY161031AY221031GF108991081001999999021999MD1810111+9999MW1601REMSYN066AAXX  05091 38232 41998 80504 10036 20015 40164 58011 76062 8802/;
0171382320999992000010512004+42970+054120FM-12-007999999V0200501N003019999999N0200001N1+00421+00221101711ADDAY161061AY221061GF108991081001999999071999MA1999999100721MD1310071+9999MW1021REMSYN082AAXX  05121 38232 41998 80503 10042 20022 30072 40171 53007 70262 8807/ 555 11006;
0173382320999992000010515004+42970+054120FM-12-007999999V0200501N003019999999N0100001N1+00311+00231101651ADDAY161031AY221031GF108991081001999999021999KA1120M+00451MD1710041+9999MW1611REMSYN086AAXX  05151 38232 /1997 80503 10031 20023 40165 57004 76162 8802/ 333 10045 555 69952;
0180382320999992000010518004+42970+054120FM-12-007999999V0200501N003010042019N0100001N1+00251+00201101801ADDAA100000591AY161061AY221061GF108991081001004501021999KA1999M+00451MD1110041+9999MW1611REMSYN082AAXX  05181 38232 11497 80503 10025 20020 40180 51004 69950 76162 8802/ 333 10045;
0140382320999992000010521004+42970+054120FM-12-007999999V0200501N002010042019N0200001N1+00211+00161101801ADDAY161031AY221031GF108991081001004501021999MD1410001+9999MW1021REMSYN066AAXX  05211 38232 41498 80502 10021 20016 40180 54000 70262 8802/;
0181382320999992000010603004+42970+054120FM-12-007999999V0200201N003010042019N0200001N1+00161+00111999999ADDAY161031AY221031GF108991081001004501021999MD1310061+9999MW1021REMSYN088AAXX  06031 38232 /1498 80203 10016 20011 40292 53006 70262 8802/ 555 20016 60032 7003/;EQDQ01+102923APOSLP
0180382320999992000010606004+42970+054120FM-12-007999999V0200201N003010042019N0100001N1+00121+00071102031ADDAA100003091AY161061AY221061GF108991081001004501021999KA1999N+00161MD1110111+9999MW1601REMSYN082AAXX  06061 38232 11497 80203 10012 20007 40203 51011 60030 76062 8802/ 333 20016;
0140382320999992000010609004+42970+054120FM-12-007999999V0200501N003010042019N0020001N1+00201+00171101921ADDAY161031AY251031GF108991081061004501999999MD1810111+9999MW1531REMSYN066AAXX  06091 38232 41495 80503 10020 20017 40192 58011 75365 886//;
0171382320999992000010612004+42970+054120FM-12-007999999V0200201N003010075019N0200001N1+00241+00161101951ADDAY151061AY221061GF107991071051008001999999MA1999999100961MD1410001+9999MW1021REMSYN082AAXX  06121 38232 41598 70203 10024 20016 30096 40195 54000 70252 875// 555 11003;
0145382320999992000010615004+42970+054120FM-12-007999999V0200201N005010075019N0200001N1+00101+00021101891ADDGF107991071051008001999999KA1120M+00271MD1810031+9999REMSYN080AAXX  06151 38232 /2598 70205 10010 20002 40189 58003 875// 333 10027 555 69952;
0112382320999992000010621004+42970+054120FM-12-007999999V0200501N004010042019N0200001N1+00041-00021101811ADDGF108991081061004501999999MD1810031+9999REMSYN060AAXX  06211 38232 42498 80504 10004 21002 40181 58003 886//;
0143382320999992000010700004+42970+054120FM-12-007999999V0200501N002010042019N0200001N1+00001-00061101801ADDGF108991081061004501999999MA1999999100801MD1410001+9999REMSYN076AAXX  07001 38232 42498 80502 10000 21006 30080 40180 54000 886// 555 11000;
0206382320999992000010703004+42970+054120FM-12-007999999V0200501N005010042019N0020001N1-00061-00091101781ADDAA112006091AJ100049199999999AY171031AY271031GF108991081001004501021999IA1279MD1810041+9999MW1731REMSYN098AAXX  07031 38232 /1495 80505 11006 21009 40178 58004 77377 8802/ 333 43004 555 21006 60062 7006/;
0199382320999992000010706004+42970+054120FM-12-007999999V0200201N005010042019N0020001N1-00221-00251101861ADDAA100006191AY171061AY271061GF108991081001004501021999KA1999N+99999MD1310081+9999MW1731REMSYN082AAXX  07061 38232 11495 80205 11022 21025 40186 53008 60060 77377 8802/ 333 21006;EQDQ01 -00062ATMN  
0140382320999992000010709004+42970+054120FM-12-007999999V0203401N006010042019N0020001N1-00211-00241101861ADDAY171031AY271031GF108991081001004501021999MD1410001+9999MW1731REMSYN066AAXX  07091 38232 41495 83406 11021 21024 40186 54000 77377 8802/;
0171382320999992000010712004+42970+054120FM-12-007999999V0203401N006010042019N0040001N1-00281-00411101971ADDAY171061AY271061GF108991081001004501021999MA1999999100961MD1310111+9999MW1711REMSYN082AAXX  07121 38232 41496 83406 11028 21041 30096 40197 53011 77177 8802/ 555 1/101;
0163382320999992000010715004+42970+054120FM-12-007999999V0203401N007010042019N0200001N1-00451-00651102171ADDAY171031AY231031GF108991081001004501021999KA1999M-00171MD1210261+9999MW1361REMSYN076AAXX  07151 38232 /1498 83407 11045 21065 40217 52026 73673 8802/ 333 11017;
0180382320999992000010718004+42970+054120FM-12-007999999V0203401N004019999999N0200001N1-00621-00851102341ADDAA100006191AY171061AY231061GF106991061001999999071001KA1999M-00171MD1210211+9999MW1021REMSYN082AAXX  07181 38232 11998 63404 11062 21085 40234 52021 60060 70273 86070 333 11017;
0112382320999992000010721004+42970+054120FM-12-007999999V0203401N004019999999N0200001N1-00741-00911102571ADDGF106991061001999999071001MD1210171+9999REMSYN060AAXX  07211 38232 42998 63404 11074 21091 40257 52017 86070;
0143382320999992000010800004+42970+054120FM-12-007999999V0203201N004010042019N0200001N1-00461-00611102711ADDGF108991081061004501999999MA1999999101691MD1210161+9999REMSYN076AAXX  08001 38232 42498 83204 11046 21061 30169 40271 52016 886// 555 1/106;
0168382320999992000010803004+42970+054120FM-12-007999999V0203201N003010075019N0200001N1-00541-00791102901ADDAA106000091GF107991071051008001999999MD1210181+9999REMSYN086AAXX  08031 38232 32598 73203 11054 21079 40290 52018 875// 333 14009 555 21075 7006/;EQDQ01  00002PRCP06
0165382320999992000010806004+42970+054120FM-12-007999999V0202701N003010075019N0200001N1-00381-00641103071ADDAA106000091GF107991071051008001999999KA1999N-00751MD1210181+9999REMSYN070AAXX  08061 38232 32598 72703 11038 21064 40307 52018 875// 333 21075;EQDQ01  00002PRCP06
0112382320999992000010809004+42970+054120FM-12-007999999V0202701N002010075019N0200001N1-00201-00531103121ADDGF107991071051008001999999MD1210051+9999REMSYN060AAXX  08091 38232 42598 72702 11020 21053 40312 52005 875//;
0153382320999992000010812004+42970+054120FM-12-007999999V0202301N003012200019N0200001N1-00421-00721103111ADDGA1001+999999999GF100991001001999999001001MA1999999102091MD1310071+9999REMSYN070AAXX  08121 38232 42998 02303 11042 21072 30209 40311 53007 555 1/105;
0175382320999992000010815004+42970+054120FM-12-007999999V0202001N004012200019N0200001N1-00101-00331103261ADDAA106000091GA1001+999999999GF100991001001999999001001KA1999M-00031MD1210111+9999REMSYN064AAXX  08151 38232 32998 02004 11010 21033 40326 52011 333 11003;EQDQ01  00002PRCP06
0175382320999992000010818004+42970+054120FM-12-007999999V0202701N004012200019N0200001N1-01641-01701103351ADDAA106000091GA1001+999999999GF100991001001999999001001KA1999M-00031MD1210071+9999REMSYN064AAXX  08181 38232 32998 02704 11164 21170 40335 52007 333 11003;EQDQ01  00002PRCP06
0122382320999992000010821004+42970+054120FM-12-007999999V0202701N003012200019N0200001N1-01791-01851103431ADDGA1001+999999999GF100991001001999999001001MD1110061+9999REMSYN054AAXX  08211 38232 42998 02703 11179 21185 40343 51006;
0132382320999992000010900004+42970+054120FM-12-007999999V0202701N001012200019N0200001N1-01951-02011103501ADDGA1001+999999999GF100991001001999999001001MD1210071+9999REMSYN064AAXX  09001 38232 42998 02701 11195 21201 40350 52007 555 1/122;
0196382320999992000010903004+42970+054120FM-12-007999999V0209999C000012200019N0005001N1-01651-01781103311ADDAA106000091AY141031AY221031GA1001+999999999GF100991001001999999001001MD1810071+9999MW1441REMSYN076AAXX  09031 38232 31993 00000 11165 21178 40331 58007 74442 555 21195 7000/;EQDQ01  00002PRCP06
0112382320999992000010909004+42970+054120FM-12-007999999V0209999C000010075019N0200001N1-00741-01001103111ADDGF107991071051008001001001MD1710191+9999REMSYN060AAXX  09091 38232 42598 70000 11074 21100 40311 57019 87500;
0143382320999992000010912004+42970+054120FM-12-007999999V0201101N002010075019N0200001N1-00571-00871102961ADDGF107991071051008001001001MA1999999101931MD1710141+9999REMSYN076AAXX  09121 38232 42598 71102 11057 21087 30193 40296 57014 87500 555 1/104;
0165382320999992000010915004+42970+054120FM-12-007999999V0203401N003019999999N0200001N1-00691-00851103061ADDAA106000091GF107991001001999999001081KA1999M-00531MD1310101+9999REMSYN070AAXX  09151 38232 32998 73403 11069 21085 40306 53010 80008 333 11053;EQDQ01  00002PRCP06
0165382320999992000010918004+42970+054120FM-12-007999999V0200201N003019999999N0200001N1-00781-00921103011ADDAA106000091GF106991001001999999001061KA1999M-00531MD1810061+9999REMSYN070AAXX  09181 38232 32998 60203 11078 21092 40301 58006 80006 333 11053;EQDQ01  00002PRCP06
0112382320999992000010921004+42970+054120FM-12-007999999V0200201N002019999999N0200001N1-00851-00961102941ADDGF106991001001999999001061MD1710071+9999REMSYN060AAXX  09211 38232 42998 60202 11085 21096 40294 57007 80006;
0143382320999992000011000004+42970+054120FM-12-007999999V0209999C000019999999N0200001N1-00781-00921102981ADDGF107991001001999999001061MA1999999101941MD1310041+9999REMSYN076AAXX  10001 38232 42998 70000 11078 21092 30194 40298 53004 80006 555 1/109;
0165382320999992000011006004+42970+054120FM-12-007999999V0201801N003010075019N0200001N1-00521-00731103021ADDAA106000091GF107991071051008001999999KA1999N-00851MD1310061+9999REMSYN070AAXX  10061 38232 32598 71803 11052 21073 40302 53006 875// 333 21085;EQDQ01  00002PRCP06
0112382320999992000011009004+42970+054120FM-12-007999999V0209999C000010075019N0200001N1-00391-00651102971ADDGF107991071051008001999999MD1610041+9999REMSYN060AAXX  10091 38232 42598 70000 11039 21065 40297 56004 875//;
0143382320999992000011012004+42970+054120FM-12-007999999V0209999C000010075019N0200001N1-00431-00801102931ADDGF107991071051008001999999MA1999999101911MD1710051+9999REMSYN076AAXX  10121 38232 42598 70000 11043 21080 30191 40293 57005 875// 555 1/103;
0165382320999992000011015004+42970+054120FM-12-007999999V0201401N003010075019N0200001N1-00511-00721103001ADDAA106000091GF107991071051008001999999KA1999M-00341MD1310071+9999REMSYN070AAXX  10151 38232 32598 71403 11051 21072 40300 53007 875// 333 11034;EQDQ01  00002PRCP06
0165382320999992000011018004+42970+054120FM-12-007999999V0201801N003010075019N0200001N1-00501-00711103051ADDAA106000091GF107991071051008001999999KA1999M-00341MD1210051+9999REMSYN070AAXX  10181 38232 32598 71803 11050 21071 40305 52005 875// 333 11034;EQDQ01  00002PRCP06
0112382320999992000011021004+42970+054120FM-12-007999999V0201801N002010075019N0200001N1-00531-00711103091ADDGF107991071051008001999999MD1110041+9999REMSYN060AAXX  10211 38232 42598 71802 11053 21071 40309 51004 875//;
0143382320999992000011100004+42970+054120FM-12-007999999V0209999C000010075019N0200001N1-00571-00681103091ADDGF107991071051008001999999MA1999999102071MD1410001+9999REMSYN076AAXX  11001 38232 42598 70000 11057 21068 30207 40309 54000 875// 555 1/106;
0168382320999992000011103004+42970+054120FM-12-007999999V0209999C000010075019N0200001N1-00581-00691103131ADDAA106000091GF107991071051008001001001MD1310031+9999REMSYN086AAXX  11031 38232 32598 70000 11058 21069 40313 53003 87500 333 14006 555 21058 7000/;EQDQ01  00002PRCP06
0181382320999992000011106004+42970+054120FM-12-007999999V0201101N003019999999N0200001N1-00621-00851103291ADDAA106000091GF106991999051999999001001KA1999N-00581MD1210161+9999REMSYN070AAXX  11061 38232 32998 61103 11062 21085 40329 52016 87500 333 21058;EQDQ01+000072SCOTLCQ02  00002PRCP06
0122382320999992000011109004+42970+054120FM-12-007999999V0209999C000012200019N0200001N1-00561-00941103251ADDGA1001+999999999GF100991001001999999001001MD1810041+9999REMSYN054AAXX  11091 38232 42998 00000 11056 21094 40325 58004;
0153382320999992000011112004+42970+054120FM-12-007999999V0209999C000012200019N0200001N1-00631-00991103241ADDGA1001+999999999GF100991001001999999001001MA1999999102211MD1610011+9999REMSYN070AAXX  11121 38232 42998 00000 11063 21099 30221 40324 56001 555 1/113;
0175382320999992000011115004+42970+054120FM-12-007999999V0209999C000012200019N0200001N1-01151-01341103161ADDAA106000091GA1001+999999999GF100991001001999999001001KA1999M-00481MD1210021+9999REMSYN064AAXX  11151 38232 32998 00000 11115 21134 40316 52002 333 11048;EQDQ01  00002PRCP06
0165382320999992000011118004+42970+054120FM-12-007999999V0201601N004010075019N0200001N1-00821-01011103201ADDAA106000091GF107991071051008001999999KA1999M-00481MD1810071+9999REMSYN070AAXX  11181 38232 32598 71604 11082 21101 40320 58007 875// 333 11048;EQDQ01  00002PRCP06
0112382320999992000011121004+42970+054120FM-12-007999999V0201601N003010075019N0200001N1-00891-01041103201ADDGF107991071051008001999999MD1410001+9999REMSYN060AAXX  11211 38232 42598 71603 11089 21104 40320 54000 875//;
0174382320999992000011206004+42970+054120FM-12-007999999V0209999C000019999999N0040001N1-00581-00801103191ADDAA106000021AY171061AY221061GF108991081061999999999999KA1999N-01271MD1310041+9999MW1771REMSYN076AAXX  12061 38232 31996 80000 11058 21080 40319 53004 77772 886// 333 21127;
0140382320999992000011209004+42970+054120FM-12-007999999V0200201N004010042019N0020001N1-00441-00531103121ADDAY171031AY271031GF108991081061004501999999MD1810061+9999MW1771REMSYN066AAXX  12091 38232 41495 80204 11044 21053 40312 58006 77777 886//;
0171382320999992000011212004+42970+054120FM-12-007999999V0209999C000010042019N0200001N1-00371-00661103101ADDAY171061AY221061GF107991071091004501001001MA1999999102101MD1410001+9999MW1021REMSYN082AAXX  12121 38232 41498 70000 11037 21066 30210 40310 54000 70272 87900 555 1/103;
0145382320999992000011215004+42970+054120FM-12-007999999V0209999C000010075019N0200001N1-00471-00671103211ADDGF107991071051008001999999KA1120M-00371MD1210111+9999REMSYN080AAXX  12151 38232 /2598 70000 11047 21067 40321 52011 875// 333 11037 555 60062;
0152382320999992000011218004+42970+054120FM-12-007999999V0209999C000010042019N0200001N1-00511-00651103271ADDAA100000791GF108991081061004501999999KA1999M-00371MD1110041+9999REMSYN076AAXX  12181 38232 12498 80000 11051 21065 40327 51004 69900 886// 333 11037;
0112382320999992000011221004+42970+054120FM-12-007999999V0209999C000010042019N0200001N1-00551-00661103271ADDGF108991081061004501999999MD1410001+9999REMSYN060AAXX  12211 38232 42498 80000 11055 21066 40327 54000 886//;
0112382320999992000011300004+42970+054120FM-12-007999999V0209999C000010042019N0200001N1-00581-00691103241ADDGF108991081061004501999999MD1810031+9999REMSYN060AAXX  13001 38232 42498 80000 11058 21069 40324 58003 886//;
0174382320999992000011303004+42970+054120FM-12-007999999V0203401N003010042019N0200001N1-00321-00421103862ADDAA106000091GF108991081061004501999999MD1310111+9999REMSYN076AAXX  13031 38232 32498 83403 11032 21042 40386 53011 886// 555 21058 7990/;EQDQ01+103863APOSLPQ02  00002PRCP06
0174382320999992000011306004+42970+054120FM-12-007999999V0203401N003019999999N0040001N1-00301-00401103441ADDAA106000021AY171061AY221061GF108991081001999999021999KA1999N-00581MD1210081+9999MW1711REMSYN076AAXX  13061 38232 31996 83403 11030 21040 40344 52008 77172 8802/ 333 21058;
0140382320999992000011309004+42970+054120FM-12-007999999V0200501N003019999999N0100001N1-00221-00451103441ADDAY171031AY271031GF107991071001999999011001MD1410001+9999MW1711REMSYN066AAXX  13091 38232 41997 70503 11022 21045 40344 54000 77177 87010;
0171382320999992000011312004+42970+054120FM-12-007999999V0200501N003019999999N0200001N1-00401-00731103441ADDAY171061AY221061GF107991001001999999001061MA1999999102421MD1510001+9999MW1021REMSYN082AAXX  13121 38232 41998 70503 11040 21073 30242 40344 55000 70272 80006 555 1/109;
0156382320999992000011315004+42970+054120FM-12-007999999V0209999C000019999999N0200001N1-01191-01331103501ADDAA106000021GF107991001001999999001061KA1120M-00191MD1210051+9999REMSYN080AAXX  13151 38232 32998 70000 11119 21133 40350 52005 80006 333 11019 555 69902;
0152382320999992000011318004+42970+054120FM-12-007999999V0209999C000010075019N0200001N1-01271-01401103571ADDAA100000791GF107991071051008001999999KA1999M-00191MD1110031+9999REMSYN076AAXX  13181 38232 12598 70000 11127 21140 40357 51003 69900 875// 333 11019;
0116382320999992000011321004+42970+054120FM-12-007999999V0209999C000010075019N0200001N1-01311-01441103571ADDGF107991071051008001999999MD1410001+9999REMSYN064    AAXX  13211 38232 42598 70000 11131 21144 40357 54000 875//;
0147382320999992000011400004+42970+054120FM-12-007999999V0209999C000010075019N0200001N1-01351-01481103541ADDGF107991071051008001999999MA1999999102471MD1810031+9999REMSYN080    AAXX  14001 38232 42598 70000 11135 21148 30247 40354 58003 875// 555 1/113;
0172382320999992000011403004+42970+054120FM-12-007999999V0203601N003010042019N0200001N1-00521-00691103531ADDAA199000091GF108991081061004501999999MD1310031+9999REMSYN090    AAXX  14031 38232 32498 83603 11052 21069 40353 53003 886// 333 14005 555 21140 7990/;EQDQ01  00002PRCP99
0169382320999992000011406004+42970+054120FM-12-007999999V0209999C000010042019N0200001N1-00501-00741103641ADDAA199000091GF108991081061004501999999KA1999N-01401MD1210111+9999REMSYN074    AAXX  14061 38232 32498 80000 11050 21074 40364 52011 886// 333 21140;EQDQ01  00002PRCP99
0116382320999992000011409004+42970+054120FM-12-007999999V0200501N003010075019N0200001N1-00361-00811103611ADDGF107991071051008001999999MD1810031+9999REMSYN064    AAXX  14091 38232 42598 70503 11036 21081 40361 58003 875//;
0147382320999992000011412004+42970+054120FM-12-007999999V0200201N002010075019N0200001N1-00371-00861103581ADDGF107991071051008001999999MA1999999102551MD1710031+9999REMSYN080    AAXX  14121 38232 42598 70202 11037 21086 30255 40358 57003 875// 555 1/104;
0169382320999992000011415004+42970+054120FM-12-007999999V0209999C000010075019N0200001N1-00531-00971103581ADDAA199000091GF107991071051008001001001KA1999M-00331MD1410001+9999REMSYN074    AAXX  14151 38232 32598 70000 11053 21097 40358 54000 87500 333 11033;EQDQ01  00002PRCP99
0169382320999992000011418004+42970+054120FM-12-007999999V0209999C000010075019N0200001N1-00781-01091103641ADDAA199000091GF107991071051008001001001KA1999M-00331MD1310041+9999REMSYN074    AAXX  14181 38232 32598 70000 11078 21109 40364 53004 87500 333 11033;EQDQ01  00002PRCP99
0116382320999992000011421004+42970+054120FM-12-007999999V0209999C000010075019N0200001N1-00931-01141103681ADDGF107991071051008001001001MD1110041+9999REMSYN064    AAXX  14211 38232 42598 70000 11093 21114 40368 51004 87500;
0147382320999992000011500004+42970+054120FM-12-007999999V0209999C000010075019N0200001N1-01051-01251103681ADDGF107991071051008001001001MA1999999102631MD1410001+9999REMSYN080    AAXX  15001 38232 42598 70000 11105 21125 30263 40368 54000 87500 555 1/111;
0172382320999992000011503004+42970+054120FM-12-007999999V0209999C000010075019N0200001N1-01461-01591103541ADDAA199000091GF107991071051008001999999MD1710131+9999REMSYN090    AAXX  15031 38232 32598 70000 11146 21159 40354 57013 875// 333 14005 555 21164 7000/;EQDQ01  00002PRCP99
0178382320999992000011506004+42970+054120FM-12-007999999V0209999C000010360019N0200001N1-01101-01241103541ADDAA199000021AY171061AY221061GF106991041051008001011001KA1999N-01641MD1210021+9999MW1711REMSYN080    AAXX  15061 38232 31598 60000 11110 21124 40354 52002 77172 84510 333 21164;
0154382320999992000011509004+42970+054120FM-12-007999999V0209999C000012200019N0200001N1-00671-01091103361ADDAY171031AY211031GA1001+999999999GF100991001001999999001001MD1810161+9999MW1021REMSYN064    AAXX  15091 38232 41998 00000 11067 21109 40336 58016 70271;
0157382320999992000011512004+42970+054120FM-12-007999999V0209999C000012200019N0200001N1-00901-01091103251ADDGA1001+999999999GF100991001001999999001001MA1999999102211MD1610121+9999REMSYN074    AAXX  15121 38232 42998 00000 11090 21109 30221 40325 56012 555 1/110;
0160382320999992000011515004+42970+054120FM-12-007999999V0209999C000012200019N0200001N1-01571-01751103211ADDAA199000021GA1001+999999999GF100991001001999999001001KA1999M-00631MD1710081+9999REMSYN068    AAXX  15151 38232 32998 00000 11157 21175 40321 57008 333 11063;
0178382320999992000011518004+42970+054120FM-12-007999999V0209999C000010042019N0200001N1-00901-01071103131ADDAA199000021AY171061AY261061GF108991081061004501999999KA1999M-00631MD1710051+9999MW1711REMSYN080    AAXX  15181 38232 31498 80000 11090 21107 40313 57005 77176 886// 333 11063;
0144382320999992000011521004+42970+054120FM-12-007999999V0209999C000010042019N0200001N1-00751-00881103131ADDAY171031AY221031GF108991081061004501999999MD1410001+9999MW1021REMSYN070    AAXX  15211 38232 41498 80000 11075 21088 40313 54000 70272 886//;
0147382320999992000011600004+42970+054120FM-12-007999999V0209999C000010042019N0200001N1-01021-01151103061ADDGF106991061061004501001001MA1999999102011MD1810091+9999REMSYN080    AAXX  16001 38232 42498 60000 11102 21115 30201 40306 58009 86600 555 1/110;
0159382320999992000011603004+42970+054120FM-12-007999999V0209999C000019999999N0200001N1-01501-01631102981ADDAA112999929GF106991001001999999001061MD1710201+9999REMSYN096    AAXX  16031 38232 /2998 60000 11150 21163 40298 57020 80006 333 14005 555 21169 69902 7990/;
0116382320999992000011609004+42970+054120FM-12-007999999V0209999C000019999999N0200001N1-01281-01431102801ADDGF106991001001999999001061MD1710071+9999REMSYN064    AAXX  16091 38232 42998 60000 11128 21143 40280 57007 80006;
0166382320999992000011612004+42970+054120FM-12-007999999V0203201N003019999999N0200001N1-00971-01231102481ADDGF106991001001999999001071MA1999999101441MD1710091+9999REMSYN080    AAXX  16121 38232 42598 63203 11097 21123 30144 40248 57009 80007 555 1/109;EQDQ01+008002SCOLCB
0169382320999992000011615004+42970+054120FM-12-007999999V0203401N002019999999N0200001N1-01151-01351102481ADDAA199000091GF107991001001999999001071KA1999M-00891MD1610011+9999REMSYN074    AAXX  16151 38232 32998 73402 11115 21135 40248 56001 80007 333 11089;EQDQ01  00002PRCP99
0169382320999992000011618004+42970+054120FM-12-007999999V0203601N003019999999N0200001N1-01401-01531102421ADDAA199000091GF107991001001999999001071KA1999M-00891MD1810071+9999REMSYN074    AAXX  16181 38232 32998 73603 11140 21153 40242 58007 80007 333 11089;EQDQ01  00002PRCP99
0116382320999992000011621004+42970+054120FM-12-007999999V0203601N002019999999N0200001N1-01611-01741102321ADDGF107991001001999999001071MD1710101+9999REMSYN064    AAXX  16211 38232 42998 73602 11161 21174 40232 57010 80007;
0157382320999992000011700004+42970+054120FM-12-007999999V0209999C000012200019N0200001N1-01721-01841102181ADDGA1001+999999999GF100991001001999999001001MA1999999101101MD1710161+9999REMSYN074    AAXX  17001 38232 42998 00000 11172 21184 30110 40218 57016 555 1/108;
0172382320999992000011703004+42970+054120FM-12-007999999V0209999C000019999999N0200001N1-01781-01971102121ADDAA199000091GF107991001001999999001071MD1710061+9999REMSYN090    AAXX  17031 38232 32998 70000 11178 21197 40212 57006 80007 333 14004 555 21178 7000/;EQDQ01  00002PRCP99
0172382320999992000011706004+42970+054120FM-12-007999999V0209999C000019999999N0200001N1-00611-00842101921ADDAA199000091GF106991999001999999051001MD1310141+9999REMSYN074    AAXX  17061 38232 32998 60000 11061 21084 40192 53014 87050 555 21178;EQDQ01+000072SCOTLCQ02  00002PRCP99
0135382320999992000011709004+42970+054120FM-12-007999999V0209999C000019999999N0200001N1-00571-01091101911ADDGF106991999001999999051001MD1810011+9999REMSYN064    AAXX  17091 38232 42998 60000 11057 21109 40191 58001 87050;EQDQ01+000072SCOTLC
0147382320999992000011712004+42970+054120FM-12-007999999V0201801N004010075019N0200001N1-00781-01091101741ADDGF106991061051008001001001MA1999999100711MD1710181+9999REMSYN080    AAXX  17121 38232 41598 61804 11078 21109 30071 40174 57018 86500 555 1/106;
0169382320999992000011715004+42970+054120FM-12-007999999V0201801N004010075019N0200001N1-00721-01011101701ADDAA199000091GF107991071051008001999999KA1999M-00531MD1610031+9999REMSYN074    AAXX  17151 38232 32598 71804 11072 21101 40170 56003 875// 333 11053;EQDQ01  00002PRCP99
0169382320999992000011718004+42970+054120FM-12-007999999V0201601N003010075019N0200001N1-00671-00911101621ADDAA199000091GF107991071051008001999999KA1999M-00531MD1810061+9999REMSYN074    AAXX  17181 38232 32598 71603 11067 21091 40162 58006 875// 333 11053;EQDQ01  00002PRCP99
0116382320999992000011721004+42970+054120FM-12-007999999V0201601N002010075019N0200001N1-00741-00911101531ADDGF107991071051008001999999MD1710091+9999REMSYN064    AAXX  17211 38232 42598 71602 11074 21091 40153 57009 875//;
0147382320999992000011800004+42970+054120FM-12-007999999V0209999C000010075019N0200001N1-00771-00871101441ADDGF107991071051008001001001MA1999999100421MD1810091+9999REMSYN080    AAXX  18001 38232 42598 70000 11077 21087 30042 40144 58009 87500 555 1/108;
0172382320999992000011803004+42970+054120FM-12-007999999V0201601N003010075019N0200001N1-00261-00531101321ADDAA199000091GF107991071051008001001001MD1610101+9999REMSYN090    AAXX  18031 38232 32598 71603 11026 21053 40132 56010 87500 333 14004 555 21080 7000/;EQDQ01  00002PRCP99
0169382320999992000011806004+42970+054120FM-12-007999999V0201801N003010075019N0200001N1+00031-00521101321ADDAA199000091GF107991071051008001999999KA1999N-00801MD1610011+9999REMSYN074    AAXX  18061 38232 32598 71803 10003 21052 40132 56001 875// 333 21080;EQDQ01  00002PRCP99
0116382320999992000011809004+42970+054120FM-12-007999999V0201601N008019999999N0200001N1+00041-00501101151ADDGF107991001001999999001061MD1810161+9999REMSYN064    AAXX  18091 38232 42998 71608 10004 21050 40115 58016 80006;
0166382320999992000011812004+42970+054120FM-12-007999999V0201601N007019999999N0200001N1+00161-00221101982ADDGF107991041001999999081021MA1999999100981MD1710171+9999REMSYN080    AAXX  18121 38232 42998 71607 10016 21022 30098 40198 57017 84082 555 1/000;EQDQ01+101983APOSLP
0169382320999992000011815004+42970+054120FM-12-007999999V0201601N007019999999N0200001N1+00001-00291101901ADDAA199000091GF107991071001999999031001KA1999M+00291MD1710071+9999REMSYN074    AAXX  18151 38232 32998 71607 10000 21029 40190 57007 87030 333 10029;EQDQ01  00002PRCP99
0169382320999992000011818004+42970+054120FM-12-007999999V0201601N007019999999N0200001N1+00041-00321100821ADDAA199000091GF107991071001999999051001KA1999M+00251MD1710141+9999REMSYN074    AAXX  18181 38232 32998 71607 10004 21032 40082 57014 87050 333 10025;EQDQ01  00002PRCP99
0116382320999992000011821004+42970+054120FM-12-007999999V0201601N005019999999N0200001N1+00001-00341100661ADDGF107991071001999999051001MD1710151+9999REMSYN064    AAXX  18211 38232 42998 71605 10000 21034 40066 57015 87050;
0169382320999992000011906004+42970+054120FM-12-007999999V0201601N010019999999N0200001N1+00401-00551100381ADDAA199000091GF107991071001999999081001KA1999N+00031MD1310011+9999REMSYN074    AAXX  19061 38232 32998 71610 10040 21055 40038 53001 87080 333 20003;EQDQ01  00002PRCP99
0101382320999992000011909004+42970+054120FM-12-007999999V0201401N006019999999N0200001N1+00451-00361999999ADDGF107991999999999999999999REMSYN063    AAXX  19091 38232 42998 71406 10045 21036 4013 57025 87070;
0147382320999992000011912004+42970+054120FM-12-007999999V0201601N006019999999N0200001N1+00511-00281099961ADDGF107991041001999999081021MA1999999098991MD1710171+9999REMSYN080    AAXX  19121 38232 42998 71606 10051 21028 39899 49996 57017 84082 555 1/100;
0165382320999992000011915004+42970+054120FM-12-007999999V0201601N006019999999N0200001N1+00361-00271099851ADDAA199000091GF107991071001999999071001KA1999M+00651MD1610111+9999REMSYN070AAXX  19151 38232 32998 71606 10036 21027 49985 56011 87070 333 10065;EQDQ01  00002PRCP99
0181382320999992000011918004+42970+054120FM-12-007999999V0201601N004019999999N0200001N1+00461-00141999999ADDAA199000091GF108991081001999999011999KA1999M+00651MD1710011+9999REMSYN070AAXX  19181 38232 32998 81604 10046 21014 40093 57001 8801/ 333 10065;EQDQ01+100933APOSLPQ02  00002PRCP99
0112382320999992000011921004+42970+054120FM-12-007999999V0201601N005019999999N0200001N1+00491-00171099631ADDGF108991081001999999011999MD1710101+9999REMSYN060AAXX  19211 38232 42998 81605 10049 21017 49963 57010 8801/;
0178382320999992000012003004+42970+054120FM-12-007999999V0202501N004012200019N0200001N1-00061-00271100741ADDAA199000091GA1001+999999999GF100991001001999999001001MD1210491+9999REMSYN080AAXX  20031 38232 32998 02504 11006 21027 40074 52049 333 14002 555 21015 7000/;EQDQ01  00002PRCP99
0165382320999992000012006004+42970+054120FM-12-007999999V0202901N004019999999N0200001N1+00021-00151100941ADDAA199000091GF107991001001999999001081KA1999N-00151MD1210201+9999REMSYN070AAXX  20061 38232 32998 72904 10002 21015 40094 52020 80008 333 21015;EQDQ01  00002PRCP99
0112382320999992000012009004+42970+054120FM-12-007999999V0209999C000019999999N0200001N1+00231-00051100771ADDGF107991001001999999001061MD1710171+9999REMSYN060AAXX  20091 38232 42998 70000 10023 21005 40077 57017 80006;
0143382320999992000012012004+42970+054120FM-12-007999999V0209999C000019999999N0200001N1+00211-00041100651ADDGF107991071001999999081001MA1999999099651MD1710121+9999REMSYN076AAXX  20121 38232 42998 70000 10021 21004 39965 40065 57012 87080 555 1/000;
0165382320999992000012015004+42970+054120FM-12-007999999V0201101N004019999999N0200001N1+00131-00041100521ADDAA199000091GF107991071001999999051001KA1999M+00321MD1610021+9999REMSYN070AAXX  20151 38232 32998 71104 10013 21004 40052 56002 87050 333 10032;EQDQ01  00002PRCP99
0165382320999992000012018004+42970+054120FM-12-007999999V0201101N003019999999N0200001N1+00181-00011100491ADDAA199000091GF107991001001999999001081KA1999M+00321MD1810131+9999REMSYN070AAXX  20181 38232 32998 71103 10018 21001 40049 58013 80008 333 10032;EQDQ01  00002PRCP99
0112382320999992000012021004+42970+054120FM-12-007999999V0201101N003019999999N0200001N1+00011-00031100391ADDGF107991001001999999001081MD1710101+9999REMSYN060AAXX  20211 38232 42998 71103 10001 21003 40039 57010 80008;
0143382320999992000012100004+42970+054120FM-12-007999999V0209999C000019999999N0200001N1+00141+00001100131ADDGF107991001001999999001081MA1999999099141MD1710261+9999REMSYN076AAXX  21001 38232 42998 70000 10014 20000 39914 40013 57026 80008 555 1/102;
0168382320999992000012103004+42970+054120FM-12-007999999V0201401N002019999999N0200001N1+00141-00211099951ADDAA199000091GF106991061001999999081001MD1710181+9999REMSYN086AAXX  21031 38232 32998 61402 10014 21021 49995 57018 86080 333 12002 555 20002 7000/;EQDQ01  00002PRCP99
0165382320999992000012106004+42970+054120FM-12-007999999V0200901N002010120019N0200001N1+00161-00101100081ADDAA199000091GF107991071051012501999999KA1999N+00021MD1310241+9999REMSYN070AAXX  21061 38232 32698 70902 10016 21010 40008 53024 875// 333 20002;EQDQ01  00002PRCP99
0140382320999992000012109004+42970+054120FM-12-007999999V0201101N004010075019N0100001N1+00051-00031100161ADDAY151031AY221031GF108991081061008001999999MD1210081+9999MW1021REMSYN066AAXX  21091 38232 41597 81104 10005 21003 40016 52008 70252 886//;
0171382320999992000012112004+42970+054120FM-12-007999999V0203401N008010042019N0200001N1+00041-00131100441ADDAY151061AY221061GF108991081061004501999999MA1999999099451MD1210181+9999MW1021REMSYN082AAXX  21121 38232 41498 83408 10004 21013 39945 40044 52018 70252 886// 555 1/101;
0173382320999992000012115004+42970+054120FM-12-007999999V0203401N006010042019N0040001N1+00101+00021100791ADDAY171031AY221031GF108991081001004501021999KA1120M+00321MD1110351+9999MW1711REMSYN086AAXX  21151 38232 /1496 83406 10010 20002 40079 51035 77172 8802/ 333 10032 555 69922;
0180382320999992000012118004+42970+054120FM-12-007999999V0203401N006010075019N0200001N1-00061-00221101091ADDAA100000191AY171061AY221061GF107991071051008001999999KA1999M+00321MD1210301+9999MW1021REMSYN082AAXX  21181 38232 11598 73406 11006 21022 40109 52030 69920 70272 875// 333 10032;
0112382320999992000012121004+42970+054120FM-12-007999999V0203401N006010075019N0200001N1-00111-00201101341ADDGF107991071051008001999999MD1210251+9999REMSYN060AAXX  21211 38232 42598 73406 11011 21020 40134 52025 875//;
0153382320999992000012200004+42970+054120FM-12-007999999V0209999C000012200019N0200001N1-00451-00541101571ADDGA1001+999999999GF100991001001999999001001MA1999999100561MD1210211+9999REMSYN070AAXX  22001 38232 42998 00000 11045 21054 30056 40157 52021 555 1/105;
0149382320999992000012203004+42970+054120FM-12-007999999V0209999C000012200019N9999999N1-00521-00601101601ADDAA199000021GA1001+999999999GF100991001001999999001001MD1210031+9999REMSYN070AAXX  22031 38232 329// 00000 11052 21060 40160 52003 555 21055 7992/;
0175382320999992000012206004+42970+054120FM-12-007999999V0202001N002012200019N0200001N1-00361-00641101601ADDAA199000091GA1001+999999999GF100991001001999999001001KA1999N-00551MD1210071+9999REMSYN064AAXX  22061 38232 32998 02002 11036 21064 40160 52007 333 21055;EQDQ01  00002PRCP99
0122382320999992000012209004+42970+054120FM-12-007999999V0201401N004012200019N0200001N1-00051-00261101441ADDGA1001+999999999GF100991001001999999001001MD1810151+9999REMSYN054AAXX  22091 38232 42998 01404 11005 21026 40144 58015;
0153382320999992000012212004+42970+054120FM-12-007999999V0201401N005012200019N0200001N1+00091-00551101301ADDGA1001+999999999GF100991001001999999001001MA1999999100311MD1710131+9999REMSYN070AAXX  22121 38232 42998 01405 10009 21055 30031 40130 57013 555 1/100;
0165382320999992000012215004+42970+054120FM-12-007999999V0201401N005012200019N0200001N1-00131-00531101221ADDAA199000091GF102991021001999999081001KA1999M+00121MD1710091+9999REMSYN070AAXX  22151 38232 32998 21405 11013 21053 40122 57009 82080 333 10012;EQDQ01  00002PRCP99
0174382320999992000012218004+42970+054120FM-12-007999999V0201401N007010042019N0020001N1+00021-00221101031ADDAA199000021AY181061AY211061GF107991071091004501001001KA1999M+00121MD1710181+9999MW1881REMSYN076AAXX  22181 38232 31495 71407 10002 21022 40103 57018 78881 87900 333 10012;
0140382320999992000012221004+42970+054120FM-12-007999999V0201401N006010075019N0200001N1-00021-00201100891ADDAY181031AY221031GF107991071091008001001001MD1710141+9999MW1021REMSYN066AAXX  22211 38232 41598 71406 11002 21020 40089 57014 70282 87900;
0165382320999992000012300004+42970+054120FM-12-007999999V0201401N008019999999N0200001N1-00051-00201100931ADDAY181061AY211061GF108991999999999999999999MA1999999099931MD1310031+9999MW1021REMSYN076AAXX  23001 38232 41998 81408 11005 21020 39993 40093 53003 70281 555 1/102;
0178382320999992000012303004+42970+054120FM-12-007999999V0201801N004012200019N0200001N1+00101-00071101261ADDAA112999929AJ100029199999999GF104991041001999999081001IA1309MD1210331+9999REMSYN092AAXX  23031 38232 /2998 41804 10010 21007 40126 52033 84080 333 42002 555 21014 69902 7990/;
0162382320999992000012306004+42970+054120FM-12-007999999V0202501N004012200019N0200001N1+00331-00021101541ADDAA100000791GA1001+999999999GF100991001001999999001001KA1999N-00141MD1210291+9999REMSYN070AAXX  23061 38232 12998 02504 10033 21002 40154 52029 69900 333 21014;
0112382320999992000012309004+42970+054120FM-12-007999999V0203401N008010075019N0200001N1+00151-00101101801ADDGF107991071091008001001001MD1210251+9999REMSYN060AAXX  23091 38232 42598 73408 10015 21010 40180 52025 87900;
0143382320999992000012312004+42970+054120FM-12-007999999V0203601N005012200019N0200001N1+00061-00271102171ADDGF104991031091999999001021MA1999999101171MD1210331+9999REMSYN076AAXX  23121 38232 42998 43605 10006 21027 30117 40217 52033 83902 555 11005;
0175382320999992000012315004+42970+054120FM-12-007999999V0203401N006012200019N0200001N1-00141-00431102361ADDAA199000091GA1001+999999999GF100991001001999999001001KA1999M+00401MD1110181+9999REMSYN064AAXX  23151 38232 32998 03406 11014 21043 40236 51018 333 10040;EQDQ01  00002PRCP99
0165382320999992000012318004+42970+054120FM-12-007999999V0203601N005019999999N0200001N1-00461-00541102601ADDAA199000091GF106991001001999999001061KA1999M+00401MD1210231+9999REMSYN070AAXX  23181 38232 32998 63605 11046 21054 40260 52023 80006 333 10040;EQDQ01  00002PRCP99
0112382320999992000012321004+42970+054120FM-12-007999999V0203601N004019999999N0200001N1-00471-00601102791ADDGF105991001001999999001061MD1210181+9999REMSYN060AAXX  23211 38232 42998 53604 11047 21060 40279 52018 80006;
0137382320999992000012400004+42970+054120FM-12-007999999V0203601N003012200019N0200001N1-00521-00721102861ADDGF104991999999999999999999MA1999999101471MD1210131+9999REMSYN070AAXX  24001 38232 42998 43603 11052 21072 30147 40286 52013 555 1/102;
0181382320999992000012403004+42970+054120FM-12-007999999V0200201N003010075019N0200001N1-00541-00871102921ADDAA199000091GF107991071051008001001001KA1120M-00021MD1210091+9999REMSYN086AAXX  24031 38232 32598 70203 11054 21087 40292 52009 87500 333 11002 555 21054 7000/;EQDQ01  00002PRCP99
0165382320999992000012406004+42970+054120FM-12-007999999V0200201N002012200019N0200001N1-00521-00931103091ADDAA199000091GF104991041051008001001001KA1999N-00541MD1210201+9999REMSYN070AAXX  24061 38232 32598 40202 11052 21093 40309 52020 84500 333 21054;EQDQ01  00002PRCP99
0122382320999992000012409004+42970+054120FM-12-007999999V0200701N003012200019N0200001N1-00261-00901103091ADDGA1001+999999999GF100991001001999999001001MD1810021+9999REMSYN054AAXX  24091 38232 42998 00703 11026 21090 40309 58002;
0153382320999992000012412004+42970+054120FM-12-007999999V0201101N003012200019N0200001N1-00191-00941103171ADDGA1001+999999999GF100991001001999999001001MA1999999102151MD1210081+9999REMSYN070AAXX  24121 38232 42998 01103 11019 21094 30215 40317 52008 555 1/101;
0175382320999992000012415004+42970+054120FM-12-007999999V0201101N003012200019N0200001N1-00471-01041103181ADDAA199000091GA1001+999999999GF100991001001999999001001KA1999M-00181MD1110011+9999REMSYN064AAXX  24151 38232 32998 01103 11047 21104 40318 51001 333 11018;EQDQ01  00002PRCP99
0175382320999992000012418004+42970+054120FM-12-007999999V0201401N003012200019N0200001N1-00601-01081103161ADDAA199000091GA1001+999999999GF100991001001999999001001KA1999M-00181MD1810021+9999REMSYN064AAXX  24181 38232 32998 01403 11060 21108 40316 58002 333 11018;EQDQ01  00002PRCP99
0122382320999992000012421004+42970+054120FM-12-007999999V0201401N003012200019N0200001N1-00721-01111103101ADDGA1001+999999999GF100991001001999999001001MD1710061+9999REMSYN054AAXX  24211 38232 42998 01403 11072 21111 40310 57006;
0153382320999992000012500004+42970+054120FM-12-007999999V0201101N006012200019N0200001N1-00651-01061102881ADDGA1001+999999999GF100991001001999999001001MA1999999101851MD1710221+9999REMSYN070AAXX  25001 38232 42998 01106 11065 21106 30185 40288 57022 555 1/107;
0165382320999992000012506004+42970+054120FM-12-007999999V0200901N009012200019N0200001N1-00311-00631102521ADDAA199000091GF102991021041008001001011KA1999N-00651MD1710101+9999REMSYN070AAXX  25061 38232 32598 20909 11031 21063 40252 57010 82401 333 21065;EQDQ01  00002PRCP99
0112382320999992000012509004+42970+054120FM-12-007999999V0201401N010012200019N0200001N1-00071-00421102201ADDGF101991011011008001001001MD1710321+9999REMSYN060AAXX  25091 38232 42598 11410 11007 21042 40220 57032 81100;
0143382320999992000012512004+42970+054120FM-12-007999999V0201401N010010075019N0200001N1+00041-00261101961ADDGF106991061021008001001001MA1999999100951MD1710241+9999REMSYN076AAXX  25121 38232 42598 61410 10004 21026 30095 40196 57024 86200 555 11001;
0175382320999992000012515004+42970+054120FM-12-007999999V0201101N009012200019N0200001N1-00051-00221101761ADDAA199000091GA1001+999999999GF100991001001999999001001KA1999M+00121MD1710201+9999REMSYN064AAXX  25151 38232 32998 01109 11005 21022 40176 57020 333 10012;EQDQ01  00002PRCP99
0175382320999992000012518004+42970+054120FM-12-007999999V0201401N004012200019N0200001N1+00021-00151101591ADDAA199000091GA1001+999999999GF100991001001999999001001KA1999M+00121MD1710171+9999REMSYN064AAXX  25181 38232 32998 01404 10002 21015 40159 57017 333 10012;EQDQ01  00002PRCP99
0122382320999992000012521004+42970+054120FM-12-007999999V0201401N003012200019N0200001N1-00021-00171101471ADDGA1001+999999999GF100991001001999999001001MD1710121+9999REMSYN054AAXX  25211 38232 42998 01403 11002 21017 40147 57012;
0191382320999992000012603004+42970+054120FM-12-007999999V0209999C000012200019N0200001N1-00141-00431101071ADDAA199000091GA1001+999999999GF100991001001999999001001KA1120M-00011MD1610071+9999REMSYN080AAXX  26031 38232 32998 00000 11014 21043 40107 56007 333 11001 555 21014 7000/;EQDQ01  00002PRCP99
0175382320999992000012606004+42970+054120FM-12-007999999V0200701N001012200019N0200001N1+00321+00251101081ADDAA199000091GA1001+999999999GF100991001001999999001001KA1999N-00141MD1310041+9999REMSYN064AAXX  26061 38232 32998 00701 10032 20025 40108 53004 333 21014;EQDQ01  00002PRCP99
0112382320999992000012609004+42970+054120FM-12-007999999V0202001N006010075019N0200001N1+00581+00341101041ADDGF107991071051008001999999MD1810031+9999REMSYN060AAXX  26091 38232 42598 72006 10058 20034 40104 58003 875//;
0143382320999992000012612004+42970+054120FM-12-007999999V0209999C000010075019N0200001N1+00511+00291101131ADDGF108991071051008001999999MA1999999100151MD1210081+9999REMSYN076AAXX  26121 38232 42598 80000 10051 20029 30015 40113 52008 875// 555 1/002;
0165382320999992000012615004+42970+054120FM-12-007999999V0209999C000010075019N0200001N1+00271+00191101281ADDAA199000091GF107991071051008001001001KA1999M+00771MD1210151+9999REMSYN070AAXX  26151 38232 32598 70000 10027 20019 40128 52015 87500 333 10077;EQDQ01  00002PRCP99
0165382320999992000012618004+42970+054120FM-12-007999999V0202301N002010042019N0200001N1+00261+00211101441ADDAA199000091GF108991081061004501999999KA1999M+00771MD1110161+9999REMSYN070AAXX  26181 38232 32498 82302 10026 20021 40144 51016 886// 333 10077;EQDQ01  00002PRCP99
0112382320999992000012621004+42970+054120FM-12-007999999V0209999C000010042019N0200001N1+00231+00181101541ADDGF108991081061004501999999MD1210101+9999REMSYN060AAXX  26211 38232 42498 80000 10023 20018 40154 52010 886//;
0143382320999992000012700004+42970+054120FM-12-007999999V0202701N005010075019N0200001N1+00131+00101101301ADDGF108991081061008001999999MA1999999100321MD1810181+9999REMSYN076AAXX  27001 38232 42598 82705 10013 20010 30032 40130 58018 886// 555 14101;
0158382320999992000012703004+42970+054120FM-12-007999999V0203401N004010042019N0200001N1-00021-00081101521ADDAA199000091GF108991081061004501999999MD1210201+9999REMSYN076AAXX  27031 38232 32498 83404 11002 21008 40152 52020 886// 555 21002 7000/;EQDQ01  00002PRCP99
0140382320999992000012709004+42970+054120FM-12-007999999V0203401N005010042019N0040001N1+00011-00051101601ADDAY121031AY221031GF108991081061004501999999MD1810021+9999MW1101REMSYN066AAXX  27091 38232 41496 83405 10001 21005 40160 58002 71022 886//;
0143382320999992000012712004+42970+054120FM-12-007999999V0203401N005010075019N0200001N1-00051-00211101631ADDGF108991081061008001999999MA1999999100621MD1210031+9999REMSYN076AAXX  27121 38232 42598 83405 11005 21021 30062 40163 52003 886// 555 1/100;
0165382320999992000012715004+42970+054120FM-12-007999999V0203401N004010042019N0200001N1-00151-00171101881ADDAA199000091GF108991081061004501999999KA1999M+00071MD1210251+9999REMSYN070AAXX  27151 38232 32498 83404 11015 21017 40188 52025 886// 333 10007;EQDQ01  00002PRCP99
0165382320999992000012718004+42970+054120FM-12-007999999V0203201N004019999999N0200001N1-00201-00321101901ADDAA199000091GF108991081061999999999999KA1999M+00071MD1410001+9999REMSYN070AAXX  27181 38232 32998 83204 11020 21032 40190 54000 886// 333 10007;EQDQ01  00002PRCP99
0128382320999992000012721004+42970+054120FM-12-007999999V0203201N003012200019N0200001N1-00261-00361101831ADDGA1001+999999999GF100991001001999999001001MD1710071+9999REMSYN060AAXX  27211 38232 42998 03203 11026 21036 40183 57007 886//;
0158382320999992000012803004+42970+054120FM-12-007999999V0203401N006010075019N0200001N1-00361-00801102171ADDAA199000091GF107991071051008001999999MD1210111+9999REMSYN076AAXX  28031 38232 32598 73406 11036 21080 40217 52011 875// 555 21036 7000/;EQDQ01  00002PRCP99
0165382320999992000012806004+42970+054120FM-12-007999999V0203401N004010075019N0200001N1-00331-01051102421ADDAA199000091GF107991071051008001999999KA1999N-00361MD1210151+9999REMSYN070AAXX  28061 38232 32598 73404 11033 21105 40242 52015 875// 333 21036;EQDQ01  00002PRCP99
0112382320999992000012809004+42970+054120FM-12-007999999V0203401N005019999999N0200001N1-00101-01061102521ADDGF107991041001999999081061MD1210101+9999REMSYN060AAXX  28091 38232 42998 73405 11010 21106 40252 52010 84086;
0143382320999992000012812004+42970+054120FM-12-007999999V0203401N006012200019N0200001N1-00011-00921102301ADDGF104991041001999999081001MA1999999101291MD1610021+9999REMSYN076AAXX  28121 38232 42998 43406 11001 21092 30129 40230 56002 84080 555 11000;
0165382320999992000012815004+42970+054120FM-12-007999999V0200201N003012200019N0200001N1-00161-00941102461ADDAA199000091GF102991001001999999001051KA1999M+00021MD1210161+9999REMSYN070AAXX  28151 38232 32998 20203 11016 21094 40246 52016 80005 333 10002;EQDQ01  00002PRCP99
0165382320999992000012818004+42970+054120FM-12-007999999V0203601N003019999999N0200001N1-00251-00831102621ADDAA199000091GF107991071001999999051001KA1999M+00021MD1110161+9999REMSYN070AAXX  28181 38232 32998 73603 11025 21083 40262 51016 87050 333 10002;EQDQ01  00002PRCP99
0112382320999992000012821004+42970+054120FM-12-007999999V0203601N003019999999N0200001N1-00331-00901102621ADDGF107991071001999999051001MD1410001+9999REMSYN060AAXX  28211 38232 42998 73603 11033 21090 40262 54000 87050;
0153382320999992000012900004+42970+054120FM-12-007999999V0203601N003012200019N0200001N1-00501-00861102701ADDGA1001+999999999GF100991001001999999001001MA1999999101681MD1310071+9999REMSYN070AAXX  29001 38232 42998 03603 11050 21086 30168 40270 53007 555 14105;
0168382320999992000012903004+42970+054120FM-12-007999999V0203401N002012200019N0200001N1-00551-01051102881ADDAA199000091GA1001+999999999GF100991001001999999001001MD1210171+9999REMSYN070AAXX  29031 38232 32998 03402 11055 21105 40288 52017 555 21055 7000/;EQDQ01  00002PRCP99
0175382320999992000012906004+42970+054120FM-12-007999999V0209999C000012200019N0200001N1-00311-00921102941ADDAA199000091GA1001+999999999GF100991001001999999001001KA1999N-00551MD1210071+9999REMSYN064AAXX  29061 38232 32998 00000 11031 21092 40294 52007 333 21055;EQDQ01  00002PRCP99
0122382320999992000012909004+42970+054120FM-12-007999999V0200701N004012200019N0200001N1-00011-00821102911ADDGA1001+999999999GF100991001001999999001001MD1810031+9999REMSYN054AAXX  29091 38232 42998 00704 11001 21082 40291 58003;
0153382320999992000012912004+42970+054120FM-12-007999999V0200901N003012200019N0200001N1+00171-00781102861ADDGA1001+999999999GF100991001001999999001001MA1999999101851MD1710041+9999REMSYN070AAXX  29121 38232 42998 00903 10017 21078 30185 40286 57004 555 10001;
0175382320999992000012915004+42970+054120FM-12-007999999V0209999C000012200019N0200001N1-00171-00691102961ADDAA199000091GA1001+999999999GF100991001001999999001001KA1999M+00201MD1310091+9999REMSYN064AAXX  29151 38232 32998 00000 11017 21069 40296 53009 333 10020;EQDQ01  00002PRCP99
0122382320999992000012921004+42970+054120FM-12-007999999V0200701N003012200019N0200001N1-00501-00711103061ADDGA1001+999999999GF100991001001999999001001MD1410001+9999REMSYN054AAXX  29211 38232 42998 00703 11050 21071 40306 54000;
0153382320999992000013000004+42970+054120FM-12-007999999V0200501N003012200019N0200001N1-00611-00761103021ADDGA1001+999999999GF100991001001999999001001MA1999999101991MD1810041+9999REMSYN070AAXX  30001 38232 42998 00503 11061 21076 30199 40302 58004 555 14106;
0168382320999992000013003004+42970+054120FM-12-007999999V0203601N002012200019N0200001N1-00891-01071103081ADDAA199000091GA1001+999999999GF100991001001999999001001MD1210051+9999REMSYN070AAXX  30031 38232 32998 03602 11089 21107 40308 52005 555 21089 7000/;EQDQ01  00002PRCP99
0175382320999992000013006004+42970+054120FM-12-007999999V0209999C000012200019N0200001N1-00171-00961103161ADDAA199000091GA1001+999999999GF100991001001999999001001KA1999N-00891MD1210101+9999REMSYN064AAXX  30061 38232 32998 00000 11017 21096 40316 52010 333 21089;EQDQ01  00002PRCP99
0122382320999992000013009004+42970+054120FM-12-007999999V0201401N006012200019N0200001N1+00051-01131103061ADDGA1001+999999999GF100991001001999999001001MD1710101+9999REMSYN054AAXX  30091 38232 42998 01406 10005 21113 40306 57010;
0153382320999992000013012004+42970+054120FM-12-007999999V0201101N006012200019N0200001N1+00041-01091102991ADDGA1001+999999999GF100991001001999999001001MA1999999101971MD1610071+9999REMSYN070AAXX  30121 38232 42998 01106 10004 21109 30197 40299 56007 555 11001;
0165382320999992000013015004+42970+054120FM-12-007999999V0201101N005012200019N0200001N1-00241-00781102971ADDAA199000091GF104991041001999999051001KA1999M+00091MD1810021+9999REMSYN070AAXX  30151 38232 32998 41105 11024 21078 40297 58002 84050 333 10009;EQDQ01  00002PRCP99
0165382320999992000013018004+42970+054120FM-12-007999999V0201101N003010075019N0200001N1-00141-00701103071ADDAA199000091GF107991071051008001001001KA1999M+00091MD1110091+9999REMSYN070AAXX  30181 38232 32598 71103 11014 21070 40307 51009 87500 333 10009;EQDQ01  00002PRCP99
0112382320999992000013021004+42970+054120FM-12-007999999V0201101N003010075019N0200001N1-00181-00711103041ADDGF107991071051008001001001MD1810031+9999REMSYN060AAXX  30211 38232 42598 71103 11018 21071 40304 58003 87500;
0153382320999992000013100004+42970+054120FM-12-007999999V0209999C000012200019N0200001N1-00421-00751102991ADDGA1001+999999999GF100991001001999999001001MA1999999101971MD1710051+9999REMSYN070AAXX  31001 38232 42998 00000 11042 21075 30197 40299 57005 555 14105;
0168382320999992000013103004+42970+054120FM-12-007999999V0201101N003012200019N0200001N1-00541-00731102931ADDAA199000091GA1001+999999999GF100991001001999999001001MD1610061+9999REMSYN070AAXX  31031 38232 32998 01103 11054 21073 40293 56006 555 21054 7000/;EQDQ01  00002PRCP99
0175382320999992000013106004+42970+054120FM-12-007999999V0201801N004012200019N0200001N1-00061-00591102901ADDAA199000091GA1001+999999999GF100991001001999999001001KA1999N-00541MD1710031+9999REMSYN064AAXX  31061 38232 32998 01804 11006 21059 40290 57003 333 21054;EQDQ01  00002PRCP99
0152382320999992000013109004+42970+054120FM-12-007999999V0201101N003012200019N0200001N1+00271-00421102651ADDAA199000091GA1001+999999999GF100991001001999999001001MD1710231+9999REMSYN054AAXX  31091 38232 32998 01103 10027 21042 40265 57023;EQDQ01  00002PRCP99
0159382320999992000013112004+42970+054120FM-12-007999999V0201101N005012200019N0200001N1+00231-00561102471ADDGA1001+999999999GF100991001001999999001001MA1999999101491MD1810181+9999REMSYN076AAXX  31121 38232 42998 01105 10023 21056 30149 40247 58018 80002 555 10002;
0165382320999992000013115004+42970+054120FM-12-007999999V0201101N004012200019N0200001N1-00081-00331102381ADDAA199000091GF101991001001999999001021KA1999M+00321MD1810101+9999REMSYN070AAXX  31151 38232 32998 11104 11008 21033 40238 58010 80002 333 10032;EQDQ01  00002PRCP99
0175382320999992000013118004+42970+054120FM-12-007999999V0201401N003012200019N0200001N1-00141-00401102181ADDAA199000091GA1001+999999999GF100991001001999999001001KA1999M+00321MD1710201+9999REMSYN064AAXX  31181 38232 32998 01403 11014 21040 40218 57020 333 10032;EQDQ01  00002PRCP99
0122382320999992000013121004+42970+054120FM-12-007999999V0201401N003012200019N0200001N1-00221-00411102011ADDGA1001+999999999GF100991001001999999001001MD1710171+9999REMSYN054AAXX  31211 38232 42998 01403 11022 21041 40201 57017;
0153382320999992000020100004+42970+054120FM-12-007999999V0201401N005012200019N0200001N1-00311-00441101861ADDGA1001+999999999GF100991001001999999001001MA1999999100851MD1710271+9999REMSYN070AAXX  01001 38232 42998 01405 11031 21044 30085 40186 57027 555 14105;
0168382320999992000020103004+42970+054120FM-12-007999999V0201101N002012200019N0200001N1-00271-00331101511ADDAA199000091GA1001+999999999GF100991001001999999001001MD1710301+9999REMSYN070AAXX  01031 38232 32998 01102 11027 21033 40151 57030 555 21027 7000/;EQDQ01  00002PRCP99
0165382320999992000020106004+42970+054120FM-12-007999999V0201401N005010075019N0200001N1-00061-00151101451ADDAA199000091GF107991071051008001001001KA1999N-00271MD1610051+9999REMSYN070AAXX  01061 38232 32598 71405 11006 21015 40145 56005 87500 333 21027;EQDQ01  00002PRCP99
0112382320999992000020109004+42970+054120FM-12-007999999V0201101N007010075019N0200001N1+00191-00181101201ADDGF107991071051008001001001MD1710251+9999REMSYN060AAXX  01091 38232 42598 71107 10019 21018 40120 57025 87500;
0143382320999992000020112004+42970+054120FM-12-007999999V0201401N004019999999N0200001N1+00221-00061101041ADDGF107991071001999999071999MA1999999100041MD1610161+9999REMSYN076AAXX  01121 38232 42998 71404 10022 21006 30004 40104 56016 8707/ 555 11001;
0165382320999992000020115004+42970+054120FM-12-007999999V0200901N002010075019N0200001N1+00111-00031101081ADDAA199000091GF107991071051008001999999KA1999M+00311MD1310041+9999REMSYN070AAXX  01151 38232 32598 70902 10011 21003 40108 53004 875// 333 10031;EQDQ01  00002PRCP99
0165382320999992000020118004+42970+054120FM-12-007999999V0200501N002010042019N0200001N1+00081-00031101111ADDAA199000091GF108991081061004501999999KA1999M+00311MD1810071+9999REMSYN070AAXX  01181 38232 32498 80502 10008 21003 40111 58007 886// 333 10031;EQDQ01  00002PRCP99
0097382320999992000020121004+42970+054120FM-12-007999999V0200501N002019999999N0200001N1+00051-00031999999ADDGF108991999999004501999999REMSYN059AAXX  01211 38232 42498 80502 10005 21003 4010 57008 886//;
0143382320999992000020200004+42970+054120FM-12-007999999V0203601N004010075019N0200001N1+00001-00081101221ADDGF107991071051008001999999MA1999999100221MD1210071+9999REMSYN076AAXX  02001 38232 42598 73604 10000 21008 30022 40122 52007 875// 555 11101;
0168382320999992000020203004+42970+054120FM-12-007999999V0209999C000012200019N0200001N1+00051-00251101581ADDAA199000091GA1001+999999999GF100991001001999999001001MD1210361+9999REMSYN070AAXX  02031 38232 32998 00000 10005 21025 40158 52036 555 20000 7000/;EQDQ01  00002PRCP99
0165382320999992000020206004+42970+054120FM-12-007999999V0200201N005012200019N0200001N1+00331-00051101731ADDAA199000091GF104991041051008001001001KA1999N+00001MD1210261+9999REMSYN070AAXX  02061 38232 32598 40205 10033 21005 40173 52026 84500 333 20000;EQDQ01  00002PRCP99
0112382320999992000020209004+42970+054120FM-12-007999999V0202701N003010075019N0200001N1+00401-00061101801ADDGF105991051051008001001001MD1210071+9999REMSYN060AAXX  02091 38232 42598 52703 10040 21006 40180 52007 85500;
0143382320999992000020212004+42970+054120FM-12-007999999V0202901N019010075019N0200001N1+00301-00501101881ADDGF107991071031008001001001MA1999999100891MD1310091+9999REMSYN076AAXX  02121 38232 42598 72919 10030 21050 30089 40188 53009 87300 555 11002;
0175382320999992000020215004+42970+054120FM-12-007999999V0202701N005012200019N0200001N1-00021-00021102121ADDAA199000091GA1001+999999999GF100991001001999999001001KA1999M+00571MD1210231+9999REMSYN064AAXX  02151 38232 32998 02705 11002 21002 40212 52023 333 10057;EQDQ01  00002PRCP99
0165382320999992000020218004+42970+054120FM-12-007999999V0203201N005012200019N0200001N1-00171-00691102301ADDAA199000091GF104991041051008001001001KA1999M+00571MD1210171+9999REMSYN070AAXX  02181 38232 32598 43205 11017 21069 40230 52017 84500 333 10057;EQDQ01  00002PRCP99
0112382320999992000020221004+42970+054120FM-12-007999999V0203201N004012200019N0200001N1-00301-00691102451ADDGF103991031051008001001001MD1210161+9999REMSYN060AAXX  02211 38232 42598 33204 11030 21069 40245 52016 83500;
0143382320999992000020300004+42970+054120FM-12-007999999V0203201N003012200019N0200001N1-00351-00701102551ADDGF103991031051008001001001MA1999999100881MD1210101+9999REMSYN076AAXX  03001 38232 42598 33203 11035 21070 30088 40255 52010 83500 555 1/101;
0165382320999992000020306004+42970+054120FM-12-007999999V0202001N003010075019N0200001N1-00201-00461102551ADDAA199000091GF107991071051008001001001KA1999N-00651MD1210071+9999REMSYN070AAXX  03061 38232 32598 72003 11020 21046 40255 52007 87500 333 21065;EQDQ01  00002PRCP99
0112382320999992000020309004+42970+054120FM-12-007999999V0202001N008019999999N0200001N1+00431-00281102391ADDGF105991051001999999051001MD1810131+9999REMSYN060AAXX  03091 38232 42998 52008 10043 21028 40239 58013 85050;
0143382320999992000020312004+42970+054120FM-12-007999999V0202001N006019999999N0200001N1+00451-00221102281ADDGF107991071001999999071001MA1999999101301MD1710101+9999REMSYN076AAXX  03121 38232 42998 72006 10045 21022 30130 40228 57010 87070 555 10003;
0175382320999992000020315004+42970+054120FM-12-007999999V0209999C000012200019N0200001N1+00121-00301102231ADDAA199000091GA1001+999999999GF100991001001999999001001KA1999M+00451MD1710071+9999REMSYN064AAXX  03151 38232 32998 00000 10012 21030 40223 57007 333 10045;EQDQ01  00002PRCP99
0165382320999992000020318004+42970+054120FM-12-007999999V0201601N006012200019N0200001N1+00261-00131102121ADDAA199000091GF102991021001999999031001KA1999M+00451MD1710101+9999REMSYN070AAXX  03181 38232 32998 21606 10026 21013 40212 57010 82030 333 10045;EQDQ01  00002PRCP99
0122382320999992000020321004+42970+054120FM-12-007999999V0201601N006012200019N0200001N1+00251+00141102021ADDGA1001+999999999GF100991001001999999001001MD1710101+9999REMSYN054AAXX  03211 38232 42998 01606 10025 20014 40202 57010;
0153382320999992000020400004+42970+054120FM-12-007999999V0201401N006012200019N0200001N1+00161-00151101901ADDGA1001+999999999GF100991001001999999001001MA1999999100901MD1810131+9999REMSYN070AAXX  04001 38232 42998 01406 10016 21015 30090 40190 58013 555 14102;
0168382320999992000020403004+42970+054120FM-12-007999999V0209999C000012200019N0200001N1-00041-00191101891ADDAA199000091GA1001+999999999GF100991001001999999001001MD1610021+9999REMSYN070AAXX  04031 38232 32998 00000 11004 21019 40189 56002 555 21004 7000/;EQDQ01  00002PRCP99
0122382320999992000020409004+42970+054120FM-12-007999999V0201101N004012200019N0200001N1+00931+00301101721ADDGA1001+999999999GF100991001001999999001001MD1710181+9999REMSYN054AAXX  04091 38232 42998 01104 10093 20030 40172 57018;
0143382320999992000020412004+42970+054120FM-12-007999999V0201401N003012200019N0200001N1+01051+00001101561ADDGF102991001001999999001021MA1999999100591MD1810141+9999REMSYN076AAXX  04121 38232 42998 21403 10105 20000 30059 40156 58014 80002 555 10009;
0175382320999992000020415004+42970+054120FM-12-007999999V0209999C000012200019N0200001N1+00151-00171101631ADDAA199000091GA1001+999999999GF100991001001999999001001KA1999M+01051MD1210041+9999REMSYN064AAXX  04151 38232 32998 00000 10015 21017 40163 52004 333 10105;EQDQ01  00002PRCP99
0175382320999992000020418004+42970+054120FM-12-007999999V0209999C000012200019N0200001N1+00051-00061101671ADDAA199000091GA1001+999999999GF100991001001999999001001KA1999M+01051MD1210041+9999REMSYN064AAXX  04181 38232 32998 00000 10005 21006 40167 52004 333 10105;EQDQ01  00002PRCP99
0122382320999992000020421004+42970+054120FM-12-007999999V0209999C000012200019N0200001N1+00011-00051101671ADDGA1001+999999999GF100991001001999999001001MD1410001+9999REMSYN054AAXX  04211 38232 42998 00000 10001 21005 40167 54000;
0153382320999992000020500004+42970+054120FM-12-007999999V0209999C000012200019N0200001N1-00071-00101101601ADDGA1001+999999999GF100991001001999999001001MA1999999100601MD1710071+9999REMSYN070AAXX  05001 38232 42998 00000 11007 21010 30060 40160 57007 555 14103;
0158382320999992000020503004+42970+054120FM-12-007999999V0203401N006019999999N0200001N1+00111+00031101691ADDAA199000091GF107991001001999999001011MD1210091+9999REMSYN076AAXX  05031 38232 32998 73406 10011 20003 40169 52009 80001 555 20011 7000/;EQDQ01  00002PRCP99
0165382320999992000020506004+42970+054120FM-12-007999999V0203401N004012200019N0200001N1+00341+00051101921ADDAA199000091GF104991001001999999001021KA1999N-00111MD1210241+9999REMSYN070AAXX  05061 38232 32998 43404 10034 20005 40192 52024 80002 333 21011;EQDQ01  00002PRCP99
0112382320999992000020509004+42970+054120FM-12-007999999V0203401N004019999999N0200001N1+00451-00061101931ADDGF106991001001999999001021MD1210011+9999REMSYN060AAXX  05091 38232 42998 63404 10045 21006 40193 52001 80002;
0143382320999992000020512004+42970+054120FM-12-007999999V0203401N003019999999N0200001N1+00451-00221102041ADDGF105991001001999999001081MA1999999101061MD1210121+9999REMSYN076AAXX  05121 38232 42998 53403 10045 21022 30106 40204 52012 80008 555 10003;
0165382320999992000020515004+42970+054120FM-12-007999999V0203401N003019999999N0200001N1+00301-00361102101ADDAA199000091GF105991001001999999001021KA1999M+00451MD1210101+9999REMSYN070AAXX  05151 38232 32998 53403 10030 21036 40210 52010 80002 333 10045;EQDQ01  00002PRCP99
0165382320999992000020518004+42970+054120FM-12-007999999V0203401N003019999999N0200001N1+00211-00411102151ADDAA199000091GF105991001001999999001021KA1999M+00451MD1210051+9999REMSYN070AAXX  05181 38232 32998 53403 10021 21041 40215 52005 80002 333 10045;EQDQ01  00002PRCP99
0112382320999992000020521004+42970+054120FM-12-007999999V0203401N001012200019N0200001N1+00111-00381102201ADDGF103991001001999999001021MD1210051+9999REMSYN060AAXX  05211 38232 42998 33401 10011 21038 40220 52005 80002;
0143382320999992000020600004+42970+054120FM-12-007999999V0209999C000019999999N0200001N1+00031-00431102271ADDGF106991001001999999001021MA1999999102181MD1210071+9999REMSYN076AAXX  06001 38232 42998 60000 10003 21043 30218 40227 52007 80002 555 1/102;
0143382320999992000020612004+42970+054120FM-12-007999999V0209999C000012200019N0200001N1+00131-00251101731ADDGF102991001001999999001021MA1999999100731MD1710081+9999REMSYN076AAXX  06121 38232 42998 20000 10013 21025 30073 40173 57008 80002 555 10003;
0165382320999992000020615004+42970+054120FM-12-007999999V0201101N002019999999N0200001N1-00031-00241101701ADDAA199000091GF106991001001999999001011KA1999M+00141MD1710041+9999REMSYN070AAXX  06151 38232 32998 61102 11003 21024 40170 57004 80001 333 10014;EQDQ01  00002PRCP99
0165382320999992000020618004+42970+054120FM-12-007999999V0201101N003019999999N0200001N1-00041-00221101701ADDAA199000091GF108991071091999999999999KA1999M+00141MD1410001+9999REMSYN070AAXX  06181 38232 32998 81103 11004 21022 40170 54000 879// 333 10014;EQDQ01  00002PRCP99
0112382320999992000020621004+42970+054120FM-12-007999999V0201101N003019999999N0200001N1-00081-00301101701ADDGF108991071091999999999999MD1410001+9999REMSYN060AAXX  06211 38232 42998 81103 11008 21030 40170 54000 879//;
0143382320999992000020700004+42970+054120FM-12-007999999V0201101N002010075019N0200001N1-00231-00271101751ADDGF108991081051008001999999MA1999999100701MD1210051+9999REMSYN076AAXX  07001 38232 42598 81102 11023 21027 30070 40175 52005 885// 333 1/104;
0158382320999992000020703004+42970+054120FM-12-007999999V0201101N003010075019N0200001N1-00251-00301101781ADDAA199000091GF108991081051008001999999MD1210031+9999REMSYN076AAXX  07031 38232 32598 81103 11025 21030 40178 52003 885// 555 21025 7000/;EQDQ01  00002PRCP99
0180382320999992000020706004+42970+054120FM-12-007999999V0200201N004010042019N0040001N1-00091-00121101841ADDAA100001091AY171061AY271061GF108991081001004501021999KA1999N-00211MD1210221+9999MW1711REMSYN082AAXX  07061 38232 11496 80204 11009 21012 40184 52022 60010 77177 8802/ 333 21021;
0140382320999992000020709004+42970+054120FM-12-007999999V0203401N006010042019N0040001N1-00071-00071101911ADDAY171031AY271031GF108991081001004501021999MD1110071+9999MW1711REMSYN066AAXX  07091 38232 41496 83406 11007 21007 40191 51007 77177 8802/;
0171382320999992000020712004+42970+054120FM-12-007999999V0203401N004010042019N0200001N1-00041-00131101951ADDAY171061AY221061GF108991081001004501021999MA1999999100941MD1210041+9999MW1711REMSYN082AAXX  07121 38232 42498 83404 11004 21013 30094 40195 52004 77172 8802/ 555 1/000;
0145382320999992000020715004+42970+054120FM-12-007999999V0203401N004010075019N0200001N1-00041-00101102051ADDGF108991081091008001999999KA1120M-00011MD1210101+9999REMSYN080AAXX  07151 38232 /2598 83404 11004 21010 40205 52010 889// 333 11001 555 60022;
0162382320999992000020718004+42970+054120FM-12-007999999V0203401N004012200019N0200001N1-00411-00461102121ADDAA100002091GA1001+999999999GF100991001001999999001001KA1999M-00011MD1210091+9999REMSYN070AAXX  07181 38232 12998 03404 11041 21046 40212 52009 60020 333 11001;
0122382320999992000020721004+42970+054120FM-12-007999999V0203401N004012200019N0200001N1-00651+99999102211ADDGA1001+999999999GF100991001001999999001001MD1210091+9999REMSYN054AAXX  07211 38232 42998 03404 11065 21060 40221 52009;
0153382320999992000020800004+42970+054120FM-12-007999999V0209999C000012200019N0200001N1-01151-01211102241ADDGA1001+999999999GF100991001001999999001001MA1999999101221MD1110021+9999REMSYN070AAXX  08001 38232 42998 00000 11115 21121 30122 40224 51002 555 1/112;
0168382320999992000020803004+42970+054120FM-12-007999999V0203401N002019999999N0200001N1-01381-01441102331ADDAA199000091GF107991071001999999051001MD1310051+9999REMSYN086AAXX  08031 38232 32998 73402 11138 21144 40233 53005 87050 333 14005 555 21155 7002/;EQDQ01  00002PRCP99
0165382320999992000020806004+42970+054120FM-12-007999999V0202301N005019999999N0200001N1-00281-00381102291ADDAA199000091GF108991081001999999071999KA1999N-01551MD1110011+9999REMSYN070AAXX  08061 38232 32998 82305 11028 21038 40229 51001 8807/ 333 21155;EQDQ01  00002PRCP99
0140382320999992000020809004+42970+054120FM-12-007999999V0202001N007010042019N0040001N1-00091-00271102111ADDAY171031AY271031GF108991081001004501021999MD1710181+9999MW1711REMSYN066AAXX  08091 38232 41496 82007 11009 21027 40211 57018 77177 8802/;
0162382320999992000020812004+42970+054120FM-12-007999999V0202001N003019999999N0200001N1+00111+00001101991ADDGF107991999001004501071999MA1999999100991MD1810111+9999REMSYN076AAXX  08121 38232 42498 72003 10011 21000 30099 40199 58011 8807/ 555 1/100;EQDQ01+000082SCOTLC
0173382320999992000020815004+42970+054120FM-12-007999999V0202301N003010042019N0040001N1+00081-00031101981ADDAY171031AY221031GF108991081001004501021999KA1120M+00151MD1610011+9999MW1711REMSYN086AAXX  08151 38232 /1496 82303 10008 21003 40198 56001 77172 8802/ 333 10015 555 60012;
0180382320999992000020818004+42970+054120FM-12-007999999V0202501N004010042019N0200001N1+00001-00081101951ADDAA100001091AY171061AY221061GF108991081061004501999999KA1999M+00151MD1710041+9999MW1021REMSYN082AAXX  08181 38232 11498 82504 10000 21008 40195 57004 60010 70272 886// 333 10015;
0112382320999992000020821004+42970+054120FM-12-007999999V0202501N003010042019N0200001N1-00041-00131101921ADDGF108991081061004501999999MD1710031+9999REMSYN060AAXX  08211 38232 42498 82503 11004 21013 40192 57003 886//;
0143382320999992000020900004+42970+054120FM-12-007999999V0209999C000010042019N0200001N1-00041-00131102011ADDGF108991081071004501999999MA1999999101001MD1310091+9999REMSYN076AAXX  09001 38232 42498 80000 11004 21013 30100 40201 53009 887// 555 1/102;
0149382320999992000020903004+42970+054120FM-12-007999999V0209999C000010075019N0200001N1-00041-00131102161ADDAA199000021GF107991071051008001999999MD1210151+9999REMSYN086AAXX  09031 38232 32598 70000 11004 21013 40216 52015 875// 333 14002 555 21007 7001/;
0181382320999992000020906004+42970+054120FM-12-007999999V0209999C000010075019N0200001N1+00031-00081102351ADDAA199000091GF107991071091008001001001KA1999M+99999MD1210191+9999REMSYN070AAXX  09061 38232 32598 70000 10003 21008 40235 52019 87900 333 11007;EQDQ01  00002PRCP99Q02 -00072ATMX  
0112382320999992000020909004+42970+054120FM-12-007999999V0202001N003010075019N0200001N1+00241-00121102331ADDGF106991061021008001001001MD1410001+9999REMSYN060AAXX  09091 38232 42598 62003 10024 21012 40233 54000 86200;
0153382320999992000020912004+42970+054120FM-12-007999999V0202301N004012200019N0200001N1+00311-00071102341ADDGA1001+999999999GF100991001001999999001001MA1999999101351MD1310011+9999REMSYN070AAXX  09121 38232 42998 02304 10031 21007 30135 40234 53001 555 11004;
0175382320999992000020915004+42970+054120FM-12-007999999V0201601N002012200019N0200001N1+00001-00301102431ADDAA199000091GA1001+999999999GF100991001001999999001001KA1999M+00471MD1210091+9999REMSYN064AAXX  09151 38232 32998 01602 10000 21030 40243 52009 333 10047;EQDQ01  00002PRCP99
0175382320999992000020918004+42970+054120FM-12-007999999V0209999C000012200019N0200001N1-00121-00271102571ADDAA199000091GA1001+999999999GF100991001001999999001001KA1999M+00471MD1210111+9999REMSYN064AAXX  09181 38232 32998 00000 11012 21027 40257 52011 333 10047;EQDQ01  00002PRCP99
0122382320999992000020921004+42970+054120FM-12-007999999V0209999C000012200019N0200001N1-00251-00351102621ADDGA1001+999999999GF100991001001999999001001MD1210051+9999REMSYN054AAXX  09211 38232 42998 00000 11025 21035 40262 52005;
0143382320999992000021000004+42970+054120FM-12-007999999V0209999C000019999999N0200001N1-00201-00291102611ADDGF107991071001999999051001MA1999999101601MD1410001+9999REMSYN076AAXX  10001 38232 42998 70000 11020 21029 30160 40261 54000 87050 555 14103;
0168382320999992000021003004+42970+054120FM-12-007999999V0202001N002012200019N0200001N1-00361-00431102611ADDAA199000091GA1001+999999999GF100991001001999999001001MD1810011+9999REMSYN070AAXX  10031 38232 32998 02002 11036 21043 40261 58001 555 21036 7000/;EQDQ01  00002PRCP99
0165382320999992000021006004+42970+054120FM-12-007999999V0209999C000019999999N0200001N1+00091-00141102711ADDAA199000091GF107991001001999999001071KA1999N-00361MD1210111+9999REMSYN070AAXX  10061 38232 32998 70000 10009 21014 40271 52011 80007 333 21036;EQDQ01  00002PRCP99
0112382320999992000021009004+42970+054120FM-12-007999999V0201601N004019999999N0200001N1+00691+00171102701ADDGF107991001001999999001071MD1110011+9999REMSYN060AAXX  10091 38232 42998 71604 10069 20017 40270 51001 80007;
0123382320999992000021012004+42970+054120FM-12-007999999V0202001N002019999999N0200001N1+99999+99999102661ADDGF107991001001999999001071MA1999999101681REMSYN070AAXX  10121 38232 42998 72002 1/092 20013 30168 40266 80007 555 11009;
0165382320999992000021015004+42970+054120FM-12-007999999V0209999C000012200019N0200001N1+00391+00111102771ADDAA199000091GF102991001001999999001051KA1999M+00981MD1210091+9999REMSYN070AAXX  10151 38232 32998 20000 10039 20011 40277 52009 80005 333 10098;EQDQ01  00002PRCP99
0175382320999992000021018004+42970+054120FM-12-007999999V0209999C000012200019N0200001N1+00181-00071102791ADDAA199000091GA1001+999999999GF100991001001999999001001KA1999M+00981MD1110011+9999REMSYN064AAXX  10181 38232 32998 00000 10018 21007 40279 51001 333 10098;EQDQ01  00002PRCP99
0122382320999992000021021004+42970+054120FM-12-007999999V0209999C000012200019N0200001N1+00051-00151102791ADDGA1001+999999999GF100991001001999999001001MD1410001+9999REMSYN054AAXX  10211 38232 42998 00000 10005 21015 40279 54000;
0153382320999992000021100004+42970+054120FM-12-007999999V0209999C000012200019N0200001N1+00011-00171102741ADDGA1001+999999999GF100991001001999999001001MA1999999101731MD1810051+9999REMSYN070AAXX  11001 38232 42998 00000 10001 21017 30173 40274 58005 555 14103;
0168382320999992000021103004+42970+054120FM-12-007999999V0209999C000012200019N0200001N1-00121-00271102741ADDAA199000091GA1001+999999999GF100991001001999999001001MD1810011+9999REMSYN070AAXX  11031 38232 32998 00000 11012 21027 40274 58001 555 20001 7000/;EQDQ01  00002PRCP99
0191382320999992000021106004+42970+054120FM-12-007999999V0201401N001012200019N0200001N1+00341-00131102791ADDAA199000091GA1001+999999999GF100991001001999999001001KA1999M+99999MD1310071+9999REMSYN064AAXX  11061 38232 32998 01401 10034 21013 40279 53007 333 11012;EQDQ01  00002PRCP99Q02 -00122ATMX  
0122382320999992000021109004+42970+054120FM-12-007999999V0201601N004012200019N0200001N1+00931+00041102611ADDGA1001+999999999GF100991001001999999001001MD1810161+9999REMSYN054AAXX  11091 38232 42998 01604 10093 20004 40261 58016;
0143382320999992000021112004+42970+054120FM-12-007999999V0201101N003012200019N0200001N1+01171+00191102531ADDGF102991001001999999001021MA1999999101551MD1710081+9999REMSYN076AAXX  11121 38232 42998 21103 10117 20019 30155 40253 57008 80002 555 10011;
0175382320999992000021115004+42970+054120FM-12-007999999V0201101N002012200019N0200001N1+00671+00231102471ADDAA199000091GA1001+999999999GF100991001001999999001001KA1999M+01211MD1710061+9999REMSYN064AAXX  11151 38232 32998 01102 10067 20023 40247 57006 333 10121;EQDQ01  00002PRCP99
0175382320999992000021118004+42970+054120FM-12-007999999V0209999C000012200019N0200001N1+00121+00081102451ADDAA199000091GA1001+999999999GF100991001001999999001001KA1999M+01211MD1710021+9999REMSYN064AAXX  11181 38232 32998 00000 10012 20008 40245 57002 333 10121;EQDQ01  00002PRCP99
0122382320999992000021121004+42970+054120FM-12-007999999V0209999C000012200019N0200001N1+00061-00141102441ADDGA1001+999999999GF100991001001999999001001MD1810041+9999REMSYN054AAXX  11211 38232 42998 00000 10006 21014 40244 58004;
0153382320999992000021200004+42970+054120FM-12-007999999V0209999C000012200019N0200001N1-00041-00191102381ADDGA1001+999999999GF100991001001999999001001MA1999999101281MD1710061+9999REMSYN070AAXX  12001 38232 42998 00000 11004 21019 30128 40238 57006 555 14101;
0158382320999992000021203004+42970+054120FM-12-007999999V0201101N001012200019N0200001N1-00261-00361102331ADDAA199000091GF102991001001999999001021MD1610051+9999REMSYN076AAXX  12031 38232 32998 21101 11026 21036 40233 56005 80002 555 21026 7000/;EQDQ01  00002PRCP99
0165382320999992000021206004+42970+054120FM-12-007999999V0209999C000012200019N0200001N1+00301-00081102411ADDAA199000091GF102991001001999999001021KA1999N-00261MD1310091+9999REMSYN070AAXX  12061 38232 32998 20000 10030 21008 40241 53009 80002 333 21026;EQDQ01  00002PRCP99
0122382320999992000021209004+42970+054120FM-12-007999999V0209999C000012200019N0200001N1+00751-00021102371ADDGA1001+999999999GF100991001001999999001001MD1710031+9999REMSYN054AAXX  12091 38232 42998 00000 10075 21002 40237 57003;
0153382320999992000021212004+42970+054120FM-12-007999999V0203401N004012200019N0200001N1+00911+00001102301ADDGA1001+999999999GF100991001001999999001001MA1999999101331MD1710061+9999REMSYN070AAXX  12121 38232 42998 03404 10091 20000 30133 40230 57006 555 10010;
0175382320999992000021215004+42970+054120FM-12-007999999V0203401N004012200019N0200001N1+00451+00251102371ADDAA199000091GA1001+999999999GF100991001001999999001001KA1999M+00951MD1310061+9999REMSYN064AAXX  12151 38232 32998 03404 10045 20025 40237 53006 333 10095;EQDQ01  00002PRCP99
0175382320999992000021218004+42970+054120FM-12-007999999V0203201N004012200019N0200001N1+00151+00011102491ADDAA199000091GA1001+999999999GF100991001001999999001001KA1999M+00951MD1110101+9999REMSYN064AAXX  12181 38232 32998 03204 10015 20001 40249 51010 333 10095;EQDQ01  00002PRCP99
0122382320999992000021221004+42970+054120FM-12-007999999V0203201N004012200019N0200001N1+00001-00081102491ADDGA1001+999999999GF100991001001999999001001MD1410001+9999REMSYN054AAXX  12211 38232 42998 03204 10000 21008 40249 54000;
0143382320999992000021300004+42970+054120FM-12-007999999V0209999C000010075019N0200001N1+00331+00281102351ADDGF108991081061008001999999MA1999999101361MD1710131+9999REMSYN076AAXX  13001 38232 42598 80000 10033 20028 30136 40235 57013 886// 555 14101;
0158382320999992000021303004+42970+054120FM-12-007999999V0200201N004010075019N0200001N1+00211+00051102331ADDAA199000091GF107991071051008001999999MD1610031+9999REMSYN076AAXX  13031 38232 32598 70204 10021 20005 40233 56003 875// 555 20000 7000/;EQDQ01  00002PRCP99
0165382320999992000021306004+42970+054120FM-12-007999999V0200201N003010075019N0200001N1+00241+00051102341ADDAA199000091GF107991071051008001999999KA1999N+00011MD1210021+9999REMSYN070AAXX  13061 38232 32598 70203 10024 20005 40234 52002 875// 333 20001;EQDQ01  00002PRCP99
0112382320999992000021309004+42970+054120FM-12-007999999V0200901N003010075019N0200001N1+00331+00041102151ADDGF107991071051008001999999MD1810191+9999REMSYN060AAXX  13091 38232 42598 70903 10033 20004 40215 58019 875//;
0143382320999992000021312004+42970+054120FM-12-007999999V0200501N004010075019N0200001N1+00411+00041101961ADDGF107991071051008001999999MA1999999100971MD1710191+9999REMSYN076AAXX  13121 38232 42598 70504 10041 20004 30097 40196 57019 875// 555 11006;
0165382320999992000021315004+42970+054120FM-12-007999999V0200201N003019999999N0200001N1+00161+00001101921ADDAA199000091GF107991071051999999999999KA1999M+00451MD1710041+9999REMSYN070AAXX  13151 38232 32998 70203 10016 21000 40192 57004 875// 333 10045;EQDQ01  00002PRCP99
0165382320999992000021318004+42970+054120FM-12-007999999V0200201N004010075019N0200001N1+00221+00031101941ADDAA199000091GF107991071051008001999999KA1999M+00451MD1310011+9999REMSYN070AAXX  13181 38232 32598 70204 10022 20003 40194 53001 875// 333 10045;EQDQ01  00002PRCP99
0112382320999992000021321004+42970+054120FM-12-007999999V0200201N004010075019N0200001N1+00151+00011101901ADDGF107991071051008001999999MD1810041+9999REMSYN060AAXX  13211 38232 42598 70204 10015 20001 40190 58004 875//;
0143382320999992000021400004+42970+054120FM-12-007999999V0203401N004010075019N0200001N1+00021-00071101891ADDGF107991071051008001999999MA1999999100881MD1610021+9999REMSYN076AAXX  14001 38232 42598 73404 10002 21007 30088 40189 56002 875// 555 14100;
0158382320999992000021403004+42970+054120FM-12-007999999V0203201N004010075019N0200001N1-00081-00141101891ADDAA199000091GF107991071051008001999999MD1410001+9999REMSYN076AAXX  14031 38232 32598 73204 11008 21014 40189 54000 875// 555 21008 7000/;EQDQ01  00002PRCP99
0165382320999992000021406004+42970+054120FM-12-007999999V0200201N004019999999N0200001N1+00221-00211101941ADDAA199000091GF106991001001999999001061KA1999N-00081MD1310061+9999REMSYN070AAXX  14061 38232 32998 60204 10022 21021 40194 53006 80006 333 21008;EQDQ01  00002PRCP99
0112382320999992000021409004+42970+054120FM-12-007999999V0203401N003019999999N0200001N1+00471-00301101951ADDGF106991001001999999001061MD1210031+9999REMSYN060AAXX  14091 38232 42998 63403 10047 21030 40195 52003 80006;
0165382320999992000021412004+42970+054120FM-12-007999999V0200201N004019999999N0200001N1+00221-00201101941ADDAA199000091GF106991001001999999001061KA1999N-00081MD1310061+9999REMSYN070AAXX  14121 38232 32998 60204 10022 2102/ 40194 53006 80006 333 21008;EQDQ01  00002PRCP99
0175382320999992000021415004+42970+054120FM-12-007999999V0203401N004012200019N0200001N1+00071-00361102111ADDAA199000091GA1001+999999999GF100991001001999999001001KA1999M+00581MD1210171+9999REMSYN064AAXX  14151 38232 32998 03404 10007 21036 40211 52017 333 10058;EQDQ01  00002PRCP99
0165382320999992000021418004+42970+054120FM-12-007999999V0203201N003019999999N0200001N1-00061-00301102341ADDAA199000091GF106991061001999999051001KA1999M+00581MD1210211+9999REMSYN070AAXX  14181 38232 32998 63203 11006 21030 40234 52021 86050 333 10058;EQDQ01  00002PRCP99
0112382320999992000021421004+42970+054120FM-12-007999999V0203201N003019999999N0200001N1-00191-00351102491ADDGF107991071001999999051001MD1210151+9999REMSYN060AAXX  14211 38232 42998 73203 11019 21035 40249 52015 87050;
0153382320999992000021500004+42970+054120FM-12-007999999V0209999C000012200019N0200001N1-00461-00571102521ADDGA1001+999999999GF100991001001999999001001MA1999999101501MD1110021+9999REMSYN070AAXX  15001 38232 42998 00000 11046 21057 30150 40252 51002 555 14105;
0168382320999992000021503004+42970+054120FM-12-007999999V0209999C000012200019N0200001N1-00571-00681102651ADDAA199000091GA1001+999999999GF100991001001999999001001MD1210021+9999REMSYN070AAXX  15031 38232 32998 00000 11057 21068 40265 52002 555 21057 7000/;EQDQ01  00002PRCP99
0165382320999992000021506004+42970+054120FM-12-007999999V0209999C000019999999N0200001N1-00041-00421102821ADDAA199000091GF107991071001999999051001KA1999N-00571MD1210191+9999REMSYN070AAXX  15061 38232 32998 70000 11004 21042 40282 52019 87050 333 21057;EQDQ01  00002PRCP99
0112382320999992000021509004+42970+054120FM-12-007999999V0201401N002012200019N0200001N1+00341-00561102731ADDGF101991011011008001001001MD1810081+9999REMSYN060AAXX  15091 38232 42598 11402 10034 21056 40273 58008 81100;
0143382320999992000021512004+42970+054120FM-12-007999999V0201401N004012200019N0200001N1+00491-00421102641ADDGF101991011011008001001001MA1999999101641MD1710091+9999REMSYN076AAXX  15121 38232 42598 11404 10049 21042 30164 40264 57009 81100 555 10007;
0175382320999992000021515004+42970+054120FM-12-007999999V0201101N002012200019N0200001N1+00131-00191102681ADDAA199000091GA1001+999999999GF100991001001999999001001KA1999M+00541MD1310031+9999REMSYN064AAXX  15151 38232 32998 01102 10013 21019 40268 53003 333 10054;EQDQ01  00002PRCP99
0175382320999992000021518004+42970+054120FM-12-007999999V0201401N002012200019N0200001N1+00021-00281102781ADDAA199000091GA1001+999999999GF100991001001999999001001KA1999M+00541MD1110091+9999REMSYN064AAXX  15181 38232 32998 01402 10002 21028 40278 51009 333 10054;EQDQ01  00002PRCP99
0122382320999992000021521004+42970+054120FM-12-007999999V0201401N002012200019N0200001N1-00111-00361102781ADDGA1001+999999999GF100991001001999999001001MD1410001+9999REMSYN054AAXX  15211 38232 42998 01402 11011 21036 40278 54000;
0168382320999992000021603004+42970+054120FM-12-007999999V0201101N003012200019N0200001N1-00221-00491102651ADDAA199000091GA1001+999999999GF100991001001999999001001MD1610071+9999REMSYN070AAXX  16031 38232 32998 01103 11022 21049 40265 56007 555 21030 7000/;EQDQ01  00002PRCP99
0162382320999992000021606004+42970+054120FM-12-007999999V0201801N004012200019N0200001N1+00201-00371102581ADDAA199000091GA1001+999999999GF100991001001999999001001MD1710061+9999REMSYN064AAXX  16061 38232 32998 01804 10020 21037 40258 57006 555 21030;EQDQ01  00002PRCP99
0122382320999992000021609004+42970+054120FM-12-007999999V0201101N006012200019N0200001N1+00531-00431102391ADDGA1001+999999999GF100991001001999999001001MD1810161+9999REMSYN054AAXX  16091 38232 42998 01106 10053 21043 40239 58016;
0153382320999992000021612004+42970+054120FM-12-007999999V0201401N004012200019N0200001N1+00671-00381102191ADDGA1001+999999999GF100991001001999999001001MA1999999101211MD1710201+9999REMSYN070AAXX  16121 38232 42998 01404 10067 21038 30121 40219 57020 555 10008;
0175382320999992000021615004+42970+054120FM-12-007999999V0201101N002012200019N0200001N1+00311-00271102161ADDAA199000091GA1001+999999999GF100991001001999999001001KA1999M+00721MD1610041+9999REMSYN064AAXX  16151 38232 32998 01102 10031 21027 40216 56004 333 10072;EQDQ01  00002PRCP99
0165382320999992000021618004+42970+054120FM-12-007999999V0201401N003012200019N0200001N1+00151-00331102161ADDAA199000091GF101991001001999999001021KA1999M+00721MD1610011+9999REMSYN070AAXX  16181 38232 32998 11403 10015 21033 40216 56001 80002 333 10072;EQDQ01  00002PRCP99
0112382320999992000021621004+42970+054120FM-12-007999999V0201401N002012200019N0200001N1-00101-00531102101ADDGF101991001001999999001021MD1810061+9999REMSYN060AAXX  16211 38232 42998 11402 11010 21053 40210 58006 80002;
0153382320999992000021700004+42970+054120FM-12-007999999V0209999C000012200019N0200001N1-00071-00461102101ADDGA1001+999999999GF100991001001999999001001MA1999999101101MD1210041+9999REMSYN070AAXX  17001 38232 42998 00000 11007 21046 30110 40210 52004 555 14102;
0168382320999992000021703004+42970+054120FM-12-007999999V0201101N002012200019N0200001N1-00251-00481102061ADDAA199000091GA1001+999999999GF100991001001999999001001MD1710051+9999REMSYN070AAXX  17031 38232 32998 01102 11025 21048 40206 57005 555 21025 7000/;EQDQ01  00002PRCP99
0175382320999992000021706004+42970+054120FM-12-007999999V0209999C000012200019N0200001N1+00231-00301102131ADDAA199000091GA1001+999999999GF100991001001999999001001KA1999N-00251MD1210081+9999REMSYN064AAXX  17061 38232 32998 00000 10023 21030 40213 52008 333 21025;EQDQ01  00002PRCP99
0122382320999992000021709004+42970+054120FM-12-007999999V0201101N004012200019N0200001N1+00661-00081102061ADDGA1001+999999999GF100991001001999999001001MD1810051+9999REMSYN054AAXX  17091 38232 42998 01104 10066 21008 40206 58005;
0153382320999992000021712004+42970+054120FM-12-007999999V0201101N004012200019N0200001N1+00851+00111101941ADDGA1001+999999999GF100991001001999999001001MA1999999100971MD1710111+9999REMSYN070AAXX  17121 38232 42998 01104 10085 20011 30097 40194 57011 555 10011;
0175382320999992000021715004+42970+054120FM-12-007999999V0201401N003012200019N0200001N1+00511+00101102021ADDAA199000091GA1001+999999999GF100991001001999999001001KA1999M+00901MD1210081+9999REMSYN064AAXX  17151 38232 32998 01403 10051 20010 40202 52008 333 10090;EQDQ01  00002PRCP99
0165382320999992000021718004+42970+054120FM-12-007999999V0201101N004012200019N0200001N1+00271-00181102141ADDAA199000091GF102991001001999999001021KA1999M+00901MD1210101+9999REMSYN070AAXX  17181 38232 32998 21104 10027 21018 40214 52010 80002 333 10090;EQDQ01  00002PRCP99
0125382320999992000021721004+42970+054120FM-12-007999999V0209999C000012200019N0200001N1+00181-00261999999ADDGF102991999999999999999999MD1410001+9999REMSYN054AAXX  17211 38232 42998 20000 10018 21026 40314 54000;EQDQ01+103143APOSLP
0153382320999992000021800004+42970+054120FM-12-007999999V0209999C000012200019N0200001N1-00051-00431102141ADDGA1001+999999999GF100991001001999999001001MA1999999101151MD1410001+9999REMSYN070AAXX  18001 38232 42998 00000 11005 21043 30115 40214 54000 555 14101;
0158382320999992000021803004+42970+054120FM-12-007999999V0200901N002012200019N0200001N1-00411-00621102391ADDAA199000091GF102991021011004501001001MD1210251+9999REMSYN076AAXX  18031 38232 32498 20902 11041 21062 40239 52025 82100 555 21042 7000/;EQDQ01  00002PRCP99
0165382320999992000021806004+42970+054120FM-12-007999999V0201101N004012200019N0200001N1+00221-00281102551ADDAA199000091GF104991041091999999001001KA1999N-00421MD1210151+9999REMSYN070AAXX  18061 38232 32998 41104 10022 21028 40255 52015 84900 333 21042;EQDQ01  00002PRCP99
0112382320999992000021809004+42970+054120FM-12-007999999V0200901N006012200019N0200001N1+00651-00451102531ADDGF102991021011008001001001MD1410001+9999REMSYN060AAXX  18091 38232 42598 20906 10065 21045 40253 54000 82100;
0143382320999992000021812004+42970+054120FM-12-007999999V0200901N004012200019N0200001N1+00671-00341102571ADDGF101991011011008001001001MA1999999101591MD1210041+9999REMSYN076AAXX  18121 38232 42598 10904 10067 21034 30159 40257 52004 81100 555 10010;
0175382320999992000021815004+42970+054120FM-12-007999999V0200901N004012200019N0200001N1+00331-00311102691ADDAA199000091GA1001+999999999GF100991001001999999001001KA1999M+00751MD1210111+9999REMSYN064AAXX  18151 38232 32998 00904 10033 21031 40269 52011 333 10075;EQDQ01  00002PRCP99
0175382320999992000021818004+42970+054120FM-12-007999999V0209999C000012200019N0200001N1+00031-00411102721ADDAA199000091GA1001+999999999GF100991001001999999001001KA1999M+00751MD1210041+9999REMSYN064AAXX  18181 38232 32998 00000 10003 21041 40272 52004 333 10075;EQDQ01  00002PRCP99
0122382320999992000021821004+42970+054120FM-12-007999999V0209999C000012200019N0200001N1-00111-00501102751ADDGA1001+999999999GF100991001001999999001001MD1210031+9999REMSYN054AAXX  18211 38232 42998 00000 11011 21050 40275 52003;
0153382320999992000021900004+42970+054120FM-12-007999999V0209999C000012200019N0200001N1-00291-00641102791ADDGA1001+999999999GF100991001001999999001001MA1999999101801MD1110031+9999REMSYN070AAXX  19001 38232 42998 00000 11029 21064 30180 40279 51003 555 14102;
0168382320999992000021903004+42970+054120FM-12-007999999V0200901N003012200019N0200001N1-00451-00631102801ADDAA199000091GA1001+999999999GF100991001001999999001001MD1410001+9999REMSYN070AAXX  19031 38232 32998 00903 11045 21063 40280 54000 555 21045 7000/;EQDQ01  00002PRCP99
0175382320999992000021906004+42970+054120FM-12-007999999V0200901N004012200019N0200001N1+00101-00291102931ADDAA199000091GA1001+999999999GF100991001001999999001001KA1999N-00451MD1210121+9999REMSYN064AAXX  19061 38232 32998 00904 10010 21029 40293 52012 333 21045;EQDQ01  00002PRCP99
0122382320999992000021909004+42970+054120FM-12-007999999V0201401N005012200019N0200001N1+00451-00521102831ADDGA1001+999999999GF100991001001999999001001MD1710091+9999REMSYN054AAXX  19091 38232 42998 01405 10045 21052 40283 57009;
0153382320999992000021912004+42970+054120FM-12-007999999V0201101N004012200019N0200001N1+00531-00431102681ADDGA1001+999999999GF100991001001999999001001MA1999999101681MD1810151+9999REMSYN070AAXX  19121 38232 42998 01104 10053 21043 30168 40268 58015 555 10008;
0175382320999992000021915004+42970+054120FM-12-007999999V0201101N007012200019N0200001N1+00251-00111102621ADDAA199000091GA1001+999999999GF100991001001999999001001KA1999M+00601MD1710061+9999REMSYN064AAXX  19151 38232 32998 01107 10025 21011 40262 57006 333 10060;EQDQ01  00002PRCP99
0175382320999992000021918004+42970+054120FM-12-007999999V0201401N006012200019N0200001N1+00171-00781102601ADDAA199000091GA1001+999999999GF100991001001999999001001KA1999M+00601MD1610021+9999REMSYN064AAXX  19181 38232 32998 01406 10017 21078 40260 56002 333 10060;EQDQ01  00002PRCP99
0122382320999992000021921004+42970+054120FM-12-007999999V0201101N005012200019N0200001N1+00091-00901102601ADDGA1001+999999999GF100991001001999999001001MD1410001+9999REMSYN054AAXX  19211 38232 42998 01105 10009 21090 40260 54000;
0158382320999992000022003004+42970+054120FM-12-007999999V0200901N005012200019N0200001N1-00251-00751102321ADDAA199000091GF102991021021008001001001MD1710211+9999REMSYN076AAXX  20031 38232 32598 20905 11025 21075 40232 57021 82200 555 21035 7000/;EQDQ01  00002PRCP99
0165382320999992000022006004+42970+054120FM-12-007999999V0200901N006012200019N0200001N1+00151-00631102321ADDAA199000091GF101991001001999999001021KA1999N-00351MD1210011+9999REMSYN070AAXX  20061 38232 32998 10906 10015 21063 40232 52001 80002 333 21035;EQDQ01  00002PRCP99
0112382320999992000022009004+42970+054120FM-12-007999999V0201101N008012200019N0200001N1+00451-00441102221ADDGF104991001001999999001021MD1710091+9999REMSYN060AAXX  20091 38232 42998 41108 10045 21044 40222 57009 80002;
0143382320999992000022012004+42970+054120FM-12-007999999V0200901N009010075019N0200001N1+00701-00571102101ADDGF106991061091008001001001MA1999999101121MD1810111+9999REMSYN076AAXX  20121 38232 42598 60909 10070 21057 30112 40210 58011 86900 555 10010;
0165382320999992000022015004+42970+054120FM-12-007999999V0200901N005010075019N0200001N1+00471-00741102191ADDAA199000091GF107991071091008001001001KA1999M+00771MD1210081+9999REMSYN070AAXX  20151 38232 32598 70905 10047 21074 40219 52008 87900 333 10077;EQDQ01  00002PRCP99
0165382320999992000022018004+42970+054120FM-12-007999999V0201101N008019999999N0200001N1+00261-01151102121ADDAA199000091GF106991061001999999051001KA1999M+00771MD1710081+9999REMSYN070AAXX  20181 38232 32998 61108 10026 21115 40212 57008 86050 333 10077;EQDQ01  00002PRCP99
0131382320999992000022021004+42970+054120FM-12-007999999V0201101N008019999999N0200001N1+00101-01271102121ADDGF107991999001999999051001MD1410001+9999REMSYN060AAXX  20211 38232 42998 71108 10010 21127 40212 54000 86050;EQDQ01+000062SCOTLC
0143382320999992000022100004+42970+054120FM-12-007999999V0209999C000019999999N0200001N1+00031-01161102141ADDGF108991001001999999001081MA1999999101141MD1610021+9999REMSYN076AAXX  21001 38232 42998 80000 10003 21116 30114 40214 56002 80008 555 11001;
0158382320999992000022103004+42970+054120FM-12-007999999V0200901N002019999999N0200001N1-00151-00891102441ADDAA199000091GF107991001001999999001081MD1210321+9999REMSYN076AAXX  21031 38232 32998 70902 11015 21089 40244 52032 80008 555 21015 7000/;EQDQ01  00002PRCP99
0165382320999992000022106004+42970+054120FM-12-007999999V0201101N004012200019N0200001N1+00071-00751102491ADDAA199000091GF104991041001999999031001KA1999N-00151MD1210021+9999REMSYN070AAXX  21061 38232 32998 41104 10007 21075 40249 52002 84030 333 21015;EQDQ01  00002PRCP99
0112382320999992000022109004+42970+054120FM-12-007999999V0200901N002012200019N0200001N1+00531-00471102391ADDGF102991021001999999031001MD1710071+9999REMSYN060AAXX  21091 38232 42998 20902 10053 21047 40239 57007 82030;
