0205412180999992000010100004+24250+055600FM-12+0262OMAL V0203501N001012200019N0028001N1+01461+01381101521ADDAA106000091AY101061AY201061GA1001+999999999GF100991001001999999001001MA1999999098381MD1999999-0041MW1101REMSYN070AAXX  01004 41218 31928 03502 10146 20138 39838 40152 71000 333 59004;EQDQ01  00002PRCP06
0173412180999992000010102004+24250+055600FM-15+0262OMAL V0209999C00001000151CN0001001N1+01201+01201999999ADDED199U02009GA1091+000159999GF109991999999000251999999MA1101491999999MW1451REMMET068OMAL 010200Z 00000KT 0100 R01/0200D R19/0150U FG VV/// 12/12 Q1015 ;EQDQ01    003PRSWM1
0278412180999992000010103004+24250+055600SY-MT+0262OMAL V0209999C000010001519N0001001N1+01181+01181101651ADDAY141031AY201031ED199U03509GA1091+000159999GF109991091999000151999999MA1101591098481MD1999999-0011MW1451REMSYN070AAXX  01034 41218 41/01 90000 10118 20118 39848 40165 74540 333 59001;MET067OMAL 010300Z 00000KT 0100 R01/0350U R19/0150N FG VV/// 12/12 Q1016;EQDQ01    003PRSWM1
0179412180999992000010104004+24250+055600FM-15+0262OMAL V0209999C000012200019N0003001N1+01301+01301999999ADDED199U08009GA1021+000309999GF102991999999999999999999MA1101691999999MW1441REMMET074OMAL 010400Z 00000KT 0300 R01/0800U R19/1000U FG FEW001 13/13 Q1017 SPECI;EQDQ01    003PRSWM1
0278412180999992000010106004+24250+055600SY-MT+0262OMAL V0209999C000012200019N0040001N1+01751+01601101771ADDAY141061AY201061GF100991001001999999001001IA1019IA2999+01209KA1120N+01171MA1101801098661MD1999999+0051MW1051REMSYN082AAXX  01064 41218 41940 00000 10175 20160 39866 40177 70540 333 20117 30012 58005;MET051OMAL 010600Z 00000KT 4000 HZ SKC 18/16 Q1018 SPECI;EQDQ01    003PRSWM1
0072412180999992000010107004+24250+055600FM-15+0262OMAL V0209999C00001220001CN0099001N1+02001+01601999999ADDMA1101691999999MW1001REMMET039OMAL 010700Z 00000KT CAVOK 20/16 Q1017;
0072412180999992000010108004+24250+055600FM-15+0262OMAL V0202801N00151220001CN0099001N1+02401+01501999999ADDMA1101591999999MW1001REMMET039OMAL 010800Z 28003KT CAVOK 24/15 Q1016;
0182412180999992000010109004+24250+055600SY-MT+0262OMAL V0202601N002112200019N0100001N1+02461+01401101451ADDGF100991001001999999001001MA1101491098421MD1999999+0041MW1001REMSYN064AAXX  01094 41218 42960 02604 10246 20140 39842 40145 333 58004;MET039OMAL 010900Z 26004KT CAVOK 25/14 Q1015;
0072412180999992000010110004+24250+055600FM-15+0262OMAL V0209999999999220001CN0099001N1+02501+01301999999ADDMA1101491999999MW1001REMMET039OMAL 011000Z VRB01KT CAVOK 25/13 Q1015;
0120412180999992000010111004+24250+055600FM-15+0262OMAL V02099999999992200019N0112651N1+02601+01301999999ADDGA1021+013509999GF102991999999999999999999MA1101391999999MW1001REMMET045OMAL 011100Z VRB03KT 9999 FEW045 26/13 Q1014;
0246412180999992000010112004+24250+055600SY-MT+0262OMAL V0209999V001012200019N0120001N1+02521+01181101301ADDAA106000091GA1021+013509999GF199999011011012501001001MA1101391098271MD1999999+0001MW1001REMSYN076AAXX  01124 41218 32662 19902 10252 20118 39827 40130 81100 333 58000 81845;MET045OMAL 011200Z VRB02KT 9999 FEW045 25/12 Q1014;EQDQ01  00002PRCP06
0120412180999992000010113004+24250+055600FM-15+0262OMAL V0209999C000012200019N0112651N1+02401+01201999999ADDGA1021+013509999GF102991999999999999999999MA1101391999999MW1001REMMET045OMAL 011300Z 00000KT 9999 FEW045 24/12 Q1014;
0120412180999992000010114004+24250+055600FM-15+0262OMAL V0209999C000012200019N0112651N1+02201+01101999999ADDGA1021+013509999GF102991999999999999999999MA1101491999999MW1001REMMET045OMAL 011400Z 00000KT 9999 FEW045 22/11 Q1015;
0182412180999992000010115004+24250+055600SY-MT+0262OMAL V0209999C000012200019N9999999N1+02091+00981101471ADDGF101991999999999999999999MA1101491098401MD1999999+0011MW1001REMSYN064AAXX  01154 41218 42992 10000 10209 20098 39840 40147 333 58001;MET039OMAL 011500Z 00000KT CAVOK 21/10 Q1015;
0072412180999992000010116004+24250+055600FM-15+0262OMAL V0202601N00261220001CN0099001N1+02001+01001999999ADDMA1101591999999MW1001REMMET039OMAL 011600Z 26005KT CAVOK 20/10 Q1016;
0072412180999992000010117004+24250+055600FM-15+0262OMAL V0202901N00151220001CN0099001N1+01901+01001999999ADDMA1101591999999MW1001REMMET039OMAL 011700Z 29003KT CAVOK 19/10 Q1016;
0229412180999992000010118004+24250+055600SY-MT+0262OMAL V0203401N001012200019N0120001N1+01781+01141101631ADDGA1011+030009079GF101991011001999999031001KA1120M+02611MA1101591098521MD1999999+0031MW1001REMSYN082AAXX  01184 41218 42962 13402 10178 20114 39852 40163 81030 333 10261 58003 81360;MET039OMAL 011800Z 34002KT CAVOK 18/11 Q1016;
0072412180999992000010119004+24250+055600FM-15+0262OMAL V0203501N00211220001CN0099001N1+01801+01401999999ADDMA1101591999999MW1001REMMET039OMAL 011900Z 35004KT CAVOK 18/14 Q1016;
0120412180999992000010120004+24250+055600FM-15+0262OMAL V02099999999992200019N0080001N1+01701+01501999999ADDGA1021+030009999GF102991999999999999999999MA1101591999999MW1001REMMET045OMAL 012000Z VRB03KT 8000 FEW100 17/15 Q1016;
0257412180999992000010121004+24250+055600SY-MT+0262OMAL V0200701N002112200019N0070001N1+01611+01461101541ADDAY101031AY201031GA1021+030009999GF199999011001999999031001MA1101591098421MD1999999+0031MW1051REMSYN082AAXX  01214 41218 41957 10704 10161 20146 39842 40154 70500 81030 333 58003 81360;MET045OMAL 012100Z 07004KT 7000 FEW100 16/15 Q1016;EQDQ01    003PRSWM1
0101412180999992000010122004+24250+055600FM-15+0262OMAL V0200601N002112200019N0070001N1+01601+01401999999ADDGF100991999999999999999999MA1101491999999MW1001REMMET042OMAL 012200Z 06004KT 7000 SKC 16/14 Q1015;
0123412180999992000010123004+24250+055600FM-15+0262OMAL V0209999C000012200019N0050001N1+01501+01401999999ADDGF100991999999999999999999MA1101491999999MW1101REMMET045OMAL 012300Z 00000KT 5000 BR SKC 15/14 Q1015;EQDQ01    003PRSWM1
0256412180999992000010200004+24250+055600SY-MT+0262OMAL V0209999C000012200019N0050001N1+01391+01251101571ADDAA106000091AY101061AY201061GF100991001001999999001001MA1101491098421MD1999999+0041MW1051REMSYN070AAXX  02004 41218 31950 00000 10139 20125 39842 40157 70500 333 58004;MET045OMAL 020000Z 00000KT 5000 HZ SKC 14/13 Q1015;EQDQ01  00002PRCP06Q02    003PRSWM1
0182412180999992000010201004+24250+055600FM-15+0262OMAL V0209999C000012200019N0007001N1+01401+01301999999ADDGA1021+000309999GF104991999999999999999999MA1101491999999MW1411REMMET072OMAL 020100Z 00000KT 0700 R011500 R191000 BCFG SCT001 14/13 Q1015 SPECI;EQDQ01+000003PRSWM1Q02    003PRSWM1
0189412180999992000010202004+24250+055600FM-15+0262OMAL V0200301N00101000151CN0001001N1+01301+01301999999ADDED199U01009GA1091+000159999GF109991999999000251999999MA1101591999999MW1451REMMET068OMAL 020200Z 03002KT 0100 R01/0100D R19/0075D FG VV/// 13/13 Q10165;EQDQ01+000003PRSWM1Q02    003PRSWM1
0284412180999992000010203004+24250+055600SY-MT+0262OMAL V0200501N002110001519N0001001N1+01321+01321101671ADDAY141031AY201031ED199U01259GA1091+000159999GF109991091999000151999999MA1101591098511MD1999999+0031MW1451REMSYN076AAXX  02034 41218 41/01 90504 10132 20132 39851 40167 74540 89/// 333 58003;MET067OMAL 020300Z 05004KT 0100 R01/0125N R19/0125N FG VV/// 13/13 Q1016;EQDQ01    003PRSWM1
0188412180999992000010204004+24250+055600FM-15+0262OMAL V0200701N00101000151CN0001001N1+01401+01401999999ADDED199U00759GA1091+000159999GF109991999999000251999999MA1101691999999MW1451REMMET067OMAL 020400Z 07002KT 0100 R01/0075N R19/0100N FG VV/// 14/14 Q1017;EQDQ01+000003PRSWM1Q02    003PRSWM1
0157412180999992000010205004+24250+055600FM-15+0262OMAL V0209999C00001000151CN0001001N1+01401+01401999999ADDGA1091+000159999GF109991999999000251999999MA1101901999999MW1451REMMET047OMAL 020500Z 00000KT 0100 FG VV/// 14/14 Q1019;EQDQ01+000003PRSWM1Q02    003PRSWM1
0327412180999992000010206004+24250+055600SY-MT+0262OMAL V0202701N00151000151CN0006001N1+01571+01551101851ADDAY141061AY201061ED199U05009GA1091+000159999GF109991091999000151999999IA1019IA2999+01309KA1120N+01311MA1101801098711MD1999999+0051MW1431MW2451REMSYN082AAXX  02064 41218 41/06 92703 10157 20155 39871 40185 74340 333 20131 30013 58005;MET067OMAL 020600Z 27003KT 0600 R01/0500N R19/0300N FG VV/// 16/16 Q1018;EQDQ01    003PRSWM1
0139412180999992000010208004+24250+055600FM-15+0262OMAL V0202701N002612200019N0080001N1+02101+01801999999ADDGA1021+004509999GF102991999999999999999999MA1101691999999MW1001REMMET045OMAL 020800Z 27005KT 8000 FEW015 21/18 Q1017;EQDQ01+000000PRSWM2
0273412180999992000010209004+24250+055600SY-MT+0262OMAL V0202601N002612200019N0100001N1+02311+01441101541ADDAY141031AY211031GA1021+009009999GF103991031051008001001001MA1101591098491MD1999999+0071MW1031REMSYN082AAXX  02094 41218 41560 32605 10231 20144 39849 40154 70341 83500 333 58007 83630;MET045OMAL 020900Z 26005KT 9999 SCT030 23/14 Q1016;EQDQ01+000000PRSWM2Q02    003PRSWM1
0139412180999992000010210004+24250+055600FM-15+0262OMAL V0202501N003112200019N0112651N1+02401+01501999999ADDGA1021+009009999GF104991999999999999999999MA1101491999999MW1001REMMET045OMAL 021000Z 25006KT 9999 SCT030 24/15 Q1015;EQDQ01+000000PRSWM2
0139412180999992000010211004+24250+055600FM-15+0262OMAL V0209999C000012200019N0112651N1+02401+01401999999ADDGA1021+009009999GF104991999999999999999999MA1101491999999MW1001REMMET045OMAL 021100Z 00000KT 9999 SCT030 24/14 Q1015;EQDQ01+000000PRSWM2
0184412180999992000010212004+24250+055600FM-12+0262OMAL V0209999C000012200019N0100001N1+02411+99999999999ADDAA106000091AY141061AY201061GA1021+012009059GF102991021051012501001001MD1999999+0071MW1011REMSYN064AAXX  02124 41218 31660 20000 10241 70140 82500 333 58007 82640;EQDQ01  00002PRCP06
0139412180999992000010213004+24250+055600FM-15+0262OMAL V0209999C000012200019N0112651N1+02301+01301999999ADDGA1021+012009999GF102991999999999999999999MA1101491999999MW1001REMMET045OMAL 021300Z 00000KT 9999 FEW040 23/13 Q1015;EQDQ01+000000PRSWM2
0091412180999992000010214004+24250+055600FM-15+0262OMAL V0202701N00361220001CN0099001N1+02201+01301999999ADDMA1101491999999MW1001REMMET039OMAL 021400Z 27007KT CAVOK 22/13 Q1015;EQDQ01+000000PRSWM2
0201412180999992000010215004+24250+055600SY-MT+0262OMAL V0202801N002112200019N0100001N1+01991+01191101551ADDGF100991001001999999001001MA1101591098471MD1999999+0071MW1001REMSYN064AAXX  02154 41218 42960 02804 10199 20119 39847 40155 333 58007;MET039OMAL 021500Z 28004KT CAVOK 20/12 Q1016;EQDQ01+000000PRSWM2
0091412180999992000010216004+24250+055600FM-15+0262OMAL V0202901N00211220001CN0099001N1+01901+01201999999ADDMA1101591999999MW1001REMMET039OMAL 021600Z 29004KT CAVOK 19/12 Q1016;EQDQ01+000000PRSWM2
0091412180999992000010217004+24250+055600FM-15+0262OMAL V0202901N00151220001CN0099001N1+01801+01101999999ADDMA1101691999999MW1001REMMET039OMAL 021700Z 29003KT CAVOK 18/11 Q1017;EQDQ01+000000PRSWM2
0220412180999992000010218004+24250+055600SY-MT+0262OMAL V0203401N002112200019N0100001N1+01761+01071101691ADDGF100991001001999999001001KA1120M+02511MA1101691098581MD1999999+0061MW1001REMSYN070AAXX  02184 41218 42960 03404 10176 20107 39858 40169 333 10251 58006;MET039OMAL 021800Z 34004KT CAVOK 18/11 Q1017;EQDQ01+000000PRSWM2
0091412180999992000010219004+24250+055600FM-15+0262OMAL V0209999C00001220001CN0099001N1+01701+01101999999ADDMA1101691999999MW1001REMMET039OMAL 021900Z 00000KT CAVOK 17/11 Q1017;EQDQ01+000000PRSWM2
0091412180999992000010220004+24250+055600FM-15+0262OMAL V0200201N00211220001CN0099001N1+01701+01201999999ADDMA1101591999999MW1001REMMET039OMAL 022000Z 02004KT CAVOK 17/12 Q1016;EQDQ01+000000PRSWM2
0273412180999992000010221004+24250+055600SY-MT+0262OMAL V0200201N001512200019N0060001N1+01681+01431101601ADDAY101031AY201031GA1021+006009999GF102991021061008001001001MA1101591098481MD1999999+0061MW1051REMSYN082AAXX  02214 41218 41556 20203 10168 20143 39848 40160 70500 82600 333 58006 82720;MET045OMAL 022100Z 02003KT 6000 FEW020 17/14 Q1016;EQDQ01+000000PRSWM2Q02    003PRSWM1
0139412180999992000010222004+24250+055600FM-15+0262OMAL V0200201N001012200019N0060001N1+01601+01401999999ADDGA1021+005409999GF102991999999999999999999MA1101591999999MW1001REMMET045OMAL 022200Z 02002KT 6000 FEW018 16/14 Q1016;EQDQ01+000000PRSWM2
0120412180999992000010223004+24250+055600FM-15+0262OMAL V0209999C000012200019N0060001N1+01501+01301999999ADDGF100991999999999999999999MA1101591999999MW1001REMMET042OMAL 022300Z 00000KT 6000 SKC 15/13 Q1016;EQDQ01+000000PRSWM2
0120412180999992000010300004+24250+055600FM-15+0262OMAL V0200501N001512200019N0060001N1+01501+01301999999ADDGF100991999999999999999999MA1101591999999MW1001REMMET042OMAL 030000Z 05003KT 6000 SKC 15/13 Q1016;EQDQ01+000000PRSWM2
0317412180999992000010303004+24250+055600SY-MT+0262OMAL V0200601N002112200019N0011001N1+01371+99999101691ADDAY101031AY201031GA1021+001809999GF199999011061001501001001MA1101591098541MD1999999+0031MW1401REMSYN082AAXX  03034 41218 41211 10604 10137 21034 39854 40169 74000 81600 333 58003 81706;MET057OMAL 030300Z 06004KT 1100 RP1500 VCFG FEW006 14/14 Q1016;EQDQ01+000012SCOTCVQ02-000343ATOD  Q03 -00343ATOD  Q04    003PRSWM1
0177412180999992000010304004+24250+055600FM-15+0262OMAL V0200701N002112200019N0003001N1+01401+01301999999ADDGA1021+001509999GF102991999999999999999999MA1101691999999MW1441REMMET067OMAL 030400Z 07004KT 0300 R01P1500N R190250U FG FEW005 14/13 Q1017;EQDQ01+000003PRSWM1Q02    003PRSWM1
0145412180999992000010305004+24250+055600FM-15+0262OMAL V0200801N001512200019N0030001N1+01701+01601999999ADDGF100991999999999999999999MA1101801999999MW1051REMMET051OMAL 030500Z 08003KT 3000 HZ SKC 17/16 Q1018 SPECI;EQDQ01+000003PRSWM1Q02    003PRSWM1
0319412180999992000010306004+24250+055600SY-MT+0262OMAL V0200301N002112200019N0050001N1+01951+01691101801ADDAY141061AY201061GA1021+012009999GF199999011051012501001001IA1019IA2999+01309KA1120N+01371MA1101801098711MD1999999+0001MW1051REMSYN094AAXX  03064 41218 41650 10304 10195 20169 39871 40180 70540 81500 333 20137 30013 58000 81640;MET048OMAL 030600Z 03004KT 5000 HZ FEW040 20/17 Q1018;EQDQ01+000012SCOTCVQ02    003PRSWM1
0139412180999992000010307004+24250+055600FM-15+0262OMAL V0203201N001012200019N0080001N1+02201+01701999999ADDGA1021+006009999GF102991999999999999999999MA1101801999999MW1001REMMET045OMAL 030700Z 32002KT 8000 FEW020 22/17 Q1018;EQDQ01+000000PRSWM2
0264412180999992000010309004+24250+055600SY-MT+0262OMAL V0201901N003119999999N0100001N1+02351+01121101521ADDGA1021+013509999GA2021+015009999GF105991051081999999001001MA1101591098481MD1999999-0011MW1001REMSYN082AAXX  03094 41218 42960 51906 10235 20112 39848 40152 85800 333 59001 81845 85650;MET052OMAL 030900Z 19006KT 9999 FEW045 SCT050 24/11 Q1016;EQDQ01+000000PRSWM2
0162412180999992000010310004+24250+055600FM-15+0262OMAL V0202001N004112200019N0112651N1+02401+01101999999ADDGA1021+013509999GA2021+015009999GF104991999999999999999999MA1101491999999MW1001REMMET052OMAL 031000Z 20008KT 9999 FEW045 SCT050 24/11 Q1015;EQDQ01+000000PRSWM2
0139412180999992000010311004+24250+055600FM-15+0262OMAL V0202801N005112200019N0112651N1+02501+01101999999ADDGA1021+013509999GF104991999999999999999999MA1101491999999MW1001REMMET045OMAL 031100Z 28010KT 9999 SCT045 25/11 Q1015;EQDQ01+000000PRSWM2
0262412180999992000010312004+24250+055600SY-MT+0262OMAL V0202401N005712200019N0120001N1+02441+01031101371ADDAA106000091GA1021+013509999GF102991021011012501001001MA1101391098331MD1999999-0011MW1001REMSYN076AAXX  03124 41218 32662 22411 10244 20103 39833 40137 82100 333 59001 82845;MET045OMAL 031200Z 24011KT 9999 FEW045 24/10 Q1014;EQDQ01+000000PRSWM2Q02  00002PRCP06
0139412180999992000010313004+24250+055600FM-15+0262OMAL V0202701N003612200019N0112651N1+02301+00901999999ADDGA1021+013509999GF102991999999999999999999MA1101491999999MW1001REMMET045OMAL 031300Z 27007KT 9999 FEW045 23/09 Q1015;EQDQ01+000000PRSWM2
0139412180999992000010314004+24250+055600FM-15+0262OMAL V0202601N002612200019N0112651N1+02201+00801999999ADDGA1021+013509999GF102991999999999999999999MA1101491999999MW1001REMMET045OMAL 031400Z 26005KT 9999 FEW045 22/08 Q1015;EQDQ01+000000PRSWM2
0201412180999992000010315004+24250+055600SY-MT+0262OMAL V0202901N002112200019N0140001N1+01981+00821101521ADDGF100991001001999999001001MA1101491098441MD1999999-0031MW1001REMSYN064AAXX  03154 41218 42964 02904 10198 20082 39844 40152 333 59003;MET039OMAL 031500Z 29004KT CAVOK 20/08 Q1015;EQDQ01+000000PRSWM2
0091412180999992000010316004+24250+055600FM-15+0262OMAL V0203301N00461220001CN0099001N1+01901+01401999999ADDMA1101591999999MW1001REMMET039OMAL 031600Z 33009KT CAVOK 19/14 Q1016;EQDQ01+000000PRSWM2
0120412180999992000010317004+24250+055600FM-15+0262OMAL V0203301N002612200019N0080001N1+01801+01501999999ADDGF100991999999999999999999MA1101591999999MW1001REMMET042OMAL 031700Z 33005KT 8000 SKC 18/15 Q1016;EQDQ01+000000PRSWM2
0218412180999992000010318004+24250+055600SY-MT+0262OMAL V0203401N003112200019N0070001N1+01751+01571101651ADDAY101061AY201061GF100991001001999999001001MA1101591098541MW1051REMSYN060AAXX  03184 41218 41957 03406 10175 20157 39854 40165 70500;MET042OMAL 031800Z 34006KT 7000 SKC 18/16 Q1016;EQDQ01+000000PRSWM2Q02    003PRSWM1
0120412180999992000010319004+24250+055600FM-15+0262OMAL V0203501N002112200019N0060001N1+01701+01501999999ADDGF100991999999999999999999MA1101591999999MW1001REMMET042OMAL 031900Z 35004KT 6000 SKC 17/15 Q1016;EQDQ01+000000PRSWM2
0120412180999992000010320004+24250+055600FM-15+0262OMAL V0200301N001512200019N0060001N1+01601+01501999999ADDGF100991999999999999999999MA1101591999999MW1001REMMET042OMAL 032000Z 03003KT 6000 SKC 16/15 Q1016;EQDQ01+000000PRSWM2
0145412180999992000010321004+24250+055600FM-15+0262OMAL V0200101N001012200019N0045001N1+01601+01501999999ADDGF100991999999999999999999MA1101591999999MW1101REMMET051OMAL 032100Z 01002KT 4500 BR SKC 16/15 Q1016 SPECI;EQDQ01+000003PRSWM1Q02    003PRSWM1
0159412180999992000010322004+24250+055600FM-15+0262OMAL V0200801N000512200019N0035001N1+01501+01501999999ADDGA1021+000309999GF102991999999999999999999MA1101591999999MW1401REMMET049OMAL 032200 08001KT 3500 VCFG FEW001 15/15 Q1016;EQDQ01+000003PRSWM1Q02    003PRSWM1
0192412180999992000010323004+24250+055600FM-15+0262OMAL V0200701N001512200019N0006001N1+01401+01301999999ADDED199U15009GA1021+000909999GF104991999999999999999999MA1101591999999MW1411REMMET071OMAL 032300Z 07003KT 0600 R01/P1500N R19/0200D BCFG SCT003 14/13 Q1016;EQDQ01+000003PRSWM1Q02    003PRSWM1
0313412180999992000010400004+24250+055600SY-MT+0262OMAL V0200301N001012200019N0008001N1+01421+01421101571ADDAA106000091AY121061AY201061GA1021+000309999GF103991031061000751001001MA1101491098421MD1999999-0031MW1411REMSYN082AAXX  04004 41218 31108 30302 10142 20142 39842 40157 74120 83600 333 59003 83701;MET058OMAL 040000Z 03002KT 0800 RP1500 SCT001 14/14 Q1015 SPECI;EQDQ01+000000PRSWM2Q02  00002PRCP06Q03    003PRSWM1
0166412180999992000010401004+24250+055600FM-15+0262OMAL V0200701N002112200019N0008001N1+01401+01401999999ADDGA1021+000309999GF102991999999999999999999MA1101491999999MW1411REMMET056OMAL 040100Z 07004KT 0800 RP1500 BCFGFEW001 14/14 Q1015;EQDQ01+000003PRSWM1Q02    003PRSWM1
0173412180999992000010402004+24250+055600FM-15+0262OMAL V0200601N003112200019N0006001N1+01301+01301999999ADDGA1021+000309999GF102991999999999999999999MA1101591999999MW1411REMMET063OMAL 040200Z 06006KT 0600 RP1500 BCFG FEW001 13/13 Q1016 SPECI;EQDQ01+000003PRSWM1Q02    003PRSWM1
0268412180999992000010403004+24250+055600SY-MT+0262OMAL V0200501N003112200019N0018001N1+01351+01351101681ADDAY141031AY221031GA1021+000309999GF102991021061000751001001MA1101591098531MD1999999-0011MW1401REMSYN082AAXX  04034 41218 41118 20506 10135 20135 39853 40168 74042 82600 333 59001 82701;MET056OMAL 040300Z 05006KT 1800 VCFG FEW001 14/14 Q1016 SPECI;EQDQ01    003PRSWM1
0139412180999992000010404004+24250+055600FM-15+0262OMAL V0200501N003112200019N0050001N1+01501+01401999999ADDGF100991999999999999999999MA1101691999999MW1051REMMET045OMAL 040400Z 05006KT 5000 HZ SKC 15/14 Q1017;EQDQ01+000003PRSWM1Q02    003PRSWM1
0120412180999992000010405004+24250+055600FM-15+0262OMAL V0200501N003612200019N0070001N1+01701+01501999999ADDGF100991999999999999999999MA1101801999999MW1001REMMET042OMAL 040500Z 05007KT 7000 SKC 17/15 Q1018;EQDQ01+000000PRSWM2
0218412180999992000010406004+24250+055600FM-12+0262OMAL V0200201N003112200019N0090001N1+02051+01651101771ADDAY141061AY211061GA1001+999999999GF100991001001999999001001IA1019IA2999+01209KA1120N+01341MA1999999098681MD1999999-0031MW1051REMSYN082AAXX  04064 41218 41959 00206 10205 20165 39868 40177 70541 333 20134 30012 59003;
0091412180999992000010407004+24250+055600FM-15+0262OMAL V0200301N00211220001CN0099001N1+02301+01501999999ADDMA1101691999999MW1001REMMET039OMAL 040700Z 03004KT CAVOK 23/15 Q1017;EQDQ01+000000PRSWM2
0139412180999992000010408004+24250+055600FM-15+0262OMAL V0201701N001012200019N0090001N1+02501+01101999999ADDGA1021+010509999GF102991999999999999999999MA1101691999999MW1001REMMET045OMAL 040800Z 17002KT 9000 FEW035 25/11 Q1017;EQDQ01+000000PRSWM2
0205412180999992000010409004+24250+055600SY-MT+0262OMAL V0201601N004112200019N0100001N1+02511+01201101491ADDGA1021+010509999GF103991031081012501001001MA1101591098461MW1001REMSYN060AAXX  04094 41218 42660 31608 10251 20120 39846 40149 83800;MET045OMAL 040900Z 16008KT 9999 SCT035 25/12 Q1016;EQDQ01+000000PRSWM2
0139412180999992000010410004+24250+055600FM-15+0262OMAL V0202001N001012200019N0112651N1+02601+01101999999ADDGA1021+012009999GF102991999999999999999999MA1101391999999MW1001REMMET045OMAL 041000Z 20002KT 9999 FEW040 26/11 Q1014;EQDQ01+000000PRSWM2
0139412180999992000010411004+24250+055600FM-15+0262OMAL V02099999999992200019N0112651N1+02601+00901999999ADDGA1021+012009999GF102991999999999999999999MA1101391999999MW1001REMMET045OMAL 041100Z VRB03KT 9999 FEW040 26/09 Q1014;EQDQ01+000000PRSWM2
0247412180999992000010412004+24250+055600SY-MT+0262OMAL V0202001N002112200019N0150001N1+02601+00761101301ADDAA106000091GF101991011001999999031001MA1101391098281MD1999999-0051MW1001REMSYN075AAXX  04124 41218 32965 12004 10260 20076 39828 40130 81030 333 59005 1365;MET047OMAL 041200Z 20004KT 140V250 CAVOK 26/08 Q1014;EQDQ01+000000PRSWM2Q02  00002PRCP06
0139412180999992000010413004+24250+055600FM-15+0262OMAL V02099999999992200019N0112651N1+02601+00701999999ADDGA1021+012009999GF102991999999999999999999MA1101391999999MW1001REMMET045OMAL 041300Z VRB02KT 9999 FEW040 26/07 Q1014;EQDQ01+000000PRSWM2
0091412180999992000010414004+24250+055600FM-15+0262OMAL V0202901N00211220001CN0099001N1+02301+00801999999ADDMA1101491999999MW1001REMMET039OMAL 041400Z 29004KT CAVOK 23/08 Q1015;EQDQ01+000000PRSWM2
0201412180999992000010415004+24250+055600SY-MT+0262OMAL V0202701N001512200019N0150001N1+02171+00721101431ADDGF100991001001999999001001MA1101491098371MD1999999-0071MW1001REMSYN064AAXX  04154 41218 42965 02703 10217 20072 39837 40143 333 59007;MET039OMAL 041500Z 27003KT CAVOK 22/17 Q1015;EQDQ01+000000PRSWM2
0091412180999992000010416004+24250+055600FM-15+0262OMAL V0202801N00151220001CN0099001N1+02101+00701999999ADDMA1101491999999MW1001REMMET039OMAL 041600Z 28003KT CAVOK 21/07 Q1015;EQDQ01+000000PRSWM2
0091412180999992000010417004+24250+055600FM-15+0262OMAL V0203301N00261220001CN0099001N1+01901+00901999999ADDMA1101591999999MW1001REMMET039OMAL 041700Z 33005KT CAVOK 19/09 Q1016;EQDQ01+000000PRSWM2
0220412180999992000010418004+24250+055600SY-MT+0262OMAL V0203301N003112200019N0120001N1+01831+01461101611ADDGF100991001001999999001001KA1120M+02701MA1101591098501MD1999999-0041MW1001REMSYN070AAXX  04184 41218 42962 03306 10183 20146 39850 40161 333 10270 59004;MET039OMAL 041800Z 33006KT CAVOK 18/15 Q1016;EQDQ01+000000PRSWM2
0091412180999992000010419004+24250+055600FM-15+0262OMAL V0203301N00151220001CN0099001N1+01701+01501999999ADDMA1101591999999MW1001REMMET039OMAL 041900Z 33003KT CAVOK 17/15 Q1016;EQDQ01+000000PRSWM2
0120412180999992000010420004+24250+055600FM-15+0262OMAL V0203001N000512200019N0090001N1+01601+01401999999ADDGF100991999999999999999999MA1101591999999MW1001REMMET042OMAL 042000Z 30001KT 9000 SKC 16/14 Q1016;EQDQ01+000000PRSWM2
0242412180999992000010421004+24250+055600SY-MT+0262OMAL V0203301N001012200019N0090001N1+01581+01421101621ADDAY101031AY201031GF100991001001999999001001MA1101591098491MD1999999-0011MW1051REMSYN070AAXX  04214 41218 41959 03302 10158 20142 39849 40162 70500 333 59001;MET042OMAL 042100Z 33002KT 9000 SKC 16/14 Q1016;EQDQ01+000000PRSWM2Q02    003PRSWM1
0120412180999992000010422004+24250+055600FM-15+0262OMAL V0200101N001512200019N0090001N1+01601+01401999999ADDGF100991999999999999999999MA1101591999999MW1001REMMET042OMAL 042200Z 01003KT 9000 SKC 16/14 Q1016;EQDQ01+000000PRSWM2
0120412180999992000010423004+24250+055600FM-15+0262OMAL V0200701N003112200019N0060001N1+01401+01301999999ADDGF100991999999999999999999MA1101591999999MW1001REMMET042OMAL 042300Z 07006KT 6000 SKC 14/13 Q1016;EQDQ01+000000PRSWM2
0269412180999992000010500004+24250+055600SY-MT+0262OMAL V0200801N002612200019N0060001N1+01441+01301101571ADDAA106000091AY101061AY201061GF100991001001999999001001MA1101491098421MD1999999+0001MW1051REMSYN070AAXX  05004 41218 31956 00805 10144 20130 39842 40157 70500 333 58000;MET042OMAL 050000Z 08005KT 6000 SKC 14/13 Q1015;EQDQ01+000000PRSWM2Q02  00002PRCP06Q03    003PRSWM1
0120412180999992000010501004+24250+055600FM-15+0262OMAL V0201001N004112200019N0080001N1+01501+01101999999ADDGF100991999999999999999999MA1101491999999MW1001REMMET042OMAL 050100Z 10008KT 8000 SKC 15/11 Q1015;EQDQ01+000000PRSWM2
0120412180999992000010502004+24250+055600FM-15+0262OMAL V0201001N004112200019N0080001N1+01601+01301999999ADDGF100991999999999999999999MA1101491999999MW1001REMMET042OMAL 050200Z 10008KT 8000 SKC 16/13 Q1015;EQDQ01+000000PRSWM2
0139412180999992000010503004+24250+055600FM-15+0262OMAL V0201001N003612200019N0060001N1+01401+01201999999ADDGA1021+075009999GF102991999999999999999999MA1101591999999MW1001REMMET045OMAL 050300Z 10007KT 6000 FEW250 14/12 Q1016;EQDQ01+000000PRSWM2
0139412180999992000010504004+24250+055600FM-15+0262OMAL V0201401N004112200019N0070001N1+01501+01201999999ADDGA1021+075009999GF104991999999999999999999MA1101691999999MW1001REMMET045OMAL 050400Z 14008KT 7000 SCT250 15/12 Q1017;EQDQ01+000000PRSWM2
0139412180999992000010505004+24250+055600FM-15+0262OMAL V0201401N003112200019N0080001N1+01801+01101999999ADDGA1021+084009999GF104991999999999999999999MA1101691999999MW1001REMMET045OMAL 050500Z 14006KT 8000 SCT280 18/11 Q1017;EQDQ01+000000PRSWM2
0256412180999992000010506004+24250+055600SY-MT+0262OMAL V0201501N003612200019N0100001N1+02101+01081101761ADDGF101991001001999999001011IA1019IA2999+01309KA1120N+01391MA1101801098681MD1999999+0001MW1001REMSYN088AAXX  05064 41218 42960 11507 10210 20108 39868 40176 80001 333 20139 30013 58000 81078;MET039OMAL 050600Z 15007KT CAVOK 21/11 Q1018;EQDQ01+000000PRSWM2
0091412180999992000010507004+24250+055600FM-15+0262OMAL V0201601N00461220001CN0099001N1+02401+00901999999ADDMA1101801999999MW1001REMMET039OMAL 050700Z 16009KT CAVOK 24/09 Q1018;EQDQ01+000000PRSWM2
0209412180999992000010509004+24250+055600SY-MT+0262OMAL V0202001N006212200019N0140001N1+02611+00721101531ADDGF100991001001999999001001MA1101591098511MD1999999+0051MW1001REMSYN064AAXX  05094 41218 42964 02012 10261 20072 39851 40153 333 58005;MET047OMAL 050900Z 20012KT 160V240 CAVOK 26/07 Q1016;EQDQ01+000000PRSWM2
0099412180999992000010510004+24250+055600FM-15+0262OMAL V0202301N00461220001CN0099001N1+02601+00701999999ADDMA1101591999999MW1001REMMET047OMAL 051000Z 23009KT 180V250 CAVOK 26/07 Q1016;EQDQ01+000000PRSWM2
0091412180999992000010511004+24250+055600FM-15+0262OMAL V0202201N00511220001CN0099001N1+02701+00601999999ADDMA1101491999999MW1001REMMET039OMAL 051100Z 22010KT CAVOK 27/06 Q1015;EQDQ01+000000PRSWM2
0240412180999992000010512004+24250+055600SY-MT+0262OMAL V0202001N003112200019N0150001N1+02651+00601101431ADDAA106000091GF101991001001999999001011MA1101491098411MD1999999+0131MW1001REMSYN076AAXX  05124 41218 32965 12006 10265 20060 39841 40143 80001 333 58013 81080;MET039OMAL 051200Z 20006KT CAVOK 27/06 Q1015;EQDQ01+000000PRSWM2Q02  00002PRCP06
0091412180999992000010513004+24250+055600FM-15+0262OMAL V0202001N00361220001CN0099001N1+02601+00601999999ADDMA1101491999999MW1001REMMET039OMAL 051300Z 20007KT CAVOK 26/06 Q1015;EQDQ01+000000PRSWM2
0091412180999992000010514004+24250+055600FM-15+0262OMAL V0202501N00261220001CN0099001N1+02401+00601999999ADDMA1101591999999MW1001REMMET039OMAL 051400Z 25005KT CAVOK 24/06 Q1016;EQDQ01+000000PRSWM2
0213412180999992000010515004+24250+055600SY-MT+0262OMAL V0202701N001512200019N0200001N1+02141+00531101621ADDGF102991001001999999001011MA1101591098541MD1999999+0171MW1001REMSYN076AAXX  05154 41218 42970 22703 10214 20053 39854 40162 80001 333 58017 82080;MET039OMAL 051500Z 27003KT CAVOK 21/05 Q1016;EQDQ01+000000PRSWM2
0091412180999992000010516004+24250+055600FM-15+0262OMAL V0203001N00101220001CN0099001N1+02101+00501999999ADDMA1101691999999MW1001REMMET039OMAL 051600Z 30002KT CAVOK 21/05 Q1017;EQDQ01+000000PRSWM2
0091412180999992000010517004+24250+055600FM-15+0262OMAL V0203601N00151220001CN0099001N1+02001+00601999999ADDMA1101691999999MW1001REMMET039OMAL 051700Z 36003KT CAVOK 20/06 Q1017;EQDQ01+000000PRSWM2
0220412180999992000010518004+24250+055600SY-MT+0262OMAL V0200401N00461220001CN0150001N1+01851+00601101721ADDGF100991001001999999001001KA1120M+02751MA1101691098621MD1999999+0121MW1001REMSYN070AAXX  05184 41218 42965 00409 10185 20060 39862 40172 333 10275 58012;MET039OMAL 051800Z 04009KT CAVOK 19/06 Q1017;EQDQ01+000000PRSWM2
0091412180999992000010519004+24250+055600FM-15+0262OMAL V0200501N00411220001CN0099001N1+01801+00701999999ADDMA1101691999999MW1001REMMET039OMAL 051900Z 05008KT CAVOK 18/07 Q1017;EQDQ01+000000PRSWM2
0201412180999992000010521004+24250+055600SY-MT+0262OMAL V0200601N003612200019N0150001N1+01741+00511101691ADDGF100991001001999999001001MA1101691098571MD1999999+0081MW1001REMSYN064AAXX  05214 41218 42965 00607 10174 20051 39857 40169 333 58008;MET039OMAL 052100Z 06007KT CAVOK 17/05 Q1017;EQDQ01+000000PRSWM2
0091412180999992000010522004+24250+055600FM-15+0262OMAL V0200801N00311220001CN0099001N1+01601+00501999999ADDMA1101591999999MW1001REMMET039OMAL 052200Z 08006KT CAVOK 16/05 Q1016;EQDQ01+000000PRSWM2
0091412180999992000010602004+24250+055600FM-15+0262OMAL V0200901N00361220001CN0099001N1+01501+01201999999ADDMA1101591999999MW1001REMMET039OMAL 060200Z 09007KT CAVOK 15/12 Q1016;EQDQ01+000000PRSWM2
0267412180999992000010603004+24250+055600SY-MT+0262OMAL V0200901N003612200019N0550001N1+01401+01021101781ADDAY101031AY201031GA1021+045009999GF102991011001008001031011MA1101691098631MD1999999+0131MW1051REMSYN076AAXX  06034 41218 41585 20907 10140 20102 39863 40178 70500 81031 333 58013;MET045OMAL 060300Z 09007KT 8000 FEW150 14/10 Q1017;EQDQ01+000000PRSWM2Q02    003PRSWM1
0139412180999992000010604004+24250+055600FM-15+0262OMAL V0201201N004112200019N0080001N1+01401+01001999999ADDGA1021+075009999GF102991999999999999999999MA1101801999999MW1001REMMET045OMAL 060400Z 12008KT 8000 FEW250 14/10 Q1018;EQDQ01+000000PRSWM2
0139412180999992000010605004+24250+055600FM-15+0262OMAL V0201601N005112200019N0080001N1+01901+01501999999ADDGA1021+075009999GF102991999999999999999999MA1101901999999MW1001REMMET045OMAL 060500Z 16010KT 8000 FEW250 19/15 Q1019;EQDQ01+000000PRSWM2
0332412180999992000010606004+24250+055600SY-MT+0262OMAL V0201601N005712200019N0080001N1+02151+01541101891ADDAY101061AY201061GA1021+075009999GF199999001001999999001011IA1019IA2999+01309KA1120N+01401MA1101901098821MD1999999+0141MW1051REMSYN094AAXX  06064 41218 41958 11611 10215 20154 39882 40189 70500 80001 333 20140 30013 58014 81075;MET045OMAL 060600Z 16011KT 8000 FEW250 22/15 Q1019;EQDQ01+000012SCOTCVQ02+000000PRSWM2Q03    003PRSWM1
0091412180999992000010607004+24250+055600FM-15+0262OMAL V0201701N00511220001CN0099001N1+02301+01501999999ADDMA1101901999999MW1001REMMET039OMAL 060700Z 17010KT CAVOK 23/15 Q1019;EQDQ01+000000PRSWM2
0091412180999992000010608004+24250+055600FM-15+0262OMAL V0201901N00411220001CN0099001N1+02401+01501999999ADDMA1101801999999MW1001REMMET039OMAL 060800Z 19008KT CAVOK 24/15 Q1018;EQDQ01+000000PRSWM2
0091412180999992000010609004+24250+055600FM-15+0262OMAL V0201501N00261220001CN0099001N1+02601+01301999999ADDMA1101691999999MW1001REMMET039OMAL 060900Z 15005KT CAVOK 26/13 Q1017;EQDQ01+000000PRSWM2
0091412180999992000010610004+24250+055600FM-15+0262OMAL V0202001N00261220001CN0099001N1+02701+01301999999ADDMA1101591999999MW1001REMMET039OMAL 061000Z 20005KT CAVOK 27/13 Q1016;EQDQ01+000000PRSWM2
0091412180999992000010611004+24250+055600FM-15+0262OMAL V0202401N00261220001CN0099001N1+02701+01301999999ADDMA1101491999999MW1001REMMET039OMAL 061100Z 24005KT CAVOK 27/13 Q1015;EQDQ01+000000PRSWM2
0240412180999992000010612004+24250+055600SY-MT+0262OMAL V0203101N001512200019N0140001N1+02711+01281101451ADDAA106000091GF102991021001999999031011MA1101491098441MD1999999+0031MW1001REMSYN076AAXX  06124 41218 32964 23103 10271 20128 39844 40145 82031 333 58003 82360;MET039OMAL 061200Z 31003KT CAVOK 27/13 Q1015;EQDQ01+000000PRSWM2Q02  00002PRCP06
0091412180999992000010613004+24250+055600FM-15+0262OMAL V0202701N00151220001CN0099001N1+02601+01301999999ADDMA1101591999999MW1001REMMET039OMAL 061300Z 27003KT CAVOK 26/13 Q1016;EQDQ01+000000PRSWM2
0091412180999992000010614004+24250+055600FM-15+0262OMAL V0203001N00151220001CN0099001N1+02501+01201999999ADDMA1101591999999MW1001REMMET039OMAL 061400Z 30003KT CAVOK 25/12 Q1016;EQDQ01+000000PRSWM2
0201412180999992000010615004+24250+055600SY-MT+0262OMAL V0203101N002112200019N0120001N1+02301+01111101571ADDGF100991001001999999001001MA1101591098521MD1999999-0021MW1001REMSYN064AAXX  06154 41218 42962 03104 10230 20111 39852 40157 333 59002;MET039OMAL 061500Z 31004KT CAVOK 23/11 Q1016;EQDQ01+000000PRSWM2
0091412180999992000010616004+24250+055600FM-15+0262OMAL V0203401N00151220001CN0099001N1+02201+01101999999ADDMA1101691999999MW1001REMMET039OMAL 061600Z 34003KT CAVOK 22/11 Q1017;EQDQ01+000000PRSWM2
0091412180999992000010617004+24250+055600FM-15+0262OMAL V0200101N00211220001CN0099001N1+02201+01101999999ADDMA1101691999999MW1001REMMET039OMAL 061700Z 01004KT CAVOK 22/11 Q1017;EQDQ01+000000PRSWM2
0091412180999992000010620004+24250+055600FM-15+0262OMAL V0200901N00261220001CN0099001N1+01801+01001999999ADDMA1101591999999MW1001REMMET039OMAL 062000Z 09005KT CAVOK 18/10 Q1016;EQDQ01+000000PRSWM2
0213412180999992000010621004+24250+055600SY-MT+0262OMAL V0200801N002112200019N0150001N1+01811+01021101571ADDGF103991001001999999001021MA1101591098461MD1999999-0111MW1001REMSYN076AAXX  06214 41218 42965 30804 10181 20102 39846 40157 80002 333 59011 83075;MET039OMAL 062100Z 08004KT CAVOK 18/10 Q1016;EQDQ01+000000PRSWM2
0091412180999992000010622004+24250+055600FM-15+0262OMAL V0200601N00261220001CN0099001N1+01701+01001999999ADDMA1101591999999MW1001REMMET039OMAL 062200Z 06005KT CAVOK 17/10 Q1016;EQDQ01+000000PRSWM2
0091412180999992000010623004+24250+055600FM-15+0262OMAL V0200601N00411220001CN0099001N1+01801+01101999999ADDMA1101491999999MW1001REMMET039OMAL 062300Z 06008KT CAVOK 18/11 Q1015;EQDQ01+000000PRSWM2
0240412180999992000010700004+24250+055600SY-MT+0262OMAL V0200601N003112200019N0150001N1+01731+01021101481ADDAA106000091GF104991001001999999001021MA1101491098371MD1999999-0191MW1001REMSYN076AAXX  07004 41218 32965 40606 10173 20102 39837 40148 80002 333 59019 84075;MET039OMAL 070000Z 06006KT CAVOK 17/10 Q1015;EQDQ01+000000PRSWM2Q02  00002PRCP06
0091412180999992000010701004+24250+055600FM-15+0262OMAL V0200501N00311220001CN0099001N1+01601+01001999999ADDMA1101491999999MW1001REMMET039OMAL 070100Z 05006KT CAVOK 16/10 Q1015;EQDQ01+000000PRSWM2
0091412180999992000010702004+24250+055600FM-15+0262OMAL V0200501N00361220001CN0099001N1+01701+01101999999ADDMA1101591999999MW1001REMMET039OMAL 070200Z 05007KT CAVOK 17/11 Q1016;EQDQ01+000000PRSWM2
0213412180999992000010703004+24250+055600SY-MT+0262OMAL V0200701N00411220001CN0120001N1+01711+01181101641ADDGF102991001001999999001011MA1101591098521MD1999999-0111MW1001REMSYN076AAXX  07034 41218 42962 20708 10171 20118 39852 40164 80001 333 59011 82075;MET039OMAL 070300Z 07008KT CAVOK 17/12 Q1016;EQDQ01+000000PRSWM2
0091412180999992000010704004+24250+055600FM-15+0262OMAL V0200701N00361220001CN0099001N1+01701+01101999999ADDMA1101691999999MW1001REMMET039OMAL 070400Z 07007KT CAVOK 17/11 Q1017;EQDQ01+000000PRSWM2
0091412180999992000010705004+24250+055600FM-15+0262OMAL V0201001N00311220001CN0099001N1+02101+01301999999ADDMA1101801999999MW1001REMMET039OMAL 070500Z 10006KT CAVOK 21/13 Q1018;EQDQ01+000000PRSWM2
0256412180999992000010706004+24250+055600SY-MT+0262OMAL V0200901N002112200019N0120001N1+02491+01321101711ADDGF104991001001999999001011IA1019IA2999+01509KA1120N+01641MA1101801098681MD1999999-0141MW1001REMSYN088AAXX  07064 41218 42962 40904 10249 20132 39868 40171 80001 333 20164 30015 59014 84075;MET039OMAL 070600Z 09004KT CAVOK 25/13 Q1018;EQDQ01+000000PRSWM2
0091412180999992000010707004+24250+055600FM-15+0262OMAL V0201701N00361220001CN0099001N1+02501+01301999999ADDMA1101801999999MW1001REMMET039OMAL 070700Z 17007KT CAVOK 25/13 Q1018;EQDQ01+000000PRSWM2
0235412180999992000010709004+24250+055600SY-MT+0262OMAL V0209999V001012200019N0140001N1+02731+01371101491ADDGA1021+030009039GF104991021001999999031021MA1101591098481MD1999999-0111MW1001REMSYN082AAXX  07094 41218 42964 49902 10273 20137 39848 40149 82032 333 59011 82360 83075;MET039OMAL 070900Z VRB02KT CAVOK 27/14 Q1016;EQDQ01+000000PRSWM2
0091412180999992000010710004+24250+055600FM-15+0262OMAL V0203401N00311220001CN0099001N1+02701+01201999999ADDMA1101491999999MW1001REMMET039OMAL 071000Z 34006KT CAVOK 27/12 Q1015;EQDQ01+000000PRSWM2
0091412180999992000010711004+24250+055600FM-15+0262OMAL V0209999999999220001CN0099001N1+02801+01201999999ADDMA1101391999999MW1001REMMET039OMAL 071100Z VRB03KT CAVOK 28/12 Q1014;EQDQ01+000000PRSWM2
0236412180999992000010712004+24250+055600SY-MT+0262OMAL V0209999V001512200019N0120001N1+02771+01171101301ADDAA106000091GA1021+075009019GF102991001001999999001041MA1101391098301MW1001REMSYN070AAXX  07124 41218 32962 29903 10277 20117 39830 40130 80004 333 82075;MET039OMAL 071200Z VRB03KT CAVOK 28/12 Q1014;EQDQ01+000000PRSWM2Q02  00002PRCP06
0099412180999992000010713004+24250+055600FM-15+0262OMAL V0203401N00261220001CN0099001N1+02701+01101999999ADDMA1101391999999MW1001REMMET047OMAL 071300Z 34005KT 310V020 CAVOK 27/11 Q1014;EQDQ01+000000PRSWM2
0091412180999992000010714004+24250+055600FM-15+0262OMAL V0203201N00211220001CN0099001N1+02501+01001999999ADDMA1101491999999MW1001REMMET039OMAL 071400Z 32004KT CAVOK 25/10 Q1015;EQDQ01+000000PRSWM2
0229412180999992000010715004+24250+055600SY-MT+0262OMAL V0203201N002112200019N0140001N1+02361+00961101491ADDGA1011+075009019GF101991001001999999001011MA1101591098451MD1999999-0071MW1001REMSYN076AAXX  07154 41218 42964 13204 10236 20096 39845 40149 80001 333 59007 81075;MET039OMAL 071500Z 32004KT CAVOK 24/10 Q1016;EQDQ01+000000PRSWM2
0091412180999992000010716004+24250+055600FM-15+0262OMAL V0203401N00361220001CN0099001N1+02201+01101999999ADDMA1101591999999MW1001REMMET039OMAL 071600Z 34007KT CAVOK 22/11 Q1016;EQDQ01+000000PRSWM2
0091412180999992000010717004+24250+055600FM-15+0262OMAL V0203601N00261220001CN0099001N1+02101+01101999999ADDMA1101691999999MW1001REMMET039OMAL 071700Z 36005KT CAVOK 21/11 Q1017;EQDQ01+000000PRSWM2
0220412180999992000010718004+24250+055600SY-MT+0262OMAL V0200301N00411220001CN0120001N1+02021+01061101641ADDGF100991001001999999001001KA1120M+02891MA1101691098561MD1999999-0011MW1001REMSYN070AAXX  07184 41218 42962 00308 10202 20106 39856 40164 333 10289 59001;MET039OMAL 071800Z 03008KT CAVOK 20/11 Q1017;EQDQ01+000000PRSWM2
0091412180999992000010719004+24250+055600FM-15+0262OMAL V0200501N00411220001CN0099001N1+01901+01001999999ADDMA1101591999999MW1001REMMET039OMAL 071900Z 05008KT CAVOK 19/10 Q1016;EQDQ01+000000PRSWM2
0091412180999992000010720004+24250+055600FM-15+0262OMAL V0200501N00411220001CN0099001N1+01801+01001999999ADDMA1101591999999MW1001REMMET039OMAL 072000Z 05008KT CAVOK 18/10 Q1016;EQDQ01+000000PRSWM2
0201412180999992000010721004+24250+055600SY-MT+0262OMAL V0200501N004612200019N0100001N1+01751+00941101591ADDGF100991001001999999001001MA1101591098481MD1999999+0021MW1001REMSYN064AAXX  07214 41218 42960 00509 10175 20094 39848 40159 333 58002;MET039OMAL 072100Z 05009KT CAVOK 18/09 Q1016;EQDQ01+000000PRSWM2
0091412180999992000010722004+24250+055600FM-15+0262OMAL V0200601N00461220001CN0099001N1+01701+00901999999ADDMA1101491999999MW1001REMMET039OMAL 072200Z 06009KT CAVOK 17/09 Q1015;EQDQ01+000000PRSWM2
0091412180999992000010723004+24250+055600FM-15+0262OMAL V0200501N00361220001CN0099001N1+01701+00901999999ADDMA1101491999999MW1001REMMET039OMAL 072300Z 05007KT CAVOK 17/09 Q1015;EQDQ01+000000PRSWM2
0228412180999992000010800004+24250+055600SY-MT+0262OMAL V0201001N00261220001CN0100001N1+01641+00911101431ADDAA106000091GF100991001001999999001001MA1101391098311MD1999999-0061MW1001REMSYN064AAXX  08004 41218 32960 01005 10164 20091 39831 40143 333 59006;MET039OMAL 080000Z 10005KT CAVOK 16/09 Q1014;EQDQ01+000000PRSWM2Q02  00002PRCP06
0091412180999992000010801004+24250+055600FM-15+0262OMAL V0201001N00311220001CN0099001N1+01601+00901999999ADDMA1101391999999MW1001REMMET039OMAL 080100Z 10006KT CAVOK 16/09 Q1014;EQDQ01+000000PRSWM2
0091412180999992000010803004+24250+055600FM-15+0262OMAL V0201001N00261220001CN0099001N1+01601+00901999999ADDMA1101491999999MW1001REMMET039OMAL 080300Z 10005KT CAVOK 16/09 Q1015;EQDQ01+000000PRSWM2
0091412180999992000010804004+24250+055600FM-15+0262OMAL V0200801N00261220001CN0099001N1+01701+00901999999ADDMA1101591999999MW1001REMMET039OMAL 080400Z 08005KT CAVOK 17/09 Q1016;EQDQ01+000000PRSWM2
0091412180999992000010807004+24250+055600FM-15+0262OMAL V0209999999999220001CN0099001N1+02501+00701999999ADDMA1101691999999MW1001REMMET039OMAL 080700Z VRB02KT CAVOK 25/07 Q1017;EQDQ01+000000PRSWM2
0099412180999992000010808004+24250+055600FM-15+0262OMAL V0203401N00211220001CN0099001N1+02601+00501999999ADDMA1101591999999MW1001REMMET047OMAL 080800Z 34004KT 260V040 CAVOK 26/05 Q1016;EQDQ01+000000PRSWM2
0221412180999992000010809004+24250+055600SY-MT+0262OMAL V0203301N002612200019N0140001N1+02651+00601101381ADDGF102991001001999999001021MA1101491098371MD1999999-0111MW1001REMSYN076AAXX  08094 41218 42964 23305 10265 20060 39837 40138 80002 333 59011 82075;MET047OMAL 080900Z 33005KT 300V040 CAVOK 27/06 Q1015;EQDQ01+000000PRSWM2
0091412180999992000010810004+24250+055600FM-15+0262OMAL V0203101N00461220001CN0099001N1+02701+00901999999ADDMA1101391999999MW1001REMMET039OMAL 081000Z 31009KT CAVOK 27/09 Q1014;EQDQ01+000000PRSWM2
0091412180999992000010811004+24250+055600FM-15+0262OMAL V0203501N00411220001CN0099001N1+02701+01001999999ADDMA1101391999999MW1001REMMET039OMAL 081100Z 35008KT CAVOK 27/10 Q1014;EQDQ01+000000PRSWM2
0240412180999992000010812004+24250+055600SY-MT+0262OMAL V0203301N00571220001CN0200001N1+02751+00981101281ADDAA106000091GF103991001001999999001021MA1101391098271MD1999999-0031MW1001REMSYN076AAXX  08124 41218 32970 33311 10275 20098 39827 40128 80002 333 59003 83075;MET039OMAL 081200Z 33011KT CAVOK 28/10 Q1014;EQDQ01+000000PRSWM2Q02  00002PRCP06
0091412180999992000010813004+24250+055600FM-15+0262OMAL V0203301N00621220001CN0099001N1+02601+01101999999ADDMA1101391999999MW1001REMMET039OMAL 081300Z 33012KT CAVOK 26/11 Q1014;EQDQ01+000000PRSWM2
0091412180999992000010814004+24250+055600FM-15+0262OMAL V0203301N00621220001CN0099001N1+02401+01301999999ADDMA1101491999999MW1001REMMET039OMAL 081400Z 33012KT CAVOK 24/13 Q1015;EQDQ01+000000PRSWM2
0213412180999992000010815004+24250+055600SY-MT+0262OMAL V0203301N00461220001CN0150001N1+02281+01191101451ADDGF102991001001999999001011MA1101491098401MD1999999-0051MW1001REMSYN076AAXX  08154 41218 42965 23309 10228 20119 39840 40145 80001 333 59005 82075;MET039OMAL 081500Z 33009KT CAVOK 23/12 Q1015;EQDQ01+000000PRSWM2
0091412180999992000010816004+24250+055600FM-15+0262OMAL V0203401N00411220001CN0099001N1+02101+01301999999ADDMA1101591999999MW1001REMMET039OMAL 081600Z 34008KT CAVOK 21/13 Q1016;EQDQ01+000000PRSWM2
0091412180999992000010817004+24250+055600FM-15+0262OMAL V0203401N00261220001CN0099001N1+02001+01401999999ADDMA1101591999999MW1001REMMET039OMAL 081700Z 34005KT CAVOK 20/14 Q1016;EQDQ01+000000PRSWM2
0091412180999992000010818004+24250+055600FM-15+0262OMAL V0203501N00311220001CN0099001N1+01901+01501999999ADDMA1101591999999MW1001REMMET039OMAL 081800Z 35006KT CAVOK 19/15 Q1016;EQDQ01+000000PRSWM2
0091412180999992000010819004+24250+055600FM-15+0262OMAL V0200101N00151220001CN0099001N1+01801+01501999999ADDMA1101491999999MW1001REMMET039OMAL 081900Z 01003KT CAVOK 18/15 Q1015;EQDQ01+000000PRSWM2
0091412180999992000010820004+24250+055600FM-15+0262OMAL V0200101N00151220001CN0099001N1+01801+01401999999ADDMA1101491999999MW1001REMMET039OMAL 082000Z 01003KT CAVOK 18/14 Q1015;EQDQ01+000000PRSWM2
0091412180999992000010821004+24250+055600FM-15+0262OMAL V0200101N00261220001CN0099001N1+01801+01401999999ADDMA1101391999999MW1001REMMET039OMAL 082100Z 01005KT CAVOK 18/14 Q1014;EQDQ01+000000PRSWM2
0091412180999992000010822004+24250+055600FM-15+0262OMAL V0200201N00411220001CN0099001N1+01701+01501999999ADDMA1101391999999MW1001REMMET039OMAL 082200Z 02008KT CAVOK 17/15 Q1014;EQDQ01+000000PRSWM2
0091412180999992000010823004+24250+055600FM-15+0262OMAL V0200101N00361220001CN0099001N1+01701+01501999999ADDMA1101391999999MW1001REMMET039OMAL 082300Z 01007KT CAVOK 17/15 Q1014;EQDQ01+000000PRSWM2
0091412180999992000010900004+24250+055600FM-15+0262OMAL V0200301N00311220001CN0099001N1+01601+01401999999ADDMA1101391999999MW1001REMMET039OMAL 090000Z 03006KT CAVOK 16/14 Q1014;EQDQ01+000000PRSWM2
0091412180999992000010901004+24250+055600FM-15+0262OMAL V0200201N00411220001CN0099001N1+01601+01401999999ADDMA1101291999999MW1001REMMET039OMAL 090100Z 02008KT CAVOK 16/14 Q1013;EQDQ01+000000PRSWM2
0091412180999992000010902004+24250+055600FM-15+0262OMAL V0200201N00411220001CN0099001N1+01601+01401999999ADDMA1101391999999MW1001REMMET039OMAL 090200Z 02008KT CAVOK 16/14 Q1014;EQDQ01+000000PRSWM2
0139412180999992000010903004+24250+055600FM-15+0262OMAL V0200301N004112200019N0080001N1+01501+01401999999ADDGA1021+042009999GF102991999999999999999999MA1101391999999MW1001REMMET045OMAL 090300Z 03008KT 8000 FEW140 15/14 Q1014;EQDQ01+000000PRSWM2
0139412180999992000010904004+24250+055600FM-15+0262OMAL V0200101N003112200019N0080001N1+01601+01401999999ADDGA1021+042009999GF102991999999999999999999MA1101491999999MW1001REMMET045OMAL 090400Z 01006KT 8000 FEW140 16/14 Q1015;EQDQ01+000000PRSWM2
0139412180999992000010905004+24250+055600FM-15+0262OMAL V0203601N002612200019N0080001N1+01801+01501999999ADDGA1021+042009999GF102991999999999999999999MA1101491999999MW1001REMMET045OMAL 090500Z 36005KT 8000 FEW140 18/15 Q1015;EQDQ01+000000PRSWM2
0091412180999992000010907004+24250+055600FM-15+0262OMAL V0203501N00411220001CN0099001N1+02301+01601999999ADDMA1101591999999MW1001REMMET039OMAL 090700Z 35008KT CAVOK 23/16 Q1016;EQDQ01+000000PRSWM2
0091412180999992000010908004+24250+055600FM-15+0262OMAL V0203401N00361220001CN0099001N1+02501+01501999999ADDMA1101491999999MW1001REMMET039OMAL 090800Z 34007KT CAVOK 25/15 Q1015;EQDQ01+000000PRSWM2
0099412180999992000010910004+24250+055600FM-15+0262OMAL V0202801N00211220001CN0099001N1+02801+01401999999ADDMA1101291999999MW1001REMMET047OMAL 091000Z 28004KT 200V330 CAVOK 28/14 Q1013;EQDQ01+000000PRSWM2
0099412180999992000010911004+24250+055600FM-15+0262OMAL V0202501N00211220001CN0099001N1+02801+01301999999ADDMA1101191999999MW1001REMMET047OMAL 091100Z 25004KT 160V310 CAVOK 28/13 Q1012;EQDQ01+000000PRSWM2
0091412180999992000010912004+24250+055600FM-15+0262OMAL V0202701N00361220001CN0099001N1+02801+01301999999ADDMA1101191999999MW1001REMMET039OMAL 091200Z 27007KT CAVOK 28/13 Q1012;EQDQ01+000000PRSWM2
0091412180999992000010913004+24250+055600FM-15+0262OMAL V0202701N00361220001CN0099001N1+02701+01201999999ADDMA1101191999999MW1001REMMET039OMAL 091300Z 27007KT CAVOK 27/12 Q1012;EQDQ01+000000PRSWM2
0091412180999992000010914004+24250+055600FM-15+0262OMAL V0202901N00261220001CN0099001N1+02501+01201999999ADDMA1101291999999MW1001REMMET039OMAL 091400Z 29005KT CAVOK 25/12 Q1013;EQDQ01+000000PRSWM2
0091412180999992000010915004+24250+055600FM-15+0262OMAL V0202801N00311220001CN0099001N1+02301+01201999999ADDMA1101291999999MW1001REMMET039OMAL 091500Z 28006KT CAVOK 23/12 Q1013;EQDQ01+000000PRSWM2
0091412180999992000010916004+24250+055600FM-15+0262OMAL V0203001N00361220001CN0099001N1+02101+01601999999ADDMA1101391999999MW1001REMMET039OMAL 091600Z 30007KT CAVOK 21/16 Q1014;EQDQ01+000000PRSWM2
0091412180999992000010917004+24250+055600FM-15+0262OMAL V0203201N00211220001CN0099001N1+02001+01501999999ADDMA1101391999999MW1001REMMET039OMAL 091700Z 32004KT CAVOK 20/15 Q1014;EQDQ01+000000PRSWM2
0091412180999992000010919004+24250+055600FM-15+0262OMAL V0203301N00151220001CN0099001N1+01801+01501999999ADDMA1101391999999MW1001REMMET039OMAL 091900Z 33003KT CAVOK 18/15 Q1014;EQDQ01+000000PRSWM2
0139412180999992000010920004+24250+055600FM-15+0262OMAL V0203301N001512200019N0070001N1+01801+01501999999ADDGA1021+002709999GF104991999999999999999999MA1101391999999MW1001REMMET045OMAL 092000Z 33003KT 7000 SCT009 18/15 Q1014;EQDQ01+000000PRSWM2
0224412180999992000010921004+24250+055600FM-15+0262OMAL V0200101N002110015019N0011001N1+01801+01701999999ADDED199U15009GA1021+000309999GA2071+001509999GF107991999999999999999999MA1101291999999MW1401REMMET087OMAL 092100Z 01004KT 1100 R01/P1500D R19/P1500D VCFG SCT001 BKN005 18/17 Q1013 (SPECI);EQDQ01+000003PRSWM1Q02    003PRSWM1
0212412180999992000010922004+24250+055600FM-15+0262OMAL V0200201N001010015019N0006001N1+01701+01701999999ADDED199U03009GA1021+000309999GA2071+001509999GF107991999999999999999999MA1101291999999MW1441REMMET075OMAL 092200Z 02002KT 0600 R01/0300D R19/0200D FG SCT001 BKN005 17/17 Q1013;EQDQ01+000003PRSWM1Q02    003PRSWM1
0191412180999992000010923004+24250+055600FM-15+0262OMAL V02099999999990009019N0007001N1+01701+01701999999ADDED199U15009GA1071+000909999GF107991999999999999999999MA1101291999999MW1441REMMET070OMAL 092300Z VRB01KT 0700 R01/P1500U R19/P1500U FG BKN003 17/17 Q1013;EQDQ01+000003PRSWM1Q02    003PRSWM1
0193412180999992000011000004+24250+055600FM-15+0262OMAL V0203501N001510015019N0010001N1+01701+01701999999ADDED199U15009GA1071+001509999GF107991999999999999999999MA1101291999999MW1401REMMET072OMAL 100000Z 35003KT 1000 R01/P1500N R19/P1500N VCFG BKN005 17/17 Q1013;EQDQ01+000003PRSWM1Q02    003PRSWM1
0168412180999992000011001004+24250+055600FM-15+0262OMAL V0203601N001012200019N0030001N1+01701+01701999999ADDGA1021+001809999GF104991999999999999999999MA1101291999999MW1401REMMET058OMAL 100100Z 36002KT 3000 VCFG SCT006 17/17 Q1013 (SPECI);EQDQ01+000003PRSWM1Q02    003PRSWM1
0111412180999992000011002004+24250+055600FM-15+0262OMAL V0203201N002112200019N0030001N1+01701+01701999999ADDMA1101391999999MW1401REMMET043OMAL 100200Z 32004KT 3000 VCFG 17/17 Q1014;EQDQ01+000003PRSWM1Q02    003PRSWM1
0191412180999992000011003004+24250+055600FM-15+0262OMAL V0209999C000010021019N0030001N1+01701+01701999999ADDGA1021+001209999GA2071+002109999GF107991999999999999999999MA1101391999999MW1401REMMET065OMAL 100300Z 00000KT 3000 VCFG SCT004 BKN007 17/17 Q1014 (SPECI);EQDQ01+000003PRSWM1Q02    003PRSWM1
0158412180999992000011004004+24250+055600FM-15+0262OMAL V0201701N001010015019N0050001N1+01801+01701999999ADDGA1071+001509999GF107991999999999999999999MA1101491999999MW1051REMMET048OMAL 100400Z 17002KT 5000 HZ BKN005 18/17 Q1015;EQDQ01+000003PRSWM1Q02    003PRSWM1
0158412180999992000011005004+24250+055600FM-15+0262OMAL V0202501N001510018019N0035001N1+01901+01801999999ADDGA1071+001809999GF107991999999999999999999MA1101591999999MW1051REMMET048OMAL 100500Z 25003KT 3500 HZ BKN006 19/18 Q1016;EQDQ01+000003PRSWM1Q02    003PRSWM1
0181412180999992000011006004+24250+055600FM-15+0262OMAL V0202601N002610060019N0050001N1+02001+01901999999ADDGA1021+003009999GA2071+006009999GF107991999999999999999999MA1101591999999MW1051REMMET055OMAL 100600Z 26005KT 5000 HZ SCT010 BKN020 20/19 Q1016;EQDQ01+000003PRSWM1Q02    003PRSWM1
0147412180999992000011007004+24250+055600FM-15+0262OMAL V0202901N005710054019N0070001N1+02201+01801999999ADDGA1071+005409999GF107991999999999999999999MA1101591999999MW1001REMMET053OMAL 100700Z 29011KT 260V320 7000 BKN018 22/18 Q1016;EQDQ01+000000PRSWM2
0147412180999992000011008004+24250+055600FM-15+0262OMAL V0202901N007210075019N0070001N1+02301+01801999999ADDGA1071+007509999GF107991999999999999999999MA1101491999999MW1001REMMET053OMAL 100800Z 29014KT 260V320 7000 BKN025 23/18 Q1015;EQDQ01+000000PRSWM2
0178412180999992000011009004+24250+055600FM-15+0262OMAL V0202901N006712200019N9999999N1+02401+01601999999ADDGA1021+010509999GA2021+066009999GF104991999999999999999999MA1101291999999MW1001REMMET052OMAL 100900Z 29013KT 6000 SCT035 SCT220 24/16 Q1013;EQDQ01+060002VODIS Q02+000000PRSWM2
0163412180999992000011010004+24250+055600FM-15+0262OMAL V0203001N007712200019N9999999N1+02401+01501999999ADDGA1021+010509999GF104991999999999999999999MA1101291999999MW1001REMMET053OMAL 101000Z 30015KT 287V340 6000 SCT035 24/15 Q1013;EQDQ01+060002VODIS Q02+000000PRSWM2
0155412180999992000011011004+24250+055600FM-15+0262OMAL V0203201N007212200019N9999999N1+02401+01401999999ADDGA1021+012009999GF104991999999999999999999MA1101191999999MW1001REMMET045OMAL 101100Z 32014KT 7000 SCT040 24/14 Q1012;EQDQ01+070002VODIS Q02+000000PRSWM2
0153412180999992000011012004+24250+055600FM-15+0262OMAL V0203201N007712200019N9999999N1+02401+01501999999ADDGA1021+012009999GF104991999999999999999999MA1101291999999MW1001REMMET043OMAL 101200 32015KT 6000 SCT40 24/15 Q1013;EQDQ01+060002VODIS Q02+000000PRSWM2
0155412180999992000011013004+24250+055600FM-15+0262OMAL V0203201N006712200019N9999999N1+02301+01501999999ADDGA1021+010509999GF104991999999999999999999MA1101291999999MW1001REMMET045OMAL 101300Z 32013KT 6000 SCT035 23/15 Q1013;EQDQ01+060002VODIS Q02+000000PRSWM2
0139412180999992000011014004+24250+055600FM-15+0262OMAL V0203201N006712200019N0060001N1+02101+01601999999ADDGA1021+010509999GF104991999999999999999999MA1101391999999MW1001REMMET045OMAL 101400Z 32013KT 6000 SCT035 21/16 Q1014;EQDQ01+000000PRSWM2
0139412180999992000011015004+24250+055600FM-15+0262OMAL V0203201N005112200019N0070001N1+02001+01601999999ADDGA1021+010509999GF104991999999999999999999MA1101391999999MW1001REMMET045OMAL 101500Z 32010KT 7000 SCT035 20/16 Q1014;EQDQ01+000000PRSWM2
0139412180999992000011016004+24250+055600FM-15+0262OMAL V0203001N003612200019N0080001N1+01901+01601999999ADDGA1021+007509999GF104991999999999999999999MA1101491999999MW1001REMMET045OMAL 101600Z 30007KT 8000 SCT025 19/16 Q1015;EQDQ01+000000PRSWM2
0162412180999992000011017004+24250+055600FM-15+0262OMAL V0202901N004112200019N0080001N1+01901+01601999999ADDGA1021+006009999GA2021+009009999GF104991999999999999999999MA1101491999999MW1001REMMET052OMAL 101700Z 29008KT 8000 FEW020 SCT030 19/16 Q1015;EQDQ01+000000PRSWM2
0139412180999992000011018004+24250+055600FM-15+0262OMAL V0203001N005112200019N0112651N1+02001+01301999999ADDGA1021+009009999GF102991999999999999999999MA1101391999999MW1001REMMET045OMAL 101800Z 30010KT 9999 FEW030 20/13 Q1014;EQDQ01+000000PRSWM2
0139412180999992000011019004+24250+055600FM-15+0262OMAL V0202901N003110075019N0080001N1+01701+01501999999ADDGA1071+007509999GF107991999999999999999999MA1101491999999MW1001REMMET045OMAL 101900Z 29006KT 8000 BKN025 17/15 Q1015;EQDQ01+000000PRSWM2
0139412180999992000011020004+24250+055600FM-15+0262OMAL V0202901N003112200019N0080001N1+01601+01401999999ADDGA1021+007509999GF104991999999999999999999MA1101491999999MW1001REMMET045OMAL 102000Z 29006KT 8000 SCT025 16/14 Q1015;EQDQ01+000000PRSWM2
0139412180999992000011021004+24250+055600FM-15+0262OMAL V0202701N002112200019N0080001N1+01601+01401999999ADDGA1021+007509999GF102991999999999999999999MA1101391999999MW1001REMMET045OMAL 102100Z 27004KT 8000 FEW025 16/14 Q1014;EQDQ01+000000PRSWM2
0139412180999992000011022004+24250+055600FM-15+0262OMAL V0202701N001010075019N0080001N1+01601+01401999999ADDGA1071+007509999GF107991999999999999999999MA1101391999999MW1001REMMET045OMAL 102200Z 27002KT 8000 BKN025 16/14 Q1014;EQDQ01+000000PRSWM2
0139412180999992000011023004+24250+055600FM-15+0262OMAL V0202801N002610075019N0080001N1+01501+01301999999ADDGA1071+007509999GF107991999999999999999999MA1101491999999MW1001REMMET045OMAL 102300Z 28005KT 8000 BKN025 15/13 Q1015;EQDQ01+000000PRSWM2
0139412180999992000011100004+24250+055600FM-15+0262OMAL V0202801N001510090019N0080001N1+01501+01301999999ADDGA1071+009009999GF107991999999999999999999MA1101391999999MW1001REMMET045OMAL 110000Z 28003KT 8000 BKN030 15/13 Q1014;EQDQ01+000000PRSWM2
0162412180999992000011102004+24250+055600FM-15+0262OMAL V0202701N001512200019N0112651N1+01401+01201999999ADDGA1021+009009999GA2021+015009999GF104991999999999999999999MA1101491999999MW1001REMMET052OMAL 110200Z 27003KT 9999 FEW030 SCT050 14/12 Q1015;EQDQ01+000000PRSWM2
0162412180999992000011103004+24250+055600FM-15+0262OMAL V0202201N002110120019N0080001N1+01401+01201999999ADDGA1021+009009999GA2071+012009999GF107991999999999999999999MA1101591999999MW1001REMMET052OMAL 110300Z 22004KT 8000 FEW030 BKN040 14/12 Q1016;EQDQ01+000000PRSWM2
0139412180999992000011104004+24250+055600FM-15+0262OMAL V0202101N001512200019N0070001N1+01401+01201999999ADDGA1021+010509999GF104991999999999999999999MA1101691999999MW1001REMMET045OMAL 110400Z 21003KT 7000 SCT035 14/12 Q1017;EQDQ01+000000PRSWM2
0139412180999992000011105004+24250+055600FM-15+0262OMAL V0201801N002110120019N0080001N1+01601+01301999999ADDGA1071+012009999GF107991999999999999999999MA1101691999999MW1001REMMET045OMAL 110500Z 18004KT 8000 BKN040 16/13 Q1017;EQDQ01+000000PRSWM2
0139412180999992000011106004+24250+055600FM-15+0262OMAL V0202701N004112200019N0112651N1+01901+01101999999ADDGA1021+012009999GF104991999999999999999999MA1101801999999MW1001REMMET045OMAL 110600Z 27008KT 9999 SCT040 19/11 Q1018;EQDQ01+000000PRSWM2
0139412180999992000011107004+24250+055600FM-15+0262OMAL V0202901N006210120019N0112651N1+02001+01001999999ADDGA1071+012009999GF107991999999999999999999MA1101691999999MW1001REMMET045OMAL 110700Z 29012KT 9999 BKN040 20/10 Q1017;EQDQ01+000000PRSWM2
0156412180999992000011108004+24250+055600FM-15+0262OMAL V0202801N007710135019N0080001N1+02101+00901999999ADDGA1071+013509999GF107991999999999999999999MA1101591999999MW1001OC101341REMMET054OMAL 110800Z 28015G26KT 8000 BKN045 21/09 Q1016 SPECI;EQDQ01+000000PRSWM2
0178412180999992000011109004+24250+055600FM-15+0262OMAL V0202901N008212200019N9999999N1+02101+01001999999ADDGA1021+012009999GA2021+015009999GF104991999999999999999999MA1101491999999MW1001REMMET052OMAL 110900Z 29016KT 6000 FEW040 SCT050 21/10 Q1015;EQDQ01+060002VODIS Q02+000000PRSWM2
0155412180999992000011110004+24250+055600FM-15+0262OMAL V0202901N007212200019N9999999N1+02101+00901999999ADDGA1021+013509999GF104991999999999999999999MA1101491999999MW1001REMMET045OMAL 111000Z 29014KT 7000 SCT045 21/09 Q1015;EQDQ01+070002VODIS Q02+000000PRSWM2
0147412180999992000011111004+24250+055600FM-15+0262OMAL V0203001N008212200019N0080001N1+02101+00801999999ADDGA1021+013509999GF104991999999999999999999MA1101391999999MW1001REMMET053OMAL 111100Z 30016KT 270V330 8000 SCT045 21/08 Q1014;EQDQ01+000000PRSWM2
0139412180999992000011112004+24250+055600FM-15+0262OMAL V0202901N007712200019N0080001N1+02101+01001999999ADDGA1021+013509999GF104991999999999999999999MA1101491999999MW1001REMMET045OMAL 111200Z 29015KT 8000 SCT045 21/10 Q1015;EQDQ01+000000PRSWM2
0147412180999992000011113004+24250+055600FM-15+0262OMAL V0203101N006712200019N0080001N1+01901+00901999999ADDGA1021+013509999GF104991999999999999999999MA1101491999999MW1001REMMET053OMAL 111300Z 31013KT 280V340 8000 SCT045 19/09 Q1015;EQDQ01+000000PRSWM2
0139412180999992000011114004+24250+055600FM-15+0262OMAL V0202901N005112200019N0080001N1+01801+00901999999ADDGA1021+012009999GF102991999999999999999999MA1101491999999MW1001REMMET045OMAL 111400Z 29010KT 8000 FEW040 18/09 Q1015;EQDQ01+000000PRSWM2
0139412180999992000011115004+24250+055600FM-15+0262OMAL V0202901N004112200019N0112651N1+01701+01001999999ADDGA1021+012009999GF102991999999999999999999MA1101591999999MW1001REMMET045OMAL 111500Z 29008KT 9999 FEW040 17/10 Q1016;EQDQ01+000000PRSWM2
0091412180999992000011116004+24250+055600FM-15+0262OMAL V0202901N00361220001CN0099001N1+01601+00901999999ADDMA1101691999999MW1001REMMET039OMAL 111600Z 29007KT CAVOK 16/09 Q1017;EQDQ01+000000PRSWM2
0091412180999992000011117004+24250+055600FM-15+0262OMAL V0202901N00261220001CN0099001N1+01501+00901999999ADDMA1101691999999MW1001REMMET039OMAL 111700Z 29005KT CAVOK 15/09 Q1017;EQDQ01+000000PRSWM2
0139412180999992000011118004+24250+055600FM-15+0262OMAL V0202701N001012200019N0112651N1+01401+00901999999ADDGA1021+010509999GF102991999999999999999999MA1101691999999MW1001REMMET045OMAL 111800Z 27002KT 9999 FEW035 14/09 Q1017;EQDQ01+000000PRSWM2
0139412180999992000011119004+24250+055600FM-15+0262OMAL V0202701N002112200019N0112651N1+01301+00901999999ADDGA1021+010509999GF102991999999999999999999MA1101591999999MW1001REMMET045OMAL 111900Z 27004KT 9999 FEW035 13/09 Q1016;EQDQ01+000000PRSWM2
0139412180999992000011120004+24250+055600FM-15+0262OMAL V0202601N001512200019N0112651N1+01301+00901999999ADDGA1021+010509999GF102991999999999999999999MA1101591999999MW1001REMMET045OMAL 112000Z 26003KT 9999 FEW035 13/09 Q1016;EQDQ01+000000PRSWM2
0091412180999992000011121004+24250+055600FM-15+0262OMAL V0202501N00211220001CN0099001N1+01301+00901999999ADDMA1101591999999MW1001REMMET039OMAL 112100Z 25004KT CAVOK 13/09 Q1016;EQDQ01+000000PRSWM2
0091412180999992000011122004+24250+055600FM-15+0262OMAL V0202701N00101220001CN0099001N1+01201+00901999999ADDMA1101491999999MW1001REMMET039OMAL 112200Z 27002KT CAVOK 12/09 Q1015;EQDQ01+000000PRSWM2
0091412180999992000011123004+24250+055600FM-15+0262OMAL V0209999C00001220001CN0099001N1+01101+00801999999ADDMA1101491999999MW1001REMMET039OMAL 112300Z 00000KT CAVOK 11/08 Q1015;EQDQ01+000000PRSWM2
0139412180999992000011200004+24250+055600FM-15+0262OMAL V0201801N000512200019N0112651N1+01101+00801999999ADDGA1021+010509999GF102991999999999999999999MA1101491999999MW1001REMMET045OMAL 120000Z 18001KT 9999 FEW035 11/08 Q1015;EQDQ01+000000PRSWM2
0139412180999992000011201004+24250+055600FM-15+0262OMAL V0201501N001512200019N0112651N1+01001+00801999999ADDGA1021+010509999GF104991999999999999999999MA1101491999999MW1001REMMET045OMAL 120100Z 15003KT 9999 SCT035 10/08 Q1015;EQDQ01+000000PRSWM2
0139412180999992000011202004+24250+055600FM-15+0262OMAL V0201701N001012200019N0080001N1+01001+00801999999ADDGA1021+010509999GF104991999999999999999999MA1101591999999MW1001REMMET045OMAL 120200Z 17002KT 8000 SCT035 10/08 Q1016;EQDQ01+000000PRSWM2
0083412180999992000011204004+24250+055600FM-16+0262OMAL V0201501N002112200019N0080001N1+99999+99999999999ADDMW1001REMMET046OMAL 120400Z 15004KT 8000 BKN 038 11/09 Q1017;EQDQ01+000000PRSWM2
0139412180999992000011205004+24250+055600FM-15+0262OMAL V0201401N002110120019N0070001N1+01301+01001999999ADDGA1071+012009999GF107991999999999999999999MA1101691999999MW1001REMMET045OMAL 120500Z 14004KT 7000 BKN040 13/10 Q1017;EQDQ01+000000PRSWM2
0139412180999992000011206004+24250+055600FM-15+0262OMAL V0202101N001510126019N0070001N1+01601+01201999999ADDGA1071+012609999GF107991999999999999999999MA1101801999999MW1001REMMET045OMAL 120600Z 21003KT 7000 BKN042 16/12 Q1018;EQDQ01+000000PRSWM2
0139412180999992000011207004+24250+055600FM-15+0262OMAL V02099999999992200019N0080001N1+01901+01201999999ADDGA1021+012609999GF104991999999999999999999MA1101801999999MW1001REMMET045OMAL 120700Z VRB03KT 8000 SCT042 19/12 Q1018;EQDQ01+000000PRSWM2
0147412180999992000011208004+24250+055600FM-15+0262OMAL V0203201N003112200019N0112651N1+02001+01001999999ADDGA1021+012009999GF104991999999999999999999MA1101691999999MW1001REMMET053OMAL 120800Z 32006KT 280V020 9999 SCT040 20/10 Q1017;EQDQ01+000000PRSWM2
0139412180999992000011209004+24250+055600FM-15+0262OMAL V0203001N005712200019N0112651N1+02101+01101999999ADDGA1021+012009999GF104991999999999999999999MA1101491999999MW1001REMMET045OMAL 120900Z 30011KT 9999 SCT040 21/11 Q1015;EQDQ01+000000PRSWM2
0158412180999992000011210004+24250+055600FM-15+0262OMAL V0203301N004112200019N0112651N1+02101+01001999999ADDGA1021+013509999GF104991999999999999999999MA1101491999999MW1001OC100981REMMET056OMAL 121000Z 33008G19KT 260V010 9999 SCT045 21/10 Q1015;EQDQ01+000000PRSWM2
0139412180999992000011211004+24250+055600FM-15+0262OMAL V0203001N005112200019N0112651N1+02201+01001999999ADDGA1021+013509999GF104991999999999999999999MA1101391999999MW1001REMMET045OMAL 121100Z 30010KT 9999 SCT045 22/10 Q1014;EQDQ01+000000PRSWM2
0090412180999992000011213004+24250+055600FM-15+0262OMAL V0202901N00511220001CN0099001N1+02101+01001999999ADDMA1101491999999MW1001REMMET038OMAL 121300 29010KT CAVOK 21/10 Q1015;EQDQ01+000000PRSWM2
0090412180999992000011214004+24250+055600FM-15+0262OMAL V0203001N00361220001CN0099001N1+01901+00901999999ADDMA1101591999999MW1001REMMET038OMAL 121400 30007KT CAVOK 19/09 Q1016;EQDQ01+000000PRSWM2
0091412180999992000011215004+24250+055600FM-15+0262OMAL V0203001N00361220001CN0099001N1+01801+01001999999ADDMA1101591999999MW1001REMMET039OMAL 121500Z 30007KT CAVOK 18/10 Q1016;EQDQ01+000000PRSWM2
0091412180999992000011216004+24250+055600FM-15+0262OMAL V0203001N00361220001CN0099001N1+01601+01001999999ADDMA1101691999999MW1001REMMET039OMAL 121600Z 30007KT CAVOK 16/10 Q1017;EQDQ01+000000PRSWM2
0091412180999992000011217004+24250+055600FM-15+0262OMAL V0203001N00311220001CN0099001N1+01501+01001999999ADDMA1101691999999MW1001REMMET039OMAL 121700Z 30006KT CAVOK 15/10 Q1017;EQDQ01+000000PRSWM2
0091412180999992000011219004+24250+055600FM-15+0262OMAL V0203301N00151220001CN0099001N1+01401+01001999999ADDMA1101691999999MW1001REMMET039OMAL 121900Z 33003KT CAVOK 14/10 Q1017;EQDQ01+000000PRSWM2
0091412180999992000011220004+24250+055600FM-15+0262OMAL V0203501N00101220001CN0099001N1+01401+01001999999ADDMA1101691999999MW1001REMMET039OMAL 122000Z 35002KT CAVOK 14/10 Q1017;EQDQ01+000000PRSWM2
0084412180999992000011221004+24250+055600FM-15+0262OMAL V0203301N001012200019N0033001N1+99999+99999999999ADDMW1001REMMET047OMAL 122100Z 33002KT 33002KT CAVOK 13/10 Q1017;EQDQ01+000000PRSWM2
0091412180999992000011222004+24250+055600FM-15+0262OMAL V0200201N00051220001CN0099001N1+01201+00901999999ADDMA1101691999999MW1001REMMET039OMAL 122200Z 02001KT CAVOK 12/09 Q1017;EQDQ01+000000PRSWM2
0091412180999992000011223004+24250+055600FM-15+0262OMAL V0200701N00051220001CN0099001N1+01101+00901999999ADDMA1101691999999MW1001REMMET039OMAL 122300Z 07001KT CAVOK 11/09 Q1017;EQDQ01+000000PRSWM2
0091412180999992000011300004+24250+055600FM-15+0262OMAL V0203601N00151220001CN0099001N1+01101+00901999999ADDMA1101691999999MW1001REMMET039OMAL 130000Z 36003KT CAVOK 11/09 Q1017;EQDQ01+000000PRSWM2
0091412180999992000011301004+24250+055600FM-15+0262OMAL V0200201N00211220001CN0099001N1+01101+00901999999ADDMA1101691999999MW1001REMMET039OMAL 130100Z 02004KT CAVOK 11/09 Q1017;EQDQ01+000000PRSWM2
0091412180999992000011302004+24250+055600FM-15+0262OMAL V0200701N00211220001CN0099001N1+01101+00901999999ADDMA1101691999999MW1001REMMET039OMAL 130200Z 07004KT CAVOK 11/09 Q1017;EQDQ01+000000PRSWM2
0091412180999992000011303004+24250+055600FM-15+0262OMAL V0200601N00211220001CN0099001N1+01001+00801999999ADDMA1101801999999MW1001REMMET039OMAL 130300Z 06004KT CAVOK 10/08 Q1018;EQDQ01+000000PRSWM2
0091412180999992000011304004+24250+055600FM-15+0262OMAL V0200301N00211220001CN0099001N1+01201+01001999999ADDMA1101901999999MW1001REMMET039OMAL 130400Z 03004KT CAVOK 12/10 Q1019;EQDQ01+000000PRSWM2
0091412180999992000011305004+24250+055600FM-15+0262OMAL V0200701N00151220001CN0099001N1+01501+01201999999ADDMA1102001999999MW1001REMMET039OMAL 130500Z 07003KT CAVOK 15/12 Q1020;EQDQ01+000000PRSWM2
0091412180999992000011306004+24250+055600FM-15+0262OMAL V0200401N00151220001CN0099001N1+01801+01201999999ADDMA1102001999999MW1001REMMET039OMAL 130600Z 04003KT CAVOK 18/12 Q1020;EQDQ01+000000PRSWM2
0091412180999992000011307004+24250+055600FM-15+0262OMAL V0203101N00311220001CN0099001N1+01901+01101999999ADDMA1101901999999MW1001REMMET039OMAL 130700Z 31006KT CAVOK 19/11 Q1019;EQDQ01+000000PRSWM2
0147412180999992000011308004+24250+055600FM-15+0262OMAL V0203201N002612200019N0112651N1+02001+01001999999ADDGA1021+007509999GF102991999999999999999999MA1101901999999MW1001REMMET053OMAL 130800Z 32005KT 260V040 9999 FEW025 20/10 Q1019;EQDQ01+000000PRSWM2
0147412180999992000011309004+24250+055600FM-15+0262OMAL V0203401N002112200019N0112651N1+02201+01101999999ADDGA1021+007509999GF102991999999999999999999MA1101801999999MW1001REMMET053OMAL 130900Z 34004KT 280V050 9999 FEW025 22/11 Q1018;EQDQ01+000000PRSWM2
0147412180999992000011310004+24250+055600FM-15+0262OMAL V0203001N004112200019N0112651N1+02201+00901999999ADDGA1021+009009999GF102991999999999999999999MA1101691999999MW1001REMMET053OMAL 131000Z 30008KT 250V020 9999 FEW030 22/09 Q1017;EQDQ01+000000PRSWM2
0147412180999992000011311004+24250+055600FM-15+0262OMAL V0203201N003612200019N0112651N1+02201+00801999999ADDGA1021+009009999GF102991999999999999999999MA1101591999999MW1001REMMET053OMAL 131100Z 32007KT 250V350 9999 FEW030 22/08 Q1016;EQDQ01+000000PRSWM2
0139412180999992000011312004+24250+055600FM-15+0262OMAL V0203201N004612200019N0112651N1+02201+00801999999ADDGA1021+012009999GF102991999999999999999999MA1101591999999MW1001REMMET045OMAL 131200Z 32009KT 9999 FEW040 22/08 Q1016;EQDQ01+000000PRSWM2
0139412180999992000011313004+24250+055600FM-15+0262OMAL V0203201N005112200019N0112651N1+02201+00801999999ADDGA1021+012009999GF102991999999999999999999MA1101691999999MW1001REMMET045OMAL 131300Z 32010KT 9999 FEW040 22/08 Q1017;EQDQ01+000000PRSWM2
0091412180999992000011314004+24250+055600FM-15+0262OMAL V0203301N00411220001CN0099001N1+02001+00801999999ADDMA1101691999999MW1001REMMET039OMAL 131400Z 33008KT CAVOK 20/08 Q1017;EQDQ01+000000PRSWM2
0091412180999992000011315004+24250+055600FM-15+0262OMAL V0203301N00261220001CN0099001N1+01901+00801999999ADDMA1101691999999MW1001REMMET039OMAL 131500Z 33005KT CAVOK 19/08 Q1017;EQDQ01+000000PRSWM2
0091412180999992000011316004+24250+055600FM-15+0262OMAL V0203301N00361220001CN0099001N1+01801+00901999999ADDMA1101801999999MW1001REMMET039OMAL 131600Z 33007KT CAVOK 18/09 Q1018;EQDQ01+000000PRSWM2
0091412180999992000011317004+24250+055600FM-15+0262OMAL V0203201N00361220001CN0099001N1+01701+01301999999ADDMA1101801999999MW1001REMMET039OMAL 131700Z 32007KT CAVOK 17/13 Q1018;EQDQ01+000000PRSWM2
0091412180999992000011318004+24250+055600FM-15+0262OMAL V0203101N00211220001CN0099001N1+01601+01301999999ADDMA1101801999999MW1001REMMET039OMAL 131800Z 31004KT CAVOK 16/13 Q1018;EQDQ01+000000PRSWM2
0091412180999992000011319004+24250+055600FM-15+0262OMAL V0200101N00211220001CN0099001N1+01501+01301999999ADDMA1101801999999MW1001REMMET039OMAL 131900Z 01004KT CAVOK 15/13 Q1018;EQDQ01+000000PRSWM2
0091412180999992000011320004+24250+055600FM-15+0262OMAL V0200201N00311220001CN0099001N1+01501+01301999999ADDMA1101801999999MW1001REMMET039OMAL 132000Z 02006KT CAVOK 15/13 Q1018;EQDQ01+000000PRSWM2
0091412180999992000011321004+24250+055600FM-15+0262OMAL V0200101N00211220001CN0099001N1+01501+01301999999ADDMA1101801999999MW1001REMMET039OMAL 132100Z 01004KT CAVOK 15/13 Q1018;EQDQ01+000000PRSWM2
0091412180999992000011322004+24250+055600FM-15+0262OMAL V0200301N00151220001CN0099001N1+01401+01201999999ADDMA1101801999999MW1001REMMET039OMAL 132200Z 03003KT CAVOK 14/12 Q1018;EQDQ01+000000PRSWM2
0091412180999992000011323004+24250+055600FM-15+0262OMAL V0200601N00311220001CN0099001N1+01301+01201999999ADDMA1101691999999MW1001REMMET039OMAL 132300Z 06006KT CAVOK 13/12 Q1017;EQDQ01+000000PRSWM2
0091412180999992000011400004+24250+055600FM-15+0262OMAL V0200501N00311220001CN0099001N1+01201+01101999999ADDMA1101691999999MW1001REMMET039OMAL 140000Z 05006KT CAVOK 12/11 Q1017;EQDQ01+000000PRSWM2
0091412180999992000011401004+24250+055600FM-15+0262OMAL V0200501N00311220001CN0099001N1+01301+01101999999ADDMA1101691999999MW1001REMMET039OMAL 140100Z 05006KT CAVOK 13/11 Q1017;EQDQ01+000000PRSWM2
0091412180999992000011402004+24250+055600FM-15+0262OMAL V0200501N00311220001CN0099001N1+01201+01001999999ADDMA1101801999999MW1001REMMET039OMAL 140200Z 05006KT CAVOK 12/10 Q1018;EQDQ01+000000PRSWM2
0091412180999992000011403004+24250+055600FM-15+0262OMAL V0200501N00361220001CN0099001N1+01201+01101999999ADDMA1101801999999MW1001REMMET039OMAL 140300Z 05007KT CAVOK 12/11 Q1018;EQDQ01+000000PRSWM2
0162412180999992000011404004+24250+055600FM-15+0262OMAL V0200601N003612200019N0112651N1+01301+01101999999ADDGA1021+010509999GA2021+027009999GF104991999999999999999999MA1101901999999MW1001REMMET052OMAL 140400Z 06007KT 9999 FEW035 SCT090 13/11 Q1019;EQDQ01+000000PRSWM2
0162412180999992000011405004+24250+055600FM-15+0262OMAL V0200501N003112200019N0112651N1+01501+01201999999ADDGA1021+010509999GA2021+027009999GF104991999999999999999999MA1101901999999MW1001REMMET052OMAL 140500Z 05006KT 9999 FEW035 SCT090 15/12 Q1019;EQDQ01+000000PRSWM2
0091412180999992000011407004+24250+055600FM-15+0262OMAL V0200101N00411220001CN0099001N1+02001+01201999999ADDMA1101901999999MW1001REMMET039OMAL 140700Z 01008KT CAVOK 20/12 Q1019;EQDQ01+000000PRSWM2
0091412180999992000011408004+24250+055600FM-15+0262OMAL V0203401N00461220001CN0099001N1+02201+01101999999ADDMA1101901999999MW1001REMMET039OMAL 140800Z 34009KT CAVOK 22/11 Q1019;EQDQ01+000000PRSWM2
0139412180999992000011409004+24250+055600FM-15+0262OMAL V0203401N004112200019N0112651N1+02301+01001999999ADDGA1021+010509999GF102991999999999999999999MA1101801999999MW1001REMMET045OMAL 140900Z 34008KT 9999 FEW035 23/10 Q1018;EQDQ01+000000PRSWM2
0139412180999992000011410004+24250+055600FM-15+0262OMAL V0203301N005712200019N0112651N1+02301+01001999999ADDGA1021+010509999GF102991999999999999999999MA1101691999999MW1001REMMET045OMAL 141000Z 33011KT 9999 FEW035 23/10 Q1017;EQDQ01+000000PRSWM2
0139412180999992000011411004+24250+055600FM-15+0262OMAL V0203301N006712200019N0112651N1+02301+01101999999ADDGA1021+009009999GF102991999999999999999999MA1101591999999MW1001REMMET045OMAL 141100Z 33013KT 9999 FEW030 23/11 Q1016;EQDQ01+000000PRSWM2
0139412180999992000011412004+24250+055600FM-15+0262OMAL V0203101N006212200019N0112651N1+02301+01101999999ADDGA1021+010509999GF102991999999999999999999MA1101591999999MW1001REMMET045OMAL 141200Z 31012KT 9999 FEW035 23/11 Q1016;EQDQ01+000000PRSWM2
0139412180999992000011413004+24250+055600FM-15+0262OMAL V0203301N006212200019N0112651N1+02301+01001999999ADDGA1021+010509999GF102991999999999999999999MA1101591999999MW1001REMMET045OMAL 141300Z 33012KT 9999 FEW035 23/10 Q1016;EQDQ01+000000PRSWM2
0091412180999992000011414004+24250+055600FM-15+0262OMAL V0203201N00511220001CN0099001N1+02201+00801999999ADDMA1101691999999MW1001REMMET039OMAL 141400Z 32010KT CAVOK 22/08 Q1017;EQDQ01+000000PRSWM2
0091412180999992000011415004+24250+055600FM-15+0262OMAL V0203201N00511220001CN0099001N1+02001+00901999999ADDMA1101801999999MW1001REMMET039OMAL 141500Z 32010KT CAVOK 20/09 Q1018;EQDQ01+000000PRSWM2
0091412180999992000011416004+24250+055600FM-15+0262OMAL V0203201N00411220001CN0099001N1+01901+01201999999ADDMA1101901999999MW1001REMMET039OMAL 141600Z 32008KT CAVOK 19/12 Q1019;EQDQ01+000000PRSWM2
0091412180999992000011417004+24250+055600FM-15+0262OMAL V0203201N00311220001CN0099001N1+01701+01201999999ADDMA1101901999999MW1001REMMET039OMAL 141700Z 32006KT CAVOK 17/12 Q1019;EQDQ01+000000PRSWM2
0091412180999992000011418004+24250+055600FM-15+0262OMAL V0203201N00211220001CN0099001N1+01601+01201999999ADDMA1101901999999MW1001REMMET039OMAL 141800Z 32004KT CAVOK 16/12 Q1019;EQDQ01+000000PRSWM2
0091412180999992000011419004+24250+055600FM-15+0262OMAL V0203101N00151220001CN0099001N1+01601+01301999999ADDMA1101901999999MW1001REMMET039OMAL 141900Z 31003KT CAVOK 16/13 Q1019;EQDQ01+000000PRSWM2
0091412180999992000011420004+24250+055600FM-15+0262OMAL V0203201N00151220001CN0099001N1+01501+01201999999ADDMA1101901999999MW1001REMMET039OMAL 142000Z 32003KT CAVOK 15/12 Q1019;EQDQ01+000000PRSWM2
0091412180999992000011421004+24250+055600FM-15+0262OMAL V0200601N00151220001CN0099001N1+01401+01201999999ADDMA1101901999999MW1001REMMET039OMAL 142100Z 06003KT CAVOK 14/12 Q1019;EQDQ01+000000PRSWM2
0091412180999992000011422004+24250+055600FM-15+0262OMAL V0200701N00151220001CN0099001N1+01401+01201999999ADDMA1101801999999MW1001REMMET039OMAL 142200Z 07003KT CAVOK 14/12 Q1018;EQDQ01+000000PRSWM2
0091412180999992000011423004+24250+055600FM-15+0262OMAL V0200801N00151220001CN0099001N1+01301+01101999999ADDMA1101801999999MW1001REMMET039OMAL 142300Z 08003KT CAVOK 13/11 Q1018;EQDQ01+000000PRSWM2
0091412180999992000011500004+24250+055600FM-15+0262OMAL V0200901N00211220001CN0099001N1+01301+01101999999ADDMA1101801999999MW1001REMMET039OMAL 150000Z 09004KT CAVOK 13/11 Q1018;EQDQ01+000000PRSWM2
0091412180999992000011501004+24250+055600FM-15+0262OMAL V0200701N00101220001CN0099001N1+01301+01201999999ADDMA1101801999999MW1001REMMET039OMAL 150100Z 07002KT CAVOK 13/12 Q1018;EQDQ01+000000PRSWM2
0091412180999992000011502004+24250+055600FM-15+0262OMAL V0200901N00211220001CN0099001N1+01201+01101999999ADDMA1101901999999MW1001REMMET039OMAL 150200Z 09004KT CAVOK 12/11 Q1019;EQDQ01+000000PRSWM2
0120412180999992000011504004+24250+055600FM-15+0262OMAL V0200701N001512200019N0080001N1+01301+01201999999ADDGF100991999999999999999999MA1102001999999MW1001REMMET042OMAL 150400Z 07003KT 8000 SKC 13/12 Q1020;EQDQ01+000000PRSWM2
0091412180999992000011506004+24250+055600FM-15+0262OMAL V0203501N00211220001CN0099001N1+01901+01301999999ADDMA1102101999999MW1001REMMET039OMAL 150600Z 35004KT CAVOK 19/13 Q1021;EQDQ01+000000PRSWM2
0091412180999992000011507004+24250+055600FM-15+0262OMAL V0203301N00311220001CN0099001N1+02001+01301999999ADDMA1102001999999MW1001REMMET039OMAL 150700Z 33006KT CAVOK 20/13 Q1020;EQDQ01+000000PRSWM2
0147412180999992000011508004+24250+055600FM-15+0262OMAL V0203401N002112200019N0112651N1+02101+01201999999ADDGA1021+010509999GF102991999999999999999999MA1102001999999MW1001REMMET053OMAL 150800Z 34004KT 330V070 9999 FEW035 21/12 Q1020;EQDQ01+000000PRSWM2
0163412180999992000011509004+24250+055600FM-12+026299999V0203201N00211220001AN0150001N1+02221+01131101811ADDGA1021+010509029GF102991021011012501031001MA1999999098741MD1999999+0091REMSYN080    AAXX  15094 41218 42665 23204 10222 20113 39874 40181 82130 333 58009 82835;
0147412180999992000011511004+24250+055600FM-15+0262OMAL V0203101N003612200019N0112651N1+02301+01001999999ADDGA1021+012009999GF102991999999999999999999MA1101901999999MW1001REMMET053OMAL 151100Z 31007KT 260V010 9999 FEW040 23/10 Q1019;EQDQ01+000000PRSWM2
0147412180999992000011513004+24250+055600FM-15+0262OMAL V0203101N004112200019N0112651N1+02201+01001999999ADDGA1021+012009999GF102991999999999999999999MA1101691999999MW1001REMMET053OMAL 151300Z 31008KT 270V330 9999 FEW040 22/10 Q1017;EQDQ01+000000PRSWM2
0139412180999992000011514004+24250+055600FM-15+0262OMAL V0203001N003612200019N0112651N1+02101+01001999999ADDGA1021+012009999GF102991999999999999999999MA1101801999999MW1001REMMET045OMAL 151400Z 30007KT 9999 FEW040 21/10 Q1018;EQDQ01+000000PRSWM2
0091412180999992000011515004+24250+055600FM-15+0262OMAL V0203201N00211220001CN0099001N1+02001+00901999999ADDMA1101801999999MW1001REMMET039OMAL 151500Z 32004KT CAVOK 20/09 Q1018;EQDQ01+000000PRSWM2
0091412180999992000011516004+24250+055600FM-15+0262OMAL V0203201N00361220001CN0099001N1+01801+01201999999ADDMA1101901999999MW1001REMMET039OMAL 151600Z 32007KT CAVOK 18/12 Q1019;EQDQ01+000000PRSWM2
0091412180999992000011517004+24250+055600FM-15+0262OMAL V0203401N00311220001CN0099001N1+01701+01201999999ADDMA1101901999999MW1001REMMET039OMAL 151700Z 34006KT CAVOK 17/12 Q1019;EQDQ01+000000PRSWM2
0091412180999992000011518004+24250+055600FM-15+0262OMAL V0203501N00261220001CN0099001N1+01601+01201999999ADDMA1101901999999MW1001REMMET039OMAL 151800Z 35005KT CAVOK 16/12 Q1019;EQDQ01+000000PRSWM2
0091412180999992000011521004+24250+055600FM-15+0262OMAL V0200101N00261220001CN0099001N1+01401+01101999999ADDMA1101801999999MW1001REMMET039OMAL 152100Z 01005KT CAVOK 14/11 Q1018;EQDQ01+000000PRSWM2
0091412180999992000011522004+24250+055600FM-15+0262OMAL V0200401N00311220001CN0099001N1+01301+01101999999ADDMA1101691999999MW1001REMMET039OMAL 152200Z 04006KT CAVOK 13/11 Q1017;EQDQ01+000000PRSWM2
0091412180999992000011523004+24250+055600FM-15+0262OMAL V0200401N00411220001CN0099001N1+01301+01101999999ADDMA1101691999999MW1001REMMET039OMAL 152300Z 04008KT CAVOK 13/11 Q1017;EQDQ01+000000PRSWM2
0091412180999992000011600004+24250+055600FM-15+0262OMAL V0200601N00411220001CN0099001N1+01301+01101999999ADDMA1101591999999MW1001REMMET039OMAL 160000Z 06008KT CAVOK 13/11 Q1016;EQDQ01+000000PRSWM2
0091412180999992000011601004+24250+055600FM-15+0262OMAL V0200701N00311220001CN0099001N1+01301+01101999999ADDMA1101591999999MW1001REMMET039OMAL 160100Z 07006KT CAVOK 13/11 Q1016;EQDQ01+000000PRSWM2
0091412180999992000011602004+24250+055600FM-15+0262OMAL V0200801N00361220001CN0099001N1+01301+01101999999ADDMA1101591999999MW1001REMMET039OMAL 160200Z 08007KT CAVOK 13/11 Q1016;EQDQ01+000000PRSWM2
0120412180999992000011603004+24250+055600FM-15+0262OMAL V0201101N004112200019N0080001N1+01301+01101999999ADDGF100991999999999999999999MA1101691999999MW1001REMMET042OMAL 160300Z 11008KT 8000 SKC 13/11 Q1017;EQDQ01+000000PRSWM2
0091412180999992000011604004+24250+055600FM-15+0262OMAL V0201501N00411220001CN0099001N1+01401+01201999999ADDMA1101801999999MW1001REMMET039OMAL 160400Z 15008KT CAVOK 14/12 Q1018;EQDQ01+000000PRSWM2
0091412180999992000011605004+24250+055600FM-15+0262OMAL V0201701N00571220001CN0099001N1+01701+01301999999ADDMA1101801999999MW1001REMMET039OMAL 160500Z 17011KT CAVOK 17/13 Q1018;EQDQ01+000000PRSWM2
0160412180999992000011607004+24250+055600FM-15+0262OMAL V0201701N008712200019N0040001N1+02201+01401999999ADDGA1021+009009999GF102991999999999999999999MA1101801999999MW1071REMMET050OMAL 160700Z 17017KT 4000 BLSA FEW030 22/14 Q1018;EQDQ01+000003PRSWM1Q02    003PRSWM1
0160412180999992000011608004+24250+055600FM-15+0262OMAL V0201801N007712200019N0035001N1+02301+01401999999ADDGA1021+009009999GF102991999999999999999999MA1101691999999MW1071REMMET050OMAL 160800Z 18015KT 3500 BLSA FEW030 23/14 Q1017;EQDQ01+000003PRSWM1Q02    003PRSWM1
0165412180999992000011609004+24250+055600FM-15+0262OMAL V0201801N006712200019N0035001N1+02501+01301999999ADDGA1021+009009999GA2021+012009999GF104991999999999999999999MW1061REMMET054OMAL 160900Z 18013KT 3500 DU FEW030 SCT040 25/13 Q101;EQDQ01+000003PRSWM1Q02    003PRSWM1
0163412180999992000011610004+24250+055600FM-15+0262OMAL V0201901N004612200019N9999999N1+02501+01301999999ADDGA1021+013509999GF102991999999999999999999MA1101491999999MW1001REMMET053OMAL 161000Z 19009KT 160V230 6000 FEW045 25/13 Q1015;EQDQ01+060002VODIS Q02+000000PRSWM2
0163412180999992000011611004+24250+055600FM-15+0262OMAL V0201901N005112200019N9999999N1+02501+01201999999ADDGA1021+013509999GF102991999999999999999999MA1101391999999MW1001REMMET053OMAL 161100Z 19010KT 160V230 7000 FEW045 25/12 Q1014;EQDQ01+070002VODIS Q02+000000PRSWM2
0322412180999992000011612004+24250+055600SY-MT+026299999V0201901N00411220001AN0070001N1+02491+01251101331ADDAA199000091AY101061AY201061GA1021+013509999GF199999011011012501001001MA1101391999999MD1999999-0321MW1061REMSYN080    AAXX  16124 41218 31657 11908 10249 20125 40133 70600 81100 333 59032 81845;MET053OMAL 161200Z 19008KT 160V230 7000 FEW045 25/13 Q1014;EQDQ01+000012SCOTCVQ02+000000PRSWM2Q03  00002PRCP99Q04    003PRSWM1
0120412180999992000011613004+24250+055600FM-15+0262OMAL V0201801N005112200019N0080001N1+02501+01201999999ADDGF100991999999999999999999MA1101391999999MW1001REMMET042OMAL 161300Z 18010KT 8000 SKC 25/12 Q1014;EQDQ01+000000PRSWM2
0120412180999992000011614004+24250+055600FM-15+0262OMAL V0201901N003112200019N0080001N1+02401+01301999999ADDGF100991999999999999999999MA1101391999999MW1001REMMET042OMAL 161400Z 19006KT 8000 SKC 24/13 Q1014;EQDQ01+000000PRSWM2
0091412180999992000011615004+24250+055600FM-15+0262OMAL V0202301N00101220001CN0099001N1+02201+01201999999ADDMA1101491999999MW1001REMMET039OMAL 161500Z 23002KT CAVOK 22/12 Q1015;EQDQ01+000000PRSWM2
0091412180999992000011616004+24250+055600FM-15+0262OMAL V0202101N00101220001CN0099001N1+02101+01201999999ADDMA1101591999999MW1001REMMET039OMAL 161600Z 21002KT CAVOK 21/12 Q1016;EQDQ01+000000PRSWM2
0091412180999992000011617004+24250+055600FM-15+0262OMAL V0201201N00261220001CN0099001N1+02001+01201999999ADDMA1101491999999MW1001REMMET039OMAL 161700Z 12005KT CAVOK 20/12 Q1015;EQDQ01+000000PRSWM2
0262412180999992000011618004+24250+055600SY-MT+026299999V0201301N00211024001AN0120001N1+01961+01211999999ADDGA1061+024009079GF106991061999999999031999KA1120M+02501MA1101591098451MD1999999-0341MW1001REMSYN080    AAXX  16184 41218 42962 61304 10196 20121 39845 8603/ 333 10250 59034 86358;MET039OMAL 161800Z 13004KT CAVOK 20/12 Q1016;EQDQ01+000000PRSWM2Q02    003SCOLCG
0099412180999992000011619004+24250+055600FM-15+0262OMAL V0201401N00261220001CN0099001N1+01801+01201999999ADDMA1101491999999MW1001REMMET047OMAL 161900Z 14005KT 360V140 CAVOK 18/12 Q1015;EQDQ01+000000PRSWM2
0091412180999992000011620004+24250+055600FM-15+0262OMAL V0201301N00361220001CN0099001N1+01801+01201999999ADDMA1101391999999MW1001REMMET039OMAL 162000Z 13007KT CAVOK 18/12 Q1014;EQDQ01+000000PRSWM2
0091412180999992000011621004+24250+055600FM-15+0262OMAL V0201501N00571220001CN0099001N1+01801+01201999999ADDMA1101291999999MW1001REMMET039OMAL 162100Z 15011KT CAVOK 18/12 Q1013;EQDQ01+000000PRSWM2
0091412180999992000011622004+24250+055600FM-15+0262OMAL V0201701N00871220001CN0099001N1+01901+01201999999ADDMA1101391999999MW1001REMMET039OMAL 162200Z 17017KT CAVOK 19/12 Q1014;EQDQ01+000000PRSWM2
0147412180999992000011623004+24250+055600FM-15+0262OMAL V0201701N010312200019N0045001N1+01901+01401999999ADDGF100991999999999999999999MA1101391999999MW1071REMMET053OMAL 162300Z 17020KT 4500 BLSA SKC 19/14 Q1014 SPECI;EQDQ01+000003PRSWM1Q02    003PRSWM1
0120412180999992000011700004+24250+055600FM-15+0262OMAL V0201601N010812200019N0060001N1+01801+01401999999ADDGF100991999999999999999999MA1101291999999MW1001REMMET042OMAL 170000Z 16021KT 6000 SKC 18/14 Q1013;EQDQ01+000000PRSWM2
0120412180999992000011701004+24250+055600FM-15+0262OMAL V0201701N009812200019N0060001N1+01801+01301999999ADDGF100991999999999999999999MA1101291999999MW1001REMMET042OMAL 170100Z 17019KT 6000 SKC 18/13 Q1013;EQDQ01+000000PRSWM2
0139412180999992000011702004+24250+055600FM-15+0262OMAL V0201701N008712200019N0080001N1+01801+01301999999ADDGA1021+024009999GF102991999999999999999999MA1101391999999MW1001REMMET045OMAL 170200Z 17017KT 8000 FEW080 18/13 Q1014;EQDQ01+000000PRSWM2
0162412180999992000011703004+24250+055600FM-15+0262OMAL V0201701N007710360019N0080001N1+01701+01301999999ADDGA1021+006009999GA2071+036009999GF107991999999999999999999MA1101491999999MW1001REMMET052OMAL 170300Z 17015KT 8000 FEW020 BKN120 17/13 Q1015;EQDQ01+000000PRSWM2
0192412180999992000011704004+24250+055600FM-15+0262OMAL V0201601N009812200019N0090001N1+01701+01201999999ADDGA1021+009009999GA2021+042009999GF104991999999999999999999MA1101491999999MW1001REMMET082OMAL 170400Z 16019KT 9000 FEW030 SCT140 17/12 Q1015 WIND RWY19 16017G35KT (SPECI);EQDQ01+000000PRSWM2
0190412180999992000011706004+24250+055600FM-15+0262OMAL V0201701N011812200019N0030001N1+02101+01401999999ADDGA1021+042009999GF102991999999999999999999MA1101591999999MW1071REMMET080OMAL 170600Z 17023KT 3000 BLSA FEW140 21/14 Q1016 RWY19 WIND 17022G28KT (SPECI);EQDQ01+000003PRSWM1Q02    003PRSWM1
0183412180999992000011707004+24250+055600FM-15+0262OMAL V0201701N012312200019N0020001N1+02301+01301999999ADDGA1021+036009999GA2021+075009999GF104991999999999999999999MA1101491999999MW1071REMMET057OMAL 170700Z 17024KT 2000 BLSA FEW120 SCT250 23/13 Q1015;EQDQ01+000003PRSWM1Q02    003PRSWM1
0166412180999992000011708004+24250+055600FM-15+0262OMAL V0201701N013410750019N0020001N1+02301+01201999999ADDGA1071+075009999GF107991999999999999999999MA1101491999999MW1071REMMET056OMAL 170800Z 17026KT 2000 BLSA BKN250 23/12 Q1015 SPECI;EQDQ01+000003PRSWM1Q02    003PRSWM1
0183412180999992000011709004+24250+055600FM-15+0262OMAL V0201701N010810750019N0022001N1+02401+01401999999ADDGA1021+030009999GA2071+075009999GF107991999999999999999999MA1101391999999MW1071REMMET057OMAL 170900Z 17021KT 2200 BLSA FEW100 BKN250 24/14 Q1014;EQDQ01+000003PRSWM1Q02    003PRSWM1
0205412180999992000011710004+24250+055600FM-15+0262OMAL V0201701N010812200019N0030001N1+02401+01301999999ADDGA1021+036009999GA2021+075009999GF104991999999999999999999MA1101191999999MW1071REMMET079OMAL 171000Z 17021KT 3000 BLSA SCT120 SCT250 24/13 Q1012 RWY19 WIND 17020G27KT;EQDQ01+000003PRSWM1Q02    003PRSWM1
0171412180999992000011711004+24250+055600FM-15+0262OMAL V0201801N009312200019N0035001N1+02501+01301999999ADDGA1021+033009999GF104991999999999999999999MA1101191999999MW1071OC101441REMMET053OMAL 171100Z 18018G28KT 3500 BLSA SCT110 25/13 Q1012;EQDQ01+000003PRSWM1Q02    003PRSWM1
0160412180999992000011712004+24250+055600FM-15+0262OMAL V0201701N010312200019N0045001N1+02501+01301999999ADDGA1021+033009999GF104991999999999999999999MA1101081999999MW1071REMMET050OMAL 171200Z 17020KT 4500 BLSA SCT110 25/13 Q1011;EQDQ01+000003PRSWM1Q02    003PRSWM1
0183412180999992000011713004+24250+055600FM-15+0262OMAL V0201601N011312200019N0045001N1+02501+01301999999ADDGA1021+036009999GA2021+075009999GF104991999999999999999999MA1101081999999MW1071REMMET057OMAL 171300Z 16022KT 4500 BLSA SCT120 SCT250 25/13 Q1011;EQDQ01+000003PRSWM1Q02    003PRSWM1
0155412180999992000011714004+24250+055600FM-15+0262OMAL V0201701N009312200019N9999999N1+02401+01201999999ADDGA1021+036009999GF104991999999999999999999MA1101081999999MW1001REMMET045OMAL 171400Z 17018KT 6000 SCT120 24/12 Q1011;EQDQ01+060002VODIS Q02+000000PRSWM2
0245412180999992000011715004+24250+055600SY-MT+026299999V0201801N00671220001AN0080001N1+02361+01171101151ADDGA1021+036009999GF102991021001008001031011MA1101191098111MD1999999-0281MW1001REMSYN086    AAXX  17154 41218 1/58/ 21813 10236 20117 39811 40115 70620 82031 333 59028 82362;MET045OMAL 171500Z 18013KT 8000 FEW120 24/12 Q1012;EQDQ01+000000PRSWM2
0091412180999992000011716004+24250+055600FM-15+0262OMAL V0201801N00571220001CN0099001N1+02301+01101999999ADDMA1101291999999MW1001REMMET039OMAL 171600Z 18011KT CAVOK 23/11 Q1013;EQDQ01+000000PRSWM2
0091412180999992000011717004+24250+055600FM-15+0262OMAL V0201701N00411220001CN0099001N1+02201+01101999999ADDMA1101391999999MW1001REMMET039OMAL 171700Z 17008KT CAVOK 22/11 Q1014;EQDQ01+000000PRSWM2
0091412180999992000011718004+24250+055600FM-15+0262OMAL V0201701N00461220001CN0099001N1+02101+01101999999ADDMA1101391999999MW1001REMMET039OMAL 171800Z 17009KT CAVOK 21/11 Q1014;EQDQ01+000000PRSWM2
0091412180999992000011719004+24250+055600FM-15+0262OMAL V0201701N00311220001CN0099001N1+02001+01101999999ADDMA1101391999999MW1001REMMET039OMAL 171900Z 17006KT CAVOK 20/11 Q1014;EQDQ01+000000PRSWM2
0091412180999992000011720004+24250+055600FM-15+0262OMAL V0201801N00461220001CN0099001N1+02001+01201999999ADDMA1101491999999MW1001REMMET039OMAL 172000Z 18009KT CAVOK 20/12 Q1015;EQDQ01+000000PRSWM2
0091412180999992000011721004+24250+055600FM-15+0262OMAL V0201801N00571220001CN0099001N1+01901+01301999999ADDMA1101491999999MW1001REMMET039OMAL 172100Z 18011KT CAVOK 19/13 Q1015;EQDQ01+000000PRSWM2
0091412180999992000011722004+24250+055600FM-15+0262OMAL V0201801N00671220001CN0099001N1+01901+01401999999ADDMA1101491999999MW1001REMMET039OMAL 172200Z 18013KT CAVOK 19/14 Q1015;EQDQ01+000000PRSWM2
0139412180999992000011723004+24250+055600FM-15+0262OMAL V0201701N006712200019N0112651N1+01801+01401999999ADDGA1021+007509999GF102991999999999999999999MA1101491999999MW1001REMMET045OMAL 172300Z 17013KT 9999 FEW025 18/14 Q1015;EQDQ01+000000PRSWM2
0139412180999992000011800004+24250+055600FM-15+0262OMAL V0201701N009312200019N0112651N1+01801+01401999999ADDGA1021+007509999GF102991999999999999999999MA1101391999999MW1001REMMET045OMAL 180000Z 17018KT 9999 FEW025 18/14 Q1014;EQDQ01+000000PRSWM2
0139412180999992000011801004+24250+055600FM-15+0262OMAL V0201701N008712200019N0112651N1+01801+01401999999ADDGA1021+007509999GF102991999999999999999999MA1101491999999MW1001REMMET045OMAL 180100Z 17017KT 9999 FEW025 18/14 Q1015;EQDQ01+000000PRSWM2
0091412180999992000011802004+24250+055600FM-15+0262OMAL V0201701N00621220001CN0099001N1+01701+01401999999ADDMA1101591999999MW1001REMMET039OMAL 180200Z 17012KT CAVOK 17/14 Q1016;EQDQ01+000000PRSWM2
0139412180999992000011803004+24250+055600FM-15+0262OMAL V0201701N006712200019N0112651N1+01701+01401999999ADDGA1021+006009999GF102991999999999999999999MA1101591999999MW1001REMMET045OMAL 180300Z 17013KT 9999 FEW020 17/14 Q1016;EQDQ01+000000PRSWM2
0162412180999992000011804004+24250+055600FM-15+0262OMAL V0201701N006212200019N0112651N1+01801+01401999999ADDGA1021+007509999GA2021+027009999GF104991999999999999999999MA1101801999999MW1001REMMET052OMAL 180400Z 17012KT 9999 FEW025 SCT090 18/14 Q1018;EQDQ01+000000PRSWM2
0139412180999992000011805004+24250+055600FM-15+0262OMAL V0201701N008212200019N0112651N1+02001+01501999999ADDGA1021+007509999GF102991999999999999999999MA1101901999999MW1001REMMET045OMAL 180500Z 17016KT 9999 FEW025 20/15 Q1019;EQDQ01+000000PRSWM2
0139412180999992000011806004+24250+055600FM-15+0262OMAL V0201801N008212200019N0090001N1+02201+01501999999ADDGA1021+007509999GF102991999999999999999999MA1102001999999MW1001REMMET045OMAL 180600Z 18016KT 9000 FEW025 22/15 Q1020;EQDQ01+000000PRSWM2
0162412180999992000011807004+24250+055600FM-15+0262OMAL V0201801N008712200019N0090001N1+02301+01501999999ADDGA1021+009009999GA2021+027009999GF104991999999999999999999MA1102001999999MW1001REMMET052OMAL 180700Z 18017KT 9000 SCT030 SCT090 23/15 Q1020;EQDQ01+000000PRSWM2
0158412180999992000011808004+24250+055600FM-15+0262OMAL V0201901N007712200019N0090001N1+02401+01501999999ADDGA1021+010509999GF104991999999999999999999MA1101901999999MW1001OC101341REMMET056OMAL 180800Z 19015G26KT 150V230 9000 SCT035 24/15 Q1019;EQDQ01+000000PRSWM2
0139412180999992000011809004+24250+055600FM-15+0262OMAL V0201801N005710120019N0112651N1+02401+01401999999ADDGA1071+012009999GF107991999999999999999999MA1101801999999MW1001REMMET045OMAL 180900Z 18011KT 9999 BKN040 24/14 Q1018;EQDQ01+000000PRSWM2
0147412180999992000011810004+24250+055600FM-15+0262OMAL V0201901N004112200019N0112651N1+02501+01401999999ADDGA1021+012009999GF104991999999999999999999MA1101591999999MW1001REMMET053OMAL 181000Z 19008KT 140V240 9999 SCT040 25/14 Q1016;EQDQ01+000000PRSWM2
0147412180999992000011811004+24250+055600FM-15+0262OMAL V0201901N003110135019N0112651N1+02501+01401999999ADDGA1071+013509999GF107991999999999999999999MA1101591999999MW1001REMMET053OMAL 181100Z 19006KT 120V250 9999 BKN045 25/14 Q1016;EQDQ01+000000PRSWM2
0139412180999992000011812004+24250+055600FM-15+0262OMAL V02099999999990135019N0112651N1+02601+01401999999ADDGA1071+013509999GF107991999999999999999999MA1101591999999MW1001REMMET045OMAL 181200Z VRB02KT 9999 BKN045 26/14 Q1016;EQDQ01+000000PRSWM2
0162412180999992000011813004+24250+055600FM-15+0262OMAL V02099999999992200019N0112651N1+02501+01301999999ADDGA1021+013509999GA2021+027009999GF104991999999999999999999MA1101591999999MW1001REMMET052OMAL 181300Z VRB03KT 9999 FEW045 SCT090 25/13 Q1016;EQDQ01+000000PRSWM2
0091412180999992000011814004+24250+055600FM-15+0262OMAL V0209999999999220001CN0099001N1+02401+01301999999ADDMA1101691999999MW1001REMMET039OMAL 181400Z VRB02KT CAVOK 24/13 Q1017;EQDQ01+000000PRSWM2
0091412180999992000011815004+24250+055600FM-15+0262OMAL V0200101N00261220001CN0099001N1+02401+01301999999ADDMA1101691999999MW1001REMMET039OMAL 181500Z 01005KT CAVOK 24/13 Q1017;EQDQ01+000000PRSWM2
0091412180999992000011816004+24250+055600FM-15+0262OMAL V0200401N00261220001CN0099001N1+02201+01301999999ADDMA1101801999999MW1001REMMET039OMAL 181600Z 04005KT CAVOK 22/13 Q1018;EQDQ01+000000PRSWM2
0091412180999992000011817004+24250+055600FM-15+0262OMAL V0200501N00311220001CN0099001N1+02101+01301999999ADDMA1101901999999MW1001REMMET039OMAL 181700Z 05006KT CAVOK 21/13 Q1019;EQDQ01+000000PRSWM2
0091412180999992000011818004+24250+055600FM-15+0262OMAL V0200901N00261220001CN0099001N1+02101+01301999999ADDMA1101901999999MW1001REMMET039OMAL 181800Z 09005KT CAVOK 21/13 Q1019;EQDQ01+000000PRSWM2
0091412180999992000011819004+24250+055600FM-15+0262OMAL V0200901N00411220001CN0099001N1+02101+01501999999ADDMA1101901999999MW1001REMMET039OMAL 181900Z 09008KT CAVOK 21/15 Q1019;EQDQ01+000000PRSWM2
0091412180999992000011820004+24250+055600FM-15+0262OMAL V0200901N00311220001CN0099001N1+02101+01501999999ADDMA1101901999999MW1001REMMET039OMAL 182000Z 09006KT CAVOK 21/15 Q1019;EQDQ01+000000PRSWM2
0091412180999992000011821004+24250+055600FM-15+0262OMAL V0201001N00411220001CN0099001N1+02001+01501999999ADDMA1101801999999MW1001REMMET039OMAL 182100Z 10008KT CAVOK 20/15 Q1018;EQDQ01+000000PRSWM2
0091412180999992000011822004+24250+055600FM-15+0262OMAL V0201001N00411220001CN0099001N1+02001+01501999999ADDMA1101801999999MW1001REMMET039OMAL 182200Z 10008KT CAVOK 20/15 Q1018;EQDQ01+000000PRSWM2
0091412180999992000011823004+24250+055600FM-15+0262OMAL V0201001N00311220001CN0099001N1+01901+01401999999ADDMA1101801999999MW1001REMMET039OMAL 182300Z 10006KT CAVOK 19/14 Q1018;EQDQ01+000000PRSWM2
0232412180999992000011900004+24250+055600SY-MT+026299999V0200901N00461220001AN0100001N1+01921+01401101721ADDAA199000091GF100991001001999999001001MA1101691098621MD1999999+0341MW1001REMSYN068    AAXX  19004 41218 32960 00909 10192 20140 39862 40172 333 58034;MET039OMAL 190000Z 09009KT CAVOK 19/14 Q1017;EQDQ01+000000PRSWM2Q02  00002PRCP99
0091412180999992000011901004+24250+055600FM-15+0262OMAL V0200901N00461220001CN0099001N1+01901+01401999999ADDMA1101691999999MW1001REMMET039OMAL 190100Z 09009KT CAVOK 19/14 Q1017;EQDQ01+000000PRSWM2
0091412180999992000011902004+24250+055600FM-15+0262OMAL V0201601N00721220001CN0099001N1+01901+01401999999ADDMA1101801999999MW1001REMMET039OMAL 190200Z 16014KT CAVOK 19/14 Q1018;EQDQ01+000000PRSWM2
0139412180999992000011903004+24250+055600FM-15+0262OMAL V0201701N006712200019N0112651N1+01801+01401999999ADDGA1021+010509999GF102991999999999999999999MA1101901999999MW1001REMMET045OMAL 190300Z 17013KT 9999 FEW035 18/14 Q1019;EQDQ01+000000PRSWM2
0139412180999992000011904004+24250+055600FM-15+0262OMAL V0201701N007712200019N0112651N1+01801+01501999999ADDGA1021+012009999GF102991999999999999999999MA1102001999999MW1001REMMET045OMAL 190400Z 17015KT 9999 FEW040 18/15 Q1020;EQDQ01+000000PRSWM2
0139412180999992000011905004+24250+055600FM-15+0262OMAL V0201701N007712200019N0112651N1+01901+01601999999ADDGA1021+012009999GF102991999999999999999999MA1102101999999MW1001REMMET045OMAL 190500Z 17015KT 9999 FEW040 19/16 Q1021;EQDQ01+000000PRSWM2
0155412180999992000011907004+24250+055600FM-15+0262OMAL V0201701N009312200019N9999999N1+02301+01601999999ADDGA1021+009009999GF104991999999999999999999MA1102101999999MW1001REMMET045OMAL 190700Z 17018KT 6000 SCT030 23/16 Q1021;EQDQ01+060002VODIS Q02+000000PRSWM2
0160412180999992000011908004+24250+055600FM-15+0262OMAL V0201601N009812200019N0050001N1+02401+01601999999ADDGA1021+009009999GF104991999999999999999999MA1101901999999MW1071REMMET050OMAL 190800Z 16019KT 5000 BLSA SCT030 24/16 Q1019;EQDQ01+000003PRSWM1Q02    003PRSWM1
0160412180999992000011909004+24250+055600FM-15+0262OMAL V0201601N009312200019N0045001N1+02501+01501999999ADDGA1021+010509999GF104991999999999999999999MA1101801999999MW1071REMMET050OMAL 190900Z 16018KT 4500 BLSA SCT035 25/15 Q1018;EQDQ01+000003PRSWM1Q02    003PRSWM1
0160412180999992000011910004+24250+055600FM-15+0262OMAL V0201901N009312200019N0045001N1+02601+01501999999ADDGA1021+012009999GF104991999999999999999999MA1101691999999MW1071REMMET050OMAL 191000Z 19018KT 4500 BLSA SCT040 26/15 Q1017;EQDQ01+000003PRSWM1Q02    003PRSWM1
0164412180999992000011911004+24250+055600FM-15+0262OMAL V0201901N006712200019N0060001N1+02601+01501999999ADDGA1021+012009999GF102991999999999999999999MA1101691999999MW1061REMMET054OMAL 191100Z 19013KT 6000 DU FEW040 26/15 Q1017 SPECI;EQDQ01+000003PRSWM1Q02    003PRSWM1
0273412180999992000011912004+24250+055600SY-MT+026299999V0202001N00671220001AN0070001N1+02671+01481101551ADDAA199000091AY101061AY201061GF100991001001999999001001MA1101591098531MD1999999+0041MW1061REMSYN074    AAXX  19124 41218 31957 02013 10267 20148 39853 40155 70600 333 58004;MET042OMAL 191200Z 20013KT 7000 SKC 27/15 Q1016;EQDQ01+000000PRSWM2Q02  00002PRCP99Q03    003PRSWM1
0155412180999992000011913004+24250+055600FM-15+0262OMAL V0201901N005112200019N9999999N1+02601+01501999999ADDGA1021+012009999GF102991999999999999999999MA1101691999999MW1001REMMET045OMAL 191300Z 19010KT 7000 FEW040 26/15 Q1017;EQDQ01+070002VODIS Q02+000000PRSWM2
