0147413960999992000010109004+15980+048950FM-12+070099999V0209999C000012200019N0200001N1+02441+00571101871ADDGA1001+999999999GF100991001001999999001001MA1999999094281MD1999999-0141REMSYN064AAXX  01094 41396 42970 00000 10244 20057 39428 40187 333 59014;
0177413960999992000010112004+15980+048950FM-12+070099999V0200201N002612200019N0200001N1+02701+00661101551ADDAA106000091GA1001+999999999GF100991001001999999001001MA1999999093981MD1999999-0301REMSYN064AAXX  01124 41396 32970 00205 10270 20066 39398 40155 333 59030;EQDQ01  00002PRCP06
0166413960999992000010118004+15980+048950FM-12+070099999V0209999C000012200019N0200001N1+01751+00441101851ADDGA1001+999999999GF100991001001999999001001KA1120M+02751MA1999999094261MD1999999-0061REMSYN070AAXX  01184 41396 42970 00000 10175 20044 39426 40185 333 10275 59006;
0147413960999992000010206004+15980+048950FM-12+070099999V0209999C000012200019N0250001N1+02421+00351101891ADDGA1001+999999999GF100991001001999999001001MA1999999094301MD1999999+0021REMSYN064AAXX  02064 41396 42975 00000 10242 20035 39430 40189 333 58002;
0166413960999992000010218004+15980+048950FM-12+070099999V0209999C000012200019N0250001N1+01341+00351101821ADDGA1001+999999999GF100991001001999999001001KA1120M+02741MA1999999094231MD1999999-0031REMSYN070AAXX  02184 41396 42975 00000 10134 20035 39423 40182 333 10274 59003;
0166413960999992000010306004+15980+048950FM-12+070099999V0209999C000012200019N0250001N1+01651+00021102061ADDGA1001+999999999GF100991001001999999001001KA1120N+00571MA1999999094461MD1999999-0021REMSYN070AAXX  03064 41396 42975 00000 10165 20002 39446 40206 333 20057 59002;
0177413960999992000010312004+15980+048950FM-12+070099999V0209999C000012200019N0100001N1+02701-00121101571ADDAA106000091GA1001+999999999GF100991001001999999001001MA1999999093981MD1999999-0021REMSYN064AAXX  03124 41396 34297 00000 10270 21012 39398 40157 333 59002;EQDQ01  00002PRCP06
0166413960999992000010318004+15980+048950FM-12+070099999V0209999C000012200019N0200001N1+01341+00431101721ADDGA1001+999999999GF100991001001999999001001KA1120M+02751MA1999999094131MD1999999-0101REMSYN070AAXX  03184 41396 42970 00000 10134 20043 39413 40172 333 10275 59010;
0177413960999992000010400004+15980+048950FM-12+070099999V0209999C000012200019N0200001N1+00841+00001101721ADDAA106000091GA1001+999999999GF100991001001999999001001MA1999999094131MD1999999+0001REMSYN064AAXX  04004 41396 32970 00000 10084 20000 39413 40172 333 58000;EQDQ01  00002PRCP06
0147413960999992000010421004+15980+048950FM-12+070099999V0209999C000012200019N0200001N1+01051+00371101691ADDGA1001+999999999GF100991001001999999001001MA1999999094081MD1999999-0101REMSYN064AAXX  04214 41396 42970 00000 10105 20037 39408 40169 333 59010;
0147413960999992000010518004+15980+048950FM-12+070099999V0209999C000012200019N0250001N1+01951+00791101671ADDGA1001+999999999GF100991001001999999001001MA1999999094071MD1999999+0031REMSYN064AAXX  05184 41396 42975 00000 10195 20079 39407 40167 333 58003;
0177413960999992000010600004+15980+048950FM-12+070099999V0209999C000012200019N0250001N1+01251+01061101691ADDAA106000091GA1001+999999999GF100991001001999999001001MA1999999094081MD1999999-0011REMSYN064AAXX  06004 41396 32975 00000 10125 20106 39408 40169 333 59001;EQDQ01  00002PRCP06
0147413960999992000010621004+15980+048950FM-12+070099999V0209999C000012200019N0200001N1+01701+00781101621ADDGA1001+999999999GF100991001001999999001001MA1999999094031MD1999999-0071REMSYN064AAXX  06214 41396 42970 00000 10170 20078 39403 40162 333 59007;
0177413960999992000010712004+15980+048950FM-12+070099999V0209999C000012200019N0200001N1+02741+01171101481ADDAA106000091GA1001+999999999GF100991001001999999001001MA1999999093891MD1999999+0021REMSYN064AAXX  07124 41396 32970 00000 10274 20117 39389 40148 333 58002;EQDQ01  00002PRCP06
0147413960999992000010715004+15980+048950FM-12+070099999V0209999C000012200019N0200001N1+02351+01221101551ADDGA1001+999999999GF100991001001999999001001MA1999999093951MD1999999+0051REMSYN064AAXX  07154 41396 42970 00000 10235 20122 39395 40155 333 58005;
0151413960999992000011509004+15980+048950FM-12+070099999V0200201N002612200019N0250001N1+02471+01111102041ADDGA1001+999999999GF100991001001999999001001MA1999999094451MD1999999+0151REMSYN068    AAXX  15094 41396 42975 00205 10247 20111 39445 40204 333 58015;
0187413960999992000011712004+15980+048950FM-12+070099999V0201601N004112200019N0200001N1+99999+99999101071ADDAA199000091GA1011+060009019GF101991001001999999001011MA1999999093201MD1999999-0361REMSYN074    AAXX  17124 41396 32970 11608 20086 3932/ 40107 80001 333 59036 81070;EQDQ01  00002PRCP99
0137413960999992000011909004+15980+048950FM-12+070099999V0209999C000012200019N0150001N1+02531+01591101371ADDGA1001+999999999GF100991001001999999001001MA1999999094401REMSYN068    AAXX  19094 41396 42965 00000 10253 20159 39440 40137 333 5803/;
0181413960999992000011912004+15980+048950FM-12+070099999V0200601N003612200019N0200001N1+02911+01521101661ADDAA199000091GA1001+999999999GF100991001001999999001001MA1999999094111MD1999999+0271REMSYN068    AAXX  19124 41396 32970 00607 10291 20152 39411 40166 333 58027;EQDQ01  00002PRCP99
0166413960999992000012006004+15980+048950FM-12+070099999V0209999C000012200019N0250001N1+02201+01441102111ADDGA1001+999999999GF100991001001999999001001KA1120N+01051MA1999999094521MD1999999-0101REMSYN070AAXX  20064 41396 42975 00000 10220 20144 39452 40211 333 20105 59010;
0147413960999992000012209004+15980+048950FM-12+070099999V0209999C000012200019N0200001N1+02901+01321101831ADDGA1001+999999999GF100991001001999999001001MA1999999094261MD1999999+0031REMSYN064AAXX  22094 41396 42970 00000 10290 20132 39426 40183 333 58003;
0177413960999992000012212004+15980+048950FM-12+070099999V0209999C000012200019N0200001N1+03351+01221101481ADDAA199000091GA1001+999999999GF100991001001999999001001MA1999999093941MD1999999+0011REMSYN064AAXX  22124 41396 32970 00000 10335 20122 39394 40148 333 58001;EQDQ01  00002PRCP99
0166413960999992000012306004+15980+048950FM-12+070099999V0209999C000012200019N0250001N1+02001+00861102131ADDGA1001+999999999GF100991001001999999001001KA1120N+00801MA1999999094521MD1999999+0111REMSYN070AAXX  23064 41396 42975 00000 10200 20086 39452 40213 333 20080 58011;
0147413960999992000012309004+15980+048950FM-12+070099999V0209999C000012200019N0250001N1+02801+00631101861ADDGA1001+999999999GF100991001001999999001001MA1999999094291MD1999999+0031REMSYN064AAXX  23094 41396 42975 00000 10280 20063 39429 40186 333 58003;
0166413960999992000012406004+15980+048950FM-12+070099999V0209999C000012200019N0150001N1+01901+00731102281ADDGA1001+999999999GF100991001001999999001001KA1120N+00701MA1999999094651MD1999999+0131REMSYN070AAXX  24064 41396 42965 00000 10190 20073 39465 40228 333 20070 58013;
0147413960999992000012409004+15980+048950FM-12+070099999V0209999C000012200019N0250001N1+02751-00491102011ADDGA1001+999999999GF100991001001999999001001MA1999999094441MD1999999+0151REMSYN064AAXX  24094 41396 42975 00000 10275 21049 39444 40201 333 58015;
0177413960999992000012412004+15980+048950FM-12+070099999V0209999C000012200019N0250001N1+03121-00541101741ADDAA199000091GA1001+999999999GF100991001001999999001001MA1999999094191MD1999999+0181REMSYN064AAXX  24124 41396 32975 00000 10312 21054 39419 40174 333 58018;EQDQ01  00002PRCP99
0147413960999992000012415004+15980+048950FM-12+070099999V0209999C000012200019N0200001N1+02701+00211101811ADDGA1001+999999999GF100991001001999999001001MA1999999094261MD1999999+0141REMSYN064AAXX  24154 41396 42970 00000 10270 20021 39426 40181 333 58014;
0166413960999992000012418004+15980+048950FM-12+070099999V0209999C000012200019N0200001N1+01711-00261102041ADDGA1001+999999999GF100991001001999999001001KA1120M+03201MA1999999094471MD1999999+0101REMSYN070AAXX  24184 41396 42970 00000 10171 21026 39447 40204 333 10320 58010;
0147413960999992000012421004+15980+048950FM-12+070099999V0200601N004612200019N0150001N1+01111+00191102131ADDGA1001+999999999GF100991001001999999001001MA1999999094651MD1999999+0291REMSYN064AAXX  24214 41396 42965 00609 10111 20019 39465 40213 333 58029;
0153413960999992000012509004+15980+048950FM-12+070099999V0209999C000012200019N0090001N1+02621+00401102311ADDGA1001+999999999GF100991001001999999001001MA1999999094751MD1999999+0311REMSYN070AAXX  25094 41396 41959 00000 10262 20040 39475 40231 7/600 333 58031;
0206413960999992000012606004+15980+048950FM-12+070099999V0209999C000012200019N0080001N1+01901+00451102411ADDAY101061AY201061GA1031+060009019GF103991001001999999001011KA1120N+00951MA1999999094801MD1999999-0111MW1061REMSYN088AAXX  26064 41396 41958 30000 10190 20045 39480 40241 70600 80001 333 20095 59011 83070;
0138413960999992000012615004+15980+048950FM-12+070099999V0209999C000010600019N0100001N1+02541+00161101921ADDGA1051+060009019GF105991001001999999001011MD1999999-0121REMSYN070AAXX  26154 41396 42960 50000 10254 20016 40192 80001 333 59012 85070;
0166413960999992000012706004+15980+048950FM-12+070099999V0209999C000012200019N0150001N1+01951+00671102231ADDGA1001+999999999GF100991001001999999001001KA1120N+00761MA1999999094581MD1999999-0221REMSYN070AAXX  27064 41396 42965 00000 10195 20067 39458 40223 333 20076 59022;
0147413960999992000012709004+15980+048950FM-12+070099999V0200801N002112200019N0150001N1+02751+00611101821ADDGA1001+999999999GF100991001001999999001001MA1999999094251MD1999999-0351REMSYN064AAXX  27094 41396 42965 00804 10275 20061 39425 40182 333 59035;
0177413960999992000012712004+15980+048950FM-12+070099999V0209999C000012200019N0200001N1+03101-00111101531ADDAA199000091GA1001+999999999GF100991001001999999001001MA1999999093961MD1999999-0371REMSYN064AAXX  27124 41396 32970 00000 10310 21011 39396 40153 333 59037;EQDQ01  00002PRCP99
0147413960999992000012715004+15980+048950FM-12+070099999V0209999C000012200019N0200001N1+02751+00381101581ADDGA1001+999999999GF100991001001999999001001MA1999999094011MD1999999-0341REMSYN064AAXX  27154 41396 42970 00000 10275 20038 39401 40158 333 59034;
0153413960999992000012809004+15980+048950FM-12+070099999V0201701N002112200019N0200001N1+02821+00801101591ADDGA1011+060009019GF101991999999999999999999MA1999999094281MD1999999-0231REMSYN070AAXX  28094 41396 42970 11704 10282 2008/ 39428 40159 333 59023 81070;
0189413960999992000012812004+15980+048950FM-12+070099999V0201801N002612200019N0200001N1+03151+00551101321ADDAA199000091GA1011+060009019GF101991999001999999001011MA1999999093751MD1999999-0211REMSYN076AAXX  28124 41396 32970 11805 10315 20055 39375 40132 8/001 333 59021 81070;EQDQ01  00002PRCP99
0166413960999992000012906004+15980+048950FM-12+070099999V0209999C000012200019N0200001N1+01951+01131101961ADDGA1001+999999999GF100991001001999999001001KA1120N+01051MA1999999094331MD1999999+0051REMSYN070AAXX  29064 41396 42970 00000 10195 20113 39433 40196 333 20105 58005;
0159413960999992000012915004+15980+048950FM-12+070099999V0209999C000012200019N0200001N1+02751+01091101581ADDGA1021+060009019GF102991001001999999001011MA1999999094031MD1999999+0221REMSYN076AAXX  29154 41396 42970 20000 10275 20109 39403 40158 80001 333 58022 82070;
0194413960999992000013018004+15980+048950FM-12+070099999V0200101N005112200019N0050001N1+01941+01441102521ADDAY101061AY201061GA1001+999999999GF100991001001999999001001KA1120M+02641MA1999999094951MD1999999+0641MW1061REMSYN076AAXX  30184 41396 41950 00110 10194 20144 39495 40252 70600 333 10264 58064;
0166413960999992000013118004+15980+048950FM-12+070099999V0200901N001512200019N0150001N1+01781+00881102321ADDGA1001+999999999GF100991001001999999001001KA1120M+02601MA1999999094751MD1999999-0201REMSYN070AAXX  31184 41396 42965 00903 10178 20088 39475 40232 333 10260 59020;
0147413960999992000020109004+15980+048950FM-12+070099999V0209999C000012200019N0150001N1+02451+01011102181ADDGA1001+999999999GF100991001001999999001001MA1999999094591MD1999999-0371REMSYN064AAXX  01094 41396 42965 00000 10245 20101 39459 40218 333 59037;
0166413960999992000020206004+15980+048950FM-12+070099999V0209999C000012200019N0100001N1+01951+00921102101ADDGA1001+999999999GF100991001001999999001001KA1120N+00801MA1999999094461MD1999999-0431REMSYN070AAXX  02064 41396 42960 00000 10195 20092 39446 40210 333 20080 59043;
0166413960999992000020218004+15980+048950FM-12+070099999V0209999C000012200019N0150001N1+01751+00821101731ADDGA1001+999999999GF100991001001999999001001KA1120M+03001MA1999999094161MD1999999-0181REMSYN070AAXX  02184 41396 42965 00000 10175 20082 39416 40173 333 10300 59018;
0178413960999992000020306004+15980+048950FM-12+070099999V0209999C000012200019N0150001N1+01971+00891102201ADDGA1041+060009019GF104991001001999999001011KA1120N+00791MA1999999094571MD1999999+0111REMSYN082AAXX  03064 41396 42965 40000 10197 20089 39457 40220 80001 333 20079 58011 84070;
0159413960999992000020309004+15980+048950FM-12+070099999V0209999C000012200019N0150001N1+02801+01411101961ADDGA1041+060009019GF104991001001999999001011MA1999999094391MD1999999+0091REMSYN076AAXX  03094 41396 42965 40000 10280 20141 39439 40196 80001 333 58009 84070;
0189413960999992000020312004+15980+048950FM-12+070099999V0200101N003610600019N0150001N1+03081+01391101741ADDAA199000091GA1051+060009019GF105991001001999999001011MA1999999094171MD1999999+0181REMSYN076AAXX  03124 41396 32965 50107 10308 20139 39417 40174 80001 333 58018 85070;EQDQ01  00002PRCP99
0159413960999992000020315004+15980+048950FM-12+070099999V0209999C000010600019N0150001N1+02601+01221101761ADDGA1051+060009019GF105991001001999999001011MA1999999094191MD1999999+0211REMSYN076AAXX  03154 41396 42965 50000 10260 20122 39419 40176 80001 333 58021 85070;
0172413960999992000020406004+15980+048950FM-12+070099999V0209999C000012200019N0150001N1+01951+00981102321ADDGA1011+060009019GF101991999999999999999999KA1120N+00991MA1999999094741MD1999999+0171REMSYN076AAXX  04064 41396 42965 10000 10195 20098 39474 40232 333 20099 58017 81070;
0178413960999992000020506004+15980+048950FM-12+070099999V0209999C000012200019N0200001N1+02041+01021102071ADDGA1011+002109029GF101991001001999999001011KA1120N+00951MA1999999094501MD1999999-0241REMSYN082AAXX  05064 41396 42970 10000 10204 20102 39450 40207 80001 333 20095 59024 81807;
0177413960999992000020512004+15980+048950FM-12+070099999V0200301N002612200019N0200001N1+03101+01691101541ADDAA199000091GA1001+999999999GF100991001001999999001001MA1999999093991MD1999999-0221REMSYN064AAXX  05124 41396 32970 00305 10310 20169 39399 40154 333 59022;EQDQ01  00002PRCP99
0147413960999992000020515004+15980+048950FM-12+070099999V0209999C000012200019N0200001N1+02651+01491101581ADDGA1001+999999999GF100991001001999999001001MA1999999094011MD1999999-0201REMSYN064AAXX  05154 41396 42970 00000 10265 20149 39401 40158 333 59020;
0166413960999992000020518004+15980+048950FM-12+070099999V0209999C000012200019N0200001N1+02151+01171101681ADDGA1001+999999999GF100991001001999999001001KA1120M+03131MA1999999094111MD1999999-0241REMSYN070AAXX  05184 41396 42970 00000 10215 20117 39411 40168 333 10313 59024;
0166413960999992000020606004+15980+048950FM-12+070099999V0209999C000012200019N0150001N1+02151+01621101911ADDGA1001+999999999GF100991001001999999001001KA1120N+01201MA1999999094341MD1999999-0161REMSYN070AAXX  06064 41396 42965 00000 10215 20162 39434 40191 333 20120 59016;
0147413960999992000020609004+15980+048950FM-12+070099999V0209999C000012200019N0150001N1+02931+01601101651ADDGA1001+999999999GF100991001001999999001001MA1999999094101MD1999999-0211REMSYN064AAXX  06094 41396 42965 00000 10293 20160 39410 40165 333 59021;
0124413960999992000020618004+15980+048950FM-12+070099999V0209999C000019999999N0150001N1+02551+01491101601ADDKA1120M+03501MA1999999094051MD1999999-0061REMSYN070AAXX  06184 41396 42965 /0000 10255 20149 39405 40160 333 10350 59006;
0147413960999992000020821004+15980+048950FM-12+070099999V0209999C000012200019N0200001N1+02031+01541101511ADDGA1001+999999999GF100991001001999999001001MA1999999093981MD1999999+0081REMSYN064AAXX  08214 41396 42970 00000 10203 20154 39398 40151 333 58008;
0177413960999992000020912004+15980+048950FM-12+070099999V0202401N002612200019N0120001N1+03521+01551101331ADDAA199000091GA1001+999999999GF100991001001999999001001MA1999999093101MD1999999+0051REMSYN064AAXX  09124 41396 32962 02405 10352 20155 3931/ 40133 333 58005;EQDQ01  00002PRCP99
0194413960999992000021006004+15980+048950FM-12+070099999V0200301N002612200019N0030001N1+01851+00701102431ADDAY101061AY201061GA1001+999999999GF100991001001999999001001KA1120N+01481MA1999999094841MD1999999+0561MW1061REMSYN076AAXX  10064 41396 41930 00305 10185 20070 39484 40243 70600 333 20148 58056;
0175413960999992000021009004+15980+048950FM-12+070099999V0209999C000012200019N0035001N1+02401+01061102171ADDAY101031AY201031GA1001+999999999GF100991001001999999001001MA1999999094621MD1999999+0521MW1061REMSYN070AAXX  10094 41396 41935 00000 10240 20106 39462 40217 70600 333 58052;
0159413960999992000021012004+15980+048950FM-12+070099999V0201901N020612200019N0040001N1+02751+01361101871ADDAY101061AY201061GF103991999999002501999999MA1999999094331MD1999999+0521MW1061REMSYN070AAXX  10124 41396 41396 31940 10275 20136 39433 40187 70600 333 58052;
0205413960999992000021112004+15980+048950FM-12+070099999V0209999C000012200019N0070001N1+02701+01141101921ADDAA199000091AY141061AY241061GA1001+999999999GF100991001001999999001001MA1999999094371MD1999999+0041MW1061REMSYN070AAXX  11124 41396 31957 00000 10270 20114 39437 40192 70644 333 58004;EQDQ01  00002PRCP99
0091413960999992000021115004+15980+048950FM-12+070099999V0209999C000019999999N0100001N1+02501+01131101981ADDMA1999999094431REMSYN064AAXX  11154 41396 42960 /0000 10250 20113 39443 40198 333 58/01;
0177413960999992000021312004+15980+048950FM-12+070099999V0209999C000012200019N0200001N1+02941+01161101471ADDAA199000091GA1001+999999999GF100991001001999999001001MA1999999093921MD1999999-0161REMSYN064AAXX  13124 41396 32970 00000 10294 20116 39392 40147 333 59016;EQDQ01  00002PRCP99
0147413960999992000021406004+15980+048950FM-12+070099999V0209999C000012200019N0200001N1+02041+00861102031ADDGA1001+999999999GF100991001001999999001001MA1999999054421MD1999999-0121REMSYN064AAXX  14064 41396 42970 00000 10204 20086 35442 40203 333 59012;
0193413960999992000021412004+15980+048950FM-12+070099999V0200601N002612200019N0200001N1+03261+01581101381ADDAA199000091GA1001+999999999GF100991001001999999001001MA1999999093832MD1999999-0091REMSYN064AAXX  14124 41396 32970 00605 10326 20158 39383 40138 333 59009;EQDQ01+093833APOSP Q02  00002PRCP99
0147413960999992000021415004+15980+048950FM-12+070099999V0200901N002612200019N0200001N1+02881+01441101441ADDGA1001+999999999GF100991001001999999001001MA1999999093891MD1999999-0011REMSYN064AAXX  14154 41396 42970 00905 10288 20144 39389 40144 333 59001;
0166413960999992000021418004+15980+048950FM-12+070099999V0209999C000012200019N0200001N1+02241+01091101641ADDGA1001+999999999GF100991001001999999001001KA1120M+03311MA1999999094091MD1999999-0091REMSYN070AAXX  14184 41396 42970 00000 10224 20109 39409 40164 333 10331 59009;
0177413960999992000021512004+15980+048950FM-12+070099999V0200901N002612200019N0150001N1+03151+01551101561ADDAA199000091GA1001+999999999GF100991001001999999001001MA1999999094011MD1999999+0161REMSYN064AAXX  15124 41396 32965 00905 10315 20155 39401 40156 333 58016;EQDQ01  00002PRCP99
0166413960999992000021518004+15980+048950FM-12+070099999V0209999C000012200019N0150001N1+02291+01261101771ADDGA1001+999999999GF100991001001999999001001KA1120M+03201MA1999999094221MD1999999+0131REMSYN070AAXX  15184 41396 42965 00000 10229 20126 39422 40177 333 10320 58013;
0166413960999992000021606004+15980+048950FM-12+070099999V0209999C000012200019N0150001N1+02301+01611102131ADDGA1001+999999999GF100991001001999999001001KA1120N+01441MA1999999094551MD1999999+0161REMSYN070AAXX  16064 41396 42965 00000 1023/ 20161 39455 40213 333 20144 58016;
0147413960999992000021609004+15980+048950FM-12+070099999V0209999C000012200019N0150001N1+02901+01621101911ADDGA1001+999999999GF100991001001999999001001MA1999999094381MD1999999+0091REMSYN064AAXX  16094 41396 42965 00000 10290 20162 39438 40191 333 58009;
0177413960999992000021612004+15980+048950FM-12+070099999V0200501N002612200019N0150001N1+03201+01411101591ADDAA199000091GA1001+999999999GF100991001001999999001001MA1999999094071MD1999999+0061REMSYN064AAXX  16124 41396 32965 00505 10320 20141 39407 40159 333 58006;EQDQ01  00002PRCP99
0172413960999992000021706004+15980+048950FM-12+070099999V0209999C000012200019N0200001N1+02141+01831102181ADDGA1021+060009019GF102991999999999999999999KA1120N+01181MA1999999094461MD1999999-0091REMSYN076AAXX  17064 41396 42970 20000 10214 20183 39446 40218 333 20118 59009 82070;
0147413960999992000021709004+15980+048950FM-12+070099999V0209999C000012200019N0200001N1+03031+01601101811ADDGA1001+999999999GF100991001001999999001001MA1999999094281MD1999999-0101REMSYN064AAXX  17094 41396 42970 00000 10303 20160 39428 40181 333 59010;
0177413960999992000021712004+15980+048950FM-12+070099999V0200901N002612200019N0200001N1+03301+01701101521ADDAA199000091GA1001+999999999GF100991001001999999001001MA1999999094011MD1999999-0061REMSYN064AAXX  17124 41396 32970 00905 1033/ 20170 39401 40152 333 59006;EQDQ01  00002PRCP99
0147413960999992000021721004+15980+048950FM-12+070099999V0209999C000012200019N0200001N1+01721+00851101741ADDGA1001+999999999GF100991001001999999001001MA1999999094191MD1999999-0071REMSYN064AAXX  17214 41396 42970 00000 10172 20085 39419 40174 333 59007;
0166413960999992000021806004+15980+048950FM-12+070099999V0209999C000012200019N0200001N1+02381+01231102051ADDGA1001+999999999GF100991001001999999001001KA1120N+01261MA1999999094431MD1999999+0021REMSYN070AAXX  18064 41396 42970 00000 10238 20123 39443 40205 333 20126 58002;
0147413960999992000021809004+15980+048950FM-12+070099999V0201201N002612200019N0200001N1+03121+01621101841ADDGA1001+999999999GF100991001001999999001001MA1999999094301MD1999999+0021REMSYN064AAXX  18094 41396 42970 01205 10312 20162 39430 40184 333 58002;
0158413960999992000021812004+15980+048950FM-12+070099999V0200901N003612200019N0200001N1+99999+99999999999ADDAA199000091GF101991999999999999999999MD1999999+0031REMSYN076AAXX  18124 41396 32970 10907 1033= 20172 39404 40157 80001 333 58003 81070;EQDQ01  00002PRCP99
0159413960999992000021815004+15980+048950FM-12+070099999V0209999C000012200019N0200001N1+03081+01611101591ADDGA1011+060009019GF101991001001999999001011MA1999999094061MD1999999+0061REMSYN076AAXX  18154 41396 42970 10000 10308 20161 39406 40159 80001 333 58006 81070;
0166413960999992000021818004+15980+048950FM-12+070099999V0209999C000012200019N0200001N1+02131+01191101731ADDGA1001+999999999GF100991001001999999001001KA1120M+03401MA1999999094191MD1999999+0031REMSYN070AAXX  18184 41396 42970 00000 10213 20119 39419 40173 333 10340 58003;
0178413960999992000021906004+15980+048950FM-12+070099999V0209999C000012200019N0200001N1+02401+01171102091ADDGA1011+060009019GF101991001001999999001011KA1120N+01361MA1999999094521MD1999999+0041REMSYN082AAXX  19064 41396 42970 10000 10240 20117 39452 40209 80001 333 20136 58004 81070;
0147413960999992000021915004+15980+048950FM-12+070099999V0209999C000012200019N0200001N1+03151+01331101571ADDGA1001+999999999GF100991001001999999001001MA1999999094061MD1999999+0001REMSYN064AAXX  19154 41396 42970 00000 10315 20133 39406 40157 333 58000;
0166413960999992000022106004+15980+048950FM-12+070099999V0209999C000012200019N0200001N1+02251+00941101951ADDGA1001+999999999GF100991001001999999001001KA1120N+01141MA1999999094381MD1999999-0111REMSYN070AAXX  21064 41396 42970 00000 10225 20094 39438 40195 333 20114 59011;
0147413960999992000022109004+15980+048950FM-12+070099999V0209999C000012200019N9999999N1+03071+01401101711ADDGA1001+999999999GF100991001001999999001001MA1999999094181MD1999999-0101REMSYN064AAXX  21094 41396 2/70/ 00000 10307 20140 39418 40171 333 59010;
0177413960999992000022112004+15980+048950FM-12+070099999V0209999C000012200019N0200001N1+03501+00321101371ADDAA199000091GA1001+999999999GF100991001001999999001001MA1999999093851MD1999999-0111REMSYN064AAXX  21124 41396 32970 00000 10350 20032 39385 40137 333 59011;EQDQ01  00002PRCP99
0147413960999992000022115004+15980+048950FM-12+070099999V0209999C000012200019N0200001N1+03031+00401101361ADDGA1001+999999999GF100991001001999999001001MA1999999093841MD1999999-0101REMSYN064AAXX  21154 41396 42970 00000 10303 20040 39384 40136 333 59010;
0146413960999992000022118004+15980+048950FM-12+070099999V0201001N002612200019N0150001N1+02431+00331999999ADDGA1001+999999999GF100991001001999999001001KA1120M+03521MA1999999094031REMSYN064AAXX  21184 41396 42965 01005 10243 20033 39403 333 10352 99004;
0178413960999992000022206004+15980+048950FM-12+070099999V0209999C000010600019N0150001N1+02401+00501101811ADDGA1051+060009019GF105991001001999999001011KA1120N+01351MA1999999094241MD1999999-0141REMSYN082AAXX  22064 41396 42965 50000 10240 20050 39424 40181 80001 333 20135 59014 85070;
0172413960999992000022209004+15980+048950FM-12+070099999V0202901N999992200019N0150001N1+99999+99999101611ADDGA1021+060009019GF104991001001999999001011MA1999999094081MD1999999-0101REMSYN070AAXX  22094 41396 42965 42965 2000/ 39408 40161 80001 333 59010 82070;EQDQ01+003343WOSPD 
0168413960999992000022212004+15980+048950FM-12+070099999V0209999C000012200019N0150001N1+03301+00551101301ADDAA199000091GA1011+060009019GF101991001001999999001011MD1999999-0071REMSYN070AAXX  22124 41396 32965 10000 10330 20055 40130 80001 333 59007 81070;EQDQ01  00002PRCP99
0159413960999992000022215004+15980+048950FM-12+070099999V0200601N002612200019N0150001N1+02951+00251101301ADDGA1011+060009019GF101991001001999999001011MA1999999093781MD1999999-0061REMSYN076AAXX  22154 41396 42965 10605 10295 20025 39378 40130 80001 333 59006 81070;
0147413960999992000022309004+15980+048950FM-12+070099999V0209999C000012200019N0150001N1+03091+01271101571ADDGA1001+999999999GF100991001001999999001001MA1999999094061MD1999999-0021REMSYN064AAXX  23094 41396 42965 00000 10309 20127 39406 40157 333 59002;
0177413960999992000022312004+15980+048950FM-12+070099999V0201001N002612200019N0200001N1+03361+01001101231ADDAA199000091GA1001+999999999GF100991001001999999001001MA1999999093721MD1999999-0061REMSYN064AAXX  23124 41396 32970 01005 10336 20100 39372 40123 333 59006;EQDQ01  00002PRCP99
0172413960999992000022315004+15980+048950FM-12+070099999V0209999C000012200019N0200001N1+99999+99999101221ADDGA1011+002109029GF101991001001999999001011MA1999999053712MD1999999-0071REMSYN070AAXX  23154 41396 42970 10000 20098 35371 40122 80001 333 59007 81807;EQDQ01+053713APOSP 
0166413960999992000022406004+15980+048950FM-12+070099999V0209999C000012200019N0150001N1+02271+01701101931ADDGA1001+999999999GF100991001001999999001001KA1120N+01501MA1999999094391MD1999999+0201REMSYN070AAXX  24064 41396 42965 00000 10227 20170 39439 40193 333 20150 58020;
0147413960999992000022409004+15980+048950FM-12+070099999V0201301N003612200019N0150001N1+03011+01441101711ADDGA1001+999999999GF100991001001999999001001MA1999999094201MD1999999+0141REMSYN064AAXX  24094 41396 42965 01307 10301 20144 39420 40171 333 58014;
0189413960999992000022412004+15980+048950FM-12+070099999V0201301N002612200019N0150001N1+03351+00751101371ADDAA199000091GA1021+060009019GF102991001001999999001011MA1999999093851MD1999999+0141REMSYN076AAXX  24124 41396 32965 21305 10335 20075 39385 40137 80001 333 58014 82070;EQDQ01  00002PRCP99
0178413960999992000022506004+15980+048950FM-12+070099999V0209999C000012200019N0250001N1+02301+00911102051ADDGA1011+060009019GF101991001001999999001011KA1120N+01331MA1999999094461MD1999999+0071REMSYN082AAXX  25064 41396 42975 10000 10230 20091 39446 40205 80001 333 20133 58007 81070;
0177413960999992000022512004+15980+048950FM-12+070099999V0201001N002612200019N0250001N1+03371+00731101441ADDAA199000091GA1001+999999999GF100991001001999999001001MA1999999093921MD1999999+0061REMSYN064AAXX  25124 41396 32975 01005 10337 20073 39392 40144 333 58006;EQDQ01  00002PRCP99
0159413960999992000022515004+15980+048950FM-12+070099999V0209999C000012200019N0250001N1+02921+01171101371ADDGA1021+060009019GF102991001001999999001011MA1999999093861MD1999999-0081REMSYN076AAXX  25154 41396 42975 20000 10292 20117 39386 40137 80001 333 59008 82070;
0178413960999992000022606004+15980+048950FM-12+070099999V0209999C000012200019N0200001N1+02351+01081101871ADDGA1021+060009019GF102991001001999999001011KA1120N+01401MA1999999094301MD1999999-0161REMSYN082AAXX  26064 41396 42970 20000 10235 20108 39430 40187 80001 333 20140 59016 82070;
0147413960999992000022609004+15980+048950FM-12+070099999V0209999C000012200019N0200001N1+03111+01501101611ADDGA1001+999999999GF100991001001999999001001MA1999999094101MD1999999-0141REMSYN064AAXX  26094 41396 42970 00000 10311 20150 39410 40161 333 59014;
0177413960999992000022612004+15980+048950FM-12+070099999V0200501N002612200019N0200001N1+03401+01561101241ADDAA199000091GA1001+999999999GF100991001001999999001001MA1999999093751MD1999999-0171REMSYN064AAXX  26124 41396 32970 00505 10340 20156 39375 40124 333 59017;EQDQ01  00002PRCP99
0166413960999992000022618004+15980+048950FM-12+070099999V0209999C000012200019N0200001N1+02381+01011101471ADDGA1001+999999999GF100991001001999999001001KA1120M+03441MA1999999093961MD1999999-0201REMSYN070AAXX  26184 41396 42970 00000 10238 20101 39396 40147 333 10344 59020;
0147413960999992000022621004+15980+048950FM-12+070099999V0209999C000012200019N0200001N1+02301+01361101521ADDGA1001+999999999GF100991001001999999001001MA1999999094011MD1999999-0151REMSYN064AAXX  26214 41396 42970 00000 10230 20136 39401 40152 333 59015;
0147413960999992000022709004+15980+048950FM-12+070099999V0200901N002112200019N0150001N1+02201+01181101571ADDGA1001+999999999GF100991001001999999001001MA1999999094041MD1999999-0061REMSYN064AAXX  27094 41396 42965 00904 10220 20118 39404 40157 333 59006;
0177413960999992000022712004+15980+048950FM-12+070099999V0200901N002612200019N0150001N1+03452+01211101211ADDAA199000091GA1001+999999999GF100991001001999999001001MA1999999093701MD1999999-0051REMSYN064AAXX  27124 41396 32965 00905 10345 20121 39370 40121 333 59005;EQDQ01  00002PRCP99
0159413960999992000022715004+15980+048950FM-12+070099999V0200901N001512200019N0150001N1+03031+00811101211ADDGA1021+060009019GF102991001001999999001011MA1999999093701MD1999999-0061REMSYN076AAXX  27154 41396 42965 20903 10303 20081 39370 40121 80001 333 59006 82070;
0178413960999992000022718004+15980+048950FM-12+070099999V0201201N001512200019N0150001N1+02481+00861101491ADDGA1021+060009019GF102991001001999999001011KA1120M+03471MA1999999093981MD1999999+0021REMSYN082AAXX  27184 41396 42965 21203 10248 20086 39398 40149 80001 333 10347 58002 82070;
0156413960999992000022806004+15980+048950FM-12+070099999V0209999C000012200019N0200001N1+02351+01061101801ADDGF102991001001999999001011KA1120N+01251MA1999999094211MD1999999+0051REMSYN076AAXX  28064 41396 42970 20000 10235 20106 39421 40180 80001 333 20125 58005;
0189413960999992000022812004+15980+048950FM-12+070099999V0201501N002612200019N0200001N1+03451+01071101331ADDAA199000091GA1011+060009019GF101991001001999999001011MA1999999093821MD1999999+0111REMSYN076AAXX  28124 41396 32970 11505 10345 20107 39382 40133 80001 333 58011 81070;EQDQ01  00002PRCP99
0159413960999992000022815004+15980+048950FM-12+070099999V0200801N003112200019N0200001N1+02851+00921101341ADDGA1021+060009019GF102991001001999999001011MA1999999093831MD1999999+0131REMSYN076AAXX  28154 41396 42970 20806 10285 20092 39383 40134 80001 333 58013 82070;
0166413960999992000022906004+15980+048950FM-12+070099999V0209999C000012200019N0200001N1+02301+01361102031ADDGA1001+999999999GF100991001001999999001001KA1120N+01191MA1999999094481MD1999999+0271REMSYN070AAXX  29064 41396 42970 00000 10230 20136 39448 40203 333 20119 58027;
0147413960999992000022909004+15980+048950FM-12+070099999V0200501N005112200019N0200001N1+03001+01101101841ADDGA1001+999999999GF100991001001999999001001MA1999999094331MD1999999+0301REMSYN064AAXX  29094 41396 42970 00510 10300 20110 39433 40184 333 58030;
0177413960999992000022912004+15980+048950FM-12+070099999V0200901N002612200019N0200001N1+03291+01431101511ADDAA199000091GA1001+999999999GF100991001001999999001001MA1999999094001MD1999999+0181REMSYN064AAXX  29124 41396 32970 00905 10329 20143 39400 40151 333 58018;EQDQ01  00002PRCP99
0166413960999992000022918004+15980+048950FM-12+070099999V0200601N002612200019N0200001N1+02301+01151101751ADDGA1001+999999999GF100991001001999999001001KA1120M+03301MA1999999094231MD1999999+0171REMSYN070AAXX  29184 41396 42970 00605 10230 20115 39423 40175 333 10330 58017;
0166413960999992000030106004+15980+048950FM-12+070099999V0209999C000012200019N0150001N1+02401+01241102071ADDGA1001+999999999GF100991001001999999001001KA1120N+01401MA1999999094531MD1999999+0051REMSYN070AAXX  01064 41396 42965 00000 10240 20124 39453 40207 333 20140 58005;
0147413960999992000030109004+15980+048950FM-12+070099999V0201201N002112200019N0150001N1+02901+01421101811ADDGA1001+999999999GF100991001001999999001001MA1999999094301MD1999999-0031REMSYN064AAXX  01094 41396 42965 01204 10290 20142 39430 40181 333 59003;
0177413960999992000030112004+15980+048950FM-12+070099999V0209999C000012200019N0150001N1+03221+01351101521ADDAA199000091GA1001+999999999GF100991001001999999001001MA1999999094011MD1999999+0011REMSYN064AAXX  01124 41396 32965 00000 10322 20135 39401 40152 333 58001;EQDQ01  00002PRCP99
0138413960999992000030115004+15980+048950FM-12+070099999V0209999C000012200019N0150001N1+02901+01421101521ADDGA1011+060009019GF101991001001999999001011MD1999999+0011REMSYN070AAXX  01154 41396 42965 10000 10290 20142 40152 80001 333 58001 81070;
0157413960999992000030118004+15980+048950FM-12+070099999V0209999C000012200019N0150001N1+01901+01031101631ADDGA1011+060009019GF101991001001999999001011KA1120M+03221MD1999999-0111REMSYN076AAXX  01184 41396 42965 10000 10190 20103 40163 80001 333 10322 59011 81070;
0189413960999992000030212004+15980+048950FM-12+070099999V0209999C000012200019N0200001N1+03221+00421101501ADDAA199000091GA1021+060009019GF102991001001999999001011MA1999999094001MD1999999-0011REMSYN076AAXX  02124 41396 32970 20000 10322 20042 39400 40150 80001 333 59001 82070;EQDQ01  00002PRCP99
0159413960999992000030215004+15980+048950FM-12+070099999V0209999C000012200019N0200001N1+02901+00951101511ADDGA1011+060009019GF103991001001999999001011MA1999999094021MD1999999+0011REMSYN076AAXX  02154 41396 42970 30000 10290 20095 39402 40151 80001 333 58001 81070;
0175413960999992000030409004+15980+048950FM-12+070099999V0209999C000012200019N0060001N1+02601+00671102121ADDAY101031AY201031GA1001+999999999GF100991001001999999001001MA1999999094591MD1999999+0101MW1061REMSYN070AAXX  04094 41396 41956 00000 10260 20067 39459 40212 70600 333 58010;
0206413960999992000030506004+15980+048950FM-12+070099999V0209999C000012200019N0050001N1+02101+00061102061ADDAY101061AY201061GA1011+060009019GF101991001001999999001011KA1120N+01061MA1999999094471MD1999999-0321MW1061REMSYN088AAXX  05064 41396 41950 10000 10210 20006 39447 40206 70600 80001 333 20106 59032 81070;
0194413960999992000030606004+15980+048950FM-12+070099999V0209999C000012200019N0070001N1+02371+01361101931ADDAY101061AY201061GA1001+999999999GF100991001001999999001001KA1120N+01371MA1999999094381MD1999999-0091MW1061REMSYN076AAXX  06064 41396 42957 00000 10237 20136 39438 40193 70600 333 20137 59009;
0175413960999992000030609004+15980+048950FM-12+070099999V0209999C000012200019N0080001N1+03101+01371101711ADDAY101031AY201031GA1001+999999999GF100991001001999999001001MA1999999094201MD1999999-0051MW1061REMSYN070AAXX  06094 41396 42958 00000 10310 20137 39420 40171 70600 333 59005;
0171413960999992000030612004+15980+048950FM-12+070099999V0209999C000012200019N0100001N1+03321+99999101391ADDAA199000091GA1001+999999999GF100991001001999999001001MA1999999093901MD1999999-0011REMSYN058AAXX  06124 41396 32960 00000 10332 39390 40139 333 59001;EQDQ01  00002PRCP99
0147413960999992000030615004+15980+048950FM-12+070099999V0200901N002612200019N9999999N1+03001+01561101391ADDGA1001+999999999GF100991001001999999001001MA1999999093901MD1999999+0001REMSYN064AAXX  06154 41396 2/60/ 00905 10300 20156 39390 40139 333 58000;
0157413960999992000030618004+15980+048950FM-12+070099999V0200901N002612200019N0100001N1+02551+00991101601ADDGA1001+999999999GF100991001001999999001001MD1999999+0071REMSYN070AAXX  06184 41396 42960 00905 10255 20099 35409 40160 333 1034/ 58007;EQDQ01+054093APOSP 
0147413960999992000030621004+15980+048950FM-12+070099999V0209999C000012200019N0100001N1+02201+00771101651ADDGA1001+999999999GF100991001001999999001001MA1999999094141MD1999999+0051REMSYN064AAXX  06214 41396 42960 00000 10220 20077 39414 40165 333 58005;
0194413960999992000030706004+15980+048950FM-12+070099999V0200901N002112200019N0060001N1+02351+00991101891ADDAY101061AY201061GA1001+999999999GF100991001001999999001001KA1120N+01401MA1999999094321MD1999999-0061MW1061REMSYN076AAXX  07064 41396 41956 00904 10235 20099 39432 40189 70600 333 20140 59006;
0175413960999992000030709004+15980+048950FM-12+070099999V0200901N002612200019N0070001N1+03081+01431101641ADDAY101031AY201031GA1001+999999999GF100991001001999999001001MA1999999094131MD1999999-0071MW1061REMSYN070AAXX  07094 41396 41957 00905 10308 20143 39413 40164 70600 333 59007;
0153413960999992000030712004+15980+048950FM-12+070099999V0200201N002612200019N9999999N1+03301+01551101341ADDGA1001+999999999GF100991001001999999001001MA1999999093851MD1999999-0051REMSYN070AAXX  07124 41396 1/57/ 00205 10330 20155 39385 40134 70600 333 59005;
0105413960999992000030715004+15980+048950FM-12+070099999V0200901N002619999999N0120001N1+03031+01391101351ADDMA1999999093871MD1999999-0031REMSYN064AAXX  07154 41396 42962 /0905 10303 20139 39387 40135 333 59003;
0177413960999992000030812004+15980+048950FM-12+070099999V0201301N002612200019N0100001N1+03371+01261101241ADDAA199000091GA1001+999999999GF100991001001999999001001MA1999999093971MD1999999-0101REMSYN064AAXX  08124 41396 32960 01305 10337 20126 39397 40124 333 59010;EQDQ01  00002PRCP99
0194413960999992000030906004+15980+048950FM-12+070099999V0209999C000012200019N0090001N1+02201+01711101851ADDAY101061AY201061GA1001+999999999GF100991001001999999001001KA1120N+01261MA1999999094321MD1999999+0121MW1061REMSYN076AAXX  09064 41396 41959 00000 10220 20171 39432 40185 70600 333 20126 58012;
0175413960999992000030909004+15980+048950FM-12+070099999V0209999C000012200019N0090001N1+02791+01051101601ADDAY101031AY201031GA1001+999999999GF100991001001999999001001MA1999999094101MD1999999+0051MW1061REMSYN070AAXX  09094 41396 41959 00000 10279 20105 39410 40160 70600 333 58005;
0177413960999992000030912004+15980+048950FM-12+070099999V0200801N002612200019N0150001N1+03301+00491101311ADDAA199000091GA1001+999999999GF100991001001999999001001MA1999999093821MD1999999+0071REMSYN064AAXX  09124 41396 32965 00805 10330 20049 39382 40131 333 58007;EQDQ01  00002PRCP99
0147413960999992000030915004+15980+048950FM-12+070099999V0200501N004112200019N0100001N1+03011+00051101311ADDGA1001+999999999GF100991001001999999001001MA1999999093821MD1999999+0041REMSYN064AAXX  09154 41396 42960 00508 10301 20005 39382 40131 333 58004;
0175413960999992000031006004+15980+048950FM-12+070099999V0209999C000012200019N0150001N1+02421+01161101811ADDAJ100049199999999GA1001+999999999GF100991001001999999001001IA1299KA1120N+01301MA1999999094281REMSYN070AAXX  10064 41396 42965 00000 10242 20116 39428 40181 333 20130 49004;
0126413960999992000031009004+15980+048950FM-12+070099999V0200901N002112200019N0150001N1+03031+00781101651ADDGA1001+999999999GF100991001001999999001001MD1999999+0041REMSYN058AAXX  10094 41396 42965 00904 10303 20078 40165 333 58004;
0166413960999992000031018004+15980+048950FM-12+070099999V0200901N002612200019N0200001N1+02501+01041101641ADDGA1001+999999999GF100991001001999999001001KA1120M+03381MA1999999094131MD1999999+0101REMSYN070AAXX  10184 41396 42970 00905 10250 20104 39413 40164 333 10338 58010;
0178413960999992000031106004+15980+048950FM-12+070099999V0209999C000012200019N0200001N1+02401+00941101941ADDGA1011+060009019GF101991001001999999001011KA1120N+01581MA1999999094411MD1999999+0131REMSYN082AAXX  11064 41396 42970 10000 10240 20094 39441 40194 80001 333 20158 58013 81070;
0147413960999992000031109004+15980+048950FM-12+070099999V0209999C000012200019N0100001N1+02921+00931101741ADDGA1001+999999999GF100991001001999999001001MA1999999094251MD1999999+0111REMSYN064AAXX  11094 41396 42960 00000 10292 20093 39425 40174 333 58011;
0189413960999992000031112004+15980+048950FM-12+070099999V0200301N002612200019N0200001N1+03201+00601101541ADDAA199000091GA1021+060009019GF102991001001999999001011MA1999999094061MD1999999+0171REMSYN076AAXX  11124 41396 32970 20305 10320 20060 39406 40154 80001 333 58017 82070;EQDQ01  00002PRCP99
0159413960999992000031115004+15980+048950FM-12+070099999V0200801N003612200019N0200001N1+02801+00841101571ADDGA1021+060009019GF102991001001999999001011MA1999999094091MD1999999+0061REMSYN076AAXX  11154 41396 42970 20807 10280 20084 39409 40157 80001 333 58006 82070;
0166413960999992000031206004+15980+048950FM-12+070099999V0209999C000012200019N0150001N1+02471+00841101951ADDGA1001+999999999GF100991001001999999001001KA1120N+01411MA1999999094431MD1999999+0021REMSYN070AAXX  12064 41396 42965 00000 10247 20084 39443 40195 333 20141 58002;
0147413960999992000031215004+15980+048950FM-12+070099999V0209999C000012200019N0150001N1+02991+01261101481ADDGA1001+999999999GF100991001001999999001001MA1999999094011MD1999999-0081REMSYN064AAXX  12154 41396 42965 00000 10299 20126 39401 40148 333 59008;
0166413960999992000031218004+15980+048950FM-12+070099999V0200201N007712200019N0150001N1+02741+00561101681ADDGA1001+999999999GF100991001001999999001001KA1120M+03351MA1999999094191MD1999999-0071REMSYN070AAXX  12184 41396 42965 00215 10274 20056 39419 40168 333 10335 59007;
0177413960999992000031412004+15980+048950FM-12+070099999V0201001N002612200019N0120001N1+03351+00101101111ADDAA199000091GA1001+999999999GF100991001001999999001001MA1999999093621MD1999999-0101REMSYN064AAXX  14124 41396 32962 01005 10335 20010 39362 40111 333 59010;EQDQ01  00002PRCP99
0165413960999992000031418004+15980+048950FM-12+070099999V0200601N002612200019N0120001N1+02251+00421101351ADDGA1001+999999999GF100991001001999999001001KA1999M+99999MA1999999093851REMSYN064AAXX  14184 41396 42962 00605 10225 20042 39385 40135 333 19019;EQDQ01 +00192ATMX  
0166413960999992000031506004+15980+048950FM-12+070099999V0209999C000012200019N0120001N1+02301+01131101441ADDGA1001+999999999GF100991001001999999001001KA1120N+01151MA1999999094231MD1999999+0041REMSYN070AAXX  15064 41396 42962 00000 10230 20113 39423 40144 333 20115 58004;
0147413960999992000031509004+15980+048950FM-12+070099999V0200701N002612200019N0150001N1+03051+00611101541ADDGA1001+999999999GF100991001001999999001001MA1999999094051MD1999999+0121REMSYN064AAXX  15094 41396 42965 00705 10305 20061 39405 40154 333 58012;
0177413960999992000031512004+15980+048950FM-12+070099999V0200301N004112200019N0150001N1+03341+00211101311ADDAA199000091GA1001+999999999GF100991001001999999001001MA1999999093821MD1999999+0201REMSYN064AAXX  15124 41396 32965 00308 10334 20021 39382 40131 333 58020;EQDQ01  00002PRCP99
0147413960999992000031515004+15980+048950FM-12+070099999V0200801N002612200019N0150001N1+03051+00021101271ADDGA1001+999999999GF100991001001999999001001MA1999999093781MD1999999+0091REMSYN064AAXX  15154 41396 42965 00805 10305 20002 39378 40127 333 58009;
0166413960999992000031518004+15980+048950FM-12+070099999V0209999C000012200019N0150001N1+02111+00141101421ADDGA1001+999999999GF100991001001999999001001KA1120M+03351MA1999999093931MD1999999+0081REMSYN070AAXX  15184 41396 42965 00000 10211 20014 39393 40142 333 10335 58008;
0147413960999992000031521004+15980+048950FM-12+070099999V0209999C000012200019N0150001N1+01701+00351101511ADDGA1001+999999999GF100991001001999999001001MA1999999094001MD1999999+0091REMSYN064AAXX  15214 41396 42965 00000 10170 20035 39400 40151 333 58009;
0189413960999992000031612004+15980+048950FM-12+070099999V0201801N002612200019N0150001N1+03331+00051101291ADDAA199000091GA1011+060009029GF101991001001999999001011MA1999999093801MD1999999-0021REMSYN076AAXX  16124 41396 32965 11805 10333 20005 39380 40129 80001 333 59002 81870;EQDQ01  00002PRCP99
0147413960999992000031615004+15980+048950FM-12+070099999V0209999C000012200019N0150001N1+02931+00471101281ADDGA1001+999999999GF100991001001999999001001MA1999999093791MD1999999+0011REMSYN064AAXX  16154 41396 42965 00000 10293 20047 39379 40128 333 58001;
0166413960999992000031618004+15980+048950FM-12+070099999V0209999C000012200019N0150001N1+02121+00301101471ADDGA1001+999999999GF100991001001999999001001KA1120M+03361MA1999999093961MD1999999+0031REMSYN070AAXX  16184 41396 42965 00000 10212 20030 39396 40147 333 10336 58003;
0166413960999992000031706004+15980+048950FM-12+070099999V0209999C000012200019N0200001N1+02321-00171101661ADDGA1001+999999999GF100991001001999999001001KA1120N+01041MA1999999094111MD1999999-0241REMSYN070AAXX  17064 41396 42970 00000 10232 21017 39411 40166 333 20104 59024;
0189413960999992000031712004+15980+048950FM-12+070099999V0209999C000012200019N0200001N1+03501+00201101071ADDAA199000091GA1021+060009019GF102991001001999999001011MA1999999093561MD1999999-0241REMSYN076AAXX  17124 41396 32970 20000 10350 20020 39356 40107 80001 333 59024 82070;EQDQ01  00002PRCP99
0147413960999992000031809004+15980+048950FM-12+070099999V0209999C000012200019N0200001N1+03131+01061101381ADDGA1001+999999999GF100991001001999999001001MA1999999093871MD1999999-0021REMSYN064AAXX  18094 41396 42970 00000 10313 20106 39387 40138 333 59002;
0147413960999992000031815004+15980+048950FM-12+070099999V0200301N004112200019N0200001N1+03151+00511101041ADDGA1001+999999999GF100991001001999999001001MA1999999093571MD1999999+0021REMSYN064AAXX  18154 41396 42970 00308 10315 20051 39357 40104 333 58002;
0166413960999992000031906004+15980+048950FM-12+070099999V0209999C000012200019N0250001N1+02351+00621101761ADDGA1001+999999999GF100991001001999999001001KA1120N+01241MA1999999094231MD1999999+0201REMSYN070AAXX  19064 41396 42975 00000 10235 20062 39423 40176 333 20124 58020;
0159413960999992000031909004+15980+048950FM-12+070099999V0209999C000012200019N0250001N1+03001+00981101591ADDGA1011+060009019GF101991001001999999001011MA1999999094081MD1999999+0211REMSYN076AAXX  19094 41396 42975 10000 10300 20098 39408 40159 80001 333 58021 81070;
0159413960999992000031915004+15980+048950FM-12+070099999V0209999C000012200019N9999999N1+03161+01091101221ADDGA1031+075009019GF103991001001999999001011MA1999999093731MD1999999+0161REMSYN076AAXX  19154 41396 4297/ 30000 10316 20109 39373 40122 80001 333 58016 83075;
0166413960999992000032106004+15980+048950FM-12+070099999V0209999C000012200019N0200001N1+02601+01061101921ADDGA1001+999999999GF100991001001999999001001KA1120N+01221MA1999999094411MD1999999+0181REMSYN070AAXX  21064 41396 42970 00000 10260 20106 39441 40192 333 20122 58018;
0166413960999992000032109004+15980+048950FM-12+070099999V0200101N003612200019N0200001N1+03201+01171101741ADDGA1001+999999999GF100991001001999999001001MA1999999092272MD1999999+0201REMSYN064AAXX  21094 41396 42970 00107 10320 20117 39227 40174 333 58020;EQDQ01+092273APOSP 
0147413960999992000032121004+15980+048950FM-12+070099999V0209999C000012200019N0200001N1+01951+01061101671ADDGA1001+999999999GF100991001001999999001001MA1999999094181MD1999999+0031REMSYN064AAXX  21214 41396 42970 00000 10195 20106 39418 40167 333 58003;
0166413960999992000032206004+15980+048950FM-12+070099999V0209999C000012200019N0200001N1+02601+01321101891ADDGA1001+999999999GF100991001001999999001001KA1120N+01371MA1999999094361MD1999999-0051REMSYN070AAXX  22064 41396 42970 00000 10260 20132 39436 40189 333 20137 59005;
0194413960999992000032209004+15980+048950FM-12+070099999V0201301N004112200019N0200001N1+03301+01331101631ADDGA1021+060009019GF199999001001999999001999MA1999999094141MD1999999-0071REMSYN076AAXX  22094 41396 42970 01308 10330 20133 39414 40163 80001 333 59007 82070;EQDQ01+000002SCOTCVQ02+000002SCOHCG
0189413960999992000032212004+15980+048950FM-12+070099999V0201401N003612200019N0200001N1+03581+01441101311ADDAA199000091GA1031+060009019GF103991001001999999001011MA1999999093821MD1999999-0071REMSYN076AAXX  22124 41396 32970 31407 10358 20144 39382 40131 80001 333 59007 83070;EQDQ01  00002PRCP99
0166413960999992000032306004+15980+048950FM-12+070099999V0209999C000012200019N0250001N1+02501+00841101761ADDGA1001+999999999GF100991001001999999001001KA1120N+01041MA1999999094161MD1999999-0201REMSYN070AAXX  23064 41396 42975 00000 10250 20084 39416 40176 333 20104 59020;
0147413960999992000032315004+15980+048950FM-12+070099999V0201801N005112200019N0250001N1+03101+01371101041ADDGA1001+999999999GF100991001001999999001001MA1999999095561MD1999999-0221REMSYN064AAXX  23154 41396 42975 01810 10310 20137 39556 40104 333 59022;
0166413960999992000032318004+15980+048950FM-12+070099999V0200301N002612200019N0200001N1+02501+01311101381ADDGA1001+999999999GF100991001001999999001001MA1999999093892MD1999999-0101REMSYN064AAXX  23184 41396 42970 00305 10250 20131 39389 40138 333 59010;EQDQ01+093893APOSP 
0166413960999992000032406004+15980+048950FM-12+070099999V0209999C000012200019N0250001N1+02401+00941101581ADDGA1001+999999999GF100991001001999999001001KA1120N+01001MA1999999094051MD1999999-0051REMSYN070AAXX  24064 41396 42975 00000 10240 20094 39405 40158 333 20100 59005;
0177413960999992000032412004+15980+048950FM-12+070099999V0201701N005112200019N0150001N1+03551+01661100971ADDAA199000091GA1001+999999999GF100991001001999999001001MA1999999093501MD1999999-0051REMSYN064AAXX  24124 41396 32965 01710 10355 20166 39350 40097 333 59005;EQDQ01  00002PRCP99
0147413960999992000032415004+15980+048950FM-12+070099999V0201701N004112200019N0150001N1+03021+01641101081ADDGA1001+999999999GF100991001001999999001001MA1999999093611MD1999999+0051REMSYN064AAXX  24154 41396 42965 01708 10302 20164 39361 40108 333 58005;
0147413960999992000032421004+15980+048950FM-12+070099999V0209999C000012200019N0150001N1+02171+01461101391ADDGA1001+999999999GF100991001001999999001001MA1999999093901MD1999999-0011REMSYN064AAXX  24214 41396 42965 00000 10217 20146 39390 40139 333 59001;
0178413960999992000032506004+15980+048950FM-12+070099999V0200901N001512200019N0200001N1+02501+01371101511ADDGA1011+060009019GF101991001001999999001011KA1120N+01551MA1999999094001MD1999999-0051REMSYN082AAXX  25064 41396 42970 10903 10250 20137 39400 40151 80001 333 20155 59005 81070;
0189413960999992000032512004+15980+048950FM-12+070099999V0201801N004112200019N0200001N1+03621+01861101021ADDAA199000091GA1011+060009019GF101991001001999999001011MA1999999093531MD1999999+0031REMSYN076AAXX  25124 41396 32970 11808 10362 20186 39353 40102 80001 333 58003 81070;EQDQ01  00002PRCP99
0178413960999992000032515004+15980+048950FM-12+070099999V0201701N003612200019N0200001N1+03171+01931101091ADDGA1021+060009019GF199999001001999999001011MA1999999093621MD1999999+0011REMSYN076AAXX  25154 41396 42970 11707 10317 20193 39362 40109 80001 333 58001 82070;EQDQ01+000012SCOTCV
0178413960999992000032606004+15980+048950FM-12+070099999V0209999C000012200019N0200001N1+02501+01271101721ADDGA1011+060009019GF101991001001999999001011KA1120N+01401MA1999999094181MD1999999+0121REMSYN082AAXX  26064 41396 42970 10000 10250 20127 39418 40172 80001 333 20140 58012 81070;
0189413960999992000032612004+15980+048950FM-12+070099999V0209999C000012200019N0150001N1+03501+01831101161ADDAA199000091GA1021+060009019GF102991001001999999001011MA1999999093691MD1999999+0161REMSYN076AAXX  26124 41396 32965 20000 10350 20183 39369 40116 80001 333 58016 82070;EQDQ01  00002PRCP99
0159413960999992000032615004+15980+048950FM-12+070099999V0209999C000012200019N0200001N1+03101+01781101151ADDGA1021+060009019GF102991001001999999001011MA1999999093681MD1999999+0061REMSYN076AAXX  26154 41396 42970 20000 10310 20178 39368 40115 80001 333 58006 82070;
0178413960999992000032706004+15980+048950FM-12+070099999V0209999C000012200019N0150001N1+02631+01421101741ADDGA1011+060009019GF101991001001999999001011KA1120N+01151MA1999999094231MD1999999-0051REMSYN082AAXX  27064 41396 42965 10000 10263 20142 39423 40174 80001 333 20115 59005 81070;
0147413960999992000032709004+15980+048950FM-12+070099999V0209999C000012200019N0150001N1+03501+02021101211ADDGA1001+999999999GF100991001001999999001001MA1999999093761MD1999999+0071REMSYN064AAXX  27094 41396 42965 00000 10350 20202 39376 40121 333 58007;
0147413960999992000032715004+15980+048950FM-12+070099999V0209999C000012200019N0150001N1+03241+01681101201ADDGA1001+999999999GF100991001001999999001001MA1999999093751MD1999999+0071REMSYN064AAXX  27154 41396 42965 00000 10324 20168 39375 40120 333 58007;
0147413960999992000032809004+15980+048950FM-12+070099999V0202901N002112200019N0200001N1+03151+01721101561ADDGA1001+999999999GF100991001001999999001001MA1999999094091MD1999999+0011REMSYN064AAXX  28094 41396 42970 02904 10315 20172 39409 40156 333 58001;
0159413960999992000032815004+15980+048950FM-12+070099999V0200901N002612200019N0250001N1+03161+00601101281ADDGA1021+060009019GF102991001001999999001011MA1999999093811MD1999999+0061REMSYN076AAXX  28154 41396 42975 20905 10316 20060 39381 40128 80001 333 58006 82070;
0189413960999992000032912004+15980+048950FM-12+070099999V0200201N002612200019N0200001N1+03301+00301101291ADDAA199000091GA1031+060009019GF103991001001999999001011MA1999999093841MD1999999+0041REMSYN076AAXX  29124 41396 32970 30205 10330 20030 39384 40129 80001 333 58004 83070;EQDQ01  00002PRCP99
0159413960999992000032915004+15980+048950FM-12+070099999V0200601N002612200019N0200001N1+03051+00301101301ADDGA1031+060009019GF103991001001999999001011MA1999999093851MD1999999+0011REMSYN076AAXX  29154 41396 42970 30605 10305 20030 39385 40130 80001 333 58001 83070;
0147413960999992000033009004+15980+048950FM-12+070099999V0209999C000012200019N0150001N1+03191+00631101681ADDGA1001+999999999GF100991001001999999001001MA1999999094211MD1999999+0081REMSYN064AAXX  30094 41396 42465 00000 10319 20063 39421 40168 333 58008;
0178413960999992000033106004+15980+048950FM-12+070099999V0209999C000012200019N0200001N1+02601+01101101761ADDGA1021+060009019GF102991001001999999001011KA1120N+01541MA1999999094271MD1999999-0071REMSYN082AAXX  31064 41396 42970 20000 10260 20110 39427 40176 80001 333 20154 59007 82070;
0189413960999992000033112004+15980+048950FM-12+070099999V0201801N003612200019N0150001N1+03471-00151101161ADDAA199000091GA1031+060009019GF103991001001999999001011MA1999999093701MD1999999-0201REMSYN076AAXX  31124 41396 32965 31807 10347 21015 39370 40116 80001 333 59020 83070;EQDQ01  00002PRCP99
0178413960999992000033118004+15980+048950FM-12+070099999V0201501N003612200019N0150001N1+02671+00521101441ADDGA1031+060009019GF103991001001999999001011KA1120M+03481MA1999999093971MD1999999+0131REMSYN082AAXX  31184 41396 42965 31507 10267 20052 39397 40144 80001 333 10348 58013 83070;
0178413960999992000040206004+15980+048950FM-12+070099999V0209999C000012200019N0150001N1+02601+00581101741ADDGA1011+060009019GF101991001001999999001011KA1120N+01351MA1999999094261MD1999999+0051REMSYN082AAXX  02064 41396 42965 10000 10260 20058 39426 40174 80001 333 20135 58005 81070;
0172413960999992000040212004+15980+048950FM-12+070099999V02099999999992200019N0150001N1+02601+99999101741ADDGA1011+060009019GF101991001001999999001011KA1120N+01351MA1999999094261MD1999999+0051REMSYN076AAXX  02124 41396 42965 1/080 10260 39426 40174 80001 333 20135 58005 81070;
0177413960999992000040312004+15980+048950FM-12+070099999V0200601N006212200019N0150001N1+03541+00761101181ADDAA199000091GA1001+999999999GF100991001001999999001001MA1999999093731MD1999999+0021REMSYN064AAXX  03124 41396 32965 00612 10354 20076 39373 40118 333 58002;EQDQ01  00002PRCP99
0178413960999992000040406004+15980+048950FM-12+070099999V0209999C000012200019N0150001N1+02801+00991101651ADDGA1021+045009079GF102991021001999999031001KA1120N+01601MA1999999094211MD1999999-0021REMSYN082AAXX  04064 41396 42965 20000 10280 20099 39421 40165 82030 333 20160 59002 82365;
0159413960999992000040409004+15980+048950FM-12+070099999V0200601N002612200019N0150001N1+03421+00361101511ADDGA1011+060009019GF101991001001999999001011MA1999999094061MD1999999-0021REMSYN076AAXX  04094 41396 42965 10605 10342 20036 39406 40151 80001 333 59002 81070;
0217413960999992000040412004+15980+048950FM-12+070099999V0201201N007712200019N0080001N1+03601+00631101181ADDAA199000091AY101061AY201061GA1011+060009019GF101991001001999999001011MA1999999093731MD1999999+0001MW1071REMSYN082AAXX  04124 41396 31958 11215 10360 20063 39373 40118 70700 80001 333 59000 81070;EQDQ01  00002PRCP99
0178413960999992000040418004+15980+048950FM-12+070099999V0200901N002112200019N0150001N1+02821+00641101281ADDGA1011+060009019GF101991001001999999001011KA1120M+03681MA1999999093821MD1999999-0091REMSYN082AAXX  04184 41396 42965 10904 10282 20064 39382 40128 80001 333 10368 59009 81070;
0178413960999992000040506004+15980+048950FM-12+070099999V0209999C000012200019N0150001N1+02911+01011101661ADDGA1031+075009019GF103991001001999999001011KA1120N+01581MA1999999094171MD1999999-0041REMSYN082AAXX  05064 41396 42965 30000 10291 20101 39417 40166 80001 333 20158 59004 83075;
0187413960999992000040509004+15980+048950FM-12+070099999V0200601N006212200019N0080001N1+03461+00791101451ADDAY101031AY201031GA1021+060009019GF102991001001999999001011MA1999999094001MD1999999+0001MW1061REMSYN082AAXX  05094 41396 41958 20612 10346 20079 39400 40145 70600 80001 333 58000 82070;
0189413960999992000040512004+15980+048950FM-12+070099999V0200901N002612200019N0120001N1+03691+00691101171ADDAA199000091GA1021+060009019GF102991001001999999001011MA1999999093721MD1999999-0011REMSYN076AAXX  05124 41396 32962 20905 10369 20069 39372 40117 80001 333 59001 82070;EQDQ01  00002PRCP99
0162413960999992000040518004+15980+048950FM-12+070099999V0200301N006212200019N0120001N1+03201+00621101341ADDGF102991001001999999001011KA1120M+03701MA1999999093891MD1999999+0071REMSYN082AAXX  05184 41396 42962 20312 10320 20062 39389 40134 80001 333 10370 58007 92070;
0147413960999992000040521004+15980+048950FM-12+070099999V0209999C000012200019N0120001N1+02451+00891101391ADDGA1001+999999999GF100991001001999999001001MA1999999093941MD1999999+0051REMSYN064AAXX  05214 41396 42962 00000 10245 20089 39394 40139 333 58005;
0178413960999992000040606004+15980+048950FM-12+070099999V0209999C000012200019N0120001N1+02901+01291101741ADDGA1011+060009019GF101991001001999999001011KA1120N+01661MA1999999094251MD1999999+0081REMSYN082AAXX  06064 41396 42962 10000 10290 20129 39425 40174 80001 333 20166 58008 81070;
0159413960999992000040615004+15980+048950FM-12+070099999V0209999C000012200019N0120001N1+03431+01321101071ADDGA1031+060009019GF103991001001999999001011MA1999999093621MD1999999-0051REMSYN076AAXX  06154 41396 42962 30000 10343 20132 39362 40107 80001 333 59005 83070;
0164413960999992000040706004+15980+048950FM-12+070099999V0209999C000012200019N0100001N1+02871+01271101641ADDGA1031+060009019GF103991001001999999001011KA1120N+01721MA1999999094171REMSYN082AAXX  07064 41396 4/960 30000 10287 20127 39417 40164 80001 333 20172 5900/ 83070;
0206413960999992000040806004+15980+048950FM-12+070099999V0209999C000012200019N0080001N1+02951+00891101761ADDAY101061AY201061GA1021+060009019GF102991001001999999001011KA1120N+01751MA1999999094271MD1999999+0101MW1061REMSYN088AAXX  08064 41396 41958 20000 10295 20089 39427 40176 70600 80001 333 20175 58010 82070;
0175413960999992000040809004+15980+048950FM-12+070099999V0209999C000012200019N0090001N1+03601+00791101521ADDAY101031AY201031GA1001+999999999GF100991001001999999001001MA1999999094071MD1999999+0111MW1061REMSYN070AAXX  08094 41396 41959 00000 10360 20079 39407 40152 70600 333 58011;
0177413960999992000040812004+15980+048950FM-12+070099999V0200301N003112200019N0100001N1+03751+00611101221ADDAA199000091GA1001+999999999GF100991001001999999001001MA1999999093771MD1999999+0071REMSYN064AAXX  08124 41396 32960 00306 10375 20061 39377 40122 333 58007;EQDQ01  00002PRCP99
0150413960999992000040815004+15980+048950FM-12+070099999V0209999C025712200019N0100001N1+03351+00691101181ADDGF101991999999999999999999MA1999999099752MD1999999+0061REMSYN064AAXX  08154 41396 42960 10050 10335 20069 39975 40118 333 58006;EQDQ01+099753APOSP 
0194413960999992000040906004+15980+048950FM-12+070099999V0209999C000012200019N0080001N1+02951+00761101591ADDAY101061AY201061GA1001+999999999GF100991001001999999001001KA1120N+01661MA1999999094131MD1999999-0141MW1061REMSYN076AAXX  09064 41396 41958 00000 10295 20076 39413 40159 70600 333 20166 59014;
0147413960999992000040909004+15980+048950FM-12+070099999V0209999C000012200019N0150001N1+03601+00251101371ADDGA1001+999999999GF100991001001999999001001MA1999999093941MD1999999-0131REMSYN064AAXX  09094 41396 42965 00000 10360 20025 39394 40137 333 59013;
0177413960999992000040912004+15980+048950FM-12+070099999V0200801N004112200019N0150001N1+03701+00491101121ADDAA199000091GA1001+999999999GF100991001001999999001001MA1999999093701MD1999999-0071REMSYN064AAXX  09124 41396 32965 00808 10370 20049 39370 40112 333 59007;EQDQ01  00002PRCP99
0178413960999992000040918004+15980+048950FM-12+070099999V0200501N003612200019N0150001N1+03131+01061101331ADDGA1011+030009079GF101991011001999999031001KA1120M+03801MA1999999093901MD1999999-0031REMSYN082AAXX  09184 41396 42965 10507 10313 20106 39390 40133 81030 333 10380 59003 81360;
0178413960999992000041006004+15980+048950FM-12+070099999V0209999C000012200019N0150001N1+02981+01031101601ADDGA1021+036009079GF102991021001999999031001KA1120N+01761MA1999999094101MD1999999-0021REMSYN082AAXX  10064 41396 42965 20000 10298 20103 39410 40160 82030 333 20176 59002 82362;
0159413960999992000041009004+15980+048950FM-12+070099999V0200901N003612200019N0150001N1+03651+01031101331ADDGA1011+045009079GF101991011001999999031001MA1999999093911MD1999999-0031REMSYN076AAXX  10094 41396 42965 10907 10365 20103 39391 40133 81030 333 59003 81365;
0172413960999992000041018004+15980+048950FM-12+070099999V0201801N003112200019N0150001N1+03151+01601999999ADDGA1011+009009029GF101991011011008001001001KA1120M+03831MA1999999093851MD1999999-0051REMSYN076AAXX  10184 41396 42565 11806 10315 20160 39385 81100 333 10383 59005 81830;
0223413960999992000041112004+15980+048950FM-12+070099999V0200801N006212200019N0090001N1+03751+01071101001ADDAA199000091AY101061AY201061GA1011+009009089GF102991011011008001001011MA1999999093611MD1999999+0001MW1061REMSYN088AAXX  11124 41396 31559 20812 10375 20107 39361 40100 70600 81101 333 58000 81830 82070;EQDQ01  00002PRCP99
0165413960999992000041115004+15980+048950FM-12+070099999V0200901N003112200019N0150001N1+03471+01381100981ADDGA1011+009009089GF103991011011012501031001MA1999999093591MD1999999-0061REMSYN082AAXX  11154 41396 42665 30906 10347 20138 39359 40098 81130 333 59006 81830 83358;
0178413960999992000041118004+15980+048950FM-12+070099999V0209999C000012200019N0150001N1+03251+01791101201ADDGA1011+060009019GF101991001001999999001011KA1120M+03851MA1999999093791MD1999999-0061REMSYN082AAXX  11184 41396 42965 10000 10325 20179 39379 40120 80001 333 10385 59006 81070;
0147413960999992000041121004+15980+048950FM-12+070099999V0209999C000012200019N0150001N1+02641+01811101331ADDGA1001+999999999GF100991001001999999001001MA1999999093881MD1999999+0031REMSYN064AAXX  11214 41396 42965 00000 10264 20181 39388 40133 333 58003;
0178413960999992000041206004+15980+048950FM-12+070099999V0209999C000012200019N0150001N1+03091+01881101641ADDGA1011+060009019GF101991001001999999001011KA1120N+02101MA1999999094191MD1999999+0121REMSYN082AAXX  12064 41396 42965 10000 10309 20188 39419 40164 80001 333 20210 58012 81070;
0166413960999992000041318004+15980+048950FM-12+070099999V0200901N005112200019N0100001N1+03181-00391101231ADDGA1001+999999999GF100991001001999999001001KA1120M+03831MA1999999093821MD1999999-0041REMSYN070AAXX  13184 41396 42960 00910 10318 21039 39382 40123 333 10383 59004;
0206413960999992000041406004+15980+048950FM-12+070099999V0209999C000012200019N0090001N1+03011+00501101451ADDAY101061AY201061GA1011+060009019GF101991001001999999001011KA1120N+01731MA1999999094021MD1999999-0141MW1061REMSYN088AAXX  14064 41396 41959 10000 10301 20050 39402 40145 70600 80001 333 20173 59014 81070;
0187413960999992000041409004+15980+048950FM-12+070099999V0209999C000012200019N0090001N1+03561+00501101231ADDAY101031AY201031GA1011+060009019GF101991001001999999001011MA1999999093801MD1999999-0101MW1061REMSYN082AAXX  14094 41396 41959 10000 10356 20050 39380 40123 70600 80001 333 59010 81070;
0166413960999992000041418004+15980+048950FM-12+070099999V0200801N002612200019N0150001N1+02891+00851101091ADDGA1001+999999999GF100991001001999999001001KA1120M+03861MA1999999093641MD1999999-0181REMSYN070AAXX  14184 41396 42965 00805 10289 20085 39364 40109 333 10386 59018;
0159413960999992000041509004+15980+048950FM-12+070099999V0209999C000012200019N0100001N1+03701+00841101131ADDGA1021+060009019GF102991001001999999001011MA1999999093701MD1999999-0101REMSYN076AAXX  15094 41396 42960 20000 10370 20084 39370 40113 80001 333 59010 82070;
0205413960999992000041512004+15980+048950FM-12+070099999V0201501N002612200019N0100001N1+03801+00541100901ADDAA199000091GA1041+060009019GF104991001001999999001011MA1999999094702MD1999999-0041REMSYN076AAXX  15124 41396 32960 41505 10380 20054 39470 40090 80001 333 59004 84070;EQDQ01+094703APOSP Q02  00002PRCP99
0178413960999992000041606004+15980+048950FM-12+070099999V0209999C000012200019N0100001N1+03051+01391101421ADDGA1021+060009019GF102991001001999999001011KA1120N+01851MA1999999093971MD1999999+0011REMSYN082AAXX  16064 41396 42960 20000 10305 20139 39397 40142 80001 333 20185 58001 82070;
0147413960999992000041609004+15980+048950FM-12+070099999V0209999C000012200019N0100001N1+03651+01031101131ADDGA1001+999999999GF100991001001999999001001MA1999999093721MD1999999+0021REMSYN064AAXX  16094 41396 42960 00000 10365 20103 39372 40113 333 58002;
0177413960999992000041612004+15980+048950FM-12+070099999V0203301N005112200019N0150001N1+03901+00601100811ADDAA199000091GA1001+999999999GF100991001001999999001001MA1999999093401MD1999999-0071REMSYN064AAXX  16124 41396 32965 03310 10390 20060 39340 40081 333 59007;EQDQ01  00002PRCP99
0147413960999992000041615004+15980+048950FM-12+070099999V0209999C000012200019N0150001N1+03501+00141100821ADDGA1001+999999999GF100991001001999999001001MA1999999093411MD1999999-0021REMSYN064AAXX  16154 41396 42965 00000 10350 20014 39341 40082 333 59002;
0178413960999992000041706004+15980+048950FM-12+070099999V0209999C000012200019N0150001N1+03101+01141101351ADDGA1011+060009019GF101991001001999999001011KA1120N+01921MA1999999093901MD1999999-0071REMSYN082AAXX  17064 41396 42965 10000 10310 20114 39390 40135 80001 333 20192 59007 81070;
0205413960999992000041712004+15980+048950FM-12+070099999V0201501N003112200019N0100001N1+03871+00701999999ADDAA199000091GA1021+060009019GF102991001001999999001011MA1999999093451MD1999999+0051REMSYN076AAXX  17124 41396 32960 21506 10387 20070 39345 40008 80001 333 58005 82070;EQDQ01+100083APOSLPQ02  00002PRCP99
0159413960999992000041715004+15980+048950FM-12+070099999V0209999C000012200019N0120001N1+03521+01151100791ADDGA1031+060009019GF103991001001999999001011MA1999999093401MD1999999-0011REMSYN076AAXX  17154 41396 42962 30000 10352 20115 39340 40079 80001 333 59001 83070;
0215413960999992000041718004+15980+048950FM-12+070099999V0201201N003612200019N0150001N1+03191+01451101011ADDGA1091+001209009GF109991091001999999001011KA1120M+03951MA1999999093601REMSYN082AAXX  17184 41396 42965 21207 10319 20145 39360 40101 80001 333 10395 89004 82070;EQDQ01+000022SCOTCVQ02+000002SCOTLCQ03+000012SCOHCG
0166413960999992000041721004+15980+048950FM-12+070099999V0209999C000012200019N0150001N1+02651+01641101171ADDGA1001+999999999GF100991001001999999001001MA1999999093002MD1999999+0001REMSYN064AAXX  17214 41396 42965 00000 10265 20164 39300 40117 333 58000;EQDQ01+093003APOSP 
0178413960999992000041806004+15980+048950FM-12+070099999V0209999C000012200019N0150001N1+03101+01591101331ADDGA1041+060009019GF104991001001999999001011KA1120N+02001MA1999999093861MD1999999-0041REMSYN082AAXX  18064 41396 42965 40000 10310 20159 39386 40133 80001 333 20200 59004 84070;
0159413960999992000041809004+15980+048950FM-12+070099999V0209999C000012200019N0150001N1+03641+01301101171ADDGA1041+060009019GF104991001001999999001011MA1999999093761MD1999999+0021REMSYN076AAXX  18094 41396 42965 40000 10364 20130 39376 40117 80001 333 58002 84070;
0189413960999992000041812004+15980+048950FM-12+070099999V0200301N002612200019N0150001N1+03901+01071100921ADDAA199000091GA1021+060009019GF103991001001999999001011MA1999999093511MD1999999+0061REMSYN076AAXX  18124 41396 32965 30305 10390 20107 39351 40092 80001 333 58006 82070;EQDQ01  00002PRCP99
0178413960999992000041818004+15980+048950FM-12+070099999V0201801N003612200019N0150001N1+03241+01681101081ADDGA1031+060009019GF104991001001999999001011KA1120M+03901MA1999999093671MD1999999+0071REMSYN082AAXX  18184 41396 42965 41807 10324 20168 39367 40108 80001 333 10390 58007 83070;
0159413960999992000041909004+15980+048950FM-12+070099999V0209999C000012200019N0150001N1+03651+01471101191ADDGA1031+060009019GF103991001001999999001011MA1999999093781MD1999999-0021REMSYN076AAXX  19094 41396 42965 30000 10365 20147 39378 40119 80001 333 59002 83070;
0159413960999992000041915004+15980+048950FM-12+070099999V0200901N003112200019N0150001N1+03531+01451100861ADDGA1021+009009029GF102991021081012501001001MA1999999093471MD1999999-0051REMSYN076AAXX  19154 41396 42665 20906 10353 20145 39347 40086 82800 333 59005 82830;
0159413960999992000042009004+15980+048950FM-12+070099999V0200901N003612200019N0150001N1+03861+01211101171ADDGA1011+060009019GF101991001001999999001011MA1999999093721MD1999999-0061REMSYN076AAXX  20094 41396 42965 10907 10386 20121 39372 40117 80001 333 59006 81070;
0189413960999992000042012004+15980+048950FM-12+070099999V0209999C000012200019N0150001N1+03951+01421100931ADDAA199000091GA1011+009009029GF101991011011008001001001MA1999999093461MD1999999-0061REMSYN076AAXX  20124 41396 32565 10000 10395 20142 39346 40093 81100 333 59006 81830;EQDQ01  00002PRCP99
0159413960999992000042015004+15980+048950FM-12+070099999V0200901N003612200019N0150001N1+03571+01581100891ADDGA1011+009009029GF101991011011008001001001MA1999999093401MD1999999-0071REMSYN076AAXX  20154 41396 42565 10907 10357 20158 39340 40089 81100 333 59007 81830;
0166413960999992000042018004+15980+048950FM-12+070099999V0201201N002612200019N0150001N1+03291+01741101031ADDGA1001+999999999GF100991001001999999001001KA1120M+04051MA1999999093561MD1999999-0091REMSYN070AAXX  20184 41396 42965 01205 10329 20174 39356 40103 333 10405 59009;
0166413960999992000042106004+15980+048950FM-12+070099999V0209999C000012200019N0150001N1+03181+01911101351ADDGA1001+999999999GF100991001001999999001001KA1120N+02101MA1999999093881MD1999999-0021REMSYN070AAXX  21064 41396 42965 00000 10318 20191 39388 40135 333 20210 59002;
0147413960999992000042115004+15980+048950FM-12+070099999V0201301N003612200019N0200001N1+03601+01671100831ADDGA1001+999999999GF100991001001999999001001MA1999999093401MD1999999+0001REMSYN064AAXX  21154 41396 42970 01307 10360 20167 39340 40083 333 58000;
0166413960999992000042206004+15980+048950FM-12+070099999V0209999C000012200019N0200001N1+03171+01251101371ADDGA1001+999999999GF100991001001999999001001KA1120N+01871MA1999999093941MD1999999+0061REMSYN070AAXX  22064 41396 42970 00000 10317 20125 39394 40137 333 20187 58006;
0166413960999992000042209004+15980+048950FM-12+070099999V0200901N002612200019N0200001N1+03801-00162101171ADDGA1001+999999999GF100991001001999999001001MA1999999093771MD1999999+0051REMSYN064AAXX  22094 41396 42970 00905 10380 21016 39377 40117 333 58005;EQDQ01-000163ATOD  
0147413960999992000042309004+15980+048950FM-12+070099999V0201901N003112200019N0200001N1+03851+00481101161ADDGA1001+999999999GF100991001001999999001001MA1999999093731MD1999999-0041REMSYN064AAXX  23094 41396 42970 01906 10385 20048 39373 40116 333 59004;
0147413960999992000042315004+15980+048950FM-12+070099999V0200901N002612200019N0150001N1+03601+01071100871ADDGA1001+999999999GF100991001001999999001001MA1999999093401MD1999999-0111REMSYN064AAXX  23154 41396 42965 00905 10360 20107 39340 40087 333 59011;
0166413960999992000042406004+15980+048950FM-12+070099999V0209999C000012200019N0150001N1+03201+01911101321ADDGA1001+999999999GF100991001001999999001001KA1120N+02271MA1999999093871MD1999999-0061REMSYN070AAXX  24064 41396 42965 00000 10320 20191 39387 40132 333 20227 59006;
0147413960999992000042421004+15980+048950FM-12+070099999V0209999C000012200019N0200001N1+02541+01581101161ADDGA1001+999999999GF100991001001999999001001MA1999999093671MD1999999+0041REMSYN064AAXX  24214 41396 42970 00000 10254 20158 39367 40116 333 58004;
0166413960999992000042706004+15980+048950FM-12+070099999V0200101N002612200019N0250001N1+03041+01801101231ADDGA1001+999999999GF100991001001999999001001KA1120N+02101MA1999999093761MD1999999+0021REMSYN070AAXX  27064 41396 42975 00105 10304 20180 39376 40123 333 20210 58002;
0166413960999992000042806004+15980+048950FM-12+070099999V0209999C000012200019N0200001N1+03071+01981101221ADDGA1001+999999999GF100991001001999999001001KA1120N+02151MA1999999093811MD1999999+0051REMSYN070AAXX  28064 41396 42970 00000 10307 20198 39381 40122 333 20215 58005;
0184413960999992000042815004+15980+048950FM-12+070099999V0201501N048322200019N0250001N1+99999+99999100781ADDGA1031+007509089GF104991031081008001001011MA1999999093381MD1999999+0101REMSYN082AAXX  28154 41396 42575 41594 19353 29129 39338 40078 83801 333 58010 83825 84070;EQDQ01+004833WOSPD 
0159413960999992000042909004+15980+048950FM-12+070099999V0209999C000012200019N0250001N1+03551+01661101251ADDGA1011+007509029GF102991011011008001001011MA1999999093761MD1999999+0121REMSYN076AAXX  29094 41396 42575 20000 10355 20166 39376 40125 81101 333 58012 81825;
0189413960999992000042912004+15980+048950FM-12+070099999V0203601N002612200019N0250001N1+03751+00611101051ADDAA199000091GA1021+007509029GF102991021011008001001001MA1999999093541MD1999999+0221REMSYN076AAXX  29124 41396 32575 23605 10375 20061 39354 40105 82100 333 58022 82825;EQDQ01  00002PRCP99
0165413960999992000042915004+15980+048950FM-12+070099999V0200901N002612200019N0250001N1+03501+01161101021ADDGA1011+007509089GF102991011011008001001011MA1999999093491MD1999999+0111REMSYN082AAXX  29154 41396 42575 20905 10350 20116 39349 40102 81101 333 58011 81825 82070;
0178413960999992000042918004+15980+048950FM-12+070099999V0201601N003612200019N0250001N1+03171+01541101211ADDGA1011+010509029GF101991011011999999001001KA1120M+03821MA1999999093761MD1999999+0151REMSYN082AAXX  29184 41396 42975 11607 10317 20154 39376 40121 81100 333 10382 58015 81835;
0147413960999992000042921004+15980+048950FM-12+070099999V0201501N003112200019N0250001N1+02851+02021101371ADDGA1001+999999999GF100991001001999999001001MA1999999093861MD1999999+0071REMSYN064AAXX  29214 41396 42575 01506 10285 20202 39386 40137 333 58007;
0203413960999992000043012004+15980+048950FM-12+070099999V0200901N007712200019N0080001N1+03681+01191100981ADDAA199000091AY101061AY201061GA1031+007509029GF104991031011008001001011MA1999999093561MW1071REMSYN082AAXX  30124 41396 31558 40915 10368 20119 39356 40098 70700 83101 333 5800/ 83825;EQDQ01  00002PRCP99
0178413960999992000050106004+15980+048950FM-12+070099999V0201801N003112200019N0250001N1+02971+01851101471ADDGA1021+009009029GF103991021011008001001011KA1120N+02421MA1999999094041MD1999999-0011REMSYN082AAXX  01064 41396 42575 31806 10297 20185 39404 40147 82101 333 20242 59001 82830;
0178413960999992000050206004+15980+048950FM-12+070099999V0209999C000012200019N0200001N1+03001+01841101551ADDGA1021+060009019GF102991001001999999001011KA1120N+02261MA1999999094101MD1999999+0061REMSYN082AAXX  02064 41396 42970 20000 10300 20184 39410 40155 80001 333 20226 58006 82070;
0159413960999992000050209004+15980+048950FM-12+070099999V0209999C000012200019N0200001N1+03451+01561101361ADDGA1021+009009029GF102991021011008001001001MA1999999093891MD1999999+0071REMSYN076AAXX  02094 41396 42570 20000 10345 20156 39389 40136 82100 333 58007 82830;
0147413960999992000050221004+15980+048950FM-12+070099999V0209999C000012200019N0200001N1+02561+01471101551ADDGA1001+999999999GF100991001001999999001001MA1999999094001MD1999999+0161REMSYN064AAXX  02214 41396 42970 00000 10256 20147 39400 40155 333 58016;
0178413960999992000050306004+15980+048950FM-12+070099999V0209999C000012200019N0200001N1+02951+01031101641ADDGA1011+030009079GF102991011001999999031011KA1120N+01851MA1999999094171MD1999999+0071REMSYN082AAXX  03064 41396 42970 20000 10295 20103 39417 40164 81031 333 20185 58007 81360;
0159413960999992000050309004+15980+048950FM-12+070099999V0209999C000012200019N0150001N1+03461+00721101481ADDGA1031+060009019GF103991001001999999001011MA1999999094051MD1999999+0161REMSYN076AAXX  03094 41396 42965 30000 10346 20072 39405 40148 80001 333 58016 83070;
0189413960999992000050312004+15980+048950FM-12+070099999V0200201N002612200019N0200001N1+03721+00651101191ADDAA199000091GA1021+060009019GF102991001001999999001011MA1999999093781MD1999999+0151REMSYN076AAXX  03124 41396 32970 20205 10372 20065 39378 40119 80001 333 58015 82070;EQDQ01  00002PRCP99
0145413960999992000050315004+15980+048950FM-12+070099999V0201801N003612200019N0200001N1+03421+00501101131ADDGA1021+060009019GF102991001001999999001011MA1999999093721REMSYN076AAXX  03154 41396 42970 21807 10342 20050 39372 40113 80001 333 50009 82070;
0166413960999992000050318004+15980+048950FM-12+070099999V0209999C000012200019N0200001N1+03001+00701101461ADDGA1001+999999999GF100991001001999999001001KA1120M+03771MA1999999094011MD1999999+0041REMSYN070AAXX  03184 41396 42970 00000 10300 20070 39401 40146 333 10377 58004;
0166413960999992000050406004+15980+048950FM-12+070099999V0202401N002612200019N0200001N1+02831+01471101621ADDGA1001+999999999GF100991001001999999001001KA1120N+01901MA1999999094221MD1999999+0051REMSYN070AAXX  04064 41396 42970 02405 10283 20147 39422 40162 333 20190 58005;
0147413960999992000050409004+15980+048950FM-12+070099999V0201701N002612200019N0200001N1+03481+00222101451ADDGA1001+999999999GF100991001001999999001001MA1999999094021MD1999999-0031REMSYN064AAXX  04094 41396 42970 01705 10348 20022 39402 40145 333 59003;
0177413960999992000050412004+15980+048950FM-12+070099999V0200901N002612200019N0200001N1+03701+00301101121ADDAA199000091GA1001+999999999GF100991001001999999001001MA1999999093711MD1999999-0071REMSYN064AAXX  04124 41396 32970 00905 10370 20030 39371 40112 333 59007;EQDQ01  00002PRCP99
0166413960999992000050506004+15980+048950FM-12+070099999V0209999C000012200019N0250001N1+02901+01071101521ADDGA1001+999999999GF100991001001999999001001KA1120N+01651MA1999999094051MD1999999-0171REMSYN070AAXX  05064 41396 42975 00000 10290 20107 39405 40152 333 20165 59017;
0177413960999992000050512004+15980+048950FM-12+070099999V0201401N002612200019N0200001N1+03641+00111101041ADDAA199000091GA1001+999999999GF100991001001999999001001MA1999999093611MD1999999-0101REMSYN064AAXX  05124 41396 32970 01405 10364 20011 39361 40104 333 59010;EQDQ01  00002PRCP99
0175413960999992000050518004+15980+048950FM-12+070099999V0209999C000012200019N0250001N1+02871+01201101311ADDAJ100009199999999GA1001+999999999GF100991001001999999001001IA1249KA1120M+03701MA1999999093861REMSYN070AAXX  05184 41396 42975 00000 10287 2012/ 39386 40131 333 10370 48000;
0166413960999992000050606004+15980+048950FM-12+070099999V0209999C000012200019N0250001N1+02801+01501101551ADDGA1001+999999999GF100991001001999999001001KA1120N+01901MA1999999094081MD1999999+0031REMSYN070AAXX  06064 41396 42975 00000 10280 20150 39408 40155 333 20190 58003;
0182413960999992000050618004+15980+048950FM-12+070099999V0201701N002612200019N0200001N1+03021+01041101371ADDAA199000091GA1001+999999999GF100991001001999999001001KA1120M+03671MA1999999093901REMSYN070AAXX  06184 41396 32970 01705 10302 20104 39390 40137 333 10367 5880=;EQDQ01  00002PRCP99
0159413960999992000050709004+15980+048950FM-12+070099999V0201801N005112200019N0250001N1+99999+99999101291ADDGA1011+009009029GF101991011001008001001001MA1999999093861MD1999999-0041REMSYN076AAXX  07094 41396 42575 11810 10/// 20/// 39386 40129 81000 333 59004 81830;
0189413960999992000050712004+15980+048950FM-12+070099999V0201701N004112200019N0250001N1+99999+99999101161ADDAA199000091GA1021+009009029GF102991021011008001001001MA1999999093631MD1999999-0031REMSYN076AAXX  07124 41396 32575 21708 10/// 20/// 39363 40116 82100 333 59003 82830;EQDQ01  00002PRCP99
0159413960999992000050715004+15980+048950FM-12+070099999V0201501N004112200019N0250001N1+99999+99999101181ADDGA1011+009009029GF101991011011008001001001MA1999999093681MD1999999-0031REMSYN076AAXX  07154 41396 42575 11508 10/// 2//// 39368 40118 81100 333 59003 81830;
0166413960999992000050806004+15980+048950FM-12+070099999V0209999C000012200019N0250001N1+99999+99999101451ADDGA1001+999999999GF100991001001999999001001KA1120N+01761MA1999999093981MD1999999-0141REMSYN070AAXX  08064 41396 42975 00000 10/// 20/// 39398 40145 333 20176 59014;
0171413960999992000050812004+15980+048950FM-12+070099999V0201601N003612200019N0200001N1+99999+99999999999ADDAA199000091GA1001+999999999GF100991001001999999001001MA1999999093501MD1999999-0131REMSYN058AAXX  08124 41396 32970 01607 10/// 20/// 39350 333 59013;EQDQ01  00002PRCP99
0177413960999992000050912004+15980+048950FM-12+070099999V0200901N005112200019N0150001N1+03951-00491100921ADDAA199000091GA1001+999999999GF100991001001999999001001MA1999999093491MD1999999-0011REMSYN064AAXX  09124 41396 32965 00910 10395 21049 39349 40092 333 59001;EQDQ01  00002PRCP99
0177413960999992000051012004+15980+048950FM-12+070099999V0200801N002612200019N0150001N1+03931+00471100941ADDAA199000091GA1001+999999999GF100991001001999999001001MA1999999093491MD1999999+0001REMSYN064AAXX  10124 41396 32965 00805 10393 20047 39349 40094 333 58000;EQDQ01  00002PRCP99
0159413960999992000051015004+15980+048950FM-12+070099999V0201401N002612200019N0150001N1+03601-00451100931ADDGA1011+009009029GF101991011011008001001001MA1999999093471MD1999999-0011REMSYN076AAXX  10154 41396 42565 11405 10360 21045 39347 40093 81100 333 59001 81830;
0145413960999992000051106004+15980+048950FM-12+070099999V0209999C000012200019N0250001N1+03101+00741101461ADDGA1001+999999999GF100991001001999999001001KA1120N+01841MD1999999+0061REMSYN064AAXX  11064 41396 42975 00000 10310 20074 40146 333 20184 58006;
0177413960999992000051112004+15980+048950FM-12+070099999V0200501N005112200019N0200001N1+04051+00391100911ADDAA199000091GA1001+999999999GF100991001001999999001001MA1999999093501MD1999999+0011REMSYN064AAXX  11124 41396 32970 00510 10405 20039 39350 40091 333 58001;EQDQ01  00002PRCP99
0166413960999992000051118004+15980+048950FM-12+070099999V0201501N002612200019N0200001N1+03301+00801101141ADDGA1001+999999999GF100991001001999999001001KA1120M+04101MA1999999093671MD1999999-0031REMSYN070AAXX  11184 41396 42970 01505 10330 20080 39367 40114 333 10410 59003;
0166413960999992000051206004+15980+048950FM-12+070099999V0209999C000012200019N0200001N1+03201+00911101401ADDGA1001+999999999GF100991001001999999001001KA1120N+01951MA1999999093931MD1999999-0051REMSYN070AAXX  12064 41396 42970 00000 10320 20091 39393 40140 333 20195 59005;
0147413960999992000051209004+15980+048950FM-12+070099999V0201301N004112200019N0120001N1+03901+00411101191ADDGA1001+999999999GF100991001001999999001001MA1999999093741MD1999999-0021REMSYN064AAXX  12094 41396 42962 01308 10390 20041 39374 40119 333 59002;
0177413960999992000051212004+15980+048950FM-12+070099999V0200901N003612200019N0120001N1+04001+00431100921ADDAA199000091GA1001+999999999GF100991001001999999001001MA1999999093491MD1999999-0011REMSYN064AAXX  12124 41396 32962 00907 10400 20043 39349 40092 333 59001;EQDQ01  00002PRCP99
0147413960999992000051215004+15980+048950FM-12+070099999V0200301N003612200019N0120001N1+03831+00501100841ADDGA1001+999999999GF100991001001999999001001MA1999999093431MD1999999-0071REMSYN064AAXX  12154 41396 42962 00307 10383 20050 39343 40084 333 59007;
0166413960999992000051218004+15980+048950FM-12+070099999V0209999C000012200019N0120001N1+03151+00521101031ADDGA1001+999999999GF100991001001999999001001KA1120M+04051MA1999999093601MD1999999-0071REMSYN070AAXX  12184 41396 42962 00000 10315 20052 39360 40103 333 10405 59007;
0194413960999992000051306004+15980+048950FM-12+070099999V0209999C000012200019N0060001N1+03301+01261101361ADDAY101061AY201061GA1001+999999999GF100991001001999999001001KA1120N+02001MA1999999093931MD1999999+0001MW1061REMSYN076AAXX  13064 41396 41956 00000 10330 20126 39393 40136 70600 333 20200 58000;
0175413960999992000051409004+15980+048950FM-12+070099999V0200301N002612200019N0070001N1+03901+00631101171ADDAY101031AY201031GA1001+999999999GF100991001001999999001001MA1999999093781MD1999999-0021MW1061REMSYN070AAXX  14094 41396 41957 00305 10390 20063 39378 40117 70600 333 59002;
0215413960999992000051412004+15980+048950FM-12+070099999V0209999C000012200019N0090001N1+04101+00541100961ADDAA199000091AY101061AY201061GA1001+999999999GF100991001001999999001001MA1999999093531MD1999999+0011REMSYN070AAXX  14124 41396 31959 00000 10410 20054 39353 40096 76600 333 58001;EQDQ01+000662PRSWM1Q02  00002PRCP99
0159413960999992000051415004+15980+048950FM-12+070099999V0209999C000012200019N0100001N1+03671+01391100931ADDGA1011+009009029GF101991011011999999001001MA1999999093461MD1999999-0031REMSYN076AAXX  14154 41396 42960 10000 10367 20139 39346 40093 81100 333 59003 81830;
0166413960999992000051418004+15980+048950FM-12+070099999V0200301N002612200019N0120001N1+03281+01201101141ADDGA1001+999999999GF100991001001999999001001KA1120M+04171MA1999999093631MD1999999-0091REMSYN070AAXX  14184 41396 42962 00305 10328 20120 39363 40114 333 10417 59009;
0147413960999992000051421004+15980+048950FM-12+070099999V0209999C000012200019N0120001N1+02691+01211101211ADDGA1001+999999999GF100991001001999999001001MA1999999093731MD1999999-0031REMSYN064AAXX  14214 41396 42962 00000 10269 20121 39373 40121 333 59003;
0177413960999992000051512004+15980+048950FM-12+070099999V0200501N002612200019N0100001N1+04151+00821100881ADDAA199000091GA1001+999999999GF100991001001999999001001MA1999999093471MD1999999-0061REMSYN064AAXX  15124 41396 32960 00505 10415 20082 39347 40088 333 59006;EQDQ01  00002PRCP99
0166413960999992000051606004+15980+048950FM-12+070099999V0202301N001512200019N0090001N1+03331+01061101261ADDGA1001+999999999GF100991001001999999001001KA1120N+01961MA1999999093811MD1999999-0151REMSYN070AAXX  16064 41396 42959 02303 10333 20106 39381 40126 333 20196 59015;
0175413960999992000051609004+15980+048950FM-12+070099999V0200301N005112200019N0090001N1+04101+00861101041ADDAY101031AY201031GA1001+999999999GF100991001001999999001001MA1999999093631MD1999999-0101MW1061REMSYN070AAXX  16094 41396 41959 00310 10410 20086 39363 40104 70600 333 59010;
0159413960999992000051612004+15980+048950FM-12+070099999V0200901N003612200019N0150001N1+04101+01061100821ADDAA199000091GA1001+999999999GF100991001001999999001001MA1999999093381REMSYN060AAXX  16124 41396 32965 00907 10410 20106 39338 40082 59009;EQDQ01  00002PRCP99
0166413960999992000051618004+15980+048950FM-12+070099999V0209999C000012200019N0150001N1+02871+01561100931ADDGA1001+999999999GF100991001001999999001001KA1120M+04201MA1999999093501MD1999999-0021REMSYN070AAXX  16184 41396 42965 00000 10287 20156 39350 40093 333 10420 59002;
0166413960999992000051706004+15980+048950FM-12+070099999V0209999C000012200019N0100001N1+03301+00951101201ADDGA1001+999999999GF100991001001999999001001KA1120N+02011MA1999999093751MD1999999-0061REMSYN070AAXX  17064 41396 42960 00000 10330 20095 39375 40120 333 20201 59006;
0175413960999992000051709004+15980+048950FM-12+070099999V0203601N002612200019N0090001N1+04011+00961101001ADDAY101031AY201031GA1001+999999999GF100991001001999999001001MA1999999093571MD1999999-0161MW1061REMSYN070AAXX  17094 41396 41959 03605 10401 20096 39357 40100 70600 333 59016;
0177413960999992000051712004+15980+048950FM-12+070099999V0209999C000012200019N0120001N1+04271+01291100621ADDAA199000091GA1001+999999999GF100991001001999999001001MA1999999093231MD1999999-0151REMSYN064AAXX  17124 41396 32962 00000 10427 20129 39323 40062 333 59015;EQDQ01  00002PRCP99
0166413960999992000051806004+15980+048950FM-12+070099999V0209999C000012200019N0150001N1+03431+00961101031ADDGA1001+999999999GF100991001001999999001001KA1120N+02201MA1999999093601MD1999999-0151REMSYN070AAXX  18064 41396 42965 00000 10343 20096 39360 40103 333 20220 59015;
0147413960999992000051809004+15980+048950FM-12+070099999V0202801N003612200019N0130001N1+04101+01021100891ADDGA1001+999999999GF100991001001999999001001MA1999999093511MD1999999-0061REMSYN064AAXX  18094 41396 42963 02807 10410 20102 39351 40089 333 59006;
0177413960999992000051812004+15980+048950FM-12+070099999V0209999C000012200019N0130001N1+04261+01431100591ADDAA199000091GA1001+999999999GF100991001001999999001001MA1999999093201MD1999999-0031REMSYN064AAXX  18124 41396 32963 00000 10426 20143 39320 40059 333 59003;EQDQ01  00002PRCP99
0150413960999992000051818004+15980+048950FM-12+070099999V0200801N002612200019N0130001N1+03641+01531100701ADDGF102991999999999999999999KA1120M+04341MA1999999093311MD1999999-0141REMSYN070AAXX  18184 41396 42963 20805 10364 20153 39331 40070 333 10434 59014;
0178413960999992000051906004+15980+048950FM-12+070099999V0202701N001512200019N0130001N1+03421+01281100931ADDGA1041+075009019GF104991001001999999001011KA1120N+02291MA1999999093511MD1999999-0091REMSYN082AAXX  19064 41396 42963 42703 10342 20128 39351 40093 80001 333 20229 59009 84075;
0189413960999992000051912004+15980+048950FM-12+070099999V0201401N001512200019N0130001N1+04331+01851100481ADDAA199000091GA1021+012009029GF102991021011012501001001MA1999999093051MD1999999-0151REMSYN076AAXX  19124 41396 32663 21403 10433 20185 39305 40048 82100 333 59015 82840;EQDQ01  00002PRCP99
0165413960999992000051915004+15980+048950FM-12+070099999V0201301N001512200019N0150001N1+04131+01711100531ADDGA1031+012009089GF104991031081012501001011MA1999999093061MD1999999-0011REMSYN082AAXX  19154 41396 42665 41303 10413 20171 39306 40053 83801 333 59001 83840 84075;
0215413960999992000052006004+15980+048950FM-12+070099999V0209999C000012200019N0100001N1+03641+01741100911ADDGA1091+000309009GF109991091001999999001011KA1120N+02401MA1999999093501REMSYN082AAXX  20064 41396 42960 20000 10364 20174 39350 40091 80001 333 20240 89001 82070;EQDQ01+000022SCOTCVQ02+000002SCOTLCQ03+000012SCOHCG
0159413960999992000052009004+15980+048950FM-12+070099999V0209999C000012200019N0100001N1+04201+01341100731ADDGA1011+060009019GF101991001001999999001011MA1999999093301MD1999999-0071REMSYN076AAXX  20094 41396 42960 10000 10420 20134 39330 40073 80001 333 59007 81070;
0189413960999992000052012004+15980+048950FM-12+070099999V0200901N003112200019N0100001N1+04341+02592100571ADDAA199000091GA1021+009009029GF102991021011008001001001MA1999999093101MD1999999+0001REMSYN076AAXX  20124 41396 32560 20906 10434 20259 39310 40057 82100 333 59000 82830;EQDQ01  00002PRCP99
0165413960999992000052015004+15980+048950FM-12+070099999V0209999C000012200019N0150001N1+03971+01851100521ADDGA1011+009009089GF102991011011008001001011MA1999999093071MD1999999+0011REMSYN082AAXX  20154 41396 42565 20000 10397 20185 39307 40052 81101 333 58001 81830 82070;
0178413960999992000052018004+15980+048950FM-12+070099999V0200801N007712200019N0150001N1+03901+00771100661ADDGA1021+060009019GF102991001001999999001011KA1120M+04401MA1999999093251MD1999999+0051REMSYN082AAXX  20184 41396 42965 20815 10390 20077 39325 40066 80001 333 10440 58005 82070;
0189413960999992000052112004+15980+048950FM-12+070099999V0200501N004112200019N0150001N1+04401+01241100561ADDAA199000091GA1041+060009019GF104991001001999999001011MA1999999093171MD1999999+0071REMSYN076AAXX  21124 41396 32965 40508 10440 20124 39317 40056 80001 333 58007 84070;EQDQ01  00002PRCP99
0169413960999992000052118004+15980+048950FM-12+070099999V0202901N999992200019N0040001N1+03801+00901100801ADDGF104991999999002501999999KA1120M+04441MA1999999093351MD1999999+0101REMSYN070AAXX  21184 41396 41396 42965 10380 20090 39335 40080 333 10444 58010;EQDQ01+003343WOSPD 
0153413960999992000052121004+15980+048950FM-12+070099999V0200301N002612200019N0250001N1+99999+99999100791ADDGA1011+060009019GF101991001001999999001011MA1999999093361MD1999999+0021REMSYN070AAXX  21214 41396 42975 10305 20132 39336 40079 80001 333 58002 81070;
0169413960999992000052209004+15980+048950FM-12+070099999V0201201N004612200019N0090001N1+04081+01161999999ADDAY101031AY201031GA1001+999999999GF100991001001999999001001MA1999999093461MD1999999+0101MW1061REMSYN064AAXX  22094 41396 41959 01209 10408 20116 39346 70600 333 58010;
0177413960999992000052212004+15980+048950FM-12+070099999V0209999C000012200019N0100001N1+04251+01301100601ADDAA199000091GA1001+999999999GF100991001001999999001001MA1999999093181MD1999999+0011REMSYN064AAXX  22124 41396 32960 00000 10425 20130 39318 40060 333 58001;EQDQ01  00002PRCP99
0147413960999992000052215004+15980+048950FM-12+070099999V0200501N006212200019N0150001N1+04081+01131100631ADDGA1001+999999999GF100991001001999999001001MA1999999093201MD1999999+0031REMSYN064AAXX  22154 41396 42965 00512 10408 20113 39320 40063 333 58003;
0147413960999992000052303004+15980+048950FM-12+070099999V0209999C000012200019N0150001N1+02331+01521101021ADDGA1001+999999999GF100991001001999999001001MA1999999093551MD1999999+0021REMSYN064AAXX  23034 41396 42965 00000 10233 20152 39355 40102 333 58002;
0175413960999992000052309004+15980+048950FM-12+070099999V0200901N003612200019N0080001N1+04021+01241100931ADDAY101031AY201031GA1001+999999999GF100991001001999999001001MA1999999093541MD1999999+0081MW1061REMSYN070AAXX  23094 41396 41958 00907 10402 20124 39354 40093 70600 333 58008;
0205413960999992000052312004+15980+048950FM-12+070099999V0203601N005112200019N0090001N1+04251+01311100711ADDAA199000091AY101061AY201061GA1001+999999999GF100991001001999999001001MA1999999093261MD1999999+0081MW1061REMSYN070AAXX  23124 41396 31959 03610 10425 20131 39326 40071 70600 333 58008;EQDQ01  00002PRCP99
0194413960999992000052406004+15980+048950FM-12+070099999V0209999C000012200019N0040001N1+03401+01481101031ADDAY101061AY201061GA1001+999999999GF100991001001999999001001KA1120N+02211MA1999999093601MD1999999-0121MW1061REMSYN076AAXX  24064 41396 41940 00000 10340 20148 39360 40103 70600 333 20221 59012;
0177413960999992000052512004+15980+048950FM-12+070099999V0209999C000012200019N0130001N1+04201+01251100541ADDAA199000091GA1001+999999999GF100991001001999999001001MA1999999093131MD1999999-0071REMSYN064AAXX  25124 41396 32963 00000 10420 20125 39313 40054 333 59007;EQDQ01  00002PRCP99
0147413960999992000052521004+15980+048950FM-12+070099999V0209999C000012200019N0150001N1+03171+01201100801ADDGA1001+999999999GF100991001001999999001001MA1999999093331MD1999999-0041REMSYN064AAXX  25214 41396 42965 00000 10317 20120 39333 40080 333 59004;
0206413960999992000052606004+15980+048950FM-12+070099999V0209999C000012200019N0080001N1+03351+00351100831ADDAY101061AY201061GA1021+000159019GF102991001001999999001011KA1120N+02151MA1999999093401MD1999999-0181MW1061REMSYN088AAXX  26064 41396 41958 20000 10335 20035 39340 40083 70600 80001 333 20215 59018 82000;
0175413960999992000052609004+15980+048950FM-12+070099999V0209999C000012200019N0090001N1+04061+00091100581ADDAY101031AY201031GA1001+999999999GF100991001001999999001001MA1999999093191MD1999999-0191MW1061REMSYN070AAXX  26094 41396 41959 00000 10406 20009 39319 40058 70600 333 59019;
0147413960999992000052615004+15980+048950FM-12+070099999V0200301N005112200019N0100001N1+04011+00641100451ADDGA1001+999999999GF100991001001999999001001MA1999999092941MD1999999-0161REMSYN064AAXX  26154 41396 42960 00310 10401 20064 39294 40045 333 59016;
0166413960999992000052618004+15980+048950FM-12+070099999V0209999C000012200019N0100001N1+03391+00361100561ADDGA1001+999999999GF100991001001999999001001KA1120M+04281MA1999999093111MD1999999-0171REMSYN070AAXX  26184 41396 42960 00000 10339 20036 39311 40056 333 10428 59017;
0147413960999992000052621004+15980+048950FM-12+070099999V0209999C000012200019N0100001N1+03161+00661100611ADDGA1001+999999999GF100991001001999999001001MA1999999093161MD1999999-0171REMSYN064AAXX  26214 41396 42960 00000 10316 20066 39316 40061 333 59017;
0151413960999992000052706004+15980+048950FM-12+070099999V0209999C000012200019N0080001N1+03401+01801100801ADDAY101061AY201061GA1001+999999999GF100991001001999999001001MA1999999093351MW1061REMSYN060AAXX  27064 41396 41958 00000 10340 20180 39335 40080 70600;
0147413960999992000052709004+15980+048950FM-12+070099999V0200801N002612200019N0100001N1+04121+01451100581ADDGA1001+999999999GF100991001001999999001001MA1999999093171MD1999999-0021REMSYN064AAXX  27094 41396 42960 00805 10412 20145 39317 40058 333 59002;
0177413960999992000052712004+15980+048950FM-12+070099999V0200901N002612200019N0120001N1+04251+01781100351ADDAA199000091GA1001+999999999GF100991001001999999001001MA1999999092861MD1999999-0101REMSYN064AAXX  27124 41396 32962 00905 10425 20178 39286 40035 333 59010;EQDQ01  00002PRCP99
0147413960999992000052715004+15980+048950FM-12+070099999V0200401N007712200019N0150001N1+04001+01381100421ADDGA1001+999999999GF100991001001999999001001MA1999999092941MD1999999+0001REMSYN064AAXX  27154 41396 42965 00415 10400 20138 39294 40042 333 58000;
0178413960999992000052809004+15980+048950FM-12+070099999V0201201N002612200019N0150001N1+03951+99999100691ADDGA1021+060009019GF102991001001999999001011MA1999999093301MD1999999+0131REMSYN076AAXX  28094 41396 42965 21205 10395 20395 39330 40069 80001 333 58013 82070;EQDQ01+003951ATOD  
0145413960999992000052815004+15980+048950FM-12+070099999V0200801N006212200019N0200001N1+03951+01761100541ADDGA1021+075009019GF102991001001999999001011MA1999999093061REMSYN076AAXX  28154 41396 42970 20812 10395 20176 39306 40054 80001 333 57012 82075;
0197413960999992000052818004+15980+048950FM-12+070099999V0209999C000012200019N9999999N1+03201+01821100751ADDGA1021+060009019GF102991001001999999001011KA1120M+04241MA1999999093311MD1999999+0141REMSYN082AAXX  28184 41396 4/70/ 20000 10320 20182 39331 40075 80001 333 10424 58014 82070;EQDQ01+017502SCOLCB
0159413960999992000052915004+15980+048950FM-12+070099999V0200301N006712200019N0100001N1+03991+01291100581ADDGA1021+060009019GF102991001001999999001011MA1999999093081MD1999999+0021REMSYN076AAXX  29154 41396 42960 20313 10399 20129 39308 40058 80001 333 58002 82070;
0147413960999992000052921004+15980+048950FM-12+070099999V0209999C000012200019N0100001N1+03221+01811100831ADDGA1001+999999999GF100991001001999999001001MA1999999093361MD1999999-0051REMSYN064AAXX  29214 41396 42960 00000 10322 20181 39336 40083 333 59005;
0166413960999992000053006004+15980+048950FM-12+070099999V0209999C000012200019N0120001N1+03341+01931100971ADDGA1001+999999999GF100991001001999999001001KA1120N+02161MA1999999093521MD1999999-0061REMSYN070AAXX  30064 41396 42962 00000 10334 20193 39352 40097 333 20216 59006;
0175413960999992000053009004+15980+048950FM-12+070099999V0201001N002612200019N0060001N1+03951+02281100761ADDAY101031AY201031GA1001+999999999GF100991001001999999001001MA1999999093371MD1999999+0021MW1061REMSYN070AAXX  30094 41396 41956 01005 10395 20228 39337 40076 70600 333 58002;
0181413960999992000053012004+15980+048950FM-12+070099999V0200901N003612200019N0150001N1+04151+00811100661ADDAA199000091AY101061AY201061GA1001+999999999GF100991001001999999001001MA1999999093121MW1061REMSYN060AAXX  30124 41396 31965 00907 10415 20081 39312 40066 70600;EQDQ01  00002PRCP99
0147413960999992000053015004+15980+048950FM-12+070099999V0203301N003612200019N0150001N1+03881+00441100601ADDGA1001+999999999GF100991001001999999001001MA1999999093131MD1999999+0051REMSYN064AAXX  30154 41396 42965 03307 10388 20044 39313 40060 333 58005;
0194413960999992000053106004+15980+048950FM-12+070099999V0209999C000012200019N0090001N1+03281+00741100961ADDAY101061AY201061GA1001+999999999GF100991001001999999001001KA1120N+01901MA1999999093531MD1999999+0011MW1061REMSYN076AAXX  31064 41396 41959 00000 10328 20074 39353 40096 70600 333 20190 58001;
0189413960999992000053112004+15980+048950FM-12+070099999V0201601N002612200019N0150001N1+03951-00351100591ADDAA199000091GA1031+045009079GF103991021001999999031001MA1999999093151MD1999999+0031REMSYN076AAXX  31124 41396 32965 31605 10395 21035 39315 40059 82030 333 58003 83365;EQDQ01  00002PRCP99
