0235418590999992000010100004+25730+089230FM-12+003499999V0203101N00101036001CN0008001N1+01271+01251101531ADDAA106000091AY141061AY241061GA1041+004809069GF106991041051008001021001MA1999999101111MD1999999+0091MW1021REMSYN100AAXX  01004 41859 31508 63102 10127 20125 30111 40153 70244 84520 333 56790 58009 70000 84616 85360;EQDQ01  00002PRCP06
0211418590999992000010106004+25730+089230FM-12+003499999V0209999C000012200019N0040001N1+02201+01201101741ADDAA106000091AY101061AY241061GA1001+999999999GF100991001001999999001001MA1999999101331MD1999999+0041MW1051REMSYN076AAXX  01064 41859 31940 00000 10220 20120 30133 40174 70504 333 58004 70000;EQDQ01  00002PRCP06
0230418590999992000010112004+25730+089230FM-12+003499999V0200501N001012200019N0030001N1+01941+01401101441ADDAA106000091AY101061AY201061GA1001+999999999GF100991001001999999001001KA1120M+02461MA1999999101031MD1999999-0031MW1051REMSYN082AAXX  01124 41859 31930 00502 10194 20140 30103 40144 70500 333 10246 59003 70000;EQDQ01  00002PRCP06
0211418590999992000010118004+25730+089230FM-12+003499999V0203601N001012200019N0025001N1+01411+01301101631ADDAA106000091AY101061AY201061GA1001+999999999GF100991001001999999001001MA1999999101211MD1999999+0041MW1051REMSYN076AAXX  01184 41859 31925 03602 10141 20130 30121 40163 70500 333 58004 70000;EQDQ01  00002PRCP06
0211418590999992000010200004+25730+089230FM-12+003499999V0209999C000012200019N0025001N1+01151+01151101621ADDAA106000091AY101061AY201061GA1001+999999999GF100991001001999999001001MA1999999101201MD1999999+0091MW1051REMSYN076AAXX  02004 41859 31925 00000 10115 20115 30120 40162 70500 333 58009 70000;EQDQ01  00002PRCP06
0211418590999992000010206004+25730+089230FM-12+003499999V0203601N002612200019N0050001N1+02251+01201101631ADDAA106000091AY101061AY201061GA1001+999999999GF100991001001999999001001MA1999999101231MD1999999-0101MW1051REMSYN076AAXX  02064 41859 31950 03605 10225 20120 30123 40163 70500 333 59010 70000;EQDQ01  00002PRCP06
0211418590999992000010218004+25730+089230FM-12+003499999V0203101N001012200019N9999999N1+01461+01351101471ADDAA106000091AY101061AY201061GA1001+999999999GF100991001001999999001001MA1999999101251MD1999999-0111MW1051REMSYN076AAXX  02184 41859 319// 03102 10146 20135 30125 40147 70500 333 59011 70000;EQDQ01  00002PRCP06
0211418590999992000010300004+25730+089230FM-12+003499999V0209999C000010003019N0002001N1+01201+01201101401ADDAA106000091AY141061AY241061GA1091+999999999GF109991091999999999999999MA1999999100991MD1999999-0211MW1431REMSYN076AAXX  03004 41859 31902 90000 10120 20120 30099 40140 74344 333 59021 70000;EQDQ01  00002PRCP06
0215418590999992000010306004+25730+089230FM-12+003499999V0203101N002112200019N0030001N1+01701+01301101561ADDAA106000091AY121061AY211061GA1021+036009079GF102991021001999999031001MA1999999101141MW1101REMSYN094AAXX  03064 41859 31930 23104 10170 20130 30114 40156 71021 82030 333 56090 5900/ 70000 82362;EQDQ01  00002PRCP06
0230418590999992000010412004+25730+089230FM-12+003499999V0203201N002112200019N0030001N1+01601+01401101301ADDAA106000091AY121061AY201061GA1001+999999999GF100991001001999999001001KA1120M+01941MA1999999100891MD1999999+0141MW1051REMSYN082AAXX  04124 41859 31930 03204 10160 20140 30089 40130 70520 333 10194 58014 70000;EQDQ01  00002PRCP06
0217418590999992000010600004+25730+089230FM-12+003499999V0203101N001010003019N0002001N1+01041+01041101381ADDAA106000091AY141061AY241061GA1091+999999999GF109991091999999999999999MA1999999100941MD1999999-0151MW1051REMSYN082AAXX  06004 41859 31902 93102 10104 20104 30094 40138 70544 89/// 333 59015 70000;EQDQ01  00002PRCP06
0223418590999992000010606004+25730+089230FM-12+003499999V0203101N001010012019N0020001N1+02301+01201101611ADDAA106000091AY141061AY241061GA1091+999999999GF109991091999999999999999MA1999999101191MD1999999-0071MW1101REMSYN088AAXX  06064 41859 31920 93102 10230 20120 30119 40161 71044 89/// 333 56999 59007 70000;EQDQ01  00002PRCP06
0217418590999992000010700004+25730+089230FM-12+003499999V0203101N001010001519N0001001N1+00941+00941101361ADDAA106000091AY141061AY201061GA1091+999999999GF109991091999999999999999MA1999999100951MD1999999-0021MW1051REMSYN082AAXX  07004 41859 31901 93102 10094 20094 30095 40136 70540 89/// 333 59002 70000;EQDQ01  00002PRCP06
0259418590999992000010706004+25730+089230FM-12+003499999V0203101N003110024019N0008001N1+01181+01101101681ADDAA106000091AY141061AY241061GA1061+002409079GA2041+005409069GF108991071071002501011999MA1999999101261MW1441REMSYN106AAXX  07064 41859 31308 83106 10118 20110 30126 40168 74544 8771/ 333 5619/ 5800/ 70000 86708 84618 88459;EQDQ01+000452PRSWM1Q02  00002PRCP06
0230418590999992000010712004+25730+089230FM-12+003499999V0209999C000012200019N0020001N1+01521+01301101321ADDAA106000091AY101061AY201061GA1001+999999999GF100991001001999999001001KA1120M+01811MA1999999100911MD1999999+0071MW1101REMSYN082AAXX  07124 41859 31920 00000 10152 20130 30091 40132 71000 333 10181 58007 70000;EQDQ01  00002PRCP06
0211418590999992000010718004+25730+089230FM-12+003499999V0203101N003112200019N0010001N1+01071+01071101511ADDAA106000091AY141061AY241061GA1001+999999999GF100991001001999999001001MA1999999101091MD1999999+0091MW1411REMSYN076AAXX  07184 41859 31910 03106 10107 20107 30109 40151 74144 333 58009 70000;EQDQ01  00002PRCP06
0211418590999992000010800004+25730+089230FM-12+003499999V0209999C000010003019N0005001N1+00751+00751101451ADDAA106000091AY101061AY201061GA1091+999999999GF109991091999999999999999MA1999999101031MD1999999+0081MW1451REMSYN076AAXX  08004 41859 31905 90000 10075 20075 30103 40145 74500 333 58008 70000;EQDQ01  00002PRCP06
0211418590999992000010806004+25730+089230FM-12+003499999V0202201N001012200019N0040001N1+01901+01201101571ADDAA106000091AY101061AY201061GA1001+999999999GF100991001001999999001001MA1999999101161MD1999999-0101MW1051REMSYN076AAXX  08064 41859 31940 02202 10190 20120 30116 40157 70500 333 59010 70000;EQDQ01  00002PRCP06
0248418590999992000010812004+25730+089230FM-12+003499999V0209999C000012200019N0040001N1+01801+01401101201ADDAA106000091AY101061AY201061GA1021+030009079GF102991021001999999041001KA1120M+02241MA1999999100801MD1999999-0111MW1051REMSYN100AAXX  08124 41859 31940 20000 10180 20140 30080 40120 70500 82040 333 10224 5609/ 59011 70000 82360;EQDQ01  00002PRCP06
0211418590999992000010906004+25730+089230FM-12+003499999V0202701N001012200019N0050001N1+02111+01101101481ADDAA106000091AY101061AY201061GA1001+999999999GF100991001001999999001001MA1999999101071MD1999999-0091MW1051REMSYN076AAXX  09064 41859 31950 02702 10211 20110 30107 40148 70500 333 59009 70000;EQDQ01  00002PRCP06
0230418590999992000010912004+25730+089230FM-12+003499999V0209999C000012200019N0030001N1+01801+01301101261ADDAA106000091AY101061AY201061GA1001+999999999GF100991001001999999001001KA1120M+02291MA1999999100851MD1999999+0051MW1051REMSYN082AAXX  09124 41859 31930 00000 10180 20130 30085 40126 70500 333 10229 58005 70000;EQDQ01  00002PRCP06
0273418590999992000011000004+25730+089230FM-12+003499999V0209999C000010054019N0004001N1+00921+00921101381ADDAA106000091AY141061AY241061GA1041+003009079GA2031+005409069GF108991071071002501011999MA1999999100971MD1999999+0021MW1441REMSYN106AAXX  10004 41859 31304 80000 10092 20092 30097 40138 74544 8771/ 333 5679/ 58002 70000 84710 83618 88459;EQDQ01+000452PRSWM1Q02  00002PRCP06
0211418590999992000011006004+25730+089230FM-12+003499999V0202701N000512200019N0040001N1+02021+01101101461ADDAA106000091AY141061AY241061GA1001+999999999GF100991001001999999001001MA1999999101051MD1999999-0021MW1051REMSYN076AAXX  10064 41859 31940 02701 10202 20110 30105 40146 70544 333 59002 70000;EQDQ01  00002PRCP06
0230418590999992000011012004+25730+089230FM-12+003499999V0209999C000012200019N0030001N1+01741+01241101241ADDAA106000091AY101061AY201061GA1001+999999999GF100991001001999999001001KA1120M+02301MA1999999100831MD1999999-0021MW1051REMSYN082AAXX  10124 41859 31930 00000 10174 20124 30083 40124 70500 333 10230 59002 70000;EQDQ01  00002PRCP06
0211418590999992000011018004+25730+089230FM-12+003499999V0209999C000012200019N0020001N1+01471+01201101461ADDAA106000091AY101061AY201061GA1001+999999999GF100991001001999999001001MA1999999101061MD1999999+0001MW1101REMSYN076AAXX  10184 41859 31920 00000 10147 20120 30106 40146 71000 333 58000 70000;EQDQ01  00002PRCP06
0211418590999992000011100004+25730+089230FM-12+003499999V0209999C000012200019N0040001N1+01061+01001101471ADDAA106000091AY101061AY201061GA1001+999999999GF100991001001999999001001MA1999999101071MD1999999+0081MW1101REMSYN076AAXX  11004 41859 31940 00000 10106 20100 30107 40147 71000 333 58008 70000;EQDQ01  00002PRCP06
0211418590999992000011106004+25730+089230FM-12+003499999V0200501N001512200019N0040001N1+02101+01201101611ADDAA106000091AY101061AY201061GA1001+999999999GF100991001001999999001001MA1999999101201MD1999999+0151MW1051REMSYN076AAXX  11064 41859 31940 00503 10210 20120 30120 40161 70500 333 58015 70000;EQDQ01  00002PRCP06
0230418590999992000011112004+25730+089230FM-12+003499999V0209999C000012200019N0030001N1+01941+01401101231ADDAA106000091AY101061AY201061GA1001+999999999GF100991001001999999001001KA1120M+02481MA1999999100831MD1999999+0001MW1051REMSYN082AAXX  11124 41859 31930 00000 10194 20140 30083 40123 70500 333 10248 58000 70000;EQDQ01  00002PRCP06
0211418590999992000011200004+25730+089230FM-12+003499999V0200501N002112200019N0040001N1+01201+01201101371ADDAA106000091AY101061AY201061GA1001+999999999GF100991001001999999001001MA1999999100961MD1999999-0091MW1101REMSYN076AAXX  12004 41859 31940 00504 10120 20120 30096 40137 71000 333 59009 70000;EQDQ01  00002PRCP06
0230418590999992000011212004+25730+089230FM-12+003499999V0209999C000012200019N0030001N1+02001+01401101181ADDAA106000091AY101061AY201061GA1001+999999999GF100991001001999999001001KA1120M+02471MA1999999100781MD1999999-0041MW1051REMSYN082AAXX  12124 41859 31930 00000 10200 20140 30078 40118 70500 333 10247 59004 70000;EQDQ01  00002PRCP06
0211418590999992000011218004+25730+089230FM-12+003499999V0200901N001512200019N0050001N1+01561+01501101341ADDAA106000091AY101061AY201061GA1001+999999999GF100991001001999999001001MA1999999100931MD1999999-0111MW1051REMSYN076AAXX  12184 41859 31950 00903 10156 20150 30093 40134 70500 333 59011 70000;EQDQ01  00002PRCP06
0229418590999992000011300004+25730+089230FM-12+003499999V0200701N003110360019N0030001N1+01401+01201101281ADDAA106000091AY121061AY221061GA1051+036009079GF105991051001999999031001MA1999999100871MD1999999-0091MW1051REMSYN094AAXX  13004 41859 31930 50706 10140 20120 30087 40128 70522 85030 333 56090 59009 7000/ 85362;EQDQ01  00002PRCP06
0229418590999992000011306004+25730+089230FM-12+003499999V0200501N003112200019N0050001N1+02261+01301101371ADDAA106000091AY111061AY221061GA1031+030009079GF103991031001999999041001MA1999999100971MD1999999-0151MW1051REMSYN094AAXX  13064 41859 31950 30506 10226 20130 30097 40137 70512 83040 333 56090 59015 70000 83360;EQDQ01  00002PRCP06
0230418590999992000011312004+25730+089230FM-12+003499999V0209999C000012200019N0025001N1+02061+01701101031ADDAA106000091AY101061AY201061GA1001+999999999GF100991001001999999001001KA1120M+02461MA1999999100631MD1999999-0151MW1051REMSYN082AAXX  13124 41859 31925 00000 10206 20170 30063 40103 70500 333 10246 59015 70000;EQDQ01  00002PRCP06
0209418590999992000011318004+25730+089230FM-12+003499999V0200501N001012200019N0005001N1+01641+01501101151ADDAA106000091AY141061AY241061GA1031+036009079GF103991999999999999999999MA1999999100721MW1101REMSYN088AAXX  13184 41859 31905 30502 10164 20150 30072 40115 71044 333 56090 5901/ 70000 83362;EQDQ01  00002PRCP06
0233418590999992000011400004+25730+089230FM-12+003499999V0200501N001012200019N0025001N1+01451+01401101021ADDAA124000091AY111061AY201061GA1041+036009079GF104991041001999999031001MA1999999100711MD1999999-0261MW1101REMSYN098    AAXX  14004 41859 31925 40502 10145 20140 30071 40102 71010 84030 333 56090 59026 70000 84362;EQDQ01  00002PRCP24
0234418590999992000011412004+25730+089230FM-12+003499999V0202701N001512200019N0030001N1+02161+01701100911ADDAA124000091AY101061AY201061GA1001+999999999GF100991001001999999001001KA1120M+02621MA1999999100511MD1999999-0121MW1051REMSYN086    AAXX  14124 41859 31930 02703 10216 20170 30051 40091 70500 333 10262 59012 70000;EQDQ01  00002PRCP24
0215418590999992000011418004+25730+089230FM-12+003499999V0202701N001012200019N0020001N1+01501+01501101101ADDAA124000091AY101061AY201061GA1001+999999999GF100991001001999999001001MA1999999100691MD1999999-0051MW1101REMSYN080    AAXX  14184 41859 31920 02702 10150 20150 30069 40110 71000 333 59005 70000;EQDQ01  00002PRCP24
0215418590999992000011500004+25730+089230FM-12+003499999V0202701N001012200019N0020001N1+01361+01361101101ADDAA124000091AY101061AY201061GA1001+999999999GF100991001001999999001001MA1999999100691MD1999999+0081MW1101REMSYN080    AAXX  15004 41859 31920 02702 10136 20136 30069 40110 71000 333 58008 70000;EQDQ01  00002PRCP24
0215418590999992000011506004+25730+089230FM-12+003499999V0202701N001012200019N0045001N1+02241+01541101311ADDAA124000091AY101061AY201061GA1001+999999999GF100991001001999999001001MA1999999100911MD1999999+0261MW1051REMSYN080    AAXX  15064 41859 31945 02702 10224 20154 30091 40131 70500 333 58026 70000;EQDQ01  00002PRCP24
0260418590999992000011512004+25730+089230FM-12+003499999V0202301N00211007501CN0035001N1+02161+01401101091ADDAA124000091GA1021+005409069GA2031+007509089GA3041+024009049GF107991031041004501071001KA1120M+02581MA1999999100691REMSYN116    AAXX  15124 41859 32435 72304 10216 20140 30069 40109 83470 333 10258 56590 5801/ 70000 82618 83825 84458 86362;EQDQ01  00002PRCP24
0225418590999992000011606004+25730+089230FM-12+003499999V0202501N002110360019N0050001N1+02101+01301101601ADDAA124000091AY121061AY221061GA1021+005409069GF105991021051008001031001MA1999999101191MW1051REMSYN104    AAXX  16064 41859 31550 52504 10210 20130 30119 40160 70522 82530 333 56990 5802/ 70000 82618 84362;EQDQ01  00002PRCP24
0215418590999992000011700004+25730+089230FM-12+003499999V0202301N001012200019N0030001N1+01021+01001101261ADDAA124000091AY101061AY201061GA1001+999999999GF100991001001999999001001MA1999999101201MD1999999+0181MW1101REMSYN080    AAXX  17004 41859 31930 02302 10102 20100 30120 40126 71000 333 58018 70000;EQDQ01  00002PRCP24
0215418590999992000011706004+25730+089230FM-12+003499999V0202301N003112200019N0050001N1+02011+00501101781ADDAA124000091AY101061AY201061GA1001+999999999GF100991001001999999001001MA1999999101371MD1999999+0181MW1051REMSYN080    AAXX  17064 41859 31950 02306 10201 20050 30137 40178 70500 333 58018 70000;EQDQ01  00002PRCP24
0215418590999992000011718004+25730+089230FM-12+003499999V0202701N002112200019N0030001N1+01101+01001101731ADDAA124000091AY101061AY201061GA1001+999999999GF100991001001999999001001MA1999999101311MD1999999+0131MW1101REMSYN080    AAXX  17184 41859 31930 02704 10110 20100 30131 40173 71000 333 58013 70000;EQDQ01  00002PRCP24
0215418590999992000011800004+25730+089230FM-12+003499999V0203101N001512200019N0040001N1+00981+00881101601ADDAA124000091AY101061AY201061GA1001+999999999GF100991001001999999001001MA1999999101181MD1999999-0091MW1101REMSYN080    AAXX  18004 41859 31940 03103 10098 20088 30118 40160 71000 333 59009 70000;EQDQ01  00002PRCP24
0215418590999992000011806004+25730+089230FM-12+003499999V0200501N001012200019N0040001N1+02051+01201101721ADDAA124000091AY101061AY201061GA1001+999999999GF100991001001999999001001MA1999999101311MD1999999-0061MW1051REMSYN080    AAXX  18064 41859 31940 00502 10205 20120 30131 40172 70500 333 59006 70000;EQDQ01  00002PRCP24
0215418590999992000011906004+25730+089230FM-12+003499999V0209999C000012200019N0040001N1+02201+01301101231ADDAA124000091AY101061AY201061GA1001+999999999GF100991001001999999001001MA1999999100831MD1999999-0481MW1051REMSYN080    AAXX  19064 41859 31940 00000 10220 20130 30083 40123 70500 333 59048 70000;EQDQ01  00002PRCP24
0234418590999992000011912004+25730+089230FM-12+003499999V0209999C000012200019N0030001N1+02021+01501101001ADDAA124000091AY101061AY201061GA1001+999999999GF100991001001999999001001KA1120M+02501MA1999999100591MD1999999-0351MW1051REMSYN086    AAXX  19124 41859 31930 00000 10202 20150 30059 40100 70500 333 10250 59035 70000;EQDQ01  00002PRCP24
0211418590999992000011918004+25730+089230FM-12+003499999V0202701N000512200019N0030001N1+01451+01401101061ADDAA124000091AY101061AY201061GA1001+999999999GF100991001001999999001001MA1999999100351MD1999999-0471MW1051REMSYN076AAXX  19184 41859 31930 02701 10145 20140 30035 40106 70500 333 59047 70000;EQDQ01  00002PRCP24
0211418590999992000012000004+25730+089230FM-12+003499999V0209999C000012200019N0020001N1+01271+01201100971ADDAA124000091AY101061AY201061GA1001+999999999GF100991001001999999001001MA1999999100561MD1999999-0281MW1051REMSYN076AAXX  20004 41859 31920 00000 10127 20120 30056 40097 70500 333 59028 70000;EQDQ01  00002PRCP24
0211418590999992000012006004+25730+089230FM-12+003499999V0202301N001512200019N0035001N1+01951+01401101061ADDAA124000091AY101061AY201061GA1001+999999999GF100991001001999999001001MA1999999100661MD1999999-0171MW1101REMSYN076AAXX  20064 41859 31935 02303 10195 20140 30066 40106 71000 333 59017 70000;EQDQ01  00002PRCP24
0230418590999992000012012004+25730+089230FM-12+003499999V0209999C000012200019N0030001N1+01901+01401100921ADDAA124000091AY101061AY201061GA1001+999999999GF100991001001999999001001KA1120M+02171MA1999999100521MD1999999-0071MW1051REMSYN082AAXX  20124 41859 31930 00000 10190 20140 30052 40092 70500 333 10217 59007 70000;EQDQ01  00002PRCP24
0211418590999992000012018004+25730+089230FM-12+003499999V0209999C000012200019N0015001N1+01381+01361101211ADDAA124000091AY101061AY201061GA1001+999999999GF100991001001999999001001MA1999999100801MD1999999+0151MW1101REMSYN076AAXX  20184 41859 31915 00000 10138 20136 30080 40121 71000 333 58015 70000;EQDQ01  00002PRCP24
0211418590999992000012106004+25730+089230FM-12+003499999V0200501N001012200019N0030001N1+02081+01381101621ADDAA124000091AY101061AY201061GA1001+999999999GF100991001001999999001001MA1999999101211MD1999999+0551MW1051REMSYN076AAXX  21064 41859 31930 00502 10208 20138 30121 40162 70500 333 58055 70000;EQDQ01  00002PRCP24
0230418590999992000012112004+25730+089230FM-12+003499999V0209999C000012200019N0035001N1+02081+01501101371ADDAA124000091AY101061AY201061GA1001+999999999GF100991001001999999001001KA1120M+02451MA1999999100971MD1999999+0451MW1051REMSYN082AAXX  21124 41859 31935 00000 10208 20150 30097 40137 70500 333 10245 58045 70000;EQDQ01  00002PRCP24
0229418590999992000012118004+25730+089230FM-12+003499999V0200501N003110300019N0030001N1+01581+01501101661ADDAA124000091AY121061AY221061GA1061+030009079GF106991061001999999031001MA1999999101241MD1999999+0441MW1051REMSYN094AAXX  21184 41859 31930 60506 10158 20150 30124 40166 70522 86030 333 56090 58044 70000 86360;EQDQ01  00002PRCP24
0211418590999992000012200004+25730+089230FM-12+003499999V0200901N003112200019N0030001N1+01401+01301101561ADDAA124000091AY101061AY211061GA1001+999999999GF100991001001999999001001MA1999999101141MD1999999+0281MW1051REMSYN076AAXX  22004 41859 31930 00906 10140 20130 30114 40156 70501 333 58028 70000;EQDQ01  00002PRCP24
0211418590999992000012206004+25730+089230FM-12+003499999V0200701N004112200019N0050001N1+02101+01501101561ADDAA124000091AY101061AY201061GA1001+999999999GF100991001001999999001001MA1999999101151MD1999999-0061MW1051REMSYN076AAXX  22064 41859 31950 00708 10210 20150 30115 40156 70500 333 59006 70000;EQDQ01  00002PRCP24
0211418590999992000012218004+25730+089230FM-12+003499999V0200501N002112200019N0030001N1+01541+01301101481ADDAA124000091AY101061AY201061GA1001+999999999GF100991001001999999001001MA1999999101061MD1999999-0181MW1051REMSYN076AAXX  22184 41859 31930 00504 10154 20130 30106 40148 70500 333 59018 70000;EQDQ01  00002PRCP24
0235418590999992000012306004+25730+089230FM-12+003499999V0200601N002110360019N0045001N1+02081+01501101501ADDAA124000091AY121061AY221061GA1031+004809069GF105991031051008001031001MA1999999101091MD1999999-0061MW1051REMSYN100AAXX  23064 41859 31545 50604 10208 20150 30109 40150 70522 83530 333 56290 59006 70000 83616 85362;EQDQ01  00002PRCP24
0254418590999992000012312004+25730+089230FM-12+003499999V0200501N000510360019N0030001N1+02001+01701101261ADDAA124000091AY121061AY201061GA1021+005409069GF105991031041004501031001KA1120M+02281MA1999999100861MD1999999+0031MW1051REMSYN106AAXX  23124 41859 31430 50501 10200 20170 30086 40126 70520 83430 333 10228 56990 58003 70000 82618 85362;EQDQ01  00002PRCP24
0235418590999992000012318004+25730+089230FM-12+003499999V0200501N003112200019N0030001N1+01641+01341101481ADDAA124000091AY121061AY211061GA1031+004509069GF104991031051004501031001MA1999999101061MD1999999+0001MW1051REMSYN100AAXX  23184 41859 31430 40506 10164 20134 30106 40148 70521 83530 333 56990 58000 70000 83615 83362;EQDQ01  00002PRCP24
0235418590999992000012400004+25730+089230FM-12+003499999V0200501N002110360019N0030001N1+01361+01261101521ADDAA124000091AY121061AY221061GA1041+004509069GF106991041051004501031001MA1999999101101MD1999999+0141MW1051REMSYN100AAXX  24004 41859 31430 60504 10136 20126 30110 40152 70522 84530 333 56990 58014 70000 84615 83362;EQDQ01  00002PRCP24
0235418590999992000012406004+25730+089230FM-12+003499999V0200501N001010360019N0050001N1+02041+01501101801ADDAA124000091AY121061AY221061GA1031+004509069GF105991031051004501031001MA1999999101391MD1999999+0301MW1051REMSYN100AAXX  24064 41859 31450 50502 10204 20150 30139 40180 70522 83530 333 56190 58030 70000 83615 84362;EQDQ01  00002PRCP24
0248418590999992000012412004+25730+089230FM-12+003499999V0209999C000012200019N0030001N1+02051+01501101561ADDAA124000091AY121061AY211061GA1031+120009079GF103991031001999999031001KA1120M+02331MA1999999101161MD1999999+0301MW1051REMSYN100AAXX  24124 41859 31930 30000 10205 20150 30116 40156 70521 83030 333 10233 56090 58030 70000 83382;EQDQ01  00002PRCP24
0211418590999992000012500004+25730+089230FM-12+003499999V0200501N002112200019N0030001N1+01341+01231101731ADDAA124000091AY101061AY201061GA1001+999999999GF100991001001999999001001MA1999999101311MD1999999+0271MW1101REMSYN076AAXX  25004 41859 31930 00504 10134 20123 30131 40173 71000 333 58027 70000;EQDQ01  00002PRCP24
0211418590999992000012506004+25730+089230FM-12+003499999V0200501N003112200019N0040001N1+02221+01301101921ADDAA124000091AY101061AY201061GA1001+999999999GF100991001001999999001001MA1999999101511MD1999999+0121MW1051REMSYN076AAXX  25064 41859 32940 00506 10222 20130 30151 40192 70500 333 58012 70000;EQDQ01  00002PRCP24
0230418590999992000012512004+25730+089230FM-12+003499999V0209999C000012200019N0030001N1+02121+01601101691ADDAA124000091AY101061AY201061GA1001+999999999GF100991001001999999001001KA1120M+02441MA1999999101281MD1999999+0121MW1051REMSYN082AAXX  25124 41859 31930 00000 10212 20160 30128 40169 70500 333 10244 58012 70000;EQDQ01  00002PRCP24
0211418590999992000012518004+25730+089230FM-12+003499999V0203601N000512200019N0030001N1+01501+01401101891ADDAA124000091AY101061AY201061GA1001+999999999GF100991001001999999001001MA1999999101481MD1999999+0151MW1051REMSYN076AAXX  25184 41859 31930 03601 10150 20140 30148 40189 70500 333 58015 70000;EQDQ01  00002PRCP24
0211418590999992000012600004+25730+089230FM-12+003499999V0203601N001012200019N0030001N1+01221+01201101941ADDAA124000091AY101061AY201061GA1001+999999999GF100991001001999999001001MA1999999101521MD1999999+0211MW1051REMSYN076AAXX  26004 41859 31930 03602 10122 20120 30152 40194 70500 333 58021 70000;EQDQ01  00002PRCP24
0211418590999992000012606004+25730+089230FM-12+003499999V0200501N005112200019N0050001N1+02301+01201101851ADDAA124000091AY101061AY201061GA1001+999999999GF100991001001999999001001MA1999999101451MD1999999-0061MW1051REMSYN076AAXX  26064 41859 31950 00510 10230 20120 30145 40185 70500 333 59006 70000;EQDQ01  00002PRCP24
0230418590999992000012612004+25730+089230FM-12+003499999V0209999C000012200019N0030001N1+02221+01401101601ADDAA124000091AY101061AY201061GA1001+999999999GF100991001001999999001001KA1120M+02571MA1999999101191MD1999999-0091MW1051REMSYN082AAXX  26124 41859 31930 00000 10222 20140 30119 40160 70500 333 10257 59009 70000;EQDQ01  00002PRCP24
0211418590999992000012700004+25730+089230FM-12+003499999V0202701N001012200019N0020001N1+01221+01201101641ADDAA124000091AY101061AY201061GA1001+999999999GF100991001001999999001001MA1999999101221MD1999999-0301MW1101REMSYN076AAXX  27004 41859 31920 02702 10122 20120 30122 40164 71000 333 59030 70000;EQDQ01  00002PRCP24
0211418590999992000012706004+25730+089230FM-12+003499999V0200501N002112200019N0060001N1+02361+01401101671ADDAA124000091AY101061AY201061GA1001+999999999GF100991001001999999001001MA1999999101271MD1999999-0181MW1051REMSYN076AAXX  27064 41859 31956 00504 10236 20140 30127 40167 70500 333 59018 70000;EQDQ01  00002PRCP24
0211418590999992000012718004+25730+089230FM-12+003499999V0209999C000012200019N0030001N1+01671+01501101551ADDAA124000091AY101061AY201061GA1001+999999999GF100991001001999999001001MA1999999101131MD1999999-0131MW1051REMSYN076AAXX  27184 41859 31930 00000 10167 20150 30113 40155 70500 333 59013 70000;EQDQ01  00002PRCP24
0222418590999992000012800004+25730+089230FM-12+003499999V0209999C00001036001CN0030001N1+01601+01501101471ADDAA101001091AY161061AY221061GA1041+004509069GF107991041041004501071001MA1999999101051MD1999999-0171MW1051REMSYN106AAXX  28004 41859 11430 70000 10160 20150 30105 40147 60015 70562 84470 333 56290 59017 70010 84615 86458;
0216418590999992000012806004+25730+089230FM-12+003499999V0202101N001010360019N0040001N1+02281+01501101621ADDAA124001091AY101061AY201061GA1021+004809069GF105991021051008001031001MA1999999101221MD1999999-0051MW1051REMSYN100AAXX  28064 41859 31540 52102 10228 20150 30122 40162 70500 82530 333 56590 59005 70010 82616 85362;
0211418590999992000012812004+25730+089230FM-12+003499999V0202301N002112200019N0030001N1+02201+01601101261ADDAA124001091AY111061AY201061GA1001+999999999GF100991001001999999001001KA1120M+02571MA1999999100861MD1999999-0191MW1051REMSYN082AAXX  28124 41859 31930 02304 10220 20160 30086 40126 70510 333 10257 59019 70010;
0229418590999992000012900004+25730+089230FM-12+003499999V0201301N001012200019N0030001N1+01401+01301101401ADDAA124000091AY121061AY221061GA1031+036009079GF103991031001999999031001MA1999999100991MD1999999-0061MW1101REMSYN094AAXX  29004 41859 31930 31302 10140 20130 30099 40140 71022 83030 333 56090 59006 70000 83362;EQDQ01  00002PRCP24
0276418590999992000012912004+25730+089230FM-12+003499999V0202701N001010360019N0030001N1+01941+01501101281ADDAA124000091AY121061AY221061GA1021+005409069GA2041+007509089GF105991041041008001031001KA1120M+02301MA1999999100881MD1999999+0021MW1051REMSYN112AAXX  29124 41859 31530 52702 10194 20150 30088 40128 70522 84430 333 10230 56690 58002 70000 82618 84825 85362;EQDQ01  00002PRCP24
0211418590999992000012918004+25730+089230FM-12+003499999V0201801N002112200019N0030001N1+01631+01531101451ADDAA124000091AY121061AY201061GA1001+999999999GF100991001001999999001001MA1999999101201MD1999999+0231MW1011REMSYN076AAXX  29184 41859 31930 01804 10163 20153 30120 40145 70120 333 58023 70000;EQDQ01  00002PRCP24
0211418590999992000013000004+25730+089230FM-12+003499999V0201601N002112200019N0030001N1+01321+01301101641ADDAA124000091AY101061AY201061GA1001+999999999GF100991001001999999001001MA1999999101221MD1999999+0231MW1101REMSYN076AAXX  30004 41859 31930 01604 10132 20130 30122 40164 71000 333 58023 70000;EQDQ01  00002PRCP24
0211418590999992000013006004+25730+089230FM-12+003499999V0201301N001012200019N0040001N1+02081+01401101841ADDAA124000091AY101061AY201061GA1001+999999999GF100991001001999999001001MA1999999101431MD1999999+0241MW1051REMSYN076AAXX  30064 41859 31940 01302 10208 20140 30143 40184 70500 333 58024 70000;EQDQ01  00002PRCP24
0230418590999992000013012004+25730+089230FM-12+003499999V0209999C000012200019N0035001N1+02001+01501101641ADDAA124000091AY101061AY201061GA1001+999999999GF100991001001999999001001KA1120M+02351MA1999999101231MD1999999+0351MW1051REMSYN082AAXX  30124 41859 31935 00000 10200 20150 30123 40164 70500 333 10235 58035 70000;EQDQ01  00002PRCP24
0211418590999992000013018004+25730+089230FM-12+003499999V0200901N001012200019N0030001N1+01491+01401101891ADDAA124000091AY101061AY201061GA1001+999999999GF100991001001999999001001MA1999999101471MD1999999+0141MW1101REMSYN076AAXX  30184 41859 31930 00902 10149 20140 30147 40189 71000 333 58014 70000;EQDQ01  00002PRCP24
0211418590999992000013100004+25730+089230FM-12+003499999V0200501N002112200019N0030001N1+01301+01301101821ADDAA124000091AY141061AY241061GA1001+999999999GF100991001001999999001001MA1999999101401MD1999999+0181MW1051REMSYN076AAXX  31004 41859 31930 00504 10130 20130 30140 40182 70544 333 58018 70000;EQDQ01  00002PRCP24
0211418590999992000013106004+25730+089230FM-12+003499999V0200501N001012200019N0050001N1+02141+01201101911ADDAA124000091AY101061AY201061GA1001+999999999GF100991001001999999001001MA1999999101501MD1999999+0071MW1051REMSYN076AAXX  31064 41859 31950 00502 10214 20120 30150 40191 70500 333 58007 70000;EQDQ01  00002PRCP24
0230418590999992000013112004+25730+089230FM-12+003499999V0209999C000012200019N0050001N1+02251+01401101441ADDAA124000091AY101061AY201061GA1001+999999999GF100991001001999999001001KA1120M+02711MA1999999101401MD1999999-0061MW1051REMSYN082AAXX  31124 41859 31950 00000 10225 20140 30140 40144 70500 333 10271 59006 70000;EQDQ01  00002PRCP24
0211418590999992000020100004+25730+089230FM-12+003499999V02099999999992200019N0030001N1+01351+01201101631ADDAA124000091AY101061AY201061GA1001+999999999GF100991001001999999001001MA1999999101211MD1999999-0191MW1051REMSYN076AAXX  01004 41859 31930 05002 10135 20120 30121 40163 70500 333 59019 70000;EQDQ01  00002PRCP24
0211418590999992000020106004+25730+089230FM-12+003499999V0200501N002112200019N0050001N1+02201+01401101731ADDAA124000091AY101061AY201061GA1001+999999999GF100991001001999999001001MA1999999101321MD1999999-0181MW1051REMSYN076AAXX  01064 41859 31950 00504 10220 20140 30132 40173 70500 333 59018 70000;EQDQ01  00002PRCP24
0264418590999992000020111004+25730+089230FM-12+003499999V0209999C000012200019N0030001N1+02141+01501101371ADDAA124000091AY101999AY201999GA1021+090009019GF102991001001999999001011KA1120M+02501MA1999999100971MD1999999-0261MW1051REMSYN100AAXX  01114 41859 31930 20000 10214 20150 30097 40137 70500 82001 333 10250 56009 59026 70000 82080;EQDQ01+000022SCOTLCQ02  00002PRCP24
0264418590999992000020112004+25730+089230FM-12+003499999V0209999C000012200019N0030001N1+02141+01501101371ADDAA124000091AY101061AY201061GA1021+090009019GF102991001001999999001011KA1120M+02501MA1999999100971MD1999999-0261MW1051REMSYN100AAXX  01124 41859 31930 20000 10214 20150 30097 40137 70500 82001 333 10250 56009 59026 70000 82080;EQDQ01+000022SCOTLCQ02  00002PRCP24
0244418590999992000020206004+25730+089230FM-12+003499999V0200501N008210045019N0040001N1+01561+01361101741ADDAA118007991AY161061AY221061GA1041+002409079GA2051+004509069GF108991061061002501021999MA1999999101321MD1999999+0001MW1021REMSYN112AAXX  02064 41859 11340 80516 10156 20136 30132 40174 60083 70262 8662/ 333 56199 58000 70129 84708 85615 88458;
0257418590999992000020212004+25730+089230FM-12+003499999V0200501N006210024019N0035001N1+01601+01301999999ADDAA112001091AY161061AY221061GA1051+002409079GA2061+004209069GF108991061061002501021999KA1120M+02141MA1999999101121MD1999999+0151MW1031REMSYN112AAXX  02124 41859 11335 80512 10160 20130 30112 60012 70362 8662/ 333 10214 56199 58015 70135 85708 86614 88457;
0248418590999992000020312004+25730+089230FM-12+003499999V0209999C000012200019N0040001N1+02071+01571101421ADDAA124000091AY101061AY201061GA1021+005409059GF102991021001004501031001KA1120M+02331MA1999999101011MD1999999-0111MW1051REMSYN100AAXX  03124 41859 31440 20000 10207 20157 30101 40142 70500 82030 333 10233 56900 59011 70000 82618;EQDQ01  00002PRCP24
0211418590999992000020318004+25730+089230FM-12+003499999V0200501N001012200019N0030001N1+01531+01401101621ADDAA124000091AY101061AY201061GA1001+999999999GF100991001001999999001001MA1999999101201MD1999999-0091MW1051REMSYN076AAXX  03184 41859 31930 00502 10153 20140 30120 40162 70500 333 59009 70000;EQDQ01  00002PRCP24
0211418590999992000020400004+25730+089230FM-12+003499999V0200501N001512200019N0030001N1+01311+01301101501ADDAA124000091AY101061AY201061GA1001+999999999GF100991001001999999001001MA1999999101081MD1999999-0201MW1051REMSYN076AAXX  04004 41859 31930 00503 10131 20130 30108 40150 70500 333 59020 70000;EQDQ01  00002PRCP24
0211418590999992000020406004+25730+089230FM-12+003499999V0200501N002112200019N0040001N1+02001+01601101601ADDAA124000091AY101061AY201061GA1001+999999999GF100991001001999999001001MA1999999101191MD1999999-0161MW1051REMSYN076AAXX  04064 41859 31940 00504 10200 20160 30119 40160 70500 333 59016 70000;EQDQ01  00002PRCP24
0230418590999992000020412004+25730+089230FM-12+003499999V0209999C000012200019N0035001N1+02041+01501101211ADDAA124000091AY121061AY201061GA1001+999999999GF100991001001999999001001KA1120M+02401MA1999999100811MD1999999-0201MW1051REMSYN082AAXX  04124 41859 31935 00000 10204 20150 30081 40121 70520 333 10240 59020 70000;EQDQ01  00002PRCP24
0211418590999992000020418004+25730+089230FM-12+003499999V0209999C000012200019N0030001N1+01451+01351101411ADDAA124000091AY101061AY201061GA1001+999999999GF100991001001999999001001MA1999999101001MD1999999-0201MW1101REMSYN076AAXX  04184 41859 31930 00000 10145 20135 30100 40141 71000 333 59020 70000;EQDQ01  00002PRCP24
0211418590999992000020500004+25730+089230FM-12+003499999V0209999C000012200019N0040001N1+01301+01281101311ADDAA124000091AY141061AY241061GA1001+999999999GF100991001001999999001001MA1999999100901MD1999999-0101MW1051REMSYN076AAXX  05004 41859 31940 00000 10130 20128 30090 40131 70544 333 59010 70000;EQDQ01  00002PRCP24
0257418590999992000020506004+25730+089230FM-12+003499999V0200501N001010240019N0040001N1+01901+01701101551ADDAA124000091AY121061AY221061GA1041+004209069GA2061+024009049GF108991041051004501071999MA1999999101141MD1999999-0051MW1051REMSYN106AAXX  05064 41859 31440 80502 10190 20170 30114 40155 70522 8457/ 333 56199 59005 70000 84614 86458 86362;EQDQ01  00002PRCP24
0276418590999992000020512004+25730+089230FM-12+003499999V0200501N001010042019N0030001N1+02001+01701101201ADDAA124000091AY121061AY221061GA1021+002709069GA2051+004209069GF108991051061002501021999KA1120M+02161MA1999999100801MD1999999-0011MW1051REMSYN112AAXX  05124 41859 31330 80502 10200 20170 30080 40120 70522 8562/ 333 10216 56399 59001 70000 82609 85614 88458;EQDQ01  00002PRCP24
0222418590999992000020518004+25730+089230FM-12+003499999V0200501N001010360019N0030001N1+01751+01701101311ADDAA112000791AY151061AY211061GA1031+004809069GF105991031051008001031001MA1999999100911MD1999999-0091MW1051REMSYN106AAXX  05184 41859 11530 50502 10175 20170 30091 40131 69902 70551 83530 333 56290 59009 79999 83616 85362;
0257418590999992000020600004+25730+089230FM-12+003499999V0200501N002112200019N0030001N1+01641+01501101321ADDAA124000791AY121061AY221061GA1031+003009079GA2051+004209069GF199999051061002501021999MA1999999100911MD1999999+0011MW1051REMSYN106AAXX  06004 41859 31330 30504 10164 20150 30091 40132 70522 8562/ 333 5629/ 58001 79999 83710 85614 88459;EQDQ01+000032SCOTCV
0263418590999992000020612004+25730+089230FM-12+003499999V0201301N00101036001CN0030001N1+02001+01801101201ADDAA124000191AY161061AY221061GA1021+003009079GA2041+004209069GF107991041061002501021001KA1120M+02311MA1999999100791MD1999999-0011MW1051REMSYN118AAXX  06124 41859 11330 71302 10200 20180 30079 40120 69924 70562 84620 333 10231 56690 59001 70002 82710 84614 86458;
0192418590999992000020618004+25730+089230FM-12+003499999V0201301N001012200019N0025001N1+01681+01601101351ADDAA124000391AY131061AY211061GA1001+999999999GF100991001001999999001001MA1999999100941MD1999999+0071MW1101REMSYN076AAXX  06184 41859 31925 01302 10168 20160 30094 40135 71031 333 58007 70002;
0210418590999992000020700004+25730+089230FM-12+003499999V0209999C000010018019N0006001N1+01581+01581101321ADDAA124000391AY101061AY201061GA1091+001809999GF109991091999999999999999MA1999999100911MD1999999+0001MW1451REMSYN094AAXX  07004 41859 31906 90000 10158 20158 30091 40132 74500 89/// 333 56999 58000 70002 89/06;
0238418590999992000020706004+25730+089230FM-12+003499999V0200501N001012200019N0045001N1+02201+01501101461ADDAA124000391AY121061AY211061GA1011+005409069GA2021+007509089GF104991021041004501031001MA1999999101051MD1999999-0021MW1051REMSYN106AAXX  07064 41859 31445 40502 10220 20150 30105 40146 70521 82430 333 56990 59002 70002 81618 82825 84362;
0276418590999992000020712004+25730+089230FM-12+003499999V0202701N001510045019N0040001N1+02201+01801101171ADDAA124000091AY121061AY221061GA1031+004209069GA2041+004509069GF106991061081004501041001KA1120M+02481MA1999999100771MD1999999-0021MW1051REMSYN112AAXX  07124 41859 31440 62703 10220 20180 30077 40117 70522 86840 333 10248 56290 59002 70000 83614 84615 86360;EQDQ01  00002PRCP24
0217418590999992000020800004+25730+089230FM-12+003499999V0209999C000010003019N0002001N1+01361+01361101211ADDAA124000091AY141061AY241061GA1091+999999999GF109991091999999999999999MA1999999100791MD1999999-0121MW1451REMSYN082AAXX  08004 41859 31902 90000 10136 20136 30079 40121 74544 89/// 333 59012 70000;EQDQ01  00002PRCP24
0243418590999992000020806004+25730+089230FM-12+003499999V0203201N002110045019N0030001N1+01881+01681101441ADDAA124000091AY141061AY201061GA1041+002409079GA2051+004509069GF108991061061002501021999MA1999999101031MW1051REMSYN106AAXX  08064 41859 31330 83204 10188 20168 30103 40144 70540 8662/ 333 56999 5902/ 70000 84708 85615 88458;EQDQ01  00002PRCP24
0248418590999992000020812004+25730+089230FM-12+003499999V0202701N001012200019N0035001N1+02041+01501101191ADDAA124000091AY121061AY211061GA1011+036009079GF101991011001999999031001KA1120M+02401MA1999999100791MD1999999+0021MW1051REMSYN100AAXX  08124 41859 31935 12702 10204 20150 30079 40119 70521 81030 333 10240 56090 58002 70000 81362;EQDQ01  00002PRCP24
0211418590999992000020818004+25730+089230FM-12+003499999V0203101N001512200019N0030001N1+01551+01551101361ADDAA124000091AY101061AY201061GA1001+999999999GF100991001001999999001001MA1999999100951MD1999999+0101MW1051REMSYN076AAXX  08184 41859 31930 03103 10155 20155 30095 40136 70500 333 58010 70000;EQDQ01  00002PRCP24
0273418590999992000020900004+25730+089230FM-12+003499999V0202701N001510021019N0004001N1+01241+01241101311ADDAA124000091AY141061AY241061GA1061+002109079GA2031+004509069GF108991071071002501021999MA1999999100901MD1999999+0111MW1421REMSYN106AAXX  09004 41859 31304 82703 10124 20124 30090 40131 74344 8772/ 333 5669/ 58011 70000 86707 83615 88459;EQDQ01+000432PRSWM1Q02  00002PRCP24
0223418590999992000020906004+25730+089230FM-12+003499999V0202101N00211004201CN0040001N1+01921+01401101451ADDAA124000091AY141061AY221061GA1031+002409069GF106991051071004501031001MA1999999101041MD1999999+0011MW1101REMSYN088AAXX  09064 41859 31440 62104 10192 20140 30104 40145 71042 85730 333 58001 70000 83708;EQDQ01  00002PRCP24
0214418590999992000020912004+25730+089230FM-12+003499999V0202701N003112200019N0040001N1+02001+01301101111ADDAA124000091AY121061AY201061GF103991999999999999999999KA1120M+02301MA1999999100711MD1999999-0081MW1051REMSYN082AAXX  09124 41859 31940 32706 10200 20130 30071 40111 70520 333 10230 59008 70000;EQDQ01  00002PRCP24
0211418590999992000020918004+25730+089230FM-12+003499999V0209999C000012200019N0030001N1+01381+01301101371ADDAA124000091AY101061AY201061GA1001+999999999GF100991001001999999001001MA1999999100961MD1999999+0011MW1101REMSYN076AAXX  09184 41859 31930 00000 10138 20130 30096 40137 71000 333 58001 70000;EQDQ01  00002PRCP24
0197418590999992000021000004+25730+089230FM-12+003499999V0209999C000012200019N0050001N1+01101+01101101371ADDAA199000091AY141061AY201061GA1001+999999999GF100991001001999999001001MA1999999100961MW1421REMSYN060AAXX  10004 41859 31950 00000 10110 20110 30096 40137 74340;EQDQ01+000432PRSWM1Q02  00002PRCP99
0211418590999992000021006004+25730+089230FM-12+003499999V0200501N001512200019N0050001N1+02141+01101101591ADDAA124000091AY141061AY201061GA1001+999999999GF100991001001999999001001MA1999999101181MD1999999+0141MW1051REMSYN076AAXX  10064 41859 31950 00503 10214 20110 30118 40159 70540 333 58014 70000;EQDQ01  00002PRCP24
0230418590999992000021012004+25730+089230FM-12+003499999V0209999C000012200019N0040001N1+02061+01401101341ADDAA124000091AY121061AY201061GA1001+999999999GF100991001001999999001001KA1120M+02361MA1999999100941MD1999999+0231MW1051REMSYN082AAXX  10124 41859 31940 00000 10206 20140 30094 40134 70520 333 10236 58023 70000;EQDQ01  00002PRCP24
0211418590999992000021018004+25730+089230FM-12+003499999V0209999C000012200019N0030001N1+01401+01301101481ADDAA124000091AY111061AY201061GA1001+999999999GF100991001001999999001001MA1999999101061MD1999999+0101MW1101REMSYN076AAXX  10184 41859 31930 00000 10140 20130 30106 40148 71010 333 58010 70000;EQDQ01  00002PRCP24
0211418590999992000021100004+25730+089230FM-12+003499999V0209999C000012200019N0020001N1+01061+01061101391ADDAA124000091AY101061AY201061GA1001+999999999GF100991001001999999001001MA1999999100981MD1999999+0021MW1101REMSYN076AAXX  11004 41859 31920 00000 10106 20106 30098 40139 71000 333 58002 70000;EQDQ01  00002PRCP24
0257418590999992000021112004+25730+089230FM-12+003499999V0209999C000010360019N0030001N1+02151+01401101291ADDAA124000021AY151061AY221061GA1011+003009079GA2041+004509069GF107991041061002501071001KA1120M+02501MA1999999100891MD1999999-0051MW1901REMSYN112AAXX  11124 41859 31330 70000 10215 20140 30089 40129 79052 84670 333 10250 56690 59005 70000 81710 84615 86362;
0238418590999992000021118004+25730+089230FM-12+003499999V0209999C000010045019N0030001N1+01821+01161101371ADDAA124000021AY121061AY221061GA1031+003009079GA2051+004509069GF108991051071002501071999MA1999999100971MD1999999-0061MW1051REMSYN106AAXX  11184 41859 31330 80000 10182 20116 30097 40137 70522 8577/ 333 5629/ 59006 70000 83710 85615 87459;
0244418590999992000021200004+25730+089230FM-12+003499999V0201301N002110042019N0030001N1+01661+01561101301ADDAA112000591AY151061AY221061GA1041+002409079GA2061+004209069GF108991061071002501021999MA1999999100891MD1999999-0091MW1501REMSYN112AAXX  12004 41859 11330 81304 10166 20156 30089 40130 69962 75052 8672/ 333 56299 59009 70006 84708 86614 88456;
0216418590999992000021206004+25730+089230FM-12+003499999V0200501N00151036001CN0040001N1+02201+01101101561ADDAA124000591AY121061AY221061GA1021+004209069GF106991021051004501031001MA1999999101151MD1999999+0051MW1051REMSYN100AAXX  12064 41859 31440 60503 10220 20110 30115 40156 70522 82530 333 56190 58005 70006 82614 84360;
0211418590999992000021212004+25730+089230FM-12+003499999V0209999C000012200019N0050001N1+02231+01401101251ADDAA124000591AY121061AY201061GA1001+999999999GF100991001001999999001001KA1120M+02521MA1999999100851MD1999999-0041MW1051REMSYN082AAXX  12124 41859 31950 00000 10223 20140 30085 40125 70520 333 10252 59004 70006;
0210418590999992000021218004+25730+089230FM-12+003499999V0209999C000012200019N0030001N1+01771+01601101401ADDAA124000591AY121061AY211061GA1031+036009079GF103991031001999999031001MA1999999101001MD1999999+0031MW1051REMSYN094AAXX  12184 41859 31930 30000 10177 20160 30100 40140 70521 83030 333 56090 58003 70006 83362;
0192418590999992000021300004+25730+089230FM-12+003499999V0209999C000012200019N0030001N1+01501+01401101321ADDAA124000021AY101061AY201061GA1001+999999999GF100991001001999999001001MA1999999100911MD1999999+0021MW1051REMSYN076AAXX  13004 41859 31930 00000 10150 20140 30091 40132 70500 333 58002 70000;
0211418590999992000021306004+25730+089230FM-12+003499999V0200501N002112200019N0050001N1+02361+01101101461ADDAA124000091AY101061AY201061GA1001+999999999GF100991001001999999001001MA1999999101061MD1999999-0091MW1051REMSYN076AAXX  13064 41859 31950 00504 10236 20110 30106 40146 70500 333 59009 70000;EQDQ01  00002PRCP24
0248418590999992000021312004+25730+089230FM-12+003499999V0209999C000012200019N0050001N1+02361+01601101181ADDAA124000091AY101061AY201061GA1011+009009029GF101991011011004501001001KA1120M+02701MA1999999100781MD1999999-0071MW1051REMSYN100AAXX  13124 41859 31450 10000 10236 20160 30078 40118 70500 81100 333 10270 56900 59007 70000 81830;EQDQ01  00002PRCP24
0211418590999992000021318004+25730+089230FM-12+003499999V0202701N001012200019N0030001N1+01801+01701101371ADDAA124000091AY111061AY201061GA1001+999999999GF100991001001999999001001MA1999999100591MD1999999-0031MW1051REMSYN076AAXX  13184 41859 31930 02702 10180 20170 30059 40137 70510 333 59003 70000;EQDQ01  00002PRCP24
0211418590999992000021400004+25730+089230FM-12+003499999V0202701N001512200019N0020001N1+01621+01601101341ADDAA124000091AY101061AY201061GA1001+999999999GF100991001001999999001001MA1999999100931MD1999999+0021MW1051REMSYN076AAXX  14004 41859 31920 02703 10162 20160 30093 40134 70500 333 58002 70000;EQDQ01  00002PRCP24
0211418590999992000021406004+25730+089230FM-12+003499999V0203101N002112200019N0050001N1+02201+01601101541ADDAA124000091AY101061AY201061GA1001+999999999GF100991001001999999001001MA1999999101131MD1999999+0071MW1051REMSYN076AAXX  14064 41859 31950 03104 10220 20160 30113 40154 70500 333 58007 70000;EQDQ01  00002PRCP24
0230418590999992000021412004+25730+089230FM-12+003499999V0202701N001012200019N0040001N1+02241+01301101281ADDAA124000091AY101061AY201061GA1001+999999999GF100991001001999999001001KA1120M+02581MA1999999100881MD1999999+0101MW1051REMSYN082AAXX  14124 41859 31940 02702 10224 20130 30088 40128 70500 333 10258 58010 70000;EQDQ01  00002PRCP24
0211418590999992000021418004+25730+089230FM-12+003499999V0209999C000012200019N0030001N1+01641+01101101511ADDAA124000091AY101061AY201061GA1001+999999999GF100991001001999999001001MA1999999101041MD1999999+0121MW1051REMSYN076AAXX  14184 41859 31930 00000 10164 20110 30104 40151 70500 333 58012 70000;EQDQ01  00002PRCP24
0211418590999992000021500004+25730+089230FM-12+003499999V0202701N001512200019N0030001N1+01221+00901101441ADDAA124000091AY101061AY201061GA1001+999999999GF100991001001999999001001MA1999999101021MD1999999+0091MW1051REMSYN076AAXX  15004 41859 31930 02703 10122 20090 30102 40144 70500 333 58009 70000;EQDQ01  00002PRCP24
0211418590999992000021506004+25730+089230FM-12+003499999V0202201N003112200019N0050001N1+02221+01101101571ADDAA124000091AY101061AY201061GA1001+999999999GF100991001001999999001001MA1999999101161MD1999999+0031MW1051REMSYN076AAXX  15064 41859 31950 02206 10222 20110 30116 40157 70500 333 58003 70000;EQDQ01  00002PRCP24
0264418590999992000021512004+25730+089230FM-12+003499999V0209999C000012200019N0050001N1+02101+01001101291ADDAA124000091AY111061AY201061GA1031+030009079GF104991999001999999001021KA1120M+02501MA1999999100891MD1999999+0011MW1051REMSYN100AAXX  15124 41859 31950 40000 10210 20100 30089 40129 70510 80002 333 10250 56009 58001 70000 83360;EQDQ01+000002SCOTLCQ02  00002PRCP24
0205418590999992000021518004+25730+089230FM-12+003499999V0203101N001012200019N0030001N1+01201+99999101501ADDAA124000091AY101061AY201061GA1001+999999999GF100991001001999999001001MA1999999101081MD1999999-0011MW1051REMSYN070AAXX  15184 41859 31930 03102 10120 30108 40150 70500 333 59001 70000;EQDQ01  00002PRCP24
0211418590999992000021600004+25730+089230FM-12+003499999V0203101N001012200019N0030001N1+01151+01001101381ADDAA124000091AY101061AY201061GA1001+999999999GF100991001001999999001001MA1999999100971MD1999999-0051MW1051REMSYN076AAXX  16004 41859 31930 03102 10115 20100 30097 40138 70500 333 59005 70000;EQDQ01  00002PRCP24
0211418590999992000021606004+25730+089230FM-12+003499999V0200501N001012200019N0040001N1+02381+01201101431ADDAA124000091AY101061AY201061GA1001+999999999GF100991001001999999001001MA1999999101031MD1999999-0131MW1051REMSYN076AAXX  16064 41859 31940 00502 10238 20120 30103 40143 70500 333 59013 70000;EQDQ01  00002PRCP24
0230418590999992000021612004+25730+089230FM-12+003499999V0202701N001012200019N0040001N1+02201+01401100991ADDAA124000091AY101061AY201061GA1001+999999999GF100991001001999999001001KA1120M+02651MA1999999100591MD1999999-0301MW1051REMSYN082AAXX  16124 41859 31940 02702 10220 20140 30059 40099 70500 333 10265 59030 70000;EQDQ01  00002PRCP24
0211418590999992000021618004+25730+089230FM-12+003499999V0203601N001012200019N0030001N1+01671+01501101131ADDAA124000091AY101061AY201061GA1001+999999999GF100991001001999999001001MA1999999100761MD1999999-0361MW1051REMSYN076AAXX  16184 41859 31930 03602 10167 20150 30076 40113 70500 333 59036 70000;EQDQ01  00002PRCP24
0211418590999992000021700004+25730+089230FM-12+003499999V0201801N001012200019N0030001N1+01381+01301101061ADDAA124000091AY101061AY201061GA1001+999999999GF100991001001999999001001MA1999999100651MD1999999-0321MW1051REMSYN076AAXX  17004 41859 31930 01802 10138 20130 30065 40106 70500 333 59032 70000;EQDQ01  00002PRCP24
0211418590999992000021706004+25730+089230FM-12+003499999V0202701N001512200019N0050001N1+02301+01301101161ADDAA124000091AY111061AY201061GA1001+999999999GF100991001001999999001001MA1999999100761MD1999999-0271MW1051REMSYN076AAXX  17064 41859 31950 02703 10230 20130 30076 40116 70510 333 59027 70000;EQDQ01  00002PRCP24
0230418590999992000021712004+25730+089230FM-12+003499999V0202301N001012200019N0040001N1+02251+01501100821ADDAA124000091AY101061AY201061GA1001+999999999GF100991001001999999001001KA1120M+02571MA1999999100421MD1999999-0171MW1051REMSYN082AAXX  17124 41859 31940 02302 10225 20150 30042 40082 70500 333 10257 59017 70000;EQDQ01  00002PRCP24
0211418590999992000021800004+25730+089230FM-12+003499999V0209999C000012200019N0030001N1+01221+01201101031ADDAA124000091AY101061AY201061GA1001+999999999GF100991001001999999001001MA1999999100621MD1999999-0031MW1101REMSYN076AAXX  18004 41859 31930 00000 10122 20120 30062 40103 71000 333 59003 70000;EQDQ01  00002PRCP24
0211418590999992000021806004+25730+089230FM-12+003499999V0202701N006212200019N0040001N1+02401+01101101221ADDAA124000091AY101061AY201061GA1001+999999999GF100991001001999999001001MA1999999100821MD1999999+0061MW1051REMSYN076AAXX  18064 41859 31940 02712 10240 20110 30082 40122 70500 333 58006 70000;EQDQ01  00002PRCP24
0248418590999992000021812004+25730+089230FM-12+003499999V0202301N001512200019N0050001N1+02211+01001100971ADDAA124000091AY111061AY201061GA1031+030009079GF103991031001999999031001KA1120M+02581MA1999999100571MD1999999+0151MW1051REMSYN100AAXX  18124 41859 31950 32303 10221 20100 30057 40097 70510 83030 333 10258 56090 58015 70000 83360;EQDQ01  00002PRCP24
0211418590999992000021818004+25730+089230FM-12+003499999V0202301N001012200019N0040001N1+01401+01101101181ADDAA124000091AY101061AY201061GA1001+999999999GF100991001001999999001001MA1999999100771MD1999999+0101MW1051REMSYN076AAXX  18184 41859 31940 02302 10140 20110 30077 40118 70500 333 58010 70000;EQDQ01  00002PRCP24
0211418590999992000021900004+25730+089230FM-12+003499999V0209999C000012200019N0040001N1+01071+01001101071ADDAA124000091AY101061AY201061GA1001+999999999GF100991001001999999001001MA1999999100661MD1999999+0041MW1051REMSYN076AAXX  19004 41859 31940 00000 10107 20100 30066 40107 70500 333 58004 70000;EQDQ01  00002PRCP24
0211418590999992000021918004+25730+089230FM-12+003499999V0202301N001012200019N0030001N1+01401+01201101301ADDAA124000091AY101061AY201061GA1001+999999999GF100991001001999999001001MA1999999100891MD1999999+0121MW1051REMSYN076AAXX  19184 41859 31930 02302 10140 20120 30089 40130 70500 333 58012 70000;EQDQ01  00002PRCP24
0190418590999992000022000004+25730+089230FM-12+003499999V0200501N001512200019N0030001N1+01141+01001101031ADDAA124000091AY101061AY201061GA1001+999999999GF100991001001999999001001MD1999999+0161MW1051REMSYN070AAXX  20004 41859 31930 00503 10114 20100 40103 70500 333 58016 70000;EQDQ01  00002PRCP24
0211418590999992000022006004+25730+089230FM-12+003499999V0203601N001012200019N0050001N1+02421+00821101351ADDAA124000091AY101061AY201061GA1001+999999999GF100991001001999999001001MA1999999100951MD1999999+0011MW1051REMSYN076AAXX  20064 41859 31950 03602 10242 20082 30095 40135 70500 333 58001 70000;EQDQ01  00002PRCP24
0230418590999992000022012004+25730+089230FM-12+003499999V0209999C000012200019N0040001N1+02201+00701101101ADDAA124000091AY101061AY201061GA1001+999999999GF100991001001999999001001KA1120M+02601MA1999999100701MD1999999-0011MW1051REMSYN082AAXX  20124 41859 31940 00000 10220 20070 30070 40110 70500 333 10260 59001 70000;EQDQ01  00002PRCP24
0211418590999992000022018004+25730+089230FM-12+003499999V0209999C000012200019N0020001N1+01301+01201101291ADDAA124000091AY101061AY201061GA1001+999999999GF100991001001999999001001MA1999999100881MD1999999-0011MW1051REMSYN076AAXX  20184 41859 31920 00000 10130 20120 30088 40129 70500 333 59001 70000;EQDQ01  00002PRCP24
0235418590999992000022100004+25730+089230FM-12+003499999V0200501N002110360019N0030001N1+01181+01101101251ADDAA124000091AY101061AY201061GA1031+004509069GF106991031051004501031001MA1999999100831MD1999999+0021MW1051REMSYN100AAXX  21004 41859 31430 60504 10118 20110 30083 40125 70500 83530 333 56990 58002 70000 83615 85362;EQDQ01  00002PRCP24
0248418590999992000022111004+25730+089230FM-12+003499999V0209999C000012200019N0040001N1+02001+99999101311ADDAA124000091AY121999AY221999GA1031+004509059GF104991031051004501071001KA1120M+02161MA1999999100911MD1999999+0211MW1051REMSYN100AAXX  21114 41859 31440 40000 10200 201/0 30091 40131 70522 83570 333 10216 56990 58021 70000 83615;EQDQ01  00002PRCP24
0254418590999992000022112004+25730+089230FM-12+003499999V0209999C000012200019N0040001N1+02001+01301101311ADDAA124000091AY121061AY221061GA1031+004509069GF104991031051004501071001KA1120M+02161MA1999999100911MD1999999+0211MW1051REMSYN106AAXX  21124 41859 31440 40000 10200 20130 30091 40131 70522 83570 333 10216 56990 58021 70000 83615 84458;EQDQ01  00002PRCP24
0211418590999992000022118004+25730+089230FM-12+003499999V0200501N001012200019N0030001N1+01451+01301101451ADDAA124000091AY101061AY201061GA1001+999999999GF100991001001999999001001MA1999999101031MD1999999+0151MW1051REMSYN076AAXX  21184 41859 31930 00502 10145 20130 30103 40145 70500 333 58015 70000;EQDQ01  00002PRCP24
0211418590999992000022200004+25730+089230FM-12+003499999V0200501N001512200019N0030001N1+01141+01001101351ADDAA124000091AY101061AY201061GA1001+999999999GF100991001001999999001001MA1999999100941MD1999999+0101MW1051REMSYN076AAXX  22004 41859 31930 00503 10114 20100 30094 40135 70500 333 58010 70000;EQDQ01  00002PRCP24
0211418590999992000022206004+25730+089230FM-12+003499999V0200901N002112200019N0050001N1+02261+01001101601ADDAA124000091AY101061AY201061GA1001+999999999GF100991001001999999001001MA1999999101201MD1999999+0011MW1051REMSYN076AAXX  22064 41859 31950 00904 10226 20100 30120 40160 70500 333 58001 70000;EQDQ01  00002PRCP24
0230418590999992000022212004+25730+089230FM-12+003499999V0202301N001012200019N0040001N1+02301+01201101281ADDAA124000091AY101061AY201061GA1001+999999999GF100991001001999999001001KA1120M+02651MA1999999100881MD1999999-0031MW1051REMSYN082AAXX  22124 41859 31940 02302 10230 20120 30088 40128 70500 333 10265 59003 70000;EQDQ01  00002PRCP24
0211418590999992000022218004+25730+089230FM-12+003499999V0209999C000012200019N0030001N1+01491+01391101421ADDAA124000091AY101061AY201061GA1001+999999999GF100991001001999999001001MA1999999101001MD1999999-0031MW1101REMSYN076AAXX  22184 41859 31930 00000 10149 20139 30100 40142 71000 333 59003 70000;EQDQ01  00002PRCP24
0211418590999992000022300004+25730+089230FM-12+003499999V0209999C000012200019N0020001N1+01251+01251101291ADDAA124000091AY101061AY201061GA1001+999999999GF100991001001999999001001MA1999999100881MD1999999-0061MW1101REMSYN076AAXX  23004 41859 31920 00000 10125 20125 30088 40129 71000 333 59006 70000;EQDQ01  00002PRCP24
0211418590999992000022306004+25730+089230FM-12+003499999V0202301N001012200019N0040001N1+02501+01101101551ADDAA124000091AY101061AY201061GA1001+999999999GF100991001001999999001001MA1999999101151MD1999999-0051MW1051REMSYN076AAXX  23064 41859 31940 02302 10250 20110 30115 40155 70500 333 59005 70000;EQDQ01  00002PRCP24
0230418590999992000022312004+25730+089230FM-12+003499999V0202701N001512200019N0040001N1+02441+00601101191ADDAA124000091AY101061AY201061GA1001+999999999GF100991001001999999001001KA1120M+02711MA1999999100791MD1999999-0091MW1051REMSYN082AAXX  23124 41859 31940 02703 10244 20060 30079 40119 70500 333 10271 59009 70000;EQDQ01  00002PRCP24
0213418590999992000022318004+25730+089230FM-12+003499999V0202701N002112200019N0030001N1+01561+01201101331ADDAA199000091AY131061AY201061GF103991031001999999031001MA1999999100921MD1999999-0041MW1051REMSYN094AAXX  23184 41859 31930 32704 10156 20120 30092 40133 70530 83030 333 58090 59004 70000 83362;EQDQ01  00002PRCP99
0229418590999992000022400004+25730+089230FM-12+003499999V0202901N001012200019N0030001N1+01261+01051101201ADDAA124000091AY121061AY221061GA1031+036009079GF103991031001999999031001MA1999999100791MD1999999-0091MW1051REMSYN094AAXX  24004 41859 31930 32902 10126 20105 30079 40120 70522 83030 333 56090 59009 70000 83362;EQDQ01  00002PRCP24
0210418590999992000022406004+25730+089230FM-12+003499999V0202701N002112200019N0050001N1+02501+00601101481ADDAA124050091AY101061AY201061GA1031+036009079GF103991031001999999031001MA1999999101081MD1999999-0071MW1051REMSYN094AAXX  24064 41859 31950 32704 10250 20060 30108 40148 70500 83030 333 56090 59007 70500 83362;
0248418590999992000022412004+25730+089230FM-12+003499999V0202701N002112200019N0050001N1+02301+00401101141ADDAA124000091AY111061AY201061GA1011+004509059GF101991011051004501031001KA1120M+02641MA1999999100741MD1999999-0051MW1051REMSYN100AAXX  24124 41859 31450 12704 10230 20040 30074 40114 70510 81530 333 10264 56900 59005 70000 81615;EQDQ01  00002PRCP24
0207418590999992000022418004+25730+089230FM-12+003499999V0202701N000512200019N0030001N1+01601+01301101351ADDAA124000091AY111061AY211061GF104991041001999999031001MA1999999100941MD1999999+0021MW1051REMSYN088AAXX  24184 41859 31930 42701 10160 20130 30094 40135 70511 84030 333 56090 58002 70000;EQDQ01  00002PRCP24
0235418590999992000022500004+25730+089230FM-12+003499999V0209999C000010360019N0030001N1+01401+01101101291ADDAA124000091AY111061AY201061GA1021+004509069GF105991021051004501031001MA1999999100881MD1999999+0091MW1051REMSYN100AAXX  25004 41859 31430 50000 10140 20110 30088 40129 70510 82530 333 56690 58009 70000 82615 85362;EQDQ01  00002PRCP24
0211418590999992000022506004+25730+089230FM-12+003499999V0202301N002112200019N0050001N1+02441+01101101321ADDAA124000091AY101061AY201061GA1001+999999999GF100991001001999999001001MA1999999100921MD1999999-0161MW1051REMSYN076AAXX  25064 41859 31950 02304 10244 20110 30092 40132 70500 333 59016 70000;EQDQ01  00002PRCP24
0211418590999992000022518004+25730+089230FM-12+003499999V0209999C000012200019N0030001N1+01461+01201101191ADDAA124000091AY101061AY201061GA1001+999999999GF100991001001999999001001MA1999999100781MD1999999-0161MW1051REMSYN076AAXX  25184 41859 31930 00000 10146 20120 30078 40119 70500 333 59016 70000;EQDQ01  00002PRCP24
0211418590999992000022600004+25730+089230FM-12+003499999V0202301N001012200019N0030001N1+01141+01001101161ADDAA124000091AY101061AY201061GA1001+999999999GF100991001001999999001001MA1999999100951MD1999999-0131MW1051REMSYN076AAXX  26004 41859 31930 02302 10114 20100 30095 40116 70500 333 59013 70000;EQDQ01  00002PRCP24
0211418590999992000022606004+25730+089230FM-12+003499999V0202701N002112200019N0050001N1+02601+00601101281ADDAA124000091AY101061AY201061GA1001+999999999GF100991001001999999001001MA1999999100881MD1999999-0041MW1051REMSYN076AAXX  26064 41859 31950 02704 10260 20060 30088 40128 70500 333 59004 70000;EQDQ01  00002PRCP24
0202418590999992000022612004+25730+089230FM-12+003499999V0202701N001012200019N0050001N1+02201+00601100961ADDAA124000091GA1001+999999999GF100991001001999999001001KA1120M+02651MA1999999100561MD1999999-0061REMSYN076AAXX  26124 41859 32950 02702 10220 20060 30056 40096 333 10265 59006 70000;EQDQ01  00002PRCP24
0211418590999992000022618004+25730+089230FM-12+003499999V0203101N001012200019N0030001N1+01421+00901101151ADDAA124000091AY101061AY201061GA1001+999999999GF100991001001999999001001MA1999999100641MD1999999-0141MW1051REMSYN076AAXX  26184 41859 31930 03102 10142 20090 30064 40115 70500 333 59014 70000;EQDQ01  00002PRCP24
0211418590999992000022700004+25730+089230FM-12+003499999V0202701N001012200019N0030001N1+01021+01001101111ADDAA124000091AY101061AY201061GA1001+999999999GF100991001001999999001001MA1999999100701MD1999999-0051MW1051REMSYN076AAXX  27004 41859 31930 02702 10102 20100 30070 40111 70500 333 59005 70000;EQDQ01  00002PRCP24
0211418590999992000022706004+25730+089230FM-12+003499999V0202701N003112200019N0050001N1+02311+00701101391ADDAA124000091AY191061AY201061GA1001+999999999GF100991001001999999001001MA1999999100991MD1999999+0111MW1051REMSYN076AAXX  27064 41859 31950 02706 10231 20070 30099 40139 70590 333 58011 70000;EQDQ01  00002PRCP24
0202418590999992000022712004+25730+089230FM-12+003499999V0202701N002112200019N0060001N1+02241+00601101091ADDAA124000091GA1001+999999999GF100991001001999999001001KA1120M+02481MA1999999100691MD1999999+0131REMSYN076AAXX  27124 41859 32956 02704 10224 20060 30069 40109 333 10248 58013 70000;EQDQ01  00002PRCP24
0211418590999992000022718004+25730+089230FM-12+003499999V0209999C000012200019N0030001N1+01401+01201101371ADDAA124000091AY101061AY201061GA1001+999999999GF100991001001999999001001MA1999999100961MD1999999+0321MW1051REMSYN076AAXX  27184 41859 31930 00000 10140 20120 30096 40137 70500 333 58032 70000;EQDQ01  00002PRCP24
0211418590999992000022806004+25730+089230FM-12+003499999V0200501N001012200019N0040001N1+02271+00901101581ADDAA124000091AY101061AY201061GA1001+999999999GF100991001001999999001001MA1999999101171MD1999999+0181MW1051REMSYN076AAXX  28064 41859 31940 00502 10227 20090 30117 40158 70500 333 58018 70000;EQDQ01  00002PRCP24
0230418590999992000022812004+25730+089230FM-12+003499999V0209999C000012200019N0050001N1+02321+01001101191ADDAA124000091AY101061AY201061GA1001+999999999GF100991001001999999001001KA1120M+02561MA1999999100791MD1999999+0101MW1051REMSYN082AAXX  28124 41859 31950 00000 10232 20100 30079 40119 70500 333 10256 58010 70000;EQDQ01  00002PRCP24
0211418590999992000022818004+25730+089230FM-12+003499999V0202601N001012200019N0030001N1+01451+01151101401ADDAA124000091AY101061AY201061GA1001+999999999GF100991001001999999001001MA1999999100991MD1999999+0031MW1051REMSYN076AAXX  28184 41859 31930 02602 10145 20115 30099 40140 70500 333 58003 70000;EQDQ01  00002PRCP24
0211418590999992000022900004+25730+089230FM-12+003499999V0200501N001012200019N0030001N1+01351+01201101271ADDAA124000091AY101061AY201061GA1001+999999999GF100991001001999999001001MA1999999100831MD1999999-0161MW1051REMSYN076AAXX  29004 41859 31930 00502 10135 20120 30083 40127 70500 333 59016 70000;EQDQ01  00002PRCP24
0183418590999992000022906004+25730+089230FM-12+003499999V0200501N003112200019N0070001N1+02321+00901101391ADDAA124000091GA1001+999999999GF100991001001999999001001MA1999999100991MD1999999-0181REMSYN070AAXX  29064 41859 32957 00506 10232 20090 30099 40139 333 59018 70000;EQDQ01  00002PRCP24
0230418590999992000022912004+25730+089230FM-12+003499999V0209999C000012200019N0050001N1+02381+01281100971ADDAA124000091AY101061AY201061GA1001+999999999GF100991001001999999001001KA1120M+02681MA1999999100571MD1999999-0221MW1051REMSYN082AAXX  29124 41859 31950 00000 10238 20128 30057 40097 70500 333 10268 59022 70000;EQDQ01  00002PRCP24
0211418590999992000022918004+25730+089230FM-12+003499999V0209999C000012200019N0030001N1+01651+01451101071ADDAA124000091AY101061AY201061GA1001+999999999GF100991001001999999001001MA1999999100661MD1999999-0331MW1051REMSYN076AAXX  29184 41859 31930 00000 10165 20145 30066 40107 70500 333 59033 70000;EQDQ01  00002PRCP24
0235418590999992000030100004+25730+089230FM-12+003499999V0209999C000010045019N0030001N1+01501+01401101011ADDAA124000091AY121061AY221061GA1051+004509069GF107991051051004501071001MA1999999100601MD1999999-0061MW1051REMSYN100AAXX  01004 41859 31430 70000 10150 20140 30060 40101 70522 85570 333 56990 59006 70000 85615 87459;EQDQ01  00002PRCP24
0229418590999992000030106004+25730+089230FM-12+003499999V0202301N001012200019N0050001N1+02581+01301101111ADDAA124000091AY121061AY211061GA1031+036009079GF103991031001999999031001MA1999999100711MD1999999-0281MW1051REMSYN094AAXX  01064 41859 31950 32302 10258 20130 30071 40111 70521 83030 333 56090 59028 70000 83362;EQDQ01  00002PRCP24
0248418590999992000030112004+25730+089230FM-12+003499999V0209999C000012200019N0040001N1+02441+01601100731ADDAA124000091AY111061AY211061GA1031+036009079GF103991031001999999031001KA1120M+02771MA1999999100331MD1999999-0241MW1051REMSYN100AAXX  01124 41859 31940 30000 10244 20160 30033 40073 70511 83030 333 10277 56090 59024 70000 83362;EQDQ01  00002PRCP24
0211418590999992000030118004+25730+089230FM-12+003499999V0200901N001512200019N0030001N1+01881+01401100951ADDAA124000091AY101061AY201061GA1001+999999999GF100991001001999999001001MA1999999100551MD1999999-0111MW1051REMSYN076AAXX  01184 41859 31930 00903 10188 20140 30055 40095 70500 333 59011 70000;EQDQ01  00002PRCP24
0211418590999992000030200004+25730+089230FM-12+003499999V0200901N001512200019N0030001N1+01561+01301100911ADDAA124000091AY101061AY201061GA1001+999999999GF100991001001999999001001MA1999999100501MD1999999-0101MW1051REMSYN076AAXX  02004 41859 31930 00903 10156 20130 30050 40091 70500 333 59010 70000;EQDQ01  00002PRCP24
0244418590999992000030206004+25730+089230FM-12+003499999V0200501N001510042019N0040001N1+01821+01601100971ADDAA106001091AY161061AY251061GA1041+002409079GA2061+004209069GF108991061071002501021999MA1999999100571MD1999999-0141MW1501REMSYN112AAXX  02064 41859 11340 80503 10182 20160 30057 40097 60011 75065 8672/ 333 56199 59014 70008 84708 86614 88457;
0263418590999992000030212004+25730+089230FM-12+003499999V0202301N001010045019N0040001N1+01911+01701100731ADDAA124001091AY161061AY261061GA1021+003009079GA2051+004509069GF108991051071002501021999KA1120M+02101MA1999999100331MD1999999+0001MW1211REMSYN118AAXX  02124 41859 11340 82302 10191 20170 30033 40073 60014 72166 8572/ 333 10210 56599 58000 70018 82710 85615 88458;
0192418590999992000030218004+25730+089230FM-12+003499999V0201301N000512200019N0025001N1+01581+01501100961ADDAA124001891AY101061AY201061GA1001+999999999GF100991001001999999001001MA1999999100551MD1999999+0001MW1051REMSYN076AAXX  02184 41859 31925 01301 10158 20150 30055 40096 70500 333 58000 70018;
0192418590999992000030300004+25730+089230FM-12+003499999V0200501N001012200019N0030001N1+01521+01501100941ADDAA124001891AY101061AY201061GA1001+999999999GF100991001001999999001001MA1999999100531MD1999999+0031MW1051REMSYN076AAXX  03004 41859 31930 00502 10152 20150 30053 40094 70500 333 58003 70018;
0216418590999992000030306004+25730+089230FM-12+003499999V0200501N00101036001CN0050001N1+02131+01701101771ADDAA124001091AY121061AY221061GA1041+004509069GF106991041051004501011001MA1999999100771MD1999999+0201MW1051REMSYN100AAXX  03064 41859 31450 60502 10213 20170 30077 40177 70522 84510 333 56290 58020 70010 84615 86459;
0230418590999992000030312004+25730+089230FM-12+003499999V0209999C000012200019N0040001N1+02421+01801100802ADDAA124000021AY101061AY201061GA1001+999999999GF100991001001999999001001KA1120M+02601MA1999999100401MD1999999+0071MW1051REMSYN082AAXX  03124 41859 31940 00000 10242 20180 30040 40080 70500 333 10260 58007 70000;EQDQ01+100803APOSLP
0211418590999992000030318004+25730+089230FM-12+003499999V0200501N002112200019N0030001N1+01851+01701101021ADDAA124000091AY101061AY201061GA1001+999999999GF100991001001999999001001MA1999999100621MD1999999+0071MW1051REMSYN076AAXX  03184 41859 31930 00504 10185 20170 30062 40102 70500 333 58007 70000;EQDQ01  00002PRCP24
0211418590999992000030400004+25730+089230FM-12+003499999V0200501N002612200019N0300001N1+01501+01401101001ADDAA124000091AY101061AY201061GA1001+999999999GF100991001001999999001001MA1999999100591MD1999999+0061MW1051REMSYN076AAXX  04004 41859 31980 00505 10150 20140 30059 40100 70500 333 58006 70000;EQDQ01  00002PRCP24
0209418590999992000030406004+25730+089230FM-12+003499999V0203501N003119999999N0040001N1+02251+01701101311ADDAA124000091AY121061AY221061GA1031+005409069MA1999999100911MD1999999+0141MW1051REMSYN100AAXX  04064 41859 31540 /3506 10225 20170 30091 40131 70522 83570 333 56190 58014 70000 83618 84459;EQDQ01  00002PRCP24
0230418590999992000030412004+25730+089230FM-12+003499999V0209999C000012200019N0040001N1+02471+02001100851ADDAA124000091AY101061AY201061GA1001+999999999GF100991001001999999001001KA1120M+02621MA1999999100451MD1999999+0251MW1051REMSYN082AAXX  04124 41859 31940 00000 10247 20200 30045 40085 70500 333 10262 58025 70000;EQDQ01  00002PRCP24
0190418590999992000030415004+25730+089230FM-12+003499999V0209999C000012200019N9999999N1+02471+02001100851ADDAA124800192AY101031GA1001+999999999GF100991001001999999001001MA1999999100451MD1999999+0251MW1051REMSYN082AAXX  04154 41859 3194/ 00000 10247 20200 30045 40085 7050/ 333 1062/ 58025 78000;
0211418590999992000030418004+25730+089230FM-12+003499999V0200901N002112200019N0030001N1+02001+01601101061ADDAA124000091AY101061AY201061GA1001+999999999GF100991001001999999001001MA1999999100661MD1999999+0041MW1051REMSYN076AAXX  04184 41859 31930 00904 10200 20160 30066 40106 70500 333 58004 70000;EQDQ01  00002PRCP24
0235418590999992000030500004+25730+089230FM-12+003499999V0200501N002112200019N0040001N1+01741+01401100981ADDAA124000091AY111061AY211061GA1021+005409069GF104991021051004501031001MA1999999100571MD1999999-0021MW1051REMSYN100AAXX  05004 41859 31440 40504 10174 20140 30057 40098 70511 82530 333 56190 59002 70000 82618 83362;EQDQ01  00002PRCP24
0257418590999992000030506004+25730+089230FM-12+003499999V0200501N003110045019N0050001N1+02261+01701101141ADDAA124000091AY121061AY221061GA1031+003009079GA2051+004509069GF108991071071002501021999MA1999999100741MD1999999-0171MW1051REMSYN106AAXX  05064 41859 31350 80506 10226 20170 30074 40114 70522 8772/ 333 56299 59017 70000 83710 85615 88459;EQDQ01  00002PRCP24
0248418590999992000030512004+25730+089230FM-12+003499999V0209999C000012200019N0040001N1+02471+02101100751ADDAA124000091AY121061AY211061GA1021+004509059GF102991021051004501001001KA1120M+02641MA1999999100351MD1999999-0101MW1051REMSYN100AAXX  05124 41859 31440 20000 10247 20210 30035 40075 70521 82500 333 10264 56900 59010 70000 82615;EQDQ01  00002PRCP24
0235418590999992000030518004+25730+089230FM-12+003499999V0201301N001012200019N0030001N1+02171+02101100771ADDAA124000091AY121061AY221061GA1011+005409069GF103991011051004501031001MA1999999100371MD1999999-0291MW1051REMSYN100AAXX  05184 41859 31430 31302 10217 20210 30037 40077 70522 81530 333 56990 59029 70000 81618 83362;EQDQ01  00002PRCP24
0257418590999992000030521004+25730+089230FM-12+003499999V0200301N002110045019N0030001N1+02001+01801100781ADDAA124000091AY131031AY201031GA1041+002709079GA2051+004509069GF108991051071002501021999MA1999999100381MD1999999-0271MW1051REMSYN106AAXX  05214 41859 31330 80304 10200 20180 30038 40078 70530 8572/ 333 56299 59027 70000 84709 85615 88459;EQDQ01  00002PRCP24
0235418590999992000030600004+25730+089230FM-12+003499999V0200501N00311002101CN0030001N1+01901+01801100761ADDAA124000091AY121061AY221061GA1041+004509069GF108991051021002501021999MA1999999100321MD1999999-0211MW1051REMSYN100AAXX  06004 41859 31330 80506 10190 20180 30032 40076 70522 8522/ 333 56299 59021 70000 84615 85459;EQDQ01  00002PRCP24
0257418590999992000030606004+25730+089230FM-12+003499999V0200501N001510045019N0050001N1+02481+02101101061ADDAA124000091AY121061AY221061GA1031+003009079GA2051+004509069GF108991061071002501021999MA1999999100661MD1999999-0081MW1051REMSYN106AAXX  06064 41859 31350 80503 10248 20210 30066 40106 70522 8672/ 333 56199 59008 70000 83710 85615 88459;EQDQ01  00002PRCP24
0230418590999992000030612004+25730+089230FM-12+003499999V0209999C000012200019N0050001N1+02781+01901100751ADDAA124000091AY101061AY211061GA1001+999999999GF100991001001999999001001KA1120M+03001MA1999999100361MD1999999+0011MW1051REMSYN082AAXX  06124 41859 31950 00000 10278 20190 30036 40075 70501 333 10300 58001 70000;EQDQ01  00002PRCP24
0211418590999992000030618004+25730+089230FM-12+003499999V0202301N001012200019N0030001N1+01971+01901100961ADDAA124000091AY101061AY201061GA1001+999999999GF100991001001999999001001MA1999999100561MD1999999+0191MW1051REMSYN076AAXX  06184 41859 31930 02302 10197 20190 30056 40096 70500 333 58019 70000;EQDQ01  00002PRCP24
0211418590999992000030700004+25730+089230FM-12+003499999V0201801N001512200019N0040001N1+01781+01701101001ADDAA124000091AY101061AY201061GA1001+999999999GF100991001001999999001001MA1999999100601MD1999999+0241MW1051REMSYN076AAXX  07004 41859 31940 01803 10178 20170 30060 40100 70500 333 58024 70000;EQDQ01  00002PRCP24
0211418590999992000030706004+25730+089230FM-12+003499999V0202301N001012200019N0060001N1+02781+01501101171ADDAA124000091AY101061AY201061GA1001+999999999GF100991001001999999001001MA1999999100781MD1999999+0121MW1051REMSYN076AAXX  07064 41859 31956 02302 10278 20150 30078 40117 70500 333 58012 70000;EQDQ01  00002PRCP24
0211418590999992000030718004+25730+089230FM-12+003499999V0201301N001512200019N0030001N1+02101+01901100861ADDAA124000091AY101061AY201061GA1001+999999999GF100991001001999999001001MA1999999100461MD1999999-0101MW1051REMSYN076AAXX  07184 41859 31930 01303 10210 20190 30046 40086 70500 333 59010 70000;EQDQ01  00002PRCP24
0257418590999992000030800004+25730+089230FM-12+003499999V0202301N003110054019N0040001N1+02161+01901100811ADDAA124000091AY121061AY221061GA1041+003009079GA2041+005409069GF107991071061002501011001MA1999999100411MD1999999-0191MW1051REMSYN106AAXX  08004 41859 31340 72306 10216 20190 30041 40081 70522 87610 333 56590 59019 70000 84710 84618 87459;EQDQ01  00002PRCP24
0263418590999992000030806004+25730+089230FM-12+003499999V0201801N001010054019N0050001N1+02081+01981100851ADDAA100999999AY151061AY221061GA1041+003009079GA2051+005409069GF108991061061002501021999MA1999999100451MD1999999-0331MW1051REMSYN112AAXX  08064 41859 11350 81802 10208 20198 30045 40085 6906/ 70552 8662/ 333 56999 59033 79999 84710 85618 88456;EQDQ01  90602PRCP00
0235418590999992000030812004+25730+089230FM-12+003499999V0201901N003112200019N0050001N1+02341+01701100481ADDAA101000791AY151061AY221061GA1031+030009079GF103991031001999999031001KA1120M+02601MA1999999100081MD1999999-0301MW1051REMSYN106AAXX  08124 41859 11950 31906 10234 20170 30008 40048 69905 70552 83030 333 10260 56090 59030 79999 83360;
0192418590999992000030818004+25730+089230FM-12+003499999V0201801N001512200019N0030001N1+01851+01851100681ADDAA124000791AY121061AY201061GA1001+999999999GF100991001001999999001001MA1999999100231MD1999999-0231MW1051REMSYN076AAXX  08184 41859 31930 01803 10185 20185 30023 40068 70520 333 59023 79999;
0210418590999992000030900004+25730+089230FM-12+003499999V0201801N001012200019N0030001N1+01681+01601100581ADDAA124000791AY111061AY201061GA1021+030009079GF102991021001999999031001MA1999999100181MD1999999-0231MW1051REMSYN094AAXX  09004 41859 31930 21802 10168 20160 30018 40058 70510 82030 333 56090 59023 79999 82360;
0192418590999992000030906004+25730+089230FM-12+003499999V0202301N002112200019N0050001N1+02651+00751100801ADDAA124000791AY101061AY201061GA1001+999999999GF100991001001999999001001MA1999999100401MD1999999-0051MW1051REMSYN076AAXX  09064 41859 31950 02304 10265 20075 30040 40080 70500 333 59005 79999;
0230418590999992000030912004+25730+089230FM-12+003499999V0202701N002112200019N0050001N1+02451+00901100611ADDAA124000091AY101061AY201061GA1001+999999999GF100991001001999999001001KA1120M+02821MA1999999100211MD1999999+0131MW1051REMSYN082AAXX  09124 41859 31950 02704 10245 20090 30021 40061 70500 333 10282 58013 70000;EQDQ01  00002PRCP24
0211418590999992000030918004+25730+089230FM-12+003499999V0202301N001012200019N0030001N1+01681+01201100811ADDAA124000091AY101061AY201061GA1001+999999999GF100991001001999999001001MA1999999100401MD1999999+0171MW1051REMSYN076AAXX  09184 41859 31930 02302 10168 20120 30040 40081 70500 333 58017 70000;EQDQ01  00002PRCP24
0211418590999992000031000004+25730+089230FM-12+003499999V0202301N001012200019N0030001N1+01501+01201100791ADDAA124000091AY101061AY201061GA1001+999999999GF100991001001999999001001MA1999999100381MD1999999+0161MW1051REMSYN076AAXX  10004 41859 31930 02302 10150 20120 30038 40079 70500 333 58016 70000;EQDQ01  00002PRCP24
0211418590999992000031006004+25730+089230FM-12+003499999V0202301N002112200019N0050001N1+02601+00901101031ADDAA124000091AY101061AY201061GA1001+999999999GF100991001001999999001001MA1999999100631MD1999999+0231MW1051REMSYN076AAXX  10064 41859 31950 02304 10260 20090 30063 40103 70500 333 58023 70000;EQDQ01  00002PRCP24
0230418590999992000031012004+25730+089230FM-12+003499999V0202301N001012200019N0050001N1+02481+01201100731ADDAA124000091AY101061AY201061GA1001+999999999GF100991001001999999001001KA1120M+02801MA1999999100331MD1999999+0121MW1051REMSYN082AAXX  10124 41859 31950 02302 10248 20120 30033 40073 70500 333 10280 58012 70000;EQDQ01  00002PRCP24
0211418590999992000031018004+25730+089230FM-12+003499999V0209999C000012200019N0030001N1+01701+01401100901ADDAA124000091AY101061AY201061GA1001+999999999GF100991001001999999001001MA1999999100491MD1999999+0091MW1051REMSYN076AAXX  10184 41859 31930 00000 10170 20140 30049 40090 70500 333 58009 70000;EQDQ01  00002PRCP24
0211418590999992000031100004+25730+089230FM-12+003499999V0209999C000012200019N0040001N1+01541+01301100921ADDAA124000091AY101061AY201061GA1001+999999999GF100991001001999999001001MA1999999100511MD1999999+0161MW1051REMSYN076AAXX  11004 41859 31940 00000 10154 20130 30051 40092 70500 333 58016 70000;EQDQ01  00002PRCP24
0211418590999992000031106004+25730+089230FM-12+003499999V0200501N003112200019N0050001N1+02401+01201101141ADDAA124000091AY101061AY201061GA1001+999999999GF100991001001999999001001MA1999999100741MD1999999+0111MW1051REMSYN076AAXX  11064 41859 31950 00506 10240 20120 30074 40114 70500 333 58011 70000;EQDQ01  00002PRCP24
0230418590999992000031112004+25730+089230FM-12+003499999V0200501N001512200019N0050001N1+02501+01201100761ADDAA124000091AY101061AY201061GA1001+999999999GF100991001001999999001001KA1120M+02701MA1999999100361MD1999999+0031MW1051REMSYN082AAXX  11124 41859 31950 00503 10250 20120 30036 40076 70500 333 10270 58003 70000;EQDQ01  00002PRCP24
0211418590999992000031118004+25730+089230FM-12+003499999V0200501N003612200019N0030001N1+01981+01201100871ADDAA124000091AY101061AY201061GA1001+999999999GF100991001001999999001001MA1999999100471MD1999999-0021MW1051REMSYN076AAXX  11184 41859 31930 00507 10198 20120 30047 40087 70500 333 59002 70000;EQDQ01  00002PRCP24
0251418590999992000031200004+25730+089230FM-12+003499999V0200501N004112200019N0030001N1+01761+01401100701ADDAA124000091AY121061GA1021+003009079GA2051+004509069GF199999061071002501021999MA1999999100301MW1051REMSYN106AAXX  12004 41859 31330 20508 10176 20140 30030 40070 7052/ 8672/ 333 56299 5902/ 70000 82710 85615 88459;EQDQ01+000022SCOTCVQ02  00002PRCP24
0257418590999992000031206004+25730+089230FM-12+003499999V0200501N005110045019N0050001N1+01961+01401100821ADDAA124000091AY121061AY221061GA1031+003009079GA2051+004509069GF108991061071002501021999MA1999999100421MD1999999-0321MW1051REMSYN106AAXX  12064 41859 31350 80510 10196 20140 30042 40082 70522 8672/ 333 56299 59032 70000 83710 85615 88459;EQDQ01  00002PRCP24
0276418590999992000031212004+25730+089230FM-12+003499999V0200501N003110045019N0040001N1+02181+01701100541ADDAA124000091AY121061AY221061GA1041+003009079GA2051+004509069GF107991061071002501021999KA1120M+02371MA1999999100141MD1999999-0221MW1051REMSYN112AAXX  12124 41859 31340 70506 10218 20170 30014 40054 70522 8672/ 333 10237 56290 59022 70000 84710 85615 87459;EQDQ01  00002PRCP24
0243418590999992000031300004+25730+089230FM-12+003499999V0200501N00621004501CN0040001N1+99999+99999100601ADDAA199000091AY121061GA1031+002709079GA2041+004509069GF106991999999002501999999MA1999999100201MD1999999+0011MW1051REMSYN100AAXX  13004 41859 31340 60512 20160 30020 40060 7052/ 333 56290 5699/ 58001 70000 83709 84615 88745;EQDQ01  00002PRCP99
0198418590999992000031306004+25730+089230FM-12+003499999V0200501N003112200019N0050001N1+02401+01601100861ADDAA112000791AY121061AY201061GA1001+999999999GF100991001001999999001001MA1999999100461MD1999999+0041MW1051REMSYN082AAXX  13064 41859 11950 00506 10240 20160 30046 40086 69902 70520 333 58004 70000;
0229418590999992000031312004+25730+089230FM-12+003499999V0200501N001012200019N0050001N1+02601+01801100581ADDAA124000791AY111061AY201061GA1031+004509059GF103991031051004501001001KA1120M+02821MA1999999100181MD1999999+0071MW1051REMSYN100AAXX  13124 41859 31450 30502 10260 20180 30018 40058 70510 83500 333 10282 56300 58007 79999 83615;
0216418590999992000031418004+25730+089230FM-12+003499999V0203601N002119999999N0030001N1+02061+01901100901ADDAA124000591AY121061AY201061GA1021+003009079GF105991051061999999001001MA1999999100501MD1999999+0111MW1051REMSYN100AAXX  14184 41859 31930 53604 10206 20190 30050 40090 70520 85600 333 56400 58011 70004 82710 84615;
0211418590999992000031500004+25730+089230FM-12+003499999V0201801N001012200019N0040001N1+01841+01801100971ADDAA124000091AY101061AY201061GA1001+999999999GF100991001001999999001001MA1999999100271MD1999999+0051MW1051REMSYN076AAXX  15004 41859 31940 01802 10184 20180 30027 40097 70500 333 58005 70000;EQDQ01  00002PRCP24
0235418590999992000031506004+25730+089230FM-12+003499999V0202301N002112200019N0050001N1+02651+01851101011ADDAA124000091AY121061AY211061GA1021+005409069GF104991021051004501031001MA1999999100611MD1999999+0061MW1051REMSYN100AAXX  15064 41859 31450 42304 10265 20185 30061 40101 70521 82530 333 56990 58006 70000 82618 83362;EQDQ01  00002PRCP24
0205418590999992000031518004+25730+089230FM-12+003499999V0202701N001012200019N0030001N1+99999+99999100881ADDAA124000091AY101061AY201061GA1001+999999999GF100991001001999999001001MA1999999100481MD1999999-0081MW1051REMSYN070AAXX  15184 41859 32930 02702 20130 30048 40088 70500 333 59008 70000;EQDQ01  00002PRCP24
0211418590999992000031600004+25730+089230FM-12+003499999V0209999C000012200019N0030001N1+01421+01201100881ADDAA124000091AY101061AY201061GA1001+999999999GF100991001001999999001001MA1999999100471MD1999999+0001MW1051REMSYN076AAXX  16004 41859 31930 00000 10142 20120 30047 40088 70500 333 58000 70000;EQDQ01  00002PRCP24
0202418590999992000031612004+25730+089230FM-12+003499999V0202701N002112200019N0060001N1+02621+00901100701ADDAA124000091GA1001+999999999GF100991001001999999001001KA1120M+02951MA1999999100301MD1999999+0061REMSYN076AAXX  16124 41859 32956 02704 10262 20090 30030 40070 333 10295 58006 70000;EQDQ01  00002PRCP24
0205418590999992000031618004+25730+089230FM-12+003499999V0202301N002112200019N0030001N1+01701+01301100771ADDAA199000091AY101061AY201061GA1001+999999999GF100991001001999999001001MA1999999100361MD1999999-0121MW1051REMSYN070AAXX  16184 41859 31930 02304 10170 20130 30036 40077 70500 333 59012;EQDQ01  00002PRCP99
0211418590999992000031700004+25730+089230FM-12+003499999V0201301N001012200019N0030001N1+01451+01301100721ADDAA124000091AY101061AY201061GA1001+999999999GF100991001001999999001001MA1999999100311MD1999999-0161MW1051REMSYN076AAXX  17004 41859 31930 01302 10145 20130 30031 40072 70500 333 59016 70000;EQDQ01  00002PRCP24
0211418590999992000031706004+25730+089230FM-12+003499999V0201301N003112200019N0080001N1+02581+01101100941ADDAA124000091AY101061AY201061GA1001+999999999GF100991001001999999001001MA1999999100541MD1999999+0021MW1051REMSYN076AAXX  17064 41859 31958 01306 10258 20110 30054 40094 70500 333 58002 70000;EQDQ01  00002PRCP24
0230418590999992000031712004+25730+089230FM-12+003499999V0201301N001012200019N0050001N1+02651+01451100621ADDAA124000091AY101061AY201061GA1001+999999999GF100991001001999999001001KA1120M+02901MA1999999100241MD1999999-0061MW1051REMSYN082AAXX  17124 41859 31950 01302 10265 20145 30024 40062 70500 333 10290 59006 70000;EQDQ01  00002PRCP24
0211418590999992000031718004+25730+089230FM-12+003499999V0200501N001012200019N0030001N1+02081+01501100831ADDAA124000091AY101061AY201061GA1001+999999999GF100991001001999999001001MA1999999100431MD1999999+0071MW1051REMSYN076AAXX  17184 41859 31930 00502 10208 20150 30043 40083 70500 333 58007 70000;EQDQ01  00002PRCP24
0211418590999992000031800004+25730+089230FM-12+003499999V0200501N003112200019N0030001N1+01701+01401100831ADDAA124000091AY101061AY201061GA1001+999999999GF100991001001999999001001MA1999999100421MD1999999+0111MW1051REMSYN076AAXX  18004 41859 31930 00506 10170 20140 30042 40083 70500 333 58011 70000;EQDQ01  00002PRCP24
0230418590999992000031812004+25730+089230FM-12+003499999V0209999C000012200019N0050001N1+02761+01561100691ADDAA124000091AY101061AY201061GA1001+999999999GF100991001001999999001001KA1120M+02941MA1999999100301MD1999999+0071MW1051REMSYN082AAXX  18124 41859 31950 00000 10276 20156 30030 40069 70500 333 10294 58007 70000;EQDQ01  00002PRCP24
0211418590999992000031818004+25730+089230FM-12+003499999V0200501N003112200019N0030001N1+02201+01601100871ADDAA124000091AY101061AY201061GA1001+999999999GF100991001001999999001001MA1999999100471MD1999999+0041MW1051REMSYN076AAXX  18184 41859 31930 00506 10220 20160 30047 40087 70500 333 58004 70000;EQDQ01  00002PRCP24
0235418590999992000031900004+25730+089230FM-12+003499999V0200901N002112200019N0040001N1+01881+01501100821ADDAA124000091AY121061AY201061GA1011+005409069GF103991031041999999001001MA1999999100421MD1999999+0001MW1051REMSYN100AAXX  19004 41859 31940 30904 10188 20150 30042 40082 70520 83400 333 56290 58000 70000 81618 82825;EQDQ01  00002PRCP24
0230418590999992000031903004+25730+089230FM-12+003499999V0200501N002112200019N0050001N1+02181+01501101071ADDAA124000091AY101031AY201031GA1001+999999999GF100991001001999999001001KA1120N+01821MA1999999100671MD1999999+0011MW1051REMSYN082AAXX  19034 41859 31950 00504 10218 20150 30067 40107 70500 333 20182 58001 70000;EQDQ01  00002PRCP24
0257418590999992000031906004+25730+089230FM-12+003499999V0200501N00211036001CN0050001N1+02621+01801101031ADDAA124000091AY121061AY201061GA1031+003009079GA2041+004509069GF107991041061002501021001MA1999999100631MD1999999-0011MW1051REMSYN106AAXX  19064 41859 31350 70504 10262 20180 30063 40103 70520 84620 333 56490 59001 70000 83710 84615 86458;EQDQ01  00002PRCP24
0230418590999992000031912004+25730+089230FM-12+003499999V0202301N001012200019N0050001N1+02931+01931100671ADDAA124000091AY121061AY201061GA1001+999999999GF100991001001999999001001KA1120M+03071MA1999999100281MD1999999-0021MW1051REMSYN082AAXX  19124 41859 31950 02302 10293 20193 30028 40067 70520 333 10307 59002 70000;EQDQ01  00002PRCP24
0211418590999992000031918004+25730+089230FM-12+003499999V0201801N001512200019N0040001N1+02221+01701100881ADDAA124000091AY101061AY201061GA1001+999999999GF100991001001999999001001MA1999999100481MD1999999+0011MW1051REMSYN076AAXX  19184 41859 31940 01803 10222 20170 30048 40088 70500 333 58001 70000;EQDQ01  00002PRCP24
0273418590999992000032000004+25730+089230FM-12+003499999V0201801N001510024019N0006001N1+02001+01901100911ADDAA124000091AY121061AY211061GA1051+002409079GA2031+005409069GF108991071071999999011999MA1999999100511MD1999999+0091MW1441REMSYN106AAXX  20004 41859 31906 81803 10200 20190 30051 40091 74521 8771/ 333 5639/ 58009 70000 85708 83618 88459;EQDQ01+000452PRSWM1Q02  00002PRCP24
0211418590999992000032100004+25730+089230FM-12+003499999V0209999C000012200019N0030001N1+01511+01401101121ADDAA124000091AY101061AY201061GA1001+999999999GF100991001001999999001001MA1999999100711MD1999999+0201MW1051REMSYN076AAXX  21004 41859 31930 00000 10151 20140 30071 40112 70500 333 58020 70000;EQDQ01  00002PRCP24
0211418590999992000032106004+25730+089230FM-12+003499999V0202301N001012200019N0050001N1+02981+01101101331ADDAA124000091AY101061AY201061GA1001+999999999GF100991001001999999001001MA1999999100941MD1999999+0241MW1051REMSYN076AAXX  21064 41859 31950 02302 10298 20110 30094 40133 70500 333 58024 70000;EQDQ01  00002PRCP24
0202418590999992000032112004+25730+089230FM-12+003499999V0202701N001012200019N0050001N1+02841+01101101001ADDAA124000091GA1001+999999999GF100991001001999999001001KA1120M+03201MA1999999100611MD1999999+0201REMSYN076AAXX  21124 41859 31950 02702 10284 20110 30061 40100 333 10320 58020 70000;EQDQ01  00002PRCP24
0211418590999992000032118004+25730+089230FM-12+003499999V0209999C000012200019N0030001N1+01781+01501101181ADDAA124000091AY101061AY201061GA1001+999999999GF100991001001999999001001MA1999999100781MD1999999+0121MW1051REMSYN076AAXX  21184 41859 31930 00000 10178 20150 30078 40118 70500 333 58012 70000;EQDQ01  00002PRCP24
0211418590999992000033006004+25730+089230FM-12+003499999V0201801N001012200019N0050001N1+02951+02151100971ADDAA124000091AY101061AY201061GA1001+999999999GF100991001001999999001001MA1999999100581MD1999999-0271MW1051REMSYN076AAXX  30064 41859 31950 01802 10295 20215 30058 40097 70500 333 59027 70000;EQDQ01  00002PRCP24
0230418590999992000033012004+25730+089230FM-12+003499999V0209999C000012200019N0040001N1+03001+02301100531ADDAA124000091AY101061AY201061GA1001+999999999GF100991001001999999001001KA1120M+03251MA1999999100141MD1999999-0241MW1051REMSYN082AAXX  30124 41859 31940 00000 10300 20230 30014 40053 70500 333 10325 59024 70000;EQDQ01  00002PRCP24
0211418590999992000033018004+25730+089230FM-12+003499999V0201801N004112200019N0030001N1+02521+02201100801ADDAA124000091AY101061AY201061GA1001+999999999GF100991001001999999001001MA1999999100401MD1999999-0271MW1051REMSYN076AAXX  30184 41859 31930 01808 10252 20220 30040 40080 70500 333 59027 70000;EQDQ01  00002PRCP24
0230418590999992000033021004+25730+089230FM-12+003499999V0203101N00151007501CN0050001N1+03101+01401101191ADDAA199000091AY101031AY201031GA1021+005409069GA2031+007509089GF105991031041004501031001MD1999999-0131MW1051REMSYN094AAXX  30214 41859 31450 53103 10310 20140 40119 70500 83430 333 56990 59013 82618 83825 85362;EQDQ01  00002PRCP99
0211418590999992000033100004+25730+089230FM-12+003499999V0203101N005112200019N0040001N1+02341+02101100771ADDAA124000091AY101061AY201061GA1001+999999999GF100991001001999999001001MA1999999100371MD1999999-0281MW1051REMSYN076AAXX  31004 41859 31940 03110 10234 20210 30037 40077 70500 333 59028 70000;EQDQ01  00002PRCP24
0229418590999992000033106004+25730+089230FM-12+003499999V0201801N002112200019N0050001N1+02881+02201100871ADDAA124000091AY121061AY211061GA1041+004509059GF104991041051004501001001MA1999999100481MD1999999-0111MW1051REMSYN094AAXX  31064 41859 31450 41804 10288 20220 30048 40087 70521 84500 333 56400 59011 70000 84615;EQDQ01  00002PRCP24
0211418590999992000040200004+25730+089230FM-12+003499999V0202101N003112200019N0040001N1+02361+02261100131ADDAA124000091AY101061AY201061GA1001+999999999GF100991001001999999001001MA1999999099731MD1999999-0531MW1051REMSYN076AAXX  02004 41859 31940 02106 10236 20226 39973 40013 70500 333 59053 70000;EQDQ01  00002PRCP24
0183418590999992000040206004+25730+089230FM-12+003499999V0202301N004112200019N0080001N1+03341+01301100251ADDAA124000091GA1001+999999999GF100991001001999999001001MA1999999099871MD1999999-0371REMSYN070AAXX  02064 41859 32958 02308 10334 20130 39987 40025 333 59037 70000;EQDQ01  00002PRCP24
0230418590999992000040212004+25730+089230FM-12+003499999V0202301N002112200019N0050001N1+03261+01201100011ADDAA124000091AY101061AY201061GA1001+999999999GF100991001001999999001001KA1120M+03561MA1999999099621MD1999999-0141MW1051REMSYN082AAXX  02124 41859 31950 02304 10326 20120 39962 40001 70500 333 10356 59014 70000;EQDQ01  00002PRCP24
0211418590999992000040218004+25730+089230FM-12+003499999V0202301N002112200019N0030001N1+02561+01561100241ADDAA124000091AY101061AY201061GA1001+999999999GF100991001001999999001001MA1999999099841MD1999999+0021MW1051REMSYN076AAXX  02184 41859 31930 02304 10256 20156 39984 40024 70500 333 58002 70000;EQDQ01  00002PRCP24
0211418590999992000040300004+25730+089230FM-12+003499999V0201801N002112200019N0040001N1+02261+02161100111ADDAA124000091AY101061AY201061GA1001+999999999GF100991001001999999001001MA1999999099911MD1999999+0181MW1051REMSYN076AAXX  03004 41859 31940 01804 10226 20216 39991 40011 70500 333 58018 70000;EQDQ01  00002PRCP24
0183418590999992000040306004+25730+089230FM-12+003499999V0202301N003112200019N0070001N1+03201+01601100651ADDAA124000091GA1001+999999999GF100991001001999999001001MA1999999100261MD1999999+0391REMSYN070AAXX  03064 41859 32957 02306 10320 20160 30026 40065 333 58039 70000;EQDQ01  00002PRCP24
0202418590999992000040312004+25730+089230FM-12+003499999V0202301N001512200019N0070001N1+03101+01401100291ADDAA124000091GA1001+999999999GF100991001001999999001001KA1120M+03471MA1999999099901MD1999999+0281REMSYN076AAXX  03124 41859 32957 02303 10310 20140 39990 40029 333 10347 58028 70000;EQDQ01  00002PRCP24
0183418590999992000040318004+25730+089230FM-12+003499999V0201801N001012200019N0030001N1+02201+01501100411ADDAA124000091GA1001+999999999GF100991001001999999001001MA1999999100011MD1999999+0171REMSYN070AAXX  03184 41859 32930 01802 10220 20150 30001 40041 333 58017 70000;EQDQ01  00002PRCP24
0183418590999992000040400004+25730+089230FM-12+003499999V0202301N001012200019N0060001N1+01901+01501100391ADDAA124000091GA1001+999999999GF100991001001999999001001MA1999999099991MD1999999+0081REMSYN070AAXX  04004 41859 32956 02302 10190 20150 39999 40039 333 58008 70000;EQDQ01  00002PRCP24
0183418590999992000040406004+25730+089230FM-12+003499999V0202301N001512200019N0080001N1+03361+01501100511ADDAA124000091GA1001+999999999GF100991001001999999001001MA1999999100131MD1999999-0131REMSYN070AAXX  04064 41859 32958 02303 10336 20150 30013 40051 333 59013 70000;EQDQ01  00002PRCP24
0202418590999992000040412004+25730+089230FM-12+003499999V0202701N001012200019N0070001N1+03121+01701100201ADDAA124000091GA1001+999999999GF100991001001999999001001KA1120M+03501MA1999999099811MD1999999-0091REMSYN076AAXX  04124 41859 32957 02702 10312 20170 39981 40020 333 10350 59009 70000;EQDQ01  00002PRCP24
0183418590999992000040418004+25730+089230FM-12+003499999V0201801N001012200019N0040001N1+02431+01701100371ADDAA124000091GA1001+999999999GF100991001001999999001001MA1999999099971MD1999999-0041REMSYN070AAXX  04184 41859 32940 01802 10243 20170 39997 40037 333 59004 70000;EQDQ01  00002PRCP24
0257418590999992000040500004+25730+089230FM-12+003499999V0201801N001510045019N0040001N1+02201+02101100381ADDAA124000091AY101061AY201061GA1041+003009079GA2051+004509069GF108991031071002501021999MA1999999099981MD1999999-0011MW1051REMSYN106AAXX  05004 41859 31340 81803 10220 20210 39998 40038 70500 8372/ 333 56499 59001 70000 84710 85615 88459;EQDQ01  00002PRCP24
0235418590999992000040506004+25730+089230FM-12+003499999V0201801N005112200019N0060001N1+03181+02301100491ADDAA124000091AY121061AY221061GA1011+005409069GF102991011051008001031001MA1999999100101MD1999999-0031MW1051REMSYN100AAXX  05064 41859 31556 21810 10318 20230 30010 40049 70522 81530 333 56990 59003 70000 81618 82362;EQDQ01  00002PRCP24
0183418590999992000040518004+25730+089230FM-12+003499999V0202301N001012200019N0040001N1+02351+01701100281ADDAA124000091GA1001+999999999GF100991001001999999001001MA1999999099881MD1999999-0091REMSYN070AAXX  05184 41859 32940 02302 10235 20170 39988 40028 333 59009 70000;EQDQ01  00002PRCP24
0227418590999992000040606004+25730+089230FM-12+003499999V0201801N003112200019N0040001N1+03271+02201100561ADDAA124000091AY101061AY201061GA1001+999999999GF100991001001999999001001MA1999999100171MD1999999+0071MW1031REMSYN076AAXX  06064 41859 32940 01806 10327 20220 30017 40056 70370 333 58007 70000;EQDQ01+000072PSTWM1Q02  00002PRCP24
0202418590999992000040612004+25730+089230FM-12+003499999V0202101N001512200019N0070001N1+03301+02301100211ADDAA124000091GA1001+999999999GF100991001001999999001001KA1120M+03601MA1999999099831MD1999999+0171REMSYN076AAXX  06124 41859 32957 02103 10330 20230 39983 40021 333 10360 58017 70000;EQDQ01  00002PRCP24
0183418590999992000040618004+25730+089230FM-12+003499999V0201801N003112200019N0040001N1+02571+02301100571ADDAA124000091GA1001+999999999GF100991001001999999001001MA1999999100171MD1999999+0221REMSYN070AAXX  06184 41859 32940 01806 10257 20230 30017 40057 333 58022 70000;EQDQ01  00002PRCP24
0229418590999992000040700004+25730+089230FM-12+003499999V0201801N003112200019N0040001N1+02581+02501100641ADDAA124000091AY101061AY211061GA1031+003009069GF104991041061002501001001MA1999999100241MD1999999+0331MW1051REMSYN094AAXX  07004 41859 31340 41806 10258 20250 30024 40064 70501 84600 333 56400 58033 70000 83710;EQDQ01  00002PRCP24
0208418590999992000040706004+25730+089230FM-12+003499999V0201801N002112200019N0060001N1+03261+02201100891ADDAA124000091AY121061AY221061GA1031+004509059GF103991031041004501001001MD1999999+0341MW1011REMSYN088AAXX  07064 41859 31456 31804 10326 20220 40089 70122 83400 333 56400 58034 70000 83615;EQDQ01  00002PRCP24
0202418590999992000040712004+25730+089230FM-12+003499999V0202201N002112200019N0060001N1+03151+02601100551ADDAA124000091GA1001+999999999GF100991001001999999001001KA1120M+03411MA1999999100161MD1999999+0331REMSYN076AAXX  07124 41859 32956 02204 10315 20260 30016 40055 333 10341 58033 70000;EQDQ01  00002PRCP24
0183418590999992000040718004+25730+089230FM-12+003499999V0201801N001012200019N0040001N1+02711+02401100681ADDAA124000091GA1001+999999999GF100991001001999999001001MA1999999100291MD1999999+0191REMSYN070AAXX  07184 41859 32940 01802 10271 20240 30029 40068 333 58019 70000;EQDQ01  00002PRCP24
0257418590999992000040800004+25730+089230FM-12+003499999V0201801N002110045019N0040001N1+02571+02501100621ADDAA124000091AY121061AY211061GA1041+003009079GA2051+004509069GF108991061071999999021999MA1999999100221MD1999999-0021MW1051REMSYN106AAXX  08004 41859 31940 81804 10257 20250 30022 40062 70521 8672/ 333 56499 59002 70000 84710 85615 88459;EQDQ01  00002PRCP24
0211418590999992000040806004+25730+089230FM-12+003499999V0202101N003112200019N0060001N1+03251+02301100651ADDAA124000091AY121061AY211061GA1001+999999999GF100991001001999999001001MA1999999100271MD1999999-0241MW1051REMSYN076AAXX  08064 41859 31956 02106 10325 20230 30027 40065 70521 333 59024 70000;EQDQ01  00002PRCP24
0202418590999992000040812004+25730+089230FM-12+003499999V0201801N001012200019N0060001N1+03261+02101100191ADDAA124000091GA1001+999999999GF100991001001999999001001KA1120M+03501MA1999999099801MD1999999-0361REMSYN076AAXX  08124 41859 32456 01802 10326 20210 39980 40019 333 10350 59036 70000;EQDQ01  00002PRCP24
0235418590999992000041306004+25730+089230FM-12+003499999V0201801N00101036001CN0060001N1+02881+02401100721ADDAA124000091AY121061AY221061GA1041+004509069GF106991041061004501021001MA1999999100331MD1999999-0331MW1011REMSYN100AAXX  13064 41859 31456 61802 10288 20240 30033 40072 70122 84620 333 56490 59033 70000 84615 85458;EQDQ01  00002PRCP24
0254418590999992000041312004+25730+089230FM-12+003499999V0201301N00101036001CN0050001N1+02961+02401100341ADDAA124000091AY121061AY221061GA1041+004809069GF106991041041004501031001KA1120M+03071MA1999999099961MD1999999-0261MW1021REMSYN106AAXX  13124 41859 31450 61302 10296 20240 39996 40034 70222 84430 333 10307 56990 59026 70000 84616 86360;EQDQ01  00002PRCP24
0279418590999992000041318004+25730+089230FM-12+003499999V0201301N001010045019N0030001N1+02621+02301100491ADDAA124000091AY121061AY221061GA1031+003009079GA2041+004509069GA3011+009009099GF106991051031002501021001MA1999999100081MD1999999-0201MW1131REMSYN112AAXX  13184 41859 31330 61302 10262 20230 30008 40049 71322 85320 333 56690 59020 70000 83710 84615 81930 86459;EQDQ01  00002PRCP24
0244418590999992000041400004+25730+089230FM-12+003499999V0202701N001010042019N0036001N1+02021+01761100541ADDAA109071191AY191061AY261061GA1031+002709059GA2051+004209069GF108991051061002501021999MA1999999100141MD1999999-0201MW1211REMSYN112AAXX  14004 41859 11336 82702 10202 20176 30014 40054 60718 72196 8562/ 333 56699 59020 70712 83509 85614 88458;
0201418590999992000041412004+25730+089230FM-12+003499999V0200901N003112200019N0060001N1+02651+02001100301ADDAA124071191GA1031+036009079GF103991021001999999031001KA1120M+02791MA1999999099901MD1999999-0061REMSYN094AAXX  14124 41859 32956 30906 10265 20200 39990 40030 82030 333 10279 56090 59006 70712 83362;
0192418590999992000041418004+25730+089230FM-12+003499999V0209999C000012200019N0046001N1+02221+02101100681ADDAA124071191AY111061AY201061GA1001+999999999GF100991001001999999001001MA1999999100281MD1999999+0191MW1051REMSYN076AAXX  14184 41859 31946 00000 10222 20210 30028 40068 70510 333 58019 70712;
