0177421110999992000010100004+30320+078030FM-12+068299999V0203201N000512200019N0040001N1+00641+00511101841ADDAA106000091GA1001+999999999GF100991001001999999001001MA1999999093801MD1999999+0231REMSYN064AAXX  01004 42111 32996 03201 10064 20051 39380 40184 333 58023;EQDQ01  00002PRCP06
0177421110999992000010109004+30320+078030FM-12+068299999V0202301N000512200019N0040001N1+02921+00861101531ADDAA106000091GA1001+999999999GF100991001001999999001001MA1999999093861MD1999999+0131REMSYN064AAXX  01094 42111 32996 02301 10292 20086 39386 40153 333 58013;EQDQ01  00002PRCP06
0177421110999992000010118004+30320+078030FM-12+068299999V0200501N001012200019N0040001N1+01001+00721101881ADDAA106000091GA1001+999999999GF100991001001999999001001MA1999999093921MD1999999-0061REMSYN064AAXX  01184 42111 32996 00502 10100 20072 39392 40188 333 59006;EQDQ01  00002PRCP06
0177421110999992000010206004+30320+078030FM-12+068299999V0203201N001012200019N0040001N1+01801+00791101771ADDAA106000091GA1001+999999999GF100991001001999999001001MA1999999094031MD1999999+0001REMSYN064AAXX  02064 42111 32996 03202 10180 20079 39403 40177 333 58000;EQDQ01  00002PRCP06
0236421110999992000010212004+30320+078030FM-12+068299999V0202701N000512200019N0020001N1+01601+00941101561ADDAA106000091AY111061AY211061GA1021+030009079GF102991021001999999031001KA1120M+02161MA1999999093791MD1999999+0001MW1051REMSYN088AAXX  02124 42111 31995 22701 10160 20094 39379 40156 70511 82030 333 10216 58000 82360;EQDQ01  00002PRCP06
0177421110999992000010215004+30320+078030FM-12+068299999V0200501N000512200019N0040001N1+01181+00791101731ADDAA106000091GA1001+999999999GF100991001001999999001001MA1999999093841MD1999999-0071REMSYN064AAXX  02154 42111 32996 00501 10118 20079 39384 40173 333 59007;EQDQ01  00002PRCP06
0133421110999992000010300004+30320+078030FM-12+068299999V0200501N000512200019N0040001N1+00601+00511101741ADDGA1001+999999999GF100991001001999999001001MA1999999093691REMSYN064AAXX  03004 42111 42996 00501 10060 20051 39369 40174 333 9014/;
0196421110999992000010303004+30320+078030FM-12+068299999V0203201N000512200019N0040001N1+00681+00641101811ADDAA106000091GA1001+999999999GF100991001001999999001001KA1120M+02161MA1999999093771MD1999999-0091REMSYN070AAXX  03034 42111 32996 03201 10068 20064 39377 40181 333 10216 59009;EQDQ01  00002PRCP06
0177421110999992000010309004+30320+078030FM-12+068299999V0203201N001012200019N0040001N1+02101+00961101291ADDAA106000091GA1001+999999999GF100991001001999999001001MA1999999093671MD1999999-0151REMSYN064AAXX  03094 42111 32996 03202 10210 20096 39367 40129 333 59015;EQDQ01  00002PRCP06
0224421110999992000010312004+30320+078030FM-12+068299999V0209999C000012200019N0020001N1+01601+01021101331ADDAA106000091AY101061AY201061GA1001+999999999GF100991001001999999001001KA1120M+02141MA1999999093571MD1999999-0221MW1051REMSYN076AAXX  03124 42111 31995 00000 10160 20102 39357 40133 70500 333 10214 59022;EQDQ01  00002PRCP06
0205421110999992000010315004+30320+078030FM-12+068299999V0200501N001012200019N0020001N1+01001+00721101541ADDAA106000091AY101031AY201031GA1001+999999999GF100991001001999999001001MA1999999093611MD1999999-0231MW1051REMSYN070AAXX  03154 42111 31995 00502 10100 20072 39361 40154 70500 333 59023;EQDQ01  00002PRCP06
0177421110999992000010318004+30320+078030FM-12+068299999V0200501N000512200019N0040001N1+00841+00631101551ADDAA106000091GA1001+999999999GF100991001001999999001001MA1999999093591MD1999999-0271REMSYN064AAXX  03184 42111 32996 00501 10084 20063 39359 40155 333 59027;EQDQ01  00002PRCP06
0153421110999992000010406004+30320+078030FM-12+068299999V0201801N001012200019N0040001N1+99999+99999101521ADDAA106000091GA1001+999999999GF100991001001999999001001MA1999999093801REMSYN054AAXX  04064 42111 32996 01802 20183 39380 40152 59003;EQDQ01  00002PRCP06
0205421110999992000010409004+30320+078030FM-12+068299999V0201801N001012200019N0020001N1+01881+01111101321ADDAA106000091AY101031AY201031GA1001+999999999GF100991001001999999001001MA1999999093641MD1999999-0031MW1051REMSYN070AAXX  04094 42111 31995 01802 10188 20111 39364 40132 70500 333 59003;EQDQ01  00002PRCP06
0177421110999992000010418004+30320+078030FM-12+068299999V0200501N000512200019N0040001N1+00881+00801101741ADDAA106000091GA1001+999999999GF100991001001999999001001MA1999999093761MD1999999+0171REMSYN064AAXX  04184 42111 32996 00501 10088 20080 39376 40174 333 58017;EQDQ01  00002PRCP06
0189421110999992000010606004+30320+078030FM-12+068299999V0203601N001012200019N0040001N1+01601+00631101571ADDAA106000091GA1031+075009019GF103991001001999999001011MA1999999093801MD1999999-0071REMSYN076AAXX  06064 42111 32996 33602 10160 20063 39380 40157 80001 333 59007 83075;EQDQ01  00002PRCP06
0189421110999992000010609004+30320+078030FM-12+068299999V0202301N000512200019N0040001N1+01941+00701101131ADDAA106000091GA1041+075009019GF104991001001999999001011MA1999999093501MD1999999-0151REMSYN076AAXX  06094 42111 32996 42301 10194 20070 39350 40113 80001 333 59015 84075;EQDQ01  00002PRCP06
0196421110999992000010612004+30320+078030FM-12+068299999V0209999C000012200019N0040001N1+01581+00741999999ADDAA106000091GA1021+075009019GF102991999999999999999999KA1120M+02071MA1999999093501MD1999999-0111REMSYN070AAXX  06124 42111 32996 20000 10158 20074 39350 333 10207 59011 82075;EQDQ01  00002PRCP06
0205421110999992000010615004+30320+078030FM-12+068299999V0209999C000012200019N0020001N1+00881+00631101451ADDAA106000091AY101031AY201031GA1001+999999999GF100991001001999999001001MA1999999093501MD1999999-0221MW1051REMSYN070AAXX  06154 42111 31995 00000 10088 20063 39350 40145 70500 333 59022;EQDQ01  00002PRCP06
0177421110999992000010700004+30320+078030FM-12+068299999V0209999C000012200019N0040001N1+00441+00351101501ADDAA106000091GA1001+999999999GF100991001001999999001001MA1999999093441MD1999999-0161REMSYN064AAXX  07004 42111 32996 00000 10044 20035 39344 40150 333 59016;EQDQ01  00002PRCP06
0217421110999992000010709004+30320+078030FM-12+068299999V0201801N000512200019N0020001N1+01541+01031101311ADDAA106000091AY111031AY201031GA1011+030009079GF102991011001999999051011MA1999999093551MD1999999+0051MW1051REMSYN082AAXX  07094 42111 31995 21801 10154 20103 39355 40131 70510 81051 333 58005 81360;EQDQ01  00002PRCP06
0242421110999992000010712004+30320+078030FM-12+068299999V0201801N000512200019N0020001N1+01101+00871101391ADDAA106000091AY111061AY211061GA1011+030009039GF103991011001999999031011KA1120M+01551MA1999999093501MD1999999+0001MW1051REMSYN094AAXX  07124 42111 31995 31801 10110 20087 39350 40139 70511 81031 333 10155 58000 81360 83075;EQDQ01  00002PRCP06
0205421110999992000010715004+30320+078030FM-12+068299999V0209999C000012200019N0010001N1+00841+00801101681ADDAA106000091AY101031AY201031GA1001+999999999GF100991001001999999001001MA1999999093681MD1999999+0181MW1101REMSYN070AAXX  07154 42111 31994 00000 10084 20080 39368 40168 71000 333 58018;EQDQ01  00002PRCP06
0205421110999992000010718004+30320+078030FM-12+068299999V0200501N001012200019N0020001N1+00821+00741101621ADDAA106000091AY101061AY201061GA1001+999999999GF100991001001999999001001MA1999999093661MD1999999+0071MW1051REMSYN070AAXX  07184 42111 31995 00502 10082 20074 39366 40162 70500 333 58007;EQDQ01  00002PRCP06
0217421110999992000010800004+30320+078030FM-12+068299999V0203201N000512200019N0020001N1+00741+00661101511ADDAA106000091AY111061AY211061GA1031+030009079GF103991031001999999031001MA1999999093511MD1999999+0071MW1051REMSYN082AAXX  08004 42111 31995 33201 10074 20066 39351 40151 70511 83030 333 58007 83360;EQDQ01  00002PRCP06
0245421110999992000010806004+30320+078030FM-12+068299999V0201401N000510300019N0020001N1+01321+00781101561ADDAA106000091AY121061AY221061GA1041+010509069GA2041+030009039GF107991041051012501051011MA1999999093741MD1999999-0031MW1051REMSYN094AAXX  08064 42111 31695 71401 10132 20078 39374 40156 70522 84551 333 59003 84635 84360 86075;EQDQ01  00002PRCP06
0223421110999992000010809004+30320+078030FM-12+068299999V0202301N00051036001CN0020001N1+01681+00731101271ADDAA106000091AY121031AY221031GA1011+012009089GF106991011011012501071001MA1999999093541MD1999999-0011MW1051REMSYN088AAXX  08094 42111 31695 62301 10168 20073 39354 40127 70522 81170 333 59001 81840 85360;EQDQ01  00002PRCP06
0214421110999992000010812004+30320+078030FM-12+068299999V0209999C000010105019N0040001N1+01381+00891101211ADDAA106000091GA1051+010509069GF107991051081012501071001KA1120M+01751MA1999999093411MD1999999-0091REMSYN088AAXX  08124 42111 32696 70000 10138 20089 39341 40121 85870 333 10175 59009 85635 86760;EQDQ01  00002PRCP06
0195421110999992000010909004+30320+078030FM-12+068299999V0201401N00101036001CN0040001N1+01701+00511101251ADDAA106000091GA1021+010509069GF106991021051012501031011MA1999999093531MD1999999-0021REMSYN082AAXX  09094 42111 32696 61402 10170 20051 39353 40125 82531 333 59002 82635 85360;EQDQ01  00002PRCP06
0223421110999992000010915004+30320+078030FM-12+068299999V0209999C00001036001CN0020001N1+01181+00791101321ADDAA106000091AY121031AY221031GA1041+010509069GF107991041051012501021001MA1999999093551MD1999999+0071MW1051REMSYN088AAXX  09154 42111 31695 70000 10118 20079 39355 40132 70522 84520 333 58007 84635 84460;EQDQ01  00002PRCP06
0195421110999992000010918004+30320+078030FM-12+068299999V0200501N001019999999N0040001N1+01201+00601101341ADDAA106000091GA1031+030009039GF105991031001999999051021MA1999999093571MD1999999+0031REMSYN082AAXX  09184 42111 32996 50502 10120 20060 39357 40134 83052 333 58003 83360 84075;EQDQ01  00002PRCP06
0223421110999992000011000004+30320+078030FM-12+068299999V0200501N001019999999N0040001N1+00881+00501101391ADDAA106000091AY121061AY221061GA1031+030009039GF105991031001999999051021MA1999999093451MD1999999+0091MW1051REMSYN088AAXX  10004 42111 32996 50502 10088 20050 39345 40139 70522 83052 333 58009 83360 84075;EQDQ01  00002PRCP06
0236421110999992000011003004+30320+078030FM-12+068299999V0200501N000510300019N0040001N1+01041+00771101471ADDAA106000091GA1021+010509069GA2031+030009039GF107991021051012501031011KA1120M+01831MA1999999093571MD1999999+0081REMSYN094AAXX  10034 42111 32696 70501 10104 20077 39357 40147 82531 333 10183 58008 82635 83360 85075;EQDQ01  00002PRCP06
0223421110999992000011006004+30320+078030FM-12+068299999V0203201N00051036001CN0020001N1+01521+00761101501ADDAA106000091AY121061AY221061GA1041+010509069GF107991041051012501071001MA1999999093731MD1999999+0141MW1051REMSYN088AAXX  10064 42111 31695 73201 10152 20076 39373 40150 70522 84570 333 58014 84635 86360;EQDQ01  00002PRCP06
0214421110999992000011012004+30320+078030FM-12+068299999V0209999C00001036001CN0040001N1+01561+01021101121ADDAA106000091GA1041+010509069GF106991041051012501071001KA1120M+01811MA1999999093381MD1999999-0021REMSYN088AAXX  10124 42111 32696 60000 10156 20102 39338 40112 84570 333 10181 59002 84635 85360;EQDQ01  00002PRCP06
0189421110999992000011018004+30320+078030FM-12+068299999V0200501N000512200019N0040001N1+01141+00991101531ADDAA106000091GA1041+030009079GF104991041001999999031001MA1999999093661MD1999999+0091REMSYN076AAXX  10184 42111 32996 40501 10114 20099 39366 40153 84030 333 58009 84360;EQDQ01  00002PRCP06
0240421110999992000011103004+30320+078030FM-12+068299999V0209999C000010105019N0040001N1+01281+00861101591ADDAA100000791AA224999929AY161031AY221031GA1051+010509069GF108991051051012501021999KA1120N+01071MA1999999093731MD1999999+0161MW1211REMSYN100AAXX  11034 42111 21696 80000 10128 20086 39373 40159 72162 8552/ 333 20107 58016 6990/ 85635 88460;
0212421110999992000011112004+30320+078030FM-12+068299999V0203201N00051036001CN0040001N1+99999+99999101211ADDAA100000791AA209999929GA1041+010509069GF107991041051012501071001KA1120M+01841MA1999999093491MD1999999+0111REMSYN094AAXX  11124 42111 22696 73201 101/2 20109 39349 40121 84570 333 10184 58011 6990/ 84635 86360;
0193421110999992000011115004+30320+078030FM-12+068299999V0200501N00051036001CN0040001N1+01301+00971101431ADDAA100000791AA212999929GA1021+010509069GF105991021051012501031001MA1999999093591MD1999999+0071REMSYN088AAXX  11154 42111 22696 50501 10130 20097 39359 40143 82530 333 58007 6990/ 82635 85360;
0193421110999992000011118004+30320+078030FM-12+068299999V0200501N000512200019N0040001N1+01161+00851101481ADDAA100000791AA215999929GA1021+010509069GF104991021051012501031001MA1999999093611MD1999999-0051REMSYN088AAXX  11184 42111 22696 40501 10116 20085 39361 40148 82530 333 59005 6990/ 82635 84360;
0243421110999992000011200004+30320+078030FM-12+068299999V0203201N000510090019N0040001N1+01241+00821101241ADDAA100000791AA221999929AY191061AY261061GA1051+009009069GA2011+011409099GF108991061091008001021999MA1999999093411MD1999999-0251MW1171REMSYN100AAXX  12004 42111 21596 83201 10124 20082 39341 40124 71796 8692/ 333 59025 6990/ 85630 81938 87458;
0240421110999992000011203004+30320+078030FM-12+068299999V0209999C000010090019N0020001N1+01281+00981101441ADDAA100000191AA224000291AY191031AY261031GA1051+009009069GF108991061051008001021999KA1120N+01041MA1999999093601MD1999999-0131MW1611REMSYN100AAXX  12034 42111 21595 80000 10128 20098 39360 40144 76196 8652/ 333 20104 59013 6992/ 85630 87458;
0243421110999992000011206004+30320+078030FM-12+068299999V0200501N001010105019N0020001N1+01401+01261101491ADDAA100000891AA203000891AY191061AY261061GA1041+009009069GA2031+010509089GF108991061081008001021999MA1999999093671MD1999999-0231MW1601REMSYN100AAXX  12064 42111 21595 80502 10140 20126 39367 40149 76096 8682/ 333 59023 6998/ 84630 83835 88460;
0227421110999992000011209004+30320+078030FM-12+068299999V0200501N00051060001CN0040001N1+01601+01021101071ADDAA100004192AA206004092AY161031AY221031GA1051+060009089GF107991051081012501071001MA1999999093331MD1999999-0321MW1211REMSYN100AAXX  12094 42111 21696 70501 10160 20102 39333 40107 72162 85870 333 59032 6004/ 83635 83840 86360;
0265421110999992000011215004+30320+078030FM-12+068299999V0201401N001010114019N0020001N1+01201+01161101571ADDAA100015091AA212015091AY191031AY261031GA1041+009009069GA2031+011409089GA3011+012009099GF108991061091008001021999MA1999999093701MD1999999+0111MW1611REMSYN106AAXX  12154 42111 21595 81402 10120 20116 39370 40157 76196 8692/ 333 58011 6015/ 84630 83838 81940 88458;
0221421110999992000011218004+30320+078030FM-12+068299999V0203601N00051036001CN0040001N1+01041+00961101451ADDAA100020192AA215020092AY191061AY261061GA1021+010509069GF105991021051012501071001MA1999999093551MD1999999-0061MW1291REMSYN094AAXX  12184 42111 21696 53601 10104 20096 39355 40145 72996 82570 333 59006 6020/ 82635 84360;
0193421110999992000011300004+30320+078030FM-12+068299999V0209999C00001036001CN0040001N1+01041+01001101291ADDAA100020192AA221020092GA1031+010509069GF106991031051012501071001MA1999999093391MD1999999-0021REMSYN088AAXX  13004 42111 22696 60000 10104 20100 39339 40129 83570 333 59002 6020/ 83635 85360;
0234421110999992000011303004+30320+078030FM-12+068299999V0200901N000510360019N0040001N1+01021+00981101451ADDAA100020192AA224020092GA1021+010509069GA2021+999999069GF106991031081012501071001KA1120M+01721MA1999999093551MD1999999-0051REMSYN100AAXX  13034 42111 22696 60901 10102 20098 39355 40145 83870 333 10172 59005 6020/ 8262/ 82635 85360;
0195421110999992000011306004+30320+078030FM-12+068299999V0202301N00051036001CN0040001N1+01421+00901101361ADDAA106000091GA1031+010509069GF107991041081012501071001MA1999999093571MD1999999-0101REMSYN082AAXX  13064 42111 32696 72301 10142 20090 39357 40136 84870 333 59010 83635 86360;EQDQ01  00002PRCP06
0195421110999992000011309004+30320+078030FM-12+068299999V0203201N00151012001CN0040001N1+01441+01081101191ADDAA106000091GA1041+009009069GF107991051081008001021001MA1999999093421MD1999999+0091REMSYN082AAXX  13094 42111 32596 73203 10144 20108 39342 40119 85820 333 58009 84630 86458;EQDQ01  00002PRCP06
0240421110999992000011312004+30320+078030FM-12+068299999V0209999C00001036001CN0040001N1+01201+01051101171ADDAA100000791AA209999929AY161061AY221061GA1021+010509069GF106991031081012501031001KA1120M+01571MA1999999093311MD1999999-0081MW1211REMSYN100AAXX  13124 42111 21696 60000 10120 20105 39331 40117 72162 83830 333 10157 59008 6990/ 82635 85360;
0243421110999992000011315004+30320+078030FM-12+068299999V0203601N000510090019N0020001N1+01101+00991101351ADDAA100005192AA212005092AY191031AY261031GA1051+009009069GA2031+010509099GF108991061091008001021999MA1999999093461MD1999999-0241MW1951REMSYN100AAXX  13154 42111 21595 83601 10110 20099 39346 40135 79596 8692/ 333 59024 6005/ 85630 83935 87458;
0199421110999992000011406004+30320+078030FM-12+068299999V0201401N002112200019N0040001N1+01501+01071101401ADDAA199000091GA1021+010509069GF104991031081012501031001MA1999999093611MD1999999+0041REMSYN086    AAXX  14064 42111 32696 41404 10150 20107 39361 40140 83830 333 58004 82635 83360;EQDQ01  00002PRCP99
0216421110999992000011415004+30320+078030FM-12+068299999V0200501N000512200019N0040001N1+01141+00791101401ADDAA100000791AA212999999GA1011+010509059GF104991011051012501071001MA1999999093551MD1999999+0091REMSYN092    AAXX  14154 42111 22696 40501 10114 20079 39355 40140 81570 333 58009 6990/ 81535 83360;EQDQ01  99992PRCP12
0254421110999992000011418004+30320+078030FM-12+068299999V0200501N000512200019N0020001N1+00901+00741101511ADDAA100000791AA215999999AY121061AY221061GA1031+030009019GF104991041001999999071999MA1999999093551MD1999999+0111MW1051REMSYN092    AAXX  14184 42111 21995 40501 10090 20074 39355 40151 70522 84070 333 58011 6990/ 83460;EQDQ01+000002SCOHCGQ02  99992PRCP15
0210421110999992000011500004+30320+078030FM-12+068299999V0200501N000512200019N0040001N1+00701+00391101491ADDAA100000791AA221999999GA1021+030009079GF102991021001999999031001MA1999999093491MD1999999+0181REMSYN086    AAXX  15004 42111 22996 20501 10070 20039 39349 40149 82030 333 58018 6990/ 82360;EQDQ01  99992PRCP21
0181421110999992000011506004+30320+078030FM-12+068299999V0200501N000512200019N0040001N1+01421+00431101461ADDAA199000091GA1001+999999999GF100991001001999999001001MA1999999093671MD1999999+0061REMSYN068    AAXX  15064 42111 32996 00501 10142 20043 39367 40146 333 58006;EQDQ01  00002PRCP99
0193421110999992000011509004+30320+078030FM-12+068299999V0202301N001012200019N0040001N1+01701+00661101271ADDAA199000091GA1021+012009029GF102991021021999999001001MA1999999093541MD1999999+0111REMSYN080    AAXX  15094 42111 32996 22302 10170 20066 39354 40127 82200 333 58011 82840;EQDQ01  00002PRCP99
0181421110999992000011515004+30320+078030FM-12+068299999V0209999C000012200019N0040001N1+00681+00421101761ADDAA199000091GA1001+999999999GF100991001001999999001001MA1999999093721MD1999999+0171REMSYN068    AAXX  15154 42111 32996 00000 10068 20042 39372 40176 333 58017;EQDQ01  00002PRCP99
0200421110999992000011603004+30320+078030FM-12+068299999V0200501N000512200019N0040001N1+00261+00111102101ADDAA199000091GA1001+999999999GF100991001001999999001001KA1120M+01761MA1999999093931MD1999999+0381REMSYN074    AAXX  16034 42111 32996 00501 10026 20011 39393 40210 333 10176 58038;EQDQ01  00002PRCP99
0209421110999992000011606004+30320+078030FM-12+068299999V0203201N001012200019N0040001N1+01381+00221101392ADDAA199000091GA1011+075009019GF101991001001999999001011MA1999999093571MD1999999-0101REMSYN080    AAXX  16064 42111 32996 13202 10138 20022 39357 40139 80001 333 59010 81075;EQDQ01+101393APOSLPQ02  00002PRCP99
0181421110999992000011609004+30320+078030FM-12+068299999V0203201N002112200019N0040001N1+01681+00321101751ADDAA199000091GA1001+999999999GF100991001001999999001001MA1999999093981MD1999999+0441REMSYN068    AAXX  16094 42111 32996 03204 10168 20032 39398 40175 333 58044;EQDQ01  00002PRCP99
0226421110999992000011612004+30320+078030FM-12+068299999V0200101N016412200019N9999999N1+99999+99999999999ADDAA199000091GF101991999011999999061051KA1120M+01711MA1999999999999MD1999999+0321REMSYN068    AAXX  16124 42111 3//// 10132 20046 35382 80165 333 10171 58032;EQDQ01+000002SCOTLCQ02+053823APOSP Q03  00002PRCP99Q04 053823APOSP 
0181421110999992000011700004+30320+078030FM-12+068299999V0200501N000512200019N0040001N1+00401+00161101951ADDAA199000091GA1001+999999999GF100991001001999999001001MA1999999093821MD1999999+0031REMSYN068    AAXX  17004 42111 32996 00501 10040 20016 39382 40195 333 58003;EQDQ01  00002PRCP99
0212421110999992000011703004+30320+078030FM-12+068299999V0209999C000012200019N0040001N1+00501+00271102131ADDAA199000091GA1011+012009099GF101991011011012501001001KA1120M+01711MA1999999094021MD1999999+0091REMSYN086    AAXX  17034 42111 32696 10000 10050 20027 39402 40213 81100 333 10171 58009 81140;EQDQ01  00002PRCP99
0193421110999992000011706004+30320+078030FM-12+068299999V0203201N000512200019N0040001N1+01461+00441101961ADDAA199000091GA1021+030009079GF104991021001999999031021MA1999999094121MD1999999+0551REMSYN080    AAXX  17064 42111 32996 43201 10146 20044 39412 40196 82032 333 58055 82360;EQDQ01  00002PRCP99
0181421110999992000011709004+30320+078030FM-12+068299999V0200501N000512200019N0040001N1+02001+00301101581ADDAA199000091GA1001+999999999GF100991001001999999001001MA1999999093901MD1999999-0081REMSYN068    AAXX  17094 42111 32996 00501 10200 20030 39390 40158 333 59008;EQDQ01  00002PRCP99
0181421110999992000011715004+30320+078030FM-12+068299999V0200501N001012200019N0040001N1+01001+00761101921ADDAA199000091GA1001+999999999GF100991001001999999001001MA1999999093961MD1999999+0081REMSYN068    AAXX  17154 42111 32996 00502 10100 20076 39396 40192 333 58008;EQDQ01  00002PRCP99
0181421110999992000011718004+30320+078030FM-12+068299999V0200501N001012200019N0040001N1+00501+00401101981ADDAA199000091GA1001+999999999GF100991001001999999001001MA1999999093891MD1999999-0011REMSYN068    AAXX  17184 42111 32996 00502 10050 20040 39389 40198 333 59001;EQDQ01  00002PRCP99
0181421110999992000011800004+30320+078030FM-12+068299999V0200501N001012200019N0040001N1+00641+00421101751ADDAA199000091GA1001+999999999GF100991001001999999001001MA1999999093711MD1999999-0111REMSYN068    AAXX  18004 42111 32996 00502 10064 20042 39371 40175 333 59011;EQDQ01  00002PRCP99
0231421110999992000011803004+30320+078030FM-12+068299999V0200501N000512200019N0040001N1+00661+00491101871ADDAA199000091GA1021+030009079GF102991021001999999031001KA1120M+02111KA2120N+00561MA1999999093831MD1999999-0191REMSYN092    AAXX  18034 42111 32996 20501 10066 20049 39383 40187 82030 333 10211 20056 59019 82360;EQDQ01  00002PRCP99
0199421110999992000011806004+30320+078030FM-12+068299999V0202301N001012200019N0040001N1+01901+00791101631ADDAA199000091GA1011+012009089GF104991011011012501001011MA1999999093921MD1999999-0201REMSYN086    AAXX  18064 42111 32696 42302 10190 20079 39392 40163 81101 333 59020 81840 83075;EQDQ01  00002PRCP99
0193421110999992000011809004+30320+078030FM-12+068299999V0203201N000512200019N0040001N1+02181+00481101311ADDAA199000091GA1031+030009079GF103991031001999999031001MA1999999093701MD1999999-0201REMSYN080    AAXX  18094 42111 32996 33201 10218 20048 39370 40131 83030 333 59020 83360;EQDQ01  00002PRCP99
0209421110999992000011818004+30320+078030FM-12+068299999V0209999C000019999999N0040001N1+01081+00851101631ADDAA199000091GA1041+030009019GF105991051001999999071999MA1999999093711MD1999999-0181REMSYN080    AAXX  18184 42111 32996 50000 10108 20085 39371 40163 85070 333 59018 84460;EQDQ01+000002SCOHCGQ02  00002PRCP99
0231421110999992000011903004+30320+078030FM-12+068299999V0200501N000512200019N0040001N1+01041+00681101411ADDAA199000091GA1021+030009079GF103991021001999999031011KA1120M+02401KA2120N+00901MA1999999093511MD1999999-0221REMSYN092    AAXX  19034 42111 32996 30501 10104 20068 39351 40141 82031 333 10240 20090 59022 82360;EQDQ01  00002PRCP99
0193421110999992000011906004+30320+078030FM-12+068299999V0201401N000519999999N0040001N1+02041+00791101271ADDAA199000091GA1041+030009079GF105991051071999999001001MA1999999093651MD1999999-0271REMSYN080    AAXX  19064 42111 32996 51401 10204 20079 39365 40127 85700 333 59027 84360;EQDQ01  00002PRCP99
0215421110999992000011909004+30320+078030FM-12+068299999V0202601N999992200019N9999999N1+02281+01111100931ADDAA199000091GA1031+012009089GF103991031021999999051001MA1999999093371MD1999999-0331REMSYN086    AAXX  19094 42111 3299/ 32696 10228 20111 39337 40093 83250 333 59033 83840 85360;EQDQ01+004933WOSPD Q02  00002PRCP99
0240421110999992000011912004+30320+078030FM-12+068299999V0203201N000512200019N0020001N1+01761+00921101011ADDAA199000091AY121061AY211061GA1031+030009079GF103991031001999999031001KA1120M+02341MA1999999093321MD1999999-0321MW1051REMSYN092    AAXX  19124 42111 31995 33201 10176 20092 39332 40101 70521 83030 333 10234 59032 83360;EQDQ01  00002PRCP99
0195421110999992000011915004+30320+078030FM-12+068299999V0200501N00051036001CN0040001N1+01101+00831101311ADDAA199000091GA1021+010509069GF105991021051012501031001MA1999999093421MD1999999-0301REMSYN082AAXX  19154 42111 32696 50501 10110 20083 39342 40131 82530 333 59030 82635 85360;EQDQ01  00002PRCP99
0177421110999992000011918004+30320+078030FM-12+068299999V0200501N000512200019N0040001N1+00921+00801101201ADDAA199000091GA1001+999999999GF100991001001999999001001MA1999999093301MD1999999-0411REMSYN064AAXX  19184 42111 32996 00501 10092 20080 39330 40120 333 59041;EQDQ01  00002PRCP99
0189421110999992000012000004+30320+078030FM-12+068299999V0203201N000512200019N0040001N1+00701+00621101051ADDAA199000091GA1021+030009079GF102991021001999999031001MA1999999093081MD1999999-0401REMSYN076AAXX  20004 42111 32996 23201 10070 20062 39308 40105 82030 333 59040 82360;EQDQ01  00002PRCP99
0217421110999992000012006004+30320+078030FM-12+068299999V0202301N001012200019N0020001N1+01781+00901100771ADDAA199000091AY101061AY201061GA1011+012009029GF102991011011012501001011MA1999999093101MD1999999-0551MW1051REMSYN082AAXX  20064 42111 31695 22302 10178 20090 39310 40077 70500 81101 333 59055 81840;EQDQ01  00002PRCP99
0195421110999992000012009004+30320+078030FM-12+068299999V0202301N001012200019N0040001N1+02061+00911100471ADDAA199000091GA1011+030009039GF104991011001999999031011MA1999999092901MD1999999-0471REMSYN082AAXX  20094 42111 32996 42302 10206 20091 39290 40047 81031 333 59047 81360 83075;EQDQ01  00002PRCP99
0236421110999992000012012004+30320+078030FM-12+068299999V0209999C000012200019N0020001N1+01601+01141100661ADDAA199000091AY121061AY221061GA1041+030009079GF104991041001999999031001KA1120M+02111MA1999999092951MD1999999-0371MW1051REMSYN088AAXX  20124 42111 31995 40000 10160 20114 39295 40066 70522 84030 333 10211 59037 84360;EQDQ01  00002PRCP99
0217421110999992000012015004+30320+078030FM-12+068299999V0209999C000012200019N0020001N1+01161+00971100901ADDAA199000091AY121031AY221031GA1031+030009079GF103991031001999999031001MA1999999093081MD1999999-0341MW1051REMSYN082AAXX  20154 42111 32995 30000 10116 20097 39308 40090 70522 83030 333 59034 83360;EQDQ01  00002PRCP99
0217421110999992000012018004+30320+078030FM-12+068299999V0209999C000010300019N0020001N1+01021+00911101091ADDAA199000091AY101061AY201061GA1051+030009079GF105991051001999999031001MA1999999093221MD1999999-0081MW1051REMSYN082AAXX  20184 42111 32995 50000 10102 20091 39322 40109 70500 85030 333 59008 85360;EQDQ01  00002PRCP99
0189421110999992000012100004+30320+078030FM-12+068299999V0203201N000512200019N0040001N1+00801+00781101171ADDAA199000091GA1031+030009079GF103991031001999999031001MA1999999093221MD1999999+0141REMSYN076AAXX  21004 42111 32996 33201 10080 20078 39322 40117 83030 333 58014 83360;EQDQ01  00002PRCP99
0137421110999992000012103004+30320+078030FM-12+068299999V0209999C000019999999N0020001N1+00901+00841101421ADDAA199000091GF106991999999999999999999MA1999999093481REMSYN054AAXX  21034 42111 32995 60000 10090 20084 39348 40142;EQDQ01  00002PRCP99
0189421110999992000012109004+30320+078030FM-12+068299999V0202301N001512200019N0040001N1+02001+01051101171ADDAA199000091GA1011+012009029GF101991011011012501001001MA1999999093521MD1999999+0621REMSYN076AAXX  21094 42111 32696 12303 10200 20105 39352 40117 81100 333 58062 81840;EQDQ01  00002PRCP99
0230421110999992000012112004+30320+078030FM-12+068299999V0209999C000012200019N0020001N1+01661+01211101201ADDAA199000091AY111061AY211061GA1021+030009079GF102991999999999999999999KA1120M+02011MA1999999093481MD1999999+0531MW1051REMSYN082AAXX  21124 42111 31995 20000 10166 20121 39348 40120 70511 333 10201 58053 82360;EQDQ01  00002PRCP99
0223421110999992000012115004+30320+078030FM-12+068299999V0200501N000510105019N0020001N1+01361+01151101561ADDAA199000091AY121031AY221031GA1061+010509069GF108991061051012501021999MA1999999093731MD1999999+0651MW1051REMSYN088AAXX  21154 42111 31695 80501 10136 20115 39373 40156 70522 8652/ 333 58065 86635 87460;EQDQ01  00002PRCP99
0223421110999992000012118004+30320+078030FM-12+068299999V0200501N00101036001CN0020001N1+01241+01061101591ADDAA199000091AY121061AY221061GA1041+010509069GF106991041051012501021001MA1999999093731MD1999999+0511MW1051REMSYN088AAXX  21184 42111 31695 60502 10124 20106 39373 40159 70522 84520 333 58051 84635 85460;EQDQ01  00002PRCP99
0171421110999992000012200004+30320+078030FM-12+068299999V0200501N000512200019N0020001N1+00941+00821101541ADDAA199000091AY121061AY221061GF103991011051012501031011MA1999999093611MW1051REMSYN066AAXX  22004 42111 31695 30501 10094 20082 39361 40154 70522 81531;EQDQ01  00002PRCP99
0223421110999992000012206004+30320+078030FM-12+068299999V0202301N00101036001CN0020001N1+01501+00951101601ADDAA199000091AY121061AY221061GA1031+010509069GF106991031051012501031001MA1999999093801MD1999999+0131MW1051REMSYN088AAXX  22064 42111 31695 62302 10150 20095 39380 40160 70522 83530 333 58013 83635 85360;EQDQ01  00002PRCP99
0242421110999992000012212004+30320+078030FM-12+068299999V0202701N00051036001CN0020001N1+01641+01151101321ADDAA199000091AY121061AY221061GA1011+010509069GF105991011051012501031001KA1120M+01731MA1999999093591MD1999999+0111MW1051REMSYN094AAXX  22124 42111 31695 52701 10164 20115 39359 40132 70522 81530 333 10173 58011 81635 85360;EQDQ01  00002PRCP99
0205421110999992000012215004+30320+078030FM-12+068299999V0200501N000512200019N0020001N1+01141+00951101581ADDAA199000091AY121031AY201031GA1001+999999999GF100991001001999999001001MA1999999093701MD1999999-0031MW1051REMSYN070AAXX  22154 42111 31995 00501 10114 20095 39370 40158 70520 333 59003;EQDQ01  00002PRCP99
0177421110999992000012218004+30320+078030FM-12+068299999V0200501N000512200019N0040001N1+00981+00781101661ADDAA199000091GA1001+999999999GF100991001001999999001001MA1999999093711MD1999999-0021REMSYN064AAXX  22184 42111 31996 00501 10098 20078 39371 40166 333 59002;EQDQ01  00002PRCP99
0177421110999992000012300004+30320+078030FM-12+068299999V0200501N000512200019N0040001N1+00761+00591101591ADDAA199000091GA1001+999999999GF100991001001999999001001MA1999999093601MD1999999-0011REMSYN064AAXX  23004 42111 32996 00501 10076 20059 39360 40159 333 59001;EQDQ01  00002PRCP99
0177421110999992000012315004+30320+078030FM-12+068299999V0200501N000512200019N0040001N1+01161+00971101541ADDAA199000091GA1001+999999999GF100991001001999999001001MA1999999093671MD1999999-0031REMSYN064AAXX  23154 42111 32996 00501 10116 20097 39367 40154 333 59003;EQDQ01  00002PRCP99
0177421110999992000012318004+30320+078030FM-12+068299999V0200501N000512200019N0040001N1+01021+00871101651ADDAA199000091GA1001+999999999GF100991001001999999001001MA1999999093731MD1999999-0021REMSYN064AAXX  23184 42111 32996 00501 10102 20087 39373 40165 333 59002;EQDQ01  00002PRCP99
0177421110999992000012400004+30320+078030FM-12+068299999V0200501N000512200019N0040001N1+00801+00641101631ADDAA199000091GA1001+999999999GF100991001001999999001001MA1999999093641MD1999999+0041REMSYN064AAXX  24004 42111 32996 00501 10080 20064 39364 40163 333 58004;EQDQ01  00002PRCP99
0217421110999992000012406004+30320+078030FM-12+068299999V0201801N001012200019N0020001N1+01901+00841101611ADDAA199000091AY101061AY201061GA1011+012009029GF101991011011012501001001MA1999999093891MD1999999+0131MW1051REMSYN082AAXX  24064 42111 31695 11802 1019/ 20084 39389 40161 70500 81100 333 58013 81840;EQDQ01  00002PRCP99
0186421110999992000012409004+30320+078030FM-12+068299999V0202301N000512200019N0020001N1+02081+00941101311ADDAA124052191GA1021+009009019GF103991021011012501031001MA1999999093691MD1999999+0111REMSYN092AAXX  24094 42111 31695 32301 10208 20094 39369 40131 82130 333 70521 82130 555 58011 82840;
0236421110999992000012412004+30320+078030FM-12+068299999V0203201N000512200019N0020001N1+01741+01061101441ADDAA199000091AY111061AY211061GA1021+030009079GF102991021001999999031001KA1120M+02111MA1999999093721MD1999999+0151MW1051REMSYN088AAXX  24124 42111 31995 23201 10174 20106 39372 40144 70511 82030 333 10211 58015 82360;EQDQ01  00002PRCP99
0177421110999992000012415004+30320+078030FM-12+068299999V0200501N000512200019N0040001N1+01181+00921101861ADDAA199000091GA1001+999999999GF100991001001999999001001MA1999999093951MD1999999+0281REMSYN064AAXX  24154 42111 32996 00501 10118 20092 39395 40186 333 58028;EQDQ01  00002PRCP99
0177421110999992000012418004+30320+078030FM-12+068299999V0200501N000512200019N0040001N1+01021+00871101931ADDAA199000091GA1001+999999999GF100991001001999999001001MA1999999093991MD1999999+0261REMSYN064AAXX  24184 42111 32996 00501 10102 20087 39399 40193 333 58026;EQDQ01  00002PRCP99
0189421110999992000012500004+30320+078030FM-12+068299999V0200501N000512200019N0040001N1+00821+00571101871ADDAA199000091GA1031+030009079GF103991031001999999031001MA1999999093891MD1999999+0251REMSYN076AAXX  25004 42111 32996 30501 10082 20057 39389 40187 83030 333 58025 83360;EQDQ01  00002PRCP99
0240421110999992000012503004+30320+078030FM-12+068299999V0209999C00001036001CN0020001N1+01061+00791102011ADDAA199000091AY121031AY211031GA1021+010509069GF108991021051012501071999KA1120M+02111KA2120N+00771MD1999999+0271MW1051REMSYN094AAXX  25034 42111 31695 80000 10106 20079 40201 70521 8257/ 333 10211 20077 58027 82635 86360;EQDQ01  00002PRCP99
0223421110999992000012506004+30320+078030FM-12+068299999V0209999C00001036001CN0020001N1+01421+00981101911ADDAA199000091AY121061AY211061GA1021+010509069GF107991021051012501071001MA1999999094091MD1999999+0201MW1051REMSYN088AAXX  25064 42111 31695 70000 10142 20098 39409 40191 70521 82570 333 58020 82635 86460;EQDQ01  00002PRCP99
0221421110999992000012509004+30320+078030FM-12+068299999V0203201N001010090019N0040001N1+01441+00791101771ADDAA100000791AA206999929AY151031AY221031GA1051+009009069GF108991051051008001021999MA1999999093951MD1999999+0261MW1501REMSYN094AAXX  25094 42111 21596 83202 10144 20079 39395 40177 75052 8552/ 333 58026 6990/ 85630 87458;
0240421110999992000012512004+30320+078030FM-12+068299999V0200501N001010090019N0020001N1+01141+01071101871ADDAA100002091AA209002091AY161061AY251061GA1051+009009069GF108991051051008001021999KA1120M+01561MA1999999093961MD1999999+0241MW1601REMSYN100AAXX  25124 42111 21595 80502 10114 20107 39396 40187 76065 8552/ 333 10156 58024 6002/ 85630 88458;
0221421110999992000012515004+30320+078030FM-12+068299999V0201401N000510090019N0020001N1+01021+00981102211ADDAA100008991AA212009091AY161031AY261031GA1061+009009069GF108991061051008001021999MA1999999094161MD1999999+0211MW1611REMSYN094AAXX  25154 42111 21595 81401 10102 20098 39416 40221 76166 8652/ 333 58021 6009/ 86630 87458;
0259421110999992000012603004+30320+078030FM-12+068299999V0203201N00101036001CN0040001N1+01021+00981102071ADDAA100023192AA224023092AY161031AY221031GA1041+009009069GF107991041051008001071001KA1120M+01561KA2120N+00851MA1999999094121MD1999999+0051MW1021REMSYN106AAXX  26034 42111 21596 73202 10102 20098 39412 40207 70262 84570 333 10156 20085 58005 6023/ 84630 86458;
0221421110999992000012606004+30320+078030FM-12+068299999V0202301N001010090019N0020001N1+01101+01061102301ADDAA100000892AA203000792AY161061AY221061GA1051+009009069GF108991051051008001021999MA1999999094331MD1999999+0241MW1601REMSYN094AAXX  26064 42111 21595 82302 10110 20106 39433 40230 76062 8552/ 333 58024 6997/ 85630 88456;
0240421110999992000012612004+30320+078030FM-12+068299999V0203201N00051036001CN0100001N1+01281+01211101881ADDAA100002091AA209002091AY161061AY221061GA1031+009009069GF107991041081008001071001KA1120M+01401MA1999999094001MD1999999+0041MW1021REMSYN100AAXX  26124 42111 21597 73201 10128 20121 3940/ 40188 70262 84870 333 10140 58004 6002/ 83630 86458;
0221421110999992000012615004+30320+078030FM-12+068299999V0202301N00051036001CN0040001N1+01121+01081101991ADDAA100002091AA212002091AY161031AY221031GA1021+009009069GF107991021051008001071001MA1999999094081MD1999999-0081MW1021REMSYN094AAXX  26154 42111 21596 72301 10112 20108 39408 40199 70262 82570 333 59008 6002/ 82630 86460;
0221421110999992000012618004+30320+078030FM-12+068299999V0200501N00261036001CN0040001N1+01201+00811101981ADDAA100003091AA215003091AY161061AY221061GA1021+009009069GF108991021051008001071999MA1999999094071MD1999999-0161MW1211REMSYN094AAXX  26184 42111 21596 80505 10120 20081 39407 40198 72162 8257/ 333 59016 6003/ 82630 88458;
0215421110999992000012700004+30320+078030FM-12+068299999V0209999C000012200019N0040001N1+00861+00821101821ADDAA100003091AA221003091AY161061AY221061GA1021+030009079GF102991021001999999031001MA1999999093841MD1999999-0271MW1011REMSYN088AAXX  27004 42111 21996 20000 10086 20082 39384 40182 70162 82030 333 59027 6003/ 82360;
0225421110999992000012703004+30320+078030FM-12+068299999V0203201N000512200019N0040001N1+00901+00821101941ADDAA100003091AA224003091GA1011+010509059GF103991021081012501031001KA1120M+01401KA2120N+00781MA1999999093951MD1999999-0171REMSYN094AAXX  27034 42111 22696 33201 10090 20082 39395 40194 82830 333 10140 20078 59017 6003/ 81635;
0170421110999992000012706004+30320+078030FM-12+068299999V0202701N001012200019N0040001N1+01741+01021101781ADDAA199000021GA1021+012009029GF102991021021012501001001MA1999999094041MD1999999-0291REMSYN076AAXX  27064 42111 32696 22702 10174 20102 39404 40178 82200 333 59029 82840;
0223421110999992000012709004+30320+078030FM-12+068299999V0202301N001010096019N0040001N1+01981+00941101561ADDAA199000091AY191031AY221031GA1051+009609069GF107991071091012501001001MA1999999093891MD1999999-0221MW1171REMSYN088AAXX  27094 42111 31696 72302 10198 20094 39389 40156 71792 87900 333 59022 85632 83940;EQDQ01  00002PRCP99
0223421110999992000012712004+30320+078030FM-12+068299999V0203201N000512200019N0040001N1+01661+01131101571ADDAA199000091AY191061AY221061GA1011+030009079GF101991011001999999031001MA1999999093821MD1999999-0181MW1011REMSYN088AAXX  27124 42111 31996 13201 10166 20113 39382 40157 70192 81030 333 1026/ 59018 81360;EQDQ01  00002PRCP99
0177421110999992000012715004+30320+078030FM-12+068299999V0200501N002112200019N0040001N1+01141+00571101771ADDAA199000091GA1001+999999999GF100991001001999999001001MA1999999093961MD1999999-0121REMSYN064AAXX  27154 42111 32996 00504 10114 20057 39396 40177 333 59012;EQDQ01  00002PRCP99
0177421110999992000012718004+30320+078030FM-12+068299999V0200501N001512200019N0040001N1+00941+00521101941ADDAA199000091GA1001+999999999GF100991001001999999001001MA1999999093981MD1999999-0091REMSYN064AAXX  27184 42111 32996 00503 10094 20052 39398 40194 333 59009;EQDQ01  00002PRCP99
0177421110999992000012721004+30320+078030FM-12+068299999V0200501N001012200019N0040001N1+00741+00481101921ADDAA199000091GA1001+999999999GF100991001001999999001001MA1999999093901MD1999999-0061REMSYN064AAXX  27214 42111 32996 00502 10074 20048 39390 40192 333 59006;EQDQ01  00002PRCP99
0177421110999992000012800004+30320+078030FM-12+068299999V0209999C000012200019N0040001N1+00581+00401101901ADDAA199000091GA1001+999999999GF100991001001999999001001MA1999999093831MD1999999-0011REMSYN064AAXX  28004 42111 32996 00000 10058 20040 39383 40190 333 59001;EQDQ01  00002PRCP99
0215421110999992000012803004+30320+078030FM-12+068299999V0209999C000012200019N0040001N1+00701+00531101881ADDAA199000091GA1001+999999999GF100991001001999999001001KA1120M+02061KA2120N+00511MA1999999093841MD1999999-0111REMSYN076AAXX  28034 42111 32996 00000 10070 20053 39384 40188 333 10206 20051 59011;EQDQ01  00002PRCP99
0189421110999992000012806004+30320+078030FM-12+068299999V0209999C000012200019N0040001N1+01721+00691101711ADDAA199000091GA1011+012009029GF101991011011012501001001MA1999999093971MD1999999-0071REMSYN076AAXX  28064 42111 32696 10000 10172 20069 39397 40171 81100 333 59007 81840;EQDQ01  00002PRCP99
0189421110999992000012809004+30320+078030FM-12+068299999V0203201N004112200019N0040001N1+02001+00421101461ADDAA199000091GA1011+012009029GF101991011011012501001001MA1999999093791MD1999999-0101REMSYN076AAXX  28094 42111 32696 13208 10200 20042 39379 40146 81100 333 59010 81840;EQDQ01  00002PRCP99
0196421110999992000012812004+30320+078030FM-12+068299999V0202701N001012200019N0040001N1+01681+00781101471ADDAA199000091GA1001+999999999GF100991001001999999001001KA1120M+02061MA1999999093721MD1999999-0101REMSYN070AAXX  28124 42111 32996 02702 10168 20078 39372 40147 333 10206 59010;EQDQ01  00002PRCP99
0177421110999992000012815004+30320+078030FM-12+068299999V0200501N000512200019N0040001N1+01141+00871101691ADDAA199000091GA1001+999999999GF100991001001999999001001MA1999999093801MD1999999+0041REMSYN064AAXX  28154 42111 32996 00501 10114 20087 39380 40169 333 58004;EQDQ01  00002PRCP99
0177421110999992000012818004+30320+078030FM-12+068299999V0200501N000512200019N0040001N1+00961+00721101691ADDAA199000091GA1001+999999999GF100991001001999999001001MA1999999093741MD1999999-0241REMSYN064AAXX  28184 42111 32996 00501 10096 20072 39374 40169 333 59024;EQDQ01  00002PRCP99
0177421110999992000012900004+30320+078030FM-12+068299999V0203201N000512200019N0040001N1+00641+00511101591ADDAA199000091GA1001+999999999GF100991001001999999001001MA1999999093571MD1999999-0261REMSYN064AAXX  29004 42111 32996 03201 10064 20051 39357 40159 333 59026;EQDQ01  00002PRCP99
0173421110999992000012903004+30320+078030FM-12+068299999V0200501N000512200019N0040001N1+00781+00611101641ADDAA124307691GF103991001001999999001011KA1120M+02061MA1999999093651MD1999999-0191REMSYN082AAXX  29034 42111 32996 30501 10078 20061 39365 40164 80001 333 10206 59019 73075;
0189421110999992000012906004+30320+078030FM-12+068299999V0201801N001012200019N0040001N1+01801+00721101441ADDAA199000091GA1041+075009019GF104991001001999999001021MA1999999093721MD1999999-0251REMSYN076AAXX  29064 42111 32996 41802 10180 20072 39372 40144 80002 333 59025 84075;EQDQ01  00002PRCP99
0205421110999992000012909004+30320+078030FM-12+068299999V0203201N001012200019N0040001N1+02041+00641101151ADDAA199000091GA1031+075009019GF103991001001999999001011MA1999999093531MD1999999-0261REMSYN076AAXX  29094 42111 32996 33202 10204 20064 39353 40115 83001 333 59026 83075;EQDQ01+000032SCOTLCQ02  00002PRCP99
0189421110999992000013006004+30320+078030FM-12+068299999V0201401N001012200019N0040001N1+01721+00831101571ADDAA199000091GA1021+075009019GF102991001001999999001011MA1999999093851MD1999999+0131REMSYN076AAXX  30064 42111 32996 21402 10172 20083 39385 40157 80001 333 58013 82075;EQDQ01  00002PRCP99
0208421110999992000013012004+30320+078030FM-12+068299999V0201801N000512200019N0040001N1+01741+01221101321ADDAA199000091GA1011+030009079GF101991011001999999031001KA1120M+02181MA1999999093611MD1999999+0071REMSYN082AAXX  30124 42111 32996 11801 10174 20122 39361 40132 81030 333 10218 58007 81360;EQDQ01  00002PRCP99
0243421110999992000013103004+30320+078030FM-12+068299999V0200501N000512200019N0020001N1+01001+00811101801ADDAA199000091AY101031AY201031GA1001+999999999GF100991001001999999001001KA1120M+02181KA2120N+00841MA1999999093851MD1999999+0151MW1051REMSYN082AAXX  31034 42111 31995 00501 10100 20081 39385 40180 70500 333 10218 20084 58015;EQDQ01  00002PRCP99
0217421110999992000013106004+30320+078030FM-12+068299999V0201401N000512200019N0020001N1+01781+00991101651ADDAA199000091AY101061AY201061GA1011+030009079GF101991011001999999031001MA1999999093911MD1999999+0061MW1051REMSYN082AAXX  31064 42111 31995 11401 10178 20099 39391 40165 70500 81030 333 58006 81360;EQDQ01  00002PRCP99
0223421110999992000013109004+30320+078030FM-12+068299999V0201801N00051036001CN0020001N1+02101+01051101181ADDAA199000091AY121031AY221031GA1021+012009089GF105991021021012501051001MA1999999093561MD1999999-0041MW1051REMSYN088AAXX  31094 42111 31695 51801 10210 20105 39356 40118 70522 82250 333 59004 82840 84360;EQDQ01  00002PRCP99
0264421110999992000013112004+30320+078030FM-12+068299999V0201401N00051012001CN0020001N1+01801+01101101121ADDAA199000091AY121061AY221061GA1021+010509069GA2031+012009089GF106991041081012501031001KA1120M+02141MA1999999093421MD1999999-0191MW1051REMSYN100AAXX  31124 42111 31695 61401 10180 20110 39342 40112 70522 84830 333 10214 59019 82635 83840 85360;EQDQ01  00002PRCP99
0217421110999992000013115004+30320+078030FM-12+068299999V0200501N000510300019N0020001N1+01401+01111101511ADDAA199000091AY121031AY221031GA1051+030009079GF105991051001999999031001MA1999999093691MD1999999-0011MW1051REMSYN082AAXX  31154 42111 31995 50501 10140 20111 39369 40151 70522 85030 333 59001 85360;EQDQ01  00002PRCP99
0189421110999992000013118004+30320+078030FM-12+068299999V0200501N000512200019N0040001N1+01261+00881101461ADDAA199000091GA1031+030009079GF103991031001999999031001MA1999999093621MD1999999-0081REMSYN076AAXX  31184 42111 32996 30501 10126 20088 39362 40146 83030 333 59008 83360;EQDQ01  00002PRCP99
0193421110999992000020100004+30320+078030FM-12+068299999V0202301N001510090019N0020001N1+01161+01051101051ADDAY161061AY221061GA1051+009009069GF108991051051008001021999MA1999999093211MD1999999-0491MW1611REMSYN088AAXX  01004 42111 21595 82303 10116 20105 39321 40105 76162 8552/ 333 59049 85630 88456;
0219421110999992000020103004+30320+078030FM-12+068299999V0200501N00051015001CN0040001N1+01301+01041101051ADDAA100000892AA224000792AY161031AY221031GA1041+009009069GF107991051081012501071001KA1120N+01101MD1999999-0611MW1201REMSYN094AAXX  01034 42111 21696 70501 10130 20104 40105 72062 85870 333 20110 59061 6997/ 84630 86460;
0221421110999992000020106004+30320+078030FM-12+068299999V0200501N00101012001CN0020001N1+01161+01121101341ADDAA100004192AA203004092AY191061AY261061GA1041+007509069GF108991051081008001021999MA1999999093481MD1999999-0431MW1911REMSYN094AAXX  01064 42111 21595 80502 10116 20112 39348 40134 79196 8582/ 333 59043 6004/ 84625 88460;
0221421110999992000020109004+30320+078030FM-12+068299999V0209999C00001012001CN0020001N1+01301+01161101011ADDAA100004192AA206004092AY161031AY221031GA1041+009009069GF107991051081008001021001MA1999999093201MD1999999-0361MW1211REMSYN094AAXX  01094 42111 21595 70000 10130 20116 39320 40101 72162 85820 333 59036 6004/ 84630 86460;
0262421110999992000020112004+30320+078030FM-12+068299999V0209999C000010090019N0020001N1+01361+01251100911ADDAA100005192AA209005092AY161061AY221061GA1021+006009079GA2041+009009069GF107991051071004501021001KA1120M+01361MA1999999093131MD1999999-0291MW1051REMSYN106AAXX  01124 42111 21495 70000 10136 20125 39313 40091 70562 85720 333 10136 59029 6005/ 82720 84630 87460;
0243421110999992000020115004+30320+078030FM-12+068299999V0200501N000510120019N0040001N1+01221+01181101101ADDAA100005192AA212005092AY191031AY221031GA1041+009009069GA2011+012009099GF107991051091008001021001MA1999999093291MD1999999-0401MW1171REMSYN100AAXX  01154 42111 21596 70501 10122 20118 39329 40110 71792 85920 333 59040 6005/ 84630 81940 86460;
0243421110999992000020118004+30320+078030FM-12+068299999V0209999C000010120019N0020001N1+01061+01021101321ADDAA100007192AA215007092AY191061AY261061GA1041+008409069GA2011+012009099GF108991051091008001021999MA1999999093431MD1999999-0191MW1951REMSYN100AAXX  01184 42111 21595 80000 10106 20102 39343 40132 79596 8592/ 333 59019 6007/ 84628 81940 86460;
0256421110999992000020121004+30320+078030FM-12+068299999V0200501N99999036001CN0040001N1+00981+00941101311ADDAA100007192AA218007092AY191031AY261031GA1021+010509069GF105991021051012501071001MA1999999093401MD1999999+0011MW1011REMSYN094AAXX  01214 42111 21696 50596 10098 20094 39340 40131 70196 82570 333 58001 6007/ 82635 84460;EQDQ01+004933WOSPD Q020004933WOSPD 
0211421110999992000020200004+30320+078030FM-12+068299999V0200501N999992200019N0040001N1+00801+00641101351ADDAA100007191AY191061AY261061GA1001+999999999GF100991001001999999001001MA1999999093381MD1999999+0171MW1021REMSYN076AAXX  02004 42111 21996 00591 10080 20064 39338 40135 70296 333 58017 6007/;EQDQ01+004683WOSPD 
0202421110999992000020203004+30320+078030FM-12+068299999V0202301N000512200019N0040001N1+00841+00761101651ADDAA100007191GA1001+999999999GF100991001001999999001001KA1120M+01361KA2120N+00661MA1999999093691MD1999999+0451REMSYN082AAXX  02034 42111 22996 02301 10084 20076 39369 40165 333 10136 20066 58045 6007/;
0176421110999992000020206004+30320+078030FM-12+068299999V0202301N00051036001CN0040001N1+01521+01011101621ADDAA199000021GA1011+012009089GF107991011011012501071001MA1999999093851MD1999999+0371REMSYN082AAXX  02064 42111 32696 72301 10152 20101 39385 40162 81170 333 58037 81840 85460;
0195421110999992000020209004+30320+078030FM-12+068299999V0202701N00101015001CN0040001N1+01721+00961101421ADDAA199000091GA1041+010509069GF107991051081012501071001MA1999999093701MD1999999+0501REMSYN082AAXX  02094 42111 32696 72702 10172 20096 39370 40142 85870 333 58050 84635 86360;EQDQ01  00002PRCP99
0214421110999992000020212004+30320+078030FM-12+068299999V0209999C000010105019N0040001N1+01561+01101101351ADDAA199000091GA1051+010509069GF107991051051012501071001KA1120M+01721MA1999999093591MD1999999+0461REMSYN088AAXX  02124 42111 32696 70000 10156 20110 39359 40135 85570 333 10172 58046 85635 86360;EQDQ01  00002PRCP99
0217421110999992000020215004+30320+078030FM-12+068299999V0203201N000512200019N0020001N1+01241+01061101691ADDAA199000091AY121031AY221031GA1041+075009019GF104991001001999999001021MA1999999093831MD1999999+0541MW1051REMSYN082AAXX  02154 42111 31995 43201 10124 20106 39383 40169 70522 80002 333 58054 84075;EQDQ01  00002PRCP99
0217421110999992000020218004+30320+078030FM-12+068299999V0203201N001012200019N0020001N1+01161+00971101841ADDAA199000091AY121061AY221061GA1041+075009019GF104991001001999999001021MA1999999093931MD1999999+0501MW1051REMSYN082AAXX  02184 42111 31995 43202 10116 20097 39393 40184 70522 80002 333 58050 84075;EQDQ01  00002PRCP99
0177421110999992000020300004+30320+078030FM-12+068299999V0203201N001012200019N0040001N1+00661+00531101951ADDAA199000091GA1001+999999999GF100991001001999999001001MA1999999093901MD1999999+0521REMSYN064AAXX  03004 42111 32996 03202 10066 20053 39390 40195 333 58052;EQDQ01  00002PRCP99
0147421110999992000020303004+30320+078030FM-12+068299999V0209999C000012200019N0040001N1+00741+00571101951ADDAA199000091GF102991001001999999001011MA1999999093931REMSYN064AAXX  03034 42111 32996 20000 10074 20057 39393 40195 80001 333;EQDQ01  00002PRCP99
0189421110999992000020306004+30320+078030FM-12+068299999V0202301N001012200019N0040001N1+01801+00551101871ADDAA199000091GA1021+075009019GF102991001001999999001011MA1999999094111MD1999999+0261REMSYN076AAXX  03064 42111 32996 22302 10180 20055 39411 40187 80001 333 58026 82075;EQDQ01  00002PRCP99
0189421110999992000020309004+30320+078030FM-12+068299999V0203201N000512200019N0040001N1+02121+00441101421ADDAA199000091GA1011+012009029GF101991011011012501001001MA1999999093811MD1999999+0111REMSYN076AAXX  03094 42111 32696 13201 10212 20044 39381 40142 81100 333 58011 81840;EQDQ01  00002PRCP99
0214421110999992000020312004+30320+078030FM-12+068299999V0203201N001012200019N0040001N1+01821+00731101381ADDAA199000091GA1011+010509069GF103991011051012501031001KA1120M+02141MA1999999093701MD1999999+0111REMSYN088AAXX  03124 42111 32696 33202 10182 20073 39370 40138 81530 333 10214 58011 81635 83360;EQDQ01  00002PRCP99
0177421110999992000020315004+30320+078030FM-12+068299999V0200501N001012200019N0040001N1+01281+00861101641ADDAA199000091GA1001+999999999GF100991001001999999001001MA1999999093781MD1999999-0051REMSYN064AAXX  03154 42111 32996 00502 10128 20086 39378 40164 333 59005;EQDQ01  00002PRCP99
0177421110999992000020318004+30320+078030FM-12+068299999V0200501N001012200019N0040001N1+01121+00771101701ADDAA199000091GA1001+999999999GF100991001001999999001001MA1999999093811MD1999999-0121REMSYN064AAXX  03184 42111 32996 00502 10112 20077 39381 40170 333 59012;EQDQ01  00002PRCP99
0177421110999992000020400004+30320+078030FM-12+068299999V0200501N000512200019N0040001N1+00801+00551101521ADDAA199000091GA1001+999999999GF100991001001999999001001MA1999999093531MD1999999-0371REMSYN064AAXX  04004 42111 32996 00501 10080 20055 39353 40152 333 59037;EQDQ01  00002PRCP99
0259421110999992000020403004+30320+078030FM-12+068299999V0209999C000012200019N0040001N1+00801+00541101601ADDAA199000091GA1021+009009059GF199999999001999999001001KA1120M+02511KA2120N+00691MA1999999093611MD1999999-0321REMSYN088AAXX  04034 42111 32996 00000 10080 20054 39361 40160 82030 333 10251 20069 59032 82630;EQDQ01+000002SCOTCVQ02+000002SCOTLCQ03  00002PRCP99
0195421110999992000020406004+30320+078030FM-12+068299999V0202301N000519999999N0040001N1+01701+00761101371ADDAA199000091GA1021+010509069GF108991021051999999061999MA1999999093641MD1999999-0211REMSYN082AAXX  04064 42111 32996 82301 10170 20076 39364 40137 8256/ 333 59021 82635 88460;EQDQ01  00002PRCP99
0223421110999992000020409004+30320+078030FM-12+068299999V0202301N00101036001CN0020001N1+01621+00921101141ADDAA199000091AY121031AY221031GA1041+009009069GF108991041051012501021999MA1999999093421MD1999999-0391MW1051REMSYN088AAXX  04094 42111 31695 82302 10162 20092 39342 40114 70522 8452/ 333 59039 84630 87460;EQDQ01  00002PRCP99
0240421110999992000020412004+30320+078030FM-12+068299999V0203201N001510090019N0040001N1+01401+00741100921ADDAA100000791AA209999929AY161061AY221061GA1061+009009069GF108991061051008001071999KA1120M+01711MA1999999093141MD1999999-0561MW1601REMSYN100AAXX  04124 42111 21596 83203 10140 20074 39314 40092 76062 8657/ 333 10171 59056 6990/ 86630 87460;
0221421110999992000020415004+30320+078030FM-12+068299999V0209999C000010075019N0020001N1+01141+00991101281ADDAA100003091AA212003091AY161031AY261031GA1051+007509069GF108991051051008001031999MA1999999093421MD1999999-0361MW1631REMSYN094AAXX  04154 42111 21595 80000 10114 20099 39342 40128 76366 8553/ 333 59036 6003/ 85625 88458;
0221421110999992000020500004+30320+078030FM-12+068299999V0200501N000510084019N0020001N1+00941+00821101021ADDAA100021192AA221021092AY161061AY261061GA1061+008409069GF108991061051008001021999MA1999999093121MD1999999-0411MW1611REMSYN094AAXX  05004 42111 21595 80501 10094 20082 39312 40102 76166 8652/ 333 59041 6021/ 86628 88458;
0259421110999992000020503004+30320+078030FM-12+068299999V0200901N000510090019N0040001N1+00941+00861101011ADDAA100023192AA224023092AY161031AY261031GA1061+009009069GF108991061051008001021999KA1120M+01711KA2120N+00891MA1999999093111MD1999999-0501MW1211REMSYN106AAXX  05034 42111 21596 80901 10094 20086 39311 40101 72166 8652/ 333 10171 20089 59050 6023/ 86630 87458;
0227421110999992000020506004+30320+078030FM-12+068299999V0202301N00101004201CN0020001N1+00901+00821101271ADDAA100005192AA203005092AY161061AY261061GA1061+999999079GF108991061071004501021999MA1999999093331MD1999999-0311MW1611REMSYN100AAXX  05064 42111 21495 82302 10090 20082 39333 40127 76166 8672/ 333 59031 6005/ 83720 86628 87456;
0221421110999992000020512004+30320+078030FM-12+068299999V0201401N000510096019N0100001N1+01141+00991101041ADDAA100015091AA209015091AY161061AY221061GA1051+009609069GF107991051051012501021001MA1999999093201MD1999999+0061MW1021REMSYN094AAXX  05124 42111 21697 71401 10114 20099 39320 40104 70262 85520 333 58006 6015/ 85632 86460;
0221421110999992000020515004+30320+078030FM-12+068299999V0203201N000510090019N0020001N1+01021+00981101391ADDAA100015091AA212015091AY161031AY221031GA1051+009009069GF108991051051008001021999MA1999999093401MD1999999-0021MW1601REMSYN094AAXX  05154 42111 21595 83201 10102 20098 39340 40139 76062 8552/ 333 59002 6015/ 85630 88456;
0221421110999992000020518004+30320+078030FM-12+068299999V0209999C00001036001CN0100001N1+01001+00921101441ADDAA100015091AA215015091AY161061AY221061GA1041+009609069GF108991041051012501021999MA1999999093511MD1999999+0211MW1021REMSYN094AAXX  05184 42111 21697 80000 10100 20092 39351 40144 70262 8452/ 333 58021 6015/ 84632 88458;
0193421110999992000020600004+30320+078030FM-12+068299999V0209999C00001036001CN0100001N1+00941+00901101361ADDAA100015091AA221015091GA1021+010509069GF106991021051012501071001MA1999999093451MD1999999+0331REMSYN088AAXX  06004 42111 22697 60000 10094 20090 39345 40136 82570 333 58033 6015/ 82635 85460;
0231421110999992000020603004+30320+078030FM-12+068299999V0209999C00001036001CN0040001N1+01001+00961101611ADDAA100015091AA224015091GA1021+010509069GF106991021051012501071001KA1120M+01191KA2120N+00861MA1999999093681MD1999999+0571REMSYN100AAXX  06034 42111 22696 60000 10100 20096 39368 40161 82570 333 10119 20086 58057 6015/ 82635 85460;
0195421110999992000020606004+30320+078030FM-12+068299999V0203201N00051036001CN0040001N1+01341+00891101641ADDAA199000091GA1021+010509069GF106991021051012501071001MA1999999093811MD1999999+0481REMSYN082AAXX  06064 42111 32696 63201 10134 20089 39381 40164 82570 333 58048 82635 85360;EQDQ01  00002PRCP99
0201421110999992000020609004+30320+078030FM-12+068299999V0203201N00151012001CN0040001N1+01581+00921999999ADDAA199000091GA1021+009009069GA2031+012009089GF106991999999008001999999MD1999999+0431REMSYN087AAXX  06094 42111 32596 63203 10158 20092 3936 40143 84870 333 58043 82630 83840 85360;EQDQ01  00002PRCP99
0236421110999992000020612004+30320+078030FM-12+068299999V0203201N00101012001CN0040001N1+01301+01011101441ADDAA199000091GA1021+009009069GA2031+012009089GF105991041081008001031001KA1120M+01621MA1999999093601MD1999999+0401REMSYN094AAXX  06124 42111 32596 53202 10130 20101 39360 40144 84830 333 10162 58040 82630 83840 85360;EQDQ01  00002PRCP99
0177421110999992000020615004+30320+078030FM-12+068299999V0200501N000512200019N0040001N1+00981+00901101581ADDAA199000091GA1001+999999999GF100991001001999999001001MA1999999093651MD1999999+0251REMSYN064AAXX  06154 42111 32996 00501 10098 20090 39365 40158 333 58025;EQDQ01  00002PRCP99
0177421110999992000020621004+30320+078030FM-12+068299999V0200501N001012200019N0040001N1+00721+00641101581ADDAA199000091GA1001+999999999GF100991001001999999001001MA1999999093591MD1999999+0141REMSYN064AAXX  06214 42111 32996 00502 10072 20064 39359 40158 333 58014;EQDQ01  00002PRCP99
0177421110999992000020700004+30320+078030FM-12+068299999V0203201N000512200019N0040001N1+00641+00561101541ADDAA199000091GA1001+999999999GF100991001001999999001001MA1999999093521MD1999999+0071REMSYN064AAXX  07004 42111 32996 03201 10064 20056 39352 40154 333 58007;EQDQ01  00002PRCP99
0205421110999992000020702004+30320+078030FM-12+068299999V0202301N001512200019N0040001N1+01661+00801101551ADDAA199000091GA1021+012009029GF103991999021012501001001MA1999999093801MD1999999-0011REMSYN076AAXX  07024 42111 32696 32303 10166 20080 39380 40155 82200 333 59001 82840;EQDQ01+000022SCOTLCQ02  00002PRCP99
0196421110999992000020703004+30320+078030FM-12+068299999V0203201N000512200019N0040001N1+00742+00701101661ADDAA199000091GA1001+999999999GF100991001001999999001001KA1120N+00611MA1999999093671MD1999999-0011REMSYN070AAXX  07034 42111 32996 03201 10074 20070 39367 40166 333 20061 59001;EQDQ01  00002PRCP99
0205421110999992000020706004+30320+078030FM-12+068299999V0202301N001512200019N0040001N1+01661+00801101551ADDAA199000091GA1021+012009029GF103991999021012501001001MA1999999093801MD1999999-0011REMSYN076AAXX  07064 42111 32696 32303 10166 20080 39380 40155 82200 333 59001 82840;EQDQ01+000022SCOTLCQ02  00002PRCP99
0189421110999992000020709004+30320+078030FM-12+068299999V0209999C000012200019N0040001N1+02001+00781101211ADDAA199000091GA1041+012009029GF104991041021012501001001MA1999999093561MD1999999-0111REMSYN076AAXX  07094 42111 32696 40000 10200 20078 39356 40121 84200 333 59011 84840;EQDQ01  00002PRCP99
0136421110999992000020715004+30320+078030FM-12+068299999V0209999C000019999999N0040001N1+01241+01021101421ADDAA100000591GF106991051031999999061001MA1999999093581REMSYN072AAXX  07154 42111 22996 60000 10124 20102 39358 40142 59007 6994/ 85360;
0164421110999992000020718004+30320+078030FM-12+068299999V0202301N000512200019N0040001N1+01001+00851101481ADDAA100000591GA1001+999999999GF100991001001999999001001MA1999999093581MD1999999-0121REMSYN070AAXX  07184 42111 22996 02301 1010/ 20085 39358 40148 333 59012 6994/;
0146421110999992000020800004+30320+078030FM-12+068299999V0200501N000512200019N0040001N1+00781+00701101341ADDAA100000591GA1001+999999999GF100991001001999999001001MA1999999093371REMSYN066AAXX  08004 42111 22996 00501 10078 20070 39337 40134 59015 6994/;
0219421110999992000020803004+30320+078030FM-12+068299999V0203201N000512200019N0040001N1+00781+99999101441ADDAA100000592AA224000492GA1011+012009029GF101991011011012501001001KA1120M+02041KA2120N+00681MA1999999093511MD1999999-0161REMSYN088AAXX  08034 42111 22696 13201 10078 39351 40144 81100 333 10204 20068 59016 6994/ 81840;
0189421110999992000020806004+30320+078030FM-12+068299999V0203201N000512200019N0040001N1+01741+00811101321ADDAA199000091GA1011+012009029GF101991011011012501001001MA1999999093611MD1999999-0191REMSYN076AAXX  08064 42111 32696 13201 10174 20081 39361 40132 81100 333 59019 81840;EQDQ01  00002PRCP99
0189421110999992000020809004+30320+078030FM-12+068299999V0202301N000510120019N0040001N1+01881+00901101071ADDAA199000091GA1051+012009029GF105991051021012501001001MA1999999093411MD1999999-0151REMSYN076AAXX  08094 42111 32696 52301 10188 20090 39341 40107 85200 333 59015 85840;EQDQ01  00002PRCP99
0221421110999992000020815004+30320+078030FM-12+068299999V0209999C000012200019N0010001N1+01201+00981101451ADDAA100002091AA212002091AY121031AY221031GA1021+010509069GF104991021051012501031001MA1999999093581MD1999999+0001MW1101REMSYN094AAXX  08154 42111 21694 40000 10120 20098 39358 40145 71022 82530 333 58000 6002/ 82635 83360;
0164421110999992000020818004+30320+078030FM-12+068299999V0200501N001512200019N0040001N1+01001+00811101581ADDAA100002091GA1001+999999999GF100991001001999999001001MA1999999093651MD1999999+0071REMSYN070AAXX  08184 42111 22996 00503 10100 20081 39365 40158 333 58007 6002/;
0164421110999992000020821004+30320+078030FM-12+068299999V0200501N001012200019N0040001N1+00881+00681101561ADDAA100002091GA1001+999999999GF100991001001999999001001MA1999999093601MD1999999+0161REMSYN070AAXX  08214 42111 22996 00502 10088 20068 39360 40156 333 58016 6002/;
0164421110999992000020900004+30320+078030FM-12+068299999V0200501N001012200019N0040001N1+00801+00591101481ADDAA100002091GA1001+999999999GF100991001001999999001001MA1999999093501MD1999999+0131REMSYN070AAXX  09004 42111 22996 00502 10080 20059 39350 40148 333 58013 6002/;
0166421110999992000020903004+30320+078030FM-12+068299999V0209999C000012200019N0040001N1+00901+00661101491ADDGA1001+999999999GF100991001001999999001001KA1120M+01991MA1999999093531MD1999999+0021REMSYN070AAXX  09034 42111 22996 00000 10090 20066 39353 40149 333 10199 58002;
0189421110999992000020909004+30320+078030FM-12+068299999V0202701N000512200019N0040001N1+02001+00531101041ADDAA199000091GA1021+012009029GF102991021011012501001001MA1999999093431MD1999999+0021REMSYN076AAXX  09094 42111 32696 22701 10200 20053 39343 40104 82100 333 58002 82840;EQDQ01  00002PRCP99
0214421110999992000020912004+30320+078030FM-12+068299999V0203201N001012200019N0040001N1+01761+00831101051ADDAA199000091GA1011+012009089GF103991011011012501031001KA1120M+02051MA1999999093361MD1999999-0021REMSYN088AAXX  09124 42111 32696 33202 10176 20083 39336 40105 81130 333 10205 59002 81840 83360;EQDQ01  00002PRCP99
0177421110999992000021000004+30320+078030FM-12+068299999V0200501N000512200019N0040001N1+01001+00891101161ADDAA199000091GA1001+999999999GF100991001001999999001001MA1999999093261MD1999999-0241REMSYN064AAXX  10004 42111 32996 00501 10100 20089 39326 40116 333 59024;EQDQ01  00002PRCP99
0233421110999992000021003004+30320+078030FM-12+068299999V0200501N00051036001CN0040001N1+01141+00951101391ADDAA199000091GA1031+010509069GF107991041081012501071001KA1120M+02051KA2120N+00951MA1999999093521MD1999999-0011REMSYN094AAXX  10034 42111 32696 70501 10114 20095 39352 40139 84870 333 10205 20095 59001 83635 86360;EQDQ01  00002PRCP99
0195421110999992000021006004+30320+078030FM-12+068299999V0200501N00051036001CN0040001N1+01521+00971101361ADDAA199000091GA1041+010509069GF107991041051012501071001MA1999999093601MD1999999-0081REMSYN082AAXX  10064 42111 32696 70501 10152 20097 39360 40136 84570 333 59008 84635 86460;EQDQ01  00002PRCP99
0195421110999992000021009004+30320+078030FM-12+068299999V0201401N00051015001CN0040001N1+01701+00981101111ADDAA199000091GA1041+010509069GF107991051081012501071001MA1999999093391MD1999999-0041REMSYN082AAXX  10094 42111 32696 71401 10170 20098 39339 40111 85870 333 59004 84635 86458;EQDQ01  00002PRCP99
0240421110999992000021012004+30320+078030FM-12+068299999V0209999C00001012001CN0020001N1+01601+01181101001ADDAA100000791AA209999929AY121061AY221061GA1041+009009069GF108991051081008001071999KA1120M+01701MA1999999093281MD1999999-0081MW1601REMSYN100AAXX  10124 42111 21595 80000 10160 20118 39328 40100 76022 8587/ 333 10170 59008 6990/ 84630 87460;
0259421110999992000021103004+30320+078030FM-12+068299999V0202701N000510090019N0020001N1+00841+00801101311ADDAA100027991AA224028091AY161031AY261031GA1051+009009069GF108991051051008001021999KA1120M+01701KA2120N+00771MA1999999093371MD1999999-0151MW1601REMSYN106AAXX  11034 42111 21595 82701 10084 20080 39337 40131 76066 8552/ 333 10170 20077 59015 6028/ 85630 88960;
0245421110999992000021209004+30320+078030FM-12+068299999V0201401N001010114019N0020001N1+01641+00821101421ADDAA199000091AY191031AY221031GA1041+009009069GA2021+011409099GF107991061091012501021001MA1999999093691MD1999999+0361MW1171REMSYN094AAXX  12094 42111 31695 71402 10164 20082 39369 40142 71792 86920 333 58036 84630 82938 86460;EQDQ01  00002PRCP99
0262421110999992000021212004+30320+078030FM-12+068299999V0200501N001010105019N0020001N1+01101+00991101631ADDAA100002091AA209002091AY191061AY261061GA1041+008409069GA2021+010509099GF108991061091008001021999KA1120M+01711MA1999999093711MD1999999+0431MW1951REMSYN106AAXX  12124 42111 21595 80502 10110 20099 39371 40163 79596 8692/ 333 10171 58043 6002/ 84628 82935 87458;
0221421110999992000021218004+30320+078030FM-12+068299999V0201401N000512200019N0040001N1+00801+00721101891ADDAA100003091AA215003091AY191061AY261061GA1021+010509069GF103991021051012501031001MA1999999093881MD1999999+0321MW1021REMSYN094AAXX  12184 42111 21696 31401 10080 20072 39388 40189 70296 82530 333 58032 6003/ 82635 83360;
0164421110999992000021221004+30320+078030FM-12+068299999V0200501N001012200019N0040001N1+00601+00511101811ADDAA100003091GA1001+999999999GF100991001001999999001001MA1999999093741MD1999999+0181REMSYN070AAXX  12214 42111 22996 00502 10060 20051 39374 40181 333 58018 6003/;
0164421110999992000021300004+30320+078030FM-12+068299999V0200501N000512200019N0040001N1+00461+00371101701ADDAA100003091GA1001+999999999GF100991001001999999001001MA1999999093621MD1999999+0141REMSYN070AAXX  13004 42111 22996 00501 10046 20037 39362 40170 333 58014 6003/;
0225421110999992000021303004+30320+078030FM-12+068299999V0202701N000512200019N0040001N1+00661+00531101711ADDAA100003091AA224003091GA1011+012009029GF102991011011012501031001KA1120M+01711KA2120N+00391MA1999999093691MD1999999-0131REMSYN094AAXX  13034 42111 22696 22701 10066 20053 39369 40171 81130 333 10171 20039 59013 6003/ 81840;
0173421110999992000021306004+30320+078030FM-12+068299999V0202701N000512200019N0040001N1+01561+00671101541ADDAA199000091GF102991011011012501001011MA1999999093771MD1999999-0051REMSYN076AAXX  13064 42111 32696 22701 10156 20067 39377 40154 81101 333 59005 8140/;EQDQ01  00002PRCP99
0217421110999992000021309004+30320+078030FM-12+068299999V0201401N00051012001CN0040001N1+01761+00881101331ADDAA199000091GA1021+010509069GA2031+012009089GF107991041081012501071001MA1999999093621MD1999999-0071REMSYN088AAXX  13094 42111 32696 71401 10176 20088 39362 40133 84870 333 59007 82635 83840 85360;EQDQ01  00002PRCP99
0240421110999992000021312004+30320+078030FM-12+068299999V0202701N00051036001CN0040001N1+01561+00891101321ADDAA100000592AA209000492AY161061AY221061GA1031+009009069GF106991041081008001071001KA1120M+01821MA1999999093591MD1999999-0121MW1211REMSYN100AAXX  13124 42111 21596 62701 10156 20089 39359 40132 72162 84870 333 10182 59012 6994/ 83630 85460;
0187421110999992000021318004+30320+078030FM-12+068299999V0200501N000512200019N0040001N1+00861+00741101771ADDAA100000592AA215000492GA1031+030009079GF103991031001999999031001MA1999999093981MD1999999-0091REMSYN082AAXX  13184 42111 22996 30501 10086 20074 39398 40177 83030 333 59009 6994/ 83360;
0164421110999992000021321004+30320+078030FM-12+068299999V0203201N000512200019N0040001N1+00741+00621101811ADDAA100000591GA1001+999999999GF100991001001999999001001MA1999999093801MD1999999+0061REMSYN070AAXX  13214 42111 22996 03201 10074 20062 39380 40181 333 58006 6994/;
0164421110999992000021400004+30320+078030FM-12+068299999V0209999C000012200019N0040001N1+00641+00561101761ADDAA100000591GA1001+999999999GF100991001001999999001001MA1999999093721MD1999999+0101REMSYN070AAXX  14004 42111 22996 00000 10064 20056 39372 40176 333 58010 6994/;
0202421110999992000021403004+30320+078030FM-12+068299999V0209999C000012200019N0040001N1+00821+00701101801ADDAA100000591GA1001+999999999GF100991001001999999001001KA1120M+01821KA2120N+00591MA1999999093821MD1999999+0131REMSYN082AAXX  14034 42111 22996 00000 10082 20070 39382 40180 333 10182 20059 58013 6994/;
0189421110999992000021409004+30320+078030FM-12+068299999V0203201N001512200019N0040001N1+01901+00591101491ADDAA199000091GA1021+012009029GF102991021021012501001001MA1999999093801MD1999999+0181REMSYN076AAXX  14094 42111 32696 23203 10190 20059 39380 40149 82200 333 58018 82840;EQDQ01  00002PRCP99
0196421110999992000021412004+30320+078030FM-12+068299999V0203201N001012200019N0040001N1+01781+00861101471ADDAA199000091GA1001+999999999GF100991001001999999001001KA1120M+01981MA1999999093751MD1999999+0161REMSYN070AAXX  14124 42111 32996 03202 10178 20086 39375 40147 333 10198 58016;EQDQ01  00002PRCP99
0177421110999992000021415004+30320+078030FM-12+068299999V0200501N001012200019N0040001N1+01161+00851101711ADDAA199000091GA1001+999999999GF100991001001999999001001MA1999999093821MD1999999+0051REMSYN064AAXX  14154 42111 32996 00502 10116 20085 39382 40171 333 58005;EQDQ01  00002PRCP99
0189421110999992000021418004+30320+078030FM-12+068299999V0200501N000512200019N0040001N1+01001+00811101801ADDAA199000091GA1011+075009019GF101991001001999999001011MA1999999093851MD1999999+0061REMSYN076AAXX  14184 42111 32996 10501 10100 20081 39385 40180 80001 333 58006 81075;EQDQ01  00002PRCP99
0177421110999992000021421004+30320+078030FM-12+068299999V0200501N001012200019N0040001N1+00941+00781101781ADDAA199000091GA1001+999999999GF100991001001999999001001MA1999999093831MD1999999+0031REMSYN064AAXX  14214 42111 32996 00502 10094 20078 39383 40178 333 58003;EQDQ01  00002PRCP99
0177421110999992000021500004+30320+078030FM-12+068299999V0203201N001012200019N0040001N1+00961+00551101511ADDAA199000091GA1001+999999999GF100991001001999999001001MA1999999093581MD1999999-0031REMSYN064AAXX  15004 42111 32996 03202 10096 20055 39358 40151 333 59003;EQDQ01  00002PRCP99
0195421110999992000021506004+30320+078030FM-12+068299999V0203201N00101036001CN0040001N1+01781+00571101801ADDAA199000091GA1031+010509069GF107991031051012501071001MA1999999093881MD1999999-0031REMSYN082AAXX  15064 42111 32696 73202 10178 20057 39388 40180 83570 333 59003 83635 85360;EQDQ01  00002PRCP99
0195421110999992000021509004+30320+078030FM-12+068299999V0202301N00051036001CN0040001N1+01821+00771101321ADDAA199000091GA1021+010509069GF107991021051012501071001MA1999999093641MD1999999-0161REMSYN082AAXX  15094 42111 32696 72301 10182 20077 39364 40132 82570 333 59016 82635 85360;EQDQ01  00002PRCP99
0214421110999992000021512004+30320+078030FM-12+068299999V0201401N00051036001CN0040001N1+01701+01061101271ADDAA199000091GA1031+010509069GF106991041081012501071001KA1120M+01911MA1999999093541MD1999999-0211REMSYN088AAXX  15124 42111 32696 61401 10170 20106 39354 40127 84870 333 10191 59021 83635 85360;EQDQ01  00002PRCP99
0195421110999992000021515004+30320+078030FM-12+068299999V0209999C00001036001CN0040001N1+01201+00901101481ADDAA199000091GA1011+010509069GF105991011051012501031001MA1999999093611MD1999999+0001REMSYN082AAXX  15154 42111 32696 50000 10120 20090 39361 40148 81530 333 58000 81635 85360;EQDQ01  00002PRCP99
0189421110999992000021521004+30320+078030FM-12+068299999V0200501N000512200019N0040001N1+00841+00591101501ADDAA199000091GA1011+030009079GF102991011001999999031001MA1999999093541MD1999999-0291REMSYN076AAXX  15214 42111 32996 20501 10084 20059 39354 40150 81030 333 59029 81360;EQDQ01  00002PRCP99
0189421110999992000021600004+30320+078030FM-12+068299999V0200501N000512200019N0040001N1+00801+00411101461ADDAA199000091GA1011+030009079GF101991011001999999031001MA1999999093491MD1999999-0091REMSYN076AAXX  16004 42111 32996 10501 10080 20041 39349 40146 81030 333 59009 81360;EQDQ01  00002PRCP99
0233421110999992000021603004+30320+078030FM-12+068299999V0203201N00051036001CN0040001N1+01081+00641101501ADDAA199000091GA1011+010509069GF106991011051012501071001KA1120M+01911KA2120N+00761MA1999999093601MD1999999-0091REMSYN094AAXX  16034 42111 32696 63201 10108 20064 39360 40150 81570 333 10191 20076 59009 81635 84360;EQDQ01  00002PRCP99
0177421110999992000021606004+30320+078030FM-12+068299999V0202301N001012200019N0040001N1+01901+00831101381ADDAA199000091GA1001+999999999GF100991001001999999001001MA1999999093701MD1999999-0181REMSYN064AAXX  16064 42111 32996 02302 10190 20083 39370 40138 333 59018;EQDQ01  00002PRCP99
0236421110999992000021612004+30320+078030FM-12+068299999V0202301N001012200019N0020001N1+01741+00671101061ADDAA199000091AY121061AY221061GA1021+012009029GF102991021011012501001001KA1120M+02011MA1999999093371MD1999999-0171MW1051REMSYN088AAXX  16124 42111 31695 22302 10174 20067 39337 40106 70522 82100 333 10201 59017 82840;EQDQ01  00002PRCP99
0217421110999992000021615004+30320+078030FM-12+068299999V0209999C000012200019N0020001N1+01161+00811101341ADDAA199000091AY121031AY221031GA1011+075009019GF103991001001999999001011MA1999999093481MD1999999-0131MW1051REMSYN082AAXX  16154 42111 31995 30000 10116 20081 39348 40134 70522 80001 333 59013 81075;EQDQ01  00002PRCP99
0195421110999992000021618004+30320+078030FM-12+068299999V0200501N00051036001CN0040001N1+01001+00681101441ADDAA199000091GA1021+010509069GF105991021051012501031001MA1999999093511MD1999999-0091REMSYN082AAXX  16184 42111 32696 50501 10100 20068 39351 40144 82530 333 59009 82635 85360;EQDQ01  00002PRCP99
0189421110999992000021621004+30320+078030FM-12+068299999V0200501N001012200019N0040001N1+00901+00611101311ADDAA199000091GA1021+030009079GF102991021001999999031001MA1999999093371MD1999999-0171REMSYN076AAXX  16214 42111 32996 20502 10090 20061 39337 40131 82030 333 59017 82360;EQDQ01  00002PRCP99
0177421110999992000021700004+30320+078030FM-12+068299999V0200501N000512200019N0040001N1+00761+00411101241ADDAA199000091GA1001+999999999GF100991001001999999001001MA1999999093291MD1999999-0201REMSYN064AAXX  17004 42111 32996 00501 10076 20041 39329 40124 333 59020;EQDQ01  00002PRCP99
0181421110999992000021706004+30320+078030FM-12+068299999V0201801N001012200019N0040001N1+01741+00461101171ADDAA199000091AY101061AY201061GF102991021011012501001001MA1999999093481MW1051REMSYN076AAXX  17064 42111 31696 21802 10174 20046 39348 40117 70500 82100 333 590//;EQDQ01  00002PRCP99
0217421110999992000021709004+30320+078030FM-12+068299999V0201401N00051012001CN0040001N1+02001+00361100861ADDAA199000091GA1021+010509069GA2031+012009089GF105991041081012501071001MA1999999093241MD1999999-0241REMSYN088AAXX  17094 42111 32696 51401 10200 20036 39324 40086 84870 333 59024 82635 83840 85360;EQDQ01  00002PRCP99
0262421110999992000021712004+30320+078030FM-12+068299999V0200501N00101036001CN0020001N1+01501+00491100941ADDAA100000791AA209999929AY161061AY221061GA1031+009009069GA2011+012009069GF106991041091008001071001KA1120M+02011MA1999999093191MD1999999-0181MW1951REMSYN106AAXX  17124 42111 21595 60502 10150 20049 39319 40094 79562 84970 333 10201 59018 6990/ 83630 81640 85460;
0215421110999992000021715004+30320+078030FM-12+068299999V0200501N001012200019N0100001N1+01161+00401101221ADDAA100001091AA212001091AY191031AY261031GA1011+075009019GF101991001001999999001011MA1999999093361MD1999999-0121MW1011REMSYN088AAXX  17154 42111 21997 10502 10116 20040 39336 40122 70196 80001 333 59012 6001/ 81075;
0192421110999992000021718004+30320+078030FM-12+068299999V0200501N001012200019N0040001N1+00881+00451101321ADDAA100001091AY191061AY261061GA1001+999999999GF100991001001999999001001MA1999999093381MD1999999-0131MW1011REMSYN076AAXX  17184 42111 21996 00502 10088 20045 39338 40132 70196 333 59013 6001/;
0164421110999992000021800004+30320+078030FM-12+068299999V0200501N000512200019N0040001N1+00461+00371101351ADDAA100001091GA1001+999999999GF100991001001999999001001MA1999999093301MD1999999+0011REMSYN070AAXX  18004 42111 22996 00501 10046 20037 39330 40135 333 58001 6001/;
0189421110999992000021806004+30320+078030FM-12+068299999V0202301N001012200019N0040001N1+01681+00321101381ADDAA199000091GA1011+012009029GF101991011011012501001001MA1999999093651MD1999999+0171REMSYN076AAXX  18064 42111 32696 12302 10168 20032 39365 40138 81100 333 58017 81840;EQDQ01  00002PRCP99
0189421110999992000021809004+30320+078030FM-12+068299999V0203201N001512200019N0040001N1+01941-00301101121ADDAA199000091GA1021+012009029GF102991021021012501001001MA1999999093491MD1999999+0251REMSYN076AAXX  18094 42111 32696 23203 10194 21030 39349 40112 82200 333 58025 82840;EQDQ01  00002PRCP99
0177421110999992000021815004+30320+078030FM-12+068299999V0200501N001012200019N0040001N1+01001+00451101421ADDAA199000091GA1001+999999999GF100991001001999999001001MA1999999093501MD1999999+0141REMSYN064AAXX  18154 42111 32996 00502 10100 20045 39350 40142 333 58014;EQDQ01  00002PRCP99
0177421110999992000021818004+30320+078030FM-12+068299999V0200501N001012200019N0040001N1+00861+00331101501ADDAA199000091GA1001+999999999GF100991001001999999001001MA1999999093541MD1999999+0161REMSYN064AAXX  18184 42111 32996 00502 10086 20033 39354 40150 333 58016;EQDQ01  00002PRCP99
0177421110999992000021900004+30320+078030FM-12+068299999V0200501N000512200019N0040001N1+00621+00211101391ADDAA199000091GA1001+999999999GF100991001001999999001001MA1999999093391MD1999999+0091REMSYN064AAXX  19004 42111 32996 00501 10062 20021 39339 40139 333 58009;EQDQ01  00002PRCP99
0189421110999992000021906004+30320+078030FM-12+068299999V0203201N001012200019N0040001N1+01741+00181101381ADDAA199000091GA1021+012009029GF102991021011012501001001MA1999999093671MD1999999+0021REMSYN076AAXX  19064 42111 32696 23202 10174 20018 39367 40138 82100 333 58002 82840;EQDQ01  00002PRCP99
0183421110999992000021909004+30320+078030FM-12+068299999V0202301N001012200019N0040001N1+02041+00371102062ADDAA199000091GF102991021021012501001001MA1999999093451MD1999999-0041REMSYN070AAXX  19094 42111 32696 22302 10204 20037 39345 40206 82200 333 59004;EQDQ01+102063APOSLPQ02  00002PRCP99
0177421110999992000021915004+30320+078030FM-12+068299999V0200501N000512200019N0040001N1+01021+00571101491ADDAA199000091GA1001+999999999GF100991001001999999001001MA1999999093601MD1999999+0191REMSYN064AAXX  19154 42111 32996 00501 10102 20057 39360 40149 333 58019;EQDQ01  00002PRCP99
0177421110999992000021918004+30320+078030FM-12+068299999V0200501N000512200019N0040001N1+00861+00381101551ADDAA199000091GA1001+999999999GF100991001001999999001001MA1999999093591MD1999999+0051REMSYN064AAXX  19184 42111 32996 00501 10086 20038 39359 40155 333 58005;EQDQ01  00002PRCP99
0189421110999992000022000004+30320+078030FM-12+068299999V0209999C000012200019N0040001N1+00501+00271101461ADDAA199000091GA1011+075009019GF102991001001999999001011MA1999999093361MD1999999-0031REMSYN076AAXX  20004 42111 32996 20000 10050 20027 39336 40146 80001 333 59003 81075;EQDQ01  00002PRCP99
0189421110999992000022006004+30320+078030FM-12+068299999V0202701N000519999999N0040001N1+01661+00111101351ADDAA199000091GA1041+030009079GF106991061001999999071001MA1999999093621MD1999999-0051REMSYN076AAXX  20064 42111 32996 62701 10166 20011 39362 40135 86070 333 59005 84360;EQDQ01  00002PRCP99
0214421110999992000022012004+30320+078030FM-12+068299999V0202701N00051036001CN0040001N1+01761+00151101011ADDAA199000091GA1021+010509069GF107991021051012501071011KA1120M+01961MA1999999093321MD1999999-0101REMSYN088AAXX  20124 42111 32696 72701 10176 20015 39332 40101 82571 333 10196 59010 82635 86360;EQDQ01  00002PRCP99
0221421110999992000022015004+30320+078030FM-12+068299999V0200901N001010090019N0040001N1+01361+00511101491ADDAA100000791AA212999929AY121031AY221031GA1051+009009069GF108991051051008001021999MA1999999093671MD1999999+0071MW1501REMSYN094AAXX  20154 42111 21596 80902 10136 20051 39367 40149 75022 8552/ 333 58007 6990/ 85630 88458;
0221421110999992000022018004+30320+078030FM-12+068299999V0200501N001010090019N0040001N1+01201+00351101591ADDAA100000791AA215999929AY151061AY221061GA1051+009009069GF107991051051008001021001MA1999999093721MD1999999+0131MW1021REMSYN094AAXX  20184 42111 21596 70502 10120 20035 39372 40159 70252 85520 333 58013 6990/ 85630 87458;
0187421110999992000022100004+30320+078030FM-12+068299999V0209999C000012200019N0040001N1+00721+00421101511ADDAA100000791AA221999929GA1021+030009079GF102991021001999999031001MA1999999093521MD1999999+0161REMSYN082AAXX  21004 42111 22996 20000 10072 20042 39352 40151 82030 333 58016 6990/ 82360;
0189421110999992000022103004+30320+078030FM-12+068299999V0200501N000512200019N0020001N1+00901+00331101711ADDAA100000791GA1001+999999999GF100991001001999999001001KA1120M+01961MA1999999093731MD1999999+0231REMSYN082AAXX  21034 42111 22995 00501 10090 20033 39373 40171 333 0049/ 10196 58023 6990/;
0189421110999992000022109004+30320+078030FM-12+068299999V0203201N001012200019N0040001N1+02081-00161101331ADDAA199000091GA1021+012009029GF102991021011012501001001MA1999999093701MD1999999+0301REMSYN076AAXX  21094 42111 32696 23202 10208 21016 39370 40133 82100 333 58030 82840;EQDQ01  00002PRCP99
0208421110999992000022112004+30320+078030FM-12+068299999V0203201N001012200019N0040001N1+01961+00241101261ADDAA199000091GA1011+012009029GF101991011011012501001001KA1120M+02181MA1999999093611MD1999999+0291REMSYN082AAXX  21124 42111 32696 13202 10196 20024 39361 40126 81100 333 10218 58029 81840;EQDQ01  00002PRCP99
0177421110999992000022115004+30320+078030FM-12+068299999V0200501N000512200019N0040001N1+01341+00221101611ADDAA199000091GA1001+999999999GF100991001001999999001001MA1999999093781MD1999999+0111REMSYN064AAXX  21154 42111 32996 00501 10134 20022 39378 40161 333 58011;EQDQ01  00002PRCP99
0177421110999992000022121004+30320+078030FM-12+068299999V0200501N000512200019N0040001N1+00841+00311101731ADDAA199000091GA1001+999999999GF100991001001999999001001MA1999999093751MD1999999+0151REMSYN064AAXX  21214 42111 32996 00501 10084 20031 39375 40173 333 58015;EQDQ01  00002PRCP99
0215421110999992000022203004+30320+078030FM-12+068299999V0209999C000012200019N0040001N1+00941+00281101821ADDAA199000091GA1001+999999999GF100991001001999999001001KA1120M+02121KA2120N+00561MA1999999093871MD1999999+0141REMSYN076AAXX  22034 42111 32996 00000 10094 20028 39387 40182 333 10212 20056 58014;EQDQ01  00002PRCP99
0177421110999992000022206004+30320+078030FM-12+068299999V0202701N000512200019N0040001N1+01941+00201101741ADDAA199000091GA1001+999999999GF100991001001999999001001MA1999999094061MD1999999+0201REMSYN064AAXX  22064 42111 32996 02701 10194 20020 39406 40174 333 58020;EQDQ01  00002PRCP99
0189421110999992000022209004+30320+078030FM-12+068299999V0203201N001012200019N0040001N1+02101-00051101521ADDAA199000091GA1011+012009029GF101991011011012501001001MA1999999093881MD1999999+0181REMSYN076AAXX  22094 42111 32696 13202 10210 21005 39388 40152 81100 333 58018 81840;EQDQ01  00002PRCP99
0196421110999992000022212004+30320+078030FM-12+068299999V0202301N001012200019N0040001N1+01881+00281101361ADDAA199000091GA1001+999999999GF100991001001999999001001KA1120M+02161MA1999999093681MD1999999+0071REMSYN070AAXX  22124 42111 32996 02302 10188 20028 39368 40136 333 10216 58007;EQDQ01  00002PRCP99
0177421110999992000022218004+30320+078030FM-12+068299999V0200501N001012200019N0040001N1+00981+00381101741ADDAA199000091GA1001+999999999GF100991001001999999001001MA1999999093791MD1999999-0041REMSYN064AAXX  22184 42111 32996 00502 10098 20038 39379 40174 333 59004;EQDQ01  00002PRCP99
0177421110999992000022221004+30320+078030FM-12+068299999V0200501N001012200019N0040001N1+00841+00361101621ADDAA199000091GA1001+999999999GF100991001001999999001001MA1999999093661MD1999999-0091REMSYN064AAXX  22214 42111 32996 00502 10084 20036 39366 40162 333 59009;EQDQ01  00002PRCP99
0177421110999992000022300004+30320+078030FM-12+068299999V0200501N001012200019N0040001N1+00581+00311101641ADDAA199000091GA1001+999999999GF100991001001999999001001MA1999999093591MD1999999-0131REMSYN064AAXX  23004 42111 32996 00502 10058 20031 39359 40164 333 59013;EQDQ01  00002PRCP99
0215421110999992000022303004+30320+078030FM-12+068299999V0202701N000512200019N0040001N1+00941+00481101771ADDAA199000091GA1001+999999999GF100991001001999999001001KA1120M+02161KA2120N+00511MA1999999093821MD1999999+0091REMSYN076AAXX  23034 42111 32996 02701 10094 20048 39382 40177 333 10216 20051 58009;EQDQ01  00002PRCP99
0189421110999992000022306004+30320+078030FM-12+068299999V0202301N000512200019N0040001N1+01961+00361101581ADDAA199000091GA1011+012009029GF101991011011012501001001MA1999999093901MD1999999-0161REMSYN076AAXX  23064 42111 32696 12301 10196 20036 39390 40158 81100 333 59016 81840;EQDQ01  00002PRCP99
0189421110999992000022309004+30320+078030FM-12+068299999V0203201N000512200019N0040001N1+02201+00071101341ADDAA199000091GA1011+012009029GF101991011011012501001001MA1999999093731MD1999999-0151REMSYN076AAXX  23094 42111 32696 13201 10220 20007 39373 40134 81100 333 59015 81840;EQDQ01  00002PRCP99
0196421110999992000022312004+30320+078030FM-12+068299999V0203201N001512200019N0040001N1+01921+00521101271ADDAA199000091GA1001+999999999GF100991001001999999001001KA1120M+02231MA1999999093621MD1999999-0061REMSYN070AAXX  23124 42111 32996 03203 10192 20052 39362 40127 333 10223 59006;EQDQ01  00002PRCP99
0177421110999992000022318004+30320+078030FM-12+068299999V0200501N000512200019N0040001N1+01001+00591101701ADDAA199000091GA1001+999999999GF100991001001999999001001MA1999999093751MD1999999-0041REMSYN064AAXX  23184 42111 32996 00501 10100 20059 39375 40170 333 59004;EQDQ01  00002PRCP99
0177421110999992000022400004+30320+078030FM-12+068299999V0209999C000012200019N0040001N1+00721+00321101581ADDAA199000091GA1001+999999999GF100991001001999999001001MA1999999093591MD1999999+0001REMSYN064AAXX  24004 42111 32996 00000 10072 20032 39359 40158 333 58000;EQDQ01  00002PRCP99
0215421110999992000022403004+30320+078030FM-12+068299999V0209999C000012200019N0040001N1+00861+00481101651ADDAA199000091GA1001+999999999GF100991001001999999001001KA1120M+02231KA2120N+00571MA1999999093691MD1999999-0131REMSYN076AAXX  24034 42111 32996 00000 10086 20048 39369 40165 333 10223 20057 59013;EQDQ01  00002PRCP99
0177421110999992000022406004+30320+078030FM-12+068299999V0201801N000512200019N0040001N1+01881+00761101491ADDAA199000091GA1001+999999999GF100991001001999999001001MA1999999093801MD1999999-0101REMSYN064AAXX  24064 42111 32996 01801 10188 20076 39380 40149 333 59010;EQDQ01  00002PRCP99
0177421110999992000022418004+30320+078030FM-12+068299999V0200501N000512200019N0040001N1+00941+00661101541ADDAA199000091GA1001+999999999GF100991001001999999001001MA1999999093581MD1999999-0171REMSYN064AAXX  24184 42111 32996 00501 10094 20066 39358 40154 333 59017;EQDQ01  00002PRCP99
0177421110999992000022500004+30320+078030FM-12+068299999V0203201N001012200019N0040001N1+00721+00511101301ADDAA199000091GA1001+999999999GF100991001001999999001001MA1999999093331MD1999999-0261REMSYN064AAXX  25004 42111 32996 03202 10072 20051 39333 40130 333 59026;EQDQ01  00002PRCP99
0217421110999992000022506004+30320+078030FM-12+068299999V0202301N001012200019N0040001N1+01741+00571101331ADDAA199000091AY101061AY201061GA1011+012009029GF101991011011012501001001MA1999999093621MD1999999-0181MW1051REMSYN082AAXX  25064 42111 31696 12302 10174 20057 39362 40133 70500 81100 333 59018 81840;EQDQ01  00002PRCP99
0189421110999992000022509004+30320+078030FM-12+068299999V0202301N000512200019N0040001N1+02001+00531100951ADDAA199000091GA1021+012009029GF103991011011012501031001MA1999999093321MD1999999-0311REMSYN076AAXX  25094 42111 32696 32301 10200 20053 39332 40095 81130 333 59031 82840;EQDQ01  00002PRCP99
0208421110999992000022512004+30320+078030FM-12+068299999V0202301N001512200019N0040001N1+01761+00381100931ADDAA199000091GA1011+012009029GF101991011011012501001001KA1120M+02071MA1999999093261MD1999999-0221REMSYN082AAXX  25124 42111 32696 12303 10176 20038 39326 40093 81100 333 10207 59022 81840;EQDQ01  00002PRCP99
0177421110999992000022515004+30320+078030FM-12+068299999V0203201N000512200019N0040001N1+01121+00591101231ADDAA199000091GA1001+999999999GF100991001001999999001001MA1999999093371MD1999999-0201REMSYN064AAXX  25154 42111 32996 03201 10112 20059 39337 40123 333 59020;EQDQ01  00002PRCP99
0177421110999992000022518004+30320+078030FM-12+068299999V0200501N000512200019N0040001N1+00921+00591101271ADDAA199000091GA1001+999999999GF100991001001999999001001MA1999999093361MD1999999-0221REMSYN064AAXX  25184 42111 32996 00501 10092 20059 39336 40127 333 59022;EQDQ01  00002PRCP99
0177421110999992000022600004+30320+078030FM-12+068299999V0200501N000512200019N0040001N1+00741+00441101111ADDAA199000091GA1001+999999999GF100991001001999999001001MA1999999093161MD1999999-0171REMSYN064AAXX  26004 42111 32996 00501 10074 20044 39316 40111 333 59017;EQDQ01  00002PRCP99
0215421110999992000022603004+30320+078030FM-12+068299999V0200501N000512200019N0040001N1+01021+00521101241ADDAA199000091GA1001+999999999GF100991001001999999001001KA1120M+02071KA2120N+00641MA1999999093351MD1999999-0161REMSYN076AAXX  26034 42111 32996 00501 10102 20052 39335 40124 333 10207 20064 59016;EQDQ01  00002PRCP99
0208421110999992000022612004+30320+078030FM-12+068299999V0203201N001012200019N0040001N1+01821+00361100901ADDAA199000091GA1011+012009029GF101991011011012501001001KA1120M+02051MA1999999093251MD1999999-0011REMSYN082AAXX  26124 42111 32696 13202 10182 20036 39325 40090 81100 333 10205 59001 81840;EQDQ01  00002PRCP99
0193421110999992000022615004+30320+078030FM-12+068299999V0200501N001012200019N0040001N1+01181+00711101522ADDAA199000091GA1001+999999999GF100991001001999999001001MA1999999093461MD1999999+0091REMSYN064AAXX  26154 42111 32996 00502 10118 20071 39346 40152 333 58009;EQDQ01+101523APOSLPQ02  00002PRCP99
0177421110999992000022618004+30320+078030FM-12+068299999V0200501N001012200019N0040001N1+01101+00611101361ADDAA199000091GA1001+999999999GF100991001001999999001001MA1999999093471MD1999999+0111REMSYN064AAXX  26184 42111 32996 00502 10110 20061 39347 40136 333 58011;EQDQ01  00002PRCP99
0177421110999992000022621004+30320+078030FM-12+068299999V0200501N001012200019N0040001N1+00981+00521101281ADDAA199000091GA1001+999999999GF100991001001999999001001MA1999999093371MD1999999+0131REMSYN064AAXX  26214 42111 32996 00502 10098 20052 39337 40128 333 58013;EQDQ01  00002PRCP99
0177421110999992000022700004+30320+078030FM-12+068299999V0200501N001012200019N0040001N1+00921+00451101171ADDAA199000091GA1001+999999999GF100991001001999999001001MA1999999093271MD1999999+0111REMSYN064AAXX  27004 42111 32996 00502 10092 20045 39327 40117 333 58011;EQDQ01  00002PRCP99
0215421110999992000022703004+30320+078030FM-12+068299999V0200501N001012200019N0040001N1+01201+00501101351ADDAA199000091GA1001+999999999GF100991001001999999001001KA1120M+02051KA2120N+00811MA1999999093491MD1999999+0141REMSYN076AAXX  27034 42111 32996 00502 10120 20050 39349 40135 333 10205 20081 58014;EQDQ01  00002PRCP99
0177421110999992000022706004+30320+078030FM-12+068299999V0202701N000512200019N0040001N1+01901+00641101211ADDAA199000091GA1001+999999999GF100991001001999999001001MA1999999093531MD1999999+0041REMSYN064AAXX  27064 42111 32996 02701 10190 20064 39353 40121 333 58004;EQDQ01  00002PRCP99
0161421110999992000022709004+30320+078030FM-12+068299999V0202301N001012200019N0040001N1+02181+00421100901ADDAA199000091GF101991999999999999999999MA1999999093321MD1999999-0031REMSYN064AAXX  27094 42111 32996 12302 10218 20042 39332 40090 333 59003;EQDQ01  00002PRCP99
0196421110999992000022712004+30320+078030FM-12+068299999V0202701N000512200019N0040001N1+02001+00731100921ADDAA199000091GA1001+999999999GF100991001001999999001001KA1120M+02271MA1999999093301MD1999999+0051REMSYN070AAXX  27124 42111 32996 02701 10200 20073 39330 40092 333 10227 58005;EQDQ01  00002PRCP99
0177421110999992000022715004+30320+078030FM-12+068299999V0200501N000512200019N0040001N1+01341+00811101201ADDAA199000091GA1001+999999999GF100991001001999999001001MA1999999093401MD1999999-0061REMSYN064AAXX  27154 42111 32996 00501 10134 20081 39340 40120 333 59006;EQDQ01  00002PRCP99
0177421110999992000022800004+30320+078030FM-12+068299999V0200501N000512200019N0040001N1+00861+00521101271ADDAA199000091GA1001+999999999GF100991001001999999001001MA1999999093331MD1999999+0061REMSYN064AAXX  28004 42111 32996 00501 10086 20052 39333 40127 333 58006;EQDQ01  00002PRCP99
0208421110999992000022803004+30320+078030FM-12+068299999V0200901N000512200019N0040001N1+01141+00571101391ADDAA199000091GA1011+030009079GF101991011001999999031001KA1120N+00741MA1999999093521MD1999999+0031REMSYN082AAXX  28034 42111 32996 10901 10114 20057 39352 40139 81030 333 20074 58003 81360;EQDQ01  00002PRCP99
0177421110999992000022809004+30320+078030FM-12+068299999V0202301N001012200019N0040001N1+02421+00901100901ADDAA199000091GA1001+999999999GF100991001001999999001001MA1999999093401MD1999999+0081REMSYN064AAXX  28094 42111 32996 02302 10242 20090 39340 40090 333 58008;EQDQ01  00002PRCP99
0177421110999992000022815004+30320+078030FM-12+068299999V0200501N000512200019N0040001N1+01541+01071101191ADDAA199000091GA1001+999999999GF100991001001999999001001MA1999999093451MD1999999-0031REMSYN064AAXX  28154 42111 32996 00501 10154 20107 39345 40119 333 59003;EQDQ01  00002PRCP99
0177421110999992000022818004+30320+078030FM-12+068299999V0200501N001012200019N0040001N1+01361+00911101331ADDAA199000091GA1001+999999999GF100991001001999999001001MA1999999093511MD1999999+0031REMSYN064AAXX  28184 42111 32996 00502 10136 20091 39351 40133 333 58003;EQDQ01  00002PRCP99
0177421110999992000022900004+30320+078030FM-12+068299999V0209999C000012200019N0040001N1+01101+00751101121ADDAA199000091GA1001+999999999GF100991001001999999001001MA1999999093251MD1999999-0081REMSYN064AAXX  29004 42111 32996 00000 10110 20075 39325 40112 333 59008;EQDQ01  00002PRCP99
0255421110999992000022903004+30320+078030FM-12+068299999V0209999C000019999999N0040001N1+01641+00731101191ADDAA199000091GA1011+010509069GA2031+030009039GF106991011051999999031011KA1120M+02561KA2120N+00941MA1999999093471MD1999999-0051REMSYN100AAXX  29034 42111 32996 60000 10164 20073 39347 40119 81531 333 10256 20094 59005 81635 83360 85075;EQDQ01  00002PRCP99
0223421110999992000022909004+30320+078030FM-12+068299999V0209999C00001036001CN0020001N1+02321+01161100781ADDAA199000091AY121031AY221031GA1031+010509069GF107991041081012501071001MA1999999093271MD1999999-0131MW1051REMSYN088AAXX  29094 42111 31695 70000 10232 20116 39327 40078 70522 84870 333 59013 83635 86460;EQDQ01  00002PRCP99
0242421110999992000022912004+30320+078030FM-12+068299999V0202301N001012200019N0020001N1+02141+01261100801ADDAA199000091AY121061AY211061GA1011+010509069GF103991011051012501031001KA1120M+02361MA1999999093241MD1999999-0041MW1051REMSYN094AAXX  29124 42111 31695 32302 10214 20126 39324 40080 70521 81530 333 10236 59004 81635 83360;EQDQ01  00002PRCP99
0177421110999992000022915004+30320+078030FM-12+068299999V0200501N000512200019N0040001N1+01621+01241101081ADDAA199000091GA1001+999999999GF100991001001999999001001MA1999999093361MD1999999-0091REMSYN064AAXX  29154 42111 32996 00501 10162 20124 39336 40108 333 59009;EQDQ01  00002PRCP99
0177421110999992000022918004+30320+078030FM-12+068299999V0200501N000512200019N0040001N1+01441+01121101111ADDAA199000091GA1001+999999999GF100991001001999999001001MA1999999093341MD1999999-0171REMSYN064AAXX  29184 42111 32996 00501 10144 20112 39334 40111 333 59017;EQDQ01  00002PRCP99
0243421110999992000030103004+30320+078030FM-12+068299999V0203201N000512200019N0020001N1+01521+01051101131ADDAA199000091AY101031AY201031GA1001+999999999GF100991001001999999001001KA1120M+02361KA2120N+01101MA1999999093391MD1999999-0081MW1051REMSYN082AAXX  01034 42111 31995 03201 10152 20105 39339 40113 70500 333 10236 20110 59008;EQDQ01  00002PRCP99
0236421110999992000030112004+30320+078030FM-12+068299999V0202301N001012200019N0020001N1+02221+01161100491ADDAA199000091AY121061AY211061GA1021+012009029GF102991021021012501001001KA1120M+02431MA1999999092971MD1999999-0271MW1051REMSYN088AAXX  01124 42111 31695 22302 10222 20116 39297 40049 70521 82200 333 10243 59027 82840;EQDQ01  00002PRCP99
0163421110999992000030115004+30320+078030FM-12+068299999V02099999999999999999N0040001N1+01741+01221100781ADDAA199000091GA1011+030009079MA1999999093111MD1999999-0221REMSYN076AAXX  01154 42111 32996 ///// 10174 20122 39311 40078 81030 333 59022 81360;EQDQ01  00002PRCP99
0223421110999992000030118004+30320+078030FM-12+068299999V0200501N001010120019N0040001N1+01661+01011100911ADDAA199000091AY111061AY231061GA1031+010509069GF105991051091012501001001MA1999999093211MD1999999-0131MW1171REMSYN088AAXX  01184 42111 31696 50502 10166 20101 39321 40091 71713 85900 333 59013 83635 82940;EQDQ01  00002PRCP99
0221421110999992000030121004+30320+078030FM-12+068299999V0200501N001012200019N9999999N1+01461+00561100901ADDAA199000091AY191031AY221031GA1001+999999999GF100991001001999999001001MA1999999093151MD1999999-0131MW1001REMSYN070AAXX  01214 42111 31996 00502 10146 20056 39315 40090 70092 333 59013;EQDQ01+040002VODIS Q02  00002PRCP99
0177421110999992000030200004+30320+078030FM-12+068299999V0203201N001012200019N0040001N1+01161+00641100881ADDAA199000091GA1001+999999999GF100991001001999999001001MA1999999093061MD1999999-0161REMSYN064AAXX  02004 42111 32996 03202 10116 20064 39306 40088 333 59016;EQDQ01  00002PRCP99
0215421110999992000030203004+30320+078030FM-12+068299999V02099999999992200019N0040001N1+01321+00821100941ADDAA199000091GA1001+999999999GF100991001001999999001001KA1120M+02431KA2120N+01041MA1999999093161MD1999999-0231REMSYN076AAXX  02034 42111 32996 0050/ 10132 20082 39316 40094 333 10243 20104 59023;EQDQ01  00002PRCP99
0217421110999992000030206004+30320+078030FM-12+068299999V0202301N001012200019N0020001N1+02181+00981100941ADDAA199000091AY111061AY211061GA1011+012009029GF101991011011012501001001MA1999999093361MD1999999-0051MW1051REMSYN082AAXX  02064 42111 31695 12302 10218 20098 39336 40094 70511 81100 333 59005 81840;EQDQ01  00002PRCP99
0236421110999992000030212004+30320+078030FM-12+068299999V0203201N001512200019N0040001N1+02181+00891100591ADDAA199000091AY111061AY211061GA1021+012009029GF102991021011012501001001KA1120M+02421MA1999999093041MD1999999+0071MW1051REMSYN088AAXX  02124 42111 31696 23203 10218 20089 39304 40059 70511 82100 333 10242 58007 82840;EQDQ01  00002PRCP99
0205421110999992000030215004+30320+078030FM-12+068299999V0200501N000512200019N0020001N1+01601+01101100921ADDAA199000091AY101031AY201031GA1001+999999999GF100991001001999999001001MA1999999093201MD1999999+0091MW1051REMSYN070AAXX  02154 42111 31995 00501 10160 20110 39320 40092 70500 333 58009;EQDQ01  00002PRCP99
0177421110999992000030218004+30320+078030FM-12+068299999V0200501N001012200019N0040001N1+01461+01021101021ADDAA199000091GA1001+999999999GF100991001001999999001001MA1999999093271MD1999999+0061REMSYN064AAXX  02184 42111 32996 00502 10146 20102 39327 40102 333 58006;EQDQ01  00002PRCP99
0177421110999992000030300004+30320+078030FM-12+068299999V0209999C000012200019N0040001N1+01141+00831100891ADDAA199000091GA1001+999999999GF100991001001999999001001MA1999999093071MD1999999+0011REMSYN064AAXX  03004 42111 32996 00000 10114 20083 39307 40089 333 58001;EQDQ01  00002PRCP99
0243421110999992000030303004+30320+078030FM-12+068299999V0209999C000012200019N0020001N1+01421+00851101081ADDAA199000091AY101031AY201031GA1001+999999999GF100991001001999999001001KA1120M+02421KA2120N+00981MA1999999093311MD1999999+0151MW1051REMSYN082AAXX  03034 42111 31995 00000 10142 20085 39331 40108 70500 333 10242 20098 58015;EQDQ01  00002PRCP99
