0207433600999992000111212004+09830+078070FM-12+0131VOMD V0200201N028312200019N0001001N1+99999+99999100791ADDGA1011+002409079GA2011+003909099GA3051+004209089GF199999011081017501031021MD1999999-0101REMSYN088AAXX  12124 43360 22701 10255 20234 40079 81832 333 59010 81708 81913 85814 943// 91113;EQDQ01+000012SCOTCV
