0175434210999992000020100004+08330+080420FM-12+0089VCCA V0209999C000012200019N0100001N1+02151+99999101121ADDAA199000091GA1031+005409029GF103991031011004501001001MA1999999100101REMSYN076AAXX  01004 43421 32497 30000 10215 202/0 30010 40112 83100 333 59/01 83818;EQDQ01  00002PRCP99
0230434210999992000020103004+08330+080420FM-12+0089VCCA V0209999C000012200019N0200001N1+03802+02201101271ADDAA199000091GA1011+005409089GF103991011011004501001011KA1120N+02151MA1999999100251MD1999999-0121REMSYN088AAXX  01034 43421 32498 30000 1038/ 20220 30025 40127 81101 333 20215 59012 81818 83080;EQDQ01+003803ATOT  Q02  00002PRCP99
0195434210999992000020106004+08330+080420FM-12+0089VCCA V0200501N001510054019N0200001N1+02761+02161101251ADDAA199000091GA1051+005409089GF107991051011004501071999MA1999999100231MD1999999-0111REMSYN082AAXX  01064 43421 32498 70503 10276 20216 30023 40125 8517/ 333 59011 85818 87460;EQDQ01  00002PRCP99
0252434210999992000020212004+08330+080420FM-12+0089VCCA V0200501N000510054019N0100001N1+02491+02371100971ADDAA103004192AA209004092AY181061AY221061GA1051+005409089GF108991051011004501071999KA1120M+02831MA1999999099951MD1999999+0071MW1801REMSYN112AAXX  02124 43421 21497 80501 10249 20237 39995 40097 78082 8517/ 333 01023 10283 58007 60047 70070 85818 87460;
0268434210999992000020312004+08330+080420FM-12+0089VCCA V0209999C000010060019N0100001N1+02541+02471100971ADDAA103007991AA209008091AY181061AY281061GA1041+005409089GA2021+006009099GF108991061021004501071999KA1120M+02881MA1999999099951MD1999999+0001MW1951REMSYN112AAXX  03124 43421 21497 80000 10254 20247 39995 40097 79588 8627/ 333 10288 58000 60087 70426 84818 82920 87460;
0182434210999992000020406004+08330+080420FM-12+0089VCCA V0200501N000510054019N0200001N1+02691+02451101231ADDAA124019891GA1051+005409089GF107991051011004501071999MA1999999100211MD1999999+0051REMSYN088AAXX  04064 43421 32498 70501 10269 20245 30021 40123 8517/ 333 58005 70198 85818 86460;
0205434210999992000020418004+08330+080420FM-12+0089VCCA V0209999C000012200019N0100001N1+02321+02261101201ADDAA199000091GA1041+090009089GF104991001001999999001061MA1999999100181MD1999999-0041REMSYN076AAXX  04184 43421 32497 40000 10232 20226 30018 40120 80006 333 59004 84280;EQDQ01+004502SCOLCBQ02  00002PRCP99
0189434210999992000020500004+08330+080420FM-12+0089VCCA V0209999C000010900019N0200001N1+02291+02231101071ADDAA199000091GA1071+090009089GF107991001001999999001061MA1999999100051MD1999999+0071REMSYN076AAXX  05004 43421 32998 70000 10229 20223 30005 40107 80006 333 58007 87280;EQDQ01  00002PRCP99
0143434210999992000020518004+08330+080420FM-12+0089VCCA V0209999C000010042019N0100001N1+99999+99999101091ADDAA199000091GF106991061091004501999999MA1999999100071REMSYN060AAXX  05184 43421 32497 60000 10824 20239 30007 40109 869//;EQDQ01  00002PRCP99
0189434210999992000020606004+08330+080420FM-12+0089VCCA V0200201N025712200019N0200001N1+03031+02431101131ADDAA199000091GA1041+005409029GF105991041011004501001011MA1999999100111MD1999999+0041REMSYN076AAXX  06064 43421 32498 50250 10303 20243 30011 40113 84101 333 58004 84818;EQDQ01  00002PRCP99
0214434210999992000020612004+08330+080420FM-12+0089VCCA V0209999C000012200019N0200001N1+03101+02541100781ADDAA199000091GA1031+005409029GF103991031021004501001001KA1120M+03331MA1999999099761MD1999999-0041REMSYN088AAXX  06124 43421 32498 30800 10310 20254 39976 40078 83200 333 00022 10333 59004 83818;EQDQ01  00002PRCP99
0195434210999992000020706004+08330+080420FM-12+0089VCCA V0209999C000010300019N0200001N1+02861+02271101101ADDAA124011991GA1051+030009019GF106991031051008001071999MA1999999100091MD1999999-0021REMSYN082AAXX  07064 43421 32598 60000 10286 20227 30009 40110 83570 333 59002 70119 85460;EQDQ01+000002SCOHCG
0207434210999992000020712004+08330+080420FM-12+0089VCCA V0209999C999992200019N0200001N1+03081+02471100801ADDAA124011991GA1011+005409089GF101991011091004501031011KA1120M+03271MA1999999099781MD1999999+0021REMSYN100AAXX  07124 43421 32498 18000 10308 20247 39978 40080 81931 333 00023 10327 58002 70119 81818 81920;
0189434210999992000020806004+08330+080420FM-12+0089VCCA V0203201N000512200019N0200001N1+02961+02261101011ADDAA199000091GA1041+005409029GF105991041011004501001011MA1999999099991MD1999999-0101REMSYN076AAXX  08064 43421 32498 53201 10296 20226 39999 40101 84101 333 59010 84818;EQDQ01  00002PRCP99
0189434210999992000020809004+08330+080420FM-12+0089VCCA V0203201N000512200019N0200001N1+03131+02231100781ADDAA199000091GA1031+005409029GF103991031011004501001011MA1999999099761MD1999999-0061REMSYN076AAXX  08094 43421 32498 33201 10313 20223 39976 40078 83101 333 59006 83818;EQDQ01  00002PRCP99
0180434210999992000020909004+08330+080420FM-12+0089VCCA V0209999C00001220001CN0200001N1+03181+02251100861ADDAA199000091GA1031+005409089GF105991031021004501001061MD1999999+0081REMSYN082AAXX  09094 43421 32498 50000 10318 20225 3/984 40086 83206 333 58008 83818 83080;EQDQ01  00002PRCP99
0177434210999992000021100004+08330+080420FM-12+0089VCCA V0209999C000012200019N0100001N1+02301+02241100971ADDAA199000091GA1001+999999999GF100991001001999999001001MA1999999099951MD1999999-0051REMSYN064AAXX  11004 43421 32997 00000 10230 20224 39995 40097 333 59005;EQDQ01  00002PRCP99
0196434210999992000021103004+08330+080420FM-12+0089VCCA V0201401N000512200019N0200001N1+05402+02271100191ADDAA199000091GA1001+999999999GF100991001001999999001001KA1120N+02291MA1999999100171MD1999999-0021REMSYN070AAXX  11034 43421 32998 01401 1054/ 20227 30017 40019 333 20229 59002;EQDQ01  00002PRCP99
0190434210999992000021206004+08330+080420FM-12+0089VCCA V0209999C000012200019N9999999N1+02911+02191101111ADDAA199000091GA1041+005409089GF199999041021999999001021MD1999999-0051REMSYN076AAXX  12064 43421 3///2 10000 10291 20219 40111 84202 333 59005 84818 8300/;EQDQ01+000012SCOTCVQ02  00002PRCP99
0108434210999992000021303004+08330+080420FM-12+0089VCCA V0200501N003612200019N0300001N1+02421+99999999999ADDGF101991999999999999999999REMSYN070AAXX  13034 43421 2/980 10507 10242 22217 00//1 40103 333 20212 59013;
0189434210999992000021306004+08330+080420FM-12+0089VCCA V0200501N000512200019N0200001N1+02891+02091100991ADDAA199000091GA1031+005409029GF103991031011004501001001MA1999999099971MD1999999-0121REMSYN076AAXX  13064 43421 3/498 30501 10289 20209 39997 40099 83100 333 59012 83818;EQDQ01  00002PRCP99
0195434210999992000021406004+08330+080420FM-12+0089VCCA V0200501N000510054019N0200001N1+02911+02301107021ADDAA199000091GA1051+005409089GF106991051011004501031011MA1999999100001MD1999999+0031REMSYN082AAXX  14064 43421 32498 60501 10291 20230 30000 40702 85131 333 58003 85818 83360;EQDQ01  00002PRCP99
0232434210999992000021409004+08330+080420FM-12+0089VCCA V0200501N000510054019N0200001N1+02501+02261100872ADDAA103002091AA206002091AY181031AY221031GA1061+005409089GF108991061011004501021999MA1999999099851MW1251REMSYN100AAXX  14094 43421 21498 80501 10250 20226 39985 40087 72582 8612/ 333 5801/ 60027 70020 86818 88458;EQDQ01+100873APOSLP
0176434210999992000021412004+08330+080420FM-12+0089VCCA V0200501N000510054019N0200001N1+02911+02301999999ADDAA199000021GA1051+005409089GF106991051011004501031011MA1999999100001MD1999999+0031REMSYN082AAXX  14124 43421 32498 60501 10291 20230 30000 4/702 85131 333 58003 85818 83360;
0236434210999992000021612004+08330+080420FM-12+0089VCCA V0200501N001512200019N0200001N1+02881+02131108861ADDAA199000091GA1071+005409089GF199999011011004501001011KA1120M+03171MA1999999099841MD1999999+0031REMSYN094AAXX  16124 43421 32498 30503 10288 20213 39984 40886 81101 333 00020 10317 58003 87818 83080;EQDQ01+000032SCOTCVQ02  00002PRCP99
0195434210999992000021706004+08330+080420FM-12+0089VCCA V0200501N001519999999N0200001N1+02931+02391999999ADDAA199000091GA1031+005409089GF107991031021999999031061MA1999999080031MD1999999-0131REMSYN082AAXX  17064 43421 32998 70503 10293 20239 38003 401// 83236 333 59013 83818 82360;EQDQ01  00002PRCP99
0244434210999992000021712004+08330+080420FM-12+0089VCCA V0200501N000510300019N0200001N1+02801+02271100731ADDAA199000091GA1021+005409089GA2041+030009039GF107991021011004501031061KA1120M+03221MA1999999099112REMSYN100AAXX  17124 43421 32498 70501 10280 20227 39911 40073 82136 333 00021 10322 59/1/ 82818 84360 84280;EQDQ01+099113APOSP Q02  00002PRCP99
0211434210999992000021718004+08330+080420FM-12+0089VCCA V0200501N00051220001CN0200001N1+02431+02081100931ADDAA199000091GA1021+005409089GF106991021011004501001061MA1999999099912MD1999999-0161REMSYN082AAXX  17184 43421 32498 60501 10243 20208 39991 40093 82106 333 59016 82818 85280;EQDQ01+099913APOSP Q02  00002PRCP99
0195434210999992000021806004+08330+080420FM-12+0089VCCA V0209999C000019999999N0200001N1+02591+02411101011ADDAA199000091GA1011+005409089GF107991011011999999031001MA1999999099991MD1999999-0041REMSYN082AAXX  18064 43421 32998 70000 10259 20241 39999 40101 81130 333 59004 81818 87360;EQDQ01  00002PRCP99
0189434210999992000021809004+08330+080420FM-12+0089VCCA V0200501N001512200019N0200001N1+03101+02251100721ADDAA199000091GA1011+005409029GF102991011001004501031001MA1999999099701MD1999999-0031REMSYN076AAXX  18094 43421 32498 20503 10310 20225 39970 40072 81030 333 59003 81818;EQDQ01  00002PRCP99
0214434210999992000021812004+08330+080420FM-12+0089VCCA V0209999C000012200019N0200001N1+03021+02391100621ADDAA199000091GA1011+030009079GF102991011001999999031011KA1120M+03081MA1999999099601MD1999999-0071REMSYN088AAXX  18124 43421 32998 20000 10302 20239 39960 40062 81031 333 00021 10308 59007 81360;EQDQ01  00002PRCP99
0167434210999992000021821004+08330+080420FM-12+0089VCCA V0209999C000012200019N0200001N1+02411+02331100761ADDAA199000091GF101991001001999999001011MA1999999099741MD1999999-0061REMSYN070AAXX  18214 43421 32998 10000 10241 20233 39974 40076 80001 333 59006;EQDQ01  00002PRCP99
0141434210999992000021903004+08330+080420FM-12+0089VCCA V0209999C000019999999N0200001N1+02561+99999100991ADDAA199000091GF105991011001999999031011MA1999999099971REMSYN058AAXX  19034 43421 32998 50000 10256 39997 40099 81031 333;EQDQ01  00002PRCP99
0195434210999992000022109004+08330+080420FM-12+0089VCCA V0209999C00001105001CN0200001N1+03161+02321100701ADDAA199000091GA1011+005409089GF107991011011004501001061MA1999999099681MD1999999+0021REMSYN082AAXX  21094 43421 32498 70000 10316 20232 39968 40070 81106 333 58002 81818 87280;EQDQ01  00002PRCP99
0208434210999992000022203004+08330+080420FM-12+0089VCCA V0203601N000519999999N0200001N1+02601+99999100961ADDAA199000091GA1031+030009039GF106991031001999999031061KA1120N+02301MA1999999099941MD1999999-0021REMSYN082AAXX  22034 43421 32998 63601 10260 39994 40096 83036 333 20230 59002 83360 84080;EQDQ01  00002PRCP99
0195434210999992000022206004+08330+080420FM-12+0089VCCA V0209999C00001220001CN0200001N1+03091+02311101001ADDAA199000091GA1041+005409089GF106991041021004501001011MA1999999099981MD1999999-0021REMSYN082AAXX  22064 43421 32498 60000 10309 20231 39998 40100 84201 333 59002 84818 83080;EQDQ01  00002PRCP99
0189434210999992000022209004+08330+080420FM-12+0089VCCA V0209999C000010054019N0200001N1+03281+02361100701ADDAA199000091GA1051+005409029GF105991051021004501001011MA1999999099681MD1999999+0001REMSYN076AAXX  22094 43421 32498 50000 10328 20236 39968 40070 85201 333 58000 85818;EQDQ01  00002PRCP99
0222434210999992000022212004+08330+080420FM-12+0089VCCA V0203601N000510054019N0200001N1+02881+02391100681ADDAA124000191AY191061AY281061GA1061+005409089GF108991071091004501999999MA1999999099661MD1999999+0071MW1171REMSYN106AAXX  22124 43421 21498 83601 10288 20239 39966 40068 71798 879// 333 00023 12033 58007 70001 86818 82920;
0176434210999992000022309004+08330+080420FM-12+0089VCCA V0209999C000012200019N0200001N1+03051+02431100741ADDAA124034891GA1031+005409029GF104991031999004501031011MA1999999099721MD1999999+0041REMSYN082AAXX  23094 43421 32498 40000 10305 20243 39972 40074 83/31 333 58004 70348 83818;
0207434210999992000022412004+08330+080420FM-12+0089VCCA V0203201N00101045001CN0200001N1+02951+02401100871ADDAA124002091GA1031+005409089GF106991041081004501031011KA1120M+03101MA1999999100851MD1999999+0171REMSYN100AAXX  24124 43421 32498 63202 10295 20240 30085 40087 84831 333 00023 10310 58017 70021 83818 85360;
0250434210999992000022512004+08330+080420FM-12+0089VCCA V0209999C00001030001CN0200001N1+02901+02451102071ADDAA199000091GA1021+007509099GA2041+030009049GA3031+999999089GF107991041021004501091011KA1120M+03281MA1999999099681REMSYN106AAXX  25124 43421 32498 70000 10290 20245 39968 40207 84291 333 02002 10328 52901 8388/ 82925 84460 85080;EQDQ01  00002PRCP99
0189434210999992000022621004+08330+080420FM-12+0089VCCA V0209999C000010054019N0200001N1+99999+99999108731ADDAA199000091GA1061+005409029GF106991061011004501001001MA1999999099711MD1999999-0051REMSYN076AAXX  26214 43421 32498 60000 10/// 20237 39971 40873 86100 333 59005 86818;EQDQ01  00002PRCP99
0217434210999992000022709004+08330+080420FM-12+0089VCCA V0200201N000510054019N0200001N1+02921+02411100721ADDAA199000091GA1051+005409089GA2021+006009099GF108991071091004501011999MA1999999099701MD1999999+0081REMSYN088AAXX  27094 43421 32498 80201 10292 20241 39970 40072 8791/ 333 58008 85818 82920 83460;EQDQ01  00002PRCP99
0222434210999992000022712004+08330+080420FM-12+0089VCCA V0200901N00051045001CN0200001N1+02691+02391100681ADDAA199000091GA1031+005409089GA2011+006009099GF108991041091004501011061KA1120M+03211MA1999999099661REMSYN094AAXX  27124 43421 32498 80901 10269 20239 39966 40068 84916 333 00023 10321 83818 81920 84460;EQDQ01  00002PRCP99
0246434210999992000022912004+08330+080420FM-12+0089VCCA V0200501N001512200019N0200001N1+99999+99999100891ADDAA103003091AA209003091AY181061AY221061GA1031+005409089GF104991031011004501001011KA1120M+03091MA1999999099771MD1999999+0001MW1011REMSYN106AAXX  29124 43421 21498 40503 20231 39977 40089 70182 83101 333 01024 10309 58000 60037 70042 83818 83080;
0189434210999992000030106004+08330+080420FM-12+0089VCCA V0200201N001012200019N0200001N1+02981+02311102101ADDAA199000091GA1041+005409029GF104991041011004501001001MA1999999100051MD1999999-0041REMSYN076AAXX  01064 43421 32498 40202 10298 20231 30005 40210 84100 333 59004 84818;EQDQ01  00002PRCP99
0177434210999992000030118004+08330+080420FM-12+0089VCCA V0200501N001512200019N0200001N1+02461+02311101051ADDAA199000091GA1001+999999999GF100991001001999999001001MA1999999100031MD1999999+0011REMSYN064AAXX  01184 43421 32998 00503 10246 20231 30003 40105 333 58001;EQDQ01  00002PRCP99
0189434210999992000030206004+08330+080420FM-12+0089VCCA V0200501N000512200019N0200001N1+03061+02401107132ADDAA199000091GA1041+005409029GF105991041021004501001011MA1999999100171MD1999999+0061REMSYN076AAXX  02064 43421 32498 50501 10306 20240 30017 40713 84201 333 58006 84818;EQDQ01  00002PRCP99
0205434210999992000030315004+08330+080420FM-12+0089VCCA V0209999C000012200019N0500001N1+02621+02421101871ADDAA199000091GA1031+008409019GF103991999081001501001061MA1999999080051MD1999999+0031REMSYN076AAXX  03154 43421 32299 30000 10262 20242 38005 40187 80806 333 58003 83028;EQDQ01+000002SCOTLCQ02  00002PRCP99
0214434210999992000030512004+08330+080420FM-12+0089VCCA V0209999C000012200019N0200001N1+03041+02451100691ADDAA199000091GA1011+005409029GF102991011021004501001011KA1120M+03321MA1999999099671MD1999999-0121REMSYN088AAXX  05124 43421 32498 20000 10304 20245 39967 40069 81201 333 00022 10332 59012 81818;EQDQ01  00002PRCP99
0223434210999992000030518004+08330+080420FM-12+0089VCCA V0209999C00001105001CN0100001N1+02541+02351101021ADDAA199000091AY111061AY201061GA1011+006009099GF106991011091008001011061MA1999999100001MD1999999+0011MW1131REMSYN088AAXX  05184 43421 32597 60000 10254 20235 30000 40102 71310 81916 333 58001 81920 84460;EQDQ01  00002PRCP99
0223434210999992000030521004+08330+080420FM-12+0089VCCA V0209999999999105001CN0100001N1+02541+02351101021ADDAA199000091AY111031AY201031GA1011+006009099GF106991011091008001011061MA1999999100001MD1999999+0011MW1131REMSYN088AAXX  05214 43421 32597 6000/ 10254 20235 30000 40102 71310 81916 333 58001 81920 84460;EQDQ01  00002PRCP99
0245434210999992000030600004+08330+080420FM-12+0089VCCA V0209999C000010450019N0100001N1+02391+02251100811ADDAA199000091AY111061AY281061GA1021+005409089GA2011+999999099GF107991021091004501081031MA1999999099791MD1999999-0061MW1131REMSYN094AAXX  06004 43421 31497 70000 10239 20225 39979 40081 71318 82983 333 59006 82818 819/0 85360;EQDQ01  00002PRCP99
0238434210999992000030606004+08330+080420FM-12+0089VCCA V0209999C000010051019N0100001N1+02501+02431101091ADDAA103000391AY181061AY221061GA1021+003009079GA2051+005109089GF108991051071004501021999MA1999999100071MD1999999+0051MW1801REMSYN106AAXX  06064 43421 21497 80000 10250 20243 30007 40109 78082 8572/ 333 58005 69937 70003 82710 85817 87460;
0164434210999992000030618004+08330+080420FM-12+0089VCCA V0209999C000012200019N0100001N1+02381+02331101011ADDAA124003391GA1001+999999999GF100991001001999999001001MA1999999099991MD1999999-0011REMSYN070AAXX  06184 43421 32997 00000 10238 20233 39999 40101 333 59001 70032;
0201434210999992000030812004+08330+080420FM-12+0089VCCA V0203201N000510450019N0200001N1+02941+02481100711ADDAA124003891GA1041+005409029GF105991041021004501091001KA1120M+03351MA1999999099691MD1999999-0081REMSYN094AAXX  08124 43421 32498 53201 10294 20248 39969 40071 84290 333 02023 10335 59008 70038 84818;
0177434210999992000031018004+08330+080420FM-12+0089VCCA V0209999C000012200019N0200001N1+02561+02371101001ADDAA199000091GA1001+999999999GF100991001001999999001001MA1999999099981MD1999999+0241REMSYN064AAXX  10184 43421 32998 00000 10256 20237 39998 40100 333 58024;EQDQ01  00002PRCP99
0214434210999992000031112004+08330+080420FM-12+0089VCCA V0209999C000012200019N0200001N1+03241+02251100761ADDAA199000091GA1011+005409029GF102991011011004501001011KA1120M+03471MA1999999099741MD1999999+0091REMSYN088AAXX  11124 43421 32498 20000 10324 20225 39974 40076 81101 333 00023 10347 58009 81818;EQDQ01  00002PRCP99
0189434210999992000031306004+08330+080420FM-12+0089VCCA V0203201N000512200019N0200001N1+03121+02311100901ADDAA199000091GA1031+005409029GF103991031011004501001001MA1999999099881MD1999999-0131REMSYN076AAXX  13064 43421 32498 33201 10312 20231 39988 40090 83100 333 59013 83818;EQDQ01  00002PRCP99
0195434210999992000031318004+08330+080420FM-12+0089VCCA V0209999C000012200019N0200001N1+02661+02521100951ADDAA199000091GA1031+005409089GF104991041091004501001001MA1999999099931MD1999999-0081REMSYN082AAXX  13184 43421 32498 40000 10266 20252 39993 40095 84900 333 59008 83818 81920;EQDQ01  00002PRCP99
0187434210999992000031403004+08330+080420FM-12+0089VCCA V0209999C000012200019N0200001N1+02681+02411101021ADDAA199000091GA1021+005409029GF102991021011004501001001KA1120N+02391MD1999999+0031REMSYN076AAXX  14034 43421 32498 20000 10268 20241 40102 82100 333 20239 58003 82818;EQDQ01  00002PRCP99
0189434210999992000031406004+08330+080420FM-12+0089VCCA V0209999C000012200019N0200001N1+03161+02421101031ADDAA199000091GA1031+005409029GF103991031011004501001001MA1999999100011MD1999999+0131REMSYN076AAXX  14064 43421 32498 30000 10316 20242 30001 40103 83100 333 58013 83818;EQDQ01  00002PRCP99
0214434210999992000031412004+08330+080420FM-12+0089VCCA V0209999C000012200019N0200001N1+03221+02261100691ADDAA199000091GA1021+005409029GF102991021021004501001021KA1120M+03451MA1999999099671MD1999999+0051REMSYN088AAXX  14124 43421 32498 20000 10322 20226 39967 40069 82202 333 00024 10345 58005 82818;EQDQ01  00002PRCP99
0189434210999992000031418004+08330+080420FM-12+0089VCCA V0209999C000010054019N0100001N1+02641+02471101031ADDAA199000091GA1061+005409029GF106991061021004501001001MA1999999100011MD1999999+0081REMSYN076AAXX  14184 43421 32497 60000 10264 20247 30001 40103 86200 333 58008 86818;EQDQ01  00002PRCP99
0177434210999992000031500004+08330+080420FM-12+0089VCCA V0209999C000012200019N0100001N1+02441+02381100891ADDAA199000091GA1001+999999999GF100991001001999999001001MA1999999099871MD1999999+0091REMSYN064AAXX  15004 43421 32997 00000 10244 20238 39987 40089 333 58009;EQDQ01  00002PRCP99
0217434210999992000031509004+08330+080420FM-12+0089VCCA V0202701N00051105001CN0200001N1+03311+02211100761ADDAA199000091GA1031+005409089GA2011+006009099GF107991041031004501001061MA1999999099741MD1999999+0021REMSYN088AAXX  15094 43421 32498 72701 10331 20221 39974 40076 84306 333 58002 83818 81920 85280;EQDQ01  00002PRCP99
0270434210999992000031512004+08330+080420FM-12+0089VCCA V0202701N000510084019N0200001N1+02841+02151100781ADDAA199000091AY191061AY221061GA1041+005409089GA2021+008409099GF108991061091004501001061KA1120M+03291MA1999999099761MD1999999+0091MW1171REMSYN106AAXX  15124 43421 31498 82701 10284 20215 39976 40078 71792 86906 333 00023 10329 58009 84818 82928 85288;EQDQ01  00002PRCP99
0176434210999992000031606004+08330+080420FM-12+0089VCCA V0202901N000512200019N0200001N1+03171+02311101001ADDAA124001391GA1031+005409029GF103991031011004501001001MA1999999099981MD1999999-0061REMSYN082AAXX  16064 43421 32498 32901 10317 20231 39998 40100 83100 333 59006 70012 83818;
0176434210999992000031609004+08330+080420FM-12+0089VCCA V0202901N000512200019N0200001N1+03321+02131100691ADDAA124001391GA1011+005409029GF101991011011004501001011MA1999999099671MD1999999-0071REMSYN082AAXX  16094 43421 32498 12901 10332 20213 39967 40069 81101 333 59007 70012 81818;
0207434210999992000031612004+08330+080420FM-12+0089VCCA V0209999C00001045001CN0200001N1+03281+02261100651ADDAA124001391GA1011+005409089GF107991011011004501031001KA1120M+03421MA1999999099631MD1999999-0131REMSYN100AAXX  16124 43421 32498 70000 10328 20226 39963 40065 81130 333 01023 10342 59013 70012 81818 86360;
0177434210999992000031700004+08330+080420FM-12+0089VCCA V0209999C000012200019N0100001N1+02401+02341100761ADDAA199000091GA1001+999999999GF100991001001999999001001MA1999999099741MD1999999-0111REMSYN064AAXX  17004 43421 32997 00000 10240 20234 39974 40076 333 59011;EQDQ01  00002PRCP99
0189434210999992000031709004+08330+080420FM-12+0089VCCA V0200501N000512200019N0200001N1+03441+01971100631ADDAA199000091GA1021+005409029GF102991021011004501001001MA1999999099611MD1999999-0061REMSYN076AAXX  17094 43421 32498 20501 10344 20197 39961 40063 82100 333 59006 82818;EQDQ01  00002PRCP99
0214434210999992000031712004+08330+080420FM-12+0089VCCA V0200501N001012200019N0200001N1+03241+01901100591ADDAA199000091GA1011+090009019GF101991001001999999001011KA1120M+03521MA1999999099571MD1999999-0061REMSYN088AAXX  17124 43421 32998 10502 10324 20190 39957 40059 80001 333 00022 10352 59006 81080;EQDQ01  00002PRCP99
0189434210999992000031718004+08330+080420FM-12+0089VCCA V0209999C000012200019N0100001N1+02361+02211100901ADDAA199000091GA1011+090009019GF101991001001999999001011MA1999999099881MD1999999+0021REMSYN076AAXX  17184 43421 32997 10000 10236 20221 39988 40090 80001 333 58002 81080;EQDQ01  00002PRCP99
0163434210999992000031809004+08330+080420FM-12+0089VCCA V02099999999999999999N0200001N1+03391+01941999999ADDAA199000091GA1011+005409089MA1999999099671MD1999999+0061REMSYN076AAXX  18094 43421 32498 //502 10339 20194 39967 81101 333 58006 81818 83080;EQDQ01  00002PRCP99
0189434210999992000031909004+08330+080420FM-12+0089VCCA V0200501N001012200019N0200001N1+03391+02071100811ADDAA199000091GA1011+005409029GF101991011011004501001011MA1999999099791MD1999999+0121REMSYN076AAXX  19094 43421 32498 10502 10339 20207 39979 40081 81101 333 58012 81818;EQDQ01  00002PRCP99
0214434210999992000031912004+08330+080420FM-12+0089VCCA V0209999C000012200019N0200001N1+03241+02171100731ADDAA199000091GA1011+005409029GF101991011011004501001011KA1120M+03471MA1999999099711MD1999999+0031REMSYN088AAXX  19124 43421 32498 10000 10324 20217 39971 40073 81101 333 00019 10347 58003 81818;EQDQ01  00002PRCP99
0159434210999992000032009004+08330+080420FM-12+0089VCCA V0209999C000012200019N0100001N1+03471+02791100661ADDAA199000091GA1001+999999999GF100991001001999999001001MA1999999099641REMSYN060AAXX  20094 43421 32997 00000 10347 20279 39964 40066 59015;EQDQ01  00002PRCP99
0189434210999992000032106004+08330+080420FM-12+0089VCCA V0200501N000512200019N0200001N1+03021+02061101071ADDAA199000091GA1031+090009019GF103991001001999999001011MA1999999100051MD1999999+0171REMSYN076AAXX  21064 43421 32998 30501 10302 20206 30005 40107 80001 333 58017 83080;EQDQ01  00002PRCP99
0175434210999992000032118004+08330+080420FM-12+0089VCCA V0209999C000012200019N0100001N1+02421+02171100971ADDAA199000091GA1011+090009019GF101991001001999999001021MA1999999099951REMSYN076AAXX  21184 43421 32997 10000 10242 20217 39995 40097 80002 333 59802 81080;EQDQ01  00002PRCP99
0182434210999992000040606004+08330+080420FM-12+0089VCCA V0203201N00051220001CN0200001N1+03191+02191100891ADDAA124018391GA1041+005409089GF106991041021004501001011MA1999999099871MD1999999+0001REMSYN088AAXX  06064 43421 32498 63201 10319 20219 39987 40089 84201 333 58000 70182 84818 83088;
0182434210999992000040800004+08330+080420FM-12+0089VCCA V0209999C00001220001CN0200001N1+02391+02301101021ADDAA124000791GA1031+005409089GF105991031011004501001061MA1999999100001MD1999999+2011REMSYN088AAXX  08004 43421 32498 50000 10239 20230 30000 40102 83106 333 58201 79999 83818 83280;
0195434210999992000041100004+08330+080420FM-12+0089VCCA V0209999C00001105001CN0100001N1+02541+02451100701ADDAA199000091GA1031+005409089GF105991031011004501001071MA1999999099681MD1999999-0051REMSYN082AAXX  11004 43421 32497 50000 10254 20245 39968 40070 83107 333 59005 83818 84080;EQDQ01  00002PRCP99
0220434210999992000041112004+08330+080420FM-12+0089VCCA V0202801N00101045001CN0200001N1+03171+02401100581ADDAA199000091GA1031+005409089GF106991031011004501031061KA1120M+03521MA1999999099561MD1999999+0031REMSYN094AAXX  11124 43421 32498 62802 10317 20240 39956 40058 83136 333 00025 10352 58003 83818 86280;EQDQ01  00002PRCP99
0189434210999992000041200004+08330+080420FM-12+0089VCCA V0201801N000510900019N0200001N1+02531+02411108732ADDAA199000091GA1051+090009089GF105991001001999999001061MA1999999099711MD1999999+0031REMSYN076AAXX  12004 43421 32998 51801 10253 20241 39971 40873 80006 333 58003 85280;EQDQ01  00002PRCP99
0163434210999992000041218004+08330+080420FM-12+0089VCCA V02099999999992200019N0200001N1+02621+02511108831ADDAA199000091GA1001+999999999GF100991001001999999001001MA1999999099811REMSYN064AAXX  12184 43421 32998 0230/ 10262 20251 39981 40883 333 59///;EQDQ01  00002PRCP99
0205434210999992000041406004+08330+080420FM-12+0089VCCA V0202701N042722200019N0200001N1+03291+02391100661ADDAA199000091GA1041+005409029GF104991041011004501001001MA1999999099641MD1999999-0161REMSYN076AAXX  14064 43421 32498 42783 10329 20239 39964 40066 84100 333 59016 84818;EQDQ01+004273WOSPD Q02  00002PRCP99
0161434210999992000041600004+08330+080420FM-12+0089VCCA V0209999C000019999999N0200001N1+02251+99999100701ADDAA199000091GF108991999999999999999999MA1999999099691MD1999999+0081REMSYN064AAXX  16004 43421 32998 80000 10225 20244 39969 40070 333 58008;EQDQ01  00002PRCP99
0175434210999992000041806004+08330+080420FM-12+0089VCCA V0202301N000510054019N0200001N1+03291+02231100921ADDAA199000091GA1051+005409029GF105991051021004501001001MA1999999099201REMSYN076AAXX  18064 43421 32498 52301 10329 20223 39920 40092 85200 333 58806 85818;EQDQ01  00002PRCP99
0201434210999992000042018004+08330+080420FM-12+0089VCCA V0209999C00001004201CN0100001N1+02711+02481100881ADDAA199000091GA1041+005409089GF106991051091004501001061MA1999999099861MD1999999-0061REMSYN088AAXX  20184 43421 32497 60000 10271 20248 39986 40088 85906 333 59006 84818 80925 85280;EQDQ01  00002PRCP99
0195434210999992000042318004+08330+080420FM-12+0089VCCA V0202301N00151045001CN0100001N1+02661+02461100781ADDAA199000091GA1031+005409089GF105991031011004501011999MA1999999099761MD1999999-0061REMSYN082AAXX  23184 43421 32497 52303 10266 20246 39976 40078 8311/ 333 59006 83818 83080;EQDQ01  00002PRCP99
0195434210999992000042606004+08330+080420FM-12+0089VCCA V0201801N002619999999N0200001N1+03161+02221100721ADDAA199000091GA1041+030009039GF106991041001999999031011MA1999999099701MD1999999+0041REMSYN082AAXX  26064 43421 32998 61805 10316 20222 39970 40072 84031 333 58004 84360 84080;EQDQ01  00002PRCP99
0156434210999992000042618004+08330+080420FM-12+0089VCCA V0202301N001512200019N0200001N1+02641+99999100711ADDAA199000091GA1001+999999999GF100991001001999999001001MD1999999+0031REMSYN058AAXX  26184 43421 32998 02303 10264 28443 40071 333 58003;EQDQ01  00002PRCP99
0177434210999992000042700004+08330+080420FM-12+0089VCCA V0202301N000512200019N0100001N1+02601+02461100601ADDAA199000091GA1001+999999999GF100991001001999999001001MA1999999099581MD1999999+0051REMSYN064AAXX  27004 43421 32997 02301 10260 20246 39958 40060 333 58005;EQDQ01  00002PRCP99
0189434210999992000042718004+08330+080420FM-12+0089VCCA V0202301N002112200019N0100001N1+02661+02471100701ADDAA199000091GA1011+005409029GF101991011001004501001001MA1999999099681MD1999999-0011REMSYN076AAXX  27184 43421 32497 12304 10266 20247 39968 40070 81000 333 59001 81818;EQDQ01  00002PRCP99
0220434210999992000043012004+08330+080420FM-12+0089VCCA V0202701N000512200019N0200001N1+03141+02311100631ADDAA199000091GA1011+005409089GF103991011011004501001061KA1120M+03521MA1999999099611MD1999999+0031REMSYN094AAXX  30124 43421 32498 32701 10314 20231 39961 40063 81106 333 00026 10352 58003 81818 83080;EQDQ01  00002PRCP99
0189434210999992000050100004+08330+080420FM-12+0089VCCA V0202301N000512200019N0100001N1+02641+02531100791ADDAA199000091GA1041+090009089GF104991001001999999001061MA1999999099771MD1999999+0031REMSYN076AAXX  01004 43421 32997 42301 10264 20253 39977 40079 80006 333 58003 84280;EQDQ01  00002PRCP99
0233434210999992000050918004+08330+080420FM-12+0089VCCA V0201801N000510900019N0200001N1+02761+02471100861ADDAA199000091AY191061AY221061GA1061+090009089GF106991001001999999001061MA1999999099841MD1999999-0031MW1021REMSYN082AAXX  09184 43421 31498 61801 10276 20247 39984 40086 70292 80006 333 59003 86280;EQDQ01+004502SCOLCBQ02  00002PRCP99
0189434210999992000051018004+08330+080420FM-12+0089VCCA V0202301N002119999999N0100001N1+02741+02481100871ADDAA199000091GA1041+090009019GF105991001001999999001061MA1999999099851MD1999999+0011REMSYN076AAXX  10184 43421 32997 52304 10274 20248 39985 40087 80006 333 58001 84080;EQDQ01  00002PRCP99
0189434210999992000051218004+08330+080420FM-12+0089VCCA V0202301N002112200019N0200001N1+02741+02511100841ADDAA199000091GA1021+002409029GF102991021011004501001001MA1999999099821MD1999999+0011REMSYN076AAXX  12184 43421 32498 22304 10274 20251 39982 40084 82100 333 58001 82808;EQDQ01  00002PRCP99
0189434210999992000051418004+08330+080420FM-12+0089VCCA V0200301N002112200019N0049001N1+02741+02481100811ADDAA199000091GA1011+005409029GF101991011011001501001001MA1999999099891MD1999999-0041REMSYN076AAXX  14184 43421 32249 10304 10274 20248 39989 40081 81100 333 59004 81818;EQDQ01  00002PRCP99
0195434210999992000051600004+08330+080420FM-12+0089VCCA V0202301N00211220001CN0100001N1+02651+02451100811ADDAA199000091GA1011+005409089GF105991011011004501001061MA1999999099791MD1999999+0061REMSYN082AAXX  16004 43421 32497 52304 10265 20245 39979 40081 81106 333 58006 81818 84080;EQDQ01  00002PRCP99
0195434210999992000051606004+08330+080420FM-12+0089VCCA V0202301N00261220001CN0200001N1+03211+02211100881ADDAA199000091GA1031+005409089GF105991031011004501001011MA1999999099861MD1999999+0061REMSYN082AAXX  16064 43421 32498 52305 10321 20221 39986 40088 83101 333 58006 83818 85080;EQDQ01  00002PRCP99
0189434210999992000051818004+08330+080420FM-12+0089VCCA V0202301N001012200019N0200001N1+02711+02431100831ADDAA199000091GA1011+090009019GF101991001001999999001011MA1999999099811MD1999999-0101REMSYN076AAXX  18184 43421 32998 12302 10271 20243 39981 40083 80001 333 59010 81080;EQDQ01  00002PRCP99
0189434210999992000051900004+08330+080420FM-12+0089VCCA V0202301N001010900019N0200001N1+02621+02471100711ADDAA199000091GA1051+090009019GF105991001001999999001011MA1999999099691MD1999999-0021REMSYN076AAXX  19004 43421 32998 52302 10262 20247 39969 40071 80001 333 59002 85080;EQDQ01  00002PRCP99
0220434210999992000051912004+08330+080420FM-12+0089VCCA V0202301N00361105001CN0200001N1+03011+02211100621ADDAA199000091GA1021+084009089GF107991021071004501001061KA1120M+03441MA1999999099601MD1999999+0031REMSYN094AAXX  19124 43421 32498 72307 10301 20221 39960 40062 82706 333 00026 10344 58003 82878 86080;EQDQ01  00002PRCP99
0214434210999992000052012004+08330+080420FM-12+0089VCCA V0202301N001512200019N0200001N1+03131+02311100571ADDAA199000091GA1031+005409029GF103991031011004501001001KA1120M+03621MA1999999099551MD1999999-0051REMSYN088AAXX  20124 43421 32498 32303 10313 20231 39955 40057 83100 333 00025 10362 59005 83818;EQDQ01  00002PRCP99
0205434210999992000052106004+08330+080420FM-12+0089VCCA V0202301N001512200019N0200001N1+03391+02271100681ADDAA199000091GA1031+005409029GF199999021011004501001001MA1999999099661MD1999999-0881REMSYN076AAXX  21064 43421 32498 22303 10339 20227 39966 40068 82100 333 59088 83818;EQDQ01+000022SCOTCVQ02  00002PRCP99
0189434210999992000052318004+08330+080420FM-12+0089VCCA V0202301N001512200019N0200001N1+02721+02451100781ADDAA199000091GA1011+090009019GF101991001001999999001051MA1999999099761MD1999999+0041REMSYN076AAXX  23184 43421 32998 12303 10272 20245 39976 40078 80005 333 58004 81080;EQDQ01  00002PRCP99
0177434210999992000052400004+08330+080420FM-12+0089VCCA V0202301N001012200019N0200001N1+02661+02411100631ADDAA199000091GA1001+999999999GF100991001001999999001001MA1999999099611MD1999999+0061REMSYN064AAXX  24004 43421 32998 02302 10266 20241 39961 40063 333 58006;EQDQ01  00002PRCP99
0205434210999992000052806004+08330+080420FM-12+0089VCCA V0202301N003612200019N0200001N1+03261+02211100791ADDAA199000091GA1021+084009029GF102991021011004501081999MA1999999099771MD1999999+0041REMSYN076AAXX  28064 43421 32498 22307 10326 20221 39977 40079 82180 333 58004 82878;EQDQ01+000002SCOHCGQ02  00002PRCP99
0220434210999992000052812004+08330+080420FM-12+0089VCCA V0202301N00211009001CN0200001N1+03151+02041100591ADDAA199000091GA1011+005409089GF107991071081004501001001KA1120M+03481MA1999999099571MD1999999-0051REMSYN094AAXX  28124 43421 32498 72304 10315 20204 39957 40059 87800 333 00024 10348 59005 81818 86625;EQDQ01  00002PRCP99
0177434210999992000052818004+08330+080420FM-12+0089VCCA V0202301N001512200019N0200001N1+02651+02171100831ADDAA199000091GA1001+999999999GF100991001001999999001001MA1999999099811MD1999999-0021REMSYN064AAXX  28184 43421 32998 02303 10265 20217 39981 40083 333 59002;EQDQ01  00002PRCP99
0189434210999992000052906004+08330+080420FM-12+0089VCCA V02099999999992200019N0200001N1+03281+99999100871ADDAA199000091GA1021+005409029GF102991021011004501031011MA1999999099851MD1999999+0081REMSYN076AAXX  29064 43421 32498 2/306 10328 20/25 39985 40087 82131 333 58008 82818;EQDQ01  00002PRCP99
0167434210999992000052918004+08330+080420FM-12+0089VCCA V0202301N001012200019N0200001N1+02711+02331100861ADDAA199000091GF102991001001999999001011MA1999999099841MD1999999+0031REMSYN070AAXX  29184 43421 32998 22302 10271 20233 39984 40086 80001 333 58003;EQDQ01  00002PRCP99
0257434210999992000053112004+08330+080420FM-12+0089VCCA V0202301N001010300019N0200001N1+02711+02361100561ADDAA124037691AY181061AY221061GA1021+004209079GA2051+030009039GF108991021071004501071061KA1120M+02801MA1999999099541MD1999999-0071MW1021REMSYN112AAXX  31124 43421 31498 82302 10271 20236 39954 40056 70282 82776 333 02022 10280 59007 70377 82714 85360 87288;
0195434210999992000060218004+08330+080420FM-12+0089VCCA V0202301N00151220001CN0200001N1+02641+02381100601ADDAA199000091GA1021+005409089GF106991021011004501001061MA1999999099581MD1999999-0061REMSYN082AAXX  02184 43421 32498 62303 10264 20238 39958 40060 82106 333 59006 82818 84280;EQDQ01  00002PRCP99
0220434210999992000060312004+08330+080420FM-12+0089VCCA V0202301N00261105001CN0200001N1+02941+02271100291ADDAA199000091GA1031+005409089GF108991031011004501001061KA1120M+03341MA1999999099271MD1999999-0111REMSYN094AAXX  03124 43421 32498 82305 10294 20227 39927 40029 83106 333 00025 10334 59011 83818 88280;EQDQ01  00002PRCP99
0195434210999992000060518004+08330+080420FM-12+0089VCCA V0202301N003112200019N0200001N1+02671+02131100661ADDAA199000091GA1011+005409089GF104991011011004501001061MA1999999099441MD1999999+0091REMSYN082AAXX  05184 43421 32498 42306 10267 20213 39944 40066 81106 333 58009 81818 84280;EQDQ01  00002PRCP99
0242434210999992000060712004+08330+080420FM-12+0089VCCA V0202301N001510300019N0200001N1+02841+02291100651ADDAA199000091GA1041+005409089GA2041+030009049GF108991041011004501071061KA1120M+03031MA1999999099631MD1999999+0341REMSYN100AAXX  07124 43421 32498 82303 10284 20229 39963 40065 84176 333 00023 10303 58034 84818 84460 87280;EQDQ01  00002PRCP99
0181434210999992000061000004+08330+080420FM-12+0089VCCA V0202301N001012200019N0100001N1+02541+02271100841ADDAA199000091GA1021+005409089GF104991021011004501031001MA1999999099821REMSYN082AAXX  10004 43421 32497 42302 10254 20227 39982 40084 82130 333 59882 82818 83360;EQDQ01  00002PRCP99
0195434210999992000061200004+08330+080420FM-12+0089VCCA V0202301N00211009001CN0200001N1+02531+02271100871ADDAA199000091GA1021+005409089GF107991071081004501031999MA1999999099851MD1999999+0031REMSYN082AAXX  12004 43421 32498 72304 10253 20227 39985 40087 8783/ 333 58003 82818 86625;EQDQ01  00002PRCP99
0195434210999992000061406004+08330+080420FM-12+0089VCCA V0202301N00261045001CN0200001N1+03111+02271101001ADDAA199000091GA1031+005409089GF105991031011004501081999MA1999999099981MD1999999+0021REMSYN082AAXX  14064 43421 32498 52305 10311 20227 39998 40100 8318/ 333 58002 83818 83080;EQDQ01  00002PRCP99
0195434210999992000061600004+08330+080420FM-12+0089VCCA V0202301N00051220001CN0200001N1+02511+02311100751ADDAA199000091GA1021+005409089GF106991021011004501001061MA1999999099731MD1999999-0131REMSYN082AAXX  16004 43421 32498 62301 10251 20231 39973 40075 82106 333 59013 82818 86280;EQDQ01  00002PRCP99
0220434210999992000061612004+08330+080420FM-12+0089VCCA V0201801N001512200019N0200001N1+02971+02251100631ADDAA199000091GA1021+005409089GF104991021011004501001021KA1120M+03291MA1999999099611MD1999999-0081REMSYN094AAXX  16124 43421 32498 41803 10297 20225 39961 40063 82102 333 00024 10329 59008 82818 84080;EQDQ01  00002PRCP99
0224434210999992000061803004+08330+080420FM-12+0089VCCA V0202301N001510840019N0200001N1+02811+99999100781ADDAA199000091GA1061+084009029GF106991061011004501001999KA1120N+02581MA1999999099761MD1999999-0061REMSYN082AAXX  18034 43421 32498 62303 10281 28235 39976 40078 86100 333 20258 59006 86878;EQDQ01+000002SCOHCGQ02  00002PRCP99
0195434210999992000061806004+08330+080420FM-12+0089VCCA V0202301N00311220001CN0200001N1+03191+02121100691ADDAA199000091GA1041+005409089GF106991041011004501001011MA1999999099671MD1999999-0091REMSYN082AAXX  18064 43421 32498 62306 10319 20212 39967 40069 84101 333 59009 84818 83080;EQDQ01  00002PRCP99
0189434210999992000062018004+08330+080420FM-12+0089VCCA V0202301N002112200019N0200001N1+02621+02311100681ADDAA199000091GA1011+005409029GF101991011011004501001011MA1999999099661MD1999999+0021REMSYN076AAXX  20184 43421 32498 12304 10262 20231 39966 40068 81101 333 58002 81818;EQDQ01  00002PRCP99
0176434210999992000062206004+08330+080420FM-12+0089VCCA V0202301N002112200019N0200001N1+03301+02231100741ADDAA124000791GA1021+005409029GF103991021011004501031001MA1999999099721MD1999999+0041REMSYN082AAXX  22064 43421 32498 32304 10330 20223 39972 40074 82130 333 58004 79999 82818;
0214434210999992000062212004+08330+080420FM-12+0089VCCA V0202301N000510054019N0200001N1+03091+02231100591ADDAA199000091GA1061+005409029GF106991061021004501001001KA1120M+03451MA1999999099571MD1999999-0011REMSYN088AAXX  22124 43421 32498 62301 10309 20223 39957 40059 86200 333 00024 10345 59001 86818;EQDQ01  00002PRCP99
0189434210999992000062218004+08330+080420FM-12+0089VCCA V0201801N001012200019N0200001N1+02681+02361100811ADDAA199000091GA1041+005409029GF104991041011004501001001MA1999999099791MD1999999+0111REMSYN076AAXX  22184 43421 32498 41802 10268 20236 39979 40081 84100 333 58011 84818;EQDQ01  00002PRCP99
0189434210999992000062306004+08330+080420FM-12+0089VCCA V0202301N001012200019N0200001N1+03261+02311100761ADDAA199000091GA1041+005409029GF104991041011004501001001MA1999999099741MD1999999+0021REMSYN076AAXX  23064 43421 32498 42302 10326 20231 39974 40076 84100 333 58002 84818;EQDQ01  00002PRCP99
0246434210999992000062518004+08330+080420FM-12+0089VCCA V0202301N00151045001CN0100001N1+02641+02371100831ADDAA103000791AA215999999AY191061AY281061GA1031+005409089GF107991031011004501071011MA1999999099811MD1999999+0131MW1021REMSYN100AAXX  25184 43421 21497 72303 10264 20237 39981 40083 70298 83171 333 58013 69907 70004 83818 86460;EQDQ01  99992PRCP15
0177434210999992000063018004+08330+080420FM-12+0089VCCA V0202301N004112200019N0100001N1+02601+02181100721ADDAA199000091GA1001+999999999GF100991001001999999001001MA1999999099701MD1999999+0081REMSYN064AAXX  30184 43421 32997 02308 10260 20218 39970 40072 333 58008;EQDQ01  00002PRCP99
0189434210999992000070100004+08330+080420FM-12+0089VCCA V0202701N002610054019N0100001N1+02561+02261100641ADDAA199000091GA1051+005409029GF105991051011004501001011MA1999999099621MD1999999+0091REMSYN076AAXX  01004 43421 32497 52705 10256 20226 39962 40064 85101 333 58009 85818;EQDQ01  00002PRCP99
0220434210999992000070112004+08330+080420FM-12+0089VCCA V0202301N00361220001CN0200001N1+02941+02031100531ADDAA199000091GA1021+005409089GF106991021011004501001061KA1120M+03281MA1999999099511MD1999999+0041REMSYN094AAXX  01124 43421 32498 62307 10294 20203 39951 40053 82106 333 00026 10328 58004 82818 86280;EQDQ01  00002PRCP99
0169434210999992000070218004+08330+080420FM-12+0089VCCA V0202301N003610900019N0200001N1+02581+02221108631ADDAA199000091GA1051+090009089GF105991999999999999999999MA1999999099611REMSYN070AAXX  02184 43421 32998 52307 10258 20222 39961 40863 333 59812 85280;EQDQ01  00002PRCP99
0220434210999992000070312004+08330+080420FM-12+0089VCCA V0202301N00261045001CN0200001N1+02941+02231100371ADDAA199000091GA1031+005409089GF108991031011004501081071KA1120M+03421MA1999999099351MD1999999-0101REMSYN094AAXX  03124 43421 32498 82305 10294 20223 39935 40037 83187 333 00025 10342 59010 83818 88280;EQDQ01  00002PRCP99
0189434210999992000070506004+08330+080420FM-12+0089VCCA V0202301N002610054019N0200001N1+03341+02201100461ADDAA199000091GA1051+005409029GF105991051071004501081001MA1999999099441MD1999999-0021REMSYN076AAXX  05064 43421 32498 52305 10334 20220 39944 40046 85780 333 59002 85818;EQDQ01  00002PRCP99
0200434210999992000070512004+08330+080420FM-12+0089VCCA V0202701N001512200019N0200001N1+03061+02111100341ADDAA199000091GA1031+005409029GF103991031011004501001001KA1120M+03491MA1999999099321REMSYN088AAXX  05124 43421 32498 32703 10306 20211 39932 40034 83100 333 00225 10349 25902 83818;EQDQ01  00002PRCP99
0195434210999992000070706004+08330+080420FM-12+0089VCCA V0202701N001512200019N0200001N1+03291+02051100481ADDAA199000091GA1011+005409089GF104991011011004501001021MA1999999099461MD1999999-0071REMSYN082AAXX  07064 43421 32498 42703 10329 20205 39946 40048 81102 333 59007 81818 84080;EQDQ01  00002PRCP99
0195434210999992000071100004+08330+080420FM-12+0089VCCA V0202301N002111050019N0100001N1+02591+99999100541ADDAA199000091GA1041+005409089GF108991041011004501001061MA1999999099521MD1999999-0131REMSYN082AAXX  11004 43421 32497 82304 10259 20/19 39952 40054 84106 333 59013 84818 8/280;EQDQ01  00002PRCP99
0195434210999992000071118004+08330+080420FM-12+0089VCCA V0202701N00211045001CN0100001N1+02691+02211100731ADDAA199000091GA1031+005409089GF106991031011004501031061MA1999999099711MD1999999-0011REMSYN082AAXX  11184 43421 32497 62704 10269 20221 39971 40073 83136 333 59001 83818 84280;EQDQ01  00002PRCP99
0195434210999992000071200004+08330+080420FM-12+0089VCCA V0202301N002112200019N0100001N1+02631+02271100601ADDAA199000091GA1011+005409089GF103991011011004501001061MA1999999099581MD1999999+0061REMSYN082AAXX  12004 43421 32497 32304 10263 20227 39958 40060 81106 333 58006 81818 83280;EQDQ01  00002PRCP99
0194434210999992000071506004+08330+080420FM-12+0089VCCA V0202301N043222200019N0200001N1+99999+99999100731ADDAA199000091GA1081+005409029GF199999011001004501001001MD1999999+0001REMSYN064AAXX  15064 43421 32498 22384 20228 40073 81000 333 59000 88818;EQDQ01+004323WOSPD Q02+000022SCOTCVQ03  00002PRCP99
0175434210999992000072800004+08330+080420FM-12+0089VCCA V0202301N001012200019N0200001N1+02531+02261100661ADDAA199000091GA1021+005409029GF102991021011004501001001MA1999999099641REMSYN076AAXX  28004 43421 32498 22302 10253 20226 39964 40066 82100 333 5988/ 82818;EQDQ01  00002PRCP99
0176434210999992000080100004+08330+080420FM-12+0089VCCA V0202301N001010900019N0200001N1+02491+02291100651ADDAA124000591GA1051+090009019GF105991001001999999001011MA1999999099631MD1999999-0041REMSYN082AAXX  01004 43421 32998 52302 10249 20229 39963 40065 80001 333 59004 70005 85080;
0274434210999992000080212004+08330+080420FM-12+0089VCCA V0209999C000010060019N0100001N1+02391+02131100611ADDAA101000191AA209000191AY191061AY221061GA1041+005409089GA2031+006009099GF108991061091004501021999KA1120M+03511MA1999999099591MD1999999+0121MW1951REMSYN118AAXX  02124 43421 21497 80000 10239 20213 39959 40061 79592 8692/ 333 01026 10351 58012 69915 70001 84818 83920 85460;
0182434210999992000080718004+08330+080420FM-12+0089VCCA V0202301N00261105001CN0200001N1+02601+02331100911ADDAA124000791GA1011+005409089GF107991011011004501001061MA1999999099891MD1999999+0051REMSYN088AAXX  07184 43421 32498 72305 10260 20233 39989 40091 81106 333 58005 79999 81818 86280;
0189434210999992000081106004+08330+080420FM-12+0089VCCA V0202301N002112200019N0200001N1+03291+02091100621ADDAA199000091GA1031+005409029GF103991031011004501001011MA1999999099601MD1999999-0021REMSYN076AAXX  11064 43421 32498 32304 10329 20209 39960 40062 83101 333 59002 83818;EQDQ01  00002PRCP99
0164434210999992000081300004+08330+080420FM-12+0089VCCA V0209999C000012200019N0100001N1+02301+02091100861ADDAA124004391GA1001+999999999GF100991001001999999001001MA1999999099841MD1999999+0171REMSYN070AAXX  13004 43421 32997 00000 10230 20209 39984 40086 333 58017 70044;
0182434210999992000081318004+08330+080420FM-12+0089VCCA V0202301N00051105001CN0200001N1+02321+02151100121ADDAA124001891GA1041+005409089GF108991041011004501001061MA1999999100111MD1999999+0181REMSYN088AAXX  13184 43421 32498 82301 10232 20215 30011 40012 84106 333 58018 70018 84818 87280;
0201434210999992000081406004+08330+080420FM-12+0089VCCA V0202001N001012200019N0200001N1+03111+02231101011ADDAA124001891GA1021+005409089GF104991021999004501031011MA1999999099991MD1999999+0051REMSYN088AAXX  14064 43421 32498 42002 10311 20223 39999 40101 82031 333 58005 70018 82818 84360;EQDQ01+000002SCOLCG
0274434210999992000081412004+08330+080420FM-12+0089VCCA V0202501N00151006001CN0200001N1+02531+02201100821ADDAA103000791AA209999929AY191061AY221061GA1041+005409089GA2011+006009099GF108991041091004501071999KA1120M+03361MA1999999099801MD1999999+0101MW1801REMSYN118AAXX  14124 43421 21498 82503 10253 20220 39980 40082 78092 8497/ 333 00023 10336 58010 69907 70018 84818 81920 88458;
0176434210999992000081500004+08330+080420FM-12+0089VCCA V0202301N001010300019N0200001N1+02271+02181100941ADDAA124000391GA1071+030009019GF107991071001999999071999MA1999999099921MD1999999+0051REMSYN082AAXX  15004 43421 32998 72302 10227 20218 39992 40094 8707/ 333 58005 70002 87460;
0182434210999992000081506004+08330+080420FM-12+0089VCCA V0202301N00311045001CN0200001N1+03071+02211101001ADDAA124000391GA1031+005409089GF106991031011004501031011MA1999999099981MD1999999-0011REMSYN088AAXX  15064 43421 32498 62306 10307 20221 39998 40100 83131 333 59001 70002 83818 83360;
0182434210999992000081600004+08330+080420FM-12+0089VCCA V0202701N00101220001CN0200001N1+02401+02311100971ADDAA124000791GA1011+005409089GF105991011011004501001011MA1999999099951MD1999999+0031REMSYN088AAXX  16004 43421 32498 52702 10240 20231 39995 40097 81101 333 58003 79999 81818 85080;
0217434210999992000081706004+08330+080420FM-12+0089VCCA V0202301N00151220001CN0200001N1+03121+02071100911ADDAA199000091GA1031+005409089GA2011+006009099GF106991041031004501001011MA1999999099891MD1999999-0111REMSYN088AAXX  17064 43421 32498 62303 10312 20207 39989 40091 84301 333 59011 83818 81920 83080;EQDQ01  00002PRCP99
0189434210999992000081800004+08330+080420FM-12+0089VCCA V0202301N000510054019N0200001N1+02441+02321100751ADDAA199000091GA1071+005409029GF107991071011004501999999MA1999999099731MD1999999-0131REMSYN076AAXX  18004 43421 32498 72301 10244 20232 39973 40075 871// 333 59013 87818;EQDQ01  00002PRCP99
0195434210999992000081900004+08330+080420FM-12+0089VCCA V0202501N00101045001CN0200001N1+02571+02291100841ADDAA199000091GA1041+005409089GF107991041011004501071999MA1999999099821MD1999999+0091REMSYN082AAXX  19004 43421 32498 72502 10257 20229 39982 40084 8417/ 333 58009 84818 86460;EQDQ01  00002PRCP99
0220434210999992000081912004+08330+080420FM-12+0089VCCA V0202301N00311045001CN0200001N1+02781+99999100751ADDAA199000091GA1021+005409089GF107991021011004501071999KA1120M+03091MA1999999099731MD1999999+0031REMSYN094AAXX  19124 43421 32498 72306 10278 20285 39973 40075 8217/ 333 00026 10309 58003 82818 86460;EQDQ01  00002PRCP99
0189434210999992000082000004+08330+080420FM-12+0089VCCA V0202301N002110054019N0100001N1+02601+02261100841ADDAA199000091GA1071+005409029GF107991071011004501999999MA1999999099821MD1999999+0001REMSYN076AAXX  20004 43421 32497 72304 10260 20226 39982 40084 871// 333 58000 87818;EQDQ01  00002PRCP99
0190434210999992000082012004+08330+080420FM-12+0089VCCA V0202301N002610300019N0200001N1+99999+99999100711ADDAA124031891GA1031+002409089GA2051+030009039GF107991031011004501031061MA1999999099691REMSYN094AAXX  20124 43421 32498 72305 18288 20208 39969 40071 83136 333 08025 70317 83808 85360 86280;
0175434210999992000082018004+08330+080420FM-12+0089VCCA V0202301N001510054019N0100001N1+02661+02271100871ADDAA199000091GA1051+005409029GF106991051011004501001061MA1999999099851REMSYN076AAXX  20184 43421 32497 62303 10266 20227 39985 40087 85106 333 59813 85818;EQDQ01  00002PRCP99
0176434210999992000082500004+08330+080420FM-12+0089VCCA V0202301N002110051019N0200001N1+02461+02311100611ADDAA124009191GA1071+005109029GF108991071011004501999999MA1999999099591MD1999999+0091REMSYN082AAXX  25004 43421 32498 82304 10246 20231 39959 40061 871// 333 58009 70091 87817;
0207434210999992000082512004+08330+080420FM-12+0089VCCA V0202301N003110054019N0200001N1+02781+02091100541ADDAA124000591GA1051+005409089GF107991051011004501021999KA1120M+03061MA1999999099521MD1999999+0081REMSYN100AAXX  25124 43421 32498 72306 10278 20209 39952 40054 8512/ 333 00025 10306 58008 70004 85818 85460;
0227434210999992000082518004+08330+080420FM-12+0089VCCA V0202501N002610054019N0100001N1+02481+02241100851ADDAA103000891AA215000891AY181061AY221061GA1061+005409089GF108991061011004501021021MA1999999099831MD1999999+0131MW1021REMSYN100AAXX  25184 43421 21497 82505 10248 20224 39983 40085 70282 86122 333 58013 69987 72999 86818 88460;
0188434210999992000082612004+08330+080420FM-12+0089VCCA V0202701N001510054019N0200001N1+02741+02141100771ADDAA124000791GA1051+005409029GF107991051021004501021999MA1999999099751MD1999999+0231REMSYN094AAXX  26124 43421 32498 72703 10274 20214 39975 40077 8522/ 333 00024 10/96 58023 79999 85818;
0230434210999992000082712004+08330+080420FM-12+0089VCCA V0202301N003619999999N0200001N1+02811+02151100781ADDAA199000091GA1011+005409089GF107991011999004501001021KA1120M+03221MA1999999099761MD1999999+0011REMSYN088AAXX  27124 43421 32498 72307 10281 20215 39976 40078 81002 333 10322 58001 81818 87080;EQDQ01+000002SCOLCGQ02  00002PRCP99
0195434210999992000082800004+08330+080420FM-12+0089VCCA V0202301N00151220001CN0200001N1+02461+02231100841ADDAA199000091GA1031+005409089GF106991031011004501001011MA1999999099821MD1999999+0021REMSYN082AAXX  28004 43421 32498 62303 10246 20223 39982 40084 83101 333 58002 83818 86080;EQDQ01  00002PRCP99
0204434210999992000082806004+08330+080420FM-12+0089VCCA V0202301N00361105001CN0200001N1+03761+02031999999ADDAA199000091GA1011+002409089GF105991011011004501031011MA1999999099891MD1999999-0021ME1210919REMSYN082AAXX  28064 43421 32498 52307 10376 20203 39989 42091 81131 333 59002 81808 85080;EQDQ01  00002PRCP99
0243434210999992000082900004+08330+080420FM-12+0089VCCA V0202301N001512200019N0200001N1+02501+02321100861ADDAA199000091GA1021+005409089GF199999999999999999001001MA1999999099841MD1999999+0021REMSYN082AAXX  29004 43421 32498 02303 10250 20232 39984 40086 83802 333 58002 82818 85080;EQDQ01+000002SCOTCVQ02+000002SCOTLCQ03+000002SCOLCGQ04  00002PRCP99
0189434210999992000083006004+08330+080420FM-12+0089VCCA V0202301N003110054019N0200001N1+03141+02131100911ADDAA199000091GA1051+005409029GF105991051011004501001011MA1999999099891MD1999999+0011REMSYN076AAXX  30064 43421 32498 52306 10314 20213 39989 40091 85101 333 58001 85818;EQDQ01  00002PRCP99
0189434210999992000090200004+08330+080420FM-12+0089VCCA V0201801N000512200019N0200001N1+02461+02311100781ADDAA199000091GA1021+090009019GF102991001001999999001011MA1999999099761MD1999999-0061REMSYN076AAXX  02004 43421 32998 21801 10246 20231 39976 40078 80001 333 59006 82080;EQDQ01  00002PRCP99
0195434210999992000090206004+08330+080420FM-12+0089VCCA V0201401N001012200019N0200001N1+02701+02131100771ADDAA199000091GA1011+005409089GF103991011011004501001021MA1999999092972MD1999999-0131REMSYN082AAXX  02064 43421 32498 31402 10270 20213 39297 40077 81102 333 59013 81818 83028;EQDQ01  00002PRCP99
0214434210999992000090312004+08330+080420FM-12+0089VCCA V0202301N002112200019N0200001N1+02951+02131100711ADDAA199000091GA1031+090009019GF104991001001999999001061KA1120M+03401MA1999999099691MD1999999+0131REMSYN088AAXX  03124 43421 32998 42304 10295 20213 39969 40071 80006 333 00025 10340 58013 83080;EQDQ01  00002PRCP99
0189434210999992000090318004+08330+080420FM-12+0089VCCA V0202301N002110900019N0100001N1+02581+02251100911ADDAA199000091GA1051+090009089GF106991001001999999001061MA1999999099891MD1999999+0041REMSYN076AAXX  03184 43421 32997 62304 10258 20225 39989 40091 80006 333 58004 85280;EQDQ01  00002PRCP99
0189434210999992000090400004+08330+080420FM-12+0089VCCA V0202301N001512200019N0100001N1+02491+02271100831ADDAA199000091GA1031+090009089GF104991001001999999001061MA1999999099811MD1999999+0101REMSYN076AAXX  04004 43421 32997 42303 10249 20227 39981 40083 80006 333 58010 83280;EQDQ01  00002PRCP99
0189434210999992000090806004+08330+080420FM-12+0089VCCA V0202301N001512200019N0200001N1+03301+02121100941ADDAA199000091GA1041+005409029GF104991041011004501001001MA1999999099921MD1999999+0061REMSYN076AAXX  08064 43421 32498 42303 10330 20212 39992 40094 84100 333 58006 84818;EQDQ01  00002PRCP99
0189434210999992000091000004+08330+080420FM-12+0089VCCA V0202301N001012200019N0200001N1+02461+02271101001ADDAA199000091GA1011+090009019GF101991001001999999001011MA1999999099981MD1999999+0011REMSYN076AAXX  10004 43421 32998 12302 10246 20227 39998 40100 80001 333 58001 81080;EQDQ01  00002PRCP99
0195434210999992000091218004+08330+080420FM-12+0089VCCA V0202301N00101105001CN0100001N1+02551+02291100881ADDAA199000091GA1011+005409089GF107991011011004501001061MA1999999099861MD1999999+0001REMSYN082AAXX  12184 43421 32497 72302 10255 20229 39986 40088 81106 333 58000 81818 86280;EQDQ01  00002PRCP99
0214434210999992000091312004+08330+080420FM-12+0089VCCA V0202301N002112200019N0200001N1+03111+02061100581ADDAA199000091GA1021+090009089GF103991001001999999001051KA1120M+03591MA1999999099561MD1999999+0011REMSYN088AAXX  13124 43421 32998 32304 10311 20206 39956 40058 80005 333 00024 10359 58001 82280;EQDQ01  00002PRCP99
0195434210999992000091406004+08330+080420FM-12+0089VCCA V0202701N00101105001CN0200001N1+03291+02231100831ADDAA199000091GA1041+005409089GF106991041021004501001021MA1999999099811MD1999999+0001REMSYN082AAXX  14064 43421 32498 62702 10329 20223 39981 40083 84202 333 58000 84818 83080;EQDQ01  00002PRCP99
0195434210999992000091806004+08330+080420FM-12+0089VCCA V0202301N00311045001CN0200001N1+03021+02361100841ADDAA199000091GA1031+005409089GF107991031011004501031011MA1999999099821MD1999999-0021REMSYN082AAXX  18064 43421 32498 72306 10302 20236 39982 40084 83131 333 59002 83818 83360;EQDQ01  00002PRCP99
0210434210999992000091918004+08330+080420FM-12+0089VCCA V0202001N00211045001CN0200001N1+02521+02401100821ADDAA124009791AY191061AY281061GA1011+005409089GF106991011011004501031021MA1999999099801MD1999999+0061MW1021REMSYN094AAXX  19184 43421 31498 62004 10252 20240 39980 40082 70298 81132 333 58006 70097 81818 85080;
0229434210999992000092012004+08330+080420FM-12+0089VCCA V0202001N002110054019N0200001N1+02741+02331100621ADDAA124000191GA1051+005409089GA2011+006009099GF108991061091004501021999KA1120M+03321MA1999999099601MD1999999+0041REMSYN106AAXX  20124 43421 32498 82004 10274 20233 39960 40062 8692/ 333 00024 10332 58004 70001 85818 81920 87460;
0218434210999992000092018004+08330+080420FM-12+0089VCCA V0201801N000510450019N0100001N1+02411+02351100871ADDAA103000091AA215000091GA1031+105009029GF108991031011004501021999MA1999999099851MD1999999+0851REMSYN094AAXX  20184 43421 21497 81801 10241 20235 39985 40087 8312/ 333 58085 60007 70019 83281 87460;EQDQ01  00002PRCP03
0176434210999992000092306004+08330+080420FM-12+0089VCCA V0209999C000012200019N0200001N1+03071+02311108911ADDAA124001391GA1041+005409029GF104991041021004501001001MA1999999099891MD1999999+0211REMSYN082AAXX  23064 43421 32498 40000 10307 20231 39989 40891 84200 333 58021 70013 84818;
0249434210999992000092418004+08330+080420FM-12+0089VCCA V0209999C000010054019N0100001N1+02301+02271100971ADDAA103003091AA215003091AY191061AY281061GA1051+005409089GA2011+006009099GF108991061091004501021999MA1999999099951MD1999999+0021MW1021REMSYN106AAXX  24184 43421 21497 80000 10230 20227 39995 40097 70298 8692/ 333 58002 60037 70649 85818 81920 88458;
0193434210999992000092506004+08330+080420FM-12+0089VCCA V0209999C00001220001CN0200001N1+03091+02431100901ADDAA103066091AA215066091GA1041+005409089GF105991041021004501001011MA1999999099881MD1999999-0011REMSYN088AAXX  25064 43421 32498 50000 10309 20243 39988 40090 84201 333 59001 60669 84818 83080;
0246434210999992000092512004+08330+080420FM-12+0089VCCA V0209999C000010051019N0100001N1+02631+02511100691ADDAA103001091AA209001091GA1061+005109089GA2021+005409099GF108991061091004501021999KA1120M+03301MA1999999099671MD1999999+0041REMSYN112AAXX  25124 43421 21497 80000 10263 20251 39967 40069 8692/ 333 00022 10330 58004 60017 70680 86817 82918 88458;
0293434210999992000092612004+08330+080420FM-12+0089VCCA V0202701N000510054019N0200001N1+02791+02431100801ADDAA103000791AA209999999AY181061AY221061GA1051+005409089GA2021+006009099GF108991061091004501021999KA1120M+03251MA1999999099781MD1999999+0111MW1031REMSYN118AAXX  26124 43421 21498 82701 10279 20243 39978 40080 70382 8692/ 333 01024 10325 58011 69907 70023 85818 82920 85460;EQDQ01  99992PRCP09
0227434210999992000092618004+08330+080420FM-12+0089VCCA V0209999C00001045001CN0100001N1+02501+02441100981ADDAA103001091AA215001091AY181061AY221061GA1041+005409089GF105991041011004501021999MA1999999099961MD1999999+0051MW1011REMSYN100AAXX  26184 43421 21497 50000 10250 20244 39996 40098 70182 8412/ 333 58005 60017 70017 84818 83460;
0176434210999992000092700004+08330+080420FM-12+0089VCCA V0201801N000512200019N0200001N1+02351+02291100871ADDAA124001891GA1011+005409029GF101991011011004501001001MA1999999099851MD1999999+0071REMSYN082AAXX  27004 43421 32498 11801 10235 20229 39985 40087 81100 333 58007 70017 81818;
0201434210999992000092712004+08330+080420FM-12+0089VCCA V0202001N000510054019N0200001N1+02731+02331100871ADDAA124002391GA1071+005409029GF107991071011004501021999KA1120M+03121MA1999999099851MD1999999+0071REMSYN094AAXX  27124 43421 32498 72001 10273 20233 39985 40087 8712/ 333 01023 10312 58007 70022 87818;
0176434210999992000092718004+08330+080420FM-12+0089VCCA V0202301N001010054019N0200001N1+02501+02201101061ADDAA124000591GA1061+005409029GF106991061011004501001001MA1999999100041MD1999999+0081REMSYN082AAXX  27184 43421 32498 62302 10250 20220 30004 40106 86100 333 58008 70005 86818;
0176434210999992000092800004+08330+080420FM-12+0089VCCA V0202301N000512200019N0200001N1+02391+02171100991ADDAA124000591GA1021+005409029GF102991021011004501001001MA1999999099971MD1999999+0121REMSYN082AAXX  28004 43421 32498 22301 10239 20217 39997 40099 82100 333 58012 70005 82818;
0214434210999992000092812004+08330+080420FM-12+0089VCCA V0202301N000512200019N0200001N1+03041+02221100791ADDAA199000091GA1021+090009019GF102991001001999999001011KA1120M+03351MA1999999099771MD1999999-0081REMSYN088AAXX  28124 43421 32998 22301 10304 20222 39977 40079 80001 333 01023 10335 59008 82080;EQDQ01  00002PRCP99
0177434210999992000092818004+08330+080420FM-12+0089VCCA V0209999C000012200019N0100001N1+02531+02311100981ADDAA199000091GA1001+999999999GF100991001001999999001001MA1999999099961MD1999999-0081REMSYN064AAXX  28184 43421 32997 00000 10253 20231 39996 40098 333 59008;EQDQ01  00002PRCP99
0177434210999992000092900004+08330+080420FM-12+0089VCCA V0202301N000512200019N0100001N1+02431+02331100891ADDAA199000091GA1001+999999999GF100991001001999999001001MA1999999099871MD1999999-0101REMSYN064AAXX  29004 43421 32997 02301 10243 20233 39987 40089 333 59010;EQDQ01  00002PRCP99
0220434210999992000092912004+08330+080420FM-12+0089VCCA V0202501N00261105001CN0200001N1+02971+02351100811ADDAA199000091GA1021+005409089GF106991021011004501001021KA1120M+03331MA1999999099791MD1999999+0021REMSYN094AAXX  29124 43421 32498 62505 10297 20235 39979 40081 82102 333 00024 10333 58002 82818 86080;EQDQ01  00002PRCP99
0195434210999992000093000004+08330+080420FM-12+0089VCCA V0202301N00151220001CN0200001N1+02511+02371100851ADDAA199000091GA1031+005409089GF106991031081004501001011MA1999999099831MD1999999-0041REMSYN082AAXX  30004 43421 32498 62303 10251 20237 39983 40085 83801 333 59004 83818 86080;EQDQ01  00002PRCP99
0210434210999992000093018004+08330+080420FM-12+0089VCCA V0209999C00001045001CN0100001N1+02371+02291101051ADDAA124031291AY181061AY221061GA1021+005409089GF108991021011004501021999MA1999999100031MD1999999+0011MW1021REMSYN094AAXX  30184 43421 31497 80000 10237 20229 30003 40105 70282 8212/ 333 58001 70312 82818 88460;
0204434210999992000100100004+08330+080420FM-12+0089VCCA V0202301N00101045001CN0200001N1+02341+02251100871ADDAA124031291GA1011+007509069GA2031+030009039GF106991011051008001031011MA1999999099851MD1999999+0021REMSYN094AAXX  01004 43421 32598 62302 10234 20225 39985 40087 81531 333 58002 70312 81625 83360 85080;
0182434210999992000100106004+08330+080420FM-12+0089VCCA V0202301N001510054019N0200001N1+02571+02311101061ADDAA124031291GA1061+005409089GF107991061011004501011999MA1999999100041MD1999999+0071REMSYN088AAXX  01064 43421 32498 72303 10257 20231 30004 40106 8611/ 333 58007 70312 86818 87460;
0271434210999992000100112004+08330+080420FM-12+0089VCCA V0202301N00101045001CN0200001N1+02611+02321100931ADDAA103000791AA209999999AY181061AY221061GA1041+005409089GF108991041011004501071999KA1120M+02731MA1999999099911MD1999999+0071MW1021REMSYN112AAXX  01124 43421 21498 82302 10261 20232 39991 40093 70282 8417/ 333 00023 10273 58007 69907 70010 84818 88460;EQDQ01  99992PRCP09
0182434210999992000100118004+08330+080420FM-12+0089VCCA V0202301N000512200019N0200001N1+02371+02311101131ADDAA124001091GA1021+005409089GF104991021011004501001061MA1999999100111MD1999999+0081REMSYN088AAXX  01184 43421 32498 42301 10237 20231 30011 40113 82106 333 58008 70010 82818 83280;
0246434210999992000100200004+08330+080420FM-12+0089VCCA V0209999C000010054019N0200001N1+02341+02311101011ADDAA103000791AA221999999AY181061AY221061GA1061+005409089GF108991061011004501021999MA1999999099991MD1999999+0141MW1021REMSYN100AAXX  02004 43421 21498 80000 10234 20231 39999 40101 70282 8612/ 333 58014 69907 70010 86818 88460;EQDQ01  99992PRCP21
0235434210999992000100206004+08330+080420FM-12+0089VCCA V0202301N00151045001CN0200001N1+02791+02321101151ADDAA103999999AY181061AY221061GA1041+005409089GF107991041011004501071999MA1999999100131MD1999999+0091MW1021REMSYN100AAXX  02064 43421 21498 72303 10279 20232 30013 40115 70282 8417/ 333 58009 69907 70064 84818 86460;EQDQ01  99992PRCP03
0207434210999992000100212004+08330+080420FM-12+0089VCCA V0202701N00051045001CN0200001N1+02661+02291100901ADDAA124005391GA1041+005409089GF107991041011004501071999KA1120M+03001MA1999999099881MD1999999-0031REMSYN100AAXX  02124 43421 32498 72701 10266 20229 39988 40090 8417/ 333 01024 10300 59003 70054 84818 85460;
0182434210999992000100218004+08330+080420FM-12+0089VCCA V0202301N00051045001CN0100001N1+02471+02311101101ADDAA124005391GA1021+005409089GF108991021011004501021999MA1999999100081MD1999999-0031REMSYN088AAXX  02184 43421 32497 82301 10247 20231 30008 40110 8212/ 333 59003 70054 82818 88460;
0246434210999992000100300004+08330+080420FM-12+0089VCCA V0202301N000510054019N0100001N1+02211+02131100102ADDAA103000891AA221000891AY181061AY221061GA1051+005409089GF108991051011004501071999MA1999999099981MD1999999-0011MW1021REMSYN100AAXX  03004 43421 21497 82301 10221 20213 39998 40010 70282 8517/ 333 59001 69987 70056 85818 86460;EQDQ01+100103APOSLP
0182434210999992000100306004+08330+080420FM-12+0089VCCA V0202301N00361045001CN0200001N1+02991+02311101021ADDAA124000391GA1011+005409089GF106991011011004501031001MA1999999100011MD1999999-0121REMSYN088AAXX  03064 43421 32498 62307 10299 20231 30001 40102 81130 333 59012 70002 81818 86360;
0201434210999992000100312004+08330+080420FM-12+0089VCCA V0202301N001012200019N0200001N1+02901+02331100841ADDAA124002391GA1011+005409029GF102991011011004501001011KA1120M+03211MA1999999099821MD1999999-0061REMSYN094AAXX  03124 43421 32498 22302 10290 20233 39982 40084 81101 333 00023 10321 59006 70022 81818;
0189434210999992000100406004+08330+080420FM-12+0089VCCA V0202701N001010054019N0200001N1+03091+02311100941ADDAA199000091GA1051+005409029GF105991051021004501001021MA1999999099921MD1999999-0091REMSYN076AAXX  04064 43421 32498 52702 10309 20231 39992 40094 85202 333 59009 85818;EQDQ01  00002PRCP99
0220434210999992000100412004+08330+080420FM-12+0089VCCA V0202701N00101220001CN0200001N1+02901+02171100811ADDAA199000091GA1011+005409089GF106991011011004501001061KA1120M+03311MA1999999099791MD1999999-0031REMSYN094AAXX  04124 43421 32498 62702 10290 20217 39979 40081 81106 333 00025 10331 59003 81818 86280;EQDQ01  00002PRCP99
0245434210999992000100418004+08330+080420FM-12+0089VCCA V0202701N000510060019N0100001N1+02541+02371101001ADDAA199000091AY121061AY221061GA1041+005409089GA2011+006009099GF108991051091004501021999MA1999999099981MD1999999-0101MW1131REMSYN094AAXX  04184 43421 31497 82701 10254 20237 39998 40100 71322 8592/ 333 59010 84818 81920 86460;EQDQ01  00002PRCP99
0227434210999992000100500004+08330+080420FM-12+0089VCCA V0202701N00051045001CN0100001N1+02481+02391100881ADDAA103000191AA221000191AY181061AY221061GA1041+005409089GF108991041011004501021999MA1999999099861MD1999999-0031MW1021REMSYN100AAXX  05004 43421 21497 82701 10248 20239 39986 40088 70282 8412/ 333 59003 69917 70005 84818 87460;
0216434210999992000100506004+08330+080420FM-12+0089VCCA V0202701N001010054019N0200001N1+02941+02301101011ADDAA103999929AY121061AY221061GA1061+005409089GF107991071091004501999999MA1999999099991MD1999999+0071MW1801REMSYN100AAXX  05064 43421 21498 72702 10294 20230 39999 40101 78022 879// 333 58007 69907 79999 86818 81920;
0163434210999992000100512004+08330+080420FM-12+0089VCCA V0202501N000510450019N0200001N1+02791+02271100741ADDAA199000021GF108991021011004501071061MA1999999099721REMSYN099AAXX  05124 43421 32498 82501 10279 20227 39972 40074 82176 33 01025 10323 59007 70005 82818 87460;
0227434210999992000100518004+08330+080420FM-12+0089VCCA V0202301N00051045001CN0200001N1+02561+02391100991ADDAA103000791AA215999929AY181061AY221061GA1021+005409089GF105991021011004501061001MA1999999099971MD1999999-0011MW1011REMSYN100AAXX  05184 43421 21498 52301 10256 20239 39997 40099 70182 82160 333 59001 69907 70005 82818 83360;
0249434210999992000100600004+08330+080420FM-12+0089VCCA V0209999C000010060019N0100001N1+02161+02091101011ADDAA103030091AA221030091AY191061AY281061GA1041+005409089GA2031+006009099GF108991061091004501021999MA1999999099991MD1999999+0131MW1951REMSYN106AAXX  06004 43421 21497 80000 10216 20209 39999 40101 79598 8692/ 333 58013 60307 70301 84818 83920 87460;
0182434210999992000100700004+08330+080420FM-12+0089VCCA V0202301N00051045001CN0100001N1+02381+02271100891ADDAA124039491GA1041+005409089GF106991041011004501071061MA1999999099871MD1999999-0121REMSYN088AAXX  07004 43421 32497 62301 10238 20227 39987 40089 84176 333 59012 70393 84818 84460;
0204434210999992000100706004+08330+080420FM-12+0089VCCA V0202301N001010054019N0200001N1+03001+02451101011ADDAA124000791GA1051+005409089GA2011+006009099GF107991051031004501031001MA1999999099991MD1999999-0051REMSYN094AAXX  07064 43421 32498 72302 10300 20245 39999 40101 85330 333 59005 79999 85818 81920 84360;
0248434210999992000100712004+08330+080420FM-12+0089VCCA V0209999C00001045001CN0200001N1+02651+02371100801ADDAA199000091AY191061AY221061GA1031+005409089GF107991031081004501071999KA1120M+03151MA1999999099781MD1999999-0051MW1031REMSYN100AAXX  07124 43421 31498 70000 10265 20237 39978 40080 70392 8387/ 333 00024 10315 59005 83818 87460;EQDQ01  00002PRCP99
0189434210999992000100718004+08330+080420FM-12+0089VCCA V0209999C000012200019N0200001N1+02471+02381100981ADDAA199000091GA1011+090009019GF101991001001999999001011MA1999999099961MD1999999-0021REMSYN076AAXX  07184 43421 32998 10000 10247 20238 39996 40098 80001 333 59002 81080;EQDQ01  00002PRCP99
0189434210999992000100800004+08330+080420FM-12+0089VCCA V0209999C000012200019N0200001N1+02421+02411100901ADDAA199000091GA1011+007509059GF102991011051008001001011MA1999999099881MD1999999+0011REMSYN076AAXX  08004 43421 32598 20000 10242 20241 39988 40090 81501 333 58001 81625;EQDQ01  00002PRCP99
0221434210999992000100806004+08330+080420FM-12+0089VCCA V0202301N001510054019N0200001N1+02691+02531100991ADDAA101006192AA203006092AY181061AY221061GA1051+005409029GF106991051021004501001011MA1999999099971MD1999999-0021MW1801REMSYN094AAXX  08064 43421 21498 62303 10269 20253 39997 40099 78082 85201 333 59002 60065 70056 85818;
0257434210999992000100812004+08330+080420FM-12+0089VCCA V0202301N00101220001CN0200001N1+02861+02251100711ADDAA124005691AY191061AY281061GA1021+005409089GA2011+006009099GF106991031091004501001061KA1120M+03161MA1999999099691MD1999999-0091MW1291REMSYN112AAXX  08124 43421 31498 62302 10286 20225 39969 40071 72998 83906 333 01024 10316 59009 70056 82818 81920 85280;
0182434210999992000100900004+08330+080420FM-12+0089VCCA V0202301N00101220001CN0200001N1+02441+02321100811ADDAA124005691GA1011+007509069GF106991011051008001001011MA1999999099791MD1999999-0091REMSYN088AAXX  09004 43421 32598 62302 10244 20232 39979 40081 81501 333 59009 70056 81625 86080;
0235434210999992000100906004+08330+080420FM-12+0089VCCA V0202701N00151220001CN0200001N1+03141+02181100891ADDAA103999999AY181061AY221061GA1031+005409089GF106991031021004501001011MA1999999099871MD1999999-0101MW1021REMSYN100AAXX  09064 43421 21498 62703 10314 20218 39987 40089 70282 83201 333 59010 69907 79999 83818 85080;EQDQ01  99992PRCP03
0207434210999992000100912004+08330+080420FM-12+0089VCCA V0202501N00101105001CN0200001N1+02801+02231100671ADDAA124000791GA1011+005409089GF105991011021004501001021KA1120M+03171MA1999999099651MD1999999-0041REMSYN100AAXX  09124 43421 32498 52502 10280 20223 39965 40067 81202 333 00024 10317 59004 79999 81818 85080;
0182434210999992000100918004+08330+080420FM-12+0089VCCA V0202301N00051220001CN0200001N1+02511+02351100941ADDAA124000791GA1021+005409089GF105991021011004501001011MA1999999099921MD1999999+0001REMSYN088AAXX  09184 43421 32498 52301 10251 20235 39992 40094 82101 333 58000 79999 82818 84080;
0164434210999992000101000004+08330+080420FM-12+0089VCCA V0202501N001012200019N0200001N1+02441+02321100901ADDAA124000791GA1001+999999999GF100991001001999999001001MA1999999099881MD1999999+0091REMSYN070AAXX  10004 43421 32998 02502 10244 20232 39988 40090 333 58009 79999;
0189434210999992000101006004+08330+080420FM-12+0089VCCA V0202301N001510054019N0200001N1+03111+02351100981ADDAA199000091GA1061+005409029GF106991061021004501001011MA1999999099961MD1999999+0091REMSYN076AAXX  10064 43421 32498 62303 10311 20235 39996 40098 86201 333 58009 86818;EQDQ01  00002PRCP99
0220434210999992000101012004+08330+080420FM-12+0089VCCA V0202301N00101220001CN0200001N1+02921+02241100781ADDAA199000091GA1011+005409089GF105991011011004501001011KA1120M+03271MA1999999099761MD1999999+0111REMSYN094AAXX  10124 43421 32498 52302 10292 20224 39976 40078 81101 333 01024 10327 58011 81818 85080;EQDQ01  00002PRCP99
0189434210999992000101018004+08330+080420FM-12+0089VCCA V0202301N001012200019N0100001N1+02541+02371100981ADDAA199000091GA1041+090009019GF104991001001999999001011MA1999999099961MD1999999+0041REMSYN076AAXX  10184 43421 32997 42302 10254 20237 39996 40098 80001 333 58004 84080;EQDQ01  00002PRCP99
0189434210999992000101106004+08330+080420FM-12+0089VCCA V0202301N001510054019N0200001N1+03041+02291100991ADDAA199000091GA1051+005409029GF105991051011004501001001MA1999999099971MD1999999+0011REMSYN076AAXX  11064 43421 32498 52303 10304 20229 39997 40099 85100 333 58001 85818;EQDQ01  00002PRCP99
0220434210999992000101112004+08330+080420FM-12+0089VCCA V0202701N001012200019N0200001N1+02951+02271100861ADDAA199000091GA1011+005409089GF103991011011004501001041KA1120M+03301MA1999999099841MD1999999+0081REMSYN094AAXX  11124 43421 32498 32702 10295 20227 39984 40086 81104 333 00024 10330 58008 81818 83080;EQDQ01  00002PRCP99
0189434210999992000101118004+08330+080420FM-12+0089VCCA V0202301N001012200019N0100001N1+02541+02421101111ADDAA199000091GA1011+005409029GF102991011011004501001011MA1999999100091MD1999999+0131REMSYN076AAXX  11184 43421 32497 22302 10254 20242 30009 40111 81101 333 58013 81818;EQDQ01  00002PRCP99
0189434210999992000101200004+08330+080420FM-12+0089VCCA V0202701N001019999999N0100001N1+02461+02391101001ADDAA199000091GA1041+090009019GF105991001001999999001061MA1999999099981MD1999999+0051REMSYN076AAXX  12004 43421 32997 52702 10246 20239 39998 40100 80006 333 58005 84080;EQDQ01  00002PRCP99
0189434210999992000101206004+08330+080420FM-12+0089VCCA V0202301N001512200019N0200001N1+03051+02291101081ADDAA199000091GA1041+005409029GF104991041011004501001011MA1999999100061MD1999999+0091REMSYN076AAXX  12064 43421 32498 42303 10305 20229 30006 40108 84101 333 58009 84818;EQDQ01  00002PRCP99
0220434210999992000101212004+08330+080420FM-12+0089VCCA V0202301N00151105001CN0200001N1+02881+02281100841ADDAA199000091GA1031+005409089GF107991031011004501001061KA1120M+03241MA1999999099821MD1999999-0021REMSYN094AAXX  12124 43421 32498 72303 10288 20228 39982 40084 83106 333 00024 10324 59002 83818 86280;EQDQ01  00002PRCP99
0195434210999992000101218004+08330+080420FM-12+0089VCCA V0202301N00101105001CN0100001N1+02511+02361101011ADDAA199000091GA1031+005409089GF108991031011004501001071MA1999999099991MD1999999-0101REMSYN082AAXX  12184 43421 32497 82302 10251 20236 39999 40101 83107 333 59010 83818 88280;EQDQ01  00002PRCP99
0217434210999992000101300004+08330+080420FM-12+0089VCCA V0202301N00101105001CN0200001N1+02451+02371100931ADDAA199000091GA1021+005409089GA2031+030009039GF106991021011004501031061MA1999999099911MD1999999-0071REMSYN088AAXX  13004 43421 32498 62302 10245 20237 39991 40093 82136 333 59007 82818 83360 84280;EQDQ01  00002PRCP99
0195434210999992000101306004+08330+080420FM-12+0089VCCA V0202701N00151105001CN0200001N1+02941+02271100961ADDAA199000091GA1041+005409089GF107991041011004501001061MA1999999099941MD1999999-0121REMSYN082AAXX  13064 43421 32498 72703 10294 20227 39994 40096 84106 333 59012 84818 86280;EQDQ01  00002PRCP99
0207434210999992000101312004+08330+080420FM-12+0089VCCA V0202701N00101220001CN0200001N1+02841+02281100711ADDAA124000791GA1031+005409089GF106991031021004501001061KA1120M+03151MA1999999099691MD1999999-0131REMSYN100AAXX  13124 43421 32498 62702 10284 20228 39969 40071 83206 333 00024 10315 59013 79999 83818 85280;
0182434210999992000101318004+08330+080420FM-12+0089VCCA V0202701N00051105001CN0200001N1+02541+02381100901ADDAA124000791GA1021+005409089GF106991021011004501031061MA1999999099881MD1999999-0111REMSYN088AAXX  13184 43421 32498 62701 10254 20238 39988 40090 82136 333 59011 79999 82818 84280;
0176434210999992000101400004+08330+080420FM-12+0089VCCA V0202501N000512200019N0200001N1+02451+02371100741ADDAA124000791GA1041+090009019GF104991001001999999001011MA1999999099721MD1999999-0191REMSYN082AAXX  14004 43421 32998 42501 10245 20237 39972 40074 80001 333 59019 79999 84080;
0176434210999992000101406004+08330+080420FM-12+0089VCCA V0202301N001512200019N0200001N1+03091+02351100781ADDAA124000791GA1041+005409029GF104991041011004501001011MA1999999099761MD1999999-0181REMSYN082AAXX  14064 43421 32498 42303 10309 20235 39976 40078 84101 333 59018 79999 84818;
0293434210999992000101412004+08330+080420FM-12+0089VCCA V0202701N00151045001CN0200001N1+02861+02271100661ADDAA103000791AA209999999AY191061AY281061GA1021+005409089GA2011+006009099GF108991031091004501021999KA1120M+03221MA1999999099641MD1999999-0051MW1031REMSYN118AAXX  14124 43421 21498 82703 10286 20227 39964 40066 70398 8392/ 333 01024 10322 59005 69907 70002 82818 81920 87460;EQDQ01  99992PRCP09
0176434210999992000101418004+08330+080420FM-12+0089VCCA V0202701N000510900019N0200001N1+02551+02401100881ADDAA124000391GA1051+090009089GF105991001001999999001061MA1999999099861MD1999999-0021REMSYN082AAXX  14184 43421 32998 52701 10255 20240 39986 40088 80006 333 59002 70002 85280;
0176434210999992000101500004+08330+080420FM-12+0089VCCA V0202301N001010300019N0200001N1+02501+02391100741ADDAA124000391GA1071+030009079GF107991071001999999031001MA1999999099721MD1999999+0001REMSYN082AAXX  15004 43421 32998 72302 10250 20239 39972 40074 87030 333 58000 70002 87360;
0182434210999992000101506004+08330+080420FM-12+0089VCCA V0202701N00151220001CN0200001N1+03101+02381100831ADDAA124000391GA1011+005409089GF105991011011004501001011MA1999999099871MD1999999+0051REMSYN088AAXX  15064 43421 32498 52703 10310 20238 39987 40083 81101 333 58005 70002 81818 85080;
0220434210999992000101512004+08330+080420FM-12+0089VCCA V0202301N00211220001CN0200001N1+02951+02351100651ADDAA199000091GA1011+005409089GF106991011011004501001061KA1120M+03041MA1999999099631MD1999999-0011REMSYN094AAXX  15124 43421 32498 62304 10295 20235 39963 40065 81106 333 00024 10304 59001 81818 85080;EQDQ01  00002PRCP99
0189434210999992000101518004+08330+080420FM-12+0089VCCA V0202301N001012200019N0200001N1+02561+02431100951ADDAA199000091GA1011+090009019GF101991001001999999001011MA1999999099931MD1999999+0071REMSYN076AAXX  15184 43421 32998 12302 10256 20243 39993 40095 80001 333 58007 81080;EQDQ01  00002PRCP99
0249434210999992000101600004+08330+080420FM-12+0089VCCA V0202701N002110048019N0040001N1+02241+02151100911ADDAA102004192AA221004092AY191061AY281061GA1061+004809089GA2021+005409099GF108991061091004501071999MA1999999099891MD1999999+0171MW1951REMSYN106AAXX  16004 43421 21496 82704 10224 20215 39989 40091 79598 8697/ 333 58017 60046 70040 86816 82918 87458;
0216434210999992000101606004+08330+080420FM-12+0089VCCA V0202301N00311105001CN0200001N1+03121+02411100841ADDAA103000191AY191061AY281061GA1021+005409089GF106991021011004501031061MA1999999099821MD1999999+0011MW1021REMSYN100AAXX  16064 43421 21498 62306 10312 20241 39982 40084 70298 82136 333 58001 69917 70225 82818 85280;
0229434210999992000101612004+08330+080420FM-12+0089VCCA V0202301N00261220001CN0200001N1+02861+02351100671ADDAA124022691GA1011+005409089GA2011+006009099GF105991011091004501001061KA1120M+03221MA1999999099651MD1999999+0021REMSYN106AAXX  16124 43421 32498 52305 10286 20235 39965 40067 81906 333 00023 10322 58002 70225 81818 81920 85280;
0176434210999992000101618004+08330+080420FM-12+0089VCCA V0202301N001012200019N0200001N1+02551+02381100901ADDAA124022691GA1021+090009089GF102991001001999999001051MA1999999099881MD1999999-0051REMSYN082AAXX  16184 43421 32998 22302 10255 20238 39988 40090 80005 333 59005 70225 82280;
0182434210999992000101700004+08330+080420FM-12+0089VCCA V0202701N001512200019N0200001N1+02511+02391100711ADDAA124018591GA1011+030009039GF103991011001999999031011MA1999999099691MD1999999-0061REMSYN088AAXX  17004 43421 32998 32703 10251 20239 39969 40071 81031 333 59006 70185 81360 83080;
0189434210999992000101706004+08330+080420FM-12+0089VCCA V0202701N002610054019N0200001N1+03111+02361100801ADDAA199000091GA1061+005409029GF106991061011004501001001MA1999999099781MD1999999-0041REMSYN076AAXX  17064 43421 32498 62705 10311 20236 39978 40080 86100 333 59004 86818;EQDQ01  00002PRCP99
0189434210999992000101718004+08330+080420FM-12+0089VCCA V0202701N000512200019N0200001N1+02561+02411100811ADDAA199000091GA1041+090009019GF104991001001999999001011MA1999999099791MD1999999-0091REMSYN076AAXX  17184 43421 32998 42701 10256 20241 39979 40081 80001 333 59009 84080;EQDQ01  00002PRCP99
0189434210999992000101800004+08330+080420FM-12+0089VCCA V0202701N000512200019N0200001N1+02531+02411100681ADDAA199000091GA1041+090009089GF104991001001999999001061MA1999999099661MD1999999-0031REMSYN076AAXX  18004 43421 32998 42701 10253 20241 39966 40068 80006 333 59003 84280;EQDQ01  00002PRCP99
0214434210999992000101812004+08330+080420FM-12+0089VCCA V0202701N002112200019N0200001N1+02841+02281999999ADDAA199000091GA1021+005409089GF103991021011004501001011KA1120M+03201MA1999999099541MD1999999-0051REMSYN088AAXX  18124 43421 32498 32704 10284 20228 39954 82101 333 00025 10320 59005 82818 83080;EQDQ01  00002PRCP99
0189434210999992000101900004+08330+080420FM-12+0089VCCA V0202301N001012200019N0200001N1+02441+02351100701ADDAA199000091GA1011+090009019GF101991001001999999001011MA1999999099681MD1999999+0021REMSYN076AAXX  19004 43421 32998 12302 10244 20235 39968 40070 80001 333 58002 81080;EQDQ01  00002PRCP99
0195434210999992000101906004+08330+080420FM-12+0089VCCA V0202301N004112200019N0200001N1+03111+02251100811ADDAA199000091GA1021+005409089GF103991021021004501001011MA1999999099791MD1999999+0051REMSYN082AAXX  19064 43421 32498 32308 10311 20225 39979 40081 82201 333 58005 82818 83080;EQDQ01  00002PRCP99
0220434210999992000101912004+08330+080420FM-12+0089VCCA V0202301N00261220001CN0200001N1+02881+02261100651ADDAA199000091GA1011+005409089GF106991011011004501001061KA1120M+03231MA1999999099631MD1999999+0091REMSYN094AAXX  19124 43421 32498 62305 10288 20226 39963 40065 81106 333 00024 10323 58009 81818 85280;EQDQ01  00002PRCP99
0189434210999992000101918004+08330+080420FM-12+0089VCCA V0202301N002112200019N0200001N1+02571+02411100911ADDAA199000091GA1021+005409029GF102991021011004501001001MA1999999099891MD1999999+0071REMSYN076AAXX  19184 43421 32498 22304 10257 20241 39989 40091 82100 333 58007 82818;EQDQ01  00002PRCP99
0189434210999992000102000004+08330+080420FM-12+0089VCCA V0202301N001012200019N0200001N1+02511+02391100821ADDAA199000091GA1011+005409029GF102991011081004501001011MA1999999099801MD1999999+0121REMSYN076AAXX  20004 43421 32498 22302 10251 20239 39980 40082 81801 333 58012 81818;EQDQ01  00002PRCP99
0195434210999992000102006004+08330+080420FM-12+0089VCCA V0202501N00211220001CN0200001N1+03061+02291100941ADDAA199000091GA1031+005409089GF105991031021004501001011MA1999999099921MD1999999+0131REMSYN082AAXX  20064 43421 32498 52504 10306 20229 39992 40094 83201 333 58013 83818 84080;EQDQ01  00002PRCP99
0220434210999992000102012004+08330+080420FM-12+0089VCCA V0202701N00101220001CN0200001N1+02941+02001100761ADDAA199000091GA1021+005409089GF106991021011004501001061KA1120M+03261MA1999999099741MD1999999+0111REMSYN094AAXX  20124 43421 32498 62702 10294 20200 39974 40076 82106 333 00025 10326 58011 82818 86280;EQDQ01  00002PRCP99
0177434210999992000102018004+08330+080420FM-12+0089VCCA V0202301N000512200019N0200001N1+02541+02331100991ADDAA199000091GA1001+999999999GF100991001001999999001001MA1999999099971MD1999999+0081REMSYN064AAXX  20184 43421 32998 02301 10254 20233 39997 40099 333 58008;EQDQ01  00002PRCP99
0177434210999992000102100004+08330+080420FM-12+0089VCCA V0202501N000512200019N0200001N1+02441+02321100931ADDAA199000091GA1001+999999999GF100991001001999999001001MA1999999099911MD1999999+0111REMSYN064AAXX  21004 43421 32998 02501 10244 20232 39991 40093 333 58011;EQDQ01  00002PRCP99
0189434210999992000102106004+08330+080420FM-12+0089VCCA V0203201N001512200019N0200001N1+03141+02081100981ADDAA199000091GA1011+005409029GF101991011011004501001001MA1999999099961MD1999999+0041REMSYN076AAXX  21064 43421 32498 13203 10314 20208 39996 40098 81100 333 58004 81818;EQDQ01  00002PRCP99
0220434210999992000102112004+08330+080420FM-12+0089VCCA V0202301N000512200019N0200001N1+02911+02101100801ADDAA199000091GA1011+005409089GF104991011011004501001011KA1120M+03261MA1999999099781MD1999999+0041REMSYN094AAXX  21124 43421 32498 42301 10291 20210 39978 40080 81101 333 00024 10326 58004 81818 85080;EQDQ01  00002PRCP99
0177434210999992000102118004+08330+080420FM-12+0089VCCA V0202301N000512200019N0200001N1+02481+02271101021ADDAA199000091GA1001+999999999GF100991001001999999001001MA1999999100001MD1999999+0031REMSYN064AAXX  21184 43421 32998 02301 10248 20227 30000 40102 333 58003;EQDQ01  00002PRCP99
0177434210999992000102200004+08330+080420FM-12+0089VCCA V0202701N001012200019N0200001N1+02421+02271100891ADDAA199000091GA1001+999999999GF100991001001999999001001MA1999999099871MD1999999-0041REMSYN064AAXX  22004 43421 32998 02702 10242 20227 39987 40089 333 59004;EQDQ01  00002PRCP99
0189434210999992000102206004+08330+080420FM-12+0089VCCA V0202301N001512200019N0200001N1+03101+02311100951ADDAA199000091GA1041+005409029GF104991041011004501001001MA1999999099931MD1999999-0031REMSYN076AAXX  22064 43421 32498 42303 10310 20231 39993 40095 84100 333 59003 84818;EQDQ01  00002PRCP99
0195434210999992000102218004+08330+080420FM-12+0089VCCA V0202301N001510054019N0100001N1+02561+02231100961ADDAA199000091GA1051+005409089GF108991051011004501021999MA1999999099941MD1999999-0061REMSYN082AAXX  22184 43421 32497 82303 10256 20223 39994 40096 8512/ 333 59006 85818 88460;EQDQ01  00002PRCP99
0195434210999992000102300004+08330+080420FM-12+0089VCCA V0202301N001012200019N0100001N1+02451+02241100791ADDAA199000091GA1011+005409089GF104991011011004501031001MA1999999099771MD1999999-0101REMSYN082AAXX  23004 43421 32497 42302 10245 20224 39977 40079 81130 333 59010 81818 83360;EQDQ01  00002PRCP99
0242434210999992000102312004+08330+080420FM-12+0089VCCA V0202301N00101220001CN0200001N1+02891+02241100761ADDAA199000091GA1011+005409089GA2011+007509099GF105991021091004501001061KA1120M+03251MA1999999099741MD1999999-0011REMSYN100AAXX  23124 43421 32498 52302 10289 20224 39974 40076 82906 333 00024 10325 59001 81818 81925 84280;EQDQ01  00002PRCP99
0223434210999992000102318004+08330+080420FM-12+0089VCCA V0202301N000510054019N0100001N1+02541+02331101021ADDAA199000091AY121061AY221061GA1061+005409089GF107991071091004501999999MA1999999100001MD1999999+0061MW1131REMSYN088AAXX  23184 43421 32497 72301 10254 20233 30000 40102 71322 879// 333 58006 86818 82925;EQDQ01  00002PRCP99
0227434210999992000102400004+08330+080420FM-12+0089VCCA V0209999C000010054019N0100001N1+02281+02191100871ADDAA103005192AA221005092AY191061AY281061GA1051+005409089GF107991051011004501071999MA1999999099851MD1999999+0081MW1021REMSYN100AAXX  24004 43421 21497 70000 10228 20219 39985 40087 70298 8517/ 333 58008 60057 70116 85818 86460;
0176434210999992000102406004+08330+080420FM-12+0089VCCA V0202701N000510054019N0200001N1+03011+02471100991ADDAA124011791GA1061+005409029GF106991061021004501001001MA1999999099971MD1999999+0071REMSYN082AAXX  24064 43421 32498 62701 10301 20247 39997 40099 86200 333 58007 70116 86818;
0242434210999992000102412004+08330+080420FM-12+0089VCCA V0209999C00001006001CN0200001N1+02781+02431100831ADDAA199000091GA1041+005409089GA2011+006009099GF108991041091004501071999KA1120M+03191MA1999999099811MD1999999+0071REMSYN100AAXX  24124 43421 32498 80000 10278 20243 39981 40083 8497/ 333 02023 10319 58007 84818 81920 88460;EQDQ01  00002PRCP99
0195434210999992000102418004+08330+080420FM-12+0089VCCA V0209999C000012200019N0200001N1+02541+02391101061ADDAA199000091GA1011+005409089GF104991011011004501001061MA1999999100041MD1999999+0041REMSYN082AAXX  24184 43421 32498 40000 10254 20239 30004 40106 81106 333 58004 81818 84280;EQDQ01  00002PRCP99
0220434210999992000102512004+08330+080420FM-12+0089VCCA V0209999C00001220001CN0200001N1+02931+02381100821ADDAA199000091GA1031+005409089GF105991031011004501001011KA1120M+03321MA1999999099801MD1999999-0011REMSYN094AAXX  25124 43421 32498 50000 10293 20238 39980 40082 83101 333 00023 10332 59001 83818 83080;EQDQ01  00002PRCP99
0204434210999992000102606004+08330+080420FM-12+0089VCCA V0209999C000010900019N0200001N1+03001+02031101021ADDAA124000791AY141061AY221061GA1061+090009019GF106991001001999999001011MA1999999100001MD1999999-0041MW1021REMSYN088AAXX  26064 43421 31998 60000 10300 20203 30000 40102 70242 80001 333 59004 79999 86080;
0207434210999992000102612004+08330+080420FM-12+0089VCCA V0209999C00001220001CN0200001N1+02981+01901100801ADDAA124000791GA1011+005409089GF106991011011004501001011KA1120M+03351MA1999999099781MD1999999-0021REMSYN100AAXX  26124 43421 32498 60000 10298 20190 39978 40080 81101 333 00022 10335 59002 79999 81818 86080;
0177434210999992000102618004+08330+080420FM-12+0089VCCA V0209999C000012200019N0200001N1+02201+02011101031ADDAA199000091GA1001+999999999GF100991001001999999001001MA1999999100011MD1999999+0011REMSYN064AAXX  26184 43421 32998 00000 10220 20201 30001 40103 333 58001;EQDQ01  00002PRCP99
0177434210999992000102700004+08330+080420FM-12+0089VCCA V0209999C000012200019N0200001N1+02051+01991100871ADDAA199000091GA1001+999999999GF100991001001999999001001MA1999999099851MD1999999-0071REMSYN064AAXX  27004 43421 32998 00000 10205 20199 39985 40087 333 59007;EQDQ01  00002PRCP99
0214434210999992000102712004+08330+080420FM-12+0089VCCA V0209999C000012200019N0200001N1+02941+02251100831ADDAA199000091GA1011+005409029GF102991011081004501031011KA1120M+03381MA1999999099811MD1999999+0031REMSYN088AAXX  27124 43421 32498 20000 10294 20225 39981 40083 81831 333 00019 10338 58003 81818;EQDQ01  00002PRCP99
0178434210999992000102718004+08330+080420FM-12+0089VCCA V0209999C000012200019N0180001N1+02441+02321101091ADDAA199000091GA1001+999999999GF100991001001999999001001MD1999999+0051REMSYN064AAXX  27184 43421 32968 00000 10244 20232 30107 40109 333 58005;EQDQ01+101073APOSP Q02  00002PRCP99
0177434210999992000102800004+08330+080420FM-12+0089VCCA V0209999C000012200019N0200001N1+02311+02191101011ADDAA199000091GA1001+999999999GF100991001001999999001001MA1999999099991MD1999999+0141REMSYN064AAXX  28004 43421 32998 00000 10231 20219 39999 40101 333 58014;EQDQ01  00002PRCP99
0189434210999992000102806004+08330+080420FM-12+0089VCCA V0202301N001012200019N0200001N1+03131+02221101091ADDAA199000091GA1021+005409029GF102991021011004501001001MA1999999100071MD1999999+0121REMSYN076AAXX  28064 43421 32498 22302 10313 20222 30007 40109 82100 333 58012 82818;EQDQ01  00002PRCP99
0214434210999992000102812004+08330+080420FM-12+0089VCCA V0202301N000512200019N0200001N1+03041+02281100911ADDAA199000091GA1021+090009089GF103991001001999999001061KA1120M+03391MA1999999099891MD1999999+0081REMSYN088AAXX  28124 43421 32998 32301 10304 20228 39989 40091 80006 333 00022 10339 58008 82280;EQDQ01  00002PRCP99
0177434210999992000102818004+08330+080420FM-12+0089VCCA V0209999C000012200019N0100001N1+02491+02291101141ADDAA199000091GA1001+999999999GF100991001001999999001001MA1999999100121MD1999999+0051REMSYN064AAXX  28184 43421 32997 00000 10249 20229 30012 40114 333 58005;EQDQ01  00002PRCP99
0195434210999992000102906004+08330+080420FM-12+0089VCCA V0202301N00151220001CN0200001N1+03091+02291101121ADDAA199000091GA1041+005409089GF105991041011004501001061MA1999999100101MD1999999+0031REMSYN082AAXX  29064 43421 32498 52303 10309 20229 30010 40112 84106 333 58003 84818 83280;EQDQ01  00002PRCP99
0189434210999992000103000004+08330+080420FM-12+0089VCCA V0209999C000010900019N0100001N1+02301+02191101041ADDAA199000091GA1061+090009019GF106991001001999999001011MA1999999100021MD1999999+0011REMSYN076AAXX  30004 43421 32997 60000 10230 20219 30002 40104 80001 333 58001 86080;EQDQ01  00002PRCP99
0189434210999992000103006004+08330+080420FM-12+0089VCCA V0202301N001012200019N0200001N1+03181+02191101021ADDAA199000091GA1021+005409029GF102991021011004501001001MA1999999100001MD1999999-0101REMSYN076AAXX  30064 43421 32498 22302 10318 20219 30000 40102 82100 333 59010 82818;EQDQ01  00002PRCP99
0220434210999992000103012004+08330+080420FM-12+0089VCCA V0202301N000512200019N0200001N1+03091+02241100821ADDAA199000091GA1011+005409089GF103991011011004501001061KA1120M+03401MA1999999099801MD1999999-0101REMSYN094AAXX  30124 43421 32498 32301 10309 20224 39980 40082 81106 333 00022 10340 59010 81818 84280;EQDQ01  00002PRCP99
0189434210999992000103018004+08330+080420FM-12+0089VCCA V0209999C000012200019N0200001N1+02541+02301101051ADDAA199000091GA1031+090009089GF103991001001999999001021MA1999999100031MD1999999-0101REMSYN076AAXX  30184 43421 32998 30000 10254 20230 30003 40105 80002 333 59010 83280;EQDQ01  00002PRCP99
0189434210999992000103100004+08330+080420FM-12+0089VCCA V0209999C000012200019N0200001N1+02411+02311100971ADDAA199000091GA1041+090009089GF104991001001999999001061MA1999999099951MD1999999-0071REMSYN076AAXX  31004 43421 32998 40000 10241 20231 39995 40097 80006 333 59007 84280;EQDQ01  00002PRCP99
0189434210999992000103106004+08330+080420FM-12+0089VCCA V0209999C000010054019N0200001N1+03241+02321100951ADDAA199000091GA1051+005409029GF105991051021004501001001MA1999999099931MD1999999-0071REMSYN076AAXX  31064 43421 32498 50000 10324 20232 39993 40095 85200 333 59007 85818;EQDQ01  00002PRCP99
0252434210999992000103112004+08330+080420FM-12+0089VCCA V0203201N000510054019N0200001N1+02871+02311100791ADDAA103000191AA209000191AY181061AY221061GA1051+005409089GF107991071091004501999999KA1120M+03321MA1999999099771MD1999999-0031MW1031REMSYN112AAXX  31124 43421 21498 73201 10287 20231 39977 40079 70382 879// 333 00024 10332 59003 69917 70001 85818 82920;
0176434210999992000103118004+08330+080420FM-12+0089VCCA V0209999C000010054019N0200001N1+02581+02321100981ADDAA124000191GA1061+005409029GF106991061021004501001001MA1999999099961MD1999999-0071REMSYN082AAXX  31184 43421 32498 60000 10258 20232 39996 40098 86200 333 59007 70001 86818;
0182434210999992000110106004+08330+080420FM-12+0089VCCA V0209999C00001220001CN0200001N1+03061+02171100991ADDAA124000591GA1031+005409089GF106991031011004501001061MA1999999099971MD1999999+0041REMSYN088AAXX  01064 43421 32498 60000 10306 20217 39997 40099 83106 333 58004 70004 83818 86280;
0229434210999992000110112004+08330+080420FM-12+0089VCCA V0209999C000010300019N0200001N1+02701+02291100821ADDAA124000391GA1031+005409089GA2031+030009049GF106991031011004501071061KA1120M+03221MA1999999099801MD1999999+0031REMSYN106AAXX  01124 43421 32498 60000 10270 20229 39980 40082 83176 333 02024 10322 58003 70003 83818 83460 86280;
0189434210999992000110200004+08330+080420FM-12+0089VCCA V0209999C000012200019N0200001N1+02281+02221100951ADDAA199000091GA1041+090009019GF104991001001999999001011MA1999999099931MD1999999+0021REMSYN076AAXX  02004 43421 32998 40000 10228 20222 39993 40095 80001 333 58002 84080;EQDQ01  00002PRCP99
0189434210999992000110206004+08330+080420FM-12+0089VCCA V0200501N000512200019N0200001N1+03191+02191100991ADDAA199000091GA1041+005409029GF104991041011004501001001MA1999999099971MD1999999+0001REMSYN076AAXX  02064 43421 32498 40501 10319 20219 39997 40099 84100 333 58000 84818;EQDQ01  00002PRCP99
0182434210999992000110218004+08330+080420FM-12+0089VCCA V0209999C00001045001CN0200001N1+02531+02441101021ADDAA124004691GA1031+005409089GF106991031011004501071999MA1999999100001MD1999999+0021REMSYN088AAXX  02184 43421 32498 60000 10253 20244 30000 40102 8317/ 333 58002 70046 83818 86460;
0182434210999992000110300004+08330+080420FM-12+0089VCCA V0209999C000012200019N0200001N1+02431+02341101001ADDAA124004691GA1021+030009039GF104991021001999999031011MA1999999099981MD1999999+0051REMSYN088AAXX  03004 43421 32998 40000 10243 20234 39998 40100 82031 333 58005 70046 82360 84080;
0176434210999992000110306004+08330+080420FM-12+0089VCCA V0209999C000012200019N0200001N1+03171+02231101081ADDAA124004691GA1021+005409029GF102991021011004501001001MA1999999100061MD1999999+0091REMSYN082AAXX  03064 43421 32498 20000 10317 20223 30006 40108 82100 333 58009 70046 82818;
0187434210999992000110312004+08330+080420FM-12+0089VCCA V0200501N000512200019N0200001N1+03101+02311100911ADDAA124004691GA1031+005409089GF105991041031004501001011KA1120M+03481MA1999999099891REMSYN094AAXX  03124 43421 32498 50501 10310 20231 39989 40091 84301 333 01024 10348 70046 83818 82920;
0177434210999992000110318004+08330+080420FM-12+0089VCCA V0209999C000012200019N0100001N1+02461+02311101171ADDAA199000091GA1001+999999999GF100991001001999999001001MA1999999100151MD1999999+0151REMSYN064AAXX  03184 43421 32997 00000 10246 20231 30015 40117 333 58015;EQDQ01  00002PRCP99
0177434210999992000110400004+08330+080420FM-12+0089VCCA V0209999C000012200019N0100001N1+02341+02271101121ADDAA199000091GA1001+999999999GF100991001001999999001001MA1999999100101MD1999999+0121REMSYN064AAXX  04004 43421 32997 00000 10234 20227 30010 40112 333 58012;EQDQ01  00002PRCP99
0189434210999992000110406004+08330+080420FM-12+0089VCCA V0203601N000512200019N0200001N1+03281+02331101161ADDAA199000091GA1031+005409029GF103991031011004501001001MA1999999100141MD1999999+0081REMSYN076AAXX  04064 43421 32498 33601 10328 20233 30014 40116 83100 333 58008 83818;EQDQ01  00002PRCP99
0293434210999992000110412004+08330+080420FM-12+0089VCCA V0209999C000010054019N0200001N1+02901+02431100971ADDAA103000791AA209999999AY181061AY221061GA1031+004209079GA2051+005409089GF107991071091004501001001KA1120M+03491MA1999999099951MD1999999+0061MW1021REMSYN118AAXX  04124 43421 21498 70000 10290 20243 39995 40097 70282 87900 333 00023 10349 58006 69907 79999 83714 85818 82925;EQDQ01  99992PRCP09
0176434210999992000110418004+08330+080420FM-12+0089VCCA V0209999C000012200019N0100001N1+02621+02471101171ADDAA124000791GA1021+005409029GF103991021021004501001011MA1999999100151MD1999999+0001REMSYN082AAXX  04184 43421 32497 30000 10262 20247 30015 40117 82201 333 58000 79999 82818;
0176434210999992000110500004+08330+080420FM-12+0089VCCA V0209999C000010054019N0100001N1+02491+02401101061ADDAA124000791GA1051+005409029GF105991051011004501001001MA1999999100041MD1999999-0061REMSYN082AAXX  05004 43421 32497 50000 10249 20240 30004 40106 85100 333 59006 79999 85818;
0216434210999992000110506004+08330+080420FM-12+0089VCCA V0200501N000510054019N0200001N1+03001+02581101101ADDAA103000291AY181061AY221061GA1051+005409089GF106991051021004501001021MA1999999100081MD1999999-0061MW1011REMSYN100AAXX  05064 43421 32498 60501 10300 20258 30008 40110 70182 85202 333 59006 69927 70118 85818 83080;
0229434210999992000110512004+08330+080420FM-12+0089VCCA V0209999C00001006001CN0200001N1+02821+02361100901ADDAA124011791GA1041+005409089GA2011+006009099GF108991041091004501001061KA1120M+03201MA1999999099881MD1999999-0071REMSYN106AAXX  05124 43421 32498 80000 10282 20236 39988 40090 84906 333 00025 10320 59007 70118 84818 81920 87280;
0182434210999992000110518004+08330+080420FM-12+0089VCCA V0209999C00001045001CN0200001N1+02461+02311100991ADDAA124011791GA1041+005409089GF107991041021004501071999MA1999999099971MD1999999-0181REMSYN088AAXX  05184 43421 32498 70000 10246 20231 39997 40099 8427/ 333 59018 70118 84818 86460;
0164434210999992000110600004+08330+080420FM-12+0089VCCA V0209999C000012200019N0200001N1+02251+02191100891ADDAA124011791GA1001+999999999GF100991001001999999001001MA1999999099871MD1999999-0171REMSYN070AAXX  06004 43421 32998 00000 10225 20219 39987 40089 333 59017 70118;
0195434210999992000110606004+08330+080420FM-12+0089VCCA V0200501N00051220001CN0200001N1+03141+02371100931ADDAA199000091GA1041+005409089GF106991041021004501001011MA1999999099911MD1999999-0171REMSYN082AAXX  06064 43421 32498 60501 10314 20237 39991 40093 84201 333 59017 84818 84080;EQDQ01  00002PRCP99
0195434210999992000110618004+08330+080420FM-12+0089VCCA V0209999C00001045001CN0200001N1+02491+02371100981ADDAA199000091GA1021+005409089GF107991021011004501061001MA1999999099961MD1999999-0011REMSYN082AAXX  06184 43421 32498 70000 10249 20237 39996 40098 82160 333 59001 82818 86360;EQDQ01  00002PRCP99
