0164471084999992000010100004+37780+126370FM-15+0250RKSV V0203401N003610600019N0090001N1+00001-00401999999ADDGA1071+060009999GF107991999999999999999999MA1102541999999MW1101REMMET070RKSV 2358Z 34007KT 9000 BR BKN200 00/M04 A3028 RMK CIG200/ QFF1028PT2;EQDQ01    003PRSWM1
0165471084999992000010102004+37780+126370FM-15+0250RKSV V0202501N004110600019N0112651N1+00201-00301999999ADDGA1021+030009999GA2071+060009999GF107991999999999999999999MA1102571999999MW1001REMMET074RKSV 0157Z 25008KT 9999 FEW100 BKN200 02/M03 A3029 RMK CIG200/ QFF1028PT4;
0157471084999992000010104004+37780+126370FM-15+0250RKSV V0202401N002612200019N0112651N1+00401-00201999999ADDGA1021+009009999GA2021+060009999GF104991999999999999999999MA1102441999999MW1001REMMET066RKSV 0358Z 24005KT 9999 FEW030 SCT200 04/M02 A3025 RMK QFF1026PT7;
0164471084999992000010105004+37780+126370FM-15+0250RKSV V0203301N000510600019N0112651N1+00501+00001999999ADDGA1021+009009999GA2071+060009999GF107991999999999999999999MA1102371999999MW1001REMMET073RKSV 0457Z 33001KT 9999 FEW030 BKN200 05/00 A3023 RMK CIG200/ QFF1025PT9;
0165471084999992000010105564+37780+126370FM-16+0250RKSV V0203401N001010600019N0112651N1+00601-00101999999ADDGA1021+009009999GA2071+060009999GF107991999999999999999999MA1102301999999MW1001REMMET074RKSV 0556Z 34002KT 9999 SCT030 BKN200 06/M01 A3021 RMK CIG200/ QFF1025PT1;
0165471084999992000010106004+37780+126370FM-15+0250RKSV V0202901N000510600019N0112651N1+00501-00101999999ADDGA1021+009009999GA2071+060009999GF107991999999999999999999MA1102271999999MW1001REMMET074RKSV 0658Z 29001KT 9999 FEW030 BKN200 05/M01 A3020 RMK CIG200/ QFF1024PT8;
0165471084999992000010107004+37780+126370FM-15+0250RKSV V0202901N000510600019N0112651N1+00501-00101999999ADDGA1021+009009999GA2071+060009999GF107991999999999999999999MA1102271999999MW1001REMMET074RKSV 0658Z 29001KT 9999 FEW030 BKN200 05/M01 A3020 RMK CIG200/ QFF1024PT8;
0187471084999992000010108004+37780+126370FM-15+0250RKSV V0202301N003610600019N0090001N1+00501-00201999999ADDGA1021+036009999GA2071+060009999GF107991999999999999999999MA1102271999999MW1051REMMET077RKSV 0757Z 23007KT 9000 HZ SCT120 BKN200 05/M02 A3020 RMK CIG200/ QFF1024PT9;EQDQ01    003PRSWM1
0187471084999992000010109004+37780+126370FM-15+0250RKSV V0201701N005710600019N0090001N1+00501-00201999999ADDGA1021+030009999GA2071+060009999GF107991999999999999999999MA1102271999999MW1051REMMET077RKSV 0858Z 17011KT 9000 HZ SCT100 BKN200 05/M02 A3020 RMK CIG200/ QFF1024PT9;EQDQ01    003PRSWM1
0165471084999992000010110004+37780+126370FM-15+0250RKSV V0201601N005110300019N0112651N1+00501-00101999999ADDGA1071+030009999GA2071+060009999GF107991999999999999999999MA1102271999999MW1001REMMET074RKSV 0957Z 16010KT 9999 BKN100 BKN200 05/M01 A3020 RMK CIG100/ QFF1024PT9;
0165471084999992000010111004+37780+126370FM-15+0250RKSV V0201301N006210300019N0112651N1+00501-00101999999ADDGA1071+030009999GA2071+060009999GF107991999999999999999999MA1102241999999MW1001REMMET074RKSV 1057Z 13012KT 9999 BKN100 BKN200 05/M01 A3019 RMK CIG100/ QFF1024PT6;
0176471084999992000010112004+37780+126370FM-15+0250RKSV V0201401N005110300019N0112651N1+00501+00001999999ADDGA1071+030009999GA2071+060009999GF107991999999999999999999MA1102241999999MW1001OC101031REMMET077RKSV 1156Z 14010G020KT 9999 BKN100 BKN200 05/00 A3019 RMK CIG100/ QFF1024PT6;
0199471084999992000010113004+37780+126370FM-15+0250RKSV V0201401N006710300019N0112651N1+00501+00001999999ADDGA1021+009009999GA2071+030009999GA3081+060009999GF108991999999999999999999MA1102131999999MW1001OC101291REMMET084RKSV 1257Z 14013G025KT 9999 FEW030 BKN100 OVC200 05/00 A3016 RMK CIG100/ QFF1023PT7;
0147471084999992000010113504+37780+126370FM-16+0250RKSV V0201301N005110300019N0112651N1+99999+99999999999ADDGA1021+009009999GA2081+030009999GF108991999999999999999999MW1001MW2611OC101081REMMET057RKSV 1350Z 13010G021KT 9999 -RA SCT030 OVC100 RMK CIG100;
0205471084999992000010114004+37780+126370FM-15+0250RKSV V0201401N005110090019N0112651N1+00501+00201999999ADDGA1071+009009999GA2081+030009999GF108991999999999999999999MA1102071999999MW1611OC101031REMMET087RKSV 1358Z 14010G020KT 9999 -RA BKN030 OVC100 05/02 A3014 RMK CIG030/1RA00/ QFF1023PT1;EQDQ01    003PRSWM1
0205471084999992000010115004+37780+126370FM-15+0250RKSV V0201501N006210090019N0112651N1+00501+00201999999ADDGA1071+009009999GA2081+030009999GF108991999999999999999999MA1102071999999MW1611OC101231REMMET087RKSV 1456Z 15012G024KT 9999 -RA BKN030 OVC100 05/02 A3014 RMK CIG030/1RA00/ QFF1023PT0;EQDQ01    003PRSWM1
0205471084999992000010116004+37780+126370FM-15+0250RKSV V0201401N005710090019N0112651N1+00501+00101999999ADDGA1071+009009999GA2081+030009999GF108991999999999999999999MA1101901999999MW1611OC101131REMMET087RKSV 1556Z 14011G022KT 9999 -RA BKN030 OVC100 05/01 A3009 RMK CIG030/1RA01/ QFF1021PT7;EQDQ01    003PRSWM1
0142471084999992000010116304+37780+126370FM-16+0250RKSV V0201301N005710300019N0112651N1+99999+99999999999ADDGA1021+009009999GA2071+030009999GF107991999999999999999999MW1001OC101181REMMET058RKSV 1630Z 13011G023KT 9999 RERA SCT030 BKN100 RMK CIG100;
0187471084999992000010117004+37780+126370FM-15+0250RKSV V0201301N005110300019N0112651N1+00401+00101999999ADDGA1021+009009999GA2071+030009999GF107991999999999999999999MA1101801999999MW1001OC101081REMMET088RKSV 1658Z 13010G021KT 9999 RERA SCT030 BKN100 04/01 A3006 RMK CIG100/1RA00/ QFF1020PT5;
0182471084999992000010118004+37780+126370FM-15+0250RKSV V0201501N005710300019N0112651N1+00501+00101999999ADDGA1021+009009999GA2081+030009999GF108991999999999999999999MA1101731999999MW1001OC101081REMMET083RKSV 1757Z 15011G021KT 9999 SCT030 OVC100 05/01 A3004 RMK CIG100/6RA01/ QFF1019PT7;
0147471084999992000010119054+37780+126370FM-16+0250RKSV V0201401N008210090019N0112651N1+99999+99999999999ADDGA1071+009009999GA2081+030009999GF108991999999999999999999MW1001MW2611OC101441REMMET057RKSV 1905Z 14016G028KT 9999 -RA BKN030 OVC100 RMK CIG030;
0205471084999992000010120004+37780+126370FM-15+0250RKSV V0201501N007710090019N0112651N1+00401+00201999999ADDGA1071+009009999GA2081+030009999GF108991999999999999999999MA1101491999999MW1611OC101291REMMET087RKSV 1958Z 15015G025KT 9999 -RA BKN030 OVC100 04/02 A2997 RMK CIG030/1RA00/ QFF1017PT2;EQDQ01    003PRSWM1
0205471084999992000010121004+37780+126370FM-15+0250RKSV V0201701N012310090019N0090001N1+00401+00201999999ADDGA1071+009009999GA2081+030009999GF108991999999999999999999MA1101321999999MW1611OC101851REMMET087RKSV 2057Z 17024G036KT 9000 -RA BKN030 OVC100 04/02 A2992 RMK CIG030/1RA02/ QFF1015PT6;EQDQ01    003PRSWM1
0182471084999992000010122004+37780+126370FM-15+0250RKSV V0201601N012310090019N0090001N1+00401+00201999999ADDGA1081+009009999GF108991999999999999999999MA1101191999999MW1611OC101801REMMET080RKSV 2156Z 16024G035KT 9000 -RA OVC030 04/02 A2988 RMK CIG030/1RA05/ QFF1014PT6;EQDQ01    003PRSWM1
0204471084999992000010123004+37780+126370FM-15+0250RKSV V0201401N013910090019N0048001N1+00401+00301999999ADDGA1021+003609999GA2081+009009999GF108991999999999999999999MA1101221999999MW1631OC102161REMMET086RKSV 2258Z 14027G042KT 4800 RA SCT012 OVC030 04/03 A2989 RMK CIG030/1RA20/ QFF1015PT0;EQDQ01    003PRSWM1
0170471084999992000010123134+37780+126370FM-16+0250RKSV V0201401N012910036019N0032001N1+99999+99999999999ADDGA1011+000159999GA2071+003609999GA3081+009009999GF108991999999999999999999MW1001MW2631OC101851REMMET064RKSV 2313Z 14025G036KT 3200 RA 1FG/// BKN012 OVC030 RMK CIGE012;
0147471084999992000010123314+37780+126370FM-16+0250RKSV V0201501N010310036019N0016001N1+99999+99999999999ADDGA1031+000159999GA2081+003609999GF108991999999999999999999MW1001MW2631OC101651REMMET057RKSV 2331Z 15020G032KT 1600 RA 3FG/// OVC012 RMK CIGE012;
0082471084999992000010123434+37780+126370FM-16+0250RKSV V0201601N009810001519N0000001N1+99999+99999999999ADDMW1001MW2631OC101541REMMET050RKSV 2343Z 16019G030KT 0000 RA 9FG000 RMK CIGW000;
0137471084999992000010200004+37780+126370FM-15+0250RKSV V0201701N008710001519N0000001N1+99999+99999999999ADDMW1001MW2631OC101441REMMET086RKSV 2357Z 17017G028KT 0000 RA 9FG000 03/03 A2993 RMK CIGW000/1RA14/6RA41/ QFF1015PT9;EQDQ01+000003PRSWM1
0089471084999992000010201304+37780+126370FM-16+0250RKSV V0201801N006210001519N0000001N1+99999+99999999999ADDMW1001MW2441REMMET046RKSV 0130Z 18012KT 0000 FG 9FG000 RMK CIGW000;EQDQ01+000003PRSWM1
0119471084999992000010202004+37780+126370FM-15+0250RKSV V0201701N006710001519N0000001N1+99999+99999999999ADDMW1001MW2441REMMET076RKSV 0157Z 17013KT 0000 FG 9FG000 03/02 A2996 RMK CIGW000/1RA00/ QFF1016PT9;EQDQ01+000003PRSWM1
0177471084999992000010202284+37780+126370FM-16+0250RKSV V0202101N006210036019N0016001N1+99999+99999999999ADDGA1031+000159999GA2071+003609999GA3081+009009999GF108991999999999999999999MW1001MW2101REMMET060RKSV 0228Z 21012KT 1600 BR 3FG/// BKN012 OVC030 RMK CIGE012;EQDQ01+000003PRSWM1
0153471084999992000010202484+37780+126370FM-16+0250RKSV V0202301N003610090019N0048001N1+99999+99999999999ADDGA1021+004509999GA2071+009009999GF107991999999999999999999MW1001MW2101REMMET052RKSV 0248Z 23007KT 4800 BR SCT015 BKN030 RMK CIG030;EQDQ01+000003PRSWM1
0202471084999992000010203004+37780+126370FM-15+0250RKSV V0202401N002110090019N0060001N1+00201+00101999999ADDGA1021+004509999GA2071+009009999GF107991999999999999999999MA1101421999999MW1101REMMET076RKSV 0256Z 24004KT 6000 BR FEW015 BKN030 02/01 A2995 RMK CIG030/ QFF1016PT6;EQDQ01+000003PRSWM1Q02    003PRSWM1
0203471084999992000010204004+37780+126370FM-15+0250RKSV V0202901N004110090019N0060001N1+00201-00101999999ADDGA1021+004509999GA2071+009009999GF107991999999999999999999MA1101351999999MW1101REMMET077RKSV 0357Z 29008KT 6000 BR SCT015 BKN030 02/M01 A2993 RMK CIG030/ QFF1016PT0;EQDQ01+000003PRSWM1Q02    003PRSWM1
0202471084999992000010205004+37780+126370FM-15+0250RKSV V0203401N004110090019N0060001N1+00301+00001999999ADDGA1021+004509999GA2071+009009999GF107991999999999999999999MA1101351999999MW1101REMMET076RKSV 0458Z 34008KT 6000 BR SCT015 BKN030 03/00 A2993 RMK CIG030/ QFF1016PT0;EQDQ01+000003PRSWM1Q02    003PRSWM1
0209471084999992000010206004+37780+126370FM-15+0250RKSV V0203301N002610090019N0060001N1+00301-00101999999ADDGA1021+004509999GA2071+009009999GF107991999999999999999999MA1101351999999MW1101REMMET083RKSV 0556Z 33005KT 6000 BR FEW015 BKN030 03/M01 A2993 RMK CIG030/6RA03/ QFF1016PT0;EQDQ01+000003PRSWM1Q02    003PRSWM1
0184471084999992000010207004+37780+126370FM-15+0250RKSV V0203401N003112200019N0080001N1+00201-00201999999ADDGA1021+009009999GF104991999999999999999999MA1101461999999MW1101OC100871REMMET066RKSV 0657Z 34006G017KT 8000 BR SCT030 02/M02 A2996 RMK QFF1017PT1;EQDQ01+000003PRSWM1Q02    003PRSWM1
0172471084999992000010208004+37780+126370FM-15+0250RKSV V0203301N003612200019N0090001N1+00101-00201999999ADDGA1021+009009999GF102991999999999999999999MA1101521999999MW1101REMMET062RKSV 0758Z 33007KT 9000 BR FEW030 01/M02 A2998 RMK QFF1017PT8;EQDQ01+000003PRSWM1Q02    003PRSWM1
0173471084999992000010209004+37780+126370FM-15+0250RKSV V0203201N004612200019N0090001N1-00101-00401999999ADDGA1021+009009999GF102991999999999999999999MA1101561999999MW1101REMMET063RKSV 0857Z 32009KT 9000 BR FEW030 M01/M04 A2999 RMK QFF1018PT2;EQDQ01+000003PRSWM1Q02    003PRSWM1
0105471084999992000010210004+37780+126370FM-15+0250RKSV V0203501N004112200019N0112651N1+99999+99999999999ADDMA1101631999999MW1001REMMET053RKSV 0958Z 35008KT 9999 M02/M06 A3001 RMK QFF1018PT9;EQDQ01+000000PRSWM2
0105471084999992000010211004+37780+126370FM-15+0250RKSV V0203301N004612200019N0112651N1+99999+99999999999ADDMA1101661999999MW1001REMMET053RKSV 1056Z 33009KT 9999 M03/M06 A3002 RMK QFF1019PT3;EQDQ01+000000PRSWM2
0117471084999992000010212004+37780+126370FM-15+0250RKSV V0203201N005112200019N0112651N1+99999+99999999999ADDMA1101691999999MW1001OC101031REMMET057RKSV 1157Z 32010G020KT 9999 M03/M06 A3003 RMK QFF1019PT7;EQDQ01+000000PRSWM2
0105471084999992000010213004+37780+126370FM-15+0250RKSV V0203001N003612200019N0112651N1+99999+99999999999ADDMA1101691999999MW1001REMMET053RKSV 1257Z 30007KT 9999 M04/M07 A3003 RMK QFF1019PT8;EQDQ01+000000PRSWM2
0105471084999992000010214004+37780+126370FM-15+0250RKSV V0203301N003112200019N0112651N1+99999+99999999999ADDMA1101731999999MW1001REMMET053RKSV 1358Z 33006KT 9999 M04/M07 A3004 RMK QFF1020PT2;EQDQ01+000000PRSWM2
0112471084999992000010215004+37780+126370FM-15+0250RKSV V0203401N002612200019N0112651N1+99999+99999999999ADDMA1101761999999MW1001REMMET060RKSV 1456Z 34005KT 9999 M05/M08 A3005 RMK 20045/ QFF1020PT6;EQDQ01+000000PRSWM2
0105471084999992000010216004+37780+126370FM-15+0250RKSV V0203501N003112200019N0112651N1+99999+99999999999ADDMA1101801999999MW1001REMMET053RKSV 1557Z 35006KT 9999 M05/M08 A3006 RMK QFF1021PT0;EQDQ01+000000PRSWM2
0154471084999992000010217004+37780+126370FM-15+0250RKSV V0203401N004112200019N0112651N1-00601-00901999999ADDGA1021+009009999GF102991999999999999999999MA1101801999999MW1001REMMET060RKSV 1656Z 34008KT 9999 FEW030 M06/M09 A3006 RMK QFF1021PT0;EQDQ01+000000PRSWM2
0105471084999992000010218004+37780+126370FM-15+0250RKSV V0203301N005712200019N0112651N1+99999+99999999999ADDMA1101861999999MW1001REMMET053RKSV 1757Z 33011KT 9999 M06/M10 A3008 RMK QFF1021PT6;EQDQ01+000000PRSWM2
0105471084999992000010219004+37780+126370FM-15+0250RKSV V0203401N003612200019N0112651N1+99999+99999999999ADDMA1101931999999MW1001REMMET053RKSV 1858Z 34007KT 9999 M07/M11 A3010 RMK QFF1022PT3;EQDQ01+000000PRSWM2
0154471084999992000010220004+37780+126370FM-15+0250RKSV V0203201N003112200019N0112651N1-00801-01201999999ADDGA1021+009009999GF102991999999999999999999MA1101931999999MW1001REMMET060RKSV 1956Z 32006KT 9999 FEW030 M08/M12 A3010 RMK QFF1022PT4;EQDQ01+000000PRSWM2
0105471084999992000010221004+37780+126370FM-15+0250RKSV V0203201N005112200019N0112651N1+99999+99999999999ADDMA1101901999999MW1001REMMET053RKSV 2057Z 32010KT 9999 M08/M12 A3009 RMK QFF1022PT1;EQDQ01+000000PRSWM2
0154471084999992000010222004+37780+126370FM-15+0250RKSV V0203301N004112200019N0112651N1-00801-01401999999ADDGA1021+009009999GF102991999999999999999999MA1102031999999MW1001REMMET060RKSV 2158Z 33008KT 9999 FEW030 M08/M14 A3013 RMK QFF1023PT3;EQDQ01+000000PRSWM2
0105471084999992000010223004+37780+126370FM-15+0250RKSV V0203201N004612200019N0112651N1+99999+99999999999ADDMA1102031999999MW1001REMMET053RKSV 2256Z 32009KT 9999 M08/M15 A3013 RMK QFF1023PT4;EQDQ01+000000PRSWM2
0105471084999992000010300004+37780+126370FM-15+0250RKSV V0203101N004612200019N0112651N1+99999+99999999999ADDMA1102071999999MW1001REMMET053RKSV 2357Z 31009KT 9999 M08/M14 A3014 RMK QFF1023PT7;EQDQ01+000000PRSWM2
0154471084999992000010301004+37780+126370FM-15+0250RKSV V0203301N003612200019N0112651N1-00701-01401999999ADDGA1021+060009999GF102991999999999999999999MA1102131999999MW1001REMMET060RKSV 0056Z 33007KT 9999 FEW200 M07/M14 A3016 RMK QFF1024PT7;EQDQ01+000000PRSWM2
0154471084999992000010302004+37780+126370FM-15+0250RKSV V0203301N002612200019N0112651N1-00601-01201999999ADDGA1021+060009999GF102991999999999999999999MA1102201999999MW1001REMMET060RKSV 0157Z 33005KT 9999 FEW200 M06/M12 A3018 RMK QFF1025PT4;EQDQ01+000000PRSWM2
0154471084999992000010303004+37780+126370FM-15+0250RKSV V0202701N002112200019N0112651N1-00501-01201999999ADDGA1021+060009999GF102991999999999999999999MA1102171999999MW1001REMMET060RKSV 0256Z 27004KT 9999 FEW200 M05/M12 A3017 RMK QFF1025PT0;EQDQ01+000000PRSWM2
0154471084999992000010304004+37780+126370FM-15+0250RKSV V0203001N002112200019N0112651N1-00501-01101999999ADDGA1021+060009999GF102991999999999999999999MA1102131999999MW1001REMMET060RKSV 0357Z 30004KT 9999 FEW200 M05/M11 A3016 RMK QFF1024PT7;EQDQ01+000000PRSWM2
0102471084999992000010305004+37780+126370FM-15+0250RKSV V0202601N002610600019N0112651N1+99999+99999999999ADDMW1001REMMET065RKSV 0456Z 26005KT 9999 200 M04/M11 A3016 RMK CIG200/ QFF1024PT7;EQDQ01+000000PRSWM2
0154471084999992000010306004+37780+126370FM-15+0250RKSV V0202401N002112200019N0112651N1-00301-01001999999ADDGA1021+060009999GF104991999999999999999999MA1102101999999MW1001REMMET060RKSV 0557Z 24004KT 9999 SCT200 M03/M10 A3015 RMK QFF1024PT3;EQDQ01+000000PRSWM2
0154471084999992000010307004+37780+126370FM-15+0250RKSV V0202901N001012200019N0112651N1-00301-01001999999ADDGA1021+060009999GF102991999999999999999999MA1102131999999MW1001REMMET060RKSV 0656Z 29002KT 9999 FEW200 M03/M10 A3016 RMK QFF1024PT6;EQDQ01+000000PRSWM2
0154471084999992000010308004+37780+126370FM-15+0250RKSV V0203101N002112200019N0112651N1-00401-01001999999ADDGA1021+060009999GF102991999999999999999999MA1102131999999MW1001REMMET060RKSV 0757Z 31004KT 9999 FEW200 M04/M10 A3016 RMK QFF1024PT6;EQDQ01+000000PRSWM2
0154471084999992000010309004+37780+126370FM-15+0250RKSV V0202901N002612200019N0112651N1-00501-01201999999ADDGA1021+060009999GF102991999999999999999999MA1102201999999MW1001REMMET060RKSV 0858Z 29005KT 9999 FEW200 M05/M12 A3018 RMK QFF1025PT3;EQDQ01+000000PRSWM2
0154471084999992000010310004+37780+126370FM-15+0250RKSV V0203201N003112200019N0112651N1-00601-01101999999ADDGA1021+060009999GF102991999999999999999999MA1102201999999MW1001REMMET060RKSV 0956Z 32006KT 9999 FEW200 M06/M11 A3018 RMK QFF1025PT3;EQDQ01+000000PRSWM2
0154471084999992000010311004+37780+126370FM-15+0250RKSV V0203301N003612200019N0112651N1-00601-01201999999ADDGA1021+060009999GF102991999999999999999999MA1102271999999MW1001REMMET060RKSV 1058Z 33007KT 9999 FEW200 M06/M12 A3020 RMK QFF1026PT0;EQDQ01+000000PRSWM2
0154471084999992000010312004+37780+126370FM-15+0250RKSV V0203401N004612200019N0112651N1-00601-01201999999ADDGA1021+060009999GF102991999999999999999999MA1102271999999MW1001REMMET060RKSV 1157Z 34009KT 9999 FEW200 M06/M12 A3020 RMK QFF1026PT1;EQDQ01+000000PRSWM2
0154471084999992000010313004+37780+126370FM-15+0250RKSV V0203301N004112200019N0112651N1-00601-01101999999ADDGA1021+060009999GF102991999999999999999999MA1102271999999MW1001REMMET060RKSV 1256Z 33008KT 9999 FEW200 M06/M11 A3020 RMK QFF1026PT1;EQDQ01+000000PRSWM2
0154471084999992000010314004+37780+126370FM-15+0250RKSV V0203301N003112200019N0112651N1-00601-01201999999ADDGA1021+060009999GF102991999999999999999999MA1102301999999MW1001REMMET060RKSV 1358Z 33006KT 9999 FEW200 M06/M12 A3021 RMK QFF1026PT4;EQDQ01+000000PRSWM2
0154471084999992000010315004+37780+126370FM-15+0250RKSV V0203101N002612200019N0112651N1-00701-01101999999ADDGA1021+060009999GF102991999999999999999999MA1102341999999MW1001REMMET060RKSV 1457Z 31005KT 9999 FEW200 M07/M11 A3022 RMK QFF1026PT7;EQDQ01+000000PRSWM2
0154471084999992000010316004+37780+126370FM-15+0250RKSV V0203301N004112200019N0112651N1-00701-01001999999ADDGA1021+060009999GF102991999999999999999999MA1102341999999MW1001REMMET060RKSV 1556Z 33008KT 9999 FEW200 M07/M10 A3022 RMK QFF1026PT6;EQDQ01+000000PRSWM2
0154471084999992000010317004+37780+126370FM-15+0250RKSV V0203401N005112200019N0112651N1-00701-01101999999ADDGA1021+060009999GF102991999999999999999999MA1102341999999MW1001REMMET060RKSV 1657Z 34010KT 9999 FEW200 M07/M11 A3022 RMK QFF1026PT6;EQDQ01+000000PRSWM2
0105471084999992000010318004+37780+126370FM-15+0250RKSV V0203401N006212200019N0112651N1+99999+99999999999ADDMA1102341999999MW1001REMMET053RKSV 1758Z 34012KT 9999 M08/M13 A3022 RMK QFF1026PT6;EQDQ01+000000PRSWM2
0105471084999992000010319004+37780+126370FM-15+0250RKSV V0203301N003112200019N0112651N1+99999+99999999999ADDMA1102341999999MW1001REMMET053RKSV 1857Z 33006KT 9999 M07/M12 A3022 RMK QFF1026PT6;EQDQ01+000000PRSWM2
0105471084999992000010320004+37780+126370FM-15+0250RKSV V0203401N002612200019N0112651N1+99999+99999999999ADDMA1102301999999MW1001REMMET053RKSV 1956Z 34005KT 9999 M06/M12 A3021 RMK QFF1026PT3;EQDQ01+000000PRSWM2
0154471084999992000010321004+37780+126370FM-15+0250RKSV V0203601N004112200019N0112651N1-00401-01001999999ADDGA1021+060009999GF102991999999999999999999MA1102301999999MW1001REMMET060RKSV 2057Z 36008KT 9999 FEW200 M04/M10 A3021 RMK QFF1026PT3;EQDQ01+000000PRSWM2
0154471084999992000010322004+37780+126370FM-15+0250RKSV V0200201N003612200019N0112651N1-00501-01001999999ADDGA1021+060009999GF102991999999999999999999MA1102341999999MW1001REMMET060RKSV 2156Z 02007KT 9999 FEW200 M05/M10 A3022 RMK QFF1026PT7;EQDQ01+000000PRSWM2
0154471084999992000010323004+37780+126370FM-15+0250RKSV V0203601N003112200019N0112651N1-00401-01101999999ADDGA1021+060009999GF102991999999999999999999MA1102341999999MW1001REMMET060RKSV 2258Z 36006KT 9999 FEW200 M04/M11 A3022 RMK QFF1026PT6;EQDQ01+000000PRSWM2
0154471084999992000010400004+37780+126370FM-15+0250RKSV V0203501N004112200019N0112651N1-00301-01001999999ADDGA1021+060009999GF102991999999999999999999MA1102371999999MW1001REMMET060RKSV 2356Z 35008KT 9999 FEW200 M03/M10 A3023 RMK QFF1026PT9;EQDQ01+000000PRSWM2
0105471084999992000010401004+37780+126370FM-15+0250RKSV V0203301N003112200019N0112651N1+99999+99999999999ADDMA1102371999999MW1001REMMET053RKSV 0057Z 33006KT 9999 M03/M10 A3023 RMK QFF1026PT9;EQDQ01+000000PRSWM2
0105471084999992000010402004+37780+126370FM-15+0250RKSV V0203401N002112200019N0112651N1+99999+99999999999ADDMA1102401999999MW1001REMMET053RKSV 0156Z 34004KT 9999 M02/M10 A3024 RMK QFF1027PT2;EQDQ01+000000PRSWM2
0105471084999992000010403004+37780+126370FM-15+0250RKSV V0203301N002612200019N0112651N1+99999+99999999999ADDMA1102401999999MW1001REMMET053RKSV 0258Z 33005KT 9999 M02/M12 A3024 RMK QFF1027PT2;EQDQ01+000000PRSWM2
0114471084999992000010404004+37780+126370FM-15+0250RKSV V0203301N001012200019N0090001N1+99999+99999999999ADDMA1102371999999MW1001MW2051REMMET056RKSV 0357Z 33002KT 9000 HZ M01/M10 A3023 RMK QFF1027PT0;EQDQ01+000003PRSWM1
0145471084999992000010404404+37780+126370FM-16+0250RKSV V0203301N002112200019N0090001N1+99999+99999999999ADDGA1021+060009999GF104991999999999999999999MA1102371999999MW1001MW2051REMMET045RKSV 0440Z 33004KT 9000 HZ SCT200 A3023 RMK ;EQDQ01+000003PRSWM1
0172471084999992000010405004+37780+126370FM-15+0250RKSV V0203101N001512200019N0090001N1+00101-00901999999ADDGA1021+060009999GF104991999999999999999999MA1102341999999MW1051REMMET062RKSV 0458Z 31003KT 9000 HZ SCT200 01/M09 A3022 RMK QFF1026PT7;EQDQ01+000003PRSWM1Q02    003PRSWM1
0180471084999992000010406004+37780+126370FM-15+0250RKSV V0203501N003110600019N0090001N1+00101-01001999999ADDGA1071+060009999GF107991999999999999999999MA1102341999999MW1051REMMET070RKSV 0556Z 35006KT 9000 HZ BKN200 01/M10 A3022 RMK CIG200/ QFF1026PT7;EQDQ01+000003PRSWM1Q02    003PRSWM1
0180471084999992000010407004+37780+126370FM-15+0250RKSV V0203501N002610600019N0090001N1+00001-01001999999ADDGA1071+060009999GF107991999999999999999999MA1102341999999MW1051REMMET070RKSV 0657Z 35005KT 9000 HZ BKN200 00/M10 A3022 RMK CIG200/ QFF1026PT7;EQDQ01+000003PRSWM1Q02    003PRSWM1
0204471084999992000010408004+37780+126370FM-15+0250RKSV V0203101N001510600019N0090001N1+00001-01101999999ADDGA1021+030009999GA2071+060009999GF107991999999999999999999MA1102341999999MW1051REMMET078RKSV 0758Z 31003KT 9000 HZ SCT100 BKN200 M00/M11 A3022 RMK CIG200/ QFF1026PT7;EQDQ01+000003PRSWM1Q02    003PRSWM1
0174471084999992000010408214+37780+126370FM-16+0250RKSV V0209999C000010300019N0090001N1+99999+99999999999ADDGA1071+030009999GA2071+060009999GF107991999999999999999999MA1102341999999MW1001MW2051REMMET058RKSV 0821Z 00000KT 9000 HZ BKN100 BKN200 A3022 RMK CIG100;EQDQ01+000003PRSWM1
0204471084999992000010409004+37780+126370FM-15+0250RKSV V0203001N001010300019N0090001N1+00001-00801999999ADDGA1071+030009999GA2071+060009999GF107991999999999999999999MA1102341999999MW1051REMMET078RKSV 0857Z 30002KT 9000 HZ BKN100 BKN200 M00/M08 A3022 RMK CIG100/ QFF1026PT6;EQDQ01+000003PRSWM1Q02    003PRSWM1
0185471084999992000010410004+37780+126370FM-15+0250RKSV V0203201N003110300019N0112651N1+00001-00801999999ADDGA1071+030009999GA2071+060009999GF107991999999999999999999MA1102341999999MW1001REMMET075RKSV 0956Z 32006KT 9999 BKN100 BKN200 M00/M08 A3022 RMK CIG100/ QFF1026PT5;EQDQ01+000000PRSWM2
0185471084999992000010411004+37780+126370FM-15+0250RKSV V0202801N002110600019N0112651N1-00101-01001999999ADDGA1021+030009999GA2071+060009999GF107991999999999999999999MA1102341999999MW1001REMMET075RKSV 1057Z 28004KT 9999 SCT100 BKN200 M01/M10 A3022 RMK CIG200/ QFF1026PT5;EQDQ01+000000PRSWM2
0196471084999992000010412004+37780+126370FM-15+0250RKSV V0203201N005112200019N0090001N1-00101-01001999999ADDGA1021+030009999GA2021+060009999GF104991999999999999999999MA1102341999999MW1051REMMET070RKSV 1156Z 32010KT 9000 HZ FEW100 SCT200 M01/M10 A3022 RMK QFF1026PT4;EQDQ01+000003PRSWM1Q02    003PRSWM1
0196471084999992000010413004+37780+126370FM-15+0250RKSV V0203301N005712200019N0090001N1-00101-00801999999ADDGA1021+030009999GA2021+060009999GF104991999999999999999999MA1102301999999MW1051REMMET070RKSV 1258Z 33011KT 9000 HZ FEW100 SCT200 M01/M08 A3021 RMK QFF1026PT0;EQDQ01+000003PRSWM1Q02    003PRSWM1
0185471084999992000010414004+37780+126370FM-15+0250RKSV V0203401N006710300019N0112651N1-00101-00601999999ADDGA1071+030009999GA2071+060009999GF107991999999999999999999MA1102301999999MW1001REMMET075RKSV 1357Z 34013KT 9999 BKN100 BKN200 M01/M06 A3021 RMK CIG100/ QFF1025PT9;EQDQ01+000000PRSWM2
0185471084999992000010415004+37780+126370FM-15+0250RKSV V0203401N007210300019N0112651N1-00101-00501999999ADDGA1071+030009999GA2081+060009999GF108991999999999999999999MA1102241999999MW1001REMMET075RKSV 1456Z 34014KT 9999 BKN100 OVC200 M01/M05 A3019 RMK CIG100/ QFF1025PT2;EQDQ01+000000PRSWM2
0197471084999992000010416004+37780+126370FM-15+0250RKSV V0203301N004610300019N0112651N1-00101-00501999999ADDGA1071+030009999GA2081+060009999GF108991999999999999999999MA1102241999999MW1001OC100981REMMET079RKSV 1557Z 33009G019KT 9999 BKN100 OVC200 M01/M05 A3019 RMK CIG100/ QFF1025PT1;EQDQ01+000000PRSWM2
0197471084999992000010417004+37780+126370FM-15+0250RKSV V0203401N008210300019N0112651N1-00101-00501999999ADDGA1071+030009999GA2081+060009999GF108991999999999999999999MA1102201999999MW1001OC101441REMMET079RKSV 1656Z 34016G028KT 9999 BKN100 OVC200 M01/M05 A3018 RMK CIG100/ QFF1024PT7;EQDQ01+000000PRSWM2
0197471084999992000010418004+37780+126370FM-15+0250RKSV V0203401N006710300019N0112651N1+00001-00501999999ADDGA1071+030009999GA2081+060009999GF108991999999999999999999MA1102271999999MW1001OC101231REMMET079RKSV 1758Z 34013G024KT 9999 BKN100 OVC200 M00/M05 A3020 RMK CIG100/ QFF1025PT3;EQDQ01+000000PRSWM2
0197471084999992000010419004+37780+126370FM-15+0250RKSV V0203301N006710300019N0112651N1-00101-00501999999ADDGA1071+030009999GA2081+060009999GF108991999999999999999999MA1102171999999MW1001OC101291REMMET079RKSV 1857Z 33013G025KT 9999 BKN100 OVC200 M01/M05 A3017 RMK CIG100/ QFF1024PT2;EQDQ01+000000PRSWM2
0197471084999992000010420004+37780+126370FM-15+0250RKSV V0203501N005110300019N0112651N1-00101-00501999999ADDGA1021+009009999GA2081+030009999GF108991999999999999999999MA1102101999999MW1001OC101081REMMET079RKSV 1956Z 35010G021KT 9999 FEW030 OVC100 M01/M05 A3015 RMK CIG100/ QFF1023PT6;EQDQ01+000000PRSWM2
0166471084999992000010420054+37780+126370FM-16+0250RKSV V0203401N004110300019N0112651N1+99999+99999999999ADDGA1021+009009999GA2081+030009999GF108991999999999999999999MW1001MW2711OC100931REMMET057RKSV 2005Z 34008G018KT 9999 -SN SCT030 OVC100 RMK CIG100;EQDQ01+000003PRSWM1
0223471084999992000010421004+37780+126370FM-15+0250RKSV V0203401N004610090019N0080001N1-00201-00401999999ADDGA1071+009009999GA2081+030009999GF108991999999999999999999MA1102131999999MW1711OC101031REMMET089RKSV 2057Z 34009G020KT 8000 -SN BKN030 OVC100 M02/M04 A3016 RMK CIG030/1SN00/ QFF1023PT9;EQDQ01+000003PRSWM1Q02    003PRSWM1
0177471084999992000010421364+37780+126370FM-16+0250RKSV V0203401N006210090019N0032001N1+99999+99999999999ADDGA1011+000159999GA2021+003609999GA3081+009009999GF108991999999999999999999MW1001MW2711REMMET060RKSV 2136Z 34012KT 3200 -SN 1FG/// SCT012 OVC030 RMK CIG030;EQDQ01+000003PRSWM1
0235471084999992000010422004+37780+126370FM-15+0250RKSV V0203201N004110030019N0016001N1-00201-00301999999ADDGA1031+000159999GA2071+003009999GA3081+009009999GF108991999999999999999999MA1102071999999MW1711REMMET093RKSV 2158Z 32008KT 1600 -SN 3FG/// BKN010 OVC030 M02/M03 A3014 RMK CIGE010/1SN01/ QFF1023PT3;EQDQ01+000003PRSWM1Q02    003PRSWM1
0090471084999992000010422254+37780+126370FM-16+0250RKSV V0203301N006210001519N0000001N1+99999+99999999999ADDMW1001MW2711REMMET047RKSV 2225Z 33012KT 0000 -SN 9FG000 RMK CIGW000;EQDQ01+000003PRSWM1
0122471084999992000010423004+37780+126370FM-15+0250RKSV V0203201N006710001519N0000001N1+99999+99999999999ADDMW1001MW2711REMMET079RKSV 2257Z 32013KT 0000 -SN 9FG000 M02/M03 A3012 RMK CIGW000/1SN02/ QFF1022PT7;EQDQ01+000003PRSWM1
0146471084999992000010500004+37780+126370FM-15+0250RKSV V0203401N004110001519N0000001N1+99999+99999999999ADDMW1001MW2711OC100931REMMET095RKSV 2356Z 34008G018KT 0000 -SN 9FG000 M02/M03 A3010 RMK CIGW000/1SN02/6SN05/90401/ QFF1022PT4;EQDQ01+000003PRSWM1
0122471084999992000010501004+37780+126370FM-15+0250RKSV V0203501N003610001519N0000001N1+99999+99999999999ADDMW1001MW2711REMMET079RKSV 0057Z 35007KT 0000 -SN 9FG000 M02/M03 A3010 RMK CIGW000/1SN04/ QFF1022PT4;EQDQ01+000003PRSWM1
0131471084999992000010502004+37780+126370FM-15+0250RKSV V0203201N005110001519N0000001N1+99999+99999999999ADDMW1001MW2631MW3711REMMET082RKSV 0156Z 32010KT 0000 RASN 9FG000 M01/M01 A3012 RMK CIGW000/1RASN01/ QFF1022PT8;EQDQ01+000003PRSWM1
0131471084999992000010503004+37780+126370FM-15+0250RKSV V0203501N005110001519N0000001N1+99999+99999999999ADDMW1001MW2631MW3711REMMET082RKSV 0256Z 35010KT 0000 RASN 9FG000 M01/M01 A3012 RMK CIGW000/1RASN01/ QFF1022PT8;EQDQ01+000003PRSWM1
0122471084999992000010504004+37780+126370FM-15+0250RKSV V0203301N004610001519N0000001N1+99999+99999999999ADDMW1001MW2611REMMET079RKSV 0357Z 33009KT 0000 -RA 9FG000 M01/M01 A3008 RMK CIGW000/1RA00/ QFF1021PT6;EQDQ01+000003PRSWM1
0122471084999992000010505004+37780+126370FM-15+0250RKSV V0203501N003610001519N0000001N1+99999+99999999999ADDMW1001MW2611REMMET079RKSV 0458Z 35007KT 0000 -RA 9FG000 M01/M01 A3004 RMK CIGW000/1RA00/ QFF1020PT4;EQDQ01+000003PRSWM1
0129471084999992000010506004+37780+126370FM-15+0250RKSV V0203401N002610001519N0000001N1+99999+99999999999ADDMW1001MW2441REMMET086RKSV 0556Z 34005KT 0000 FG 9FG000 M00/M01 A2999 RMK CIGW000/1RA00/6RASN06/ QFF1018PT5;EQDQ01+000003PRSWM1
0115471084999992000010507004+37780+126370FM-15+0250RKSV V0203401N003110001519N0000001N1+99999+99999999999ADDMW1001MW2441REMMET072RKSV 0657Z 34006KT 0000 FG 9FG000 M00/M01 A2996 RMK CIGW000/ QFF1017PT4;EQDQ01+000003PRSWM1
0115471084999992000010508004+37780+126370FM-15+0250RKSV V0203501N004610001519N0000001N1+99999+99999999999ADDMW1001MW2441REMMET072RKSV 0757Z 35009KT 0000 FG 9FG000 M00/M01 A2996 RMK CIGW000/ QFF1017PT4;EQDQ01+000003PRSWM1
0126471084999992000010509004+37780+126370FM-15+0250RKSV V0203201N005110001519N0000001N1+99999+99999999999ADDMW1001MW2441OC101031REMMET075RKSV 0858Z 32010G020KT 0000 FG 9FG000 00/M01 A2998 RMK CIGW000/ QFF1018PT0;EQDQ01+000003PRSWM1
0189471084999992000010509104+37780+126370FM-16+0250RKSV V0203401N004110036019N0016001N1+99999+99999999999ADDGA1031+000159999GA2071+003609999GA3081+009009999GF108991999999999999999999MW1001MW2101OC100931REMMET064RKSV 0910Z 34008G018KT 1600 BR 3FG/// BKN012 OVC030 RMK CIGE012;EQDQ01+000003PRSWM1
0190471084999992000010509304+37780+126370FM-16+0250RKSV V0203301N005110036019N0016001N1+99999+99999999999ADDGA1031+000159999GA2071+003609999GA3081+009009999GF108991999999999999999999MW1001MW2611OC101031REMMET065RKSV 0930Z 33010G020KT 1600 -RA 3FG/// BKN012 OVC030 RMK CIGE012;EQDQ01+000003PRSWM1
0246471084999992000010510004+37780+126370FM-15+0250RKSV V0203201N005710036019N0016001N1+00001-00101999999ADDGA1031+000159999GA2071+003609999GA3081+009009999GF108991999999999999999999MA1101521999999MW1611OC101081REMMET096RKSV 0956Z 32011G021KT 1600 -RA 3FG/// BKN012 OVC030 00/M01 A2998 RMK CIGE012/1RA00/ QFF1018PT0;EQDQ01+000003PRSWM1Q02    003PRSWM1
0246471084999992000010511004+37780+126370FM-15+0250RKSV V0203301N005110036019N0016001N1+00101-00101999999ADDGA1031+000159999GA2071+003609999GA3081+009009999GF108991999999999999999999MA1101521999999MW1611OC101031REMMET096RKSV 1057Z 33010G020KT 1600 -RA 3FG/// BKN012 OVC030 01/M01 A2998 RMK CIGE012/1RA03/ QFF1018PT1;EQDQ01+000003PRSWM1Q02    003PRSWM1
0102471084999992000010511104+37780+126370FM-16+0250RKSV V0203201N004610001519N0000001N1+99999+99999999999ADDMW1001MW2611OC100981REMMET051RKSV 1110Z 32009G019KT 0000 -RA 9FG000 RMK CIGW000;EQDQ01+000003PRSWM1
0126471084999992000010512004+37780+126370FM-15+0250RKSV V0203301N007210001519N0000001N1+99999+99999999999ADDMW1001MW2611REMMET083RKSV 1158Z 33014KT 0000 -RA 9FG000 01/00 A2997 RMK CIGW000/1RA01/6RA04/ QFF1017PT8;EQDQ01+000003PRSWM1
0120471084999992000010513004+37780+126370FM-15+0250RKSV V0203501N006710001519N0000001N1+99999+99999999999ADDMW1001MW2611REMMET077RKSV 1257Z 35013KT 0000 -RA 9FG000 01/00 A2995 RMK CIGW000/1RA01/ QFF1017PT2;EQDQ01+000003PRSWM1
0120471084999992000010514004+37780+126370FM-15+0250RKSV V0203401N004110001519N0000001N1+99999+99999999999ADDMW1001MW2611REMMET077RKSV 1356Z 34008KT 0000 -RA 9FG000 01/00 A2993 RMK CIGW000/1RA01/ QFF1016PT5;EQDQ01+000003PRSWM1
0126471084999992000010515004+37780+126370FM-15+0250RKSV V0203501N002610001519N0000001N1+99999+99999999999ADDMW1001MW2611REMMET083RKSV 1458Z 35005KT 0000 -RA 9FG000 01/00 A2992 RMK CIGW000/1RA01/20018/ QFF1016PT1;EQDQ01+000003PRSWM1
0120471084999992000010516004+37780+126370FM-15+0250RKSV V0203001N004110001519N0000001N1+99999+99999999999ADDMW1001MW2611REMMET077RKSV 1556Z 30008KT 0000 -RA 9FG000 02/01 A2988 RMK CIGW000/1RA02/ QFF1015PT0;EQDQ01+000003PRSWM1
0119471084999992000010517004+37780+126370FM-15+0250RKSV V0203201N005110001519N0000001N1+99999+99999999999ADDMW1001MW2631REMMET076RKSV 1657Z 32010KT 0000 RA 9FG000 02/01 A2989 RMK CIGW000/1RA12/ QFF1015PT3;EQDQ01+000003PRSWM1
0120471084999992000010519004+37780+126370FM-15+0250RKSV V0202001N005710001519N0000001N1+99999+99999999999ADDMW1001MW2611REMMET077RKSV 1857Z 20011KT 0000 -RA 9FG000 04/03 A2988 RMK CIGW000/1RA06/ QFF1014PT8;EQDQ01+000003PRSWM1
0131471084999992000010521004+37780+126370FM-15+0250RKSV V0203201N005110001519N0000001N1+99999+99999999999ADDMW1001MW2441OC101031REMMET080RKSV 2057Z 32010G020KT 0000 FG 9FG000 01/00 A2985 RMK CIGW000/1RA00/ QFF1013PT9;EQDQ01+000003PRSWM1
0113471084999992000010522004+37780+126370FM-15+0250RKSV V0203301N004110001519N0000001N1+99999+99999999999ADDMW1001MW2441REMMET070RKSV 2156Z 33008KT 0000 FG 9FG000 01/00 A2987 RMK CIGW000/ QFF1014PT5;EQDQ01+000003PRSWM1
0114471084999992000010601004+37780+126370FM-15+0250RKSV V0202901N004610001519N0000001N1+99999+99999999999ADDMW1001MW2441REMMET071RKSV 0056Z 29009KT 0000 FG 9FG000 00/M00 A2993 RMK CIGW000/ QFF1016PT2;EQDQ01+000003PRSWM1
0204471084999992000010602004+37780+126370FM-15+0250RKSV V0203101N004610036019N0016001N1+00001+00001999999ADDGA1031+000159999GA2081+003609999GF108991999999999999999999MA1101351999999MW1101REMMET078RKSV 0158Z 31009KT 1600 BR 3FG/// OVC012 00/M00 A2993 RMK CIGE012/ QFF1016PT2;EQDQ01+000003PRSWM1Q02    003PRSWM1
0153471084999992000010602114+37780+126370FM-16+0250RKSV V0203101N005110090019N0048001N1+99999+99999999999ADDGA1021+004509999GA2071+009009999GF107991999999999999999999MW1001MW2101REMMET052RKSV 0211Z 31010KT 4800 BR SCT015 BKN030 RMK CIG030;EQDQ01+000003PRSWM1
0203471084999992000010603004+37780+126370FM-15+0250RKSV V0203001N003110090019N0048001N1+00101-00101999999ADDGA1021+004509999GA2081+009009999GF108991999999999999999999MA1101421999999MW1101REMMET077RKSV 0257Z 30006KT 4800 BR SCT015 OVC030 01/M01 A2995 RMK CIG030/ QFF1016PT7;EQDQ01+000003PRSWM1Q02    003PRSWM1
0203471084999992000010604004+37780+126370FM-15+0250RKSV V0202501N003610090019N0060001N1+00101-00101999999ADDGA1021+004509999GA2081+009009999GF108991999999999999999999MA1101421999999MW1101REMMET077RKSV 0356Z 25007KT 6000 BR SCT015 OVC030 01/M01 A2995 RMK CIG030/ QFF1016PT7;EQDQ01+000003PRSWM1Q02    003PRSWM1
0203471084999992000010605004+37780+126370FM-15+0250RKSV V0202101N002610090019N0060001N1+00101-00101999999ADDGA1021+004509999GA2081+009009999GF108991999999999999999999MA1101421999999MW1101REMMET077RKSV 0457Z 21005KT 6000 BR SCT015 OVC030 01/M01 A2995 RMK CIG030/ QFF1016PT7;EQDQ01+000003PRSWM1Q02    003PRSWM1
0203471084999992000010606004+37780+126370FM-15+0250RKSV V0202601N004610090019N0060001N1+00101-00201999999ADDGA1021+004509999GA2081+009009999GF108991999999999999999999MA1101421999999MW1101REMMET077RKSV 0557Z 26009KT 6000 BR FEW015 OVC030 01/M02 A2995 RMK CIG030/ QFF1016PT7;EQDQ01+000003PRSWM1Q02    003PRSWM1
0203471084999992000010607004+37780+126370FM-15+0250RKSV V0203001N004610090019N0060001N1+00101-00201999999ADDGA1021+004509999GA2081+009009999GF108991999999999999999999MA1101421999999MW1101REMMET077RKSV 0658Z 30009KT 6000 BR FEW015 OVC030 01/M02 A2995 RMK CIG030/ QFF1016PT8;EQDQ01+000003PRSWM1Q02    003PRSWM1
0204471084999992000010608004+37780+126370FM-15+0250RKSV V0203201N005110090019N0080001N1-00101-00601999999ADDGA1071+009009999GA2071+060009999GF107991999999999999999999MA1101521999999MW1101REMMET078RKSV 0756Z 32010KT 8000 BR BKN030 BKN200 M01/M06 A2998 RMK CIG030/ QFF1017PT7;EQDQ01+000003PRSWM1Q02    003PRSWM1
0185471084999992000010609004+37780+126370FM-15+0250RKSV V0203201N003110600019N0112651N1-00501-01101999999ADDGA1021+009009999GA2071+060009999GF107991999999999999999999MA1101691999999MW1001REMMET075RKSV 0857Z 32006KT 9999 FEW030 BKN200 M05/M11 A3003 RMK CIG200/ QFF1019PT7;EQDQ01+000000PRSWM2
0189471084999992000010610004+37780+126370FM-15+0250RKSV V0203101N004112200019N0112651N1-00501-01201999999ADDGA1021+009009999GA2021+060009999GF104991999999999999999999MA1101761999999MW1001OC100931REMMET071RKSV 0956Z 31008G018KT 9999 FEW030 SCT200 M05/M12 A3005 RMK QFF1020PT5;EQDQ01+000000PRSWM2
0154471084999992000010611004+37780+126370FM-15+0250RKSV V0203001N004612200019N0112651N1-00601-01201999999ADDGA1021+060009999GF102991999999999999999999MA1101761999999MW1001REMMET060RKSV 1057Z 30009KT 9999 FEW200 M06/M12 A3005 RMK QFF1020PT6;EQDQ01+000000PRSWM2
0166471084999992000010612004+37780+126370FM-15+0250RKSV V0203301N004112200019N0112651N1-00701-01201999999ADDGA1021+060009999GF102991999999999999999999MA1101801999999MW1001OC100981REMMET064RKSV 1156Z 33008G019KT 9999 FEW200 M07/M12 A3006 RMK QFF1021PT0;EQDQ01+000000PRSWM2
0185471084999992000010613004+37780+126370FM-15+0250RKSV V0203201N004612200019N0080001N1-00701-01101999999ADDGA1021+009009999GF104991999999999999999999MA1101801999999MW1101OC100981REMMET067RKSV 1257Z 32009G019KT 8000 BR SCT030 M07/M11 A3006 RMK QFF1021PT0;EQDQ01+000003PRSWM1Q02    003PRSWM1
0151471084999992000010613184+37780+126370FM-16+0250RKSV V0203201N005110090019N0080001N1+99999+99999999999ADDGA1071+009009999GF107991999999999999999999MA1101801999999MW1001MW2101REMMET051RKSV 1318Z 32010KT 8000 BR BKN030 A3006 RMK CIG030;EQDQ01+000003PRSWM1
0131471084999992000010613204+37780+126370FM-16+0250RKSV V0203301N006210090019N0060001N1+99999+99999999999ADDGA1071+009009999GF107991999999999999999999MW1001MW2711REMMET046RKSV 1320Z 33012KT 6000 -SN BKN030 RMK CIG030;EQDQ01+000003PRSWM1
0142471084999992000010613504+37780+126370FM-16+0250RKSV V0203401N005710090019N0090001N1+99999+99999999999ADDGA1071+009009999GF107991999999999999999999MW1001MW2101OC101081REMMET049RKSV 1350Z 34011G021KT 9000 BR BKN030 RMK CIG030;EQDQ01+000003PRSWM1
0166471084999992000010614004+37780+126370FM-15+0250RKSV V0203201N006212200019N0112651N1-00801-01101999999ADDGA1021+009009999GF104991999999999999999999MA1101761999999MW1001REMMET072RKSV 1358Z 32012KT 9999 RESN SCT030 M08/M11 A3005 RMK 1SN00/ QFF1020PT7;EQDQ01+000000PRSWM2
0168471084999992000010615004+37780+126370FM-15+0250RKSV V0203301N006710090019N0112651N1-00901-01201999999ADDGA1071+009009999GF107991999999999999999999MA1101761999999MW1001REMMET074RKSV 1456Z 33013KT 9999 BKN030 M09/M12 A3005 RMK CIG030/20036/ QFF1020PT8;EQDQ01+000000PRSWM2
0166471084999992000010616004+37780+126370FM-15+0250RKSV V0203401N005112200019N0112651N1-01101-01301999999ADDGA1021+009009999GF104991999999999999999999MA1101831999999MW1001OC101031REMMET064RKSV 1557Z 34010G020KT 9999 SCT030 M11/M13 A3007 RMK QFF1021PT6;EQDQ01+000000PRSWM2
0166471084999992000010617004+37780+126370FM-15+0250RKSV V0203301N005112200019N0112651N1-01201-01501999999ADDGA1021+009009999GF104991999999999999999999MA1101861999999MW1001OC101081REMMET064RKSV 1656Z 33010G021KT 9999 SCT030 M12/M15 A3008 RMK QFF1022PT0;EQDQ01+000000PRSWM2
0173471084999992000010618004+37780+126370FM-15+0250RKSV V0203401N007212200019N0112651N1-01301-01701999999ADDGA1021+009009999GF102991999999999999999999MA1102001999999MW1001OC101291REMMET071RKSV 1758Z 34014G025KT 9999 FEW030 M13/M17 A3012 RMK 6SN00/ QFF1023PT3;EQDQ01+000000PRSWM2
0105471084999992000010620004+37780+126370FM-15+0250RKSV V0203301N005112200019N0112651N1+99999+99999999999ADDMA1102101999999MW1001REMMET053RKSV 1956Z 33010KT 9999 M15/M19 A3015 RMK QFF1024PT5;EQDQ01+000000PRSWM2
0105471084999992000010621004+37780+126370FM-15+0250RKSV V0203201N004612200019N0112651N1+99999+99999999999ADDMA1102171999999MW1001REMMET053RKSV 2058Z 32009KT 9999 M15/M22 A3017 RMK QFF1025PT5;EQDQ01+000000PRSWM2
0154471084999992000010622004+37780+126370FM-15+0250RKSV V0203201N005112200019N0112651N1-01601-02301999999ADDGA1021+009009999GF102991999999999999999999MA1102171999999MW1001REMMET060RKSV 2157Z 32010KT 9999 FEW030 M16/M23 A3017 RMK QFF1025PT6;EQDQ01+000000PRSWM2
0154471084999992000010623004+37780+126370FM-15+0250RKSV V0203401N004112200019N0112651N1-01601-02301999999ADDGA1021+009009999GF102991999999999999999999MA1102241999999MW1001REMMET060RKSV 2256Z 34008KT 9999 FEW030 M16/M23 A3019 RMK QFF1026PT3;EQDQ01+000000PRSWM2
0154471084999992000010700004+37780+126370FM-15+0250RKSV V0203401N003612200019N0112651N1-01601-02401999999ADDGA1021+009009999GF102991999999999999999999MA1102271999999MW1001REMMET060RKSV 2357Z 34007KT 9999 FEW030 M16/M24 A3020 RMK QFF1026PT6;EQDQ01+000000PRSWM2
0154471084999992000010701004+37780+126370FM-15+0250RKSV V0203301N004112200019N0112651N1-01501-02401999999ADDGA1021+009009999GF102991999999999999999999MA1102301999999MW1001REMMET060RKSV 0057Z 33008KT 9999 FEW030 M15/M24 A3021 RMK QFF1026PT9;EQDQ01+000000PRSWM2
0105471084999992000010702004+37780+126370FM-15+0250RKSV V0203301N003112200019N0112651N1+99999+99999999999ADDMA1102341999999MW1001REMMET053RKSV 0156Z 33006KT 9999 M14/M23 A3022 RMK QFF1027PT3;EQDQ01+000000PRSWM2
0105471084999992000010704004+37780+126370FM-15+0250RKSV V0203201N002112200019N0112651N1+99999+99999999999ADDMA1102271999999MW1001REMMET053RKSV 0356Z 32004KT 9999 M10/M18 A3020 RMK QFF1026PT7;EQDQ01+000000PRSWM2
0105471084999992000010705004+37780+126370FM-15+0250RKSV V0203201N004112200019N0112651N1+99999+99999999999ADDMA1102201999999MW1001REMMET053RKSV 0457Z 32008KT 9999 M10/M18 A3018 RMK QFF1026PT0;EQDQ01+000000PRSWM2
0154471084999992000010706004+37780+126370FM-15+0250RKSV V0203401N003112200019N0112651N1-01001-01701999999ADDGA1021+009009999GF102991999999999999999999MA1102131999999MW1001REMMET060RKSV 0558Z 34006KT 9999 FEW030 M10/M17 A3016 RMK QFF1025PT4;EQDQ01+000000PRSWM2
0154471084999992000010707004+37780+126370FM-15+0250RKSV V0200401N002112200019N0112651N1-00901-01601999999ADDGA1021+009009999GF102991999999999999999999MA1102131999999MW1001REMMET060RKSV 0657Z 04004KT 9999 FEW030 M09/M16 A3016 RMK QFF1025PT4;EQDQ01+000000PRSWM2
0154471084999992000010708004+37780+126370FM-15+0250RKSV V0200901N001012200019N0112651N1-01001-01801999999ADDGA1021+009009999GF102991999999999999999999MA1102131999999MW1001REMMET060RKSV 0756Z 09002KT 9999 FEW030 M10/M18 A3016 RMK QFF1025PT5;EQDQ01+000000PRSWM2
0154471084999992000010709004+37780+126370FM-15+0250RKSV V0201401N004112200019N0112651N1-01101-01901999999ADDGA1021+009009999GF104991999999999999999999MA1102101999999MW1001REMMET060RKSV 0857Z 14008KT 9999 SCT030 M11/M19 A3015 RMK QFF1025PT2;EQDQ01+000000PRSWM2
0131471084999992000010709104+37780+126370FM-16+0250RKSV V0201501N004610090019N0090001N1+99999+99999999999ADDGA1071+009009999GF107991999999999999999999MW1001MW2711REMMET046RKSV 0910Z 15009KT 9000 -SN BKN030 RMK CIG030;EQDQ01+000003PRSWM1
0188471084999992000010710004+37780+126370FM-15+0250RKSV V0201401N005710090019N0090001N1-01101-01801999999ADDGA1071+009009999GF107991999999999999999999MA1102071999999MW1711REMMET078RKSV 0958Z 14011KT 9000 -SN BKN030 M11/M18 A3014 RMK CIG030/1SN00/ QFF1024PT9;EQDQ01+000003PRSWM1Q02    003PRSWM1
0126471084999992000010710104+37780+126370FM-16+0250RKSV V0201501N005110090019N0112651N1+99999+99999999999ADDGA1071+009009999GF107991999999999999999999MW1001REMMET047RKSV 1010Z 15010KT 9999 RESN BKN030 RMK CIG030;EQDQ01+000000PRSWM2
0173471084999992000010711004+37780+126370FM-15+0250RKSV V0201501N004610090019N0112651N1-01101-01801999999ADDGA1071+009009999GF107991999999999999999999MA1102071999999MW1001REMMET079RKSV 1057Z 15009KT 9999 RESN BKN030 M11/M18 A3014 RMK CIG030/1SN00/ QFF1024PT9;EQDQ01+000000PRSWM2
0131471084999992000010711054+37780+126370FM-16+0250RKSV V0201401N006210090019N0090001N1+99999+99999999999ADDGA1071+009009999GF107991999999999999999999MW1001MW2711REMMET046RKSV 1105Z 14012KT 9000 -SN BKN030 RMK CIG030;EQDQ01+000003PRSWM1
0194471084999992000010712004+37780+126370FM-15+0250RKSV V0201601N005110090019N0090001N1-01101-01701999999ADDGA1071+009009999GF107991999999999999999999MA1102071999999MW1711REMMET084RKSV 1156Z 16010KT 9000 -SN BKN030 M11/M17 A3014 RMK CIG030/1SN02/6SN02/ QFF1024PT9;EQDQ01+000003PRSWM1Q02    003PRSWM1
0188471084999992000010713004+37780+126370FM-15+0250RKSV V0201301N005110090019N0090001N1-01001-01601999999ADDGA1071+009009999GF107991999999999999999999MA1102071999999MW1711REMMET078RKSV 1257Z 13010KT 9000 -SN BKN030 M10/M16 A3014 RMK CIG030/1SN02/ QFF1025PT0;EQDQ01+000003PRSWM1Q02    003PRSWM1
0188471084999992000010714004+37780+126370FM-15+0250RKSV V0201401N005710090019N0090001N1-01001-01601999999ADDGA1071+009009999GF107991999999999999999999MA1102071999999MW1711REMMET078RKSV 1358Z 14011KT 9000 -SN BKN030 M10/M16 A3014 RMK CIG030/1SN02/ QFF1025PT0;EQDQ01+000003PRSWM1Q02    003PRSWM1
0217471084999992000010715004+37780+126370FM-15+0250RKSV V0201701N004610090019N0048001N1-01001-01501999999ADDGA1021+003609999GA2081+009009999GF108991999999999999999999MA1102071999999MW1711REMMET091RKSV 1456Z 17009KT 4800 -SN SCT012 OVC030 M10/M15 A3014 RMK CIG030/1SN01/20007/ QFF1025PT0;EQDQ01+000003PRSWM1Q02    003PRSWM1
0178471084999992000010715254+37780+126370FM-16+0250RKSV V0201501N004110036019N0032001N1+99999+99999999999ADDGA1011+000159999GA2071+003609999GA3081+009009999GF108991999999999999999999MW1001MW2711REMMET061RKSV 1525Z 15008KT 3200 -SN 1FG/// BKN012 OVC030 RMK CIGE012;EQDQ01+000003PRSWM1
0235471084999992000010716004+37780+126370FM-15+0250RKSV V0201301N004610036019N0032001N1-01001-01401999999ADDGA1011+000159999GA2071+003609999GA3081+009009999GF108991999999999999999999MA1102071999999MW1711REMMET093RKSV 1557Z 13009KT 3200 -SN 1FG/// BKN012 OVC030 M10/M14 A3014 RMK CIGE012/1SN04/ QFF1024PT9;EQDQ01+000003PRSWM1Q02    003PRSWM1
0154471084999992000010716304+37780+126370FM-16+0250RKSV V0201401N003610090019N0048001N1+99999+99999999999ADDGA1021+003609999GA2081+009009999GF108991999999999999999999MW1001MW2711REMMET053RKSV 1630Z 14007KT 4800 -SN SCT012 OVC030 RMK CIG030;EQDQ01+000003PRSWM1
0211471084999992000010717004+37780+126370FM-15+0250RKSV V0201501N003110090019N0060001N1-00901-01401999999ADDGA1021+003609999GA2081+009009999GF108991999999999999999999MA1102031999999MW1711REMMET085RKSV 1656Z 15006KT 6000 -SN FEW012 OVC030 M09/M14 A3013 RMK CIG030/1SN01/ QFF1024PT5;EQDQ01+000003PRSWM1Q02    003PRSWM1
0200471084999992000010718004+37780+126370FM-15+0250RKSV V0201801N003610090019N0080001N1-00901-01101999999ADDGA1071+009009999GF107991999999999999999999MA1102031999999MW1711REMMET090RKSV 1758Z 18007KT 8000 -SN BKN030 M09/M11 A3013 RMK CIG030/1SN00/6SN10/90401/ QFF1024PT4;EQDQ01+000003PRSWM1Q02    003PRSWM1
0188471084999992000010719004+37780+126370FM-15+0250RKSV V0201701N003110090019N0060001N1-00801-01001999999ADDGA1081+009009999GF108991999999999999999999MA1102031999999MW1711REMMET078RKSV 1857Z 17006KT 6000 -SN OVC030 M08/M10 A3013 RMK CIG030/1SN01/ QFF1024PT3;EQDQ01+000003PRSWM1Q02    003PRSWM1
0211471084999992000010720004+37780+126370FM-15+0250RKSV V0201701N003610090019N0048001N1-00801-01001999999ADDGA1021+004509999GA2081+009009999GF108991999999999999999999MA1102031999999MW1711REMMET085RKSV 1956Z 17007KT 4800 -SN FEW015 OVC030 M08/M10 A3013 RMK CIG030/1SN01/ QFF1024PT3;EQDQ01+000003PRSWM1Q02    003PRSWM1
0211471084999992000010721004+37780+126370FM-15+0250RKSV V0201501N003110090019N0048001N1-00701-01001999999ADDGA1021+004509999GA2081+009009999GF108991999999999999999999MA1102071999999MW1711REMMET085RKSV 2058Z 15006KT 4800 -SN FEW015 OVC030 M07/M10 A3014 RMK CIG030/1SN01/ QFF1024PT6;EQDQ01+000003PRSWM1Q02    003PRSWM1
0211471084999992000010722004+37780+126370FM-15+0250RKSV V0201901N002110090019N0048001N1-00701-01001999999ADDGA1021+004509999GA2081+009009999GF108991999999999999999999MA1102071999999MW1711REMMET085RKSV 2157Z 19004KT 4800 -SN SCT015 OVC030 M07/M10 A3014 RMK CIG030/1SN03/ QFF1024PT6;EQDQ01+000003PRSWM1Q02    003PRSWM1
0211471084999992000010723004+37780+126370FM-15+0250RKSV V0201701N004110090019N0048001N1-00701-00901999999ADDGA1021+004509999GA2081+009009999GF108991999999999999999999MA1102101999999MW1711REMMET085RKSV 2256Z 17008KT 4800 -SN FEW015 OVC030 M07/M09 A3015 RMK CIG030/1SN01/ QFF1024PT9;EQDQ01+000003PRSWM1Q02    003PRSWM1
0223471084999992000010800004+37780+126370FM-15+0250RKSV V0202201N002610090019N0048001N1-00701-00901999999ADDGA1021+004509999GA2081+009009999GF108991999999999999999999MA1102131999999MW1711REMMET097RKSV 2357Z 22005KT 4800 -SN FEW015 OVC030 M07/M09 A3016 RMK CIG030/1SN00/6SN07/90402/ QFF1025PT2;EQDQ01+000003PRSWM1Q02    003PRSWM1
0152471084999992000010800434+37780+126370FM-16+0250RKSV V0202401N004110090019N0048001N1+99999+99999999999ADDGA1071+009009999GF107991999999999999999999MA1102131999999MW1001MW2711REMMET052RKSV 0043Z 24008KT 4800 -SN BKN030 A3016 RMK CIG030;EQDQ01+000003PRSWM1
0188471084999992000010801004+37780+126370FM-15+0250RKSV V0202801N001510090019N0048001N1-00601-00801999999ADDGA1071+009009999GF107991999999999999999999MA1102201999999MW1711REMMET078RKSV 0057Z 28003KT 4800 -SN BKN030 M06/M08 A3018 RMK CIG030/1SN02/ QFF1025PT9;EQDQ01+000003PRSWM1Q02    003PRSWM1
0124471084999992000010801104+37780+126370FM-16+0250RKSV V0203001N002112200019N0060001N1+99999+99999999999ADDGA1021+009009999GF104991999999999999999999MW1001MW2101REMMET039RKSV 0110Z 30004KT 6000 BR SCT030 RMK ;EQDQ01+000003PRSWM1
0173471084999992000010802004+37780+126370FM-15+0250RKSV V0203101N002112200019N0060001N1-00601-00801999999ADDGA1021+009009999GF104991999999999999999999MA1102201999999MW1101REMMET063RKSV 0158Z 31004KT 6000 BR SCT030 M06/M08 A3018 RMK QFF1025PT9;EQDQ01+000003PRSWM1Q02    003PRSWM1
0173471084999992000010803004+37780+126370FM-15+0250RKSV V0203301N001512200019N0080001N1-00501-00801999999ADDGA1021+009009999GF102991999999999999999999MA1102201999999MW1101REMMET063RKSV 0256Z 33003KT 8000 BR FEW030 M05/M08 A3018 RMK QFF1025PT9;EQDQ01+000003PRSWM1Q02    003PRSWM1
0173471084999992000010804004+37780+126370FM-15+0250RKSV V0203101N002612200019N0090001N1-00501-00801999999ADDGA1021+009009999GF102991999999999999999999MA1102171999999MW1101REMMET063RKSV 0357Z 31005KT 9000 BR FEW030 M05/M08 A3017 RMK QFF1025PT6;EQDQ01+000003PRSWM1Q02    003PRSWM1
0154471084999992000010805004+37780+126370FM-15+0250RKSV V0202901N002112200019N0112651N1-00501-00801999999ADDGA1021+009009999GF102991999999999999999999MA1102131999999MW1001REMMET060RKSV 0458Z 29004KT 9999 FEW030 M05/M08 A3016 RMK QFF1025PT2;EQDQ01+000000PRSWM2
0167471084999992000010806004+37780+126370FM-15+0250RKSV V0203301N001512200019N0112651N1-00401-00801999999ADDGA1021+009009999GF102991999999999999999999MA1102131999999MW1001REMMET073RKSV 0557Z 33003KT 9999 FEW030 M04/M08 A3016 RMK 6SN02/90401/ QFF1025PT1;EQDQ01+000000PRSWM2
0154471084999992000010807004+37780+126370FM-15+0250RKSV V0203001N001012200019N0112651N1-00301-00701999999ADDGA1021+009009999GF102991999999999999999999MA1102171999999MW1001REMMET060RKSV 0656Z 30002KT 9999 FEW030 M03/M07 A3017 RMK QFF1025PT4;EQDQ01+000000PRSWM2
0154471084999992000010808004+37780+126370FM-15+0250RKSV V0202501N001512200019N0112651N1-00401-00801999999ADDGA1021+009009999GF102991999999999999999999MA1102201999999MW1001REMMET060RKSV 0758Z 25003KT 9999 FEW030 M04/M08 A3018 RMK QFF1025PT7;EQDQ01+000000PRSWM2
0154471084999992000010809004+37780+126370FM-15+0250RKSV V0203201N001512200019N0112651N1-00401-00601999999ADDGA1021+009009999GF102991999999999999999999MA1102241999999MW1001REMMET060RKSV 0857Z 32003KT 9999 FEW030 M04/M06 A3019 RMK QFF1026PT0;EQDQ01+000000PRSWM2
0105471084999992000010810004+37780+126370FM-15+0250RKSV V0203001N003112200019N0112651N1+99999+99999999999ADDMA1102301999999MW1001REMMET053RKSV 0956Z 30006KT 9999 M06/M10 A3021 RMK QFF1026PT7;EQDQ01+000000PRSWM2
0105471084999992000010811004+37780+126370FM-15+0250RKSV V0203101N003612200019N0112651N1+99999+99999999999ADDMA1102341999999MW1001REMMET053RKSV 1058Z 31007KT 9999 M07/M10 A3022 RMK QFF1027PT1;EQDQ01+000000PRSWM2
0112471084999992000010812004+37780+126370FM-15+0250RKSV V0203101N003112200019N0112651N1+99999+99999999999ADDMA1102341999999MW1001REMMET060RKSV 1157Z 31006KT 9999 M07/M10 A3022 RMK 90401/ QFF1027PT1;EQDQ01+000000PRSWM2
0105471084999992000010813004+37780+126370FM-15+0250RKSV V0203301N002112200019N0112651N1+99999+99999999999ADDMA1102301999999MW1001REMMET053RKSV 1256Z 33004KT 9999 M07/M10 A3021 RMK QFF1026PT7;EQDQ01+000000PRSWM2
0105471084999992000010814004+37780+126370FM-15+0250RKSV V0203101N003612200019N0112651N1+99999+99999999999ADDMA1102341999999MW1001REMMET053RKSV 1358Z 31007KT 9999 M06/M11 A3022 RMK QFF1027PT0;EQDQ01+000000PRSWM2
0112471084999992000010815004+37780+126370FM-15+0250RKSV V0203401N004112200019N0112651N1+99999+99999999999ADDMA1102341999999MW1001REMMET060RKSV 1457Z 34008KT 9999 M07/M12 A3022 RMK 20014/ QFF1027PT1;EQDQ01+000000PRSWM2
0105471084999992000010816004+37780+126370FM-15+0250RKSV V0203501N004612200019N0112651N1+99999+99999999999ADDMA1102301999999MW1001REMMET053RKSV 1557Z 35009KT 9999 M07/M12 A3021 RMK QFF1026PT7;EQDQ01+000000PRSWM2
0105471084999992000010817004+37780+126370FM-15+0250RKSV V0203401N004112200019N0112651N1+99999+99999999999ADDMA1102301999999MW1001REMMET053RKSV 1656Z 34008KT 9999 M07/M11 A3021 RMK QFF1026PT6;EQDQ01+000000PRSWM2
0105471084999992000010818004+37780+126370FM-15+0250RKSV V0203101N003112200019N0112651N1+99999+99999999999ADDMA1102301999999MW1001REMMET053RKSV 1758Z 31006KT 9999 M07/M12 A3021 RMK QFF1026PT6;EQDQ01+000000PRSWM2
0105471084999992000010819004+37780+126370FM-15+0250RKSV V0203201N002112200019N0112651N1+99999+99999999999ADDMA1102271999999MW1001REMMET053RKSV 1857Z 32004KT 9999 M07/M12 A3020 RMK QFF1026PT3;EQDQ01+000000PRSWM2
0154471084999992000010820004+37780+126370FM-15+0250RKSV V0203001N001512200019N0112651N1-00701-01201999999ADDGA1021+009009999GF102991999999999999999999MA1102271999999MW1001REMMET060RKSV 1956Z 30003KT 9999 FEW030 M07/M12 A3020 RMK QFF1026PT3;EQDQ01+000000PRSWM2
0142471084999992000010820104+37780+126370FM-16+0250RKSV V0203301N002110090019N0112651N1+99999+99999999999ADDGA1071+009009999GF107991999999999999999999MA1102271999999MW1001REMMET048RKSV 2010Z 33004KT 9999 BKN030 A3020 RMK CIG030;EQDQ01+000000PRSWM2
0162471084999992000010821004+37780+126370FM-15+0250RKSV V0203501N002610090019N0112651N1-00701-01101999999ADDGA1071+009009999GF107991999999999999999999MA1102301999999MW1001REMMET068RKSV 2058Z 35005KT 9999 BKN030 M07/M11 A3021 RMK CIG030/ QFF1026PT6;EQDQ01+000000PRSWM2
0162471084999992000010822004+37780+126370FM-15+0250RKSV V0203401N005110090019N0112651N1-00601-01001999999ADDGA1071+009009999GF107991999999999999999999MA1102241999999MW1001REMMET068RKSV 2157Z 34010KT 9999 BKN030 M06/M10 A3019 RMK CIG030/ QFF1026PT0;EQDQ01+000000PRSWM2
0185471084999992000010823004+37780+126370FM-15+0250RKSV V0203501N003610600019N0112651N1-00601-01001999999ADDGA1021+009009999GA2071+060009999GF107991999999999999999999MA1102201999999MW1001REMMET075RKSV 2256Z 35007KT 9999 SCT030 BKN200 M06/M10 A3018 RMK CIG200/ QFF1025PT6;EQDQ01+000000PRSWM2
0185471084999992000010900004+37780+126370FM-15+0250RKSV V0203301N003110600019N0112651N1-00701-01101999999ADDGA1021+030009999GA2071+060009999GF107991999999999999999999MA1102171999999MW1001REMMET075RKSV 2358Z 33006KT 9999 FEW100 BKN200 M07/M11 A3017 RMK CIG200/ QFF1025PT3;EQDQ01+000000PRSWM2
0185471084999992000010901004+37780+126370FM-15+0250RKSV V0203501N002110600019N0112651N1-00601-00901999999ADDGA1021+030009999GA2071+060009999GF107991999999999999999999MA1102241999999MW1001REMMET075RKSV 0057Z 35004KT 9999 FEW100 BKN200 M06/M09 A3019 RMK CIG200/ QFF1026PT0;EQDQ01+000000PRSWM2
0185471084999992000010902004+37780+126370FM-15+0250RKSV V0200501N002110600019N0112651N1-00401-00801999999ADDGA1021+030009999GA2071+060009999GF107991999999999999999999MA1102301999999MW1001REMMET075RKSV 0156Z 05004KT 9999 FEW100 BKN200 M04/M08 A3021 RMK CIG200/ QFF1026PT6;EQDQ01+000000PRSWM2
0185471084999992000010903004+37780+126370FM-15+0250RKSV V0201201N001510600019N0112651N1-00301-00701999999ADDGA1021+009009999GA2071+060009999GF107991999999999999999999MA1102241999999MW1001REMMET075RKSV 0258Z 12003KT 9999 FEW030 BKN200 M03/M07 A3019 RMK CIG200/ QFF1025PT9;EQDQ01+000000PRSWM2
0185471084999992000010904004+37780+126370FM-15+0250RKSV V0201001N002110600019N0112651N1-00301-00701999999ADDGA1021+009009999GA2071+060009999GF107991999999999999999999MA1102131999999MW1001REMMET075RKSV 0357Z 10004KT 9999 SCT030 BKN200 M03/M07 A3016 RMK CIG200/ QFF1024PT8;EQDQ01+000000PRSWM2
0185471084999992000010905004+37780+126370FM-15+0250RKSV V0200501N001510600019N0112651N1-00201-00501999999ADDGA1021+009009999GA2071+060009999GF107991999999999999999999MA1102071999999MW1001REMMET075RKSV 0456Z 05003KT 9999 SCT030 BKN200 M02/M05 A3014 RMK CIG200/ QFF1024PT1;EQDQ01+000000PRSWM2
0208471084999992000010907004+37780+126370FM-15+0250RKSV V0203401N003610300019N0112651N1-00201-00601999999ADDGA1021+009009999GA2071+030009999GA3081+060009999GF108991999999999999999999MA1102001999999MW1001REMMET082RKSV 0657Z 34007KT 9999 SCT030 BKN100 OVC200 M02/M06 A3012 RMK CIG100/ QFF1023PT4;EQDQ01+000000PRSWM2
0208471084999992000010908004+37780+126370FM-15+0250RKSV V0203301N005710300019N0112651N1-00301-00601999999ADDGA1021+009009999GA2071+030009999GA3081+060009999GF108991999999999999999999MA1101901999999MW1001REMMET082RKSV 0756Z 33011KT 9999 SCT030 BKN100 OVC200 M03/M06 A3009 RMK CIG100/ QFF1022PT8;EQDQ01+000000PRSWM2
0185471084999992000010909004+37780+126370FM-15+0250RKSV V0203401N004110300019N0112651N1-00401-00701999999ADDGA1021+009009999GA2081+030009999GF108991999999999999999999MA1101931999999MW1001REMMET075RKSV 0858Z 34008KT 9999 SCT030 OVC100 M04/M07 A3010 RMK CIG100/ QFF1023PT2;EQDQ01+000000PRSWM2
0185471084999992000010910004+37780+126370FM-15+0250RKSV V0200101N004610300019N0112651N1-00301-00601999999ADDGA1021+009009999GA2081+030009999GF108991999999999999999999MA1101901999999MW1001REMMET075RKSV 0957Z 01009KT 9999 SCT030 OVC100 M03/M06 A3009 RMK CIG100/ QFF1022PT8;EQDQ01+000000PRSWM2
0154471084999992000010910104+37780+126370FM-16+0250RKSV V0203501N004110300019N0112651N1+99999+99999999999ADDGA1021+009009999GA2081+030009999GF108991999999999999999999MW1001MW2711REMMET053RKSV 1010Z 35008KT 9999 -SN SCT030 OVC100 RMK CIG100;EQDQ01+000003PRSWM1
0211471084999992000010911004+37780+126370FM-15+0250RKSV V0203601N004110300019N0112651N1-00301-00701999999ADDGA1021+009009999GA2081+030009999GF108991999999999999999999MA1101931999999MW1711REMMET085RKSV 1056Z 36008KT 9999 -SN SCT030 OVC100 M03/M07 A3010 RMK CIG100/1SN00/ QFF1023PT2;EQDQ01+000003PRSWM1Q02    003PRSWM1
0149471084999992000010911104+37780+126370FM-16+0250RKSV V0203401N003110300019N0112651N1+99999+99999999999ADDGA1021+009009999GA2081+030009999GF108991999999999999999999MW1001REMMET054RKSV 1110Z 34006KT 9999 RESN SCT030 OVC100 RMK CIG100;EQDQ01+000000PRSWM2
0154471084999992000010912354+37780+126370FM-16+0250RKSV V0200701N002110300019N0112651N1+99999+99999999999ADDGA1021+009009999GA2081+030009999GF108991999999999999999999MW1001MW2711REMMET053RKSV 1235Z 07004KT 9999 -SN SCT030 OVC100 RMK CIG100;EQDQ01+000003PRSWM1
0127471084999992000010913004+37780+126370FM-15+0250RKSV V0200201N001510300019N0112651N1+99999+99999999999ADDMW1001REMMET090RKSV 1158Z 02003KT 9999 RESN 030 100 200 M03/M07 A3012 RMK CIG100/1SN00/6SN00/ QFF1023PT5;EQDQ01+000003PRSWM1
0211471084999992000010914004+37780+126370FM-15+0250RKSV V0201301N003610090019N0112651N1-00301-00601999999ADDGA1071+009009999GA2081+030009999GF108991999999999999999999MA1102001999999MW1711REMMET085RKSV 1356Z 13007KT 9999 -SN BKN030 OVC100 M03/M06 A3012 RMK CIG030/1SN00/ QFF1023PT4;EQDQ01+000003PRSWM1Q02    003PRSWM1
0149471084999992000010914104+37780+126370FM-16+0250RKSV V0201501N004110300019N0112651N1+99999+99999999999ADDGA1021+009009999GA2081+030009999GF108991999999999999999999MW1001REMMET054RKSV 1410Z 15008KT 9999 RESN SCT030 OVC100 RMK CIG100;EQDQ01+000000PRSWM2
0154471084999992000010914404+37780+126370FM-16+0250RKSV V0201701N004110090019N0112651N1+99999+99999999999ADDGA1071+009009999GA2081+030009999GF108991999999999999999999MW1001MW2711REMMET053RKSV 1440Z 17008KT 9999 -SN BKN030 OVC100 RMK CIG030;EQDQ01+000003PRSWM1
0211471084999992000010915004+37780+126370FM-15+0250RKSV V0201601N005110090019N0112651N1-00201-00501999999ADDGA1071+009009999GA2081+030009999GF108991999999999999999999MA1102001999999MW1711REMMET085RKSV 1458Z 16010KT 9999 -SN BKN030 OVC100 M02/M05 A3012 RMK CIG030/1SN00/ QFF1023PT3;EQDQ01+000003PRSWM1Q02    003PRSWM1
0211471084999992000010916004+37780+126370FM-15+0250RKSV V0201601N005710090019N0090001N1-00301-00501999999ADDGA1071+009009999GA2081+030009999GF108991999999999999999999MA1101901999999MW1711REMMET085RKSV 1557Z 16011KT 9000 -SN BKN030 OVC100 M03/M05 A3009 RMK CIG030/1SN01/ QFF1022PT7;EQDQ01+000003PRSWM1Q02    003PRSWM1
0211471084999992000010917004+37780+126370FM-15+0250RKSV V0201601N006710090019N0090001N1-00301-00501999999ADDGA1071+009009999GA2081+030009999GF108991999999999999999999MA1101861999999MW1711REMMET085RKSV 1658Z 16013KT 9000 -SN BKN030 OVC100 M03/M05 A3008 RMK CIG030/1SN00/ QFF1022PT4;EQDQ01+000003PRSWM1Q02    003PRSWM1
0223471084999992000010918004+37780+126370FM-15+0250RKSV V0201701N006210090019N0090001N1-00301-00501999999ADDGA1071+009009999GA2081+030009999GF108991999999999999999999MA1101931999999MW1711REMMET097RKSV 1756Z 17012KT 9000 -SN BKN030 OVC100 M03/M05 A3010 RMK CIG030/1SN01/6SN02/90401/ QFF1023PT0;EQDQ01+000003PRSWM1Q02    003PRSWM1
0211471084999992000010919004+37780+126370FM-15+0250RKSV V0201401N004110090019N0060001N1-00201-00401999999ADDGA1071+009009999GA2081+030009999GF108991999999999999999999MA1102031999999MW1711REMMET085RKSV 1857Z 14008KT 6000 -SN BKN030 OVC100 M02/M04 A3013 RMK CIG030/1SN00/ QFF1023PT6;EQDQ01+000003PRSWM1Q02    003PRSWM1
0176471084999992000010919254+37780+126370FM-16+0250RKSV V0200901N005110090019N0032001N1+99999+99999999999ADDGA1011+000159999GA2021+003609999GA3081+009009999GF108991999999999999999999MW1001MW2101REMMET059RKSV 1925Z 09010KT 3200 BR 1FG/// SCT012 OVC030 RMK CIG030;EQDQ01+000003PRSWM1
0233471084999992000010920004+37780+126370FM-15+0250RKSV V0200401N006210090019N0032001N1-00301-00401999999ADDGA1011+000159999GA2021+003609999GA3081+009009999GF108991999999999999999999MA1102071999999MW1101REMMET091RKSV 1957Z 04012KT 3200 BR 1FG/// SCT012 OVC030 M03/M04 A3014 RMK CIG030/1SN00/ QFF1024PT0;EQDQ01+000003PRSWM1Q02    003PRSWM1
0177471084999992000010920104+37780+126370FM-16+0250RKSV V0203501N004610036019N0016001N1+99999+99999999999ADDGA1031+000159999GA2071+003609999GA3081+009009999GF108991999999999999999999MW1001MW2101REMMET060RKSV 2010Z 35009KT 1600 BR 3FG/// BKN012 OVC030 RMK CIGE012;EQDQ01+000003PRSWM1
0154471084999992000010920404+37780+126370FM-16+0250RKSV V0203401N005119999999N0032001N1+99999+99999999999ADDGA1011+000159999GF101991999999999999999999MW1001MW2101REMMET053RKSV 2040Z 34010KT 3200 BR 1FG/// 012 030 RMK CIG030;EQDQ01+000003PRSWM1Q02 009003SCOCIG
0227471084999992000010921004+37780+126370FM-15+0250RKSV V0203101N002610090019N0032001N1-00401-00701999999ADDGA1011+000159999GA2021+003609999GA3081+009009999GF108991999999999999999999MA1102131999999MW1101REMMET085RKSV 2058Z 31005KT 3200 BR 1FG/// SCT012 OVC030 M04/M07 A3016 RMK CIG030/ QFF1024PT6;EQDQ01+000003PRSWM1Q02    003PRSWM1
0176471084999992000010921104+37780+126370FM-16+0250RKSV V0203001N004110090019N0060001N1+99999+99999999999ADDGA1021+003609999GA2071+009009999GA3071+030009999GF107991999999999999999999MW1001MW2101REMMET059RKSV 2110Z 30008KT 6000 BR FEW012 BKN030 BKN100 RMK CIG030;EQDQ01+000003PRSWM1
0204471084999992000010922004+37780+126370FM-15+0250RKSV V0203201N005710300019N0060001N1-00401-00701999999ADDGA1021+009009999GA2071+030009999GF107991999999999999999999MA1102171999999MW1101REMMET078RKSV 2157Z 32011KT 6000 BR SCT030 BKN100 M04/M07 A3017 RMK CIG100/ QFF1024PT9;EQDQ01+000003PRSWM1Q02    003PRSWM1
0168471084999992000010922244+37780+126370FM-16+0250RKSV V0203401N006212200019N0060001N1+99999+99999999999ADDGA1021+009009999GA2021+030009999GF104991999999999999999999MA1102171999999MW1001MW2101REMMET052RKSV 2224Z 34012KT 6000 BR FEW030 SCT100 A3017 RMK ;EQDQ01+000003PRSWM1
0185471084999992000010923004+37780+126370FM-15+0250RKSV V0203301N004612200019N0080001N1-00501-00701999999ADDGA1021+009009999GF102991999999999999999999MA1102241999999MW1101OC101031REMMET067RKSV 2256Z 33009G020KT 8000 BR FEW030 M05/M07 A3019 RMK QFF1025PT6;EQDQ01+000003PRSWM1Q02    003PRSWM1
0180471084999992000011000004+37780+126370FM-15+0250RKSV V0203201N005112200019N0090001N1-00501-00801999999ADDGA1021+009009999GF102991999999999999999999MA1102241999999MW1101REMMET070RKSV 2357Z 32010KT 9000 BR FEW030 M05/M08 A3019 RMK 6SN00/ QFF1025PT6;EQDQ01+000003PRSWM1Q02    003PRSWM1
0105471084999992000011002004+37780+126370FM-15+0250RKSV V0203301N004112200019N0112651N1+99999+99999999999ADDMA1102371999999MW1001REMMET053RKSV 0158Z 33008KT 9999 M05/M09 A3023 RMK QFF1027PT2;EQDQ01+000000PRSWM2
0105471084999992000011003004+37780+126370FM-15+0250RKSV V0203301N003612200019N0112651N1+99999+99999999999ADDMA1102441999999MW1001REMMET053RKSV 0257Z 33007KT 9999 M04/M09 A3025 RMK QFF1027PT7;EQDQ01+000000PRSWM2
0105471084999992000011004004+37780+126370FM-15+0250RKSV V0203501N004112200019N0112651N1+99999+99999999999ADDMA1102471999999MW1001REMMET053RKSV 0357Z 35008KT 9999 M04/M10 A3026 RMK QFF1027PT9;EQDQ01+000000PRSWM2
0105471084999992000011005004+37780+126370FM-15+0250RKSV V0203401N003612200019N0112651N1+99999+99999999999ADDMA1102401999999MW1001REMMET053RKSV 0456Z 34007KT 9999 M04/M10 A3024 RMK QFF1027PT4;EQDQ01+000000PRSWM2
0105471084999992000011006004+37780+126370FM-15+0250RKSV V0203101N005112200019N0112651N1+99999+99999999999ADDMA1102401999999MW1001REMMET053RKSV 0556Z 31010KT 9999 M04/M10 A3024 RMK QFF1027PT4;EQDQ01+000000PRSWM2
0105471084999992000011007004+37780+126370FM-15+0250RKSV V0203101N003112200019N0112651N1+99999+99999999999ADDMA1102401999999MW1001REMMET053RKSV 0657Z 31006KT 9999 M04/M10 A3024 RMK QFF1027PT4;EQDQ01+000000PRSWM2
0105471084999992000011009004+37780+126370FM-15+0250RKSV V0203101N005112200019N0112651N1+99999+99999999999ADDMA1102511999999MW1001REMMET053RKSV 0856Z 31010KT 9999 M06/M12 A3027 RMK QFF1028PT5;EQDQ01+000000PRSWM2
0117471084999992000011010004+37780+126370FM-15+0250RKSV V0203301N004112200019N0112651N1+99999+99999999999ADDMA1102571999999MW1001OC100931REMMET057RKSV 0958Z 33008G018KT 9999 M06/M12 A3029 RMK QFF1029PT1;EQDQ01+000000PRSWM2
0105471084999992000011011004+37780+126370FM-15+0250RKSV V0203201N005112200019N0112651N1+99999+99999999999ADDMA1102611999999MW1001REMMET053RKSV 1057Z 32010KT 9999 M07/M12 A3030 RMK QFF1029PT5;EQDQ01+000000PRSWM2
0105471084999992000011012004+37780+126370FM-15+0250RKSV V0203101N006212200019N0112651N1+99999+99999999999ADDMA1102641999999MW1001REMMET053RKSV 1156Z 31012KT 9999 M07/M11 A3031 RMK QFF1029PT9;EQDQ01+000000PRSWM2
0105471084999992000011013004+37780+126370FM-15+0250RKSV V0203401N005712200019N0112651N1+99999+99999999999ADDMA1102641999999MW1001REMMET053RKSV 1258Z 34011KT 9999 M08/M12 A3031 RMK QFF1030PT0;EQDQ01+000000PRSWM2
0166471084999992000011014004+37780+126370FM-15+0250RKSV V0203301N005112200019N0112651N1-00801-01201999999ADDGA1021+060009999GF102991999999999999999999MA1102611999999MW1001OC101081REMMET064RKSV 1357Z 33010G021KT 9999 FEW200 M08/M12 A3030 RMK QFF1029PT6;EQDQ01+000000PRSWM2
0173471084999992000011015004+37780+126370FM-15+0250RKSV V0203201N005112200019N0112651N1-00801-01301999999ADDGA1021+060009999GF102991999999999999999999MA1102611999999MW1001OC101031REMMET071RKSV 1456Z 32010G020KT 9999 FEW200 M08/M13 A3030 RMK 20002/ QFF1029PT6;EQDQ01+000000PRSWM2
0117471084999992000011016004+37780+126370FM-15+0250RKSV V0203201N004112200019N0112651N1+99999+99999999999ADDMA1102611999999MW1001OC100931REMMET057RKSV 1556Z 32008G018KT 9999 M08/M13 A3030 RMK QFF1029PT5;EQDQ01+000000PRSWM2
0105471084999992000011017004+37780+126370FM-15+0250RKSV V0203401N005112200019N0112651N1+99999+99999999999ADDMA1102571999999MW1001REMMET053RKSV 1657Z 34010KT 9999 M09/M12 A3029 RMK QFF1029PT2;EQDQ01+000000PRSWM2
0105471084999992000011018004+37780+126370FM-15+0250RKSV V0203401N003612200019N0112651N1+99999+99999999999ADDMA1102611999999MW1001REMMET053RKSV 1758Z 34007KT 9999 M09/M13 A3030 RMK QFF1029PT6;EQDQ01+000000PRSWM2
0105471084999992000011019004+37780+126370FM-15+0250RKSV V0203301N004112200019N0112651N1+99999+99999999999ADDMA1102611999999MW1001REMMET053RKSV 1856Z 33008KT 9999 M09/M13 A3030 RMK QFF1029PT7;EQDQ01+000000PRSWM2
0105471084999992000011020004+37780+126370FM-15+0250RKSV V0203301N002612200019N0112651N1+99999+99999999999ADDMA1102611999999MW1001REMMET053RKSV 1957Z 33005KT 9999 M09/M14 A3030 RMK QFF1029PT8;EQDQ01+000000PRSWM2
0105471084999992000011021004+37780+126370FM-15+0250RKSV V0203301N005112200019N0112651N1+99999+99999999999ADDMA1102571999999MW1001REMMET053RKSV 2058Z 33010KT 9999 M10/M13 A3029 RMK QFF1029PT5;EQDQ01+000000PRSWM2
0105471084999992000011022004+37780+126370FM-15+0250RKSV V0203501N007212200019N0112651N1+99999+99999999999ADDMA1102541999999MW1001REMMET053RKSV 2156Z 35014KT 9999 M10/M13 A3028 RMK QFF1029PT2;EQDQ01+000000PRSWM2
0117471084999992000011023004+37780+126370FM-15+0250RKSV V0203201N004612200019N0112651N1+99999+99999999999ADDMA1102611999999MW1001OC100981REMMET057RKSV 2257Z 32009G019KT 9999 M08/M13 A3030 RMK QFF1029PT9;EQDQ01+000000PRSWM2
0154471084999992000011100004+37780+126370FM-15+0250RKSV V0203301N004612200019N0112651N1-00801-01301999999ADDGA1021+060009999GF102991999999999999999999MA1102611999999MW1001REMMET060RKSV 2357Z 33009KT 9999 FEW200 M08/M13 A3030 RMK QFF1029PT9;EQDQ01+000000PRSWM2
0154471084999992000011101004+37780+126370FM-15+0250RKSV V0203101N004112200019N0112651N1-00701-01301999999ADDGA1021+060009999GF104991999999999999999999MA1102611999999MW1001REMMET060RKSV 0056Z 31008KT 9999 SCT200 M07/M13 A3030 RMK QFF1029PT9;EQDQ01+000000PRSWM2
0154471084999992000011102004+37780+126370FM-15+0250RKSV V0203101N003612200019N0112651N1-00601-01101999999ADDGA1021+060009999GF104991999999999999999999MA1102571999999MW1001REMMET060RKSV 0157Z 31007KT 9999 SCT200 M06/M11 A3029 RMK QFF1029PT6;EQDQ01+000000PRSWM2
0162471084999992000011103004+37780+126370FM-15+0250RKSV V0203301N004110600019N0112651N1-00501-01201999999ADDGA1071+060009999GF107991999999999999999999MA1102571999999MW1001REMMET068RKSV 0257Z 33008KT 9999 BKN200 M05/M12 A3029 RMK CIG200/ QFF1029PT6;EQDQ01+000000PRSWM2
0162471084999992000011104004+37780+126370FM-15+0250RKSV V0203401N003110600019N0112651N1-00201-00801999999ADDGA1071+060009999GF107991999999999999999999MA1102541999999MW1001REMMET068RKSV 0358Z 34006KT 9999 BKN200 M02/M08 A3028 RMK CIG200/ QFF1029PT2;EQDQ01+000000PRSWM2
0162471084999992000011105004+37780+126370FM-15+0250RKSV V0203301N003610600019N0112651N1-00101-00901999999ADDGA1071+060009999GF107991999999999999999999MA1102441999999MW1001REMMET068RKSV 0456Z 33007KT 9999 BKN200 M01/M09 A3025 RMK CIG200/ QFF1028PT0;EQDQ01+000000PRSWM2
0162471084999992000011106004+37780+126370FM-15+0250RKSV V0203401N002610600019N0112651N1-00101-00901999999ADDGA1071+060009999GF107991999999999999999999MA1102441999999MW1001REMMET068RKSV 0557Z 34005KT 9999 BKN200 M01/M09 A3025 RMK CIG200/ QFF1028PT0;EQDQ01+000000PRSWM2
0185471084999992000011107004+37780+126370FM-15+0250RKSV V0203401N004110600019N0112651N1-00101-00901999999ADDGA1021+036009999GA2071+060009999GF107991999999999999999999MA1102441999999MW1001REMMET075RKSV 0657Z 34008KT 9999 FEW120 BKN200 M01/M09 A3025 RMK CIG200/ QFF1028PT0;EQDQ01+000000PRSWM2
0185471084999992000011108004+37780+126370FM-15+0250RKSV V0203301N004610600019N0112651N1-00101-00901999999ADDGA1021+036009999GA2081+060009999GF108991999999999999999999MA1102441999999MW1001REMMET075RKSV 0757Z 33009KT 9999 SCT120 OVC200 M01/M09 A3025 RMK CIG200/ QFF1028PT0;EQDQ01+000000PRSWM2
0185471084999992000011109004+37780+126370FM-15+0250RKSV V0203301N006210600019N0112651N1-00101-00901999999ADDGA1021+030009999GA2081+060009999GF108991999999999999999999MA1102371999999MW1001REMMET075RKSV 0858Z 33012KT 9999 SCT100 OVC200 M01/M09 A3023 RMK CIG200/ QFF1027PT4;EQDQ01+000000PRSWM2
0185471084999992000011110004+37780+126370FM-15+0250RKSV V0203401N005710600019N0112651N1-00101-00901999999ADDGA1021+030009999GA2081+060009999GF108991999999999999999999MA1102371999999MW1001REMMET075RKSV 0956Z 34011KT 9999 SCT100 OVC200 M01/M09 A3023 RMK CIG200/ QFF1027PT5;EQDQ01+000000PRSWM2
0185471084999992000011111004+37780+126370FM-15+0250RKSV V0203301N005710600019N0112651N1-00101-00801999999ADDGA1021+030009999GA2081+060009999GF108991999999999999999999MA1102371999999MW1001REMMET075RKSV 1058Z 33011KT 9999 SCT100 OVC200 M01/M08 A3023 RMK CIG200/ QFF1027PT5;EQDQ01+000000PRSWM2
0197471084999992000011112004+37780+126370FM-15+0250RKSV V0203301N005110300019N0112651N1-00101-00801999999ADDGA1071+030009999GA2081+060009999GF108991999999999999999999MA1102341999999MW1001OC101081REMMET079RKSV 1157Z 33010G021KT 9999 BKN100 OVC200 M01/M08 A3022 RMK CIG100/ QFF1027PT2;EQDQ01+000000PRSWM2
0185471084999992000011113004+37780+126370FM-15+0250RKSV V0203201N006210300019N0112651N1-00101-00801999999ADDGA1071+030009999GA2081+060009999GF108991999999999999999999MA1102341999999MW1001REMMET075RKSV 1258Z 32012KT 9999 BKN100 OVC200 M01/M08 A3022 RMK CIG100/ QFF1027PT1;EQDQ01+000000PRSWM2
0197471084999992000011114004+37780+126370FM-15+0250RKSV V0203401N004610300019N0112651N1-00101-00801999999ADDGA1071+030009999GA2081+060009999GF108991999999999999999999MA1102401999999MW1001OC101031REMMET079RKSV 1356Z 34009G020KT 9999 BKN100 OVC200 M01/M08 A3024 RMK CIG100/ QFF1027PT7;EQDQ01+000000PRSWM2
0185471084999992000011115004+37780+126370FM-15+0250RKSV V0203301N005710600019N0112651N1-00101-00701999999ADDGA1021+030009999GA2071+060009999GF107991999999999999999999MA1102371999999MW1001REMMET075RKSV 1457Z 33011KT 9999 SCT100 BKN200 M01/M07 A3023 RMK CIG200/ QFF1027PT4;EQDQ01+000000PRSWM2
0197471084999992000011116004+37780+126370FM-15+0250RKSV V0203301N003610600019N0112651N1-00201-00701999999ADDGA1021+030009999GA2071+060009999GF107991999999999999999999MA1102341999999MW1001OC100931REMMET079RKSV 1558Z 33007G018KT 9999 FEW100 BKN200 M02/M07 A3022 RMK CIG200/ QFF1027PT0;EQDQ01+000000PRSWM2
0185471084999992000011117004+37780+126370FM-15+0250RKSV V0200201N003610600019N0112651N1-00101-00501999999ADDGA1021+030009999GA2071+060009999GF107991999999999999999999MA1102301999999MW1001REMMET075RKSV 1656Z 02007KT 9999 SCT100 BKN200 M01/M05 A3021 RMK CIG200/ QFF1026PT6;EQDQ01+000000PRSWM2
0185471084999992000011118004+37780+126370FM-15+0250RKSV V0203401N002110600019N0112651N1-00101-00401999999ADDGA1021+030009999GA2071+060009999GF107991999999999999999999MA1102271999999MW1001REMMET075RKSV 1757Z 34004KT 9999 FEW100 BKN200 M01/M04 A3020 RMK CIG200/ QFF1026PT3;EQDQ01+000000PRSWM2
0185471084999992000011119004+37780+126370FM-15+0250RKSV V0203301N003110600019N0112651N1-00101-00401999999ADDGA1021+030009999GA2071+060009999GF107991999999999999999999MA1102171999999MW1001REMMET075RKSV 1858Z 33006KT 9999 SCT100 BKN200 M01/M04 A3017 RMK CIG200/ QFF1025PT2;EQDQ01+000000PRSWM2
0185471084999992000011120004+37780+126370FM-15+0250RKSV V0203401N005710600019N0112651N1+00001-00501999999ADDGA1021+030009999GA2081+060009999GF108991999999999999999999MA1102071999999MW1001REMMET075RKSV 1956Z 34011KT 9999 SCT100 OVC200 M00/M05 A3014 RMK CIG200/ QFF1024PT1;EQDQ01+000000PRSWM2
0185471084999992000011121004+37780+126370FM-15+0250RKSV V0203301N006210600019N0112651N1+00001-00401999999ADDGA1021+030009999GA2081+060009999GF108991999999999999999999MA1102071999999MW1001REMMET075RKSV 2057Z 33012KT 9999 SCT100 OVC200 M00/M04 A3014 RMK CIG200/ QFF1024PT0;EQDQ01+000000PRSWM2
0184471084999992000011122004+37780+126370FM-15+0250RKSV V0203401N004110300019N0112651N1+00001-00301999999ADDGA1071+030009999GA2081+060009999GF108991999999999999999999MA1102071999999MW1001REMMET074RKSV 2158Z 34008KT 9999 BKN100 OVC200 00/M03 A3014 RMK CIG100/ QFF1023PT9;EQDQ01+000000PRSWM2
0207471084999992000011123004+37780+126370FM-15+0250RKSV V0203501N005110300019N0112651N1+00001-00301999999ADDGA1021+009009999GA2071+030009999GA3081+060009999GF108991999999999999999999MA1102071999999MW1001REMMET081RKSV 2256Z 35010KT 9999 FEW030 BKN100 OVC200 00/M03 A3014 RMK CIG100/ QFF1023PT8;EQDQ01+000000PRSWM2
0184471084999992000011200004+37780+126370FM-15+0250RKSV V0203401N004610300019N0112651N1+00001-00301999999ADDGA1021+009009999GA2081+030009999GF108991999999999999999999MA1102071999999MW1001REMMET074RKSV 2357Z 34009KT 9999 FEW030 OVC100 00/M03 A3014 RMK CIG100/ QFF1023PT8;EQDQ01+000000PRSWM2
0184471084999992000011201004+37780+126370FM-15+0250RKSV V0203401N004110300019N0112651N1+00101-00301999999ADDGA1021+009009999GA2081+030009999GF108991999999999999999999MA1102071999999MW1001REMMET074RKSV 0057Z 34008KT 9999 SCT030 OVC100 01/M03 A3014 RMK CIG100/ QFF1023PT8;EQDQ01+000000PRSWM2
0184471084999992000011202004+37780+126370FM-15+0250RKSV V0203301N005110090019N0112651N1+00101-00201999999ADDGA1071+009009999GA2081+030009999GF108991999999999999999999MA1102071999999MW1001REMMET074RKSV 0156Z 33010KT 9999 BKN030 OVC100 01/M02 A3014 RMK CIG030/ QFF1023PT8;EQDQ01+000000PRSWM2
0154471084999992000011202104+37780+126370FM-16+0250RKSV V0203201N003610090019N0080001N1+99999+99999999999ADDGA1071+009009999GA2081+030009999GF108991999999999999999999MW1001MW2711REMMET053RKSV 0210Z 32007KT 8000 -SN BKN030 OVC100 RMK CIG030;EQDQ01+000003PRSWM1
0210471084999992000011203004+37780+126370FM-15+0250RKSV V0203001N003610090019N0060001N1+00101-00201999999ADDGA1021+004509999GA2081+009009999GF108991999999999999999999MA1102031999999MW1711REMMET084RKSV 0257Z 30007KT 6000 -SN FEW015 OVC030 01/M02 A3013 RMK CIG030/1SN01/ QFF1023PT5;EQDQ01+000003PRSWM1Q02    003PRSWM1
0210471084999992000011204004+37780+126370FM-15+0250RKSV V0203401N005110090019N0048001N1+00001-00101999999ADDGA1021+004509999GA2081+009009999GF108991999999999999999999MA1101901999999MW1711REMMET084RKSV 0356Z 34010KT 4800 -SN FEW015 OVC030 00/M01 A3009 RMK CIG030/1SN01/ QFF1022PT1;EQDQ01+000003PRSWM1Q02    003PRSWM1
0210471084999992000011205004+37780+126370FM-15+0250RKSV V0203301N005710090019N0048001N1+00001-00101999999ADDGA1021+004509999GA2081+009009999GF108991999999999999999999MA1101801999999MW1711REMMET084RKSV 0457Z 33011KT 4800 -SN SCT015 OVC030 00/M01 A3006 RMK CIG030/1SN02/ QFF1021PT0;EQDQ01+000003PRSWM1Q02    003PRSWM1
0211471084999992000011207004+37780+126370FM-15+0250RKSV V0203601N004110090019N0048001N1+00001-00101999999ADDGA1021+004509999GA2081+009009999GF108991999999999999999999MA1101691999999MW1711REMMET085RKSV 0656Z 36008KT 4800 -SN SCT015 OVC030 M00/M01 A3003 RMK CIG030/1SN02/ QFF1020PT0;EQDQ01+000003PRSWM1Q02    003PRSWM1
0211471084999992000011208004+37780+126370FM-15+0250RKSV V0200201N004610090019N0048001N1+00001-00101999999ADDGA1021+004509999GA2081+009009999GF108991999999999999999999MA1101691999999MW1711REMMET085RKSV 0758Z 02009KT 4800 -SN SCT015 OVC030 M00/M01 A3003 RMK CIG030/1SN02/ QFF1020PT0;EQDQ01+000003PRSWM1Q02    003PRSWM1
0178471084999992000011208104+37780+126370FM-16+0250RKSV V0203401N005710036019N0032001N1+99999+99999999999ADDGA1011+000159999GA2071+003609999GA3081+009009999GF108991999999999999999999MW1001MW2711REMMET061RKSV 0810Z 34011KT 3200 -SN 1FG/// BKN012 OVC030 RMK CIGE012;EQDQ01+000003PRSWM1
0155471084999992000011208404+37780+126370FM-16+0250RKSV V0203201N003610036019N0016001N1+99999+99999999999ADDGA1031+000159999GA2081+003609999GF108991999999999999999999MW1001MW2711REMMET054RKSV 0840Z 32007KT 1600 -SN 3FG/// OVC012 RMK CIGE012;EQDQ01+000003PRSWM1
0212471084999992000011209004+37780+126370FM-15+0250RKSV V0203101N002610036019N0016001N1+00001-00101999999ADDGA1031+000159999GA2081+003609999GF108991999999999999999999MA1101661999999MW1711REMMET086RKSV 0857Z 31005KT 1600 -SN 3FG/// OVC012 M00/M01 A3002 RMK CIGE012/1SN01/ QFF1019PT6;EQDQ01+000003PRSWM1Q02    003PRSWM1
0090471084999992000011209104+37780+126370FM-16+0250RKSV V0203001N004110001519N0000001N1+99999+99999999999ADDMW1001MW2711REMMET047RKSV 0910Z 30008KT 0000 -SN 9FG000 RMK CIGW000;EQDQ01+000003PRSWM1
0122471084999992000011210004+37780+126370FM-15+0250RKSV V0202501N002110001519N0000001N1+99999+99999999999ADDMW1001MW2711REMMET079RKSV 0956Z 25004KT 0000 -SN 9FG000 M00/M01 A3001 RMK CIGW000/1SN01/ QFF1019PT3;EQDQ01+000003PRSWM1
0121471084999992000011211004+37780+126370FM-15+0250RKSV V0202001N003610001519N0000001N1+99999+99999999999ADDMW1001MW2711REMMET078RKSV 1057Z 20007KT 0000 -SN 9FG000 00/M01 A3001 RMK CIGW000/1SN00/ QFF1019PT2;EQDQ01+000003PRSWM1
0103471084999992000011211154+37780+126370FM-16+0250RKSV V0201901N005110001519N0000001N1+99999+99999999999ADDMW1001MW2631MW3711REMMET054RKSV 1115Z 19010KT 0000 RASN 9FG000 A3001 RMK CIGW000;EQDQ01+000003PRSWM1
0138471084999992000011212004+37780+126370FM-15+0250RKSV V0201701N004610001519N0000001N1+99999+99999999999ADDMW1001MW2631MW3711REMMET089RKSV 1158Z 17009KT 0000 RASN 9FG000 00/M01 A3001 RMK CIGW000/1RASN00/6RASN06/ QFF1019PT2;EQDQ01+000003PRSWM1
0162471084999992000011212154+37780+126370FM-16+0250RKSV V0201301N003110036019N0016001N1+99999+99999999999ADDGA1031+000159999GA2081+003609999GF108991999999999999999999MW1001MW2631MW3711REMMET055RKSV 1215Z 13006KT 1600 RASN 3FG/// OVC012 RMK CIGE012;EQDQ01+000003PRSWM1
0219471084999992000011213004+37780+126370FM-15+0250RKSV V0201001N003610036019N0016001N1+00101+00001999999ADDGA1031+000159999GA2081+003609999GF108991999999999999999999MA1101631999999MW1631MW2711REMMET087RKSV 1256Z 10007KT 1600 RASN 3FG/// OVC012 01/00 A3001 RMK CIGE012/1RASN00/ QFF1019PT1;EQDQ01+000003PRSWM1Q02    003PRSWM1
0176471084999992000011213154+37780+126370FM-16+0250RKSV V0201201N003110036019N0016001N1+99999+99999999999ADDGA1031+000159999GA2081+003609999GF108991999999999999999999MA1101631999999MW1001MW2611REMMET060RKSV 1315Z 12006KT 1600 -RA 3FG/// OVC012 A3001 RMK CIGE012;EQDQ01+000003PRSWM1
0211471084999992000011214004+37780+126370FM-15+0250RKSV V0200501N002610036019N0016001N1+00001-00101999999ADDGA1031+000159999GA2081+003609999GF108991999999999999999999MA1101561999999MW1611REMMET085RKSV 1357Z 05005KT 1600 -RA 3FG/// OVC012 00/M01 A2999 RMK CIGE012/1RA01/ QFF1018PT5;EQDQ01+000003PRSWM1Q02    003PRSWM1
0217471084999992000011215004+37780+126370FM-15+0250RKSV V0200101N002110036019N0016001N1+00001-00101999999ADDGA1031+000159999GA2081+003609999GF108991999999999999999999MA1101521999999MW1611REMMET091RKSV 1458Z 01004KT 1600 -RA 3FG/// OVC012 00/M01 A2998 RMK CIGE012/1RA00/20011/ QFF1018PT1;EQDQ01+000003PRSWM1Q02    003PRSWM1
0183471084999992000011215404+37780+126370FM-16+0250RKSV V0203401N004110036019N0016001N1+99999+99999999999ADDGA1031+000159999GA2081+003609999GF108991999999999999999999MA1101491999999MW1001MW2631MW3711REMMET061RKSV 1540Z 34008KT 1600 RASN 3FG/// OVC012 A2997 RMK CIGE012;EQDQ01+000003PRSWM1
0220471084999992000011216004+37780+126370FM-15+0250RKSV V0203301N004110036019N0016001N1+00001-00101999999ADDGA1031+000159999GA2081+003609999GF108991999999999999999999MA1101491999999MW1631MW2711REMMET088RKSV 1557Z 33008KT 1600 RASN 3FG/// OVC012 00/M01 A2997 RMK CIGE012/1RASN00/ QFF1017PT7;EQDQ01+000003PRSWM1Q02    003PRSWM1
0220471084999992000011217004+37780+126370FM-15+0250RKSV V0203401N002110036019N0016001N1+00001-00101999999ADDGA1031+000159999GA2081+003609999GF108991999999999999999999MA1101461999999MW1631MW2711REMMET088RKSV 1656Z 34004KT 1600 RASN 3FG/// OVC012 00/M01 A2996 RMK CIGE012/1RASN00/ QFF1017PT4;EQDQ01+000003PRSWM1Q02    003PRSWM1
0229471084999992000011218004+37780+126370FM-15+0250RKSV V0203101N005110036019N0016001N1+00001-00101999999ADDGA1031+000159999GA2081+003609999GF108991999999999999999999MA1101421999999MW1631MW2711REMMET097RKSV 1758Z 31010KT 1600 RASN 3FG/// OVC012 M00/M01 A2995 RMK CIGE012/1RASN00/6RASN01/ QFF1017PT1;EQDQ01+000003PRSWM1Q02    003PRSWM1
0089471084999992000011218104+37780+126370FM-16+0250RKSV V0203001N004110001519N0000001N1+99999+99999999999ADDMW1001MW2441REMMET046RKSV 1810Z 30008KT 0000 FG 9FG000 RMK CIGW000;EQDQ01+000003PRSWM1
0123471084999992000011219004+37780+126370FM-15+0250RKSV V0203201N004610001519N0000001N1+99999+99999999999ADDMW1001MW2441REMMET080RKSV 1857Z 32009KT 0000 FG 9FG000 M00/M01 A2994 RMK CIGW000/1RASN00/ QFF1016PT8;EQDQ01+000003PRSWM1
0115471084999992000011220004+37780+126370FM-15+0250RKSV V0203101N003610001519N0000001N1+99999+99999999999ADDMW1001MW2441REMMET072RKSV 1956Z 31007KT 0000 FG 9FG000 M01/M01 A2993 RMK CIGW000/ QFF1016PT5;EQDQ01+000003PRSWM1
0115471084999992000011221004+37780+126370FM-15+0250RKSV V0203001N004110001519N0000001N1+99999+99999999999ADDMW1001MW2441REMMET072RKSV 2058Z 30008KT 0000 FG 9FG000 M01/M02 A2993 RMK CIGW000/ QFF1016PT4;EQDQ01+000003PRSWM1
0115471084999992000011222004+37780+126370FM-15+0250RKSV V0203401N002610001519N0000001N1+99999+99999999999ADDMW1001MW2441REMMET072RKSV 2157Z 34005KT 0000 FG 9FG000 M01/M02 A2994 RMK CIGW000/ QFF1016PT8;EQDQ01+000003PRSWM1
0115471084999992000011223004+37780+126370FM-15+0250RKSV V0203301N004110001519N0000001N1+99999+99999999999ADDMW1001MW2441REMMET072RKSV 2256Z 33008KT 0000 FG 9FG000 M01/M02 A2994 RMK CIGW000/ QFF1016PT9;EQDQ01+000003PRSWM1
0123471084999992000011300004+37780+126370FM-15+0250RKSV V0203301N003610001519N0000001N1+99999+99999999999ADDMW1001MW2441REMMET080RKSV 2357Z 33007KT 0000 FG 9FG000 M01/M02 A2995 RMK CIGW000/6RASN00/ QFF1017PT2;EQDQ01+000003PRSWM1
0115471084999992000011301004+37780+126370FM-15+0250RKSV V0203201N004110001519N0000001N1+99999+99999999999ADDMW1001MW2441REMMET072RKSV 0057Z 32008KT 0000 FG 9FG000 M01/M02 A2998 RMK CIGW000/ QFF1018PT2;EQDQ01+000003PRSWM1
0115471084999992000011302004+37780+126370FM-15+0250RKSV V0203501N003110001519N0000001N1+99999+99999999999ADDMW1001MW2441REMMET072RKSV 0156Z 35006KT 0000 FG 9FG000 M01/M02 A2998 RMK CIGW000/ QFF1018PT2;EQDQ01+000003PRSWM1
0115471084999992000011303004+37780+126370FM-15+0250RKSV V0203001N003110001519N0000001N1+99999+99999999999ADDMW1001MW2441REMMET072RKSV 0258Z 30006KT 0000 FG 9FG000 M01/M02 A2998 RMK CIGW000/ QFF1018PT2;EQDQ01+000003PRSWM1
0122471084999992000011304004+37780+126370FM-15+0250RKSV V0202901N002610001519N0000001N1+99999+99999999999ADDMW1001MW2511REMMET079RKSV 0357Z 29005KT 0000 -DZ 9FG000 M01/M02 A2997 RMK CIGW000/1RA00/ QFF1017PT8;EQDQ01+000003PRSWM1
0122471084999992000011305004+37780+126370FM-15+0250RKSV V0203101N001510001519N0000001N1+99999+99999999999ADDMW1001MW2511REMMET079RKSV 0456Z 31003KT 0000 -DZ 9FG000 M01/M02 A2995 RMK CIGW000/1RA00/ QFF1017PT3;EQDQ01+000003PRSWM1
0154471084999992000011305304+37780+126370FM-16+0250RKSV V0202701N001010030019N0016001N1+99999+99999999999ADDGA1031+000159999GA2081+003009999GF108991999999999999999999MW1001MW2101REMMET053RKSV 0530Z 27002KT 1600 BR 3FG/// OVC010 RMK CIGE010;EQDQ01+000003PRSWM1
0217471084999992000011306004+37780+126370FM-15+0250RKSV V0202801N002110030019N0016001N1-00101-00201999999ADDGA1031+000159999GA2081+003009999GF108991999999999999999999MA1101421999999MW1101REMMET091RKSV 0557Z 28004KT 1600 BR 3FG/// OVC010 M01/M02 A2995 RMK CIGE010/1RA00/6RA00/ QFF1017PT3;EQDQ01+000003PRSWM1Q02    003PRSWM1
0177471084999992000011306324+37780+126370FM-16+0250RKSV V0203001N004110036019N0032001N1+99999+99999999999ADDGA1011+000159999GA2071+003609999GA3081+009009999GF108991999999999999999999MW1001MW2101REMMET060RKSV 0632Z 30008KT 3200 BR 1FG/// BKN012 OVC030 RMK CIGE012;EQDQ01+000003PRSWM1
0228471084999992000011307004+37780+126370FM-15+0250RKSV V0203101N003110036019N0032001N1-00201-00301999999ADDGA1011+000159999GA2071+003609999GA3081+009009999GF108991999999999999999999MA1101421999999MW1101REMMET086RKSV 0656Z 31006KT 3200 BR 1FG/// BKN012 OVC030 M02/M03 A2995 RMK CIGE012/ QFF1017PT3;EQDQ01+000003PRSWM1Q02    003PRSWM1
0153471084999992000011307064+37780+126370FM-16+0250RKSV V0202501N002610090019N0048001N1+99999+99999999999ADDGA1021+003609999GA2071+009009999GF107991999999999999999999MW1001MW2101REMMET052RKSV 0706Z 25005KT 4800 BR FEW012 BKN030 RMK CIG030;EQDQ01+000003PRSWM1
0204471084999992000011308004+37780+126370FM-15+0250RKSV V0203001N003110090019N0048001N1-00201-00501999999ADDGA1021+003609999GA2071+009009999GF107991999999999999999999MA1101421999999MW1101REMMET078RKSV 0757Z 30006KT 4800 BR FEW012 BKN030 M02/M05 A2995 RMK CIG030/ QFF1017PT3;EQDQ01+000003PRSWM1Q02    003PRSWM1
0204471084999992000011309004+37780+126370FM-15+0250RKSV V0202401N002110090019N0048001N1-00501-00601999999ADDGA1021+003609999GA2071+009009999GF107991999999999999999999MA1101561999999MW1101REMMET078RKSV 0858Z 24004KT 4800 BR SCT012 BKN030 M05/M06 A2999 RMK CIG030/ QFF1018PT9;EQDQ01+000003PRSWM1Q02    003PRSWM1
0204471084999992000011310004+37780+126370FM-15+0250RKSV V0202801N003610090019N0048001N1-00501-00601999999ADDGA1021+003609999GA2071+009009999GF107991999999999999999999MA1101591999999MW1101REMMET078RKSV 0956Z 28007KT 4800 BR FEW012 BKN030 M05/M06 A3000 RMK CIG030/ QFF1019PT2;EQDQ01+000003PRSWM1Q02    003PRSWM1
0204471084999992000011311004+37780+126370FM-15+0250RKSV V0203101N004110090019N0048001N1-00501-00601999999ADDGA1021+003609999GA2081+009009999GF108991999999999999999999MA1101661999999MW1101REMMET078RKSV 1057Z 31008KT 4800 BR FEW012 OVC030 M05/M06 A3002 RMK CIG030/ QFF1020PT0;EQDQ01+000003PRSWM1Q02    003PRSWM1
0204471084999992000011312004+37780+126370FM-15+0250RKSV V0203201N003110090019N0060001N1-00501-00701999999ADDGA1021+004509999GA2081+009009999GF108991999999999999999999MA1101731999999MW1101REMMET078RKSV 1158Z 32006KT 6000 BR FEW015 OVC030 M05/M07 A3004 RMK CIG030/ QFF1020PT6;EQDQ01+000003PRSWM1Q02    003PRSWM1
0181471084999992000011313004+37780+126370FM-15+0250RKSV V0203401N002110090019N0060001N1-00501-00601999999ADDGA1081+009009999GF108991999999999999999999MA1101761999999MW1101REMMET071RKSV 1256Z 34004KT 6000 BR OVC030 M05/M06 A3005 RMK CIG030/ QFF1020PT9;EQDQ01+000003PRSWM1Q02    003PRSWM1
0181471084999992000011314004+37780+126370FM-15+0250RKSV V0203101N001010090019N0060001N1-00501-00701999999ADDGA1081+009009999GF108991999999999999999999MA1101761999999MW1101REMMET071RKSV 1358Z 31002KT 6000 BR OVC030 M05/M07 A3005 RMK CIG030/ QFF1020PT9;EQDQ01+000003PRSWM1Q02    003PRSWM1
0181471084999992000011315004+37780+126370FM-15+0250RKSV V0203301N002110090019N0060001N1-00501-00701999999ADDGA1081+009009999GF108991999999999999999999MA1101801999999MW1101REMMET071RKSV 1457Z 33004KT 6000 BR OVC030 M05/M07 A3006 RMK CIG030/ QFF1021PT3;EQDQ01+000003PRSWM1Q02    003PRSWM1
0181471084999992000011316004+37780+126370FM-15+0250RKSV V0203401N001510090019N0060001N1-00501-00701999999ADDGA1081+009009999GF108991999999999999999999MA1101761999999MW1101REMMET071RKSV 1557Z 34003KT 6000 BR OVC030 M05/M07 A3005 RMK CIG030/ QFF1021PT0;EQDQ01+000003PRSWM1Q02    003PRSWM1
0181471084999992000011317004+37780+126370FM-15+0250RKSV V0203101N001010090019N0060001N1-00501-00701999999ADDGA1081+009009999GF108991999999999999999999MA1101801999999MW1101REMMET071RKSV 1658Z 31002KT 6000 BR OVC030 M05/M07 A3006 RMK CIG030/ QFF1021PT3;EQDQ01+000003PRSWM1Q02    003PRSWM1
0181471084999992000011318004+37780+126370FM-15+0250RKSV V0203401N001510090019N0060001N1-00501-00701999999ADDGA1081+009009999GF108991999999999999999999MA1101861999999MW1101REMMET071RKSV 1756Z 34003KT 6000 BR OVC030 M05/M07 A3008 RMK CIG030/ QFF1021PT9;EQDQ01+000003PRSWM1Q02    003PRSWM1
0181471084999992000011319004+37780+126370FM-15+0250RKSV V0203201N001510090019N0080001N1-00501-00701999999ADDGA1081+009009999GF108991999999999999999999MA1101861999999MW1101REMMET071RKSV 1857Z 32003KT 8000 BR OVC030 M05/M07 A3008 RMK CIG030/ QFF1021PT9;EQDQ01+000003PRSWM1Q02    003PRSWM1
0181471084999992000011320004+37780+126370FM-15+0250RKSV V0203301N002610090019N0080001N1-00501-00701999999ADDGA1081+009009999GF108991999999999999999999MA1101861999999MW1101REMMET071RKSV 1958Z 33005KT 8000 BR OVC030 M05/M07 A3008 RMK CIG030/ QFF1022PT0;EQDQ01+000003PRSWM1Q02    003PRSWM1
0181471084999992000011321004+37780+126370FM-15+0250RKSV V0203401N001010090019N0060001N1-00501-00701999999ADDGA1081+009009999GF108991999999999999999999MA1101861999999MW1101REMMET071RKSV 2056Z 34002KT 6000 BR OVC030 M05/M07 A3008 RMK CIG030/ QFF1022PT0;EQDQ01+000003PRSWM1Q02    003PRSWM1
0181471084999992000011322004+37780+126370FM-15+0250RKSV V0203301N002110090019N0060001N1-00501-00701999999ADDGA1081+009009999GF108991999999999999999999MA1101901999999MW1101REMMET071RKSV 2157Z 33004KT 6000 BR OVC030 M05/M07 A3009 RMK CIG030/ QFF1022PT4;EQDQ01+000003PRSWM1Q02    003PRSWM1
0181471084999992000011323004+37780+126370FM-15+0250RKSV V0203301N001510090019N0048001N1-00601-00701999999ADDGA1071+009009999GF107991999999999999999999MA1102001999999MW1101REMMET071RKSV 2258Z 33003KT 4800 BR BKN030 M06/M07 A3012 RMK CIG030/ QFF1023PT1;EQDQ01+000003PRSWM1Q02    003PRSWM1
0181471084999992000011400004+37780+126370FM-15+0250RKSV V0200201N001010090019N0048001N1-00601-00801999999ADDGA1071+009009999GF107991999999999999999999MA1102031999999MW1101REMMET071RKSV 2357Z 02002KT 4800 BR BKN030 M06/M08 A3013 RMK CIG030/ QFF1023PT4;EQDQ01+000003PRSWM1Q02    003PRSWM1
0181471084999992000011402004+37780+126370FM-15+0250RKSV V0201001N001010090019N0048001N1-00401-00701999999ADDGA1081+009009999GF108991999999999999999999MA1102131999999MW1101REMMET071RKSV 0157Z 10002KT 4800 BR OVC030 M04/M07 A3016 RMK CIG030/ QFF1024PT6;EQDQ01+000003PRSWM1Q02    003PRSWM1
0131471084999992000011402054+37780+126370FM-16+0250RKSV V0201501N002110090019N0048001N1+99999+99999999999ADDGA1081+009009999GF108991999999999999999999MW1001MW2711REMMET046RKSV 0205Z 15004KT 4800 -SN OVC030 RMK CIG030;EQDQ01+000003PRSWM1
0188471084999992000011403004+37780+126370FM-15+0250RKSV V0201601N002110090019N0048001N1-00401-00701999999ADDGA1081+009009999GF108991999999999999999999MA1102131999999MW1711REMMET078RKSV 0256Z 16004KT 4800 -SN OVC030 M04/M07 A3016 RMK CIG030/1SN00/ QFF1024PT6;EQDQ01+000003PRSWM1Q02    003PRSWM1
0130471084999992000011403354+37780+126370FM-16+0250RKSV V0201101N001010090019N0048001N1+99999+99999999999ADDGA1071+009009999GF107991999999999999999999MW1001MW2101REMMET045RKSV 0335Z 11002KT 4800 BR BKN030 RMK CIG030;EQDQ01+000003PRSWM1
0187471084999992000011404004+37780+126370FM-15+0250RKSV V0201401N001510090019N0048001N1-00301-00601999999ADDGA1071+009009999GF107991999999999999999999MA1102101999999MW1101REMMET077RKSV 0357Z 14003KT 4800 BR BKN030 M03/M06 A3015 RMK CIG030/1SN00/ QFF1024PT2;EQDQ01+000003PRSWM1Q02    003PRSWM1
0181471084999992000011405004+37780+126370FM-15+0250RKSV V0201201N001510090019N0048001N1-00301-00601999999ADDGA1071+009009999GF107991999999999999999999MA1102071999999MW1101REMMET071RKSV 0458Z 12003KT 4800 BR BKN030 M03/M06 A3014 RMK CIG030/ QFF1023PT8;EQDQ01+000003PRSWM1Q02    003PRSWM1
0187471084999992000011406004+37780+126370FM-15+0250RKSV V0200401N001510090019N0060001N1-00301-00701999999ADDGA1071+009009999GF107991999999999999999999MA1102071999999MW1101REMMET077RKSV 0556Z 04003KT 6000 BR BKN030 M03/M07 A3014 RMK CIG030/6SN00/ QFF1023PT8;EQDQ01+000003PRSWM1Q02    003PRSWM1
0181471084999992000011407004+37780+126370FM-15+0250RKSV V0200101N003110090019N0060001N1-00401-00801999999ADDGA1071+009009999GF107991999999999999999999MA1102071999999MW1101REMMET071RKSV 0658Z 01006KT 6000 BR BKN030 M04/M08 A3014 RMK CIG030/ QFF1023PT8;EQDQ01+000003PRSWM1Q02    003PRSWM1
0181471084999992000011408004+37780+126370FM-15+0250RKSV V0203501N003110090019N0060001N1-00401-00701999999ADDGA1071+009009999GF107991999999999999999999MA1102131999999MW1101REMMET071RKSV 0756Z 35006KT 6000 BR BKN030 M04/M07 A3016 RMK CIG030/ QFF1024PT6;EQDQ01+000003PRSWM1Q02    003PRSWM1
0181471084999992000011409004+37780+126370FM-15+0250RKSV V0203201N003610090019N0060001N1-00401-00701999999ADDGA1081+009009999GF108991999999999999999999MA1102241999999MW1101REMMET071RKSV 0857Z 32007KT 6000 BR OVC030 M04/M07 A3019 RMK CIG030/ QFF1025PT7;EQDQ01+000003PRSWM1Q02    003PRSWM1
0181471084999992000011410004+37780+126370FM-15+0250RKSV V0203001N001510090019N0060001N1-00401-00701999999ADDGA1081+009009999GF108991999999999999999999MA1102301999999MW1101REMMET071RKSV 0958Z 30003KT 6000 BR OVC030 M04/M07 A3021 RMK CIG030/ QFF1026PT4;EQDQ01+000003PRSWM1Q02    003PRSWM1
0181471084999992000011411004+37780+126370FM-15+0250RKSV V0203301N002110090019N0060001N1-00401-00701999999ADDGA1071+009009999GF107991999999999999999999MA1102341999999MW1101REMMET071RKSV 1056Z 33004KT 6000 BR BKN030 M04/M07 A3022 RMK CIG030/ QFF1026PT7;EQDQ01+000003PRSWM1Q02    003PRSWM1
0181471084999992000011412004+37780+126370FM-15+0250RKSV V0203401N001510090019N0080001N1-00501-00801999999ADDGA1071+009009999GF107991999999999999999999MA1102341999999MW1101REMMET071RKSV 1157Z 34003KT 8000 BR BKN030 M05/M08 A3022 RMK CIG030/ QFF1026PT8;EQDQ01+000003PRSWM1Q02    003PRSWM1
0181471084999992000011413004+37780+126370FM-15+0250RKSV V0203201N003110090019N0080001N1-00501-00901999999ADDGA1071+009009999GF107991999999999999999999MA1102341999999MW1101REMMET071RKSV 1258Z 32006KT 8000 BR BKN030 M05/M09 A3022 RMK CIG030/ QFF1026PT8;EQDQ01+000003PRSWM1Q02    003PRSWM1
0145471084999992000011413204+37780+126370FM-16+0250RKSV V0203401N003112200019N0080001N1+99999+99999999999ADDGA1021+009009999GF104991999999999999999999MA1102341999999MW1001MW2101REMMET045RKSV 1320Z 34006KT 8000 BR SCT030 A3022 RMK ;EQDQ01+000003PRSWM1
0173471084999992000011414004+37780+126370FM-15+0250RKSV V0203301N004112200019N0080001N1-00501-00901999999ADDGA1021+009009999GF104991999999999999999999MA1102341999999MW1101REMMET063RKSV 1356Z 33008KT 8000 BR SCT030 M05/M09 A3022 RMK QFF1026PT8;EQDQ01+000003PRSWM1Q02    003PRSWM1
0173471084999992000011415004+37780+126370FM-15+0250RKSV V0203201N003612200019N0080001N1-00601-00901999999ADDGA1021+009009999GF102991999999999999999999MA1102341999999MW1101REMMET063RKSV 1457Z 32007KT 8000 BR FEW030 M06/M09 A3022 RMK QFF1026PT9;EQDQ01+000003PRSWM1Q02    003PRSWM1
0173471084999992000011416004+37780+126370FM-15+0250RKSV V0203201N004112200019N0080001N1-00601-01001999999ADDGA1021+009009999GF102991999999999999999999MA1102371999999MW1101REMMET063RKSV 1558Z 32008KT 8000 BR FEW030 M06/M10 A3023 RMK QFF1027PT2;EQDQ01+000003PRSWM1Q02    003PRSWM1
0173471084999992000011417004+37780+126370FM-15+0250RKSV V0203401N005712200019N0090001N1-00601-01001999999ADDGA1021+009009999GF102991999999999999999999MA1102371999999MW1101REMMET063RKSV 1657Z 34011KT 9000 BR FEW030 M06/M10 A3023 RMK QFF1027PT1;EQDQ01+000003PRSWM1Q02    003PRSWM1
0173471084999992000011418004+37780+126370FM-15+0250RKSV V0203401N005112200019N0090001N1-00701-00901999999ADDGA1021+009009999GF102991999999999999999999MA1102401999999MW1101REMMET063RKSV 1756Z 34010KT 9000 BR FEW030 M07/M09 A3024 RMK QFF1027PT5;EQDQ01+000003PRSWM1Q02    003PRSWM1
0114471084999992000011419004+37780+126370FM-15+0250RKSV V0203401N005112200019N0090001N1+99999+99999999999ADDMA1102371999999MW1001MW2101REMMET056RKSV 1858Z 34010KT 9000 BR M07/M09 A3023 RMK QFF1027PT2;EQDQ01+000003PRSWM1
0114471084999992000011420004+37780+126370FM-15+0250RKSV V0203301N006212200019N0090001N1+99999+99999999999ADDMA1102371999999MW1001MW2101REMMET056RKSV 1957Z 33012KT 9000 BR M07/M10 A3023 RMK QFF1027PT2;EQDQ01+000003PRSWM1
0114471084999992000011421004+37780+126370FM-15+0250RKSV V0203401N005112200019N0090001N1+99999+99999999999ADDMA1102401999999MW1001MW2101REMMET056RKSV 2056Z 34010KT 9000 BR M07/M09 A3024 RMK QFF1027PT6;EQDQ01+000003PRSWM1
0114471084999992000011422004+37780+126370FM-15+0250RKSV V0203301N004112200019N0090001N1+99999+99999999999ADDMA1102441999999MW1001MW2101REMMET056RKSV 2158Z 33008KT 9000 BR M07/M09 A3025 RMK QFF1027PT9;EQDQ01+000003PRSWM1
