0163471320999992000022521004+36330+127380FM-12+0063RKTD V0202701N002119999999N0200001N1-00331-01351101921ADDAA199000091GF108991081001999999011999MA1999999098821MD1710121+9999REMSYN066AAXX  25214 47132 32970 82704 11033 21135 39882 40192 57012 8801/;EQDQ01  00002PRCP99
