0167474740999992000010100004+44250+143530FM-15+0009RJEB V0202501N004112200019N0112651N1-00401-00801999999ADDGA1021+006009999GA2021+009009999GF104991999999999999999999MA1102201999999MW1001REMMET076RJEB 0000Z 25008KT 9999 FEW020 SCT030 M04/M08 Q1022 RMK 1ST020 4CU030 A3019;
0137474740999992000010101004+44250+143530FM-15+0009RJEB V0202601N003612200019N0112651N1-00501-00901999999ADDGA1021+007509999GF102991999999999999999999MA1102201999999MW1001REMMET062RJEB 0100Z 26007KT 9999 FEW025 M05/M09 Q1022 RMK 1CU025 A3019;
0137474740999992000010102004+44250+143530FM-15+0009RJEB V0202801N004612200019N0112651N1-00401-01001999999ADDGA1021+007509999GF102991999999999999999999MA1102101999999MW1001REMMET062RJEB 0200Z 28009KT 9999 FEW025 M04/M10 Q1021 RMK 1CU025 A3017;
0137474740999992000010103004+44250+143530FM-15+0009RJEB V0203101N005712200019N0112651N1-00401-01001999999ADDGA1021+007509999GF102991999999999999999999MA1102101999999MW1001REMMET062RJEB 0300Z 31011KT 9999 FEW025 M04/M10 Q1021 RMK 1CU025 A3016;
0137474740999992000010104004+44250+143530FM-15+0009RJEB V0203201N006212200019N0112651N1-00401-01101999999ADDGA1021+009009999GF102991999999999999999999MA1102101999999MW1001REMMET062RJEB 0400Z 32012KT 9999 FEW030 M04/M11 Q1021 RMK 2CU030 A3015;
0137474740999992000010105004+44250+143530FM-15+0009RJEB V0203201N004612200019N0112651N1-00501-01101999999ADDGA1021+007509999GF102991999999999999999999MA1102101999999MW1001REMMET062RJEB 0500Z 32009KT 9999 FEW025 M05/M11 Q1021 RMK 1CU025 A3015;
0167474740999992000010106004+44250+143530FM-15+0009RJEB V0202901N003112200019N0112651N1-00501-01201999999ADDGA1021+009009999GA2021+012009999GF104991999999999999999999MA1102101999999MW1001REMMET076RJEB 0600Z 29006KT 9999 FEW030 SCT040 M05/M12 Q1021 RMK 1CU030 3SC040 A3015;
0167474740999992000010107004+44250+143530FM-15+0009RJEB V0202701N003110120019N0112651N1-00501-01301999999ADDGA1021+009009999GA2071+012009999GF107991999999999999999999MA1102101999999MW1001REMMET076RJEB 0700Z 27006KT 9999 FEW030 BKN040 M05/M13 Q1021 RMK 1SC030 5SC040 A3015;
0186474740999992000010200004+44250+143530FM-15+0009RJEB V0202601N003610060019N0112651N1-00301-00701999999ADDGA1021+002409999GA2071+006009999GF107991999999999999999999MA1102201999999MW1001REMMET076RJEB 0000Z 26007KT 9999 FEW008 BKN020 M03/M07 Q1022 RMK 2ST008 7ST020 A3019;EQDQ01+000000PRSWM2
0238474740999992000010201004+44250+143530FM-15+0009RJEB V0202701N005110030019N0112651N1-00201-00601999999ADDGA1021+002409999GA2071+003009999GA3071+004509999GF107991999999999999999999MA1102201999999MW1851REMMET096RJEB 0100Z 27010KT 9999 -SHSN FEW008 BKN010 BKN015 M02/M06 Q1022 RMK 2ST008 5ST010 7ST015 A3019;EQDQ01+000003PRSWM1Q02    003PRSWM1
0238474740999992000010202004+44250+143530FM-15+0009RJEB V0202601N004110036019N0112651N1-00201-00401999999ADDGA1021+002409999GA2071+003609999GA3071+005409999GF107991999999999999999999MA1102201999999MW1851REMMET096RJEB 0200Z 26008KT 9999 -SHSN FEW008 BKN012 BKN018 M02/M04 Q1022 RMK 2ST008 6ST012 7ST018 A3018;EQDQ01+000003PRSWM1Q02    003PRSWM1
0248474740999992000010202344+44250+143530FM-16+0009RJEB V0203001N004110045019N0112651N1-00101-00401999999ADDGA1021+001809999GA2021+003009999GA3071+004509999GF107991999999999999999999MA1102101999999MW1851REMMET106RJEB 020234Z 30008KT 270V340 9999 -SHSN FEW006 SCT010 BKN015 M01/M04 Q1021 RMK 1ST006 3ST010 7ST015 A3017;EQDQ01+000003PRSWM1Q02    003PRSWM1
0238474740999992000010203004+44250+143530FM-15+0009RJEB V0203101N006210060019N0112651N1-00101-00401999999ADDGA1021+002409999GA2021+003909999GA3071+006009999GF107991999999999999999999MA1102101999999MW1851REMMET096RJEB 0300Z 31012KT 9999 -SHSN FEW008 SCT013 BKN020 M01/M04 Q1021 RMK 2ST008 4ST013 7ST020 A3017;EQDQ01+000003PRSWM1Q02    003PRSWM1
0186474740999992000010204004+44250+143530FM-15+0009RJEB V0203601N005110090019N0112651N1+00001-00301999999ADDGA1021+003609999GA2071+009009999GF107991999999999999999999MA1102101999999MW1001REMMET076RJEB 0400Z 36010KT 9999 FEW012 BKN030 M00/M03 Q1021 RMK 1ST012 7CU030 A3017;EQDQ01+000000PRSWM2
0186474740999992000010205004+44250+143530FM-15+0009RJEB V0203501N004610090019N0112651N1+00001-00401999999ADDGA1021+001809999GA2071+009009999GF107991999999999999999999MA1102101999999MW1001REMMET076RJEB 0500Z 35009KT 9999 FEW006 BKN030 M00/M04 Q1021 RMK 1ST006 7CU030 A3017;EQDQ01+000000PRSWM2
0186474740999992000010205174+44250+143530FM-16+0009RJEB V0203601N005710075019N0012001N1-00101-00301999999ADDGA1071+007509999GF107991999999999999999999MA1102201999999MW1001REMMET092RJEB 020517Z 36011KT 1200 R32/0800VP1800D -SHSN BKN025 M01/M03 Q1022 RMK 7CU025 A3018 9999S;EQDQ01+000000PRSWM2
0249474740999992000010205344+44250+143530FM-16+0009RJEB V0203201N004110075019N0112651N1-00201-00301999999ADDGA1021+001509999GA2021+004509999GA3071+007509999GF107991999999999999999999MA1102201999999MW1851REMMET107RJEB 020534Z 32008KT 9999 -SHSN FEW005 SCT015 BKN025 M02/M03 Q1022 RMK 1ST005 3ST015 7CU025 A3018 1600S-NW;EQDQ01+000003PRSWM1Q02    003PRSWM1
0216474740999992000010206004+44250+143530FM-15+0009RJEB V0203101N003110075019N0112651N1-00101-00301999999ADDGA1021+001509999GA2021+003609999GA3071+007509999GF107991999999999999999999MA1102201999999MW1001REMMET090RJEB 0600Z 31006KT 9999 FEW005 SCT012 BKN025 M01/M03 Q1022 RMK 1ST005 3ST012 6CU025 A3019;EQDQ01+000000PRSWM2
0244474740999992000010207004+44250+143530FM-15+0009RJEB V0203301N004610075019N0112651N1-00101-00301999999ADDGA1021+001509999GA2021+003609999GA3071+007509999GF107991999999999999999999MA1102201999999MW1851REMMET102RJEB 0700Z 33009KT 9999 -SHSN FEW005 SCT012 BKN025 M01/M03 Q1022 RMK 1ST005 3ST012 7CU025 A3019 3000W;EQDQ01+000003PRSWM1Q02    003PRSWM1
0253474740999992000010300004+44250+143530FM-15+0009RJEB V0201701N002110054019N0112651N1-00201-00401999999ADDGA1021+001509999GA2021+003609999GA3071+005409999GF107991999999999999999999MA1101901999999MW1851REMMET111RJEB 0000Z 17004KT 140V200 9999 -SHSN FEW005 SCT012 BKN018 M02/M04 Q1019 RMK 1ST005 3ST012 7ST018 A3011 4000SE;EQDQ01+000003PRSWM1Q02    003PRSWM1
0238474740999992000010301004+44250+143530FM-15+0009RJEB V02099999999990060019N0112651N1-00101-00401999999ADDGA1021+002409999GA2021+004209999GA3071+006009999GF107991999999999999999999MA1101901999999MW1851REMMET096RJEB 0100Z VRB02KT 9999 -SHSN FEW008 SCT014 BKN020 M01/M04 Q1019 RMK 1ST008 3ST014 7ST020 A3010;EQDQ01+000003PRSWM1Q02    003PRSWM1
0238474740999992000010302004+44250+143530FM-15+0009RJEB V0200301N000510090019N0112651N1-00101-00401999999ADDGA1021+003009999GA2021+004509999GA3071+009009999GF107991999999999999999999MA1101801999999MW1851REMMET096RJEB 0200Z 03001KT 9999 -SHSN FEW010 SCT015 BKN030 M01/M04 Q1018 RMK 1ST010 3ST015 7CU030 A3007;EQDQ01+000003PRSWM1Q02    003PRSWM1
0187474740999992000010303004+44250+143530FM-15+0009RJEB V0201201N002119999999N0112651N1+00001-00601999999ADDGA1021+003009999GA2071+999999999GF107991999999999999999999MA1101691999999MW1001REMMET077RJEB 0300Z 12004KT 080V150 9999 FEW010 BKN/// M00/M06 Q1017 RMK 1ST010 A3003;EQDQ01+000000PRSWM2
0179474740999992000010304004+44250+143530FM-15+0009RJEB V0200901N002619999999N0112651N1-00101-00501999999ADDGA1021+004509999GA2071+999999999GF107991999999999999999999MA1101591999999MW1001REMMET069RJEB 0400Z 09005KT 9999 FEW015 BKN/// M01/M05 Q1016 RMK 1ST015 A3001;EQDQ01+000000PRSWM2
0179474740999992000010305004+44250+143530FM-15+0009RJEB V0200901N003619999999N0112651N1-00101-00401999999ADDGA1021+003009999GA2071+999999999GF107991999999999999999999MA1101591999999MW1001REMMET069RJEB 0500Z 09007KT 9999 FEW010 BKN/// M01/M04 Q1016 RMK 1ST010 A3001;EQDQ01+000000PRSWM2
0186474740999992000010306004+44250+143530FM-15+0009RJEB V0201001N005110105019N0112651N1-00101-00401999999ADDGA1021+004509999GA2071+010509999GF107991999999999999999999MA1101591999999MW1001REMMET076RJEB 0600Z 10010KT 9999 FEW015 BKN035 M01/M04 Q1016 RMK 1ST015 7CU035 A3001;EQDQ01+000000PRSWM2
0162474740999992000010307004+44250+143530FM-15+0009RJEB V0201001N005710105019N0112651N1-00101-00401999999ADDGA1021+003009999GA2071+010509999GF107991999999999999999999MA1101591999999MW1001REMMET052RJEB 0700Z 10011KT 9999 FEW010 BKN035 M01/M04 Q1016;EQDQ01+000000PRSWM2
0186474740999992000010400004+44250+143530FM-15+0009RJEB V0200301N007210105019N0112651N1-00101-00401999999ADDGA1021+004509999GA2071+010509999GF107991999999999999999999MA1101801999999MW1001REMMET076RJEB 0000Z 03014KT 9999 FEW015 BKN035 M01/M04 Q1018 RMK 1ST015 7SC035 A3008;EQDQ01+000000PRSWM2
0186474740999992000010401004+44250+143530FM-15+0009RJEB V0200401N007210105019N0112651N1-00101-00401999999ADDGA1021+002409999GA2071+010509999GF107991999999999999999999MA1101801999999MW1001REMMET076RJEB 0100Z 04014KT 9999 FEW008 BKN035 M01/M04 Q1018 RMK 1ST008 7CU035 A3008;EQDQ01+000000PRSWM2
0186474740999992000010402004+44250+143530FM-15+0009RJEB V0200201N007710120019N0112651N1-00101-00401999999ADDGA1021+002409999GA2071+012009999GF107991999999999999999999MA1101801999999MW1001REMMET076RJEB 0200Z 02015KT 9999 FEW008 BKN040 M01/M04 Q1018 RMK 2ST008 7SC040 A3008;EQDQ01+000000PRSWM2
0179474740999992000010403004+44250+143530FM-15+0009RJEB V0200201N006219999999N0112651N1-00201-00401999999ADDGA1021+002709999GA2071+999999999GF107991999999999999999999MA1101801999999MW1001REMMET069RJEB 0300Z 02012KT 9999 SCT009 BKN/// M02/M04 Q1018 RMK 3ST009 A3007;EQDQ01+000000PRSWM2
0211474740999992000010403124+44250+143530FM-16+0009RJEB V0200201N006210030019N0112651N1-00201-00401999999ADDGA1021+002709999GA2071+003009999GA3071+999999999GF107991999999999999999999MA1101801999999MW1001REMMET085RJEB 040312Z 02012KT 9999 SCT009 BKN010 BKN/// M02/M04 Q1018 RMK 3ST009 6ST010 A3007;EQDQ01+000000PRSWM2
0211474740999992000010403354+44250+143530FM-16+0009RJEB V0200201N006210036019N0112651N1-00201-00501999999ADDGA1021+003009999GA2071+003609999GA3071+999999999GF107991999999999999999999MA1101801999999MW1001REMMET085RJEB 040335Z 02012KT 9999 SCT010 BKN012 BKN/// M02/M05 Q1018 RMK 3ST010 6ST012 A3007;EQDQ01+000000PRSWM2
0216474740999992000010405004+44250+143530FM-15+0009RJEB V0200301N005710240019N0112651N1-00201-00501999999ADDGA1021+003609999GA2021+004509999GA3071+024009999GF107991999999999999999999MA1101801999999MW1001REMMET090RJEB 0500Z 03011KT 9999 FEW012 SCT015 BKN080 M02/M05 Q1018 RMK 1ST012 3ST015 7AC080 A3008;EQDQ01+000000PRSWM2
0179474740999992000010406004+44250+143530FM-15+0009RJEB V0200301N005719999999N0112651N1-00201-00501999999ADDGA1021+003909999GA2071+999999999GF107991999999999999999999MA1101901999999MW1001REMMET069RJEB 0600Z 03011KT 9999 SCT013 BKN/// M02/M05 Q1019 RMK 4ST013 A3009;EQDQ01+000000PRSWM2
0209474740999992000010407004+44250+143530FM-15+0009RJEB V0200201N005110210019N0112651N1-00201-00501999999ADDGA1021+003909999GA2071+021009999GA3071+999999999GF107991999999999999999999MA1101901999999MW1001REMMET083RJEB 0700Z 02010KT 9999 SCT013 BKN070 BKN/// M02/M05 Q1019 RMK 3ST013 5AC070 A3011;EQDQ01+000000PRSWM2
0238474740999992000010500004+44250+143530FM-15+0009RJEB V02099999999990060019N0112651N1-00301-00501999999ADDGA1021+004509999GA2071+006009999GA3071+007509999GF107991999999999999999999MA1102401999999MW1851REMMET096RJEB 0000Z VRB03KT 9999 -SHSN FEW015 BKN020 BKN025 M03/M05 Q1024 RMK 1ST015 5ST020 7CU025 A3025;EQDQ01+000003PRSWM1Q02    003PRSWM1
0216474740999992000010501004+44250+143530FM-15+0009RJEB V0202601N002610210019N0112651N1-00201-00601999999ADDGA1021+004509999GA2021+013509999GA3071+021009999GF107991999999999999999999MA1102401999999MW1001REMMET090RJEB 0100Z 26005KT 9999 FEW015 SCT045 BKN070 M02/M06 Q1024 RMK 1ST015 3SC045 7AC070 A3027;EQDQ01+000000PRSWM2
0186474740999992000010502004+44250+143530FM-15+0009RJEB V0202601N002610210019N0112651N1-00201-00601999999ADDGA1021+006009999GA2071+021009999GF107991999999999999999999MA1102401999999MW1001REMMET076RJEB 0200Z 26005KT 9999 FEW020 BKN070 M02/M06 Q1024 RMK 1ST020 7AC070 A3025;EQDQ01+000000PRSWM2
0156474740999992000010503004+44250+143530FM-15+0009RJEB V0203101N001512200019N0112651N1-00201-00701999999ADDGA1021+007509999GF102991999999999999999999MA1102401999999MW1001REMMET062RJEB 0300Z 31003KT 9999 FEW025 M02/M07 Q1024 RMK 1CU025 A3025;EQDQ01+000000PRSWM2
0156474740999992000010504004+44250+143530FM-15+0009RJEB V02099999999992200019N0112651N1-00101-00701999999ADDGA1021+007509999GF102991999999999999999999MA1102401999999MW1001REMMET062RJEB 0400Z VRB03KT 9999 FEW025 M01/M07 Q1024 RMK 1CU025 A3024;EQDQ01+000000PRSWM2
0156474740999992000010505004+44250+143530FM-15+0009RJEB V0203301N005112200019N0112651N1-00101-00601999999ADDGA1021+009009999GF102991999999999999999999MA1102401999999MW1001REMMET062RJEB 0500Z 33010KT 9999 FEW030 M01/M06 Q1024 RMK 1CU030 A3025;EQDQ01+000000PRSWM2
0194474740999992000010506004+44250+143530FM-15+0009RJEB V0203201N002110120019N0112651N1-00101-00601999999ADDGA1021+009009999GA2071+012009999GF107991999999999999999999MA1102401999999MW1001REMMET084RJEB 0600Z 32004KT 290V360 9999 FEW030 BKN040 M01/M06 Q1024 RMK 2CU030 7SC040 A3026;EQDQ01+000000PRSWM2
0186474740999992000010507004+44250+143530FM-15+0009RJEB V0203001N003112200019N0112651N1-00201-00601999999ADDGA1021+009009999GA2021+012009999GF104991999999999999999999MA1102511999999MW1001REMMET076RJEB 0700Z 30006KT 9999 FEW030 SCT040 M02/M06 Q1025 RMK 1CU030 4SC040 A3027;EQDQ01+000000PRSWM2
0156474740999992000010601004+44250+143530FM-15+0009RJEB V0202301N004112200019N0112651N1-00301-00901999999ADDGA1021+003009999GF102991999999999999999999MA1102811999999MW1001REMMET062RJEB 0100Z 23008KT 9999 FEW010 M03/M09 Q1028 RMK 1ST010 A3037;EQDQ01+000000PRSWM2
0156474740999992000010602004+44250+143530FM-15+0009RJEB V0202701N000512200019N0112651N1-00201-00801999999ADDGA1021+006009999GF102991999999999999999999MA1102711999999MW1001REMMET062RJEB 0200Z 27001KT 9999 FEW020 M02/M08 Q1027 RMK 1CU020 A3035;EQDQ01+000000PRSWM2
0179474740999992000010603004+44250+143530FM-15+0009RJEB V0200901N002612200019N0112651N1-00201-00701999999ADDGA1021+006009999GA2021+999999999GF104991999999999999999999MA1102711999999MW1001REMMET069RJEB 0300Z 09005KT 9999 FEW020 SCT/// M02/M07 Q1027 RMK 1CU020 A3034;EQDQ01+000000PRSWM2
0179474740999992000010604004+44250+143530FM-15+0009RJEB V0201101N002119999999N0112651N1-00201-00601999999ADDGA1021+004509999GA2071+999999999GF107991999999999999999999MA1102611999999MW1001REMMET069RJEB 0400Z 11004KT 9999 FEW015 BKN/// M02/M06 Q1026 RMK 1ST015 A3032;EQDQ01+000000PRSWM2
0205474740999992000010605004+44250+143530FM-15+0009RJEB V0201001N003619999999N0112651N1-00201-00601999999ADDGA1021+006009999GA2071+999999999GF107991999999999999999999MA1102611999999MW1121REMMET079RJEB 0500Z 10007KT 9999 MIFG FEW020 BKN/// M02/M06 Q1026 RMK 1CU020 A3030 FG W;EQDQ01+000003PRSWM1Q02    003PRSWM1
0187474740999992000010606004+44250+143530FM-15+0009RJEB V0201401N003619999999N0112651N1-00301-00701999999ADDGA1021+012009999GA2071+999999999GF107991999999999999999999MA1102611999999MW1001REMMET077RJEB 0600Z 14007KT 100V170 9999 FEW040 BKN/// M03/M07 Q1026 RMK 1SC040 A3030;EQDQ01+000000PRSWM2
0216474740999992000010607004+44250+143530FM-15+0009RJEB V0201401N004110360019N0112651N1-00401-00701999999ADDGA1021+012009999GA2021+027009999GA3071+036009999GF107991999999999999999999MA1102511999999MW1001REMMET090RJEB 0700Z 14008KT 9999 FEW040 SCT090 BKN120 M04/M07 Q1025 RMK 1SC040 3AC090 7AC120 A3028;EQDQ01+000000PRSWM2
0237474740999992000010700004+44250+143530FM-15+0009RJEB V0201301N008710075019N0112651N1+00101-00201999999ADDGA1021+006009999GA2071+007509999GA3071+021009999GF107991999999999999999999MA1101081999999MW1851REMMET095RJEB 0000Z 13017KT 9999 -SHSN FEW020 BKN025 BKN070 01/M02 Q1011 RMK 2CU020 5CU025 7AC070 A2986;EQDQ01+000003PRSWM1Q02    003PRSWM1
0207474740999992000010701004+44250+143530FM-15+0009RJEB V0201301N007210075019N0112651N1+00201-00201999999ADDGA1021+006009999GA2071+007509999GF107991999999999999999999MA1101021999999MW1851REMMET081RJEB 0100Z 13014KT 9999 -SHSN FEW020 BKN025 02/M02 Q1010 RMK 2CU020 7CU025 A2985;EQDQ01+000003PRSWM1Q02    003PRSWM1
0215474740999992000010702004+44250+143530FM-15+0009RJEB V0201301N008210075019N0112651N1+00201-00201999999ADDGA1021+006009999GA2071+007509999GA3071+021009999GF107991999999999999999999MA1100811999999MW1001REMMET089RJEB 0200Z 13016KT 9999 FEW020 BKN025 BKN070 02/M02 Q1008 RMK 2CU020 6CU025 7AC070 A2980;EQDQ01+000000PRSWM2
0220474740999992000010703004+44250+143530FM-15+0009RJEB V0201301N010810090019N0112651N1+00301-00201999999ADDGA1021+004509999GA2071+009009999GA3071+021009999GF107991999999999999999999MA1100611999999MW1001REMMET094RJEB 0300Z 13021KT 9999 FEW015 BKN030 BKN070 03/M02 Q1006 RMK 1ST015 5CU030 7AC070 A2972 P/FR;EQDQ01+000000PRSWM2
0215474740999992000010704004+44250+143530FM-15+0009RJEB V0201301N007210210019N0112651N1+00301-00101999999ADDGA1021+004509999GA2021+007509999GA3071+021009999GF107991999999999999999999MA1100511999999MW1001REMMET089RJEB 0400Z 13014KT 9999 FEW015 SCT025 BKN070 03/M01 Q1005 RMK 1ST015 4CU025 7AC070 A2969;EQDQ01+000000PRSWM2
0215474740999992000010705004+44250+143530FM-15+0009RJEB V0201201N006210210019N0112651N1+00301-00201999999ADDGA1021+004509999GA2021+012009999GA3071+021009999GF107991999999999999999999MA1100411999999MW1001REMMET089RJEB 0500Z 12012KT 9999 FEW015 SCT040 BKN070 03/M02 Q1004 RMK 1ST015 3SC040 7AC070 A2967;EQDQ01+000000PRSWM2
0206474740999992000010706004+44250+143530FM-15+0009RJEB V0203301N003110075019N0112651N1+00201-00101999999ADDGA1021+004509999GA2071+007509999GA3071+021009999GF107991999999999999999999MA1100611999999MW1801REMMET064RJEB 0600Z 33006KT 9999 -SHRA FEW015 BKN025 BKN070 02/M01 Q1006;EQDQ01+000003PRSWM1Q02    003PRSWM1
0215474740999992000010707004+44250+143530FM-15+0009RJEB V0202901N007210075019N0112651N1+00301-00201999999ADDGA1021+004509999GA2071+007509999GA3071+021009999GF107991999999999999999999MA1100711999999MW1001REMMET089RJEB 0700Z 29014KT 9999 FEW015 BKN025 BKN070 03/M02 Q1007 RMK 1ST015 6CU025 7AC070 A2974;EQDQ01+000000PRSWM2
0164474740999992000010800004+44250+143530FM-15+0009RJEB V0202301N003612200019N0112651N1-00301-01301999999ADDGA1021+006009999GF102991999999999999999999MA1101391999999MW1001REMMET070RJEB 0000Z 23007KT 170V260 9999 FEW020 M03/M13 Q1014 RMK 1CU020 A2995;EQDQ01+000000PRSWM2
0164474740999992000010801004+44250+143530FM-15+0009RJEB V0202401N004612200019N0112651N1-00201-01201999999ADDGA1021+006009999GF102991999999999999999999MA1101391999999MW1001REMMET070RJEB 0100Z 24009KT 190V280 9999 FEW020 M02/M12 Q1014 RMK 1CU020 A2996;EQDQ01+000000PRSWM2
0164474740999992000010802004+44250+143530FM-15+0009RJEB V0202201N004612200019N0112651N1-00201-01201999999ADDGA1021+006009999GF102991999999999999999999MA1101291999999MW1001REMMET070RJEB 0200Z 22009KT 190V260 9999 FEW020 M02/M12 Q1013 RMK 2CU020 A2994;EQDQ01+000000PRSWM2
0187474740999992000010803004+44250+143530FM-15+0009RJEB V0202801N004619999999N0112651N1-00201-01201999999ADDGA1021+006009999GA2071+999999999GF107991999999999999999999MA1101291999999MW1001REMMET077RJEB 0300Z 28009KT 250V320 9999 FEW020 BKN/// M02/M12 Q1013 RMK 1CU020 A2992;EQDQ01+000000PRSWM2
0187474740999992000010804004+44250+143530FM-15+0009RJEB V0202801N002119999999N0112651N1-00101-01301999999ADDGA1021+006009999GA2071+999999999GF107991999999999999999999MA1101191999999MW1001REMMET077RJEB 0400Z 28004KT 240V330 9999 FEW020 BKN/// M01/M13 Q1012 RMK 1CU020 A2990;EQDQ01+000000PRSWM2
0179474740999992000010805004+44250+143530FM-15+0009RJEB V0200801N003119999999N0112651N1-00201-01101999999ADDGA1021+006009999GA2071+999999999GF107991999999999999999999MA1101191999999MW1001REMMET069RJEB 0500Z 08006KT 9999 FEW020 BKN/// M02/M11 Q1012 RMK 1CU020 A2991;EQDQ01+000000PRSWM2
0179474740999992000010806004+44250+143530FM-15+0009RJEB V0201301N003119999999N0112651N1-00301-01201999999ADDGA1021+009009999GA2071+999999999GF107991999999999999999999MA1101291999999MW1001REMMET069RJEB 0600Z 13006KT 9999 FEW030 BKN/// M03/M12 Q1013 RMK 1CU030 A2993;EQDQ01+000000PRSWM2
0216474740999992000010807004+44250+143530FM-15+0009RJEB V0201301N003610210019N0112651N1-00301-01201999999ADDGA1021+012009999GA2021+018009999GA3071+021009999GF107991999999999999999999MA1101291999999MW1001REMMET090RJEB 0700Z 13007KT 9999 FEW040 SCT060 BKN070 M03/M12 Q1013 RMK 1SC040 3AC060 7AC070 A2994;EQDQ01+000000PRSWM2
0186474740999992000010900004+44250+143530FM-15+0009RJEB V0202101N003612200019N0112651N1-00201-01101999999ADDGA1021+009009999GA2021+013509999GF104991999999999999999999MA1102001999999MW1001REMMET076RJEB 0000Z 21007KT 9999 FEW030 SCT045 M02/M11 Q1020 RMK 1CU030 3SC045 A3013;EQDQ01+000000PRSWM2
0194474740999992000010901004+44250+143530FM-15+0009RJEB V0201901N002612200019N0112651N1+00001-01001999999ADDGA1021+009009999GA2021+013509999GF104991999999999999999999MA1102001999999MW1001REMMET084RJEB 0100Z 19005KT 140V230 9999 FEW030 SCT045 M00/M10 Q1020 RMK 1CU030 3SC045 A3013;EQDQ01+000000PRSWM2
0193474740999992000010902004+44250+143530FM-15+0009RJEB V0202101N004612200019N0112651N1+00101-01001999999ADDGA1021+009009999GA2021+013509999GF104991999999999999999999MA1101901999999MW1001REMMET083RJEB 0200Z 21009KT 170V240 9999 FEW030 SCT045 01/M10 Q1019 RMK 1CU030 3SC045 A3011;EQDQ01+000000PRSWM2
0193474740999992000010903004+44250+143530FM-15+0009RJEB V0202401N004610135019N0112651N1+00101-01001999999ADDGA1021+009009999GA2071+013509999GF107991999999999999999999MA1101901999999MW1001REMMET083RJEB 0300Z 24009KT 210V280 9999 FEW030 BKN045 01/M10 Q1019 RMK 1CU030 5SC045 A3012;EQDQ01+000000PRSWM2
0155474740999992000010904004+44250+143530FM-15+0009RJEB V0202501N005112200019N0112651N1+00101-01001999999ADDGA1021+009009999GF102991999999999999999999MA1101901999999MW1001REMMET061RJEB 0400Z 25010KT 9999 FEW030 01/M10 Q1019 RMK 1CU030 A3011;EQDQ01+000000PRSWM2
0163474740999992000010905004+44250+143530FM-15+0009RJEB V0202601N003112200019N0112651N1+00101-00901999999ADDGA1021+009009999GF104991999999999999999999MA1101901999999MW1001REMMET069RJEB 0500Z 26006KT 220V290 9999 SCT030 01/M09 Q1019 RMK 3CU030 A3011;EQDQ01+000000PRSWM2
0139474740999992000010907004+44250+143530FM-15+0009RJEB V0201301N003112200019N0112651N1-00201-00701999999ADDGA1021+009009999GF102991999999999999999999MA1102101999999MW1001REMMET045RJEB 0700Z 13006KT 9999 FEW030 M02/M07 Q1021;EQDQ01+000000PRSWM2
0186474740999992000011000004+44250+143530FM-15+0009RJEB V02099999999990210019N0112651N1-00301-00801999999ADDGA1021+012009999GA2081+021009999GF108991999999999999999999MA1101691999999MW1001REMMET076RJEB 0000Z VRB03KT 9999 FEW040 OVC070 M03/M08 Q1017 RMK 1SC040 8AS070 A3004;EQDQ01+000000PRSWM2
0238474740999992000011000434+44250+143530FM-16+0009RJEB V0201301N003610033019N0049001N1-00301-00801999999ADDGA1021+001509999GA2071+003309999GA3071+004209999GF107991999999999999999999MA1101691999999MW1711REMMET096RJEB 100043Z 13007KT 4900 -SN FEW005 BKN011 BKN014 M03/M08 Q1017 RMK 1ST005 5ST011 7ST014 A3004;EQDQ01+000003PRSWM1Q02    003PRSWM1
0236474740999992000011001004+44250+143530FM-15+0009RJEB V0201201N002610033019N0031001N1-00301-00701999999ADDGA1021+001509999GA2021+002709999GA3071+003309999GF107991999999999999999999MA1101591999999MW1711REMMET094RJEB 0100Z 12005KT 3100 -SN FEW005 SCT009 BKN011 M03/M07 Q1016 RMK 2ST005 3ST009 7ST011 A3003;EQDQ01+000003PRSWM1Q02    003PRSWM1
0238474740999992000011001074+44250+143530FM-16+0009RJEB V0201101N002610033019N0024001N1-00301-00701999999ADDGA1021+001509999GA2021+002709999GA3071+003309999GF107991999999999999999999MA1101591999999MW1711REMMET096RJEB 100107Z 11005KT 2400 -SN FEW005 SCT009 BKN011 M03/M07 Q1016 RMK 2ST005 3ST009 7ST011 A3002;EQDQ01+000003PRSWM1Q02    003PRSWM1
0238474740999992000011001184+44250+143530FM-16+0009RJEB V0201301N003110033019N0019001N1-00301-00501999999ADDGA1021+001509999GA2021+002109999GA3071+003309999GF107991999999999999999999MA1101591999999MW1711REMMET096RJEB 100118Z 13006KT 1900 -SN FEW005 SCT007 BKN011 M03/M05 Q1016 RMK 2ST005 3ST007 7ST011 A3002;EQDQ01+000003PRSWM1Q02    003PRSWM1
0206474740999992000011002004+44250+143530FM-15+0009RJEB V02099999999990033019N0020001N1-00301-00401999999ADDGA1021+002109999GA2071+003309999GF107991999999999999999999MA1101491999999MW1711REMMET080RJEB 0200Z VRB03KT 2000 -SN SCT007 BKN011 M03/M04 Q1015 RMK 3ST007 7ST011 A2998;EQDQ01+000003PRSWM1Q02    003PRSWM1
0208474740999992000011002174+44250+143530FM-16+0009RJEB V0201101N002110033019N0019001N1-00301-00501999999ADDGA1021+002109999GA2071+003309999GF107991999999999999999999MA1101391999999MW1711REMMET082RJEB 100217Z 11004KT 1900 -SN SCT007 BKN011 M03/M05 Q1014 RMK 3ST007 7ST011 A2996;EQDQ01+000003PRSWM1Q02    003PRSWM1
0213474740999992000011002324+44250+143530FM-16+0009RJEB V0201201N003110033019N0020001N1-00301-00501999999ADDGA1021+002109999GA2071+003309999GF107991999999999999999999MA1101291999999MW1711REMMET087RJEB 100232Z 12006KT 2000 -SN SCT007 BKN011 M03/M05 Q1013 RMK 3ST007 7ST011 A2994 P/FR;EQDQ01+000003PRSWM1Q02    003PRSWM1
0206474740999992000011003004+44250+143530FM-15+0009RJEB V0201201N003610033019N0022001N1-00301-00501999999ADDGA1021+002109999GA2071+003309999GF107991999999999999999999MA1101291999999MW1711REMMET080RJEB 0300Z 12007KT 2200 -SN SCT007 BKN011 M03/M05 Q1013 RMK 3ST007 7ST011 A2992;EQDQ01+000003PRSWM1Q02    003PRSWM1
0238474740999992000011003384+44250+143530FM-16+0009RJEB V0201401N002110033019N0019001N1-00301-00401999999ADDGA1021+001509999GA2021+002109999GA3071+003309999GF107991999999999999999999MA1101081999999MW1711REMMET096RJEB 100338Z 14004KT 1900 -SN FEW005 SCT007 BKN011 M03/M04 Q1011 RMK 1ST005 3ST007 7ST011 A2988;EQDQ01+000003PRSWM1Q02    003PRSWM1
0236474740999992000011004004+44250+143530FM-15+0009RJEB V0201401N002610033019N0020001N1-00301-00401999999ADDGA1021+001209999GA2021+002109999GA3071+003309999GF107991999999999999999999MA1101081999999MW1711REMMET094RJEB 0400Z 14005KT 2000 -SN FEW004 SCT007 BKN011 M03/M04 Q1011 RMK 1ST004 3ST007 7ST011 A2986;EQDQ01+000003PRSWM1Q02    003PRSWM1
0238474740999992000011004134+44250+143530FM-16+0009RJEB V0201301N002110021019N0015001N1-00301-00401999999ADDGA1021+001209999GA2071+002109999GA3071+003309999GF107991999999999999999999MA1101021999999MW1001REMMET112RJEB 100413Z 13004KT 1500 R32/1200VP1800D -SN FEW004 BKN007 BKN011 M03/M04 Q1010 RMK 1ST004 5ST007 7ST011 A2985;EQDQ01+000000PRSWM2
0253474740999992000011004204+44250+143530FM-15+0009RJEB V0201301N002110021019N0011001N1-00301-00401999999ADDGA1021+001209999GA2071+002109999GA3071+003309999GF107991999999999999999999MA1101021999999MW1711REMMET111RJEB 100420Z 13004KT 1100 R32/1000V1500D -SN FEW004 BKN007 BKN011 M03/M04 Q1010 RMK 1ST004 5ST007 7ST011 A2985;EQDQ01+000003PRSWM1Q02    003PRSWM1
0259474740999992000011004434+44250+143530FM-16+0009RJEB V0201301N002110021019N0012001N1-00301-00401999999ADDED199U12009GA1021+001209999GA2071+002109999GA3071+003309999GF107991999999999999999999MA1101021999999MW1711REMMET106RJEB 100443Z 13004KT 1200 R32/1200N -SN FEW004 BKN007 BKN011 M03/M04 Q1010 RMK 1ST004 5ST007 7ST011 A2983;EQDQ01+000003PRSWM1Q02    003PRSWM1
0232474740999992000011005004+44250+143530FM-15+0009RJEB V02099999999990021019N0012001N1-00301-00401999999ADDED199U12009GA1021+001209999GA2071+002109999GF107991999999999999999999MA1100911999999MW1711REMMET095RJEB 0500Z VRB03KT 1200 R32/1200U -SN FEW004 BKN007 M03/M04 Q1009 RMK 2ST004 7ST007 A2981 P/FR;EQDQ01+000003PRSWM1Q02    003PRSWM1
0223474740999992000011005094+44250+143530FM-16+0009RJEB V02099999999990021019N0011001N1-00301-00401999999ADDGA1021+001209999GA2071+002109999GF107991999999999999999999MA1100811999999MW1711REMMET097RJEB 100509Z VRB02KT 1100 R32/1000V1300N -SN FEW004 BKN007 M03/M04 Q1008 RMK 2ST004 7ST007 A2980;EQDQ01+000003PRSWM1Q02    003PRSWM1
0228474740999992000011005194+44250+143530FM-16+0009RJEB V02099999999990021019N0013001N1-00301-00301999999ADDGA1021+001209999GA2071+002109999GF107991999999999999999999MA1100811999999MW1711REMMET102RJEB 100519Z VRB01KT 1300 R32/1200V1700N -SN FEW004 BKN007 M03/M03 Q1008 RMK 2ST004 7ST007 A2979 P/FR;EQDQ01+000003PRSWM1Q02    003PRSWM1
0223474740999992000011005404+44250+143530FM-16+0009RJEB V02099999999990021019N0011001N1-00301-00401999999ADDGA1021+001209999GA2071+002109999GF107991999999999999999999MA1100811999999MW1711REMMET097RJEB 100540Z VRB01KT 1100 R32/0900V1600D -SN FEW004 BKN007 M03/M04 Q1008 RMK 2ST004 7ST007 A2978;EQDQ01+000003PRSWM1Q02    003PRSWM1
0188474740999992000011006004+44250+143530FM-15+0009RJEB V0203001N00211000151CN0007001N1-00301-00401999999ADDED199U07509GA1091+000159999GF109991999999000251999999MA1100711999999MW1731REMMET067RJEB 0600Z 30004KT 0700 R32/0750N SN VV003 M03/M04 Q1007 RMK A2977;EQDQ01+000003PRSWM1Q02    003PRSWM1
0190474740999992000011006284+44250+143530FM-16+0009RJEB V0202901N00261000151CN0007001N1-00201-00401999999ADDED199U12009GA1091+000159999GF109991999999000251999999MA1100711999999MW1731REMMET069RJEB 100628Z 29005KT 0700 R32/1200U SN VV003 M02/M04 Q1007 RMK A2974;EQDQ01+000003PRSWM1Q02    003PRSWM1
0184474740999992000011006414+44250+143530FM-16+0009RJEB V0202801N00211000151CN0006001N1-00201-00301999999ADDGA1091+000159999GF109991999999000251999999MA1100611999999MW1731REMMET074RJEB 100641Z 28004KT 0600 R32/0800V1300D SN VV003 M02/M03 Q1006 RMK A2973;EQDQ01+000003PRSWM1Q02    003PRSWM1
0182474740999992000011007004+44250+143530FM-15+0009RJEB V0203101N00211000151CN0006001N1-00101-00201999999ADDGA1091+000159999GF109991999999000251999999MA1100611999999MW1731REMMET072RJEB 0700Z 31004KT 0600 R32/0800V1000U SN VV003 M01/M02 Q1006 RMK A2972;EQDQ01+000003PRSWM1Q02    003PRSWM1
0190474740999992000011007264+44250+143530FM-16+0009RJEB V0203001N00151000151CN0006001N1-00101-00201999999ADDED199U12009GA1091+000159999GF109991999999000251999999MA1100511999999MW1731REMMET069RJEB 100726Z 30003KT 0600 R32/1200N SN VV003 M01/M02 Q1005 RMK A2969;EQDQ01+000003PRSWM1Q02    003PRSWM1
0178474740999992000011100004+44250+143530FM-15+0009RJEB V0202801N010310075019N0112651N1-00201-00801999999ADDGA1071+007509999GF107991999999999999999999MA1100511999999MW1851REMMET068RJEB 0000Z 28020KT 9999 -SHSN BKN025 M02/M08 Q1005 RMK 5CU025 A2968;EQDQ01+000003PRSWM1Q02    003PRSWM1
0179474740999992000011101004+44250+143530FM-15+0009RJEB V0202901N010819999999N0112651N1-00301-00901999999ADDGA1021+007509999GA2071+999999999GF107991999999999999999999MA1100511999999MW1001REMMET069RJEB 0100Z 29021KT 9999 FEW025 BKN/// M03/M09 Q1005 RMK 2CU025 A2970;EQDQ01+000000PRSWM2
0190474740999992000011102004+44250+143530FM-15+0009RJEB V0202901N011319999999N0112651N1-00301-01001999999ADDGA1021+006009999GA2071+999999999GF107991999999999999999999MA1100611999999MW1001OC101751REMMET072RJEB 0200Z 29022G34KT 9999 FEW020 BKN/// M03/M10 Q1006 RMK 1CU020 A2971;EQDQ01+000000PRSWM2
0156474740999992000011103004+44250+143530FM-15+0009RJEB V0202901N007710060019N0112651N1-00301-00901999999ADDGA1071+006009999GF107991999999999999999999MA1100611999999MW1001REMMET062RJEB 0300Z 29015KT 9999 BKN020 M03/M09 Q1006 RMK 6CU020 A2971;EQDQ01+000000PRSWM2
0179474740999992000011104004+44250+143530FM-15+0009RJEB V0202801N009819999999N0112651N1-00301-01001999999ADDGA1021+006009999GA2071+999999999GF107991999999999999999999MA1100611999999MW1001REMMET069RJEB 0400Z 28019KT 9999 SCT020 BKN/// M03/M10 Q1006 RMK 3CU020 A2972;EQDQ01+000000PRSWM2
0216474740999992000011105004+44250+143530FM-15+0009RJEB V0202701N010812200019N0112651N1-00401-00801999999ADDGA1021+002109999GA2021+006009999GF104991999999999999999999MA1100711999999MW1851REMMET090RJEB 0500Z 27021KT 9999 -SHSN FEW007 SCT020 M04/M08 Q1007 RMK 1ST007 3CU020 A2975 2500S-W;EQDQ01+000003PRSWM1Q02    003PRSWM1
0244474740999992000011106004+44250+143530FM-15+0009RJEB V0202901N009310060019N0040001N1-00501-00801999999ADDGA1021+001509999GA2021+003309999GA3071+006009999GF107991999999999999999999MA1100811999999MW1851REMMET102RJEB 0600Z 29018KT 4000 -SHSN FEW005 SCT011 BKN020 M05/M08 Q1008 RMK 1ST005 3ST011 7CU020 A2978 1800W;EQDQ01+000003PRSWM1Q02    003PRSWM1
0210474740999992000011106104+44250+143530FM-16+0009RJEB V0202801N008710060019N0050001N1-00501-00801999999ADDGA1021+003309999GA2071+006009999GF107991999999999999999999MA1100811999999MW1851REMMET084RJEB 110610Z 28017KT 5000 -SHSN SCT011 BKN020 M05/M08 Q1008 RMK 3ST011 6CU020 A2978;EQDQ01+000003PRSWM1Q02    003PRSWM1
0186474740999992000011107004+44250+143530FM-15+0009RJEB V0202801N010312200019N0112651N1-00501-01101999999ADDGA1021+007509999GA2021+030009999GF104991999999999999999999MA1100911999999MW1001REMMET076RJEB 0700Z 28020KT 9999 FEW025 SCT100 M05/M11 Q1009 RMK 2CU025 3AC100 A2980;EQDQ01+000000PRSWM2
0156474740999992000011200004+44250+143530FM-15+0009RJEB V0202401N006212200019N0112651N1-00601-01301999999ADDGA1021+009009999GF102991999999999999999999MA1102201999999MW1001REMMET062RJEB 0000Z 24012KT 9999 FEW030 M06/M13 Q1022 RMK 1CU030 A3020;EQDQ01+000000PRSWM2
0139474740999992000011201004+44250+143530FM-15+0009RJEB V0202501N005112200019N0112651N1-00501-01301999999ADDGA1021+007509999GF102991999999999999999999MA1102301999999MW1001REMMET045RJEB 0100Z 25010KT 9999 FEW025 M05/M13 Q1023;EQDQ01+000000PRSWM2
0139474740999992000011202004+44250+143530FM-15+0009RJEB V0202401N006212200019N0112651N1-00401-01301999999ADDGA1021+007509999GF102991999999999999999999MA1102301999999MW1001REMMET045RJEB 0200Z 24012KT 9999 FEW025 M04/M13 Q1023;EQDQ01+000000PRSWM2
0156474740999992000011203004+44250+143530FM-15+0009RJEB V0202401N006212200019N0112651N1-00401-01401999999ADDGA1021+007509999GF102991999999999999999999MA1102201999999MW1001REMMET062RJEB 0300Z 24012KT 9999 FEW025 M04/M14 Q1022 RMK 1CU025 A3020;EQDQ01+000000PRSWM2
0156474740999992000011204004+44250+143530FM-15+0009RJEB V0202301N006712200019N0112651N1-00301-01301999999ADDGA1021+009009999GF102991999999999999999999MA1102301999999MW1001REMMET062RJEB 0400Z 23013KT 9999 FEW030 M03/M13 Q1023 RMK 2CU030 A3022;EQDQ01+000000PRSWM2
0139474740999992000011205004+44250+143530FM-15+0009RJEB V0202301N006712200019N0112651N1-00401-01301999999ADDGA1021+009009999GF102991999999999999999999MA1102301999999MW1001REMMET045RJEB 0500Z 23013KT 9999 FEW030 M04/M13 Q1023;EQDQ01+000000PRSWM2
0156474740999992000011206004+44250+143530FM-15+0009RJEB V0202401N006212200019N0112651N1-00401-01301999999ADDGA1021+009009999GF102991999999999999999999MA1102301999999MW1001REMMET062RJEB 0600Z 24012KT 9999 FEW030 M04/M13 Q1023 RMK 1CU030 A3024;EQDQ01+000000PRSWM2
0139474740999992000011207004+44250+143530FM-15+0009RJEB V0202301N004112200019N0112651N1-00501-01301999999ADDGA1021+009009999GF102991999999999999999999MA1102401999999MW1001REMMET045RJEB 0700Z 23008KT 9999 FEW030 M05/M13 Q1024;EQDQ01+000000PRSWM2
0216474740999992000011300004+44250+143530FM-15+0009RJEB V0202101N001010240019N0112651N1-00601-01301999999ADDGA1021+006009999GA2071+024009999GA3071+036009999GF107991999999999999999999MA1102201999999MW1001REMMET090RJEB 0000Z 21002KT 9999 FEW020 BKN080 BKN120 M06/M13 Q1022 RMK 1ST020 6AC080 7AS120 A3019;EQDQ01+000000PRSWM2
0216474740999992000011301004+44250+143530FM-15+0009RJEB V02099999999990240019N0112651N1-00601-01201999999ADDGA1021+006009999GA2071+024009999GA3071+036009999GF107991999999999999999999MA1102101999999MW1001REMMET090RJEB 0100Z VRB02KT 9999 FEW020 BKN080 BKN120 M06/M12 Q1021 RMK 1ST020 6AC080 7AS120 A3017;EQDQ01+000000PRSWM2
0216474740999992000011302004+44250+143530FM-15+0009RJEB V0201401N000510240019N0112651N1-00401-01201999999ADDGA1021+006009999GA2071+024009999GA3071+036009999GF107991999999999999999999MA1102001999999MW1001REMMET090RJEB 0200Z 14001KT 9999 FEW020 BKN080 BKN120 M04/M12 Q1020 RMK 1ST020 5AC080 7AS120 A3015;EQDQ01+000000PRSWM2
0216474740999992000011303004+44250+143530FM-15+0009RJEB V02099999999990240019N0112651N1-00401-01201999999ADDGA1021+015009999GA2071+024009999GA3071+036009999GF107991999999999999999999MA1101901999999MW1001REMMET090RJEB 0300Z VRB01KT 9999 FEW050 BKN080 BKN120 M04/M12 Q1019 RMK 1SC050 5AC080 7AS120 A3011;EQDQ01+000000PRSWM2
0216474740999992000011304004+44250+143530FM-15+0009RJEB V0200201N001010360019N0112651N1-00301-01001999999ADDGA1021+012009999GA2021+024009999GA3071+036009999GF107991999999999999999999MA1101801999999MW1001REMMET090RJEB 0400Z 02002KT 9999 FEW040 SCT080 BKN120 M03/M10 Q1018 RMK 1SC040 4AC080 7AS120 A3009;EQDQ01+000000PRSWM2
0216474740999992000011305004+44250+143530FM-15+0009RJEB V0201601N001010240019N0112651N1-00201-00901999999ADDGA1021+012009999GA2021+018009999GA3081+024009999GF108991999999999999999999MA1101801999999MW1001REMMET090RJEB 0500Z 16002KT 9999 FEW040 SCT060 OVC080 M02/M09 Q1018 RMK 1SC040 4AC060 8AS080 A3006;EQDQ01+000000PRSWM2
0236474740999992000011306004+44250+143530FM-15+0009RJEB V02099999999990039019N0070001N1-00201-00701999999ADDGA1021+002109999GA2021+003009999GA3071+003909999GF107991999999999999999999MA1101801999999MW1711REMMET094RJEB 0600Z VRB01KT 7000 -SN FEW007 SCT010 BKN013 M02/M07 Q1018 RMK 2ST007 3ST010 7ST013 A3009;EQDQ01+000003PRSWM1Q02    003PRSWM1
0236474740999992000011307004+44250+143530FM-15+0009RJEB V02099999999990030019N0030001N1-00301-00501999999ADDGA1021+001809999GA2071+003009999GA3071+003609999GF107991999999999999999999MA1101801999999MW1711REMMET094RJEB 0700Z VRB02KT 3000 -SN FEW006 BKN010 BKN012 M03/M05 Q1018 RMK 2ST006 5ST010 7ST012 A3006;EQDQ01+000003PRSWM1Q02    003PRSWM1
0208474740999992000011307084+44250+143530FM-16+0009RJEB V02099999999990030019N0050001N1-00301-00501999999ADDGA1021+001809999GA2071+003009999GF107991999999999999999999MA1101801999999MW1711REMMET082RJEB 130708Z VRB01KT 5000 -SN FEW006 BKN010 M03/M05 Q1018 RMK 2ST006 7ST010 A3007;EQDQ01+000003PRSWM1Q02    003PRSWM1
0218474740999992000011307264+44250+143530FM-16+0009RJEB V02099999999990180019N0112651N1-00301-00501999999ADDGA1021+001809999GA2021+003009999GA3081+018009999GF108991999999999999999999MA1101801999999MW1001REMMET092RJEB 130726Z VRB02KT 9999 FEW006 SCT010 OVC060 M03/M05 Q1018 RMK 1ST006 4ST010 8AS060 A3006;EQDQ01+000000PRSWM2
0231474740999992000011323384+44250+143530FM-16+0009RJEB V0203301N008710027019N0013001N1+00001-00101999999ADDED199U18009GA1021+001209999GA2071+002709999GF107991999999999999999999MA1100611999999MW1851REMMET094RJEB 132338Z 33017KT 1300 R32/1800D -SHSN SCT004 BKN009 M00/M01 Q1006 RMK 4ST004 7ST009 A2972;EQDQ01+000003PRSWM1Q02    003PRSWM1
0208474740999992000011400004+44250+143530FM-15+0009RJEB V0203301N008710027019N0026001N1+00001-00101999999ADDGA1021+001209999GA2071+002709999GF107991999999999999999999MA1100611999999MW1851REMMET082RJEB 0000Z 33017KT 2600 -SHSN SCT004 BKN009 M00/M01 Q1006 RMK 3ST004 7ST009 A2974;EQDQ01+000003PRSWM1Q02    003PRSWM1
0218474740999992000011400244+44250+143530FM-16+0009RJEB V0203301N009310027019N0030001N1+00001-00201999999ADDGA1021+001209999GA2071+002709999GF107991999999999999999999MA1100611999999MW1801MW2851REMMET086RJEB 140024Z 33018KT 3000 -SHRASN SCT004 BKN009 M00/M02 Q1006 RMK 3ST004 7ST009 A2974;EQDQ01+000003PRSWM1Q02    003PRSWM1
0218474740999992000011400414+44250+143530FM-16+0009RJEB V0203301N008710027019N0024001N1+00001-00201999999ADDGA1021+001209999GA2071+002709999GF107991999999999999999999MA1100611999999MW1801MW2851REMMET086RJEB 140041Z 33017KT 2400 -SHRASN SCT004 BKN009 M00/M02 Q1006 RMK 4ST004 7ST009 A2973;EQDQ01+000003PRSWM1Q02    003PRSWM1
0216474740999992000011401004+44250+143530FM-15+0009RJEB V0203301N008210027019N0020001N1+00001-00101999999ADDGA1021+001209999GA2071+002709999GF107991999999999999999999MA1100611999999MW1801MW2851REMMET084RJEB 0100Z 33016KT 2000 -SHRASN SCT004 BKN009 M00/M01 Q1006 RMK 4ST004 7ST009 A2972;EQDQ01+000003PRSWM1Q02    003PRSWM1
0216474740999992000011402004+44250+143530FM-15+0009RJEB V0203301N007710027019N0017001N1-00101-00201999999ADDGA1021+001209999GA2071+002709999GF107991999999999999999999MA1100511999999MW1801MW2851REMMET084RJEB 0200Z 33015KT 1700 -SHSNRA SCT004 BKN009 M01/M02 Q1005 RMK 4ST004 7ST009 A2970;EQDQ01+000003PRSWM1Q02    003PRSWM1
0242474740999992000011402124+44250+143530FM-16+0009RJEB V0203301N008210012019N0012001N1-00101-00201999999ADDGA1021+000909999GA2071+001209999GA3071+002709999GF107991999999999999999999MA1100511999999MW1001REMMET116RJEB 140212Z 33016KT 1200 R32/1200VP1800N -SHSNRA FEW003 BKN004 BKN009 M01/M02 Q1005 RMK 1ST003 5ST004 7ST009 A2969;EQDQ01+000000PRSWM2
0240474740999992000011402264+44250+143530FM-16+0009RJEB V0203301N007210012019N0010001N1-00101-00201999999ADDGA1021+000909999GA2071+001209999GA3071+002709999GF107991999999999999999999MA1100511999999MW1001REMMET114RJEB 140226Z 33014KT 1000 R32/1100VP1800D -SHSN FEW003 BKN004 BKN009 M01/M02 Q1005 RMK 1ST003 5ST004 7ST009 A2969;EQDQ01+000000PRSWM2
0240474740999992000011402364+44250+143530FM-16+0009RJEB V0203301N007710012019N0013001N1-00101-00201999999ADDGA1021+000909999GA2071+001209999GA3071+002709999GF107991999999999999999999MA1100511999999MW1001REMMET114RJEB 140236Z 33015KT 1300 R32/1100VP1800N -SHSN FEW003 BKN004 BKN009 M01/M02 Q1005 RMK 1ST003 5ST004 7ST009 A2969;EQDQ01+000000PRSWM2
0235474740999992000011403004+44250+143530FM-15+0009RJEB V0203401N007210027019N0012001N1+99999+99999999999ADDED199U18009GA1021+000909999GA2021+001209999GA3071+002709999GF107991999999999999999999MW1001MW2851REMMET107RJEB 0300Z 34014KT 1200 R32/1800D -SHSN FEW003 SCT004 BKN009 M01/M0 2 Q1005 RMK 1ST003 4ST004 7ST009 A2969;EQDQ01+000003PRSWM1
0254474740999992000011403094+44250+143530FM-16+0009RJEB V0203401N006710027019N0008001N1-00101-00201999999ADDGA1021+000909999GA2021+001209999GA3071+002709999GF107991999999999999999999MA1100511999999MW1861REMMET112RJEB 140309Z 34013KT 0800 R32/0900V1700D SHSN FEW003 SCT004 BKN009 M01/M02 Q1005 RMK 1ST003 4ST004 7ST009 A2969;EQDQ01+000003PRSWM1Q02    003PRSWM1
0266474740999992000011403214+44250+143530FM-16+0009RJEB V0203201N006710027019N0016001N1-00101-00201999999ADDED199U17009GA1021+000909999GA2021+001209999GA3071+002709999GF107991999999999999999999MA1100511999999MW1851REMMET113RJEB 140321Z 32013KT 1600 R32/1700U -SHSN FEW003 SCT004 BKN009 M01/M02 Q1005 RESN RMK 1ST003 4ST004 7ST009 A2969;EQDQ01+000003PRSWM1Q02    003PRSWM1
0213474740999992000011404004+44250+143530FM-15+0009RJEB V0203201N006210027019N0020001N1-00101-00201999999ADDGA1021+001209999GA2071+002709999GF107991999999999999999999MA1100511999999MW1851REMMET087RJEB 0400Z 32012KT 2000 -SHSN SCT004 BKN009 M01/M02 Q1005 RESN RMK 3ST004 7ST009 A2969;EQDQ01+000003PRSWM1Q02    003PRSWM1
0210474740999992000011404204+44250+143530FM-15+0009RJEB V0203201N006210027019N0025001N1-00101-00301999999ADDGA1021+001209999GA2071+002709999GF107991999999999999999999MA1100511999999MW1851REMMET084RJEB 140420Z 32012KT 2500 -SHSN SCT004 BKN009 M01/M03 Q1005 RMK 3ST004 7ST009 A2969;EQDQ01+000003PRSWM1Q02    003PRSWM1
0240474740999992000011404394+44250+143530FM-16+0009RJEB V0203201N005710027019N0040001N1-00101-00201999999ADDGA1021+001209999GA2071+002709999GA3071+003309999GF107991999999999999999999MA1100511999999MW1851REMMET098RJEB 140439Z 32011KT 4000 -SHSN FEW004 BKN009 BKN011 M01/M02 Q1005 RMK 2ST004 5ST009 7ST011 A2970;EQDQ01+000003PRSWM1Q02    003PRSWM1
0238474740999992000011405004+44250+143530FM-15+0009RJEB V0203201N006210036019N0060001N1-00101-00301999999ADDGA1021+001209999GA2021+002709999GA3071+003609999GF107991999999999999999999MA1100511999999MW1851REMMET096RJEB 0500Z 32012KT 6000 -SHSN FEW004 SCT009 BKN012 M01/M03 Q1005 RMK 1ST004 4ST009 7ST012 A2971;EQDQ01+000003PRSWM1Q02    003PRSWM1
0240474740999992000011405174+44250+143530FM-16+0009RJEB V0203201N005710027019N0045001N1-00101-00301999999ADDGA1021+001209999GA2071+002709999GA3071+003609999GF107991999999999999999999MA1100611999999MW1851REMMET098RJEB 140517Z 32011KT 4500 -SHSN FEW004 BKN009 BKN012 M01/M03 Q1006 RMK 2ST004 5ST009 7ST012 A2972;EQDQ01+000003PRSWM1Q02    003PRSWM1
0240474740999992000011405384+44250+143530FM-16+0009RJEB V0203201N005710024019N0025001N1-00101-00301999999ADDGA1021+001209999GA2071+002409999GA3071+003009999GF107991999999999999999999MA1100611999999MW1851REMMET098RJEB 140538Z 32011KT 2500 -SHSN SCT004 BKN008 BKN010 M01/M03 Q1006 RMK 3ST004 6ST008 7ST010 A2972;EQDQ01+000003PRSWM1Q02    003PRSWM1
0208474740999992000011406004+44250+143530FM-15+0009RJEB V0203201N005710024019N0017001N1-00201-00301999999ADDGA1021+001209999GA2071+002409999GF107991999999999999999999MA1100611999999MW1001REMMET098RJEB 0600Z 32011KT 1700 R32/1200VP1800D -SHSN SCT004 BKN008 M02/M03 Q1006 RMK 3ST004 7ST008 A2974;EQDQ01+000000PRSWM2
0210474740999992000011406134+44250+143530FM-16+0009RJEB V0203201N005710024019N0012001N1-00201-00301999999ADDGA1021+001209999GA2071+002409999GF107991999999999999999999MA1100711999999MW1001REMMET100RJEB 140613Z 32011KT 1200 R32/0900VP1800U -SHSN SCT004 BKN008 M02/M03 Q1007 RMK 4ST004 7ST008 A2975;EQDQ01+000000PRSWM2
0225474740999992000011406304+44250+143530FM-15+0009RJEB V0203201N006210024019N0014001N1-00201-00301999999ADDGA1021+001209999GA2071+002409999GF107991999999999999999999MA1100711999999MW1851REMMET099RJEB 140630Z 32012KT 1400 R32/1400V1800N -SHSN SCT004 BKN008 M02/M03 Q1007 RMK 4ST004 7ST008 A2976;EQDQ01+000003PRSWM1Q02    003PRSWM1
0208474740999992000011407004+44250+143530FM-15+0009RJEB V0203201N005110024019N0020001N1-00201-00301999999ADDGA1021+001209999GA2071+002409999GF107991999999999999999999MA1100711999999MW1851REMMET082RJEB 0700Z 32010KT 2000 -SHSN SCT004 BKN008 M02/M03 Q1007 RMK 3ST004 7ST008 A2977;EQDQ01+000003PRSWM1Q02    003PRSWM1
0232474740999992000011407254+44250+143530FM-15+0009RJEB V0203301N005710024019N0015001N1-00201-00301999999ADDED199U18009GA1021+001209999GA2071+002409999GF107991999999999999999999MA1100811999999MW1851REMMET095RJEB 140725Z 33011KT 1500 R32/P1800N -SHSN SCT004 BKN008 M02/M03 Q1008 RMK 4ST004 7ST008 A2977;EQDQ01+000003PRSWM1Q02    003PRSWM1
0240474740999992000011407424+44250+143530FM-16+0009RJEB V0203201N005110024019N0020001N1-00201-00301999999ADDGA1021+001209999GA2071+002409999GA3071+003009999GF107991999999999999999999MA1100811999999MW1851REMMET098RJEB 140742Z 32010KT 2000 -SHSN SCT004 BKN008 BKN010 M02/M03 Q1008 RMK 3ST004 6ST008 7ST010 A2978;EQDQ01+000003PRSWM1Q02    003PRSWM1
0186474740999992000011500004+44250+143530FM-15+0009RJEB V0203101N003610105019N0112651N1-00301-00701999999ADDGA1021+007509999GA2071+010509999GF107991999999999999999999MA1102001999999MW1001REMMET076RJEB 0000Z 31007KT 9999 SCT025 BKN035 M03/M07 Q1020 RMK 3CU025 7SC035 A3012;EQDQ01+000000PRSWM2
0238474740999992000011501004+44250+143530FM-15+0009RJEB V0203201N004610105019N0112651N1-00301-00701999999ADDGA1021+006009999GA2021+007509999GA3071+010509999GF107991999999999999999999MA1102001999999MW1851REMMET096RJEB 0100Z 32009KT 9999 -SHSN FEW020 SCT025 BKN035 M03/M07 Q1020 RMK 1CU020 4CU025 7SC035 A3014;EQDQ01+000003PRSWM1Q02    003PRSWM1
0208474740999992000011502004+44250+143530FM-15+0009RJEB V0203101N003610075019N0112651N1-00301-00801999999ADDGA1021+003309999GA2071+007509999GF107991999999999999999999MA1102001999999MW1851REMMET082RJEB 0200Z 31007KT 9999 -SHSN SCT011 BKN025 M03/M08 Q1020 RMK 4ST011 7CU025 A3014;EQDQ01+000003PRSWM1Q02    003PRSWM1
0186474740999992000011503004+44250+143530FM-15+0009RJEB V0203001N004110090019N0112651N1-00201-00901999999ADDGA1021+006009999GA2071+009009999GF107991999999999999999999MA1102001999999MW1001REMMET076RJEB 0300Z 30008KT 9999 FEW020 BKN030 M02/M09 Q1020 RMK 1CU020 6CU030 A3014;EQDQ01+000000PRSWM2
0186474740999992000011504004+44250+143530FM-15+0009RJEB V0203101N004110090019N0112651N1-00301-00901999999ADDGA1021+006009999GA2071+009009999GF107991999999999999999999MA1102101999999MW1001REMMET076RJEB 0400Z 31008KT 9999 FEW020 BKN030 M03/M09 Q1021 RMK 2CU020 6CU030 A3015;EQDQ01+000000PRSWM2
0216474740999992000011505004+44250+143530FM-15+0009RJEB V0203001N004610120019N0112651N1-00301-01001999999ADDGA1021+006009999GA2021+009009999GA3071+012009999GF107991999999999999999999MA1102101999999MW1001REMMET090RJEB 0500Z 30009KT 9999 FEW020 SCT030 BKN040 M03/M10 Q1021 RMK 2CU020 3CU030 6SC040 A3016;EQDQ01+000000PRSWM2
0184474740999992000011506004+44250+143530FM-15+0009RJEB V0203201N004610075019N0112651N1-00301-00601999999ADDGA1021+003609999GA2071+007509999GF107991999999999999999999MA1102201999999MW1851REMMET058RJEB 0600Z 32009KT 9999 -SHSN SCT012 BKN025 M03/M06 Q1022;EQDQ01+000003PRSWM1Q02    003PRSWM1
0208474740999992000011507004+44250+143530FM-15+0009RJEB V0203101N004110075019N0112651N1-00401-00701999999ADDGA1021+004509999GA2071+007509999GF107991999999999999999999MA1102301999999MW1851REMMET082RJEB 0700Z 31008KT 9999 -SHSN FEW015 BKN025 M04/M07 Q1023 RMK 2ST015 6CU025 A3021;EQDQ01+000003PRSWM1Q02    003PRSWM1
0179474740999992000011600004+44250+143530FM-15+0009RJEB V0202101N003119999999N0112651N1-00801-01201999999ADDGA1021+006009999GA2071+999999999GF107991999999999999999999MA1102511999999MW1001REMMET069RJEB 0000Z 21006KT 9999 FEW020 BKN/// M08/M12 Q1025 RMK 1ST020 A3027;EQDQ01+000000PRSWM2
0179474740999992000011601004+44250+143530FM-15+0009RJEB V0202301N001519999999N0112651N1-00601-01101999999ADDGA1021+004509999GA2071+999999999GF107991999999999999999999MA1102401999999MW1001REMMET069RJEB 0100Z 23003KT 9999 FEW015 BKN/// M06/M11 Q1024 RMK 1ST015 A3026;EQDQ01+000000PRSWM2
0179474740999992000011602004+44250+143530FM-15+0009RJEB V02099999999999999999N0112651N1-00501-01001999999ADDGA1021+006009999GA2071+999999999GF107991999999999999999999MA1102401999999MW1001REMMET069RJEB 0200Z VRB03KT 9999 FEW020 BKN/// M05/M10 Q1024 RMK 1CU020 A3024;EQDQ01+000000PRSWM2
0179474740999992000011603004+44250+143530FM-15+0009RJEB V0202401N001519999999N0112651N1-00501-01001999999ADDGA1021+004509999GA2071+999999999GF107991999999999999999999MA1102201999999MW1001REMMET069RJEB 0300Z 24003KT 9999 FEW015 BKN/// M05/M10 Q1022 RMK 1ST015 A3020;EQDQ01+000000PRSWM2
0179474740999992000011604004+44250+143530FM-15+0009RJEB V0209999C000019999999N0112651N1-00501-01001999999ADDGA1021+009009999GA2071+999999999GF107991999999999999999999MA1102201999999MW1001REMMET069RJEB 0400Z 00000KT 9999 FEW030 BKN/// M05/M10 Q1022 RMK 1SC030 A3018;EQDQ01+000000PRSWM2
0179474740999992000011605004+44250+143530FM-15+0009RJEB V0201001N001019999999N0112651N1-00501-01001999999ADDGA1021+009009999GA2071+999999999GF107991999999999999999999MA1102101999999MW1001REMMET069RJEB 0500Z 10002KT 9999 FEW030 BKN/// M05/M10 Q1021 RMK 1SC030 A3016;EQDQ01+000000PRSWM2
0179474740999992000011606004+44250+143530FM-15+0009RJEB V0201201N001012200019N0112651N1-00501-01001999999ADDGA1021+009009999GA2021+999999999GF104991999999999999999999MA1102101999999MW1001REMMET069RJEB 0600Z 12002KT 9999 FEW030 SCT/// M05/M10 Q1021 RMK 1SC030 A3016;EQDQ01+000000PRSWM2
0156474740999992000011607004+44250+143530FM-15+0009RJEB V0201401N002112200019N0112651N1-00601-01101999999ADDGA1021+024009999GF102991999999999999999999MA1102101999999MW1001REMMET062RJEB 0700Z 14004KT 9999 FEW080 M06/M11 Q1021 RMK 1AC080 A3015;EQDQ01+000000PRSWM2
0156474740999992000011700004+44250+143530FM-15+0009RJEB V0202501N000512200019N0112651N1-00501-00701999999ADDGA1021+003009999GF102991999999999999999999MA1101491999999MW1001REMMET062RJEB 0000Z 25001KT 9999 FEW010 M05/M07 Q1015 RMK 1ST010 A2998;EQDQ01+000000PRSWM2
0156474740999992000011701004+44250+143530FM-15+0009RJEB V0203601N000512200019N0112651N1-00501-00701999999ADDGA1021+006009999GF102991999999999999999999MA1101491999999MW1001REMMET062RJEB 0100Z 36001KT 9999 FEW020 M05/M07 Q1015 RMK 1CU020 A2998;EQDQ01+000000PRSWM2
0156474740999992000011702004+44250+143530FM-15+0009RJEB V0201101N001512200019N0112651N1-00301-00601999999ADDGA1021+006009999GF102991999999999999999999MA1101391999999MW1001REMMET062RJEB 0200Z 11003KT 9999 FEW020 M03/M06 Q1014 RMK 1CU020 A2995;EQDQ01+000000PRSWM2
0186474740999992000011703004+44250+143530FM-15+0009RJEB V0201001N002110075019N0112651N1-00201-00601999999ADDGA1021+003009999GA2071+007509999GF107991999999999999999999MA1101291999999MW1001REMMET076RJEB 0300Z 10004KT 9999 FEW010 BKN025 M02/M06 Q1013 RMK 1ST010 5CU025 A2994;EQDQ01+000000PRSWM2
0186474740999992000011704004+44250+143530FM-15+0009RJEB V0200501N001512200019N0112651N1-00201-00601999999ADDGA1021+002409999GA2021+007509999GF104991999999999999999999MA1101291999999MW1001REMMET076RJEB 0400Z 05003KT 9999 FEW008 SCT025 M02/M06 Q1013 RMK 1ST008 3CU025 A2993;EQDQ01+000000PRSWM2
0207474740999992000011705004+44250+143530FM-15+0009RJEB V0200201N002110075019N0112651N1-00201-00501999999ADDGA1021+001509999GA2021+004509999GA3071+007509999GF107991999999999999999999MA1101291999999MW1851REMMET065RJEB 0500Z 02004KT 9999 -SHSN FEW005 SCT015 BKN025 M02/M05 Q1013;EQDQ01+000003PRSWM1Q02    003PRSWM1
0210474740999992000011705424+44250+143530FM-16+0009RJEB V02099999999990030019N0023001N1-00201-00501999999ADDGA1021+001509999GA2071+003009999GF107991999999999999999999MA1101391999999MW1851REMMET084RJEB 170542Z VRB02KT 2300 -SHSN FEW005 BKN010 M02/M05 Q1014 RMK 2ST005 7ST010 A2995;EQDQ01+000003PRSWM1Q02    003PRSWM1
0248474740999992000011706004+44250+143530FM-15+0009RJEB V0203501N001510030019N0030001N1-00201-00401999999ADDGA1021+001509999GA2071+003009999GA3071+007509999GF107991999999999999999999MA1101391999999MW1001REMMET122RJEB 0600Z 35003KT 3000 R32/0700VP1800D -SHSN FEW005 BKN010 BKN025 M02/M04 Q1014 RMK 2ST005 6ST010 7CU025 A2995 1800NE-SE;EQDQ01+000000PRSWM2
0246474740999992000011706044+44250+143530FM-16+0009RJEB V02099999999990075019N0050001N1-00301-00401999999ADDGA1021+001509999GA2021+003009999GA3071+007509999GF107991999999999999999999MA1101391999999MW1001REMMET120RJEB 170604Z VRB02KT 5000 R32/0700VP1800U -SHSN FEW005 SCT010 BKN025 M03/M04 Q1014 RMK 2ST005 4ST010 7CU025 A2995 2000E;EQDQ01+000000PRSWM2
0186474740999992000011707004+44250+143530FM-15+0009RJEB V0202001N001010045019N0112651N1-00301-00501999999ADDGA1021+001509999GA2071+004509999GF107991999999999999999999MA1101391999999MW1001REMMET076RJEB 0700Z 20002KT 9999 FEW005 BKN015 M03/M05 Q1014 RMK 1ST005 6ST015 A2997;EQDQ01+000000PRSWM2
0186474740999992000011800004+44250+143530FM-15+0009RJEB V0202501N002110120019N0112651N1-00501-00801999999ADDGA1021+009009999GA2071+012009999GF107991999999999999999999MA1101691999999MW1001REMMET076RJEB 0000Z 25004KT 9999 FEW030 BKN040 M05/M08 Q1017 RMK 1CU030 6SC040 A3006;EQDQ01+000000PRSWM2
0186474740999992000011801004+44250+143530FM-15+0009RJEB V02099999999992200019N0112651N1-00501-00701999999ADDGA1021+009009999GA2021+013509999GF104991999999999999999999MA1101691999999MW1001REMMET076RJEB 0100Z VRB01KT 9999 FEW030 SCT045 M05/M07 Q1017 RMK 1CU030 4SC045 A3005;EQDQ01+000000PRSWM2
0164474740999992000011802004+44250+143530FM-15+0009RJEB V0201001N002112200019N0112651N1-00301-00901999999ADDGA1021+007509999GF102991999999999999999999MA1101691999999MW1001REMMET070RJEB 0200Z 10004KT 070V130 9999 FEW025 M03/M09 Q1017 RMK 1CU025 A3004;EQDQ01+000000PRSWM2
0156474740999992000011803004+44250+143530FM-15+0009RJEB V0200901N002612200019N0112651N1-00301-00801999999ADDGA1021+009009999GF102991999999999999999999MA1101591999999MW1001REMMET062RJEB 0300Z 09005KT 9999 FEW030 M03/M08 Q1016 RMK 2CU030 A3003;EQDQ01+000000PRSWM2
0179474740999992000011804004+44250+143530FM-15+0009RJEB V0201001N002112200019N0112651N1-00301-00801999999ADDGA1021+007509099GF102991999999999999999999MA1101591999999MW1001REMMET085RJEB 0400Z 10004KT 9999 FEW025CB M03/M08 Q1016 RMK 1CB025 A3001 CB NW-NE MOV UNKNOWN;EQDQ01+000000PRSWM2
0176474740999992000011805004+44250+143530FM-15+0009RJEB V0200701N001512200019N0112651N1-00301-00701999999ADDGA1021+007509099GF102991999999999999999999MA1101591999999MW1001REMMET082RJEB 0500Z 07003KT 9999 FEW025CB M03/M07 Q1016 RMK 1CB025 A3001 CB NW-NE MOV STNR;EQDQ01+000000PRSWM2
0194474740999992000011806004+44250+143530FM-15+0009RJEB V0200501N002110075019N0112651N1-00301-00701999999ADDGA1021+006009999GA2071+007509999GF107991999999999999999999MA1101591999999MW1001REMMET084RJEB 0600Z 05004KT 020V090 9999 FEW020 BKN025 M03/M07 Q1016 RMK 1ST020 6CU025 A3002;EQDQ01+000000PRSWM2
0238474740999992000011807004+44250+143530FM-15+0009RJEB V02099999999990075019N0090001N1-00301-00601999999ADDGA1021+002709999GA2021+003609999GA3071+007509999GF107991999999999999999999MA1101691999999MW1851REMMET096RJEB 0700Z VRB02KT 9000 -SHSN FEW009 SCT012 BKN025 M03/M06 Q1017 RMK 1ST009 4ST012 7CU025 A3004;EQDQ01+000003PRSWM1Q02    003PRSWM1
0240474740999992000011807364+44250+143530FM-16+0009RJEB V02099999999990033019N0060001N1-00301-00501999999ADDGA1021+002109999GA2071+003309999GA3071+007509999GF107991999999999999999999MA1101691999999MW1851REMMET098RJEB 180736Z VRB03KT 6000 -SHSN FEW007 BKN011 BKN025 M03/M05 Q1017 RMK 2ST007 5ST011 7CU025 A3004;EQDQ01+000003PRSWM1Q02    003PRSWM1
0216474740999992000011900004+44250+143530FM-15+0009RJEB V02099999999990210019N0112651N1-00501-00701999999ADDGA1021+007509999GA2021+009009999GA3071+021009999GF107991999999999999999999MA1101691999999MW1001REMMET090RJEB 0000Z VRB01KT 9999 FEW025 SCT030 BKN070 M05/M07 Q1017 RMK 1CU025 4CU030 7AC070 A3005;EQDQ01+000000PRSWM2
0238474740999992000011901004+44250+143530FM-15+0009RJEB V0201301N002110210019N0112651N1-00501-00801999999ADDGA1021+007509099GA2021+009009999GA3071+021009999GF107991999999999999999999MA1101691999999MW1001REMMET112RJEB 0100Z 13004KT 9999 FEW025CB SCT030 BKN070 M05/M08 Q1017 RMK 2CB025 4CU030 7AC070 A3004 CB NW-N MOV UNKNOWN;EQDQ01+000000PRSWM2
0238474740999992000011902004+44250+143530FM-15+0009RJEB V0201401N004110033019N0070001N1-00401-00701999999ADDGA1021+002109999GA2071+003309999GA3071+007509999GF107991999999999999999999MA1101591999999MW1851REMMET096RJEB 0200Z 14008KT 7000 -SHSN FEW007 BKN011 BKN025 M04/M07 Q1016 RMK 1ST007 5ST011 7CU025 A3002;EQDQ01+000003PRSWM1Q02    003PRSWM1
0240474740999992000011902104+44250+143530FM-16+0009RJEB V0201401N004110075019N0090001N1-00401-00701999999ADDGA1021+002109999GA2021+003309999GA3071+007509999GF107991999999999999999999MA1101591999999MW1851REMMET098RJEB 190210Z 14008KT 9000 -SHSN FEW007 SCT011 BKN025 M04/M07 Q1016 RMK 1ST007 4ST011 7CU025 A3001;EQDQ01+000003PRSWM1Q02    003PRSWM1
0238474740999992000011903004+44250+143530FM-15+0009RJEB V0201301N003110075019N0112651N1-00301-00701999999ADDGA1021+002109999GA2021+003309999GA3071+007509999GF107991999999999999999999MA1101591999999MW1851REMMET096RJEB 0300Z 13006KT 9999 -SHSN FEW007 SCT011 BKN025 M03/M07 Q1016 RMK 1ST007 4ST011 7CU025 A3001;EQDQ01+000003PRSWM1Q02    003PRSWM1
0238474740999992000011904004+44250+143530FM-15+0009RJEB V0201201N005110045019N0050001N1-00401-00701999999ADDGA1021+002109999GA2021+003309999GA3071+004509999GF107991999999999999999999MA1101491999999MW1851REMMET096RJEB 0400Z 12010KT 5000 -SHSN FEW007 SCT011 BKN015 M04/M07 Q1015 RMK 2ST007 3ST011 6ST015 A2999;EQDQ01+000003PRSWM1Q02    003PRSWM1
0240474740999992000011904304+44250+143530FM-15+0009RJEB V0201201N005110033019N0049001N1-00401-00601999999ADDGA1021+002109999GA2071+003309999GA3071+004509999GF107991999999999999999999MA1101491999999MW1851REMMET098RJEB 190430Z 12010KT 4900 -SHSN FEW007 BKN011 BKN015 M04/M06 Q1015 RMK 2ST007 5ST011 7ST015 A2999;EQDQ01+000003PRSWM1Q02    003PRSWM1
0238474740999992000011905004+44250+143530FM-15+0009RJEB V0201201N006210033019N0045001N1-00301-00601999999ADDGA1021+002109999GA2071+003309999GA3071+004509999GF107991999999999999999999MA1101491999999MW1851REMMET096RJEB 0500Z 12012KT 4500 -SHSN FEW007 BKN011 BKN015 M03/M06 Q1015 RMK 2ST007 6ST011 7ST015 A2999;EQDQ01+000003PRSWM1Q02    003PRSWM1
0238474740999992000011906004+44250+143530FM-15+0009RJEB V0201101N006710033019N0045001N1-00301-00601999999ADDGA1021+002109999GA2071+003309999GA3071+007509999GF107991999999999999999999MA1101491999999MW1851REMMET096RJEB 0600Z 11013KT 4500 -SHSN FEW007 BKN011 BKN025 M03/M06 Q1015 RMK 2ST007 6ST011 7CU025 A2999;EQDQ01+000003PRSWM1Q02    003PRSWM1
0240474740999992000011906104+44250+143530FM-16+0009RJEB V0201101N006710075019N0112651N1-00301-00701999999ADDGA1021+002109999GA2021+003309999GA3071+007509999GF107991999999999999999999MA1101491999999MW1851REMMET098RJEB 190610Z 11013KT 9999 -SHSN FEW007 SCT011 BKN025 M03/M07 Q1015 RMK 1ST007 4ST011 7CU025 A2999;EQDQ01+000003PRSWM1Q02    003PRSWM1
0238474740999992000011907004+44250+143530FM-15+0009RJEB V0201201N005710054019N0090001N1-00301-00801999999ADDGA1021+002109999GA2021+003309999GA3071+005409999GF107991999999999999999999MA1101491999999MW1851REMMET096RJEB 0700Z 12011KT 9000 -SHSN FEW007 SCT011 BKN018 M03/M08 Q1015 RMK 1ST007 3ST011 7ST018 A2999;EQDQ01+000003PRSWM1Q02    003PRSWM1
0230474740999992000011923344+44250+143530FM-16+0009RJEB V0203101N001510012019N0006001N1-00401-00501999999ADDED199U14009GA1071+001209999GA2071+001809999GF107991999999999999999999MA1101191999999MW1861REMMET093RJEB 192334Z 31003KT 0600 R32/1400D SHSN BKN004 BKN006 M04/M05 Q1012 RMK 5ST004 7ST006 A2990;EQDQ01+000003PRSWM1Q02    003PRSWM1
0184474740999992000012000004+44250+143530FM-15+0009RJEB V0209999999999000151CN0004001N1-00401-00501999999ADDGA1091+000159999GF109991999999000251999999MA1101191999999MW1861REMMET074RJEB 0000Z VRB03KT 0400 R32/0600V1100U SHSN VV002 M04/M05 Q1012 RMK A2990;EQDQ01+000003PRSWM1Q02    003PRSWM1
0186474740999992000012000254+44250+143530FM-15+0009RJEB V0202801N00151000151CN0007001N1-00401-00501999999ADDGA1091+000159999GF109991999999000251999999MA1101191999999MW1861REMMET076RJEB 200025Z 28003KT 0700 R32/1000V1800U SHSN VV002 M04/M05 Q1012 RMK A2989;EQDQ01+000003PRSWM1Q02    003PRSWM1
0190474740999992000012001004+44250+143530FM-15+0009RJEB V0203001N00151000151CN0005001N1-00401-00401999999ADDED199U10009GA1091+000159999GF109991999999000251999999MA1101081999999MW1861REMMET069RJEB 0100Z 30003KT 0500 R32/1000N SHSN VV002 M04/M04 Q1011 RMK A2988;EQDQ01+000003PRSWM1Q02    003PRSWM1
0186474740999992000012001224+44250+143530FM-16+0009RJEB V0209999999999000151CN0003001N1-00301-00401999999ADDGA1091+000159999GF109991999999000251999999MA1101081999999MW1861REMMET076RJEB 200122Z VRB03KT 0300 R32/0600V0800N SHSN VV002 M03/M04 Q1011 RMK A2987;EQDQ01+000003PRSWM1Q02    003PRSWM1
0187474740999992000012001424+44250+143530FM-16+0009RJEB V0200601N00511000151CN0006001N1-00201-00401999999ADDGA1091+000159999GF109991999999000251999999MA1101081999999MW1861REMMET077RJEB 200142Z 06010KT 0600 R32/0750VP1800D SHSN VV002 M02/M04 Q1011 RMK A2986;EQDQ01+000003PRSWM1Q02    003PRSWM1
0184474740999992000012002004+44250+143530FM-15+0009RJEB V0200701N00411000151CN0008001N1-00201-00401999999ADDGA1091+000159999GF109991999999000251999999MA1101021999999MW1861REMMET074RJEB 0200Z 07008KT 0800 R32/0800V1200N SHSN VV002 M02/M04 Q1010 RMK A2985;EQDQ01+000003PRSWM1Q02    003PRSWM1
0223474740999992000012003004+44250+143530FM-15+0009RJEB V0200601N005710009019N0011001N1-00201-00401999999ADDGA1021+000609999GA2071+000909999GF107991999999999999999999MA1100911999999MW1861REMMET097RJEB 0300Z 06011KT 1100 R32/1100VP1800U SHSN SCT002 BKN003 M02/M04 Q1009 RMK 4ST002 7ST003 A2982;EQDQ01+000003PRSWM1Q02    003PRSWM1
0236474740999992000012003044+44250+143530FM-16+0009RJEB V0200601N005710009019N0013001N1-00201-00401999999ADDED199U17009GA1021+000609999GA2071+000909999GF107991999999999999999999MA1100911999999MW1851REMMET099RJEB 200304Z 06011KT 1300 R32/1700U -SHSN SCT002 BKN003 M02/M04 Q1009 RESN RMK 4ST002 7ST003 A2982;EQDQ01+000003PRSWM1Q02    003PRSWM1
0236474740999992000012003224+44250+143530FM-16+0009RJEB V0200601N005710009019N0015001N1-00201-00301999999ADDED199U18009GA1021+000609999GA2071+000909999GF107991999999999999999999MA1100911999999MW1851REMMET099RJEB 200322Z 06011KT 1500 R32/1800N -SHSN SCT002 BKN003 M02/M03 Q1009 RESN RMK 4ST002 7ST003 A2981;EQDQ01+000003PRSWM1Q02    003PRSWM1
0186474740999992000012003434+44250+143530FM-16+0009RJEB V0200601N00571000151CN0007001N1-00201-00301999999ADDGA1091+000159999GF109991999999000251999999MA1100911999999MW1861REMMET076RJEB 200343Z 06011KT 0700 R32/1000V1700D SHSN VV002 M02/M03 Q1009 RMK A2980;EQDQ01+000003PRSWM1Q02    003PRSWM1
0185474740999992000012004004+44250+143530FM-15+0009RJEB V0200601N00571000151CN0009001N1-00201-00301999999ADDGA1091+000159999GF109991999999000251999999MA1100911999999MW1861REMMET075RJEB 0400Z 06011KT 0900 R32/1100VP1800U SHSN VV002 M02/M03 Q1009 RMK A2980;EQDQ01+000003PRSWM1Q02    003PRSWM1
0187474740999992000012004024+44250+143530FM-16+0009RJEB V0200601N00571000151CN0009001N1-00201-00301999999ADDGA1091+000159999GF109991999999000251999999MA1100911999999MW1861REMMET077RJEB 200402Z 06011KT 0900 R32/1100VP1800U SHSN VV002 M02/M03 Q1009 RMK A2980;EQDQ01+000003PRSWM1Q02    003PRSWM1
0215474740999992000012004274+44250+143530FM-16+0009RJEB V0200501N005710006019N0018001N1-00201-00301999999ADDGA1071+000609999GA2071+000909999GF107991999999999999999999MA1100811999999MW1851REMMET089RJEB 200427Z 05011KT 1800 -SHSN BKN002 BKN003 M02/M03 Q1008 RESN RMK 5ST002 7ST003 A2980;EQDQ01+000003PRSWM1Q02    003PRSWM1
0213474740999992000012005004+44250+143530FM-15+0009RJEB V0200401N006710006019N0018001N1-00201-00301999999ADDGA1071+000609999GA2071+000909999GF107991999999999999999999MA1100811999999MW1851REMMET087RJEB 0500Z 04013KT 1800 -SHSN BKN002 BKN003 M02/M03 Q1008 RESN RMK 5ST002 7ST003 A2979;EQDQ01+000003PRSWM1Q02    003PRSWM1
0231474740999992000012005294+44250+143530FM-16+0009RJEB V0200301N006210006019N0015001N1-00201-00301999999ADDED199U16009GA1071+000609999GA2071+000909999GF107991999999999999999999MA1100811999999MW1851REMMET094RJEB 200529Z 03012KT 1500 R32/1600N -SHSN BKN002 BKN003 M02/M03 Q1008 RMK 5ST002 7ST003 A2979;EQDQ01+000003PRSWM1Q02    003PRSWM1
0232474740999992000012005444+44250+143530FM-16+0009RJEB V0200401N005710006019N0012001N1-00201-00301999999ADDED199U18009GA1071+000609999GA2071+000909999GF107991999999999999999999MA1100811999999MW1851REMMET095RJEB 200544Z 04011KT 1200 R32/P1800N -SHSN BKN002 BKN003 M02/M03 Q1008 RMK 5ST002 7ST003 A2979;EQDQ01+000003PRSWM1Q02    003PRSWM1
0230474740999992000012006004+44250+143530FM-15+0009RJEB V0200401N005710006019N0015001N1-00201-00301999999ADDED199U18009GA1071+000609999GA2071+000909999GF107991999999999999999999MA1100811999999MW1851REMMET093RJEB 0600Z 04011KT 1500 R32/P1800N -SHSN BKN002 BKN003 M02/M03 Q1008 RMK 5ST002 7ST003 A2979;EQDQ01+000003PRSWM1Q02    003PRSWM1
0210474740999992000012006354+44250+143530FM-16+0009RJEB V0200301N007710006019N0013001N1-00201-00301999999ADDGA1071+000609999GA2071+000909999GF107991999999999999999999MA1100811999999MW1001REMMET100RJEB 200635Z 03015KT 1300 R32/1300VP1800D -SHSN BKN002 BKN003 M02/M03 Q1008 RMK 5ST002 7ST003 A2980;EQDQ01+000000PRSWM2
0238474740999992000012007004+44250+143530FM-15+0009RJEB V0200401N009310009019N0018001N1-00201-00301999999ADDGA1021+000609999GA2071+000909999GA3071+001809999GF107991999999999999999999MA1100811999999MW1851REMMET096RJEB 0700Z 04018KT 1800 -SHSN SCT002 BKN003 BKN006 M02/M03 Q1008 RMK 3ST002 5ST003 7ST006 A2979;EQDQ01+000003PRSWM1Q02    003PRSWM1
0232474740999992000012007224+44250+143530FM-16+0009RJEB V0200401N009810006019N0015001N1-00201-00301999999ADDED199U18009GA1071+000609999GA2071+000909999GF107991999999999999999999MA1100811999999MW1851REMMET095RJEB 200722Z 04019KT 1500 R32/P1800N -SHSN BKN002 BKN003 M02/M03 Q1008 RMK 5ST002 7ST003 A2979;EQDQ01+000003PRSWM1Q02    003PRSWM1
0208474740999992000012102004+44250+143530FM-15+0009RJEB V0203101N009810060019N0025001N1-00701-00901999999ADDGA1021+003309999GA2071+006009999GF107991999999999999999999MA1101591999999MW1851REMMET082RJEB 0200Z 31019KT 2500 -SHSN SCT011 BKN020 M07/M09 Q1016 RMK 3ST011 7CU020 A3003;EQDQ01+000003PRSWM1Q02    003PRSWM1
0210474740999992000012102114+44250+143530FM-16+0009RJEB V0203101N009310060019N0035001N1-00701-00901999999ADDGA1021+003309999GA2071+006009999GF107991999999999999999999MA1101591999999MW1851REMMET084RJEB 210211Z 31018KT 3500 -SHSN SCT011 BKN020 M07/M09 Q1016 RMK 3ST011 7CU020 A3002;EQDQ01+000003PRSWM1Q02    003PRSWM1
0210474740999992000012102204+44250+143530FM-15+0009RJEB V0203101N009310060019N0043001N1-00701-00901999999ADDGA1021+003309999GA2071+006009999GF107991999999999999999999MA1101591999999MW1851REMMET084RJEB 210220Z 31018KT 4300 -SHSN SCT011 BKN020 M07/M09 Q1016 RMK 3ST011 7CU020 A3002;EQDQ01+000003PRSWM1Q02    003PRSWM1
0238474740999992000012103004+44250+143530FM-15+0009RJEB V0203101N009310060019N0028001N1-00701-01001999999ADDGA1021+001509999GA2021+003309999GA3071+006009999GF107991999999999999999999MA1101591999999MW1851REMMET096RJEB 0300Z 31018KT 2800 -SHSN FEW005 SCT011 BKN020 M07/M10 Q1016 RMK 1ST005 4ST011 7CU020 A3002;EQDQ01+000003PRSWM1Q02    003PRSWM1
0240474740999992000012103124+44250+143530FM-16+0009RJEB V0203101N009310033019N0024001N1-00701-01001999999ADDGA1021+001509999GA2071+003309999GA3071+006009999GF107991999999999999999999MA1101591999999MW1851REMMET098RJEB 210312Z 31018KT 2400 -SHSN FEW005 BKN011 BKN020 M07/M10 Q1016 RMK 1ST005 5ST011 7CU020 A3002;EQDQ01+000003PRSWM1Q02    003PRSWM1
0240474740999992000012103164+44250+143530FM-16+0009RJEB V0203101N008710033019N0028001N1-00701-00901999999ADDGA1021+001509999GA2071+003309999GA3071+006009999GF107991999999999999999999MA1101591999999MW1851REMMET098RJEB 210316Z 31017KT 2800 -SHSN FEW005 BKN011 BKN020 M07/M09 Q1016 RMK 1ST005 6ST011 7CU020 A3002;EQDQ01+000003PRSWM1Q02    003PRSWM1
0240474740999992000012103424+44250+143530FM-16+0009RJEB V0203201N008710033019N0032001N1-00701-01001999999ADDGA1021+001509999GA2071+003309999GA3071+006009999GF107991999999999999999999MA1101591999999MW1851REMMET098RJEB 210342Z 32017KT 3200 -SHSN FEW005 BKN011 BKN020 M07/M10 Q1016 RMK 1ST005 6ST011 7CU020 A3001;EQDQ01+000003PRSWM1Q02    003PRSWM1
0238474740999992000012104004+44250+143530FM-15+0009RJEB V0203101N008710033019N0019001N1-00801-01001999999ADDGA1021+001509999GA2071+003309999GA3071+006009999GF107991999999999999999999MA1101591999999MW1851REMMET096RJEB 0400Z 31017KT 1900 -SHSN FEW005 BKN011 BKN020 M08/M10 Q1016 RMK 1ST005 5ST011 7CU020 A3001;EQDQ01+000003PRSWM1Q02    003PRSWM1
0249474740999992000012104134+44250+143530FM-16+0009RJEB V0203201N009310060019N0050001N1-00801-01001999999ADDGA1021+001509999GA2021+003309999GA3071+006009999GF107991999999999999999999MA1101591999999MW1851REMMET107RJEB 210413Z 32018KT 5000 -SHSN FEW005 SCT011 BKN020 M08/M10 Q1016 RMK 1ST005 4ST011 7CU020 A3001 2000E-SE;EQDQ01+000003PRSWM1Q02    003PRSWM1
0247474740999992000012105004+44250+143530FM-15+0009RJEB V0203101N008710060019N0050001N1-00701-01001999999ADDGA1021+001509999GA2021+003309999GA3071+006009999GF107991999999999999999999MA1101691999999MW1851REMMET105RJEB 0500Z 31017KT 5000 -SHSN FEW005 SCT011 BKN020 M07/M10 Q1017 RMK 1ST005 4ST011 7CU020 A3003 2300W-NW;EQDQ01+000003PRSWM1Q02    003PRSWM1
0210474740999992000012105234+44250+143530FM-16+0009RJEB V0203101N008710060019N0049001N1-00701-01001999999ADDGA1021+003309999GA2071+006009999GF107991999999999999999999MA1101691999999MW1851REMMET084RJEB 210523Z 31017KT 4900 -SHSN SCT011 BKN020 M07/M10 Q1017 RMK 3ST011 7CU020 A3004;EQDQ01+000003PRSWM1Q02    003PRSWM1
0210474740999992000012105334+44250+143530FM-16+0009RJEB V0203201N008710060019N0050001N1-00801-01101999999ADDGA1021+003309999GA2071+006009999GF107991999999999999999999MA1101691999999MW1851REMMET084RJEB 210533Z 32017KT 5000 -SHSN SCT011 BKN020 M08/M11 Q1017 RMK 3ST011 7CU020 A3004;EQDQ01+000003PRSWM1Q02    003PRSWM1
0245474740999992000012106004+44250+143530FM-15+0009RJEB V0203201N009310060019N0050001N1-00801-01101999999ADDGA1021+002109999GA2021+003309999GA3071+006009999GF107991999999999999999999MA1101691999999MW1851REMMET103RJEB 0600Z 32018KT 5000 -SHSN FEW007 SCT011 BKN020 M08/M11 Q1017 RMK 1ST007 4ST011 7CU020 A3005 2000SE;EQDQ01+000003PRSWM1Q02    003PRSWM1
0233474740999992000012107004+44250+143530FM-15+0009RJEB V0203001N007212200019N0112651N1-00901-01301999999ADDGA1021+003309999GA2021+006009099GA3021+007509999GF102991999999999999999999MA1101801999999MW1001REMMET107RJEB 0700Z 30014KT 9999 FEW011 SCT025 FEW020CB M09/M13 Q1018 RMK 1ST011 4CU025 1CB020 A3009 CB NW-NE MOV E;EQDQ01+000000PRSWM2
0156474740999992000012200004+44250+143530FM-15+0009RJEB V0202301N006212200019N0112651N1-00901-01301999999ADDGA1021+006009999GF102991999999999999999999MA1102401999999MW1001REMMET062RJEB 0000Z 23012KT 9999 FEW020 M09/M13 Q1024 RMK 1ST020 A3025;EQDQ01+000000PRSWM2
0156474740999992000012201004+44250+143530FM-15+0009RJEB V0202501N004612200019N0112651N1-00701-01301999999ADDGA1021+006009999GF102991999999999999999999MA1102401999999MW1001REMMET062RJEB 0100Z 25009KT 9999 FEW020 M07/M13 Q1024 RMK 1ST020 A3025;EQDQ01+000000PRSWM2
0156474740999992000012202004+44250+143530FM-15+0009RJEB V0202301N003612200019N0112651N1-00601-01001999999ADDGA1021+006009999GF102991999999999999999999MA1102301999999MW1001REMMET062RJEB 0200Z 23007KT 9999 FEW020 M06/M10 Q1023 RMK 1CU020 A3023;EQDQ01+000000PRSWM2
0194474740999992000012203004+44250+143530FM-15+0009RJEB V0202701N004612200019N0112651N1-00401-01101999999ADDGA1021+006009999GA2021+009009999GF104991999999999999999999MA1102201999999MW1001REMMET084RJEB 0300Z 27009KT 240V310 9999 FEW020 SCT030 M04/M11 Q1022 RMK 1CU020 3CU030 A3019;EQDQ01+000000PRSWM2
0209474740999992000012204004+44250+143530FM-15+0009RJEB V0202501N005712200019N0112651N1-00301-01101999999ADDGA1021+007509099GA2021+009009999GF104991999999999999999999MA1102101999999MW1001REMMET099RJEB 220400Z 25011KT 220V280 9999 FEW025CB SCT030 M03/M11 Q1021 RMK 1CB025 3CU030 A3017 CB W MOV E;EQDQ01+000000PRSWM2
0207474740999992000012205004+44250+143530FM-15+0009RJEB V0202601N006712200019N0112651N1-00401-01101999999ADDGA1021+004509999GA2021+007509099GF102991999999999999999999MA1102101999999MW1001REMMET097RJEB 0500Z 26013KT 220V290 9999 FEW015 FEW025CB M04/M11 Q1021 RMK 1ST015 1CB025 A3016 CB W MOV E;EQDQ01+000000PRSWM2
0201474740999992000012206004+44250+143530FM-15+0009RJEB V0202401N004612200019N0112651N1-00401-01001999999ADDGA1021+007509999GA2021+999999999GF104991999999999999999999MA1102101999999MW1851REMMET075RJEB 0600Z 24009KT 9999 -SHSN FEW025 SCT/// M04/M10 Q1021 RMK 1CU025 A3015;EQDQ01+000003PRSWM1Q02    003PRSWM1
0208474740999992000012207004+44250+143530FM-15+0009RJEB V0202501N004110075019N0112651N1-00401-01001999999ADDGA1021+004509999GA2071+007509999GF107991999999999999999999MA1102101999999MW1851REMMET082RJEB 0700Z 25008KT 9999 -SHSN SCT015 BKN025 M04/M10 Q1021 RMK 4ST015 7CU025 A3016;EQDQ01+000003PRSWM1Q02    003PRSWM1
0210474740999992000012223354+44250+143530FM-16+0009RJEB V0201401N002110036019N0030001N1-00601-00701999999ADDGA1021+001509999GA2071+003609999GF107991999999999999999999MA1102001999999MW1851REMMET084RJEB 222335Z 14004KT 3000 -SHSN FEW005 BKN012 M06/M07 Q1020 RMK 1ST005 7ST012 A3013;EQDQ01+000003PRSWM1Q02    003PRSWM1
0238474740999992000012300004+44250+143530FM-15+0009RJEB V0201401N002610036019N0032001N1-00601-00801999999ADDGA1021+001509999GA2071+003609999GA3071+004509999GF107991999999999999999999MA1102001999999MW1851REMMET096RJEB 0000Z 14005KT 3200 -SHSN FEW005 BKN012 BKN015 M06/M08 Q1020 RMK 1ST005 5ST012 7ST015 A3012;EQDQ01+000003PRSWM1Q02    003PRSWM1
0240474740999992000012300374+44250+143530FM-16+0009RJEB V0201401N003110051019N0043001N1-00601-00801999999ADDGA1021+002109999GA2021+003609999GA3071+005109999GF107991999999999999999999MA1101901999999MW1851REMMET098RJEB 230037Z 14006KT 4300 -SHSN FEW007 SCT012 BKN017 M06/M08 Q1019 RMK 1ST007 4ST012 7ST017 A3012;EQDQ01+000003PRSWM1Q02    003PRSWM1
0208474740999992000012301004+44250+143530FM-15+0009RJEB V0201401N002610051019N0070001N1-00601-00801999999ADDGA1021+002109999GA2071+005109999GF107991999999999999999999MA1101901999999MW1851REMMET082RJEB 0100Z 14005KT 7000 -SHSN FEW007 BKN017 M06/M08 Q1019 RMK 1ST007 7ST017 A3011;EQDQ01+000003PRSWM1Q02    003PRSWM1
0185474740999992000012302004+44250+143530FM-15+0009RJEB V02099999999999999999N0080001N1-00501-00701999999ADDGA1021+002109999GA2021+005109999GA3071+999999999GF107991999999999999999999MA1101801999999MW1001REMMET059RJEB 0200Z VRB02KT 8000 FEW007 SCT017 BKN/// M05/M07 Q1018;EQDQ01+000000PRSWM2
0231474740999992000012303004+44250+143530FM-15+0009RJEB V0201201N002610045019N0060001N1-00501-00801999999ADDGA1021+002109999GA2071+004509999GA3071+999999999GF107991999999999999999999MA1101691999999MW1851REMMET089RJEB 0300Z 12005KT 6000 -SHSN FEW007 BKN015 BKN/// M05/M08 Q1017 RMK 1ST007 6ST015 A3005;EQDQ01+000003PRSWM1Q02    003PRSWM1
0238474740999992000012304004+44250+143530FM-15+0009RJEB V02099999999990060019N0060001N1-00501-00701999999ADDGA1021+002109999GA2021+004509999GA3071+006009999GF107991999999999999999999MA1101591999999MW1851REMMET096RJEB 0400Z VRB03KT 6000 -SHSN FEW007 SCT015 BKN020 M05/M07 Q1016 RMK 1ST007 4ST015 7CU020 A3003;EQDQ01+000003PRSWM1Q02    003PRSWM1
0238474740999992000012305004+44250+143530FM-15+0009RJEB V02099999999990060019N0070001N1-00501-00701999999ADDGA1021+002709999GA2021+004509999GA3071+006009999GF107991999999999999999999MA1101591999999MW1851REMMET096RJEB 0500Z VRB03KT 7000 -SHSN FEW009 SCT015 BKN020 M05/M07 Q1016 RMK 1ST009 3ST015 7CU020 A3002;EQDQ01+000003PRSWM1Q02    003PRSWM1
0207474740999992000012306004+44250+143530FM-15+0009RJEB V0203601N002110033019N0031001N1-00501-00701999999ADDGA1021+002109999GA2071+003309999GA3071+006009999GF107991999999999999999999MA1101591999999MW1851REMMET065RJEB 0600Z 36004KT 3100 -SHSN FEW007 BKN011 BKN020 M05/M07 Q1016;EQDQ01+000003PRSWM1Q02    003PRSWM1
0210474740999992000012306034+44250+143530FM-16+0009RJEB V0203501N002110033019N0023001N1-00501-00701999999ADDGA1021+002109999GA2071+003309999GF107991999999999999999999MA1101591999999MW1851REMMET084RJEB 230603Z 35004KT 2300 -SHSN FEW007 BKN011 M05/M07 Q1016 RMK 1ST007 7ST011 A3003;EQDQ01+000003PRSWM1Q02    003PRSWM1
0210474740999992000012306174+44250+143530FM-16+0009RJEB V0203401N003110033019N0028001N1-00501-00701999999ADDGA1021+002109999GA2071+003309999GF107991999999999999999999MA1101691999999MW1851REMMET084RJEB 230617Z 34006KT 2800 -SHSN FEW007 BKN011 M05/M07 Q1017 RMK 1ST007 7ST011 A3004;EQDQ01+000003PRSWM1Q02    003PRSWM1
0210474740999992000012306404+44250+143530FM-16+0009RJEB V0203401N003610033019N0023001N1-00501-00701999999ADDGA1021+002109999GA2071+003309999GF107991999999999999999999MA1101691999999MW1851REMMET084RJEB 230640Z 34007KT 2300 -SHSN FEW007 BKN011 M05/M07 Q1017 RMK 1ST007 7ST011 A3004;EQDQ01+000003PRSWM1Q02    003PRSWM1
0238474740999992000012307004+44250+143530FM-15+0009RJEB V0203301N004110033019N0015001N1-00501-00701999999ADDGA1021+001509999GA2021+002409999GA3071+003309999GF107991999999999999999999MA1101691999999MW1001REMMET112RJEB 0700Z 33008KT 1500 R32/1200VP1800D -SHSN FEW005 SCT008 BKN011 M05/M07 Q1017 RMK 2ST005 3ST008 7ST011 A3004;EQDQ01+000000PRSWM2
0255474740999992000012307114+44250+143530FM-16+0009RJEB V0203301N005110024019N0016001N1-00501-00701999999ADDGA1021+001509999GA2071+002409999GA3071+003309999GF107991999999999999999999MA1101691999999MW1851REMMET113RJEB 230711Z 33010KT 1600 R32/1200V1600U -SHSN FEW005 BKN008 BKN011 M05/M07 Q1017 RMK 2ST005 5ST008 7ST011 A3004;EQDQ01+000003PRSWM1Q02    003PRSWM1
0261474740999992000012307184+44250+143530FM-16+0009RJEB V0203301N005110024019N0017001N1-00501-00701999999ADDED199U16009GA1021+001509999GA2071+002409999GA3071+003309999GF107991999999999999999999MA1101691999999MW1851REMMET108RJEB 230718Z 33010KT 1700 R32/1600U -SHSN FEW005 BKN008 BKN011 M05/M07 Q1017 RMK 2ST005 5ST008 7ST011 A3004;EQDQ01+000003PRSWM1Q02    003PRSWM1
0240474740999992000012307404+44250+143530FM-16+0009RJEB V0203201N004610033019N0020001N1-00601-00701999999ADDGA1021+001509999GA2021+002409999GA3071+003309999GF107991999999999999999999MA1101691999999MW1851REMMET098RJEB 230740Z 32009KT 2000 -SHSN FEW005 SCT008 BKN011 M06/M07 Q1017 RMK 1ST005 4ST008 7ST011 A3004;EQDQ01+000003PRSWM1Q02    003PRSWM1
0233474740999992000012323354+44250+143530FM-16+0009RJEB V0203101N002610030019N0011001N1-00801-00901999999ADDGA1021+001509999GA2071+003009999GF107991999999999999999999MA1101591999999MW1851REMMET107RJEB 232335Z 31005KT 280V350 1100 R32/1100V1600D -SHSN SCT005 BKN010 M08/M09 Q1016 RMK 3ST005 7ST010 A3000;EQDQ01+000003PRSWM1Q02    003PRSWM1
0208474740999992000012400004+44250+143530FM-15+0009RJEB V0203101N005110030019N0015001N1-00801-01001999999ADDGA1021+001509999GA2071+003009999GF107991999999999999999999MA1101491999999MW1001REMMET098RJEB 0000Z 31010KT 1500 R32/1200VP1800U -SHSN FEW005 BKN010 M08/M10 Q1015 RMK 2ST005 7ST010 A3000;EQDQ01+000000PRSWM2
0240474740999992000012400114+44250+143530FM-16+0009RJEB V0203101N004610030019N0024001N1-00801-01001999999ADDGA1021+001509999GA2071+003009999GA3071+006009999GF107991999999999999999999MA1101491999999MW1851REMMET098RJEB 240011Z 31009KT 2400 -SHSN FEW005 BKN010 BKN020 M08/M10 Q1015 RMK 2ST005 6ST010 7CU020 A3000;EQDQ01+000003PRSWM1Q02    003PRSWM1
0240474740999992000012400264+44250+143530FM-16+0009RJEB V0203001N003610030019N0022001N1-00801-01001999999ADDGA1021+001509999GA2071+003009999GA3071+006009999GF107991999999999999999999MA1101491999999MW1851REMMET098RJEB 240026Z 30007KT 2200 -SHSN FEW005 BKN010 BKN020 M08/M10 Q1015 RMK 2ST005 6ST010 7CU020 A3000;EQDQ01+000003PRSWM1Q02    003PRSWM1
0225474740999992000012400394+44250+143530FM-16+0009RJEB V0203001N002610030019N0012001N1-00801-00901999999ADDGA1021+001509999GA2071+003009999GF107991999999999999999999MA1101491999999MW1851REMMET099RJEB 240039Z 30005KT 1200 R32/1300V1800D -SHSN FEW005 BKN010 M08/M09 Q1015 RMK 2ST005 7ST010 A2999;EQDQ01+000003PRSWM1Q02    003PRSWM1
0208474740999992000012401004+44250+143530FM-15+0009RJEB V0203101N002610030019N0011001N1-00801-00901999999ADDGA1021+001509999GA2071+003009999GF107991999999999999999999MA1101491999999MW1001REMMET098RJEB 0100Z 31005KT 1100 R32/1200VP1800U -SHSN FEW005 BKN010 M08/M09 Q1015 RMK 2ST005 7ST010 A2998;EQDQ01+000000PRSWM2
0231474740999992000012401054+44250+143530FM-16+0009RJEB V0203001N002110030019N0016001N1-00701-00901999999ADDED199U16009GA1021+001509999GA2071+003009999GF107991999999999999999999MA1101491999999MW1851REMMET094RJEB 240105Z 30004KT 1600 R32/1600N -SHSN FEW005 BKN010 M07/M09 Q1015 RMK 2ST005 7ST010 A2998;EQDQ01+000003PRSWM1Q02    003PRSWM1
0210474740999992000012401354+44250+143530FM-16+0009RJEB V0203201N003610030019N0020001N1-00801-01001999999ADDGA1021+001509999GA2071+003009999GF107991999999999999999999MA1101391999999MW1851REMMET084RJEB 240135Z 32007KT 2000 -SHSN FEW005 BKN010 M08/M10 Q1014 RMK 2ST005 7ST010 A2996;EQDQ01+000003PRSWM1Q02    003PRSWM1
0230474740999992000012402004+44250+143530FM-15+0009RJEB V0203101N004610030019N0014001N1-00801-01001999999ADDED199U18009GA1021+001509999GA2071+003009999GF107991999999999999999999MA1101391999999MW1851REMMET093RJEB 0200Z 31009KT 1400 R32/P1800N -SHSN FEW005 BKN010 M08/M10 Q1014 RMK 2ST005 7ST010 A2995;EQDQ01+000003PRSWM1Q02    003PRSWM1
0231474740999992000012402154+44250+143530FM-16+0009RJEB V0203001N004610030019N0013001N1-00801-01001999999ADDED199U16009GA1021+001509999GA2071+003009999GF107991999999999999999999MA1101291999999MW1851REMMET094RJEB 240215Z 30009KT 1300 R32/1600D -SHSN FEW005 BKN010 M08/M10 Q1013 RMK 2ST005 7ST010 A2994;EQDQ01+000003PRSWM1Q02    003PRSWM1
0231474740999992000012402234+44250+143530FM-16+0009RJEB V0203101N004610030019N0013001N1-00801-01001999999ADDED199U14009GA1021+001509999GA2071+003009999GF107991999999999999999999MA1101291999999MW1851REMMET094RJEB 240223Z 31009KT 1300 R32/1400N -SHSN FEW005 BKN010 M08/M10 Q1013 RMK 2ST005 7ST010 A2993;EQDQ01+000003PRSWM1Q02    003PRSWM1
0231474740999992000012402304+44250+143530FM-15+0009RJEB V0203001N004110030019N0016001N1-00801-01001999999ADDED199U17009GA1021+001509999GA2071+003009999GF107991999999999999999999MA1101291999999MW1851REMMET094RJEB 240230Z 30008KT 1600 R32/1700U -SHSN FEW005 BKN010 M08/M10 Q1013 RMK 2ST005 7ST010 A2993;EQDQ01+000003PRSWM1Q02    003PRSWM1
0236474740999992000012403004+44250+143530FM-15+0009RJEB V0203301N003110030019N0011001N1-00801-00901999999ADDGA1021+001509999GA2071+003009999GF107991999999999999999999MA1101191999999MW1851REMMET110RJEB 0300Z 33006KT 300V010 1100 R32/1100V1800D -SHSN FEW005 BKN010 M08/M09 Q1012 RMK 2ST005 7ST010 A2990 P/RR;EQDQ01+000003PRSWM1Q02    003PRSWM1
0236474740999992000012403134+44250+143530FM-16+0009RJEB V0203201N004610030019N0016001N1-00801-01001999999ADDED199U16009GA1021+001509999GA2071+003009999GF107991999999999999999999MA1101081999999MW1851REMMET099RJEB 240313Z 32009KT 1600 R32/1600U -SHSN FEW005 BKN010 M08/M10 Q1011 RMK 2ST005 7ST010 A2988 P/FR;EQDQ01+000003PRSWM1Q02    003PRSWM1
0210474740999992000012403374+44250+143530FM-16+0009RJEB V0203301N004110030019N0020001N1-00701-00901999999ADDGA1021+001509999GA2071+003009999GF107991999999999999999999MA1101081999999MW1851REMMET084RJEB 240337Z 33008KT 2000 -SHSN FEW005 BKN010 M07/M09 Q1011 RMK 2ST005 7ST010 A2987;EQDQ01+000003PRSWM1Q02    003PRSWM1
0237474740999992000012404004+44250+143530FM-15+0009RJEB V0203301N005710030019N0010001N1-00801-01001999999ADDED199U14009GA1021+001509999GA2071+003009999GF107991999999999999999999MA1101021999999MW1851REMMET100RJEB 0400Z 33011KT 290V010 1000 R32/1400U -SHSN FEW005 BKN010 M08/M10 Q1010 RMK 2ST005 7ST010 A2985;EQDQ01+000003PRSWM1Q02    003PRSWM1
0239474740999992000012404134+44250+143530FM-16+0009RJEB V0203001N004610030019N0014001N1-00801-00901999999ADDED199U16009GA1021+001509999GA2071+003009999GF107991999999999999999999MA1101021999999MW1851REMMET102RJEB 240413Z 30009KT 220V330 1400 R32/1600U -SHSN FEW005 BKN010 M08/M09 Q1010 RMK 2ST005 7ST010 A2984;EQDQ01+000003PRSWM1Q02    003PRSWM1
0232474740999992000012404434+44250+143530FM-16+0009RJEB V0203101N004110030019N0016001N1-00801-01001999999ADDED199U18009GA1021+001509999GA2071+003009999GF107991999999999999999999MA1101021999999MW1851REMMET095RJEB 240443Z 31008KT 1600 R32/P1800N -SHSN FEW005 BKN010 M08/M10 Q1010 RMK 2ST005 7ST010 A2983;EQDQ01+000003PRSWM1Q02    003PRSWM1
0235474740999992000012405004+44250+143530FM-15+0009RJEB V0203001N003110030019N0010001N1+99999+99999999999ADDED199U16009GA1021+001509999GA2071+003009999GA3071+021009999GF107991999999999999999999MW1001MW2851REMMET107RJEB 0500Z 30006KT 1000 R32/1600D -SHSN FEW005 BKN010 BKN070 M08/M1 0 Q1009 RMK 1ST005 6ST010 7AC070 A2982;EQDQ01+000003PRSWM1
0262474740999992000012405074+44250+143530FM-16+0009RJEB V0202901N002610030019N0009001N1-00801-00901999999ADDGA1021+001209999GA2071+003009999GA3071+004509999GF107991999999999999999999MA1100911999999MW1861REMMET120RJEB 240507Z 29005KT 250V330 0900 R32/1100V1500D SHSN FEW004 BKN010 BKN015 M08/M09 Q1009 RMK 2ST004 6ST010 7ST015 A2981;EQDQ01+000003PRSWM1Q02    003PRSWM1
0238474740999992000012405254+44250+143530FM-15+0009RJEB V0203401N002110030019N0013001N1-00801-00901999999ADDGA1021+001209999GA2071+003009999GF107991999999999999999999MA1100911999999MW1851REMMET112RJEB 240525Z 34004KT 300V030 1300 R32/0900V1800U -SHSN FEW004 BKN010 M08/M09 Q1009 RESN RMK 1ST004 7ST010 A2981;EQDQ01+000003PRSWM1Q02    003PRSWM1
0192474740999992000012405344+44250+143530FM-16+0009RJEB V0203401N00361000151CN0009001N1-00801-01001999999ADDED199U13009GA1091+000159999GF109991999999000251999999MA1100911999999MW1861REMMET071RJEB 240534Z 34007KT 0900 R32/1300D SHSN VV003 M08/M10 Q1009 RMK A2980;EQDQ01+000003PRSWM1Q02    003PRSWM1
0213474740999992000012406004+44250+143530FM-15+0009RJEB V0203101N004610030019N0020001N1-00801-01001999999ADDGA1021+001509999GA2071+003009999GF107991999999999999999999MA1100911999999MW1851REMMET087RJEB 0600Z 31009KT 2000 -SHSN FEW005 BKN010 M08/M10 Q1009 RESN RMK 2ST005 7ST010 A2980;EQDQ01+000003PRSWM1Q02    003PRSWM1
0210474740999992000012406114+44250+143530FM-16+0009RJEB V0203001N004110030019N0019001N1-00801-01001999999ADDGA1021+001509999GA2071+003009999GF107991999999999999999999MA1100811999999MW1851REMMET084RJEB 240611Z 30008KT 1900 -SHSN FEW005 BKN010 M08/M10 Q1008 RMK 2ST005 7ST010 A2979;EQDQ01+000003PRSWM1Q02    003PRSWM1
0255474740999992000012406214+44250+143530FM-16+0009RJEB V0202901N003110030019N0010001N1-00801-01001999999ADDGA1021+001509999GA2021+002409999GA3071+003009999GF107991999999999999999999MA1100811999999MW1851REMMET113RJEB 240621Z 29006KT 1000 R32/1300V1700D -SHSN FEW005 SCT008 BKN010 M08/M10 Q1008 RMK 2ST005 4ST008 7ST010 A2979;EQDQ01+000003PRSWM1Q02    003PRSWM1
0262474740999992000012406434+44250+143530FM-16+0009RJEB V0202801N003610024019N0013001N1-00801-01001999999ADDED199U18009GA1021+001509999GA2071+002409999GA3071+003009999GF107991999999999999999999MA1100811999999MW1851REMMET109RJEB 240643Z 28007KT 1300 R32/P1800N -SHSN FEW005 BKN008 BKN010 M08/M10 Q1008 RMK 1ST005 5ST008 7ST010 A2978;EQDQ01+000003PRSWM1Q02    003PRSWM1
0190474740999992000012407004+44250+143530FM-15+0009RJEB V0202701N00411000151CN0008001N1-00801-01001999999ADDED199U11009GA1091+000159999GF109991999999000251999999MA1100811999999MW1861REMMET069RJEB 0700Z 27008KT 0800 R32/1100U SHSN VV004 M08/M10 Q1008 RMK A2978;EQDQ01+000003PRSWM1Q02    003PRSWM1
0186474740999992000012407144+44250+143530FM-16+0009RJEB V0202701N00511000151CN0007001N1-00801-01001999999ADDGA1091+000159999GF109991999999000251999999MA1100811999999MW1861REMMET076RJEB 240714Z 27010KT 0700 R32/0900V1400D SHSN VV004 M08/M10 Q1008 RMK A2978;EQDQ01+000003PRSWM1Q02    003PRSWM1
0186474740999992000012407444+44250+143530FM-16+0009RJEB V0202501N00511000151CN0008001N1-00801-01001999999ADDGA1091+000159999GF109991999999000251999999MA1100811999999MW1861REMMET076RJEB 240744Z 25010KT 0800 R32/1100V1500U SHSN VV004 M08/M10 Q1008 RMK A2978;EQDQ01+000003PRSWM1Q02    003PRSWM1
0179474740999992000012500004+44250+143530FM-15+0009RJEB V0202301N003119999999N0112651N1-01401-01601999999ADDGA1021+006009999GA2071+999999999GF107991999999999999999999MA1101391999999MW1001REMMET069RJEB 0000Z 23006KT 9999 FEW020 BKN/// M14/M16 Q1014 RMK 1CU020 A2996;EQDQ01+000000PRSWM2
0179474740999992000012501004+44250+143530FM-15+0009RJEB V0202301N002619999999N0112651N1-01301-01501999999ADDGA1021+006009999GA2071+999999999GF107991999999999999999999MA1101391999999MW1001REMMET069RJEB 0100Z 23005KT 9999 FEW020 BKN/// M13/M15 Q1014 RMK 1CU020 A2995;EQDQ01+000000PRSWM2
0179474740999992000012502004+44250+143530FM-15+0009RJEB V02099999999999999999N0112651N1-01201-01201999999ADDGA1021+006009999GA2071+999999999GF107991999999999999999999MA1101291999999MW1001REMMET069RJEB 0200Z VRB02KT 9999 FEW020 BKN/// M12/M12 Q1013 RMK 1CU020 A2992;EQDQ01+000000PRSWM2
0179474740999992000012503004+44250+143530FM-15+0009RJEB V02099999999999999999N0112651N1-01201-01201999999ADDGA1021+003009999GA2071+999999999GF107991999999999999999999MA1101191999999MW1001REMMET069RJEB 0300Z VRB02KT 9999 FEW010 BKN/// M12/M12 Q1012 RMK 1ST010 A2990;EQDQ01+000000PRSWM2
0248474740999992000012504004+44250+143530FM-15+0009RJEB V0200901N002110270019N0112651N1-01201-01401999999ADDGA1021+001209999GA2021+007509999GA3071+027009999GF107991999999999999999999MA1101081999999MW1851REMMET106RJEB 0400Z 09004KT 9999 -SHSN FEW004 SCT025 BKN090 M12/M14 Q1011 RMK 1ST004 3CU025 7AC090 A2988 3000SW-NW;EQDQ01+000003PRSWM1Q02    003PRSWM1
0240474740999992000012504254+44250+143530FM-15+0009RJEB V02099999999990075019N0042001N1-01201-01301999999ADDGA1021+001209999GA2021+003609999GA3071+007509999GF107991999999999999999999MA1101191999999MW1851REMMET098RJEB 250425Z VRB02KT 4200 -SHSN FEW004 SCT012 BKN025 M12/M13 Q1012 RMK 1ST004 3ST012 7CU025 A2989;EQDQ01+000003PRSWM1Q02    003PRSWM1
0240474740999992000012504414+44250+143530FM-16+0009RJEB V0201001N001010075019N0050001N1-01201-01301999999ADDGA1021+001209999GA2021+003609999GA3071+007509999GF107991999999999999999999MA1101081999999MW1851REMMET098RJEB 250441Z 10002KT 5000 -SHSN FEW004 SCT012 BKN025 M12/M13 Q1011 RMK 1ST004 3ST012 6CU025 A2988;EQDQ01+000003PRSWM1Q02    003PRSWM1
0179474740999992000012505004+44250+143530FM-15+0009RJEB V0201401N001019999999N0112651N1-01301-01301999999ADDGA1021+002409999GA2071+999999999GF107991999999999999999999MA1101081999999MW1001REMMET069RJEB 0500Z 14002KT 9999 FEW008 BKN/// M13/M13 Q1011 RMK 1ST008 A2988;EQDQ01+000000PRSWM2
0238474740999992000012506004+44250+143530FM-15+0009RJEB V0209999C000010210019N0112651N1-01201-01301999999ADDGA1021+003009999GA2021+004509999GA3071+021009999GF107991999999999999999999MA1101191999999MW1851REMMET096RJEB 0600Z 00000KT 9999 -SHSN FEW010 SCT015 BKN070 M12/M13 Q1012 RMK 1ST010 3ST015 7AC070 A2989;EQDQ01+000003PRSWM1Q02    003PRSWM1
0186474740999992000012507004+44250+143530FM-15+0009RJEB V0203101N003610120019N0112651N1-01301-01601999999ADDGA1021+004509999GA2071+012009999GF107991999999999999999999MA1101191999999MW1001REMMET076RJEB 0700Z 31007KT 9999 FEW015 BKN040 M13/M16 Q1012 RMK 1ST015 6CU040 A2991;EQDQ01+000000PRSWM2
0156474740999992000012600004+44250+143530FM-15+0009RJEB V0202401N003112200019N0112651N1-01701-02001999999ADDGA1021+006009999GF102991999999999999999999MA1101801999999MW1001REMMET062RJEB 0000Z 24006KT 9999 FEW020 M17/M20 Q1018 RMK 1CU020 A3007;EQDQ01+000000PRSWM2
0156474740999992000012601004+44250+143530FM-15+0009RJEB V0202601N003112200019N0112651N1-01501-01901999999ADDGA1021+006009999GF102991999999999999999999MA1101801999999MW1001REMMET062RJEB 0100Z 26006KT 9999 FEW020 M15/M19 Q1018 RMK 1CU020 A3008;EQDQ01+000000PRSWM2
0156474740999992000012602004+44250+143530FM-15+0009RJEB V0203101N002612200019N0112651N1-01501-01901999999ADDGA1021+006009999GF102991999999999999999999MA1101801999999MW1001REMMET062RJEB 0200Z 31005KT 9999 FEW020 M15/M19 Q1018 RMK 1CU020 A3007;EQDQ01+000000PRSWM2
0156474740999992000012603004+44250+143530FM-15+0009RJEB V0203001N002112200019N0112651N1-01401-01801999999ADDGA1021+007509999GF102991999999999999999999MA1101691999999MW1001REMMET062RJEB 0300Z 30004KT 9999 FEW025 M14/M18 Q1017 RMK 1CU025 A3006;EQDQ01+000000PRSWM2
0156474740999992000012604004+44250+143530FM-15+0009RJEB V0203201N001512200019N0112651N1-01301-01801999999ADDGA1021+007509999GF102991999999999999999999MA1101691999999MW1001REMMET062RJEB 0400Z 32003KT 9999 FEW025 M13/M18 Q1017 RMK 1CU025 A3005;EQDQ01+000000PRSWM2
0156474740999992000012605004+44250+143530FM-15+0009RJEB V0203501N002112200019N0112651N1-01301-01901999999ADDGA1021+007509999GF102991999999999999999999MA1101691999999MW1001REMMET062RJEB 0500Z 35004KT 9999 FEW025 M13/M19 Q1017 RMK 1CU025 A3004;EQDQ01+000000PRSWM2
0156474740999992000012606004+44250+143530FM-15+0009RJEB V02099999999992200019N0112651N1-01401-01801999999ADDGA1021+007509999GF102991999999999999999999MA1101691999999MW1001REMMET062RJEB 0600Z VRB03KT 9999 FEW025 M14/M18 Q1017 RMK 1CU025 A3006;EQDQ01+000000PRSWM2
0156474740999992000012607004+44250+143530FM-15+0009RJEB V0202501N001012200019N0112651N1-01601-02101999999ADDGA1021+007509999GF102991999999999999999999MA1101801999999MW1001REMMET062RJEB 0700Z 25002KT 9999 FEW025 M16/M21 Q1018 RMK 1CU025 A3008;EQDQ01+000000PRSWM2
0156474740999992000012700004+44250+143530FM-15+0009RJEB V0202301N006212200019N0112651N1-01101-01701999999ADDGA1021+015009999GF102991999999999999999999MA1101901999999MW1001REMMET062RJEB 0000Z 23012KT 9999 FEW050 M11/M17 Q1019 RMK 1SC050 A3010;EQDQ01+000000PRSWM2
0156474740999992000012701004+44250+143530FM-15+0009RJEB V0202401N006212200019N0112651N1-00801-01501999999ADDGA1021+006009999GF102991999999999999999999MA1101901999999MW1001REMMET062RJEB 0100Z 24012KT 9999 FEW020 M08/M15 Q1019 RMK 1CU020 A3009;EQDQ01+000000PRSWM2
0156474740999992000012702004+44250+143530FM-15+0009RJEB V0202501N004112200019N0112651N1-00701-01401999999ADDGA1021+009009999GF102991999999999999999999MA1101801999999MW1001REMMET062RJEB 0200Z 25008KT 9999 FEW030 M07/M14 Q1018 RMK 1CU030 A3008;EQDQ01+000000PRSWM2
0156474740999992000012703004+44250+143530FM-15+0009RJEB V0202901N003612200019N0112651N1-00701-01401999999ADDGA1021+009009999GF102991999999999999999999MA1101691999999MW1001REMMET062RJEB 0300Z 29007KT 9999 FEW030 M07/M14 Q1017 RMK 1CU030 A3005;EQDQ01+000000PRSWM2
0156474740999992000012704004+44250+143530FM-15+0009RJEB V0203101N004112200019N0112651N1-00601-01301999999ADDGA1021+009009999GF102991999999999999999999MA1101591999999MW1001REMMET062RJEB 0400Z 31008KT 9999 FEW030 M06/M13 Q1016 RMK 1CU030 A3003;EQDQ01+000000PRSWM2
0147474740999992000012705004+44250+143530FM-15+0009RJEB V0202701N002112200019N0112651N1-00501-01301999999ADDGA1021+009009999GF102991999999999999999999MA1101591999999MW1001REMMET053RJEB 0500Z 27004KT 200V320 9999 FEW030 M05/M13 Q1016;EQDQ01+000000PRSWM2
0156474740999992000012706004+44250+143530FM-15+0009RJEB V0202501N004112200019N0112651N1-00501-01401999999ADDGA1021+009009999GF102991999999999999999999MA1101691999999MW1001REMMET062RJEB 0600Z 25008KT 9999 FEW030 M05/M14 Q1017 RMK 1CU030 A3003;EQDQ01+000000PRSWM2
0156474740999992000012707004+44250+143530FM-15+0009RJEB V0202401N004612200019N0112651N1-00601-01401999999ADDGA1021+007509999GF102991999999999999999999MA1101691999999MW1001REMMET062RJEB 0700Z 24009KT 9999 FEW025 M06/M14 Q1017 RMK 1CU025 A3004;EQDQ01+000000PRSWM2
0208474740999992000012800004+44250+143530FM-15+0009RJEB V0202601N005112200019N0112651N1-00401-00901999999ADDGA1021+006009999GA2021+009009999GF104991999999999999999999MA1102001999999MW1851REMMET082RJEB 0000Z 26010KT 9999 -SHSN FEW020 SCT030 M04/M09 Q1020 RMK 1ST020 3CU030 A3013;EQDQ01+000003PRSWM1Q02    003PRSWM1
0156474740999992000012801004+44250+143530FM-15+0009RJEB V0202601N004112200019N0112651N1-00301-00901999999ADDGA1021+009009999GF102991999999999999999999MA1102101999999MW1001REMMET062RJEB 0100Z 26008KT 9999 FEW030 M03/M09 Q1021 RMK 1CU030 A3016;EQDQ01+000000PRSWM2
0221474740999992000012802004+44250+143530FM-15+0009RJEB V0203201N006710090019N0112651N1-00301-00801999999ADDGA1021+003009999GA2021+004509999GA3071+009009999GF107991999999999999999999MA1102101999999MW1001REMMET095RJEB 0200Z 32013KT 9999 VCSN FEW010 SCT015 BKN030 M03/M08 Q1021 RMK 1ST010 4ST015 6CU030 A3015;EQDQ01+000000PRSWM2
0186474740999992000012803004+44250+143530FM-15+0009RJEB V0203201N007712200019N0112651N1-00301-00701999999ADDGA1021+004509999GA2021+007509999GF104991999999999999999999MA1102101999999MW1001REMMET076RJEB 0300Z 32015KT 9999 FEW015 SCT025 M03/M07 Q1021 RMK 1ST015 3CU025 A3015;EQDQ01+000000PRSWM2
0186474740999992000012804004+44250+143530FM-15+0009RJEB V0203201N008210060019N0112651N1-00401-00701999999ADDGA1021+002409999GA2071+006009999GF107991999999999999999999MA1102101999999MW1001REMMET076RJEB 0400Z 32016KT 9999 FEW008 BKN020 M04/M07 Q1021 RMK 2ST008 5CU020 A3017;EQDQ01+000000PRSWM2
0186474740999992000012805004+44250+143530FM-15+0009RJEB V0203201N007712200019N0112651N1-00601-00901999999ADDGA1021+003909999GA2021+006009999GF104991999999999999999999MA1102201999999MW1001REMMET076RJEB 0500Z 32015KT 9999 FEW013 SCT020 M06/M09 Q1022 RMK 1ST013 3CU020 A3020;EQDQ01+000000PRSWM2
0156474740999992000012806004+44250+143530FM-15+0009RJEB V0203201N006212200019N0112651N1-00601-00901999999ADDGA1021+009009999GF102991999999999999999999MA1102301999999MW1001REMMET062RJEB 0600Z 32012KT 9999 FEW030 M06/M09 Q1023 RMK 1CU030 A3023;EQDQ01+000000PRSWM2
0156474740999992000012807004+44250+143530FM-15+0009RJEB V0203101N004112200019N0112651N1-00701-01101999999ADDGA1021+009009999GF102991999999999999999999MA1102401999999MW1001REMMET062RJEB 0700Z 31008KT 9999 FEW030 M07/M11 Q1024 RMK 1CU030 A3025;EQDQ01+000000PRSWM2
0186474740999992000012900004+44250+143530FM-15+0009RJEB V02099999999992200019N0112651N1-00501-00901999999ADDGA1021+006009999GA2021+015009999GF104991999999999999999999MA1102711999999MW1001REMMET076RJEB 0000Z VRB01KT 9999 FEW020 SCT050 M05/M09 Q1027 RMK 1ST020 3SC050 A3035;EQDQ01+000000PRSWM2
0186474740999992000012901004+44250+143530FM-15+0009RJEB V0201101N001012200019N0112651N1-00501-00801999999ADDGA1021+009009999GA2021+021009999GF104991999999999999999999MA1102711999999MW1001REMMET076RJEB 0100Z 11002KT 9999 FEW030 SCT070 M05/M08 Q1027 RMK 1CU030 4AC070 A3034;EQDQ01+000000PRSWM2
0186474740999992000012902004+44250+143530FM-15+0009RJEB V0201501N002110120019N0112651N1-00201-00701999999ADDGA1021+009009999GA2071+012009999GF107991999999999999999999MA1102611999999MW1001REMMET076RJEB 0200Z 15004KT 9999 FEW030 BKN040 M02/M07 Q1026 RMK 1CU030 5SC040 A3030;EQDQ01+000000PRSWM2
0194474740999992000012903004+44250+143530FM-15+0009RJEB V0200601N002110105019N0112651N1-00201-00601999999ADDGA1021+006009999GA2071+010509999GF107991999999999999999999MA1102511999999MW1001REMMET084RJEB 0300Z 06004KT 010V140 9999 FEW020 BKN035 M02/M06 Q1025 RMK 1ST020 5CU035 A3029;EQDQ01+000000PRSWM2
0194474740999992000012904004+44250+143530FM-15+0009RJEB V0200101N002110120019N0112651N1-00201-00501999999ADDGA1021+007509999GA2071+012009999GF107991999999999999999999MA1102511999999MW1001REMMET084RJEB 0400Z 01004KT 310V040 9999 FEW025 BKN040 M02/M05 Q1025 RMK 1CU025 7CU040 A3028;EQDQ01+000000PRSWM2
0185474740999992000012905004+44250+143530FM-15+0009RJEB V0202501N005710120019N0112651N1+00201-00601999999ADDGA1021+007509999GA2071+012009999GF107991999999999999999999MA1102401999999MW1001REMMET075RJEB 0500Z 25011KT 9999 FEW025 BKN040 02/M06 Q1024 RMK 1CU025 7CU040 A3027;EQDQ01+000000PRSWM2
0216474740999992000012906004+44250+143530FM-15+0009RJEB V02099999999990120019N0112651N1-00201-00601999999ADDGA1021+003009999GA2021+006009999GA3071+012009999GF107991999999999999999999MA1102511999999MW1001REMMET090RJEB 0600Z VRB02KT 9999 FEW010 SCT020 BKN040 M02/M06 Q1025 RMK 1ST010 3ST020 7CU040 A3028;EQDQ01+000000PRSWM2
