0186476780999992000010100004+33100+139780FM-12+008099999V0200501N003119999999N0200001N1+01361+00691101951ADDAA106000091GF106991061021999999001001KA1999N+00981MA1999999100991MD1210081+9999REMSYN076AAXX  01004 47678 32/70 60506 10136 20069 30099 40195 52008 86200 333 20098;EQDQ01  00002PRCP06
0101476780999992000010101004+33100+139780FM-12+008099999V0200501N004619999999N9999999N1+01471+00601101951ADDMA1999999100991MD1210041+9999REMSYN060AAXX  01014 47678 46/// /0509 10147 20060 30099 40195 52004;
0101476780999992000010102004+33100+139780FM-12+008099999V0200501N005119999999N9999999N1+01521+00511101891ADDMA1999999100931MD1810021+9999REMSYN060AAXX  01024 47678 46/// /0510 10152 20051 30093 40189 58002;
0133476780999992000010103004+33100+139780FM-12+008099999V0200501N005712200019N0200001N1+01501+00501101811ADDGF102991021021999999001001MA1999999100851MD1810141+9999REMSYN066AAXX  01034 47678 42/70 20511 10150 20050 30085 40181 58014 82200;
0101476780999992000010104004+33100+139780FM-12+008099999V0200501N004619999999N9999999N1+01441+00521101781ADDMA1999999100821MD1610171+9999REMSYN060AAXX  01044 47678 46/// /0509 10144 20052 30082 40178 56017;
0101476780999992000010105004+33100+139780FM-12+008099999V0200501N004119999999N9999999N1+01361+00531101781ADDMA1999999100821MD1610111+9999REMSYN060AAXX  01054 47678 46/// /0508 10136 20053 30082 40178 56011;
0143476780999992000010106004+33100+139780FM-12+008099999V0200501N003119999999N0200001N1+01391+00481101821ADDGF106991061021999999031001MA1999999100861MD1310011+9999REMSYN076AAXX  01064 47678 42/70 60506 10139 20048 30086 40182 53001 86230 555 00154;
0101476780999992000010107004+33100+139780FM-12+008099999V0200501N002119999999N9999999N1+01311+00651101851ADDMA1999999100881MD1310061+9999REMSYN060AAXX  01074 47678 46/// /0504 10131 20065 30088 40185 53006;
0101476780999992000010108004+33100+139780FM-12+008099999V0200601N002619999999N9999999N1+01191+00621101891ADDMA1999999100921MD1210101+9999REMSYN060AAXX  01084 47678 46/// /0605 10119 20062 30092 40189 52010;
0133476780999992000010109004+33100+139780FM-12+008099999V0200701N002619999999N0200001N1+01131+00621101921ADDGF106991031021999999001021MA1999999100951MD1310091+9999REMSYN066AAXX  01094 47678 42/70 60705 10113 20062 30095 40192 53009 83202;
0101476780999992000010110004+33100+139780FM-12+008099999V0200701N002119999999N9999999N1+01041+00601101951ADDMA1999999100971MD1110091+9999REMSYN060AAXX  01104 47678 46/// /0704 10104 20060 30097 40195 51009;
0100476780999992000010111004+33100+139780FM-12+008099999V0200801N003119999999N9999999N1+00981+00541101951ADDMA1999999100971MD1110051+9999REMSYN059AAXX  01114 4767846/// /0806 10098 20054 30097 40195 51005;
0186476780999992000010112004+33100+139780FM-12+008099999V0200801N003119999999N0200001N1+01021+00501101951ADDAA106000091GF106991021021999999001021KA1999M+01541MA1999999100971MD1110021+9999REMSYN076AAXX  01124 47678 32/70 60806 10102 20050 30097 40195 51002 82202 333 10154;EQDQ01  00002PRCP06
0101476780999992000010113004+33100+139780FM-12+008099999V0200701N004119999999N9999999N1+00991+00451101941ADDMA1999999100961MD1810011+9999REMSYN060AAXX  01134 47678 46/// /0708 10099 20045 30096 40194 58001;
0101476780999992000010114004+33100+139780FM-12+008099999V0200701N004119999999N9999999N1+01071+00551101941ADDMA1999999100961MD1710011+9999REMSYN060AAXX  01144 47678 46/// /0708 10107 20055 30096 40194 57001;
0101476780999992000010115004+33100+139780FM-12+008099999V0200701N004119999999N9999999N1+01071+00501101891ADDMA1999999100921MD1810051+9999REMSYN060AAXX  01154 47678 46/// /0708 10107 20050 30092 40189 58005;
0101476780999992000010116004+33100+139780FM-12+008099999V0200801N003619999999N9999999N1+01031+00401101881ADDMA1999999100901MD1810061+9999REMSYN060AAXX  01164 47678 46/// /0807 10103 20040 30090 40188 58006;
0101476780999992000010117004+33100+139780FM-12+008099999V0200801N002619999999N9999999N1+01051+00401101911ADDMA1999999100931MD1510031+9999REMSYN060AAXX  01174 47678 46/// /0805 10105 20040 30093 40191 55003;
0133476780999992000010118004+33100+139780FM-12+008099999V0200801N003112200019N0200001N1+00981+00461101861ADDGF103991021021999999001021MA1999999100881MD1810041+9999REMSYN066AAXX  01184 47678 42/70 30806 10098 20046 30088 40186 58004 82202;
0101476780999992000010119004+33100+139780FM-12+008099999V0200701N003119999999N9999999N1+00911+00511101811ADDMA1999999100831MD1810071+9999REMSYN060AAXX  01194 47678 46/// /0706 10091 20051 30083 40181 58007;
0101476780999992000010120004+33100+139780FM-12+008099999V0200601N003619999999N9999999N1+00941+00541101811ADDMA1999999100831MD1610101+9999REMSYN060AAXX  01204 47678 46/// /0607 10094 20054 30083 40181 56010;
0133476780999992000010121004+33100+139780FM-12+008099999V0200501N003619999999N0300001N1+00971+00531101861ADDGF105991051001999999031001MA1999999100881MD1510001+9999REMSYN066AAXX  01214 47678 42/80 50507 10097 20053 30088 40186 55000 85030;
0101476780999992000010122004+33100+139780FM-12+008099999V0200801N003119999999N9999999N1+00931+00551101891ADDMA1999999100911MD1310081+9999REMSYN060AAXX  01224 47678 46/// /0806 10093 20055 30091 40189 53008;
0101476780999992000010123004+33100+139780FM-12+008099999V0200701N003619999999N9999999N1+01121+00631101871ADDMA1999999100901MD1010071+9999REMSYN060AAXX  01234 47678 46/// /0707 10112 20063 30090 40187 50007;
0186476780999992000010200004+33100+139780FM-12+008099999V0200601N003619999999N0300001N1+01441+00701101891ADDAA106000091GF107991031021999999001021KA1999N+00891MA1999999100931MD1210051+9999REMSYN076AAXX  02004 47678 32/80 70607 10144 20070 30093 40189 52005 83202 333 20089;EQDQ01  00002PRCP06
0101476780999992000010202004+33100+139780FM-12+008099999V0200601N004619999999N9999999N1+01481+00561101791ADDMA1999999100831MD1810071+9999REMSYN060AAXX  02024 47678 46/// /0609 10148 20056 30083 40179 58007;
0133476780999992000010203004+33100+139780FM-12+008099999V0200601N005119999999N0300001N1+01541+00641101631ADDGF107991011001999999031021MA1999999100671MD1810261+9999REMSYN066AAXX  02034 47678 42980 70610 10154 20064 30067 40163 58026 81032;
0101476780999992000010204004+33100+139780FM-12+008099999V0200601N005119999999N9999999N1+01411+00601101561ADDMA1999999100601MD1610311+9999REMSYN060AAXX  02044 47678 46/// /0610 10141 20060 30060 40156 56031;
0101476780999992000010205004+33100+139780FM-12+008099999V0200801N003619999999N9999999N1+01331+00751101561ADDMA1999999100601MD1610231+9999REMSYN060AAXX  02054 47678 46/// /0807 10133 20075 30060 40156 56023;
0171476780999992000010206004+33100+139780FM-12+008099999V0200701N003119999999N0250001N1+01291+00861101591ADDAY121061AY221061GF107991071021999999999999MA1999999100631MD1510041+9999MW1251REMSYN082AAXX  02064 47678 41/75 70706 10129 20086 30063 40159 55004 72522 872// 555 00155;
0101476780999992000010207004+33100+139780FM-12+008099999V0200701N003619999999N9999999N1+01271+00951101591ADDMA1999999100631MD1210031+9999REMSYN060AAXX  02074 47678 46/// /0707 10127 20095 30063 40159 52003;
0101476780999992000010208004+33100+139780FM-12+008099999V0200701N003619999999N9999999N1+01201+00941101571ADDMA1999999100601MD1010001+9999REMSYN060AAXX  02084 47678 46/// /0707 10120 20094 30060 40157 50000;
0161476780999992000010209004+33100+139780FM-12+008099999V0200601N003119999999N0200001N1+01261+00981101611ADDAY181031AY221031GF107991021021999999071999MA1999999100641MD1310011+9999MW1021REMSYN072AAXX  02094 47678 41/70 70606 10126 20098 30064 40161 53001 70282 8227/;
0101476780999992000010210004+33100+139780FM-12+008099999V0200501N002619999999N9999999N1+01201+00971101621ADDMA1999999100651MD1310021+9999REMSYN060AAXX  02104 47678 46/// /0505 10120 20097 30065 40162 53002;
0101476780999992000010211004+33100+139780FM-12+008099999V0200901N002119999999N9999999N1+01261+01031101591ADDMA1999999100631MD1010031+9999REMSYN060AAXX  02114 47678 46/// /0904 10126 20103 30063 40159 50003;
0201476780999992000010212004+33100+139780FM-12+008099999V0201401N003612200019N0200001N1+01301+01021101531ADDAA112000791AY181061AY221061GF103991021021999999031021KA1999M+01551MA1999999100571MD1810071+9999MW1251REMSYN088AAXX  02124 47678 11/70 31407 10130 20102 30057 40153 58007 69902 72582 82232 333 10155;
0101476780999992000010213004+33100+139780FM-12+008099999V0202101N001019999999N9999999N1+01281+00941101511ADDMA1999999100551MD1710101+9999REMSYN060AAXX  02134 47678 46/// /2102 10128 20094 30055 40151 57010;
0101476780999992000010214004+33100+139780FM-12+008099999V0200501N002119999999N9999999N1+01101+00911101491ADDMA1999999100521MD1610111+9999REMSYN060AAXX  02144 47678 46/// /0504 10110 20091 30052 40149 56011;
0101476780999992000010215004+33100+139780FM-12+008099999V0200901N002119999999N9999999N1+01171+00941101421ADDMA1999999100451MD1810121+9999REMSYN060AAXX  02154 47678 46/// /0904 10117 20094 30045 40142 58012;
0101476780999992000010216004+33100+139780FM-12+008099999V0202101N001519999999N9999999N1+01321+01041101361ADDMA1999999100401MD1810151+9999REMSYN060AAXX  02164 47678 46/// /2103 10132 20104 30040 40136 58015;
0101476780999992000010217004+33100+139780FM-12+008099999V0201601N000519999999N9999999N1+01171+00871101361ADDMA1999999100391MD1610131+9999REMSYN060AAXX  02174 47678 46/// /1601 10117 20087 30039 40136 56013;
0161476780999992000010218004+33100+139780FM-12+008099999V0201601N001512200019N0200001N1+01121+00811101331ADDAY101061AY201061GF102991021031999999001001MA1999999100361MD1610091+9999MW1131REMSYN072AAXX  02184 47678 41/70 21603 10112 20081 30036 40133 56009 71300 82300;
0101476780999992000010219004+33100+139780FM-12+008099999V0202001N001519999999N9999999N1+01181+00861101311ADDMA1999999100341MD1810061+9999REMSYN060AAXX  02194 47678 46/// /2003 10118 20086 30034 40131 58006;
0101476780999992000010220004+33100+139780FM-12+008099999V0201401N001519999999N9999999N1+01121+00911101301ADDMA1999999100331MD1610061+9999REMSYN060AAXX  02204 47678 46/// /1403 10112 20091 30033 40130 56006;
0133476780999992000010221004+33100+139780FM-12+008099999V0202401N002112200019N0300001N1+01231+00971101331ADDGF101991011011999999001001MA1999999100371MD1310011+9999REMSYN066AAXX  02214 47678 42/80 12404 10123 20097 30037 40133 53001 81100;
0101476780999992000010222004+33100+139780FM-12+008099999V0202501N001519999999N9999999N1+01261+00981101361ADDMA1999999100401MD1310061+9999REMSYN060AAXX  02224 47678 46/// /2503 10126 20098 30040 40136 53006;
0101476780999992000010223004+33100+139780FM-12+008099999V0202001N001519999999N9999999N1+01251+00991101371ADDMA1999999100411MD1110081+9999REMSYN060AAXX  02234 47678 46/// /2003 10125 20099 30041 40137 51008;
0186476780999992000010300004+33100+139780FM-12+008099999V0202301N003112200019N0300001N1+01491+01031101381ADDAA106000091GF101991011011999999001001KA1999N+01031MA1999999100431MD1110061+9999REMSYN076AAXX  03004 47678 32/80 12306 10149 20103 30043 40138 51006 81100 333 20103;EQDQ01  00002PRCP06
0101476780999992000010301004+33100+139780FM-12+008099999V0202501N003619999999N9999999N1+01591+00861101361ADDMA1999999100411MD1010011+9999REMSYN060AAXX  03014 47678 46/// /2507 10159 20086 30041 40136 50001;
0101476780999992000010302004+33100+139780FM-12+008099999V0202701N003619999999N9999999N1+01661+00911101271ADDMA1999999100321MD1810091+9999REMSYN060AAXX  03024 47678 46/// /2707 10166 20091 30032 40127 58009;
0133476780999992000010303004+33100+139780FM-12+008099999V0202601N005112200019N0300001N1+01711+01001101161ADDGF101991011081999999001001MA1999999100221MD1810211+9999REMSYN066AAXX  03034 47678 42/80 12610 10171 20100 30022 40116 58021 81800;
0101476780999992000010304004+33100+139780FM-12+008099999V0202501N005119999999N9999999N1+01721+00991101061ADDMA1999999100121MD1810291+9999REMSYN060AAXX  03044 47678 46/// /2510 10172 20099 30012 40106 58029;
0101476780999992000010305004+33100+139780FM-12+008099999V0202601N005119999999N9999999N1+01721+01031101051ADDMA1999999100111MD1610211+9999REMSYN060AAXX  03054 47678 46/// /2610 10172 20103 30011 40105 56021;
0143476780999992000010306004+33100+139780FM-12+008099999V0202501N005712200019N0300001N1+01701+01061101041ADDGF102991021081999999001001MA1999999100101MD1610121+9999REMSYN076AAXX  03064 47678 42/80 22511 10170 20106 30010 40104 56012 82800 555 00176;
0101476780999992000010307004+33100+139780FM-12+008099999V0202701N009319999999N9999999N1+01641+01111101101ADDMA1999999100151MD1310031+9999REMSYN060AAXX  03074 47678 46/// /2718 10164 20111 30015 40110 53003;
0101476780999992000010308004+33100+139780FM-12+008099999V0202701N010819999999N9999999N1+01601+00991101111ADDMA1999999100161MD1310051+9999REMSYN060AAXX  03084 47678 46/// /2721 10160 20099 30016 40111 53005;
0133476780999992000010309004+33100+139780FM-12+008099999V0202801N007712200019N0200001N1+01441+01081101211ADDGF102991021021008001001001MA1999999100261MD1310161+9999REMSYN066AAXX  03094 47678 42570 22815 10144 20108 30026 40121 53016 82200;
0101476780999992000010310004+33100+139780FM-12+008099999V0202801N005719999999N9999999N1+01381+00931101311ADDMA1999999100351MD1310201+9999REMSYN060AAXX  03104 47678 46/// /2811 10138 20093 30035 40131 53020;
0101476780999992000010311004+33100+139780FM-12+008099999V0202801N003119999999N9999999N1+01291+00801101391ADDMA1999999100431MD1110271+9999REMSYN060AAXX  03114 47678 46/// /2806 10129 20080 30043 40139 51027;
0196476780999992000010312004+33100+139780FM-12+008099999V0202801N006712200019N0200001N1+01291+00691101411ADDAA106000091GA1001+999999999GF100991001001999999001001KA1999M+01761MA1999999100451MD1110191+9999REMSYN070AAXX  03124 47678 32970 02813 10129 20069 30045 40141 51019 333 10176;EQDQ01  00002PRCP06
0101476780999992000010313004+33100+139780FM-12+008099999V0202801N005719999999N9999999N1+01271+00611101431ADDMA1999999100471MD1110121+9999REMSYN060AAXX  03134 47678 46/// /2811 10127 20061 30047 40143 51012;
0101476780999992000010314004+33100+139780FM-12+008099999V0202801N005719999999N9999999N1+01241+00601101431ADDMA1999999100471MD1110041+9999REMSYN060AAXX  03144 47678 46/// /2811 10124 20060 30047 40143 51004;
0101476780999992000010315004+33100+139780FM-12+008099999V0202801N007719999999N9999999N1+01201+00611101461ADDMA1999999100491MD1210041+9999REMSYN060AAXX  03154 47678 46/// /2815 10120 20061 30049 40146 52004;
0101476780999992000010316004+33100+139780FM-12+008099999V0202801N007219999999N9999999N1+01141+00591101441ADDMA1999999100471MD1010001+9999REMSYN060AAXX  03164 47678 46/// /2814 10114 20059 30047 40144 50000;
0101476780999992000010317004+33100+139780FM-12+008099999V0202801N008719999999N9999999N1+01151+00581101441ADDMA1999999100471MD1010001+9999REMSYN060AAXX  03174 47678 46/// /2817 10115 20058 30047 40144 50000;
0143476780999992000010318004+33100+139780FM-12+008099999V0202801N008712200019N0200001N1+01121+00511101491ADDGA1001+999999999GF100991001001999999001001MA1999999100521MD1310031+9999REMSYN060AAXX  03184 47678 42970 02817 10112 20051 30052 40149 53003;
0101476780999992000010319004+33100+139780FM-12+008099999V0202801N008219999999N9999999N1+01141+00481101481ADDMA1999999100511MD1010041+9999REMSYN060AAXX  03194 47678 46/// /2816 10114 20048 30051 40148 50004;
0101476780999992000010320004+33100+139780FM-12+008099999V0202701N008219999999N9999999N1+01141+00531101521ADDMA1999999100551MD1110081+9999REMSYN060AAXX  03204 47678 46/// /2716 10114 20053 30055 40152 51008;
0143476780999992000010321004+33100+139780FM-12+008099999V0202801N008712200019N0200001N1+01131+00431101601ADDGA1001+999999999GF100991001001999999001001MA1999999100631MD1310111+9999REMSYN060AAXX  03214 47678 42970 02817 10113 20043 30063 40160 53011;
0101476780999992000010322004+33100+139780FM-12+008099999V0202801N007219999999N9999999N1+01121+00471101671ADDMA1999999100701MD1310191+9999REMSYN060AAXX  03224 47678 46/// /2814 10112 20047 30070 40167 53019;
0101476780999992000010323004+33100+139780FM-12+008099999V0202801N009319999999N9999999N1+01161+00551101741ADDMA1999999100771MD1110221+9999REMSYN060AAXX  03234 47678 46/// /2818 10116 20055 30077 40174 51022;
0186476780999992000010400004+33100+139780FM-12+008099999V0202901N008712200019N0300001N1+01291+00581101761ADDAA106000091GF101991011011999999001001KA1999N+01111MA1999999100791MD1110161+9999REMSYN076AAXX  04004 47678 32/80 12917 10129 20058 30079 40176 51016 81100 333 20111;EQDQ01  00002PRCP06
0101476780999992000010401004+33100+139780FM-12+008099999V0202901N009819999999N9999999N1+01361+00621101801ADDMA1999999100841MD1110141+9999REMSYN060AAXX  04014 47678 46/// /2919 10136 20062 30084 40180 51014;
0101476780999992000010402004+33100+139780FM-12+008099999V0202901N008219999999N9999999N1+01371+00631101771ADDMA1999999100811MD1010041+9999REMSYN060AAXX  04024 47678 46/// /2916 10137 20063 30081 40177 50004;
0133476780999992000010403004+33100+139780FM-12+008099999V0202801N008712200019N0300001N1+01431+00621101711ADDGF101991011011999999001001MA1999999100751MD1810041+9999REMSYN066AAXX  04034 47678 42/80 12817 10143 20062 30075 40171 58004 81100;
0101476780999992000010405004+33100+139780FM-12+008099999V0202801N008219999999N9999999N1+01411+00651101691ADDMA1999999100731MD1510081+9999REMSYN060AAXX  04054 47678 46/// /2816 10141 20065 30073 40169 55008;
0143476780999992000010406004+33100+139780FM-12+008099999V0202801N009312200019N0300001N1+01351+00661101771ADDGF102991021021999999001001MA1999999100811MD1310061+9999REMSYN076AAXX  04064 47678 42/80 22818 10135 20066 30081 40177 53006 82200 555 00147;
0101476780999992000010407004+33100+139780FM-12+008099999V0202901N008219999999N9999999N1+01271+00671101801ADDMA1999999100831MD1310111+9999REMSYN060AAXX  04074 47678 46/// /2916 10127 20067 30083 40180 53011;
0101476780999992000010408004+33100+139780FM-12+008099999V0202901N007719999999N9999999N1+01201+00671101841ADDMA1999999100871MD1110141+9999REMSYN060AAXX  04084 47678 46/// /2915 10120 20067 30087 40184 51014;
0101476780999992000010410004+33100+139780FM-12+008099999V0202901N005719999999N9999999N1+01221+00651102031ADDMA1999999101061MD1310231+9999REMSYN060AAXX  04104 47678 46/// /2911 10122 20065 30106 40203 53023;
0101476780999992000010411004+33100+139780FM-12+008099999V0202901N006219999999N9999999N1+01201+00691102071ADDMA1999999101101MD1110231+9999REMSYN060AAXX  04114 47678 46/// /2912 10120 20069 30110 40207 51023;
0186476780999992000010412004+33100+139780FM-12+008099999V0202901N005712200019N0300001N1+01201+00651102071ADDAA106000091GF101991011011999999001001KA1999M+01471MA1999999101101MD1110141+9999REMSYN076AAXX  04124 47678 32/80 12911 10120 20065 30110 40207 51014 81100 333 10147;EQDQ01  00002PRCP06
0101476780999992000010413004+33100+139780FM-12+008099999V0200801N002619999999N9999999N1+01091+00611102141ADDMA1999999101161MD1310101+9999REMSYN060AAXX  04134 47678 46/// /0805 10109 20061 30116 40214 53010;
0101476780999992000010414004+33100+139780FM-12+008099999V0202201N002619999999N9999999N1+01201+00631102131ADDMA1999999101161MD1210061+9999REMSYN060AAXX  04144 47678 46/// /2205 10120 20063 30116 40213 52006;
0101476780999992000010415004+33100+139780FM-12+008099999V0202601N002619999999N9999999N1+01131+00621102091ADDMA1999999101121MD1010021+9999REMSYN060AAXX  04154 47678 46/// /2605 10113 20062 30112 40209 50002;
0101476780999992000010416004+33100+139780FM-12+008099999V0201301N002119999999N9999999N1+01101+00641102151ADDMA1999999101171MD1310011+9999REMSYN060AAXX  04164 47678 46/// /1304 10110 20064 30117 40215 53001;
0101476780999992000010417004+33100+139780FM-12+008099999V0200101N002119999999N9999999N1+00961+00561102181ADDMA1999999101201MD1310041+9999REMSYN060AAXX  04174 47678 46/// /0104 10096 20056 30120 40218 53004;
0143476780999992000010418004+33100+139780FM-12+008099999V0201401N001012200019N0300001N1+00901+00571102181ADDGA1001+999999999GF100991001001999999001001MA1999999101201MD1110081+9999REMSYN060AAXX  04184 47678 42980 01402 10090 20057 30120 40218 51008;
0101476780999992000010419004+33100+139780FM-12+008099999V0201101N001519999999N9999999N1+00951+00661102161ADDMA1999999101181MD1010011+9999REMSYN060AAXX  04194 47678 46/// /1103 10095 20066 30118 40216 50001;
0101476780999992000010420004+33100+139780FM-12+008099999V0201101N001519999999N9999999N1+00881+00661102181ADDMA1999999101201MD1510001+9999REMSYN060AAXX  04204 47678 46/// /1103 10088 20066 30120 40218 55000;
0133476780999992000010421004+33100+139780FM-12+008099999V0201201N001512200019N0300001N1+00811+00611102261ADDGF101991011011999999001001MA1999999101271MD1310071+9999REMSYN066AAXX  04214 47678 42/80 11203 10081 20061 30127 40226 53007 81100;
0101476780999992000010422004+33100+139780FM-12+008099999V0200801N002119999999N9999999N1+00751+00601102331ADDMA1999999101341MD1310161+9999REMSYN060AAXX  04224 47678 46/// /0804 10075 20060 30134 40233 53016;
0101476780999992000010423004+33100+139780FM-12+008099999V0201201N001519999999N9999999N1+00931+00761102351ADDMA1999999101371MD1110171+9999REMSYN060AAXX  04234 47678 46/// /1203 10093 20076 30137 40235 51017;
0186476780999992000010500004+33100+139780FM-12+008099999V0201301N001512200019N0300001N1+01251+00931102411ADDAA106000091GF103991011011999999001011KA1999N+00731MA1999999101441MD1210171+9999REMSYN076AAXX  05004 47678 32/80 31303 10125 20093 30144 40241 52017 81101 333 20073;EQDQ01  00002PRCP06
0101476780999992000010501004+33100+139780FM-12+008099999V0202301N002119999999N9999999N1+01471+00931102361ADDMA1999999101401MD1010061+9999REMSYN060AAXX  05014 47678 46/// /2304 10147 20093 30140 40236 50006;
0101476780999992000010502004+33100+139780FM-12+008099999V0202501N002619999999N9999999N1+01551+00871102291ADDMA1999999101331MD1810041+9999REMSYN060AAXX  05024 47678 46/// /2505 10155 20087 30133 40229 58004;
0133476780999992000010503004+33100+139780FM-12+008099999V0202501N003112200019N0300001N1+01531+00681102211ADDGF102991011011999999001011MA1999999101251MD1810191+9999REMSYN066AAXX  05034 47678 42/80 22506 10153 20068 30125 40221 58019 81101;
0101476780999992000010504004+33100+139780FM-12+008099999V0202701N004119999999N9999999N1+01571+00771102191ADDMA1999999101231MD1610171+9999REMSYN060AAXX  05044 47678 46/// /2708 10157 20077 30123 40219 56017;
0101476780999992000010505004+33100+139780FM-12+008099999V0202701N003619999999N9999999N1+01581+00731102161ADDMA1999999101201MD1610131+9999REMSYN060AAXX  05054 47678 46/// /2707 10158 20073 30120 40216 56013;
0143476780999992000010506004+33100+139780FM-12+008099999V0202801N003112200019N0300001N1+01491+00771102151ADDGF101991011011999999001011MA1999999101191MD1610061+9999REMSYN076AAXX  05064 47678 42/80 12806 10149 20077 30119 40215 56006 81101 555 00163;
0101476780999992000010507004+33100+139780FM-12+008099999V0202801N002119999999N9999999N1+01411+00871102191ADDMA1999999101221MD1510011+9999REMSYN060AAXX  05074 47678 46/// /2804 10141 20087 30122 40219 55001;
0101476780999992000010508004+33100+139780FM-12+008099999V0202401N001519999999N9999999N1+01191+00801102251ADDMA1999999101281MD1310081+9999REMSYN060AAXX  05084 47678 46/// /2403 10119 20080 30128 40225 53008;
0133476780999992000010509004+33100+139780FM-12+008099999V0201501N001512200019N0300001N1+01081+00801102311ADDGF101991011011999999001001MA1999999101331MD1310141+9999REMSYN066AAXX  05094 47678 42/80 11503 10108 20080 30133 40231 53014 81100;
0101476780999992000010510004+33100+139780FM-12+008099999V0201101N001519999999N9999999N1+01001+00781102301ADDMA1999999101321MD1010101+9999REMSYN060AAXX  05104 47678 46/// /1103 10100 20078 30132 40230 50010;
0101476780999992000010511004+33100+139780FM-12+008099999V0202101N001019999999N9999999N1+01191+00821102311ADDMA1999999101341MD1110061+9999REMSYN060AAXX  05114 47678 46/// /2102 10119 20082 30134 40231 51006;
0186476780999992000010512004+33100+139780FM-12+008099999V0201801N001512200019N0200001N1+01191+00801102311ADDAA106000091GF101991011011999999001001KA1999M+01631MA1999999101341MD1310011+9999REMSYN076AAXX  05124 47678 32/70 11803 10119 20080 30134 40231 53001 81100 333 10163;EQDQ01  00002PRCP06
0101476780999992000010513004+33100+139780FM-12+008099999V0202701N001019999999N9999999N1+01201+00791102311ADDMA1999999101341MD1110021+9999REMSYN060AAXX  05134 47678 46/// /2702 10120 20079 30134 40231 51002;
0101476780999992000010514004+33100+139780FM-12+008099999V0202801N001519999999N9999999N1+01181+00771102271ADDMA1999999101301MD1810041+9999REMSYN060AAXX  05144 47678 46/// /2803 10118 20077 30130 40227 58004;
0101476780999992000010515004+33100+139780FM-12+008099999V0202401N001519999999N9999999N1+01221+00891102231ADDMA1999999101261MD1810081+9999REMSYN060AAXX  05154 47678 46/// /2403 10122 20089 30126 40223 58008;
0101476780999992000010516004+33100+139780FM-12+008099999V0202001N001019999999N9999999N1+01201+00901102191ADDMA1999999101221MD1710121+9999REMSYN060AAXX  05164 47678 46/// /2002 10120 20090 30122 40219 57012;
0101476780999992000010517004+33100+139780FM-12+008099999V0201601N001519999999N9999999N1+01171+00911102181ADDMA1999999101211MD1610091+9999REMSYN060AAXX  05174 47678 46/// /1603 10117 20091 30121 40218 56009;
0133476780999992000010518004+33100+139780FM-12+008099999V0201901N000519999999N0200001N1+01111+00871102171ADDGF107991001001999999001021MA1999999101191MD1610071+9999REMSYN066AAXX  05184 47678 42970 71901 10111 20087 30119 40217 56007 80002;
0101476780999992000010519004+33100+139780FM-12+008099999V0201501N001519999999N9999999N1+01291+00971102101ADDMA1999999101131MD1810091+9999REMSYN060AAXX  05194 47678 46/// /1503 10129 20097 30113 40210 58009;
0133476780999992000010521004+33100+139780FM-12+008099999V0201801N001519999999N0200001N1+01391+00851102091ADDGF107991021001999999031021MA1999999101131MD1510061+9999REMSYN066AAXX  05214 47678 42970 71803 10139 20085 30113 40209 55006 82032;
0101476780999992000010522004+33100+139780FM-12+008099999V0201701N003119999999N9999999N1+01411+00831102131ADDMA1999999101171MD1310041+9999REMSYN060AAXX  05224 47678 46/// /1706 10141 20083 30117 40213 53004;
0101476780999992000010601004+33100+139780FM-12+008099999V0201901N003619999999N9999999N1+01621+01011102091ADDMA1999999101131MD1710041+9999REMSYN060AAXX  06014 47678 46/// /1907 10162 20101 30113 40209 57004;
0101476780999992000010602004+33100+139780FM-12+008099999V0201901N004119999999N9999999N1+01701+01081101981ADDMA1999999101031MD1810131+9999REMSYN060AAXX  06024 47678 46/// /1908 10170 20108 30103 40198 58013;
0133476780999992000010603004+33100+139780FM-12+008099999V0200901N001519999999N0150001N1+01721+01031101811ADDGF107991011011999999071021MA1999999100861MD1810281+9999REMSYN066AAXX  06034 47678 42/65 70903 10172 20103 30086 40181 58028 81172;
0101476780999992000010604004+33100+139780FM-12+008099999V0202201N005119999999N9999999N1+01901+01131101721ADDMA1999999100781MD1610351+9999REMSYN060AAXX  06044 47678 46/// /2210 10190 20113 30078 40172 56035;
0101476780999992000010605004+33100+139780FM-12+008099999V0202101N005719999999N9999999N1+01861+01071101671ADDMA1999999100731MD1610301+9999REMSYN060AAXX  06054 47678 46/// /2111 10186 20107 30073 40167 56030;
0143476780999992000010606004+33100+139780FM-12+008099999V0202101N005719999999N0200001N1+01771+01241101631ADDGF106991011021999999031021MA1999999100681MD1610181+9999REMSYN076AAXX  06064 47678 42/70 62111 10177 20124 30068 40163 56018 81232 555 00192;
0101476780999992000010607004+33100+139780FM-12+008099999V0202401N002119999999N9999999N1+01741+01251101621ADDMA1999999100671MD1610111+9999REMSYN060AAXX  06074 47678 46/// /2404 10174 20125 30067 40162 56011;
0068476780999992000010608004+33100+139780FM-12+008099999V0202201N003619999999N9999999N1+01751+01301999999REMSYN059AAXX  06084 47678 46/// /2207 10175 20130 3008 40163 55005;
0161476780999992000010609004+33100+139780FM-12+008099999V0202301N005119999999N0200001N1+01771+01341101581ADDAY121031AY221031GF107991021021999999071021MA1999999100631MD1810051+9999MW1251REMSYN072AAXX  06094 47678 41/70 72310 10177 20134 30063 40158 58005 72522 82272;
0101476780999992000010610004+33100+139780FM-12+008099999V0201801N007719999999N9999999N1+01821+01371101561ADDMA1999999100621MD1810051+9999REMSYN060AAXX  06104 47678 46/// /1815 10182 20137 30062 40156 58005;
0101476780999992000010611004+33100+139780FM-12+008099999V0202101N006719999999N9999999N1+01811+01361101561ADDMA1999999100621MD1610061+9999REMSYN060AAXX  06114 47678 46/// /2113 10181 20136 30062 40156 56006;
0201476780999992000010612004+33100+139780FM-12+008099999V0201901N005710075019N0200001N1+01801+01451101561ADDAA112000791AY181061AY211061GF107991071021008001999999KA1999M+01921MA1999999100611MD1710021+9999MW1251REMSYN088AAXX  06124 47678 11570 71911 10180 20145 30061 40156 57002 69902 72581 872// 333 10192;
0101476780999992000010613004+33100+139780FM-12+008099999V0202001N005119999999N9999999N1+01601+01471101541ADDMA1999999100591MD1810031+9999REMSYN060AAXX  06134 47678 46/// /2010 10160 20147 30059 40154 58003;
0101476780999992000010614004+33100+139780FM-12+008099999V0202001N005719999999N9999999N1+01671+01451101471ADDMA1999999100521MD1810101+9999REMSYN060AAXX  06144 47678 46/// /2011 10167 20145 30052 40147 58010;
0101476780999992000010615004+33100+139780FM-12+008099999V0201701N005719999999N9999999N1+01621+01351101421ADDMA1999999100471MD1810141+9999REMSYN060AAXX  06154 47678 46/// /1711 10162 20135 30047 40142 58014;
0101476780999992000010616004+33100+139780FM-12+008099999V0201801N006219999999N9999999N1+01711+01491101371ADDMA1999999100421MD1610171+9999REMSYN060AAXX  06164 47678 46/// /1812 10171 20149 30042 40137 56017;
0101476780999992000010617004+33100+139780FM-12+008099999V0201601N008219999999N9999999N1+01711+01471101281ADDMA1999999100331MD1810191+9999REMSYN060AAXX  06174 47678 46/// /1616 10171 20147 30033 40128 58019;
0101476780999992000010620004+33100+139780FM-12+008099999V0202201N006219999999N9999999N1+01751+01581101121ADDMA1999999100181MD1810151+9999REMSYN060AAXX  06204 47678 46/// /2212 10175 20158 30018 40112 58015;
0161476780999992000010621004+33100+139780FM-12+008099999V0202201N005710360019N0200001N1+01791+01621101141ADDAY181031AY221031GF108991041021004501071999MA1999999100201MD1510111+9999MW1801REMSYN072AAXX  06214 47678 41470 82211 10179 20162 30020 40114 55011 78082 8427/;
0101476780999992000010622004+33100+139780FM-12+008099999V0202201N005119999999N9999999N1+01781+01631101151ADDMA1999999100211MD1510011+9999REMSYN060AAXX  06224 47678 46/// /2210 10178 20163 30021 40115 55001;
0101476780999992000010623004+33100+139780FM-12+008099999V0202201N006719999999N9999999N1+01811+01641101161ADDMA1999999100221MD1110041+9999REMSYN060AAXX  06234 47678 46/// /2213 10181 20164 30022 40116 51004;
0201476780999992000010700004+33100+139780FM-12+008099999V0202301N005710042019N0200001N1+01741+01561101211ADDAA112005191AY181061AY221061GF107991051021004501071999KA1999N+01591MA1999999100271MD1310071+9999MW1801REMSYN088AAXX  07004 47678 11470 72311 10174 20156 30027 40121 53007 60052 78082 8527/ 333 20159;
0101476780999992000010701004+33100+139780FM-12+008099999V0202201N004119999999N9999999N1+01821+01371101161ADDMA1999999100221MD1010011+9999REMSYN060AAXX  07014 47678 46/// /2208 10182 20137 30022 40116 50001;
0101476780999992000010702004+33100+139780FM-12+008099999V0202201N003619999999N9999999N1+01761+01541101111ADDMA1999999100171MD1810051+9999REMSYN060AAXX  07024 47678 46/// /2207 10176 20154 30017 40111 58005;
0161476780999992000010703004+33100+139780FM-12+008099999V0202701N006210360019N0200001N1+01761+01431101071ADDAY181031AY221031GF106991021021004501031001MA1999999100131MD1610141+9999MW1021REMSYN072AAXX  07034 47678 41470 62712 10176 20143 30013 40107 56014 70282 82230;
0101476780999992000010704004+33100+139780FM-12+008099999V0202801N005719999999N9999999N1+01791+01361101021ADDMA1999999100081MD1710141+9999REMSYN060AAXX  07044 47678 46/// /2811 10179 20136 30008 40102 57014;
0101476780999992000010705004+33100+139780FM-12+008099999V0202801N006219999999N9999999N1+01761+01351101041ADDMA1999999100101MD1510071+9999REMSYN060AAXX  07054 47678 46/// /2812 10176 20135 30010 40104 55007;
0171476780999992000010706004+33100+139780FM-12+008099999V0202901N005712200019N0150001N1+01661+01191101121ADDAY181061AY211061GF102991011021008001031001MA1999999100171MD1310041+9999MW1021REMSYN082AAXX  07064 47678 41565 22911 10166 20119 30017 40112 53004 70281 81230 555 00187;
0101476780999992000010707004+33100+139780FM-12+008099999V0202801N005719999999N9999999N1+01551+01151101171ADDMA1999999100221MD1310141+9999REMSYN060AAXX  07074 47678 46/// /2811 10155 20115 30022 40117 53014;
0101476780999992000010708004+33100+139780FM-12+008099999V0202801N004619999999N9999999N1+01431+01071101231ADDMA1999999100271MD1110171+9999REMSYN060AAXX  07084 47678 46/// /2809 10143 20107 30027 40123 51017;
0133476780999992000010709004+33100+139780FM-12+008099999V0202801N006212200019N0200001N1+01401+01001101301ADDGF101991011011999999031001MA1999999100341MD1310171+9999REMSYN066AAXX  07094 47678 42/70 12812 10140 20100 30034 40130 53017 81130;
0101476780999992000010710004+33100+139780FM-12+008099999V0202901N005719999999N9999999N1+01381+00901101391ADDMA1999999100431MD1310211+9999REMSYN060AAXX  07104 47678 46/// /2911 10138 20090 30043 40139 53021;
0101476780999992000010711004+33100+139780FM-12+008099999V0202801N005119999999N9999999N1+01351+00881101441ADDMA1999999100481MD1110211+9999REMSYN060AAXX  07114 47678 46/// /2810 10135 20088 30048 40144 51021;
0173476780999992000010712004+33100+139780FM-12+008099999V0202801N005712200019N0200001N1+01291+00821101481ADDAA112000591GF101991011011999999001001KA1999M+01871MA1999999100521MD1110181+9999REMSYN082AAXX  07124 47678 12/70 12811 10129 20082 30052 40148 51018 69952 81100 333 10187;
0101476780999992000010713004+33100+139780FM-12+008099999V0202801N006719999999N9999999N1+01251+00801101511ADDMA1999999100551MD1110121+9999REMSYN060AAXX  07134 47678 46/// /2813 10125 20080 30055 40151 51012;
0101476780999992000010715004+33100+139780FM-12+008099999V0202801N004619999999N9999999N1+01161+00711101511ADDMA1999999100541MD1010021+9999REMSYN060AAXX  07154 47678 46/// /2809 10116 20071 30054 40151 50002;
0101476780999992000010716004+33100+139780FM-12+008099999V0202701N008719999999N9999999N1+01141+00691101521ADDMA1999999100551MD1510001+9999REMSYN060AAXX  07164 47678 46/// /2717 10114 20069 30055 40152 55000;
0101476780999992000010717004+33100+139780FM-12+008099999V0202801N009319999999N9999999N1+01131+00681101571ADDMA1999999100601MD1310051+9999REMSYN060AAXX  07174 47678 46/// /2818 10113 20068 30060 40157 53005;
0133476780999992000010718004+33100+139780FM-12+008099999V0202701N008712200019N0200001N1+01101+00661101571ADDGF101991011011999999001001MA1999999100601MD1110061+9999REMSYN066AAXX  07184 47678 42/70 12717 10110 20066 30060 40157 51006 81100;
0101476780999992000010719004+33100+139780FM-12+008099999V0202801N008719999999N9999999N1+01081+00621101581ADDMA1999999100611MD1110061+9999REMSYN060AAXX  07194 47678 46/// /2817 10108 20062 30061 40158 51006;
0101476780999992000010720004+33100+139780FM-12+008099999V0202701N009319999999N9999999N1+01091+00591101631ADDMA1999999100661MD1310061+9999REMSYN060AAXX  07204 47678 46/// /2718 10109 20059 30066 40163 53006;
0133476780999992000010721004+33100+139780FM-12+008099999V0202701N008712200019N0200001N1+01071+00611101711ADDGF102991011011999999031011MA1999999100741MD1310141+9999REMSYN066AAXX  07214 47678 42/70 22717 10107 20061 30074 40171 53014 81131;
0101476780999992000010722004+33100+139780FM-12+008099999V0202801N007719999999N9999999N1+01041+00621101791ADDMA1999999100821MD1310211+9999REMSYN060AAXX  07224 47678 46/// /2815 10104 20062 30082 40179 53021;
0101476780999992000010723004+33100+139780FM-12+008099999V0202801N006219999999N9999999N1+01071+00651101851ADDMA1999999100881MD1110221+9999REMSYN060AAXX  07234 47678 46/// /2812 10107 20065 30088 40185 51022;
0186476780999992000010800004+33100+139780FM-12+008099999V0202901N006712200019N0300001N1+01231+00701101851ADDAA106000091GF101991011001999999031011KA1999N+01021MA1999999100881MD1110141+9999REMSYN076AAXX  08004 47678 32980 12913 10123 20070 30088 40185 51014 81031 333 20102;EQDQ01  00002PRCP06
0101476780999992000010801004+33100+139780FM-12+008099999V0202801N006219999999N9999999N1+01311+00691101851ADDMA1999999100881MD1110061+9999REMSYN060AAXX  08014 47678 46/// /2812 10131 20069 30088 40185 51006;
0101476780999992000010802004+33100+139780FM-12+008099999V0202801N006219999999N9999999N1+01421+00791101851ADDMA1999999100891MD1310011+9999REMSYN060AAXX  08024 47678 46/// /2812 10142 20079 30089 40185 53001;
0133476780999992000010803004+33100+139780FM-12+008099999V0202701N008212200019N0300001N1+01401+00781101821ADDGF102991021021008001031011MA1999999100861MD1810021+9999REMSYN066AAXX  08034 47678 42580 22716 10140 20078 30086 40182 58002 82231;
0101476780999992000010804004+33100+139780FM-12+008099999V0202801N008719999999N9999999N1+01361+00721101781ADDMA1999999100821MD1810061+9999REMSYN060AAXX  08044 47678 46/// /2817 10136 20072 30082 40178 58006;
0143476780999992000010806004+33100+139780FM-12+008099999V0202801N005712200019N0300001N1+01291+00651101881ADDGF102991011011999999031021MA1999999100911MD1310051+9999REMSYN076AAXX  08064 47678 42/80 22811 10129 20065 30091 40188 53005 81132 555 00145;
0101476780999992000010807004+33100+139780FM-12+008099999V0202801N004619999999N9999999N1+01181+00671101881ADDMA1999999100911MD1110091+9999REMSYN060AAXX  08074 47678 46/// /2809 10118 20067 30091 40188 51009;
0101476780999992000010808004+33100+139780FM-12+008099999V0201901N001519999999N9999999N1+01091+00591101911ADDMA1999999100941MD1110111+9999REMSYN060AAXX  08084 47678 46/// /1903 10109 20059 30094 40191 51011;
0133476780999992000010809004+33100+139780FM-12+008099999V0202401N001512200019N0300001N1+01141+00631101961ADDGF101991011001999999031011MA1999999100991MD1310081+9999REMSYN066AAXX  08094 47678 42980 12403 10114 20063 30099 40196 53008 81031;
0101476780999992000010810004+33100+139780FM-12+008099999V0202701N003119999999N9999999N1+01091+00611102051ADDMA1999999101071MD1310161+9999REMSYN060AAXX  08104 47678 46/// /2706 10109 20061 30107 40205 53016;
0101476780999992000010811004+33100+139780FM-12+008099999V0202701N004619999999N9999999N1+01111+00661102061ADDMA1999999101091MD1110151+9999REMSYN060AAXX  08114 47678 46/// /2709 10111 20066 30109 40206 51015;
0186476780999992000010812004+33100+139780FM-12+008099999V0202701N004612200019N0250001N1+01111+00681102101ADDAA106000091GF101991011011008001001001KA1999M+01451MA1999999101121MD1110131+9999REMSYN076AAXX  08124 47678 32575 12709 10111 20068 30112 40210 51013 81100 333 10145;EQDQ01  00002PRCP06
0101476780999992000010813004+33100+139780FM-12+008099999V0202801N003619999999N9999999N1+01081+00671102121ADDMA1999999101141MD1210071+9999REMSYN060AAXX  08134 47678 46/// /2807 10108 20067 30114 40212 52007;
0101476780999992000010814004+33100+139780FM-12+008099999V0202701N003119999999N9999999N1+01061+00641102121ADDMA1999999101141MD1110051+9999REMSYN060AAXX  08144 47678 46/// /2706 10106 20064 30114 40212 51005;
0101476780999992000010815004+33100+139780FM-12+008099999V0202701N004119999999N9999999N1+01081+00671102121ADDMA1999999101141MD1110021+9999REMSYN060AAXX  08154 47678 46/// /2708 10108 20067 30114 40212 51002;
0101476780999992000010816004+33100+139780FM-12+008099999V0202701N004119999999N9999999N1+01071+00681102141ADDMA1999999101161MD1310021+9999REMSYN060AAXX  08164 47678 46/// /2708 10107 20068 30116 40214 53002;
0101476780999992000010817004+33100+139780FM-12+008099999V0202801N005719999999N9999999N1+01101+00691102141ADDMA1999999101161MD1210021+9999REMSYN060AAXX  08174 47678 46/// /2811 10110 20069 30116 40214 52002;
0133476780999992000010818004+33100+139780FM-12+008099999V0202601N004112200019N0200001N1+01081+00691102111ADDGF102991021021999999001001MA1999999101131MD1810011+9999REMSYN066AAXX  08184 47678 42/70 22608 10108 20069 30113 40211 58001 82200;
0101476780999992000010819004+33100+139780FM-12+008099999V0202701N004619999999N9999999N1+01111+00741102101ADDMA1999999101121MD1810041+9999REMSYN060AAXX  08194 47678 46/// /2709 10111 20074 30112 40210 58004;
0101476780999992000010820004+33100+139780FM-12+008099999V0202801N003119999999N9999999N1+01061+00731102111ADDMA1999999101131MD1510031+9999REMSYN060AAXX  08204 47678 46/// /2806 10106 20073 30113 40211 55003;
0133476780999992000010821004+33100+139780FM-12+008099999V0201301N001012200019N0300001N1+01091+00741102151ADDGF102991021021999999001001MA1999999101171MD1310041+9999REMSYN066AAXX  08214 47678 42/80 21302 10109 20074 30117 40215 53004 82200;
0101476780999992000010822004+33100+139780FM-12+008099999V0201101N002119999999N9999999N1+01041+00731102191ADDMA1999999101211MD1310091+9999REMSYN060AAXX  08224 47678 46/// /1104 10104 20073 30121 40219 53009;
0101476780999992000010823004+33100+139780FM-12+008099999V0202601N001519999999N9999999N1+01181+00771102251ADDMA1999999101281MD1310151+9999REMSYN060AAXX  08234 47678 46/// /2603 10118 20077 30128 40225 53015;
0186476780999992000010900004+33100+139780FM-12+008099999V0202801N003610360019N0300001N1+01261+00791102311ADDAA106000091GF107991021011008001031021KA1999N+00971MA1999999101341MD1310171+9999REMSYN076AAXX  09004 47678 32580 72807 10126 20079 30134 40231 53017 82132 333 20097;EQDQ01  00002PRCP06
0101476780999992000010901004+33100+139780FM-12+008099999V0202901N005119999999N9999999N1+01291+00781102331ADDMA1999999101361MD1110151+9999REMSYN060AAXX  09014 47678 46/// /2910 10129 20078 30136 40233 51015;
0101476780999992000010902004+33100+139780FM-12+008099999V0202801N004619999999N9999999N1+01361+00761102201ADDMA1999999101231MD1810051+9999REMSYN060AAXX  09024 47678 46/// /2809 10136 20076 30123 40220 58005;
0133476780999992000010903004+33100+139780FM-12+008099999V0202801N004119999999N0300001N1+01411+00781102121ADDGF107991011011999999031021MA1999999101161MD1810181+9999REMSYN066AAXX  09034 47678 42/80 72808 10141 20078 30116 40212 58018 81132;
0101476780999992000010904004+33100+139780FM-12+008099999V0202801N004119999999N9999999N1+01291+00711102031ADDMA1999999101061MD1610301+9999REMSYN060AAXX  09044 47678 46/// /2808 10129 20071 30106 40203 56030;
0101476780999992000010905004+33100+139780FM-12+008099999V0202901N002619999999N9999999N1+01311+00731102041ADDMA1999999101071MD1510161+9999REMSYN060AAXX  09054 47678 46/// /2905 10131 20073 30107 40204 55016;
0101476780999992000010907004+33100+139780FM-12+008099999V0201601N002119999999N9999999N1+01211+00761102111ADDMA1999999101141MD1310081+9999REMSYN060AAXX  09074 47678 46/// /1604 10121 20076 30114 40211 53008;
0101476780999992000010908004+33100+139780FM-12+008099999V0200901N003619999999N9999999N1+01211+00681102181ADDMA1999999101211MD1310141+9999REMSYN060AAXX  09084 47678 46/// /0907 10121 20068 30121 40218 53014;
0133476780999992000010909004+33100+139780FM-12+008099999V0201101N001519999999N0200001N1+01261+00641102201ADDGF108991081001999999071999MA1999999101231MD1110151+9999REMSYN066AAXX  09094 47678 42/70 81103 10126 20064 30123 40220 51015 8807/;
0101476780999992000010910004+33100+139780FM-12+008099999V0201701N001519999999N9999999N1+01151+00721102191ADDMA1999999101221MD1010081+9999REMSYN060AAXX  09104 47678 46/// /1703 10115 20072 30122 40219 50008;
0101476780999992000010911004+33100+139780FM-12+008099999V0200901N001519999999N9999999N1+01111+00781102191ADDMA1999999101211MD1010001+9999REMSYN060AAXX  09114 47678 46/// /0903 10111 20078 30121 40219 50000;
0201476780999992000010912004+33100+139780FM-12+008099999V0200801N003619999999N0200001N1+01101+00821102071ADDAA112000791AY161061AY221061GF108991031001999999071999KA1999M+01461MA1999999101091MD1810141+9999MW1601REMSYN088AAXX  09124 47678 11/70 80807 10110 20082 30109 40207 58014 69902 76062 8307/ 333 10146;
0101476780999992000010913004+33100+139780FM-12+008099999V0200801N002619999999N9999999N1+01051+00891102061ADDMA1999999101081MD1710141+9999REMSYN060AAXX  09134 47678 46/// /0805 10105 20089 30108 40206 57014;
0101476780999992000010914004+33100+139780FM-12+008099999V0200601N002119999999N9999999N1+01071+00911102071ADDMA1999999101091MD1510121+9999REMSYN060AAXX  09144 47678 46/// /0604 10107 20091 30109 40207 55012;
0101476780999992000010915004+33100+139780FM-12+008099999V0200701N003619999999N9999999N1+01031+00911101891ADDMA1999999100911MD1810181+9999REMSYN060AAXX  09154 47678 46/// /0707 10103 20091 30091 40189 58018;
0101476780999992000010916004+33100+139780FM-12+008099999V0200601N005119999999N9999999N1+01081+00941101831ADDMA1999999100861MD1810221+9999REMSYN060AAXX  09164 47678 46/// /0610 10108 20094 30086 40183 58022;
0101476780999992000010917004+33100+139780FM-12+008099999V0200501N005119999999N9999999N1+01201+00991101721ADDMA1999999100751MD1610341+9999REMSYN060AAXX  09174 47678 46/// /0510 10120 20099 30075 40172 56034;
0161476780999992000010918004+33100+139780FM-12+008099999V0200701N005719999999N0200001N1+01401+01081101541ADDAY161061AY221061GF108991081001999999021999MA1999999100581MD1810331+9999MW1211REMSYN072AAXX  09184 47678 41/70 80711 10140 20108 30058 40154 58033 72162 8802/;
0101476780999992000010919004+33100+139780FM-12+008099999V0203301N003119999999N9999999N1+01541+01201101451ADDMA1999999100501MD1610361+9999REMSYN060AAXX  09194 47678 46/// /3306 10154 20120 30050 40145 56036;
0101476780999992000010920004+33100+139780FM-12+008099999V0202301N004619999999N9999999N1+01681+01291101301ADDMA1999999100351MD1610401+9999REMSYN060AAXX  09204 47678 46/// /2309 10168 20129 30035 40130 56040;
0161476780999992000010921004+33100+139780FM-12+008099999V0201801N006719999999N0200001N1+01651+01451101291ADDAY161031AY221031GF108991081001999999021999MA1999999100341MD1610241+9999MW1601REMSYN072AAXX  09214 47678 41/70 81813 10165 20145 30034 40129 56024 76062 8802/;
0101476780999992000010922004+33100+139780FM-12+008099999V0201801N005719999999N9999999N1+01701+01451101191ADDMA1999999100241MD1610261+9999REMSYN060AAXX  09224 47678 46/// /1811 10170 20145 30024 40119 56026;
0101476780999992000010923004+33100+139780FM-12+008099999V0201901N007219999999N9999999N1+01751+01461101121ADDMA1999999100181MD1810171+9999REMSYN060AAXX  09234 47678 46/// /1914 10175 20146 30018 40112 58017;
0201476780999992000011000004+33100+139780FM-12+008099999V0201901N008210042019N0150001N1+01691+01561101061ADDAA112002091AY161061AY221061GF107991061071004501021999KA1999N+01011MA1999999100121MD1610221+9999MW1611REMSYN088AAXX  10004 47678 11465 71916 10169 20156 30012 40106 56022 60022 76162 8672/ 333 20101;
0101476780999992000011001004+33100+139780FM-12+008099999V0201901N007719999999N9999999N1+01731+01601101001ADDMA1999999100061MD1710181+9999REMSYN060AAXX  10014 47678 46/// /1915 10173 20160 30006 40100 57018;
0101476780999992000011002004+33100+139780FM-12+008099999V0202001N006719999999N9999999N1+01781+01611100781ADDMA1999999099841MD1810341+9999REMSYN060AAXX  10024 47678 46/// /2013 10178 20161 39984 40078 58034;
0161476780999992000011003004+33100+139780FM-12+008099999V0202201N004110021019N0060001N1+01661+01601100791ADDAY161031AY221031GF108991081021002501999999MA1999999099851MD1510271+9999MW1801REMSYN072AAXX  10034 47678 41356 82208 10166 20160 39985 40079 55027 78062 882//;
0101476780999992000011004004+33100+139780FM-12+008099999V0202801N008219999999N9999999N1+01611+01501100741ADDMA1999999099801MD1610261+9999REMSYN060AAXX  10044 47678 46/// /2816 10161 20150 39980 40074 56026;
0101476780999992000011005004+33100+139780FM-12+008099999V0202801N009819999999N9999999N1+01481+01231100801ADDMA1999999099851MD1310011+9999REMSYN060AAXX  10054 47678 46/// /2819 10148 20123 39985 40080 53001;
0171476780999992000011006004+33100+139780FM-12+008099999V0202801N010312200019N0200001N1+01501+01101100871ADDAY181061AY261061GF101991011011008001001011MA1999999099921MD1310071+9999MW1011REMSYN082AAXX  10064 47678 41570 12820 10150 20110 39992 40087 53007 70186 81101 555 00181;
0101476780999992000011007004+33100+139780FM-12+008099999V0202801N011319999999N9999999N1+01401+00901100951ADDMA1999999100001MD1310201+9999REMSYN060AAXX  10074 47678 46/// /2822 10140 20090 30000 40095 53020;
0101476780999992000011008004+33100+139780FM-12+008099999V0202801N010819999999N9999999N1+01351+00881101101ADDMA1999999100141MD1310291+9999REMSYN060AAXX  10084 47678 46/// /2821 10135 20088 30014 40110 53029;
0133476780999992000011009004+33100+139780FM-12+008099999V0202801N009312200019N0200001N1+01351+00941101211ADDGF102991021021999999001011MA1999999100251MD1310331+9999REMSYN066AAXX  10094 47678 42/70 22818 10135 20094 30025 40121 53033 82201;
0101476780999992000011010004+33100+139780FM-12+008099999V0202801N008219999999N9999999N1+01361+00741101291ADDMA1999999100331MD1110331+9999REMSYN060AAXX  10104 47678 46/// /2816 10136 20074 30033 40129 51033;
0101476780999992000011011004+33100+139780FM-12+008099999V0202801N009319999999N9999999N1+01341+00651101371ADDMA1999999100411MD1110271+9999REMSYN060AAXX  10114 47678 46/// /2818 10134 20065 30041 40137 51027;
0173476780999992000011012004+33100+139780FM-12+008099999V0202901N010312200019N0200001N1+01271+00581101411ADDAA112008991GF101991011011999999001001KA1999M+01791MA1999999100451MD1110201+9999REMSYN082AAXX  10124 47678 12/70 12920 10127 20058 30045 40141 51020 60092 81100 333 10179;
0101476780999992000011013004+33100+139780FM-12+008099999V0202801N009319999999N9999999N1+01181+00611101421ADDMA1999999100451MD1110121+9999REMSYN060AAXX  10134 47678 46/// /2818 10118 20061 30045 40142 51012;
0101476780999992000011014004+33100+139780FM-12+008099999V0202801N006719999999N9999999N1+01151+00541101431ADDMA1999999100461MD1110051+9999REMSYN060AAXX  10144 47678 46/// /2813 10115 20054 30046 40143 51005;
0101476780999992000011015004+33100+139780FM-12+008099999V0202801N009819999999N9999999N1+01141+00591101411ADDMA1999999100441MD1810011+9999REMSYN060AAXX  10154 47678 46/// /2819 10114 20059 30044 40141 58001;
0101476780999992000011016004+33100+139780FM-12+008099999V0202901N008719999999N9999999N1+01111+00541101451ADDMA1999999100481MD1310031+9999REMSYN060AAXX  10164 47678 46/// /2917 10111 20054 30048 40145 53003;
0101476780999992000011017004+33100+139780FM-12+008099999V0202901N005119999999N9999999N1+01081+00541101521ADDMA1999999100551MD1310091+9999REMSYN060AAXX  10174 47678 46/// /2910 10108 20054 30055 40152 53009;
0133476780999992000011018004+33100+139780FM-12+008099999V0200901N002612200019N0200001N1+01111+00501101531ADDGF102991021011999999001001MA1999999100561MD1110121+9999REMSYN066AAXX  10184 47678 42/70 20905 10111 20050 30056 40153 51012 82100;
0101476780999992000011019004+33100+139780FM-12+008099999V0203001N004619999999N9999999N1+01111+00651101551ADDMA1999999100581MD1110101+9999REMSYN060AAXX  10194 47678 46/// /3009 10111 20065 30058 40155 51010;
0101476780999992000011020004+33100+139780FM-12+008099999V0200901N002619999999N9999999N1+01071+00701101591ADDMA1999999100621MD1310071+9999REMSYN060AAXX  10204 47678 46/// /0905 10107 20070 30062 40159 53007;
0133476780999992000011021004+33100+139780FM-12+008099999V0200401N004119999999N0200001N1+01221+00751101681ADDGF107991071021999999999999MA1999999100711MD1310151+9999REMSYN066AAXX  10214 47678 42/70 70408 10122 20075 30071 40168 53015 872//;
0101476780999992000011022004+33100+139780FM-12+008099999V0200501N003619999999N9999999N1+01261+00731101761ADDMA1999999100791MD1310211+9999REMSYN060AAXX  10224 47678 46/// /0507 10126 20073 30079 40176 53021;
0101476780999992000011023004+33100+139780FM-12+008099999V0200601N005119999999N9999999N1+01311+00801101831ADDMA1999999100861MD1110241+9999REMSYN060AAXX  10234 47678 46/// /0610 10131 20080 30086 40183 51024;
0186476780999992000011100004+33100+139780FM-12+008099999V0200501N005719999999N0300001N1+01391+00771101911ADDAA106000091GF105991051021999999001001KA1999N+01031MA1999999100951MD1310241+9999REMSYN076AAXX  11004 47678 32/80 50511 10139 20077 30095 40191 53024 85200 333 20103;EQDQ01  00002PRCP06
0186476780999992000011101004+33100+139780FM-12+008099999V0200501N003119999999N0300001N1+01391+00771101911ADDAA106000091GF105991051021999999001001KA1999N+01031MA1999999100951MD1310241+9999REMSYN076AAXX  11014 47678 32/80 50506 10139 20077 30095 40191 53024 85200 333 20103;EQDQ01  00002PRCP06
0101476780999992000011102004+33100+139780FM-12+008099999V0200501N007219999999N9999999N1+01431+00801101901ADDMA1999999100941MD1010081+9999REMSYN060AAXX  11024 47678 46/// /0514 10143 20080 30094 40190 50008;
0161476780999992000011103004+33100+139780FM-12+008099999V0200501N007219999999N0300001N1+01441+00791101831ADDAY181031AY221031GF107991071021999999031001MA1999999100871MD1810081+9999MW1021REMSYN072AAXX  11034 47678 41/80 70514 10144 20079 30087 40183 58008 70282 87230;
0101476780999992000011104004+33100+139780FM-12+008099999V0200501N007219999999N9999999N1+01351+00771101801ADDMA1999999100841MD1710131+9999REMSYN060AAXX  11044 47678 46/// /0514 10135 20077 30084 40180 57013;
0101476780999992000011105004+33100+139780FM-12+008099999V0200501N007719999999N9999999N1+01401+00751101781ADDMA1999999100821MD1610121+9999REMSYN060AAXX  11054 47678 46/// /0515 10140 20075 30082 40178 56012;
0171476780999992000011106004+33100+139780FM-12+008099999V0200501N008219999999N0300001N1+01421+00841101801ADDAY181061AY221061GF105991051021999999001001MA1999999100841MD1510031+9999MW1021REMSYN082AAXX  11064 47678 41/80 50516 10142 20084 30084 40180 55003 70282 85200 555 00155;
0101476780999992000011107004+33100+139780FM-12+008099999V0200501N008219999999N9999999N1+01361+00911101841ADDMA1999999100881MD1310041+9999REMSYN060AAXX  11074 47678 46/// /0516 10136 20091 30088 40184 53004;
0101476780999992000011108004+33100+139780FM-12+008099999V0200401N006219999999N9999999N1+01361+00951101901ADDMA1999999100941MD1310121+9999REMSYN060AAXX  11084 47678 46/// /0412 10136 20095 30094 40190 53012;
0161476780999992000011109004+33100+139780FM-12+008099999V0200601N005119999999N0200001N1+01411+00991101951ADDAY181031AY221031GF107991071021999999001001MA1999999100991MD1310151+9999MW1251REMSYN072AAXX  11094 47678 41/70 70610 10141 20099 30099 40195 53015 72582 87200;
0101476780999992000011110004+33100+139780FM-12+008099999V0200601N005719999999N9999999N1+01421+01021101991ADDMA1999999101031MD1110151+9999REMSYN060AAXX  11104 47678 46/// /0611 10142 20102 30103 40199 51015;
0101476780999992000011111004+33100+139780FM-12+008099999V0200601N007719999999N9999999N1+01411+00971102031ADDMA1999999101071MD1110131+9999REMSYN060AAXX  11114 47678 46/// /0615 10141 20097 30107 40203 51013;
0201476780999992000011112004+33100+139780FM-12+008099999V0200701N006219999999N0200001N1+01391+00961102061ADDAA112000791AY181061AY221061GF107991071021999999999999KA1999M+01551MA1999999101101MD1110111+9999MW1251REMSYN088AAXX  11124 47678 11/70 70712 10139 20096 30110 40206 51011 69902 72582 872// 333 10155;
0101476780999992000011113004+33100+139780FM-12+008099999V0200601N007719999999N9999999N1+01391+00931102091ADDMA1999999101131MD1110101+9999REMSYN060AAXX  11134 47678 46/// /0615 10139 20093 30113 40209 51010;
0101476780999992000011114004+33100+139780FM-12+008099999V0200701N006719999999N9999999N1+01401+00941102091ADDMA1999999101131MD1110061+9999REMSYN060AAXX  11144 47678 46/// /0713 10140 20094 30113 40209 51006;
0101476780999992000011115004+33100+139780FM-12+008099999V0200701N007219999999N9999999N1+01391+00911101991ADDMA1999999101031MD1810071+9999REMSYN060AAXX  11154 47678 46/// /0714 10139 20091 30103 40199 58007;
0101476780999992000011116004+33100+139780FM-12+008099999V0200701N005119999999N9999999N1+01381+00971101961ADDMA1999999101001MD1810131+9999REMSYN060AAXX  11164 47678 46/// /0710 10138 20097 30100 40196 58013;
0101476780999992000011117004+33100+139780FM-12+008099999V0200701N006719999999N9999999N1+01461+01021101981ADDMA1999999101021MD1510111+9999REMSYN060AAXX  11174 47678 46/// /0713 10146 20102 30102 40198 55011;
0161476780999992000011118004+33100+139780FM-12+008099999V0200801N005119999999N0200001N1+01471+00951101941ADDAY181061AY221061GF107991071021999999999999MA1999999100981MD1810051+9999MW1021REMSYN072AAXX  11184 47678 41/70 70810 10147 20095 30098 40194 58005 70282 872//;
0101476780999992000011119004+33100+139780FM-12+008099999V0200701N006219999999N9999999N1+01491+00971101891ADDMA1999999100931MD1810071+9999REMSYN060AAXX  11194 47678 46/// /0712 10149 20097 30093 40189 58007;
0101476780999992000011120004+33100+139780FM-12+008099999V0200801N007219999999N9999999N1+01511+00951101861ADDMA1999999100901MD1610121+9999REMSYN060AAXX  11204 47678 46/// /0814 10151 20095 30090 40186 56012;
0161476780999992000011121004+33100+139780FM-12+008099999V0200801N005119999999N0200001N1+01511+00991101961ADDAY121031AY221031GF107991071021999999999999MA1999999101001MD1310021+9999MW1801REMSYN072AAXX  11214 47678 41/70 70810 10151 20099 30100 40196 53002 78022 872//;
0101476780999992000011122004+33100+139780FM-12+008099999V0200901N007219999999N9999999N1+01311+01081101991ADDMA1999999101021MD1310091+9999REMSYN060AAXX  11224 47678 46/// /0914 10131 20108 30102 40199 53009;
0101476780999992000011123004+33100+139780FM-12+008099999V0201001N009319999999N9999999N1+01321+01041102041ADDMA1999999101071MD1110171+9999REMSYN060AAXX  11234 47678 46/// /1018 10132 20104 30107 40204 51017;
0201476780999992000011200004+33100+139780FM-12+008099999V0200901N007210360019N0150001N1+01321+01041102111ADDAA112004191AY181061AY221061GF108991011071008001021999KA1999N+01291MA1999999101141MD1310141+9999MW1611REMSYN088AAXX  12004 47678 11565 80914 10132 20104 30114 40211 53014 60042 76182 8172/ 333 20129;
0101476780999992000011201004+33100+139780FM-12+008099999V0200901N006719999999N9999999N1+01311+01061102121ADDMA1999999101151MD1110131+9999REMSYN060AAXX  12014 47678 46/// /0913 10131 20106 30115 40212 51013;
0101476780999992000011202004+33100+139780FM-12+008099999V0200801N006219999999N9999999N1+01271+01111102091ADDMA1999999101121MD1010051+9999REMSYN060AAXX  12024 47678 46/// /0812 10127 20111 30112 40209 50005;
0161476780999992000011203004+33100+139780FM-12+008099999V0200801N008210360019N0080001N1+01241+01111101961ADDAY161031AY261031GF108991021071004501021999MA1999999100991MD1810151+9999MW1631REMSYN072AAXX  12034 47678 41458 80816 10124 20111 30099 40196 58015 76366 8272/;
0101476780999992000011204004+33100+139780FM-12+008099999V0200701N009819999999N9999999N1+01241+01101101821ADDMA1999999100851MD1810301+9999REMSYN060AAXX  12044 47678 46/// /0719 10124 20110 30085 40182 58030;
0101476780999992000011205004+33100+139780FM-12+008099999V0200701N008719999999N9999999N1+01261+01151101821ADDMA1999999100851MD1610271+9999REMSYN060AAXX  12054 47678 46/// /0717 10126 20115 30085 40182 56027;
0171476780999992000011206004+33100+139780FM-12+008099999V0200701N012310042019N0200001N1+01351+01191101751ADDAY161061AY261061GF107991071021004501999999MA1999999100791MD1610201+9999MW1801REMSYN082AAXX  12064 47678 41470 70724 10135 20119 30079 40175 56020 78066 872// 555 00153;
0101476780999992000011207004+33100+139780FM-12+008099999V0200701N010319999999N9999999N1+01361+01201101791ADDMA1999999100831MD1510021+9999REMSYN060AAXX  12074 47678 46/// /0720 10136 20120 30083 40179 55002;
0101476780999992000011208004+33100+139780FM-12+008099999V0200901N008719999999N9999999N1+01391+01281101851ADDMA1999999100891MD1310041+9999REMSYN060AAXX  12084 47678 46/// /0917 10139 20128 30089 40185 53004;
0161476780999992000011209004+33100+139780FM-12+008099999V0201001N009810042019N0200001N1+01461+01231101811ADDAY181031AY221031GF108991081021004501999999MA1999999100851MD1010061+9999MW1251REMSYN072AAXX  12094 47678 41470 81019 10146 20123 30085 40181 50006 72582 882//;
0101476780999992000011210004+33100+139780FM-12+008099999V0201001N011819999999N9999999N1+01461+01231101801ADDMA1999999100841MD1010011+9999REMSYN060AAXX  12104 47678 46/// /1023 10146 20123 30084 40180 50001;
0101476780999992000011211004+33100+139780FM-12+008099999V0200901N009819999999N9999999N1+01531+01301101761ADDMA1999999100801MD1710091+9999REMSYN060AAXX  12114 47678 46/// /0919 10153 20130 30080 40176 57009;
0201476780999992000011212004+33100+139780FM-12+008099999V0201001N007710042019N0200001N1+01511+01361101711ADDAA112027991AY181061AY221061GF108991081021004501999999KA1999M+01551MA1999999100751MD1810101+9999MW1801REMSYN088AAXX  12124 47678 11470 81015 10151 20136 30075 40171 58010 60282 78082 882// 333 10155;
0101476780999992000011213004+33100+139780FM-12+008099999V0202501N002619999999N9999999N1+01591+01431101631ADDMA1999999100681MD1810161+9999REMSYN060AAXX  12134 47678 46/// /2505 10159 20143 30068 40163 58016;
0101476780999992000011214004+33100+139780FM-12+008099999V0202601N002619999999N9999999N1+01571+01421101531ADDMA1999999100581MD1810221+9999REMSYN060AAXX  12144 47678 46/// /2605 10157 20142 30058 40153 58022;
0101476780999992000011215004+33100+139780FM-12+008099999V0202301N005119999999N9999999N1+01571+01461101391ADDMA1999999100441MD1810311+9999REMSYN060AAXX  12154 47678 46/// /2310 10157 20146 30044 40139 58031;
0101476780999992000011216004+33100+139780FM-12+008099999V0202401N004119999999N9999999N1+01601+01491101281ADDMA1999999100331MD1810351+9999REMSYN060AAXX  12164 47678 46/// /2408 10160 20149 30033 40128 58035;
0101476780999992000011217004+33100+139780FM-12+008099999V0202501N005119999999N9999999N1+01591+01491101241ADDMA1999999100291MD1610291+9999REMSYN060AAXX  12174 47678 46/// /2510 10159 20149 30029 40124 56029;
0161476780999992000011218004+33100+139780FM-12+008099999V0201801N003610042019N0080001N1+01521+01371101181ADDAY181061AY221061GF108991081021004501999999MA1999999100231MD1610211+9999MW1811REMSYN072AAXX  12184 47678 41458 81807 10152 20137 30023 40118 56021 78182 882//;
0101476780999992000011219004+33100+139780FM-12+008099999V0201801N005719999999N9999999N1+01591+01391101131ADDMA1999999100181MD1810151+9999REMSYN060AAXX  12194 47678 46/// /1811 10159 20139 30018 40113 58015;
0101476780999992000011220004+33100+139780FM-12+008099999V0201901N004619999999N9999999N1+01661+01511101051ADDMA1999999100101MD1810191+9999REMSYN060AAXX  12204 47678 46/// /1909 10166 20151 30010 40105 58019;
0161476780999992000011221004+33100+139780FM-12+008099999V0202401N003610042019N0150001N1+01641+01511101091ADDAY181031AY221031GF108991081021004501999999MA1999999100141MD1510091+9999MW1251REMSYN072AAXX  12214 47678 41465 82407 10164 20151 30014 40109 55009 72582 882//;
0101476780999992000011222004+33100+139780FM-12+008099999V0202501N002619999999N9999999N1+01581+01481101081ADDMA1999999100131MD1610051+9999REMSYN060AAXX  12224 47678 46/// /2505 10158 20148 30013 40108 56005;
0101476780999992000011223004+33100+139780FM-12+008099999V0202601N001019999999N9999999N1+01591+01491101111ADDMA1999999100161MD1110061+9999REMSYN060AAXX  12234 47678 46/// /2602 10159 20149 30016 40111 51006;
0201476780999992000011300004+33100+139780FM-12+008099999V0202401N001019999999N0150001N1+01651+01551101131ADDAA112024991AY181061AY221061GF108991051021999999071999KA1999N+01481MA1999999100181MD1310041+9999MW1021REMSYN088AAXX  13004 47678 11/65 82402 10165 20155 30018 40113 53004 60252 70282 8527/ 333 20148;
0101476780999992000011301004+33100+139780FM-12+008099999V0202901N000519999999N9999999N1+01721+01561101101ADDMA1999999100161MD1010031+9999REMSYN060AAXX  13014 47678 46/// /2901 10172 20156 30016 40110 50003;
0101476780999992000011302004+33100+139780FM-12+008099999V0202301N001519999999N9999999N1+01731+01601101001ADDMA1999999100061MD1810101+9999REMSYN060AAXX  13024 47678 46/// /2303 10173 20160 30006 40100 58010;
0161476780999992000011303004+33100+139780FM-12+008099999V0201701N004610042019N0150001N1+01791+01531100821ADDAY181031AY221031GF107991061021004501071999MA1999999099881MD1810301+9999MW1251REMSYN072AAXX  13034 47678 41465 71709 10179 20153 39988 40082 58030 72582 8627/;
0101476780999992000011304004+33100+139780FM-12+008099999V0201701N004119999999N9999999N1+01751+01571100701ADDMA1999999099761MD1810401+9999REMSYN060AAXX  13044 47678 46/// /1708 10175 20157 39976 40070 58040;
0101476780999992000011305004+33100+139780FM-12+008099999V0201901N006219999999N9999999N1+01761+01631100601ADDMA1999999099661MD1610401+9999REMSYN060AAXX  13054 47678 46/// /1912 10176 20163 39966 40060 56040;
0171476780999992000011306004+33100+139780FM-12+008099999V0202001N008210042019N0150001N1+01871+01701100521ADDAY181061AY221061GF108991061021004501071999MA1999999099591MD1610291+9999MW1251REMSYN082AAXX  13064 47678 41465 82016 10187 20170 39959 40052 56029 72582 8627/ 555 00187;
0101476780999992000011307004+33100+139780FM-12+008099999V0202101N007219999999N9999999N1+01891+01721100501ADDMA1999999099571MD1610191+9999REMSYN060AAXX  13074 47678 46/// /2114 10189 20172 39957 40050 56019;
0101476780999992000011308004+33100+139780FM-12+008099999V0202201N008219999999N9999999N1+01871+01741100511ADDMA1999999099581MD1510081+9999REMSYN060AAXX  13084 47678 46/// /2216 10187 20174 39958 40051 55008;
0161476780999992000011309004+33100+139780FM-12+008099999V0202201N008210042019N0100001N1+01861+01711100551ADDAY181031AY221031GF107991051021004501071999MA1999999099621MD1310031+9999MW1021REMSYN072AAXX  13094 47678 41460 72216 10186 20171 39962 40055 53003 70282 8527/;
0101476780999992000011310004+33100+139780FM-12+008099999V0202401N009319999999N9999999N1+01821+01691100581ADDMA1999999099641MD1310071+9999REMSYN060AAXX  13104 47678 46/// /2418 10182 20169 39964 40058 53007;
0101476780999992000011311004+33100+139780FM-12+008099999V0202301N009819999999N9999999N1+01811+01661100621ADDMA1999999099681MD1210101+9999REMSYN060AAXX  13114 47678 46/// /2319 10181 20166 39968 40062 52010;
0201476780999992000011312004+33100+139780FM-12+008099999V0202601N004619999999N0100001N1+01781+01671100651ADDAA112002091AY181061AY221061GF108991081021999999999999KA1999M+01911MA1999999099711MD1310091+9999MW1251REMSYN088AAXX  13124 47678 11/60 82609 10178 20167 39971 40065 53009 60022 72582 882// 333 10191;
0101476780999992000011313004+33100+139780FM-12+008099999V0202301N009319999999N9999999N1+01771+01661100691ADDMA1999999099751MD1210111+9999REMSYN060AAXX  13134 47678 46/// /2318 10177 20166 39975 40069 52011;
0101476780999992000011314004+33100+139780FM-12+008099999V0202701N004119999999N9999999N1+01751+01641100701ADDMA1999999099761MD1110081+9999REMSYN060AAXX  13144 47678 46/// /2708 10175 20164 39976 40070 51008;
0101476780999992000011315004+33100+139780FM-12+008099999V0202601N005119999999N9999999N1+01671+01571100661ADDMA1999999099721MD1010011+9999REMSYN060AAXX  13154 47678 46/// /2610 10167 20157 39972 40066 50001;
0101476780999992000011316004+33100+139780FM-12+008099999V0202701N004619999999N9999999N1+01651+01551100681ADDMA1999999099741MD1510011+9999REMSYN060AAXX  13164 47678 46/// /2709 10165 20155 39974 40068 55001;
0101476780999992000011317004+33100+139780FM-12+008099999V0202701N003119999999N9999999N1+01551+01491100721ADDMA1999999099771MD1310011+9999REMSYN060AAXX  13174 47678 46/// /2706 10155 20149 39977 40072 53001;
0161476780999992000011318004+33100+139780FM-12+008099999V0202701N005710900019N0150001N1+01531+01451100731ADDAY181061AY221061GF107991041021004501001021MA1999999099781MD1110061+9999MW1251REMSYN072AAXX  13184 47678 41465 72711 10153 20145 39978 40073 51006 72582 84202;
0101476780999992000011319004+33100+139780FM-12+008099999V0202701N004119999999N9999999N1+01431+01321100731ADDMA1999999099781MD1110041+9999REMSYN060AAXX  13194 47678 46/// /2708 10143 20132 39978 40073 51004;
0105476780999992000011320004+33100+139780FM-12+008099999V0202701N004619999999N9999999N1+01441+01311100801ADDMA1999999099851MD1310081+9999REMSYN064    AAXX  13204 47678 46/// /2709 10144 20131 39985 40080 53008;
0137476780999992000011321004+33100+139780FM-12+008099999V0202801N006210042019N0200001N1+01431+01161100961ADDGF107991071021004501999999MA1999999100011MD1310231+9999REMSYN070    AAXX  13214 47678 42470 72812 10143 20116 30001 40096 53023 872//;
0105476780999992000011322004+33100+139780FM-12+008099999V0202801N006719999999N9999999N1+01381+01061101041ADDMA1999999100081MD1210301+9999REMSYN064    AAXX  13224 47678 46/// /2813 10138 20106 30008 40104 52030;
0105476780999992000011323004+33100+139780FM-12+008099999V0202801N005719999999N9999999N1+01381+01041101091ADDMA1999999100131MD1110281+9999REMSYN064    AAXX  13234 47678 46/// /2811 10138 20104 30013 40109 51028;
0177476780999992000011400004+33100+139780FM-12+008099999V0202801N007212200019N0300001N1+01471+01051101141ADDAA112002091GF102991011011999999031011KA1999N+01361MA1999999100191MD1110181+9999REMSYN086    AAXX  14004 47678 12/80 22814 10147 20105 30019 40114 51018 60022 81131 333 20136;
0105476780999992000011401004+33100+139780FM-12+008099999V0202801N006219999999N9999999N1+01521+01041101201ADDMA1999999100251MD1310171+9999REMSYN064    AAXX  14014 47678 46/// /2812 10152 20104 30025 40120 53017;
0105476780999992000011402004+33100+139780FM-12+008099999V0202901N007219999999N9999999N1+01581+00991101211ADDMA1999999100261MD1110131+9999REMSYN064    AAXX  14024 47678 46/// /2914 10158 20099 30026 40121 51013;
0137476780999992000011403004+33100+139780FM-12+008099999V0202801N008712200019N0300001N1+01571+00911101161ADDGF102991011011999999031021MA1999999100211MD1010021+9999REMSYN070    AAXX  14034 47678 42/80 22817 10157 20091 30021 40116 50002 81132;
0105476780999992000011404004+33100+139780FM-12+008099999V0202801N008219999999N9999999N1+01471+00841101091ADDMA1999999100141MD1810111+9999REMSYN064    AAXX  14044 47678 46/// /2816 10147 20084 30014 40109 58011;
0105476780999992000011405004+33100+139780FM-12+008099999V0202801N007719999999N9999999N1+01501+00801101111ADDMA1999999100161MD1510101+9999REMSYN064    AAXX  14054 47678 46/// /2815 10150 20080 30016 40111 55010;
0147476780999992000011406004+33100+139780FM-12+008099999V0202901N007219999999N0300001N1+01361+00741101201ADDGF107991011011999999031021MA1999999100241MD1310031+9999REMSYN080    AAXX  14064 47678 42/80 72914 10136 20074 30024 40120 53003 81132 555 00167;
0105476780999992000011407004+33100+139780FM-12+008099999V0202701N007219999999N9999999N1+01311+00731101251ADDMA1999999100291MD1310151+9999REMSYN064    AAXX  14074 47678 46/// /2714 10131 20073 30029 40125 53015;
0105476780999992000011408004+33100+139780FM-12+008099999V0202701N006219999999N9999999N1+01281+00731101311ADDMA1999999100351MD1110191+9999REMSYN064    AAXX  14084 47678 46/// /2712 10128 20073 30035 40131 51019;
0137476780999992000011409004+33100+139780FM-12+008099999V0202701N006719999999N0300001N1+01271+00701101361ADDGF107991011001999999031021MA1999999100401MD1210161+9999REMSYN070    AAXX  14094 47678 42980 72713 10127 20070 30040 40136 52016 81032;
0105476780999992000011410004+33100+139780FM-12+008099999V0202701N008219999999N9999999N1+01261+00691101431ADDMA1999999100471MD1310181+9999REMSYN064    AAXX  14104 47678 46/// /2716 10126 20069 30047 40143 53018;
0105476780999992000011411004+33100+139780FM-12+008099999V0202701N005719999999N9999999N1+01231+00701101461ADDMA1999999100501MD1110151+9999REMSYN064    AAXX  14114 47678 46/// /2711 10123 20070 30050 40146 51015;
0190476780999992000011412004+33100+139780FM-12+008099999V0202701N005119999999N0300001N1+01211+00701101471ADDAA199000091GF106991031001999999031021KA1999M+01601MA1999999100501MD1110101+9999REMSYN080    AAXX  14124 47678 32/80 62710 10121 20070 30050 40147 51010 83032 333 10160;EQDQ01  00002PRCP99
0105476780999992000011413004+33100+139780FM-12+008099999V0202701N006719999999N9999999N1+01221+00671101491ADDMA1999999100521MD1110051+9999REMSYN064    AAXX  14134 47678 46/// /2713 10122 20067 30052 40149 51005;
0105476780999992000011414004+33100+139780FM-12+008099999V0202701N006219999999N9999999N1+01241+00671101491ADDMA1999999100531MD1310031+9999REMSYN064    AAXX  14144 47678 46/// /2712 10124 20067 30053 40149 53003;
0105476780999992000011415004+33100+139780FM-12+008099999V0202701N006219999999N9999999N1+01241+00711101481ADDMA1999999100521MD1010021+9999REMSYN064    AAXX  14154 47678 46/// /2712 10124 20071 30052 40148 50002;
0105476780999992000011416004+33100+139780FM-12+008099999V0202701N005119999999N9999999N1+01171+00761101491ADDMA1999999100521MD1010001+9999REMSYN064    AAXX  14164 47678 46/// /2710 10117 20076 30052 40149 50000;
0105476780999992000011417004+33100+139780FM-12+008099999V0202701N004619999999N9999999N1+01171+00761101511ADDMA1999999100541MD1310011+9999REMSYN064    AAXX  14174 47678 46/// /2709 10117 20076 30054 40151 53001;
0137476780999992000011418004+33100+139780FM-12+008099999V0202801N005119999999N0300001N1+01201+00731101531ADDGF107991031001999999031021MA1999999100561MD1310041+9999REMSYN070    AAXX  14184 47678 42/80 72810 10120 20073 30056 40153 53004 83032;
0105476780999992000011419004+33100+139780FM-12+008099999V0202901N003619999999N9999999N1+01201+00691101551ADDMA1999999100581MD1210061+9999REMSYN064    AAXX  14194 47678 46/// /2907 10120 20069 30058 40155 52006;
0105476780999992000011420004+33100+139780FM-12+008099999V0202801N004119999999N9999999N1+01191+00681101591ADDMA1999999100621MD1310081+9999REMSYN064    AAXX  14204 47678 46/// /2808 10119 20068 30062 40159 53008;
0137476780999992000011421004+33100+139780FM-12+008099999V0202901N004619999999N0300001N1+01151+00641101631ADDGF105991011011999999031021MA1999999100661MD1310101+9999REMSYN070    AAXX  14214 47678 42/80 52909 10115 20064 30066 40163 53010 81132;
0105476780999992000011422004+33100+139780FM-12+008099999V0203001N002619999999N9999999N1+01101+00571101671ADDMA1999999100701MD1210121+9999REMSYN064    AAXX  14224 47678 46/// /3005 10110 20057 30070 40167 52012;
0105476780999992000011423004+33100+139780FM-12+008099999V0202901N004619999999N9999999N1+01221+00561101751ADDMA1999999100781MD1310161+9999REMSYN064    AAXX  14234 47678 46/// /2909 10122 20056 30078 40175 53016;
0190476780999992000011500004+33100+139780FM-12+008099999V0202901N005712200019N0400001N1+01331+00601101791ADDAA199000091GF102991021021999999001001KA1999N+01061MA1999999100831MD1310171+9999REMSYN080    AAXX  15004 47678 32/82 22911 10133 20060 30083 40179 53017 82200 333 20106;EQDQ01  00002PRCP99
0105476780999992000011501004+33100+139780FM-12+008099999V0202801N006719999999N9999999N1+01301+00521101821ADDMA1999999100851MD1110151+9999REMSYN064    AAXX  15014 47678 46/// /2813 10130 20052 30085 40182 51015;
0105476780999992000011502004+33100+139780FM-12+008099999V0202901N007219999999N9999999N1+01431+00541101781ADDMA1999999100821MD1010041+9999REMSYN064    AAXX  15024 47678 46/// /2914 10143 20054 30082 40178 50004;
0137476780999992000011503004+33100+139780FM-12+008099999V0203001N005712200019N0400001N1+01361+00551101721ADDGF103991031021999999001001MA1999999100761MD1810071+9999REMSYN070    AAXX  15034 47678 42/82 33011 10136 20055 30076 40172 58007 83200;
0105476780999992000011504004+33100+139780FM-12+008099999V0202801N006219999999N9999999N1+01441+00501101681ADDMA1999999100721MD1810131+9999REMSYN064    AAXX  15044 47678 46/// /2812 10144 20050 30072 40168 58013;
0105476780999992000011505004+33100+139780FM-12+008099999V0202801N005119999999N9999999N1+01411+00521101651ADDMA1999999100691MD1610131+9999REMSYN064    AAXX  15054 47678 46/// /2810 10141 20052 30069 40165 56013;
0137476780999992000011506004+33100+139780FM-12+008099999V0203501N002612200019N0400001N1+01381+00541101661ADDGF101991011021999999001011MA1999999100701MD1510061+9999REMSYN070    AAXX  15064 47678 42/82 13505 10138 20054 30070 40166 55006 81201;
0105476780999992000011507004+33100+139780FM-12+008099999V0203401N002119999999N9999999N1+01341+00651101721ADDMA1999999100761MD1310041+9999REMSYN064    AAXX  15074 47678 46/// /3404 10134 20065 30076 40172 53004;
0105476780999992000011508004+33100+139780FM-12+008099999V0200701N001519999999N9999999N1+01161+00861101771ADDMA1999999100801MD1310111+9999REMSYN064    AAXX  15084 47678 46/// /0703 10116 20086 30080 40177 53011;
0165476780999992000011509004+33100+139780FM-12+008099999V0200401N009310075019N0200001N1+01241+00791101861ADDAY111031AY211031GF107991071021008001999999MA1999999100891MD1310191+9999MW1251REMSYN076    AAXX  15094 47678 41570 70418 10124 20079 30089 40186 53019 72511 872//;
0105476780999992000011510004+33100+139780FM-12+008099999V0200501N007219999999N9999999N1+01241+00731101951ADDMA1999999100981MD1310221+9999REMSYN064    AAXX  15104 47678 46/// /0514 10124 20073 30098 40195 53022;
0105476780999992000011511004+33100+139780FM-12+008099999V0200501N006219999999N9999999N1+01211+00701102021ADDMA1999999101051MD1110251+9999REMSYN064    AAXX  15114 47678 46/// /0512 10121 20070 30105 40202 51025;
0205476780999992000011512004+33100+139780FM-12+008099999V0200501N006719999999N0300001N1+01221+00671102031ADDAA112000791AY181061AY211061GF106991051021999999031001KA1999M+01501MA1999999101061MD1110171+9999MW1021REMSYN092    AAXX  15124 47678 11/80 60513 10122 20067 30106 40203 51017 69902 70281 85230 333 10150;
0105476780999992000011513004+33100+139780FM-12+008099999V0200501N007719999999N9999999N1+01231+00571101981ADDMA1999999101011MD1010031+9999REMSYN064    AAXX  15134 47678 46/// /0515 10123 20057 30101 40198 50003;
0105476780999992000011514004+33100+139780FM-12+008099999V0200501N007719999999N9999999N1+01241+00491101931ADDMA1999999100961MD1810091+9999REMSYN064    AAXX  15144 47678 46/// /0515 10124 20049 30096 40193 58009;
0105476780999992000011515004+33100+139780FM-12+008099999V0200501N007719999999N9999999N1+01231+00451101901ADDMA1999999100931MD1610131+9999REMSYN064    AAXX  15154 47678 46/// /0515 10123 20045 30093 40190 56013;
0105476780999992000011516004+33100+139780FM-12+008099999V0200601N006719999999N9999999N1+01251+00401101971ADDMA1999999101001MD1510011+9999REMSYN064    AAXX  15164 47678 46/// /0613 10125 20040 30100 40197 55001;
0105476780999992000011517004+33100+139780FM-12+008099999V0200501N006219999999N9999999N1+01261+00431102021ADDMA1999999101051MD1310091+9999REMSYN064    AAXX  15174 47678 46/// /0512 10126 20043 30105 40202 53009;
0137476780999992000011518004+33100+139780FM-12+008099999V0200601N004619999999N0300001N1+01271+00491102021ADDGF108991081021999999999999MA1999999101051MD1110121+9999REMSYN070    AAXX  15184 47678 42/80 80609 10127 20049 30105 40202 51012 882//;
0105476780999992000011519004+33100+139780FM-12+008099999V0200701N004119999999N9999999N1+01231+00501101971ADDMA1999999101001MD1010001+9999REMSYN064    AAXX  15194 47678 46/// /0708 10123 20050 30100 40197 50000;
0137476780999992000011521004+33100+139780FM-12+008099999V0200701N005119999999N0300001N1+01271+00631101951ADDGF107991031021999999031021MA1999999100981MD1610071+9999REMSYN070    AAXX  15214 47678 42/80 70710 10127 20063 30098 40195 56007 83232;
0105476780999992000011522004+33100+139780FM-12+008099999V0200701N005119999999N9999999N1+01291+00651101951ADDMA1999999100981MD1610021+9999REMSYN064    AAXX  15224 47678 46/// /0710 10129 20065 30098 40195 56002;
0105476780999992000011523004+33100+139780FM-12+008099999V0200701N005719999999N9999999N1+01311+00651101961ADDMA1999999100991MD1510001+9999REMSYN064    AAXX  15234 47678 46/// /0711 10131 20065 30099 40196 55000;
0190476780999992000011600004+33100+139780FM-12+008099999V0200601N006219999999N0300001N1+01501+00751101951ADDAA199000091GF107991071021999999031001KA1999N+01201MA1999999100991MD1210011+9999REMSYN080    AAXX  16004 47678 32/80 70612 10150 20075 30099 40195 52001 87230 333 20120;EQDQ01  00002PRCP99
0105476780999992000011601004+33100+139780FM-12+008099999V0200601N006719999999N9999999N1+01551+00751101941ADDMA1999999100981MD1010001+9999REMSYN064    AAXX  16014 47678 46/// /0613 10155 20075 30098 40194 50000;
0105476780999992000011602004+33100+139780FM-12+008099999V0200601N005119999999N9999999N1+01591+00811101901ADDMA1999999100941MD1810051+9999REMSYN064    AAXX  16024 47678 46/// /0610 10159 20081 30094 40190 58005;
0137476780999992000011603004+33100+139780FM-12+008099999V0200701N006219999999N0300001N1+01501+00851101781ADDGF107991021021999999071999MA1999999100821MD1810171+9999REMSYN070    AAXX  16034 47678 42/80 70712 10150 20085 30082 40178 58017 8227/;
0105476780999992000011604004+33100+139780FM-12+008099999V0200601N006219999999N9999999N1+01551+00871101671ADDMA1999999100711MD1810271+9999REMSYN064    AAXX  16044 47678 46/// /0612 10155 20087 30071 40167 58027;
0105476780999992000011605004+33100+139780FM-12+008099999V0200601N006719999999N9999999N1+01441+00861101601ADDMA1999999100641MD1610301+9999REMSYN064    AAXX  16054 47678 46/// /0613 10144 20086 30064 40160 56030;
0147476780999992000011606004+33100+139780FM-12+008099999V0200601N005719999999N0300001N1+01421+00921101621ADDGF107991021021999999071999MA1999999100661MD1510161+9999REMSYN080    AAXX  16064 47678 42/80 70611 10142 20092 30066 40162 55016 8227/ 555 00163;
0105476780999992000011607004+33100+139780FM-12+008099999V0200601N007219999999N9999999N1+01401+00921101581ADDMA1999999100621MD1610091+9999REMSYN064    AAXX  16074 47678 46/// /0614 10140 20092 30062 40158 56009;
0105476780999992000011608004+33100+139780FM-12+008099999V0200701N007719999999N9999999N1+01391+00851101531ADDMA1999999100571MD1810071+9999REMSYN064    AAXX  16084 47678 46/// /0715 10139 20085 30057 40153 58007;
0165476780999992000011609004+33100+139780FM-12+008099999V0200801N007219999999N0300001N1+01401+00841101521ADDAY181031AY221031GF107991011021999999071999MA1999999100561MD1610101+9999MW1801REMSYN076    AAXX  16094 47678 41/80 70814 10140 20084 30056 40152 56010 78082 8127/;
0105476780999992000011610004+33100+139780FM-12+008099999V0200801N006719999999N9999999N1+01431+00871101541ADDMA1999999100581MD1510041+9999REMSYN064    AAXX  16104 47678 46/// /0813 10143 20087 30058 40154 55004;
0105476780999992000011611004+33100+139780FM-12+008099999V0200701N005119999999N9999999N1+01411+00971101531ADDMA1999999100571MD1410001+9999REMSYN064    AAXX  16114 47678 46/// /0710 10141 20097 30057 40153 54000;
0205476780999992000011612004+33100+139780FM-12+008099999V0200801N005110360019N0300001N1+01281+01001101451ADDAA112000591AY181061AY221061GF107991031021008001071999KA1999M+01631MA1999999100491MD1810071+9999MW1251REMSYN092    AAXX  16124 47678 11580 70810 10128 20100 30049 40145 58007 69952 72582 8327/ 333 10163;
0105476780999992000011613004+33100+139780FM-12+008099999V0200801N005719999999N9999999N1+01351+01011101381ADDMA1999999100421MD1810161+9999REMSYN064    AAXX  16134 47678 46/// /0811 10135 20101 30042 40138 58016;
0105476780999992000011614004+33100+139780FM-12+008099999V0200901N006719999999N9999999N1+01341+01081101301ADDMA1999999100341MD1710231+9999REMSYN064    AAXX  16144 47678 46/// /0913 10134 20108 30034 40130 57023;
0105476780999992000011615004+33100+139780FM-12+008099999V0200901N005719999999N9999999N1+01361+01061101211ADDMA1999999100251MD1810241+9999REMSYN064    AAXX  16154 47678 46/// /0911 10136 20106 30025 40121 58024;
0105476780999992000011616004+33100+139780FM-12+008099999V0200701N003119999999N9999999N1+01271+01131101141ADDMA1999999100181MD1610241+9999REMSYN064    AAXX  16164 47678 46/// /0706 10127 20113 30018 40114 56024;
0105476780999992000011617004+33100+139780FM-12+008099999V0201001N004119999999N9999999N1+01331+01151101091ADDMA1999999100131MD1610211+9999REMSYN064    AAXX  16174 47678 46/// /1008 10133 20115 30013 40109 56021;
0165476780999992000011618004+33100+139780FM-12+008099999V0201101N004610360019N0150001N1+01381+01181100951ADDAY181061AY261061GF108991021071004501021999MA1999999100001MD1810251+9999MW1631REMSYN076    AAXX  16184 47678 41465 81109 10138 20118 30000 40095 58025 76386 8272/;
0105476780999992000011619004+33100+139780FM-12+008099999V0201801N002119999999N9999999N1+01401+01261100881ADDMA1999999099931MD1810251+9999REMSYN064    AAXX  16194 47678 46/// /1804 10140 20126 39993 40088 58025;
0105476780999992000011620004+33100+139780FM-12+008099999V0201701N006719999999N9999999N1+01411+01301100821ADDMA1999999099871MD1610261+9999REMSYN064    AAXX  16204 47678 46/// /1713 10141 20130 39987 40082 56026;
0165476780999992000011621004+33100+139780FM-12+008099999V0201601N005110360019N0200001N1+01461+01331100801ADDAY181031AY261031GF107991021021004501071999MA1999999099851MD1610151+9999MW1251REMSYN076    AAXX  16214 47678 41470 71610 10146 20133 39985 40080 56015 72586 8227/;
0105476780999992000011622004+33100+139780FM-12+008099999V0202101N003119999999N9999999N1+01491+01391100821ADDMA1999999099871MD1510061+9999REMSYN064    AAXX  16224 47678 46/// /2106 10149 20139 39987 40082 55006;
0105476780999992000011623004+33100+139780FM-12+008099999V0202101N002619999999N9999999N1+01511+01361100791ADDMA1999999099841MD1810031+9999REMSYN064    AAXX  16234 47678 46/// /2105 10151 20136 39984 40079 58003;
0205476780999992000011700004+33100+139780FM-12+008099999V0202201N003110042019N0300001N1+01571+01421100761ADDAA112013091AY181061AY261061GF107991061021004501031021KA1999N+01251MA1999999099811MD1810041+9999MW1251REMSYN092    AAXX  17004 47678 11480 72206 10157 20142 39981 40076 58004 60132 72586 86232 333 20125;
0105476780999992000011701004+33100+139780FM-12+008099999V0202701N005119999999N9999999N1+01701+01451100711ADDMA1999999099771MD1810101+9999REMSYN064    AAXX  17014 47678 46/// /2710 10170 20145 39977 40071 58010;
0105476780999992000011702004+33100+139780FM-12+008099999V0200201N003119999999N9999999N1+01621+01331100671ADDMA1999999099731MD1810111+9999REMSYN064    AAXX  17024 47678 46/// /0206 10162 20133 39973 40067 58011;
0165476780999992000011703004+33100+139780FM-12+008099999V0200301N007210042019N0200001N1+01581+01331100611ADDAY111031AY211031GF107991071021004501999999MA1999999099671MD1810141+9999MW1251REMSYN076    AAXX  17034 47678 41470 70314 10158 20133 39967 40061 58014 72511 872//;
0105476780999992000011704004+33100+139780FM-12+008099999V0200401N011319999999N9999999N1+01331+01151100641ADDMA1999999099691MD1510081+9999REMSYN064    AAXX  17044 47678 46/// /0422 10133 20115 39969 40064 55008;
0105476780999992000011705004+33100+139780FM-12+008099999V0200401N011319999999N9999999N1+01251+01111100641ADDMA1999999099681MD1610051+9999REMSYN064    AAXX  17054 47678 46/// /0422 10125 20111 39968 40064 56005;
0175476780999992000011706004+33100+139780FM-12+008099999V0200401N011310042019N0200001N1+01281+01101100641ADDAY181061AY211061GF108991081021004501999999MA1999999099681MD1110011+9999MW1801REMSYN086    AAXX  17064 47678 41470 80422 10128 20110 39968 40064 51001 78081 882// 555 00173;
0105476780999992000011707004+33100+139780FM-12+008099999V0200401N009319999999N9999999N1+01341+01061100681ADDMA1999999099731MD1310041+9999REMSYN064    AAXX  17074 47678 46/// /0418 10134 20106 39973 40068 53004;
0105476780999992000011708004+33100+139780FM-12+008099999V0200401N007219999999N9999999N1+01361+01021100771ADDMA1999999099821MD1310141+9999REMSYN064    AAXX  17084 47678 46/// /0414 10136 20102 39982 40077 53014;
0165476780999992000011709004+33100+139780FM-12+008099999V0200201N007710042019N0200001N1+01291+01101100881ADDAY181031AY221031GF108991081021004501999999MA1999999099921MD1310241+9999MW1021REMSYN076    AAXX  17094 47678 41470 80215 10129 20110 39992 40088 53024 70282 882//;
0105476780999992000011710004+33100+139780FM-12+008099999V0200301N008719999999N9999999N1+01271+01091100921ADDMA1999999099961MD1110231+9999REMSYN064    AAXX  17104 47678 46/// /0317 10127 20109 39996 40092 51023;
0105476780999992000011711004+33100+139780FM-12+008099999V0200301N008719999999N9999999N1+01231+01051100881ADDMA1999999099921MD1010101+9999REMSYN064    AAXX  17114 47678 46/// /0317 10123 20105 39992 40088 50010;
0205476780999992000011712004+33100+139780FM-12+008099999V0200301N008710042019N0150001N1+01211+01021100851ADDAA112000791AY181061AY221061GF108991081021004501999999KA1999M+01731MA1999999099891MD1810031+9999MW1801REMSYN092    AAXX  17124 47678 11465 80317 10121 20102 39989 40085 58003 69902 78082 882// 333 10173;
0105476780999992000011713004+33100+139780FM-12+008099999V0200301N008219999999N9999999N1+01171+00961100901ADDMA1999999099941MD1510021+9999REMSYN064    AAXX  17134 47678 46/// /0316 10117 20096 39994 40090 55002;
0105476780999992000011714004+33100+139780FM-12+008099999V0200401N009819999999N9999999N1+01191+00961100811ADDMA1999999099851MD1810071+9999REMSYN064    AAXX  17144 47678 46/// /0419 10119 20096 39985 40081 58007;
0105476780999992000011715004+33100+139780FM-12+008099999V0200301N010319999999N9999999N1+01191+00911100851ADDMA1999999099891MD1010001+9999REMSYN064    AAXX  17154 47678 46/// /0320 10119 20091 39989 40085 50000;
0105476780999992000011716004+33100+139780FM-12+008099999V0200301N009319999999N9999999N1+01141+00861100861ADDMA1999999099901MD1510041+9999REMSYN064    AAXX  17164 47678 46/// /0318 10114 20086 39990 40086 55004;
0105476780999992000011717004+33100+139780FM-12+008099999V0200401N010819999999N9999999N1+01121+00841100791ADDMA1999999099831MD1810021+9999REMSYN064    AAXX  17174 47678 46/// /0421 10112 20084 39983 40079 58002;
0165476780999992000011718004+33100+139780FM-12+008099999V0200401N010810042019N0150001N1+01101+00821100821ADDAY181061AY221061GF107991071021004501999999MA1999999099861MD1510031+9999MW1021REMSYN076    AAXX  17184 47678 41465 70421 10110 20082 39986 40082 55003 70282 872//;
0105476780999992000011719004+33100+139780FM-12+008099999V0200501N010819999999N9999999N1+01081+00791100831ADDMA1999999099871MD1510031+9999REMSYN064    AAXX  17194 47678 46/// /0521 10108 20079 39987 40083 55003;
0105476780999992000011720004+33100+139780FM-12+008099999V0200501N009819999999N9999999N1+01111+00801100841ADDMA1999999099881MD1110051+9999REMSYN064    AAXX  17204 47678 46/// /0519 10111 20080 39988 40084 51005;
0137476780999992000011721004+33100+139780FM-12+008099999V0200501N008710042019N0200001N1+01141+00811100921ADDGF107991071021004501999999MA1999999099961MD1310101+9999REMSYN070    AAXX  17214 47678 42470 70517 10114 20081 39996 40092 53010 872//;
0105476780999992000011722004+33100+139780FM-12+008099999V0200501N008719999999N9999999N1+01171+00801101001ADDMA1999999100041MD1310171+9999REMSYN064    AAXX  17224 47678 46/// /0517 10117 20080 30004 40100 53017;
0105476780999992000011723004+33100+139780FM-12+008099999V0200501N008719999999N9999999N1+01201+00811101011ADDMA1999999100051MD1110171+9999REMSYN064    AAXX  17234 47678 46/// /0517 10120 20081 30005 40101 51017;
0177476780999992000011800004+33100+139780FM-12+008099999V0200501N008719999999N0200001N1+01241+00751101061ADDAA112000791GF105991051021999999001001KA1999N+01071MA1999999100101MD1110141+9999REMSYN086    AAXX  18004 47678 12/70 50517 10124 20075 30010 40106 51014 69902 85200 333 20107;
0105476780999992000011801004+33100+139780FM-12+008099999V0200501N008719999999N9999999N1+01371+00721101051ADDMA1999999100091MD1010051+9999REMSYN064    AAXX  18014 47678 46/// /0517 10137 20072 30009 40105 50005;
0105476780999992000011802004+33100+139780FM-12+008099999V0200501N008719999999N9999999N1+01351+00711101031ADDMA1999999100071MD1010021+9999REMSYN064    AAXX  18024 47678 46/// /0517 10135 20071 30007 40103 50002;
0137476780999992000011803004+33100+139780FM-12+008099999V0200501N007719999999N0300001N1+01281+00661100961ADDGF106991021021999999071001MA1999999100001MD1810101+9999REMSYN070    AAXX  18034 47678 42/80 60515 10128 20066 30000 40096 58010 82270;
0105476780999992000011804004+33100+139780FM-12+008099999V0200501N009319999999N9999999N1+01371+00681100911ADDMA1999999099961MD1810131+9999REMSYN064    AAXX  18044 47678 46/// /0518 10137 20068 39996 40091 58013;
0105476780999992000011805004+33100+139780FM-12+008099999V0200501N007719999999N9999999N1+01291+00601100941ADDMA1999999099981MD1510091+9999REMSYN064    AAXX  18054 47678 46/// /0515 10129 20060 39998 40094 55009;
0147476780999992000011806004+33100+139780FM-12+008099999V0200501N007719999999N0400001N1+01261+00621100961ADDGF107991021021999999071999MA1999999100001MD1510001+9999REMSYN080    AAXX  18064 47678 42/82 70515 10126 20062 30000 40096 55000 8227/ 555 00144;
0105476780999992000011807004+33100+139780FM-12+008099999V0200501N007719999999N9999999N1+01211+00601100961ADDMA1999999100001MD1110041+9999REMSYN064    AAXX  18074 47678 46/// /0515 10121 20060 30000 40096 51004;
0105476780999992000011808004+33100+139780FM-12+008099999V0200501N007219999999N9999999N1+01191+00601101021ADDMA1999999100061MD1310081+9999REMSYN064    AAXX  18084 47678 46/// /0514 10119 20060 30006 40102 53008;
0137476780999992000011809004+33100+139780FM-12+008099999V0200601N007219999999N0300001N1+01201+00631101091ADDGF108991081001999999071999MA1999999100131MD1310131+9999REMSYN070    AAXX  18094 47678 42980 80614 10120 20063 30013 40109 53013 8807/;
0105476780999992000011810004+33100+139780FM-12+008099999V0200601N006719999999N9999999N1+01201+00671101141ADDMA1999999100181MD1110181+9999REMSYN064    AAXX  18104 47678 46/// /0613 10120 20067 30018 40114 51018;
0105476780999992000011811004+33100+139780FM-12+008099999V0200501N007219999999N9999999N1+01211+00681101161ADDMA1999999100201MD1110141+9999REMSYN064    AAXX  18114 47678 46/// /0514 10121 20068 30020 40116 51014;
0205476780999992000011812004+33100+139780FM-12+008099999V0200501N007710360019N0300001N1+01211+00701101161ADDAA112000791AY181061AY221061GF108991021021008001071999KA1999M+01441MA1999999100201MD1110071+9999MW1251REMSYN092    AAXX  18124 47678 11580 80515 10121 20070 30020 40116 51007 69902 72582 8227/ 333 10144;
0105476780999992000011813004+33100+139780FM-12+008099999V0200501N006719999999N9999999N1+01221+00751101161ADDMA1999999100201MD1110021+9999REMSYN064    AAXX  18134 47678 46/// /0513 10122 20075 30020 40116 51002;
0105476780999992000011814004+33100+139780FM-12+008099999V0200601N007219999999N9999999N1+01221+00711101171ADDMA1999999100211MD1310011+9999REMSYN064    AAXX  18144 47678 46/// /0614 10122 20071 30021 40117 53001;
0105476780999992000011815004+33100+139780FM-12+008099999V0200601N006219999999N9999999N1+01211+00681101171ADDMA1999999100211MD1210011+9999REMSYN064    AAXX  18154 47678 46/// /0612 10121 20068 30021 40117 52001;
0105476780999992000011816004+33100+139780FM-12+008099999V0200601N005719999999N9999999N1+01211+00641101181ADDMA1999999100221MD1210021+9999REMSYN064    AAXX  18164 47678 46/// /0611 10121 20064 30022 40118 52002;
0105476780999992000011817004+33100+139780FM-12+008099999V0200701N005119999999N9999999N1+01221+00691101181ADDMA1999999100221MD1210011+9999REMSYN064    AAXX  18174 47678 46/// /0710 10122 20069 30022 40118 52001;
0165476780999992000011818004+33100+139780FM-12+008099999V0200901N004610075019N0300001N1+01181+00751101151ADDAY121061AY221061GF108991061021008001071999MA1999999100191MD1810021+9999MW1801REMSYN076    AAXX  18184 47678 41580 80909 10118 20075 30019 40115 58002 78022 8627/;
0105476780999992000011819004+33100+139780FM-12+008099999V0200801N002119999999N9999999N1+01021+00731101161ADDMA1999999100191MD1710031+9999REMSYN064    AAXX  18194 47678 46/// /0804 10102 20073 30019 40116 57003;
0105476780999992000011820004+33100+139780FM-12+008099999V0200901N004119999999N9999999N1+01081+00691101171ADDMA1999999100201MD1510021+9999REMSYN064    AAXX  18204 47678 46/// /0908 10108 20069 30020 40117 55002;
0165476780999992000011821004+33100+139780FM-12+008099999V0200701N002619999999N0300001N1+01051+00741101221ADDAY181031AY281031GF108991031021999999071999MA1999999100251MD1310061+9999MW1801REMSYN076    AAXX  18214 47678 41/80 80705 10105 20074 30025 40122 53006 78088 8327/;
0105476780999992000011822004+33100+139780FM-12+008099999V0200601N003619999999N9999999N1+01091+00781101271ADDMA1999999100301MD1310111+9999REMSYN064    AAXX  18224 47678 46/// /0607 10109 20078 30030 40127 53011;
0105476780999992000011823004+33100+139780FM-12+008099999V0200501N004119999999N9999999N1+01191+00821101301ADDMA1999999100341MD1110141+9999REMSYN064    AAXX  18234 47678 46/// /0508 10119 20082 30034 40130 51014;
0205476780999992000011900004+33100+139780FM-12+008099999V0200701N003610360019N0300001N1+01231+00821101351ADDAA112000791AY181061AY221061GF107991021021008001071999KA1999N+01011MA1999999100391MD1210141+9999MW1021REMSYN092    AAXX  19004 47678 11580 70707 10123 20082 30039 40135 52014 69902 70282 8227/ 333 20101;
0105476780999992000011901004+33100+139780FM-12+008099999V0201201N003619999999N9999999N1+01311+00841101351ADDMA1999999100391MD1110091+9999REMSYN064    AAXX  19014 47678 46/// /1207 10131 20084 30039 40135 51009;
0105476780999992000011902004+33100+139780FM-12+008099999V0201301N001519999999N9999999N1+01421+00821101281ADDMA1999999100321MD1810021+9999REMSYN064    AAXX  19024 47678 46/// /1303 10142 20082 30032 40128 58002;
0165476780999992000011903004+33100+139780FM-12+008099999V0202301N002612200019N0300001N1+01491+00841101181ADDAY181031AY211031GF103991021021999999031001MA1999999100231MD1810161+9999MW1021REMSYN076    AAXX  19034 47678 41/80 32305 10149 20084 30023 40118 58016 70281 82230;
0105476780999992000011904004+33100+139780FM-12+008099999V0201701N004119999999N9999999N1+01431+00801101131ADDMA1999999100181MD1610211+9999REMSYN064    AAXX  19044 47678 46/// /1708 10143 20080 30018 40113 56021;
0105476780999992000011905004+33100+139780FM-12+008099999V0201601N002619999999N9999999N1+01411+00851101111ADDMA1999999100161MD1610161+9999REMSYN064    AAXX  19054 47678 46/// /1605 10141 20085 30016 40111 56016;
0147476780999992000011906004+33100+139780FM-12+008099999V0202501N002619999999N0300001N1+01401+00821101151ADDGF107991021021999999071999MA1999999100191MD1510041+9999REMSYN080    AAXX  19064 47678 42/80 72505 10140 20082 30019 40115 55004 8227/ 555 00160;
0105476780999992000011907004+33100+139780FM-12+008099999V0202701N002619999999N9999999N1+01351+00861101181ADDMA1999999100221MD1310041+9999REMSYN064    AAXX  19074 47678 46/// /2705 10135 20086 30022 40118 53004;
0105476780999992000011908004+33100+139780FM-12+008099999V0201901N000519999999N9999999N1+01201+00871101221ADDMA1999999100261MD1310101+9999REMSYN064    AAXX  19084 47678 46/// /1901 10120 20087 30026 40122 53010;
0165476780999992000011909004+33100+139780FM-12+008099999V0202001N001019999999N0300001N1+01201+00901101261ADDAY181031AY221031GF107991011021999999071999MA1999999100301MD1310111+9999MW1251REMSYN076    AAXX  19094 47678 41/80 72002 10120 20090 30030 40126 53011 72582 8127/;
0105476780999992000011910004+33100+139780FM-12+008099999V0202301N001519999999N9999999N1+01211+00931101291ADDMA1999999100331MD1110111+9999REMSYN064    AAXX  19104 47678 46/// /2303 10121 20093 30033 40129 51011;
0105476780999992000011911004+33100+139780FM-12+008099999V0202001N001519999999N9999999N1+01211+00891101291ADDMA1999999100331MD1110071+9999REMSYN064    AAXX  19114 47678 46/// /2003 10121 20089 30033 40129 51007;
0205476780999992000011912004+33100+139780FM-12+008099999V0201901N001019999999N0400001N1+01201+00921101281ADDAA112000791AY181061AY221061GF107991071001999999071999KA1999M+01601MA1999999100321MD1010021+9999MW1021REMSYN092    AAXX  19124 47678 11/82 71902 10120 20092 30032 40128 50002 69902 70282 8707/ 333 10160;
0105476780999992000011913004+33100+139780FM-12+008099999V0201801N001019999999N9999999N1+01151+00871101271ADDMA1999999100301MD1810031+9999REMSYN064    AAXX  19134 47678 46/// /1802 10115 20087 30030 40127 58003;
0105476780999992000011915004+33100+139780FM-12+008099999V0202001N001519999999N9999999N1+01201+00811101161ADDMA1999999100201MD1810121+9999REMSYN064    AAXX  19154 47678 46/// /2003 10120 20081 30020 40116 58012;
0101476780999992000011916004+33100+139780FM-12+008099999V0202501N002619999999N9999999N1+01171+00781101121ADDMA1999999100161MD1810141+9999REMSYN060AAXX  19164 47678 46/// /2505 10117 20078 30016 40112 58014;
0101476780999992000011917004+33100+139780FM-12+008099999V0202701N004619999999N9999999N1+01281+00771101101ADDMA1999999100141MD1610131+9999REMSYN060AAXX  19174 47678 46/// /2709 10128 20077 30014 40110 56013;
0161476780999992000011918004+33100+139780FM-12+008099999V0202701N006219999999N0400001N1+01141+00901101111ADDAY181061AY221061GF108991061021999999071999MA1999999100151MD1510051+9999MW1801REMSYN072AAXX  19184 47678 41/82 82712 10114 20090 30015 40111 55005 78082 8627/;
0101476780999992000011919004+33100+139780FM-12+008099999V0202701N004619999999N9999999N1+01191+00841101051ADDMA1999999100091MD1810071+9999REMSYN060AAXX  19194 47678 46/// /2709 10119 20084 30009 40105 58007;
0101476780999992000011920004+33100+139780FM-12+008099999V0202901N004119999999N9999999N1+01051+00911101161ADDMA1999999100191MD1310051+9999REMSYN060AAXX  19204 47678 46/// /2908 10105 20091 30019 40116 53005;
0161476780999992000011921004+33100+139780FM-12+008099999V0202901N004119999999N0300001N1+01011+00821101241ADDAY181031AY221031GF108991051021999999071999MA1999999100271MD1310121+9999MW1801REMSYN072AAXX  19214 47678 41/80 82908 10101 20082 30027 40124 53012 78082 8527/;
0101476780999992000011922004+33100+139780FM-12+008099999V0202901N004119999999N9999999N1+01011+00851101321ADDMA1999999100351MD1110261+9999REMSYN060AAXX  19224 47678 46/// /2908 10101 20085 30035 40132 51026;
0101476780999992000011923004+33100+139780FM-12+008099999V0202901N003619999999N9999999N1+00991+00831101351ADDMA1999999100381MD1110191+9999REMSYN060AAXX  19234 47678 46/// /2907 10099 20083 30038 40135 51019;
