0350477500999992000010100004+35450+135320SY-MT+002299999V0200101N007210060019N0150001N1+00851+00221102661ADDAA112007191AY181061AY221061GA1071+006009999GA2081+007509999GF108991081021999999999999KA1999N+00331MA1102611102391MD1110121+9999MW1801OC100871REMSYN088AAXX  01004 47750 11/65 80114 10085 20022 30239 40266 51012 60072 78082 882// 333 20033;MET08447750 0000Z 35006G17KT 9999 -SHRA BKN020 OVC025 08/01 Q1026 RMK 5CU020 8CU025 A3031;EQDQ01    003PRSWM1
0101477500999992000010101004+35450+135320FM-12+002299999V0200201N006219999999N9999999N1+00861+00161102691ADDMA1999999102421MD1210081+9999REMSYN060AAXX  01014 47750 46/// /0212 10086 20016 30242 40269 52008;
0101477500999992000010102004+35450+135320FM-12+002299999V0200101N007719999999N9999999N1+00871+00141102671ADDMA1999999102401MD1210051+9999REMSYN060AAXX  01024 47750 46/// /0115 10087 20014 30240 40267 52005;
0296477500999992000010103004+35450+135320SY-MT+002299999V0203501N005110060019N0150001N1+00841+00111102601ADDAY181031AY221031GA1071+006009999GA2081+007509999GF108991081021999999999999MA1102511102331MD1810061+9999MW1801REMSYN072AAXX  01034 47750 41/65 83510 10084 20011 30233 40260 58006 78082 882//;MET07847750 0300Z 35004G15KT 9999 BKN020 OVC025 08/01 Q1025 RMK 5CU020 8CU025 A3030;EQDQ01    003PRSWM1
0101477500999992000010104004+35450+135320FM-12+002299999V0203401N005719999999N9999999N1+00861-00021102531ADDMA1999999102261MD1710161+9999REMSYN060AAXX  01044 47750 46/// /3411 10086 21002 30226 40253 57016;
0101477500999992000010105004+35450+135320FM-12+002299999V0203401N005119999999N9999999N1+00871-00071102501ADDMA1999999102231MD1710171+9999REMSYN060AAXX  01054 47750 46/// /3410 10087 21007 30223 40250 57017;
0303477500999992000010106004+35450+135320SY-MT+002299999V0203501N004110060019N0150001N1+00831+00001102531ADDAY181061AY221061GA1071+006009999GA2071+007509999GF107991071021999999999999MA1102511102261MD1510071+9999MW1021REMSYN082AAXX  01064 47750 41/65 73508 10083 20000 30226 40253 55007 70282 872// 555 00091;MET07547750 0600Z 36004KT 9999 BKN020 BKN025 08/00 Q1025 RMK 5CU020 7CU025 A3028;EQDQ01    003PRSWM1
0101477500999992000010107004+35450+135320FM-12+002299999V0203501N004119999999N9999999N1+00801-00141102561ADDMA1999999102291MD1210031+9999REMSYN060AAXX  01074 47750 46/// /3508 10080 21014 30229 40256 52003;
0101477500999992000010108004+35450+135320FM-12+002299999V0203601N004119999999N9999999N1+00801-00081102551ADDMA1999999102281MD1210051+9999REMSYN060AAXX  01084 47750 46/// /3608 10080 21008 30228 40255 52005;
0161477500999992000010109004+35450+135320FM-12+002299999V0200101N006719999999N0150001N1+00801-00141102571ADDAY181031AY221031GF107991071021999999999999MA1999999102301MD1110041+9999MW1021REMSYN072AAXX  01094 47750 41/65 70113 10080 21014 30230 40257 51004 70282 872//;
0101477500999992000010110004+35450+135320FM-12+002299999V0203501N005719999999N9999999N1+00801-00031102541ADDMA1999999102271MD1710021+9999REMSYN060AAXX  01104 47750 46/// /3511 10080 21003 30227 40254 57002;
0101477500999992000010111004+35450+135320FM-12+002299999V0203601N005119999999N9999999N1+00801-00101102541ADDMA1999999102271MD1710011+9999REMSYN060AAXX  01114 47750 46/// /3610 10080 21010 30227 40254 57001;
0201477500999992000010112004+35450+135320FM-12+002299999V0200101N005719999999N0200001N1+00801+00021102531ADDAA112000791AY181061AY221061GF107991071021999999999999KA1999M+00901MA1999999102261MD1610041+9999MW1021REMSYN088AAXX  01124 47750 11/70 70111 10080 20002 30226 40253 56004 69902 70282 872// 333 10090;
0101477500999992000010113004+35450+135320FM-12+002299999V0200601N001519999999N9999999N1+00721-00071102471ADDMA1999999102201MD1710071+9999REMSYN060AAXX  01134 47750 46/// /0603 10072 21007 30220 40247 57007;
0101477500999992000010114004+35450+135320FM-12+002299999V0200801N002119999999N9999999N1+00631-00071102431ADDMA1999999102161MD1710111+9999REMSYN060AAXX  01144 47750 46/// /0804 10063 21007 30216 40243 57011;
0101477500999992000010115004+35450+135320FM-12+002299999V0209999C000019999999N9999999N1+00521+00061102371ADDMA1999999102101MD1710161+9999REMSYN060AAXX  01154 47750 46/// /0000 10052 20006 30210 40237 57016;
0101477500999992000010116004+35450+135320FM-12+002299999V0209999C000019999999N9999999N1+00381+00061102331ADDMA1999999102051MD1710151+9999REMSYN060AAXX  01164 47750 46/// /0000 10038 20006 30205 40233 57015;
0101477500999992000010117004+35450+135320FM-12+002299999V0209999C000019999999N9999999N1+00261+00041102311ADDMA1999999102031MD1710131+9999REMSYN060AAXX  01174 47750 46/// /0000 10026 20004 30203 40231 57013;
0133477500999992000010118004+35450+135320FM-12+002299999V0202901N000519999999N0200001N1+00341+00101102281ADDGF107991071021999999999999MA1999999102001MD1610101+9999REMSYN066AAXX  01184 47750 42/70 72901 10034 20010 30200 40228 56010 872//;
0101477500999992000010119004+35450+135320FM-12+002299999V0202501N000519999999N9999999N1+00361+00121102261ADDMA1999999101981MD1710071+9999REMSYN060AAXX  01194 47750 46/// /2501 10036 20012 30198 40226 57007;
0101477500999992000010120004+35450+135320FM-12+002299999V0202501N002119999999N9999999N1+00401+00101102191ADDMA1999999101911MD1710121+9999REMSYN060AAXX  01204 47750 46/// /2504 10040 20010 30191 40219 57012;
0133477500999992000010121004+35450+135320FM-12+002299999V0209999C000019999999N0200001N1+00261+00051102151ADDGF107991071021999999001001MA1999999101871MD1810131+9999REMSYN066AAXX  01214 47750 42/70 70000 10026 20005 30187 40215 58013 87200;
0101477500999992000010122004+35450+135320FM-12+002299999V0200801N001019999999N9999999N1+00181+00021102191ADDMA1999999101911MD1710071+9999REMSYN060AAXX  01224 47750 46/// /0802 10018 20002 30191 40219 57007;
0101477500999992000010123004+35450+135320FM-12+002299999V0209999C000019999999N9999999N1+00171+00031102151ADDMA1999999101871MD1710041+9999REMSYN060AAXX  01234 47750 46/// /0000 10017 20003 30187 40215 57004;
0300477500999992000010200004+35450+135320SY-MT+002299999V0200801N000510660019N0300001N1+00321+00101102131ADDAA106000091GA1071+066009999GF199999011011999999001021KA1999N+00161MA1102101101851MD1810021+9999MW1001REMSYN076AAXX  02004 47750 32/80 60801 10032 20010 30185 40213 58002 81102 333 20016;MET05447750 0000Z 00000KT 9999 BKN220 04/01 Q1021 RMK A3015;EQDQ01+000062SCOTCVQ02+000000PRSWM2Q03  00002PRCP06
0101477500999992000010202004+35450+135320FM-12+002299999V0209999C000019999999N9999999N1+00751+00171101891ADDMA1999999101621MD1710251+9999REMSYN060AAXX  02024 47750 46/// /0000 10075 20017 30162 40189 57025;
0234477500999992000010203004+35450+135320SY-MT+002299999V0209999C000019999999N0300001N1+00881+00161101721ADDGA1021+066009999GF105991021001999999031021MA1101691101451MD1810401+9999MW1001REMSYN066AAXX  02034 47750 42980 50000 10088 20016 30145 40172 58040 82032;MET05447750 0300Z 33002KT 9999 SCT220 10/00 Q1017 RMK A3004;EQDQ01+000000PRSWM2
0101477500999992000010204004+35450+135320FM-12+002299999V0202701N002619999999N9999999N1+01131+00081101571ADDMA1999999101301MD1710441+9999REMSYN060AAXX  02044 47750 46/// /2705 10113 20008 30130 40157 57044;
0101477500999992000010205004+35450+135320FM-12+002299999V0202101N001019999999N9999999N1+01161+00271101481ADDMA1999999101211MD1710411+9999REMSYN060AAXX  02054 47750 46/// /2102 10116 20027 30121 40148 57041;
0281477500999992000010206004+35450+135320SY-MT+002299999V0202501N004619999999N0300001N1+01221+00001101451ADDGA1021+009009999GA2021+036009999GF106991011011999999031021MA1101391101181MD1610271+9999MW1001REMSYN076AAXX  02064 47750 42/80 62509 10122 20000 30118 40145 56027 81132 555 00126;MET07547750 0600Z 19003KT 9999 FEW030 SCT120 13/00 Q1014 RMK 1CU030 3AC120 A2995;EQDQ01+000000PRSWM2
0101477500999992000010207004+35450+135320FM-12+002299999V0202601N002619999999N9999999N1+01131+00071101441ADDMA1999999101171MD1710131+9999REMSYN060AAXX  02074 47750 46/// /2605 10113 20007 30117 40144 57013;
0101477500999992000010208004+35450+135320FM-12+002299999V0202301N003619999999N9999999N1+01121-00041101481ADDMA1999999101211MD1410001+9999REMSYN060AAXX  02084 47750 46/// /2307 10112 21004 30121 40148 54000;
0133477500999992000010209004+35450+135320FM-12+002299999V0202601N003119999999N0200001N1+01051+00121101491ADDGF105991011011999999031011MA1999999101221MD1310041+9999REMSYN066AAXX  02094 47750 42/70 52606 10105 20012 30122 40149 53004 81131;
0101477500999992000010210004+35450+135320FM-12+002299999V0202501N003119999999N9999999N1+00881+00201101511ADDMA1999999101241MD1210071+9999REMSYN060AAXX  02104 47750 46/// /2506 10088 20020 30124 40151 52007;
0101477500999992000010211004+35450+135320FM-12+002299999V0202101N002119999999N9999999N1+00801+00251101501ADDMA1999999101231MD1210021+9999REMSYN060AAXX  02114 47750 46/// /2104 10080 20025 30123 40150 52002;
0186477500999992000010212004+35450+135320FM-12+002299999V0202201N002112200019N0200001N1+00861+00251101511ADDAA106000091GF104991011021999999031011KA1999M+01271MA1999999101241MD1310021+9999REMSYN076AAXX  02124 47750 32/70 42204 10086 20025 30124 40151 53002 81231 333 10127;EQDQ01  00002PRCP06
0101477500999992000010213004+35450+135320FM-12+002299999V0202301N002119999999N9999999N1+00761+00251101431ADDMA1999999101161MD1710081+9999REMSYN060AAXX  02134 47750 46/// /2304 10076 20025 30116 40143 57008;
0101477500999992000010214004+35450+135320FM-12+002299999V0202601N003119999999N9999999N1+00841+00271101401ADDMA1999999101131MD1710101+9999REMSYN060AAXX  02144 47750 46/// /2606 10084 20027 30113 40140 57010;
0101477500999992000010215004+35450+135320FM-12+002299999V0202401N002119999999N9999999N1+00801+00301101321ADDMA1999999101051MD1710191+9999REMSYN060AAXX  02154 47750 46/// /2404 10080 20030 30105 40132 57019;
0101477500999992000010216004+35450+135320FM-12+002299999V0201401N002119999999N9999999N1+00891+00361101261ADDMA1999999100991MD1710171+9999REMSYN060AAXX  02164 47750 46/// /1404 10089 20036 30099 40126 57017;
0101477500999992000010217004+35450+135320FM-12+002299999V0202101N000519999999N9999999N1+00751+00391101261ADDMA1999999100991MD1710141+9999REMSYN060AAXX  02174 47750 46/// /2101 10075 20039 30099 40126 57014;
0133477500999992000010218004+35450+135320FM-12+002299999V0202601N001519999999N0150001N1+00771+00441101251ADDGF107991071021999999999999MA1999999100981MD1610071+9999REMSYN066AAXX  02184 47750 42/65 72603 10077 20044 30098 40125 56007 872//;
0101477500999992000010219004+35450+135320FM-12+002299999V0202501N003119999999N9999999N1+00801+00431101221ADDMA1999999100951MD1710041+9999REMSYN060AAXX  02194 47750 46/// /2506 10080 20043 30095 40122 57004;
0101477500999992000010220004+35450+135320FM-12+002299999V0202301N002119999999N9999999N1+00751+00411101231ADDMA1999999100961MD1710031+9999REMSYN060AAXX  02204 47750 46/// /2304 10075 20041 30096 40123 57003;
0161477500999992000010221004+35450+135320FM-12+002299999V0202201N002619999999N0130001N1+00821+00411101271ADDAY181031AY211031GF107991071021999999999999MA1999999101001MD1310021+9999MW1801REMSYN072AAXX  02214 47750 41/63 72205 10082 20041 30100 40127 53002 78081 872//;
0101477500999992000010222004+35450+135320FM-12+002299999V0202401N002119999999N9999999N1+00761+00441101351ADDMA1999999101081MD1210131+9999REMSYN060AAXX  02224 47750 46/// /2404 10076 20044 30108 40135 52013;
0101477500999992000010223004+35450+135320FM-12+002299999V0202201N003119999999N9999999N1+00841+00451101431ADDMA1999999101161MD1210201+9999REMSYN060AAXX  02234 47750 46/// /2206 10084 20045 30116 40143 52020;
0319477500999992000010300004+35450+135320SY-MT+002299999V0202501N002110075019N0150001N1+00881+00491101491ADDAA112000791AY181061AY221061GA1071+007509999GF107991071021999999999999KA1999N+00681MA1101391101221MD1110221+9999MW1801REMSYN088AAXX  03004 47750 11/65 72504 10088 20049 30122 40149 51022 69902 78082 872// 333 20068;MET06147750 0000Z 15001KT 8000 BKN025 09/06 Q1014 RMK 7CU025 A2996;EQDQ01+000000PRSWM2Q02    003PRSWM1
0101477500999992000010301004+35450+135320FM-12+002299999V0201601N001519999999N9999999N1+00911+00531101511ADDMA1999999101241MD1210161+9999REMSYN060AAXX  03014 47750 46/// /1603 10091 20053 30124 40151 52016;
0101477500999992000010302004+35450+135320FM-12+002299999V0202601N005719999999N9999999N1+01271+00011101491ADDMA1999999101221MD1210061+9999REMSYN060AAXX  03024 47750 46/// /2611 10127 20001 30122 40149 52006;
0306477500999992000010303004+35450+135320SY-MT+002299999V0203201N005110075019N0200001N1+01231+00021101511ADDAY111031AY211031GA1071+007509999GF199999061021999999001001MA1101391101241MD1310021+9999MW1251OC100771REMSYN072AAXX  03034 47750 41/70 63210 10123 20002 30124 40151 53002 72511 86200;MET06447750 0300Z 28005G15KT 9999 BKN025 12/01 Q1014 RMK 6CU025 A2997;EQDQ01+000062SCOTCVQ02+000000PRSWM2Q03    003PRSWM1
0101477500999992000010304004+35450+135320FM-12+002299999V0202801N006219999999N9999999N1+01291-00081101501ADDMA1999999101241MD1410001+9999REMSYN060AAXX  03044 47750 46/// /2812 10129 21008 30124 40150 54000;
0101477500999992000010305004+35450+135320FM-12+002299999V0203501N002619999999N9999999N1+01181-00061101551ADDMA1999999101281MD1210061+9999REMSYN060AAXX  03054 47750 46/// /3505 10118 21006 30128 40155 52006;
0290477500999992000010306004+35450+135320SY-MT+002299999V0202501N004610075019N0200001N1+01191-00161101591ADDAY181061AY211061GA1071+007509999GF107991071021999999001001MA1101491101321MD1310081+9999MW1021REMSYN082AAXX  03064 47750 41/70 72509 10119 21016 30132 40159 53008 70281 87200 555 00133;MET06247750 0600Z 31003KT 9999 BKN025 12/M01 Q1015 RMK 6CU025 A2999;EQDQ01+000000PRSWM2Q02    003PRSWM1
0101477500999992000010307004+35450+135320FM-12+002299999V0203401N004119999999N9999999N1+01111-00141101661ADDMA1999999101391MD1210151+9999REMSYN060AAXX  03074 47750 46/// /3408 10111 21014 30139 40166 52015;
0101477500999992000010308004+35450+135320FM-12+002299999V0203401N003119999999N9999999N1+00911+00301101771ADDMA1999999101501MD1210221+9999REMSYN060AAXX  03084 47750 46/// /3406 10091 20030 30150 40177 52022;
0161477500999992000010309004+35450+135320FM-12+002299999V0203601N002619999999N0150001N1+00881+00451101831ADDAY181031AY221031GF108991081021999999999999MA1999999101561MD1110241+9999MW1801REMSYN072AAXX  03094 47750 41/65 83605 10088 20045 30156 40183 51024 78082 882//;
0101477500999992000010310004+35450+135320FM-12+002299999V0200101N001019999999N9999999N1+00771+00561101901ADDMA1999999101631MD1210241+9999REMSYN060AAXX  03104 47750 46/// /0102 10077 20056 30163 40190 52024;
0101477500999992000010311004+35450+135320FM-12+002299999V0202901N000519999999N9999999N1+00731+00501101961ADDMA1999999101691MD1210191+9999REMSYN060AAXX  03114 47750 46/// /2901 10073 20050 30169 40196 52019;
0201477500999992000010312004+35450+135320FM-12+002299999V0209999C000019999999N0150001N1+00721+00521101971ADDAA112000791AY181061AY221061GF107991071021999999999999KA1999M+01331MA1999999101701MD1010141+9999MW1251REMSYN088AAXX  03124 47750 11/65 70000 10072 20052 30170 40197 50014 69902 72582 872// 333 10133;
0101477500999992000010313004+35450+135320FM-12+002299999V0209999C000019999999N9999999N1+00611+00371101991ADDMA1999999101721MD1210091+9999REMSYN060AAXX  03134 47750 46/// /0000 10061 20037 30172 40199 52009;
0101477500999992000010314004+35450+135320FM-12+002299999V0202301N000519999999N9999999N1+00591+00341102011ADDMA1999999101741MD1210051+9999REMSYN060AAXX  03144 47750 46/// /2301 10059 20034 30174 40201 52005;
0101477500999992000010315004+35450+135320FM-12+002299999V0209999C000019999999N9999999N1+00591+00371101991ADDMA1999999101721MD1210021+9999REMSYN060AAXX  03154 47750 46/// /0000 10059 20037 30172 40199 52002;
0101477500999992000010316004+35450+135320FM-12+002299999V0209999C000019999999N9999999N1+00561+00361102001ADDMA1999999101731MD1210011+9999REMSYN060AAXX  03164 47750 46/// /0000 10056 20036 30173 40200 52001;
0101477500999992000010317004+35450+135320FM-12+002299999V0209999C000019999999N9999999N1+00561+00281102021ADDMA1999999101751MD1210011+9999REMSYN060AAXX  03174 47750 46/// /0000 10056 20028 30175 40202 52001;
0133477500999992000010318004+35450+135320FM-12+002299999V0209999C000019999999N0150001N1+00531+00281102051ADDGF107991071021999999999999MA1999999101781MD1310061+9999REMSYN066AAXX  03184 47750 42/65 70000 10053 20028 30178 40205 53006 872//;
0101477500999992000010319004+35450+135320FM-12+002299999V0209999C000019999999N9999999N1+00541+00281102061ADDMA1999999101791MD1210061+9999REMSYN060AAXX  03194 47750 46/// /0000 10054 20028 30179 40206 52006;
0101477500999992000010320004+35450+135320FM-12+002299999V0202401N000519999999N9999999N1+00481+00241102111ADDMA1999999101841MD1210091+9999REMSYN060AAXX  03204 47750 46/// /2401 10048 20024 30184 40211 52009;
0161477500999992000010321004+35450+135320FM-12+002299999V0202701N000519999999N0150001N1+00461+00241102181ADDAY181031AY221031GF107991071021999999999999MA1999999101901MD1310121+9999MW1021REMSYN072AAXX  03214 47750 41/65 72701 10046 20024 30190 40218 53012 70282 872//;
0101477500999992000010322004+35450+135320FM-12+002299999V0209999C000019999999N9999999N1+00391+00141102201ADDMA1999999101921MD1210131+9999REMSYN060AAXX  03224 47750 46/// /0000 10039 20014 30192 40220 52013;
0101477500999992000010323004+35450+135320FM-12+002299999V0209999C000019999999N9999999N1+00461+00201102261ADDMA1999999101981MD1210141+9999REMSYN060AAXX  03234 47750 46/// /0000 10046 20020 30198 40226 52014;
0349477500999992000010400004+35450+135320SY-MT+002299999V0209999C000019999999N0200001N1+00571+00251102271ADDAA112000791AY181061AY221061GA1021+004509999GA2021+007509999GF106991061021999999001001KA1999N+00351MA1102201102001MD1110101+9999MW1021REMSYN088AAXX  04004 47750 11/70 60000 10057 20025 30200 40227 51010 69902 70282 86200 333 20035;MET07547750 0000Z 00000KT 9999 FEW015 SCT025 05/04 Q1022 RMK 2CU015 4CU025 A3019;EQDQ01+000000PRSWM2Q02    003PRSWM1
0101477500999992000010401004+35450+135320FM-12+002299999V0209999C000019999999N9999999N1+00721+00271102331ADDMA1999999102061MD1210141+9999REMSYN060AAXX  04014 47750 46/// /0000 10072 20027 30206 40233 52014;
0101477500999992000010402004+35450+135320FM-12+002299999V0200201N000519999999N9999999N1+00911+00281102341ADDMA1999999102071MD1210091+9999REMSYN060AAXX  04024 47750 46/// /0201 10091 20028 30207 40234 52009;
0309477500999992000010403004+35450+135320SY-MT+002299999V0203101N003619999999N0200001N1+01011+00171102291ADDAY181031AY221031GA1021+004509999GA2021+007509999GF107991071021999999999999MA1102201102021MD1010021+9999MW1021REMSYN072AAXX  04034 47750 41/70 73107 10101 20017 30202 40229 50002 70282 872//;MET07547750 0300Z 33003KT 9999 FEW015 SCT025 10/04 Q1022 RMK 1CU015 3CU025 A3020;EQDQ01+000000PRSWM2Q02    003PRSWM1
0101477500999992000010405004+35450+135320FM-12+002299999V0200101N004119999999N9999999N1+00931+00241102231ADDMA1999999101961MD1710111+9999REMSYN060AAXX  04054 47750 46/// /0108 10093 20024 30196 40223 57011;
0325477500999992000010406004+35450+135320SY-MT+002299999V0203301N002110075019N0150001N1+00911+00351102361ADDAY181061AY221061GA1071+007509999GA2081+009009999GF199999071021999999999999MA1102301102091MD1310071+9999MW1801REMSYN082AAXX  04064 47750 41/65 73304 10091 20035 30209 40236 53007 78082 872// 555 00106;MET08147750 0600Z 33003KT 9999 -SHRA BKN025 OVC030 09/03 Q1023 RMK 5CU025 8CU030 A3022;EQDQ01+000072SCOTCVQ02    003PRSWM1
0101477500999992000010407004+35450+135320FM-12+002299999V0203201N002119999999N9999999N1+00891+00251102391ADDMA1999999102121MD1210141+9999REMSYN060AAXX  04074 47750 46/// /3204 10089 20025 30212 40239 52014;
0101477500999992000010408004+35450+135320FM-12+002299999V0203401N001019999999N9999999N1+00841+00251102421ADDMA1999999102151MD1210191+9999REMSYN060AAXX  04084 47750 46/// /3402 10084 20025 30215 40242 52019;
0101477500999992000010410004+35450+135320FM-12+002299999V0202201N000519999999N9999999N1+00741+00331102511ADDMA1999999102241MD1210121+9999REMSYN060AAXX  04104 47750 46/// /2201 10074 20033 30224 40251 52012;
0101477500999992000010411004+35450+135320FM-12+002299999V0202201N000519999999N9999999N1+00731+00341102491ADDMA1999999102221MD1210071+9999REMSYN060AAXX  04114 47750 46/// /2201 10073 20034 30222 40249 52007;
0201477500999992000010412004+35450+135320FM-12+002299999V0203501N000519999999N0120001N1+00631+00311102501ADDAA112000791AY181061AY221061GF106991061021999999001001KA1999M+01061MA1999999102231MD1110011+9999MW1021REMSYN088AAXX  04124 47750 11/62 63501 10063 20031 30223 40250 51001 69902 70282 86200 333 10106;
0101477500999992000010413004+35450+135320FM-12+002299999V0209999C000019999999N9999999N1+00651+00341102501ADDMA1999999102231MD1710011+9999REMSYN060AAXX  04134 47750 46/// /0000 10065 20034 30223 40250 57001;
0101477500999992000010414004+35450+135320FM-12+002299999V0209999C000019999999N9999999N1+00631+00341102521ADDMA1999999102251MD1210031+9999REMSYN060AAXX  04144 47750 46/// /0000 10063 20034 30225 40252 52003;
0101477500999992000010415004+35450+135320FM-12+002299999V0202401N000519999999N9999999N1+00621+00351102501ADDMA1999999102231MD1410001+9999REMSYN060AAXX  04154 47750 46/// /2401 10062 20035 30223 40250 54000;
0101477500999992000010416004+35450+135320FM-12+002299999V0200101N000519999999N9999999N1+00631+00351102511ADDMA1999999102241MD1210011+9999REMSYN060AAXX  04164 47750 46/// /0101 10063 20035 30224 40251 52001;
0101477500999992000010417004+35450+135320FM-12+002299999V0209999C000019999999N9999999N1+00621+00361102521ADDMA1999999102251MD1410001+9999REMSYN060AAXX  04174 47750 46/// /0000 10062 20036 30225 40252 54000;
0133477500999992000010418004+35450+135320FM-12+002299999V0203101N000519999999N0120001N1+00611+00361102541ADDGF108991081021999999999999MA1999999102271MD1310041+9999REMSYN066AAXX  04184 47750 42/62 83101 10061 20036 30227 40254 53004 882//;
0101477500999992000010419004+35450+135320FM-12+002299999V0202501N001019999999N9999999N1+00601+00341102521ADDMA1999999102251MD1210011+9999REMSYN060AAXX  04194 47750 46/// /2502 10060 20034 30225 40252 52001;
0101477500999992000010420004+35450+135320FM-12+002299999V0202101N002119999999N9999999N1+00601+00281102481ADDMA1999999102211MD1710041+9999REMSYN060AAXX  04204 47750 46/// /2104 10060 20028 30221 40248 57004;
0133477500999992000010421004+35450+135320FM-12+002299999V0202601N000519999999N0150001N1+00561+00311102491ADDGF107991071021999999999999MA1999999102221MD1510051+9999REMSYN066AAXX  04214 47750 42/65 72601 10056 20031 30222 40249 55005 872//;
0101477500999992000010422004+35450+135320FM-12+002299999V0209999C000019999999N9999999N1+00461+00261102531ADDMA1999999102251MD1410001+9999REMSYN060AAXX  04224 47750 46/// /0000 10046 20026 30225 40253 54000;
0101477500999992000010423004+35450+135320FM-12+002299999V0209999C000019999999N9999999N1+00511+00301102571ADDMA1999999102291MD1210081+9999REMSYN060AAXX  04234 47750 46/// /0000 10051 20030 30229 40257 52008;
0321477500999992000010500004+35450+135320SY-MT+002299999V0200901N000510300019N0180001N1+00561+00311102591ADDAA106000091GA1021+009009999GA2071+030009999GF107991021011999999031011KA1999N+00451MA1102511102311MD1110091+9999MW1001REMSYN076AAXX  05004 47750 32/68 70901 10056 20031 30231 40259 51009 82131 333 20045;MET07547750 0000Z 19002KT 9999 SCT030 BKN100 06/03 Q1025 RMK 3CU030 6AC100 A3029;EQDQ01+000000PRSWM2Q02  00002PRCP06
0101477500999992000010501004+35450+135320FM-12+002299999V0201001N000519999999N9999999N1+00681+00361102561ADDMA1999999102291MD1210041+9999REMSYN060AAXX  05014 47750 46/// /1001 10068 20036 30229 40256 52004;
0101477500999992000010502004+35450+135320FM-12+002299999V0209999C000019999999N9999999N1+00921+00181102501ADDMA1999999102231MD1710061+9999REMSYN060AAXX  05024 47750 46/// /0000 10092 20018 30223 40250 57006;
0294477500999992000010503004+35450+135320SY-MT+002299999V0200201N002110690019N0200001N1+01051+00091102411ADDGA1021+009009999GA2021+030009999GA3071+069009999GF107991011011999999001021MA1102401102141MD1810171+9999MW1001REMSYN066AAXX  05034 47750 42/70 70204 10105 20009 30214 40241 58017 81102;MET08247750 0300Z 07002KT 9999 FEW030 SCT100 BKN230 10/01 Q1024 RMK 1CU030 3AC100 A3025;EQDQ01+000000PRSWM2
0101477500999992000010504004+35450+135320FM-12+002299999V0200301N003619999999N9999999N1+01101+00081102331ADDMA1999999102061MD1710231+9999REMSYN060AAXX  05044 47750 46/// /0307 10110 20008 30206 40233 57023;
0101477500999992000010505004+35450+135320FM-12+002299999V0200101N005119999999N9999999N1+01111+00191102251ADDMA1999999101981MD1710251+9999REMSYN060AAXX  05054 47750 46/// /0110 10111 20019 30198 40225 57025;
0274477500999992000010506004+35450+135320SY-MT+002299999V0200301N003112200019N0200001N1+01091+00121102281ADDGA1021+030009999GA2021+069009999GF102991011001999999031021MA1102201102011MD1510131+9999MW1001REMSYN076AAXX  05064 47750 42/70 20306 10109 20012 30201 40228 55013 81032 555 00113;MET06847750 0600Z 02003KT 9999 FEW100 SCT230 11/02 Q1022 RMK 1AC100 A3021;EQDQ01+000000PRSWM2
0101477500999992000010507004+35450+135320FM-12+002299999V0200301N004119999999N9999999N1+01021+00171102281ADDMA1999999102011MD1710051+9999REMSYN060AAXX  05074 47750 46/// /0308 10102 20017 30201 40228 57005;
0101477500999992000010508004+35450+135320FM-12+002299999V0203101N001019999999N9999999N1+00811+00211102271ADDMA1999999102001MD1210021+9999REMSYN060AAXX  05084 47750 46/// /3102 10081 20021 30200 40227 52002;
0133477500999992000010509004+35450+135320FM-12+002299999V0200301N001019999999N0150001N1+00741+00231102221ADDGF107991031051999999031999MA1999999101951MD1810061+9999REMSYN066AAXX  05094 47750 42/65 70302 10074 20023 30195 40222 58006 8353/;
0101477500999992000010510004+35450+135320FM-12+002299999V0209999C000019999999N9999999N1+00701+00291102241ADDMA1999999101971MD1710041+9999REMSYN060AAXX  05104 47750 46/// /0000 10070 20029 30197 40224 57004;
0101477500999992000010511004+35450+135320FM-12+002299999V0209999C000019999999N9999999N1+00701+00311102241ADDMA1999999101971MD1710031+9999REMSYN060AAXX  05114 47750 46/// /0000 10070 20031 30197 40224 57003;
0201477500999992000010512004+35450+135320FM-12+002299999V0200801N000519999999N0150001N1+00711+00281102171ADDAA112000791AY181061AY211061GF108991061021999999071999KA1999M+01131MA1999999101901MD1810051+9999MW1801REMSYN088AAXX  05124 47750 11/65 80801 10071 20028 30190 40217 58005 69902 78081 8627/ 333 10113;
0101477500999992000010513004+35450+135320FM-12+002299999V0202301N001019999999N9999999N1+00681+00371102151ADDMA1999999101881MD1710091+9999REMSYN060AAXX  05134 47750 46/// /2302 10068 20037 30188 40215 57009;
0101477500999992000010514004+35450+135320FM-12+002299999V0202201N001519999999N9999999N1+00671+00311102111ADDMA1999999101841MD1710131+9999REMSYN060AAXX  05144 47750 46/// /2203 10067 20031 30184 40211 57013;
0101477500999992000010515004+35450+135320FM-12+002299999V0203301N000519999999N9999999N1+00631+00331102011ADDMA1999999101741MD1710161+9999REMSYN060AAXX  05154 47750 46/// /3301 10063 20033 30174 40201 57016;
0101477500999992000010516004+35450+135320FM-12+002299999V0202201N002619999999N9999999N1+00781+00241101921ADDMA1999999101651MD1710231+9999REMSYN060AAXX  05164 47750 46/// /2205 10078 20024 30165 40192 57023;
0101477500999992000010517004+35450+135320FM-12+002299999V0202201N001519999999N9999999N1+00761+00261101901ADDMA1999999101631MD1710211+9999REMSYN060AAXX  05174 47750 46/// /2203 10076 20026 30163 40190 57021;
0161477500999992000010518004+35450+135320FM-12+002299999V0202501N002619999999N0150001N1+00861+00241101921ADDAY181061AY221061GF108991061021999999071999MA1999999101651MD1510091+9999MW1801REMSYN072AAXX  05184 47750 41/65 82505 10086 20024 30165 40192 55009 78082 8627/;
0101477500999992000010519004+35450+135320FM-12+002299999V0202501N002619999999N9999999N1+00751+00331101851ADDMA1999999101581MD1710071+9999REMSYN060AAXX  05194 47750 46/// /2505 10075 20033 30158 40185 57007;
0161477500999992000010521004+35450+135320FM-12+002299999V0202301N002119999999N0100001N1+00761+00551101681ADDAY181031AY221031GF108991021071999999021999MA1999999101411MD1810241+9999MW1611REMSYN072AAXX  05214 47750 41/60 82304 10076 20055 30141 40168 58024 76182 8272/;
0101477500999992000010522004+35450+135320FM-12+002299999V0202401N003119999999N9999999N1+00781+00561101661ADDMA1999999101391MD1710191+9999REMSYN060AAXX  05224 47750 46/// /2406 10078 20056 30139 40166 57019;
0101477500999992000010601004+35450+135320FM-12+002299999V0202801N003619999999N9999999N1+01371+00671101541ADDMA1999999101281MD1710111+9999REMSYN060AAXX  06014 47750 46/// /2807 10137 20067 30128 40154 57011;
0101477500999992000010602004+35450+135320FM-12+002299999V0202701N004619999999N9999999N1+01601+00761101471ADDMA1999999101211MD1710141+9999REMSYN060AAXX  06024 47750 46/// /2709 10160 20076 30121 40147 57014;
0301477500999992000010603004+35450+135320SY-MT+002299999V0202601N004110240019N0200001N1+01601+00811101381ADDGA1021+007509999GA2021+018009999GA3071+024009999GF107991011021999999071999MA1101291101121MD1810181+9999MW1001REMSYN066AAXX  06034 47750 42/70 72608 10160 20081 30112 40138 58018 8127/;MET08947750 0300Z 22003KT 9999 FEW025 SCT060 BKN080 16/08 Q1013 RMK 1CU025 4AC060 6AC080 A2994;EQDQ01+000000PRSWM2
0101477500999992000010604004+35450+135320FM-12+002299999V0202601N003619999999N9999999N1+01701+00901101271ADDMA1999999101011MD1710271+9999REMSYN060AAXX  06044 47750 46/// /2607 10170 20090 30101 40127 57027;
0101477500999992000010605004+35450+135320FM-12+002299999V0202701N003119999999N9999999N1+01771+00841101211ADDMA1999999100951MD1710261+9999REMSYN060AAXX  06054 47750 46/// /2706 10177 20084 30095 40121 57026;
0319477500999992000010606004+35450+135320SY-MT+002299999V0202301N002610210019N0200001N1+01681+00901101251ADDAY181061AY211061GA1021+012009999GA2071+021009999GF107991071021999999999999MA1101191100991MD1510131+9999MW1031REMSYN082AAXX  06064 47750 41/70 72305 10168 20090 30099 40125 55013 70381 872// 555 00182;MET07547750 0600Z 20004KT 9999 SCT040 BKN070 17/09 Q1012 RMK 4SC040 6AC070 A2989;EQDQ01+000000PRSWM2Q02    003PRSWM1
0101477500999992000010607004+35450+135320FM-12+002299999V0202401N004119999999N9999999N1+01491+00961101261ADDMA1999999101001MD1710011+9999REMSYN060AAXX  06074 47750 46/// /2408 10149 20096 30100 40126 57001;
0101477500999992000010608004+35450+135320FM-12+002299999V0202601N004119999999N9999999N1+01471+00921101211ADDMA1999999100951MD1410001+9999REMSYN060AAXX  06084 47750 46/// /2608 10147 20092 30095 40121 54000;
0161477500999992000010609004+35450+135320FM-12+002299999V0202501N004619999999N0200001N1+01391+00901101231ADDAY181031AY221031GF106991061021999999031001MA1999999100971MD1510021+9999MW1251REMSYN072AAXX  06094 47750 41/70 62509 10139 20090 30097 40123 55002 72582 86230;
0101477500999992000010610004+35450+135320FM-12+002299999V0202501N001519999999N9999999N1+01221+01091101241ADDMA1999999100981MD1710021+9999REMSYN060AAXX  06104 47750 46/// /2503 10122 20109 30098 40124 57002;
0101477500999992000010611004+35450+135320FM-12+002299999V0202301N003619999999N9999999N1+01241+01061101251ADDMA1999999100991MD1210041+9999REMSYN060AAXX  06114 47750 46/// /2307 10124 20106 30099 40125 52004;
0201477500999992000010612004+35450+135320FM-12+002299999V0202201N000519999999N0150001N1+01191+01101101191ADDAA112000591AY181061AY221061GF108991081021999999999999KA1999M+01821MA1999999100921MD1810051+9999MW1801REMSYN088AAXX  06124 47750 11/65 82201 10119 20110 30092 40119 58005 69952 78082 882// 333 10182;
0101477500999992000010613004+35450+135320FM-12+002299999V0202401N001519999999N9999999N1+01211+01121101141ADDMA1999999100881MD1710101+9999REMSYN060AAXX  06134 47750 46/// /2403 10121 20112 30088 40114 57010;
0101477500999992000010614004+35450+135320FM-12+002299999V0202401N001019999999N9999999N1+01231+01101101091ADDMA1999999100831MD1710161+9999REMSYN060AAXX  06144 47750 46/// /2402 10123 20110 30083 40109 57016;
0101477500999992000010615004+35450+135320FM-12+002299999V0202101N003119999999N9999999N1+01231+01121101071ADDMA1999999100811MD1710111+9999REMSYN060AAXX  06154 47750 46/// /2106 10123 20112 30081 40107 57011;
0101477500999992000010616004+35450+135320FM-12+002299999V0202401N002619999999N9999999N1+01231+01111101101ADDMA1999999100841MD1710041+9999REMSYN060AAXX  06164 47750 46/// /2405 10123 20111 30084 40110 57004;
0101477500999992000010617004+35450+135320FM-12+002299999V0202401N002119999999N9999999N1+01251+01121101151ADDMA1999999100891MD1210061+9999REMSYN060AAXX  06174 47750 46/// /2404 10125 20112 30089 40115 52006;
0101477500999992000010620004+35450+135320FM-12+002299999V0202401N002119999999N9999999N1+01121+00861101251ADDMA1999999100981MD1210091+9999REMSYN060AAXX  06204 47750 46/// /2404 10112 20086 30098 40125 52009;
0161477500999992000010621004+35450+135320FM-12+002299999V0202801N001519999999N0100001N1+01031+00861101371ADDAY181031AY221031GF108991081021999999999999MA1999999101101MD1310161+9999MW1251REMSYN072AAXX  06214 47750 41/60 82803 10103 20086 30110 40137 53016 72582 882//;
0101477500999992000010622004+35450+135320FM-12+002299999V0202601N002619999999N9999999N1+01071+00461101491ADDMA1999999101221MD1210231+9999REMSYN060AAXX  06224 47750 46/// /2605 10107 20046 30122 40149 52023;
0101477500999992000010623004+35450+135320FM-12+002299999V0203001N002619999999N9999999N1+01081+00341101591ADDMA1999999101321MD1210341+9999REMSYN060AAXX  06234 47750 46/// /3005 10108 20034 30132 40159 52034;
0349477500999992000010700004+35450+135320SY-MT+002299999V0202901N002610090019N0150001N1+01061+00371101681ADDAA112001091AY181061AY221061GA1021+006009999GA2071+009009999GF107991021021999999071999KA1999N+01001MA1101591101411MD1110311+9999MW1021REMSYN088AAXX  07004 47750 11/65 72905 10106 20037 30141 40168 51031 60012 70282 8227/ 333 20100;MET07547750 0000Z 22001KT 9999 SCT020 BKN030 11/03 Q1016 RMK 3CU020 7CU030 A3001;EQDQ01+000000PRSWM2Q02    003PRSWM1
0101477500999992000010701004+35450+135320FM-12+002299999V0203301N003619999999N9999999N1+01021+00341101771ADDMA1999999101501MD1210281+9999REMSYN060AAXX  07014 47750 46/// /3307 10102 20034 30150 40177 52028;
0101477500999992000010702004+35450+135320FM-12+002299999V0202601N005719999999N9999999N1+00961+00211101771ADDMA1999999101501MD1210181+9999REMSYN060AAXX  07024 47750 46/// /2611 10096 20021 30150 40177 52018;
0271477500999992000010703004+35450+135320SY-MT+002299999V0203201N003110090019N0250001N1+00961+00151101751ADDGA1021+006009999GA2071+009009999GF107991071021999999999999MA1101691101481MD1010071+9999MW1001REMSYN066AAXX  07034 47750 42/75 73206 10096 20015 30148 40175 50007 872//;MET07547750 0300Z 29003KT 9999 SCT020 BKN030 09/02 Q1017 RMK 3CU020 6CU030 A3004;EQDQ01+000000PRSWM2
0101477500999992000010704004+35450+135320FM-12+002299999V0203201N006219999999N9999999N1+00911+00051101741ADDMA1999999101471MD1710031+9999REMSYN060AAXX  07044 47750 46/// /3212 10091 20005 30147 40174 57003;
0101477500999992000010705004+35450+135320FM-12+002299999V0203301N004619999999N9999999N1+00911+00121101771ADDMA1999999101501MD1410001+9999REMSYN060AAXX  07054 47750 46/// /3309 10091 20012 30150 40177 54000;
0281477500999992000010706004+35450+135320SY-MT+002299999V0203201N005110090019N0180001N1+00851+00071101821ADDGA1021+006009999GA2071+009009999GF107991071021999999999999MA1101801101551MD1310071+9999MW1001REMSYN076AAXX  07064 47750 42/68 73210 10085 20007 30155 40182 53007 872// 555 00127;MET07547750 0600Z 31003KT 9999 SCT020 BKN030 08/02 Q1018 RMK 3CU020 6CU030 A3006;EQDQ01+000000PRSWM2
0101477500999992000010707004+35450+135320FM-12+002299999V0203101N004619999999N9999999N1+00751-00111101871ADDMA1999999101601MD1210131+9999REMSYN060AAXX  07074 47750 46/// /3109 10075 21011 30160 40187 52013;
0101477500999992000010708004+35450+135320FM-12+002299999V0202501N002119999999N9999999N1+00651-00061101901ADDMA1999999101631MD1210131+9999REMSYN060AAXX  07084 47750 46/// /2504 10065 21006 30163 40190 52013;
0133477500999992000010709004+35450+135320FM-12+002299999V0202701N002112200019N0150001N1+00571-00091101971ADDGF102991021021999999001001MA1999999101701MD1310151+9999REMSYN066AAXX  07094 47750 42/65 22704 10057 21009 30170 40197 53015 82200;
0101477500999992000010710004+35450+135320FM-12+002299999V0202301N001019999999N9999999N1+00421-00041102031ADDMA1999999101751MD1210151+9999REMSYN060AAXX  07104 47750 46/// /2302 10042 21004 30175 40203 52015;
0101477500999992000010711004+35450+135320FM-12+002299999V0209999C000019999999N9999999N1+00321-00041102081ADDMA1999999101801MD1210171+9999REMSYN060AAXX  07114 47750 46/// /0000 10032 21004 30180 40208 52017;
0186477500999992000010712004+35450+135320FM-12+002299999V0202201N001512200019N0150001N1+00211-00061102071ADDAA106000091GF101991011021999999001001KA1999M+01101MA1999999101791MD1010091+9999REMSYN076AAXX  07124 47750 32/65 12203 10021 21006 30179 40207 50009 81200 333 10110;EQDQ01  00002PRCP06
0101477500999992000010713004+35450+135320FM-12+002299999V0202501N001019999999N9999999N1+00151-00061102061ADDMA1999999101781MD1210031+9999REMSYN060AAXX  07134 47750 46/// /2502 10015 21006 30178 40206 52003;
0101477500999992000010715004+35450+135320FM-12+002299999V0202801N000519999999N9999999N1+00081-00101102021ADDMA1999999101741MD1710051+9999REMSYN060AAXX  07154 47750 46/// /2801 10008 21010 30174 40202 57005;
0101477500999992000010716004+35450+135320FM-12+002299999V0202901N000519999999N9999999N1+00091-00091102031ADDMA1999999101751MD1710031+9999REMSYN060AAXX  07164 47750 46/// /2901 10009 21009 30175 40203 57003;
0101477500999992000010717004+35450+135320FM-12+002299999V0201501N001019999999N9999999N1+00141-00091102091ADDMA1999999101811MD1410001+9999REMSYN060AAXX  07174 47750 46/// /1502 10014 21009 30181 40209 54000;
0133477500999992000010718004+35450+135320FM-12+002299999V0200901N001019999999N0150001N1+00141-00101102091ADDGF107991071021999999999999MA1999999101811MD1110071+9999REMSYN066AAXX  07184 47750 42/65 70902 10014 21010 30181 40209 51007 872//;
0101477500999992000010719004+35450+135320FM-12+002299999V0202401N000519999999N9999999N1+00081-00111102121ADDMA1999999101841MD1210091+9999REMSYN060AAXX  07194 47750 46/// /2401 10008 21011 30184 40212 52009;
0101477500999992000010720004+35450+135320FM-12+002299999V0202001N000519999999N9999999N1+00091-00111102141ADDMA1999999101861MD1210051+9999REMSYN060AAXX  07204 47750 46/// /2001 10009 21011 30186 40214 52005;
0133477500999992000010721004+35450+135320FM-12+002299999V0202401N001519999999N0150001N1+00091-00141102171ADDGF107991071021999999999999MA1999999101891MD1310081+9999REMSYN066AAXX  07214 47750 42/65 72403 10009 21014 30189 40217 53008 872//;
0101477500999992000010722004+35450+135320FM-12+002299999V0202301N001519999999N9999999N1+00091-00141102251ADDMA1999999101971MD1210131+9999REMSYN060AAXX  07224 47750 46/// /2303 10009 21014 30197 40225 52013;
0101477500999992000010723004+35450+135320FM-12+002299999V0202301N001519999999N9999999N1+00131-00161102231ADDMA1999999101951MD1210091+9999REMSYN060AAXX  07234 47750 46/// /2303 10013 21016 30195 40223 52009;
0345477500999992000010800004+35450+135320SY-MT+002299999V0202301N003110240019N0250001N1+00161-00161102231ADDAA106000091GA1021+007509999GA2071+024009999GA3071+060009999GF107991011021999999031021KA1999N+00061MA1102201101951MD1110061+9999MW1001REMSYN076AAXX  08004 47750 32/75 72306 10016 21016 30195 40223 51006 81232 333 20006;MET08347750 0000Z VRB01KT 9999 SCT025 BKN080 BKN200 03/M01 Q1022 RMK 3CU025 5AC080 A3018;EQDQ01+000000PRSWM2Q02  00002PRCP06
0101477500999992000010801004+35450+135320FM-12+002299999V0202401N003619999999N9999999N1+00241-00141102281ADDMA1999999102001MD1210031+9999REMSYN060AAXX  08014 47750 46/// /2407 10024 21014 30200 40228 52003;
0101477500999992000010802004+35450+135320FM-12+002299999V0202401N002619999999N9999999N1+00391-00121102251ADDMA1999999101971MD1210021+9999REMSYN060AAXX  08024 47750 46/// /2405 10039 21012 30197 40225 52002;
0288477500999992000010803004+35450+135320SY-MT+002299999V0202501N002110360019N0250001N1+00571-00081102181ADDGA1021+009009999GA2071+036009999GF199999021021999999031021MA1102101101911MD1810041+9999MW1001REMSYN066AAXX  08034 47750 42/75 62504 10057 21008 30191 40218 58004 82232;MET07647750 0300Z 23004KT 9999 SCT030 BKN120 06/M02 Q1021 RMK 4CU030 5AC120 A3017;EQDQ01+000062SCOTCVQ02+000000PRSWM2
0101477500999992000010804004+35450+135320FM-12+002299999V0202001N000519999999N9999999N1+00781-00091102041ADDMA1999999101771MD1710231+9999REMSYN060AAXX  08044 47750 46/// /2001 10078 21009 30177 40204 57023;
0282477500999992000010806004+35450+135320SY-MT+002299999V0202601N001510090019N0250001N1+00931-00161102071ADDGA1071+009009999GA2021+045009999GF107991061021999999031021MA1102001101801MD1510111+9999MW1001REMSYN076AAXX  08064 47750 42/75 72603 10093 21016 30180 40207 55011 86232 555 00097;MET07647750 0600Z 20003KT 9999 BKN030 SCT150 09/M01 Q1020 RMK 6CU030 3AC150 A3014;EQDQ01+000000PRSWM2
0101477500999992000010807004+35450+135320FM-12+002299999V0201601N002119999999N9999999N1+00821-00071102111ADDMA1999999101841MD1210071+9999REMSYN060AAXX  08074 47750 46/// /1604 10082 21007 30184 40211 52007;
0101477500999992000010808004+35450+135320FM-12+002299999V0201701N001519999999N9999999N1+00691-00031102151ADDMA1999999101881MD1210111+9999REMSYN060AAXX  08084 47750 46/// /1703 10069 21003 30188 40215 52011;
0133477500999992000010809004+35450+135320FM-12+002299999V0202401N001519999999N0180001N1+00551+00051102191ADDGF105991051081999999031001MA1999999101921MD1110121+9999REMSYN066AAXX  08094 47750 42/68 52403 10055 20005 30192 40219 51012 85830;
0101477500999992000010810004+35450+135320FM-12+002299999V0209999C000019999999N9999999N1+00491+00051102261ADDMA1999999101981MD1210141+9999REMSYN060AAXX  08104 47750 46/// /0000 10049 20005 30198 40226 52014;
0101477500999992000010811004+35450+135320FM-12+002299999V0209999C000019999999N9999999N1+00471+00081102301ADDMA1999999102021MD1210141+9999REMSYN060AAXX  08114 47750 46/// /0000 10047 20008 30202 40230 52014;
0186477500999992000010812004+35450+135320FM-12+002299999V0202401N002119999999N0180001N1+00451+00061102351ADDAA106000091GF107991071021999999999999KA1999M+00971MA1999999102071MD1110151+9999REMSYN076AAXX  08124 47750 32/68 72404 10045 20006 30207 40235 51015 872// 333 10097;EQDQ01  00002PRCP06
0101477500999992000010813004+35450+135320FM-12+002299999V0202401N002119999999N9999999N1+00361+00001102381ADDMA1999999102101MD1210121+9999REMSYN060AAXX  08134 47750 46/// /2404 10036 20000 30210 40238 52012;
0101477500999992000010814004+35450+135320FM-12+002299999V0202901N000519999999N9999999N1+00231-00021102371ADDMA1999999102091MD1210071+9999REMSYN060AAXX  08144 47750 46/// /2901 10023 21002 30209 40237 52007;
0101477500999992000010815004+35450+135320FM-12+002299999V0202801N001019999999N9999999N1+00201-00021102371ADDMA1999999102091MD1210021+9999REMSYN060AAXX  08154 47750 46/// /2802 10020 21002 30209 40237 52002;
0101477500999992000010816004+35450+135320FM-12+002299999V0201301N000519999999N9999999N1+00241+00021102321ADDMA1999999102041MD1710061+9999REMSYN060AAXX  08164 47750 46/// /1301 10024 20002 30204 40232 57006;
0101477500999992000010817004+35450+135320FM-12+002299999V0202501N001019999999N9999999N1+00291+00021102371ADDMA1999999102091MD1410001+9999REMSYN060AAXX  08174 47750 46/// /2502 10029 20002 30209 40237 54000;
0133477500999992000010818004+35450+135320FM-12+002299999V0209999C000019999999N0120001N1+00221+00011102361ADDGF106991061021999999999999MA1999999102081MD1710011+9999REMSYN066AAXX  08184 47750 42/62 60000 10022 20001 30208 40236 57001 862//;
0101477500999992000010819004+35450+135320FM-12+002299999V0203201N000519999999N9999999N1+00221+00011102341ADDMA1999999102061MD1210021+9999REMSYN060AAXX  08194 47750 46/// /3201 10022 20001 30206 40234 52002;
0101477500999992000010820004+35450+135320FM-12+002299999V0202501N003119999999N9999999N1+00201-00061102341ADDMA1999999102061MD1710031+9999REMSYN060AAXX  08204 47750 46/// /2506 10020 21006 30206 40234 57003;
0133477500999992000010821004+35450+135320FM-12+002299999V0202401N001019999999N0100001N1+00221-00031102381ADDGF107991071021999999999999MA1999999102101MD1310021+9999REMSYN066AAXX  08214 47750 42/60 72402 10022 21003 30210 40238 53002 872//;
0101477500999992000010822004+35450+135320FM-12+002299999V0209999C000019999999N9999999N1+00211-00031102371ADDMA1999999102091MD1210031+9999REMSYN060AAXX  08224 47750 46/// /0000 10021 21003 30209 40237 52003;
0101477500999992000010823004+35450+135320FM-12+002299999V0202401N001019999999N9999999N1+00231-00071102461ADDMA1999999102181MD1210121+9999REMSYN060AAXX  08234 47750 46/// /2402 10023 21007 30218 40246 52012;
0338477500999992000010900004+35450+135320SY-MT+002299999V0209999C000010300019N0120001N1+00311-00061102441ADDAA106000091GA1021+013509999GA2081+030009999GF199999011011999999031071KA1999N+00191MA1102401102161MD1010061+9999MW1001REMSYN076AAXX  09004 47750 32/62 70000 10031 21006 30216 40244 50006 81137 333 20019;MET07647750 0000Z 17001KT 9999 FEW045 OVC100 03/M01 Q1024 RMK 2SC045 8AS100 A3024;EQDQ01+000072SCOTCVQ02+000000PRSWM2Q03  00002PRCP06
0101477500999992000010901004+35450+135320FM-12+002299999V0209999C000019999999N9999999N1+00451+00001102431ADDMA1999999102151MD1210061+9999REMSYN060AAXX  09014 47750 46/// /0000 10045 20000 30215 40243 52006;
0101477500999992000010902004+35450+135320FM-12+002299999V0202401N003119999999N9999999N1+00561+00011102381ADDMA1999999102111MD1710071+9999REMSYN060AAXX  09024 47750 46/// /2406 10056 20001 30211 40238 57007;
0271477500999992000010903004+35450+135320SY-MT+002299999V0202701N002610300019N0150001N1+00661+00041102251ADDGA1021+013509999GA2081+030009999GF108991081001999999011999MA1102201101981MD1810181+9999MW1001REMSYN066AAXX  09034 47750 42/65 82705 10066 20004 30198 40225 58018 8801/;MET07547750 0300Z 24002KT 9999 SCT045 OVC100 07/00 Q1022 RMK 3SC045 8AS100 A3019;EQDQ01+000000PRSWM2
0101477500999992000010904004+35450+135320FM-12+002299999V0202701N002119999999N9999999N1+00751+00051102141ADDMA1999999101871MD1710281+9999REMSYN060AAXX  09044 47750 46/// /2704 10075 20005 30187 40214 57028;
0101477500999992000010905004+35450+135320FM-12+002299999V0202701N001519999999N9999999N1+00821+00091102111ADDMA1999999101841MD1710271+9999REMSYN060AAXX  09054 47750 46/// /2703 10082 20009 30184 40211 57027;
0101477500999992000010907004+35450+135320FM-12+002299999V0202301N001519999999N9999999N1+00801+00231102141ADDMA1999999101871MD1410001+9999REMSYN060AAXX  09074 47750 46/// /2303 10080 20023 30187 40214 54000;
0101477500999992000010908004+35450+135320FM-12+002299999V0202201N001519999999N9999999N1+00721+00221102121ADDMA1999999101851MD1210011+9999REMSYN060AAXX  09084 47750 46/// /2203 10072 20022 30185 40212 52001;
0133477500999992000010909004+35450+135320FM-12+002299999V0202101N002619999999N0150001N1+00721+00161102151ADDGF108991081001999999021999MA1999999101881MD1510011+9999REMSYN066AAXX  09094 47750 42/65 82105 10072 20016 30188 40215 55001 8802/;
0101477500999992000010910004+35450+135320FM-12+002299999V0202101N002119999999N9999999N1+00721+00141102101ADDMA1999999101831MD1710041+9999REMSYN060AAXX  09104 47750 46/// /2104 10072 20014 30183 40210 57004;
0101477500999992000010911004+35450+135320FM-12+002299999V0201001N001019999999N9999999N1+00651+00211102031ADDMA1999999101761MD1710091+9999REMSYN060AAXX  09114 47750 46/// /1002 10065 20021 30176 40203 57009;
0201477500999992000010912004+35450+135320FM-12+002299999V0203101N000519999999N0100001N1+00601+00341101971ADDAA112000791AY121061AY221061GF108991081001999999021999KA1999M+00851MA1999999101701MD1810181+9999MW1611REMSYN088AAXX  09124 47750 11/60 83101 10060 20034 30170 40197 58018 69902 76122 8802/ 333 10085;
0101477500999992000010913004+35450+135320FM-12+002299999V0202201N001019999999N9999999N1+00531+00411101961ADDMA1999999101691MD1710141+9999REMSYN060AAXX  09134 47750 46/// /2202 10053 20041 30169 40196 57014;
0101477500999992000010914004+35450+135320FM-12+002299999V0201601N001019999999N9999999N1+00531+00401101791ADDMA1999999101521MD1710241+9999REMSYN060AAXX  09144 47750 46/// /1602 10053 20040 30152 40179 57024;
0101477500999992000010915004+35450+135320FM-12+002299999V0202301N002619999999N9999999N1+00511+00401101601ADDMA1999999101331MD1710371+9999REMSYN060AAXX  09154 47750 46/// /2305 10051 20040 30133 40160 57037;
0101477500999992000010916004+35450+135320FM-12+002299999V0202601N002119999999N9999999N1+00511+00401101371ADDMA1999999101101MD1710591+9999REMSYN060AAXX  09164 47750 46/// /2604 10051 20040 30110 40137 57059;
0101477500999992000010917004+35450+135320FM-12+002299999V0202501N003619999999N9999999N1+00511+00401101361ADDMA1999999101091MD1710431+9999REMSYN060AAXX  09174 47750 46/// /2507 10051 20040 30109 40136 57043;
0161477500999992000010918004+35450+135320FM-12+002299999V0202201N001019999999N0080001N1+00541+00451101361ADDAY161061AY261061GF108991051071999999021999MA1999999101091MD1510241+9999MW1631REMSYN072AAXX  09184 47750 41/58 82202 10054 20045 30109 40136 55024 76366 8572/;
0101477500999992000010919004+35450+135320FM-12+002299999V0201301N001019999999N9999999N1+00561+00471101481ADDMA1999999101211MD1210111+9999REMSYN060AAXX  09194 47750 46/// /1302 10056 20047 30121 40148 52011;
0101477500999992000010920004+35450+135320FM-12+002299999V0202301N001519999999N9999999N1+00591+00501101491ADDMA1999999101221MD1210131+9999REMSYN060AAXX  09204 47750 46/// /2303 10059 20050 30122 40149 52013;
0161477500999992000010921004+35450+135320FM-12+002299999V0202401N001010021019N0100001N1+00601+00531101551ADDAY161031AY261031GF108991051021002501071999MA1999999101281MD1210191+9999MW1211REMSYN072AAXX  09214 47750 41360 82402 10060 20053 30128 40155 52019 72166 8527/;
0101477500999992000010922004+35450+135320FM-12+002299999V0202301N002119999999N9999999N1+00601+00541101641ADDMA1999999101371MD1210161+9999REMSYN060AAXX  09224 47750 46/// /2304 10060 20054 30137 40164 52016;
0101477500999992000010923004+35450+135320FM-12+002299999V0202201N001019999999N9999999N1+00631+00561101661ADDMA1999999101391MD1210171+9999REMSYN060AAXX  09234 47750 46/// /2202 10063 20056 30139 40166 52017;
0349477500999992000011000004+35450+135320SY-MT+002299999V0200501N00051006001CN0150001N1+00671+00561101691ADDAA112019191AY161061AY221061GA1071+006009999GA2071+007509999GF107991071021001501999999KA1999N+00491MA1101691101421MD1010141+9999MW1021REMSYN088AAXX  10004 47750 11265 70501 10067 20056 30142 40169 50014 60192 70262 872// 333 20049;MET07547750 0000Z 00000KT 9999 BKN020 BKN025 07/06 Q1017 RMK 6CU020 7CU025 A3003;EQDQ01+000000PRSWM2Q02    003PRSWM1
0101477500999992000011001004+35450+135320FM-12+002299999V0202001N000519999999N9999999N1+00761+00631101731ADDMA1999999101461MD1210091+9999REMSYN060AAXX  10014 47750 46/// /2001 10076 20063 30146 40173 52009;
0101477500999992000011002004+35450+135320FM-12+002299999V0200601N000519999999N9999999N1+00861+00741101681ADDMA1999999101411MD1210021+9999REMSYN060AAXX  10024 47750 46/// /0601 10086 20074 30141 40168 52002;
0302477500999992000011003004+35450+135320SY-MT+002299999V0203301N00461006001CN0200001N1+00971+00681101691ADDAY181031AY221031GA1071+006009999GA2081+007509999GF108991081021002501999999MA1101591101421MD1010001+9999MW1801REMSYN072AAXX  10034 47750 41370 83309 10097 20068 30142 40169 50000 78082 882//;MET08447750 0300Z 28002KT 4000 -SHRA BR BKN020 OVC025 09/08 Q1016 RMK 6CU020 8CU025 A3002;EQDQ01    003PRSWM1
0101477500999992000011004004+35450+135320FM-12+002299999V0203301N005119999999N9999999N1+00901+00601101771ADDMA1999999101501MD1210041+9999REMSYN060AAXX  10044 47750 46/// /3310 10090 20060 30150 40177 52004;
0101477500999992000011005004+35450+135320FM-12+002299999V0203301N005719999999N9999999N1+00871+00461101831ADDMA1999999101561MD1210151+9999REMSYN060AAXX  10054 47750 46/// /3311 10087 20046 30156 40183 52015;
0325477500999992000011006004+35450+135320SY-MT+002299999V0202901N003110060019N0180001N1+00831+00321101911ADDAY181061AY221061GA1071+006009999GA2081+007509999GF199999071021999999999999MA1101801101641MD1210221+9999MW1801REMSYN082AAXX  10064 47750 41/68 72906 10083 20032 30164 40191 52022 78082 872// 555 00098;MET08147750 0600Z 25002KT 9999 -SHRA BKN020 OVC025 08/04 Q1018 RMK 7CU020 8CU025 A3009;EQDQ01+000072SCOTCVQ02    003PRSWM1
0101477500999992000011007004+35450+135320FM-12+002299999V0203001N003619999999N9999999N1+00781+00321101991ADDMA1999999101721MD1210221+9999REMSYN060AAXX  10074 47750 46/// /3007 10078 20032 30172 40199 52022;
0101477500999992000011008004+35450+135320FM-12+002299999V0202301N001519999999N9999999N1+00681+00381102051ADDMA1999999101781MD1210221+9999REMSYN060AAXX  10084 47750 46/// /2303 10068 20038 30178 40205 52022;
0161477500999992000011009004+35450+135320FM-12+002299999V0202401N000519999999N0150001N1+00621+00421102111ADDAY181031AY281031GF108991081021999999999999MA1999999101841MD1210201+9999MW1251REMSYN072AAXX  10094 47750 41/65 82401 10062 20042 30184 40211 52020 72588 882//;
0101477500999992000011010004+35450+135320FM-12+002299999V0203301N001519999999N9999999N1+00721+00331102181ADDMA1999999101911MD1210191+9999REMSYN060AAXX  10104 47750 46/// /3303 10072 20033 30191 40218 52019;
0101477500999992000011011004+35450+135320FM-12+002299999V0202601N002119999999N9999999N1+00761+00311102191ADDMA1999999101921MD1210141+9999REMSYN060AAXX  10114 47750 46/// /2604 10076 20031 30192 40219 52014;
0201477500999992000011012004+35450+135320FM-12+002299999V0203201N001519999999N0150001N1+00681+00301102201ADDAA112001091AY181061AY221061GF108991081021999999999999KA1999M+00981MA1999999101931MD1110091+9999MW1801REMSYN088AAXX  10124 47750 11/65 83203 10068 20030 30193 40220 51009 60012 78082 882// 333 10098;
0101477500999992000011013004+35450+135320FM-12+002299999V0203401N005119999999N9999999N1+00821-00051102231ADDMA1999999101961MD1210051+9999REMSYN060AAXX  10134 47750 46/// /3410 10082 21005 30196 40223 52005;
0101477500999992000011014004+35450+135320FM-12+002299999V0202901N003119999999N9999999N1+00621+00011102261ADDMA1999999101991MD1210071+9999REMSYN060AAXX  10144 47750 46/// /2906 10062 20001 30199 40226 52007;
0101477500999992000011015004+35450+135320FM-12+002299999V0203001N003119999999N9999999N1+00721-00101102251ADDMA1999999101981MD1210051+9999REMSYN060AAXX  10154 47750 46/// /3006 10072 21010 30198 40225 52005;
0101477500999992000011016004+35450+135320FM-12+002299999V0203101N002619999999N9999999N1+00661+00061102271ADDMA1999999102001MD1210041+9999REMSYN060AAXX  10164 47750 46/// /3105 10066 20006 30200 40227 52004;
0101477500999992000011017004+35450+135320FM-12+002299999V0203401N004119999999N9999999N1+00731-00151102341ADDMA1999999102071MD1210081+9999REMSYN060AAXX  10174 47750 46/// /3408 10073 21015 30207 40234 52008;
0161477500999992000011018004+35450+135320FM-12+002299999V0200101N008719999999N0150001N1+00651+00211102381ADDAY181061AY221061GF108991081021999999999999MA1999999102111MD1310131+9999MW1801REMSYN072AAXX  10184 47750 41/65 80117 10065 20021 30211 40238 53013 78082 882//;
0101477500999992000011019004+35450+135320FM-12+002299999V0203601N005119999999N9999999N1+00721+00121102361ADDMA1999999102091MD1210091+9999REMSYN060AAXX  10194 47750 46/// /3610 10072 20012 30209 40236 52009;
0101477500999992000011020004+35450+135320FM-12+002299999V0200101N008719999999N9999999N1+00741-00011102411ADDMA1999999102141MD1210071+9999REMSYN060AAXX  10204 47750 46/// /0117 10074 21001 30214 40241 52007;
0161477500999992000011021004+35450+135320FM-12+002299999V0200101N009319999999N0200001N1+00741+00051102451ADDAY181031AY221031GF108991081021999999999999MA1999999102181MD1310071+9999MW1801REMSYN072AAXX  10214 47750 41/70 80118 10074 20005 30218 40245 53007 78082 882//;
0101477500999992000011022004+35450+135320FM-12+002299999V0200101N007219999999N9999999N1+00711-00201102571ADDMA1999999102301MD1210211+9999REMSYN060AAXX  10224 47750 46/// /0114 10071 21020 30230 40257 52021;
0101477500999992000011023004+35450+135320FM-12+002299999V0203601N007219999999N9999999N1+00701-00131102641ADDMA1999999102371MD1210231+9999REMSYN060AAXX  10234 47750 46/// /3614 10070 21013 30237 40264 52023;
0350477500999992000011100004+35450+135320SY-MT+002299999V0203501N006210075019N0200001N1+00661-00371102751ADDAA112000791AY181061AY221061GA1021+006009999GA2071+007509999GF107991071021999999999999KA1999N+00601MA1102711102481MD1110301+9999MW1251REMSYN088AAXX  11004 47750 11/70 73512 10066 21037 30248 40275 51030 69902 72582 872// 333 20060;MET07647750 0000Z 34007KT 9999 SCT020 BKN025 06/M04 Q1027 RMK 4CU020 7CU025 A3033;EQDQ01+000000PRSWM2Q02    003PRSWM1
0101477500999992000011101004+35450+135320FM-12+002299999V0200201N010319999999N9999999N1+00671-00251102771ADDMA1999999102501MD1210201+9999REMSYN060AAXX  11014 47750 46/// /0220 10067 21025 30250 40277 52020;
0101477500999992000011102004+35450+135320FM-12+002299999V0200201N008719999999N9999999N1+00661-00361102781ADDMA1999999102511MD1210141+9999REMSYN060AAXX  11024 47750 46/// /0217 10066 21036 30251 40278 52014;
0310477500999992000011103004+35450+135320SY-MT+002299999V0200101N008710075019N0200001N1+00661-00101102671ADDAY181031AY221031GA1021+006009999GA2081+007509999GF108991081021999999999999MA1102611102401MD1810081+9999MW1251REMSYN072AAXX  11034 47750 41/70 80117 10066 21010 30240 40267 58008 72582 882//;MET07647750 0300Z 36007KT 9999 SCT020 OVC025 06/M02 Q1026 RMK 4CU020 8CU025 A3032;EQDQ01+000000PRSWM2Q02    003PRSWM1
0101477500999992000011104004+35450+135320FM-12+002299999V0200201N008219999999N9999999N1+00671-00221102631ADDMA1999999102361MD1710141+9999REMSYN060AAXX  11044 47750 46/// /0216 10067 21022 30236 40263 57014;
0101477500999992000011105004+35450+135320FM-12+002299999V0200301N007719999999N9999999N1+00641-00361102571ADDMA1999999102301MD1710211+9999REMSYN060AAXX  11054 47750 46/// /0315 10064 21036 30230 40257 57021;
0324477500999992000011106004+35450+135320SY-MT+002299999V0200201N006710075019N0200001N1+00641-00231102611ADDAY181061AY221061GA1071+007509999GA2081+009009999GF108991081021999999999999MA1102511102341MD1510061+9999MW1251REMSYN082AAXX  11064 47750 41/70 80213 10064 21023 30234 40261 55006 72582 882// 555 00077;MET08047750 0600Z COR 36008KT 9999 BKN025 OVC030 06/M02 Q1025 RMK 7CU025 8CU030 A3030;EQDQ01+000000PRSWM2Q02    003PRSWM1
0101477500999992000011107004+35450+135320FM-12+002299999V0200101N008219999999N9999999N1+00651-00141102641ADDMA1999999102371MD1210011+9999REMSYN060AAXX  11074 47750 46/// /0116 10065 21014 30237 40264 52001;
0101477500999992000011108004+35450+135320FM-12+002299999V0200201N007219999999N9999999N1+00651-00161102651ADDMA1999999102381MD1210081+9999REMSYN060AAXX  11084 47750 46/// /0214 10065 21016 30238 40265 52008;
0161477500999992000011109004+35450+135320FM-12+002299999V0200301N006219999999N0200001N1+00661-00191102701ADDAY181031AY221031GF108991081021999999999999MA1999999102431MD1310091+9999MW1251REMSYN072AAXX  11094 47750 41/70 80312 10066 21019 30243 40270 53009 72582 882//;
0101477500999992000011110004+35450+135320FM-12+002299999V0200501N006219999999N9999999N1+00661-00161102681ADDMA1999999102411MD1210041+9999REMSYN060AAXX  11104 47750 46/// /0512 10066 21016 30241 40268 52004;
0101477500999992000011111004+35450+135320FM-12+002299999V0200401N005119999999N9999999N1+00661-00251102701ADDMA1999999102431MD1210051+9999REMSYN060AAXX  11114 47750 46/// /0410 10066 21025 30243 40270 52005;
0201477500999992000011112004+35450+135320FM-12+002299999V0200401N004619999999N0200001N1+00661-00301102681ADDAA112000791AY181061AY221061GF107991071021999999999999KA1999M+00691MA1999999102411MD1710021+9999MW1021REMSYN088AAXX  11124 47750 11/70 70409 10066 21030 30241 40268 57002 69902 70282 872// 333 10069;
0101477500999992000011113004+35450+135320FM-12+002299999V0200501N004619999999N9999999N1+00671-00211102631ADDMA1999999102361MD1710051+9999REMSYN060AAXX  11134 47750 46/// /0509 10067 21021 30236 40263 57005;
0101477500999992000011114004+35450+135320FM-12+002299999V0200501N004119999999N9999999N1+00621-00171102581ADDMA1999999102311MD1710121+9999REMSYN060AAXX  11144 47750 46/// /0508 10062 21017 30231 40258 57012;
0101477500999992000011115004+35450+135320FM-12+002299999V0200501N003619999999N9999999N1+00631-00131102491ADDMA1999999102221MD1710191+9999REMSYN060AAXX  11154 47750 46/// /0507 10063 21013 30222 40249 57019;
0101477500999992000011116004+35450+135320FM-12+002299999V0200301N004619999999N9999999N1+00631-00181102521ADDMA1999999102251MD1710111+9999REMSYN060AAXX  11164 47750 46/// /0309 10063 21018 30225 40252 57011;
0101477500999992000011117004+35450+135320FM-12+002299999V0200701N004119999999N9999999N1+00601-00181102501ADDMA1999999102231MD1710081+9999REMSYN060AAXX  11174 47750 46/// /0708 10060 21018 30223 40250 57008;
0133477500999992000011118004+35450+135320FM-12+002299999V0200701N003119999999N0200001N1+00611-00061102541ADDGF107991071021999999999999MA1999999102271MD1310051+9999REMSYN066AAXX  11184 47750 42/70 70706 10061 21006 30227 40254 53005 872//;
0101477500999992000011119004+35450+135320FM-12+002299999V0200801N003119999999N9999999N1+00601-00041102471ADDMA1999999102201MD1710051+9999REMSYN060AAXX  11194 47750 46/// /0806 10060 21004 30220 40247 57005;
0101477500999992000011120004+35450+135320FM-12+002299999V0200801N003619999999N9999999N1+00611+00001102411ADDMA1999999102141MD1710091+9999REMSYN060AAXX  11204 47750 46/// /0807 10061 20000 30214 40241 57009;
0133477500999992000011121004+35450+135320FM-12+002299999V0200901N002619999999N0200001N1+00621-00011102451ADDGF108991081021999999999999MA1999999102181MD1510091+9999REMSYN066AAXX  11214 47750 42/70 80905 10062 21001 30218 40245 55009 882//;
0101477500999992000011122004+35450+135320FM-12+002299999V0201001N002119999999N9999999N1+00601+00011102431ADDMA1999999102161MD1710041+9999REMSYN060AAXX  11224 47750 46/// /1004 10060 20001 30216 40243 57004;
0101477500999992000011123004+35450+135320FM-12+002299999V0201101N002119999999N9999999N1+00621+00101102401ADDMA1999999102131MD1710011+9999REMSYN060AAXX  11234 47750 46/// /1104 10062 20010 30213 40240 57001;
0321477500999992000011200004+35450+135320SY-MT+002299999V0201101N001510360019N0250001N1+00641+00071102371ADDAA106000091GA1021+009009999GA2081+036009999GF108991061021999999071999KA1999N+00591MA1102401102101MD1810081+9999MW1001REMSYN076AAXX  12004 47750 32/75 81103 10064 20007 30210 40237 58008 8627/ 333 20059;MET07547750 0000Z 00000KT 9999 SCT030 OVC120 06/01 Q1024 RMK 3CU030 8AS120 A3024;EQDQ01+000000PRSWM2Q02  00002PRCP06
0101477500999992000011201004+35450+135320FM-12+002299999V0200501N002119999999N9999999N1+00791+00161102271ADDMA1999999102001MD1710161+9999REMSYN060AAXX  12014 47750 46/// /0504 10079 20016 30200 40227 57016;
0101477500999992000011202004+35450+135320FM-12+002299999V0202401N003119999999N9999999N1+00871+00161102281ADDMA1999999102011MD1710121+9999REMSYN060AAXX  12024 47750 46/// /2406 10087 20016 30201 40228 57012;
0302477500999992000011203004+35450+135320SY-MT+002299999V0202901N001010690019N0200001N1+00881+00181102071ADDAY181031AY221031GA1021+036009999GA2071+069009999GF107991011021999999031021MA1102101101801MD1810301+9999MW1021REMSYN072AAXX  12034 47750 41/70 72902 10088 20018 30180 40207 58030 70282 81232;MET06847750 0300Z 31002KT 9999 FEW120 BKN230 09/01 Q1021 RMK 1AC120 A3016;EQDQ01+000000PRSWM2Q02    003PRSWM1
0101477500999992000011204004+35450+135320FM-12+002299999V0200201N002119999999N9999999N1+00901+00141101961ADDMA1999999101691MD1710311+9999REMSYN060AAXX  12044 47750 46/// /0204 10090 20014 30169 40196 57031;
0101477500999992000011205004+35450+135320FM-12+002299999V0200101N001019999999N9999999N1+00891+00131101881ADDMA1999999101611MD1710401+9999REMSYN060AAXX  12054 47750 46/// /0102 10089 20013 30161 40188 57040;
0319477500999992000011206004+35450+135320SY-MT+002299999V0203601N001010150019N0200001N1+00921+00151101831ADDAY181061AY221061GA1071+015009999GA2081+030009999GF108991021051999999071999MA1101801101561MD1610241+9999MW1211REMSYN082AAXX  12064 47750 41/70 83602 10092 20015 30156 40183 56024 72182 8257/ 555 00093;MET07547750 0600Z 32001KT 9999 BKN050 OVC100 09/02 Q1018 RMK 5SC050 8AS100 A3007;EQDQ01+000000PRSWM2Q02    003PRSWM1
0101477500999992000011207004+35450+135320FM-12+002299999V0202201N000519999999N9999999N1+00831+00451101791ADDMA1999999101521MD1710171+9999REMSYN060AAXX  12074 47750 46/// /2201 10083 20045 30152 40179 57017;
0101477500999992000011208004+35450+135320FM-12+002299999V0202301N001019999999N9999999N1+00791+00301101771ADDMA1999999101501MD1710111+9999REMSYN060AAXX  12084 47750 46/// /2302 10079 20030 30150 40177 57011;
0161477500999992000011209004+35450+135320FM-12+002299999V0202501N001019999999N0150001N1+00751+00441101741ADDAY161031AY221031GF108991051051999999021999MA1999999101471MD1810091+9999MW1611REMSYN072AAXX  12094 47750 41/65 82502 10075 20044 30147 40174 58009 76162 8552/;
0101477500999992000011210004+35450+135320FM-12+002299999V0202301N000519999999N9999999N1+00691+00411101711ADDMA1999999101441MD1710081+9999REMSYN060AAXX  12104 47750 46/// /2301 10069 20041 30144 40171 57008;
0101477500999992000011211004+35450+135320FM-12+002299999V0202501N000519999999N9999999N1+00651+00511101671ADDMA1999999101401MD1710101+9999REMSYN060AAXX  12114 47750 46/// /2501 10065 20051 30140 40167 57010;
0201477500999992000011212004+35450+135320FM-12+002299999V0202001N000510360019N0120001N1+00641+00521101621ADDAA112002091AY161061AY221061GF108991021071001501021999KA1999M+00931MA1999999101351MD1810121+9999MW1611REMSYN088AAXX  12124 47750 11262 82001 10064 20052 30135 40162 58012 60022 76162 8272/ 333 10093;
0101477500999992000011213004+35450+135320FM-12+002299999V0202701N001019999999N9999999N1+00641+00531101561ADDMA1999999101291MD1710151+9999REMSYN060AAXX  12134 47750 46/// /2702 10064 20053 30129 40156 57015;
0101477500999992000011214004+35450+135320FM-12+002299999V0209999C000019999999N9999999N1+00631+00541101501ADDMA1999999101231MD1710171+9999REMSYN060AAXX  12144 47750 46/// /0000 10063 20054 30123 40150 57017;
0101477500999992000011215004+35450+135320FM-12+002299999V0209999C000019999999N9999999N1+00611+00531101421ADDMA1999999101151MD1710201+9999REMSYN060AAXX  12154 47750 46/// /0000 10061 20053 30115 40142 57020;
0101477500999992000011216004+35450+135320FM-12+002299999V0201001N001519999999N9999999N1+00631+00531101401ADDMA1999999101131MD1710161+9999REMSYN060AAXX  12164 47750 46/// /1003 10063 20053 30113 40140 57016;
0101477500999992000011217004+35450+135320FM-12+002299999V0209999C000019999999N9999999N1+00641+00561101361ADDMA1999999101091MD1710141+9999REMSYN060AAXX  12174 47750 46/// /0000 10064 20056 30109 40136 57014;
0161477500999992000011218004+35450+135320FM-12+002299999V0209999C000010360019N0100001N1+00641+00551101261ADDAY161061AY261061GF108991031071001501021999MA1999999100991MD1810161+9999MW1211REMSYN072AAXX  12184 47750 41260 80000 10064 20055 30099 40126 58016 72166 8372/;
0101477500999992000011219004+35450+135320FM-12+002299999V0202701N000519999999N9999999N1+00641+00561101151ADDMA1999999100881MD1710251+9999REMSYN060AAXX  12194 47750 46/// /2701 10064 20056 30088 40115 57025;
0101477500999992000011220004+35450+135320FM-12+002299999V0202401N001019999999N9999999N1+00641+00561101091ADDMA1999999100821MD1710271+9999REMSYN060AAXX  12204 47750 46/// /2402 10064 20056 30082 40109 57027;
0161477500999992000011221004+35450+135320FM-12+002299999V0209999C000010012019N0080001N1+00641+00561101071ADDAY121031AY221031GF108991051071001501021999MA1999999100801MD1610191+9999MW1211REMSYN072AAXX  12214 47750 41258 80000 10064 20056 30080 40107 56019 72122 8572/;
0101477500999992000011222004+35450+135320FM-12+002299999V0209999C000019999999N9999999N1+00671+00581101071ADDMA1999999100801MD1710081+9999REMSYN060AAXX  12224 47750 46/// /0000 10067 20058 30080 40107 57008;
0101477500999992000011223004+35450+135320FM-12+002299999V0201501N000519999999N9999999N1+00691+00601101071ADDMA1999999100801MD1710021+9999REMSYN060AAXX  12234 47750 46/// /1501 10069 20060 30080 40107 57002;
0379477500999992000011300004+35450+135320SY-MT+002299999V0201001N00051012001CN0080001N1+00791+00691101051ADDAA112003091AY161061AY221061GA1021+001509999GA2071+012009999GA3081+024009999GF108991071021001501071999KA1999N+00611MA1101021100781MD1810021+9999MW1251REMSYN088AAXX  13004 47750 11258 81001 10079 20069 30078 40105 58002 60032 72562 8727/ 333 20061;MET08947750 0000Z 06001KT 6000 FEW005 BKN040 OVC080 08/07 Q1010 RMK 2ST005 5SC040 8AS080 A2984;EQDQ01+000000PRSWM2Q02    003PRSWM1
0101477500999992000011301004+35450+135320FM-12+002299999V0202401N001019999999N9999999N1+00891+00781101031ADDMA1999999100761MD1710041+9999REMSYN060AAXX  13014 47750 46/// /2402 10089 20078 30076 40103 57004;
0101477500999992000011302004+35450+135320FM-12+002299999V0202401N000519999999N9999999N1+00911+00791100941ADDMA1999999100671MD1710131+9999REMSYN060AAXX  13024 47750 46/// /2401 10091 20079 30067 40094 57013;
0185477500999992000011303004+35450+135320FM-15+002299999V0200101N000510120019N0060001N1+00901+00801999999ADDGA1021+001509999GA2081+012009999GF108991999999999999999999MA1100811999999MW1001REMMET07547750 0300Z 01001KT 6000 SCT005 OVC040 09/08 Q1008 RMK 4ST005 8SC040 A2978;EQDQ01+000000PRSWM2
0101477500999992000011304004+35450+135320FM-12+002299999V0209999C000019999999N9999999N1+00991+00831100691ADDMA1999999100421MD1710341+9999REMSYN060AAXX  13044 47750 46/// /0000 10099 20083 30042 40069 57034;
0101477500999992000011305004+35450+135320FM-12+002299999V0201301N000519999999N9999999N1+01001+00891100661ADDMA1999999100391MD1710281+9999REMSYN060AAXX  13054 47750 46/// /1301 10100 20089 30039 40066 57028;
0171477500999992000011306004+35450+135320FM-12+002299999V0202501N001010012019N0060001N1+01001+00921100671ADDAY181061AY221061GF108991081021001501999999MA1999999100401MD1510121+9999MW1801REMSYN082AAXX  13064 47750 41256 82502 10100 20092 30040 40067 55012 78082 882// 555 00103;
0101477500999992000011307004+35450+135320FM-12+002299999V0201501N001519999999N9999999N1+01011+00931100681ADDMA1999999100411MD1710011+9999REMSYN060AAXX  13074 47750 46/// /1503 10101 20093 30041 40068 57001;
0101477500999992000011308004+35450+135320FM-12+002299999V0202501N000519999999N9999999N1+01011+00931100731ADDMA1999999100461MD1210071+9999REMSYN060AAXX  13084 47750 46/// /2501 10101 20093 30046 40073 52007;
0161477500999992000011309004+35450+135320FM-12+002299999V0202401N002110012019N0070001N1+01011+00911100831ADDAY181031AY221031GF108991081021001501999999MA1999999100561MD1310161+9999MW1101REMSYN072AAXX  13094 47750 41257 82404 10101 20091 30056 40083 53016 71082 882//;
0101477500999992000011310004+35450+135320FM-12+002299999V0202101N001019999999N9999999N1+00971+00891100851ADDMA1999999100581MD1210171+9999REMSYN060AAXX  13104 47750 46/// /2102 10097 20089 30058 40085 52017;
0101477500999992000011311004+35450+135320FM-12+002299999V0209999C000019999999N9999999N1+00931+00861100891ADDMA1999999100621MD1210161+9999REMSYN060AAXX  13114 47750 46/// /0000 10093 20086 30062 40089 52016;
0201477500999992000011312004+35450+135320FM-12+002299999V0202601N001019999999N0080001N1+00911+00841100931ADDAA112007191AY181061AY221061GF108991081021999999999999KA1999M+01031MA1999999100661MD1310101+9999MW1101REMSYN088AAXX  13124 47750 11/58 82602 10091 20084 30066 40093 53010 60072 71082 882// 333 10103;
0101477500999992000011313004+35450+135320FM-12+002299999V0202201N003119999999N9999999N1+00961+00871100951ADDMA1999999100681MD1210101+9999REMSYN060AAXX  13134 47750 46/// /2206 10096 20087 30068 40095 52010;
0101477500999992000011314004+35450+135320FM-12+002299999V0209999C000019999999N9999999N1+00931+00861101001ADDMA1999999100731MD1210111+9999REMSYN060AAXX  13144 47750 46/// /0000 10093 20086 30073 40100 52011;
0101477500999992000011315004+35450+135320FM-12+002299999V0202701N000519999999N9999999N1+00901+00831101021ADDMA1999999100751MD1210091+9999REMSYN060AAXX  13154 47750 46/// /2701 10090 20083 30075 40102 52009;
0101477500999992000011316004+35450+135320FM-12+002299999V0202201N001519999999N9999999N1+00831+00761101081ADDMA1999999100811MD1210131+9999REMSYN060AAXX  13164 47750 46/// /2203 10083 20076 30081 40108 52013;
0101477500999992000011317004+35450+135320FM-12+002299999V0202501N001019999999N9999999N1+00781+00721101151ADDMA1999999100881MD1210151+9999REMSYN060AAXX  13174 47750 46/// /2502 10078 20072 30088 40115 52015;
0161477500999992000011318004+35450+135320FM-12+002299999V0202701N002119999999N0100001N1+00801+00661101251ADDAY181061AY221061GF108991081021999999999999MA1999999100981MD1310231+9999MW1021REMSYN072AAXX  13184 47750 41/60 82704 10080 20066 30098 40125 53023 70282 882//;
0101477500999992000011319004+35450+135320FM-12+002299999V0202501N002119999999N9999999N1+00711+00541101271ADDMA1999999101001MD1210191+9999REMSYN060AAXX  13194 47750 46/// /2504 10071 20054 30100 40127 52019;
0105477500999992000011320004+35450+135320FM-12+002299999V0202701N001519999999N9999999N1+00681+00491101331ADDMA1999999101061MD1210181+9999REMSYN064    AAXX  13204 47750 46/// /2703 10068 20049 30106 40133 52018;
0165477500999992000011321004+35450+135320FM-12+002299999V0201601N000519999999N0150001N1+00651+00521101401ADDAY181031AY221031GF108991081021999999999999MA1999999101131MD1310151+9999MW1251REMSYN076    AAXX  13214 47750 41/65 81601 10065 20052 30113 40140 53015 72582 882//;
0105477500999992000011322004+35450+135320FM-12+002299999V0209999C000019999999N9999999N1+00651+00511101491ADDMA1999999101221MD1210221+9999REMSYN064    AAXX  13224 47750 46/// /0000 10065 20051 30122 40149 52022;
0105477500999992000011323004+35450+135320FM-12+002299999V0201801N000519999999N9999999N1+00661+00531101601ADDMA1999999101331MD1210271+9999REMSYN064    AAXX  13234 47750 46/// /1801 10066 20053 30133 40160 52027;
0339477500999992000011400004+35450+135320SY-MT+002299999V0201901N00051220001CN0250001N1+00711+00471101661ADDAA112000591AY181061AY211061GA1071+009009999GF199999031021999999001001KA1999N+00641MA1101591101391MD1110261+9999MW1011REMSYN092    AAXX  14004 47750 11/75 31901 10071 20047 30139 40166 51026 69952 70181 83200 333 20064;MET06147750 0000Z 18001KT 9999 BKN030 09/04 Q1016 RMK 5CU030 A3001;EQDQ01+000032SCOTCVQ02+000000PRSWM2Q03    003PRSWM1
0105477500999992000011401004+35450+135320FM-12+002299999V0202401N001019999999N9999999N1+00861+00411101671ADDMA1999999101401MD1210181+9999REMSYN064    AAXX  14014 47750 46/// /2402 10086 20041 30140 40167 52018;
0105477500999992000011402004+35450+135320FM-12+002299999V0203001N003619999999N9999999N1+00841+00391101751ADDMA1999999101481MD1210151+9999REMSYN064    AAXX  14024 47750 46/// /3007 10084 20039 30148 40175 52015;
0313477500999992000011403004+35450+135320SY-MT+002299999V0201101N001512200019N0200001N1+00981+00641101651ADDAY111031AY211031GA1021+006009999GA2021+009009999GF102991021021999999001001MA1101691101381MD1810011+9999MW1251REMSYN076    AAXX  14034 47750 41/70 21103 10098 20064 30138 40165 58001 72511 82200;MET07547750 0300Z 21002KT 9999 FEW020 SCT030 09/04 Q1017 RMK 2CU020 4CU030 A3003;EQDQ01+000000PRSWM2Q02    003PRSWM1
0105477500999992000011404004+35450+135320FM-12+002299999V0200201N005719999999N9999999N1+00991+00431101621ADDMA1999999101351MD1710051+9999REMSYN064    AAXX  14044 47750 46/// /0211 10099 20043 30135 40162 57005;
0105477500999992000011405004+35450+135320FM-12+002299999V0203401N002619999999N9999999N1+00971+00471101621ADDMA1999999101351MD1710131+9999REMSYN064    AAXX  14054 47750 46/// /3405 10097 20047 30135 40162 57013;
0293477500999992000011406004+35450+135320SY-MT+002299999V0202501N004110090019N0200001N1+00851+00501101661ADDAY181061AY211061GA1071+009009999GF107991071021999999999999MA1101591101391MD1310011+9999MW1801REMSYN086    AAXX  14064 47750 41/70 72508 10085 20050 30139 40166 53001 78081 872// 555 00102;MET06147750 0600Z 35003KT 9999 BKN030 09/05 Q1016 RMK 7CU030 A3002;EQDQ01+000000PRSWM2Q02    003PRSWM1
0105477500999992000011407004+35450+135320FM-12+002299999V0203101N001519999999N9999999N1+00861+00571101671ADDMA1999999101401MD1210051+9999REMSYN064    AAXX  14074 47750 46/// /3103 10086 20057 30140 40167 52005;
0105477500999992000011408004+35450+135320FM-12+002299999V0203301N002119999999N9999999N1+00791+00511101741ADDMA1999999101471MD1210121+9999REMSYN064    AAXX  14084 47750 46/// /3304 10079 20051 30147 40174 52012;
0165477500999992000011409004+35450+135320FM-12+002299999V0202401N001519999999N0200001N1+00711+00481101841ADDAY181031AY221031GF107991071021999999999999MA1999999101571MD1310181+9999MW1021REMSYN076    AAXX  14094 47750 41/70 72403 10071 20048 30157 40184 53018 70282 872//;
0105477500999992000011410004+35450+135320FM-12+002299999V0201001N001519999999N9999999N1+00621+00321101871ADDMA1999999101601MD1210201+9999REMSYN064    AAXX  14104 47750 46/// /1003 10062 20032 30160 40187 52020;
0105477500999992000011411004+35450+135320FM-12+002299999V0203301N001519999999N9999999N1+00531+00321101901ADDMA1999999101631MD1210161+9999REMSYN064    AAXX  14114 47750 46/// /3303 10053 20032 30163 40190 52016;
0205477500999992000011412004+35450+135320FM-12+002299999V0202501N001019999999N0150001N1+00531+00341101971ADDAA112001091AY181061AY221061GF106991061021999999001001KA1999M+01021MA1999999101701MD1310131+9999MW1251REMSYN092    AAXX  14124 47750 11/65 62502 10053 20034 30170 40197 53013 60012 72582 86200 333 10102;
0105477500999992000011413004+35450+135320FM-12+002299999V0202501N000519999999N9999999N1+00471+00331102001ADDMA1999999101731MD1210131+9999REMSYN064    AAXX  14134 47750 46/// /2501 10047 20033 30173 40200 52013;
0105477500999992000011414004+35450+135320FM-12+002299999V0202901N000519999999N9999999N1+00441+00301102031ADDMA1999999101761MD1210131+9999REMSYN064    AAXX  14144 47750 46/// /2901 10044 20030 30176 40203 52013;
0105477500999992000011415004+35450+135320FM-12+002299999V0202901N001519999999N9999999N1+00411+00261102051ADDMA1999999101771MD1210071+9999REMSYN064    AAXX  14154 47750 46/// /2903 10041 20026 30177 40205 52007;
0105477500999992000011416004+35450+135320FM-12+002299999V0202501N000519999999N9999999N1+00351+00231102041ADDMA1999999101761MD1210031+9999REMSYN064    AAXX  14164 47750 46/// /2501 10035 20023 30176 40204 52003;
0105477500999992000011417004+35450+135320FM-12+002299999V0202401N001019999999N9999999N1+00321+00201102041ADDMA1999999101761MD1410001+9999REMSYN064    AAXX  14174 47750 46/// /2402 10032 20020 30176 40204 54000;
0165477500999992000011418004+35450+135320FM-12+002299999V0209999C000012200019N0120001N1+00241+00141102051ADDAY181061AY211061GF102991021021002501001001MA1999999101771MD1510001+9999MW1021REMSYN076    AAXX  14184 47750 41362 20000 10024 20014 30177 40205 55000 70281 82200;
0105477500999992000011419004+35450+135320FM-12+002299999V0201101N000519999999N9999999N1+00241+00121102051ADDMA1999999101771MD1210011+9999REMSYN064    AAXX  14194 47750 46/// /1101 10024 20012 30177 40205 52001;
0105477500999992000011420004+35450+135320FM-12+002299999V0202601N001019999999N9999999N1+00231+00131102081ADDMA1999999101801MD1210041+9999REMSYN064    AAXX  14204 47750 46/// /2602 10023 20013 30180 40208 52004;
0137477500999992000011421004+35450+135320FM-12+002299999V0202501N002110012019N0100001N1+00301+00201102151ADDGF107991071021001501999999MA1999999101871MD1310101+9999REMSYN070    AAXX  14214 47750 42260 72504 10030 20020 30187 40215 53010 872//;
0105477500999992000011422004+35450+135320FM-12+002299999V0209999C000019999999N9999999N1+00341+00221102201ADDMA1999999101921MD1210151+9999REMSYN064    AAXX  14224 47750 46/// /0000 10034 20022 30192 40220 52015;
0105477500999992000011423004+35450+135320FM-12+002299999V0200201N000519999999N9999999N1+00381+00271102241ADDMA1999999101961MD1210161+9999REMSYN064    AAXX  14234 47750 46/// /0201 10038 20027 30196 40224 52016;
0379477500999992000011500004+35450+135320SY-MT+002299999V0209999C00001009001CN0120001N1+00451+00341102301ADDAA112001091AY181061AY221061GA1021+001509999GA2071+009009999GF199999061021001501001001KA1120N+00191MA1102201102021MD1310151+9999MW1251REMSYN102    AAXX  15004 47750 11262 60000 10045 20034 30202 40230 53015 60012 72582 86200 333 20019 555 15000;MET07547750 0000Z 14001KT 9999 FEW005 BKN030 05/04 Q1022 RMK 1ST005 5CU030 A3020;EQDQ01+000062SCOTCVQ02+000000PRSWM2Q03    003PRSWM1
0105477500999992000011501004+35450+135320FM-12+002299999V0209999C000019999999N9999999N1+00631+00451102331ADDMA1999999102061MD1210141+9999REMSYN064    AAXX  15014 47750 46/// /0000 10063 20045 30206 40233 52014;
0105477500999992000011502004+35450+135320FM-12+002299999V0200201N003119999999N9999999N1+00711+00421102351ADDMA1999999102081MD1210121+9999REMSYN064    AAXX  15024 47750 46/// /0206 10071 20042 30208 40235 52012;
0303477500999992000011503004+35450+135320SY-MT+002299999V0209999C000010060019N0200001N1+00641+00431102311ADDAY121031AY221031GA1021+001509999GA2081+006009999GF108991081021001501999999MA1102301102041MD1010021+9999MW1801REMSYN076    AAXX  15034 47750 41270 80000 10064 20043 30204 40231 50002 78022 882//;MET08147750 0300Z 16002KT 8000 -SHRA FEW005 OVC020 06/05 Q1023 RMK 1ST005 8CU020 A3021;EQDQ01    003PRSWM1
0105477500999992000011504004+35450+135320FM-12+002299999V0202401N000519999999N9999999N1+00771+00561102241ADDMA1999999101971MD1710091+9999REMSYN064    AAXX  15044 47750 46/// /2401 10077 20056 30197 40224 57009;
0105477500999992000011505004+35450+135320FM-12+002299999V0203601N004619999999N9999999N1+00691+00401102251ADDMA1999999101981MD1710101+9999REMSYN064    AAXX  15054 47750 46/// /3609 10069 20040 30198 40225 57010;
0283477500999992000011506004+35450+135320SY-MT+002299999V0202301N001510060019N0200001N1+00631+00491102281ADDAY181061AY221061GA1071+006009999GF107991071021002501999999MA1102201102011MD1510031+9999MW1801REMSYN076    AAXX  15064 47750 41370 72303 10063 20049 30201 40228 55003 78082 872//;MET06147750 0600Z 16002KT 9999 BKN020 07/05 Q1022 RMK 7CU020 A3020;EQDQ01+000000PRSWM2Q02    003PRSWM1
0105477500999992000011507004+35450+135320FM-12+002299999V0200601N003619999999N9999999N1+00741+00381102351ADDMA1999999102081MD1210111+9999REMSYN064    AAXX  15074 47750 46/// /0607 10074 20038 30208 40235 52011;
0105477500999992000011508004+35450+135320FM-12+002299999V0200901N002619999999N9999999N1+00671+00321102411ADDMA1999999102141MD1210161+9999REMSYN064    AAXX  15084 47750 46/// /0905 10067 20032 30214 40241 52016;
0165477500999992000011509004+35450+135320FM-12+002299999V0201001N001019999999N0200001N1+00591+00381102421ADDAY181031AY221031GF107991071021999999999999MA1999999102151MD1110141+9999MW1251REMSYN076    AAXX  15094 47750 41/70 71002 10059 20038 30215 40242 51014 72582 872//;
0105477500999992000011510004+35450+135320FM-12+002299999V0200601N002619999999N9999999N1+00681+00231102431ADDMA1999999102161MD1210081+9999REMSYN064    AAXX  15104 47750 46/// /0605 10068 20023 30216 40243 52008;
0105477500999992000011511004+35450+135320FM-12+002299999V0200901N003119999999N9999999N1+00631+00171102401ADDMA1999999102131MD1710011+9999REMSYN064    AAXX  15114 47750 46/// /0906 10063 20017 30213 40240 57001;
0205477500999992000011512004+35450+135320FM-12+002299999V0209999C000019999999N0200001N1+00441+00251102451ADDAA112006191AY181061AY211061GF106991061021999999001001KA1999M+00891MA1999999102171MD1310021+9999MW1021REMSYN092    AAXX  15124 47750 11/70 60000 10044 20025 30217 40245 53002 60062 70281 86200 333 10089;
0105477500999992000011513004+35450+135320FM-12+002299999V0200801N000519999999N9999999N1+00381+00241102441ADDMA1999999102161MD1410001+9999REMSYN064    AAXX  15134 47750 46/// /0801 10038 20024 30216 40244 54000;
0105477500999992000011514004+35450+135320FM-12+002299999V0209999C000019999999N9999999N1+00311+00191102451ADDMA1999999102171MD1210041+9999REMSYN064    AAXX  15144 47750 46/// /0000 10031 20019 30217 40245 52004;
0105477500999992000011515004+35450+135320FM-12+002299999V0209999C000019999999N9999999N1+00271+00161102441ADDMA1999999102161MD1710011+9999REMSYN064    AAXX  15154 47750 46/// /0000 10027 20016 30216 40244 57001;
0105477500999992000011516004+35450+135320FM-12+002299999V0209999C000019999999N9999999N1+00231+00131102391ADDMA1999999102111MD1710051+9999REMSYN064    AAXX  15164 47750 46/// /0000 10023 20013 30211 40239 57005;
0105477500999992000011517004+35450+135320FM-12+002299999V0202401N001019999999N9999999N1+00271+00161102411ADDMA1999999102131MD1710041+9999REMSYN064    AAXX  15174 47750 46/// /2402 10027 20016 30213 40241 57004;
0137477500999992000011518004+35450+135320FM-12+002299999V0203201N000512200019N0150001N1+00161+00051102361ADDGF101991011061001501001001MA1999999102081MD1710081+9999REMSYN070    AAXX  15184 47750 42265 13201 10016 20005 30208 40236 57008 81600;
0105477500999992000011519004+35450+135320FM-12+002299999V0202501N001019999999N9999999N1+00101-00011102341ADDMA1999999102061MD1710051+9999REMSYN064    AAXX  15194 47750 46/// /2502 10010 21001 30206 40234 57005;
0175477500999992000011521004+35450+135320FM-12+002299999V0202201N001010006019N0006001N1+00061-00021102371ADDAY111031AY211031GA1091+999999999GF109991091999999999999999MA1999999102091MD1310011+9999MW1451REMSYN070    AAXX  15214 47750 41/06 92202 10006 21002 30209 40237 53001 74511;
0105477500999992000011522004+35450+135320FM-12+002299999V0202701N001019999999N9999999N1+00071-00011102371ADDMA1999999102091MD1210031+9999REMSYN064    AAXX  15224 47750 46/// /2702 10007 21001 30209 40237 52003;
0105477500999992000011523004+35450+135320FM-12+002299999V0202601N002119999999N9999999N1+00061-00011102361ADDMA1999999102081MD1210021+9999REMSYN064    AAXX  15234 47750 46/// /2604 10006 21001 30208 40236 52002;
0350477500999992000011600004+35450+135320SY-MT+002299999V0202601N00261000151CN0050001N1+00121+00041102321ADDAA199000091AY141061AY211061GA1091+000159999GF109991091061000751999999KA1999N+00041MA1102201102041MD1810051+9999MW1101MW2451REMSYN086    AAXX  16004 47750 31150 82605 10012 20004 30204 40232 58005 71041 886// 333 20004;MET05647750 0000Z 21001KT 0900 FG VV009 01/00 Q1022 RMK A3020;EQDQ01+000082SCOTCVQ02+000082SCOTLCQ03  00002PRCP99Q04    003PRSWM1
0105477500999992000011601004+35450+135320FM-12+002299999V0200901N001519999999N9999999N1+00221+00081102241ADDMA1999999101961MD1710131+9999REMSYN064    AAXX  16014 47750 46/// /0903 10022 20008 30196 40224 57013;
0105477500999992000011602004+35450+135320FM-12+002299999V0202601N003619999999N9999999N1+00321+00151102231ADDMA1999999101951MD1710131+9999REMSYN064    AAXX  16024 47750 46/// /2607 10032 20015 30195 40223 57013;
0275477500999992000011603004+35450+135320SY-MT+002299999V0200601N00101007501CN0200001N1+00451+00241102121ADDGA1071+007509999GA2081+013509999GF108991011061001501071999MA1102101101841MD1810201+9999MW1001REMSYN070    AAXX  16034 47750 42270 80602 10045 20024 30184 40212 58020 8167/;MET07547750 0300Z 18002KT 9999 BKN025 OVC045 04/02 Q1021 RMK 5CU025 8SC045 A3015;EQDQ01+000000PRSWM2
0105477500999992000011604004+35450+135320FM-12+002299999V0209999C000019999999N9999999N1+00491+00241102031ADDMA1999999101761MD1710201+9999REMSYN064    AAXX  16044 47750 46/// /0000 10049 20024 30176 40203 57020;
0105477500999992000011605004+35450+135320FM-12+002299999V0209999C000019999999N9999999N1+00511+00341101961ADDMA1999999101691MD1710261+9999REMSYN064    AAXX  16054 47750 46/// /0000 10051 20034 30169 40196 57026;
0345477500999992000011606004+35450+135320SY-MT+002299999V0202401N00211012001CN0130001N1+00431+00301101951ADDAY121061AY221061GA1021+002109999GA2071+012009999GA3081+030009999GF108991021071001501021999MA1101901101681MD1610161+9999MW1611REMSYN086    AAXX  16064 47750 41263 82404 10043 20030 30168 40195 56016 76122 8272/ 555 00052;MET09747750 0600Z COR 20001KT 7000 -RA FEW007 BKN040 OVC100 05/03 Q1019 RMK 2ST007 6SC040 8AS100 A3010;EQDQ01    003PRSWM1
0105477500999992000011607004+35450+135320FM-12+002299999V0202301N001519999999N9999999N1+00411+00291101921ADDMA1999999101651MD1710111+9999REMSYN064    AAXX  16074 47750 46/// /2303 10041 20029 30165 40192 57011;
0105477500999992000011608004+35450+135320FM-12+002299999V0202201N002119999999N9999999N1+00391+00271101911ADDMA1999999101631MD1710061+9999REMSYN064    AAXX  16084 47750 46/// /2204 10039 20027 30163 40191 57006;
0165477500999992000011609004+35450+135320FM-12+002299999V0202301N001519999999N0100001N1+00371+00271101911ADDAY161031AY261031GF108991081001999999021999MA1999999101631MD1610051+9999MW1611REMSYN076    AAXX  16094 47750 41/60 82303 10037 20027 30163 40191 56005 76166 8802/;
0105477500999992000011610004+35450+135320FM-12+002299999V0202401N002119999999N9999999N1+00351+00241101891ADDMA1999999101611MD1710041+9999REMSYN064    AAXX  16104 47750 46/// /2404 10035 20024 30161 40189 57004;
0105477500999992000011611004+35450+135320FM-12+002299999V0209999C000019999999N9999999N1+00361+00251101881ADDMA1999999101601MD1710031+9999REMSYN064    AAXX  16114 47750 46/// /0000 10036 20025 30160 40188 57003;
0205477500999992000011612004+35450+135320FM-12+002299999V0200801N000519999999N0150001N1+00371+00281101851ADDAA112007991AY161061AY261061GF108991011071999999021999KA1999M+00521MA1999999101571MD1810061+9999MW1211REMSYN092    AAXX  16124 47750 11/65 80801 10037 20028 30157 40185 58006 60082 72166 8172/ 333 10052;
0105477500999992000011613004+35450+135320FM-12+002299999V0202701N001019999999N9999999N1+00361+00271101821ADDMA1999999101541MD1710071+9999REMSYN064    AAXX  16134 47750 46/// /2702 10036 20027 30154 40182 57007;
0105477500999992000011614004+35450+135320FM-12+002299999V0209999C000019999999N9999999N1+00361+00271101771ADDMA1999999101491MD1710111+9999REMSYN064    AAXX  16144 47750 46/// /0000 10036 20027 30149 40177 57011;
0105477500999992000011615004+35450+135320FM-12+002299999V0209999C000019999999N9999999N1+00361+00271101681ADDMA1999999101411MD1710161+9999REMSYN064    AAXX  16154 47750 46/// /0000 10036 20027 30141 40168 57016;
0105477500999992000011616004+35450+135320FM-12+002299999V0202401N001519999999N9999999N1+00371+00281101651ADDMA1999999101381MD1710161+9999REMSYN064    AAXX  16164 47750 46/// /2403 10037 20028 30138 40165 57016;
0105477500999992000011617004+35450+135320FM-12+002299999V0209999C000019999999N9999999N1+00381+00281101641ADDMA1999999101371MD1710121+9999REMSYN064    AAXX  16174 47750 46/// /0000 10038 20028 30137 40164 57012;
0165477500999992000011618004+35450+135320FM-12+002299999V0209999C000019999999N0150001N1+00391+00291101601ADDAY161061AY221061GF108991011071999999021999MA1999999101331MD1810081+9999MW1611REMSYN076    AAXX  16184 47750 41/65 80000 10039 20029 30133 40160 58008 76162 8172/;
0105477500999992000011619004+35450+135320FM-12+002299999V0202401N001019999999N9999999N1+00401+00301101561ADDMA1999999101291MD1710091+9999REMSYN064    AAXX  16194 47750 46/// /2402 10040 20030 30129 40156 57009;
0105477500999992000011620004+35450+135320FM-12+002299999V0209999C000019999999N9999999N1+00401+00311101571ADDMA1999999101301MD1710071+9999REMSYN064    AAXX  16204 47750 46/// /0000 10040 20031 30130 40157 57007;
0165477500999992000011621004+35450+135320FM-12+002299999V0209999C000010021019N0150001N1+00421+00331101601ADDAY161031AY261031GF107991071021002501999999MA1999999101331MD1510001+9999MW1211REMSYN076    AAXX  16214 47750 41365 70000 10042 20033 30133 40160 55000 72166 872//;
0105477500999992000011622004+35450+135320FM-12+002299999V0209999C000019999999N9999999N1+00431+00341101601ADDMA1999999101331MD1210041+9999REMSYN064    AAXX  16224 47750 46/// /0000 10043 20034 30133 40160 52004;
0105477500999992000011623004+35450+135320FM-12+002299999V0202301N000519999999N9999999N1+00471+00371101631ADDMA1999999101361MD1210061+9999REMSYN064    AAXX  16234 47750 46/// /2301 10047 20037 30136 40163 52006;
0359477500999992000011700004+35450+135320SY-MT+002299999V0200901N00151007501CN0200001N1+00601+00481101591ADDAA112001091AY181061AY221061GA1071+007509999GA2081+010509999GF199999071021002501999999KA1999N+00351MA1101491101321MD1810011+9999MW1801REMSYN092    AAXX  17004 47750 11370 70903 10060 20048 30132 40159 58001 60012 78082 872// 333 20035;MET08147750 0000Z VRB03KT 9999 -SHRA BKN025 OVC035 07/05 Q1015 RMK 5CU025 8CU035 A2999;EQDQ01+000072SCOTCVQ02    003PRSWM1
0105477500999992000011701004+35450+135320FM-12+002299999V0200401N005719999999N9999999N1+00811+00391101571ADDMA1999999101301MD1710031+9999REMSYN064    AAXX  17014 47750 46/// /0411 10081 20039 30130 40157 57003;
0105477500999992000011702004+35450+135320FM-12+002299999V0200301N005119999999N9999999N1+00881+00341101511ADDMA1999999101241MD1710121+9999REMSYN064    AAXX  17024 47750 46/// /0310 10088 20034 30124 40151 57012;
0283477500999992000011703004+35450+135320SY-MT+002299999V0200201N006710075019N0250001N1+00921+00361101481ADDAY181031AY221031GA1071+007509999GF107991071021999999999999MA1101391101211MD1810111+9999MW1021REMSYN076    AAXX  17034 47750 41/75 70213 10092 20036 30121 40148 58011 70282 872//;MET06147750 0300Z 35007KT 9999 BKN025 09/04 Q1014 RMK 7CU025 A2996;EQDQ01+000000PRSWM2Q02    003PRSWM1
0105477500999992000011704004+35450+135320FM-12+002299999V0200401N006719999999N9999999N1+00941+00301101441ADDMA1999999101171MD1710131+9999REMSYN064    AAXX  17044 47750 46/// /0413 10094 20030 30117 40144 57013;
0105477500999992000011705004+35450+135320FM-12+002299999V0200201N007219999999N9999999N1+01021+00401101401ADDMA1999999101131MD1710111+9999REMSYN064    AAXX  17054 47750 46/// /0214 10102 20040 30113 40140 57011;
0316477500999992000011706004+35450+135320SY-MT+002299999V0200301N006710075019N0250001N1+01011+00241101371ADDAY181061AY221061GA1071+007509999GA2071+066009999GF107991051021999999001021MA1101291101101MD1610111+9999MW1021REMSYN086    AAXX  17064 47750 41/75 70313 10101 20024 30110 40137 56011 70282 85202 555 00104;MET06847750 0600Z 36006KT 9999 BKN025 BKN220 10/04 Q1013 RMK 5CU025 A2993;EQDQ01+000000PRSWM2Q02    003PRSWM1
0105477500999992000011707004+35450+135320FM-12+002299999V0200401N006719999999N9999999N1+00991+00281101401ADDMA1999999101131MD1710041+9999REMSYN064    AAXX  17074 47750 46/// /0413 10099 20028 30113 40140 57004;
0105477500999992000011708004+35450+135320FM-12+002299999V0200401N004619999999N9999999N1+00981+00271101421ADDMA1999999101151MD1210021+9999REMSYN064    AAXX  17084 47750 46/// /0409 10098 20027 30115 40142 52002;
0165477500999992000011709004+35450+135320FM-12+002299999V0200301N006219999999N0150001N1+00971+00291101421ADDAY181031AY221031GF108991081021999999999999MA1999999101151MD1110051+9999MW1801REMSYN076    AAXX  17094 47750 41/65 80312 10097 20029 30115 40142 51005 78082 882//;
0105477500999992000011710004+35450+135320FM-12+002299999V0200101N007719999999N9999999N1+00961+00371101461ADDMA1999999101191MD1210061+9999REMSYN064    AAXX  17104 47750 46/// /0115 10096 20037 30119 40146 52006;
0105477500999992000011711004+35450+135320FM-12+002299999V0200101N010319999999N9999999N1+00941+00381101531ADDMA1999999101261MD1210111+9999REMSYN064    AAXX  17114 47750 46/// /0120 10094 20038 30126 40153 52011;
0205477500999992000011712004+35450+135320FM-12+002299999V0200101N009319999999N0150001N1+00891+00381101621ADDAA112000791AY181061AY221061GF108991081021999999999999KA1999M+01041MA1999999101351MD1310201+9999MW1801REMSYN092    AAXX  17124 47750 11/65 80118 10089 20038 30135 40162 53020 69902 78082 882// 333 10104;
0105477500999992000011713004+35450+135320FM-12+002299999V0203601N009319999999N9999999N1+00791+00351101651ADDMA1999999101381MD1210191+9999REMSYN064    AAXX  17134 47750 46/// /3618 10079 20035 30138 40165 52019;
0105477500999992000011714004+35450+135320FM-12+002299999V0200101N008719999999N9999999N1+00751+00241101671ADDMA1999999101401MD1210141+9999REMSYN064    AAXX  17144 47750 46/// /0117 10075 20024 30140 40167 52014;
0105477500999992000011715004+35450+135320FM-12+002299999V0200201N007219999999N9999999N1+00741+00081101661ADDMA1999999101391MD1210041+9999REMSYN064    AAXX  17154 47750 46/// /0214 10074 20008 30139 40166 52004;
0105477500999992000011716004+35450+135320FM-12+002299999V0200201N008719999999N9999999N1+00781+00111101651ADDMA1999999101381MD1410001+9999REMSYN064    AAXX  17164 47750 46/// /0217 10078 20011 30138 40165 54000;
0105477500999992000011717004+35450+135320FM-12+002299999V0203601N007719999999N9999999N1+00781+00051101651ADDMA1999999101381MD1710021+9999REMSYN064    AAXX  17174 47750 46/// /3615 10078 20005 30138 40165 57002;
0165477500999992000011718004+35450+135320FM-12+002299999V0200101N007219999999N0150001N1+00781+00051101641ADDAY121061AY221061GF108991081021999999999999MA1999999101371MD1710021+9999MW1251REMSYN076    AAXX  17184 47750 41/65 80114 10078 20005 30137 40164 57002 72522 882//;
0105477500999992000011719004+35450+135320FM-12+002299999V0200101N006719999999N9999999N1+00771+00021101651ADDMA1999999101381MD1410001+9999REMSYN064    AAXX  17194 47750 46/// /0113 10077 20002 30138 40165 54000;
0105477500999992000011720004+35450+135320FM-12+002299999V0203601N006719999999N9999999N1+00741+00091101661ADDMA1999999101391MD1210011+9999REMSYN064    AAXX  17204 47750 46/// /3613 10074 20009 30139 40166 52001;
0165477500999992000011721004+35450+135320FM-12+002299999V0203501N004119999999N0130001N1+00601+00151101721ADDAY121031AY221031GF108991081021999999999999MA1999999101451MD1310081+9999MW1801REMSYN076    AAXX  17214 47750 41/63 83508 10060 20015 30145 40172 53008 78022 882//;
0105477500999992000011722004+35450+135320FM-12+002299999V0200601N004619999999N9999999N1+00531+00141101771ADDMA1999999101501MD1210121+9999REMSYN064    AAXX  17224 47750 46/// /0609 10053 20014 30150 40177 52012;
0105477500999992000011723004+35450+135320FM-12+002299999V0203401N005119999999N9999999N1+00641-00201101771ADDMA1999999101501MD1210111+9999REMSYN064    AAXX  17234 47750 46/// /3410 10064 21020 30150 40177 52011;
0354477500999992000011800004+35450+135320SY-MT+002299999V0203401N004610075019N0250001N1+00701-00121101801ADDAA112001091AY181061AY221061GA1021+006009999GA2071+007509999GF107991071021999999999999KA1999N+00501MA1101691101531MD1110081+9999MW1021REMSYN092    AAXX  18004 47750 11/75 73409 10070 21012 30153 40180 51008 60012 70282 872// 333 20050;MET07647750 0000Z 33006KT 9999 SCT020 BKN025 07/M01 Q1017 RMK 3CU020 6CU025 A3005;EQDQ01+000000PRSWM2Q02    003PRSWM1
0313477500999992000011803004+35450+135320SY-MT+002299999V0203501N005110075019N0200001N1+00721+00021101691ADDAY181031AY221031GA1021+006009999GA2071+007509999GF107991071021999999999999MA1101591101421MD1810111+9999MW1251REMSYN076    AAXX  18034 47750 41/70 73510 10072 20002 30142 40169 58011 72582 872//;MET07547750 0300Z 35007KT 9999 SCT020 BKN025 07/00 Q1016 RMK 4CU020 7CU025 A3003;EQDQ01+000000PRSWM2Q02    003PRSWM1
0354477500999992000011806004+35450+135320SY-MT+002299999V0203601N004110075019N0200001N1+00701-00171101621ADDAY181061AY221061GA1021+006009999GA2071+007509999GA3071+012009999GF107991071021999999999999MA1101591101351MD1510071+9999MW1021REMSYN086    AAXX  18064 47750 41/70 73608 10070 21017 30135 40162 55007 70282 872// 555 00080;MET09047750 0600Z 35006KT 9999 FEW020 BKN025 BKN040 07/M02 Q1016 RMK 2CU020 5CU025 7SC040 A3001;EQDQ01+000000PRSWM2Q02    003PRSWM1
0137477500999992000011809004+35450+135320FM-12+002299999V0203201N002619999999N0250001N1+00591-00221101731ADDGF106991061021999999001001MA1999999101461MD1110111+9999REMSYN070    AAXX  18094 47750 42/75 63205 10059 21022 30146 40173 51011 86200;
0105477500999992000011810004+35450+135320FM-12+002299999V0202301N001019999999N9999999N1+00371-00181101701ADDMA1999999101431MD1210031+9999REMSYN064    AAXX  18104 47750 46/// /2302 10037 21018 30143 40170 52003;
0105477500999992000011811004+35450+135320FM-12+002299999V0203601N000519999999N9999999N1+00181-00111101701ADDMA1999999101421MD1710011+9999REMSYN064    AAXX  18114 47750 46/// /3601 10018 21011 30142 40170 57001;
0177477500999992000011812004+35450+135320FM-12+002299999V0200701N000512200019N0250001N1+00101-00111101711ADDAA112000791GF101991011061999999001001KA1999M+00781MA1999999101431MD1510031+9999REMSYN086    AAXX  18124 47750 12/75 10701 10010 21011 30143 40171 55003 69902 81600 333 10078;
0105477500999992000011813004+35450+135320FM-12+002299999V0203201N000519999999N9999999N1+00021-00141101741ADDMA1999999101461MD1210031+9999REMSYN064    AAXX  18134 47750 46/// /3201 10002 21014 30146 40174 52003;
0105477500999992000011814004+35450+135320FM-12+002299999V0200301N000519999999N9999999N1-00041-00151101741ADDMA1999999101461MD1210041+9999REMSYN064    AAXX  18144 47750 46/// /0301 11004 21015 30146 40174 52004;
0105477500999992000011815004+35450+135320FM-12+002299999V0202201N000519999999N9999999N1-00121-00221101701ADDMA1999999101421MD1710011+9999REMSYN064    AAXX  18154 47750 46/// /2201 11012 21022 30142 40170 57001;
0105477500999992000011816004+35450+135320FM-12+002299999V0200301N000519999999N9999999N1-00121-00201101701ADDMA1999999101421MD1710041+9999REMSYN064    AAXX  18164 47750 46/// /0301 11012 21020 30142 40170 57004;
0105477500999992000011817004+35450+135320FM-12+002299999V0202301N001019999999N9999999N1-00111-00211101651ADDMA1999999101371MD1710091+9999REMSYN064    AAXX  18174 47750 46/// /2302 11011 21021 30137 40165 57009;
