0195479810999992000010100004+24780+141320FM-15+0116RJAW V0200501N007210075019N0112651N1+02001+01701999999ADDGA1021+003009999GA2021+004509999GA3071+007509999GF107991999999999999999999MA1101591999999MW1001REMMET088RJAW 0000Z 05014KT 9999 FEW010 SCT015 BKN025 20/17 Q1016 RMK 1CU010 4CU015 7CU025 A3003;
0195479810999992000010103004+24780+141320FM-15+0116RJAW V0200601N008210075019N0112651N1+02101+01601999999ADDGA1021+004509999GA2071+007509999GA3071+030009999GF107991999999999999999999MA1101391999999MW1001REMMET088RJAW 0300Z 06016KT 9999 FEW015 BKN025 BKN100 21/16 Q1014 RMK 1CU015 5CU025 7AC100 A2997;
0195479810999992000010106004+24780+141320FM-15+0116RJAW V0200501N007710075019N0112651N1+02001+01501999999ADDGA1021+004509999GA2071+007509999GA3071+030009999GF107991999999999999999999MA1101391999999MW1001REMMET088RJAW 0600Z 05015KT 9999 FEW015 BKN025 BKN100 20/15 Q1014 RMK 1CU015 6CU025 7AC100 A2995;
0165479810999992000010109004+24780+141320FM-15+0116RJAW V0200501N007710075019N0112651N1+02001+01401999999ADDGA1021+004509999GA2071+007509999GF107991999999999999999999MA1101491999999MW1001REMMET074RJAW 0900Z 05015KT 9999 FEW015 BKN025 20/14 Q1015 RMK 1CU015 7CU025 A2997;
0220479810999992000010112004+24780+141320FM-15+0116RJAW V0200601N006210075019N0112651N1+01701+01601999999ADDGA1021+003609999GA2021+006009999GA3081+007509999GF108991999999999999999999MA1101491999999MW1801REMMET094RJAW 1200Z 06012KT 9999 -SHRA FEW012 SCT020 OVC025 17/16 Q1015 RMK 1CU012 4CU020 8CU025 A3000;EQDQ01    003PRSWM1
0190479810999992000010115004+24780+141320FM-15+0116RJAW V0200701N008710075019N0112651N1+01901+01401999999ADDGA1021+006009999GA2081+007509999GF108991999999999999999999MA1101391999999MW1801REMMET080RJAW 1500Z 07017KT 9999 -SHRA FEW020 OVC025 19/14 Q1014 RMK 2CU020 8CU025 A2995;EQDQ01    003PRSWM1
0220479810999992000010118004+24780+141320FM-15+0116RJAW V0200601N008710060019N0112651N1+01701+01401999999ADDGA1021+002409999GA2021+004509999GA3071+006009999GF107991999999999999999999MA1101291999999MW1801REMMET094RJAW 1800Z 06017KT 9999 -SHRA FEW008 SCT015 BKN020 17/14 Q1013 RMK 1ST008 3CU015 7CU020 A2994;EQDQ01    003PRSWM1
0225479810999992000010121004+24780+141320FM-15+0116RJAW V0200601N009310060019N0112651N1+01701+01301999999ADDGA1021+001809999GA2071+006009999GA3081+010509999GF108991999999999999999999MA1101391999999MW1801REMMET099RJAW 2100Z 06018KT 9999 -SHRA FEW006 BKN020 OVC035 17/13 Q1014 RERA RMK 1ST006 5CU020 8SC035 A2995;EQDQ01    003PRSWM1
0214479810999992000010200004+24780+141320FM-15+0116RJAW V0200701N008210240019N0112651N1+01801+01301999999ADDGA1021+006009999GA2021+010509999GA3071+024009999GF107991999999999999999999MA1101491999999MW1001REMMET088RJAW 0000Z 07016KT 9999 FEW020 SCT035 BKN080 18/13 Q1015 RMK 2CU020 3SC035 7AC080 A2999;EQDQ01+000000PRSWM2
0184479810999992000010203004+24780+141320FM-15+0116RJAW V0200601N008710105019N0112651N1+01801+01301999999ADDGA1021+006009999GA2071+010509999GF107991999999999999999999MA1101391999999MW1001REMMET074RJAW 0300Z 06017KT 9999 SCT020 BKN035 18/13 Q1014 RMK 4CU020 7CU035 A2995;EQDQ01+000000PRSWM2
0236479810999992000010206004+24780+141320FM-15+0116RJAW V0200901N006210120019N0112651N1+01801+01501999999ADDGA1021+002409999GA2021+003609999GA3071+012009999GF107991999999999999999999MA1101191999999MW1801REMMET094RJAW 0600Z 09012KT 9999 -SHRA FEW008 SCT012 BKN040 18/15 Q1012 RMK 1CU008 4CU012 7SC040 A2991;EQDQ01+000003PRSWM1Q02    003PRSWM1
0184479810999992000010209004+24780+141320FM-15+0116RJAW V0200701N004610036019N0112651N1+01701+01501999999ADDGA1071+003609999GA2071+007509999GF107991999999999999999999MA1101291999999MW1001REMMET074RJAW 0900Z 07009KT 9999 BKN012 BKN025 17/15 Q1013 RMK 5CU012 7CU025 A2993;EQDQ01+000000PRSWM2
0214479810999992000010212004+24780+141320FM-15+0116RJAW V0201001N005710150019N0112651N1+01801+01501999999ADDGA1021+004509999GA2021+007509999GA3071+015009999GF107991999999999999999999MA1101291999999MW1001REMMET088RJAW 1200Z 10011KT 9999 FEW015 SCT025 BKN050 18/15 Q1013 RMK 2CU015 3CU025 7SC050 A2994;EQDQ01+000000PRSWM2
0154479810999992000010215004+24780+141320FM-15+0116RJAW V0201101N006212200019N0112651N1+01901+01501999999ADDGA1021+007509999GF102991999999999999999999MA1101191999999MW1001REMMET060RJAW 1500Z 11012KT 9999 FEW025 19/15 Q1012 RMK 2CU025 A2991;EQDQ01+000000PRSWM2
0154479810999992000010218004+24780+141320FM-15+0116RJAW V0201201N005712200019N0112651N1+01901+01601999999ADDGA1021+006009999GF102991999999999999999999MA1101081999999MW1001REMMET060RJAW 1800Z 12011KT 9999 FEW020 19/16 Q1011 RMK 2CU020 A2986;EQDQ01+000000PRSWM2
0230479810999992000010221004+24780+141320FM-15+0116RJAW V0201401N004112200019N0112651N1+02001+01601999999ADDGA1021+004509999GF104991999999999999999999MA1101081999999MW1001REMMET136RJAW 2100Z 14008KT 9999 SCT015 20/16 Q1011 RMK 3CU015 A2986 FCST 2109 TEMPO 0006 21013KT 8000 SHRA BKN010CU BKN015CU BECMG 0608 29015KT;EQDQ01+000000PRSWM2
0154479810999992000010223004+24780+141320FM-15+0116RJAW V0201601N003112200019N0112651N1+02101+01801999999ADDGA1021+004509999GF104991999999999999999999MA1101191999999MW1001REMMET060RJAW 2300Z 16006KT 9999 SCT015 21/18 Q1012 RMK 3CU015 A2990;EQDQ01+000000PRSWM2
0252479810999992000010300004+24780+141320FM-15+0116RJAW V0201601N003612200019N0112651N1+02201+01701999999ADDGA1021+004509999GA2021+036009999GF104991999999999999999999MA1101191999999MW1001REMMET142RJAW 0000Z 16007KT 9999 FEW015 SCT120 22/17 Q1012 RMK 2CU015 3AC120 A2990 FCST 0012 TEMPO 0205 8000 SHRA BKN010CU BKN080AC BECMG 0507 29015KT;EQDQ01+000000PRSWM2
0154479810999992000010301004+24780+141320FM-15+0116RJAW V0202001N004112200019N0112651N1+02201+01701999999ADDGA1021+003609999GF104991999999999999999999MA1101191999999MW1001REMMET060RJAW 0100Z 20008KT 9999 SCT012 22/17 Q1012 RMK 3CU012 A2989;EQDQ01+000000PRSWM2
0184479810999992000010302004+24780+141320FM-15+0116RJAW V0202701N004112200019N0112651N1+02301+01701999999ADDGA1021+003609999GA2021+036009999GF104991999999999999999999MA1101191999999MW1001REMMET074RJAW 0200Z 27008KT 9999 SCT012 SCT120 23/17 Q1012 RMK 4CU012 3AC120 A2989;EQDQ01+000000PRSWM2
0179479810999992000010302124+24780+141320FM-16+0116RJAW V0202901N004110690019N0112651N1+02301+01701999999ADDGA1021+003609999GA2071+069009999GF107991999999999999999999MA1101191999999MW1001REMMET069RJAW 030212Z 29008KT 9999 SCT012 BKN230 23/17 Q1012 RMK 4CU012 A2989;EQDQ01+000000PRSWM2
0179479810999992000010302184+24780+141320FM-16+0116RJAW V0203001N003610036019N0112651N1+02301+01701999999ADDGA1071+003609999GA2071+069009999GF107991999999999999999999MA1101191999999MW1001REMMET069RJAW 030218Z 30007KT 9999 BKN012 BKN230 23/17 Q1012 RMK 5CU012 A2989;EQDQ01+000000PRSWM2
0219479810999992000010302394+24780+141320FM-16+0116RJAW V0203301N007710036019N0112651N1+02001+01601999999ADDGA1021+002409999GA2071+003609999GF107991999999999999999999MA1101191999999MW1801OC101441REMMET085RJAW 030239Z 33015G28KT 9999 -SHRA FEW008 BKN012 20/16 Q1012 RMK 2ST008 7CU012 A2989;EQDQ01+000003PRSWM1Q02    003PRSWM1
0258479810999992000010302454+24780+141320FM-15+0116RJAW V0203501N009310024019N0049001N1+02001+01701999999ADDGA1021+001509999GA2071+002409999GA3081+003609999GF108991999999999999999999MA1101081999999MW1101MW2801OC101441REMMET102RJAW 030245Z 35018G28KT 4900 -SHRA BR FEW005 BKN008 OVC012 20/17 Q1011 RMK 1ST005 5ST008 8CU012 A2988;EQDQ01+000003PRSWM1Q02    003PRSWM1
0324479810999992000010303004+24780+141320FM-15+0116RJAW V0203601N008710024019N0045001N1+01801+01701999999ADDGA1021+001509999GA2071+002409999GA3081+003609999GF108991999999999999999999MA1101081999999MW1101MW2801OC101391REMMET168RJAW 0300Z COR 36017G27KT 4500 -SHRA BR FEW005 BKN008 OVC012 18/17 Q1011 RMK 2ST005 6ST008 8CU012 A2988 FCST 0315 BECMG 0305 6000 NSW FEW008ST BKN012CU BECMG 0506 9999;EQDQ01+000003PRSWM1Q02    003PRSWM1
0268479810999992000010303074+24780+141320FM-16+0116RJAW V0203501N008210036019N0050001N1+01801+01601999999ADDGA1021+001509999GA2021+002409999GA3071+003609999GF107991999999999999999999MA1101081999999MW1801OC101341REMMET102RJAW 030307Z 35016G26KT 5000 -SHRA BR FEW005 SCT008 BKN012 18/16 Q1011 RMK 1ST005 4ST008 7CU012 A2987;EQDQ01+000100PRSWM3Q02+000003PRSWM1Q03    003PRSWM1
0197479810999992000010303264+24780+141320FM-16+0116RJAW V0203601N006710045019N0112651N1+01801+01601999999ADDGA1021+002409999GA2071+004509999GF107991999999999999999999MA1101081999999MW1001OC101181REMMET079RJAW 030326Z 36013G23KT 9999 SCT008 BKN015 18/16 Q1011 RMK 3ST008 7CU015 A2987;EQDQ01+000000PRSWM2
0214479810999992000010304004+24780+141320FM-15+0116RJAW V0200101N006210060019N0112651N1+01901+01501999999ADDGA1021+002409999GA2071+006009999GA3071+030009999GF107991999999999999999999MA1101081999999MW1001REMMET088RJAW 0400Z 01012KT 9999 FEW008 BKN020 BKN100 19/15 Q1011 RMK 1ST008 5CU020 6AC100 A2986;EQDQ01+000000PRSWM2
0184479810999992000010305004+24780+141320FM-15+0116RJAW V0200101N006210120019N0112651N1+02101+01501999999ADDGA1021+007509999GA2071+012009999GF107991999999999999999999MA1101081999999MW1001REMMET074RJAW 0500Z 01012KT 9999 SCT025 BKN040 21/15 Q1011 RMK 4CU025 5SC040 A2986;EQDQ01+000000PRSWM2
0184479810999992000010306004+24780+141320FM-15+0116RJAW V0203601N005710120019N0112651N1+02101+01501999999ADDGA1021+007509999GA2071+012009999GF107991999999999999999999MA1101021999999MW1001REMMET074RJAW 0600Z 36011KT 9999 FEW025 BKN040 21/15 Q1010 RMK 2CU025 5SC040 A2985;EQDQ01+000000PRSWM2
0154479810999992000010309004+24780+141320FM-15+0116RJAW V0203501N005112200019N0112651N1+02001+01501999999ADDGA1021+007509999GF102991999999999999999999MA1101191999999MW1001REMMET060RJAW 0900Z 35010KT 9999 FEW025 20/15 Q1012 RMK 2CU025 A2990;EQDQ01+000000PRSWM2
0154479810999992000010312004+24780+141320FM-15+0116RJAW V0203601N004112200019N0112651N1+02001+01601999999ADDGA1021+006009999GF102991999999999999999999MA1101391999999MW1001REMMET060RJAW 1200Z 36008KT 9999 FEW020 20/16 Q1014 RMK 2CU020 A2994;EQDQ01+000000PRSWM2
0154479810999992000010315004+24780+141320FM-15+0116RJAW V0203501N005112200019N0112651N1+02001+01501999999ADDGA1021+006009999GF102991999999999999999999MA1101391999999MW1001REMMET060RJAW 1500Z 35010KT 9999 FEW020 20/15 Q1014 RMK 1CU020 A2996;EQDQ01+000000PRSWM2
0154479810999992000010318004+24780+141320FM-15+0116RJAW V0203501N006212200019N0112651N1+01901+01501999999ADDGA1021+006009999GF102991999999999999999999MA1101391999999MW1001REMMET060RJAW 1800Z 35012KT 9999 FEW020 19/15 Q1014 RMK 1CU020 A2995;EQDQ01+000000PRSWM2
0214479810999992000010321004+24780+141320FM-15+0116RJAW V0203601N006212200019N0112651N1+01901+01401999999ADDGA1021+002409999GA2021+006009999GF104991999999999999999999MA1101491999999MW1001REMMET104RJAW 2100Z 36012KT 9999 FEW008 SCT020 19/14 Q1015 RMK 1ST008 4CU020 A2999 FCST 2109 TEMPO 0309 BKN020CU;EQDQ01+000000PRSWM2
0186479810999992000010321114+24780+141320FM-16+0116RJAW V0200101N006710060019N0112651N1+01901+01401999999ADDGA1021+002409999GA2071+006009999GF107991999999999999999999MA1101491999999MW1001REMMET076RJAW 032111Z 01013KT 9999 FEW008 BKN020 19/14 Q1015 RMK 1CU008 5CU020 A3000;EQDQ01+000000PRSWM2
0195479810999992000010322004+24780+141320FM-15+0116RJAW V0203601N007710060019N0112651N1+02001+01501999999ADDGA1021+002409999GA2071+006009999GF107991999999999999999999MA1101591999999MW1001OC101391REMMET077RJAW 2200Z 36015G27KT 9999 FEW008 BKN020 20/15 Q1016 RMK 2CU008 5CU020 A3002;EQDQ01+000000PRSWM2
0195479810999992000010323004+24780+141320FM-15+0116RJAW V0203601N007710045019N0112651N1+02001+01401999999ADDGA1021+002409999GA2071+004509999GF107991999999999999999999MA1101691999999MW1001OC101291REMMET077RJAW 2300Z 36015G25KT 9999 FEW008 BKN015 20/14 Q1017 RMK 2CU008 6CU015 A3004;EQDQ01+000000PRSWM2
0211479810999992000010400004+24780+141320FM-15+0116RJAW V0203601N007710060019N0112651N1+02101+01401999999ADDGA1021+003009999GA2071+006009999GF107991999999999999999999MA1101691999999MW1001OC101291REMMET093RJAW 0000Z 36015G25KT 9999 FEW010 BKN020 21/14 Q1017 RMK 1CU010 6CU020 A3006 FCST 0012 NOSIG;EQDQ01+000000PRSWM2
0195479810999992000010401004+24780+141320FM-15+0116RJAW V0200101N007210075019N0112651N1+02101+01401999999ADDGA1021+003009999GA2071+007509999GF107991999999999999999999MA1101691999999MW1001OC101231REMMET077RJAW 0100Z 01014G24KT 9999 FEW010 BKN025 21/14 Q1017 RMK 1CU010 6CU025 A3006;EQDQ01+000000PRSWM2
0174479810999992000010402004+24780+141320FM-15+0116RJAW V0203601N00821220001CN0112651N1+02201+01301999999ADDGA1071+007509999GA2021+012009999MA1101691999999MW1001REMMET074RJAW 0200Z 36016KT 9999 BKN025 SCT040 22/13 Q1017 RMK 5CU025 3SC040 A3005;EQDQ01+000042SCOTCVQ02+000000PRSWM2
0186479810999992000010402234+24780+141320FM-16+0116RJAW V0200101N008212200019N0112651N1+02101+01401999999ADDGA1021+007509999GA2021+012009999GF104991999999999999999999MA1101691999999MW1001REMMET076RJAW 040223Z 01016KT 9999 SCT025 SCT040 21/14 Q1017 RMK 4CU025 3SC040 A3004;EQDQ01+000000PRSWM2
0181479810999992000010403004+24780+141320FM-15+0116RJAW V0200101N007712200019N0112651N1+02201+01301999999ADDGA1021+007509999GF104991999999999999999999MA1101691999999MW1001OC101391REMMET079RJAW 0300Z 01015G27KT 9999 SCT025 22/13 Q1017 RMK 3CU025 A3003 FCST 0315 NOSIG;EQDQ01+000000PRSWM2
0186479810999992000010403384+24780+141320FM-16+0116RJAW V0200101N007210090019N0112651N1+02101+01301999999ADDGA1021+007509999GA2071+009009999GF107991999999999999999999MA1101591999999MW1001REMMET076RJAW 040338Z 01014KT 9999 FEW025 BKN030 21/13 Q1016 RMK 1CU025 5CU030 A3002;EQDQ01+000000PRSWM2
0156479810999992000010404334+24780+141320FM-16+0116RJAW V0200101N007712200019N0112651N1+02101+01201999999ADDGA1021+009009999GF104991999999999999999999MA1101591999999MW1001REMMET062RJAW 040433Z 01015KT 9999 SCT030 21/12 Q1016 RMK 4CU030 A3002;EQDQ01+000000PRSWM2
0154479810999992000010405004+24780+141320FM-15+0116RJAW V0200101N007212200019N0112651N1+02201+01301999999ADDGA1021+009009999GF104991999999999999999999MA1101591999999MW1001REMMET060RJAW 0500Z 01014KT 9999 SCT030 22/13 Q1016 RMK 3CU030 A3002;EQDQ01+000000PRSWM2
0170479810999992000010406004+24780+141320FM-15+0116RJAW V0200201N006712200019N0112651N1+02101+01201999999ADDGA1021+009009999GF102991999999999999999999MA1101591999999MW1001REMMET076RJAW 0600Z 02013KT 9999 FEW030 21/12 Q1016 RMK 1CU030 A3002 FCST 0618 NOSIG;EQDQ01+000000PRSWM2
0154479810999992000010407004+24780+141320FM-15+0116RJAW V0200101N005712200019N0112651N1+02101+01101999999ADDGA1021+009009999GF102991999999999999999999MA1101691999999MW1001REMMET060RJAW 0700Z 01011KT 9999 FEW030 21/11 Q1017 RMK 1CU030 A3003;EQDQ01+000000PRSWM2
0154479810999992000010408004+24780+141320FM-15+0116RJAW V0200201N006212200019N0112651N1+02001+01001999999ADDGA1021+009009999GF102991999999999999999999MA1101691999999MW1001REMMET060RJAW 0800Z 02012KT 9999 FEW030 20/10 Q1017 RMK 1CU030 A3006;EQDQ01+000000PRSWM2
0154479810999992000010409004+24780+141320FM-15+0116RJAW V0200301N007212200019N0112651N1+02001+01101999999ADDGA1021+009009999GF102991999999999999999999MA1101801999999MW1001REMMET060RJAW 0900Z 03014KT 9999 FEW030 20/11 Q1018 RMK 1CU030 A3008;EQDQ01+000000PRSWM2
0154479810999992000010412004+24780+141320FM-15+0116RJAW V0200401N006212200019N0112651N1+02001+01201999999ADDGA1021+010509999GF102991999999999999999999MA1102001999999MW1001REMMET060RJAW 1200Z 04012KT 9999 FEW035 20/12 Q1020 RMK 1SC035 A3014;EQDQ01+000000PRSWM2
0154479810999992000010415004+24780+141320FM-15+0116RJAW V0200501N005712200019N0112651N1+02001+01101999999ADDGA1021+010509999GF102991999999999999999999MA1102001999999MW1001REMMET060RJAW 1500Z 05011KT 9999 FEW035 20/11 Q1020 RMK 1SC035 A3013;EQDQ01+000000PRSWM2
0154479810999992000010418004+24780+141320FM-15+0116RJAW V0200501N005712200019N0112651N1+02001+01301999999ADDGA1021+009009999GF102991999999999999999999MA1101901999999MW1001REMMET060RJAW 1800Z 05011KT 9999 FEW030 20/13 Q1019 RMK 1CU030 A3012;EQDQ01+000000PRSWM2
0154479810999992000010420004+24780+141320FM-15+0116RJAW V0200401N006212200019N0112651N1+02001+01201999999ADDGA1021+009009999GF102991999999999999999999MA1102001999999MW1001REMMET060RJAW 2000Z 04012KT 9999 FEW030 20/12 Q1020 RMK 1CU030 A3012;EQDQ01+000000PRSWM2
0170479810999992000010421004+24780+141320FM-15+0116RJAW V0200601N006712200019N0112651N1+01901+01101999999ADDGA1021+009009999GF102991999999999999999999MA1102001999999MW1001REMMET076RJAW 2100Z 06013KT 9999 FEW030 19/11 Q1020 RMK 2CU030 A3014 FCST 2109 NOSIG;EQDQ01+000000PRSWM2
0154479810999992000010422004+24780+141320FM-15+0116RJAW V0200601N005712200019N0112651N1+02001+01201999999ADDGA1021+009009999GF104991999999999999999999MA1102101999999MW1001REMMET060RJAW 2200Z 06011KT 9999 SCT030 20/12 Q1021 RMK 4CU030 A3015;EQDQ01+000000PRSWM2
0154479810999992000010423004+24780+141320FM-15+0116RJAW V0200501N006212200019N0112651N1+02001+01101999999ADDGA1021+009009999GF102991999999999999999999MA1102101999999MW1001REMMET060RJAW 2300Z 05012KT 9999 FEW030 20/11 Q1021 RMK 2CU030 A3017;EQDQ01+000000PRSWM2
0170479810999992000010500004+24780+141320FM-15+0116RJAW V0200601N007212200019N0112651N1+02101+01201999999ADDGA1021+009009999GF104991999999999999999999MA1102201999999MW1001REMMET076RJAW 0000Z 06014KT 9999 SCT030 21/12 Q1022 RMK 3CU030 A3019 FCST 0012 NOSIG;EQDQ01+000000PRSWM2
0154479810999992000010501004+24780+141320FM-15+0116RJAW V0200601N007712200019N0112651N1+02101+01201999999ADDGA1021+009009999GF104991999999999999999999MA1102101999999MW1001REMMET060RJAW 0100Z 06015KT 9999 SCT030 21/12 Q1021 RMK 3CU030 A3018;EQDQ01+000000PRSWM2
0154479810999992000010502004+24780+141320FM-15+0116RJAW V0200701N007712200019N0112651N1+02101+01201999999ADDGA1021+009009999GF104991999999999999999999MA1102101999999MW1001REMMET060RJAW 0200Z 07015KT 9999 SCT030 21/12 Q1021 RMK 3CU030 A3016;EQDQ01+000000PRSWM2
0170479810999992000010503004+24780+141320FM-15+0116RJAW V0200701N007712200019N0112651N1+02201+01201999999ADDGA1021+009009999GF104991999999999999999999MA1102001999999MW1001REMMET076RJAW 0300Z 07015KT 9999 SCT030 22/12 Q1020 RMK 3CU030 A3012 FCST 0315 NOSIG;EQDQ01+000000PRSWM2
0154479810999992000010505004+24780+141320FM-15+0116RJAW V0200701N007712200019N0112651N1+02201+01201999999ADDGA1021+009009999GF104991999999999999999999MA1101901999999MW1001REMMET060RJAW 0500Z 07015KT 9999 SCT030 22/12 Q1019 RMK 3CU030 A3009;EQDQ01+000000PRSWM2
0156479810999992000010505444+24780+141320FM-16+0116RJAW V0200701N007210090019N0112651N1+02101+01201999999ADDGA1071+009009999GF107991999999999999999999MA1101901999999MW1001REMMET062RJAW 050544Z 07014KT 9999 BKN030 21/12 Q1019 RMK 5CU030 A3009;EQDQ01+000000PRSWM2
0127479810999992000010506004+24780+141320FM-15+0116RJAW V0200801N007712200019N0112651N1+02101+01201999999ADDMA1101901999999MW1001REMMET075RJAW 0600Z 08015KT 9999 BN030 21/12 Q1019 RMK 5CU030 A3009 FCST 0618 NOSIG;EQDQ01+000000PRSWM2
0154479810999992000010507004+24780+141320FM-15+0116RJAW V0200801N008710090019N0112651N1+02101+01201999999ADDGA1071+009009999GF107991999999999999999999MA1101901999999MW1001REMMET060RJAW 0700Z 08017KT 9999 BKN030 21/12 Q1019 RMK 5CU030 A3010;EQDQ01+000000PRSWM2
0156479810999992000010507044+24780+141320FM-16+0116RJAW V0200801N008712200019N0112651N1+02101+01101999999ADDGA1021+009009999GF104991999999999999999999MA1101901999999MW1001REMMET062RJAW 050704Z 08017KT 9999 SCT030 21/11 Q1019 RMK 4CU030 A3010;EQDQ01+000000PRSWM2
0154479810999992000010508004+24780+141320FM-15+0116RJAW V0200801N007212200019N0112651N1+02001+01101999999ADDGA1021+009009999GF104991999999999999999999MA1101901999999MW1001REMMET060RJAW 0800Z 08014KT 9999 SCT030 20/11 Q1019 RMK 4CU030 A3011;EQDQ01+000000PRSWM2
0154479810999992000010509004+24780+141320FM-15+0116RJAW V0200801N009312200019N0112651N1+02001+01201999999ADDGA1021+009009999GF104991999999999999999999MA1102001999999MW1001REMMET060RJAW 0900Z 08018KT 9999 SCT030 20/12 Q1020 RMK 4CU030 A3012;EQDQ01+000000PRSWM2
0154479810999992000010512004+24780+141320FM-15+0116RJAW V0201001N007712200019N0112651N1+02001+01201999999ADDGA1021+009009999GF104991999999999999999999MA1102001999999MW1001REMMET060RJAW 1200Z 10015KT 9999 SCT030 20/12 Q1020 RMK 3CU030 A3014;EQDQ01+000000PRSWM2
0154479810999992000010515004+24780+141320FM-15+0116RJAW V0201101N007712200019N0112651N1+02001+01201999999ADDGA1021+009009999GF104991999999999999999999MA1102001999999MW1001REMMET060RJAW 1500Z 11015KT 9999 SCT030 20/12 Q1020 RMK 4CU030 A3012;EQDQ01+000000PRSWM2
0186479810999992000010520364+24780+141320FM-16+0116RJAW V0201001N007710360019N0112651N1+02001+01301999999ADDGA1021+009009999GA2071+036009999GF107991999999999999999999MA1101801999999MW1001REMMET076RJAW 052036Z 10015KT 9999 FEW030 BKN120 20/13 Q1018 RMK 2CU030 5AC120 A3008;EQDQ01+000000PRSWM2
0263479810999992000010521004+24780+141320FM-15+0116RJAW V0201101N008210300019N0112651N1+02001+01301999999ADDGA1021+009009999GA2071+030009999GF107991999999999999999999MA1101801999999MW1001REMMET153RJAW 2100Z 11016KT 9999 FEW030 BKN100 20/13 Q1018 RMK 1CU030 6AC100 A3008 FCST 2109 BECMG 2301 BKN020CU BKN080AC TEMPO 0509 8000 -SHRA FEW008ST BKN012CU;EQDQ01+000000PRSWM2
0184479810999992000010522004+24780+141320FM-15+0116RJAW V0201001N007710300019N0112651N1+02001+01401999999ADDGA1021+006009999GA2071+030009999GF107991999999999999999999MA1101801999999MW1001REMMET074RJAW 2200Z 10015KT 9999 FEW020 BKN100 20/14 Q1018 RMK 2CU020 5AC100 A3009;EQDQ01+000000PRSWM2
0184479810999992000010601004+24780+141320FM-15+0116RJAW V0201101N009810360019N0112651N1+02301+01501999999ADDGA1021+006009999GA2071+036009999GF107991999999999999999999MA1101801999999MW1001REMMET074RJAW 0100Z 11019KT 9999 FEW020 BKN120 23/15 Q1018 RMK 2CU020 5AC120 A3009;EQDQ01+000000PRSWM2
0184479810999992000010602004+24780+141320FM-15+0116RJAW V0201101N008210360019N0112651N1+02301+01501999999ADDGA1021+006009999GA2071+036009999GF107991999999999999999999MA1101801999999MW1001REMMET074RJAW 0200Z 11016KT 9999 FEW020 BKN120 23/15 Q1018 RMK 1CU020 6AC120 A3007;EQDQ01+000000PRSWM2
0186479810999992000010602524+24780+141320FM-16+0116RJAW V0201101N007712200019N0112651N1+02301+01601999999ADDGA1021+006009999GA2021+036009999GF104991999999999999999999MA1101591999999MW1001REMMET076RJAW 060252Z 11015KT 9999 FEW020 SCT120 23/16 Q1016 RMK 1CU020 4AC120 A3003;EQDQ01+000000PRSWM2
0214479810999992000010603004+24780+141320FM-15+0116RJAW V0201201N007212200019N0112651N1+02301+01601999999ADDGA1021+006009999GA2021+036009999GF104991999999999999999999MA1101591999999MW1001REMMET104RJAW 0300Z 12014KT 9999 FEW020 SCT120 23/16 Q1016 RMK 1CU020 3AC120 A3003 FCST 0315 TEMPO 0915 BKN020CU;EQDQ01+000000PRSWM2
0184479810999992000010604004+24780+141320FM-15+0116RJAW V0201101N009312200019N0112651N1+02301+01701999999ADDGA1021+006009999GA2021+036009999GF104991999999999999999999MA1101591999999MW1001REMMET074RJAW 0400Z 11018KT 9999 FEW020 SCT120 23/17 Q1016 RMK 1CU020 3AC120 A3000;EQDQ01+000000PRSWM2
0220479810999992000010604214+24780+141320FM-16+0116RJAW V0201101N008210690019N0112651N1+02301+01701999999ADDGA1021+006009999GA2021+036009999GA3071+069009999GF107991999999999999999999MA1101591999999MW1001OC101341REMMET086RJAW 060421Z 11016G26KT 9999 FEW020 SCT120 BKN230 23/17 Q1016 RMK 1CU020 3AC120 A3000;EQDQ01+000000PRSWM2
0207479810999992000010605004+24780+141320FM-15+0116RJAW V0201101N009310690019N0112651N1+02201+01601999999ADDGA1021+006009999GA2021+036009999GA3071+069009999GF107991999999999999999999MA1101491999999MW1001REMMET081RJAW 0500Z 11018KT 9999 FEW020 SCT120 BKN230 22/16 Q1015 RMK 1CU020 3AC120 A2999;EQDQ01+000000PRSWM2
0256479810999992000010606004+24780+141320FM-15+0116RJAW V0201201N005710360019N0112651N1+02201+01601999999ADDGA1021+006009999GA2071+036009999GA3071+069009999GF107991999999999999999999MA1101491999999MW1001REMMET130RJAW 0600Z 12011KT 9999 SCT020 BKN120 BKN230 22/16 Q1015 RMK 3CU020 5AC120 A2999 FCST 0618 TEMPO 1218 6000 SHRA BKN012CU BKN020CU;EQDQ01+000000PRSWM2
0184479810999992000010607004+24780+141320FM-15+0116RJAW V0201201N005710360019N0112651N1+02201+01601999999ADDGA1021+006009999GA2071+036009999GF107991999999999999999999MA1101491999999MW1001REMMET074RJAW 0700Z 12011KT 9999 SCT020 BKN120 22/16 Q1015 RMK 4CU020 7AC120 A2999;EQDQ01+000000PRSWM2
0236479810999992000010608004+24780+141320FM-15+0116RJAW V0201201N005710060019N0112651N1+02201+01701999999ADDGA1021+003609999GA2071+006009999GA3071+036009999GF107991999999999999999999MA1101591999999MW1801REMMET094RJAW 0800Z 12011KT 9999 -SHRA FEW012 BKN020 BKN120 22/17 Q1016 RMK 2CU012 5CU020 7AC120 A3001;EQDQ01+000003PRSWM1Q02    003PRSWM1
0214479810999992000010609004+24780+141320FM-15+0116RJAW V0201101N006710060019N0112651N1+02201+01701999999ADDGA1021+003009999GA2071+006009999GA3071+030009999GF107991999999999999999999MA1101591999999MW1001REMMET088RJAW 0900Z 11013KT 9999 FEW010 BKN020 BKN100 22/17 Q1016 RMK 1CU010 5CU020 7AC100 A3002;EQDQ01+000000PRSWM2
0214479810999992000010612004+24780+141320FM-15+0116RJAW V0201201N006710090019N0112651N1+02201+01801999999ADDGA1021+006009999GA2071+009009999GA3071+030009999GF107991999999999999999999MA1101591999999MW1001REMMET088RJAW 1200Z 12013KT 9999 FEW020 BKN030 BKN100 22/18 Q1016 RMK 2CU020 5CU030 7AC100 A3003;EQDQ01+000000PRSWM2
0184479810999992000010615004+24780+141320FM-15+0116RJAW V0201301N007712200019N0112651N1+02201+01901999999ADDGA1021+009009999GA2021+030009999GF104991999999999999999999MA1101391999999MW1001REMMET074RJAW 1500Z 13015KT 9999 FEW030 SCT100 22/19 Q1014 RMK 1CU030 3AC100 A2996;EQDQ01+000000PRSWM2
0154479810999992000010618004+24780+141320FM-15+0116RJAW V0201401N006212200019N0112651N1+02201+01901999999ADDGA1021+009009999GF102991999999999999999999MA1101391999999MW1001REMMET060RJAW 1800Z 14012KT 9999 FEW030 22/19 Q1014 RMK 1CU030 A2994;EQDQ01+000000PRSWM2
0186479810999992000010622064+24780+141320FM-16+0116RJAW V0201501N003110090019N0112651N1+02201+02001999999ADDGA1071+009009999GA2071+030009999GF107991999999999999999999MA1101491999999MW1001REMMET076RJAW 062206Z 15006KT 9999 BKN030 BKN100 22/20 Q1015 RMK 5CU030 5AC100 A2999;EQDQ01+000000PRSWM2
0186479810999992000010700174+24780+141320FM-16+0116RJAW V0201601N004612200019N0112651N1+02301+02101999999ADDGA1021+006009999GA2021+030009999GF104991999999999999999999MA1101491999999MW1001REMMET076RJAW 070017Z 16009KT 9999 SCT020 SCT100 23/21 Q1015 RMK 4CU020 4AC100 A2999;EQDQ01+000000PRSWM2
0281479810999992000010700524+24780+141320FM-16+0116RJAW V0201701N005112200019N0112651N1+02401+02101999999ADDGA1021+000609999GA2021+006009999GA3021+006009029GF102991999999999999999999MA1101491999999MW1811REMMET123RJAW 070052Z 17010KT 9999 SHRA BR FEW002 SCT020 FEW020TCU 24/21 Q1015 RMK 1ST002 4CU020 1TCU020 A2998 TCU OHD MOV N 5000SW;EQDQ01+000100PRSWM3Q02+000003PRSWM1Q03    003PRSWM1
0287479810999992000010700544+24780+141320FM-16+0116RJAW V0201701N005112200019N0112651N1+02401+02101999999ADDGA1021+000609999GA2021+006009999GA3021+006009029GF102991999999999999999999MA1101491999999MW1801REMMET129RJAW 070054Z 17010KT 9999 -SHRA BR FEW002 SCT020 FEW020TCU 24/21 Q1015 RERA RMK 1ST002 4CU020 1TCU020 A2998 TCU OHD MOV N 5000SW;EQDQ01+000100PRSWM3Q02+000003PRSWM1Q03    003PRSWM1
0154479810999992000010702004+24780+141320FM-15+0116RJAW V0201801N004112200019N0112651N1+02401+02101999999ADDGA1021+007509999GF104991999999999999999999MA1101391999999MW1001REMMET060RJAW 0200Z 18008KT 9999 SCT025 24/21 Q1014 RMK 3CU025 A2995;EQDQ01+000000PRSWM2
0194479810999992000010703004+24780+141320FM-15+0116RJAW V0202101N006212200019N0112651N1+02401+02201999999ADDGA1021+006009999GF104991999999999999999999MA1101291999999MW1001REMMET100RJAW 0300Z 21012KT 9999 SCT020 24/22 Q1013 RMK 3CU020 A2994 FCST 0315 TEMPO 0309 8000 SHRA BKN020CU;EQDQ01+000000PRSWM2
0156479810999992000010703094+24780+141320FM-16+0116RJAW V0202201N007210060019N0112651N1+02501+02101999999ADDGA1071+006009999GF107991999999999999999999MA1101291999999MW1001REMMET062RJAW 070309Z 22014KT 9999 BKN020 25/21 Q1013 RMK 5CU020 A2994;EQDQ01+000000PRSWM2
0156479810999992000010703484+24780+141320FM-16+0116RJAW V0202501N007212200019N0112651N1+02501+02201999999ADDGA1021+006009999GF104991999999999999999999MA1101291999999MW1001REMMET062RJAW 070348Z 25014KT 9999 SCT020 25/22 Q1013 RMK 4CU020 A2993;EQDQ01+000000PRSWM2
0154479810999992000010704004+24780+141320FM-15+0116RJAW V0202501N007212200019N0112651N1+02501+02101999999ADDGA1021+006009999GF104991999999999999999999MA1101291999999MW1001REMMET060RJAW 0400Z 25014KT 9999 SCT020 25/21 Q1013 RMK 3CU020 A2993;EQDQ01+000000PRSWM2
0156479810999992000010704114+24780+141320FM-16+0116RJAW V0202601N006210060019N0112651N1+02401+02101999999ADDGA1071+006009999GF107991999999999999999999MA1101291999999MW1001REMMET062RJAW 070411Z 26012KT 9999 BKN020 24/21 Q1013 RMK 5CU020 A2993;EQDQ01+000000PRSWM2
0184479810999992000010705004+24780+141320FM-15+0116RJAW V0202701N006210060019N0112651N1+02401+02101999999ADDGA1021+003009999GA2071+006009999GF107991999999999999999999MA1101291999999MW1001REMMET074RJAW 0500Z 27012KT 9999 FEW010 BKN020 24/21 Q1013 RMK 1CU010 5CU020 A2993;EQDQ01+000000PRSWM2
0288479810999992000010706004+24780+141320FM-15+0116RJAW V0203001N005110045019N0112651N1+02301+02101999999ADDGA1021+000909999GA2021+002409999GA3071+004509999GF107991999999999999999999MA1101291999999MW1801REMMET146RJAW 0600Z 30010KT 9999 -SHRA FEW003 SCT008 BKN015 23/21 Q1013 RMK 2ST003 3CU008 6CU015 A2993 FCST 0618 TEMPO 0610 4000 SHRA BR SCT008CU BKN010CU;EQDQ01+000003PRSWM1Q02    003PRSWM1
0238479810999992000010706014+24780+141320FM-16+0116RJAW V0203001N005110042019N0112651N1+02301+02101999999ADDGA1021+000909999GA2021+001809999GA3071+004209999GF107991999999999999999999MA1101291999999MW1801REMMET096RJAW 070601Z 30010KT 9999 -SHRA FEW003 SCT006 BKN014 23/21 Q1013 RMK 2ST003 4CU006 7CU014 A2993;EQDQ01+000003PRSWM1Q02    003PRSWM1
0268479810999992000010706054+24780+141320FM-16+0116RJAW V0203001N006210042019N0049001N1+02201+02101999999ADDGA1021+000909999GA2021+001809999GA3071+004209999GF107991999999999999999999MA1101291999999MW1801OC101181REMMET102RJAW 070605Z 30012G23KT 4900 -SHRA BR FEW003 SCT006 BKN014 22/21 Q1013 RMK 2ST003 4CU006 7CU014 A2993;EQDQ01+000100PRSWM3Q02+000003PRSWM1Q03    003PRSWM1
0291479810999992000010706354+24780+141320FM-16+0116RJAW V0202501N00311220001CN0035001N1+02201+02001999999ADDGA1021+000909999GA2021+001809999GA3021+004209099GA4071+004209999MA1101291999999MW1811REMMET127RJAW 070635Z 25006KT 3500 SHRA BR SCT003 SCT006 BKN014 FEW014CB 22/20 Q1013 RMK 3ST003 4CU006 7CU014 2CB014 A2994 CB OHD MOV E;EQDQ01+000022SCOTCVQ02+000100PRSWM3Q03+000003PRSWM1Q04    003PRSWM1
0292479810999992000010706404+24780+141320FM-16+0116RJAW V0202501N00311220001CN0035001N1+02101+01901999999ADDGA1021+000909999GA2021+001809999GA3021+004209099GA4071+004209999MA1101291999999MW1821REMMET128RJAW 070640Z 25006KT 3500 +SHRA BR SCT003 SCT006 BKN014 SCT014CB 21/19 Q1013 RMK 3ST003 4CU006 7CU014 3CB014 A2994 CB OHD MOV E;EQDQ01+000042SCOTCVQ02+000100PRSWM3Q03+000003PRSWM1Q04    003PRSWM1
0310479810999992000010706494+24780+141320FM-16+0116RJAW V0202601N00571220001CN0045001N1+02201+02001999999ADDGA1021+000909999GA2021+001809999GA3021+004209099GA4071+004209999MA1101291999999MW1801OC101181REMMET138RJAW 070649Z 26011G23KT 4500 -SHRA BR FEW003 SCT006 BKN014 FEW014CB 22/20 Q1013 RERA RMK 2ST003 4CU006 7CU014 2CB014 A2994 CB 5KM E MOV E;EQDQ01+000022SCOTCVQ02+000100PRSWM3Q03+000003PRSWM1Q04    003PRSWM1
0271479810999992000010707004+24780+141320FM-15+0116RJAW V0203001N00361220001CN0040001N1+99999+99999999999ADDGA1021+000909999GA2021+001809999GA3071+004209999GA4021+004209999MW1001MW2101MW3821OC100931REMMET134RJAW 0700Z COR 30007G18KT 4000 +SHRA BR FEW003 SCT006 BKN014 FEW014 CB 22/20 Q1013 RMK 2ST003 4CU006 7CU014 2CB014 A2994 CB OHD MOV E;EQDQ01+000022SCOTCVQ02+000003PRSWM1
0299479810999992000010707064+24780+141320FM-16+0116RJAW V0203401N00311220001CN0050001N1+02201+02001999999ADDGA1021+000909999GA2021+001809999GA3021+004209099GA4071+004209999MA1101391999999MW1801REMMET135RJAW 070706Z 34006KT 5000 -SHRA BR FEW003 SCT006 BKN014 FEW014CB 22/20 Q1014 RERA RMK 1ST003 4CU006 7CU014 2CB014 A2994 CB 5KM E MOV E;EQDQ01+000022SCOTCVQ02+000100PRSWM3Q03+000003PRSWM1Q04    003PRSWM1
0191479810999992000010707514+24780+141320FM-16+0116RJAW V0203601N004610045019N0112651N1+02201+02001999999ADDGA1021+003009999GA2071+004509999GF107991999999999999999999MA1101391999999MW1001REMMET081RJAW 070751Z 36009KT 9999 FEW010 BKN015 22/20 Q1014 RERA RMK 1CU010 5CU015 A2996;EQDQ01+000000PRSWM2
0189479810999992000010708004+24780+141320FM-15+0116RJAW V0203601N004610060019N0112651N1+02201+02001999999ADDGA1021+003009999GA2071+006009999GF107991999999999999999999MA1101391999999MW1001REMMET079RJAW 0800Z 36009KT 9999 FEW010 BKN020 22/20 Q1014 RERA RMK 1CU010 5CU020 A2996;EQDQ01+000000PRSWM2
0216479810999992000010708174+24780+141320FM-16+0116RJAW V0203601N004610300019N0112651N1+02201+02001999999ADDGA1021+003009999GA2021+006009999GA3071+030009999GF107991999999999999999999MA1101391999999MW1001REMMET090RJAW 070817Z 36009KT 9999 FEW010 SCT020 BKN100 22/20 Q1014 RMK 1CU010 4CU020 5AC100 A2996;EQDQ01+000000PRSWM2
0200479810999992000010709004+24780+141320FM-15+0116RJAW V0203601N005110300019N0112651N1+02101+01901999999ADDGA1021+003009999GA2071+030009999GF107991999999999999999999MA1101391999999MW1001REMMET090RJAW 0900Z 36010KT 9999 FEW010 BKN100 21/19 Q1014 RMK 1CU010 6AC100 A2997 FCST 0921 NOSIG;EQDQ01+000000PRSWM2
0184479810999992000010710004+24780+141320FM-15+0116RJAW V0202601N005710300019N0112651N1+02101+01901999999ADDGA1021+003009999GA2071+030009999GF107991999999999999999999MA1101491999999MW1001REMMET074RJAW 1000Z 26011KT 9999 FEW010 BKN100 21/19 Q1015 RMK 1CU010 5AC100 A2998;EQDQ01+000000PRSWM2
0154479810999992000010712004+24780+141320FM-15+0116RJAW V0203601N003612200019N0112651N1+02101+01901999999ADDGA1021+006009999GF102991999999999999999999MA1101591999999MW1001REMMET060RJAW 1200Z 36007KT 9999 FEW020 21/19 Q1016 RMK 1CU020 A3000;EQDQ01+000000PRSWM2
0154479810999992000010715004+24780+141320FM-15+0116RJAW V0203601N004112200019N0112651N1+02001+01801999999ADDGA1021+006009999GF102991999999999999999999MA1101491999999MW1001REMMET060RJAW 1500Z 36008KT 9999 FEW020 20/18 Q1015 RMK 1CU020 A3000;EQDQ01+000000PRSWM2
0154479810999992000010718004+24780+141320FM-15+0116RJAW V0203601N004112200019N0112651N1+02001+01701999999ADDGA1021+006009999GF102991999999999999999999MA1101491999999MW1001REMMET060RJAW 1800Z 36008KT 9999 FEW020 20/17 Q1015 RMK 2CU020 A2999;EQDQ01+000000PRSWM2
0170479810999992000010721004+24780+141320FM-15+0116RJAW V0200201N005712200019N0112651N1+02001+01601999999ADDGA1021+006009999GF102991999999999999999999MA1101591999999MW1001REMMET076RJAW 2100Z 02011KT 9999 FEW020 20/16 Q1016 RMK 2CU020 A3000 FCST 2109 NOSIG;EQDQ01+000000PRSWM2
0154479810999992000010722004+24780+141320FM-15+0116RJAW V0200301N005712200019N0112651N1+02001+01601999999ADDGA1021+006009999GF102991999999999999999999MA1101591999999MW1001REMMET060RJAW 2200Z 03011KT 9999 FEW020 20/16 Q1016 RMK 2CU020 A3002;EQDQ01+000000PRSWM2
0154479810999992000010723004+24780+141320FM-15+0116RJAW V0200401N006212200019N0112651N1+02101+01601999999ADDGA1021+006009999GF104991999999999999999999MA1101691999999MW1001REMMET060RJAW 2300Z 04012KT 9999 SCT020 21/16 Q1017 RMK 3CU020 A3004;EQDQ01+000000PRSWM2
0170479810999992000010800004+24780+141320FM-15+0116RJAW V0200401N006212200019N0112651N1+02201+01601999999ADDGA1021+006009999GF104991999999999999999999MA1101691999999MW1001REMMET076RJAW 0000Z 04012KT 9999 SCT020 22/16 Q1017 RMK 3CU020 A3004 FCST 0012 NOSIG;EQDQ01+000000PRSWM2
0154479810999992000010801004+24780+141320FM-15+0116RJAW V0200401N007212200019N0112651N1+02201+01601999999ADDGA1021+006009999GF104991999999999999999999MA1101691999999MW1001REMMET060RJAW 0100Z 04014KT 9999 SCT020 22/16 Q1017 RMK 3CU020 A3006;EQDQ01+000000PRSWM2
0154479810999992000010802004+24780+141320FM-15+0116RJAW V0200501N006712200019N0112651N1+02301+01601999999ADDGA1021+006009999GF102991999999999999999999MA1101691999999MW1001REMMET060RJAW 0200Z 05013KT 9999 FEW020 23/16 Q1017 RMK 2CU020 A3004;EQDQ01+000000PRSWM2
0170479810999992000010803004+24780+141320FM-15+0116RJAW V0200601N006212200019N0112651N1+02301+01601999999ADDGA1021+006009999GF102991999999999999999999MA1101591999999MW1001REMMET076RJAW 0300Z 06012KT 9999 FEW020 23/16 Q1016 RMK 2CU020 A3003 FCST 0315 NOSIG;EQDQ01+000000PRSWM2
0154479810999992000010804004+24780+141320FM-15+0116RJAW V0200501N006212200019N0112651N1+02301+01601999999ADDGA1021+006009999GF102991999999999999999999MA1101591999999MW1001REMMET060RJAW 0400Z 05012KT 9999 FEW020 23/16 Q1016 RMK 2CU020 A3001;EQDQ01+000000PRSWM2
0154479810999992000010806004+24780+141320FM-15+0116RJAW V0200501N005112200019N0112651N1+02301+01501999999ADDGA1021+007509999GF104991999999999999999999MA1101591999999MW1001REMMET060RJAW 0600Z 05010KT 9999 SCT025 23/15 Q1016 RMK 3CU025 A3001;EQDQ01+000000PRSWM2
0154479810999992000010809004+24780+141320FM-15+0116RJAW V0200601N005112200019N0112651N1+02101+01501999999ADDGA1021+007509999GF104991999999999999999999MA1101691999999MW1001REMMET060RJAW 0900Z 06010KT 9999 SCT025 21/15 Q1017 RMK 4CU025 A3004;EQDQ01+000000PRSWM2
0154479810999992000010812004+24780+141320FM-15+0116RJAW V0200401N004612200019N0112651N1+02101+01501999999ADDGA1021+007509999GF102991999999999999999999MA1101801999999MW1001REMMET060RJAW 1200Z 04009KT 9999 FEW025 21/15 Q1018 RMK 1CU025 A3009;EQDQ01+000000PRSWM2
0154479810999992000010815004+24780+141320FM-15+0116RJAW V0200401N004612200019N0112651N1+02001+01601999999ADDGA1021+006009999GF102991999999999999999999MA1101801999999MW1001REMMET060RJAW 1500Z 04009KT 9999 FEW020 20/16 Q1018 RMK 1CU020 A3009;EQDQ01+000000PRSWM2
0154479810999992000010818004+24780+141320FM-15+0116RJAW V0200501N004112200019N0112651N1+02001+01601999999ADDGA1021+006009999GF102991999999999999999999MA1101691999999MW1001REMMET060RJAW 1800Z 05008KT 9999 FEW020 20/16 Q1017 RMK 1CU020 A3005;EQDQ01+000000PRSWM2
0154479810999992000010821004+24780+141320FM-15+0116RJAW V0200601N005712200019N0112651N1+02001+01601999999ADDGA1021+006009999GF102991999999999999999999MA1101801999999MW1001REMMET060RJAW 2100Z 06011KT 9999 FEW020 20/16 Q1018 RMK 2CU020 A3007;EQDQ01+000000PRSWM2
0186479810999992000010823124+24780+141320FM-16+0116RJAW V0200701N006210060019N0112651N1+02101+01601999999ADDGA1021+004509999GA2071+006009999GF107991999999999999999999MA1101901999999MW1001REMMET076RJAW 082312Z 07012KT 9999 FEW015 BKN020 21/16 Q1019 RMK 1CU015 5CU020 A3009;EQDQ01+000000PRSWM2
0184479810999992000010900004+24780+141320FM-15+0116RJAW V0200601N007210060019N0112651N1+02201+01601999999ADDGA1021+004509999GA2071+006009999GF107991999999999999999999MA1101901999999MW1001REMMET074RJAW 0000Z 06014KT 9999 FEW015 BKN020 22/16 Q1019 RMK 1CU015 6CU020 A3011;EQDQ01+000000PRSWM2
0186479810999992000010900364+24780+141320FM-16+0116RJAW V0200701N006712200019N0112651N1+02201+01601999999ADDGA1021+004509999GA2021+006009999GF104991999999999999999999MA1101901999999MW1001REMMET076RJAW 090036Z 07013KT 9999 FEW015 SCT020 22/16 Q1019 RMK 1CU015 4CU020 A3011;EQDQ01+000000PRSWM2
0154479810999992000010903004+24780+141320FM-15+0116RJAW V0200601N006712200019N0112651N1+02301+01501999999ADDGA1021+006009999GF102991999999999999999999MA1101801999999MW1001REMMET060RJAW 0300Z 06013KT 9999 FEW020 23/15 Q1018 RMK 2CU020 A3006;EQDQ01+000000PRSWM2
0154479810999992000010909004+24780+141320FM-15+0116RJAW V0200601N005712200019N0112651N1+02001+01401999999ADDGA1021+006009999GF102991999999999999999999MA1101801999999MW1001REMMET060RJAW 0900Z 06011KT 9999 FEW020 20/14 Q1018 RMK 2CU020 A3007;EQDQ01+000000PRSWM2
0154479810999992000010912004+24780+141320FM-15+0116RJAW V0200601N005112200019N0112651N1+02001+01401999999ADDGA1021+006009999GF102991999999999999999999MA1101901999999MW1001REMMET060RJAW 1200Z 06010KT 9999 FEW020 20/14 Q1019 RMK 1CU020 A3009;EQDQ01+000000PRSWM2
0154479810999992000010915004+24780+141320FM-15+0116RJAW V0200701N004612200019N0112651N1+02001+01401999999ADDGA1021+006009999GF102991999999999999999999MA1101801999999MW1001REMMET060RJAW 1500Z 07009KT 9999 FEW020 20/14 Q1018 RMK 1CU020 A3007;EQDQ01+000000PRSWM2
0154479810999992000010918004+24780+141320FM-15+0116RJAW V0201001N003612200019N0112651N1+01901+01401999999ADDGA1021+006009999GF102991999999999999999999MA1101591999999MW1001REMMET060RJAW 1800Z 10007KT 9999 FEW020 19/14 Q1016 RMK 1CU020 A3003;EQDQ01+000000PRSWM2
0154479810999992000010920004+24780+141320FM-15+0116RJAW V0201001N002612200019N0112651N1+01901+01401999999ADDGA1021+006009999GF102991999999999999999999MA1101691999999MW1001REMMET060RJAW 2000Z 10005KT 9999 FEW020 19/14 Q1017 RMK 1CU020 A3003;EQDQ01+000000PRSWM2
0170479810999992000010921004+24780+141320FM-15+0116RJAW V0200901N002112200019N0112651N1+01901+01501999999ADDGA1021+009009999GF102991999999999999999999MA1101691999999MW1001REMMET076RJAW 2100Z 09004KT 9999 FEW030 19/15 Q1017 RMK 1CU030 A3004 FCST 2109 NOSIG;EQDQ01+000000PRSWM2
0177479810999992000010923004+24780+141320FM-15+0116RJAW V0200501N003112200019N0112651N1+02101+01501999999ADDGA1021+009009999GA2021+069009999GF104991999999999999999999MA1101691999999MW1001REMMET067RJAW 2300Z 05006KT 9999 FEW030 SCT230 21/15 Q1017 RMK 1CU030 A3005;EQDQ01+000000PRSWM2
0179479810999992000010923114+24780+141320FM-16+0116RJAW V0200301N003110690019N0112651N1+02101+01501999999ADDGA1021+009009999GA2071+069009999GF107991999999999999999999MA1101691999999MW1001REMMET069RJAW 092311Z 03006KT 9999 FEW030 BKN230 21/15 Q1017 RMK 1CU030 A3006;EQDQ01+000000PRSWM2
0179479810999992000011000504+24780+141320FM-15+0116RJAW V0200301N003112200019N0112651N1+02201+01501999999ADDGA1021+009009999GA2021+069009999GF104991999999999999999999MA1101691999999MW1001REMMET069RJAW 100050Z 03006KT 9999 FEW030 SCT230 22/15 Q1017 RMK 2CU030 A3005;EQDQ01+000000PRSWM2
0177479810999992000011001004+24780+141320FM-15+0116RJAW V0200101N003612200019N0112651N1+02201+01501999999ADDGA1021+009009999GA2021+069009999GF104991999999999999999999MA1101691999999MW1001REMMET067RJAW 0100Z 01007KT 9999 FEW030 SCT230 22/15 Q1017 RMK 2CU030 A3005;EQDQ01+000000PRSWM2
0177479810999992000011002004+24780+141320FM-15+0116RJAW V0200301N003612200019N0112651N1+02201+01501999999ADDGA1021+007509999GA2021+069009999GF104991999999999999999999MA1101591999999MW1001REMMET067RJAW 0200Z 03007KT 9999 FEW025 SCT230 22/15 Q1016 RMK 2CU025 A3003;EQDQ01+000000PRSWM2
0179479810999992000011002204+24780+141320FM-15+0116RJAW V0200201N003110690019N0112651N1+02201+01501999999ADDGA1021+007509999GA2071+069009999GF107991999999999999999999MA1101591999999MW1001REMMET069RJAW 100220Z 02006KT 9999 FEW025 BKN230 22/15 Q1016 RMK 2CU025 A3001;EQDQ01+000000PRSWM2
0223479810999992000011003004+24780+141320FM-15+0116RJAW V0200401N003610690019N0112651N1+02301+01501999999ADDGA1021+007509999GA2021+045009999GA3071+069009999GF107991999999999999999999MA1101591999999MW1001REMMET097RJAW 0300Z 04007KT 9999 FEW025 SCT150 BKN230 23/15 Q1016 RMK 1CU025 3AC150 A3000 FCST 0315 NOSIG;EQDQ01+000000PRSWM2
0179479810999992000011003544+24780+141320FM-16+0116RJAW V0200101N003612200019N0112651N1+02201+01501999999ADDGA1021+007509999GA2021+069009999GF104991999999999999999999MA1101491999999MW1001REMMET069RJAW 100354Z 01007KT 9999 FEW025 SCT230 22/15 Q1015 RMK 1CU025 A2998;EQDQ01+000000PRSWM2
0177479810999992000011004004+24780+141320FM-15+0116RJAW V0200201N003612200019N0112651N1+02201+01501999999ADDGA1021+007509999GA2021+069009999GF104991999999999999999999MA1101491999999MW1001REMMET067RJAW 0400Z 02007KT 9999 FEW025 SCT230 22/15 Q1015 RMK 1CU025 A2998;EQDQ01+000000PRSWM2
0154479810999992000011005004+24780+141320FM-15+0116RJAW V0200401N002612200019N0112651N1+02201+01601999999ADDGA1021+045009999GF102991999999999999999999MA1101391999999MW1001REMMET060RJAW 0500Z 04005KT 9999 FEW150 22/16 Q1014 RMK 1AC150 A2996;EQDQ01+000000PRSWM2
0163479810999992000011006004+24780+141320FM-15+0116RJAW V0200401N003112200019N0112651N1+02201+01501999999ADDGA1021+069009999GF102991999999999999999999MA1101391999999MW1001REMMET069RJAW 0600Z 04006KT 9999 FEW230 22/15 Q1014 RMK A2995 FCST 0618 NOSIG;EQDQ01+000000PRSWM2
0147479810999992000011007004+24780+141320FM-15+0116RJAW V0200501N002612200019N0112651N1+02101+01501999999ADDGA1021+069009999GF104991999999999999999999MA1101391999999MW1001REMMET053RJAW 0700Z 05005KT 9999 SCT230 21/15 Q1014 RMK A2996;EQDQ01+000000PRSWM2
0184479810999992000011008004+24780+141320FM-15+0116RJAW V0200201N001512200019N0112651N1+02101+01501999999ADDGA1021+009009999GA2021+045009999GF104991999999999999999999MA1101491999999MW1001REMMET074RJAW 0800Z 02003KT 9999 FEW030 SCT150 21/15 Q1015 RMK 1SC030 3AC150 A2998;EQDQ01+000000PRSWM2
0184479810999992000011009004+24780+141320FM-15+0116RJAW V0203601N002112200019N0112651N1+02101+01501999999ADDGA1021+009009999GA2021+045009999GF104991999999999999999999MA1101491999999MW1001REMMET074RJAW 0900Z 36004KT 9999 FEW030 SCT150 21/15 Q1015 RMK 1SC030 3AC150 A3000;EQDQ01+000000PRSWM2
0154479810999992000011012004+24780+141320FM-15+0116RJAW V0203501N003112200019N0112651N1+02001+01601999999ADDGA1021+036009999GF102991999999999999999999MA1101591999999MW1001REMMET060RJAW 1200Z 35006KT 9999 FEW120 20/16 Q1016 RMK 2AC120 A3002;EQDQ01+000000PRSWM2
0154479810999992000011015004+24780+141320FM-15+0116RJAW V0203401N002112200019N0112651N1+02001+01601999999ADDGA1021+036009999GF102991999999999999999999MA1101491999999MW1001REMMET060RJAW 1500Z 34004KT 9999 FEW120 20/16 Q1015 RMK 1AC120 A2999;EQDQ01+000000PRSWM2
0128479810999992000011018004+24780+141320FM-15+0116RJAW V0203501N002112200019N0112651N1+01901+01701999999ADDGF100991999999999999999999MA1101391999999MW1001REMMET050RJAW 1800Z 35004KT 9999 SKC 19/17 Q1014 RMK A2996;EQDQ01+000000PRSWM2
0186479810999992000011020504+24780+141320FM-15+0116RJAW V0203501N002610450019N0112651N1+02001+01801999999ADDGA1021+007509999GA2071+045009999GF107991999999999999999999MA1101391999999MW1001REMMET076RJAW 102050Z 35005KT 9999 FEW025 BKN150 20/18 Q1014 RMK 1CU025 5AC150 A2996;EQDQ01+000000PRSWM2
0200479810999992000011021004+24780+141320FM-15+0116RJAW V0203501N002110450019N0112651N1+02001+01801999999ADDGA1021+007509999GA2071+045009999GF107991999999999999999999MA1101391999999MW1001REMMET090RJAW 2100Z 35004KT 9999 FEW025 BKN150 20/18 Q1014 RMK 1CU025 6AC150 A2996 FCST 2109 NOSIG;EQDQ01+000000PRSWM2
0184479810999992000011022004+24780+141320FM-15+0116RJAW V0203601N002110360019N0112651N1+02001+01801999999ADDGA1021+009009999GA2071+036009999GF107991999999999999999999MA1101491999999MW1001REMMET074RJAW 2200Z 36004KT 9999 FEW030 BKN120 20/18 Q1015 RMK 1SC030 7AC120 A2998;EQDQ01+000000PRSWM2
0184479810999992000011023004+24780+141320FM-15+0116RJAW V0200401N002110360019N0112651N1+02101+01801999999ADDGA1021+009009999GA2071+036009999GF107991999999999999999999MA1101491999999MW1001REMMET074RJAW 2300Z 04004KT 9999 FEW030 BKN120 21/18 Q1015 RMK 2CU030 6AC120 A2999;EQDQ01+000000PRSWM2
0278479810999992000011100004+24780+141320FM-15+0116RJAW V0200301N002110360019N0112651N1+02201+01901999999ADDGA1021+003009999GA2021+009009999GA3071+036009999GF107991999999999999999999MA1101591999999MW1001REMMET152RJAW 0000Z COR 03004KT 9999 FEW010 SCT030 BKN120 22/19 Q1016 RMK 2CU010 4CU030 7AC120 A3000 FCST 0012 TEMPO 0103 05015G25KT 8000 SHRA BKN010CU BKN080AC;EQDQ01+000000PRSWM2
0216479810999992000011100144+24780+141320FM-16+0116RJAW V0200301N001510090019N0112651N1+02301+01901999999ADDGA1021+003009999GA2071+009009999GA3071+036009999GF107991999999999999999999MA1101591999999MW1001REMMET090RJAW 110014Z 03003KT 9999 FEW010 BKN030 BKN120 23/19 Q1016 RMK 2CU010 5CU030 7AC120 A3001;EQDQ01+000000PRSWM2
0214479810999992000011101004+24780+141320FM-15+0116RJAW V0200401N002110090019N0112651N1+02201+01801999999ADDGA1021+003009999GA2021+007509999GA3071+009009999GF107991999999999999999999MA1101591999999MW1001REMMET088RJAW 0100Z 04004KT 9999 FEW010 SCT025 BKN030 22/18 Q1016 RMK 2CU010 3CU025 6CU030 A3000;EQDQ01+000000PRSWM2
0236479810999992000011102004+24780+141320FM-15+0116RJAW V0203401N004110075019N0112651N1+02201+01901999999ADDGA1021+003009999GA2021+004509999GA3071+007509999GF107991999999999999999999MA1101491999999MW1801REMMET094RJAW 0200Z 34008KT 9999 -SHRA FEW010 SCT015 BKN025 22/19 Q1015 RMK 1CU010 3CU015 7CU025 A2999;EQDQ01+000003PRSWM1Q02    003PRSWM1
0216479810999992000011102454+24780+141320FM-15+0116RJAW V0200401N003610045019N0112651N1+02201+01901999999ADDGA1021+002409999GA2071+004509999GA3071+036009999GF107991999999999999999999MA1101391999999MW1001REMMET090RJAW 110245Z 04007KT 9999 FEW008 BKN015 BKN120 22/19 Q1014 RMK 1CU008 5CU015 7AC120 A2996;EQDQ01+000000PRSWM2
0253479810999992000011103004+24780+141320FM-15+0116RJAW V0200101N005110045019N0112651N1+02201+01801999999ADDGA1021+002409999GA2071+004509999GA3071+036009999GF107991999999999999999999MA1101391999999MW1001REMMET127RJAW 0300Z 01010KT 9999 FEW008 BKN015 BKN120 22/18 Q1014 RMK 1CU008 5CU015 7AC120 A2996 FCST 0315 BECMG 0305 SCT020CU BKN080AC;EQDQ01+000000PRSWM2
0214479810999992000011104004+24780+141320FM-15+0116RJAW V0200101N006210045019N0112651N1+02301+01801999999ADDGA1021+003009999GA2071+004509999GA3071+036009999GF107991999999999999999999MA1101291999999MW1001REMMET088RJAW 0400Z 01012KT 9999 FEW010 BKN015 BKN120 23/18 Q1013 RMK 1CU010 5CU015 7AC120 A2994;EQDQ01+000000PRSWM2
0216479810999992000011104184+24780+141320FM-16+0116RJAW V0200101N006710360019N0112651N1+02301+01701999999ADDGA1021+003009999GA2021+004509999GA3071+036009999GF107991999999999999999999MA1101291999999MW1001REMMET090RJAW 110418Z 01013KT 9999 FEW010 SCT015 BKN120 23/17 Q1013 RMK 1CU010 4CU015 6AC120 A2993;EQDQ01+000000PRSWM2
0214479810999992000011105004+24780+141320FM-15+0116RJAW V0200201N006710360019N0112651N1+02301+01701999999ADDGA1021+004509999GA2021+012009999GA3071+036009999GF107991999999999999999999MA1101291999999MW1001REMMET088RJAW 0500Z 02013KT 9999 SCT015 SCT040 BKN120 23/17 Q1013 RMK 3CU015 3SC040 6AC120 A2993;EQDQ01+000000PRSWM2
0186479810999992000011105264+24780+141320FM-16+0116RJAW V0200201N006210045019N0112651N1+02201+01801999999ADDGA1071+004509999GA2071+036009999GF107991999999999999999999MA1101291999999MW1001REMMET076RJAW 110526Z 02012KT 9999 BKN015 BKN120 22/18 Q1013 RMK 5CU015 7AC120 A2994;EQDQ01+000000PRSWM2
0230479810999992000011106004+24780+141320FM-15+0116RJAW V0200201N007210045019N0112651N1+02201+01801999999ADDGA1071+004509999GA2021+012009999GA3071+036009999GF107991999999999999999999MA1101291999999MW1001REMMET104RJAW 0600Z 02014KT 9999 BKN015 SCT040 BKN120 22/18 Q1013 RMK 5CU015 3SC040 7AC120 A2994 FCST 0618 NOSIG;EQDQ01+000000PRSWM2
0214479810999992000011107004+24780+141320FM-15+0116RJAW V0200301N006710045019N0112651N1+02101+01701999999ADDGA1071+004509999GA2021+012009999GA3071+036009999GF107991999999999999999999MA1101391999999MW1001REMMET088RJAW 0700Z 03013KT 9999 BKN015 SCT040 BKN120 21/17 Q1014 RMK 5CU015 3SC040 6AC120 A2995;EQDQ01+000000PRSWM2
0214479810999992000011108004+24780+141320FM-15+0116RJAW V0200301N007210045019N0112651N1+02201+01701999999ADDGA1071+004509999GA2021+009009999GA3071+036009999GF107991999999999999999999MA1101391999999MW1001REMMET088RJAW 0800Z 03014KT 9999 BKN015 SCT030 BKN120 22/17 Q1014 RMK 5CU015 3SC030 7AC120 A2997;EQDQ01+000000PRSWM2
0184479810999992000011109004+24780+141320FM-15+0116RJAW V0200301N006210045019N0112651N1+02101+01701999999ADDGA1071+004509999GA2071+036009999GF107991999999999999999999MA1101491999999MW1001REMMET074RJAW 0900Z 03012KT 9999 BKN015 BKN120 21/17 Q1015 RMK 5CU015 6AC120 A2998;EQDQ01+000000PRSWM2
0184479810999992000011112004+24780+141320FM-15+0116RJAW V0200301N006710045019N0112651N1+02001+01601999999ADDGA1071+004509999GA2071+036009999GF107991999999999999999999MA1101591999999MW1001REMMET074RJAW 1200Z 03013KT 9999 BKN015 BKN120 20/16 Q1016 RMK 5CU015 6AC120 A3001;EQDQ01+000000PRSWM2
0184479810999992000011115004+24780+141320FM-15+0116RJAW V0200501N005110360019N0112651N1+02001+01501999999ADDGA1021+004509999GA2071+036009999GF107991999999999999999999MA1101491999999MW1001REMMET074RJAW 1500Z 05010KT 9999 SCT015 BKN120 20/15 Q1015 RMK 3CU015 6AC120 A2998;EQDQ01+000000PRSWM2
0184479810999992000011118004+24780+141320FM-15+0116RJAW V0200501N005712200019N0112651N1+02001+01301999999ADDGA1021+004509999GA2021+036009999GF104991999999999999999999MA1101391999999MW1001REMMET074RJAW 1800Z 05011KT 9999 FEW015 SCT120 20/13 Q1014 RMK 2CU015 3AC120 A2997;EQDQ01+000000PRSWM2
0154479810999992000011120004+24780+141320FM-15+0116RJAW V0200601N005112200019N0112651N1+02001+01401999999ADDGA1021+004509999GF102991999999999999999999MA1101391999999MW1001REMMET060RJAW 2000Z 06010KT 9999 FEW015 20/14 Q1014 RMK 2CU015 A2997;EQDQ01+000000PRSWM2
0186479810999992000011120344+24780+141320FM-16+0116RJAW V0200601N004110300019N0112651N1+02001+01401999999ADDGA1021+004509999GA2071+030009999GF107991999999999999999999MA1101491999999MW1001REMMET076RJAW 112034Z 06008KT 9999 FEW015 BKN100 20/14 Q1015 RMK 2CU015 5AC100 A2998;EQDQ01+000000PRSWM2
0223479810999992000011121004+24780+141320FM-15+0116RJAW V0200701N003610300019N0112651N1+02001+01501999999ADDGA1021+004509999GA2071+030009999GF107991999999999999999999MA1101491999999MW1001REMMET113RJAW 2100Z 07007KT 9999 FEW015 BKN100 20/15 Q1015 RMK 2CU015 5AC100 A2998 FCST 2109 TEMPO 0309 BKN015CU BKN100AC;EQDQ01+000000PRSWM2
0184479810999992000011122004+24780+141320FM-15+0116RJAW V0200701N005110300019N0112651N1+02101+01601999999ADDGA1021+004509999GA2071+030009999GF107991999999999999999999MA1101491999999MW1001REMMET074RJAW 2200Z 07010KT 9999 FEW015 BKN100 21/16 Q1015 RMK 2CU015 5AC100 A3000;EQDQ01+000000PRSWM2
0184479810999992000011123004+24780+141320FM-15+0116RJAW V0200701N006210300019N0112651N1+02101+01601999999ADDGA1021+004509999GA2071+030009999GF107991999999999999999999MA1101591999999MW1001REMMET074RJAW 2300Z 07012KT 9999 FEW015 BKN100 21/16 Q1016 RMK 2CU015 5AC100 A3000;EQDQ01+000000PRSWM2
0238479810999992000011123444+24780+141320FM-16+0116RJAW V0200801N006710075019N0112651N1+02101+01601999999ADDGA1021+004509999GA2071+007509999GA3071+015009999GF107991999999999999999999MA1101591999999MW1801REMMET096RJAW 112344Z 08013KT 9999 -SHRA FEW015 BKN025 BKN050 21/16 Q1016 RMK 2CU015 5CU025 7SC050 A3002;EQDQ01+000003PRSWM1Q02    003PRSWM1
0200479810999992000011200004+24780+141320FM-15+0116RJAW V0200801N006710075019N0112651N1+02101+01601999999ADDGA1021+004509999GA2071+007509999GF107991999999999999999999MA1101591999999MW1001REMMET090RJAW 0000Z 08013KT 9999 FEW015 BKN025 21/16 Q1016 RMK 2CU015 7CU025 A3002 FCST 0012 NOSIG;EQDQ01+000000PRSWM2
0184479810999992000011201004+24780+141320FM-15+0116RJAW V0200901N006710075019N0112651N1+02201+01601999999ADDGA1021+004509999GA2071+007509999GF107991999999999999999999MA1101591999999MW1001REMMET074RJAW 0100Z 09013KT 9999 FEW015 BKN025 22/16 Q1016 RMK 2CU015 7CU025 A3002;EQDQ01+000000PRSWM2
0184479810999992000011202004+24780+141320FM-15+0116RJAW V0201001N007210075019N0112651N1+02201+01601999999ADDGA1021+004509999GA2071+007509999GF107991999999999999999999MA1101491999999MW1001REMMET074RJAW 0200Z 10014KT 9999 FEW015 BKN025 22/16 Q1015 RMK 2CU015 7CU025 A3000;EQDQ01+000000PRSWM2
0200479810999992000011203004+24780+141320FM-15+0116RJAW V0201001N006710075019N0112651N1+02301+01701999999ADDGA1021+004509999GA2071+007509999GF107991999999999999999999MA1101391999999MW1001REMMET090RJAW 0300Z 10013KT 9999 FEW015 BKN025 23/17 Q1014 RMK 2CU015 7CU025 A2997 FCST 0315 NOSIG;EQDQ01+000000PRSWM2
0184479810999992000011204004+24780+141320FM-15+0116RJAW V0201101N007710075019N0112651N1+02301+01601999999ADDGA1021+003009999GA2071+007509999GF107991999999999999999999MA1101391999999MW1001REMMET074RJAW 0400Z 11015KT 9999 FEW010 BKN025 23/16 Q1014 RMK 2CU010 6CU025 A2995;EQDQ01+000000PRSWM2
0200479810999992000011206004+24780+141320FM-15+0116RJAW V0201201N005110075019N0112651N1+02201+01601999999ADDGA1021+003009999GA2071+007509999GF107991999999999999999999MA1101391999999MW1001REMMET090RJAW 0600Z 12010KT 9999 FEW010 BKN025 22/16 Q1014 RMK 2CU010 7CU025 A2994 FCST 0618 NOSIG;EQDQ01+000000PRSWM2
0214479810999992000011207004+24780+141320FM-15+0116RJAW V0201201N005110090019N0112651N1+02201+01601999999ADDGA1021+003009999GA2021+006009999GA3071+009009999GF107991999999999999999999MA1101391999999MW1001REMMET088RJAW 0700Z 12010KT 9999 FEW010 SCT020 BKN030 22/16 Q1014 RMK 1CU010 4CU020 7CU030 A2995;EQDQ01+000000PRSWM2
0214479810999992000011208004+24780+141320FM-15+0116RJAW V0201101N006210090019N0112651N1+02201+01701999999ADDGA1021+004509999GA2021+006009999GA3071+009009999GF107991999999999999999999MA1101391999999MW1001REMMET088RJAW 0800Z 11012KT 9999 FEW015 SCT020 BKN030 22/17 Q1014 RMK 1CU015 4CU020 7CU030 A2997;EQDQ01+000000PRSWM2
0214479810999992000011209004+24780+141320FM-15+0116RJAW V0201101N005110090019N0112651N1+02201+01601999999ADDGA1021+006009999GA2071+009009999GA3071+030009999GF107991999999999999999999MA1101491999999MW1001REMMET088RJAW 0900Z 11010KT 9999 SCT020 BKN030 BKN100 22/16 Q1015 RMK 3CU020 5CU030 7AC100 A2998;EQDQ01+000000PRSWM2
0214479810999992000011212004+24780+141320FM-15+0116RJAW V0201101N005110060019N0112651N1+02101+01901999999ADDGA1071+006009999GA2021+013509999GA3071+030009999GF107991999999999999999999MA1101591999999MW1001REMMET088RJAW 1200Z 11010KT 9999 BKN020 SCT045 BKN100 21/19 Q1016 RMK 5CU020 3SC045 7AC100 A3000;EQDQ01+000000PRSWM2
0184479810999992000011215004+24780+141320FM-15+0116RJAW V0201301N004110300019N0112651N1+02201+01701999999ADDGA1021+006009999GA2071+030009999GF107991999999999999999999MA1101491999999MW1001REMMET074RJAW 1500Z 13008KT 9999 FEW020 BKN100 22/17 Q1015 RMK 1CU020 5AC100 A2997;EQDQ01+000000PRSWM2
0184479810999992000011218004+24780+141320FM-15+0116RJAW V0201201N004610300019N0112651N1+02101+01801999999ADDGA1021+006009999GA2071+030009999GF107991999999999999999999MA1101391999999MW1001REMMET074RJAW 1800Z 12009KT 9999 FEW020 BKN100 21/18 Q1014 RMK 1CU020 5AC100 A2995;EQDQ01+000000PRSWM2
0184479810999992000011220004+24780+141320FM-15+0116RJAW V0201201N005710300019N0112651N1+02101+01801999999ADDGA1021+006009999GA2071+030009999GF107991999999999999999999MA1101291999999MW1001REMMET074RJAW 2000Z 12011KT 9999 FEW020 BKN100 21/18 Q1013 RMK 2CU020 5AC100 A2994;EQDQ01+000000PRSWM2
0223479810999992000011221004+24780+141320FM-15+0116RJAW V0201101N005710300019N0112651N1+02101+01801999999ADDGA1021+006009999GA2071+030009999GF107991999999999999999999MA1101391999999MW1001REMMET113RJAW 2100Z 11011KT 9999 FEW020 BKN100 21/18 Q1014 RMK 1CU020 5AC100 A2995 FCST 2109 TEMPO 0006 BKN020CU BKN100AC;EQDQ01+000000PRSWM2
0184479810999992000011222004+24780+141320FM-15+0116RJAW V0201201N004610300019N0112651N1+02101+01801999999ADDGA1021+004509999GA2071+030009999GF107991999999999999999999MA1101391999999MW1001REMMET074RJAW 2200Z 12009KT 9999 FEW015 BKN100 21/18 Q1014 RMK 1CU015 5AC100 A2996;EQDQ01+000000PRSWM2
0186479810999992000011222304+24780+141320FM-15+0116RJAW V0201201N004612200019N0112651N1+02201+01801999999ADDGA1021+004509999GA2021+030009999GF104991999999999999999999MA1101391999999MW1001REMMET076RJAW 122230Z 12009KT 9999 FEW015 SCT100 22/18 Q1014 RMK 2CU015 4AC100 A2997;EQDQ01+000000PRSWM2
0156479810999992000011223124+24780+141320FM-16+0116RJAW V0201201N005710045019N0112651N1+02301+01901999999ADDGA1071+004509999GF107991999999999999999999MA1101491999999MW1001REMMET062RJAW 122312Z 12011KT 9999 BKN015 23/19 Q1015 RMK 5CU015 A2998;EQDQ01+000000PRSWM2
0156479810999992000011223364+24780+141320FM-16+0116RJAW V0201201N005712200019N0112651N1+02301+01901999999ADDGA1021+004509999GF104991999999999999999999MA1101491999999MW1001REMMET062RJAW 122336Z 12011KT 9999 SCT015 23/19 Q1015 RMK 4CU015 A2999;EQDQ01+000000PRSWM2
0244479810999992000011300004+24780+141320FM-15+0116RJAW V0201101N006212200019N0112651N1+02301+01901999999ADDGA1021+004509999GA2021+030009999GF104991999999999999999999MA1101491999999MW1001REMMET134RJAW 0000Z 11012KT 9999 SCT015 SCT100 23/19 Q1015 RMK 3CU015 3AC100 A2999 FCST 0012 TEMPO 0006 BKN015CU BKN100AC TEMPO 0612 BKN015 CU;EQDQ01+000000PRSWM2
0154479810999992000011302004+24780+141320FM-15+0116RJAW V0201201N006212200019N0112651N1+02401+01901999999ADDGA1021+006009999GF102991999999999999999999MA1101291999999MW1001REMMET060RJAW 0200Z 12012KT 9999 FEW020 24/19 Q1013 RMK 1CU020 A2994;EQDQ01+000000PRSWM2
0154479810999992000011304004+24780+141320FM-15+0116RJAW V0201401N006212200019N0112651N1+02401+01901999999ADDGA1021+006009999GF102991999999999999999999MA1101191999999MW1001REMMET060RJAW 0400Z 14012KT 9999 FEW020 24/19 Q1012 RMK 1CU020 A2990;EQDQ01+000000PRSWM2
0154479810999992000011305004+24780+141320FM-15+0116RJAW V0201301N006212200019N0112651N1+02401+01901999999ADDGA1021+006009999GF102991999999999999999999MA1101191999999MW1001REMMET060RJAW 0500Z 13012KT 9999 FEW020 24/19 Q1012 RMK 1CU020 A2990;EQDQ01+000000PRSWM2
0170479810999992000011306004+24780+141320FM-15+0116RJAW V0201401N006212200019N0112651N1+02301+01901999999ADDGA1021+006009999GF102991999999999999999999MA1101191999999MW1001REMMET076RJAW 0600Z 14012KT 9999 FEW020 23/19 Q1012 RMK 1CU020 A2990 FCST 0618 NOSIG;EQDQ01+000000PRSWM2
0154479810999992000011307004+24780+141320FM-15+0116RJAW V0201501N004112200019N0112651N1+02301+01901999999ADDGA1021+004509999GF102991999999999999999999MA1101291999999MW1001REMMET060RJAW 0700Z 15008KT 9999 FEW015 23/19 Q1013 RMK 1CU015 A2991;EQDQ01+000000PRSWM2
0154479810999992000011308004+24780+141320FM-15+0116RJAW V0201501N003112200019N0112651N1+02201+01901999999ADDGA1021+006009999GF102991999999999999999999MA1101291999999MW1001REMMET060RJAW 0800Z 15006KT 9999 FEW020 22/19 Q1013 RMK 1CU020 A2993;EQDQ01+000000PRSWM2
0154479810999992000011309004+24780+141320FM-15+0116RJAW V0201501N002612200019N0112651N1+02201+01901999999ADDGA1021+006009999GF102991999999999999999999MA1101391999999MW1001REMMET060RJAW 0900Z 15005KT 9999 FEW020 22/19 Q1014 RMK 1CU020 A2995;EQDQ01+000000PRSWM2
0154479810999992000011312004+24780+141320FM-15+0116RJAW V0201601N002612200019N0112651N1+02101+01901999999ADDGA1021+006009999GF102991999999999999999999MA1101491999999MW1001REMMET060RJAW 1200Z 16005KT 9999 FEW020 21/19 Q1015 RMK 2CU020 A2997;EQDQ01+000000PRSWM2
0154479810999992000011315004+24780+141320FM-15+0116RJAW V0201801N002112200019N0112651N1+02101+01901999999ADDGA1021+006009999GF102991999999999999999999MA1101391999999MW1001REMMET060RJAW 1500Z 18004KT 9999 FEW020 21/19 Q1014 RMK 1CU020 A2996;EQDQ01+000000PRSWM2
0154479810999992000011318004+24780+141320FM-15+0116RJAW V0201701N002112200019N0112651N1+02101+01901999999ADDGA1021+006009999GF102991999999999999999999MA1101391999999MW1001REMMET060RJAW 1800Z 17004KT 9999 FEW020 21/19 Q1014 RMK 1CU020 A2994;EQDQ01+000000PRSWM2
0154479810999992000011320004+24780+141320FM-15+0116RJAW V0202101N001012200019N0112651N1+02101+01901999999ADDGA1021+006009999GF104991999999999999999999MA1101391999999MW1001REMMET060RJAW 2000Z 21002KT 9999 SCT020 21/19 Q1014 RMK 3CU020 A2996;EQDQ01+000000PRSWM2
0200479810999992000011321004+24780+141320FM-15+0116RJAW V0202001N001012200019N0112651N1+02101+01901999999ADDGA1021+006009999GA2021+030009999GF104991999999999999999999MA1101391999999MW1001REMMET090RJAW 2100Z 20002KT 9999 FEW020 SCT100 21/19 Q1014 RMK 1CU020 4AC100 A2997 FCST 2109 NOSIG;EQDQ01+000000PRSWM2
0186479810999992000011321094+24780+141320FM-16+0116RJAW V0202001N001010300019N0112651N1+02101+01901999999ADDGA1021+006009999GA2071+030009999GF107991999999999999999999MA1101391999999MW1001REMMET076RJAW 132109Z 20002KT 9999 FEW020 BKN100 21/19 Q1014 RMK 1CU020 5AC100 A2997;EQDQ01+000000PRSWM2
0186479810999992000011321214+24780+141320FM-16+0116RJAW V0201701N002112200019N0112651N1+02101+01901999999ADDGA1021+006009999GA2021+030009999GF104991999999999999999999MA1101391999999MW1001REMMET076RJAW 132121Z 17004KT 9999 FEW020 SCT100 21/19 Q1014 RMK 1CU020 4AC100 A2997;EQDQ01+000000PRSWM2
0186479810999992000011321454+24780+141320FM-15+0116RJAW V0201701N000510300019N0112651N1+02101+01901999999ADDGA1021+006009999GA2071+030009999GF107991999999999999999999MA1101491999999MW1001REMMET076RJAW 132145Z 17001KT 9999 FEW020 BKN100 21/19 Q1015 RMK 1CU020 5AC100 A2998;EQDQ01+000000PRSWM2
0186479810999992000011322094+24780+141320FM-16+0116RJAW V0201801N000512200019N0112651N1+02101+01901999999ADDGA1021+006009999GA2021+030009999GF104991999999999999999999MA1101491999999MW1001REMMET076RJAW 132209Z 18001KT 9999 FEW020 SCT100 21/19 Q1015 RMK 1CU020 4AC100 A2998;EQDQ01+000000PRSWM2
0154479810999992000011323004+24780+141320FM-15+0116RJAW V0202001N001512200019N0112651N1+02201+01901999999ADDGA1021+030009999GF102991999999999999999999MA1101491999999MW1001REMMET060RJAW 2300Z 20003KT 9999 FEW100 22/19 Q1015 RMK 1AC100 A2999;EQDQ01+000000PRSWM2
0170479810999992000011400004+24780+141320FM-15+0116RJAW V0201401N003612200019N0112651N1+02201+01901999999ADDGA1021+004509999GF102991999999999999999999MA1101591999999MW1001REMMET076RJAW 0000Z 14007KT 9999 FEW015 22/19 Q1016 RMK 1CU015 A3000 FCST 0012 NOSIG;EQDQ01+000000PRSWM2
0154479810999992000011401004+24780+141320FM-15+0116RJAW V0202001N002112200019N0112651N1+02301+01901999999ADDGA1021+004509999GF102991999999999999999999MA1101591999999MW1001REMMET060RJAW 0100Z 20004KT 9999 FEW015 23/19 Q1016 RMK 1CU015 A3001;EQDQ01+000000PRSWM2
0177479810999992000011402004+24780+141320FM-15+0116RJAW V0202201N001512200019N0112651N1+02401+01901999999ADDGA1021+003609999GA2021+069009999GF104991999999999999999999MA1101591999999MW1001REMMET067RJAW 0200Z 22003KT 9999 FEW012 SCT230 24/19 Q1016 RMK 1CU012 A3000;EQDQ01+000000PRSWM2
0200479810999992000011403004+24780+141320FM-15+0116RJAW V0200701N002612200019N0112651N1+02301+01901999999ADDGA1021+003609999GA2021+030009999GF104991999999999999999999MA1101491999999MW1001REMMET090RJAW 0300Z 07005KT 9999 FEW012 SCT100 23/19 Q1015 RMK 2CU012 3AC100 A2998 FCST 0315 NOSIG;EQDQ01+000000PRSWM2
0154479810999992000011404004+24780+141320FM-15+0116RJAW V0201001N001512200019N0112651N1+02401+01901999999ADDGA1021+003609999GF102991999999999999999999MA1101391999999MW1001REMMET060RJAW 0400Z 10003KT 9999 FEW012 24/19 Q1014 RMK 2CU012 A2996;EQDQ01+000000PRSWM2
0154479810999992000011405004+24780+141320FM-15+0116RJAW V0201601N002112200019N0112651N1+02301+01901999999ADDGA1021+003609999GF102991999999999999999999MA1101391999999MW1001REMMET060RJAW 0500Z 16004KT 9999 FEW012 23/19 Q1014 RMK 1CU012 A2995;EQDQ01+000000PRSWM2
0200479810999992000011406004+24780+141320FM-15+0116RJAW V0201701N002612200019N0112651N1+02301+01901999999ADDGA1021+003609999GA2021+036009999GF104991999999999999999999MA1101291999999MW1001REMMET090RJAW 0600Z 17005KT 9999 FEW012 SCT120 23/19 Q1013 RMK 1CU012 3AC120 A2993 FCST 0618 NOSIG;EQDQ01+000000PRSWM2
0184479810999992000011407004+24780+141320FM-15+0116RJAW V0201601N002112200019N0112651N1+02301+01901999999ADDGA1021+003609999GA2021+030009999GF104991999999999999999999MA1101291999999MW1001REMMET074RJAW 0700Z 16004KT 9999 FEW012 SCT100 23/19 Q1013 RMK 1CU012 4AC100 A2994;EQDQ01+000000PRSWM2
0186479810999992000011407314+24780+141320FM-16+0116RJAW V0201601N001010300019N0112651N1+02301+01901999999ADDGA1021+003609999GA2071+030009999GF107991999999999999999999MA1101391999999MW1001REMMET076RJAW 140731Z 16002KT 9999 FEW012 BKN100 23/19 Q1014 RMK 2CU012 5AC100 A2996;EQDQ01+000000PRSWM2
0184479810999992000011408004+24780+141320FM-15+0116RJAW V0201501N001010300019N0112651N1+02201+01901999999ADDGA1021+006009999GA2071+030009999GF107991999999999999999999MA1101391999999MW1001REMMET074RJAW 0800Z 15002KT 9999 FEW020 BKN100 22/19 Q1014 RMK 1CU020 6AC100 A2996;EQDQ01+000000PRSWM2
0184479810999992000011409004+24780+141320FM-15+0116RJAW V02099999999990300019N0112651N1+02201+01901999999ADDGA1021+006009999GA2071+030009999GF107991999999999999999999MA1101491999999MW1001REMMET074RJAW 0900Z VRB01KT 9999 FEW020 BKN100 22/19 Q1015 RMK 1CU020 6AC100 A2999;EQDQ01+000000PRSWM2
0184479810999992000011412004+24780+141320FM-15+0116RJAW V0203601N001010300019N0112651N1+02201+01901999999ADDGA1021+006009999GA2071+030009999GF107991999999999999999999MA1101691999999MW1001REMMET074RJAW 1200Z 36002KT 9999 FEW020 BKN100 22/19 Q1017 RMK 2CU020 6AC100 A3003;EQDQ01+000000PRSWM2
0184479810999992000011415004+24780+141320FM-15+0116RJAW V0202301N000510300019N0112651N1+02201+01901999999ADDGA1021+006009999GA2071+030009999GF107991999999999999999999MA1101491999999MW1001REMMET074RJAW 1500Z 23001KT 9999 FEW020 BKN100 22/19 Q1015 RMK 2CU020 7AC100 A3000;EQDQ01+000000PRSWM2
0184479810999992000011418004+24780+141320FM-15+0116RJAW V0202401N001010300019N0112651N1+02101+01901999999ADDGA1021+006009999GA2071+030009999GF107991999999999999999999MA1101491999999MW1001REMMET074RJAW 1800Z 24002KT 9999 FEW020 BKN100 21/19 Q1015 RMK 1CU020 5AC100 A2998;EQDQ01+000000PRSWM2
0184479810999992000011421004+24780+141320FM-15+0116RJAW V0203501N001510300019N0112651N1+02101+01901999999ADDGA1021+006009999GA2071+030009999GF107991999999999999999999MA1101591999999MW1001REMMET074RJAW 2100Z 35003KT 9999 FEW020 BKN100 21/19 Q1016 RMK 1CU020 6AC100 A3001;EQDQ01+000000PRSWM2
0244479810999992000011422004+24780+141320FM-15+0116RJAW V0202601N001010300019N0112651N1+02101+01901999999ADDGA1021+009009999GA2071+030009999GF107991999999999999999999MA1101591999999MW1001REMMET134RJAW 2200Z 26002KT 9999 SCT030 BKN100 21/19 Q1016 RMK 3CU030 6AC100 A3002 FCST 2210 BECMG 0103 SCT030CU SCT100AC TEMPO 0309 BKN030 CU;EQDQ01+000000PRSWM2
0184479810999992000011423004+24780+141320FM-15+0116RJAW V02099999999990300019N0112651N1+02201+01901999999ADDGA1021+009009999GA2071+030009999GF107991999999999999999999MA1101691999999MW1001REMMET074RJAW 2300Z VRB03KT 9999 FEW030 BKN100 22/19 Q1017 RMK 2CU030 6AC100 A3004;EQDQ01+000000PRSWM2
0244479810999992000011500004+24780+141320FM-15+0116RJAW V0202601N002110300019N0112651N1+02201+01901999999ADDGA1021+004509999GA2071+030009999GF107991999999999999999999MA1101691999999MW1001REMMET134RJAW 0000Z 26004KT 9999 FEW015 BKN100 22/19 Q1017 RMK 1CU015 6AC100 A3005 FCST 0012 BECMG 0103 FEW030CU SCT100AC TEMPO 0309 BKN030 CU;EQDQ01+000000PRSWM2
0236479810999992000011501004+24780+141320FM-15+0116RJAW V0203301N003110300019N0112651N1+02201+02001999999ADDGA1021+003609999GA2021+006009999GA3071+030009999GF107991999999999999999999MA1101691999999MW1801REMMET094RJAW 0100Z 33006KT 9999 -SHRA SCT012 SCT020 BKN100 22/20 Q1017 RMK 4CU012 3CU020 5AC100 A3005;EQDQ01+000003PRSWM1Q02    003PRSWM1
0186479810999992000011501454+24780+141320FM-15+0116RJAW V0203401N003612200019N0112651N1+02401+01901999999ADDGA1021+003609999GA2021+006009999GF104991999999999999999999MA1101591999999MW1001REMMET076RJAW 150145Z 34007KT 9999 FEW012 SCT020 24/19 Q1016 RMK 1CU012 3CU020 A3003;EQDQ01+000000PRSWM2
0184479810999992000011502004+24780+141320FM-15+0116RJAW V0203601N004112200019N0112651N1+02301+01901999999ADDGA1021+003609999GA2021+006009999GF104991999999999999999999MA1101591999999MW1001REMMET074RJAW 0200Z 36008KT 9999 FEW012 SCT020 23/19 Q1016 RMK 1CU012 3CU020 A3003;EQDQ01+000000PRSWM2
0184479810999992000011503004+24780+141320FM-15+0116RJAW V0200201N005112200019N0112651N1+02301+01901999999ADDGA1021+003609999GA2021+006009999GF104991999999999999999999MA1101491999999MW1001REMMET074RJAW 0300Z 02010KT 9999 FEW012 SCT020 23/19 Q1015 RMK 2CU012 4CU020 A3000;EQDQ01+000000PRSWM2
0154479810999992000011506004+24780+141320FM-15+0116RJAW V0200501N003112200019N0112651N1+02301+01801999999ADDGA1021+006009999GF104991999999999999999999MA1101391999999MW1001REMMET060RJAW 0600Z 05006KT 9999 SCT020 23/18 Q1014 RMK 3CU020 A2996;EQDQ01+000000PRSWM2
0154479810999992000011509004+24780+141320FM-15+0116RJAW V0200201N003112200019N0112651N1+02201+01801999999ADDGA1021+004509999GF104991999999999999999999MA1101491999999MW1001REMMET060RJAW 0900Z 02006KT 9999 SCT015 22/18 Q1015 RMK 3CU015 A3000;EQDQ01+000000PRSWM2
0154479810999992000011512004+24780+141320FM-15+0116RJAW V0200301N004112200019N0112651N1+02101+01701999999ADDGA1021+006009999GF102991999999999999999999MA1101591999999MW1001REMMET060RJAW 1200Z 03008KT 9999 FEW020 21/17 Q1016 RMK 2CU020 A3001;EQDQ01+000000PRSWM2
0184479810999992000011515004+24780+141320FM-15+0116RJAW V0200501N004612200019N0112651N1+02101+01801999999ADDGA1021+006009999GA2021+030009999GF104991999999999999999999MA1101591999999MW1001REMMET074RJAW 1500Z 05009KT 9999 FEW020 SCT100 21/18 Q1016 RMK 1CU020 3AC100 A3000;EQDQ01+000000PRSWM2
0184479810999992000011518004+24780+141320FM-15+0116RJAW V0200601N004110300019N0112651N1+02101+01801999999ADDGA1021+006009999GA2071+030009999GF107991999999999999999999MA1101391999999MW1001REMMET074RJAW 1800Z 06008KT 9999 FEW020 BKN100 21/18 Q1014 RMK 1CU020 7AC100 A2997;EQDQ01+000000PRSWM2
0184479810999992000011521004+24780+141320FM-15+0116RJAW V0200701N003110300019N0112651N1+02101+01801999999ADDGA1021+006009999GA2071+030009999GF107991999999999999999999MA1101491999999MW1001REMMET074RJAW 2100Z 07006KT 9999 FEW020 BKN100 21/18 Q1015 RMK 2CU020 5AC100 A2998;EQDQ01+000000PRSWM2
0223479810999992000011522004+24780+141320FM-15+0116RJAW V0200801N003610240019N0112651N1+02101+01801999999ADDGA1021+004509999GA2071+024009999GF107991999999999999999999MA1101491999999MW1001REMMET113RJAW 2200Z 08007KT 9999 SCT015 BKN080 21/18 Q1015 RMK 4CU015 6AC080 A3000 FCST 2210 TEMPO 0006 BKN015CU BKN080AC;EQDQ01+000000PRSWM2
0186479810999992000011522034+24780+141320FM-16+0116RJAW V0200801N003610045019N0112651N1+02101+01801999999ADDGA1071+004509999GA2071+024009999GF107991999999999999999999MA1101491999999MW1001REMMET076RJAW 152203Z 08007KT 9999 BKN015 BKN080 21/18 Q1015 RMK 5CU015 7AC080 A3000;EQDQ01+000000PRSWM2
0207479810999992000011522134+24780+141320FM-16+0116RJAW V0200701N005710045019N0112651N1+02101+01801999999ADDGA1071+004509999GA2071+024009999GF107991999999999999999999MA1101491999999MW1811REMMET081RJAW 152213Z 07011KT 9999 SHRA BKN015 BKN080 21/18 Q1015 RMK 5CU015 7AC080 A3000;EQDQ01+000003PRSWM1Q02    003PRSWM1
0208479810999992000011522154+24780+141320FM-16+0116RJAW V0200701N005710045019N0112651N1+02101+01801999999ADDGA1071+004509999GA2071+024009999GF107991999999999999999999MA1101491999999MW1821REMMET082RJAW 152215Z 07011KT 9999 +SHRA BKN015 BKN080 21/18 Q1015 RMK 5CU015 7AC080 A3000;EQDQ01+000003PRSWM1Q02    003PRSWM1
0253479810999992000011522254+24780+141320FM-15+0116RJAW V0200701N004610045019N0080001N1+02001+01801999999ADDGA1021+001509999GA2071+004509999GA3071+024009999GF107991999999999999999999MA1101591999999MW1101MW2811REMMET105RJAW 152225Z 07009KT 8000 SHRA BR FEW005 BKN015 BKN080 20/18 Q1016 RMK 2ST005 6CU015 7AC080 A3000 4000NE;EQDQ01+000003PRSWM1Q02    003PRSWM1
0243479810999992000011522414+24780+141320FM-16+0116RJAW V0201001N004110045019N0080001N1+02001+01801999999ADDGA1021+001509999GA2071+004509999GA3071+024009999GF107991999999999999999999MA1101591999999MW1801REMMET101RJAW 152241Z 10008KT 8000 -SHRA FEW005 BKN015 BKN080 20/18 Q1016 RERA RMK 2ST005 5CU015 7AC080 A3000;EQDQ01+000003PRSWM1Q02    003PRSWM1
0256479810999992000011523004+24780+141320FM-15+0116RJAW V0201001N003610045019N0112651N1+02001+01801999999ADDGA1021+001509999GA2071+004509999GA3071+024009999GF107991999999999999999999MA1101591999999MW1101MW2801REMMET108RJAW 2300Z 10007KT 9999 -SHRA BR FEW005 BKN015 BKN080 20/18 Q1016 RERA RMK 2ST005 5CU015 7AC080 A3000 5000W;EQDQ01+000003PRSWM1Q02    003PRSWM1
0200479810999992000011600004+24780+141320FM-15+0116RJAW V0200701N004110045019N0112651N1+02101+01801999999ADDGA1071+004509999GA2071+030009999GF107991999999999999999999MA1101591999999MW1001REMMET090RJAW 0000Z 07008KT 9999 BKN015 BKN100 21/18 Q1016 RMK 5CU015 7AC100 A3000 FCST 0012 NOSIG;EQDQ01+000000PRSWM2
0186479810999992000011600354+24780+141320FM-16+0116RJAW V0200801N005110300019N0112651N1+02201+01801999999ADDGA1021+004509999GA2071+030009999GF107991999999999999999999MA1101591999999MW1001REMMET076RJAW 160035Z 08010KT 9999 SCT015 BKN100 22/18 Q1016 RMK 4CU015 7AC100 A3000;EQDQ01+000000PRSWM2
0184479810999992000011601004+24780+141320FM-15+0116RJAW V0200801N005710300019N0112651N1+02201+01801999999ADDGA1021+004509999GA2071+030009999GF107991999999999999999999MA1101591999999MW1001REMMET074RJAW 0100Z 08011KT 9999 SCT015 BKN100 22/18 Q1016 RMK 3CU015 7AC100 A3000;EQDQ01+000000PRSWM2
0184479810999992000011602004+24780+141320FM-15+0116RJAW V0200801N005110240019N0112651N1+02201+01701999999ADDGA1021+004509999GA2071+024009999GF107991999999999999999999MA1101491999999MW1001REMMET074RJAW 0200Z 08010KT 9999 SCT015 BKN080 22/17 Q1015 RMK 3CU015 7AC080 A2998;EQDQ01+000000PRSWM2
0184479810999992000011603004+24780+141320FM-15+0116RJAW V0201001N005710240019N0112651N1+02301+01801999999ADDGA1021+004509999GA2071+024009999GF107991999999999999999999MA1101291999999MW1001REMMET074RJAW 0300Z 10011KT 9999 SCT015 BKN080 23/18 Q1013 RMK 3CU015 7AC080 A2994;EQDQ01+000000PRSWM2
0286479810999992000011606004+24780+141320FM-15+0116RJAW V0200901N005710060019N0112651N1+02201+01701999999ADDGA1021+004509999GA2071+006009999GA3071+024009999GF107991999999999999999999MA1101081999999MW1801REMMET144RJAW 0600Z 09011KT 9999 -SHRA FEW015 BKN020 BKN080 22/17 Q1011 RMK 1CU015 6CU020 7AC080 A2987 FCST 0618 TEMPO 0609 4000 -SHRA BKN008CU OVC015CU;EQDQ01+000003PRSWM1Q02    003PRSWM1
0214479810999992000011607004+24780+141320FM-15+0116RJAW V0201001N005710060019N0112651N1+02101+01701999999ADDGA1021+004509999GA2071+006009999GA3071+024009999GF107991999999999999999999MA1101081999999MW1001REMMET088RJAW 0700Z 10011KT 9999 FEW015 BKN020 BKN080 21/17 Q1011 RMK 1CU015 5CU020 7AC080 A2987;EQDQ01+000000PRSWM2
0238479810999992000011607314+24780+141320FM-16+0116RJAW V0200901N005710240019N0112651N1+02101+01801999999ADDGA1021+004509999GA2021+006009999GA3071+024009999GF107991999999999999999999MA1101081999999MW1801REMMET096RJAW 160731Z 09011KT 9999 -SHRA FEW015 SCT020 BKN080 21/18 Q1011 RMK 1CU015 4CU020 7AC080 A2988;EQDQ01+000003PRSWM1Q02    003PRSWM1
0236479810999992000011608004+24780+141320FM-15+0116RJAW V0200901N005710240019N0060001N1+02101+01801999999ADDGA1021+006009999GA2071+024009999GA3071+030009999GF107991999999999999999999MA1101081999999MW1801REMMET094RJAW 0800Z 09011KT 6000 -SHRA SCT020 BKN080 BKN100 21/18 Q1011 RMK 3CU020 5AC080 7AC100 A2987;EQDQ01+000003PRSWM1Q02    003PRSWM1
0236479810999992000011609004+24780+141320FM-15+0116RJAW V0200701N005710240019N0080001N1+02001+01801999999ADDGA1021+006009999GA2071+024009999GA3071+030009999GF107991999999999999999999MA1101081999999MW1801REMMET094RJAW 0900Z 07011KT 8000 -SHRA SCT020 BKN080 BKN100 20/18 Q1011 RMK 3CU020 5AC080 7AC100 A2987;EQDQ01+000003PRSWM1Q02    003PRSWM1
0236479810999992000011612004+24780+141320FM-15+0116RJAW V0200701N005710240019N0060001N1+01901+01701999999ADDGA1021+003009999GA2021+006009999GA3071+024009999GF107991999999999999999999MA1101081999999MW1801REMMET094RJAW 1200Z 07011KT 6000 -SHRA FEW010 SCT020 BKN080 19/17 Q1011 RMK 1CU010 4CU020 7AC080 A2988;EQDQ01+000003PRSWM1Q02    003PRSWM1
0287479810999992000011615004+24780+141320FM-15+0116RJAW V0200801N00621220001CN0035001N1+01801+01701999999ADDGA1021+000909999GA2021+003009999GA3021+006009099GA4081+006009999MA1101021999999MW1101MW2801REMMET133RJAW 1500Z 08012KT 3500 -SHRA BR FEW003 SCT010 OVC020 FEW020CB 18/17 Q1010 RERA RMK 2ST003 4CU010 8CU020 1CB020 A2983 CB 5KM E MOV E;EQDQ01+000022SCOTCVQ02+000003PRSWM1Q03    003PRSWM1
0244479810999992000011618004+24780+141320FM-15+0116RJAW V0200301N008210045019N0035001N1+01801+01701999999ADDGA1021+001209999GA2021+003009999GA3081+004509999GF108991999999999999999999MA1100711999999MW1101MW2811REMMET096RJAW 1800Z 03016KT 3500 SHRA BR SCT004 SCT010 OVC015 18/17 Q1007 RMK 3ST004 4CU010 8CU015 A2975;EQDQ01+000003PRSWM1Q02    003PRSWM1
0256479810999992000011620004+24780+141320FM-15+0116RJAW V0200601N008710030019N0045001N1+01901+01801999999ADDGA1021+000909999GA2021+001809999GA3071+003009999GF107991999999999999999999MA1100611999999MW1101MW2801OC101391REMMET100RJAW 2000Z 06017G27KT 4500 -SHRA BR FEW003 SCT006 BKN010 19/18 Q1006 RMK 2ST003 4ST006 7CU010 A2972;EQDQ01+000003PRSWM1Q02    003PRSWM1
0256479810999992000011620174+24780+141320FM-16+0116RJAW V0200601N008710030019N0040001N1+01901+01801999999ADDGA1021+000909999GA2021+001809999GA3071+003009999GF107991999999999999999999MA1100611999999MW1811REMMET098RJAW 162017Z 06017KT 4000 SHRA BR SCT003 SCT006 BKN010 19/18 Q1006 RMK 3ST003 4ST006 7CU010 A2972;EQDQ01+000100PRSWM3Q02+000003PRSWM1Q03    003PRSWM1
0262479810999992000011620334+24780+141320FM-16+0116RJAW V0200601N007710030019N0045001N1+01901+01801999999ADDGA1021+000909999GA2021+001809999GA3071+003009999GF107991999999999999999999MA1100611999999MW1801REMMET104RJAW 162033Z 06015KT 4500 -SHRA BR FEW003 SCT006 BKN010 19/18 Q1006 RERA RMK 2ST003 4ST006 7CU010 A2973;EQDQ01+000100PRSWM3Q02+000003PRSWM1Q03    003PRSWM1
0256479810999992000011620474+24780+141320FM-16+0116RJAW V0200501N007210030019N0040001N1+01901+01801999999ADDGA1021+000909999GA2021+001809999GA3071+003009999GF107991999999999999999999MA1100711999999MW1811REMMET098RJAW 162047Z 05014KT 4000 SHRA BR SCT003 SCT006 BKN010 19/18 Q1007 RMK 3ST003 4ST006 7CU010 A2974;EQDQ01+000100PRSWM3Q02+000003PRSWM1Q03    003PRSWM1
0256479810999992000011621124+24780+141320FM-16+0116RJAW V0200401N008210018019N0031001N1+01901+01801999999ADDGA1021+000609999GA2071+001809999GA3071+003009999GF107991999999999999999999MA1100711999999MW1811REMMET098RJAW 162112Z 04016KT 3100 SHRA BR SCT002 BKN006 BKN010 19/18 Q1007 RMK 3ST002 5ST006 7CU010 A2974;EQDQ01+000100PRSWM3Q02+000003PRSWM1Q03    003PRSWM1
0262479810999992000011621184+24780+141320FM-16+0116RJAW V0200501N007210018019N0026001N1+01901+01801999999ADDGA1021+000609999GA2071+001809999GA3081+003009999GF108991999999999999999999MA1100711999999MW1801REMMET104RJAW 162118Z 05014KT 2600 -SHRA BR SCT002 BKN006 OVC010 19/18 Q1007 RERA RMK 4ST002 6ST006 8CU010 A2974;EQDQ01+000100PRSWM3Q02+000003PRSWM1Q03    003PRSWM1
0262479810999992000011621334+24780+141320FM-16+0116RJAW V0200301N007210018019N0023001N1+01901+01801999999ADDGA1021+000609999GA2071+001809999GA3081+003009999GF108991999999999999999999MA1100711999999MW1801REMMET104RJAW 162133Z 03014KT 2300 -SHRA BR SCT002 BKN006 OVC010 19/18 Q1007 RERA RMK 4ST002 6ST006 8CU010 A2974;EQDQ01+000100PRSWM3Q02+000003PRSWM1Q03    003PRSWM1
0262479810999992000011621464+24780+141320FM-16+0116RJAW V0200401N007710018019N0019001N1+01901+01801999999ADDGA1021+000609999GA2071+001809999GA3081+003009999GF108991999999999999999999MA1100611999999MW1801REMMET104RJAW 162146Z 04015KT 1900 -SHRA BR SCT002 BKN006 OVC010 19/18 Q1006 RERA RMK 4ST002 7ST006 8CU010 A2973;EQDQ01+000100PRSWM3Q02+000003PRSWM1Q03    003PRSWM1
0250479810999992000011622004+24780+141320FM-15+0116RJAW V0200401N008710018019N0019001N1+01901+01801999999ADDGA1021+000609999GA2071+001809999GA3081+003009999GF108991999999999999999999MA1100611999999MW1101MW2801REMMET102RJAW 2200Z 04017KT 1900 -SHRA BR SCT002 BKN006 OVC010 19/18 Q1006 RERA RMK 4ST002 7ST006 8CU010 A2973;EQDQ01+000003PRSWM1Q02    003PRSWM1
0268479810999992000011622114+24780+141320FM-16+0116RJAW V0200401N008710018019N0019001N1+01901+01801999999ADDGA1021+000609999GA2071+001809999GA3081+003009999GF108991999999999999999999MA1100611999999MW1801OC101391REMMET102RJAW 162211Z 04017G27KT 1900 -SHRA BR SCT002 BKN006 OVC010 19/18 Q1006 RMK 4ST002 7ST006 8CU010 A2973;EQDQ01+000100PRSWM3Q02+000003PRSWM1Q03    003PRSWM1
0268479810999992000011622214+24780+141320FM-16+0116RJAW V0200401N008710018019N0020001N1+01801+01801999999ADDGA1021+000609999GA2071+001809999GA3081+003009999GF108991999999999999999999MA1100711999999MW1801OC101441REMMET102RJAW 162221Z 04017G28KT 2000 -SHRA BR SCT002 BKN006 OVC010 18/18 Q1007 RMK 4ST002 7ST006 8CU010 A2974;EQDQ01+000100PRSWM3Q02+000003PRSWM1Q03    003PRSWM1
0257479810999992000011622274+24780+141320FM-16+0116RJAW V0200401N008710018019N0027001N1+01801+01801999999ADDGA1021+000609999GA2071+001809999GA3081+003009999GF108991999999999999999999MA1100711999999MW1801REMMET099RJAW 162227Z 04017KT 2700 -SHRA BR SCT002 BKN006 OVC010 18/18 Q1007 RMK 4ST002 7ST006 8CU010 A2974;EQDQ01+000100PRSWM3Q02+000003PRSWM1Q03    003PRSWM1
0257479810999992000011622294+24780+141320FM-16+0116RJAW V0200401N008710018019N0032001N1+01801+01801999999ADDGA1021+000609999GA2071+001809999GA3081+003009999GF108991999999999999999999MA1100711999999MW1801REMMET099RJAW 162229Z 04017KT 3200 -SHRA BR SCT002 BKN006 OVC010 18/18 Q1007 RMK 4ST002 6ST006 8CU010 A2974;EQDQ01+000100PRSWM3Q02+000003PRSWM1Q03    003PRSWM1
0257479810999992000011622384+24780+141320FM-16+0116RJAW V0200401N008710018019N0050001N1+01801+01801999999ADDGA1021+000609999GA2071+001809999GA3071+003009999GF107991999999999999999999MA1100711999999MW1801REMMET099RJAW 162238Z 04017KT 5000 -SHRA BR FEW002 BKN006 BKN010 18/18 Q1007 RMK 2ST002 5ST006 7CU010 A2974;EQDQ01+000100PRSWM3Q02+000003PRSWM1Q03    003PRSWM1
0256479810999992000011623004+24780+141320FM-15+0116RJAW V0200301N008210018019N0050001N1+01901+01801999999ADDGA1021+001209999GA2071+001809999GA3071+003009999GF107991999999999999999999MA1100711999999MW1101MW2801OC101441REMMET100RJAW 2300Z 03016G28KT 5000 -SHRA BR FEW004 BKN006 BKN010 19/18 Q1007 RMK 2ST004 5ST006 7CU010 A2974;EQDQ01+000003PRSWM1Q02    003PRSWM1
0268479810999992000011623214+24780+141320FM-16+0116RJAW V0200301N009310018019N0049001N1+01901+01801999999ADDGA1021+000609999GA2071+001809999GA3071+003009999GF107991999999999999999999MA1100711999999MW1801OC101541REMMET102RJAW 162321Z 03018G30KT 4900 -SHRA BR FEW002 BKN006 BKN010 19/18 Q1007 RMK 2ST002 5ST006 7CU010 A2974;EQDQ01+000100PRSWM3Q02+000003PRSWM1Q03    003PRSWM1
0258479810999992000011623454+24780+141320FM-15+0116RJAW V0200301N007710018019N0031001N1+01901+01801999999ADDGA1021+000609999GA2071+001809999GA3081+003009999GF108991999999999999999999MA1100711999999MW1101MW2801OC101341REMMET102RJAW 162345Z 03015G26KT 3100 -SHRA BR SCT002 BKN006 OVC010 19/18 Q1007 RMK 3ST002 6ST006 8CU010 A2974;EQDQ01+000003PRSWM1Q02    003PRSWM1
0268479810999992000011700064+24780+141320FM-16+0116RJAW V0200401N008710018019N0032001N1+01901+01801999999ADDGA1021+000609999GA2071+001809999GA3071+003009999GF107991999999999999999999MA1100711999999MW1801OC101391REMMET102RJAW 170006Z 04017G27KT 3200 -SHRA BR FEW002 BKN006 BKN010 19/18 Q1007 RMK 1ST002 5ST006 7CU010 A2974;EQDQ01+000100PRSWM3Q02+000003PRSWM1Q03    003PRSWM1
0274479810999992000011700274+24780+141320FM-16+0116RJAW V0200601N007710018019N0050001N1+01901+01901999999ADDGA1021+001209999GA2071+001809999GA3071+003009999GF107991999999999999999999MA1100611999999MW1801OC101291REMMET108RJAW 170027Z 06015G25KT 5000 -SHRA BR FEW004 BKN006 BKN010 19/19 Q1006 RMK 1ST004 5ST006 7CU010 A2973 2000N;EQDQ01+000100PRSWM3Q02+000003PRSWM1Q03    003PRSWM1
0257479810999992000011700394+24780+141320FM-16+0116RJAW V0200501N006710018019N0049001N1+02001+01901999999ADDGA1021+000609999GA2071+001809999GA3071+003009999GF107991999999999999999999MA1100611999999MW1801REMMET099RJAW 170039Z 05013KT 4900 -SHRA BR FEW002 BKN006 BKN010 20/19 Q1006 RMK 1ST002 6ST006 7CU010 A2973;EQDQ01+000100PRSWM3Q02+000003PRSWM1Q03    003PRSWM1
0268479810999992000011701074+24780+141320FM-16+0116RJAW V0200501N007710018019N0031001N1+02001+01901999999ADDGA1021+000609999GA2071+001809999GA3081+003009999GF108991999999999999999999MA1100611999999MW1801OC101291REMMET102RJAW 170107Z 05015G25KT 3100 -SHRA BR SCT002 BKN006 OVC010 20/19 Q1006 RMK 3ST002 6ST006 8CU010 A2973;EQDQ01+000100PRSWM3Q02+000003PRSWM1Q03    003PRSWM1
0256479810999992000011701334+24780+141320FM-16+0116RJAW V0200201N007710018019N0030001N1+01901+01901999999ADDGA1021+000609999GA2071+001809999GA3081+003009999GF108991999999999999999999MA1100611999999MW1811REMMET098RJAW 170133Z 02015KT 3000 SHRA BR SCT002 BKN006 OVC010 19/19 Q1006 RMK 3ST002 6ST006 8CU010 A2973;EQDQ01+000100PRSWM3Q02+000003PRSWM1Q03    003PRSWM1
0273479810999992000011701464+24780+141320FM-16+0116RJAW V0200201N007710018019N0032001N1+01901+01801999999ADDGA1021+000609999GA2071+001809999GA3071+003009999GF107991999999999999999999MA1100611999999MW1801OC101291REMMET107RJAW 170146Z 02015G25KT 3200 -SHRA BR FEW002 BKN006 BKN010 19/18 Q1006 RERA RMK 2ST002 5ST006 7CU010 A2972;EQDQ01+000100PRSWM3Q02+000003PRSWM1Q03    003PRSWM1
0243479810999992000011701494+24780+141320FM-16+0116RJAW V0200201N007710030019N0045001N1+01901+01801999999ADDGA1021+001809999GA2071+003009999GF107991999999999999999999MA1100611999999MW1801OC101291REMMET093RJAW 170149Z 02015G25KT 4500 -SHRA BR SCT006 BKN010 19/18 Q1006 RERA RMK 4ST006 6CU010 A2972;EQDQ01+000100PRSWM3Q02+000003PRSWM1Q03    003PRSWM1
0159479810999992000011701524+24780+141320FM-16+0116RJAW V0200201N007712200019N0050001N1+99999+99999999999ADDMW1001MW2801OC101291REMMET092RJAW 170152Z 02015G25KT 5000 -SHRA BR CT006 BKN010 20/19 Q1006 RERA RMK 3ST006 6CU010 A2972;EQDQ01+000100PRSWM3Q02+000003PRSWM1
0186479810999992000011702174+24780+141320FM-16+0116RJAW V0200201N007210018019N0112651N1+02001+01901999999ADDGA1071+001809999GA2071+003009999GF107991999999999999999999MA1100611999999MW1001REMMET076RJAW 170217Z 02014KT 9999 BKN006 BKN010 20/19 Q1006 RMK 5ST006 6CU010 A2971;EQDQ01+000000PRSWM2
0208479810999992000011702234+24780+141320FM-16+0116RJAW V0200201N007210030019N0112651N1+02001+01901999999ADDGA1021+001809999GA2071+003009999GF107991999999999999999999MA1100611999999MW1801REMMET082RJAW 170223Z 02014KT 9999 -SHRA SCT006 BKN010 20/19 Q1006 RMK 4ST006 6CU010 A2971;EQDQ01+000003PRSWM1Q02    003PRSWM1
0219479810999992000011702434+24780+141320FM-16+0116RJAW V0203601N007210018019N0070001N1+02001+01901999999ADDGA1071+001809999GA2071+003009999GF107991999999999999999999MA1100611999999MW1801OC101291REMMET085RJAW 170243Z 36014G25KT 7000 -SHRA BKN006 BKN010 20/19 Q1006 RMK 5ST006 7CU010 A2971;EQDQ01+000003PRSWM1Q02    003PRSWM1
0268479810999992000011702494+24780+141320FM-16+0116RJAW V0203601N006710018019N0049001N1+02001+01901999999ADDGA1021+001209999GA2071+001809999GA3071+003009999GF107991999999999999999999MA1100611999999MW1801OC101291REMMET102RJAW 170249Z 36013G25KT 4900 -SHRA BR FEW004 BKN006 BKN010 20/19 Q1006 RMK 2ST004 5ST006 7CU010 A2971;EQDQ01+000100PRSWM3Q02+000003PRSWM1Q03    003PRSWM1
0302479810999992000011703004+24780+141320FM-15+0116RJAW V0203601N006710018019N0045001N1+02001+01901999999ADDGA1021+001209999GA2071+001809999GA3071+003009999GF107991999999999999999999MA1100511999999MW1101MW2801REMMET154RJAW 0300Z 36013KT 4500 -SHRA BR SCT004 BKN006 BKN010 20/19 Q1005 RMK 3ST004 6ST006 7CU010 A2971 FCST 0315 BECMG 0304 9999 NSW FEW003ST SCT008ST BKN012CU;EQDQ01+000003PRSWM1Q02    003PRSWM1
0257479810999992000011703054+24780+141320FM-16+0116RJAW V0203601N006710018019N0050001N1+02001+01901999999ADDGA1021+001209999GA2071+001809999GA3071+003009999GF107991999999999999999999MA1100511999999MW1801REMMET099RJAW 170305Z 36013KT 5000 -SHRA BR FEW004 BKN006 BKN010 20/19 Q1005 RMK 2ST004 6ST006 7CU010 A2970;EQDQ01+000100PRSWM3Q02+000003PRSWM1Q03    003PRSWM1
0208479810999992000011703124+24780+141320FM-16+0116RJAW V0203601N007210030019N0112651N1+02001+01901999999ADDGA1021+001809999GA2071+003009999GF107991999999999999999999MA1100511999999MW1801REMMET082RJAW 170312Z 36014KT 9999 -SHRA SCT006 BKN010 20/19 Q1005 RMK 4ST006 7CU010 A2970;EQDQ01+000003PRSWM1Q02    003PRSWM1
0154479810999992000011704004+24780+141320FM-15+0116RJAW V0203601N007210030019N0112651N1+02101+01901999999ADDGA1071+003009999GF107991999999999999999999MA1100511999999MW1001REMMET060RJAW 0400Z 36014KT 9999 BKN010 21/19 Q1005 RMK 5CU010 A2968;EQDQ01+000000PRSWM2
0156479810999992000011704124+24780+141320FM-16+0116RJAW V0203601N006712200019N0112651N1+02101+01801999999ADDGA1021+003009999GF104991999999999999999999MA1100411999999MW1001REMMET062RJAW 170412Z 36013KT 9999 SCT010 21/18 Q1004 RMK 4CU010 A2967;EQDQ01+000000PRSWM2
0154479810999992000011705004+24780+141320FM-15+0116RJAW V0203601N005712200019N0112651N1+02201+01801999999ADDGA1021+003009999GF102991999999999999999999MA1100411999999MW1001REMMET060RJAW 0500Z 36011KT 9999 FEW010 22/18 Q1004 RMK 1CU010 A2967;EQDQ01+000000PRSWM2
0170479810999992000011706004+24780+141320FM-15+0116RJAW V0203301N006212200019N0112651N1+02201+01801999999ADDGA1021+003009999GF102991999999999999999999MA1100411999999MW1001REMMET076RJAW 0600Z 33012KT 9999 FEW010 22/18 Q1004 RMK 1CU010 A2967 FCST 0618 NOSIG;EQDQ01+000000PRSWM2
0154479810999992000011707004+24780+141320FM-15+0116RJAW V0203201N007212200019N0112651N1+02201+01601999999ADDGA1021+003009999GF102991999999999999999999MA1100511999999MW1001REMMET060RJAW 0700Z 32014KT 9999 FEW010 22/16 Q1005 RMK 1CU010 A2969;EQDQ01+000000PRSWM2
0184479810999992000011709004+24780+141320FM-15+0116RJAW V0203101N007212200019N0112651N1+02101+01601999999ADDGA1021+004509999GA2021+007509999GF104991999999999999999999MA1100711999999MW1001REMMET074RJAW 0900Z 31014KT 9999 FEW015 SCT025 21/16 Q1007 RMK 2CU015 3CU025 A2974;EQDQ01+000000PRSWM2
0184479810999992000011712004+24780+141320FM-15+0116RJAW V0203201N006710075019N0112651N1+02001+01701999999ADDGA1021+004509999GA2071+007509999GF107991999999999999999999MA1100811999999MW1001REMMET074RJAW 1200Z 32013KT 9999 FEW015 BKN025 20/17 Q1008 RMK 1CU015 6CU025 A2977;EQDQ01+000000PRSWM2
0184479810999992000011715004+24780+141320FM-15+0116RJAW V0203101N006210075019N0112651N1+02001+01701999999ADDGA1021+004509999GA2071+007509999GF107991999999999999999999MA1100711999999MW1001REMMET074RJAW 1500Z 31012KT 9999 FEW015 BKN025 20/17 Q1007 RMK 1CU015 5CU025 A2976;EQDQ01+000000PRSWM2
0154479810999992000011718004+24780+141320FM-15+0116RJAW V0203101N005712200019N0112651N1+02001+01601999999ADDGA1021+007509999GF104991999999999999999999MA1100711999999MW1001REMMET060RJAW 1800Z 31011KT 9999 SCT025 20/16 Q1007 RMK 3CU025 A2974;EQDQ01+000000PRSWM2
0154479810999992000011720004+24780+141320FM-15+0116RJAW V0203001N005712200019N0112651N1+01801+01501999999ADDGA1021+006009999GF102991999999999999999999MA1100711999999MW1001REMMET060RJAW 2000Z 30011KT 9999 FEW020 18/15 Q1007 RMK 2CU020 A2975;EQDQ01+000000PRSWM2
0184479810999992000011721004+24780+141320FM-15+0116RJAW V0203001N005112200019N0112651N1+02001+01601999999ADDGA1021+006009999GF104991999999999999999999MA1100811999999MW1001REMMET090RJAW 2100Z 30010KT 9999 SCT020 20/16 Q1008 RMK 4CU020 A2977 FCST 2109 TEMPO 0309 BKN020CU;EQDQ01+000000PRSWM2
0154479810999992000011722004+24780+141320FM-15+0116RJAW V0203101N005712200019N0112651N1+02001+01601999999ADDGA1021+006009999GF104991999999999999999999MA1100811999999MW1001REMMET060RJAW 2200Z 31011KT 9999 SCT020 20/16 Q1008 RMK 3CU020 A2979;EQDQ01+000000PRSWM2
0154479810999992000011723004+24780+141320FM-15+0116RJAW V0203101N005712200019N0112651N1+02101+01601999999ADDGA1021+006009999GF102991999999999999999999MA1100911999999MW1001REMMET060RJAW 2300Z 31011KT 9999 FEW020 21/16 Q1009 RMK 2CU020 A2980;EQDQ01+000000PRSWM2
0184479810999992000011800004+24780+141320FM-15+0116RJAW V0203101N006212200019N0112651N1+02201+01501999999ADDGA1021+006009999GF104991999999999999999999MA1100911999999MW1001REMMET090RJAW 0000Z 31012KT 9999 SCT020 22/15 Q1009 RMK 3CU020 A2982 FCST 0012 TEMPO 0309 BKN020CU;EQDQ01+000000PRSWM2
0154479810999992000011801004+24780+141320FM-15+0116RJAW V0203101N005712200019N0112651N1+02201+01501999999ADDGA1021+006009999GF104991999999999999999999MA1100911999999MW1001REMMET060RJAW 0100Z 31011KT 9999 SCT020 22/15 Q1009 RMK 4CU020 A2982;EQDQ01+000000PRSWM2
0156479810999992000011801504+24780+141320FM-15+0116RJAW V0203201N005710060019N0112651N1+02201+01601999999ADDGA1071+006009999GF107991999999999999999999MA1100911999999MW1001REMMET062RJAW 180150Z 32011KT 9999 BKN020 22/16 Q1009 RMK 5CU020 A2981;EQDQ01+000000PRSWM2
0154479810999992000011802004+24780+141320FM-15+0116RJAW V0203201N005110060019N0112651N1+02201+01601999999ADDGA1071+006009999GF107991999999999999999999MA1100911999999MW1001REMMET060RJAW 0200Z 32010KT 9999 BKN020 22/16 Q1009 RMK 5CU020 A2981;EQDQ01+000000PRSWM2
0156479810999992000011802454+24780+141320FM-15+0116RJAW V0203001N005712200019N0112651N1+02201+01501999999ADDGA1021+006009999GF104991999999999999999999MA1100811999999MW1001REMMET062RJAW 180245Z 30011KT 9999 SCT020 22/15 Q1008 RMK 4CU020 A2979;EQDQ01+000000PRSWM2
0184479810999992000011803004+24780+141320FM-15+0116RJAW V0203101N006212200019N0112651N1+02201+01501999999ADDGA1021+006009999GF104991999999999999999999MA1100811999999MW1001REMMET090RJAW 0300Z 31012KT 9999 SCT020 22/15 Q1008 RMK 3CU020 A2978 FCST 0315 TEMPO 0612 BKN020CU;EQDQ01+000000PRSWM2
0154479810999992000011804004+24780+141320FM-15+0116RJAW V0202901N006712200019N0112651N1+02201+01501999999ADDGA1021+006009999GF104991999999999999999999MA1100811999999MW1001REMMET060RJAW 0400Z 29013KT 9999 SCT020 22/15 Q1008 RMK 4CU020 A2978;EQDQ01+000000PRSWM2
0176479810999992000011804494+24780+141320FM-16+0116RJAW V0203001N00671220001CN0112651N1+02301+01501999999ADDGA1071+006009999GA2021+030009999MA1100711999999MW1001REMMET076RJAW 180449Z 30013KT 9999 BKN020 SCT100 23/15 Q1007 RMK 5CU020 3AC100 A2976;EQDQ01+000042SCOTCVQ02+000000PRSWM2
0174479810999992000011805004+24780+141320FM-15+0116RJAW V0203001N00671220001CN0112651N1+02201+01501999999ADDGA1071+006009999GA2021+030009999MA1100711999999MW1001REMMET074RJAW 0500Z 30013KT 9999 BKN020 SCT100 22/15 Q1007 RMK 5CU020 3AC100 A2976;EQDQ01+000042SCOTCVQ02+000000PRSWM2
0204479810999992000011806004+24780+141320FM-15+0116RJAW V0203101N007210060019N0112651N1+02201+01501999999ADDGA1071+006009999GF107991999999999999999999MA1100811999999MW1001REMMET110RJAW 0600Z 31014KT 9999 BKN020 22/15 Q1008 RMK 5CU020 A2977 FCST 0618 BECMG 0709 SCT020CU TEMPO 1218 BKN020CU;EQDQ01+000000PRSWM2
0156479810999992000011806304+24780+141320FM-15+0116RJAW V0203201N007712200019N0112651N1+02201+01501999999ADDGA1021+006009999GF104991999999999999999999MA1100811999999MW1001REMMET062RJAW 180630Z 32015KT 9999 SCT020 22/15 Q1008 RMK 4CU020 A2977;EQDQ01+000000PRSWM2
0154479810999992000011807004+24780+141320FM-15+0116RJAW V0203201N007212200019N0112651N1+02201+01401999999ADDGA1021+006009999GF104991999999999999999999MA1100811999999MW1001REMMET060RJAW 0700Z 32014KT 9999 SCT020 22/14 Q1008 RMK 3CU020 A2978;EQDQ01+000000PRSWM2
0154479810999992000011808004+24780+141320FM-15+0116RJAW V0203201N006212200019N0112651N1+02101+01401999999ADDGA1021+006009999GF104991999999999999999999MA1100811999999MW1001REMMET060RJAW 0800Z 32012KT 9999 SCT020 21/14 Q1008 RMK 3CU020 A2979;EQDQ01+000000PRSWM2
0154479810999992000011809004+24780+141320FM-15+0116RJAW V0203101N005112200019N0112651N1+02001+01401999999ADDGA1021+006009999GF102991999999999999999999MA1100911999999MW1001REMMET060RJAW 0900Z 31010KT 9999 FEW020 20/14 Q1009 RMK 2CU020 A2981;EQDQ01+000000PRSWM2
0154479810999992000011812004+24780+141320FM-15+0116RJAW V0203201N004112200019N0112651N1+02001+01401999999ADDGA1021+006009999GF102991999999999999999999MA1101021999999MW1001REMMET060RJAW 1200Z 32008KT 9999 FEW020 20/14 Q1010 RMK 2CU020 A2984;EQDQ01+000000PRSWM2
0184479810999992000011815004+24780+141320FM-15+0116RJAW V0202901N004110075019N0112651N1+02001+01401999999ADDGA1021+004509999GA2071+007509999GF107991999999999999999999MA1101081999999MW1001REMMET074RJAW 1500Z 29008KT 9999 FEW015 BKN025 20/14 Q1011 RMK 2CU015 7CU025 A2986;EQDQ01+000000PRSWM2
0158479810999992000011818004+24780+141320FM-15+0116RJAW V0202901N004112200019N0112651N1+02001+01301999999ADDGA1021+006009999GF102991999999999999999999MA1101021999999MW1001REMMET064RJAW 1800Z RTD 29008KT 9999 FEW020 20/13 Q1010 RMK 1CU020 A2983;EQDQ01+000000PRSWM2
0154479810999992000011820004+24780+141320FM-15+0116RJAW V0202701N004112200019N0112651N1+02001+01401999999ADDGA1021+006009999GF102991999999999999999999MA1101081999999MW1001REMMET060RJAW 2000Z 27008KT 9999 FEW020 20/14 Q1011 RMK 1CU020 A2986;EQDQ01+000000PRSWM2
0204479810999992000011821004+24780+141320FM-15+0116RJAW V0202701N004112200019N0112651N1+01901+01401999999ADDGA1021+006009999GF102991999999999999999999MA1101081999999MW1001REMMET110RJAW 2100Z 27008KT 9999 FEW020 19/14 Q1011 RMK 2CU020 A2987 FCST 2109 TEMPO 2103 BKN020CU TEMPO 0309 BKN020CU;EQDQ01+000000PRSWM2
0154479810999992000011822004+24780+141320FM-15+0116RJAW V0202601N003612200019N0112651N1+01901+01401999999ADDGA1021+007509999GF104991999999999999999999MA1101191999999MW1001REMMET060RJAW 2200Z 26007KT 9999 SCT025 19/14 Q1012 RMK 4CU025 A2989;EQDQ01+000000PRSWM2
0154479810999992000011823004+24780+141320FM-15+0116RJAW V0202701N004112200019N0112651N1+02001+01501999999ADDGA1021+007509999GF104991999999999999999999MA1101191999999MW1001REMMET060RJAW 2300Z 27008KT 9999 SCT025 20/15 Q1012 RMK 3CU025 A2991;EQDQ01+000000PRSWM2
0184479810999992000011901004+24780+141320FM-15+0116RJAW V0202601N007712200019N0112651N1+02201+01501999999ADDGA1021+006009999GA2021+030009999GF104991999999999999999999MA1101291999999MW1001REMMET074RJAW 0100Z 26015KT 9999 SCT020 SCT100 22/15 Q1013 RMK 4CU020 3AC100 A2992;EQDQ01+000000PRSWM2
0186479810999992000011901394+24780+141320FM-16+0116RJAW V0202501N008710075019N0112651N1+02301+01501999999ADDGA1021+004509999GA2071+007509999GF107991999999999999999999MA1101191999999MW1001REMMET076RJAW 190139Z 25017KT 9999 FEW015 BKN025 23/15 Q1012 RMK 1CU015 5CU025 A2991;EQDQ01+000000PRSWM2
