0152480010999992000010206004+27330+097420FM-12+0409VBPT V0202301N000512200019N0100001N1+01401+01071101721ADDAA106000091GF101991011011004501001001MD1999999+0211REMSYN070AAXX  02064 48001 32460 12301 10140 20107 40172 81100 333 56900 58021;EQDQ01  00002PRCP06
0196480010999992000010403004+27330+097420FM-12+0409VBPT V0209999C000010001519N0001001N1+00501+00501101841ADDAA106000091AY141031AY241031GA1091+999999999GF109991091999999999999999MD1999999-0141MW1451REMSYN076AAXX  04034 48001 31/01 90000 10050 20050 40184 74544 89/// 333 56999 59014;EQDQ01  00002PRCP06
0146480010999992000010409004+27330+097420FM-12+0409VBPT V0201301N000512200019N0100001N1+00881+00561101201ADDAA106000091GF101991999999004501999999MD1999999-0121REMSYN064AAXX  04094 48001 32460 11301 10088 20056 40120 333 56900 59012;EQDQ01  00002PRCP06
0196480010999992000010503004+27330+097420FM-12+0409VBPT V0202301N000510003019N0002001N1+00501+00501102011ADDAA106000091AY141031AY241031GA1091+999999999GF109991091999999999999999MD1999999+0171MW1451REMSYN076AAXX  05034 48001 31/02 92301 10050 20050 40201 74544 89/// 333 56999 58017;EQDQ01  00002PRCP06
0152480010999992000010506004+27330+097420FM-12+0409VBPT V0202301N000512200019N0100001N1+01381+00861101651ADDAA106000091GF101991011011004501001001MD1999999+0001REMSYN070AAXX  05064 48001 32460 12301 10138 20086 40165 81100 333 56900 58000;EQDQ01  00002PRCP06
0152480010999992000010606004+27330+097420FM-12+0409VBPT V0201301N000512200019N0100001N1+01361+00861100581ADDAA106000091GF104991011011008001071001MD1999999-0071REMSYN070AAXX  06064 48001 32560 41301 10136 20086 40058 81170 333 56960 59007;EQDQ01  00002PRCP06
0152480010999992000010609004+27330+097420FM-12+0409VBPT V0200401N000510900019N0100001N1+01941+00471101221ADDAA106000091GF105991011011008001071041MD1999999+0001REMSYN070AAXX  06094 48001 32560 50401 10194 20047 40122 81174 333 56921 58000;EQDQ01  00002PRCP06
0171480010999992000010612004+27330+097420FM-12+0409VBPT V0202301N000512200019N0050001N1+01301+01131101371ADDAA106000091GF104991011041008001051041KA1120M+02001MD1999999-0241REMSYN076AAXX  06124 48001 32550 42301 10130 20113 40137 81454 333 10200 56229 59024;EQDQ01  00002PRCP06
0180480010999992000010703004+27330+097420FM-12+0409VBPT V0203401N000510042019N0040001N1+00701+00701101851ADDAA106000091AY141031AY241031GF108991061091004501071999MD1999999-0031MW1401REMSYN076AAXX  07034 48001 31440 83401 10070 20070 40185 74044 8697/ 333 56229 59003;EQDQ01  00002PRCP06
0152480010999992000010706004+27330+097420FM-12+0409VBPT V0203201N000512200019N0100001N1+01341+00861101521ADDAA106000091GF101991011011004501001001MD1999999-0051REMSYN070AAXX  07064 48001 32460 13201 10134 20086 40152 81100 333 56900 59005;EQDQ01  00002PRCP06
0196480010999992000010803004+27330+097420FM-12+0409VBPT V0201301N000510003019N0004001N1+00701+00461101061ADDAA106000091AY141031AY241031GA1091+999999999GF109991091999999999999999MD1999999+0111MW1451REMSYN076AAXX  08034 48001 31/04 91301 10070 20046 40106 74544 89/// 333 56999 58011;EQDQ01  00002PRCP06
0180480010999992000011003004+27330+097420FM-12+0409VBPT V0200401N000510042019N0050001N1+01041+01001101641ADDAA106000091AY141031AY241031GF108991051091004501071999MD1999999+0081MW1411REMSYN076AAXX  10034 48001 31450 80401 10104 20100 40164 74144 8597/ 333 56229 58008;EQDQ01  00002PRCP06
0180480010999992000011103004+27330+097420FM-12+0409VBPT V0209999C000010042019N0030001N1+01161+01121101871ADDAA106000091AY141031AY241031GF108991051091004501071999MD1999999+0241MW1421REMSYN076AAXX  11034 48001 31430 80000 10116 20112 40187 74244 8597/ 333 56229 58024;EQDQ01  00002PRCP06
0180480010999992000011203004+27330+097420FM-12+0409VBPT V0203401N000510021019N0050001N1+01101+00951101701ADDAA106000091AY141031AY241031GF108991051091002501071999MD1999999-0181MW1421REMSYN076AAXX  12034 48001 31350 83401 10110 20095 40170 74244 8597/ 333 56229 59018;EQDQ01  00002PRCP06
0180480010999992000011206004+27330+097420FM-12+0409VBPT V0201301N000510360019N0080001N1+01801+01081101361ADDAA106000091AY121061AY221061GF107991021081004501071001MD1999999-0181MW1051REMSYN076AAXX  12064 48001 31458 71301 10180 20108 40136 70522 82870 333 56220 59018;EQDQ01  00002PRCP06
0180480010999992000011209004+27330+097420FM-12+0409VBPT V0202301N001012200019N0080001N1+02201+01361101111ADDAA106000091AY121031AY221031GF104991021081004501071001MD1999999-0211MW1051REMSYN076AAXX  12094 48001 31458 42302 10220 20136 40111 70522 82870 333 56240 59021;EQDQ01  00002PRCP06
0196480010999992000011303004+27330+097420FM-12+0409VBPT V0202301N000510001519N0000001N1+01101+00951101561ADDAA106000091AY141031AY241031GA1091+999999999GF109991091999999999999999MD1999999-0121MW1471REMSYN076AAXX  13034 48001 31/00 92301 10110 20095 40156 74744 89/// 333 56999 59012;EQDQ01  00002PRCP06
0180480010999992000011306004+27330+097420FM-12+0409VBPT V0200401N000510360019N0070001N1+01621+01231101361ADDAA106000091AY141061AY241061GF107991031081002501071001MD1999999+0011MW1051REMSYN076AAXX  13064 48001 31357 70401 10162 20123 40136 70544 83870 333 56100 58001;EQDQ01  00002PRCP06
0188480010999992000011312004+27330+097420FM-12+0409VBPT V0200401N001012200019N0050001N1+01501+01501101191ADDAY151061AY251061GF103991999091002501071999KA1120M+01851MD1999999+0091MW1501REMSYN082AAXX  13124 48001 21350 30402 10150 20150 40119 75055 8597/ 333 10185 56//9 58009;EQDQ01+000052SCOTLC
0184480010999992000011603004+27330+097420FM-12+040999999V0201801N000510360019N0040001N1+01301+01261101791ADDAA199000091AY141031AY241031GF107991031081002501031001MD1999999+0221MW1411REMSYN080    AAXX  16034 48001 31340 71801 10130 20126 40179 74144 83830 333 56330 58022;EQDQ01  00002PRCP99
0175480010999992000011712004+27330+097420FM-12+040999999V0201401N000510360019N0080001N1+01701+01341101371ADDAA199000091GF105991031091004501061001KA1120M+02261MD1999999-0021REMSYN080    AAXX  17124 48001 32458 51401 10170 20134 40137 83960 333 10226 56990 59002;EQDQ01  00002PRCP99
0184480010999992000011809004+27330+097420FM-12+040999999V0201801N000510360019N0070001N1+02101+00911101121ADDAA199000091AY121031AY221031GF107991041081002501071001MD1999999+0091MW1051REMSYN080    AAXX  18094 48001 31357 71801 10210 20091 40112 70522 84870 333 56220 58009;EQDQ01  00002PRCP99
0200480010999992000011903004+27330+097420FM-12+040999999V0201601N000510003019N0002001N1+01001+01001101721ADDAA199000091AY141031AY241031GA1091+999999999GF109991091999999999999999MD1999999-0071MW1421REMSYN080    AAXX  19034 48001 31/02 91601 10100 20100 40172 74244 89/// 333 56999 59007;EQDQ01  00002PRCP99
0169480010999992000012003004+27330+097420FM-12+0409VBPT V0201301N025712200019N0050001N1+01401+01251101131ADDAY151031AY251031GF102991999091002501071999MD1999999-0591MW1501REMSYN076AAXX  20034 48001 21350 21350 10140 20125 40113 75055 8597/ 333 56559 59059;EQDQ01+000052SCOTLC
0161480010999992000012006004+27330+097420FM-12+0409VBPT V0201301N000510021019N0060001N1+01401+01241101091ADDAA199000021AY151061AY251061GF108991051091002501071999MD1999999-0331MW1521REMSYN076AAXX  20064 48001 31356 81301 10140 20124 40109 75255 8597/ 333 5611/ 59033;
0152480010999992000012009004+27330+097420FM-12+0409VBPT V0201301N000519999999N0070001N1+01541+01111100821ADDAA199000021GF108991999061002501001001MD1999999+0131REMSYN070AAXX  20094 48001 31357 81301 10154 20111 40082 83600 333 56119 58013;EQDQ01+000032SCOTLC
0169480010999992000012012004+27330+097420FM-12+0409VBPT V0201401N000510021019N0040001N1+01501+01351101071ADDAY151061AY251061GF108991051091002501071999KA1120M+01561MD1999999-0201MW1501REMSYN082AAXX  20124 48001 21340 81401 10150 20135 40107 75055 8597/ 333 10156 56119 59020;
0180480010999992000012203004+27330+097420FM-12+0409VBPT V0202301N000510060019N0040001N1+01321+01131101901ADDAA199000091AY141031AY241031GF107991051081002501071001MD1999999+0231MW1411REMSYN076AAXX  22034 48001 31340 72301 10132 20113 40190 74144 85870 333 56880 58023;EQDQ01  00002PRCP99
0180480010999992000012206004+27330+097420FM-12+0409VBPT V0201301N000512200019N0080001N1+01801+01081101641ADDAA199000091AY101061AY201061GF104991021081002501071001MD1999999+0391MW1051REMSYN076AAXX  22064 48001 31358 41301 10180 20108 40164 70500 82870 333 56880 58039;EQDQ01  00002PRCP99
0199480010999992000012212004+27330+097420FM-12+0409VBPT V0202301N000510021019N0040001N1+01701+01171101451ADDAA199000091AY121061AY221061GF107991051091002501071001KA1120M+02061MD1999999+0201MW1101REMSYN082AAXX  22124 48001 31340 72301 10170 20117 40145 71022 85970 333 10206 56880 58020;EQDQ01  00002PRCP99
0150480010999992000012303004+27330+097420FM-12+0409VBPT V0202301N000510021019N0040001N1+01301+01301101831ADDAY151031AY251031GF108991051091002501071999MD1999999-0071MW1501REMSYN076AAXX  23034 48001 21340 82301 10130 20130 40183 75055 8597/ 333 56889 59007;
0161480010999992000012306004+27330+097420FM-12+0409VBPT V0201301N000510021019N0040001N1+01501+01111101691ADDAA199000021AY151061AY251061GF108991051091002501071999MD1999999+0051MW1501REMSYN076AAXX  23064 48001 31340 81301 10150 20111 40169 75055 8597/ 333 56889 58005;
0152480010999992000012403004+27330+097420FM-12+0409VBPT V0202301N000510021019N0050001N1+01301+01131102031ADDAA199000091GF107991051091002501071999MD1999999+0201REMSYN070AAXX  24034 48001 31350 72301 10130 20113 40203 8597/ 333 56889 58020;EQDQ01  00002PRCP99
0161480010999992000012406004+27330+097420FM-12+0409VBPT V0201301N001510021019N0070001N1+01441+01241102001ADDAA199000021AY151061AY251061GF108991051091002501071999MD1999999+0311MW1501REMSYN076AAXX  24064 48001 31357 81303 10144 20124 40200 75055 8597/ 333 56889 58031;
0152480010999992000012412004+27330+097420FM-12+0409VBPT V0201801N000510360019N0050001N1+01501+01341101751ADDAA199000021GF108991031091002501051001KA1120M+01801MD1999999+0141REMSYN076AAXX  24124 48001 31350 81801 10150 20134 40175 83950 333 10180 56880 58014;
0196480010999992000012603004+27330+097420FM-12+0409VBPT V0200901N000510003019N0002001N1+00901+00901102191ADDAA199000091AY141031AY241031GA1091+999999999GF109991091999999999999999MD1999999-0021MW1401REMSYN076AAXX  26034 48001 31/02 90901 10090 20090 40219 74044 89/// 333 56999 59002;EQDQ01  00002PRCP99
0196480010999992000012703004+27330+097420FM-12+0409VBPT V0209999C000010003019N0002001N1+00901+00901101961ADDAA199000091AY141031AY241031GA1091+999999999GF109991091999999999999999MD1999999-0221MW1431REMSYN076AAXX  27034 48001 31/02 90000 10090 20090 40196 74344 89/// 333 56999 59022;EQDQ01  00002PRCP99
0152480010999992000012706004+27330+097420FM-12+0409VBPT V0202301N000512200019N0100001N1+01701+00971101541ADDAA199000091GF101991011011004501001001MD1999999-0371REMSYN070AAXX  27064 48001 32460 12301 10170 20097 40154 81100 333 56900 59037;EQDQ01  00002PRCP99
0150480010999992000012803004+27330+097420FM-12+0409VBPT V0202301N000510360019N0050001N1+01201+01051101931ADDAY151031AY251031GF107991041091002501071001MD1999999+0141MW1501REMSYN076AAXX  28034 48001 21350 72301 10120 20105 40193 75055 84970 333 56889 58014;
0143480010999992000012906004+27330+097420FM-12+0409VBPT V0201301N001019999999N0070001N1+01461+01071999999ADDAA199000091GF108991999999004501999999REMSYN075AAXX  29064 48001 31457 81302 10146 20107 4015 70522 8597/ 333 56229 58028;EQDQ01  00002PRCP99
0150480010999992000013003004+27330+097420FM-12+0409VBPT V0201401N000510021019N0040001N1+01101+01101101941ADDAY161031AY251031GF108991051091002501071999MD1999999-0031MW1511REMSYN076AAXX  30034 48001 21340 81401 10110 20110 40194 75165 8597/ 333 56889 59003;
0161480010999992000013006004+27330+097420FM-12+0409VBPT V0201301N000510021019N0040001N1+01201+01021101881ADDAA199000021AY161061AY261061GF108991051091002501071999MD1999999+0081MW1511REMSYN076AAXX  30064 48001 31340 81301 10120 20102 40188 75166 8597/ 333 56889 58008;
0171480010999992000013112004+27330+097420FM-12+0409VBPT V0201401N000512200019N0050001N1+01501+00921101821ADDAA199000091GF103991021051004501051001KA1120M+02151MD1999999+0171REMSYN076AAXX  31124 48001 32450 31401 10150 20092 40182 82550 333 10215 56220 58017;EQDQ01  00002PRCP99
0169480010999992000020103004+27330+097420FM-12+0409VBPT V0202701N000519999999N0040001N1+00701+00701102201ADDAY141031AY241031GF108991999071002501999999MD1999999-0171MW1611REMSYN076AAXX  01034 48001 21340 82701 10070 20070 40220 76144 897// 333 56229 59017;EQDQ01+000092SCOTLC
0161480010999992000020106004+27330+097420FM-12+0409VBPT V0201301N000510021019N0080001N1+01341+01131102011ADDAA199000021AY161061AY261061GF108991051091002501071999MD1999999-0041MW1211REMSYN076AAXX  01064 48001 31358 81301 10134 20113 40201 72166 8597/ 333 56119 59004;
0150480010999992000020303004+27330+097420FM-12+0409VBPT V0202301N000510021019N0050001N1+02101+01101102031ADDAY161031AY251031GF108991051091002501071999MD1999999-0111MW1511REMSYN076AAXX  03034 48001 21350 82301 10210 20110 40203 75165 8597/ 333 56229 59011;
0161480010999992000020306004+27330+097420FM-12+0409VBPT V0201301N000510360019N0080001N1+01401+01241101861ADDAA199000021AY161061AY261061GF107991041091002501071001MD1999999+0031MW1011REMSYN076AAXX  03064 48001 31358 71301 10140 20124 40186 70166 84970 333 56220 58003;
0196480010999992000020403004+27330+097420FM-12+0409VBPT V0201301N000510001519N0001001N1+01001+01001101901ADDAA199000091AY141031AY241031GA1091+999999999GF109991091999999999999999MD1999999-0131MW1451REMSYN076AAXX  04034 48001 31/01 91301 10100 20100 40190 74544 89/// 333 56999 59013;EQDQ01  00002PRCP99
0152480010999992000020406004+27330+097420FM-12+0409VBPT V0201401N000510360019N0070001N1+01501+01111101731ADDAA199000091GF106991031081002501071001MD1999999-0121REMSYN070AAXX  04064 48001 32357 61401 10150 20111 40173 83870 333 56220 59012;EQDQ01  00002PRCP99
0152480010999992000020409004+27330+097420FM-12+0409VBPT V0201401N000510360019N0080001N1+01901+01181101371ADDAA199000091GF105991031081004501051001MD1999999-0301REMSYN070AAXX  04094 48001 31458 51401 10190 20118 40137 83850 333 56220 59030;EQDQ01  00002PRCP99
0171480010999992000020412004+27330+097420FM-12+0409VBPT V0201401N000510360019N0060001N1+01701+01351101361ADDAA199000091GF107991041091002501071001KA1120M+02001MD1999999+0401REMSYN076AAXX  04124 48001 32356 71401 10170 20135 40136 84970 333 10200 56220 58040;EQDQ01  00002PRCP99
0152480010999992000020503004+27330+097420FM-12+0409VBPT V0201301N000510021019N0050001N1+01301+01131101881ADDAA199000091GF108991051091002501071999MD1999999-0011REMSYN070AAXX  05034 48001 32350 81301 10130 20113 40188 8597/ 333 56229 59001;EQDQ01  00002PRCP99
0152480010999992000020506004+27330+097420FM-12+0409VBPT V0201301N000510360019N0080001N1+01841+01231101551ADDAA199000091GF108991041091002501071999MD1999999-0021REMSYN070AAXX  05064 48001 32358 81301 10184 20123 40155 8497/ 333 56299 59002;EQDQ01  00002PRCP99
0122480010999992000020603004+27330+097420FM-12+0409VBPT V0200901N000510021019N0050001N1+01201+01201101771ADDGF108991051091002501071999MD1999999-0101REMSYN070AAXX  06034 48001 22350 80901 10120 20120 40177 8597/ 333 56229 59010;
0180480010999992000020606004+27330+097420FM-12+0409VBPT V0201301N000510075019N0200001N1+01441+01071101461ADDAA199000091AY141061AY241061GF108991051091008001071999MD1999999-0491MW1051REMSYN076AAXX  06064 48001 32570 81301 10144 20107 40146 70544 8597/ 333 56229 59049;EQDQ01  00002PRCP99
0180480010999992000020703004+27330+097420FM-12+0409VBPT V0201401N000510360019N0040001N1+01401+01251101681ADDAA199000091AY141031AY241031GF106991031051004501071001MD1999999+0081MW1401REMSYN076AAXX  07034 48001 32440 61401 10140 20125 40168 74044 83570 333 56220 58008;EQDQ01  00002PRCP99
0180480010999992000020706004+27330+097420FM-12+0409VBPT V0203201N000510360019N0070001N1+01781+01351101401ADDAA199000091AY121061AY221061GF105991031081004501071001MD1999999-0061MW1051REMSYN076AAXX  07064 48001 31457 53201 10178 20135 40140 70522 83870 333 56220 59006;EQDQ01  00002PRCP99
0196480010999992000020709004+27330+097420FM-12+0409VBPT V0209999C000012200019N0070001N1+02081+01091101071ADDAA199000091AY121031AY221031GF103991999081004501001001MD1999999-0261MW1051REMSYN076AAXX  07094 48001 31457 30000 10208 20109 40107 70522 84800 333 56220 59026;EQDQ01+000042SCOTLCQ02  00002PRCP99
0141480010999992000020803004+27330+097420FM-12+0409VBPT V0203201N000519999999N0050001N1+01501+01351101621ADDGF106991999081002501001001MD1999999-0161REMSYN070AAXX  08034 48001 22350 63201 10150 20135 40162 84800 333 56220 59016;EQDQ01+000042SCOTLC
0152480010999992000020806004+27330+097420FM-12+0409VBPT V0202301N000510360019N0080001N1+01901+01391101301ADDAA199000091GF105991041091004501071001MD1999999-0101REMSYN070AAXX  08064 48001 32458 52301 10190 20139 40130 84970 333 56440 59010;EQDQ01  00002PRCP99
0171480010999992000020812004+27330+097420FM-12+0409VBPT V0200401N000510360019N0050001N1+01801+01571101181ADDAA199000091GF107991041091004501071001KA1120M+02261MD1999999-0021REMSYN076AAXX  08124 48001 32450 70401 10180 20157 40118 84970 333 10226 56110 59002;EQDQ01  00002PRCP99
0180480010999992000020900004+27330+097420FM-12+0409VBPT V0209999C000010021019N0060001N1+01301+01151101501ADDAA199000091AY121061AY221061GF108991051091002501071999MD1999999+0031MW1101REMSYN076AAXX  09004 48001 31356 80000 10130 20115 40150 71022 8597/ 333 56119 58003;EQDQ01  00002PRCP99
0154480010999992000020912004+27330+097420FM-12+0409VBPT V0209999C000010021019N0050001N1+01701+01351101091ADDAY151061AY251061GF107991051091002501071999KA1120M+02261MW1501REMSYN081AAXX  09124 48001 21350 70000 10170 20135 40109 75055 8597/ 333 10226 56110 5909;
0152480010999992000021006004+27330+097420FM-12+0409VBPT V0200901N000512200019N0100001N1+02001+01091101351ADDAA199000091GF103991021081004501051001MD1999999-0091REMSYN070AAXX  10064 48001 32460 30901 10200 20109 40135 82850 333 56220 59009;EQDQ01  00002PRCP99
0152480010999992000021009004+27330+097420FM-12+0409VBPT V0203401N000510360019N0100001N1+02201+01111101121ADDAA199000091GF105991031091004501051001MD1999999+0071REMSYN070AAXX  10094 48001 32460 53401 10220 20111 40112 83950 333 56110 58007;EQDQ01  00002PRCP99
0180480010999992000021203004+27330+097420FM-12+0409VBPT V0209999C000012200019N0050001N1+01001+01001101021ADDAA199000091AY141031AY241031GF102991021061004501001001MD1999999+0151MW1401REMSYN076AAXX  12034 48001 31450 20000 10100 20100 40102 74044 82600 333 56900 58015;EQDQ01  00002PRCP99
0184480010999992000021303004+27330+097420FM-12+0409VBPT V0202301N000510003019N0003001N1+01001+01001101641ADDAA199000091AY141031AY241031GA1091+999999999GF109991091999999999999999MD1999999-0191MW1431REMSYN064AAXX  13034 48001 31/03 92301 10100 20100 40164 74344 333 59019;EQDQ01  00002PRCP99
0152480010999992000021306004+27330+097420FM-12+0409VBPT V0201401N000512200019N0100001N1+01801+01081101321ADDAA199000091GF102991021081004501001001MD1999999-0181REMSYN070AAXX  13064 48001 32460 21401 10180 20108 40132 82800 333 56900 59018;EQDQ01  00002PRCP99
0171480010999992000021312004+27330+097420FM-12+0409VBPT V0201401N000510360019N0060001N1+01901+01391101071ADDAA199000091GF105991031091004501051001KA1120M+02441MD1999999-0031REMSYN076AAXX  13124 48001 32456 51401 10190 20139 40107 83950 333 10244 56990 59003;EQDQ01  00002PRCP99
0152480010999992000021403004+27330+097420FM-12+0409VBPT V0202301N000512200019N0060001N1+01301+01131101661ADDAA199000091GF101991011041004501001001MD1999999+0021REMSYN070AAXX  14034 48001 32456 12301 10130 20113 40166 81400 333 56900 58002;EQDQ01  00002PRCP99
0180480010999992000021506004+27330+097420FM-12+0409VBPT V0200401N001012200019N0080001N1+02201+01111101191ADDAA199000091AY111061AY211061GF102991021081004501001001MD1999999-0141MW1051REMSYN076AAXX  15064 48001 31458 20402 10220 20111 40119 70511 82800 333 56200 59014;EQDQ01  00002PRCP99
0180480010999992000021509004+27330+097420FM-12+0409VBPT V0200901N001012200019N0080001N1+02601+01381100801ADDAA199000091AY121031AY221031GF104991031091004501051001MD1999999-0221MW1051REMSYN076AAXX  15094 48001 31458 40902 10260 20138 40080 70522 83950 333 56200 59022;EQDQ01  00002PRCP99
0199480010999992000021512004+27330+097420FM-12+0409VBPT V0201401N000510360019N0100001N1+02001+01501100951ADDAA199000091AY191061AY291061GF105991021091004501051001KA1120M+02631MD1999999-0171MW1171REMSYN082AAXX  15124 48001 31460 51401 10200 20150 40095 71799 82950 333 10263 56110 59017;EQDQ01  00002PRCP99
0166480010999992000021603004+27330+097420FM-12+0409VBPT V0201401N000512200019N0004001N1+01201+01201101671ADDAA199000091AY141031AY241031GF101991011041000251001001MW1401REMSYN076AAXX  16034 48001 31004 11401 10120 20120 40167 74044 81400 333 96/00 98013;EQDQ01  00002PRCP99
0180480010999992000021806004+27330+097420FM-12+0409VBPT V0202301N000510042019N0070001N1+01901+01301101201ADDAA199000091AY121061AY221061GF108991051091004501071001MD1999999-0161MW1051REMSYN076AAXX  18064 48001 31457 82301 10190 20130 40120 70522 85970 333 56459 59016;EQDQ01  00002PRCP99
0152480010999992000021809004+27330+097420FM-12+0409VBPT V0209999C000010360019N0080001N1+02381+01361101011ADDAA199000091GF108991041091008001071999MD1999999+0231REMSYN070AAXX  18094 48001 32558 80000 10238 20136 40101 8497/ 333 56459 58023;EQDQ01  00002PRCP99
0196480010999992000021903004+27330+097420FM-12+0409VBPT V0202701N000510003019N0002001N1+01101+01101101431ADDAA199000091AY141031AY241031GA1091+999999999GF109991091999999999999999MD1999999+0131MW1431REMSYN076AAXX  19034 48001 31/02 92701 10110 20110 40143 74344 89/// 333 56999 58013;EQDQ01  00002PRCP99
0180480010999992000022003004+27330+097420FM-12+0409VBPT V0202301N000512200019N0080001N1+01401+01251101381ADDAA199000091AY191031AY291031GF102991011041004501051001MD1999999-0031MW1101REMSYN076AAXX  20034 48001 31458 22301 10140 20125 40138 71099 81450 333 56550 59003;EQDQ01  00002PRCP99
0180480010999992000022006004+27330+097420FM-12+0409VBPT V0202301N000512200019N0100001N1+02101+00721101091ADDAA199000091AY111061AY211061GF102991021021004501001001MD1999999-0201MW1051REMSYN076AAXX  20064 48001 31460 22301 10210 20072 40109 70511 82200 333 56900 59020;EQDQ01  00002PRCP99
0180480010999992000022103004+27330+097420FM-12+0409VBPT V0202301N000512200019N0100001N1+01401+01151101581ADDAA199000091AY111031AY211031GF102991021041008001001001MD1999999+0191MW1101REMSYN076AAXX  21034 48001 32560 22301 10140 20115 40158 71011 82400 333 56900 58019;EQDQ01  00002PRCP99
0180480010999992000022203004+27330+097420FM-12+0409VBPT V0202301N000512200019N0080001N1+01401+01071101561ADDAA199000091AY111031AY211031GF101991011041004501001001MD1999999+0011MW1101REMSYN076AAXX  22034 48001 31458 12301 10140 20107 40156 71011 81400 333 56900 58001;EQDQ01  00002PRCP99
0174480010999992000022206004+27330+097420FM-12+0409VBPT V0202301N000512200019N0080001N1+01401+01071101561ADDAA199000091AY111061AY211061GF101991011041004501001001MD1999999+0011MW1101REMSYN070AAXX  22064 48001 31458 12301 10140 20107 40156 71011 81400 333 58001;EQDQ01  00002PRCP99
0180480010999992000022303004+27330+097420FM-12+0409VBPT V0202301N000512200019N0060001N1+01101+00011101641ADDAA199000091AY111031AY211031GF101991011041004501001001MD1999999+0051MW1101REMSYN076AAXX  23034 48001 31456 12301 10110 20001 40164 71011 81400 333 56920 58005;EQDQ01  00002PRCP99
0196480010999992000022403004+27330+097420FM-12+0409VBPT V0202301N000510024019N0030001N1+01021+00951101231ADDAA199000091AY141031AY241031GA1091+999999999GF109991091999999999999999MD1999999-0031MW1161REMSYN076AAXX  24034 48001 32530 92301 10102 20095 40123 71644 89/// 333 56990 59003;EQDQ01  00002PRCP99
0180480010999992000022409004+27330+097420FM-12+0409VBPT V0201401N000512200019N0100001N1+02501+99999100941ADDAA199000091AY111031AY211031GF102991021021008001001001MD1999999-0031MW1051REMSYN076AAXX  24094 48001 31560 21401 10250 20268 40094 70511 82200 333 56900 59003;EQDQ01  00002PRCP99
0180480010999992000022503004+27330+097420FM-12+0409VBPT V0202301N000510360019N0100001N1+01401+01241101611ADDAA199000091AY121031AY221031GF105991021051004501051001MD1999999-0101MW1101REMSYN076AAXX  25034 48001 32460 52301 10140 20124 40161 71022 82550 333 56660 59010;EQDQ01  00002PRCP99
0180480010999992000022603004+27330+097420FM-12+0409VBPT V0200901N000512200019N0080001N1+01301+01131101351ADDAA199000091AY111031AY211031GF103991031051004501031001MD1999999-0161MW1101REMSYN076AAXX  26034 48001 31458 30901 10130 20113 40135 71011 83530 333 56660 59016;EQDQ01  00002PRCP99
0188480010999992000022612004+27330+097420FM-12+0409VBPT V0201801N046820021019N0050001N1+01601+01251100971ADDAY151061AY251061GF105991051091002501071999KA1120M+02001MD1999999+0021MW1511REMSYN082AAXX  26124 48001 21350 51891 10160 20125 40097 75155 8597/ 333 10200 56559 58002;EQDQ01+004683WOSPD 
0122480010999992000022703004+27330+097420FM-12+0409VBPT V0201401N000510360019N0060001N1+01501+01501101331ADDGF106991031011004501071001MD1999999-0021REMSYN070AAXX  27034 48001 22456 61401 10150 20150 40133 83170 333 56550 59002;
0152480010999992000022706004+27330+097420FM-12+0409VBPT V0201401N000510360019N0050001N1+01801+01471101211ADDAA199000091GF105991031081004501061001MD1999999-0011REMSYN070AAXX  27064 48001 32450 51401 10180 20147 40121 83860 333 56550 59001;EQDQ01  00002PRCP99
0180480010999992000022806004+27330+097420FM-12+0409VBPT V0200901N000512200019N0070001N1+01801+01291101481ADDAA199000091AY111061AY211061GF103991021081008001051001MD1999999+0271MW1051REMSYN076AAXX  28064 48001 31557 30901 10180 20129 40148 70511 82850 333 56550 58027;EQDQ01  00002PRCP99
0180480010999992000022903004+27330+097420FM-12+0409VBPT V0202301N000512200019N0100001N1+01001+01001101831ADDAA199000091AY111031AY211031GF102991021061004501001001MD1999999+0101MW1101REMSYN076AAXX  29034 48001 31460 22301 10100 20100 40183 71011 82600 333 56900 58010;EQDQ01  00002PRCP99
0180480010999992000022906004+27330+097420FM-12+0409VBPT V0202301N000512200019N0100001N1+01901+01181101401ADDAA199000091AY111061AY211061GF102991021021004501001001MD1999999-0081MW1051REMSYN076AAXX  29064 48001 31460 22301 10190 20118 40140 70511 82200 333 56900 59008;EQDQ01  00002PRCP99
0180480010999992000030103004+27330+097420FM-12+0409VBPT V0201401N000510360019N0080001N1+01001+00921101411ADDAA199000091AY111031AY211031GF105991021051004501051001MD1999999-0411MW1101REMSYN076AAXX  01034 48001 31458 51401 10100 20092 40141 71011 82550 333 56660 59041;EQDQ01  00002PRCP99
0150480010999992000030203004+27330+097420FM-12+0409VBPT V0201801N000510021019N0060001N1+01401+01401101581ADDAY151031AY251031GF108991051091002501071999MD1999999+0171MW1511REMSYN076AAXX  02034 48001 21356 81801 10140 20140 40158 75155 8597/ 333 56389 58017;
0150480010999992000030206004+27330+097420FM-12+0409VBPT V0202301N000510021019N0060001N1+01501+01501101481ADDAY151061AY251061GF108991051091002501071999MD1999999+0271MW1511REMSYN076AAXX  02064 48001 21356 82301 10150 20150 40148 75155 8597/ 333 56669 58027;
0169480010999992000030303004+27330+097420FM-12+0409VBPT V0201401N000519999999N0100001N1+01301+01301101561ADDAY151031AY251031GF108991999999002501999999MD1999999+0121MW1511REMSYN076AAXX  03034 48001 21360 81401 10130 20130 40156 75155 89/// 333 56669 58012;EQDQ01+000092SCOTLC
0133480010999992000030306004+27330+097420FM-12+0409VBPT V0202301N000510360019N0060001N1+01601+01231101471ADDAA199000021GF107991041081004501071001MD1999999+0031REMSYN070AAXX  03064 48001 32456 72301 10160 20123 40147 84870 333 56660 58003;
0169480010999992000030400004+27330+097420FM-12+0409VBPT V0202301N000510021019N0050001N1+01301+01301101641ADDAY161061AY251061GF108991051091002501071999KA1120N+01201MD1999999+0191MW1501REMSYN082AAXX  04004 48001 21350 82301 10130 20130 40164 75065 8597/ 333 20120 56669 58019;
0133480010999992000030403004+27330+097420FM-12+0409VBPT V0209999C000010021019N0060001N1+01401+01241101791ADDAA199000021GF108991051091002501071999MD1999999+0231REMSYN070AAXX  04034 48001 31356 80000 10140 20124 40179 8597/ 333 56669 58023;
0133480010999992000030409004+27330+097420FM-12+0409VBPT V0201401N000510360019N0080001N1+02001+01341101241ADDAA199000021GF107991041091002501071001MD1999999-0011REMSYN070AAXX  04094 48001 32358 71401 10200 20134 40124 84970 333 56660 59001;
0146480010999992000030412004+27330+097420FM-12+0409VBPT V0203201N000510360019N0060001N1+01701+01351999999ADDAA199000021GF108991031091004501051001KA1120M+02151MD1999999+0021REMSYN070AAXX  04124 48001 32456 83201 10170 20135 83950 333 10215 56660 58002;
0150480010999992000030503004+27330+097420FM-12+0409VBPT V0202301N000510021019N0050001N1+01401+01241101631ADDAY151031AY251031GF108991051091002501071999MD1999999-0151MW1511REMSYN076AAXX  05034 48001 21350 82301 10140 20124 40163 75155 8597/ 333 56669 59015;
0150480010999992000030506004+27330+097420FM-12+0409VBPT V0202301N000510021019N0070001N1+01501+01341101541ADDAY151061AY251061GF108991051091002501071999MD1999999+0011MW1501REMSYN076AAXX  05064 48001 21357 82301 10150 20134 40154 75055 8597/ 333 56660 58001;
0169480010999992000030512004+27330+097420FM-12+0409VBPT V0200401N000510360019N0050001N1+01701+01351101181ADDAY151061AY251061GF108991031091004501051001KA1120M+02151MD1999999-0161MW1011REMSYN082AAXX  05124 48001 22450 80401 10170 20135 40118 70155 83950 333 10215 56660 59016;
0152480010999992000030609004+27330+097420FM-12+0409VBPT V0200401N000510360019N0080001N1+01801+01471101271ADDAA199000091GF107991041091004501071001MD1999999+0041REMSYN070AAXX  06094 48001 32458 70401 10180 20147 40127 84970 333 56560 58004;EQDQ01  00002PRCP99
0196480010999992000030703004+27330+097420FM-12+0409VBPT V0202301N000512200019N0050001N1+01301+01301101541ADDAA199000091AY141031AY241031GA1001+999999999GF100991001001999999001001MD1999999-0051MW1011REMSYN076AAXX  07034 48001 32550 02301 10130 20130 40154 70144 89/// 333 56999 59005;EQDQ01  00002PRCP99
0169480010999992000030812004+27330+097420FM-12+0409VBPT V0209999C000010021019N0100001N1+01501+01501101051ADDAY151061AY251061GF108991051091002501071999KA1120M+01851MD1999999+0011MW1501REMSYN082AAXX  08124 48001 21360 80000 10150 20150 40105 75055 8597/ 333 10185 56669 58001;
0150480010999992000030906004+27330+097420FM-12+0409VBPT V0202301N000510021019N0030001N1+01581+01581101191ADDAY151061AY251061GF108991051091002501071999MD1999999+0021MW1501REMSYN076AAXX  09064 48001 21330 82301 10158 20158 40119 75055 8597/ 333 56669 58002;
0152480010999992000031006004+27330+097420FM-12+0409VBPT V0201401N000512200019N0100001N1+01901+01181101021ADDAA199000091GF102991021021004501051001MD1999999+0011REMSYN070AAXX  10064 48001 32460 21401 10190 20118 40102 82250 333 56660 58001;EQDQ01  00002PRCP99
0150480010999992000031103004+27330+097420FM-12+0409VBPT V0202701N000510021019N0050001N1+01401+01401101451ADDAY151031AY251031GF107991051091002501071999MD1999999+0011MW1531REMSYN076AAXX  11034 48001 21350 72701 10140 20140 40145 75355 8597/ 333 56669 58001;
0161480010999992000031203004+27330+097420FM-12+0409VBPT V0200901N000510210019N0050001N1+01401+01401101241ADDAA199000021AY151031AY251031GF108991051091022501071999MD1999999+0081MW1511REMSYN076AAXX  12034 48001 31850 80901 10140 20140 40124 75155 8597/ 333 56669 58008;
0133480010999992000031206004+27330+097420FM-12+0409VBPT V0201401N000510360019N0080001N1+01701+01171101071ADDAA199000021GF105991031041004501051001MD1999999-0021REMSYN070AAXX  12064 48001 32458 51401 10170 20117 40107 83450 333 56660 59002;
0150480010999992000031303004+27330+097420FM-12+0409VBPT V0201401N000510021019N0050001N1+01401+01401101411ADDAY151031AY251031GF108991051091002501071999MD1999999+0001MW1521REMSYN076AAXX  13034 48001 21350 81401 10140 20140 40141 75255 8597/ 333 56669 58000;
0180480010999992000031312004+27330+097420FM-12+0409VBPT V0202301N000510360019N0050001N1+01601+01141101271ADDAA199000021AY151061AY251061GF108991041091002501071001KA1120M+01901MD1999999+0071MW1011REMSYN082AAXX  13124 48001 32350 82301 10160 20114 40127 70155 84970 333 10190 56660 58007;
0150480010999992000031403004+27330+097420FM-12+0409VBPT V0201401N000510021019N0050001N1+01501+01501101481ADDAY151031AY251031GF108991051091002501071999MD1999999+0071MW1511REMSYN076AAXX  14034 48001 21350 81401 10150 20150 40148 75155 8597/ 333 56669 58007;
0144480010999992000031406004+27330+097420FM-12+0409VBPT V0200901N000510042019N0050001N1+01501+01471999999ADDAY161061AY261061GF108991051091004501071999MD1999999+0051MW1611REMSYN070AAXX  14064 48001 21450 80901 10150 20147 76166 8597/ 333 56690 58005;
0122480010999992000031503004+27330+097420FM-12+0409VBPT V0200901N000510021019N0060001N1+01671+01441101411ADDGF106991061091002501071001MD1999999-0071REMSYN070AAXX  15034 48001 22356 60901 10167 20144 40141 86970 333 56660 59007;
0152480010999992000031506004+27330+097420FM-12+0409VBPT V0200901N000510360019N0080001N1+01801+01471101301ADDAA199000091GF107991041091004501071001MD1999999-0171REMSYN070AAXX  15064 48001 32458 70901 10180 20147 40130 84970 333 56660 59017;EQDQ01  00002PRCP99
0169480010999992000031512004+27330+097420FM-12+0409VBPT V0202701N000510021019N0040001N1+01701+01541101141ADDAY151061AY251061GF108991051091002501071999KA1120M+02031MD1999999-0141MW1531REMSYN082AAXX  15124 48001 21340 82701 10170 20154 40114 75355 8597/ 333 10203 56669 59014;
0150480010999992000031603004+27330+097420FM-12+0409VBPT V0209999C000010021019N0050001N1+01501+01501101481ADDAY151031AY251031GF108991051091002501071999MD1999999+0001MW1591REMSYN076AAXX  16034 48001 21350 80000 10150 20150 40148 75955 8597/ 333 56669 58000;
0168480010999992000031703004+27330+097420FM-12+0409VBPT V0202201N000512200019N0100001N1+01601+01231101271ADDAA199000091GF104991999081999999051001MD1999999-0201REMSYN070AAXX  17034 48001 32960 42201 10160 20123 40127 85850 333 56660 59020;EQDQ01+000052SCOTLCQ02  00002PRCP99
0168480010999992000031706004+27330+097420FM-12+0409VBPT V0201401N000512200019N0060001N1+02101+00911101021ADDAA199000091GF101991999081004501071999MD1999999-0131REMSYN070AAXX  17064 48001 32456 11401 10210 20091 40102 8487/ 333 56669 59013;EQDQ01+000042SCOTLCQ02  00002PRCP99
0122480010999992000031709004+27330+097420FM-12+0409VBPT V0202701N000510042019N0080001N1+02201+01561100791ADDGF108991051091004501071999MD1999999-0111REMSYN070AAXX  17094 48001 21458 82701 10220 20156 40079 8597/ 333 56669 59011;
0171480010999992000031712004+27330+097420FM-12+0409VBPT V0202701N000510360019N0060001N1+02001+01681100861ADDAA199000091GF106991031091004501071001KA1120M+02261MD1999999-0131REMSYN076AAXX  17124 48001 32456 62701 10200 20168 40086 83970 333 10226 56660 59013;EQDQ01  00002PRCP99
0171480010999992000031812004+27330+097420FM-12+0409VBPT V0203201N000510360019N0060001N1+02101+01561100931ADDAA199000091GF105991031091004501051001KA1120M+02551MD1999999-0071REMSYN076AAXX  18124 48001 32456 53201 10210 20156 40093 83950 333 10255 56660 59007;EQDQ01  00002PRCP99
0180480010999992000031903004+27330+097420FM-12+0409VBPT V0202201N000510360019N0060001N1+01701+01351101231ADDAA199000091AY151031AY251031GF108991031091008001071001MD1999999-0121MW1011REMSYN076AAXX  19034 48001 31556 82201 10170 20135 40123 70155 83970 333 56660 59012;EQDQ01  00002PRCP99
0152480010999992000031906004+27330+097420FM-12+0409VBPT V0203201N001010360019N0080001N1+02101+01431101271ADDAA199000091GF106991041091004501051001MD1999999+0141REMSYN070AAXX  19064 48001 32458 63202 10210 20143 40127 84950 333 56660 58014;EQDQ01  00002PRCP99
0152480010999992000032003004+27330+097420FM-12+0409VBPT V0201401N000510360019N0080001N1+01601+01471101371ADDAA199000091GF108991031081004501051001MD1999999+0141REMSYN070AAXX  20034 48001 32458 81401 10160 20147 40137 83850 333 56660 58014;EQDQ01  00002PRCP99
0152480010999992000032006004+27330+097420FM-12+0409VBPT V0200401N000512200019N0180001N1+02201+01361101141ADDAA199000091GF102991011011008001051001MD1999999-0121REMSYN070AAXX  20064 48001 32568 20401 10220 20136 40114 81150 333 56660 59012;EQDQ01  00002PRCP99
0171480010999992000032012004+27330+097420FM-12+0409VBPT V0201401N000512200019N0060001N1+02201+01561100801ADDAA199000091GF104991031011004501051001KA1120M+02601MD1999999-0341REMSYN076AAXX  20124 48001 32456 41401 10220 20156 40080 83150 333 10260 56660 59034;EQDQ01  00002PRCP99
0180480010999992000032103004+27330+097420FM-12+0409VBPT V0202301N000512200019N0080001N1+01901+01591101471ADDAA199000091AY111031AY211031GF102991011041004501051001MD1999999+0051MW1101REMSYN076AAXX  21034 48001 31458 22301 10190 20159 40147 71011 81450 333 56660 58005;EQDQ01  00002PRCP99
0196480010999992000032106004+27330+097420FM-12+0409VBPT V0202401N001012200019N0080001N1+02501+01241101231ADDAA199000091AY111061AY211061GF101991999021004501001001MD1999999+0091MW1051REMSYN076AAXX  21064 48001 31458 12402 10250 20124 40123 70511 82200 333 56900 58009;EQDQ01+000022SCOTLCQ02  00002PRCP99
0180480010999992000032109004+27330+097420FM-12+0409VBPT V0201401N000512200019N0080001N1+03001+01241100831ADDAA199000091AY111031AY211031GF102991021021004501001001MD1999999+0021MW1051REMSYN076AAXX  21094 48001 31458 21401 10300 20124 40083 70511 82200 333 56900 58002;EQDQ01  00002PRCP99
0171480010999992000032112004+27330+097420FM-12+0409VBPT V0202801N000512200019N0060001N1+02201+01561100911ADDAA199000091GF103991021091004501051001KA1120M+03051MD1999999+0911REMSYN076AAXX  21124 48001 32456 32801 10220 20156 40091 82950 333 10305 56660 58091;EQDQ01  00002PRCP99
0180480010999992000032203004+27330+097420FM-12+0409VBPT V0202301N004612200019N0080001N1+01901+01061101401ADDAA199000091AY111031AY211031GF101991011041004501001001MD1999999-0071MW1101REMSYN076AAXX  22034 48001 31458 12309 10190 20106 40140 71011 81400 333 56900 59007;EQDQ01  00002PRCP99
0180480010999992000032206004+27330+097420FM-12+0409VBPT V0200401N000512200019N0080001N1+02501+01261101171ADDAA199000091AY111061AY211061GF102991021021004501001001MD1999999-0061MW1051REMSYN076AAXX  22064 48001 31458 20401 10250 20126 40117 70511 82200 333 56900 59006;EQDQ01  00002PRCP99
0171480010999992000032212004+27330+097420FM-12+0409VBPT V0203201N000512200019N0080001N1+02501+01501100871ADDAA199000091GF104991031091004501051001KA1120M+03021MD1999999-0041REMSYN076AAXX  22124 48001 32458 43201 10250 20150 40087 83950 333 10302 56550 59004;EQDQ01  00002PRCP99
0180480010999992000032303004+27330+097420FM-12+0409VBPT V0202301N000512200019N0080001N1+01901+01061101591ADDAA199000091AY111031AY211031GF101991011041004501001001MD1999999+0201MW1101REMSYN076AAXX  23034 48001 31458 12301 10190 20106 40159 71011 81400 333 56900 58020;EQDQ01  00002PRCP99
0180480010999992000032306004+27330+097420FM-12+0409VBPT V0200401N000512200019N0050001N1+02601+01191101301ADDAA199000091AY111061AY211061GF101991011011004501001001MD1999999+0121MW1051REMSYN076AAXX  23064 48001 31450 10401 10260 20119 40130 70511 81100 333 56900 58012;EQDQ01  00002PRCP99
0171480010999992000032500004+27330+097420FM-12+0409VBPT V0203401N000512200019N0050001N1+01501+01341101011ADDAA199000091GF103991021091004501051001KA1120N+01351MD1999999-0111REMSYN076AAXX  25004 48001 31450 33401 10150 20134 40101 82950 333 20135 56550 59011;EQDQ01  00002PRCP99
0196480010999992000032503004+27330+097420FM-12+0409VBPT V0203401N000512200019N0080001N1+01901+01591101481ADDAA199000091AY111031AY211031GF102991999081004501001001MD1999999-0051MW1101REMSYN076AAXX  25034 48001 31458 23401 10190 20159 40148 71011 81800 333 56900 59005;EQDQ01+000012SCOTLCQ02  00002PRCP99
0180480010999992000032506004+27330+097420FM-12+0409VBPT V0203201N000512200019N0080001N1+02701+01541101151ADDAA199000091AY111061AY211061GF101991011011004501001001MD1999999-0011MW1051REMSYN076AAXX  25064 48001 31458 13201 10270 20154 40115 70511 81100 333 56900 59001;EQDQ01  00002PRCP99
0154480010999992000032603004+27330+097420FM-12+0409VBPT V0203401N000512200019N0080001N1+02001+01561999999ADDAA199000091AY111031AY211031GF103991011041004501051001MW1051REMSYN064AAXX  26034 48001 31458 33401 10200 20156 70511 81450 333 56550;EQDQ01  00002PRCP99
0184480010999992000032606004+27330+097420FM-12+0409VBPT V0202301N000512200019N0060001N1+02701+01641101231ADDAA199000091AY101061AY201061GA1001+999999999GF100991001001999999001001MD1999999+0081MW1051REMSYN064AAXX  26064 48001 31/56 02301 10270 20164 40123 70500 333 58008;EQDQ01  00002PRCP99
0180480010999992000032609004+27330+097420FM-12+0409VBPT V0203401N000512200019N0080001N1+03101+01461100861ADDAA199000091AY111031AY211031GF101991011011008001001001MD1999999+0011MW1051REMSYN076AAXX  26094 48001 31558 13401 10310 20146 40086 70511 81100 333 56900 58001;EQDQ01  00002PRCP99
0171480010999992000032612004+27330+097420FM-12+0409VBPT V0203201N000512200019N0060001N1+02601+02031100911ADDAA199000091GF101991011041004501001001KA1120M+03201MD1999999-0091REMSYN076AAXX  26124 48001 32456 13201 10260 20203 40091 81400 333 10320 56900 59009;EQDQ01  00002PRCP99
0122480010999992000032715004+27330+097420FM-12+0409VBPT V0202601N000512200019N0200001N1+01911-00171101811ADDGA1001+999999999GF100991001001999999001001MD1710061+9999REMSYN054AAXX  27154 48001 42970 02601 10191 21017 40181 57006;
0171480010999992000032800004+27330+097420FM-12+0409VBPT V0209999C000010900019N0080001N1+01401+01251101461ADDAA199000091GF105991021051008001051061KA1120N+01061MD1999999+0151REMSYN076AAXX  28004 48001 32558 50000 10140 20125 40146 82556 333 20106 56559 58015;EQDQ01  00002PRCP99
0168480010999992000032803004+27330+097420FM-12+0409VBPT V0203601N000512200019N0080001N1+02802+01471101821ADDAA199000091GF104991011041008001051021MD1999999-0131REMSYN070AAXX  28034 48001 32558 43601 10280 20147 40182 81452 333 56559 59013;EQDQ01+002803ATOT  Q02  00002PRCP99
0180480010999992000032903004+27330+097420FM-12+0409VBPT V0209999C000010360019N0060001N1+02661+01681101521ADDAA199000091AY121031AY221031GF108991041091002501071999MD1999999-0011MW1101REMSYN076AAXX  29034 48001 31356 80000 10266 20168 40152 71022 8497/ 333 56559 59001;EQDQ01  00002PRCP99
0122480010999992000033103004+27330+097420FM-12+0409VBPT V0203401N000510360019N0080001N1+02101+01951101411ADDGF107991041091002501071001MD1999999-0401REMSYN070AAXX  31034 48001 22358 73401 10210 20195 40141 84970 333 56770 59040;
0180480010999992000033106004+27330+097420FM-12+0409VBPT V0200401N000510360019N0050001N1+02501+01791100621ADDAA199000091AY121061AY221061GF105991021081000251051001MD1999999-0341MW1051REMSYN076AAXX  31064 48001 31050 50401 10250 20179 40062 70522 82850 333 56770 59034;EQDQ01  00002PRCP99
0180480010999992000033109004+27330+097420FM-12+0409VBPT V0200401N000512200019N0060001N1+02901+01591100341ADDAA199000091AY141031AY241031GF102991021021004501001001MD1999999-0561MW1051REMSYN076AAXX  31094 48001 31456 20401 10290 20159 40034 70544 82200 333 56900 59056;EQDQ01  00002PRCP99
0187480010999992000033112004+27330+097420FM-12+0409VBPT V0200401N000512200019N0060001N1+02501+01861100451ADDAA199000091GF103991031091004501051001KA1120M+99999MD1999999-0271REMSYN076AAXX  31124 48001 32456 30401 10250 20186 40045 83950 333 11029 5660/ 59027;EQDQ01  00002PRCP99Q02 -00292ATMX  
0161480010999992000040103004+27330+097420FM-12+0409VBPT V0200401N000510021019N0050001N1+02101+01941100841ADDAA199000021AY151031AY251031GF108991051091002501071999MD1999999-0371MW1501REMSYN076AAXX  01034 48001 31350 80401 10210 20194 40084 75055 8597/ 333 56660 59037;
0169480010999992000040203004+27330+097420FM-12+0409VBPT V0200401N000512200019N0040001N1+01801+01601100831ADDAY191031AY261031GF103991999091002501071999MD1999999-0011MW1961REMSYN076AAXX  02034 48001 21340 30401 10180 20160 40083 79696 8597/ 333 56669 59001;EQDQ01+000052SCOTLC
0150480010999992000040209004+27330+097420FM-12+0409VBPT V0209999C000010021019N0040001N1+01801+01801100731ADDAY191031AY261031GF108991051091002501071999MD1999999+0171MW1951REMSYN076AAXX  02094 48001 21340 80000 10180 20180 40073 79596 8597/ 333 56669 58017;
0169480010999992000040212004+27330+097420FM-12+0409VBPT V0209999C000010021019N0030001N1+01701+01701100641ADDAY191061AY261061GF108991051091002501071999KA1120M+01851MD1999999+0021MW1961REMSYN082AAXX  02124 48001 21330 80000 10170 20170 40064 79696 8597/ 333 10185 56669 58002;
0150480010999992000040303004+27330+097420FM-12+0409VBPT V0200901N000510021019N0040001N1+01701+01701101241ADDAY191031AY251031GF108991051091002501071999MD1999999+0411MW1951REMSYN076AAXX  03034 48001 21340 80901 10170 20170 40124 79595 8597/ 333 56669 58041;
0161480010999992000040309004+27330+097420FM-12+0409VBPT V0200901N000510021019N0090001N1+01801+01801100971ADDAA199000021AY191031AY251031GF108991051091002501071999MD1999999+0151MW1951REMSYN076AAXX  03094 48001 31359 80901 10180 20180 40097 79595 8597/ 333 56669 58015;
0169480010999992000040312004+27330+097420FM-12+0409VBPT V0209999C000010360019N0050001N1+01801+01651100921ADDAY191061AY261061GF107991041091002501071001KA1120M+01831MD1999999+0291MW1951REMSYN082AAXX  03124 48001 21350 70000 10180 20165 40092 79596 84970 333 10183 56660 58029;
0152480010999992000040403004+27330+097420FM-12+0409VBPT V0200401N000510360019N0080001N1+01901+01741100941ADDAA199000091GF106991041081004501051001MD1999999-0291REMSYN070AAXX  04034 48001 32458 60401 10190 20174 40094 84850 333 56600 59029;EQDQ01  00002PRCP99
0169480010999992000040500004+27330+097420FM-12+0409VBPT V0202301N000510360019N0060001N1+01601+01601101021ADDAY161061AY251061GF106991031091004501071001KA1120N+01551MD1999999+0231MW1011REMSYN082AAXX  05004 48001 22456 62301 10160 20160 40102 70165 83970 333 20155 56550 58023;
0122480010999992000040503004+27330+097420FM-12+0409VBPT V0202301N000510360019N0060001N1+01801+01651101051ADDGF105991021031008001051001MD1999999+0111REMSYN070AAXX  05034 48001 22556 52301 10180 20165 40105 82350 333 56460 58011;
0152480010999992000040509004+27330+097420FM-12+0409VBPT V0203201N000510360019N0060001N1+02601+01791100531ADDAA199000091GF105991011091008001051001MD1999999-0041REMSYN070AAXX  05094 48001 32556 53201 10260 20179 40053 81950 333 56550 59004;EQDQ01  00002PRCP99
0169480010999992000040512004+27330+097420FM-12+0409VBPT V0209999C000010360019N0040001N1+02101+01751100501ADDAY161061AY251061GF107991041091002501071001KA1120M+02601MD1999999-0551MW1501REMSYN082AAXX  05124 48001 21340 70000 10210 20175 40050 75065 84970 333 10260 56660 59055;
0169480010999992000040600004+27330+097420FM-12+0409VBPT V0202301N000510021019N0030001N1+01601+01601100981ADDAY151061AY251061GF108991061091002501071999KA1120N+01601MD1999999+0121MW1051REMSYN082AAXX  06004 48001 21330 82301 10160 20160 40098 70555 8697/ 333 20160 56559 58012;
0150480010999992000040603004+27330+097420FM-12+0409VBPT V0202301N000510021019N0030001N1+01801+01601101211ADDAY191031AY261031GF108991051091002501071999MD1999999+0151MW1951REMSYN076AAXX  06034 48001 21330 82301 10180 20160 40121 79596 8597/ 333 56449 58015;
0166480010999992000040609004+27330+097420FM-12+0409VBPT V0200401N001012200019N0060001N1+01901+01591100941ADDAY191031AY251031GA1001+999999999GF100991001001999999001001MD1999999+0441MW1011REMSYN076AAXX  06094 48001 22456 00402 10190 20159 40094 70195 85970 333 56440 58044;
0169480010999992000040612004+27330+097420FM-12+0409VBPT V0209999C000010360019N0060001N1+01801+01641100931ADDAY191061AY261061GF106991041091002501071001KA1120M+01941MD1999999+0431MW1951REMSYN082AAXX  06124 48001 21356 60000 10180 20164 40093 79596 84970 333 10194 56440 58043;
0180480010999992000040700004+27330+097420FM-12+0409VBPT V0209999C000010042019N0040001N1+01501+01501100821ADDAA199000021AY191061AY261061GF106991051091004501071061KA1120M+01501MD1999999+0341MW1051REMSYN082AAXX  07004 48001 31440 60000 10150 20150 40082 70596 85976 333 10150 56999 58034;
0169480010999992000040712004+27330+097420FM-12+0409VBPT V0209999C000010360019N0030001N1+01761+01701101231ADDAY151061AY251061GF108991031091002501071001KA1120M+01751MD1999999+0311MW1501REMSYN082AAXX  07124 48001 21330 80000 10176 20170 40123 75055 83970 333 10175 56440 58031;
0169480010999992000040800004+27330+097420FM-12+0409VBPT V0209999C000010021019N0030001N1+01601+01601101161ADDAY161061AY251061GF108991051091002501071999KA1120N+01601MD1999999-0151MW1531REMSYN082AAXX  08004 48001 21330 80000 10160 20160 40116 75365 8597/ 333 20160 56440 59015;
0150480010999992000040803004+27330+097420FM-12+0409VBPT V0209999C000010021019N0050001N1+01701+01701101341ADDAY151031AY251031GF108991051091002501071999MD1999999-0161MW1511REMSYN076AAXX  08034 48001 21350 80000 10170 20170 40134 75155 8597/ 333 56559 59016;
0152480010999992000040812004+27330+097420FM-12+0409VBPT V0209999C000010021019N0030001N1+01801+01561100891ADDAA199000021GF108991051091002501071999KA1120M+01901MD1999999+0341REMSYN076AAXX  08124 48001 31330 80000 10180 20156 40089 8597/ 333 10190 56559 58034;
0150480010999992000040903004+27330+097420FM-12+0409VBPT V0209999C000010021019N0040001N1+01601+01601101001ADDAY151031AY251031GF108991051091002501071999MD1999999-0031MW1531REMSYN076AAXX  09034 48001 21340 80000 10160 20160 40100 75355 8597/ 333 56450 59003;
0157480010999992000040912004+27330+097420FM-12+0409VBPT V0209999C000010360019N0050001N1+01901+01751999999ADDAA199000021GF106991031091004501071001KA1120M+01951REMSYN076AAXX  09124 48001 31450 60000 10190 20175 4087/ 83970 333 10195 56550 5902/;EQDQ01 108703APOSLP
0169480010999992000041000004+27330+097420FM-12+0409VBPT V0200401N000510021019N0030001N1+01601+01331101081ADDAY151061AY251061GF108991051091002501071999KA1120N+01501MD1999999+0021MW1531REMSYN082AAXX  10004 48001 21330 80401 10160 20133 40108 75355 8597/ 333 20150 56459 58002;
0196480010999992000041103004+27330+097420FM-12+0409VBPT V0201801N000512200019N0030001N1+01901+01751101291ADDAA199000091AY151031AY251031GF102991999091002501071001MD1999999+0091MW1031REMSYN076AAXX  11034 48001 31330 21801 10190 20175 40129 70355 83970 333 56550 58009;EQDQ01+000032SCOTLCQ02  00002PRCP99
0171480010999992000041112004+27330+097420FM-12+0409VBPT V0209999C000010360019N0060001N1+02601+02031100051ADDAA199000091GF106991031091004501071001KA1120M+02751MD1999999-0161REMSYN076AAXX  11124 48001 32456 60000 10260 20203 40005 83970 333 10275 56440 59016;EQDQ01  00002PRCP99
0199480010999992000041200004+27330+097420FM-12+0409VBPT V0202301N000510360019N0030001N1+01601+01441100971ADDAA199000091AY151061AY251061GF107991041091002501071001KA1120N+01501MD1999999-0031MW1031REMSYN082AAXX  12004 48001 31330 72301 10160 20144 40097 70355 84970 333 20150 56550 59003;EQDQ01  00002PRCP99
0152480010999992000041209004+27330+097420FM-12+0409VBPT V0200401N000510021019N0050001N1+02601+01601100151ADDAA199000091GF106991051091002501071001MD1999999-0411REMSYN070AAXX  12094 48001 32350 60401 10260 20160 40015 85970 333 56450 59041;EQDQ01  00002PRCP99
0187480010999992000041212004+27330+097420FM-12+0409VBPT V0209999C000012200019N0050001N1+02501+01651100812ADDAA199000091GF104991041091008001071001KA1120M+02601MD1999999+0571REMSYN076AAXX  12124 48001 32550 40000 10250 20165 40081 84970 333 10260 56440 58057;EQDQ01+100813APOSLPQ02  00002PRCP99
0171480010999992000041300004+27330+097420FM-12+0409VBPT V02099999999990360019N0000001N1+01501+01341100941ADDAA199000091GF106991031091001501031001KA1120N+01351MD1999999-0201REMSYN076AAXX  13004 48001 32200 6000/ 10150 20134 40094 83930 333 20135 56990 59020;EQDQ01  00002PRCP99
0152480010999992000041306004+27330+097420FM-12+0409VBPT V0201401N000512200019N0090001N1+02501+01621100621ADDAA199000091GF102991021091008001001001MD1999999-0171REMSYN070AAXX  13064 48001 32559 21401 10250 20162 40062 82900 333 56900 59017;EQDQ01  00002PRCP99
0199480010999992000041312004+27330+097420FM-12+0409VBPT V0209999C000012200019N0080001N1+02601+01841100121ADDAA199000091AY101061AY201061GF102991021021002501001001KA1120M+02951MD1999999-0461MW1041REMSYN082AAXX  13124 48001 32358 20000 10260 20184 40012 70400 82200 333 10295 56900 59046;EQDQ01  00002PRCP99
0171480010999992000041400004+27330+097420FM-12+0409VBPT V0201401N000510360019N0030001N1+01721+01561100741ADDAA199000091GF106991031091002501071001KA1120N+01581MD1999999-0121REMSYN076AAXX  14004 48001 32330 61401 10172 20156 40074 83970 333 20158 56550 59012;EQDQ01  00002PRCP99
0140480010999992000041403004+27330+097420FM-12+0409VBPT V0200401N000512200019N0050001N1+02301+01631100761ADDAA199000091GF103991999999004501999999MD1999999-0131REMSYN058AAXX  14034 48001 32450 30401 10230 20163 40076 333 59013;EQDQ01  00002PRCP99
0171480010999992000041500004+27330+097420FM-12+0409VBPT V0209999C000010360019N0040001N1+01821+01621100821ADDAA199000091GF106991031091002501071001KA1120N+01651MD1999999+0071REMSYN076AAXX  15004 48001 32340 60000 10182 20162 40082 83970 333 20165 56440 58007;EQDQ01  00002PRCP99
0152480010999992000041503004+27330+097420FM-12+0409VBPT V0209999C000012200019N0080001N1+02401+01911100741ADDAA199000091GF103991021051004501031001MD1999999-0201REMSYN070AAXX  15034 48001 32458 30000 10240 20191 40074 82530 333 56550 59020;EQDQ01  00002PRCP99
0152480010999992000041803004+27330+097420FM-12+0409VBPT V0209999C000010360019N0100001N1+02001+01851100091ADDAA199000091GF105991021031008001071001MD1999999-0131REMSYN070AAXX  18034 48001 32560 50000 10200 20185 40009 82370 333 56460 59013;EQDQ01  00002PRCP99
0171480010999992000041812004+27330+097420FM-12+0409VBPT V0202301N000510360019N0040001N1+02301+01981100891ADDAA199000091GF107991041091002501071001KA1120M+02401MD1999999+0571REMSYN076AAXX  18124 48001 32340 72301 10230 20198 40089 84970 333 10240 56550 58057;EQDQ01  00002PRCP99
0152480010999992000041903004+27330+097420FM-12+0409VBPT V0202301N000510042019N0050001N1+02201+01851101141ADDAA199000091GF105991051091004501071001MD1999999+0081REMSYN070AAXX  19034 48001 31450 52301 10220 20185 40114 85970 333 56550 58008;EQDQ01  00002PRCP99
0169480010999992000042112004+27330+097420FM-12+0409VBPT V0201401N000510021019N0030001N1+02201+01851108101ADDAY121061AY221061GF108991061091002501071999KA1120M+02401MD1999999+0131MW1501REMSYN082AAXX  21124 48001 21330 81401 10220 20185 4081/ 75022 8697/ 333 10240 56449 58013;
0152480010999992000042200004+27330+097420FM-12+0409VBPT V0209999C000010021019N0030001N1+02001+01851100952ADDAA199000021GF108991051091002501071999KA1120N+01861MD1999999+0241REMSYN076AAXX  22004 48001 31330 80000 10200 20185 40095 8597/ 333 20186 56339 58024;
0168480010999992000042203004+27330+097420FM-12+0409VBPT V0209999C000010024019N0050001N1+02121+01951101021ADDAA199000091GA1091+999999999GF109991091999999999999999MD1999999+0021REMSYN070AAXX  22034 48001 32350 90000 10212 20195 40102 8497/ 333 56552 58002;EQDQ01  00002PRCP99
0169480010999992000042312004+27330+097420FM-12+0409VBPT V0201401N000510021019N0030001N1+02201+02051100781ADDAY151061AY251061GF108991051091002501071999KA1120M+02301MD1999999-0051MW1511REMSYN082AAXX  23124 48001 21330 81401 10220 20205 40078 75155 8597/ 333 10230 56459 59005;
0169480010999992000042400004+27330+097420FM-12+0409VBPT V0201401N000510021019N0040001N1+01801+01801100901ADDAY161061AY261061GF108991051091002501071999KA1120N+01751MD1999999-0141MW1651REMSYN082AAXX  24004 48001 21340 81401 10180 20180 40090 76566 8597/ 333 20175 56440 59014;
0169480010999992000042500004+27330+097420FM-12+0409VBPT V0209999C000010021019N0030001N1+01801+01801100681ADDAY151061AY251061GF108991051091002501071999KA1120N+01751MD1999999-0211MW1531REMSYN082AAXX  25004 48001 21330 80000 10180 20180 40068 75355 8597/ 333 20175 56449 59021;
0139480010999992000042512004+27330+097420FM-12+0409VBPT V0209999C000010360019N0050001N1+02101+01951100641ADDAA199000021GF108991031081002501071001MD1999999+0021REMSYN076AAXX  25124 48001 32350 80000 10210 20195 40064 83870 333 19225 56499 58002;
0169480010999992000042612004+27330+097420FM-12+0409VBPT V0203201N000510021019N0030001N1+02201+01851100701ADDAY151061AY251061GF108991051091002501071999KA1120M+02351MD1999999+0061MW1531REMSYN082AAXX  26124 48001 21330 83201 10220 20185 40070 75355 8597/ 333 10235 56559 58006;
0169480010999992000050112004+27330+097420FM-12+0409VBPT V0209999C000010021019N0030001N1+02001+02001100911ADDAY151061AY251061GF108991051091002501071999KA1120M+02101MD1999999+0221MW1031REMSYN082AAXX  01124 48001 21330 80000 10200 20200 40091 70355 8597/ 333 10210 56459 58022;
0150480010999992000050203004+27330+097420FM-12+0409VBPT V0209999C000010021019N0040001N1+01901+01901101331ADDAY151031AY251031GF108991051091002501071999MD1999999+0251MW1501REMSYN076AAXX  02034 48001 21340 80000 10190 20190 40133 75055 8597/ 333 56459 58025;
0161480010999992000050206004+27330+097420FM-12+0409VBPT V0201301N000510360019N0050001N1+02201+02051101281ADDAA199000021AY121061AY221061GF105991041091004501051001MD1999999+0241MW1031REMSYN076AAXX  02064 48001 31450 51301 10220 20205 40128 70322 84950 333 56440 58024;
0169480010999992000050312004+27330+097420FM-12+0409VBPT V0209999C000010021019N0030001N1+02101+01951101121ADDAY151061AY251061GF108991051091002501071999KA1120M+02201MD1999999+0111MW1501REMSYN082AAXX  03124 48001 21330 80000 10210 20195 40112 75055 8597/ 333 10220 56459 58011;
0171480010999992000050412004+27330+097420FM-12+0409VBPT V0209999C000012200019N0060001N1+02701+02111100691ADDAA199000091GF103991031091008001031001KA1120M+02801MD1999999-0431REMSYN076AAXX  04124 48001 32556 30000 10270 20211 40069 83930 333 10280 56440 59043;EQDQ01  00002PRCP99
0187480010999992000050500004+27330+097420FM-12+0409VBPT V0209999C000012200019N0050001N1+01701+01661101731ADDAA199000091GF102991999091002501071001KA1120N+01691MD1999999+0121REMSYN076AAXX  05004 48001 32350 20000 10170 20166 40173 83970 333 20169 56450 58012;EQDQ01+000032SCOTLCQ02  00002PRCP99
0199480010999992000050512004+27330+097420FM-12+0409VBPT V0209999C000010360019N0050001N1+03001+01851100531ADDAA199000091AY121061AY221061GF108991031091004501031001KA1120M+03101MD1999999-0171MW1051REMSYN082AAXX  05124 48001 32450 80000 10300 20185 40053 70522 83930 333 10310 56450 59017;EQDQ01  00002PRCP99
0141480010999992000050612004+27330+097420FM-12+0409VBPT V0209999C000010360019N0030001N1+02401+02091100461ADDGF108991041091002501071001KA1120M+02451MD1999999-0051REMSYN076AAXX  06124 48001 21330 80000 10240 20209 40046 84970 333 10245 56550 59005;
0169480010999992000050700004+27330+097420FM-12+0409VBPT V0209999C000010360019N0030001N1+02001+01941101141ADDAY151061AY251061GF108991041091002501071999KA1120N+01951MD1999999+0021MW1531REMSYN082AAXX  07004 48001 21330 80000 10200 20194 40114 75355 8497/ 333 20195 56330 58002;
0122480010999992000050703004+27330+097420FM-12+0409VBPT V0201801N000510360019N0080001N1+02491+02491101131ADDGF105991031081004501031001MD1999999-0141REMSYN070AAXX  07034 48001 21458 51801 10249 20249 40113 83830 333 56440 59014;
0152480010999992000050712004+27330+097420FM-12+0409VBPT V0201401N000510360019N0050001N1+02851+02301100561ADDAA199000021GF106991031091002501071001KA1120M+03001MD1999999+0081REMSYN076AAXX  07124 48001 32350 61401 10285 20230 40056 83970 333 10300 56450 58008;
0168480010999992000050803004+27330+097420FM-12+0409VBPT V0202301N000519999999N0100001N1+02601+02321100921ADDAA199000091GF108991999081004501001001MD1999999-0221REMSYN070AAXX  08034 48001 32460 82301 10260 20232 40092 83800 333 56400 59022;EQDQ01+000032SCOTLCQ02  00002PRCP99
0171480010999992000050812004+27330+097420FM-12+0409VBPT V0203201N000510360019N0060001N1+02901+02301100441ADDAA199000091GF105991031091004501051001KA1120M+03201MD1999999-0171REMSYN076AAXX  08124 48001 32456 53201 10290 20230 40044 83950 333 10320 56440 59017;EQDQ01  00002PRCP99
0171480010999992000050900004+27330+097420FM-12+0409VBPT V0201301N000510360019N0080001N1+02201+02051100891ADDAA199000091GF105991031091004501051001KA1120N+02101MD1999999+0011REMSYN076AAXX  09004 48001 31458 51301 10220 20205 40089 83950 333 20210 56440 58001;EQDQ01  00002PRCP99
0171480010999992000050912004+27330+097420FM-12+0409VBPT V0202301N000510360019N0080001N1+03001+02231100491ADDAA199000091GF108991021091004501061001KA1120M+03451MD1999999+0051REMSYN076AAXX  09124 48001 32458 82301 10300 20223 40049 82960 333 10345 56990 58005;EQDQ01  00002PRCP99
0169480010999992000051100004+27330+097420FM-12+0409VBPT V0209999C000010360019N0050001N1+02201+02201100511ADDAY191061AY261061GF106991041091002501061001KA1120N+02201MD1999999-0181MW1011REMSYN082AAXX  11004 48001 21350 60000 10220 20220 40051 70196 84960 333 20220 56550 59018;
0122480010999992000051103004+27330+097420FM-12+0409VBPT V0201801N000510360019N0100001N1+02701+02261100471ADDGF108991031091008001051001MD1999999-0161REMSYN070AAXX  11034 48001 22560 81801 10270 20226 40047 83950 333 56550 59016;
0152480010999992000051106004+27330+097420FM-12+0409VBPT V0201401N000510360019N0100001N1+03101+02251100201ADDAA199000091GF105991031081008001051001MD1999999-0091REMSYN070AAXX  11064 48001 32560 51401 10310 20225 40020 83850 333 56550 59009;EQDQ01  00002PRCP99
0141480010999992000051203004+27330+097420FM-12+0409VBPT V0200101N002112200019N0120001N1+02401+01911100741ADDGF102991999091999999071999MD1999999+0021REMSYN070AAXX  12034 48001 22962 20104 10240 20191 40074 8597/ 333 56027 58002;EQDQ01+000052SCOTLC
0187480010999992000051212004+27330+097420FM-12+0409VBPT V0209999C000012200019N0100001N1+03201+02001999999ADDAA199000091GF103991999091008001001001KA1120M+03261MD1999999-0071REMSYN076AAXX  12124 48001 32560 30000 10320 20200 40978 82900 333 10326 56700 59007;EQDQ01+000022SCOTLCQ02  00002PRCP99
0171480010999992000051312004+27330+097420FM-12+0409VBPT V0200401N000510360019N0100001N1+03251+01841099721ADDAA199000091GF105991031091004501051001KA1120M+03451MD1999999-0061REMSYN076AAXX  13124 48001 32460 50401 10325 20184 49972 83950 333 10345 56660 59006;EQDQ01  00002PRCP99
0150480010999992000051403004+27330+097420FM-12+0409VBPT V0201401N000510360019N0060001N1+02401+02201100631ADDAY191031AY251031GF107991041091002501071001MD1999999-0071MW1951REMSYN076AAXX  14034 48001 21356 71401 10240 20220 40063 79595 84970 333 56450 59007;
0133480010999992000051406004+27330+097420FM-12+0409VBPT V0201401N000510360019N0060001N1+02901+02301100371ADDAA199000021GF107991041091004501051001MD1999999+0031REMSYN070AAXX  14064 48001 32456 71401 10290 20230 40037 84950 333 56550 58003;
0122480010999992000051503004+27330+097420FM-12+0409VBPT V0203401N000512200019N0100001N1+02801+02331100461ADDGF104991031081004501051001MD1999999-0101REMSYN070AAXX  15034 48001 22460 43401 10280 20233 40046 83850 333 56220 59010;
0199480010999992000051512004+27330+097420FM-12+0409VBPT V0202201N000510360019N0060001N1+02801+02331099861ADDAA199000091AY191061AY291061GF105991031091004501051001KA1120M+03431MD1999999-0041MW1171REMSYN082AAXX  15124 48001 31456 52201 10280 20233 49986 71799 83950 333 10343 56660 59004;EQDQ01  00002PRCP99
0150480010999992000051603004+27330+097420FM-12+0409VBPT V0201401N000510360019N0080001N1+02501+02351100521ADDAY191031AY251031GF107991041091002501071001MD1999999+0111MW1951REMSYN076AAXX  16034 48001 21358 71401 10250 20235 40052 79595 84970 333 56660 58011;
0133480010999992000051609004+27330+097420FM-12+0409VBPT V0201401N000510360019N0100001N1+03101+02251099911ADDAA199000021GF105991031091004501051001MD1999999-0011REMSYN070AAXX  16094 48001 32460 51401 10310 20225 49991 83950 333 56660 59001;
0146480010999992000051612004+27330+097420FM-12+0409VBPT V0201401N000510360019N0100001N1+03001+99999099821ADDAA199000021GF105991031091004501051001KA1120M+03151MD1999999-0041REMSYN070AAXX  16124 48001 32460 51401 10300 49982 83950 333 10315 56660 59004;
0152480010999992000051709004+27330+097420FM-12+0409VBPT V0203201N000510360019N0100001N1+03101+02251099691ADDAA199000091GF108991031091004501071001MD1999999-0231REMSYN070AAXX  17094 48001 32460 83201 10310 20225 49969 83970 333 56660 59023;EQDQ01  00002PRCP99
0169480010999992000051712004+27330+097420FM-12+0409VBPT V0203401N000510021019N0050001N1+02701+02401099761ADDAY151061AY251061GF106991051091002501071999KA1120M+03201MD1999999-0051MW1511REMSYN082AAXX  17124 48001 21350 63401 10270 20240 49976 75155 8597/ 333 10320 56660 59005;
0150480010999992000051806004+27330+097420FM-12+0409VBPT V0203401N000510021019N0080001N1+02701+02261100161ADDAY151061AY251061GF108991051091002501071999MD1999999+0131MW1501REMSYN076AAXX  18064 48001 21358 83401 10270 20226 40016 75055 8597/ 333 56669 58013;
0150480010999992000051809004+27330+097420FM-12+0409VBPT V0203401N000510021019N0060001N1+02801+02501099891ADDAY161031AY241031GF108991051091002501071999MD1999999+0201MW1511REMSYN076AAXX  18094 48001 21356 83401 10280 20250 49989 75164 8597/ 333 56669 58020;
0169480010999992000051812004+27330+097420FM-12+0409VBPT V0203401N000510021019N0040001N1+02401+02241100081ADDAY161061AY251061GF108991051091002501071999KA1120M+02901MD1999999+0251MW1521REMSYN082AAXX  18124 48001 21340 83401 10240 20224 40008 75265 8597/ 333 10290 56669 58025;
0122480010999992000051903004+27330+097420FM-12+0409VBPT V0203401N000510021019N0080001N1+02501+02141100821ADDGF108991051091002501071999MD1999999+0561REMSYN070AAXX  19034 48001 22358 83401 10250 20214 40082 8597/ 333 56669 58056;
0152480010999992000052109004+27330+097420FM-12+0409VBPT V0200901N000512200019N0100001N1+03201+02001100011ADDAA199000091GF104991031091004501051001MD1999999-0141REMSYN070AAXX  21094 48001 32460 40901 10320 20200 40001 83950 333 56660 59014;EQDQ01  00002PRCP99
0171480010999992000052112004+27330+097420FM-12+0409VBPT V0200401N000510360019N0050001N1+03201+02361100011ADDAA199000091GF108991031091004501051001KA1120M+03301MD1999999-0341REMSYN076AAXX  21124 48001 32450 80401 10320 20236 40001 83950 333 10330 56660 59034;EQDQ01  00002PRCP99
0122480010999992000052203004+27330+097420FM-12+0409VBPT V0209999C000010021019N0060001N1+02401+02241100861ADDGF108991051091002501071999MD1999999-0191REMSYN070AAXX  22034 48001 22356 80000 10240 20224 40086 8597/ 333 56999 59019;
0171480010999992000052212004+27330+097420FM-12+0409VBPT V0202301N000510360019N0080001N1+02801+02201100511ADDAA199000091GF107991041091004501061001KA1120M+02941MD1999999+0501REMSYN076AAXX  22124 48001 32458 72301 10280 20220 40051 84960 333 10294 56660 58050;EQDQ01  00002PRCP99
0150480010999992000052303004+27330+097420FM-12+0409VBPT V0203401N000510021019N0090001N1+02401+02241100761ADDAY151031AY251031GF108991051091002501071999MD1999999-0141MW1511REMSYN076AAXX  23034 48001 21359 83401 10240 20224 40076 75155 8597/ 333 56669 59014;
0169480010999992000052400004+27330+097420FM-12+0409VBPT V0209999C000010012019N0040001N1+02101+02101100421ADDAY161061AY251061GF108991051091001501071999KA1120N+02101MD1999999-0231MW1011REMSYN082AAXX  24004 48001 21240 80000 10210 20210 40042 70165 8597/ 333 20210 56611 59023;
0152480010999992000052409004+27330+097420FM-12+0409VBPT V0200401N000510360019N0060001N1+02701+02261100091ADDAA199000091GF107991041091008001061001MD1999999-0341REMSYN070AAXX  24094 48001 32556 70401 10270 20226 40009 84960 333 56660 59034;EQDQ01  00002PRCP99
0171480010999992000052412004+27330+097420FM-12+0409VBPT V0209999C000010360019N0080001N1+02601+02291100051ADDAA199000091GF106991041091004501051001KA1120M+02751MD1999999-0471REMSYN076AAXX  24124 48001 32458 60000 10260 20229 40005 84950 333 10275 56660 59047;EQDQ01  00002PRCP99
0169480010999992000052500004+27330+097420FM-12+0409VBPT V0209999C000010012019N0030001N1+02301+02301100081ADDAY161061AY251061GF108991051091001501071999KA1120N+02271MD1999999-0361MW1511REMSYN082AAXX  25004 48001 21230 80000 10230 20230 40008 75165 8597/ 333 20227 56660 59036;
0169480010999992000052512004+27330+097420FM-12+0409VBPT V0209999C000010360019N0080001N1+02501+02331099861ADDAY161061AY251061GF108991031091004501051001KA1120M+02651MD1999999-0191MW1411REMSYN082AAXX  25124 48001 21458 80000 10250 20233 49986 74165 83950 333 10265 56660 59019;
0150480010999992000052606004+27330+097420FM-12+0409VBPT V0201401N000510021019N0030001N1+02301+02301100261ADDAY161061AY261061GF108991051091002501071999MD1999999+0151MW1641REMSYN076AAXX  26064 48001 21330 81401 10230 20230 40026 76466 8597/ 333 56669 58015;
0150480010999992000052609004+27330+097420FM-12+0409VBPT V0201401N001510021019N0040001N1+02501+02331100011ADDAY161031AY251031GF108991051091002501071999MD1999999+0241MW1501REMSYN076AAXX  26094 48001 21340 81403 10250 20233 40001 75065 8597/ 333 56669 58024;
0169480010999992000052612004+27330+097420FM-12+0409VBPT V0201401N001010021019N0030001N1+02401+02351100011ADDAY161061AY251061GF108991051091002501071999KA1120M+02531MD1999999+0151MW1511REMSYN082AAXX  26124 48001 21330 81402 10240 20235 40001 75165 8597/ 333 10253 56669 58015;
0150480010999992000052703004+27330+097420FM-12+0409VBPT V0201401N000510012019N0020001N1+02301+02301100331ADDAY161031AY261031GF108991051091001501071999MD1999999+0001MW1631REMSYN076AAXX  27034 48001 21220 81401 10230 20230 40033 76366 8597/ 333 56669 58000;
0152480010999992000053103004+27330+097420FM-12+0409VBPT V0201401N000510360019N0100001N1+02601+02291100681ADDAA199000091GF105991031081004501051001MD1999999+0001REMSYN070AAXX  31034 48001 32460 51401 10260 20229 40068 83850 333 56660 59000;EQDQ01  00002PRCP99
0152480010999992000053106004+27330+097420FM-12+0409VBPT V0209999C000012200019N0100001N1+02441+02231100301ADDAA199000091GF104991031091008001051001MD1999999-0101REMSYN070AAXX  31064 48001 32560 40000 10244 20223 40030 83950 333 56660 59010;EQDQ01  00002PRCP99
0169480010999992000053109004+27330+097420FM-12+0409VBPT V0202301N000512200019N0080001N1+03001+02391100141ADDAY151031AY251031GF103991999091004501051001MD1999999-0111MW1501REMSYN076AAXX  31094 48001 21458 32301 10300 20239 40014 75055 84950 333 56660 59011;EQDQ01+000042SCOTLC
0169480010999992000053112004+27330+097420FM-12+0409VBPT V0203201N000510360019N0080001N1+02701+02401100091ADDAY151061AY251061GF107991041091004501051001KA1120M+03201MD1999999-0171MW1501REMSYN082AAXX  31124 48001 21458 73201 10270 20240 40009 75055 84950 333 10320 56660 59017;
0150480010999992000060103004+27330+097420FM-12+0409VBPT V0201401N000510360019N0060001N1+02401+02241100461ADDAY151031AY251031GF107991031091002501051001MD1999999-0231MW1501REMSYN076AAXX  01034 48001 21356 71401 10240 20224 40046 75055 83950 333 56660 59023;
0133480010999992000060106004+27330+097420FM-12+0409VBPT V0201401N000510042019N0080001N1+02701+02261100421ADDAA199000021GF106991051091004501071001MD1999999-0261REMSYN070AAXX  01064 48001 32458 61401 10270 20226 40042 85970 333 56660 59026;
0144480010999992000060109004+27330+097420FM-12+0409VBPT V0201801N001010360019N0080001N1+99999+99999100161ADDAY151031AY251031GF106991041091002501051001MD1999999-0081MW1501REMSYN070AAXX  01094 48001 21358 61802 20205 40016 75055 84950 333 56660 59008;
0122480010999992000060203004+27330+097420FM-12+0409VBPT V0200401N000510360019N0080001N1+02601+02291100511ADDGF107991041081004501061001MD1999999+0061REMSYN070AAXX  02034 48001 21458 70401 10260 20229 40051 84860 333 56660 58006;
0169480010999992000060212004+27330+097420FM-12+0409VBPT V0202701N000510360019N0080001N1+03101+02371100081ADDAY161061AY251061GF105991031091004501051001KA1120M+03151MD1999999+0141MW1011REMSYN082AAXX  02124 48001 22458 52701 10310 20237 40008 70165 83950 333 10315 56660 58014;
0122480010999992000060303004+27330+097420FM-12+0409VBPT V0202301N000512200019N0010001N1+02701+02401100481ADDGF102991021021008001001001MD1999999-0031REMSYN070AAXX  03034 48001 22510 22301 10270 20240 40048 82200 333 56900 59003;
0171480010999992000060312004+27330+097420FM-12+0409VBPT V0201401N000512200019N0100001N1+03501+02251099661ADDAA199000091GF104991031091008001051001KA1120M+03511MD1999999-0421REMSYN076AAXX  03124 48001 32560 41401 10350 20225 49966 83950 333 10351 56660 59042;EQDQ01  00002PRCP99
0122480010999992000060403004+27330+097420FM-12+0409VBPT V0201801N000510360019N0100001N1+02501+02291100741ADDGF108991031081008001051001MD1999999+0231REMSYN070AAXX  04034 48001 22560 81801 10250 20229 40074 83850 333 56660 58023;
0199480010999992000060412004+27330+097420FM-12+0409VBPT V0203401N001010360019N0060001N1+02801+02331100211ADDAA199000091AY191061AY291061GF108991041091004501051001KA1120M+03381MD1999999+0541MW1171REMSYN082AAXX  04124 48001 31456 83402 10280 20233 40021 71799 84950 333 10338 56660 58054;EQDQ01  00002PRCP99
0150480010999992000060503004+27330+097420FM-12+0409VBPT V0201401N000510012019N0020001N1+02401+02401100681ADDAY191031AY261031GF108991051091001501071999MD1999999+0031MW1451REMSYN076AAXX  05034 48001 21220 81401 10240 20240 40068 74596 8597/ 333 56779 58003;
0122480010999992000060603004+27330+097420FM-12+0409VBPT V0201401N000510360019N0050001N1+02501+02191100731ADDGF105991031081004501051001MD1999999+0061REMSYN070AAXX  06034 48001 22450 51401 10250 20219 40073 83850 333 56660 58006;
0152480010999992000060606004+27330+097420FM-12+0409VBPT V0201401N000510360019N0100001N1+02901+02151100581ADDAA199000091GF107991031091008001031001MD1999999+0041REMSYN070AAXX  06064 48001 32560 71401 10290 20215 40058 83930 333 56660 58004;EQDQ01  00002PRCP99
0171480010999992000060612004+27330+097420FM-12+0409VBPT V0201401N001010360019N0100001N1+02801+02331100391ADDAA199000091GF106991041091004501051001KA1120M+03071MD1999999-0041REMSYN076AAXX  06124 48001 32460 61402 10280 20233 40039 84950 333 10307 56660 59004;EQDQ01  00002PRCP99
0152480010999992000060703004+27330+097420FM-12+0409VBPT V0202401N000510021019N0060001N1+02601+02441100591ADDAA199000091GF108991051091002501071999MD1999999-0161REMSYN070AAXX  07034 48001 32356 82401 10260 20244 40059 8597/ 333 56669 59016;EQDQ01  00002PRCP99
0152480010999992000060706004+27330+097420FM-12+0409VBPT V0200401N000510360019N0080001N1+03001+02391100451ADDAA199000091GF107991041091004501061001MD1999999-0131REMSYN070AAXX  07064 48001 32458 70401 10300 20239 40045 84960 333 56660 59013;EQDQ01  00002PRCP99
0119480010999992000060712004+27330+097420FM-12+0409VBPT V0200901N001519999999N0060001N1+99999+99999999999ADDGF107991999999004501999999REMSYN081AAXX  07124 48001 21456 70903 0270 20240 40011 75155 84970 333 10308 56770 59027;
0150480010999992000060803004+27330+097420FM-12+0409VBPT V0203201N000510021019N0040001N1+02501+02501100491ADDAY151031AY251031GF108991051091002501071999MD1999999-0131MW1501REMSYN076AAXX  08034 48001 21340 83201 10250 20250 40049 75055 8597/ 333 56779 59013;
0133480010999992000060806004+27330+097420FM-12+0409VBPT V0201401N001010021019N0080001N1+02901+02301100381ADDAA199000021GF108991051091002501061999MD1999999-0071REMSYN070AAXX  08064 48001 32358 81402 10290 20230 40038 8596/ 333 56009 59007;
0141480010999992000060812004+27330+097420FM-12+0409VBPT V0201401N000510360019N0080001N1+02501+02501099941ADDGF106991041091004501061001KA1120M+03001MD1999999-0161REMSYN076AAXX  08124 48001 22458 61401 10250 20250 49994 84960 333 10300 56770 59016;
0182480010999992000060900004+27330+097420FM-12+0409VBPT V0209999C000010012019N0020001N1+02401+99999100171ADDAY161061AY251061GF108991061091001501071999KA1120N+99999MD1999999-0281MW1151REMSYN076AAXX  09004 48001 21220 80000 10240 40017 71565 8697/ 333 20248 56669 59028;EQDQ01 +02482ATMN  
0152480010999992000060909004+27330+097420FM-12+0409VBPT V0201801N000510360019N0080001N1+03201+02481096902ADDAA199000091GF106991041091004501061001MD1999999-0411REMSYN070AAXX  09094 48001 32458 61801 10320 20248 4969/ 84960 333 56660 59041;EQDQ01  00002PRCP99
0150480010999992000061003004+27330+097420FM-12+0409VBPT V0201401N000510012019N0040001N1+02601+02441100151ADDAY191031AY251031GF108991061091001501071999MD1999999-0141MW1151REMSYN076AAXX  10034 48001 21240 81401 10260 20244 40015 71595 8697/ 333 56669 59014;
0169480010999992000061112004+27330+097420FM-12+0409VBPT V0200901N001510021019N0030001N1+02501+02341099891ADDAY161061AY251061GF108991051091002501071999KA1120M+02771MD1999999+0041MW1501REMSYN082AAXX  11124 48001 21330 80903 10250 20234 49989 75065 8597/ 333 10277 56559 58004;
0150480010999992000061206004+27330+097420FM-12+0409VBPT V0201401N002110021019N0050001N1+02601+02441100101ADDAY161061AY251061GF108991051091002501071999MD1999999+0041MW1511REMSYN076AAXX  12064 48001 21350 81404 10260 20244 40010 75165 8597/ 333 56559 58004;
0169480010999992000061212004+27330+097420FM-12+0409VBPT V0200401N003110021019N0030001N1+02501+02331099851ADDAY151061AY251061GF108991061091002501999999KA1120M+02851MD1999999-0041MW1501REMSYN082AAXX  12124 48001 21330 80406 10250 20233 49985 75055 869// 333 10285 56779 59004;
0150480010999992000061303004+27330+097420FM-12+0409VBPT V0201401N000510012019N0040001N1+02301+02301100191ADDAY161031AY251031GF108991051091001501071999MD1999999+0081MW1501REMSYN076AAXX  13034 48001 21240 81401 10230 20230 40019 75065 8597/ 333 56440 58008;
0150480010999992000061403004+27320+097420FM-12+0409VBPT V0200901N001010012019N0020001N1+02301+02301100271ADDAY161031AY261031GF108991051091001501071999MD1999999+0081MW1651REMSYN076AAXX  14034 48001 21220 80902 10230 20230 40027 76566 8597/ 333 56559 58008;
0150480010999992000061406004+27320+097420FM-12+0409VBPT V0200901N000510042019N0040001N1+02401+02401100241ADDAY161061AY261061GF108991051091004501071999MD1999999+0111MW1651REMSYN076AAXX  14064 48001 21440 80901 10240 20240 40024 76566 8597/ 333 56559 58011;
0150480010999992000061409004+27320+097420FM-12+0409VBPT V0200901N000510012019N0030001N1+02351+02351100161ADDAY161031AY261031GF108991051091001501071999MD1999999+0151MW1621REMSYN076AAXX  14094 48001 21230 80901 10235 20235 40016 76266 8597/ 333 56559 58015;
0114480010999992000061601004+27320+097420FM-12+0409VBPT V0202301N000510021019N0060001N1+02501+02501100311ADDGF108991051071002501051051REMSYN076AAXX  16014 48001 21356 82301 10250 20250 40031 85755 84850 333 56550 58007;
0152480010999992000061606004+27320+097420FM-12+0409VBPT V0202301N000510360019N0100001N1+02901+02481100081ADDAA199000091GF105991031081004501051001MD1999999+0031REMSYN070AAXX  16064 48001 32460 52301 10290 20248 40008 83850 333 56550 58003;EQDQ01  00002PRCP99
0171480010999992000061712004+27320+097420FM-12+0409VBPT V0201801N000510360019N0100001N1+03101+02371099741ADDAA199000091GF108991031091004501051001KA1120M+03221MD1999999-0031REMSYN076AAXX  17124 48001 32460 81801 10310 20237 49974 83950 333 10322 56550 59003;EQDQ01  00002PRCP99
0150480010999992000061803004+27320+097420FM-12+0409VBPT V0201401N000510021019N0080001N1+02501+02501100471ADDAY161031AY251031GF108991051091002501071999MD1999999+0061MW1501REMSYN076AAXX  18034 48001 21358 81401 10250 20250 40047 75065 8597/ 333 56559 58006;
0152480010999992000061812004+27320+097420FM-12+0409VBPT V0200901N000510360019N0080001N1+02901+02481100001ADDAA199000021GF105991031091004501051001KA1120M+03291MD1999999+0281REMSYN076AAXX  18124 48001 32458 50901 10290 20248 40000 83950 333 10329 56229 58028;
0122480010999992000061903004+27320+097420FM-12+0409VBPT V0200901N000510021019N0060001N1+02501+02341100591ADDGF106991051091002501071999MD1999999+0111REMSYN070AAXX  19034 48001 22356 60901 10250 20234 40059 8597/ 333 56559 58011;
0152480010999992000061906004+27320+097420FM-12+0409VBPT V0203401N000510042019N9999999N1+02801+02501100391ADDAA199000091GF107991051091004501061001MD1999999+0061REMSYN070AAXX  19064 48001 31452 73401 10280 20250 40039 85960 333 56560 58006;EQDQ01  00002PRCP99
0169480010999992000061912004+27320+097420FM-12+0409VBPT V0201401N001010360019N0060001N1+02501+02351100091ADDAY161061AY251061GF107991041091004501071001KA1120M+03231MD1999999+0091MW1501REMSYN082AAXX  19124 48001 21456 71402 10250 20235 40009 75065 84970 333 10323 56660 58009;
0150480010999992000062003004+27320+097420FM-12+0409VBPT V0202701N000510021019N0040001N1+02501+02351100371ADDAY161031AY251031GF108991061091002501071999MD1999999+0231MW1511REMSYN076AAXX  20034 48001 21340 82701 10250 20235 40037 75165 8697/ 333 56669 58023;
0155480010999992000062006004+27320+097420FM-12+0409VBPT V0200401N000510021019N0060001N1+02801+02501999999ADDAA199000021AY151061AY251061GF108991051091002501071999MD1999999+0151MW1501REMSYN070AAXX  20064 48001 32356 80401 10280 20250 75055 8597/ 333 56669 58015;
0169480010999992000062012004+27320+097420FM-12+0409VBPT V0200901N000510021019N0050001N1+02601+02441099841ADDAY151061AY251061GF108991051091002501071999KA1120M+03001MD1999999-0201MW1501REMSYN082AAXX  20124 48001 21350 80901 10260 20244 49984 75055 8597/ 333 10300 56669 59020;
0150480010999992000062103004+27320+097420FM-12+0409VBPT V0200901N000510021019N0050001N1+02451+02451100351ADDAY151031AY251031GF108991061091002501071999MD1999999-0011MW1511REMSYN076AAXX  21034 48001 21350 80901 10245 20245 40035 75155 8697/ 333 56669 59001;
0152480010999992000062406004+27320+097420FM-12+0409VBPT V0201801N000510075019N0100001N1+02601+02441100621ADDAA199000091GF108991051091008001071999MD1999999-0241REMSYN070AAXX  24064 48001 31560 81801 10260 20244 40062 8597/ 333 56669 59024;EQDQ01  00002PRCP99
0188480010999992000062412004+27320+097420FM-12+0409VBPT V0200901N002110021019N0050001N1+02501+02321099652ADDAY151061AY251061GF108991051091002501071999KA1120M+02751MD1999999-0261MW1531REMSYN082AAXX  24124 48001 21350 80904 10250 20232 49965 75355 8597/ 333 10275 56669 59026;EQDQ01+099653APOSLP
0122480010999992000062503004+27320+097420FM-12+0409VBPT V0201401N000510021019N0050001N1+02501+02351099991ADDGF108991051091002501071999MD1999999+0091REMSYN070AAXX  25034 48001 22350 81401 10250 20235 49999 8597/ 333 56449 58009;
0169480010999992000062612004+27320+097420FM-12+0409VBPT V0209999C000010360019N0050001N1+02501+02501099771ADDAY151061AY251061GF107991041091002501071999KA1120M+02851MD1999999+0041MW1011REMSYN082AAXX  26124 48001 22350 70000 10250 20250 49977 70155 8497/ 333 10285 56440 58004;
0150480010999992000062703004+27320+097420FM-12+0409VBPT V0201401N000510021019N0030001N1+02401+02401100391ADDAY161031AY261031GF108991051091002501071999MD1999999+0091MW1611REMSYN076AAXX  27034 48001 21330 81401 10240 20240 40039 76166 8597/ 333 56777 58009;
0169480010999992000062712004+27320+097420FM-12+0409VBPT V0202701N000510021019N0039001N1+02521+02521100061ADDAY101061AY261061GF108991051091002501071999KA1120M+02621MD1999999+0231MW1641REMSYN082AAXX  27124 48001 21339 82701 10252 20252 40006 76406 8597/ 333 10262 56990 58023;
0144480010999992000062803004+27320+097420FM-12+0409VBPT V0200401N001019999999N0030001N1+02401+02401100621ADDAY151031AY251031GF108991999999002501999999MD1999999+0351MW1591REMSYN070AAXX  28034 48001 21330 80402 10240 20240 40062 75955 333 56339 58035;
0150480010999992000062903004+27320+097420FM-12+0409VBPT V0202301N000510012019N0020001N1+02401+02401100631ADDAY161031AY251031GF108991051091001501071999MD1999999+0011MW1511REMSYN076AAXX  29034 48001 21220 82301 10240 20240 40063 75165 8597/ 333 56339 58001;
0150480010999992000063003004+27320+097420FM-12+0409VBPT V0202701N000510012019N0020001N1+02301+02301100481ADDAY161031AY261031GF108991061091001501071999MD1999999-0201MW1651REMSYN076AAXX  30034 48001 21220 82701 10230 20230 40048 76566 8697/ 333 56339 59020;
0150480010999992000063006004+27320+097420FM-12+0409VBPT V0203601N000510021019N0040001N1+02501+02331100361ADDAY161061AY251061GF108991051091002501071999MD1999999+0221MW1511REMSYN076AAXX  30064 48001 21340 83601 10250 20233 40036 75165 8597/ 333 56339 58022;
0150480010999992000070203004+27320+097420FM-12+0409VBPT V0203401N000510021019N0030001N1+02351+02351100481ADDAY151031AY251031GF108991051091002501071999MD1999999+0081MW1501REMSYN076AAXX  02034 48001 21330 83401 10235 20235 40048 75055 8597/ 333 56559 58008;
0150480010999992000070303004+27320+097420FM-12+0409VBPT V0203401N000510021019N0030001N1+02401+02401100301ADDAY161031AY261031GF108991051091002501071999MD1999999-0121MW1631REMSYN076AAXX  03034 48001 21330 83401 10240 20240 40030 76366 8597/ 333 56669 59012;
0180480010999992000070312004+27320+097420FM-12+0409VBPT V0203501N000510021019N0050001N1+02601+02401099871ADDAA199000021AY161061AY261061GF108991051091002501071999KA1120M+02801MD1999999+0051MW1511REMSYN082AAXX  03124 48001 31350 83501 10260 20240 49987 75166 8597/ 333 10280 56690 58005;
0150480010999992000070403004+27320+097420FM-12+0409VBPT V0203401N000510021019N0030001N1+02401+02401100321ADDAY151031AY251031GF108991051091002501071999MD1999999+0021MW1521REMSYN076AAXX  04034 48001 21330 83401 10240 20240 40032 75255 8597/ 333 56669 58002;
0141480010999992000070412004+27320+097420FM-12+0409VBPT V0209999C000010360019N0060001N1+02601+02451099931ADDGF106991041091004501061001KA1120M+02751MD1999999+0021REMSYN076AAXX  04124 48001 22456 60000 10260 20245 49993 84960 333 10275 56660 58002;
0150480010999992000070503004+27320+097420FM-12+0409VBPT V0200901N000510021019N0030001N1+02401+02401100351ADDAY151031AY251031GF108991061091002501071999MD1999999+0041MW1521REMSYN076AAXX  05034 48001 21330 80901 10240 20240 40035 75255 8697/ 333 56669 58004;
0152480010999992000070512004+27320+097420FM-12+0409VBPT V0200901N000510360019N0080001N1+02901+02481100781ADDAA199000021GF106991041091004501071001KA1120M+03031MD1999999-0711REMSYN076AAXX  05124 48001 32458 60901 10290 20248 40078 84970 333 10303 56660 59071;
0150480010999992000070606004+27320+097420FM-12+0409VBPT V0201401N000510360019N0080001N1+02701+02401100191ADDAY161061AY251061GF105991041081004501051001MD1999999-0071MW1011REMSYN076AAXX  06064 48001 22458 51401 10270 20240 40019 70165 84850 333 56999 59007;
0150480010999992000071503004+27320+097420FM-12+0409VBPT V0201401N000510021019N0050001N1+02801+02351100111ADDAY151031AY251031GF108991051091002501071999MD1999999-0071MW1511REMSYN076AAXX  15034 48001 21350 81401 10280 20235 40011 75155 8597/ 333 56559 59007;
0133480010999992000071506004+27320+097420FM-12+0409VBPT V0200901N000510360019N0100001N1+02801+02331099941ADDAA199000021GF105991031031008001051001MD1999999-0081REMSYN070AAXX  15064 48001 32560 50901 10280 20233 49994 83350 333 56550 59008;
0199480010999992000071512004+27320+097420FM-12+0409VBPT V0201401N000510360019N0080001N1+03001+02531100822ADDAA199000021AY191061AY291061GF106991041091004501061001KA1120M+03251MD1999999-0151MW1171REMSYN082AAXX  15124 48001 31458 61401 10300 20253 40082 71799 84960 333 10325 56550 59015;EQDQ01+100823APOSLP
0152480010999992000071609004+27320+097420FM-12+0409VBPT V0201401N000512200019N0100001N1+03301+02341099541ADDAA199000091GF103991021021004501051001MD1999999-0041REMSYN070AAXX  16094 48001 32460 31401 10330 20234 49954 82250 333 56550 59004;EQDQ01  00002PRCP99
0171480010999992000071612004+27320+097420FM-12+0409VBPT V0200901N000512200019N0100001N1+03201+02361099471ADDAA199000091GF104991031091004501071001KA1120M+03251MD1999999-0021REMSYN076AAXX  16124 48001 32460 40901 10320 20236 49947 83970 333 10325 56550 59002;EQDQ01  00002PRCP99
0122480010999992000071703004+27320+097420FM-12+0409VBPT V0200401N000510021019N0050001N1+02901+02441100061ADDGF108991051091002501051001MD1999999-0111REMSYN070AAXX  17034 48001 22350 80401 10290 20244 40006 85950 333 56559 59011;
0152480010999992000071706004+27320+097420FM-12+0409VBPT V0201401N000510360019N0100001N1+03101+02651099851ADDAA199000091GF105991031081004501051001MD1999999-0041REMSYN070AAXX  17064 48001 32460 51401 10310 20265 49985 83850 333 56550 59004;EQDQ01  00002PRCP99
0171480010999992000071712004+27320+097420FM-12+0409VBPT V0200901N000512200019N0080001N1+03001+02391099661ADDAA199000091GF104991031091004501051001KA1120M+03371MD1999999+0081REMSYN076AAXX  17124 48001 31458 40901 10300 20239 49966 83950 333 10337 56550 58008;EQDQ01  00002PRCP99
0152480010999992000071803004+27320+097420FM-12+0409VBPT V0201401N000510042019N0060001N1+02701+02261100051ADDAA199000091GF108991051091004501071999MD1999999-0021REMSYN070AAXX  18034 48001 32456 81401 10270 20226 40005 8597/ 333 56559 59002;EQDQ01  00002PRCP99
0163480010999992000071812004+27320+097420FM-12+0409VBPT V0200901N001010021019N0040001N1+02501+02501099791ADDAY161061AY261061GF108991051091002501071999KA1120M+02721MD1999999+0241MW1631REMSYN076AAXX  18124 48001 21340 80902 10250 20250 49979 76366 8597/ 333 10272 58024;
0150480010999992000071903004+27320+097420FM-12+0409VBPT V0203401N000510360019N0030001N1+02501+02501100001ADDAY151031AY251031GF108991041091002501071999MD1999999-0071MW1511REMSYN076AAXX  19034 48001 21330 83401 10250 20250 40000 75155 8497/ 333 56559 59007;
0122480010999992000072003004+27320+097420FM-12+0409VBPT V0201401N001510021019N0050001N1+02601+02291100371ADDGF108991051091002501061001MD1999999+0391REMSYN070AAXX  20034 48001 22350 81403 10260 20229 40037 85960 333 56339 58039;
0152480010999992000072006004+27320+097420FM-12+0409VBPT V0202301N000510360019N0080001N1+02801+02331100271ADDAA199000091GF106991041031004501051001MD1999999+0371REMSYN070AAXX  20064 48001 32458 62301 10280 20233 40027 84350 333 56330 58037;EQDQ01  00002PRCP99
0171480010999992000072012004+27320+097420FM-12+0409VBPT V0200901N000510360019N0060001N1+03121+02371099671ADDAA199000091GF105991031091004501051001KA1120M+03331MD1999999+0111REMSYN076AAXX  20124 48001 32456 50901 10312 20237 49967 83950 333 10333 56339 58011;EQDQ01  00002PRCP99
0122480010999992000072103004+27320+097420FM-12+0409VBPT V0201401N000510360019N0100001N1+02701+02401100451ADDGF105991031081004501051001MD1999999+0081REMSYN070AAXX  21034 48001 22460 51401 10270 20240 40045 83850 333 56330 58008;
0152480010999992000072106004+27320+097420FM-12+0409VBPT V0201401N000510360019N0100001N1+03001+02391100251ADDAA199000091GF105991031081004501051001MD1999999-0021REMSYN070AAXX  21064 48001 32460 51401 10300 20239 40025 83850 333 56330 59002;EQDQ01  00002PRCP99
0122480010999992000072203004+27320+097420FM-12+0409VBPT V0201401N000510360019N0080001N1+02501+02441100351ADDGF108991041091002501071999MD1999999-0101REMSYN070AAXX  22034 48001 22358 81401 10250 20244 40035 8497/ 333 56559 59010;
0122480010999992000072303004+27320+097420FM-12+0409VBPT V0200901N000510042019N0060001N1+02501+02341100181ADDGF107991051091004501071001MD1999999-0171REMSYN070AAXX  23034 48001 22456 70901 10250 20234 40018 85970 333 56330 59017;
0150480010999992000072403004+27320+097420FM-12+0409VBPT V0209999C000010360019N0040001N1+02401+02401100181ADDAY151031AY251031GF108991041081002501071001MD1999999-0101MW1501REMSYN076AAXX  24034 48001 21340 80000 10240 20240 40018 75055 84870 333 56330 59010;
0150480010999992000072603004+27320+097420FM-12+0409VBPT V0201801N001010021019N0050001N1+02501+02341100401ADDAY191031AY261031GF108991051091002501071999MD1999999+0121MW1951REMSYN076AAXX  26034 48001 21350 81802 10250 20234 40040 79596 8597/ 333 56449 58012;
0133480010999992000072606004+27320+097420FM-12+0409VBPT V0200401N000510042019N0060001N1+02801+02331100341ADDAA199000021GF106991051091004501051001MD1999999+0261REMSYN070AAXX  26064 48001 32456 60401 10280 20233 40034 85950 333 56440 58026;
0150480010999992000072803004+27320+097420FM-12+0409VBPT V0202301N000510021019N0050001N1+02501+02331100411ADDAY151031AY251031GF107991051091002501071001MD1999999+0031MW1501REMSYN076AAXX  28034 48001 21350 72301 10250 20233 40041 75055 85970 333 56449 58003;
0122480010999992000072903004+27320+097420FM-12+0409VBPT V0201401N000512200019N0100001N1+02601+02441100551ADDGF104991031081004501051001MD1999999+0141REMSYN070AAXX  29034 48001 22460 41401 10260 20244 40055 83850 333 56440 58014;
0122480010999992000073003004+27320+097420FM-12+0409VBPT V0201401N000510075019N0050001N1+02501+02341100551ADDGF108991051091008001071999MD1999999+0011REMSYN070AAXX  30034 48001 22550 81401 10250 20234 40055 8597/ 333 56449 58001;
0150480010999992000080103004+27320+097420FM-12+0409VBPT V0201401N000510021019N0040001N1+02541+02441100221ADDAY151031AY251031GF108991051091002501071999MD1999999-0081MW1521REMSYN076AAXX  01034 48001 21340 81401 10254 20244 40022 75255 8597/ 333 56459 59008;
0150480010999992000080303004+27320+097420FM-12+0409VBPT V0201401N000510012019N0030001N1+02401+02401100271ADDAY151031AY251031GF108991051071001501071999MD1999999-0101MW1511REMSYN076AAXX  03034 48001 21230 81401 10240 20240 40027 75155 8577/ 333 56339 59010;
0150480010999992000080403004+27320+097420FM-12+0409VBPT V0201401N000510021019N0050001N1+02501+02341100301ADDAY151031AY251031GF108991051091002501071999MD1999999+0031MW1501REMSYN076AAXX  04034 48001 21350 81401 10250 20234 40030 75055 8597/ 333 56339 58003;
0122480010999992000080603004+27320+097420FM-12+0409VBPT V0202701N000510360019N0080001N1+02701+02401100241ADDGF106991031081004501061001MD1999999-0101REMSYN070AAXX  06034 48001 22458 62701 10270 20240 40024 83860 333 56550 59010;
0150480010999992000081403004+27320+097420FM-12+0409VBPT V0202701N000510021019N0040001N1+02451+02451100621ADDAY151031AY251031GF108991061091002501071999MD1999999+0011MW1521REMSYN076AAXX  14034 48001 21340 82701 10245 20245 40062 75255 8697/ 333 56229 58001;
0150480010999992000081803004+27320+097420FM-12+0409VBPT V0200901N001010021019N0050001N1+02501+02501100381ADDAY151031AY251031GF108991051091002501071999MD1999999+0151MW1501REMSYN076AAXX  18034 48001 21350 80902 10250 20250 40038 75055 8597/ 333 56229 58015;
0122480010999992000082103004+27320+097420FM-12+0409VBPT V0201401N000510360019N0060001N1+02501+02341100441ADDGF107991041091002501061001MD1999999-0201REMSYN070AAXX  21034 48001 22356 71401 10250 20234 40044 84960 333 56330 59020;
0150480010999992000082203004+27320+097420FM-12+0409VBPT V0201401N000510360019N0060001N1+02601+02441100571ADDAY151031AY251031GF107991041091004501071001MD1999999+0131MW1501REMSYN076AAXX  22034 48001 21456 71401 10260 20244 40057 75055 84970 333 56440 58013;
0122480010999992000082303004+27320+097420FM-12+0409VBPT V0201401N000510360019N0070001N1+02601+02441100001ADDGF107991041081004501061001MD1999999+0061REMSYN070AAXX  23034 48001 22457 71401 10260 20244 40000 84860 333 56220 58006;
0152480010999992000082403004+27320+097420FM-12+0409VBPT V0209999C000010360019N0080001N1+02701+02401100421ADDAA199000091GF106991041081004501051001MD1999999-0211REMSYN070AAXX  24034 48001 32458 60900 10270 20240 40042 84850 333 56120 59021;EQDQ01  00002PRCP99
0152480010999992000082603004+27320+097420FM-12+0409VBPT V0203401N000510360019N0060001N1+02701+02461100551ADDAA199000091GF108991041091002501071999MD1999999+0031REMSYN070AAXX  26034 48001 32356 83401 10270 20246 40055 8497/ 333 56229 58003;EQDQ01  00002PRCP99
0150480010999992000082803004+27320+097420FM-12+0409VBPT V0201401N000510021019N0040001N1+02501+02501100381ADDAY151031AY251031GF108991051091002501071999MD1999999-0141MW1511REMSYN076AAXX  28034 48001 21340 81401 10250 20250 40038 75155 8597/ 333 56889 59014;
0150480010999992000082903004+27320+097420FM-12+0409VBPT V0209999C000010021019N0050001N1+02401+02401100441ADDAY151031AY251031GF108991061091002501071999MD1999999+0051MW1511REMSYN076AAXX  29034 48001 21350 80000 10240 20240 40044 75155 8697/ 333 56889 58005;
0122480010999992000090203004+27320+097420FM-12+0409VBPT V0202301N000510360019N0080001N1+02701+02401100231ADDGF105991031091004501051001MD1999999+0071REMSYN070AAXX  02034 48001 22458 52301 10270 20240 40023 83950 333 56880 58007;
0150480010999992000090603004+27320+097420FM-12+0409VBPT V0201401N000510021019N0060001N1+02351+02351100561ADDAY191031AY261031GF108991051091002501071999MD1999999-0151MW1951REMSYN076AAXX  06034 48001 21356 81401 10235 20235 40056 79596 8597/ 333 56889 59015;
0150480010999992000090803004+27320+097420FM-12+0409VBPT V0209999C000010021019N0050001N1+02501+02341100811ADDAY151031AY251031GF106991051091002501071999MD1999999+0121MW1501REMSYN076AAXX  08034 48001 21350 60000 10250 20234 40081 75055 8597/ 333 56770 58012;
0122480010999992000091003004+27320+097420FM-12+0409VBPT V0201401N003610360019N0060001N1+02401+02401100571ADDGF107991041091004501061001MD1999999-0071REMSYN070AAXX  10034 48001 22456 71407 10240 20240 40057 84960 333 56330 59007;
0122480010999992000091103004+27320+097420FM-12+0409VBPT V0201401N000510360019N0060001N1+02501+02341100341ADDGF107991041091002501061001MD1999999-0331REMSYN070AAXX  11034 48001 22356 71401 10250 20234 40034 84960 333 56330 59033;
0152480010999992000091206004+27320+097420FM-12+0409VBPT V0202701N000510360019N0080001N1+02801+02331100521ADDAA199000091GF105991031081004501051001MD1999999+0381REMSYN070AAXX  12064 48001 32458 52701 10280 20233 40052 83850 333 56330 58038;EQDQ01  00002PRCP99
0152480010999992000091306004+27320+097420FM-12+0409VBPT V0202701N000512200019N0100001N1+02901+02301100841ADDAA199000091GF104991031021004501051001MD1999999-0121REMSYN070AAXX  13064 48001 32460 42701 10290 20230 40084 83250 333 56450 59012;EQDQ01  00002PRCP99
0150480010999992000091603004+27320+097420FM-12+0409VBPT V0200401N000510120019N0060001N1+02101+02101101191ADDAY151031AY251031GF108991051091012501071999MD1999999+0141MW1511REMSYN076AAXX  16034 48001 21656 80401 10210 20210 40119 75155 8597/ 333 56559 58014;
0169480010999992000091712004+27320+097420FM-12+0409VBPT V0200401N000510003019N9999999N1+02201+02051101201ADDAY151061AY251061GF108991051091000251071999KA1120M+02321MD1999999+0121MW1501REMSYN082AAXX  17124 48001 430// 80401 10220 20205 40120 75055 8597/ 333 10232 56889 58012;
0150480010999992000091803004+27320+097420FM-12+0409VBPT V0209999C000010021019N0050001N1+02101+02101101151ADDAY151031AY251031GF108991051091002501071999MD1999999-0231MW1501REMSYN076AAXX  18034 48001 21350 80000 10210 20210 40115 75055 8597/ 333 56559 59023;
0133480010999992000091806004+27320+097420FM-12+0409VBPT V0201401N001010360019N0060001N1+02401+02091100961ADDAA199000021GF107991041091004501051001MD1999999-0191REMSYN070AAXX  18064 48001 32456 71402 10240 20209 40096 84950 333 56550 59019;
0152480010999992000091903004+27320+097420FM-12+0409VBPT V0201201N000510090019N0100001N1+02401+02091101031ADDAA199000091GF105991051081004501051001MD1999999-0081REMSYN070AAXX  19034 48001 32460 51201 10240 20209 40103 85850 333 56440 59008;EQDQ01  00002PRCP99
0171480010999992000091912004+27320+097420FM-12+0409VBPT V0201401N000512200019N0080001N1+02701+02261100621ADDAA199000091GF104991041091004501071001KA1120M+02851MD1999999+0151REMSYN076AAXX  19124 48001 32458 41401 10270 20226 40062 84970 333 10285 56449 58015;EQDQ01  00002PRCP99
0171480010999992000092112004+27320+097420FM-12+0409VBPT V0200901N000512200019N0060001N1+03001+02291100671ADDAA199000091GF103991021091004501051001KA1120M+03201MD1999999-0091REMSYN076AAXX  21124 48001 32456 30901 10300 20229 40067 82950 333 10320 56550 59009;EQDQ01  00002PRCP99
0150480010999992000092203004+27320+097420FM-12+0409VBPT V0201401N000510360019N0060001N1+02501+02181101351ADDAY151031AY251031GF106991041081004501051001MD1999999+0021MW1501REMSYN076AAXX  22034 48001 21456 61401 10250 20218 40135 75055 84850 333 56550 58002;
0122480010999992000092303004+27320+097420FM-12+0409VBPT V0200101N004610360019N0080001N1+02401+02261101191ADDGF107991041091004501061001MD1999999-0171REMSYN070AAXX  23034 48001 22458 70109 10240 20226 40119 84960 333 56550 59017;
0150480010999992000092403004+27320+097420FM-12+0409VBPT V0202701N000510021019N0030001N1+02301+02301101061ADDAY161031AY261031GF108991051091002501071999MD1999999-0121MW1611REMSYN076AAXX  24034 48001 21330 82701 10230 20230 40106 76166 8597/ 333 56559 59012;
0169480010999992000092412004+27320+097420FM-12+0409VBPT V0200901N000510360019N0050001N1+02501+02351100671ADDAY151061AY251061GF107991041091002501071001KA1120M+02801MD1999999-0121MW1501REMSYN082AAXX  24124 48001 21350 70901 10250 20235 40067 75055 84970 333 10280 56550 59012;
0150480010999992000092506004+27320+097420FM-12+0409VBPT V0200901N000510360019N0060001N1+02501+02201100961ADDAY161061AY251061GF106991041091004501061001MD1999999-0031MW1011REMSYN076AAXX  25064 48001 22456 60901 10250 20220 40096 70165 84960 333 56660 59003;
0152480010999992000092606004+27320+097420FM-12+0409VBPT V0200901N001012200019N0100001N1+02901+02301100841ADDAA199000091GF104991031061004501051001MD1999999-0071REMSYN070AAXX  26064 48001 32460 40902 10290 20230 40084 83650 333 56550 59007;EQDQ01  00002PRCP99
0122480010999992000092703004+27320+097420FM-12+0409VBPT V0200901N000512200019N0100001N1+02601+02291100971ADDGF104991031081008001051001MD1999999-0071REMSYN070AAXX  27034 48001 22560 40901 10260 20229 40097 83850 333 56550 59007;
0168480010999992000092806004+27320+097420FM-12+0409VBPT V0201401N000519999999N0100001N1+03001+02231100751ADDAA199000091GF105991999021004501001001MD1999999-0111REMSYN070AAXX  28064 48001 32460 51401 10300 20223 40075 82200 333 56550 59011;EQDQ01+000022SCOTLCQ02  00002PRCP99
0152480010999992000092900004+27320+097420FM-12+0409VBPT V0202301N000512200019N0100001N1+02701+02261100981ADDAA199000091GF102991021081004501001001MD1999999+0061REMSYN070AAXX  29004 48001 32460 22301 10270 20226 40098 82800 333 56500 58006;EQDQ01  00002PRCP99
0152480010999992000092906004+27320+097420FM-12+0409VBPT V0202301N000512200019N0100001N1+03001+02071100691ADDAA199000091GF102991021021004501001001MD1999999-0041REMSYN070AAXX  29064 48001 32460 22301 10300 20207 40069 82200 333 56900 59004;EQDQ01  00002PRCP99
0150480010999992000093003004+27320+097420FM-12+0409VBPT V0209999C000010021019N0040001N1+02101+02101101251ADDAY191031AY261031GF108991051091002501071999MD1999999+0261MW1951REMSYN076AAXX  30034 48001 21340 80000 10210 20210 40125 79596 8597/ 333 56559 58026;
0150480010999992000100103004+27320+097420FM-12+0409VBPT V0200901N000510021019N0050001N1+02201+02201101401ADDAY151031AY251031GF108991051091002501071999MD1999999+0121MW1501REMSYN076AAXX  01034 48001 21350 80901 10220 20220 40140 75055 8597/ 333 56559 58012;
