0156480770999992000010106004+18800+095220FM-12+0060VBPR V0200401N001012200019N0100001N1+02741+01331101531ADDAA106000091GA1001+999999999GF100991001001999999001001MD1999999+0031REMSYN058AAXX  01064 48077 32960 00402 10274 20133 40153 333 58003;EQDQ01  00002PRCP06
0156480770999992000010109004+18800+095220FM-12+0060VBPR V0200401N001512200019N0110001N1+03001+01241101181ADDAA106000091GA1001+999999999GF100991001001999999001001MD1999999-0061REMSYN058AAXX  01094 48077 32961 00403 10300 20124 40118 333 59006;EQDQ01  00002PRCP06
0175480770999992000010112004+18800+095220FM-12+0060VBPR V0209999C000012200019N0070001N1+02541+01501101301ADDAA106000091GA1001+999999999GF100991001001999999001001KA1120M+03001MD1999999+0031REMSYN064AAXX  01124 48077 32957 00000 10254 20150 40130 333 10300 58003;EQDQ01  00002PRCP06
0156480770999992000010203004+18800+095220FM-12+0060VBPR V0200401N002612200019N0100001N1+02251+01111101571ADDAA106000091GA1001+999999999GF100991001001999999001001MD1999999-0051REMSYN058AAXX  02034 48077 32960 00405 10225 20111 40157 333 59005;EQDQ01  00002PRCP06
0156480770999992000010206004+18800+095220FM-12+0060VBPR V0200401N001512200019N0100001N1+02701+01331101481ADDAA106000091GA1001+999999999GF100991001001999999001001MD1999999-0051REMSYN058AAXX  02064 48077 32960 00403 10270 20133 40148 333 59005;EQDQ01  00002PRCP06
0156480770999992000010209004+18800+095220FM-12+0060VBPR V0200401N001012200019N0100001N1+02951+01241101131ADDAA106000091GA1001+999999999GF100991001001999999001001MD1999999-0051REMSYN058AAXX  02094 48077 32960 00402 10295 20124 40113 333 59005;EQDQ01  00002PRCP06
0171480770999992000010300004+18800+095220FM-12+0060VBPR V0200401N001512200019N0070001N1+01741+01351101341ADDAA106000091GF102991001001999999001011KA1120N+01721MD1999999-0051REMSYN076AAXX  03004 48077 31957 20403 10174 20135 40134 80001 333 20172 56009 59005;EQDQ01  00002PRCP06
0152480770999992000010306004+18800+095220FM-12+0060VBPR V0200401N001012200019N0110001N1+02801+01461101381ADDAA106000091GF102991001001999999001011MD1999999-0101REMSYN070AAXX  03064 48077 32961 20402 10280 20146 40138 80001 333 56009 59010;EQDQ01  00002PRCP06
0184480770999992000010309004+18800+095220FM-12+0060VBPR V0200401N001012200019N0100001N1+03061+01461101041ADDAA106000091AY101031AY201031GA1001+999999999GF100991001001999999001001MD1999999-0091MW1051REMSYN064AAXX  03094 48077 31960 00402 10306 20146 40104 70500 333 59009;EQDQ01  00002PRCP06
0215480770999992000010312004+18800+095220FM-12+0060VBPR V0209999C000012200019N0080001N1+02701+01721101031ADDAA106000091AY101061AY201061GA1001+999999999GF100991001001999999001001KA1120M+03071MD1999999-0131MW1051REMSYN082AAXX  03124 48077 31558 00000 10270 20172 40103 70500 81200 333 10307 56900 59013;EQDQ01  00002PRCP06
0175480770999992000010400004+18800+095220FM-12+0060VBPR V0200401N000512200019N0080001N1+01801+01471101201ADDAA106000091GA1001+999999999GF100991001001999999001001KA1120N+01751MD1999999-0141REMSYN064AAXX  04004 48077 32958 00401 10180 20147 40120 333 20175 59014;EQDQ01  00002PRCP06
0156480770999992000010403004+18800+095220FM-12+0060VBPR V0200101N002112200019N0100001N1+02201+01561101361ADDAA106000091GA1001+999999999GF100991001001999999001001MD1999999-0081REMSYN058AAXX  04034 48077 32960 00104 10220 20156 40136 333 59008;EQDQ01  00002PRCP06
0156480770999992000010406004+18800+095220FM-12+0060VBPR V0200401N000512200019N0110001N1+02801+01591101361ADDAA106000091GA1001+999999999GF100991001001999999001001MD1999999-0041REMSYN058AAXX  04064 48077 32961 00401 10280 20159 40136 333 59004;EQDQ01  00002PRCP06
0156480770999992000010409004+18800+095220FM-12+0060VBPR V0203601N000512200019N0150001N1+03171+01631101781ADDAA106000091GA1001+999999999GF100991001001999999001001MD1999999+0041REMSYN058AAXX  04094 48077 32965 03601 10317 20163 40178 333 58004;EQDQ01  00002PRCP06
0191480770999992000010412004+18800+095220FM-12+0060VBPR V0209999C000012200019N0080001N1+02701+01731101082ADDAA106000091GA1001+999999999GF100991001001999999001001KA1120M+03181MD1999999+0051REMSYN064AAXX  04124 48077 32958 00000 10270 20173 40108 333 10318 58005;EQDQ01+101083APOSLPQ02  00002PRCP06
0175480770999992000010500004+18800+095220FM-12+0060VBPR V0200401N001012200019N0080001N1+01801+01471101311ADDAA106000091GA1001+999999999GF100991001001999999001001KA1120N+01731MD1999999+0111REMSYN064AAXX  05004 48077 32958 00402 10180 20147 40131 333 20173 58011;EQDQ01  00002PRCP06
0156480770999992000010503004+18800+095220FM-12+0060VBPR V0200401N001012200019N0100001N1+02271+01631101451ADDAA106000091GA1001+999999999GF100991001001999999001001MD1999999+0101REMSYN058AAXX  05034 48077 32960 00402 10227 20163 40145 333 58010;EQDQ01  00002PRCP06
0156480770999992000010506004+18800+095220FM-12+0060VBPR V0200401N001512200019N0100001N1+02901+01591101401ADDAA106000091GA1001+999999999GF100991001001999999001001MD1999999+0051REMSYN058AAXX  05064 48077 32960 00403 10290 20159 40140 333 58005;EQDQ01  00002PRCP06
0156480770999992000010509004+18800+095220FM-12+0060VBPR V0200401N001012200019N0090001N1+03161+01631101061ADDAA106000091GA1001+999999999GF100991001001999999001001MD1999999-0031REMSYN058AAXX  05094 48077 32959 00402 10316 20163 40106 333 59003;EQDQ01  00002PRCP06
0171480770999992000010512004+18800+095220FM-12+0060VBPR V0209999C000012200019N0080001N1+02701+01721101051ADDAA106000091GF102991001001999999001011KA1120M+03161MD1999999-0031REMSYN076AAXX  05124 48077 32958 20000 10270 20172 40105 80001 333 10316 56009 59003;EQDQ01  00002PRCP06
0156480770999992000010603004+18800+095220FM-12+0060VBPR V0203601N000512200019N0100001N1+02251+01561101381ADDAA106000091GA1001+999999999GF100991001001999999001001MD1999999-0081REMSYN058AAXX  06034 48077 32960 03601 10225 20156 40138 333 59008;EQDQ01  00002PRCP06
0152480770999992000010606004+18800+095220FM-12+0060VBPR V0203601N001012200019N0110001N1+02901+01591101281ADDAA106000091GF104991001001999999031011MD1999999-0111REMSYN070AAXX  06064 48077 32961 43602 10290 20159 40128 80031 333 56099 59011;EQDQ01  00002PRCP06
0171480770999992000010612004+18800+095220FM-12+0060VBPR V0209999C000012200019N0080001N1+02671+01721101001ADDAA106000091GF101991001001999999001011KA1120M+03221MD1999999-0051REMSYN076AAXX  06124 48077 32958 10000 10267 20172 40100 80001 333 10322 56009 59005;EQDQ01  00002PRCP06
0171480770999992000010700004+18800+095220FM-12+0060VBPR V0209999C000010450019N0060001N1+02001+01681101161ADDAA106000091GF108991041081008001071001KA1120N+01901MD1999999-0031REMSYN076AAXX  07004 48077 32556 80000 10200 20168 40116 84870 333 20190 56590 59003;EQDQ01  00002PRCP06
0152480770999992000010703004+18800+095220FM-12+0060VBPR V0200401N000510450019N0090001N1+02201+01731101311ADDAA106000091GF108991041081008001071001MD1999999-0061REMSYN070AAXX  07034 48077 32559 80401 10220 20173 40131 84870 333 56590 59006;EQDQ01  00002PRCP06
0168480770999992000010706004+18800+095220FM-12+0060VBPR V0203601N000512200019N0100001N1+02701+01921101271ADDAA106000091GF102991999081008001071001MD1999999-0011REMSYN070AAXX  07064 48077 32560 23601 10270 20192 40127 84870 333 56590 59001;EQDQ01+000042SCOTLCQ02  00002PRCP06
0152480770999992000010709004+18800+095220FM-12+0060VBPR V0209999C000010450019N0100001N1+02861+01791101081ADDAA106000091GF107991041081022501031001MD1999999+0081REMSYN070AAXX  07094 48077 32860 70000 10286 20179 40108 84830 333 56590 58008;EQDQ01  00002PRCP06
0171480770999992000010712004+18800+095220FM-12+0060VBPR V0209999C000010450019N0060001N1+02701+01911101071ADDAA106000091GF106991031081008001031011KA1120M+03301MD1999999-0071REMSYN076AAXX  07124 48077 32556 60000 10270 20191 40107 83831 333 10330 56999 59007;EQDQ01  00002PRCP06
0171480770999992000010800004+18800+095220FM-12+0060VBPR V0200401N001012200019N0080001N1+01701+01351101251ADDAA106000091GF102991001001999999001011KA1120N+01661MD1999999+0091REMSYN076AAXX  08004 48077 32958 20402 10170 20135 40125 80001 333 20166 56009 58009;EQDQ01  00002PRCP06
0168480770999992000010803004+18800+095220FM-12+0060VBPR V0203601N000512200019N0100001N1+02201+01961101391ADDAA106000091GF102991999081999999001001MD1999999+0081REMSYN070AAXX  08034 48077 32960 23601 10220 20196 40139 83800 333 56090 58008;EQDQ01+000032SCOTLCQ02  00002PRCP06
0152480770999992000010806004+18800+095220FM-12+0060VBPR V0209999C000019999999N0110001N1+02901+01591101341ADDAA106000091GF105991001001999999031011MD1999999+0061REMSYN070AAXX  08064 48077 32961 50000 10290 20159 40134 80031 333 56099 58006;EQDQ01  00002PRCP06
0171480770999992000010812004+18800+095220FM-12+0060VBPR V0209999C000012200019N0070001N1+02621+01601101031ADDAA106000091GF101991001001999999001011KA1120M+03161MD1999999-0041REMSYN076AAXX  08124 48077 32957 10000 10262 20160 40103 80001 333 10316 56009 59004;EQDQ01  00002PRCP06
0187480770999992000010900004+18800+095220FM-12+0060VBPR V0200401N001012200019N0070001N1+01631+01441101201ADDAA106000091GF102991999001999999031001KA1120N+01601MD1999999-0051REMSYN076AAXX  09004 48077 32957 20402 10163 20144 40120 80030 333 20160 56090 59005;EQDQ01+000002SCOTLCQ02  00002PRCP06
0152480770999992000010909004+18800+095220FM-12+0060VBPR V0209999C000012200019N0110001N1+03101+00681101011ADDAA106000091GF103991001001999999031011MD1999999-0031REMSYN070AAXX  09094 48077 32961 30000 10310 20068 40101 80031 333 56090 59003;EQDQ01  00002PRCP06
0187480770999992000010912004+18800+095220FM-12+0060VBPR V0209999C000012200019N0080001N1+02711+01331101011ADDAA106000091GF102991999001999999031001KA1120M+03201MD1999999-0021REMSYN076AAXX  09124 48077 32958 20000 10271 20133 40101 80030 333 10320 56090 59002;EQDQ01+000002SCOTLCQ02  00002PRCP06
0175480770999992000011000004+18800+095220FM-12+0060VBPR V0209999C000012200019N0060001N1+01401+01241101181ADDAA106000091GA1001+999999999GF100991001001999999001001KA1120N+01381MD1999999-0021REMSYN064AAXX  10004 48077 32956 00000 10140 20124 40118 333 20138 59002;EQDQ01  00002PRCP06
0140480770999992000011003004+18800+095220FM-12+0060VBPR V0203601N001012200019N0100001N1+02001+01301101321ADDAA106000091GF102991999999999999999999MD1999999-0131REMSYN058AAXX  10034 48077 32960 23602 10200 20130 40132 333 59013;EQDQ01  00002PRCP06
0156480770999992000011006004+18800+095220FM-12+0060VBPR V0200401N001012200019N0001001N1+02501+00981101271ADDAA106000091GA1001+999999999GF100991001001999999001001MD1999999+0041REMSYN058AAXX  10064 48077 32901 00402 10250 20098 40127 333 58004;EQDQ01  00002PRCP06
0156480770999992000011009004+18800+095220FM-12+0060VBPR V0209999C000012200019N0110001N1+03301+00761101001ADDAA106000091GA1001+999999999GF100991001001999999001001MD1999999-0011REMSYN058AAXX  10094 48077 32961 00000 10330 20076 40100 333 59001;EQDQ01  00002PRCP06
0175480770999992000011100004+18800+095220FM-12+0060VBPR V0209999C000012200019N0060001N1+01411+01241101221ADDAA106000091GA1001+999999999GF100991001001999999001001KA1120N+01391MD1999999+0041REMSYN064AAXX  11004 48077 32956 00000 10141 20124 40122 333 20139 58004;EQDQ01  00002PRCP06
0156480770999992000011103004+18800+095220FM-12+0060VBPR V0200401N001012200019N0100001N1+02001+01301101431ADDAA106000091GA1001+999999999GF100991001001999999001001MD1999999+0101REMSYN058AAXX  11034 48077 32960 00402 10200 20130 40143 333 58010;EQDQ01  00002PRCP06
0156480770999992000011106004+18800+095220FM-12+0060VBPR V0203601N000512200019N0110001N1+02901+01591101321ADDAA106000091GA1001+999999999GF100991001001999999001001MD1999999+0041REMSYN058AAXX  11064 48077 32961 03601 10290 20159 40132 333 58004;EQDQ01  00002PRCP06
0175480770999992000011112004+18800+095220FM-12+0060VBPR V0209999C000012200019N0080001N1+02701+01721101021ADDAA106000091GA1001+999999999GF100991001001999999001001KA1120M+03281MD1999999-0061REMSYN064AAXX  11124 48077 32958 00000 10270 20172 40102 333 10328 59006;EQDQ01  00002PRCP06
0175480770999992000011200004+18800+095220FM-12+0060VBPR V0209999C000012200019N0060001N1+01721+01541101201ADDAA106000091GA1001+999999999GF100991001001999999001001KA1120N+01701MD1999999-0021REMSYN064AAXX  12004 48077 32956 00000 10172 20154 40120 333 20170 59002;EQDQ01  00002PRCP06
0156480770999992000011203004+18800+095220FM-12+0060VBPR V0203601N000512200019N0100001N1+02101+01601101411ADDAA106000091GA1001+999999999GF100991001001999999001001MD1999999-0011REMSYN058AAXX  12034 48077 32960 03601 10210 20160 40141 333 59001;EQDQ01  00002PRCP06
0156480770999992000011206004+18800+095220FM-12+0060VBPR V0202301N000512200019N0110001N1+02901+01791101321ADDAA106000091GA1001+999999999GF100991001001999999001001MD1999999+0001REMSYN058AAXX  12064 48077 32961 02301 10290 20179 40132 333 58000;EQDQ01  00002PRCP06
0156480770999992000011209004+18800+095220FM-12+0060VBPR V0209999C000012200019N0110001N1+03361+01641101001ADDAA106000091GA1001+999999999GF100991001001999999001001MD1999999-0051REMSYN058AAXX  12094 48077 32961 00000 10336 20164 40100 333 59005;EQDQ01  00002PRCP06
0175480770999992000011212004+18800+095220FM-12+0060VBPR V0209999C000012200019N0080001N1+02801+01841101121ADDAA106000091GA1001+999999999GF100991001001999999001001KA1120M+03361MD1999999+0111REMSYN064AAXX  12124 48077 32958 00000 10280 20184 40112 333 10336 58011;EQDQ01  00002PRCP06
0175480770999992000011300004+18800+095220FM-12+0060VBPR V0200401N000512200019N0080001N1+01701+01541101111ADDAA106000091GA1001+999999999GF100991001001999999001001KA1120N+01671MD1999999-0101REMSYN064AAXX  13004 48077 32958 00401 10170 20154 40111 333 20167 59010;EQDQ01  00002PRCP06
0156480770999992000011303004+18800+095220FM-12+0060VBPR V0200401N001012200019N0100001N1+02101+01601101261ADDAA106000091GA1001+999999999GF100991001001999999001001MD1999999-0161REMSYN058AAXX  13034 48077 32960 00402 10210 20160 40126 333 59016;EQDQ01  00002PRCP06
0156480770999992000011306004+18800+095220FM-12+0060VBPR V0203601N000512200019N0110001N1+03001+01661101191ADDAA106000091GA1001+999999999GF100991001001999999001001MD1999999-0121REMSYN058AAXX  13064 48077 32961 03601 10300 20166 40119 333 59012;EQDQ01  00002PRCP06
0156480770999992000011309004+18800+095220FM-12+0060VBPR V0209999C000012200019N0100001N1+03401+01841100941ADDAA106000091GA1001+999999999GF100991001001999999001001MD1999999-0061REMSYN058AAXX  13094 48077 32960 00000 10340 20184 40094 333 59006;EQDQ01  00002PRCP06
0175480770999992000011312004+18800+095220FM-12+0060VBPR V0209999C000012200019N0070001N1+02841+01581100901ADDAA106000091GA1001+999999999GF100991001001999999001001KA1120M+03401MD1999999-0221REMSYN064AAXX  13124 48077 32957 00000 10284 20158 40090 333 10340 59022;EQDQ01  00002PRCP06
0179480770999992000011400004+18800+095220FM-12+006099999V0209999C000012200019N0060001N1+01661+01541101061ADDAA199000091GA1001+999999999GF100991001001999999001001KA1120N+01621MD1999999-0051REMSYN068    AAXX  14004 48077 32956 00000 10166 20154 40106 333 20162 59005;EQDQ01  00002PRCP99
0160480770999992000011403004+18800+095220FM-12+006099999V0200401N000512200019N0100001N1+02101+01601101161ADDAA199000091GA1001+999999999GF100991001001999999001001MD1999999-0101REMSYN062    AAXX  14034 48077 32960 00401 10210 20160 40116 333 59010;EQDQ01  00002PRCP99
0160480770999992000011406004+18800+095220FM-12+006099999V0209999C000012200019N0110001N1+02801+01461101141ADDAA199000091GA1001+999999999GF100991001001999999001001MD1999999-0041REMSYN062    AAXX  14064 48077 32961 00000 10280 20146 40114 333 59004;EQDQ01  00002PRCP99
0179480770999992000011412004+18800+095220FM-12+006099999V0209999C000012200019N0080001N1+02851+01461100841ADDAA199000091GA1001+999999999GF100991001001999999001001KA1120M+03301MD1999999-0061REMSYN068    AAXX  14124 48077 32958 00000 10285 20146 40084 333 10330 59006;EQDQ01  00002PRCP99
0207480770999992000011500004+18800+095220FM-12+006099999V0209999C000012200019N0050001N1+01621+01441101081ADDAA199000091AY101061AY201061GA1001+999999999GF100991001001999999001001KA1120N+01591MD1999999+0021MW1101REMSYN074    AAXX  15004 48077 31950 00000 10162 20144 40108 71000 333 20159 58002;EQDQ01  00002PRCP99
0160480770999992000011503004+18800+095220FM-12+006099999V0209999C000012200019N0100001N1+02201+01561101281ADDAA199000091GA1001+999999999GF100991001001999999001001MD1999999+0121REMSYN062    AAXX  15034 48077 32960 00000 10220 20156 40128 333 58012;EQDQ01  00002PRCP99
0160480770999992000011506004+18800+095220FM-12+006099999V0203601N000512200019N0110001N1+02941+01591101191ADDAA199000091GA1001+999999999GF100991001001999999001001MD1999999+0041REMSYN062    AAXX  15064 48077 32961 03601 10294 20159 40119 333 58004;EQDQ01  00002PRCP99
0160480770999992000011509004+18800+095220FM-12+006099999V0209999C000012200019N0110001N1+03401+01251100951ADDAA199000091GA1001+999999999GF100991001001999999001001MD1999999+0111REMSYN062    AAXX  15094 48077 32961 00000 10340 20125 40095 333 58011;EQDQ01  00002PRCP99
0179480770999992000011512004+18800+095220FM-12+006099999V0209999C000012200019N0070001N1+02861+01591100931ADDAA199000091GA1001+999999999GF100991001001999999001001KA1120M+03401MD1999999+0091REMSYN068    AAXX  15124 48077 32957 00000 10286 20159 40093 333 10340 58009;EQDQ01  00002PRCP99
0179480770999992000011600004+18800+095220FM-12+006099999V0200401N000512200019N0060001N1+01601+01441101281ADDAA199000091GA1001+999999999GF100991001001999999001001KA1120N+01551MD1999999+0201REMSYN068    AAXX  16004 48077 32956 00401 10160 20144 40128 333 20155 58020;EQDQ01  00002PRCP99
0160480770999992000011609004+18800+095220FM-12+006099999V0200401N000512200019N0110001N1+03431+01451101131ADDAA199000091GA1001+999999999GF100991001001999999001001MD1999999+0181REMSYN062    AAXX  16094 48077 32961 00401 10343 20145 40113 333 58018;EQDQ01  00002PRCP99
0179480770999992000011612004+18800+095220FM-12+006099999V0209999C000012200019N0060001N1+02751+01461101051ADDAA199000091GA1001+999999999GF100991001001999999001001KA1120M+03431MD1999999+0121REMSYN068    AAXX  16124 48077 32956 00000 10275 20146 40105 333 10343 58012;EQDQ01  00002PRCP99
0179480770999992000011700004+18800+095220FM-12+006099999V0200401N000512200019N0060001N1+01771+01471101261ADDAA199000091GA1001+999999999GF100991001001999999001001KA1120N+01741MD1999999-0021REMSYN068    AAXX  17004 48077 32956 00401 10177 20147 40126 333 20174 59002;EQDQ01  00002PRCP99
0160480770999992000011703004+18800+095220FM-12+006099999V0200401N000512200019N0100001N1+02201+01561101421ADDAA199000091GA1001+999999999GF100991001001999999001001MD1999999-0121REMSYN062    AAXX  17034 48077 32960 00401 10220 20156 40142 333 59012;EQDQ01  00002PRCP99
0160480770999992000011706004+18800+095220FM-12+006099999V0209999C000012200019N0110001N1+03101+01691101351ADDAA199000091GA1001+999999999GF100991001001999999001001MD1999999+0021REMSYN062    AAXX  17064 48077 32961 00000 10310 20169 40135 333 58002;EQDQ01  00002PRCP99
0160480770999992000011709004+18800+095220FM-12+006099999V0200401N000512200019N0110001N1+03501+01581101041ADDAA199000091GA1001+999999999GF100991001001999999001001MD1999999-0081REMSYN062    AAXX  17094 48077 32961 00401 10350 20158 40104 333 59008;EQDQ01  00002PRCP99
0179480770999992000011712004+18800+095220FM-12+006099999V0209999C000012200019N0070001N1+02901+01791101031ADDAA199000091GA1001+999999999GF100991001001999999001001KA1120M+03501MD1999999-0021REMSYN068    AAXX  17124 48077 32957 00000 10290 20179 40103 333 10350 59002;EQDQ01  00002PRCP99
0179480770999992000011800004+18800+095220FM-12+006099999V0209999C000012200019N0060001N1+01671+01541101281ADDAA199000091GA1001+999999999GF100991001001999999001001KA1120N+01611MD1999999+0011REMSYN068    AAXX  18004 48077 32956 00000 10167 20154 40128 333 20161 58001;EQDQ01  00002PRCP99
0160480770999992000011803004+18800+095220FM-12+006099999V0200401N001012200019N0100001N1+02201+01561101431ADDAA199000091GA1001+999999999GF100991001001999999001001MD1999999+0011REMSYN062    AAXX  18034 48077 32960 00402 10220 20156 40143 333 58001;EQDQ01  00002PRCP99
0160480770999992000011806004+18800+095220FM-12+006099999V0200401N000512200019N0110001N1+03001+01661101331ADDAA199000091GA1001+999999999GF100991001001999999001001MD1999999-0021REMSYN062    AAXX  18064 48077 31961 00401 10300 20166 40133 333 59002;EQDQ01  00002PRCP99
0160480770999992000011809004+18800+095220FM-12+006099999V0209999C000012200019N0110001N1+03301+01261101041ADDAA199000091GA1001+999999999GF100991001001999999001001MD1999999-0011REMSYN062    AAXX  18094 48077 32961 00000 10330 20126 40104 333 59001;EQDQ01  00002PRCP99
0195480770999992000011812004+18800+095220FM-12+006099999V0209999C000012200019N0080001N1+01872+01791101001ADDAA199000091GA1001+999999999GF100991001001999999001001KA1120M+03401MD1999999-0031REMSYN068    AAXX  18124 48077 32958 00000 10187 20179 40100 333 10340 59003;EQDQ01+001873ATOT  Q02  00002PRCP99
0207480770999992000011900004+18800+095220FM-12+006099999V0209999C000012200019N0050001N1+01701+01351101211ADDAA199000091AY101061AY201061GA1001+999999999GF100991001001999999001001KA1120N+01661MD1999999-0071MW1101REMSYN074    AAXX  19004 48077 31950 00000 10170 20135 40121 71000 333 20166 59007;EQDQ01  00002PRCP99
0160480770999992000011903004+18800+095220FM-12+006099999V0203601N001012200019N0090001N1+02201+01561101361ADDAA199000091GA1001+999999999GF100991001001999999001001MD1999999-0071REMSYN062    AAXX  19034 48077 32959 03602 10220 20156 40136 333 59007;EQDQ01  00002PRCP99
0188480770999992000011909004+18800+095220FM-12+006099999V0209999C000012200019N0070001N1+03201+01401100961ADDAA199000091AY101031AY201031GA1001+999999999GF100991001001999999001001MD1999999-0021MW1051REMSYN068    AAXX  19094 48077 31957 00000 10320 20140 40096 70500 333 59002;EQDQ01  00002PRCP99
0207480770999992000011912004+18800+095220FM-12+006099999V0209999C000012200019N0060001N1+02701+01541100921ADDAA199000091AY101061AY201061GA1001+999999999GF100991001001999999001001KA1120M+03201MD1999999-0081MW1051REMSYN074    AAXX  19124 48077 31956 00000 10270 20154 40092 70500 333 10320 59008;EQDQ01  00002PRCP99
0156480770999992000012003004+18800+095220FM-12+0060VBPR V0202301N000512200019N0060001N1+02101+01431101231ADDAA199000091GA1001+999999999GF100991001001999999001001MD1999999-0131REMSYN058AAXX  20034 48077 32956 02301 10210 20143 40123 333 59013;EQDQ01  00002PRCP99
0156480770999992000012006004+18800+095220FM-12+0060VBPR V0202301N001012200019N0100001N1+02801+00981101161ADDAA199000091GA1001+999999999GF100991001001999999001001MD1999999-0131REMSYN058AAXX  20064 48077 32960 02302 10280 20098 40116 333 59013;EQDQ01  00002PRCP99
0156480770999992000012009004+18800+095220FM-12+0060VBPR V0201301N001012200019N0110001N1+03201+00891100941ADDAA199000091GA1001+999999999GF100991001001999999001001MD1999999-0021REMSYN058AAXX  20094 48077 32961 01302 10320 20089 40094 333 59002;EQDQ01  00002PRCP99
0175480770999992000012012004+18800+095220FM-12+0060VBPR V0209999C000012200019N0080001N1+02801+01261100921ADDAA199000091GA1001+999999999GF100991001001999999001001KA1120M+03201MD1999999+0011REMSYN064AAXX  20124 48077 32958 00000 10280 20126 40092 333 10320 58001;EQDQ01  00002PRCP99
0203480770999992000012100004+18800+095220FM-12+0060VBPR V0209999C000012200019N0050001N1+01541+01341101361ADDAA199000091AY101061AY201061GA1001+999999999GF100991001001999999001001KA1120N+01501MD1999999+0221MW1101REMSYN070AAXX  21004 48077 31950 00000 10154 20134 40136 71000 333 20150 58022;EQDQ01  00002PRCP99
0184480770999992000012103004+18800+095220FM-12+0060VBPR V0202301N000512200019N0090001N1+01951+01501101481ADDAA199000091AY101031AY201031GA1001+999999999GF100991001001999999001001MD1999999+0251MW1101REMSYN064AAXX  21034 48077 31959 02301 10195 20150 40148 71000 333 58025;EQDQ01  00002PRCP99
0184480770999992000012106004+18800+095220FM-12+0060VBPR V0209999C000012200019N0100001N1+02801+01461101481ADDAA199000091AY101061AY201061GA1001+999999999GF100991001001999999001001MD1999999+0361MW1051REMSYN064AAXX  21064 48077 31960 00000 10280 20146 40148 70500 333 58036;EQDQ01  00002PRCP99
0184480770999992000012109004+18800+095220FM-12+0060VBPR V0202701N000512200019N0090001N1+03241+01161101261ADDAA199000091AY101031AY201031GA1001+999999999GF100991001001999999001001MD1999999+0321MW1051REMSYN064AAXX  21094 48077 31959 02701 10324 20116 40126 70500 333 58032;EQDQ01  00002PRCP99
0203480770999992000012112004+18800+095220FM-12+0060VBPR V0209999C000012200019N0060001N1+02861+01401101251ADDAA199000091AY101061AY201061GA1001+999999999GF100991001001999999001001KA1120M+03241MD1999999+0321MW1051REMSYN070AAXX  21124 48077 31956 00000 10286 20140 40125 70500 333 10324 58032;EQDQ01  00002PRCP99
0203480770999992000012200004+18800+095220FM-12+0060VBPR V0209999C000012200019N0050001N1+01411+01241101431ADDAA199000091AY101061AY201061GA1001+999999999GF100991001001999999001001KA1120N+01401MD1999999+0071MW1101REMSYN070AAXX  22004 48077 31950 00000 10141 20124 40143 71000 333 20140 58007;EQDQ01  00002PRCP99
0184480770999992000012203004+18800+095220FM-12+0060VBPR V0209999C000012200019N0070001N1+02001+01501101571ADDAA199000091AY101031AY201031GA1001+999999999GF100991001001999999001001MD1999999+0091MW1051REMSYN064AAXX  22034 48077 31957 00000 10200 20150 40157 70500 333 58009;EQDQ01  00002PRCP99
0156480770999992000012206004+18800+095220FM-12+0060VBPR V0200401N000512200019N0110001N1+02901+01151101461ADDAA199000091GA1001+999999999GF100991001001999999001001MD1999999+0001REMSYN058AAXX  22064 48077 32961 00401 10290 20115 40146 333 59000;EQDQ01  00002PRCP99
0156480770999992000012209004+18800+095220FM-12+0060VBPR V0209999C000012200019N0110001N1+03341+01251101201ADDAA199000091GA1001+999999999GF100991001001999999001001MD1999999-0051REMSYN058AAXX  22094 48077 32961 00000 10334 20125 40120 333 59005;EQDQ01  00002PRCP99
0203480770999992000012212004+18800+095220FM-12+0060VBPR V0209999C000012200019N0070001N1+02821+01461101181ADDAA199000091AY101061AY201061GA1001+999999999GF100991001001999999001001KA1120M+03341MD1999999-0061MW1051REMSYN070AAXX  22124 48077 31957 00000 10282 20146 40118 70500 333 10334 59006;EQDQ01  00002PRCP99
0203480770999992000012300004+18800+095220FM-12+0060VBPR V0209999C000012200019N0050001N1+01521+01341101361ADDAA199000091AY101061AY201061GA1001+999999999GF100991001001999999001001KA1120N+01501MD1999999-0061MW1101REMSYN070AAXX  23004 48077 31950 00000 10152 20134 40136 71000 333 20150 59006;EQDQ01  00002PRCP99
0156480770999992000012303004+18800+095220FM-12+0060VBPR V0203601N000512200019N0100001N1+02001+01501101571ADDAA199000091GA1001+999999999GF100991001001999999001001MD1999999+0001REMSYN058AAXX  23034 48077 32960 03601 10200 20150 40157 333 58000;EQDQ01  00002PRCP99
0156480770999992000012306004+18800+095220FM-12+0060VBPR V0200401N000512200019N0110001N1+02901+01151101431ADDAA199000091GA1001+999999999GF100991001001999999001001MD1999999-0041REMSYN058AAXX  23064 48077 32961 00401 10290 20115 40143 333 59004;EQDQ01  00002PRCP99
0156480770999992000012309004+18800+095220FM-12+0060VBPR V0200401N000512200019N0110001N1+03401+00631101181ADDAA199000091GA1001+999999999GF100991001001999999001001MD1999999-0031REMSYN058AAXX  23094 48077 32961 00401 10340 20063 40118 333 59003;EQDQ01  00002PRCP99
0203480770999992000012312004+18800+095220FM-12+0060VBPR V0209999C000012200019N0070001N1+02901+01401101181ADDAA199000091AY101061AY201061GA1001+999999999GF100991001001999999001001KA1120M+03401MD1999999-0011MW1051REMSYN070AAXX  23124 48077 31957 00000 10290 20140 40118 70500 333 10340 59001;EQDQ01  00002PRCP99
0203480770999992000012400004+18800+095220FM-12+0060VBPR V0209999C000012200019N0060001N1+01581+01231101421ADDAA199000091AY101061AY201061GA1001+999999999GF100991001001999999001001KA1120N+01531MD1999999+0031MW1101REMSYN070AAXX  24004 48077 31956 00000 10158 20123 40142 71000 333 20153 58003;EQDQ01  00002PRCP99
0184480770999992000012403004+18800+095220FM-12+0060VBPR V0209999C000012200019N0090001N1+02001+01301101591ADDAA199000091AY101031AY201031GA1001+999999999GF100991001001999999001001MD1999999-0021MW1051REMSYN064AAXX  24034 48077 31959 00000 10200 20130 40159 70500 333 59002;EQDQ01  00002PRCP99
0184480770999992000012406004+18800+095220FM-12+0060VBPR V0209999C000012200019N0100001N1+02901+01561101541ADDAA199000091AY101061AY201061GA1001+999999999GF100991001001999999001001MD1999999+0111MW1051REMSYN064AAXX  24064 48077 31960 00000 10290 20156 40154 70500 333 58011;EQDQ01  00002PRCP99
0184480770999992000012409004+18800+095220FM-12+0060VBPR V0209999C000012200019N0100001N1+03271+01261101291ADDAA199000091AY101031AY201031GA1001+999999999GF100991001001999999001001MD1999999+0121MW1051REMSYN064AAXX  24094 48077 31960 00000 10327 20126 40129 70500 333 58012;EQDQ01  00002PRCP99
0203480770999992000012412004+18800+095220FM-12+0060VBPR V0209999C000012200019N0070001N1+02771+01461101181ADDAA199000091AY101061AY201061GA1001+999999999GF100991001001999999001001KA1120M+03301MD1999999+0001MW1051REMSYN070AAXX  24124 48077 31957 00000 10277 20146 40118 70500 333 10330 58000;EQDQ01  00002PRCP99
0175480770999992000012500004+18800+095220FM-12+0060VBPR V0200401N000512200019N0070001N1+01901+01391101471ADDAA199000091GA1001+999999999GF100991001001999999001001KA1120N+01741MD1999999+0051REMSYN064AAXX  25004 48077 32957 00401 10190 20139 40147 333 20174 58005;EQDQ01  00002PRCP99
0156480770999992000012503004+18800+095220FM-12+0060VBPR V0200401N001012200019N0100001N1+02271+01631101711ADDAA199000091GA1001+999999999GF100991001001999999001001MD1999999+0111REMSYN058AAXX  25034 48077 32960 00402 10227 20163 40171 333 58011;EQDQ01  00002PRCP99
0184480770999992000012506004+18800+095220FM-12+0060VBPR V0203601N001012200019N0100001N1+02851+01681101621ADDAA199000091AY101061AY201061GA1001+999999999GF100991001001999999001001MD1999999+0071MW1051REMSYN064AAXX  25064 48077 31960 03602 10285 20168 40162 70500 333 58007;EQDQ01  00002PRCP99
0184480770999992000012509004+18800+095220FM-12+0060VBPR V0200401N000512200019N0090001N1+03201+01631101371ADDAA199000091AY101031AY201031GA1001+999999999GF100991001001999999001001MD1999999+0081MW1051REMSYN064AAXX  25094 48077 31959 00401 10320 20163 40137 70500 333 58008;EQDQ01  00002PRCP99
0215480770999992000012512004+18800+095220FM-12+0060VBPR V0209999C000012200019N0060001N1+02701+02541101301ADDAA199000091AY101061AY201061GF101991999001999999031001KA1120M+03201MD1999999+0131MW1051REMSYN082AAXX  25124 48077 31956 10000 10270 20254 40130 70500 80030 333 10320 56099 58013;EQDQ01+000002SCOTLCQ02  00002PRCP99
0158480770999992000012600004+18800+095220FM-12+0060VBPR V0200401N000512200019N0060001N1+01861+01591101581ADDAA199000091GF102991001001999999001011MD1999999+0121REMSYN076AAXX  26004 48077 32956 20401 10186 20159 40158 80001 333 20/// 56009 58012;EQDQ01  00002PRCP99
0156480770999992000012603004+18800+095220FM-12+0060VBPR V0200401N000512200019N0100001N1+02361+01551101731ADDAA199000091GA1001+999999999GF100991001001999999001001MD1999999+0021REMSYN058AAXX  26034 48077 32960 00401 10236 20155 40173 333 58002;EQDQ01  00002PRCP99
0180480770999992000012606004+18800+095220FM-12+0060VBPR V0200401N001012200019N0110001N1+02941+01591101581ADDAA199000091AY101061AY201061GF101991001001999999001011MD1999999-0031MW1051REMSYN076AAXX  26064 48077 31961 10402 10294 20159 40158 70500 80001 333 56009 59003;EQDQ01  00002PRCP99
0184480770999992000012609004+18800+095220FM-12+0060VBPR V0209999C000012200019N0110001N1+03201+01631101351ADDAA199000091AY101031AY201031GA1001+999999999GF100991001001999999001001MD1999999+0041MW1051REMSYN064AAXX  26094 48077 31961 00000 10320 20163 40135 70500 333 58004;EQDQ01  00002PRCP99
0171480770999992000012700004+18800+095220FM-12+0060VBPR V0200401N000519999999N0070001N1+01901+01591101471ADDAA199000091GF108991001001999999031011KA1120N+01871MD1999999-0121REMSYN076AAXX  27004 48077 32957 80401 10190 20159 40147 80031 333 20187 56099 59012;EQDQ01  00002PRCP99
0152480770999992000012703004+18800+095220FM-12+0060VBPR V0203601N001012200019N0100001N1+02301+01431101651ADDAA199000091GF102991001001999999001011MD1999999+0081REMSYN070AAXX  27034 48077 32960 23602 10230 20143 40165 80001 333 56009 58008;EQDQ01  00002PRCP99
0156480770999992000012706004+18800+095220FM-12+0060VBPR V0200401N000512200019N0110001N1+02951+01661101521ADDAA199000091GA1001+999999999GF100991001001999999001001MD1999999-0061REMSYN058AAXX  27064 48077 32961 00401 10295 20166 40152 333 59006;EQDQ01  00002PRCP99
0184480770999992000012709004+18800+095220FM-12+0060VBPR V0209999C000012200019N0090001N1+03361+01641101241ADDAA199000091AY101031AY201031GA1001+999999999GF100991001001999999001001MD1999999-0111MW1051REMSYN064AAXX  27094 48077 31959 00000 10336 20164 40124 70500 333 59011;EQDQ01  00002PRCP99
0215480770999992000012712004+18800+095220FM-12+0060VBPR V0209999C000012200019N0080001N1+02901+01591101251ADDAA199000091AY101061AY201061GF102991999081999999001001KA1120M+03361MD1999999-0051MW1051REMSYN082AAXX  27124 48077 31958 20000 10290 20159 40125 70500 83800 333 10336 56900 59005;EQDQ01+000032SCOTLCQ02  00002PRCP99
0175480770999992000012800004+18800+095220FM-12+0060VBPR V0209999C000012200019N0060001N1+01901+01591101411ADDAA199000091GA1001+999999999GF100991001001999999001001KA1120N+01871MD1999999-0061REMSYN064AAXX  28004 48077 32956 00000 10190 20159 40141 333 20187 59006;EQDQ01  00002PRCP99
0156480770999992000012803004+18800+095220FM-12+0060VBPR V0200401N000512200019N0100001N1+02201+01761101651ADDAA199000091GA1001+999999999GF100991001001999999001001MD1999999+0001REMSYN058AAXX  28034 48077 32960 00401 10220 20176 40165 333 58000;EQDQ01  00002PRCP99
0152480770999992000012806004+18800+095220FM-12+0060VBPR V0209999C000012200019N0110001N1+02901+01591101531ADDAA199000091GF103991011021008001031001MD1999999+0011REMSYN070AAXX  28064 48077 32561 30000 10290 20159 40153 81230 333 56990 58001;EQDQ01  00002PRCP99
0152480770999992000012809004+18800+095220FM-12+0060VBPR V0202301N000512200019N0110001N1+03371+01451101121ADDAA199000091GF102991021081008001001001MD1999999-0121REMSYN070AAXX  28094 48077 32561 22301 10337 20145 40112 82800 333 56900 59012;EQDQ01  00002PRCP99
0171480770999992000012812004+18800+095220FM-12+0060VBPR V0203201N001012200019N0070001N1+02801+01461101181ADDAA199000091GF102991021081008001001001KA1120M+03371MD1999999-0071REMSYN076AAXX  28124 48077 32557 23202 10280 20146 40118 82800 333 10337 56900 59007;EQDQ01  00002PRCP99
0184480770999992000012903004+18800+095220FM-12+0060VBPR V0203601N001012200019N0070001N1+02171+01731101611ADDAA199000091AY101031AY201031GA1001+999999999GF100991001001999999001001MD1999999-0041MW1051REMSYN064AAXX  29034 48077 31957 03602 10217 20173 40161 70500 333 59004;EQDQ01  00002PRCP99
0184480770999992000012906004+18800+095220FM-12+0060VBPR V0203601N000512200019N0090001N1+03001+01661101491ADDAA199000091AY101061AY201061GA1001+999999999GF100991001001999999001001MD1999999-0041MW1051REMSYN064AAXX  29064 48077 31959 03601 10300 20166 40149 70500 333 59004;EQDQ01  00002PRCP99
0180480770999992000012909004+18800+095220FM-12+0060VBPR V0202301N002612200019N0090001N1+03141+01461101241ADDAA199000091AY101031AY201031GF104991041081008001001001MD1999999+0121MW1051REMSYN076AAXX  29094 48077 31559 42305 10314 20146 40124 70500 84800 333 56600 58012;EQDQ01  00002PRCP99
0199480770999992000012912004+18800+095220FM-12+0060VBPR V0202701N002610120019N0070001N1+02921+01401101201ADDAA199000091AY121061AY221061GF105991051081008001001001KA1120M+03211MD1999999+0021MW1051REMSYN082AAXX  29124 48077 31557 52705 10292 20140 40120 70522 85800 333 10321 56600 58002;EQDQ01  00002PRCP99
0187480770999992000013000004+18800+095220FM-12+0060VBPR V0209999C000012200019N0060001N1+01801+01551101591ADDAA199000091GF101991999001999999031001KA1120N+01751MD1999999+0181REMSYN076AAXX  30004 48077 32956 10000 10180 20155 40159 80030 333 20175 56090 58018;EQDQ01+000002SCOTLCQ02  00002PRCP99
0168480770999992000013003004+18800+095220FM-12+0060VBPR V0203601N002112200019N0100001N1+02101+01201101811ADDAA199000091GF102991999001999999031001MD1999999+0211REMSYN070AAXX  30034 48077 32960 23604 10210 20120 40181 80030 333 56090 58021;EQDQ01+000002SCOTLCQ02  00002PRCP99
0156480770999992000013009004+18800+095220FM-12+0060VBPR V0209999C000012200019N0110001N1+03001+01241101441ADDAA199000091GA1001+999999999GF100991001001999999001001MD1999999+0201REMSYN058AAXX  30094 48077 32961 00000 10300 20124 40144 333 58020;EQDQ01  00002PRCP99
0175480770999992000013100004+18800+095220FM-12+0060VBPR V0200401N002612200019N0070001N1+01811+01291101701ADDAA199000091GA1001+999999999GF100991001001999999001001KA1120N+01771MD1999999+0111REMSYN064AAXX  31004 48077 32957 00405 10181 20129 40170 333 20177 58011;EQDQ01  00002PRCP99
0156480770999992000013103004+18800+095220FM-12+0060VBPR V0200401N001012200019N0100001N1+02101+01431101861ADDAA199000091GA1001+999999999GF100991001001999999001001MD1999999+0041REMSYN058AAXX  31034 48077 32960 00402 10210 20143 40186 333 58004;EQDQ01  00002PRCP99
0156480770999992000013106004+18800+095220FM-12+0060VBPR V0200401N000512200019N0110001N1+02701+01331101741ADDAA199000091GA1001+999999999GF100991001001999999001001MD1999999+0081REMSYN058AAXX  31064 48077 32961 00401 10270 20133 40174 333 58008;EQDQ01  00002PRCP99
0184480770999992000013109004+18800+095220FM-12+0060VBPR V0209999C000012200019N9999999N1+03101+01461101521ADDAA199000091AY101031AY201031GA1001+999999999GF100991001001999999001001MD1999999+0071MW1051REMSYN064AAXX  31094 48077 31952 00000 10310 20146 40152 70500 333 58007;EQDQ01  00002PRCP99
0187480770999992000020100004+18800+095220FM-12+0060VBPR V0200401N001512200019N0060001N1+01801+01471101561ADDAA199000091GF101991999001999999031001KA1120N+01781MD1999999-0131REMSYN076AAXX  01004 48077 32956 10403 10180 20147 40156 80030 333 20178 56090 59013;EQDQ01+000002SCOTLCQ02  00002PRCP99
0152480770999992000020103004+18800+095220FM-12+0060VBPR V0200401N001012200019N0100001N1+02151+01561101721ADDAA199000091GF101991001001999999001011MD1999999-0141REMSYN070AAXX  01034 48077 32960 10402 10215 20156 40172 80001 333 56004 59014;EQDQ01  00002PRCP99
0152480770999992000020106004+18800+095220FM-12+0060VBPR V0202301N000519999999N0110001N1+02801+01461101621ADDAA199000091GF105991001001999999031011MD1999999-0111REMSYN070AAXX  01064 48077 32961 52301 10280 20146 40162 80031 333 56099 59011;EQDQ01  00002PRCP99
0180480770999992000020109004+18800+095220FM-12+0060VBPR V0209999C000012200019N0090001N1+03101+01241101331ADDAA199000091AY101031AY201031GF102991001001999999001011MD1999999-0191MW1051REMSYN076AAXX  01094 48077 32959 20000 10310 20124 40133 70500 80001 333 56009 59019;EQDQ01  00002PRCP99
0199480770999992000020112004+18800+095220FM-12+0060VBPR V0209999C000012200019N0080001N1+02801+01461101301ADDAA199000091AY101061AY201061GF102991001001999999031011KA1120M+03301MD1999999-0181MW1051REMSYN082AAXX  01124 48077 31958 20000 10280 20146 40130 70500 80031 333 10330 56099 59018;EQDQ01  00002PRCP99
0203480770999992000020200004+18800+095220FM-12+0060VBPR V0209999C000012200019N0080001N1+01801+01551101441ADDAA199000091AY101061AY201061GA1001+999999999GF100991001001999999001001KA1120N+01761MD1999999-0121MW1101REMSYN070AAXX  02004 48077 31958 00000 10180 20155 40144 71000 333 20176 59012;EQDQ01  00002PRCP99
0196480770999992000020203004+18800+095220FM-12+0060VBPR V0200401N000512200019N0090001N1+02151+01761101681ADDAA199000091AY101031AY201031GF104991999001999999031001MD1999999-0041MW1101REMSYN076AAXX  02034 48077 31959 40401 10215 20176 40168 71000 80030 333 56090 59004;EQDQ01+000002SCOTLCQ02  00002PRCP99
0184480770999992000020206004+18800+095220FM-12+0060VBPR V0209999C000012200019N0100001N1+03001+01491101571ADDAA199000091AY101061AY201061GA1001+999999999GF100991001001999999001001MD1999999-0061MW1051REMSYN064AAXX  02064 48077 31960 00000 10300 20149 40157 70500 333 59006;EQDQ01  00002PRCP99
0184480770999992000020209004+18800+095220FM-12+0060VBPR V0200401N001012200019N0090001N1+03201+01401101341ADDAA199000091AY101031AY201031GA1001+999999999GF100991001001999999001001MD1999999+0021MW1051REMSYN064AAXX  02094 48077 31959 00402 10320 20140 40134 70500 333 58002;EQDQ01  00002PRCP99
0199480770999992000020212004+18800+095220FM-12+0060VBPR V0209999C000012200019N0060001N1+02901+01401101311ADDAA199000091AY101061AY201061GF103991031081008001001001KA1120M+03201MD1999999+0001MW1051REMSYN082AAXX  02124 48077 31556 30000 10290 20140 40131 70500 83800 333 10320 56900 58000;EQDQ01  00002PRCP99
0184480770999992000020303004+18800+095220FM-12+0060VBPR V0209999C000012200019N0080001N1+02201+01701101981ADDAA199000091AY101031AY201031GA1001+999999999GF100991001001999999001001MD1999999+0101MW1101REMSYN064AAXX  03034 48077 31958 00000 10220 20170 40198 71000 333 58010;EQDQ01  00002PRCP99
0156480770999992000020306004+18800+095220FM-12+0060VBPR V0200401N003112200019N0110001N1+03001+01241101661ADDAA199000091GA1001+999999999GF100991001001999999001001MD1999999+0091REMSYN058AAXX  03064 48077 32961 00406 10300 20124 40166 333 58009;EQDQ01  00002PRCP99
0184480770999992000020309004+18800+095220FM-12+0060VBPR V0209999C000012200019N0070001N1+03341+01261101341ADDAA199000091AY101031AY201031GA1001+999999999GF100991001001999999001001MD1999999+0001MW1051REMSYN064AAXX  03094 48077 31957 00000 10334 20126 40134 70500 333 58000;EQDQ01  00002PRCP99
0215480770999992000020312004+18800+095220FM-12+0060VBPR V0209999C000012200019N0060001N1+02901+01591101301ADDAA199000091AY101061AY201061GF103991999001999999031001KA1120M+03361MD1999999-0011MW1051REMSYN082AAXX  03124 48077 31956 30000 10290 20159 40130 70500 80030 333 10336 56009 59001;EQDQ01+000002SCOTLCQ02  00002PRCP99
0199480770999992000020400004+18800+095220FM-12+0060VBPR V0209999C000012200019N0050001N1+01701+01541101371ADDAA199000091AY101061AY201061GF102991001001999999001011KA1120N+01661MD1999999-0231MW1101REMSYN082AAXX  04004 48077 31950 20000 10170 20154 40137 71000 80001 333 20166 56009 59023;EQDQ01  00002PRCP99
0184480770999992000020403004+18800+095220FM-12+0060VBPR V0200401N000512200019N0080001N1+02151+01731101491ADDAA199000091AY101031AY201031GA1001+999999999GF100991001001999999001001MD1999999-0281MW1101REMSYN064AAXX  04034 48077 31958 00401 10215 20173 40149 71000 333 59028;EQDQ01  00002PRCP99
0184480770999992000020406004+18800+095220FM-12+0060VBPR V0209999C000012200019N0100001N1+02901+01541101411ADDAA199000091AY101061AY201061GA1001+999999999GF100991001001999999001001MD1999999-0251MW1051REMSYN064AAXX  04064 48077 31960 00000 10290 20154 40141 70500 333 59025;EQDQ01  00002PRCP99
0199480770999992000020412004+18800+095220FM-12+0060VBPR V0209999C000012200019N0080001N1+02931+01591101111ADDAA199000091AY111061AY211061GF104991001001999999001011KA1120M+03461MD1999999-0241MW1051REMSYN082AAXX  04124 48077 31958 40000 10293 20159 40111 70511 80001 333 10346 56009 59024;EQDQ01  00002PRCP99
0199480770999992000020500004+18800+095220FM-12+0060VBPR V0209999C000012200019N0080001N1+01761+01471101311ADDAA199000091AY111061AY211061GF102991001001999999001011KA1120N+01701MD1999999-0061MW1101REMSYN082AAXX  05004 48077 31958 20000 10176 20147 40131 71011 80001 333 20170 56009 59006;EQDQ01  00002PRCP99
0184480770999992000020503004+18800+095220FM-12+0060VBPR V0209999C000012200019N0100001N1+02201+01561101471ADDAA199000091AY101031AY201031GA1001+999999999GF100991001001999999001001MD1999999-0031MW1051REMSYN064AAXX  05034 48077 31960 00000 10220 20156 40147 70500 333 59003;EQDQ01  00002PRCP99
0184480770999992000020506004+18800+095220FM-12+0060VBPR V0209999C000012200019N0100001N1+03121+01691101351ADDAA199000091AY101061AY201061GA1001+999999999GF100991001001999999001001MD1999999-0061MW1051REMSYN064AAXX  05064 48077 31960 00000 10312 20169 40135 70500 333 59006;EQDQ01  00002PRCP99
0184480770999992000020509004+18800+095220FM-12+0060VBPR V0200401N000512200019N0150001N1+03371+01451101141ADDAA199000091AY101031AY201031GA1001+999999999GF100991001001999999001001MD1999999+0061MW1051REMSYN064AAXX  05094 48077 31965 00401 10337 20145 40114 70500 333 58006;EQDQ01  00002PRCP99
0199480770999992000020512004+18800+095220FM-12+0060VBPR V0209999C000012200019N0080001N1+03001+01491100971ADDAA199000091AY101061AY201061GF102991001001999999001011KA1120M+03401MD1999999-0141MW1051REMSYN082AAXX  05124 48077 31958 20000 10300 20149 40097 70500 80001 333 10340 56009 59014;EQDQ01  00002PRCP99
0203480770999992000020600004+18800+095220FM-12+0060VBPR V0209999C000012200019N0050001N1+01801+01471101211ADDAA199000091AY101061AY201061GA1001+999999999GF100991001001999999001001KA1120N+01761MD1999999-0101MW1101REMSYN070AAXX  06004 48077 31950 00000 10180 20147 40121 71000 333 20176 59010;EQDQ01  00002PRCP99
0190480770999992000020603004+18800+095220FM-12+0060VBPR V0200401N000512200019N0100001N1+02201+01731101421ADDAA199000091AY101031AY201031GA1001+999999999GF100991001001999999001001MD1999999-0051MW1051REMSYN070AAXX  06034 48077 31960 00401 10220 20173 40142 70500 333 56000 59005;EQDQ01  00002PRCP99
0180480770999992000020609004+18800+095220FM-12+0060VBPR V0209999C000012200019N0090001N1+03501+01581100981ADDAA199000091AY101031AY201031GF101991001001999999001011MD1999999-0161MW1051REMSYN076AAXX  06094 48077 31959 10000 10350 20158 40098 70500 80001 333 56009 59016;EQDQ01  00002PRCP99
0199480770999992000020612004+18800+095220FM-12+0060VBPR V0209999C000012200019N0060001N1+03001+01761100921ADDAA199000091AY101061AY201061GF102991001001999999001011KA1120M+03501MD1999999-0051MW1051REMSYN082AAXX  06124 48077 31956 20000 10300 20176 40092 70500 80001 333 10350 56009 59005;EQDQ01  00002PRCP99
0156480770999992000020703004+18800+095220FM-12+0060VBPR V0203601N001012200019N0100001N1+02401+01741101621ADDAA199000091GA1001+999999999GF100991001001999999001001MD1999999-0101REMSYN058AAXX  07034 48077 32960 03602 10240 20174 40162 333 59010;EQDQ01  00002PRCP99
0156480770999992000020706004+18800+095220FM-12+0060VBPR V0209999C000012200019N0110001N1+02951+01661101241ADDAA199000091GA1001+999999999GF100991001001999999001001MD1999999-0041REMSYN058AAXX  07064 48077 32961 00000 10295 20166 40124 333 59004;EQDQ01  00002PRCP99
0156480770999992000020709004+18800+095220FM-12+0060VBPR V0209999C000012200019N0110001N1+03321+01261100951ADDAA199000091GA1001+999999999GF100991001001999999001001MD1999999-0021REMSYN058AAXX  07094 48077 32961 00000 10332 20126 40095 333 59002;EQDQ01  00002PRCP99
0171480770999992000020712004+18800+095220FM-12+0060VBPR V0202701N001512200019N0080001N1+02911+01401100931ADDAA199000091GF102991021041008001001001KA1120M+03371MD1999999+0011REMSYN076AAXX  07124 48077 32558 22703 10291 20140 40093 82400 333 10337 56900 58001;EQDQ01  00002PRCP99
0209480770999992000020800004+18800+095220FM-12+0060VBPR V0209999C000012200019N0050001N1+01701+01351101111ADDAA199000091AY101061AY201061GA1001+999999999GF100991001001999999001001KA1120N+01691MD1999999-0111MW1101REMSYN076AAXX  08004 48077 31950 00000 10170 20135 40111 71000 333 20169 56000 59011;EQDQ01  00002PRCP99
0156480770999992000020803004+18800+095220FM-12+0060VBPR V0200401N000512200019N0100001N1+02201+01561101291ADDAA199000091GA1001+999999999GF100991001001999999001001MD1999999-0031REMSYN058AAXX  08034 48077 32960 00401 10220 20156 40129 333 59003;EQDQ01  00002PRCP99
0180480770999992000020806004+18800+095220FM-12+0060VBPR V0203201N000519999999N0110001N1+02901+01791101261ADDAA199000091AY101061AY201061GF105991001001999999041011MD1999999-0021MW1051REMSYN076AAXX  08064 48077 32961 53201 10290 20179 40126 70500 80041 333 56099 59002;EQDQ01  00002PRCP99
0196480770999992000020809004+18800+095220FM-12+0060VBPR V0209999C000012200019N0100001N1+03241+01401101021ADDAA199000091AY101031AY201031GF101991999001999999031001MD1999999+0071MW1051REMSYN076AAXX  08094 48077 31960 10000 10324 20140 40102 70500 80030 333 56090 58007;EQDQ01+000002SCOTLCQ02  00002PRCP99
0199480770999992000020812004+18800+095220FM-12+0060VBPR V0203201N003112200019N0080001N1+02591+01801101001ADDAA199000091AY121061AY221061GF103991021031999999001021KA1120M+02901MD1999999+0021MW1051REMSYN082AAXX  08124 48077 31958 33206 10259 20180 40100 70522 82302 333 10290 56709 58002;EQDQ01  00002PRCP99
0156480770999992000020900004+18800+095220FM-12+0060VBPR V0203601N000512200019N0090001N1+02101+01601101281ADDAA199000091GA1001+999999999GF100991001001999999001001MD1999999-0011REMSYN058AAXX  09004 48077 32959 03601 10210 20160 40128 333 59001;EQDQ01  00002PRCP99
0152480770999992000020906004+18800+095220FM-12+0060VBPR V0203601N000512200019N0110001N1+03101+01461101191ADDAA199000091GF103991001001999999001011MD1999999-0061REMSYN070AAXX  09064 48077 32961 33601 10310 20146 40119 80001 333 56009 59006;EQDQ01  00002PRCP99
0184480770999992000020909004+18800+095220FM-12+0060VBPR V0209999C000012200019N0100001N1+03401+00981100901ADDAA199000091AY101031AY201031GA1001+999999999GF100991001001999999001001MD1999999-0121MW1051REMSYN064AAXX  09094 48077 31960 00000 10340 20098 40090 70500 333 59012;EQDQ01  00002PRCP99
0203480770999992000020912004+18800+095220FM-12+0060VBPR V0202701N002612200019N0070001N1+02901+00921100871ADDAA199000091AY101061AY201061GA1001+999999999GF100991001001999999001001KA1120M+03401MD1999999-0101MW1051REMSYN070AAXX  09124 48077 31957 02705 10290 20092 40087 70500 333 10340 59010;EQDQ01  00002PRCP99
0215480770999992000021000004+18800+095220FM-12+0060VBPR V0209999C000012200019N0060001N1+01901+01391101171ADDAA199000091AY101061AY201061GF104991999001999999031001KA1120N+01701MD1999999-0031MW1101REMSYN082AAXX  10004 48077 31956 40000 10190 20139 40117 71000 80030 333 20170 56090 59003;EQDQ01+000002SCOTLCQ02  00002PRCP99
0180480770999992000021003004+18800+095220FM-12+0060VBPR V0209999C000019999999N0080001N1+02201+01561101291ADDAA199000091AY101031AY201031GF107991031081999999031001MD1999999+0011MW1051REMSYN076AAXX  10034 48077 31958 70000 10220 20156 40129 70500 83830 333 56990 58001;EQDQ01  00002PRCP99
0184480770999992000021006004+18800+095220FM-12+0060VBPR V0203601N000512200019N0100001N1+02901+01151101311ADDAA199000091AY101061AY201061GA1001+999999999GF100991001001999999001001MD1999999+0111MW1051REMSYN064AAXX  10064 48077 31960 03601 10290 20115 40131 70500 333 58011;EQDQ01  00002PRCP99
0184480770999992000021009004+18800+095220FM-12+0060VBPR V0209999C000012200019N0090001N1+03361+01451101061ADDAA199000091AY101031AY201031GA1001+999999999GF100991001001999999001001MD1999999+0161MW1051REMSYN064AAXX  10094 48077 31959 00000 10336 20145 40106 70500 333 58016;EQDQ01  00002PRCP99
0187480770999992000021012004+18800+095220FM-12+0060VBPR V0209999C000012200019N0070001N1+02741+01841101091ADDAA199000091AY101061AY201061GF102991999999999999999999KA1120M+03401MD1999999+0221MW1051REMSYN070AAXX  10124 48077 31957 20000 10274 20184 40109 70500 333 10340 58022;EQDQ01  00002PRCP99
0184480770999992000021106004+18800+095220FM-12+0060VBPR V0209999C000012200019N0100001N1+03121+01241101211ADDAA199000091AY101061AY201061GA1001+999999999GF100991001001999999001001MD1999999-0101MW1051REMSYN064AAXX  11064 48077 31960 00000 10312 20124 40121 70500 333 59010;EQDQ01  00002PRCP99
0184480770999992000021109004+18800+095220FM-12+0060VBPR V0209999C000012200019N0090001N1+03521+01121100951ADDAA199000091AY101031AY201031GA1001+999999999GF100991001001999999001001MD1999999-0121MW1051REMSYN064AAXX  11094 48077 31959 00000 10352 20112 40095 70500 333 59012;EQDQ01  00002PRCP99
0215480770999992000021112004+18800+095220FM-12+0060VBPR V0209999C000012200019N0060001N1+03021+01491100921ADDAA199000091AY101061AY201061GF101991001001999999001011KA1120M+99999MD1999999-0171MW1051REMSYN082AAXX  11124 48077 31956 10000 10302 20149 40092 70500 80001 333 10253 56009 59017;EQDQ01  00002PRCP99Q02 +02532ATMX  
0199480770999992000021200004+18800+095220FM-12+0060VBPR V0203601N000519999999N0070001N1+01801+01291101121ADDAA199000091AY101061AY201061GF106991001001999999001011KA1120N+01751MD1999999-0041MW1101REMSYN082AAXX  12004 48077 31957 63601 10180 20129 40112 71000 80001 333 20175 56009 59004;EQDQ01  00002PRCP99
0184480770999992000021203004+18800+095220FM-12+0060VBPR V0200401N001012200019N0100001N1+02301+01431101331ADDAA199000091AY101031AY201031GA1001+999999999GF100991001001999999001001MD1999999+0041MW1051REMSYN064AAXX  12034 48077 31960 00402 10230 20143 40133 70500 333 58004;EQDQ01  00002PRCP99
0184480770999992000021206004+18800+095220FM-12+0060VBPR V0200401N000512200019N0090001N1+03071+01461101241ADDAA199000091AY101061AY201061GA1001+999999999GF100991001001999999001001MD1999999+0041MW1051REMSYN064AAXX  12064 48077 31959 00401 10307 20146 40124 70500 333 58004;EQDQ01  00002PRCP99
0184480770999992000021209004+18800+095220FM-12+0060VBPR V0209999C000012200019N0080001N1+03541+01431100941ADDAA199000091AY101031AY201031GA1001+999999999GF100991001001999999001001MD1999999-0011MW1051REMSYN064AAXX  12094 48077 31958 00000 10354 20143 40094 70500 333 59001;EQDQ01  00002PRCP99
0199480770999992000021212004+18800+095220FM-12+0060VBPR V0209999C000012200019N0070001N1+02801+01691100961ADDAA199000091AY101061AY201061GF102991001001999999001011KA1120M+03541MD1999999+0011MW1051REMSYN082AAXX  12124 48077 31957 20000 10280 20169 40096 70500 80001 333 10354 56009 58001;EQDQ01  00002PRCP99
0203480770999992000021300004+18800+095220FM-12+0060VBPR V0209999C000012200019N0050001N1+01901+01391101061ADDAA199000091AY101061AY201061GA1001+999999999GF100991001001999999001001KA1120N+01851MD1999999-0161MW1101REMSYN070AAXX  13004 48077 31950 00000 10190 20139 40106 71000 333 20185 59016;EQDQ01  00002PRCP99
0156480770999992000021303004+18800+095220FM-12+0060VBPR V0200401N000512200019N0100001N1+02611+01981101241ADDAA199000091GA1001+999999999GF100991001001999999001001MD1999999-0081REMSYN058AAXX  13034 48077 32960 00401 10261 20198 40124 333 59008;EQDQ01  00002PRCP99
0156480770999992000021306004+18800+095220FM-12+0060VBPR V0203601N001012200019N0100001N1+03301+01511101141ADDAA199000091GA1001+999999999GF100991001001999999001001MD1999999-0141REMSYN058AAXX  13064 48077 32960 03602 10330 20151 40114 333 59014;EQDQ01  00002PRCP99
0184480770999992000021309004+18800+095220FM-12+0060VBPR V0209999C000012200019N0100001N1+03601+01561100851ADDAA199000091AY101031AY201031GA1001+999999999GF100991001001999999001001MD1999999-0111MW1051REMSYN064AAXX  13094 48077 31960 00000 10360 20156 40085 70500 333 59011;EQDQ01  00002PRCP99
0215480770999992000021312004+18800+095220FM-12+0060VBPR V0209999C000012200019N0080001N1+03221+01631100781ADDAA199000091AY141061AY241061GF101991999001999999031001KA1120M+03631MD1999999-0151MW1051REMSYN082AAXX  13124 48077 31958 10000 10322 20163 40078 70544 80030 333 10363 56090 59015;EQDQ01+000002SCOTLCQ02  00002PRCP99
0175480770999992000021400004+18800+095220FM-12+0060VBPR V0200401N001012200019N0080001N1+02201+01561101041ADDAA199000091GA1001+999999999GF100991001001999999001001KA1120N+02181MD1999999-0021REMSYN064AAXX  14004 48077 32958 00402 10220 20156 40104 333 20218 59002;EQDQ01  00002PRCP99
0162480770999992000021403004+18800+095220FM-12+0060VBPR V0200401N002612200019N0100001N1+02701+01541101191ADDAA199000091GA1001+999999999GF100991001001999999001001MD1999999-0061REMSYN064AAXX  14034 48077 32960 00405 10270 20154 40119 333 56000 59006;EQDQ01  00002PRCP99
0156480770999992000021406004+18800+095220FM-12+0060VBPR V0200401N002612200019N0100001N1+03341+01511101141ADDAA199000091GA1001+999999999GF100991001001999999001001MD1999999+0001REMSYN058AAXX  14064 48077 32960 00405 10334 20151 40114 333 58000;EQDQ01  00002PRCP99
0184480770999992000021409004+18800+095220FM-12+0060VBPR V0203601N000512200019N0060001N1+03701+01481100861ADDAA199000091AY101031AY201031GA1001+999999999GF100991001001999999001001MD1999999+0021MW1051REMSYN064AAXX  14094 48077 31956 03601 10370 20148 40086 70500 333 58002;EQDQ01  00002PRCP99
0203480770999992000021412004+18800+095220FM-12+0060VBPR V0209999C000012200019N0080001N1+03121+01461100851ADDAA199000091AY101061AY201061GA1001+999999999GF100991001001999999001001KA1120M+03701MD1999999+0081MW1051REMSYN070AAXX  14124 48077 31958 00000 10312 20146 40085 70500 333 10370 58008;EQDQ01  00002PRCP99
0219480770999992000021500004+18800+095220FM-12+0060VBPR V0209999C000012200019N0050001N1+01201+99999100991ADDAA199000091AY101061AY201061GA1001+999999999GF100991001001999999001001KA1120N+99999MD1999999-0061MW1101REMSYN070AAXX  15004 48077 31950 00000 10120 20150 40099 71000 333 20202 59006;EQDQ01  00002PRCP99Q02 +02022ATMN  
0156480770999992000021506004+18800+095220FM-12+0060VBPR V0209999C000012200019N0110001N1+03401+01641101071ADDAA199000091GA1001+999999999GF100991001001999999001001MD1999999-0071REMSYN058AAXX  15064 48077 32961 00000 10340 20164 40107 333 59007;EQDQ01  00002PRCP99
0184480770999992000021509004+18800+095220FM-12+0060VBPR V0209999C000012200019N0100001N1+03701+01711100761ADDAA199000091AY101031AY201031GA1001+999999999GF100991001001999999001001MD1999999-0101MW1051REMSYN064AAXX  15094 48077 31960 00000 10370 20171 40076 70500 333 59010;EQDQ01  00002PRCP99
0215480770999992000021512004+18800+095220FM-12+0060VBPR V0209999C000012200019N0080001N1+03301+01911100731ADDAA199000091AY101061AY201061GF102991001001999999001011KA1120M+03701MD1999999-0121MW1051REMSYN082AAXX  15124 48077 31058 20000 10330 20191 40073 70500 80001 333 10370 56999 59012;EQDQ01+000252SCOLCBQ02  00002PRCP99
0181480770999992000021600004+18800+095220FM-12+0060VBPR V0209999C000012200019N0070001N1+02101+01751100971ADDAA199000091GA1001+999999999GF100991001001999999001001KA1120N+02071MD1999999-0021REMSYN070AAXX  16004 48077 32957 00000 10210 20175 40097 333 20207 56000 59002;EQDQ01  00002PRCP99
0168480770999992000021603004+18800+095220FM-12+0060VBPR V0203201N001012200019N0100001N1+02651+01191101131ADDAA199000091GF102991999001999999031001MD1999999-0031REMSYN070AAXX  16034 48077 32960 23202 10265 20119 40113 80030 333 56090 59003;EQDQ01+000002SCOTLCQ02  00002PRCP99
0152480770999992000021606004+18800+095220FM-12+0060VBPR V0200401N000510450019N0110001N1+03301+01261101111ADDAA199000091GF105991031081008001031011MD1999999+0041REMSYN070AAXX  16064 48077 32561 50401 10330 20126 40111 83831 333 56599 58004;EQDQ01  00002PRCP99
0184480770999992000021609004+18800+095220FM-12+0060VBPR V0203601N000512200019N0090001N1+03601+01721100871ADDAA199000091AY101031AY201031GA1001+999999999GF100991001001999999001001MD1999999+0111MW1051REMSYN064AAXX  16094 48077 31959 03601 10360 20172 40087 70500 333 58011;EQDQ01  00002PRCP99
0184480770999992000021612004+18800+095220FM-12+0060VBPR V0209999C000012200019N0080001N1+03201+01841100791ADDAA199000091AY101061AY201061GF102991001001999999001011KA1120M+03651MW1051REMSYN081AAXX  16124 48077 31958 20000 10320 20184 40079 70500 80001 333 10365 5906 58006;EQDQ01  00002PRCP99
0199480770999992000021700004+18800+095220FM-12+0060VBPR V0209999C000010450019N0050001N1+02171+01851100951ADDAA199000091AY101061AY201061GF107991031081008001031001KA1120N+02101MD1999999-0021MW1101REMSYN082AAXX  17004 48077 31550 70000 10217 20185 40095 71000 83830 333 20210 56590 59002;EQDQ01  00002PRCP99
0150480770999992000021703004+18800+095220FM-12+0060VBPR V0209999C000010450019N0080001N1+02351+01911101081ADDAA199000091AY101031AY201031GF105991031081008001031001MW1051REMSYN060AAXX  17034 48077 31558 50000 10235 20191 40108 70500 83830;EQDQ01  00002PRCP99
0180480770999992000021706004+18800+095220FM-12+0060VBPR V0202301N000512200019N0100001N1+03151+02001100991ADDAA199000091AY101061AY201061GF102991001001999999001011MD1999999-0121MW1051REMSYN076AAXX  17064 48077 31960 22301 10315 20200 40099 70500 80001 333 56009 59012;EQDQ01  00002PRCP99
0180480770999992000021709004+18800+095220FM-12+0060VBPR V0202301N000512200019N0100001N1+03581+01561100641ADDAA199000091AY101031AY201031GF102991011021008001031001MD1999999-0231MW1051REMSYN076AAXX  17094 48077 31560 22301 10358 20156 40064 70500 81230 333 56590 59023;EQDQ01  00002PRCP99
0199480770999992000021712004+18800+095220FM-12+0060VBPR V0209999C000012200019N0060001N1+03171+02001100591ADDAA199000091AY111061AY211061GF105991021081008001001011KA1120M+03591MD1999999-0201MW1051REMSYN082AAXX  17124 48077 31556 50000 10317 20200 40059 70511 82801 333 10359 56909 59020;EQDQ01  00002PRCP99
0171480770999992000021800004+18800+095220FM-12+0060VBPR V0202301N000510075019N0070001N1+02301+01811100831ADDAA199000091GF105991051071008001031001KA1120N+02311MD1999999-0051REMSYN076AAXX  18004 48077 32557 52301 10230 20181 40083 85730 333 20231 56499 59005;EQDQ01  00002PRCP99
0180480770999992000021806004+18800+095220FM-12+0060VBPR V0202301N000510120019N0100001N1+03001+01661101001ADDAA199000091AY121061AY221061GF106991051081008001031021MD1999999+0011MW1051REMSYN076AAXX  18064 48077 31560 62301 10300 20166 40100 70522 85832 333 56590 58001;EQDQ01  00002PRCP99
0180480770999992000021809004+18800+095220FM-12+0060VBPR V0202301N002110450019N0090001N1+03401+01451100751ADDAA199000091AY121031AY221031GF106991041081008001031001MD1999999+0111MW1051REMSYN076AAXX  18094 48077 31559 62304 10340 20145 40075 70522 84830 333 56590 58011;EQDQ01  00002PRCP99
0171480770999992000021900004+18800+095220FM-12+0060VBPR V0209999C000010450019N0080001N1+02301+01241100971ADDAA199000091GF108991031081008001071001KA1120N+02251MD1999999+0141REMSYN076AAXX  19004 48077 32558 80000 10230 20124 40097 83870 333 20225 56490 58014;EQDQ01  00002PRCP99
0152480770999992000021903004+18800+095220FM-12+0060VBPR V0203601N000510450019N0100001N1+02501+01501101111ADDAA199000091GF107991041011008001031001MD1999999+0111REMSYN070AAXX  19034 48077 32560 73601 10250 20150 40111 84130 333 56590 58011;EQDQ01  00002PRCP99
0199480770999992000021912004+18800+095220FM-12+0060VBPR V0209999C000010450019N0080001N1+02731+01581100901ADDAA199000091AY121061AY221061GF108991041081008001071001KA1120M+02921MD1999999+0151MW1051REMSYN082AAXX  19124 48077 31558 80000 10273 20158 40090 70522 84870 333 10292 56590 58015;EQDQ01  00002PRCP99
0171480770999992000022000004+18800+095220FM-12+0060VBPR V0209999C000010450019N0070001N1+02241+01851100421ADDAA199000091GF107991031081008001031001KA1120N+02221MD1999999+0051REMSYN076AAXX  20004 48077 32557 70000 10224 20185 40042 83830 333 20222 56590 58005;EQDQ01  00002PRCP99
0180480770999992000022006004+18800+095220FM-12+0060VBPR V0209999C000010450019N0100001N1+03171+01401101081ADDAA199000091AY121061AY221061GF108991041081008001071001MD1999999-0081MW1051REMSYN076AAXX  20064 48077 31560 80000 10317 20140 40108 70522 84870 333 56590 59008;EQDQ01  00002PRCP99
0180480770999992000022009004+18800+095220FM-12+0060VBPR V0202301N000510075019N0070001N1+03361+00981100801ADDAA199000091AY121031AY221031GF108991051091008001031001MD1999999-0031MW1051REMSYN076AAXX  20094 48077 31557 82301 10336 20098 40080 70522 85930 333 56590 59003;EQDQ01  00002PRCP99
0171480770999992000022100004+18800+095220FM-12+0060VBPR V0200401N000510450019N0080001N1+02241+01111101111ADDAA199000091GF108991041081008001071001KA1120N+02221MD1999999+0191REMSYN076AAXX  21004 48077 32558 80401 10224 20111 40111 84870 333 20222 56590 58019;EQDQ01  00002PRCP99
0180480770999992000022103004+18800+095220FM-12+0060VBPR V0202301N000510450019N0090001N1+02501+00681101291ADDAA199000091AY121031AY221031GF107991041081008001031001MD1999999+0121MW1051REMSYN076AAXX  21034 48077 31559 72301 10250 20068 40129 70522 84830 333 56590 58012;EQDQ01  00002PRCP99
0180480770999992000022106004+18800+095220FM-12+0060VBPR V0203401N000510450019N0100001N1+03251+01161101241ADDAA199000091AY121061AY221061GF106991031081008001031001MD1999999+0261MW1051REMSYN076AAXX  21064 48077 31560 63401 10325 20116 40124 70522 83830 333 56550 58026;EQDQ01  00002PRCP99
0180480770999992000022109004+18800+095220FM-12+0060VBPR V0203601N000510450019N0080001N1+03401+01251100961ADDAA199000091AY121031AY221031GF107991041081008001031001MD1999999-0111MW1051REMSYN076AAXX  21094 48077 31558 73601 10340 20125 40096 70522 84830 333 56540 59011;EQDQ01  00002PRCP99
0199480770999992000022112004+18800+095220FM-12+0060VBPR V0209999C000010450019N0080001N1+02991+01241100901ADDAA199000091AY121061AY221061GF108991041081008001071001KA1120M+03511MD1999999+0141MW1051REMSYN082AAXX  21124 48077 31558 80000 10299 20124 40090 70522 84870 333 10351 56590 58014;EQDQ01  00002PRCP99
0171480770999992000022200004+18800+095220FM-12+0060VBPR V0203601N001510450019N0080001N1+02401+00661101101ADDAA199000091GF108991041081008001031001KA1120N+02371MD1999999-0011REMSYN076AAXX  22004 48077 32558 83603 10240 20066 40110 84830 333 20237 56590 59001;EQDQ01  00002PRCP99
0180480770999992000022206004+18800+095220FM-12+0060VBPR V0200401N000512200019N0110001N1+03301+01061101001ADDAA199000091AY101061AY201061GF103991001001999999031011MD1999999-0041MW1051REMSYN076AAXX  22064 48077 31961 30401 10330 20106 40100 70500 80031 333 56099 59004;EQDQ01  00002PRCP99
0196480770999992000022209004+18800+095220FM-12+0060VBPR V0203601N001012200019N0090001N1+03601+01061100921ADDAA199000091AY121031AY221031GF104991999001999999031001MD1999999-0051MW1051REMSYN076AAXX  22094 48077 31959 43602 10360 20106 40092 70522 80030 333 56090 59005;EQDQ01+000002SCOTLCQ02  00002PRCP99
0235480770999992000022212004+18800+095220FM-12+0060VBPR V0209999C000012200019N0080001N1+99999+99999100871ADDAA199000091AY101061AY201061GA1001+999999999GF100991001001999999001001KA1120M+03211MD1999999-0031MW1051REMSYN070AAXX  22124 48077 31958 00000 11310 20169 40087 70500 333 10321 59003;EQDQ01-003103ATOT  Q02  00002PRCP99Q03 -03103ATOT  
0215480770999992000022300004+18800+095220FM-12+0060VBPR V0200401N000512200019N0050001N1+02101+01201101091ADDAA199000091AY101061AY201061GF103991999001999999031001KA1120N+01901MD1999999-0021MW1101REMSYN082AAXX  23004 48077 31950 30401 10210 20120 40109 71000 80030 333 20190 56090 59002;EQDQ01+000002SCOTLCQ02  00002PRCP99
0196480770999992000022303004+18800+095220FM-12+0060VBPR V0200401N000512200019N0090001N1+02651+01021101201ADDAA199000091AY101031AY201031GF104991999001999999031001MD1999999-0131MW1051REMSYN076AAXX  23034 48077 31959 40401 10265 20102 40120 70500 80030 333 56090 59013;EQDQ01+000002SCOTLCQ02  00002PRCP99
0184480770999992000022306004+18800+095220FM-12+0060VBPR V0200401N001012200019N0100001N1+03401+01251101191ADDAA199000091AY101061AY201061GA1001+999999999GF100991001001999999001001MD1999999-0021MW1051REMSYN064AAXX  23064 48077 31960 00402 10340 20125 40119 70500 333 59002;EQDQ01  00002PRCP99
0215480770999992000022312004+18800+095220FM-12+0060VBPR V0209999C000019999999N0060001N1+03201+01401100891ADDAA199000091AY101061AY201061GF106991001001999999031011KA1120M+99999MD1999999-0021MW1051REMSYN082AAXX  23124 48077 31956 60000 10320 20140 40089 70500 80031 333 10264 56900 59002;EQDQ01  00002PRCP99Q02 +02642ATMX  
0179480770999992000022400004+18800+095220FM-12+0060VBPR V0209999C000012200019N0060001N1+02001+01501101081ADDAY101061AY201061GA1001+999999999GF100991001001999999001001KA1120N+01941MD1999999-0011MW1101REMSYN076AAXX  24004 48077 21956 00000 10200 20150 40108 71000 333 20194 56000 59001;
0156480770999992000022403004+18800+095220FM-12+0060VBPR V0200401N001012200019N0100001N1+02601+01081101251ADDAA199000091GA1001+999999999GF100991001001999999001001MD1999999+0051REMSYN058AAXX  24034 48077 32960 00402 10260 20108 40125 333 58005;EQDQ01  00002PRCP99
0184480770999992000022406004+18800+095220FM-12+0060VBPR V0203601N000512200019N0100001N1+03401+01451101171ADDAA199000091AY101061AY201061GA1001+999999999GF100991001001999999001001MD1999999-0011MW1051REMSYN064AAXX  24064 48077 31960 03601 10340 20145 40117 70500 333 59001;EQDQ01  00002PRCP99
0180480770999992000022409004+18800+095220FM-12+0060VBPR V0209999C000012200019N0090001N1+03761+01401100871ADDAA199000091AY101031AY201031GF102991001001999999001011MD1999999-0021MW1051REMSYN076AAXX  24094 48077 31959 20000 10376 20140 40087 70500 80001 333 56009 59002;EQDQ01  00002PRCP99
0199480770999992000022412004+18800+095220FM-12+0060VBPR V0209999C000012200019N0080001N1+03221+01401100801ADDAA199000091AY111061AY211061GF102991001001999999001011KA1120M+03761MD1999999-0091MW1051REMSYN082AAXX  24124 48077 31958 20000 10322 20140 40080 70511 80001 333 10376 56009 59009;EQDQ01  00002PRCP99
0184480770999992000022503004+18800+095220FM-12+0060VBPR V0200401N000512200019N0100001N1+02711+01331101181ADDAA199000091AY101031AY201031GA1001+999999999GF100991001001999999001001MD1999999-0071MW1051REMSYN064AAXX  25034 48077 31960 00401 10271 20133 40118 70500 333 59007;EQDQ01  00002PRCP99
0184480770999992000022506004+18800+095220FM-12+0060VBPR V0209999C000012200019N0100001N1+03481+01481101091ADDAA199000091AY101061AY201061GA1001+999999999GF100991001001999999001001MD1999999-0081MW1051REMSYN064AAXX  25064 48077 31960 00000 10348 20148 40109 70500 333 59008;EQDQ01  00002PRCP99
0184480770999992000022509004+18800+095220FM-12+0060VBPR V0209999C000012200019N0100001N1+03801+01401100821ADDAA199000091AY101031AY201031GA1001+999999999GF100991001001999999001001MD1999999-0041MW1051REMSYN064AAXX  25094 48077 31960 00000 10380 20140 40082 70500 333 59004;EQDQ01  00002PRCP99
0163480770999992000022512004+18800+095220FM-12+0060VBPR V0209999C000012200019N0080001N1+03411+01801100891ADDAA199000091GF102991021051999999001001KA1120M+03801REMSYN082AAXX  25124 48077 31958 20000 10341 20180 40089 82500 80001 333 10380 56009 59011;EQDQ01  00002PRCP99
0203480770999992000022600004+18800+095220FM-12+0060VBPR V0209999C000012200019N0060001N1+02121+01601100881ADDAA199000091AY101061AY201061GA1001+999999999GF100991001001999999001001KA1120N+02101MD1999999-0131MW1101REMSYN070AAXX  26004 48077 31956 00000 10212 20160 40088 71000 333 20210 59013;EQDQ01  00002PRCP99
0184480770999992000022603004+18800+095220FM-12+0060VBPR V0209999C000012200019N0100001N1+02601+01601101061ADDAA199000091AY101031AY201031GA1001+999999999GF100991001001999999001001MD1999999-0121MW1051REMSYN064AAXX  26034 48077 31960 00000 10260 20160 40106 70500 333 59012;EQDQ01  00002PRCP99
0184480770999992000022606004+18800+095220FM-12+0060VBPR V0201801N000512200019N0090001N1+03201+01631101001ADDAA199000091AY101061AY201061GA1001+999999999GF100991001001999999001001MD1999999-0091MW1051REMSYN064AAXX  26064 48077 31959 01801 10320 20163 40100 70500 333 59009;EQDQ01  00002PRCP99
0190480770999992000022609004+18800+095220FM-12+0060VBPR V0209999C000012200019N0090001N1+03741+01481100661ADDAA199000091AY101031AY201031GA1001+999999999GF100991001001999999001001MD1999999-0161MW1051REMSYN070AAXX  26094 48077 31959 00000 10374 20148 40066 70500 333 56000 59016;EQDQ01  00002PRCP99
0199480770999992000022612004+18800+095220FM-12+0060VBPR V0209999C000012200019N0080001N1+03321+01911100611ADDAA199000091AY101061AY201061GF103991021031999999031001KA1120M+03741MD1999999+0081MW1051REMSYN082AAXX  26124 48077 31958 30000 10332 20191 40061 70500 82330 333 10374 56090 58008;EQDQ01  00002PRCP99
0187480770999992000022700004+18800+095220FM-12+0060VBPR V0209999C000012200019N0080001N1+02181+01561101091ADDAA199000091GF102991999001999999031001KA1120N+02151MD1999999+0211REMSYN076AAXX  27004 48077 32958 20000 10218 20156 40109 80030 333 20215 56090 58021;EQDQ01+000002SCOTLCQ02  00002PRCP99
0168480770999992000022703004+18800+095220FM-12+0060VBPR V0200401N000519999999N0100001N1+02601+01381101311ADDAA199000091GF107991999001999999031001MD1999999+0251REMSYN070AAXX  27034 48077 32960 70401 10260 20138 40131 80030 333 56090 58025;EQDQ01+000002SCOTLCQ02  00002PRCP99
0196480770999992000022706004+18800+095220FM-12+0060VBPR V0200401N001012200019N0100001N1+03021+01661101251ADDAA199000091AY111061AY211061GF101991999001008001031001MD1999999+0251MW1051REMSYN076AAXX  27064 48077 31560 10402 10302 20166 40125 70511 80030 333 56790 58025;EQDQ01+000002SCOTLCQ02  00002PRCP99
0196480770999992000022709004+18800+095220FM-12+0060VBPR V0200901N000512200019N0100001N1+03211+01401100981ADDAA199000091AY111031AY211031GF101991999001999999031001MD1999999+0321MW1051REMSYN076AAXX  27094 48077 31960 10901 10321 20140 40098 70511 80030 333 56090 58032;EQDQ01+000002SCOTLCQ02  00002PRCP99
0187480770999992000022712004+18800+095220FM-12+0060VBPR V0200401N000519999999N0080001N1+02801+01461101001ADDAA199000091GF108991999001999999031001KA1120M+03241MD1999999+0391REMSYN076AAXX  27124 48077 31958 80401 10280 20146 40100 80030 333 10324 56050 58039;EQDQ01+000002SCOTLCQ02  00002PRCP99
0171480770999992000022800004+18800+095220FM-12+0060VBPR V0209999C000019999999N0080001N1+02321+01631101171ADDAA199000091GF107991041081999999031001KA1120N+02301MD1999999+0081REMSYN076AAXX  28004 48077 32958 70000 10232 20163 40117 84830 333 20230 56590 58008;EQDQ01  00002PRCP99
0152480770999992000022803004+18800+095220FM-12+0060VBPR V0200401N000512200019N0100001N1+02601+01601101321ADDAA199000091GF104991031081008001031001MD1999999+0011REMSYN070AAXX  28034 48077 32560 40401 10260 20160 40132 83830 333 56590 58001;EQDQ01  00002PRCP99
0180480770999992000022806004+18800+095220FM-12+0060VBPR V0203601N001010450019N0090001N1+03101+01691101251ADDAA199000091AY121061AY221061GF105991041081008001031001MD1999999+0001MW1051REMSYN076AAXX  28064 48077 31559 53602 10310 20169 40125 70522 84830 333 56590 58000;EQDQ01  00002PRCP99
0199480770999992000022812004+18800+095220FM-12+0060VBPR V0209999C000010450019N0080001N1+03061+01891100941ADDAA199000091AY121061AY221061GF106991031081008001031001KA1120M+03361MD1999999-0061MW1051REMSYN082AAXX  28124 48077 31558 60000 10306 20189 40094 70522 83830 333 10336 56690 59006;EQDQ01  00002PRCP99
0215480770999992000022900004+18800+095220FM-12+0060VBPR V0209999C000012200019N0080001N1+01851+01401101181ADDAA199000091AY101061AY201061GF101991999001999999031001KA1120N+01841MD1999999+0011MW1101REMSYN082AAXX  29004 48077 31958 10000 10185 20140 40118 71000 80030 333 20184 56090 58001;EQDQ01+000002SCOTLCQ02  00002PRCP99
0156480770999992000022903004+18800+095220FM-12+0060VBPR V0200401N000512200019N0100001N1+02401+01361101281ADDAA199000091GA1001+999999999GF100991001001999999001001MD1999999-0041REMSYN058AAXX  29034 48077 32960 00401 10240 20136 40128 333 59004;EQDQ01  00002PRCP99
0156480770999992000022906004+18800+095220FM-12+0060VBPR V0209999C000012200019N0110001N1+03201+00891101191ADDAA199000091GA1001+999999999GF100991001001999999001001MD1999999-0061REMSYN058AAXX  29064 48077 32961 00000 10320 20089 40119 333 59006;EQDQ01  00002PRCP99
0184480770999992000022909004+18800+095220FM-12+0060VBPR V0209999C000012200019N0100001N1+03501+00801100851ADDAA199000091AY101031AY201031GA1001+999999999GF100991001001999999001001MD1999999-0161MW1051REMSYN064AAXX  29094 48077 31960 00000 10350 20080 40085 70500 333 59016;EQDQ01  00002PRCP99
0203480770999992000022912004+18800+095220FM-12+0060VBPR V0203601N002112200019N0060001N1+02981+00891100831ADDAA199000091AY121061AY221061GA1001+999999999GF100991001001999999001001KA1120M+03501MD1999999-0111MW1051REMSYN070AAXX  29124 48077 31256 03604 10298 20089 40083 70522 333 10350 59011;EQDQ01  00002PRCP99
0199480770999992000030100004+18800+095220FM-12+0060VBPR V0209999C000012200019N0060001N1+01701+00091101111ADDAA199000091AY101061AY201061GF103991001001999999001011KA1120N+01701MD1999999-0071MW1101REMSYN082AAXX  01004 48077 31956 30000 10170 20009 40111 71000 80001 333 20170 56009 59007;EQDQ01  00002PRCP99
0200480770999992000030103004+18800+095220FM-12+0060VBPR V0209999C000012200019N9999999N1+02461+01262101221ADDAA199000091AY101031AY201031GA1001+999999999GF100991001001999999001001MD1999999-0061MW1051REMSYN064AAXX  01034 48077 31952 00000 10246 20126 40122 70500 333 59006;EQDQ01+001263ATOD  Q02  00002PRCP99
0184480770999992000030106004+18800+095220FM-12+0060VBPR V0209999C000012200019N0100001N1+02501+01241101181ADDAA199000091AY101061AY201061GA1001+999999999GF100991001001999999001001MD1999999-0021MW1151REMSYN064AAXX  01064 48077 31560 00000 10250 20124 40118 71500 333 59002;EQDQ01  00002PRCP99
0184480770999992000030109004+18800+095220FM-12+0060VBPR V0203201N000512200019N0100001N1+03602+01061100831ADDAA199000091AY101031AY201031GA1001+999999999GF100991001001999999001001MD1999999-0021MW1051REMSYN064AAXX  01094 48077 31597 03201 10360 20106 40083 70500 333 59002;EQDQ01  00002PRCP99
0203480770999992000030112004+18800+095220FM-12+0060VBPR V0201801N000512200019N0080001N1+03101+01241100801ADDAA199000091AY101061AY201061GA1001+999999999GF100991001001999999001001KA1120M+03601MD1999999-0031MW1051REMSYN070AAXX  01124 48077 32958 01801 10310 20124 40080 70500 333 10360 59003;EQDQ01  00002PRCP99
0203480770999992000030200004+18800+095220FM-12+0060VBPR V0209999C000012200019N0060001N1+01801+01471101131ADDAA199000091AY101061AY201061GA1001+999999999GF100991001001999999001001KA1120N+01751MD1999999-0021MW1101REMSYN070AAXX  02004 48077 31956 00000 10180 20147 40113 71000 333 20175 59002;EQDQ01  00002PRCP99
0184480770999992000030203004+18800+095220FM-12+0060VBPR V0209999C000012200019N0080001N1+02201+01561101261ADDAA199000091AY101031AY201031GA1001+999999999GF100991001001999999001001MD1999999+0041MW1051REMSYN064AAXX  02034 48077 31958 00000 10220 20156 40126 70500 333 58004;EQDQ01  00002PRCP99
0184480770999992000030206004+18800+095220FM-12+0060VBPR V0201801N000512200019N0100001N1+03301+01161101181ADDAA199000091AY101061AY201061GA1001+999999999GF100991001001999999001001MD1999999+0051MW1051REMSYN064AAXX  02064 48077 31960 01801 10330 20116 40118 70500 333 58005;EQDQ01  00002PRCP99
0184480770999992000030209004+18800+095220FM-12+0060VBPR V0202301N001012200019N0100001N1+03501+01131100961ADDAA199000091AY101031AY201031GA1001+999999999GF100991001001999999001001MD1999999+0141MW1051REMSYN064AAXX  02094 48077 31960 02302 10350 20113 40096 70500 333 58014;EQDQ01  00002PRCP99
0209480770999992000030212004+18800+095220FM-12+0060VBPR V0209999C000012200019N0080001N1+03121+01241100811ADDAA199000091AY101061AY201061GA1001+999999999GF100991001001999999001001KA1120M+03501MD1999999+0001MW1051REMSYN076AAXX  02124 48077 31958 00000 10312 20124 40081 70500 333 10350 56000 58000;EQDQ01  00002PRCP99
0190480770999992000030303004+18800+095220FM-12+0060VBPR V0202601N000512200019N0080001N1+02251+01561101341ADDAA199000091AY101031AY201031GA1001+999999999GF100991001001999999001001MD1999999+0081MW1051REMSYN070AAXX  03034 48077 31958 02601 10225 20156 40134 70500 333 56000 58008;EQDQ01  00002PRCP99
0184480770999992000030306004+18800+095220FM-12+0060VBPR V0209999C000012200019N0100001N1+03201+01401101241ADDAA199000091AY101061AY201061GA1001+999999999GF100991001001999999001001MD1999999+0061MW1051REMSYN064AAXX  03064 48077 31960 00000 10320 20140 40124 70500 333 58006;EQDQ01  00002PRCP99
0184480770999992000030309004+18800+095220FM-12+0060VBPR V0200401N000512200019N0090001N1+03521+01431101051ADDAA199000091AY101031AY201031GA1001+999999999GF100991001001999999001001MD1999999+0091MW1051REMSYN064AAXX  03094 48077 31959 00401 10352 20143 40105 70500 333 58009;EQDQ01  00002PRCP99
0199480770999992000030312004+18800+095220FM-12+0060VBPR V0202301N002612200019N0080001N1+03221+00891100921ADDAA199000091AY101061AY201061GF102991001001999999001011KA1120M+03621MD1999999+0111MW1051REMSYN082AAXX  03124 48077 31958 22305 10322 20089 40092 70500 80001 333 10362 56009 58011;EQDQ01  00002PRCP99
0203480770999992000030400004+18800+095220FM-12+0060VBPR V0209999C000012200019N0060001N1+01941+01591101191ADDAA199000091AY101061AY201061GA1001+999999999GF100991001001999999001001KA1120N+01901MD1999999+0061MW1101REMSYN070AAXX  04004 48077 31956 00000 10194 20159 40119 71000 333 20190 58006;EQDQ01  00002PRCP99
0184480770999992000030403004+18800+095220FM-12+0060VBPR V0209999C000012200019N0090001N1+02421+01741101371ADDAA199000091AY101031AY201031GA1001+999999999GF100991001001999999001001MD1999999+0031MW1051REMSYN064AAXX  04034 48077 31959 00000 10242 20174 40137 70500 333 58003;EQDQ01  00002PRCP99
0184480770999992000030406004+18800+095220FM-12+0060VBPR V0209999C000012200019N0080001N1+03221+01401101251ADDAA199000091AY101061AY201061GA1001+999999999GF100991001001999999001001MD1999999+0011MW1051REMSYN064AAXX  04064 48077 31958 00000 10322 20140 40125 70500 333 58001;EQDQ01  00002PRCP99
0203480770999992000030412004+18800+095220FM-12+0060VBPR V0202701N002112200019N0090001N1+03301+00761100871ADDAA199000091AY101061AY201061GA1001+999999999GF100991001001999999001001KA1120M+03661MD1999999-0051MW1051REMSYN070AAXX  04124 48077 31959 02704 10330 20076 40087 70500 333 10366 59005;EQDQ01  00002PRCP99
0209480770999992000030500004+18800+095220FM-12+0060VBPR V0209999C000012200019N0060001N1+01901+01591101081ADDAA199000091AY101061AY201061GA1001+999999999GF100991001001999999001001KA1120N+01861MD1999999-0111MW1001REMSYN076AAXX  05004 48077 31956 00000 10190 20159 40108 70000 333 20186 56000 59011;EQDQ01  00002PRCP99
0190480770999992000030503004+18800+095220FM-12+0060VBPR V0200401N000512200019N0100001N1+02621+01381101271ADDAA199000091AY101031AY201031GA1001+999999999GF100991001001999999001001MD1999999-0101MW1051REMSYN070AAXX  05034 48077 31960 00401 10262 20138 40127 70500 333 56000 59010;EQDQ01  00002PRCP99
0190480770999992000030506004+18800+095220FM-12+0060VBPR V0209999C000012200019N0100001N1+03321+01061101151ADDAA199000091AY101061AY201061GA1001+999999999GF100991001001999999001001MD1999999-0101MW1051REMSYN070AAXX  05064 48077 31960 00000 10332 20106 40115 70500 333 56000 59010;EQDQ01  00002PRCP99
0184480770999992000030509004+18800+095220FM-12+0060VBPR V0200401N001012200019N0090001N1+03321+01251100771ADDAA199000091AY101031AY201031GA1001+999999999GF100991001001999999001001MD1999999-0131MW1051REMSYN064AAXX  05094 48077 31959 00402 10332 20125 40077 70500 333 59013;EQDQ01  00002PRCP99
0203480770999992000030512004+18800+095220FM-12+0060VBPR V0203201N002112200019N0080001N1+03281+01061100721ADDAA199000091AY101061AY201061GA1001+999999999GF100991001001999999001001KA1120M+03721MD1999999-0151MW1051REMSYN070AAXX  05124 48077 31958 03204 10328 20106 40072 70500 333 10372 59015;EQDQ01  00002PRCP99
0209480770999992000030600004+18800+095220FM-12+0060VBPR V0209999C000012200019N0060001N1+01901+01391100931ADDAA199000091AY101061AY201061GA1001+999999999GF100991001001999999001001KA1120N+01851MD1999999-0151MW1101REMSYN076AAXX  06004 48077 31956 00000 10190 20139 40093 71000 333 20185 56000 59015;EQDQ01  00002PRCP99
0184480770999992000030603004+18800+095220FM-12+0060VBPR V0200401N000512200019N0090001N1+02401+01361101111ADDAA199000091AY101031AY201031GA1001+999999999GF100991001001999999001001MD1999999-0161MW1051REMSYN064AAXX  06034 48077 31959 00401 10240 20136 40111 70500 333 59016;EQDQ01  00002PRCP99
0184480770999992000030606004+18800+095220FM-12+0060VBPR V0209999C000012200019N0100001N1+03501+01131101061ADDAA199000091AY101061AY201061GA1001+999999999GF100991001001999999001001MD1999999-0091MW1051REMSYN064AAXX  06064 48077 31960 00000 10350 20113 40106 70500 333 59009;EQDQ01  00002PRCP99
0184480770999992000030609004+18800+095220FM-12+0060VBPR V0209999C000012200019N0100001N1+03801+01121100771ADDAA199000091AY101031AY201031GA1001+999999999GF100991001001999999001001MD1999999+0001MW1051REMSYN064AAXX  06094 48077 31960 00000 10380 20112 40077 70500 333 58000;EQDQ01  00002PRCP99
0209480770999992000030612004+18800+095220FM-12+0060VBPR V0209999C000012200019N0080001N1+03301+01261100701ADDAA199000091AY101061AY201061GA1001+999999999GF100991001001999999001001KA1120M+03801MD1999999-0021MW1051REMSYN076AAXX  06124 48077 31958 00000 10330 20126 40070 70500 333 10380 56000 59002;EQDQ01  00002PRCP99
0209480770999992000030700004+18800+095220FM-12+0060VBPR V0209999C000012200019N0060001N1+01961+01681100991ADDAA199000091AY101061AY201061GA1001+999999999GF100991001001999999001001KA1120N+01931MD1999999+0061MW1101REMSYN076AAXX  07004 48077 31956 00000 10196 20168 40099 71000 333 20193 56000 58006;EQDQ01  00002PRCP99
0184480770999992000030703004+18800+095220FM-12+0060VBPR V0209999C000012200019N0080001N1+02501+01671101211ADDAA199000091AY101031AY201031GA1001+999999999GF100991001001999999001001MD1999999+0101MW1051REMSYN064AAXX  07034 48077 31958 00000 10250 20167 40121 70500 333 58010;EQDQ01  00002PRCP99
0184480770999992000030706004+18800+095220FM-12+0060VBPR V0200401N000512200019N0100001N1+03501+02191101111ADDAA199000091AY101061AY201061GA1001+999999999GF100991001001999999001001MD1999999+0051MW1051REMSYN064AAXX  07064 48077 31960 00401 10350 20219 40111 70500 333 58005;EQDQ01  00002PRCP99
0184480770999992000030709004+18800+095220FM-12+0060VBPR V0203601N000512200019N0090001N1+03841+01121100781ADDAA199000091AY101031AY201031GA1001+999999999GF100991001001999999001001MD1999999+0011MW1051REMSYN064AAXX  07094 48077 31959 03601 10384 20112 40078 70500 333 58001;EQDQ01  00002PRCP99
0209480770999992000030712004+18800+095220FM-12+0060VBPR V0209999C000012200019N0080001N1+03321+01511100711ADDAA199000091AY101061AY201061GA1001+999999999GF100991001001999999001001KA1120M+03841MD1999999+0011MW1051REMSYN076AAXX  07124 48077 31958 00000 10332 20151 40071 70500 333 10384 56000 58001;EQDQ01  00002PRCP99
0209480770999992000030800004+18800+095220FM-12+0060VBPR V0209999C000012200019N0060001N1+02001+01501100921ADDAA199000091AY101061AY201061GA1001+999999999GF100991001001999999001001KA1120N+01991MD1999999-0071MW1101REMSYN076AAXX  08004 48077 31956 00000 10200 20150 40092 71000 333 20199 56000 59007;EQDQ01  00002PRCP99
0184480770999992000030803004+18800+095220FM-12+0060VBPR V0209999C000012200019N0080001N1+02501+01671101091ADDAA199000091AY101031AY201031GA1001+999999999GF100991001001999999001001MD1999999-0121MW1051REMSYN064AAXX  08034 48077 31958 00000 10250 20167 40109 70500 333 59012;EQDQ01  00002PRCP99
0184480770999992000030806004+18800+095220FM-12+0060VBPR V0202301N000512200019N0100001N1+03401+01251101021ADDAA199000091AY101061AY201061GA1001+999999999GF100991001001999999001001MD1999999-0081MW1051REMSYN064AAXX  08064 48077 32960 02301 10340 20125 40102 70500 333 59008;EQDQ01  00002PRCP99
0190480770999992000030809004+18800+095220FM-12+0060VBPR V0202301N002112200019N0090001N1+03621+01061100811ADDAA199000091AY101031AY201031GA1001+999999999GF100991001001999999001001MD1999999-0171MW1051REMSYN070AAXX  08094 48077 31959 02304 10362 20106 40081 70500 333 56000 59017;EQDQ01  00002PRCP99
0203480770999992000030812004+18800+095220FM-12+0060VBPR V02099999999992200019N0080001N1+03201+01161100591ADDAA199000091AY101061AY201061GA1001+999999999GF100991001001999999001001KA1120M+03721MD1999999-0221MW1051REMSYN070AAXX  08124 48077 31958 03705 10320 20116 40059 70500 333 10372 59022;EQDQ01  00002PRCP99
0203480770999992000030900004+18800+095220FM-12+0060VBPR V0209999C000012200019N0060001N1+01881+01591100861ADDAA199000091AY101061AY201061GA1001+999999999GF100991001001999999001001KA1120N+01821MD1999999-0061MW1101REMSYN070AAXX  09004 48077 31956 00000 10188 20159 40086 71000 333 20182 59006;EQDQ01  00002PRCP99
0156480770999992000030903004+18800+095220FM-12+0060VBPR V0202301N000512200019N0100001N1+02401+01741101021ADDAA199000091GA1001+999999999GF100991001001999999001001MD1999999-0071REMSYN058AAXX  09034 48077 32960 02301 10240 20174 40102 333 59007;EQDQ01  00002PRCP99
0172480770999992000030906004+18800+095220FM-12+0060VBPR V0202301N000512200019N0110001N1+03401+99999101011ADDAA199000091GA1001+999999999GF100991001001999999001001MD1999999-0011REMSYN058AAXX  09064 48077 32961 02301 10340 20288 40101 333 59001;EQDQ01+002883ATOD  Q02  00002PRCP99
0162480770999992000030909004+18800+095220FM-12+0060VBPR V0202601N001012200019N0110001N1+03581+01061100721ADDAA199000091GA1001+999999999GF100991001001999999001001MD1999999+0121REMSYN064AAXX  09094 48077 32961 02602 10358 20106 40072 333 56000 58012;EQDQ01  00002PRCP99
0120480770999992000030912004+18800+095220FM-12+0060VBPR V0202301N000512200019N0080001N1+03201+99999999999ADDAA199000091GA1001+999999999GF100991001001999999001001REMSYN036AAXX  09124 48077 32958 02301 10320;EQDQ01  00002PRCP99
0215480770999992000031000004+18800+095220FM-12+0060VBPR V0209999C000012200019N0060001N1+01961+01501100941ADDAA199000091AY101061AY201061GF102991999001999999031001KA1120N+01921MD1999999+0181MW1101REMSYN082AAXX  10004 48077 31956 20000 10196 20150 40094 71000 80030 333 20192 56090 58018;EQDQ01+000002SCOTLCQ02  00002PRCP99
0152480770999992000031003004+18800+095220FM-12+0060VBPR V0202301N000512200019N0100001N1+02301+01631101181ADDAA199000091GF103991001001999999031011MD1999999+0071REMSYN070AAXX  10034 48077 32960 32301 10230 20163 40118 80031 333 56099 58007;EQDQ01  00002PRCP99
0152480770999992000031006004+18800+095220FM-12+0060VBPR V0202301N000512200019N0110001N1+03301+01511101081ADDAA199000091GF104991031081008001031001MD1999999+0071REMSYN070AAXX  10064 48077 32561 42301 10330 20151 40108 83830 333 56990 58007;EQDQ01  00002PRCP99
0152480770999992000031009004+18800+095220FM-12+0060VBPR V0202301N002112200019N0100001N1+03501+01581100781ADDAA199000091GF104991031081008001031001MD1999999+0061REMSYN070AAXX  10094 48077 32560 42304 10350 20158 40078 83830 333 56990 58006;EQDQ01  00002PRCP99
0171480770999992000031012004+18800+095220FM-12+0060VBPR V0202701N003112200019N0090001N1+03121+01461100751ADDAA199000091GF103991021021008001031001KA1120M+03561MD1999999+0081REMSYN076AAXX  10124 48077 32559 32706 10312 20146 40075 82230 333 10356 56990 58008;EQDQ01  00002PRCP99
0209480770999992000031100004+18800+095220FM-12+0060VBPR V0209999C000012200019N0060001N1+02101+01751100961ADDAA199000091AY101061AY201061GA1001+999999999GF100991001001999999001001KA1120N+02051MD1999999+0021MW1101REMSYN076AAXX  11004 48077 31956 00000 10210 20175 40096 71000 333 20205 56000 58002;EQDQ01  00002PRCP99
0180480770999992000031106004+18800+095220FM-12+0060VBPR V0200401N001012200019N0100001N1+03371+01641101121ADDAA199000091AY101061AY201061GF102991021021008001001001MD1999999+0041MW1051REMSYN076AAXX  11064 48077 31560 20402 10337 20164 40112 70500 82200 333 56900 58004;EQDQ01  00002PRCP99
0180480770999992000031109004+18800+095220FM-12+0060VBPR V0209999C000012200019N0100001N1+03411+01641100781ADDAA199000091AY121031AY221031GF104991041091008001001001MD1999999-0011MW1051REMSYN076AAXX  11094 48077 31560 40000 10341 20164 40078 70522 84900 333 56600 59001;EQDQ01  00002PRCP99
0171480770999992000031112004+18800+095220FM-12+0060VBPR V0202701N003112200019N0080001N1+03101+01691100781ADDAA199000091GF104991041081008001001001KA1120M+03601MD1999999+0031REMSYN076AAXX  11124 48077 32558 42706 10310 20169 40078 84800 333 10360 56900 58003;EQDQ01  00002PRCP99
0181480770999992000031200004+18800+095220FM-12+0060VBPR V0209999C000012200019N0080001N1+02101+01751100941ADDAA199000091GA1001+999999999GF100991001001999999001001KA1120N+02051MD1999999-0021REMSYN070AAXX  12004 48077 32958 00000 10210 20175 40094 333 20205 56000 59002;EQDQ01  00002PRCP99
0146480770999992000031203004+18800+095220FM-12+0060VBPR V0209999C000012200019N0060001N1+02701+01911101071ADDAA199000091GF101991999999999999999999MD1999999-0061REMSYN064AAXX  12034 48077 32956 10000 10270 20191 40107 333 56000 59006;EQDQ01  00002PRCP99
0156480770999992000031206004+18800+095220FM-12+0060VBPR V0209999C000012200019N0110001N1+03301+01511101031ADDAA199000091GA1001+999999999GF100991001001999999001001MD1999999-0101REMSYN058AAXX  12064 48077 32961 00000 10330 20151 40103 333 59010;EQDQ01  00002PRCP99
0162480770999992000031209004+18800+095220FM-12+0060VBPR V0209999C000012200019N0100001N1+03601+01061100661ADDAA199000091GA1001+999999999GF100991001001999999001001MD1999999-0111REMSYN064AAXX  12094 48077 32960 00000 10360 20106 40066 333 56000 59011;EQDQ01  00002PRCP99
0171480770999992000031212004+18800+095220FM-12+0060VBPR V0209999C000010450019N0080001N1+03361+01641100571ADDAA199000091GF105991041081008001031001KA1120M+03671MD1999999-0211REMSYN076AAXX  12124 48077 32558 50000 10336 20164 40057 84830 333 10367 56690 59021;EQDQ01  00002PRCP99
0203480770999992000031300004+18800+095220FM-12+0060VBPR V0200401N000512200019N0080001N1+02201+01851100921ADDAA199000091AY101061AY201061GA1001+999999999GF100991001001999999001001KA1120N+02191MD1999999+0001MW1101REMSYN070AAXX  13004 48077 31958 00401 10220 20185 40092 71000 333 20219 59000;EQDQ01  00002PRCP99
0162480770999992000031303004+18800+095220FM-12+0060VBPR V0202301N000512200019N0100001N1+02601+02151101181ADDAA199000091GA1001+999999999GF100991001001999999001001MD1999999+0111REMSYN064AAXX  13034 48077 32960 02301 10260 20215 40118 333 56000 58011;EQDQ01  00002PRCP99
0199480770999992000031312004+18800+095220FM-12+0060VBPR V0209999C000012200019N0060001N1+03271+01911100721ADDAA199000091AY101061AY201061GF103991021011008001031001KA1120M+03601MD1999999+0101MW1051REMSYN082AAXX  13124 48077 31556 30000 10327 20191 40072 70500 82130 333 10360 56990 58010;EQDQ01  00002PRCP99
0203480770999992000031400004+18800+095220FM-12+0060VBPR V0209999C000012200019N0080001N1+02201+01851101031ADDAA199000091AY101061AY201061GA1001+999999999GF100991001001999999001001KA1120N+02151MD1999999+0111MW1101REMSYN070AAXX  14004 48077 31958 00000 10220 20185 40103 71000 333 20215 58011;EQDQ01  00002PRCP99
0162480770999992000031403004+18800+095220FM-12+0060VBPR V0200401N000512200019N0100001N1+02661+01601101201ADDAA199000091GA1001+999999999GF100991001001999999001001MD1999999+0021REMSYN064AAXX  14034 48077 32960 00401 10266 20160 40120 333 56000 58002;EQDQ01  00002PRCP99
0140480770999992000031406004+18800+095220FM-12+0060VBPR V0203201N000512200019N0110001N1+03401+01451101111ADDAA199000091GF101991999999999999999999MD1999999+0021REMSYN058AAXX  14064 48077 32961 13201 10340 20145 40111 333 58002;EQDQ01  00002PRCP99
0190480770999992000031409004+18800+095220FM-12+0060VBPR V0209999C000012200019N0090001N1+03801+01121100761ADDAA199000091AY101031AY201031GA1001+999999999GF100991001001999999001001MD1999999+0021MW1051REMSYN070AAXX  14094 48077 31959 00000 10380 20112 40076 70500 333 56000 58002;EQDQ01  00002PRCP99
0209480770999992000031412004+18800+095220FM-12+0060VBPR V0202301N002112200019N0080001N1+03401+01641100681ADDAA199000091AY101061AY201061GA1001+999999999GF100991001001999999001001KA1120M+03811MD1999999-0041MW1051REMSYN076AAXX  14124 48077 31958 02304 10340 20164 40068 70500 333 10381 56000 59004;EQDQ01  00002PRCP99
0209480770999992000031500004+18800+095220FM-12+0060VBPR V0209999C000012200019N0080001N1+02201+01851100981ADDAA199000091AY101061AY201061GA1001+999999999GF100991001001999999001001KA1120N+02151MD1999999-0041MW1101REMSYN076AAXX  15004 48077 31958 00000 10220 20185 40098 71000 333 20215 56000 59004;EQDQ01  00002PRCP99
0190480770999992000031503004+18800+095220FM-12+0060VBPR V0209999C000012200019N0100001N1+02601+01791101101ADDAA199000091AY101031AY201031GA1001+999999999GF100991001001999999001001MD1999999-0101MW1051REMSYN070AAXX  15034 48077 31597 00000 10260 20179 40110 70500 333 56000 59010;EQDQ01  00002PRCP99
0184480770999992000031506004+18800+095220FM-12+0060VBPR V0200401N000512200019N0100001N1+03601+01321101041ADDAA199000091AY101061AY201061GA1001+999999999GF100991001001999999001001MD1999999-0061MW1051REMSYN064AAXX  15064 48077 31960 00401 10360 20132 40104 70500 333 59006;EQDQ01  00002PRCP99
0196480770999992000031509004+18800+095220FM-12+0060VBPR V0209999C000012200019N0100001N1+03801+01401100631ADDAA199000091AY101031AY201031GF102991999001999999031001MD1999999-0131MW1051REMSYN076AAXX  15094 48077 31960 20000 10380 20140 40063 70500 80030 333 56090 59013;EQDQ01+000002SCOTLCQ02  00002PRCP99
0203480770999992000031512004+18800+095220FM-12+0060VBPR V0200401N000512200019N0080001N1+03371+00981100591ADDAA199000091AY101061AY201061GA1001+999999999GF100991001001999999001001KA1120M+03821MD1999999-0091MW1051REMSYN070AAXX  15124 48077 31958 00401 10337 20098 40059 70500 333 10382 59009;EQDQ01  00002PRCP99
0175480770999992000031600004+18800+095220FM-12+0060VBPR V0209999C000012200019N0060001N1+02141+01601100851ADDAA199000091GA1001+999999999GF100991001001999999001001KA1120N+02121MD1999999-0131REMSYN064AAXX  16004 48077 32956 00000 10214 20160 40085 333 20212 59013;EQDQ01  00002PRCP99
0156480770999992000031603004+18800+095220FM-12+0060VBPR V0209999C000012200019N0100001N1+02701+01911101071ADDAA199000091GA1001+999999999GF100991001001999999001001MD1999999-0031REMSYN058AAXX  16034 48077 32960 00000 10270 20191 40107 333 59003;EQDQ01  00002PRCP99
0162480770999992000031606004+18800+095220FM-12+0060VBPR V0200401N000512200019N0110001N1+03401+01251101011ADDAA199000091GA1001+999999999GF100991001001999999001001MD1999999-0031REMSYN064AAXX  16064 48077 32961 00401 10340 20125 40101 333 56000 59003;EQDQ01  00002PRCP99
0162480770999992000031609004+18800+095220FM-12+0060VBPR V0202301N001012200019N0100001N1+03801+01401100611ADDAA199000091GA1001+999999999GF100991001001999999001001MD1999999-0021REMSYN064AAXX  16094 48077 32960 02302 10380 20140 40061 333 56000 59002;EQDQ01  00002PRCP99
0175480770999992000031612004+18800+095220FM-12+0060VBPR V0202301N001512200019N0090001N1+03341+01261100581ADDAA199000091GA1001+999999999GF100991001001999999001001KA1120M+03821MD1999999-0011REMSYN064AAXX  16124 48077 32959 02303 10334 20126 40058 333 10382 59001;EQDQ01  00002PRCP99
0203480770999992000031700004+18800+095220FM-12+0060VBPR V0209999C000012200019N0060001N1+02211+01851100791ADDAA199000091AY101061AY201061GA1001+999999999GF100991001001999999001001KA1120N+02181MD1999999-0061MW1101REMSYN070AAXX  17004 48077 31956 00000 10221 20185 40079 71000 333 20218 59006;EQDQ01  00002PRCP99
0184480770999992000031703004+18800+095220FM-12+0060VBPR V0209999C000012200019N0100001N1+02701+02111101071ADDAA199000091AY101031AY201031GA1001+999999999GF100991001001999999001001MD1999999-0011MW1051REMSYN064AAXX  17034 48077 31960 00000 10270 20211 40107 70500 333 59001;EQDQ01  00002PRCP99
0180480770999992000031706004+18800+095220FM-12+0060VBPR V0202701N001012200019N0100001N1+03401+01641100871ADDAA199000091AY101061AY201061GF102991021021008001001001MD1999999-0141MW1051REMSYN076AAXX  17064 48077 31560 22702 10340 20164 40087 70500 82200 333 56600 59014;EQDQ01  00002PRCP99
0203480770999992000031712004+18800+095220FM-12+0060VBPR V0202301N002112200019N0080001N1+03541+01261100551ADDAA199000091AY101061AY201061GA1001+999999999GF100991001001999999001001KA1120M+03721MD1999999-0041MW1051REMSYN070AAXX  17124 48077 31958 02304 10354 20126 40055 70500 333 10372 59004;EQDQ01  00002PRCP99
0181480770999992000031800004+18800+095220FM-12+0060VBPR V0209999C000012200019N0080001N1+02101+01751100821ADDAA199000091GA1001+999999999GF100991001001999999001001KA1120N+02051MD1999999-0251REMSYN070AAXX  18004 48077 32958 00000 10210 20175 40082 333 20205 56000 59025;EQDQ01  00002PRCP99
0156480770999992000031806004+18800+095220FM-12+0060VBPR V0202301N000512200019N0110001N1+03401+01451101001ADDAA199000091GA1001+999999999GF100991001001999999001001MD1999999+0141REMSYN058AAXX  18064 48077 32961 02301 10340 20145 40100 333 58014;EQDQ01  00002PRCP99
0184480770999992000031809004+18800+095220FM-12+0060VBPR V0209999C000012200019N0100001N1+03701+01481100641ADDAA199000091AY101031AY201031GA1001+999999999GF100991001001999999001001MD1999999+0151MW1051REMSYN064AAXX  18094 48077 31960 00000 10370 20148 40064 70500 333 58015;EQDQ01  00002PRCP99
0203480770999992000031812004+18800+095220FM-12+0060VBPR V0209999C000012200019N0090001N1+03321+01261100621ADDAA199000091AY101061AY201061GA1001+999999999GF100991001001999999001001KA1120M+03721MD1999999-0081MW1051REMSYN070AAXX  18124 48077 31959 00000 10332 20126 40062 70500 333 10372 59008;EQDQ01  00002PRCP99
0199480770999992000031900004+18800+095220FM-12+0060VBPR V0209999C000012200019N0060001N1+02101+01201100891ADDAA199000091AY101061AY201061GF103991001001999999001011KA1120N+02081MD1999999+0071MW1101REMSYN082AAXX  19004 48077 31956 30000 10210 20120 40089 71000 80001 333 20208 56009 58007;EQDQ01  00002PRCP99
0190480770999992000031903004+18800+095220FM-12+0060VBPR V0209999C000012200019N0100001N1+02701+01331101141ADDAA199000091AY101031AY201031GA1001+999999999GF100991001001999999001001MD1999999+0061MW1051REMSYN070AAXX  19034 48077 31960 00000 10270 20133 40114 70500 333 56000 58006;EQDQ01  00002PRCP99
0184480770999992000031906004+18800+095220FM-12+0060VBPR V0209999C000012200019N0150001N1+03611+01321101001ADDAA199000091AY101061AY201061GA1001+999999999GF100991001001999999001001MD1999999+0001MW1051REMSYN064AAXX  19064 48077 31965 00000 10361 20132 40100 70500 333 58000;EQDQ01  00002PRCP99
0184480770999992000031909004+18800+095220FM-12+0060VBPR V0209999C000012200019N0110001N1+03911+01541100741ADDAA199000091AY101031AY201031GA1001+999999999GF100991001001999999001001MD1999999+0101MW1051REMSYN064AAXX  19094 48077 31961 00000 10391 20154 40074 70500 333 58010;EQDQ01  00002PRCP99
0193480770999992000031912004+18800+095220FM-12+0060VBPR V0209999C000012200019N0080001N1+03311+01591999999ADDAA199000091AY101061AY201061GF103991001001999999001011KA1120M+03961MD1999999+0011MW1051REMSYN076AAXX  19124 48077 31958 30000 10331 20159 70500 80001 333 10396 56009 58001;EQDQ01  00002PRCP99
0203480770999992000032000004+18800+095220FM-12+0060VBPR V0209999C000012200019N0060001N1+02101+01951100851ADDAA199000091AY101061AY201061GA1001+999999999GF100991001001999999001001KA1120N+01921MD1999999-0041MW1101REMSYN070AAXX  20004 48077 31956 00000 10210 20195 40085 71000 333 20192 59004;EQDQ01  00002PRCP99
0184480770999992000032003004+18800+095220FM-12+0060VBPR V0209999C000012200019N0080001N1+02651+02031101021ADDAA199000091AY101031AY201031GA1001+999999999GF100991001001999999001001MD1999999-0121MW1051REMSYN064AAXX  20034 48077 31958 00000 10265 20203 40102 70500 333 59012;EQDQ01  00002PRCP99
