0196484180999992000010100004+15270+101180FM-12+005099999V0209999C000012200019N0120001N1+01901+01741101221ADDAA106000091GA1001+999999999GF100991001001999999001001KA1120N+01761MA1999999100651MD1999999+0111REMSYN070AAXX  01004 48418 32962 00000 10190 20174 30065 40122 333 20176 58011;EQDQ01  00002PRCP06
0167484180999992000010103004+15270+101180FM-12+005099999V0200901N003612200019N0150001N1+02701+01841101251ADDAA106000091GF101991001001999999001021MA1999999100691MD1999999-0031REMSYN070AAXX  01034 48418 32965 10907 10270 20184 30069 40125 80002 333 59003;EQDQ01  00002PRCP06
0177484180999992000010106004+15270+101180FM-12+005099999V0200401N004112200019N0150001N1+03151+01841100941ADDAA106000091GA1001+999999999GF100991001001999999001001MA1999999100381MD1999999-0021REMSYN064AAXX  01064 48418 32965 00408 10315 20184 30038 40094 333 59002;EQDQ01  00002PRCP06
0167484180999992000010109004+15270+101180FM-12+005099999V0201101N003612200019N0140001N1+03351+01901100711ADDAA106000091GF101991001001999999001021MA1999999100171MD1999999-0061REMSYN070AAXX  01094 48418 32964 11107 10335 20190 30017 40071 80002 333 59006;EQDQ01  00002PRCP06
0186484180999992000010112004+15270+101180FM-12+005099999V0209999C000012200019N0100001N1+02721+01831100881ADDAA106000091GF101991001001999999001051KA1120M+03471MA1999999100321MD1999999-0031REMSYN076AAXX  01124 48418 32960 10000 10272 20183 30032 40088 80005 333 10347 59003;EQDQ01  00002PRCP06
0205484180999992000010115004+15270+101180FM-12+005099999V0209999C000012200019N0060001N1+02151+01691101181ADDAA106000091AY101031AY201031GA1001+999999999GF100991001001999999001001MA1999999100611MD1999999+0011MW1101REMSYN070AAXX  01154 48418 31956 00000 10215 20169 30061 40118 71000 333 58001;EQDQ01  00002PRCP06
0205484180999992000010118004+15270+101180FM-12+005099999V0209999C000012200019N0040001N1+01951+01651101111ADDAA106000091AY101061AY201061GA1001+999999999GF100991001001999999001001MA1999999100541MD1999999-0041MW1101REMSYN070AAXX  01184 48418 31940 00000 10195 20165 30054 40111 71000 333 59004;EQDQ01  00002PRCP06
0205484180999992000010121004+15270+101180FM-12+005099999V0209999C000012200019N0040001N1+01931+01631101081ADDAA106000091AY101031AY201031GA1001+999999999GF100991001001999999001001MA1999999100511MD1999999+0011MW1101REMSYN070AAXX  01214 48418 31940 00000 10193 20163 30051 40108 71000 333 58001;EQDQ01  00002PRCP06
0186484180999992000010200004+15270+101180FM-12+005099999V0209999C000012200019N0120001N1+02101+01781101181ADDAA106000091GF101991001001999999001051KA1120N+01841MA1999999100601MD1999999-0041REMSYN076AAXX  02004 48418 32962 10000 10210 20178 30060 40118 80005 333 20184 59004;EQDQ01  00002PRCP06
0177484180999992000010203004+15270+101180FM-12+005099999V0200801N004112200019N0150001N1+02601+01811101371ADDAA106000091GA1001+999999999GF100991001001999999001001MA1999999100811MD1999999+0121REMSYN064AAXX  02034 48418 32965 00808 10260 20181 30081 40137 333 58012;EQDQ01  00002PRCP06
0167484180999992000010206004+15270+101180FM-12+005099999V0200501N003119999999N0170001N1+03031+01741101051ADDAA106000091GF105991001001999999001061MA1999999100491MD1999999+0111REMSYN070AAXX  02064 48418 32967 50506 10303 20174 30049 40105 80006 333 58011;EQDQ01  00002PRCP06
0167484180999992000010209004+15270+101180FM-12+005099999V0200801N002612200019N0140001N1+03171+01841100731ADDAA106000091GF104991001001999999001021MA1999999100181MD1999999+0021REMSYN070AAXX  02094 48418 32964 40805 10317 20184 30018 40073 80002 333 58002;EQDQ01  00002PRCP06
0196484180999992000010212004+15270+101180FM-12+005099999V0209999C000012200019N0100001N1+02701+02011100921ADDAA106000091GA1001+999999999GF100991001001999999001001KA1120M+03201MA1999999100361MD1999999+0041REMSYN070AAXX  02124 48418 32960 00000 10270 20201 30036 40092 333 10320 58004;EQDQ01  00002PRCP06
0205484180999992000010215004+15270+101180FM-12+005099999V0209999C000012200019N0050001N1+02251+01941101101ADDAA106000091AY101031AY201031GA1001+999999999GF100991001001999999001001MA1999999100531MD1999999-0081MW1101REMSYN070AAXX  02154 48418 31950 00000 10225 20194 30053 40110 71000 333 59008;EQDQ01  00002PRCP06
0205484180999992000010218004+15270+101180FM-12+005099999V0209999C000012200019N0050001N1+02071+01881101021ADDAA106000091AY101061AY201061GA1001+999999999GF100991001001999999001001MA1999999100451MD1999999-0091MW1101REMSYN070AAXX  02184 48418 31950 00000 10207 20188 30045 40102 71000 333 59009;EQDQ01  00002PRCP06
0205484180999992000010221004+15270+101180FM-12+005099999V0209999C000012200019N0040001N1+02151+01831101021ADDAA106000091AY101031AY201031GA1001+999999999GF100991001001999999001001MA1999999100451MD1999999-0061MW1101REMSYN070AAXX  02214 48418 31940 00000 10215 20183 30045 40102 71000 333 59006;EQDQ01  00002PRCP06
0196484180999992000010300004+15270+101180FM-12+005099999V0200801N002612200019N0130001N1+02151+01691101181ADDAA106000091GA1001+999999999GF100991001001999999001001KA1120N+01971MA1999999100611MD1999999+0001REMSYN070AAXX  03004 48418 32963 00805 10215 20169 30061 40118 333 20197 58000;EQDQ01  00002PRCP06
0167484180999992000010303004+15270+101180FM-12+005099999V0200901N002619999999N0170001N1+02701+01791101291ADDAA106000091GF105991001001999999001061MA1999999100731MD1999999-0081REMSYN070AAXX  03034 48418 32967 50905 10270 20179 30073 40129 80006 333 59008;EQDQ01  00002PRCP06
0167484180999992000010306004+15270+101180FM-12+005099999V0209999C000019999999N0170001N1+03051+01751101011ADDAA106000091GF107991001001999999001061MA1999999100451MD1999999-0041REMSYN070AAXX  03064 48418 32967 70000 10305 20175 30045 40101 80006 333 59004;EQDQ01  00002PRCP06
0167484180999992000010309004+15270+101180FM-12+005099999V0200901N002619999999N0140001N1+03151+01931100741ADDAA106000091GF107991001001999999001061MA1999999100181MD1999999+0001REMSYN070AAXX  03094 48418 32964 70905 10315 20193 30018 40074 80006 333 58000;EQDQ01  00002PRCP06
0214484180999992000010312004+15270+101180FM-12+005099999V0209999C000012200019N0080001N1+02651+02121100871ADDAA106000091AY111061AY201061GF103991001001999999001021KA1120M+03171MA1999999100311MD1999999-0051MW1101REMSYN082AAXX  03124 48418 31958 30000 10265 20212 30031 40087 71010 80002 333 10317 59005;EQDQ01  00002PRCP06
0205484180999992000010315004+15270+101180FM-12+005099999V0209999C000012200019N0050001N1+02231+01901101071ADDAA106000091AY101031AY201031GA1001+999999999GF100991001001999999001001MA1999999100511MD1999999-0031MW1101REMSYN070AAXX  03154 48418 31950 00000 10223 20190 30051 40107 71000 333 59003;EQDQ01  00002PRCP06
0205484180999992000010318004+15270+101180FM-12+005099999V0209999C000012200019N0040001N1+02051+01811100991ADDAA106000091AY101061AY201061GA1001+999999999GF100991001001999999001001MA1999999100411MD1999999-0041MW1101REMSYN070AAXX  03184 48418 31940 00000 10205 20181 30041 40099 71000 333 59004;EQDQ01  00002PRCP06
0205484180999992000010321004+15270+101180FM-12+005099999V0209999C000012200019N0040001N1+01861+01761100881ADDAA106000091AY101031AY201031GA1001+999999999GF100991001001999999001001MA1999999100311MD1999999-0141MW1101REMSYN070AAXX  03214 48418 31940 00000 10186 20176 30031 40088 71000 333 59014;EQDQ01  00002PRCP06
0214484180999992000010400004+15270+101180FM-12+005099999V0209999C000012200019N0080001N1+01811+01761100981ADDAA106000091AY111061AY211061GF103991001001999999001051KA1120N+01721MA1999999100411MD1999999-0201MW1101REMSYN082AAXX  04004 48418 31958 30000 10181 20176 30041 40098 71011 80005 333 20172 59020;EQDQ01  00002PRCP06
0167484180999992000010406004+15270+101180FM-12+005099999V0209999C000012200019N0140001N1+03241+01861100921ADDAA106000091GF102991021011008001001001MA1999999100371MD1999999-0091REMSYN070AAXX  04064 48418 32564 20000 10324 20186 30037 40092 82100 333 59009;EQDQ01  00002PRCP06
0167484180999992000010409004+15270+101180FM-12+005099999V0209999C000012200019N0140001N1+03411+01871100681ADDAA106000091GF102991021011008001001001MA1999999100131MD1999999-0061REMSYN070AAXX  04094 48418 32564 20000 10341 20187 30013 40068 82100 333 59006;EQDQ01  00002PRCP06
0230484180999992000010412004+15270+101180FM-12+005099999V0209999C000012200019N0080001N1+02731+02211100851ADDAA106000091AY101061AY201061GA1001+999999999GF100991001001999999001001KA1120M+03421MA1999999100291MD1999999-0021MW1101REMSYN082AAXX  04124 48418 31958 00000 10273 20221 30029 40085 71000 8//// 333 10342 59002;EQDQ01  00002PRCP06
0205484180999992000010415004+15270+101180FM-12+005099999V0209999C000012200019N0040001N1+02301+02091101041ADDAA106000091AY101031AY201031GA1001+999999999GF100991001001999999001001MA1999999100471MD1999999-0031MW1101REMSYN070AAXX  04154 48418 31940 00000 10230 20209 30047 40104 71000 333 59003;EQDQ01  00002PRCP06
0205484180999992000010418004+15270+101180FM-12+005099999V0209999C000012200019N0040001N1+02081+01861101061ADDAA106000091AY101061AY201061GA1001+999999999GF100991001001999999001001MA1999999100491MD1999999+0071MW1101REMSYN070AAXX  04184 48418 31940 00000 10208 20186 30049 40106 71000 333 58007;EQDQ01  00002PRCP06
0205484180999992000010421004+15270+101180FM-12+005099999V0209999C000012200019N0040001N1+01931+01801100941ADDAA106000091AY101031AY201031GA1001+999999999GF100991001001999999001001MA1999999100371MD1999999+0061MW1101REMSYN070AAXX  04214 48418 31940 00000 10193 20180 30037 40094 71000 333 58006;EQDQ01  00002PRCP06
0224484180999992000010500004+15270+101180FM-12+005099999V0209999C000012200019N0080001N1+01801+01721101061ADDAA106000091AY101061AY201061GA1001+999999999GF100991001001999999001001KA1120N+01771MA1999999100481MD1999999+0081MW1101REMSYN076AAXX  05004 48418 31958 00000 10180 20172 30048 40106 71000 333 20177 58008;EQDQ01  00002PRCP06
0177484180999992000010503004+15270+101180FM-12+005099999V0209999C000012200019N0120001N1+02771+02021101151ADDAA106000091GA1001+999999999GF100991001001999999001001MA1999999100591MD1999999-0051REMSYN064AAXX  05034 48418 32962 00000 10277 20202 30059 40115 333 59005;EQDQ01  00002PRCP06
0177484180999992000010506004+15270+101180FM-12+005099999V0209999C000012200019N0140001N1+03371+01841100871ADDAA106000091GA1001+999999999GF100991001001999999001001MA1999999100321MD1999999-0051REMSYN064AAXX  05064 48418 32964 00000 10337 20184 30032 40087 333 59005;EQDQ01  00002PRCP06
0177484180999992000010509004+15270+101180FM-12+005099999V0209999C000012200019N0140001N1+03551+01841100611ADDAA106000091GA1001+999999999GF100991001001999999001001MA1999999100071MD1999999-0071REMSYN064AAXX  05094 48418 32964 00000 10355 20184 30007 40061 333 59007;EQDQ01  00002PRCP06
0224484180999992000010512004+15270+101180FM-12+005099999V0209999C000012200019N0080001N1+02751+02071100751ADDAA106000091AY101061AY201061GA1001+999999999GF100991001001999999001001KA1120M+03581MA1999999100191MD1999999-0101MW1101REMSYN076AAXX  05124 48418 31958 00000 10275 20207 30019 40075 71000 333 10358 59010;EQDQ01  00002PRCP06
0211484180999992000010515004+15270+101180FM-12+005099999V0209999C000012200019N0040001N1+02401+02011100961ADDAA106000091AY101031AY201031GA1001+999999999GF100991001001999999001001MA1999999100401MD1999999-0081MW1101REMSYN076AAXX  05154 48418 31940 00000 10240 20201 30040 40096 71000 8//// 333 59008;EQDQ01  00002PRCP06
0205484180999992000010518004+15270+101180FM-12+005099999V0209999C000012200019N0040001N1+02201+01921100971ADDAA106000091AY101061AY201061GA1001+999999999GF100991001001999999001001MA1999999100401MD1999999-0091MW1101REMSYN070AAXX  05184 48418 31940 00000 10220 20192 30040 40097 71000 333 59009;EQDQ01  00002PRCP06
0205484180999992000010521004+15270+101180FM-12+005099999V0209999C000012200019N0040001N1+02011+01831100861ADDAA106000091AY101031AY201031GA1001+999999999GF100991001001999999001001MA1999999100291MD1999999-0081MW1101REMSYN070AAXX  05214 48418 31940 00000 10201 20183 30029 40086 71000 333 59008;EQDQ01  00002PRCP06
0195484180999992000010603004+15270+101180FM-12+005099999V0209999C000012200019N0060001N1+02681+02111101151ADDAA106000091AY111031AY211031GF104991001001999999001051MA1999999100591MD1999999+0001MW1101REMSYN076AAXX  06034 48418 31956 40000 10268 20211 30059 40115 71011 80005 333 58000;EQDQ01  00002PRCP06
0167484180999992000010606004+15270+101180FM-12+005099999V0209999C000012200019N0100001N1+03301+01991100831ADDAA106000091GF104991021011008001001051MA1999999100271MD1999999-0051REMSYN070AAXX  06064 48418 32560 40000 10330 20199 30027 40083 82105 333 59005;EQDQ01  00002PRCP06
0183484180999992000010609004+15270+101180FM-12+005099999V0209999C000012200019N0120001N1+03501+02041100611ADDAA106000091GF102991001001999999001051MA1999999100061MD1999999-0011REMSYN070AAXX  06094 48418 32562 20000 10350 20204 30006 40061 80005 333 59001;EQDQ01+008002SCOLCBQ02  00002PRCP06
0224484180999992000010612004+15270+101180FM-12+005099999V0209999C000012200019N0060001N1+02811+02121100751ADDAA106000091AY101061AY201061GA1001+999999999GF100991001001999999001001KA1120M+03581MA1999999100191MD1999999+0001MW1101REMSYN076AAXX  06124 48418 31956 00000 10281 20212 30019 40075 71000 333 10358 58000;EQDQ01  00002PRCP06
0205484180999992000010615004+15270+101180FM-12+005099999V0209999C000012200019N0030001N1+02491+02491101021ADDAA106000091AY101031AY201031GA1001+999999999GF100991001001999999001001MA1999999100461MD1999999+0061MW1101REMSYN070AAXX  06154 48418 31930 00000 10249 20249 30046 40102 71000 333 58006;EQDQ01  00002PRCP06
0205484180999992000010621004+15270+101180FM-12+005099999V0209999C000012200019N0020001N1+02201+02051100901ADDAA106000091AY101031AY201031GA1001+999999999GF100991001001999999001001MA1999999100331MD1999999+0041MW1101REMSYN070AAXX  06214 48418 31920 00000 10220 20205 30033 40090 71000 333 58004;EQDQ01  00002PRCP06
0214484180999992000010700004+15270+101180FM-12+005099999V0209999C000012200019N0004001N1+02041+02011100971ADDAA106000091AY141061AY211061GF104991001001999999001051KA1120N+02031MA1999999100401MD1999999+0031MW1441REMSYN082AAXX  07004 48418 31904 40000 10204 20201 30040 40097 74441 80005 333 20203 58003;EQDQ01  00002PRCP06
0195484180999992000010703004+15270+101180FM-12+005099999V0209999C000019999999N0060001N1+02751+02171101171ADDAA106000091AY141031AY211031GF105991001001999999001061MA1999999100611MD1999999+0021MW1101REMSYN076AAXX  07034 48418 31956 50000 10275 20217 30061 40117 71041 80006 333 58002;EQDQ01  00002PRCP06
0167484180999992000010706004+15270+101180FM-12+005099999V0209999C000012200019N0110001N1+03301+02201100851ADDAA106000091GF104991011011008001001061MA1999999100301MD1999999+0031REMSYN070AAXX  07064 48418 32561 40000 10330 20220 30030 40085 81106 333 58003;EQDQ01  00002PRCP06
0167484180999992000010709004+15270+101180FM-12+005099999V0209999C000010450019N0100001N1+03321+02171100671ADDAA106000091GF107991031081008001051061MA1999999100121MD1999999+0071REMSYN070AAXX  07094 48418 32560 70000 10332 20217 30012 40067 83856 333 58007;EQDQ01  00002PRCP06
0214484180999992000010712004+15270+101180FM-12+005099999V0209999C000011050019N0060001N1+02951+02131100841ADDAA106000091AY121061AY221061GF106991021051008001051061KA1120M+03461MA1999999100281MD1999999+0101MW1051REMSYN082AAXX  07124 48418 31556 60000 10295 20213 30028 40084 70522 82556 333 10346 58010;EQDQ01  00002PRCP06
0195484180999992000010715004+15270+101180FM-12+005099999V0209999C000010450019N0040001N1+02581+02131101071ADDAA106000091AY121031AY221031GF108991031051008001051061MA1999999100511MD1999999+0051MW1101REMSYN076AAXX  07154 48418 31540 80000 10258 20213 30051 40107 71022 83556 333 58005;EQDQ01  00002PRCP06
0205484180999992000010718004+15270+101180FM-12+005099999V0209999C000012200019N0030001N1+02331+02101101051ADDAA106000091AY101061AY201061GA1001+999999999GF100991001001999999001001MA1999999100481MD1999999+0031MW1101REMSYN070AAXX  07184 48418 31930 00000 10233 20210 30048 40105 71000 333 58003;EQDQ01  00002PRCP06
0205484180999992000010721004+15270+101180FM-12+005099999V0209999C000012200019N0020001N1+02201+02051100961ADDAA106000091AY101031AY201031GA1001+999999999GF100991001001999999001001MA1999999100391MD1999999+0061MW1101REMSYN070AAXX  07214 48418 31920 00000 10220 20205 30039 40096 71000 333 58006;EQDQ01  00002PRCP06
0214484180999992000010800004+15270+101180FM-12+005099999V0209999C000019999999N0040001N1+02101+02011101111ADDAA106000091AY121061AY221061GF108991001001999999001071KA1120N+02071MA1999999100521MD1999999+0141MW1101REMSYN082AAXX  08004 48418 31940 80000 10210 20201 30052 40111 71022 80007 333 20207 58014;EQDQ01  00002PRCP06
0195484180999992000010803004+15270+101180FM-12+005099999V0209999C000012200019N0070001N1+02651+02201101241ADDAA106000091AY121031AY221031GF106991031011008001001061MA1999999100681MD1999999+0071MW1101REMSYN076AAXX  08034 48418 31557 60000 10265 20220 30068 40124 71022 83106 333 58007;EQDQ01  00002PRCP06
0195484180999992000010806004+15270+101180FM-12+005099999V0209999C000012200019N0070001N1+03301+02151100981ADDAA106000091AY121061AY221061GF105991021021008001001061MA1999999100331MD1999999+0031MW1051REMSYN076AAXX  08064 48418 31557 50000 10330 20215 30033 40098 70522 82206 333 58003;EQDQ01  00002PRCP06
0195484180999992000010809004+15270+101180FM-12+005099999V0209999C000012200019N0070001N1+03331+02101100651ADDAA106000091AY101031AY201031GF102991021021008001001051MA1999999100101MD1999999-0021MW1051REMSYN076AAXX  08094 48418 31557 20000 10333 20210 30010 40065 70500 82205 333 59002;EQDQ01  00002PRCP06
0213484180999992000010812004+15270+101180FM-12+005099999V0202901N002612200019N0040001N1+02741+02121100841ADDAA101000791AY121061AY201061GF102991021051008001001001KA1120M+02751MA1999999100281MD1999999+0001MW1291REMSYN100AAXX  08124 48418 /1540 22905 10274 20212 30028 40084 69902 72920 82500 333 10275 58000 69905 79999;
0211484180999992000010815004+15270+101180FM-12+005099999V0209999C000012200019N0030001N1+02451+02131101031ADDAA106000091AY101031AY201031GA1001+999999999GF100991001001999999001001MA1999999100471MD1999999-0041MW1101REMSYN076AAXX  08154 48418 31930 00000 10245 20213 30047 40103 71000 8//// 333 59004;EQDQ01  00002PRCP06
0217484180999992000010818004+15270+101180FM-12+005099999V0209999C000012200019N0030001N1+02351+02121101071ADDAA106000091AY101061AY201061GA1001+999999999GF100991001001999999001001MA1999999100511MD1999999+0021MW1101REMSYN082AAXX  08184 48418 31930 00000 10235 20212 30051 40107 71000 8//// 333 58002 79999;EQDQ01  00002PRCP06
0195484180999992000010821004+15270+101180FM-12+005099999V0209999C000019999999N0020001N1+02301+02151101001ADDAA106000091AY121031AY221031GF106991001001999999001061MA1999999100441MD1999999+0041MW1101REMSYN076AAXX  08214 48418 31920 60000 10230 20215 30044 40100 71022 80006 333 58004;EQDQ01  00002PRCP06
0207484180999992000010900004+15270+101180FM-12+005099999V0209999C000010450019N0020001N1+02301+02191101071ADDAA124000791AY121061AY221061GF108991021051008001051071KA1120N+02251MA1999999100501MD1999999-0041MW1101REMSYN094AAXX  09004 48418 11520 80000 10230 20219 30050 40107 69904 71022 82557 333 20225 59004 79999;
0195484180999992000010903004+15270+101180FM-12+005099999V0209999C000012200019N0030001N1+02801+02361101211ADDAA106000091AY111031AY201031GF103991011051008001051051MA1999999100651MD1999999-0021MW1101REMSYN076AAXX  09034 48418 31530 30000 10280 20236 30065 40121 71010 81555 333 59002;EQDQ01  00002PRCP06
0195484180999992000010909004+15270+101180FM-12+005099999V0209999C000010450019N0070001N1+03331+02291100661ADDAA106000091AY121031AY221031GF108991011021008001051061MA1999999100121MD1999999+0011MW1051REMSYN076AAXX  09094 48418 31557 80000 10333 20229 30012 40066 70522 81256 333 58001;EQDQ01  00002PRCP06
0214484180999992000010912004+15270+101180FM-12+005099999V0209999C000010450019N0040001N1+03031+02411100791ADDAA106000091AY121061AY221061GF108991021051008001071071KA1120M+03371MA1999999100231MD1999999-0051MW1051REMSYN082AAXX  09124 48418 31540 80000 10303 20241 30023 40079 70522 82577 333 10337 59005;EQDQ01  00002PRCP06
0195484180999992000010915004+15270+101180FM-12+005099999V0209999C000010450019N0020001N1+02651+02431100991ADDAA106000091AY121031AY221031GF107991021051008001051061MA1999999100431MD1999999-0031MW1101REMSYN076AAXX  09154 48418 31520 70000 10265 20243 30043 40099 71022 82556 333 59003;EQDQ01  00002PRCP06
0195484180999992000010918004+15270+101180FM-12+005099999V0209999C000010450019N0020001N1+02521+02271100931ADDAA106000091AY121061AY221061GF107991021051008001051061MA1999999100371MD1999999-0141MW1101REMSYN076AAXX  09184 48418 31520 70000 10252 20227 30037 40093 71022 82556 333 59014;EQDQ01  00002PRCP06
0211484180999992000010921004+15270+101180FM-12+005099999V0209999C000012200019N0010001N1+02331+02161100851ADDAA106000091AY101031AY201031GA1001+999999999GF100991001001999999001001MA1999999100291MD1999999-0151MW1101REMSYN076AAXX  09214 48418 31910 00000 10233 20216 30029 40085 71000 8//// 333 59015;EQDQ01  00002PRCP06
0214484180999992000011000004+15270+101180FM-12+005099999V0209999C000011050019N0010001N1+02251+02171100901ADDAA106000091AY121061AY221061GF106991021051008001031061KA1120N+02201MA1999999100381MD1999999-0121MW1101REMSYN082AAXX  10004 48418 31510 60000 10225 20217 30038 40090 71022 82536 333 20220 59012;EQDQ01  00002PRCP06
0195484180999992000011003004+15270+101180FM-12+005099999V0209999C000019999999N0040001N1+02751+02311101111ADDAA106000091AY111031AY211031GF105991021001999999031061MA1999999100551MD1999999-0101MW1101REMSYN076AAXX  10034 48418 31940 50000 10275 20231 30055 40111 71011 82036 333 59010;EQDQ01  00002PRCP06
0195484180999992000011006004+15270+101180FM-12+005099999V0209999C000010450019N0080001N1+03301+02251100861ADDAA106000091AY111061AY211061GF105991011011008001031051MA1999999100311MD1999999-0021MW1051REMSYN076AAXX  10064 48418 31558 50000 10330 20225 30031 40086 70511 81135 333 59002;EQDQ01  00002PRCP06
0195484180999992000011009004+15270+101180FM-12+005099999V0202701N002111050019N0100001N1+03251+02311100661ADDAA106000091AY191031AY221031GF106991021091008001071061MA1999999100111MD1999999+0001MW1171REMSYN076AAXX  10094 48418 31560 62704 10325 20231 30011 40066 71792 82976 333 58000;EQDQ01  00002PRCP06
0213484180999992000011012004+15270+101180FM-12+005099999V0201301N002112200019N0040001N1+02881+02471100771ADDAA103000791AY191061AY261061GF105991021051008001001061KA1120M+03431MA1999999100211MD1999999-0021MW1101REMSYN100AAXX  10124 48418 /1540 51304 10288 20247 30021 40077 69902 71096 82506 333 10343 59002 69907 79999;
0205484180999992000011015004+15270+101180FM-12+005099999V0209999C000012200019N0030001N1+02521+02221100941ADDAA106000091AY101031AY201031GA1001+999999999GF100991001001999999001001MA1999999100381MD1999999-0051MW1101REMSYN070AAXX  10154 48418 31930 00000 10252 20222 30038 40094 71000 333 59005;EQDQ01  00002PRCP06
0211484180999992000011018004+15270+101180FM-12+005099999V0209999C000012200019N0020001N1+02341+02101100931ADDAA106000091AY101061AY201061GA1001+999999999GF100991001001999999001001MA1999999100871MD1999999+0001MW1101REMSYN076AAXX  10184 48418 31920 00000 10234 20210 30087 40093 71000 333 58000 79999;EQDQ01  00002PRCP06
0205484180999992000011021004+15270+101180FM-12+005099999V0209999C000012200019N0020001N1+02231+02041100891ADDAA106000091AY101031AY201031GA1001+999999999GF100991001001999999001001MA1999999100321MD1999999+0041MW1101REMSYN070AAXX  10214 48418 31920 00000 10223 20204 30032 40089 71000 333 58004;EQDQ01  00002PRCP06
0207484180999992000011100004+15270+101180FM-12+005099999V0209999C000019999999N0040001N1+02161+02051101011ADDAA124000791AY121061AY221061GF106991001001999999001061KA1120N+02121MA1999999100441MD1999999+0071MW1101REMSYN094AAXX  11004 48418 11940 60000 10216 20205 30044 40101 69904 71022 80006 333 20212 58007 79999;
0201484180999992000011106004+15270+101180FM-12+005099999V0202901N001512200019N0070001N1+03401+02371100811ADDAA106000091AY101061AY201061GF102991021011008001001001MA1999999100271MD1999999-0051MW1051REMSYN082AAXX  11064 48418 31557 22903 10340 20237 30027 40081 70500 82100 333 59005 79999;EQDQ01  00002PRCP06
0195484180999992000011109004+15270+101180FM-12+005099999V0209999C000012200019N0070001N1+03421+02441100561ADDAA106000091AY111031AY211031GF104991021091999999001061MA1999999100011MD1999999-0101MW1051REMSYN076AAXX  11094 48418 31957 40000 10342 20244 30001 40056 70511 82906 333 59010;EQDQ01  00002PRCP06
0224484180999992000011112004+15270+101180FM-12+005099999V0209999C000012200019N0040001N1+03011+02451100671ADDAA106000091AY101061AY201061GA1001+999999999GF100991001001999999001001KA1120M+03541MA1999999100111MD1999999-0101MW1101REMSYN076AAXX  11124 48418 31940 00000 10301 20245 30011 40067 71000 333 10354 59010;EQDQ01  00002PRCP06
0205484180999992000011115004+15270+101180FM-12+005099999V0209999C000012200019N0030001N1+02811+02361100891ADDAA106000091AY101031AY201031GA1001+999999999GF100991001001999999001001MA1999999100331MD1999999-0051MW1101REMSYN070AAXX  11154 48418 31930 00000 10281 20236 30033 40089 71000 333 59005;EQDQ01  00002PRCP06
0205484180999992000011118004+15270+101180FM-12+005099999V0209999C000012200019N0020001N1+02551+02301100881ADDAA106000091AY101061AY201061GA1001+999999999GF100991001001999999001001MA1999999100321MD1999999-0061MW1101REMSYN070AAXX  11184 48418 31920 00000 10255 20230 30032 40088 71000 333 59006;EQDQ01  00002PRCP06
0205484180999992000011121004+15270+101180FM-12+005099999V0209999C000012200019N0020001N1+02451+02301100801ADDAA106000091AY101031AY201031GA1001+999999999GF100991001001999999001001MA1999999100241MD1999999-0091MW1101REMSYN070AAXX  11214 48418 31920 00000 10245 20230 30024 40080 71000 333 59009;EQDQ01  00002PRCP06
0214484180999992000011200004+15270+101180FM-12+005099999V0209999C000019999999N0010001N1+02401+02251100961ADDAA106000091AY121061AY221061GF108991001001999999001071KA1120N+02331MA1999999100401MD1999999+0051MW1101REMSYN082AAXX  12004 48418 31910 80000 10240 20225 30040 40096 71022 80007 333 20233 58005;EQDQ01  00002PRCP06
0195484180999992000011203004+15270+101180FM-12+005099999V0201801N002611050019N0040001N1+02701+02301101171ADDAA106000091AY121031AY221031GF107991011011008001001061MA1999999100611MD1999999+0041MW1101REMSYN076AAXX  12034 48418 31540 71805 10270 20230 30061 40117 71022 81106 333 58004;EQDQ01  00002PRCP06
0195484180999992000011206004+15270+101180FM-12+005099999V0209999C000011050019N0040001N1+03301+02241100841ADDAA106000091AY121061AY221061GF106991011011008001051061MA1999999100301MD1999999+0031MW1051REMSYN076AAXX  12064 48418 31540 60000 10330 20224 30030 40084 70522 81156 333 58003;EQDQ01  00002PRCP06
0195484180999992000011209004+15270+101180FM-12+005099999V0209999C000011050019N0050001N1+03451+02231100561ADDAA106000091AY121031AY221031GF106991011011008001051061MA1999999100281MD1999999+0001MW1051REMSYN076AAXX  12094 48418 31550 60000 10345 20223 30028 40056 70522 81156 333 58000;EQDQ01  00002PRCP06
0214484180999992000011212004+15270+101180FM-12+005099999V0209999C000019999999N0030001N1+03001+02651100721ADDAA106000091AY121061AY221061GF106991001001999999001061KA1120M+03471MA1999999100161MD1999999+0051MW1101REMSYN082AAXX  12124 48418 31930 60000 10300 20265 30016 40072 71022 80006 333 10347 58005;EQDQ01  00002PRCP06
0195484180999992000011215004+15270+101180FM-12+005099999V0209999C000012200019N0020001N1+02631+02371100951ADDAA106000091AY111031AY201031GF104991001001999999001051MA1999999100391MD1999999+0061MW1101REMSYN076AAXX  12154 48418 31920 40000 10263 20237 30039 40095 71010 80005 333 58006;EQDQ01  00002PRCP06
0195484180999992000011218004+15270+101180FM-12+005099999V0209999C000019999999N0010001N1+02411+02201100881ADDAA106000091AY121061AY221061GF107991001001999999001061MA1999999100321MD1999999+0001MW1101REMSYN076AAXX  12184 48418 31910 70000 10241 20220 30032 40088 71022 80006 333 58000;EQDQ01  00002PRCP06
0205484180999992000011221004+15270+101180FM-12+005099999V0209999C000012200019N0010001N1+02331+02181100801ADDAA106000091AY101031AY201031GA1001+999999999GF100991001001999999001001MA1999999100241MD1999999+0011MW1101REMSYN070AAXX  12214 48418 31910 00000 10233 20218 30024 40080 71000 333 58001;EQDQ01  00002PRCP06
0214484180999992000011300004+15270+101180FM-12+005099999V0209999C000019999999N0020001N1+02201+02121100921ADDAA106000091AY121061AY221061GF105991001001999999001061KA1120N+02181MA1999999100351MD1999999-0041MW1101REMSYN082AAXX  13004 48418 31920 50000 10220 20212 30035 40092 71022 80006 333 20218 59004;EQDQ01  00002PRCP06
0205484180999992000011303004+15270+101180FM-12+005099999V0209999C000012200019N0030001N1+02831+02241101041ADDAA106000091AY101031AY201031GA1001+999999999GF100991001001999999001001MA1999999100481MD1999999-0121MW1101REMSYN070AAXX  13034 48418 31930 00000 10283 20224 30048 40104 71000 333 59012;EQDQ01  00002PRCP06
0195484180999992000011306004+15270+101180FM-12+005099999V0203101N002612200019N0040001N1+03331+02131100751ADDAA106000091AY101061AY201061GF101991011011008001001001MA1999999100211MD1999999-0091MW1051REMSYN076AAXX  13064 48418 31540 13105 10333 20213 30021 40075 70500 81100 333 59009;EQDQ01  00002PRCP06
0195484180999992000011309004+15270+101180FM-12+005099999V0203101N002612200019N0060001N1+03451+02121100491ADDAA106000091AY101031AY201031GF102991021021008001001001MA1999999099951MD1999999-0071MW1051REMSYN076AAXX  13094 48418 31556 23105 10345 20212 39995 40049 70500 82200 333 59007;EQDQ01  00002PRCP06
0224484180999992000011312004+15270+101180FM-12+005099999V0209999C000012200019N0030001N1+03021+02341100621ADDAA106000091AY101061AY201061GA1001+999999999GF100991001001999999001001KA1120M+03531MA1999999100061MD1999999-0101MW1101REMSYN076AAXX  13124 48418 31930 00000 10302 20234 30006 40062 71000 333 10353 59010;EQDQ01  00002PRCP06
0211484180999992000011315004+15270+101180FM-12+005099999V0209999C000012200019N0020001N1+02551+02251100831ADDAA106000091AY101031AY201031GA1001+999999999GF100991001001999999001001MA1999999100271MD1999999-0121MW1101REMSYN076AAXX  13154 48418 31920 00000 10255 20225 30027 40083 71000 8//// 333 59012;EQDQ01  00002PRCP06
0205484180999992000011318004+15270+101180FM-12+005099999V0209999C000012200019N0010001N1+02271+02161100891ADDAA106000091AY101061AY201061GA1001+999999999GF100991001001999999001001MA1999999100321MD1999999+0011MW1101REMSYN070AAXX  13184 48418 31910 00000 10227 20216 30032 40089 71000 333 58001;EQDQ01  00002PRCP06
0215484180999992000011321004+15270+101180FM-12+005099999V0209999C000012200019N0010001N1+02151+02031100731ADDAA199000091AY101031AY201031GA1001+999999999GF100991001001999999001001MA1999999100171MD1999999-0071MW1101REMSYN080    AAXX  13214 48418 31910 00000 10215 20203 30017 40073 71000 8//// 333 59007;EQDQ01  00002PRCP99
0218484180999992000011400004+15270+101180FM-12+005099999V0209999C000012200019N0010001N1+02001+01951100961ADDAA199000091AY101061AY201061GF102991001001999999001051KA1120N+01981MA1999999100391MD1999999+0041MW1101REMSYN086    AAXX  14004 48418 31910 20000 10200 20195 30039 40096 71000 80005 333 20198 58004;EQDQ01  00002PRCP99
0171484180999992000011403004+15270+101180FM-12+005099999V0209999C000012200019N0040001N1+02721+02331101041ADDAA199000091GF101991011011008001001001MA1999999100481MD1999999+0001REMSYN074    AAXX  14034 48418 32540 10000 10272 20233 30048 40104 81100 333 58000;EQDQ01  00002PRCP99
0199484180999992000011406004+15270+101180FM-12+005099999V0209999C000012200019N0040001N1+03351+02091100701ADDAA199000091AY101061AY201061GF101991001001999999001051MA1999999100161MD1999999-0051MW1051REMSYN080    AAXX  14064 48418 31940 10000 10335 20209 30016 40070 70500 80005 333 59005;EQDQ01  00002PRCP99
0199484180999992000011409004+15270+101180FM-12+005099999V0209999C000012200019N0050001N1+03451+01841100481ADDAA199000091AY101031AY201031GF101991011011008001001001MA1999999099931MD1999999-0011MW1051REMSYN080    AAXX  14094 48418 31550 10000 10345 20184 39993 40048 70500 81100 333 59001;EQDQ01  00002PRCP99
0228484180999992000011412004+15270+101180FM-12+005099999V0209999C000012200019N0030001N1+02771+02021100601ADDAA199000091AY101061AY201061GA1001+999999999GF100991001001999999001001KA1120M+03531MA1999999100041MD1999999-0021MW1051REMSYN080    AAXX  14124 48418 31930 00000 10277 20202 30004 40060 70500 333 10353 59002;EQDQ01  00002PRCP99
0209484180999992000011415004+15270+101180FM-12+005099999V0209999C000012200019N0020001N1+02471+02011100901ADDAA199000091AY101031AY201031GA1001+999999999GF100991001001999999001001MA1999999100341MD1999999+0071MW1101REMSYN074    AAXX  14154 48418 31920 00000 10247 20201 30034 40090 71000 333 58007;EQDQ01  00002PRCP99
0209484180999992000011418004+15270+101180FM-12+005099999V0209999C000012200019N0010001N1+02081+02031100831ADDAA199000091AY101061AY201061GA1001+999999999GF100991001001999999001001MA1999999100251MD1999999-0061MW1101REMSYN074    AAXX  14184 48418 31910 00000 10208 20203 30025 40083 71000 333 59006;EQDQ01  00002PRCP99
0209484180999992000011421004+15270+101180FM-12+005099999V0209999C000012200019N0010001N1+02001+01921100751ADDAA199000091AY101031AY201031GA1001+999999999GF100991001001999999001001MA1999999100171MD1999999+0011MW1101REMSYN074    AAXX  14214 48418 31910 00000 10200 20192 30017 40075 71000 333 58001;EQDQ01  00002PRCP99
0234484180999992000011500004+15270+101180FM-12+005099999V0209999C000012200019N0010001N1+01901+01791100971ADDAA199000091AY101061AY201061GA1001+999999999GF100991001001999999001001KA1120N+01841MA1999999100401MD1999999+0011MW1101REMSYN086    AAXX  15004 48418 31910 00000 10190 20179 30040 40097 71000 8//// 333 20184 58001;EQDQ01  00002PRCP99
0209484180999992000011503004+15270+101180FM-12+005099999V0209999C000012200019N0030001N1+02651+01971101151ADDAA199000091AY101031AY201031GA1001+999999999GF100991001001999999001001MA1999999100591MD1999999+0111MW1101REMSYN074    AAXX  15034 48418 31930 00000 10265 20197 30059 40115 71000 333 58011;EQDQ01  00002PRCP99
0209484180999992000011509004+15270+101180FM-12+005099999V0209999C000012200019N0050001N1+03551+01571100611ADDAA199000091AY101031AY201031GA1001+999999999GF100991001001999999001001MA1999999100061MD1999999+0131MW1051REMSYN074    AAXX  15094 48418 31950 00000 10355 20157 30006 40061 70500 333 58013;EQDQ01  00002PRCP99
0218484180999992000011512004+15270+101180FM-12+005099999V0202901N003112200019N0030001N1+02851+01841100751ADDAA199000091AY101061AY201061GF102991001001999999001051KA1120M+03551MA1999999100191MD1999999+0151MW1051REMSYN086    AAXX  15124 48418 31930 22906 10285 20184 30019 40075 70500 80005 333 10355 58015;EQDQ01  00002PRCP99
0209484180999992000011515004+15270+101180FM-12+005099999V0209999C000012200019N0030001N1+02371+01691100971ADDAA199000091AY101031AY201031GA1001+999999999GF100991001001999999001001MA1999999100411MD1999999+0071MW1101REMSYN074    AAXX  15154 48418 31930 00000 10237 20169 30041 40097 71000 333 58007;EQDQ01  00002PRCP99
0209484180999992000011518004+15270+101180FM-12+005099999V0209999C000012200019N0020001N1+02001+01761100991ADDAA199000091AY101061AY201061GA1001+999999999GF100991001001999999001001MA1999999100421MD1999999+0171MW1101REMSYN074    AAXX  15184 48418 31920 00000 10200 20176 30042 40099 71000 333 58017;EQDQ01  00002PRCP99
0209484180999992000011521004+15270+101180FM-12+005099999V0209999C000012200019N0010001N1+01651+01511100961ADDAA199000091AY101031AY201031GA1001+999999999GF100991001001999999001001MA1999999100391MD1999999+0221MW1101REMSYN074    AAXX  15214 48418 31910 00000 10165 20151 30039 40096 71000 333 58022;EQDQ01  00002PRCP99
0228484180999992000011600004+15270+101180FM-12+005099999V0209999C000012200019N0010001N1+01541+01471101101ADDAA199000091AY101061AY201061GA1001+999999999GF100991001001999999001001KA1120N+01501MA1999999100521MD1999999+0131MW1101REMSYN080    AAXX  16004 48418 31910 00000 10154 20147 30052 40110 71000 333 20150 58013;EQDQ01  00002PRCP99
0209484180999992000011603004+15270+101180FM-12+005099999V0209999C000012200019N0030001N1+02531+01731101261ADDAA199000091AY101031AY201031GA1001+999999999GF100991001001999999001001MA1999999100701MD1999999+0111MW1051REMSYN074    AAXX  16034 48418 31930 00000 10253 20173 30070 40126 70500 333 58011;EQDQ01  00002PRCP99
0209484180999992000011606004+15270+101180FM-12+005099999V0203101N003112200019N0060001N1+03361+01211100911ADDAA199000091AY101061AY201061GA1001+999999999GF100991001001999999001001MA1999999100361MD1999999+0051MW1051REMSYN074    AAXX  16064 48418 31956 03106 10336 20121 30036 40091 70500 333 58005;EQDQ01  00002PRCP99
0215484180999992000011609004+15270+101180FM-12+005099999V0209999C000012200019N0070001N1+03551+01341100641ADDAA199000091AY101031AY201031GA1001+999999999GF100991001001999999001001MA1999999100091MD1999999+0031MW1051REMSYN080    AAXX  16094 48418 31957 00000 10355 20134 30009 40064 70500 8//// 333 58003;EQDQ01  00002PRCP99
0234484180999992000011612004+15270+101180FM-12+005099999V0209999C000012200019N0030001N1+02631+02211100821ADDAA199000091AY101061AY201061GA1001+999999999GF100991001001999999001001KA1120M+03581MA1999999100261MD1999999+0071MW1101REMSYN086    AAXX  16124 48418 31930 00000 10263 20221 30026 40082 71000 8//// 333 10358 58007;EQDQ01  00002PRCP99
0209484180999992000011615004+15270+101180FM-12+005099999V0209999C000012200019N0030001N1+02101+01841101011ADDAA199000091AY101031AY201031GA1001+999999999GF100991001001999999001001MA1999999100441MD1999999+0041MW1101REMSYN074    AAXX  16154 48418 31930 00000 10210 20184 30044 40101 71000 333 58004;EQDQ01  00002PRCP99
0209484180999992000011621004+15270+101180FM-12+005099999V0209999C000012200019N0010001N1+01751+01591100891ADDAA199000091AY101031AY201031GA1001+999999999GF100991001001999999001001MA1999999100321MD1999999-0071MW1101REMSYN074    AAXX  16214 48418 31910 00000 10175 20159 30032 40089 71000 333 59007;EQDQ01  00002PRCP99
0228484180999992000011700004+15270+101180FM-12+005099999V0209999C000012200019N0010001N1+01661+01561101051ADDAA199000091AY101061AY201061GA1001+999999999GF100991001001999999001001KA1120N+01621MA1999999100481MD1999999-0051MW1101REMSYN080    AAXX  17004 48418 31910 00000 10166 20156 30048 40105 71000 333 20162 59005;EQDQ01  00002PRCP99
0209484180999992000011703004+15270+101180FM-12+005099999V0209999C000012200019N0030001N1+02531+01731101261ADDAA199000091AY101031AY201031GA1001+999999999GF100991001001999999001001MA1999999100701MD1999999+0111MW1051REMSYN074    AAXX  17034 48418 31930 00000 10253 20173 30070 40126 70500 333 58011;EQDQ01  00002PRCP99
0209484180999992000011706004+15270+101180FM-12+005099999V0209999C000012200019N0050001N1+03211+01561101001ADDAA199000091AY101061AY201061GA1001+999999999GF100991001001999999001001MA1999999100451MD1999999+0091MW1051REMSYN074    AAXX  17064 48418 31950 00000 10321 20156 30045 40100 70500 333 58009;EQDQ01  00002PRCP99
0209484180999992000011709004+15270+101180FM-12+005099999V0209999C000012200019N0050001N1+03491+01701100721ADDAA199000091AY101031AY201031GA1001+999999999GF100991001001999999001001MA1999999100181MD1999999+0091MW1051REMSYN074    AAXX  17094 48418 31950 00000 10349 20170 30018 40072 70500 333 58009;EQDQ01  00002PRCP99
0228484180999992000011712004+15270+101180FM-12+005099999V0209999C000012200019N0030001N1+02781+02071100861ADDAA199000091AY101061AY201061GA1001+999999999GF100991001001999999001001KA1120M+03521MA1999999100301MD1999999+0041MW1101REMSYN080    AAXX  17124 48418 31930 00000 10278 20207 30030 40086 71000 333 10352 58004;EQDQ01  00002PRCP99
0215484180999992000011715004+15270+101180FM-12+005099999V0209999C000012200019N0020001N1+02361+01911101041ADDAA199000091AY101031AY201031GA1001+999999999GF100991001001999999001001MA1999999100481MD1999999+0031MW1101REMSYN080    AAXX  17154 48418 31920 00000 10236 20191 30048 40104 71000 8//// 333 58003;EQDQ01  00002PRCP99
0209484180999992000011718004+15270+101180FM-12+005099999V0209999C000012200019N0020001N1+02141+01801101041ADDAA199000091AY101061AY201061GA1001+999999999GF100991001001999999001001MA1999999100471MD1999999+0091MW1101REMSYN074    AAXX  17184 48418 31920 00000 10214 20180 30047 40104 71000 333 58009;EQDQ01  00002PRCP99
0215484180999992000011721004+15270+101180FM-12+005099999V0209999C000012200019N0010001N1+02001+01841100981ADDAA199000091AY101031AY201031GA1001+999999999GF100991001001999999001001MA1999999100401MD1999999+0091MW1101REMSYN080    AAXX  17214 48418 31910 00000 10200 20184 30040 40098 71000 8//// 333 58009;EQDQ01  00002PRCP99
0228484180999992000011800004+15270+101180FM-12+005099999V0209999C000012200019N0030001N1+01941+01791101141ADDAA199000091AY101061AY201061GA1001+999999999GF100991001001999999001001KA1120N+01891MA1999999100571MD1999999+0091MW1101REMSYN080    AAXX  18004 48418 31930 00000 10194 20179 30057 40114 71000 333 20189 58009;EQDQ01  00002PRCP99
0181484180999992000011803004+15270+101180FM-12+005099999V0200901N006212200019N0100001N1+02701+01861101371ADDAA199000091GA1001+999999999GF100991001001999999001001MA1999999100811MD1999999+0141REMSYN068    AAXX  18034 48418 32960 00912 10270 20186 30081 40137 333 58014;EQDQ01  00002PRCP99
0181484180999992000011806004+15270+101180FM-12+005099999V0200901N004112200019N0120001N1+03101+02001101091ADDAA199000091GA1001+999999999GF100991001001999999001001MA1999999100531MD1999999+0091REMSYN068    AAXX  18064 48418 32962 00908 10310 20200 30053 40109 333 58009;EQDQ01  00002PRCP99
0181484180999992000011809004+15270+101180FM-12+005099999V0201301N002612200019N0120001N1+03221+02091100851ADDAA199000091GA1001+999999999GF100991001001999999001001MA1999999100301MD1999999+0131REMSYN068    AAXX  18094 48418 32962 01305 10322 20209 30030 40085 333 58013;EQDQ01  00002PRCP99
0228484180999992000011812004+15270+101180FM-12+005099999V0201101N002112200019N0050001N1+02821+02111100951ADDAA199000091AY101061AY201061GA1001+999999999GF100991001001999999001001KA1120M+03281MA1999999100391MD1999999+0081MW1101REMSYN080    AAXX  18124 48418 31950 01104 10282 20211 30039 40095 71000 333 10328 58008;EQDQ01  00002PRCP99
0209484180999992000011815004+15270+101180FM-12+005099999V0209999C000012200019N0030001N1+02481+02051101181ADDAA199000091AY101031AY201031GA1001+999999999GF100991001001999999001001MA1999999100621MD1999999+0141MW1101REMSYN074    AAXX  18154 48418 31930 00000 10248 20205 30062 40118 71000 333 58014;EQDQ01  00002PRCP99
0209484180999992000011818004+15270+101180FM-12+005099999V0209999C000012200019N0030001N1+02441+02111101191ADDAA199000091AY101061AY201061GA1001+999999999GF100991001001999999001001MA1999999100631MD1999999+0151MW1101REMSYN074    AAXX  18184 48418 31930 00000 10244 20211 30063 40119 71000 333 58015;EQDQ01  00002PRCP99
0199484180999992000011821004+15270+101180FM-12+005099999V0209999C000010450019N0020001N1+02381+02111101091ADDAA199000091AY121031AY221031GF106991031051008001051061MA1999999100531MD1999999+0121MW1101REMSYN080    AAXX  18214 48418 31520 60000 10238 20211 30053 40109 71022 83556 333 58012;EQDQ01  00002PRCP99
0190484180999992000011900004+15270+101180FM-12+005099999V0201101N006210450019N0100001N1+02241+01721101331ADDAA199000091GF108991031051008001051061KA1120N+02201MA1999999100771MD1999999+0191REMSYN080    AAXX  19004 48418 32560 81112 10224 20172 30077 40133 83556 333 20220 58019;EQDQ01  00002PRCP99
0171484180999992000011903004+15270+101180FM-12+005099999V0200701N005110450019N0140001N1+02421+01641101511ADDAA199000091GF108991021051008001051061MA1999999100951MD1999999+0151REMSYN074    AAXX  19034 48418 32564 80710 10242 20164 30095 40151 82556 333 58015;EQDQ01  00002PRCP99
0171484180999992000011906004+15270+101180FM-12+005099999V0201001N007711050019N0140001N1+02691+01661101271ADDAA199000091GF106991011051008001031061MA1999999100711MD1999999+0181REMSYN074    AAXX  19064 48418 32564 61015 10269 20166 30071 40127 81536 333 58018;EQDQ01  00002PRCP99
0218484180999992000011912004+15270+101180FM-12+005099999V0201101N003112200019N0070001N1+02251+01851101191ADDAA199000091AY111061AY211061GF104991001001999999001061KA1120M+02781MA1999999100631MD1999999+0251MW1101REMSYN086    AAXX  19124 48418 31957 41106 10225 20185 30063 40119 71011 80006 333 10278 58025;EQDQ01  00002PRCP99
0209484180999992000011915004+15270+101180FM-12+005099999V0201101N001512200019N0060001N1+02071+01781101361ADDAA199000091AY101031AY201031GA1001+999999999GF100991001001999999001001MA1999999100781MD1999999+0181MW1101REMSYN074    AAXX  19154 48418 31956 01103 10207 20178 30078 40136 71000 333 58018;EQDQ01  00002PRCP99
0195484180999992000011918004+15270+101180FM-12+005099999V0209999C000010450019N0060001N1+01981+01791101401ADDAA199000091AY121061AY221061GF108991021051008001051061MA1999999100821MD1999999+0211MW1101REMSYN076AAXX  19184 48418 31556 80000 10198 20179 30082 40140 71022 82556 333 58021;EQDQ01  00002PRCP99
0195484180999992000011921004+15270+101180FM-12+005099999V0201001N005112200019N0060001N1+02031+01701101271ADDAA199000091AY111031AY211031GF104991021001999999051061MA1999999100701MD1999999+0181MW1101REMSYN076AAXX  19214 48418 31956 41010 10203 20170 30070 40127 71011 82056 333 58018;EQDQ01  00002PRCP99
0186484180999992000012000004+15270+101180FM-12+005099999V0201001N004111050019N0120001N1+01871+01401101451ADDAA199000091GF105991011051008001051061KA1120N+01831MA1999999100881MD1999999+0121REMSYN076AAXX  20004 48418 32562 51008 10187 20140 30088 40145 81556 333 20183 58012;EQDQ01  00002PRCP99
0177484180999992000012003004+15270+101180FM-12+005099999V0201001N006212200019N0140001N1+02231+01391101581ADDAA199000091GA1001+999999999GF100991001001999999001001MA1999999101001MD1999999+0071REMSYN064AAXX  20034 48418 32964 01012 10223 20139 30100 40158 333 58007;EQDQ01  00002PRCP99
0177484180999992000012006004+15270+101180FM-12+005099999V0200601N006212200019N0140001N1+02671+01431101291ADDAA199000091GA1001+999999999GF100991001001999999001001MA1999999100731MD1999999+0011REMSYN064AAXX  20064 48418 32964 00612 10267 20143 30073 40129 333 58001;EQDQ01  00002PRCP99
0177484180999992000012009004+15270+101180FM-12+005099999V0200701N002112200019N0140001N1+02901+01671101071ADDAA199000091GA1001+999999999GF100991001001999999001001MA1999999100511MD1999999-0011REMSYN064AAXX  20094 48418 32964 00704 10290 20167 30051 40107 333 59001;EQDQ01  00002PRCP99
0214484180999992000012012004+15270+101180FM-12+005099999V0200601N002619999999N0070001N1+02551+01641101191ADDAA199000091AY121061AY221061GF106991041001999999051061KA1120M+02931MA1999999100631MD1999999+0001MW1051REMSYN082AAXX  20124 48418 31957 60605 10255 20164 30063 40119 70522 84056 333 10293 58000;EQDQ01  00002PRCP99
0195484180999992000012015004+15270+101180FM-12+005099999V0201001N001519999999N0060001N1+02381+01531101441ADDAA199000091AY111031AY211031GF105991041001999999051061MA1999999100881MD1999999+0081MW1051REMSYN076AAXX  20154 48418 31956 51003 10238 20153 30088 40144 70511 84056 333 58008;EQDQ01  00002PRCP99
0195484180999992000012018004+15270+101180FM-12+005099999V0209999C000010450019N0050001N1+02251+01621101461ADDAA199000091AY121061AY221061GF108991021051008001051061MA1999999100901MD1999999+0071MW1101REMSYN076AAXX  20184 48418 31550 80000 10225 20162 30090 40146 71022 82556 333 58007;EQDQ01  00002PRCP99
0205484180999992000012021004+15270+101180FM-12+005099999V0209999C000012200019N0040001N1+02101+01511101431ADDAA199000091AY101031AY201031GA1001+999999999GF100991001001999999001001MA1999999100861MD1999999+0161MW1191REMSYN070AAXX  20214 48418 31940 00000 10210 20151 30086 40143 71900 333 58016;EQDQ01  00002PRCP99
0186484180999992000012100004+15270+101180FM-12+005099999V0200801N002111050019N0100001N1+01971+01511101621ADDAA199000091GF105991021051008001051061KA1120N+01931MA1999999101031MD1999999+0171REMSYN076AAXX  21004 48418 32560 50804 10197 20151 30103 40162 82556 333 20193 58017;EQDQ01  00002PRCP99
0177484180999992000012103004+15270+101180FM-12+005099999V0200301N002612200019N0140001N1+02341+01521101841ADDAA199000091GA1001+999999999GF100991001001999999001001MA1999999101261MD1999999+0271REMSYN064AAXX  21034 48418 32964 00305 10234 20152 30126 40184 333 58027;EQDQ01  00002PRCP99
0177484180999992000012106004+15270+101180FM-12+005099999V0201101N003112200019N0140001N1+02811+01581101491ADDAA199000091GA1001+999999999GF100991001001999999001001MA1999999100931MD1999999+0211REMSYN064AAXX  21064 48418 32964 01106 10281 20158 30093 40149 333 58021;EQDQ01  00002PRCP99
0167484180999992000012109004+15270+101180FM-12+005099999V0200801N002119999999N0140001N1+03041+01701101241ADDAA199000091GF105991001001999999001061MA1999999100651MD1999999+0181REMSYN070AAXX  21094 48418 32964 50804 10304 20170 30065 40124 80006 333 58018;EQDQ01  00002PRCP99
0224484180999992000012112004+15270+101180FM-12+005099999V0209999C000012200019N0050001N1+02571+01971101291ADDAA199000091AY101061AY201061GA1001+999999999GF100991001001999999001001KA1120M+03111MA1999999100731MD1999999+0101MW1101REMSYN076AAXX  21124 48418 31950 00000 10257 20197 30073 40129 71000 333 10311 58010;EQDQ01  00002PRCP99
0211484180999992000012115004+15270+101180FM-12+005099999V0209999C000012200019N0060001N1+02101+01691101481ADDAA199000091AY101031AY201031GA1001+999999999GF100991001001999999001001MA1999999100911MD1999999+0041MW1101REMSYN076AAXX  21154 48418 31956 00000 10210 20169 30091 40148 71000 8//// 333 58004;EQDQ01  00002PRCP99
0211484180999992000012121004+15270+101180FM-12+005099999V0209999C000012200019N0060001N1+01821+01621101331ADDAA199000091AY101031AY201031GA1001+999999999GF100991001001999999001001MA1999999100751MD1999999-0111MW1101REMSYN076AAXX  21214 48418 31956 00000 10182 20162 30075 40133 71000 8//// 333 59011;EQDQ01  00002PRCP99
0186484180999992000012200004+15270+101180FM-12+005099999V0200501N002612200019N0100001N1+02031+01611101491ADDAA199000091GF104991021001999999031061KA1120N+01721MA1999999100921MD1999999-0131REMSYN076AAXX  22004 48418 32960 40505 10203 20161 30092 40149 82036 333 20172 59013;EQDQ01  00002PRCP99
0177484180999992000012203004+15270+101180FM-12+005099999V0201001N005112200019N0120001N1+02541+01671101661ADDAA199000091GA1001+999999999GF100991001001999999001001MA1999999101091MD1999999-0181REMSYN064AAXX  22034 48418 32962 01010 10254 20167 30109 40166 333 59018;EQDQ01  00002PRCP99
0177484180999992000012206004+15270+101180FM-12+005099999V0200701N004112200019N0140001N1+02951+01621101311ADDAA199000091GA1001+999999999GF100991001001999999001001MA1999999100751MD1999999-0181REMSYN064AAXX  22064 48418 32964 00708 10295 20162 30075 40131 333 59018;EQDQ01  00002PRCP99
0167484180999992000012209004+15270+101180FM-12+005099999V0200901N004112200019N0140001N1+03161+01611101001ADDAA199000091GF102991021011008001001001MA1999999100451MD1999999-0241REMSYN070AAXX  22094 48418 32564 20908 10316 20161 30045 40100 82100 333 59024;EQDQ01  00002PRCP99
0214484180999992000012212004+15270+101180FM-12+005099999V0209999C000012200019N0050001N1+02631+02071101101ADDAA199000091AY111061AY211061GF103991001001999999001051KA1120M+03221MA1999999100541MD1999999-0191MW1101REMSYN082AAXX  22124 48418 31950 30000 10263 20207 30054 40110 71011 80005 333 10322 59019;EQDQ01  00002PRCP99
0205484180999992000012215004+15270+101180FM-12+005099999V0209999C000012200019N0050001N1+02151+01741101301ADDAA199000091AY101031AY201031GA1001+999999999GF100991001001999999001001MA1999999100741MD1999999-0181MW1101REMSYN070AAXX  22154 48418 31950 00000 10215 20174 30074 40130 71000 333 59018;EQDQ01  00002PRCP99
0205484180999992000012218004+15270+101180FM-12+005099999V0209999C000012200019N0050001N1+01901+01671101271ADDAA199000091AY101061AY201061GA1001+999999999GF100991001001999999001001MA1999999100701MD1999999-0161MW1101REMSYN070AAXX  22184 48418 31950 00000 10190 20167 30070 40127 71000 333 59016;EQDQ01  00002PRCP99
0205484180999992000012221004+15270+101180FM-12+005099999V0209999C000012200019N0040001N1+01751+01511101141ADDAA199000091AY101031AY201031GA1001+999999999GF100991001001999999001001MA1999999100571MD1999999-0181MW1101REMSYN070AAXX  22214 48418 31940 00000 10175 20151 30057 40114 71000 333 59018;EQDQ01  00002PRCP99
0214484180999992000012300004+15270+101180FM-12+005099999V0209999C000012200019N0080001N1+01641+01481101321ADDAA199000091AY111061AY211061GF103991001001999999001051KA1120N+01581MA1999999100741MD1999999-0171MW1101REMSYN082AAXX  23004 48418 31958 30000 10164 20148 30074 40132 71011 80005 333 20158 59017;EQDQ01  00002PRCP99
0177484180999992000012303004+15270+101180FM-12+005099999V0201001N002612200019N0120001N1+02601+01721101471ADDAA199000091GA1001+999999999GF100991001001999999001001MA1999999100911MD1999999-0191REMSYN064AAXX  23034 48418 32962 01005 10260 20172 30091 40147 333 59019;EQDQ01  00002PRCP99
0167484180999992000012306004+15270+101180FM-12+005099999V0201301N003612200019N0130001N1+03221+01671101161ADDAA199000091GF103991001001999999001051MA1999999100601MD1999999-0151REMSYN070AAXX  23064 48418 32963 31307 10322 20167 30060 40116 80005 333 59015;EQDQ01  00002PRCP99
0167484180999992000012309004+15270+101180FM-12+005099999V0201101N002112200019N0130001N1+03351+01311100931ADDAA199000091GF103991001001999999001051MA1999999100371MD1999999-0071REMSYN070AAXX  23094 48418 32963 31104 10335 20131 30037 40093 80005 333 59007;EQDQ01  00002PRCP99
0205484180999992000012315004+15270+101180FM-12+005099999V0209999C000012200019N0040001N1+02081+01501101171ADDAA199000091AY101031AY201031GA1001+999999999GF100991001001999999001001MA1999999100601MD1999999-0131MW1101REMSYN070AAXX  23154 48418 31940 00000 10208 20150 30060 40117 71000 333 59013;EQDQ01  00002PRCP99
0205484180999992000012318004+15270+101180FM-12+005099999V0209999C000012200019N0030001N1+01861+01521101201ADDAA199000091AY101061AY201061GA1001+999999999GF100991001001999999001001MA1999999100621MD1999999-0081MW1101REMSYN070AAXX  23184 48418 31930 00000 10186 20152 30062 40120 71000 333 59008;EQDQ01  00002PRCP99
0205484180999992000012321004+15270+101180FM-12+005099999V0209999C000012200019N0030001N1+01681+01401101131ADDAA199000091AY101031AY201031GA1001+999999999GF100991001001999999001001MA1999999100561MD1999999-0011MW1101REMSYN070AAXX  23214 48418 31930 00000 10168 20140 30056 40113 71000 333 59001;EQDQ01  00002PRCP99
0214484180999992000012400004+15270+101180FM-12+005099999V0209999C000012200019N0040001N1+01701+01471101241ADDAA199000091AY101061AY201061GF102991001001999999001051KA1120N+01531MA1999999100671MD1999999-0081MW1101REMSYN082AAXX  24004 48418 31940 20000 10170 20147 30067 40124 71000 80005 333 20153 59008;EQDQ01  00002PRCP99
0205484180999992000012403004+15270+101180FM-12+005099999V0209999C000012200019N0050001N1+02671+01581101451ADDAA199000091AY101031AY201031GA1001+999999999GF100991001001999999001001MA1999999100891MD1999999-0021MW1051REMSYN070AAXX  24034 48418 31950 00000 10267 20158 30089 40145 70500 333 59002;EQDQ01  00002PRCP99
0167484180999992000012406004+15270+101180FM-12+005099999V0200601N003119999999N0100001N1+03351+01431101151ADDAA199000091GF105991021001999999051021MA1999999100611MD1999999+0001REMSYN070AAXX  24064 48418 32960 50606 10335 20143 30061 40115 82052 333 58000;EQDQ01  00002PRCP99
0177484180999992000012409004+15270+101180FM-12+005099999V0200801N004112200019N0110001N1+03401+01591100891ADDAA199000091GA1001+999999999GF100991001001999999001001MA1999999100341MD1999999-0041REMSYN064AAXX  24094 48418 32961 00808 10340 20159 30034 40089 333 59004;EQDQ01  00002PRCP99
0214484180999992000012412004+15270+101180FM-12+005099999V0209999C000012200019N0040001N1+02881+02031101041ADDAA199000091AY101061AY201061GF102991011001999999051051KA1120M+03451MA1999999100481MD1999999+0061MW1051REMSYN082AAXX  24124 48418 31940 20000 10288 20203 30048 40104 70500 81055 333 10345 58006;EQDQ01  00002PRCP99
0195484180999992000012415004+15270+101180FM-12+005099999V0209999C000012200019N0030001N1+02301+01731101191ADDAA199000091AY101031AY201031GF103991021001999999051051MA1999999100631MD1999999+0021MW1101REMSYN076AAXX  24154 48418 31930 30000 10230 20173 30063 40119 71000 82055 333 58002;EQDQ01  00002PRCP99
0205484180999992000012418004+15270+101180FM-12+005099999V0209999C000012200019N0030001N1+02131+01761101241ADDAA199000091AY101061AY201061GA1001+999999999GF100991001001999999001001MA1999999100671MD1999999+0051MW1101REMSYN070AAXX  24184 48418 31930 00000 10213 20176 30067 40124 71000 333 58005;EQDQ01  00002PRCP99
0195484180999992000012421004+15270+101180FM-12+005099999V0209999C000019999999N0020001N1+02131+01891101221ADDAA199000091AY121031AY221031GF105991021001999999051061MA1999999100651MD1999999+0091MW1101REMSYN076AAXX  24214 48418 31920 50000 10213 20189 30065 40122 71022 82056 333 58009;EQDQ01  00002PRCP99
0214484180999992000012500004+15270+101180FM-12+005099999V0209999C000010450019N0050001N1+02151+01801101321ADDAA199000091AY121061AY221061GF107991021051008001051061KA1120N+02031MA1999999100751MD1999999+0081MW1101REMSYN082AAXX  25004 48418 31550 70000 10215 20180 30075 40132 71022 82556 333 20203 58008;EQDQ01  00002PRCP99
0167484180999992000012503004+15270+101180FM-12+005099999V0200901N005112200019N0130001N1+02821+01911101501ADDAA199000091GF102991011001999999051051MA1999999100941MD1999999+0051REMSYN070AAXX  25034 48418 32963 20910 10282 20191 30094 40150 81055 333 58005;EQDQ01  00002PRCP99
0167484180999992000012506004+15270+101180FM-12+005099999V0201301N006212200019N0140001N1+03201+02051101271ADDAA199000091GF103991031021008001001051MA1999999100721MD1999999+0121REMSYN070AAXX  25064 48418 32564 31312 10320 20205 30072 40127 83205 333 58012;EQDQ01  00002PRCP99
0167484180999992000012509004+15270+101180FM-12+005099999V0201501N002610450019N0140001N1+03261+02031101061ADDAA199000091GF106991021021008001031051MA1999999100511MD1999999-0171REMSYN070AAXX  25094 48418 32564 61505 10326 20203 30051 40106 82235 333 59017;EQDQ01  00002PRCP99
0186484180999992000012512004+15270+101180FM-12+005099999V0209999C000019999999N0100001N1+02851+02401101301ADDAA199000091GF105991021001999999051061KA1120M+03451MA1999999100741MD1999999+0261REMSYN076AAXX  25124 48418 32960 50000 10285 20240 30074 40130 82056 333 10345 58026;EQDQ01  00002PRCP99
0205484180999992000012515004+15270+101180FM-12+005099999V0200901N002612200019N0040001N1+02651+02041101391ADDAA199000091AY101031AY201031GA1001+999999999GF100991001001999999001001MA1999999100831MD1999999+0211MW1101REMSYN070AAXX  25154 48418 31940 00905 10265 20204 30083 40139 71000 333 58021;EQDQ01  00002PRCP99
0195484180999992000012518004+15270+101180FM-12+005099999V0200801N003110450019N0050001N1+02601+01931101411ADDAA199000091AY121061AY221061GF106991011051008001051021MA1999999100851MD1999999+0161MW1101REMSYN076AAXX  25184 48418 31550 60806 10260 20193 30085 40141 71022 81552 333 58016;EQDQ01  00002PRCP99
0195484180999992000012521004+15270+101180FM-12+005099999V0200701N007219999999N0060001N1+02431+01741101441ADDAA199000091AY121031AY221031GF106991061001999999051001MA1999999100881MD1999999+0221MW1101REMSYN076AAXX  25214 48418 31956 60714 10243 20174 30088 40144 71022 86050 333 58022;EQDQ01  00002PRCP99
0186484180999992000012600004+15270+101180FM-12+005099999V0201001N006210450019N0120001N1+02251+01511101611ADDAA199000091GF108991021051008001051061KA1120N+02221MA1999999101031MD1999999+0291REMSYN076AAXX  26004 48418 32562 81012 10225 20151 30103 40161 82556 333 20222 58029;EQDQ01  00002PRCP99
0167484180999992000012603004+15270+101180FM-12+005099999V0200901N008710450019N0160001N1+02561+01521101731ADDAA199000091GF105991011011008001031051MA1999999101161MD1999999+0231REMSYN070AAXX  26034 48418 32566 50917 10256 20152 30116 40173 81135 333 58023;EQDQ01  00002PRCP99
0167484180999992000012606004+15270+101180FM-12+005099999V0201001N005112200019N0160001N1+02941+01581101431ADDAA199000091GF103991001001999999001051MA1999999100871MD1999999+0161REMSYN070AAXX  26064 48418 32966 31010 10294 20158 30087 40143 80005 333 58016;EQDQ01  00002PRCP99
0141484180999992000012609004+15270+101180FM-12+005099999V02099999999999999999N0150001N1+03071+01551101161ADDAA199000091MA1999999100601MD1999999+0101REMSYN070AAXX  26094 48418 32965 ///// 10307 20155 30060 40116 80005 333 58010;EQDQ01  00002PRCP99
0214484180999992000012612004+15270+101180FM-12+005099999V0209999C000012200019N0080001N1+02751+01621101261ADDAA199000091AY111061AY211061GF103991001001999999001051KA1120M+03121MA1999999100701MD1999999-0041MW1051REMSYN082AAXX  26124 48418 31958 30000 10275 20162 30070 40126 70511 80005 333 10312 59004;EQDQ01  00002PRCP99
0205484180999992000012615004+15270+101180FM-12+005099999V0200701N006212200019N0050001N1+02581+01521101461ADDAA199000091AY101031AY201031GA1001+999999999GF100991001001999999001001MA1999999100901MD1999999+0071MW1051REMSYN070AAXX  26154 48418 31950 00712 10258 20152 30090 40146 70500 333 58007;EQDQ01  00002PRCP99
0205484180999992000012618004+15270+101180FM-12+005099999V0200801N005112200019N0050001N1+02331+01351101491ADDAA199000091AY101061AY201061GA1001+999999999GF100991001001999999001001MA1999999100931MD1999999+0091MW1051REMSYN070AAXX  26184 48418 31950 00810 10233 20135 30093 40149 70500 333 58009;EQDQ01  00002PRCP99
0205484180999992000012621004+15270+101180FM-12+005099999V0200701N008712200019N0040001N1+02001+01231101551ADDAA199000091AY101031AY201031GA1001+999999999GF100991001001999999001001MA1999999100981MD1999999+0121MW1051REMSYN070AAXX  26214 48418 31940 00717 10200 20123 30098 40155 70500 333 58012;EQDQ01  00002PRCP99
0186484180999992000012700004+15270+101180FM-12+005099999V0200701N006712200019N0120001N1+01831+01131101781ADDAA199000091GF102991001001999999001011KA1120N+01791MA1999999101191MD1999999+0171REMSYN076AAXX  27004 48418 32962 20713 10183 20113 30119 40178 80001 333 20179 58017;EQDQ01  00002PRCP99
0177484180999992000012703004+15270+101180FM-12+005099999V0200701N010312200019N0160001N1+02171+01151101921ADDAA199000091GA1001+999999999GF100991001001999999001001MA1999999101341MD1999999+0191REMSYN064AAXX  27034 48418 32966 00720 10217 20115 30134 40192 333 58019;EQDQ01  00002PRCP99
0167484180999992000012706004+15270+101180FM-12+005099999V0200701N007719999999N0160001N1+02631+01231101571ADDAA199000091GF107991001001999999001071MA1999999101011MD1999999+0141REMSYN070AAXX  27064 48418 32966 70715 10263 20123 30101 40157 80007 333 58014;EQDQ01  00002PRCP99
0167484180999992000012709004+15270+101180FM-12+005099999V0201101N006719999999N0150001N1+02771+01291101311ADDAA199000091GF107991001001999999001071MA1999999100751MD1999999+0151REMSYN070AAXX  27094 48418 32965 71113 10277 20129 30075 40131 80007 333 58015;EQDQ01  00002PRCP99
0224484180999992000012712004+15270+101180FM-12+005099999V0200901N001012200019N0060001N1+02391+01341101441ADDAA199000091AY101061AY201061GA1001+999999999GF100991001001999999001001KA1120M+02831MA1999999100881MD1999999+0191MW1051REMSYN076AAXX  27124 48418 31956 00902 10239 20134 30088 40144 70500 333 10283 58019;EQDQ01  00002PRCP99
0205484180999992000012715004+15270+101180FM-12+005099999V0201001N002112200019N0040001N1+02151+01371101661ADDAA199000091AY101031AY201031GA1001+999999999GF100991001001999999001001MA1999999101081MD1999999+0201MW1051REMSYN070AAXX  27154 48418 31940 01004 10215 20137 30108 40166 70500 333 58020;EQDQ01  00002PRCP99
0205484180999992000012718004+15270+101180FM-12+005099999V0200701N007712200019N0040001N1+02101+01211101641ADDAA199000091AY101061AY201061GA1001+999999999GF100991001001999999001001MA1999999101051MD1999999+0141MW1051REMSYN070AAXX  27184 48418 31940 00715 10210 20121 30105 40164 70500 333 58014;EQDQ01  00002PRCP99
0205484180999992000012721004+15270+101180FM-12+005099999V0200601N005112200019N0040001N1+01841+01121101631ADDAA199000091AY101031AY201031GA1001+999999999GF100991001001999999001001MA1999999101041MD1999999+0081MW1051REMSYN070AAXX  27214 48418 31940 00610 10184 20112 30104 40163 70500 333 58008;EQDQ01  00002PRCP99
0186484180999992000012800004+15270+101180FM-12+005099999V0200901N006219999999N0110001N1+01631+01021101821ADDAA199000091GF108991001001999999001071KA1120N+01581MA1999999101311MD1999999+0041REMSYN076AAXX  28004 48418 32961 80912 10163 20102 30131 40182 80007 333 20158 58004;EQDQ01  00002PRCP99
0167484180999992000012803004+15270+101180FM-12+005099999V0200901N007719999999N0130001N1+02101+01101102031ADDAA199000091GF105991001001999999001061MA1999999101441MD1999999+0111REMSYN070AAXX  28034 48418 32963 50915 10210 20110 30144 40203 80006 333 58011;EQDQ01  00002PRCP99
0167484180999992000012806004+15270+101180FM-12+005099999V0200901N005112200019N0140001N1+02551+01071101641ADDAA199000091GF102991001001999999001051MA1999999101081MD1999999+0071REMSYN070AAXX  28064 48418 32964 20910 10255 20107 30108 40164 80005 333 58007;EQDQ01  00002PRCP99
0167484180999992000012809004+15270+101180FM-12+005099999V0200601N004112200019N0130001N1+02801+01331101331ADDAA199000091GF103991001001999999001051MA1999999100751MD1999999+0021REMSYN070AAXX  28094 48418 32963 30608 10280 20133 30075 40133 80005 333 58002;EQDQ01  00002PRCP99
0186484180999992000012812004+15270+101180FM-12+005099999V0209999C000012200019N0100001N1+02371+01401101441ADDAA199000091GF101991001001999999001021KA1120M+02821MA1999999100881MD1999999-0011REMSYN076AAXX  28124 48418 32960 10000 10237 20140 30088 40144 80002 333 10282 59001;EQDQ01  00002PRCP99
0205484180999992000012815004+15270+101180FM-12+005099999V0209999C000012200019N0050001N1+01951+01281101571ADDAA199000091AY101031AY201031GA1001+999999999GF100991001001999999001001MA1999999101001MD1999999-0091MW1101REMSYN070AAXX  28154 48418 31950 00000 10195 20128 30100 40157 71000 333 59009;EQDQ01  00002PRCP99
0205484180999992000012818004+15270+101180FM-12+005099999V0209999C000012200019N0050001N1+01801+01451101561ADDAA199000091AY101061AY201061GA1001+999999999GF100991001001999999001001MA1999999100971MD1999999-0081MW1101REMSYN070AAXX  28184 48418 31950 00000 10180 20145 30097 40156 71000 333 59008;EQDQ01  00002PRCP99
0205484180999992000012821004+15270+101180FM-12+005099999V0209999C000012200019N0050001N1+01861+01311101601ADDAA199000091AY101031AY201031GA1001+999999999GF100991001001999999001001MA1999999101011MD1999999-0031MW1101REMSYN070AAXX  28214 48418 31950 00000 10186 20131 30101 40160 71000 333 59003;EQDQ01  00002PRCP99
0214484180999992000012900004+15270+101180FM-12+005099999V0209999C000012200019N0070001N1+01651+01291101791ADDAA199000091AY101061AY201061GF103991001001999999001021KA1120N+01621MA1999999101211MD1999999-0031MW1101REMSYN082AAXX  29004 48418 31957 30000 10165 20129 30121 40179 71000 80002 333 20162 59003;EQDQ01  00002PRCP99
0177484180999992000012903004+15270+101180FM-12+005099999V0200601N004112200019N0130001N1+02201+01331101951ADDAA199000091GA1001+999999999GF100991001001999999001001MA1999999101371MD1999999-0041REMSYN064AAXX  29034 48418 32963 00608 10220 20133 30137 40195 333 59004;EQDQ01  00002PRCP99
0167484180999992000012906004+15270+101180FM-12+005099999V0200601N005112200019N0140001N1+02771+01401101631ADDAA199000091GF102991001001999999001021MA1999999101071MD1999999-0021REMSYN070AAXX  29064 48418 32964 20610 10277 20140 30107 40163 80002 333 59002;EQDQ01  00002PRCP99
0167484180999992000012909004+15270+101180FM-12+005099999V0200601N005119999999N0130001N1+02911+01241101361ADDAA199000091GF107991001001999999001061MA1999999100801MD1999999+0041REMSYN070AAXX  29094 48418 32963 70610 10291 20124 30080 40136 80006 333 58004;EQDQ01  00002PRCP99
0205484180999992000012915004+15270+101180FM-12+005099999V0200301N002612200019N0060001N1+02351+01351101661ADDAA199000091AY101031AY201031GA1001+999999999GF100991001001999999001001MA1999999101101MD1999999+0091MW1051REMSYN070AAXX  29154 48418 31956 00305 10235 20135 30110 40166 70500 333 58009;EQDQ01  00002PRCP99
0211484180999992000012918004+15270+101180FM-12+005099999V0209999C000012200019N0050001N1+02261+01351101771ADDAA199000091AY101061AY201061GA1001+999999999GF100991001001999999001001MA1999999101191MD1999999+0201MW1051REMSYN076AAXX  29184 48418 31950 00000 10226 20135 30119 40177 70500 8//// 333 58020;EQDQ01  00002PRCP99
0195484180999992000012921004+15270+101180FM-12+005099999V0200801N006219999999N0030001N1+02061+01291101821ADDAA199000091AY111031AY201031GF105991001001999999001061MA1999999101231MD1999999+0221MW1051REMSYN076AAXX  29214 48418 31930 50812 10206 20129 30123 40182 70510 80006 333 58022;EQDQ01  00002PRCP99
0186484180999992000013000004+15270+101180FM-12+005099999V0200801N006219999999N0100001N1+01871+01201101881ADDAA199000091GF108991071001999999051061KA1120N+01801MA1999999101301MD1999999+0091REMSYN076AAXX  30004 48418 32960 80812 10187 20120 30130 40188 87056 333 20180 58009;EQDQ01  00002PRCP99
0167484180999992000013003004+15270+101180FM-12+005099999V0200801N007719999999N0120001N1+02101+01211102081ADDAA199000091GF107991071001999999051061MA1999999101491MD1999999+0131REMSYN070AAXX  30034 48418 32962 70815 10210 20121 30149 40208 87056 333 58013;EQDQ01  00002PRCP99
0177484180999992000013006004+15270+101180FM-12+005099999V0200301N006212200019N0130001N1+02631+01251101731ADDAA199000091GA1001+999999999GF100991001001999999001001MA1999999101171MD1999999+0111REMSYN064AAXX  30064 48418 32963 00312 10263 20125 30117 40173 333 58011;EQDQ01  00002PRCP99
0177484180999992000013009004+15270+101180FM-12+005099999V0200801N005112200019N0120001N1+02801+01371101501ADDAA199000091GA1001+999999999GF100991001001999999001001MA1999999100941MD1999999+0131REMSYN064AAXX  30094 48418 32962 00810 10280 20137 30094 40150 333 58013;EQDQ01  00002PRCP99
0214484180999992000013012004+15270+101180FM-12+005099999V0209999C000012200019N0050001N1+02411+01471101651ADDAA199000091AY101061AY201061GF102991001001999999001051KA1120M+02831MA1999999101091MD1999999+0141MW1051REMSYN082AAXX  30124 48418 31950 20000 10241 20147 30109 40165 70500 80005 333 10283 58014;EQDQ01  00002PRCP99
0205484180999992000013015004+15270+101180FM-12+005099999V0200801N005112200019N0030001N1+02351+01351101801ADDAA199000091AY101031AY201031GA1001+999999999GF100991001001999999001001MA1999999101241MD1999999+0131MW1051REMSYN070AAXX  30154 48418 31930 00810 10235 20135 30124 40180 70500 333 58013;EQDQ01  00002PRCP99
0205484180999992000013018004+15270+101180FM-12+005099999V0200901N006212200019N0030001N1+02301+01291101741ADDAA199000091AY101061AY201061GA1001+999999999GF100991001001999999001001MA1999999101181MD1999999-0031MW1051REMSYN070AAXX  30184 48418 31930 00912 10230 20129 30118 40174 70500 333 59003;EQDQ01  00002PRCP99
0195484180999992000013021004+15270+101180FM-12+005099999V0200901N007719999999N0030001N1+02021+01281101761ADDAA199000091AY121031AY221031GF107991061001999999051061MA1999999101171MD1999999-0061MW1101REMSYN076AAXX  30214 48418 31930 70915 10202 20128 30117 40176 71022 86056 333 59006;EQDQ01  00002PRCP99
0214484180999992000013100004+15270+101180FM-12+005099999V0200301N007719999999N0070001N1+01901+01261101901ADDAA199000091AY121061AY221061GF106991051001999999051061KA1120N+01871MA1999999101311MD1999999+0021MW1101REMSYN082AAXX  31004 48418 31957 60315 10190 20126 30131 40190 71022 85056 333 20187 58002;EQDQ01  00002PRCP99
0167484180999992000013103004+15270+101180FM-12+005099999V0200101N031912200019N0130001N1+02331+01291102071ADDAA199000091GF101991001001999999001021MA1999999101511MD1999999-0011REMSYN070AAXX  31034 48418 32963 10162 10233 20129 30151 40207 80002 333 59001;EQDQ01  00002PRCP99
0177484180999992000013106004+15270+101180FM-12+005099999V0200901N021612200019N0140001N1+02701+01351101761ADDAA199000091GA1001+999999999GF100991001001999999001001MA1999999101201MD1999999+0021REMSYN064AAXX  31064 48418 32964 00942 10270 20135 30120 40176 333 58002;EQDQ01  00002PRCP99
0177484180999992000013109004+15270+101180FM-12+005099999V0200901N003112200019N0130001N1+02921+01391101401ADDAA199000091GA1001+999999999GF100991001001999999001001MA1999999100841MD1999999-0101REMSYN064AAXX  31094 48418 32963 00906 10292 20139 30084 40140 333 59010;EQDQ01  00002PRCP99
0196484180999992000013112004+15270+101180FM-12+005099999V0200801N004112200019N0100001N1+02551+01361101531ADDAA199000091GA1001+999999999GF100991001001999999001001KA1120M+02951MA1999999100971MD1999999-0121REMSYN070AAXX  31124 48418 32960 00808 10255 20136 30097 40153 333 10295 59012;EQDQ01  00002PRCP99
0205484180999992000013115004+15270+101180FM-12+005099999V0200601N003112200019N0030001N1+02361+01301101721ADDAA199000091AY101031AY201031GA1001+999999999GF100991001001999999001001MA1999999101161MD1999999-0081MW1051REMSYN070AAXX  31154 48418 31930 00606 10236 20130 30116 40172 70500 333 59008;EQDQ01  00002PRCP99
0205484180999992000013118004+15270+101180FM-12+005099999V0200801N004112200019N0020001N1+02151+01271101811ADDAA199000091AY101061AY201061GA1001+999999999GF100991001001999999001001MA1999999101221MD1999999+0071MW1051REMSYN070AAXX  31184 48418 31920 00808 10215 20127 30122 40181 70500 333 58007;EQDQ01  00002PRCP99
0205484180999992000013121004+15270+101180FM-12+005099999V0200801N003112200019N0020001N1+01801+01261101761ADDAA199000091AY101031AY201031GA1001+999999999GF100991001001999999001001MA1999999101171MD1999999+0001MW1101REMSYN070AAXX  31214 48418 31920 00806 10180 20126 30117 40176 71000 333 58000;EQDQ01  00002PRCP99
0196484180999992000020100004+15270+101180FM-12+005099999V0200901N003112200019N0100001N1+01601+01031101941ADDAA199000091GA1001+999999999GF100991001001999999001001KA1120N+01571MA1999999101351MD1999999+0041REMSYN070AAXX  01004 48418 32960 00906 10160 20103 30135 40194 333 20157 58004;EQDQ01  00002PRCP99
0177484180999992000020103004+15270+101180FM-12+005099999V0200801N010312200019N0130001N1+02051+00921102081ADDAA199000091GA1001+999999999GF100991001001999999001001MA1999999101491MD1999999+0011REMSYN064AAXX  01034 48418 32963 00820 10205 20092 30149 40208 333 58001;EQDQ01  00002PRCP99
0177484180999992000020106004+15270+101180FM-12+005099999V0200901N006212200019N0130001N1+02561+00551101711ADDAA199000091GA1001+999999999GF100991001001999999001001MA1999999101151MD1999999-0051REMSYN064AAXX  01064 48418 32963 00912 10256 20055 30115 40171 333 59005;EQDQ01  00002PRCP99
0177484180999992000020109004+15270+101180FM-12+005099999V0200901N006212200019N0110001N1+02731+00971101361ADDAA199000091GA1001+999999999GF100991001001999999001001MA1999999100801MD1999999-0041REMSYN064AAXX  01094 48418 32961 00912 10273 20097 30080 40136 333 59004;EQDQ01  00002PRCP99
0224484180999992000020112004+15270+101180FM-12+005099999V0200801N003112200019N0070001N1+02381+01021101451ADDAA199000091AY101061AY201061GA1001+999999999GF100991001001999999001001KA1120M+02771MA1999999100891MD1999999-0081MW1051REMSYN076AAXX  01124 48418 31957 00806 10238 20102 30089 40145 70500 333 10277 59008;EQDQ01  00002PRCP99
0205484180999992000020115004+15270+101180FM-12+005099999V0200901N005112200019N0050001N1+02131+01031101701ADDAA199000091AY101031AY201031GA1001+999999999GF100991001001999999001001MA1999999101121MD1999999-0011MW1051REMSYN070AAXX  01154 48418 31950 00910 10213 20103 30112 40170 70500 333 59001;EQDQ01  00002PRCP99
0205484180999992000020121004+15270+101180FM-12+005099999V0209999C000012200019N0020001N1+01651+01051101791ADDAA199000091AY101031AY201031GA1001+999999999GF100991001001999999001001MA1999999101211MD1999999+0031MW1101REMSYN070AAXX  01214 48418 31920 00000 10165 20105 30121 40179 71000 333 58003;EQDQ01  00002PRCP99
0224484180999992000020200004+15270+101180FM-12+005099999V0200901N005112200019N0060001N1+01601+00971101881ADDAA199000091AY101061AY201061GA1001+999999999GF100991001001999999001001KA1120N+01541MA1999999101301MD1999999-0061MW1101REMSYN076AAXX  02004 48418 31956 00910 10160 20097 30130 40188 71000 333 20154 59006;EQDQ01  00002PRCP99
0177484180999992000020203004+15270+101180FM-12+005099999V0200901N006212200019N0130001N1+02151+01011102041ADDAA199000091GA1001+999999999GF100991001001999999001001MA1999999101461MD1999999-0041REMSYN064AAXX  02034 48418 32963 00912 10215 20101 30146 40204 333 59004;EQDQ01  00002PRCP99
0177484180999992000020206004+15270+101180FM-12+005099999V0200901N004112200019N0130001N1+02651+01211101671ADDAA199000091GA1001+999999999GF100991001001999999001001MA1999999101111MD1999999-0041REMSYN064AAXX  02064 48418 32963 00908 10265 20121 30111 40167 333 59004;EQDQ01  00002PRCP99
0177484180999992000020209004+15270+101180FM-12+005099999V0200901N004112200019N0120001N1+02851+01221101251ADDAA199000091GA1001+999999999GF100991001001999999001001MA1999999100691MD1999999-0111REMSYN064AAXX  02094 48418 32962 00908 10285 20122 30069 40125 333 59011;EQDQ01  00002PRCP99
0224484180999992000020212004+15270+101180FM-12+005099999V0209999C000012200019N0060001N1+02371+01501101361ADDAA199000091AY101061AY201061GA1001+999999999GF100991001001999999001001KA1120M+02871MA1999999100801MD1999999-0091MW1051REMSYN076AAXX  02124 48418 31956 00000 10237 20150 30080 40136 70500 333 10287 59009;EQDQ01  00002PRCP99
0211484180999992000020215004+15270+101180FM-12+005099999V0209999C000012200019N0030001N1+01751+01301101581ADDAA199000091AY101031AY201031GA1001+999999999GF100991001001999999001001MA1999999100991MD1999999-0121MW1101REMSYN076AAXX  02154 48418 31930 00000 10175 20130 30099 40158 71000 8//// 333 59012;EQDQ01  00002PRCP99
0205484180999992000020218004+15270+101180FM-12+005099999V0209999C000012200019N0020001N1+01501+01261101591ADDAA199000091AY101061AY201061GA1001+999999999GF100991001001999999001001MA1999999101001MD1999999-0181MW1101REMSYN070AAXX  02184 48418 31920 00000 10150 20126 30100 40159 71000 333 59018;EQDQ01  00002PRCP99
0205484180999992000020221004+15270+101180FM-12+005099999V0209999C000012200019N0020001N1+01401+01201101561ADDAA199000091AY101031AY201031GA1001+999999999GF100991001001999999001001MA1999999100981MD1999999-0231MW1101REMSYN070AAXX  02214 48418 31920 00000 10140 20120 30098 40156 71000 333 59023;EQDQ01  00002PRCP99
0224484180999992000020300004+15270+101180FM-12+005099999V0209999C000012200019N0040001N1+01261+01151101731ADDAA199000091AY101061AY201061GA1001+999999999GF100991001001999999001001KA1120N+01201MA1999999101141MD1999999-0151MW1101REMSYN076AAXX  03004 48418 31940 00000 10126 20115 30114 40173 71000 333 20120 59015;EQDQ01  00002PRCP99
0177484180999992000020303004+15270+101180FM-12+005099999V0201201N005112200019N0100001N1+02321+01341101901ADDAA199000091GA1001+999999999GF100991001001999999001001MA1999999101321MD1999999-0141REMSYN064AAXX  03034 48418 32960 01210 10232 20134 30132 40190 333 59014;EQDQ01  00002PRCP99
0177484180999992000020306004+15270+101180FM-12+005099999V0201701N002612200019N0120001N1+02831+01171101591ADDAA199000091GA1001+999999999GF100991001001999999001001MA1999999101021MD1999999-0081REMSYN064AAXX  03064 48418 32962 01705 10283 20117 30102 40159 333 59008;EQDQ01  00002PRCP99
0177484180999992000020309004+15270+101180FM-12+005099999V0209999C000012200019N0120001N1+03011+01071101191ADDAA199000091GA1001+999999999GF100991001001999999001001MA1999999100631MD1999999-0061REMSYN064AAXX  03094 48418 32962 00000 10301 20107 30063 40119 333 59006;EQDQ01  00002PRCP99
0224484180999992000020312004+15270+101180FM-12+005099999V0209999C000012200019N0060001N1+02501+01541101231ADDAA199000091AY101061AY201061GA1001+999999999GF100991001001999999001001KA1120M+03121MA1999999100671MD1999999-0131MW1051REMSYN076AAXX  03124 48418 31956 00000 10250 20154 30067 40123 70500 333 10312 59013;EQDQ01  00002PRCP99
0205484180999992000020315004+15270+101180FM-12+005099999V0209999C000012200019N0030001N1+01841+01121101431ADDAA199000091AY101031AY201031GA1001+999999999GF100991001001999999001001MA1999999100861MD1999999-0151MW1051REMSYN070AAXX  03154 48418 31930 00000 10184 20112 30086 40143 70500 333 59015;EQDQ01  00002PRCP99
0205484180999992000020321004+15270+101180FM-12+005099999V0209999C000012200019N0020001N1+01361+01111101311ADDAA199000091AY101031AY201031GA1001+999999999GF100991001001999999001001MA1999999100731MD1999999-0251MW1101REMSYN070AAXX  03214 48418 31920 00000 10136 20111 30073 40131 71000 333 59025;EQDQ01  00002PRCP99
0230484180999992000020400004+15270+101180FM-12+005099999V0209999C000012200019N0070001N1+01271+01141101411ADDAA199000091AY101061AY201061GA1001+999999999GF100991001001999999001001KA1120N+01221MA1999999100821MD1999999-0321MW1101REMSYN082AAXX  04004 48418 31957 00000 10127 20114 30082 40141 71000 8//// 333 20122 59032;EQDQ01  00002PRCP99
0177484180999992000020406004+15270+101180FM-12+005099999V0201001N004112200019N0120001N1+03091+01081101161ADDAA199000091GA1001+999999999GF100991001001999999001001MA1999999100601MD1999999-0431REMSYN064AAXX  04064 48418 32962 01008 10309 20108 30060 40116 333 59043;EQDQ01  00002PRCP99
0177484180999992000020409004+15270+101180FM-12+005099999V0200801N002612200019N0100001N1+03231+00851100801ADDAA199000091GA1001+999999999GF100991001001999999001001MA1999999100251MD1999999-0391REMSYN064AAXX  04094 48418 32960 00805 10323 20085 30025 40080 333 59039;EQDQ01  00002PRCP99
0224484180999992000020412004+15270+101180FM-12+005099999V0209999C000012200019N0060001N1+02571+01491100901ADDAA199000091AY101061AY201061GA1001+999999999GF100991001001999999001001KA1120M+03281MA1999999100341MD1999999-0331MW1051REMSYN076AAXX  04124 48418 31956 00000 10257 20149 30034 40090 70500 333 10328 59033;EQDQ01  00002PRCP99
0205484180999992000020415004+15270+101180FM-12+005099999V0209999C000012200019N0030001N1+01831+01261101151ADDAA199000091AY101031AY201031GA1001+999999999GF100991001001999999001001MA1999999100581MD1999999-0281MW1101REMSYN070AAXX  04154 48418 31930 00000 10183 20126 30058 40115 71000 333 59028;EQDQ01  00002PRCP99
0205484180999992000020418004+15270+101180FM-12+005099999V0209999C000012200019N0020001N1+01571+01181101131ADDAA199000091AY101061AY201061GA1001+999999999GF100991001001999999001001MA1999999100551MD1999999-0221MW1101REMSYN070AAXX  04184 48418 31920 00000 10157 20118 30055 40113 71000 333 59022;EQDQ01  00002PRCP99
0205484180999992000020421004+15270+101180FM-12+005099999V0209999C000012200019N0020001N1+01451+01231101091ADDAA199000091AY101031AY201031GA1001+999999999GF100991001001999999001001MA1999999100511MD1999999-0221MW1101REMSYN070AAXX  04214 48418 31920 00000 10145 20123 30051 40109 71000 333 59022;EQDQ01  00002PRCP99
0214484180999992000020500004+15270+101180FM-12+005099999V0209999C000019999999N0050001N1+01321+01131101311ADDAA199000091AY121061AY221061GF108991001001999999001071KA1120N+01201MA1999999100721MD1999999-0101MW1101REMSYN082AAXX  05004 48418 31950 80000 10132 20113 30072 40131 71022 80007 333 20120 59010;EQDQ01  00002PRCP99
0211484180999992000020503004+15270+101180FM-12+005099999V0200301N002619999999N0050001N1+02552+01191101431ADDAA199000091AY121031AY221031GF105991001001999999001061MA1999999100871MD1999999-0091MW1051REMSYN076AAXX  05034 48418 31950 50305 10255 20119 30087 40143 70522 80006 333 59009;EQDQ01+002553ATOT  Q02  00002PRCP99
0205484180999992000020506004+15270+101180FM-12+005099999V0200801N004112200019N0070001N1+03151+01201101111ADDAA199000091AY101061AY201061GA1001+999999999GF100991001001999999001001MA1999999100551MD1999999-0051MW1051REMSYN070AAXX  05064 48418 31957 00808 10315 20120 30055 40111 70500 333 59005;EQDQ01  00002PRCP99
0195484180999992000020509004+15270+101180FM-12+005099999V0209999C000012200019N0080001N1+03331+01351100781ADDAA199000091AY101031AY201031GF101991001001999999001051MA1999999100231MD1999999-0021MW1051REMSYN076AAXX  05094 48418 31958 10000 10333 20135 30023 40078 70500 80005 333 59002;EQDQ01  00002PRCP99
0214484180999992000020512004+15270+101180FM-12+005099999V0209999C000012200019N0050001N1+02681+01571100841ADDAA199000091AY101061AY201061GF101991001001999999001051KA1120M+03371MA1999999100281MD1999999-0061MW1051REMSYN082AAXX  05124 48418 31950 10000 10268 20157 30028 40084 70500 80005 333 10337 59006;EQDQ01  00002PRCP99
0205484180999992000020515004+15270+101180FM-12+005099999V0209999C000012200019N0030001N1+02001+01351101101ADDAA199000091AY101031AY201031GA1001+999999999GF100991001001999999001001MA1999999100531MD1999999-0051MW1101REMSYN070AAXX  05154 48418 31930 00000 10200 20135 30053 40110 71000 333 59005;EQDQ01  00002PRCP99
0205484180999992000020518004+15270+101180FM-12+005099999V0209999C000012200019N0020001N1+01801+01261101121ADDAA199000091AY101061AY201061GA1001+999999999GF100991001001999999001001MA1999999100551MD1999999-0011MW1101REMSYN070AAXX  05184 48418 31920 00000 10180 20126 30055 40112 71000 333 59001;EQDQ01  00002PRCP99
0205484180999992000020521004+15270+101180FM-12+005099999V0209999C000012200019N0020001N1+01901+01381101051ADDAA199000091AY101031AY201031GA1001+999999999GF100991001001999999001001MA1999999100471MD1999999-0051MW1101REMSYN070AAXX  05214 48418 31920 00000 10190 20138 30047 40105 71000 333 59005;EQDQ01  00002PRCP99
0186484180999992000020600004+15270+101180FM-12+005099999V0200801N005119999999N0100001N1+02031+01561101261ADDAA199000091GF107991001001999999001061KA1120N+01601MA1999999100691MD1999999-0051REMSYN076AAXX  06004 48418 32960 70810 10203 20156 30069 40126 80006 333 20160 59005;EQDQ01  00002PRCP99
0167484180999992000020603004+15270+101180FM-12+005099999V0200801N006212200019N0140001N1+02501+01601101411ADDAA199000091GF103991011011008001001051MA1999999100851MD1999999-0011REMSYN070AAXX  06034 48418 32564 30812 10250 20160 30085 40141 81105 333 59001;EQDQ01  00002PRCP99
0167484180999992000020606004+15270+101180FM-12+005099999V0200601N005119999999N0140001N1+03021+01671101041ADDAA199000091GF105991001001999999001061MA1999999100481MD1999999-0071REMSYN070AAXX  06064 48418 32964 50610 10302 20167 30048 40104 80006 333 59007;EQDQ01  00002PRCP99
0167484180999992000020609004+15270+101180FM-12+005099999V0200601N004119999999N0130001N1+03201+01321100781ADDAA199000091GF105991001001999999001061MA1999999100221MD1999999+0011REMSYN070AAXX  06094 48418 32963 50608 10320 20132 30022 40078 80006 333 58001;EQDQ01  00002PRCP99
0186484180999992000020612004+15270+101180FM-12+005099999V0209999C000012200019N0100001N1+02701+01491100791ADDAA199000091GF102991001001999999001021KA1120M+03261MA1999999100231MD1999999-0051REMSYN076AAXX  06124 48418 32960 20000 10270 20149 30023 40079 80002 333 10326 59005;EQDQ01  00002PRCP99
0211484180999992000020615004+15270+101180FM-12+005099999V0209999C000012200019N0030001N1+02001+01431101131ADDAA199000091AY101031AY201031GA1001+999999999GF100991001001999999001001MA1999999100561MD1999999+0031MW1101REMSYN076AAXX  06154 48418 31930 00000 10200 20143 30056 40113 71000 8//// 333 58003;EQDQ01  00002PRCP99
0211484180999992000020618004+15270+101180FM-12+005099999V0209999C000012200019N0020001N1+01801+01401101131ADDAA199000091AY101061AY201061GA1001+999999999GF100991001001999999001001MA1999999100561MD1999999+0011MW1101REMSYN076AAXX  06184 48418 31920 00000 10180 20140 30056 40113 71000 8//// 333 58001;EQDQ01  00002PRCP99
0205484180999992000020621004+15270+101180FM-12+005099999V0201101N003612200019N0020001N1+02051+01351101101ADDAA199000091AY101031AY201031GA1001+999999999GF100991001001999999001001MA1999999100531MD1999999+0061MW1051REMSYN070AAXX  06214 48418 31920 01107 10205 20135 30053 40110 70500 333 58006;EQDQ01  00002PRCP99
0214484180999992000020700004+15270+101180FM-12+005099999V0209999C000019999999N0080001N1+01901+01401101161ADDAA199000091AY121061AY221061GF106991001001999999001061KA1120N+01671MA1999999100581MD1999999-0101MW1101REMSYN082AAXX  07004 48418 31958 60000 10190 20140 30058 40116 71022 80006 333 20167 59010;EQDQ01  00002PRCP99
0167484180999992000020703004+15270+101180FM-12+005099999V0200801N005119999999N0140001N1+02321+01521101351ADDAA199000091GF106991001001999999001061MA1999999100781MD1999999-0071REMSYN070AAXX  07034 48418 32964 60810 10232 20152 30078 40135 80006 333 59007;EQDQ01  00002PRCP99
0167484180999992000020706004+15270+101180FM-12+005099999V0200501N005119999999N0140001N1+02871+01531101021ADDAA199000091GF106991001001999999001061MA1999999100461MD1999999-0021REMSYN070AAXX  07064 48418 32964 60510 10287 20153 30046 40102 80006 333 59002;EQDQ01  00002PRCP99
0167484180999992000020709004+15270+101180FM-12+005099999V0200501N002619999999N0140001N1+03231+01481100711ADDAA199000091GF106991001001999999001061MA1999999100161MD1999999-0071REMSYN070AAXX  07094 48418 32964 60505 10323 20148 30016 40071 80006 333 59007;EQDQ01  00002PRCP99
0214484180999992000020712004+15270+101180FM-12+005099999V0209999C000012200019N0080001N1+02701+01651100781ADDAA199000091AY111061AY211061GF103991001001999999001051KA1120M+03261MA1999999100221MD1999999-0011MW1051REMSYN082AAXX  07124 48418 31958 30000 10270 20165 30022 40078 70511 80005 333 10326 59001;EQDQ01  00002PRCP99
0205484180999992000020715004+15270+101180FM-12+005099999V0209999C000012200019N0040001N1+02081+01521101031ADDAA199000091AY101031AY201031GA1001+999999999GF100991001001999999001001MA1999999100461MD1999999-0101MW1101REMSYN070AAXX  07154 48418 31940 00000 10208 20152 30046 40103 71000 333 59010;EQDQ01  00002PRCP99
0205484180999992000020718004+15270+101180FM-12+005099999V0209999C000012200019N0030001N1+01881+01351101021ADDAA199000091AY101061AY201061GA1001+999999999GF100991001001999999001001MA1999999100451MD1999999-0111MW1101REMSYN070AAXX  07184 48418 31930 00000 10188 20135 30045 40102 71000 333 59011;EQDQ01  00002PRCP99
0205484180999992000020721004+15270+101180FM-12+005099999V0209999C000012200019N0030001N1+01831+01301100991ADDAA199000091AY101031AY201031GA1001+999999999GF100991001001999999001001MA1999999100411MD1999999-0121MW1101REMSYN070AAXX  07214 48418 31930 00000 10183 20130 30041 40099 71000 333 59012;EQDQ01  00002PRCP99
0196484180999992000020800004+15270+101180FM-12+005099999V0201001N005112200019N0100001N1+01811+01291101251ADDAA199000091GA1001+999999999GF100991001001999999001001KA1120N+01701MA1999999100671MD1999999+0091REMSYN070AAXX  08004 48418 32960 01010 10181 20129 30067 40125 333 20170 58009;EQDQ01  00002PRCP99
0177484180999992000020803004+15270+101180FM-12+005099999V0200501N004112200019N0140001N1+02291+01321101411ADDAA199000091GA1001+999999999GF100991001001999999001001MA1999999100851MD1999999+0071REMSYN064AAXX  08034 48418 32964 00508 10229 20132 30085 40141 333 58007;EQDQ01  00002PRCP99
0177484180999992000020806004+15270+101180FM-12+005099999V0200501N005112200019N0140001N1+02851+01381101101ADDAA199000091GA1001+999999999GF100991001001999999001001MA1999999100541MD1999999+0081REMSYN064AAXX  08064 48418 32964 00510 10285 20138 30054 40110 333 58008;EQDQ01  00002PRCP99
0177484180999992000020809004+15270+101180FM-12+005099999V0201301N002612200019N0140001N1+03101+01331100801ADDAA199000091GA1001+999999999GF100991001001999999001001MA1999999100241MD1999999+0081REMSYN064AAXX  08094 48418 32964 01305 10310 20133 30024 40080 333 58008;EQDQ01  00002PRCP99
0224484180999992000020812004+15270+101180FM-12+005099999V0209999C000012200019N0080001N1+02481+01611100881ADDAA199000091AY101061AY201061GA1001+999999999GF100991001001999999001001KA1120M+03131MA1999999100321MD1999999+0101MW1051REMSYN076AAXX  08124 48418 31958 00000 10248 20161 30032 40088 70500 333 10313 58010;EQDQ01  00002PRCP99
0205484180999992000020815004+15270+101180FM-12+005099999V0201001N002112200019N0040001N1+02011+01291101071ADDAA199000091AY101031AY201031GA1001+999999999GF100991001001999999001001MA1999999100491MD1999999+0031MW1051REMSYN070AAXX  08154 48418 31940 01004 10201 20129 30049 40107 70500 333 58003;EQDQ01  00002PRCP99
0205484180999992000020818004+15270+101180FM-12+005099999V0209999C000012200019N0030001N1+01731+01241101041ADDAA199000091AY101061AY201061GA1001+999999999GF100991001001999999001001MA1999999100461MD1999999+0021MW1101REMSYN070AAXX  08184 48418 31930 00000 10173 20124 30046 40104 71000 333 58002;EQDQ01  00002PRCP99
0205484180999992000020821004+15270+101180FM-12+005099999V0209999C000012200019N0020001N1+01581+01231100961ADDAA199000091AY101031AY201031GA1001+999999999GF100991001001999999001001MA1999999100371MD1999999-0031MW1101REMSYN070AAXX  08214 48418 31920 00000 10158 20123 30037 40096 71000 333 59003;EQDQ01  00002PRCP99
0224484180999992000020900004+15270+101180FM-12+005099999V0209999C000012200019N0050001N1+01701+01401101231ADDAA199000091AY101061AY201061GA1001+999999999GF100991001001999999001001KA1120N+01501MA1999999100661MD1999999-0021MW1101REMSYN076AAXX  09004 48418 31950 00000 10170 20140 30066 40123 71000 333 20150 59002;EQDQ01  00002PRCP99
0205484180999992000020903004+15270+101180FM-12+005099999V0200901N005112200019N0050001N1+02431+01451101341ADDAA199000091AY101031AY201031GA1001+999999999GF100991001001999999001001MA1999999100781MD1999999-0071MW1051REMSYN070AAXX  09034 48418 31950 00910 10243 20145 30078 40134 70500 333 59007;EQDQ01  00002PRCP99
0211484180999992000020909004+15270+101180FM-12+005099999V0209999C000012200019N0070001N1+03271+01451100671ADDAA199000091AY101031AY201031GA1001+999999999GF100991001001999999001001MA1999999100121MD1999999-0121MW1051REMSYN076AAXX  09094 48418 31957 00000 10327 20145 30012 40067 70500 8//// 333 59012;EQDQ01  00002PRCP99
0205484180999992000020915004+15270+101180FM-12+005099999V0209999C000012200019N0030001N1+02051+01461100971ADDAA199000091AY101031AY201031GA1001+999999999GF100991001001999999001001MA1999999100411MD1999999-0091MW1101REMSYN070AAXX  09154 48418 31930 00000 10205 20146 30041 40097 71000 333 59009;EQDQ01  00002PRCP99
0205484180999992000020918004+15270+101180FM-12+005099999V0209999C000012200019N0020001N1+01851+01321100991ADDAA199000091AY101061AY201061GA1001+999999999GF100991001001999999001001MA1999999100401MD1999999-0051MW1101REMSYN070AAXX  09184 48418 31920 00000 10185 20132 30040 40099 71000 333 59005;EQDQ01  00002PRCP99
0205484180999992000020921004+15270+101180FM-12+005099999V0209999C000012200019N0020001N1+01621+01221101001ADDAA199000091AY101031AY201031GA1001+999999999GF100991001001999999001001MA1999999100411MD1999999+0041MW1101REMSYN070AAXX  09214 48418 31920 00000 10162 20122 30041 40100 71000 333 58004;EQDQ01  00002PRCP99
0214484180999992000021000004+15270+101180FM-12+005099999V0209999C000019999999N0040001N1+01501+01261101151ADDAA199000091AY121061AY221061GF107991001001999999001061KA1120N+01481MA1999999100561MD1999999-0051MW1101REMSYN082AAXX  10004 48418 31940 70000 10150 20126 30056 40115 71022 80006 333 20148 59005;EQDQ01  00002PRCP99
0211484180999992000021003004+15270+101180FM-12+005099999V0209999C000019999999N0050001N1+02672+01221101241ADDAA199000091AY121031AY221031GF105991001001999999001061MA1999999100681MD1999999-0101MW1051REMSYN076AAXX  10034 48418 31950 50000 10267 20122 30068 40124 70522 80006 333 59010;EQDQ01+002673ATOT  Q02  00002PRCP99
0205484180999992000021006004+15270+101180FM-12+005099999V0209999C000012200019N0070001N1+03271+01451100991ADDAA199000091AY101061AY201061GA1001+999999999GF100991001001999999001001MA1999999100441MD1999999-0031MW1051REMSYN070AAXX  10064 48418 31957 00000 10327 20145 30044 40099 70500 333 59003;EQDQ01  00002PRCP99
0211484180999992000021009004+15270+101180FM-12+005099999V0202701N002612200019N0070001N1+03451+01351100661ADDAA199000091AY111031AY211031GA1001+999999999GF100991001001999999001001MA1999999100121MD1999999-0011MW1051REMSYN076AAXX  10094 48418 31957 02705 10345 20135 30012 40066 70511 80006 333 59001;EQDQ01  00002PRCP99
0224484180999992000021012004+15270+101180FM-12+005099999V0209999C000012200019N0030001N1+02751+01621100881ADDAA199000091AY101061AY201061GA1001+999999999GF100991001001999999001001KA1120M+03461MA1999999100321MD1999999+0031MW1051REMSYN076AAXX  10124 48418 31930 00000 10275 20162 30032 40088 70500 333 10346 58003;EQDQ01  00002PRCP99
0211484180999992000021015004+15270+101180FM-12+005099999V0209999C000012200019N0030001N1+02231+01641101071ADDAA199000091AY101031AY201031GA1001+999999999GF100991001001999999001001MA1999999100501MD1999999+0101MW1101REMSYN076AAXX  10154 48418 31930 00000 10223 20164 30050 40107 71000 8//// 333 58010;EQDQ01  00002PRCP99
0205484180999992000021018004+15270+101180FM-12+005099999V0209999C000012200019N0020001N1+01871+01511100981ADDAA199000091AY101061AY201061GA1001+999999999GF100991001001999999001001MA1999999100411MD1999999-0011MW1101REMSYN070AAXX  10184 48418 31920 00000 10187 20151 30041 40098 71000 333 59001;EQDQ01  00002PRCP99
0205484180999992000021021004+15270+101180FM-12+005099999V0209999C000012200019N0010001N1+01701+01491100911ADDAA199000091AY101031AY201031GA1001+999999999GF100991001001999999001001MA1999999100341MD1999999-0091MW1101REMSYN070AAXX  10214 48418 31910 00000 10170 20149 30034 40091 71000 333 59009;EQDQ01  00002PRCP99
0224484180999992000021100004+15270+101180FM-12+005099999V0209999C000012200019N0020001N1+01621+01481101061ADDAA199000091AY101061AY201061GA1001+999999999GF100991001001999999001001KA1120N+01571MA1999999100481MD1999999-0091MW1101REMSYN076AAXX  11004 48418 31920 00000 10162 20148 30048 40106 71000 333 20157 59009;EQDQ01  00002PRCP99
0205484180999992000021103004+15270+101180FM-12+005099999V0209999C000012200019N0030001N1+02541+01691101181ADDAA199000091AY101031AY201031GA1001+999999999GF100991001001999999001001MA1999999100621MD1999999-0071MW1051REMSYN070AAXX  11034 48418 31930 00000 10254 20169 30062 40118 70500 333 59007;EQDQ01  00002PRCP99
0205484180999992000021106004+15270+101180FM-12+005099999V0209999C000012200019N0050001N1+03341+01721100861ADDAA199000091AY101061AY201061GA1001+999999999GF100991001001999999001001MA1999999100311MD1999999-0131MW1051REMSYN070AAXX  11064 48418 31950 00000 10334 20172 30031 40086 70500 333 59013;EQDQ01  00002PRCP99
0205484180999992000021109004+15270+101180FM-12+005099999V0209999C000012200019N0050001N1+03461+01171100581ADDAA199000091AY101031AY201031GA1001+999999999GF100991001001999999001001MA1999999100041MD1999999-0081MW1051REMSYN070AAXX  11094 48418 31950 00000 10346 20117 30004 40058 70500 333 59008;EQDQ01  00002PRCP99
0224484180999992000021112004+15270+101180FM-12+005099999V0209999C000012200019N0030001N1+02791+01741100651ADDAA199000091AY101061AY201061GA1001+999999999GF100991001001999999001001KA1120M+03491MA1999999100091MD1999999-0231MW1051REMSYN076AAXX  11124 48418 31930 00000 10279 20174 30009 40065 70500 333 10349 59023;EQDQ01  00002PRCP99
0205484180999992000021115004+15270+101180FM-12+005099999V0209999C000012200019N0020001N1+02251+01681100891ADDAA199000091AY101031AY201031GA1001+999999999GF100991001001999999001001MA1999999100321MD1999999-0181MW1101REMSYN070AAXX  11154 48418 31920 00000 10225 20168 30032 40089 71000 333 59018;EQDQ01  00002PRCP99
0205484180999992000021118004+15270+101180FM-12+005099999V0209999C000012200019N0030001N1+01951+01621100931ADDAA199000091AY101061AY201061GA1001+999999999GF100991001001999999001001MA1999999100351MD1999999-0051MW1101REMSYN070AAXX  11184 48418 31930 00000 10195 20162 30035 40093 71000 333 59005;EQDQ01  00002PRCP99
0205484180999992000021121004+15270+101180FM-12+005099999V0209999C000012200019N0010001N1+01751+01531100881ADDAA199000091AY101031AY201031GA1001+999999999GF100991001001999999001001MA1999999100311MD1999999-0031MW1101REMSYN070AAXX  11214 48418 31910 00000 10175 20153 30031 40088 71000 333 59003;EQDQ01  00002PRCP99
0230484180999992000021200004+15270+101180FM-12+005099999V0209999C000012200019N0010001N1+01661+01491101021ADDAA199000091AY101061AY201061GA1001+999999999GF100991001001999999001001KA1120N+01611MA1999999100451MD1999999-0041MW1101REMSYN082AAXX  12004 48418 31910 00000 10166 20149 30045 40102 71000 8//// 333 20161 59004;EQDQ01  00002PRCP99
0211484180999992000021203004+15270+101180FM-12+005099999V0209999C000012200019N0030001N1+02501+01781101151ADDAA199000091AY101031AY201031GA1001+999999999GF100991001001999999001001MA1999999100591MD1999999-0031MW1101REMSYN076AAXX  12034 48418 31930 00000 10250 20178 30059 40115 71000 8//// 333 59003;EQDQ01  00002PRCP99
0211484180999992000021206004+15270+101180FM-12+005099999V0209999C000012200019N0040001N1+03281+01791100871ADDAA199000091AY101061AY201061GA1001+999999999GF100991001001999999001001MA1999999100321MD1999999+0011MW1051REMSYN076AAXX  12064 48418 31940 00000 10328 20179 30032 40087 70500 8//// 333 58001;EQDQ01  00002PRCP99
0205484180999992000021209004+15270+101180FM-12+005099999V0209999C000012200019N0050001N1+03581+01551100531ADDAA199000091AY101031AY201031GA1001+999999999GF100991001001999999001001MA1999999099981MD1999999-0051MW1051REMSYN070AAXX  12094 48418 31950 00000 10358 20155 39998 40053 70500 333 59005;EQDQ01  00002PRCP99
0224484180999992000021212004+15270+101180FM-12+005099999V0209999C000012200019N0030001N1+02901+01731100641ADDAA199000091AY101061AY201061GA1001+999999999GF100991001001999999001001KA1120M+03621MA1999999100081MD1999999-0011MW1051REMSYN076AAXX  12124 48418 31930 00000 10290 20173 30008 40064 70500 333 10362 59001;EQDQ01  00002PRCP99
0205484180999992000021215004+15270+101180FM-12+005099999V0209999C000012200019N0020001N1+02381+01791100831ADDAA199000091AY101031AY201031GA1001+999999999GF100991001001999999001001MA1999999100271MD1999999-0061MW1101REMSYN070AAXX  12154 48418 31920 00000 10238 20179 30027 40083 71000 333 59006;EQDQ01  00002PRCP99
0205484180999992000021218004+15270+101180FM-12+005099999V0209999C000012200019N0020001N1+02111+01741100801ADDAA199000091AY101061AY201061GA1001+999999999GF100991001001999999001001MA1999999100221MD1999999-0131MW1101REMSYN070AAXX  12184 48418 31920 00000 10211 20174 30022 40080 71000 333 59013;EQDQ01  00002PRCP99
0205484180999992000021221004+15270+101180FM-12+005099999V0209999C000012200019N0010001N1+01971+01721100751ADDAA199000091AY101031AY201031GA1001+999999999GF100991001001999999001001MA1999999100181MD1999999-0121MW1101REMSYN070AAXX  12214 48418 31910 00000 10197 20172 30018 40075 71000 333 59012;EQDQ01  00002PRCP99
