0214484570999992000032400004+13380+100600FM-12+001599999V0202201N003112200019N0080001N1+02871+02631100921ADDAA199000091AY111061AY201061GF103991021021008001001051KA1120N+02831MA1999999100751MD1999999-0031MW1101REMSYN082AAXX  24004 48457 31558 32206 10287 20263 30075 40092 71010 82205 333 20283 59003;EQDQ01  00002PRCP99
0195484570999992000032409004+13380+100600FM-12+001599999V0203501N001010450019N0070001N1+02601+02211101151ADDAA199000091AY191031AY221031GF108991021011008001021999MA1999999100991MD1999999+0131MW1101REMSYN076AAXX  24094 48457 31557 83502 10260 20221 30099 40115 71092 8212/ 333 58013;EQDQ01  00002PRCP99
0137484570999992000100103004+13370+100600FM-12+001599999V0209999C000019999999N0100001N1+02871+02531999999ADDAA199000091GF106991999999008001999999REMSYN069AAXX  01034 48457 32560 60000 10287 20253 3018 40135 81836 333 58010;EQDQ01  00002PRCP99
