0244488550999992000010100004+16030+108180FM-12+0007VVDN V0202901N00101008001CN0100001N1+01921+01811101551ADDAA106000091GA1061+008009089GF107991061021008001031081IA2999+01709KA1120N+01921MA1999999101471MD1210121+0011REMSYN106AAXX  01001 48855 32560 72901 10192 20181 30147 40155 52012 86238 333 00019 20192 3/017 58001 86895 87299;EQDQ01  00002PRCP06
0150488550999992000010100304+16030+108180FM-15+0007VVDN V02099999999992200019N0060001N1+02101+01901999999ADDGA1021+004509999GA2021+015009999GF104991999999999999999999MA1101691999999MW1001REMMET059VVDN 010130Z VRB01MPS 6000 FEW015 SCT050 21/19 Q1017 NOSIG;
0158488550999992000010101304+16030+108180FM-15+0007VVDN V0203301N003010150019N0070001N1+02201+02001999999ADDGA1021+004509999GA2071+015009999GF107991999999999999999999MA1101691999999MW1001REMMET067VVDN 010230Z 33003MPS 300V010 7000 FEW015 BKN050 22/20 Q1017 NOSIG;
0150488550999992000010102304+16030+108180FM-15+0007VVDN V02099999999990150019N0070001N1+02301+02001999999ADDGA1021+004509999GA2071+015009999GF107991999999999999999999MA1101691999999MW1001REMMET059VVDN 010330Z VRB02MPS 7000 FEW015 BKN050 23/20 Q1017 NOSIG;
0201488550999992000010103004+16030+108180FM-12+0007VVDN V0203401N00101008001CN0200001N1+02251+01971101661ADDAA106000091GA1061+008009089GF107991071081008001999999MA1999999101581MD1110111+0061REMSYN088AAXX  01031 48855 32570 73401 10225 20197 30158 40166 51011 878// 333 58006 86895 83697;EQDQ01  00002PRCP06
0158488550999992000010103304+16030+108180FM-15+0007VVDN V0200101N003012200019N0080001N1+02501+02001999999ADDGA1021+004509999GA2021+090009999GF104991999999999999999999MA1101591999999MW1001REMMET067VVDN 010430Z 01003MPS 320V070 8000 FEW015 SCT300 25/20 Q1016 NOSIG;
0158488550999992000010104304+16030+108180FM-15+0007VVDN V0200301N006012200019N0080001N1+02401+02001999999ADDGA1021+004509999GA2021+015009999GF104991999999999999999999MA1101491999999MW1001REMMET067VVDN 010530Z 03006MPS 340V060 8000 SCT015 SCT050 24/20 Q1015 NOSIG;
0158488550999992000010105304+16030+108180FM-15+0007VVDN V0200301N005012200019N0112651N1+02401+02001999999ADDGA1021+004509999GA2021+015009999GF104991999999999999999999MA1101391999999MW1001REMMET067VVDN 010630Z 03005MPS 350V060 9999 FEW015 SCT050 24/20 Q1014 NOSIG;
0216488550999992000010106004+16030+108180FM-12+0007VVDN V0203601N00501012001CN0200001N1+02481+01991101411ADDAA106000791AY161061AY221061GA1041+008009089GF107991051081008001001081MA1999999101331MD1710251+0031MW1021REMSYN100AAXX  01061 48855 11570 73605 10248 20199 30133 40141 57025 69901 70262 85808 333 58003 84895 87299;
0158488550999992000010106304+16030+108180FM-15+0007VVDN V0200201N006012200019N0112651N1+02401+02001999999ADDGA1021+004509999GA2021+090009999GF104991999999999999999999MA1101391999999MW1001REMMET067VVDN 010730Z 02006MPS 350V060 9999 FEW015 SCT300 24/20 Q1014 NOSIG;
0150488550999992000010107304+16030+108180FM-15+0007VVDN V0200301N006012200019N0080001N1+02301+02001999999ADDGA1021+004509999GA2021+090009999GF104991999999999999999999MA1101391999999MW1001REMMET059VVDN 010830Z 03006MPS 8000 FEW015 SCT300 23/20 Q1014 NOSIG;
0201488550999992000010109004+16030+108180FM-12+0007VVDN V0203601N00401045001CN0200001N1+02311+02001101351ADDAA106000091GA1021+008009089GF107991031081008001041081MA1999999101271MD1510061+0031REMSYN088AAXX  01091 48855 32570 73604 10231 20200 30127 40135 55006 83848 333 58003 82895 87299;EQDQ01  00002PRCP06
0150488550999992000010110304+16030+108180FM-15+0007VVDN V0203601N003012200019N0060001N1+02101+02001999999ADDGA1021+004509999GA2021+090009999GF104991999999999999999999MA1101491999999MW1001REMMET059VVDN 011130Z 36003MPS 6000 FEW015 SCT300 21/20 Q1015 NOSIG;
0150488550999992000010111304+16030+108180FM-15+0007VVDN V02099999999992200019N0060001N1+02101+02001999999ADDGA1021+004509999GA2021+090009999GF104991999999999999999999MA1101591999999MW1001REMMET059VVDN 011230Z VRB02MPS 6000 FEW015 SCT300 21/20 Q1016 NOSIG;
0241488550999992000010112004+16030+108180FM-12+0007VVDN V0203401N00101017501CN0200001N1+02171+01971101531ADDAA112000791GA1011+008009089GA2051+017509069GF107991051081008001001081KA1120M+02521MA1999999101451MD1210181+0021REMSYN118AAXX  01121 48855 12598 73401 10217 20197 30145 40153 52018 69902 85808 333 00021 10252 58002 79999 81895 85697 87299;
0127488550999992000010112304+16030+108180FM-15+0007VVDN V0203601N002012200019N0060001N1+02101+02001999999ADDGA1021+004509999GF102991999999999999999999MA1101691999999MW1001REMMET052VVDN 011330Z 36002MPS 6000 FEW015 21/20 Q1017 NOSIG;
0127488550999992000010113304+16030+108180FM-15+0007VVDN V02099999999992200019N0060001N1+02101+01901999999ADDGA1021+004509999GF102991999999999999999999MA1101691999999MW1001REMMET052VVDN 011430Z VRB02MPS 6000 FEW015 21/19 Q1017 NOSIG;
0127488550999992000010114304+16030+108180FM-15+0007VVDN V0202801N001012200019N0060001N1+02001+01901999999ADDGA1021+004509999GF102991999999999999999999MA1101591999999MW1001REMMET052VVDN 011530Z 28001MPS 6000 FEW015 20/19 Q1016 NOSIG;
0201488550999992000010115004+16030+108180FM-12+0007VVDN V0209999C00001105001CN0200001N1+02081+01901101621ADDAA106000091GA1031+017509069GF107991031051008001001081MA1999999101541MD1010091+0041REMSYN088AAXX  01151 48855 32598 70000 10208 20190 30154 40162 50009 83508 333 58004 83697 87299;EQDQ01  00002PRCP06
0127488550999992000010115304+16030+108180FM-15+0007VVDN V0202501N001012200019N0060001N1+01901+01901999999ADDGA1021+004509999GF102991999999999999999999MA1101591999999MW1001REMMET052VVDN 011630Z 25001MPS 6000 FEW015 19/19 Q1016 NOSIG;
0201488550999992000010118004+16030+108180FM-12+0007VVDN V0202901N00101105001CN0200001N1+01981+01821101541ADDAA106000091GA1031+017509069GF107991031051017501001081MA1999999101461MD1710081+0041REMSYN088AAXX  01181 48855 32798 72901 10198 20182 30146 40154 57008 83508 333 58004 83697 87299;EQDQ01  00002PRCP06
0078488550999992000010120004+16030+108180SAO  +0007VVDN V0209999C000019999999N9999999N1+99999+99999999999ADDMW1001REMAWY060VVDN 012030Z AUTO 00000MPS 4000 BR FEW015 20/18 Q1015 NOSIG;
0280488550999992000010121004+16030+108180SY-SA+0007VVDN V0202901N001012200019N0200001N1+02021+01761101441ADDAA106000091GA1021+017509069GF107991021051017501001081MA1999999101361MD1710101+0011MW1001REMSYN088AAXX  01211 48855 32798 72901 10202 20176 30136 40144 57010 82508 333 58001 82697 87299;AWY067VVDN 012130Z AUTO 00000MPS 5000 BR FEW015 BKN050 20/18 Q1015 NOSIG;EQDQ01  00002PRCP06
0172488550999992000010121304+16030+108180FM-15+0007VVDN V0209999C000010150019N0050001N1+02001+01901999999ADDGA1021+004509999GA2071+015009999GF107991999999999999999999MA1101491999999MW1101REMMET062VVDN 012230Z 00000MPS 5000 BR FEW015 BKN050 20/19 Q1015 NOSIG;EQDQ01    003PRSWM1
0172488550999992000010122304+16030+108180FM-15+0007VVDN V02099999999990150019N0050001N1+02001+01901999999ADDGA1021+004509999GA2071+015009999GF107991999999999999999999MA1101591999999MW1101REMMET062VVDN 012330Z VRB01MPS 5000 BR FEW015 BKN050 20/19 Q1016 NOSIG;EQDQ01    003PRSWM1
0244488550999992000010200004+16030+108180FM-12+0007VVDN V0209999C00001012001CN0100001N1+02021+01871101571ADDAA106000091GA1021+008009089GF108991081081008001999999IA2999+01809KA1120N+01981MA1999999101491MD1210131+0021REMSYN106AAXX  02001 48855 32560 80000 10202 20187 30149 40157 52013 888// 333 00020 20198 3/018 58002 82895 88697;EQDQ01  00002PRCP06
0169488550999992000010201304+16030+108180FM-15+0007VVDN V02099999999990120019N0070001N1+02201+01901999999ADDGA1021+003909999GA2071+012009999GF107991999999999999999999MA1101801999999MW1001REMMET059VVDN 020230Z VRB02MPS 7000 SCT013 BKN040 22/19 Q1018 NOSIG;EQDQ01+000000PRSWM2
0198488550999992000010202304+16030+108180FM-15+0007VVDN V02099999999990105019N0035001N1+02101+02001999999ADDGA1021+003909999GA2071+010509999GF107991999999999999999999MA1101801999999MW1101MW2611REMMET066VVDN 020330Z VRB01MPS 3500 -RA BR SCT013 BKN035 21/20 Q1018 NOSIG;EQDQ01+000003PRSWM1Q02    003PRSWM1
0199488550999992000010203004+16030+108180FM-12+0007VVDN V0203401N00101012001CN0100001N1+02191+01911101721ADDAY161031AY221031GA1041+008009089GF108991081081008001999999MA1999999101641MD1010051+0061MW1601REMSYN094AAXX  02031 48855 41560 83401 10219 20191 30164 40172 50005 76062 888// 333 58006 84895 88697;
0198488550999992000010203304+16030+108180FM-15+0007VVDN V02099999999990105019N0035001N1+02201+02101999999ADDGA1021+003909999GA2071+010509999GF107991999999999999999999MA1101691999999MW1101MW2611REMMET066VVDN 020430Z VRB02MPS 3500 -RA BR SCT013 BKN035 22/21 Q1017 NOSIG;EQDQ01+000003PRSWM1Q02    003PRSWM1
0177488550999992000010204304+16030+108180FM-15+0007VVDN V0203601N004010090019N0060001N1+02201+02101999999ADDGA1021+004509999GA2071+009009999GF107991999999999999999999MA1101591999999MW1001REMMET067VVDN 020530Z 36004MPS 320V030 6000 FEW015 BKN030 22/21 Q1016 NOSIG;EQDQ01+000000PRSWM2
0177488550999992000010205304+16030+108180FM-15+0007VVDN V0203501N003010090019N0060001N1+02201+02001999999ADDGA1021+004509999GA2071+009009999GF107991999999999999999999MA1101491999999MW1001REMMET067VVDN 020630Z 35003MPS 320V030 6000 FEW015 BKN030 22/20 Q1015 NOSIG;EQDQ01+000000PRSWM2
0216488550999992000010206004+16030+108180FM-12+0007VVDN V0203401N00301012001CN0100001N1+02231+01951101501ADDAA106000191AY161061AY221061GA1031+008009089GF108991081081008001999999MA1999999101421MD1710221+0091MW1211REMSYN100AAXX  02061 48855 11560 83403 10223 20195 30142 40150 57022 69911 72162 888// 333 58009 83895 88696;
0177488550999992000010206304+16030+108180FM-15+0007VVDN V0200201N004010105019N0060001N1+02201+02001999999ADDGA1021+004509999GA2071+010509999GF107991999999999999999999MA1101391999999MW1001REMMET067VVDN 020730Z 02004MPS 340V060 6000 FEW015 BKN035 22/20 Q1014 NOSIG;EQDQ01+000000PRSWM2
0177488550999992000010207304+16030+108180FM-15+0007VVDN V0200201N004010105019N0060001N1+02201+02001999999ADDGA1021+004509999GA2071+010509999GF107991999999999999999999MA1101391999999MW1001REMMET067VVDN 020830Z 02004MPS 350V050 6000 FEW015 BKN035 22/20 Q1014 NOSIG;EQDQ01+000000PRSWM2
0177488550999992000010208304+16030+108180FM-15+0007VVDN V0200301N003010105019N0060001N1+02101+02001999999ADDGA1021+004509999GA2071+010509999GF107991999999999999999999MA1101391999999MW1001REMMET067VVDN 020930Z 03003MPS 350V050 6000 FEW015 BKN035 21/20 Q1014 NOSIG;EQDQ01+000000PRSWM2
0182488550999992000010209004+16030+108180FM-12+0007VVDN V0203401N00201008001CN0100001N1+02221+01921101381ADDAA106000021GA1061+008009089GF108991081081008001999999MA1999999101301MD1610121+0031REMSYN088AAXX  02091 48855 32560 83402 10222 20192 30130 40138 56012 888// 333 58003 86895 88696;
0169488550999992000010209414+16030+108180FM-15+0007VVDN V02099999999990105019N0060001N1+02201+02001999999ADDGA1021+004509999GA2071+010509999GF107991999999999999999999MA1101491999999MW1001REMMET059VVDN 021041Z VRB02MPS 6000 FEW015 BKN035 22/20 Q1015 NOSIG;EQDQ01+000000PRSWM2
0169488550999992000010211304+16030+108180FM-15+0007VVDN V0203601N003010120019N0060001N1+02101+01901999999ADDGA1021+004509999GA2071+012009999GF107991999999999999999999MA1101591999999MW1001REMMET059VVDN 021230Z 36003MPS 6000 FEW015 BKN040 21/19 Q1016 NOSIG;EQDQ01+000000PRSWM2
0219488550999992000010212004+16030+108180FM-12+0007VVDN V0203401N00101012001CN0100001N1+02151+01901101571ADDAA112000191GA1031+008009089GF108991081081008001999999KA1120M+02271MA1999999101491MD1210191+0041REMSYN112AAXX  02121 48855 12597 83401 10215 20190 30149 40157 52019 69912 888// 333 00021 10227 58004 70001 83895 88696;
0169488550999992000010212304+16030+108180FM-15+0007VVDN V0209999C000010120019N0070001N1+02101+01901999999ADDGA1021+004509999GA2071+012009999GF107991999999999999999999MA1101591999999MW1001REMMET059VVDN 021330Z 00000MPS 7000 FEW015 BKN040 21/19 Q1016 NOSIG;EQDQ01+000000PRSWM2
0293488550999992000010215004+16030+108180SY-SA+0007VVDN V0209999C000012200019N0100001N1+02131+01941101601ADDAA106000091GA1021+008009089GF108991081081008001999999MA1999999101521MD1110031-0021MW1001REMSYN088AAXX  02151 48855 32597 80000 10213 20194 30152 40160 51003 888// 333 59002 82895 88696;AWY064VVDN 021530Z AUTO 00000MPS 7000 FEW015 BKN040 21/19 Q1016 NOSIG;EQDQ01+000990PRSWM4Q02  00002PRCP06
0082488550999992000010216004+16030+108180SAO  +0007VVDN V0209999C000012200019N9999999N1+99999+99999999999ADDMW1001REMAWY064VVDN 021630Z AUTO 35002MPS 7000 FEW015 BKN040 21/20 Q1016 NOSIG;
0082488550999992000010217004+16030+108180SAO  +0007VVDN V0209999C000012200019N9999999N1+99999+99999999999ADDMW1001REMAWY064VVDN 021730Z AUTO 34001MPS 7000 FEW015 BKN040 20/20 Q1016 NOSIG;
0293488550999992000010218004+16030+108180SY-SA+0007VVDN V0209999C000012200019N0100001N1+02091+01921101501ADDAA106000091GA1061+008009089GF108991081081008001999999MA1999999101421MD1710101-0041MW1001REMSYN088AAXX  02181 48855 32597 80000 10209 20192 30142 40150 57010 888// 333 59004 86895 88696;AWY064VVDN 021830Z AUTO 25001MPS 7000 FEW015 BKN040 20/19 Q1015 NOSIG;EQDQ01+000990PRSWM4Q02  00002PRCP06
0286488550999992000010221004+16030+108180SY-SA+0007VVDN V0202901N001019999999N0100001N1+02041+01871101361ADDAA106000091GA1021+017509069GF107991021051017501001081MA1999999101281MD1710141-0081MW1001REMSYN088AAXX  02211 48855 32797 72901 10204 20187 30128 40136 57014 82508 333 59008 82697 87299;AWY057VVDN 022130Z AUTO 22001MPS 7000 FEW015 19/19 Q1014 NOSIG;EQDQ01+000990PRSWM4Q02  00002PRCP06
0169488550999992000010221304+16030+108180FM-15+0007VVDN V02099999999990150019N0070001N1+01901+01901999999ADDGA1021+004509999GA2071+015009999GF107991999999999999999999MA1101391999999MW1001REMMET059VVDN 022230Z VRB01MPS 7000 FEW015 BKN050 19/19 Q1014 NOSIG;EQDQ01+000000PRSWM2
0169488550999992000010222304+16030+108180FM-15+0007VVDN V0200201N001010150019N0070001N1+02001+01901999999ADDGA1021+004509999GA2071+015009999GF107991999999999999999999MA1101491999999MW1001REMMET059VVDN 022330Z 02001MPS 7000 FEW015 BKN050 20/19 Q1015 NOSIG;EQDQ01+000000PRSWM2
0169488550999992000010223304+16030+108180FM-15+0007VVDN V0209999C000010105019N0060001N1+02001+02001999999ADDGA1021+004509999GA2071+010509999GF107991999999999999999999MA1101491999999MW1001REMMET059VVDN 030030Z 00000MPS 6000 FEW015 BKN035 20/20 Q1015 NOSIG;EQDQ01+000000PRSWM2
0244488550999992000010300004+16030+108180FM-12+0007VVDN V0209999C00001012001CN0100001N1+02001+01921101481ADDAA106000091GA1031+008009089GF107991071081008001999999IA2999+01809KA1120N+01961MA1999999101401MD1210121-0091REMSYN106AAXX  03001 48855 32560 70000 10200 20192 30140 40148 52012 878// 333 00020 20196 3/018 59009 83895 87696;EQDQ01  00002PRCP06
0169488550999992000010300304+16030+108180FM-15+0007VVDN V02099999999990150019N0070001N1+02101+01901999999ADDGA1021+004509999GA2071+015009999GF107991999999999999999999MA1101591999999MW1001REMMET059VVDN 030130Z VRB01MPS 7000 FEW015 BKN050 21/19 Q1016 NOSIG;EQDQ01+000000PRSWM2
0169488550999992000010301304+16030+108180FM-15+0007VVDN V02099999999990150019N0080001N1+02201+01901999999ADDGA1021+004509999GA2071+015009999GF107991999999999999999999MA1101591999999MW1001REMMET059VVDN 030230Z VRB01MPS 8000 FEW015 BKN050 22/19 Q1016 NOSIG;EQDQ01+000000PRSWM2
0169488550999992000010302304+16030+108180FM-15+0007VVDN V02099999999990150019N0080001N1+02301+01901999999ADDGA1021+004509999GA2071+015009999GF107991999999999999999999MA1101591999999MW1001REMMET059VVDN 030330Z VRB01MPS 8000 FEW015 BKN050 23/19 Q1016 NOSIG;EQDQ01+000000PRSWM2
0201488550999992000010303004+16030+108180FM-12+0007VVDN V0202901N00101012001CN0100001N1+02351+01841101571ADDAA106000091GA1021+008009089GF107991071081008001999999MA1999999101491MD1010091-0151REMSYN088AAXX  03031 48855 32560 72901 10235 20184 30149 40157 50009 878// 333 59015 82895 87696;EQDQ01  00002PRCP06
0169488550999992000010303304+16030+108180FM-15+0007VVDN V02099999999990180019N0080001N1+02401+01901999999ADDGA1021+004509999GA2071+018009999GF107991999999999999999999MA1101591999999MW1001REMMET059VVDN 030430Z VRB02MPS 8000 FEW015 BKN060 24/19 Q1016 NOSIG;EQDQ01+000000PRSWM2
0169488550999992000010304304+16030+108180FM-15+0007VVDN V02099999999990150019N0080001N1+02501+01801999999ADDGA1021+004509999GA2071+015009999GF107991999999999999999999MA1101491999999MW1001REMMET059VVDN 030530Z VRB02MPS 8000 FEW015 BKN050 25/18 Q1015 NOSIG;EQDQ01+000000PRSWM2
0201488550999992000010306004+16030+108180FM-12+0007VVDN V0203401N00301012001CN0100001N1+02431+01841101381ADDAA106000091GA1031+008009089GF107991071081008001999999MA1999999101301MD1710191-0121REMSYN088AAXX  03061 48855 32560 73403 10243 20184 30130 40138 57019 878// 333 59012 83895 87696;EQDQ01  00002PRCP06
0177488550999992000010306304+16030+108180FM-15+0007VVDN V0203601N003010150019N0080001N1+02301+01901999999ADDGA1021+004509999GA2071+015009999GF107991999999999999999999MA1101291999999MW1001REMMET067VVDN 030730Z 36003MPS 320V030 8000 FEW015 BKN050 23/19 Q1013 NOSIG;EQDQ01+000000PRSWM2
0169488550999992000010307304+16030+108180FM-15+0007VVDN V02099999999990150019N0080001N1+02301+02001999999ADDGA1021+004509999GA2071+015009999GF107991999999999999999999MA1101291999999MW1001REMMET059VVDN 030830Z VRB02MPS 8000 FEW015 BKN050 23/20 Q1013 NOSIG;EQDQ01+000000PRSWM2
0169488550999992000010308304+16030+108180FM-15+0007VVDN V02099999999990150019N0070001N1+02301+02001999999ADDGA1021+004509999GA2071+015009999GF107991999999999999999999MA1101291999999MW1001REMMET059VVDN 030930Z VRB02MPS 7000 FEW015 BKN050 23/20 Q1013 NOSIG;EQDQ01+000000PRSWM2
0201488550999992000010309004+16030+108180FM-12+0007VVDN V0203401N00101012001CN0100001N1+02341+01881101271ADDAA106000091GA1031+008009089GF108991081081008001999999MA1999999101191MD1510111-0111REMSYN088AAXX  03091 48855 32560 83401 10234 20188 30119 40127 55011 888// 333 59011 83895 88697;EQDQ01  00002PRCP06
0184488550999992000010309304+16030+108180FM-15+0007VVDN V0203501N002010150019N0070001N1+02101+02001999999ADDGA1021+004509999GA2071+015009999GF107991999999999999999999MA1101291999999MW1001REMMET074VVDN 031030Z 35002MPS 7000 FEW015 BKN050 21/20 Q1013 BECMG FM1100 5000 BR;EQDQ01+000000PRSWM2
0188488550999992000010310304+16030+108180FM-15+0007VVDN V02099999999990150019N0040001N1+02101+02001999999ADDGA1021+004509999GA2071+015009999GF107991999999999999999999MA1101391999999MW1101REMMET062VVDN 031130Z VRB01MPS 4000 BR FEW015 BKN050 21/20 Q1014 NOSIG;EQDQ01+000003PRSWM1Q02    003PRSWM1
0188488550999992000010311304+16030+108180FM-15+0007VVDN V0203301N001010150019N0040001N1+02101+02001999999ADDGA1021+004509999GA2071+015009999GF107991999999999999999999MA1101391999999MW1101REMMET062VVDN 031230Z 33001MPS 4000 BR FEW015 BKN050 21/20 Q1014 NOSIG;EQDQ01+000003PRSWM1Q02    003PRSWM1
0226488550999992000010312004+16030+108180FM-12+0007VVDN V0202701N001010175019N0100001N1+02151+01951101361ADDAA106000091GA1071+017509059GF107991071051017501999999KA1120M+02501MA1999999101281MD1210091-0211REMSYN100AAXX  03121 48855 32797 72701 10215 20195 30128 40136 52009 875// 333 00022 10250 59021 70000 87697;EQDQ01  00002PRCP06
0188488550999992000010312304+16030+108180FM-15+0007VVDN V0203301N001012200019N0035001N1+02101+02001999999ADDGA1021+004509999GA2021+015009999GF104991999999999999999999MA1101491999999MW1101REMMET062VVDN 031330Z 33001MPS 3500 BR FEW015 SCT050 21/20 Q1015 NOSIG;EQDQ01+000003PRSWM1Q02    003PRSWM1
0188488550999992000010313304+16030+108180FM-15+0007VVDN V0209999C000012200019N0027001N1+02001+02001999999ADDGA1021+004509999GA2021+010509999GF104991999999999999999999MA1101491999999MW1101REMMET062VVDN 031430Z 00000MPS 2700 BR FEW015 SCT035 20/20 Q1015 NOSIG;EQDQ01+000003PRSWM1Q02    003PRSWM1
0296488550999992000010315004+16030+108180SY-SA+0007VVDN V0202901N001012200019N0100001N1+02091+01971101441ADDAA106000091GA1031+008009089GF106991061081008001999999MA1999999101361MD1110081-0161MW1001REMSYN088AAXX  03151 48855 32597 62901 10209 20197 30136 40144 51008 868// 333 59016 83895 86696;AWY067VVDN 031530Z AUTO 00000MPS 3500 BR FEW015 BKN035 21/20 Q1015 NOSIG;EQDQ01+000990PRSWM4Q02  00002PRCP06
0085488550999992000010317004+16030+108180SAO  +0007VVDN V0209999C000012200019N9999999N1+99999+99999999999ADDMW1001REMAWY067VVDN 031730Z AUTO 00000MPS 3500 BR FEW015 BKN035 21/20 Q1014 NOSIG;
0296488550999992000010318004+16030+108180SY-SA+0007VVDN V0209999C000012200019N0100001N1+02051+01951101331ADDAA106000091GA1011+008009089GF107991021081008001001081MA1999999101251MD1810111-0171MW1001REMSYN088AAXX  03181 48855 32597 70000 10205 20195 30125 40133 58011 82808 333 59017 81895 87299;AWY067VVDN 031830Z AUTO 08001MPS 2900 BR FEW015 BKN035 20/20 Q1014 NOSIG;EQDQ01+000990PRSWM4Q02  00002PRCP06
0085488550999992000010319004+16030+108180SAO  +0007VVDN V0209999C000012200019N9999999N1+99999+99999999999ADDMW1001REMAWY067VVDN 031930Z AUTO 00000MPS 2200 BR FEW015 BKN035 20/20 Q1013 NOSIG;
0085488550999992000010320004+16030+108180SAO  +0007VVDN V0209999C000012200019N9999999N1+99999+99999999999ADDMW1001REMAWY067VVDN 032030Z AUTO 00000MPS 3000 BR FEW015 BKN035 20/20 Q1013 NOSIG;
0188488550999992000010320304+16030+108180FM-15+0007VVDN V02099999999990105019N0018001N1+02001+02001999999ADDGA1021+004509999GA2071+010509999GF107991999999999999999999MA1101191999999MW1101REMMET062VVDN 032130Z VRB01MPS 1800 BR FEW015 BKN035 20/20 Q1012 NOSIG;EQDQ01+000003PRSWM1Q02    003PRSWM1
0201488550999992000010321004+16030+108180FM-12+0007VVDN V0209999C00001012001CN0100001N1+02001+01951101201ADDAA106000091GA1021+008009089GF107991071081008001999999MA1999999101121MD1710131-0161REMSYN088AAXX  03211 48855 32597 70000 10200 20195 30112 40120 57013 878// 333 59016 82895 87697;EQDQ01  00002PRCP06
0085488550999992000010322004+16030+108180SAO  +0007VVDN V0209999C000012200019N9999999N1+99999+99999999999ADDMW1001REMAWY067VVDN 032230Z AUTO 00000MPS 1700 BR FEW015 BKN035 20/20 Q1012 NOSIG;
0188488550999992000010322304+16030+108180FM-15+0007VVDN V0209999C000010120019N0030001N1+02001+02001999999ADDGA1021+004509999GA2071+012009999GF107991999999999999999999MA1101291999999MW1101REMMET062VVDN 032330Z 00000MPS 3000 BR FEW015 BKN040 20/20 Q1013 NOSIG;EQDQ01+000003PRSWM1Q02    003PRSWM1
0203488550999992000010323304+16030+108180FM-15+0007VVDN V0209999C000012200019N0025001N1+02001+02001999999ADDGA1021+004509999GA2021+012009999GF104991999999999999999999MA1101391999999MW1101REMMET077VVDN 040030Z 00000MPS 2500 BR FEW015 SCT040 20/20 Q1014 BECMG TL0100 3000 BR;EQDQ01+000003PRSWM1Q02    003PRSWM1
0244488550999992000010400004+16030+108180FM-12+0007VVDN V0209999C00001012001CN0100001N1+02021+01961101321ADDAA106000091GA1021+008009089GF107991071081008001999999IA2999+01809KA1120N+02001MA1999999101241MD1310121-0161REMSYN106AAXX  04001 48855 32560 70000 10202 20196 30124 40132 53012 878// 333 00020 20200 3/018 59016 82895 87697;EQDQ01  00002PRCP06
0165488550999992000010400304+16030+108180FM-15+0007VVDN V0209999C000012200019N0035001N1+02301+02001999999ADDGA1021+004509999GF102991999999999999999999MA1101491999999MW1101REMMET055VVDN 040130Z 00000MPS 3500 BR FEW015 23/20 Q1015 NOSIG;EQDQ01+000003PRSWM1Q02    003PRSWM1
0146488550999992000010401304+16030+108180FM-15+0007VVDN V02099999999992200019N0070001N1+02501+02001999999ADDGA1021+004509999GF102991999999999999999999MA1101491999999MW1001REMMET052VVDN 040230Z VRB02MPS 7000 FEW015 25/20 Q1015 NOSIG;EQDQ01+000000PRSWM2
0146488550999992000010402304+16030+108180FM-15+0007VVDN V02099999999992200019N0112651N1+02601+01801999999ADDGA1021+004509999GF102991999999999999999999MA1101491999999MW1001REMMET052VVDN 040330Z VRB02MPS 9999 FEW015 26/18 Q1015 NOSIG;EQDQ01+000000PRSWM2
0201488550999992000010403004+16030+108180FM-12+0007VVDN V0201601N00101105001CN0100001N1+02571+01941101441ADDAA106000091GA1031+008009089GF107991031021008001001081MA1999999101361MD1010121-0131REMSYN088AAXX  04031 48855 32560 71601 10257 20194 30136 40144 50012 83208 333 59013 83895 87299;EQDQ01  00002PRCP06
0154488550999992000010403304+16030+108180FM-15+0007VVDN V0201301N003012200019N0112651N1+02601+01901999999ADDGA1021+004509999GF102991999999999999999999MA1101391999999MW1001REMMET060VVDN 040430Z 13003MPS 100V170 9999 FEW015 26/19 Q1014 NOSIG;EQDQ01+000000PRSWM2
0177488550999992000010404304+16030+108180FM-15+0007VVDN V0201201N003012200019N0112651N1+02601+01801999999ADDGA1021+004509999GA2021+015009999GF104991999999999999999999MA1101291999999MW1001REMMET067VVDN 040530Z 12003MPS 070V150 9999 FEW015 SCT050 26/18 Q1013 NOSIG;EQDQ01+000000PRSWM2
0169488550999992000010405304+16030+108180FM-15+0007VVDN V0201401N004012200019N0112651N1+02601+01901999999ADDGA1021+004509999GA2021+015009999GF104991999999999999999999MA1101191999999MW1001REMMET059VVDN 040630Z 14004MPS 9999 FEW015 SCT050 26/19 Q1012 NOSIG;EQDQ01+000000PRSWM2
0201488550999992000010406004+16030+108180FM-12+0007VVDN V0200901N00301017501CN0100001N1+02591+01891101211ADDAA106000091GA1061+017509069GF107991061051017501001081MA1999999101131MD1810231-0171REMSYN088AAXX  04061 48855 32760 70903 10259 20189 30113 40121 58023 86508 333 59017 86697 87299;EQDQ01  00002PRCP06
0154488550999992000010406304+16030+108180FM-15+0007VVDN V0201001N003012200019N0112651N1+02501+02001999999ADDGA1021+004509999GF102991999999999999999999MA1101081999999MW1001REMMET060VVDN 040730Z 10003MPS 050V150 9999 FEW015 25/20 Q1011 NOSIG;EQDQ01+000000PRSWM2
0154488550999992000010407304+16030+108180FM-15+0007VVDN V0201101N004012200019N0112651N1+02501+02001999999ADDGA1021+004509999GF102991999999999999999999MA1101081999999MW1001REMMET060VVDN 040830Z 11004MPS 070V170 9999 FEW015 25/20 Q1011 NOSIG;EQDQ01+000000PRSWM2
0153488550999992000010408304+16030+108180FM-15+0007VVDN V0201101N004012200019N0112651N1+02401+02001999999ADDGA1021+004509999GF102991999999999999999999MA1101081999999MW1001REMMET059VVDN 040930 11004MPS 080V140 9999 FEW015 24/20 Q1011 NOSIG;EQDQ01+000000PRSWM2
0201488550999992000010409004+16030+108180FM-12+0007VVDN V0200701N00301105001CN0100001N1+02501+02081101091ADDAA106000091GA1021+017509069GF106991021051017501001081MA1999999101011MD1610121-0181REMSYN088AAXX  04091 48855 32760 60703 10250 20208 30101 40109 56012 82508 333 59018 82697 86299;EQDQ01  00002PRCP06
0146488550999992000010409304+16030+108180FM-15+0007VVDN V02099999999992200019N0070001N1+02301+02101999999ADDGA1021+004509999GF102991999999999999999999MA1101191999999MW1001REMMET052VVDN 041030Z VRB02MPS 7000 FEW015 23/21 Q1012 NOSIG;EQDQ01+000000PRSWM2
0146488550999992000010410304+16030+108180FM-15+0007VVDN V0209999C000012200019N0060001N1+02301+02101999999ADDGA1021+004509999GF102991999999999999999999MA1101291999999MW1001REMMET052VVDN 041130Z 00000MPS 6000 FEW015 23/21 Q1013 NOSIG;EQDQ01+000000PRSWM2
0146488550999992000010411304+16030+108180FM-15+0007VVDN V0209999C000012200019N0060001N1+02201+02101999999ADDGA1021+004509999GF102991999999999999999999MA1101291999999MW1001REMMET052VVDN 041230Z 00000MPS 6000 FEW015 22/21 Q1013 NOSIG;EQDQ01+000000PRSWM2
0232488550999992000010412004+16030+108180FM-12+0007VVDN V0209999C00001017501CN0200001N1+02251+02101101261ADDAA106000091GA1051+017509069GF107991051051017501001081KA1120M+02691MA1999999101181MD1210171-0101REMSYN106AAXX  04121 48855 32798 70000 10225 20210 30118 40126 52017 85508 333 00022 10269 59010 70000 85697 87299;EQDQ01  00002PRCP06
0146488550999992000010412304+16030+108180FM-15+0007VVDN V02099999999992200019N0060001N1+02301+02101999999ADDGA1021+004509999GF102991999999999999999999MA1101391999999MW1001REMMET052VVDN 041330Z VRB01MPS 6000 FEW015 23/21 Q1014 NOSIG;EQDQ01+000000PRSWM2
0169488550999992000010413304+16030+108180FM-15+0007VVDN V0202601N001010150019N0060001N1+02201+02101999999ADDGA1021+004509999GA2071+015009999GF107991999999999999999999MA1101391999999MW1001REMMET059VVDN 041430Z 26001MPS 6000 FEW015 BKN050 22/21 Q1014 NOSIG;EQDQ01+000000PRSWM2
0169488550999992000010414304+16030+108180FM-15+0007VVDN V0202301N001010150019N0060001N1+02201+02101999999ADDGA1021+004509999GA2071+015009999GF107991999999999999999999MA1101391999999MW1001REMMET059VVDN 041530Z 23001MPS 6000 FEW015 BKN050 22/21 Q1014 NOSIG;EQDQ01+000000PRSWM2
0195488550999992000010415004+16030+108180FM-12+0007VVDN V0209999C000010175019N0100001N1+02261+02121101331ADDAA106000091GA1071+017509059GF107991071051017501999999MA1999999101251MD1010071-0111REMSYN082AAXX  04151 48855 32797 70000 10226 20212 30125 40133 50007 875// 333 59011 87697;EQDQ01  00002PRCP06
0085488550999992000010417004+16030+108180SAO  +0007VVDN V0209999C000012200019N9999999N1+99999+99999999999ADDMW1001REMAWY067VVDN 041730Z AUTO 00000MPS 5000 BR FEW015 BKN050 22/21 Q1013 NOSIG;
0296488550999992000010418004+16030+108180SY-SA+0007VVDN V0209999C000012200019N0100001N1+02231+02141101291ADDAA106000091GA1051+008009089GF107991071081008001999999MA1999999101211MD1710041-0041MW1001REMSYN088AAXX  04181 48855 32597 70000 10223 20214 30121 40129 57004 878// 333 59004 85895 87697;AWY067VVDN 041830Z AUTO 00000MPS 5000 BR FEW015 BKN050 22/21 Q1013 NOSIG;EQDQ01+000990PRSWM4Q02  00002PRCP06
0085488550999992000010419004+16030+108180SAO  +0007VVDN V0209999C000012200019N9999999N1+99999+99999999999ADDMW1001REMAWY067VVDN 041930Z AUTO 00000MPS 5000 BR FEW015 BKN040 22/21 Q1012 NOSIG;
0085488550999992000010420004+16030+108180SAO  +0007VVDN V0209999C000012200019N9999999N1+99999+99999999999ADDMW1001REMAWY067VVDN 042030Z AUTO 00000MPS 5000 BR FEW015 BKN040 22/21 Q1012 NOSIG;
0201488550999992000010421004+16030+108180FM-12+0007VVDN V0202001N00101012001CN0100001N1+02211+02121101181ADDAA106000091GA1021+008009089GF107991071081008001999999MA1999999101101MD1610111-0021REMSYN088AAXX  04211 48855 32597 72001 10221 20212 30110 40118 56011 878// 333 59002 82895 87697;EQDQ01  00002PRCP06
0203488550999992000010421304+16030+108180FM-15+0007VVDN V0202201N001010120019N0050001N1+02001+02001999999ADDGA1021+004509999GA2071+012009999GF107991999999999999999999MA1101191999999MW1101REMMET077VVDN 042230Z 22001MPS 5000 BR FEW015 BKN040 20/20 Q1012 BECMG FM2300 3000 BR;EQDQ01+000003PRSWM1Q02    003PRSWM1
0188488550999992000010422304+16030+108180FM-15+0007VVDN V0209999C000012200019N0035001N1+02001+02001999999ADDGA1021+004509999GA2021+012009999GF104991999999999999999999MA1101291999999MW1101REMMET062VVDN 042330Z 00000MPS 3500 BR FEW015 SCT040 20/20 Q1013 NOSIG;EQDQ01+000003PRSWM1Q02    003PRSWM1
0165488550999992000010423304+16030+108180FM-15+0007VVDN V02099999999992200019N0040001N1+02201+02201999999ADDGA1021+004509999GF102991999999999999999999MA1101391999999MW1101REMMET055VVDN 050030Z VRB01MPS 4000 BR FEW015 22/22 Q1014 NOSIG;EQDQ01+000003PRSWM1Q02    003PRSWM1
0272488550999992000010500004+16030+108180FM-12+0007VVDN V0209999C00001105001CN0040001N1+02091+02011101321ADDAA106000091AY121061AY221061GA1021+017509069GF106991021051017501001081IA2999+01909KA1120N+02081MA1999999101241MD1310141+0001MW1101REMSYN112AAXX  05001 48855 31796 60000 10209 20201 30124 40132 53014 71022 82508 333 00020 20208 3/019 58000 82697 86299;EQDQ01  00002PRCP06
0146488550999992000010500304+16030+108180FM-15+0007VVDN V02099999999992200019N0070001N1+02401+02101999999ADDGA1021+004509999GF102991999999999999999999MA1101391999999MW1001REMMET052VVDN 050130Z VRB02MPS 7000 FEW015 24/21 Q1014 NOSIG;EQDQ01+000000PRSWM2
0146488550999992000010501304+16030+108180FM-15+0007VVDN V02099999999992200019N0060001N1+02501+02101999999ADDGA1021+004509999GF102991999999999999999999MA1101391999999MW1001REMMET052VVDN 050230Z VRB02MPS 6000 FEW015 25/21 Q1014 NOSIG;EQDQ01+000000PRSWM2
0162488550999992000010502304+16030+108180FM-15+0007VVDN V02099999999992200019N0100001N1+02601+02001999999ADDGA1021+004509999GF102991999999999999999999MA1101391999999MW1001REMMET052VVDN 050330Z VRB02MPS 7000 FEW015 26/20 Q1014 NOSIG;EQDQ01+070002VODIS Q02+000000PRSWM2
0201488550999992000010503004+16030+108180FM-12+0007VVDN V0201801N00101105001CN0100001N1+02661+02081101371ADDAA106000091GA1021+008009089GF106991011021008001001081MA1999999101291MD1010051-0071REMSYN088AAXX  05031 48855 32560 61801 10266 20208 30129 40137 50005 81208 333 59007 82895 86299;EQDQ01  00002PRCP06
0146488550999992000010503304+16030+108180FM-15+0007VVDN V02099999999992200019N0112651N1+02801+02001999999ADDGA1021+004509999GF102991999999999999999999MA1101291999999MW1001REMMET052VVDN 050430Z VRB02MPS 9999 FEW015 28/20 Q1013 NOSIG;EQDQ01+000000PRSWM2
0154488550999992000010504304+16030+108180FM-15+0007VVDN V0201101N004012200019N0112651N1+02701+02001999999ADDGA1021+004509999GF102991999999999999999999MA1101191999999MW1001REMMET060VVDN 050530Z 11004MPS 070V160 9999 FEW015 27/20 Q1012 NOSIG;EQDQ01+000000PRSWM2
0154488550999992000010505304+16030+108180FM-15+0007VVDN V0201101N004012200019N0112651N1+02701+01901999999ADDGA1021+004509999GF102991999999999999999999MA1101081999999MW1001REMMET060VVDN 050630Z 11004MPS 080V150 9999 FEW015 27/19 Q1011 NOSIG;EQDQ01+000000PRSWM2
0201488550999992000010506004+16030+108180FM-12+0007VVDN V0201101N00201105001CN0100001N1+02721+02061101071ADDAA106000091GA1011+008009089GF106991011021008001001081MA1999999100991MD1710301-0141REMSYN088AAXX  05061 48855 32560 61102 10272 20206 30099 40107 57030 81208 333 59014 81895 86299;EQDQ01  00002PRCP06
0154488550999992000010506304+16030+108180FM-15+0007VVDN V0201201N004012200019N0112651N1+02601+01901999999ADDGA1021+004509999GF102991999999999999999999MA1101021999999MW1001REMMET060VVDN 050730Z 12004MPS 060V150 9999 FEW015 26/19 Q1010 NOSIG;EQDQ01+000000PRSWM2
0146488550999992000010508304+16030+108180FM-15+0007VVDN V0201001N003012200019N0112651N1+02501+02201999999ADDGA1021+004509999GF102991999999999999999999MA1101021999999MW1001REMMET052VVDN 050930Z 10003MPS 9999 FEW015 25/22 Q1010 NOSIG;EQDQ01+000000PRSWM2
0195488550999992000010509004+16030+108180FM-12+0007VVDN V0200901N002019999999N0100001N1+02541+02171100971ADDAA106000091GA1061+999999089GF106991001001999999001081MA1999999100891MD1610101-0121REMSYN082AAXX  05091 48855 32960 60902 10254 20217 30089 40097 56010 80008 333 59012 86299;EQDQ01  00002PRCP06
0146488550999992000010509304+16030+108180FM-15+0007VVDN V02099999999992200019N0070001N1+02401+02201999999ADDGA1021+004509999GF102991999999999999999999MA1101081999999MW1001REMMET052VVDN 051030Z VRB01MPS 7000 FEW015 24/22 Q1011 NOSIG;EQDQ01+000000PRSWM2
0188488550999992000010511304+16030+108180FM-15+0007VVDN V0209999C000012200019N0050001N1+02301+02301999999ADDGA1021+003009999GA2021+012009999GF104991999999999999999999MA1101191999999MW1101REMMET062VVDN 051230Z 00000MPS 5000 BR FEW010 SCT040 23/23 Q1012 NOSIG;EQDQ01+000003PRSWM1Q02    003PRSWM1
0226488550999992000010512004+16030+108180FM-12+0007VVDN V0209999C000019999999N0100001N1+02361+02211101131ADDAA106000091GA1071+999999089GF107991001001999999001081KA1120M+02841MA1999999101051MD1210161-0131REMSYN100AAXX  05121 48855 32997 70000 10236 20221 30105 40113 52016 80008 333 00025 10284 59013 70000 87299;EQDQ01  00002PRCP06
0211488550999992000010512304+16030+108180FM-15+0007VVDN V0209999C000010090019N0050001N1+02301+02301999999ADDGA1021+002109999GA2021+003909999GA3071+009009999GF107991999999999999999999MA1101191999999MW1101REMMET069VVDN 051330Z 00000MPS 5000 BR FEW007 SCT013 BKN030 23/23 Q1012 NOSIG;EQDQ01+000003PRSWM1Q02    003PRSWM1
0211488550999992000010513304+16030+108180FM-15+0007VVDN V02099999999990090019N0050001N1+02301+02301999999ADDGA1021+002109999GA2021+003909999GA3071+009009999GF107991999999999999999999MA1101291999999MW1101REMMET069VVDN 051430Z VRB01MPS 5000 BR FEW007 SCT013 BKN030 23/23 Q1013 NOSIG;EQDQ01+000003PRSWM1Q02    003PRSWM1
0303488550999992000010515004+16030+108180SY-SA+0007VVDN V0201401N001012200019N0100001N1+02391+02251101221ADDAA106000091GA1051+017509069GF107991051051017501001081MA1999999101141MD1110091-0111MW1001REMSYN088AAXX  05151 48855 32797 71401 10239 20225 30114 40122 51009 85508 333 59011 85697 87299;AWY074VVDN 051530Z AUTO 21001MPS 5000 BR FEW007 SCT013 BKN030 23/23 Q1012 NOSIG;EQDQ01+000990PRSWM4Q02  00002PRCP06
0092488550999992000010517004+16030+108180SAO  +0007VVDN V0209999C000012200019N9999999N1+99999+99999999999ADDMW1001REMAWY074VVDN 051730Z AUTO 23001MPS 5000 BR FEW007 SCT013 BKN030 23/23 Q1012 NOSIG;
0296488550999992000010518004+16030+108180SY-SA+0007VVDN V0209999C000012200019N0100001N1+02361+02241101111ADDAA106000091GA1051+017509069GF107991051051017501001081MA1999999101031MD1710111-0181MW1001REMSYN088AAXX  05181 48855 32797 70000 10236 20224 30103 40111 57011 85508 333 59018 85697 87299;AWY067VVDN 051830Z AUTO 20002MPS 2500 BR SCT010 BKN040 22/22 Q1011 NOSIG;EQDQ01+000990PRSWM4Q02  00002PRCP06
0085488550999992000010519004+16030+108180SAO  +0007VVDN V0209999C000012200019N9999999N1+99999+99999999999ADDMW1001REMAWY067VVDN 051930Z AUTO 22001MPS 2400 BR SCT010 BKN040 22/22 Q1011 NOSIG;
0085488550999992000010520004+16030+108180SAO  +0007VVDN V0209999C000012200019N9999999N1+99999+99999999999ADDMW1001REMAWY067VVDN 052030Z AUTO 22002MPS 1900 BR SCT010 BKN040 21/21 Q1010 NOSIG;
0165488550999992000010520304+16030+108180FM-15+0007VVDN V0202001N002012200019N0040001N1+02101+02101999999ADDGA1021+003909999GF102991999999999999999999MA1101081999999MW1101REMMET055VVDN 052130Z 20002MPS 4000 BR FEW013 21/21 Q1011 NOSIG;EQDQ01+000003PRSWM1Q02    003PRSWM1
0201488550999992000010521004+16030+108180FM-12+0007VVDN V0201401N00101017501CN0100001N1+02181+02141100981ADDAA106000091GA1051+017509069GF107991051051017501001081MA1999999100901MD1610131-0201REMSYN088AAXX  05211 48855 32797 71401 10218 20214 30090 40098 56013 85508 333 59020 85697 87299;EQDQ01  00002PRCP06
0188488550999992000010523304+16030+108180FM-15+0007VVDN V0202401N002010120019N0050001N1+02101+02001999999ADDGA1021+003909999GA2071+012009999GF107991999999999999999999MA1101291999999MW1101REMMET062VVDN 060030Z 24002MPS 5000 BR FEW013 BKN040 21/20 Q1013 NOSIG;EQDQ01+000003PRSWM1Q02    003PRSWM1
0169488550999992000010600304+16030+108180FM-15+0007VVDN V02099999999992200019N0060001N1+02301+02201999999ADDGA1021+004509999GA2021+009009999GF104991999999999999999999MA1101291999999MW1001REMMET059VVDN 060130Z VRB01MPS 6000 FEW015 SCT030 23/22 Q1013 NOSIG;EQDQ01+000000PRSWM2
0146488550999992000010601304+16030+108180FM-15+0007VVDN V02099999999992200019N0112651N1+02501+02101999999ADDGA1021+004509999GF102991999999999999999999MA1101291999999MW1001REMMET052VVDN 060230Z VRB02MPS 9999 FEW015 25/21 Q1013 NOSIG;EQDQ01+000000PRSWM2
0146488550999992000010602304+16030+108180FM-15+0007VVDN V02099999999992200019N0112651N1+02701+02201999999ADDGA1021+004509999GF102991999999999999999999MA1101291999999MW1001REMMET052VVDN 060330Z VRB02MPS 9999 FEW015 27/22 Q1013 NOSIG;EQDQ01+000000PRSWM2
0201488550999992000010603004+16030+108180FM-12+0007VVDN V0201601N00101105001CN0200001N1+02681+02171101281ADDAA106000091GA1021+008009089GF106991011021008001001081MA1999999101201MD1010121-0091REMSYN088AAXX  06031 48855 32570 61601 10268 20217 30120 40128 50012 81208 333 59009 82895 86299;EQDQ01  00002PRCP06
0146488550999992000010603304+16030+108180FM-15+0007VVDN V02099999999992200019N0112651N1+02701+02101999999ADDGA1021+004509999GF102991999999999999999999MA1101191999999MW1001REMMET052VVDN 060430Z VRB02MPS 9999 FEW015 27/21 Q1012 NOSIG;EQDQ01+000000PRSWM2
0096488550999992000010605004+16030+108180FM-15+0007VVDN V02099999999992200019N0112651N1+99999+99999999999ADDMW1001REMMET059VVDN 06053Z 10003MPS 040V150 9999 FEW015 27/22 Q1011 NOSIG;EQDQ01+000000PRSWM2
0154488550999992000010605304+16030+108180FM-15+0007VVDN V0201101N004012200019N0112651N1+02601+02201999999ADDGA1021+004509999GF102991999999999999999999MA1101081999999MW1001REMMET060VVDN 060630Z 11004MPS 070V160 9999 FEW015 26/22 Q1011 NOSIG;EQDQ01+000000PRSWM2
0201488550999992000010606004+16030+108180FM-12+0007VVDN V0200701N00301105001CN0200001N1+02721+02221101051ADDAA106000091GA1011+008009089GF107991011011008001001081MA1999999100971MD1710231-0021REMSYN088AAXX  06061 48855 32570 70703 10272 20222 30097 40105 57023 81108 333 59002 81895 87299;EQDQ01  00002PRCP06
0154488550999992000010606304+16030+108180FM-15+0007VVDN V0201001N004012200019N0112651N1+02601+02201999999ADDGA1021+004509999GF102991999999999999999999MA1101021999999MW1001REMMET060VVDN 060730Z 10004MPS 050V140 9999 FEW015 26/22 Q1010 NOSIG;EQDQ01+000000PRSWM2
0201488550999992000010609004+16030+108180FM-12+0007VVDN V0200701N00101105001CN0200001N1+02571+02201100991ADDAA106000091GA1011+008009089GF107991011011008001001081MA1999999100911MD1510061+0021REMSYN088AAXX  06091 48855 32570 70701 10257 20220 30091 40099 55006 81108 333 58002 81895 87299;EQDQ01  00002PRCP06
0146488550999992000010609304+16030+108180FM-15+0007VVDN V02099999999992200019N0070001N1+02301+02101999999ADDGA1021+002109999GF102991999999999999999999MA1101081999999MW1001REMMET052VVDN 061030Z VRB02MPS 7000 FEW007 23/21 Q1011 NOSIG;EQDQ01+000000PRSWM2
0165488550999992000010610304+16030+108180FM-15+0007VVDN V0203101N001012200019N0030001N1+02201+02201999999ADDGA1021+001809999GF104991999999999999999999MA1101191999999MW1101REMMET055VVDN 061130Z 31001MPS 3000 BR SCT006 22/22 Q1012 NOSIG;EQDQ01+000003PRSWM1Q02    003PRSWM1
0165488550999992000010611304+16030+108180FM-15+0007VVDN V0202401N002012200019N0035001N1+02301+02201999999ADDGA1021+001809999GF104991999999999999999999MA1101291999999MW1101REMMET055VVDN 061230Z 24002MPS 3500 BR SCT006 23/22 Q1013 NOSIG;EQDQ01+000003PRSWM1Q02    003PRSWM1
0232488550999992000010612004+16030+108180FM-12+0007VVDN V0209999C00001105001CN0200001N1+02291+02141101201ADDAA106000091GA1021+012509069GF107991021051017501001081KA1120M+02791MA1999999101121MD1210211+0071REMSYN106AAXX  06121 48855 32798 70000 10229 20214 30112 40120 52021 82508 333 00024 10279 58007 70000 82696 87299;EQDQ01  00002PRCP06
0188488550999992000010612304+16030+108180FM-15+0007VVDN V02099999999992200019N0040001N1+02301+02301999999ADDGA1021+003009999GA2021+009009999GF104991999999999999999999MA1101291999999MW1101REMMET062VVDN 061330Z VRB01MPS 4000 BR FEW010 SCT030 23/23 Q1013 NOSIG;EQDQ01+000003PRSWM1Q02    003PRSWM1
0188488550999992000010613304+16030+108180FM-15+0007VVDN V0203101N001012200019N0050001N1+02301+02301999999ADDGA1021+003009999GA2021+010509999GF104991999999999999999999MA1101391999999MW1101REMMET062VVDN 061430Z 31001MPS 5000 BR FEW010 SCT035 23/23 Q1014 NOSIG;EQDQ01+000003PRSWM1Q02    003PRSWM1
0165488550999992000010614304+16030+108180FM-15+0007VVDN V0209999C000012200019N0035001N1+02301+02201999999ADDGA1021+003009999GF102991999999999999999999MA1101391999999MW1101REMMET055VVDN 061530Z 00000MPS 3500 BR FEW010 23/22 Q1014 NOSIG;EQDQ01+000003PRSWM1Q02    003PRSWM1
0201488550999992000010615004+16030+108180FM-12+0007VVDN V0202501N00101105001CN0200001N1+02351+02221101351ADDAA106000091GA1011+008009089GF107991011011008001001081MA1999999101271MD1110151+0131REMSYN088AAXX  06151 48855 32598 72501 10235 20222 30127 40135 51015 81108 333 58013 81895 87299;EQDQ01  00002PRCP06
0078488550999992000010616004+16030+108180SAO  +0007VVDN V0209999C000019999999N9999999N1+99999+99999999999ADDMW1001REMAWY060VVDN 061630Z AUTO 23001MPS 4000 BR FEW013 22/22 Q1014 NOSIG;
0078488550999992000010619004+16030+108180SAO  +0007VVDN V0209999C000019999999N9999999N1+99999+99999999999ADDMW1001REMAWY060VVDN 061930Z AUTO 22001MPS 4000 BR FEW008 21/21 Q1013 NOSIG;
0165488550999992000010619304+16030+108180FM-15+0007VVDN V02099999999992200019N0040001N1+02101+02101999999ADDGA1021+002409999GF102991999999999999999999MA1101191999999MW1101REMMET055VVDN 062030Z VRB01MPS 4000 BR FEW008 21/21 Q1012 NOSIG;EQDQ01+000003PRSWM1Q02    003PRSWM1
0188488550999992000010620304+16030+108180FM-15+0007VVDN V02099999999992200019N0040001N1+02101+02001999999ADDGA1021+003009999GA2021+024009999GF104991999999999999999999MA1101191999999MW1101REMMET062VVDN 062130Z VRB01MPS 4000 BR FEW010 SCT080 21/20 Q1012 NOSIG;EQDQ01+000003PRSWM1Q02    003PRSWM1
0201488550999992000010621004+16030+108180FM-12+0007VVDN V0209999C00001105001CN0200001N1+02131+02071101171ADDAA106000091GA1021+017509069GF106991021051017501001081MA1999999101091MD1510071+0191REMSYN088AAXX  06211 48855 32798 60000 10213 20207 30109 40117 55007 82508 333 58019 82697 86299;EQDQ01  00002PRCP06
0165488550999992000010621304+16030+108180FM-15+0007VVDN V0209999C000010039019N0050001N1+02101+02001999999ADDGA1071+003909999GF107991999999999999999999MA1101291999999MW1101REMMET055VVDN 062230Z 00000MPS 5000 BR BKN013 21/20 Q1013 NOSIG;EQDQ01+000003PRSWM1Q02    003PRSWM1
0169488550999992000010622304+16030+108180FM-15+0007VVDN V0209999C000010039019N0060001N1+02101+02101999999ADDGA1021+002109999GA2071+003909999GF107991999999999999999999MA1101291999999MW1001REMMET059VVDN 062330Z 00000MPS 6000 FEW007 BKN013 21/21 Q1013 NOSIG;EQDQ01+000000PRSWM2
0188488550999992000010623304+16030+108180FM-15+0007VVDN V02099999999992200019N0050001N1+02201+02101999999ADDGA1021+004509999GA2021+015009999GF104991999999999999999999MA1101391999999MW1101REMMET062VVDN 070030Z VRB01MPS 5000 BR FEW015 SCT050 22/21 Q1014 NOSIG;EQDQ01+000003PRSWM1Q02    003PRSWM1
0266488550999992000010700004+16030+108180FM-12+0007VVDN V0209999C00001017501CN0100001N1+02131+02051101351ADDAA106000091GA1041+008009089GA2061+017509069GF107991061081008001031081IA2999+01909KA1120N+02111MA1999999101271MD1210191+0191REMSYN112AAXX  07001 48855 32560 70000 10213 20205 30127 40135 52019 86838 333 00021 20211 3/019 58019 84895 86697 87299;EQDQ01  00002PRCP06
0188488550999992000010700304+16030+108180FM-15+0007VVDN V02099999999992200019N0035001N1+02301+02101999999ADDGA1021+003909999GA2021+090009999GF104991999999999999999999MA1101491999999MW1101REMMET062VVDN 070130Z VRB01MPS 3500 BR FEW013 SCT300 23/21 Q1015 NOSIG;EQDQ01+000003PRSWM1Q02    003PRSWM1
0146488550999992000010701304+16030+108180FM-15+0007VVDN V02099999999992200019N0070001N1+02501+02101999999ADDGA1021+003909999GF104991999999999999999999MA1101591999999MW1001REMMET052VVDN 070230Z VRB01MPS 7000 SCT013 25/21 Q1016 NOSIG;EQDQ01+000000PRSWM2
0146488550999992000010702304+16030+108180FM-15+0007VVDN V02099999999992200019N0070001N1+02701+02201999999ADDGA1021+003909999GF104991999999999999999999MA1101491999999MW1001REMMET052VVDN 070330Z VRB01MPS 7000 SCT013 27/22 Q1015 NOSIG;EQDQ01+000000PRSWM2
0201488550999992000010703004+16030+108180FM-12+0007VVDN V0203601N00101105001CN0200001N1+02561+02151101521ADDAA106000091GA1031+008009089GF107991031021008001001061MA1999999101441MD1010171+0241REMSYN088AAXX  07031 48855 32570 73601 10256 20215 30144 40152 50017 83206 333 58024 83895 87299;EQDQ01  00002PRCP06
0177488550999992000010703304+16030+108180FM-15+0007VVDN V0201001N003012200019N0080001N1+02601+02201999999ADDGA1021+004509999GA2021+090009999GF104991999999999999999999MA1101491999999MW1001REMMET067VVDN 070430Z 10003MPS 060V150 8000 FEW015 SCT300 26/22 Q1015 NOSIG;EQDQ01+000000PRSWM2
0154488550999992000010704304+16030+108180FM-15+0007VVDN V0201001N004012200019N0112651N1+02601+02201999999ADDGA1021+003909999GF102991999999999999999999MA1101391999999MW1001REMMET060VVDN 070530Z 10004MPS 050V140 9999 FEW013 26/22 Q1014 NOSIG;EQDQ01+000000PRSWM2
0154488550999992000010705304+16030+108180FM-15+0007VVDN V0200901N005012200019N0112651N1+02601+02101999999ADDGA1021+004509999GF102991999999999999999999MA1101291999999MW1001REMMET060VVDN 070630Z 09005MPS 060V130 9999 FEW015 26/21 Q1013 NOSIG;EQDQ01+000000PRSWM2
0201488550999992000010706004+16030+108180FM-12+0007VVDN V0200901N00301105001CN0200001N1+02691+02271101261ADDAA106000091GA1031+008009089GF107991031021008001001081MA1999999101181MD1710261+0211REMSYN088AAXX  07061 48855 32570 70903 10269 20227 30118 40126 57026 83208 333 58021 83895 87299;EQDQ01  00002PRCP06
0201488550999992000010709004+16030+108180FM-12+0007VVDN V0200701N00201105001CN0200001N1+02491+02201101201ADDAA106000091GA1031+008009089GF107991031021008001001081MA1999999101121MD1510061+0211REMSYN088AAXX  07091 48855 32570 70702 10249 20220 30112 40120 55006 83208 333 58021 83895 87299;EQDQ01  00002PRCP06
0177488550999992000010709304+16030+108180FM-15+0007VVDN V0201001N003010900019N0112651N1+02401+02201999999ADDGA1021+004509999GA2071+090009999GF107991999999999999999999MA1101291999999MW1001REMMET067VVDN 071030Z 10003MPS 060V150 9999 FEW015 BKN300 24/22 Q1013 NOSIG;EQDQ01+000000PRSWM2
0169488550999992000010710304+16030+108180FM-15+0007VVDN V02099999999992200019N0060001N1+02301+02201999999ADDGA1021+003909999GA2021+012009999GF104991999999999999999999MA1101391999999MW1001REMMET059VVDN 071130Z VRB02MPS 6000 FEW013 SCT040 23/22 Q1014 NOSIG;EQDQ01+000000PRSWM2
0169488550999992000010711304+16030+108180FM-15+0007VVDN V02099999999992200019N0060001N1+02301+02201999999ADDGA1021+003909999GA2021+012009999GF104991999999999999999999MA1101391999999MW1001REMMET059VVDN 071230Z VRB02MPS 6000 FEW013 SCT040 23/22 Q1014 NOSIG;EQDQ01+000000PRSWM2
0254488550999992000010712004+16030+108180FM-12+0007VVDN V0200701N00101017501CN0200001N1+02361+02211101351ADDAA106000091GA1021+008009089GA2051+017509069GF107991051081008001001081KA1120M+02711MA1999999101271MD1210151+0151REMSYN112AAXX  07121 48855 32598 70701 10236 20221 30127 40135 52015 85808 333 00024 10271 58015 70000 82895 85697 87299;EQDQ01  00002PRCP06
0146488550999992000010712304+16030+108180FM-15+0007VVDN V0201501N002012200019N0060001N1+02301+02201999999ADDGA1021+003909999GF102991999999999999999999MA1101491999999MW1001REMMET052VVDN 071330Z 15002MPS 6000 FEW013 23/22 Q1015 NOSIG;EQDQ01+000000PRSWM2
0146488550999992000010713304+16030+108180FM-15+0007VVDN V02099999999992200019N0060001N1+02301+02201999999ADDGA1021+003909999GF102991999999999999999999MA1101491999999MW1001REMMET052VVDN 071430Z VRB01MPS 6000 FEW013 23/22 Q1015 NOSIG;EQDQ01+000000PRSWM2
0146488550999992000010714304+16030+108180FM-15+0007VVDN V0202401N001012200019N0060001N1+02101+02101999999ADDGA1021+003909999GF102991999999999999999999MA1101491999999MW1001REMMET052VVDN 071530Z 24001MPS 6000 FEW013 21/21 Q1015 NOSIG;EQDQ01+000000PRSWM2
0195488550999992000010715004+16030+108180FM-12+0007VVDN V0209999C000019999999N0200001N1+02231+02171101491ADDAA106000091GA1061+999999089GF106991001001999999001081MA1999999101411MD1410001+0141REMSYN082AAXX  07151 48855 32998 60000 10223 20217 30141 40149 54014 80008 333 58014 86299;EQDQ01  00002PRCP06
0078488550999992000010716004+16030+108180SAO  +0007VVDN V0209999C000019999999N9999999N1+99999+99999999999ADDMW1001REMAWY060VVDN 071630Z AUTO 25001MPS 4000 BR FEW013 22/21 Q1015 NOSIG;
0283488550999992000010718004+16030+108180SY-SA+0007VVDN V0209999C000012200019N0200001N1+02111+02061101401ADDAA106000091GA1011+008009029GF101991011011008001001001MA1999999101321MD1710091+0101MW1001REMSYN082AAXX  07181 48855 32598 10000 10211 20206 30132 40140 57009 81100 333 58010 81895;AWY060VVDN 071830Z AUTO 00000MPS 4000 BR FEW013 21/21 Q1014 NOSIG;EQDQ01+000990PRSWM4Q02  00002PRCP06
0078488550999992000010719004+16030+108180SAO  +0007VVDN V0209999C000019999999N9999999N1+99999+99999999999ADDMW1001REMAWY060VVDN 071930Z AUTO 00000MPS 4000 BR FEW013 21/21 Q1014 NOSIG;
0078488550999992000010720004+16030+108180SAO  +0007VVDN V0209999C000019999999N9999999N1+99999+99999999999ADDMW1001REMAWY060VVDN 072030Z AUTO 22001MPS 4000 BR FEW013 21/21 Q1014 NOSIG;
0200488550999992000010721004+16030+108180FM-12+0007VVDN V0209999C00001045001CN0200001N1+02161+02021101301ADDAA106000091GA1021+017509069GF106991021051017501011081MA1999999101221MD1610101+0131REMSYN087AAXX  07211 48855 32798 60000 10216 2020230122 40130 56010 82518 333 58013 82697 86299;EQDQ01  00002PRCP06
0188488550999992000010721304+16030+108180FM-15+0007VVDN V0202201N001012200019N0050001N1+02101+02101999999ADDGA1021+003909999GA2021+012009999GF104991999999999999999999MA1101391999999MW1101REMMET062VVDN 072230Z 22001MPS 5000 BR FEW013 SCT040 21/21 Q1014 NOSIG;EQDQ01+000003PRSWM1Q02    003PRSWM1
0188488550999992000010722304+16030+108180FM-15+0007VVDN V0202301N001010120019N0050001N1+02101+02101999999ADDGA1021+003909999GA2071+012009999GF107991999999999999999999MA1101391999999MW1101REMMET062VVDN 072330Z 23001MPS 5000 BR FEW013 BKN040 21/21 Q1014 NOSIG;EQDQ01+000003PRSWM1Q02    003PRSWM1
0188488550999992000010723304+16030+108180FM-15+0007VVDN V02099999999992200019N0050001N1+02201+02201999999ADDGA1021+003909999GA2021+010509999GF104991999999999999999999MA1101491999999MW1101REMMET062VVDN 080030Z VRB02MPS 5000 BR FEW013 SCT035 22/22 Q1015 NOSIG;EQDQ01+000003PRSWM1Q02    003PRSWM1
0244488550999992000010800004+16030+108180FM-12+0007VVDN V0209999C00001017501CN0200001N1+02151+02091101421ADDAA106000091GA1051+017509069GF107991051051017501001081IA2999+01809KA1120N+02061MA1999999101341MD1210121+0071REMSYN106AAXX  08001 48855 32770 70000 10215 20209 30134 40142 52012 85508 333 00022 20206 3/018 58007 85697 87299;EQDQ01  00002PRCP06
0169488550999992000010800304+16030+108180FM-15+0007VVDN V02099999999992200019N0070001N1+02301+02201999999ADDGA1021+003909999GA2021+012009999GF104991999999999999999999MA1101491999999MW1001REMMET059VVDN 080130Z VRB02MPS 7000 FEW013 SCT040 23/22 Q1015 NOSIG;EQDQ01+000000PRSWM2
0154488550999992000010802304+16030+108180FM-15+0007VVDN V0201901N003012200019N0080001N1+02501+02101999999ADDGA1021+005109999GF104991999999999999999999MA1101491999999MW1001REMMET060VVDN 080330Z 19003MPS 140V250 8000 SCT017 25/21 Q1015 NOSIG;EQDQ01+000000PRSWM2
0201488550999992000010803004+16030+108180FM-12+0007VVDN V0201101N00201105001CN0200001N1+02641+02121101461ADDAA106000091GA1031+008009089GF107991031021008001001081MA1999999101381MD1010041-0061REMSYN088AAXX  08031 48855 32570 71102 10264 20212 30138 40146 50004 83208 333 59006 83895 87299;EQDQ01  00002PRCP06
0154488550999992000010803304+16030+108180FM-15+0007VVDN V0201201N004012200019N0112651N1+02601+02101999999ADDGA1021+005109999GF102991999999999999999999MA1101391999999MW1001REMMET060VVDN 080430Z 12004MPS 090V150 9999 FEW017 26/21 Q1014 NOSIG;EQDQ01+000000PRSWM2
0154488550999992000010804304+16030+108180FM-15+0007VVDN V0201201N005012200019N0112651N1+02601+02001999999ADDGA1021+005109999GF102991999999999999999999MA1101291999999MW1001REMMET060VVDN 080530Z 12005MPS 070V160 9999 FEW017 26/20 Q1013 NOSIG;EQDQ01+000000PRSWM2
0154488550999992000010805304+16030+108180FM-15+0007VVDN V0201201N005012200019N0112651N1+02601+02001999999ADDGA1021+005109999GF102991999999999999999999MA1101191999999MW1001REMMET060VVDN 080630Z 12005MPS 090V160 9999 FEW017 26/20 Q1012 NOSIG;EQDQ01+000000PRSWM2
0201488550999992000010806004+16030+108180FM-12+0007VVDN V0201101N00501105001CN0200001N1+02641+02061101191ADDAA106000091GA1011+008009089GF106991011021008001001081MA1999999101111MD1710271-0071REMSYN088AAXX  08061 48855 32570 61105 10264 20206 30111 40119 57027 81208 333 59007 81895 86299;EQDQ01  00002PRCP06
0154488550999992000010806304+16030+108180FM-15+0007VVDN V0201201N005012200019N0112651N1+02601+02001999999ADDGA1021+005109999GF102991999999999999999999MA1101081999999MW1001REMMET060VVDN 080730Z 12005MPS 100V160 9999 FEW017 26/20 Q1011 NOSIG;EQDQ01+000000PRSWM2
0154488550999992000010807304+16030+108180FM-15+0007VVDN V0201301N005012200019N0080001N1+02501+01901999999ADDGA1021+004509999GF102991999999999999999999MA1101081999999MW1001REMMET060VVDN 080830Z 13005MPS 100V170 8000 FEW015 25/19 Q1011 NOSIG;EQDQ01+000000PRSWM2
0154488550999992000010808304+16030+108180FM-15+0007VVDN V0201401N004012200019N0080001N1+02401+02001999999ADDGA1021+004509999GF102991999999999999999999MA1101191999999MW1001REMMET060VVDN 080930Z 14004MPS 090V170 8000 FEW015 24/20 Q1012 NOSIG;EQDQ01+000000PRSWM2
0201488550999992000010809004+16030+108180FM-12+0007VVDN V0201101N00501105001CN0200001N1+02521+02061101091ADDAA106000091GA1021+008009089GF106991021021008001001081MA1999999101011MD1610101-0111REMSYN088AAXX  08091 48855 32570 61105 10252 20206 30101 40109 56010 82208 333 59011 82895 86299;EQDQ01  00002PRCP06
0154488550999992000010809304+16030+108180FM-15+0007VVDN V0201401N003012200019N0080001N1+02401+02101999999ADDGA1021+004509999GF102991999999999999999999MA1101191999999MW1001REMMET060VVDN 081030Z 14003MPS 110V170 8000 FEW015 24/21 Q1012 NOSIG;EQDQ01+000000PRSWM2
0146488550999992000010810304+16030+108180FM-15+0007VVDN V0201801N001012200019N0080001N1+02301+02001999999ADDGA1021+004509999GF102991999999999999999999MA1101191999999MW1001REMMET052VVDN 081130Z 18001MPS 8000 FEW015 23/20 Q1012 NOSIG;EQDQ01+000000PRSWM2
0146488550999992000010811304+16030+108180FM-15+0007VVDN V0209999C000012200019N0080001N1+02301+02001999999ADDGA1021+004509999GF102991999999999999999999MA1101291999999MW1001REMMET052VVDN 081230Z 00000MPS 8000 FEW015 23/20 Q1013 NOSIG;EQDQ01+000000PRSWM2
0232488550999992000010812004+16030+108180FM-12+0007VVDN V0209999C00001105001CN0100001N1+02301+02041101231ADDAA106000091GA1021+008009089GF107991021021008001001081KA1120M+02681MA1999999101151MD1210141-0121REMSYN106AAXX  08121 48855 32597 70000 10230 20204 30115 40123 52014 82208 333 00023 10268 59012 70000 82895 87299;EQDQ01  00002PRCP06
0146488550999992000010812304+16030+108180FM-15+0007VVDN V0202701N001012200019N0080001N1+02201+02001999999ADDGA1021+004509999GF102991999999999999999999MA1101291999999MW1001REMMET052VVDN 081330Z 27001MPS 8000 FEW015 22/20 Q1013 NOSIG;EQDQ01+000000PRSWM2
0146488550999992000010813304+16030+108180FM-15+0007VVDN V02099999999992200019N0080001N1+02201+02001999999ADDGA1021+004509999GF102991999999999999999999MA1101291999999MW1001REMMET052VVDN 081430Z VRB01MPS 8000 FEW015 22/20 Q1013 NOSIG;EQDQ01+000000PRSWM2
0146488550999992000010814304+16030+108180FM-15+0007VVDN V02099999999992200019N0070001N1+02201+02001999999ADDGA1021+004509999GF102991999999999999999999MA1101291999999MW1001REMMET052VVDN 081530Z VRB01MPS 7000 FEW015 22/20 Q1013 NOSIG;EQDQ01+000000PRSWM2
0201488550999992000010815004+16030+108180FM-12+0007VVDN V0209999C00001105001CN0200001N1+02171+02051101311ADDAA106000091GA1021+008009089GF107991021011008001001081MA1999999101231MD1010081-0181REMSYN088AAXX  08151 48855 32598 70000 10217 20205 30123 40131 50008 82108 333 59018 82895 87299;EQDQ01  00002PRCP06
0075488550999992000010816004+16030+108180SAO  +0007VVDN V0209999C000019999999N9999999N1+99999+99999999999ADDMW1001REMAWY057VVDN 081630Z AUTO 00000MPS 7000 FEW015 23/20 Q1013 NOSIG;
0146488550999992000010816304+16030+108180FM-15+0007VVDN V0209999C000012200019N0070001N1+02201+02001999999ADDGA1021+004509999GF102991999999999999999999MA1101291999999MW1001REMMET052VVDN 081730Z 00000MPS 7000 FEW015 22/20 Q1013 NOSIG;EQDQ01+000000PRSWM2
0146488550999992000010817304+16030+108180FM-15+0007VVDN V0202501N001012200019N0070001N1+02001+02001999999ADDGA1021+004509999GF102991999999999999999999MA1101291999999MW1001REMMET052VVDN 081830Z 25001MPS 7000 FEW015 20/20 Q1013 NOSIG;EQDQ01+000000PRSWM2
0195488550999992000010818004+16030+108180FM-12+0007VVDN V0209999C000019999999N0200001N1+02121+02001101221ADDAA106000091GA1051+999999089GF105991001001999999001081MA1999999101141MD1810091-0181REMSYN082AAXX  08181 48855 32998 50000 10212 20200 30114 40122 58009 80008 333 59018 85299;EQDQ01  00002PRCP06
0146488550999992000010818304+16030+108180FM-15+0007VVDN V0202101N001012200019N0070001N1+02001+02001999999ADDGA1021+004509999GF102991999999999999999999MA1101191999999MW1001REMMET052VVDN 081930Z 21001MPS 7000 FEW015 20/20 Q1012 NOSIG;EQDQ01+000000PRSWM2
0146488550999992000010819304+16030+108180FM-15+0007VVDN V0202401N002012200019N0070001N1+02001+01901999999ADDGA1021+004509999GF102991999999999999999999MA1101191999999MW1001REMMET052VVDN 082030Z 24002MPS 7000 FEW015 20/19 Q1012 NOSIG;EQDQ01+000000PRSWM2
0169488550999992000010820304+16030+108180FM-15+0007VVDN V0202001N001012200019N0070001N1+02101+02001999999ADDGA1021+004509999GA2021+012009999GF104991999999999999999999MA1101191999999MW1001REMMET059VVDN 082130Z 20001MPS 7000 FEW015 SCT040 21/20 Q1012 NOSIG;EQDQ01+000000PRSWM2
0195488550999992000010821004+16030+108180FM-12+0007VVDN V0209999C000010175019N0200001N1+02031+01941101161ADDAA106000091GA1061+017509059GF106991061051017501999999MA1999999101081MD1710061-0141REMSYN082AAXX  08211 48855 32798 60000 10203 20194 30108 40116 57006 865// 333 59014 86697;EQDQ01  00002PRCP06
0146488550999992000010821304+16030+108180FM-15+0007VVDN V0201601N002012200019N0060001N1+02101+02001999999ADDGA1021+004509999GF102991999999999999999999MA1101191999999MW1001REMMET052VVDN 082230Z 16002MPS 6000 FEW015 21/20 Q1012 NOSIG;EQDQ01+000000PRSWM2
0165488550999992000010822304+16030+108180FM-15+0007VVDN V0202401N001012200019N0026001N1+02001+02001999999ADDGA1021+004509999GF102991999999999999999999MA1101291999999MW1101REMMET055VVDN 082330Z 24001MPS 2600 BR FEW015 20/20 Q1013 NOSIG;EQDQ01+000003PRSWM1Q02    003PRSWM1
0180488550999992000010823304+16030+108180FM-15+0007VVDN V02099999999992200019N0020001N1+02101+02101999999ADDGA1021+003909999GF102991999999999999999999MA1101391999999MW1101REMMET070VVDN 090030Z VRB01MPS 2000 BR FEW013 21/21 Q1014 BECMG TL0130 4000 BR;EQDQ01+000003PRSWM1Q02    003PRSWM1
0272488550999992000010900004+16030+108180FM-12+0007VVDN V0209999C00001045001CN0040001N1+02051+02001101311ADDAA106000091AY121061AY221061GA1021+017509069GF106991021051017501031081IA2999+01809KA1120N+02031MA1999999101231MD1210151-0111MW1101REMSYN112AAXX  09001 48855 31796 60000 10205 20200 30123 40131 52015 71022 82538 333 00019 20203 3/018 59011 82697 86299;EQDQ01  00002PRCP06
0165488550999992000010900304+16030+108180FM-15+0007VVDN V02099999999992200019N0050001N1+02301+02201999999ADDGA1021+004509999GF102991999999999999999999MA1101391999999MW1101REMMET055VVDN 090130Z VRB01MPS 5000 BR FEW015 23/22 Q1014 NOSIG;EQDQ01+000003PRSWM1Q02    003PRSWM1
0146488550999992000010901304+16030+108180FM-15+0007VVDN V02099999999992200019N0070001N1+02501+02001999999ADDGA1021+004509999GF102991999999999999999999MA1101391999999MW1001REMMET052VVDN 090230Z VRB02MPS 7000 FEW015 25/20 Q1014 NOSIG;EQDQ01+000000PRSWM2
0146488550999992000010902304+16030+108180FM-15+0007VVDN V02099999999992200019N0112651N1+02701+02101999999ADDGA1021+004509999GF102991999999999999999999MA1101391999999MW1001REMMET052VVDN 090330Z VRB01MPS 9999 FEW015 27/21 Q1014 NOSIG;EQDQ01+000000PRSWM2
0201488550999992000010903004+16030+108180FM-12+0007VVDN V0201401N00101105001CN0200001N1+02621+02041101401ADDAA106000091GA1041+008009089GF106991041021008001001081MA1999999101321MD1110091-0061REMSYN088AAXX  09031 48855 32570 61401 10262 20204 30132 40140 51009 84208 333 59006 84895 86299;EQDQ01  00002PRCP06
0146488550999992000010903304+16030+108180FM-15+0007VVDN V0201201N004012200019N0112651N1+02601+02001999999ADDGA1021+004509999GF102991999999999999999999MA1101391999999MW1001REMMET052VVDN 090430Z 12004MPS 9999 FEW015 26/20 Q1014 NOSIG;EQDQ01+000000PRSWM2
0154488550999992000010904304+16030+108180FM-15+0007VVDN V0201201N005012200019N0112651N1+02601+02001999999ADDGA1021+004509999GF102991999999999999999999MA1101291999999MW1001REMMET060VVDN 090530Z 12005MPS 100V160 9999 FEW015 26/20 Q1013 NOSIG;EQDQ01+000000PRSWM2
0146488550999992000010906304+16030+108180FM-15+0007VVDN V0201201N005012200019N0112651N1+02501+01901999999ADDGA1021+004509999GF102991999999999999999999MA1101081999999MW1001REMMET052VVDN 090730Z 12005MPS 9999 FEW015 25/19 Q1011 NOSIG;EQDQ01+000000PRSWM2
0146488550999992000010907304+16030+108180FM-15+0007VVDN V0201201N004012200019N0112651N1+02501+01901999999ADDGA1021+004509999GF102991999999999999999999MA1101081999999MW1001REMMET052VVDN 090830Z 12004MPS 9999 FEW015 25/19 Q1011 NOSIG;EQDQ01+000000PRSWM2
0154488550999992000010908304+16030+108180FM-15+0007VVDN V0201101N003012200019N0112651N1+02501+02001999999ADDGA1021+004509999GF102991999999999999999999MA1101191999999MW1001REMMET060VVDN 090930Z 11003MPS 070V150 9999 FEW015 25/20 Q1012 NOSIG;EQDQ01+000000PRSWM2
0201488550999992000010909004+16030+108180FM-12+0007VVDN V0201101N00101105001CN0200001N1+02551+02051101101ADDAA106000091GA1021+017509069GF107991021051017501001081MA1999999101021MD1610071+0011REMSYN088AAXX  09091 48855 32770 71101 10255 20205 30102 40110 56007 82508 333 58001 82697 87299;EQDQ01  00002PRCP06
0146488550999992000010909304+16030+108180FM-15+0007VVDN V0201301N003012200019N0112651N1+02401+02001999999ADDGA1021+004509999GF102991999999999999999999MA1101191999999MW1001REMMET052VVDN 091030Z 13003MPS 9999 FEW015 24/20 Q1012 NOSIG;EQDQ01+000000PRSWM2
0146488550999992000010910304+16030+108180FM-15+0007VVDN V02099999999992200019N0060001N1+02301+02101999999ADDGA1021+004509999GF102991999999999999999999MA1101291999999MW1001REMMET052VVDN 091130Z VRB01MPS 6000 FEW015 23/21 Q1013 NOSIG;EQDQ01+000000PRSWM2
0201488550999992000010911004+16030+108180FM-12+0007VVDN V0209999C00001105001CN0200001N1+02121+02041101331ADDAA106000091GA1031+017509069GF107991031051017501001081MA1999999101251MD1110061+0021REMSYN088AAXX  09111 48855 32798 70000 10212 20204 30125 40133 51006 83508 333 58002 83697 87299;EQDQ01  00002PRCP06
0146488550999992000010911304+16030+108180FM-15+0007VVDN V02099999999992200019N0060001N1+02201+02101999999ADDGA1021+004509999GF102991999999999999999999MA1101291999999MW1001REMMET052VVDN 091230Z VRB01MPS 6000 FEW015 22/21 Q1013 NOSIG;EQDQ01+000000PRSWM2
0232488550999992000010912004+16030+108180FM-12+0007VVDN V0201601N00101105001CN0200001N1+02281+02101101271ADDAA106000091GA1021+017509069GF107991021051017501001081KA1120M+02681MA1999999101191MD1210171+0041REMSYN106AAXX  09121 48855 32798 71601 10228 20210 30119 40127 52017 82508 333 00022 10268 58004 70000 82697 87299;EQDQ01  00002PRCP06
0165488550999992000010912304+16030+108180FM-15+0007VVDN V0202601N001012200019N0050001N1+02201+02101999999ADDGA1021+004509999GF102991999999999999999999MA1101391999999MW1101REMMET055VVDN 091330Z 26001MPS 5000 BR FEW015 22/21 Q1014 NOSIG;EQDQ01+000003PRSWM1Q02    003PRSWM1
0165488550999992000010913304+16030+108180FM-15+0007VVDN V0209999C000012200019N0040001N1+02101+02101999999ADDGA1021+004509999GF102991999999999999999999MA1101391999999MW1101REMMET055VVDN 091430Z 00000MPS 4000 BR FEW015 21/21 Q1014 NOSIG;EQDQ01+000003PRSWM1Q02    003PRSWM1
0289488550999992000010915004+16030+108180SY-SA+0007VVDN V0209999C000019999999N0200001N1+02121+02041101331ADDAA106000091GA1031+017509069GF107991031051017501001081MA1999999101251MD1110061+0021MW1001REMSYN088AAXX  09151 48855 32798 70000 10212 20204 30125 40133 51006 83508 333 58002 83697 87299;AWY060VVDN 091530Z AUTO 00000MPS 3500 BR FEW015 21/21 Q1014 NOSIG;EQDQ01+000990PRSWM4Q02  00002PRCP06
0165488550999992000010917304+16030+108180FM-15+0007VVDN V02099999999992200019N0035001N1+02001+01901999999ADDGA1021+004509999GF102991999999999999999999MA1101291999999MW1101REMMET055VVDN 091830Z VRB01MPS 3500 BR FEW015 20/19 Q1013 NOSIG;EQDQ01+000003PRSWM1Q02    003PRSWM1
0201488550999992000010918004+16030+108180FM-12+0007VVDN V0209999C00001105001CN0200001N1+02031+01951101231ADDAA106000091GA1031+017509069GF107991031051017501001081MA1999999101151MD1710101+0011REMSYN088AAXX  09181 48855 32798 70000 10203 20195 30115 40123 57010 83508 333 58001 83697 87299;EQDQ01  00002PRCP06
0078488550999992000010919004+16030+108180SAO  +0007VVDN V0209999C000019999999N9999999N1+99999+99999999999ADDMW1001REMAWY060VVDN 091930Z AUTO 00000MPS 4000 BR FEW015 20/20 Q1012 NOSIG;
0165488550999992000010920304+16030+108180FM-15+0007VVDN V0202101N001012200019N0035001N1+01801+01801999999ADDGA1021+004509999GF102991999999999999999999MA1101191999999MW1101REMMET055VVDN 092130Z 21001MPS 3500 BR FEW015 18/18 Q1012 NOSIG;EQDQ01+000003PRSWM1Q02    003PRSWM1
0201488550999992000010921004+16030+108180FM-12+0007VVDN V0209999C00001105001CN0200001N1+01891+01841101141ADDAA106000091GA1041+017509069GF107991041051017501001081MA1999999101061MD1610091-0021REMSYN088AAXX  09211 48855 32798 70000 10189 20184 30106 40114 56009 84508 333 59002 84697 87299;EQDQ01  00002PRCP06
0165488550999992000010921304+16030+108180FM-15+0007VVDN V0202301N002012200019N0040001N1+01801+01801999999ADDGA1021+004509999GF102991999999999999999999MA1101191999999MW1101REMMET055VVDN 092230Z 23002MPS 4000 BR FEW015 18/18 Q1012 NOSIG;EQDQ01+000003PRSWM1Q02    003PRSWM1
0146488550999992000010922304+16030+108180FM-15+0007VVDN V02099999999992200019N0060001N1+01801+01801999999ADDGA1021+004509999GF102991999999999999999999MA1101291999999MW1001REMMET052VVDN 092330Z VRB01MPS 6000 FEW015 18/18 Q1013 NOSIG;EQDQ01+000000PRSWM2
0146488550999992000010923304+16030+108180FM-15+0007VVDN V02099999999992200019N0080001N1+02001+01901999999ADDGA1021+004509999GF102991999999999999999999MA1101291999999MW1001REMMET052VVDN 100030Z VRB01MPS 8000 FEW015 20/19 Q1013 NOSIG;EQDQ01+000000PRSWM2
0238488550999992000011000004+16030+108180FM-12+0007VVDN V0209999C000019999999N0200001N1+02852+01781101291ADDAA106000091GA1061+999999089GF106991001001999999001081IA2999+01709KA1120N+01841MA1999999101211MD1210151-0021REMSYN100AAXX  10001 48855 32970 60000 10285 20178 30121 40129 52015 80008 333 00017 20184 3/017 59002 86299;EQDQ01  00002PRCP06
0098488550999992000011000304+16030+108180FM-15+0007VVDN V0209999999999220001CN0099001N1+02201+01901999999ADDMA1101391999999MW1001REMMET046VVDN 100130Z VRB02MPS CAVOK 22/19 Q1014 NOSIG;EQDQ01+000000PRSWM2
0098488550999992000011001304+16030+108180FM-15+0007VVDN V0209999999999220001CN0099001N1+02501+02001999999ADDMA1101391999999MW1001REMMET046VVDN 100230Z VRB01MPS CAVOK 25/20 Q1014 NOSIG;EQDQ01+000000PRSWM2
0098488550999992000011002304+16030+108180FM-15+0007VVDN V0209999999999220001CN0099001N1+02601+02001999999ADDMA1101391999999MW1001REMMET046VVDN 100330Z VRB02MPS CAVOK 26/20 Q1014 NOSIG;EQDQ01+000000PRSWM2
0195488550999992000011003004+16030+108180FM-12+0007VVDN V0202001N001019999999N0200001N1+02651+01991101341ADDAA106000091GA1061+999999089GF106991001001999999001081MA1999999101261MD1010051-0061REMSYN082AAXX  10031 48855 32970 62001 10265 20199 30126 40134 50005 80008 333 59006 86299;EQDQ01  00002PRCP06
0106488550999992000011003304+16030+108180FM-15+0007VVDN V0201901N00301220001CN0099001N1+02701+02001999999ADDMA1101291999999MW1001REMMET054VVDN 100430Z 19003MPS 120V250 CAVOK 27/20 Q1013 NOSIG;EQDQ01+000000PRSWM2
0154488550999992000011004304+16030+108180FM-15+0007VVDN V0201101N004012200019N0112651N1+02701+02001999999ADDGA1021+005109999GF102991999999999999999999MA1101191999999MW1001REMMET060VVDN 100530Z 11004MPS 070V150 9999 FEW017 27/20 Q1012 NOSIG;EQDQ01+000000PRSWM2
0154488550999992000011005304+16030+108180FM-15+0007VVDN V0201101N004012200019N0112651N1+02801+01901999999ADDGA1021+005109999GF102991999999999999999999MA1101081999999MW1001REMMET060VVDN 100630Z 11004MPS 080V160 9999 FEW017 28/19 Q1011 NOSIG;EQDQ01+000000PRSWM2
0201488550999992000011006004+16030+108180FM-12+0007VVDN V0201101N00201105001CN0200001N1+02791+02031101151ADDAA106000091GA1011+008009089GF106991011011008001001081MA1999999101071MD1710191-0021REMSYN088AAXX  10061 48855 32570 61102 10279 20203 30107 40115 57019 81108 333 59002 81895 86299;EQDQ01  00002PRCP06
0154488550999992000011006304+16030+108180FM-15+0007VVDN V0201201N004012200019N0112651N1+02701+02001999999ADDGA1021+005109999GF102991999999999999999999MA1101081999999MW1001REMMET060VVDN 100730Z 12004MPS 090V160 9999 FEW017 27/20 Q1011 NOSIG;EQDQ01+000000PRSWM2
0154488550999992000011007304+16030+108180FM-15+0007VVDN V0201101N004012200019N0112651N1+02601+02101999999ADDGA1021+005109999GF102991999999999999999999MA1101081999999MW1001REMMET060VVDN 100830Z 11004MPS 080V150 9999 FEW017 26/21 Q1011 NOSIG;EQDQ01+000000PRSWM2
0154488550999992000011008304+16030+108180FM-15+0007VVDN V0201301N003012200019N0112651N1+02501+02101999999ADDGA1021+005109999GF102991999999999999999999MA1101081999999MW1001REMMET060VVDN 100930Z 13003MPS 080V160 9999 FEW017 25/21 Q1011 NOSIG;EQDQ01+000000PRSWM2
0195488550999992000011009004+16030+108180FM-12+0007VVDN V0200701N003019999999N0200001N1+02601+02151101061ADDAA106000091GA1061+999999089GF106991001001999999001081MA1999999100981MD1510091-0041REMSYN082AAXX  10091 48855 32970 60703 10260 20215 30098 40106 55009 80008 333 59004 86299;EQDQ01  00002PRCP06
0146488550999992000011009304+16030+108180FM-15+0007VVDN V02099999999992200019N0112651N1+02401+02101999999ADDGA1021+005109999GF102991999999999999999999MA1101191999999MW1001REMMET052VVDN 101030Z VRB02MPS 9999 FEW017 24/21 Q1012 NOSIG;EQDQ01+000000PRSWM2
0146488550999992000011010304+16030+108180FM-15+0007VVDN V02099999999992200019N0080001N1+02301+02201999999ADDGA1021+005109999GF102991999999999999999999MA1101191999999MW1001REMMET052VVDN 101130Z VRB01MPS 8000 FEW017 23/22 Q1012 NOSIG;EQDQ01+000000PRSWM2
0165488550999992000011011304+16030+108180FM-15+0007VVDN V0202801N001012200019N0050001N1+02301+02201999999ADDGA1021+004509999GF102991999999999999999999MA1101291999999MW1101REMMET055VVDN 101230Z 28001MPS 5000 BR FEW015 23/22 Q1013 NOSIG;EQDQ01+000003PRSWM1Q02    003PRSWM1
0226488550999992000011012004+16030+108180FM-12+0007VVDN V0209999C000019999999N0200001N1+02351+02191101271ADDAA106000091GA1071+999999089GF107991001001999999001081KA1120M+02841MA1999999101191MD1210211+0001REMSYN100AAXX  10121 48855 32998 70000 10235 20219 30119 40127 52021 80008 333 00023 10284 58000 70000 87299;EQDQ01  00002PRCP06
0165488550999992000011012304+16030+108180FM-15+0007VVDN V02099999999992200019N0050001N1+02401+02201999999ADDGA1021+004509999GF102991999999999999999999MA1101291999999MW1101REMMET055VVDN 101330Z VRB01MPS 5000 BR FEW015 24/22 Q1013 NOSIG;EQDQ01+000003PRSWM1Q02    003PRSWM1
0165488550999992000011013304+16030+108180FM-15+0007VVDN V02099999999992200019N0050001N1+02401+02301999999ADDGA1021+004509999GF102991999999999999999999MA1101291999999MW1101REMMET055VVDN 101430Z VRB01MPS 5000 BR FEW015 24/23 Q1013 NOSIG;EQDQ01+000003PRSWM1Q02    003PRSWM1
0165488550999992000011014304+16030+108180FM-15+0007VVDN V0202301N001012200019N0050001N1+02301+02201999999ADDGA1021+004509999GF102991999999999999999999MA1101291999999MW1101REMMET055VVDN 101530Z 23001MPS 5000 BR FEW015 23/22 Q1013 NOSIG;EQDQ01+000003PRSWM1Q02    003PRSWM1
0201488550999992000011015004+16030+108180FM-12+0007VVDN V0201401N00101105001CN0200001N1+02401+02251101281ADDAA106000091GA1021+008009089GF107991021021008001001081MA1999999101201MD1010011-0051REMSYN088AAXX  10151 48855 32598 71401 10240 20225 30120 40128 50001 82208 333 59005 82895 87299;EQDQ01  00002PRCP06
0078488550999992000011016004+16030+108180SAO  +0007VVDN V0209999C000019999999N9999999N1+99999+99999999999ADDMW1001REMAWY060VVDN 101630Z AUTO 22001MPS 5000 BR FEW015 23/23 Q1013 NOSIG;
0078488550999992000011017004+16030+108180SAO  +0007VVDN V0209999C000019999999N9999999N1+99999+99999999999ADDMW1001REMAWY060VVDN 101730Z AUTO 23001MPS 5000 BR FEW015 23/23 Q1013 NOSIG;
0289488550999992000011018004+16030+108180SY-SA+0007VVDN V0201801N001019999999N0200001N1+02361+02251101221ADDAA106000091GA1041+008009089GF107991041021008001001081MA1999999101141MD1710061-0011MW1001REMSYN088AAXX  10181 48855 32598 71801 10236 20225 30114 40122 57006 84208 333 59001 84895 87299;AWY060VVDN 101830Z AUTO 22002MPS 5000 BR FEW015 23/23 Q1012 NOSIG;EQDQ01+000990PRSWM4Q02  00002PRCP06
0078488550999992000011019004+16030+108180SAO  +0007VVDN V0209999C000019999999N9999999N1+99999+99999999999ADDMW1001REMAWY060VVDN 101930Z AUTO 22002MPS 5000 BR FEW015 23/22 Q1012 NOSIG;
0146488550999992000011020304+16030+108180FM-15+0007VVDN V02099999999992200019N0070001N1+02201+02101999999ADDGA1021+004509999GF102991999999999999999999MA1101191999999MW1001REMMET052VVDN 102130Z VRB02MPS 7000 FEW015 22/21 Q1012 NOSIG;EQDQ01+000000PRSWM2
0201488550999992000011021004+16030+108180FM-12+0007VVDN V0201601N00101008001CN0200001N1+02301+02101101161ADDAA106000091GA1061+008009089GF107991061021008001001081MA1999999101081MD1510061+0021REMSYN088AAXX  10211 48855 32598 71601 10230 20210 30108 40116 55006 86208 333 58002 86895 87299;EQDQ01  00002PRCP06
0169488550999992000011021304+16030+108180FM-15+0007VVDN V0202401N002010120019N0070001N1+02201+02101999999ADDGA1021+004509999GA2071+012009999GF107991999999999999999999MA1101291999999MW1001REMMET059VVDN 102230Z 24002MPS 7000 FEW015 BKN040 22/21 Q1013 NOSIG;EQDQ01+000000PRSWM2
0188488550999992000011022304+16030+108180FM-15+0007VVDN V0202501N001012200019N0050001N1+02101+02101999999ADDGA1021+004509999GA2021+018009999GF104991999999999999999999MA1101291999999MW1101REMMET062VVDN 102330Z 25001MPS 5000 BR FEW015 SCT060 21/21 Q1013 NOSIG;EQDQ01+000003PRSWM1Q02    003PRSWM1
0146488550999992000011023304+16030+108180FM-15+0007VVDN V02099999999992200019N0070001N1+02101+02101999999ADDGA1021+004509999GF102991999999999999999999MA1101391999999MW1001REMMET052VVDN 110030Z VRB01MPS 7000 FEW015 21/21 Q1014 NOSIG;EQDQ01+000000PRSWM2
0244488550999992000011100004+16030+108180FM-12+0007VVDN V0209999C00001045001CN0200001N1+02161+02081101311ADDAA106000091GA1021+017509069GF107991021051017501031081IA2999+02009KA1120N+02181MA1999999101231MD1210151+0021REMSYN106AAXX  11001 48855 32770 70000 10216 20208 30123 40131 52015 82538 333 00021 20218 3/020 58002 82697 87299;EQDQ01  00002PRCP06
0146488550999992000011100304+16030+108180FM-15+0007VVDN V02099999999992200019N0070001N1+02301+02201999999ADDGA1021+004509999GF102991999999999999999999MA1101391999999MW1001REMMET052VVDN 110130Z VRB01MPS 7000 FEW015 23/22 Q1014 NOSIG;EQDQ01+000000PRSWM2
0169488550999992000011101304+16030+108180FM-15+0007VVDN V02099999999992200019N0112651N1+02401+02101999999ADDGA1021+004509999GA2021+015009999GF104991999999999999999999MA1101391999999MW1001REMMET059VVDN 110230Z VRB02MPS 9999 FEW015 SCT050 24/21 Q1014 NOSIG;EQDQ01+000000PRSWM2
0201488550999992000011103004+16030+108180FM-12+0007VVDN V0202001N00101045001CN0200001N1+02591+02151101401ADDAA106000091GA1021+017509069GF107991021051017501031081MA1999999101321MD1010091+0061REMSYN088AAXX  11031 48855 32770 72001 10259 20215 30132 40140 50009 82538 333 58006 82697 87299;EQDQ01  00002PRCP06
0146488550999992000011103304+16030+108180FM-15+0007VVDN V02099999999992200019N0112651N1+02701+02101999999ADDGA1021+004509999GF102991999999999999999999MA1101291999999MW1001REMMET052VVDN 110430Z VRB02MPS 9999 FEW015 27/21 Q1013 NOSIG;EQDQ01+000000PRSWM2
0154488550999992000011104304+16030+108180FM-15+0007VVDN V0201701N003012200019N0112651N1+02801+02101999999ADDGA1021+004509999GF104991999999999999999999MA1101191999999MW1001REMMET060VVDN 110530Z 17003MPS 100V240 9999 SCT015 28/21 Q1012 NOSIG;EQDQ01+000000PRSWM2
0154488550999992000011105304+16030+108180FM-15+0007VVDN V0201201N003012200019N0112651N1+02801+02201999999ADDGA1021+005109999GF102991999999999999999999MA1101081999999MW1001REMMET060VVDN 110630Z 12003MPS 070V160 9999 FEW017 28/22 Q1011 NOSIG;EQDQ01+000000PRSWM2
0201488550999992000011106004+16030+108180FM-12+0007VVDN V0201601N00101105001CN0200001N1+02901+02291101061ADDAA106000091GA1041+008009089GF107991041021008001001081MA1999999100981MD1710341-0091REMSYN088AAXX  11061 48855 32570 71601 10290 20229 30098 40106 57034 84208 333 59009 84895 87299;EQDQ01  00002PRCP06
0154488550999992000011106304+16030+108180FM-15+0007VVDN V0201201N004012200019N0112651N1+02801+02201999999ADDGA1021+005109999GF102991999999999999999999MA1101021999999MW1001REMMET060VVDN 110730Z 12004MPS 070V150 9999 FEW017 28/22 Q1010 NOSIG;EQDQ01+000000PRSWM2
0154488550999992000011107304+16030+108180FM-15+0007VVDN V0201101N004012200019N0112651N1+02701+02301999999ADDGA1021+005109999GF102991999999999999999999MA1101021999999MW1001REMMET060VVDN 110830Z 11004MPS 070V150 9999 FEW017 27/23 Q1010 NOSIG;EQDQ01+000000PRSWM2
0146488550999992000011108304+16030+108180FM-15+0007VVDN V0201201N004012200019N0112651N1+02601+02301999999ADDGA1021+005109999GF102991999999999999999999MA1101081999999MW1001REMMET052VVDN 110930Z 12004MPS 9999 FEW017 26/23 Q1011 NOSIG;EQDQ01+000000PRSWM2
0201488550999992000011109004+16030+108180FM-12+0007VVDN V0200901N00101105001CN0200001N1+02701+02351100981ADDAA106000091GA1021+008009089GF106991021021008001001081MA1999999100901MD1510081-0081REMSYN088AAXX  11091 48855 32570 60901 10270 20235 30090 40098 55008 82208 333 59008 82895 86299;EQDQ01  00002PRCP06
0146488550999992000011109304+16030+108180FM-15+0007VVDN V02099999999992200019N0070001N1+02501+02401999999ADDGA1021+002109999GF104991999999999999999999MA1101081999999MW1001REMMET052VVDN 111030Z VRB02MPS 7000 SCT007 25/24 Q1011 NOSIG;EQDQ01+000000PRSWM2
0146488550999992000011110304+16030+108180FM-15+0007VVDN V02099999999992200019N0070001N1+02401+02401999999ADDGA1021+002109999GF104991999999999999999999MA1101081999999MW1001REMMET052VVDN 111130Z VRB02MPS 7000 SCT007 24/24 Q1011 NOSIG;EQDQ01+000000PRSWM2
0146488550999992000011111304+16030+108180FM-15+0007VVDN V02099999999992200019N0070001N1+02401+02401999999ADDGA1021+002109999GF102991999999999999999999MA1101191999999MW1001REMMET052VVDN 111230Z VRB01MPS 7000 FEW007 24/24 Q1012 NOSIG;EQDQ01+000000PRSWM2
0232488550999992000011112004+16030+108180FM-12+0007VVDN V0201601N00101105001CN0200001N1+02481+02341101161ADDAA106000091GA1031+008009089GF107991031021008001001081KA1120M+02921MA1999999101081MD1210181-0111REMSYN106AAXX  11121 48855 32598 71601 10248 20234 30108 40116 52018 83208 333 00026 10292 59011 70000 83895 87299;EQDQ01  00002PRCP06
0169488550999992000011112304+16030+108180FM-15+0007VVDN V02099999999992200019N0070001N1+02501+02401999999ADDGA1021+002109999GA2021+012009999GF104991999999999999999999MA1101291999999MW1001REMMET059VVDN 111330Z VRB01MPS 7000 FEW007 SCT040 25/24 Q1013 NOSIG;EQDQ01+000000PRSWM2
0169488550999992000011113304+16030+108180FM-15+0007VVDN V02099999999992200019N0070001N1+02401+02401999999ADDGA1021+002109999GA2021+012009999GF104991999999999999999999MA1101191999999MW1001REMMET059VVDN 111430Z VRB01MPS 7000 FEW007 SCT040 24/24 Q1012 NOSIG;EQDQ01+000000PRSWM2
0169488550999992000011114304+16030+108180FM-15+0007VVDN V02099999999992200019N0070001N1+02401+02401999999ADDGA1021+002109999GA2021+012009999GF104991999999999999999999MA1101191999999MW1001REMMET059VVDN 111530Z VRB01MPS 7000 FEW007 SCT040 24/24 Q1012 NOSIG;EQDQ01+000000PRSWM2
0201488550999992000011115004+16030+108180FM-12+0007VVDN V0201601N00101008001CN0200001N1+02481+02361101171ADDAA106000091GA1061+008009089GF107991071081008001999999MA1999999101091MD1010011-0111REMSYN088AAXX  11151 48855 32598 71601 10248 20236 30109 40117 50001 878// 333 59011 86895 87697;EQDQ01  00002PRCP06
0082488550999992000011117004+16030+108180SAO  +0007VVDN V0209999C000012200019N9999999N1+99999+99999999999ADDMW1001REMAWY064VVDN 111730Z AUTO 17002MPS 7000 FEW010 SCT040 24/24 Q1012 NOSIG;
0201488550999992000011118004+16030+108180FM-12+0007VVDN V0201401N00101012001CN0200001N1+02481+02341101081ADDAA106000091GA1021+008009089GF107991071081008001999999MA1999999101001MD1710091-0141REMSYN088AAXX  11181 48855 32598 71401 10248 20234 30100 40108 57009 878// 333 59014 82895 87697;EQDQ01  00002PRCP06
0169488550999992000011118304+16030+108180FM-15+0007VVDN V0201801N001012200019N0070001N1+02401+02401999999ADDGA1021+003009999GA2021+012009999GF104991999999999999999999MA1101021999999MW1001REMMET059VVDN 111930Z 18001MPS 7000 FEW010 SCT040 24/24 Q1010 NOSIG;EQDQ01+000000PRSWM2
0169488550999992000011120304+16030+108180FM-15+0007VVDN V0201301N001010105019N0070001N1+02401+02401999999ADDGA1021+003009999GA2071+010509999GF107991999999999999999999MA1101081999999MW1001REMMET059VVDN 112130Z 13001MPS 7000 FEW010 BKN035 24/24 Q1011 NOSIG;EQDQ01+000000PRSWM2
0195488550999992000011121004+16030+108180FM-12+0007VVDN V0201401N001010080019N0200001N1+02441+02351101011ADDAA106000091GA1061+008009029GF106991061021008001999999MA1999999100931MD1610071-0151REMSYN082AAXX  11211 48855 32598 61401 10244 20235 30093 40101 56007 862// 333 59015 86895;EQDQ01  00002PRCP06
0169488550999992000011121304+16030+108180FM-15+0007VVDN V02099999999992200019N0070001N1+02301+02301999999ADDGA1021+003009999GA2021+010509999GF104991999999999999999999MA1101081999999MW1001REMMET059VVDN 112230Z VRB01MPS 7000 FEW010 SCT035 23/23 Q1011 NOSIG;EQDQ01+000000PRSWM2
0211488550999992000011122304+16030+108180FM-15+0007VVDN V02099999999990105019N0030001N1+02301+02301999999ADDGA1021+001509999GA2021+002109999GA3071+010509999GF107991999999999999999999MA1101191999999MW1101REMMET069VVDN 112330Z VRB01MPS 3000 BR FEW005 SCT007 BKN035 23/23 Q1012 NOSIG;EQDQ01+000003PRSWM1Q02    003PRSWM1
0188488550999992000011123304+16030+108180FM-15+0007VVDN V02099999999990090019N0040001N1+02401+02401999999ADDGA1021+001509999GA2071+009009999GF107991999999999999999999MA1101191999999MW1101REMMET062VVDN 120030Z VRB01MPS 4000 BR SCT005 BKN030 24/24 Q1012 NOSIG;EQDQ01+000003PRSWM1Q02    003PRSWM1
0294488550999992000011200004+16030+108180FM-12+0007VVDN V0200901N00101017501CN0040001N1+02401+02311101171ADDAA106000091AY121061AY221061GA1041+008009089GA2051+017509069GF107991061081008001001081IA2999+02309KA1120N+02391MA1999999101091MD1210161-0141MW1101REMSYN118AAXX  12001 48855 31596 70901 10240 20231 30109 40117 52016 71022 86808 333 00025 20239 3/023 59014 84895 85697 85299;EQDQ01  00002PRCP06
0188488550999992000011200304+16030+108180FM-15+0007VVDN V02099999999990090019N0050001N1+02501+02401999999ADDGA1021+002109999GA2071+009009999GF107991999999999999999999MA1101291999999MW1101REMMET062VVDN 120130Z VRB02MPS 5000 BR SCT007 BKN030 25/24 Q1013 NOSIG;EQDQ01+000003PRSWM1Q02    003PRSWM1
0146488550999992000011201304+16030+108180FM-15+0007VVDN V02099999999992200019N0070001N1+02601+02401999999ADDGA1021+003909999GF102991999999999999999999MA1101291999999MW1001REMMET052VVDN 120230Z VRB02MPS 7000 FEW013 26/24 Q1013 NOSIG;EQDQ01+000000PRSWM2
0146488550999992000011202304+16030+108180FM-15+0007VVDN V02099999999992200019N0080001N1+02701+02301999999ADDGA1021+004509999GF104991999999999999999999MA1101291999999MW1001REMMET052VVDN 120330Z VRB01MPS 8000 SCT015 27/23 Q1013 NOSIG;EQDQ01+000000PRSWM2
0201488550999992000011203004+16030+108180FM-12+0007VVDN V0201601N00101008001CN0100001N1+02841+02411101301ADDAA106000091GA1061+008009089GF107991061021008001001081MA1999999101221MD1010131-0101REMSYN088AAXX  12031 48855 32560 71601 10284 20241 30122 40130 50013 86208 333 59010 86895 87299;EQDQ01  00002PRCP06
0154488550999992000011203304+16030+108180FM-15+0007VVDN V0201201N003012200019N0112651N1+02701+02301999999ADDGA1021+004509999GF104991999999999999999999MA1101191999999MW1001REMMET060VVDN 120430Z 12003MPS 080V150 9999 SCT015 27/23 Q1012 NOSIG;EQDQ01+000000PRSWM2
0154488550999992000011204304+16030+108180FM-15+0007VVDN V0201201N004012200019N0112651N1+02801+02301999999ADDGA1021+004509999GF102991999999999999999999MA1101081999999MW1001REMMET060VVDN 120530Z 12004MPS 080V150 9999 FEW015 28/23 Q1011 NOSIG;EQDQ01+000000PRSWM2
0154488550999992000011205304+16030+108180FM-15+0007VVDN V0201201N005012200019N0112651N1+02801+02201999999ADDGA1021+004509999GF102991999999999999999999MA1101021999999MW1001REMMET060VVDN 120630Z 12005MPS 080V150 9999 FEW015 28/22 Q1010 NOSIG;EQDQ01+000000PRSWM2
0201488550999992000011206004+16030+108180FM-12+0007VVDN V0201101N00301008001CN0100001N1+02841+02321101011ADDAA106000091GA1051+008009089GF107991031021008001001081MA1999999100931MD1710291-0051REMSYN088AAXX  12061 48855 32560 71103 10284 20232 30093 40101 57029 83208 333 59005 85895 87299;EQDQ01  00002PRCP06
0154488550999992000011206304+16030+108180FM-15+0007VVDN V0201201N005012200019N0112651N1+02701+02201999999ADDGA1021+004509999GF102991999999999999999999MA1101021999999MW1001REMMET060VVDN 120730Z 12005MPS 080V150 9999 FEW015 27/22 Q1010 NOSIG;EQDQ01+000000PRSWM2
0154488550999992000011207304+16030+108180FM-15+0007VVDN V0201001N005012200019N0112651N1+02601+02301999999ADDGA1021+004509999GF102991999999999999999999MA1101021999999MW1001REMMET060VVDN 120830Z 10005MPS 060V140 9999 FEW015 26/23 Q1010 NOSIG;EQDQ01+000000PRSWM2
0200488550999992000011208304+16030+108180FM-15+0007VVDN V0201101N004010120019N0080001N1+02501+02401999999ADDGA1021+001509999GA2021+004509999GA3071+012009999GF107991999999999999999999MA1101021999999MW1001REMMET074VVDN 120930Z 11004MPS 070V150 8000 FEW005 SCT015 BKN040 25/24 Q1010 NOSIG;EQDQ01+000000PRSWM2
0201488550999992000011209004+16030+108180FM-12+0007VVDN V0200701N00501017501CN0100001N1+02581+02351100941ADDAA106000091GA1051+017509069GF107991051051017501001081MA1999999100861MD1610071-0041REMSYN088AAXX  12091 48855 32760 70705 10258 20235 30086 40094 56007 85508 333 59004 85697 87299;EQDQ01  00002PRCP06
0192488550999992000011209304+16030+108180FM-15+0007VVDN V02099999999990120019N0070001N1+02501+02401999999ADDGA1021+001509999GA2021+004509999GA3071+012009999GF107991999999999999999999MA1101021999999MW1001REMMET066VVDN 121030Z VRB02MPS 7000 FEW005 SCT015 BKN040 25/24 Q1010 NOSIG;EQDQ01+000000PRSWM2
0169488550999992000011210304+16030+108180FM-15+0007VVDN V02099999999990039019N0070001N1+02501+02401999999ADDGA1021+002109999GA2071+003909999GF107991999999999999999999MA1101081999999MW1001REMMET059VVDN 121130Z VRB01MPS 7000 SCT007 BKN013 25/24 Q1011 NOSIG;EQDQ01+000000PRSWM2
0146488550999992000011211304+16030+108180FM-15+0007VVDN V0201801N002012200019N0070001N1+02501+02401999999ADDGA1021+003909999GF104991999999999999999999MA1101191999999MW1001REMMET052VVDN 121230Z 18002MPS 7000 SCT013 25/24 Q1012 NOSIG;EQDQ01+000000PRSWM2
0232488550999992000011212004+16030+108180FM-12+0007VVDN V0201401N00101017501CN0100001N1+02511+02321101081ADDAA106000091GA1061+017509069GF107991061051017501001081KA1120M+02901MA1999999101001MD1210141-0081REMSYN106AAXX  12121 48855 32797 71401 10251 20232 30100 40108 52014 86508 333 00027 10290 59008 70000 86697 87299;EQDQ01  00002PRCP06
0146488550999992000011212304+16030+108180FM-15+0007VVDN V02099999999992200019N0070001N1+02401+02401999999ADDGA1021+004509999GF102991999999999999999999MA1101191999999MW1001REMMET052VVDN 121330Z VRB02MPS 7000 FEW015 24/24 Q1012 NOSIG;EQDQ01+000000PRSWM2
0169488550999992000011213304+16030+108180FM-15+0007VVDN V02099999999992200019N0070001N1+02401+02401999999ADDGA1021+001809999GA2021+004509999GF104991999999999999999999MA1101191999999MW1001REMMET059VVDN 121430Z VRB01MPS 7000 FEW006 SCT015 24/24 Q1012 NOSIG;EQDQ01+000000PRSWM2
0223488550999992000011215004+16030+108180FM-12+0007VVDN V0201101N00101017501CN0100001N1+02491+02331101141ADDAA106000091GA1041+008009089GA2061+017509069GF107991061081008001001081MA1999999101061MD1010061-0031REMSYN094AAXX  12151 48855 32597 71101 10249 20233 30106 40114 50006 86808 333 59003 84895 86697 87299;EQDQ01  00002PRCP06
0195488550999992000011218004+16030+108180FM-12+0007VVDN V0201601N00101012001CN0100001N1+02401+02321101091ADDAA106000091GA1031+008009089GF107991071081008001999999MA1999999101011MD1999999+0011REMSYN082AAXX  12181 48855 32597 71601 10240 20232 30101 40109 878// 333 58001 83895 87697;EQDQ01  00002PRCP06
0075488550999992000011219004+16030+108180SAO  +0007VVDN V0209999C000012200019N9999999N1+99999+99999999999ADDMW1001REMAWY057VVDN 121930Z AUTO 19002MPS 8000 SCT007 24/23 Q1010 NOSIG;
0075488550999992000011220004+16030+108180SAO  +0007VVDN V0209999C000012200019N9999999N1+99999+99999999999ADDMW1001REMAWY057VVDN 122030Z AUTO 20001MPS 6000 SCT007 24/24 Q1010 NOSIG;
0201488550999992000011221004+16030+108180FM-12+0007VVDN V0209999C00001012001CN0100001N1+02371+02311100951ADDAA106000091GA1021+008009089GF107991071081008001999999MA1999999100871MD1710141-0061REMSYN088AAXX  12211 48855 32597 70000 10237 20231 30087 40095 57014 878// 333 59006 82895 87697;EQDQ01  00002PRCP06
0165488550999992000011222304+16030+108180FM-15+0007VVDN V0202001N001012200019N0028001N1+02301+02301999999ADDGA1021+001209999GF104991999999999999999999MA1101081999999MW1101REMMET055VVDN 122330Z 20001MPS 2800 BR SCT004 23/23 Q1011 NOSIG;EQDQ01+000003PRSWM1Q02    003PRSWM1
0165488550999992000011223304+16030+108180FM-15+0007VVDN V02099999999992200019N0030001N1+02301+02301999999ADDGA1021+003009999GF104991999999999999999999MA1101191999999MW1101REMMET055VVDN 130030Z VRB01MPS 3000 BR SCT010 23/23 Q1012 NOSIG;EQDQ01+000003PRSWM1Q02    003PRSWM1
0272488550999992000011300004+16030+108180FM-12+0007VVDN V0209999C00001012001CN0040001N1+02361+02301101091ADDAA106000091AY121061AY221061GA1021+008009089GF107991071081008001999999IA2999+02209KA1120N+02341MA1999999101011MD1210141-0081MW1101REMSYN112AAXX  13001 48855 31596 70000 10236 20230 30101 40109 52014 71022 878// 333 00024 20234 3/022 59008 82895 87697;EQDQ01  00002PRCP06
0169488550999992000011300304+16030+108180FM-15+0007VVDN V02099999999992200019N0070001N1+02501+02401999999ADDGA1021+002109999GA2021+004509999GF104991999999999999999999MA1101191999999MW1001REMMET059VVDN 130130Z VRB01MPS 7000 FEW007 SCT015 25/24 Q1012 NOSIG;EQDQ01+000000PRSWM2
0146488550999992000011301304+16030+108180FM-15+0007VVDN V02099999999992200019N0070001N1+02601+02401999999ADDGA1021+003009999GF104991999999999999999999MA1101291999999MW1001REMMET052VVDN 130230Z VRB02MPS 7000 SCT010 26/24 Q1013 NOSIG;EQDQ01+000000PRSWM2
0146488550999992000011302304+16030+108180FM-15+0007VVDN V02099999999992200019N0080001N1+02501+02301999999ADDGA1021+003909999GF102991999999999999999999MA1101191999999MW1001REMMET052VVDN 130330Z VRB01MPS 8000 FEW013 25/23 Q1012 NOSIG;EQDQ01+000000PRSWM2
0201488550999992000011303004+16030+108180FM-12+0007VVDN V0209999C00001017501CN0100001N1+02681+02301101201ADDAA106000091GA1051+017509069GF107991051051017501001081MA1999999101121MD1010111-0101REMSYN088AAXX  13031 48855 32760 70000 10268 20230 30112 40120 50011 85508 333 59010 85697 87299;EQDQ01  00002PRCP06
0154488550999992000011303304+16030+108180FM-15+0007VVDN V0201201N003012200019N0112651N1+02601+02301999999ADDGA1021+004509999GF104991999999999999999999MA1101081999999MW1001REMMET060VVDN 130430Z 12003MPS 080V190 9999 SCT015 26/23 Q1011 NOSIG;EQDQ01+000000PRSWM2
0154488550999992000011304304+16030+108180FM-15+0007VVDN V0201301N003012200019N0112651N1+02701+02301999999ADDGA1021+004509999GF104991999999999999999999MA1101021999999MW1001REMMET060VVDN 130530Z 13003MPS 100V170 9999 SCT015 27/23 Q1010 NOSIG;EQDQ01+000000PRSWM2
0154488550999992000011305304+16030+108180FM-15+0007VVDN V0201001N004012200019N0112651N1+02701+02301999999ADDGA1021+004509999GF102991999999999999999999MA1100911999999MW1001REMMET060VVDN 130630Z 10004MPS 070V150 9999 FEW015 27/23 Q1009 NOSIG;EQDQ01+000000PRSWM2
0201488550999992000011306004+16030+108180FM-12+0007VVDN V0200901N00201008001CN0200001N1+02711+02311100911ADDAA106000091GA1061+008009089GF107991061021008001001081MA1999999100831MD1710291-0101REMSYN088AAXX  13061 48855 32570 70902 10271 20231 30083 40091 57029 86208 333 59010 86895 87299;EQDQ01  00002PRCP06
0154488550999992000011306304+16030+108180FM-15+0007VVDN V0201101N004012200019N0112651N1+02701+02301999999ADDGA1021+004509999GF104991999999999999999999MA1100911999999MW1001REMMET060VVDN 130730Z 11004MPS 080V150 9999 SCT015 27/23 Q1009 NOSIG;EQDQ01+000000PRSWM2
0154488550999992000011307304+16030+108180FM-15+0007VVDN V0201101N004012200019N0112651N1+02601+02301999999ADDGA1021+004509999GF104991999999999999999999MA1100811999999MW1001REMMET060VVDN 130830Z 11004MPS 080V150 9999 SCT015 26/23 Q1008 NOSIG;EQDQ01+000000PRSWM2
0201488550999992000011309004+16030+108180FM-12+0007VVDN V0200901N00501105001CN0200001N1+02601+02321100801ADDAA106000091GA1041+008009089GF107991041021008001001081MA1999999100721MD1610111-0141REMSYN088AAXX  13091 48855 32570 70905 10260 20232 30072 40080 56011 84208 333 59014 84895 87299;EQDQ01  00002PRCP06
0200488550999992000011309304+16030+108180FM-15+0007VVDN V0201301N003010105019N0112651N1+02501+02301999999ADDGA1021+002109999GA2021+003009999GA3071+010509999GF107991999999999999999999MA1100911999999MW1001REMMET074VVDN 131030Z 13003MPS 100V180 9999 FEW007 SCT010 BKN035 25/23 Q1009 NOSIG;EQDQ01+000000PRSWM2
0169488550999992000011310304+16030+108180FM-15+0007VVDN V02099999999990105019N0070001N1+02501+02301999999ADDGA1021+002109999GA2071+010509999GF107991999999999999999999MA1101021999999MW1001REMMET059VVDN 131130Z VRB02MPS 7000 FEW007 BKN035 25/23 Q1010 NOSIG;EQDQ01+000000PRSWM2
0192488550999992000011311304+16030+108180FM-15+0007VVDN V02099999999990105019N0070001N1+02401+02301999999ADDGA1021+002109999GA2021+003009999GA3071+010509999GF107991999999999999999999MA1101021999999MW1001REMMET066VVDN 131230Z VRB02MPS 7000 FEW007 SCT010 BKN035 24/23 Q1010 NOSIG;EQDQ01+000000PRSWM2
0232488550999992000011312004+16030+108180FM-12+0007VVDN V0200901N00101008001CN0200001N1+02501+02321100961ADDAA106000091GA1061+008009089GF107991071081008001999999KA1120M+02781MA1999999100881MD1210161-0121REMSYN106AAXX  13121 48855 32598 70901 10250 20232 30088 40096 52016 878// 333 00027 10278 59012 70000 86895 83697;EQDQ01  00002PRCP06
0169488550999992000011312304+16030+108180FM-15+0007VVDN V02099999999990105019N0070001N1+02501+02301999999ADDGA1021+003009999GA2071+010509999GF107991999999999999999999MA1101081999999MW1001REMMET059VVDN 131330Z VRB02MPS 7000 SCT010 BKN035 25/23 Q1011 NOSIG;EQDQ01+000000PRSWM2
0169488550999992000011313304+16030+108180FM-15+0007VVDN V02099999999990105019N0070001N1+02401+02301999999ADDGA1021+003009999GA2071+010509999GF107991999999999999999999MA1101081999999MW1001REMMET059VVDN 131430Z VRB02MPS 7000 SCT010 BKN035 24/23 Q1011 NOSIG;EQDQ01+000000PRSWM2
0195488550999992000011315004+16030+108180FM-12+0007VVDN V0201601N001010080019N0200001N1+02471+02311101081ADDAA106000091GA1061+008009029GF106991061021008001999999MA1999999101001MD1110121-0061REMSYN082AAXX  13151 48855 32598 61601 10247 20231 30100 40108 51012 862// 333 59006 86895;EQDQ01  00002PRCP06
0217488550999992000011318004+16030+108180FM-12+0007VVDN V0201401N00101008001CN0200001N1+02461+02311101001ADDAA106000091GA1061+008009089GF106991999081008001999999MA1999999100921MD1710081-0091REMSYN088AAXX  13181 48855 32598 61401 10246 20231 30092 40100 57008 888// 333 59009 86895 88696;EQDQ01+000082SCOTLCQ02  00002PRCP06
0082488550999992000011320004+16030+108180SAO  +0007VVDN V0209999C000012200019N9999999N1+99999+99999999999ADDMW1001REMAWY064VVDN 132030Z AUTO 22002MPS 7000 SCT010 BKN035 24/23 Q1009 NOSIG;
0205488550999992000011321004+16030+108180FM-12+000799999V0209999C00001008001CN0200001N1+02421+02301100881ADDAA199000091GA1061+008009089GF107991071081008001999999MA1999999100801MD1610121-0071REMSYN092    AAXX  13211 48855 32598 70000 10242 20230 30080 40088 56012 878// 333 59007 86895 86697;EQDQ01  00002PRCP99
0169488550999992000011321304+16030+108180FM-15+0007VVDN V02099999999990120019N0060001N1+02401+02301999999ADDGA1021+003009999GA2071+012009999GF107991999999999999999999MA1101021999999MW1001REMMET059VVDN 132230Z VRB02MPS 6000 SCT010 BKN040 24/23 Q1010 NOSIG;EQDQ01+000000PRSWM2
0169488550999992000011322304+16030+108180FM-15+0007VVDN V02099999999990120019N0060001N1+02401+02301999999ADDGA1021+004509999GA2071+012009999GF107991999999999999999999MA1101081999999MW1001REMMET059VVDN 132330Z VRB02MPS 6000 FEW015 BKN040 24/23 Q1011 NOSIG;EQDQ01+000000PRSWM2
0188488550999992000011323304+16030+108180FM-15+0007VVDN V02099999999992200019N0050001N1+02401+02301999999ADDGA1021+001509999GA2021+003909999GF104991999999999999999999MA1101081999999MW1101REMMET062VVDN 140030Z VRB02MPS 5000 BR FEW005 SCT013 24/23 Q1011 NOSIG;EQDQ01+000003PRSWM1Q02    003PRSWM1
0276488550999992000011400004+16030+108180FM-12+000799999V0201401N00101008001CN0040001N1+02421+02301101091ADDAA199000091AY121061AY221061GA1061+008009089GF107991061021008001001081IA2999+02409KA1120N+02391MA1999999101011MD1210211+0001MW1101REMSYN116    AAXX  14001 48855 31596 71401 10242 20230 30101 40109 52021 71022 86208 333 00024 20239 3/024 58000 86895 87299;EQDQ01  00002PRCP99
0169488550999992000011400304+16030+108180FM-15+0007VVDN V02099999999992200019N0060001N1+02401+02401999999ADDGA1021+001509999GA2021+004509999GF104991999999999999999999MA1101191999999MW1001REMMET059VVDN 140130Z VRB02MPS 6000 FEW005 SCT015 24/24 Q1012 NOSIG;EQDQ01+000000PRSWM2
0169488550999992000011401304+16030+108180FM-15+0007VVDN V02099999999990090019N0060001N1+02501+02301999999ADDGA1021+003009999GA2071+009009999GF107991999999999999999999MA1101191999999MW1001REMMET059VVDN 140230Z VRB01MPS 6000 FEW010 BKN030 25/23 Q1012 NOSIG;EQDQ01+000000PRSWM2
0169488550999992000011402304+16030+108180FM-15+0007VVDN V02099999999990090019N0070001N1+02601+02301999999ADDGA1021+003009999GA2071+009009999GF107991999999999999999999MA1101191999999MW1001REMMET059VVDN 140330Z VRB02MPS 7000 FEW010 BKN030 26/23 Q1012 NOSIG;EQDQ01+000000PRSWM2
0205488550999992000011403004+16030+108180FM-12+000799999V0201401N00101008001CN0100001N1+02601+02341101201ADDAA199000091GA1061+008009089GF108991081081008001999999MA1999999101121MD1110111+0001REMSYN092    AAXX  14031 48855 32560 81401 10260 20234 30112 40120 51011 888// 333 58000 86895 88696;EQDQ01  00002PRCP99
0169488550999992000011403304+16030+108180FM-15+0007VVDN V02099999999990120019N0070001N1+02501+02301999999ADDGA1021+003909999GA2071+012009999GF107991999999999999999999MA1101191999999MW1001REMMET059VVDN 140430Z VRB02MPS 7000 SCT013 BKN040 25/23 Q1012 NOSIG;EQDQ01+000000PRSWM2
0177488550999992000011404304+16030+108180FM-15+0007VVDN V0201201N003010105019N0080001N1+02501+02301999999ADDGA1021+003009999GA2071+010509999GF107991999999999999999999MA1101081999999MW1001REMMET067VVDN 140530Z 12003MPS 090V160 8000 FEW010 BKN035 25/23 Q1011 NOSIG;EQDQ01+000000PRSWM2
0177488550999992000011405304+16030+108180FM-15+0007VVDN V0201201N003010105019N0080001N1+02601+02301999999ADDGA1021+003009999GA2071+010509999GF107991999999999999999999MA1101021999999MW1001REMMET067VVDN 140630Z 12003MPS 080V190 8000 FEW010 BKN035 26/23 Q1010 NOSIG;EQDQ01+000000PRSWM2
