0175508340999992000102806004+46500+121360FM-12+042799999V0202701N006012200019N0300001N1+00391-01221102541ADDAA199000091GA1001+999999999GF100991001001999999001001KA1999N-00871MD1710141+9999REMSYN064AAXX  28061 50834 32980 02706 10039 21122 40254 57014 333 21087;EQDQ01  00002PRCP99
