0135528560999992000012412004+36350+100780FM-12+274399999V0209999C999999999999N0200001N1-00561-01991999999ADDAA199000091MA1999999077371MD1210111+0041REMSYN064AAXX  24121 52856 32970 /8700 11056 21199 37737 52011 333 00400;EQDQ01  00002PRCP99
0186528560999992000021618004+36350+100780FM-12+274399999V0200401N004019999999N0300001N1-00171-01931999999ADDAA199000091GF107991001001999999001081KA1999M+00611MA1999999071301MD1710121-0601REMSYN076AAXX  16181 52856 32980 70404 11017 21193 37130 57012 80008 333 05609 10061;EQDQ01  00002PRCP99
0219528560999992000102806004+36340+100770FM-12+274399999V0202901N014012200019N0250001N1+00461-01921999999ADDAA199000091GA1001+999999999GF100991001001999999001001KA1240N-00141MA1999999073131MD1710131+0601OA130602401REMSYN082AAXX  28061 52856 32975 02914 10046 21192 37313 57013 333 00601 21014 91124 91529;EQDQ01  00002PRCP99
