0183549160999992000010100004+35570+116850FM-12+005399999V0202401N002019999999N0100001N1+00511+00461102181ADDAA106000391AY161061GF108991081001999999021999IA2999+00159MD1210031-0401MW1001REMSYN094AAXX  01001 54916 11960 82402 10051 20046 40218 52003 69931 70060 8802/ 333 05406 30015 70014;
0124549160999992000010103004+35570+116850FM-12+005399999V0202901N003019999999N0060001N1+00481+00381102251ADDGF108991081001999999071999MD1210071+9999MW1101REMSYN066AAXX  01031 54916 41956 82903 10048 20038 40225 52007 71000 8807/;
0177549160999992000010106004+35570+116850FM-12+005399999V0202901N002019999999N0030001N1+00501+00381102021ADDAA106000091GF108991081001999999071999KA1999N+00321MD1710231+9999MW1101REMSYN076AAXX  01061 54916 31930 82902 10050 20038 40202 57023 71000 8807/ 333 20032;EQDQ01  00002PRCP06
0124549160999992000010109004+35570+116850FM-12+005399999V0203201N005019999999N0030001N1+00411+00311102081ADDGF108991081001999999071999MD1210061+9999MW1101REMSYN066AAXX  01091 54916 41930 83205 10041 20031 40208 52006 71000 8807/;
0177549160999992000010118004+35570+116850FM-12+005399999V0202901N003019999999N0080001N1+00171+00061102401ADDAA106000091GF108991081001999999071999KA1999M+00591MD1210101+9999MW1101REMSYN076AAXX  01181 54916 31958 82903 10017 20006 40240 52010 71000 8807/ 333 10059;EQDQ01  00002PRCP06
0124549160999992000010121004+35570+116850FM-12+005399999V0202901N002019999999N0050001N1-00041-00071102381ADDGF108991081001999999021999MD1710021+9999MW1101REMSYN066AAXX  01211 54916 41950 82902 11004 21007 40238 57002 71000 8802/;
0182549160999992000010200004+35570+116850FM-12+005399999V0202901N002019999999N0007001N1-00081-00121102521ADDAA106000091GF108991081001999999021999IA2999-00209MD1210141+0301MW1461REMSYN082AAXX  02001 54916 31907 82902 11008 21012 40252 52014 74600 8802/ 333 00356 31023;EQDQ01  00002PRCP06
0140549160999992000010203004+35570+116850FM-12+005399999V0201401N002019999999N0017001N1-00061-00101102621ADDAY141031AY241031GF108991081001999999031999MD1210091+9999MW1281REMSYN066AAXX  02031 54916 41917 81402 11006 21010 40262 52009 72844 8803/;
0195549160999992000010206004+35570+116850FM-12+005399999V0201801N002012200019N0100001N1+00461-00081102311ADDAA106000091AY141061GA1001+999999999GF100991001001999999001001KA1999N-00151MD1710301+9999MW1001REMSYN070AAXX  02061 54916 31960 01802 10046 21008 40231 57030 70040 333 21015;EQDQ01  00002PRCP06
0122549160999992000010209004+35570+116850FM-12+005399999V0201801N002012200019N0100001N1+00401+00031102221ADDGA1001+999999999GF100991001001999999001001MD1710091+9999REMSYN054AAXX  02091 54916 42960 01802 10040 20003 40222 57009;
0152549160999992000010212004+35570+116850FM-12+005399999V0200701N002012200019N0100001N1-00081-00171102211ADDAA106000091GA1001+999999999GF100991001001999999001001MD1710021+9999REMSYN054AAXX  02121 54916 32960 00702 11008 21017 40221 57002;EQDQ01  00002PRCP06
0175549160999992000010218004+35570+116850FM-12+005399999V0200701N002012200019N0100001N1-00121-00241102241ADDAA106000091GA1001+999999999GF100991001001999999001001KA1999M+00551MD1210011+9999REMSYN064AAXX  02181 54916 32960 00702 11012 21024 40224 52001 333 10055;EQDQ01  00002PRCP06
0122549160999992000010221004+35570+116850FM-12+005399999V0200901N004012200019N0100001N1-00061-00271102061ADDGA1001+999999999GF100991001001999999001001MD1710181+9999REMSYN054AAXX  02211 54916 42960 00904 11006 21027 40206 57018;
0170549160999992000010300004+35570+116850FM-12+005399999V0200201N002012200019N0100001N1-00121-00341102161ADDAA106000091GF101991001001999999001021IA2999-00409MD1210091-0401REMSYN076AAXX  03001 54916 32960 10202 11012 21034 40216 52009 80002 333 05400 31047;EQDQ01  00002PRCP06
0122549160999992000010303004+35570+116850FM-12+005399999V0201401N004012200019N0100001N1+00471-00271102101ADDGA1001+999999999GF100991001001999999001001MD1710051+9999REMSYN054AAXX  03031 54916 42960 01404 10047 21027 40210 57005;
0175549160999992000010306004+35570+116850FM-12+005399999V0201601N007012200019N0100001N1+00851-00541101871ADDAA106000091GA1001+999999999GF100991001001999999001001KA1999N-00191MD1710221+9999REMSYN064AAXX  03061 54916 32960 01607 10085 21054 40187 57022 333 21019;EQDQ01  00002PRCP06
0122549160999992000010309004+35570+116850FM-12+005399999V0201601N002012200019N0100001N1+00691-00101101881ADDGA1001+999999999GF100991001001999999001001MD1210011+9999REMSYN054AAXX  03091 54916 42960 01602 10069 21010 40188 52001;
0152549160999992000010312004+35570+116850FM-12+005399999V0200401N002012200019N0100001N1+00091-00141102031ADDAA106000091GA1001+999999999GF100991001001999999001001MD1210141+9999REMSYN054AAXX  03121 54916 32960 00402 10009 21014 40203 52014;EQDQ01  00002PRCP06
0165549160999992000010318004+35570+116850FM-12+005399999V0200701N002019999999N0100001N1+00081-00031102131ADDAA106000091GF106991061001999999041001KA1999M+00891MD1210041+9999REMSYN070AAXX  03181 54916 32960 60702 10008 21003 40213 52004 86040 333 10089;EQDQ01  00002PRCP06
0112549160999992000010321004+35570+116850FM-12+005399999V0200701N002019999999N0100001N1+00261+00101101901ADDGF108991081001999999071999MD1710231+9999REMSYN060AAXX  03211 54916 42960 80702 10026 20010 40190 57023 8807/;
0170549160999992000010400004+35570+116850FM-12+005399999V0200401N002010120019N0100001N1+00321+00221102031ADDAA106000091GF108991081051012501999999IA2999-00109MD1210121-0101REMSYN076AAXX  04001 54916 32660 80402 10032 20022 40203 52012 885// 333 05104 31013;EQDQ01  00002PRCP06
0112549160999992000010403004+35570+116850FM-12+005399999V0200701N003019999999N0100001N1+00531+00361102001ADDGF108991081001999999071999MD1710021+9999REMSYN060AAXX  04031 54916 42960 80703 10053 20036 40200 57002 8807/;
0164549160999992000010406004+35570+116850FM-12+005399999V0200201N004019999999N0100001N1+00561+00371101761ADDAA106000791GF108991081001999999071999KA1999N-00021MD1710241+9999MW1601REMSYN082AAXX  04061 54916 11960 80204 10056 20037 40176 57024 69901 76000 8807/ 333 21002;
0132549160999992000010409004+35570+116850FM-12+005399999V0200201N003019999999N0100001N1+00541+00421101661ADDAY161031GF108991081001999999071999MD1710101+9999MW1601REMSYN066AAXX  04091 54916 41960 80203 10054 20042 40166 57010 76060 8807/;
0149549160999992000010412004+35570+116850FM-12+005399999V0203201N003019999999N0100001N1+00521+00471101791ADDAA106003091AY161061GF108991081001999999071999MD1210131+9999MW1601REMSYN072AAXX  04121 54916 11960 83203 10052 20047 40179 52013 60031 76060 8807/;
0172549160999992000010418004+35570+116850FM-12+005399999V0200401N002019999999N0100001N1+00211+00181101691ADDAA106001091AY161061GF108991081001999999071999KA1999M+00601MD1710141+9999MW1001REMSYN082AAXX  04181 54916 11960 80402 10021 20018 40169 57014 60011 70060 8807/ 333 10060;
0133549160999992000010421004+35570+116850FM-12+005399999V0203201N005019999999N0100001N1+99999+99999101781ADDAA124004191GF108991081001999999071999MD1210091+9999REMSYN070AAXX  04211 54916 42960 83205 16004 21002 40178 52009 8807/ 333 70040;
0188549160999992000010500004+35570+116850FM-12+005399999V0203201N002019999999N0080001N1+00121+00071101771ADDAA106000091GF108991081001999999071999IA2999+00049MD1710011-0301MW1101REMSYN088AAXX  05001 54916 31958 83202 10012 20007 40177 57001 71000 8807/ 333 05352 30004 70040;EQDQ01  00002PRCP06
0112549160999992000010503004+35570+116850FM-12+005399999V0203401N003019999999N0100001N1+00111+00031101871ADDGF108991081001999999071999MD1210091+9999REMSYN060AAXX  05031 54916 42960 83403 10011 20003 40187 52009 8807/;
0164549160999992000010506004+35570+116850FM-12+005399999V0202901N004019999999N0070001N1+00031+00001101731ADDAA106000791GF108991081001999999071999KA1999N+00011MD1710141+9999MW1601REMSYN082AAXX  05061 54916 11957 82904 10003 20000 40173 57014 69901 76000 8807/ 333 20001;
0140549160999992000010509004+35570+116850FM-12+005399999V0203201N005019999999N0100001N1+00021-00071101881ADDAY161031AY261031GF108991081001999999071999MD1210151+9999MW1601REMSYN066AAXX  05091 54916 41960 83205 10002 21007 40188 52015 76066 8807/;
0157549160999992000010512004+35570+116850FM-12+005399999V0203201N004019999999N0080001N1+00041-00051102161ADDAA106002091AY161061AY261061GF108991081001999999071999MD1210281+9999MW1601REMSYN072AAXX  05121 54916 11958 83204 10004 21005 40216 52028 60021 76066 8807/;
0172549160999992000010518004+35570+116850FM-12+005399999V0203201N004019999999N0100001N1-00061-00151102351ADDAA106000791AY161061GF108991081001999999071999KA1999M+00291MD1210091+9999MW1001REMSYN082AAXX  05181 54916 11960 83204 11006 21015 40235 52009 69901 70060 8807/ 333 10029;
0133549160999992000010521004+35570+116850FM-12+005399999V0203201N006019999999N0100001N1-00131-00191102441ADDAA124001591GF108991081001999999071999MD1210081+9999REMSYN070AAXX  05211 54916 42960 83206 11013 21019 40244 52008 8807/ 333 70016;
0112549160999992000010603004+35570+116850FM-12+005399999V0203601N004019999999N0100001N1+00111-00391102751ADDGF106991001001999999001021MD1210171+9999REMSYN060AAXX  06031 54916 42960 63604 10011 21039 40275 52017 80002;
0175549160999992000010606004+35570+116850FM-12+005399999V0203601N004012200019N0120001N1+00321-00561102551ADDAA106000091GA1001+999999999GF100991001001999999001001KA1999N-00191MD1710191+9999REMSYN064AAXX  06061 54916 32962 03604 10032 21056 40255 57019 333 21019;EQDQ01  00002PRCP06
0122549160999992000010609004+35570+116850FM-12+005399999V0203601N003012200019N0100001N1+00111-00891102681ADDGA1001+999999999GF100991001001999999001001MD1210121+9999REMSYN054AAXX  06091 54916 42960 03603 10011 21089 40268 52012;
0152549160999992000010612004+35570+116850FM-12+005399999V0200201N002012200019N0100001N1-00221-00651102891ADDAA106000091GA1001+999999999GF100991001001999999001001MD1210211+9999REMSYN054AAXX  06121 54916 32960 00202 11022 21065 40289 52021;EQDQ01  00002PRCP06
0122549160999992000010621004+35570+116850FM-12+005399999V0200201N003012200019N0100001N1-00741-01401103151ADDGA1001+999999999GF100991001001999999001001MD1710021+9999REMSYN054AAXX  06211 54916 42960 00203 11074 21140 40315 57002;
0152549160999992000010700004+35570+116850FM-12+005399999V0200901N002019999999N0100001N1-00791-01551103171ADDAA106000091GF105991001001999999001021MD1210021+0061REMSYN070AAXX  07001 54916 32960 50902 11079 21155 40317 52002 80002 333 00656;EQDQ01  00002PRCP06
0112549160999992000010703004+35570+116850FM-12+005399999V0200901N004012200019N0100001N1-00351-02171103191ADDGF102991001001999999001021MD1210021+9999REMSYN060AAXX  07031 54916 42960 20904 11035 21217 40319 52002 80002;
0165549160999992000010706004+35570+116850FM-12+005399999V0201101N002012200019N0100001N1-00161-02111102821ADDAA106000091GF102991001001999999001021KA1999N-00881MD1710371+9999REMSYN070AAXX  07061 54916 32960 21102 11016 21211 40282 57037 80002 333 21088;EQDQ01  00002PRCP06
0112549160999992000010709004+35570+116850FM-12+005399999V0201401N003019999999N0100001N1-00131-01661102631ADDGF107991071001999999031999MD1710191+9999REMSYN060AAXX  07091 54916 42960 71403 11013 21166 40263 57019 8703/;
0142549160999992000010712004+35570+116850FM-12+005399999V0201801N005019999999N0100001N1-00161-01331102581ADDAA106000091GF108991081001999999071999MD1710051+9999REMSYN060AAXX  07121 54916 32960 81805 11016 21133 40258 57005 8807/;EQDQ01  00002PRCP06
0165549160999992000010718004+35570+116850FM-12+005399999V0200701N001010120019N0150001N1-00231-00851102511ADDAA106000091GF108991081051012501999999KA1999M-00091MD1710061+9999REMSYN070AAXX  07181 54916 32665 80701 11023 21085 40251 57006 885// 333 11009;EQDQ01  00002PRCP06
0112549160999992000010721004+35570+116850FM-12+005399999V0209999C000019999999N0100001N1-00211-00641102421ADDGF108991081001999999021999MD1710091+9999REMSYN060AAXX  07211 54916 42960 80000 11021 21064 40242 57009 8802/;
0170549160999992000010800004+35570+116850FM-12+005399999V0200901N002019999999N0100001N1-00171-00711102471ADDAA106000091GF108991081001999999021999IA2999-00409MD1210051-0701REMSYN076AAXX  08001 54916 32960 80902 11017 21071 40247 52005 8802/ 333 05706 31040;EQDQ01  00002PRCP06
0112549160999992000010803004+35570+116850FM-12+005399999V0200901N003019999999N0100001N1-00011-00661102571ADDGF108991081001999999021999MD1210101+9999REMSYN060AAXX  08031 54916 42960 80903 11001 21066 40257 52010 8802/;
0165549160999992000010806004+35570+116850FM-12+005399999V0200901N003019999999N0100001N1+00101-00361102281ADDAA106000091GF108991081001999999071999KA1999N-00291MD1710291+9999REMSYN070AAXX  08061 54916 32960 80903 10010 21036 40228 57029 8807/ 333 21029;EQDQ01  00002PRCP06
0112549160999992000010809004+35570+116850FM-12+005399999V0200201N001019999999N0100001N1+00141-00381102251ADDGF108991081001999999071999MD1710021+9999REMSYN060AAXX  08091 54916 42960 80201 10014 21038 40225 57002 8807/;
0142549160999992000010812004+35570+116850FM-12+005399999V0200701N003010120019N0100001N1+00061-00311102291ADDAA106000091GF108991081051012501999999MD1210031+9999REMSYN060AAXX  08121 54916 32660 80703 10006 21031 40229 52003 885//;EQDQ01  00002PRCP06
0165549160999992000010818004+35570+116850FM-12+005399999V0200201N002010120019N0100001N1+00061-00171102261ADDAA106000091GF108991081051012501999999KA1999M+00171MD1710081+9999REMSYN070AAXX  08181 54916 32660 80202 10006 21017 40226 57008 885// 333 10017;EQDQ01  00002PRCP06
0100549160999992000010821004+35570+116850FM-12+005399999V0200401N002010120019N0100001N1+00031+99999999999ADDGF108991081051012501999999MD1710191+9999REMSYN048AAXX  08211 54916 42660 80402 10003 57019 885//;
0183549160999992000010900004+35570+116850FM-12+005399999V0200401N002010120019N0100001N1+00101-00041102061ADDAA106000791AY161061GF108991081051012501999999IA2999-00079MD1710011-0401MW1211REMSYN094AAXX  09001 54916 11660 80402 10010 21004 40206 57001 69901 72160 885// 333 05403 31007 79999;
0124549160999992000010903004+35570+116850FM-12+005399999V0203601N002010120019N0060001N1+00111+00061102311ADDGF108991081051012501999999MD1210251+9999MW1101REMSYN066AAXX  09031 54916 41656 83602 10011 20006 40231 52025 71000 885//;
0124549160999992000010909004+35570+116850FM-12+005399999V0203601N001019999999N0070001N1+00281+00201102141ADDGF108991081001999999021999MD1410001+9999MW1101REMSYN066AAXX  09091 54916 41957 83601 10028 20020 40214 54000 71000 8802/;
0154549160999992000010912004+35570+116850FM-12+005399999V0200201N001019999999N0050001N1+00291+00191102351ADDAA106000091GF108991081001999999021999MD1210211+9999MW1101REMSYN066AAXX  09121 54916 31950 80201 10029 20019 40235 52021 71000 8802/;EQDQ01  00002PRCP06
0172549160999992000010918004+35570+116850FM-12+005399999V0203401N003010120019N0080001N1+00221+00191102621ADDAA106000791AY161061GF108991081051012501999999KA1999M+00341MD1210171+9999MW1211REMSYN082AAXX  09181 54916 11658 83403 10022 20019 40262 52017 69901 72160 885// 333 10034;
0133549160999992000010921004+35570+116850FM-12+005399999V0203401N002010150019N0100001N1+00191+00141102661ADDAA124000791GF108991081051017501999999MD1210041+9999REMSYN070AAXX  09211 54916 42760 83402 10019 20014 40266 52004 885// 333 79999;
0157549160999992000011000004+35570+116850FM-12+005399999V0200901N002010150019N0100001N1+00211+00161102691ADDAA106000021GF108991081051017501999999IA2999+00039MD1210031+0601REMSYN082AAXX  10001 54916 32760 80902 10021 20016 40269 52003 885// 333 00601 30003 79999;
0124549160999992000011003004+35570+116850FM-12+005399999V0200901N003010120019N0080001N1+00541+00241102801ADDGF107991071051012501999999MD1210111+9999MW1101REMSYN066AAXX  10031 54916 41658 70903 10054 20024 40280 52011 71000 875//;
0165549160999992000011006004+35570+116850FM-12+005399999V0200901N005019999999N0100001N1+00741+00111102641ADDAA106000091GF107991071001999999031999KA1999N+00161MD1710151+9999REMSYN070AAXX  10061 54916 32960 70905 10074 20011 40264 57015 8703/ 333 20016;EQDQ01  00002PRCP06
0112549160999992000011009004+35570+116850FM-12+005399999V0200701N004010120019N0100001N1+00641-00361102701ADDGF108991081051012501999999MD1210051+9999REMSYN060AAXX  10091 54916 42660 80704 10064 21036 40270 52005 885//;
0142549160999992000011012004+35570+116850FM-12+005399999V0200901N003010120019N0100001N1+00331-00471102851ADDAA106000091GF107991071051012501999999MD1210151+9999REMSYN060AAXX  10121 54916 32660 70903 10033 21047 40285 52015 875//;EQDQ01  00002PRCP06
0165549160999992000011018004+35570+116850FM-12+005399999V0200701N004010120019N0120001N1+00201-00381102791ADDAA106000091GF108991081051012501999999KA1999M+00801MD1710061+9999REMSYN070AAXX  10181 54916 32662 80704 10020 21038 40279 57006 885// 333 10080;EQDQ01  00002PRCP06
0112549160999992000011021004+35570+116850FM-12+005399999V0203601N003010150019N0100001N1+00091-00211102691ADDGF108991081051017501999999MD1710101+9999REMSYN060AAXX  10211 54916 42760 83603 10009 21021 40269 57010 885//;
0170549160999992000011100004+35570+116850FM-12+005399999V0200201N004010150019N0100001N1+00021-00321102771ADDAA106000091GF108991081051017501999999IA2999+00009MD1210081+0101REMSYN076AAXX  11001 54916 32760 80204 10002 21032 40277 52008 885// 333 00152 31002;EQDQ01  00002PRCP06
0124549160999992000011103004+35570+116850FM-12+005399999V0200401N005019999999N0100001N1+00111-00871102761ADDGF108991081001999999071999MD1710011+9999MW1701REMSYN066AAXX  11031 54916 41960 80405 10011 21087 40276 57001 77000 8807/;
0172549160999992000011106004+35570+116850FM-12+005399999V0200201N004019999999N0090001N1-00071-00451102551ADDAA106000191AY171061GF108991081001999999021999KA1999N-00081MD1710211+9999MW1701REMSYN082AAXX  11061 54916 11959 80204 11007 21045 40255 57021 69911 77070 8802/ 333 21008;
0140549160999992000011109004+35570+116850FM-12+005399999V0200401N003019999999N0100001N1-00101-00281102561ADDAY171031AY271031GF108991081001999999021999MD1410001+9999MW1001REMSYN066AAXX  11091 54916 41960 80403 11010 21028 40256 54000 70077 8802/;
0157549160999992000011112004+35570+116850FM-12+005399999V0200201N003019999999N0100001N1-00061-00231102641ADDAA106000191AY171061AY271061GF108991081001999999021999MD1210081+9999MW1701REMSYN072AAXX  11121 54916 11960 80203 11006 21023 40264 52008 69911 77077 8802/;
0180549160999992000011118004+35570+116850FM-12+005399999V0203401N002019999999N0100001N1-00161-00211102591ADDAA106004191AY171061AY271061GF108991081001999999021999KA1999M+00221MD1710071+9999MW1711REMSYN082AAXX  11181 54916 11960 83402 11016 21021 40259 57007 60041 77177 8802/ 333 10022;
0153549160999992000011121004+35570+116850FM-12+005399999V0203201N002019999999N0100001N1-00211-00271102421ADDAA124004891AY171031GF108991081001999999021999MD1710171+9999MW1711REMSYN076AAXX  11211 54916 41960 83202 11021 21027 40242 57017 77170 8802/ 333 70049;
0189549160999992000011200004+35570+116850FM-12+005399999V0202901N003019999999N0100001N1-00241-00301102501ADDAA106000891AY171061GF108991081001999999021999IA2999-00279MD1210081-0301MW1001REMSYN100AAXX  12001 54916 11960 82903 11024 21030 40250 52008 69971 70070 8802/ 333 05353 31027 70049 92504;
0112549160999992000011203004+35570+116850FM-12+005399999V0203201N003019999999N0100001N1-00131-00311102581ADDGF108991081001999999021999MD1210081+9999REMSYN060AAXX  12031 54916 42960 83203 11013 21031 40258 52008 8802/;
0165549160999992000011206004+35570+116850FM-12+005399999V0203201N003019999999N0100001N1-00111-00361102361ADDAA106000091GF108991081001999999071999KA1999N-00251MD1710221+9999REMSYN070AAXX  12061 54916 32960 83203 11011 21036 40236 57022 8807/ 333 21025;EQDQ01  00002PRCP06
0112549160999992000011209004+35570+116850FM-12+005399999V0203201N003019999999N0100001N1-00161-00421102371ADDGF108991081001999999021999MD1210011+9999REMSYN060AAXX  12091 54916 42960 83203 11016 21042 40237 52001 8802/;
0142549160999992000011212004+35570+116850FM-12+005399999V0203201N003019999999N0100001N1-00181-00481102531ADDAA106000091GF108991081001999999021999MD1210161+9999REMSYN060AAXX  12121 54916 32960 83203 11018 21048 40253 52016 8802/;EQDQ01  00002PRCP06
0165549160999992000011218004+35570+116850FM-12+005399999V0203401N004019999999N0100001N1-00201-00511102531ADDAA106000091GF108991081001999999021999KA1999M-00051MD1710051+9999REMSYN070AAXX  12181 54916 32960 83404 11020 21051 40253 57005 8802/ 333 11005;EQDQ01  00002PRCP06
0133549160999992000011221004+35570+116850FM-12+005399999V0200401N002019999999N0100001N1-00201-00551102501ADDAA124000791GF108991081001999999021999MD1710031+9999REMSYN070AAXX  12211 54916 42960 80402 11020 21055 40250 57003 8802/ 333 79999;
0176549160999992000011300004+35570+116850FM-12+005399999V0200501N004019999999N0100001N1-00241-00601102641ADDAA106000091GF108991081001999999071999IA2999-00329MD1210141+0101REMSYN082AAXX  13001 54916 32960 80504 11024 21060 40264 52014 8807/ 333 00100 31032 92504;EQDQ01  00002PRCP06
0112549160999992000011303004+35570+116850FM-12+005399999V0200701N003019999999N0100001N1-00181-00681102811ADDGF107991071001999999031999MD1210171+9999REMSYN060AAXX  13031 54916 42960 70703 11018 21068 40281 52017 8703/;
0165549160999992000011306004+35570+116850FM-12+005399999V0203601N003010120019N0100001N1-00061-00641102641ADDAA106000091GF107991071051012501999999KA1999N-00261MD1710171+9999REMSYN070AAXX  13061 54916 32660 73603 11006 21064 40264 57017 875// 333 21026;EQDQ01  00002PRCP06
0112549160999992000011309004+35570+116850FM-12+005399999V0203401N001019999999N0100001N1-00081-00631102571ADDGF107991001001999999001021MD1710071+9999REMSYN060AAXX  13091 54916 42960 73401 11008 21063 40257 57007 80002;
0142549160999992000011312004+35570+116850FM-12+005399999V0203401N002019999999N0100001N1-00261-00891102711ADDAA106000091GF107991001001999999001021MD1210141+9999REMSYN060AAXX  13121 54916 32960 73402 11026 21089 40271 52014 80002;EQDQ01  00002PRCP06
0165549160999992000011318004+35570+116850FM-12+005399999V0209999C000019999999N0120001N1-00301-00621102691ADDAA106000091GF108991081001999999071999KA1999M+00071MD1710021+9999REMSYN070AAXX  13181 54916 32962 80000 11030 21062 40269 57002 8807/ 333 10007;EQDQ01  00002PRCP06
0116549160999992000011321004+35570+116850FM-12+005399999V0202701N001019999999N0100001N1-00441-00691102681ADDGF105991051001999999041001MD1710011+9999REMSYN064    AAXX  13211 54916 42960 52701 11044 21069 40268 57001 85040;
0156549160999992000011400004+35570+116850FM-12+005399999V0203401N001019999999N0100001N1-00501-00681102811ADDAA199000091GF108991081001999999021999MD1210121+0021REMSYN074    AAXX  14001 54916 32960 83401 11050 21068 40281 52012 8802/ 333 00253;EQDQ01  00002PRCP99
0126549160999992000011403004+35570+116850FM-12+005399999V0200401N002012200019N0100001N1-00121-00561102881ADDGA1001+999999999GF100991001001999999001001MD1210081+9999REMSYN058    AAXX  14031 54916 42960 00402 11012 21056 40288 52008;
0179549160999992000011406004+35570+116850FM-12+005399999V0202001N003012200019N0100001N1+00121-00481102641ADDAA199000091GA1001+999999999GF100991001001999999001001KA1999N-00621MD1710241+9999REMSYN068    AAXX  14061 54916 32960 02003 10012 21048 40264 57024 333 21062;EQDQ01  00002PRCP99
0116549160999992000011409004+35570+116850FM-12+005399999V0202001N002019999999N0100001N1+00011-00511102661ADDGF105991001001999999001021MD1210021+9999REMSYN064    AAXX  14091 54916 42960 52002 10001 21051 40266 52002 80002;
0146549160999992000011412004+35570+116850FM-12+005399999V0209999C000019999999N0100001N1-00231-00431102771ADDAA199000091GF105991001001999999001021MD1210101+9999REMSYN064    AAXX  14121 54916 32960 50000 11023 21043 40277 52010 80002;EQDQ01  00002PRCP99
0169549160999992000011418004+35570+116850FM-12+005399999V0203601N002019999999N0100001N1-00161-00461102821ADDAA199000091GF108991081001999999071999KA1999M+00171MD1710121+9999REMSYN074    AAXX  14181 54916 32960 83602 11016 21046 40282 57012 8807/ 333 10017;EQDQ01  00002PRCP99
0149549160999992000011421004+35570+116850FM-12+005399999V0203201N001019999999N0100001N1-00131-00421102831ADDAA124000791GF108991081001999999071999MD1210011+9999MW1701REMSYN080    AAXX  14211 54916 41960 83201 11013 21042 40283 52001 77000 8807/ 333 79999;
0193549160999992000011500004+35570+116850FM-12+005399999V0209999C000019999999N0030001N1-00211-00271102921ADDAA106000191AY171061GF108991081001999999021999IA2999-00389MD1210091+0101MW1701REMSYN104    AAXX  15001 54916 11930 80000 11021 21027 40292 52009 69911 77070 8802/ 333 00103 31038 70001 92500;
0144549160999992000011503004+35570+116850FM-12+005399999V0203401N001019999999N0030001N1-00101-00141102931ADDAY171031AY271031GF108991081001999999021999MD1210011+9999MW1711REMSYN070    AAXX  15031 54916 41930 83401 11010 21014 40293 52001 77177 8802/;
0184549160999992000011506004+35570+116850FM-12+005399999V0203401N003019999999N0030001N1-00041-00081102731ADDAA106000591AY171061AY271061GF108991081001999999021999KA1999N-00251MD1710201+9999MW1711REMSYN086    AAXX  15061 54916 11930 83403 11004 21008 40273 57020 69941 77177 8802/ 333 21025;
0144549160999992000011509004+35570+116850FM-12+005399999V0203601N004019999999N0070001N1-00041-00201102771ADDAY171031AY271031GF108991081001999999021999MD1210041+9999MW1711REMSYN070    AAXX  15091 54916 41957 83604 11004 21020 40277 52004 77177 8802/;
0161549160999992000011512004+35570+116850FM-12+005399999V0200401N002019999999N0080001N1-00141-00191102921ADDAA106001091AY171061AY271061GF108991081001999999021999MD1210151+9999MW1711REMSYN076    AAXX  15121 54916 11958 80402 11014 21019 40292 52015 60011 77177 8802/;
0153549160999992000011518004+35570+116850FM-12+005399999V0203201N002019999999N0100001N1-00141-00261103101ADDAA106002091AY171061GF108991081001999999021999MD1210201+9999MW1001REMSYN076    AAXX  15181 54916 11960 83202 11014 21026 40310 52020 60021 70070 8802/;
0137549160999992000011521004+35570+116850FM-12+005399999V0203401N003019999999N0100001N1-00211-00301103071ADDAA124004191GF108991081001999999021999MD1710031+9999REMSYN074    AAXX  15211 54916 42960 83403 11021 21030 40307 57003 8802/ 333 70041;
0179549160999992000011600004+35570+116850FM-12+005399999V0203201N001019999999N0080001N1-00281-00421103221ADDAA124004191GF108991081001999999021999IA2999-00309MD1210141+0301MW1101REMSYN098    AAXX  16001 54916 31958 83201 11028 21042 40322 52014 71000 8802/ 333 00351 31030 70040 92503;
0138549160999992000011603004+35570+116850FM-12+005399999V0203601N002012200019N0050001N1+00001-00311103301ADDGA1001+999999999GF100991001001999999001001MD1210091+9999MW1101REMSYN064    AAXX  16031 54916 41950 03602 10000 21031 40330 52009 71000;
0179549160999992000011606004+35570+116850FM-12+005399999V0200401N003012200019N0100001N1+00191-00291103001ADDAA199000091GA1001+999999999GF100991001001999999001001KA1999N-00291MD1710301+9999REMSYN068    AAXX  16061 54916 32960 00403 10019 21029 40300 57030 333 21029;EQDQ01  00002PRCP99
0116549160999992000011609004+35570+116850FM-12+005399999V0203401N003019999999N0100001N1+00101-00361103071ADDGF106991001001999999001021MD1210071+9999REMSYN064    AAXX  16091 54916 42960 63403 10010 21036 40307 52007 80002;
0146549160999992000011612004+35570+116850FM-12+005399999V0203401N003019999999N0100001N1-00111-00401103141ADDAA199000091GF107991001001999999001021MD1210061+9999REMSYN064    AAXX  16121 54916 32960 73403 11011 21040 40314 52006 80002;EQDQ01  00002PRCP99
0169549160999992000011618004+35570+116850FM-12+005399999V0203401N001019999999N0100001N1-00211-00441103031ADDAA199000091GF108991081001999999071999KA1999M+00241MD1710141+9999REMSYN074    AAXX  16181 54916 32960 83401 11021 21044 40303 57014 8807/ 333 10024;EQDQ01  00002PRCP99
0116549160999992000011621004+35570+116850FM-12+005399999V0203401N002019999999N0100001N1-00281-00421103041ADDGF108991081001999999071999MD1210011+9999REMSYN064    AAXX  16211 54916 42960 83402 11028 21042 40304 52001 8807/;
0156549160999992000011700004+35570+116850FM-12+005399999V0203401N002012200019N0100001N1-00441-00611103091ADDAA199000091GF103991001001999999001021MD1210041+0011REMSYN074    AAXX  17001 54916 32960 33402 11044 21061 40309 52004 80002 333 05152;EQDQ01  00002PRCP99
0126549160999992000011703004+35570+116850FM-12+005399999V0203601N002012200019N0100001N1-00131-00501103151ADDGA1001+999999999GF100991001001999999001001MD1210071+9999REMSYN058    AAXX  17031 54916 42960 03602 11013 21050 40315 52007;
0169549160999992000011706004+35570+116850FM-12+005399999V0201801N001019999999N0100001N1+00161-00511102851ADDAA199000091GF105991001001999999001021KA1999N-00461MD1710301+9999REMSYN074    AAXX  17061 54916 32960 51801 10016 21051 40285 57030 80002 333 21046;EQDQ01  00002PRCP99
0126549160999992000011709004+35570+116850FM-12+005399999V0202701N003012200019N0100001N1+00071-00441102841ADDGA1001+999999999GF100991001001999999001001MD1710011+9999REMSYN058    AAXX  17091 54916 42960 02703 10007 21044 40284 57001;
0156549160999992000011712004+35570+116850FM-12+005399999V0202201N002012200019N0100001N1-00151-00451103001ADDAA199000091GA1001+999999999GF100991001001999999001001MD1210151+9999REMSYN058    AAXX  17121 54916 32960 02202 11015 21045 40300 52015;EQDQ01  00002PRCP99
0179549160999992000011718004+35570+116850FM-12+005399999V0209999C000012200019N0100001N1-00591-00711102921ADDAA199000091GA1001+999999999GF100991001001999999001001KA1999M+00241MD1710081+9999REMSYN068    AAXX  17181 54916 32960 00000 11059 21071 40292 57008 333 10024;EQDQ01  00002PRCP99
0126549160999992000011721004+35570+116850FM-12+005399999V0202001N001012200019N0100001N1-00671-00801102821ADDGA1001+999999999GF100991001001999999001001MD1710111+9999REMSYN058    AAXX  17211 54916 42960 02001 11067 21080 40282 57011;
0186549160999992000011800004+35570+116850FM-12+005399999V0201401N002010001519N0001001N1-00791-00931102891ADDAA199000091AY141061GA1091+999999999GF109991091999999999999999MD1210071+0021MW1471REMSYN074    AAXX  18001 54916 31/01 91402 11079 21093 40289 52007 74740 333 05254;EQDQ01  00002PRCP99
0154549160999992000011803004+35570+116850FM-12+005399999V0200901N001010003019N0003001N1-00451-00551102931ADDAY141031AY241031GA1091+999999999GF109991091999999999999999MD1210041+9999MW1431REMSYN064    AAXX  18031 54916 41/03 90901 11045 21055 40293 52004 74344;
0197549160999992000011806004+35570+116850FM-12+005399999V0202701N002010120019N0006001N1-00291-00361102751ADDAA199000091AY141061AY241061GF108991081051012501999999KA1999N-00801MD1710181+9999MW1461REMSYN080    AAXX  18061 54916 31606 82702 11029 21036 40275 57018 74644 885// 333 21080;EQDQ01  00002PRCP99
0144549160999992000011809004+35570+116850FM-12+005399999V0203401N004019999999N0006001N1-00371-00451102791ADDAY141031AY241031GF108991081001999999021999MD1210041+9999MW1441REMSYN070    AAXX  18091 54916 41906 83404 11037 21045 40279 52004 74444 8802/;
0174549160999992000011812004+35570+116850FM-12+005399999V0202901N002019999999N0009001N1-00311-00391102961ADDAA199000091AY141061AY241061GF108991081001999999021999MD1210171+9999MW1421REMSYN070    AAXX  18121 54916 31909 82902 11031 21039 40296 52017 74244 8802/;EQDQ01  00002PRCP99
0199549160999992000011818004+35570+116850FM-12+005399999V0203401N003012200019N0100001N1-00541-00771103251ADDAA199000091AY141061GA1001+999999999GF100991001001999999001001KA1999M-00221MD1210051+9999MW1001REMSYN074    AAXX  18181 54916 31960 03403 11054 21077 40325 52005 70040 333 11022;EQDQ01  00002PRCP99
0126549160999992000011821004+35570+116850FM-12+005399999V0203201N002012200019N0100001N1-00731-01051103291ADDGA1001+999999999GF100991001001999999001001MD1210031+9999REMSYN058    AAXX  18211 54916 42960 03202 11073 21105 40329 52003;
0166549160999992000011900004+35570+116850FM-12+005399999V0202701N002012200019N0100001N1-00771-01331103471ADDAA199000091GA1001+999999999GF100991001001999999001001MD1210181+0061REMSYN068    AAXX  19001 54916 32960 02702 11077 21133 40347 52018 333 00600;EQDQ01  00002PRCP99
0166549160999992000011901004+35570+116850FM-12+005399999V0202701N002012200019N0100001N1-00771-01331103471ADDAA199000091GA1001+999999999GF100991001001999999001001MD1210181+0061REMSYN068    AAXX  19011 54916 32960 02702 11077 21133 40347 52018 333 00600;EQDQ01  00002PRCP99
0126549160999992000011903004+35570+116850FM-12+005399999V0202701N004012200019N0100001N1-00301-01431103571ADDGA1001+999999999GF100991001001999999001001MD1210111+9999REMSYN058    AAXX  19031 54916 42960 02704 11030 21143 40357 52011;
0179549160999992000011906004+35570+116850FM-12+005399999V0203401N002012200019N0100001N1-00061-01761103241ADDAA199000091GA1001+999999999GF100991001001999999001001KA1999N-00851MD1710331+9999REMSYN068    AAXX  19061 54916 32960 03402 11006 21176 40324 57033 333 21085;EQDQ01  00002PRCP99
0126549160999992000011909004+35570+116850FM-12+005399999V0202701N002012200019N0100001N1-00091-01621103201ADDGA1001+999999999GF100991001001999999001001MD1710041+9999REMSYN058    AAXX  19091 54916 42960 02702 11009 21162 40320 57004;
0156549160999992000011912004+35570+116850FM-12+005399999V0202201N002012200019N0100001N1-00281-01381103261ADDAA199000091GA1001+999999999GF100991001001999999001001MD1210061+9999REMSYN058    AAXX  19121 54916 32960 02202 11028 21138 40326 52006;EQDQ01  00002PRCP99
0175549160999992000011918004+35570+116850FM-12+005399999V0201101N002012200019N0100001N1-00801-01141103431ADDAA199000091GA1001+999999999GF100991001001999999001001KA1999M+00031MD1210091+9999REMSYN064AAXX  19181 54916 32960 01102 11080 21114 40343 52009 333 10003;EQDQ01  00002PRCP99
0122549160999992000011921004+35570+116850FM-12+005399999V0200901N002012200019N0100001N1-00921-01191103461ADDGA1001+999999999GF100991001001999999001001MD1210021+9999REMSYN054AAXX  19211 54916 42960 00902 11092 21119 40346 52002;
0147549160999992000012000004+35570+116850FM-12+005399999V0200901N002012200019N0100001N1-00861-01171999999ADDAA199000091GA1001+999999999GF100991001001999999001001REMSYN063AAXX  20001 54916 32960 00902 11086 21117 4362 52016 333 00251;EQDQ01  00002PRCP99
0122549160999992000012003004+35570+116850FM-12+005399999V0202201N002012200019N0100001N1+00061-01031103821ADDGA1001+999999999GF100991001001999999001001MD1210211+9999REMSYN054AAXX  20031 54916 42960 02202 10006 21103 40382 52021;
0175549160999992000012006004+35570+116850FM-12+005399999V0209999C000012200019N0100001N1+00251-01141103741ADDAA199000091GA1001+999999999GF100991001001999999001001KA1999N-00951MD1710081+9999REMSYN064AAXX  20061 54916 32960 00000 10025 21114 40374 57008 333 21095;EQDQ01  00002PRCP99
0122549160999992000012009004+35570+116850FM-12+005399999V0203401N002012200019N0100001N1+00151-00831103751ADDGA1001+999999999GF100991001001999999001001MD1210011+9999REMSYN054AAXX  20091 54916 42960 03402 10015 21083 40375 52001;
0152549160999992000012012004+35570+116850FM-12+005399999V0200201N001012200019N0100001N1-00361-00681103861ADDAA199000091GA1001+999999999GF100991001001999999001001MD1210101+9999REMSYN054AAXX  20121 54916 32960 00201 11036 21068 40386 52010;EQDQ01  00002PRCP99
0175549160999992000012018004+35570+116850FM-12+005399999V0200901N001012200019N0100001N1-00661-00831103991ADDAA199000091GA1001+999999999GF100991001001999999001001KA1999M+00371MD1210021+9999REMSYN064AAXX  20181 54916 32960 00901 11066 21083 40399 52002 333 10037;EQDQ01  00002PRCP99
0122549160999992000012021004+35570+116850FM-12+005399999V0200401N002012200019N0100001N1-00721-00951103961ADDGA1001+999999999GF100991001001999999001001MD1710031+9999REMSYN054AAXX  20211 54916 42960 00402 11072 21095 40396 57003;
0152549160999992000012100004+35570+116850FM-12+005399999V0200401N002019999999N0100001N1-00701-00921104021ADDAA199000091GF107991001001999999001021MD1210051+0041REMSYN070AAXX  21001 54916 32960 70402 11070 21092 40402 52005 80002 333 00402;EQDQ01  00002PRCP99
0112549160999992000012103004+35570+116850FM-12+005399999V0200901N004019999999N0100001N1-00091-00611104011ADDGF107991001001999999001021MD1410001+9999REMSYN060AAXX  21031 54916 42960 70904 11009 21061 40401 54000 80002;
0165549160999992000012106004+35570+116850FM-12+005399999V0201101N004019999999N0100001N1+00151-00931103651ADDAA199000091GF108991001001999999001071KA1999N-00811MD1710361+9999REMSYN070AAXX  21061 54916 32960 81104 10015 21093 40365 57036 80007 333 21081;EQDQ01  00002PRCP99
0124549160999992000012109004+35570+116850FM-12+005399999V0200901N006019999999N0100001N1+00031-00591103501ADDGF108991081001999999021999MD1710151+9999MW1701REMSYN066AAXX  21091 54916 41960 80906 10003 21059 40350 57015 77000 8802/;
0149549160999992000012112004+35570+116850FM-12+005399999V0200701N003019999999N0100001N1+00001-00401103451ADDAA106000791AY171061GF108991081001999999021999MD1710051+9999MW1001REMSYN072AAXX  21121 54916 11960 80703 10000 21040 40345 57005 69901 70070 8802/;
0172549160999992000012118004+35570+116850FM-12+005399999V0200901N003019999999N0100001N1-00111-00191103141ADDAA106002091AY171061GF108991081001999999021999KA1999M+00231MD1710211+9999MW1711REMSYN082AAXX  21181 54916 11960 80903 11011 21019 40314 57021 60021 77170 8802/ 333 10023;
0161549160999992000012121004+35570+116850FM-12+005399999V0200201N002019999999N0100001N1-00101-00141102891ADDAA124002091AY171031AY271031GF108991081001999999021999MD1710251+9999MW1711REMSYN076AAXX  21211 54916 41960 80202 11010 21014 40289 57025 77177 8802/ 333 70020;
0137549160999992000012200004+35570+116850FM-12+005399999V0203401N002019999999N0100001N1-00081-00121999999ADDGF108991999999999999999999REMSYN099AAXX  22001 54916 11960 83402 11008 21012 4022 57007 69961 70070 8802/ 333 06206 31015 70021 92502;
0132549160999992000012203004+35570+116850FM-12+005399999V0203601N001019999999N0100001N1+00021-00101102811ADDAY171031GF108991081001999999021999MD1710011+9999MW1001REMSYN066AAXX  22031 54916 41960 83601 10002 21010 40281 57001 70070 8802/;
0172549160999992000012206004+35570+116850FM-12+005399999V0203201N004019999999N0100001N1+00051-00121102581ADDAA106000191AY171061GF108991081001999999021999KA1999N-00121MD1710231+9999MW1221REMSYN082AAXX  22061 54916 11960 83204 10005 21012 40258 57023 69911 72270 8802/ 333 21012;
0112549160999992000012209004+35570+116850FM-12+005399999V0202901N003010120019N0100001N1+00021-00191102621ADDGF108991081051012501999999MD1210041+9999REMSYN060AAXX  22091 54916 42660 82903 10002 21019 40262 52004 885//;
0123549160999992000012212004+35570+116850FM-12+005399999V0203201N003010120019N0100001N1-00011-00291102711ADDAA199000021GF108991081051012501999999MD1210091+9999REMSYN060AAXX  22121 54916 32660 83203 11001 21029 40271 52009 885//;
0146549160999992000012218004+35570+116850FM-12+005399999V0203201N002010120019N0100001N1-00061-00411102841ADDAA199000021GF108991081051012501999999KA1999M+00081MD1210041+9999REMSYN070AAXX  22181 54916 32660 83202 11006 21041 40284 52004 885// 333 10008;
0133549160999992000012221004+35570+116850FM-12+005399999V0203401N002019999999N0100001N1-00181-00371102871ADDAA124000391GF108991081001999999021999MD1210031+9999REMSYN070AAXX  22211 54916 42960 83402 11018 21037 40287 52003 8802/ 333 70002;
0163549160999992000012300004+35570+116850FM-12+005399999V0203601N001019999999N0100001N1-00301-00481103031ADDAA124000191GF108991081001999999021999IA2999-00499MD1210161+0201REMSYN088AAXX  23001 54916 32960 83601 11030 21048 40303 52016 8802/ 333 00252 31049 70001 92501;
0112549160999992000012303004+35570+116850FM-12+005399999V0203601N002012200019N0100001N1-00031-00361103121ADDGF104991001001999999001021MD1210091+9999REMSYN060AAXX  23031 54916 42960 43602 11003 21036 40312 52009 80002;
0165549160999992000012306004+35570+116850FM-12+005399999V0203401N002010150019N0100001N1+00101-00361103031ADDAA199000091GF108991081051017501999999KA1999N-00371MD1710091+9999REMSYN070AAXX  23061 54916 32760 83402 10010 21036 40303 57009 885// 333 21037;EQDQ01  00002PRCP99
0112549160999992000012309004+35570+116850FM-12+005399999V0203401N002019999999N0100001N1-00021-00371103201ADDGF107991071001999999031999MD1210171+9999REMSYN060AAXX  23091 54916 42960 73402 11002 21037 40320 52017 8703/;
0142549160999992000012312004+35570+116850FM-12+005399999V0200201N002019999999N0100001N1-00051-00301103371ADDAA199000091GF107991071001999999031999MD1210161+9999REMSYN060AAXX  23121 54916 32960 70202 11005 21030 40337 52016 8703/;EQDQ01  00002PRCP99
0165549160999992000012318004+35570+116850FM-12+005399999V0200401N003012200019N0100001N1-00221-00701103721ADDAA199000091GF102991001001999999001021KA1999M+00171MD1210151+9999REMSYN070AAXX  23181 54916 32960 20403 11022 21070 40372 52015 80002 333 10017;EQDQ01  00002PRCP99
0112549160999992000012321004+35570+116850FM-12+005399999V0200201N006010120019N0150001N1-00351-01141103821ADDGF108991081051012501999999MD1210101+9999REMSYN060AAXX  23211 54916 42665 80206 11035 21114 40382 52010 885//;
0152549160999992000012400004+35570+116850FM-12+005399999V0200401N007019999999N0150001N1-00501-01101104041ADDAA199000091GF108991081001999999071999MD1210221+0101REMSYN070AAXX  24001 54916 32965 80407 11050 21110 40404 52022 8807/ 333 01052;EQDQ01  00002PRCP99
0112549160999992000012403004+35570+116850FM-12+005399999V0200401N005012200019N0150001N1-00311-01271104221ADDGF102991001001999999001021MD1210181+9999REMSYN060AAXX  24031 54916 42965 20405 11031 21127 40422 52018 80002;
0165549160999992000012406004+35570+116850FM-12+005399999V0200401N004019999999N0120001N1-00261-01101104141ADDAA199000091GF106991001001999999001021KA1999N-00511MD1710081+9999REMSYN070AAXX  24061 54916 32962 60404 11026 2111/ 40414 57008 80002 333 21051;EQDQ01  00002PRCP99
0112549160999992000012409004+35570+116850FM-12+005399999V0200401N004019999999N0100001N1-00271-01181104211ADDGF107991001001999999001021MD1210061+9999REMSYN060AAXX  24091 54916 42960 70404 11027 21118 40421 52006 80002;
0142549160999992000012412004+35570+116850FM-12+005399999V0200201N004019999999N0100001N1-00441-01071104381ADDAA199000091GF105991001001999999001021MD1210171+9999REMSYN060AAXX  24121 54916 32960 50204 11044 21107 40438 52017 80002;EQDQ01  00002PRCP99
0175549160999992000012418004+35570+116850FM-12+005399999V0203401N002012200019N0100001N1-00881-01251104501ADDAA199000091GA1001+999999999GF100991001001999999001001KA1999M-00141MD1210051+9999REMSYN064AAXX  24181 54916 32960 03402 11088 21125 40450 52005 333 11014;EQDQ01  00002PRCP99
0122549160999992000012421004+35570+116850FM-12+005399999V0203601N002012200019N0100001N1-00991-01271104461ADDGA1001+999999999GF100991001001999999001001MD1710051+9999REMSYN054AAXX  24211 54916 42960 03602 11099 21127 40446 57005;
0162549160999992000012500004+35570+116850FM-12+005399999V0203601N001012200019N0100001N1-01061-01361104511ADDAA199000091GA1001+999999999GF100991001001999999001001MD1210051+0051REMSYN064AAXX  25001 54916 32960 03601 11106 21136 40451 52005 333 00556;EQDQ01  00002PRCP99
0122549160999992000012503004+35570+116850FM-12+005399999V0203401N001012200019N0100001N1-00651-01681104541ADDGA1001+999999999GF100991001001999999001001MD1210031+9999REMSYN054AAXX  25031 54916 42960 03401 11065 21168 40454 52003;
0175549160999992000012506004+35570+116850FM-12+005399999V0203201N003012200019N0100001N1-00361-01281104301ADDAA199000091GA1001+999999999GF100991001001999999001001KA1999N-01071MD1710231+9999REMSYN064AAXX  25061 54916 32960 03203 11036 21128 40430 57023 333 21107;EQDQ01  00002PRCP99
0122549160999992000012509004+35570+116850FM-12+005399999V0203401N003012200019N0100001N1-00371-01921104221ADDGA1001+999999999GF100991001001999999001001MD1710091+9999REMSYN054AAXX  25091 54916 42960 03403 11037 21192 40422 57009;
0152549160999992000012512004+35570+116850FM-12+005399999V0203401N004012200019N0120001N1-00661-01551104301ADDAA199000091GA1001+999999999GF100991001001999999001001MD1210081+9999REMSYN054AAXX  25121 54916 32962 03404 11066 21155 40430 52008;EQDQ01  00002PRCP99
0175549160999992000012518004+35570+116850FM-12+005399999V0203201N002012200019N0120001N1-00941-01651104401ADDAA199000091GA1001+999999999GF100991001001999999001001KA1999M-00321MD1210051+9999REMSYN064AAXX  25181 54916 32962 03202 11094 21165 40440 52005 333 11032;EQDQ01  00002PRCP99
0122549160999992000012521004+35570+116850FM-12+005399999V0203201N001012200019N0100001N1-01011-01611104331ADDGA1001+999999999GF100991001001999999001001MD1710071+9999REMSYN054AAXX  25211 54916 42960 03201 11101 21161 40433 57007;
0162549160999992000012600004+35570+116850FM-12+005399999V0203401N001012200019N0100001N1-01021-01561104391ADDAA199000091GA1001+999999999GF100991001001999999001001MD1210061+0011REMSYN064AAXX  26001 54916 32960 03401 11102 21156 40439 52006 333 05100;EQDQ01  00002PRCP99
0122549160999992000012603004+35570+116850FM-12+005399999V0203201N004012200019N0100001N1-00421-01271104401ADDGA1001+999999999GF100991001001999999001001MD1210011+9999REMSYN054AAXX  26031 54916 42960 03204 11042 21127 40440 52001;
0175549160999992000012606004+35570+116850FM-12+005399999V0202901N004012200019N0100001N1-00161-01831104181ADDAA199000091GA1001+999999999GF100991001001999999001001KA1999N-01121MD1710211+9999REMSYN064AAXX  26061 54916 32960 02904 11016 21183 40418 57021 333 21112;EQDQ01  00002PRCP99
0122549160999992000012609004+35570+116850FM-12+005399999V0203401N005012200019N0100001N1-00201-01671104131ADDGA1001+999999999GF100991001001999999001001MD1710051+9999REMSYN054AAXX  26091 54916 42960 03405 11020 21167 40413 57005;
0152549160999992000012612004+35570+116850FM-12+005399999V0203201N003012200019N0100001N1-00481-01371104211ADDAA199000091GA1001+999999999GF100991001001999999001001MD1210071+9999REMSYN054AAXX  26121 54916 32960 03203 11048 21137 40421 52007;EQDQ01  00002PRCP99
0175549160999992000012618004+35570+116850FM-12+005399999V0203601N002012200019N0100001N1-00821-01401104241ADDAA199000091GA1001+999999999GF100991001001999999001001KA1999M-00071MD1410001+9999REMSYN064AAXX  26181 54916 32960 03602 11082 21140 40424 54000 333 11007;EQDQ01  00002PRCP99
0122549160999992000012621004+35570+116850FM-12+005399999V0203601N001012200019N0100001N1-01021-01431104191ADDGA1001+999999999GF100991001001999999001001MD1710051+9999REMSYN054AAXX  26211 54916 42960 03601 11102 21143 40419 57005;
0162549160999992000012700004+35570+116850FM-12+005399999V0209999C000012200019N0100001N1-01081-01511104261ADDAA199000091GA1001+999999999GF100991001001999999001001MD1210061+0011REMSYN064AAXX  27001 54916 32960 00000 11108 21151 40426 52006 333 05151;EQDQ01  00002PRCP99
0112549160999992000012703004+35570+116850FM-12+005399999V0203401N002012200019N0100001N1-00341-01671104231ADDGF102991001001999999001021MD1710021+9999REMSYN060AAXX  27031 54916 42960 23402 11034 21167 40423 57002 80002;
0175549160999992000012706004+35570+116850FM-12+005399999V0203401N001012200019N0100001N1-00061-00921103931ADDAA199000091GA1001+999999999GF100991001001999999001001KA1999N-01121MD1710301+9999REMSYN064AAXX  27061 54916 32960 03401 11006 21092 40393 57030 333 21112;EQDQ01  00002PRCP99
0122549160999992000012709004+35570+116850FM-12+005399999V0202901N002012200019N0100001N1+00061-01481103861ADDGA1001+999999999GF100991001001999999001001MD1710071+9999REMSYN054AAXX  27091 54916 42960 02902 10006 21148 40386 57007;
0152549160999992000012712004+35570+116850FM-12+005399999V0202701N003012200019N0100001N1-00321-01211103841ADDAA199000091GA1001+999999999GF100991001001999999001001MD1710021+9999REMSYN054AAXX  27121 54916 32960 02703 11032 21121 40384 57002;EQDQ01  00002PRCP99
0175549160999992000012718004+35570+116850FM-12+005399999V0201601N002012200019N0100001N1-00941-01161103811ADDAA199000091GA1001+999999999GF100991001001999999001001KA1999M+00161MD1710021+9999REMSYN064AAXX  27181 54916 32960 01602 11094 21116 40381 57002 333 10016;EQDQ01  00002PRCP99
0122549160999992000012721004+35570+116850FM-12+005399999V0201101N002012200019N0100001N1-00991-01221103651ADDGA1001+999999999GF100991001001999999001001MD1710161+9999REMSYN054AAXX  27211 54916 42960 01102 11099 21122 40365 57016;
0152549160999992000012800004+35570+116850FM-12+005399999V0200901N002012200019N0100001N1-01061-01241103691ADDAA199000091GF102991001001999999001021MD1210041+0061REMSYN070AAXX  28001 54916 32960 20902 11106 21124 40369 52004 80002 333 05600;EQDQ01  00002PRCP99
0122549160999992000012803004+35570+116850FM-12+005399999V0202001N004012200019N0100001N1-00031-01151103681ADDGA1001+999999999GF100991001001999999001001MD1410001+9999REMSYN054AAXX  28031 54916 42960 02004 11003 21115 40368 54000;
0165549160999992000012806004+35570+116850FM-12+005399999V0201801N005019999999N0100001N1+00161-01131103391ADDAA199000091GF105991001001999999001021KA1999N-01101MD1710291+9999REMSYN070AAXX  28061 54916 32960 51805 10016 21113 40339 57029 80002 333 21110;EQDQ01  00002PRCP99
0112549160999992000012809004+35570+116850FM-12+005399999V0202001N004019999999N0100001N1+00051-01101103331ADDGF107991001001999999001021MD1710061+9999REMSYN060AAXX  28091 54916 42960 72004 10005 21110 40333 57006 80002;
0152549160999992000012812004+35570+116850FM-12+005399999V0201401N002012200019N0100001N1-00191-00691103401ADDAA199000091GA1001+999999999GF100991001001999999001001MD1210061+9999REMSYN054AAXX  28121 54916 32960 01402 11019 21069 40340 52006;EQDQ01  00002PRCP99
0165549160999992000012818004+35570+116850FM-12+005399999V0201101N002012200019N0100001N1-00471-00701103371ADDAA199000091GF104991001001999999001021KA1999M+00231MD1710021+9999REMSYN070AAXX  28181 54916 32960 41102 11047 21070 40337 57002 80002 333 10023;EQDQ01  00002PRCP99
0112549160999992000012821004+35570+116850FM-12+005399999V0201801N001019999999N0100001N1-00561-00751103431ADDGF106991001001999999001021MD1210061+9999REMSYN060AAXX  28211 54916 42960 61801 11056 21075 40343 52006 80002;
0152549160999992000012900004+35570+116850FM-12+005399999V0201101N002019999999N0100001N1-00611-00771103551ADDAA199000091GF105991001001999999001021MD1210121+0011REMSYN070AAXX  29001 54916 32960 51102 11061 21077 40355 52012 80002 333 05105;EQDQ01  00002PRCP99
0122549160999992000012903004+35570+116850FM-12+005399999V0203201N003012200019N0100001N1+00091-00681103701ADDGA1001+999999999GF100991001001999999001001MD1210151+9999REMSYN054AAXX  29031 54916 42960 03203 10009 21068 40370 52015;
0175549160999992000012906004+35570+116850FM-12+005399999V0203201N004012200019N0100001N1+00291-00751103541ADDAA199000091GA1001+999999999GF100991001001999999001001KA1999N-00701MD1710161+9999REMSYN064AAXX  29061 54916 32960 03204 10029 21075 40354 57016 333 21070;EQDQ01  00002PRCP99
0122549160999992000012909004+35570+116850FM-12+005399999V0203401N006012200019N0100001N1+00121-01081103761ADDGA1001+999999999GF100991001001999999001001MD1210221+9999REMSYN054AAXX  29091 54916 42960 03406 10012 21108 40376 52022;
0152549160999992000012912004+35570+116850FM-12+005399999V0203601N003012200019N0100001N1-00221-01301104021ADDAA199000091GA1001+999999999GF100991001001999999001001MD1210251+9999REMSYN054AAXX  29121 54916 32960 03603 11022 21130 40402 52025;EQDQ01  00002PRCP99
0175549160999992000012918004+35570+116850FM-12+005399999V0203201N003012200019N0100001N1-00531-01211104331ADDAA199000091GA1001+999999999GF100991001001999999001001KA1999M+00361MD1210161+9999REMSYN064AAXX  29181 54916 32960 03203 11053 21121 40433 52016 333 10036;EQDQ01  00002PRCP99
0122549160999992000012921004+35570+116850FM-12+005399999V0203401N002012200019N0100001N1-00731-01461104481ADDGA1001+999999999GF100991001001999999001001MD1210141+9999REMSYN054AAXX  29211 54916 42960 03402 11073 21146 40448 52014;
0162549160999992000013000004+35570+116850FM-12+005399999V0202901N002012200019N0100001N1-00811-01751104721ADDAA199000091GA1001+999999999GF100991001001999999001001MD1210241+0121REMSYN064AAXX  30001 54916 32960 02902 11081 21175 40472 52024 333 01252;EQDQ01  00002PRCP99
0112549160999992000013003004+35570+116850FM-12+005399999V0203601N003012200019N0100001N1-00361-01911104831ADDGF104991001001999999001021MD1210111+9999REMSYN060AAXX  30031 54916 42960 43603 11036 21191 40483 52011 80002;
0175549160999992000013006004+35570+116850FM-12+005399999V0203201N006012200019N0120001N1-00181-02111104601ADDAA199000091GA1001+999999999GF100991001001999999001001KA1999N-00841MD1710231+9999REMSYN064AAXX  30061 54916 32962 03206 11018 21211 40460 57023 333 21084;EQDQ01  00002PRCP99
0122549160999992000013009004+35570+116850FM-12+005399999V0203401N004012200019N0100001N1-00231-01941104561ADDGA1001+999999999GF100991001001999999001001MD1710041+9999REMSYN054AAXX  30091 54916 42960 03404 11023 21194 40456 57004;
0152549160999992000013012004+35570+116850FM-12+005399999V0203601N002012200019N0100001N1-00271-01231104761ADDAA199000091GA1001+999999999GF100991001001999999001001MD1210191+9999REMSYN054AAXX  30121 54916 32960 03602 11027 21123 40476 52019;EQDQ01  00002PRCP99
0175549160999992000013018004+35570+116850FM-12+005399999V0203401N003012200019N0100001N1-00661-01631104851ADDAA199000091GA1001+999999999GF100991001001999999001001KA1999M-00051MD1210041+9999REMSYN064AAXX  30181 54916 32960 03403 11066 21163 40485 52004 333 11005;EQDQ01  00002PRCP99
0122549160999992000013021004+35570+116850FM-12+005399999V0203601N004012200019N0100001N1-00761-01581104841ADDGA1001+999999999GF100991001001999999001001MD1710021+9999REMSYN054AAXX  30211 54916 42960 03604 11076 21158 40484 57002;
0152549160999992000013100004+35570+116850FM-12+005399999V0200401N002019999999N0100001N1-00821-01851104891ADDAA199000091GF107991001001999999001021MD1210051+0021REMSYN070AAXX  31001 54916 32960 70402 11082 21185 40489 52005 80002 333 00200;EQDQ01  00002PRCP99
0112549160999992000013103004+35570+116850FM-12+005399999V0203401N005019999999N0100001N1-00611-02731104871ADDGF107991001001999999001021MD1710021+9999REMSYN060AAXX  31031 54916 42960 73405 11061 21273 40487 57002 80002;
0165549160999992000013106004+35570+116850FM-12+005399999V0203401N006019999999N0100001N1-00391-02341104541ADDAA199000091GF106991001001999999001021KA1999N-00841MD1710321+9999REMSYN070AAXX  31061 54916 32960 63406 11039 21234 40454 57032 80002 333 21084;EQDQ01  00002PRCP99
0112549160999992000013109004+35570+116850FM-12+005399999V0203201N005019999999N0100001N1-00481-02251104401ADDGF108991001001999999001071MD1710151+9999REMSYN060AAXX  31091 54916 42960 83205 11048 21225 40440 57015 80007;
0152549160999992000013112004+35570+116850FM-12+005399999V0203401N003012200019N0100001N1-00601-02131104451ADDAA199000091GA1001+999999999GF100991001001999999001001MD1210051+9999REMSYN054AAXX  31121 54916 32960 03403 11060 21213 40445 52005;EQDQ01  00002PRCP99
0175549160999992000013118004+35570+116850FM-12+005399999V0202901N002012200019N0120001N1-01031-01721104291ADDAA199000091GA1001+999999999GF100991001001999999001001KA1999M-00361MD1710131+9999REMSYN064AAXX  31181 54916 32962 02902 11103 21172 40429 57013 333 11036;EQDQ01  00002PRCP99
0122549160999992000013121004+35570+116850FM-12+005399999V0203201N002012200019N0100001N1-01061-01931104131ADDGA1001+999999999GF100991001001999999001001MD1710161+9999REMSYN054AAXX  31211 54916 42960 03202 11106 21193 40413 57016;
0162549160999992000020100004+35570+116850FM-12+005399999V0209999C000012200019N0100001N1-01281-01771104071ADDAA199000091GA1001+999999999GF100991001001999999001001MD1710061+0081REMSYN064AAXX  01001 54916 32960 00000 11128 21177 40407 57006 333 05855;EQDQ01  00002PRCP99
0122549160999992000020103004+35570+116850FM-12+005399999V0209999C000012200019N0100001N1-00401-01901103991ADDGA1001+999999999GF100991001001999999001001MD1710071+9999REMSYN054AAXX  01031 54916 42960 00000 11040 21190 40399 57007;
0175549160999992000020106004+35570+116850FM-12+005399999V0202001N002012200019N0100001N1-00141-01961103701ADDAA199000091GA1001+999999999GF100991001001999999001001KA1999N-01371MD1710291+9999REMSYN064AAXX  01061 54916 32960 02002 11014 21196 40370 57029 333 21137;EQDQ01  00002PRCP99
0122549160999992000020109004+35570+116850FM-12+005399999V0202701N002012200019N0100001N1-00181-01871103491ADDGA1001+999999999GF100991001001999999001001MD1710211+9999REMSYN054AAXX  01091 54916 42960 02702 11018 21187 40349 57021;
0152549160999992000020112004+35570+116850FM-12+005399999V0202701N002012200019N0100001N1-00391-01461103591ADDAA199000091GA1001+999999999GF100991001001999999001001MD1210091+9999REMSYN054AAXX  01121 54916 32960 02702 11039 21146 40359 52009;EQDQ01  00002PRCP99
0175549160999992000020118004+35570+116850FM-12+005399999V0201101N002012200019N0100001N1-00971-01301103451ADDAA199000091GA1001+999999999GF100991001001999999001001KA1999M-00071MD1710111+9999REMSYN064AAXX  01181 54916 32960 01102 11097 21130 40345 57011 333 11007;EQDQ01  00002PRCP99
0122549160999992000020121004+35570+116850FM-12+005399999V0200701N002012200019N0100001N1-01001-01341103431ADDGA1001+999999999GF100991001001999999001001MD1710021+9999REMSYN054AAXX  01211 54916 42960 00702 11100 21134 40343 57002;
0164549160999992000020200004+35570+116850FM-12+005399999V0200901N002012200019N0080001N1-01061-01361103491ADDAA199000091GF104991001001999999001021MD1210061+0061MW1101REMSYN076AAXX  02001 54916 31958 40902 11106 21136 40349 52006 71000 80002 333 05602;EQDQ01  00002PRCP99
0122549160999992000020203004+35570+116850FM-12+005399999V0202201N002012200019N0100001N1-00011-01291103421ADDGA1001+999999999GF100991001001999999001001MD1710061+9999REMSYN054AAXX  02031 54916 42960 02202 11001 21129 40342 57006;
0175549160999992000020206004+35570+116850FM-12+005399999V0202201N003012200019N0100001N1+00241-01411103171ADDAA199000091GA1001+999999999GF100991001001999999001001KA1999N-01081MD1710251+9999REMSYN064AAXX  02061 54916 32960 02203 10024 21141 40317 57025 333 21108;EQDQ01  00002PRCP99
0122549160999992000020209004+35570+116850FM-12+005399999V0201801N003012200019N0100001N1+00141-01361103081ADDGA1001+999999999GF100991001001999999001001MD1710091+9999REMSYN054AAXX  02091 54916 42960 01803 10014 21136 40308 57009;
0152549160999992000020212004+35570+116850FM-12+005399999V0202201N002012200019N0100001N1-00121-00971103181ADDAA199000091GA1001+999999999GF100991001001999999001001MD1210091+9999REMSYN054AAXX  02121 54916 32960 02202 11012 21097 40318 52009;EQDQ01  00002PRCP99
0175549160999992000020218004+35570+116850FM-12+005399999V0201401N001012200019N0100001N1-00771-01051103231ADDAA199000091GA1001+999999999GF100991001001999999001001KA1999M+00331MD1210011+9999REMSYN064AAXX  02181 54916 32960 01401 11077 21105 40323 52001 333 10033;EQDQ01  00002PRCP99
0122549160999992000020221004+35570+116850FM-12+005399999V0209999C000012200019N0100001N1-00901-01061103201ADDGA1001+999999999GF100991001001999999001001MD1710031+9999REMSYN054AAXX  02211 54916 42960 00000 11090 21106 40320 57003;
0174549160999992000020300004+35570+116850FM-12+005399999V0209999C000012200019N0030001N1-00961-01131103271ADDAA199000091GA1001+999999999GF100991001001999999001001MD1210061+0021MW1101REMSYN070AAXX  03001 54916 31930 00000 11096 21113 40327 52006 71000 333 05201;EQDQ01  00002PRCP99
0122549160999992000020303004+35570+116850FM-12+005399999V0203201N001012200019N0100001N1+00031-00681103421ADDGA1001+999999999GF100991001001999999001001MD1210161+9999REMSYN054AAXX  03031 54916 42960 03201 10003 21068 40342 52016;
0175549160999992000020306004+35570+116850FM-12+005399999V0203201N003012200019N0100001N1+00351-01361103201ADDAA199000091GA1001+999999999GF100991001001999999001001KA1999N-01001MD1710221+9999REMSYN064AAXX  03061 54916 32960 03203 10035 21136 40320 57022 333 21100;EQDQ01  00002PRCP99
0124549160999992000020309004+35570+116850FM-12+005399999V0202901N002012200019N0060001N1+00231-01171103171ADDGF104991001001999999001021MD1710031+9999MW1041REMSYN066AAXX  03091 54916 41956 42902 10023 21117 40317 57003 70400 80002;
0152549160999992000020312004+35570+116850FM-12+005399999V0203401N001012200019N0100001N1-00251-01051103291ADDAA199000091GA1001+999999999GF100991001001999999001001MD1210111+9999REMSYN054AAXX  03121 54916 32960 03401 11025 21105 40329 52011;EQDQ01  00002PRCP99
0175549160999992000020318004+35570+116850FM-12+005399999V0200401N001012200019N0100001N1-00841-01191103351ADDAA199000091GA1001+999999999GF100991001001999999001001KA1999M+00431MD1710021+9999REMSYN064AAXX  03181 54916 32960 00401 11084 21119 40335 57002 333 10043;EQDQ01  00002PRCP99
0122549160999992000020321004+35570+116850FM-12+005399999V0200701N002012200019N0100001N1-00891-01201103271ADDGA1001+999999999GF100991001001999999001001MD1710081+9999REMSYN054AAXX  03211 54916 42960 00702 11089 21120 40327 57008;
0152549160999992000020400004+35570+116850FM-12+005399999V0200701N002019999999N0100001N1-00761-01201103341ADDAA199000091GF106991001001999999001021MD1210071+0011REMSYN070AAXX  04001 54916 32960 60702 11076 21120 40334 52007 80002 333 00102;EQDQ01  00002PRCP99
0122549160999992000020403004+35570+116850FM-12+005399999V0201401N003012200019N0100001N1+00221-01051103311ADDGA1001+999999999GF100991001001999999001001MD1710031+9999REMSYN054AAXX  04031 54916 42960 01403 10022 21105 40331 57003;
0165549160999992000020406004+35570+116850FM-12+005399999V0201401N002012200019N0100001N1+00571-01051102931ADDAA199000091GF101991001001999999001021KA1999N-00961MD1710371+9999REMSYN070AAXX  04061 54916 32960 11402 10057 21105 40293 57037 80002 333 21096;EQDQ01  00002PRCP99
0112549160999992000020409004+35570+116850FM-12+005399999V0202201N003019999999N0100001N1+00361-01021102891ADDGF108991081001999999071999MD1710051+9999REMSYN060AAXX  04091 54916 42960 82203 10036 21102 40289 57005 8807/;
0142549160999992000020412004+35570+116850FM-12+005399999V0202501N001019999999N0100001N1+00241-00731102971ADDAA199000091GF108991081001999999071999MD1210081+9999REMSYN060AAXX  04121 54916 32960 82501 10024 21073 40297 52008 8807/;EQDQ01  00002PRCP99
0165549160999992000020418004+35570+116850FM-12+005399999V0202201N001019999999N0100001N1+00051-00541102851ADDAA199000091GF108991081001999999071999KA1999M+00601MD1710091+9999REMSYN070AAXX  04181 54916 32960 82201 10005 21054 40285 57009 8807/ 333 10060;EQDQ01  00002PRCP99
0153549160999992000020421004+35570+116850FM-12+005399999V0201801N001019999999N0100001N1-00101-00191102761ADDAA124000891AY171031GF108991081001999999021999MD1710091+9999MW1711REMSYN076AAXX  04211 54916 41960 81801 11010 21019 40276 57009 77170 8802/ 333 70008;
0189549160999992000020500004+35570+116850FM-12+005399999V0201401N002019999999N0030001N1-00151-00201102751ADDAA106001091AY171061GF108991081001999999021999IA2999-00179MD1710021-0601MW1701REMSYN100AAXX  05001 54916 11930 81402 11015 21020 40275 57002 60011 77070 8802/ 333 05606 31017 70011 92502;
0140549160999992000020503004+35570+116850FM-12+005399999V0201801N002019999999N0070001N1-00031-00061102751ADDAY171031AY271031GF108991081001999999021999MD1410001+9999MW1701REMSYN066AAXX  05031 54916 41957 81802 11003 21006 40275 54000 77077 8802/;
0172549160999992000020506004+35570+116850FM-12+005399999V0202001N002010120019N0100001N1+00191-00121102481ADDAA106000191AY171061GF108991081051012501999999KA1999N-00171MD1710261+9999MW1001REMSYN082AAXX  05061 54916 11660 82002 10019 21012 40248 57026 69911 70070 885// 333 21017;
0122549160999992000020509004+35570+116850FM-12+005399999V0201801N002012200019N0100001N1+00241-00101102421ADDGA1001+999999999GF100991001001999999001001MD1710061+9999REMSYN054AAXX  05091 54916 42960 01802 10024 21010 40242 57006;
0123549160999992000020512004+35570+116850FM-12+005399999V0201801N002019999999N0100001N1+00041-00171102581ADDAA199000021GF106991001001999999001021MD1210151+9999REMSYN060AAXX  05121 54916 32960 61802 10004 21017 40258 52015 80002;
0165549160999992000020518004+35570+116850FM-12+005399999V0201401N002019999999N0100001N1-00311-00341102621ADDAA199000091GF107991001001999999001021KA1999M+00331MD1710021+9999REMSYN070AAXX  05181 54916 32960 71402 11031 21034 40262 57002 80002 333 10033;EQDQ01  00002PRCP99
0133549160999992000020521004+35570+116850FM-12+005399999V0201101N002019999999N0100001N1-00441-00511102481ADDAA124000591GF106991001001999999001021MD1710141+9999REMSYN070AAXX  05211 54916 42960 61102 11044 21051 40248 57014 80002 333 70004;
0151549160999992000020600004+35570+116850FM-12+005399999V0200701N002019999999N0020001N1-00521-00631102561ADDAA124000191GF106991001001999999001021MD1210081-0201MW1101REMSYN082AAXX  06001 54916 31920 60702 11052 21063 40256 52008 71000 80002 333 05254 70001;
0134549160999992000020603004+35570+116850FM-12+005399999V0201401N003012200019N0030001N1+00031-00121102571ADDGA1001+999999999GF100991001001999999001001MD1210011+9999MW1101REMSYN060AAXX  06031 54916 41930 01403 10003 21012 40257 52001 71000;
0177549160999992000020606004+35570+116850FM-12+005399999V0200701N002012200019N0080001N1+00431+00121102291ADDAA199000091GF104991001001999999001021KA1999N-00541MD1710271+9999MW1101REMSYN076AAXX  06061 54916 31958 40702 10043 20012 40229 57027 71000 80002 333 21054;EQDQ01  00002PRCP99
0134549160999992000020609004+35570+116850FM-12+005399999V0209999C000012200019N0080001N1+00431+00151102181ADDGA1001+999999999GF100991001001999999001001MD1710111+9999MW1101REMSYN060AAXX  06091 54916 41958 00000 10043 20015 40218 57011 71000;
0164549160999992000020612004+35570+116850FM-12+005399999V0209999C000012200019N0080001N1-00041-00131102251ADDAA199000091GA1001+999999999GF100991001001999999001001MD1210061+9999MW1101REMSYN060AAXX  06121 54916 31958 00000 11004 21013 40225 52006 71000;EQDQ01  00002PRCP99
0177549160999992000020618004+35570+116850FM-12+005399999V0202901N004019999999N0005001N1-00291-00331102161ADDAA199000091GF108991081001999999071999KA1999M+00611MD1210041+9999MW1461REMSYN076AAXX  06181 54916 31905 82904 11029 21033 40216 52004 74600 8807/ 333 10061;EQDQ01  00002PRCP99
0153549160999992000020621004+35570+116850FM-12+005399999V0203201N005019999999N0060001N1-00041-00051102221ADDAA124000791AY171031GF108991081001999999021999MD1210061+9999MW1101REMSYN076AAXX  06211 54916 41956 83205 11004 21005 40222 52006 71070 8802/ 333 79999;
0191549160999992000020700004+35570+116850FM-12+005399999V0203201N006019999999N0100001N1-00161-00181102531ADDAA106000791AY171061AY241061GF108991081001999999071999IA2999-00179MD1210301+0001MW1001REMSYN094AAXX  07001 54916 11960 83206 11016 21018 40253 52030 69901 70074 8807/ 333 00004 31017 79999;
0122549160999992000020703004+35570+116850FM-12+005399999V0203401N008012200019N0100001N1+00011-00381102771ADDGA1001+999999999GF100991001001999999001001MD1210241+9999REMSYN054AAXX  07031 54916 42960 03408 10001 21038 40277 52024;
0175549160999992000020706004+35570+116850FM-12+005399999V0203401N007012200019N0100001N1+00211-01401102641ADDAA199000091GA1001+999999999GF100991001001999999001001KA1999N-00451MD1710131+9999REMSYN064AAXX  07061 54916 32960 03407 10021 21140 40264 57013 333 21045;EQDQ01  00002PRCP99
0122549160999992000020709004+35570+116850FM-12+005399999V0203201N005012200019N0100001N1+00201-01221102591ADDGA1001+999999999GF100991001001999999001001MD1710041+9999REMSYN054AAXX  07091 54916 42960 03205 10020 21122 40259 57004;
0152549160999992000020712004+35570+116850FM-12+005399999V0202001N001012200019N0100001N1-00101-00651102571ADDAA199000091GA1001+999999999GF100991001001999999001001MD1710031+9999REMSYN054AAXX  07121 54916 32960 02001 11010 21065 40257 57003;EQDQ01  00002PRCP99
0175549160999992000020718004+35570+116850FM-12+005399999V0201401N002012200019N0100001N1-00581-00861102411ADDAA199000091GA1001+999999999GF100991001001999999001001KA1999M+00281MD1710021+9999REMSYN064AAXX  07181 54916 32960 01402 11058 21086 40241 57002 333 10028;EQDQ01  00002PRCP99
0122549160999992000020721004+35570+116850FM-12+005399999V0200401N003012200019N0100001N1-00441-00911102721ADDGA1001+999999999GF100991001001999999001001MD1210311+9999REMSYN054AAXX  07211 54916 42960 00403 11044 21091 40272 52031;
0162549160999992000020800004+35570+116850FM-12+005399999V0200401N004012200019N0150001N1-00411-01821103061ADDAA199000091GA1001+999999999GF100991001001999999001001MD1210331+0051REMSYN064AAXX  08001 54916 32965 00404 11041 21182 40306 52033 333 00553;EQDQ01  00002PRCP99
0157549160999992000020803004+35570+116850FM-12+005399999V0200401N006012200019N0150001N1-00011+99999103161ADDGA1001+999999999GF100991001001999999001001MD1210101+9999REMSYN054AAXX  08031 54916 42965 00406 11001 21061 40316 52010;EQDQ01-000613ATOD  Q02 -00613ATOD  
0175549160999992000020806004+35570+116850FM-12+005399999V0200201N005012200019N0150001N1+00091-01891103021ADDAA199000091GA1001+999999999GF100991001001999999001001KA1999N-00761MD1710141+9999REMSYN064AAXX  08061 54916 32965 00205 10009 21189 40302 57014 333 21076;EQDQ01  00002PRCP99
0122549160999992000020809004+35570+116850FM-12+005399999V0200201N001012200019N0150001N1+00121-01631102941ADDGA1001+999999999GF100991001001999999001001MD1710071+9999REMSYN054AAXX  08091 54916 42965 00201 10012 21163 40294 57007;
0152549160999992000020812004+35570+116850FM-12+005399999V0203201N002012200019N0120001N1-00251-01611103041ADDAA199000091GA1001+999999999GF100991001001999999001001MD1210091+9999REMSYN054AAXX  08121 54916 32962 03202 11025 21161 40304 52009;EQDQ01  00002PRCP99
0175549160999992000020818004+35570+116850FM-12+005399999V0201101N002012200019N0120001N1-00841-01191102921ADDAA199000091GA1001+999999999GF100991001001999999001001KA1999M+00221MD1710101+9999REMSYN064AAXX  08181 54916 32962 01102 11084 21119 40292 57010 333 10022;EQDQ01  00002PRCP99
0122549160999992000020821004+35570+116850FM-12+005399999V0200901N002012200019N0100001N1-00901-01161102811ADDGA1001+999999999GF100991001001999999001001MD1710111+9999REMSYN054AAXX  08211 54916 42960 00902 11090 21116 40281 57011;
0152549160999992000020900004+35570+116850FM-12+005399999V0200901N002019999999N0100001N1-00711-01081102831ADDAA199000091GF106991001001999999001021MD1210021+0021REMSYN070AAXX  09001 54916 32960 60902 11071 21108 40283 52002 80002 333 05253;EQDQ01  00002PRCP99
0112549160999992000020903004+35570+116850FM-12+005399999V0201601N005012200019N0100001N1-00041-00841102781ADDGF103991001001999999001021MD1710051+9999REMSYN060AAXX  09031 54916 42960 31605 11004 21084 40278 57005 80002;
0165549160999992000020906004+35570+116850FM-12+005399999V0201801N004019999999N0100001N1+00311-01061102461ADDAA199000091GF105991001001999999001021KA1999N-00971MD1710311+9999REMSYN070AAXX  09061 54916 32960 51804 10031 21106 40246 57031 80002 333 21097;EQDQ01  00002PRCP99
0112549160999992000020909004+35570+116850FM-12+005399999V0201601N003012200019N0100001N1+00321-01221102301ADDGF102991001001999999001021MD1710161+9999REMSYN060AAXX  09091 54916 42960 21603 10032 21122 40230 57016 80002;
0175549160999992000020911004+35570+116850FM-12+005399999V0201101N002012200019N0100001N1-00471-00861102261ADDAA199000091GA1001+999999999GF100991001001999999001001KA1999M+00431MD1710071+9999REMSYN064AAXX  09111 54916 32960 01102 11047 21086 40226 57007 333 10043;EQDQ01  00002PRCP99
0152549160999992000020912004+35570+116850FM-12+005399999V0201601N002012200019N0100001N1-00061-00861102311ADDAA199000091GA1001+999999999GF100991001001999999001001MD1210011+9999REMSYN054AAXX  09121 54916 32960 01602 11006 21086 40231 52001;EQDQ01  00002PRCP99
0175549160999992000020918004+35570+116850FM-12+005399999V0201101N002012200019N0100001N1-00471-00861102261ADDAA199000091GA1001+999999999GF100991001001999999001001KA1999M+00431MD1710071+9999REMSYN064AAXX  09181 54916 32960 01102 11047 21086 40226 57007 333 10043;EQDQ01  00002PRCP99
0122549160999992000020921004+35570+116850FM-12+005399999V0200901N003012200019N0100001N1-00611-00901102171ADDGA1001+999999999GF100991001001999999001001MD1710091+9999REMSYN054AAXX  09211 54916 42960 00903 11061 21090 40217 57009;
0162549160999992000021000004+35570+116850FM-12+005399999V0200701N003012200019N0100001N1-00561-00791102151ADDAA199000091GA1001+999999999GF100991001001999999001001MD1710021+0071REMSYN064AAXX  10001 54916 32960 00703 11056 21079 40215 57002 333 05702;EQDQ01  00002PRCP99
0122549160999992000021003004+35570+116850FM-12+005399999V0201801N003012200019N0100001N1+00391-00541102121ADDGA1001+999999999GF100991001001999999001001MD1710021+9999REMSYN054AAXX  10031 54916 42960 01803 10039 21054 40212 57002;
0175549160999992000021006004+35570+116850FM-12+005399999V0202001N004012200019N0100001N1+00721-00681101801ADDAA199000091GA1001+999999999GF100991001001999999001001KA1999N-00721MD1710321+9999REMSYN064AAXX  10061 54916 32960 02004 10072 21068 40180 57032 333 21072;EQDQ01  00002PRCP99
0122549160999992000021009004+35570+116850FM-12+005399999V0202001N003012200019N0100001N1+00681-00621101791ADDGA1001+999999999GF100991001001999999001001MD1710011+9999REMSYN054AAXX  10091 54916 42960 02003 10068 21062 40179 57001;
0152549160999992000021012004+35570+116850FM-12+005399999V0201801N002012200019N0100001N1+00221-00251101971ADDAA199000091GA1001+999999999GF100991001001999999001001MD1210171+9999REMSYN054AAXX  10121 54916 32960 01802 10022 21025 40197 52017;EQDQ01  00002PRCP99
0175549160999992000021018004+35570+116850FM-12+005399999V0200201N001012200019N0100001N1-00321-00491102171ADDAA199000091GA1001+999999999GF100991001001999999001001KA1999M+00841MD1210111+9999REMSYN064AAXX  10181 54916 32960 00201 11032 21049 40217 52011 333 10084;EQDQ01  00002PRCP99
0112549160999992000021021004+35570+116850FM-12+005399999V0200201N002019999999N0100001N1-00421-00551102171ADDGF105991001001999999001021MD1410001+9999REMSYN060AAXX  10211 54916 42960 50202 11042 21055 40217 54000 80002;
0182549160999992000021100004+35570+116850FM-12+005399999V0200401N002012200019N0060001N1-00451-00581102301ADDAA199000091GF102991001001999999001021IA2999-00409MD1210121+0201MW1101REMSYN082AAXX  11001 54916 31956 20402 11045 21058 40230 52012 71000 80002 333 00201 31044;EQDQ01  00002PRCP99
0141549160999992000021103004+35570+116850FM-12+005399999V0200701N003012200019N0100001N1+00662-00441102341ADDGA1001+999999999GF100991001001999999001001MD1210051+9999REMSYN054AAXX  11031 54916 42960 00703 10066 21044 40234 52005;EQDQ01+000663ATOT  
0175549160999992000021106004+35570+116850FM-12+005399999V0200201N001012200019N0100001N1+01041-00541102131ADDAA199000091GA1001+999999999GF100991001001999999001001KA1999N-00531MD1710201+9999REMSYN064AAXX  11061 54916 32960 00201 10104 21054 40213 57020 333 21053;EQDQ01  00002PRCP99
0122549160999992000021109004+35570+116850FM-12+005399999V0202001N003012200019N0100001N1+00971+00211102121ADDGA1001+999999999GF100991001001999999001001MD1710021+9999REMSYN054AAXX  11091 54916 42960 02003 10097 20021 40212 57002;
0152549160999992000021112004+35570+116850FM-12+005399999V0201601N002012200019N0100001N1+00171-00241102111ADDAA199000091GA1001+999999999GF100991001001999999001001MD1710021+9999REMSYN054AAXX  11121 54916 32960 01602 10017 21024 40211 57002;EQDQ01  00002PRCP99
0175549160999992000021118004+35570+116850FM-12+005399999V0200901N001012200019N0100001N1-00221-00381102121ADDAA199000091GA1001+999999999GF100991001001999999001001KA1999M+01181MD1710041+9999REMSYN064AAXX  11181 54916 32960 00901 11022 21038 40212 57004 333 10118;EQDQ01  00002PRCP99
0122549160999992000021121004+35570+116850FM-12+005399999V0200401N002012200019N0100001N1-00201-00391102011ADDGA1001+999999999GF100991001001999999001001MD1710111+9999REMSYN054AAXX  11211 54916 42960 00402 11020 21039 40201 57011;
0170549160999992000021200004+35570+116850FM-12+005399999V0200701N002019999999N0100001N1-00141-00361102081ADDAA199000091GF106991061001999999031001IA2999-00309MD1210061-0201REMSYN076AAXX  12001 54916 32960 60702 11014 21036 40208 52006 86030 333 05203 31033;EQDQ01  00002PRCP99
0122549160999992000021203004+35570+116850FM-12+005399999V0201801N007012200019N0100001N1+00871-00121102061ADDGA1001+999999999GF100991001001999999001001MD1710011+9999REMSYN054AAXX  12031 54916 42960 01807 10087 21012 40206 57001;
0165549160999992000021206004+35570+116850FM-12+005399999V0201601N005019999999N0100001N1+01251+00151101791ADDAA199000091GF105991001001999999001021KA1999N-00301MD1710271+9999REMSYN070AAXX  12061 54916 32960 51605 10125 20015 40179 57027 80002 333 21030;EQDQ01  00002PRCP99
0122549160999992000021209004+35570+116850FM-12+005399999V0201801N003012200019N0100001N1+01201-00321101711ADDGA1001+999999999GF100991001001999999001001MD1710081+9999REMSYN054AAXX  12091 54916 42960 01803 10120 21032 40171 57008;
0152549160999992000021212004+35570+116850FM-12+005399999V0201401N003012200019N0120001N1+00331-00181101861ADDAA199000091GA1001+999999999GF100991001001999999001001MD1210141+9999REMSYN054AAXX  12121 54916 32962 01403 10033 21018 40186 52014;EQDQ01  00002PRCP99
0175549160999992000021218004+35570+116850FM-12+005399999V0200901N003012200019N0100001N1+00041-00231101931ADDAA199000091GA1001+999999999GF100991001001999999001001KA1999M+01341MD1710011+9999REMSYN064AAXX  12181 54916 32960 00903 10004 21023 40193 57001 333 10134;EQDQ01  00002PRCP99
0112549160999992000021221004+35570+116850FM-12+005399999V0200701N003019999999N0100001N1+00001-00211101841ADDGF105991051001999999031001MD1710091+9999REMSYN060AAXX  12211 54916 42960 50703 10000 21021 40184 57009 85030;
0164549160999992000021300004+35570+116850FM-12+005399999V0200901N001019999999N0100001N1+00021-00191999999ADDAA199000091GF107991001001999999001021IA2999-00209MD1210181-0101REMSYN070AAXX  13001 54916 32960 70901 10002 21019 52018 80002 333 05102 31023;EQDQ01  00002PRCP99
0112549160999992000021303004+35570+116850FM-12+005399999V0203201N001019999999N0100001N1+00611+00041102031ADDGF108991001001999999001071MD1210011+9999REMSYN060AAXX  13031 54916 42960 83201 10061 20004 40203 52001 80007;
0165549160999992000021306004+35570+116850FM-12+005399999V0203201N002019999999N0100001N1+00741+00091101861ADDAA199000091GF108991001001999999001071KA1999N-00081MD1710171+9999REMSYN070AAXX  13061 54916 32960 83202 10074 20009 40186 57017 80007 333 21008;EQDQ01  00002PRCP99
0124549160999992000021309004+35570+116850FM-12+005399999V0203201N003019999999N0100001N1+00591+00111101851ADDGF108991081001999999071999MD1710011+9999MW1601REMSYN066AAXX  13091 54916 41960 83203 10059 20011 40185 57001 76000 8807/;
0149549160999992000021312004+35570+116850FM-12+005399999V0203201N003019999999N0100001N1+00241+00081102051ADDAA106000791AY161061GF108991081001999999071999MD1210191+9999MW1001REMSYN072AAXX  13121 54916 11960 83203 10024 20008 40205 52019 69901 70060 8807/;
0146549160999992000021318004+35570+116850FM-12+005399999V0203201N003019999999N0100001N1+00001-00061102391ADDAA199000021GF108991081001999999021999KA1999M+00791MD1210141+9999REMSYN070AAXX  13181 54916 32960 83203 10000 21006 40239 52014 8802/ 333 10079;
0133549160999992000021321004+35570+116850FM-12+005399999V0203201N003019999999N0100001N1-00081-00201102461ADDAA124000791GF106991061001999999031001MD1210071+9999REMSYN070AAXX  13211 54916 42960 63203 11008 21020 40246 52007 86030 333 79999;
0169549160999992000021400004+35570+116850FM-12+005399999V0203201N002012200019N0060001N1-00221-00321102651ADDAA124000791GF102991001001999999001021IA2999-00199MD1210181+0601MW1101REMSYN088AAXX  14001 54916 31956 23202 11022 21032 40265 52018 71000 80002 333 00652 31019 79999;
0112549160999992000021403004+35570+116850FM-12+005399999V0203201N002019999999N0100001N1+00271-00161102581ADDGF107991001001999999001021MD1710061+9999REMSYN060AAXX  14031 54916 42960 73202 10027 21016 40258 57006 80002;
0165549160999992000021406004+35570+116850FM-12+005399999V0203201N003012200019N0100001N1+00651-00461102461ADDAA199000091GF104991011011008001001021KA1999N-00221MD1710121+9999REMSYN070AAXX  14061 54916 32560 43203 10065 21046 40246 57012 81102 333 21022;EQDQ01  00002PRCP99
0112549160999992000021409004+35570+116850FM-12+005399999V0203601N004019999999N0100001N1+00571-00831102511ADDGF106991001001999999001021MD1210051+9999REMSYN060AAXX  14091 54916 42960 63604 10057 21083 40251 52005 80002;
0152549160999992000021412004+35570+116850FM-12+005399999V0203401N003012200019N0100001N1+00211-00921102781ADDAA199000091GA1001+999999999GF100991001001999999001001MD1210261+9999REMSYN054AAXX  14121 54916 32960 03403 10021 21092 40278 52026;EQDQ01  00002PRCP99
0175549160999992000021418004+35570+116850FM-12+005399999V0203401N002012200019N0100001N1-00261-00691102931ADDAA199000091GA1001+999999999GF100991001001999999001001KA1999M+00781MD1210081+9999REMSYN064AAXX  14181 54916 32960 03402 11026 21069 40293 52008 333 10078;EQDQ01  00002PRCP99
0122549160999992000021421004+35570+116850FM-12+005399999V0200701N001012200019N0100001N1-00451-00841102921ADDGA1001+999999999GF100991001001999999001001MD1710021+9999REMSYN054AAXX  14211 54916 42960 00701 11045 21084 40292 57002;
0152549160999992000021500004+35570+116850FM-12+005399999V0200401N001012200019N0100001N1-00461-01091102991ADDAA199000091GF104991001001999999001021MD1210071+0031REMSYN070AAXX  15001 54916 32960 40401 11046 21109 40299 52007 80002 333 00352;EQDQ01  00002PRCP99
0112549160999992000021503004+35570+116850FM-12+005399999V0203201N003012200019N0100001N1+00141-01941103041ADDGF102991001001999999001021MD1210051+9999REMSYN060AAXX  15031 54916 42960 23203 10014 21194 40304 52005 80002;
0175549160999992000021506004+35570+116850FM-12+005399999V0202701N005012200019N0100001N1+00441-02671102731ADDAA199000091GA1001+999999999GF100991001001999999001001KA1999N-00571MD1710301+9999REMSYN064AAXX  15061 54916 32960 02705 10044 21267 40273 57030 333 21057;EQDQ01  00002PRCP99
0122549160999992000021509004+35570+116850FM-12+005399999V0202901N006012200019N0120001N1+00351-02331102671ADDGA1001+999999999GF100991001001999999001001MD1710071+9999REMSYN054AAXX  15091 54916 42962 02906 10035 21233 40267 57007;
0152549160999992000021512004+35570+116850FM-12+005399999V0209999C000012200019N0100001N1-00031-01132102781ADDAA199000091GA1001+999999999GF100991001001999999001001MD1210111+9999REMSYN054AAXX  15121 54916 32960 00000 11003 21113 40278 52011;EQDQ01  00002PRCP99
0175549160999992000021518004+35570+116850FM-12+005399999V0201601N002012200019N0100001N1-00501-01211102741ADDAA199000091GA1001+999999999GF100991001001999999001001KA1999M+00551MD1710021+9999REMSYN064AAXX  15181 54916 32960 01602 11050 21121 40274 57002 333 10055;EQDQ01  00002PRCP99
0122549160999992000021521004+35570+116850FM-12+005399999V0200901N002012200019N0100001N1-00591-01291102581ADDGA1001+999999999GF100991001001999999001001MD1710161+9999REMSYN054AAXX  15211 54916 42960 00902 11059 21129 40258 57016;
0152549160999992000021600004+35570+116850FM-12+005399999V0200701N001019999999N0100001N1-00551-01071102721ADDAA199000091GF106991001001999999001021MD1210141+0031REMSYN070AAXX  16001 54916 32960 60701 11055 21107 40272 52014 80002 333 05351;EQDQ01  00002PRCP99
0122549160999992000021603004+35570+116850FM-12+005399999V0201601N003012200019N0100001N1+00451-01011102751ADDGA1001+999999999GF100991001001999999001001MD1210031+9999REMSYN054AAXX  16031 54916 42960 01603 10045 21101 40275 52003;
0175549160999992000021606004+35570+116850FM-12+005399999V0202201N003012200019N0100001N1+00721-01651102451ADDAA199000091GA1001+999999999GF100991001001999999001001KA1999N-00741MD1710291+9999REMSYN064AAXX  16061 54916 32960 02203 10072 21165 40245 57029 333 21074;EQDQ01  00002PRCP99
0122549160999992000021609004+35570+116850FM-12+005399999V0201601N003012200019N0100001N1+00701-01461102311ADDGA1001+999999999GF100991001001999999001001MD1710141+9999REMSYN054AAXX  16091 54916 42960 01603 10070 21146 40231 57014;
0152549160999992000021612004+35570+116850FM-12+005399999V0201401N002012200019N0100001N1+00041-00851102421ADDAA199000091GA1001+999999999GF100991001001999999001001MD1210101+9999REMSYN054AAXX  16121 54916 32960 01402 10004 21085 40242 52010;EQDQ01  00002PRCP99
0165549160999992000021618004+35570+116850FM-12+005399999V0200901N003012200019N0100001N1-00211-00961102561ADDAA199000091GF101991001001999999001021KA1999M+00831MD1210031+9999REMSYN070AAXX  16181 54916 32960 10903 11021 21096 40256 52003 80002 333 10083;EQDQ01  00002PRCP99
0112549160999992000021620004+35570+116850FM-12+005399999V0201101N003019999999N0100001N1-00311-00871102561ADDGF106991001001999999001021MD1410001+9999REMSYN060AAXX  16201 54916 42960 61103 11031 21087 40256 54000 80002;
0112549160999992000021621004+35570+116850FM-12+005399999V0201101N003019999999N0100001N1-00381-00871102561ADDGF106991001001999999001021MD1410001+9999REMSYN060AAXX  16211 54916 42960 61103 11038 21087 40256 54000 80002;
0162549160999992000021700004+35570+116850FM-12+005399999V0200701N002012200019N0100001N1-00261-00751102651ADDAA199000091GA1001+999999999GF100991001001999999001001MD1210081+0011REMSYN064AAXX  17001 54916 32960 00702 11026 21075 40265 52008 333 05103;EQDQ01  00002PRCP99
0112549160999992000021703004+35570+116850FM-12+005399999V0201401N002010150019N0100001N1+00481-00441102631ADDGF108991081051017501999999MD1710011+9999REMSYN060AAXX  17031 54916 42760 81402 10048 21044 40263 57001 885//;
0175549160999992000021706004+35570+116850FM-12+005399999V0201101N003012200019N0100001N1+00921+00051102451ADDAA199000091GA1001+999999999GF100991001001999999001001KA1999N-00401MD1710181+9999REMSYN064AAXX  17061 54916 32960 01103 10092 20005 40245 57018 333 21040;EQDQ01  00002PRCP99
0122549160999992000021709004+35570+116850FM-12+005399999V0200401N003012200019N0100001N1+00911+00161102321ADDGA1001+999999999GF100991001001999999001001MD1710131+9999REMSYN054AAXX  17091 54916 42960 00403 10091 20016 40232 57013;
0152549160999992000021712004+35570+116850FM-12+005399999V0200701N003012200019N0100001N1+00261-00231102361ADDAA199000091GA1001+999999999GF100991001001999999001001MD1210041+9999REMSYN054AAXX  17121 54916 32960 00703 10026 21023 40236 52004;EQDQ01  00002PRCP99
0165549160999992000021718004+35570+116850FM-12+005399999V0200401N002012200019N0100001N1+00081-00321102491ADDAA199000091GF104991001001999999001021KA1999M+01081MD1210041+9999REMSYN070AAXX  17181 54916 32960 40402 10008 21032 40249 52004 80002 333 10108;EQDQ01  00002PRCP99
0112549160999992000021721004+35570+116850FM-12+005399999V0200401N002019999999N0100001N1-00081-00361102371ADDGF107991001001999999001021MD1710121+9999REMSYN060AAXX  17211 54916 42960 70402 11008 21036 40237 57012 80002;
0170549160999992000021800004+35570+116850FM-12+005399999V0200701N002019999999N0100001N1+00091-00301102351ADDAA199000091GF107991071001999999031999IA2999-00209MD1710031-0301REMSYN076AAXX  18001 54916 32960 70702 10009 21030 40235 57003 8703/ 333 05304 31026;EQDQ01  00002PRCP99
0112549160999992000021803004+35570+116850FM-12+005399999V0200401N004019999999N0100001N1+00721-00311102271ADDGF107991071001999999031999MD1710071+9999REMSYN060AAXX  18031 54916 42960 70404 10072 21031 40227 57007 8703/;
0165549160999992000021806004+35570+116850FM-12+005399999V0200901N006019999999N0100001N1+00931-00871101931ADDAA199000091GF107991001001999999001021KA1999N-00091MD1710341+9999REMSYN070AAXX  18061 54916 32960 70906 10093 21087 40193 57034 80002 333 21009;EQDQ01  00002PRCP99
0142549160999992000021812004+35570+116850FM-12+005399999V0201101N003019999999N0120001N1+00481-00221102011ADDAA199000091GF108991081001999999071999MD1210101+9999REMSYN060AAXX  18121 54916 32962 81103 10048 21022 40201 52010 8807/;EQDQ01  00002PRCP99
0172549160999992000021818004+35570+116850FM-12+005399999V0203601N001010120019N0100001N1+00321+00081102051ADDAA106000791AY161061GF108991081051012501999999KA1999M+01011MD1710031+9999MW1001REMSYN082AAXX  18181 54916 11660 83601 10032 20008 40205 57003 69901 70060 885// 333 10101;
0153549160999992000021821004+35570+116850FM-12+005399999V0203401N002010150019N0100001N1+00281-00051101981ADDAA124000791AY161031GF108991081051017501999999MD1710071+9999MW1211REMSYN076AAXX  18211 54916 41760 83402 10028 21005 40198 57007 72160 885// 333 79999;
0183549160999992000021900004+35570+116850FM-12+005399999V0203401N002012200019N0100001N1+00191-00151101961ADDAA106000791AY161061GF102991021001999999041001IA2999+00079MD1710021-0401MW1001REMSYN094AAXX  19001 54916 11960 23402 10019 21015 40196 57002 69901 70060 82040 333 05401 30007 79999;
0146549160999992000021906004+35570+116850FM-12+005399999V0203201N005019999999N0100001N1+00601-00131102001ADDAA199000021GF108991001001999999001071KA1999N+00181MD1710121+9999REMSYN070AAXX  19061 54916 32960 83205 10060 21013 40200 57012 80007 333 20018;
0112549160999992000021909004+35570+116850FM-12+005399999V0203401N004019999999N0100001N1+00381+00011101911ADDGF108991001001999999001071MD1710091+9999REMSYN060AAXX  19091 54916 42960 83404 10038 20001 40191 57009 80007;
0142549160999992000021912004+35570+116850FM-12+005399999V0203401N003019999999N0100001N1+00191-00121102071ADDAA199000091GF107991001001999999001021MD1210151+9999REMSYN060AAXX  19121 54916 32960 73403 10019 21012 40207 52015 80002;EQDQ01  00002PRCP99
0175549160999992000021918004+35570+116850FM-12+005399999V0203601N002012200019N0100001N1-00161-00391102341ADDAA199000091GA1001+999999999GF100991001001999999001001KA1999M+00661MD1210031+9999REMSYN064AAXX  19181 54916 32960 03602 11016 21039 40234 52003 333 10066;EQDQ01  00002PRCP99
0122549160999992000021921004+35570+116850FM-12+005399999V0200201N002012200019N0100001N1-00441-00611102341ADDGA1001+999999999GF100991001001999999001001MD1710011+9999REMSYN054AAXX  19211 54916 42960 00202 11044 21061 40234 57001;
0152549160999992000022000004+35570+116850FM-12+005399999V0200401N002019999999N0100001N1-00261-00621102411ADDAA199000091GF105991001001999999001021MD1210071+0041REMSYN070AAXX  20001 54916 32960 50402 11026 21062 40241 52007 80002 333 00455;EQDQ01  00002PRCP99
0112549160999992000022003004+35570+116850FM-12+005399999V0200901N002010150019N0100001N1+00371-01181102601ADDGF107991071051017501999999MD1210201+9999REMSYN060AAXX  20031 54916 42760 70902 10037 21118 40260 52020 875//;
0175549160999992000022006004+35570+116850FM-12+005399999V0200401N001012200019N0100001N1+00701-01241102351ADDAA199000091GA1001+999999999GF100991001001999999001001KA1999N-00471MD1710251+9999REMSYN064AAXX  20061 54916 32960 00401 10070 21124 40235 57025 333 21047;EQDQ01  00002PRCP99
0122549160999992000022009004+35570+116850FM-12+005399999V0202901N002012200019N0100001N1+00671-01251102251ADDGA1001+999999999GF100991001001999999001001MD1710101+9999REMSYN054AAXX  20091 54916 42960 02902 10067 21125 40225 57010;
0152549160999992000022012004+35570+116850FM-12+005399999V0202001N002012200019N0100001N1+00031-01021102431ADDAA199000091GA1001+999999999GF100991001001999999001001MD1210171+9999REMSYN054AAXX  20121 54916 32960 02002 10003 21102 40243 52017;EQDQ01  00002PRCP99
0175549160999992000022018004+35570+116850FM-12+005399999V0200901N002012200019N0100001N1-00421-00641102631ADDAA199000091GA1001+999999999GF100991001001999999001001KA1999M+00801MD1210051+9999REMSYN064AAXX  20181 54916 32960 00902 11042 21064 40263 52005 333 10080;EQDQ01  00002PRCP99
0122549160999992000022021004+35570+116850FM-12+005399999V0200901N002012200019N0100001N1-00481-00751102571ADDGA1001+999999999GF100991001001999999001001MD1710061+9999REMSYN054AAXX  20211 54916 42960 00902 11048 21075 40257 57006;
0152549160999992000022100004+35570+116850FM-12+005399999V0200701N002019999999N0100001N1-00451-00741102671ADDAA199000091GF106991001001999999001021MD1210091+0031REMSYN070AAXX  21001 54916 32960 60702 11045 21074 40267 52009 80002 333 00352;EQDQ01  00002PRCP99
0122549160999992000022103004+35570+116850FM-12+005399999V0201801N004012200019N0100001N1+00541-00601102671ADDGA1001+999999999GF100991001001999999001001MD1210011+9999REMSYN054AAXX  21031 54916 42960 01804 10054 21060 40267 52001;
0165549160999992000022106004+35570+116850FM-12+005399999V0201801N005012200019N0100001N1+00791-00281102371ADDAA199000091GF104991001001999999001021KA1999N-00591MD1710301+9999REMSYN070AAXX  21061 54916 32960 41805 10079 21028 40237 57030 80002 333 21059;EQDQ01  00002PRCP99
0112549160999992000022109004+35570+116850FM-12+005399999V0201801N003019999999N0100001N1+00751-00881102291ADDGF108991001001999999001071MD1710081+9999REMSYN060AAXX  21091 54916 42960 81803 10075 21088 40229 57008 80007;
0142549160999992000022112004+35570+116850FM-12+005399999V0201801N002019999999N0100001N1+00481-00481102361ADDAA199000091GF105991001001999999001021MD1210071+9999REMSYN060AAXX  21121 54916 32960 51802 10048 21048 40236 52007 80002;EQDQ01  00002PRCP99
0165549160999992000022118004+35570+116850FM-12+005399999V0201401N002019999999N0100001N1+00141-00541102571ADDAA199000091GF108991001001999999001071KA1999M+00881MD1210071+9999REMSYN070AAXX  21181 54916 32960 81402 10014 21054 40257 52007 80007 333 10088;EQDQ01  00002PRCP99
0112549160999992000022121004+35570+116850FM-12+005399999V0201601N002019999999N0100001N1-00031-00561102481ADDGF106991001001999999001021MD1710101+9999REMSYN060AAXX  21211 54916 42960 61602 11003 21056 40248 57010 80002;
0170549160999992000022200004+35570+116850FM-12+005399999V0201101N001019999999N0100001N1-00041-00421102661ADDAA199000091GF107991071001999999041001IA2999-00209MD1210181+0001REMSYN076AAXX  22001 54916 32960 71101 11004 21042 40266 52018 87040 333 00004 31025;EQDQ01  00002PRCP99
0122549160999992000022203004+35570+116850FM-12+005399999V0201401N005012200019N0100001N1+00591-00561102601ADDGA1001+999999999GF100991001001999999001001MD1710061+9999REMSYN054AAXX  22031 54916 42960 01405 10059 21056 40260 57006;
0175549160999992000022206004+35570+116850FM-12+005399999V0202201N003012200019N0100001N1+00861-00811102401ADDAA199000091GA1001+999999999GF100991001001999999001001KA1999N-00201MD1710191+9999REMSYN064AAXX  22061 54916 32960 02203 10086 21081 40240 57019 333 21020;EQDQ01  00002PRCP99
0112549160999992000022209004+35570+116850FM-12+005399999V0201801N004019999999N0100001N1+00751-00421102291ADDGF107991001001999999001021MD1710111+9999REMSYN060AAXX  22091 54916 42960 71804 10075 21042 40229 57011 80002;
0142549160999992000022212004+35570+116850FM-12+005399999V0202001N002019999999N0100001N1+00571-00351102361ADDAA199000091GF108991001001999999001071MD1210061+9999REMSYN060AAXX  22121 54916 32960 82002 10057 21035 40236 52006 80007;EQDQ01  00002PRCP99
0165549160999992000022218004+35570+116850FM-12+005399999V0201401N001019999999N0100001N1+00261-00141102551ADDAA199000091GF108991001001999999001071KA1999M+00941MD1210041+9999REMSYN070AAXX  22181 54916 32960 81401 10026 21014 40255 52004 80007 333 10094;EQDQ01  00002PRCP99
0112549160999992000022221004+35570+116850FM-12+005399999V0200701N001019999999N0100001N1-00131-00351102571ADDGF106991001001999999001021MD1210011+9999REMSYN060AAXX  22211 54916 42960 60701 11013 21035 40257 52001 80002;
0180549160999992000022300004+35570+116850FM-12+005399999V0200701N001012200019N0100001N1-00111-00331102721ADDAA199000091GA1001+999999999GF100991001001999999001001IA2999-00209MD1210151+0101REMSYN070AAXX  23001 54916 32960 00701 11011 21033 40272 52015 333 00151 31025;EQDQ01  00002PRCP99
0122549160999992000022303004+35570+116850FM-12+005399999V0209999C000012200019N0100001N1+00791-00171102791ADDGA1001+999999999GF100991001001999999001001MD1210081+9999REMSYN054AAXX  23031 54916 42960 00000 10079 21017 40279 52008;
0165549160999992000022306004+35570+116850FM-12+005399999V0203601N004012200019N0100001N1+00991-00191102561ADDAA199000091GF102991001001999999001021KA1999N-00231MD1710231+9999REMSYN070AAXX  23061 54916 32960 23604 10099 21019 40256 57023 80002 333 21023;EQDQ01  00002PRCP99
0112549160999992000022309004+35570+116850FM-12+005399999V0203401N003012200019N0100001N1+00961-00131102621ADDGF104991041001999999041001MD1210051+9999REMSYN060AAXX  23091 54916 42960 43403 10096 21013 40262 52005 84040;
0142549160999992000022312004+35570+116850FM-12+005399999V0200401N002019999999N0100001N1+00471-00271102761ADDAA199000091GF108991081001999999071999MD1210141+9999REMSYN060AAXX  23121 54916 32960 80402 10047 21027 40276 52014 8807/;EQDQ01  00002PRCP99
0165549160999992000022318004+35570+116850FM-12+005399999V0200201N003019999999N0100001N1+00171-00281103121ADDAA199000091GF108991081001999999071999KA1999M+01111MD1210091+9999REMSYN070AAXX  23181 54916 32960 80203 10017 21028 40312 52009 8807/ 333 10111;EQDQ01  00002PRCP99
0112549160999992000022321004+35570+116850FM-12+005399999V0200401N003019999999N0100001N1-00051-00591103151ADDGF106991001001999999001021MD1210021+9999REMSYN060AAXX  23211 54916 42960 60403 11005 21059 40315 52002 80002;
0170549160999992000022400004+35570+116850FM-12+005399999V0200401N001019999999N0100001N1-00111-00371103431ADDAA199000091GF106991001001999999001021IA2999-00309MD1210271+0701REMSYN076AAXX  24001 54916 32960 60401 11011 21037 40343 52027 80002 333 00700 31033;EQDQ01  00002PRCP99
0122549160999992000022403004+35570+116850FM-12+005399999V0200901N003012200019N0100001N1+00641-01211103391ADDGA1001+999999999GF100991001001999999001001MD1710031+9999REMSYN054AAXX  24031 54916 42960 00903 10064 21121 40339 57003;
0165549160999992000022406004+35570+116850FM-12+005399999V0200901N002012200019N0100001N1+00841-01381103161ADDAA199000091GF102991001001999999001021KA1999N-00261MD1710231+9999REMSYN070AAXX  24061 54916 32960 20902 10084 21138 40316 57023 80002 333 21026;EQDQ01  00002PRCP99
0112549160999992000022409004+35570+116850FM-12+005399999V0209999C000019999999N0100001N1+00741-00971103071ADDGF108991081001999999071999MD1710091+9999REMSYN060AAXX  24091 54916 42960 80000 10074 21097 40307 57009 8807/;
0142549160999992000022412004+35570+116850FM-12+005399999V0202701N002019999999N0100001N1+00591-01071103061ADDAA199000091GF108991081001999999071999MD1710011+9999REMSYN060AAXX  24121 54916 32960 82702 10059 21107 40306 57001 8807/;EQDQ01  00002PRCP99
0165549160999992000022418004+35570+116850FM-12+005399999V0201801N003019999999N0100001N1+00321-00791103061ADDAA199000091GF108991001001999999001071KA1999M+00871MD1710181+9999REMSYN070AAXX  24181 54916 32960 81803 10032 21079 40306 57018 80007 333 10087;EQDQ01  00002PRCP99
0112549160999992000022421004+35570+116850FM-12+005399999V0201601N004019999999N0100001N1+00241-00691103121ADDGF108991081001999999071999MD1210051+9999REMSYN060AAXX  24211 54916 42960 81604 10024 21069 40312 52005 8807/;
0170549160999992000022500004+35570+116850FM-12+005399999V0201801N004019999999N0100001N1+00261-00531102841ADDAA199000091GF108991081001999999071999IA2999+00009MD1710281-0601REMSYN076AAXX  25001 54916 32960 81804 10026 21053 40284 57028 8807/ 333 05604 31003;EQDQ01  00002PRCP99
0132549160999992000022503004+35570+116850FM-12+005399999V0202001N006019999999N0100001N1+00021-00011102621ADDAY171031GF108991081001999999071999MD1710221+9999MW1701REMSYN066AAXX  25031 54916 41960 82006 10002 21001 40262 57022 77070 8807/;
0172549160999992000022506004+35570+116850FM-12+005399999V0202501N007010150019N0100001N1+00461+00131102191ADDAA106000891AY171061GF108991081051017501999999KA1999N+00011MD1710421+9999MW1001REMSYN082AAXX  25061 54916 11760 82507 10046 20013 40219 57042 69981 70070 885// 333 20001;
0122549160999992000022509004+35570+116850FM-12+005399999V0203401N004012200019N0100001N1+00291-00071102261ADDGA1001+999999999GF100991001001999999001001MD1210061+9999REMSYN054AAXX  25091 54916 42960 03404 10029 21007 40226 52006;
0133549160999992000022512004+35570+116850FM-12+005399999V0202901N003012200019N0100001N1+00091-00141102411ADDAA199000021GA1001+999999999GF100991001001999999001001MD1210151+9999REMSYN054AAXX  25121 54916 32960 02903 10009 21014 40241 52015;
0175549160999992000022518004+35570+116850FM-12+005399999V0202501N002012200019N0100001N1-00021-00591102571ADDAA199000091GA1001+999999999GF100991001001999999001001KA1999M+00631MD1210011+9999REMSYN064AAXX  25181 54916 32960 02502 11002 21059 40257 52001 333 10063;EQDQ01  00002PRCP99
0143549160999992000022521004+35570+116850FM-12+005399999V0201401N001012200019N0100001N1-00501-00641102501ADDAA124000891GA1001+999999999GF100991001001999999001001MD1710081+9999REMSYN064AAXX  25211 54916 42960 01401 11050 21064 40250 57008 333 70008;
0149549160999992000022600004+35570+116850FM-12+005399999V0202701N002012200019N0100001N1-00321-00491102641ADDAA124000891GA1001+999999999GF100991001001999999001001MD1210141-0201REMSYN070AAXX  26001 54916 32960 02702 11032 21049 40264 52014 333 05256 70008;
0122549160999992000022603004+35570+116850FM-12+005399999V0203401N003012200019N0100001N1+00691-00571102711ADDGA1001+999999999GF100991001001999999001001MD1210081+9999REMSYN054AAXX  26031 54916 42960 03403 10069 21057 40271 52008;
0175549160999992000022606004+35570+116850FM-12+005399999V0203201N004012200019N0120001N1+01021-01211102461ADDAA199000091GA1001+999999999GF100991001001999999001001KA1999N-00571MD1710241+9999REMSYN064AAXX  26061 54916 32962 03204 10102 21121 40246 57024 333 21057;EQDQ01  00002PRCP99
0122549160999992000022609004+35570+116850FM-12+005399999V0202501N002012200019N0120001N1+01061-00911102321ADDGA1001+999999999GF100991001001999999001001MD1710151+9999REMSYN054AAXX  26091 54916 42962 02502 10106 21091 40232 57015;
0152549160999992000022612004+35570+116850FM-12+005399999V0201601N002012200019N0100001N1+00321-00691102421ADDAA199000091GA1001+999999999GF100991001001999999001001MD1210101+9999REMSYN054AAXX  26121 54916 32960 01602 10032 21069 40242 52010;EQDQ01  00002PRCP99
0175549160999992000022618004+35570+116850FM-12+005399999V0201401N003012200019N0100001N1-00091-00771102381ADDAA199000091GA1001+999999999GF100991001001999999001001KA1999M+01131MD1710071+9999REMSYN064AAXX  26181 54916 32960 01403 11009 21077 40238 57007 333 10113;EQDQ01  00002PRCP99
0122549160999992000022621004+35570+116850FM-12+005399999V0201401N003012200019N0100001N1+00061-00821102301ADDGA1001+999999999GF100991001001999999001001MD1710081+9999REMSYN054AAXX  26211 54916 42960 01403 10006 21082 40230 57008;
