0177561460999992000010100004+31620+100000FM-12+339499999V0209999C000012200019N0300001N1-01431-01861999999ADDAA106000091GA1001+999999999GF100991001001999999001001MA1999999067901MD1210111+0051REMSYN064AAXX  01001 56146 32980 00000 11143 21186 36790 52011 333 00553;EQDQ01  00002PRCP06
0137561460999992000010103004+31620+100000FM-12+339499999V0209999C000012200019N0300001N1-00791-01411999999ADDGA1001+999999999GF100991001001999999001001MA1999999068101MD1210201+9999REMSYN054AAXX  01031 56146 42980 00000 11079 21141 36810 52020;
0186561460999992000010106004+31620+100000FM-12+339499999V0202001N001012200019N0300001N1-00071-01911999999ADDAA106000091GF101991001001999999001021KA1999N-01591MA1999999067741MD1710361+0401REMSYN076AAXX  01061 56146 32980 12001 11007 21191 36774 57036 80002 333 00451 21159;EQDQ01  00002PRCP06
0137561460999992000010109004+31620+100000FM-12+339499999V0201801N001012200019N0300001N1+00411-02441999999ADDGF102991011011017501001021MA1999999067571MD1710171+0031REMSYN070AAXX  01091 56146 42780 21801 10041 21244 36757 57017 81102 333 00300;
0120561460999992000010111004+31620+100000FM-12+339499999V0201801N001012200019N0300001N1-00401+99999999999ADDAA106000091GA1001+999999999GF100991001001999999001001REMSYN036AAXX  01111 56146 32980 01801 1104/;EQDQ01  00002PRCP06
0177561460999992000010112004+31620+100000FM-12+339499999V0201801N001012200019N0300001N1-00431-02151999999ADDAA106000091GA1001+999999999GF100991001001999999001001MA1999999067761MD1210191+0031REMSYN064AAXX  01121 56146 32980 01801 11043 21215 36776 52019 333 00351;EQDQ01  00002PRCP06
0137561460999992000010115004+31620+100000FM-12+339499999V0209999C000012200019N0300001N1-00831-01891999999ADDGA1001+999999999GF100991001001999999001001MA1999999067911MD1210151+9999REMSYN054AAXX  01151 56146 42980 00000 11083 21189 36791 52015;
0196561460999992000010118004+31620+100000FM-12+339499999V0209999C000012200019N0300001N1-01081-01991999999ADDAA106000091GA1001+999999999GF100991001001999999001001KA1999M+00461MA1999999067931MD1210021+0201REMSYN070AAXX  01181 56146 32980 00000 11108 21199 36793 52002 333 00251 10046;EQDQ01  00002PRCP06
0147561460999992000010121004+31620+100000FM-12+339499999V0209999C000012200019N0300001N1-01361-02031999999ADDGA1001+999999999GF100991001001999999001001MA1999999067891MD1710041+0011REMSYN064AAXX  01211 56146 42980 00000 11136 21203 36789 57004 333 00100;
0177561460999992000010200004+31620+100000FM-12+339499999V0209999C000012200019N0300001N1-01441-01921999999ADDAA106000091GA1001+999999999GF100991001001999999001001MA1999999067941MD1210051+0001REMSYN064AAXX  02001 56146 32980 00000 11144 21192 36794 52005 333 00000;EQDQ01  00002PRCP06
0137561460999992000010203004+31620+100000FM-12+339499999V0209999C000012200019N0300001N1-00691-01431999999ADDGA1001+999999999GF100991001001999999001001MA1999999068051MD1210111+9999REMSYN054AAXX  02031 56146 42980 00000 11069 21143 36805 52011;
0196561460999992000010206004+31620+100000FM-12+339499999V0201801N001012200019N0300001N1-00061-01391999999ADDAA106000091GA1001+999999999GF100991001001999999001001KA1999N-01541MA1999999067691MD1710361-0101REMSYN070AAXX  02061 56146 32980 01801 11006 21139 36769 57036 333 05100 21154;EQDQ01  00002PRCP06
0147561460999992000010209004+31620+100000FM-12+339499999V0209999C000012200019N0300001N1+00331-01521999999ADDGA1001+999999999GF100991001001999999001001MA1999999067471MD1710221+0011REMSYN064AAXX  02091 56146 42980 00000 10033 21152 36747 57022 333 05151;
0177561460999992000010212004+31620+100000FM-12+339499999V0203601N001012200019N0300001N1-00471-02171999999ADDAA106000091GA1001+999999999GF100991001001999999001001MA1999999067511MD1210041+0031REMSYN064AAXX  02121 56146 32980 03601 11047 21217 36751 52004 333 05300;EQDQ01  00002PRCP06
0137561460999992000010215004+31620+100000FM-12+339499999V0209999C000012200019N0300001N1-00861-01951999999ADDGA1001+999999999GF100991001001999999001001MA1999999067671MD1210161+9999REMSYN054AAXX  02151 56146 42980 00000 11086 21195 36767 52016;
0196561460999992000010218004+31620+100000FM-12+339499999V0209999C000012200019N0300001N1-01061-02081999999ADDAA106000091GA1001+999999999GF100991001001999999001001KA1999M+00521MA1999999067671MD1410001-0301REMSYN070AAXX  02181 56146 32980 00000 11106 21208 36767 54000 333 05300 10052;EQDQ01  00002PRCP06
0147561460999992000010221004+31620+100000FM-12+339499999V0209999C000012200019N0300001N1-01341-02071999999ADDGA1001+999999999GF100991001001999999001001MA1999999067691MD1210021+0021REMSYN064AAXX  02211 56146 42980 00000 11134 21207 36769 52002 333 05200;
0177561460999992000010300004+31620+100000FM-12+339499999V0209999C000012200019N0300001N1-01531-02001999999ADDAA106000091GA1001+999999999GF100991001001999999001001MA1999999067691MD1410001+0031REMSYN064AAXX  03001 56146 32980 00000 11153 21200 36769 54000 333 05351;EQDQ01  00002PRCP06
0137561460999992000010303004+31620+100000FM-12+339499999V0209999C000012200019N0300001N1-00781-01521999999ADDGA1001+999999999GF100991001001999999001001MA1999999067771MD1210081+9999REMSYN054AAXX  03031 56146 42980 00000 11078 21152 36777 52008;
0196561460999992000010306004+31620+100000FM-12+339499999V0209999C000012200019N0300001N1+00011-01501999999ADDAA106000091GA1001+999999999GF100991001001999999001001KA1999N-01611MA1999999067351MD1710421-0301REMSYN070AAXX  03061 56146 32980 00000 10001 21150 36735 57042 333 05301 21161;EQDQ01  00002PRCP06
0137561460999992000010309004+31620+100000FM-12+339499999V0209999C000012200019N0300001N1+00561-01791999999ADDGF101991011011017501001001MA1999999067061MD1710291+0041REMSYN070AAXX  03091 56146 42780 10000 10056 21179 36706 57029 81100 333 05402;
0177561460999992000010312004+31620+100000FM-12+339499999V0203401N002012200019N0300001N1-00191-02011999999ADDAA106000091GA1001+999999999GF100991001001999999001001MA1999999067131MD1210071+0041REMSYN064AAXX  03121 56146 32980 03402 11019 21201 36713 52007 333 05403;EQDQ01  00002PRCP06
0137561460999992000010315004+31620+100000FM-12+339499999V0209999C000012200019N0300001N1-00711-02131999999ADDGA1001+999999999GF100991001001999999001001MA1999999067271MD1210141+9999REMSYN054AAXX  03151 56146 42980 00000 11071 21213 36727 52014;
0196561460999992000010318004+31620+100000FM-12+339499999V0209999C000012200019N0300001N1-00971-02021999999ADDAA106000091GA1001+999999999GF100991001001999999001001KA1999M+00611MA1999999067291MD1210021-0401REMSYN070AAXX  03181 56146 32980 00000 11097 21202 36729 52002 333 05401 10061;EQDQ01  00002PRCP06
0147561460999992000010321004+31620+100000FM-12+339499999V0202001N001012200019N0300001N1-01261-01901999999ADDGA1001+999999999GF100991001001999999001001MA1999999067331MD1210041+0041REMSYN064AAXX  03211 56146 42980 02001 11126 21190 36733 52004 333 05401;
0177561460999992000010400004+31620+100000FM-12+339499999V0209999C000012200019N0300001N1-01441-01801999999ADDAA106000091GA1001+999999999GF100991001001999999001001MA1999999067381MD1210051+0031REMSYN064AAXX  04001 56146 32980 00000 11144 21180 36738 52005 333 05301;EQDQ01  00002PRCP06
0137561460999992000010403004+31620+100000FM-12+339499999V0209999C000012200019N0300001N1-00681-01461999999ADDGA1001+999999999GF100991001001999999001001MA1999999067561MD1210181+9999REMSYN054AAXX  04031 56146 42980 00000 11068 21146 36756 52018;
0186561460999992000010406004+31620+100000FM-12+339499999V0201101N001012200019N0300001N1+00071-01421999999ADDAA106000091GF101991011011017501001021KA1999N-01561MA1999999067221MD1710341-0101REMSYN076AAXX  04061 56146 32780 11101 10007 21142 36722 57034 81102 333 05101 21156;EQDQ01  00002PRCP06
0137561460999992000010409004+31620+100000FM-12+339499999V0202701N008012200019N0300001N1+00651-01931999999ADDGF101991011011017501001021MA1999999067051MD1710171+0001REMSYN070AAXX  04091 56146 42780 12708 10065 21193 36705 57017 81102 333 00001;
0177561460999992000010412004+31620+100000FM-12+339499999V0201101N003012200019N0300001N1-00231-02651999999ADDAA106000091GA1001+999999999GF100991001001999999001001MA1999999067181MD1210131+0011REMSYN064AAXX  04121 56146 32980 01103 11023 21265 36718 52013 333 00100;EQDQ01  00002PRCP06
0137561460999992000010415004+31620+100000FM-12+339499999V0203201N001012200019N0300001N1-00701-02361999999ADDGA1001+999999999GF100991001001999999001001MA1999999067311MD1210131+9999REMSYN054AAXX  04151 56146 42980 03201 11070 21236 36731 52013;
0196561460999992000010418004+31620+100000FM-12+339499999V0209999C000012200019N0300001N1-00981-02351999999ADDAA106000091GA1001+999999999GF100991001001999999001001KA1999M+00741MA1999999067381MD1210071+0101REMSYN070AAXX  04181 56146 32980 00000 11098 21235 36738 52007 333 00100 10074;EQDQ01  00002PRCP06
0147561460999992000010421004+31620+100000FM-12+339499999V0209999C000012200019N0300001N1-01241-02191999999ADDGA1001+999999999GF100991001001999999001001MA1999999067321MD1710261+0001REMSYN064AAXX  04211 56146 42980 00000 11124 21219 36732 57026 333 00000;
0177561460999992000010500004+31620+100000FM-12+339499999V0209999C000012200019N0300001N1-01431-02061999999ADDAA106000091GA1001+999999999GF100991001001999999001001MA1999999067361MD1210041+0001REMSYN064AAXX  05001 56146 32980 00000 11143 21206 36736 52004 333 00000;EQDQ01  00002PRCP06
0137561460999992000010503004+31620+100000FM-12+339499999V0209999C000012200019N0300001N1-00521-01401999999ADDGA1001+999999999GF100991001001999999001001MA1999999067501MD1210141+9999REMSYN054AAXX  05031 56146 42980 00000 11052 21140 36750 52014;
0196561460999992000010506004+31620+100000FM-12+339499999V0209999C000012200019N0300001N1+00541-01711999999ADDAA106000091GA1001+999999999GF100991001001999999001001KA1999N-01461MA1999999067181MD1710321+0001REMSYN070AAXX  05061 56146 32980 00000 10054 21171 36718 57032 333 00005 21146;EQDQ01  00002PRCP06
0137561460999992000010509004+31620+100000FM-12+339499999V0202701N004012200019N0300001N1+00841-02201999999ADDGF101991011011017501001021MA1999999066991MD1710191+0011REMSYN070AAXX  05091 56146 42780 12704 10084 21220 36699 57019 81102 333 05102;
0177561460999992000010512004+31620+100000FM-12+339499999V0209999C000012200019N0300001N1-00281-02201999999ADDAA106000091GA1001+999999999GF100991001001999999001001MA1999999067161MD1210171+0001REMSYN064AAXX  05121 56146 32980 00000 11028 21220 36716 52017 333 00051;EQDQ01  00002PRCP06
0127561460999992000010515004+31620+100000FM-12+339499999V0203601N001012200019N0300001N1-00661-02541999999ADDGF101991001001999999001021MA1999999067341MD1210181+9999REMSYN060AAXX  05151 56146 42980 13601 11066 21254 36734 52018 80002;
0196561460999992000010518004+31620+100000FM-12+339499999V0209999C000012200019N0300001N1-00951-02371999999ADDAA106000091GA1001+999999999GF100991001001999999001001KA1999M+00911MA1999999067421MD1210081+0001REMSYN070AAXX  05181 56146 32980 00000 11095 21237 36742 52008 333 00000 10091;EQDQ01  00002PRCP06
0147561460999992000010521004+31620+100000FM-12+339499999V0209999C000012200019N0300001N1-01261-02311999999ADDGA1001+999999999GF100991001001999999001001MA1999999067441MD1210021+0011REMSYN064AAXX  05211 56146 42980 00000 11126 21231 36744 52002 333 00100;
0137561460999992000010603004+31620+100000FM-12+339499999V0209999C000012200019N0300001N1-00691-01481999999ADDGA1001+999999999GF100991001001999999001001MA1999999067681MD1210151+9999REMSYN054AAXX  06031 56146 42980 00000 11069 21148 36768 52015;
0186561460999992000010606004+31620+100000FM-12+339499999V0209999C000012200019N0300001N1+00191-01361999999ADDAA106000091GF102991001001999999001021KA1999N-01521MA1999999067311MD1710371+0101REMSYN076AAXX  06061 56146 32980 20000 10019 21136 36731 57037 80002 333 00154 21152;EQDQ01  00002PRCP06
0137561460999992000010609004+31620+100000FM-12+339499999V0209999C000012200019N0300001N1+00661-01761999999ADDGF102991001001999999001021MA1999999067051MD1710261+0011REMSYN070AAXX  06091 56146 42980 20000 10066 21176 36705 57026 80002 333 00152;
0177561460999992000010612004+31620+100000FM-12+339499999V0203601N003012200019N0300001N1-00351-01991999999ADDAA106000091GA1001+999999999GF100991001001999999001001MA1999999067071MD1210021+0011REMSYN064AAXX  06121 56146 32980 03603 11035 21199 36707 52002 333 05151;EQDQ01  00002PRCP06
0137561460999992000010615004+31620+100000FM-12+339499999V0209999C000012200019N0300001N1-00591-02151999999ADDGA1001+999999999GF100991001001999999001001MA1999999067191MD1210121+9999REMSYN054AAXX  06151 56146 42980 00000 11059 21215 36719 52012;
0186561460999992000010618004+31620+100000FM-12+339499999V0209999C000012200019N0300001N1-00771-01771999999ADDAA106000091GF101991011041022501001001KA1999M+00671MA1999999067181MD1710011-0201REMSYN076AAXX  06181 56146 32880 10000 11077 21177 36718 57001 81400 333 05202 10067;EQDQ01  00002PRCP06
0177561460999992000010621004+31620+100000FM-12+339499999V0209999C000012200019N0300001N1-01031-02051999999ADDAA106000091GA1001+999999999GF100991001001999999001001MA1999999067131MD1710051+0031REMSYN064AAXX  06211 56146 32980 00000 11103 21205 36713 57005 333 05303;EQDQ01  00002PRCP06
0167561460999992000010700004+31620+100000FM-12+339499999V0209999C000012200019N0300001N1-01141-01821999999ADDAA106000091GF103991031041017501001001MA1999999067181MD1210051+0041REMSYN070AAXX  07001 56146 32780 30000 11114 21182 36718 52005 83400 333 05403;EQDQ01  00002PRCP06
0127561460999992000010703004+31620+100000FM-12+339499999V0209999C000010900019N0300001N1-00501-01671999999ADDGF107991011011017501001021MA1999999067301MD1210121+9999REMSYN060AAXX  07031 56146 42780 70000 11050 21167 36730 52012 81102;
0186561460999992000010706004+31620+100000FM-12+339499999V0209999C000010900019N0300001N1+00291-01701999999ADDAA106000091GF105991021011017501001021KA1999N-01261MA1999999066991MD1710311-0301REMSYN076AAXX  07061 56146 32780 50000 10029 21170 36699 57031 82102 333 05301 21126;EQDQ01  00002PRCP06
0137561460999992000010709004+31620+100000FM-12+339499999V0201801N002010150019N0300001N1+00471-01701999999ADDGF107991051091017501001021MA1999999066791MD1710201+0031REMSYN070AAXX  07091 56146 42780 71802 10047 21170 36679 57020 85902 333 05352;
0167561460999992000010712004+31620+100000FM-12+339499999V0203201N003012200019N0300001N1+00161-01431999999ADDAA106000091GF104991041041017501001021MA1999999066941MD1210151+0011REMSYN070AAXX  07121 56146 32780 43203 10016 21143 36694 52015 84402 333 05105;EQDQ01  00002PRCP06
0137561460999992000010715004+31620+100000FM-12+339499999V0202701N001012200019N0300001N1-00581-01491999999ADDGA1001+999999999GF100991001001999999001001MA1999999067101MD1210161+9999REMSYN054AAXX  07151 56146 42980 02701 11058 21149 36710 52016;
0196561460999992000010718004+31620+100000FM-12+339499999V0209999C000012200019N0300001N1-00891-01691999999ADDAA106000091GA1001+999999999GF100991001001999999001001KA1999M+00731MA1999999067091MD1710011-0101REMSYN070AAXX  07181 56146 32980 00000 11089 21169 36709 57001 333 05151 10073;EQDQ01  00002PRCP06
0147561460999992000010721004+31620+100000FM-12+339499999V0209999C000012200019N0300001N1-01131-01681999999ADDGA1001+999999999GF100991001001999999001001MA1999999067081MD1710011+0011REMSYN064AAXX  07211 56146 42980 00000 11113 21168 36708 57001 333 05151;
0167561460999992000010800004+31620+100000FM-12+339499999V0209999C000012200019N0300001N1-01261-01611999999ADDAA106000091GF101991011041022501001001MA1999999067141MD1210061+0001REMSYN070AAXX  08001 56146 32880 10000 11126 21161 36714 52006 81400 333 00051;EQDQ01  00002PRCP06
0127561460999992000010803004+31620+100000FM-12+339499999V0209999C000012200019N0300001N1-00601-01201999999ADDGF101991011011017501001001MA1999999067251MD1210111+9999REMSYN060AAXX  08031 56146 42780 10000 11060 21120 36725 52011 81100;
0209561460999992000010806004+31620+100000FM-12+339499999V0202701N010010900019N0300001N1+00622-01111999999ADDAA106000091GF106991031041017501001021KA1240N-01381MA1999999066901MD1710351-0101OA130601801REMSYN088AAXX  08061 56146 32780 62710 10062 21111 36690 57035 83402 333 05103 21138 91118 91527;EQDQ01  00002PRCP06
0137561460999992000010809004+31620+100000FM-12+339499999V0203201N005010900019N0300001N1+00501-02362999999ADDGF106991021041017501001021MA1999999066851MD1710051+0011REMSYN070AAXX  08091 56146 42780 63205 10050 21236 36685 57005 82402 333 00100;
0200561460999992000010812004+31620+100000FM-12+339499999V0203201N001012200019N0300001N1-00251-02281999999ADDAA106000091GA1001+999999999GF100991001001999999001001MA1999999066991MD1210141+0101OA130602001REMSYN076AAXX  08121 56146 32980 03201 11025 21228 36699 52014 333 00154 91120 91527;EQDQ01  00002PRCP06
0137561460999992000010815004+31620+100000FM-12+339499999V0209999C000012200019N0300001N1-00601-01941999999ADDGA1001+999999999GF100991001001999999001001MA1999999067071MD1210081+9999REMSYN054AAXX  08151 56146 42980 00000 11060 21194 36707 52008;
0186561460999992000010818004+31620+100000FM-12+339499999V0209999C000010900019N0300001N1-00611-01651999999ADDAA106000091GF106991031041017501001021KA1999M+00711MA1999999067111MD1210041+0001REMSYN076AAXX  08181 56146 32780 60000 11061 21165 36711 52004 83402 333 00003 10071;EQDQ01  00002PRCP06
0137561460999992000010821004+31620+100000FM-12+339499999V0201101N001012200019N0300001N1-00881-01791999999ADDGF102991021041022501001001MA1999999067071MD1710041+0001REMSYN070AAXX  08211 56146 42880 21101 11088 21179 36707 57004 82400 333 00003;
0177561460999992000010900004+31620+100000FM-12+339499999V0209999C000012200019N0300001N1-01161-01881999999ADDAA124199991GA1001+999999999GF100991001001999999001001MA1999999999999MD1999999+0001REMSYN064AAXX  09001 56146 32980 00000 11116 21188 37611 62004 333 00001;EQDQ01 076113APOSP 
0146561460999992000010903004+31620+100000FM-12+339499999V0209999C000012200019N0300001N1-00501-01311999999ADDGF101991001001999999001021MA1999999067192MD1210081+9999REMSYN060AAXX  09031 56146 42980 10000 11050 21131 36719 52008 80002;EQDQ01+067193APOSP 
0137561460999992000010909004+31620+100000FM-12+339499999V0209999C000010900019N0300001N1+00401-01381999999ADDGF107991011091017501001021MA1999999066511MD1710271+0031REMSYN070AAXX  09091 56146 42780 70000 10040 21138 36651 57027 81902 333 05351;
0167561460999992000010912004+31620+100000FM-12+339499999V0209999C000010900019N0300001N1+00141-01411999999ADDAA106000091GF106991031041017501001021MA1999999066641MD1210131+0041REMSYN070AAXX  09121 56146 32780 60000 10014 21141 36664 52013 83402 333 05404;EQDQ01  00002PRCP06
0107561460999992000010915004+31620+100000FM-12+339499999V0209999C000012200019N0300001N1+99999+99999999999ADDGA1001+999999999GF100991001001999999001001REMSYN053AAXX  09151 56146 42980 00000 1048 21152 36675 52011;
0196561460999992000010918004+31620+100000FM-12+339499999V0209999C000012200019N0300001N1-00701-01541999999ADDAA106000091GA1001+999999999GF100991001001999999001001KA1999M+00611MA1999999066751MD1410001-0401REMSYN070AAXX  09181 56146 32980 00000 11070 21154 36675 54000 333 05451 10061;EQDQ01  00002PRCP06
0147561460999992000010921004+31620+100000FM-12+339499999V0203601N002012200019N0300001N1-00961-01401999999ADDGA1001+999999999GF100991001001999999001001MA1999999066701MD1710051+0041REMSYN064AAXX  09211 56146 42980 03602 11096 21140 36670 57005 333 05451;
0167561460999992000011000004+31620+100000FM-12+339499999V0202901N001010150019N0300001N1-01041-01401999999ADDAA106000091GF106991051041017501001021MA1999999066721MD1210021+0041REMSYN070AAXX  10001 56146 32780 62901 11104 21140 36672 52002 85402 333 05401;EQDQ01  00002PRCP06
0127561460999992000011003004+31620+100000FM-12+339499999V0209999C000010900019N0300001N1-00501-01061999999ADDGF107991041091017501001021MA1999999066891MD1210171+9999REMSYN060AAXX  10031 56146 42780 70000 11050 21106 36689 52017 84902;
0186561460999992000011006004+31620+100000FM-12+339499999V0209999C000010900019N0300001N1+00421-00951999999ADDAA106000091GF107991031041017501001021KA1999N-01101MA1999999066661MD1710231-0101REMSYN076AAXX  10061 56146 32780 70000 10042 21095 36666 57023 83402 333 05103 21110;EQDQ01  00002PRCP06
0137561460999992000011009004+31620+100000FM-12+339499999V0201801N004010900019N0300001N1+00571-01031999999ADDGF106991031091017501001021MA1999999066541MD1710121+0001REMSYN070AAXX  10091 56146 42780 61804 10057 21103 36654 57012 83902 333 00002;
0167561460999992000011012004+31620+100000FM-12+339499999V0209999C000012200019N0300001N1+00101-01191999999ADDAA106000091GF103991011041017501001021MA1999999066681MD1210141+0001REMSYN070AAXX  10121 56146 32780 30000 10010 21119 36668 52014 81402 333 00000;EQDQ01  00002PRCP06
0127561460999992000011015004+31620+100000FM-12+339499999V0202901N002010900019N0300001N1-00261-01271999999ADDGF105991011091017501001021MA1999999066781MD1210101+9999REMSYN060AAXX  10151 56146 42780 52902 11026 21127 36678 52010 81902;
0186561460999992000011018004+31620+100000FM-12+339499999V0200901N002010150019N0300001N1-00351-00961999999ADDAA106000091GF107991071091017501999999KA1999M+00661MA1999999066821MD1210041+0101REMSYN076AAXX  10181 56146 32780 70902 11035 21096 36682 52004 879// 333 00104 10066;EQDQ01  00002PRCP06
0137561460999992000011021004+31620+100000FM-12+339499999V0209999C000012200019N0300001N1-00511-01281999999ADDGF103991031041022501001001MA1999999066841MD1210021+0011REMSYN070AAXX  10211 56146 42880 30000 11051 21128 36684 52002 83400 333 00105;
0167561460999992000011100004+31620+100000FM-12+339499999V0209999C000010150019N0300001N1-00651-01111999999ADDAA106000091GF107991061041017501001021MA1999999066891MD1210051+0021REMSYN070AAXX  11001 56146 32780 70000 11065 21111 36689 52005 86402 333 00204;EQDQ01  00002PRCP06
0127561460999992000011103004+31620+100000FM-12+339499999V0209999C000010900019N0300001N1+00001-00881999999ADDGF105991011041017501001021MA1999999067091MD1210201+9999REMSYN060AAXX  11031 56146 42780 50000 10000 21088 36709 52020 81402;
0186561460999992000011106004+31620+100000FM-12+339499999V0202701N010010900019N0300001N1+00581-01201999999ADDAA106000091GF107991041091017501001021KA1999N-00701MA1999999066911MD1710181+0301REMSYN076AAXX  11061 56146 32780 72710 10058 21120 36691 57018 84902 333 00302 21070;EQDQ01  00002PRCP06
0137561460999992000011109004+31620+100000FM-12+339499999V0209999C000010900019N0300001N1+00281-00711999999ADDGF107991031091017501001021MA1999999066941MD1210031+0041REMSYN070AAXX  11091 56146 42780 70000 10028 21071 36694 52003 83902 333 00453;
0190561460999992000011112004+31620+100000FM-12+339499999V0209999C000010150019N0300001N1-00121-00951999999ADDAA106000091GF107991061091017501001021MA1999999067061MD1210121+0401OA130601901REMSYN082AAXX  11121 56146 32780 70000 11012 21095 36706 52012 86902 333 00452 91119 91532;EQDQ01  00002PRCP06
0127561460999992000011115004+31620+100000FM-12+339499999V0209999C000012200019N0300001N1-00491-01171999999ADDGF101991011041022501001021MA1999999067221MD1210161+9999REMSYN060AAXX  11151 56146 42880 10000 11049 21117 36722 52016 81402;
0196561460999992000011118004+31620+100000FM-12+339499999V0209999C000012200019N0300001N1-00711-01231999999ADDAA106000091GA1001+999999999GF100991001001999999001001KA1999M+00641MA1999999067211MD1710011+0401REMSYN070AAXX  11181 56146 32980 00000 11071 21123 36721 57001 333 00454 10064;EQDQ01  00002PRCP06
0147561460999992000011121004+31620+100000FM-12+339499999V0209999C000012200019N0300001N1-00911-01291999999ADDGA1001+999999999GF100991001001999999001001MA1999999067131MD1710081+0031REMSYN064AAXX  11211 56146 42980 00000 11091 21129 36713 57008 333 00354;
0167561460999992000011200004+31620+100000FM-12+339499999V0209999C000012200019N0300001N1-01021-01251999999ADDAA106000091GF101991011041017501001001MA1999999067191MD1210061+0031REMSYN070AAXX  12001 56146 32780 10000 11102 21125 36719 52006 81400 333 00354;EQDQ01  00002PRCP06
0127561460999992000011203004+31620+100000FM-12+339499999V0209999C000010900019N0300001N1-00401-01111999999ADDGF107991011011017501001021MA1999999067351MD1210161+9999REMSYN060AAXX  12031 56146 42780 70000 11040 21111 36735 52016 81102;
0186561460999992000011206004+31620+100000FM-12+339499999V0202201N002010900019N0300001N1+00441-01031999999ADDAA106000091GF107991021011017501001021KA1999N-01121MA1999999067081MD1710271+0201REMSYN076AAXX  12061 56146 32780 72202 10044 21103 36708 57027 82102 333 00251 21112;EQDQ01  00002PRCP06
0136561460999992000011209004+31620+100000FM-12+339499999V0202901N010010900019N0300001N1+00531-02452999999ADDGF107991031091017501001021MA1999999066981MD1710101+0001REMSYN069AAXX  12091 56146 42780 72910 1005321245 36698 57010 83902 333 00003;
0183561460999992000011212004+31620+100000FM-12+339499999V0209999C000012200019N0300001N1-00131-02161999999ADDAA106000091GF101991999041017501001021MA1999999067061MD1210081+0001REMSYN070AAXX  12121 56146 32780 10000 11013 21216 36706 52008 84402 333 00000;EQDQ01+000042SCOTLCQ02  00002PRCP06
0127561460999992000011215004+31620+100000FM-12+339499999V0200701N001010900019N0300001N1-00491-02131999999ADDGF105991041041017501001021MA1999999067151MD1210091+9999REMSYN060AAXX  12151 56146 42780 50701 11049 21213 36715 52009 84402;
0196561460999992000011218004+31620+100000FM-12+339499999V0209999C000012200019N0300001N1-00691-01801999999ADDAA106000091GA1001+999999999GF100991001001999999001001KA1999M+00671MA1999999067151MD1410001-0101REMSYN070AAXX  12181 56146 32980 00000 11069 21180 36715 54000 333 05100 10067;EQDQ01  00002PRCP06
0147561460999992000011221004+31620+100000FM-12+339499999V0209999C000012200019N0300001N1-00961-01871999999ADDGA1001+999999999GF100991001001999999001001MA1999999067071MD1710081+0011REMSYN064AAXX  12211 56146 42980 00000 11096 21187 36707 57008 333 05151;
0177561460999992000011300004+31620+100000FM-12+339499999V0209999C000012200019N0300001N1-01101-01871999999ADDAA106000091GA1001+999999999GF100991001001999999001001MA1999999067071MD1410001+0011REMSYN064AAXX  13001 56146 32980 00000 11110 21187 36707 54000 333 05151;EQDQ01  00002PRCP06
0137561460999992000011303004+31620+100000FM-12+339499999V0209999C000012200019N0300001N1-00201-01261999999ADDGA1001+999999999GF100991001001999999001001MA1999999067111MD1210041+9999REMSYN054AAXX  13031 56146 42980 00000 11020 21126 36711 52004;
0186561460999992000011306004+31620+100000FM-12+339499999V0202001N001010360019N0300001N1+00691-01351999999ADDAA106000091GF106991011011017501041021KA1999N-01251MA1999999066721MD1710391-0401REMSYN076AAXX  13061 56146 32780 62001 10069 21135 36672 57039 81142 333 05403 21125;EQDQ01  00002PRCP06
0137561460999992000011309004+31620+100000FM-12+339499999V0202501N004010900019N0300001N1+00841-02161999999ADDGF105991021041017501001021MA1999999066471MD1710251+0051REMSYN070AAXX  13091 56146 42780 52504 10084 21216 36647 57025 82402 333 05503;
0167561460999992000011312004+31620+100000FM-12+339499999V0200401N002010900019N0300001N1+00171-01911999999ADDAA106000091GF107991021041017501001021MA1999999066581MD1210111+0051REMSYN070AAXX  13121 56146 32780 70402 10017 21191 36658 52011 82402 333 05503;EQDQ01  00002PRCP06
0127561460999992000011315004+31620+100000FM-12+339499999V0209999C000012200019N0300001N1-00161-01711999999ADDGF101991011041017501001021MA1999999066631MD1210051+9999REMSYN060AAXX  13151 56146 42780 10000 11016 21171 36663 52005 81402;
0196561460999992000011318004+31620+100000FM-12+339499999V0209999C000012200019N0300001N1-00631-01741999999ADDAA106000091GA1001+999999999GF100991001001999999001001KA1999M+01041MA1999999066621MD1710011-0501REMSYN070AAXX  13181 56146 32980 00000 11063 21174 36662 57001 333 05501 10104;EQDQ01  00002PRCP06
0151561460999992000011321004+31620+100000FM-12+339499999V0209999C000012200019N0300001N1-00831-01641999999ADDGA1001+999999999GF100991001001999999001001MA1999999066571MD1710051+0051REMSYN068    AAXX  13211 56146 42980 00000 11083 21164 36657 57005 333 05501;
0171561460999992000011400004+31620+100000FM-12+339499999V0209999C000012200019N0300001N1-00961-01491999999ADDAA199000091GF102991021041017501001001MA1999999066651MD1210081+0041REMSYN074    AAXX  14001 56146 32780 20000 11096 21149 36665 52008 82400 333 05401;EQDQ01  00002PRCP99
0131561460999992000011403004+31620+100000FM-12+339499999V0201801N001010900019N0300001N1-00151-01081999999ADDGF106991021011017501001021MA1999999066721MD1210071+9999REMSYN064    AAXX  14031 56146 42780 61801 11015 21108 36672 52007 82102;
0190561460999992000011406004+31620+100000FM-12+339499999V0209999C000010360019N0300001N1+00631-01131999999ADDAA199000091GF107991021091017501041021KA1999N-01021MA1999999066391MD1710331-0301REMSYN080    AAXX  14061 56146 32780 70000 10063 21113 36639 57033 82942 333 05351 21102;EQDQ01  00002PRCP99
0141561460999992000011409004+31620+100000FM-12+339499999V0209999C000010150019N0300001N1+00621-01051999999ADDGF107991051091017501001021MA1999999066241MD1710151+0021REMSYN074    AAXX  14091 56146 42780 70000 10062 21105 36624 57015 85902 333 05252;
0171561460999992000011412004+31620+100000FM-12+339499999V0209999C000010900019N0300001N1+00141-01181999999ADDAA199000091GF107991031041017501001021MA1999999066441MD1210201+0011REMSYN074    AAXX  14121 56146 32780 70000 10014 21118 36644 52020 83402 333 05100;EQDQ01  00002PRCP99
0131561460999992000011415004+31620+100000FM-12+339499999V0209999C000012200019N0300001N1-00141-01061999999ADDGF102991021041022501001021MA1999999066541MD1210101+9999REMSYN064    AAXX  14151 56146 42880 20000 11014 21106 36654 52010 82402;
0190561460999992000011418004+31620+100000FM-12+339499999V0209999C000012200019N0300001N1-00471-01261999999ADDAA199000091GF102991021041022501001021KA1999M+00961MA1999999066521MD1710021-0101REMSYN080    AAXX  14181 56146 32880 20000 11047 21126 36652 57002 82402 333 05102 10096;EQDQ01  00002PRCP99
0141561460999992000011421004+31620+100000FM-12+339499999V0202501N001012200019N0300001N1-00561-01101999999ADDGF104991041041022501001001MA1999999066521MD1410001+0011REMSYN074    AAXX  14211 56146 42880 42501 11056 21110 36652 54000 84400 333 05103;
0171561460999992000011500004+31620+100000FM-12+339499999V0202201N001010900019N0300001N1-00781-01201999999ADDAA199000091GF106991041041017501001021MA1999999066641MD1210121+0001REMSYN074    AAXX  15001 56146 32780 62201 11078 21120 36664 52012 84402 333 00002;EQDQ01  00002PRCP99
0131561460999992000011503004+31620+100000FM-12+339499999V0209999C000010900019N0300001N1-00031-00851999999ADDGF105991021011017501001021MA1999999066791MD1210151+9999REMSYN064    AAXX  15031 56146 42780 50000 11003 21085 36679 52015 82102;
0190561460999992000011506004+31620+100000FM-12+339499999V0202501N004012200019N0300001N1+00831-00851999999ADDAA199000091GF103991031011017501001021KA1999N-00861MA1999999066501MD1710291+0101REMSYN080    AAXX  15061 56146 32780 32504 10083 21085 36650 57029 83102 333 00102 21086;EQDQ01  00002PRCP99
0141561460999992000011509004+31620+100000FM-12+339499999V0202701N005010150019N0300001N1+00701-01371999999ADDGF107991061091017501001021MA1999999066361MD1710141+0011REMSYN074    AAXX  15091 56146 42780 72705 10070 21137 36636 57014 86902 333 00101;
0171561460999992000011512004+31620+100000FM-12+339499999V0209999C000010900019N0300001N1+00141-01521999999ADDAA199000091GF106991011011017501001021MA1999999066471MD1210111+0001REMSYN074    AAXX  15121 56146 32780 60000 10014 21152 36647 52011 81102 333 00000;EQDQ01  00002PRCP99
0131561460999992000011515004+31620+100000FM-12+339499999V0209999C000012200019N0300001N1-00441-01781999999ADDGF101991001001999999001021MA1999999066551MD1210081+9999REMSYN064    AAXX  15151 56146 42980 10000 11044 21178 36655 52008 80002;
0190561460999992000011518004+31620+100000FM-12+339499999V0209999C000012200019N0300001N1-00631-01571999999ADDAA199000091GF101991001001999999001021KA1999M+00891MA1999999066591MD1210041+0101REMSYN080    AAXX  15181 56146 32980 10000 11063 21157 36659 52004 80002 333 00152 10089;EQDQ01  00002PRCP99
0151561460999992000011521004+31620+100000FM-12+339499999V0209999C000012200019N0300001N1-00961-01181999999ADDGA1001+999999999GF100991001001999999001001MA1999999066681MD1210091+0021REMSYN068    AAXX  15211 56146 42980 00000 11096 21118 36668 52009 333 00254;
0171561460999992000011600004+31620+100000FM-12+339499999V0202701N001012200019N0300001N1-01061-01501999999ADDAA199000091GF101991011041017501001021MA1999999066831MD1210151+0021REMSYN074    AAXX  16001 56146 32780 12701 11106 21150 36683 52015 81402 333 00253;EQDQ01  00002PRCP99
0125561460999992000011603004+31620+100000FM-12+339499999V0201001N006012200019N0300001N1+99999+99999999999ADDGF101991011011017501001021MA1999999066931MD1210101+9999REMSYN058    AAXX  16031 56146 42780 11006 21110 36693 52010 81102;
0190561460999992000011606004+31620+100000FM-12+339499999V0202001N001012200019N0300001N1+00751-01611999999ADDAA199000091GF101991011011017501001021KA1999N-01081MA1999999066601MD1710331+0101REMSYN080    AAXX  16061 56146 32780 12001 10075 21161 36660 57033 81102 333 00151 21108;EQDQ01  00002PRCP99
0141561460999992000011609004+31620+100000FM-12+339499999V0201601N002010900019N0300001N1+00861-01741999999ADDGF107991031091017501001021MA1999999066411MD1710191+0011REMSYN074    AAXX  16091 56146 42780 71602 10086 21174 36641 57019 83902 333 00102;
0171561460999992000011612004+31620+100000FM-12+339499999V0200201N002010150019N0300001N1+00311-01371999999ADDAA199000091GF107991061091017501001021MA1999999066561MD1210151+0011REMSYN074    AAXX  16121 56146 32780 70202 10031 21137 36656 52015 86902 333 00102;EQDQ01  00002PRCP99
0131561460999992000011615004+31620+100000FM-12+339499999V0203601N004012200019N0300001N1-00011-01271999999ADDGF102991011041022501001021MA1999999066681MD1210121+9999REMSYN064    AAXX  16151 56146 42880 23604 11001 21127 36668 52012 81402;
0190561460999992000011618004+31620+100000FM-12+339499999V0209999C000012200019N0300001N1-00201-01251999999ADDAA199000091GF101991011041022501001001KA1999M+00921MA1999999066761MD1210081+0201REMSYN080    AAXX  16181 56146 32880 10000 11020 21125 36676 52008 81400 333 00204 10092;EQDQ01  00002PRCP99
0141561460999992000011621004+31620+100000FM-12+339499999V0209999C000012200019N0300001N1-00601-01241999999ADDGF101991011041022501001001MA1999999066811MD1210051+0011REMSYN074    AAXX  16211 56146 42880 10000 11060 21124 36681 52005 81400 333 00104;
0171561460999992000011700004+31620+100000FM-12+339499999V0209999C000012200019N0300001N1-00911-01421999999ADDAA199000091GF102991021041017501001001MA1999999066851MD1210041+0001REMSYN074    AAXX  17001 56146 32780 20000 11091 21142 36685 52004 82400 333 00002;EQDQ01  00002PRCP99
0131561460999992000011703004+31620+100000FM-12+339499999V0209999C000012200019N0300001N1-00131-00891999999ADDGF104991021041017501001021MA1999999067011MD1210161+9999REMSYN064    AAXX  17031 56146 42780 40000 11013 21089 36701 52016 82402;
0190561460999992000011706004+31620+100000FM-12+339499999V0202901N012010900019N0300001N1+00511-01391999999ADDAA199000091GF107991031091017501001021KA1999N-00951MA1999999066821MD1710191+0201REMSYN080    AAXX  17061 56146 32780 72912 10051 21139 36682 57019 83902 333 00252 21095;EQDQ01  00002PRCP99
0141561460999992000011709004+31620+100000FM-12+339499999V0202501N006010150019N0300001N1+00181-01271999999ADDGF107991061091017501001021MA1999999066891MD1210071+0051REMSYN074    AAXX  17091 56146 42780 72506 10018 21127 36689 52007 86902 333 00557;
0194561460999992000011712004+31620+100000FM-12+339499999V0203401N005010900019N0300001N1+00011-01101999999ADDAA199000091GF107991041091017501001021MA1999999067111MD1210221+0601OA130602001REMSYN086    AAXX  17121 56146 32780 73405 10001 21110 36711 52022 84902 333 00653 91120 91532;EQDQ01  00002PRCP99
0131561460999992000011715004+31620+100000FM-12+339499999V0209999C000010900019N0300001N1-00211-00981999999ADDGF107991041091017501001021MA1999999067251MD1210141+9999REMSYN064    AAXX  17151 56146 42780 70000 11021 21098 36725 52014 84902;
0190561460999992000011718004+31620+100000FM-12+339499999V0200901N004010150019N0300001N1-00271-01161999999ADDAA199000091GF107991061091017501001021KA1999M+00601MA1999999067331MD1210081+0601REMSYN080    AAXX  17181 56146 32780 70904 11027 21116 36733 52008 86902 333 00651 10060;EQDQ01  00002PRCP99
0141561460999992000011721004+31620+100000FM-12+339499999V0203201N001010900019N0300001N1-00561-01231999999ADDGF105991011041022501001021MA1999999067261MD1710071+0051REMSYN074    AAXX  17211 56146 42880 53201 11056 21123 36726 57007 81402 333 00500;
0171561460999992000011800004+31620+100000FM-12+339499999V0209999C000010150019N0300001N1-00661-01341999999ADDAA199000091GF107991061041017501001021MA1999999067361MD1210101+0051REMSYN074    AAXX  18001 56146 32780 70000 11066 21134 36736 52010 86402 333 00503;EQDQ01  00002PRCP99
0131561460999992000011803004+31620+100000FM-12+339499999V0201101N002010900019N0300001N1-00211-01111999999ADDGF105991011011017501001021MA1999999067641MD1210281+9999REMSYN064    AAXX  18031 56146 42780 51102 11021 21111 36764 52028 81102;
0190561460999992000011806004+31620+100000FM-12+339499999V0201801N001010900019N0300001N1+00201-01451999999ADDAA199000091GF107991031081017501001021KA1999N-00761MA1999999067301MD1710341+0501REMSYN080    AAXX  18061 56146 32780 71801 10020 21145 36730 57034 83802 333 00553 21076;EQDQ01  00002PRCP99
0141561460999992000011809004+31620+100000FM-12+339499999V0202701N012010150019N0300001N1+00341-02101999999ADDGF107991061041017501001021MA1999999067171MD1710131+0031REMSYN074    AAXX  18091 56146 42780 72712 10034 21210 36717 57013 86402 333 00302;
0194561460999992000011812004+31620+100000FM-12+339499999V0203401N002010900019N0300001N1+00081-02471999999ADDAA199000091GF105991011041017501001021MA1999999067281MD1210111+0201OA130602101REMSYN086    AAXX  18121 56146 32780 53402 10008 21247 36728 52011 81402 333 00201 91121 91527;EQDQ01  00002PRCP99
0131561460999992000011815004+31620+100000FM-12+339499999V0203401N001010900019N0300001N1-00671-02691999999ADDGF106991021041022501001021MA1999999067361MD1210081+9999REMSYN064    AAXX  18151 56146 42880 63401 11067 21269 36736 52008 82402;
0222561460999992000011818004+31620+100000FM-12+339499999V0209999C000012200019N0300001N1-00921-02591999999ADDAA199000091GF102991021081017501001021KA1999M+00501MA1999999999999MD1710051+0001REMSYN080    AAXX  18181 56146 32780 20000 11092 21259 36371 57005 82802 333 00057 10050;EQDQ01+063713APOSP Q02  00002PRCP99Q03 063713APOSP 
0160561460999992000011821004+31620+100000FM-12+339499999V02099999999992200019N0300001N1-01021-02151999999ADDGF104991001001999999001021MA1999999067292MD1710021+0001REMSYN074    AAXX  18211 56146 42980 4901/ 11102 21215 36729 57002 80002 333 00055;EQDQ01+067293APOSP 
0181561460999992000011900004+31620+100000FM-12+339499999V0209999C000012200019N0300001N1-01201-02031999999ADDAA199000091GA1001+999999999GF100991001001999999001001MA1999999067361MD1210071+0001REMSYN068    AAXX  19001 56146 32980 00000 11120 21203 36736 52007 333 00055;EQDQ01  00002PRCP99
0131561460999992000011903004+31620+100000FM-12+339499999V0209999C000010150019N0300001N1-00581-01551999999ADDGF107991061041017501001021MA1999999067421MD1210061+9999REMSYN064    AAXX  19031 56146 42780 70000 11058 21155 36742 52006 86402;
0190561460999992000011906004+31620+100000FM-12+339499999V0202001N002012200019N0300001N1+00371-01311999999ADDAA199000091GF102991021041017501001021KA1999N-01281MA1999999067041MD1710381-0301REMSYN080    AAXX  19061 56146 32780 22002 10037 21131 36704 57038 82402 333 05302 21128;EQDQ01  00002PRCP99
0141561460999992000011909004+31620+100000FM-12+339499999V0201801N001010900019N0300001N1+00861-01611999999ADDGF106991021011017501001021MA1999999066641MD1710401+0051REMSYN074    AAXX  19091 56146 42780 61801 10086 21161 36664 57040 82102 333 05505;
0171561460999992000011912004+31620+100000FM-12+339499999V0209999C000010210019N0300001N1+00141-01781999999ADDAA199000091GF106991061041022501001021MA1999999066571MD1710071+0071REMSYN074    AAXX  19121 56146 32880 60000 10014 21178 36657 57007 86402 333 05701;EQDQ01  00002PRCP99
0127561460999992000011915004+31620+100000FM-12+339499999V0203401N002012200019N0300001N1-00181-01971999999ADDGF101991011041022501001021MA1999999066671MD1210101+9999REMSYN060AAXX  19151 56146 42880 13402 11018 21197 36667 52010 81402;
0196561460999992000011918004+31620+100000FM-12+339499999V0203601N002012200019N0300001N1-00561-01851999999ADDAA199000091GA1001+999999999GF100991001001999999001001KA1999M+00971MA1999999066611MD1710061-0701REMSYN070AAXX  19181 56146 32980 03602 11056 21185 36661 57006 333 05704 10097;EQDQ01  00002PRCP99
0137561460999992000011921004+31620+100000FM-12+339499999V0203601N001010900019N0300001N1-00301-01601999999ADDGF106991041051022501001021MA1999999066461MD1710151+0081REMSYN070AAXX  19211 56146 42880 63601 11030 21160 36646 57015 84502 333 05807;
0167561460999992000012000004+31620+100000FM-12+339499999V0209999C000010150019N0300001N1-00341-01571999999ADDAA199000091GF107991061041017501001021MA1999999066481MD1210021+0091REMSYN070AAXX  20001 56146 32780 70000 11034 21157 36648 52002 86402 333 05909;EQDQ01  00002PRCP99
0127561460999992000012003004+31620+100000FM-12+339499999V0209999C000010900019N0300001N1+00311-01331999999ADDGF105991031041017501001021MA1999999066511MD1210031+9999REMSYN060AAXX  20031 56146 42780 50000 10031 21133 36651 52003 83402;
0186561460999992000012006004+31620+100000FM-12+339499999V0202701N007010150019N0300001N1+00591-01421999999ADDAA199000091GF107991061091017501001021KA1999N-01031MA1999999066201MD1710311-0801REMSYN076AAXX  20061 56146 32780 72707 10059 21142 36620 57031 86902 333 05802 21103;EQDQ01  00002PRCP99
0137561460999992000012009004+31620+100000FM-12+339499999V0209999C000010150019N0300001N1+00581-01091999999ADDGF107991051091017501001021MA1999999066111MD1710091+0051REMSYN070AAXX  20091 56146 42780 70000 10058 21109 36611 57009 85902 333 05553;
0167561460999992000012012004+31620+100000FM-12+339499999V0203601N001010900019N0300001N1+00111-01141999999ADDAA199000091GF107991031041017501001021MA1999999066251MD1210141+0031REMSYN070AAXX  20121 56146 32780 73601 10011 21114 36625 52014 83402 333 05300;EQDQ01  00002PRCP99
0127561460999992000012015004+31620+100000FM-12+339499999V0203601N002010900019N0300001N1-00151-01161999999ADDGF107991011011017501001021MA1999999066441MD1210191+9999REMSYN060AAXX  20151 56146 42780 73602 11015 21116 36644 52019 81102;
0186561460999992000012018004+31620+100000FM-12+339499999V0203401N002010900019N0300001N1-00081-01041999999ADDAA199000091GF106991041041017501001021KA1999M+00741MA1999999066501MD1210061-0101REMSYN076AAXX  20181 56146 32780 63402 11008 21104 36650 52006 84402 333 05105 10074;EQDQ01  00002PRCP99
0137561460999992000012021004+31620+100000FM-12+339499999V0203601N001012200019N0300001N1-00011-01051999999ADDGF104991021051022501001021MA1999999066601MD1210101+0011REMSYN070AAXX  20211 56146 42880 43601 11001 21105 36660 52010 82502 333 00103;
0167561460999992000012100004+31620+100000FM-12+339499999V0200401N001012200019N0300001N1-00301-01201999999ADDAA199000091GF103991021041017501001021MA1999999066731MD1210131+0031REMSYN070AAXX  21001 56146 32780 30401 11030 21120 36673 52013 82402 333 00300;EQDQ01  00002PRCP99
0127561460999992000012103004+31620+100000FM-12+339499999V0202201N007012200019N0300001N1+00341-01131999999ADDGF103991011011017501001021MA1999999066931MD1210201+9999REMSYN060AAXX  21031 56146 42780 32207 10034 21113 36693 52020 81102;
0186561460999992000012106004+31620+100000FM-12+339499999V0202701N005010900019N0300001N1+00411-01371999999ADDAA199000091GF107991031081017501001021KA1999N-00431MA1999999066721MD1710211+0501REMSYN076AAXX  21061 56146 32780 72705 10041 21137 36672 57021 83802 333 00552 21043;EQDQ01  00002PRCP99
0137561460999992000012109004+31620+100000FM-12+339499999V0202701N005010150019N0300001N1+00371-01411999999ADDGF107991061091017501001021MA1999999066731MD1210011+0061REMSYN070AAXX  21091 56146 42780 72705 10037 21141 36673 52001 86902 333 00652;
0167561460999992000012112004+31620+100000FM-12+339499999V0209999C000010900019N0300001N1+00111-01091999999ADDAA199000091GF105991021091017501001021MA1999999066891MD1210161+0061REMSYN070AAXX  21121 56146 32780 50000 10011 21109 36689 52016 82902 333 00600;EQDQ01  00002PRCP99
0127561460999992000012115004+31620+100000FM-12+339499999V0203601N001012200019N0300001N1-00611-01651999999ADDGF101991011041022501001001MA1999999067131MD1210241+9999REMSYN060AAXX  21151 56146 42880 13601 11061 21165 36713 52024 81400;
0186561460999992000012118004+31620+100000FM-12+339499999V0203201N001012200019N0300001N1-00861-01811999999ADDAA199000091GF101991011041022501001001KA1999M+00571MA1999999067181MD1210051+0701REMSYN076AAXX  21181 56146 32880 13201 11086 21181 36718 52005 81400 333 00758 10057;EQDQ01  00002PRCP99
0137561460999992000012121004+31620+100000FM-12+339499999V0209999C000012200019N0300001N1-01101-01781999999ADDGF101991011041022501001001MA1999999067161MD1710021+0061REMSYN070AAXX  21211 56146 42880 10000 11110 21178 36716 57002 81400 333 00661;
0167561460999992000012200004+31620+100000FM-12+339499999V0209999C000012200019N0300001N1-01281-01801999999ADDAA199000091GF101991011041017501001001MA1999999067191MD1210031+0051REMSYN070AAXX  22001 56146 32780 10000 11128 21180 36719 52003 81400 333 00560;EQDQ01  00002PRCP99
0127561460999992000012203004+31620+100000FM-12+339499999V0202001N001012200019N0300001N1-00461-01391999999ADDGF101991011091017501001001MA1999999067271MD1210081+9999REMSYN060AAXX  22031 56146 42780 12001 11046 21139 36727 52008 81900;
0186561460999992000012206004+31620+100000FM-12+339499999V0202901N001010900019N0300001N1+00311-01551999999ADDAA199000091GF105991021091017501001021KA1999N-01311MA1999999066841MD1710431+0101REMSYN076AAXX  22061 56146 32780 52901 10031 21155 36684 57043 82902 333 00151 21131;EQDQ01  00002PRCP99
0137561460999992000012209004+31620+100000FM-12+339499999V0201801N006010150019N0300001N1+00331-01581999999ADDGF107991051091017501001021MA1999999066661MD1710181+0011REMSYN070AAXX  22091 56146 42780 71806 10033 21158 36666 57018 85902 333 05100;
0167561460999992000012212004+31620+100000FM-12+339499999V0202701N001010150019N0300001N1+00161-01271999999ADDAA199000091GF107991061091017501001021MA1999999066771MD1210111+0011REMSYN070AAXX  22121 56146 32780 72701 10016 21127 36677 52011 86902 333 05101;EQDQ01  00002PRCP99
0127561460999992000012215004+31620+100000FM-12+339499999V0209999C000010180019N0300001N1-00171-01111999999ADDGF107991061081017501001021MA1999999066841MD1210071+9999REMSYN060AAXX  22151 56146 42780 70000 11017 21111 36684 52007 86802;
0186561460999992000012218004+31620+100000FM-12+339499999V0200401N001010180019N0300001N1-00281-01011999999ADDAA199000091GF107991051081017501001021KA1999M+00621MA1999999066851MD1210011-0301REMSYN076AAXX  22181 56146 32780 70401 11028 21101 36685 52001 85802 333 05306 10062;EQDQ01  00002PRCP99
0137561460999992000012221004+31620+100000FM-12+339499999V0200701N002012200019N0300001N1-00481-01321999999ADDGF104991031051022501001021MA1999999066851MD1410001+0031REMSYN070AAXX  22211 56146 42880 40702 11048 21132 36685 54000 83502 333 05306;
0167561460999992000012300004+31620+100000FM-12+339499999V0200201N001012200019N0300001N1-00731-01541999999ADDAA199000091GF101991011041017501001001MA1999999066941MD1210091+0031REMSYN070AAXX  23001 56146 32780 10201 11073 21154 36694 52009 81400 333 05306;EQDQ01  00002PRCP99
0127561460999992000012303004+31620+100000FM-12+339499999V0201601N002010900019N0300001N1-00181-01221999999ADDGF106991011011017501001021MA1999999067061MD1710121+9999REMSYN060AAXX  23031 56146 42780 61602 11018 21122 36706 57012 81102;
0186561460999992000012306004+31620+100000FM-12+339499999V0202501N005010900019N0300001N1+00301-01451999999ADDAA199000091GF107991021011017501001021KA1999N-00841MA1999999066761MD1710301-0101REMSYN076AAXX  23061 56146 32780 72505 10030 21145 36676 57030 82102 333 05100 21084;EQDQ01  00002PRCP99
0137561460999992000012309004+31620+100000FM-12+339499999V0202001N004010900019N0300001N1+00281-01651999999ADDGF106991021041017501001021MA1999999066701MD1710061+0001REMSYN070AAXX  23091 56146 42780 62004 10028 21165 36670 57006 82402 333 00051;
0167561460999992000012312004+31620+100000FM-12+339499999V0203601N002010900019N0300001N1+00021-01311999999ADDAA199000091GF107991031091017501001021MA1999999066881MD1210181+0011REMSYN070AAXX  23121 56146 32780 73602 10002 21131 36688 52018 83902 333 00151;EQDQ01  00002PRCP99
0147561460999992000012315004+31620+100000FM-12+339499999V0202901N003010150019N0300001N1-00191-00991999999ADDAY181031GF108991081091017501999999MA1999999067141MD1210261+9999MW1851REMSYN066AAXX  23151 56146 41780 82903 11019 21099 36714 52026 78580 889//;
0193561460999992000012318004+31620+100000FM-12+339499999V0203601N001012200019N0300001N1-00581-00911999999ADDAA106000791AY181061GF102991011041017501001021KA1999M+00561MA1999999067221MD1210081+0401MW1001REMSYN088AAXX  23181 56146 11780 23601 11058 21091 36722 52008 69901 70080 81402 333 00453 10056;
0154561460999992000012321004+31620+100000FM-12+339499999V0209999C000010210019N0300001N1-00751-01011999999ADDAA124000791GF107991071051022501999999MA1999999067261MD1210041+0401REMSYN076AAXX  23211 56146 42880 70000 11075 21101 36726 52004 875// 333 00453 79999;
0154561460999992000012400004+31620+100000FM-12+339499999V0203601N001010180019N0300001N1-00891-01181999999ADDAA124000791GF107991051081017501041999MA1999999067411MD1210151+0501REMSYN076AAXX  24001 56146 32780 73601 11089 21118 36741 52015 8584/ 333 00552 79999;
0127561460999992000012403004+31620+100000FM-12+339499999V0201401N001010900019N0300001N1-00371-01201999999ADDGF106991011011017501001021MA1999999067571MD1210161+9999REMSYN060AAXX  24031 56146 42780 61401 11037 21120 36757 52016 81102;
0186561460999992000012406004+31620+100000FM-12+339499999V0201401N001010900019N0300001N1-00051-00961999999ADDAA199000091GF107991031091017501001021KA1999N-00921MA1999999067281MD1710291+0501REMSYN076AAXX  24061 56146 32780 71401 11005 21096 36728 57029 83902 333 00554 21092;EQDQ01  00002PRCP99
0137561460999992000012409004+31620+100000FM-12+339499999V0202901N003010900019N0300001N1+00271-01001999999ADDGF106991021091017501001021MA1999999067171MD1710111+0051REMSYN070AAXX  24091 56146 42780 62903 10027 21100 36717 57011 82902 333 00500;
0167561460999992000012412004+31620+100000FM-12+339499999V0200201N001010900019N0300001N1-00211-01281999999ADDAA199000091GF107991031091017501001021MA1999999067251MD1210081+0041REMSYN070AAXX  24121 56146 32780 70201 11021 21128 36725 52008 83902 333 00452;EQDQ01  00002PRCP99
0127561460999992000012415004+31620+100000FM-12+339499999V0209999C000010210019N0300001N1-00301-01121999999ADDGF108991081051022501999999MA1999999067311MD1210061+9999REMSYN060AAXX  24151 56146 42880 80000 11030 21112 36731 52006 885//;
0193561460999992000012418004+31620+100000FM-12+339499999V0209999C000010120019N0300001N1-00461-00581999999ADDAA106000191AY171061GF108991081051012501999999KA1999M+00421MA1999999067321MD1210011+0101MW1701REMSYN088AAXX  24181 56146 11680 80000 11046 21058 36732 52001 69911 77070 885// 333 00101 10042;
0168561460999992000012421004+31620+100000FM-12+339499999V0209999C000019999999N0300001N1-00641-00821999999ADDAA124000191AY121031GF107991999999017501999999MA1999999067341MD1210021+0101MW1681REMSYN076AAXX  24211 56146 41780 70000 11064 21082 36734 52002 76802 333 00101 70001;
0180561460999992000012500004+31620+100000FM-12+339499999V0203601N003010150019N0300001N1-00701-01061999999ADDAA106000791AY171061GF108991081081012501999999MA1999999067421MD1210081+0001MW1001REMSYN088AAXX  25001 56146 11680 83603 11070 21106 36742 52008 69901 70070 888// 333 00002 70001;
0127561460999992000012503004+31620+100000FM-12+339499999V0209999C000012200019N0300001N1-00461-00971999999ADDGF103991021011017501001021MA1999999067571MD1210151+9999REMSYN060AAXX  25031 56146 42780 30000 11046 21097 36757 52015 82102;
0167561460999992000012506004+31620+100000FM-12+339499999V0202201N001010900019N0300001N1+00241-01111999999ADDAA199000021GF106991031041017501001021KA1999N-00731MA1999999067281MD1710291+0001REMSYN076AAXX  25061 56146 32780 62201 10024 21111 36728 57029 83402 333 00003 21073;
0137561460999992000012509004+31620+100000FM-12+339499999V0202201N004010900019N0300001N1+00301-02071999999ADDGF106991031091017501001021MA1999999067161MD1710121+0001REMSYN070AAXX  25091 56146 42780 62204 10030 21207 36716 57012 83902 333 00000;
0167561460999992000012512004+31620+100000FM-12+339499999V0202901N003012200019N0300001N1+00001-01781999999ADDAA199000091GF104991031091017501001021MA1999999067391MD1210231+0011REMSYN070AAXX  25121 56146 32780 42903 10000 21178 36739 52023 83902 333 00102;EQDQ01  00002PRCP99
0127561460999992000012515004+31620+100000FM-12+339499999V0202701N003010150019N0300001N1-00081-01191999999ADDGF107991051091017501001021MA1999999067681MD1210291+9999REMSYN060AAXX  25151 56146 42780 72703 11008 21119 36768 52029 85902;
0186561460999992000012518004+31620+100000FM-12+339499999V0202901N001010360019N0300001N1-00491-01261999999ADDAA199000091GF106991011011017501041021KA1999M+00511MA1999999067741MD1210061+0401REMSYN076AAXX  25181 56146 32780 62901 11049 21126 36774 52006 81142 333 00400 10051;EQDQ01  00002PRCP99
0151561460999992000012521004+31620+100000FM-12+339499999V0203601N001012200019N0300001N1-00881-01341999999ADDGA1001+999999999GF100991001001999999001001MD1710031+0041REMSYN064AAXX  25211 56146 42980 03601 11088 21134 32771 57003 333 00452;EQDQ01+027711APOSP 
0167561460999992000012600004+31620+100000FM-12+339499999V0200701N001012200019N0300001N1-01031-01321999999ADDAA199000091GF101991011041022501001001MA1999999067731MD1210021+0031REMSYN070AAXX  26001 56146 32880 10701 11103 21132 36773 52002 81400 333 00353;EQDQ01  00002PRCP99
0127561460999992000012603004+31620+100000FM-12+339499999V0202701N001012200019N0300001N1-00471-01231999999ADDGF101991011011017501001001MA1999999067931MD1210201+9999REMSYN060AAXX  26031 56146 42780 12701 11047 21123 36793 52020 81100;
0186561460999992000012606004+31620+100000FM-12+339499999V0201401N002010900019N0300001N1+00081-01161999999ADDAA199000091GF107991011011017501001021KA1999N-01141MA1999999067651MD1710281+0401REMSYN076AAXX  26061 56146 32780 71402 10008 21116 36765 57028 81102 333 00452 21114;EQDQ01  00002PRCP99
0137561460999992000012609004+31620+100000FM-12+339499999V0202701N004010900019N0300001N1+00411-02432999999ADDGF107991011011017501001021MA1999999067391MD1710261+0021REMSYN070AAXX  26091 56146 42780 72704 10041 21243 36739 57026 81102 333 00201;
0167561460999992000012612004+31620+100000FM-12+339499999V0209999C000012200019N0300001N1-00041-01821999999ADDAA199000091GF102991011041022501001021MA1999999067381MD1710011+0001REMSYN070AAXX  26121 56146 32880 20000 11004 21182 36738 57001 81402 333 00000;EQDQ01  00002PRCP99
0137561460999992000012615004+31620+100000FM-12+339499999V0209999C000012200019N0300001N1-00431-01771999999ADDGA1001+999999999GF100991001001999999001001MA1999999067441MD1210061+9999REMSYN054AAXX  26151 56146 42980 00000 11043 21177 36744 52006;
0186561460999992000012618004+31620+100000FM-12+339499999V0209999C000012200019N0300001N1-00751-01861999999ADDAA199000091GF102991011041022501001021KA1999M+00511MA1999999067411MD1710031-0301REMSYN076AAXX  26181 56146 32880 20000 11075 21186 36741 57003 81402 333 05353 10051;EQDQ01  00002PRCP99
0147561460999992000012621004+31620+100000FM-12+339499999V0203601N001012200019N0300001N1-01051-02011999999ADDGA1001+999999999GF100991001001999999001001MA1999999067301MD1710111+0041REMSYN064AAXX  26211 56146 42980 03601 11105 21201 36730 57011 333 05452;
0177561460999992000012700004+31620+100000FM-12+339499999V0209999C000012200019N0300001N1-01231-01751999999ADDAA199000091GA1001+999999999GF100991001001999999001001MA1999999067311MD1210011+0041REMSYN064AAXX  27001 56146 32980 00000 11123 21175 36731 52001 333 05452;EQDQ01  00002PRCP99
0127561460999992000012703004+31620+100000FM-12+339499999V0209999C000012200019N0300001N1-00471-01511999999ADDGF101991011011017501001021MA1999999067341MD1210031+9999REMSYN060AAXX  27031 56146 42780 10000 11047 21151 36734 52003 81102;
0186561460999992000012706004+31620+100000FM-12+339499999V0201801N001012200019N0300001N1+00501-01311999999ADDAA199000091GF101991011011017501001021KA1999N-01261MA1999999066961MD1710381-0701REMSYN076AAXX  27061 56146 32780 11801 10050 21131 36696 57038 81102 333 05704 21126;EQDQ01  00002PRCP99
0137561460999992000012709004+31620+100000FM-12+339499999V0202901N002012200019N0300001N1+00751-01751999999ADDGF102991021011017501001021MA1999999066661MD1710301+0071REMSYN070AAXX  27091 56146 42780 22902 10075 21175 36666 57030 82102 333 05703;
0167561460999992000012712004+31620+100000FM-12+339499999V0203601N001012200019N0300001N1+00011-01591999999ADDAA199000091GF102991011011017501001021MA1999999066661MD1410001+0071REMSYN070AAXX  27121 56146 32780 23601 10001 21159 36666 54000 81102 333 05701;EQDQ01  00002PRCP99
0127561460999992000012715004+31620+100000FM-12+339499999V0209999C000012200019N0300001N1-00321-01651999999ADDGF101991011041022501001001MA1999999066811MD1210151+9999REMSYN060AAXX  27151 56146 42880 10000 11032 21165 36681 52015 81400;
0186561460999992000012718004+31620+100000FM-12+339499999V0209999C000012200019N0300001N1-00471-01671999999ADDAA199000091GF102991001001999999001021KA1999M+00861MA1999999066851MD1210041-0601REMSYN076AAXX  27181 56146 32980 20000 11047 21167 36685 52004 80002 333 05603 10086;EQDQ01  00002PRCP99
0127561460999992000012721004+31620+100000FM-12+339499999V0201101N001010900019N0300001N1-00371-01231999999ADDGF107991031041022501001021MA1999999066841MD1710011+9999REMSYN060AAXX  27211 56146 42880 71101 11037 21123 36684 57001 83402;
0167561460999992000012800004+31620+100000FM-12+339499999V0209999C000010150019N0300001N1-00461-01291999999ADDAA199000091GF106991051041017501001021MA1999999066921MD1210081+0041REMSYN070AAXX  28001 56146 32780 60000 11046 21129 36692 52008 85402 333 05408;EQDQ01  00002PRCP99
0127561460999992000012803004+31620+100000FM-12+339499999V0209999C000010900019N0300001N1+00041-00961999999ADDGF107991011011017501001021MA1999999067051MD1210131+9999REMSYN060AAXX  28031 56146 42780 70000 10004 21096 36705 52013 81102;
0186561460999992000012806004+31620+100000FM-12+339499999V0201801N005010900019N0300001N1+00451-01561999999ADDAA199000091GF107991021091017501001021KA1999N-00631MA1999999066781MD1710271-0201REMSYN076AAXX  28061 56146 32780 71805 10045 21156 36678 57027 82902 333 05256 21063;EQDQ01  00002PRCP99
0137561460999992000012809004+31620+100000FM-12+339499999V0202501N004010900019N0300001N1+00441-01401999999ADDGF107991021091017501001021MA1999999066671MD1710111+0001REMSYN070AAXX  28091 56146 42780 72504 10044 21140 36667 57011 82902 333 00053;
0167561460999992000012812004+31620+100000FM-12+339499999V0203201N003010900019N0300001N1-00031-01041999999ADDAA199000091GF107991021091017501001021MA1999999066901MD1210231+0021REMSYN070AAXX  28121 56146 32780 73203 11003 21104 36690 52023 82902 333 00200;EQDQ01  00002PRCP99
0147561460999992000012815004+31620+100000FM-12+339499999V0201601N002010150019N0300001N1-00361-00581999999ADDAY181031GF108991081091017501999999MA1999999067151MD1210251+9999MW1851REMSYN066AAXX  28151 56146 41780 81602 11036 21058 36715 52025 78580 889//;
0193561460999992000012818004+31620+100000FM-12+339499999V0202701N005010150019N0250001N1-00511-00631999999ADDAA106002091AY181061GF108991081091017501999999KA1999M+00661MA1999999067231MD1210081+0401MW1851REMSYN088AAXX  28181 56146 11775 82705 11051 21063 36723 52008 60021 78580 889// 333 00400 10066;
0174561460999992000012821004+31620+100000FM-12+339499999V0202701N004010210019N0300001N1-00581-00841999999ADDAA124001891AY181031GF107991071041022501999999MA1999999067241MD1210011+0401MW1001REMSYN082AAXX  28211 56146 41880 72704 11058 21084 36724 52001 70080 874// 333 00452 70018;
0180561460999992000012900004+31620+100000FM-12+339499999V0209999C000019999999N0300001N1-00701-00851999999ADDAA106000191AY181061GF108991081001999999011999MA1999999067311MD1210071+0401MW1001REMSYN088AAXX  29001 56146 11980 80000 11070 21085 36731 52007 69921 70080 8801/ 333 00452 70018;
0147561460999992000012903004+31620+100000FM-12+339499999V0209999C000019999999N0300001N1-00611-00811999999ADDAY171031GF108991081001999999021999MA1999999067501MD1210191+9999MW1701REMSYN066AAXX  29031 56146 41980 80000 11061 21081 36750 52019 77070 8802/;
0193561460999992000012906004+31620+100000FM-12+339499999V0201601N002010360019N0300001N1-00201-01041999999ADDAA106000591AY171061GF107991011071012501011999KA1999N-00721MA1999999067291MD1710211+0501MW1001REMSYN088AAXX  29061 56146 11680 71602 11020 21104 36729 57021 69961 70070 8171/ 333 00557 21072;
0137561460999992000012909004+31620+100000FM-12+339499999V0209999C000010360019N0300001N1-00271-01031999999ADDGF107991011011017501011999MA1999999067121MD1710171+0051REMSYN070AAXX  29091 56146 42780 70000 11027 21103 36712 57017 8111/ 333 00557;
0166561460999992000012912004+31620+100000FM-12+339499999V0202701N003010360019N0300001N1-00501-00841999999ADDAA106000791GF107991031091017501041021MA1999999067201MD1210081+0031MW1851REMSYN082AAXX  29121 56146 11780 72703 11050 21084 36720 52008 69901 78500 83942 333 00355;
0155561460999992000012915004+31620+100000FM-12+339499999V0202701N001010900019N0300001N1-00581-00811999999ADDAY181031AY281031GF106991031041022501001021MA1999999067221MD1210021+9999MW1261REMSYN066AAXX  29151 56146 41880 62701 11058 21081 36722 52002 72688 83402;
0193561460999992000012918004+31620+100000FM-12+339499999V0209999C000010210019N0300001N1-00651-00831999999ADDAA106000791AY181061GF108991081041022501999999KA1999M-00091MA1999999067201MD1710021+0001MW1851REMSYN088AAXX  29181 56146 11880 80000 11065 21083 36720 57002 69901 78580 884// 333 00051 11009;
0182561460999992000012921004+31620+100000FM-12+339499999V0209999C000010210019N0300001N1-00661-00811999999ADDAA124000891AY181031AY271031GF108991081051022501999999MA1999999067161MD1710041-0101MW1701REMSYN082AAXX  29211 56146 41880 80000 11066 21081 36716 57004 77087 885// 333 05151 70008;
0188561460999992000013000004+31620+100000FM-12+339499999V0201601N001010150019N0300001N1-00671-00821999999ADDAA106000591AY181061AY271061GF108991081051017501999999MA1999999067211MD1210051-0101MW1221REMSYN088AAXX  30001 56146 11780 81601 11067 21082 36721 52005 69941 72287 885// 333 05100 70010;
0127561460999992000013003004+31620+100000FM-12+339499999V0209999C000010360019N0300001N1-00391-00831999999ADDGF108991011011012501021999MA1999999067311MD1210101+9999REMSYN060AAXX  30031 56146 42680 80000 11039 21083 36731 52010 8112/;
0167561460999992000013006004+31620+100000FM-12+339499999V0202701N008010180019N0300001N1-00351-01201999999ADDAA199000021GF108991081081017501999999KA1999N-00681MA1999999067181MD1210131-0101REMSYN076AAXX  30061 56146 32780 82708 11035 21120 36718 52013 888// 333 05152 21068;
0137561460999992000013009004+31620+100000FM-12+339499999V0202701N006010900019N0300001N1-00281-01221999999ADDGF106991041041017501001021MA1999999067101MD1710081+0001REMSYN070AAXX  30091 56146 42780 62706 11028 21122 36710 57008 84402 333 00000;
0148561460999992000013012004+31620+100000FM-12+339499999V0202701N006010900019N0300001N1-00461-01771999999ADDAA199000021GF106991041041017501001021MA1999999067251MD1210151+0011REMSYN070AAXX  30121 56146 32780 62706 11046 21177 36725 52015 84402 333 00100;
0127561460999992000013015004+31620+100000FM-12+339499999V0202901N006010900019N0300001N1-00571-01821999999ADDGF105991031041017501001021MA1999999067451MD1210201+9999REMSYN060AAXX  30151 56146 42780 52906 11057 21182 36745 52020 83402;
0174561460999992000013021004+31620+100000FM-12+339499999V0203401N004012200019N0300001N1-01251-01871999999ADDAA124000391AY181031GF102991021041022501001001MA1999999067501MD1710111+0301MW1001REMSYN082AAXX  30211 56146 41880 23404 11125 21187 36750 57011 70080 82400 333 00356 70002;
0180561460999992000013100004+31620+100000FM-12+339499999V0209999C000012200019N0300001N1-01481-01921999999ADDAA106000791AY181061GF101991011041022501001001MA1999999067461MD1710041+0301MW1001REMSYN088AAXX  31001 56146 11880 10000 11148 21192 36746 57004 69901 70080 81400 333 00358 79999;
0137561460999992000013103004+31620+100000FM-12+339499999V0209999C000012200019N0300001N1-00981-01781999999ADDGA1001+999999999GF100991001001999999001001MA1999999067541MD1210081+9999REMSYN054AAXX  31031 56146 42980 00000 11098 21178 36754 52008;
0186561460999992000013106004+31620+100000FM-12+339499999V0201801N001012200019N0300001N1-00471-01861999999ADDAA199000091GF101991011011017501001001KA1999N-01581MA1999999067311MD1710231+0101REMSYN076AAXX  31061 56146 32780 11801 11047 21186 36731 57023 81100 333 00151 21158;EQDQ01  00002PRCP99
0137561460999992000013109004+31620+100000FM-12+339499999V0202701N008012200019N0300001N1-00071-02551999999ADDGF101991011011017501001001MA1999999067081MD1710231+0001REMSYN070AAXX  31091 56146 42780 12708 11007 21255 36708 57023 81100 333 00002;
0167561460999992000013112004+31620+100000FM-12+339499999V0203201N003012200019N0300001N1-00391-02181999999ADDAA199000091GF101991011011017501001021MA1999999067111MD1210031+0011REMSYN070AAXX  31121 56146 32780 13203 11039 21218 36711 52003 81102 333 05101;EQDQ01  00002PRCP99
0137561460999992000013115004+31620+100000FM-12+339499999V0209999C000012200019N0300001N1-00871-01901999999ADDGA1001+999999999GF100991001001999999001001MA1999999067241MD1210131+9999REMSYN054AAXX  31151 56146 42980 00000 11087 21190 36724 52013;
0196561460999992000013118004+31620+100000FM-12+339499999V0209999C000012200019N0300001N1-01111-02101999999ADDAA199000091GA1001+999999999GF100991001001999999001001KA1999M+00001MA1999999067331MD1210091-0301REMSYN070AAXX  31181 56146 32980 00000 11111 21210 36733 52009 333 05352 10000;EQDQ01  00002PRCP99
0147561460999992000013121004+31620+100000FM-12+339499999V0200201N001012200019N0300001N1-01181-01761999999ADDGA1001+999999999GF100991001001999999001001MA1999999067221MD1710111+0021REMSYN064AAXX  31211 56146 42980 00201 11118 21176 36722 57011 333 05201;
0167561460999992000020100004+31620+100000FM-12+339499999V0209999C000010210019N0300001N1-01341-01791999999ADDAA199000091GF106991061051022501001021MA1999999067201MD1710021+0031REMSYN070AAXX  01001 56146 32880 60000 11134 21179 36720 57002 86502 333 05301;EQDQ01  00002PRCP99
0127561460999992000020103004+31620+100000FM-12+339499999V0200701N001012200019N0300001N1-00641-01601999999ADDGF101991011011017501001021MA1999999067211MD1210011+9999REMSYN060AAXX  01031 56146 42780 10701 11064 21160 36721 52001 81102;
0186561460999992000020106004+31620+100000FM-12+339499999V0209999C000010900019N0300001N1-00211-01711999999ADDAA199000091GF107991031041017501001021KA1999N-01411MA1999999066911MD1710301-0401REMSYN076AAXX  01061 56146 32780 70000 11021 21171 36691 57030 83402 333 05403 21141;EQDQ01  00002PRCP99
0137561460999992000020109004+31620+100000FM-12+339499999V0209999C000010900019N0300001N1+00141-01711999999ADDGF107991031041017501001021MA1999999066661MD1710251+0041REMSYN070AAXX  01091 56146 42780 70000 10014 21171 36666 57025 83402 333 05402;
0167561460999992000020112004+31620+100000FM-12+339499999V0200201N001010150019N0300001N1-00161-01371999999ADDAA199000091GF107991051041017501001021MA1999999066671MD1210011+0041REMSYN070AAXX  01121 56146 32780 70201 11016 21137 36667 52001 85402 333 05402;EQDQ01  00002PRCP99
0127561460999992000020115004+31620+100000FM-12+339499999V0203401N003012200019N0300001N1-00461-01431999999ADDGF101991011041022501001001MA1999999066771MD1210101+9999REMSYN060AAXX  01151 56146 42880 13403 11046 21143 36677 52010 81400;
0196561460999992000020118004+31620+100000FM-12+339499999V0209999C000012200019N0300001N1-00621-01411999999ADDAA199000091GA1001+999999999GF100991001001999999001001KA1999M+00351MA1999999066781MD1210011-0601REMSYN070AAXX  01181 56146 32980 00000 11062 21141 36678 52001 333 05605 10035;EQDQ01  00002PRCP99
0147561460999992000020121004+31620+100000FM-12+339499999V0202201N001012200019N0300001N1-00821-01431999999ADDGA1001+999999999GF100991001001999999001001MA1999999066811MD1210031+0041REMSYN064AAXX  01211 56146 42980 02201 11082 21143 36681 52003 333 05404;
0167561460999992000020200004+31620+100000FM-12+339499999V0200201N002012200019N0300001N1-00941-01421999999ADDAA199000091GF101991011011017501001021MA1999999066921MD1210111+0031REMSYN070AAXX  02001 56146 32780 10202 11094 21142 36692 52011 81102 333 05304;EQDQ01  00002PRCP99
0127561460999992000020203004+31620+100000FM-12+339499999V0201801N002010900019N0300001N1-00121-01211999999ADDGF106991021081017501001021MA1999999067051MD1210131+9999REMSYN060AAXX  02031 56146 42780 61802 11012 21121 36705 52013 82802;
0186561460999992000020206004+31620+100000FM-12+339499999V0202501N001010900019N0300001N1+00261-01961999999ADDAA199000091GF107991011011017501001021KA1999N-00941MA1999999066861MD1710191-0101REMSYN076AAXX  02061 56146 32780 72501 10026 21196 36686 57019 81102 333 05105 21094;EQDQ01  00002PRCP99
0137561460999992000020209004+31620+100000FM-12+339499999V0202501N002010900019N0300001N1+00481-02041999999ADDGF107991041041017501001021MA1999999066681MD1710181+0001REMSYN070AAXX  02091 56146 42780 72502 10048 21204 36668 57018 84402 333 00003;
0167561460999992000020212004+31620+100000FM-12+339499999V0203601N001010150019N0300001N1-00021-01451999999ADDAA199000091GF107991061091017501001021MA1999999066841MD1210161+0021REMSYN070AAXX  02121 56146 32780 73601 11002 21145 36684 52016 86902 333 00201;EQDQ01  00002PRCP99
0127561460999992000020215004+31620+100000FM-12+339499999V0202701N001010900019N0300001N1-00191-01431999999ADDGF107991031041022501001021MA1999999066941MD1210101+9999REMSYN060AAXX  02151 56146 42880 72701 11019 21143 36694 52010 83402;
0186561460999992000020218004+31620+100000FM-12+339499999V0209999C000010210019N0300001N1-00421-01361999999ADDAA199000091GF106991061041022501001021KA1999M+00621MA1999999066921MD1710021+0101REMSYN076AAXX  02181 56146 32880 60000 11042 21136 36692 57002 86402 333 00102 10062;EQDQ01  00002PRCP99
0137561460999992000020221004+31620+100000FM-12+339499999V0209999C000010210019N0300001N1-00561-01101999999ADDGF107991061041022501001021MA1999999066771MD1710151+0001REMSYN070AAXX  02211 56146 42880 70000 11056 21110 36677 57015 86402 333 00003;
0167561460999992000020300004+31620+100000FM-12+339499999V0209999C000010210019N0300001N1-00621-01031999999ADDAA199000091GF107991051041022501001021MA1999999066881MD1210111+0001REMSYN070AAXX  03001 56146 32880 70000 11062 21103 36688 52011 85402 333 00003;EQDQ01  00002PRCP99
0127561460999992000020303004+31620+100000FM-12+339499999V0209999C000010180019N0300001N1-00121-00951999999ADDGF107991061081017501001021MA1999999067031MD1210151+9999REMSYN060AAXX  03031 56146 42780 70000 11012 21095 36703 52015 86802;
0186561460999992000020306004+31620+100000FM-12+339499999V0202701N002010180019N0300001N1+00381-00951999999ADDAA199000091GF107991051081017501001021KA1999N-00691MA1999999066791MD1710241-0101REMSYN076AAXX  03061 56146 32780 72702 10038 21095 36679 57024 85802 333 05101 21069;EQDQ01  00002PRCP99
0137561460999992000020309004+31620+100000FM-12+339499999V0203201N005010150019N0300001N1+00201-01041999999ADDGF107991071091017501001021MA1999999066781MD1710011+0011REMSYN070AAXX  03091 56146 42780 73205 10020 21104 36678 57001 87902 333 00153;
0190561460999992000020312004+31620+100000FM-12+339499999V0209999C000010900019N0300001N1-00161-01371999999ADDAA199000091GF107991021041017501001021MA1999999066891MD1210111+0101OA130601901REMSYN082AAXX  03121 56146 32780 70000 11016 21137 36689 52011 82402 333 00151 91119 91529;EQDQ01  00002PRCP99
0127561460999992000020315004+31620+100000FM-12+339499999V0202001N001010900019N0300001N1-00261-01321999999ADDGF107991031041022501001021MA1999999067081MD1210191+9999REMSYN060AAXX  03151 56146 42880 72001 11026 21132 36708 52019 83402;
0196561460999992000020318004+31620+100000FM-12+339499999V0203601N001012200019N0300001N1-00741-01501999999ADDAA199000091GA1001+999999999GF100991001001999999001001KA1999M+00551MA1999999067121MD1210041+0201REMSYN070AAXX  03181 56146 32980 03601 11074 21150 36712 52004 333 00253 10055;EQDQ01  00002PRCP99
0147561460999992000020321004+31620+100000FM-12+339499999V0203401N001012200019N0300001N1-00941-01561999999ADDGA1001+999999999GF100991001001999999001001MA1999999067121MD1410001+0041REMSYN064AAXX  03211 56146 42980 03401 11094 21156 36712 54000 333 00454;
0167561460999992000020400004+31620+100000FM-12+339499999V0209999C000010900019N0300001N1-00981-01471999999ADDAA199000091GF105991021041017501001021MA1999999067211MD1210091+0031REMSYN070AAXX  04001 56146 32780 50000 11098 21147 36721 52009 82402 333 00354;EQDQ01  00002PRCP99
0127561460999992000020403004+31620+100000FM-12+339499999V0209999C000012200019N0300001N1-00301-01211999999ADDGF104991011011017501001021MA1999999067301MD1210091+9999REMSYN060AAXX  04031 56146 42780 40000 11030 21121 36730 52009 81102;
0186561460999992000020406004+31620+100000FM-12+339499999V0202701N008010150019N0300001N1+00241-01581999999ADDAA199000091GF106991051091017501001021KA1999N-01051MA1999999067011MD1710291+0201REMSYN076AAXX  04061 56146 32780 62708 10024 21158 36701 57029 85902 333 00251 21105;EQDQ01  00002PRCP99
0137561460999992000020409004+31620+100000FM-12+339499999V0202701N004010150019N0300001N1+00221-02281999999ADDGF107991061091017501001021MA1999999066901MD1710111+0011REMSYN070AAXX  04091 56146 42780 72704 10022 21228 36690 57011 86902 333 00100;
0167561460999992000020412004+31620+100000FM-12+339499999V0202901N001012200019N0300001N1-00201-02041999999ADDAA199000091GF102991011041017501001021MA1999999067021MD1210121+0011REMSYN070AAXX  04121 56146 32780 22901 11020 21204 36702 52012 81402 333 00100;EQDQ01  00002PRCP99
0137561460999992000020415004+31620+100000FM-12+339499999V0203401N001012200019N0300001N1-00681-02131999999ADDGA1001+999999999GF100991001001999999001001MA1999999067171MD1210151+9999REMSYN054AAXX  04151 56146 42980 03401 11068 21213 36717 52015;
0196561460999992000020418004+31620+100000FM-12+339499999V0209999C000012200019N0300001N1-00931-02011999999ADDAA199000091GA1001+999999999GF100991001001999999001001KA1999M+00391MA1999999067251MD1210281+0101REMSYN070AAXX  04181 56146 32980 00000 11093 21201 36725 52028 333 00152 10039;EQDQ01  00002PRCP99
0147561460999992000020421004+31620+100000FM-12+339499999V0209999C000012200019N0300001N1-01061-01751999999ADDGA1001+999999999GF100991001001999999001001MA1999999067211MD1710041+0011REMSYN064AAXX  04211 56146 42980 00000 11106 21175 36721 57004 333 00151;
0167561460999992000020500004+31620+100000FM-12+339499999V0209999C000010150019N0300001N1-01101-01651999999ADDAA199000091GF107991051041017501001021MA1999999067301MD1210091+0011REMSYN070AAXX  05001 56146 32780 70000 11110 21165 36730 52009 85402 333 00151;EQDQ01  00002PRCP99
0127561460999992000020503004+31620+100000FM-12+339499999V0209999C000010210019N0300001N1-00661-01531999999ADDGF107991071051022501999999MA1999999067381MD1210081+9999REMSYN060AAXX  05031 56146 42880 70000 11066 21153 36738 52008 875//;
0186561460999992000020506004+31620+100000FM-12+339499999V0202001N001012200019N0300001N1+00051-01251999999ADDAA199000091GF101991011011017501001021KA1999N-01201MA1999999067061MD1710321+0101REMSYN076AAXX  05061 56146 32780 12001 10005 21125 36706 57032 81102 333 00152 21120;EQDQ01  00002PRCP99
0137561460999992000020509004+31620+100000FM-12+339499999V0203601N003010900019N0300001N1+00511-02031999999ADDGF106991021011017501001021MA1999999066861MD1710201+0001REMSYN070AAXX  05091 56146 42780 63603 10051 21203 36686 57020 82102 333 00003;
0167561460999992000020512004+31620+100000FM-12+339499999V0202701N002010900019N0300001N1+00121-01311999999ADDAA199000091GF107991031041017501001021MA1999999067021MD1210161+0001REMSYN070AAXX  05121 56146 32780 72702 10012 21131 36702 52016 83402 333 00003;EQDQ01  00002PRCP99
0127561460999992000020515004+31620+100000FM-12+339499999V0209999C000012200019N0300001N1-00371-01371999999ADDGF101991011041022501001001MA1999999067161MD1210141+9999REMSYN060AAXX  05151 56146 42880 10000 11037 21137 36716 52014 81400;
0196561460999992000020518004+31620+100000FM-12+339499999V0209999C000012200019N0300001N1-00641-01301999999ADDAA199000091GA1001+999999999GF100991001001999999001001KA1999M+00661MA1999999067161MD1410001-0101REMSYN070AAXX  05181 56146 32980 00000 11064 21130 36716 54000 333 05103 10066;EQDQ01  00002PRCP99
0137561460999992000020521004+31620+100000FM-12+339499999V0209999C000012200019N0300001N1-00901-01411999999ADDGF101991011041022501001001MA1999999067111MD1710051+0011REMSYN070AAXX  05211 56146 42880 10000 11090 21141 36711 57005 81400 333 05100;
0167561460999992000020600004+31620+100000FM-12+339499999V0203601N001012200019N0300001N1-01081-01451999999ADDAA199000091GF101991011011017501001001MA1999999067231MD1210121+0011REMSYN070AAXX  06001 56146 32780 13601 11108 21145 36723 52012 81100 333 05100;EQDQ01  00002PRCP99
0127561460999992000020603004+31620+100000FM-12+339499999V0201601N001012200019N0300001N1-00431-01251999999ADDGF101991011011017501001021MA1999999067351MD1210121+9999REMSYN060AAXX  06031 56146 42780 11601 11043 21125 36735 52012 81102;
0186561460999992000020606004+31620+100000FM-12+339499999V0202701N001012200019N0300001N1+00261-00891999999ADDAA199000091GF103991011011017501001021KA1999N-01141MA1999999067021MD1710331+0001REMSYN076AAXX  06061 56146 32780 32701 10026 21089 36702 57033 81102 333 00002 21114;EQDQ01  00002PRCP99
0137561460999992000020609004+31620+100000FM-12+339499999V0202001N002012200019N0300001N1+00681-01271999999ADDGF104991011011017501001021MA1999999066811MD1710211+0011REMSYN070AAXX  06091 56146 42780 42002 10068 21127 36681 57021 81102 333 05102;
0167561460999992000020612004+31620+100000FM-12+339499999V0209999C000010150019N0300001N1+00271-01281999999ADDAA199000091GF107991061091017501001021MA1999999066921MD1210111+0011REMSYN070AAXX  06121 56146 32780 70000 10027 21128 36692 52011 86902 333 05102;EQDQ01  00002PRCP99
0127561460999992000020615004+31620+100000FM-12+339499999V0200701N003010900019N0300001N1-00061-00681999999ADDGF106991021041017501001021MA1999999067081MD1210161+9999REMSYN060AAXX  06151 56146 42780 60703 11006 21068 36708 52016 82402;
0193561460999992000020618004+31620+100000FM-12+339499999V0209999C000010210019N0300001N1-00301-00391999999ADDAA106000191AY181061GF108991081041022501999999KA1999M+00761MA1999999067131MD1210051+0001MW1851REMSYN088AAXX  06181 56146 11880 80000 11030 21039 36713 52005 69921 78580 884// 333 00003 10076;
0182561460999992000020621004+31620+100000FM-12+339499999V0209999C000010210019N0300001N1-00391-00501999999ADDAA124000891AY181031AY281031GF108991081041022501999999MA1999999067101MD1710031+0001MW1851REMSYN082AAXX  06211 56146 41880 80000 11039 21050 36710 57003 78588 884// 333 00002 70008;
0207561460999992000020700004+31620+100000FM-12+339499999V0209999C000010900019N0300001N1-00701-00821999999ADDAA106000891AY181061AY281061GF106991031051022501001021MA1999999067121MD1010001-0101MW1261REMSYN088AAXX  07001 56146 11880 60000 11070 21082 36712 50062 69971 72688 83502 333 05104 70009;EQDQ01+000622APC3  
0127561460999992000020703004+31620+100000FM-12+339499999V0209999C000010150019N0300001N1-00291-00671999999ADDGF106991051081012501001021MA1999999067171MD1210051+9999REMSYN060AAXX  07031 56146 42680 60000 11029 21067 36717 52005 85802;
0167561460999992000020706004+31620+100000FM-12+339499999V0201601N002010900019N0300001N1+00271-00881999999ADDAA199000021GF107991021011012501001021KA1999N-00731MA1999999066861MD1710311-0201REMSYN076AAXX  07061 56146 32680 71602 10027 21088 36686 57031 82102 333 05200 21073;
0137561460999992000020709004+31620+100000FM-12+339499999V0201401N002010900019N0300001N1+00471-01391999999ADDGF107991031091017501001021MA1999999066621MD1710241+0021REMSYN070AAXX  07091 56146 42780 71402 10047 21139 36662 57024 83902 333 05252;
0148561460999992000020712004+31620+100000FM-12+339499999V0200401N001010150019N0300001N1+00051-01081999999ADDAA199000021GF107991071091017501999999MA1999999066741MD1210121+0021REMSYN070AAXX  07121 56146 32780 70401 10005 21108 36674 52012 879// 333 05252;
0137561460999992000020715004+31620+100000FM-12+339499999V0209999C000012200019N0300001N1-00241-01191999999ADDGA1001+999999999GF100991001001999999001001MA1999999066861MD1210121+9999REMSYN054AAXX  07151 56146 42980 00000 11024 21119 36686 52012;
0193561460999992000020718004+31620+100000FM-12+339499999V0203401N002012200019N0300001N1-00451-00751999999ADDAA106000791AY181061GF102991021041022501001001KA1999M+00631MA1999999066931MD1210071-0201MW1001REMSYN088AAXX  07181 56146 11880 23402 11045 21075 36693 52007 69901 70080 82400 333 05252 10063;
0154561460999992000020721004+31620+100000FM-12+339499999V0203601N001012200019N0300001N1-00701-01021999999ADDAA124000191GF101991011041022501001021MA1999999066891MD1710041-0201REMSYN076AAXX  07211 56146 42880 13601 11070 21102 36689 57004 81402 333 05253 70001;
0154561460999992000020800004+31620+100000FM-12+339499999V0209999C000010210019N0300001N1-00521-00831999999ADDAA124000791GF107991071051022501999999MA1999999067001MD1210111-0101REMSYN076AAXX  08001 56146 32880 70000 11052 21083 36700 52011 875// 333 05102 79999;
0127561460999992000020803004+31620+100000FM-12+339499999V0201801N001010180019N0300001N1-00221-00851999999ADDGF107991061081017501001021MA1999999067141MD1210141+9999REMSYN060AAXX  08031 56146 42780 71801 11022 21085 36714 52014 86802;
0186561460999992000020806004+31620+100000FM-12+339499999V0202201N002010900019N0300001N1+00321-01071999999ADDAA199000091GF106991021011017501001021KA1999N-00771MA1999999066821MD1710321+0001REMSYN076AAXX  08061 56146 32780 62202 10032 21107 36682 57032 82102 333 00001 21077;EQDQ01  00002PRCP99
0137561460999992000020809004+31620+100000FM-12+339499999V0202501N009010150019N0300001N1+00481-01301999999ADDGF107991051091017501001021MA1999999066621MD1710201+0001REMSYN070AAXX  08091 56146 42780 72509 10048 21130 36662 57020 85902 333 00000;
0167561460999992000020812004+31620+100000FM-12+339499999V0203401N001012200019N0300001N1-00021-01561999999ADDAA199000091GF101991011041017501001001MA1999999066611MD1710011+0011REMSYN070AAXX  08121 56146 32780 13401 11002 21156 36661 57001 81400 333 05151;EQDQ01  00002PRCP99
0137561460999992000020815004+31620+100000FM-12+339499999V0209999C000012200019N0300001N1-00261-01361999999ADDGA1001+999999999GF100991001001999999001001MA1999999066761MD1210151+9999REMSYN054AAXX  08151 56146 42980 00000 11026 21136 36676 52015;
0196561460999992000020818004+31620+100000FM-12+339499999V0203401N001012200019N0300001N1-00481-01321999999ADDAA199000091GA1001+999999999GF100991001001999999001001KA1999M+00621MA1999999066841MD1210081-0101REMSYN070AAXX  08181 56146 32980 03401 11048 21132 36684 52008 333 05100 10062;EQDQ01  00002PRCP99
0137561460999992000020821004+31620+100000FM-12+339499999V0209999C000012200019N0300001N1-00661-01251999999ADDGF101991011041022501001001MA1999999066831MD1710011+0011REMSYN070AAXX  08211 56146 42880 10000 11066 21125 36683 57001 81400 333 05100;
0167561460999992000020900004+31620+100000FM-12+339499999V0209999C000010900019N0300001N1-00791-01221999999ADDAA199000091GF106991021041017501001021MA1999999067001MD1210171+0001REMSYN070AAXX  09001 56146 32780 60000 11079 21122 36700 52017 82402 333 00053;EQDQ01  00002PRCP99
0127561460999992000020903004+31620+100000FM-12+339499999V0209999C000012200019N0300001N1-00251-01081999999ADDGF102991021011017501001021MA1999999067051MD1210051+9999REMSYN060AAXX  09031 56146 42780 20000 11025 21108 36705 52005 82102;
0186561460999992000020906004+31620+100000FM-12+339499999V0209999C000010900019N0300001N1+00381-01081999999ADDAA199000091GF105991021011017501001021KA1999N-00841MA1999999066711MD1710341-0101REMSYN076AAXX  09061 56146 32780 50000 10038 21108 36671 57034 82102 333 05101 21084;EQDQ01  00002PRCP99
0137561460999992000020909004+31620+100000FM-12+339499999V0201801N006010900019N0300001N1+00491-01341999999ADDGF106991021091017501001021MA1999999066521MD1710191+0011REMSYN070AAXX  09091 56146 42780 61806 10049 21134 36652 57019 82902 333 05100;
0167561460999992000020912004+31620+100000FM-12+339499999V0209999C000010900019N0300001N1+00031-01201999999ADDAA199000091GF107991031091017501001021MA1999999066601MD1210081+0001REMSYN070AAXX  09121 56146 32780 70000 10003 21120 36660 52008 83902 333 00001;EQDQ01  00002PRCP99
0127561460999992000020915004+31620+100000FM-12+339499999V0201801N001010150019N0300001N1-00021-01241999999ADDGF107991071091017501999999MA1999999066731MD1210131+9999REMSYN060AAXX  09151 56146 42780 71801 11002 21124 36673 52013 879//;
0193561460999992000020918004+31620+100000FM-12+339499999V0209999C000012200019N0300001N1-00411-00551999999ADDAA106000791AY181061GF103991011091017501001021KA1999M+00591MA1999999066791MD1210061-0101MW1001REMSYN088AAXX  09181 56146 11780 30000 11041 21055 36679 52006 69901 70080 81902 333 05101 10059;
0174561460999992000020921004+31620+100000FM-12+339499999V0200901N001010150019N0300001N1-00411-00461999999ADDAA124000391AY181031GF107991051091017501001021MA1999999066781MD1710011-0101MW1851REMSYN082AAXX  09211 56146 41780 70901 11041 21046 36678 57001 78580 85902 333 05103 70003;
0180561460999992000021000004+31620+100000FM-12+339499999V0209999C000010210019N0300001N1-00481-00631999999ADDAA106000591AY181061GF108991081041022501999999MA1999999066891MD1210111-0101MW1851REMSYN088AAXX  10001 56146 11880 80000 11048 21063 36689 52011 69941 78580 884// 333 05103 70004;
0155561460999992000021003004+31620+100000FM-12+339499999V0209999C000010900019N0300001N1-00191-00671999999ADDAY181031AY281031GF107991021081017501001021MA1999999067041MD1210151+9999MW1261REMSYN066AAXX  10031 56146 41780 70000 11019 21067 36704 52015 72688 82802;
0193561460999992000021006004+31620+100000FM-12+339499999V0202701N005010900019N0300001N1+00221-01171999999ADDAA106000191AY181061GF107991021011017501001021KA1999N-00531MA1999999066821MD1710221+0101MW1001REMSYN088AAXX  10061 56146 11780 72705 10022 21117 36682 57022 69911 70080 82102 333 00152 21053;
0137561460999992000021009004+31620+100000FM-12+339499999V0202701N005010900019N0300001N1+00361-01961999999ADDGF107991021091017501001021MA1999999066741MD1710081+0021REMSYN070AAXX  10091 56146 42780 72705 10036 21196 36674 57008 82902 333 00251;
0148561460999992000021012004+31620+100000FM-12+339499999V0203401N003012200019N0300001N1-00061-01431999999ADDAA199000021GF101991011011017501001021MA1999999066931MD1210191+0031REMSYN070AAXX  10121 56146 32780 13403 11006 21143 36693 52019 81102 333 00351;
0137561460999992000021015004+31620+100000FM-12+339499999V0209999C000012200019N0300001N1-00451-01521999999ADDGA1001+999999999GF100991001001999999001001MA1999999067061MD1210131+9999REMSYN054AAXX  10151 56146 42980 00000 11045 21152 36706 52013;
0196561460999992000021018004+31620+100000FM-12+339499999V0209999C000012200019N0300001N1-00831-01451999999ADDAA199000091GA1001+999999999GF100991001001999999001001KA1999M+00411MA1999999067091MD1210031+0301REMSYN070AAXX  10181 56146 32980 00000 11083 21145 36709 52003 333 00354 10041;EQDQ01  00002PRCP99
0164561460999992000021021004+31620+100000FM-12+339499999V0209999C000012200019N0300001N1-00991-01441999999ADDAA124000391GA1001+999999999GF100991001001999999001001MA1999999067071MD1710021+0301REMSYN070AAXX  10211 56146 42980 00000 11099 21144 36707 57002 333 00356 70002;
0154561460999992000021100004+31620+100000FM-12+339499999V0209999C000010900019N0300001N1-01071-01511999999ADDAA124000191GF107991021041022501001021MA1999999067171MD1210101+0301REMSYN076AAXX  11001 56146 32880 70000 11107 21151 36717 52010 82402 333 00356 70001;
0127561460999992000021103004+31620+100000FM-12+339499999V0209999C000010900019N0300001N1-00501-01361999999ADDGF107991011041017501001021MA1999999067251MD1210081+9999REMSYN060AAXX  11031 56146 43780 70000 11050 21136 36725 52008 81402;
0186561460999992000021106004+31620+100000FM-12+339499999V0201601N001012200019N0300001N1+00141-01421999999ADDAA199000091GF104991011011017501001021KA1999N-01091MA1999999066971MD1710281+0201REMSYN076AAXX  11061 56146 32780 41601 10014 21142 36697 57028 81102 333 00251 21109;EQDQ01  00002PRCP99
0137561460999992000021109004+31620+100000FM-12+339499999V0201801N003012200019N0300001N1+00641-01021999999ADDGF101991011011017501001021MA1999999066731MD1710241+0001REMSYN070AAXX  11091 56146 42780 11803 10064 21102 36673 57024 81102 333 00003;
0177561460999992000021112004+31620+100000FM-12+339499999V0203601N001012200019N0300001N1+00051-01571999999ADDAA199000091GA1001+999999999GF100991001001999999001001MA1999999066791MD1210061+0011REMSYN064AAXX  11121 56146 32980 03601 10005 21157 36679 52006 333 05101;EQDQ01  00002PRCP99
0137561460999992000021115004+31620+100000FM-12+339499999V0203401N002012200019N0300001N1-00361-01871999999ADDGA1001+999999999GF100991001001999999001001MA1999999066891MD1210101+9999REMSYN054AAXX  11151 56146 42980 03402 11036 21187 36689 52010;
0196561460999992000021118004+31620+100000FM-12+339499999V0200401N001012200019N0300001N1-00631-01421999999ADDAA199000091GA1001+999999999GF100991001001999999001001KA1999M+00731MA1999999066851MD1710041-0201REMSYN070AAXX  11181 56146 32980 00401 11063 21142 36685 57004 333 05202 10073;EQDQ01  00002PRCP99
0147561460999992000021121004+31620+100000FM-12+339499999V0209999C000012200019N0300001N1-00821-01581999999ADDGA1001+999999999GF100991001001999999001001MA1999999066791MD1710061+0031REMSYN064AAXX  11211 56146 42980 00000 11082 21158 36679 57006 333 05302;
0177561460999992000021200004+31620+100000FM-12+339499999V0209999C000012200019N0300001N1-00941-01611999999ADDAA199000091GA1001+999999999GF100991001001999999001001MA1999999066831MD1210041+0031REMSYN064AAXX  12001 56146 32980 00000 11094 21161 36683 52004 333 05301;EQDQ01  00002PRCP99
0127561460999992000021203004+31620+100000FM-12+339499999V0209999C000012200019N0300001N1-00291-01281999999ADDGF101991011011017501001001MA1999999066811MD1710021+9999REMSYN060AAXX  12031 56146 42780 10000 11029 21128 36681 57002 81100;
0186561460999992000021206004+31620+100000FM-12+339499999V0201801N001012200019N0300001N1+00801-01141999999ADDAA199000091GF101991011011017501001001KA1999N-01011MA1999999066461MD1710351-0501REMSYN076AAXX  12061 56146 32780 11801 10080 21114 36646 57035 81100 333 05507 21101;EQDQ01  00002PRCP99
0137561460999992000021209004+31620+100000FM-12+339499999V0202501N003010900019N0300001N1+01201-01441999999ADDGF107991021011017501001021MA1999999066151MD1710311+0061REMSYN070AAXX  12091 56146 42780 72503 10120 21144 36615 57031 82102 333 05606;
0167561460999992000021212004+31620+100000FM-12+339499999V0202701N002010900019N0300001N1+00571-01301999999ADDAA199000091GF107991021041017501001021MA1999999066271MD1210121+0051REMSYN070AAXX  12121 56146 32780 72702 10057 21130 36627 52012 82402 333 05505;EQDQ01  00002PRCP99
0127561460999992000021215004+31620+100000FM-12+339499999V0200201N003010900019N0300001N1+00331-01671999999ADDGF107991031041017501001021MA1999999066381MD1210111+9999REMSYN060AAXX  12151 56146 42780 70203 10033 21167 36638 52011 83402;
0186561460999992000021218004+31620+100000FM-12+339499999V0200401N003012200019N0300001N1+00071-01411999999ADDAA199000091GF102991011041022501001021KA1999M+01311MA1999999066481MD1210101-0401REMSYN076AAXX  12181 56146 32880 20403 10007 21141 36648 52010 81402 333 05407 10131;EQDQ01  00002PRCP99
0147561460999992000021221004+31620+100000FM-12+339499999V0203601N001012200019N0300001N1-00101-01561999999ADDGA1001+999999999GF100991001001999999001001MA1999999066511MD1210031+0031REMSYN064AAXX  12211 56146 42980 03601 11010 21156 36651 52003 333 05307;
0167561460999992000021300004+31620+100000FM-12+339499999V0203601N001012200019N0300001N1-00281-01451999999ADDAA199000091GF101991011041022501001021MA1999999066751MD1210241+0011REMSYN070AAXX  13001 56146 32880 13601 11028 21145 36675 52024 81402 333 05107;EQDQ01  00002PRCP99
0137561460999992000021303004+31620+100000FM-12+339499999V0209999C000012200019N0300001N1+00561-00971999999ADDGA1001+999999999GF100991001001999999001001MA1999999066881MD1210131+9999REMSYN054AAXX  13031 56146 42980 00000 10056 21097 36688 52013;
0186561460999992000021306004+31620+100000FM-12+339499999V0202501N003012200019N0300001N1+01121-02302999999ADDAA199000091GF101991011011017501001001KA1999N-00381MA1999999066591MD1710291+0101REMSYN076AAXX  13061 56146 32780 12503 10112 21230 36659 57029 81100 333 00103 21038;EQDQ01  00002PRCP99
0137561460999992000021309004+31620+100000FM-12+339499999V0202901N004010900019N0300001N1+01361-02101999999ADDGF106991011011017501001021MA1999999066311MD1710281+0021REMSYN070AAXX  13091 56146 42780 62904 10136 21210 36631 57028 81102 333 00202;
0190561460999992000021312004+31620+100000FM-12+339499999V0200401N001012200019N0300001N1+00611-01681999999ADDAA199000091GF101991011011017501001021MA1999999066451MD1210141+0201OA130601801REMSYN082AAXX  13121 56146 32780 10401 10061 21168 36645 52014 81102 333 00200 91118 91529;EQDQ01  00002PRCP99
0127561460999992000021315004+31620+100000FM-12+339499999V0209999C000012200019N0300001N1+00001-01681999999ADDGF101991011041022501001021MA1999999066651MD1210201+9999REMSYN060AAXX  13151 56146 42880 10000 10000 21168 36665 52020 81402;
0186561460999992000021318004+31620+100000FM-12+339499999V0202901N001012200019N0300001N1-00301-01601999999ADDAA199000091GF101991001001999999001021KA1999M+01411MA1999999066821MD1210171+0301REMSYN076AAXX  13181 56146 32980 12901 11030 21160 36682 52017 80002 333 00354 10141;EQDQ01  00002PRCP99
0147561460999992000021321004+31620+100000FM-12+339499999V0209999C000012200019N0300001N1-00441-01551999999ADDGA1001+999999999GF100991001001999999001001MA1999999066901MD1210081+0041REMSYN064AAXX  13211 56146 42980 00000 11044 21155 36690 52008 333 00453;
0177561460999992000021400004+31620+100000FM-12+339499999V0209999C000012200019N0300001N1-00681-01411999999ADDAA199000091GA1001+999999999GF100991001001999999001001MA1999999067041MD1210141+0031REMSYN064AAXX  14001 56146 32980 00000 11068 21141 36704 52014 333 00354;EQDQ01  00002PRCP99
0172561460999992000021403004+31620+100000FM-12+339499999V0209999C000012200019N0300001N1+00161-00871999999ADDGA1001+999999999GF100991001001999999001001MA1999999999999MD1410001+9999REMSYN054AAXX  14031 56146 42980 00000 10016 21087 35704 54000;EQDQ01+057043APOSP Q02 057043APOSP 
0202561460999992000021406004+31620+100000FM-12+339499999V0209999C000012200019N0300001N1+00731-01111999999ADDAA199000091GF101991011011017501001001KA1999N-00761MA1999999066632MD1710141+0001REMSYN076AAXX  14061 56146 32780 10000 10073 21111 36663 57014 81100 333 00054 21076;EQDQ01+066633APOSP Q02  00002PRCP99
0137561460999992000021409004+31620+100000FM-12+339499999V0202501N003010900019N0300001N1+01321-02101999999ADDGF106991021011017501001021MA1999999066321MD1710311+0001REMSYN070AAXX  14091 56146 42780 62503 10132 21210 36632 57031 82102 333 00000;
0190561460999992000021412004+31620+100000FM-12+339499999V0203401N009010150019N0300001N1+00761-01931999999ADDAA199000091GF107991061091017501001021MA1999999066411MD1210091+0001OA130601701REMSYN082AAXX  14121 56146 32780 73409 10076 21193 36641 52009 86902 333 00002 91117 91536;EQDQ01  00002PRCP99
0162561460999992000021415004+31620+100000FM-12+339499999V0200201N004012200019N0300001N1+00111-01741999999ADDGF101991011011017501001021MA1999999066941MD1410001+9999REMSYN060AAXX  14151 56146 42780 10204 10011 21174 36694 52053 81102;EQDQ01+000022APCTENQ02+000532APC3  
0209561460999992000021418004+31620+100000FM-12+339499999V0209999C000012200019N0300001N1-00211-01421999999ADDAA199000091GF101991011011017501001021KA1240M+01421MA1999999067021MD1210081+0201OA130601801REMSYN088AAXX  14181 56146 32780 10000 11021 21142 36702 52008 81102 333 00201 10142 91118 91502;EQDQ01  00002PRCP99
0147561460999992000021421004+31620+100000FM-12+339499999V0209999C000012200019N0300001N1-00611-01491999999ADDGA1001+999999999GF100991001001999999001001MA1999999067021MD1410001+0011REMSYN064AAXX  14211 56146 42980 00000 11061 21149 36702 54000 333 00152;
0167561460999992000021500004+31620+100000FM-12+339499999V0209999C000012200019N0300001N1-00761-01441999999ADDAA199000091GF102991011041022501001021MA1999999067101MD1210081+0011REMSYN070AAXX  15001 56146 32880 20000 11076 21144 36710 52008 81402 333 00151;EQDQ01  00002PRCP99
0127561460999992000021503004+31620+100000FM-12+339499999V0209999C000010900019N0300001N1+00061-00931999999ADDGF105991011041017501001021MA1999999067191MD1210091+9999REMSYN060AAXX  15031 56146 42780 50000 10006 21093 36719 52009 81402;
0186561460999992000021506004+31620+100000FM-12+339499999V0201801N002010900019N0300001N1+00501-00841999999ADDAA199000091GF106991021011017501001021KA1999N-00801MA1999999066921MD1710271+0301REMSYN076AAXX  15061 56146 32780 61802 10050 21084 36692 57027 82102 333 00352 21080;EQDQ01  00002PRCP99
0137561460999992000021509004+31620+100000FM-12+339499999V0202701N005010150019N0300001N1+00131-00771999999ADDGF106991051091017501001021MA1999999066961MD1210041+0061REMSYN070AAXX  15091 56146 42780 62705 10013 21077 36696 52004 85902 333 00662;
0197561460999992000021512004+31620+100000FM-12+339499999V0200901N001010150019N0300001N1-00131-00721999999ADDAA106000791AY181061GF107991061091017501001021MA1999999067141MD1210181+0701MW1001OA130602501REMSYN094AAXX  15121 56146 11780 70901 11013 21072 36714 52018 69901 70080 86902 333 00759 91125 91527;
0127561460999992000021515004+31620+100000FM-12+339499999V0209999C000012200019N0300001N1-00181-00821999999ADDGF104991021041017501001021MA1999999067281MD1210141+9999REMSYN060AAXX  15151 56146 42780 40000 11018 21082 36728 52014 82402;
0164561460999992000021518004+31620+100000FM-12+339499999V0203601N001012200019N0300001N1-00821-01301999999ADDAA124000791GA1001+999999999GF100991001001999999001001MA1999999067341MD1710031+0301REMSYN070AAXX  15181 56146 42980 03601 11082 21130 36734 57003 333 00352 79999;
0164561460999992000021600004+31620+100000FM-12+339499999V0203201N001012200019N0300001N1-01051-01411999999ADDAA124000791GA1001+999999999GF100991001001999999001001MA1999999067461MD1210121+0401REMSYN070AAXX  16001 56146 32980 03201 11105 21141 36746 52012 333 00453 79999;
0137561460999992000021603004+31620+100000FM-12+339499999V0209999C000012200019N0300001N1-00251-01091999999ADDGA1001+999999999GF100991001001999999001001MA1999999067591MD1210131+9999REMSYN054AAXX  16031 56146 42980 00000 11025 21109 36759 52013;
0167561460999992000021612004+31620+100000FM-12+339499999V0209999C000012200019N0300001N1+00151-01901999999ADDAA199000091GF104991011041017501001021MA1999999066771MD1710061+0041REMSYN070AAXX  16121 56146 32780 40000 10015 21190 36677 57006 81402 333 05403;EQDQ01  00002PRCP99
0127561460999992000021615004+31620+100000FM-12+339499999V0203601N003010900019N0300001N1+00241-01451999999ADDGF107991041041017501001021MA1999999066741MD1710031+9999REMSYN060AAXX  16151 56146 42780 73603 10024 21145 36674 57003 84402;
0186561460999992000021618004+31620+100000FM-12+339499999V0200401N001010900019N0300001N1+00301-01361999999ADDAA199000091GF106991021041022501001021KA1999M+00971MA1999999066651MD1710091-0701REMSYN076AAXX  16181 56146 32880 60401 10030 21136 36665 57009 82402 333 05708 10097;EQDQ01  00002PRCP99
0137561460999992000021621004+31620+100000FM-12+339499999V0202701N006012200019N0300001N1+00361-01611999999ADDGF104991041041022501001021MA1999999066681MD1210031+0071REMSYN070AAXX  16211 56146 42880 42706 10036 21161 36668 52003 84402 333 05712;
0167561460999992000021700004+31620+100000FM-12+339499999V0200201N002010150019N0300001N1+00001-01981999999ADDAA199000091GF107991061041017501001021MA1999999066711MD1210031+0081REMSYN070AAXX  17001 56146 32780 70202 10000 21198 36671 52003 86402 333 05811;EQDQ01  00002PRCP99
0127561460999992000021703004+31620+100000FM-12+339499999V0209999C000012200019N0300001N1+00571-01371999999ADDGF103991011011017501001021MA1999999066721MD1210011+9999REMSYN060AAXX  17031 56146 42780 30000 10057 21137 36672 52001 81102;
0186561460999992000021706004+31620+100000FM-12+339499999V0202001N003010900019N0300001N1+00801-01951999999ADDAA199000091GF106991031091017501001021KA1999N-00071MA1999999066321MD1710401-0901REMSYN076AAXX  17061 56146 32780 62003 10080 21195 36632 57040 83902 333 05903 21007;EQDQ01  00002PRCP99
0137561460999992000021709004+31620+100000FM-12+339499999V0203401N003010150019N0300001N1+00701-01811999999ADDGF107991071091017501999999MA1999999066101MD1710221+0071REMSYN070AAXX  17091 56146 42780 73403 10070 21181 36610 57022 879// 333 05752;
0167561460999992000021712004+31620+100000FM-12+339499999V0202501N003010150019N0300001N1+00461-01701999999ADDAA199000091GF107991071091017501999999MA1999999066191MD1210091+0061REMSYN070AAXX  17121 56146 32780 72503 10046 21170 36619 52009 879// 333 05603;EQDQ01  00002PRCP99
0127561460999992000021715004+31620+100000FM-12+339499999V0201801N008012200019N0300001N1+00451-01901999999ADDGF102991021091017501001021MA1999999066391MD1210201+9999REMSYN060AAXX  17151 56146 42780 21808 10045 21190 36639 52020 82902;
