0255612140999992000010106004+18430+001350FM-12+0459GAKL V0209999C000019999999N0150001N1+02901-00801100981ADDAA106000091GA1011+045009039GF107991011001999999041021IA2240+01009KA1120N+01901MA1999999095831MD1999999-0051OA150600411REMSYN106AAXX  01064 61214 32965 70000 10290 21080 39583 40098 81042 333 01000 20190 50854 55083 59005 81365 87075;EQDQ01  00002PRCP06
0153612140999992000010112004+18430+001350FM-12+0459GAKL V0200801N002119999999N0150001N1+02651-00331101101ADDAA106000091MA1999999095961MD1999999+0111REMSYN082AAXX  01124 61214 3/965 /0804 10265 21033 39596 40110 80002 333 0//00 58011 8/075;EQDQ01  00002PRCP06
0233612140999992000010206004+18430+001350FM-12+0459GAKL V0209999C000019999999N0150001N1+01921+00741101151ADDAA106000091GF107991051001999999041021IA2240+01309KA1120N+01901MA1999999095991MD1999999+0161OA150600051REMSYN100AAXX  02064 61214 32965 70000 10192 20074 39599 40115 85042 333 01300 20190 50884 55014 58016 85365;EQDQ01  00002PRCP06
0194612140999992000010209004+18430+001350FM-12+0459GAKL V0209999C000010450019N0150001N1+02231+00501101331ADDGA1071+045009019GF107991071001999999071999MA1999999096782MD1999999+0171REMSYN076AAXX  02094 61214 42965 70000 10223 20050 39678 40133 87070 333 58017 87465;EQDQ01+000002SCOHCGQ02+096783APOSP 
0178612140999992000010309004+18430+001350FM-12+0459GAKL V0209999C000010450019N0150001N1+01801+01181101451ADDGA1071+045009019GF107991071001999999071999MA1999999096221MD1999999+0051REMSYN076AAXX  03094 61214 42965 70000 10180 20118 39622 40145 87070 333 58005 87465;EQDQ01+000002SCOHCG
0222612140999992000010406004+18430+001350FM-12+0459GAKL V0203601N002119999999N0150001N1+01501+99999101201ADDAA106000091GF106991061001999999071001IA2240+01309KA1120N+01501MD1999999-0151OA150699999REMSYN088AAXX  04064 61214 32965 63604 10150 40120 86070 333 01300 20150 50304 55016 59015 86465;EQDQ01  00002PRCP06Q02  00052WGOSPD
0159612140999992000010409004+18430+001350FM-12+0459GAKL V0200401N006210450019N0150001N1+01851+00561101361ADDGA1061+045009079GF106991041001999999041001MA1999999096141MD1999999-0071REMSYN076AAXX  04094 61214 42965 60412 10185 20056 39614 40136 84040 333 59007 86365;
0233612140999992000010506004+18430+001350FM-12+0459GAKL V0200201N002119999999N0150001N1+01651+01171101181ADDAA106000091GF108991081001999999071999IA2240+01209KA1120N+01601MA1999999095971MD1999999+0001OA150600411REMSYN100AAXX  05064 61214 32965 80204 10165 20117 39597 40118 8807/ 333 01200 20160 50854 55081 58000 88465;EQDQ01  00002PRCP06
0194612140999992000010509004+18430+001350FM-12+0459GAKL V0200801N003110360019N0150001N1+01701-00542101381ADDGA1081+036009019GF108991081001999999071999MA1999999096612MD1999999+0021REMSYN076AAXX  05094 61214 42965 80806 10170 21054 39661 40138 8807/ 333 58002 88462;EQDQ01-000543ATOD  Q02+096613APOSP 
0249612140999992000010606004+18430+001350FM-12+0459GAKL V02099999999992200019N0150001N1+01201+00321101261ADDAA106000091GF104991041001999999041001IA2240+01109KA1120N+01201MA1999999095971MD1999999+0001OA150699999REMSYN100AAXX  06064 61214 32965 40/00 10120 20032 39597 40126 84040 333 01100 20120 50804 55000 58000 84365;EQDQ01  00002PRCP06Q02  00002WGOSPD
0212612140999992000010706004+18430+001350FM-12+0459GAKL V0200401N002119999999N0150001N1+99999+99999101241ADDAA106000091GF107991071001999999071001IA2240+00909KA1120N+01651MD1999999+0071OA150600511REMSYN094AAXX  07064 61214 32965 70404 10/70 21022 40124 87070 333 00900 20165 50754 55107 58007 87465;EQDQ01  00002PRCP06
0159612140999992000010709004+18430+001350FM-12+0459GAKL V0200401N005110450019N0150001N1+01951-00241101501ADDGA1061+045009079GF106991061001999999041001MA1999999096291MD1999999+0141REMSYN076AAXX  07094 61214 42965 60410 10195 21024 39629 40150 86040 333 58014 86365;
0178612140999992000010809004+18430+001350FM-12+0459GAKL V0200401N006210450019N0150001N1+01821-00351999999ADDGA1071+045009019GF107991071001999999071999MA1999999096281MD1999999+0041REMSYN076AAXX  08094 61214 42965 70412 10182 21035 39628 4/153 87070 333 58004 87465;EQDQ01+000002SCOHCG
0159612140999992000010909004+18430+001350FM-12+0459GAKL V0200401N006219999999N0150001N1+01881+00081101701ADDGA1041+045009079GF105991041001999999041001MA1999999096251MD1999999-0051REMSYN076AAXX  09094 61214 42965 50412 10188 20008 39625 40170 84040 333 59005 84365;
0255612140999992000011006004+18430+001350FM-12+0459GAKL V0200801N005119999999N0150001N1+01281+01041101451ADDAA124000591GF107991999001999999071001IA2240+01209KA1120N+01251MA1999999096171MD1999999+0101OA150699999REMSYN106AAXX  10064 61214 12965 70810 10128 20104 39617 40145 69944 86070 333 01200 20125 50754 55082 58010 86465;EQDQ01+000062SCOTLCQ02  00412WGOSPD
0129612140999992000011009004+18430+001350FM-12+0459GAKL V0200801N005119999999N0150001N1+01521+01021101591ADDGF105991041001999999041021IA1279MA1999999096291REMSYN070AAXX  10094 61214 42965 50810 10152 20102 39629 40159 84042 333 4365/;
0221612140999992000011106004+18430+001350FM-12+0459GAKL V0200801N003119999999N0150001N1+01701+00961101421ADDAA124000791GF108991081001999999071999KA1120N+01601MA1999999096091MD1999999-0081OA150699999REMSYN100AAXX  11064 61214 12965 80806 10170 20096 39609 40142 69904 8807/ 333 20160 504/4 55040 59008 88465;EQDQ01  00212WGOSPD
0159612140999992000011109004+18430+001350FM-12+0459GAKL V0200801N004119999999N0150001N1+01901+00981101451ADDGA1041+045009079GF105991041001999999041021MA1999999096221MD1999999-0071REMSYN076AAXX  11094 61214 42965 50808 10190 20098 39622 40145 84042 333 59007 84365;
0211612140999992000011112004+18430+001350FM-12+0459GAKL V0200801N005110450019N0150001N1+02301+00561101351ADDAA106000091GA1071+045009019GF107991071001999999071999MA1999999096151MD1999999+0001REMSYN082AAXX  11124 61214 32965 70810 10230 20056 39615 40135 87070 333 0//00 58000 87465;EQDQ01+000002SCOHCGQ02  00002PRCP06
0255612140999992000011206004+18430+001350FM-12+0459GAKL V0209999C000012200019N0150001N1+01451+01181101211ADDAA106000091GA1011+045009039GF103991011001999999041021IA2240+01409KA1120N+01421MA1999999095981MD1999999-0111OA150600211REMSYN106AAXX  12064 61214 32965 30000 10145 20118 39598 40121 81042 333 01400 20142 50604 55046 59011 81365 83075;EQDQ01  00002PRCP06
0123612140999992000011209004+18430+001350FM-12+0459GAKL V0200401N006219999999N0150001N1+01841+01201101441ADDGF106991061001999999041001MA1999999096201REMSYN070AAXX  12094 61214 42965 60412 10184 20120 39620 40144 86040 333 5900/;
0233612140999992000011306004+18430+001350FM-12+0459GAKL V0200401N002112200019N0150001N1+01501-00151101001ADDAA106000091GF104991031001999999041021IA2240+01209KA1120N+01401MA1999999095821MD1999999-0161OA150600411REMSYN100AAXX  13064 61214 32965 40404 10150 21015 39582 40100 83042 333 01200 20140 50654 55089 59016 83365;EQDQ01  00002PRCP06
0195612140999992000011312004+18430+001350FM-12+0459GAKL V0200401N003112200019N0150001N1+02401-00191101071ADDAA106000091GA1021+045009079GF102991021001999999041001MA1999999095911MD1999999-0091REMSYN082AAXX  13124 61214 32965 20406 10240 21019 39591 40107 82040 333 0//00 59009 82365;EQDQ01  00002PRCP06
0217612140999992000011406004+18430+001350FM-12+045999999V0200401N002112200019N0150001N1+01001-00561101241ADDAA199000091GF101991001001999999001021IA2240+01309KA1120N+00951MA1999999095961OA150600461REMSYN098    AAXX  14064 61214 32965 10404 10100 21056 39596 40124 80002 333 01300 20095 50904 55099 59014;EQDQ01  00002PRCP99
0151612140999992000011409004+18430+001350FM-12+045999999V0200401N003112200019N0150001N1+01541-00221101251ADDGA1001+999999999GF100991001001999999001001MA1999999095991MD1999999-0041REMSYN068    AAXX  14094 61214 42965 00406 10154 21022 39599 40125 333 59004;
0237612140999992000011506004+18430+001350FM-12+045999999V0200401N001012200019N0150001N1+01121-00171101111ADDAA199000091GF101991001001999999001021IA2240+00009KA1120N+01101MA1999999095861MD1999999-0101OA150600571REMSYN104    AAXX  15064 61214 32965 10402 10112 21017 39586 40111 80002 333 00080 20110 50554 55110 59010 81075;EQDQ01  00002PRCP99
0151612140999992000011509004+18430+001350FM-12+045999999V0200401N005112200019N0150001N1+01711+00461101201ADDGA1001+999999999GF100991001001999999001001MA1999999095971MD1999999-0021REMSYN068    AAXX  15094 61214 42965 00410 10171 20046 39597 40120 333 59002;
0237612140999992000011606004+18430+001350FM-12+045999999V0209999C000012200019N0150001N1+01401+00001101181ADDAA199000091GF101991001001999999001021IA2240+00009KA1120N+01401MA1999999095981MD1999999-0101OA150600511REMSYN104    AAXX  16064 61214 32965 10000 10140 20000 39598 40118 80002 333 00090 20140 50654 55107 59010 81075;EQDQ01  00002PRCP99
0198612140999992000011609004+18430+001350FM-12+045999999V0200801N005112200019N0150001N1+02181-00081101401ADDGA1041+075009019GF199999001001999999001021MA1999999095212MD1999999+0241REMSYN080    AAXX  16094 61214 42965 10810 10218 21008 39521 40140 80002 333 58024 84075;EQDQ01+000012SCOTCVQ02+095213APOSP 
0211612140999992000011706004+18430+001350FM-12+045999999V0209999C000019999999N0150001N1+01701+00461101231ADDAA199000091GF105991999999999999999999IA2240+01209KA1120N+01701MA1999999096071OA150600511REMSYN092    AAXX  17064 61214 32965 50000 10170 20046 39607 40123 333 01200 20170 50904 55107 58009;EQDQ01  00002PRCP99
0151612140999992000011709004+18430+001350FM-12+045999999V0209999C000012200019N0150001N1+02301+00261101111ADDGA1001+999999999GF100991001001999999001001MA1999999096271MD1999999+0061REMSYN068    AAXX  17094 61214 42965 00000 10230 20026 39627 40111 333 58006;
0227612140999992000011806004+18430+001350FM-12+045999999V0200401N002112200019N0150001N1+01701+00001101181ADDAA199000091GA1001+999999999GF100991001001999999001001IA2240+01209KA1120N+01701MA1999999096031OA150600511REMSYN092    AAXX  18064 61214 32965 00404 10170 20000 39603 40118 333 01200 20170 50704 55100 59004;EQDQ01  00002PRCP99
0163612140999992000011809004+18430+001350FM-12+045999999V0200401N002112200019N0150001N1+02401-00051101341ADDGA1011+075009019GF101991001001999999001021MA1999999096211MD1999999-0061REMSYN080    AAXX  18094 61214 42965 10404 10240 21005 39621 40134 80002 333 59006 81075;
0218612140999992000011818004+18430+001350FM-12+045999999V0209999C000012200019N0150001N1+03041+00231100971ADDAA199000091GA1011+045009079GF101991011001999999041001KA1120M+03301MA1999999095831MD1999999-0161REMSYN092    AAXX  18184 61214 32965 10000 10304 20023 39583 40097 81040 333 0//00 10330 59016 81365;EQDQ01  00002PRCP99
0237612140999992000011906004+18430+001350FM-12+045999999V0209999C000012200019N0150001N1+01901-00151101001ADDAA199000091GF103991031001999999041001IA2240+01409KA1120N+01851MA1999999095881MD1999999-0151OA150600511REMSYN104    AAXX  19064 61214 32965 30000 10190 21015 39588 40100 83040 333 01400 20185 50824 55106 59015 83365;EQDQ01  00002PRCP99
0163612140999992000011909004+18430+001350FM-12+045999999V0209999C000012200019N0150001N1+02421-00281101201ADDGA1011+045009079GF101991011001999999041001MA1999999096081MD1999999-0131REMSYN080    AAXX  19094 61214 42965 10000 10242 21028 39608 40120 81040 333 59013 81365;
0187612140999992000011912004+18430+001350FM-12+045999999V0200801N002112200019N0150001N1+03141-00131101071ADDAA199000091GA1001+999999999GF100991001001999999001001MA1999999095981MD1999999+0041REMSYN074    AAXX  19124 61214 32965 00804 10314 21013 39598 40107 333 0//00 58004;EQDQ01  00002PRCP99
0147612140999992000012006004+18430+001350FM-12+0459GAKL V0200401N002112200019N0150001N1+02401-00351101341ADDGA1001+999999999GF100991001001999999001001MA1999999096211MD1999999+0131REMSYN064AAXX  20064 61214 42965 00404 10240 21035 39621 40134 333 58013;
0233612140999992000012106004+18430+001350FM-12+0459GAKL V0209999C000012200019N0150001N1+01741-00101101081ADDAA199000091GF101991001001999999001021IA2240+01509KA1120N+01741MA1999999095961MD1999999-0021OA150600511REMSYN100AAXX  21064 61214 32965 10000 10174 21010 39596 40108 80002 333 01500 20174 50854 55104 59002 81075;EQDQ01  00002PRCP99
0144612140999992000012109004+18430+001350FM-12+0459GAKL V0200801N003112200019N0150001N1+02461-00221101241ADDGA1021+075009019GF102991001001999999001021MD1999999-0061REMSYN076AAXX  21094 61214 42965 20806 10246 21022 3/615 40124 80002 333 59006 82075;
0195612140999992000012112004+18430+001350FM-12+0459GAKL V0200801N003112200019N0150001N1+03301-00191101091ADDAA199000091GA1031+045009079GF103991031001999999041021MA1999999096031MD1999999+0001REMSYN082AAXX  21124 61214 32965 30806 10330 21019 39603 40109 83042 333 0//00 58000 83365;EQDQ01  00002PRCP99
0143612140999992000012115004+18430+001350FM-12+0459GAKL V0200801N002112200019N0150001N1+03481-00061100891ADDGF104991011001999999041021MA1999999095831MD1999999-0071REMSYN076AAXX  21154 61214 42965 40804 10348 21006 39583 40089 81042 333 59007 816/8;
0143612140999992000012209004+18430+001350FM-12+0459GAKL V0209999C000019999999N0150001N1+02451-00361101241ADDGF105991051001999999041001MA1999999096151MD1999999+0001REMSYN076AAXX  22094 61214 42965 50000 10245 21036 39615 40124 85040 333 58000 8565/;
0195612140999992000012212004+18430+001350FM-12+0459GAKL V0200401N002110450019N0150001N1+03261+00281101061ADDAA199000091GA1051+045009079GF105991051001999999041001MA1999999096001MD1999999-0031REMSYN082AAXX  22124 61214 32965 50404 10326 20028 39600 40106 85040 333 0//00 59003 85365;EQDQ01  00002PRCP99
0233612140999992000012306004+18430+001350FM-12+0459GAKL V0203601N003119999999N0150001N1+02001-00801100961ADDAA199000091GF105991031001999999041021IA2240+01809KA1120N+01951MA1999999095871MD1999999-0081OA150600461REMSYN100AAXX  23064 61214 32965 53606 10200 21080 39587 40096 83042 333 01800 20195 51024 55090 59008 83365;EQDQ01  00002PRCP99
0159612140999992000012309004+18430+001350FM-12+0459GAKL V0203601N002119999999N0150001N1+02401-00801101121ADDGA1031+045009079GF105991031001999999041021MA1999999096011MD1999999-0141REMSYN076AAXX  23094 61214 42965 53604 10240 21080 39601 40112 83042 333 59014 83365;
0212612140999992000012406004+18430+001350FM-12+0459GAKL V0209999C000019999999N0150001N1+01701-00541101051ADDAA199000091GF105991051001999999041001IA2240+00109KA1120N+01651MD1999999+0051OA150600511REMSYN094AAXX  24064 61214 32965 50000 10170 21054 40105 85040 333 00170 20165 50124 55107 58005 85365;EQDQ01  00002PRCP99
0159612140999992000012409004+18430+001350FM-12+0459GAKL V02099999999992200019N0150001N1+02351-00601101151ADDGA1011+045009079GF101991011001999999041001MA1999999096081MD1999999+0071REMSYN076AAXX  24094 61214 42965 100/0 10235 21060 39608 40115 81040 333 58007 81365;
0159612140999992000012509004+18430+001350FM-12+0459GAKL V0209999C000012200019N0150001N1+02301-00101101371ADDGA1041+045009079GF104991041001999999041001MA1999999096241MD1999999+0161REMSYN076AAXX  25094 61214 42965 40000 10230 21010 39624 40137 84040 333 58016 84365;
0159612140999992000012609004+18430+001350FM-12+0459GAKL V0200601N006212200019N0150001N1+02651+00261101471ADDGA1021+075009019GF102991001001999999001021MA1999999096371MD1999999+0131REMSYN076AAXX  26094 61214 42965 20612 10265 20026 39637 40147 80002 333 58013 82075;
0233612140999992000012706004+18430+001350FM-12+0459GAKL V0209999C000012200019N0150001N1+02001+00641101441ADDAA199000091GF102991001001999999001021IA2240+01509KA1120N+02001MA1999999096311MD1999999+0171OA150600511REMSYN100AAXX  27064 61214 32965 20000 10200 20064 39631 40144 80002 333 01500 20200 51284 55101 58017 82075;EQDQ01  00002PRCP99
0159612140999992000012709004+18430+001350FM-12+0459GAKL V0200401N008212200019N0150001N1+02741+00231101581ADDGA1021+045009079GF103991021001999999041021MA1999999096471MD1999999+0101REMSYN076AAXX  27094 61214 42965 30416 10274 20023 39647 40158 82042 333 58010 82365;
0159612140999992000012715004+18430+001350FM-12+0459GAKL V0200801N003112200019N0150001N1+03551+00041101121ADDGA1031+075009019GF103991001001999999001021MA1999999096071MD1999999+0021REMSYN076AAXX  27154 61214 42965 30806 10355 20004 39607 40112 80002 333 58002 83075;
0233612140999992000012806004+18430+001350FM-12+0459GAKL V0200801N002112200019N0150001N1+02201+00001101391ADDAA199000091GF101991001001999999001021IA2240+01409KA1120N+02151MA1999999096261MD1999999-0051OA150600511REMSYN100AAXX  28064 61214 32965 10804 10220 20000 39626 40139 80002 333 01400 20215 51654 55102 59005 81075;EQDQ01  00002PRCP99
0159612140999992000012809004+18430+001350FM-12+0459GAKL V0200401N007212200019N0100001N1+02651-00301101571ADDGA1021+075009019GF102991001001999999001021MA1999999096431MD1999999-0031REMSYN076AAXX  28094 61214 42960 20414 10265 21030 39643 40157 80002 333 59003 82075;
0233612140999992000012906004+18430+001350FM-12+0459GAKL V0209999C000012200019N0150001N1+01801-00151101621ADDAA199000091GF102991001001999999001021IA2240+01909KA1120N+01801MA1999999096461MD1999999+0201OA150600461REMSYN100AAXX  29064 61214 32965 20000 10180 21015 39646 40162 80002 333 01900 20180 51724 55095 58020 82075;EQDQ01  00002PRCP99
0195612140999992000012912004+18430+001350FM-12+0459GAKL V0200801N006212200019N0150001N1+02761-00541101661ADDAA199000091GA1011+075009019GF101991001001999999001021MA1999999096531MD1999999+0331REMSYN082AAXX  29124 61214 32965 10812 10276 21054 39653 40166 80002 333 0//00 58033 81075;EQDQ01  00002PRCP99
0147612140999992000013009004+18430+001350FM-12+0459GAKL V0209999C000012200019N0150001N1+02461-00131101721ADDGA1001+999999999GF100991001001999999001001MA1999999096571MD1999999+0011REMSYN064AAXX  30094 61214 42965 00000 10246 21013 39657 40172 333 58001;
0249612140999992000013106004+18430+001350FM-12+0459GAKL V0200801N008212200019N0150001N1+01701-00541101671ADDAA199000091GF101991001001999999001021IA2240+01509KA1120N+01701MA1999999096491MD1999999+0121OA150699999REMSYN100AAXX  31064 61214 32965 10816 10170 21054 39649 40167 80002 333 01500 20170 50124 55100 58012 81075;EQDQ01  00002PRCP99Q02  00512WGOSPD
0175612140999992000013109004+18430+001350FM-12+0459GAKL V0200801N009812200019N0060001N1+02001-00801101921ADDAY101031AY201031GA1001+999999999GF100991001001999999001001MA1999999096721MD1999999+0151MW1071REMSYN070AAXX  31094 61214 41956 00819 10200 21080 39672 40192 70700 333 58015;
0271612140999992000020106004+18430+001350FM-12+0459GAKL V0200801N008212200019N0060001N1+01401-00731102141ADDAA199000091AY101061AY201061GF103991999999999999999999IA2240+01309KA1120N+01401MA1999999096871MD1999999+0381MW1071OA150699999REMSYN100AAXX  01064 61214 31956 30816 10140 21073 39687 40214 70700 333 01300 20140 51654 55045 58038 83075;EQDQ01  00002PRCP99Q02  00212WGOSPD
0187612140999992000020109004+18430+001350FM-12+0459GAKL V0200401N010812200019N0040001N1+01751-00671102351ADDAY101031AY201031GA1031+075009019GF103991001001999999001021MA1999999097081MD1999999+0361MW1071REMSYN082AAXX  01094 61214 41940 30421 10175 21067 39708 40235 70700 80002 333 58036 83075;
0147612140999992000020209004+18430+001350FM-12+0459GAKL V0200801N010812200019N0100001N1+01741-00071102291ADDGA1001+999999999GF100991001001999999001001MA1999999097001MD1999999-0071REMSYN064AAXX  02094 61214 42960 00821 10174 21007 39700 40229 333 59007;
0223612140999992000020306004+18430+001350FM-12+0459GAKL V0209999C000012200019N0100001N1+01121-00151101891ADDAA199000091GA1001+999999999GF100991001001999999001001IA2240+00409KA1120N+01101MA1999999096601OA150600461REMSYN088AAXX  03064 61214 32960 00000 10112 21015 39660 40189 333 00400 20110 51004 55096 59031;EQDQ01  00002PRCP99
0147612140999992000020309004+18430+001350FM-12+0459GAKL V0200801N008212200019N0150001N1+01761-00231102061ADDGA1001+999999999GF100991001001999999001001MA1999999096791MD1999999-0211REMSYN064AAXX  03094 61214 42965 00816 10176 21023 39679 40206 333 59021;
0223612140999992000020406004+18430+001350FM-12+0459GAKL V0203601N002112200019N0150001N1+01101-00461101761ADDAA199000091GA1001+999999999GF100991001001999999001001IA2240+00709KA1120N+01051MA1999999096481OA150600511REMSYN088AAXX  04064 61214 32965 03604 10110 21046 39648 40176 333 00700 20105 50904 55105 59012;EQDQ01  00002PRCP99
0147612140999992000020409004+18430+001350FM-12+0459GAKL V0200401N003112200019N0150001N1+01851-00401102081ADDGA1001+999999999GF100991001001999999001001MA1999999096721MD1999999-0091REMSYN064AAXX  04094 61214 42965 00406 10185 21040 39672 40208 333 59009;
0233612140999992000020506004+18430+001350FM-12+0459GAKL V0209999C000012200019N0150001N1+01101-00801101681ADDAA199000091GF102991001001999999001021IA2240+00609KA1120N+01101MA1999999096421MD1999999-0061OA150600571REMSYN100AAXX  05064 61214 32965 20000 10110 21080 39642 40168 80002 333 00600 20110 51104 55111 59006 82075;EQDQ01  00002PRCP99
0159612140999992000020509004+18430+001350FM-12+0459GAKL V0200801N003112200019N0150001N1+02121-00801101821ADDGA1031+075009019GF103991001001999999001021MA1999999096601MD1999999-0121REMSYN076AAXX  05094 61214 42965 30806 10212 21080 39660 40182 80002 333 59012 83075;
0159612140999992000020609004+18430+001350FM-12+0459GAKL V0200801N003112200019N0150001N1+01961-00701101871ADDGA1031+075009019GF103991001001999999001021MA1999999096641MD1999999+0041REMSYN076AAXX  06094 61214 42965 30806 10196 21070 39664 40187 80002 333 58004 83075;
0213612140999992000020706004+18430+001350FM-12+0459GAKL V0200401N003112200019N9999999N1+01351-00221101851ADDAA199000091GF104991031001999999041021IA2240+00709KA1120N+01351MA1999999096601OA150600461REMSYN094AAXX  07064 61214 3296/ 40406 10135 21022 39660 40185 83042 333 00700 20135 51/54 55099 580/3;EQDQ01  00002PRCP99
0193612140999992000020709004+18430+001350FM-12+0459GAKL V0200801N008712200019N0080001N1+02051-00121102061ADDAY101031AY201031GA1021+045009039GF104991021001999999041021MA1999999096821MD1999999+0131MW1071REMSYN088AAXX  07094 61214 41958 40817 10205 21012 39682 40206 70700 82042 333 58013 82365 83075;
0233612140999992000021006004+18430+001350FM-12+0459GAKL V0209999C000012200019N0150001N1+01001-00461101871ADDAA199000091GF103991001001999999001021IA2240+00909KA1120N+01001MA1999999096571MD1999999+0151OA150600461REMSYN100AAXX  10064 61214 32965 30000 10100 21046 39657 40187 80002 333 00900 20100 51004 55097 58015 83075;EQDQ01  00002PRCP99
0159612140999992000021009004+18430+001350FM-12+0459GAKL V0200801N006212200019N0150001N1+01701-00541101941ADDGA1041+075009019GF104991001001999999001021MA1999999096671MD1999999-0011REMSYN076AAXX  10094 61214 42965 40812 10170 21054 39667 40194 80002 333 59001 84075;
0147612140999992000021109004+18430+001350FM-12+0459GAKL V0200801N006212200019N0150001N1+01801-00691101881ADDGA1001+999999999GF100991001001999999001001MA1999999096631MD1999999-0041REMSYN064AAXX  11094 61214 42965 00812 10180 21069 39663 40188 333 59004;
0239612140999992000021206004+18430+001350FM-12+0459GAKL V02099999999992200019N0150001N1+01101-00801101671ADDAA199000091GA1001+999999999GF100991001001999999001001IA2240+00709KA1120N+01101MA1999999096401OA150699999REMSYN088AAXX  12064 61214 32965 004/4 10110 21080 39640 40167 333 00700 20110 51024 55111 59004;EQDQ01  00002PRCP99Q02  00572WGOSPD
0159612140999992000021209004+18430+001350FM-12+0459GAKL V0200401N003112200019N0150001N1+02081-00501101711ADDGA1011+075009019GF101991001001999999001021MA1999999096481MD1999999-0151REMSYN076AAXX  12094 61214 42965 10406 10208 21050 39648 40171 80002 333 59015 81075;
0233612140999992000021406004+18430+001350FM-12+0459GAKL V0209999C000012200019N0150001N1+01101-00801101631ADDAA199000091GF102991021001999999041001IA2240+00809KA1120N+01101MA1999999096361MD1999999-0031OA150600511REMSYN100AAXX  14064 61214 32965 20000 10110 21080 39636 40163 82040 333 00800 20110 51144 55100 59003 82365;EQDQ01  00002PRCP99
0159612140999992000021409004+18430+001350FM-12+0459GAKL V0200401N006212200019N0150001N1+01881-00801101701ADDGA1021+045009079GF103991021001999999041021MA1999999096451MD1999999-0181REMSYN076AAXX  14094 61214 42965 30412 10188 21080 39645 40170 82042 333 59018 82365;
0159612140999992000021509004+18430+001350FM-12+0459GAKL V0200401N007210750019N0150001N1+02001-00801101721ADDGA1061+075009019GF106991001001999999001021MA1999999096501MD1999999-0051REMSYN076AAXX  15094 61214 42965 60414 10200 21080 39650 40172 80002 333 59005 86075;
0223612140999992000021700004+18430+001350FM-12+0459GAKL V0209999C000012200019N0150001N1+01151-00601101561ADDAA199000091GA1001+999999999GF100991001001999999001001IA2240+00709KA1120N+01101MA1999999096311OA150600571REMSYN088AAXX  18064 61214 32965 00000 10115 21060 39631 40156 333 00700 20110 51004 55111 59011;EQDQ01  00002PRCP99
0223612140999992000021706004+18430+001350FM-12+0459GAKL V0209999C000012200019N0150001N1+01201-00701101671ADDAA199000091GA1001+999999999GF100991001001999999001001IA2240+00909KA1120N+01201MA1999999096421OA150600571REMSYN088AAXX  17064 61214 32965 00000 10120 21070 39642 40167 333 00900 20120 51204 55110 58007;EQDQ01  00002PRCP99
0147612140999992000021709004+18430+001350FM-12+0459GAKL V0200401N005112200019N0150001N1+02001-00801101701ADDGA1001+999999999GF100991001001999999001001MA1999999096471MD1999999-0081REMSYN064AAXX  17094 61214 42965 00410 10200 21080 39647 40170 333 59008;
0127612140999992000021809004+18430+001350FM-12+0459GAKL V02099999999992200019N0150001N1+02241-00801101831ADDGA1001+999999999GF100991001001999999001001MA1999999096611REMSYN058AAXX  18094 61214 42965 0041/ 10224 21080 39661 40183 333;
0207612140999992000021906004+18430+001350FM-12+0459GAKL V0209999C000012200019N0150001N1+01201-00801101591ADDAA199000091GF101991999999999999999999IA2240+00709KA1120N+01201MA1999999096351OA150600571REMSYN088AAXX  19064 61214 32965 10000 10120 21080 39635 40159 333 00700 20120 51104 55112 58004;EQDQ01  00002PRCP99
0233612140999992000022006004+18430+001350FM-12+0459GAKL V0209999C000012200019N0150001N1+01301-00801101511ADDAA199000091GF102991001001999999001021IA2240+00709KA1120N+01301MA1999999096291MD1999999-0061OA150600621REMSYN100AAXX  20064 61214 32965 20000 10130 21080 39629 40151 80002 333 00700 20130 55120 55110 59006 82075;EQDQ01  00002PRCP99
0159612140999992000022009004+18430+001350FM-12+0459GAKL V0200401N005112200019N0150001N1+02151-00801101561ADDGA1011+075009019GF101991001001999999001021MA1999999096301MD1999999-0181REMSYN076AAXX  20094 61214 42965 10410 10215 21080 39630 40156 80002 333 59018 81075;
0195612140999992000022112004+18430+001350FM-12+0459GAKL V0200401N002112200019N0150001N1+02901-00801101371ADDAA199000091GA1031+045009079GF103991021001999999041021MA1999999096241MD1999999+0081REMSYN082AAXX  21124 61214 32965 30404 10290 21080 39624 40137 82042 333 0//00 58008 83365;EQDQ01  00002PRCP99
0233612140999992000022206004+18430+001350FM-12+0459GAKL V0209999C000012200019N0150001N1+01651-00801101361ADDAA199000091GF101991011001999999041001IA2240+01109KA1120N+01601MA1999999096191MD1999999+0081OA150600511REMSYN100AAXX  22064 61214 32965 10000 10165 21080 39619 40136 81040 333 01100 20160 51034 55100 58008 81365;EQDQ01  00002PRCP99
0159612140999992000022209004+18430+001350FM-12+0459GAKL V0200401N004112200019N0150001N1+02501-00801101531ADDGA1011+075009019GF101991001001999999001021MA1999999096371MD1999999+0041REMSYN076AAXX  22094 61214 42965 10408 10250 21080 39637 40153 80002 333 58004 81075;
0233612140999992000022306004+18430+001350FM-12+0459GAKL V0209999C000019999999N0150001N1+01701-00801101251ADDAA199000091GF106991061001999999041001IA2240+01209KA1120N+01701MA1999999096111MD1999999-0081OA150600571REMSYN100AAXX  23064 61214 32965 60000 10170 21080 39611 40125 86040 333 01200 20170 51354 55110 59008 86365;EQDQ01  00002PRCP99
0159612140999992000022309004+18430+001350FM-12+0459GAKL V0200401N003110450019N0150001N1+02401-00801101391ADDGA1051+045009079GF105991051001999999041001MA1999999096261MD1999999-0111REMSYN076AAXX  23094 61214 42965 50406 10240 21080 39626 40139 85040 333 59011 85365;
0159612140999992000022509004+18430+001350FM-12+0459GAKL V0200401N006212200019N0150001N1+02501-00801101381ADDGA1011+045009079GF101991011001999999041001MA1999999096251MD1999999+0011REMSYN076AAXX  25094 61214 42965 10412 10250 21080 39625 40138 81040 333 58001 81365;
0267612140999992000022606004+18430+001350FM-12+0459GAKL V0200801N006212200019N0080001N1+01521-00801101671ADDAA199000091AY101061AY201061GA1001+999999999GF100991001001999999001001IA2240+01409KA1120N+01521MA1999999096461MW1061OA150699999REMSYN094AAXX  26064 61214 31958 00812 10152 21080 39646 40167 70600 333 01400 20152 51804 55063 58038;EQDQ01  00002PRCP99Q02  00312WGOSPD
0175612140999992000022609004+18430+001350FM-12+0459GAKL V0200601N010812200019N0020001N1+01901-00801101961ADDAY101031AY201031GA1001+999999999GF100991001001999999001001MA1999999096751MD1999999+0501MW1071REMSYN070AAXX  26094 61214 41020 00621 10190 21080 39675 40196 70700 333 58050;
0267612140999992000022706004+18430+001350FM-12+0459GAKL V0200801N006212200019N0060001N1+01301-00501101671ADDAA199000091AY101061AY201061GA1001+999999999GF100991001001999999001001IA2240+01409KA1120N+01301MA1999999098411MW1061OA150699999REMSYN094AAXX  27064 61214 31956 00812 10130 21050 39841 40167 70600 333 01400 20130 51804 55043 59005;EQDQ01  00002PRCP99Q02  00212WGOSPD
0194612140999992000022709004+18430+001350FM-12+0459GAKL V0200801N009812200019N0030001N1+01621-00361101731ADDAY101031AY201031GA1001+999999999GF100991001001999999001001MA1999999096482MD1999999-0271MW1071REMSYN070AAXX  27094 61214 41930 00819 10162 21036 39648 40173 70700 333 59027;EQDQ01+096483APOSP 
0175612140999992000022715004+18430+001350FM-12+0459GAKL V0200801N006212200019N0060001N1+02461-00641101361ADDAY101031AY201031GA1001+999999999GF100991001001999999001001MA1999999096141MD1999999-0161MW1061REMSYN070AAXX  27154 61214 41956 00812 10246 21064 39614 40136 70600 333 59016;
0187612140999992000022809004+18430+001350FM-12+0459GAKL V0200401N003112200019N0040001N1+01801-00541101691ADDAY101031AY201031GA1041+075009019GF104991001001999999001021MA1999999096461MD1999999-0021MW1061REMSYN082AAXX  28094 61214 41940 40406 10180 21054 39646 40169 70600 80002 333 59002 84075;
0243612140999992000022906004+18430+001350FM-12+0459GAKL V0200401N002112200019N0080001N1+02521-00171999999ADDAA199000091GF101991001001999999001021IA2240+01409KA1120N+01501MA1999999096371MD1999999+0101OA150699999REMSYN094AAXX  29064 61214 31958 10404 10252 21017 39637 80002 333 01400 20150 51264 55025 58010 81075;EQDQ01  00002PRCP99Q02  00102WGOSPD
0175612140999992000022909004+18430+001350FM-12+0459GAKL V0200401N006212200019N0040001N1+02231-00801101721ADDAY101031AY201031GA1001+999999999GF100991001001999999001001MA1999999096521MD1999999+0061MW1061REMSYN070AAXX  29094 61214 41940 00412 10223 21080 39652 40172 70600 333 58006;
0211612140999992000022912004+18430+001350FM-12+0459GAKL V0200801N006212200019N0060001N1+02701-00801101471ADDAA199000091AY101061AY201061GA1001+999999999GF100991001001999999001001MA1999999096301MD1999999-0071MW1061REMSYN076AAXX  29124 61214 31956 00812 10270 21080 39630 40147 70600 333 0//00 59007;EQDQ01  00002PRCP99
0223612140999992000030106004+18430+001350FM-12+0459GAKL V0200401N002112200019N0100001N1+01721-00771101551ADDAA199000091GA1001+999999999GF100991001001999999001001IA2240+01209KA1120N+01701MA1999999096361OA150600411REMSYN088AAXX  01064 61214 32960 00404 10172 21077 39636 40155 333 01200 20170 51524 55080 59001;EQDQ01  00002PRCP99
0147612140999992000030109004+18430+001350FM-12+0459GAKL V0200401N004112200019N0100001N1+02201-00801101701ADDGA1001+999999999GF100991001001999999001001MA1999999096511MD1999999-0011REMSYN064AAXX  01094 61214 42960 00408 10220 21080 39651 40170 333 59001;
0239612140999992000030206004+18430+001350FM-12+0459GAKL V0209999C000012200019N0150001N1+01421-00561101511ADDAA199000091GA1001+999999999GF100991001001999999001001IA2240+01409KA1120N+99999MA1999999098311OA150600461REMSYN088AAXX  02064 61214 32965 00000 10142 21056 39831 40151 333 01400 20240 51224 55095 59005;EQDQ01  00002PRCP99Q02 +02402ATMN  
0166612140999992000030209004+18430+001350FM-12+0459GAKL V0200401N003112200019N0100001N1+02351-00801101661ADDGA1001+999999999GF100991001001999999001001MA1999999096492MD1999999-0021REMSYN064AAXX  02094 61214 42960 00406 10235 21080 39649 40166 333 59002;EQDQ01+096493APOSP 
0233612140999992000030306004+18430+001350FM-12+0459GAKL V0209999C000012200019N0150001N1+01601-00771101351ADDAA199000091GF101991001001999999001021IA2240+01209KA1120N+01601MA1999999096191MD1999999-0121OA150600511REMSYN100AAXX  03064 61214 31965 10000 10160 21077 39619 40135 80002 333 01200 20160 51824 55100 59012 81075;EQDQ01  00002PRCP99
0147612140999992000030309004+18430+001350FM-12+0459GAKL V0200801N003112200019N0150001N1+02501-00801101541ADDGA1001+999999999GF100991001001999999001001MA1999999096401MD1999999-0091REMSYN064AAXX  03094 61214 42965 00806 10250 21080 39640 40154 333 59009;
0223612140999992000030406004+18430+001350FM-12+0459GAKL V0209999C000012200019N0150001N1+01901-00541101351ADDAA199000091GA1001+999999999GF100991001001999999001001IA2240+01109KA1120N+01851MA1999999096221OA150600511REMSYN088AAXX  04064 61214 32965 00000 10190 21054 39622 40135 333 01100 20185 51604 55104 58003;EQDQ01  00002PRCP99
0147612140999992000030409004+18430+001350FM-12+0459GAKL V0200401N004112200019N0150001N1+02701-00801101471ADDGA1001+999999999GF100991001001999999001001MA1999999096361MD1999999-0041REMSYN064AAXX  04094 61214 42965 00408 10270 21080 39636 40147 333 59004;
0223612140999992000030506004+18430+001350FM-12+0459GAKL V0209999C000012200019N0150001N1+01801-00351101351ADDAA199000091GA1001+999999999GF100991001001999999001001IA2240+01209KA1120N+01751MA1999999096221OA150600511REMSYN088AAXX  05064 61214 32965 00000 10180 21035 39622 40135 333 01200 20175 51554 55102 58000;EQDQ01  00002PRCP99
0147612140999992000030509004+18430+001350FM-12+0459GAKL V0200401N003112200019N0150001N1+02741-00801101501ADDGA1001+999999999GF100991001001999999001001MA1999999096391MD1999999+0031REMSYN064AAXX  05094 61214 42965 00406 10274 21080 39639 40150 333 58003;
0204612140999992000030606004+18430+001350FM-12+0459GAKL V0209999C000012200019N0150001N1+01801-00331101391ADDAA199000091GA1001+999999999GF100991001001999999001001IA2240+01309MA1999999096261OA150600511REMSYN082AAXX  06064 61214 32965 00000 10180 21033 39626 40139 333 01300 51064 55107 58004;EQDQ01  00002PRCP99
0204612140999992000030609004+18430+001350FM-12+0459GAKL V0209999C000012200019N0150001N1+01801-00331101391ADDAA199000091GA1001+999999999GF100991001001999999001001IA2240+01309MA1999999096261OA150300511REMSYN082AAXX  06094 61214 32965 00000 10180 21033 39626 40139 333 01300 51064 55107 58004;EQDQ01  00002PRCP99
0147612140999992000030809004+18430+001350FM-12+0459GAKL V0200401N007212200019N0150001N1+02601-00701101571ADDGA1001+999999999GF100991001001999999001001MA1999999096641MD1999999-0051REMSYN064AAXX  08094 61214 42965 00414 10260 21070 39664 40157 333 59005;
0223612140999992000030906004+18430+001350FM-12+0459GAKL V0200401N002112200019N0150001N1+01901-00351101511ADDAA199000091GA1001+999999999GF100991001001999999001001IA2240+01709KA1120N+01851MA1999999096371OA150600461REMSYN088AAXX  09064 61214 32965 00404 10190 21035 39637 40151 333 01700 20185 51674 55096 58010;EQDQ01  00002PRCP99
0147612140999992000030909004+18430+001350FM-12+0459GAKL V0200401N007212200019N0150001N1+02501-00801101721ADDGA1001+999999999GF100991001001999999001001MA1999999096581MD1999999+0121REMSYN064AAXX  09094 61214 43965 00414 10250 21080 39658 40172 333 58012;
0233612140999992000031006004+18430+001350FM-12+0459GAKL V0209999C000019999999N0150001N1+01701-00541101391ADDAA199000091GF108991999001999999001021IA2240+01609KA1120N+01701MA1999999096241MD1999999-0131OA150600511REMSYN100AAXX  10064 61214 32965 81000 10170 21054 39624 40139 8/002 333 01600 20170 51404 55106 59013 81075;EQDQ01  00002PRCP99
0159612140999992000031009004+18430+001350FM-12+0459GAKL V0200401N005112200019N0150001N1+02351-00401101531ADDGA1021+075009019GF102991001001999999001021MA1999999096391MD1999999-0191REMSYN076AAXX  10094 61214 42965 20410 10235 21040 39639 40153 80002 333 59019 82075;
0159612140999992000031109004+18430+001350FM-12+0459GAKL V0200401N003112200019N0150001N1+02451-00201101591ADDGA1011+075009019GF101991001001999999001021MA1999999096421MD1999999+0031REMSYN076AAXX  11094 61214 42965 10406 10245 21020 30642 40159 80002 333 58003 81075;
0136612140999992000031115004+18430+001350FM-12+0459GAKL V0200401N003119999999N0150001N1+03051+99999101271ADDGF105991001001999999001021MA1999999061502REMSYN064AAXX  11154 61214 42965 50406 10305 3615/ 40127 80002 333 5075/;EQDQ01+061503APOSP 
0223612140999992000031206004+18430+001350FM-12+0459GAKL V0200401N002112200019N0150001N1+01661-00841101491ADDAA199000091GA1001+999999999GF100991001001999999001001IA2240+01109KA1120N+01601MA1999999096311OA150600721REMSYN088AAXX  12064 61214 32965 00404 10166 21084 39631 40149 333 01100 20160 55144 55097 58013;EQDQ01  00002PRCP99
0175612140999992000031209004+18430+001350FM-12+0459GAKL V0200401N008212200019N0080001N1+02301-00801101661ADDAY101031AY201031GA1001+999999999GF100991001001999999001001MA1999999096401MD1999999+0061MW1071REMSYN070AAXX  12094 61214 41958 00416 10230 21080 39640 40166 70700 333 58006;
0222612140999992000031306004+18430+001350FM-12+0459GAKL V0209999C000019999999N0150001N1+01721-00801101271ADDAA199000091GF106991061001999999041001IA2240+00709KA1120N+01701MA1999999096111MD1999999-0181REMSYN100AAXX  13064 61214 32965 60000 10172 21080 39611 40127 86040 333 00700 20170 50904 55/// 59018 86365;EQDQ01  00002PRCP99
0159612140999992000031309004+18430+001350FM-12+0459GAKL V0200401N003112200019N0300001N1+02351-00801101571ADDGA1011+075009019GF101991001001999999001021MA1999999096491MD1999999+0001REMSYN076AAXX  13094 61214 42980 10406 10235 21080 39649 40157 80002 333 58000 81075;
0233612140999992000031406004+18430+001350FM-12+0459GAKL V0209999C000012200019N0150001N1+01361-00801101281ADDAA199000091GF101991001001999999001021IA2240+01009KA1120N+01351MA1999999096201MD1999999-0141OA150600511REMSYN100AAXX  14064 61214 32965 10000 10136 21080 39620 40128 80002 333 01000 20135 51304 55106 59014 81075;EQDQ01  00002PRCP99
0220612140999992000031506004+18430+001350FM-12+0459GAKL V0209999C000012200019N0150001N1+01501-00801101321ADDAA199000091GA1001+999999999GF100991001001999999001001IA2240+01009KA1120N+01431MA1999999096141MD1999999-0061REMSYN082AAXX  15064 61214 32965 00000 10150 21080 39614 40132 333 01000 20143 50511 59006;EQDQ01  00002PRCP99
0159612140999992000031509004+18430+001350FM-12+0459GAKL V0200401N005112200019N0150001N1+02401-00781101011ADDGA1011+075009019GF101991001001999999001021MA1999999096111MD1999999-0221REMSYN076AAXX  15094 61214 42965 10410 10240 21078 39611 40101 80002 333 59022 81075;
0195612140999992000031512004+18430+001350FM-12+0459GAKL V0200401N002112200019N0150001N1+03201-00801101061ADDAA199000091GA1011+075009019GF101991001001999999001021MA1999999095951MD1999999-0271REMSYN082AAXX  15124 61214 32965 10404 10320 21080 39595 40106 80002 333 0//00 59027 81075;EQDQ01  00002PRCP99
0213612140999992000031606004+18430+001350FM-12+0459GAKL V0209999C000012200019N0150001N1+01701-00801100911ADDAA199000091GF101991001001999999001021IA2240+01009KA1120N+01651MA1999999095791OA150600511REMSYN094AAXX  16064 61214 32965 10000 10170 21080 39579 40091 80002 333 01000 20165 51044 55108 59025;EQDQ01  00002PRCP99
0159612140999992000031609004+18430+001350FM-12+0459GAKL V0209999C000012200019N0150001N1+02601-00801101021ADDGA1011+075009019GF101991001001999999001021MA1999999095941MD1999999-0171REMSYN076AAXX  16094 61214 42965 10000 10260 21080 39594 40102 80002 333 59017 81075;
0223612140999992000031706004+18430+001350FM-12+0459GAKL V0209999C000012200019N0150001N1+01851-00801100771ADDAA199000091GA1001+999999999GF100991001001999999001001IA2240+01109KA1120N+01851MA1999999095681OA150600511REMSYN088AAXX  17064 61214 32965 00000 10185 21080 39568 40077 333 01100 20185 51204 55106 59008;EQDQ01  00002PRCP99
0147612140999992000031709004+18430+001350FM-12+0459GAKL V0209999C000012200019N0150001N1+02801-00801100961ADDGA1001+999999999GF100991001001999999001001MA1999999095891MD1999999-0051REMSYN064AAXX  17094 61214 42965 00000 10280 21080 39589 40096 333 59005;
0208612140999992000031718004+18430+001350FM-12+0459GAKL V0209999C000012200019N0150001N1+03301-00801100741ADDAA199000091GA1021+045009079GF102991021001999999041001KA1120M+03601MA1999999095661MD1999999+0001REMSYN082AAXX  17184 61214 32965 20000 10330 21080 39566 40074 82040 333 10360 58000 82365;EQDQ01  00002PRCP99
0233612140999992000031806004+18430+001350FM-12+0459GAKL V0203601N002112200019N0150001N1+01901-00801101151ADDAA199000091GF102991021001999999041001IA2240+01209KA1120N+01851MA1999999096041MD1999999+0361OA150600511REMSYN100AAXX  18064 61214 32965 23604 10190 21080 39604 40115 82040 333 01200 20185 51304 55105 58036 82365;EQDQ01  00002PRCP99
0147612140999992000031809004+18430+001350FM-12+0459GAKL V0200401N005112200019N0150001N1+02701-00801100891ADDGA1001+999999999GF100991001001999999001001MA1999999095821MD1999999-0071REMSYN064AAXX  18094 61214 42965 00410 10270 21080 39582 40089 333 59007;
0183612140999992000031812004+18430+001350FM-12+0459GAKL V0200401N002112200019N0150001N1+03251-00601100731ADDAA199000091GA1001+999999999GF100991001001999999001001MA1999999095691MD1999999-0071REMSYN070AAXX  18124 61214 32965 00404 10325 21060 39569 40073 333 0//00 59007;EQDQ01  00002PRCP99
0177612140999992000031818004+18430+001350FM-12+0459GAKL V0201701N004612200019N0100001N1+02281+99999101451ADDAA199000091GA1001+999999999GF100991001001999999001001MA1999999096291MD1999999+0051REMSYN064AAXX  18184 61214 32960 01709 10228 39629 40145 333 1033/ 58005;EQDQ01  00002PRCP99
0223612140999992000031906004+18430+001350FM-12+0459GAKL V0203601N005112200019N0150001N1+01881-00601100741ADDAA199000091GA1001+999999999GF100991001001999999001001IA2240+01609KA1120N+01851MA1999999095651OA150600511REMSYN088AAXX  19064 61214 32965 03610 10188 21060 39565 40074 333 01600 20185 51454 55106 59013;EQDQ01  00002PRCP99
0175612140999992000031909004+18430+001350FM-12+0459GAKL V0203601N007212200019N0070001N1+02401-00781100761ADDAY101031AY201031GA1001+999999999GF100991001001999999001001MA1999999095681MD1999999-0141MW1071REMSYN070AAXX  19094 61214 41957 03614 10240 21078 39568 40076 70700 333 59014;
0233612140999992000032006004+18430+001350FM-12+0459GAKL V0203601N002112200019N0150001N1+01541-00641100871ADDAA199000091GF101991001001999999001021IA2240+01609KA1120N+01501MA1999999095711MD1999999+0061OA150600511REMSYN100AAXX  20064 61214 32965 13604 10154 21064 39571 40087 80002 333 01600 20150 51304 55107 58006 81075;EQDQ01  00002PRCP99
0159612140999992000032009004+18430+001350FM-12+0459GAKL V0203601N002112200019N0150001N1+02251-00401101011ADDGA1011+075009019GF101991001001999999001021MA1999999095891MD1999999+0211REMSYN076AAXX  20094 61214 42965 13604 10225 21040 39589 40101 80002 333 58021 81075;
0159612140999992000032109004+18430+001350FM-12+0459GAKL V0209999C000012200019N0150001N1+02451-00801101001ADDGA1041+075009019GF104991001001999999001021MA1999999096521MD1999999+0011REMSYN076AAXX  21094 61214 42965 40000 10245 21080 39652 40100 80002 333 58001 84075;
0195612140999992000032111004+18430+001350FM-12+0459GAKL V0200401N002112200019N0150001N1+02901-00801101371ADDAA199000091GA1031+045009079GF103991021001999999041021MA1999999096241MD1999999+0081REMSYN082AAXX  21114 61214 32965 30404 10290 21080 39624 40137 82042 333 0//00 58008 83365;EQDQ01  00002PRCP99
0195612140999992000032112004+18430+001350FM-12+0459GAKL V0200401N002112200019N0150001N1+02901-00801101371ADDAA199000091GA1031+045009079GF103991021001999999041021MA1999999096241MD1999999+0081REMSYN082AAXX  21124 61214 32965 30404 10290 21080 39624 40137 82042 333 0//00 58008 83365;EQDQ01  00002PRCP99
0075612140999992000032206004+18430+001350FM-12+0459GAKL V02099999999999999999N0004001N1+01501-00231999999ADDMA1999999097961REMSYN048AAXX  22064 61214 //904 ///04 10150 21023 39796;
0194612140999992000032209004+18430+001350FM-12+0459GAKL V0200401N003112200019N0150001N1+02622-00801100991ADDGA1031+075009019GF103991001001999999001021MA1999999095902MD1999999+0001REMSYN076AAXX  22094 61214 42965 30406 10262 21080 39590 40099 80002 333 58000 83075;EQDQ01+002623ATOT  Q02+095903APOSP 
0249612140999992000032306004+18430+001350FM-12+0459GAKL V0209999C000012200019N0150001N1+01621+99999100801ADDAA199000091GF102991001001999999001021IA2240+01609KA1120N+99999MA1999999095681MD1999999-0091OA150600571REMSYN100AAXX  23064 61214 32965 20000 10162 28064 39568 40080 80002 333 01600 20255 51104 55110 59009 82075;EQDQ01  00002PRCP99Q02 +02552ATMN  
0159612140999992000032309004+18430+001350FM-12+0459GAKL V0209999C000012200019N0150001N1+02701-00601100921ADDGA1021+075009019GF102991001001999999001021MA1999999095861MD1999999-0041REMSYN076AAXX  23094 61214 42965 20000 10270 21060 39586 40092 80002 333 59004 82075;
0223612140999992000032406004+18430+001350FM-12+0459GAKL V0209999C000012200019N0150001N1+01751-00401100881ADDAA199000091GA1001+999999999GF100991001001999999001001IA2240+01409KA1120N+01551MA1999999095761OA150600571REMSYN088AAXX  24064 61214 32965 00000 10175 21040 39576 40088 333 01400 20155 50964 55111 58008;EQDQ01  00002PRCP99
0147612140999992000032409004+18430+001350FM-12+0459GAKL V0200801N005112200019N0150001N1+02801-00801100881ADDGA1001+999999999GF100991001001999999001001MA1999999095841MD1999999-0021REMSYN064AAXX  24094 61214 42965 00810 10280 21080 39584 40088 333 59002;
0159612140999992000032609004+18430+001350FM-12+0459GAKL V0200401N006212200019N9999999N1+03001-00801100951ADDGA1031+075009019GF103991001001999999001021MA1999999095931MD1999999-0091REMSYN076AAXX  26094 61214 4295/ 30412 10300 21080 39593 40095 80002 333 59009 83075;
0159612140999992000032709004+18430+001350FM-12+0459GAKL V0201401N003112200019N0150001N1+02801+00021100891ADDGA1011+075009019GF101991001001999999001021MA1999999095861MD1999999-0071REMSYN076AAXX  27094 61214 42965 11406 10280 20002 39586 40089 80002 333 59007 81075;
0233612140999992000032806004+18430+001350FM-12+0459GAKL V0209999C000019999999N0150001N1+02151+00151100751ADDAA199000091GF105991001001999999001021IA2240+01609KA1120N+02151MA1999999095701MD1999999-0071OA150600511REMSYN100AAXX  28064 61214 32965 50000 10215 20015 39570 40075 80002 333 01600 20215 51604 55103 59007 85075;EQDQ01  00002PRCP99
0165612140999992000032809004+18430+001350FM-12+0459GAKL V0201801N003119999999N0150001N1+03051-00801100801ADDGA1021+045009039GF106991021001999999041021MA1999999095781MD1999999-0081REMSYN082AAXX  28094 61214 42965 61806 10305 21080 39578 40080 82042 333 59008 82365 85075;
0165612140999992000032812004+18430+001350FM-12+0459GAKL V0201801N002119999999N0150001N1+03601-00271100711ADDGA1021+045009079GF107991021001999999041061MA1999999095701MD1999999-0051REMSYN082AAXX  28124 61214 42965 71804 10360 21027 39570 40071 82046 333 0//00 59005 82365;
0233612140999992000032906004+18430+001350FM-12+0459GAKL V0209999C000019999999N0150001N1+02201-00501100771ADDAA199000091GF105991001001999999001021IA2240+01509KA1120N+02201MA1999999095731MD1999999+0031OA150600411REMSYN100AAXX  29064 61214 32965 50000 10220 21050 39573 40077 80002 333 01500 20220 51044 55087 58003 85075;EQDQ01  00002PRCP99
0255612140999992000033006004+18430+001350FM-12+0459GAKL V0209999C000010450019N0150001N1+02561-00101100821ADDAA199000091GA1051+045009049GF106991051001999999071021IA2240+01709KA1120N+02201MA1999999095801MD1999999+0081OA150600411REMSYN106AAXX  30064 61214 32965 60000 10256 21010 39580 40082 85072 333 01700 20220 51384 55088 58008 85465 83075;EQDQ01  00002PRCP99
0233612140999992000033106004+18430+001350FM-12+0459GAKL V0209999C000012200019N0150001N1+02201-00131100761ADDAA199000091GF102991001001999999001021IA2240+01709KA1120N+02201MA1999999095761MD1999999-0081OA150600511REMSYN100AAXX  31064 61214 32965 20000 10220 21013 39576 40076 80002 333 01700 20220 51624 55102 59008 82075;EQDQ01  00002PRCP99
0233612140999992000040106004+18430+001350FM-12+0459GAKL V0209999C000012200019N0150001N1+02121-00331100671ADDAA199000091GF101991001001999999001021IA2240+01509KA1120N+02101MA1999999095641MD1999999-0081OA150600571REMSYN100AAXX  01064 61214 32965 10000 10212 21033 39564 40067 80002 333 01500 20210 51704 55110 59008 81075;EQDQ01  00002PRCP99
0203612140999992000040306004+18430+001350FM-12+0459GAKL V0209999C000012200019N0150001N1+02151+00001100421ADDGF101991001001999999001021IA2240+01909KA1120N+02101MA1999999095421MD1999999-0041OA150600511REMSYN100AAXX  03064 61214 21965 10000 10215 20000 39542 40042 80002 333 01900 20210 51604 55101 59004 81075;
0159612140999992000040309004+18430+001350FM-12+0459GAKL V0209999C000012200019N0150001N1+03101-00271100601ADDGA1031+075009019GF103991001001999999001021MA1999999095621MD1999999-0051REMSYN076AAXX  03094 61214 42/65 30000 10310 21027 39562 40060 80002 333 59005 83075;
0233612140999992000040606004+18430+001350FM-12+0459GAKL V0203601N002119999999N0150001N1+02671-00801100831ADDAA199000091GF105991001001999999001021IA2240+01909KA1120N+02051MA1999999095841MD1999999-0041OA150600461REMSYN100AAXX  06064 61214 32965 53604 10267 21080 39584 40083 80002 333 01900 20205 51854 55093 59004 85075;EQDQ01  00002PRCP99
0233612140999992000041206004+18430+001350FM-12+0459GAKL V0203201N002119999999N0150001N1+02761-00701100451ADDAA199000091GF105991001001999999001021IA2240+02209KA1120N+02451MA1999999095491MD1999999-0121OA150600461REMSYN100AAXX  12064 61214 32965 53204 10276 21070 39549 40045 80002 333 02200 20245 51914 55098 59012 85075;EQDQ01  00002PRCP99
0211612140999992000060212004+18430+001350FM-12+0459GAKL V0200401N002112200019N0080001N1+04101+00961100641ADDAA199000091AY101061AY201061GA1001+999999999GF100991001001999999001001MA1999999095731MD1999999+0091MW1061REMSYN076AAXX  02124 61214 31958 00404 10410 20096 39573 40064 70600 333 0//00 58009;EQDQ01  00002PRCP99
0251612140999992000060306004+18430+001350FM-12+0459GAKL V0209999C000012200019N0080001N1+03101+01061100361ADDAA199000091AY101061AY201061GA1001+999999999GF100991001001999999001001IA2240+02609KA1120N+03051MA1999999095441MW1061OA150600361REMSYN094AAXX  03064 61214 31958 00000 10310 20106 39544 40036 70600 333 02600 20305 51364 55079 59031;EQDQ01  00002PRCP99
0211612140999992000060512004+18430+001350FM-12+0459GAKL V0202201N003112200019N0080001N1+03701+01541100711ADDAA199000091AY101061AY201061GA1001+999999999GF100991001001999999001001MA1999999095781MD1999999+0491MW1061REMSYN076AAXX  05124 61214 31958 02206 10370 20154 39578 40071 70600 333 0//00 58049;EQDQ01  00002PRCP99
0159612140999992000060612004+18430+001350FM-12+0459GAKL V0202201N006212200019N0150001N1+03851+00301100891ADDGA1031+015009029GF103991031021017501001001MA1999999095901MD1999999+0121REMSYN076AAXX  06124 61214 42765 32212 10385 20030 39590 40089 83200 333 58012 83850;
0239612140999992000061006004+18430+001350FM-12+0459GAKL V0200401N003112200019N0150001N1+02811+01021100951ADDAA199000091GA1001+999999999GF100991001001999999001001IA2240+02609KA1120N+99999MA1999999095981OA150600461REMSYN088AAXX  10064 61214 32965 00406 10281 20102 39598 40095 333 02600 20291 50914 55095 59015;EQDQ01  00002PRCP99Q02 +02912ATMN  
0223612140999992000061206004+18430+001350FM-12+0459GAKL V0202201N003112200019N0150001N1+03021+01411100661ADDAA199000091GA1001+999999999GF100991001001999999001001IA2240+03009KA1120N+03001MA1999999095741OA150600511REMSYN088AAXX  12064 61214 32965 02206 10302 20141 39574 40066 333 03000 20300 51554 55104 59005;EQDQ01  00002PRCP99
0183612140999992000061412004+18430+001340FM-12+0459GAKL V0200801N002112200019N0150001N1+04161+00261100601ADDAA199000091GA1001+999999999GF100991001001999999001001MA1999999095701MD1999999-0041REMSYN070AAXX  14124 61214 32965 00804 10416 20026 39570 40060 333 0//00 59004;EQDQ01  00002PRCP99
0223612140999992000061606004+18430+001340FM-12+0459GAKL V0209999C000012200019N0150001N1+02811+00041100541ADDAA199000091GA1001+999999999GF100991001001999999001001IA2240+02509KA1120N+02851MA1999999095601OA150600511REMSYN088AAXX  16064 61214 32965 00000 10281 20004 39560 40054 333 02500 20285 51824 55101 59005;EQDQ01  00002PRCP99
0153612140999992000062012004+18430+001340FM-12+0459GAKL V0209999C000012200019N0150001N1+04041+00871100731ADDGA1001+999999999GF100991001001999999001001MA1999999095821MD1999999+0121REMSYN070AAXX  20124 61214 42965 00000 10404 20087 39582 40073 333 0//00 58012;
0230612140999992000062406004+18430+001340FM-12+0459GAKL V0209999C000012200019N0080001N1+02701+01311100941ADDAA124001091AY111061AY211061GF104991041001999999041001KA1120N+02301MA1999999095951MD1999999+0201MW1061OA150600211REMSYN106AAXX  24064 61214 11958 40000 10270 20131 39595 40094 60014 70611 84040 333 20230 50964 55043 58020 84365;
0211612140999992000062412004+18430+001340FM-12+0459GAKL V0203201N001012200019N0080001N1+03901+01001100751ADDAA199000091AY111061AY211061GA1001+999999999GF100991001001999999001001MA1999999095811MD1999999-0061MW1061REMSYN076AAXX  24124 61214 31958 03202 10390 20100 39581 40075 70611 333 0//00 59006;EQDQ01  00002PRCP99
0183612140999992000062712004+18430+001340FM-12+0459GAKL V0202201N002112200019N0150001N1+03861+01421100951ADDAA199000091GA1001+999999999GF100991001001999999001001MA1999999096001MD1999999+0131REMSYN070AAXX  27124 61214 32965 02204 10386 20142 39600 40095 333 0//00 58013;EQDQ01  00002PRCP99
0223612140999992000062806004+18430+001340FM-12+0459GAKL V0209999C000012200019N0150001N1+02551+01301100881ADDAA199000091GA1001+999999999GF100991001001999999001001IA2240+02709KA1120N+02551MA1999999095871OA150600411REMSYN088AAXX  28064 61214 32965 00000 10255 20130 39587 40088 333 02700 20255 51104 55081 59013;EQDQ01  00002PRCP99
0223612140999992000062906004+18430+001340FM-12+0459GAKL V0209999C000012200019N0150001N1+02651-00101100741ADDAA199000091GA1001+999999999GF100991001001999999001001IA2240+02409KA1120N+02551MA1999999095781OA150600411REMSYN088AAXX  29064 61214 32965 00000 10265 21010 39578 40074 333 02400 20255 51944 55087 59009;EQDQ01  00002PRCP99
0223612140999992000070106004+18430+001340FM-12+0459GAKL V0203201N002112200019N0150001N1+02641+00101100631ADDAA199000091GA1001+999999999GF100991001001999999001001IA2240+02409KA1120N+02601MA1999999095661OA150600571REMSYN088AAXX  01064 61214 32965 03204 10264 20010 39566 40063 333 02400 20260 51954 55110 58000;EQDQ01  00002PRCP99
0233612140999992000070306004+18430+001340FM-12+0459GAKL V0209999C000012200019N0150001N1+02711-00071100541ADDAA199000091GF104991041001999999041001IA2240+02509KA1120N+02711MA1999999095571MD1999999-0071OA150600571REMSYN100AAXX  03064 61214 32965 40000 10271 21007 39557 40054 84040 333 02500 20271 51254 55111 59007 84365;EQDQ01  00002PRCP99
0223612140999992000070406004+18430+001340FM-12+0459GAKL V0209999C000012200019N0150001N1+02681+00691100401ADDAA199000091GA1001+999999999GF100991001001999999001001IA2240+02509KA1120N+02681MA1999999095411OA150600571REMSYN088AAXX  04064 61214 32965 00000 10268 20069 39541 40040 333 02500 20268 51104 55118 59012;EQDQ01  00002PRCP99
0271612140999992000071206004+18430+001340FM-12+0459GAKL V0202201N005119999999N0150001N1+02941+01901101021ADDAA199000091GA1011+045009039GF107991011001999999041021IA2240+02709KA1120N+02941MA1999999096021MD1999999+0151OA150699999REMSYN106AAXX  12064 61214 32965 72210 10294 20190 39602 40102 81042 333 02700 20294 51024 55044 58015 81365 87075;EQDQ01  00002PRCP99Q02  00212WGOSPD
0220612140999992000071306004+18430+001340FM-12+0459GAKL V0202801N005112200019N0150001N1+02621+01731100811ADDAA124000791GF103991031001999999041001IA2240+02709KA1120N+02551MA1999999095821MD1999999-0201OA150600511REMSYN106AAXX  13064 61214 12965 32810 10262 20173 39582 40081 69904 83040 333 02700 20255 51254 55108 59020 83365;
0210612140999992000071606004+18430+001340FM-12+0459GAKL V0209999C000012200019N0150001N1+02701+01921100651ADDAA124006191GA1001+999999999GF100991001001999999001001IA2240+02509KA1120N+02651MA1999999095681OA150600311REMSYN094AAXX  16064 61214 12965 00000 10270 20192 39568 40065 60064 333 02500 20265 51244 55067 59009;
0195612140999992000071812004+18430+001340FM-12+0459GAKL V0202201N002112200019N0150001N1+03651+01741100911ADDAA199000091GA1031+075009019GF103991001001999999001021MA1999999095951MD1999999+0371REMSYN082AAXX  18124 61214 32965 32204 10365 20174 39595 40091 80002 333 0//00 58037 83075;EQDQ01  00002PRCP99
0233612140999992000072006004+18430+001340FM-12+0459GAKL V0202201N003119999999N0100001N1+03051+01341100601ADDAA199000091GF106991061001999999041001IA2240+02409KA1120N+03051MA1999999095651MD1999999-0091OA150600511REMSYN100AAXX  20064 61214 32960 62206 10305 20134 39565 40060 86040 333 02400 20305 51354 55107 59009 86365;EQDQ01  00002PRCP99
0222612140999992000072106004+18430+001340FM-12+0459GAKL V0202201N005112200019N0150001N1+02751+01661100951ADDAA199000091GF103991031001999999041001IA2240+01509KA1120N+02751MA1999999095971MD1999999+0251REMSYN100AAXX  21064 61214 32965 32210 10275 20166 39597 40095 83040 333 01500 20275 51464 50097 58025 83365;EQDQ01  00002PRCP99
0223612140999992000072112004+18430+001340FM-12+0459GAKL V0202201N006212200019N0070001N1+03281+01741100831ADDAA199000091AY101061AY201061GA1021+045009079GF102991021001999999041001MA1999999095841MD1999999+0251MW1061REMSYN088AAXX  21124 61214 31957 22212 10328 20174 39584 40083 70600 82040 333 0//00 58025 82365;EQDQ01  00002PRCP99
0261612140999992000072206004+18430+001340FM-12+0459GAKL V0202201N003119999999N0060001N1+02821+01891100881ADDAA199000091AY121061AY221061GF106991061001999999041001IA2240+02409KA1120N+02801MA1999999095871MD1999999+0101MW1061OA150600361REMSYN106AAXX  22064 61214 31956 62206 10282 20189 39587 40088 70622 86040 333 02400 20280 51004 55077 58010 86365;EQDQ01  00002PRCP99
0233612140999992000072406004+18430+001340FM-12+0459GAKL V0201801N003119999999N0150001N1+02901+01841100821ADDAA199000091GF106991061001999999041001IA2240+02309KA1120N+02861MA1999999095851MD1999999+0051OA150600571REMSYN100AAXX  24064 61214 32965 61806 10290 20184 39585 40082 86040 333 02300 20286 51254 55110 58005 86365;EQDQ01  00002PRCP99
0265612140999992000072506004+18430+001340FM-12+0459GAKL V0201001N005119999999N0150001N1+02701+02111100961ADDAA199000091GF107991061001999999071021IA2240+02409KA1120N+99999MA1999999095941MD1999999+0091OA150699999REMSYN100AAXX  25064 61214 32965 71010 10270 20211 39594 40096 86072 333 02400 20286 50824 55027 58009 86465;EQDQ01  00002PRCP99Q02  00102WGOSPDQ03 +02862ATMN  
0195612140999992000072512004+18430+001340FM-12+0459GAKL V0202001N004112200019N0150001N1+03401+01731100841ADDAA199000091GA1031+045009079GF103991031001999999041021MA1999999095841MD1999999+0111REMSYN082AAXX  25124 61214 32965 32008 10340 20173 39584 40084 83042 333 0//00 58011 83365;EQDQ01  00002PRCP99
0211612140999992000072612004+18430+001340FM-12+0459GAKL V0209999C000012200019N0150001N1+03501+01661100871ADDAA199000091GA1031+015009059GF103991031051017501999001MA1999999095881MD1999999+0041REMSYN082AAXX  26124 61214 32765 30000 10350 20166 39588 40087 83500 333 0//00 58004 83650;EQDQ01  00002PRCP99Q02    003SCOMCG
0261612140999992000073106004+18430+001340FM-12+0459GAKL V0201801N002112200019N0060001N1+02501+01891101201ADDAA199000091AY101061AY201061GF101991011001999999041001IA2240+02309KA1120N+02451MA1999999096111MD1999999+0211MW1061OA150600411REMSYN106AAXX  31064 61214 31956 11804 10250 20189 39611 40120 70600 81040 333 02300 20245 50704 55081 58021 81365;EQDQ01  00002PRCP99
0210612140999992000080106004+18430+001340FM-12+0459GAKL V0209999C000012200019N0150001N1+02551+01861100801ADDAA124015091GA1001+999999999GF100991001001999999001001IA2240+02009KA1120N+02551MA1999999095741OA150600411REMSYN094AAXX  01064 61214 12965 00000 10255 20186 39574 40080 60154 333 02000 20255 50704 55087 59037;
0238612140999992000080406004+18430+001340FM-12+0459GAKL V0202201N002112200019N0060001N1+02701+01941101091ADDAA124000191AY101061AY201061GA1001+999999999GF100991001001999999001001IA2240+02009KA1120N+02701MA1999999096041MW1061OA150600361REMSYN100AAXX  04064 61214 11956 02204 10270 20194 39604 40109 69924 70600 333 02000 20270 50804 55076 59004;
0233612140999992000080506004+18430+001340FM-12+0459GAKL V0209999C000012200019N0150001N1+03031+01651100781ADDAA199000091GF103991001001999999001021IA2240+02509KA1120N+03031MA1999999095831MD1999999-0171OA150600511REMSYN100AAXX  05064 61214 32965 30000 10303 20165 39583 40078 80002 333 02500 20303 50674 55108 59017 83075;EQDQ01  00002PRCP99
0249612140999992000080606004+18430+001340FM-12+0459GAKL V0202801N003112200019N0150001N1+02811+01701100841ADDAA199000091GF103991001001999999001021IA2240+02709KA1120N+99999MA1999999095871MD1999999+0041OA150600571REMSYN100AAXX  06064 61214 32965 32806 10281 20170 39587 40084 80002 333 02700 20300 50914 55115 58004 83075;EQDQ01  00002PRCP99Q02 +03002ATMN  
0233612140999992000080706004+18430+001340FM-12+0459GAKL V0202201N002112200019N0100001N1+02961+01691100901ADDAA199000091GF101991001001999999001021IA2240+02509KA1120N+02951MA1999999095931MD1999999+0061OA150600461REMSYN100AAXX  07064 61214 32960 12204 10296 20169 39593 40090 80002 333 02500 20295 51154 55099 58006 81075;EQDQ01  00002PRCP99
0223612140999992000081206004+18430+001340FM-12+0459GAKL V0203201N003112200019N0100001N1+03021+01101100681ADDAA199000091GA1001+999999999GF100991001001999999001001IA2240+02709KA1120N+03001MA1999999095711OA150600311REMSYN088AAXX  12064 61214 32960 03206 10302 20110 39571 40068 333 02700 20300 50254 55069 59035;EQDQ01  00002PRCP99
0277612140999992000081406004+18430+001340FM-12+0459GAKL V0202601N007219999999N0060001N1+02721+01681100941ADDAA199000091AY111061AY211061GF106991001001999999001021IA2240+02709KA1120N+02721MA1999999095971MD1999999+0201MW1061OA150699999REMSYN106AAXX  14064 61214 31956 62614 10272 20168 39597 40094 70611 80002 333 02700 20272 51684 55081 58020 86075;EQDQ01  00002PRCP99Q02  00412WGOSPD
0235612140999992000081606004+18430+001340FM-12+0459GAKL V0202201N005112200019N0060001N1+03051+01651100671ADDAA124000391AY101061AY201061GF103991031001999999041001IA2240+02809MA1999999095691MD1999999-0151MW1061OA150600511REMSYN112AAXX  16064 61214 12956 32210 10305 20165 39569 40067 69934 70600 83040 333 02800 23105 51354 55101 59015 83365;
0242612140999992000081706004+18430+001340FM-12+0459GAKL V0209999C000019999999N0150001N1+02621+01681100701ADDAA124000591GA1021+045009039GF106991021001999999041021IA2240+02509KA1120N+02431MA1999999095711MD1999999-0211OA150600001REMSYN112AAXX  17064 61214 12965 60000 10262 20168 39571 40070 69964 82042 333 02500 20243 51204 55000 59021 82365 86075;
0233612140999992000081806004+18430+001340FM-12+0459GAKL V0202001N002112200019N0150001N1+02711+01771100961ADDAA199000091GF102991001001999999001021IA2240+02309KA1120N+02701MA1999999095951MD1999999+0241OA150600411REMSYN100AAXX  18064 61214 32965 22004 10271 20177 39595 40096 80002 333 02300 20270 51304 55082 58024 82075;EQDQ01  00002PRCP99
0233612140999992000081906004+18430+001340FM-12+0459GAKL V0202201N003112200019N0150001N1+02451+02161101201ADDAA199000091GF103991031001999999041001IA2240+02409KA1120N+02421MA1999999096141MD1999999+0221OA150600461REMSYN100AAXX  19064 61214 32965 32206 10245 20216 39614 40120 83040 333 02400 20242 50954 55090 58022 83365;EQDQ01  00002PRCP99
0239612140999992000082006004+18430+001340FM-12+0459GAKL V0202201N005119999999N0150001N1+02401+01951101231ADDAA124007991GF107991071001999999071001IA2240+02209KA1120N+02281MA1999999096181MD1999999+0041OA150699999REMSYN106AAXX  20064 61214 12965 72210 10240 20195 39618 40123 60084 87070 333 02200 20228 50594 55075 58004 87465;EQDQ01  00362WGOSPD
0220612140999992000082206004+18430+001340FM-12+0459GAKL V0202201N002112200019N0150001N1+02901+01841100661ADDAA124000791GF104991041001999999041001IA2240+02509KA1120N+02801MA1999999095681MD1999999-0231OA150600361REMSYN106AAXX  22064 61214 12965 42204 10290 20184 39568 40066 69904 84040 333 02500 20280 51004 55072 59023 84365;
0261612140999992000082306004+18430+001340FM-12+0459GAKL V0202201N005112200019N0060001N1+02801+01631100771ADDAA199000091AY101061AY201061GF102991011001999999041021IA2240+02709KA1120N+02801MA1999999095801MD1999999+0121MW1071OA150600511REMSYN106AAXX  23064 61214 31956 22210 10280 20163 39580 40077 70700 81042 333 02700 20280 50864 55100 58012 81365;EQDQ01  00002PRCP99
0233612140999992000082406004+18430+001340FM-12+0459GAKL V0202201N003119999999N0150001N1+02971+01601101061ADDAA199000091GF105991051001999999071021IA2240+02609KA1120N+02951MA1999999096081MD1999999+0281OA150600721REMSYN100AAXX  24064 61214 32965 52206 10297 20160 39608 40106 85072 333 02600 20295 50904 55145 58028 85465;EQDQ01  00002PRCP99
0220612140999992000082506004+18430+001340FM-12+0459GAKL V0209999C000012200019N0150001N1+02451+02291101071ADDAA124007191GF103991001001999999001021IA2240+02709KA1120N+02451MA1999999095991MD1999999-0091OA150600461REMSYN106AAXX  25064 61214 12965 30000 10245 20229 39599 40107 60074 80002 333 02700 20245 50924 55092 59009 83075;
0255612140999992000082706004+18430+001340FM-12+0459GAKL V0202201N001019999999N0150001N1+02801+01421100871ADDAA199000091GA1021+045009039GF105991021001999999041021IA2240+02409KA1120N+02701MA1999999095891MD1999999+0051OA150600671REMSYN106AAXX  27064 61214 32965 52202 10280 20142 39589 40087 82042 333 02400 20270 50834 55138 58005 82365 83075;EQDQ01  00002PRCP99
0233612140999992000082806004+18430+001340FM-12+0459GAKL V0202201N003112200019N0150001N1+02801+01621100651ADDAA199000091GF101991001001999999001021IA2240+02509KA1120N+02781MA1999999095691MD1999999-0171OA150600511REMSYN100AAXX  28064 61214 32965 12206 10280 20162 39569 40065 80002 333 02500 20278 51604 55107 59017 81075;EQDQ01  00002PRCP99
0233612140999992000090206004+18430+001340FM-12+0459GAKL V0209999C000012200019N0150001N1+02761+01741100851ADDAA199000091GF102991021001999999041001IA2240+02709KA1120N+02751MA1999999095251MD1999999-0121OA150600261REMSYN100AAXX  02064 61214 32965 20000 10276 20174 39525 40085 82040 333 02700 20275 51044 55050 59012 82365;EQDQ01  00002PRCP99
0223612140999992000090406004+18430+001340FM-12+0459GAKL V0209999C000012200019N0150001N1+02801+00281100521ADDAA199000091GA1001+999999999GF100991001001999999001001IA2240+02409KA1120N+02801MA1999999095571OA150600511REMSYN088AAXX  04064 61214 32965 00000 10280 20028 39557 40052 333 02400 20280 51534 55104 59028;EQDQ01  00002PRCP99
0223612140999992000090506004+18430+001340FM-12+0459GAKL V0201001N002112200019N0150001N1+02751+01921100761ADDAA199000091GA1001+999999999GF100991001001999999001001IA2240+02509KA1120N+02801MA1999999095791OA150600821REMSYN088AAXX  05064 61214 32965 01004 10275 20192 39579 40076 333 02500 20280 51064 55160 58022;EQDQ01  00002PRCP99
0223612140999992000090706004+18430+001340FM-12+0459GAKL V0209999C000012200019N0150001N1+02721+00961100581ADDAA199000091GA1001+999999999GF100991001001999999001001IA2240+02609KA1120N+02701MA1999999095611OA150600411REMSYN088AAXX  07064 61214 32965 00000 10272 20096 39561 40058 333 02600 20270 50904 55088 55024;EQDQ01  00002PRCP99
0255612140999992000090806004+18430+001340FM-12+0459GAKL V0202201N005119999999N0150001N1+02901+01261100651ADDAA199000091GA1031+045009039GF105991031001999999041021IA2240+02609KA1120N+02701MA1999999095681MD1999999+0071OA150600571REMSYN106AAXX  08064 61214 32965 52210 10290 20126 39568 40065 83042 333 02600 20270 51004 55118 58007 83365 83075;EQDQ01  00002PRCP99
0222612140999992000091006004+18430+001340FM-12+0459GAKL V0209999C000012200019N0150001N1+02601+01661100721ADDAA124003091GA1011+045009039GF103991011001999999041021IA2240+02509KA1120N+02601MA1999999097711OA150600411REMSYN106AAXX  10064 61214 12965 30000 10260 20166 39771 40072 60034 81042 333 02500 20260 51054 55084 81365 83075;
0233612140999992000091106004+18430+001340FM-12+0459GAKL V0203201N002119999999N0150001N1+03001+01171100491ADDAA199000091GF105991001001999999001021IA2240+02209KA1120N+02601MA1999999095551MD1999999-0181OA150600621REMSYN100AAXX  11064 61214 32965 53204 10300 20117 39555 40049 80002 333 02200 20260 50834 55120 59018 85075;EQDQ01  00002PRCP99
0220612140999992000091306004+18430+001340FM-12+0459GAKL V0209999C000019999999N0150001N1+03001+01161100671ADDAA124000591GF107991071001999999071001IA2240+02609KA1120N+03001MA1999999095701MD1999999-0101OA150600461REMSYN106AAXX  13064 61214 12965 70000 10300 20116 39570 40067 69944 87070 333 02600 20300 51104 55093 59010 87465;
0233612140999992000091606004+18430+001340FM-12+0459GAKL V0201401N002112200019N0100001N1+03001+01781101001ADDAA199000091GF103991031001999999041001IA2240+02409KA1120N+02841MA1999999096021MD1999999+0201OA150600511REMSYN100AAXX  16064 61214 32960 31404 10300 20178 39602 40100 83040 333 02400 20284 51304 55107 58020 83365;EQDQ01  00002PRCP99
0220612140999992000091706004+18430+001340FM-12+0459GAKL V0209999C000019999999N0150001N1+02401+01861100681ADDAA124025991GF105991031001999999041021IA2240+02509KA1120N+02401MA1999999095801MD1999999-0221OA150600361REMSYN106AAXX  17064 61214 12965 50000 10240 20186 39580 40068 60264 83042 333 02500 20240 50754 55073 59022 83365;
0233612140999992000091906004+18430+001340FM-12+0459GAKL V0209999C000012200019N0150001N1+02741+01661100981ADDAA199000091GF103991031001999999041001IA2240+02309KA1120N+02721MA1999999095971MD1999999-0151OA150600461REMSYN100AAXX  19064 61214 32965 30000 10274 20166 39597 40098 83040 333 02300 20272 50704 55097 59015 83365;EQDQ01  00002PRCP99
0249612140999992000092006004+18430+001340FM-12+0459GAKL V0203201N002119999999N0150001N1+02571+01801100961ADDAA199000091GF106991051001999999071021IA2240+02509KA1120N+99999MA1999999095911MD1999999-0061OA150600311REMSYN100AAXX  20064 61214 32965 63204 10257 20180 39591 40096 85072 333 02500 20270 50524 55062 59006 85465;EQDQ01  00002PRCP99Q02 +02702ATMN  
0249612140999992000092106004+18430+001340FM-12+0459GAKL V0202601N005119999999N0150001N1+02901+01291101051ADDAA199000091GF105991051001999999041001IA2240+02509KA1120N+02901MA1999999096051MD1999999+0141OA150699999REMSYN100AAXX  21064 61214 32965 52610 10290 20129 39605 40105 85040 333 02500 20290 51024 55089 58014 84365;EQDQ01  00002PRCP99Q02  00412WGOSPD
0251612140999992000092206004+18430+001340FM-12+0459GAKL V0200401N003112200019N0030001N1+02801+00841100721ADDAA199000091AY101061AY201061GA1001+999999999GF100991001001999999001001IA2240+02409KA1120N+02751MA1999999095751MW1061OA150600461REMSYN094AAXX  22064 61214 31930 00406 10280 20084 39575 40072 70600 333 02400 20275 51204 55090 59030;EQDQ01  00002PRCP99
0249612140999992000092306004+18430+001340FM-12+0459GAKL V0200401N006212200019N0150001N1+02741-00091100871ADDAA199000091GF101991001001999999001021IA2240+02409KA1120N+02741MA1999999095881MD1999999+0131OA150699999REMSYN100AAXX  23064 61214 32965 10412 10274 21009 39588 40087 80002 333 02400 20274 51914 55098 58013 81075;EQDQ01  00002PRCP99Q02  00462WGOSPD
0233612140999992000092506004+18430+001340FM-12+0459GAKL V0209999C000012200019N0150001N1+02621+01451100981ADDAA199000091GF101991001001999999001021IA2240+02409KA1120N+02621MA1999999096061MD1999999+0061OA150600461REMSYN100AAXX  25064 61214 32965 10000 10262 20145 39606 40098 80002 333 02400 20262 51094 55097 58006 81075;EQDQ01  00002PRCP99
0249612140999992000092906004+18430+001340FM-12+0459GAKL V0200401N004119999999N0150001N1+02851+01481100861ADDAA199000091GF107991001001999999001021IA2240+02409KA1120N+02851MA1999999095861MD1999999-0211OA150699999REMSYN100AAXX  29064 61214 32965 70408 10285 20148 39586 40086 80002 333 02400 20285 50864 55042 59021 87075;EQDQ01  00002PRCP99Q02  00212WGOSPD
0271612140999992000100206004+18430+001340FM-12+0459GAKL V0200401N003112200019N0150001N1+02851+01681100931ADDAA199000091GA1011+045009039GF103991011001999999041021IA2240+02509KA1120N+02851MA1999999095941MD1999999-0051OA150699999REMSYN106AAXX  02064 61214 32965 30406 10285 20168 39594 40093 81042 333 02500 20285 51184 55053 59005 81365 83075;EQDQ01  00002PRCP99Q02  00262WGOSPD
0223612140999992000100506004+18430+001340FM-12+0459GAKL V0209999C000012200019N0150001N1+02501+00131100711ADDAA199000091GA1001+999999999GF100991001001999999001001IA2240+02209KA1120N+02501MA1999999095701OA150600511REMSYN088AAXX  05064 61214 32965 00000 10250 20013 39570 40071 333 02200 20250 51264 55102 58014;EQDQ01  00002PRCP99
0183612140999992000100512004+18430+001340FM-12+0459GAKL V0202801N005112200019N0150001N1+03801+00361100631ADDAA199000091GA1001+999999999GF100991001001999999001001MA1999999095691MD1999999+0081REMSYN070AAXX  05124 61214 32965 02810 10380 20036 39569 40063 333 0//00 58008;EQDQ01  00002PRCP99
0233612140999992000100606004+18430+001340FM-12+0459GAKL V0209999C000012200019N0150001N1+02661+00061100731ADDAA199000091GF102991021001999999041001IA2240+02309KA1120N+02661MA1999999095731MD1999999+0051OA150600511REMSYN100AAXX  06064 61214 32965 20000 10266 20006 39573 40073 82040 333 02300 20266 51454 55102 58005 82365;EQDQ01  00002PRCP99
0233612140999992000100706004+18430+001340FM-12+0459GAKL V0203601N003112200019N0150001N1+02701+02201101041ADDAA199000091GF102991021001999999041001IA2240+02309KA1120N+02701MA1999999096041MD1999999+0121OA150600511REMSYN100AAXX  07064 61214 32965 23606 10270 20220 39604 40104 82040 333 02300 20270 51494 55101 58012 82365;EQDQ01  00002PRCP99
0233612140999992000100806004+18430+001340FM-12+0459GAKL V0209999C000012200019N0150001N1+02821+01071100921ADDAA199000091GF103991031001999999041001IA2240+02609KA1120N+02801MA1999999095901MD1999999+0011OA150600511REMSYN100AAXX  08064 61214 32965 30000 10282 20107 39590 40092 83040 333 02600 20280 51254 55103 58001 83075;EQDQ01  00002PRCP99
0233612140999992000100906004+18430+001340FM-12+0459GAKL V0209999C000012200019N0150001N1+02661+01071100801ADDAA199000091GF103991031001999999041001IA2240+02509KA1120N+02651MA1999999095811MD1999999-0091OA150600461REMSYN100AAXX  09064 61214 32965 30000 10266 20107 39581 40080 83040 333 02500 20265 51404 55098 59009 83365;EQDQ01  00002PRCP99
0248612140999992000101106004+18430+001340FM-12+0459GAKL V0209999C000012200019N0040001N1+02601+01661100981ADDAA124000191AY111061AY211061GF104991021001999999041021IA2240+02409KA1120N+02601MA1999999095931MD1999999-0151MW1061OA150600411REMSYN112AAXX  11064 61214 /1940 40000 10260 20166 39593 40098 69924 70611 82042 333 02400 20260 50904 55080 59015 82365;
0249612140999992000101306004+18430+001340FM-12+0459GAKL V0200401N006219999999N0150001N1+02701+00941101071ADDAA199000091GF107991071001999999041001IA2240+02409KA1120N+02701MA1999999096031MD1999999+0081OA150699999REMSYN100AAXX  13064 61214 32965 70412 10270 20094 39603 40107 87040 333 02400 20270 51124 55089 58008 87365;EQDQ01  00002PRCP99Q02  00412WGOSPD
0249612140999992000101506004+18430+001340FM-12+0459GAKL V0200401N006219999999N0150001N1+02651+00621100951ADDAA199000091GF107991071001999999041001IA2240+02309KA1120N+02651MA1999999095931MD1999999-0021OA150699999REMSYN100AAXX  15064 61214 32965 70412 10265 20062 39593 40095 87040 333 02300 20265 51804 55078 59002 87365;EQDQ01  00002PRCP99Q02  00362WGOSPD
0233612140999992000101606004+18430+001340FM-12+0459GAKL V0203601N002119999999N0150001N1+02501+01201101151ADDAA199000091GF105991051001999999041001IA2240+02409KA1120N+02501MA1999999096081MD1999999+0151OA150600411REMSYN100AAXX  16064 61214 32965 53604 10250 20120 39608 40115 85040 333 02400 20250 51304 55084 58015 85365;EQDQ01  00002PRCP99
0271612140999992000101706004+18430+001340FM-12+0459GAKL V0203601N002119999999N0150001N1+02701+00941101201ADDAA199000091GA1041+045009039GF105991041001999999041021IA2240+02409KA1120N+02501MA1999999096151MD1999999-0111OA150699999REMSYN106AAXX  17064 61214 32965 53604 10270 20094 39615 40120 84042 333 02400 20250 51044 55015 59011 84365 83075;EQDQ01  00002PRCP99Q02  00052WGOSPD
0249612140999992000101906004+18430+001340FM-12+0459GAKL V0203601N005112200019N0150001N1+02551-00071100941ADDAA199000091GF103991031001999999041001IA2240+02209KA1120N+02551MA1999999095921MD1999999-0201OA150699999REMSYN100AAXX  19064 61214 32965 33610 10255 21007 39592 40094 83040 333 02200 20255 51404 55098 59020 83365;EQDQ01  00002PRCP99Q02  00462WGOSPD
0239612140999992000102006004+18430+001340FM-12+0459GAKL V0203601N002112200019N0150001N1+02101+00221101141ADDAA199000091GA1001+999999999GF100991001001999999001001IA2240+02409KA1120N+99999MA1999999096061OA150600461REMSYN088AAXX  20064 61214 32965 03604 10210 20022 39606 40114 333 02400 20255 51534 55093 58014;EQDQ01  00002PRCP99Q02 +02552ATMN  
0233612140999992000102306004+18430+001340FM-12+0459GAKL V0203601N001012200019N0150001N1+02471+00341101201ADDAA199000091GF104991041001999999041021IA2240+01909KA1120N+02101MA1999999096161MD1999999+0231OA150600411REMSYN100AAXX  23064 61214 32965 43602 10247 20034 39616 40120 84042 333 01900 20210 50984 55086 58023 84365;EQDQ01  00002PRCP99
0255612140999992000102506004+18430+001340FM-12+0459GAKL V0203601N002112200019N0150001N1+02351+00501101021ADDAA199000091GA1011+045009039GF104991999999999999999999IA2240+02309KA1120N+02301MA1999999095971MD1999999-0041OA150600361REMSYN106AAXX  25064 61214 32965 43604 10235 20050 39597 40102 95042 333 02300 20230 51024 55070 59004 81365 83075;EQDQ01  00002PRCP99
0223612140999992000102606004+18430+001340FM-12+0459GAKL V0209999C000012200019N0150001N1+02311+00551101121ADDAA199000091GA1001+999999999GF100991001001999999001001IA2240+02209KA1120N+02301MA1999999096051OA150600311REMSYN088AAXX  26064 61214 32965 00000 10231 20055 39605 40112 333 02200 20230 51164 55068 58005;EQDQ01  00002PRCP99
0233612140999992000102806004+18430+001340FM-12+0459GAKL V0209999C000012200019N0150001N1+02101-00611101141ADDAA199000091GF102991001001999999001021IA2240+02209KA1120N+02051MA1999999096051MD1999999-0141OA150600461REMSYN100AAXX  28064 61214 32965 20000 10210 21061 39605 40114 80002 333 02200 20205 51154 55097 59014 82075;EQDQ01  00002PRCP99
0233612140999992000102906004+18430+001340FM-12+0459GAKL V0209999C000012200019N0150001N1+02201+00811101121ADDAA199000091GF103991021001999999041021IA2240+02009KA1120N+02051MA1999999096051MD1999999+0001OA150600511REMSYN100AAXX  29064 61214 32965 30000 10220 20081 39605 40112 82042 333 02000 20205 51154 55101 58000 82365;EQDQ01  00002PRCP99
0223612140999992000103006004+18430+001340FM-12+0459GAKL V0209999C000012200019N0150001N1+02181+00421101311ADDAA199000091GA1001+999999999GF100991001001999999001001IA2240+02009KA1120N+02181MA1999999096201OA150600461REMSYN088AAXX  30064 61214 32965 00000 10218 20042 39620 40131 333 02000 20218 51184 55094 58003;EQDQ01  00002PRCP99
0223612140999992000103106004+18430+001340FM-12+0459GAKL V0203601N002112200019N0150001N1+02241+00181101081ADDAA199000091GA1001+999999999GF100991001001999999001001IA2240+01909KA1120N+02201MA1999999096001OA150600511REMSYN088AAXX  31064 61214 32965 03604 10224 20018 39600 40108 333 01900 20220 50924 55100 59014;EQDQ01  00002PRCP99
0233612140999992000110506004+18430+001340FM-12+0459GAKL V0200401N005112200019N0150001N1+02121-00551101241ADDAA199000091GF102991001001999999001021IA2240+01909KA1120N+02121MA1999999096191MD1999999-0021OA150600511REMSYN100AAXX  05064 61214 32965 20410 10212 21055 39619 40124 80002 333 01900 20212 51644 55104 59002 82075;EQDQ01  00002PRCP99
0239612140999992000110706004+18430+001340FM-12+0459GAKL V0209999C000012200019N0150001N1+01711-00021101191ADDAA199000091GA1001+999999999GF100991001001999999001001IA2240+01609KA1120N+99999MA1999999096061OA150600511REMSYN088AAXX  07064 61214 32965 00000 10171 21002 39606 40119 333 01600 20190 51234 55107 59004;EQDQ01  00002PRCP99Q02 +01902ATMN  
0249612140999992000110806004+18430+001340FM-12+0459GAKL V0209999C000012200019N0150001N1+01621-00141101141ADDAA199000091GF101991001001999999001021IA2240+01409KA1120N+99999MA1999999096011MD1999999+0051OA150600511REMSYN100AAXX  08064 61214 32965 10000 10162 21014 30601 40114 80002 333 01400 20168 51074 55100 58005 81075;EQDQ01  00002PRCP99Q02 +01682ATMN  
0233612140999992000111006004+18430+001340FM-12+0459GAKL V0209999C000012200019N0150001N1+02101-00111100981ADDAA199000091GF104991031001999999041021IA2240+01609KA1120N+02041MA1999999095881MD1999999+0061OA150600151REMSYN100AAXX  10064 61214 32965 40000 10210 21011 39588 40098 83042 333 01600 20204 50804 55035 58006 83365;EQDQ01  00002PRCP99
0233612140999992000111306004+18430+001340FM-12+0459GAKL V0209999C000019999999N0150001N1+02171+00081101081ADDAA199000091GF106991061001999999041021IA2240+01809KA1120N+02001MA1999999095991MD1999999+0021OA150600311REMSYN100AAXX  13064 61214 32965 60000 10217 20008 39599 40108 86042 333 01800 20200 51224 55063 58002 86365;EQDQ01  00002PRCP99
0233612140999992000111406004+18430+001340FM-12+0459GAKL V0209999C000012200019N0150001N1+01901-00381101171ADDAA199000091GF104991001001999999001021IA2240+01709KA1120N+01901MA1999999096031MD1999999+0041OA150600361REMSYN100AAXX  14064 61214 32965 40000 10190 21038 39603 40117 80002 333 01700 20190 51134 55078 58004 84075;EQDQ01  00002PRCP99
0233612140999992000111506004+18430+001340FM-12+0459GAKL V0209999C000019999999N0150001N1+02001-00161101101ADDAA199000091GF105991001001999999001021IA2240+01709KA1120N+02001MA1999999095971MD1999999+0001OA150600411REMSYN100AAXX  15064 61214 32965 50000 10200 21016 39597 40110 80002 333 01700 20200 50904 55085 58000 85075;EQDQ01  00002PRCP99
0255612140999992000111706004+18430+001340FM-12+0459GAKL V0209999C000019999999N0150001N1+02021-00321101291ADDAA199000091GA1031+045009039GF107991031001999999041021IA2240+02009KA1120N+02021MA1999999096181MD1999999+0021OA150600511REMSYN106AAXX  17064 61214 32965 70000 10202 21032 39618 40129 83042 333 02000 20202 50904 55102 58002 83365 84075;EQDQ01  00002PRCP99
0233612140999992000111806004+18430+001340FM-12+0459GAKL V0200401N002112200019N0150001N1+02041+00141101071ADDAA199000091GF102991001001999999001021IA2240+01709KA1120N+02021MA1999999095981MD1999999-0181OA150600511REMSYN100AAXX  18064 61214 32965 20404 10204 20014 39598 40107 80002 333 01700 20202 51054 55100 59018 82075;EQDQ01  00002PRCP99
0249612140999992000111906004+18430+001340FM-12+0459GAKL V0203601N001012200019N0150001N1+01951-00351101091ADDAA199000091GF102991001001999999001021IA2240+01609KA1120N+99999MA1999999095951MD1999999-0031OA150600511REMSYN100AAXX  19064 61214 32965 23602 10195 21035 39595 40109 80002 333 01600 20202 50954 55103 59003 82075;EQDQ01  00002PRCP99Q02 +02022ATMN  
0233612140999992000112006004+18430+001340FM-12+0459GAKL V0209999C000012200019N0100001N1+01821-00801101071ADDAA199000091GF102991001001999999001021IA2240+01509KA1120N+01821MA1999999096121MD1999999+0061OA150600101REMSYN100AAXX  20064 61214 32960 20000 10182 21080 39612 40107 80002 333 01500 20182 55024 55100 58006 82075;EQDQ01  00002PRCP99
0223612140999992000112106004+18430+001340FM-12+0459GAKL V0209999C000012200019N0200001N1+01851-00501101291ADDAA199000091GA1001+999999999GF100991001001999999001001IA2240+01509KA1120N+01851MA1999999096151OA150600511REMSYN088AAXX  21064 61214 32970 00000 10185 21050 39615 40129 333 01500 20185 50944 55106 58003;EQDQ01  00002PRCP99
0233612140999992000112206004+18430+001340FM-12+0459GAKL V0209999C000012200019N0150001N1+01901-00621101241ADDAA199000091GF103991001001999999001021IA2240+01509KA1120N+01801MA1999999096111MD1999999-0181OA150600511REMSYN100AAXX  22064 61214 32965 30000 10190 21062 39611 40124 80002 333 01500 20180 50984 55104 59018 83075;EQDQ01  00002PRCP99
0233612140999992000112306004+18430+001340FM-12+0459GAKL V0209999C000012200019N0150001N1+01941-00731101331ADDAA199000091GF104991001001999999001021IA2240+01409KA1120N+01941MA1999999096171MD1999999+0061OA150600461REMSYN100AAXX  23064 61214 32965 40000 10194 21073 39617 40133 80002 333 01400 20194 51284 55091 58006 84075;EQDQ01  00002PRCP99
0233612140999992000112406004+18430+001340FM-12+0459GAKL V0200401N002112200019N0150001N1+01951-00761101191ADDAA199000091GF104991001001999999001021IA2240+01609KA1120N+01951MA1999999096071MD1999999-0051OA150600411REMSYN100AAXX  24064 61214 32965 40404 10195 21076 39607 40119 80002 333 01600 20195 51004 55088 59005 84075;EQDQ01  00002PRCP99
0195612140999992000112412004+18430+001340FM-12+0459GAKL V0209999C000019999999N0150001N1+03011-00671101241ADDAA199000091GA1031+045009039GF105991031001999999041021MA1999999096151MD1999999-0031REMSYN082AAXX  24124 61214 32965 50000 10301 21067 39615 40124 83042 333 59003 83365 83075;EQDQ01  00002PRCP99
0249612140999992000112506004+18430+001340FM-12+0459GAKL V0200401N001019999999N0150001N1+01521-00651101391ADDAA199000091GF105991001001999999001021IA2240+01609KA1120N+99999MA1999999096211MD1999999+0141OA150600261REMSYN100AAXX  25064 61214 32965 50402 10152 21065 39621 40139 80002 333 01600 20195 51024 55059 58014 85075;EQDQ01  00002PRCP99Q02 +01952ATMN  
0223612140999992000112906004+18430+001340FM-12+0459GAKL V0209999C000012200019N0150001N1+01511-00621101561ADDAA199000091GA1001+999999999GF100991001001999999001001IA2240+01409KA1120N+01511MA1999999096361OA150600511REMSYN088AAXX  29064 61214 32965 00000 10151 21062 39636 40156 333 01400 20151 51344 55106 59011;EQDQ01  00002PRCP99
0233612140999992000120506004+18430+001340FM-12+0459GAKL V0209999C000012200019N0150001N1+01541-00171101531ADDAA199000091GF102991001001999999001021IA2240+01409KA1120N+01501MA1999999096321MD1999999+0011OA150600511REMSYN100AAXX  05064 61214 32965 20000 10154 21017 39632 40153 80002 333 01400 20150 51004 55102 58001 82075;EQDQ01  00002PRCP99
0195612140999992000120612004+18430+001340FM-12+0459GAKL V0200801N005110750019N0150001N1+02951-00521101481ADDAA199000091GA1061+075009019GF106991001001999999001021MA1999999096331MD1999999-0071REMSYN082AAXX  06124 61214 32965 60810 10295 21052 39633 40148 80002 333 0//00 59007 86075;EQDQ01  00002PRCP99
0277612140999992000121406004+18430+001340FM-12+0459GAKL V0200401N005119999999N0060001N1+01601+00321101611ADDAA199000091AY121061AY221061GF105991001001999999001021IA2240+01309KA1120N+01601MA1999999096371MD1999999-0011MW1061OA150699999REMSYN106AAXX  14064 61214 31956 50410 10160 20032 39637 40161 70622 80002 333 01300 20160 51324 55000 59001 85075;EQDQ01  00002PRCP99Q02  00002WGOSPD
0271612140999992000121506004+18430+001340FM-12+0459GAKL V0209999C000010450019N0150001N1+01451-00081101561ADDAA199000091GA1051+045009039GF106991051001999999041021IA2240+01209KA1120N+99999MA1999999096301MD1999999-0071OA150600151REMSYN106AAXX  15064 61214 32965 60000 10145 21008 39630 40156 85042 333 01200 20160 50904 55035 59007 85365 83075;EQDQ01  00002PRCP99Q02 +01602ATMN  
0233612140999992000121706004+18430+001340FM-12+0459GAKL V0209999C000012200019N0150001N1+01401-00201101341ADDAA199000091GF101991011001999999031001IA2240+01209KA1120N+01351MA1999999096121MD1999999-0181OA150600411REMSYN100AAXX  17064 61214 32965 10000 10140 21020 39612 40134 81030 333 01200 20135 50754 55086 59018 81365;EQDQ01  00002PRCP99
0233612140999992000121806004+18430+001340FM-12+0459GAKL V0209999C000012200019N0150001N1+01441-00251101281ADDAA199000091GF101991001001999999001021IA2240+01209KA1120N+01401MA1999999096071MD1999999-0051OA150600411REMSYN100AAXX  18064 61214 32965 10000 10144 21025 39607 40128 80002 333 01200 20140 50434 55087 59005 81075;EQDQ01  00002PRCP99
0233612140999992000121906004+18430+001340FM-12+0459GAKL V0209999C000012200019N0150001N1+01501-00601101411ADDAA199000091GF103991001001999999001021IA2240+01209KA1120N+01401MA1999999096201MD1999999+0131OA150600461REMSYN100AAXX  19064 61214 32965 30000 10150 21060 39620 40141 80002 333 01200 20140 50714 55092 58013 80075;EQDQ01  00002PRCP99
0233612140999992000122106004+18430+001340FM-12+0459GAKL V0209999C000012200019N0150001N1+01361-00721101171ADDAA199000091GF102991001001999999001021IA2240+01409KA1120N+01351MA1999999095971MD1999999-0071OA150600461REMSYN100AAXX  21064 61214 32965 20000 10136 21072 39597 40117 80002 333 01400 20135 50854 55097 59007 82075;EQDQ01  00002PRCP99
0233612140999992000122206004+18430+001340FM-12+0459GAKL V0209999C000012200019N0150001N1+01201-00791101351ADDAA199000091GF102991001001999999001021IA2240+01209KA1120N+01201MA1999999096121MD1999999+0151OA150600511REMSYN100AAXX  22064 61214 32965 20000 10120 21079 39612 40135 80002 333 01200 20120 50704 55105 58015 82075;EQDQ01  00002PRCP99
0233612140999992000122506004+18430+001340FM-12+0459GAKL V0209999C000012200019N0150001N1+01321-00801101401ADDAA199000091GF103991001001999999001021IA2240+01009KA1120N+01251MA1999999096191MD1999999-0101OA150600571REMSYN100AAXX  25064 61214 32965 30000 10132 21080 39619 40140 80002 333 01000 20125 50654 55110 59010 83075;EQDQ01  00002PRCP99
0233612140999992000122706004+18430+001340FM-12+0459GAKL V0209999C000012200019N0150001N1+01461-00501101381ADDAA199000091GF104991001001999999001021IA2240+01109KA1120N+01401MA1999999096181MD1999999+0061OA150600461REMSYN100AAXX  27064 61214 32965 40000 10146 21050 39618 40138 80002 333 01100 20140 50754 55093 58006 84075;EQDQ01  00002PRCP99
0195612140999992000122812004+18430+001340FM-12+0459GAKL V0200401N002112200019N0150001N1+02901-00511101401ADDAA199000091GA1011+075009019GF101991001001999999001021MA1999999096251MD1999999+0141REMSYN082AAXX  28124 61214 32965 10404 10290 21051 39625 40140 80002 333 0//00 58014 81075;EQDQ01  00002PRCP99
0223612140999992000122906004+18430+001340FM-12+0459GAKL V0209999C000012200019N0150001N1+01401-00131101351ADDAA199000091GA1001+999999999GF100991001001999999001001IA2240+01209KA1120N+01401MA1999999096161OA150600511REMSYN088AAXX  29064 61214 32965 00000 10140 21013 39616 40135 333 01200 20140 50754 55102 59011;EQDQ01  00002PRCP99
