0195616270999992000010100004+15380-015120FM-12+0021GOOG V0209999C000012200019N0080001N1+02151+01911100941ADDAA106000091GA1021+039009079GF102991021001999999031001MA1999999100711MD1999999-0071REMSYN082AAXX  01004 61627 32958 20000 10215 20191 30071 40094 82030 333 0//00 59007 82363;EQDQ01  00002PRCP06
0159616270999992000010103004+15380-015120FM-12+0021GOOG V0203201N002112200019N0080001N1+01901+01741100931ADDGA1021+039009079GF102991021001999999031001MA1999999100701MD1999999-0021REMSYN076AAXX  01034 61627 42958 23204 10190 20174 30070 40093 82030 333 59002 82363;
0222616270999992000010106004+15380-015120FM-12+0021GOOG V0203201N001012200019N0080001N1+01801+01651100881ADDAA106000091GF104991041001999999031001IA2240+01309KA1120N+01791MA1999999100651MD1999999-0031REMSYN100AAXX  01064 61627 32958 43202 10180 20165 30065 40088 84030 333 01300 20179 50570 55/// 59003 84363;EQDQ01  00002PRCP06
0159616270999992000010109004+15380-015120FM-12+0021GOOG V0203201N002110390019N0100001N1+01801+01651100981ADDGA1061+039009079GF106991061001999999081001MA1999999100751MD1999999-0071REMSYN076AAXX  01094 61627 42960 63204 10180 20165 30075 40098 86080 333 59007 86363;
0201616270999992000010112004+15380-015120FM-12+0021GOOG V0209999C000019999999N0100001N1+02701+01791101031ADDAA106000091GA1041+039009039GF106991041001999999031021MA1999999100801MD1999999-0011REMSYN088AAXX  01124 61627 32960 60000 10270 20179 30080 40103 84032 333 0//00 59001 84363 83073;EQDQ01  00002PRCP06
0165616270999992000010115004+15380-015120FM-12+0021GOOG V0200801N002119999999N0100001N1+03101+02131100811ADDGA1011+039009039GF106991011001999999031021MA1999999100581MD1999999-0021REMSYN082AAXX  01154 61627 42960 60804 10310 20213 30058 40081 81032 333 59002 81363 86073;
0214616270999992000010118004+15380-015120FM-12+0021GOOG V0200401N001019999999N0100001N1+03001+01941100731ADDAA106000091GA1031+039009039GF107991031001999999031021KA1120M+03101MA1999999100501MD1999999+0001REMSYN088AAXX  01184 61627 32960 70402 10300 20194 30050 40073 83032 333 10310 58000 83363 86073;EQDQ01  00002PRCP06
0159616270999992000010121004+15380-015120FM-12+0021GOOG V0209999C000010390019N0080001N1+02551+01811100861ADDGA1071+039009079GF107991071001999999071999MA1999999100631MD1999999+0021REMSYN076AAXX  01214 61627 42958 70000 10255 20181 30063 40086 8707/ 333 58002 87363;
0201616270999992000010200004+15380-015120FM-12+0021GOOG V0200401N001012200019N0080001N1+02451+01751100931ADDAA106000091GA1011+039009039GF103991011001999999031021MA1999999100701MD1999999-0011REMSYN088AAXX  02004 61627 32958 30402 10245 20175 30070 40093 81032 333 0//00 59001 81363 83073;EQDQ01  00002PRCP06
0222616270999992000010206004+15380-015120FM-12+0021GOOG V0200401N002119999999N0080001N1+02101+01531100921ADDAA106000091GF105991051001999999031001IA2240+01409KA1120N+02101MA1999999100691MD1999999+0041REMSYN100AAXX  02064 61627 32958 50404 10210 20153 30069 40092 85030 333 01400 20210 50650 55/// 58004 85363;EQDQ01  00002PRCP06
0159616270999992000010209004+15380-015120FM-12+0021GOOG V0200401N002110390019N0100001N1+02201+01781101071ADDGA1061+039009079GF106991061001999999081001MA1999999100841MD1999999+0091REMSYN076AAXX  02094 61627 42960 60404 10220 20178 30084 40107 86080 333 58009 86363;
0195616270999992000010212004+15380-015120FM-12+0021GOOG V0200601N003119999999N0100001N1+02951+02071101131ADDAA106000091GA1041+039009079GF105991041001999999081021MA1999999100901MD1999999+0101REMSYN082AAXX  02124 61627 32960 50606 10295 20207 30090 40113 84082 333 0//00 58010 84363;EQDQ01  00002PRCP06
0214616270999992000010218004+15380-015120FM-12+0021GOOG V0201201N002119999999N0100001N1+03101+02231100831ADDAA106000091GA1021+039009039GF106991021001999999031021KA1120M+03281MA1999999100601MD1999999+0101REMSYN088AAXX  02184 61627 32960 61204 10310 20223 30060 40083 82032 333 10328 58010 82363 85073;EQDQ01  00002PRCP06
0143616270999992000010221004+15380-015120FM-12+0021GOOG V0201001N001019999999N0080001N1+02801+02051100941ADDGF105991001001999999001021MA1999999100711MD1999999+0081REMSYN076AAXX  02214 61627 42958 51002 10280 20205 30071 40094 80002 333 58008 5073/;
0195616270999992000010300004+15380-015120FM-12+0021GOOG V0209999C000012200019N0080001N1+02501+01881101031ADDAA106000091GA1031+069009019GF103991001001999999001021MA1999999100801MD1999999+0101REMSYN082AAXX  03004 61627 32958 30000 10250 20188 30080 40103 80002 333 0//00 58010 83073;EQDQ01  00002PRCP06
0216616270999992000010306004+15380-015120FM-12+0021GOOG V0209999C000012200019N0080001N1+02301+01751100981ADDAA106000091GF104991999999999999999999IA2240+01609KA1120N+02301MA1999999100751MD1999999+0061REMSYN094AAXX  03064 61627 32958 40000 10230 20175 30075 40098 333 01600 20230 50520 55/// 58006 83363;EQDQ01  00002PRCP06
0159616270999992000010309004+15380-015120FM-12+0021GOOG V0200601N001010390019N0100001N1+02401+01831101131ADDGA1051+039009079GF105991051001999999071001MA1999999100901MD1999999+0061REMSYN076AAXX  03094 61627 42960 50602 10240 20183 30090 40113 85070 333 58006 85363;
0195616270999992000010312004+15380-015120FM-12+0021GOOG V0200801N004110390019N0100001N1+02881+02171101181ADDAA106000091GA1061+039009079GF106991061001999999081001MA1999999100951MD1999999+0051REMSYN082AAXX  03124 61627 32960 60808 10288 20217 30095 40118 86080 333 0//00 58005 86363;EQDQ01  00002PRCP06
0165616270999992000010315004+15380-015120FM-12+0021GOOG V0200801N003119999999N0100001N1+03181+02271100911ADDGA1021+039009039GF106991021001999999081021MA1999999100681MD1999999+0031REMSYN082AAXX  03154 61627 42960 60806 10318 20227 30068 40091 82082 333 58003 82363 86073;
0214616270999992000010318004+15380-015120FM-12+0021GOOG V0200601N002110390019N0100001N1+03001+02211100841ADDAA106000091GA1061+039009039GF107991061001999999081021KA1120M+03181MA1999999100611MD1999999+0011REMSYN088AAXX  03184 61627 32960 70604 10300 20221 30061 40084 86082 333 10318 58001 86363 83073;EQDQ01  00002PRCP06
0179616270999992000010321004+15380-015120FM-12+0021GOOG V0200801N002110390019N0080001N1+02781+02181100981ADDAY161031GA1071+039009019GF107991071001999999071999MA1999999100751MD1999999+0041MW1601REMSYN082AAXX  03214 61627 41958 70804 10278 20218 30075 40098 7606/ 8707/ 333 58004 87463;
0208616270999992000010400004+15380-015120FM-12+0021GOOG V0200401N002110390019N0080001N1+02611+02071101101ADDAA106000791AC13C9AY161061GA1071+039009019GF107991071001999999071999MA1999999100871MD1999999+0071MW1021REMSYN094AAXX  04004 61627 11958 70404 10261 20207 30087 40110 69901 7026/ 8707/ 333 0//13 58007 87463;
0159616270999992000010403004+15380-015120FM-12+0021GOOG V0200601N002110390019N0080001N1+02481+02021101021ADDGA1071+039009019GF107991071001999999071999MA1999999100791MD1999999+0041REMSYN076AAXX  04034 61627 42958 70604 10248 20202 30079 40102 8707/ 333 58004 87463;
0215616270999992000010406004+15380-015120FM-12+0021GOOG V0200401N002119999999N0080001N1+02391+01991101021ADDAA124000791AC13I9GF107991071001999999071999IA2240+01809KA1120N+02391MA1999999100791MD1999999+0041REMSYN106AAXX  04064 61627 12958 70404 10239 20199 30079 40102 69904 8707/ 333 01818 20239 50670 55/// 58004 87363;
0159616270999992000010409004+15380-015120FM-12+0021GOOG V0200601N003110390019N0100001N1+02371+01891101101ADDGA1071+039009079GF107991071001999999071999MA1999999100871MD1999999-0031REMSYN076AAXX  04094 61627 42960 70606 10237 20189 30087 40110 8707/ 333 59003 87363;
0195616270999992000010412004+15380-015120FM-12+0021GOOG V0200601N004110390019N0100001N1+02581+02101101211ADDAA106000091GA1071+039009079GF107991071001999999071999MA1999999100981MD1999999+0031REMSYN082AAXX  04124 61627 32960 70608 10258 20210 30098 40121 8707/ 333 0//00 58003 87363;EQDQ01  00002PRCP06
0113616270999992000010415004+15380-015120FM-12+0021GOOG V0200601N003119999999N0100001N1+02601+02151101081ADDGF108991081999999999999999MA1999999100801REMSYN060AAXX  04154 61627 42960 80606 10260 20215 30080 40108 88///;
0208616270999992000010418004+15380-015120FM-12+0021GOOG V0200601N003110390019N0100001N1+02581+02171101011ADDAA106000091GA1061+039009079GF106991061001999999071001KA1120M+02611MA1999999100781MD1999999+0171REMSYN082AAXX  04184 61627 32960 60606 10258 20217 30078 40101 86070 333 10261 58017 86363;EQDQ01  00002PRCP06
0195616270999992000010500004+15380-015120FM-12+0021GOOG V0200601N002110390019N0080001N1+02251+01861101231ADDAA106000091GA1061+039009079GF106991061001999999071001MA1999999101001MD1999999+0131REMSYN082AAXX  05004 61627 32958 60604 10225 20186 30100 40123 86070 333 0//00 58013 86363;EQDQ01  00002PRCP06
0113616270999992000010503004+15380-015120FM-12+0021GOOG V0200401N002119999999N0080001N1+02111+01771101141ADDGF107991071001999999071999MA1999999100911REMSYN060AAXX  05034 61627 42958 70404 10211 20177 30091 40114 8707/;
0222616270999992000010506004+15380-015120FM-12+0021GOOG V0200401N002119999999N0080001N1+02041+01701101111ADDAA106000091GF107991071001999999071999IA2240+02009KA1120N+02041MA1999999100881MD1999999+0091REMSYN100AAXX  05064 61627 32958 70404 10204 20170 30088 40111 8707/ 333 02000 20204 50500 55/// 58009 87363;EQDQ01  00002PRCP06
0187616270999992000010509004+15380-015120FM-12+0021GOOG V0209999C000010390019N0100001N1+02001+01731101241ADDAY161031AY221031GA1071+039009079GF107991071001999999071999MA1999999101001MD1999999+0131MW1021REMSYN082AAXX  05094 61627 41960 70000 10200 20173 30100 40124 70262 8707/ 333 58013 87363;
0216616270999992000010512004+15380-015120FM-12+0021GOOG V0200801N002112200019N0100001N1+02601+01991101321ADDAA106000791AC12I9AY161061AY211061GA1041+039009079GF104991041001999999081001MA1999999101081MD1999999+0101MW1011REMSYN094AAXX  05124 61627 11960 40804 10260 20199 30108 40132 69901 70161 84080 333 0//16 58010 84363;
0159616270999992000010515004+15380-015120FM-12+0021GOOG V0200401N002112200019N0100001N1+02981+01951101031ADDGA1031+039009079GF103991031001999999031001MA1999999100851MD1999999+0051REMSYN076AAXX  05154 61627 42960 30404 10298 20195 30085 40103 83030 333 58005 83363;
0208616270999992000010518004+15380-015120FM-12+0021GOOG V0200601N002110390019N0100001N1+02881+02011101011ADDAA106000091GA1051+039009079GF105991051001999999031001KA1120M+03021MA1999999100781MD1999999+0001REMSYN082AAXX  05184 61627 32960 50604 10288 20201 30078 40101 85030 333 10302 58000 85363;EQDQ01  00002PRCP06
0199616270999992000010606004+15380-015120FM-12+0021GOOG V0200401N001012200019N0080001N1+02131+01441101111ADDAA124000791GA1001+999999999GF100991001001999999001001IA2240+01309KA1120N+02131MA1999999100881REMSYN094AAXX  06064 61627 12958 00402 10213 20144 30088 40111 69904 333 01319 20213 50680 55/// 58000;
0159616270999992000010615004+15380-015120FM-12+0021GOOG V0200401N002112200019N0100001N1+03081+02141101031ADDGA1021+039009079GF102991021001999999031001MA1999999100801MD1999999-0051REMSYN076AAXX  06154 61627 42960 20404 10308 20214 30080 40103 82030 333 59005 82363;
0208616270999992000010618004+15380-015120FM-12+0021GOOG V0200401N001012200019N0100001N1+02991+02121100931ADDAA106000091GA1031+039009079GF103991031001999999031001KA1120M+03101MA1999999100701MD1999999-0081REMSYN082AAXX  06184 61627 32960 30402 10299 20212 30070 40093 83030 333 10310 59008 83363;EQDQ01  00002PRCP06
0129616270999992000010621004+15380-015120FM-12+0021GOOG V0209999C000012200019N9999999N1+02501+01831101111ADDGA1001+999999999GF100991001001999999001001MA1999999100801REMSYN060AAXX  06214 61627 4258/ 00000 10250 20183 3008/ 40111 59002;
0183616270999992000010700004+15380-015120FM-12+0021GOOG V0209999C000012200019N0080001N1+02291+01661101241ADDAA106000091GA1001+999999999GF100991001001999999001001MA1999999101001MD1999999+0001REMSYN070AAXX  07004 61627 32958 00000 10229 20166 30100 40124 333 0//00 58000;EQDQ01  00002PRCP06
0222616270999992000010706004+15380-015120FM-12+0021GOOG V0209999C000012200019N0080001N1+01851+01361101031ADDAA106000091GF103991031001999999031001IA2240+01309KA1120N+01851MA1999999100801MD1999999-0081REMSYN100AAXX  07064 61627 32958 30000 10185 20136 30080 40103 83030 333 01300 20185 50720 55/// 59008 83363;EQDQ01  00002PRCP06
0137616270999992000010709004+15380-015120FM-12+0021GOOG V0209999C000019999999N0100001N1+01921+01391101131ADDGA1031+039009079MD1999999-0071REMSYN076AAXX  07094 61627 42960 /3000 10192 20139 32009 40113 83030 333 59007 83363;EQDQ01+020091APOSP 
0195616270999992000010712004+15380-015120FM-12+0021GOOG V0200401N002110390019N0100001N1+02951+02051101151ADDAA106000091GA1051+039009079GF105991051001999999031001MA1999999100921MD1999999-0081REMSYN082AAXX  07124 61627 32960 50404 10295 20205 30092 40115 85030 333 0//00 59008 85363;EQDQ01  00002PRCP06
0159616270999992000010715004+15380-015120FM-12+0021GOOG V0209999C000012200019N0100001N1+03281+02271100921ADDGA1021+039009079GF102991021001999999031001MA1999999100691MD1999999-0111REMSYN076AAXX  07154 61627 42960 20000 10328 20227 30069 40092 82030 333 59011 82363;
0214616270999992000010718004+15380-015120FM-12+0021GOOG V0209999C000012200019N0100001N1+03211+02211100831ADDAA106000091GA1011+039009039GF103991011001999999031021KA1120M+03321MA1999999100601MD1999999-0101REMSYN088AAXX  07184 61627 32960 30000 10321 20221 30060 40083 81032 333 10332 59010 81363 83073;EQDQ01  00002PRCP06
0147616270999992000010721004+15380-015120FM-12+0021GOOG V0203601N002112200019N0080001N1+02701+02071101031ADDGA1001+999999999GF100991001001999999001001MA1999999100801MD1999999-0081REMSYN064AAXX  07214 61627 42958 03604 10270 20207 30080 40103 333 59008;
0183616270999992000010800004+15380-015120FM-12+0021GOOG V0203601N001012200019N0080001N1+02411+01801101131ADDAA106000091GA1001+999999999GF100991001001999999001001MA1999999100901MD1999999-0101REMSYN070AAXX  08004 61627 32958 03602 10241 20180 30090 40113 333 0//00 59010;EQDQ01  00002PRCP06
0159616270999992000010803004+15380-015120FM-12+0021GOOG V0203201N002112200019N0080001N1+02111+01601101091ADDGA1021+069009019GF102991001001999999001021MA1999999100861MD1999999-0061REMSYN076AAXX  08034 61627 42958 23204 10211 20160 30086 40109 80002 333 59006 82073;
0159616270999992000010809004+15380-015120FM-12+0021GOOG V0203601N002112200019N0100001N1+01831+01421101221ADDGA1031+039009079GF103991031001999999081001MA1999999100991MD1999999+0091REMSYN076AAXX  08094 61627 42960 33604 10183 20142 30099 40122 83080 333 58009 83363;
0195616270999992000010812004+15380-015120FM-12+0021GOOG V0203601N002112200019N0100001N1+02781+02161101251ADDAA106000091GA1031+039009079GF104991031001999999081021MA1999999101011MD1999999+0091REMSYN082AAXX  08124 61627 32960 43604 10278 20216 30101 40125 83082 333 0//00 58009 83363;EQDQ01  00002PRCP06
0159616270999992000010815004+15380-015120FM-12+0021GOOG V0203601N002112200019N0100001N1+03101+02411101031ADDGA1031+039009079GF103991031001999999031001MA1999999100801MD1999999+0111REMSYN076AAXX  08154 61627 42960 33604 10310 20241 30080 40103 83030 333 58011 83363;
0208616270999992000010818004+15380-015120FM-12+0021GOOG V0203201N001012200019N0100001N1+03011+02351100961ADDAA106000091GA1011+039009079GF101991011001999999031001KA1120M+03121MA1999999100731MD1999999+0131REMSYN082AAXX  08184 61627 32960 13202 10301 20235 30073 40096 81030 333 10312 58013 81363;EQDQ01  00002PRCP06
0183616270999992000010900004+15380-015120FM-12+0021GOOG V0209999C000012200019N0080001N1+02161+01661101241ADDAA106000091GA1001+999999999GF100991001001999999001001MA1999999101001MD1999999+0101REMSYN070AAXX  09004 61627 32958 00000 10216 20166 30100 40124 333 0//00 58010;EQDQ01  00002PRCP06
0147616270999992000010909004+15380-015120FM-12+0021GOOG V0209999C000012200019N0100001N1+01701+01351101221ADDGA1001+999999999GF100991001001999999001001MA1999999100991MD1999999+0001REMSYN064AAXX  09094 61627 42960 00000 10170 20135 30099 40122 333 58000;
0195616270999992000010912004+15380-015120FM-12+0021GOOG V0200401N002112200019N0100001N1+02651+99999101251ADDAA106000091GA1031+039009079GF103991031001999999031001MA1999999101011MD1999999+0001REMSYN082AAXX  09124 61627 32960 30404 10265 20/05 30101 40125 83030 333 0//00 58000 83363;EQDQ01  00002PRCP06
0203616270999992000010918004+15380-015120FM-12+0021GOOG V0200401N001012200019N0100001N1+03041+02271999999ADDAA106000091GA1011+039009079GF101991011001999999081001KA1120M+03141MD1999999-0021REMSYN076AAXX  09184 61627 32960 10402 10304 20227 38070 81080 333 10314 59002 81363;EQDQ01+080703APOSP Q02  00002PRCP06
0147616270999992000010921004+15380-015120FM-12+0021GOOG V0200401N001012200019N0080001N1+02451+01881101041ADDGA1001+999999999GF100991001001999999001001MA1999999100811MD1999999-0091REMSYN064AAXX  09214 61627 42958 00402 10245 20188 30081 40104 333 59009;
0183616270999992000011000004+15380-015120FM-12+0021GOOG V0203601N002112200019N0080001N1+02251+01771101131ADDAA106000091GA1001+999999999GF100991001001999999001001MA1999999100901MD1999999-0101REMSYN070AAXX  10004 61627 32958 03604 10225 20177 30090 40113 333 0//00 59010;EQDQ01  00002PRCP06
0147616270999992000011009004+15380-015120FM-12+0021GOOG V0200401N001012200019N0080001N1+01881+01561101131ADDGA1001+999999999GF100991001001999999001001MA1999999100901MD1999999-0091REMSYN064AAXX  10094 61627 42958 00402 10188 20156 30090 40113 333 59009;
0183616270999992000011012004+15380-015120FM-12+0021GOOG V0200601N003112200019N0100001N1+02981+02361101151ADDAA106000091GA1001+999999999GF100991001001999999001001MA1999999100921MD1999999-0091REMSYN070AAXX  10124 61627 32960 00606 10298 20236 30092 40115 333 0//00 59009;EQDQ01  00002PRCP06
0159616270999992000011015004+15380-015120FM-12+0021GOOG V0209999C000012200019N0100001N1+03301+02611100921ADDGA1021+069009019GF102991001001999999001021MA1999999100691MD1999999-0071REMSYN076AAXX  10154 61627 42960 20000 10330 20261 30069 40092 80002 333 59007 82073;
0208616270999992000011018004+15380-015120FM-12+0021GOOG V0209999C000012200019N0100001N1+03251+02551100831ADDAA106000091GA1011+069009019GF101991001001999999001011KA1120M+03361MA1999999100601MD1999999-0111REMSYN082AAXX  10184 61627 32960 10000 10325 20255 30060 40083 80001 333 10336 59011 81073;EQDQ01  00002PRCP06
0212616270999992000011106004+15380-015120FM-12+0021GOOG V0200401N001012200019N0080001N1+02131+01881101031ADDAA106000091GA1001+999999999GF100991001001999999001001IA2240+00909KA1120N+02131MA1999999100801REMSYN088AAXX  11064 61627 32958 00402 10213 20188 30080 40103 333 00900 20213 50690 55/// 58004;EQDQ01  00002PRCP06
0147616270999992000011109004+15380-015120FM-12+0021GOOG V0200401N003112200019N0100001N1+02151+01851101171ADDGA1001+999999999GF100991001001999999001001MA1999999100941MD1999999+0041REMSYN064AAXX  11094 61627 42960 00406 10215 20185 30094 40117 333 58004;
0183616270999992000011112004+15380-015120FM-12+0021GOOG V0200401N002112200019N0100001N1+02861+02341101241ADDAA106000091GA1001+999999999GF100991001001999999001001MA1999999101001MD1999999+0081REMSYN070AAXX  11124 61627 32960 00404 10286 20234 30100 40124 333 0//00 58008;EQDQ01  00002PRCP06
0147616270999992000011115004+15380-015120FM-12+0021GOOG V0200401N003112200019N0100001N1+03231+02641100971ADDGA1001+999999999GF100991001001999999001001MA1999999100741MD1999999+0051REMSYN064AAXX  11154 61627 42960 00406 10323 20264 30074 40097 333 58005;
0212616270999992000011118004+15380-015120FM-12+0021GOOG V0200601N002112200019N0100001N1+03161+01012100931ADDAA106000091GA1001+999999999GF100991001001999999001001KA1120M+03281MA1999999100701MD1999999+0101REMSYN070AAXX  11184 61627 32960 00604 10316 20101 30070 40093 333 10328 58010;EQDQ01+001013ATOD  Q02  00002PRCP06
0147616270999992000011121004+15380-015120FM-12+0021GOOG V0200401N001012200019N0080001N1+02651+00891101061ADDGA1001+999999999GF100991001001999999001001MA1999999100831MD1999999+0121REMSYN064AAXX  11214 61627 42958 00402 10265 20089 30083 40106 333 58012;
0183616270999992000011200004+15380-015120FM-12+0021GOOG V0200601N002112200019N0080001N1+02401+00441101211ADDAA106000091GA1001+999999999GF100991001001999999001001MA1999999100981MD1999999+0171REMSYN070AAXX  12004 61627 32958 00604 10240 20044 30098 40121 333 0//00 58017;EQDQ01  00002PRCP06
0159616270999992000011209004+15380-015120FM-12+0021GOOG V0200401N001012200019N0100001N1+02121+00121101291ADDGA1031+069009019GF103991001001999999001021MA1999999101051MD1999999+0111REMSYN076AAXX  12094 61627 42960 30402 10212 20012 30105 40129 80002 333 58011 83073;
0195616270999992000011212004+15380-015120FM-12+0021GOOG V0200601N003112200019N0100001N1+02821+00461101311ADDAA106000091GA1041+069009019GF104991001001999999001021MA1999999101071MD1999999+0071REMSYN082AAXX  12124 61627 32960 40606 10282 20046 30107 40131 80002 333 0//00 58007 84073;EQDQ01  00002PRCP06
0159616270999992000011215004+15380-015120FM-12+0021GOOG V0200401N003112200019N0100001N1+03221+00751101041ADDGA1041+069009019GF104991001001999999001021MA1999999100811MD1999999+0071REMSYN076AAXX  12154 61627 42960 40406 10322 20075 30081 40104 80002 333 58007 84073;
0208616270999992000011218004+15380-015120FM-12+0021GOOG V0200401N002112200019N0100001N1+03111+00731100951ADDAA106000091GA1021+069009019GF102991001001999999001021KA1120M+03281MA1999999100721MD1999999+0021REMSYN082AAXX  12184 61627 32960 20404 10311 20073 30072 40095 80002 333 10328 58002 82073;EQDQ01  00002PRCP06
0147616270999992000011221004+15380-015120FM-12+0021GOOG V0209999C000012200019N0080001N1+02651+00671101131ADDGA1001+999999999GF100991001001999999001001MA1999999100901MD1999999+0071REMSYN064AAXX  12214 61627 42958 00000 10265 20067 30090 40113 333 58007;
0147616270999992000011303004+15380-015120FM-12+0021GOOG V0200401N002112200019N0080001N1+02101+00301101181ADDGA1001+999999999GF100991001001999999001001MA1999999100951MD1999999+0061REMSYN064AAXX  13034 61627 42958 00404 10210 20030 30095 40118 333 58006;
0212616270999992000011306004+15380-015120FM-12+0021GOOG V0200401N002112200019N0080001N1+01801+00131101151ADDAA106000091GA1001+999999999GF100991001001999999001001IA2240+01309KA1120N+01801MA1999999100921REMSYN088AAXX  13064 61627 32958 00404 10180 20013 30092 40115 333 01300 20180 50820 55/// 58010;EQDQ01  00002PRCP06
0147616270999992000011309004+15380-015120FM-12+0021GOOG V0200401N003112200019N0100001N1+01901-00051101311ADDGA1001+999999999GF100991001001999999001001MA1999999101071MD1999999+0021REMSYN064AAXX  13094 61627 42960 00406 10190 21005 30107 40131 333 58002;
0183616270999992000011312004+15380-015120FM-12+0021GOOG V0200401N002112200019N0100001N1+02701+00241101321ADDAA106000091GA1001+999999999GF100991001001999999001001MA1999999101081MD1999999+0011REMSYN070AAXX  13124 61627 32960 00404 10270 20024 30108 40132 333 0//00 58001;EQDQ01  00002PRCP06
0147616270999992000011315004+15380-015120FM-12+0021GOOG V0200401N002112200019N0100001N1+03131+00381100981ADDGA1001+999999999GF100991001001999999001001MA1999999100751MD1999999-0061REMSYN064AAXX  13154 61627 42960 00404 10313 20038 30075 40098 333 59006;
0208616270999992000011318004+15380-015120FM-12+0021GOOG V0200401N002112200019N0100001N1+03081+00151100941ADDAA106000091GA1021+069009019GF102991001001999999001021KA1120M+03151MA1999999100711MD1999999-0011REMSYN082AAXX  13184 61627 32960 20404 10308 20015 30071 40094 80002 333 10315 59001 82073;EQDQ01  00002PRCP06
0151616270999992000011321004+15380-015120FM-12+002199999V0200401N001012200019N0080001N1+02551+00081101111ADDGA1001+999999999GF100991001001999999001001MA1999999100881MD1999999-0021REMSYN068    AAXX  13214 61627 42958 00402 10255 20008 30088 40111 333 59002;
0187616270999992000011400004+15380-015120FM-12+002199999V0200401N002112200019N0080001N1+02241-00081101241ADDAA199000091GA1001+999999999GF100991001001999999001001MA1999999101001MD1999999-0021REMSYN074    AAXX  14004 61627 32958 00404 10224 21008 30100 40124 333 0//00 59002;EQDQ01  00002PRCP99
0230616270999992000011406004+15380-015120FM-12+002199999V0200401N002112200019N0080001N1+01681-00181101071ADDAA199000091GA1001+999999999GF100991001001999999001001IA2240+01309KA1120N+01681MA1999999100841MD1999999-0081REMSYN092    AAXX  14064 61627 32958 00404 10168 21018 30084 40107 333 01300 20168 30780 55/// 59008;EQDQ01  00002PRCP99
0151616270999992000011409004+15380-015120FM-12+002199999V0200401N002112200019N0100001N1+01731+00171101371ADDGA1001+999999999GF100991001001999999001001MA1999999100911MD1999999-0161REMSYN068    AAXX  14094 61627 42960 00404 10173 20017 30091 40137 333 59016;
0187616270999992000011412004+15380-015120FM-12+002199999V0200401N002112200019N0100001N1+02651+00291101051ADDAA199000091GA1001+999999999GF100991001001999999001001MA1999999100971MD1999999-0111REMSYN074    AAXX  14124 61627 32960 00404 10265 20029 30097 40105 333 0//00 59011;EQDQ01  00002PRCP99
0151616270999992000011415004+15380-015120FM-12+002199999V0200401N002112200019N0100001N1+03041+00141100871ADDGA1001+999999999GF100991001001999999001001MA1999999100641MD1999999-0111REMSYN068    AAXX  14154 61627 42960 00404 10304 20014 30064 40087 333 59011;
0200616270999992000011418004+15380-015120FM-12+002199999V0200401N001012200019N0100001N1+03001+00131100801ADDAA199000091GA1001+999999999GF100991001001999999001001KA1120M+03101MA1999999100571MD1999999-0141REMSYN074    AAXX  14184 61627 32960 00402 10300 20013 30057 40080 333 10310 59014;EQDQ01  00002PRCP99
0199616270999992000011500004+15380-015120FM-12+002199999V0209999C000012200019N0080001N1+02131+00351101061ADDAA199000091GA1031+039009079GF103991031001999999031001MA1999999100831MD1999999-0171REMSYN086    AAXX  15004 61627 32958 30000 10213 20035 30083 40106 83030 333 0//00 59017 83363;EQDQ01  00002PRCP99
0163616270999992000011509004+15380-015120FM-12+002199999V0200601N001010390019N0100001N1+01831+00121101151ADDGA1071+039009079GF107991071001999999081999MA1999999100911MD1999999+0001REMSYN080    AAXX  15094 61627 42960 70602 10183 20012 30091 40115 8708/ 333 58000 87363;
0199616270999992000011512004+15380-015120FM-12+002199999V0200601N001012200019N0100001N1+02721+00331101171ADDAA199000091GA1041+039009079GF104991041001999999031001MA1999999100941MD1999999-0031REMSYN086    AAXX  15124 61627 32960 40602 10272 20033 30094 40117 84030 333 0//00 59003 84363;EQDQ01  00002PRCP99
0163616270999992000011515004+15380-015120FM-12+002199999V0203601N001010390019N0100001N1+03101+00411100941ADDGA1051+039009079GF105991051001999999031001MA1999999100711MD1999999+0071REMSYN080    AAXX  15154 61627 42960 53602 10310 20041 30071 40094 85030 333 58007 85363;
0212616270999992000011518004+15380-015120FM-12+002199999V0209999C000010390019N0100001N1+02901+00171100861ADDAA199000091GA1061+039009079GF106991061001999999071001KA1120M+03101MA1999999100631MD1999999+0061REMSYN086    AAXX  15184 61627 32960 60000 10290 20017 30063 40086 86070 333 10310 58006 86363;EQDQ01  00002PRCP99
0163616270999992000011521004+15380-015120FM-12+002199999V0209999C000010390019N0080001N1+02551+00151101031ADDGA1071+039009079GF107991071001999999071999MA1999999100801MD1999999+0081REMSYN080    AAXX  15214 61627 42958 70000 10255 20015 30080 40103 8707/ 333 58008 87363;
0199616270999992000011600004+15380-015120FM-12+002199999V0209999C000010390019N0080001N1+02401+00021101101ADDAA199000091GA1061+039009079GF106991061001999999071001MA1999999100871MD1999999+0041REMSYN086    AAXX  16004 61627 32958 60000 10240 20002 30087 40110 86070 333 0//00 58004 86363;EQDQ01  00002PRCP99
0226616270999992000011606004+15380-015120FM-12+002199999V0209999C000019999999N0080001N1+02201+00171101031ADDAA199000091GF107991071001999999071999IA2240+01209KA1120N+02101MA1999999100801MD1999999+0081REMSYN104    AAXX  16064 61627 32958 70000 10220 20017 30080 40103 8707/ 333 01200 20210 50610 55/// 58008 87363;EQDQ01  00002PRCP99
0163616270999992000011609004+15380-015120FM-12+002199999V0209999C000010390019N0100001N1+02061+00631101191ADDGA1081+039009079GF108991081001999999071999MA1999999100361MD1999999+0071REMSYN080    AAXX  16094 61627 42960 80000 10206 20063 30036 40119 8807/ 333 58007 88363;
0215616270999992000011612004+15380-015120FM-12+002199999V0200801N002112200019N0100001N1+03101+00281101261ADDAA199000091GA1021+039009079GF102991021001999999031001MA1999999101032MD1999999+0091REMSYN086    AAXX  16124 61627 32960 20804 10310 20028 30103 40126 82030 333 0//00 58009 82363;EQDQ01+101033APOSP Q02  00002PRCP99
0163616270999992000011615004+15380-015120FM-12+002199999V0200401N002112200019N0100001N1+03451+00641101011ADDGA1011+069009019GF101991001001999999001011MA1999999100781MD1999999+0071REMSYN080    AAXX  16154 61627 42960 10404 10345 20064 30078 40101 80001 333 58007 81073;
0176616270999992000011621004+15380-015120FM-12+002199999V0203601N001012200019N0080001N1+02811+00471103002ADDGA1041+039009079GF104991999999999999999999MA1999999100741MD1999999+0641REMSYN074    AAXX  16214 61627 42958 43602 10281 20047 30074 4030/ 333 58064 84363;EQDQ01+103003APOSLP
0151616270999992000011709004+15380-015120FM-12+002199999V0200401N001012200019N0100001N1+02121+00271101371ADDGA1001+999999999GF100991001001999999001001MA1999999101131MD1999999+0171REMSYN068    AAXX  17094 61627 42960 00402 10212 20027 30113 40137 333 58017;
0187616270999992000011712004+15380-015120FM-12+002199999V0200401N002112200019N0100001N1+03181+00411101431ADDAA199000091GA1001+999999999GF100991001001999999001001MA1999999101201MD1999999+0171REMSYN074    AAXX  17124 61627 32960 00404 10318 20041 30120 40143 333 0//00 58017;EQDQ01  00002PRCP99
0137616270999992000011715004+15380-015120FM-12+002199999V0200401N001012200019N0100001N1+03591+00151101161ADDGA1001+999999999GF100991001001999999001001MA1999999100921REMSYN068    AAXX  17154 61627 42960 00402 10359 20015 30092 40116 333 58/15;
0200616270999992000011718004+15380-015120FM-12+002199999V0200401N001012200019N0100001N1+03461+00191101101ADDAA199000091GA1001+999999999GF100991001001999999001001KA1120M+03631MA1999999100671MD1999999+0141REMSYN074    AAXX  17184 61627 32960 00402 10346 20019 30067 40110 333 10363 58014;EQDQ01  00002PRCP99
0151616270999992000011721004+15380-015120FM-12+002199999V0209999C000012200019N0080001N1+02821+00521101321ADDGA1001+999999999GF100991001001999999001001MA1999999101081MD1999999+0141REMSYN068    AAXX  17214 61627 42958 00000 10282 20052 30108 40132 333 58014;
0216616270999992000011806004+15380-015120FM-12+002199999V0200401N001012200019N0080001N1+02031+00081101261ADDAA199000091GA1001+999999999GF100991001001999999001001IA2240+01509KA1120N+02031MA1999999101031REMSYN092    AAXX  18064 61627 32958 00402 10203 20008 30103 40126 333 01500 20203 50940 55/// 58014;EQDQ01  00002PRCP99
0163616270999992000011809004+15380-015120FM-12+002199999V0200401N001012200019N0100001N1+02231+00231101401ADDGA1021+039009079GF102991021001999999031001MA1999999101161MD1999999+0031REMSYN080    AAXX  18094 61627 42960 20402 10223 20023 30116 40140 82030 333 58003 82363;
0199616270999992000011812004+15380-015120FM-12+002199999V0200601N002112200019N0100001N1+03181+00381101401ADDAA199000091GA1011+039009079GF101991011001999999031001MA1999999101171MD1999999-0031REMSYN086    AAXX  18124 61627 32960 10604 10318 20038 30117 40140 81030 333 0//00 59003 81363;EQDQ01  00002PRCP99
0151616270999992000011815004+15380-015120FM-12+002199999V0203601N002112200019N0100001N1+03621+00101101081ADDGA1001+999999999GF100991001001999999001001MA1999999100851MD1999999-0081REMSYN068    AAXX  18154 61627 42960 03604 10362 20010 30085 40108 333 59008;
0200616270999992000011818004+15380-015120FM-12+002199999V0209999C000012200019N0100001N1+03601+00261100981ADDAA199000091GA1001+999999999GF100991001001999999001001KA1120M+03701MA1999999100751MD1999999-0081REMSYN074    AAXX  18184 61627 32960 00000 10360 20026 30075 40098 333 10370 59008;EQDQ01  00002PRCP99
0151616270999992000011821004+15380-015120FM-12+002199999V0209999C000012200019N0080001N1+02901+00441101121ADDGA1001+999999999GF100991001001999999001001MA1999999100891MD1999999-0191REMSYN068    AAXX  18214 61627 42958 00000 10290 20044 30089 40112 333 59019;
0151616270999992000011903004+15380-015120FM-12+002199999V0209999C000012200019N0080001N1+02401+00381101081ADDGA1001+999999999GF100991001001999999001001MA1999999100851MD1999999-0231REMSYN068    AAXX  19034 61627 42958 00000 10240 20038 30085 40108 333 59023;
0216616270999992000011906004+15380-015120FM-12+002199999V0209999C000012200019N0080001N1+02001+00321101031ADDAA199000091GA1001+999999999GF100991001001999999001001IA2240+01309KA1120N+02001MA1999999100801REMSYN092    AAXX  19064 61627 32958 00000 10200 20032 30080 40103 333 01300 20200 50600 55/// 59023;EQDQ01  00002PRCP99
0151616270999992000011909004+15380-015120FM-12+002199999V0209999C000012200019N0100001N1+02011+00241101221ADDGA1001+999999999GF100991001001999999001001MA1999999100991MD1999999-0171REMSYN068    AAXX  19094 61627 42960 00000 10201 20024 30099 40122 333 59017;
0187616270999992000011912004+15380-015120FM-12+002199999V0200401N002112200019N0100001N1+03181+00301101231ADDAA199000091GA1001+999999999GF100991001001999999001001MA1999999101001MD1999999-0171REMSYN074    AAXX  19124 61627 32960 00404 10318 20030 30100 40123 333 0//00 59017;EQDQ01  00002PRCP99
0159616270999992000011915004+15380-015120FM-12+0021GOOG V0200401N002112200019N0100001N1+03601+00521100931ADDGA1031+069009019GF103991001001999999001011MA1999999100701MD1999999-0151REMSYN076AAXX  19154 61627 42960 30404 10360 20052 30070 40093 80001 333 59015 83073;
0196616270999992000011918004+15380-015120FM-12+0021GOOG V0200401N001012200019N0100001N1+03581+00481100841ADDAA199000091GA1001+999999999GF100991001001999999001001KA1120M+03711MA1999999100611MD1999999-0141REMSYN070AAXX  19184 61627 32960 00402 10358 20048 30061 40084 333 10371 59014;EQDQ01  00002PRCP99
0159616270999992000011921004+15380-015120FM-12+0021GOOG V0200401N001012200019N0080001N1+02901+00281100971ADDGA1041+069009019GF104991001001999999001021MA1999999100741MD1999999-0151REMSYN076AAXX  19214 61627 42958 40402 10290 20028 30074 40097 80002 333 59015 84073;
0195616270999992000012000004+15380-015120FM-12+0021GOOG V0203601N002112200019N0080001N1+02601+00371101071ADDAA199000091GA1021+069009019GF102991001001999999001021MA1999999100841MD1999999-0131REMSYN082AAXX  20004 61627 32958 23604 10260 20037 30084 40107 80002 333 0//00 59013 82073;EQDQ01  00002PRCP99
0159616270999992000012009004+15380-015120FM-12+0021GOOG V0200401N001012200019N0100001N1+02021+00111101131ADDGA1031+069009019GF103991001001999999001021MA1999999100901MD1999999-0091REMSYN076AAXX  20094 61627 42960 30402 10202 20011 30090 40113 80002 333 59009 83073;
0195616270999992000012012004+15380-015120FM-12+0021GOOG V0200801N002112200019N0100001N1+03181+00411101221ADDAA199000091GA1041+069009019GF104991001001999999001021MA1999999100991MD1999999-0011REMSYN082AAXX  20124 61627 32960 40804 10318 20041 30099 40122 80002 333 0//00 59001 84073;EQDQ01  00002PRCP99
0159616270999992000012015004+15380-015120FM-12+0021GOOG V0200401N001010690019N0100001N1+03701+00051100931ADDGA1051+069009019GF105991001001999999001021MA1999999100701MD1999999+0001REMSYN076AAXX  20154 61627 42960 50402 10370 20005 30070 40093 80002 333 58000 85073;
0208616270999992000012018004+15380-015120FM-12+0021GOOG V0203201N001012200019N0100001N1+03621+00101100871ADDAA199000091GA1041+069009019GF104991001001999999001021KA1120M+03801MA1999999100641MD1999999+0031REMSYN082AAXX  20184 61627 32960 43202 10362 20010 30064 40087 80002 333 10380 58003 84073;EQDQ01  00002PRCP99
0159616270999992000012021004+15380-015120FM-12+0021GOOG V0203601N001012200019N0080001N1+02921+00181101021ADDGA1021+069009019GF102991001001999999001021MA1999999100791MD1999999+0051REMSYN076AAXX  20214 61627 42958 23602 10292 20018 30079 40102 80002 333 58005 82073;
0212616270999992000012106004+15380-015120FM-12+0021GOOG V0209999C000012200019N0080001N1+01801+00231101071ADDAA199000091GA1001+999999999GF100991001001999999001001IA2240+01109KA1120N+01801MA1999999100841REMSYN088AAXX  21064 61627 32958 00000 10180 20023 30084 40107 333 01100 20180 50770 55/// 58007;EQDQ01  00002PRCP99
0159616270999992000012109004+15380-015120FM-12+0021GOOG V0209999C000012200019N0100001N1+01901+00201101241ADDGA1031+069009019GF103991001001999999001021MA1999999101001MD1999999+0101REMSYN076AAXX  21094 61627 42960 30000 10190 20020 30100 40124 80002 333 58010 83073;
0195616270999992000012112004+15380-015120FM-12+0021GOOG V0201201N001012200019N0100001N1+03101+00421101271ADDAA199000091GA1031+069009019GF103991001001999999001021MA1999999101041MD1999999+0051REMSYN082AAXX  21124 61627 32960 31202 10310 20042 30104 40127 80002 333 0//00 58005 83073;EQDQ01  00002PRCP99
0137616270999992000012115004+15380-015120FM-12+0021GOOG V0209999C000012200019N0100001N1+03551+00521101041ADDGF104991001001999999001021MA1999999100811MD1999999+0111REMSYN070AAXX  21154 61627 42960 40000 10355 20052 30081 40104 80002 333 58011;
0208616270999992000012118004+15380-015120FM-12+0021GOOG V0209999C000012200019N0100001N1+03511+00571101011ADDAA199000091GA1021+069009019GF102991001001999999001021KA1120M+03611MA1999999100781MD1999999+0141REMSYN082AAXX  21184 61627 32960 20000 10351 20057 30078 40101 80002 333 10361 58014 82073;EQDQ01  00002PRCP99
0222616270999992000012206004+15380-015120FM-12+0021GOOG V0209999C000012200019N0100001N1+02001+00341101371ADDAA199000091GF102991001001999999001021IA2240+01109KA1120N+02001MA1999999101081MD1999999+0241REMSYN100AAXX  22064 61627 32960 20000 10200 20034 30108 40137 80002 333 01100 20200 50670 55/// 58024 82073;EQDQ01  00002PRCP99
0159616270999992000012209004+15380-015120FM-12+0021GOOG V0209999C000012200019N0100001N1+02001+00181101261ADDGA1041+069009019GF104991001001999999001021MA1999999101021MD1999999+0021REMSYN076AAXX  22094 61627 42960 40000 10200 20018 30102 40126 80002 333 58002 84073;
0211616270999992000012212004+15380-015120FM-12+0021GOOG V0200601N003110690019N0100001N1+03202+00271101331ADDAA199000091GA1051+069009019GF105991001001999999001021MA1999999101101MD1999999+0061REMSYN082AAXX  22124 61627 32960 50606 10320 20027 30110 40133 80002 333 0//00 58006 85073;EQDQ01+003203ATOT  Q02  00002PRCP99
0159616270999992000012215004+15380-015120FM-12+0021GOOG V0200801N002110690019N0100001N1+03641+00541101111ADDGA1051+069009019GF105991001001999999001021MA1999999100881MD1999999+0071REMSYN076AAXX  22154 61627 42960 50804 10364 20054 30088 40111 80002 333 58007 85073;
0208616270999992000012218004+15380-015120FM-12+0021GOOG V0200401N001010690019N0100001N1+03441+00591101031ADDAA199000091GA1061+069009019GF106991001001999999001021KA1120M+03651MA1999999100801MD1999999+0021REMSYN082AAXX  22184 61627 32960 60402 10344 20059 30080 40103 80002 333 10365 58002 86073;EQDQ01  00002PRCP99
0165616270999992000012309004+15380-015120FM-12+0021GOOG V0200401N001012200019N0100001N1+02131+00341101211ADDGA1011+039009039GF103991011001999999031021MA1999999100981MD1999999-0041REMSYN082AAXX  23094 61627 42960 30402 10213 20034 30098 40121 81032 333 59004 81363 83073;
0195616270999992000012312004+15380-015120FM-12+0021GOOG V0200601N002112200019N0100001N1+03111+00571101221ADDAA199000091GA1021+039009079GF102991021001999999031001MA1999999100991MD1999999-0111REMSYN082AAXX  23124 61627 32960 20604 10311 20057 30099 40122 82030 333 0//00 59011 82363;EQDQ01  00002PRCP99
0147616270999992000012315004+15380-015120FM-12+0021GOOG V0209999C000012200019N0100001N1+03691+00551100951ADDGA1001+999999999GF100991001001999999001001MA1999999100721MD1999999-0161REMSYN064AAXX  23154 61627 42960 00000 10369 20055 30072 40095 333 59016;
0173616270999992000012400004+15380-015120FM-12+0021GOOG V0209999C000012200019N0080001N1+99999+99999101071ADDAA199000091GF102991001001999999001021MA1999999100841MD1999999-0161REMSYN076AAXX  24004 61627 32958 20000 10/56 20040 30084 40107 80002 333 0//00 59016;EQDQ01  00002PRCP99
0159616270999992000012409004+15380-015120FM-12+0021GOOG V0203201N001010390019N0100001N1+02301+00301101151ADDGA1061+039009079GF106991061001999999081001MA1999999100921MD1999999-0061REMSYN076AAXX  24094 61627 42960 63202 10230 20030 30092 40115 86080 333 59006 86363;
0195616270999992000012412004+15380-015120FM-12+0021GOOG V0203601N002110390019N0100001N1+02981+00441101231ADDAA199000091GA1051+039009079GF105991051001999999081001MA1999999101001MD1999999+0011REMSYN082AAXX  24124 61627 32960 53604 10298 20044 30100 40123 85080 333 0//00 58001 85363;EQDQ01  00002PRCP99
0153616270999992000012415004+15380-015120FM-12+0021GOOG V0209999C000012200019N0100001N1+99999+99999101021ADDGA1031+069009019GF103991001001999999001021MA1999999100791MD1999999+0071REMSYN070AAXX  24154 61627 42960 30000 20074 30079 40102 80002 333 58007 83073;
0208616270999992000012418004+15380-015120FM-12+0021GOOG V0209999C000012200019N0100001N1+03501+00741100931ADDAA199000091GA1021+069009019GF102991001001999999001021KA1120M+03581MA1999999100701MD1999999+0011REMSYN082AAXX  24184 61627 32960 20000 10350 20074 30070 40093 80002 333 10358 58001 82073;EQDQ01  00002PRCP99
0153616270999992000012503004+15380-015120FM-12+0021GOOG V0209999C000012200019N0080001N1+02151+00621101181ADDGA1041+039009079GF104991999999999999999999MA1999999100951MD1999999+0131REMSYN070AAXX  25034 61627 42958 40000 10215 20062 30095 40118 333 58013 84363;
0222616270999992000012506004+15380-015120FM-12+0021GOOG V0203201N001019999999N0080001N1+02021+00601101181ADDAA199000091GF106991061001999999031001IA2240+01709KA1120N+02021MA1999999100951MD1999999+0131REMSYN100AAXX  25064 61627 32958 63202 10202 20060 30095 40118 86030 333 01700 20202 50600 55/// 58013 86033;EQDQ01  00002PRCP99
0159616270999992000012509004+15380-015120FM-12+0021GOOG V0209999C000010390019N0100001N1+02091+00521101341ADDGA1071+039009079GF107991071001999999071999MA1999999101101MD1999999+0181REMSYN076AAXX  25094 61627 42960 70000 10209 20052 30110 40134 8707/ 333 58018 87363;
0195616270999992000012512004+15380-015120FM-12+0021GOOG V0203601N001010390019N0100001N1+02701+00611101431ADDAA199000091GA1051+039009079GF105991051001999999081001MA1999999101191MD1999999+0191REMSYN082AAXX  25124 61627 32960 53602 10270 20061 30119 40143 85080 333 0//00 58019 85363;EQDQ01  00002PRCP99
0165616270999992000012515004+15380-015120FM-12+0021GOOG V0209999C000012200019N0100001N1+03281+00891101121ADDGA1011+039009039GF103991011001999999031021MA1999999100891MD1999999+0101REMSYN082AAXX  25154 61627 42960 30000 10328 20089 30089 40112 81032 333 58010 81363 83073;
0208616270999992000012518004+15380-015120FM-12+0021GOOG V0200401N001010690019N0100001N1+03181+00821101051ADDAA199000091GA1051+069009019GF105991001001999999001021KA1120M+03331MA1999999100821MD1999999+0121REMSYN082AAXX  25184 61627 32960 50402 10318 20082 30082 40105 80002 333 10333 58012 85073;EQDQ01  00002PRCP99
0195616270999992000012600004+15380-015120FM-12+0021GOOG V0209999C000019999999N0080001N1+02601+00721101321ADDAA199000091GA1041+039009079GF105991041001999999031021MA1999999101081MD1999999+0081REMSYN082AAXX  26004 61627 32958 50000 10260 20072 30108 40132 84032 333 0//00 58008 84363;EQDQ01  00002PRCP99
0159616270999992000012603004+15380-015120FM-12+0021GOOG V0209999C000010390019N0080001N1+02401+00621101221ADDGA1071+039009079GF107991071001999999031999MA1999999100991MD1999999+0041REMSYN076AAXX  26034 61627 42958 70000 10240 20062 30099 40122 8703/ 333 58004 87363;
0244616270999992000012606004+15380-015120FM-12+0021GOOG V0209999C000019999999N0080001N1+02031+00931101161ADDAA199000091GA1031+039009039GF105991031001999999031021IA2240+01609KA1120N+02031MA1999999100931MD1999999-0041REMSYN106AAXX  26064 61627 32958 50000 10203 20093 30093 40116 83032 333 01600 20203 50680 55/// 59004 83363 83073;EQDQ01  00002PRCP99
0163616270999992000012609004+15380-015120FM-12+0021GOOG V0203201N001010690019N0100001N1+02001+01261101341ADDGA1061+069009019GF106991001001999999001021MD1999999+0001REMSYN076AAXX  26094 61627 42960 63202 10200 20126 30440 40134 80002 333 58000 86073;EQDQ01+104403APOSP 
0195616270999992000012612004+15380-015120FM-12+0021GOOG V0203601N002112200019N0100001N1+02931+00871101421ADDAA199000091GA1041+069009019GF104991001001999999001021MA1999999101191MD1999999+0001REMSYN082AAXX  26124 61627 32960 43604 10293 20087 30119 40142 80002 333 0//00 58000 84073;EQDQ01  00002PRCP99
0165616270999992000012615004+15380-015120FM-12+0021GOOG V0200401N002119999999N0100001N1+03251+00561101151ADDGA1021+039009049GF106991021001999999021021MA1999999100921MD1999999+0031REMSYN082AAXX  26154 61627 42960 60404 10325 20056 30092 40115 82022 333 58003 82463 86073;
0208616270999992000012618004+15380-015120FM-12+0021GOOG V0203601N001010390019N0100001N1+03251+00501101091ADDAA199000091GA1071+039009019GF107991071001999999021999KA1120M+03311MA1999999100861MD1999999+0041REMSYN082AAXX  26184 61627 32960 73602 10325 20050 30086 40109 8702/ 333 10331 58004 87463;EQDQ01  00002PRCP99
0178616270999992000012621004+15380-015120FM-12+0021GOOG V0209999C000010390019N0080001N1+02801+00781101221ADDGA1051+039009019GF105991051001999999071999MA1999999100991MD1999999+0001REMSYN076AAXX  26214 61627 42958 50000 10280 20078 30099 40122 85070 333 58000 85463;EQDQ01+000002SCOHCG
0183616270999992000012700004+15380-015120FM-12+0021GOOG V0200401N002112200019N0080001N1+02751+01281101311ADDAA199000091GA1001+999999999GF100991001001999999001001MA1999999101081MD1999999+0001REMSYN070AAXX  27004 61627 32958 00404 10275 20128 30108 40131 333 0//00 58000;EQDQ01  00002PRCP99
0159616270999992000012709004+15380-015120FM-12+0021GOOG V0200601N002112200019N0100001N1+02401+01281101391ADDGA1031+069009019GF103991001001999999001021MA1999999101151MD1999999+0051REMSYN076AAXX  27094 61627 42960 30604 10240 20128 30115 40139 80002 333 58005 83073;
0195616270999992000012712004+15380-015120FM-12+0021GOOG V0200601N004112200019N0070001N1+03081+01801101321ADDAA199000091GA1021+069009019GF102991001001999999001021MA1999999101091MD1999999-0101REMSYN082AAXX  27124 61627 32957 20608 10308 20180 30109 40132 80002 333 0//00 59010 82073;EQDQ01  00002PRCP99
0159616270999992000012715004+15380-015120FM-12+0021GOOG V0201001N003112200019N0070001N1+03531+01261101111ADDGA1031+039009079GF103991031001999999031001MA1999999100881MD1999999-0041REMSYN076AAXX  27154 61627 42957 31006 10353 20126 30088 40111 83030 333 59004 83363;
0208616270999992000012718004+15380-015120FM-12+0021GOOG V0200801N002110390019N0060001N1+03371+01281101031ADDAA199000091GA1051+039009079GF105991051001999999081001KA1120M+03561MA1999999100801MD1999999-0061REMSYN082AAXX  27184 61627 32956 50804 10337 20128 30080 40103 85080 333 10356 59006 85363;EQDQ01  00002PRCP99
0147616270999992000012721004+15380-015120FM-12+0021GOOG V0200401N001012200019N0060001N1+03061+01301101111ADDGA1001+999999999GF100991001001999999001001MA1999999100881MD1999999-0101REMSYN064AAXX  27214 61627 42956 00402 10306 20130 30088 40111 333 59010;
0187616270999992000012809004+15380-015120FM-12+0021GOOG V0200401N003112200019N0010001N1+02531+01321101301ADDAY101031AY201031GA1031+039009079GF103991031001999999081001MA1999999101071MD1999999-0081MW1061REMSYN082AAXX  28094 61627 41910 30406 10253 20132 30107 40130 70600 83080 333 59008 83363;
0223616270999992000012812004+15380-015120FM-12+0021GOOG V0200601N003110390019N0010001N1+02931+01291101311ADDAA199000091AY111061AY211061GA1051+039009079GF105991051001999999081001MA1999999101081MD1999999-0011MW1061REMSYN088AAXX  28124 61627 31910 50606 10293 20129 30108 40131 70611 85080 333 0//00 59001 85363;EQDQ01  00002PRCP99
0171616270999992000012815004+15380-015120FM-12+0021GOOG V0200601N002110390019N0008001N1+03211+01291101031ADDGA1061+039009079GF106991061001999999081001MA1999999100801MD1999999-0031MW1061REMSYN082AAXX  28154 61627 41908 60604 10321 20129 30080 40103 706// 86080 333 59003 86363;
0220616270999992000012818004+15380-015120FM-12+0021GOOG V0200401N002110390019N0008001N1+03331+01261101011ADDAA199000091GA1071+039009019GF107991071001999999071999KA1120M+03331MA1999999100781MD1999999-0021MW1061REMSYN088AAXX  28184 61627 31908 70404 10333 20126 30078 40101 706// 8707/ 333 10333 59002 87463;EQDQ01  00002PRCP99
0171616270999992000012821004+15380-015120FM-12+0021GOOG V0200401N001010390019N0007001N1+03001+01341101191ADDGA1081+039009019GF108991081001999999071999MA1999999100961MD1999999+0081MW1061REMSYN082AAXX  28214 61627 41907 80402 10300 20134 30096 40119 706// 8807/ 333 58008 88463;
0215616270999992000012900004+15380-015120FM-12+0021GOOG V0200401N002110390019N0006001N1+02901+01271101311ADDAA199000091AY141061GA1081+039009019GF108991081001999999071999MA1999999101081MD1999999+0011MW1061REMSYN088AAXX  29004 61627 31906 80404 10290 20127 30108 40131 7064/ 8807/ 333 0//00 58001 88463;EQDQ01  00002PRCP99
0187616270999992000012909004+15380-015120FM-12+0021GOOG V0200401N002110390019N0008001N1+02701+01261101301ADDAY141031AY221031GA1081+039009019GF108991081001999999071999MA1999999101111MD1999999+0041MW1061REMSYN082AAXX  29094 61627 41908 80404 10270 20126 30111 40130 70642 8807/ 333 58004 88463;
0223616270999992000012912004+15380-015120FM-12+0021GOOG V0200601N003110390019N0006001N1+03201+01001101281ADDAA199000091AY141061AY221061GA1081+039009019GF108991081001999999021999MA1999999101051MD1999999-0031MW1061REMSYN088AAXX  29124 61627 31906 80606 10320 20100 30105 40128 70642 8802/ 333 0//00 59003 88463;EQDQ01  00002PRCP99
0204616270999992000012915004+15380-015120FM-12+0021GOOG V0200801N004112200019N0008001N1+03681+01221100981ADDAY141031GA1031+039009039GF199999031001999999031021MA1999999100751MD1999999-0051MW1061REMSYN088AAXX  29154 61627 42908 10808 10368 20122 30075 40098 7064/ 83032 333 59005 83363 86073;EQDQ01+000012SCOTCV
0228616270999992000012918004+15380-015120FM-12+0021GOOG V0200601N002110690019N0008001N1+03641+01041100951ADDAA199000091AY141061GA1071+069009019GF107991001001999999001021KA1120M+03751MA1999999100721MD1999999-0021MW1061REMSYN088AAXX  29184 61627 31908 70604 10364 20104 30072 40095 7064/ 80002 333 10375 59002 87073;EQDQ01  00002PRCP99
0179616270999992000012921004+15380-015120FM-12+0021GOOG V0209999C000012200019N0020001N1+03031+01181101151ADDAY141031GA1021+069009019GF102991001001999999001021MA1999999100921MD1999999-0041MW1061REMSYN082AAXX  29214 61627 41920 20000 10303 20118 30092 40115 7064/ 80002 333 59004 82073;
0203616270999992000013000004+15380-015120FM-12+0021GOOG V0200401N002112200019N0025001N1+02951+01201101281ADDAA199000091AY141061GA1001+999999999GF100991001001999999001001MA1999999101051MD1999999-0031MW1061REMSYN076AAXX  30004 61627 31925 00404 10295 20120 30105 40128 7064/ 333 0//00 59003;EQDQ01  00002PRCP99
0159616270999992000013003004+15380-015120FM-12+0021GOOG V0200401N001012200019N0025001N1+02681+01111101221ADDGA1001+999999999GF100991001001999999001001MA1999999100991MD1999999-0011MW1061REMSYN070AAXX  30034 61627 41925 00402 10268 20111 30099 40122 706// 333 59001;
0234616270999992000013006004+15380-015120FM-12+0021GOOG V0209999C000012200019N0040001N1+02311+01031101211ADDAA199000091GF102991001001999999001021IA2240+02209KA1120N+02311MA1999999100981MD1999999+0001MW1061REMSYN106AAXX  30064 61627 31940 20000 10231 20103 30098 40121 706// 80002 333 02200 20231 50680 55/// 58000 82073;EQDQ01  00002PRCP99
0206616270999992000013009004+15380-015120FM-12+0021GOOG V0203201N002110690019N0060001N1+02321+01131101381ADDAY121031AY221031GA1071+069009019GF199999001001999999001021MA1999999101141MD1999999+0011MW1061REMSYN082AAXX  30094 61627 42956 63204 10232 20113 30114 40138 70622 80002 333 58001 87073;EQDQ01+000062SCOTCV
0211616270999992000013012004+15380-015120FM-12+0021GOOG V0201201N003110690019N0060001N1+03451+01051101411ADDAA199000091GA1061+069009089GF106991999001999999001061MA1999999101181MD1999999+0131REMSYN082AAXX  30124 61627 32956 61206 10345 20105 30118 40141 80006 333 0//00 58013 86273;EQDQ01+000002SCOTLCQ02  00002PRCP99
0159616270999992000013015004+15380-015120FM-12+0021GOOG V0201201N003110690019N0060001N1+03711+01001101251ADDGA1061+069009019GF106991001001999999001021MA1999999101021MD1999999+0271REMSYN076AAXX  30154 61627 42956 61206 10371 20100 30102 40125 80002 333 58027 86073;
0208616270999992000013018004+15380-015120FM-12+0021GOOG V0201001N002110690019N0060001N1+03781+01101101191ADDAA199000091GA1061+069009019GF106991001001999999001021KA1120M+03811MA1999999100961MD1999999+0241REMSYN082AAXX  30184 61627 32956 61004 10378 20110 30096 40119 80002 333 10381 58024 86073;EQDQ01  00002PRCP99
0212616270999992000013106004+15380-015120FM-12+0021GOOG V0201001N002112200019N0070001N1+02501+00731101351ADDAA199000091GA1001+999999999GF100991001001999999001001IA2240+01709KA1120N+02501MA1999999101121REMSYN088AAXX  31064 61627 32957 01004 10250 20073 30112 40135 333 01700 20250 50920 55/// 58014;EQDQ01  00002PRCP99
0159616270999992000013109004+15380-015120FM-12+0021GOOG V0201001N003112200019N0080001N1+02701+00911101541ADDGA1031+069009019GF103991001001999999001021MA1999999101311MD1999999+0201REMSYN076AAXX  31094 61627 42958 31006 10270 20091 30131 40154 80002 333 58020 83073;
0217616270999992000013112004+15380-015120FM-12+0021GOOG V0201001N004110690019N0030001N1+03211+00981101681ADDAA199000091AY111061AY211061GA1051+069009019GF105991999999999999999999MA1999999101451MD1999999+0401MW1061REMSYN082AAXX  31124 61627 32930 51008 10321 20098 30145 40168 70611 333 0//00 58040 85073;EQDQ01  00002PRCP99
0159616270999992000013115004+15380-015120FM-12+0021GOOG V0200601N003110690019N0060001N1+03721+01021101431ADDGA1051+069009019GF105991001001999999001021MA1999999101201MD1999999+0181REMSYN076AAXX  31154 61627 42956 50606 10372 20102 30120 40143 80002 333 58018 85073;
0208616270999992000013118004+15380-015120FM-12+0021GOOG V0200401N002112200019N0100001N1+03581+00911101341ADDAA199000091GA1031+039009079GF104991031001999999031021KA1120M+03791MA1999999101111MD1999999+0151REMSYN082AAXX  31184 61627 32960 40404 10358 20091 30111 40134 83032 333 10379 58015 83363;EQDQ01  00002PRCP99
0159616270999992000013121004+15380-015120FM-12+0021GOOG V0200601N003112200019N0060001N1+03201+01031101511ADDGA1021+069009019GF102991001001999999001021MA1999999101281MD1999999+0181REMSYN076AAXX  31214 61627 42956 20606 10320 20103 30128 40151 80002 333 58018 82073;
0183616270999992000020100004+15380-015120FM-12+0021GOOG V0200401N004112200019N0060001N1+02901+00701101671ADDAA199000091GA1001+999999999GF100991001001999999001001MA1999999101441MD1999999+0261REMSYN070AAXX  01004 61627 32956 00408 10290 20070 30144 40167 333 0//00 58026;EQDQ01  00002PRCP99
0159616270999992000020109004+15380-015120FM-12+0021GOOG V0200401N003112200019N0060001N1+02281+00421101721ADDGA1011+069009019GF101991001001999999001021MA1999999101481MD1999999+0171REMSYN076AAXX  01094 61627 42956 10406 10228 20042 30148 40172 80002 333 58017 81073;
0195616270999992000020112004+15380-015120FM-12+0021GOOG V0200601N003112200019N0060001N1+03101+00551101661ADDAA199000091GA1021+069009019GF102991001001999999001021MA1999999101431MD1999999-0021REMSYN082AAXX  01124 61627 32956 20606 10310 20055 30143 40166 80002 333 0//00 59002 82073;EQDQ01  00002PRCP99
0147616270999992000020115004+15380-015120FM-12+0021GOOG V0200601N003112200019N0060001N1+03421+00331101401ADDGA1001+999999999GF100991001001999999001001MA1999999101171MD1999999-0031REMSYN064AAXX  01154 61627 42956 00606 10342 20033 30117 40140 333 59003;
0196616270999992000020118004+15380-015120FM-12+0021GOOG V0200601N002112200019N0060001N1+03301+00391101331ADDAA199000091GA1001+999999999GF100991001001999999001001KA1120M+03451MA1999999101101MD1999999-0011REMSYN070AAXX  01184 61627 32956 00604 10330 20039 30110 40133 333 10345 59001;EQDQ01  00002PRCP99
0183616270999992000020200004+15380-015120FM-12+0021GOOG V0200401N001012200019N0060001N1+02561+00831101511ADDAA199000091GA1001+999999999GF100991001001999999001001MA1999999101281MD1999999-0161REMSYN070AAXX  02004 61627 32956 00402 10256 20083 30128 40151 333 0//00 59016;EQDQ01  00002PRCP99
0212616270999992000020206004+15380-015120FM-12+0021GOOG V0200601N002112200019N0060001N1+02381+00661101461ADDAA199000091GA1001+999999999GF100991001001999999001001IA2240+01709KA1120N+02381MA1999999101231REMSYN088AAXX  02064 61627 32956 00604 10238 20066 30123 40146 333 01700 20238 50920 55/// 59014;EQDQ01  00002PRCP99
0147616270999992000020209004+15380-015120FM-12+0021GOOG V0200601N002112200019N0080001N1+02381+00561101601ADDGA1001+999999999GF100991001001999999001001MA1999999101361MD1999999-0121REMSYN064AAXX  02094 61627 42958 00604 10238 20056 30136 40160 333 59012;
0183616270999992000020212004+15380-015120FM-12+0021GOOG V0201001N003112200019N0070001N1+02951+00521101621ADDAA199000091GA1001+999999999GF100991001001999999001001MA1999999101391MD1999999-0041REMSYN070AAXX  02124 61627 32957 01006 10295 20052 30139 40162 333 0//00 59004;EQDQ01  00002PRCP99
0147616270999992000020215004+15380-015120FM-12+0021GOOG V0201001N004112200019N0070001N1+03311+00701101351ADDGA1001+999999999GF100991001001999999001001MA1999999101121MD1999999-0051REMSYN064AAXX  02154 61627 42957 01008 10331 20070 30112 40135 333 59005;
0196616270999992000020218004+15380-015120FM-12+0021GOOG V0200601N003112200019N0070001N1+03201+00681101251ADDAA199000091GA1001+999999999GF100991001001999999001001KA1120M+03351MA1999999101021MD1999999-0081REMSYN070AAXX  02184 61627 32957 00606 10320 20068 30102 40125 333 10335 59008;EQDQ01  00002PRCP99
0147616270999992000020221004+15380-015120FM-12+0021GOOG V0209999C000012200019N0070001N1+02801+01051101441ADDGA1001+999999999GF100991001001999999001001MA1999999101201MD1999999-0031REMSYN064AAXX  02214 61627 42957 00000 10280 20105 30120 40144 333 59003;
0183616270999992000020300004+15380-015120FM-12+0021GOOG V0209999C000012200019N0070001N1+02511+00831101551ADDAA199000091GA1001+999999999GF100991001001999999001001MA1999999101311MD1999999+0031REMSYN070AAXX  03004 61627 32957 00000 10251 20083 30131 40155 333 0//00 58003;EQDQ01  00002PRCP99
0212616270999992000020306004+15380-015120FM-12+0021GOOG V0209999C000012200019N0070001N1+02051+00541101471ADDAA199000091GA1001+999999999GF100991001001999999001001IA2240+01809KA1120N+02051MA1999999101231REMSYN088AAXX  03064 61627 32957 00000 10205 20054 30123 40147 333 01800 20205 50820 55/// 58002;EQDQ01  00002PRCP99
0147616270999992000020309004+15380-015120FM-12+0021GOOG V0200401N001012200019N0070001N1+02011+00561101641ADDGA1001+999999999GF100991001001999999001001MA1999999101401MD1999999+0041REMSYN064AAXX  03094 61627 42957 00402 10201 20056 30140 40164 333 58004;
0183616270999992000020312004+15380-015120FM-12+0021GOOG V0200601N004112200019N0070001N1+02921+00941101651ADDAA199000091GA1001+999999999GF100991001001999999001001MA1999999101411MD1999999+0021REMSYN070AAXX  03124 61627 32957 00608 10292 20094 30141 40165 333 0//00 58002;EQDQ01  00002PRCP99
0147616270999992000020315004+15380-015120FM-12+0021GOOG V0200401N003112200019N0070001N1+03041+01101101381ADDGA1001+999999999GF100991001001999999001001MA1999999101151MD1999999+0031REMSYN064AAXX  03154 61627 42957 00406 10304 20110 30115 40138 333 58003;
0196616270999992000020318004+15380-015120FM-12+0021GOOG V0200401N002112200019N0070001N1+03221+01061101291ADDAA199000091GA1001+999999999GF100991001001999999001001KA1120M+03401MA1999999101051MD1999999+0031REMSYN070AAXX  03184 61627 32957 00404 10322 20106 30105 40129 333 10340 58003;EQDQ01  00002PRCP99
0183616270999992000020400004+15380-015120FM-12+0021GOOG V0200401N001012200019N0070001N1+02321+00771101601ADDAA199000091GA1001+999999999GF100991001001999999001001MA1999999101321MD1999999+0051REMSYN070AAXX  04004 61627 32957 00402 10232 20077 30132 40160 333 0//00 58005;EQDQ01  00002PRCP99
0159616270999992000020409004+15380-015120FM-12+0021GOOG V0200401N003112200019N0080001N1+02081+00851101631ADDGA1021+039009079GF102991021001999999031001MA1999999101391MD1999999-0011REMSYN076AAXX  04094 61627 42958 20406 10208 20085 30139 40163 82030 333 59001 82363;
0195616270999992000020412004+15380-015120FM-12+0021GOOG V0200601N003112200019N0070001N1+03051+01191101601ADDAA199000091GA1011+039009079GF101991011001999999031001MA1999999101361MD1999999-0051REMSYN082AAXX  04124 61627 32957 10606 10305 20119 30136 40160 81030 333 0//00 59005 81363;EQDQ01  00002PRCP99
0159616270999992000020415004+15380-015120FM-12+0021GOOG V0200401N002112200019N0070001N1+03371+00971101341ADDGA1021+069009019GF102991001001999999001011MA1999999101101MD1999999-0051REMSYN076AAXX  04154 61627 42957 20404 10337 20097 30110 40134 80001 333 59005 82073;
0208616270999992000020418004+15380-015120FM-12+0021GOOG V0201001N003112200019N0070001N1+03301+00661101301ADDAA199000091GA1011+069009019GF101991001001999999001011KA1120M+03451MA1999999101061MD1999999+0021REMSYN082AAXX  04184 61627 32957 11006 10330 20066 30106 40130 80001 333 10345 58002 81073;EQDQ01  00002PRCP99
0183616270999992000020500004+15380-015120FM-12+0021GOOG V0200401N001012200019N0070001N1+02281+00841101561ADDAA199000091GA1001+999999999GF100991001001999999001001MA1999999101331MD1999999-0031REMSYN070AAXX  05004 61627 32957 00402 10228 20084 30133 40156 333 0//00 59003;EQDQ01  00002PRCP99
0184616270999992000020509004+15380-015120FM-12+0021GOOG V0200401N002119999999N0080001N1+02071+00821101631ADDGA1041+039009039GF106991999001999999031001MA1999999101391MD1999999+0001REMSYN082AAXX  05094 61627 42958 60404 10207 20082 30139 40163 84030 333 58000 84363 83073;EQDQ01+000042SCOTLC
0195616270999992000020512004+15380-015120FM-12+0021GOOG V0201001N004112200019N0070001N1+03131+01071101641ADDAA199000091GA1031+039009079GF103991031001999999031001MA1999999101401MD1999999+0041REMSYN082AAXX  05124 61627 32957 31008 10313 20107 30140 40164 83030 333 0//00 58004 83363;EQDQ01  00002PRCP99
0159616270999992000020515004+15380-015120FM-12+0021GOOG V0200801N003112200019N0070001N1+03451+01211101431ADDGA1031+039009079GF103991031001999999031001MA1999999101201MD1999999+0101REMSYN076AAXX  05154 61627 42957 30806 10345 20121 30120 40143 83030 333 58010 83363;
0208616270999992000020518004+15380-015120FM-12+0021GOOG V0200601N003112200019N0070001N1+03311+01201101341ADDAA199000091GA1011+039009079GF101991011001999999031001KA1120M+03501MA1999999101101MD1999999+0041REMSYN082AAXX  05184 61627 32957 10606 10331 20120 30110 40134 81030 333 10350 58004 81363;EQDQ01  00002PRCP99
0212616270999992000020606004+15380-015120FM-12+0021GOOG V0200401N002112200019N0080001N1+01951+00671101541ADDAA199000091GA1001+999999999GF100991001001999999001001IA2240+01509KA1120N+01751MA1999999101301REMSYN088AAXX  06064 61627 32958 00404 10195 20067 30130 40154 333 01500 20175 50780 55/// 58006;EQDQ01  00002PRCP99
0159616270999992000020609004+15380-015120FM-12+0021GOOG V0200601N001012200019N0080001N1+01901+00701101661ADDGA1021+069009019GF102991001001999999001021MA1999999101421MD1999999+0031REMSYN076AAXX  06094 61627 42958 20602 10190 20070 30142 40166 80002 333 58003 82073;
0195616270999992000020612004+15380-015120FM-12+0021GOOG V0200601N004112200019N0070001N1+02851+01051101721ADDAA199000091GA1031+069009019GF103991001001999999001021MA1999999101481MD1999999+0081REMSYN082AAXX  06124 61627 32957 30608 10285 20105 30148 40172 80002 333 0//00 58008 83073;EQDQ01  00002PRCP99
0159616270999992000020615004+15380-015120FM-12+0021GOOG V0200801N003110690019N0080001N1+03171+01251101451ADDGA1061+069009019GF106991001001999999001021MA1999999101211MD1999999+0011REMSYN076AAXX  06154 61627 42958 60806 10317 20125 30121 40145 80002 333 58001 86073;
0214616270999992000020618004+15380-015120FM-12+0021GOOG V0200601N003119999999N0080001N1+03181+01201101351ADDAA199000091GA1021+039009039GF106991021001999999031021KA1120M+03301MA1999999101111MD1999999+0011REMSYN088AAXX  06184 61627 32958 60606 10318 20120 30111 40135 82032 333 10330 58001 82363 85073;EQDQ01  00002PRCP99
0159616270999992000020709004+15380-015120FM-12+0021GOOG V0200401N002110690019N0080001N1+02151+01001101601ADDGA1061+069009019GF106991001001999999001021MA1999999101401MD1999999-0021REMSYN076AAXX  07094 61627 42958 60404 10215 20100 30140 40160 80002 333 59002 86073;
0195616270999992000020712004+15380-015120FM-12+0021GOOG V0200601N003110690019N0080001N1+02901+01001101661ADDAA199000091GA1051+069009019GF105991001001999999001021MA1999999101421MD1999999-0061REMSYN082AAXX  07124 61627 32958 50606 10290 20100 30142 40166 80002 333 0//00 59006 85073;EQDQ01  00002PRCP99
0159616270999992000020715004+15380-015120FM-12+0021GOOG V0200601N003110690019N0080001N1+03281+00921101391ADDGA1061+069009019GF106991001001999999001021MA1999999101171MD1999999-0051REMSYN076AAXX  07154 61627 42958 60606 10328 20092 30117 40139 80002 333 59005 86073;
0208616270999992000020718004+15380-015120FM-12+0021GOOG V0200601N002110690019N0080001N1+03171+00891101371ADDAA199000091GA1071+069009019GF107991001001999999001021KA1120M+03321MA1999999101131MD1999999+0021REMSYN082AAXX  07184 61627 32958 70604 10317 20089 30113 40137 80002 333 10332 58002 87073;EQDQ01  00002PRCP99
0159616270999992000020721004+15380-015120FM-12+0021GOOG V0200601N001019999999N0070001N1+02701+00701101521ADDGA1041+039009079GF106991041001999999071021MA1999999101281MD1999999+0071REMSYN076AAXX  07214 61627 42957 60602 10270 20070 30128 40152 84072 333 58007 84363;
0195616270999992000020800004+15380-015120FM-12+0021GOOG V0200401N001012200019N0070001N1+02451+00901101641ADDAA199000091GA1031+039009079GF103991031001999999071001MA1999999101401MD1999999+0061REMSYN082AAXX  08004 61627 32957 30402 10245 20090 30140 40164 83070 333 0//00 58006 83363;EQDQ01  00002PRCP99
0159616270999992000020809004+15380-015120FM-12+0021GOOG V0200401N002112200019N0100001N1+02101+00961101661ADDGA1031+069009019GF103991001001999999001021MA1999999101401MD1999999+0021REMSYN076AAXX  08094 61627 42960 30404 10210 20096 30140 40166 80002 333 58002 83073;
0195616270999992000020812004+15380-015120FM-12+0021GOOG V0200601N003110690019N0070001N1+03051+00991101661ADDAA199000091GA1061+069009019GF106991001001999999001021MA1999999101431MD1999999+0011REMSYN082AAXX  08124 61627 32957 60606 10305 20099 30143 40166 80002 333 0//00 58001 86073;EQDQ01  00002PRCP99
0159616270999992000020815004+15380-015120FM-12+0021GOOG V0200801N005110690019N0070001N1+03201+01081101521ADDGA1061+069009019GF106991001001999999001021MA1999999101281MD1999999+0121REMSYN076AAXX  08154 61627 42957 60810 10320 20108 30128 40152 80002 333 58012 86073;
0208616270999992000020818004+15380-015120FM-12+0021GOOG V0200601N003110690019N0070001N1+03201+01081101431ADDAA199000091GA1051+069009019GF105991001001999999001021KA1120M+03301MA1999999101191MD1999999+0061REMSYN082AAXX  08184 61627 32957 50606 10320 20108 30119 40143 80002 333 10330 58006 85073;EQDQ01  00002PRCP99
0195616270999992000020900004+15380-015120FM-12+0021GOOG V0200401N001012200019N0070001N1+02551+01271101631ADDAA199000091GA1031+069009019GF103991001001999999999021MA1999999101401MD1999999+0001REMSYN082AAXX  09004 61627 32957 30402 10255 20127 30140 40163 800/2 333 0//00 58000 83073;EQDQ01  00002PRCP99
0212616270999992000020906004+15380-015120FM-12+0021GOOG V0200401N002112200019N0070001N1+02361+01171101521ADDAA199000091GA1001+999999999GF100991001001999999001001IA2240+01409KA1120N+02361MA1999999101291REMSYN088AAXX  09064 61627 32957 00404 10236 20117 30129 40152 333 01400 20236 50860 55/// 59001;EQDQ01  00002PRCP99
0159616270999992000020909004+15380-015120FM-12+0021GOOG V0200401N003112200019N0080001N1+02401+01181101631ADDGA1021+069009019GF102991001001999999001021MA1999999101391MD1999999-0031REMSYN076AAXX  09094 61627 42958 20406 10240 20118 30139 40163 80002 333 59003 82073;
0195616270999992000020912004+15380-015120FM-12+0021GOOG V0200801N003112200019N0080001N1+02901+01421101641ADDAA199000091GA1041+069009019GF104991001001999999001021MA1999999101401MD1999999-0051REMSYN082AAXX  09124 61627 32958 40806 10290 20142 30140 40164 80002 333 0//00 59005 84073;EQDQ01  00002PRCP99
0159616270999992000020915004+15380-015120FM-12+0021GOOG V0200801N004110690019N0080001N1+03201+01561101411ADDGA1061+069009019GF106991001001999999001021MA1999999101181MD1999999-0101REMSYN076AAXX  09154 61627 42958 60808 10320 20156 30118 40141 80002 333 59010 86073;
0208616270999992000020918004+15380-015120FM-12+0021GOOG V0200401N003110690019N0080001N1+03101+01401101341ADDAA199000091GA1071+069009019GF107991001001999999001021KA1120M+03221MA1999999101101MD1999999-0091REMSYN082AAXX  09184 61627 32958 70406 10310 20140 30110 40134 80002 333 10322 59009 87073;EQDQ01  00002PRCP99
0147616270999992000021003004+15380-015120FM-12+0021GOOG V0200401N002112200019N0080001N1+02181+00871101441ADDGA1001+999999999GF100991001001999999001001MA1999999101201MD1999999-0101REMSYN064AAXX  10034 61627 42958 00404 10218 20087 30120 40144 333 59010;
0159616270999992000021009004+15380-015120FM-12+0021GOOG V0200601N002112200019N0100001N1+02051+01051101541ADDGA1011+039009079GF102991011001999999031021MA1999999101301MD1999999-0091REMSYN076AAXX  10094 61627 42960 20604 10205 20105 30130 40154 81032 333 59009 81363;
0195616270999992000021012004+15380-015120FM-12+0021GOOG V0200401N003112200019N0100001N1+02881+01521101541ADDAA199000091GA1041+069009019GF104991001001999999001021MA1999999101301MD1999999-0101REMSYN082AAXX  10124 61627 32960 40406 10288 20152 30130 40154 80002 333 0//00 59010 84073;EQDQ01  00002PRCP99
0159616270999992000021015004+15380-015120FM-12+0021GOOG V0200401N002110690019N0100001N1+03321+01261101261ADDGA1051+069009019GF105991001001999999001021MA1999999101031MD1999999-0151REMSYN076AAXX  10154 61627 42960 50404 10332 20126 30103 40126 80002 333 59015 85073;
0194616270999992000021018004+15380-015120FM-12+0021GOOG V0200601N002110390019N0100001N1+03181+01271101161ADDAA103999999GA1051+039009079GF106991051001999999081021KA1120M+03401MA1999999100931REMSYN082AAXX  10184 61627 32960 60604 10318 20127 30093 40116 85082 333 10340 69017 85363;EQDQ01  90092PRCP03
0159616270999992000021021004+15380-015120FM-12+0021GOOG V0200401N001010390019N0080001N1+02801+01331101341ADDGA1051+039009079GF105991051001999999071001MA1999999101101MD1999999-0101REMSYN076AAXX  10214 61627 42958 50402 10280 20133 30110 40134 85070 333 59010 85363;
0195616270999992000021100004+15380-015120FM-12+0021GOOG V0209999C000012200019N0080001N1+02451+01351101421ADDAA199000091GA1021+039009079GF102991021001999999071001MA1999999101181MD1999999-0121REMSYN082AAXX  11004 61627 32958 20000 10245 20135 30118 40142 82070 333 0//00 59012 82363;EQDQ01  00002PRCP99
0159616270999992000021109004+15380-015120FM-12+0021GOOG V0200601N002110390019N0100001N1+02141+01141101481ADDGA1061+039009079GF106991061001999999081001MA1999999101141MD1999999-0161REMSYN076AAXX  11094 61627 42960 60604 10214 20114 30114 40148 86080 333 59016 86363;
0201616270999992000021112004+15380-015120FM-12+0021GOOG V0200601N004119999999N0100001N1+03151+01851101371ADDAA199000091GA1021+039009039GF105991021001999999081021MA1999999101141MD1999999-0161REMSYN088AAXX  11124 61627 32960 50608 10315 20185 30114 40137 82082 333 0//00 59016 82363 84073;EQDQ01  00002PRCP99
0153616270999992000021115004+15380-015120FM-12+0021GOOG V0201001N003112200019N0100001N1+03461+01971999999ADDGA1041+069009019GF104991001001999999001021MA1999999100941MD1999999-0091REMSYN070AAXX  11154 61627 42960 41006 10346 20197 30094 80002 333 59009 84073;
0214616270999992000021118004+15380-015120FM-12+0021GOOG V0200601N002119999999N0100001N1+03281+01871101041ADDAA199000091GA1021+039009039GF106991021001999999031021KA1120M+03491MA1999999100811MD1999999-0121REMSYN088AAXX  11184 61627 32960 60604 10328 20187 30081 40104 82032 333 10349 59012 82363 85073;EQDQ01  00002PRCP99
0195616270999992000021200004+15380-015120FM-12+0021GOOG V0200401N001012200019N0080001N1+02451+01371101251ADDAA199000091GA1021+069009019GF102991001001999999001021MA1999999101021MD1999999-0161REMSYN082AAXX  12004 61627 32958 20402 10245 20137 30102 40125 80002 333 0//00 59016 82073;EQDQ01  00002PRCP99
0159616270999992000021209004+15380-015120FM-12+0021GOOG V0200401N002112200019N0100001N1+02201+01341101241ADDGA1031+069009019GF103991001001999999001021MA1999999101001MD1999999-0141REMSYN076AAXX  12094 61627 42960 30404 10220 20134 30100 40124 80002 333 59014 83073;
0201616270999992000021212004+15380-015120FM-12+0021GOOG V0200801N004112200019N0100001N1+03211+01401101281ADDAA199000091GA1021+039009039GF104991021001999999031021MA1999999101051MD1999999-0091REMSYN088AAXX  12124 61627 32960 40808 10321 20140 30105 40128 82032 333 0//00 59009 82363 83073;EQDQ01  00002PRCP99
0165616270999992000021215004+15380-015120FM-12+0021GOOG V0200801N003119999999N0100001N1+03521+01441101021ADDGA1011+039009039GF105991011001999999031021MA1999999100791MD1999999-0151REMSYN082AAXX  12154 61627 42960 50806 10352 20144 30079 40102 81032 333 59015 81363 85073;
0214616270999992000021218004+15380-015120FM-12+0021GOOG V0200601N002119999999N0100001N1+03401+01201100931ADDAA199000091GA1011+039009039GF106991011001999999031021KA1120M+03611MA1999999100701MD1999999-0111REMSYN088AAXX  12184 61627 32960 60604 10340 20120 30070 40093 81032 333 10361 59011 81363 86073;EQDQ01  00002PRCP99
0165616270999992000021221004+15380-015120FM-12+0021GOOG V0209999C000019999999N0080001N1+02881+01441101071ADDGA1011+039009039GF105991011001999999031021MA1999999100841MD1999999-0151REMSYN082AAXX  12214 61627 42958 50000 10288 20144 30084 40107 81032 333 59015 81363 85073;
0195616270999992000021300004+15380-015120FM-12+0021GOOG V0200401N002110690019N0080001N1+02681+01321101141ADDAA199000091GA1061+069009019GF106991001001999999001021MA1999999100911MD1999999-0111REMSYN082AAXX  13004 61627 32958 60404 10268 20132 30091 40114 80002 333 0//00 59011 86073;EQDQ01  00002PRCP99
0222616270999992000021306004+15380-015120FM-12+0021GOOG V0209999C000019999999N0080001N1+02441+01271101111ADDAA199000091GF106991001001999999001021IA2240+01509KA1120N+02441MA1999999100881MD1999999-0031REMSYN100AAXX  13064 61627 32958 60000 10244 20127 30088 40111 80002 333 01500 20244 51120 55/// 59003 86073;EQDQ01  00002PRCP99
0159616270999992000021309004+15380-015120FM-12+0021GOOG V0200601N002110690019N0100001N1+02581+01461101251ADDGA1061+069009019GF106991001001999999001021MA1999999101011MD1999999+0011REMSYN076AAXX  13094 61627 42960 60604 10258 20146 30101 40125 80002 333 58001 86073;
0201616270999992000021312004+15380-015120FM-12+0021GOOG V0200801N003110390019N0100001N1+03081+01821101311ADDAA199000091GA1051+039009039GF105991051001999999081021MA1999999101081MD1999999+0031REMSYN088AAXX  13124 61627 32960 50806 10308 20182 30108 40131 85082 333 0//00 58003 85363 83073;EQDQ01  00002PRCP99
0165616270999992000021315004+15380-015120FM-12+0021GOOG V0200801N002119999999N0100001N1+02601+02151101041ADDGA1031+039009039GF106991031001999999031021MA1999999100811MD1999999+0021REMSYN082AAXX  13154 61627 42960 60804 10260 20215 30081 40104 83032 333 58002 83363 85073;
0214616270999992000021318004+15380-015120FM-12+0021GOOG V0200601N002119999999N0100001N1+03501+02061100961ADDAA199000091GA1021+039009039GF105991021001999999031021KA1120M+03611MA1999999100731MD1999999+0031REMSYN088AAXX  13184 61627 32960 50604 10350 20206 30073 40096 82032 333 10361 58003 82363 85073;EQDQ01  00002PRCP99
0178616270999992000021321004+15380-015120FM-12+0021GOOG V0200401N001010390019N0080001N1+02971+01871101181ADDGA1061+039009019GF106991061001999999071999MA1999999100951MD1999999+0111REMSYN076AAXX  13214 61627 42958 60402 10297 20187 30095 40118 86070 333 58011 86463;EQDQ01+000002SCOHCG
0195616270999992000021400004+15380-015120FM-12+0021GOOG V0200601N002110390019N0080001N1+02701+01661101231ADDAA199000091GA1051+039009079GF105991051001999999071001MA1999999101001MD1999999+0081REMSYN082AAXX  14004 61627 32958 50604 10270 20166 30100 40123 85070 333 0//00 58008 85363;EQDQ01  00002PRCP99
0195616270999992000021412004+15380-015120FM-12+0021GOOG V0200801N003110390019N0100001N1+03081-00801101371ADDAA199000091GA1061+039009079GF106991061001999999071001MA1999999101141MD1999999+0061REMSYN082AAXX  14124 61627 32960 60806 10308 21080 30114 40137 86070 333 0//00 58006 86363;EQDQ01  00002PRCP99
0159616270999992000021415004+15380-015120FM-12+0021GOOG V0201201N003110390019N0100001N1+03551-00301101181ADDGA1051+039009079GF105991051001999999081001MA1999999100951MD1999999+0141REMSYN076AAXX  14154 61627 42960 51206 10355 21030 30095 40118 85080 333 58014 85363;
0208616270999992000021418004+15380-015120FM-12+0021GOOG V0201001N002110390019N0100001N1+03481-00201101041ADDAA199000091GA1061+039009079GF106991061001999999081001KA1120M+03601MA1999999100811MD1999999+0081REMSYN082AAXX  14184 61627 32960 61004 10348 21020 30081 40104 86080 333 10360 58008 86363;EQDQ01  00002PRCP99
0195616270999992000021500004+15380-015120FM-12+0021GOOG V0200401N002119999999N0080001N1+02701-00311101331ADDAA199000091GA1021+039009079GF106991061001999999071001MA1999999101101MD1999999+0101REMSYN082AAXX  15004 61627 32958 60404 10270 21031 30110 40133 86070 333 0//00 58010 82363;EQDQ01  00002PRCP99
0222616270999992000021506004+15380-015120FM-12+0021GOOG V0200401N001019999999N0080001N1+02421-00301101231ADDAA199000091GF105991051001999999071001IA2240+01809KA1120N+02421MA1999999101001MD1999999-0081REMSYN100AAXX  15064 61627 32958 50402 10242 21030 30100 40123 85070 333 01800 20242 50870 55/// 59008 85363;EQDQ01  00002PRCP99
0159616270999992000021509004+15380-015120FM-12+0021GOOG V0200801N002110390019N0100001N1+02501-00501101331ADDGA1071+039009079GF107991071001999999071999MA1999999101101MD1999999-0011REMSYN076AAXX  15094 61627 42960 70804 10250 21050 30110 40133 8707/ 333 59001 87363;
0201616270999992000021512004+15380-015120FM-12+0021GOOG V0200601N003119999999N0100001N1+03101-00701101411ADDAA199000091GA1031+039009039GF105991031001999999031021MA1999999101181MD1999999+0041REMSYN088AAXX  15124 61627 32960 50606 10310 21070 30118 40141 83032 333 0//00 58004 83363 83073;EQDQ01  00002PRCP99
0159616270999992000021515004+15380-015120FM-12+0021GOOG V0200401N002110390019N0100001N1+03281-00501101181ADDGA1051+039009079GF106991051001999999081021MA1999999100951MD1999999+0001REMSYN076AAXX  15154 61627 42960 60404 10328 21050 30095 40118 85082 333 58000 85363;
0208616270999992000021518004+15380-015120FM-12+0021GOOG V0200601N002110390019N0100001N1+03271-00531101081ADDAA199000091GA1071+039009079GF107991071001999999081999KA1120M+03331MA1999999100851MD1999999+0041REMSYN082AAXX  15184 61627 32960 70604 10327 21053 30085 40108 8708/ 333 10333 58004 87363;EQDQ01  00002PRCP99
0159616270999992000021521004+15380-015120FM-12+0021GOOG V0209999C000010390019N0080001N1+02711+00001101241ADDGA1061+039009079GF106991061001999999081001MA1999999101001MD1999999+0011REMSYN076AAXX  15214 61627 42958 60000 10271 20000 30100 40124 86080 333 58001 86363;
0195616270999992000021600004+15380-015120FM-12+0021GOOG V0200601N001010390019N0080001N1+02581+00101101281ADDAA199000091GA1071+039009079GF107991071001999999081999MA1999999101051MD1999999-0051REMSYN082AAXX  16004 61627 32958 70602 10258 20010 30105 40128 8708/ 333 0//00 59005 87363;EQDQ01  00002PRCP99
0159616270999992000021603004+15380-015120FM-12+0021GOOG V0209999C000012200019N0080001N1+02461+00141101221ADDGA1041+039009079GF104991041001999999081001MA1999999100991MD1999999-0011REMSYN076AAXX  16034 61627 42958 40000 10246 20014 30099 40122 84080 333 59001 84363;
0222616270999992000021606004+15380-015120FM-12+0021GOOG V0200401N002112200019N0080001N1+02371+00151101231ADDAA199000091GF102991021001999999081001IA2240+01809KA1120N+02371MA1999999101001MD1999999+0001REMSYN100AAXX  16064 61627 32958 20404 10237 20015 30100 40123 82080 333 01800 20237 50640 55/// 58000 82363;EQDQ01  00002PRCP99
0159616270999992000021609004+15380-015120FM-12+0021GOOG V0200601N002112200019N0100001N1+02421+00001101391ADDGA1041+039009079GF104991041001999999081001MA1999999101151MD1999999+0051REMSYN076AAXX  16094 61627 42960 40604 10242 20000 30115 40139 84080 333 58005 84363;
0195616270999992000021612004+15380-015120FM-12+0021GOOG V0200601N003112200019N0100001N1+03201-00331101411ADDAA199000091GA1031+039009079GF103991031001999999081001MA1999999101181MD1999999+0001REMSYN082AAXX  16124 61627 32960 30606 10320 21033 30118 40141 83080 333 0//00 58000 83363;EQDQ01  00002PRCP99
0159616270999992000021615004+15380-015120FM-12+0021GOOG V0200801N002112200019N0100001N1+03601-00461101201ADDGA1041+039009079GF104991041001999999081001MA1999999100971MD1999999+0021REMSYN076AAXX  16154 61627 42960 40804 10360 21046 30097 40120 84080 333 58002 84363;
0213616270999992000021618004+15380-015120FM-12+0021GOOG V0200401N002110390019N0100001N1+03511-00641101091ADDAA199000091AC10I9GA1061+039009079GF106991061001999999081001IA2240+00309MA1999999100861MD1999999+0011REMSYN082AAXX  16184 61627 32960 60404 10351 21064 30086 40109 86080 333 00364 58001 86363;EQDQ01  00002PRCP99
0159616270999992000021621004+15380-015120FM-12+0021GOOG V0200401N001012200019N0080001N1+02851+00081101221ADDGA1021+039009079GF104991021001999999031021MA1999999100991MD1999999-0011REMSYN076AAXX  16214 61627 42958 40402 10285 20008 30099 40122 82032 333 59001 82363;
0195616270999992000021700004+15380-015120FM-12+0021GOOG V0200401N002110390019N0080001N1+02651-00021101361ADDAA199000091GA1061+039009079GF106991061001999999081001MA1999999101131MD1999999+0081REMSYN082AAXX  17004 61627 32958 60404 10265 21002 30113 40136 86080 333 0//00 58008 86363;EQDQ01  00002PRCP99
0159616270999992000021709004+15380-015120FM-12+0021GOOG V0200401N002110390019N0100001N1+02281-00151101341ADDGA1061+039009079GF106991061001999999081001MA1999999101101MD1999999-0051REMSYN076AAXX  17094 61627 42960 60404 10228 21015 30110 40134 86080 333 59005 86363;
0195616270999992000021712004+15380-015120FM-12+0021GOOG V0200401N003112200019N0100001N1+03221-00091101381ADDAA199000091GA1021+039009079GF103991021001999999031021MA1999999101151MD1999999-0031REMSYN082AAXX  17124 61627 32960 30406 10322 21009 30115 40138 82032 333 0//00 59003 82363;EQDQ01  00002PRCP99
0178616270999992000021715004+15380-015120FM-12+0021GOOG V0200801N003112200019N0100001N1+03601+99999101161ADDGA1031+069009019GF103991001001999999001021MA1999999100931MD1999999-0041REMSYN076AAXX  17154 61627 42960 30806 10360 20144 30093 40116 80002 333 59004 83073;EQDQ01+001443ATOD  
0208616270999992000021718004+15380-015120FM-12+0021GOOG V0200401N002110690019N0100001N1+03491-00491101031ADDAA199000091GA1061+069009019GF106991001001999999001021KA1120M+03611MA1999999100801MD1999999-0061REMSYN082AAXX  17184 61627 32960 60404 10349 21049 30080 40103 80002 333 10361 59006 86073;EQDQ01  00002PRCP99
0159616270999992000021803004+15380-015120FM-12+0021GOOG V0200401N001012200019N0080001N1+02251-00211101161ADDGA1021+069009019GF102991001001999999001021MA1999999100931MD1999999-0101REMSYN076AAXX  18034 61627 42958 20402 10225 21021 30093 40116 80002 333 59010 82073;
0178616270999992000021809004+15380-015120FM-12+0021GOOG V0200601N001012200019N0100001N1+02181-00171101291ADDGA1041+039009079GF104991999001999999081001MA1999999101051MD1999999-0051REMSYN076AAXX  18094 61627 42960 40602 10218 21017 30105 40129 87080 333 59005 84363;EQDQ01+000072SCOTLC
0223616270999992000021812004+15380-015120FM-12+0021GOOG V0200601N003112200019N0100001N1+03051-00251101331ADDAA199000091GA1041+039009079GF199999031001999999081001IA2240+00009MA1999999101101MD1999999-0051REMSYN082AAXX  18124 61627 32960 30606 10305 21025 30110 40133 83080 333 00000 59005 84363;EQDQ01+000032SCOTCVQ02  00002PRCP99
0159616270999992000021815004+15380-015120FM-12+0021GOOG V0200401N002112200019N0050001N1+03541-00171101131ADDGA1021+039009079GF102991021001999999081001MA1999999100901MD1999999-0031REMSYN076AAXX  18154 61627 42950 20404 10354 21017 30090 40113 82080 333 59003 82363;
0208616270999992000021818004+15380-015120FM-12+0021GOOG V0203601N002112200019N0100001N1+03451-00151101031ADDAA199000091GA1021+039009079GF102991021001999999081001KA1120M+03601MA1999999100801MD1999999+0001REMSYN082AAXX  18184 61627 32960 23604 10345 21015 30080 40103 82080 333 10360 58000 82363;EQDQ01  00002PRCP99
0195616270999992000021900004+15380-015120FM-12+0021GOOG V0209999C000010390019N0080001N1+02731-00031101261ADDAA199000091GA1061+039009079GF106991061001999999081001MA1999999101031MD1999999+0011REMSYN082AAXX  19004 61627 32958 60000 10273 21003 30103 40126 86080 333 0//00 58001 86363;EQDQ01  00002PRCP99
0159616270999992000021909004+15380-015120FM-12+0021GOOG V0200801N002112200019N0100001N1+02471+00081101281ADDGA1041+039009079GF104991041001999999081001MA1999999101051MD1999999+0001REMSYN076AAXX  19094 61627 42960 40804 10247 20008 30105 40128 84080 333 58000 84363;
0195616270999992000021912004+15380-015120FM-12+0021GOOG V0200601N003112200019N0100001N1+03351-00341101291ADDAA199000091GA1041+039009079GF104991041001999999081001MA1999999101061MD1999999-0041REMSYN082AAXX  19124 61627 32960 40606 10335 21034 30106 40129 84080 333 0//00 59004 84363;EQDQ01  00002PRCP99
0159616270999992000021915004+15380-015120FM-12+0021GOOG V0200601N002110390019N0100001N1+03611-00251101031ADDGA1051+039009079GF105991051001999999081001MA1999999100801MD1999999-0101REMSYN076AAXX  19154 61627 42960 50604 10361 21025 30080 40103 85080 333 59010 85363;
0214616270999992000021918004+15380-015120FM-12+0021GOOG V0209999C000019999999N0100001N1+03551-00151100931ADDAA199000091GA1021+039009039GF105991021001999999031021KA1120M+03711MA1999999100701MD1999999-0101REMSYN088AAXX  19184 61627 32960 50000 10355 21015 30070 40093 82032 333 10371 59010 82363 84973;EQDQ01  00002PRCP99
0195616270999992000022000004+15380-015120FM-12+0021GOOG V0203601N001012200019N0080001N1+02571-00031101121ADDAA199000091GA1031+039009079GF103991031001999999081001MA1999999100891MD1999999-0061REMSYN082AAXX  20004 61627 32958 33602 10257 21003 30089 40112 83080 333 0//00 59006 83363;EQDQ01  00002PRCP99
0222616270999992000022006004+15380-015120FM-12+0021GOOG V0209999C000012200019N0080001N1+01761-00111101031ADDAA199000091GF104991041001999999081001IA2240+01509KA1120N+01761MA1999999100801MD1999999-0121REMSYN100AAXX  20064 61627 32958 40000 10176 21011 30080 40103 84080 333 01500 20176 51060 55/// 59012 84363;EQDQ01  00002PRCP99
0159616270999992000022009004+15380-015120FM-12+0021GOOG V0209999C000012200019N0100001N1+02001-00211101131ADDGA1031+039009079GF103991031001999999081001MA1999999100901MD1999999-0151REMSYN076AAXX  20094 61627 42960 30000 10200 21021 30090 40113 83080 333 59015 83363;
0183616270999992000022012004+15380-015120FM-12+0021GOOG V0200801N001012200019N0100001N1+03301-00101101131ADDAA199000091GA1001+999999999GF100991001001999999001001MA1999999100901MD1999999-0161REMSYN070AAXX  20124 61627 32960 00802 10330 21010 30090 40113 333 0//00 59016;EQDQ01  00002PRCP99
0154616270999992000022015004+15380-015120FM-12+0021GOOG V0200601N001012200019N0100001N1+99999+99999999999ADDAY101031AY281031GA1011+069009019GF101991001001999999001011MD1999999-0151MW1601REMSYN064AAXX  20154 61627 42960 10602 10/22 76008 80001 333 59015 81073;
0189616270999992000022018004+15380-015120FM-12+0021GOOG V0209999C000012200019N0100001N1+03701-00041100811ADDAA199000021GA1011+039009079GF101991011001999999031001KA1120M+03801MA1999999100581MD1999999-0121REMSYN082AAXX  20184 61627 32960 10000 10370 21004 30058 40081 81030 333 10380 59012 81363;
0176616270999992000022100004+15380-015120FM-12+0021GOOG V0203201N001010390019N0080001N1+02501-00071101011ADDAA199000021GA1051+039009079GF105991051001999999031001MA1999999100781MD1999999-0111REMSYN082AAXX  21004 61627 32958 53202 10250 21007 30078 40101 85030 333 0//00 59011 85363;
0159616270999992000022109004+15380-015120FM-12+0021GOOG V0203201N002110390019N0100001N1+02081+00361100981ADDGA1061+039009079GF106991061001999999031001MA1999999100751MD1999999-0151REMSYN076AAXX  21094 61627 42960 63204 10208 20036 30075 40098 86030 333 59015 86363;
0195616270999992000022112004+15380-015120FM-12+0021GOOG V0200801N002119999999N0100001N1+03351+00241101061ADDAA199000091GA1021+039009039GF106991021001999999031021MA1999999100831MD1999999-0071REMSYN082AAXX  21124 61627 32960 60804 10335 20024 30083 40106 82032 333 59007 82363 85073;EQDQ01  00002PRCP99
0159616270999992000022115004+15380-015120FM-12+0021GOOG V0201201N002112200019N0100001N1+03801+00331100881ADDGA1041+069009019GF104991001001999999001021MA1999999100651MD1999999+0001REMSYN076AAXX  21154 61627 42960 41204 10380 20033 30065 40088 80002 333 58000 84073;
0208616270999992000022118004+15380-015120FM-12+0021GOOG V0202601N001010690019N0100001N1+03721+00361100811ADDAA199000091GA1051+069009019GF105991001001999999001021KA1120M+03831MA1999999100581MD1999999+0001REMSYN082AAXX  21184 61627 32960 52602 10372 20036 30058 40081 80002 333 10383 58000 85073;EQDQ01  00002PRCP99
0257616270999992000022206004+15380-015120FM-12+0021GOOG V0209999C00001039001CN0080001N1+02101+01221101031ADDAA124000791AC12I9AY161061GA1051+039009039GF107991051001999999071021IA2240+01409KA1120N+02101MA1999999100801MD1999999+0131MW1001REMSYN118AAXX  22064 61627 11958 70000 10210 20122 30080 40103 69904 7006/ 85072 333 01416 20210 50790 55/// 58013 85363 84073;
0165616270999992000022209004+15380-015120FM-12+0021GOOG V0209999C000019999999N0100001N1+02031+01521101131ADDGA1031+039009039GF106991031001999999031021MA1999999100901MD1999999+0151REMSYN082AAXX  22094 61627 42960 60000 10203 20152 30090 40113 83032 333 58015 83363 85073;
0213616270999992000022212004+15380-015120FM-12+0021GOOG V0202801N001010390019N0100001N1+02801+01321101241ADDAA199000091GA1061+039009039GF107991061001999999031021IA2240+00009MA1999999101001MD1999999+0171REMSYN088AAXX  22124 61627 32960 72802 10280 20132 30100 40124 86032 333 00000 58017 86363 83073;EQDQ01  00002PRCP99
0159616270999992000022221004+15380-015120FM-12+0021GOOG V0203201N002110390019N0080001N1+02851+01401101171ADDGA1081+039009079GF108991081001999999071999MA1999999100941MD1999999+0221REMSYN076AAXX  22214 61627 42958 83204 10285 20140 30094 40117 8807/ 333 58022 88363;
0195616270999992000022300004+15380-015120FM-12+0021GOOG V0203201N002110390019N0080001N1+02471+01861101311ADDAA199000091GA1081+039009019GF108991081001999999071999MA1999999101071MD1999999+0171REMSYN082AAXX  23004 61627 32958 83204 10247 20186 30107 40131 8807/ 333 0//00 58017 88463;EQDQ01  00002PRCP99
0222616270999992000022306004+15380-015120FM-12+0021GOOG V0203201N002119999999N0080001N1+02091+01901101261ADDAA199000091GF108991081001999999071999IA2240+01509KA1120N+02091MA1999999101021MD1999999+0191REMSYN100AAXX  23064 61627 32958 83204 10209 20190 30102 40126 8807/ 333 01500 20209 50540 55/// 58019 88463;EQDQ01  00002PRCP99
0159616270999992000022309004+15380-015120FM-12+0021GOOG V0203601N002110390019N0100001N1+02131+01981101331ADDGA1071+039009079GF107991071001999999071999MA1999999101091MD1999999+0191REMSYN076AAXX  23094 61627 42960 73604 10213 20198 30109 40133 8707/ 333 58019 87363;
0195616270999992000022312004+15380-015120FM-12+0021GOOG V0203001N001010390019N0100001N1+02541+01801101411ADDAA199000091GA1061+039009079GF106991061001999999071001MA1999999101171MD1999999+0171REMSYN082AAXX  23124 61627 32960 63002 10254 20180 30117 40141 86070 333 0//00 58017 86363;EQDQ01  00002PRCP99
0159616270999992000022315004+15380-015120FM-12+0021GOOG V0203201N002112200019N0100001N1+03011+01251101141ADDGA1041+039009079GF104991041001999999081001MA1999999100911MD1999999+0111REMSYN076AAXX  23154 61627 42960 43204 10301 20125 30091 40114 84080 333 58011 84363;
0208616270999992000022318004+15380-015120FM-12+0021GOOG V0209999C000010390019N0100001N1+03101+00911101031ADDAA199000091GA1051+039009079GF105991051001999999081001KA1120M+03111MA1999999100801MD1999999+0021REMSYN082AAXX  23184 61627 32960 50000 10310 20091 30080 40103 85080 333 10311 58002 85363;EQDQ01  00002PRCP99
0153616270999992000022321004+15380-015120FM-12+0021GOOG V0209999C000010390019N0080001N1+02701+00921101141ADDGA1051+039009079GF105991999999999999999999MA1999999100911MD1999999-0031REMSYN070AAXX  23214 61627 42958 50000 10270 20092 30091 40114 333 59003 85363;
0159616270999992000022403004+15380-015120FM-12+0021GOOG V0203201N002110390019N0080001N1+02101+01501101161ADDGA1071+039009079GF107991071001999999071999MA1999999100931MD1999999-0121REMSYN076AAXX  24034 61627 42958 73204 10210 20150 30093 40116 8707/ 333 59012 87363;
0222616270999992000022406004+15380-015120FM-12+0021GOOG V0203201N001019999999N0080001N1+01911+01561101131ADDAA199000091GF107991071001999999071999IA2240+01709KA1120N+01911MA1999999100901MD1999999-0121REMSYN100AAXX  24064 61627 32958 73202 10191 20156 30090 40113 8707/ 333 01700 20191 50720 55/// 59012 87363;EQDQ01  00002PRCP99
0159616270999992000022409004+15380-015120FM-12+0021GOOG V0203201N001010390019N0100001N1+01901+01561101321ADDGA1081+039009079GF108991081001999999071999MA1999999101081MD1999999-0011REMSYN076AAXX  24094 61627 42960 83202 10190 20156 30108 40132 8807/ 333 59001 88363;
0195616270999992000022412004+15380-015120FM-12+0021GOOG V0203601N001010390019N0100001N1+02301+01541101351ADDAA199000091GA1061+039009079GF106991061001999999081001MA1999999101111MD1999999-0061REMSYN082AAXX  24124 61627 32960 63602 10230 20154 30111 40135 86080 333 0//00 59006 86363;EQDQ01  00002PRCP99
0159616270999992000022415004+15380-015120FM-12+0021GOOG V0203601N002110390019N0100001N1+02771+01441101131ADDGA1071+039009079GF107991071001999999081999MA1999999100901MD1999999-0011REMSYN076AAXX  24154 61627 42960 73604 10277 20144 30090 40113 8708/ 333 59001 87363;
0208616270999992000022418004+15380-015120FM-12+0021GOOG V0203201N001010390019N0100001N1+02801+01371101031ADDAA199000091GA1071+039009079GF107991071001999999071999KA1120M+02801MA1999999100801MD1999999+0001REMSYN082AAXX  24184 61627 32960 73202 10280 20137 30080 40103 8707/ 333 10280 58000 87363;EQDQ01  00002PRCP99
0159616270999992000022509004+15380-015120FM-12+0021GOOG V0203601N002110390019N0100001N1+02201+01221101241ADDGA1061+039009079GF106991061001999999071001MA1999999101001MD1999999-0081REMSYN076AAXX  25094 61627 42960 63604 10220 20122 30100 40124 86070 333 59008 86363;
0195616270999992000022512004+15380-015120FM-12+0021GOOG V0200401N002112200019N0100001N1+02881+00811101241ADDAA199000091GA1041+039009079GF104991041001999999081001MA1999999101001MD1999999-0211REMSYN082AAXX  25124 61627 32960 40404 10288 20081 30100 40124 84080 333 0//00 59021 84363;EQDQ01  00002PRCP99
0147616270999992000022515004+15380-015120FM-12+0021GOOG V0200401N002112200019N0100001N1+03451+00741100971ADDGA1001+999999999GF100991001001999999001001MA1999999100741MD1999999-0161REMSYN064AAXX  25154 61627 42960 00404 10345 20074 30074 40097 333 59016;
0147616270999992000022521004+15380-015120FM-12+0021GOOG V0203201N001012200019N0080001N1+03001+00931101051ADDGA1001+999999999GF100991001001999999001001MA1999999100821MD1999999-0081REMSYN064AAXX  25214 61627 42958 03202 10300 20093 30082 40105 333 59008;
0183616270999992000022600004+15380-015120FM-12+0021GOOG V0203201N001012200019N0080001N1+02651+01021101221ADDAA199000091GA1001+999999999GF100991001001999999001001MA1999999100991MD1999999+0011REMSYN070AAXX  26004 61627 32958 03202 10265 20102 30099 40122 333 0//00 58001;EQDQ01  00002PRCP99
0212616270999992000022606004+15380-015120FM-12+0021GOOG V0203201N001012200019N0080001N1+02201+01181101091ADDAA199000091GA1001+999999999GF100991001001999999001001IA2240+01709KA1120N+02201MA1999999100861REMSYN088AAXX  26064 61627 32958 03202 10220 20118 30086 40109 333 01700 20220 50970 55/// 59003;EQDQ01  00002PRCP99
0159616270999992000022609004+15380-015120FM-12+0021GOOG V0200401N001012200019N0100001N1+02401+01281101261ADDGA1011+069009019GF101991001001999999001021MA1999999101021MD1999999+0021REMSYN076AAXX  26094 61627 42960 10402 10240 20128 30102 40126 80002 333 58002 81073;
0223616270999992000022612004+15380-015120FM-12+0021GOOG V0200401N002110390019N0080001N1+03231+00801101251ADDAA199000091GA1051+039009019GF105991051001999999071999IA2240+00009MA1999999101021MD1999999+0021REMSYN082AAXX  26124 61627 32958 50404 10323 20080 30102 40125 85070 333 00000 58002 85463;EQDQ01+000002SCOHCGQ02  00002PRCP99
0159616270999992000022615004+15380-015120FM-12+0021GOOG V0209999C000012200019N0080001N1+03801+00721100931ADDGA1021+039009079GF102991021001999999031001MA1999999100701MD1999999-0041REMSYN076AAXX  26154 61627 42958 20000 10380 20072 30070 40093 82030 333 59004 82363;
0208616270999992000022618004+15380-015120FM-12+0021GOOG V0209999C000012200019N0080001N1+03801+00721100831ADDAA199000091GA1041+069009019GF104991001001999999001021KA1120M+03931MA1999999100601MD1999999-0091REMSYN082AAXX  26184 61627 32958 40000 10380 20072 30060 40083 80002 333 10393 59009 84073;EQDQ01  00002PRCP99
0147616270999992000022703004+15380-015120FM-12+0021GOOG V0203201N002112200019N9999999N1+02201+01341100981ADDGA1001+999999999GF100991001001999999001001MA1999999100751MD1999999-0151REMSYN064AAXX  27034 61627 2/58/ 03204 10220 20134 30075 40098 333 59015;
0212616270999992000022706004+15380-015120FM-12+0021GOOG V02099999999992200019N0080001N1+02011+01371100941ADDAA199000091GA1001+999999999GF100991001001999999001001IA2240+01609KA1120N+02011MA1999999100711REMSYN088AAXX  27064 61627 32958 00/08 10201 20137 30071 40094 333 01600 20201 50820 55/// 59015;EQDQ01  00002PRCP99
0147616270999992000022709004+15380-015120FM-12+0021GOOG V0203201N001012200019N0080001N1+02141+01311101041ADDGA1001+999999999GF100991001001999999001001MA1999999100811MD1999999-0011REMSYN064AAXX  27094 61627 42958 03202 10214 20131 30081 40104 333 59001;
0183616270999992000022712004+15380-015120FM-12+0021GOOG V0200401N002112200019N0080001N1+03411+00681101051ADDAA199000091GA1001+999999999GF100991001001999999001001MA1999999100821MD1999999-0201REMSYN070AAXX  27124 61627 32958 00404 10341 20068 30082 40105 333 0//00 59020;EQDQ01  00002PRCP99
0147616270999992000022715004+15380-015120FM-12+0021GOOG V0200401N001012200019N0080001N1+04041+00941100761ADDGA1001+999999999GF100991001001999999001001MA1999999100531MD1999999-0171REMSYN064AAXX  27154 61627 42958 00402 10404 20094 30053 40076 333 59017;
0196616270999992000022718004+15380-015120FM-12+0021GOOG V0203201N001012200019N0080001N1+04001+00921100671ADDAA199000091GA1001+999999999GF100991001001999999001001KA1120M+04201MA1999999100441MD1999999-0161REMSYN070AAXX  27184 61627 32958 03202 10400 20092 30044 40067 333 10420 59016;EQDQ01  00002PRCP99
0147616270999992000022721004+15380-015120FM-12+0021GOOG V0203201N002112200019N0080001N1+03381+00961100791ADDGA1001+999999999GF100991001001999999001001MA1999999100561MD1999999-0141REMSYN064AAXX  27214 61627 42958 03204 10338 20096 30056 40079 333 59014;
0183616270999992000022800004+15380-015120FM-12+0021GOOG V0203201N002112200019N0080001N1+02741+01101100991ADDAA199000091GA1001+999999999GF100991001001999999001001MA1999999100761MD1999999-0041REMSYN070AAXX  28004 61627 32958 03204 10274 20110 30076 40099 333 0//00 59004;EQDQ01  00002PRCP99
0212616270999992000022806004+15380-015120FM-12+0021GOOG V0209999C000012200019N0080001N1+02301+01321100931ADDAA199000091GA1001+999999999GF100991001001999999001001IA2240+01409KA1120N+02301MA1999999100701REMSYN088AAXX  28064 61627 32958 00000 10230 20132 30070 40093 333 01400 20230 50820 55/// 59001;EQDQ01  00002PRCP99
0147616270999992000022809004+15380-015120FM-12+0021GOOG V0203601N002112200019N0070001N1+02431+01221101061ADDGA1001+999999999GF100991001001999999001001MA1999999100831MD1999999+0021REMSYN064AAXX  28094 61627 42957 03604 10243 20122 30083 40106 333 58002;
0183616270999992000022812004+15380-015120FM-12+0021GOOG V0200201N002112200019N0060001N1+03221+00981101111ADDAA199000091GA1001+999999999GF100991001001999999001001MA1999999100881MD1999999+0061REMSYN070AAXX  28124 61627 32956 00204 10322 20098 30088 40111 333 0//00 58006;EQDQ01  00002PRCP99
0147616270999992000022815004+15380-015120FM-12+0021GOOG V0200601N001012200019N0060001N1+03781+00681100851ADDGA1001+999999999GF100991001001999999001001MA1999999100621MD1999999+0091REMSYN064AAXX  28154 61627 42956 00602 10378 20068 30062 40085 333 58009;
0196616270999992000022818004+15380-015120FM-12+0021GOOG V0203201N002112200019N0060001N1+03751+00541100741ADDAA199000091GA1001+999999999GF100991001001999999001001KA1120M+03861MA1999999100511MD1999999+0071REMSYN070AAXX  28184 61627 32956 03204 10375 20054 30051 40074 333 10386 58007;EQDQ01  00002PRCP99
0183616270999992000022900004+15380-015120FM-12+0021GOOG V0203201N002112200019N0060001N1+02581+01241101031ADDAA199000091GA1001+999999999GF100991001001999999001001MA1999999100801MD1999999+0041REMSYN070AAXX  29004 61627 32956 03204 10258 20124 30080 40103 333 0//00 58004;EQDQ01  00002PRCP99
0175616270999992000022909004+15380-015120FM-12+0021GOOG V0203201N001012200019N0040001N1+02051+01591101061ADDAY101031AY201031GA1001+999999999GF100991001001999999001001MA1999999100831MD1999999+0001MW1061REMSYN070AAXX  29094 61627 41940 03202 10205 20159 30083 40106 70600 333 58000;
0227616270999992000022912004+15380-015120FM-12+0021GOOG V0209999C000012200019N0015001N1+03722+00961101101ADDAA199000091AY101061AY201061GA1001+999999999GF100991001001999999001001MA1999999100871MD1999999-0011MW1061REMSYN076AAXX  29124 61627 31915 00000 10372 20096 30087 40110 70600 333 0//00 59001;EQDQ01+003723ATOT  Q02  00002PRCP99
