0260633300999992000011406004+13500+039480FM-12+221299999V0201601N00401220001MN0250001N1+01261+00851102271ADDAA199000091AY121061GA1041+000159089GF104991041081008001001001KA1120N+00921MA1999999078021MD1999999-0031MW1051REMSYN120    AAXX  14061 63330 32575 41604 10126 20085 37802 40227 7052/ 84800 333 20092 59003 82820 82622 555 22084 32040 10///;EQDQ01  00002PRCP99
0180633300999992000011412004+13500+039480FM-12+221299999V0200601N00801220001MN0300001N1+01961+00361102041ADDGA1011+007209029GF101991011011008001001001MA1999999077841MD1999999-0031OA150600801REMSYN086    AAXX  14121 63330 42580 10608 10196 20036 37784 40204 81100 333 55080 59003 81824;
0151633300999992000011415004+13500+039480FM-12+221299999V0200901N00401220001MN0300001N1+01701+00381102121ADDGA1001+999999999GF100991001001999999001001MA1999999077901MD1999999-0091REMSYN068    AAXX  14151 63330 42980 00904 10170 20038 37790 40212 333 59009;
0130633300999992000011503004+13500+039480FM-12+221299999V0201401N00301220001MN0300001N1+00741+00451102071ADDGA1001+999999999GF100991001001999999001001MD1999999-0031REMSYN062    AAXX  15031 63330 43980 01403 10074 20045 40207 333 59003;
0168633300999992000011509004+13500+039480FM-12+221299999V0201601N00201220001MN0300001N1+02001-00261102221ADDGA1001+999999999GF100991001001999999001001MA1999999077981MD1999999-0031OA150300801REMSYN074    AAXX  15091 63330 42980 01602 10200 21026 37798 40222 333 55081 59003;
0163633300999992000011512004+13500+039480FM-12+221299999V0200901N00601220001MN0300001N1+02181+00361102041ADDGA1011+060009019GF101991001001999999001011MA1999999077841MD1999999+0001REMSYN080    AAXX  15121 63330 42980 10906 10218 20036 37784 40204 80001 333 58000 81070;
0212633300999992000011606004+13500+039480FM-12+221299999V0209999C00001220001MN0300001N1+01601-00331102281ADDAA199000091GF101991001001999999001011KA1120N+00661MA1999999078031MD1999999-0041REMSYN102    AAXX  16061 63330 32980 10000 10160 21033 37803 40228 80001 333 20066 59004 81070 555 22105 32099;EQDQ01  00002PRCP99
0163633300999992000011609004+13500+039480FM-12+221299999V0203401N00401220001MN0300001N1+02221-00201102211ADDGA1011+060009019GF101991001001999999001011MA1999999077971MD1999999-0011REMSYN080    AAXX  16091 63330 42980 13404 10222 21020 37797 40221 80001 333 59001 81070;
0163633300999992000011612004+13500+039480FM-12+221299999V0202701N00401060001MN0300001N1+02441-00441101941ADDGA1051+060009019GF105991001001999999001061MA1999999077761MD1999999-0081REMSYN080    AAXX  16121 63330 42980 52704 10244 21044 37776 40194 80006 333 59008 85070;
0163633300999992000011615004+13500+039480FM-12+221299999V0201201N00201220001MN0300001N1+02001+00561101941ADDGA1041+060009019GF104991001001999999001061MA1999999077261MD1999999-0111REMSYN080    AAXX  16151 63330 42980 41202 10200 20056 37726 40194 80006 333 59011 84070;
0216633300999992000011706004+13500+039480FM-12+221299999V0209999C00001220001MN0300001N1+01701+00281102161ADDAA199000091GA1001+999999999GF100991001001999999001001KA1120N+00841MA1999999077931MD1999999-0101REMSYN090    AAXX  17061 63330 32980 00000 10170 20028 37793 40216 333 20084 59010 555 22104 32092;EQDQ01  00002PRCP99
0151633300999992000011712004+13500+039480FM-12+221299999V0202501N00401220001MN0300001N1+02481-00021101811ADDGA1001+999999999GF100991001001999999001001MA1999999077651MD1999999-0111REMSYN068    AAXX  17121 63330 42980 02504 10248 21002 37765 40181 333 59011;
0163633300999992000011803004+13500+039480FM-12+221299999V0209999999999220001MN0300001N1+01061+00531101861ADDGA1021+060009019GF102991001001999999001011MA1999999077691MD1999999-0041REMSYN080    AAXX  18031 63330 43980 2000/ 10106 20053 37769 40186 80001 333 59004 82070;
0216633300999992000011806004+13500+039480FM-12+221299999V0209999C00001220001MN0300001N1+01541+00701102031ADDAA199000091GA1001+999999999GF100991001001999999001001KA1120N+00921MA1999999077831MD1999999-0101REMSYN090    AAXX  18061 63330 32980 00000 10154 20070 37783 40203 333 20092 59010 555 22104 32079;EQDQ01  00002PRCP99
0169633300999992000011812004+13500+039480FM-12+221299999V0202701N00401220001MN0300001N1+02281+00571101921ADDGA1011+009009019GF102991011011008001031001MA1999999077741MD1999999+0091REMSYN086    AAXX  18121 63330 42580 22704 10228 20057 37774 40192 81130 333 58009 81825 81358;
0163633300999992000011815004+13500+039480FM-12+221299999V0201401N00601220001MN0300001N1+01981+01001102011ADDGA1011+007209029GF101991011011008001001001MA1999999077811MD1999999+0181REMSYN080    AAXX  18151 63330 42580 11406 10198 20100 37781 40201 81100 333 58018 81824;
0151633300999992000011903004+13500+039480FM-12+221299999V0209999C00001220001MN0300001N1+00981+00461102141ADDGA1001+999999999GF100991001001999999001001MA1999999077921MD1999999+0231REMSYN068    AAXX  19031 63330 43980 00000 10098 20046 37792 40214 333 58023;
0242633300999992000011906004+13500+039480FM-12+221299999V0209999C00001220001MN0250001N1+01681+00661102441ADDAA199000091AY101061GA1001+999999999GF100991001001999999001001KA1120N+00921MA1999999078161MD1999999+0331MW1051REMSYN102    AAXX  19061 63330 31975 00000 10168 20066 37816 40244 7050/ 333 20092 58033 555 22102 32056 10///;EQDQ01  00002PRCP99
0163633300999992000011909004+13500+039480FM-12+221299999V0201301N00601220001MN0300001N1+02221+00301102431ADDGA1011+007209029GF101991011011008001001001MA1999999078151MD1999999+0231REMSYN080    AAXX  19091 63330 42580 11306 10222 20030 37815 40243 81100 333 58023 81824;
0188633300999992000012309004+13500+039480FM-12+2212HAMK V0201301N00801045001CN0300001N1+01861+00881102411ADDGA1041+009009089GF105991041081008001031001MA1999999078131MD1999999-0051OA150300801REMSYN094AAXX  23091 63330 42580 51308 10186 20088 37813 40241 84830 333 55080 59005 82822 82624 81358;
0182633300999992000012312004+13500+039480FM-12+2212HAMK V0201301N010012200019N0300001N1+02021+00801102171ADDGA1041+000159089GF104991041081008001001001MA1999999077941MD1999999-0021OA150601001REMSYN088AAXX  23121 63330 42580 41310 10202 20080 37794 40217 84800 333 55100 59002 82822 82625;
0210633300999992000012315004+13500+039480FM-12+2212HAMK V0201001N012012200019N0250001N1+01621+01061102211ADDAY101031AY201031GA1041+000159089GF104991041081008001001001MA1999999077971MD1999999-0031MW1051OA150301201REMSYN094AAXX  23151 63330 41575 41012 10162 20106 37797 40221 70500 84800 333 55121 59003 82822 82624;
0177633300999992000012403004+13500+039480FM-12+2212HAMK V0201101N005012200019N0200001N1+01121+00921102181ADDGA1031+000159069GF103991031061001501001001MA1999999077971MD1999999+0071MW1101REMSYN088AAXX  24031 63330 41270 31105 10112 20092 37797 40218 710// 83600 333 58007 81705 82620;
0159633300999992000012503004+13500+039480FM-12+2212HAMK V0201201N003012200019N0300001N1+01021+00821102361ADDGA1011+006009059GF101991011051008001001001MA1999999078091MD1999999+0141REMSYN076AAXX  25031 63330 43580 11203 10102 20082 37809 40236 81500 333 58014 81620;
0212633300999992000012506004+13500+039480FM-12+2212HAMK V0201201N006012200019N0300001N1+01481+00621102531ADDAA199000091GA1001+999999999GF100991001001999999001001KA1120N+00941MA1999999078231MD1999999+0051REMSYN086AAXX  25061 63330 32980 01206 10148 20062 37823 40253 333 20094 58005 555 22103 32039;EQDQ01  00002PRCP99
0164633300999992000012509004+13500+039480FM-12+2212HAMK V0201201N008012200019N0300001N1+02101+00191102531ADDGA1001+999999999GF100991001001999999001001MA1999999078231MD1999999+0121OA150300801REMSYN070AAXX  25091 63330 42980 01208 10210 20019 37823 40253 333 55080 58012;
0159633300999992000012512004+13500+039480FM-12+2212HAMK V0201501N004012200019N0300001N1+02181+00121102331ADDGA1011+007509029GF101991011011008001001001MA1999999078071MD1999999+0081REMSYN076AAXX  25121 63330 42580 11504 10218 20012 37807 40233 81100 333 58008 81825;
0147633300999992000012603004+13500+039480FM-12+2212HAMK V0201301N005012200019N0300001N1+01241-00251102181ADDGA1001+999999999GF100991001001999999001001MA1999999077951MD1999999-0141REMSYN064AAXX  26031 63330 43980 01305 10124 21025 37795 40218 333 59014;
0224633300999992000012606004+13500+039480FM-12+2212HAMK V0201501N004012200019N0300001N1+01741-01121102461ADDAA199000091GA1011+009009009GF101991011001022501031001KA1120N+00921MA1999999078171MD1999999-0061REMSYN098AAXX  26061 63330 32880 11504 10174 21112 37817 40246 81030 333 20092 59006 81358 555 22105 32108;EQDQ01  00002PRCP99
0178633300999992000012609004+13500+039480FM-12+2212HAMK V0201601N006012200019N0300001N1+02201-01191102481ADDGA1041+024009079GF104991041999022501031001MA1999999078191MD1999999-0041REMSYN076AAXX  26091 63330 42880 41606 10220 21119 37819 40248 84030 333 59004 84358;EQDQ01    003SCOLCG
0171633300999992000012612004+13500+039480FM-12+2212HAMK V0200901N006012200019N0300001N1+02281-00861102261ADDGA1011+009309019GF104991011011008001031011MA1999999078011MD1999999-0061REMSYN088AAXX  26121 63330 42580 40906 10228 21086 37801 40226 81131 333 59006 81820 83358 82070;
0159633300999992000012812004+13500+039480FM-12+2212HAMK V0201601N002012200019N0300001N1+02421+00121101921ADDGA1011+007209029GF101991011011008001001001MA1999999077741MD1999999-0141REMSYN076AAXX  28121 63330 42580 11602 10242 20012 37774 40192 81100 333 59014 81824;
0159633300999992000012815004+13500+039480FM-12+2212HAMK V0201501N004012200019N0300001N1+01881+00321102011ADDGA1021+008109029GF102991021011008001001001MA1999999077811MD1999999-0151REMSYN076AAXX  28151 63330 42580 21504 10188 20032 37781 40201 82100 333 59015 82827;
0230633300999992000012906004+13500+039480FM-12+2212HAMK V0200901N006012200019N0300001N1+01401+00201102241ADDAA199000091GA1011+000309019GF104991011011008001001011KA1120N+00861MA1999999078001MD1999999+0001REMSYN104AAXX  29061 63330 32580 40906 10140 20020 37800 40224 81101 333 20086 58000 81822 83070 555 22103 32082;EQDQ01  00002PRCP99
0165633300999992000012909004+13500+039480FM-12+2212HAMK V0201201N00801220001CN0300001N1+01781+00751102271ADDGA1011+001209019GF106991011011008001001041MA1999999078021MD1999999+0061REMSYN082AAXX  29091 63330 42580 61208 10178 20075 37802 40227 81104 333 58006 81822 85070;
0182633300999992000012912004+13500+039480FM-12+2212HAMK V0201001N01001105001CN0300001N1+01901+00561102141ADDGA1021+001809029GF107991021021008001001061MA1999999077921MD1999999+0111OA150601001REMSYN088AAXX  29121 63330 42580 71010 10190 20056 37792 40214 82206 333 55100 58011 82826 86070;
0159633300999992000012915004+13500+039480FM-12+2212HAMK V0201201N002012200019N0200001N1+01581+00941102171ADDGA1031+006009029GF104991031021008001001011MA1999999077941MD1999999-0131REMSYN076AAXX  29151 63330 42570 41202 10158 20094 37794 40217 83201 333 59013 83820;
0177633300999992000013003004+13500+039480FM-12+2212HAMK V0201301N005012200019N0200001N1+00981+00671102281ADDGA1041+000159069GF104991041061001501001001MA1999999078031MD1999999+0191MW1101REMSYN088AAXX  30031 63330 41270 41305 10098 20067 37803 40228 710// 84600 333 58019 81704 82618;
0176633300999992000013012004+13500+039480FM-12+2212HAMK V0201601N008012200019N0300001N1+02121+00461102361ADDGA1011+007209029GF101991011011008001001001MA1999999078091MD1999999+0171OA150600801REMSYN082AAXX  30121 63330 42580 11608 10212 20046 37809 40236 81100 333 55082 58017 81824;
0176633300999992000013015004+13500+039480FM-12+2212HAMK V0201401N008012200019N0300001N1+01561+00991102411ADDGA1011+007209029GF101991011011008001001001MA1999999078131MD1999999+0191OA150300801REMSYN082AAXX  30151 63330 42580 11408 10156 20099 37813 40241 81100 333 55081 58019 81824;
0147633300999992000013103004+13500+039480FM-12+2212HAMK V0201201N005012200019N0300001N1+00981+00631102331ADDGA1001+999999999GF100991001001999999001001MA1999999078071MD1999999+0041REMSYN064AAXX  31031 63330 43980 01205 10098 20063 37807 40233 333 58004;
0231633300999992000013106004+13500+039480FM-12+2212HAMK V0201401N008012200019N0300001N1+01441+00341102621ADDAA199000091GF101991001001999999001011KA1120N+00961MA1999999078301MD1999999+0071OA150600801REMSYN110AAXX  31061 63330 32980 11408 10144 20034 37830 40262 80001 333 20096 55081 58007 81070 555 22104 32057 10///;EQDQ01  00002PRCP99
0164633300999992000013109004+13500+039480FM-12+2212HAMK V0201601N010012200019N0300001N1+01961-00261102641ADDGA1001+999999999GF100991001001999999001001MA1999999078321MD1999999+0071OA150301001REMSYN070AAXX  31091 63330 42980 01610 10196 21026 37832 40264 333 55102 58007;
0176633300999992000013112004+13500+039480FM-12+2212HAMK V0201201N010012200019N0300001N1+02481-00181102481ADDGA1011+005409029GF101991011011004501001001MA1999999078191MD1999999+0131OA150601001REMSYN082AAXX  31121 63330 42480 11210 10248 21018 37819 40248 81100 333 55100 58013 81818;
0147633300999992000013115004+13500+039480FM-12+2212HAMK V0201401N004012200019N0300001N1+01561+00261102431ADDGA1001+999999999GF100991001001999999001001MA1999999078181MD1999999+0061REMSYN064AAXX  31151 63330 42980 01404 10156 20026 37818 40243 333 58006;
0223633300999992000020115004+13500+039480FM-12+2212HAMK V0200901N010012200019N0200001N1+01801-00091102281ADDAY101031AY201031GA1011+024009079GF101991011999008001031001MA1999999078031MD1999999-0161MW1051OA150301001REMSYN088AAXX  01151 63330 41570 10910 10180 21009 37803 40228 70500 81030 333 55102 59016 81358;EQDQ01    003SCOLCG
0147633300999992000020203004+13500+039480FM-12+2212HAMK V0201001N003012200019N0300001N1+00871+00101102211ADDGA1001+999999999GF100991001001999999001001MA1999999077971MD1999999+0011REMSYN064AAXX  02031 63330 43980 01003 10087 20010 37797 40221 333 58001;
0240633300999992000020206004+13500+039480FM-12+2212HAMK V0201301N004012200019N0200001N1+01561-00241102461ADDAA199000091AY101061AY201061GA1001+999999999GF100991001001999999001001KA1120N+01001MA1999999078171MD1999999-0131MW1061REMSYN092AAXX  02061 63330 31970 01304 10156 21024 37817 40246 70600 333 20100 59013 555 22104 32103;EQDQ01  00002PRCP99
0147633300999992000020209004+13500+039480FM-12+2212HAMK V0201301N002012200019N0300001N1+01981+00301102311ADDGA1001+999999999GF100991001001999999001001MA1999999078051MD1999999-0141REMSYN064AAXX  02091 63330 42980 01302 10198 20030 37805 40231 333 59014;
0159633300999992000020212004+13500+039480FM-12+2212HAMK V0209999C000012200019N0300001N1+02201+00421102091ADDGA1011+009009029GF101991011011008001001001MA1999999077881MD1999999-0131REMSYN076AAXX  02121 63330 42580 10000 10220 20042 37788 40209 81100 333 59013 81830;
0147633300999992000020215004+13500+039480FM-12+2212HAMK V0201501N004012200019N0300001N1+01841+00631102161ADDGA1001+999999999GF100991001001999999001001MA1999999077931MD1999999-0101REMSYN064AAXX  02151 63330 42980 01504 10184 20063 37793 40216 333 59010;
0212633300999992000020306004+13500+039480FM-12+2212HAMK V0200901N002012200019N0300001N1+01541+00581102361ADDAA199000091GA1001+999999999GF100991001001999999001001KA1120N+01041MA1999999078091MD1999999+0001REMSYN086AAXX  03061 63330 32980 00902 10154 20058 37809 40236 333 20104 58000 555 22102 32050;EQDQ01  00002PRCP99
0147633300999992000020509004+13500+039480FM-12+2212HAMK V0201401N004012200019N0300001N1+02361-00981102341ADDGA1001+999999999GF100991001001999999001001MA1999999078081MD1999999-0061REMSYN064AAXX  05091 63330 42980 01404 10236 21098 37808 40234 333 59006;
0176633300999992000020512004+13500+039480FM-12+2212HAMK V0201201N008012200019N0300001N1+02341-00591102171ADDGA1011+006609029GF101991011011008001001001MA1999999077941MD1999999-0041OA150600801REMSYN082AAXX  05121 63330 42580 11208 10234 21059 37794 40217 81100 333 55080 59004 81822;
0164633300999992000020515004+13500+039480FM-12+2212HAMK V0201001N012012200019N0300001N1+02001-00961102241ADDGA1001+999999999GF100991001001999999001001MA1999999078001MD1999999-0081OA150301201REMSYN070AAXX  05151 63330 42980 01012 10200 21096 37800 40224 333 55120 59008;
0212633300999992000020606004+13500+039480FM-12+2212HAMK V0201401N004012200019N0300001N1+01921-01091102331ADDAA199000091GA1001+999999999GF100991001001999999001001KA1120N+01101MA1999999078091MD1999999+0011REMSYN086AAXX  06061 63330 32980 01404 10192 21109 37809 40233 333 20110 58001 555 22103 32121;EQDQ01  00002PRCP99
0164633300999992000020609004+13500+039480FM-12+2212HAMK V0201501N012012200019N0300001N1+02321-00591102321ADDGA1001+999999999GF100991001001999999001001MA1999999078061MD1999999-0021OA150301201REMSYN070AAXX  06091 63330 42980 01512 10232 21059 37806 40232 333 55121 59002;
0147633300999992000020615004+13500+039480FM-12+2212HAMK V0201601N006012200019N0300001N1+02001-00261102171ADDGA1001+999999999GF100991001001999999001001MA1999999077941MD1999999-0061REMSYN064AAXX  06151 63330 42980 01606 10200 21026 37794 40217 333 59006;
0147633300999992000020709004+13500+039480FM-12+2212HAMK V0201501N004012200019N0300001N1+02241-00741102291ADDGA1001+999999999GF100991001001999999001001MA1999999078041MD1999999-0021REMSYN064AAXX  07091 63330 42980 01504 10224 21074 37804 40229 333 59002;
0147633300999992000020712004+13500+039480FM-12+2212HAMK V0200901N004012200019N0300001N1+02301-00081102041ADDGA1001+999999999GF100991001001999999001001MA1999999077841MD1999999-0051REMSYN064AAXX  07121 63330 42980 00904 10230 21008 37784 40204 333 59005;
0147633300999992000020715004+13500+039480FM-12+2212HAMK V0200901N006012200019N0300001N1+01901+00841102071ADDGA1001+999999999GF100991001001999999001001MA1999999077861MD1999999-0081REMSYN064AAXX  07151 63330 42980 00906 10190 20084 37786 40207 333 59008;
0147633300999992000020803004+13500+039480FM-12+2212HAMK V0201101N003012200019N0300001N1+01041+00631102121ADDGA1001+999999999GF100991001001999999001001MA1999999077901MD1999999-0051REMSYN064AAXX  08031 63330 43980 01103 10104 20063 37790 40212 333 59005;
0165633300999992000020812004+13500+039480FM-12+2212HAMK V0200601N006012200019N0300001N1+02421+00681102011ADDGA1031+000309029GF104991031021008001001011MA1999999077811MD1999999-0031REMSYN082AAXX  08121 63330 42580 40606 10242 20068 37781 40201 83201 333 59003 83825 82070;
0174633300999992000020903004+13500+039480FM-12+2212HAMK V0201201N003012200019N0300001N1+01101+00891999999ADDGA1011+009009059GF103991011051008001031001MA1999999077951MD1999999+0051ME1211809REMSYN082AAXX  09031 63330 43580 31203 10110 20089 37795 4218/ 81530 333 58005 81620 82357;
0147633300999992000020909004+13500+039480FM-12+2212HAMK V0201601N004012200019N0300001N1+02181+00121102371ADDGA1001+999999999GF100991001001999999001001MA1999999078101MD1999999+0121REMSYN064AAXX  09091 63330 42980 01604 10218 20012 37810 40237 333 58012;
0159633300999992000020912004+13500+039480FM-12+2212HAMK V0201401N006012200019N0300001N1+02301+00251102131ADDGA1021+007509029GF102991021011008001001001MA1999999077911MD1999999+0101REMSYN076AAXX  09121 63330 42580 21406 10230 20025 37791 40213 82100 333 58010 82825;
0176633300999992000020915004+13500+039480FM-12+2212HAMK V0200901N008012200019N0300001N1+01741+01101102161ADDGA1021+007209029GF102991021011008001001001MA1999999077931MD1999999+0101OA150300801REMSYN082AAXX  09151 63330 42580 20908 10174 20110 37793 40216 82100 333 55080 58010 82824;
0159633300999992000021003004+13500+039480FM-12+2212HAMK V0201301N002012200019N0300001N1+01221+00101102181ADDGA1011+006609059GF101991011051008001001001MA1999999077951MD1999999+0001REMSYN076AAXX  10031 63330 43580 11302 10122 20010 37795 40218 81500 333 58000 81622;
0212633300999992000021006004+13500+039480FM-12+2212HAMK V0201401N004012200019N0300001N1+01541+00791102291ADDAA199000091GA1001+999999999GF100991001001999999001001KA1120N+01021MA1999999078041MD1999999-0011REMSYN086AAXX  10061 63330 32980 01404 10154 20079 37804 40229 333 20102 59001 555 22097 32054;EQDQ01  00002PRCP99
0159633300999992000021012004+13500+039480FM-12+2212HAMK V0201601N006012200019N0300001N1+02281+00521102161ADDGA1021+007209029GF102991021021008001001001MA1999999077931MD1999999+0021REMSYN076AAXX  10121 63330 42580 21606 10228 20052 37793 40216 82200 333 58002 82824;
0176633300999992000021112004+13500+039480FM-12+2212HAMK V0201501N012012200019N0300001N1+02321+00731102131ADDGA1011+007509029GF101991011011008001001001MA1999999077911MD1999999-0021OA150601201REMSYN082AAXX  11121 63330 42580 11512 10232 20073 37791 40213 81100 333 55121 59002 81825;
0235633300999992000021206004+13500+039480FM-12+2212HAMK V0201301N010012200019N0300001N1+01501+00831102311ADDAA199000091GA1001+999999999GF100991001001999999001001KA1120N+01001MA1999999078051MD1999999-0031OA150601001REMSYN098AAXX  12061 63330 32980 01310 10150 20083 37805 40231 333 20100 55100 59003 555 22101 32070 10240;EQDQ01  00002PRCP99
0176633300999992000021209004+13500+039480FM-12+2212HAMK V0201501N012012200019N0300001N1+02041+00301102271ADDGA1011+006609029GF101991011011008001001001MA1999999078021MD1999999-0021OA150301201REMSYN082AAXX  12091 63330 42580 11512 10204 20030 37802 40227 81100 333 55121 59002 81822;
0159633300999992000021212004+13500+039480FM-12+2212HAMK V0201201N006012200019N0300001N1+02121+00461102041ADDGA1011+006609029GF101991011011008001001001MA1999999077841MD1999999-0071REMSYN076AAXX  12121 63330 42580 11206 10212 20046 37784 40204 81100 333 59007 81822;
0169633300999992000021215004+13500+039480FM-12+2212HAMK V0201201N006012200019N0300001N1+01901+00421102071ADDGA1011+009009009GF101991011001022501031001MA1999999077861MD1999999-0071REMSYN086AAXX  12151 63330 42880 11206 10190 20042 37786 40207 81030 333 59007 81357 555 10222;
0147633300999992000021303004+13500+039480FM-12+2212HAMK V0209999C000012200019N0300001N1+01151-00241102061ADDGA1001+999999999GF100991001001999999001001MA1999999077851MD1999999-0071REMSYN064AAXX  13031 63330 43980 00000 10115 21024 37785 40206 333 59007;
0218633300999992000021306004+13500+039480FM-12+2212HAMK V0201201N002012200019N0300001N1+01841-00951102341ADDAA199000091GA1001+999999999GF100991001001999999001001KA1120N+01061MA1999999078081MD1999999+0031REMSYN092AAXX  13061 63330 32980 01202 10184 21095 37808 40234 333 20106 58003 555 22101 32092 10220;EQDQ01  00002PRCP99
0147633300999992000021309004+13500+039480FM-12+2212HAMK V0201801N002012200019N0300001N1+02401-01111102271ADDGA1001+999999999GF100991001001999999001001MA1999999078021MD1999999+0001REMSYN064AAXX  13091 63330 42980 01802 10240 21111 37802 40227 333 58000;
0147633300999992000021312004+13500+039480FM-12+2212HAMK V0201401N002012200019N0300001N1+99999+99999101971ADDGA1001+999999999GF100991001001999999001001MA1999999077781MD1999999-0061REMSYN064AAXX  13121 63330 42980 01402 19242 21024 37778 40197 333 59006;
0185633300999992000021315004+13500+039480FM-12+2212HAMK V0201301N007012200019N0300001N1+02061+00461102041ADDAY101031AY201031GA1001+999999999GF100991001001999999001001MA1999999077841MD1999999+0031MW1051REMSYN080AAXX  13151 63330 41980 01307 10206 20046 37784 40204 70500 333 58003 555 10255;
0159633300999992000021403004+13500+039480FM-12+2212HAMK V0200901N004012200019N0300001N1+01061+00581102241ADDGA1011+060009019GF101991001001999999001011MA1999999078001MD1999999+0051REMSYN076AAXX  14031 63330 43980 10904 10106 20058 37800 40224 80001 333 58005 81070;
0164633300999992000021412004+13500+039480FM-12+2212HAMK V0200901N008012200019N0300001N1+02121+00461102061ADDGA1001+999999999GF100991001001999999001001MA1999999077851MD1999999+0071OA150600801REMSYN070AAXX  14121 63330 42980 00908 10212 20046 37785 40206 333 55080 58007;
0169633300999992000021415004+13500+039480FM-12+2212HAMK V0201201N006012200019N0300001N1+01901+00881102131ADDGA1011+000159019GF101991011011008001001001MA1999999077911MD1999999+0071REMSYN086AAXX  14151 63330 42580 11206 10190 20088 37791 40213 81100 333 58007 81824 555 10226;
0147633300999992000021503004+13500+039480FM-12+2212HAMK V0200901N003012200019N0300001N1+01001+00821102161ADDGA1001+999999999GF100991001001999999001001MA1999999077931MD1999999-0011REMSYN064AAXX  15031 63330 43980 00903 10100 20082 37793 40216 333 59001;
0214633300999992000021506004+13500+039480FM-12+2212HAMK V0201401N006012200019N0300001N1+01641+00481102241ADDAA199000091GF101991001001999999001011KA1120N+01021MA1999999078001MD1999999-0061REMSYN104AAXX  15061 63330 32980 11406 10164 20048 37800 40224 80001 333 20102 59006 81070 555 22103 32065 10226;EQDQ01  00002PRCP99
0183633300999992000021509004+13500+039480FM-12+2212HAMK V0201401N010012200019N0300001N1+02201-00742999999ADDGA1001+999999999GF100991001001999999001001MA1999999078051MD1999999+0001OA150301001REMSYN070AAXX  15091 63330 42980 01410 10220 21074 37805 40331 333 55101 58000;EQDQ01+103313APOSLP
0164633300999992000021512004+13500+039480FM-12+2212HAMK V0201501N012012200019N0300001N1+02261-00571102131ADDGA1001+999999999GF100991001001999999001001MA1999999077911MD1999999+0061OA150601201REMSYN070AAXX  15121 63330 42980 01512 10226 21057 37791 40213 333 55121 58006;
0174633300999992000021515004+13500+039480FM-12+2212HAMK V0201301N010012200019N0300001N1+01981+00361102241ADDGA1001+999999999GF100991001001999999001001MA1999999078001MD1999999+0091OA150301001REMSYN080AAXX  15151 63330 42980 01310 10198 20036 37800 40224 333 55100 58009 555 10235;
0147633300999992000021603004+13500+039480FM-12+2212HAMK V0201501N003012200019N0300001N1+01081-00181102261ADDGA1001+999999999GF100991001001999999001001MA1999999078021MD1999999+0081REMSYN064AAXX  16031 63330 43980 01503 10108 21018 37802 40226 333 58008;
0235633300999992000021606004+13500+039480FM-12+2212HAMK V0201401N008012200019N0300001N1+01681-00221102431ADDAA199000091GA1001+999999999GF100991001001999999001001KA1120N+01081MA1999999078151MD1999999+0151OA150600801REMSYN098AAXX  16061 63330 32980 01408 10168 21022 37815 40243 333 20108 55080 58015 555 22103 32114 10235;EQDQ01  00002PRCP99
0159633300999992000021612004+13500+039480FM-12+2212HAMK V0201001N006012200019N0300001N1+02221-00201102261ADDGA1011+006009029GF101991011011008001001001MA1999999078011MD1999999+0101REMSYN076AAXX  16121 63330 42580 11006 10222 21020 37801 40226 81100 333 58010 81820;
0169633300999992000021615004+13500+039480FM-12+2212HAMK V0201501N006012200019N0300001N1+01901-00181102261ADDGA1011+000159019GF101991011011008001001001MA1999999078011MD1999999+0011REMSYN086AAXX  16151 63330 42580 11506 10190 21018 37801 40226 81100 333 58001 81820 555 10234;
0147633300999992000021703004+13500+039480FM-12+2212HAMK V0201201N006012200019N0300001N1+01141+00241102041ADDGA1001+999999999GF100991001001999999001001MA1999999077851MD1999999-0161REMSYN064AAXX  17031 63330 43980 01206 10114 20024 37785 40204 333 59016;
0231633300999992000021706004+13500+039480FM-12+2212HAMK V0201001N008012200019N0300001N1+01581+00231102361ADDAA199000091GF101991001001999999001011KA1120N+01101MA1999999078091MD1999999-0061OA150600801REMSYN110AAXX  17061 63330 32980 11008 10158 20023 37809 40236 80001 333 20110 55081 59006 81070 555 22106 32113 10234;EQDQ01  00002PRCP99
0159633300999992000021709004+13500+039480FM-12+2212HAMK V0200901N006012200019N0300001N1+01981-00341102431ADDGA1011+060009019GF101991001001999999001011MA1999999078151MD1999999-0031REMSYN076AAXX  17091 63330 42980 10906 10198 21034 37815 40243 80001 333 59003 81070;
0169633300999992000021715004+13500+039480FM-12+2212HAMK V0201401N004012200019N0300001N1+01901-00571102311ADDGA1011+000159019GF101991011011008001001001MA1999999078051MD1999999+0041REMSYN086AAXX  17151 63330 42580 11404 10190 21057 37805 40231 81100 333 58004 81822 555 10222;
0147633300999992000021803004+13500+039480FM-12+2212HAMK V0201301N006012200019N0300001N1+01061-00131103241ADDGA1001+999999999GF100991001001999999001001MA1999999077921MD1999999+0071REMSYN064AAXX  18031 63330 43980 01306 10106 21013 37792 40324 333 58007;
0218633300999992000021806004+13500+039480FM-12+2212HAMK V0201401N002012200019N0300001N1+01541-00331102461ADDAA199000091GA1001+999999999GF100991001001999999001001KA1120N+01001MA1999999078171MD1999999+0081REMSYN092AAXX  18061 63330 32980 01402 10154 21033 37817 40246 333 20100 58008 555 22103 32078 10222;EQDQ01  00002PRCP99
0176633300999992000021812004+13500+039480FM-12+2212HAMK V0201401N008010600019N0300001N1+02141-01351102331ADDGA1061+060009019GF106991001001999999001011MA1999999078071MD1999999+0041OA150600801REMSYN082AAXX  18121 63330 42980 61408 10214 21135 37807 40233 80001 333 55080 58004 86070;
0170633300999992000021815004+13500+039480FM-12+2212HAMK V0201401N008012200019N0300001N1+01961-01421102361ADDGF103991001001999999001011MA1999999078091MD1999999+0041OA150300801REMSYN092AAXX  18151 63330 42980 31408 10196 21142 37809 40236 80001 333 55083 58004 83070 555 10225;
0147633300999992000021903004+13500+039480FM-12+2212HAMK V0201301N005012200019N0300001N1+01101-00621102181ADDGA1001+999999999GF100991001001999999001001MA1999999077951MD1999999+0031REMSYN064AAXX  19031 63330 43980 01305 10110 21062 37795 40218 333 58003;
0231633300999992000021906004+13500+039480FM-12+2212HAMK V0201201N008012200019N0300001N1+01721-00741102551ADDAA199000091GF101991001001999999001011KA1120N+01021MA1999999078251MD1999999+0061OA150600801REMSYN110AAXX  19061 63330 32980 11208 10172 21074 37825 40255 80001 333 20102 55080 58006 81070 555 22108 32145 10225;EQDQ01  00002PRCP99
0176633300999992000021909004+13500+039480FM-12+2212HAMK V0201401N008012200019N0300001N1+02041-00921102641ADDGA1011+060009019GF101991001001999999001011MA1999999078321MD1999999+0071OA150300801REMSYN082AAXX  19091 63330 42980 11408 10204 21092 37832 40264 80001 333 55083 58007 81070;
0176633300999992000021912004+13500+039480FM-12+2212HAMK V0201401N010012200019N0300001N1+02241-01351102421ADDGA1021+060009019GF102991001001999999001011MA1999999078141MD1999999+0071OA150601001REMSYN082AAXX  19121 63330 42980 21410 10224 21135 37814 40242 80001 333 55100 58007 82070;
0176633300999992000021915004+13500+039480FM-12+2212HAMK V0200901N008012200019N0300001N1+02021-00921102431ADDGA1011+060009019GF101991001001999999001011MA1999999078151MD1999999+0061OA150300801REMSYN082AAXX  19151 63330 42980 10908 10202 21092 37815 40243 80001 333 55080 58006 81070;
0147633300999992000022003004+13500+039480FM-12+2212HAMK V0201401N004012200019N0300001N1+01201-00441102211ADDGA1001+999999999GF100991001001999999001001MA1999999077971MD1999999+0021REMSYN064AAXX  20031 63330 43980 01404 10120 21044 37797 40221 333 58002;
0235633300999992000022006004+13500+039480FM-12+2212HAMK V0201401N008012200019N0300001N1+01661-00521102391ADDAA199000091GA1001+999999999GF100991001001999999001001KA1120N+01501MA1999999078121MD1999999-0131OA150600801REMSYN098AAXX  20061 63330 32980 01408 10166 21052 37812 40239 333 20150 55080 59013 555 22108 32133 10234;EQDQ01  00002PRCP99
0147633300999992000022009004+13500+039480FM-12+2212HAMK V0201401N006012200019N0300001N1+02141-00741102461ADDGA1001+999999999GF100991001001999999001001MA1999999078171MD1999999-0151REMSYN064AAXX  20091 63330 42980 01406 10214 21074 37817 40246 333 59015;
0159633300999992000022012004+13500+039480FM-12+2212HAMK V0201001N004012200019N0300001N1+02361-00481102241ADDGA1011+006009029GF101991011011008001001001MA1999999078001MD1999999-0141REMSYN076AAXX  20121 63330 42580 11004 10236 21048 37800 40224 81100 333 59014 81820;
0147633300999992000022015004+13500+039480FM-12+2212HAMK V0201001N006012200019N0300001N1+02001-00341102271ADDGA1001+999999999GF100991001001999999001001MA1999999078021MD1999999-0131REMSYN064AAXX  20151 63330 42980 01006 10200 21034 37802 40227 333 59013;
0147633300999992000022103004+13500+039480FM-12+2212HAMK V0201301N004012200019N0300001N1+01441-00101102061ADDGA1001+999999999GF100991001001999999001001MA1999999077851MD1999999-0121REMSYN064AAXX  21031 63330 43980 01304 10144 21010 37785 40206 333 59012;
0212633300999992000022106004+13500+039480FM-12+2212HAMK V0201601N006012200019N0300001N1+01681-00141102321ADDAA199000091GA1001+999999999GF100991001001999999001001KA1120N+01091MA1999999078041MD1999999-0051REMSYN086AAXX  21061 63330 32980 01606 10168 21014 37804 40232 333 20109 59005 555 22105 32100;EQDQ01  00002PRCP99
0164633300999992000022109004+13500+039480FM-12+2212HAMK V0201301N008012200019N0300001N1+02101-00531102281ADDGA1001+999999999GF100991001001999999001001MA1999999078031MD1999999-0141OA150300801REMSYN070AAXX  21091 63330 42980 01308 10210 21053 37803 40228 333 55081 59014;
0159633300999992000022112004+13500+039480FM-12+2212HAMK V0201301N006012200019N0300001N1+02261-00081102061ADDGA1011+007509029GF101991011011008001001001MA1999999077851MD1999999-0151REMSYN076AAXX  21121 63330 42580 11306 10226 21008 37785 40206 81100 333 59015 81825;
0147633300999992000022203004+13500+039480FM-12+2212HAMK V0201101N004012200019N0300001N1+01281-00181101981ADDGA1001+999999999GF100991001001999999001001MA1999999077791MD1999999-0061REMSYN064AAXX  22031 63330 43980 01104 10128 21018 37779 40198 333 59006;
0214633300999992000022206004+13500+039480FM-12+2212HAMK V0201501N006012200019N0300001N1+01721-00301102221ADDAA199000091GF101991001001999999001011KA1120N+01201MA1999999077981MD1999999-0091REMSYN104AAXX  22061 63330 32980 11506 10172 21030 37798 40222 80001 333 20120 59009 8170/ 555 22103 32116 10240;EQDQ01  00002PRCP99
0159633300999992000022212004+13500+039480FM-12+2212HAMK V0201401N002012200019N0300001N1+02361-00151101971ADDGA1011+007509029GF101991011011008001001001MA1999999077781MD1999999-0071REMSYN076AAXX  22121 63330 42580 11402 10236 21015 37778 40197 81100 333 59007 81825;
0186633300999992000022215004+13500+039480FM-12+2212HAMK V0201401N010012200019N0300001N1+02001+00011101971ADDGA1011+000159019GF101991011011008001001001MA1999999077781MD1999999-0111OA150301001REMSYN092AAXX  22151 63330 42580 11410 10200 20001 37778 40197 81100 333 55100 59011 81825 555 10236;
0206633300999992000022300004+13500+039480FM-12+2212HAMK V0202801N002012200019N0200001N1+02881+00511100091ADDAY101061AY201061GA1021+009009029GF102991021011008001001001MA1999999999999MD1999999-0131MW1051REMSYN082AAXX  23001 63330 41570 22802 10288 20051 38038 40009 70500 82100 333 59013 82830;EQDQ01 080383APOSP 
0159633300999992000022303004+13500+039480FM-12+2212HAMK V0201101N004012200019N0300001N1+01152-00441102021ADDGA1021+060009019GF102991001001999999001011MA1999999077821MD1999999+0031REMSYN076AAXX  23031 63330 43980 21104 10115 21044 37782 40202 80001 333 58003 82070;
0214633300999992000022306004+13500+039480FM-12+2212HAMK V0200901N004012200019N0300001N1+01741-00611102081ADDAA199000091GF102991001001999999001011KA1120N+01081MA1999999077871MD1999999-0111REMSYN104AAXX  23061 63330 32980 20904 10174 21061 37787 40208 80001 333 20108 59011 82070 555 22101 32115 10236;EQDQ01  00002PRCP99
0159633300999992000022309004+13500+039480FM-12+2212HAMK V0200901N003012200019N0300001N1+02281-00481102111ADDGA1021+060009019GF102991001001999999001011MA1999999077891MD1999999-0081REMSYN076AAXX  23091 63330 42980 20903 10228 21048 37789 40211 80001 333 59008 82070;
0182633300999992000022312004+13500+039480FM-12+2212HAMK V0201401N012012200019N0300001N1+02341+00421101931ADDGA1031+000159089GF103991031081008001001001MA1999999077751MD1999999-0031OA150601201REMSYN088AAXX  23121 63330 42580 31412 10234 20042 37775 40193 83800 333 55121 59003 82622 81825;
0141633300999992000022315004+13500+039480FM-12+2212HAMK V0201501N010012200019N0300001N1+01961-00571101971ADDGF104991021051008001031001MD1999999+0001REMSYN070AAXX  23151 63330 42580 41510 10196 21057 33378 40197 82530 333 58000;EQDQ01+033781APOSP 
0147633300999992000022403004+13500+039480FM-12+2212HAMK V0201301N004012200019N0300001N1+01141+00181101981ADDGA1001+999999999GF100991001001999999001001MA1999999077791MD1999999-0031REMSYN064AAXX  24031 63330 43980 01304 10114 20018 37779 40198 333 59003;
0218633300999992000022406004+13500+039480FM-12+2212HAMK V0201201N002012200019N0300001N1+01781-00041102191ADDAA199000091GA1001+999999999GF100991001001999999001001KA1120N+01001MA1999999077961MD1999999+0091REMSYN092AAXX  24061 63330 32980 01202 10178 21004 37796 40219 333 20100 58009 555 22095 32107 10245;EQDQ01  00002PRCP99
0147633300999992000022409004+13500+039480FM-12+2212HAMK V0201701N004012200019N0300001N1+02301+00001102271ADDGA1001+999999999GF100991001001999999001001MA1999999078021MD1999999+0131REMSYN064AAXX  24091 63330 42980 01704 10230 20000 37802 40227 333 58013;
0159633300999992000022412004+13500+039480FM-12+2212HAMK V0201201N006012200019N0300001N1+02301+00521102061ADDGA1011+006609029GF101991011011008001001001MA1999999077851MD1999999+0101REMSYN076AAXX  24121 63330 42580 11206 10230 20052 37785 40206 81100 333 58010 81822;
0147633300999992000022503004+13500+039480FM-12+2212HAMK V0201401N006012200019N0300001N1+01141+00471102181ADDGA1001+999999999GF100991001001999999001001MA1999999077951MD1999999+0161REMSYN064AAXX  25031 63330 43980 01406 10114 20047 37795 40218 333 58016;
0230633300999992000022506004+13500+039480FM-12+2212HAMK V0200801N004012200019N0300001N1+01501+00951102321ADDAA199000091GA1011+000159019GF101991011011004501001001KA1120N+01041MA1999999078061MD1999999+0101REMSYN104AAXX  25061 63330 32480 10804 10150 20095 37806 40232 81100 333 20104 58010 81818 555 22094 32070 10246;EQDQ01  00002PRCP99
0176633300999992000022509004+13500+039480FM-12+2212HAMK V0201201N008012200019N0300001N1+02081+00711102331ADDGA1011+006009029GF101991011011008001001001MA1999999078071MD1999999+0051OA150300801REMSYN082AAXX  25091 63330 42580 11208 10208 20071 37807 40233 81100 333 55081 58005 81820;
0186633300999992000022515004+13500+039480FM-12+2212HAMK V0201501N012012200019N0300001N1+01901+01041102241ADDGA1011+000159019GF101991011011008001001001MA1999999078001MD1999999+0111OA150301201REMSYN092AAXX  25151 63330 42580 11512 10190 20104 37800 40224 81100 333 55120 58011 81830 555 10235;
0230633300999992000022606004+13500+039480FM-12+2212HAMK V0201301N006012200019N0300001N1+01841+00421102271ADDAA199000091GA1021+000159059GF102991021051008001001001KA1120N+01161MA1999999078061MD1999999-0041REMSYN104AAXX  26061 63330 32580 21306 10184 20042 37806 40227 82500 333 20116 59004 82625 555 22100 32065 10235;EQDQ01  00002PRCP99
0164633300999992000022609004+13500+039480FM-12+2212HAMK V0201501N008012200019N0300001N1+02301+00191102321ADDGA1001+999999999GF100991001001999999001001MA1999999078071MD1999999+0081OA150300801REMSYN070AAXX  26091 63330 42980 01508 10230 20019 37807 40232 333 55080 58008;
0176633300999992000022612004+13500+039480FM-12+2212HAMK V0200901N008012200019N0300001N1+02721+00051102071ADDGA1011+007509029GF101991011011008001001001MA1999999077861MD1999999-0051OA150600801REMSYN082AAXX  26121 63330 42580 10908 10272 20005 37786 40207 81100 333 55083 59005 81825;
0186633300999992000022615004+13500+039480FM-12+2212HAMK V0201401N008012200019N0300001N1+02081+00461102081ADDGA1011+000159019GF101991011011008001001001MA1999999077871MD1999999-0131OA150300801REMSYN092AAXX  26151 63330 42580 11408 10208 20046 37787 40208 81100 333 55080 59013 81824 555 10255;
0218633300999992000022706004+13500+039480FM-12+2212HAMK V0209999C000012200019N0300001N1+01721+00031102221ADDAA199000091GA1001+999999999GF100991001001999999001001KA1120N+01121MA1999999077981MD1999999-0041REMSYN092AAXX  27061 63330 32980 00000 10172 20003 37798 40222 333 20112 59004 555 22093 32127 10255;EQDQ01  00002PRCP99
0147633300999992000022709004+13500+039480FM-12+2212HAMK V0201401N004012200019N0300001N1+02181+00071102261ADDGA1001+999999999GF100991001001999999001001MA1999999077991MD1999999-0081REMSYN064AAXX  27091 63330 42980 01404 10218 20007 37799 40226 333 59008;
0165633300999992000022712004+13500+039480FM-12+2212HAMK V0201301N006012200019N0300001N1+02401+00051102031ADDGA1011+009009019GF102991011011008001031001MA1999999077831MD1999999-0031REMSYN082AAXX  27121 63330 42580 21306 10240 20005 37783 40203 81130 333 59003 81824 81358;
0192633300999992000022715004+13500+039480FM-12+2212HAMK V0201201N010012200019N0300001N1+02021+00511102081ADDGA1011+009009019GF103991011011008001031001MA1999999077871MD1999999+0001OA150301001REMSYN098AAXX  27151 63330 42580 31210 10202 20051 37787 40208 81130 333 55101 58000 81822 82358 555 10245;
0177633300999992000022803004+13500+039480FM-12+2212HAMK V0201301N005012200019N0150001N1+01121+00921102111ADDGA1031+000159069GF103991031061001501001001MA1999999077891MD1999999-0011MW1101REMSYN088AAXX  28031 63330 41265 31305 10112 20092 37789 40211 710// 83600 333 59001 81705 82620;
0253633300999992000022806004+13500+039480FM-12+2212HAMK V0201201N010012200019N0300001N1+01421+01031102241ADDAA199000091GA1021+009009069GF103991021061008001031001KA1120N+01101MA1999999078001MD1999999+0021OA150601001REMSYN116AAXX  28061 63330 32580 31210 10142 20103 37800 40224 82630 333 20110 55100 58002 82622 81358 555 22101 32087 10245;EQDQ01  00002PRCP99
0182633300999992000022809004+13500+039480FM-12+2212HAMK V0201401N012012200019N0300001N1+02001+01001102231ADDGA1011+009009069GF103991011061008001031001MA1999999077991MD1999999+0001OA150301201REMSYN088AAXX  28091 63330 42580 31412 10200 20100 37799 40223 81630 333 55121 58000 81630 82358;
0182633300999992000022812004+13500+039480FM-12+2212HAMK V0201601N008012200019N0300001N1+02241+01021102041ADDGA1011+000309019GF102991011011008001001011MA1999999077841MD1999999+0011OA150600801REMSYN088AAXX  28121 63330 42580 21608 10224 20102 37784 40204 81101 333 55081 58001 81824 81070;
0169633300999992000022815004+13500+039480FM-12+2212HAMK V0201401N006012200019N0300001N1+01841+01151102121ADDGA1011+000159019GF101991011011008001001001MA1999999077901MD1999999+0031REMSYN086AAXX  28151 63330 42580 11406 10184 20115 37790 40212 81100 333 58003 81822 555 10230;
0171633300999992000022903004+13500+039480FM-12+2212HAMK V0201401N003012200019N0200001N1+01021+00821102221ADDGA1011+001509069GF101991011061001501001001MA1999999077981MD1999999+0091MW1101REMSYN082AAXX  29031 63330 41270 11403 10102 20082 37798 40222 710// 81600 333 58009 81705;
0176633300999992000022906004+13500+039480FM-12+2212HAMK V0201701N002019999999N0300001N1+01541+00911102391ADDAA199000091KA1120N+00961MA1999999078121MD1999999+0121REMSYN092AAXX  29061 63330 32980 /1702 10154 20091 37812 40239 333 20096 58012 555 22100 32060 10230;EQDQ01  00002PRCP99
0159633300999992000022912004+13500+039480FM-12+2212HAMK V0201301N004012200019N0300001N1+02361+00471102211ADDGA1011+006009029GF101991011011008001001001MA1999999077971MD1999999+0131REMSYN076AAXX  29121 63330 42580 11304 10236 20047 37797 40221 81100 333 58013 81820;
0175633300999992000022915004+13500+039480FM-12+2212HAMK V0200901N006012200019N0300001N1+02041+00751102261ADDGA1011+000309019GF103991011011008001001011MA1999999078011MD1999999+0111REMSYN092AAXX  29151 63330 42580 30906 10204 20075 37801 40226 81101 333 58011 81830 82070 555 10250;
0171633300999992000030103004+13500+039480FM-12+2212HAMK V0201301N005012200019N0150001N1+01061+00781102131ADDGA1011+001509069GF101991011061001501001001MA1999999077911MD1999999-0071MW1101REMSYN082AAXX  01031 63330 41265 11305 10106 20078 37791 40213 710// 81600 333 59007 81705;
0159633300999992000030112004+13500+039480FM-12+2212HAMK V0200901N006012200019N0300001N1+02261+00251999999ADDGA1011+007209029GF101991011011008001001001MA1999999077961MD1999999-0011REMSYN076AAXX  01121 63330 42580 10906 10226 20025 37796 4//09 81100 333 59001 81824;
0165633300999992000030212004+13500+039480FM-12+2212HAMK V0200901N00601220001CN0300001N1+02101+01651102181ADDGA1021+000309019GF106991021011008001001011MA1999999077951MD1999999-0011REMSYN082AAXX  02121 63330 42580 60906 10210 20165 37795 40218 82101 333 59001 82822 85070;
0159633300999992000030303004+13500+039480FM-12+2212HAMK V0201001N003012200019N0300001N1+01161+01031102191ADDGA1031+006009059GF103991031051008001001001MA1999999077961MD1999999+0121REMSYN076AAXX  03031 63330 43580 31003 10116 20103 37796 40219 83500 333 58012 83620;
0147633300999992000030503004+13500+039480FM-12+2212HAMK V0201301N002012200019N0300001N1+01121+00301102261ADDGA1001+999999999GF100991001001999999001001MA1999999078011MD1999999-0031REMSYN064AAXX  05031 63330 43980 01302 10112 20030 37801 40226 333 59003;
0218633300999992000030506004+13500+039480FM-12+2212HAMK V0201301N002012200019N0300001N1+01741+00521102461ADDAA199000091GA1001+999999999GF100991001001999999001001KA1120N+01121MA1999999078171MD1999999+0051REMSYN092AAXX  05061 63330 32980 01302 10174 20052 37817 40246 333 20112 58005 555 22103 32115 10235;EQDQ01  00002PRCP99
0164633300999992000030509004+13500+039480FM-12+2212HAMK V0201601N012012200019N0300001N1+02221+00301102391ADDGA1001+999999999GF100991001001999999001001MA1999999078121MD1999999-0021OA150301201REMSYN070AAXX  05091 63330 42980 01612 10222 20030 37812 40239 333 55120 59002;
0176633300999992000030512004+13500+039480FM-12+2212HAMK V0200901N008012200019N0300001N1+02321+00471102191ADDGA1011+007509029GF101991011011008001001001MA1999999077961MD1999999-0041OA150600801REMSYN082AAXX  05121 63330 42580 10908 10232 20047 37796 40219 81100 333 55080 59004 81825;
0169633300999992000030515004+13500+039480FM-12+2212HAMK V0200901N006012200019N0300001N1+02041+00511102211ADDGA1011+000309019GF101991011011008001001011MA1999999077971MD1999999+0011REMSYN086AAXX  05151 63330 42580 10906 10204 20051 37797 40221 81101 333 58001 81822 555 10245;
0147633300999992000030603004+13500+039480FM-12+2212HAMK V0201001N002012200019N0300001N1+01201+00421102131ADDGA1001+999999999GF100991001001999999001001MA1999999077911MD1999999-0131REMSYN064AAXX  06031 63330 43980 01002 10120 20042 37791 40213 333 59013;
0218633300999992000030606004+13500+039480FM-12+2212HAMK V0200901N003012200019N0300001N1+01701+00621102281ADDAA199000091GA1001+999999999GF100991001001999999001001KA1120N+01161MA1999999078031MD1999999-0141REMSYN092AAXX  06061 63330 32980 00903 10170 20062 37803 40228 333 20116 59014 555 22104 32097 10245;EQDQ01  00002PRCP99
0176633300999992000030612004+13500+039480FM-12+2212HAMK V0201201N010012200019N0300001N1+02481+00831102111ADDGA1011+007209029GF101991011011008001001001MA1999999077891MD1999999-0071OA150601001REMSYN082AAXX  06121 63330 42580 11210 10248 20083 37789 40211 81100 333 55100 59007 81824;
0186633300999992000030615004+13500+039480FM-12+2212HAMK V0201401N012012200019N0300001N1+02121+00661102131ADDGA1011+000159019GF101991011011008001001001MA1999999077911MD1999999-0061OA150301201REMSYN092AAXX  06151 63330 42580 11412 10212 20066 37791 40213 81100 333 55120 59006 81823 555 10250;
0147633300999992000030703004+13500+039480FM-12+2212HAMK V0201501N002012200019N0300001N1+01301+00371102061ADDGA1001+999999999GF100991001001999999001001MA1999999077851MD1999999-0061REMSYN064AAXX  07031 63330 43980 01502 10130 20037 37785 40206 333 59006;
0218633300999992000030706004+13500+039480FM-12+2212HAMK V0201301N006012200019N0300001N1+01901+00421102121ADDAA199000091GA1001+999999999GF100991001001999999001001KA1120N+01261MA1999999077921MD1999999-0111REMSYN092AAXX  07061 63330 32980 01306 10190 20042 37792 40212 333 20126 59011 555 22101 32108 10250;EQDQ01  00002PRCP99
0183633300999992000030709004+13500+039480FM-12+2212HAMK V0201601N009012200019N0300001N1+02301+00471102131ADDGA1001+999999999GF100991001001999999001001MA1999999077991MD1999999-0111OA150399999REMSYN070AAXX  07091 63330 42980 01609 10230 20047 37799 40213 333 55082 59011;EQDQ01  00802WGOSPD
0159633300999992000030712004+13500+039480FM-12+2212HAMK V0200901N006012200019N0300001N1+02521+00311101961ADDGA1011+007509029GF101991011011008001001001MA1999999077761MD1999999-0131REMSYN076AAXX  07121 63330 42580 10906 10252 20031 37776 40196 81100 333 59013 81825;
0230633300999992000030806004+13500+039480FM-12+2212HAMK V0201201N004012200019N0300001N1+01781+00571102161ADDAA199000091GA1011+000159019GF101991011011008001001001KA1120N+01321MA1999999077931MD1999999+0011REMSYN104AAXX  08061 63330 32580 11204 10178 20057 37793 40216 81100 333 20132 58001 81825 555 22098 32100 10264;EQDQ01  00002PRCP99
0182633300999992000030812004+13500+039480FM-12+2212HAMK V0201201N01201045001CN0300001N1+02321+00951102081ADDGA1041+009009029GF106991041021008001031001MA1999999077871MD1999999+0111OA150601201REMSYN088AAXX  08121 63330 42580 61212 10232 20095 37787 40208 84230 333 55121 58011 84825 83358;
0192633300999992000030815004+13500+039480FM-12+2212HAMK V0201301N01201045001CN0300001N1+01961+01071102131ADDGA1021+009009029GF105991021021008001031001MA1999999077911MD1999999+0121OA150301201REMSYN098AAXX  08151 63330 42580 51312 10196 20107 37791 40213 82230 333 55123 58012 82825 83358 555 10245;
0165633300999992000030903004+13500+039480FM-12+2212HAMK V0209999C000012200019N0200001N1+01201+01031102131ADDGA1021+000159069GF102991021061001501001001MA1999999077911MD1999999+0091REMSYN082AAXX  09031 63330 43270 20000 10120 20103 37791 40213 82600 333 58009 81703 81623;
0250633300999992000030906004+13500+039480FM-12+2212HAMK V0201201N002012200019N0150001N1+01701+01171102281ADDAA199000091AY101061GA1041+000159069GF104991041061002501001001KA1120N+01101MA1999999078031MD1999999+0101MW1101REMSYN110AAXX  09061 63330 31365 41202 10170 20117 37803 40228 7100/ 84600 333 20110 58010 84710 555 22098 3207/ 10245;EQDQ01  00002PRCP99
0178633300999992000030909004+13500+039480FM-12+2212HAMK V0209999C000012200019N0300001N1+02141+01121102131ADDGA1021+007809029GF103991999011008001001001MA1999999077911MD1999999-0081REMSYN076AAXX  09091 63330 42580 30000 10214 20112 37791 40213 82100 333 59008 82826;EQDQ01+000022SCOTLC
0182633300999992000030912004+13500+039480FM-12+2212HAMK V0201301N008012200019N0300001N1+02201+01061102061ADDGA1031+009009029GF104991031021008001031001MA1999999077851MD1999999-0021OA150600801REMSYN088AAXX  09121 63330 42580 41308 10220 20106 37785 40206 83230 333 55080 59002 83827 81358;
0226633300999992000030915004+13500+039480FM-12+2212HAMK V0201201N008012200019N0250001N1+01841+01261102131ADDAY101031AY201031GA1031+009009089GF104991031081008001031001MA1999999077911MD1999999-0021MW1051OA150300801REMSYN110AAXX  09151 63330 41575 41208 10184 20126 37791 40213 70500 83830 333 55080 59002 82622 81824 82358 555 10237;
0177633300999992000031003004+13500+039480FM-12+2212HAMK V0209999C000012200019N0100001N1+00981+00821102121ADDGA1031+000159069GF103991031061001501001001MA1999999077901MD1999999-0011MW1101REMSYN088AAXX  10031 63330 41260 30000 10098 20082 37790 40212 710// 83600 333 59001 82703 81620;
0230633300999992000031006004+13500+039480FM-12+2212HAMK V0201401N004012200019N0300001N1+01561+01141102291ADDAA199000091GA1031+000159069GF103991031061008001001001KA1120N+00961MA1999999078041MD1999999+0011REMSYN104AAXX  10061 63330 32580 31404 10156 20114 37804 40229 83600 333 20096 58001 83622 555 22090 32042 10237;EQDQ01  00002PRCP99
0165633300999992000031009004+13500+039480FM-12+2212HAMK V0200901N006012200019N0300001N1+02181+00891102091ADDGA1011+000309019GF103991011011008001001011MA1999999078041MD1999999+0071REMSYN082AAXX  10091 63330 42580 30906 10218 20089 37804 40209 81101 333 58007 81824 82070;
0182633300999992000031012004+13500+039480FM-12+2212HAMK V0201501N008012200019N0300001N1+02321+00251102081ADDGA1011+000309019GF102991011011008001001011MA1999999077871MD1999999+0021OA150600801REMSYN088AAXX  10121 63330 42580 21508 10232 20025 37787 40208 81101 333 55082 58002 81822 82070;
0175633300999992000031015004+13500+039480FM-12+2212HAMK V0201001N006012200019N0300001N1+01961+01041102111ADDGA1011+000309019GF103991011011008001001011MA1999999077891MD1999999-0021REMSYN092AAXX  10151 63330 42580 31006 10196 20104 37789 40211 81101 333 59002 81820 83070 555 10242;
0147633300999992000031103004+13500+039480FM-12+2212HAMK V0201201N003012200019N0300001N1+01141+00851102041ADDGA1001+999999999GF100991001001999999001001MA1999999077841MD1999999-0061REMSYN064AAXX  11031 63330 43980 01203 10114 20085 37784 40204 333 59006;
0215633300999992000031106004+13500+039480FM-12+2212HAMK V0201701N004012200019N0300001N1+01801+00521999999ADDAA199000091GA1001+999999999GF100991001001999999001001KA1120N+01101REMSYN086AAXX  11061 63330 32980 01704 10180 20052 38404 40029 333 20110 5800/ 555 22097 32068;EQDQ01+084043APOSP Q02+100293APOSLPQ03  00002PRCP99
0159633300999992000031109004+13500+039480FM-12+2212HAMK V0201501N006012200019N0300001N1+02201+00611102331ADDGA1011+006009029GF101991011011008001001001MA1999999078071MD1999999+0031REMSYN076AAXX  11091 63330 42580 11506 10220 20061 37807 40233 81100 333 58003 81820;
0147633300999992000031112004+13500+039480FM-12+2212HAMK V0201401N006012200019N0300001N1+02381+00681102191ADDGA1001+999999999GF100991001001999999001001MA1999999077961MD1999999+0091REMSYN064AAXX  11121 63330 42980 01406 10238 20068 37796 40219 333 58009;
0176633300999992000031115004+13500+039480FM-12+2212HAMK V0201401N003012200019N0300001N1+01901+01261102491ADDGA1001+999999999GF100991001001999999001001MA1999999077362MD1999999-0071REMSYN074AAXX  11151 63330 42580 01403 10190 20126 37736 40249 333 59007 555 10226;EQDQ01+077363APOSP 
0184633300999992000031203004+13500+039480FM-12+2212HAMK V0201301N003012200019N0150001N1+01221+01001102111ADDGA1021+000159069GF102991021061001501001001MA1999999999999MD1999999+0051REMSYN082AAXX  12031 63330 41265 21303 10122 20100 36689 40211 82600 333 58005 81703 81620;EQDQ01 066893APOSP 
0263633300999992000031206004+13500+039480FM-12+2212HAMK V0201401N008012200019N0300001N1+01541+00991102291ADDAA199000091GA1011+000159019GF101991011011008001001001KA1120N+01101MA1999999078042MD1999999+0001OA150600801REMSYN110AAXX  12061 63330 32580 11408 10154 20099 37804 40229 81100 333 20110 55080 58000 81820 555 22105 32070 10246;EQDQ01+078043APOSP Q02  00002PRCP99
0186633300999992000031215004+13500+039480FM-12+2212HAMK V0201301N012012200019N0300001N1+02001+01041102161ADDGA1021+000159019GF102991021011008001001001MA1999999077931MD1999999-0031OA150301201REMSYN092AAXX  12151 63330 42580 21312 10200 20104 37793 40216 82100 333 55120 59003 82823 555 10240;
0147633300999992000031303004+13500+039480FM-12+2212HAMK V0201401N006012200019N0300001N1+01121+00691101931ADDGA1001+999999999GF100991001001999999001001MA1999999077751MD1999999-0141REMSYN064AAXX  13031 63330 43980 01406 10112 20069 37775 40193 333 59014;
0235633300999992000031306004+13500+039480FM-12+2212HAMK V0201601N012012200019N0300001N1+01681+00431102171ADDAA199000091GA1001+999999999GF100991001001999999001001KA1120N+01041MA1999999077941MD1999999-0101OA150601201REMSYN098AAXX  13061 63330 32980 01612 10168 20043 37794 40217 333 20104 55120 59010 555 22103 32076 10240;EQDQ01  00002PRCP99
0157633300999992000031315004+13500+039480FM-12+2212HAMK V0201201N006012200019N0300001N1+02041+00511102031ADDGA1001+999999999GF100991001001999999001001MA1999999077831MD1999999-0101REMSYN074AAXX  13151 63330 42980 01206 10204 20051 37783 40203 333 59010 555 10245;
0147633300999992000031403004+13500+039480FM-12+2212HAMK V0201301N005012200019N0300001N1+01181-00031102971ADDGA1001+999999999GF100991001001999999001001MA1999999077771MD1999999-0021REMSYN064AAXX  14031 63330 43980 01305 10118 21003 37777 40297 333 59002;
0228633300999992000031406004+13500+039480FM-12+2212HAMK V0201401N006012200019N0300001N1+01801+00261102062ADDAA199000091GA1001+999999999GF100991001001999999001001KA1120N+01101MA1999999077851MD1999999-0091REMSYN086AAXX  14061 63330 32980 01406 10180 20026 37785 40206 333 20110 59009 555 22103 32128;EQDQ01+102063APOSLPQ02  00002PRCP99
0164633300999992000031409004+13500+039480FM-12+2212HAMK V0201401N008012200019N0300001N1+02321+00521102081ADDGA1001+999999999GF100991001001999999001001MA1999999077871MD1999999-0101OA150300801REMSYN070AAXX  14091 63330 42980 01408 10232 20052 37787 40208 333 55080 59010;
0159633300999992000031412004+13500+039480FM-12+2212HAMK V0201001N004012200019N0300001N1+02421+00871101911ADDGA1011+006009029GF101991011011008001031001MA1999999077731MD1999999-0081REMSYN076AAXX  14121 63330 42580 11004 10242 20087 37773 40191 81130 333 59008 81820;
0147633300999992000031503004+13500+039480FM-12+2212HAMK V0201301N005012200019N0300001N1+01301+00311101971ADDGA1001+999999999GF100991001001999999001001MA1999999077781MD1999999+0011REMSYN064AAXX  15031 63330 43980 01305 10130 20031 37778 40197 333 58001;
0218633300999992000031506004+13500+039480FM-12+2212HAMK V0200901N006012200019N0300001N1+01821-00091102141ADDAA199000091GA1001+999999999GF100991001001999999001001KA1120N+01141MA1999999077921MD1999999+0071REMSYN092AAXX  15061 63330 32980 00906 10182 21009 37792 40214 333 20114 58007 555 22106 32138 10250;EQDQ01  00002PRCP99
0159633300999992000031512004+13500+039480FM-12+2212HAMK V0201301N004012200019N0300001N1+02441+00591102011ADDGA1021+007509029GF102991021011008001001001MA1999999077811MD1999999+0081REMSYN076AAXX  15121 63330 42580 21304 10244 20059 37781 40201 82100 333 58008 82825;
0186633300999992000031515004+13500+039480FM-12+2212HAMK V0201201N008012200019N0300001N1+02141+01101101981ADDGA1011+009009019GF102991011011008001031001MA1999999077791MD1999999-0021OA150300801REMSYN092AAXX  15151 63330 42580 21208 10214 20110 37779 40198 81130 333 55080 59002 81823 555 10252;
0147633300999992000031603004+13500+039480FM-12+2212HAMK V0201201N003012200019N0300001N1+01241+00311101981ADDGA1001+999999999GF100991001001999999001001MA1999999077791MD1999999+0011REMSYN064AAXX  16031 63330 43980 01203 10124 20031 37779 40198 333 58001;
0218633300999992000031606004+13500+039480FM-12+2212HAMK V0201401N004012200019N0300001N1+01801+00571102191ADDAA199000091GA1001+999999999GF100991001001999999001001KA1120N+01141MA1999999077961MD1999999+0041REMSYN092AAXX  16061 63330 32980 01404 10180 20057 37796 40219 333 20114 58004 555 22102 32098 10252;EQDQ01  00002PRCP99
0147633300999992000031609004+13500+039480FM-12+2212HAMK V0201201N004012200019N0300001N1+02341+00731102091ADDGA1001+999999999GF100991001001999999001001MA1999999077881MD1999999-0011REMSYN064AAXX  16091 63330 42980 01204 10234 20073 37788 40209 333 59001;
0182633300999992000031612004+13500+039480FM-12+2212HAMK V0201201N012012200019N0300001N1+02501+00831101811ADDGA1031+009009029GF104991031021008001031001MA1999999077651MD1999999+0161OA150601201REMSYN088AAXX  16121 63330 42580 41212 10250 20083 37765 40181 83230 333 55120 58016 83825 82360;
0169633300999992000031615004+13500+039480FM-12+2212HAMK V0201201N006012200019N0300001N1+02241+00611101881ADDGA1031+009009009GF103991031001022501031001MA1999999077711MD1999999-0081REMSYN086AAXX  16151 63330 42880 31206 10224 20061 37771 40188 83030 333 59008 83358 555 10260;
0147633300999992000031703004+13500+039480FM-12+2212HAMK V0209999C000012200019N0300001N1+01121+00301101931ADDGA1001+999999999GF100991001001999999001001MA1999999077751MD1999999-0041REMSYN064AAXX  17031 63330 43980 00000 10112 20030 37775 40193 333 59004;
0176633300999992000031706004+13500+039480FM-12+2212HAMK V0209999C000019999999N0300001N1+01981+00561102021ADDAA199000091KA1120N+01101MA1999999077831MD1999999-0131REMSYN092AAXX  17061 63330 32980 /0000 10198 20056 37783 40202 333 20110 59013 555 22104 32085 10260;EQDQ01  00002PRCP99
0176633300999992000031712004+13500+039480FM-12+2212HAMK V0201301N008012200019N0300001N1+02641+00981101811ADDGA1021+007809029GF102991021011008001001001MA1999999077651MD1999999-0101OA150600801REMSYN082AAXX  17121 63330 42580 21308 10264 20098 37765 40181 82100 333 55081 59010 82826;
0147633300999992000031803004+13500+039480FM-12+2212HAMK V0200901N002012200019N0300001N1+01261+00181101881ADDGA1001+999999999GF100991001001999999001001MA1999999077711MD1999999-0041REMSYN064AAXX  18031 63330 43980 00902 10126 20018 37771 40188 333 59004;
0159633300999992000031812004+13500+039480FM-12+2212HAMK V0201201N006012200019N0300001N1+02521+01041101811ADDGA1011+006609029GF101991011011008001001001MA1999999077651MD1999999+0001REMSYN076AAXX  18121 63330 42580 11206 10252 20104 37765 40181 81100 333 58000 81822;
0169633300999992000031815004+13500+039480FM-12+2212HAMK V0200901N006012200019N0300001N1+02161+01101101831ADDGA1011+000159019GF101991011011008001001001MA1999999077671MD1999999+0001REMSYN086AAXX  18151 63330 42580 10906 10216 20110 37767 40183 81100 333 58000 81820 555 10262;
0159633300999992000031903004+13500+039480FM-12+2212HAMK V0201201N002012200019N0300001N1+01221+01031102041ADDGA1021+006009059GF102991021051008001001001MA1999999077841MD1999999+0131REMSYN076AAXX  19031 63330 43580 21202 10122 20103 37784 40204 82500 333 58013 82620;
0230633300999992000031906004+13500+039480FM-12+2212HAMK V0201501N004012200019N0300001N1+01701+01221102181ADDAA199000091GA1031+000159019GF103991031011004501001001KA1120N+01201MA1999999077951MD1999999+0141REMSYN104AAXX  19061 63330 32480 31504 10170 20122 37795 40218 83100 333 20120 58014 83818 555 22105 32086 10262;EQDQ01  00002PRCP99
0176633300999992000031909004+13500+039480FM-12+2212HAMK V0201001N010012200019N0300001N1+02281+00811102141ADDGA1011+006009029GF101991011011008001001001MA1999999077921MD1999999+0101OA150301001REMSYN082AAXX  19091 63330 42580 11010 10228 20081 37792 40214 81100 333 55100 58010 81820;
0174633300999992000032015004+13500+039480FM-12+2212HAMK V0201201N008012200019N0300001N1+02241+00811102121ADDGA1001+999999999GF100991001001999999001001MA1999999077901MD1999999+0101OA150300801REMSYN080AAXX  20151 63330 42980 01208 10224 20081 37790 40212 333 55080 58010 555 10256;
0147633300999992000032103004+13500+039480FM-12+2212HAMK V0201301N004012200019N0300001N1+01421+00581102141ADDGA1001+999999999GF100991001001999999001001MA1999999077921MD1999999+0061REMSYN064AAXX  21031 63330 43980 01304 10142 20058 37792 40214 333 58006;
0213633300999992000032106004+13500+039480FM-12+2212HAMK V0201601N012012200019N0300001N1+02001-00341102281ADDAA199000091GA1001+999999999GF100991001001999999001001KA1120N+01421MA1999999078031MD1999999+0031OA150601201REMSYN076AAXX  21061 63330 32980 01612 10200 21034 37803 40228 333 20142 55120 58003;EQDQ01  00002PRCP99
0235633300999992000032206004+13500+039480FM-12+2212HAMK V0201401N010012200019N0300001N1+01971+00561102231ADDAA199000091GA1001+999999999GF100991001001999999001001KA1120N+01301MA1999999077991MD1999999-0041OA150601001REMSYN098AAXX  22061 63330 32980 01410 10197 20056 37799 40223 333 20130 55100 59004 555 22105 32147 10250;EQDQ01  00002PRCP99
0164633300999992000032212004+13500+039480FM-12+2212HAMK V0201201N010012200019N0300001N1+02501-00311102011ADDGA1001+999999999GF100991001001999999001001MA1999999077811MD1999999-0101OA150601001REMSYN070AAXX  22121 63330 42980 01210 10250 21031 37781 40201 333 55100 59010;
0157633300999992000032215004+13500+039480FM-12+2212HAMK V0201201N006012200019N0300001N1+02261+00761101981ADDGA1001+999999999GF100991001001999999001001MA1999999077791MD1999999-0041REMSYN074AAXX  22151 63330 42980 01206 10226 20076 37779 40198 333 59004 555 10260;
0147633300999992000032303004+13500+039480FM-12+2212HAMK V0209999C000012200019N0300001N1+01261+00121101811ADDGA1001+999999999GF100991001001999999001001MA1999999077651MD1999999-0261REMSYN064AAXX  23031 63330 43980 00000 10126 20012 37765 40181 333 59026;
0157633300999992000032315004+13500+039480FM-12+2212HAMK V0201201N004012200019N0300001N1+02441-00311101721ADDGA1001+999999999GF100991001001999999001001MA1999999077581MD1999999-0211REMSYN074AAXX  23151 63330 42980 01204 10244 21031 37758 40172 333 59021 555 10285;
0147633300999992000032403004+13500+039480FM-12+2212HAMK V0201101N003012200019N0300001N1+01381+00201101681ADDGA1001+999999999GF100991001001999999001001MA1999999077511MD1999999-0101REMSYN064AAXX  24031 63330 43980 01103 10138 20020 37751 40168 333 59010;
0218633300999992000032406004+13500+039480FM-12+2212HAMK V0209999C000012200019N0300001N1+02161+00121101911ADDAA199000091GA1001+999999999GF100991001001999999001001KA1120N+01281MA1999999077731MD1999999+0031REMSYN092AAXX  24061 63330 32980 00000 10216 20012 37773 40191 333 20128 58003 555 22107 32126 10285;EQDQ01  00002PRCP99
0171633300999992000032503004+13500+039480FM-12+2212HAMK V0201301N003012200019N0150001N1+01381+00931102021ADDGA1021+006009059GF102991021061008001001001MA1999999077821MD1999999+0271MW1051REMSYN082AAXX  25031 63330 41565 21303 10138 20093 37782 40202 705// 82600 333 58027 82620;
0149633300999992000032506004+13500+039480FM-12+2212HAMK V0201201N004012200019N0250001N1+99999+99999102181ADDAA199000091GF102991021011999999001001MA1999999077951REMSYN066AAXX  25061 63330 3//75 21204 19188 20091 37795 40218 7051/ 82100;EQDQ01  00002PRCP99
0182633300999992000032512004+13500+039480FM-12+2212HAMK V0200901N008012200019N0300001N1+02501+01041101981ADDGA1021+009009029GF103991021021008001031001MA1999999077791MD1999999+0231OA150600801REMSYN088AAXX  25121 63330 42580 30908 10250 20104 37779 40198 82230 333 55080 58023 82827 81358;
0220633300999992000032515004+13500+039480FM-12+2212HAMK V0201301N01001045001CN0250001N1+02001+01231102011ADDAY121031AY221031GA1011+009009019GF106991011011008001031001MA1999999077811MD1999999+0121MW1051OA150301001REMSYN104AAXX  25151 63330 41575 61310 10200 20123 37781 40201 70522 81130 333 55100 58012 81823 85358 555 10255;
0183633300999992000032603004+13500+039480FM-12+2212HAMK V0201201N003012200019N0100001N1+01161+00891102011ADDGA1021+009009069GF104991021061001501031001MA1999999077811MD1999999-0011MW1101REMSYN094AAXX  26031 63330 41260 41203 10116 20089 37781 40201 710// 82630 333 59001 81704 81620 82357;
0236633300999992000032606004+13500+039480FM-12+2212HAMK V0201301N006012200019N0300001N1+01661+01061102211ADDAA199000091GA1021+009009059GF103991021051008001031001KA1120N+01121MA1999999077971MD1999999+0021REMSYN110AAXX  26061 63330 32580 31306 10166 20106 37797 40221 82530 333 20112 58002 82622 81358 555 22094 32046 10255;EQDQ01  00002PRCP99
0159633300999992000032609004+13500+039480FM-12+2212HAMK V0201401N006012200019N0300001N1+02201+00851102221ADDGA1021+007209029GF102991021011008001001001MA1999999077981MD1999999+0011REMSYN076AAXX  26091 63330 42580 21406 10220 20085 37798 40222 82100 333 58001 82824;
0159633300999992000032612004+13500+039480FM-12+2212HAMK V0201501N006012200019N0300001N1+02281+01021101941ADDGA1021+006609029GF102991021011008001001001MA1999999077761MD1999999-0031REMSYN076AAXX  26121 63330 42580 21506 10228 20102 37776 40194 82100 333 59003 82822;
0175633300999992000032615004+13500+039480FM-12+2212HAMK V0201301N006012200019N0300001N1+01941+01231101981ADDGA1011+009009019GF102991011011008001031001MA1999999077791MD1999999-0021REMSYN092AAXX  26151 63330 42580 21306 10194 20123 37779 40198 81130 333 59002 81820 81357 555 10242;
0236633300999992000032706004+13500+039480FM-12+2212HAMK V0201601N003012200019N0300001N1+01821+00751102161ADDAA199000091GA1011+000309019GF104991011011008001001011KA1120N+01121MA1999999077931MD1999999-0041REMSYN110AAXX  27061 63330 32580 41603 10182 20075 37793 40216 81101 333 20112 59004 81820 84070 555 22098 32045 10242;EQDQ01  00002PRCP99
0175633300999992000032715004+13500+039480FM-12+2212HAMK V0201301N006012200019N0300001N1+02061+01121101981ADDGA1021+000309019GF104991021011008001001011MA1999999077791MD1999999+0001REMSYN092AAXX  27151 63330 42580 41306 10206 20112 37779 40198 82101 333 58000 82822 83070 555 10244;
0165633300999992000032803004+13500+039480FM-12+2212HAMK V0201201N005012200019N0300001N1+01421+00831102031ADDGA1021+009009059GF103991021051008001031001MA1999999077831MD1999999+0011REMSYN082AAXX  28031 63330 43580 31205 10142 20083 37783 40203 82530 333 58001 82620 81357;
0192633300999992000032815004+13500+039480FM-12+2212HAMK V0201201N008012200019N0300001N1+02121+00661102011ADDGA1021+000309019GF102991021011008001001011MA1999999077811MD1999999+0021OA150300801REMSYN098AAXX  28151 63330 42580 21208 10212 20066 37781 40201 82101 333 55080 58002 82825 81070 555 10246;
0159633300999992000032903004+13500+039480FM-12+2212HAMK V0201101N004012200019N0300001N1+01361+00501102011ADDGA1011+006009059GF101991011051008001001001MA1999999077811MD1999999-0021REMSYN076AAXX  29031 63330 43580 11104 10136 20050 37781 40201 81500 333 59002 81620;
0235633300999992000032906004+13500+039480FM-12+2212HAMK V0201401N008012200019N0300001N1+01941+00561102131ADDAA199000091GA1001+999999999GF100991001001999999001001KA1120N+01321MA1999999077911MD1999999-0021OA150600801REMSYN098AAXX  29061 63330 32980 01408 10194 20056 37791 40213 333 20132 55081 59002 555 22099 32082 10246;EQDQ01  00002PRCP99
0176633300999992000032909004+13500+039480FM-12+2212HAMK V0201401N010012200019N0300001N1+02281+00571102121ADDGA1011+007209029GF101991011011008001001001MA1999999077901MD1999999-0011OA150301001REMSYN082AAXX  29091 63330 42580 11410 10228 20057 37790 40212 81100 333 55101 59001 81824;
0176633300999992000032912004+13500+039480FM-12+2212HAMK V0201301N010012200019N0300001N1+02321+00951101981ADDGA1031+007809029GF103991031021008001001001MA1999999077791MD1999999+0011OA150601001REMSYN082AAXX  29121 63330 42580 31310 10232 20095 37779 40198 83200 333 55101 58001 83826;
0176633300999992000032915004+13500+039480FM-12+2212HAMK V0200901N010012200019N0300001N1+02021+00971102011ADDGA1021+006909059GF102991021051008001001001MA1999999077811MD1999999+0001OA150301001REMSYN082AAXX  29151 63330 42580 20910 10202 20097 37781 40201 82500 333 55100 58000 82623;
0165633300999992000033003004+13500+039480FM-12+2212HAMK V0201301N00401045001CN0300001N1+01381+00671102081ADDGA1021+009009059GF105991021051008001031001MA1999999077871MD1999999+0061REMSYN082AAXX  30031 63330 43580 51304 10138 20067 37787 40208 82530 333 58006 82620 83357;
0182633300999992000033012004+13500+039480FM-12+2212HAMK V0201001N008012200019N0300001N1+02361+00681101891ADDGA1031+009009039GF103991031031008001031001MA1999999077721MD1999999-0071OA150600801REMSYN088AAXX  30121 63330 42580 31008 10236 20068 37772 40189 83330 333 55083 59007 81922 82824;
0181633300999992000033015004+13500+039480FM-12+2212HAMK V0201201N00601045001CN0300001N1+02061+00561101861ADDGA1031+009009099GF105991031091008001031001MA1999999077691MD1999999-0121REMSYN098AAXX  30151 63330 42580 51206 10206 20056 37769 40186 83930 333 59012 81920 82822 83357 555 10245;
0165633300999992000033103004+13500+039480FM-12+2212HAMK V0201201N002012200019N0300001N1+01261+00851101891ADDGA1011+000309059GF102991011051008001001011MA1999999077721MD1999999-0151REMSYN082AAXX  31031 63330 43580 21202 10126 20085 37772 40189 81501 333 59015 81620 81070;
