0130644050999992000031718004-03680+013350FM-12+0531FCBS V0202001N001512200019N0100001N1+01721+99999999999ADDAA199000091GF102991021001999999051001MD1210111+9999REMSYN048AAXX  17184 64405 32960 22003 10172 52011 82050;EQDQ01  00002PRCP99
0195644050999992000113000004-03680+013350FM-12+0531FCBS V0209999C000010450019N0100001N1+02251+01971101001ADDAA199000091GA1071+045009079GF107991071001999999071999MA1999999093751MD1999999+0041REMSYN082AAXX  30004 64405 33960 70000 10225 20197 39375 40100 8707/ 333 0//00 58004 87365;EQDQ01  00002PRCP99
