0194644590999992000010112004+01620+018070FM-12+0326FCOI V0209999C000010900019N0150001N1+02821+02301999999ADDAA106000091GA1031+006009089GA2071+090009009GF107991031021008001001021REMSYN094AAXX  01124 64459 32565 70000 10282 20230 39/// 40/// 83202 333 0//00 83820 87080 94919 95839;EQDQ01  00002PRCP06
0235644590999992000010218004+01620+018070FM-12+0326FCOI V0209999C000012200019N0100001N1+02581+02341999999ADDAA106000091AY111061AY211061GA1031+004809069GA2011+009009099GF103991031091004501001001KA1120M+03201MW1131REMSYN100AAXX  02184 64459 31460 30000 10258 20234 39/// 40/// 71311 83900 333 10320 83616 81930 94942 95832;EQDQ01  00002PRCP06
0231644590999992000010306004+01620+018070FM-12+0326FCOI V0209999C000010900019N0009001N1+02201+02201999999ADDAA106000091AY141061AY211061GA1051+090009019GF105991001001999999001021IA2240+01809KA1120N+01841MW1421REMSYN100AAXX  03064 64459 31909 50000 10220 20220 39/// 40/// 74241 80002 333 01800 20184 50184 55/// 85080;EQDQ01  00002PRCP06
0200644590999992000010312004+01620+018070FM-12+0326FCOI V0201001N001012200019N0150001N1+03041+02411999999ADDAA106000091AY141061AY241061GA1041+006909089GF104991041021008001001001MW1011REMSYN094AAXX  03124 64459 31565 41002 10304 20241 39/// 40/// 70144 84200 333 0//00 84823 94919 95839;EQDQ01  00002PRCP06
0173644590999992000010318004+01620+018070FM-12+0326FCOI V0209999C000019999999N0100001N1+02721+02471999999ADDAA106000091GA1041+090009019GF105991001001999999001021KA1120M+03611REMSYN076AAXX  03184 64459 32960 50000 10272 20247 39/// 40/// 80002 333 10361 84080;EQDQ01  00002PRCP06
0172644590999992000010412004+01620+018070FM-12+0326FCOI V0202801N002110060019N0100001N1+03101+02331999999ADDAA106000091GA1061+006009089GF106991061021008001001001REMSYN088AAXX  04124 64459 32560 62804 10310 20233 39/// 40/// 86200 333 0//00 86820 94918 95838;EQDQ01  00002PRCP06
0229644590999992000010418004+01620+018070FM-12+0326FCOI V0209999C000010390019N0100001N1+02701+02451999999ADDAA106000091GA1011+006009089GA2011+009009099GA3051+039009039GF105991021091008001031001KA1120M+03261REMSYN100AAXX  04184 64459 32560 50000 10270 20245 39/// 40/// 82930 333 10326 81820 81930 85363 94964 95834;EQDQ01  00002PRCP06
0209644590999992000010506004+01620+018070FM-12+0326FCOI V0209999C000010042019N0080001N1+02301+02271999999ADDAA106000091GA1041+999999079GF107991071051004501001001IA2240+02009KA1120N+00251REMSYN100AAXX  05064 64459 32458 70000 10230 20227 39/// 40/// 87500 333 02000 20025 50174 55/// 8470/ 87620;EQDQ01  00002PRCP06
0194644590999992000010512004+01620+018070FM-12+0326FCOI V0209999C000010069019N0150001N1+02881+02431999999ADDAA106000091GA1041+006009089GA2071+006909069GF107991071081008001001001REMSYN094AAXX  05124 64459 32565 70000 10288 20243 39/// 40/// 87800 333 0//00 84820 87623 94919 95839;EQDQ01  00002PRCP06
0222644590999992000010612004+01620+018070FM-12+0326FCOI V0202801N001010900019N0150001N1+03001+02441999999ADDAA106000091AY141061AY241061GA1041+006009089GA2061+090009009GF106991041021008001001021MW1031REMSYN100AAXX  06124 64459 31565 62802 10300 20244 39/// 40/// 70344 84202 333 0//00 84820 86080 94916 95836;EQDQ01  00002PRCP06
0231644590999992000010706004+01620+018070FM-12+0326FCOI V0209999C000010450019N0003001N1+02271+02241999999ADDAA106000091AY141061AY241061GA1051+045009079GF105991051001999999031001IA2240+01909KA1120N+02011MW1461REMSYN100AAXX  07064 64459 31903 50000 10227 20224 39/// 40/// 74644 85030 333 01900 20201 50114 55/// 85365;EQDQ01  00002PRCP06
0222644590999992000010712004+01620+018070FM-12+0326FCOI V0203201N00211105001CN0100001N1+03101+02241999999ADDAA106000091AY141061AY241061GA1011+004509089GA2031+090009009GF106991011011004501001021MW1031REMSYN100AAXX  07124 64459 31460 63204 10310 20224 39/// 40/// 70344 81102 333 0//00 81815 83080 94908 95838;EQDQ01  00002PRCP06
0208644590999992000010715004+01620+018070FM-12+0326FCOI V0202801N001010900019N0020001N1+03021+02181999999ADDAY111031AY211031GA1011+006009089GA2031+039009039GA3081+090009029GF108991011011008001031071MW1051REMSYN100AAXX  07154 64459 41520 82802 10302 20218 39/// 40/// 70511 81137 333 81820 83363 88280 94906 95836;
0173644590999992000010718004+01620+018070FM-12+0326FCOI V0209999C000010078019N0080001N1+02641+02321999999ADDAA106000091GA1051+007809059GF105991051051008001001001KA1120M+03171REMSYN076AAXX  07184 64459 32558 50000 10264 20232 39/// 40/// 85500 333 10317 85626;EQDQ01  00002PRCP06
0237644590999992000010806004+01620+018070FM-12+0326FCOI V0209999C00001105001CN0020001N1+02301+02181999999ADDAA106000091AY111061AY211061GA1041+006009069GF107991041051008001001021IA2240+01909KA1120N+02041MW1101REMSYN106AAXX  08064 64459 31520 70000 10230 20218 39/// 40/// 71011 84502 333 01900 20204 50194 55/// 84620 87080;EQDQ01  00002PRCP06
0161644590999992000010818004+01620+018070FM-12+0326FCOI V0209999C000012200019N0080001N1+02621+02451999999ADDAA106000091GA1001+999999999GF100991001001999999001001KA1999M+03071REMSYN064AAXX  08184 64459 32958 00000 10262 20245 39/// 40/// 333 10307;EQDQ01  00002PRCP06
0160644590999992000010912004+01620+018070FM-12+0326FCOI V0202801N002110069019N0100001N1+02901+02261999999ADDAA106000091GA1061+006909059GF106991061021008001001001REMSYN076AAXX  09124 64459 32560 62804 10290 20226 39/// 40/// 86200 333 0//00 86623;EQDQ01  00002PRCP06
0148644590999992000011000004+01620+018070FM-12+0326FCOI V0209999C000012200019N0080001N1+02261+02171999999ADDAA106000091GA1001+999999999GF100991001001999999001001REMSYN064AAXX  10004 64459 32958 00000 10226 20217 39/// 40/// 333 0//00;EQDQ01  00002PRCP06
0231644590999992000011006004+01620+018070FM-12+0326FCOI V0209999C000010390019N0008001N1+02101+02071999999ADDAA106000091AY141061AY241061GA1061+039009079GF106991061001999999031001IA2240+01709KA1120N+01891MW1461REMSYN100AAXX  10064 64459 31908 60000 10210 20207 39/// 40/// 74644 86030 333 01700 20189 50144 55/// 86363;EQDQ01  00002PRCP06
0186644590999992000011009004+01620+018070FM-12+0326FCOI V0202801N001010390019N0100001N1+02761+02171999999ADDAY141031AY241031GA1031+004809089GA2061+039009039GF106991031011004501031001MW1031REMSYN094AAXX  10094 64459 41460 62802 10276 20217 39/// 40/// 70344 83130 333 83816 86363 94906 95836;
0216644590999992000011012004+01620+018070FM-12+0326FCOI V0209999C000012200019N0100001N1+03001+02061999999ADDAA106000091GA1031+006909089GA2031+006909089GA3031+045009039GF104991031021008001031001REMSYN100AAXX  10124 64459 32560 40000 10300 20206 39/// 40/// 83230 333 0//00 83823 83823 83365 94919 95839;EQDQ01  00002PRCP06
0112644590999992000011103004+01620+018070FM-12+0326FCOI V0209999C000012200019N0080001N1+02101+02021999999ADDGA1001+999999999GF100991001001999999001001REMSYN058AAXX  11034 64459 42958 00000 10210 20202 39/// 40/// 333;
0142644590999992000011109004+01620+018070FM-12+0326FCOI V0209999C000012200019N0100001N1+02841+02301999999ADDAY141031AY241031GF101991011011004501001001MW1031REMSYN082AAXX  11094 64459 41460 10000 10284 20230 39/// 40/// 70344 81100 333 94905 95835;
0172644590999992000011112004+01620+018070FM-12+0326FCOI V0201401N001010069019N0100001N1+03141+02291999999ADDAA106000091GA1061+006909089GF106991061021008001001001REMSYN088AAXX  11124 64459 32560 61402 10314 20229 39/// 40/// 86200 333 0//00 86823 94918 95838;EQDQ01  00002PRCP06
0120644590999992000011115004+01620+018070FM-12+0326FCOI V0202801N001010075019N0100001N1+03791+02231999999ADDGF105991051021008001001001REMSYN082AAXX  11154 64459 42560 52802 10379 20223 39/// 40/// 85200 333 85//6 9//14 958-4;
0161644590999992000011118004+01620+018070FM-12+0326FCOI V0209999C000012200019N0100001N1+02781+02441999999ADDAA106000091GA1001+999999999GF100991001001999999001001KA1999M+03261REMSYN064AAXX  11184 64459 32960 00000 10278 20244 39/// 40/// 333 10326;EQDQ01  00002PRCP06
0219644590999992000011206004+01620+018070FM-12+0326FCOI V0209999C000012200019N0008001N1+02221+02191999999ADDAA106000091AY141061AY241061GA1001+999999999GF100991001001999999001001IA2240+01809KA1120N+01931MW1461REMSYN088AAXX  12064 64459 31908 00000 10222 20219 39/// 40/// 74644 333 01800 20193 50224 55///;EQDQ01  00002PRCP06
0140644590999992000011209004+01620+018070FM-12+0326FCOI V0209999C000012200019N0100001N1+02931+02391999999ADDAY141031AY241031GA1001+999999999GF100991001001999999001001MW1021REMSYN064AAXX  12094 64459 41960 00000 10293 20239 39/// 40/// 70244 333;
0200644590999992000011212004+01620+018070FM-12+0326FCOI V0202801N001010078019N0100001N1+03201+02221999999ADDAA106000091AY141061AY241061GA1061+007809089GF106991061021008001001001MW1011REMSYN094AAXX  12124 64459 31560 62802 10320 20222 39/// 40/// 70144 86200 333 0//00 86826 94914 95834;EQDQ01  00002PRCP06
0136644590999992000011215004+01620+018070FM-12+0326FCOI V0201801N001012200019N0100001N1+03241+02331999999ADDGA1041+007809089GF104991041021008001001001REMSYN082AAXX  12154 64459 42560 41802 10324 20233 39/// 40/// 84200 333 84826 94916 95836;
0161644590999992000011218004+01620+018070FM-12+0326FCOI V0209999C000012200019N0100001N1+02801+02491999999ADDAA106000091GA1001+999999999GF100991001001999999001001KA1999M+03311REMSYN064AAXX  12184 64459 32960 00000 10280 20249 39/// 40/// 333 10331;EQDQ01  00002PRCP06
0112644590999992000011221004+01620+018070FM-12+0326FCOI V0209999C000012200019N0100001N1+02541+02401999999ADDGA1001+999999999GF100991001001999999001001REMSYN058AAXX  12214 64459 42960 00000 10254 20240 39/// 40/// 333;
0124644590999992000011303004+01620+018070FM-12+0326FCOI V0209999C000010900019N0100001N1+02351+02251999999ADDGA1061+090009019GF106991001001999999001021REMSYN070AAXX  13034 64459 42960 60000 10235 20225 39/// 40/// 80002 333 86080;
0231644590999992000011306004+01620+018070FM-12+0326FCOI V0202201N002110078019N0030001N1+02451+02351999999ADDAA106000091AY111061AY211061GA1061+007809089GF106991061051008001001001IA2240+02109KA1120N+02111MW1101REMSYN100AAXX  13064 64459 31530 62204 10245 20235 39/// 40/// 71011 86500 333 02100 20211 50204 55/// 86226;EQDQ01  00002PRCP06
0130644590999992000011309004+01620+018070FM-12+0326FCOI V0209999C00001105001CN0080001N1+02761+02361999999ADDGA1031+005409069GF106991031021004501001021REMSYN076AAXX  13094 64459 42458 60000 10276 20236 39/// 40/// 83202 333 83618 86080;
0160644590999992000011312004+01620+018070FM-12+0326FCOI V0202801N002110060019N0100001N1+02861+02411999999ADDAA106000091GA1061+006009059GF106991061021008001001001REMSYN076AAXX  13124 64459 32560 62804 10286 20241 39/// 40/// 86200 333 0//00 86620;EQDQ01  00002PRCP06
0173644590999992000011318004+01620+018070FM-12+0326FCOI V0209999C000010900019N0100001N1+02501+02361999999ADDAA106000091GA1051+090009019GF105991001001999999001021KA1120M+02951REMSYN076AAXX  13184 64459 32960 50000 10250 20236 39/// 40/// 80002 333 10295 85080;EQDQ01  00002PRCP06
0235644590999992000011406004+01620+018070FM-12+032699999V0209999C000010039019N0003001N1+02201+02201999999ADDAA199000091AY141061AY241061GA1071+003909059GF107991071051004501999999IA2240+01809KA1120N+01991MW1461REMSYN104    AAXX  14064 64459 31403 70000 10220 20220 39/// 40/// 74644 875// 333 01800 20199 50144 55/// 87613;EQDQ01  00002PRCP99
0162644590999992000011409004+01620+018070FM-12+032699999V0202801N002112200019N0100001N1+02721+02211999999ADDAY141031AY241031GA1021+003909089GF104991021011004501031001MW1021REMSYN086    AAXX  14094 64459 41460 42804 10272 20221 39/// 40/// 70244 82130 333 82813 84363;
0175644590999992000011415004+01620+018070FM-12+032699999V0209999999999090001CN9999999N1+99999+99999999999ADDGA1061+090009009GA2081+999999029GF199999041021008001001021REMSYN086    AAXX  14154 64459 4256/ 602// 1300/ 20233 39/// 40/// 84202 333 8823/ 86080 95834;EQDQ01+000062SCOTCV
0177644590999992000011418004+01620+018070FM-12+032699999V0209999C000010900019N0100001N1+02591+02411999999ADDAA199000091GA1051+090009019GF105991001001999999001021KA1120M+03131REMSYN080    AAXX  14184 64459 32960 50000 10259 20241 39/// 40/// 80002 333 10313 85080;EQDQ01  00002PRCP99
0235644590999992000011506004+01620+018070FM-12+032699999V0209999C000010900019N0025001N1+02301+02241999999ADDAA199000091AY121061AY221061GA1051+090009019GF105991001001999999001021IA2240+02009KA1120N+01981MW1101REMSYN104    AAXX  15064 64459 31925 50000 10230 20224 39/// 40/// 71022 80002 333 02000 20198 50204 55/// 85080;EQDQ01  00002PRCP99
0152644590999992000011509004+01620+018070FM-12+032699999V0209999C000012200019N0100001N1+02901+02331999999ADDAY141031AY241031GF102991021011008001001001MW1031REMSYN092    AAXX  15094 64459 41560 20000 10290 20233 39/// 40/// 70344 82100 444 59019 85816 94919;
0177644590999992000011518004+01620+018070FM-12+032699999V0209999C000012200019N0100001N1+02941+02531999999ADDAA199000091GA1031+090009019GF103991001001999999001011KA1120M+03321REMSYN080    AAXX  15184 64459 32960 30000 10294 20253 39/// 40/// 80001 333 10332 83080;EQDQ01  00002PRCP99
0263644590999992000011706004+01620+018070FM-12+032699999V0209999C000010390019N0080001N1+02401+02321999999ADDAA199000091GA1031+005409069GA2011+009009099GA3071+039009049GF107991041091004501071001IA2240+02109KA1120N+02151REMSYN122    AAXX  17064 64459 32458 70000 10240 20232 39/// 40/// 84970 333 02100 20215 50254 55/// 83618 81930 87463 94947 95837;EQDQ01  00002PRCP99
0206644590999992000011709004+01620+018070FM-12+032699999V0202201N001010390019N0080001N1+02741+02521999999ADDAY191031AY261031GA1021+003009069GA2011+009009099GA3071+039009049GF107991999999004501999999MW1951REMSYN098    AAXX  17094 64459 41458 72202 10274 20252 39/// 40/// 79596 333 82610 81930 87463 94945 95835;
0241644590999992000011712004+01620+018070FM-12+032699999V0202201N002110900019N0100001N1+02781+02291999999ADDAA106000791AC13C9AY191061AY261061GA1021+005409089GA2011+009009099GA3071+090009009GF107991031091004501001021MW1171REMSYN116    AAXX  17124 64459 11460 72204 10278 20229 39/// 40/// 69901 71796 83902 333 0//53 82818 81930 87080 94948 95838;
0190644590999992000011715004+01620+018070FM-12+032699999V0202801N003110060019N0100001N1+02701+02211999999ADDAY191031AY291031GA1051+006009069GA2011+009009099GF106991061091008001001001MW1011REMSYN098    AAXX  17154 64459 41560 62806 10270 20221 39/// 40/// 70199 86900 333 85620 81930 94935 95835;
0226644590999992000011718004+01620+018070FM-12+032699999V0209999C000010069019N0100001N1+02401+02181999999ADDAA112000791AY191061AY291061GA1061+006909069GA2011+009009099GF107991071091008001001001KA1120M+02861MW1131REMSYN110    AAXX  17184 64459 11560 70000 10240 20218 39/// 40/// 69902 71399 87900 333 10286 86623 81930 94941 95811;
0218644590999992000011721004+01620+018070FM-12+032699999V0203201N002110360019N0070001N1+99999+99999999999ADDAY191031AY261031GA1031+003009069GA2011+009009099GA3081+036009049GF108991041091004501021999MW1951REMSYN110    AAXX  17214 64459 41457 83204 102/0 20213 39/// 79596 8492/ 333 83610 81930 88462 9941/ 94945 95831 95835;
0134644590999992000011804004+01620+018070FM-12+032699999V0209999C00001045001CN0080001N1+02141+02081999999ADDGA1041+003909069GF108991041051004501071999REMSYN080    AAXX  18044 64459 42458 80000 10214 20208 39/// 40/// 8457/ 333 84613 88463;
0228644590999992000011806004+01620+018070FM-12+032699999V0202801N001010015019N0002001N1+02081+02051999999ADDAA124014091AC13I9AY141061AY241061GA1081+001509069GF108991081061001501999999IA2240+01709KA1120N+01981MW1461REMSYN110    AAXX  18064 64459 11202 82802 10208 20205 39/// 40/// 60144 74644 886// 333 01768 20198 50164 55/// 88705;
0156644590999992000011809004+01620+018070FM-12+032699999V0202801N001010048019N0100001N1+02251+02081999999ADDAY141031AY241031GA1071+004809059GF107991071051004501999999MW1011REMSYN080    AAXX  18094 64459 41460 72802 10225 20208 39/// 40/// 70144 875// 333 87616;
0226644590999992000011812004+01620+018070FM-12+032699999V0202801N002110390019N0100001N1+02661+02221999999ADDAA199000091AY141061AY241061GA1041+006009089GA2061+039009039GF106991041021008001031001MW1011REMSYN104    AAXX  18124 64459 31560 62804 10266 20222 39/// 40/// 70144 84230 333 0//00 84820 86363 94916 95836;EQDQ01  00002PRCP99
0177644590999992000011818004+01620+018070FM-12+032699999V0209999C000012200019N0100001N1+02461+02261999999ADDAA199000091GA1031+004809059GF103991031051004501001001KA1120M+02851REMSYN080    AAXX  18184 64459 32460 30000 10246 20226 39/// 40/// 83500 333 10285 83616;EQDQ01  00002PRCP99
0251644590999992000011906004+01620+018070FM-12+032699999V0209999C000010450019N0040001N1+02121+02091999999ADDAA199000091AY121061AY221061GA1071+045009019GF107991071001999999011999IA2240+01809KA1120N+01851MW1101REMSYN104    AAXX  19064 64459 31940 70000 10212 20209 39/// 40/// 71022 87010 333 01800 20185 50124 55/// 87465;EQDQ01+000002SCOHCGQ02  00002PRCP99
0128644590999992000011909004+01620+018070FM-12+032699999V0209999C000010054019N0100001N1+02561+02361999999ADDGA1071+005409059GF107991071051004501001001REMSYN074    AAXX  19094 64459 42460 70000 10256 20236 39/// 40/// 87500 333 87618;
0124644590999992000012009004+01620+018070FM-12+0326FCOI V0209999C000010900019N0100001N1+02671+02121999999ADDGA1061+090009019GF106991001001999999001021REMSYN070AAXX  20094 64459 42960 60000 10267 20212 39/// 40/// 80002 333 86080;
0194644590999992000012012004+01620+018070FM-12+0326FCOI V0202801N001010900019N0100001N1+02951+02151999999ADDAA199000091GA1011+006009089GA2051+090009009GF105991011011008001001021REMSYN094AAXX  20124 64459 31560 52802 10295 20215 39/// 40/// 81102 333 0//00 81820 85080 94902 95832;EQDQ01  00002PRCP99
0130644590999992000012015004+01620+018070FM-12+0326FCOI V0202801N001012200019N0150001N1+03061+02211999999ADDGA1041+006909089GF104991041021008001001001REMSYN076AAXX  20154 64459 42565 42802 10306 20221 39/// 40/// 84200 333 84823 94918;
0207644590999992000012018004+01620+018070FM-12+0326FCOI V0209999C000010900019N0100001N1+02671+02431999999ADDAA199000091GA1011+004809089GA2051+090009009GF105991011011004501001021KA1120M+03181REMSYN094AAXX  20184 64459 32460 50000 10267 20243 39/// 40/// 81102 333 10318 81816 85080 94902 95832;EQDQ01  00002PRCP99
0191644590999992000012106004+01620+018070FM-12+0326FCOI V0209999C000012200019N0080001N1+02241+02181999999ADDAA199000091GA1001+999999999GF100991001001999999001001IA2240+01909KA1120N+01901REMSYN082AAXX  21064 64459 32958 00000 10224 20218 39/// 40/// 333 01900 20190 50204 55///;EQDQ01  00002PRCP99
0136644590999992000012109004+01620+018070FM-12+0326FCOI V0201801N002112200019N0100001N1+02901+02331999999ADDGA1021+003909089GF102991021011004501001001REMSYN082AAXX  21094 64459 42460 21804 10290 20233 39/// 40/// 82100 333 82813 949/9 95839;
0130644590999992000012115004+01620+018070FM-12+0326FCOI V0209999C000012200019N0150001N1+03301+02311999999ADDGA1031+007809089GF103991031021008001001001REMSYN076AAXX  21154 64459 42565 30000 10330 20231 39/// 83200 333 83826 94919 95839;
0241644590999992000012118004+01620+018070SY-MT+0326FCOI V0209999C000012200019N0080001N1+02861+02501999999ADDAA199000091GA1021+006009999GF102991021041008001001001KA1999M+03361MW1001REMSYN070AAXX  21184 64459 32558 20000 10286 20250 39/// 40/// 82400 333 10336;MET046FCOI 211800Z 00000KT 8000 FEW020 29/25 Q//// ;EQDQ01+000000PRSWM2Q02  00002PRCP99
0231644590999992000012206004+01620+018070FM-12+0326FCOI V0209999C000010450019N0040001N1+02241+02181999999ADDAA199000091AY111061AY211061GA1061+045009079GF106991061001999999031001IA2240+01809KA1120N+01941MW1101REMSYN100AAXX  22064 64459 31940 60000 10224 20218 39/// 40/// 71011 86030 333 01800 20194 50244 55/// 86365;EQDQ01  00002PRCP99
0124644590999992000012209004+01620+018070FM-12+0326FCOI V0209999C000010900019N0100001N1+02971+02451999999ADDGA1051+090009019GF105991001001999999001021REMSYN070AAXX  22094 64459 42960 50000 10297 20245 39/// 40/// 80002 333 85080;
0194644590999992000012212004+01620+018070FM-12+0326FCOI V0209999C000010900019N0150001N1+03301+02231999999ADDAA199000091GA1021+006909089GA2051+090009009GF105991021021008001001021REMSYN094AAXX  22124 64459 32565 50000 10330 20223 39/// 40/// 82202 333 0//00 82823 85080 94904 95834;EQDQ01  00002PRCP99
0142644590999992000012215004+01620+018070FM-12+0326FCOI V0202801N00101105001CN0150001N1+03331+02331999999ADDGA1021+000609029GF105991021021008001001021REMSYN088AAXX  22154 64459 42565 52802 10333 20233 39/// 40/// 82202 333 82823 85080 94906 95836;
0173644590999992000012218004+01620+018070FM-12+0326FCOI V0209999C000012200019N0080001N1+02861+02491999999ADDAA199000091GA1031+090009019GF103991001001999999001021KA1120M+03461REMSYN076AAXX  22184 64459 32958 30000 10286 20249 39/// 40/// 80002 333 10346 83080;EQDQ01  00002PRCP99
0124644590999992000012303004+01620+018070FM-12+0326FCOI V0209999C000010900019N0080001N1+99999+99999999999ADDGA1051+090009019GF105991001001999999001021REMSYN070AAXX  23034 64459 42958 50000 18235 20228 39/// 40/// 80002 333 85080;
0203644590999992000012306004+01620+018070FM-12+0326FCOI V0209999C000010900019N0080001N1+02441+02321999999ADDAA199000091GA1071+090009019GF107991001001999999001021IA2240+01909KA1120N+02091REMSYN094AAXX  23064 64459 32958 70000 10244 20232 39/// 40/// 80002 333 01900 20209 50284 55/// 87080;EQDQ01  00002PRCP99
0143644590999992000012309004+01620+018070FM-12+0326FCOI V0201801N001010900019N9999999N1+02961+02381999999ADDGA1071+090009019GF107991001001999999001021REMSYN070AAXX  23094 64459 2/60/ 71802 10296 20238 39/// 40/// 80002 333 87080;EQDQ01+012502SCOLCB
0172644590999992000012312004+01620+018070FM-12+0326FCOI V0209999C000012200019N0150001N1+03341+02381999999ADDAA199000091GA1031+006009089GF103991031021008001001001REMSYN088AAXX  23124 64459 32565 30000 10334 20238 39/// 40/// 83200 333 0//00 83820 94919 95839;EQDQ01  00002PRCP99
0220644590999992000012315004+01620+018070FM-12+0326FCOI V0202801N003110900019N0100001N1+03151+02561999999ADDAY191031AY291031GA1031+006009069GA2011+009009099GA3061+090009009GF106991041091008001001031MW1171REMSYN112AAXX  23154 64459 41560 62806 10315 20256 39/// 40/// 71799 84903 333 83620 81930 86080 94944 94946 95834 95836;
0108644590999992000012403004+01620+018070FM-12+0326FCOI V0209999C000010042019N0100001N1+02151+02101999999ADDGF107991071061004501999999REMSYN070AAXX  24034 64459 42460 70000 10215 20210 39/// 40/// 876// 333 8/710;
0177644590999992000012406004+01620+018070FM-12+0326FCOI V0209999C000010039019N0100001N1+02141+02081999999ADDAA124014091GA1061+003909059GF106991061051004501001001IA2240+01709REMSYN100AAXX  24064 64459 12460 60000 10214 20208 39/// 40/// 60144 86500 333 01769 2018/ 50214 55/// 86613;
0172644590999992000012412004+01620+018070FM-12+0326FCOI V0201801N001010060019N0100001N1+03001+02401999999ADDAA199000091GA1061+006009089GF106991061021008001001001REMSYN088AAXX  24124 64459 32560 61802 10300 20240 39/// 40/// 86200 333 0//00 86820 94918 95838;EQDQ01  00002PRCP99
0238644590999992000012418004+01620+018070FM-12+0326FCOI V0203601N002110390019N0080001N1+99999+99999999999ADDAA112001091AY191061AY261061GA1031+003909069GA2011+009009099GA3071+039009049GF107991041091004501021999KA1120M+03061MW1171REMSYN106AAXX  24184 64459 11458 73604 20222 39/// 40/// 60012 71796 8492/ 333 10306 83613 81930 87463 94948 95838;
0208644590999992000012421004+01620+018070FM-12+0326FCOI V0203601N001010390019N0080001N1+02411+02251999999ADDAY191031AY291031GA1021+003909069GA2011+009009099GA3081+039009049GF108991031091004501071999MW1131REMSYN100AAXX  24214 64459 41458 83602 10241 20225 39/// 40/// 71399 8397/ 333 82613 81930 88463 94946 95836;
0209644590999992000012506004+01620+018070FM-12+0326FCOI V0209999C000010021019N0008001N1+99999+99999999999ADDAA199000091AY141061AY241061GF108991081041002501999999IA2240+01909KA1120N+02001MW1421REMSYN094AAXX  25064 64459 31308 80000 20222 39/// 40/// 74244 884// 333 01900 20200 5134/ 55/// 8806/;EQDQ01  00002PRCP99
0161644590999992000012518004+01620+018070FM-12+0326FCOI V0209999C000012200019N0150001N1+02651+02321999999ADDAA199000091GA1001+999999999GF100991001001999999001001KA1999M+03041REMSYN064AAXX  25184 64459 32965 00000 10265 20232 39/// 40/// 333 10304;EQDQ01  00002PRCP99
0140644590999992000012603004+01620+018070FM-12+0326FCOI V0209999C000012200019N0020001N1+02141+02081999999ADDAY101031AY201031GA1001+999999999GF100991001001999999001001MW1101REMSYN064AAXX  26034 64459 41920 00000 10214 20208 39/// 40/// 71000 333;
0219644590999992000012606004+01620+018070FM-12+0326FCOI V0209999C000012200019N0020001N1+02231+02181999999ADDAA199000091AY101061AY201061GA1001+999999999GF100991001001999999001001IA2240+01809KA1120N+01911MW1101REMSYN088AAXX  26064 64459 31920 00000 10223 20218 39/// 40/// 71000 333 01800 20191 50184 55///;EQDQ01  00002PRCP99
0136644590999992000012615004+01620+018070FM-12+0326FCOI V0209999C000012200019N0200001N1+03261+02191999999ADDGA1041+007809089GF104991041021008001001001REMSYN082AAXX  26154 64459 42570 40000 10326 20219 39/// 40/// 84200 333 84826 94912 95832;
0173644590999992000012618004+01620+018070FM-12+0326FCOI V0209999C000012200019N0100001N1+02951+02481999999ADDAA199000091GA1021+006009059GF102991021051008001001001KA1120M+03321REMSYN076AAXX  26184 64459 32560 20000 10295 20248 39/// 40/// 82500 333 10332 82620;EQDQ01  00002PRCP99
0191644590999992000012706004+01620+018070FM-12+0326FCOI V0209999C000012200019N0080001N1+02401+02311999999ADDAA199000091GA1001+999999999GF100991001001999999001001IA2240+01909KA1120N+02041REMSYN082AAXX  27064 64459 32958 00000 10240 20231 39/// 40/// 333 01900 20204 50254 55///;EQDQ01  00002PRCP99
0112644590999992000012709004+01620+018070FM-12+0326FCOI V0209999C000012200019N0100001N1+03041+02421999999ADDGA1001+999999999GF100991001001999999001001REMSYN058AAXX  27094 64459 42960 00000 10304 20242 39/// 40/// 333;
0172644590999992000012712004+01620+018070FM-12+0326FCOI V0201801N003112200019N0150001N1+03381+02341999999ADDAA199000091GA1021+006909089GF102991021021008001001001REMSYN088AAXX  27124 64459 32565 21806 10338 20234 39/// 40/// 82200 333 0//00 82823 94909 95839;EQDQ01  00002PRCP99
0161644590999992000012718004+01620+018070FM-12+0326FCOI V0209999C000012200019N0150001N1+02961+02541999999ADDAA199000091GA1001+999999999GF100991001001999999001001KA1999M+03461REMSYN064AAXX  27184 64459 32965 00000 10296 20254 39/// 40/// 333 10346;EQDQ01  00002PRCP99
0112644590999992000012721004+01620+018070FM-12+0326FCOI V02099999999992200019N0100001N1+02681+02151999999ADDGA1001+999999999GF100991001001999999001001REMSYN058AAXX  27214 64459 42960 00/00 10268 20215 39/// 40/// 333;
0098644590999992000012809004+01620+018070FM-12+0326FCOI V0202801N001019999999N0100001N1+03091+02401999999ADDGF105991001001999999001021REMSYN060AAXX  28094 64459 42960 52802 10309 20240 39/// 40/// 80002;
0222644590999992000012812004+01620+018070FM-12+0326FCOI V0202801N001010069019N0100001N1+03301+02391999999ADDAA199000091AY191061AY291061GA1051+006909089GA2011+009009099GF106991061091008001001001MW1171REMSYN100AAXX  28124 64459 31560 62802 10330 20239 39/// 40/// 71799 86900 333 0//00 85823 81930 94963 95833;EQDQ01  00002PRCP99
0202644590999992000012815004+01620+018070FM-12+0326FCOI V0201801N001010390019N0080001N1+02801+02461999999ADDAY191031AY291031GA1031+004809069GA2011+009009099GA3081+039009049GF108991041091004501021999MW1151REMSYN094AAXX  28154 64459 41458 81802 10280 20246 39/// 40/// 71599 8492/ 333 83616 81930 88463 95836;
0124644590999992000012909004+01620+018070FM-12+0326FCOI V0202801N002110060019N0100001N1+02651+02091999999ADDGA1061+006009029GF106991061051008001001001REMSYN070AAXX  29094 64459 42560 62804 10265 20209 39/// 40/// 86500 333 86820;
0160644590999992000012912004+01620+018070FM-12+0326FCOI V0202801N003110060019N0100001N1+02801+02141999999ADDAA199000091GA1061+006009059GF106991061051008001001001REMSYN076AAXX  29124 64459 32560 62806 10280 20214 39/// 40/// 86500 333 0//00 86620;EQDQ01  00002PRCP99
0158644590999992000012915004+01620+018070FM-12+0326FCOI V0203201N001010900019N0150001N1+03041+02171999999ADDGA1011+006909089GA2051+090009009GF105991011021008001001021REMSYN088AAXX  29154 64459 42565 53202 10304 20217 39/// 40/// 81202 333 81823 85080 94908 95838;
0173644590999992000012918004+01620+018070FM-12+0326FCOI V0209999C000012200019N0100001N1+02621+02301999999ADDAA199000091GA1031+090009019GF103991001001999999001021KA1120M+03081REMSYN076AAXX  29184 64459 32960 30000 10262 20230 39/// 40/// 80002 333 10308 83080;EQDQ01  00002PRCP99
0136644590999992000013009004+01620+018070FM-12+0326FCOI V0202801N001012200019N0100001N1+02811+02211999999ADDGA1021+004809089GF103991031011004501001001REMSYN082AAXX  30094 64459 42460 32802 10281 20221 39/// 40/// 83100 333 82816 94906 95836;
0172644590999992000013012004+01620+018070FM-12+0326FCOI V0202801N002110078019N0150001N1+03121+02061999999ADDAA199000091GA1051+007809089GF105991051021008001001001REMSYN088AAXX  30124 64459 32565 52804 10312 20206 39/// 40/// 85200 333 0//00 85826 94938 95838;EQDQ01  00002PRCP99
0136644590999992000013015004+01620+018070FM-12+0326FCOI V0202801N001010078019N0150001N1+03221+02101999999ADDGA1051+007809089GF105991051021008001001001REMSYN082AAXX  30154 64459 42565 52802 10322 20210 39/// 40/// 85200 333 85826 94936 95836;
0235644590999992000013018004+01620+018070FM-12+0326FCOI V0201801N001010900019N0080001N1+02651+02181999999ADDAA199000091AY121061AY221061GA1011+009009099GA2051+090009009GF105991011091008001001031KA1120M+03311MW1131REMSYN100AAXX  30184 64459 31558 51802 10265 20218 39/// 40/// 71322 81903 333 10331 81930 85080 94946 95836;EQDQ01  00002PRCP99
0124644590999992000013109004+01620+018070FM-12+0326FCOI V0203201N003110450019N9999999N1+02761+01911999999ADDGA1061+045009079GF106991061001999999031001REMSYN070AAXX  31094 64459 4295/ 63206 10276 20191 39/// 40/// 86030 333 86365;
0152644590999992000013115004+01620+018070FM-12+0326FCOI V0202801N002112200019N0030001N1+03041+01781999999ADDAY111031AY211031GA1031+090009019GF103991001001999999001021MW1051REMSYN076AAXX  31154 64459 42930 32804 10304 20178 39/// 40/// 70511 80002 333 83080;
0189644590999992000013118004+01620+018070FM-12+0326FCOI V0209999C000012200019N0050001N1+02501+02001999999ADDAA199000091AY111061AY211061GA1001+999999999GF100991001001999999001001KA1999M+03201MW1051REMSYN070AAXX  31184 64459 31950 00000 10250 20200 39/// 40/// 70511 333 10320;EQDQ01  00002PRCP99
0231644590999992000020106004+01620+018070FM-12+0326FCOI V0209999C000012200019N0010001N1+01921+01791999999ADDAA199000091AY101061AY201061GA1031+045009079GF103991031001999999031001IA2240+01509KA1120N+01651MW1101REMSYN100AAXX  01064 64459 31910 30000 10192 20179 39/// 40/// 71000 83030 333 01500 20165 50374 55/// 83365;EQDQ01  00002PRCP99
0201644590999992000020118004+01620+018070FM-12+0326FCOI V0209999C000010900019N0040001N1+02361+02031999999ADDAA199000091AY121061AY221061GA1051+090009019GF105991001001999999001021KA1120M+03131MW1101REMSYN082AAXX  01184 64459 31940 50000 10236 20203 39/// 40/// 71022 80002 333 10313 85080;EQDQ01  00002PRCP99
0237644590999992000020206004+01620+018070FM-12+0326FCOI V0202801N002110060019N0080001N1+02061+01941999999ADDAA199000091GA1061+006009069GA2011+009009099GF107991061091008001001021IA2240+01509KA1120N+01751REMSYN112AAXX  02064 64459 32558 72804 10206 20194 39/// 40/// 86902 333 01500 20175 50154 55/// 86620 81930 94944 95834;EQDQ01  00002PRCP99
0188644590999992000020212004+01620+018070FM-12+0326FCOI V0200401N003110900019N0030001N1+02951+01181999999ADDAA199000091AY121061AY221061GA1061+090009019GF106991001001999999001021MW1051REMSYN082AAXX  02124 64459 31930 60406 10295 20118 39/// 40/// 70522 80002 333 0//00 86080;EQDQ01  00002PRCP99
0189644590999992000020218004+01620+018070FM-12+0326FCOI V0209999C000012200019N0040001N1+02381+01891999999ADDAA199000091AY141061AY241061GA1001+999999999GF100991001001999999001001KA1999M+03041MW1051REMSYN070AAXX  02184 64459 31940 00000 10238 20189 39/// 40/// 70544 333 10304;EQDQ01  00002PRCP99
0231644590999992000020406004+01620+018070FM-12+0326FCOI V0209999C000010450019N0008001N1+01801+01691999999ADDAA199000091AY141061AY241061GA1061+045009079GF106991061001999999031001IA2240+01309KA1120N+01401MW1461REMSYN100AAXX  04064 64459 31908 60000 10180 20169 39/// 40/// 74644 86030 333 01300 20140 50284 55/// 86365;EQDQ01  00002PRCP99
0176644590999992000020412004+01620+018070FM-12+0326FCOI V0202801N002112200019N0030001N1+03001+01661999999ADDAA199000091AY141061AY241061GA1001+999999999GF100991001001999999001001MW1051REMSYN070AAXX  04124 64459 31930 02804 10300 20166 39/// 40/// 70544 333 0//00;EQDQ01  00002PRCP99
0140644590999992000020415004+01620+018070FM-12+0326FCOI V02099999999992200019N0040001N1+03021+01801999999ADDAY141031AY241031GA1001+999999999GF100991001001999999001001MW1051REMSYN064AAXX  04154 64459 41940 0//// 10302 20180 39/// 40/// 70544 333;
0189644590999992000020418004+01620+018070FM-12+0326FCOI V0209999C000012200019N0040001N1+02401+02021999999ADDAA199000091AY141061AY241061GA1001+999999999GF100991001001999999001001KA1999M+03101MW1051REMSYN070AAXX  04184 64459 31940 00000 10240 20202 39/// 40/// 70544 333 10310;EQDQ01  00002PRCP99
0152644590999992000020515004+01620+018070FM-12+0326FCOI V0202801N002110390019N0008001N1+02961+01901999999ADDAY141031AY241031GA1051+039009079GF105991051001999999031001MW1051REMSYN076AAXX  05154 64459 41908 52804 10296 20190 39/// 40/// 70544 85030 333 85363;
0189644590999992000020518004+01620+018070FM-12+0326FCOI V0209999C000012200019N0030001N1+02501+02131999999ADDAA199000091AY111061AY211061GA1001+999999999GF100991001001999999001001KA1999M+03181MW1101REMSYN070AAXX  05184 64459 31930 00000 10250 20213 39/// 40/// 71011 333 10318;EQDQ01  00002PRCP99
0140644590999992000020609004+01620+018070FM-12+0326FCOI V0202801N002112200019N0030001N1+02701+02151999999ADDAY111031AY211031GA1001+999999999GF100991001001999999001001MW1101REMSYN064AAXX  06094 64459 41930 02804 10270 20215 39/// 40/// 71011 333;
0124644590999992000020703004+01620+018070FM-12+0326FCOI V0201001N001010390019N0080001N1+02281+02221999999ADDGA1061+039009079GF106991061001999999071001REMSYN070AAXX  07034 64459 42958 61002 10228 20222 39/// 40/// 86070 333 86363;
0231644590999992000020706004+01620+018070FM-12+0326FCOI V0209999C000010390019N0040001N1+02341+02251999999ADDAA199000091AY111061AY211061GA1061+039009079GF106991061001999999071001IA2240+01809KA1120N+01971MW1101REMSYN100AAXX  07064 64459 31940 60000 10234 20225 39/// 40/// 71011 86070 333 01800 20197 50154 55/// 86363;EQDQ01  00002PRCP99
0222644590999992000020712004+01620+018070FM-12+0326FCOI V0202801N002110060019N0100001N1+03001+02271999999ADDAA199000091AY191061AY291061GA1061+006009089GA2011+009009099GF107991071091008001001001MW1171REMSYN100AAXX  07124 64459 31560 72804 10300 20227 39/// 40/// 71799 87900 333 0//00 86820 81930 94962 95832;EQDQ01  00002PRCP99
0208644590999992000020715004+01620+018070FM-12+0326FCOI V0202801N002110390019N0080001N1+02261+02131999999ADDAY191031AY261031GA1031+003909069GA2011+009009099GA3081+039009049GF108991041091004501071999MW1171REMSYN100AAXX  07154 64459 41458 82804 10226 20213 39/// 40/// 71796 8497/ 333 83613 81930 88463 94944 95834;
0244644590999992000020718004+01620+018070FM-12+0326FCOI V0209999C000010390019N0080001N1+02101+01961999999ADDAA112023191AY191061AY261061GA1021+003909069GA2011+009009099GA3081+039009049GF108991031091004501071999KA1120M+03081MW1011REMSYN112AAXX  07184 64459 11458 80000 10210 20196 39/// 40/// 60232 70196 8397/ 333 10308 82613 81930 88463 94946 95816;
0224644590999992000020806004+01620+018070FM-12+0326FCOI V0202801N00101045001CN0005001N1+02001+01991999999ADDAA124023191AY141061AY241061GA1041+001509079GF107991041021001501071999IA2240+01609KA1120N+01781MW1421REMSYN112AAXX  08064 64459 11205 72802 10200 20199 39/// 40/// 60234 74244 8427/ 333 01669 20178 50094 55/// 84705 87363;
0186644590999992000020809004+01620+018070FM-12+0326FCOI V0209999C000010900019N0100001N1+02461+02071999999ADDAY141031AY241031GA1021+004809089GA2061+090009009GF106991021011004501001021MW1031REMSYN094AAXX  08094 64459 41460 60000 10246 20207 39/// 40/// 70344 82102 333 82816 86080 94906 95836;
0172644590999992000020912004+01620+018070FM-12+0326FCOI V0209999C000010060019N0100001N1+03041+02141999999ADDAA199000091GA1051+006009089GF105991051021008001001001REMSYN088AAXX  09124 64459 32560 50000 10304 20214 39/// 40/// 85200 333 0//00 85820 94911 95831;EQDQ01  00002PRCP99
0158644590999992000020915004+01620+018070FM-12+0326FCOI V0203601N001010450019N0100001N1+03111+02201999999ADDGA1021+006909089GA2051+045009039GF105991021021008001031001REMSYN088AAXX  09154 64459 42560 53602 10311 20220 39/// 40/// 82230 333 82823 85365 94908 95838;
0124644590999992000021009004+01620+018070FM-12+0326FCOI V0209999C000010900019N0100001N1+02751+02321999999ADDGA1061+090009019GF106991001001999999001021REMSYN070AAXX  10094 64459 42960 60000 10275 20232 39/// 40/// 80002 333 86080;
0172644590999992000021012004+01620+018070FM-12+0326FCOI V0209999C000010060019N0100001N1+02981+02391999999ADDAA199000091GA1051+006009089GF105991051021008001001001REMSYN088AAXX  10124 64459 32560 50000 10298 20239 39/// 40/// 85200 333 0//00 85820 94918 95838;EQDQ01  00002PRCP99
0180644590999992000021015004+01620+018070FM-12+0326FCOI V0202001N001010390019N0100001N1+02961+02271999999ADDGA1021+006009089GA2011+009009099GA3071+039009049GF107991031091008001071999REMSYN094AAXX  10154 64459 42560 72002 10296 20227 39/// 40/// 8397/ 333 82820 81930 87463 94967 95837;
0253644590999992000021106004+01620+018070FM-12+0326FCOI V0201001N001019999999N0030001N1+02161+02071999999ADDAA199000091AY121061AY221061GA1021+003009069GF106991021999004501999999IA2240+01809KA1120N+01911MW1101REMSYN106AAXX  11064 64459 31430 61002 10216 20207 39/// 40/// 71022 820// 333 01800 20191 50204 55/// 82610 86080;EQDQ01+000002SCOLCGQ02  00002PRCP99
0124644590999992000021109004+01620+018070FM-12+0326FCOI V0203601N002110390019N0100001N1+02581+02171999999ADDGA1071+039009079GF107991071001999999071999REMSYN070AAXX  11094 64459 42960 73604 10258 20217 39/// 40/// 8707/ 333 87363;
0222644590999992000021112004+01620+018070FM-12+0326FCOI V0203601N002110390019N0010001N1+02871+01841999999ADDAA199000091AY141061AY241061GA1011+006009089GA2071+039009039GF107991011011008001071999MW1051REMSYN100AAXX  11124 64459 31510 73604 10287 20184 39/// 40/// 70544 8117/ 333 0//00 81820 87363 94906 95836;EQDQ01  00002PRCP99
0173644590999992000021218004+01620+018070FM-12+0326FCOI V0209999C000010900019N0080001N1+02501+02141999999ADDAA199000091GA1071+090009089GF107991001001999999001081KA1120M+03041REMSYN076AAXX  12184 64459 32958 70000 10250 20214 39/// 40/// 80008 333 10304 87280;EQDQ01  00002PRCP99
0152644590999992000021303004+01620+018070FM-12+0326FCOI V0209999C000010390019N0010001N1+02031+02001999999ADDAY111031AY211031GA1061+039009079GF106991061001012501031001MW1101REMSYN076AAXX  13034 64459 41610 60000 10203 20200 39/// 40/// 71011 86030 333 86363;
0210644590999992000021306004+01620+018070FM-12+0326FCOI V0209999C000010390019N0010001N1+02031+99999999999ADDAA199000091AY111061AY211061GA1061+039009079GF106991061001999999031001MW1101REMSYN088AAXX  13064 64459 31910 60000 10203 2000/ 39/// 40/// 71011 86030 333 50184 55/// 86363;EQDQ01+000003ATOD  Q02  00002PRCP99
0222644590999992000021312004+01620+018070FM-12+0326FCOI V0203601N002110900019N0040001N1+03001+01721999999ADDAA199000091AY141061AY241061GA1021+006009089GA2061+090009009GF106991021021008001001021MW1051REMSYN100AAXX  13124 64459 31540 63604 10300 20172 39/// 40/// 70544 82202 333 0//00 82820 86080 94904 95834;EQDQ01  00002PRCP99
0146644590999992000021315004+01620+018070FM-12+0326FCOI V0209999C000010900019N0040001N1+03031+01481999999ADDAY141031AY241031GA1071+090009019GF107991001001999999001021MW1051REMSYN070AAXX  13154 64459 41940 70000 10303 20148 39/// 70544 80002 333 87080;
0173644590999992000021318004+01620+018070FM-12+0326FCOI V0209999C000010900019N0080001N1+02501+01871999999ADDAA199000091GA1071+090009089GF107991001001999999001081KA1120M+03131REMSYN076AAXX  13184 64459 32958 70000 10250 20187 39/// 40/// 80008 333 10313 87280;EQDQ01  00002PRCP99
0222644590999992000021412004+01620+018070FM-12+0326FCOI V0203601N003110900019N0020001N1+03241+01581999999ADDAA199000091AY141061AY241061GA1021+006009089GA2051+090009009GF105991021011008001001021MW1051REMSYN100AAXX  14124 64459 31520 53606 10324 20158 39/// 40/// 70544 82102 333 0//00 82820 85080 94906 95836;EQDQ01  00002PRCP99
0201644590999992000021418004+01620+018070FM-12+0326FCOI V0209999C000010390019N0030001N1+02671+01911999999ADDAA199000091AY141061AY241061GA1051+039009079GF105991051001999999031001KA1120M+03391MW1051REMSYN082AAXX  14184 64459 31930 50000 10267 20191 39/// 40/// 70544 85030 333 10339 85363;EQDQ01  00002PRCP99
0180644590999992000021509004+01620+018070FM-12+0326FCOI V0201801N002110390019N0080001N1+02811+02281999999ADDGA1021+004809069GA2011+009009099GA3071+039009039GF107991031091004501071999REMSYN094AAXX  15094 64459 42458 71804 10281 20228 39/// 40/// 8397/ 333 82616 81930 87363 94944 95834;
0136644590999992000021515004+01620+018070FM-12+0326FCOI V0202801N002110069019N0100001N1+03251+02201999999ADDGA1051+006909089GF105991051021008001001001REMSYN082AAXX  15154 64459 42560 52804 10325 20220 39/// 40/// 85200 333 85823 94916 95836;
0161644590999992000021518004+01620+018070FM-12+0326FCOI V0209999C000012200019N0100001N1+02801+02371999999ADDAA199000091GA1001+999999999GF100991001001999999001001KA1999M+03341REMSYN064AAXX  15184 64459 32960 00000 10280 20237 39/// 40/// 333 10334;EQDQ01  00002PRCP99
0203644590999992000021606004+01620+018070FM-12+0326FCOI V0202801N001012200019N0100001N1+02361+02211999999ADDAA199000091GA1011+090009019GF101991001001999999001011IA2240+02009KA1120N+02141REMSYN094AAXX  16064 64459 32960 12802 10236 20221 39/// 40/// 80001 333 02000 20214 50204 55/// 81080;EQDQ01  00002PRCP99
0158644590999992000021609004+01620+018070FM-12+0326FCOI V0202801N001010390019N0100001N1+02901+02411999999ADDGA1021+006009089GA2051+039009039GF105991021011008001031001REMSYN088AAXX  16094 64459 42560 52802 10290 20241 39/// 40/// 82130 333 82820 85363 94908 95838;
0112644590999992000021615004+01620+018070FM-12+0326FCOI V0202801N001019999999N0100001N1+03201+02191999999ADDGF105991999999008001999999MD1219999+9999REMSYN060AAXX  16154 64459 42560 52802 10320 20219 39/// 4//// 52//0;
0161644590999992000021618004+01620+018070FM-12+0326FCOI V0209999C000012200019N0100001N1+02801+02361999999ADDAA199000091GA1001+999999999GF100991001001999999001001KA1999M+03371REMSYN064AAXX  16184 64459 32960 00000 10280 20236 39/// 40/// 333 10337;EQDQ01  00002PRCP99
0237644590999992000021706004+01620+018070FM-12+0326FCOI V0202801N001010390019N0100001N1+02401+02221999999ADDAA199000091GA1011+009009099GA2081+039009049GF108991011091008001071999IA2240+02009KA1120N+02131REMSYN112AAXX  17064 64459 32560 82802 10240 20222 39/// 40/// 8197/ 333 02000 20213 50294 55/// 81930 88463 94944 95814;EQDQ01  00002PRCP99
0158644590999992000021709004+01620+018070FM-12+0326FCOI V0202801N002110900019N0100001N1+02881+02291999999ADDGA1021+004809089GA2071+090009009GF107991021011004501001021REMSYN088AAXX  17094 64459 42460 72804 10288 20229 39/// 40/// 82102 333 82816 87080 94906 95836;
0172644590999992000021712004+01620+018070FM-12+0326FCOI V0202201N002110060019N0100001N1+03061+02271999999ADDAA199000091GA1071+006009089GF107991071021008001999999REMSYN088AAXX  17124 64459 32560 72204 10306 20227 39/// 40/// 872// 333 0//00 87820 94918 95838;EQDQ01  00002PRCP99
0231644590999992000021806004+01620+018070FM-12+0326FCOI V0209999C000010900019N0020001N1+02101+02011999999ADDAA199000091AY111061AY211061GA1051+090009019GF105991001001999999001021IA2240+01709KA1120N+01841MW1101REMSYN100AAXX  18064 64459 31920 50000 10210 20201 39/// 40/// 71011 80002 333 01700 20184 50204 55/// 85080;EQDQ01  00002PRCP99
0124644590999992000021809004+01620+018070FM-12+0326FCOI V0209999C000010900019N0100001N1+02741+02271999999ADDGA1051+090009019GF105991001001999999001021REMSYN070AAXX  18094 64459 42960 50000 10274 20227 39/// 40/// 80002 333 85080;
0244644590999992000021818004+01620+018070FM-12+0326FCOI V0209999C00001009001CN0080001N1+02371+02231999999ADDAA112022191AY191061AY261061GA1041+003909069GA2011+009009099GA3081+039009049GF108991041091004501071999KA1120M+03281MW1011REMSYN112AAXX  18184 64459 11458 80000 10237 20223 39/// 40/// 60222 70196 8497/ 333 10328 84613 81930 88463 94946 95816;
0218644590999992000021906004+01620+018070FM-12+0326FCOI V0209999C000010390019N0030001N1+02201+02141999999ADDAA124022191AY121061AY221061GA1081+039009019GF108991081001999999071999IA2240+01709KA1120N+01841MW1101REMSYN106AAXX  19064 64459 11930 80000 10220 20214 39/// 40/// 60224 71022 8807/ 333 01769 20184 50174 55/// 88463;
0199644590999992000021909004+01620+018070FM-12+0326FCOI V0209999C000010390019N0030001N1+02201+02141999999ADDAA124022191AY121031AY221031GA1081+039009019GF108991081001999999071999IA2240+01709MW1101REMSYN100AAXX  19094 64459 11930 80000 10220 20214 39/// 60224 71022 8807/ 333 01769 2/184 5174/ 55/// 88463;
0172644590999992000021912004+01620+018070FM-12+0326FCOI V0201801N001010060019N0100001N1+03001+02351999999ADDAA199000091GA1051+006009089GF105991051021008001001001REMSYN088AAXX  19124 64459 32560 51802 10300 20235 39/// 40/// 85200 333 0//00 85820 94918 95838;EQDQ01  00002PRCP99
0201644590999992000021918004+01620+018070FM-12+0326FCOI V0209999C000012200019N0030001N1+02761+02421999999ADDAA199000091AY111061AY211061GA1031+090009019GF103991001001999999001021KA1120M+03151MW1101REMSYN082AAXX  19184 64459 31930 30000 10276 20242 39/// 40/// 71011 80002 333 10315 83080;EQDQ01  00002PRCP99
0229644590999992000022009004+01620+018070FM-12+0326FCOI V0202201N001019999999N0100001N1+02831+02251999999ADDGA1011+003009089GA2011+008109099GA3041+009909069GF106991999999999999001021MD1999999+0131REMSYN094AAXX  20094 64459 42960 62202 10283 20225 39/// 40/// 80002 333 58013 81810 81927 84633 88463;EQDQ01+000002SCOTLCQ02+000002SCOLCG
0194644590999992000022012004+01620+018070FM-12+0326FCOI V0201001N002110390019N0150001N1+03231+02111999999ADDAA199000091GA1021+006909089GA2061+039009039GF106991021021008001031001REMSYN094AAXX  20124 64459 32565 61004 10323 20211 39/// 40/// 82230 333 0//00 82823 86363 94907 95837;EQDQ01  00002PRCP99
0180644590999992000022015004+01620+018070FM-12+0326FCOI V0202201N002111050019N0100001N1+03041+02101999999ADDAY191031AY291031GA1031+006009089GA2011+009009099GF106991031091008001001031MW1171REMSYN088AAXX  20154 64459 41560 62204 10304 20210 39/// 40/// 71799 83903 333 83820 81930 95836;
0235644590999992000022018004+01620+018070FM-12+0326FCOI V0209999C000012200019N0100001N1+02401+02051999999ADDAA199000091AY191061AY291061GA1021+004809069GA2011+009009099GF103991031091004501001001KA1120M+03371MW1131REMSYN100AAXX  20184 64459 31460 30000 10240 20205 39/// 40/// 71399 83900 333 10337 82616 81930 94942 95832;EQDQ01  00002PRCP99
0280644590999992000022106004+01620+018070FM-12+0326FCOI V0201801N00211009001CN0100001N1+02171+02051999999ADDAA124000891AC10I9AY191061AY261061GA1041+003909069GA2011+009009099GA3081+039009049GF108991041091004501071999IA2240+01709KA1120N+01891MW1021REMSYN130AAXX  21064 64459 11460 81804 10217 20205 39/// 40/// 69984 70296 8497/ 333 01764 20189 50314 55/// 84613 81930 88463 94948 95818;
0180644590999992000022109004+01620+018070FM-12+0326FCOI V0201801N002110390019N0100001N1+02491+02101999999ADDGA1031+004809069GA2011+009009099GA3081+039009049GF108991041091004501071999REMSYN094AAXX  21094 64459 42460 81804 10249 20210 39/// 40/// 8497/ 333 83616 81930 88463 94941 95831;
0166644590999992000022112004+01620+018070FM-12+0326FCOI V0202601N00211045001CN0100001N1+02721+02211999999ADDAA199000091GA1041+004809069GF108991041051004501071999REMSYN082AAXX  21124 64459 32460 82604 10272 20221 39/// 40/// 8457/ 333 0//00 84616 88363;EQDQ01  00002PRCP99
0158644590999992000022115004+01620+018070FM-12+0326FCOI V0202801N001010900019N0100001N1+02841+02201999999ADDGA1021+006009089GA2071+090009009GF107991021021008001001021REMSYN088AAXX  21154 64459 42560 72802 10284 20220 39/// 40/// 82202 333 82820 87080 94905 95835;
0179644590999992000022118004+01620+018070FM-12+0326FCOI V0209999C00001105001CN0080001N1+02601+02281999999ADDAA199000091GA1031+004809069GF106991031051004501001021KA1120M+02941REMSYN082AAXX  21184 64459 32458 60000 10260 20228 39/// 40/// 83502 333 10294 83616 86080;EQDQ01  00002PRCP99
0231644590999992000022206004+01620+018070FM-12+0326FCOI V0209999C000010900019N0040001N1+02091+02061999999ADDAA199000091AY121061AY221061GA1061+090009019GF106991001001999999001021IA2240+01709KA1120N+01841MW1101REMSYN100AAXX  22064 64459 31940 60000 10209 20206 39/// 40/// 71022 80002 333 01700 20184 50164 55/// 86080;EQDQ01  00002PRCP99
0158644590999992000022209004+01620+018070FM-12+0326FCOI V0202801N001010900019N0100001N1+02701+02271999999ADDGA1031+004809089GA2061+090009009GF106991031011004501001021REMSYN088AAXX  22094 64459 42460 62802 10270 20227 39/// 40/// 83102 333 83816 86080 94916 95836;
0194644590999992000022212004+01620+018070FM-12+0326FCOI V0201801N001010900019N0100001N1+03021+02351999999ADDAA199000091GA1031+006009089GA2051+090009009GF105991031021008001001021REMSYN094AAXX  22124 64459 32560 51802 10302 20235 39/// 40/// 83202 333 0//00 83820 85080 94916 95836;EQDQ01  00002PRCP99
0124644590999992000022309004+01620+018070FM-12+0326FCOI V0202801N001012200019N0100001N1+03021+02431999999ADDGA1021+090009019GF102991001001999999001011REMSYN070AAXX  23094 64459 42960 22802 10302 20243 39/// 40/// 80001 333 82080;
0180644590999992000022315004+01620+018070FM-12+0326FCOI V0203601N00211009001CN0070001N1+02751+02091999999ADDGA1041+004809069GA2011+009009099GA3081+036009049GF108991041091004501021999REMSYN094AAXX  23154 64459 41457 83604 10275 20209 39/// 40/// 8492/ 333 84616 81930 88462 94948 95838;
0244644590999992000022318004+01620+018070FM-12+0326FCOI V0201801N001010390019N0080001N1+02601+02211999999ADDAA112000591AY191061AY261061GA1031+003909069GA2011+009009099GA3071+039009049GF107991041091004501071999KA1120M+03431MW1131REMSYN112AAXX  23184 64459 11458 71802 10260 20221 39/// 40/// 69942 71396 8497/ 333 10343 83613 81930 87463 94941 95831;
0240644590999992000022406004+01620+018070FM-12+0326FCOI V0202801N00101009001CN0100001N1+02301+02151999999ADDAA124000591GA1041+003909069GA2011+009009099GA3081+039009039GF108991041091004501071999IA2240+01909KA1120N+01991REMSYN118AAXX  24064 64459 12460 82802 10230 20215 39/40 69944 8497/ 333 01969 20199 50224 55/// 84613 81930 88363 94944 95834;
0130644590999992000022409004+01620+018070FM-12+0326FCOI V0202801N001010048019N0100001N1+02601+02161999999ADDGA1051+004809069GF108991051051004501071999REMSYN076AAXX  24094 64459 42460 82802 10260 20216 39/// 40/// 8557/ 333 85616 88363;
0222644590999992000022512004+01620+018070FM-12+0326FCOI V0202801N001010900019N0100001N1+02901+02201999999ADDAA199000091AY141061AY241061GA1031+004809089GA2051+090009009GF105991031011004501001021MW1031REMSYN100AAXX  25124 64459 31460 52802 10290 20220 39/// 40/// 70344 83102 333 0//00 83816 85080 94906 95836;EQDQ01  00002PRCP99
0152644590999992000022515004+01620+018070FM-12+0326FCOI V0201801N001010900019N0100001N1+03161+99999999999ADDGA1011+006009089GA2061+090009009GF106991011021008001041999REMSYN082AAXX  25154 64459 42560 61802 10316 39/// 40/// 8124/ 333 81820 86080 94908 95838;
0173644590999992000022518004+01620+018070FM-12+0326FCOI V0209999C000010060019N0080001N1+02701+02451999999ADDAA199000091GA1051+006009059GF105991051051008001001001KA1120M+03181REMSYN076AAXX  25184 64459 32558 50000 10270 20245 39/// 40/// 85500 333 10318 85620;EQDQ01  00002PRCP99
0098644590999992000022520004+01620+018070FM-12+0326FCOI V0209999C000012200019N0080001N1+02471+02331999999ADDGF102991021051004501001999REMSYN060AAXX  25204 64459 42458 20000 10247 20233 39/// 40/// 8250/;
0130644590999992000022521004+01620+018070FM-12+0326FCOI V02099999999992200019N0200001N1+02471+02331999999ADDGA1021+004809059GF102991021051004501001001REMSYN076AAXX  25214 64459 42498 20/0/ 10247 20233 39/// 40/// 82500 333 5/9// 82616;
0203644590999992000022606004+01620+018070FM-12+0326FCOI V0209999C000010900019N0100001N1+02281+02221999999ADDAA199000091GA1051+090009019GF105991001001999999001021IA2240+01809KA1120N+01941REMSYN094AAXX  26064 64459 32960 50000 10228 20222 39/// 40/// 80002 333 01800 20194 50174 55/// 85080;EQDQ01  00002PRCP99
0203644590999992000022609004+01620+018070FM-12+0326FCOI V0209999C000010900019N0100001N1+02281+02221999999ADDAA199000091GA1051+090009019GF105991001001999999001021IA2240+01809KA1120N+01941REMSYN094AAXX  26094 64459 32960 50000 10228 20222 39/// 40/// 80002 333 01800 20194 50174 55/// 85080;EQDQ01  00002PRCP99
0158644590999992000022615004+01620+018070FM-12+0326FCOI V0201801N001010900019N0150001N1+03191+02391999999ADDGA1031+006909089GA2051+090009009GF105991031021008001041021REMSYN088AAXX  26154 64459 42565 51802 10319 20239 39/// 40/// 83242 333 83823 85080 94908 95838;
0241644590999992000022618004+01620+018070FM-12+0326FCOI V0201001N001011050019N0100001N1+02851+02601999999ADDAA199000091AY191061AY291061GA1031+004809089GA2011+009009099GF106991031091004501001031KA1120M+03301MW1171REMSYN106AAXX  26184 64459 31460 61002 10285 20260 39/// 40/// 71799 83903 333 10330 83816 81930 90080 94942 95832;EQDQ01  00002PRCP99
0237644590999992000022706004+01620+018070FM-12+0326FCOI V0209999C000010090019N0100001N1+02391+02321999999ADDAA199000091GA1041+006009069GA2011+009009099GF105991051091008001001001IA2240+02009KA1120N+02121REMSYN112AAXX  27064 64459 32560 50000 10239 20232 39/// 40/// 85900 333 02000 20212 50234 55/// 84620 81930 94942 95832;EQDQ01  00002PRCP99
0208644590999992000022709004+01620+018070FM-12+0326FCOI V0209999C000010390019N0100001N1+02501+02211999999ADDAY191031AY261031GA1031+003909069GA2011+009009099GA3061+039009039GF106991031091004501071001MW1171REMSYN100AAXX  27094 64459 41460 60000 10250 20221 39/// 40/// 71796 83970 333 83613 81930 86363 94948 95838;
0208644590999992000022715004+01620+018070FM-12+0326FCOI V0201801N001010900019N0100001N1+02901+02411999999ADDAY191031AY291031GA1021+006009089GA2011+009009099GA3051+090009009GF105991021091008001001031MW1171REMSYN100AAXX  27154 64459 41560 51802 10290 20241 39/// 40/// 71799 82903 333 82820 81930 85080 94964 95834;
0237644590999992000022806004+01620+018070FM-12+0326FCOI V0209999C00001045001CN0030001N1+02201+02141999999ADDAA199000091AY121061AY221061GA1031+003009069GF107991031051004501071001IA2240+01909KA1120N+01901MW1101REMSYN106AAXX  28064 64459 31430 70000 10220 20214 39/// 40/// 71022 83570 333 01900 20190 50134 55/// 83610 87363;EQDQ01  00002PRCP99
0152644590999992000022809004+01620+018070FM-12+0326FCOI V0202801N003110048019N0020001N1+02601+01851999999ADDAY141031AY241031GA1071+004809059GF107991071051004501001001MW1051REMSYN076AAXX  28094 64459 41420 72806 10260 20185 39/// 40/// 70544 87500 333 87616;
0201644590999992000022818004+01620+018070FM-12+0326FCOI V0209999C000012200019N0080001N1+02481+02181999999ADDAA199000091AY141061AY241061GA1031+045009079GF103991031001999999031001KA1120M+03001MW1011REMSYN082AAXX  28184 64459 31958 30000 10248 20218 39/// 40/// 70144 83030 333 10300 83365;EQDQ01  00002PRCP99
0124644590999992000022903004+01620+018070FM-12+0326FCOI V0209999C000010045019N0080001N1+02241+02061999999ADDGA1061+004509059GF106991061051004501001001REMSYN070AAXX  29034 64459 42458 60000 10224 20206 39/// 40/// 86500 333 86615;
0225644590999992000022906004+01620+018070FM-12+0326FCOI V0209999C000010003019N0001001N1+02211+02191999999ADDAA199000091AY141061AY241061GA1091+000309999GF109991091999999999999999IA2240+01809KA1120N+01971MW1471REMSYN094AAXX  29064 64459 31/01 90000 10221 20219 39/// 40/// 74744 333 01800 20197 50264 55/// 89/01;EQDQ01  00002PRCP99
0152644590999992000022909004+01620+018070FM-12+0326FCOI V0201801N001010039019N0100001N1+02601+02161999999ADDAY141031AY241031GA1051+003909059GF105991051021004501001001MW1011REMSYN076AAXX  29094 64459 41460 51802 10260 20216 39/// 40/// 70144 85200 333 85613;
0200644590999992000022912004+01620+018070FM-12+0326FCOI V0202801N001010060019N0010001N1+02971+02001999999ADDAA199000091AY141061AY241061GA1051+006009089GF105991051021008001001001MW1051REMSYN094AAXX  29124 64459 31510 52802 10297 20200 39/// 40/// 70544 85200 333 0//00 85820 94914 95834;EQDQ01  00002PRCP99
0164644590999992000022915004+01620+018070FM-12+0326FCOI V0202801N001012200019N0010001N1+03071+02091999999ADDAY141031AY241031GA1031+006009089GF103991031021008001001001MW1051REMSYN088AAXX  29154 64459 41510 32802 10307 20209 39/// 40/// 70544 83200 333 83820 94908 95838;
0184644590999992000030106004+01620+018070FM-12+0326FCOI V0209999C000012200019N0080001N1+02081+02021999999ADDAA199000091GA1031+090009019GF103991001001999999001011IA2240+01509REMSYN088AAXX  01064 64459 32958 30000 10208 20202 39/// 40/// 80001 333 01500 50224 55/// 83080;EQDQ01  00002PRCP99
0124644590999992000030109004+01620+018070FM-12+0326FCOI V0200401N001010900019N0100001N1+02881+02441999999ADDGA1051+090009019GF105991001001999999001011REMSYN070AAXX  01094 64459 42960 50402 10288 20244 39/// 40/// 80001 333 85080;
0201644590999992000030118004+01620+018070FM-12+0326FCOI V0209999C000012200019N0080001N1+02881+02401999999ADDAA199000091AY141061AY241061GA1041+090009019GF104991001001999999001021KA1120M+03351MW1011REMSYN082AAXX  01184 64459 31958 40000 10288 20240 39/// 40/// 70144 80002 333 10335 84080;EQDQ01  00002PRCP99
0146644590999992000030209004+01620+018070FM-12+0326FCOI V0209999C000010900019N0010001N1+02981+02291999999ADDAY141031AY241031GA1051+090009019GF105991999999999999999999MW1051REMSYN070AAXX  02094 64459 41910 50000 10298 20229 39/// 40/// 70544 333 85080;
0173644590999992000030218004+01620+018070FM-12+0326FCOI V0209999C000012200019N0080001N1+02971+02371999999ADDAA199000091GA1031+090009019GF103991001001999999001021KA1120M+03471REMSYN076AAXX  02184 64459 32958 30000 10297 20237 39/// 40/// 80002 333 10347 83080;EQDQ01  00002PRCP99
0219644590999992000030306004+01620+018070FM-12+0326FCOI V0209999C000012200019N0030001N1+02321+02261999999ADDAA199000091AY101061AY201061GA1001+999999999GF100991001001999999001001IA2240+01609KA1120N+02041MW1101REMSYN088AAXX  03064 64459 31930 00000 10232 20226 39/// 40/// 71000 333 01600 20204 50304 55///;EQDQ01  00002PRCP99
0124644590999992000030309004+01620+018070FM-12+0326FCOI V0209999C000010900019N0100001N1+03101+02241999999ADDGA1051+090009019GF105991001001999999001021REMSYN070AAXX  03094 64459 42960 50000 10310 20224 39/// 40/// 80002 333 85080;
0200644590999992000030312004+01620+018070FM-12+0326FCOI V0200201N002112200019N0030001N1+03501+01821999999ADDAA199000091AY141061AY241061GA1031+006009089GF103991031021008001001001MW1051REMSYN094AAXX  03124 64459 31530 30204 10350 20182 39/// 40/// 70544 83200 333 0//00 83820 94919 95839;EQDQ01  00002PRCP99
0136644590999992000030315004+01620+018070FM-12+0326FCOI V0200801N002112200019N0040001N1+03481+02051999999ADDGA1021+007809089GF102991021021008001001001REMSYN082AAXX  03154 64459 41540 20804 10348 20205 39/// 40/// 82200 333 82826 94905 95835;
0263644590999992000030406004+01620+018070FM-12+0326FCOI V0209999C000012200019N0020001N1+02261+02181999999ADDAA199000091AY111061AY211061GA1051+060009019GF199999001001999999001999IA2240+01909KA1120N+02071MW1101REMSYN100AAXX  04064 64459 31920 00000 10226 20218 39/// 40/// 71011 80002 333 01900 20207 50394 55/// 85070;EQDQ01+000002SCOTCVQ02+000002SCOHCGQ03  00002PRCP99
0124644590999992000030409004+01620+018070FM-12+0326FCOI V0209999C000010900019N0100001N1+03081+02261999999ADDGA1051+090009019GF105991001001999999001021REMSYN070AAXX  04094 64459 42960 50000 10308 20226 39/// 40/// 80002 333 85080;
0172644590999992000030412004+01620+018070FM-12+0326FCOI V0209999C000010078019N0100001N1+03451+02141999999ADDAA199000091GA1051+007809089GF105991051021008001001001REMSYN088AAXX  04124 64459 32560 50000 10345 20214 39/// 40/// 85200 333 0//00 85826 94918 95838;EQDQ01  00002PRCP99
0171644590999992000030415004+01620+018070FM-12+0326FCOI V0209999C000010900019N0100001N1+03471+02391999999ADDGA1041+007809089GA2061+090009009GF106991041021008001001999REMSYN082AAXX  04154 64459 42560 60000 10347 20239 39/// 40/// 84200 333 84826 86080 95838;EQDQ01+000002SCOHCG
0161644590999992000030418004+01620+018070FM-12+0326FCOI V0209999C000012200019N0080001N1+03021+02431999999ADDAA199000091GA1001+999999999GF100991001001999999001001KA1999M+03571REMSYN064AAXX  04184 64459 32958 00000 10302 20243 39/// 40/// 333 10357;EQDQ01  00002PRCP99
0112644590999992000030503004+01620+018070FM-12+0326FCOI V0209999C000012200019N0090001N1+02401+02271999999ADDGA1001+999999999GF100991001001999999001001REMSYN058AAXX  05034 64459 42959 00000 10240 20227 39/// 40/// 333;
0219644590999992000030506004+01620+018070FM-12+0326FCOI V0209999C000012200019N0030001N1+02401+02311999999ADDAA199000091AY101061AY201061GA1001+999999999GF100991001001999999001001IA2240+01809KA1120N+02101MW1101REMSYN088AAXX  05064 64459 31930 00000 10240 20231 39/// 40/// 71000 333 01800 20210 50294 55///;EQDQ01  00002PRCP99
0136644590999992000030515004+01620+018070FM-12+0326FCOI V0209999C000012200019N0100001N1+03551+02121999999ADDGA1031+007809089GF103991031021008001001001REMSYN082AAXX  05154 64459 42560 30000 10355 20212 39/// 40/// 83200 333 83826 94919 95839;
0173644590999992000030518004+01620+018070FM-12+0326FCOI V0201001N002112200019N0100001N1+03121+02561999999ADDAA199000091GA1031+004809059GF103991031051004501001001KA1120M+03601REMSYN076AAXX  05184 64459 32460 31004 10312 20256 39/// 40/// 83500 333 10360 83616;EQDQ01  00002PRCP99
0124644590999992000030609004+01620+018070FM-12+0326FCOI V0202801N002110900019N0080001N1+03101+02391999999ADDGA1061+090009019GF106991001001999999001021REMSYN070AAXX  06094 64459 42958 62804 10310 20239 39/// 40/// 80002 333 86080;
0222644590999992000030612004+01620+018070FM-12+0326FCOI V0201801N002110090019N0040001N1+03381+02351999999ADDAA199000091AY141061AY241061GA1041+006909089GA2011+009009099GF105991051091008001001001MW1051REMSYN100AAXX  06124 64459 31540 51804 10338 20235 39/// 40/// 70544 85900 333 0//00 84823 81930 94964 95834;EQDQ01  00002PRCP99
0222644590999992000030615004+01620+018070FM-12+0326FCOI V02099999999990090019N0040001N1+03381+02351999999ADDAA199000091AY141031AY241031GA1041+006909089GA2011+009009099GF105991051091008001001001MW1051REMSYN100AAXX  06154 64459 31540 5180/ 10338 20235 40/// 70544 85900 333 0//00 5//9/ 84823 81930 94964 95834;EQDQ01  00002PRCP99
0231644590999992000030706004+01620+018070FM-12+0326FCOI V0201801N002110078019N0040001N1+02551+02391999999ADDAA199000091AY121061AY221061GA1081+007809059GF108991081051008001999999IA2240+01909KA1120N+02301MW1101REMSYN100AAXX  07064 64459 31540 81804 10255 20239 39/// 40/// 71022 885// 333 01900 20230 50274 55/// 88626;EQDQ01  00002PRCP99
0259644590999992000030806004+01620+018070FM-12+0326FCOI V0201801N002110090019N0080001N1+02391+02251999999ADDAA199000091GA1041+003909069GA2011+009009099GA3081+039009049GF108991051091004501071999IA2240+02009KA1120N+02181REMSYN118AAXX  08064 64459 32458 81804 10239 20225 39/// 40/// 8597/ 333 02000 20218 50264 55/// 84613 81930 88463 94944 95834;EQDQ01  00002PRCP99
0172644590999992000030812004+01620+018070FM-12+0326FCOI V0202201N002110069019N0100001N1+03271+02161999999ADDAA199000091GA1051+006909089GF105991051021008001001001REMSYN088AAXX  08124 64459 32560 52204 10327 20216 39/// 40/// 85200 333 0//00 85823 94914 95834;EQDQ01  00002PRCP99
0136644590999992000030815004+01620+018070FM-12+0326FCOI V0202801N002110078019N0100001N1+03371+02071999999ADDGA1051+007809089GF105991051021008001001001REMSYN082AAXX  08154 64459 42560 52804 10337 20207 39/// 40/// 85200 333 85826 94914 95834;
0207644590999992000030818004+01620+018070FM-12+0326FCOI V0209999C000012200019N0100001N1+02931+02371999999ADDAA199000091GA1021+004809069GA2011+009009099GF103991031091004501001001KA1120M+03501REMSYN094AAXX  08184 64459 32460 30000 10293 20237 39/// 40/// 83900 333 10350 82616 81930 94944 95834;EQDQ01  00002PRCP99
0237644590999992000030912004+01620+018070FM-12+0326FCOI V0201001N002112200019N0150001N1+03001+02021999999ADDAA106001091AC11I9AY161061AY261061GA1011+006909089GA2011+009009099GA3031+090009009GF104991021091008001001021MW1031REMSYN112AAXX  09124 64459 11565 41004 10300 20202 39/// 40/// 60011 70366 82902 333 0//55 81823 81930 83080 94943 95833;
0186644590999992000031003004+01620+018070FM-12+0326FCOI V0201001N003110048019N0080001N1+02341+02221999999ADDAY121031AY221031GA1071+004809069GA2011+009009099GF108991081091004501999999MW1131REMSYN094AAXX  10034 64459 41458 81006 10234 20222 39/// 40/// 71322 889// 333 87616 81930 9941/ 9-831;
0224644590999992000031006004+01620+018070FM-12+0326FCOI V0201801N002110048019N0100001N1+02261+02141999999ADDAA124001091GA1071+004809069GA2011+009009099GF108991081091004501999999IA2240+01909KA1120N+02081REMSYN118AAXX  10064 64459 12460 81804 10226 20214 39/// 40/// 60014 889// 333 01969 20208 50194 55/// 87616 81930 94946 95816;
0124644590999992000031009004+01620+018070FM-12+0326FCOI V0202801N002110900019N0100001N1+02791+02221999999ADDGA1061+090009019GF106991001001999999001021REMSYN070AAXX  10094 64459 42960 62804 10279 20222 39/// 40/// 80002 333 86080;
0180644590999992000031015004+01620+018070FM-12+0326FCOI V0202801N001010900019N0100001N1+03061+02291999999ADDGA1021+006909089GA2011+009009099GA3061+090009009GF106991031091008001001031REMSYN094AAXX  10154 64459 42560 62802 10306 20229 39/// 40/// 83903 333 82823 81930 86080 94968 95838;
0207644590999992000031018004+01620+018070FM-12+0326FCOI V0209999C000010900019N0100001N1+02901+02391999999ADDAA199000091GA1011+009009099GA2051+090009009GF105991011091008001001031KA1120M+03171REMSYN094AAXX  10184 64459 32560 50000 10290 20239 39/// 40/// 81903 333 10317 81930 85080 94948 95818;EQDQ01  00002PRCP99
0191644590999992000031106004+01620+018070FM-12+0326FCOI V0209999C000012200019N0080001N1+02351+02201999999ADDAA199000091GA1001+999999999GF100991001001999999001001IA2240+01809KA1120N+02031REMSYN082AAXX  11064 64459 32958 00000 10235 20220 39/// 40/// 333 01800 20203 50204 55///;EQDQ01  00002PRCP99
0155644590999992000031109004+01620+018070FM-12+0326FCOI V0201001N002112200019N0100001N1+03021+02201999999ADDGA1011+003909089GF101991999011004501001001REMSYN082AAXX  11094 64459 42460 11004 10302 20220 39/// 40/// 80100 333 81813 94906 95836;EQDQ01+000002SCOTLC
0237644590999992000031206004+01620+018070FM-12+0326FCOI V0209999C000010390019N0100001N1+02501+02211999999ADDAA199000091GA1011+009009099GA2061+039009039GF106991011091999999081001IA2240+01909KA1120N+02071REMSYN112AAXX  12064 64459 32960 60000 10250 20221 39/// 40/// 81980 333 01900 20207 50204 55/// 81930 86363 94944 95834;EQDQ01  00002PRCP99
0112644590999992000031209004+01620+018070FM-12+0326FCOI V0201801N001012200019N0100001N1+03101+02251999999ADDGA1001+999999999GF100991001001999999001001REMSYN058AAXX  12094 64459 42960 01802 10310 20225 39/// 40/// 333;
0225644590999992000031306004+01620+018070FM-12+0326FCOI V0209999C000012200019N0030001N1+02401+02251999999ADDAA199000091AY111061AY211061GA1031+090009019GF103991001001999999001011IA2240+01809KA1120N+02101MW1101REMSYN094AAXX  13064 64459 31930 30000 10240 20225 39/// 40/// 71011 80001 333 01800 20210 50304 83080;EQDQ01  00002PRCP99
0112644590999992000031309004+01620+018070FM-12+0326FCOI V0209999C000012200019N0100001N1+03101+02141999999ADDGA1001+999999999GF100991001001999999001001REMSYN058AAXX  13094 64459 42960 00000 10310 20214 39/// 40/// 333;
0172644590999992000031312004+01620+018070FM-12+0326FCOI V0202801N003112200019N0100001N1+03441+02241999999ADDAA199000091GA1041+007809089GF104991041021008001001001REMSYN088AAXX  13124 64459 32560 42806 10344 20224 39/// 40/// 84200 333 0//00 84826 94919 95839;EQDQ01  00002PRCP99
0203644590999992000031506004+01620+018070FM-12+0326FCOI V0209999C000010900019N0080001N1+02201+02081999999ADDAA199000091GA1051+090009019GF105991001001999999001021IA2240+01609KA1120N+01901REMSYN094AAXX  15064 64459 32958 50000 10220 20208 39/// 40/// 80002 333 01600 20190 50144 55/// 85080;EQDQ01  00002PRCP99
0203644590999992000031509004+01620+018070FM-12+0326FCOI V0209999C000010900019N0080001N1+02201+02081999999ADDAA199000091GA1051+090009019GF105991001001999999001021IA2240+01609KA1120N+01901REMSYN094AAXX  15094 64459 32958 50000 10220 20208 39/// 40/// 80002 333 01600 20190 50144 55/// 85080;EQDQ01  00002PRCP99
0184644590999992000031806004+01620+018070FM-12+0326FCOI V0200201N001012200019N0001001N1+99999+99999999999ADDAA124033091AY141061AY241061GF101991999999999999999999IA2240+01709KA1120N+01811MW1471REMSYN088AAXX  18064 64459 11/01 10202 20199 40/// 60334 74744 333 01769 20181 50044 55/// 89///;
0186644590999992000031809004+01620+018070FM-12+0326FCOI V0202801N001010390019N0100001N1+02461+02101999999ADDAY141031AY241031GA1031+004809089GA2061+039009039GF106991031011004501031001MW1031REMSYN094AAXX  18094 64459 41460 62802 10246 20210 39/// 40/// 70344 83130 333 83816 86363 94916 95836;
0203644590999992000031906004+01620+018070FM-12+0326FCOI V0209999C000010450019N0080001N1+02461+02331999999ADDAA199000091GA1051+045009079GF105991051001999999031001IA2240+01909KA1120N+02151REMSYN094AAXX  19064 64459 32958 50000 10246 20233 39/// 40/// 85030 333 01900 20215 50164 55/// 85365;EQDQ01  00002PRCP99
0194644590999992000031912004+01620+018070FM-12+0326FCOI V0201801N002110060019N0150001N1+03141+02321999999ADDAA199000091GA1051+006009089GA2041+090009009GF107991051021008001001021REMSYN094AAXX  19124 64459 32565 71804 10314 20232 39/// 40/// 85202 333 0//00 85820 84080 94919 95839;EQDQ01  00002PRCP99
0173644590999992000031918004+01620+018070FM-12+0326FCOI V0209999C000010900019N0100001N1+02921+02461999999ADDAA199000091GA1061+090009019GF106991001001999999001021KA1120M+03251REMSYN076AAXX  19184 64459 32960 60000 10292 20246 39/// 40/// 80002 333 10325 86080;EQDQ01  00002PRCP99
0124644590999992000032003004+01620+018070FM-12+0326FCOI V0202801N002110900019N0080001N1+02401+02311999999ADDGA1071+090009019GF107991001001999999001021REMSYN070AAXX  20034 64459 42958 72804 10240 20231 39/// 40/// 80002 333 87080;
0237644590999992000032006004+01620+018070FM-12+0326FCOI V0209999C000010390019N0100001N1+02371+02111999999ADDAA199000091GA1021+004809089GA2071+039009039GF107991021011004501071999IA2240+02009KA1120N+02141REMSYN112AAXX  20064 64459 32460 70000 10237 20211 39/// 40/// 8217/ 333 02000 20214 50244 55/// 82816 87363 94906 95836;EQDQ01  00002PRCP99
0158644590999992000032009004+01620+018070FM-12+0326FCOI V0202801N002110390019N0100001N1+02821+02201999999ADDGA1011+009009099GA2061+039009039GF106991011091008001031001REMSYN088AAXX  20094 64459 42560 62804 10282 20220 39/// 40/// 81930 333 81930 86363 94944 95834;
0110644590999992000032012004+01620+018070FM-12+0326FCOI V0202801N002119999999N0150001N1+03201+02191999999ADDAA199000091GF105991999999008001999999REMSYN042AAXX  20124 64459 32565 52804 10320 20219;EQDQ01  00002PRCP99
0158644590999992000032015004+01620+018070FM-12+0326FCOI V0201801N002110900019N0150001N1+03361+02171999999ADDGA1031+006909089GA2061+090009009GF106991031021008001001021REMSYN088AAXX  20154 64459 42565 61804 10336 20217 39/// 40/// 83202 333 83823 86080 94904 95834;
0203644590999992000032106004+01620+018070FM-12+0326FCOI V0209999C000010090019N0080001N1+02441+02321999999ADDAA199000091GA1061+009009019GF106991061001999999031001IA2240+01809KA1120N+02121REMSYN094AAXX  21064 64459 32958 60000 10244 20232 39/// 40/// 86030 333 01800 20212 50304 55/// 86030;EQDQ01  00002PRCP99
0124644590999992000032109004+01620+018070FM-12+0326FCOI V0201801N001012200019N0150001N1+03081+02341999999ADDGA1011+045009079GF101991011001999999041001REMSYN070AAXX  21094 64459 42965 11802 10308 20234 39/// 40/// 81040 333 81365;
0172644590999992000032112004+01620+018070FM-12+0326FCOI V0201801N001010069019N0200001N1+03411+02241999999ADDAA199000091GA1061+006909089GF106991061021008001001001REMSYN088AAXX  21124 64459 32570 61802 10341 20224 39/// 40/// 86200 333 0//00 86823 94918 95838;EQDQ01  00002PRCP99
0224644590999992000032115004+01620+018070FM-12+0326FCOI V02099999999990450019N0100001N1+02821+02401999999ADDAY191031AY261031GA1021+006009089GA2011+009909099GA3031+045009039GA4051+090009009GF105991031091008001061031MW1171REMSYN100AAXX  21154 64459 41560 50/00 10282 20240 39/// 40/// 71796 83963 333 82820 81933 83365 85080 94961;
0208644590999992000032203004+01620+018070FM-12+0326FCOI V0201001N002110390019N0080001N1+02181+02091999999ADDAY191031AY261031GA1031+004809089GA2011+009009099GA3081+039009049GF108991041091004501021999MW1171REMSYN100AAXX  22034 64459 41458 81004 10218 20209 39/// 40/// 71796 8492/ 333 83816 81930 88463 94942 95832;
0280644590999992000032206004+01620+018070FM-12+0326FCOI V0201801N002110390019N0100001N1+02201+02051999999ADDAA124003091AC11I9AY191061AY261061GA1031+003009069GA2011+009009099GA3081+039009049GF108991041091004501071999IA2240+01809KA1120N+01911MW1171REMSYN130AAXX  22064 64459 11460 81804 10220 20205 39/// 40/// 60034 71796 8497/ 333 01865 20191 50294 55/// 83610 81930 88463 94943 95863;
0208644590999992000032209004+01620+018070FM-12+0326FCOI V0202801N002110390019N0100001N1+02501+02131999999ADDAY191031AY291031GA1031+004809069GA2011+009009099GA3081+039009049GF108991031091004501071999MW1011REMSYN100AAXX  22094 64459 41460 82804 10250 20213 39/// 40/// 70199 8397/ 333 83616 81930 88463 94946 95816;
0188644590999992000032212004+01620+018070FM-12+0326FCOI V0202801N001010900019N0100001N1+03001+02151999999ADDAA199000091AY191061AY291061GA1061+090009019GF106991001001999999001021MW1011REMSYN082AAXX  22124 64459 31960 62802 10300 20215 39/// 40/// 70199 80002 333 0//00 86080;EQDQ01  00002PRCP99
0257644590999992000032218004+01620+018070FM-12+0326FCOI V0203601N001010900019N0100001N1+02721+02331999999ADDAA199000091AY121061AY221061GA1021+004809069GA2011+009009099GA3051+090009009GF105991021091004501001021KA1120M+03211MW1131REMSYN106AAXX  22184 64459 31460 53602 10272 20233 39/// 40/// 71322 82902 333 10321 82616 81930 85080 94941 95831;EQDQ01  00002PRCP99
0222644590999992000032300004+01620+018070FM-12+0326FCOI V0203601N007210030019N0060001N1+02381+02061999999ADDAA199000091AY121061AY221061GA1071+003009069GA2011+009009099GF108991081091004501999999MW1131REMSYN100AAXX  23004 64459 31456 83614 10238 20206 39/// 40/// 71322 889// 333 0//00 87610 81930 94941 95811;EQDQ01  00002PRCP99
0208644590999992000032303004+01620+018070FM-12+0326FCOI V0202801N003110024019N0060001N1+02121+02061999999ADDAY191031AY261031GA1051+002409069GA2011+009009099GA3081+030009049GF108991061091002501021999MW1951REMSYN100AAXX  23034 64459 41356 82806 10212 20206 39/// 40/// 79596 8692/ 333 85608 81930 88460 94941 95811;
0252644590999992000032306004+01620+018070FM-12+0326FCOI V0202801N003110030019N0080001N1+02061+02031999999ADDAA124027991AC11C9AY191061AY261061GA1041+001809079GA2051+003009069GF108991051051002501021999IA2240+01509KA1120N+01801MW1601REMSYN118AAXX  23064 64459 11358 82806 10206 20203 39/// 40/// 60284 76096 8552/ 333 01531 20180 50184 55/// 84706 85610 88460;
0158644590999992000032309004+01620+018070FM-12+0326FCOI V0202801N004110030019N0080001N1+02131+02041999999ADDAY161031AY261031GA1051+003009069GF108991051051004501021999MW1021REMSYN082AAXX  23094 64459 41458 82808 10213 20204 39/// 40/// 70266 8552/ 333 85610 88460;
0187644590999992000032312004+01620+018070FM-12+0326FCOI V0203201N002110048019N0100001N1+02581+02171999999ADDAA106000391AC11I9AY161061AY261061GA1051+004809069GF107991051021004501071999MW1031REMSYN094AAXX  23124 64459 11460 73204 10258 20217 39/// 40/// 69931 70366 8527/ 333 0//15 85616 87363;
0136644590999992000032315004+01620+018070FM-12+0326FCOI V0209999C000010060019N0100001N1+02701+02061999999ADDGA1061+006009089GF106991061021008001001001REMSYN082AAXX  23154 64459 42560 60000 10270 20206 39/// 40/// 86200 333 86820 94914 95834;
0196644590999992000032406004+01620+018070FM-12+0326FCOI V0209999C00001105001CN0100001N1+02101+02041999999ADDAA124000391GA1021+003009069GF105991021051004501001021IA2240+01709KA1120N+01821REMSYN106AAXX  24064 64459 12460 50000 10210 20204 39/// 40/// 69934 82502 333 01769 20182 50094 55/// 82610 85080;
0136644590999992000032409004+01620+018070FM-12+0326FCOI V0202801N001012200019N0100001N1+02721+02211999999ADDGA1041+004809089GF104991041011004501001001REMSYN082AAXX  24094 64459 42460 42802 10272 20221 39/// 40/// 84100 333 84816 94916 95838;
0172644590999992000032412004+01620+018070FM-12+0326FCOI V0202801N002112200019N0150001N1+03001+02221999999ADDAA199000091GA1041+006009089GF104991041021008001001001REMSYN088AAXX  24124 64459 32565 42804 10300 20222 39/// 40/// 84200 333 0//00 84820 94918 95838;EQDQ01  00002PRCP99
0145644590999992000032415004+01620+018070FM-12+0326FCOI V0209999C000012200019N0150001N1+99999+99999999999ADDGA1041+006009089GF104991041021008001001001MA1999999102111REMSYN076AAXX  24154 64459 42565 40000 20320 30211 40/// 84200 333 84820 94914 95834;
0235644590999992000032418004+01620+018070FM-12+0326FCOI V0209999C000012200019N0080001N1+02811+02371999999ADDAA199000091AY101061AY201061GA1021+004809069GA2011+009009099GF102991021091004501001001KA1120M+03331MW1131REMSYN100AAXX  24184 64459 31458 20000 10281 20237 39/// 40/// 71300 82900 333 10333 82616 81930 94943 95833;EQDQ01  00002PRCP99
0203644590999992000032506004+01620+018070FM-12+0326FCOI V0209999C000012200019N0100001N1+02441+02261999999ADDAA199000091GA1031+090009019GF103991001001999999001021IA2240+01909KA1120N+02051REMSYN094AAXX  25064 64459 32960 30000 10244 20226 39/// 40/// 80002 333 01900 20205 50214 55/// 83080;EQDQ01  00002PRCP99
0158644590999992000032509004+01620+018070FM-12+0326FCOI V0202201N002110900019N0100001N1+03001+02321999999ADDGA1041+004809089GA2031+090009009GF105991041011004501001011REMSYN088AAXX  25094 64459 42460 52204 10300 20232 39/// 40/// 84101 333 84816 83080 94909 95839;
0208644590999992000032515004+01620+018070FM-12+0326FCOI V0202201N001010900019N0100001N1+03101+02401999999ADDAY191031AY261031GA1031+007809089GA2011+009909099GA3031+090009009GF106991041091008001001021MW1011REMSYN100AAXX  25154 64459 41560 62202 10310 20240 39/// 40/// 70196 84902 333 83826 81933 83080 94961 95831;
0160644590999992000032618004+01620+018070FM-12+0326FCOI V0209999C000012200019N0100001N1+02471+02271999999ADDAA112000191GA1041+039009079GF104991041001999999031001KA1120M+02821REMSYN082AAXX  26184 64459 12960 40000 10247 20227 39/// 40/// 69912 84030 333 10282 84363;
0209644590999992000032706004+01620+018070FM-12+0326FCOI V0209999C000012200019N0080001N1+02121+02091999999ADDAA199000091GA1021+000909079GF104991021061002501031001IA2240+01609KA1120N+01851REMSYN100AAXX  27064 64459 32358 40000 10212 20209 39/// 40/// 82630 333 01600 20185 50094 55/// 82703 84365;EQDQ01  00002PRCP99
0158644590999992000032709004+01620+018070FM-12+0326FCOI V0202801N001010450019N0100001N1+02921+02321999999ADDGA1021+004809089GA2061+045009039GF106991021011004501071001REMSYN088AAXX  27094 64459 42460 62802 10292 20232 39/// 40/// 82170 333 82816 86365 94904 95834;
0172644590999992000032712004+01620+018070FM-12+0326FCOI V0203601N002112200019N0150001N1+03241+02091999999ADDAA199000091GA1041+006909089GF104991041021008001001001REMSYN088AAXX  27124 64459 32565 43604 10324 20209 39/// 40/// 84200 333 0//00 84823 94919 95839;EQDQ01  00002PRCP99
0208644590999992000032715004+01620+018070FM-12+0326FCOI V0200801N00311039001CN0100001N1+03101+02221999999ADDAY191031AY261031GA1011+009009099GA2071+039009039GA3041+999999089GF107991051091008001071001MW1951REMSYN100AAXX  27154 64459 41560 70806 10310 20222 39/// 40/// 79596 85970 333 8482/ 81930 87363 94978 95838;
0202644590999992000032806004+01620+018070FM-12+0326FCOI V0209999C00001045001CN0100001N1+02201+02091999999ADDAA124006191AC10I9GA1041+003909069GF108991041051004501011999IA2240+01809KA1120N+01941REMSYN106AAXX  28064 64459 12460 80000 10220 20209 39/// 40/// 60064 8451/ 333 01864 20194 50254 55/// 84613 88463;
0124644590999992000032809004+01620+018070FM-12+0326FCOI V0201801N001010900019N0100001N1+02651+02171999999ADDGA1081+090009089GF108991001001999999001071REMSYN070AAXX  28094 64459 42960 81802 10265 20217 39/// 40/// 80007 333 88280;
0194644590999992000032812004+01620+018070FM-12+0326FCOI V0209999C000010900019N0100001N1+03011+02341999999ADDAA199000091GA1031+004809089GA2081+090009029GF108991031011004501001071REMSYN094AAXX  28124 64459 32460 80000 10301 20234 39/// 40/// 83107 333 0//00 83816 88280 94904 95834;EQDQ01  00002PRCP99
0208644590999992000032815004+01620+018070FM-12+0326FCOI V0201401N00311009001CN0080001N1+02671+02081999999ADDAY191031AY291031GA1041+003009069GA2011+009009099GA3081+036009049GF108991041091004501071999MW1171REMSYN100AAXX  28154 64459 41458 81406 10267 20208 39/// 40/// 71799 8497/ 333 84610 81930 88462 94944 95834;
0257644590999992000032818004+01620+018070FM-12+0326FCOI V0201801N00101009001CN0080001N1+02351+02071999999ADDAA199000091AY191061AY291061GA1041+003909069GA2011+009009099GA3081+039009049GF108991041091004501071999KA1120M+03141MW1011REMSYN106AAXX  28184 64459 31458 81802 10235 20207 39/// 40/// 70199 8497/ 333 10314 84613 81930 88463 94944 95834;EQDQ01  00002PRCP99
0231644590999992000032906004+01620+018070FM-12+0326FCOI V0209999C00001045001CN0080001N1+02021+01961999999ADDAA199000091GA1011+001809079GA2031+003009069GF107991031051002501031001IA2240+01509KA1120N+01751REMSYN106AAXX  29064 64459 32358 70000 10202 20196 39/// 40/// 83530 333 01500 20175 50144 55/// 81706 83610 87363;EQDQ01  00002PRCP99
0158644590999992000032909004+01620+018070FM-12+0326FCOI V0201801N002110450019N0100001N1+02621+02201999999ADDGA1011+003009089GA2061+045009039GF106991011011004501031001REMSYN088AAXX  29094 64459 42460 61804 10262 2022/ 39/// 40/// 81130 333 81810 86365 94902 95832;
0216644590999992000032912004+01620+018070FM-12+0326FCOI V0201801N00211090001CN0150001N1+03081+02281999999ADDAA199000091GA1021+004809089GA2031+045009039GA3061+090009009GF106991021011004501031021REMSYN100AAXX  29124 64459 32465 61804 10308 20228 39/// 40/// 82132 333 0//00 82816 83365 86080 94904 95834;EQDQ01  00002PRCP99
0158644590999992000032915004+01620+018070FM-12+0326FCOI V0202801N001010900019N0200001N1+03171+02201999999ADDGA1031+006909089GA2051+090009009GF105991031021008001001021REMSYN088AAXX  29154 64459 42570 52802 10317 20220 39/// 40/// 83202 333 83823 85080 94902 95832;
0173644590999992000032918004+01620+018070FM-12+0326FCOI V0209999C000010900019N0080001N1+02851+02531999999ADDAA199000091GA1051+090009019GF105991001001999999001021KA1120M+03281REMSYN076AAXX  29184 64459 32958 50000 10285 20253 39/// 40/// 80002 333 10328 85080;EQDQ01  00002PRCP99
0124644590999992000033003004+01620+018070FM-12+0326FCOI V02099999999992200019N0080001N1+99999+99999999999ADDGA1031+090009019GF103991001001999999001011REMSYN070AAXX  30034 64459 42958 300/0 18225 20218 39/// 40/// 80001 333 83080;
0203644590999992000033006004+01620+018070FM-12+0326FCOI V0209999C000010390019N0100001N1+02301+02241999999ADDAA199000091GA1051+039009079GF105991051001999999031001IA2240+01809KA1120N+01991REMSYN094AAXX  30064 64459 32960 50000 10230 20224 39/// 40/// 85030 333 01800 20199 50235 55/// 85363;EQDQ01  00002PRCP99
0124644590999992000033009004+01620+018070FM-12+0326FCOI V0201801N002110450019N0100001N1+03061+02291999999ADDGA1051+045009079GF105991051001999999031001REMSYN070AAXX  30094 64459 42960 51804 10306 20229 39/// 40/// 85030 333 85365;
0172644590999992000033012004+01620+018070FM-12+0326FCOI V0202801N001012200019N0150001N1+03301+02231999999ADDAA199000091GA1031+006909089GF103991031021008001001001REMSYN088AAXX  30124 64459 32565 32802 10330 20223 39/// 40/// 83200 333 0//00 83823 94906 95836;EQDQ01  00002PRCP99
0136644590999992000033015004+01620+018070FM-12+0326FCOI V0202801N002112200019N0200001N1+03451+02241999999ADDGA1041+006909089GF104991041021008001001001REMSYN082AAXX  30154 64459 42570 42804 10345 20224 39/// 40/// 84200 333 84823 94916 95836;
0124644590999992000033109004+01620+018070FM-12+0326FCOI V0201801N003110900019N0100001N1+03021+02281999999ADDGA1051+090009019GF105991001001999999001011REMSYN070AAXX  31094 64459 42960 51806 10302 20228 39/// 40/// 80001 333 85080;
0189644590999992000033118004+01620+018070FM-12+0326FCOI V0209999C000012200019N0150001N1+03001+02361999999ADDAA199000091GA1031+090009019GF103991001001999999001081KA1120M+03481REMSYN076AAXX  31184 64459 32965 30000 10300 20236 39/// 40/// 82008 333 10348 83080;EQDQ01+000022SCOTLCQ02  00002PRCP99
0219644590999992000040106004+01620+018070FM-12+0326FCOI V0209999C000012200019N0040001N1+02441+02291999999ADDAA199000091AY101061AY201061GA1001+999999999GF100991001001999999001001IA2240+01909KA1120N+02081MW1101REMSYN088AAXX  01064 64459 31940 00000 10244 20229 39/// 40/// 71000 333 01900 20208 50354 55///;EQDQ01  00002PRCP99
0124644590999992000040109004+01620+018070FM-12+0326FCOI V0201801N002110900019N0100001N1+03161+02241999999ADDGA1051+090009019GF105991001001999999001021REMSYN070AAXX  01094 64459 42960 51804 10316 20224 39/// 40/// 80002 333 85080;
0172644590999992000040112004+01620+018070FM-12+0326FCOI V0201801N002110069019N0150001N1+03401+02261999999ADDAA199000091GA1051+006909089GF105991051021008001001001REMSYN088AAXX  01124 64459 32565 51804 10340 20226 39/// 40/// 85200 333 0//00 85823 94914 95834;EQDQ01  00002PRCP99
0114644590999992000040115004+01620+018070FM-12+0326FCOI V0202801N001012200019N0200001N1+03451+02321999999ADDGF103991031021008001001001REMSYN076AAXX  01154 64459 42570 32802 10345 20232 39/// 40/// 83200 333 94906 95836;
0161644590999992000040118004+01620+018070FM-12+0326FCOI V0209999C000012200019N0080001N1+03071+02441999999ADDAA199000091GA1001+999999999GF100991001001999999001001KA1999M+03561REMSYN064AAXX  01184 64459 32958 00000 10307 20244 39/// 40/// 333 10356;EQDQ01  00002PRCP99
0259644590999992000040206004+01620+018070FM-12+0326FCOI V0201801N001010390019N0080001N1+02401+02161999999ADDAA199000091GA1021+004809069GA2011+009009099GA3071+039009039GF107991031091004501071001IA2240+01809KA1120N+02141REMSYN118AAXX  02064 64459 32458 71802 10240 20216 39/// 40/// 83970 333 01800 20214 50284 55/// 82616 81930 87363 94942 95832;EQDQ01  00002PRCP99
0130644590999992000040309004+01620+018070FM-12+0326FCOI V0202201N00101045001CN0100001N1+02441+02101999999ADDGA1031+004809069GF107991031021004501071999REMSYN076AAXX  03094 64459 42460 72202 10244 20210 39/// 40/// 8327/ 333 83616 87363;
0203644590999992000040406004+01620+018070FM-12+0326FCOI V0209999C000010390019N0080001N1+02341+02251999999ADDAA199000091GA1061+039009079GF106991061001999999071001IA2240+01809KA1120N+02051REMSYN094AAXX  04064 64459 32958 60000 10234 20225 39/// 40/// 86070 333 01800 20205 50104 55/// 86363;EQDQ01  00002PRCP99
0172644590999992000040412004+01620+018070FM-12+0326FCOI V0201401N002112200019N0200001N1+03241+02241999999ADDAA199000091GA1041+006909089GF104991041021008001001021REMSYN088AAXX  04124 64459 32570 41404 10324 20224 39/// 40/// 84202 333 0//00 84823 94919 95839;EQDQ01  00002PRCP99
0180644590999992000040415004+01620+018070FM-12+0326FCOI V0202801N002110900019N9999999N1+03261+02161999999ADDGA1031+007809089GA2011+009909099GA3051+090009009GF105991041031008001041021REMSYN094AAXX  04154 64459 425// 52804 10326 20216 39/// 40/// 84342 333 83826 81933 85080 94966 95836;
0203644590999992000040506004+01620+018070FM-12+0326FCOI V0209999C000010390019N0100001N1+02271+02121999999ADDAA199000091GA1071+039009079GF107991071001999999071999IA2240+01809KA1120N+01991REMSYN094AAXX  05064 64459 32960 70000 10227 20212 39/// 40/// 8707/ 333 01800 20199 50264 55/// 87363;EQDQ01  00002PRCP99
0242644590999992000040518004+01620+018070FM-12+0326FCOI V0201001N001010450019N0080001N1+02681+02221999999ADDAA112000791AY191061AY261061GA1031+004509089GA2011+009009099GF106991031091004501071001KA1120M+03011MD1999999-0071MW1171REMSYN112AAXX  05184 64459 11458 61002 10268 20222 39/// 40/// 69902 71796 83970 333 10301 59007 83815 81930 94965 95835;
0203644590999992000040606004+01620+018070FM-12+0326FCOI V0201801N002110390019N0080001N1+02451+02231999999ADDAA199000091GA1051+039009079GF105991051001999999071001IA2240+01909KA1120N+02151REMSYN094AAXX  06064 64459 32958 51804 10245 20223 39/// 40/// 85070 333 01900 20215 50264 55/// 85363;EQDQ01  00002PRCP99
0216644590999992000040612004+01620+018070FM-12+0326FCOI V0202201N002110450019N0150001N1+03301+02471999999ADDAA199000091GA1031+007809089GA2011+009009099GA3041+045009039GF105991041031008001031011REMSYN100AAXX  06124 64459 32565 52204 10330 20247 39/// 40/// 84331 333 0//00 83826 81930 84365 94963 95833;EQDQ01  00002PRCP99
0203644590999992000040706004+01620+018070FM-12+0326FCOI V0209999C000010390019N0100001N1+02351+02231999999ADDAA199000091GA1051+039009079GF105991051001999999031001IA2240+01909KA1120N+02041REMSYN094AAXX  07064 64459 32960 50000 10235 20223 39/// 40/// 85030 333 01900 20204 50304 55/// 85363;EQDQ01  00002PRCP99
0190644590999992000040806004+01620+018070FM-12+0326FCOI V0209999C000010018019N0080001N1+02201+02081999999ADDAA124016091GA1061+001809069GF106991061061001501001001IA2240+01609KA1120N+01901REMSYN100AAXX  08064 64459 12258 60000 10220 20208 39/// 40/// 60164 86600 333 01679 20190 50164 55/// 86706;
0194644590999992000040812004+01620+018070FM-12+0326FCOI V0209999C000012200019N0150001N1+02981+02261999999ADDAA199000091GA1031+006009089GA2041+045009039GF104991031021008001031001REMSYN094AAXX  08124 64459 32565 40000 10298 20226 39/// 40/// 83230 333 0//00 83820 84365 94909 95839;EQDQ01  00002PRCP99
0161644590999992000040818004+01620+018070FM-12+0326FCOI V0209999C000012200019N0150001N1+02721+02411999999ADDAA199000091GA1001+999999999GF100991001001999999001001KA1999M+03201REMSYN064AAXX  08184 64459 32965 00000 10272 20241 39/// 40/// 333 10320;EQDQ01  00002PRCP99
0203644590999992000040906004+01620+018070FM-12+0326FCOI V0209999C000010390019N0100001N1+02401+02231999999ADDAA199000091GA1071+039009079GF107991071001999999071999IA2240+02009KA1120N+02111REMSYN094AAXX  09064 64459 32960 70000 10240 20223 39/// 40/// 8707/ 333 02000 20211 50214 55/// 87363;EQDQ01  00002PRCP99
0244644590999992000040918004+01620+018070FM-12+0326FCOI V0201801N002110360019N0050001N1+02221+02101999999ADDAA112023191AY191061AY261061GA1031+003009069GA2011+009009099GA3081+036009049GF108991031091004501021999KA1120M+03421MW1951REMSYN112AAXX  09184 64459 11450 81804 10222 20210 39/// 40/// 60232 79596 8392/ 333 10342 83610 81930 88462 94944 95834;
0218644590999992000041006004+01620+018070FM-12+0326FCOI V0209999C000010015019N0001001N1+02161+02141999999ADDAA124023191AY141061AY241061GA1081+001509069GF108991081061001501999999IA2240+01609KA1120N+01901MW1461REMSYN106AAXX  10064 64459 11201 80000 10216 20214 39/// 40/// 60234 74644 886// 333 01679 20190 50174 55/// 88705;
0175644590999992000041012004+01620+018070FM-12+0326FCOI V0209999C000010450019N0150001N1+02801+02281999999ADDAA199000021AY131061AY201061GA1061+045009039GF106991999999008001999999MW1221REMSYN088AAXX  10124 64459 31565 60000 10280 20228 39/// 40/// 72230 333 0//00 86365 94902 95832;
0154644590999992000041018004+01620+018070FM-12+0326FCOI V0209999C000012200019N0150001N1+02601+02431999999ADDAA199000021GA1011+045009079GF101991011001999999041001KA1120M+03001REMSYN076AAXX  10184 64459 32965 10000 10260 20243 39/// 40/// 81040 333 10300 81365;
0231644590999992000041106004+01620+018070FM-12+0326FCOI V0209999C000012200019N0040001N1+02251+02191999999ADDAA199000091AY101061AY201061GA1041+090009019GF104991001001999999001021IA2240+01809KA1120N+01891MW1101REMSYN100AAXX  11064 64459 31940 40000 10225 20219 39/// 40/// 71000 80002 333 01800 20189 50104 55/// 84080;EQDQ01  00002PRCP99
0172644590999992000041112004+01620+018070FM-12+0326FCOI V0202801N001012200019N0200001N1+03341+02211999999ADDAA199000091GA1031+006909089GF103991031021008001001001REMSYN088AAXX  11124 64459 32570 32802 10334 20221 39/// 40/// 83200 333 0//00 83823 94904 95834;EQDQ01  00002PRCP99
0185644590999992000041118004+01620+018070FM-12+0326FCOI V0209999C000012200019N0100001N1+03001+02491999999ADDAA199000091GA1011+009009099GF101991011091008001001001KA1120M+03561REMSYN088AAXX  11184 64459 32560 10000 10300 20249 39/// 40/// 81900 333 10356 81930 94944 95834;EQDQ01  00002PRCP99
0203644590999992000041206004+01620+018070FM-12+0326FCOI V0202801N002112200019N0100001N1+02521+02321999999ADDAA199000091GA1031+090009019GF103991001001999999001011IA2240+01909KA1120N+02151REMSYN094AAXX  12064 64459 32960 32804 10252 20232 39/// 40/// 80001 333 01900 20215 50284 55/// 83080;EQDQ01  00002PRCP99
0194644590999992000041212004+01620+018070FM-12+0326FCOI V0201001N004110048019N0150001N1+02551+02191999999ADDAA199000091GA1071+004809069GA2011+009009099GF108991081091004501999999REMSYN094AAXX  12124 64459 31465 81008 10255 20219 39/// 40/// 889// 333 0//00 87616 81930 94942 95832;EQDQ01  00002PRCP99
0244644590999992000041218004+01620+018070FM-12+0326FCOI V0201801N003110090019N0080001N1+02221+02101999999ADDAA112003091AY191061AY261061GA1041+003009069GA2011+009009099GA3081+039009049GF108991051051004501021999KA1120M+02761MW1171REMSYN112AAXX  12184 64459 11458 81806 10222 20210 39/// 40/// 60032 71796 8552/ 333 10276 84610 81930 88463 94944 95834;
0323644590999992000041618004+01620+018070SY-MT+0326FCOI V0209999C000012200019N0150001N1+02981+02511999999ADDAA112000791AY191061AY261061GA1021+009909099GA2021+090009999GF104991011091012501001031KA1120M+03601MW1291REMSYN106AAXX  16184 64459 11665 40000 10298 20251 39/// 40/// 69902 72996 81903 333 10360 81933 84080 94941 95831;MET060FCOI 161800Z 00000KT 9999 FEW033CB SCT300 30/25 Q//// CB NE;EQDQ01+000000PRSWM2Q02    003PRSWM1
0280644590999992000041706004+01620+018070FM-12+0326FCOI V0201001N003110360019N0050001N1+02231+02081999999ADDAA124004191AC11C9AY191061AY261061GA1031+003009069GA2011+009009099GA3081+036009049GF108991031091004501021999IA2240+01909KA1120N+02041MW1951REMSYN130AAXX  17064 64459 11450 81006 10223 20208 39/// 40/// 60044 79596 8392/ 333 01961 20204 50204 55/// 83610 81930 88462 94942 95832;
0187644590999992000041712004+01620+018070FM-12+0326FCOI V0202201N003110030019N0060001N1+02201+02091999999ADDAA106010991AC11C9AY191061AY261061GA1051+003009069GF108991051051004501071999MW1611REMSYN094AAXX  17124 64459 11456 82206 10220 20209 39/// 40/// 60111 76196 8557/ 333 0//61 85610 88462;
0218644590999992000041806004+01620+018070FM-12+0326FCOI V0209999C000010015019N0003001N1+02101+02071999999ADDAA124011991AY141061AY241061GA1081+001509069GF108991081061001501999999IA2240+01609KA1120N+01851MW1461REMSYN106AAXX  18064 64459 11203 80000 10210 20207 39/// 40/// 60124 74644 886// 333 01679 20185 50024 55/// 88705;
0160644590999992000041812004+01620+018070FM-12+0326FCOI V0202801N001010045019N0100001N1+02701+02191999999ADDAA199000091GA1061+004509059GF106991061021004501001001REMSYN076AAXX  18124 64459 32460 62802 10270 20219 39/// 40/// 86200 333 0//00 86615;EQDQ01  00002PRCP99
0203644590999992000041906004+01620+018070FM-12+0326FCOI V0209999C000010390019N0100001N1+02361+02271999999ADDAA199000091GA1071+039009079GF107991071001999999071999IA2240+01909KA1120N+02071REMSYN094AAXX  19064 64459 32960 70000 10236 20227 39/// 40/// 8707/ 333 01900 20207 50134 55/// 87363;EQDQ01  00002PRCP99
0147644590999992000042608004+01620+018070FM-15+0326FCOI V02099999999990030019N0080001N1+02301+02201999999ADDGA1021+001809999GA2081+003009999GF108991999999999999999999MW1001REMMET052FCOI 260800Z VRB02KT 8000 SCT006 OVC010 23/22 Q////;EQDQ01+000000PRSWM2
0124644590999992000042612004+01620+018070FM-15+0326FCOI V02099999999990048019N0112651N1+02701+02301999999ADDGA1071+004809999GF107991999999999999999999MW1001REMMET045FCOI 261200Z VRB02KT 9999 BKN016 27/23 Q////;EQDQ01+000000PRSWM2
0124644590999992000042818004+01620+018070FM-15+0326FCOI V0209999C000010060019N0112651N1+02801+02501999999ADDGA1071+006009999GF107991999999999999999999MW1001REMMET045FCOI 281800Z 00000KT 9999 BKN020 28/25 Q////;EQDQ01+000000PRSWM2
0124644590999992000050612004+01620+018070FM-15+0326FCOI V0209999C000010069019N0112651N1+03401+02501999999ADDGA1071+006909999GF107991999999999999999999MW1001REMMET045FCOI 061200Z 00000KT 9999 BKN023 34/25 Q////;EQDQ01+000000PRSWM2
0194644590999992000050812004+01620+018070FM-12+0326FCOI V0209999C000010390019N0150001N1+03201+02291999999ADDAA199000091GA1031+006009089GA2061+039009039GF106991031021008001031001REMSYN094AAXX  08124 64459 32565 60000 10320 20229 39/// 40/// 83230 333 0//00 83820 86363 99403 95833;EQDQ01  00002PRCP99
0303644590999992000050906004+01620+018070FM-12+0326FCOI V0201801N002110090019N0100001N1+02511+02351999999ADDAA199000091AY191061AY291061GA1041+006009069GA2011+009009099GA3081+039009049GF108991999071008001999999IA2240+02009KA1120N+02161MW1171REMSYN124AAXX  09064 64459 31560 81804 10251 20235 39/// 40/// 71799 897// 333 02000 20216 50234 55/// 84620 81930 88463 94943 95833;EQDQ01+000092SCOTLCQ02  00002PRCP99
0188644590999992000050918004+01620+018070FM-12+0326FCOI V0209999C000010390019N0100001N1+02201+02111999999ADDAA112004191AY191061AY261061GA1071+039009019GF107991071001999999071999KA1120M+02621MW1011REMSYN088AAXX  09184 64459 11960 70000 10220 20211 39/// 40/// 60042 70196 8707/ 333 10262 87463;
0196644590999992000051006004+01620+018070FM-12+0326FCOI V0209999C000010018019N0080001N1+02141+02081999999ADDAA124004191GA1051+001809079GF108991051061002501071999IA2240+01709KA1120N+01891REMSYN106AAXX  10064 64459 12358 80000 10214 20208 39/// 40/// 60044 8567/ 333 01769 20189 50064 55/// 85706 88363;
0194644590999992000051012004+01620+018070FM-12+0326FCOI V0202801N001012200019N0250001N1+02921+02191999999ADDAA199000091GA1011+006009089GA2041+039009039GF104991011021008001031001REMSYN094AAXX  10124 64459 32575 42802 10292 20219 39/// 40/// 81230 333 0//00 81820 84363 94906 95836;EQDQ01  00002PRCP99
0161644590999992000051018004+01620+018070FM-12+0326FCOI V0209999C000012200019N0100001N1+02601+02311999999ADDAA199000091GA1001+999999999GF100991001001999999001001KA1999M+03071REMSYN064AAXX  10184 64459 32960 00000 10260 20231 39/// 40/// 333 10307;EQDQ01  00002PRCP99
0219644590999992000051106004+01620+018070FM-12+0326FCOI V0209999C000010390019N0100001N1+02501+02301999999ADDAA199000091GA1061+039009079GF199999061001999999031001IA2240+02009KA1120N+02111REMSYN094AAXX  11064 64459 32960 50000 10250 20230 39/// 40/// 86030 333 02000 20211 50211 55/// 86363;EQDQ01+000052SCOTCVQ02  00002PRCP99
0235644590999992000051118004+01620+018070FM-12+0326FCOI V0202801N001012200019N0100001N1+02451+02231999999ADDAA199000091AY191061AY291061GA1011+009009099GA2031+039009039GF103991011091008001041001KA1120M+03331MW1011REMSYN100AAXX  11184 64459 31560 32802 10245 20223 39/// 40/// 70199 81940 333 10333 81930 83363 94946 95816;EQDQ01  00002PRCP99
0172644590999992000051212004+01620+018070FM-12+0326FCOI V0202601N001010069019N0150001N1+03071+02361999999ADDAA199000091GA1051+006909089GF105991051021008001001001REMSYN088AAXX  12124 64459 32565 52602 10307 20236 39/// 40/// 85200 333 0//00 85823 94919 95836;EQDQ01  00002PRCP99
0244644590999992000051218004+01620+018070FM-12+0326FCOI V0201801N001010390019N0080001N1+02381+02171999999ADDAA112000591AY191061AY261061GA1031+003909069GA2011+009009099GA3081+039009049GF108991031091004501071999KA1120M+03171MW1171REMSYN112AAXX  12184 64459 11458 81802 10238 20217 39/// 40/// 69962 71796 8397/ 333 10317 83613 81930 88463 94945 95835;
0280644590999992000051306004+01620+018070FM-12+0326FCOI V0203601N002110360019N0060001N1+02101+01981999999ADDAA124003091AC11C9AY191061AY261061GA1031+003009069GA2011+009009099GA3081+036009049GF108991031091004501021999IA2240+01809KA1120N+01901MW1951REMSYN130AAXX  13064 64459 11456 83604 10210 20198 39/// 40/// 60034 79596 8392/ 333 01861 20190 50024 55/// 83610 81930 88462 94943 95833;
0257644590999992000051718004+01620+018070FM-12+0326FCOI V0209999C000010900019N0080001N1+02781+02441999999ADDAA199000091AY191061AY291061GA1031+004809069GA2011+009009099GA3071+090009009GF107991031091004501001031KA1120M+03221MW1171REMSYN106AAXX  17184 64459 31458 70000 10278 20244 39/// 40/// 71799 83903 333 10322 83616 81930 87080 94942 95832;EQDQ01  00002PRCP99
0194644590999992000051812004+01620+018070FM-12+0326FCOI V0202801N002110069019N0150001N1+03241+02331999999ADDAA199000091GA1061+006909089GA2011+009009099GF106991061051008001001001REMSYN094AAXX  18124 64459 32565 62804 10324 20233 39/// 40/// 86500 333 0//00 86823 81930 94966 95836;EQDQ01  00002PRCP99
0333644590999992000051906004+01620+018070SY-MT+0326FCOI V0209999C000010390019N0080001N1+02231+02191999999ADDAA124031091AY141061AY241061GA1021+001809999GA2071+039009999GF106991041061001501031001IA2240+01809KA1120N+01961MW1011REMSYN112AAXX  19064 64459 11258 60000 10223 20219 39/// 40/// 60314 70144 84630 333 01869 20196 50134 55/// 84706 86363;MET052FCOI 190600Z 00000KT 8000 SCT006 BKN133 22/22 Q////;EQDQ01+000000PRSWM2Q02    003PRSWM1
