0217670730999992000010103004-18050+044030FM-12+0023FMMO V0209999C00001045001CN0300001N1+02381+02321100841ADDAA106000091GA1011+006009089GA2031+012009069GF106991031081008001031001MA1999999100581MD1310051+9999REMSYN088AAXX  01034 67073 32580 60000 10238 20232 30058 40084 53005 83830 333 81820 83640 83360;EQDQ01  00002PRCP06
0285670730999992000010106004-18050+044030FM-12+0023FMMO V0209999C00001045001CN0400001N1+02681+02391100971ADDAA106000091GA1011+006009089GA2031+012009069GF106991031081008001031001IA2240+02309KA1120M+03301KA2120N+02381MA1999999100711MD1110131+9999REMSYN118AAXX  01064 67073 32582 60000 10268 20239 30071 40097 51013 83830 333 02300 10330 20238 5///4 55/// 81820 83640 83360;EQDQ01  00002PRCP06
0189670730999992000010109004-18050+044030FM-12+0023FMMO V0202801N004112200019N0400001N1+03101+02321100801ADDAA106000091GA1021+006909029GF103991021021008001001021MA1999999100541MD1810171+9999REMSYN076AAXX  01094 67073 32582 32808 10310 20232 30054 40080 58017 82202 333 82823;EQDQ01  00002PRCP06
0239670730999992000010112004-18050+044030FM-12+0023FMMO V0203201N005112200019N0400001N1+03071+02551100761ADDAA106000091GA1011+006009099GA2031+006009089GF103991031091008001001021MA1999999100501MD1610041+9999REMSYN110AAXX  01124 67073 32582 33210 10307 20255 30050 40076 56004 83902 333 0//00 83820 81920 94991 95811 555 81073;EQDQ01  00002PRCP06
0270670730999992000010115004-18050+044030FM-12+0023FMMO V0202801N004112200019N0250001N1+03041+02591100791ADDAA106000091AY191031AY201031GA1011+006009099GA2031+006009089GF103991031091008001001001KA1120M+03181MA1999999100531MD1310031+9999MW1171REMSYN106AAXX  01154 67073 31575 32808 10304 20259 30053 40079 53003 71790 83900 333 10318 83820 81920 94992 95832;EQDQ01  00002PRCP06
0201670730999992000010200004-18050+044030FM-12+0023FMMO V02099999999999999999N0250001N1+02631+02491100821ADDAA106000091GA1021+030009039GF106991021001999999031061MA1999999100561MD1610071+9999REMSYN088AAXX  02004 67073 33975 6//// 10263 20249 30056 40082 56007 82036 333 0//00 82360 85273;EQDQ01  00002PRCP06
0221670730999992000010203004-18050+044030FM-12+0023FMMO V0200601N001510690019N0350001N1+02601+02421100861ADDAA106000091GA1011+009909069GA2051+069009029GF105991011051012501031081MA1999999100601MD1310041+9999REMSYN092AAXX  02034 67073 32681 50603 10260 20242 30060 40086 53004 81538 333 81633 85273 555 81360;EQDQ01  00002PRCP06
0273670730999992000010206004-18050+044030FM-12+0023FMMO V0200601N002612200019N0400001N1+03121+02391101001ADDAA106000091GA1021+030009039GF103991011011008001031021IA2240+02509KA1120M+03181KA2120N+02581MA1999999100741MD1110141+9999REMSYN122AAXX  02064 67073 32582 30605 10312 20239 30074 40100 51014 81132 333 02500 10318 20258 50//4 55/// 81823 555 82360 82073;EQDQ01  00002PRCP06
0223670730999992000010209004-18050+044030FM-12+0023FMMO V0202601N002110450019N0400001N1+03341+02281100871ADDAA106000091GA1011+030009039GF105991041091008001031031MA1999999100611MD1810131+9999REMSYN110AAXX  02094 67073 32582 52604 10334 20228 30061 40087 58013 84933 333 84823 81923 94965 95835 555 81360 83073;EQDQ01  00002PRCP06
0229670730999992000010212004-18050+044030FM-12+0023FMMO V0202801N004611050019N0400001N1+03201+02481100711ADDAA106000091GA1011+006909099GA2031+006909089GF105991031091008001001021MA1999999100451MD1710161+9999REMSYN100AAXX  02124 67073 32582 52809 10320 20248 30045 40071 57016 83902 333 0//00 83823 81923 94967 95817;EQDQ01  00002PRCP06
0254670730999992000010215004-18050+044030FM-12+0023FMMO V0202601N002612200019N0400001N1+03051+02501100831ADDAA106000091GA1011+006909099GA2031+069009009GF104991021091008001041031KA1120M+03411MA1999999100571MD1310121+9999REMSYN112AAXX  02154 67073 32582 42605 10305 20250 30057 40083 53012 82943 333 10341 81923 83073 94942 94943 95812 95813;EQDQ01  00002PRCP06
0289670730999992000010303004-18050+044030FM-12+0023FMMO V0201401N00211007501CN0200001N1+02601+02401101181ADDAA106000091AY191031AY211031GA1041+004509099GA2011+006009099GA3031+006009089GA4051+009009069GF107991071091008001999999MA1999999100921MD1310101+9999MW1171REMSYN106AAXX  03034 67073 31570 71404 10260 20240 30092 40118 53010 71791 879// 333 83820 81920 85630 84994 95834;EQDQ01  00002PRCP06
0324670730999992000010306004-18050+044030FM-12+0023FMMO V0201601N002610060019N0300001N1+02701+02531101261ADDAA124003091AC12C9AY191061AY221061GA1011+006009099GA2041+006009089GF106991051091008001031001IA2240+02409KA1120M+03411KA2120N+02421MA1999999101001MD1310081+9999MW1011REMSYN148AAXX  03064 67073 11580 61605 10270 20253 30100 40126 53008 60034 70192 85930 333 02412 10341 20242 50//4 55/// 84820 81920 94992 94994 95812 95814;
0245670730999992000010309004-18050+044030FM-12+0023FMMO V0200201N003110090019N0400001N1+03121+02351100961ADDAA106000091GA1011+006009099GA2031+006009089GA3051+009009069GF107991071091008001999999MA1999999100701MD1710301+9999REMSYN100AAXX  03094 67073 32582 70206 10312 20235 30070 40096 57030 879// 333 83820 81920 85630 94997 95817;EQDQ01  00002PRCP06
0205670730999992000010312004-18050+044030FM-12+0023FMMO V0202201N005110450019N0400001N1+03041+02571100891ADDAA106000091GA1041+006909089GF105991041021008001031001MA1999999100631MD1610071+9999REMSYN092AAXX  03124 67073 32582 52210 10304 20257 30063 40089 56007 84230 333 0//00 84823 555 82360;EQDQ01  00002PRCP06
0252670730999992000010315004-18050+044030FM-12+0023FMMO V0202201N003112200019N0350001N1+03061+02471100851ADDAA106000091GA1011+006009099GA2031+006009089GF103991031091008001031001KA1120M+03281MA1999999100591MD1510041+9999REMSYN110AAXX  03154 67073 32581 32206 10306 20247 30059 40085 55004 83930 333 10328 83820 81920 94998 95838 555 81360;EQDQ01  00002PRCP06
0268670730999992000010403004-18050+044030FM-12+0023FMMO V0201601N00151007501CN0060001N1+02741+02601100841ADDAA112000691AY191031AY291031GA1011+030009049GF108991051091008001071031MA1999999100581MD1310021+9999MW1951REMSYN152AAXX  04034 67073 21556 81603 10274 20260 30058 40084 53002 79599 85973 333 69962 83820 82920 85630 94973 94974 94997 95813 95814 95817 555 81460 81073;
0318670730999992000010406004-18050+044030FM-12+0023FMMO V0201001N00211045001CN0200001N1+02551+02501100921ADDAA124018091AC12I9AY191061AY291061GA1011+012009069GF106991041081008001071061IA2240+02309KA1120M+03281KA2120N+02351MA1999999100661MD1010081+9999MW1291REMSYN158AAXX  04064 67073 11570 61004 10255 20250 30066 40092 50008 60184 72999 84876 333 02356 10328 20235 50//4 55/// 84820 82920 85460 94979 95819 555 81640 82273;
0216670730999992000010409004-18050+044030FM-12+0023FMMO V0203601N00151007501CN0350001N1+03041+02441100861ADDAA106000021GA1021+030009039GF106991051091008001031031MA1999999100601MD1710061+9999REMSYN122AAXX  04094 67073 32581 63603 10304 20244 30060 40086 57006 85933 333 85823 81923 94966 94967 95816 95817 555 82360 81073;
0250670730999992000010709004-18050+044030FM-12+0023FMMO V0200601N003610450019N0200001N1+02601+02491100831ADDAA106004091AY191031AY221031GA1011+006009099GA2041+006009089GF105991041091008001071001MA1999999100501MD1010011+9999MW1291REMSYN118AAXX  07094 67073 21570 50607 10260 20249 3005/ 40083 50001 72992 84970 333 60041 84820 81920 94992 94997 95832 95817;
0303670730999992000010715004-18050+044030FM-12+0023FMMO V0203601N00311009001CN0080001N1+02581+02521100611ADDAA106004091AY121031AY221031GA1011+006009099GA2041+006009089GA3051+009009069GF108991081091008001999999KA1120M+03011MA1999999100351MD1310031+9999MW1611REMSYN142AAXX  07154 67073 21558 83606 10258 20252 30035 40061 53003 76122 889// 333 10301 60041 84820 81920 85630 94991 94992 94993 9583/ 95832 95833;
0235670730999992000010809004-18050+044030FM-12+0023FMMO V0200201N006212200019N0400001N1+03001+02401100641ADDAA106000091GA1011+006909099GA2041+006909089GF104991041091008001001001MA1999999080381MD1810081+9999REMSYN106AAXX  08094 67073 32582 40212 10300 20240 38038 40064 58008 84900 333 84823 81923 94996 94997 95816 95817;EQDQ01  00002PRCP06
0280670730999992000010815004-18050+044030FM-12+0023FMMO V0200201N00411009901CN0350001N1+02821+02451100551ADDAA106000091GA1011+006009099GA2041+006009089GA3031+009909069GF107991061091008001001031KA1120M+03161MA1999999100292MD1310081+9999REMSYN106AAXX  08154 67073 32581 70208 10282 20245 30029 40055 53008 86903 333 10316 84820 81920 83633 94994 95814;EQDQ01+100293APOSP Q02  00002PRCP06
0273670730999992000010909004-18050+044030FM-12+0023FMMO V0203601N006210300019N0250001N1+02801+02431100741ADDAA106000091AY121031AY221031GA1011+006009099GA2041+006009089GA3061+030009049GF108991041091008001071081MA1999999100481MD1810011+9999MW1171REMSYN106AAXX  09094 67073 31575 83612 10280 20243 30048 40074 58001 71722 84978 333 84820 81920 86460 94966 95815;EQDQ01  00002PRCP06
0282670730999992000011003004-18050+044030FM-12+0023FMMO V0203601N006210300019N0200001N1+02501+99999100621ADDAA112000291AY191031AY261031GA1011+006009099GA2021+006009089GA3081+030009049GF108991021091008001071999MA1999999100361MD1310021+9999MW1171REMSYN134AAXX  10034 67073 21570 83612 10250 202/8 30036 40062 53002 71796 8297/ 333 69922 82820 81920 88460 94965 94966 95835 95836 555 81630;
0301670730999992000011015004-18050+044030FM-12+0023FMMO V02099999999990060019N0020001N1+02561+02361100561ADDAA106000791AY191031AY221031GA1021+001509079GA2011+006009099GA3031+006009089GA4061+009009069GF106991061091002501071999KA1120M+02781MA1999999100301MD1510011+9999MW1621REMSYN124AAXX  10154 67073 21320 612// 10256 20236 30030 40056 55001 76292 8697/ 333 10278 69971 82705 83820 81920 86630 94964 95814;
0272670730999992000011100004-18050+044030FM-12+0023FMMO V02099999999990300019N0020001N1+02471+02411100471ADDAA106016091AC11C9AY191061AY291061GA1011+005109099GA2041+005109089GA3061+030009049GF108991041091004501071999MA1999999100211MD1610101+9999MW1951REMSYN118AAXX  11004 67073 11420 8//// 10247 20241 30021 40047 56010 60161 79599 8497/ 333 0//11 84817 81917 86460 94994 95834;
0282670730999992000011103004-18050+044030FM-12+0023FMMO V0200201N004110087019N0040001N1+02541+02481100481ADDAA112041091AY191031AY221031GA1011+005109099GA2031+005109089GA3031+008709069GA4051+030009049GF108991051091004501071999MA1999999100221MD1310011+9999MW1951REMSYN118AAXX  11034 67073 21440 80208 10254 20248 30022 40048 53001 79592 8597/ 333 60412 83817 81917 83629 85460 94993 95873;
0274670730999992000011203004-18050+044030FM-12+0023FMMO V0203601N00311004201CN0150001N1+02451+99999100331ADDAA112036091AY161031AY261031GA1011+009909069GF108991051091004501071999MA1999999095071MD1310021+9999MW1151REMSYN158AAXX  12034 67073 21465 83606 10245 20/40 30507 40033 53002 71566 8597/ 333 60362 82707 85820 81920 94962 94963 94964 94965 95832 95833 95833 555 81633 83460;
0312670730999992000011209004-18050+044030FM-12+0023FMMO V0203601N00931006001CN0250001N1+02611+02511100261ADDAA106004091AY161031AY261031GA1031+003909079GA2021+006009099GA3041+006009089GA4081+030009049GF108991041091004501071999MA1999999100002MD1810101+9999MW1211OA149901541REMSYN118AAXX  12094 67073 21475 83618 10261 20251 30000 40026 58010 72166 8497/ 333 60041 83713 84820 82920 88460 91130 94979;EQDQ01+100003APOSP 
0301670730999992000011215004-18050+044030FM-12+0023FMMO V0203401N00621006001CN0080001N1+02511+02461100131ADDAA106011091AY191031AY261031GA1041+002109079GA2011+006009099GA3031+006009089GA4081+030009049GF108991041091004501071999KA1120M+02861MA1999999099871MD1610051+9999MW1911REMSYN124AAXX  12154 67073 21458 83412 10251 20246 39987 40013 56005 79196 8497/ 333 10286 60111 84707 83820 81920 88460 94961 95811;
0222670730999992000011300004-18050+044030FM-12+0023FMMO V0209999999999006001CN0150001N1+02621+02451100311ADDAA106018091AC11C9AY161061AY261061GA1031+006009089GF108991081081001501999999MA1999999100051MD1610041+9999MW1151REMSYN100AAXX  13004 67073 11265 8//// 10262 20245 30005 40031 56004 60181 71566 888// 333 0//11 83820 86625;
0260670730999992000011303004-18050+044030FM-12+0023FMMO V0203601N00621007501CN0200001N1+02671+02491100441ADDAA112018091AY121031AY221031GA1011+006009099GA2041+006009089GA3051+007509069GF108991081091008001999999MA1999999100181MD1310131+9999MW1151REMSYN112AAXX  13034 67073 21570 83612 10267 20249 30018 40044 53013 71522 889// 333 60182 84820 81920 85625 94991 95811;
0186670730999992000011315004-18050+044030FM-12+0023FMMO V0203601N005111050019N0300001N1+02781+02471100451ADDAA106000091GF107991041021008001001051KA1999M+03001MA1999999100191MD1310021+9999REMSYN076AAXX  13154 67073 32580 73610 10278 20247 30019 40045 53002 84205 333 10300;EQDQ01  00002PRCP06
0199670730999992000011409004-18050+044030FM-12+002399999V0203201N00721004201CN0350001N1+02971+02581100501ADDAA199000091GA1011+003009079GF106991061021004501001001MA1999999100241MD1810041+9999REMSYN086    AAXX  14094 67073 32481 63214 10297 20258 30024 40050 58004 86200 333 81710 86820;EQDQ01  00002PRCP99
0329670730999992000011412004-18050+044030FM-12+002399999V0203201N00771006001MN0150001N1+02931+02541100421ADDAA199000091AY121061AY221061GA1041+003009079GA2011+006009099GA3051+006009089GF105991051091004501001031MA1999999100161MD1710081+9999MW1151REMSYN162    AAXX  14124 67073 31465 53215 10293 20254 30016 40042 57008 71522 85903 333 0//00 84710 85820 81920 94964 94965 94966 94967 95834 95835 95836 95837 555 81073;EQDQ01  00002PRCP99
0214670730999992000011503004-18050+044030FM-12+002399999V0203001N00411012001CN0200001N1+02651+02551100621ADDAA112000991AY121031AY221031GA1031+006009089GF107991071081008001999999MA1999999100361MD1310121+9999MW1151REMSYN098    AAXX  15034 67073 21570 73008 10265 20255 30036 40062 53012 71522 878// 333 69992 83820 85630;
0344670730999992000011506004-18050+044030FM-12+002399999V0203201N00621009001CN0200001N1+02771+02531100801ADDAA124006191AY161061AY221061GA1011+006009099GA2041+006009089GA3041+009009069GF107991071091008001999999IA2240+02409KA1120M+03001KA2120N+02541MA1999999100541MD1110181+9999MW1151REMSYN158    AAXX  15064 67073 11570 73212 10277 20253 30054 40080 51018 60064 71562 879// 333 02419 10300 20254 50//4 55/// 84820 81920 84630 94992 94997 95812 95817;
0279670730999992000011512004-18050+044030FM-12+002399999V0203401N00511006001MN0300001N1+02291+99999100691ADDAA199000091GA1021+006009099GA2041+006009089GA3031+069009029GF107991061091008001001051MA1999999100431MD1810141+9999REMSYN134    AAXX  15124 67073 32580 73410 10229 20267 30043 40069 58014 86905 333 0//00 84820 82920 83273 94991 94994 94996 95811 95814 95816;EQDQ01  00002PRCP99
0282670730999992000011606004-18050+044030FM-12+002399999V0203001N00511006001MN0350001N1+02821+02511100971ADDAA124010991AC12C9AY161061AY261061GA1061+006009029GF106991061021008001001001IA2240+02309KA1120M+02991KA2120N+02431MA1999999100711MD1210141+9999MW1021REMSYN122    AAXX  16064 67073 11581 63010 10282 20251 30071 40097 52014 60114 70266 86200 333 02322 10299 20243 50//4 55/// 86820;
0271670730999992000011609004-18050+044030FM-12+002399999V0203001N00671069001MN0400001N1+02891+02391100901ADDAA199000091GA1011+006009099GA2041+006009089GA3081+069009029GF108991041091008001031071MA1999999100641MD1810071+9999REMSYN126    AAXX  16094 67073 32582 83013 10289 20239 30064 40090 58007 84937 333 84820 81920 88273 94945 94947 95835 95837 555 81360;EQDQ01  00002PRCP99
0288670730999992000011709004-18050+044030FM-12+002399999V0200201N00511009001CN0200001N1+02721+02611100921ADDAA106000791AY121031AY221031GA1011+006009099GA2041+006009089GA3031+009009069GF107991071091008001999999MA1999999100661MD1810021+9999MW1211REMSYN140    AAXX  17094 67073 21570 70210 10272 20261 30066 40092 58002 72122 879// 333 69971 84820 81920 83630 94991 94992 94994 95811 95812 95814;
0276670730999992000011712004-18050+044030FM-12+002399999V0203401N00511009001CN0200001N1+02931+02671100731ADDAA106001091AC11C9AY161061AY221061GA1011+006009099GA2041+006009089GA3041+009009069GF107991071091008001999999MA1999999100471MD1710191+9999MW1211REMSYN122    AAXX  17124 67073 11570 73410 10293 20267 30047 40073 57019 60011 72162 879// 333 0//11 84820 81920 84630 94998 95838;
0261670730999992000011715004-18050+044030FM-12+002399999V0200201N00461007501CN0200001N1+02651+99999100721ADDAA106003091AY161031AY221031GA1021+009009069GF107991061091008001001031KA1120M+02961MA1999999100461MD1510011+9999MW1151REMSYN132    AAXX  17154 67073 21570 70209 10265 28/55 30046 40072 55001 71562 86903 333 10296 60031 85820 81920 94998 95818 555 82630 82073;
0280670730999992000011806004-18050+044030FM-12+002399999V0203601N00511069001MN0400001N1+02771+02501101051ADDAA124004191GA1041+006909089GA2081+069009029GF108991041011008001031071IA2240+02309KA1120M+02961KA2120N+02361MA1999999100791MD1110131+9999REMSYN132    AAXX  18064 67073 12582 83610 10277 20250 30079 40105 51013 60044 84137 333 02329 10296 20236 50//4 55/// 84823 88273 555 81360;
0239670730999992000011809004-18050+044030FM-12+002399999V0203601N00461006901MN0400001N1+03061+02531100971ADDAA199000091GA1011+006909099GA2051+006909089GF108991051091008001031061MA1999999100711MD1610081+9999REMSYN110    AAXX  18094 67073 32582 83609 10306 20253 30071 40097 56008 85936 333 85823 81923 94965 94967 95835 95837;EQDQ01  00002PRCP99
0246670730999992000011815004-18050+044030FM-12+002399999V0203001N00411045001MN0400001N1+02861+02511100911ADDAA199000091GA1011+006909099GA2031+006909089GF105991031091008001031031KA1120M+03611MA1999999100681MD1310051+9999REMSYN104    AAXX  18154 67073 32582 53008 10286 20251 30068 40091 53005 83933 333 10361 83823 81923 94962 95812;EQDQ01  00002PRCP99
0218670730999992000011900004-18050+044030FM-12+002399999V0209999999999012001CN0300001N1+02511+02421101071ADDAA106004191AC12I9AY161061GA1031+006009089GF105991051081008001001001MA1999999100811MD1610081+9999MW1001REMSYN104    AAXX  19004 67073 11580 5//// 10251 20242 30081 40107 56008 60041 7006/ 85800 333 0//16 83820 83630;
0338670730999992000011906004-18050+044030FM-12+002399999V0200601N00261006001MN0100001N1+02571+02501101341ADDAA124026991AC11C9AY161061AY221061GA1011+006009099GA2051+006009089GA3031+009009069GF107991011091008001999999IA2240+02409KA1120M+03111KA2120N+02451MA1999999101081MD1110171+9999MW1951REMSYN146    AAXX  19064 67073 11560 70605 10257 20250 30108 40134 51017 60274 79562 819// 333 02411 10311 20245 50//4 55/// 85820 81920 83630 94993 95833;
0242670730999992000011909004-18050+044030FM-12+002399999V0203401N00511007501CN0350001N1+02981+02691101261ADDAA106999929AY191031AY221031GA1011+009009069GF106991051091008001001031MA1999999101001MD1810081+9999MW1011REMSYN126    AAXX  19094 67073 21581 63410 10298 20269 30100 40126 58008 70192 85903 333 69901 85820 81920 94994 95834 555 81630 81073;
0254670730999992000011912004-18050+044030FM-12+002399999V0203201N00461105001MN0400001N1+02901+02581101111ADDAA106000791AC12I9AY191061AY221061GA1011+006009099GA2041+006009089GF105991041091008001001031MA1999999100851MD1610151+9999MW1011REMSYN116    AAXX  19124 67073 11582 53209 10290 20258 30085 40111 56015 69901 70192 84903 333 0//16 84820 81920 94993 95833;
0256670730999992000012003004-18050+044030FM-12+0023FMMO V0200401N00151045001CN0200001N1+02541+02511101271ADDAA112000791AY161031AY261031GA1011+009009069GF107991041091008001031061MA1999999101011MD1310081+9999MW1211REMSYN140AAXX  20034 67073 21570 70403 10254 20251 30101 40127 53008 72166 84936 333 69972 84820 81920 86273 94962 94967 95832 95837 555 81630 81360;
0312670730999992000012006004-18050+044030FM-12+0023FMMO V0209999C00001007501CN0250001N1+02821+02681101381ADDAA124023191AC13C9AY161061AY261061GA1011+009909069GF106991061091008001001031IA2240+02409KA1120M+03031KA2120N+02531MA1999999101121MD1110111+9999MW1151REMSYN152AAXX  20064 67073 11575 60000 10282 20268 30112 40138 51011 60234 71566 86903 333 02413 10303 20253 50//4 55/// 84820 82920 94979 95839 555 81633 81073;
0236670730999992000012009004-18050+044030FM-12+0023FMMO V0202401N003110060019N0400001N1+02971+02621101321ADDAA199000021GA1011+006009099GA2051+006009089GA3081+069009029GF108991051091008001031071MA1999999101061MD1810061+9999REMSYN110AAXX  20094 67073 32582 82406 10297 20262 30106 40132 58006 85937 333 85820 81920 88273 94961 95831 555 81360;
0232670730999992000012012004-18050+044030FM-12+0023FMMO V0202201N004110690019N0400001N1+03021+02581101131ADDAA199000021GA1011+006909099GA2031+006909089GA3081+069009029GF108991031091008001001071MA1999999100871MD1710191+9999REMSYN106AAXX  20124 67073 32582 82208 10302 20258 30087 40113 57019 83907 333 0//00 83823 81923 88273 94963 95833;
0195670730999992000012103004-18050+044030FM-12+0023FMMO V0209999C00001105001CN0350001N1+02461+02371101171ADDAA199000091GA1021+006009089GF108991021021008001001071MA1999999100911MD1310071+9999REMSYN082AAXX  21034 67073 32581 80000 10246 20237 30091 40117 53007 82207 333 82820 88275;EQDQ01  00002PRCP99
0263670730999992000012106004-18050+044030FM-12+0023FMMO V0200201N00211105001CN0400001N1+02771+02561101251ADDAA199000091GA1021+006009089GF107991021021008001001051IA2240+02409KA1120M+03071KA2120N+02461MA1999999100991MD1110081+9999REMSYN112AAXX  21064 67073 32582 70204 10277 20256 30099 40125 51008 82205 333 02400 10307 20246 50//4 55/// 82820 86873;EQDQ01  00002PRCP99
0195670730999992000012109004-18050+044030FM-12+0023FMMO V0203001N00311105001CN0400001N1+03091+02581101121ADDAA199000091GA1021+006909089GF107991021021008001001051MA1999999100861MD1810131+9999REMSYN082AAXX  21094 67073 32582 73006 10309 20258 30086 40112 58013 82205 333 82823 86273;EQDQ01  00002PRCP99
0251670730999992000012112004-18050+044030FM-12+0023FMMO V0203401N003110690019N0400001N1+02991+02591100971ADDAA199000091GA1011+006909099GA2031+006909089GA3041+069009029GF106991031091008001001051MA1999999100711MD1710151+9999REMSYN106AAXX  21124 67073 32582 63406 10299 20259 30071 40097 57015 83905 333 0//00 83823 81923 84273 94992 95812;EQDQ01  00002PRCP99
0264670730999992000012115004-18050+044030FM-12+0023FMMO V0203001N003110690019N0350001N1+02881+02571101021ADDAA199000091GA1011+006909099GA2031+006909089GA3041+069009029GF106991031091008001001051KA1120M+03121MA1999999100761MD1310051+9999REMSYN106AAXX  21154 67073 32581 63006 10288 20257 30076 40102 53005 83905 333 10312 83823 81923 84273 94992 95812;EQDQ01  00002PRCP99
0245670730999992000012203004-18050+044030FM-12+0023FMMO V0209999C000010690019N0350001N1+02431+02341101171ADDAA199000091GA1011+006009099GA2021+006009089GA3041+069009009GF105991021091008001001021MA1999999100911MD1310071+9999REMSYN100AAXX  22034 67073 32581 50000 10243 20234 30091 40117 53007 82902 333 82820 81920 84073 94991 95811;EQDQ01  00002PRCP99
0263670730999992000012206004-18050+044030FM-12+0023FMMO V0200201N00511105001CN0400001N1+02931+02521101181ADDAA199000091GA1031+006009089GF105991031021008001001021IA2240+02309KA1120M+03121KA2120N+02431MA1999999100921MD1110011+9999REMSYN112AAXX  22064 67073 32582 50210 10293 20252 30092 40118 51001 83202 333 02300 10312 20243 50//4 55/// 83820 83073;EQDQ01  00002PRCP99
0195670730999992000012209004-18050+044030FM-12+0023FMMO V0203201N00621105001CN0400001N1+03081+02551101151ADDAA199000091GA1031+006909089GF105991031021008001001021MA1999999100891MD1810031+9999REMSYN082AAXX  22094 67073 32582 53212 10308 20255 30089 40115 58003 83202 333 83823 83073;EQDQ01  00002PRCP99
0251670730999992000012212004-18050+044030FM-12+0023FMMO V0203601N006210690019N0400001N1+03031+02571101041ADDAA199000091GA1011+006909099GA2031+006909089GA3031+069009009GF105991031091008001001021MA1999999100771MD1610111+9999REMSYN106AAXX  22124 67073 32582 53612 10303 20257 30077 40104 56011 83902 333 0//00 83823 81923 83073 94993 95813;EQDQ01  00002PRCP99
0264670730999992000012215004-18050+044030FM-12+0023FMMO V0203401N004110690019N0350001N1+02851+02591101101ADDAA199000091GA1011+006009099GA2041+006009089GA3031+069009009GF106991041091008001001021KA1120M+03131MA1999999100841MD1310061+9999REMSYN106AAXX  22154 67073 32581 63408 10285 20259 30084 40110 53006 84902 333 10313 84820 81920 83073 94992 95812;EQDQ01  00002PRCP99
0257670730999992000012300004-18050+044030FM-12+0023FMMO V0200601N001510690019N0400001N1+02371+02261101191ADDAA199000091GA1011+006009099GA2011+006009089GA3061+069009029GF106991011091008001031081MA1999999100931MD1310021+9999REMSYN112AAXX  23004 67073 32582 60603 10237 20226 30093 40119 53002 81938 333 81820 81920 86273 94961 94967 95811 95817;EQDQ01  00002PRCP99
0313670730999992000012306004-18050+044030FM-12+0023FMMO V0203601N001510690019N0400001N1+02881+02331101241ADDAA199000091GA1011+006009099GA2011+006009089GA3051+069009029GF105991011091008001001081IA2240+02209KA1120M+03131KA2120N+02341MA1999999100991MD1010051+9999REMSYN130AAXX  23064 67073 32582 53603 10288 20233 30099 40124 50005 81908 333 02200 10313 20234 50//4 55/// 81820 81920 85273 94968 95818;EQDQ01  00002PRCP99
0195670730999992000012309004-18050+044030FM-12+0023FMMO V0202601N00411045001CN0400001N1+02971+02431101171ADDAA199000091GA1031+006909089GF106991031021008001031081MA1999999100911MD1710071+9999REMSYN082AAXX  23094 67073 32582 62608 10297 20243 30091 40117 57007 83238 333 83823 86273;EQDQ01  00002PRCP99
0281670730999992000012312004-18050+044030FM-12+0023FMMO V0202601N004110690019N0400001N1+03041+02561101021ADDAA199000091GA1011+006909099GA2031+006909089GA3081+069009029GF108991031091008001061071MA1999999100761MD1710151+9999REMSYN136AAXX  23124 67073 32582 82608 10304 20256 30076 40102 57015 83967 333 0//00 83823 81923 88273 94961 94962 94963 94968 95831 95832 95833;EQDQ01  00002PRCP99
0288670730999992000012315004-18050+044030FM-12+0023FMMO V0202201N002610069019N0350001N1+02901+02561101031ADDAA199000091GA1011+006909099GA2051+006909089GF108991051091008001001081KA1120M+03081MA1999999100771MD1310011+9999REMSYN146AAXX  23154 67073 32581 82205 10290 20256 30077 40103 53001 85908 333 10308 85823 81923 94961 94962 94963 94967 95831 95832 95833 95837 555 83273;EQDQ01  00002PRCP99
0249670730999992000012400004-18050+044030FM-12+0023FMMO V0209999999999009001CN0250001N1+02521+02421101151ADDAA199000091GA1021+006009089GA2031+009009069GA3081+069009029GF108991031081008001031071MA1999999100891MD1710141+9999REMSYN104AAXX  24004 67073 33575 8//// 10252 20242 30089 40115 57014 83837 333 0//00 82820 83630 88273 555 81360;EQDQ01  00002PRCP99
0241670730999992000012403004-18050+044030FM-12+0023FMMO V0209999C00001045001CN0350001N1+02501+02421101191ADDAA199000091GA1011+009009069GF108991021091008001031071MA1999999100931MD1310041+9999REMSYN128AAXX  24034 67073 32581 80000 10250 20242 30093 40119 53004 82937 333 82820 81920 88273 94915 94917 95815 95817 555 81630 81360;EQDQ01  00002PRCP99
0323670730999992000012406004-18050+044030FM-12+0023FMMO V0202401N002610690019N0400001N1+02901+02441101191ADDAA199000091GA1011+006009099GA2011+006009089GA3081+069009029GF108991011091008001031071IA2240+02409KA1120M+03081KA2120N+02481MA1999999100931MD1410001+9999REMSYN140AAXX  24064 67073 32582 82405 10290 20244 30093 40119 54000 81937 333 02400 10308 20248 50//4 55/// 81820 81920 88273 94967 95817 555 81360;EQDQ01  00002PRCP99
0267670730999992000012409004-18050+044030FM-12+0023FMMO V0202401N00261007501CN0400001N1+03081+02551101171ADDAA199000091GA1041+006909089GA2011+007509099GA3081+069009029GF108991041091008001031071MA1999999100911MD1810021+9999REMSYN122AAXX  24094 67073 32582 82405 10308 20255 30091 40117 58002 84937 333 84823 81925 88273 94966 94967 95816 95817 555 81369;EQDQ01  00002PRCP99
0315670730999992000012412004-18050+044030FM-12+0023FMMO V0202401N004110690019N0200001N1+03101+02601101031ADDAA199000091AY191061AY221061GA1011+006009099GA2041+006009089GA3081+069009029GF108991041091008001061071MA1999999100771MD1710141+9999MW1171REMSYN148AAXX  24124 67073 31570 82408 10310 20260 30077 40103 57014 71792 84967 333 0//00 84820 81920 88273 94961 94962 94963 94967 95831 95832 95833 95837;EQDQ01  00002PRCP99
0318670730999992000012415004-18050+044030FM-12+0023FMMO V0202201N003110060019N0250001N1+02941+02581101061ADDAA199000091AY191031AY291031GA1011+006009099GA2051+006009089GF108991051091008001061081KA1120M+03171MA1999999100801MD1310031+9999MW1291REMSYN154AAXX  24154 67073 31575 82206 10294 20258 30080 40106 53003 72999 85968 333 10317 85820 81920 94961 94962 94963 94964 94967 94961 95811 95812 95813 95814;EQDQ01  00002PRCP99
0201670730999992000012500004-18050+044030FM-12+0023FMMO V02099999999992200019N0300001N1+02641+02571101141ADDAA199000091GA1021+006009089GF103991021021008001001021MA1999999100881MD1610041+9999REMSYN088AAXX  25004 67073 33580 3//// 10264 20257 30088 40114 56004 82202 333 0//00 82820 82073;EQDQ01  00002PRCP99
0223670730999992000012503004-18050+044030FM-12+0023FMMO V0209999C000011050019N0350001N1+02541+02491101221ADDAA199000091GA1011+006009099GA2031+006009089GF105991031091008001001021MA1999999100961MD1310081+9999REMSYN094AAXX  25034 67073 32581 50000 10254 20249 30096 40122 53008 83902 333 83820 81920 94998 95818;EQDQ01  00002PRCP99
0257670730999992000012506004-18050+044030FM-12+0023FMMO V0209999C000012200019N0400001N1+02981+02591101231ADDAA199000091GA1031+006909029GF104991031021008001001021IA2240+02409KA1120M+03171KA2120N+02541MA1999999100971MD1010011+9999REMSYN106AAXX  25064 67073 32582 40000 10298 20259 30097 40123 50001 83202 333 02400 10317 20254 50//4 55/// 83823;EQDQ01  00002PRCP99
0189670730999992000012509004-18050+044030FM-12+0023FMMO V0202401N005112200019N0400001N1+03071+02611101201ADDAA199000091GA1031+006909029GF104991031021008001001021MA1999999100941MD1810031+9999REMSYN076AAXX  25094 67073 32582 42410 10307 20261 30094 40120 58003 83202 333 83823;EQDQ01  00002PRCP99
0267670730999992000012512004-18050+044030FM-12+0023FMMO V0202601N005111050019N0300001N1+03081+02551101011ADDAA199000091AY191061AY211061GA1011+006909099GA2031+006909089GF105991041091008001001031MA1999999100751MD1610191+9999MW1171REMSYN116AAXX  25124 67073 31580 52610 10308 20255 30075 40101 56019 71791 84903 333 0//00 83823 81923 94992 95832 555 82073;EQDQ01  00002PRCP99
0270670730999992000012515004-18050+044030FM-12+0023FMMO V0202601N003110060019N0300001N1+02941+02581101051ADDAA199000091AY191031AY221031GA1011+006009099GA2061+006009089GF106991061091008001001001KA1120M+03181MA1999999100791MD1310041+9999MW1021REMSYN106AAXX  25154 67073 31580 62606 10294 20258 30079 40105 53004 70292 86900 333 10318 81920 86820 94992 95812;EQDQ01  00002PRCP99
0227670730999992000012600004-18050+044030FM-12+0023FMMO V02099999999990690019N0250001N1+02511+02441101071ADDAA199000091GA1031+006009089GA2051+069009029GF105991031081008001001061MA1999999100811MD1610051+9999REMSYN098AAXX  26004 67073 33575 5//// 10251 20244 30081 40107 56005 83806 333 0//00 83820 85273 555 81633;EQDQ01  00002PRCP99
0241670730999992000012603004-18050+044030FM-12+0023FMMO V0209999C00001045001CN0350001N1+02461+02401101111ADDAA199000091GA1011+009909069GF108991031091008001031071MA1999999100851MD1310041+9999REMSYN128AAXX  26034 67073 32581 80000 10246 20240 30085 40111 53004 83937 333 82820 81920 88273 94961 94868 95811 95818 555 81633 81360;EQDQ01  00002PRCP99
0195670730999992000012609004-18050+044030FM-12+0023FMMO V0202401N00411105001CN0400001N1+03091+02541101041ADDAA199000091GA1031+006909089GF108991031021008001001081MA1999999100781MD1710121+9999REMSYN082AAXX  26094 67073 32582 82408 10309 20254 30078 40104 57012 83208 333 83823 86273;EQDQ01  00002PRCP99
0303670730999992000012612004-18050+044030FM-12+0023FMMO V0202401N005710690019N0250001N1+03101+02571100821ADDAA199000091AY191061AY221061GA1011+006909099GA2021+006909089GA3081+069009029GF108991021091008001061071MA1999999100561MD1710221+9999MW1171REMSYN136AAXX  26124 67073 31575 82411 10310 20257 30056 40082 57022 71792 82967 333 0//00 82823 81923 88273 94961 94962 94963 95831 95832 95833;EQDQ01  00002PRCP99
0304670730999992000012615004-18050+044030FM-12+0023FMMO V0202201N002110690019N0300001N1+03011+02601100831ADDAA199000091AY191031AY291031GA1011+006009099GA2031+006009089GA3051+069009029GF105991031091008001061081KA1120M+03191MA1999999100571MD1310011+9999MW1291REMSYN124AAXX  26154 67073 31580 52204 10301 20260 30057 40083 53001 72999 83968 333 10319 83820 81920 85273 94962 94963 95812 95813;EQDQ01  00002PRCP99
0195670730999992000012700004-18050+044030FM-12+0023FMMO V02099999999992200019N0300001N1+02551+02481100941ADDAA199000091GA1021+006009029GF102991021021008001001001MA1999999100681MD1610131+9999REMSYN082AAXX  27004 67073 33580 2//// 10255 20248 30068 40094 56013 82200 333 0//00 82820;EQDQ01  00002PRCP99
0189670730999992000012703004-18050+044030FM-12+0023FMMO V0200801N001512200019N0350001N1+02431+02361100981ADDAA199000091GA1031+006009029GF104991031021008001031021MA1999999100721MD1310041+9999REMSYN076AAXX  27034 67073 32581 40803 10243 20236 30072 40098 53004 83232 333 83820;EQDQ01  00002PRCP99
0189670730999992000012709004-18050+044030FM-12+0023FMMO V0203201N004612200019N0400001N1+03151+02521100931ADDAA199000091GA1031+006909029GF103991031021008001001021MA1999999100671MD1810111+9999REMSYN076AAXX  27094 67073 32582 33209 10315 20252 30067 40093 58011 83202 333 83823;EQDQ01  00002PRCP99
0251670730999992000012712004-18050+044030FM-12+0023FMMO V0203401N006210690019N0350001N1+03101+02571100771ADDAA199000091GA1011+006909099GA2041+006909089GA3031+069009029GF106991041091008001001051MA1999999100511MD1510161+9999REMSYN106AAXX  27124 67073 32581 63412 10310 20257 30051 40077 55016 84905 333 0//00 84823 81923 83273 94992 95832;EQDQ01  00002PRCP99
0252670730999992000012715004-18050+044030FM-12+0023FMMO V0203201N003110060019N0300001N1+02901+02621100901ADDAA199000091GA1011+006009099GA2061+006009089GF107991061091008001001031KA1120M+03201MA1999999100641MD1310131+9999REMSYN110AAXX  27154 67073 32580 73206 10290 20262 30064 40090 53013 86903 333 10320 86820 81920 94992 95812 555 82073;EQDQ01  00002PRCP99
0205670730999992000012800004-18050+044030FM-12+0023FMMO V02099999999992200019N0250001N1+02471+02411100891ADDAA199000091GA1021+006009089GF102991021081008001001001MA1999999100631MD1610091+9999REMSYN092AAXX  28004 67073 33575 2//// 10247 20241 30063 40089 56009 82800 333 0//00 82820 555 81630;EQDQ01  00002PRCP99
0215670730999992000012803004-18050+044030FM-12+0023FMMO V0200401N002110450019N0350001N1+02411+02351100941ADDGA1031+009909069GA2011+030009039GF105991041091004501031031MA1999999100681MD1310051+9999REMSYN116AAXX  28034 67073 25481 50404 10241 20235 30068 40094 53005 84933 333 83820 81920 94967 95817 555 83633 81360 81073;
0199670730999992000012809004-18050+044030FM-12+0023FMMO V0202601N004112200019N0400001N1+03111+02561100831ADDAA199000091GA1021+006909089GF102991021021008001001021MA1999999100571MD1710141+9999REMSYN086AAXX  28094 67073 32582 22608 10311 20256 30057 40083 57014 82202 333 82823 555 81073;EQDQ01  00002PRCP99
0281670730999992000012812004-18050+044030FM-12+0023FMMO V0202801N005112200019N0250001N1+03111+02521100681ADDAA199000091AY191061AY201061GA1011+006909099GA2021+006909089GF103991021091008001001031MA1999999100421MD1710151+9999MW1171REMSYN130AAXX  28124 67073 31575 32810 10311 20252 30042 40068 57015 71790 82903 333 0//00 82823 81923 94961 94962 94963 95831 95832 95833;EQDQ01  00002PRCP99
0294670730999992000012815004-18050+044030FM-12+0023FMMO V0202601N004112200019N0250001N1+03031+02561100681ADDAA199000091AY191031AY291031GA1011+006009099GA2021+006009089GF103991021091008001061031KA1120M+03181MA1999999100421MD1410001+9999MW1151REMSYN130AAXX  28154 67073 31575 32608 10303 20256 30042 40068 54000 71599 82963 333 10318 82820 81920 94961 94962 94963 95831 95832 95833;EQDQ01  00002PRCP99
0201670730999992000012900004-18050+044030FM-12+0023FMMO V0209999999999045001CN0300001N1+02571+02311100791ADDAA199000091GA1011+006009089GF105991011021008001031001MA1999999100531MD1610041+9999REMSYN088AAXX  29004 67073 33580 5//// 10257 20231 30053 40079 56004 81230 333 0//00 81820 85360;EQDQ01  00002PRCP99
0223670730999992000012903004-18050+044030FM-12+0023FMMO V0201001N002110060019N0300001N1+02551+02451100891ADDAA199000091GA1011+006009099GA2041+006009089GF106991061091008001001021MA1999999100631MD1310101+9999REMSYN094AAXX  29034 67073 32580 61004 10255 20245 30063 40089 53010 86902 333 84820 81920 94991 95811;EQDQ01  00002PRCP99
0256670730999992000012906004-18050+044030FM-12+0023FMMO V0200801N003612200019N0400001N1+03011+02521100971ADDAA199000091GA1041+006909029GF104991041021008001031001IA2240+02509KA1999M+03181KA2999N+02511MA1999999100711MD1110081+9999REMSYN105AAXX  29064 67073 32582 40807 10301 20252 30071 40097 51008 84230 333 02500 1031820251 50//4 55/// 84823;EQDQ01  00002PRCP99
0189670730999992000012909004-18050+044030FM-12+0023FMMO V0203401N003110069019N0400001N1+03221+02671100841ADDAA199000091GA1051+006909029GF105991051021008001001001MA1999999100581MD1810131+9999REMSYN076AAXX  29094 67073 32582 53406 10322 20267 30058 40084 58013 85200 333 85823;EQDQ01  00002PRCP99
0253670730999992000012912004-18050+044030FM-12+0023FMMO V0203001N004112200019N0300001N1+03201+02651100621ADDAA199000091GA1011+006909099GA2041+006909089GF104991041091008001001001MA1999999100361MD1610221+9999REMSYN124AAXX  29124 67073 32580 43008 10320 20265 30036 40062 56022 84900 333 0//00 84823 81923 94991 94992 94993 95811 95812 95813;EQDQ01  00002PRCP99
0270670730999992000012915004-18050+044030FM-12+0023FMMO V0202801N003112200019N0300001N1+03061+02621100661ADDAA199000091AY191031AY201031GA1011+006009099GA2041+006009089GF104991041091008001001001KA1120M+03271MA1999999100401MD1310041+9999MW1021REMSYN106AAXX  29154 67073 31580 42806 10306 20262 30040 40066 53004 70290 84900 333 10327 84820 81920 94991 95811;EQDQ01  00002PRCP99
0241670730999992000013000004-18050+044030FM-12+0023FMMO V0209999999999007501CN0250001N1+02781+02521100791ADDAA199000091GA1011+006009099GF105991051091008001001001MA1999999100531MD1610071+9999MW1131REMSYN122AAXX  30004 67073 31575 5//// 10278 20252 30053 40079 56007 713// 85900 333 0//00 85820 555 81920 94962 94963 95812 95813;EQDQ01  00002PRCP99
0235670730999992000013003004-18050+044030FM-12+0023FMMO V0200401N001012200019N0300001N1+02581+02491100881ADDAA199000091GA1011+009009069GF104991041091008001001031MA1999999100621MD1310091+9999REMSYN122AAXX  30034 67073 32580 40402 10258 20249 30062 40088 53009 84903 333 84820 81920 94962 94967 95812 95817 555 81630 81073;EQDQ01  00002PRCP99
0301670730999992000013006004-18050+044030FM-12+0023FMMO V0200201N002112200019N0150001N1+03031+02601100781ADDAA199000091AY111061AY211061GA1051+006009029GF199999051021008001001001IA2240+02509KA1120M+03271KA2120N+02571MA1999999100521MD1810101+9999MW1151REMSYN112AAXX  30064 67073 31565 30204 10303 20260 30052 40078 58010 71511 85200 333 02500 10327 20257 50//4 55/// 85820;EQDQ01+000032SCOTCVQ02  00002PRCP99
0272670730999992000013009004-18050+044030FM-12+0023FMMO V0203001N007212200019N0250001N1+03141+02601100861ADDAA106002091AY181031AY211031GA1011+006009099GA2041+006009089GF104991041091008001031001MA1999999100601MD1410001+9999MW1151REMSYN140AAXX  30094 67073 21575 43014 10314 20260 30060 40086 54000 71581 84930 333 60021 84820 81920 94961 94962 94968 95831 95832 95838 555 81360;
0242670730999992000013015004-18050+044030FM-12+0023FMMO V0203001N005112200019N0350001N1+03041+02651100721ADDAA199000091GA1011+006009099GA2041+006009089GF104991041091008001001031KA1120M+03191MA1999999100461MD1310011+9999REMSYN100AAXX  30154 67073 32581 43010 10304 20265 30046 40072 53001 84903 333 10319 84820 81920 94962 95812;EQDQ01  00002PRCP99
0222670730999992000013100004-18050+044030FM-12+0023FMMO V0209999999999012001CN0300001N1+02561+02501100901ADDAA106009991AC13C9AY161061AY261061GA1041+006009089GF106991061081008001001001MA1999999100641MD1610101+9999MW1001REMSYN100AAXX  31004 67073 11580 6//// 10256 20250 30064 40090 56010 60101 70066 86800 333 0//13 84820 83629;
0272670730999992000013103004-18050+044030FM-12+0023FMMO V0203601N00361008701CN0050001N1+02651+02611101041ADDAA112012091AY191031AY221031GA1011+006009099GA2041+006009089GA3041+008709069GF107991071091008001999999MA1999999100781MD1310141+9999MW1951REMSYN124AAXX  31034 67073 21550 73607 10265 20261 30078 40104 53014 79592 879// 333 60122 84820 81920 84629 94992 94997 95832 95837;
0340670730999992000013106004-18050+044030FM-12+0023FMMO V0200801N00211008401CN0080001N1+02501+02441101211ADDAA124034091AC11C9AY191061AY261061GA1011+006009099GA2041+006009089GA3041+008409069GF107991071091008001999999IA2240+02309KA1120M+03191KA2120N+02461MA1999999100951MD1110171+9999MW1951REMSYN148AAXX  31064 67073 11558 70804 10250 20244 30095 40121 51017 60344 79596 879// 333 02311 10319 20246 50//4 55/// 84820 81920 84628 94997 94998 95838;
0294670730999992000013109004-18050+044030FM-12+0023FMMO V0200201N004110090019N0350001N1+02761+02531101201ADDAA106003091AY191031AY261031GA1011+006009099GA2031+006009089GA3031+009009069GA4031+069009029GF107991061091008001001051MA1999999100941MD1810011+9999MW1011REMSYN130AAXX  31094 67073 21581 70208 10276 20253 30094 40120 58001 70196 86905 333 60031 83820 81920 83630 83273 94992 94996 95812 95816;
0284670730999992000013112004-18050+044030FM-12+0023FMMO V0200201N00621008101CN0100001N1+03001+02581101101ADDAA106003091AC11C9AY191061AY261061GA1011+006009099GA2041+006009089GA3051+008109069GF108991081091008001999999MA1999999100841MD1610101+9999MW1951REMSYN130AAXX  31124 67073 11560 80212 10300 20258 30084 40110 56010 60031 79596 889// 333 0//11 84820 81920 85627 94993 94995 95813 95815;
0291670730999992000013115004-18050+044030FM-12+0023FMMO V0200201N004110087019N0200001N1+02731+02551101071ADDAA106003091AY191031AY201031GA1011+006009099GA2031+006009089GA3051+008709069GF107991071091008001999999KA1120M+03051MA1999999100811MD1510031+9999MW1151REMSYN130AAXX  31154 67073 21570 70208 10273 20255 30081 40107 55003 71590 879// 333 10305 60031 83820 81920 85629 94991 94996 95811 95816;
0208670730999992000020100004-18050+044030FM-12+0023FMMO V02099999999990099019N0250001N1+02441+02351101121ADDAA199000021GA1021+006009089GA2031+009909069GF105991051081008001001021MA1999999100861MD1610111+9999REMSYN098AAXX  01004 67073 33575 5//// 10244 20235 30086 40112 56011 85802 333 0//00 82820 83633 555 82073;
0285670730999992000020103004-18050+044030FM-12+0023FMMO V0200201N00571007501CN0200001N1+02421+02301101141ADDAA199000091AY121031GA1011+030009039GF108991051091008001031031MA1999999100881MD1310021+9999MW1171REMSYN158AAXX  01034 67073 31570 80211 10242 20230 30088 40114 53002 7172/ 85933 333 82820 81920 83633 94965 94966 94967 94968 95815 95816 95817 95818 555 81360 82073;EQDQ01  00002PRCP99
0358670730999992000020106004-18050+044030FM-12+0023FMMO V0200401N00621007501CN0200001N1+02791+02461101261ADDAA124010991AY191061AY221061GA1021+009909069GA2011+030009039GF108991051091008001031081IA2240+02309KA1120M+03051KA2120N+02401MA1999999101001MD1210121+9999MW1171REMSYN188AAXX  01064 67073 11570 80412 10279 20246 30100 40126 52012 60114 71792 85938 333 02329 10305 20240 50//4 55/// 84820 81920 94965 94966 94967 94968 95816 95817 95818 555 82633 81360 83273;
0284670730999992000020109004-18050+044030FM-12+0023FMMO V0203601N006210060019N0250001N1+02841+02441101261ADDAA106003091AY191031AY291031GA1011+006009099GA2061+006009089GF107991071091008001999999MA1999999101001MD1410001+9999MW1151REMSYN152AAXX  01094 67073 21575 73612 10284 20244 30100 40126 54000 71599 879// 333 60031 86820 81920 94965 94966 94967 94968 95835 95836 95837 95838 555 82630;
0272670730999992000020112004-18050+044030FM-12+0023FMMO V0203201N005110300019N0300001N1+02851+02451101121ADDAA106003091AC11I9AY191061AY221061GA1021+006009099GA2041+006009089GA3051+030009049GF108991041091008001071061MA1999999100861MD1710141+9999MW1031REMSYN118AAXX  01124 67073 11580 83210 10285 20245 30086 40112 57014 60031 70392 84976 333 0//25 84820 82920 85460 94959 95839;
0300670730999992000020115004-18050+044030FM-12+0023FMMO V0203201N004110300019N0300001N1+02641+02441101061ADDAA199000091GA1011+006009099GA2021+006009089GA3061+030009049GF108991021091008001071031KA1120M+02941MA1999999100801MD1510061+9999REMSYN142AAXX  01154 67073 32580 83208 10264 20244 30080 40106 55006 82973 333 10294 82820 81920 86460 94961 94966 94967 94968 95811 95816 95817 95818;EQDQ01  00002PRCP99
0195670730999992000020200004-18050+044030FM-12+0023FMMO V02099999999992200019N0300001N1+02431+02361101101ADDAA199000091GA1031+006009029GF103991031081008001001001MA1999999100841MD1610181+9999REMSYN082AAXX  02004 67073 33580 3//// 10243 20236 30084 40110 56018 83800 333 0//00 83820;EQDQ01  00002PRCP99
0223670730999992000020203004-18050+044030FM-12+0023FMMO V0201001N00211007501CN0300001N1+02411+02341101121ADDAA199000091GA1011+006009099GA2031+006009089GF106991051091008001001021MA1999999100861MD1310021+9999REMSYN094AAXX  02034 67073 32580 61004 10241 20234 30086 40112 53002 85902 333 83820 81920 94996 95816;EQDQ01  00002PRCP99
0278670730999992000020206004-18050+044030FM-12+0023FMMO V0200801N003110060019N0400001N1+02931+02521101231ADDAA124003091GA1011+006009099GA2061+006009089GF106991061091008001001001IA2240+02409KA1120M+02941KA2120N+02381MA1999999100971MD1010111+9999REMSYN130AAXX  02064 67073 12582 60806 10293 20252 30097 40123 50011 60034 86900 333 02419 10294 20238 50//4 55/// 86820 81920 94996 95816;
0257670730999992000020209004-18050+044030FM-12+0023FMMO V0203601N003110060019N0400001N1+03131+02651101071ADDAA199000091GA1011+006009099GA2061+006009089GA3031+069009029GF107991061091008001001051MA1999999100811MD1810161+9999REMSYN112AAXX  02094 67073 32582 73606 10313 20265 30081 40107 58016 86905 333 86820 81920 83273 94993 94995 95813 95815;EQDQ01  00002PRCP99
0263670730999992000020212004-18050+044030FM-12+0023FMMO V0202801N00361045001CN0200001N1+02941+02611100871ADDAA199000091AY191061AY221061GA1011+009909069GF107991041091008001071051MA1999999100611MD1610201+9999MW1171REMSYN128AAXX  02124 67073 31570 72807 10294 20261 30061 40087 56020 71792 84975 333 0//00 84820 81920 83273 94992 95832 555 81633 82360;EQDQ01  00002PRCP99
0338670730999992000020215004-18050+044030FM-12+0023FMMO V0200201N00261009001CN0150001N1+02741+02541100941ADDAA199000091AY191031AY221031GA1011+006009099GA2041+006009089GA3031+009009069GA4031+069009029GF107991051091008001001051KA1120M+03171MA1999999100681MD1310071+9999MW1151REMSYN142AAXX  02154 67073 31565 70205 10274 20254 30068 40094 53007 71592 85905 333 10317 84820 81920 83630 83273 94991 94993 94995 95811 95813 95835;EQDQ01  00002PRCP99
0206670730999992000020300004-18050+044030FM-12+0023FMMO V0209999999999045001CN0200001N1+02461+02321101051ADDAA106004191AC12I9GA1021+009009069GF108991021051008001071999MA1999999100891MD1310031+9999MW1151REMSYN100AAXX  03004 67073 11570 8//// 10246 20232 30089 40105 53003 60041 715// 8257/ 333 0//26 82630 88460;
0390670730999992000020306004-18050+044030FM-12+0023FMMO V0200401N004110450019N0200001N1+02381+02361101201ADDAA124023991AC11C9AY161061AY261061GA1011+003009079GA2011+006009099GA3021+006009089GA4031+009909069GF106991031091004501071031IA2240+02109KA1120M+03171KA2120N+02291MA1999999100941MD1010021+9999MW1211REMSYN182AAXX  03064 67073 11470 60408 10238 20236 30094 40120 50002 60244 72166 83973 333 02111 10317 20229 5///4 55/// 81710 82820 81920 83633 94965 94966 94967 95815 95816 95817 555 81073;
0250670730999992000020309004-18050+044030FM-12+0023FMMO V0203601N00771045001CN0200001N1+02871+02441101081ADDAA199000021AY121031AY221031GA1011+009009069GF108991021091008001071061MA1999999100821MD1710121+9999MW1151REMSYN134AAXX  03094 67073 31570 83615 10287 20244 30082 40108 57012 71522 82976 333 82820 81920 85460 94966 94967 95836 95837 555 81630 83273;
0278670730999992000020312004-18050+044030FM-12+0023FMMO V0203201N007710300019N0200001N1+03001+02491100921ADDAA199000021AY121061AY221061GA1011+006009099GA2031+006009089GA3041+030009039GF105991031091008001061031MA1999999100661MD1710161+9999MW1151REMSYN130AAXX  03124 67073 31570 53215 10300 20249 30066 40092 57016 71522 83963 333 0//00 83820 81920 84360 94961 94962 94963 94968 95832;
0297670730999992000020315004-18050+044030FM-12+0023FMMO V0203601N003610690019N0200001N1+02701+02441100921ADDAA199000021AY191031AY221031GA1011+006009099GA2031+006009089GA3081+069009029GF108991031091008001061071KA1120M+03071MA1999999100671MD1410001+9999MW1171REMSYN136AAXX  03154 67073 31570 83607 10270 20244 30067 40092 54000 71792 83967 333 10307 83820 81920 88273 94961 94963 94968 95811 95813 95818;
0214670730999992000020400004-18050+044030FM-12+0023FMMO V0209999999999012001CN0300001N1+02521+02481101121ADDAA106000891AC11C9AY161061GA1011+006009089GF105991051081008001001001MA1999999100861MD1610071+9999MW1001REMSYN100AAXX  04004 67073 11580 5//07 10252 20248 30086 40112 56007 69971 7006/ 85800 333 0//11 81820 85630;
0260670730999992000020403004-18050+044030FM-12+0023FMMO V0201001N004110090019N0200001N1+02361+02301101161ADDAA112000791AY121031AY221031GA1011+006009099GA2021+006009089GA3051+009009069GF106991061091008001001001MA1999999100901MD1110041+9999MW1151REMSYN112AAXX  04034 67073 21570 61008 10236 20230 30090 40116 51004 71522 86900 333 69972 82820 81920 85630 94998 95818;
0284670730999992000020406004-18050+044030FM-12+0023FMMO V0200201N004112200019N0400001N1+02841+02351101261ADDAA124000891AC13I9GA1011+006009099GA2021+006009089GF103991021091008001031021IA2240+02309KA1120M+03071KA2120N+02361MA1999999101001MD1010101+9999REMSYN130AAXX  04064 67073 12582 30208 10284 20235 30100 40126 50010 69974 82932 333 02317 10307 20236 50//4 55/// 82820 81920 94997 95817;
0223670730999992000020409004-18050+044030FM-12+0023FMMO V0200201N007712200019N0400001N1+03171+02361101191ADDAA199000091GA1011+006909099GA2041+006909089GF104991041091008001001001MA1999999100931MD1810071+9999REMSYN094AAXX  04094 67073 32582 40215 10317 20236 30093 40119 58007 84900 333 84823 81923 94997 95817;EQDQ01  00002PRCP99
0235670730999992000020412004-18050+044030FM-12+0023FMMO V0203201N009312200019N0400001N1+03101+02721101071ADDAA199000091GA1011+006909099GA2041+006909089GF104991041091008001001001MA1999999100811MD1810121+9999REMSYN106AAXX  04124 67073 32582 43218 10310 20272 30081 40107 58012 84900 333 0//00 84823 81923 94997 95813 95817;EQDQ01  00002PRCP99
0269670730999992000020415004-18050+044030FM-12+0023FMMO V0209999C000010450019N0300001N1+02671+02571101131ADDAA106000591AY191031AY211031GA1021+009009069GF106991041091008001041031KA1120M+03271MA1999999100871MD1310061+9999MW1291REMSYN140AAXX  04154 67073 21580 60000 10267 20257 30087 40113 53006 72991 84943 333 10327 69951 83820 81920 94993 94996 95813 95816 555 82630 82073;
0223670730999992000020503004-18050+044030FM-12+0023FMMO V0201001N002112200019N0300001N1+02421+02381101301ADDAA199000091GA1011+030009039GF104991021091008001041021MA1999999101041MD1310091+9999REMSYN110AAXX  05034 67073 32580 41004 10242 20238 30104 40130 53009 82942 333 82820 81920 94995 95815 555 81360 82073;EQDQ01  00002PRCP99
0288670730999992000020506004-18050+044030FM-12+0023FMMO V0200201N003612200019N0400001N1+02911+02501101351ADDAA124000591GA1011+006009099GA2031+006009089GF103991031091008001001021IA2240+02309KA1120M+03271KA2120N+02391MA1999999101091MD1110051+9999REMSYN140AAXX  05064 67073 12582 30207 10291 20250 30109 40135 51005 69954 83902 333 02319 10327 20239 50//4 55/// 83820 81920 94997 95817 555 81073;
0199670730999992000020509004-18050+044030FM-12+0023FMMO V0200201N003612200019N0400001N1+03191+02411101251ADDAA199000091GA1041+006909089GF104991041021008001001021MA1999999100991MD1810101+9999REMSYN086AAXX  05094 67073 32582 40207 10319 20241 30099 40125 58010 84202 333 84823 555 81073;EQDQ01  00002PRCP99
0229670730999992000020512004-18050+044030FM-12+0023FMMO V0203201N006212200019N0400001N1+03111+02601101131ADDAA199000091GA1011+006909099GA2041+006909089GF104991041091008001001001MA1999999100871MD1610121+9999REMSYN100AAXX  05124 67073 32582 43212 10311 20260 30087 40113 56012 84900 333 0//00 84823 81923 94994 95814;EQDQ01  00002PRCP99
0242670730999992000020515004-18050+044030FM-12+0023FMMO V0203201N004612200019N0300001N1+02951+02571101101ADDAA199000091GA1011+006009099GA2031+006009089GF103991031091008001001001KA1120M+03281MA1999999100841MD1610031+9999REMSYN100AAXX  05154 67073 32580 33209 10295 20257 30084 40110 56003 83900 333 10328 83820 81920 94993 95813;EQDQ01  00002PRCP99
0264670730999992000020600004-18050+044030FM-12+0023FMMO V0209999C000010060019N0150001N1+02381+02341101271ADDAA106005191AC11C9AY191061GA1021+006009099GA2031+006009089GA3081+009009069GF108991081091008001999999MA1999999101011MD1510051+9999MW1151REMSYN118AAXX  06004 67073 11565 80000 10238 20234 30101 40127 55005 60051 7159/ 889// 333 0//21 83820 82920 88630 94979 95839;
0260670730999992000020603004-18050+044030FM-12+0023FMMO V0200401N002610090019N0200001N1+02431+02381101411ADDAA112005091AY191031AY221031GA1011+006009099GA2031+006009089GA3051+009009069GF106991051091008001001031MA1999999101151MD1310141+9999MW1151REMSYN112AAXX  06034 67073 21570 60405 10243 20238 30115 40141 53014 71592 85903 333 60052 83820 81920 85630 94979 95833;
0306670730999992000020606004-18050+044030FM-12+0023FMMO V0209999C00001009901CN0350001N1+02841+02541101501ADDAA124005191AC13I9GA1011+006009099GA2041+006009089GA3061+009909049GF106991061091008001031031IA2240+02209KA1120M+03281KA2120N+02281MA1999999101241MD1110091+9999REMSYN136AAXX  06064 67073 12581 60000 10284 20254 30124 40150 51009 60054 86933 333 02227 10328 20228 50//4 55/// 84820 81920 86433 94966 95836;
0251670730999992000020609004-18050+044030FM-12+0023FMMO V0202201N004610450019N0150001N1+03021+02661101381ADDAA199000091AY191031AY221031GA1011+006909099GA2041+006909089GF105991041091008001031031MA1999999101121MD1810121+9999MW1171REMSYN100AAXX  06094 67073 31565 52209 10302 20266 30112 40138 58012 71792 84933 333 84823 81923 94961 95831;EQDQ01  00002PRCP99
0296670730999992000020612004-18050+044030FM-12+0023FMMO V0202001N003110450019N0250001N1+02851+02601101191ADDAA106000591AC11C9AY191061AY291061GA1011+009909069GA2011+030009039GF105991031091008001031031MA1999999100931MD1710191+9999MW1151REMSYN158AAXX  06124 67073 11575 52006 10285 20260 30093 40119 57019 69941 71599 83933 333 0//21 83820 81920 94961 94963 94968 95831 95833 95838 555 81633 81360 81073;
0286670730999992000020615004-18050+044030FM-12+0023FMMO V0202001N003612200019N0350001N1+02911+02591101151ADDAA199000091GA1011+006909099GA2011+006909089GA3031+069009029GF103991011091008001061061KA1120M+03081MA1999999100891MD1610041+9999REMSYN128AAXX  06154 67073 32581 32007 10291 20259 30089 40115 56004 81966 333 10308 81823 81923 83273 94962 94963 95831 95833 555 81360;EQDQ01  00002PRCP99
0288670730999992000020700004-18050+044030FM-12+0023FMMO V0209999C000010090019N0150001N1+02731+02661101271ADDAA106000591AC11C9AY161061GA1011+006009099GA2031+006009089GA3061+009009069GF106991999999008001999999MA1999999101011MD1510051+9999MW1131REMSYN142AAXX  07004 67073 11565 60000 10273 20266 30101 40127 55005 69941 7136/ 96900 333 0//11 83820 81920 86630 94961 94965 94967 94968 95835 95836;
0268670730999992000020703004-18050+044030FM-12+0023FMMO V0201601N00211007501CN0100001N1+02411+02341101311ADDAA112003091AY191031AY261031GA1011+030009039GF106991061091008001031031MA1999999101051MD1310041+9999MW1951REMSYN152AAXX  07034 67073 21560 61604 10241 20234 30105 40131 53004 79596 86933 333 60032 83820 81920 86630 94965 94966 94967 94968 95835 95836 555 81360 81073;
0336670730999992000020706004-18050+044030FM-12+0023FMMO V0209999C00001007501CN0300001N1+02861+02591101311ADDAA124004191AC10I9AY191061AY291061GA1011+030009039GF108991051091008001031061IA2240+02409KA1120M+03081KA2120N+02371MA1999999101051MD1010001+9999MW1031REMSYN176AAXX  07064 67073 11580 80000 10286 20259 30105 40131 50000 60044 70399 85936 333 02424 10308 20237 50//4 55/// 85820 81920 94965 94966 94967 95815 95816 95817 555 81360 83273;
0216670730999992000020709004-18050+044030FM-12+0023FMMO V0202601N003612200019N0400001N1+03041+02681101221ADDAA199000021GA1011+030009039GF104991031091008001031031MA1999999100961MD1710091+9999REMSYN122AAXX  07094 67073 32582 42607 10304 20268 30096 40122 57009 83933 333 83823 81923 94967 94968 95817 95818 555 81360 81073;
0176670730999992000020712004-18050+044030FM-12+0023FMMO V0202401N005112200019N0400001N1+03151+02601101021ADDAA199000021GA1021+006909029GF103991021021008001031021MA1999999100761MD1710201+9999REMSYN082AAXX  07124 67073 32582 32410 10315 20260 30076 40102 57020 82232 333 0//00 82823;
0223670730999992000020715004-18050+044030FM-12+0023FMMO V0202401N002612200019N0250001N1+03081+02621101021ADDAA199000021GA1011+006009099GA2011+006009089GF103991011091008001031031KA1120M+03151MA1999999100761MD1410001+9999REMSYN100AAXX  07154 67073 31575 32405 10308 20262 30076 40102 54000 81933 333 10315 81820 81920 94961 95812;
0195670730999992000020800004-18050+044030FM-12+0023FMMO V02099999999992200019N0300001N1+02521+02241101181ADDAA199000091GA1031+012009059GF103991031051012501031001MA1999999100921MD1510091+9999REMSYN082AAXX  08004 67073 33680 3//// 10252 20224 30092 40118 55009 83530 333 0//00 83640;EQDQ01  00002PRCP99
0257670730999992000020806004-18050+044030FM-12+0023FMMO V0203601N003112200019N0400001N1+02751+02421101141ADDAA199000091GA1041+030009079GF104991041001999999031001IA2240+02409KA1120M+03151KA2120N+02401MA1999999100881MD1110091+9999REMSYN106AAXX  08064 67073 32982 43606 10275 20242 30088 40114 51009 84030 333 02400 10315 20240 50//4 55/// 84360;EQDQ01  00002PRCP99
0257670730999992000020812004-18050+044030FM-12+0023FMMO V0202601N006212200019N0300001N1+03061+02591100881ADDAA199000091AY191061AY201061GA1011+006909099GA2031+006909089GF103991031091008001001001MA1999999100621MD1610171+9999MW1171REMSYN106AAXX  08124 67073 31580 32612 10306 20259 30062 40088 56017 71790 83900 333 0//00 83823 81923 94992 95832;EQDQ01  00002PRCP99
0294670730999992000020815004-18050+044030FM-12+0023FMMO V0202601N003612200019N0300001N1+03051+02561100851ADDAA199000091AY191031AY201031GA1011+006009099GA2041+006009089GF104991041091008001001001KA1120M+03251MA1999999100591MD1510031+9999MW1031REMSYN130AAXX  08154 67073 31580 42607 10305 20256 30059 40085 55003 70390 84900 333 10325 84820 81920 94991 94992 94993 95831 95832 95833;EQDQ01  00002PRCP99
0291670730999992000020900004-18050+044030FM-12+0023FMMO V0209999C000010090019N0150001N1+02601+02561100951ADDAA199000091GA1011+006009099GA2031+006009089GA3051+009009069GF108991051091008001071999MA1999999100691MD1610141+9999MW1171REMSYN140AAXX  09004 67073 31565 80000 10260 20256 30069 40095 56014 717// 8597/ 333 0//00 83820 81920 85630 94961 94966 94967 95816 95817 555 83460;EQDQ01  00002PRCP99
0294670730999992000020903004-18050+044030FM-12+0023FMMO V0201401N004110300019N0100001N1+02331+02331101181ADDAA112052091AY191031AY291031GA1011+006009099GA2021+006009089GA3031+009009069GA4081+030009049GF108991031091008001071999MA1999999100921MD1310231+9999MW1951REMSYN130AAXX  09034 67073 21560 81408 10233 20233 30092 40118 53023 79599 8397/ 333 60522 82820 81920 83630 88460 94961 94966 94967 95816;
0336670730999992000020906004-18050+044030FM-12+0023FMMO V0203601N00361045001CN0100001N1+02401+02381101201ADDAA124055191AC11C9AY191061AY291061GA1011+009909069GF107991021091004501071081IA2240+02209KA1120M+03251KA2120N+02311MA1999999100941MD1010021+9999MW1911REMSYN176AAXX  09064 67073 11460 73607 10240 20238 30094 40120 50002 60554 79199 82978 333 02251 10325 20231 50//4 55/// 82710 82820 81920 86460 94966 94967 95816 95817 555 81633 82273;
0282670730999992000020909004-18050+044030FM-12+0023FMMO V0203601N003610300019N0300001N1+02691+02511101101ADDAA106000191AY191031AY261031GA1011+006009099GA2031+006009089GA3061+030009049GF108991031091008001071031MA1999999100841MD1710101+9999MW1031REMSYN134AAXX  09094 67073 21580 83607 10269 20251 30084 40110 57010 70396 83973 333 69911 83820 81920 86460 94965 94966 95875 95876 555 82073;
0296670730999992000020912004-18050+044030FM-12+0023FMMO V0202801N004610690019N0350001N1+02951+02541100921ADDAA106000191AC13I9AY161061AY221061GA1011+006009099GA2041+006009089GA3081+069009029GF108991041091008001031071MA1999999100661MD1710181+9999MW1031REMSYN142AAXX  09124 67073 11581 82809 10295 20254 30066 40092 57018 69911 70362 84937 333 0//17 84820 81920 88273 94961 94962 94966 94967 95831 95832;
0269670730999992000020915004-18050+044030FM-12+0023FMMO V0202601N003110690019N0400001N1+02841+02561100881ADDAA199000021GA1011+006009099GA2041+006009089GA3081+069009029GF108991041091008001031071KA1120M+03041MA1999999100621MD1510041+9999REMSYN130AAXX  09154 67073 32582 82606 10284 20256 30062 40088 55004 84937 333 10304 84820 81920 88273 94961 94962 94963 94966 95832 95833;
0263670730999992000021000004-18050+044030FM-12+0023FMMO V02099999999990090019N0300001N1+02501+02411101021ADDAA199000091GA1011+006009099GA2021+006009089GA3051+009009069GF106991061091008001001001MA1999999100761MD1610061+9999MW1131REMSYN112AAXX  10004 67073 31580 6//04 10250 20241 30076 40102 56006 713// 86900 333 0//00 82820 81920 85630 94994 95814;EQDQ01  00002PRCP99
0238670730999992000021003004-18050+044030FM-12+0023FMMO V0209999C00001007501CN0350001N1+02461+02421101101ADDAA112000491AY161031AY221031GA1011+006009099GA2031+006009089GF107991061091008001001021MA1999999100841MD1310081+9999MW1031REMSYN106AAXX  10034 67073 21581 70000 10246 20242 30084 40110 53008 70362 86902 333 69942 83820 81920 94998 95818;
0334670730999992000021006004-18050+044030FM-12+0023FMMO V0200601N002610690019N0400001N1+02841+02561101191ADDAA124000591AC10I9AY161061AY221061GA1011+006909099GA2031+006909089GA3031+069009009GF106991031091008001031021IA2240+02409KA1120M+03041KA2120N+02361MA1999999100931MD1110091+9999MW1011REMSYN142AAXX  10064 67073 11582 60605 10284 20256 30093 40119 51009 69954 70162 83932 333 02414 10304 20236 50//4 55/// 83823 81923 83073 94997 95837;
0275670730999992000021009004-18050+044030FM-12+0023FMMO V0203201N004610060019N0250001N1+03021+02531101071ADDAA199000091AY121031AY221031GA1011+006009099GA2051+006009089GF106991061091008001001001MA1999999100811MD1810121+9999MW1151REMSYN124AAXX  10094 67073 31575 63209 10302 20253 30081 40107 58012 71522 86900 333 85820 81920 94991 94994 94997 95831 95814 95817;EQDQ01  00002PRCP99
0284670730999992000021012004-18050+044030FM-12+0023FMMO V0203201N003110060019N0200001N1+02801+02611100931ADDAA106000191AC11C9AY191061AY261061GA1011+006009099GA2051+006009089GF107991061091008001001031MA1999999100671MD1610141+9999MW1171REMSYN146AAXX  10124 67073 11570 73206 10280 20261 30067 40093 56014 69911 71796 86903 333 0//11 85820 81920 94992 94994 94996 95832 95834 95836 555 82073;
0291670730999992000021015004-18050+044030FM-12+0023FMMO V0203001N002610060019N0200001N1+02881+02571100961ADDAA106000191AY191031AY221031GA1011+006009099GA2051+006009089GF107991061091008001001031KA1120M+03031MA1999999100701MD1310031+9999MW1171REMSYN146AAXX  10154 67073 21570 73005 10288 20257 30070 40096 53003 71792 86903 333 10303 69911 85820 81920 94992 94994 94997 95832 95834 95817 555 82073;
0285670730999992000021100004-18050+044030FM-12+0023FMMO V0209999C000010690019N0200001N1+02451+02351101081ADDAA199000091GA1011+006009099GA2031+006009089GA3051+069009029GF105991031091008001031061MA1999999100821MD1610071+9999MW1131REMSYN134AAXX  11004 67073 31570 50000 10245 20235 30082 40108 56007 713// 83936 333 0//00 83820 81920 85273 94965 94967 95815 95817 555 82360;EQDQ01  00002PRCP99
0322670730999992000021106004-18050+044030FM-12+0023FMMO V0200201N005110690019N0400001N1+02801+02461101201ADDAA124000191GA1011+006909099GA2031+006909089GA3081+069009029GF108991031091008001031071IA2240+02309KA1120M+03031KA2120N+02351MA1999999100941MD1110081+9999REMSYN158AAXX  11064 67073 12582 80210 10280 20246 30094 40120 51008 69914 83937 333 02319 10303 20235 50//4 55/// 83823 81923 88273 94961 94965 94967 95815 555 81360;
0251670730999992000021109004-18050+044030FM-12+0023FMMO V0202801N00511007501CN0150001N1+03021+02601101131ADDAA199000091AY121031AY221031GA1011+030009039GF108991051091008001031081MA1999999100871MD1810071+9999MW1151REMSYN116AAXX  11094 67073 31565 82810 10302 20260 30087 40113 58007 71522 85938 333 85823 82923 94979 95839 555 81360 83273;EQDQ01  00002PRCP99
0276670730999992000021115004-18050+044030FM-12+0023FMMO V0203001N003610690019N0300001N1+02881+02461100971ADDAA199000091GA1011+006909099GA2041+006909089GA3081+069009029GF108991041091008001001071KA1120M+03071MA1999999100711MD1310021+9999REMSYN118AAXX  11154 67073 32580 83007 10288 20246 30071 40097 53002 84907 333 10307 84823 81923 88273 94961 94962 94963 95812;EQDQ01  00002PRCP99
0238670730999992000021203004-18050+044030FM-12+0023FMMO V0200801N00211007501CN0300001N1+02401+02311101121ADDAA112000391AY161031AY221031GA1011+006009099GA2031+006009089GF107991061091008001001031MA1999999100861MD1310021+9999MW1031REMSYN106AAXX  12034 67073 21580 70804 10240 20231 30086 40112 53002 70362 86903 333 69932 83820 81920 94993 95813;
0334670730999992000021206004-18050+044030FM-12+0023FMMO V0200201N00311009001CN0350001N1+02831+02621101241ADDAA124000391AC11I9AY161061AY221061GA1011+006009099GA2041+006009089GA3031+009009069GF106991061091008001001001IA2240+02309KA1120M+03071KA2120N+02311MA1999999100981MD1010121+9999MW1011REMSYN142AAXX  12064 67073 11581 60206 10283 20262 30098 40124 50012 69934 70162 86900 333 02315 10307 20231 50//4 55/// 84820 81920 83630 94995 95815;
0275670730999992000021209004-18050+044030FM-12+0023FMMO V0203201N004610060019N0200001N1+03101+02671101151ADDAA199000091AY121031AY221031GA1011+006009099GA2051+006009089GF107991061091008001001031MA1999999100891MD1810091+9999MW1151REMSYN124AAXX  12094 67073 31570 73209 10310 20267 30089 40115 58009 71522 86903 333 85820 81920 94992 94995 94997 95832 95815 95817;EQDQ01  00002PRCP99
0301670730999992000021212004-18050+044030FM-12+0023FMMO V0209999C00001009001CN0150001N1+02801+02581101011ADDAA199000091AY121061AY221061GA1011+006009099GA2041+006009089GA3031+009009069GF107991061091008001001031MA1999999100751MD1610141+9999MW1151REMSYN134AAXX  12124 67073 31565 70000 10280 20258 30075 40101 56014 71522 86903 333 0//00 84820 81920 83630 94992 94994 95812 95814 555 82073;EQDQ01  00002PRCP99
0301670730999992000021215004-18050+044030FM-12+0023FMMO V0209999C000010090019N0300001N1+02821+02631101021ADDAA106000291AY161031AY221031GA1011+006009099GA2031+006009089GA3031+009009069GF107991061091008001001031KA1120M+03131MA1999999100761MD1310011+9999MW1021REMSYN140AAXX  12154 67073 21580 70000 10282 20263 30076 40102 53001 70262 86903 333 10313 69921 83820 81920 83630 94992 94994 95812 95814 555 82073;
0273670730999992000021300004-18050+044030FM-12+0023FMMO V0209999C000010690019N0250001N1+02521+02461101011ADDAA199000091GA1011+006009099GA2021+006009089GA3051+069009029GF105991021091008001031061MA1999999100751MD1710131+9999MW1131REMSYN122AAXX  13004 67073 31575 50000 10252 20246 30075 40101 57013 713// 82936 333 0//00 82820 81920 85273 94965 95815 555 81360;EQDQ01  00002PRCP99
0295670730999992000021303004-18050+044030FM-12+0023FMMO V0209999C000010300019N0350001N1+02481+02441101031ADDAA199000091GA1011+006009099GA2021+006009089GA3031+009909069GA4061+030009039GF108991031091008001051081MA1999999100771MD1310021+9999REMSYN134AAXX  13034 67073 32581 80000 10248 20244 30077 40103 53002 83958 333 82820 81920 83633 86360 94965 94966 94967 95815 95816 555 82273;EQDQ01  00002PRCP99
0343670730999992000021306004-18050+044030FM-12+0023FMMO V0200201N002610450019N0250001N1+02731+02521101191ADDAA199000091AY121061AY221061GA1021+030009039GF108991031091008001031081IA2240+02309KA1120M+03131KA2120N+02471MA1999999100931MD1110161+9999MW1151REMSYN170AAXX  13064 67073 31575 80205 10273 20252 30093 40119 51016 71522 83938 333 02300 10313 20247 50//4 55/// 82820 81920 83630 94965 94966 94967 95816 95817 555 82360 81273;EQDQ01  00002PRCP99
0275670730999992000021309004-18050+044030FM-12+0023FMMO V0202801N004110450019N0250001N1+03021+02581101091ADDAA199000091AY121031AY221031GA1021+030009039GF108991041091008001031061MA1999999100831MD1810101+9999MW1151REMSYN140AAXX  13094 67073 31575 82808 10302 20258 30083 40109 58010 71522 84936 333 84820 81920 94961 94965 94966 94967 95836 95837 555 82360 82273;EQDQ01  00002PRCP99
0250670730999992000021312004-18050+044030FM-12+0023FMMO V0201601N002110450019N0100001N1+02311+02301100911ADDAA106025991AC13C9AY191061AY221061GA1021+006009099GA2041+006009089GF108991031091008001031061MA1999999100651MD1810181+9999MW1951REMSYN112AAXX  13124 67073 11560 81604 10231 20230 30065 40091 58018 60261 79592 83936 333 0//13 84820 82920 94979 95839;
0182670730999992000021400004-18050+044030FM-12+0023FMMO V0209999C000010120019N0300001N1+02501+02461100921ADDAA199000021GA1021+006009089GF105991051081008001001021MA1999999100661MD1610171+9999REMSYN088AAXX  14004 67073 33580 50000 10250 20246 30066 40092 56017 85802 333 0//00 82820 84640;
0195670730999992000021403004-18050+044030FM-12+0023FMMO V0209999C000010120019N0300001N1+02441+02401100991ADDAA199000091GA1021+006009089GF106991061081008001001021MA1999999100721MD1310071+9999REMSYN082AAXX  14034 67073 32580 60000 10244 20240 30072 40099 53007 86802 333 82820 85640;EQDQ01  00002PRCP99
0244670730999992000021406004-18050+044030FM-12+0023FMMO V0209999C000010450019N0400001N1+03001+02641101021ADDAA124025991GA1021+006909029GF105991031081008001031021IA2240+02409KA1120M+03131KA2120N+02411MA1999999100761MD1110031+9999REMSYN112AAXX  14064 67073 12582 50000 10300 20264 30076 40102 51003 60264 83832 333 02429 10313 20241 50//4 55/// 82823;
0189670730999992000021409004-18050+044030FM-12+0023FMMO V0202601N004112200019N0400001N1+03071+02581100871ADDAA199000091GA1031+006909029GF104991031021008001031021MA1999999100701MD1610061+9999REMSYN076AAXX  14094 67073 32582 42608 10307 20258 30070 40087 56006 83232 333 83823;EQDQ01  00002PRCP99
0279670730999992000021412004-18050+044030FM-12+0023FMMO V0202601N004612200019N0300001N1+03141+02591100711ADDAA199000091AY111061AY211061GA1011+006909099GA2031+006909089GF103991031091008001001021MA1999999100451MD1610251+9999MW1171REMSYN128AAXX  14124 67073 31580 32609 10314 20259 30045 40071 56025 71711 83902 333 0//00 83823 81923 94992 94993 95812 95813 555 81073;EQDQ01  00002PRCP99
0270670730999992000021415004-18050+044030FM-12+0023FMMO V0202201N002612200019N0300001N1+03051+02551100721ADDAA199000091AY191031AY201031GA1011+009009069GF104991031091008001001031KA1120M+03171MA1999999100461MD1310011+9999MW1171REMSYN122AAXX  14154 67073 31580 42205 10305 20255 30046 40072 53001 71790 83903 333 10317 83820 81920 94992 95812 555 81630 81073;EQDQ01  00002PRCP99
0254670730999992000021503004-18050+044030FM-12+0023FMMO V0200401N00261002101CN0100001N1+02361+02321101001ADDAA112000391AY191031GA1011+030009049GF108991051091002501071081MA1999999100741MD1310121+9999MW1601REMSYN146AAXX  15034 67073 21360 80405 10236 20232 30074 40100 53012 7609/ 85978 333 69932 81707 83820 81920 85633 94966 94967 95816 95817 555 81460 82273;
0378670730999992000021506004-18050+044030FM-12+0023FMMO V0200401N002610300019N0300001N1+02581+02381101071ADDAA124000891AC12C9AY191061AY261061GA1011+006009099GA2021+006009089GA3031+030009049GA4051+069009029GF108991021091008001071051IA2240+02309KA1120M+03171KA2120N+02321MA1999999100811MD1110071+9999MW1021REMSYN170AAXX  15064 67073 11580 80405 10258 20238 30081 40107 51007 69984 70296 82975 333 02312 10317 20232 50//4 55/// 82820 81920 83460 85273 94966 94967 95816 95817 555 81630;
0186670730999992000021509004-18050+044030FM-12+0023FMMO V0202601N00361007501CN0400001N1+02971+02521101031ADDAA199000021GA1021+030009039GF108991051021008001031081MA1999999100771MD1810041+9999REMSYN092AAXX  15094 67073 32582 82607 10297 20252 30077 40103 58004 85238 333 85820 555 82360 83273;
0244670730999992000021512004-18050+044030FM-12+0023FMMO V0202801N003610690019N0400001N1+03001+02561100801ADDAA199000021GA1011+006009099GA2031+006009089GA3081+069009029GF108991031091008001081071MA1999999100541MD1610231+9999REMSYN118AAXX  15124 67073 32582 82807 10300 20256 30054 40080 56023 83987 333 0//00 83820 81920 88273 94961 94968 95871 95878;
0273670730999992000021515004-18050+044030FM-12+0023FMMO V0202601N003610690019N0250001N1+03001+02561100741ADDAA199000021AY121031AY221031GA1011+006009099GA2011+006009089GA3051+069009029GF105991011091008001031081KA1120M+03081MA1999999100481MD1610061+9999MW1171REMSYN112AAXX  15154 67073 31575 52607 10300 20256 30048 40074 56006 71722 81938 333 10308 81820 81920 85273 94961 95831;
0263670730999992000021600004-18050+044030FM-12+0023FMMO V02099999999990090019N0300001N1+02571+02511100931ADDAA199000091GA1011+006009099GA2031+006009089GA3031+009009069GF105991051091008001001001MA1999999100671MD1610071+9999MW1131REMSYN112AAXX  16004 67073 31580 5//05 10257 20251 30067 40093 56007 713// 85900 333 0//00 83820 81920 83630 94994 95814;EQDQ01  00002PRCP99
0234670730999992000021603004-18050+044030FM-12+0023FMMO V0209999C00001007501CN0300001N1+02451+02391101061ADDAA199000091GA1011+006009099GA2031+006009089GF106991061091008001001021MA1999999100801MD1310131+9999REMSYN105AAXX  16034 67073 32580 60000 10245 20239 30080 40106 53013 86902 333 83820 81920 9499 94997 95811 95817;EQDQ01  00002PRCP99
0303670730999992000021606004-18050+044030FM-12+0023FMMO V0201201N002612200019N0400001N1+02911+02471101141ADDAA199000091GA1011+006909099GA2031+006909089GF103991031091008001001001IA2240+02409KA1120M+03081KA2120N+02451MA1999999100881MD1010081+9999REMSYN136AAXX  16064 67073 32582 31205 10291 20247 30088 40114 50008 83900 333 02400 10308 20245 50//4 55/// 83823 81923 94991 94997 95811 95817;EQDQ01  00002PRCP99
0223670730999992000021609004-18050+044030FM-12+0023FMMO V0202401N004112200019N0400001N1+03071+02551101061ADDAA199000091GA1011+006909099GA2041+006909089GF104991041091008001041001MA1999999100801MD1810081+9999REMSYN094AAXX  16094 67073 32582 42408 10307 20255 30080 40106 58008 84940 333 84823 81923 94997 95817;EQDQ01  00002PRCP99
0239670730999992000021612004-18050+044030FM-12+0023FMMO V0202801N005111050019N0400001N1+03071+02601100891ADDAA199000091GA1011+006909099GA2041+006909089GF105991041091008001001021MA1999999100631MD1610171+9999REMSYN110AAXX  16124 67073 32582 52810 10307 20260 30063 40089 56017 84902 333 0//00 84823 81923 94992 95812 555 82073;EQDQ01  00002PRCP99
0264670730999992000021615004-18050+044030FM-12+0023FMMO V0202601N003612200019N0400001N1+03001+02581100821ADDAA199000091GA1011+006009099GA2031+006009089GF103991031091008001001031KA1120M+03111MA1999999100561MD1510071+9999REMSYN122AAXX  16154 67073 32582 32607 10300 20258 30056 40082 55007 83903 333 10311 83820 81920 94962 94963 95812 95813 555 81073;EQDQ01  00002PRCP99
0252670730999992000021703004-18050+044030FM-12+0023FMMO V0200601N00261007501CN0100001N1+02331+02211100781ADDAA112002091AY191031GA1021+009009069GA2011+030009049GF106991051091008001071031MA1999999100521MD1510031+9999MW1951REMSYN128AAXX  17034 67073 21560 60605 10233 20221 30052 40078 55003 7959/ 85973 333 60022 81820 84920 94959 95819 555 82630 81460 82073;
0216670730999992000021709004-18050+044030FM-12+0023FMMO V0202001N004610450019N0400001N1+03021+02581100671ADDAA199000021GA1031+030009039GF105991031091008001031031MA1999999100411MD1810111+9999REMSYN122AAXX  17094 67073 32582 52009 10302 20258 30041 40067 58011 83933 333 83823 81923 94965 94967 95835 95837 555 83360 81073;
0282670730999992000021712004-18050+044030FM-12+0023FMMO V0202201N004610300019N0150001N1+02961+02641100461ADDAA199000021AY111061AY211061GA1011+003009079GA2011+006009099GA3041+006009089GA4061+030009049GF106991041091004501071031MA1999999100201MD1710111+9999MW1151REMSYN118AAXX  17124 67073 31465 62209 10296 20264 30020 40046 57011 71511 84973 333 0//00 81710 84820 81920 86460 94961 95831;
0210670730999992000021809004-18050+044030FM-12+0023FMMO V0202601N006710060019N9999999N1+02921+02671100201ADDAA106001091AY121031AY221031GA1051+006009089GF107991071081008001999999MA1999999099941MD1810061+9999MW1211REMSYN094AAXX  18094 67073 2157/ 72613 10292 20267 39994 40020 58006 72122 878// 333 60011 85820 83630;
0304670730999992000022109004-18050+044030FM-12+0023FMMO V0203601N005710300019N0150001N1+02571+02411100861ADDAA106001091AY161031AY221031GA1031+002109079GA2011+006009099GA3031+006009089GA4081+030009049GF108991031091002501071999MA1999999100621MD1410001+9999MW1151REMSYN140AAXX  21094 67073 21365 83611 10257 20241 30062 40086 54000 71562 8397/ 333 60011 83707 83820 81920 88460 94967 94968 95837 95838 555 82630;
0294670730999992000022112004-18050+044030FM-12+0023FMMO V0203401N003610450019N0100001N1+02441+02411100691ADDAA106005191AC11C9AY161061AY261061GA1021+003009079GA2011+006009099GA3011+006009089GA4031+009009069GF108991031091008001071999MA1999999100431MD1810191+9999MW1611REMSYN124AAXX  21124 67073 11560 83407 10244 20241 30043 40069 58019 60051 76166 8397/ 333 0//51 82710 81920 81820 83630 94961 95811;
0251670730999992000022115004-18050+044030FM-12+0023FMMO V0200401N003110300019N0250001N1+02431+02381100701ADDAA199000021AY121031AY221031GA1011+006009099GA2081+030009049GF108991011091008001071999KA1120M+02751MA1999999100441MD1010011+9999MW1151REMSYN106AAXX  21154 67073 31575 80406 10243 20238 30044 40070 50001 71522 8197/ 333 10275 81920 88460 94941 95811;
0181670730999992000022200004-18050+044030FM-12+0023FMMO V02099999999999999999N0300001N1+02361+02271100761ADDAA199000021GA1011+006009089GF105991999999008001999999MA1999999100501MD1610151+9999REMSYN087AAXX  22004 67073 33580 5//06 10236 20227 30050 40076 56015 8500 333 0//00 81820 85640;
0245670730999992000022203004-18050+044030FM-12+0023FMMO V0200801N004610690019N0350001N1+02351+02251100791ADDAA199000091GA1011+006009099GA2021+006009089GA3031+069009009GF106991031091008001001021MA1999999100531MD1310031+9999REMSYN100AAXX  22034 67073 32581 60809 10235 20225 30053 40079 53003 83902 333 82820 81920 83073 94992 95816;EQDQ01  00002PRCP99
0244670730999992000022206004-18050+044030FM-12+0023FMMO V0200801N003611050019N0350001N1+02681+02421100881ADDAA124005191GA1041+006009029GF106991041081008001001021IA2240+02209KA1120M+02751KA2120N+02321MA1999999100621MD1010091+9999REMSYN112AAXX  22064 67073 12581 60807 10268 20242 30062 40088 50009 60054 84802 333 02219 10275 20232 50//4 55/// 84820;
0217670730999992000022209004-18050+044030FM-12+0023FMMO V0200201N005110120019N0300001N1+02951+02541100841ADDAA199000091GA1041+006009089GA2031+012009069GF107991061081008001001051MA1999999100581MD1810041+9999REMSYN088AAXX  22094 67073 32580 70210 10295 20254 30058 40084 58004 86805 333 84820 83640 85273;EQDQ01  00002PRCP99
0301670730999992000022212004-18050+044030FM-12+0023FMMO V0203601N00621012001CN0250001N1+03001+02491100631ADDAA199000091AY121061AY221061GA1011+006009099GA2041+006009089GA3031+012009069GA4051+069009029GF108991061091008001001051MA1999999100371MD1610211+9999MW1151REMSYN118AAXX  22124 67073 31575 83612 10300 20249 30037 40063 56021 71522 86905 333 0//00 84820 81920 83640 85273 94992 95812;EQDQ01  00002PRCP99
0314670730999992000022215004-18050+044030FM-12+0023FMMO V0200201N003110099019N0250001N1+02741+02431100681ADDAA199000091AY191031AY221031GA1011+006009099GA2031+006009089GA3041+009909069GA4041+069009029GF108991061091008001001051KA1120M+03021MA1999999100421MD1310051+9999MW1151REMSYN118AAXX  22154 67073 31575 80206 10274 20243 30042 40068 53005 71592 86905 333 10302 83820 81920 84633 84273 94992 95812;EQDQ01  00002PRCP99
0294670730999992000022300004-18050+044030FM-12+0023FMMO V0209999999999009001CN0100001N1+02401+02331100811ADDAA106002091AC12C9AY161061AY261061GA1011+002109079GA2011+006009099GA3031+009009069GA4081+030009049GF108991031091002501071999MA1999999100551MD1810111+9999MW1171REMSYN124AAXX  23004 67073 11360 8//07 10240 20233 30055 40081 58011 60021 71766 8397/ 333 0//12 81707 81920 83630 88460 94947 95817;
0282670730999992000022303004-18050+044030FM-12+0023FMMO V0200401N004610090019N0150001N1+02331+02181100901ADDAA112002091AY191031AY261031GA1031+003009079GA2011+006009099GA3061+009009069GF108991031091008001071999MA1999999100601MD1310091+9999MW1171REMSYN134AAXX  23034 67073 21565 80409 10233 20218 30060 40090 53009 71796 8397/ 333 60022 83710 81920 86630 94961 94967 95831 95837 555 82460;
0284670730999992000022306004-18050+044030FM-12+0023FMMO V0200401N00671045001CN0250001N1+02421+02271100981ADDAA112003091AC12C9AY191061AY261061GA1031+009009069GF106991031051008001071001IA2240+02209KA1120M+03021KA2120N+02281MA1999999100721MD1110121+9999MW1151REMSYN124AAXX  23064 67073 11575 60413 10242 20227 30072 40098 51012 60032 71596 83570 333 02212 10302 20228 50//4 55/// 83630 86460;
0307670730999992000022309004-18050+044030FM-12+0023FMMO V0200401N00571009901CN0250001N1+02721+02221100901ADDAA199000091AY121031AY221031GA1011+006009099GA2011+006009089GA3031+009909069GA4061+030009049GF106991031091008001071001MA1999999100641MD1810081+9999MW1151REMSYN124AAXX  23094 67073 31575 60411 10272 20222 30064 40090 58008 71522 83970 333 81820 81920 83633 86460 94966 94967 95836 95837;EQDQ01  00002PRCP99
0279670730999992000022312004-18050+044030FM-12+0023FMMO V0200401N005110090019N0200001N1+02791+02341100861ADDAA199000091AY191061AY221061GA1011+006009099GA2021+006009089GA3081+009009069GF108991081091008001999999MA1999999100601MD1610041+9999MW1291REMSYN112AAXX  23124 67073 31570 80410 10279 20234 30060 40086 56004 72992 889// 333 0//00 82820 81920 88630 94966 95836;EQDQ01  00002PRCP99
0314670730999992000022315004-18050+044030FM-12+0023FMMO V0200201N004110300019N0250001N1+02581+02321100871ADDAA199000091AY191031AY221031GA1011+006009099GA2021+006009089GA3031+012009069GA4061+030009049GF107991031091008001071021KA1120M+02871MA1999999100751MD1310011+9999MW1151REMSYN118AAXX  23154 67073 31575 70208 10258 20232 30075 40087 53001 71592 83972 333 10287 82820 81920 83640 86460 94961 95831;EQDQ01  00002PRCP99
0236670730999992000022400004-18050+044030FM-12+0023FMMO V02099999999990090019N0080001N1+02341+02271100991ADDAA106001091AC11C9AY161061GA1021+006009089GA2051+009009069GF108991051081008001071999MA1999999100731MD1610061+9999MW1611REMSYN106AAXX  24004 67073 11558 8//06 10234 20227 30073 40099 56006 60011 7616/ 8587/ 333 0//11 82820 85630 83360;
0334670730999992000022406004-18050+044030FM-12+0023FMMO V0200201N002610690019N0350001N1+02511+02321101111ADDAA124002091AC11C9AY191061AY261061GA1011+006009099GA2021+006009089GA3031+069009029GF107991031091008001031051IA2240+02209KA1120M+02871KA2120N+02251MA1999999100851MD1110081+9999MW1011REMSYN142AAXX  24064 67073 12581 70205 10251 20232 30085 40111 51008 60024 70196 83935 333 02221 10287 20225 50//4 55/// 82820 81920 83273 94997 95817;
0238670730999992000022409004-18050+044030FM-12+0023FMMO V0200201N003110450019N0300001N1+02751+02361101041ADDAA199000021GA1011+006009099GA2021+006009089GA3031+009909069GF107991041091008001071051MA1999999100781MD1810071+9999REMSYN112AAXX  24094 67073 32580 70206 10275 20236 30078 40104 58007 84975 333 82820 81920 83633 94993 94997 95813 95817;
0254670730999992000022412004-18050+044030FM-12+0023FMMO V0203601N002610099019N0300001N1+02801+02431100981ADDAA199000021GA1011+006009099GA2021+006009089GA3051+009909069GF108991061091008001071999MA1999999100721MD1610061+9999REMSYN128AAXX  24124 67073 32580 83605 10280 20243 30072 40098 56006 8697/ 333 0//00 82820 81920 85633 94993 94997 95813 95817 555 83360;
0286670730999992000022415004-18050+044030FM-12+0023FMMO V0209999C000010300019N0300001N1+02691+02561100961ADDAA199000091GA1011+006009099GA2021+006009089GA3031+009909069GA4051+030009049GF108991041091008001071999KA1120M+02821MA1999999100701MD1510021+9999REMSYN112AAXX  24154 67073 32580 80000 10269 20256 30070 40096 55002 8497/ 333 10282 82820 81920 83633 85460 94996 95816;EQDQ01  00002PRCP99
0236670730999992000022500004-18050+044030FM-12+0023FMMO V0209999999999009001CN0150001N1+02351+02321101021ADDAA106000591AC11C9AY161061GA1021+006009089GA2031+009009069GF106991031081008001071001MA1999999100761MD1810061+9999MW1211REMSYN106AAXX  25004 67073 11565 6//06 10235 20232 30076 40102 58006 69951 7216/ 83870 333 0//11 82820 83630 86460;
0270670730999992000022503004-18050+044030FM-12+0023FMMO V0200401N003110090019N0250001N1+02321+02261101101ADDAA112000591AY121031AY221031GA1011+006009099GA2021+006009089GA3051+009009069GF108991051091008001071999MA1999999100841MD1310081+9999MW1151REMSYN122AAXX  25034 67073 21575 80406 10232 20226 30084 40110 53008 71522 8597/ 333 69952 82820 81920 85630 94945 95815 555 83460;
0356670730999992000022506004-18050+044030FM-12+0023FMMO V0203601N00671006001CN0150001N1+02431+02381101131ADDAA124004191AC11C9AY161061AY261061GA1021+003009079GA2011+006009099GA3021+006009089GA4031+009009069GF108991031091004501071999IA2240+02209KA1120M+02821KA2120N+02301MA1999999100871MD1110031+9999MW1211REMSYN148AAXX  25064 67073 11465 83613 10243 20238 30087 40113 51003 60044 72166 8397/ 333 02211 10282 20230 50//4 55/// 82710 82820 81920 83630 94965 95815;
0256670730999992000022509004-18050+044030FM-12+0023FMMO V0203201N00621002101CN0150001N1+02821+02541101151ADDAA106001091AY181031AY261031GA1011+009009069GF107991051091002501071999MA1999999100891MD1810021+9999MW1151REMSYN140AAXX  25094 67073 21365 73212 10282 20254 30089 40115 58002 71586 8597/ 333 60011 82707 85820 81920 94961 94962 95831 95832 555 81630 83460;
0306670730999992000022512004-18050+044030FM-12+0023FMMO V0203201N006210060019N0250001N1+02821+02481101051ADDAA106001091AC13I9AY181061AY221061GA1011+003009079GA2011+006009099GA3041+006009089GA4061+030009049GF108991061091004501071021MA1999999100791MD1710101+9999MW1151REMSYN136AAXX  25124 67073 11475 83212 10282 20248 30079 40105 57010 60011 71582 86972 333 0//17 81710 84820 81920 86460 94961 94962 95831 95832;
0307670730999992000022515004-18050+044030FM-12+0023FMMO V0203201N00261006001CN0200001N1+02711+02531101081ADDAA199000021AY121031AY221031GA1011+002109079GA2011+006009099GA3031+006009089GA4031+009009069GF108991031091004501071021KA1120M+02971MA1999999100821MD1310031+9999MW1151REMSYN130AAXX  25154 67073 31470 83205 10271 20253 30082 40108 53003 71522 83972 333 10297 81707 83820 81920 83630 94966 94967 95836 95837;
0206670730999992000022600004-18050+044030FM-12+0023FMMO V0209999C00001012001CN0250001N1+02321+02281101011ADDAA106002091AC11C9GA1011+006009089GF105991051081008001001001MA1999999100751MD1610141+9999MW1611REMSYN100AAXX  26004 67073 11575 50000 10232 20228 30075 40101 56014 60021 761// 85800 333 0//11 81820 85633;
0176670730999992000022603004-18050+044030FM-12+0023FMMO V0201001N002612200019N0300001N1+02271+02231101051ADDAA112002091GA1011+006009029GF103991011081008001031021MA1999999100791MD1310041+9999REMSYN082AAXX  26034 67073 22580 31005 10227 20223 30079 40105 53004 81832 333 60022 81820;
0256670730999992000022606004-18050+044030FM-12+0023FMMO V0200201N003112200019N0400001N1+02751+02451101141ADDAA124003091AC12I9GA1011+006009089GF103991011021008001001051IA2240+02209KA1120M+02971KA2120N+02271MA1999999100881MD1110091+9999REMSYN118AAXX  26064 67073 12582 30206 10275 20245 30088 40114 51009 60034 81205 333 02216 10297 20227 50//4 55/// 81820 83273;
0220670730999992000022612004-18050+044030FM-12+0023FMMO V0203601N005112200019N0400001N1+03021+02571100881ADDAA199000021GA1011+006009099GA2041+006009089GF104991041091008001001021MA1999999100621MD1610141+9999REMSYN110AAXX  26124 67073 32582 43610 10302 20257 30062 40088 56014 84902 333 0//00 84820 81920 94994 95814 555 81073;
0254670730999992000022615004-18050+044030FM-12+0023FMMO V0203201N004612200019N0300001N1+02821+02511100801ADDAA199000091GA1011+006009099GA2021+006009089GF103991031091008001001001KA1120M+03051MA1999999100541MD1610081+9999REMSYN112AAXX  26154 67073 32580 33209 10282 20251 30054 40080 56008 83900 333 10305 82820 81920 94992 94993 95812 95813;EQDQ01  00002PRCP99
0211670730999992000022700004-18050+044030FM-12+0023FMMO V0209999C000012200019N0250001N1+02461+02251100901ADDAA199000091GA1011+030009039GF101991011021008001031011MA1999999100641MD1710111+9999REMSYN098AAXX  27004 67073 33575 10000 10246 20225 30064 40090 57011 81231 333 0//00 81820 555 81360 81073;EQDQ01  00002PRCP99
0211670730999992000022703004-18050+044030FM-12+0023FMMO V0209999C00001045001CN0300001N1+02421+02391100941ADDAA199000091GA1011+030009039GF105991031081008001031061MA1999999100681MD1310041+9999REMSYN098AAXX  27034 67073 32580 50000 10242 20239 30068 40094 53004 83836 333 81820 83650 555 81360 82273;EQDQ01  00002PRCP99
0311670730999992000022706004-18050+044030FM-12+0023FMMO V0203601N00311030001CN0350001N1+02781+02581101071ADDAA199000091GA1011+006009099GA2031+006009089GA3051+030009039GF105991031091008001051001IA2240+02309KA1120N+02411MA1999999100811MD1110131+9999REMSYN141AAXX  27064 67073 32581 53606 10278 20258 30081 40107 51013 83950 333 02300 1035 20241 5///4 55/// 83820 81920 85360 94965 94967 95835 95837;EQDQ01  00002PRCP99
0216670730999992000022709004-18050+044030FM-12+0023FMMO V0202601N003110450019N0400001N1+03001+02641100941ADDAA199000091GA1021+999999039GF105991031091008001031001MA1999999100681MD1810131+9999REMSYN103AAXX  27094 67073 32582 52606 10300 20264 30068 40094 58013 83930 333 83820 81920 94963 95833 555 8236;EQDQ01  00002PRCP99
0201670730999992000022712004-18050+044030FM-12+0023FMMO V0202601N00461045001CN0400001N1+03101+02561100711ADDAA199000091GA1021+006009089GF105991021021008001051001MA1999999100451MD1610231+9999REMSYN088AAXX  27124 67073 32582 52609 10310 20256 30045 40071 56023 82250 333 0//00 82820 83360;EQDQ01  00002PRCP99
0304670730999992000022715004-18050+044030FM-12+0023FMMO V0202401N004110300019N0250001N1+02941+02581100581ADDAA199000091AY191031AY221031GA1011+006009099GA2021+006009089GA3031+030009039GF106991031091008001031031KA1120M+03121MA1999999100521MD1110071+9999MW1171REMSYN124AAXX  27154 67073 31575 62408 10294 20258 30052 40058 51007 71792 83933 333 10312 82820 81920 83360 94961 94962 95831 95832;EQDQ01  00002PRCP99
0273670730999992000022803004-18050+044030FM-12+0023FMMO V0203601N001510099019N0150001N1+02541+02481100951ADDAA199000091AY121031AY221031GA1011+006009099GA2031+006009089GA3051+009909069GF107991071091008001999999MA1999999100691MD1310041+9999MW1151REMSYN106AAXX  28034 67073 31565 73603 10254 20248 30069 40095 53004 71522 879// 333 83820 81920 85633 94995 95815;EQDQ01  00002PRCP99
0346670730999992000022806004-18050+044030FM-12+0023FMMO V0200601N002110090019N0200001N1+02561+02501101171ADDAA124001091AC11C9AY161061AY221061GA1011+006009099GA2031+006009089GA3051+009009069GF107991071091008001999999IA2240+02409KA1120M+03121KA2120N+02501MA1999999100911MD1110221+9999MW1211REMSYN154AAXX  28064 67073 11570 70604 10256 20250 30091 40117 51022 60014 72162 879// 333 02411 10312 20250 50//4 55/// 83820 81920 85630 94992 94997 95812 95817;
0254670730999992000022809004-18050+044030FM-12+0023FMMO V0200201N00571009001CN0150001N1+02741+02511101161ADDAA199000021AY121031AY221031GA1011+006009099GA2041+006009089GA3041+009009069GF107991071091008001999999MA1999999100901MD1810011+9999MW1151REMSYN106AAXX  28094 67073 31565 70211 10274 20251 30090 40116 58001 71522 879// 333 84820 81920 84630 94991 95811;
0232670730999992000022812004-18050+044030FM-12+0023FMMO V0203401N004112200019N0400001N1+03201+02391100851ADDAA199000021GA1011+006909099GA2021+006909089GA3031+012009069GF104991041091008001001001MA1999999100591MD1710311+9999REMSYN106AAXX  28124 67073 32582 43408 10320 20239 30059 40085 57031 84900 333 0//00 82823 81923 83640 94991 95811;
0233670730999992000022815004-18050+044030FM-12+0023FMMO V0203001N002112200019N0350001N1+02981+02531100891ADDAA199000021GA1011+006909099GA2021+006909089GF103991031091008001001001KA1120M+03221MA1999999100631MD1310041+9999REMSYN110AAXX  28154 67073 32581 33004 10298 20253 30063 40089 53004 83900 333 10322 82823 81923 94993 95813 555 82640;
0195670730999992000022900004-18050+044030FM-12+0023FMMO V0209999C000012200019N0250001N1+02501+02431100861ADDAA199000091GA1021+030009079GF102991021001999999031001MA1999999100601MD1610121+9999REMSYN082AAXX  29004 67073 33975 20000 10250 20243 30060 40086 56012 82030 333 0//00 82360;EQDQ01  00002PRCP99
0211670730999992000022903004-18050+044030FM-12+0023FMMO V0209999C00001012001CN0300001N1+02481+02461100931ADDAA199000091GA1011+030009039GF106991061081008001031061MA1999999100671MD1310071+9999REMSYN098AAXX  29034 67073 32580 60000 10248 20246 30067 40093 53007 86836 333 82820 86630 555 81360 81273;EQDQ01  00002PRCP99
0289670730999992000022906004-18050+044030FM-12+0023FMMO V0200201N002610690019N0400001N1+02981+02501101111ADDAA199000091GA1041+006909089GA2051+069009029GF105991041021008001051061IA2240+02409KA1120M+03221KA2120N+02481MA1999999100851MD1210181+9999REMSYN122AAXX  29064 67073 32582 50205 10298 20250 30085 40111 52018 84256 333 02400 10322 20248 50//4 55/// 84823 85273 555 82360;EQDQ01  00002PRCP99
0229670730999992000022909004-18050+044030FM-12+0023FMMO V0203001N00461007501CN0400001N1+03161+02581101031ADDAA199000091GA1011+030009039GF108991051091008001031081MA1999999100771MD1810081+9999REMSYN116AAXX  29094 67073 32582 83009 10316 20258 30077 40103 58008 85938 333 85823 81923 94965 94966 95836 555 81360 83273;EQDQ01  00002PRCP99
0269670730999992000022912004-18050+044030FM-12+0023FMMO V0203001N004610450019N0150001N1+03001+02581100861ADDAA199000091AY191061AY221061GA1011+006909099GA2041+006909089GF105991041091008001061031MA1999999100601MD1710171+9999MW1171REMSYN118AAXX  29124 67073 31565 53009 10300 20258 30060 40086 57017 71792 84963 333 0//00 84823 81923 94962 94963 95832 95833;EQDQ01  00002PRCP99
0304670730999992000022915004-18050+044030FM-12+0023FMMO V0202801N00311105001CN0200001N1+02881+02581100881ADDAA199000091AY191031AY291031GA1011+006009099GA2011+006009089GA3031+030009039GF105991021091008001061031KA1120M+03241MA1999999100621MD1310021+9999MW1291REMSYN124AAXX  29154 67073 31570 52806 10288 20258 30062 40088 53002 72999 82963 333 10324 81820 81920 83360 94961 94962 95811 95812;EQDQ01  00002PRCP99
0195670730999992000030103004-18050+044030FM-12+0023FMMO V0209999C00001105001CN0350001N1+02521+02481100961ADDAA199000091GA1021+006009089GF105991021021008001001021MA1999999100701MD1310041+9999REMSYN082AAXX  01034 67073 32581 50000 10252 20248 30070 40096 53004 82202 333 82820 84073;EQDQ01  00002PRCP99
0263670730999992000030106004-18050+044030FM-12+0023FMMO V0201401N00211105001CN0400001N1+02941+02611101081ADDAA199000091GA1031+006009089GF105991031021008001001021IA2240+02409KA1120M+03241KA2120N+02521MA1999999100821MD1110121+9999REMSYN112AAXX  01064 67073 32582 51404 10294 20261 30082 40108 51012 83202 333 02400 10324 20252 50//4 55/// 83820 83073;EQDQ01  00002PRCP99
0239670730999992000030112004-18050+044030FM-12+0023FMMO V0202201N004612200019N0400001N1+03141+02671100681ADDAA199000091GA1011+006909099GA2031+006909089GF104991031091008001001021MA1999999100421MD1610251+9999REMSYN110AAXX  01124 67073 32582 42209 10314 20267 30042 40068 56025 83902 333 0//00 83823 81923 94991 95811 555 82073;EQDQ01  00002PRCP99
0260670730999992000030206004-18050+044030FM-12+0023FMMO V0209999C000010450019N0400001N1+02901+02651100871ADDAA124004191GA1021+012009069GF105991021081008001031001IA2240+02209KA1120M+03181KA2120N+02331MA1999999100611MD1110121+9999REMSYN128AAXX  02064 67073 12582 50000 10290 20265 30061 40087 51012 60044 82830 333 02219 10318 20233 50//4 55/// 81823 555 82640 83360;
0229670730999992000030212004-18050+044030FM-12+0023FMMO V0202601N005110069019N0400001N1+03081+02721100571ADDAA199000091GA1011+006909099GA2041+006909089GF108991051091008001031021MA1999999100311MD1610291+9999REMSYN100AAXX  02124 67073 32582 82610 10308 20272 30031 40057 56029 85932 333 0//00 84823 81923 94993 95813;EQDQ01  00002PRCP99
0270670730999992000030215004-18050+044030FM-12+0023FMMO V0202201N002110450019N0300001N1+02961+02631100651ADDAA199000091AY191031AY221031GA1011+006009099GA2041+006009089GF107991041091008001071031KA1120M+03201MA1999999100391MD1310081+9999MW1021REMSYN106AAXX  02154 67073 31580 72204 10296 20263 30039 40065 53008 70292 84973 333 10320 84820 81920 94992 95812;EQDQ01  00002PRCP99
0205670730999992000030221004-18050+044030FM-12+0023FMMO V0209999C000012200019N0300001N1+02611+02541100701ADDAA199000091GA1011+069009019GF101991001001999999001021MA1999999100441MD1110021+9999REMSYN076AAXX  02214 67073 33980 10000 10261 20254 30044 40070 51002 81002 333 81073;EQDQ01+000012SCOTLCQ02  00002PRCP99
0211670730999992000030300004-18050+044030FM-12+0023FMMO V0209999C000012200019N0300001N1+02601+02541100561ADDAA199000091GA1011+069009019GF101991001001999999001021MA1999999100301MD1610141+9999REMSYN082AAXX  03004 67073 32580 10000 10260 20254 30030 40056 56014 80002 333 0//00 81073;EQDQ01+008002SCOLCBQ02  00002PRCP99
0217670730999992000030303004-18050+044030FM-12+0023FMMO V0209999C000010060019N0200001N1+02811+02631100521ADDAA199000091AY111031AY201031GA1051+006009029GF106991061081008001001001MA1999999100261MD1510041+9999MW1151REMSYN082AAXX  03034 67073 31570 60000 10281 20263 30026 40052 55004 71510 86800 333 85820;EQDQ01  00002PRCP99
0257670730999992000030306004-18050+044030FM-12+0023FMMO V0202601N003110450019N0300001N1+02981+02731100711ADDAA199000091GA1031+006009029GF106991041081008001031021IA2240+02509KA1120M+03201KA2120N+02571MA1999999100451MD1110191+9999REMSYN106AAXX  03064 67073 32580 62606 10298 20273 30045 40071 51019 84832 333 02500 10320 20257 50//4 55/// 83820;EQDQ01  00002PRCP99
0235670730999992000030309004-18050+044030FM-12+0023FMMO V0202201N003611050019N0300001N1+03181+02661100591ADDAA199000091GA1011+006009099GA2041+006009089GF105991041091008001001021MA1999999100331MD1810121+9999REMSYN106AAXX  03094 67073 32580 52207 10318 20266 30033 40059 58012 84902 333 84820 81920 94991 94992 95811 95812;EQDQ01  00002PRCP99
0229670730999992000030312004-18050+044030FM-12+0023FMMO V0202401N00411007501CN0250001N1+03211+02821100431ADDAA199000091GA1011+012009069GF106991061091008001001021MA1999999100171MD1810161+9999REMSYN116AAXX  03124 67073 31575 62408 10321 20282 30017 40043 58016 86902 333 0//00 85820 81920 94991 95811 555 81640 81073;EQDQ01  00002PRCP99
0304670730999992000030315004-18050+044030FM-12+0023FMMO V0203601N00211009001CN0150001N1+02661+02371100671ADDAA199000091AY191031AY221031GA1011+006009099GA2041+006009089GA3031+009009069GF107991071091008001999999KA1120M+03231MA1999999100411MD1310241+9999MW1171REMSYN124AAXX  03154 67073 31565 73604 10266 20237 30041 40067 53024 71792 879// 333 10323 84820 81920 83630 94991 94992 95871 95872;EQDQ01  00002PRCP99
0192670730999992000030403004-18050+044030FM-12+0023FMMO V0209999999999012001CN0300001N1+02411+02351100761ADDAA112039091GA1021+009009069GF106991061081008001001021MA1999999100501MD1310091+9999REMSYN098AAXX  04034 67073 23580 6//03 10241 20235 30050 40076 53009 86802 333 60392 84820 555 82630 81073;
0282670730999992000030406004-18050+044030FM-12+0023FMMO V0203601N002610450019N0400001N1+02871+02611100931ADDAA124039191GA1011+012009069GA2011+030009039GF105991031081008001031021IA2240+02209KA1120M+03231KA2120N+02301MA1999999100671MD1110171+9999REMSYN134AAXX  04064 67073 12582 53605 10287 20261 30067 40093 51017 60394 83832 333 02289 10323 20230 50//4 55/// 83823 555 81640 81360 81073;
0195670730999992000030503004-18050+044030FM-12+0023FMMO V0200201N00211012001CN0300001N1+02531+02461100981ADDAA199000091GA1041+006009089GF107991061081008001001021MA1999999100721MD1310091+9999REMSYN082AAXX  05034 67073 33580 70204 10253 20246 30072 40098 53009 86802 333 84820 83633;EQDQ01  00002PRCP99
0257670730999992000030506004-18050+044030FM-12+0023FMMO V0203601N003610060019N0400001N1+02961+02601101141ADDAA199000091GA1061+006009029GF106991061021008001001021IA2240+02409KA1120M+03121KA2120N+02531MA1999999100881MD1110161+9999REMSYN106AAXX  05064 67073 32582 63607 10296 20260 30088 40114 51016 86202 333 02400 10312 20253 50//4 55/// 86820;EQDQ01  00002PRCP99
0232670730999992000030603004-18050+044030FM-12+0023FMMO V0200201N002110450019N0300001N1+02611+02551100901ADDAA112000191GA1011+009009069GA2011+030009039GF106991041091008001031021MA1999999100641MD1310021+9999REMSYN122AAXX  06034 67073 23580 60204 10261 20255 30064 40090 53002 84932 333 69912 84820 81920 94993 95813 555 81630 81360 81073;
0306670730999992000030606004-18050+044030FM-12+0023FMMO V0200201N003110450019N0250001N1+02741+02641101051ADDAA124000191AY121061AY221061GA1031+030009039GF107991041091008001031031IA2240+02509KA1120M+03121KA2120N+02611MA1999999100791MD1110151+9999MW1151REMSYN152AAXX  06064 67073 11575 70206 10274 20264 30079 40105 51015 69914 71522 84933 333 02519 10312 20261 5///4 55/// 84820 81920 94994 95814 555 83360 82073;
0235670730999992000030609004-18050+044030FM-12+0023FMMO V0203601N00361007501CN0300001N1+02941+02521101041ADDAA199000091GA1011+030009039GF107991061091008001031031MA1999999100781MD1810011+9999REMSYN122AAXX  06094 67073 32580 73607 10294 20252 30078 40104 58001 86933 333 86820 81920 94993 94995 95813 95815 555 81360 82073;EQDQ01  00002PRCP99
