0232671430999992000010103004-21200+048370FM-12+0006FMSM V0209999C000012200019N0200001N1+02581+02321101201ADDAA112002091AY161031AY221031GA1011+006009089GA2061+012009069GF199999041081008001001021MA1999999101131MD1310021+9999MW1151REMSYN100AAXX  01034 67143 21570 40000 10258 20232 30113 40120 53002 71562 84802 333 60022 81820 86640 92438;
0256671430999992000010106004-21200+048370FM-12+0006FMSM V0200401N002112200019N0300001N1+02751+02281101311ADDAA124002091AC12C9GA1041+006009089GF104991041081004501001001IA2240+01809KA1120M+03041KA2120N+02361MA1999999101241MD1210111+9999REMSYN118AAXX  01064 67143 12480 40404 10275 20228 30124 40131 52011 60024 84800 333 01812 10304 20236 5///4 55/// 84820 92438;
0229671430999992000010109004-21200+048370FM-12+0006FMSM V0200401N003112200019N0300001N1+02881+02301101191ADDAA106000091GA1011+006009099GA2021+006009089GF102991021091008001001001MA1999999101121MD1810101+9999REMSYN100AAXX  01094 67143 32580 20406 10288 20230 30112 40119 58010 82900 333 82820 81920 94991 95831 92438;EQDQ01  00002PRCP06
0211671430999992000010112004-21200+048370FM-12+0006FMSM V0200601N005112200019N0300001N1+02901+02421101151ADDAA106000091GA1011+006009089GF101991011081008001001001MA1999999101081MD1610041+9999REMSYN098AAXX  01124 67143 32580 10610 10290 20242 30108 40115 56004 81800 333 0//00 81820 92438 555 81640;EQDQ01  00002PRCP06
0246671430999992000010115004-21200+048370FM-12+0006FMSM V0200401N004112200019N0300001N1+02751+02481101251ADDAA106000091GA1011+006009089GA2031+069009009GF103991031081008001001021KA1120M+03021MA1999999101181MD1310101+9999REMSYN104AAXX  01154 67143 32580 30408 10275 20248 30118 40125 53010 83802 333 10302 81820 83073 92436 555 81640;EQDQ01  00002PRCP06
0210671430999992000010200004-21200+048370FM-12+0006FMSM V0202201N002110099019N0200001N1+02431+02261101291ADDAA106003091GA1031+006009089GA2031+009909069GF105991051081008001001001MA1999999101221MD1710131+9999REMSYN100AAXX  02004 67143 11570 52204 10243 20226 30122 40129 57013 60031 85800 333 0//19 83820 83633 924/8;
0208671430999992000010203004-21200+048370FM-12+0006FMSM V0209999C000012200019N0300001N1+02341+02281101331ADDAY161031AY221031GA1041+006009089GF104991041081008001001001MA1999999101261MD1310041+9999MW1011REMSYN103AAXX  02034 67143 21580 40000 10234 20228 30126 40133 53004 70162 84800 333 6032 84820 92438 555 81640;
0294671430999992000010206004-21200+048370FM-12+0006FMSM V0201201N002110060019N0200001N1+02681+02321101421ADDAA124003091AC12I9AY161061AY221061GA1051+006009089GF106991061081008001001001IA2240+01809KA1120M+03021KA2120N+02321MA1999999101351MD1110091+9999MW1151REMSYN134AAXX  02064 67143 11570 61204 10268 20232 30135 40142 51009 60034 71562 86800 333 01816 10302 20232 50//4 55/// 85820 92438 555 82633;
0205671430999992000010209004-21200+048370FM-12+0006FMSM V0200801N002112200019N0400001N1+02861+02441101271ADDAA106000091GA1041+006009089GF104991041081008001001001MA1999999101201MD1710151+9999REMSYN092AAXX  02094 67143 32582 40804 10286 20244 30120 40127 57015 84800 333 84820 92438 555 81640;EQDQ01  00002PRCP06
0195671430999992000010212004-21200+048370FM-12+0006FMSM V0200801N004112200019N0400001N1+02901+02401101211ADDAA106000091GA1041+006909029GF104991041081008001001001MA1999999101141MD1710061+9999REMSYN082AAXX  02124 67143 32582 40808 10290 20240 30114 40121 57006 84800 333 0//00 84823;EQDQ01  00002PRCP06
0214671430999992000010215004-21200+048370FM-12+0006FMSM V0200801N003112200019N0350001N1+02731+02321101261ADDAA106000091GA1041+006009089GF104991041081008001001021KA1120M+03031MA1999999101191MD1310051+9999REMSYN088AAXX  02154 67143 32581 40806 10273 20232 30119 40126 53005 84802 333 10303 84820 92438;EQDQ01  00002PRCP06
0236671430999992000010300004-21200+048370FM-12+0006FMSM V0202401N002112200019N0300001N1+02511+02381101241ADDAA106004191AC10I9AY161061GA1021+006009089GA2021+009909069GF103991031081008001001001MA1999999101171MD1710101+9999MW1001REMSYN106AAXX  03004 67143 11580 32404 10251 20238 30117 40124 57010 60041 7006/ 83800 333 0//64 82820 82633 924/8;
0204671430999992000010303004-21200+048370FM-12+0006FMSM V0202201N001012200019N0300001N1+02371+02261101281ADDAA112004091GA1021+006009089GA2031+012009069GF104991041081008001001001MA1999999101211MD1310041+9999REMSYN094AAXX  03034 67143 22580 42202 10237 20226 30121 40128 53004 84800 333 60042 82820 83640 92438;
0256671430999992000010306004-21200+048370FM-12+0006FMSM V0201201N001012200019N0400001N1+02801+02401101311ADDAA124004191AC13I9GA1041+006009089GF104991041021008001001001IA2240+02009KA1120M+03031KA2120N+02261MA1999999101241MD1210031+9999REMSYN118AAXX  03064 67143 12582 41202 10280 20240 30124 40131 52003 60044 84200 333 02068 10303 20226 50/// 55/// 84820 92438;
0195671430999992000010309004-21200+048370FM-12+0006FMSM V0200801N003112200019N0400001N1+02851+02301101191ADDAA106000091GA1041+006909089GF104991041021008001001001MA1999999101121MD1710121+9999REMSYN082AAXX  03094 67143 32582 40806 10285 20230 30112 40119 57012 84200 333 84823 92438;EQDQ01  00002PRCP06
0211671430999992000010312004-21200+048370FM-12+0006FMSM V0200801N004112200019N0400001N1+02901+02281101001ADDAA106000091GA1031+006909089GF103991031021008001001021MA1999999100931MD1710191+9999REMSYN098AAXX  03124 67143 32582 30808 10290 20228 30093 40100 57019 83202 333 0//00 83823 92438 555 81075;EQDQ01  00002PRCP06
0224671430999992000010315004-21200+048370FM-12+0006FMSM V0200601N003112200019N0350001N1+02771+02361101071ADDAA106000091GA1031+006009089GF103991031021008001001021KA1120M+02961MA1999999101001MD1310071+9999REMSYN098AAXX  03154 67143 32581 30606 10277 20236 30100 40107 53007 83202 333 10296 83820 92438 555 81075;EQDQ01  00002PRCP06
0217671430999992000010400004-21200+048370FM-12+0006FMSM V0202201N002112200019N0300001N1+02301+02181101101ADDAA106000091GA1011+006009089GA2041+012009069GF104991041081008001001001MA1999999101031MD1310061+9999REMSYN088AAXX  04004 67143 32580 42204 10230 20218 30103 40110 53006 84800 333 81820 84640 92438;EQDQ01  00002PRCP06
0273671430999992000010406004-21200+048370FM-12+0006FMSM V0200601N002112200019N0300001N1+02841+02381101171ADDAA106000091GA1041+006009089GF104991041081008001001001IA2240+01609KA1120M+02961KA2120N+02181MA1999999101101MD1210071+9999REMSYN122AAXX  04064 67143 32580 40604 10284 20238 30110 40117 52007 84800 333 01600 10296 20218 50//4 55/// 84820 92438 555 81650;EQDQ01  00002PRCP06
0195671430999992000010409004-21200+048370FM-12+0006FMSM V0200601N004112200019N0400001N1+02951+02421101091ADDAA106000091GA1041+006909089GF104991041021008001001001MA1999999101021MD1710081+9999REMSYN082AAXX  04094 67143 32582 40608 10295 20242 30102 40109 57008 84200 333 84823 92438;EQDQ01  00002PRCP06
0251671430999992000010709004-21200+048370FM-12+0006FMSM V0200601N002110120019N0350001N1+02801+02301101031ADDAA106000091GA1011+006009099GA2031+006009089GA3051+012009069GF107991071091008001999999MA1999999100961MD1810051+9999REMSYN106AAXX  07094 67143 32581 70604 10280 20230 30096 40103 58005 879// 333 83820 81920 85640 94995 95835 92438;EQDQ01  00002PRCP06
0244671430999992000010715004-21200+048370FM-12+0006FMSM V0200201N002119999999N0300001N1+02721+02431999999ADDAA106000091GA1011+012009069GF106991999071004501081999KA1120M+03041MA1999999101271REMSYN116AAXX  07154 67143 32480 60204 10272 20243 30127 8778/ 333 10304 83817 81917 83073 94995 95835 92438 555 81640 81360;EQDQ01+000072SCOTLCQ02  00002PRCP06
0261671430999992000010809004-21200+048370FM-12+0006FMSM V0200801N00311012001CN0200001N1+02901+02381100861ADDAA106000091AY121031AY221031GA1031+012009069GA2011+030009039GF106991061081008001031021MA1999999100791MD1710151+9999MW1151REMSYN110AAXX  08094 67143 31570 60806 10290 20238 30079 40086 57015 71522 86832 333 84820 92438 555 83640 81360 82073;EQDQ01  00002PRCP06
0236671430999992000010815004-21200+048370FM-12+0006FMSM V0200401N002110120019N0350001N1+02721+02381100771ADDAA106000091GA1021+006009089GA2041+012009069GF105991051081008001001021KA1120M+02961MA1999999100701MD1310031+9999REMSYN094AAXX  08154 67143 32581 50404 10272 20238 30070 40077 53003 85802 333 10296 82820 84640 92438;EQDQ01  00002PRCP06
0195671430999992000010909004-21200+048370FM-12+0006FMSM V0200201N004112200019N0300001N1+02821+02331100871ADDAA106000091GA1041+006009089GF104991041081008001031001MA1999999100801MD1710091+9999REMSYN082AAXX  09094 67143 32580 40208 10282 20233 30080 40087 57009 84830 333 84820 92438;EQDQ01  00002PRCP06
0236671430999992000011003004-21200+048370FM-12+0006FMSM V0209999C000010099019N0300001N1+99999+99999100751ADDAA112015091AY161031AY221031GA1031+002109089GA2051+009909069GF106991051081004501001031MA1999999100681MD1510061+9999MW1011REMSYN104AAXX  10034 67143 21480 60000 20229 30068 40075 55006 70162 85803 333 60152 83807 85633 92438 555 82#73;
0285671430999992000011015004-21200+048370FM-12+0006FMSM V02099999999990099019N9999999N1+02581+02441100691ADDAA106002091AY191031AY221031GA1011+005109099GA2021+005109089GA3071+009909069GF108991081091012501999999KA1120M+02831MA1999999100621MD1310171+9999MW1951REMSYN124AAXX  10154 67143 2160/ 8202/ 10258 20244 30062 40069 53017 79592 889// 333 10283 60021 82817 81917 87633 94996 95836 92436;
0235671430999992000011100004-21200+048370FM-12+0006FMSM V0202401N00101012001CN0200001N1+02281+02161100611ADDAA106000091GA1011+006009089GF107991061081008001071999MA1999999100541MD1710081+9999MW1151REMSYN116AAXX  11004 67143 31570 72402 10228 20216 30054 40061 57008 715// 8687/ 333 0//00 83713 86633 924/8 555 81820 83460;EQDQ01  00002PRCP06
0217671430999992000011103004-21200+048370FM-12+0006FMSM V0202401N00101012001CN0300001N1+02351+02261100641ADDAA106000091GA1021+006009089GF107991061081008001071999MA1999999100571MD1310031+9999REMSYN104AAXX  11034 67143 32580 72402 10235 20226 30057 40064 53003 8687/ 333 82713 86633 92438 555 82820 82460;EQDQ01  00002PRCP06
0233671430999992000011203004-21200+048370FM-12+0006FMSM V0209999C000010300019N0200001N1+02421+02321100431ADDAA112000891AY161031AY221031GA1011+005109089GA2031+009909069GA3041+030009049GF107991999999004501999999MD1310051+9999MW1151REMSYN100AAXX  12034 67143 21470 70000 10242 20232 300/6 40043 53005 71562 333 69982 81817 83633 84460 92438;
0211671430999992000011209004-21200+048370FM-12+0006FMSM V0201201N00411009001CN0300001N1+02701+02341100411ADDAA106000091GA1031+030009049GF107991061081004501071999MA1999999100341MD1710111+9999REMSYN098AAXX  12094 67143 32480 71208 10270 20234 30034 40041 57011 8687/ 333 81817 85633 555 83460 92438;EQDQ01  00002PRCP06
0219671430999992000011215004-21200+048370FM-12+0006FMSM V0202801N002110033019N0200001N1+02651+02441100301ADDAY161031AY221031GA1091+003309099GA2021+005409089GF108991091081004501999999MD1310031+9999MW1151REMSYN094AAXX  12154 67143 21470 82804 10265 20244 3/023 40030 53003 71562 878// 333 89911 82818 92438;EQDQ01+000072SCOTLC
0246671430999992000011300004-21200+048370FM-12+0006FMSM V0200801N002110360019N0200001N1+02501+02331100281ADDAA106000191AC13I9AY161061GA1011+005109089GA2041+009909069GF107991041081004501071999MA1999999100211MD1710171+9999MW1151REMSYN116AAXX  13004 67143 11470 70804 10250 20233 30021 40028 57017 69921 7156/ 8487/ 333 0//18 81817 84633 924/8 555 84460;
0254671430999992000011303004-21200+048370FM-12+0006FMSM V0202401N001010099019N0200001N1+02481+02311100301ADDAA112000291AY161031AY221031GA1011+005109089GA2051+009909069GA3031+030009049GF108991051081004501071999MA1999999100231MD1510021+9999MW1151REMSYN106AAXX  13034 67143 21470 82402 10248 20231 30023 40030 55002 71562 8587/ 333 69922 81817 85633 83460 92438;
0218671430999992000011403004-21200+048370FM-12+000699999V0200801N00101220001SN0300001N1+02341+02191100251ADDAA112001091GA1011+006009089GA2031+012009069GF103991031081008001001021MA1999999100181MD1310031+9999REMSYN108    AAXX  14034 67143 22580 30802 10234 20219 30018 40025 53003 83802 333 60012 81820 83640 92438 555 81073;
0215671430999992000011409004-21200+048370FM-12+000699999V0200601N00411220001SN0400001N1+02971+02651100201ADDAA199000091GA1011+012009069GF102991021081008001001021MA1999999100131MD1810131+9999REMSYN102    AAXX  14094 67143 32582 20608 10297 20265 30013 40020 58013 82802 333 82820 92438 555 81640 81075;EQDQ01  00002PRCP99
0237671430999992000011412004-21200+048370FM-12+000699999V0200601N00411220001SN0400001N1+03031+02361100081ADDAA199000091GA1011+006909089GA2041+015009069GF104991041081008001001021MA1999999100011MD1710121+9999REMSYN108    AAXX  14124 67143 32582 40608 10303 20236 30001 40008 57012 84802 333 0//00 81823 84650 92438 555 81075;EQDQ01  00002PRCP99
0221671430999992000011503004-21200+048370FM-12+000699999V0202201N00101012001SN0300001N1+02441+02231100231ADDAA199000091GA1011+006009089GA2061+012009069GF106991061081008001001001MA1999999100161MD1310141+9999REMSYN092    AAXX  15034 67143 32580 62202 10244 20223 30016 40023 53014 86800 333 81820 86640 92438;EQDQ01  00002PRCP99
0299671430999992000011506004-21200+048370FM-12+000699999V0202201N00101012001SN0300001N1+02861+02401100301ADDAA199000091GA1011+006009089GA2061+012009069GF106991061081008001031001IA2240+01709KA1120M+03141KA2120N+02361MA1999999100231MD1210071+9999REMSYN132    AAXX  15064 67143 32580 62202 10286 20240 30023 40030 52007 86830 333 01700 10314 20236 50//4 55/// 81820 86640 92438 555 81360;EQDQ01  00002PRCP99
0257671430999992000011512004-21200+048370FM-12+000699999V0200601N00211008701SN0400001N1+02971+02621100141ADDAA199000091GA1031+006009089GA2021+008709099GF106991061091008001001021MA1999999100071MD1710131+9999REMSYN128    AAXX  15124 67143 32582 60604 10297 20262 30007 40014 57013 86902 333 0//00 82929 83820 94995 94996 94997 95815 95816 92438;EQDQ01  00002PRCP99
0221671430999992000011603004-21200+048370FM-12+000699999V0200401N01441009901SN0300001N1+02531+02421100901ADDAA199000091GA1011+005109089GA2071+009909069GF107991071081004501999999MA1999999100431MD1310131+9999REMSYN092    AAXX  16034 67143 32480 70428 10253 20242 30043 40090 53013 878// 333 81817 87633 92438;EQDQ01  00002PRCP99
0289671430999992000011606004-21200+048370FM-12+000699999V0202201N00101009901SN0300001N1+02871+02521100591ADDAA199000091GA1011+006009089GA2071+009909069GF107991071081008001999999IA2240+01909KA1120M+03131KA2120N+02491MA1999999100521MD1210091+9999REMSYN122    AAXX  16064 67143 32580 72202 10287 20252 30052 40059 52009 878// 333 01900 10313 20249 50//4 55/// 81820 87633 92438;EQDQ01  00002PRCP99
0231671430999992000011609004-21200+048370FM-12+000699999V0201401N00411075001SN0400001N1+03001+02611100521ADDAA199000091GA1021+006009089GA2051+075009009GF105991021021008001031021MA1999999100451MD1810071+9999REMSYN102    AAXX  16094 67143 32582 51408 10300 20261 30045 40052 58007 82232 333 82820 85075 92438 555 82360;EQDQ01  00002PRCP99
0208671430999992000011703004-21200+048370FM-12+000699999V0201201N00101009901SN0300001N1+02541+02441100771ADDAA112031091GA1021+006009089GA2061+009909069GF106991061081008001031001MA1999999100701MD1310051+9999REMSYN098    AAXX  17034 67143 2/580 61202 10254 20244 30070 40077 53005 86830 333 60312 82820 86633 92438;
0193671430999992000011709004-21200+048370FM-12+000699999V0202601N00311012001CN0400001N1+02931+02561100701ADDAA199000091GA1031+006909029GF106991061081008001001001MA1999999100581MD1810091+9999REMSYN080    AAXX  17094 67143 32582 62606 10293 20256 30058 40070 58009 86800 333 83823;EQDQ01  00002PRCP99
0283671430999992000011712004-21200+048370FM-12+000699999V0200801N00211015001SN0400001N1+03031+02601100491ADDAA199000091GA1011+006009099GA2031+006009089GA3041+015009069GF105991051031008001001021MA1999999100421MD1710211+9999REMSYN138    AAXX  17124 67143 32582 50804 10303 20260 30042 40049 57021 85302 333 0//00 83820 81920 84650 94996 94997 95836 95837 92438 555 81075;EQDQ01  00002PRCP99
0296671430999992000011715004-21200+048370FM-12+000699999V0200801N00211012001SN0300001N1+02861+99999100661ADDAA199000091GA1021+006009099GA2021+006009089GA3051+012009069GF107991061091008001031999KA1120M+03161MA1999999100591MD1310171+9999REMSYN138    AAXX  17154 67143 32580 70804 10286 202/6 30059 40066 53017 8693/ 333 10316 82820 82920 85640 94996 94997 94998 95836 95837 555 82360;EQDQ01  00002PRCP99
0282671430999992000011806004-21200+048370FM-12+000699999V0202801N00101012001SN0300001N1+02811+02481100801ADDAA124006191AC13I9GA1021+006009089GA2051+012009069GF106991061081008001001001IA2240+01809KA1120M+03161KA2120N+02301MA1999999100731MD1210091+9999REMSYN128    AAXX  18064 67143 12580 62802 10281 20248 30073 40080 52009 60064 86800 333 01898 10316 20230 50//4 55/// 82820 85640 92438;
0215671430999992000011900004-21200+048370FM-12+000699999V0202801N00101220001SN0300001N1+02581+02321100811ADDAA199000091GA1021+006009089GF102991021081008001001001MA1999999100741MD1710091+9999REMSYN102    AAXX  19004 67143 33580 22802 10258 20232 30074 40081 57009 82800 333 0//00 82820 924/8 555 82640;EQDQ01  00002PRCP99
0277671430999992000011906004-21200+048370FM-12+000699999V0200401N00311220001SN0400001N1+03001+02611101011ADDAA199000091GA1011+006009089GF101991011081008001001001IA2240+01809KA1120M+03121KA2120N+02561MA1999999100941MD1110081+9999REMSYN126    AAXX  19064 67143 32582 10406 10300 20261 30094 40101 51008 81800 333 01800 10312 20256 50//4 55/// 81820 90248 555 81640;EQDQ01  00002PRCP99
0215671430999992000011909004-21200+048370FM-12+000699999V0200401N00311220001SN0400001N1+03021+02661999999ADDAA199000091GA1011+006009089GF101991011021008001001001MA1999999100811MD1810131+9999REMSYN086    AAXX  19094 67143 32582 10406 10302 20266 30081 40888 58013 81200 333 81820 92438;EQDQ01+108883APOSLPQ02  00002PRCP99
0273671430999992000011912004-21200+048370FM-12+000699999V0200401N00211007501CN0200001N1+02981+02651100771ADDAA199000091AY121061AY201061GA1021+006009099GA2011+006009089GF105991051091008001001001MA1999999100701MD1610101+9999MW1171REMSYN122    AAXX  19124 67143 31570 50404 10298 20265 30070 40077 56010 71720 85900 333 0//00 81820 82920 94997 94998 95838 92438;EQDQ01  00002PRCP99
0276671430999992000011915004-21200+048370FM-12+0006FMSM V0200401N00311007501CN0200001N1+02901+02601100831ADDAA199000091AY121031AY221031GA1021+030009049GF106991061091008001031021KA1120M+03121MA1999999100761MD1310061+9999MW1101REMSYN128AAXX  19154 67143 31570 60406 10290 20260 30076 40083 53006 71022 86932 333 10312 81820 81920 94998 95838 92438 555 82460 81073;EQDQ01  00002PRCP99
0214671430999992000012003004-21200+048370FM-12+0006FMSM V0202001N003112200019N0300001N1+02521+02341101111ADDAA112004091GA1021+006009089GA2031+069009009GF104991031081008001001021MA1999999101041MD1210111+9999REMSYN104AAXX  20034 67143 22580 42006 10252 20234 30104 40111 52011 83802 333 60042 82820 83073 92438 555 82640;
0278671430999992000012006004-21200+048370FM-12+0006FMSM V0202201N005110060019N0300001N1+02821+02511101231ADDAA124004191AC13I9GA1031+003009079GA2051+006009089GF106991061021004501001001IA2240+01709KA1120M+03121KA2120N+02471MA1999999101161MD1210121+9999REMSYN124AAXX  20064 67143 12480 62210 10282 20251 30116 40123 52012 60044 86200 333 01797 10312 20247 50//4 55/// 83710 85820 92438;
0232671430999992000012009004-21200+048370FM-12+0006FMSM V0202601N004110099019N0100001N1+02701+02461101181ADDAA106000491AY121031AY221031GA1031+006009089GA2051+009909069GF106991061081008001001001MA1999999101111MD1810051+9999MW1601REMSYN100AAXX  20094 67143 21560 62608 10270 20246 30111 40118 58005 76022 86800 333 69941 83820 85633 92437;
0306671430999992000012012004-21200+048370FM-12+0006FMSM V0202401N006210099019N0200001N1+02931+02311101011ADDAA106000591AC10I9AY161061AY221061GA1011+006009099GA2031+006009089GA3041+009909069GF105991051091008001001021MA1999999100941MD1710171+9999MW1151REMSYN152AAXX  20124 67143 11570 52412 10293 20231 30094 40101 57017 69941 71562 85902 333 0//14 83820 81920 84633 94994 94995 94996 95835 95836 92438 555 81073;
0266671430999992000012100004-21200+048370FM-12+0006FMSM V0202201N002110090019N0050001N1+02321+02231101251ADDAA106061091AC13I9AY161061AY261061GA1021+005109089GA2041+009009069GA3061+030009049GF108991051081004501071999MA1999999101181MD1710111+9999MW1611REMSYN112AAXX  21004 67143 11450 82204 10232 20223 30118 40125 57011 60611 76166 8587/ 333 0//67 82817 84630 86460 924/6;
0254671430999992000012103004-21200+048370FM-12+0006FMSM V0203601N002110099019N0150001N1+02301+02221101351ADDAA112071091AY161031AY261031GA1031+005109089GA2041+009909069GA3051+030009049GF108991051081004501071999MA1999999101281MD1310101+9999MW1211REMSYN106AAXX  21034 67143 21465 83604 10230 20222 30128 40135 53010 72166 8587/ 333 60712 83817 84633 85460 92437;
0306671430999992000012106004-21200+048370FM-12+0006FMSM V0202401N005110099019N0300001N1+02551+02271101401ADDAA124071191AC10I9AY161061AY221061GA1041+006009089GA2061+009909069GF107991071081008001999999IA2240+01709KA1120M+03021KA2120N+02201MA1999999101331MD1110051+9999MW1021REMSYN130AAXX  21064 67143 11580 72410 10255 20227 30133 40140 51005 60714 70262 878// 333 01764 10302 20220 50//4 55/// 84820 86633 92438;
0226671430999992000012109004-21200+048370FM-12+0006FMSM V0202001N003110099019N0200001N1+02671+02231101291ADDAA199000021AY121031AY221031GA1031+006009089GA2071+009909069GF107991071081008001999999MA1999999101221MD1710111+9999MW1131REMSYN094AAXX  21094 67143 31570 72006 10267 20223 30122 40129 57011 71322 878// 333 83820 87633 92438;
0232671430999992000012112004-21200+048370FM-12+0006FMSM V0203001N006210099019N0250001N1+02661+02221101201ADDAA199000021AY121061AY221061GA1031+006009089GA2071+009909069GF107991071081008001999999MA1999999101131MD1710091+9999MW1151REMSYN100AAXX  21124 67143 31575 73012 10266 20222 30113 40120 57009 71522 878// 333 0//00 83820 87633 92438;
0245671430999992000012115004-21200+048370FM-12+0006FMSM V0201801N002110099019N0200001N1+02441+02201101281ADDAA199000021AY121031AY221031GA1041+005109089GA2071+009909069GF107991071081004501999999KA1120M+02821MA1999999101211MD1310081+9999MW1151REMSYN100AAXX  21154 67143 31470 71804 10244 20220 30121 40128 53008 71522 878// 333 10282 84817 87633 92438;
0254671430999992000012203004-21200+048370FM-12+0006FMSM V0201801N003110090019N0200001N1+02181+01901101441ADDAA112005091AY161031AY221031GA1021+005109089GA2051+009009069GA3061+030009049GF108991051081008001071999MA1999999101371MD1310131+9999MW1151REMSYN106AAXX  22034 67143 21570 81806 10218 20190 30137 40144 53013 71562 8587/ 333 60052 82817 85630 86460 92438;
0328671430999992000012206004-21200+048370FM-12+0006FMSM V0201601N004110090019N0050001N1+02451+02171101521ADDAA124005191AC11I9AY161061AY221061GA1031+005109089GA2041+009009069GA3041+030009049GF108991061081004501071999IA2240+01509KA1120M+02821KA2120N+02181MA1999999101451MD1210081+9999MW1601REMSYN136AAXX  22064 67143 11450 81608 10245 20217 30145 40152 52008 60054 76062 8687/ 333 01555 10282 20218 50//4 55/// 83817 84630 84460 92438;
0248671430999992000012209004-21200+048370FM-12+0006FMSM V0201801N002110099019N0250001N1+02781+02411101421ADDAA106003091GA1011+005109099GA2031+005109089GA3051+009909069GF108991061091004501071999MA1999999101351MD1710101+9999REMSYN122AAXX  22094 67143 22475 81804 10278 20241 30135 40142 57010 8697/ 333 60031 83817 81917 85633 94996 95836 92438 555 82460;
0216671430999992000012212004-21200+048370FM-12+0006FMSM V0201801N00511004201CN0300001N1+02901+02481101301ADDAA199000021GA1021+005109099GA2021+005109089GF107991061091004501071999MA1999999101231MD1710121+9999REMSYN106AAXX  22124 67143 32480 71810 10290 20248 30123 40130 57012 8697/ 333 0//00 82817 82917 94996 95836 92438;
0274671430999992000012215004-21200+048370FM-12+0006FMSM V0200601N004112200019N0300001N1+02751+02271101321ADDAA199000021GA1021+005109089GA2041+009909069GA3041+030009039GF104991999999004501031999KA1120M+03201MA1999999101251MD1510021+9999REMSYN100AAXX  22154 67143 32480 40608 10275 20227 30125 40132 55002 8703/ 333 10320 82817 84633 84360 92438;EQDQ01+000072SCOTLCQ02+000002SCOLCG
0217671430999992000012303004-21200+048370FM-12+0006FMSM V0201801N002110120019N0300001N1+02411+02391101351ADDAA199000091GA1021+006009089GA2051+012009069GF106991061081008001001001MA1999999101281MD1510021+9999REMSYN088AAXX  23034 67143 32580 61804 10241 20239 30128 40135 55002 86800 333 82820 85640 92438;EQDQ01  00002PRCP99
0313671430999992000012306004-21200+048370FM-12+0006FMSM V0202201N002110099019N0200001N1+02771+02451101441ADDAA199000091AY121061AY211061GA1041+006009089GA2051+009909069GF106991061081008001001001IA2240+01609KA1120M+03021KA2120N+02401MA1999999101371MD1210091+9999MW1151REMSYN124AAXX  23064 67143 31570 62204 10277 20245 30137 40144 52009 71521 86800 333 01600 10302 20240 50//4 55/// 84820 85633 92438;EQDQ01  00002PRCP99
0223671430999992000012309004-21200+048370FM-12+0006FMSM V0202201N00511012001CN0200001N1+02901+02381101361ADDAA199000091AY121031AY221031GA1041+006009089GF105991051081008001001021MA1999999101291MD1810081+9999MW1151REMSYN088AAXX  23094 67143 31570 52210 10290 20238 30129 40136 58008 71522 85802 333 84820 92438;EQDQ01  00002PRCP99
0293671430999992000012312004-21200+048370FM-12+0006FMSM V0202001N004112200019N0200001N1+02901+02401101171ADDAA199000091AY121061AY211061GA1011+012009069GF104991041091008001001021MA1999999101101MD1710191+9999MW1151REMSYN158AAXX  23124 67143 31570 42008 10290 20240 30110 40117 57019 71521 84902 333 0//00 83828 82920 94994 94995 94996 94997 95814 95815 95816 92438 555 81640 81075;EQDQ01  00002PRCP99
0328671430999992000012315004-21200+048370FM-12+0006FMSM V0202001N00411007501CN0250001N1+02771+02501101261ADDAA199000091AY121031AY211031GA1031+030009049GF106991051091008001999021KA1120M+03021MA1999999101191MD1310091+9999MW1151REMSYN164AAXX  23154 67143 31575 62008 10277 20250 30119 40126 53009 71521 85902 333 10302 82820 82920 94994 94995 94996 94997 94998 95814 95815 95816 92438 555 83460 83073;EQDQ01+000002SCOMCGQ02  00002PRCP99
0223671430999992000012400004-21200+048370FM-12+0006FMSM V0202001N001012200019N0300001N1+02501+02301101261ADDAA199000091GA1011+006009089GA2041+009909069GF104991041081008001001001MA1999999101191MD1710121+9999REMSYN094AAXX  24004 67143 33580 42002 10250 20230 30119 40126 57012 84800 333 0//00 81820 84633 924/8;EQDQ01  00002PRCP99
0227671430999992000012403004-21200+048370FM-12+0006FMSM V0202001N001010099019N0300001N1+02471+02301101281ADDAA199000091GA1011+006009089GA2061+009909069GF106991061081008001001021MA1999999101211MD1310021+9999REMSYN098AAXX  24034 67143 32580 62002 10247 20230 30121 40128 53002 86802 333 81820 86633 92438 555 81073;EQDQ01  00002PRCP99
0285671430999992000012406004-21200+048370FM-12+0006FMSM V0202001N002110120019N0300001N1+02841+02471101371ADDAA199000091GA1031+006009089GA2061+012009069GF106991061081008001001001IA2240+01709KA1120M+03021KA2120N+02471MA1999999101301MD1210091+9999REMSYN118AAXX  24064 67143 32580 62004 10284 20247 30130 40137 52009 86800 333 01700 10302 20247 50//4 55/// 83820 86640 92438;EQDQ01  00002PRCP99
0227671430999992000012409004-21200+048370FM-12+0006FMSM V0202001N004112200019N0400001N1+03081+02641101271ADDAA199000091GA1011+030009039GF104991999021008001031021MA1999999101201MD1710101+9999REMSYN098AAXX  24094 67143 32582 42008 10308 20264 30120 40127 57010 85232 333 85820 92438 555 81360 81075;EQDQ01+000052SCOTLCQ02  00002PRCP99
0275671430999992000012412004-21200+048370FM-12+0006FMSM V0202001N004110690019N0300001N1+02921+02441101161ADDAA199000091GA1021+006009099GA2021+006009089GA3031+069009009GF105991031091008001001031MA1999999101091MD1710111+9999REMSYN130AAXX  24124 67143 32580 52008 10292 20244 30109 40116 57011 83903 333 0//00 82820 82920 83073 94995 94996 94997 95835 95836 92438;EQDQ01  00002PRCP99
0312671430999992000012415004-21200+048370FM-12+0006FMSM V0200801N002110060019N0250001N1+02851+02561101211ADDAA199000091AY121031AY221031GA1031+006009099GA2021+006009089GF107991061091008001001021KA1120M+03121MA1999999101141MD1310051+9999MW1151REMSYN148AAXX  24154 67143 31575 70804 10285 20256 30114 40121 53005 71522 86902 333 10312 82820 83920 94994 94995 94996 94997 94998 95835 95836 95837 92438;EQDQ01  00002PRCP99
0236671430999992000012500004-21200+048370FM-12+0006FMSM V0200801N001010099019N0150001N1+02221+02101101301ADDAA106007991AC12I9AY161061GA1021+003909089GA2071+009909069GF107991071081004501999999MA1999999101231MD1710121+9999MW1211REMSYN106AAXX  25004 67143 11465 70802 10222 20210 30123 40130 57012 60081 7216/ 878// 333 0//96 82813 87633 924/7;
0204671430999992000012503004-21200+048370FM-12+0006FMSM V0202601N001010099019N0400001N1+02301+02151101331ADDAA112008091GA1011+006009089GA2071+009909069GF107991071081008001999999MA1999999101261MD1310031+9999REMSYN094AAXX  25034 67143 22582 72602 10230 20215 30126 40133 53003 878// 333 60082 81820 87633 92438;
0278671430999992000012506004-21200+048370FM-12+0006FMSM V0202601N002110099019N0300001N1+02671+02301101401ADDAA124007991AC13I9GA1021+006009089GA2061+009909069GF107991071081008001999999IA2240+01409KA1120M+03121KA2120N+02201MA1999999101331MD1110071+9999REMSYN124AAXX  25064 67143 12580 72604 10267 20230 30133 40140 51007 60084 878// 333 01497 10312 20220 5///4 55/// 82820 86633 92438;
0176671430999992000012509004-21200+048370FM-12+0006FMSM V0200601N004112200019N0400001N1+02971+02481101281ADDAA199000021GA1041+006009089GF104991041081008001001001MA1999999101211MD1710121+9999REMSYN082AAXX  25094 67143 32582 40608 10297 20248 30121 40128 57012 84800 333 84820 92438;
0268671430999992000012512004-21200+048370FM-12+0006FMSM V0201801N008212200019N0250001N1+02751+02281101181ADDAA199000021AY111061AY211061GA1011+015009069GF104991041091008001001021MA1999999101111MD1710101+9999MW1151REMSYN152AAXX  25124 67143 31575 41816 10275 20228 30111 40118 57010 71511 84902 333 0//00 83820 82920 94992 94993 94995 94996 95833 95836 92438 555 81650 81075;
0266671430999992000012515004-21200+048370FM-12+0006FMSM V0201001N00101007501CN0300001N1+02761+02431101191ADDAA199000091GA1021+012009069GF106991051091008001001021KA1120M+03081MA1999999101121MD1310011+9999REMSYN140AAXX  25154 67143 32580 61002 10276 20243 30112 40119 53001 85902 333 10308 83820 82920 94996 94997 95835 95836 95837 92438 555 82640 83073;EQDQ01  00002PRCP99
0217671430999992000012600004-21200+048370FM-12+0006FMSM V0209999C000012200019N0300001N1+02381+02111101131ADDAA199000091GA1011+012009069GF102991021081008001001021MA1999999101061MD1710091+9999REMSYN104AAXX  26004 67143 33580 20000 10238 20211 30106 40113 57009 82802 333 0//00 81820 924/8 555 81640 81073;EQDQ01  00002PRCP99
0211671430999992000012603004-21200+048370FM-12+0006FMSM V0201001N002112200019N0400001N1+02351+02091101241ADDAA199000091GA1011+012009069GF102991021081008001001021MA1999999101171MD1310111+9999REMSYN098AAXX  26034 67143 32582 21004 10235 20209 30117 40124 53011 82802 333 81820 92438 555 81640 81073;EQDQ01  00002PRCP99
0205671430999992000012609004-21200+048370FM-12+0006FMSM V0202201N004112200019N0400001N1+03001+02491101181ADDAA199000091GA1031+006009089GF103991031081008001001001MA1999999101111MD1710151+9999REMSYN092AAXX  26094 67143 32582 32208 10300 20249 30111 40118 57015 83800 333 83820 92438 555 81640;EQDQ01  00002PRCP99
0241671430999992000012612004-21200+048370FM-12+0006FMSM V0201201N00621007501CN0400001N1+03021+02501101021ADDAA199000091GA1011+006009099GA2021+006009089GF105991051091008001001021MA1999999100951MD1710171+9999REMSYN112AAXX  26124 67143 32582 51212 10302 20250 30095 40102 57017 85902 333 0//00 82820 81920 94995 94997 95837 92438;EQDQ01  00002PRCP99
0222671430999992000012615004-21200+048370FM-12+0006FMSM V0200801N00511004201CN0400001N1+02851+02501101071ADDAA199000091GA1011+005109099GA2011+005109089GF106991061091004501071021KA1120M+03031MA1999999101001REMSYN094AAXX  26154 67143 32482 60810 10285 20250 30100 40107 86972 333 10303 81817 81917 94994 95835;EQDQ01  00002PRCP99
0221671430999992000012700004-21200+048370FM-12+0006FMSM V0200801N00211009901CN0200001N1+02381+02111101061ADDAA106002091AC12C9GA1011+005109089GA2061+009909069GF106991999999004501999999MA1999999100991MD1710131+9999REMSYN105AAXX  27004 67143 11470 60804 10238 20211 30099 40106 57013 60021 756/ 86800 333 0//12 81817 86633 924/8;
0204671430999992000012703004-21200+048370FM-12+0006FMSM V0202001N002110120019N0300001N1+02421+02161101111ADDAA112002091GA1021+006009089GA2061+012009069GF107991071081008001999999MA1999999101041MD1310051+9999REMSYN094AAXX  27034 67143 22580 72004 10242 20216 30104 40111 53005 878// 333 60022 82820 86640 92438;
0217671430999992000012709004-21200+048370FM-12+0006FMSM V0201001N003110120019N0300001N1+03001+02511101111ADDAA199000091GA1021+006009089GA2061+012009069GF107991071081008001999999MA1999999101041MD1710111+9999REMSYN088AAXX  27094 67143 32580 71006 10300 20251 30104 40111 57011 878// 333 82820 86640 92438;EQDQ01  00002PRCP99
0223671430999992000012712004-21200+048370FM-12+0006FMSM V0201001N004110150019N0400001N1+03001+02611101021ADDAA199000091GA1021+006009089GA2061+015009069GF107991071081008001999999MA1999999100951MD1710091+9999REMSYN094AAXX  27124 67143 32582 71008 10300 20261 30095 40102 57009 878// 333 0//00 82820 86650 92438;EQDQ01  00002PRCP99
0258671430999992000012715004-21200+048370FM-12+0006FMSM V0201001N005110120019N0300001N1+02881+02511101011ADDAA199000091GA1021+005109089GA2041+012009069GA3041+030009039GF107991051081004501071999KA1120M+03021MA1999999100941MD1510011+9999REMSYN100AAXX  27154 67143 32480 71010 10288 20251 30094 40101 55001 8587/ 333 10302 82817 84640 84360 92438;EQDQ01  00002PRCP99
0235671430999992000012800004-21200+048370FM-12+0006FMSM V0201201N001010099019N0200001N1+02681+02541101031ADDAA199000091GA1031+006009089GA2071+009909069GF107991071081008001999999MA1999999100961MD1710061+9999MW1151REMSYN100AAXX  28004 67143 31570 71202 10268 20254 30096 40103 57006 715// 878// 333 0//00 83820 87633 924/8;EQDQ01  00002PRCP99
0254671430999992000012803004-21200+048370FM-12+0006FMSM V0201201N004110060019N0080001N1+02701+02561101061ADDAA112001091AY161031AY221031GA1021+003909079GA2041+006009089GA3071+009909069GF108991081081004501999999MA1999999100991MD1310031+9999MW1611REMSYN106AAXX  28034 67143 21458 81208 10270 20256 30099 40106 53003 76162 888// 333 60012 82713 84820 87633 92436;
0266671430999992000012809004-21200+048370FM-12+0006FMSM V0202201N00411009901CN0150001N1+02801+02461101041ADDAA199000021AY121031AY221031GA1011+005109099GA2041+005109089GA3071+009909069GF107991071091004501999999MA1999999100971MD1810111+9999MW1171REMSYN118AAXX  28094 67143 31465 72208 10280 20246 30097 40104 58011 71722 879// 333 84817 81917 87633 94992 94993 95833 92437;
0278671430999992000012812004-21200+048370FM-12+0006FMSM V0202001N007210099019N0100001N1+02491+02391100981ADDAA106010991AY191061AY261061GA1011+000159079GA2011+005109099GA3061+009909069GF108991061091004501071999MA1999999100911MD1610061+9999MW1611REMSYN130AAXX  28124 67143 11460 82014 10249 20239 30091 40098 56006 60111 76196 8697/ 333 0//9/ 81700 81917 86633 94996 94997 95837 92437;
0285671430999992000012815004-21200+048370FM-12+0006FMSM V0203201N002110099019N0150001N1+02401+02271101001ADDAA106014091AY161031AY221031GA1011+005109099GA2031+005109089GA3061+009909069GF107991061091004501071999KA1120M+02841MA1999999100931MD1310021+9999MW1211REMSYN124AAXX  28154 67143 21465 73204 10240 20227 30093 40100 53002 72162 8697/ 333 10284 60141 83817 81917 86633 94992 95832 92437;
0214671430999992000012900004-21200+048370FM-12+0006FMSM V0203201N00211012001CN0200001N1+02301+02151100881ADDAA106002091AC10I9AY161061GA1041+006009089GF105991051081008001001021MA1999999100811MD1710151+9999MW1151REMSYN100AAXX  29004 67143 11570 53204 10230 20215 30081 40088 57015 60021 7156/ 85802 333 0//64 84820 924/8;
0182671430999992000012903004-21200+048370FM-12+0006FMSM V0203201N001012200019N0300001N1+02261+02061101131ADDAA112002091GA1031+006009089GF103991031081008001001001MA1999999101061MD1310251+9999REMSYN088AAXX  29034 67143 22580 33202 10226 20206 30106 40113 53025 83800 333 60022 83820 92438;
0250671430999992000012906004-21200+048370FM-12+0006FMSM V0202401N003112200019N0300001N1+02861+02451101201ADDAA124015091GA1041+006009089GF104991041021008001001001IA2240+01209KA1120M+02841KA2120N+02261MA1999999101131MD1210071+9999REMSYN118AAXX  29064 67143 12580 42406 10286 20245 30113 40120 52007 60154 84200 333 01299 10284 20226 50//4 55/// 84820 92438;
0195671430999992000012909004-21200+048370FM-12+0006FMSM V0202401N005112200019N0300001N1+03001+02441101081ADDAA199000091GA1041+006009089GF104991041081008001001001MA1999999101001MD1710121+9999REMSYN082AAXX  29094 67143 32580 42410 10300 20244 30100 40108 57012 84800 333 84820 92438;EQDQ01  00002PRCP99
0211671430999992000012912004-21200+048370FM-12+0006FMSM V0201601N006212200019N0300001N1+03091+02501100951ADDAA199000091GA1041+006009089GF104991041021008001001021MA1999999100881MD1710131+9999REMSYN098AAXX  29124 67143 32580 41612 10309 20250 30088 40095 57013 84202 333 0//00 84820 92438 555 81075;EQDQ01  00002PRCP99
0235671430999992000013000004-21200+048370FM-12+0006FMSM V0201601N005112200019N0150001N1+02481+02251100811ADDAA199000091GA1011+005109089GA2041+009909069GF104991041081008001001001MA1999999100741MD1710201+9999MW1151REMSYN100AAXX  30004 67143 31565 41610 10248 20225 30074 40081 57020 715// 84800 333 0//00 81817 84633 924/8;EQDQ01  00002PRCP99
0242671430999992000013003004-21200+048370FM-12+0006FMSM V0201601N004110750019N0150001N1+02401+02131100731ADDAA112003091AY161031AY221031GA1011+005109089GA2041+075009009GF106991021081004501001021MA1999999100661MD1710081+9999MW1151REMSYN110AAXX  30034 67143 21465 61608 10240 20213 30066 40073 57008 71562 82802 333 60032 81817 84075 92438 555 82633;
0278671430999992000013006004-21200+048370FM-12+0006FMSM V0202201N009310120019N0300001N1+02851+02221100721ADDAA124003091AC11I9GA1011+006009089GA2061+012009069GF106991061081008001001001IA2240+01309KA1120M+03091KA2120N+02401MA1999999100651MD1810011+9999REMSYN124AAXX  30064 67143 12580 62218 10285 20222 30065 40072 58001 60034 86800 333 01315 10309 20240 50//4 55/// 81820 86640 92438;
0229671430999992000013009004-21200+048370FM-12+0006FMSM V02099999999999999999N0300001N1+02941+02581100601ADDAA199000091AY121031AY201031GA1011+006009089GA2031+012009069MA1999999100531MD1710121+9999MW1101REMSYN104AAXX  30094 67143 31580 ///// 10294 20258 30053 40060 57012 71020 83802 333 81820 83640 92438 555 81075;EQDQ01  00002PRCP99
0282671430999992000013015004-21200+048370FM-12+0006FMSM V0209999C000010360019N0300001N1+02841+02501100391ADDAA199000091AY121031AY221031GA1011+006009099GA2011+006009089GF107991031091008001031061KA1120M+03181MA1999999100321MD1510041+9999MW1061REMSYN118AAXX  30154 67143 31580 70000 10284 20250 30032 40039 55004 70622 83936 333 10318 81820 81920 94993 95833 94270 92438;EQDQ01  00002PRCP99
0223671430999992000013100004-21200+048370FM-12+0006FMSM V0200601N002112200019N0300001N1+02531+02321100661ADDAA199000091GA1011+006009089GA2021+012009069GF102991021081008001001021MA1999999100591MD1710051+9999REMSYN094AAXX  31004 67143 33580 20604 10253 20232 30059 40066 57005 82802 333 0//00 81820 82640 924/8;EQDQ01  00002PRCP99
0217671430999992000013103004-21200+048370FM-12+0006FMSM V0200601N001012200019N0300001N1+02411+02241100901ADDAA199000091GA1011+006009089GA2031+069009009GF103991011081008001001021MA1999999100831MD1310241+9999REMSYN088AAXX  31034 67143 32580 30602 10241 20224 30083 40090 53024 81802 333 81820 83073 92438;EQDQ01  00002PRCP99
0285671430999992000013106004-21200+048370FM-12+0006FMSM V0203001N003112200019N0300001N1+03171+02361101021ADDAA199000091GA1011+006009089GA2041+075009009GF104991011081008001001021IA2240+01209KA1120M+03181KA2120N+02411MA1999999100951MD1210121+9999REMSYN118AAXX  31064 67143 32580 43006 10317 20236 30095 40102 52012 81802 333 01200 10318 20241 50//4 55/// 81820 84075 92438;EQDQ01  00002PRCP99
0195671430999992000013109004-21200+048370FM-12+0006FMSM V0200801N004112200019N0400001N1+03081+02551100881ADDAA199000091GA1031+006009089GF104991031021008001031011MA1999999100811MD1710141+9999REMSYN082AAXX  31094 67143 32582 40808 10308 20255 30081 40088 57014 83231 333 83820 92438;EQDQ01  00002PRCP99
0291671430999992000013112004-21200+048370FM-12+0006FMSM V0200801N003110120019N0200001N1+03001+02621100771ADDAA199000091AY111061AY211061GA1011+006009099GA2021+006009089GA3061+012009069GF106991061091008001001001MA1999999100701MD1710111+9999MW1171REMSYN124AAXX  31124 67143 31570 60806 10300 20262 30070 40077 57011 71711 86900 333 0//00 82820 81920 86640 94997 94998 95838 92438;EQDQ01  00002PRCP99
0320671430999992000013115004-21200+048370FM-12+0006FMSM V0200801N002110099019N0200001N1+02951+02521100961ADDAA199000091AY191031AY221031GA1011+006009099GA2031+006009089GA3061+009909069GF107991061091008001071999KA1120M+03291MA1999999100891MD1310191+9999MW1291REMSYN140AAXX  31154 67143 31570 70804 10295 20252 30089 40096 53019 72992 8697/ 333 10329 81920 83820 86633 94995 94996 95835 95836 92438 555 82460;EQDQ01  00002PRCP99
0211671430999992000020100004-21200+048370FM-12+0006FMSM V0203401N002112200019N0300001N1+02501+02361101041ADDAA199000091GA1021+006009089GF102991021081008001001001MA1999999100971MD1710071+9999REMSYN098AAXX  01004 67143 33580 23404 10250 20236 30097 40104 57007 82800 333 0//00 82820 924/8 555 81640;EQDQ01  00002PRCP99
0211671430999992000020103004-21200+048370FM-12+0006FMSM V0202401N002112200019N0300001N1+02401+02281101121ADDAA199000091GA1021+012009069GF103991031081008001001021MA1999999101051MD1310081+9999REMSYN098AAXX  01034 67143 32580 32404 10240 20228 30105 40112 53008 83802 333 82820 555 82640 92438 82073;EQDQ01  00002PRCP99
0273671430999992000020106004-21200+048370FM-12+0006FMSM V0202201N002112200019N0300001N1+02901+02441101231ADDAA199000091GA1041+006009089GF104991041021008001001021IA2240+01209KA1120M+03291KA2120N+02391MA1999999101161MD1210111+9999REMSYN122AAXX  01064 67143 32580 42204 10290 20244 30116 40123 52011 84202 333 01200 10329 20239 50//4 55/// 84820 92438 555 81073;EQDQ01  00002PRCP99
0205671430999992000020109004-21200+048370FM-12+0006FMSM V0202201N003112200019N0400001N1+03041+02561101131ADDAA199000091GA1041+006909089GF104991041021008001001021MA1999999101061MD1810101+9999REMSYN092AAXX  01094 67143 32582 42206 10304 20256 30106 40113 58010 84202 333 84823 92438 555 81075;EQDQ01  00002PRCP99
0259671430999992000020112004-21200+048370FM-12+0006FMSM V0201001N004112200019N0400001N1+03071+02491100931ADDAA199000091GA1031+006009089GA2011+006909099GF103991031091008001001001MA1999999100861MD1710201+9999REMSYN130AAXX  01124 67143 32582 31008 10307 20249 30086 40093 57020 83900 333 0//00 83820 81923 94995 94996 94997 95835 95836 95837 92438;EQDQ01  00002PRCP99
0266671430999992000020115004-21200+048370FM-12+0006FMSM V0201001N004112200019N0400001N1+02901+02501101001ADDAA199000091GA1011+006009099GA2031+006009089GF103991031091008001031021KA1120M+03131MA1999999100951MD1310091+9999REMSYN124AAXX  01154 67143 32582 31008 10290 20250 30095 40100 53009 83932 333 10313 83820 81920 94995 94996 94997 95835 95836 92438;EQDQ01  00002PRCP99
0236671430999992000020200004-21200+048370FM-12+0006FMSM V0201001N001010099019N0150001N1+02501+02321101091ADDAA106007191AC13C9AY161061GA1021+003909079GA2051+009909069GF105991051081004501001001MA1999999101021MD1710131+9999MW1151REMSYN106AAXX  02004 67143 11465 51002 10250 20232 30102 40109 57013 60071 7156/ 85800 333 0//63 82713 85633 924/7;
0232671430999992000020203004-21200+048370FM-12+0006FMSM V0201001N001010099019N0200001N1+02521+02321101191ADDAA112007091AY121031AY221031GA1031+003909079GA2071+009909069GF107991071081004501999999MA1999999101121MD1310101+9999MW1151REMSYN100AAXX  02034 67143 21470 71002 10252 20232 30112 40119 53010 71522 878// 333 60072 83713 87633 92438;
0284671430999992000020206004-21200+048370FM-12+0006FMSM V0203601N001010060019N0300001N1+02951+02421101261ADDAA124007991AC13C9AY161061AY221061GA1051+006009089GF105991051081008001001001IA2240+01209KA1120M+03131KA2120N+02421MA1999999101191MD1210071+9999MW1011REMSYN124AAXX  02064 67143 11580 53602 10295 20242 30119 40126 52007 60084 70162 85800 333 01263 10313 20242 50//4 55/// 85820 92438;
0195671430999992000020209004-21200+048370FM-12+0006FMSM V0201201N003112200019N0400001N1+03061+02561101151ADDAA199000091GA1041+006909089GF104991041021008001001021MA1999999101081MD1710111+9999REMSYN082AAXX  02094 67143 32582 41206 10306 20256 30108 40115 57011 84202 333 84823 92438;EQDQ01  00002PRCP99
0211671430999992000020212004-21200+048370FM-12+0006FMSM V0201201N004112200019N0400001N1+03051+02441100971ADDAA199000091GA1031+006909089GF103991031021008001001021MA1999999100901MD1710181+9999REMSYN098AAXX  02124 67143 32582 31208 10305 20244 30090 40097 57018 83202 333 0//00 83823 92438 555 81075;EQDQ01  00002PRCP99
0266671430999992000020300004-21200+048370FM-12+0006FMSM V0201201N001012200019N0150001N1+02521+02401101161ADDAA106002091AC11I9AY161061GA1011+006009099GA2031+006009089GF104991041091008001001021MA1999999101091MD1710091+9999MW1151REMSYN136AAXX  03004 67143 11565 41202 10252 20240 30109 40116 57009 60021 7156/ 84902 333 0//55 83820 81920 94992 94993 94994 95832 95833 924/7;
0300671430999992000020306004-21200+048370FM-12+0006FMSM V0201201N001012200019N0200001N1+02661+02401101401ADDAA124003091AC12C9AY161061AY211061GA1021+012009069GF104991041081008001001021IA2240+01209KA1120M+03121KA2120N+02371MA1999999101331MD1210121+9999MW1151REMSYN140AAXX  03064 67143 11570 41202 10266 20240 30133 40140 52012 60034 71561 84802 333 01292 10312 20237 5///4 55/// 84820 92438 555 82640 81073;
0205671430999992000020309004-21200+048370FM-12+0006FMSM V0200601N004112200019N0350001N1+02931+02421101331ADDAA199000091GA1041+006009089GF104991041021008001001021MA1999999101261MD1810071+9999REMSYN092AAXX  03094 67143 32581 40608 10293 20242 30126 40133 58007 84202 333 84820 92438 555 81075;EQDQ01  00002PRCP99
0201671430999992000020312004-21200+048370FM-12+0006FMSM V0200601N004112200019N0400001N1+03031+02381101251ADDAA199000091GA1031+006909089GF104991031021008001001021MA1999999101181MD1710081+9999REMSYN088AAXX  03124 67143 32582 40608 10303 20238 30118 40125 57008 83202 333 0//00 83823 92438;EQDQ01  00002PRCP99
0214671430999992000020315004-21200+048370FM-12+0006FMSM V0200801N004112200019N0300001N1+02901+02421101251ADDAA199000091GA1031+006009089GF104991031021008001001021KA1120M+03101MA1999999101181MD1510001+9999REMSYN088AAXX  03154 67143 32580 40808 10290 20242 30118 40125 55000 83202 333 10310 83820 92438;EQDQ01  00002PRCP99
0235671430999992000020400004-21200+048370FM-12+0006FMSM V0200801N002110120019N0200001N1+02381+02201101481ADDAA199000091GA1011+006009089GA2061+012009069GF106991061081008001001001MA1999999101411MD1810021+9999MW1151REMSYN100AAXX  04004 67143 31570 60804 10238 20220 30141 40148 58002 715// 86800 333 0//00 81820 86640 924/8;EQDQ01  00002PRCP99
0182671430999992000020403004-21200+048370FM-12+0006FMSM V0200801N001012200019N0300001N1+02401+02251101591ADDAA112003091GA1021+006009089GF103991031081008001001001MA1999999101521MD1310111+9999REMSYN088AAXX  04034 67143 22580 30802 10240 20225 30152 40159 53011 83800 333 60032 82820 92438;
0256671430999992000020406004-21200+048370FM-12+0006FMSM V0202801N001012200019N0400001N1+02921+02321101661ADDAA124003091AC11I9GA1031+006009089GF103991031021008001001001IA2240+01109KA1120M+03101KA2120N+02381MA1999999101591MD1210071+9999REMSYN118AAXX  04064 67143 12582 32802 10292 20232 30159 40166 52007 60034 83200 333 01115 10310 20238 50//4 55/// 83820 92438;
0195671430999992000020409004-21200+048370FM-12+0006FMSM V0200601N002112200019N0400001N1+02941+02341101581ADDAA199000091GA1021+006009089GF102991021081008001001021MA1999999101511MD1710081+9999REMSYN082AAXX  04094 67143 32582 20604 10294 20234 30151 40158 57008 82802 333 82820 92438;EQDQ01  00002PRCP99
0211671430999992000020412004-21200+048370FM-12+0006FMSM V0201601N003112200019N0400001N1+02961+02241101451ADDAA199000091GA1031+006009089GF103991031081008001001001MA1999999101381MD1710131+9999REMSYN098AAXX  04124 67143 32582 31606 10296 20224 30138 40145 57013 83800 333 0//00 83820 92438 555 81640;EQDQ01  00002PRCP99
0214671430999992000020415004-21200+048370FM-12+0006FMSM V0200801N005112200019N0400001N1+02861+02141101511ADDAA199000091GA1021+006009089GF102991021021008001001001KA1120M+03021MA1999999101441MD1310041+9999REMSYN088AAXX  04154 67143 32582 20810 10286 20214 30144 40151 53004 82200 333 10302 82820 92438;EQDQ01  00002PRCP99
0192671430999992000020503004-21200+048370FM-12+0006FMSM V0209999C000010060019N0300001N1+02401+02221101661ADDAA112000491GA1051+006009089GF105991051021008001001021MA1999999101591MD1310071+9999REMSYN098AAXX  05034 67143 22580 50000 10240 20222 30159 40166 53007 85202 333 69942 85820 92438 555 81073;
0256671430999992000020506004-21200+048370FM-12+0006FMSM V0202601N005110060019N0300001N1+02901+02161101721ADDAA124000591AC12I9GA1051+006009089GF105991051021008001001001IA2240+01109KA1120M+03021KA2120N+02401MA1999999101651MD1210061+9999REMSYN118AAXX  05064 67143 12580 52610 10290 20216 30165 40172 52006 69944 85200 333 01116 10302 20240 50//4 55/// 85820 92438;
0211671430999992000020509004-21200+048370FM-12+0006FMSM V0200801N005112200019N0400001N1+03021+02251101611ADDAA199000091GA1011+012009069GF103991031081008001001021MA1999999101541MD1810111+9999REMSYN098AAXX  05094 67143 32582 30810 10302 20225 30154 40161 58011 83802 333 83820 92438 555 81640 81073;EQDQ01  00002PRCP99
0201671430999992000020512004-21200+048370FM-12+0006FMSM V0200801N005112200019N0400001N1+03021+02421101531ADDAA199000091GA1031+006009089GF104991041081008001001021MA1999999101461MD1710081+9999REMSYN088AAXX  05124 67143 32582 40810 10302 20242 30146 40153 57008 84802 333 0//00 83820 92438;EQDQ01  00002PRCP99
0251671430999992000020515004-21200+048370FM-12+0006FMSM V0203001N002110099019N0200001N1+02451+02301101591ADDAA106011091AY161031AY211031GA1031+005109089GA2061+009909069GF107991071081004501999999KA1120M+03051MA1999999101521MD1310061+9999MW1151REMSYN106AAXX  05154 67143 21470 73004 10245 20230 30152 40159 53006 71561 878// 333 10305 60111 83817 86633 92438;
0236671430999992000020600004-21200+048370FM-12+0006FMSM V0203001N003110099019N0200001N1+02241+02091101581ADDAA106009991AC12C9AY161061GA1011+005109089GA2061+009909069GF106991061081004501001001MA1999999101511MD1710111+9999MW1151REMSYN106AAXX  06004 67143 11470 63006 10224 20209 30151 40158 57011 60101 7156/ 86800 333 0//92 81817 86633 924/8;
0226671430999992000020603004-21200+048370FM-12+0006FMSM V0203001N003110099019N0200001N1+02241+99999101701ADDAA112010091AY161031AY221031GA1011+005109089GA2071+009909069GF107991071081004501999999MA1999999101631MD1310201+9999MW1611REMSYN094AAXX  06034 67143 21470 73006 10224 30163 40170 53020 76162 878// 333 60102 81817 87633 92438;
0250671430999992000020606004-21200+048370FM-12+0006FMSM V0202801N003112200019N0400001N1+02851+02471101781ADDAA124011991GA1021+006009089GF102991021081008001001001IA2240+01109KA1120M+03051KA2120N+02201MA1999999101711MD1210081+9999REMSYN118AAXX  06064 67143 12582 22806 10285 20247 30171 40178 52008 60124 82800 333 01119 10305 20220 50//4 55/// 82820 92438;
0226671430999992000020609004-21200+048370FM-12+0006FMSM V0202801N006210099019N0200001N1+02601+02121101681ADDAA199000021AY121031AY201031GA1011+005109089GA2071+009909069GF107991071081004501999999MA1999999101611MD1710101+9999MW1151REMSYN094AAXX  06094 67143 31470 72812 10260 20212 30161 40168 57010 71520 878// 333 81817 87633 92438;
0204671430999992000020612004-21200+048370FM-12+0006FMSM V0201001N005110120019N0300001N1+02961+02391101511ADDAA199000021GA1021+006009089GA2061+012009069GF106991061081008001001001MA1999999101441MD1710171+9999REMSYN094AAXX  06124 67143 32580 61010 10296 20239 30144 40151 57017 86800 333 0//00 82820 86640 92438;
0217671430999992000020615004-21200+048370FM-12+0006FMSM V0201001N005110120019N0300001N1+02821+02361101571ADDAA199000021GA1021+005109089GA2051+012009069GF105991051081004501001001KA1120M+03021MA1999999101501MD1310061+9999REMSYN094AAXX  06154 67143 32480 51010 10282 20236 30150 40157 53006 85800 333 10302 82817 85640 92438;
0211671430999992000020700004-21200+048370FM-12+0006FMSM V0201201N002112200019N0300001N1+02361+02261101571ADDAA199000091GA1021+006009089GF102991021081008001001001MA1999999101501MD1710061+9999REMSYN098AAXX  07004 67143 33580 21204 10236 20226 30150 40157 57006 82800 333 0//00 82820 924/8 555 81640;EQDQ01  00002PRCP99
0211671430999992000020703004-21200+048370FM-12+0006FMSM V0201201N001012200019N0300001N1+02301+02211101601ADDAA199000091GA1011+012009069GF103991031081008001001021MA1999999101531MD1310031+9999REMSYN098AAXX  07034 67143 32580 31202 10230 20221 30153 40160 53003 83802 333 83820 92438 555 81640 81075;EQDQ01  00002PRCP99
0273671430999992000020706004-21200+048370FM-12+0006FMSM V0202201N003112200019N0300001N1+02861+02341101611ADDAA199000091GA1041+006009089GF104991041021008001001021IA2240+01309KA1120M+03021KA2120N+02301MA1999999101541MD1110011+9999REMSYN122AAXX  07064 67143 32580 42206 10286 20234 30154 40161 51001 84202 333 01300 10302 20230 50//4 55/// 84820 92438 555 81073;EQDQ01  00002PRCP99
0211671430999992000020709004-21200+048370FM-12+0006FMSM V0202201N00411012001CN0300001N1+02981+02501101491ADDAA199000091GA1021+015009069GF105991051081008001001021MA1999999101421MD1810121+9999REMSYN098AAXX  07094 67143 32580 52208 10298 20250 30142 40149 58012 85802 333 84820 92438 555 82650 81075;EQDQ01  00002PRCP99
0223671430999992000020712004-21200+048370FM-12+0006FMSM V0201401N002110120019N0300001N1+02901+02521101381ADDAA199000091GA1031+006009089GA2051+012009069GF106991061081008001001001MA1999999101311MD1710111+9999REMSYN094AAXX  07124 67143 32580 61404 10290 20252 30131 40138 57011 86800 333 0//00 83820 85640 92438;EQDQ01  00002PRCP99
0251671430999992000020715004-21200+048370FM-12+0006FMSM V0200601N005110099019N0100001N1+02461+02381101491ADDAA106002091AY161031AY221031GA1031+003909079GA2061+009909069GF107991071081004501999999KA1120M+03121MA1999999101421MD1310111+9999MW1151REMSYN106AAXX  07154 67143 21460 70610 10246 20238 30142 40149 53011 71562 878// 333 10312 60021 83713 86633 92437;
0229671430999992000020800004-21200+048370FM-12+0006FMSM V0200601N001010099019N0200001N1+02381+02281101371ADDAA199000091GA1021+005109089GA2051+009909069GF105991051081004501001001MA1999999101301MD1710061+9999MW1151REMSYN094AAXX  08004 67143 31470 50602 10238 20228 30130 40137 57006 715// 85800 333 82817 85633 924/8;EQDQ01  00002PRCP99
0306671430999992000020806004-21200+048370FM-12+0006FMSM V0200801N001010099019N0300001N1+02561+02361101421ADDAA124003091AC13C9AY161061AY221061GA1031+006009089GA2061+009909069GF107991071081008001999999IA2240+02109KA1120M+03121KA2120N+02291MA1999999101351MD1810061+9999MW1021REMSYN130AAXX  08064 67143 11580 70802 10256 20236 30135 40142 58006 60034 70262 878// 333 02193 10312 20229 50//4 55/// 83820 86633 92438;
0254671430999992000020812004-21200+048370FM-12+0006FMSM V0200801N003110150019N0300001N1+02841+02351101201ADDAA106001091AC11I9AY161061AY221061GA1031+006009089GA2051+015009069GF106991061081008001001021MA1999999101131MD1710181+9999MW1011REMSYN116AAXX  08124 67143 11580 60806 10284 20235 30113 40120 57018 60011 70162 86802 333 0//55 83820 85650 92438 555 81075;
0246671430999992000020815004-21200+048370FM-12+0006FMSM V0200801N004110120019N0300001N1+02781+02381101291ADDAA199000091GA1031+006009089GA2031+012009069GF105991051081008001001021KA1120M+02941MA1999999101221MD1310091+9999REMSYN104AAXX  08154 67143 32580 50808 10278 20238 30122 40129 53009 85802 333 10294 83820 83640 92438 555 81073;EQDQ01  00002PRCP99
0280671430999992000020900004-21200+048370FM-12+0006FMSM V0200801N001010099019N0200001N1+02371+02301101211ADDAA106000591AC11C9GA1011+005109099GA2031+005109089GA3071+009909069GF107991071091004501999999MA1999999101141MD1710071+9999MW1211REMSYN142AAXX  09004 67143 11470 70802 10237 20230 30114 40121 57007 69961 721// 879// 333 0//51 83817 81917 87633 94991 94992 94993 95831 95833 92438;
0278671430999992000020903004-21200+048370FM-12+0006FMSM V0203001N001010129019N0300001N1+02331+02261101281ADDAA112000891AY161031AY221031GA1011+006009099GA2021+006009089GA3071+012909069GF107991071091008001999999MA1999999101211MD1310071+9999MW1201REMSYN130AAXX  09034 67143 21580 73002 10233 20226 30121 40128 53007 72062 879// 333 69982 82820 81920 87643 94991 94993 95831 95833 92438;
0299671430999992000020906004-21200+048370FM-12+0006FMSM V0203001N001010090019N0300001N1+02681+02251101301ADDAC12I9AY161061AY221061GA1021+006009089GA2061+009009069GF107991061081008001031999IA2240+02009KA1120M+02941KA2120N+02311MA1999999101231MD1110021+9999MW1021REMSYN134AAXX  09064 67143 11580 73002 10268 20225 30123 40130 51002 70262 8683/ 333 02056 10294 20231 50//4 55/// 82820 86630 92438 555 82360;
0208671430999992000020909004-21200+048370FM-12+0006FMSM V0201201N002110120019N0300001N1+02821+02421101221ADDAA199000021GA1031+006009089GA2061+012009069GF107991061081008001031999MA1999999101151MD1610081+9999REMSYN098AAXX  09094 67143 32580 71204 10282 20242 30115 40122 56008 8683/ 333 83820 86640 92438 555 81360;
0262671430999992000020912004-21200+048370FM-12+0006FMSM V0201201N003110060019N0300001N1+03001+02431101101ADDAA199000021GA1021+006009099GA2031+006009089GA3051+075009009GF107991051091008001001021MA1999999101031MD1710121+9999REMSYN136AAXX  09124 67143 32580 71206 10300 20243 30103 40110 57012 85902 333 0//00 83820 82920 85075 94995 94996 94997 94998 95836 95837 92438;
0269671430999992000020915004-21200+048370FM-12+0006FMSM V0201201N003110300019N0300001N1+02781+02521101111ADDAA199000021GA1021+006009099GA2021+006009089GA3061+030009039GF107991051091008001071999KA1120M+03021MA1999999101041MD1310011+9999REMSYN130AAXX  09154 67143 32580 71206 10278 20252 30104 40111 53001 8597/ 333 10302 82820 82920 86360 94995 94996 94997 95835 95838 92438;
0230671430999992000021000004-21200+048370FM-12+0006FMSM V0201201N001010099019N0150001N1+02201+02101101201ADDAA106023991AY161061GA1031+005109089GA2071+009909069GF107991071081004501999999MA1999999101131MD1810031+9999MW1211REMSYN106AAXX  10004 67143 11465 71202 10220 20210 30113 40120 58003 60241 7216/ 878// 333 0//00 83817 87633 924/7;
0204671430999992000021003004-21200+048370FM-12+0006FMSM V0203001N002110099019N0300001N1+02181+02061101261ADDAA112024091GA1011+005109089GA2071+009909069GF107991071081008001999999MA1999999101191MD1310061+9999REMSYN094AAXX  10034 67143 22580 73004 10218 20206 30119 40126 53006 878// 333 60242 81817 87633 92438;
0278671430999992000021006004-21200+048370FM-12+0006FMSM V0209999C000010099019N0300001N1+02541+02301101351ADDAA124023991AC13I9GA1011+006009089GA2071+009909069GF107991071081008001999999IA2240+02009KA1120M+03021KA2120N+02171MA1999999101281MD1210111+9999REMSYN124AAXX  10064 67143 12580 70000 10254 20230 30128 40135 52011 60244 878// 333 02097 10302 20217 50//4 55/// 81820 87633 92438;
0198671430999992000021009004-21200+048370FM-12+0006FMSM V0201801N003110120019N0300001N1+02851+02301101301ADDAA199000021GA1031+006009089GA2061+012009069GF107991071081008001999999MA1999999101231MD1810051+9999REMSYN088AAXX  10094 67143 32580 71806 10285 20230 30123 40130 58005 878// 333 83820 86640 92438;
0266671430999992000021012004-21200+048370FM-12+0006FMSM V0201801N005110090019N0080001N1+02421+02271101221ADDAA106003091AC12C9AY161061AY221061GA1041+005109089GA2031+009009069GA3061+030009049GF108991051081004501071999MA1999999101151MD1710081+9999MW1611REMSYN112AAXX  10124 67143 11458 81810 10242 20227 30115 40122 57008 60031 76162 8587/ 333 0//22 84817 83630 86460 92436;
0261671430999992000021015004-21200+048370FM-12+0006FMSM V0201401N002110300019N0150001N1+02491+02331101331ADDAA106000991AY161031AY221031GA1021+005109089GA2071+030009049GF108991031081004501071999KA1120M+02941MA1999999101261MD1310111+9999MW1211REMSYN116AAXX  10154 67143 21465 81404 10249 20233 30126 40133 53011 72162 8387/ 333 10294 69991 82817 87460 92437 555 82630;
0246671430999992000021100004-21200+048370FM-12+0006FMSM V0200601N002110300019N0050001N1+02231+02161101281ADDAA106086191AC13I9AY161061GA1041+003009079GA2071+030009049GF108991051071004501071999MA1999999101211MD1710131+9999MW1631REMSYN116AAXX  11004 67143 11450 80604 10223 20216 30121 40128 57013 60861 7636/ 8577/ 333 0//68 84710 87460 924/7 555 82630;
0310671430999992000021106004-21200+048370FM-12+0006FMSM V0201001N007210300019N0080001N1+02601+02461101381ADDAA124127091AY161061AY261061GA1031+003909079GA2071+030009049GF108991041071004501071999IA2240+02009KA1120M+02941KA2120N+02211MA1999999101311MD1110041+9999MW1611REMSYN140AAXX  11064 67143 11458 81014 10260 20246 30131 40138 51004 61274 76166 8477/ 333 02099 10294 20221 50//4 55/// 83713 87460 92436 555 82633;
0254671430999992000021109004-21200+048370FM-12+0006FMSM V0201001N005110099019N0050001N1+02481+02321101331ADDAA106011091AY161031AY261031GA1031+003909079GA2041+009909069GA3061+030009049GF108991051071004501071999MA1999999101261MD1810051+9999MW1631REMSYN106AAXX  11094 67143 21450 81010 10248 20232 30126 40133 58005 76366 8577/ 333 60111 83713 84633 86460 92436;
0234671430999992000021115004-21200+048370FM-12+0006FMSM V0201201N007210099019N0100001N1+02591+02391101291ADDAY161031AY221031GA1041+005109089GA2051+009909069GF108991061081004501071999KA1120M+02741MA1999999101221MD1310101+9999MW1611REMSYN100AAXX  11154 67143 21460 81214 10259 20239 30122 40129 53010 76162 8687/ 333 10274 84817 85633 92437;
0232671430999992000021203004-21200+048370FM-12+0006FMSM V0201201N005110030019N0050001N1+02481+02401101451ADDAA112070091AY161031AY261031GA1051+003009079GA2061+030009049GF108991051071004501071999MA1999999101381MD1310081+9999MW1631REMSYN100AAXX  12034 67143 21450 81210 10248 20240 30138 40145 53008 76366 8577/ 333 60702 85710 86460 92436;
0279671430999992000021206004-21200+048370FM-12+0006FMSM V0201201N001010300019N0080001N1+02461+02321101591ADDAA124116191AY161061AY261061GA1041+003009079GA2061+030009049GF108991051071004501071999IA2240+02109KA1120M+02741KA2120N+02291MD1210141+9999MW1611REMSYN124AAXX  12064 67143 11458 81202 10246 20232 40159 52014 61164 76166 8577/ 333 02199 10274 20229 50//4 55/// 84710 86460 92436;
0232671430999992000021209004-21200+048370FM-12+0006FMSM V0200601N002110099019N0150001N1+02501+02321101541ADDAA106004091AY161031AY261031GA1031+005109089GA2061+009909069GF108991061081004501071999MA1999999101471MD1810051+9999MW1211REMSYN100AAXX  12094 67143 21465 80604 10250 20232 30147 40154 58005 72166 8687/ 333 60041 83817 86633 92437;
0244671430999992000021212004-21200+048370FM-12+0006FMSM V0200601N001010099019N0200001N1+02681+02461101381ADDAA106004191AC10I9AY161061AY221061GA1041+005109089GA2061+009909069GF107991071081004501999999MA1999999101311MD1610161+9999MW1151REMSYN106AAXX  12124 67143 11470 70602 10268 20246 30131 40138 56016 60041 71562 878// 333 0//54 84817 86633 92438;
0251671430999992000021215004-21200+048370FM-12+0006FMSM V0201401N003110099019N0150001N1+02601+02421101341ADDAA106001091AY121031AY221031GA1031+005109089GA2071+009909069GF107991071081004501999999KA1120M+02721MA1999999101271MD1510041+9999MW1211REMSYN106AAXX  12154 67143 21465 71406 10260 20242 30127 40134 55004 72122 878// 333 10272 60011 83817 87633 92437;
0198671430999992000021303004-21200+048370FM-12+0006FMSM V0200801N003112200019N0300001N1+02601+02341101351ADDAA112003091GA1011+009909069GF104991041081008001001021MA1999999101281MD1110021+9999REMSYN104AAXX  13034 67143 22580 40806 10260 20234 30128 40135 51002 84802 333 60032 84820 92438 555 81633 81073;
0301671430999992000021306004-21200+048370FM-12+0006FMSM V0200801N002112200019N0300001N1+02811+02471101481ADDAA124008991GA1021+012009069GF104991999081008001001021IA2240+02109KA1120M+99999KA2120N+02421MA1999999101411MD1210131+9999REMSYN134AAXX  13064 67143 12580 40804 10281 20247 30141 40148 52013 60094 85802 333 02199 10272 20242 50//4 55/// 84820 92438 555 82640 81073;EQDQ01+000052SCOTLCQ02 +02722ATMX  
0205671430999992000021309004-21200+048370FM-12+0006FMSM V0200801N003112200019N0300001N1+02911+02561101451ADDAA199000091GA1041+006009089GF104991041021008001001021MA1999999101381MD1810031+9999REMSYN092AAXX  13094 67143 32580 40806 10291 20256 30138 40145 58003 84202 333 84820 92438 555 81073;EQDQ01  00002PRCP99
0201671430999992000021312004-21200+048370FM-12+0006FMSM V0201401N004112200019N0300001N1+02901+02501101301ADDAA199000091GA1031+006009089GF103991031021008001001021MA1999999101231MD1710151+9999REMSYN088AAXX  13124 67143 32580 31408 10290 20250 30123 40130 57015 83202 333 0//00 83820 92438;EQDQ01  00002PRCP99
0214671430999992000021315004-21200+048370FM-12+0006FMSM V0201401N003112200019N0300001N1+02751+02391101241ADDAA199000091GA1041+006009089GF104991041081008001001021KA1120M+02991MA1999999101171MD1510061+9999REMSYN088AAXX  13154 67143 32580 41406 10275 20239 30117 40124 55006 84802 333 10299 84820 92438;EQDQ01  00002PRCP99
0276671430999992000021400004-21200+048370FM-12+0006FMSM V0201401N001010099019N0150001N1+02401+02331101181ADDAA106013091AC11I9AY161061GA1011+005109099GA2021+005109089GA3051+009909069GF107991061091004501001001MA1999999101111MD1710121+9999MW1151REMSYN130AAXX  14004 67143 11465 71402 10240 20233 30111 40118 57012 60131 7156/ 86900 333 0//65 82817 81917 85633 94992 94993 95832 924/7;
0266671430999992000021403004-21200+048370FM-12+0006FMSM V0201401N002110099019N0150001N1+02361+02271101181ADDAA112013091AY191031AY221031GA1011+005109099GA2021+005109089GA3071+009909069GF107991071091004501999999MA1999999101111MD1510001+9999MW1171REMSYN118AAXX  14034 67143 21465 71404 10236 20227 30111 40118 55000 71792 879// 333 60132 82817 81917 87633 94912 95832 92437;
0334671430999992000021406004-21200+048370FM-12+0006FMSM V0201801N001010099019N0300001N1+02501+02281101271ADDAA124013091AY191061AY221061GA1011+006009099GA2031+006009089GA3071+009909069GF107991071091008001999999IA2240+02009KA1120M+02991KA2120N+02311MA1999999101201MD1310091+9999MW1031REMSYN148AAXX  14064 67143 11580 71802 10250 20228 30120 40127 53009 60134 70392 879// 333 02069 10299 20231 50//4 55/// 83820 81920 87633 94993 95834 92438;
0195671430999992000021409004-21200+048370FM-12+0006FMSM V0201801N003110900019N0300001N1+02801+02421101191ADDAA199000091GA1041+006009089GF106991041081008001001021MA1999999101121MD1810081+9999REMSYN082AAXX  14094 67143 32580 61806 10280 20242 30112 40119 58008 84802 333 84820 92438;EQDQ01  00002PRCP99
0235671430999992000021412004-21200+048370FM-12+0006FMSM V0201801N00311007501CN0300001N1+02851+02521101061ADDAA199000091GA1021+012009069GF106991061091008001001021MA1999999100991MD1710131+9999REMSYN122AAXX  14124 67143 32580 61806 10285 20252 30099 40106 57013 86902 333 0//00 85820 81920 94996 95836 92438 555 82640 81073;EQDQ01  00002PRCP99
0300671430999992000021415004-21200+048370FM-12+0006FMSM V0201801N00101007501CN0200001N1+02731+02541101091ADDAA199000091AY121031AY221031GA1011+012009069GF106991051091008001001021KA1120M+02971MA1999999101021MD1310031+9999MW1151REMSYN152AAXX  14154 67143 31570 61802 10273 20254 30102 40109 53003 71522 85902 333 10297 84820 81920 94995 94996 94997 95835 95836 95837 92438 555 81640 83073;EQDQ01  00002PRCP99
0205671430999992000021503004-21200+048370FM-12+0006FMSM V0201801N00411012001CN0300001N1+02681+02511101131ADDAA199000091GA1041+006009089GF105991051081008001001001MA1999999101061MD1310111+9999REMSYN092AAXX  15034 67143 32580 51808 10268 20251 30106 40113 53011 85800 333 84820 92438 555 82633;EQDQ01  00002PRCP99
0272671430999992000021506004-21200+048370FM-12+0006FMSM V0201401N004112200019N0300001N1+02871+02591101291ADDAA124001091AC13C9AY161061AY221061GA1041+006009089GF104991041081008001001001KA1120M+02971KA2120N+02581MA1999999101221MD1210161+9999MW1011REMSYN124AAXX  15064 67143 11580 41408 10287 20259 30122 40129 52016 60014 70162 84800 333 0//53 10297 20258 50//4 55/// 84820 92438;
0195671430999992000021509004-21200+048370FM-12+0006FMSM V0201401N004112200019N0300001N1+02921+02561101171ADDAA199000091GA1041+006009089GF104991041021008001001001MA1999999101101MD1710121+9999REMSYN082AAXX  15094 67143 32580 41408 10292 20256 30110 40117 57012 84200 333 84820 92438;EQDQ01  00002PRCP99
0201671430999992000021512004-21200+048370FM-12+0006FMSM V0201401N004112200019N0400001N1+02951+02521101001ADDAA199000091GA1041+006909089GF104991041021008001001001MA1999999100931MD1710171+9999REMSYN088AAXX  15124 67143 32582 41408 10295 20252 30093 40100 57017 84200 333 0//00 84823 92438;EQDQ01  00002PRCP99
0208671430999992000021515004-21200+048370FM-12+0006FMSM V0201401N004112200019N0300001N1+02781+02581101061ADDAA199000091GA1041+006009029GF104991041021008001001001KA1120M+03031MA1999999100991MD1310061+9999REMSYN082AAXX  15154 67143 32580 41408 10278 20258 30099 40106 53006 84200 333 10303 84820;EQDQ01  00002PRCP99
0236671430999992000021600004-21200+048370FM-12+0006FMSM V0201401N002110099019N0200001N1+02381+02241101001ADDAA106007191AC12C9AY161061GA1021+005109089GA2051+009909069GF106991061081004501001001MA1999999100931MD1710181+9999MW1151REMSYN106AAXX  16004 67143 11470 61404 10238 20224 30093 40100 57018 60071 7156/ 86800 333 0//12 82817 85633 924/8;
0236671430999992000021603004-21200+048370FM-12+0006FMSM V0202801N003110099019N0200001N1+02351+02281101031ADDAA112008091AY161031AY221031GA1021+005109089GA2061+009909069GF107991071081004501999999MD1310031+9999MW1151REMSYN100AAXX  16034 67143 21470 72806 10235 20228 30196 40103 53003 71562 878// 333 60082 82817 86633 92438;EQDQ01+101963APOSP 
0306671430999992000021606004-21200+048370FM-12+0006FMSM V0202401N005110120019N0300001N1+02701+02471101111ADDAA124008991AC13C9AY161061AY221061GA1021+006009089GA2051+012009069GF106991061081004501001001IA2240+01809KA1120M+03031KA2120N+02301MA1999999101041MD1810081+9999MW1011REMSYN130AAXX  16064 67143 11480 62410 10270 20247 30104 40111 58008 60094 70162 86800 333 01813 10303 20230 50//4 55/// 82820 85640 92438;
0195671430999992000021609004-21200+048370FM-12+0006FMSM V0203601N00721090001CN0300001N1+02901+02381100921ADDAA199000091GA1031+006009089GF106991031081008001001021MA1999999100851MD1710191+9999REMSYN082AAXX  16094 67143 32580 63614 10290 20238 30085 40092 57019 83802 333 83820 84073;EQDQ01  00002PRCP99
0233671430999992000021612004-21200+048370FM-12+0006FMSM V0202201N009310900019N0300001N1+02901+02521100771ADDAA199000091GA1021+006009089GA2041+012009069GF106991041081008001001021MA1999999100701MD1710151+9999REMSYN104AAXX  16124 67143 32580 62218 10290 20252 30070 40077 57015 84802 333 0//00 82820 84640 92438 555 82073;EQDQ01  00002PRCP99
0261671430999992000021615004-21200+048370FM-12+0006FMSM V0202201N008210099019N0150001N1+02621+02451100801ADDAA106000291AY121031AY221031GA1021+005109089GA2061+009909069GF107991061081004501071999KA1120M+03001MA1999999100731MD1310031+9999MW1211REMSYN116AAXX  16154 67143 21465 72216 10262 20245 30073 40080 53003 72122 8687/ 333 10300 69921 82817 86633 92448 555 84460;
0273671430999992000021618004-21200+048370FM-12+0006FMSM V0202201N005110099019N0150001N1+02541+02401100891ADDAA112000591AY161061AY221061GA1031+005109089GA2051+009909069GA3041+030009049GF108991051081008001071999KA1120M+03001MA1999999100821MD1110091+9999MW1151REMSYN112AAXX  16184 67143 11565 82210 10254 20240 30082 40089 51009 69942 71562 8587/ 333 10300 83817 85633 84460 924/7;
0254671430999992000021621004-21200+048370FM-12+0006FMSM V0201801N005110099019N0100001N1+02421+02291100701ADDAA106008091AY161031AY221031GA1031+005109089GA2031+009909069GA3051+030009049GF108991051081004501071999MA1999999100631MD1710191+9999MW1211REMSYN106AAXX  16214 67143 21460 81810 10242 20229 30063 40070 57019 72162 8587/ 333 60081 83817 83633 85460 924/7;
0254671430999992000021700004-21200+048370FM-12+0006FMSM V0202001N005110300019N0100001N1+02461+02341100471ADDAA106017091AC12I9AY161061AY221061GA1031+005109089GA2051+030009049GF108991041081004501071999MA1999999100401MD1710231+9999MW1611REMSYN116AAXX  17004 67143 11460 82010 10246 20234 30040 40047 57023 60171 76162 8487/ 333 0//96 83817 85460 924/7 555 82633;
0204671430999992000021703004-21200+048370FM-12+0006FMSM V0202401N00821009001CN0200001N1+02651+02491100431ADDAA112026091AY161031AY221031GA1041+005109029GF108991051081004501071999MA1999999100361MD1510041+9999MW1151REMSYN088AAXX  17034 67143 21470 82416 10265 20249 30036 40043 55004 71562 8587/ 333 60262 84817;
0171671430999992000021709004-21200+048370FM-12+0006FMSM V0202201N008210090019N0150001N1+99999+99999100331ADDAY161031AY221031GF107991071081004501999999MD1999999-0591MW1211OA149901291REMSYN086AAXX  17094 67143 41465 72216 40033 72162 878// 333 59059 92447 91125 94322 555 69921;
0266671430999992000021712004-21200+048370FM-12+0006FMSM V0202201N009810060019N0050001N1+02651+02501100221ADDAA106001091AC11C9AY161061AY261061GA1041+003909079GA2031+006009089GA3061+009909069GF108991081081004501999999MA1999999100151MD1710111+9999MW1611REMSYN112AAXX  17124 67143 11450 82219 10265 20250 30015 40022 57011 60011 76166 888// 333 0//51 84713 83820 86633 92447;
0217671430999992000021803004-21200+048370FM-12+0006FMSM V02099999999999999999N0025001N1+99999+99999999999ADDAA112006091GA1041+003909079GA2999+009909069GF107991999999022501999999MA1999999100601MD1310081+9999REMSYN088AAXX  18034 67143 2/825 71/81 3006/ 4/063 53008 72162 88/// 333 60062 84713 8/633 92448;EQDQ01+000082SCOTLC
0232671430999992000021809004-21200+048370FM-12+0006FMSM V0200801N008210099019N0100001N1+02651+02501100811ADDAA106005091AY161031AY221031GA1041+003909079GA2071+009909069GF108991081081004501999999MA1999999100741MD1810011+9999MW1611REMSYN100AAXX  18094 67143 21460 80816 10265 20250 30074 40081 58001 76162 888// 333 60051 84713 87633 92446;
0245671430999992000022109004-21200+048370FM-12+0006FMSM V0200801N005110099019N0200001N1+02901+02681101191ADDAA199000091AY121031AY221031GA1041+006009089GA2061+009909069GF107991071081008001999999MA1999999101121MD1810021+9999MW1151REMSYN094AAXX  21094 67143 31570 70810 10290 20268 30112 40119 58002 71522 878// 333 84820 86633 92438;EQDQ01  00002PRCP99
0244671430999992000022112004-21200+048370FM-12+0006FMSM V0200801N006210099019N0150001N1+02711+02501101041ADDAA106000191AC13C9AY161061AY211061GA1031+006009089GA2071+009909069GF108991081999008001999999MA1999999100971MD1710151+9999MW1151REMSYN106AAXX  21124 67143 11565 80812 10271 20250 30097 40104 57015 69921 71561 88/// 333 0//53 83820 87633 92438;
0251671430999992000022115004-21200+048370FM-12+0006FMSM V0201201N004110099019N0100001N1+02521+02361101121ADDAA106000691AY121031AY221031GA1031+006009089GA2071+009909069GF108991081081008001999999KA1120M+02901MA1999999101051MD1310081+9999MW1601REMSYN106AAXX  21154 67143 21560 81208 10252 20236 30105 40112 53008 76022 888// 333 10290 69961 83820 87633 92437;
0236671430999992000022200004-21200+048370FM-12+0006FMSM V0201201N002110099019N0150001N1+02241+02061101201ADDAA106011991AC11C9AY161061GA1021+005109089GA2051+009909069GF108991081081004501999999MA1999999101131MD1610041+9999MW1631REMSYN106AAXX  22004 67143 11465 81204 10224 20206 30113 40120 56004 60121 7636/ 888// 333 0//91 82817 85633 924/8;
0232671430999992000022203004-21200+048370FM-12+0006FMSM V0202401N002110099019N0150001N1+02201+02081101251ADDAA112014091AY161031AY221031GA1011+005109089GA2081+009909069GF108991081081004501999999MA1999999101181MD1310051+9999MW1611REMSYN100AAXX  22034 67143 21465 82404 10220 20208 30118 40125 53005 76162 888// 333 60142 81817 88633 92438;
0306671430999992000022206004-21200+048370FM-12+0006FMSM V0202401N003110099019N0250001N1+02221+02101101341ADDAA124020191AC11C9AY161061AY261061GA1011+005109089GA2081+009909069GF108991081081004501999999IA2240+01609KA1120M+02901KA2120N+02201MA1999999101271MD1210111+9999MW1611REMSYN130AAXX  22064 67143 11475 82406 10222 20210 30127 40134 52011 60204 76166 888// 333 01691 10290 20220 50//4 55/// 81817 88633 92437;
0232671430999992000022209004-21200+048370FM-12+0006FMSM V0202401N002110099019N0150001N1+02321+02161101291ADDAA106019091AY161031AY261031GA1011+005109089GA2081+009909069GF108991081081004501999999MA1999999101221MD1810051+9999MW1611REMSYN100AAXX  22094 67143 21465 82404 10232 20216 30122 40129 58005 76166 888// 333 60191 81817 88633 92437;
0266671430999992000022212004-21200+048370FM-12+0006FMSM V0202801N003110300019N0200001N1+02251+02101101141ADDAA106008991AC11C9AY161061AY261061GA1011+005109089GA2041+009909069GA3061+030009049GF108991041081004501071999MA1999999101071MD1710151+9999MW1611REMSYN112AAXX  22124 67143 11470 82806 10225 20210 30107 40114 57015 60091 76166 8487/ 333 0//51 81817 84633 86460 92438;
0273671430999992000022215004-21200+048370FM-12+0006FMSM V0202801N001010300019N0300001N1+02251+02081101171ADDAA106009091AY161031AY221031GA1011+005109089GA2031+009909069GA3061+030009049GF107991031081004501071999KA1120M+02341MA1999999101101MD1310031+9999MW1021REMSYN112AAXX  22154 67143 21480 72802 10225 20208 30110 40117 53003 70262 8387/ 333 10234 60091 81817 83633 86460 92438;
0236671430999992000022300004-21200+048370FM-12+0006FMSM V0202801N002110099019N0200001N1+02101+01941101181ADDAA106001091AC12C9AY161061GA1011+005109089GA2071+009909069GF107991071081004501999999MA1999999101111MD1710081+9999MW1151REMSYN106AAXX  23004 67143 11470 72804 10210 20194 30111 40118 57008 60011 7156/ 878// 333 0//12 81817 87633 924/8;
0232671430999992000022303004-21200+048370FM-12+0006FMSM V0202801N002110099019N0300001N1+02081+01921101171ADDAA112001091AY161031AY221031GA1011+005109089GA2071+009909069GF107991071081004501999999MA1999999101101MD1610011+9999MW1021REMSYN100AAXX  23034 67143 21480 72804 10208 20192 30110 40117 56001 70262 878// 333 60012 81817 87633 92438;
0319671430999992000022306004-21200+048370FM-12+0006FMSM V0202801N002110300019N0300001N1+02441+02231101301ADDAA124011991AC12I9GA1011+006009089GA2031+012009069GA3051+030009049GF107991051081008001071999IA2240+01609KA1120M+99999KA2120N+02201MA1999999101231MD1210131+9999REMSYN130AAXX  23064 67143 12580 72804 10244 20223 30123 40130 52013 60124 8587/ 333 01696 10234 20220 50//4 55/// 81820 83640 85460 92438;EQDQ01 +02342ATMX  
0254671430999992000022309004-21200+048370FM-12+0006FMSM V0200801N003110099019N0300001N1+02561+02361101241ADDAA106000491AY161031AY221031GA1021+005109089GA2031+009909069GA3061+030009049GF108991051081004501071999MA1999999101171MD1810061+9999MW1031REMSYN106AAXX  23094 67143 21480 80806 10256 20236 30117 40124 58006 70362 8587/ 333 69941 82817 83633 86460 92438;
0245671430999992000022312004-21200+048370FM-12+0006FMSM V0200801N004110300019N0300001N1+02581+02381101131ADDAA199000091GA1011+005109089GA2031+009909069GA3061+030009049GF108991051081004501071999MA1999999101061MD1710111+9999REMSYN100AAXX  23124 67143 32480 80808 10258 20238 30106 40113 57011 8587/ 333 0//00 81817 83633 86460 92438;EQDQ01  00002PRCP99
0258671430999992000022315004-21200+048370FM-12+0006FMSM V0201401N002110300019N0300001N1+02501+02331101131ADDAA199000091GA1011+005109089GA2031+009909069GA3051+030009049GF107991041081004501071999KA1120M+02641MA1999999101061MD1510001+9999REMSYN100AAXX  23154 67143 32480 71404 10250 20233 30106 40113 55000 8487/ 333 10264 81817 83633 85460 92438;EQDQ01  00002PRCP99
0236671430999992000022400004-21200+048370FM-12+0006FMSM V0201401N002110099019N0200001N1+02231+02081101251ADDAA106024991AC12C9AY161061GA1011+005109089GA2081+009909069GF108991081081004501999999MA1999999101181MD1810061+9999MW1151REMSYN106AAXX  24004 67143 11470 81404 10223 20208 30118 40125 58006 60251 7156/ 888// 333 0//92 81817 88633 924/8;
0306671430999992000022406004-21200+048370FM-12+0006FMSM V0202601N001010099019N0300001N1+02501+02331101411ADDAA124026991AC13C9AY161061AY221061GA1021+005109089GA2071+009909069GF108991081081004501999999IA2240+01509KA1120M+02641KA2120N+02201MA1999999101341MD1210111+9999MW1021REMSYN130AAXX  24064 67143 11480 82602 10250 20233 30134 40141 52011 60274 70262 888// 333 01593 10264 20220 50//4 55/// 82817 87633 92438;
0217671430999992000022409004-21200+048370FM-12+0006FMSM V0202601N001010120019N0350001N1+02601+02431101331ADDAA199000091GA1021+006009089GA2071+012009069GF107991071081008001999999MA1999999101261MD1710081+9999REMSYN088AAXX  24094 67143 32581 72602 10260 20243 30126 40133 57008 878// 333 82820 87640 92438;EQDQ01  00002PRCP99
0223671430999992000022412004-21200+048370FM-12+0006FMSM V0200601N001010120019N0350001N1+02701+02501101241ADDAA199000091GA1031+006009089GA2061+012009069GF107991071081008001999999MA1999999101171MD1710091+9999REMSYN094AAXX  24124 67143 32581 70602 10270 20250 30117 40124 57009 878// 333 0//00 83820 86640 92438;EQDQ01  00002PRCP99
0236671430999992000022415004-21200+048370FM-12+0006FMSM V0200601N001010120019N0300001N1+02501+02391101311ADDAA199000091GA1031+006009089GA2051+012009069GF107991071081008001999999KA1120M+02741MA1999999101241MD1310071+9999REMSYN094AAXX  24154 67143 32580 70602 10250 20239 30124 40131 53007 878// 333 10274 83820 85640 92438;EQDQ01  00002PRCP99
0195671430999992000022503004-21200+048370FM-12+0006FMSM V0209999C000012200019N0300001N1+02301+02181101471ADDAA199000091GA1041+006009089GF104991041021008001001001MA1999999101401MD1310051+9999REMSYN082AAXX  25034 67143 32580 40000 10230 20218 30140 40147 53005 84200 333 84820 92438;EQDQ01  00002PRCP99
0279671430999992000022506004-21200+048370FM-12+0006FMSM V0203001N00211012001CN0300001N1+02561+02281101521ADDAA199000091GA1021+009909069GF105991051081008001001021IA2240+01709KA1120M+02741KA2120N+02301MA1999999101451MD1210051+9999REMSYN128AAXX  25064 67143 32580 53004 10256 20228 30145 40152 52005 85802 333 01700 10274 20230 50//4 55/// 84820 92438 555 82633 81073;EQDQ01  00002PRCP99
0217671430999992000022509004-21200+048370FM-12+0006FMSM V0202801N002110099019N0300001N1+02701+02261101431ADDAA199000091GA1031+006009089GA2041+009909069GF106991061081008001001001MA1999999101361MD1810091+9999REMSYN088AAXX  25094 67143 32580 62804 10270 20226 30136 40143 58009 86800 333 83820 84633 92438;EQDQ01  00002PRCP99
0223671430999992000022512004-21200+048370FM-12+0006FMSM V0200801N003110099019N0300001N1+02641+02231101391ADDAA199000091GA1031+006009089GA2061+009909069GF107991071081008001999999MA1999999101321MD1610041+9999REMSYN094AAXX  25124 67143 32580 70806 10264 20223 30132 40139 56004 878// 333 0//00 83820 86633 92438;EQDQ01  00002PRCP99
0236671430999992000022515004-21200+048370FM-12+0006FMSM V0209999C000010099019N0300001N1+02601+02221101441ADDAA199000091GA1021+006009089GA2071+009909069GF107991071081008001999999KA1120M+02871MA1999999101371MD1310051+9999REMSYN094AAXX  25154 67143 32580 70000 10260 20222 30137 40144 53005 878// 333 10287 82820 87633 92438;EQDQ01  00002PRCP99
0236671430999992000022600004-21200+048370FM-12+0006FMSM V0200801N001010099019N0150001N1+02301+02261101431ADDAA106000591AC12C9AY161061GA1021+005109089GA2051+009909069GF106991061081004501001001MA1999999101361MD1710121+9999MW1151REMSYN106AAXX  26004 67143 11465 60802 10230 20226 30136 40143 57012 69961 7156/ 86800 333 0//52 82817 85633 924/7;
0232671430999992000022603004-21200+048370FM-12+0006FMSM V0209999C000010099019N0100001N1+02201+02121101411ADDAA112003091AY161031AY221031GA1031+005109089GA2071+009909069GF107991071081004501999999MA1999999101341MD1610021+9999MW1211REMSYN100AAXX  26034 67143 21460 70000 10220 20212 30134 40141 56002 72162 878// 333 60032 83817 87633 92437;
0306671430999992000022606004-21200+048370FM-12+0006FMSM V0200801N002110120019N0300001N1+02541+02241101481ADDAA124005191AC10I9AY161061AY221061GA1021+006009089GA2061+012009069GF106991061081008001001001IA2240+01609KA1120M+02871KA2120N+02191MA1999999101411MD1110071+9999MW1011REMSYN130AAXX  26064 67143 11580 60804 10254 20224 30141 40148 51007 60054 70162 86800 333 01654 10287 20219 50//4 55/// 82820 86640 92438;
0204671430999992000022612004-21200+048370FM-12+0006FMSM V0202801N001010120019N0300001N1+02701+02221101211ADDAA199000021GA1021+006009089GA2071+012009069GF107991071081008001999999MA1999999101141MD1710151+9999REMSYN094AAXX  26124 67143 32580 72802 10270 20222 30114 40121 57015 878// 333 0//00 82820 87640 92438;
0196671430999992000022615004-21200+048370FM-12+0006FMSM V0200801N003110099019N0400001N1+02671+02121101231ADDAA199000021GA1021+006009089GA2071+009909069GF107991071081008001999999KA1120M+02851MD1310021+9999REMSYN088AAXX  26154 67143 32582 70806 10267 20212 40123 53002 878// 333 10285 82820 87633 92438;
0192671430999992000022703004-21200+048370FM-12+0006FMSM V0200801N001012200019N0300001N1+02181+02021101261ADDAA112002091GA1031+006009089GF103991031081008001001001MA1999999101191MD1310021+9999REMSYN098AAXX  27034 67143 22580 30802 10218 20202 30119 40126 53002 83800 333 60022 83820 92438 555 81640;
0256671430999992000022706004-21200+048370FM-12+0006FMSM V0202401N002112200019N0300001N1+02721+02181101341ADDAA124002091AC13I9GA1041+006009089GF104991041021008001001001IA2240+01409KA1120M+02851KA2120N+02181MA1999999101271MD1210081+9999REMSYN118AAXX  27064 67143 12580 42404 10272 20218 30127 40134 52008 60024 84200 333 01458 10285 20218 5///4 55/// 84820 92438;
0205671430999992000022709004-21200+048370FM-12+0006FMSM V0201201N003112200019N0400001N1+02741+01981101251ADDAA199000091GA1031+006909089GF104991041081008001001001MA1999999101181MD1810091+9999REMSYN092AAXX  27094 67143 32582 41206 10274 20198 30118 40125 58009 84800 333 83823 92438 555 82640;EQDQ01  00002PRCP99
0201671430999992000022712004-21200+048370FM-12+0006FMSM V0201201N004112200019N0400001N1+02801+02051101101ADDAA199000091GA1031+006909089GF104991031021008001071001MA1999999101031MD1710151+9999REMSYN088AAXX  27124 67143 32582 41208 10280 20205 30103 40110 57015 83270 333 0//00 83823 92438;EQDQ01  00002PRCP99
0236671430999992000022715004-21200+048370FM-12+0006FMSM V0201201N004110099019N0300001N1+02671+02181101201ADDAA199000091GA1021+006009089GA2071+009909069GF107991071081008001999999KA1120M+02901MA1999999101131MD1310101+9999REMSYN094AAXX  27154 67143 32580 71208 10267 20218 30113 40120 53010 878// 333 10290 82820 87633 92438;EQDQ01  00002PRCP99
0232671430999992000022803004-21200+048370FM-12+0006FMSM V0201201N003110099019N0200001N1+02281+02081101241ADDAA112003091AY161031AY221031GA1021+006009089GA2061+009909069GF107991071081008001999999MA1999999101171MD1310031+9999MW1031REMSYN100AAXX  28034 67143 21570 71206 10228 20208 30117 40124 53003 70362 878// 333 60032 82820 86633 92438;
0244671430999992000022806004-21200+048370FM-12+0006FMSM V0202401N003112200019N0350001N1+02581+02381101441ADDAA124005191AC10I9GA1021+006009089GF104991041081008001001001KA1120M+02901KA2120N+02201MA1999999101371MD1210201+9999REMSYN118AAXX  28064 67143 12581 42406 10258 20238 30137 40144 52020 60054 84800 333 0//14 10290 20220 50//4 55/// 82820 92438;
0195671430999992000022809004-21200+048370FM-12+0006FMSM V0202401N004112200019N0400001N1+02861+02491101391ADDAA199000091GA1021+006009089GF102991021021008001001001MA1999999101321MD1810051+9999REMSYN082AAXX  28094 67143 32582 22408 10286 20249 30132 40139 58005 82200 333 82820 92438;EQDQ01  00002PRCP99
0211671430999992000022812004-21200+048370FM-12+0006FMSM V0200401N005112200019N0400001N1+02881+02201101211ADDAA199000091GA1011+006009089GF101991011081008001001001MA1999999101141MD1710081+9999REMSYN098AAXX  28124 67143 32582 10410 10288 20220 30114 40121 57008 81800 333 0//00 81820 92438 555 81640;EQDQ01  00002PRCP99
0224671430999992000022815004-21200+048370FM-12+0006FMSM V0200601N005112200019N0400001N1+02781+02161101321ADDAA199000091GA1011+006009089GF101991011081008001001001KA1120M+02901MA1999999101251MD1310111+9999REMSYN098AAXX  28154 67143 32582 10610 10278 20216 30125 40132 53011 81800 333 10290 81820 92438 555 81640;EQDQ01  00002PRCP99
0224671430999992000022900004-21200+048370FM-12+0006FMSM V0200401N001012200019N0200001N1+02281+02151101321ADDAA106000591AC11C9AY161061GA1021+006009089GF104991041081008001001001MA1999999101251MD1710121+9999MW1211REMSYN110AAXX  29004 67143 11570 40402 10228 20215 30125 40132 57012 69961 7216/ 84800 333 0//11 82820 924/8 555 82640;
0226671430999992000022903004-21200+048370FM-12+0006FMSM V0202201N002112200019N0300001N1+02251+02111101371ADDAA112000691AY161031AY221031GA1021+012009069GF103991031081008001001021MA1999999101301MD1310051+9999MW1011REMSYN110AAXX  29034 67143 21580 32204 10225 20211 30130 40137 53005 70162 83802 333 69962 82820 92438 555 82640 81073;
0266671430999992000022906004-21200+048370FM-12+0006FMSM V0202201N002112200019N0400001N1+02741+02431101471ADDAA124000591AC13I9GA1021+006009089GF102991021081008001001001IA2240+01709KA1120M+02921KA2120N+02251MA1999999101401MD1210101+9999REMSYN128AAXX  29064 67143 12582 22204 10274 20243 30140 40147 52010 69964 82800 333 01717 10292 20225 50//4 55/// 82820 92438 555 81640;
0186671430999992000022909004-21200+048370FM-12+0006FMSM V0201001N005112200019N0400001N1+02881+02391101401ADDAA199000021GA1021+006009089GF103991031081008001001001MA1999999101331MD1810071+9999REMSYN092AAXX  29094 67143 32582 31010 10288 20239 30133 40140 58007 83800 333 82820 92438 555 82640;
0182671430999992000022912004-21200+048370FM-12+0006FMSM V0200601N005110120019N0300001N1+02851+02381101271ADDAA199000021GA1011+006009089GF107991071081008001999999MA1999999101201MD1710131+9999REMSYN088AAXX  29124 67143 32580 70610 10285 20238 30120 40127 57013 878// 333 0//00 81820 87640;
0214671430999992000022915004-21200+048370FM-12+0006FMSM V0201201N00411009001CN0400001N1+02761+02461101311ADDAA199000091GA1031+005109089GF105991051081004501001021KA1120M+02951MA1999999101241MD1310041+9999REMSYN088AAXX  29154 67143 32482 51208 10276 20246 30124 40131 53004 85802 333 10295 83817 92438;EQDQ01  00002PRCP99
0232671430999992000030103004-21200+048370FM-12+0006FMSM V0201201N007210690019N0200001N1+02701+02411101311ADDAA112001091AY161031AY221031GA1041+006009089GA2041+069009009GF107991041081008001001021MA1999999101241MD1310031+9999MW1151REMSYN100AAXX  01034 67143 21570 71214 10270 20241 30124 40131 53003 71562 84802 333 60012 84820 84073 92438;
0284671430999992000030106004-21200+048370FM-12+0006FMSM V0201201N00621012001CN0300001N1+02821+02421101421ADDAA124001091AC12I9AY161061AY221061GA1041+006009089GF107991061081008001001021IA2240+01909KA1120M+02951KA2120N+02281MA1999999101351MD1210111+9999MW1021REMSYN124AAXX  01064 67143 11580 71212 10282 20242 30135 40142 52011 60014 70262 86802 333 01916 10295 20228 5///4 55/// 84820 83073;
0233671430999992000030112004-21200+048370FM-12+0006FMSM V0201201N002110690019N0300001N1+02801+02581101141ADDAA199000091GA1031+006009089GA2031+069009009GF107991051081008001001021MA1999999101071MD1710141+9999REMSYN104AAXX  01124 67143 32580 71204 10280 20258 30107 40114 57014 85802 333 0//00 83820 83073 92438 555 82640;EQDQ01  00002PRCP99
0230671430999992000030200004-21200+048370FM-12+0006FMSM V0200801N002110099019N0200001N1+02701+02561101171ADDAA106000891AY161061GA1021+005109089GA2051+009909069GF105991051081004501001001MA1999999101101MD1710111+9999MW1211REMSYN106AAXX  02004 67143 11470 50804 10270 20256 30110 40117 57011 69971 7216/ 85800 333 0//19 82817 85633 924/8;
0306671430999992000030206004-21200+048370FM-12+0006FMSM V0201201N005110099019N0150001N1+02601+02461101231ADDAA124002091AC13C9AY161061AY221061GA1031+005109089GA2071+009909069GF108991081081004501999999IA2240+02009KA1120M+02961KA2120N+02481MA1999999101161MD1210191+9999MW1151REMSYN130AAXX  02064 67143 11465 81210 10260 20246 30116 40123 52019 60024 71562 888// 333 02013 10296 20248 50//4 55/// 83817 87633 92438;
0296671430999992000030212004-21200+048370FM-12+0006FMSM V0209999C000010090019N0050001N1+02301+02241101081ADDAA106047091AC12I9AY191061AY261061GA1021+005109099GA2021+005109089GA3071+009009069GF108991071091004501999999MA1999999101011MD1710101+9999MW1951REMSYN142AAXX  02124 67143 11450 80000 10230 20224 30101 40108 57010 60471 79596 879// 333 0//66 82817 82917 87630 94991 94996 94997 95836 95837 92436;
0285671430999992000030215004-21200+048370FM-12+0006FMSM V0200601N002110099019N0100001N1+02501+02381101121ADDAA106008091AY161031AY221031GA1011+005109099GA2031+005109089GA3071+009909069GF108991081091004501999999KA1120M+02731MA1999999101051MD1310041+9999MW1611REMSYN124AAXX  02154 67143 21460 80604 10250 20238 30105 40112 53004 76162 889// 333 10273 60081 83817 81917 87633 94996 95836 92437;
0236671430999992000030300004-21200+048370FM-12+0006FMSM V0200401N006210099019N0150001N1+02681+02561100941ADDAA106007191AC13I9AY161061GA1041+003909079GA2071+009909069GF108991081051004501999999MA1999999100871MD1710181+9999MW1211REMSYN106AAXX  03004 67143 11465 80412 10268 20256 30087 40094 57018 60071 7216/ 885// 333 0//28 84713 87633 924/7;
0232671430999992000030303004-21200+048370FM-12+0006FMSM V0200401N008210099019N0100001N1+02651+02581100921ADDAA112009091AY161031AY221031GA1031+003909079GA2071+009909069GF108991081081004501999999MA1999999100851MD1510021+9999MW1211REMSYN100AAXX  03034 67143 21460 80416 10265 20258 30085 40092 55002 72162 888// 333 60092 83713 87633 92439;
0232671430999992000030309004-21200+048370FM-12+0006FMSM V0200801N008210099019N0080001N1+02601+02521101031ADDAA106006091AY161031AY221031GA1041+003909079GA2081+009909069GF108991081081004501999999MA1999999100951MD1710031+9999MW1611REMSYN100AAXX  03094 67143 21458 80816 10260 20252 30095 40103 57003 76162 888// 333 60061 84713 88633 92446;
0244671430999992000030312004-21200+048370FM-12+0006FMSM V0201001N008210099019N0050001N1+02581+02541100901ADDAA106022191AC12I9AY161061AY261061GA1031+003909079GA2081+009909069GF108991081081004501999999MA1999999100831MD1710131+9999MW1611REMSYN106AAXX  03124 67143 11450 81016 10258 20254 30083 40090 57013 60221 76166 888// 333 0//66 83713 88633 92446;
0251671430999992000030315004-21200+048370FM-12+0006FMSM V0201001N008210099019N0050001N1+02581+02491101021ADDAA106017091AY161031AY261031GA1041+003909079GA2081+009909069GF108991081081004501999999KA1120M+02781MA1999999100951MD1310121+9999MW1611REMSYN106AAXX  03154 67143 21450 81016 10258 20249 30095 40102 53012 76166 888// 333 10278 60171 84713 88633 92446;
0251671430999992000030318004-21200+048370FM-12+0006FMSM V0201001N009810099019N0050001N1+02461+02371101141ADDAA112038191AY161061AY261061GA1041+003909079GA2081+009909069GF108991081081008001999999KA1120M+02721MA1999999101071MD1210121+9999MW1611REMSYN106AAXX  03184 67143 11550 81019 10246 20237 30107 40114 52012 60382 76166 888// 333 10272 84713 88633 924/6;
0244671430999992000030400004-21200+048370FM-12+0006FMSM V0201001N009310099019N0080001N1+02501+02441100931ADDAA106062091AC11C9AY161061AY261061GA1041+003909079GA2081+009909069GF108991081051004501999999MA1999999100861MD1710121+9999MW1611REMSYN106AAXX  04004 67143 11458 81018 10250 20244 30086 40093 57012 60621 76166 885// 333 0//61 84713 88633 924/6;
0260671430999992000030403004-21200+048370FM-12+0006FMSM V0201001N005110090019N0050001N1+02381+02321101101ADDAA112137091AY161031AY261031GA1041+003909079GA2031+009009069GA3061+030009049GF108991051051004501071999MA1999999101031MD1310171+9999MW1631REMSYN112AAXX  04034 67143 21450 81010 10238 20232 30103 40110 53017 76366 8557/ 333 61372 84713 83630 86460 92446 91119;
0328671430999992000030406004-21200+048370FM-12+0006FMSM V0200601N004110090019N0050001N1+02501+02441101231ADDAA124262991AC12I9AY161061AY261061GA1041+003909079GA2041+009009069GA3061+030009049GF108991051051004501071999IA2240+01709KA1120M+02781KA2120N+02231MA1999999101161MD1210131+9999MW1611REMSYN136AAXX  04064 67143 11450 80608 10250 20244 30116 40123 52013 62634 76166 8557/ 333 01766 10278 20223 50//4 55/// 84713 84630 86460 92446;
0242671430999992000030409004-21200+048370FM-12+0006FMSM V0200601N004110099019N0150001N1+02491+02401101131ADDAA106114091AY161031AY221031GA1041+003909079GA2061+009909069GF108991061051004501071999MA1999999101061MD1810101+9999MW1211REMSYN110AAXX  04094 67143 21465 80608 10249 20240 30106 40113 58010 72162 8657/ 333 61141 84713 86633 92437 555 84460;
0244671430999992000030412004-21200+048370FM-12+0006FMSM V0200601N008210099019N0200001N1+02621+02541101001ADDAA106066091AC12C9AY161061AY221061GA1041+003909079GA2061+009909069GF108991061051004501071999MA1999999100931MD1710131+9999MW1151REMSYN106AAXX  04124 67143 11470 80616 10262 20254 30093 40100 57013 60661 71562 8657/ 333 0//62 84713 86633 92438;
0270671430999992000030415004-21200+048370FM-12+0006FMSM V0200601N008210099019N0150001N1+02601+02541101041ADDAA106017091AY161031AY221031GA1021+005109089GA2081+009909049GF199999071081004501999999KA1120M+02721MA1999999100971MD1510041+9999MW1611REMSYN106AAXX  04154 67143 21465 70616 10260 20254 30097 40104 55004 76162 878// 333 10272 60171 82817 88433 92437;EQDQ01+000072SCOTCV
0238671430999992000030421004-21200+048370FM-12+0006FMSM V0200601N006210099019N0100001N1+02481+02401101201ADDAA106033091AY161031AY221031GA1041+003909079GA2081+009909069GF108991081051004501999999MA1999999101131MD1810021+9999MW1611REMSYN106AAXX  04214 67143 21460 80612 10248 20240 30113 40120 58002 76162 885// 333 60331 84713 88633 924/7 91114;
0250671430999992000030500004-21200+048370FM-12+0006FMSM V0200601N004110099019N0100001N1+02531+02461101151ADDAA106033091AC11C9AY161061AY261061GA1041+003909079GA2081+009909069GF108991081051004501999999MA1999999101081MD1810051+9999MW1611REMSYN112AAXX  05004 67143 11460 80608 10253 20246 30108 40115 58005 60331 76166 885// 333 0//61 84713 88633 924/7 91116;
0232671430999992000030503004-21200+048370FM-12+0006FMSM V0200601N006210099019N0100001N1+02501+02431101161ADDAA112061091AY161031AY261031GA1041+003909079GA2081+009909069GF108991081051004501999999MA1999999101091MD1310011+9999MW1611REMSYN100AAXX  05034 67143 11460 80612 10250 20243 30109 40116 53001 76166 885// 333 60612 84713 88633 92438;
0306671430999992000030506004-21200+048370FM-12+0006FMSM V0200601N007210099019N0100001N1+02521+02431101341ADDAA124164191AC11C9AY161061AY261061GA1041+003909079GA2081+009909069GF108991081051004501999999IA2240+01709KA1120M+02721KA2120N+02451MA1999999101271MD1210181+9999MW1611REMSYN130AAXX  05064 67143 11460 80614 10252 20243 30127 40134 52018 61644 76166 885// 333 01761 10272 20245 50//4 55/// 84713 88633 92437;
0232671430999992000030509004-21200+048370FM-12+0006FMSM V0200601N006210099019N0100001N1+02481+02421101321ADDAA106020091AY161031AY261031GA1021+005109089GA2071+009909069GF108991081081004501999999MA1999999101251MD1810021+9999MW1611REMSYN100AAXX  05094 67143 21460 80612 10248 20242 30125 40132 58002 76166 888// 333 60201 82817 87633 92437;
0244671430999992000030512004-21200+048370FM-12+0006FMSM V0200601N002110099019N0100001N1+02481+02401101171ADDAA106019191AC11C9AY161061AY261061GA1021+005109089GA2071+009909069GF108991081081004501999999MA1999999101101MD1710151+9999MW1611REMSYN106AAXX  05124 67143 11460 80604 10248 20240 30110 40117 57015 60191 76166 888// 333 0//91 82817 87633 92437;
0251671430999992000030515004-21200+048370FM-12+0006FMSM V0200601N001010099019N0200001N1+02461+02381101181ADDAA106008091AY161031AY221031GA1021+005109089GA2071+009909069GF108991081081004501999999KA1120M+02601MA1999999101111MD1510011+9999MW1151REMSYN106AAXX  05154 67143 21470 80602 10246 20238 30111 40118 55001 71562 888// 333 10260 60081 82817 87633 92438;
0236671430999992000030600004-21200+048370FM-12+0006FMSM V0200601N002110099019N0100001N1+02201+02141101251ADDAA106019191AC11C9AY161061GA1031+003909079GA2061+009909069GF108991081051004501999999MA1999999101181MD1710031+9999MW1611REMSYN106AAXX  06004 67143 11460 80604 10220 20214 30118 40125 57003 60191 7616/ 885// 333 0//91 83713 86633 924/7;
0232671430999992000030603004-21200+048370FM-12+0006FMSM V0200601N001010099019N0100001N1+02181+02091101271ADDAA112041091AY161031AY261031GA1031+003909079GA2081+009909069GF108991081051004501999999MA1999999101201MD1310021+9999MW1611REMSYN100AAXX  06034 67143 21460 80602 10218 20209 30120 40127 53002 76166 885// 333 60412 83713 88633 92437;
0306671430999992000030606004-21200+048370FM-12+0006FMSM V0200201N001010099019N0200001N1+02341+02251101391ADDAA124055191AC12C9AY161061AY221061GA1031+005109089GA2071+009909069GF108991081081004501999999IA2240+01609KA1120M+02601KA2120N+02181MA1999999101321MD1210121+9999MW1151REMSYN130AAXX  06064 67143 11470 80202 10234 20225 30132 40139 52012 60554 71562 888// 333 01692 10260 20218 5///4 55/// 83817 87633 92438;
0334671430999992000030609004-21200+048370FM-12+0006FMSM V0200201N005110099019N0150001N1+02481+02301101341ADDAA106023091AY161031AY221031GA1031+005109089GA2071+009909069GF108991081081004501999999KA1120M+02761KA2120N+01561MA1999999101271MD1610051+9999MW1611REMSYN176AAXX  06094 67143 21465 80210 10248 20230 30127 40134 56005 76162 888// 333 60231 83817 87633 92437 67152 31581 60420 10276 20156 39201 48512 50004 71422 83270 333 83820 91122;
0244671430999992000030612004-21200+048370FM-12+0006FMSM V0200201N003110099019N0100001N1+02421+02301101201ADDAA106002091AC13C9AY161061AY221061GA1021+005109089GA2071+009909069GF108991081081004501999999MA1999999101131MD1610141+9999MW1151REMSYN106AAXX  06124 67143 11460 80206 10242 20230 30113 40120 56014 60021 71562 888// 333 0//13 82817 87633 92437;
