0217678610999992000010106004-18220+028930FM-12+1282FVGO V0201101N004612200019N0500001N1+02351+01631999999ADDAA106000091GA1031+030009079GF103991031001999999081011KA1120N+01861MA1999999087171MD1999999-0071ME1315009REMSYN082AAXX  01064 67861 32984 31109 10235 20163 38717 48500 83081 333 20186 59007 83360;EQDQ01  00002PRCP06
0202678610999992000010112004-18220+028930FM-12+1282FVGO V0200501N00101045001CN0300001N1+02791+01611999999ADDAY191061AY281061GA1011+012009099GF107991041021017501071031MA1999999086891MD1999999-0071ME1314739MW1211REMSYN088AAXX  01124 67861 41780 70502 10279 20161 38689 48473 72198 84273 333 59007 81940 84850;
0202678610999992000010115004-18220+028930FM-12+1282FVGO V0203501N00261045001CN0500001N1+02791+01681999999ADDAY191031AY221031GA1011+015009099GF107991031021017501071031MA1999999086761MD1999999-0061ME1314609MW1171REMSYN088AAXX  01154 67861 41784 73505 10279 20168 38676 48460 71792 83273 333 59006 81950 83856;
0221678610999992000010118004-18220+028930FM-12+1282FVGO V0201001N00211105001CN0500001N1+02151+01691999999ADDAY191061AY221061GA1011+015009099GF106991011091017501071031KA1120M+03041MA1999999086921MD1999999-0091ME1314739MW1131REMSYN094AAXX  01184 67861 41784 61004 10215 20169 38692 48473 71392 81973 333 10304 59009 81950 84460;
0238678610999992000010206004-18220+028930FM-12+1282FVGO V0200901N00461045001CN0500001N1+02191+01641999999ADDAA124000191AY191061AY211061GA1011+012009099GF107991011091012501071031KA1120N+01921MA1999999087141MD1999999-0031ME1314959MW1291REMSYN100AAXX  02064 67861 11684 70909 10219 20164 38714 48495 69924 72991 81973 333 20192 59003 81940 87460;
0174678610999992000010209004-18220+028930FM-12+1282FVGO V0200601N003110450019N0500001N1+02531+01771999999ADDGA1021+009609089GF107991021011012501041081MA1999999087211MD1999999+0091ME1315039REMSYN082AAXX  02094 67861 42684 70606 10253 20177 38721 48503 82148 333 58009 82832 87299;
0202678610999992000010212004-18220+028930FM-12+1282FVGO V0200501N00211012001CN0500001N1+02651+01661999999ADDAY121061AY221061GA1011+009009099GF107991061021012501031031MA1999999086981MD1999999+0091ME1314819MW1171REMSYN088AAXX  02124 67861 41684 70504 10265 20166 38698 48481 71722 86233 333 58009 81930 86841;
0224678610999992000010215004-18220+028930FM-12+1282FVGO V0203301N002110450019N0500001N1+02591+01691999999ADDAY191031AY221031GA1011+009009099GA2031+012309089GF107991031021012501071031MA1999999086881MD1999999+0121ME1314709MW1021REMSYN094AAXX  02154 67861 41684 73304 10259 20169 38688 48470 70292 83273 333 58012 81930 83841 86299;
0260678610999992000010306004-18220+028930FM-12+1282FVGO V0201701N003610450019N0450001N1+02001+01881999999ADDAA124000591AY191061AY261061GA1011+002709079GA2021+006009099GF107991021091008001071031KA1120N+01931MA1999999087291MD1999999+0151ME1315109MW1151REMSYN106AAXX  03064 67861 11583 71707 10200 20188 38729 48510 69954 71596 82973 333 20193 58015 82920 81709 87460;
0202678610999992000010309004-18220+028930FM-12+1282FVGO V0201301N00261045001CN0500001N1+02451+01731999999ADDAY191031AY221031GA1011+009009099GF107991011021012501071031MA1999999087291MD1999999+0081ME1315119MW1021REMSYN088AAXX  03094 67861 41684 71305 10245 20173 38729 48511 70292 81273 333 58008 81930 86460;
0174678610999992000010312004-18220+028930FM-12+1282FVGO V0203601N002110150019N0500001N1+02361+01701999999ADDGA1051+015009089GF107991051021017501071031MA1999999087031MD1999999+0051ME1314859REMSYN082AAXX  03124 67861 42784 73604 10236 20170 38703 48485 85273 333 58005 85850 83099;
0202678610999992000010315004-18220+028930FM-12+1282FVGO V0203601N00051045001CN0500001N1+02601+01611999999ADDAY121031AY221031GA1031+015009089GF107991021021017501071021MA1999999087001MD1999999+0121ME1314829MW1151REMSYN088AAXX  03154 67861 41784 73601 10260 20161 38700 48482 71522 82272 333 58012 83850 87460;
0174678610999992000010409004-18220+028930FM-12+1282FVGO V0200801N004110450019N0500001N1+02681+01671999999ADDGA1031+012309089GF107991031021012501031021MA1999999087211MD1999999-0081ME1315049REMSYN082AAXX  04094 67861 42684 70808 10268 20167 38721 48504 83232 333 59008 83841 84099;
0168678610999992000010412004-18220+028930FM-12+1282FVGO V0201001N004112200019N0500001N1+02971+01511999999ADDGA1041+018009029GF106991041021017501001011MA1999999087041MD1999999+0011ME1314899REMSYN076AAXX  04124 67861 42784 61008 10297 20151 38704 48489 84201 333 58001 84856;
0174678610999992000010415004-18220+028930FM-12+1282FVGO V0201001N003111050019N0500001N1+02971+01021999999ADDGA1011+021009089GF105991011021017501031011MA1999999086931MD1999999-0071ME1314789REMSYN082AAXX  04154 67861 42784 51006 10297 20102 38693 48478 81231 333 59007 81857 85099;
0187678610999992000010418004-18220+028930FM-12+1282FVGO V0201001N003619999999N0500001N1+02601+01291999999ADDGA1041+030009079GF105991041001999999031011KA1120M+03091MA1999999087021MD1999999-0091ME1314869REMSYN082AAXX  04184 67861 42984 51007 10260 20129 38702 48486 84031 333 10309 59009 84360;
0196678610999992000010500004-18220+028930FM-12+1282FVGO V0201001N005112200019N0500001N1+02221+01501999999ADDAY111061AY211061GA1011+009009099GF102991011091012501071031MA1999999087121MD1999999-0021ME1314959MW1131REMSYN082AAXX  05004 67861 41684 21010 10222 20150 38712 48495 71311 81973 333 59002 81930;
0168678610999992000010503004-18220+028930FM-12+1282FVGO V0201201N003119999999N0500001N1+01941+01681999999ADDGA1041+030009079GF106991041001999999041021MA1999999087151MD1999999-0041ME1314969REMSYN076AAXX  05034 67861 42984 61206 10194 20168 38715 48496 84042 333 59004 84360;
0224678610999992000010515004-18220+028930FM-12+1282FVGO V0200701N00571045001CN0300001N1+02471+01771999999ADDAY191031AY261031GA1011+021009099GA2031+021009089GF107991031021022501071031MA1999999086961MD1999999+0031ME1314809MW1951REMSYN094AAXX  05154 67861 41880 70711 10247 20177 38696 48480 79596 83273 333 58003 81957 83857 85460;
0202678610999992000010603004-18220+028930FM-12+1282FVGO V0200301N00101045001CN0300001N1+02031+01831999999ADDAY161031AY221031GA1031+012009069GF105991031051012501071021MA1999999087181MD1999999+0031ME1314999MW1151REMSYN088AAXX  06034 67861 41680 50302 10203 20183 38718 48499 71562 83572 333 58003 83640 83360;
0238678610999992000010606004-18220+028930FM-12+1282FVGO V0200201N002110450019N0450001N1+02361+01861999999ADDAA124002091AY161061AY221061GA1021+006009069GF107991021051008001081021KA1120N+02001MA1999999087311MD1999999-0031ME1315149MW1021REMSYN100AAXX  06064 67861 11583 70204 10236 20186 38731 48514 60024 70262 82582 333 20200 59003 82620 86099;
0168678610999992000010609004-18220+028930FM-12+1282FVGO V0200401N003110114019N0500001N1+02631+01711999999ADDGA1051+011409029GF105991051021012501001011MA1999999087231MD1999999-0101ME1315069REMSYN076AAXX  06094 67861 42684 50406 10263 20171 38723 48506 85201 333 59010 85838;
0174678610999992000010615004-18220+028930FM-12+1282FVGO V0209999C000012200019N0500001N1+03041+01541999999ADDGA1011+018009099GF103991031021017501001031MA1999999086701MD1999999-0261ME1314559REMSYN082AAXX  06154 67861 42784 30000 10304 20154 38670 48455 83203 333 59026 81956 83856;
0202678610999992000010703004-18220+028930FM-12+1282FVGO V0201501N00101045001CN0300001N1+02001+01931999999ADDAY191031AY261031GA1011+006009099GF107991011091008001071031MA1999999086971MD1999999-0211ME1314789MW1911REMSYN088AAXX  07034 67861 41580 71502 10200 20193 38697 48478 79196 81973 333 59021 81920 87460;
0238678610999992000010706004-18220+028930FM-12+1282FVGO V0201601N005110027019N0300001N1+01901+01811999999ADDAA124017091AY191061AY261061GA1051+002709079GF108991051061002501071999KA1120N+01861MA1999999087121MD1999999-0191ME1314929MW1021REMSYN100AAXX  07064 67861 11380 81610 10190 20181 38712 48492 60174 70296 8567/ 333 20186 59019 85709 88460;
0174678610999992000010709004-18220+028930FM-12+1282FVGO V0203601N00461045001CN0350001N1+01951+01641999999ADDGA1031+003009079GF107991031061004501071999MA1999999087191MD1999999-0171ME1314999REMSYN082AAXX  07094 67861 42481 73609 10195 20164 38719 48499 8367/ 333 59017 83710 87460;
0187678610999992000010712004-18220+028930FM-12+1282FVGO V0200701N00151045001CN0500001N1+02461+01701094801ADDGA1011+009609089GA2031+030009049GF107991011011012501071021MA1999999086991MD1999999+0051REMSYN088AAXX  07124 67861 42684 70703 10246 20170 38699 49480 81172 333 58005 81832 83460 85099;
0174678610999992000010715004-18220+028930FM-12+1282FVGO V0201801N001012200019N0500001N1+02701+01641999999ADDGA1011+013509089GF103991011021012501031021MA1999999086751MD1999999+0051ME1314589REMSYN082AAXX  07154 67861 42684 31802 10270 20164 38675 48458 81232 333 58005 81845 83099;
0193678610999992000010718004-18220+028930FM-12+1282FVGO V0209999C000012200019N0300001N1+02151+01921999999ADDGA1011+030009039GF103991011001999999061021KA1120M+02701MA1999999086831MD1999999-0051ME1314649REMSYN088AAXX  07184 67861 42980 30000 10215 20192 38683 48464 81062 333 10270 59005 81360 83099;
0174678610999992000010809004-18220+028930FM-12+1282FVGO V0203301N004610450019N0500001N1+02741+01741999999ADDGA1031+013509089GF106991031021012501041021MA1999999086881MD1999999-0311ME1314719REMSYN082AAXX  08094 67861 42684 63309 10274 20174 38688 48471 83242 333 59031 83845 83099;
0174678610999992000010812004-18220+028930FM-12+1282FVGO V0202701N004111050019N0500001N1+02901+01641999999ADDGA1021+015009089GF105991021021017501031021MA1999999086681MD1999999-0311ME1314529REMSYN082AAXX  08124 67861 42784 52708 10290 20164 38668 48452 82232 333 59031 82850 83099;
0202678610999992000010815004-18220+028930FM-12+1282FVGO V0201501N005110150019N0300001N1+02261+01981999999ADDAY191031AY261031GA1011+015009099GF107991051021017501071031MA1999999086611MD1999999-0141ME1314439MW1961REMSYN088AAXX  08154 67861 41780 71510 10226 20198 38661 48443 79696 85273 333 59014 81950 85850;
0221678610999992000010818004-18220+028930FM-12+1282FVGO V0209999C00001045001CN0250001N1+02201+01901999999ADDAY191061AY261061GA1011+015009099GF107991011091017501071999KA1120M+03041MA1999999086701MD1999999-0131ME1314519MW1601REMSYN094AAXX  08184 67861 41775 70000 10220 20190 38670 48451 76096 8197/ 333 10304 59013 81950 87460;
0224678610999992000010900004-18220+028930FM-12+1282FVGO V0200801N00511002401CN0250001N1+02051+01831999999ADDAY161061AY221061GA1051+002409079GA2011+009009099GF107991051061002501071999MA1999999086801MD1999999-0091ME1314609MW1131REMSYN094AAXX  09004 67861 41375 70810 10205 20183 38680 48460 71362 8567/ 333 59009 81930 85708 87460;
0224678610999992000010903004-18220+028930FM-12+1282FVGO V0200901N005710450019N0200001N1+01801+01731999999ADDAY191031AY261031GA1031+002409079GA2011+009009099GF108991031061002501071999MA1999999086741MD1999999+0001ME1314539MW1611REMSYN094AAXX  09034 67861 41370 80911 10180 20173 38674 48453 76196 8367/ 333 58000 81930 83708 88460;
0196678610999992000010909004-18220+028930FM-12+1282FVGO V0200501N00261045001CN0500001N1+02351+01691999999ADDGA1011+007509089GA2031+030009039GF107991011021008001041081MA1999999086821MD1999999-0061ME1314639REMSYN088AAXX  09094 67861 42584 70505 10235 20169 38682 48463 81248 333 59006 81825 83360 85299;
0243678610999992000010912004-18220+028930FM-12+1282FVGO V0201501N00721045001CN0500001N1+02401+01811999999ADDAY191061AY221061GA1011+009009099GA2031+010509089GF107991031021012501071031MA1999999086082MD1999999+0001ME1314499MW1171REMSYN094AAXX  09124 67861 41684 71514 10240 20181 38608 48449 71792 83273 333 58000 81930 83835 85460;EQDQ01+086083APOSP 
0202678610999992000010915004-18220+028930FM-12+1282FVGO V0200501N00051045001CN0500001N1+02101+01941999999ADDAY191031AY221031GA1011+009009099GF107991021021012501071031MA1999999086591MD1999999-0021ME1314389MW1291REMSYN088AAXX  09154 67861 41684 70501 10210 20194 38659 48438 72992 82273 333 59002 81930 87460;
0221678610999992000010918004-18220+028930FM-12+1282FVGO V0209999C00001045001CN0300001N1+02001+01931999999ADDAY191061AY221061GA1011+009009099GF107991011091012501071031KA1120M+02641MA1999999086711MD1999999+0011ME1314519MW1131REMSYN094AAXX  09184 67861 41680 70000 10200 20193 38671 48451 71392 81973 333 10264 58001 81930 87460;
0224678610999992000011000004-18220+028930FM-12+1282FVGO V0200501N00621002401CN0300001N1+01951+01901999999ADDAY121061AY221061GA1051+002409079GA2011+006009099GF107991051061012501071999MA1999999086961MD1999999-0041ME1314569MW1131REMSYN094AAXX  10004 67861 41680 70512 10195 20190 38696 48456 71322 8567/ 333 59004 81920 85708 87460;
0202678610999992000011003004-18220+028930FM-12+1282FVGO V0200501N005710024019N0200001N1+01941+01881999999ADDAY161031AY221031GA1051+002409079GF108991051061002501071999MA1999999086701MD1999999-0041ME1314509MW1601REMSYN088AAXX  10034 67861 41370 80511 10194 20188 38670 48450 76062 8567/ 333 59004 85708 87460;
0260678610999992000011006004-18220+028930FM-12+1282FVGO V0203501N00051002401CN0050001N1+01791+01791999999ADDAA124004191AY191061AY261061GA1071+002409079GA2011+006009099GF108991071061002501071999KA1120N+01751MA1999999086801MD1999999+0001ME1314599MW1951REMSYN106AAXX  10064 67861 11350 83501 10179 20179 38680 48459 60044 79596 8767/ 333 20175 58000 81920 87708 88460;
0202678610999992000011015004-18220+028930FM-12+1282FVGO V0203301N00211045001CN0500001N1+02201+01951999999ADDAY161031AY221031GA1031+006009069GF107991031051008001071999MA1999999086611MD1999999+0021ME1314429MW1021REMSYN088AAXX  10154 67861 41584 73304 10220 20195 38661 48442 70262 8357/ 333 58002 83620 87460;
0221678610999992000011018004-18220+028930FM-12+1282FVGO V0209999C000010300019N0500001N1+02001+01861999999ADDAY161061AY221061GA1051+030009049GF107991051001999999071021KA1120M+02251MA1999999086721MD1999999+0011ME1314529MW1021REMSYN094AAXX  10184 67861 41984 70000 10200 20186 38672 48452 70262 85072 333 10225 58001 85460 84099;
0202678610999992000011100004-18220+028930FM-12+1282FVGO V0209999C00001045001CN0250001N1+02021+01801999999ADDAY161061AY221061GA1041+002709079GF107991041071002501071999MA1999999086771MD1999999+0011ME1314579MW1601REMSYN088AAXX  11004 67861 41375 70000 10202 20180 38677 48457 76062 8477/ 333 58001 84709 87460;
0202678610999992000011103004-18220+028930FM-12+1282FVGO V0209999C00001045001CN0260001N1+01941+01881999999ADDAY161031AY221031GA1021+002709079GF107991021061002501071999MA1999999086721MD1999999+0021ME1314529MW1021REMSYN088AAXX  11034 67861 41376 70000 10194 20188 38672 48452 70262 8267/ 333 58002 82709 87460;
0224678610999992000011109004-18220+028930FM-12+1282FVGO V0201801N00151002401CN0050001N1+01761+01711999999ADDAY191031AY261031GA1051+002409079GA2011+004509099GF108991051071004501071031MA1999999086981MD1999999+0151ME1314779MW1631REMSYN094AAXX  11094 67861 41450 81803 10176 20171 38698 48477 76396 85773 333 58015 81915 85708 88460;
0202678610999992000011112004-18220+028930FM-12+1282FVGO V0209999C00001045001CN0300001N1+02041+01751999999ADDAY191061AY261061GA1021+003009079GF107991021061004501071999MA1999999086801MD1999999+0101ME1314599MW1211REMSYN088AAXX  11124 67861 41480 70000 10204 20175 38680 48459 72196 8267/ 333 58010 82710 87460;
0202678610999992000011115004-18220+028930FM-12+1282FVGO V0203001N00101045001CN0500001N1+02101+01831999999ADDAY161031AY221031GA1031+003009079GF107991031061004501071999MA1999999086721MD1999999+0111ME1314519MW1151REMSYN088AAXX  11154 67861 41484 73002 10210 20183 38672 48451 71562 8367/ 333 58011 83710 87460;
0215678610999992000011118004-18220+028930FM-12+1282FVGO V0209999C000010300019N0280001N1+01961+01871999999ADDAY161061AY221061GA1071+030009019GF107991071001999999071999KA1120M+02201MA1999999086861MD1999999+0141ME1314669MW1021REMSYN088AAXX  11184 67861 41978 70000 10196 20187 38686 48466 70262 8707/ 333 10220 58014 87460;
0174678610999992000011200004-18220+028930FM-12+1282FVGO V0209999C000010024019N0300001N1+01951+01901999999ADDGA1051+002409079GF107991051061002501071999MA1999999086841MD1999999+0071ME1314649REMSYN082AAXX  12004 67861 42380 70000 10195 20190 38684 48464 8567/ 333 58007 85708 87460;
0174678610999992000011203004-18220+028930FM-12+1282FVGO V0203601N00051045001CN0300001N1+01901+01901999999ADDGA1041+002409079GF108991041061002501071999MA1999999086841MD1999999+0121ME1314649REMSYN082AAXX  12034 67861 42380 83601 10190 20190 38684 48464 8467/ 333 58012 84708 88460;
0246678610999992000011206004-18220+028930FM-12+1282FVGO V0200301N00101045001CN0500001N1+02051+01751999999ADDAA124072991AY161061AY221061GA1011+002709079GA2031+003009069GF107991031051004501071999KA1120N+01651MA1999999086941ME1314759MW1021REMSYN106AAXX  12064 67861 11484 70302 10205 20175 38694 48475 60734 70262 8357/ 333 20165 38002 81709 83610 87460;
0224678610999992000011212004-18220+028930FM-12+1282FVGO V0203501N002110450019N0060001N1+01901+01811999999ADDAY191061AY281061GA1011+002409079GA2021+006009099GF107991021091008001071031MA1999999086701MD1999999-0101ME1314509MW1951REMSYN094AAXX  12124 67861 41556 73504 10190 20181 38670 48450 79598 82973 333 59010 82920 81708 87460;
0202678610999992000011215004-18220+028930FM-12+1282FVGO V0203401N00101045001CN0500001N1+02101+02021999999ADDAY191031AY261031GA1011+006009099GF107991011021008001071031MA1999999086581MD1999999-0051ME1314399MW1171REMSYN088AAXX  12154 67861 41584 73402 10210 20202 38658 48439 71796 81273 333 59005 81920 87460;
0221678610999992000011218004-18220+028930FM-12+1282FVGO V0202901N00101045001CN0300001N1+01991+01841999999ADDAY191061AY261061GA1011+006009099GF107991011091008001071031KA1120M+02561MA1999999086731MD1999999-0131ME1314539MW1171REMSYN094AAXX  12184 67861 41580 72902 10199 20184 38673 48453 71796 81973 333 10256 59013 81920 87460;
0168678610999992000011303004-18220+028930FM-12+1282FVGO V0201201N001510300019N0300001N1+01811+01741999999ADDGA1071+030009019GF107991071001999999071999MA1999999086881MD1999999+0041ME1314659REMSYN076AAXX  13034 67861 42980 71203 10181 20174 38688 48465 8707/ 333 58004 87460;
0210678610999992000011306004-18220+028930FM-12+1282FVGO V0201001N003619999999N0500001N1+02171+01631999999ADDAA124034091GA1041+030009039GF107991041001999999041021KA1120N+01751MA1999999086971MD1999999+0031ME1314789REMSYN094AAXX  13064 67861 12984 71007 10217 20163 38697 48478 60344 84042 333 20175 58003 84360 85099;
0206678610999992000011415004-18220+028930FM-12+128299999V0200601N002610450019N0400001N1+02061+01671999999ADDAY191031AY221031GA1011+009009099GF107991041021012501071031MA1999999086881MD1999999+0141ME1314679MW1021REMSYN092    AAXX  14154 67861 41682 70605 10206 20167 38688 48467 70292 84273 333 58014 81930 84839;
0219678610999992000011418004-18220+028930FM-12+128299999V0200301N000510300019N0300001N1+01941+01811999999ADDAY191061AY261061GA1071+030009019GF107991071001999999071999KA1120M+02601MA1999999087071MD1999999+0151ME1314879MW1021REMSYN092    AAXX  14184 67861 41980 70301 10194 20181 38707 48487 70296 8707/ 333 10260 58015 87460;
0206678610999992000011512004-18220+028930FM-12+128299999V0203501N00151045001CN0250001N1+01831+01761999999ADDAY191061AY261061GA1011+002409079GF108991011051004501071999MA1999999087031MD1999999+0071ME1314839MW1911REMSYN092    AAXX  15124 67861 41475 83503 10183 20176 38703 48483 79196 8157/ 333 58007 81708 88460;
0206678610999992000011515004-18220+028930FM-12+128299999V0200401N00261045001CN0500001N1+02011+01831999999ADDAY161031AY221031GA1011+004509069GF107991011051004501071021MA1999999086921MD1999999+0041ME1314719MW1021REMSYN092    AAXX  15154 67861 41484 70405 10201 20183 38692 48471 70262 81572 333 58004 81615 87460;
0206678610999992000011615004-18220+028930FM-12+128299999V0203401N003110075019N0500001N1+02421+01911999999ADDAY181031AY261031GA1051+007509089GF107991051021008001071021MA1999999086631MD1999999-0291ME1314459MW1251REMSYN092    AAXX  16154 67861 41584 73406 10242 20191 38663 48445 72586 85272 333 59029 85825 83099;
0202678610999992000012015004-18220+028930FM-12+1282FVGO V0201101N000510090019N0500001N1+02201+01701999999ADDAY181031AY261031GA1051+009009089GF107991051021012501071999MA1999999087451MD1999999+0181ME1315269MW1801REMSYN088AAXX  20154 67861 41684 71101 10220 20170 38745 48526 78086 8527/ 333 58018 85830 87460;
0215678610999992000012018004-18220+028930FM-12+1282FVGO V0201201N002110300019N0500001N1+02111+01551999999ADDAY181061AY261061GA1071+030009019GF107991071001999999071999KA1120M+02361MA1999999087591MD1999999+0091ME1315409MW1021REMSYN088AAXX  20184 67861 41984 71204 10211 20155 38759 48540 70286 8707/ 333 10236 58009 87460;
0168678610999992000012103004-18220+028930FM-12+1282FVGO V0201001N003610300019N0300001N1+01721+01361999999ADDGA1071+030009019GF107991071001999999071999MA1999999087511MD1999999-0141ME1315309REMSYN076AAXX  21034 67861 42980 71007 10172 20136 38751 48530 8707/ 333 59014 87460;
0210678610999992000012106004-18220+028930FM-12+1282FVGO V0201001N00361045001CN0500001N1+01801+01311999999ADDAA124000591GA1011+006309089GF107991011011008001071999KA1120N+01621MA1999999087641MD1999999-0141ME1315429REMSYN094AAXX  21064 67861 12584 71007 10180 20131 38764 48542 69944 8117/ 333 20162 59014 81821 87460;
0174678610999992000012109004-18220+028930FM-12+1282FVGO V0201001N00571045001CN0500001N1+02091+01441999999ADDGA1011+009009089GF107991011011012501071021MA1999999087691MD1999999-0121ME1315479REMSYN082AAXX  21094 67861 42684 71011 10209 20144 38769 48547 81172 333 59012 81830 86460;
0174678610999992000012112004-18220+028930FM-12+1282FVGO V0200701N002110105019N0500001N1+02401+01561999999ADDGA1051+010509089GF107991051021012501031021MA1999999087471MD1999999-0131ME1315289REMSYN082AAXX  21124 67861 42684 70704 10240 20156 38747 48528 85232 333 59013 85835 83360;
0202678610999992000012115004-18220+028930FM-12+1282FVGO V0201501N003610105019N0500001N1+02261+01581999999ADDAY121031AY221031GA1051+010509089GF107991051021012501071021MA1999999087321MD1999999-0131ME1315129MW1151REMSYN088AAXX  21154 67861 41684 71507 10226 20158 38732 48512 71522 85272 333 59013 85835 83460;
0193678610999992000012118004-18220+028930FM-12+1282FVGO V0209999C000019999999N0300001N1+02041+01591999999ADDGA1041+030009039GF107991041001999999061021KA1120M+02501MA1999999087411MD1999999-0181ME1315219REMSYN088AAXX  21184 67861 42980 70000 10204 20159 38741 48521 84062 333 10250 59018 84360 83099;
0168678610999992000012200004-18220+028930FM-12+1282FVGO V0201001N004112200019N0300001N1+01841+01531999999ADDGA1031+030009079GF103991031001999999031011MA1999999087261MD1999999-0271ME1315069REMSYN076AAXX  22004 67861 42980 31008 10184 20153 38726 48506 83031 333 59027 83360;
0223678610999992000012206004-18220+028930FM-12+1282FVGO V0200901N003110075019N0500001N1+01841+01431999999ADDAA199000091GA1051+007509069GF107991051051008001031011KA1120N+01621MA1999999087461MD1999999-0181ME1315239REMSYN088AAXX  22064 67861 32584 70906 10184 20143 38746 48523 85531 333 20162 59018 85625 86360;EQDQ01  00002PRCP99
0174678610999992000012209004-18220+028930FM-12+1282FVGO V0200601N00261045001CN0500001N1+02191+01581999999ADDGA1031+007809089GF107991031011008001031011MA1999999087471MD1999999-0221ME1315289REMSYN082AAXX  22094 67861 42584 70605 10219 20158 38747 48528 83131 333 59022 83826 86360;
0174678610999992000012212004-18220+028930FM-12+1282FVGO V0200801N00211045001CN0500001N1+02351+01621999999ADDGA1041+009309089GF107991041021012501071999MA1999999087301MD1999999-0171ME1315119REMSYN082AAXX  22124 67861 42684 70804 10235 20162 38730 48511 8427/ 333 59017 84831 87460;
0168678610999992000012215004-18220+028930FM-12+1282FVGO V0200801N002112200019N0500001N1+02541+01451999999ADDGA1011+011709099GF103991021021012501031031MA1999999087121MD1999999-0201ME1314939REMSYN076AAXX  22154 67861 42684 30804 10254 20145 38712 48493 82233 333 59020 81939;
0187678610999992000012218004-18220+028930FM-12+1282FVGO V0209999C000012200019N0500001N1+02021+01641999999ADDGA1011+011709059GF101991011041012501001021KA1120M+02581MA1999999087201MD1999999-0211ME1315009REMSYN082AAXX  22184 67861 42684 10000 10202 20164 38720 48500 81402 333 10258 59021 81639;
0168678610999992000012303004-18220+028930FM-12+1282FVGO V0200801N003112200019N0300001N1+01801+01451999999ADDGA1031+030009079GF104991031001999999031011MA1999999087181MD1999999-0111ME1314989REMSYN076AAXX  23034 67861 42980 40806 10180 20145 38718 48498 83031 333 59011 83360;
0223678610999992000012306004-18220+028930FM-12+1282FVGO V0200601N00261045001CN0500001N1+02051+01551999999ADDAA199000091GA1011+006009089GF106991011011008001031011KA1120N+01751MA1999999087401MD1999999-0061ME1315219REMSYN088AAXX  23064 67861 32584 60605 10205 20155 38740 48521 81131 333 20175 59006 81820 86360;EQDQ01  00002PRCP99
0168678610999992000012309004-18220+028930FM-12+1282FVGO V0200201N002612200019N0500001N1+02441+01631999999ADDGA1041+010209029GF104991041021012501031001MA1999999087371MD1999999-0101ME1315189REMSYN076AAXX  23094 67861 42684 40205 10244 20163 38737 48518 84230 333 59010 84834;
0168678610999992000012312004-18220+028930FM-12+1282FVGO V0200201N002610150019N0500001N1+02811+01621999999ADDGA1061+015009029GF106991061021017501001001MA1999999087221MD1999999-0081ME1315069REMSYN076AAXX  23124 67861 42784 60205 10281 20162 38722 48506 86200 333 59008 86850;
0202678610999992000012315004-18220+028930FM-12+1282FVGO V0201701N00101045001CN0500001N1+02591+01621999999ADDAY121031AY221031GA1021+015009089GF105991021021017501031001MA1999999087081MD1999999-0041ME1314909MW1151REMSYN088AAXX  23154 67861 41784 51702 10259 20162 38708 48490 71522 82230 333 59004 82850 84360;
0187678610999992000012318004-18220+028930FM-12+1282FVGO V0209999C000012200019N0500001N1+02201+01721999999ADDGA1021+030009079GF102991021001999999031011KA1120M+02841MA1999999087221MD1999999+0021ME1315049REMSYN082AAXX  23184 67861 42984 20000 10220 20172 38722 48504 82031 333 10284 58002 82360;
0174678610999992000012403004-18220+028930FM-12+1282FVGO V0201301N00721045001CN0300001N1+02881+01301999999ADDGA1011+012009039GF107991031051012501071999MA1999999087361MD1999999+0181ME1315179REMSYN082AAXX  24034 67861 42680 71314 10288 20130 38736 48517 8357/ 333 58018 81340 87460;
0251678610999992000012406004-18220+028930FM-12+1282FVGO V0200701N003110075019N0500001N1+02051+01501999999ADDAA199000091AY111061AY211061GA1051+007509069GF107991051051008001071021KA1120N+01791MA1999999087471MD1999999+0071ME1315279MW1151REMSYN094AAXX  24064 67861 31584 70706 10205 20150 38747 48527 71511 85572 333 20179 58007 85625 83460;EQDQ01  00002PRCP99
0174678610999992000012409004-18220+028930FM-12+1282FVGO V0203501N003110093019N0500001N1+02371+01641999999ADDGA1051+009309089GF107991051011012501031021MA1999999087431MD1999999+0061ME1315249REMSYN082AAXX  24094 67861 42684 73506 10237 20164 38743 48524 85132 333 58006 85831 83099;
0196678610999992000012412004-18220+028930FM-12+1282FVGO V0200501N002610123019N0500001N1+02711+01731999999ADDAY121061AY221061GA1061+012309029GF107991061021012501031021MA1999999087251MD1999999+0031ME1315089MW1151REMSYN082AAXX  24124 67861 41684 70505 10271 20173 38725 48508 71522 86232 333 58003 86841;
0202678610999992000012415004-18220+028930FM-12+1282FVGO V0200301N00151045001CN0500001N1+02661+01651999999ADDAY121031AY221031GA1031+012609089GF105991031021012501061021MA1999999087071MD1999999-0011ME1314909MW1151REMSYN088AAXX  24154 67861 41684 50303 10266 20165 38707 48490 71522 83262 333 59001 83842 83360;
0187678610999992000012418004-18220+028930FM-12+1282FVGO V0209999C000012200019N0500001N1+02251+01761999999ADDGA1021+030009079GF102991021001999999061001KA1120M+02741MA1999999087231MD1999999+0011ME1315069REMSYN082AAXX  24184 67861 42984 20000 10225 20176 38723 48506 82060 333 10274 58001 82360;
0168678610999992000012500004-18220+028930FM-12+1282FVGO V0201201N002610090019N0300001N1+02061+01661999999ADDGA1061+009009059GF106991061051012501001001MA1999999087301MD1999999-0011ME1315139REMSYN076AAXX  25004 67861 42680 61205 10206 20166 38730 48513 86500 333 59001 86630;
0174678610999992000012503004-18220+028930FM-12+1282FVGO V0200801N00311045001CN0500001N1+01911+01711999999ADDGA1031+009009069GF107991031051012501031001MA1999999087371MD1999999+0011ME1315189REMSYN082AAXX  25034 67861 42684 70806 10191 20171 38737 48518 83530 333 58001 83630 87360;
0223678610999992000012506004-18220+028930FM-12+1282FVGO V0200901N002611050019N0500001N1+02141+01751999999ADDAA199000091GA1011+006009089GF105991011011008001031021KA1120N+01821MA1999999087521MD1999999+0051ME1315339REMSYN088AAXX  25064 67861 32584 50905 10214 20175 38752 48533 81132 333 20182 58005 81820 83360;EQDQ01  00002PRCP99
0174678610999992000012509004-18220+028930FM-12+1282FVGO V0203601N002111050019N0500001N1+02541+01731999999ADDGA1041+010209089GF106991041011012501001021MA1999999087431MD1999999+0001ME1315249REMSYN082AAXX  25094 67861 42684 63604 10254 20173 38743 48524 84102 333 58000 84834 83099;
0168678610999992000012512004-18220+028930FM-12+1282FVGO V0202701N000510135019N0500001N1+02681+01671999999ADDGA1051+013509029GF105991051021012501001021MA1999999087331MD1999999+0081ME1315169REMSYN076AAXX  25124 67861 42684 52701 10268 20167 38733 48516 85202 333 58008 85845;
0221678610999992000012518004-18220+028930FM-12+1282FVGO V0209999C000012200019N0300001N1+02261+01721999999ADDAY111061AY211061GA1011+013509099GF103991011091012501061031KA1120M+02851MA1999999087231MD1999999+0001ME1315069MW1131REMSYN094AAXX  25184 67861 41680 30000 10226 20172 38723 48506 71311 81963 333 10285 58000 81945 83099;
0202678610999992000012603004-18220+028930FM-12+1282FVGO V0209999C00001045001CN0300001N1+01951+01881999999ADDAY161031AY221031GA1021+009009069GF107991021051012501071999MA1999999087301MD1999999-0071ME1315129MW1211REMSYN088AAXX  26034 67861 41680 70000 10195 20188 38730 48512 72162 8257/ 333 59007 82630 87460;
0232678610999992000012606004-18220+028930FM-12+1282FVGO V0209999C000012200019N0500001N1+02451+01811999999ADDAA124002091AY161061AY221061GA1011+007509029GF101991011011008001041021KA1120N+01891MA1999999087451MD1999999-0071ME1315299MW1031REMSYN094AAXX  26064 67861 11584 10000 10245 20181 38745 48529 60024 70362 81142 333 20189 59007 81825;
0202678610999992000012609004-18220+028930FM-12+1282FVGO V0203601N002610075019N0500001N1+02461+01931999999ADDAY191031AY211031GA1011+006009099GF106991061021008001001031MA1999999087341MD1999999-0091ME1315189MW1171REMSYN088AAXX  26094 67861 41584 63605 10246 20193 38734 48518 71791 86203 333 59009 81920 86825;
0202678610999992000012612004-18220+028930FM-12+1282FVGO V0203401N00211012001CN0500001N1+02701+01871999999ADDAY191061AY281061GA1011+009009099GF107991061021012501001031MA1999999087181MD1999999-0151ME1315039MW1801REMSYN088AAXX  26124 67861 41684 73404 10270 20187 38718 48503 78098 86203 333 59015 81930 86835;
0202678610999992000012700004-18220+028930FM-12+1282FVGO V0209999C000019999999N0500001N1+01971+01781999999ADDAY191061AY211061GA1041+030009039GF106991041001999999031021MA1999999087101MD1999999-0241ME1314919MW1021REMSYN088AAXX  27004 67861 41984 60000 10197 20178 38710 48491 70291 84032 333 59024 84360 83099;
0174678610999992000012703004-18220+028930FM-12+1282FVGO V0209999C000019999999N0500001N1+01871+01781999999ADDGA1021+030009039GF106991021001999999031021MA1999999087101MD1999999-0201ME1314919REMSYN082AAXX  27034 67861 42984 60000 10187 20178 38710 48491 82032 333 59020 82360 85099;
0210678610999992000012706004-18220+028930FM-12+1282FVGO V0203501N000510450019N0500001N1+02101+01881999999ADDAA124006191GA1011+003009089GF107991011011004501041081KA1120N+01801MA1999999087301MD1999999-0151ME1315119REMSYN094AAXX  27064 67861 12484 73501 10210 20188 38730 48511 60064 81148 333 20180 59015 81810 87299;
0174678610999992000012709004-18220+028930FM-12+1282FVGO V0202701N00211045001CN0500001N1+02541+01911999999ADDGA1041+007509089GF107991041021008001031021MA1999999087261MD1999999+0181ME1315109REMSYN082AAXX  27094 67861 42584 72704 10254 20191 38726 48510 84232 333 58018 84825 83360;
0224678610999992000012712004-18220+028930FM-12+1282FVGO V0200901N00411045001CN0300001N1+02021+01871999999ADDAY191061AY261061GA1011+007509099GA2031+007509089GF107991031021008001071031MA1999999087151MD1999999-0031ME1314959MW1171REMSYN094AAXX  27124 67861 41580 70908 10202 20187 38715 48495 71796 83273 333 59003 81925 83825 87460;
0202678610999992000012715004-18220+028930FM-12+1282FVGO V0209999C00001045001CN0500001N1+02151+01931999999ADDAY191031AY261031GA1011+007509099GF107991011091008001071031MA1999999086971MD1999999-0101ME1314779MW1291REMSYN088AAXX  27154 67861 41584 70000 10215 20193 38697 48477 72996 81973 333 59010 81925 87460;
0221678610999992000012718004-18220+028930FM-12+1282FVGO V0209999C00001045001CN0300001N1+02011+01981999999ADDAY191061AY261061GA1011+007509099GF107991011091008001071031KA1120M+02661MA1999999087191MD1999999+0001ME1314999MW1131REMSYN094AAXX  27184 67861 41580 70000 10201 20198 38719 48499 71396 81973 333 10266 58000 81925 86460;
0168678610999992000012800004-18220+028930FM-12+1282FVGO V0209999C000010300019N0280001N1+01931+01891999999ADDGA1071+030009019GF107991071001999999071999MA1999999087021MD1999999-0081ME1314839REMSYN076AAXX  28004 67861 42978 70000 10193 20189 38702 48483 8707/ 333 59008 87460;
0168678610999992000012803004-18220+028930FM-12+1282FVGO V0209999C000010300019N0300001N1+01901+01781999999ADDGA1071+030009019GF107991071001999999071999MA1999999087031MD1999999-0071ME1314849REMSYN076AAXX  28034 67861 42980 70000 10190 20178 38703 48484 8707/ 333 59007 87460;
0210678610999992000012806004-18220+028930FM-12+1282FVGO V0202701N001010030019N0450001N1+02051+01841999999ADDAA124001091GA1051+003009079GF107991051061004501071999KA1120N+01831MA1999999087121MD1999999-0181ME1314929REMSYN094AAXX  28064 67861 12483 72702 10205 20184 38712 48492 60014 8567/ 333 20183 59018 85710 87460;
0202678610999992000012809004-18220+028930FM-12+1282FVGO V0203301N00151004201CN0300001N1+02071+01961999999ADDAY191031AY261031GA1011+003009099GF107991051021004501071031MA1999999087051MD1999999-0211ME1314869MW1951REMSYN088AAXX  28094 67861 41480 73303 10207 20196 38705 48486 79596 85273 333 59021 81910 85815;
0224678610999992000012812004-18220+028930FM-12+1282FVGO V0202701N00051045001CN0450001N1+02121+02021999999ADDAY191061AY261061GA1011+004509099GA2031+006009089GF107991031021008001071031MA1999999086951MD1999999-0201ME1314769MW1171REMSYN094AAXX  28124 67861 41583 72701 10212 20202 38695 48476 71796 83273 333 59020 81915 83820 87460;
0215678610999992000012818004-18220+028930FM-12+1282FVGO V0200501N001010300019N0300001N1+02001+01861999999ADDAY191061AY261061GA1071+030009019GF107991071001999999071999KA1120M+02351MA1999999086971MD1999999-0221ME1314779MW1291REMSYN088AAXX  28184 67861 41980 70502 10200 20186 38697 48477 72996 8707/ 333 10235 59022 87460;
0168678610999992000012903004-18220+028930FM-12+1282FVGO V0209999C000012200019N0300001N1+01851+01761999999ADDGA1011+030009079GF101991011001999999031021MA1999999086931MD1999999-0101ME1314749REMSYN076AAXX  29034 67861 42980 10000 10185 20176 38693 48474 81032 333 59010 81360;
0210678610999992000012906004-18220+028930FM-12+1282FVGO V0201901N000519999999N0450001N1+02181+02061999999ADDAA124004191GA1011+030009039GF107991011001999999081081KA1120N+01801MA1999999087121MD1999999+0001ME1314939REMSYN094AAXX  29064 67861 12983 71901 10218 20206 38712 48493 60044 81088 333 20180 58000 81360 87299;
0174678610999992000012909004-18220+028930FM-12+1282FVGO V0201501N001011050019N0350001N1+02571+01961999999ADDGA1021+008109089GF105991021021008001031021MA1999999087121MD1999999+0071ME1314949REMSYN082AAXX  29094 67861 42581 51502 10257 20196 38712 48494 82232 333 58007 82827 86099;
0224678610999992000012912004-18220+028930FM-12+1282FVGO V0201501N00151045001CN0500001N1+02601+01691999999ADDAY191061AY221061GA1011+009009099GA2031+012009089GF107991031021012501071031MA1999999086991MD1999999+0041ME1314819MW1171REMSYN094AAXX  29124 67861 41684 71503 10260 20169 38699 48481 71792 83273 333 58004 81930 83840 85460;
0202678610999992000012915004-18220+028930FM-12+1282FVGO V0209999C00001045001CN0500001N1+02501+01781999999ADDAY191031AY221031GA1011+009009099GF107991011021012501071031MA1999999086911MD1999999+0131ME1314729MW1291REMSYN088AAXX  29154 67861 41684 70000 10250 20178 38691 48472 72992 81273 333 58013 81930 86460;
0215678610999992000012918004-18220+028930FM-12+1282FVGO V0209999C000019999999N0300001N1+02211+01941999999ADDAY191061AY221061GA1031+030009079GF105991031001999999031021KA1120M+02861MA1999999087051MD1999999+0081ME1314869MW1021REMSYN088AAXX  29184 67861 41980 50000 10221 20194 38705 48486 70292 83032 333 10286 58008 83360;
0202678610999992000013000004-18220+028930FM-12+1282FVGO V0201001N001011050019N0300001N1+02151+01691999999ADDAY121061AY221061GA1011+009009099GF105991011091012501031031MA1999999087011MD1999999+0021ME1314849MW1131REMSYN088AAXX  30004 67861 41680 51002 10215 20169 38701 48484 71322 81933 333 58002 81930 85099;
0168678610999992000013003004-18220+028930FM-12+1282FVGO V0200501N002112200019N0350001N1+02131+01441999999ADDGA1011+030009079GF101991011001999999041001MA1999999087041MD1999999+0111ME1314869REMSYN076AAXX  30034 67861 42981 10504 10213 20144 38704 48486 81040 333 58011 81360;
0223678610999992000013006004-18220+028930FM-12+1282FVGO V0203601N001512200019N0500001N1+02451+01611999999ADDAA199000091GA1011+030009039GF103991011001999999081021KA1120N+02041MA1999999087251MD1999999+0131ME1315099REMSYN088AAXX  30064 67861 32984 33603 10245 20161 38725 48509 81082 333 20204 58013 81360 83099;EQDQ01  00002PRCP99
0174678610999992000013009004-18220+028930FM-12+1282FVGO V0203501N002111050019N0500001N1+02751+01441999999ADDGA1011+015009089GF105991011011017501041021MA1999999087251MD1999999+1031ME1315099REMSYN082AAXX  30094 67861 42784 53504 10275 20144 38725 48509 81142 333 58103 81850 85099;
0174678610999992000013015004-18220+028930FM-12+1282FVGO V0203001N000519999999N0500001N1+03001+01091999999ADDGA1021+024009089GF105991021021999999001021MA1999999086991MD1999999+0081ME1314849REMSYN082AAXX  30154 67861 42984 53001 10300 20109 38699 48484 82202 333 58008 82858 83099;
0187678610999992000013018004-18220+028930FM-12+1282FVGO V0209999C000012200019N0300001N1+02301+01361999999ADDGA1011+030009079GF101991011001999999061001KA1120M+03071MA1999999087211MD1999999+0161ME1315049REMSYN082AAXX  30184 67861 42980 10000 10230 20136 38721 48504 81060 333 10307 58016 81360;
0168678610999992000013100004-18220+028930FM-12+1282FVGO V0200701N001012200019N0300001N1+02251+01161999999ADDGA1011+030009079GF101991011001999999031001MA1999999087231MD1999999+0221ME1315079REMSYN076AAXX  31004 67861 42980 10702 10225 20116 38723 48507 81030 333 58022 81360;
0168678610999992000013103004-18220+028930FM-12+1282FVGO V0200901N003612200019N0300001N1+02001+01501999999ADDGA1011+030009079GF101991011001999999041001MA1999999087211MD1999999+0171ME1315039REMSYN076AAXX  31034 67861 42980 10907 10200 20150 38721 48503 81040 333 58017 81360;
0223678610999992000013106004-18220+028930FM-12+1282FVGO V0203501N004619999999N0400001N1+02151+01811999999ADDAA199000091GA1011+030009039GF105991011001999999031081KA1120N+01931MA1999999087401MD1999999+0121ME1315219REMSYN088AAXX  31064 67861 32982 53509 10215 20181 38740 48521 81038 333 20193 58012 81360 85299;EQDQ01  00002PRCP99
0174678610999992000013109004-18220+028930FM-12+1282FVGO V0203301N004611050019N0500001N1+02601+01781999999ADDGA1011+010509089GF107991011011012501001081MA1999999087401MD1999999+0151ME1315229REMSYN082AAXX  31094 67861 42684 73309 10260 20178 38740 48522 81108 333 58015 81835 87299;
0174678610999992000013112004-18220+028930FM-12+1282FVGO V0200901N004111050019N0500001N1+02851+01361999999ADDGA1031+018009089GF107991031021022501001081MA1999999087261MD1999999+0151ME1315109REMSYN082AAXX  31124 67861 42884 70908 10285 20136 38726 48510 83208 333 58015 83856 87299;
0174678610999992000013115004-18220+028930FM-12+1282FVGO V0201001N002611050019N0500001N1+02861+01361999999ADDGA1021+021009089GF106991021021022501001021MA1999999087081MD1999999+0091ME1314929REMSYN082AAXX  31154 67861 42884 61005 10286 20136 38708 48492 82202 333 58009 82857 85099;
0187678610999992000013118004-18220+028930FM-12+1282FVGO V0209999C000012200019N0300001N1+02251+01641999999ADDGA1011+030009079GF101991011001999999061001KA1120M+03031MA1999999087181MD1999999-0031ME1315009REMSYN082AAXX  31184 67861 42980 10000 10225 20164 38718 48500 81060 333 10303 59003 81360;
0156678610999992000020103004-18220+028930FM-12+1282FVGO V0200901N003112200019N0300001N1+02051+01541999999ADDGA1001+999999999GF100991001001999999001001MA1999999087231MD1999999+0021ME1315069REMSYN064AAXX  01034 67861 42980 00906 10205 20154 38723 48506 333 58002;
0217678610999992000020106004-18220+028930FM-12+1282FVGO V0203501N003119999999N0400001N1+02231+01651999999ADDAA199000091GA1071+999999089GF107991001001999999001081KA1120N+02001MA1999999087401MD1999999+0001ME1315219REMSYN082AAXX  01064 67861 32982 73506 10223 20165 38740 48521 80008 333 20200 58000 87299;EQDQ01  00002PRCP99
0174678610999992000020112004-18220+028930FM-12+1282FVGO V0200301N003111050019N0500001N1+02751+01641999999ADDGA1031+018009089GF107991031021017501001081MA1999999087171MD1999999-0091ME1315019REMSYN082AAXX  01124 67861 42784 70306 10275 20164 38717 48501 83208 333 59009 83856 85299;
0174678610999992000020115004-18220+028930FM-12+1282FVGO V0200701N00151045001CN0500001N1+02891+01121999999ADDGA1011+018009069GF107991011041017501061081MA1999999087011MD1999999-0071ME1314859REMSYN082AAXX  01154 67861 42784 70703 10289 20112 38701 48485 81468 333 59007 81656 86299;
0193678610999992000020118004-18220+028930FM-12+1282FVGO V0209999C000019999999N0300001N1+02471+01581999999ADDGA1011+030009039GF107991011001999999061081KA1120M+03001MA1999999087201MD1999999+0021ME1315049REMSYN088AAXX  01184 67861 42980 70000 10247 20158 38720 48504 81068 333 10300 58002 81360 87299;
0196678610999992000020312004-18220+028930FM-12+1282FVGO V0201201N001510150019N0500001N1+02781+01601999999ADDAY121061AY221061GA1061+015009029GF107991061021017501031021MA1999999087081MD1999999+0071ME1314929MW1151REMSYN082AAXX  03124 67861 41784 71203 10278 20160 38708 48492 71522 86232 333 58007 86850;
0202678610999992000020315004-18220+028930FM-12+1282FVGO V0201601N00211045001CN0500001N1+02151+01871999999ADDAY191031AY281031GA1011+012009099GF107991021021017501071031MA1999999087001MD1999999+0031ME1314809MW1171REMSYN088AAXX  03154 67861 41784 71604 10215 20187 38700 48480 71798 82273 333 58003 81940 87460;
0221678610999992000020318004-18220+028930FM-12+1282FVGO V0201601N00411105001CN0500001N1+01961+01811999999ADDAY191061AY281061GA1011+015009099GF106991011091017501071031KA1120M+02921MA1999999087091MD1999999-0021ME1314899MW1131REMSYN094AAXX  03184 67861 41784 61608 10196 20181 38709 48489 71398 81973 333 10292 59002 81950 84460;
0174678610999992000020400004-18220+028930FM-12+1282FVGO V0201401N004619999999N0400001N1+01851+01571999999ADDGA1031+030009039GF105991031001999999031021MA1999999087151MD1999999+0021ME1314969REMSYN082AAXX  04004 67861 42982 51409 10185 20157 38715 48496 83032 333 58002 83360 83099;
0174678610999992000020403004-18220+028930FM-12+1282FVGO V0201601N004112200019N0400001N1+01751+01581999999ADDGA1021+030009039GF104991021001999999041021MA1999999087091MD1999999-0081ME1314899REMSYN082AAXX  04034 67861 42982 41608 10175 20158 38709 48489 82042 333 59008 82360 83099;
0210678610999992000020406004-18220+028930FM-12+1282FVGO V0201601N00361045001CN0400001N1+02091+01611999999ADDAA124001091GA1031+006009089GF106991031011008001031021KA1120N+01691MA1999999087241MD1999999-0071ME1315049REMSYN094AAXX  04064 67861 12582 61607 10209 20161 38724 48504 60014 83132 333 20169 59007 83820 84360;
0202678610999992000020415004-18220+028930FM-12+1282FVGO V0201801N00261045001CN0500001N1+02311+01781999999ADDAY121031AY221031GA1011+009009099GF107991021021012501071031MA1999999086991MD1999999-0011ME1314849MW1151REMSYN088AAXX  04154 67861 41684 71805 10231 20178 38699 48484 71522 82273 333 59001 81930 86460;
0221678610999992000020418004-18220+028930FM-12+1282FVGO V0201501N00261105001CN0500001N1+01951+01771999999ADDAY161061AY221061GA1011+009009099GF106991011091012501071031KA1120M+02551MA1999999087151MD1999999+0061ME1314959MW1131REMSYN094AAXX  04184 67861 41684 61505 10195 20177 38715 48495 71362 81973 333 10255 58006 81930 85460;
0174678610999992000020503004-18220+028930FM-12+1282FVGO V0201501N00311045001CN0300001N1+01821+01661999999ADDGA1011+006009069GF106991011051008001071011MA1999999086911MD1999999-0181ME1314719REMSYN082AAXX  05034 67861 42580 61506 10182 20166 38691 48471 81571 333 59018 81620 86460;
0238678610999992000020506004-18220+028930FM-12+1282FVGO V0201701N00151045001CN0300001N1+01931+01771999999ADDAA124002091AY161061AY251061GA1041+002709079GF107991041071002501071999KA1120N+01721MA1999999087071MD1999999-0171ME1314879MW1581REMSYN100AAXX  05064 67861 11380 71703 10193 20177 38707 48487 60024 75865 8477/ 333 20172 59017 84709 87460;
0202678610999992000020509004-18220+028930FM-12+1282FVGO V0201501N00261045001CN0450001N1+02111+01871999999ADDAY161031AY251031GA1041+004509069GF107991041051004501071999MA1999999087051MD1999999-0221ME1314869MW1601REMSYN088AAXX  05094 67861 41483 71505 10211 20187 38705 48486 76065 8457/ 333 59022 84615 87460;
0202678610999992000020512004-18220+028930FM-12+1282FVGO V0200401N00261045001CN0500001N1+02301+01871999999ADDAY161061AY251061GA1031+006009089GF107991031011008001071999MA1999999086901MD1999999-0201ME1314729MW1211REMSYN088AAXX  05124 67861 41584 70405 10230 20187 38690 48472 72165 8317/ 333 59020 83820 87460;
0202678610999992000020515004-18220+028930FM-12+1282FVGO V0201701N00101045001CN0250001N1+01991+01881999999ADDAY191031AY261031GA1021+006009099GF108991021091008001071031MA1999999086831MD1999999-0161ME1314639MW1951REMSYN088AAXX  05154 67861 41575 81702 10199 20188 38683 48463 79596 82973 333 59016 82920 88460;
0215678610999992000020518004-18220+028930FM-12+1282FVGO V0209999C000010300019N0300001N1+02021+01981999999ADDAY191061AY261061GA1081+030009019GF108991081001999999071999KA1120M+02471MA1999999086971MD1999999-0181ME1314779MW1021REMSYN088AAXX  05184 67861 41980 80000 10202 20198 38697 48477 70296 8807/ 333 10247 59018 88460;
0202678610999992000020600004-18220+028930FM-12+1282FVGO V0201101N00151002101CN0250001N1+01911+01871999999ADDAY161061AY251061GA1031+003009069GF108991051061002501071999MA1999999086891MD1999999+0101ME1314699MW1021REMSYN088AAXX  06004 67861 41375 81103 10191 20187 38689 48469 70265 8567/ 333 58010 83610 86360;
0202678610999992000020603004-18220+028930FM-12+1282FVGO V0209999C000010024019N0100001N1+01921+01891999999ADDAY161031AY251031GA1061+002409079GF108991061071002501071999MA1999999086921MD1999999+0011ME1314729MW1591REMSYN088AAXX  06034 67861 41360 80000 10192 20189 38692 48472 75965 8677/ 333 58001 86708 88460;
0238678610999992000020606004-18220+028930FM-12+1282FVGO V0200401N00211045001CN0300001N1+01991+01931999999ADDAA124009991AY161061AY251061GA1041+002709079GF107991041071002501071999KA1120N+01861MA1999999087081MD1999999+0011ME1314889MW1581REMSYN100AAXX  06064 67861 11380 70404 10199 20193 38708 48488 60104 75865 8477/ 333 20186 58001 84709 87460;
0202678610999992000020609004-18220+028930FM-12+1282FVGO V0203601N002610060019N0500001N1+02181+01921999999ADDAY161031AY251031GA1051+006009069GF107991051051008001071021MA1999999087091MD1999999+0041ME1314909MW1021REMSYN088AAXX  06094 67861 41584 73605 10218 20192 38709 48490 70265 85572 333 58004 85620 86460;
0196678610999992000020612004-18220+028930FM-12+1282FVGO V0203401N001510015019N0010001N1+01961+01941999999ADDAY191061AY261061GA1081+001509069GF108991081071001501999999MA1999999087061MD1999999+0161ME1314879MW1581REMSYN082AAXX  06124 67861 41210 83403 10196 20194 38706 48487 75896 887// 333 58016 88705;
0202678610999992000020615004-18220+028930FM-12+1282FVGO V0203501N00151045001CN0300001N1+01961+01921999999ADDAY161031AY251031GA1041+002709079GF108991041071002501071999MA1999999086991MD1999999+0161ME1314809MW1581REMSYN088AAXX  06154 67861 41380 83503 10196 20192 38699 48480 75865 8477/ 333 58016 84709 88460;
0203678610999992000020618004-18220+028930FM-12+1282FVGO V0200201N001010001519N0001001N1+01941+01931999999ADDAY161061AY251061GA1091+999999999GF109991091999999999999999KA1120M+02371MA1999999087131MD1999999+0161ME1314939MW1471REMSYN076AAXX  06184 67861 41/01 90202 10194 20193 38713 48493 74765 333 10237 58016;
0196678610999992000020700004-18220+028930FM-12+1282FVGO V0200101N002110024019N0050001N1+01951+01941999999ADDAY161061AY251061GA1081+002409069GF108991081071002501999999MA1999999087181MD1999999+0291ME1314999MW1581REMSYN082AAXX  07004 67861 41350 80104 10195 20194 38718 48499 75865 887// 333 58029 88708;
0196678610999992000020703004-18220+028930FM-12+1282FVGO V0200401N003110015019N0030001N1+01911+01891999999ADDAY161031AY251031GA1081+001509069GF108991081071001501999999MA1999999087211MD1999999+0291ME1315019MW1581REMSYN082AAXX  07034 67861 41230 80406 10191 20189 38721 48501 75865 887// 333 58029 88705;
0232678610999992000020706004-18220+028930FM-12+1282FVGO V0200401N002610027019N0220001N1+01921+01891999999ADDAA124017091AY161061AY251061GA1081+002709069GF108991081061002501999999KA1120N+01811MA1999999087391MD1999999+0311ME1315199MW1281REMSYN094AAXX  07064 67861 11372 80405 10192 20189 38739 48519 60174 72865 886// 333 20181 58031 88709;
0174678610999992000020709004-18220+028930FM-12+1282FVGO V0203601N00411045001CN0280001N1+02301+01961999999ADDGA1031+004509089GF107991031021004501071999MA1999999087461MD1999999+0371ME1315289REMSYN082AAXX  07094 67861 42478 73608 10230 20196 38746 48528 8327/ 333 58037 83815 87460;
0202678610999992000020712004-18220+028930FM-12+1282FVGO V0202701N002611050019N0350001N1+02501+01861999999ADDAY161061AY221061GA1021+009009089GF105991021021012501031021MA1999999087271MD1999999+0211ME1315099MW1151REMSYN088AAXX  07124 67861 41681 52705 10250 20186 38727 48509 71562 82232 333 58021 82830 83099;
0202678610999992000020715004-18220+028930FM-12+1282FVGO V0202701N00101045001CN0400001N1+02451+01861999999ADDAY121031AY221031GA1031+010509089GF107991031021012501071021MA1999999087151MD1999999+0161ME1314969MW1151REMSYN088AAXX  07154 67861 41682 72702 10245 20186 38715 48496 71522 83272 333 58016 83835 83460;
0221678610999992000020718004-18220+028930FM-12+1282FVGO V0209999C00001105001CN0250001N1+02101+01931999999ADDAY191061AY221061GA1011+010509099GF106991011091012501071031KA1120M+02621MA1999999087311MD1999999+0181ME1315129MW1131REMSYN094AAXX  07184 67861 41675 60000 10210 20193 38731 48512 71392 81973 333 10262 58018 81935 85460;
0156678610999992000020800004-18220+028930FM-12+1282FVGO V0200701N002612200019N0300001N1+01951+01831999999ADDGA1001+999999999GF100991001001999999001001MA1999999087261MD1999999+0081ME1315089REMSYN064AAXX  08004 67861 42980 00705 10195 20183 38726 48508 333 58008;
0184678610999992000020803004-18220+028930FM-12+1282FVGO V0200501N002112200019N0040001N1+01801+01791999999ADDAY101031AY201031GA1001+999999999GF100991001001999999001001MA1999999087261MD1999999+0051ME1315069MW1401REMSYN070AAXX  08034 67861 41940 00504 10180 20179 38726 48506 74000 333 58005;
0232678610999992000020806004-18220+028930FM-12+1282FVGO V0200501N001510060019N0050001N1+02051+01811999999ADDAA124000791AY111061AY211061GA1061+006009059GF107991061051008001031001KA1120N+01751MA1999999087321MD1999999-0071ME1315129MW1051REMSYN094AAXX  08064 67861 11550 70503 10205 20181 38732 48512 69904 70511 86530 333 20175 59007 86620;
0202678610999992000020809004-18220+028930FM-12+1282FVGO V0203001N003110060019N0180001N1+02301+01871999999ADDAY121031AY221031GA1051+006009089GF107991051021008001071021MA1999999087371MD1999999-0091ME1315209MW1151REMSYN088AAXX  08094 67861 41568 73006 10230 20187 38737 48520 71522 85272 333 59009 85820 83460;
0202678610999992000020812004-18220+028930FM-12+1282FVGO V0203301N00261045001CN0200001N1+02551+01891999999ADDAY181061AY221061GA1031+007509089GF107991031021012501071021MA1999999087251MD1999999-0021ME1315089MW1251REMSYN088AAXX  08124 67861 41670 73305 10255 20189 38725 48508 72582 83272 333 59002 83825 85460;
0202678610999992000020815004-18220+028930FM-12+1282FVGO V0209999C000011050019N0250001N1+02561+02041999999ADDAY191031AY281031GA1011+009009099GF105991021021012501071031MA1999999087081MD1999999-0031ME1314909MW1171REMSYN088AAXX  08154 67861 41675 50000 10256 20204 38708 48490 71798 82273 333 59003 81930 83460;
0215678610999992000020818004-18220+028930FM-12+1282FVGO V0209999C000012200019N0200001N1+02151+01971999999ADDAY191061AY281061GA1011+030009079GF101991011001999999061001KA1120M+02651MA1999999087211MD1999999-0101ME1315039MW1011REMSYN088AAXX  08184 67861 41970 10000 10215 20197 38721 48503 70198 81060 333 10265 59010 81360;
0168678610999992000020903004-18220+028930FM-12+1282FVGO V0201001N003112200019N0300001N1+02001+01891999999ADDGA1031+999999019GF103991001001999999001021MA1999999087271MD1999999+0011ME1315099REMSYN076AAXX  09034 67861 42980 31006 10200 20189 38727 48509 80002 333 58001 83099;
0238678610999992000020906004-18220+028930FM-12+1282FVGO V0200501N003611050019N0150001N1+02151+01881999999ADDAA124003091AY111061AY211061GA1011+004509089GF107991011011004501001021KA1120N+01931MA1999999087401MD1999999+0081ME1315219MW1051REMSYN100AAXX  09064 67861 11465 70507 10215 20188 38740 48521 60034 70511 81102 333 20193 58008 81815 87099;
0174678610999992000020909004-18220+028930FM-12+1282FVGO V0200501N003111050019N0250001N1+02481+01921999999ADDGA1011+006909089GF107991011011008001001081MA1999999087311MD1999999-0061ME1315139REMSYN082AAXX  09094 67861 42575 70506 10248 20192 38731 48513 81108 333 59006 81823 87299;
0202678610999992000020915004-18220+028930FM-12+1282FVGO V0209999C00001045001CN0400001N1+02351+01901999999ADDAY191031AY281031GA1011+009009099GF107991021021012501071031MA1999999087031MD1999999-0051ME1314849MW1291REMSYN088AAXX  09154 67861 41682 70000 10235 20190 38703 48484 72998 82273 333 59005 81930 85460;
0221678610999992000020918004-18220+028930FM-12+1282FVGO V0209999C000011050019N0400001N1+02151+01911999999ADDAY191061AY281061GA1011+009009099GF105991011091012501031031KA1120M+02811MA1999999087161MD1999999-0051ME1314979MW1131REMSYN094AAXX  09184 67861 41682 50000 10215 20191 38716 48497 71398 81933 333 10281 59005 81930 83360;
0202678610999992000021000004-18220+028930FM-12+1282FVGO V0201101N002111050019N0300001N1+02041+01891999999ADDAY121061AY221061GA1011+009009099GF106991011091012501041031MA1999999087241MD1999999-0081ME1315069MW1131REMSYN088AAXX  10004 67861 41680 61104 10204 20189 38724 48506 71322 81943 333 59008 81930 85099;
0174678610999992000021003004-18220+028930FM-12+1282FVGO V0201001N003112200019N0300001N1+01951+01811999999ADDGA1011+030009039GF104991011001999999041021MA1999999087231MD1999999-0041ME1315059REMSYN082AAXX  10034 67861 42980 41006 10195 20181 38723 48505 81042 333 59004 81360 84099;
0210678610999992000021006004-18220+028930FM-12+1282FVGO V0200501N001519999999N0500001N1+02191+01831999999ADDAA124002091GA1011+030009039GF106991011001999999041021KA1120N+01861MA1999999087341MD1999999-0061ME1315169REMSYN094AAXX  10064 67861 12984 60503 10219 20183 38734 48516 60024 81042 333 20186 59006 81360 86099;
0174678610999992000021009004-18220+028930FM-12+1282FVGO V0200701N00461045001CN0500001N1+02521+01911999999ADDGA1031+009009089GF107991031021012501031021MA1999999087381MD1999999+0071ME1315209REMSYN082AAXX  10094 67861 42684 70709 10252 20191 38738 48520 83232 333 58007 83830 84360;
0202678610999992000021012004-18220+028930FM-12+1282FVGO V0209999C00001012001CN0300001N1+02201+01941999999ADDAY191061AY281061GA1011+009009099GF107991051021012501071031MA1999999087251MD1999999+0111ME1315079MW1801REMSYN088AAXX  10124 67861 41680 70000 10220 20194 38725 48507 78098 85273 333 58011 81930 85835;
0202678610999992000021015004-18220+028930FM-12+1282FVGO V0203501N00101045001CN0500001N1+02401+01871999999ADDAY191031AY281031GA1011+009009099GF107991011091012501071031MA1999999087141MD1999999+0111ME1314959MW1021REMSYN088AAXX  10154 67861 41684 73502 10240 20187 38714 48495 70298 81973 333 58011 81930 85460;
0221678610999992000021018004-18220+028930FM-12+1282FVGO V0200501N001019999999N0300001N1+02161+01911999999ADDAY191061AY281061GA1011+030009039GF105991011001999999031021KA1120M+02701MA1999999087201MD1999999+0041ME1315029MW1021REMSYN094AAXX  10184 67861 41980 50502 10216 20191 38720 48502 70298 81032 333 10270 58004 81360 85099;
0174678610999992000021100004-18220+028930FM-12+1282FVGO V0200301N002119999999N0300001N1+02001+01761999999ADDGA1011+030009039GF107991011001999999031081MA1999999087261MD1999999+0021ME1315089REMSYN082AAXX  11004 67861 42980 70304 10200 20176 38726 48508 81038 333 58002 81360 87299;
0203678610999992000021103004-18220+028930FM-12+1282FVGO V0200501N004612200019N0300001N1+02051+01601999999ADDGA1021+030009079GF102991021001999999041001MA1999999999999MD1999999-0011ME1315039REMSYN076AAXX  11034 67861 42980 20509 10205 20160 38922 48503 82040 333 59001 82360;EQDQ01+089223APOSP Q02 089223APOSP 
0229678610999992000021106004-18220+028930FM-12+1282FVGO V0203501N003619999999N0400001N1+02391+01811999999ADDAA124000391GA1011+030009039GF105991011001999999041041KA1120N+01921MA1999999087352MD1999999+0011ME1315169REMSYN094AAXX  11064 67861 12982 53507 10239 20181 38735 48516 69934 81044 333 20192 58001 81360 85099;EQDQ01+087353APOSP 
0168678610999992000021109004-18220+028930FM-12+1282FVGO V0200301N003110087019N0500001N1+02521+01861999999ADDGA1051+008709029GF106991051021008001001011MA1999999087251MD1999999-0131ME1315099REMSYN076AAXX  11094 67861 42584 60306 10252 20186 38725 48509 85201 333 59013 85829;
0174678610999992000021112004-18220+028930FM-12+1282FVGO V0200401N00261012001CN0500001N1+02701+01811999999ADDGA1011+011409099GF106991061021012501001031MA1999999087001MD1999999-0251ME1314839REMSYN082AAXX  11124 67861 42684 60405 10270 20181 38700 48483 86203 333 59025 81938 86838;
0202678610999992000021115004-18220+028930FM-12+1282FVGO V0203501N002110450019N0500001N1+02641+01801999999ADDAY191031AY221031GA1011+012009099GF107991041021012501071031MA1999999086881MD1999999-0261ME1314709MW1171REMSYN088AAXX  11154 67861 41684 73504 10264 20180 38688 48470 71792 84273 333 59026 81940 84840;
0215678610999992000021118004-18220+028930FM-12+1282FVGO V0209999C000010300019N0500001N1+02331+01841999999ADDAY191061AY261061GA1071+030009019GF107991071001999999071999KA1120M+02831MA1999999087061MD1999999-0141ME1314889MW1151REMSYN088AAXX  11184 67861 41984 70000 10233 20184 38706 48488 71596 8707/ 333 10283 59014 87460;
0224678610999992000021200004-18220+028930FM-12+1282FVGO V0209999C000010450019N0010001N1+01801+01731999999ADDAY191061AY261061GA1031+002409079GA2011+006009099GF108991031061002501071999MA1999999087211MD1999999-0051ME1315009MW1611REMSYN094AAXX  12004 67861 41310 80000 10180 20173 38721 48500 76196 8367/ 333 59005 81920 83708 88460;
0202678610999992000021203004-18220+028930FM-12+1282FVGO V0200301N000510024019N0010001N1+01751+01751999999ADDAY191031AY261031GA1051+002409079GF108991051061002501071999MA1999999087261MD1999999+0041ME1315059MW1611REMSYN088AAXX  12034 67861 41310 80301 10175 20175 38726 48505 76196 8567/ 333 58004 85708 88460;
0202678610999992000021209004-18220+028930FM-12+1282FVGO V0209999C00001045001CN0450001N1+02211+01771999999ADDAY161031AY221031GA1011+006009089GF107991011011008001071999MA1999999087311MD1999999+0061ME1315119MW1211REMSYN088AAXX  12094 67861 41583 70000 10221 20177 38731 48511 72162 8117/ 333 58006 81820 87460;
0196678610999992000021212004-18220+028930FM-12+1282FVGO V0200501N001010300019N0500001N1+02551+01731999999ADDGA1031+010509089GA2031+030009039GF107991031021012501031021MA1999999087161MD1999999+0161ME1314989REMSYN088AAXX  12124 67861 42684 70502 10255 20173 38716 48498 83232 333 58016 83835 83360 85099;
0224678610999992000021215004-18220+028930FM-12+1282FVGO V0203501N000510450019N0500001N1+02351+01901999999ADDAY121031AY221031GA1011+010509099GA2031+010509089GF107991041021012501061031MA1999999087001MD1999999+0061ME1314819MW1151REMSYN094AAXX  12154 67861 41684 73501 10235 20190 38700 48481 71522 84263 333 58006 81935 83835 85099;
0221678610999992000021218004-18220+028930FM-12+1282FVGO V0209999C000010105019N0300001N1+02101+01791999999ADDAY191061AY221061GA1051+010509069GF107991051041012501001021KA1120M+02711MA1999999087201MD1999999+0141ME1315019MW1021REMSYN094AAXX  12184 67861 41680 70000 10210 20179 38720 48501 70292 85402 333 10271 58014 85635 83099;
0196678610999992000021300004-18220+028930FM-12+1282FVGO V0203501N002110027019N0250001N1+02011+01951999999ADDAY121061AY221061GA1061+002709069GF106991061061002501001011MA1999999087131MD1999999-0081ME1314949MW1151REMSYN082AAXX  13004 67861 41375 63504 10201 20195 38713 48494 71522 86601 333 59008 86709;
0202678610999992000021303004-18220+028930FM-12+1282FVGO V0209999C00001045001CN0250001N1+01921+01891999999ADDAY191031AY221031GA1031+002109079GF107991021061002501071999MA1999999087151MD1999999-0041ME1314959MW1131REMSYN088AAXX  13034 67861 41375 70000 10192 20189 38715 48495 71392 8267/ 333 59004 83707 86460;
0232678610999992000021306004-18220+028930FM-12+1282FVGO V0201801N001510300019N0300001N1+01951+01881999999ADDAA124001091AY191061AY261061GA1071+030009019GF107991071001999999071021KA1120N+01781MA1999999087311MD1999999-0091ME1315119MW1601REMSYN094AAXX  13064 67861 11980 71803 10195 20188 38731 48511 60014 76096 87072 333 20178 59009 87460;
0202678610999992000021309004-18220+028930FM-12+1282FVGO V0201901N00051045001CN0400001N1+02301+01871999999ADDAY161031AY221031GA1021+006009089GF107991021011008001071021MA1999999087321MD1999999+0011ME1315159MW1601REMSYN088AAXX  13094 67861 41582 71901 10230 20187 38732 48515 76062 82172 333 58001 82820 87460;
0224678610999992000021312004-18220+028930FM-12+1282FVGO V0202501N00211045001CN0500001N1+02591+01761999999ADDAY191061AY261061GA1011+009009099GA2041+010509089GF107991041021012501031031MA1999999087041MD1999999-0121ME1314869MW1171REMSYN094AAXX  13124 67861 41684 72504 10259 20176 38704 48486 71796 84233 333 59012 81930 84835 85360;
0202678610999992000021315004-18220+028930FM-12+1282FVGO V0203301N00211045001CN0500001N1+02361+01731999999ADDAY191031AY261031GA1011+009009099GF107991021021012501071031MA1999999087011MD1999999+0011ME1314829MW1171REMSYN088AAXX  13154 67861 41684 73304 10236 20173 38701 48482 71796 82273 333 58001 81930 86460;
0196678610999992000021400004-18220+028930FM-12+1282FVGO V0201201N002610300019N0280001N1+01921+01831999999ADDAY161061AY221061GA1081+030009019GF108991081001999999071999MA1999999087151MD1999999+0021ME1314969MW1021REMSYN082AAXX  14004 67861 41978 81205 10192 20183 38715 48496 70262 8807/ 333 58002 88460;
0224678610999992000021403004-18220+028930FM-12+1282FVGO V0201101N00311002701CN0280001N1+01841+01781999999ADDAY191031AY221031GA1051+002709079GA2011+004509099GF108991051061002501071031MA1999999087091MD1999999-0061ME1314889MW1171REMSYN094AAXX  14034 67861 41378 81106 10184 20178 38709 48488 71792 85673 333 59006 81915 85709 88460;
0238678610999992000021406004-18220+028930FM-12+1282FVGO V0200701N00151045001CN0450001N1+02001+01691999999ADDAA124000891AY191061AY241061GA1011+004509069GF107991011051004501071021KA1120N+01741MA1999999087161MD1999999-0151ME1314969MW1021REMSYN100AAXX  14064 67861 11483 70703 10200 20169 38716 48496 69974 70294 81572 333 20174 59015 81615 87460;
0221678610999992000021418004-18220+028930FM-12+1282FVGO V0209999C000010300019N0350001N1+01961+01861999999ADDAY191061AY261061GA1051+030009039GF107991051001999999031021KA1120M+02331MA1999999087001MD1999999-0121ME1314809MW1021REMSYN094AAXX  14184 67861 41981 70000 10196 20186 38700 48480 70296 85032 333 10233 59012 85360 83099;
0168678610999992000021500004-18220+028930FM-12+1282FVGO V0209999C000010024019N0250001N1+01951+01911999999ADDGA1071+002409069GF107991071061002501999999MA1999999086981MD1999999-0171ME1314789REMSYN076AAXX  15004 67861 42375 70000 10195 20191 38698 48478 876// 333 59017 87708;
0168678610999992000021503004-18220+028930FM-12+1282FVGO V0209999C000012200019N0250001N1+01851+01791999999ADDGA1031+030009079GF103991031001999999031021MA1999999086941MD1999999-0131ME1314749REMSYN076AAXX  15034 67861 42975 30000 10185 20179 38694 48474 83032 333 59013 83360;
0220678610999992000021506004-18220+028930FM-12+1282FVGO V0203601N002110001519N0001001N1+01901+01881999999ADDAA124000591AY161061AY251061GA1091+999999999GF109991091999999999999999KA1120N+01801MA1999999087041MD1999999-0141ME1314849MW1471REMSYN082AAXX  15064 67861 11/01 93604 10190 20188 38704 48484 69944 74765 333 20180 59014;
0202678610999992000021509004-18220+028930FM-12+1282FVGO V0203601N002110027019N0150001N1+02191+01911999999ADDAY161031AY251031GA1051+002709079GF107991051071002501999999MA1999999086991MD1999999-0271ME1314809MW1581REMSYN088AAXX  15094 67861 41365 73604 10219 20191 38699 48480 75865 857// 333 59027 85709 87620;
0202678610999992000021512004-18220+028930FM-12+1282FVGO V0203501N00261045001CN0400001N1+02051+01831999999ADDAY191061AY261061GA1011+004509099GF107991021021008001071031MA1999999086831MD1999999-0211ME1314649MW1171REMSYN088AAXX  15124 67861 41582 73505 10205 20183 38683 48464 71796 82273 333 59021 81915 86460;
0224678610999992000021515004-18220+028930FM-12+1282FVGO V0203301N00151045001CN0300001N1+02361+01971999999ADDAY191031AY261031GA1011+006009099GA2031+007509089GF107991031021008001071031MA1999999086681MD1999999-0281ME1314509MW1151REMSYN094AAXX  15154 67861 41580 73303 10236 20197 38668 48450 71596 83273 333 59028 81920 83825 85460;
0221678610999992000021518004-18220+028930FM-12+1282FVGO V0203401N00211045001CN0260001N1+01941+01881999999ADDAY191061AY261061GA1021+006009099GF108991021091008001071031KA1120M+02501MA1999999086901MD1999999-0101ME1314709MW1951REMSYN094AAXX  15184 67861 41576 83404 10194 20188 38690 48470 79596 82973 333 10250 59010 82920 88460;
0202678610999992000021600004-18220+028930FM-12+1282FVGO V0201201N00101045001CN0100001N1+01881+01771999999ADDAY191061AY261061GA1041+002709079GF108991041071002501071999MA1999999086921MD1999999-0061ME1314719MW1601REMSYN088AAXX  16004 67861 41360 81202 10188 20177 38692 48471 76096 8477/ 333 59006 84709 88460;
0202678610999992000021603004-18220+028930FM-12+1282FVGO V0203601N002110024019N0080001N1+01751+01671999999ADDAY191031AY261031GA1051+002409079GF108991051071008001071999MA1999999086951MD1999999+0011ME1314749MW1911REMSYN088AAXX  16034 67861 41558 83604 10175 20167 38695 48474 79196 8577/ 333 58001 85708 88460;
0238678610999992000021606004-18220+028930FM-12+1282FVGO V0202801N00101045001CN0300001N1+01911+01791999999ADDAA124029091AY191061AY261061GA1011+004509069GF108991011051004501071999KA1120N+01711MA1999999087131MD1999999+0091ME1314939MW1601REMSYN100AAXX  16064 67861 11480 82802 10191 20179 38713 48493 60294 76096 8157/ 333 20171 58009 81615 88460;
0202678610999992000021609004-18220+028930FM-12+1282FVGO V0203001N00101045001CN0300001N1+02001+01801999999ADDAY161031AY221031GA1031+002709079GF108991031061002501071999MA1999999087271MD1999999+0281ME1315079MW1601REMSYN088AAXX  16094 67861 41380 83002 10200 20180 38727 48507 76062 8367/ 333 58028 83709 88460;
0224678610999992000021612004-18220+028930FM-12+1282FVGO V0200201N003610060019N0500001N1+02251+01731999999ADDAY161061AY221061GA1011+006009099GA2051+006009089GF107991051021008001071031MA1999999087071MD1999999+0271ME1314899MW1211REMSYN094AAXX  16124 67861 41584 70207 10225 20173 38707 48489 72162 85273 333 58027 81920 85820 87460;
0224678610999992000021615004-18220+028930FM-12+1282FVGO V0209999C00001003001CN0250001N1+01961+01871999999ADDAY191031AY261031GA1051+003009079GA2011+006009099GF108991051061002501071999MA1999999087011MD1999999+0331ME1314819MW1611REMSYN094AAXX  16154 67861 41375 80000 10196 20187 38701 48481 76196 8567/ 333 58033 81920 85710 88460;
0221678610999992000021618004-18220+028930FM-12+1282FVGO V0200301N000510030019N0200001N1+01951+01901999999ADDAY191061AY261061GA1051+003009079GF108991051061004501071999KA1120M+02321MA1999999087181MD1999999+0281ME1314989MW1611REMSYN094AAXX  16184 67861 41470 80301 10195 20190 38718 48498 76196 8567/ 333 10232 58028 85710 88460;
0202678610999992000021700004-18220+028930FM-12+1282FVGO V0200601N003110024019N0280001N1+01801+01741999999ADDAY161061AY221061GA1071+002409079GF107991071081002501071999MA1999999087141MD1999999+0221ME1314939MW1021REMSYN088AAXX  17004 67861 41378 70606 10180 20174 38714 48493 70262 8787/ 333 58022 87708 85458;
0202678610999992000021703004-18220+028930FM-12+1282FVGO V0200901N002110024019N0150001N1+01801+01681999999ADDAY161031AY251031GA1051+002409079GF107991051061002501071999MA1999999087091MD1999999+0141ME1314889MW1581REMSYN088AAXX  17034 67861 41365 70904 10180 20168 38709 48488 75865 8567/ 333 58014 85708 87460;
0224678610999992000021712004-18220+028930FM-12+1282FVGO V0200101N00151045001CN0300001N1+02341+01981999999ADDAY191061AY281061GA1011+006009099GA2031+007509089GF107991031021008001071031MA1999999086921MD1999999-0151ME1314749MW1171REMSYN094AAXX  17124 67861 41580 70103 10234 20198 38692 48474 71798 83273 333 59015 81920 83825 87460;
0202678610999992000021715004-18220+028930FM-12+1282FVGO V0201701N00261045001CN0400001N1+01951+01841999999ADDAY191031AY261031GA1011+006009099GF108991011021008001071031MA1999999086931MD1999999-0081ME1314739MW1601REMSYN088AAXX  17154 67861 41582 81705 10195 20184 38693 48473 76096 81273 333 59008 81920 88460;
0202678610999992000021800004-18220+028930FM-12+1282FVGO V0201401N00361045001CN0080001N1+01821+01771999999ADDAY161061AY221061GA1041+002409079GF108991041071002501071999MA1999999087091MD1999999-0051ME1314899MW1631REMSYN088AAXX  18004 67861 41358 81407 10182 20177 38709 48489 76362 8477/ 333 59005 84708 88460;
0221678610999992000021803004-18220+028930FM-12+1282FVGO V0201501N005710024019N0060001N1+01801+01731999999ADDAY161031AY251031GA1061+002409079GF107991061071002501071999MA1999999999999MD1999999-0021ME1314869MW1591REMSYN088AAXX  18034 67861 41356 71511 10180 20173 38907 48486 75965 8677/ 333 59002 86708 87460;EQDQ01 089073APOSP 
0202678610999992000021812004-18220+028930FM-12+1282FVGO V0203601N00571012001CN0500001N1+02461+01641999999ADDAY121061AY221061GA1011+009009099GF106991061021012501031031MA1999999087071MD1999999+0151ME1314889MW1151REMSYN088AAXX  18124 67861 42684 63611 10246 20164 38707 48488 71522 86233 333 58015 81930 86835;
0174678610999992000021815004-18220+028930FM-12+1282FVGO V0200301N004611050019N0500001N1+02601+01561999999ADDGA1011+009009099GF105991021021012501031031MA1999999087001MD1999999+0071ME1314829REMSYN082AAXX  18154 67861 42684 50309 10260 20156 38700 48482 82233 333 58007 81930 84099;
0204678610999992000021906004-18220+028930FM-12+1282FVGO V0200301N002610060019N0500001N1+01951+01631999999ADDAA124000791GA1051+006009059GF106991051051008001041021KA1120N+01731MA1999999087441MD1999999+0241ME1315239REMSYN088AAXX  19064 67861 12584 60305 10195 20163 38744 48523 69904 85542 333 20173 58024 85620;
0168678610999992000021909004-18220+028930FM-12+1282FVGO V0200901N003110090019N0500001N1+02251+01661999999ADDGA1051+009009029GF106991051021012501031021MA1999999087441MD1999999+0161ME1315249REMSYN076AAXX  19094 67861 42684 60906 10225 20166 38744 48524 85232 333 58016 85830;
0202678610999992000022312004-18220+028930FM-12+1282FVGO V0202701N005710024019N0200001N1+01871+01831999999ADDAY161061AY261061GA1051+002409079GF108991051071008001071999MA1999999086281MD1999999-0691ME1314089MW1631REMSYN088AAXX  23124 67861 41570 82711 10187 20183 38628 48408 76366 8577/ 333 59069 85708 88460;
0206678610999992000022315004-18220+028930FM-12+1282FVGO V0202801N003610021019N0060001N1+01801+01791999999ADDAY161031AY251031GA1061+002109079GF108991061071002501071999MD1999999-0651ME1313989MW1591REMSYN088AAXX  23154 67861 41356 82807 10180 20179 39618 48398 75965 8677/ 333 59065 86707 88460;EQDQ01+096183APOSP 
0221678610999992000022318004-18220+028930FM-12+1282FVGO V0202801N002610021019N0060001N1+01821+01811999999ADDAY161061AY251061GA1061+002109079GF108991061071002501071999KA1120M+01891MA1999999086821MD1999999-0621ME1314069MW1621REMSYN094AAXX  23184 67861 41356 82805 10182 20181 38682 48406 76265 8677/ 333 10189 59062 86707 88460;
0202678610999992000022403004-18220+028930FM-12+1282FVGO V0201801N010310015019N0015001N1+01751+01751999999ADDAY161031AY251031GA1071+001509079GF108991071071001501071999MA1999999086481MD1999999-0061ME1314279MW1591REMSYN088AAXX  24034 67861 41215 81820 10175 20175 38648 48427 75965 8777/ 333 59006 87705 88460;
0238678610999992000022406004-18220+028930FM-12+1282FVGO V0202701N011810018019N0040001N1+01751+01711999999ADDAA124098091AY161061AY251061GA1071+001809079GF108991071071002501071999KA1120N+01701MA1999999086611MD1999999-0021ME1314409MW1611REMSYN100AAXX  24064 67861 11340 82723 10175 20171 38661 48440 60984 76165 8777/ 333 20170 59002 87706 88460;
0202678610999992000022409004-18220+028930FM-12+1282FVGO V0202701N010310021019N0050001N1+01891+01761999999ADDAY161031AY251031GA1071+002109079GF107991071071002501071999MA1999999086721MD1999999+0281ME1314529MW1581REMSYN088AAXX  24094 67861 41350 72720 10189 20176 38672 48452 75865 8777/ 333 58028 87707 88460;
0202678610999992000022412004-18220+028930FM-12+1282FVGO V0202701N008710024019N0150001N1+01851+01811999999ADDAY161061AY251061GA1051+002409079GF108991051071002501071999MA1999999086721MD1999999+0441ME1314529MW1611REMSYN088AAXX  24124 67861 41365 82717 10185 20181 38672 48452 76165 8577/ 333 58044 85708 88460;
0224678610999992000022415004-18220+028930FM-12+1282FVGO V0203001N00571045001CN0200001N1+02001+01691999999ADDAY161031AY221031GA1031+002709079GA2031+004509069GF107991031061002501071999MA1999999086741MD1999999+0561ME1314549MW1601REMSYN094AAXX  24154 67861 41370 73011 10200 20169 38674 48454 76062 8367/ 333 58056 83709 83615 86460;
0196678610999992000022503004-18220+028930FM-12+1282FVGO V0200401N002610300019N0300001N1+01801+01741999999ADDAY161031AY221031GA1071+030009019GF107991071001999999071999MA1999999086891MD1999999+0411ME1314689MW1601REMSYN082AAXX  25034 67861 41980 70405 10180 20174 38689 48468 76062 8707/ 333 58041 87460;
0232678610999992000022506004-18220+028930FM-12+1282FVGO V0200501N002110027019N0280001N1+01901+01891999999ADDAA124010991AY161061AY221061GA1081+002709069GF108991081061002501999999KA1120N+01731MA1999999087071MD1999999+0461ME1314879MW1211REMSYN094AAXX  25064 67861 11378 80504 10190 20189 38707 48487 60114 72162 886// 333 20173 58046 88709;
0202678610999992000022509004-18220+028930FM-12+1282FVGO V0200601N002610060019N0500001N1+02251+01801999999ADDAY161031AY221031GA1071+006009069GF107991071051008001071999MA1999999087091MD1999999+0371ME1314909MW1021REMSYN088AAXX  25094 67861 41584 70605 10225 20180 38709 48490 70262 8757/ 333 58037 87620 85460;
0224678610999992000022512004-18220+028930FM-12+1282FVGO V0200301N00311045001CN0300001N1+02221+01891999999ADDAY161061AY221061GA1011+006009099GA2031+007509089GF107991031021008001071031MA1999999086961MD1999999+0241ME1314779MW1601REMSYN094AAXX  25124 67861 41580 70306 10222 20189 38696 48477 76062 83273 333 58024 81920 83825 86460;
0202678610999992000022515004-18220+028930FM-12+1282FVGO V0203601N00151045001CN0500001N1+02381+01731999999ADDAY191031AY261031GA1011+007509099GF107991021021012501071031MA1999999086871MD1999999+0131ME1314689MW1151REMSYN088AAXX  25154 67861 41684 73603 10238 20173 38687 48468 71596 82273 333 58013 81925 88460;
0221678610999992000022518004-18220+028930FM-12+1282FVGO V0200401N00151045001CN0060001N1+01931+01861999999ADDAY191061AY261061GA1041+002709079GF108991041071002501071999KA1120M+02481MA1999999087041MD1999999+0201ME1314849MW1611REMSYN094AAXX  25184 67861 41356 80403 10193 20186 38704 48484 76196 8477/ 333 10248 58020 84709 88460;
0196678610999992000022603004-18220+028930FM-12+1282FVGO V0200601N002110300019N0300001N1+01861+01801999999ADDAY161031AY221031GA1071+030009019GF107991071001999999071999MA1999999087071MD1999999+0181ME1314889MW1021REMSYN082AAXX  26034 67861 41980 70604 10186 20180 38707 48488 70262 8707/ 333 58018 87460;
0238678610999992000022606004-18220+028930FM-12+1282FVGO V0200301N00101045001CN0300001N1+01901+01871999999ADDAA124006191AY161061AY221061GA1041+002709079GF108991041061002501071999KA1120N+01821MA1999999087221MD1999999+0151ME1315029MW1601REMSYN100AAXX  26064 67861 11380 80302 10190 20187 38722 48502 60064 76062 8467/ 333 20182 58015 84709 88460;
0202678610999992000022609004-18220+028930FM-12+1282FVGO V0203601N001010027019N0350001N1+02111+02011999999ADDAY191031AY261031GA1051+002709079GF107991051071002501071999MA1999999087171MD1999999+0081ME1314989MW1601REMSYN088AAXX  26094 67861 41381 73602 10211 20201 38717 48498 76096 8577/ 333 58008 85709 87846;
0202678610999992000022615004-18220+028930FM-12+1282FVGO V0209999C00001045001CN0450001N1+02051+01871999999ADDAY191031AY261031GA1011+004509099GF107991021021008001071031MA1999999087001MD1999999+0131ME1314799MW1021REMSYN088AAXX  26154 67861 41583 70000 10205 20187 38700 48479 70296 82273 333 58013 81915 87460;
0215678610999992000022618004-18220+028930FM-12+1282FVGO V0201401N001510300019N0300001N1+01951+01841999999ADDAY191061AY261061GA1071+030009019GF107991071001999999071999KA1120M+02171MA1999999087021MD1999999-0021ME1314829MW1021REMSYN088AAXX  26184 67861 41980 71403 10195 20184 38702 48482 70296 8707/ 333 10217 59002 87460;
0168678610999992000022700004-18220+028930FM-12+1282FVGO V0201201N00211105001CN0300001N1+01871+01751999999ADDGA1051+999999019GF105991001001999999001021MA1999999087031MD1999999-0051ME1314849REMSYN076AAXX  27004 67861 42980 51204 10187 20175 38703 48484 80002 333 59005 85099;
0168678610999992000022703004-18220+028930FM-12+1282FVGO V0200801N002612200019N0300001N1+01851+01741999999ADDGA1031+030009079GF103991031001999999031001MA1999999087001MD1999999-0081ME1314899REMSYN076AAXX  27034 67861 42980 30805 10185 20174 38700 48489 83030 333 59008 83360;
0204678610999992000022706004-18220+028930FM-12+1282FVGO V0200501N003610027019N0220001N1+01911+01881999999ADDAA124004191GA1081+002709069GF108991081061002501999999KA1120N+01811MA1999999087191MD1999999-0031ME1314999REMSYN088AAXX  27064 67861 12372 80507 10191 20188 38719 48499 60044 886// 333 20181 59003 88709;
0202678610999992000022709004-18220+028930FM-12+1282FVGO V0203501N001019999999N0300001N1+02101+01931999999ADDAY161031AY251031GA1031+002709079GF107991031061002501999999MA1999999087231MD1999999+0061ME1315059MW1021REMSYN088AAXX  27094 67861 41380 73502 10210 20193 38723 48505 70265 836// 333 58006 83709 87615;
0174678610999992000022712004-18220+028930FM-12+1282FVGO V0203301N00261045001CN0500001N1+02271+01871999999ADDGA1041+006009089GF107991041011008001071999MA1999999087071MD1999999+0061ME1314899REMSYN082AAXX  27124 67861 42584 73305 10227 20187 38707 48489 8417/ 333 58006 84820 87460;
0174678610999992000022715004-18220+028930FM-12+1282FVGO V0202601N00151045001CN0500001N1+02181+01711999999ADDGA1021+007509089GF107991021011008001071999MA1999999087031MD1999999+0031ME1314849REMSYN082AAXX  27154 67861 42584 72603 10218 20171 38703 48484 8217/ 333 58003 82825 87460;
0193678610999992000022718004-18220+028930FM-12+1282FVGO V0209999C000012200019N0500001N1+01901+01751999999ADDGA1011+030009039GF104991011001999999041021KA1120M+02291MA1999999087071MD1999999+0051ME1314879REMSYN088AAXX  27184 67861 42984 40000 10190 20175 38707 48487 81042 333 10229 58005 81360 84099;
0168678610999992000022803004-18220+028930FM-12+1282FVGO V0201201N003610300019N0300001N1+01811+01761999999ADDGA1071+030009079GF107991071001999999031021MA1999999087191MD1999999+0191ME1314999REMSYN076AAXX  28034 67861 42980 71207 10181 20176 38719 48499 87032 333 58019 87360;
0210678610999992000022806004-18220+028930FM-12+1282FVGO V0200901N00361045001CN0400001N1+01931+01761999999ADDAA124002091GA1011+003009069GF107991011051004501071021KA1120N+01791MA1999999087391MD1999999+0201ME1315199REMSYN094AAXX  28064 67861 12482 70907 10193 20176 38739 48519 60024 81572 333 20179 58020 81610 87360;
0174678610999992000022809004-18220+028930FM-12+1282FVGO V0201001N004110075019N0500001N1+02351+01841999999ADDGA1051+007509069GF107991051051008001031001MA1999999087541MD1999999+0211ME1315279REMSYN082AAXX  28094 67861 42584 71008 10235 20184 38754 48527 85530 333 58021 85625 83360;
0168678610999992000022812004-18220+028930FM-12+1282FVGO V0203601N001010450019N0500001N1+02601+01711999999ADDGA1041+012009029GF105991041021012501031021MA1999999087251MD1999999+0181ME1315089REMSYN076AAXX  28124 67861 42684 53602 10260 20171 38725 48508 84232 333 58018 84840;
0224678610999992000022815004-18220+028930FM-12+1282FVGO V0200501N001010450019N0500001N1+02501+01861999999ADDAY191031AY221031GA1011+012009099GA2031+012009089GF107991031021012501071031MA1999999087121MD1999999+0091ME1314939MW1171REMSYN094AAXX  28154 67861 41684 70502 10250 20186 38712 48493 71792 83273 333 58009 81940 83840 85099;
0221678610999992000022818004-18220+028930FM-12+1282FVGO V0201001N00361045001CN0050001N1+01941+01881999999ADDAY191061AY261061GA1011+012009099GF107991011091012501071031KA1120M+02801MA1999999087271MD1999999+0201ME1315079MW1951REMSYN094AAXX  28184 67861 41650 71007 10194 20188 38727 48507 79596 81973 333 10280 58020 81940 87460;
0202678610999992000022900004-18220+028930FM-12+1282FVGO V0200701N004110024019N0100001N1+01901+01791999999ADDAY191061AY261061GA1061+002409079GF108991061071002501071999MA1999999087311MD1999999+0141ME1315119MW1611REMSYN088AAXX  29004 67861 41360 80708 10190 20179 38731 48511 76196 8677/ 333 58014 86708 88460;
0202678610999992000022903004-18220+028930FM-12+1282FVGO V0201001N00571105001CN0300001N1+01871+01741999999ADDAY191031AY261031GA1011+006009099GF105991011091008001071031MA1999999087291MD1999999+0101ME1315109MW1131REMSYN088AAXX  29034 67861 41580 51011 10187 20174 38729 48510 71396 81973 333 58010 81920 85460;
0238678610999992000022906004-18220+028930FM-12+1282FVGO V0200501N00311045001CN0450001N1+02001+01691999999ADDAA124046091AY191061AY261061GA1011+004509089GF107991011011004501071021KA1120N+01801MA1999999087521MD1999999+0131ME1315329MW1031REMSYN100AAXX  29064 67861 11483 70506 10200 20169 38752 48532 60464 70396 81172 333 20180 58013 81815 87360;
0168678610999992000022909004-18220+028930FM-12+1282FVGO V0200901N003110450019N0500001N1+02441+01921999999ADDGA1041+006909029GF106991041011008001031021MA1999999087471MD1999999+0031ME1315309REMSYN076AAXX  29094 67861 42584 60906 10244 20192 38747 48530 84132 333 58003 84823;
0202678610999992000022915004-18220+028930FM-12+1282FVGO V0200801N001510450019N0500001N1+02531+01891999999ADDAY191031AY281031GA1011+009009099GF106991031021012501031031MA1999999087131MD1999999+0011ME1314949MW1151REMSYN088AAXX  29154 67861 41684 60803 10253 20189 38713 48494 71598 83233 333 58001 81930 83837;
0221678610999992000022918004-18220+028930FM-12+1282FVGO V0200701N00151045001CN0500001N1+02161+01931999999ADDAY191061AY281061GA1011+009009099GF107991011091012501071031KA1120M+02721MA1999999087291MD1999999+0021ME1315119MW1131REMSYN094AAXX  29184 67861 41684 70703 10216 20193 38729 48511 71398 81973 333 10272 58002 81930 84460;
0202678610999992000030103004-18220+028930FM-12+1282FVGO V0201001N00311045001CN0300001N1+01961+01791999999ADDAY191031AY261031GA1011+009009099GF107991011091012501071031MA1999999087271MD1999999-0021ME1315099MW1131REMSYN088AAXX  01034 67861 41680 71006 10196 20179 38727 48509 71396 81973 333 59002 81930 87460;
0238678610999992000030106004-18220+028930FM-12+1282FVGO V0200801N00461045001CN0400001N1+02171+01861999999ADDAA124000191AY191061AY261061GA1041+004509069GF107991041051004501031021KA1120N+01881MA1999999087371MD1999999-0151ME1315199MW1021REMSYN100AAXX  01064 67861 11482 70809 10217 20186 38737 48519 69924 70296 84532 333 20188 59015 84615 84360;
0168678610999992000030112004-18220+028930FM-12+1282FVGO V0203301N001510117019N0500001N1+02701+01821999999ADDGA1061+011709029GF106991061021012501001021MA1999999087211MD1999999+0021ME1315049REMSYN076AAXX  01124 67861 42684 63303 10270 20182 38721 48504 86202 333 58002 86839;
0202678610999992000030115004-18220+028930FM-12+1282FVGO V0200501N000510120019N0500001N1+02501+01831999999ADDAY191031AY221031GA1011+012009099GF107991051021012501001031MA1999999087021MD1999999-0111ME1314839MW1171REMSYN088AAXX  01154 67861 41684 70501 10250 20183 38702 48483 71792 85203 333 59011 81940 85840;
0243678610999992000030118004-18220+028930FM-12+1282FVGO V0209999C00001045001CN0300001N1+02151+01941999999ADDAY191061AY221061GA1011+012009099GA2031+030009049GF107991011091012501071031KA1120M+02801MA1999999087141MD1999999-0151ME1314959MW1131REMSYN100AAXX  01184 67861 41680 70000 10215 20194 38714 48495 71392 81973 333 10280 59015 81940 83460 85099;
0202678610999992000030203004-18220+028930FM-12+1282FVGO V0200901N00261045001CN0200001N1+01831+01781999999ADDAY191031AY261031GA1011+006009099GF107991011091008001071031MA1999999087151MD1999999-0121ME1314959MW1171REMSYN088AAXX  02034 67861 41570 70905 10183 20178 38715 48495 71796 81973 333 59012 81920 85460;
0260678610999992000030206004-18220+028930FM-12+1282FVGO V0203301N00151045001CN0300001N1+02001+01881999999ADDAA124004191AY191061AY261061GA1031+002709079GA2031+006009069GF107991031071002501071021KA1120N+01761MA1999999087341MD1999999-0031ME1315149MW1291REMSYN106AAXX  02064 67861 11380 73303 10200 20188 38734 48514 60044 72996 83772 333 20176 59003 83709 83620 85460;
0174678610999992000030209004-18220+028930FM-12+1282FVGO V0200201N00261045001CN0500001N1+02471+01131999999ADDGA1041+009009089GF106991041021012501031021MA1999999087361MD1999999-0101ME1315189REMSYN082AAXX  02094 67861 42684 60205 10247 20113 38736 48518 84232 333 59010 84830 83360;
0168678610999992000030212004-18220+028930FM-12+1282FVGO V0203601N002610099019N0500001N1+02641+01881999999ADDGA1061+009909029GF106991061021012501001001MA1999999087131MD1999999-0081ME1314959REMSYN076AAXX  02124 67861 42684 63605 10264 20188 38713 48495 86200 333 59008 86833;
0174678610999992000030215004-18220+028930FM-12+1282FVGO V0200501N001012200019N0500001N1+02681+01761999999ADDGA1011+009009099GF104991031021012501001031MA1999999087001MD1999999-0021ME1314839REMSYN082AAXX  02154 67861 42684 40502 10268 20176 38700 48483 83203 333 59002 81930 83838;
0187678610999992000030218004-18220+028930FM-12+1282FVGO V0209999C000012200019N0500001N1+02161+01941999999ADDGA1011+999999019GF101991001001999999001021KA1120M+02741MA1999999087091MD1999999-0051ME1314909REMSYN082AAXX  02184 67861 42984 10000 10216 20194 38709 48490 80002 333 10274 59005 81099;
0202678610999992000030300004-18220+028930FM-12+1282FVGO V0201201N00461105001CN0400001N1+02121+01791999999ADDAY191061AY211061GA1011+009009099GF105991011091012501071031MA1999999087211MD1999999+0041ME1315049MW1171REMSYN088AAXX  03004 67861 41682 51209 10212 20179 38721 48504 71791 81973 333 58004 81930 84460;
0202678610999992000030303004-18220+028930FM-12+1282FVGO V0201301N00211105001CN0400001N1+01921+01831999999ADDAY191031AY261031GA1011+009009099GF106991011091012501071031MA1999999087201MD1999999+0051ME1315019MW1171REMSYN088AAXX  03034 67861 41682 61304 10192 20183 38720 48501 71796 81973 333 58005 81930 85460;
0238678610999992000030306004-18220+028930FM-12+1282FVGO V0201101N005112200019N0500001N1+02101+01771999999ADDAA124000791AY191061AY261061GA1011+004509069GF104991011051004501071021KA1120N+01851MA1999999087301MD1999999-0041ME1315119MW1021REMSYN100AAXX  03064 67861 11484 41110 10210 20177 38730 48511 69904 70296 81572 333 20185 59004 81615 83460;
0174678610999992000030309004-18220+028930FM-12+1282FVGO V0200501N00151045001CN0500001N1+02461+01811999999ADDGA1041+006609089GF106991041021008001031021MA1999999087421MD1999999+0061ME1315269REMSYN082AAXX  03094 67861 42584 60503 10246 20181 38742 48526 84232 333 58006 84822 83360;
0168678610999992000030312004-18220+028930FM-12+1282FVGO V0203601N00101012001CN0500001N1+02731+01821999999ADDGA1031+011409029GF105991051021012501001021MA1999999087201MD1999999+0071ME1315039REMSYN076AAXX  03124 67861 42684 53602 10273 20182 38720 48503 85202 333 58007 83838;
0224678610999992000030315004-18220+028930FM-12+1282FVGO V0201801N000510450019N0500001N1+02391+01881999999ADDAY191031AY281031GA1011+010509099GA2031+012009089GF107991031021012501071031MA1999999087101MD1999999+0101ME1314919MW1291REMSYN094AAXX  03154 67861 41684 71801 10239 20188 38710 48491 72998 83273 333 58010 81935 83840 85099;
0221678610999992000030318004-18220+028930FM-12+1282FVGO V0200801N002110450019N0300001N1+02151+01861999999ADDAY191061AY281061GA1011+010509099GF106991031051012501031031KA1120M+02741MA1999999087161MD1999999+0071ME1314979MW1131REMSYN094AAXX  03184 67861 41680 60804 10215 20186 38716 48497 71398 83533 333 10274 58007 81935 85099;
0224678610999992000030403004-18220+028930FM-12+1282FVGO V0201501N002610450019N0300001N1+01821+01631999999ADDAY191031AY261031GA1031+002709079GA2011+004509099GF107991031071002501071999MA1999999087251MD1999999+0051ME1315049MW1131REMSYN094AAXX  04034 67861 41380 71505 10182 20163 38725 48504 71396 8377/ 333 58005 81915 83709 87460;
0122678610999992000030409004-18220+028930FM-12+1282FVGO V0200701N002110075019N0500001N1+02351+01761999999ADDGF106991061021008001031001MA1999999087451ME1315289REMSYN060AAXX  04094 67861 42584 60704 10235 20176 38745 48528 86230;
0168678610999992000030412004-18220+028930FM-12+1282FVGO V0203001N003610105019N0500001N1+02591+01721999999ADDGA1051+010509029GF105991051021012501031001MA1999999087241MD1999999+0041ME1315079REMSYN076AAXX  04124 67861 42684 53007 10259 20172 38724 48507 85230 333 58004 85835;
0187678610999992000030418004-18220+028930FM-12+1282FVGO V0209999C000012200019N0300001N1+02131+01801999999ADDGA1011+030009079GF101991011001999999061021KA1120M+02731MA1999999087161MD1999999+0001ME1314979REMSYN082AAXX  04184 67861 42980 10000 10213 20180 38716 48497 81062 333 10273 58000 81360;
0232678610999992000030506004-18220+028930FM-12+1282FVGO V0200301N001510450019N0450001N1+02061+01741999999ADDAA124000791AY151061AY221061GA1031+003009059GF107991031031004501081021KA1120N+01311MA1999999087521MD1999999+0071ME1315329MW1201REMSYN094AAXX  05064 67861 11483 70303 10206 20174 38752 48532 69904 72052 83382 333 20131 58007 83610;
0168678610999992000030509004-18220+028930FM-12+1282FVGO V0203601N002110090019N0500001N1+02371+01671999999ADDGA1051+009009029GF106991051021012501031001MA1999999087521MD1999999+0071ME1315339REMSYN076AAXX  05094 67861 42684 63604 10237 20167 38752 48533 85230 333 58007 85830;
0174678610999992000030515004-18220+028930FM-12+1282FVGO V0200301N001512200019N0500001N1+02701+01721999999ADDGA1011+013509099GF103991021021017501041021MA1999999087141MD1999999+0041ME1314979REMSYN082AAXX  05154 67861 42784 30303 10270 20172 38714 48497 82242 333 58004 81945 83360;
0221678610999992000030518004-18220+028930FM-12+1282FVGO V0209999C000011050019N0300001N1+02131+01541999999ADDAY191061AY221061GA1011+013509099GF105991011091017501071031KA1120M+02771MA1999999087241MD1999999+0081ME1315049MW1291REMSYN094AAXX  05184 67861 41780 50000 10213 20154 38724 48504 72992 81973 333 10277 58008 81945 83460;
0168678610999992000030600004-18220+028930FM-12+1282FVGO V0200901N001512200019N0300001N1+01951+01691999999ADDGA1041+006009059GF104991041051008001001001MA1999999087321MD1999999-0031ME1315129REMSYN076AAXX  06004 67861 42580 40903 10195 20169 38732 48512 84500 333 59003 84620;
0168678610999992000030603004-18220+028930FM-12+1282FVGO V0201001N002112200019N0300001N1+01871+01751999999ADDGA1021+030009079GF102991021001999999031001MA1999999087221MD1999999-0081ME1315139REMSYN076AAXX  06034 67861 42980 21004 10187 20175 38722 48513 82030 333 59008 82360;
0223678610999992000030606004-18220+028930FM-12+1282FVGO V0200501N00151045001CN0400001N1+02051+01771999999ADDAA199000091GA1011+004509089GF106991011011004501071001KA1120N+01841MA1999999087481MD1999999-0041ME1315299REMSYN088AAXX  06064 67861 32482 60503 10205 20177 38748 48529 81170 333 20184 59004 81815 86360;EQDQ01  00002PRCP99
0168678610999992000030609004-18220+028930FM-12+1282FVGO V0200601N002610090019N0500001N1+02421+01711999999ADDGA1061+009009029GF106991061021012501031001MA1999999087431MD1999999-0091ME1315249REMSYN076AAXX  06094 67861 42684 60605 10242 20171 38743 48524 86230 333 59009 86830;
0174678610999992000030612004-18220+028930FM-12+1282FVGO V0203601N00261012001CN0500001N1+02761+01731999999ADDGA1011+012009099GF105991051021012501001031MA1999999087191MD1999999-0111ME1315039REMSYN082AAXX  06124 67861 42684 53605 10276 20173 38719 48503 85203 333 59011 81940 85844;
0202678610999992000030615004-18220+028930FM-12+1282FVGO V0202201N00151045001CN0500001N1+02111+01921999999ADDAY181031AY261031GA1011+012009099GF107991021021012501071031MA1999999087031MD1999999-0111ME1314849MW1601REMSYN088AAXX  06154 67861 41684 72203 10211 20192 38703 48484 76086 82273 333 59011 81940 86460;
0196678610999992000030703004-18220+028930FM-12+1282FVGO V0200901N003112200019N0300001N1+01871+01701999999ADDAY101031AY201031GA1011+009009099GF102991011091012501031031MA1999999087161MD1999999-0161ME1314979MW1131REMSYN082AAXX  07034 67861 41680 20906 10187 20170 38716 48497 71300 81933 333 59016 81930;
0210678610999992000030706004-18220+028930FM-12+1282FVGO V0201201N00361105001CN0450001N1+02091+01761999999ADDAA124002091GA1021+007509069GF105991021051008001081021KA1120N+01831MA1999999087381MD1999999-0131ME1315159REMSYN094AAXX  07064 67861 12583 51207 10209 20176 38738 48515 60024 82582 333 20183 59013 82625 84360;
0168678610999992000030709004-18220+028930FM-12+1282FVGO V0201501N004110075019N0450001N1+02441+01881999999ADDGA1051+007509059GF107991051051008001031021MA1999999087421MD1999999-0011ME1315259REMSYN076AAXX  07094 67861 42583 71508 10244 20188 38742 48525 85532 333 59001 85625;
0168678610999992000030712004-18220+028930FM-12+1282FVGO V0200901N004610090019N0500001N1+02501+01841999999ADDGA1061+009009029GF107991061021012501001021MA1999999087301MD1999999+0111ME1315129REMSYN076AAXX  07124 67861 42684 70909 10250 20184 38730 48512 86202 333 58011 86830;
0224678610999992000030715004-18220+028930FM-12+1282FVGO V0200901N00101045001CN0500001N1+02101+01941999999ADDAY191031AY281031GA1011+009009099GA2031+010509089GF107991031021012501071031MA1999999087161MD1999999+0131ME1314979MW1801REMSYN094AAXX  07154 67861 41684 70902 10210 20194 38716 48497 78098 83273 333 58013 81930 83835 85460;
0156678610999992000030800004-18220+028930FM-12+1282FVGO V0201501N004112200019N0300001N1+01901+01661999999ADDGA1001+999999999GF100991001001999999001001MA1999999087261MD1999999+0081ME1315079REMSYN064AAXX  08004 67861 42980 01508 10190 20166 38726 48507 333 58008;
0196678610999992000030803004-18220+028930FM-12+1282FVGO V0201001N004612200019N0300001N1+01771+01581999999ADDAY101031AY201031GA1011+009009099GF101991011091012501031041MA1999999087291MD1999999+0131ME1315099MW1131REMSYN082AAXX  08034 67861 41680 11009 10177 20158 38729 48509 71300 81934 333 58013 81930;
0210678610999992000030806004-18220+028930FM-12+1282FVGO V0200301N003619999999N0400001N1+02031+01601999999ADDAA124000591GA1021+030009039GF105991021001999999041021KA1120N+01741MA1999999087421MD1999999+0071ME1315229REMSYN094AAXX  08064 67861 12982 50307 10203 20160 38742 48522 69954 82042 333 20174 58007 82360 83099;
0174678610999992000030809004-18220+028930FM-12+1282FVGO V0200701N00411105001CN0500001N1+02441+01581999999ADDGA1021+010809089GF105991021011012501031021MA1999999087351MD1999999-0071ME1315169REMSYN082AAXX  08094 67861 42684 50708 10244 20158 38735 48516 82132 333 59007 82836 83360;
0202678610999992000030812004-18220+028930FM-12+1282FVGO V0200901N00211012001CN0500001N1+02641+01491999999ADDAY111061AY211061GA1011+012009099GF106991051021012501031031MA1999999087181MD1999999-0121ME1315009MW1151REMSYN088AAXX  08124 67861 41684 60904 10264 20149 38718 48500 71511 85233 333 59012 81940 85848;
0224678610999992000030815004-18220+028930FM-12+1282FVGO V0209999C00001045001CN0300001N1+02521+01741999999ADDAY191031AY221031GA1011+012009099GA2031+014409089GF107991031021012501071031MA1999999087111MD1999999-0051ME1314929MW1171REMSYN094AAXX  08154 67861 42680 70000 10252 20174 38711 48492 71792 83273 333 59005 81940 83848 85460;
0221678610999992000030818004-18220+028930FM-12+1282FVGO V0209999C00001045001CN0500001N1+02051+01991999999ADDAY191061AY281061GA1011+012009099GF107991011091012501071031KA1120M+02741MA1999999087231MD1999999+0011ME1315049MW1131REMSYN094AAXX  08184 67861 41684 70000 10205 20199 38723 48504 71398 81973 333 10274 58001 81940 87460;
0168678610999992000030900004-18220+028930FM-12+1282FVGO V0201301N004112200019N0300001N1+01821+01631999999ADDGA1031+030009079GF103991031001999999031021MA1999999087271MD1999999+0011ME1315079REMSYN076AAXX  09004 67861 42980 31308 10182 20163 38727 48507 83032 333 58001 83360;
0196678610999992000030903004-18220+028930FM-12+1282FVGO V0201201N004612200019N0300001N1+01741+01571999999ADDAY101031AY201031GA1011+009009099GF102991011091012501031031MA1999999087291MD1999999+0001ME1315099MW1131REMSYN082AAXX  09034 67861 41680 21209 10174 20157 38729 48509 71300 81933 333 58000 81930;
0204678610999992000030906004-18220+028930FM-12+1282FVGO V0201401N003612200019N0500001N1+01941+01581999999ADDAA124007991GA1021+004509029GF103991021011004501041021KA1120N+01671MA1999999087431MD1999999+0011ME1315229REMSYN088AAXX  09064 67861 12484 31407 10194 20158 38743 48522 60084 82142 333 20167 58001 82815;
0174678610999992000030909004-18220+028930FM-12+1282FVGO V0201801N005110450019N0500001N1+02301+01611999999ADDGA1041+009009089GF107991041011012501041021MA1999999087531MD1999999+0181ME1315339REMSYN082AAXX  09094 67861 42684 71810 10230 20161 38753 48533 84142 333 58018 84830 84099;
0174678610999992000030912004-18220+028930FM-12+1282FVGO V0201501N002610120019N0500001N1+02601+01641999999ADDGA1051+012009089GF107991051021012501001021MA1999999087261MD1999999+0081ME1315099REMSYN082AAXX  09124 67861 42684 71505 10260 20164 38726 48509 85202 333 58008 85840 84099;
0224678610999992000030915004-18220+028930FM-12+1282FVGO V0200701N00101045001CN0300001N1+02101+01721999999ADDAY191031AY281031GA1011+012009099GA2041+013509089GF107991041021012501071031MA1999999087211MD1999999+0101ME1315029MW1801REMSYN094AAXX  09154 67861 41680 70702 10210 20172 38721 48502 78098 84273 333 58010 81940 84845 83460;
0243678610999992000030918004-18220+028930FM-12+1282FVGO V0200301N00051045001CN0280001N1+01931+01861999999ADDAY191061AY281061GA1011+012009099GA2031+030009049GF107991011091012501071031KA1120M+02701MA1999999087271MD1999999+0041ME1315079MW1131REMSYN100AAXX  09184 67861 41678 70301 10193 20186 38727 48507 71398 81973 333 10270 58004 81940 83460 85099;
0168678610999992000031000004-18220+028930FM-12+1282FVGO V0201301N003112200019N0250001N1+01851+01701999999ADDGA1021+030009079GF102991021001999999041001MA1999999087291MD1999999+0201ME1315089REMSYN076AAXX  10004 67861 42975 21306 10185 20170 38729 48508 82040 333 58020 82360;
0204678610999992000031006004-18220+028930FM-12+1282FVGO V0201801N004612200019N0300001N1+02051+01661999999ADDAA124000791GA1031+004509059GF103991031051004501081021KA1120N+01761MA1999999087411MD1999999-0021ME1315219REMSYN088AAXX  10064 67861 12480 31809 10205 20166 38741 48521 69904 83582 333 20176 59002 83615;
0168678610999992000031009004-18220+028930FM-12+1282FVGO V0200801N003612200019N0500001N1+02411+01771999999ADDGA1041+008109029GF104991041021008001001021MA1999999087321MD1999999-0211ME1315159REMSYN076AAXX  10094 67861 42584 40807 10241 20177 38732 48515 84202 333 59021 84827;
0202678610999992000031012004-18220+028930FM-12+1282FVGO V0200801N00051012001CN0500001N1+02581+01691999999ADDAY191061AY211061GA1011+009009099GF106991051021012501031031MA1999999087051MD1999999-0211ME1314879MW1171REMSYN088AAXX  10124 67861 41684 60801 10258 20169 38705 48487 71791 85233 333 59021 81930 85838;
0202678610999992000031100004-18220+028930FM-12+1282FVGO V0201201N003612200019N0500001N1+02031+01651999999ADDAY111061AY211061GA1011+009009099GF103991011091012501031031MA1999999087161MD1999999-0111ME1314979MW1131REMSYN088AAXX  11004 67861 41684 31207 10203 20165 38716 48497 71311 81933 333 59011 81930 83360;
0217678610999992000031106004-18220+028930FM-12+1282FVGO V0201101N003110045019N0500001N1+02031+01811999999ADDAA199000091GA1061+004509059GF107991061051004501041021KA1120N+01881MA1999999087281MD1999999-0131ME1315089REMSYN082AAXX  11064 67861 32484 71106 10203 20181 38728 48508 86542 333 20188 59013 86615;EQDQ01  00002PRCP99
0168678610999992000031109004-18220+028930FM-12+1282FVGO V0200501N002110090019N0500001N1+02471+01771999999ADDGA1061+009009029GF106991061021012501001021MA1999999087761MD1999999+0041ME1315189REMSYN076AAXX  11094 67861 42684 60504 10247 20177 38776 48518 86202 333 58004 86830;
0215678610999992000031112004-18220+028930FM-12+1282FVGO V0200701N002610141019N0500001N1+02541+01641999999ADDAY121061AY221061GA1061+014109029GF106991061021012501031021MA1999999087112MD1999999+0061ME1314929MW1151REMSYN082AAXX  11124 67861 41684 60705 10254 20164 38711 48492 71522 86232 333 58006 86847;EQDQ01+087113APOSP 
