0095681900999992000010104004-23930+031150FM-15+0400FAPH V0203001N000512200019N9999999N1+02201+02001999999ADDMA1101021999999MW1001REMMET062FAPH 010400Z AUTO 30001KT //// // -RA ////// 22/20 Q1010 RERA;
0095681900999992000010105004-23930+031150FM-15+0400FAPH V0202401N000512200019N9999999N1+02201+02101999999ADDMA1101021999999MW1001REMMET062FAPH 010500Z AUTO 24001KT //// // -RA ////// 22/21 Q1010 RERA;
0091681900999992000010106004-23930+031150FM-15+0400FAPH V0201801N001512200019N9999999N1+02301+02101999999ADDMA1101021999999MW1001REMMET058FAPH 010600Z AUTO 18003KT //// // ////// 23/21 Q1010 RERA;
0091681900999992000010107004-23930+031150FM-15+0400FAPH V0202001N001012200019N9999999N1+02301+02101999999ADDMA1101021999999MW1001REMMET058FAPH 010700Z AUTO 20002KT //// // ////// 23/21 Q1010 RERA;
0086681900999992000010108004-23930+031150FM-15+0400FAPH V0202401N001012200019N9999999N1+02501+02301999999ADDMA1101021999999MW1001REMMET053FAPH 010800Z AUTO 24002KT //// // ////// 25/23 Q1010;
0086681900999992000010109004-23930+031150FM-15+0400FAPH V0203201N000512200019N9999999N1+02601+02501999999ADDMA1101021999999MW1001REMMET053FAPH 010900Z AUTO 32001KT //// // ////// 26/25 Q1010;
0086681900999992000010110004-23930+031150FM-15+0400FAPH V0203301N001012200019N9999999N1+02701+02401999999ADDMA1100911999999MW1001REMMET053FAPH 011000Z AUTO 33002KT //// // ////// 27/24 Q1009;
0086681900999992000010111004-23930+031150FM-15+0400FAPH V0200201N001012200019N9999999N1+02901+02501999999ADDMA1100811999999MW1001REMMET053FAPH 011100Z AUTO 02002KT //// // ////// 29/25 Q1008;
0086681900999992000010112004-23930+031150FM-15+0400FAPH V0203601N001012200019N9999999N1+03001+02401999999ADDMA1100611999999MW1001REMMET053FAPH 011200Z AUTO 36002KT //// // ////// 30/24 Q1006;
0086681900999992000010113004-23930+031150FM-15+0400FAPH V0203401N002612200019N9999999N1+03101+02401999999ADDMA1100511999999MW1001REMMET053FAPH 011300Z AUTO 34005KT //// // ////// 31/24 Q1005;
0114681900999992000010202004-23930+031150FM-15+0400FAPH V0201401N001012200019N9999999N1+02101+02001999999ADDMA1101021999999MW1001REMMET062FAPH 020200Z AUTO 14002KT //// // -RA ////// 21/20 Q1010 RERA;EQDQ01+000000PRSWM2
0114681900999992000010204004-23930+031150FM-15+0400FAPH V0203501N002112200019N9999999N1+02101+02001999999ADDMA1100911999999MW1001REMMET062FAPH 020400Z AUTO 35004KT //// // -RA ////// 21/20 Q1009 RERA;EQDQ01+000000PRSWM2
0110681900999992000010205004-23930+031150FM-15+0400FAPH V0203601N001012200019N9999999N1+02201+02001999999ADDMA1100911999999MW1001REMMET058FAPH 020500Z AUTO 36002KT //// // ////// 22/20 Q1009 RERA;EQDQ01+000000PRSWM2
0110681900999992000010206004-23930+031150FM-15+0400FAPH V0202801N001512200019N9999999N1+02201+02001999999ADDMA1101021999999MW1001REMMET058FAPH 020600Z AUTO 28003KT //// // ////// 22/20 Q1010 RERA;EQDQ01+000000PRSWM2
0105681900999992000010207004-23930+031150FM-15+0400FAPH V0202901N001512200019N9999999N1+02301+02101999999ADDMA1101081999999MW1001REMMET053FAPH 020700Z AUTO 29003KT //// // ////// 23/21 Q1011;EQDQ01+000000PRSWM2
0105681900999992000010208004-23930+031150FM-15+0400FAPH V0203001N001512200019N9999999N1+02401+02201999999ADDMA1101081999999MW1001REMMET053FAPH 020800Z AUTO 30003KT //// // ////// 24/22 Q1011;EQDQ01+000000PRSWM2
0105681900999992000010209004-23930+031150FM-15+0400FAPH V0203001N001512200019N9999999N1+02401+02301999999ADDMA1101021999999MW1001REMMET053FAPH 020900Z AUTO 30003KT //// // ////// 24/23 Q1010;EQDQ01+000000PRSWM2
0105681900999992000010210004-23930+031150FM-15+0400FAPH V0202801N001012200019N9999999N1+02601+02401999999ADDMA1100911999999MW1001REMMET053FAPH 021000Z AUTO 28002KT //// // ////// 26/24 Q1009;EQDQ01+000000PRSWM2
0105681900999992000010211004-23930+031150FM-15+0400FAPH V0202701N001012200019N9999999N1+02801+02401999999ADDMA1100811999999MW1001REMMET053FAPH 021100Z AUTO 27002KT //// // ////// 28/24 Q1008;EQDQ01+000000PRSWM2
0105681900999992000010212004-23930+031150FM-15+0400FAPH V0200501N001012200019N9999999N1+02801+02301999999ADDMA1100811999999MW1001REMMET053FAPH 021200Z AUTO 05002KT //// // ////// 28/23 Q1008;EQDQ01+000000PRSWM2
0105681900999992000010213004-23930+031150FM-15+0400FAPH V0203601N001012200019N9999999N1+03001+02301999999ADDMA1100811999999MW1001REMMET053FAPH 021300Z AUTO 36002KT //// // ////// 30/23 Q1008;EQDQ01+000000PRSWM2
0105681900999992000010303004-23930+031150FM-15+0400FAPH V0201401N004112200019N9999999N1+02101+02001999999ADDMA1101291999999MW1001REMMET053FAPH 030300Z AUTO 14008KT //// // ////// 21/20 Q1013;EQDQ01+000000PRSWM2
0105681900999992000010304004-23930+031150FM-15+0400FAPH V0201401N004112200019N9999999N1+02201+02001999999ADDMA1101391999999MW1001REMMET053FAPH 030400Z AUTO 14008KT //// // ////// 22/20 Q1014;EQDQ01+000000PRSWM2
0110681900999992000010305004-23930+031150FM-15+0400FAPH V0201301N003112200019N9999999N1+02201+02001999999ADDMA1101491999999MW1001REMMET058FAPH 030500Z AUTO 13006KT //// // ////// 22/20 Q1015 RERA;EQDQ01+000000PRSWM2
0110681900999992000010306004-23930+031150FM-15+0400FAPH V0201401N004112200019N9999999N1+02201+02001999999ADDMA1101491999999MW1001REMMET058FAPH 030600Z AUTO 14008KT //// // ////// 22/20 Q1015 RERA;EQDQ01+000000PRSWM2
0105681900999992000010307004-23930+031150FM-15+0400FAPH V0201401N004612200019N9999999N1+02301+02101999999ADDMA1101591999999MW1001REMMET053FAPH 030700Z AUTO 14009KT //// // ////// 23/21 Q1016;EQDQ01+000000PRSWM2
0116681900999992000010308004-23930+031150FM-15+0400FAPH V0201301N003112200019N9999999N1+02301+02201999999ADDMA1101591999999MW1001OC100981REMMET056FAPH 030800Z AUTO 13006G19KT //// // ////// 23/22 Q1016;EQDQ01+000000PRSWM2
0116681900999992000010309004-23930+031150FM-15+0400FAPH V0201501N004112200019N9999999N1+02401+02201999999ADDMA1101591999999MW1001OC100931REMMET056FAPH 030900Z AUTO 15008G18KT //// // ////// 24/22 Q1016;EQDQ01+000000PRSWM2
0105681900999992000010310004-23930+031150FM-15+0400FAPH V0201301N002612200019N9999999N1+02401+02201999999ADDMA1101591999999MW1001REMMET053FAPH 031000Z AUTO 13005KT //// // ////// 24/22 Q1016;EQDQ01+000000PRSWM2
0105681900999992000010311004-23930+031150FM-15+0400FAPH V0201201N001512200019N9999999N1+02301+02201999999ADDMA1101491999999MW1001REMMET053FAPH 031100Z AUTO 12003KT //// // ////// 23/22 Q1015;EQDQ01+000000PRSWM2
0105681900999992000010312004-23930+031150FM-15+0400FAPH V0201501N002112200019N9999999N1+02401+02201999999ADDMA1101391999999MW1001REMMET053FAPH 031200Z AUTO 15004KT //// // ////// 24/22 Q1014;EQDQ01+000000PRSWM2
0110681900999992000010313004-23930+031150FM-15+0400FAPH V0201501N002612200019N9999999N1+02501+02401999999ADDMA1101391999999MW1001REMMET058FAPH 031300Z AUTO 15005KT //// // ////// 25/24 Q1014 RERA;EQDQ01+000000PRSWM2
0110681900999992000010402004-23930+031150FM-15+0400FAPH V0201601N003612200019N9999999N1+02101+01901999999ADDMA1101391999999MW1001REMMET058FAPH 040200Z AUTO 16007KT //// // ////// 21/19 Q1014 RERA;EQDQ01+000000PRSWM2
0105681900999992000010403004-23930+031150FM-15+0400FAPH V0201601N003612200019N9999999N1+02101+01901999999ADDMA1101491999999MW1001REMMET053FAPH 040300Z AUTO 16007KT //// // ////// 21/19 Q1015;EQDQ01+000000PRSWM2
0110681900999992000010405004-23930+031150FM-15+0400FAPH V0201601N003612200019N9999999N1+02201+02001999999ADDMA1101491999999MW1001REMMET058FAPH 040500Z AUTO 16007KT //// // ////// 22/20 Q1015 RERA;EQDQ01+000000PRSWM2
0110681900999992000010406004-23930+031150FM-15+0400FAPH V0201401N003612200019N9999999N1+02201+02001999999ADDMA1101591999999MW1001REMMET058FAPH 040600Z AUTO 14007KT //// // ////// 22/20 Q1016 RERA;EQDQ01+000000PRSWM2
0105681900999992000010407004-23930+031150FM-15+0400FAPH V0201501N004112200019N9999999N1+02301+02101999999ADDMA1101591999999MW1001REMMET053FAPH 040700Z AUTO 15008KT //// // ////// 23/21 Q1016;EQDQ01+000000PRSWM2
0116681900999992000010408004-23930+031150FM-15+0400FAPH V0201401N002612200019N9999999N1+02301+02201999999ADDMA1101591999999MW1001OC100931REMMET056FAPH 040800Z AUTO 14005G18KT //// // ////// 23/22 Q1016;EQDQ01+000000PRSWM2
0116681900999992000010409004-23930+031150FM-15+0400FAPH V0201401N003612200019N9999999N1+02301+02201999999ADDMA1101591999999MW1001OC100981REMMET056FAPH 040900Z AUTO 14007G19KT //// // ////// 23/22 Q1016;EQDQ01+000000PRSWM2
0105681900999992000010410004-23930+031150FM-15+0400FAPH V0201701N003112200019N9999999N1+02501+02201999999ADDMA1101591999999MW1001REMMET053FAPH 041000Z AUTO 17006KT //// // ////// 25/22 Q1016;EQDQ01+000000PRSWM2
0116681900999992000010412004-23930+031150FM-15+0400FAPH V0201301N004112200019N9999999N1+02501+02201999999ADDMA1101491999999MW1001OC101131REMMET056FAPH 041200Z AUTO 13008G22KT //// // ////// 25/22 Q1015;EQDQ01+000000PRSWM2
0105681900999992000010413004-23930+031150FM-15+0400FAPH V0201401N004612200019N9999999N1+02501+02201999999ADDMA1101391999999MW1001REMMET053FAPH 041300Z AUTO 14009KT //// // ////// 25/22 Q1014;EQDQ01+000000PRSWM2
0105681900999992000010502004-23930+031150FM-15+0400FAPH V0201401N001012200019N9999999N1+02101+02001999999ADDMA1101391999999MW1001REMMET053FAPH 050200Z AUTO 14002KT //// // ////// 21/20 Q1014;EQDQ01+000000PRSWM2
0105681900999992000010503004-23930+031150FM-15+0400FAPH V0201501N001512200019N9999999N1+02101+01901999999ADDMA1101391999999MW1001REMMET053FAPH 050300Z AUTO 15003KT //// // ////// 21/19 Q1014;EQDQ01+000000PRSWM2
0105681900999992000010504004-23930+031150FM-15+0400FAPH V0201401N001512200019N9999999N1+02101+01901999999ADDMA1101491999999MW1001REMMET053FAPH 050400Z AUTO 14003KT //// // ////// 21/19 Q1015;EQDQ01+000000PRSWM2
0114681900999992000010505004-23930+031150FM-15+0400FAPH V0201701N001512200019N9999999N1+02101+02001999999ADDMA1101491999999MW1001REMMET062FAPH 050500Z AUTO 17003KT //// // -RA ////// 21/20 Q1015 RERA;EQDQ01+000000PRSWM2
0110681900999992000010506004-23930+031150FM-15+0400FAPH V0201301N001012200019N9999999N1+02201+02001999999ADDMA1101491999999MW1001REMMET058FAPH 050600Z AUTO 13002KT //// // ////// 22/20 Q1015 RERA;EQDQ01+000000PRSWM2
0105681900999992000010507004-23930+031150FM-15+0400FAPH V0201701N001512200019N9999999N1+02201+02101999999ADDMA1101491999999MW1001REMMET053FAPH 050700Z AUTO 17003KT //// // ////// 22/21 Q1015;EQDQ01+000000PRSWM2
0105681900999992000010508004-23930+031150FM-15+0400FAPH V0201801N002112200019N9999999N1+02401+02201999999ADDMA1101491999999MW1001REMMET053FAPH 050800Z AUTO 18004KT //// // ////// 24/22 Q1015;EQDQ01+000000PRSWM2
0105681900999992000010510004-23930+031150FM-15+0400FAPH V0202001N001012200019N9999999N1+02701+02401999999ADDMA1101391999999MW1001REMMET053FAPH 051000Z AUTO 20002KT //// // ////// 27/24 Q1014;EQDQ01+000000PRSWM2
0105681900999992000010511004-23930+031150FM-15+0400FAPH V0203001N001012200019N9999999N1+02801+02401999999ADDMA1101291999999MW1001REMMET053FAPH 051100Z AUTO 30002KT //// // ////// 28/24 Q1013;EQDQ01+000000PRSWM2
0105681900999992000010512004-23930+031150FM-15+0400FAPH V0203601N001012200019N9999999N1+02901+02401999999ADDMA1101191999999MW1001REMMET053FAPH 051200Z AUTO 36002KT //// // ////// 29/24 Q1012;EQDQ01+000000PRSWM2
0105681900999992000010513004-23930+031150FM-15+0400FAPH V0200401N001512200019N9999999N1+03001+02301999999ADDMA1101081999999MW1001REMMET053FAPH 051300Z AUTO 04003KT //// // ////// 30/23 Q1011;EQDQ01+000000PRSWM2
0105681900999992000010602004-23930+031150FM-15+0400FAPH V0201801N000512200019N9999999N1+02301+02201999999ADDMA1101191999999MW1001REMMET053FAPH 060200Z AUTO 18001KT //// // ////// 23/22 Q1012;EQDQ01+000000PRSWM2
0105681900999992000010603004-23930+031150FM-15+0400FAPH V0201501N000512200019N9999999N1+02301+02201999999ADDMA1101081999999MW1001REMMET053FAPH 060300Z AUTO 15001KT //// // ////// 23/22 Q1011;EQDQ01+000000PRSWM2
0105681900999992000010604004-23930+031150FM-15+0400FAPH V0200801N000512200019N9999999N1+02401+02201999999ADDMA1101191999999MW1001REMMET053FAPH 060400Z AUTO 08001KT //// // ////// 24/22 Q1012;EQDQ01+000000PRSWM2
0105681900999992000010605004-23930+031150FM-15+0400FAPH V0203601N001512200019N9999999N1+02401+02201999999ADDMA1101191999999MW1001REMMET053FAPH 060500Z AUTO 36003KT //// // ////// 24/22 Q1012;EQDQ01+000000PRSWM2
0105681900999992000010606004-23930+031150FM-15+0400FAPH V0203401N001512200019N9999999N1+02501+02301999999ADDMA1101191999999MW1001REMMET053FAPH 060600Z AUTO 34003KT //// // ////// 25/23 Q1012;EQDQ01+000000PRSWM2
0105681900999992000010607004-23930+031150FM-15+0400FAPH V0203101N001512200019N9999999N1+02601+02401999999ADDMA1101191999999MW1001REMMET053FAPH 060700Z AUTO 31003KT //// // ////// 26/24 Q1012;EQDQ01+000000PRSWM2
0105681900999992000010608004-23930+031150FM-15+0400FAPH V0203301N002112200019N9999999N1+02801+02601999999ADDMA1101191999999MW1001REMMET053FAPH 060800Z AUTO 33004KT //// // ////// 28/26 Q1012;EQDQ01+000000PRSWM2
0105681900999992000010609004-23930+031150FM-15+0400FAPH V0203401N001012200019N9999999N1+03001+02501999999ADDMA1101081999999MW1001REMMET053FAPH 060900Z AUTO 34002KT //// // ////// 30/25 Q1011;EQDQ01+000000PRSWM2
0105681900999992000010610004-23930+031150FM-15+0400FAPH V0203001N002112200019N9999999N1+03101+02501999999ADDMA1101021999999MW1001REMMET053FAPH 061000Z AUTO 30004KT //// // ////// 31/25 Q1010;EQDQ01+000000PRSWM2
0105681900999992000010611004-23930+031150FM-15+0400FAPH V0203601N002612200019N9999999N1+03101+02401999999ADDMA1100911999999MW1001REMMET053FAPH 061100Z AUTO 36005KT //// // ////// 31/24 Q1009;EQDQ01+000000PRSWM2
0105681900999992000010612004-23930+031150FM-15+0400FAPH V0203401N002112200019N9999999N1+03101+02401999999ADDMA1100811999999MW1001REMMET053FAPH 061200Z AUTO 34004KT //// // ////// 31/24 Q1008;EQDQ01+000000PRSWM2
0105681900999992000010613004-23930+031150FM-15+0400FAPH V0200201N002612200019N9999999N1+03201+02401999999ADDMA1100711999999MW1001REMMET053FAPH 061300Z AUTO 02005KT //// // ////// 32/24 Q1007;EQDQ01+000000PRSWM2
0105681900999992000010702004-23930+031150FM-15+0400FAPH V0202101N001012200019N9999999N1+02301+02201999999ADDMA1100911999999MW1001REMMET053FAPH 070200Z AUTO 21002KT //// // ////// 23/22 Q1009;EQDQ01+000000PRSWM2
0105681900999992000010703004-23930+031150FM-15+0400FAPH V0201701N000512200019N9999999N1+02301+02101999999ADDMA1100911999999MW1001REMMET053FAPH 070300Z AUTO 17001KT //// // ////// 23/21 Q1009;EQDQ01+000000PRSWM2
0105681900999992000010704004-23930+031150FM-15+0400FAPH V0201401N000512200019N9999999N1+02301+02101999999ADDMA1100911999999MW1001REMMET053FAPH 070400Z AUTO 14001KT //// // ////// 23/21 Q1009;EQDQ01+000000PRSWM2
0105681900999992000010705004-23930+031150FM-15+0400FAPH V0200801N000512200019N9999999N1+02301+02201999999ADDMA1100911999999MW1001REMMET053FAPH 070500Z AUTO 08001KT //// // ////// 23/22 Q1009;EQDQ01+000000PRSWM2
0105681900999992000010706004-23930+031150FM-15+0400FAPH V0203401N000512200019N9999999N1+02401+02201999999ADDMA1100911999999MW1001REMMET053FAPH 070600Z AUTO 34001KT //// // ////// 24/22 Q1009;EQDQ01+000000PRSWM2
0105681900999992000010707004-23930+031150FM-15+0400FAPH V0200401N001512200019N9999999N1+02501+02301999999ADDMA1100911999999MW1001REMMET053FAPH 070700Z AUTO 04003KT //// // ////// 25/23 Q1009;EQDQ01+000000PRSWM2
0105681900999992000010708004-23930+031150FM-15+0400FAPH V0203001N001012200019N9999999N1+02601+02501999999ADDMA1100911999999MW1001REMMET053FAPH 070800Z AUTO 30002KT //// // ////// 26/25 Q1009;EQDQ01+000000PRSWM2
0105681900999992000010709004-23930+031150FM-15+0400FAPH V0203301N002112200019N9999999N1+02701+02501999999ADDMA1100911999999MW1001REMMET053FAPH 070900Z AUTO 33004KT //// // ////// 27/25 Q1009;EQDQ01+000000PRSWM2
0105681900999992000010710004-23930+031150FM-15+0400FAPH V0203001N001512200019N9999999N1+02801+02601999999ADDMA1100811999999MW1001REMMET053FAPH 071000Z AUTO 30003KT //// // ////// 28/26 Q1008;EQDQ01+000000PRSWM2
0105681900999992000010711004-23930+031150FM-15+0400FAPH V0203601N002612200019N9999999N1+03001+02501999999ADDMA1100711999999MW1001REMMET053FAPH 071100Z AUTO 36005KT //// // ////// 30/25 Q1007;EQDQ01+000000PRSWM2
0105681900999992000010712004-23930+031150FM-15+0400FAPH V0203201N001512200019N9999999N1+03101+02401999999ADDMA1100611999999MW1001REMMET053FAPH 071200Z AUTO 32003KT //// // ////// 31/24 Q1006;EQDQ01+000000PRSWM2
0105681900999992000010713004-23930+031150FM-15+0400FAPH V0203001N001512200019N9999999N1+03001+02401999999ADDMA1100511999999MW1001REMMET053FAPH 071300Z AUTO 30003KT //// // ////// 30/24 Q1005;EQDQ01+000000PRSWM2
0105681900999992000010802004-23930+031150FM-15+0400FAPH V0202401N000512200019N9999999N1+02401+02201999999ADDMA1100511999999MW1001REMMET053FAPH 080200Z AUTO 24001KT //// // ////// 24/22 Q1005;EQDQ01+000000PRSWM2
0105681900999992000010803004-23930+031150FM-15+0400FAPH V0203101N000512200019N9999999N1+02301+02201999999ADDMA1100511999999MW1001REMMET053FAPH 080300Z AUTO 31001KT //// // ////// 23/22 Q1005;EQDQ01+000000PRSWM2
0105681900999992000010804004-23930+031150FM-15+0400FAPH V0201901N001012200019N9999999N1+02301+02201999999ADDMA1100511999999MW1001REMMET053FAPH 080400Z AUTO 19002KT //// // ////// 23/22 Q1005;EQDQ01+000000PRSWM2
0105681900999992000010806004-23930+031150FM-15+0400FAPH V0200501N001012200019N9999999N1+02701+02601999999ADDMA1100611999999MW1001REMMET053FAPH 080600Z AUTO 05002KT //// // ////// 27/26 Q1006;EQDQ01+000000PRSWM2
0105681900999992000010807004-23930+031150FM-15+0400FAPH V0201801N001512200019N9999999N1+02901+02601999999ADDMA1100611999999MW1001REMMET053FAPH 080700Z AUTO 18003KT //// // ////// 29/26 Q1006;EQDQ01+000000PRSWM2
0105681900999992000010808004-23930+031150FM-15+0400FAPH V0201701N001012200019N9999999N1+03001+02601999999ADDMA1100611999999MW1001REMMET053FAPH 080800Z AUTO 17002KT //// // ////// 30/26 Q1006;EQDQ01+000000PRSWM2
0116681900999992000010809004-23930+031150FM-15+0400FAPH V0201501N002112200019N9999999N1+02901+02601999999ADDMA1100611999999MW1001OC100931REMMET056FAPH 080900Z AUTO 15004G18KT //// // ////// 29/26 Q1006;EQDQ01+000000PRSWM2
0109681900999992000010810004-23930+031150FM-15+0400FAPH V0201001N003112200019N9999999N1+02201+02001999999ADDMA1100711999999MW1001REMMET057FAPH 081000Z AUTO 10006KT //// // -RA ////// 22/20 Q1007;EQDQ01+000000PRSWM2
0110681900999992000010811004-23930+031150FM-15+0400FAPH V0209999C000012200019N9999999N1+02501+02301999999ADDMA1100811999999MW1001REMMET058FAPH 081100Z AUTO 00000KT //// // ////// 25/23 Q1008 RERA;EQDQ01+000000PRSWM2
0116681900999992000010812004-23930+031150FM-15+0400FAPH V0201201N005112200019N9999999N1+02501+02201999999ADDMA1100711999999MW1001OC101341REMMET056FAPH 081200Z AUTO 12010G26KT //// // ////// 25/22 Q1007;EQDQ01+000000PRSWM2
0116681900999992000010813004-23930+031150FM-15+0400FAPH V0201501N006212200019N9999999N1+02401+02101999999ADDMA1100711999999MW1001OC101341REMMET056FAPH 081300Z AUTO 15012G26KT //// // ////// 24/21 Q1007;EQDQ01+000000PRSWM2
0105681900999992000010902004-23930+031150FM-15+0400FAPH V0201501N002612200019N9999999N1+02001+01801999999ADDMA1100911999999MW1001REMMET053FAPH 090200Z AUTO 15005KT //// // ////// 20/18 Q1009;EQDQ01+000000PRSWM2
0105681900999992000010903004-23930+031150FM-15+0400FAPH V0201401N003112200019N9999999N1+02001+01801999999ADDMA1100911999999MW1001REMMET053FAPH 090300Z AUTO 14006KT //// // ////// 20/18 Q1009;EQDQ01+000000PRSWM2
0105681900999992000010904004-23930+031150FM-15+0400FAPH V0201401N003112200019N9999999N1+02001+01801999999ADDMA1101021999999MW1001REMMET053FAPH 090400Z AUTO 14006KT //// // ////// 20/18 Q1010;EQDQ01+000000PRSWM2
0105681900999992000010905004-23930+031150FM-15+0400FAPH V0201401N003112200019N9999999N1+02101+01801999999ADDMA1101021999999MW1001REMMET053FAPH 090500Z AUTO 14006KT //// // ////// 21/18 Q1010;EQDQ01+000000PRSWM2
0105681900999992000010907004-23930+031150FM-15+0400FAPH V0201601N004612200019N9999999N1+02301+02001999999ADDMA1101021999999MW1001REMMET053FAPH 090700Z AUTO 16009KT //// // ////// 23/20 Q1010;EQDQ01+000000PRSWM2
0105681900999992000010908004-23930+031150FM-15+0400FAPH V0201401N003612200019N9999999N1+02501+02001999999ADDMA1101021999999MW1001REMMET053FAPH 090800Z AUTO 14007KT //// // ////// 25/20 Q1010;EQDQ01+000000PRSWM2
0105681900999992000010910004-23930+031150FM-15+0400FAPH V0201401N004112200019N9999999N1+02601+02101999999ADDMA1100811999999MW1001REMMET053FAPH 091000Z AUTO 14008KT //// // ////// 26/21 Q1008;EQDQ01+000000PRSWM2
0105681900999992000010911004-23930+031150FM-15+0400FAPH V0201601N003612200019N9999999N1+02601+02101999999ADDMA1100811999999MW1001REMMET053FAPH 091100Z AUTO 16007KT //// // ////// 26/21 Q1008;EQDQ01+000000PRSWM2
0105681900999992000010912004-23930+031150FM-15+0400FAPH V0201401N004112200019N9999999N1+02701+02101999999ADDMA1100811999999MW1001REMMET053FAPH 091200Z AUTO 14008KT //// // ////// 27/21 Q1008;EQDQ01+000000PRSWM2
0105681900999992000010913004-23930+031150FM-15+0400FAPH V0201501N003612200019N9999999N1+02801+02101999999ADDMA1100711999999MW1001REMMET053FAPH 091300Z AUTO 15007KT //// // ////// 28/21 Q1007;EQDQ01+000000PRSWM2
0105681900999992000011002004-23930+031150FM-15+0400FAPH V0201501N001012200019N9999999N1+02101+02001999999ADDMA1100711999999MW1001REMMET053FAPH 100200Z AUTO 15002KT //// // ////// 21/20 Q1007;EQDQ01+000000PRSWM2
0105681900999992000011003004-23930+031150FM-15+0400FAPH V0201501N001012200019N9999999N1+02101+02001999999ADDMA1100711999999MW1001REMMET053FAPH 100300Z AUTO 15002KT //// // ////// 21/20 Q1007;EQDQ01+000000PRSWM2
0105681900999992000011004004-23930+031150FM-15+0400FAPH V0201501N001512200019N9999999N1+02101+02001999999ADDMA1100711999999MW1001REMMET053FAPH 100400Z AUTO 15003KT //// // ////// 21/20 Q1007;EQDQ01+000000PRSWM2
0105681900999992000011005004-23930+031150FM-15+0400FAPH V0201501N002612200019N9999999N1+02201+02001999999ADDMA1100811999999MW1001REMMET053FAPH 100500Z AUTO 15005KT //// // ////// 22/20 Q1008;EQDQ01+000000PRSWM2
0105681900999992000011006004-23930+031150FM-15+0400FAPH V0201601N002612200019N9999999N1+02301+02101999999ADDMA1100811999999MW1001REMMET053FAPH 100600Z AUTO 16005KT //// // ////// 23/21 Q1008;EQDQ01+000000PRSWM2
0105681900999992000011007004-23930+031150FM-15+0400FAPH V0201501N003112200019N9999999N1+02401+02201999999ADDMA1100811999999MW1001REMMET053FAPH 100700Z AUTO 15006KT //// // ////// 24/22 Q1008;EQDQ01+000000PRSWM2
0105681900999992000011009004-23930+031150FM-15+0400FAPH V0201701N002112200019N9999999N1+02601+02201999999ADDMA1100811999999MW1001REMMET053FAPH 100900Z AUTO 17004KT //// // ////// 26/22 Q1008;EQDQ01+000000PRSWM2
0105681900999992000011010004-23930+031150FM-15+0400FAPH V0200901N002112200019N9999999N1+02801+02301999999ADDMA1100711999999MW1001REMMET053FAPH 101000Z AUTO 09004KT //// // ////// 28/23 Q1007;EQDQ01+000000PRSWM2
0105681900999992000011011004-23930+031150FM-15+0400FAPH V0201601N001512200019N9999999N1+02801+02301999999ADDMA1100711999999MW1001REMMET053FAPH 101100Z AUTO 16003KT //// // ////// 28/23 Q1007;EQDQ01+000000PRSWM2
0105681900999992000011012004-23930+031150FM-15+0400FAPH V0201201N002112200019N9999999N1+02801+02301999999ADDMA1100611999999MW1001REMMET053FAPH 101200Z AUTO 12004KT //// // ////// 28/23 Q1006;EQDQ01+000000PRSWM2
0105681900999992000011013004-23930+031150FM-15+0400FAPH V0200801N002612200019N9999999N1+02901+02301999999ADDMA1100511999999MW1001REMMET053FAPH 101300Z AUTO 08005KT //// // ////// 29/23 Q1005;EQDQ01+000000PRSWM2
0105681900999992000011102004-23930+031150FM-15+0400FAPH V0201401N002112200019N9999999N1+02201+02101999999ADDMA1100911999999MW1001REMMET053FAPH 110200Z AUTO 14004KT //// // ////// 22/21 Q1009;EQDQ01+000000PRSWM2
0105681900999992000011103004-23930+031150FM-15+0400FAPH V0201501N001512200019N9999999N1+02201+02101999999ADDMA1100911999999MW1001REMMET053FAPH 110300Z AUTO 15003KT //// // ////// 22/21 Q1009;EQDQ01+000000PRSWM2
0105681900999992000011104004-23930+031150FM-15+0400FAPH V0201401N001512200019N9999999N1+02201+02101999999ADDMA1101021999999MW1001REMMET053FAPH 110400Z AUTO 14003KT //// // ////// 22/21 Q1010;EQDQ01+000000PRSWM2
0105681900999992000011105004-23930+031150FM-15+0400FAPH V0201501N002612200019N9999999N1+02301+02201999999ADDMA1101021999999MW1001REMMET053FAPH 110500Z AUTO 15005KT //// // ////// 23/22 Q1010;EQDQ01+000000PRSWM2
0105681900999992000011106004-23930+031150FM-15+0400FAPH V0201401N003612200019N9999999N1+02401+02201999999ADDMA1101021999999MW1001REMMET053FAPH 110600Z AUTO 14007KT //// // ////// 24/22 Q1010;EQDQ01+000000PRSWM2
0105681900999992000011107004-23930+031150FM-15+0400FAPH V0201501N003612200019N9999999N1+02501+02301999999ADDMA1101021999999MW1001REMMET053FAPH 110700Z AUTO 15007KT //// // ////// 25/23 Q1010;EQDQ01+000000PRSWM2
0105681900999992000011108004-23930+031150FM-15+0400FAPH V0201401N003612200019N9999999N1+02701+02201999999ADDMA1101021999999MW1001REMMET053FAPH 110800Z AUTO 14007KT //// // ////// 27/22 Q1010;EQDQ01+000000PRSWM2
0105681900999992000011109004-23930+031150FM-15+0400FAPH V0201101N002612200019N9999999N1+02801+02301999999ADDMA1101021999999MW1001REMMET053FAPH 110900Z AUTO 11005KT //// // ////// 28/23 Q1010;EQDQ01+000000PRSWM2
0105681900999992000011110004-23930+031150FM-15+0400FAPH V0201201N003112200019N9999999N1+02801+02201999999ADDMA1100911999999MW1001REMMET053FAPH 111000Z AUTO 12006KT //// // ////// 28/22 Q1009;EQDQ01+000000PRSWM2
0105681900999992000011111004-23930+031150FM-15+0400FAPH V0201401N004112200019N9999999N1+02901+02201999999ADDMA1100911999999MW1001REMMET053FAPH 111100Z AUTO 14008KT //// // ////// 29/22 Q1009;EQDQ01+000000PRSWM2
0105681900999992000011112004-23930+031150FM-15+0400FAPH V0201301N002112200019N9999999N1+03001+02001999999ADDMA1100811999999MW1001REMMET053FAPH 111200Z AUTO 13004KT //// // ////// 30/20 Q1008;EQDQ01+000000PRSWM2
0105681900999992000011113004-23930+031150FM-15+0400FAPH V0201201N003112200019N9999999N1+03101+02101999999ADDMA1100711999999MW1001REMMET053FAPH 111300Z AUTO 12006KT //// // ////// 31/21 Q1007;EQDQ01+000000PRSWM2
0105681900999992000011202004-23930+031150FM-15+0400FAPH V0201701N001012200019N9999999N1+02201+02001999999ADDMA1100911999999MW1001REMMET053FAPH 120200Z AUTO 17002KT //// // ////// 22/20 Q1009;EQDQ01+000000PRSWM2
0105681900999992000011204004-23930+031150FM-15+0400FAPH V0201401N001012200019N9999999N1+02201+02101999999ADDMA1100911999999MW1001REMMET053FAPH 120400Z AUTO 14002KT //// // ////// 22/21 Q1009;EQDQ01+000000PRSWM2
0105681900999992000011205004-23930+031150FM-15+0400FAPH V0201501N002612200019N9999999N1+02401+02201999999ADDMA1100911999999MW1001REMMET053FAPH 120500Z AUTO 15005KT //// // ////// 24/22 Q1009;EQDQ01+000000PRSWM2
0105681900999992000011206004-23930+031150FM-15+0400FAPH V0201601N001512200019N9999999N1+02501+02301999999ADDMA1100911999999MW1001REMMET053FAPH 120600Z AUTO 16003KT //// // ////// 25/23 Q1009;EQDQ01+000000PRSWM2
0105681900999992000011207004-23930+031150FM-15+0400FAPH V0200901N001012200019N9999999N1+02601+02301999999ADDMA1100911999999MW1001REMMET053FAPH 120700Z AUTO 09002KT //// // ////// 26/23 Q1009;EQDQ01+000000PRSWM2
0105681900999992000011208004-23930+031150FM-15+0400FAPH V0200101N001012200019N9999999N1+02701+02101999999ADDMA1100911999999MW1001REMMET053FAPH 120800Z AUTO 01002KT //// // ////// 27/21 Q1009;EQDQ01+000000PRSWM2
0105681900999992000011209004-23930+031150FM-15+0400FAPH V0202901N002112200019N9999999N1+02801+02101999999ADDMA1100811999999MW1001REMMET053FAPH 120900Z AUTO 29004KT //// // ////// 28/21 Q1008;EQDQ01+000000PRSWM2
0105681900999992000011210004-23930+031150FM-15+0400FAPH V0201001N001012200019N9999999N1+02901+02001999999ADDMA1100711999999MW1001REMMET053FAPH 121000Z AUTO 10002KT //// // ////// 29/20 Q1007;EQDQ01+000000PRSWM2
0105681900999992000011211004-23930+031150FM-15+0400FAPH V0200601N001512200019N9999999N1+03101+02001999999ADDMA1100611999999MW1001REMMET053FAPH 121100Z AUTO 06003KT //// // ////// 31/20 Q1006;EQDQ01+000000PRSWM2
0105681900999992000011212004-23930+031150FM-15+0400FAPH V0200601N002612200019N9999999N1+03101+02001999999ADDMA1100611999999MW1001REMMET053FAPH 121200Z AUTO 06005KT //// // ////// 31/20 Q1006;EQDQ01+000000PRSWM2
0105681900999992000011213004-23930+031150FM-15+0400FAPH V0200601N001512200019N9999999N1+03101+02001999999ADDMA1100511999999MW1001REMMET053FAPH 121300Z AUTO 06003KT //// // ////// 31/20 Q1005;EQDQ01+000000PRSWM2
0105681900999992000011302004-23930+031150FM-15+0400FAPH V0201401N004112200019N9999999N1+02101+01901999999ADDMA1101081999999MW1001REMMET053FAPH 130200Z AUTO 14008KT //// // ////// 21/19 Q1011;EQDQ01+000000PRSWM2
0105681900999992000011303004-23930+031150FM-15+0400FAPH V0201401N004612200019N9999999N1+02001+01801999999ADDMA1101081999999MW1001REMMET053FAPH 130300Z AUTO 14009KT //// // ////// 20/18 Q1011;EQDQ01+000000PRSWM2
0105681900999992000011304004-23930+031150FM-15+0400FAPH V0201501N004112200019N9999999N1+02101+01801999999ADDMA1101191999999MW1001REMMET053FAPH 130400Z AUTO 15008KT //// // ////// 21/18 Q1012;EQDQ01+000000PRSWM2
0116681900999992000011306004-23930+031150FM-15+0400FAPH V0201501N005712200019N9999999N1+02201+01801999999ADDMA1101391999999MW1001OC101181REMMET056FAPH 130600Z AUTO 15011G23KT //// // ////// 22/18 Q1014;EQDQ01+000000PRSWM2
0105681900999992000011307004-23930+031150FM-15+0400FAPH V0201501N006212200019N9999999N1+02301+01801999999ADDMA1101291999999MW1001REMMET053FAPH 130700Z AUTO 15012KT //// // ////// 23/18 Q1013;EQDQ01+000000PRSWM2
0105681900999992000011308004-23930+031150FM-15+0400FAPH V0201401N004112200019N9999999N1+02301+01801999999ADDMA1101291999999MW1001REMMET053FAPH 130800Z AUTO 14008KT //// // ////// 23/18 Q1013;EQDQ01+000000PRSWM2
0116681900999992000011309004-23930+031150FM-15+0400FAPH V0201501N005112200019N9999999N1+02601+01801999999ADDMA1101291999999MW1001OC101031REMMET056FAPH 130900Z AUTO 15010G20KT //// // ////// 26/18 Q1013;EQDQ01+000000PRSWM2
0115681900999992000011310004-23930+031150FM-15+0400FAPH V0201401N005112200019N9999999N1+02601+01801999999ADDMA1101291999999MW1001OC101231REMMET055FAPH 131000Z AUTO 14010G24KT //// // ///// 26/18 Q1013;EQDQ01+000000PRSWM2
0116681900999992000011311004-23930+031150FM-15+0400FAPH V0201301N005712200019N9999999N1+02601+01801999999ADDMA1101191999999MW1001OC101131REMMET056FAPH 131100Z AUTO 13011G22KT //// // ////// 26/18 Q1012;EQDQ01+000000PRSWM2
0116681900999992000011312004-23930+031150FM-15+0400FAPH V0201201N004612200019N9999999N1+02601+01801999999ADDMA1101191999999MW1001OC100981REMMET056FAPH 131200Z AUTO 12009G19KT //// // ////// 26/18 Q1012;EQDQ01+000000PRSWM2
0116681900999992000011313004-23930+031150FM-15+0400FAPH V0201301N004612200019N9999999N1+02601+01701999999ADDMA1101191999999MW1001OC101031REMMET056FAPH 131300Z AUTO 13009G20KT //// // ////// 26/17 Q1012;EQDQ01+000000PRSWM2
0110681900999992000011402004-23930+031150FM-15+0400FAPH V0201401N002612200019N9999999N1+01901+01501999999ADDMA1101291999999MW1001REMMET058FAPH 140200Z AUTO 14005KT //// // ////// 19/15 Q1013 RERA;EQDQ01+000000PRSWM2
0110681900999992000011403004-23930+031150FM-15+0400FAPH V0201401N003612200019N9999999N1+01901+01501999999ADDMA1101391999999MW1001REMMET058FAPH 140300Z AUTO 14007KT //// // ////// 19/15 Q1014 RERA;EQDQ01+000000PRSWM2
0110681900999992000011404004-23930+031150FM-15+0400FAPH V0201401N003612200019N9999999N1+02001+01501999999ADDMA1101391999999MW1001REMMET058FAPH 140400Z AUTO 14007KT //// // ////// 20/15 Q1014 RERA;EQDQ01+000000PRSWM2
0116681900999992000011405004-23930+031150FM-15+0400FAPH V0201601N003612200019N9999999N1+02001+01501999999ADDMA1101491999999MW1001OC100931REMMET056FAPH 140500Z AUTO 16007G18KT //// // ////// 20/15 Q1015;EQDQ01+000000PRSWM2
0116681900999992000011406004-23930+031150FM-15+0400FAPH V0201301N004612200019N9999999N1+02101+01701999999ADDMA1101491999999MW1001OC101341REMMET056FAPH 140600Z AUTO 13009G26KT //// // ////// 21/17 Q1015;EQDQ01+000000PRSWM2
0116681900999992000011407004-23930+031150FM-15+0400FAPH V0201501N005712200019N9999999N1+02301+01701999999ADDMA1101491999999MW1001OC101231REMMET056FAPH 140700Z AUTO 15011G24KT //// // ////// 23/17 Q1015;EQDQ01+000000PRSWM2
0116681900999992000011408004-23930+031150FM-15+0400FAPH V0201501N005112200019N9999999N1+02401+01801999999ADDMA1101491999999MW1001OC101031REMMET056FAPH 140800Z AUTO 15010G20KT //// // ////// 24/18 Q1015;EQDQ01+000000PRSWM2
0116681900999992000011409004-23930+031150FM-15+0400FAPH V0201501N004112200019N9999999N1+02301+01801999999ADDMA1101491999999MW1001OC101031REMMET056FAPH 140900Z AUTO 15008G20KT //// // ////// 23/18 Q1015;EQDQ01+000000PRSWM2
0116681900999992000011410004-23930+031150FM-15+0400FAPH V0201501N004612200019N9999999N1+02401+01801999999ADDMA1101391999999MW1001OC101031REMMET056FAPH 141000Z AUTO 15009G20KT //// // ////// 24/18 Q1014;EQDQ01+000000PRSWM2
0116681900999992000011411004-23930+031150FM-15+0400FAPH V0201401N004612200019N9999999N1+02501+01801999999ADDMA1101391999999MW1001OC101031REMMET056FAPH 141100Z AUTO 14009G20KT //// // ////// 25/18 Q1014;EQDQ01+000000PRSWM2
0116681900999992000011412004-23930+031150FM-15+0400FAPH V0201301N004112200019N9999999N1+02501+01801999999ADDMA1101291999999MW1001OC101081REMMET056FAPH 141200Z AUTO 13008G21KT //// // ////// 25/18 Q1013;EQDQ01+000000PRSWM2
0116681900999992000011413004-23930+031150FM-15+0400FAPH V0201301N004112200019N9999999N1+02501+01801999999ADDMA1101291999999MW1001OC101131REMMET056FAPH 141300Z AUTO 13008G22KT //// // ////// 25/18 Q1013;EQDQ01+000000PRSWM2
0105681900999992000011502004-23930+031150FM-15+0400FAPH V0201501N002112200019N9999999N1+01901+01601999999ADDMA1101291999999MW1001REMMET053FAPH 150200Z AUTO 15004KT //// // ////// 19/16 Q1013;EQDQ01+000000PRSWM2
0105681900999992000011503004-23930+031150FM-15+0400FAPH V0201501N002612200019N9999999N1+01901+01601999999ADDMA1101391999999MW1001REMMET053FAPH 150300Z AUTO 15005KT //// // ////// 19/16 Q1014;EQDQ01+000000PRSWM2
0105681900999992000011504004-23930+031150FM-15+0400FAPH V0201501N002612200019N9999999N1+01901+01601999999ADDMA1101391999999MW1001REMMET053FAPH 150400Z AUTO 15005KT //// // ////// 19/16 Q1014;EQDQ01+000000PRSWM2
0105681900999992000011505004-23930+031150FM-15+0400FAPH V0201301N003112200019N9999999N1+02001+01601999999ADDMA1101391999999MW1001REMMET053FAPH 150500Z AUTO 13006KT //// // ////// 20/16 Q1014;EQDQ01+000000PRSWM2
0105681900999992000011506004-23930+031150FM-15+0400FAPH V0201501N003612200019N9999999N1+02101+01701999999ADDMA1101391999999MW1001REMMET053FAPH 150600Z AUTO 15007KT //// // ////// 21/17 Q1014;EQDQ01+000000PRSWM2
0105681900999992000011508004-23930+031150FM-15+0400FAPH V0201501N004112200019N9999999N1+01901+01801999999ADDMA1101491999999MW1001REMMET053FAPH 150800Z AUTO 15008KT //// // ////// 19/18 Q1015;EQDQ01+000000PRSWM2
0105681900999992000011509004-23930+031150FM-15+0400FAPH V0201501N003612200019N9999999N1+02001+01901999999ADDMA1101391999999MW1001REMMET053FAPH 150900Z AUTO 15007KT //// // ////// 20/19 Q1014;EQDQ01+000000PRSWM2
0105681900999992000011510004-23930+031150FM-15+0400FAPH V0201501N003112200019N9999999N1+02201+01901999999ADDMA1101291999999MW1001REMMET053FAPH 151000Z AUTO 15006KT //// // ////// 22/19 Q1013;EQDQ01+000000PRSWM2
0105681900999992000011511004-23930+031150FM-15+0400FAPH V0201101N003612200019N9999999N1+02301+02001999999ADDMA1101291999999MW1001REMMET053FAPH 151100Z AUTO 11007KT //// // ////// 23/20 Q1013;EQDQ01+000000PRSWM2
0105681900999992000011512004-23930+031150FM-15+0400FAPH V0201501N002612200019N9999999N1+02301+02001999999ADDMA1101191999999MW1001REMMET053FAPH 151200Z AUTO 15005KT //// // ////// 23/20 Q1012;EQDQ01+000000PRSWM2
0105681900999992000011513004-23930+031150FM-15+0400FAPH V0201401N002612200019N9999999N1+02301+02001999999ADDMA1101191999999MW1001REMMET053FAPH 151300Z AUTO 14005KT //// // ////// 23/20 Q1012;EQDQ01+000000PRSWM2
0105681900999992000011602004-23930+031150FM-15+0400FAPH V0201301N001012200019N9999999N1+02001+01801999999ADDMA1101021999999MW1001REMMET053FAPH 160200Z AUTO 13002KT //// // ////// 20/18 Q1010;EQDQ01+000000PRSWM2
0110681900999992000011603004-23930+031150FM-15+0400FAPH V0201301N001512200019N9999999N1+02001+01801999999ADDMA1101021999999MW1001REMMET058FAPH 160300Z AUTO 13003KT //// // ////// 20/18 Q1010 RERA;EQDQ01+000000PRSWM2
0110681900999992000011604004-23930+031150FM-15+0400FAPH V0201401N001012200019N9999999N1+02001+01801999999ADDMA1101081999999MW1001REMMET058FAPH 160400Z AUTO 14002KT //// // ////// 20/18 Q1011 RERA;EQDQ01+000000PRSWM2
0105681900999992000011605004-23930+031150FM-15+0400FAPH V0201501N001512200019N9999999N1+02001+01801999999ADDMA1101081999999MW1001REMMET053FAPH 160500Z AUTO 15003KT //// // ////// 20/18 Q1011;EQDQ01+000000PRSWM2
0309681900999992000011606004-23930+031150SY-MT+040099999V0203401N001012200019N0150001N1+99999+99999101711ADDAA199000091GF102991021021008001001001KA1120N+00251MA1101081095461MD1310021+9999MW1001REMSYN086    AAXX  16064 68190 32565 23402 10035 20025 39546 40171 53002 82200 333 20025 82826;MET053FAPH 160600Z AUTO 14003KT //// // ////// 21/19 Q1011;EQDQ01+000353ATOT  Q02+000253ATOD  Q03+000000PRSWM2Q04  00002PRCP99
0105681900999992000011607004-23930+031150FM-15+0400FAPH V0201101N001512200019N9999999N1+02101+02001999999ADDMA1101081999999MW1001REMMET053FAPH 160700Z AUTO 11003KT //// // ////// 21/20 Q1011;EQDQ01+000000PRSWM2
0105681900999992000011608004-23930+031150FM-15+0400FAPH V0201201N001512200019N9999999N1+02301+02101999999ADDMA1101081999999MW1001REMMET053FAPH 160800Z AUTO 12003KT //// // ////// 23/21 Q1011;EQDQ01+000000PRSWM2
0110681900999992000011609004-23930+031150FM-15+0400FAPH V0201301N001012200019N9999999N1+02401+02201999999ADDMA1101021999999MW1001REMMET058FAPH 160900Z AUTO 13002KT //// // ////// 24/22 Q1010 RERA;EQDQ01+000000PRSWM2
0105681900999992000011610004-23930+031150FM-15+0400FAPH V0201501N001512200019N9999999N1+02401+02201999999ADDMA1101021999999MW1001REMMET053FAPH 161000Z AUTO 15003KT //// // ////// 24/22 Q1010;EQDQ01+000000PRSWM2
0110681900999992000011611004-23930+031150FM-15+0400FAPH V0201801N001512200019N9999999N1+02301+02101999999ADDMA1101021999999MW1001REMMET058FAPH 161100Z AUTO 18003KT //// // ////// 23/21 Q1010 RERA;EQDQ01+000000PRSWM2
0114681900999992000011612004-23930+031150FM-15+0400FAPH V0201501N001512200019N9999999N1+02301+02101999999ADDMA1100911999999MW1001REMMET062FAPH 161200Z AUTO 15003KT //// // -RA ////// 23/21 Q1009 RERA;EQDQ01+000000PRSWM2
0110681900999992000011613004-23930+031150FM-15+0400FAPH V0201801N002112200019N9999999N1+02301+02101999999ADDMA1100911999999MW1001REMMET058FAPH 161300Z AUTO 18004KT //// // ////// 23/21 Q1009 RERA;EQDQ01+000000PRSWM2
0114681900999992000011702004-23930+031150FM-15+0400FAPH V0201501N004112200019N9999999N1+01801+01601999999ADDMA1101191999999MW1001REMMET062FAPH 170200Z AUTO 15008KT //// // -RA ////// 18/16 Q1012 RERA;EQDQ01+000000PRSWM2
0114681900999992000011703004-23930+031150FM-15+0400FAPH V0201401N005112200019N9999999N1+01801+01601999999ADDMA1101191999999MW1001REMMET062FAPH 170300Z AUTO 14010KT //// // -RA ////// 18/16 Q1012 RERA;EQDQ01+000000PRSWM2
0114681900999992000011704004-23930+031150FM-15+0400FAPH V0201501N004612200019N9999999N1+01801+01601999999ADDMA1101291999999MW1001REMMET062FAPH 170400Z AUTO 15009KT //// // -RA ////// 18/16 Q1013 RERA;EQDQ01+000000PRSWM2
0125681900999992000011705004-23930+031150FM-15+0400FAPH V0201501N005112200019N9999999N1+01801+01601999999ADDMA1101291999999MW1001OC101031REMMET065FAPH 170500Z AUTO 15010G20KT //// // -RA ////// 18/16 Q1013 RERA;EQDQ01+000000PRSWM2
0110681900999992000011707004-23930+031150FM-15+0400FAPH V0201401N004112200019N9999999N1+01901+01701999999ADDMA1101291999999MW1001REMMET058FAPH 170700Z AUTO 14008KT //// // ////// 19/17 Q1013 RERA;EQDQ01+000000PRSWM2
0110681900999992000011708004-23930+031150FM-15+0400FAPH V0201401N003612200019N9999999N1+01901+01801999999ADDMA1101291999999MW1001REMMET058FAPH 170800Z AUTO 14007KT //// // ////// 19/18 Q1013 RERA;EQDQ01+000000PRSWM2
0110681900999992000011709004-23930+031150FM-15+0400FAPH V0201201N004112200019N9999999N1+01901+01801999999ADDMA1101291999999MW1001REMMET058FAPH 170900Z AUTO 12008KT //// // ////// 19/18 Q1013 RERA;EQDQ01+000000PRSWM2
0114681900999992000011710004-23930+031150FM-15+0400FAPH V0201601N003112200019N9999999N1+01901+01701999999ADDMA1101291999999MW1001REMMET062FAPH 171000Z AUTO 16006KT //// // -RA ////// 19/17 Q1013 RERA;EQDQ01+000000PRSWM2
0114681900999992000011711004-23930+031150FM-15+0400FAPH V0201401N002112200019N9999999N1+01901+01701999999ADDMA1101191999999MW1001REMMET062FAPH 171100Z AUTO 14004KT //// // -RA ////// 19/17 Q1012 RERA;EQDQ01+000000PRSWM2
0114681900999992000011712004-23930+031150FM-15+0400FAPH V0201501N003112200019N9999999N1+01901+01801999999ADDMA1101291999999MW1001REMMET062FAPH 171200Z AUTO 15006KT //// // -RA ////// 19/18 Q1013 RERA;EQDQ01+000000PRSWM2
0125681900999992000011713004-23930+031150FM-15+0400FAPH V0201501N003612200019N9999999N1+01901+01701999999ADDMA1101191999999MW1001OC101031REMMET065FAPH 171300Z AUTO 15007G20KT //// // -RA ////// 19/17 Q1012 RERA;EQDQ01+000000PRSWM2
0116681900999992000011802004-23930+031150FM-15+0400FAPH V0201501N006212200019N9999999N1+01801+01601999999ADDMA1101491999999MW1001OC101391REMMET056FAPH 180200Z AUTO 15012G27KT //// // ////// 18/16 Q1015;EQDQ01+000000PRSWM2
0116681900999992000011803004-23930+031150FM-15+0400FAPH V0201501N004612200019N9999999N1+01801+01601999999ADDMA1101591999999MW1001OC101081REMMET056FAPH 180300Z AUTO 15009G21KT //// // ////// 18/16 Q1016;EQDQ01+000000PRSWM2
0116681900999992000011804004-23930+031150FM-15+0400FAPH V0201501N004112200019N9999999N1+01801+01701999999ADDMA1101691999999MW1001OC101181REMMET056FAPH 180400Z AUTO 15008G23KT //// // ////// 18/17 Q1017;EQDQ01+000000PRSWM2
0116681900999992000011805004-23930+031150FM-15+0400FAPH V0201401N004112200019N9999999N1+01801+01601999999ADDMA1101691999999MW1001OC101031REMMET056FAPH 180500Z AUTO 14008G20KT //// // ////// 18/16 Q1017;EQDQ01+000000PRSWM2
0116681900999992000011806004-23930+031150FM-15+0400FAPH V0201401N005112200019N9999999N1+02001+01601999999ADDMA1101691999999MW1001OC101131REMMET056FAPH 180600Z AUTO 14010G22KT //// // ////// 20/16 Q1017;EQDQ01+000000PRSWM2
0116681900999992000011807004-23930+031150FM-15+0400FAPH V0201501N005712200019N9999999N1+02101+01601999999ADDMA1101691999999MW1001OC101181REMMET056FAPH 180700Z AUTO 15011G23KT //// // ////// 21/16 Q1017;EQDQ01+000000PRSWM2
0116681900999992000011808004-23930+031150FM-15+0400FAPH V0201501N005112200019N9999999N1+02101+01601999999ADDMA1101801999999MW1001OC101131REMMET056FAPH 180800Z AUTO 15010G22KT //// // ////// 21/16 Q1018;EQDQ01+000000PRSWM2
0116681900999992000011809004-23930+031150FM-15+0400FAPH V0201401N005112200019N9999999N1+02101+01601999999ADDMA1101801999999MW1001OC101231REMMET056FAPH 180900Z AUTO 14010G24KT //// // ////// 21/16 Q1018;EQDQ01+000000PRSWM2
0116681900999992000011810004-23930+031150FM-15+0400FAPH V0201401N004112200019N9999999N1+02101+01701999999ADDMA1101801999999MW1001OC100931REMMET056FAPH 181000Z AUTO 14008G18KT //// // ////// 21/17 Q1018;EQDQ01+000000PRSWM2
0116681900999992000011811004-23930+031150FM-15+0400FAPH V0201401N004612200019N9999999N1+02201+01701999999ADDMA1101801999999MW1001OC101231REMMET056FAPH 181100Z AUTO 14009G24KT //// // ////// 22/17 Q1018;EQDQ01+000000PRSWM2
0116681900999992000011812004-23930+031150FM-15+0400FAPH V0201301N003612200019N9999999N1+02201+01701999999ADDMA1101691999999MW1001OC100931REMMET056FAPH 181200Z AUTO 13007G18KT //// // ////// 22/17 Q1017;EQDQ01+000000PRSWM2
0116681900999992000011813004-23930+031150FM-15+0400FAPH V0201401N004612200019N9999999N1+02301+01601999999ADDMA1101591999999MW1001OC100981REMMET056FAPH 181300Z AUTO 14009G19KT //// // ////// 23/16 Q1016;EQDQ01+000000PRSWM2
0105681900999992000011902004-23930+031150FM-15+0400FAPH V0201501N002612200019N9999999N1+01601+01501999999ADDMA1101901999999MW1001REMMET053FAPH 190200Z AUTO 15005KT //// // ////// 16/15 Q1019;EQDQ01+000000PRSWM2
0105681900999992000011903004-23930+031150FM-15+0400FAPH V0201501N001512200019N9999999N1+01601+01401999999ADDMA1101901999999MW1001REMMET053FAPH 190300Z AUTO 15003KT //// // ////// 16/14 Q1019;EQDQ01+000000PRSWM2
0105681900999992000011904004-23930+031150FM-15+0400FAPH V0201701N002112200019N9999999N1+01601+01401999999ADDMA1102001999999MW1001REMMET053FAPH 190400Z AUTO 17004KT //// // ////// 16/14 Q1020;EQDQ01+000000PRSWM2
0105681900999992000011905004-23930+031150FM-15+0400FAPH V0201601N003112200019N9999999N1+01901+01401999999ADDMA1102101999999MW1001REMMET053FAPH 190500Z AUTO 16006KT //// // ////// 19/14 Q1021;EQDQ01+000000PRSWM2
0105681900999992000011907004-23930+031150FM-15+0400FAPH V0201501N004112200019N9999999N1+02301+01501999999ADDMA1102101999999MW1001REMMET053FAPH 190700Z AUTO 15008KT //// // ////// 23/15 Q1021;EQDQ01+000000PRSWM2
0105681900999992000011908004-23930+031150FM-15+0400FAPH V0201501N003612200019N9999999N1+02401+01501999999ADDMA1102101999999MW1001REMMET053FAPH 190800Z AUTO 15007KT //// // ////// 24/15 Q1021;EQDQ01+000000PRSWM2
0105681900999992000011909004-23930+031150FM-15+0400FAPH V0201501N004112200019N9999999N1+02401+01601999999ADDMA1102101999999MW1001REMMET053FAPH 190900Z AUTO 15008KT //// // ////// 24/16 Q1021;EQDQ01+000000PRSWM2
0105681900999992000011910004-23930+031150FM-15+0400FAPH V0201401N003612200019N9999999N1+02601+01601999999ADDMA1102001999999MW1001REMMET053FAPH 191000Z AUTO 14007KT //// // ////// 26/16 Q1020;EQDQ01+000000PRSWM2
0116681900999992000011911004-23930+031150FM-15+0400FAPH V0201401N003612200019N9999999N1+02601+01501999999ADDMA1101901999999MW1001OC100981REMMET056FAPH 191100Z AUTO 14007G19KT //// // ////// 26/15 Q1019;EQDQ01+000000PRSWM2
0105681900999992000011912004-23930+031150FM-15+0400FAPH V0201401N002612200019N9999999N1+02701+01501999999ADDMA1101901999999MW1001REMMET053FAPH 191200Z AUTO 14005KT //// // ////// 27/15 Q1019;EQDQ01+000000PRSWM2
0105681900999992000011913004-23930+031150FM-15+0400FAPH V0201601N003112200019N9999999N1+02701+01501999999ADDMA1101801999999MW1001REMMET053FAPH 191300Z AUTO 16006KT //// // ////// 27/15 Q1018;EQDQ01+000000PRSWM2
0105681900999992000012002004-23930+031150FM-15+0400FAPH V0201701N002112200019N9999999N1+01801+01601999999ADDMA1102001999999MW1001REMMET053FAPH 200200Z AUTO 17004KT //// // ////// 18/16 Q1020;EQDQ01+000000PRSWM2
0105681900999992000012004004-23930+031150FM-15+0400FAPH V0201501N001512200019N9999999N1+01801+01601999999ADDMA1102101999999MW1001REMMET053FAPH 200400Z AUTO 15003KT //// // ////// 18/16 Q1021;EQDQ01+000000PRSWM2
0105681900999992000012005004-23930+031150FM-15+0400FAPH V0201601N001512200019N9999999N1+02001+01801999999ADDMA1102201999999MW1001REMMET053FAPH 200500Z AUTO 16003KT //// // ////// 20/18 Q1022;EQDQ01+000000PRSWM2
0105681900999992000012006004-23930+031150FM-15+0400FAPH V0201501N003112200019N9999999N1+02201+01901999999ADDMA1102201999999MW1001REMMET053FAPH 200600Z AUTO 15006KT //// // ////// 22/19 Q1022;EQDQ01+000000PRSWM2
0105681900999992000012007004-23930+031150FM-15+0400FAPH V0201501N003612200019N9999999N1+02401+01801999999ADDMA1102201999999MW1001REMMET053FAPH 200700Z AUTO 15007KT //// // ////// 24/18 Q1022;EQDQ01+000000PRSWM2
0105681900999992000012008004-23930+031150FM-15+0400FAPH V0201301N003612200019N9999999N1+02501+01701999999ADDMA1102201999999MW1001REMMET053FAPH 200800Z AUTO 13007KT //// // ////// 25/17 Q1022;EQDQ01+000000PRSWM2
0105681900999992000012009004-23930+031150FM-15+0400FAPH V0201601N003612200019N9999999N1+02501+01701999999ADDMA1102101999999MW1001REMMET053FAPH 200900Z AUTO 16007KT //// // ////// 25/17 Q1021;EQDQ01+000000PRSWM2
0105681900999992000012010004-23930+031150FM-15+0400FAPH V0201601N002112200019N9999999N1+02501+01601999999ADDMA1102101999999MW1001REMMET053FAPH 201000Z AUTO 16004KT //// // ////// 25/16 Q1021;EQDQ01+000000PRSWM2
0105681900999992000012011004-23930+031150FM-15+0400FAPH V0201301N002612200019N9999999N1+02601+01601999999ADDMA1102001999999MW1001REMMET053FAPH 201100Z AUTO 13005KT //// // ////// 26/16 Q1020;EQDQ01+000000PRSWM2
0105681900999992000012012004-23930+031150FM-15+0400FAPH V0201301N002612200019N9999999N1+02701+01701999999ADDMA1101901999999MW1001REMMET053FAPH 201200Z AUTO 13005KT //// // ////// 27/17 Q1019;EQDQ01+000000PRSWM2
0105681900999992000012013004-23930+031150FM-15+0400FAPH V0201101N002112200019N9999999N1+02701+01601999999ADDMA1101901999999MW1001REMMET053FAPH 201300Z AUTO 11004KT //// // ////// 27/16 Q1019;EQDQ01+000000PRSWM2
0105681900999992000012102004-23930+031150FM-15+0400FAPH V0201701N001012200019N9999999N1+01801+01701999999ADDMA1101901999999MW1001REMMET053FAPH 210200Z AUTO 17002KT //// // ////// 18/17 Q1019;EQDQ01+000000PRSWM2
0105681900999992000012103004-23930+031150FM-15+0400FAPH V0202001N000512200019N9999999N1+01801+01601999999ADDMA1101901999999MW1001REMMET053FAPH 210300Z AUTO 20001KT //// // ////// 18/16 Q1019;EQDQ01+000000PRSWM2
0105681900999992000012104004-23930+031150FM-15+0400FAPH V0202001N001012200019N9999999N1+01901+01701999999ADDMA1102001999999MW1001REMMET053FAPH 210400Z AUTO 20002KT //// // ////// 19/17 Q1020;EQDQ01+000000PRSWM2
0105681900999992000012105004-23930+031150FM-15+0400FAPH V0202001N001012200019N9999999N1+01901+01801999999ADDMA1102001999999MW1001REMMET053FAPH 210500Z AUTO 20002KT //// // ////// 19/18 Q1020;EQDQ01+000000PRSWM2
0105681900999992000012106004-23930+031150FM-15+0400FAPH V0202201N001512200019N9999999N1+02001+01901999999ADDMA1102001999999MW1001REMMET053FAPH 210600Z AUTO 22003KT //// // ////// 20/19 Q1020;EQDQ01+000000PRSWM2
0105681900999992000012107004-23930+031150FM-15+0400FAPH V0201601N001012200019N9999999N1+02201+02001999999ADDMA1102001999999MW1001REMMET053FAPH 210700Z AUTO 16002KT //// // ////// 22/20 Q1020;EQDQ01+000000PRSWM2
0105681900999992000012108004-23930+031150FM-15+0400FAPH V0202301N001012200019N9999999N1+02301+02001999999ADDMA1102001999999MW1001REMMET053FAPH 210800Z AUTO 23002KT //// // ////// 23/20 Q1020;EQDQ01+000000PRSWM2
0105681900999992000012109004-23930+031150FM-15+0400FAPH V0200501N000512200019N9999999N1+02401+01901999999ADDMA1101901999999MW1001REMMET053FAPH 210900Z AUTO 05001KT //// // ////// 24/19 Q1019;EQDQ01+000000PRSWM2
0105681900999992000012110004-23930+031150FM-15+0400FAPH V0201301N001012200019N9999999N1+02601+01801999999ADDMA1101801999999MW1001REMMET053FAPH 211000Z AUTO 13002KT //// // ////// 26/18 Q1018;EQDQ01+000000PRSWM2
0105681900999992000012111004-23930+031150FM-15+0400FAPH V0200301N001012200019N9999999N1+02701+01701999999ADDMA1101691999999MW1001REMMET053FAPH 211100Z AUTO 03002KT //// // ////// 27/17 Q1017;EQDQ01+000000PRSWM2
0105681900999992000012112004-23930+031150FM-15+0400FAPH V0203301N001512200019N9999999N1+02901+01801999999ADDMA1101591999999MW1001REMMET053FAPH 211200Z AUTO 33003KT //// // ////// 29/18 Q1016;EQDQ01+000000PRSWM2
0105681900999992000012113004-23930+031150FM-15+0400FAPH V0200401N001512200019N9999999N1+02701+01701999999ADDMA1101591999999MW1001REMMET053FAPH 211300Z AUTO 04003KT //// // ////// 27/17 Q1016;EQDQ01+000000PRSWM2
0105681900999992000012202004-23930+031150FM-15+0400FAPH V0201101N000512200019N9999999N1+01601+01401999999ADDMA1101491999999MW1001REMMET053FAPH 220200Z AUTO 11001KT //// // ////// 16/14 Q1015;EQDQ01+000000PRSWM2
0105681900999992000012203004-23930+031150FM-15+0400FAPH V0203501N000512200019N9999999N1+01601+01401999999ADDMA1101491999999MW1001REMMET053FAPH 220300Z AUTO 35001KT //// // ////// 16/14 Q1015;EQDQ01+000000PRSWM2
0105681900999992000012204004-23930+031150FM-15+0400FAPH V0203501N000512200019N9999999N1+01601+01401999999ADDMA1101591999999MW1001REMMET053FAPH 220400Z AUTO 35001KT //// // ////// 16/14 Q1016;EQDQ01+000000PRSWM2
0105681900999992000012205004-23930+031150FM-15+0400FAPH V0200601N000512200019N9999999N1+02001+01801999999ADDMA1101691999999MW1001REMMET053FAPH 220500Z AUTO 06001KT //// // ////// 20/18 Q1017;EQDQ01+000000PRSWM2
0105681900999992000012206004-23930+031150FM-15+0400FAPH V0200501N001012200019N9999999N1+02201+02001999999ADDMA1101691999999MW1001REMMET053FAPH 220600Z AUTO 05002KT //// // ////// 22/20 Q1017;EQDQ01+000000PRSWM2
0105681900999992000012207004-23930+031150FM-15+0400FAPH V0203301N002112200019N9999999N1+02201+02001999999ADDMA1101691999999MW1001REMMET053FAPH 220700Z AUTO 33004KT //// // ////// 22/20 Q1017;EQDQ01+000000PRSWM2
0105681900999992000012208004-23930+031150FM-15+0400FAPH V0203401N002112200019N9999999N1+02301+02001999999ADDMA1101691999999MW1001REMMET053FAPH 220800Z AUTO 34004KT //// // ////// 23/20 Q1017;EQDQ01+000000PRSWM2
0105681900999992000012209004-23930+031150FM-15+0400FAPH V0203401N002112200019N9999999N1+02501+02001999999ADDMA1101591999999MW1001REMMET053FAPH 220900Z AUTO 34004KT //// // ////// 25/20 Q1016;EQDQ01+000000PRSWM2
0105681900999992000012210004-23930+031150FM-15+0400FAPH V0203201N002112200019N9999999N1+02701+02001999999ADDMA1101491999999MW1001REMMET053FAPH 221000Z AUTO 32004KT //// // ////// 27/20 Q1015;EQDQ01+000000PRSWM2
0105681900999992000012211004-23930+031150FM-15+0400FAPH V0200101N002112200019N9999999N1+02701+01801999999ADDMA1101391999999MW1001REMMET053FAPH 221100Z AUTO 01004KT //// // ////// 27/18 Q1014;EQDQ01+000000PRSWM2
0105681900999992000012212004-23930+031150FM-15+0400FAPH V0200201N001512200019N9999999N1+02901+01901999999ADDMA1101291999999MW1001REMMET053FAPH 221200Z AUTO 02003KT //// // ////// 29/19 Q1013;EQDQ01+000000PRSWM2
0105681900999992000012213004-23930+031150FM-15+0400FAPH V0203501N002112200019N9999999N1+02901+01901999999ADDMA1101291999999MW1001REMMET053FAPH 221300Z AUTO 35004KT //// // ////// 29/19 Q1013;EQDQ01+000000PRSWM2
0105681900999992000012303004-23930+031150FM-15+0400FAPH V0201301N000512200019N9999999N1+01701+01601999999ADDMA1101491999999MW1001REMMET053FAPH 230300Z AUTO 13001KT //// // ////// 17/16 Q1015;EQDQ01+000000PRSWM2
0105681900999992000012304004-23930+031150FM-15+0400FAPH V0200601N000512200019N9999999N1+01801+01601999999ADDMA1101591999999MW1001REMMET053FAPH 230400Z AUTO 06001KT //// // ////// 18/16 Q1016;EQDQ01+000000PRSWM2
0105681900999992000012305004-23930+031150FM-15+0400FAPH V0201301N001512200019N9999999N1+02001+01801999999ADDMA1101591999999MW1001REMMET053FAPH 230500Z AUTO 13003KT //// // ////// 20/18 Q1016;EQDQ01+000000PRSWM2
0105681900999992000012306004-23930+031150FM-15+0400FAPH V0201401N001512200019N9999999N1+02101+01901999999ADDMA1101691999999MW1001REMMET053FAPH 230600Z AUTO 14003KT //// // ////// 21/19 Q1017;EQDQ01+000000PRSWM2
0105681900999992000012307004-23930+031150FM-15+0400FAPH V0201201N002112200019N9999999N1+02301+02201999999ADDMA1101691999999MW1001REMMET053FAPH 230700Z AUTO 12004KT //// // ////// 23/22 Q1017;EQDQ01+000000PRSWM2
0105681900999992000012308004-23930+031150FM-15+0400FAPH V0201101N001512200019N9999999N1+02401+02101999999ADDMA1101691999999MW1001REMMET053FAPH 230800Z AUTO 11003KT //// // ////// 24/21 Q1017;EQDQ01+000000PRSWM2
0105681900999992000012309004-23930+031150FM-15+0400FAPH V0201401N001512200019N9999999N1+02601+02201999999ADDMA1101691999999MW1001REMMET053FAPH 230900Z AUTO 14003KT //// // ////// 26/22 Q1017;EQDQ01+000000PRSWM2
0105681900999992000012310004-23930+031150FM-15+0400FAPH V0201401N002612200019N9999999N1+02701+02101999999ADDMA1101591999999MW1001REMMET053FAPH 231000Z AUTO 14005KT //// // ////// 27/21 Q1016;EQDQ01+000000PRSWM2
0105681900999992000012311004-23930+031150FM-15+0400FAPH V0201301N002112200019N9999999N1+02801+02001999999ADDMA1101591999999MW1001REMMET053FAPH 231100Z AUTO 13004KT //// // ////// 28/20 Q1016;EQDQ01+000000PRSWM2
0105681900999992000012313004-23930+031150FM-15+0400FAPH V0200801N002612200019N9999999N1+02801+01901999999ADDMA1101391999999MW1001REMMET053FAPH 231300Z AUTO 08005KT //// // ////// 28/19 Q1014;EQDQ01+000000PRSWM2
0105681900999992000012402004-23930+031150FM-15+0400FAPH V0201301N000512200019N9999999N1+01901+01701999999ADDMA1101591999999MW1001REMMET053FAPH 240200Z AUTO 13001KT //// // ////// 19/17 Q1016;EQDQ01+000000PRSWM2
0105681900999992000012403004-23930+031150FM-15+0400FAPH V0201001N000512200019N9999999N1+01801+01601999999ADDMA1101591999999MW1001REMMET053FAPH 240300Z AUTO 10001KT //// // ////// 18/16 Q1016;EQDQ01+000000PRSWM2
0105681900999992000012404004-23930+031150FM-15+0400FAPH V0201701N000512200019N9999999N1+01701+01601999999ADDMA1101691999999MW1001REMMET053FAPH 240400Z AUTO 17001KT //// // ////// 17/16 Q1017;EQDQ01+000000PRSWM2
0105681900999992000012405004-23930+031150FM-15+0400FAPH V0201601N002112200019N9999999N1+02101+01901999999ADDMA1101691999999MW1001REMMET053FAPH 240500Z AUTO 16004KT //// // ////// 21/19 Q1017;EQDQ01+000000PRSWM2
0105681900999992000012406004-23930+031150FM-15+0400FAPH V0201401N002612200019N9999999N1+02301+02001999999ADDMA1101801999999MW1001REMMET053FAPH 240600Z AUTO 14005KT //// // ////// 23/20 Q1018;EQDQ01+000000PRSWM2
0105681900999992000012407004-23930+031150FM-15+0400FAPH V0201401N002112200019N9999999N1+02401+01801999999ADDMA1101801999999MW1001REMMET053FAPH 240700Z AUTO 14004KT //// // ////// 24/18 Q1018;EQDQ01+000000PRSWM2
0105681900999992000012408004-23930+031150FM-15+0400FAPH V0200801N002112200019N9999999N1+02501+02001999999ADDMA1101691999999MW1001REMMET053FAPH 240800Z AUTO 08004KT //// // ////// 25/20 Q1017;EQDQ01+000000PRSWM2
0105681900999992000012409004-23930+031150FM-15+0400FAPH V0201201N001512200019N9999999N1+02601+02001999999ADDMA1101591999999MW1001REMMET053FAPH 240900Z AUTO 12003KT //// // ////// 26/20 Q1016;EQDQ01+000000PRSWM2
0105681900999992000012410004-23930+031150FM-15+0400FAPH V0200401N001512200019N9999999N1+02701+02001999999ADDMA1101591999999MW1001REMMET053FAPH 241000Z AUTO 04003KT //// // ////// 27/20 Q1016;EQDQ01+000000PRSWM2
0105681900999992000012411004-23930+031150FM-15+0400FAPH V0200701N003112200019N9999999N1+02801+01901999999ADDMA1101491999999MW1001REMMET053FAPH 241100Z AUTO 07006KT //// // ////// 28/19 Q1015;EQDQ01+000000PRSWM2
0105681900999992000012412004-23930+031150FM-15+0400FAPH V0201001N002612200019N9999999N1+02801+01801999999ADDMA1101391999999MW1001REMMET053FAPH 241200Z AUTO 10005KT //// // ////// 28/18 Q1014;EQDQ01+000000PRSWM2
0105681900999992000012502004-23930+031150FM-15+0400FAPH V0201801N000512200019N9999999N1+01701+01601999999ADDMA1101491999999MW1001REMMET053FAPH 250200Z AUTO 18001KT //// // ////// 17/16 Q1015;EQDQ01+000000PRSWM2
0105681900999992000012503004-23930+031150FM-15+0400FAPH V0202401N001012200019N9999999N1+01701+01601999999ADDMA1101491999999MW1001REMMET053FAPH 250300Z AUTO 24002KT //// // ////// 17/16 Q1015;EQDQ01+000000PRSWM2
0105681900999992000012504004-23930+031150FM-15+0400FAPH V0203201N000512200019N9999999N1+01701+01601999999ADDMA1101591999999MW1001REMMET053FAPH 250400Z AUTO 32001KT //// // ////// 17/16 Q1016;EQDQ01+000000PRSWM2
0105681900999992000012505004-23930+031150FM-15+0400FAPH V0202501N000512200019N9999999N1+02001+01801999999ADDMA1101591999999MW1001REMMET053FAPH 250500Z AUTO 25001KT //// // ////// 20/18 Q1016;EQDQ01+000000PRSWM2
0105681900999992000012506004-23930+031150FM-15+0400FAPH V0202401N001012200019N9999999N1+02201+02001999999ADDMA1101591999999MW1001REMMET053FAPH 250600Z AUTO 24002KT //// // ////// 22/20 Q1016;EQDQ01+000000PRSWM2
0105681900999992000012507004-23930+031150FM-15+0400FAPH V0203101N001012200019N9999999N1+02501+02001999999ADDMA1101591999999MW1001REMMET053FAPH 250700Z AUTO 31002KT //// // ////// 25/20 Q1016;EQDQ01+000000PRSWM2
0105681900999992000012508004-23930+031150FM-15+0400FAPH V0203201N001512200019N9999999N1+02601+02001999999ADDMA1101491999999MW1001REMMET053FAPH 250800Z AUTO 32003KT //// // ////// 26/20 Q1015;EQDQ01+000000PRSWM2
0105681900999992000012509004-23930+031150FM-15+0400FAPH V0203101N002112200019N9999999N1+02701+02001999999ADDMA1101491999999MW1001REMMET053FAPH 250900Z AUTO 31004KT //// // ////// 27/20 Q1015;EQDQ01+000000PRSWM2
0105681900999992000012510004-23930+031150FM-15+0400FAPH V0203101N002112200019N9999999N1+02801+02001999999ADDMA1101391999999MW1001REMMET053FAPH 251000Z AUTO 31004KT //// // ////// 28/20 Q1014;EQDQ01+000000PRSWM2
0105681900999992000012511004-23930+031150FM-15+0400FAPH V0203501N003612200019N9999999N1+02801+02001999999ADDMA1101291999999MW1001REMMET053FAPH 251100Z AUTO 35007KT //// // ////// 28/20 Q1013;EQDQ01+000000PRSWM2
0105681900999992000012512004-23930+031150FM-15+0400FAPH V0203101N001512200019N9999999N1+02901+02001999999ADDMA1101191999999MW1001REMMET053FAPH 251200Z AUTO 31003KT //// // ////// 29/20 Q1012;EQDQ01+000000PRSWM2
0105681900999992000012513004-23930+031150FM-15+0400FAPH V0203401N003112200019N9999999N1+02901+01901999999ADDMA1101081999999MW1001REMMET053FAPH 251300Z AUTO 34006KT //// // ////// 29/19 Q1011;EQDQ01+000000PRSWM2
0105681900999992000012602004-23930+031150FM-15+0400FAPH V0200401N000512200019N9999999N1+01901+01801999999ADDMA1101081999999MW1001REMMET053FAPH 260200Z AUTO 04001KT //// // ////// 19/18 Q1011;EQDQ01+000000PRSWM2
0105681900999992000012603004-23930+031150FM-15+0400FAPH V0200701N000512200019N9999999N1+01901+01801999999ADDMA1101081999999MW1001REMMET053FAPH 260300Z AUTO 07001KT //// // ////// 19/18 Q1011;EQDQ01+000000PRSWM2
0105681900999992000012604004-23930+031150FM-15+0400FAPH V0200101N000512200019N9999999N1+02001+01801999999ADDMA1101191999999MW1001REMMET053FAPH 260400Z AUTO 01001KT //// // ////// 20/18 Q1012;EQDQ01+000000PRSWM2
0105681900999992000012605004-23930+031150FM-15+0400FAPH V0200201N000512200019N9999999N1+02201+02001999999ADDMA1101291999999MW1001REMMET053FAPH 260500Z AUTO 02001KT //// // ////// 22/20 Q1013;EQDQ01+000000PRSWM2
0105681900999992000012606004-23930+031150FM-15+0400FAPH V0200601N001512200019N9999999N1+02501+02101999999ADDMA1101291999999MW1001REMMET053FAPH 260600Z AUTO 06003KT //// // ////// 25/21 Q1013;EQDQ01+000000PRSWM2
0105681900999992000012607004-23930+031150FM-15+0400FAPH V0200601N002112200019N9999999N1+02701+02101999999ADDMA1101291999999MW1001REMMET053FAPH 260700Z AUTO 06004KT //// // ////// 27/21 Q1013;EQDQ01+000000PRSWM2
0105681900999992000012608004-23930+031150FM-15+0400FAPH V0203301N001512200019N9999999N1+02901+02101999999ADDMA1101291999999MW1001REMMET053FAPH 260800Z AUTO 33003KT //// // ////// 29/21 Q1013;EQDQ01+000000PRSWM2
0105681900999992000012609004-23930+031150FM-15+0400FAPH V0203301N002612200019N9999999N1+03001+02001999999ADDMA1101191999999MW1001REMMET053FAPH 260900Z AUTO 33005KT //// // ////// 30/20 Q1012;EQDQ01+000000PRSWM2
0105681900999992000012610004-23930+031150FM-15+0400FAPH V0203201N001512200019N9999999N1+03101+02001999999ADDMA1101191999999MW1001REMMET053FAPH 261000Z AUTO 32003KT //// // ////// 31/20 Q1012;EQDQ01+000000PRSWM2
0105681900999992000012611004-23930+031150FM-15+0400FAPH V0203301N002612200019N9999999N1+03201+02001999999ADDMA1101081999999MW1001REMMET053FAPH 261100Z AUTO 33005KT //// // ////// 32/20 Q1011;EQDQ01+000000PRSWM2
0105681900999992000012612004-23930+031150FM-15+0400FAPH V0203601N001012200019N9999999N1+03201+02001999999ADDMA1101021999999MW1001REMMET053FAPH 261200Z AUTO 36002KT //// // ////// 32/20 Q1010;EQDQ01+000000PRSWM2
0105681900999992000012613004-23930+031150FM-15+0400FAPH V0200801N002112200019N9999999N1+03201+02001999999ADDMA1100911999999MW1001REMMET053FAPH 261300Z AUTO 08004KT //// // ////// 32/20 Q1009;EQDQ01+000000PRSWM2
0105681900999992000012707004-23930+031150FM-15+0400FAPH V0201301N002112200019N9999999N1+02501+02301999999ADDMA1101191999999MW1001REMMET053FAPH 270700Z AUTO 13004KT //// // ////// 25/23 Q1012;EQDQ01+000000PRSWM2
0105681900999992000012708004-23930+031150FM-15+0400FAPH V0201601N001512200019N9999999N1+02701+02301999999ADDMA1101191999999MW1001REMMET053FAPH 270800Z AUTO 16003KT //// // ////// 27/23 Q1012;EQDQ01+000000PRSWM2
0105681900999992000012710004-23930+031150FM-15+0400FAPH V0200901N001512200019N9999999N1+02901+02301999999ADDMA1101021999999MW1001REMMET053FAPH 271000Z AUTO 09003KT //// // ////// 29/23 Q1010;EQDQ01+000000PRSWM2
0105681900999992000012711004-23930+031150FM-15+0400FAPH V0201601N002612200019N9999999N1+03001+02301999999ADDMA1100911999999MW1001REMMET053FAPH 271100Z AUTO 16005KT //// // ////// 30/23 Q1009;EQDQ01+000000PRSWM2
0105681900999992000012713004-23930+031150FM-15+0400FAPH V0201301N001512200019N9999999N1+02801+02301999999ADDMA1100811999999MW1001REMMET053FAPH 271300Z AUTO 13003KT //// // ////// 28/23 Q1008;EQDQ01+000000PRSWM2
0110681900999992000012802004-23930+031150FM-15+0400FAPH V0200301N002112200019N9999999N1+02201+02001999999ADDMA1100711999999MW1001REMMET058FAPH 280200Z AUTO 03004KT //// // ////// 22/20 Q1007 RERA;EQDQ01+000000PRSWM2
0110681900999992000012803004-23930+031150FM-15+0400FAPH V0200301N001012200019N9999999N1+02101+01901999999ADDMA1100611999999MW1001REMMET058FAPH 280300Z AUTO 03002KT //// // ////// 21/19 Q1006 RERA;EQDQ01+000000PRSWM2
0105681900999992000012805004-23930+031150FM-15+0400FAPH V0203501N001512200019N9999999N1+02101+02001999999ADDMA1100811999999MW1001REMMET053FAPH 280500Z AUTO 35003KT //// // ////// 21/20 Q1008;EQDQ01+000000PRSWM2
0105681900999992000012807004-23930+031150FM-15+0400FAPH V0203301N003112200019N9999999N1+02301+02201999999ADDMA1100711999999MW1001REMMET053FAPH 280700Z AUTO 33006KT //// // ////// 23/22 Q1007;EQDQ01+000000PRSWM2
0105681900999992000012808004-23930+031150FM-15+0400FAPH V0203301N003612200019N9999999N1+02501+02301999999ADDMA1100711999999MW1001REMMET053FAPH 280800Z AUTO 33007KT //// // ////// 25/23 Q1007;EQDQ01+000000PRSWM2
0105681900999992000012809004-23930+031150FM-15+0400FAPH V0203401N002612200019N9999999N1+02601+02401999999ADDMA1100611999999MW1001REMMET053FAPH 280900Z AUTO 34005KT //// // ////// 26/24 Q1006;EQDQ01+000000PRSWM2
0105681900999992000012810004-23930+031150FM-15+0400FAPH V0203201N002612200019N9999999N1+02701+02501999999ADDMA1100511999999MW1001REMMET053FAPH 281000Z AUTO 32005KT //// // ////// 27/25 Q1005;EQDQ01+000000PRSWM2
0105681900999992000012811004-23930+031150FM-15+0400FAPH V0203401N003112200019N9999999N1+02801+02501999999ADDMA1100411999999MW1001REMMET053FAPH 281100Z AUTO 34006KT //// // ////// 28/25 Q1004;EQDQ01+000000PRSWM2
0105681900999992000012812004-23930+031150FM-15+0400FAPH V0203301N002112200019N9999999N1+03001+02501999999ADDMA1100311999999MW1001REMMET053FAPH 281200Z AUTO 33004KT //// // ////// 30/25 Q1003;EQDQ01+000000PRSWM2
0105681900999992000012813004-23930+031150FM-15+0400FAPH V0203401N003112200019N9999999N1+03101+02501999999ADDMA1100201999999MW1001REMMET053FAPH 281300Z AUTO 34006KT //// // ////// 31/25 Q1002;EQDQ01+000000PRSWM2
0105681900999992000012902004-23930+031150FM-15+0400FAPH V0201401N002612200019N9999999N1+02301+02201999999ADDMA1100411999999MW1001REMMET053FAPH 290200Z AUTO 14005KT //// // ////// 23/22 Q1004;EQDQ01+000000PRSWM2
0105681900999992000012903004-23930+031150FM-15+0400FAPH V0201201N003612200019N9999999N1+02301+02101999999ADDMA1100511999999MW1001REMMET053FAPH 290300Z AUTO 12007KT //// // ////// 23/21 Q1005;EQDQ01+000000PRSWM2
0105681900999992000012904004-23930+031150FM-15+0400FAPH V0201401N002612200019N9999999N1+02301+02101999999ADDMA1100611999999MW1001REMMET053FAPH 290400Z AUTO 14005KT //// // ////// 23/21 Q1006;EQDQ01+000000PRSWM2
0105681900999992000012905004-23930+031150FM-15+0400FAPH V0201401N002112200019N9999999N1+02301+02201999999ADDMA1100711999999MW1001REMMET053FAPH 290500Z AUTO 14004KT //// // ////// 23/22 Q1007;EQDQ01+000000PRSWM2
0105681900999992000012906004-23930+031150FM-15+0400FAPH V0201301N002612200019N9999999N1+02501+02301999999ADDMA1100711999999MW1001REMMET053FAPH 290600Z AUTO 13005KT //// // ////// 25/23 Q1007;EQDQ01+000000PRSWM2
0105681900999992000012907004-23930+031150FM-15+0400FAPH V0201001N001512200019N9999999N1+02601+02401999999ADDMA1100711999999MW1001REMMET053FAPH 290700Z AUTO 10003KT //// // ////// 26/24 Q1007;EQDQ01+000000PRSWM2
0105681900999992000012908004-23930+031150FM-15+0400FAPH V0201101N002112200019N9999999N1+02801+02401999999ADDMA1100711999999MW1001REMMET053FAPH 290800Z AUTO 11004KT //// // ////// 28/24 Q1007;EQDQ01+000000PRSWM2
0105681900999992000012909004-23930+031150FM-15+0400FAPH V0200801N002612200019N9999999N1+02801+02401999999ADDMA1100711999999MW1001REMMET053FAPH 290900Z AUTO 08005KT //// // ////// 28/24 Q1007;EQDQ01+000000PRSWM2
0105681900999992000012910004-23930+031150FM-15+0400FAPH V0200801N002612200019N9999999N1+02901+02401999999ADDMA1100611999999MW1001REMMET053FAPH 291000Z AUTO 08005KT //// // ////// 29/24 Q1006;EQDQ01+000000PRSWM2
0105681900999992000012911004-23930+031150FM-15+0400FAPH V0200901N002612200019N9999999N1+02901+02401999999ADDMA1100611999999MW1001REMMET053FAPH 291100Z AUTO 09005KT //// // ////// 29/24 Q1006;EQDQ01+000000PRSWM2
0105681900999992000012912004-23930+031150FM-15+0400FAPH V0200801N002612200019N9999999N1+03101+02401999999ADDMA1100611999999MW1001REMMET053FAPH 291200Z AUTO 08005KT //// // ////// 31/24 Q1006;EQDQ01+000000PRSWM2
0105681900999992000012913004-23930+031150FM-15+0400FAPH V0201001N002112200019N9999999N1+03101+02401999999ADDMA1100511999999MW1001REMMET053FAPH 291300Z AUTO 10004KT //// // ////// 31/24 Q1005;EQDQ01+000000PRSWM2
0105681900999992000013002004-23930+031150FM-15+0400FAPH V0201401N002112200019N9999999N1+02301+02101999999ADDMA1101081999999MW1001REMMET053FAPH 300200Z AUTO 14004KT //// // ////// 23/21 Q1011;EQDQ01+000000PRSWM2
0105681900999992000013003004-23930+031150FM-15+0400FAPH V0201501N002112200019N9999999N1+02201+02101999999ADDMA1101081999999MW1001REMMET053FAPH 300300Z AUTO 15004KT //// // ////// 22/21 Q1011;EQDQ01+000000PRSWM2
0105681900999992000013004004-23930+031150FM-15+0400FAPH V0201301N001012200019N9999999N1+02201+02101999999ADDMA1101191999999MW1001REMMET053FAPH 300400Z AUTO 13002KT //// // ////// 22/21 Q1012;EQDQ01+000000PRSWM2
0105681900999992000013005004-23930+031150FM-15+0400FAPH V0201301N002112200019N9999999N1+02301+02101999999ADDMA1101191999999MW1001REMMET053FAPH 300500Z AUTO 13004KT //// // ////// 23/21 Q1012;EQDQ01+000000PRSWM2
0105681900999992000013006004-23930+031150FM-15+0400FAPH V0201401N002112200019N9999999N1+02401+02201999999ADDMA1101191999999MW1001REMMET053FAPH 300600Z AUTO 14004KT //// // ////// 24/22 Q1012;EQDQ01+000000PRSWM2
0105681900999992000013007004-23930+031150FM-15+0400FAPH V0201001N001512200019N9999999N1+02601+02301999999ADDMA1101191999999MW1001REMMET053FAPH 300700Z AUTO 10003KT //// // ////// 26/23 Q1012;EQDQ01+000000PRSWM2
0105681900999992000013008004-23930+031150FM-15+0400FAPH V0201101N001512200019N9999999N1+02701+02201999999ADDMA1101191999999MW1001REMMET053FAPH 300800Z AUTO 11003KT //// // ////// 27/22 Q1012;EQDQ01+000000PRSWM2
0105681900999992000013009004-23930+031150FM-15+0400FAPH V0201001N002112200019N9999999N1+02801+02301999999ADDMA1101191999999MW1001REMMET053FAPH 300900Z AUTO 10004KT //// // ////// 28/23 Q1012;EQDQ01+000000PRSWM2
0105681900999992000013010004-23930+031150FM-15+0400FAPH V0200801N002112200019N9999999N1+02901+02301999999ADDMA1101191999999MW1001REMMET053FAPH 301000Z AUTO 08004KT //// // ////// 29/23 Q1012;EQDQ01+000000PRSWM2
0105681900999992000013011004-23930+031150FM-15+0400FAPH V0201001N001512200019N9999999N1+03001+02201999999ADDMA1101081999999MW1001REMMET053FAPH 301100Z AUTO 10003KT //// // ////// 30/22 Q1011;EQDQ01+000000PRSWM2
0105681900999992000013012004-23930+031150FM-15+0400FAPH V0200501N002112200019N9999999N1+02901+02201999999ADDMA1101021999999MW1001REMMET053FAPH 301200Z AUTO 05004KT //// // ////// 29/22 Q1010;EQDQ01+000000PRSWM2
0105681900999992000013013004-23930+031150FM-15+0400FAPH V0200401N002612200019N9999999N1+03001+02201999999ADDMA1100911999999MW1001REMMET053FAPH 301300Z AUTO 04005KT //// // ////// 30/22 Q1009;EQDQ01+000000PRSWM2
0105681900999992000013102004-23930+031150FM-15+0400FAPH V0200801N001012200019N9999999N1+02201+02001999999ADDMA1101021999999MW1001REMMET053FAPH 310200Z AUTO 08002KT //// // ////// 22/20 Q1010;EQDQ01+000000PRSWM2
0105681900999992000013103004-23930+031150FM-15+0400FAPH V0201701N000512200019N9999999N1+02101+02001999999ADDMA1101081999999MW1001REMMET053FAPH 310300Z AUTO 17001KT //// // ////// 21/20 Q1011;EQDQ01+000000PRSWM2
0105681900999992000013104004-23930+031150FM-15+0400FAPH V0200501N000512200019N9999999N1+02101+01901999999ADDMA1101191999999MW1001REMMET053FAPH 310400Z AUTO 05001KT //// // ////// 21/19 Q1012;EQDQ01+000000PRSWM2
0105681900999992000013105004-23930+031150FM-15+0400FAPH V0201101N001012200019N9999999N1+02401+02201999999ADDMA1101191999999MW1001REMMET053FAPH 310500Z AUTO 11002KT //// // ////// 24/22 Q1012;EQDQ01+000000PRSWM2
0105681900999992000013106004-23930+031150FM-15+0400FAPH V0200501N001512200019N9999999N1+02601+02401999999ADDMA1101291999999MW1001REMMET053FAPH 310600Z AUTO 05003KT //// // ////// 26/24 Q1013;EQDQ01+000000PRSWM2
0105681900999992000013107004-23930+031150FM-15+0400FAPH V0200601N001512200019N9999999N1+02801+02401999999ADDMA1101291999999MW1001REMMET053FAPH 310700Z AUTO 06003KT //// // ////// 28/24 Q1013;EQDQ01+000000PRSWM2
0105681900999992000013108004-23930+031150FM-15+0400FAPH V0200201N001512200019N9999999N1+02901+02401999999ADDMA1101291999999MW1001REMMET053FAPH 310800Z AUTO 02003KT //// // ////// 29/24 Q1013;EQDQ01+000000PRSWM2
0105681900999992000013109004-23930+031150FM-15+0400FAPH V0200301N002112200019N9999999N1+02901+02401999999ADDMA1101191999999MW1001REMMET053FAPH 310900Z AUTO 03004KT //// // ////// 29/24 Q1012;EQDQ01+000000PRSWM2
0105681900999992000013110004-23930+031150FM-15+0400FAPH V0200701N002112200019N9999999N1+03101+02401999999ADDMA1101191999999MW1001REMMET053FAPH 311000Z AUTO 07004KT //// // ////// 31/24 Q1012;EQDQ01+000000PRSWM2
0105681900999992000013112004-23930+031150FM-15+0400FAPH V0200601N002112200019N9999999N1+03301+02401999999ADDMA1101081999999MW1001REMMET053FAPH 311200Z AUTO 06004KT //// // ////// 33/24 Q1011;EQDQ01+000000PRSWM2
0105681900999992000013113004-23930+031150FM-15+0400FAPH V0200801N002612200019N9999999N1+03301+02401999999ADDMA1101021999999MW1001REMMET053FAPH 311300Z AUTO 08005KT //// // ////// 33/24 Q1010;EQDQ01+000000PRSWM2
0105681900999992000020102004-23930+031150FM-15+0400FAPH V0201301N001512200019N9999999N1+02301+02101999999ADDMA1101391999999MW1001REMMET053FAPH 010200Z AUTO 13003KT //// // ////// 23/21 Q1014;EQDQ01+000000PRSWM2
0105681900999992000020103004-23930+031150FM-15+0400FAPH V0201401N001512200019N9999999N1+02301+02101999999ADDMA1101391999999MW1001REMMET053FAPH 010300Z AUTO 14003KT //// // ////// 23/21 Q1014;EQDQ01+000000PRSWM2
0105681900999992000020104004-23930+031150FM-15+0400FAPH V0201601N001012200019N9999999N1+02301+02101999999ADDMA1101391999999MW1001REMMET053FAPH 010400Z AUTO 16002KT //// // ////// 23/21 Q1014;EQDQ01+000000PRSWM2
0105681900999992000020105004-23930+031150FM-15+0400FAPH V0201701N001012200019N9999999N1+02301+02201999999ADDMA1101491999999MW1001REMMET053FAPH 010500Z AUTO 17002KT //// // ////// 23/22 Q1015;EQDQ01+000000PRSWM2
0105681900999992000020106004-23930+031150FM-15+0400FAPH V0201201N001512200019N9999999N1+02301+02201999999ADDMA1101491999999MW1001REMMET053FAPH 010600Z AUTO 12003KT //// // ////// 23/22 Q1015;EQDQ01+000000PRSWM2
0105681900999992000020108004-23930+031150FM-15+0400FAPH V0202001N001012200019N9999999N1+02701+02201999999ADDMA1101391999999MW1001REMMET053FAPH 010800Z AUTO 20002KT //// // ////// 27/22 Q1014;EQDQ01+000000PRSWM2
0105681900999992000020109004-23930+031150FM-15+0400FAPH V0202201N001512200019N9999999N1+02801+02201999999ADDMA1101391999999MW1001REMMET053FAPH 010900Z AUTO 22003KT //// // ////// 28/22 Q1014;EQDQ01+000000PRSWM2
0105681900999992000020110004-23930+031150FM-15+0400FAPH V0201401N001512200019N9999999N1+02901+02201999999ADDMA1101291999999MW1001REMMET053FAPH 011000Z AUTO 14003KT //// // ////// 29/22 Q1013;EQDQ01+000000PRSWM2
0105681900999992000020111004-23930+031150FM-15+0400FAPH V0200501N001512200019N9999999N1+03001+02201999999ADDMA1101191999999MW1001REMMET053FAPH 011100Z AUTO 05003KT //// // ////// 30/22 Q1012;EQDQ01+000000PRSWM2
0105681900999992000020112004-23930+031150FM-15+0400FAPH V0200501N002612200019N9999999N1+03101+02201999999ADDMA1101081999999MW1001REMMET053FAPH 011200Z AUTO 05005KT //// // ////// 31/22 Q1011;EQDQ01+000000PRSWM2
0105681900999992000020113004-23930+031150FM-15+0400FAPH V0200401N002112200019N9999999N1+03101+02301999999ADDMA1101021999999MW1001REMMET053FAPH 011300Z AUTO 04004KT //// // ////// 31/23 Q1010;EQDQ01+000000PRSWM2
0105681900999992000020202004-23930+031150FM-15+0400FAPH V0201301N001012200019N9999999N1+02301+02201999999ADDMA1101081999999MW1001REMMET053FAPH 020200Z AUTO 13002KT //// // ////// 23/22 Q1011;EQDQ01+000000PRSWM2
0105681900999992000020203004-23930+031150FM-15+0400FAPH V0201301N001012200019N9999999N1+02301+02201999999ADDMA1101191999999MW1001REMMET053FAPH 020300Z AUTO 13002KT //// // ////// 23/22 Q1012;EQDQ01+000000PRSWM2
0105681900999992000020205004-23930+031150FM-15+0400FAPH V0201101N001012200019N9999999N1+02301+02101999999ADDMA1101291999999MW1001REMMET053FAPH 020500Z AUTO 11002KT //// // ////// 23/21 Q1013;EQDQ01+000000PRSWM2
0105681900999992000020206004-23930+031150FM-15+0400FAPH V0200801N001512200019N9999999N1+02401+02301999999ADDMA1101291999999MW1001REMMET053FAPH 020600Z AUTO 08003KT //// // ////// 24/23 Q1013;EQDQ01+000000PRSWM2
0105681900999992000020207004-23930+031150FM-15+0400FAPH V0200801N002112200019N9999999N1+02601+02401999999ADDMA1101291999999MW1001REMMET053FAPH 020700Z AUTO 08004KT //// // ////// 26/24 Q1013;EQDQ01+000000PRSWM2
0105681900999992000020208004-23930+031150FM-15+0400FAPH V0200601N001012200019N9999999N1+02701+02401999999ADDMA1101291999999MW1001REMMET053FAPH 020800Z AUTO 06002KT //// // ////// 27/24 Q1013;EQDQ01+000000PRSWM2
0105681900999992000020209004-23930+031150FM-15+0400FAPH V0200801N002112200019N9999999N1+02801+02401999999ADDMA1101291999999MW1001REMMET053FAPH 020900Z AUTO 08004KT //// // ////// 28/24 Q1013;EQDQ01+000000PRSWM2
0105681900999992000020210004-23930+031150FM-15+0400FAPH V0201401N002612200019N9999999N1+02901+02401999999ADDMA1101191999999MW1001REMMET053FAPH 021000Z AUTO 14005KT //// // ////// 29/24 Q1012;EQDQ01+000000PRSWM2
0105681900999992000020211004-23930+031150FM-15+0400FAPH V0201701N002612200019N9999999N1+03001+02301999999ADDMA1101081999999MW1001REMMET053FAPH 021100Z AUTO 17005KT //// // ////// 30/23 Q1011;EQDQ01+000000PRSWM2
0105681900999992000020212004-23930+031150FM-15+0400FAPH V0201201N003112200019N9999999N1+03201+02301999999ADDMA1101081999999MW1001REMMET053FAPH 021200Z AUTO 12006KT //// // ////// 32/23 Q1011;EQDQ01+000000PRSWM2
0105681900999992000020213004-23930+031150FM-15+0400FAPH V0201101N003112200019N9999999N1+03201+02201999999ADDMA1101021999999MW1001REMMET053FAPH 021300Z AUTO 11006KT //// // ////// 32/22 Q1010;EQDQ01+000000PRSWM2
0105681900999992000020302004-23930+031150FM-15+0400FAPH V0201601N003612200019N9999999N1+02201+02001999999ADDMA1101291999999MW1001REMMET053FAPH 030200Z AUTO 16007KT //// // ////// 22/20 Q1013;EQDQ01+000000PRSWM2
0105681900999992000020303004-23930+031150FM-15+0400FAPH V0201501N002612200019N9999999N1+02101+02001999999ADDMA1101291999999MW1001REMMET053FAPH 030300Z AUTO 15005KT //// // ////// 21/20 Q1013;EQDQ01+000000PRSWM2
0105681900999992000020304004-23930+031150FM-15+0400FAPH V0201601N002112200019N9999999N1+02101+01901999999ADDMA1101491999999MW1001REMMET053FAPH 030400Z AUTO 16004KT //// // ////// 21/19 Q1015;EQDQ01+000000PRSWM2
0105681900999992000020305004-23930+031150FM-15+0400FAPH V0201401N003612200019N9999999N1+02301+02201999999ADDMA1101491999999MW1001REMMET053FAPH 030500Z AUTO 14007KT //// // ////// 23/22 Q1015;EQDQ01+000000PRSWM2
0105681900999992000020306004-23930+031150FM-15+0400FAPH V0201401N004112200019N9999999N1+02501+02201999999ADDMA1101591999999MW1001REMMET053FAPH 030600Z AUTO 14008KT //// // ////// 25/22 Q1016;EQDQ01+000000PRSWM2
0116681900999992000020307004-23930+031150FM-15+0400FAPH V0201501N003612200019N9999999N1+02601+02001999999ADDMA1101591999999MW1001OC100871REMMET056FAPH 030700Z AUTO 15007G17KT //// // ////// 26/20 Q1016;EQDQ01+000000PRSWM2
0105681900999992000020308004-23930+031150FM-15+0400FAPH V0201401N005112200019N9999999N1+02801+02101999999ADDMA1101591999999MW1001REMMET053FAPH 030800Z AUTO 14010KT //// // ////// 28/21 Q1016;EQDQ01+000000PRSWM2
0116681900999992000020309004-23930+031150FM-15+0400FAPH V0201401N004612200019N9999999N1+02901+01901999999ADDMA1101491999999MW1001OC100981REMMET056FAPH 030900Z AUTO 14009G19KT //// // ////// 29/19 Q1015;EQDQ01+000000PRSWM2
0116681900999992000020310004-23930+031150FM-15+0400FAPH V0201301N004112200019N9999999N1+03001+01801999999ADDMA1101391999999MW1001OC101231REMMET056FAPH 031000Z AUTO 13008G24KT //// // ////// 30/18 Q1014;EQDQ01+000000PRSWM2
0116681900999992000020311004-23930+031150FM-15+0400FAPH V0201301N003612200019N9999999N1+03001+01901999999ADDMA1101391999999MW1001OC100981REMMET056FAPH 031100Z AUTO 13007G19KT //// // ////// 30/19 Q1014;EQDQ01+000000PRSWM2
0105681900999992000020312004-23930+031150FM-15+0400FAPH V0201501N004612200019N9999999N1+03001+01901999999ADDMA1101291999999MW1001REMMET053FAPH 031200Z AUTO 15009KT //// // ////// 30/19 Q1013;EQDQ01+000000PRSWM2
0116681900999992000020313004-23930+031150FM-15+0400FAPH V0201301N003612200019N9999999N1+02901+02001999999ADDMA1101291999999MW1001OC100981REMMET056FAPH 031300Z AUTO 13007G19KT //// // ////// 29/20 Q1013;EQDQ01+000000PRSWM2
0116681900999992000020402004-23930+031150FM-15+0400FAPH V0201501N002612200019N9999999N1+02201+02001999999ADDMA1101491999999MW1001OC100771REMMET056FAPH 040200Z AUTO 15005G15KT //// // ////// 22/20 Q1015;EQDQ01+000000PRSWM2
0116681900999992000020403004-23930+031150FM-15+0400FAPH V0201401N004112200019N9999999N1+02201+02001999999ADDMA1101491999999MW1001OC100981REMMET056FAPH 040300Z AUTO 14008G19KT //// // ////// 22/20 Q1015;EQDQ01+000000PRSWM2
0105681900999992000020404004-23930+031150FM-15+0400FAPH V0201401N005112200019N9999999N1+02201+02001999999ADDMA1101491999999MW1001REMMET053FAPH 040400Z AUTO 14010KT //// // ////// 22/20 Q1015;EQDQ01+000000PRSWM2
0105681900999992000020405004-23930+031150FM-15+0400FAPH V0201501N004112200019N9999999N1+02201+02101999999ADDMA1101591999999MW1001REMMET053FAPH 040500Z AUTO 15008KT //// // ////// 22/21 Q1016;EQDQ01+000000PRSWM2
0105681900999992000020406004-23930+031150FM-15+0400FAPH V0201501N004112200019N9999999N1+02101+02001999999ADDMA1101591999999MW1001REMMET053FAPH 040600Z AUTO 15008KT //// // ////// 21/20 Q1016;EQDQ01+000000PRSWM2
0114681900999992000020407004-23930+031150FM-15+0400FAPH V0201401N003112200019N9999999N1+02101+02001999999ADDMA1101691999999MW1001REMMET062FAPH 040700Z AUTO 14006KT //// // -RA ////// 21/20 Q1017 RERA;EQDQ01+000000PRSWM2
0114681900999992000020408004-23930+031150FM-15+0400FAPH V0201501N003112200019N9999999N1+02101+01901999999ADDMA1101691999999MW1001REMMET062FAPH 040800Z AUTO 15006KT //// // -RA ////// 21/19 Q1017 RERA;EQDQ01+000000PRSWM2
0110681900999992000020409004-23930+031150FM-15+0400FAPH V0201401N003612200019N9999999N1+02101+02001999999ADDMA1101591999999MW1001REMMET058FAPH 040900Z AUTO 14007KT //// // ////// 21/20 Q1016 RERA;EQDQ01+000000PRSWM2
0110681900999992000020410004-23930+031150FM-15+0400FAPH V0201501N003112200019N9999999N1+02201+02001999999ADDMA1101591999999MW1001REMMET058FAPH 041000Z AUTO 15006KT //// // ////// 22/20 Q1016 RERA;EQDQ01+000000PRSWM2
0110681900999992000020411004-23930+031150FM-15+0400FAPH V0201401N002612200019N9999999N1+02501+02301999999ADDMA1101491999999MW1001REMMET058FAPH 041100Z AUTO 14005KT //// // ////// 25/23 Q1015 RERA;EQDQ01+000000PRSWM2
0116681900999992000020412004-23930+031150FM-15+0400FAPH V0201601N004112200019N9999999N1+02401+02301999999ADDMA1101391999999MW1001OC100931REMMET056FAPH 041200Z AUTO 16008G18KT //// // ////// 24/23 Q1014;EQDQ01+000000PRSWM2
0105681900999992000020413004-23930+031150FM-15+0400FAPH V0201501N003612200019N9999999N1+02301+02101999999ADDMA1101391999999MW1001REMMET053FAPH 041300Z AUTO 15007KT //// // ////// 23/21 Q1014;EQDQ01+000000PRSWM2
0094681900999992000020502004-23930+031150FM-15+0400FAPH V0201501N003112200019N9999999N1+02101+02001999999ADDMW1001REMMET057FAPH 050200Z AUTO 15006KT //// // ////// 21/20 Q104 RERA;EQDQ01+000000PRSWM2
0105681900999992000020503004-23930+031150FM-15+0400FAPH V0201501N002112200019N9999999N1+02101+01901999999ADDMA1101291999999MW1001REMMET053FAPH 050300Z AUTO 15004KT //// // ////// 21/19 Q1013;EQDQ01+000000PRSWM2
0105681900999992000020504004-23930+031150FM-15+0400FAPH V0201701N002612200019N9999999N1+02101+01901999999ADDMA1101291999999MW1001REMMET053FAPH 050400Z AUTO 17005KT //// // ////// 21/19 Q1013;EQDQ01+000000PRSWM2
0105681900999992000020505004-23930+031150FM-15+0400FAPH V0201501N003112200019N9999999N1+02101+01901999999ADDMA1101391999999MW1001REMMET053FAPH 050500Z AUTO 15006KT //// // ////// 21/19 Q1014;EQDQ01+000000PRSWM2
0110681900999992000020506004-23930+031150FM-15+0400FAPH V0201401N003112200019N9999999N1+02101+02001999999ADDMA1101391999999MW1001REMMET058FAPH 050600Z AUTO 14006KT //// // ////// 21/20 Q1014 RERA;EQDQ01+000000PRSWM2
0110681900999992000020507004-23930+031150FM-15+0400FAPH V0201701N002612200019N9999999N1+02201+02101999999ADDMA1101391999999MW1001REMMET058FAPH 050700Z AUTO 17005KT //// // ////// 22/21 Q1014 RERA;EQDQ01+000000PRSWM2
0110681900999992000020508004-23930+031150FM-15+0400FAPH V0201401N003112200019N9999999N1+02301+02201999999ADDMA1101391999999MW1001REMMET058FAPH 050800Z AUTO 14006KT //// // ////// 23/22 Q1014 RERA;EQDQ01+000000PRSWM2
0109681900999992000020509004-23930+031150FM-15+0400FAPH V0201201N002612200019N9999999N1+02301+02101999999ADDMA1101291999999MW1001REMMET057FAPH 050900Z AUTO 12005KT //// // -RA ////// 23/21 Q1013;EQDQ01+000000PRSWM2
0114681900999992000020510004-23930+031150FM-15+0400FAPH V0201401N003112200019N9999999N1+02301+02101999999ADDMA1101291999999MW1001REMMET062FAPH 051000Z AUTO 14006KT //// // -RA ////// 23/21 Q1013 RERA;EQDQ01+000000PRSWM2
0121681900999992000020511004-23930+031150FM-15+0400FAPH V0201501N003612200019N9999999N1+02301+02201999999ADDMA1101191999999MW1001OC100871REMMET061FAPH 051100Z AUTO 15007G17KT //// // ////// 23/22 Q1012 RERA;EQDQ01+000000PRSWM2
0105681900999992000020512004-23930+031150FM-15+0400FAPH V0201501N003612200019N9999999N1+02401+02201999999ADDMA1101191999999MW1001REMMET053FAPH 051200Z AUTO 15007KT //// // ////// 24/22 Q1012;EQDQ01+000000PRSWM2
0110681900999992000020513004-23930+031150FM-15+0400FAPH V0201401N003612200019N9999999N1+02401+02201999999ADDMA1101081999999MW1001REMMET058FAPH 051300Z AUTO 14007KT //// // ////// 24/22 Q1011 RERA;EQDQ01+000000PRSWM2
0125681900999992000020602004-23930+031150FM-15+0400FAPH V0201601N004112200019N9999999N1+02201+02001999999ADDMA1101191999999MW1001OC100931REMMET065FAPH 060200Z AUTO 16008G18KT //// // -RA ////// 22/20 Q1012 RERA;EQDQ01+000000PRSWM2
0125681900999992000020603004-23930+031150FM-15+0400FAPH V0201401N003612200019N9999999N1+02201+02001999999ADDMA1101191999999MW1001OC100981REMMET065FAPH 060300Z AUTO 14007G19KT //// // -RA ////// 22/20 Q1012 RERA;EQDQ01+000000PRSWM2
0114681900999992000020604004-23930+031150FM-15+0400FAPH V0201401N003112200019N9999999N1+02201+02001999999ADDMA1101191999999MW1001REMMET062FAPH 060400Z AUTO 14006KT //// // -RA ////// 22/20 Q1012 RERA;EQDQ01+000000PRSWM2
0114681900999992000020605004-23930+031150FM-15+0400FAPH V0201001N002112200019N9999999N1+02201+02001999999ADDMA1101291999999MW1001REMMET062FAPH 060500Z AUTO 10004KT //// // -RA ////// 22/20 Q1013 RERA;EQDQ01+000000PRSWM2
0114681900999992000020606004-23930+031150FM-15+0400FAPH V0201301N002612200019N9999999N1+02301+02101999999ADDMA1101291999999MW1001REMMET062FAPH 060600Z AUTO 13005KT //// // -RA ////// 23/21 Q1013 RERA;EQDQ01+000000PRSWM2
0114681900999992000020607004-23930+031150FM-15+0400FAPH V0201401N002612200019N9999999N1+02301+02201999999ADDMA1101291999999MW1001REMMET062FAPH 060700Z AUTO 14005KT //// // -RA ////// 23/22 Q1013 RERA;EQDQ01+000000PRSWM2
0114681900999992000020608004-23930+031150FM-15+0400FAPH V0200901N002612200019N9999999N1+02401+02201999999ADDMA1101291999999MW1001REMMET062FAPH 060800Z AUTO 09005KT //// // -RA ////// 24/22 Q1013 RERA;EQDQ01+000000PRSWM2
0110681900999992000020609004-23930+031150FM-15+0400FAPH V0201101N002112200019N9999999N1+02401+02301999999ADDMA1101291999999MW1001REMMET058FAPH 060900Z AUTO 11004KT //// // ////// 24/23 Q1013 RERA;EQDQ01+000000PRSWM2
0110681900999992000020610004-23930+031150FM-15+0400FAPH V0201001N002612200019N9999999N1+02501+02301999999ADDMA1101291999999MW1001REMMET058FAPH 061000Z AUTO 10005KT //// // ////// 25/23 Q1013 RERA;EQDQ01+000000PRSWM2
0110681900999992000020611004-23930+031150FM-15+0400FAPH V0201301N002112200019N9999999N1+02501+02401999999ADDMA1101191999999MW1001REMMET058FAPH 061100Z AUTO 13004KT //// // ////// 25/24 Q1012 RERA;EQDQ01+000000PRSWM2
0110681900999992000020612004-23930+031150FM-15+0400FAPH V0201201N002612200019N9999999N1+02401+02301999999ADDMA1101191999999MW1001REMMET058FAPH 061200Z AUTO 12005KT //// // ////// 24/23 Q1012 RERA;EQDQ01+000000PRSWM2
0110681900999992000020613004-23930+031150FM-15+0400FAPH V0201101N003112200019N9999999N1+02401+02201999999ADDMA1101081999999MW1001REMMET058FAPH 061300Z AUTO 11006KT //// // ////// 24/22 Q1011 RERA;EQDQ01+000000PRSWM2
0110681900999992000020702004-23930+031150FM-15+0400FAPH V0200801N004612200019N9999999N1+02301+02201999999ADDMA1101291999999MW1001REMMET058FAPH 070200Z AUTO 08009KT //// // ////// 23/22 Q1013 RERA;EQDQ01+000000PRSWM2
0105681900999992000020703004-23930+031150FM-15+0400FAPH V0200501N003612200019N9999999N1+02301+02201999999ADDMA1101291999999MW1001REMMET053FAPH 070300Z AUTO 05007KT //// // ////// 23/22 Q1013;EQDQ01+000000PRSWM2
0110681900999992000020704004-23930+031150FM-15+0400FAPH V0200701N002612200019N9999999N1+02301+02201999999ADDMA1101391999999MW1001REMMET058FAPH 070400Z AUTO 07005KT //// // ////// 23/22 Q1014 RERA;EQDQ01+000000PRSWM2
0114681900999992000020705004-23930+031150FM-15+0400FAPH V0200501N003612200019N9999999N1+02301+02201999999ADDMA1101391999999MW1001REMMET062FAPH 070500Z AUTO 05007KT //// // -RA ////// 23/22 Q1014 RERA;EQDQ01+000000PRSWM2
0110681900999992000020706004-23930+031150FM-15+0400FAPH V0200301N002612200019N9999999N1+02401+02201999999ADDMA1101491999999MW1001REMMET058FAPH 070600Z AUTO 03005KT //// // ////// 24/22 Q1015 RERA;EQDQ01+000000PRSWM2
0105681900999992000020707004-23930+031150FM-15+0400FAPH V0200401N003612200019N9999999N1+02401+02201999999ADDMA1101491999999MW1001REMMET053FAPH 070700Z AUTO 04007KT //// // ////// 24/22 Q1015;EQDQ01+000000PRSWM2
0110681900999992000020709004-23930+031150FM-15+0400FAPH V0200501N002112200019N9999999N1+02501+02301999999ADDMA1101491999999MW1001REMMET058FAPH 070900Z AUTO 05004KT //// // ////// 25/23 Q1015 RERA;EQDQ01+000000PRSWM2
0110681900999992000020710004-23930+031150FM-15+0400FAPH V0200601N003112200019N9999999N1+02501+02401999999ADDMA1101491999999MW1001REMMET058FAPH 071000Z AUTO 06006KT //// // ////// 25/24 Q1015 RERA;EQDQ01+000000PRSWM2
0114681900999992000020711004-23930+031150FM-15+0400FAPH V0200401N003612200019N9999999N1+02701+02501999999ADDMA1101391999999MW1001REMMET062FAPH 071100Z AUTO 04007KT //// // -RA ////// 27/25 Q1014 RERA;EQDQ01+000000PRSWM2
0110681900999992000020712004-23930+031150FM-15+0400FAPH V0200601N003112200019N9999999N1+02801+02601999999ADDMA1101291999999MW1001REMMET058FAPH 071200Z AUTO 06006KT //// // ////// 28/26 Q1013 RERA;EQDQ01+000000PRSWM2
0110681900999992000020713004-23930+031150FM-15+0400FAPH V0200301N002112200019N9999999N1+02601+02501999999ADDMA1101291999999MW1001REMMET058FAPH 071300Z AUTO 03004KT //// // ////// 26/25 Q1013 RERA;EQDQ01+000000PRSWM2
0114681900999992000020802004-23930+031150FM-15+0400FAPH V0201601N002612200019N9999999N1+02201+02001999999ADDMA1101291999999MW1001REMMET062FAPH 080200Z AUTO 16005KT //// // -RA ////// 22/20 Q1013 RERA;EQDQ01+000000PRSWM2
0110681900999992000020803004-23930+031150FM-15+0400FAPH V0201401N002112200019N9999999N1+02201+02001999999ADDMA1101391999999MW1001REMMET058FAPH 080300Z AUTO 14004KT //// // ////// 22/20 Q1014 RERA;EQDQ01+000000PRSWM2
0105681900999992000020804004-23930+031150FM-15+0400FAPH V0201401N001512200019N9999999N1+02201+02001999999ADDMA1101391999999MW1001REMMET053FAPH 080400Z AUTO 14003KT //// // ////// 22/20 Q1014;EQDQ01+000000PRSWM2
0110681900999992000020805004-23930+031150FM-15+0400FAPH V0201301N001012200019N9999999N1+02201+02001999999ADDMA1101391999999MW1001REMMET058FAPH 080500Z AUTO 13002KT //// // ////// 22/20 Q1014 RERA;EQDQ01+000000PRSWM2
0105681900999992000020806004-23930+031150FM-15+0400FAPH V0201201N001012200019N9999999N1+02201+02101999999ADDMA1101491999999MW1001REMMET053FAPH 080600Z AUTO 12002KT //// // ////// 22/21 Q1015;EQDQ01+000000PRSWM2
0105681900999992000020809004-23930+031150FM-15+0400FAPH V0201201N001012200019N9999999N1+02301+02201999999ADDMA1101491999999MW1001REMMET053FAPH 080900Z AUTO 12002KT //// // ////// 23/22 Q1015;EQDQ01+000000PRSWM2
0110681900999992000020810004-23930+031150FM-15+0400FAPH V0201701N001512200019N9999999N1+02401+02201999999ADDMA1101391999999MW1001REMMET058FAPH 081000Z AUTO 17003KT //// // ////// 24/22 Q1014 RERA;EQDQ01+000000PRSWM2
0110681900999992000020811004-23930+031150FM-15+0400FAPH V0201301N001012200019N9999999N1+02501+02401999999ADDMA1101391999999MW1001REMMET058FAPH 081100Z AUTO 13002KT //// // ////// 25/24 Q1014 RERA;EQDQ01+000000PRSWM2
0105681900999992000020812004-23930+031150FM-15+0400FAPH V0201801N002112200019N9999999N1+02601+02501999999ADDMA1101291999999MW1001REMMET053FAPH 081200Z AUTO 18004KT //// // ////// 26/25 Q1013;EQDQ01+000000PRSWM2
0110681900999992000020813004-23930+031150FM-15+0400FAPH V0201901N001512200019N9999999N1+02601+02501999999ADDMA1101191999999MW1001REMMET058FAPH 081300Z AUTO 19003KT //// // ////// 26/25 Q1012 RERA;EQDQ01+000000PRSWM2
0105681900999992000020902004-23930+031150FM-15+0400FAPH V0200901N001512200019N9999999N1+02201+02101999999ADDMA1101291999999MW1001REMMET053FAPH 090200Z AUTO 09003KT //// // ////// 22/21 Q1013;EQDQ01+000000PRSWM2
0105681900999992000020903004-23930+031150FM-15+0400FAPH V0200901N001012200019N9999999N1+02201+02001999999ADDMA1101291999999MW1001REMMET053FAPH 090300Z AUTO 09002KT //// // ////// 22/20 Q1013;EQDQ01+000000PRSWM2
0110681900999992000020904004-23930+031150FM-15+0400FAPH V0201301N001012200019N9999999N1+02201+02101999999ADDMA1101391999999MW1001REMMET058FAPH 090400Z AUTO 13002KT //// // ////// 22/21 Q1014 RERA;EQDQ01+000000PRSWM2
0105681900999992000020905004-23930+031150FM-15+0400FAPH V0201101N001012200019N9999999N1+02301+02101999999ADDMA1101391999999MW1001REMMET053FAPH 090500Z AUTO 11002KT //// // ////// 23/21 Q1014;EQDQ01+000000PRSWM2
0110681900999992000020907004-23930+031150FM-15+0400FAPH V0200601N002612200019N9999999N1+02601+02401999999ADDMA1101391999999MW1001REMMET058FAPH 090700Z AUTO 06005KT //// // ////// 26/24 Q1014 RERA;EQDQ01+000000PRSWM2
0105681900999992000020908004-23930+031150FM-15+0400FAPH V0200701N002612200019N9999999N1+02701+02501999999ADDMA1101391999999MW1001REMMET053FAPH 090800Z AUTO 07005KT //// // ////// 27/25 Q1014;EQDQ01+000000PRSWM2
0110681900999992000020909004-23930+031150FM-15+0400FAPH V0201101N002112200019N9999999N1+02801+02501999999ADDMA1101291999999MW1001REMMET058FAPH 090900Z AUTO 11004KT //// // ////// 28/25 Q1013 RERA;EQDQ01+000000PRSWM2
0109681900999992000020910004-23930+031150FM-15+0400FAPH V0200901N002112200019N9999999N1+02901+02501999999ADDMA1101291999999MW1001REMMET057FAPH 091000Z AUTO 09004KT //// // -RA ////// 29/25 Q1013;EQDQ01+000000PRSWM2
0110681900999992000020911004-23930+031150FM-15+0400FAPH V0201301N001512200019N9999999N1+02901+02601999999ADDMA1101291999999MW1001REMMET058FAPH 091100Z AUTO 13003KT //// // ////// 29/26 Q1013 RERA;EQDQ01+000000PRSWM2
0105681900999992000020912004-23930+031150FM-15+0400FAPH V0201501N003612200019N9999999N1+02801+02501999999ADDMA1101191999999MW1001REMMET053FAPH 091200Z AUTO 15007KT //// // ////// 28/25 Q1012;EQDQ01+000000PRSWM2
0105681900999992000020913004-23930+031150FM-15+0400FAPH V0201301N003112200019N9999999N1+02701+02501999999ADDMA1101191999999MW1001REMMET053FAPH 091300Z AUTO 13006KT //// // ////// 27/25 Q1012;EQDQ01+000000PRSWM2
0110681900999992000021002004-23930+031150FM-15+0400FAPH V0201301N001012200019N9999999N1+02201+02001999999ADDMA1101391999999MW1001REMMET058FAPH 100200Z AUTO 13002KT //// // ////// 22/20 Q1014 RERA;EQDQ01+000000PRSWM2
0105681900999992000021003004-23930+031150FM-15+0400FAPH V0200801N001012200019N9999999N1+02201+02001999999ADDMA1101391999999MW1001REMMET053FAPH 100300Z AUTO 08002KT //// // ////// 22/20 Q1014;EQDQ01+000000PRSWM2
0105681900999992000021004004-23930+031150FM-15+0400FAPH V0200501N000512200019N9999999N1+02201+02001999999ADDMA1101491999999MW1001REMMET053FAPH 100400Z AUTO 05001KT //// // ////// 22/20 Q1015;EQDQ01+000000PRSWM2
0110681900999992000021005004-23930+031150FM-15+0400FAPH V0201101N002112200019N9999999N1+02201+02101999999ADDMA1101491999999MW1001REMMET058FAPH 100500Z AUTO 11004KT //// // ////// 22/21 Q1015 RERA;EQDQ01+000000PRSWM2
0105681900999992000021006004-23930+031150FM-15+0400FAPH V0200701N002112200019N9999999N1+02401+02201999999ADDMA1101491999999MW1001REMMET053FAPH 100600Z AUTO 07004KT //// // ////// 24/22 Q1015;EQDQ01+000000PRSWM2
0105681900999992000021007004-23930+031150FM-15+0400FAPH V0200501N003112200019N9999999N1+02601+02401999999ADDMA1101491999999MW1001REMMET053FAPH 100700Z AUTO 05006KT //// // ////// 26/24 Q1015;EQDQ01+000000PRSWM2
0110681900999992000021008004-23930+031150FM-15+0400FAPH V0200601N002112200019N9999999N1+02601+02401999999ADDMA1101491999999MW1001REMMET058FAPH 100800Z AUTO 06004KT //// // ////// 26/24 Q1015 RERA;EQDQ01+000000PRSWM2
0105681900999992000021009004-23930+031150FM-15+0400FAPH V0200401N002112200019N9999999N1+02701+02401999999ADDMA1101391999999MW1001REMMET053FAPH 100900Z AUTO 04004KT //// // ////// 27/24 Q1014;EQDQ01+000000PRSWM2
0105681900999992000021010004-23930+031150FM-15+0400FAPH V0203301N002112200019N9999999N1+02501+02401999999ADDMA1101291999999MW1001REMMET053FAPH 101000Z AUTO 33004KT //// // ////// 25/24 Q1013;EQDQ01+000000PRSWM2
0105681900999992000021011004-23930+031150FM-15+0400FAPH V0203301N001512200019N9999999N1+02801+02401999999ADDMA1101291999999MW1001REMMET053FAPH 101100Z AUTO 33003KT //// // ////// 28/24 Q1013;EQDQ01+000000PRSWM2
0110681900999992000021012004-23930+031150FM-15+0400FAPH V0200601N002612200019N9999999N1+03001+02401999999ADDMA1101191999999MW1001REMMET058FAPH 101200Z AUTO 06005KT //// // ////// 30/24 Q1012 RERA;EQDQ01+000000PRSWM2
0105681900999992000021013004-23930+031150FM-15+0400FAPH V0200901N001512200019N9999999N1+03001+02401999999ADDMA1101021999999MW1001REMMET053FAPH 101300Z AUTO 09003KT //// // ////// 30/24 Q1010;EQDQ01+000000PRSWM2
0105681900999992000021102004-23930+031150FM-15+0400FAPH V0200901N001512200019N9999999N1+02301+02201999999ADDMA1101191999999MW1001REMMET053FAPH 110200Z AUTO 09003KT //// // ////// 23/22 Q1012;EQDQ01+000000PRSWM2
0105681900999992000021103004-23930+031150FM-15+0400FAPH V0200901N001012200019N9999999N1+02301+02201999999ADDMA1101191999999MW1001REMMET053FAPH 110300Z AUTO 09002KT //// // ////// 23/22 Q1012;EQDQ01+000000PRSWM2
0105681900999992000021104004-23930+031150FM-15+0400FAPH V0200801N001012200019N9999999N1+02301+02201999999ADDMA1101291999999MW1001REMMET053FAPH 110400Z AUTO 08002KT //// // ////// 23/22 Q1013;EQDQ01+000000PRSWM2
0110681900999992000021105004-23930+031150FM-15+0400FAPH V0200601N001512200019N9999999N1+02301+02201999999ADDMA1101291999999MW1001REMMET058FAPH 110500Z AUTO 06003KT //// // ////// 23/22 Q1013 RERA;EQDQ01+000000PRSWM2
0105681900999992000021106004-23930+031150FM-15+0400FAPH V0200201N002612200019N9999999N1+02501+02301999999ADDMA1101291999999MW1001REMMET053FAPH 110600Z AUTO 02005KT //// // ////// 25/23 Q1013;EQDQ01+000000PRSWM2
0105681900999992000021107004-23930+031150FM-15+0400FAPH V0200301N002612200019N9999999N1+02601+02401999999ADDMA1101291999999MW1001REMMET053FAPH 110700Z AUTO 03005KT //// // ////// 26/24 Q1013;EQDQ01+000000PRSWM2
0105681900999992000021108004-23930+031150FM-15+0400FAPH V0200201N002612200019N9999999N1+02701+02501999999ADDMA1101291999999MW1001REMMET053FAPH 110800Z AUTO 02005KT //// // ////// 27/25 Q1013;EQDQ01+000000PRSWM2
0105681900999992000021109004-23930+031150FM-15+0400FAPH V0200201N002612200019N9999999N1+02901+02501999999ADDMA1101191999999MW1001REMMET053FAPH 110900Z AUTO 02005KT //// // ////// 29/25 Q1012;EQDQ01+000000PRSWM2
0105681900999992000021110004-23930+031150FM-15+0400FAPH V0200101N002112200019N9999999N1+02901+02501999999ADDMA1101081999999MW1001REMMET053FAPH 111000Z AUTO 01004KT //// // ////// 29/25 Q1011;EQDQ01+000000PRSWM2
0105681900999992000021111004-23930+031150FM-15+0400FAPH V0200701N002112200019N9999999N1+03001+02401999999ADDMA1101021999999MW1001REMMET053FAPH 111100Z AUTO 07004KT //// // ////// 30/24 Q1010;EQDQ01+000000PRSWM2
0109681900999992000021112004-23930+031150FM-15+0400FAPH V0200201N001512200019N9999999N1+03101+02401999999ADDMA1101021999999MW1001REMMET057FAPH 111200Z AUTO 02003KT //// // -RA ////// 31/24 Q1010;EQDQ01+000000PRSWM2
0110681900999992000021113004-23930+031150FM-15+0400FAPH V0200301N002612200019N9999999N1+03101+02401999999ADDMA1100911999999MW1001REMMET058FAPH 111300Z AUTO 03005KT //// // ////// 31/24 Q1009 RERA;EQDQ01+000000PRSWM2
