0268682620999992000010100004-25730+028180FM-12+1322FAPR V0209999C000010360019N0100001N1+01811+01751999999ADDAA101001091AA224009091AY121061AY261061GF108991011061002501071999KA1120M+03071KA2120N+01781MA1999999086751MD1710111+9999ME1314829MW1611REMSYN122AAXX  01004 68262 11360 80000 10181 20175 38675 48482 57011 60091 76126 8167/ 333 10307 20178 60015 91007 555 20090 91015;
0149682620999992000010102004-25730+028180FM-15+1322FAPR V0200501N001510300019N0112651N1+01801+01701999999ADDGA1021+002409999GA2081+030009999GF108991999999999999999999MA1101491999999MW1001REMMET058FAPR 010200Z 05003KT 9999 FEW008 OVC100 18/17 Q1015 RE-RA;
0143682620999992000010103004-25730+028180FM-15+1322FAPR V0200701N001010300019N0112651N1+01801+01801999999ADDGA1021+002409999GA2081+030009999GF108991999999999999999999MA1101491999999MW1001REMMET052FAPR 010300Z 07002KT 9999 FEW008 OVC100 18/18 Q1015;
0072682620999992000010104004-25730+028180FM-15+1322FAPR V0200701N00151220001CN0099001N1+01801+01701999999ADDMA1101591999999MW1001REMMET039FAPR 010400Z 07003KT CAVOK 18/17 Q1016;
0072682620999992000010105004-25730+028180FM-15+1322FAPR V0200801N00151220001CN0099001N1+01901+01701999999ADDMA1101591999999MW1001REMMET039FAPR 010500Z 08003KT CAVOK 19/17 Q1016;
0319682620999992000010106004-25730+028180SY-MT+1322FAPR V0209999C00001030001CN0160001N1+01991+01751999999ADDAA124010191GA1021+006009999GA2071+030009999GF107991021051008001071999KA1240M+03071KA2120N+01781MA1101691086851MD1210111+9999ME1314929MW1001REMSYN110AAXX  01064 68262 12566 70000 10199 20175 38685 48492 52011 60104 8257/ 333 20178 91007 555 10307 20101 91017;MET052FAPR 010600Z 06004KT 9999 FEW020 BKN100 20/17 Q1017;
0120682620999992000010107004-25730+028180FM-15+1322FAPR V0200601N002110060019N0112651N1+02201+01801999999ADDGA1071+006009999GF107991999999999999999999MA1101591999999MW1001REMMET045FAPR 010700Z 06004KT 9999 BKN020 22/18 Q1016;
0120682620999992000010108004-25730+028180FM-15+1322FAPR V0200201N002610075019N0112651N1+02301+01701999999ADDGA1071+007509999GF107991999999999999999999MA1101591999999MW1001REMMET045FAPR 010800Z 02005KT 9999 BKN025 23/17 Q1016;
0120682620999992000010109004-25730+028180FM-15+1322FAPR V0203301N002110090019N0112651N1+02501+01701999999ADDGA1071+009009999GF107991999999999999999999MA1101591999999MW1001REMMET045FAPR 010900Z 33004KT 9999 BKN030 25/17 Q1016;
0120682620999992000010110004-25730+028180FM-15+1322FAPR V0203001N002110090019N0112651N1+02601+01801999999ADDGA1071+009009999GF107991999999999999999999MA1101491999999MW1001REMMET045FAPR 011000Z 30004KT 9999 BKN030 26/18 Q1015;
0146682620999992000010111004-25730+028180FM-15+1322FAPR V0202701N001512200019N0112651N1+02601+01701999999ADDGA1021+012009029GA2021+012009999GF104991999999999999999999MA1101491999999MW1001REMMET055FAPR 011100Z 27003KT 9999 FEW040TCU SCT040 26/17 Q1015;
0328682620999992000010112004-25730+028180SY-MT+1322FAPR V0202301N002110360019N0160001N1+02561+01811999999ADDAA106000091GA1021+010509099GA2021+010509999GF107991041091012501071999KA1120M+02781KA2120N+01781MA1101391086621MD1710181+9999ME1314719MW1001REMSYN098AAXX  01124 68262 32666 72304 10256 20181 38662 48471 57018 8497/ 333 10278 20178 91012 555 91014;MET054FAPR 011200Z 27006KT 9999 FEW035CB SCT035 26/18 Q1014;EQDQ01  00002PRCP06
0145682620999992000010113004-25730+028180FM-15+1322FAPR V0202601N003112200019N0112651N1+02501+01801999999ADDGA1021+009009099GA2021+009009999GF102991999999999999999999MA1101391999999MW1001REMMET054FAPR 011300Z 26006KT 9999 SCT030CB FEW030 25/18 Q1014;
0262682620999992000010118004-25730+028180FM-12+1322FAPR V0209999C000010360019N0160001N1+01971+01791999999ADDAA112002091AA224002491AY161061AY221061GF105991021051004501071001KA1120M+02781KA2120N+01951MA1999999086721MD1210051+9999ME1314799MW1011REMSYN116AAXX  01184 68262 11466 50000 10197 20179 38672 48479 52005 60022 70162 82570 333 10278 20195 91002 555 20024 91015;
0262682620999992000010200004-25730+028180FM-12+1322FAPR V0209999C000012200019N0050001N1+01821+01791999999ADDAA106002091AA224002491AY101061AY201061GF102991011051004501071001KA1120M+02781KA2120N+01801MA1999999086731MD1710121+9999ME1314799MW1051REMSYN116AAXX  02004 68262 11450 20000 10182 20179 38673 48479 57012 60021 70500 81570 333 10278 20180 91002 555 20024 91015;
0162682620999992000010202004-25730+028180FM-15+1322FAPR V0203501N001012200019N0112651N1+01901+01801999999ADDGA1021+004509999GA2021+027009999GF104991999999999999999999MA1101491999999MW1001REMMET052FAPR 020200Z 35002KT 9999 FEW015 SCT090 19/18 Q1015;EQDQ01+000000PRSWM2
0162682620999992000010203004-25730+028180FM-15+1322FAPR V0200401N001012200019N0112651N1+01801+01801999999ADDGA1021+006009999GA2021+024009999GF104991999999999999999999MA1101591999999MW1001REMMET052FAPR 020300Z 04002KT 9999 FEW020 SCT080 18/18 Q1016;EQDQ01+000000PRSWM2
0162682620999992000010204004-25730+028180FM-15+1322FAPR V0200801N001012200019N0112651N1+01901+01701999999ADDGA1021+006009999GA2021+024009999GF104991999999999999999999MA1101591999999MW1001REMMET052FAPR 020400Z 08002KT 9999 FEW020 SCT080 19/17 Q1016;EQDQ01+000000PRSWM2
0139682620999992000010205004-25730+028180FM-15+1322FAPR V0200501N001012200019N0112651N1+01901+01801999999ADDGA1021+007509999GF102991999999999999999999MA1101691999999MW1001REMMET045FAPR 020500Z 05002KT 9999 FEW025 19/18 Q1017;EQDQ01+000000PRSWM2
0315682620999992000010206004-25730+028180SY-MT+1322FAPR V0209999C000012200019N0160001N1+02151+01831999999ADDAA124003191GA1021+007509999GF103991011011008001071011KA1240M+02781KA2120N+01801MA1101691086871MD1210081+9999ME1314939MW1001REMSYN110AAXX  02064 68262 12566 30000 10215 20183 38687 48493 52008 60034 81171 333 20180 91005 555 10278 20031 91017;MET045FAPR 020600Z 01003KT 9999 FEW025 21/19 Q1017;EQDQ01+000000PRSWM2
0139682620999992000010207004-25730+028180FM-15+1322FAPR V0200201N001512200019N0112651N1+02301+01801999999ADDGA1021+007509999GF104991999999999999999999MA1101691999999MW1001REMMET045FAPR 020700Z 02003KT 9999 SCT025 23/18 Q1017;EQDQ01+000000PRSWM2
0165682620999992000010208004-25730+028180FM-15+1322FAPR V0200101N001512200019N0112651N1+02401+01801999999ADDGA1021+007509029GA2021+007509999GF104991999999999999999999MA1101691999999MW1001REMMET055FAPR 020800Z 01003KT 9999 FEW025TCU SCT025 24/18 Q1017;EQDQ01+000000PRSWM2
0165682620999992000010209004-25730+028180FM-15+1322FAPR V0200301N002112200019N0112651N1+02501+01801999999ADDGA1021+009009029GA2021+009009999GF104991999999999999999999MA1101691999999MW1001REMMET055FAPR 020900Z 03004KT 9999 FEW030TCU SCT030 25/18 Q1017;EQDQ01+000000PRSWM2
0165682620999992000010210004-25730+028180FM-15+1322FAPR V0200501N001012200019N0112651N1+02601+01801999999ADDGA1021+010509029GA2021+010509999GF104991999999999999999999MA1101591999999MW1001REMMET055FAPR 021000Z 05002KT 9999 FEW035TCU SCT035 26/18 Q1016;EQDQ01+000000PRSWM2
0165682620999992000010211004-25730+028180FM-15+1322FAPR V0203401N001012200019N0112651N1+02701+01701999999ADDGA1021+010509029GA2021+010509999GF104991999999999999999999MA1101491999999MW1001REMMET055FAPR 021100Z 34002KT 9999 FEW035TCU SCT035 27/17 Q1015;EQDQ01+000000PRSWM2
0344682620999992000010212004-25730+028180SY-MT+1322FAPR V0209999C000010360019N0160001N1+02781+01641999999ADDAA106000091GA1021+012009099GA2021+012009999GF106991041031012501071001KA1120M+02791KA2120N+01801MA1101491086681MD1710221+9999ME1314779MW1001REMSYN098AAXX  02124 68262 32666 60000 10278 20164 38668 48477 57022 84370 333 10279 20180 91005 555 91015;MET054FAPR 021200Z 33003KT 9999 FEW040CB SCT040 28/17 Q1015;EQDQ01+000000PRSWM2Q02  00002PRCP06
0164682620999992000010213004-25730+028180FM-15+1322FAPR V0203301N001512200019N0112651N1+02701+01601999999ADDGA1021+012009099GA2021+012009999GF104991999999999999999999MA1101491999999MW1001REMMET054FAPR 021300Z 33003KT 9999 FEW040CB SCT040 27/16 Q1015;EQDQ01+000000PRSWM2
0230682620999992000010218004-25730+028180FM-12+1322FAPR V0209999C000010075019N0160001N1+02141+01781999999ADDAA106000091GF108991081091008001999999KA1120M+02791KA2120N+02111MA1999999086961MD1210241+9999ME1315029REMSYN098AAXX  02184 68262 32566 80000 10214 20178 38696 48502 52024 889// 333 10279 20211 91005 555 91018;EQDQ01  00002PRCP06
0234682620999992000010300004-25730+028180FM-12+1322FAPR V0209999C000010075019N0160001N1+02061+01761999999ADDAA106000191AA224000291GF108991061091008001071999KA1120M+02791KA2120N+02031MA1999999087071MD1410001+9999ME1315129REMSYN110AAXX  03004 68262 12566 80000 10206 20176 38707 48512 54000 69921 8697/ 333 10279 20203 91005 555 20002 91019;
0139682620999992000010302004-25730+028180FM-15+1322FAPR V0200601N001010030019N0112651N1+02001+01801999999ADDGA1081+003009999GF108991999999999999999999MA1101901999999MW1001REMMET045FAPR 030200Z 06002KT 9999 OVC010 20/18 Q1019;EQDQ01+000000PRSWM2
0174682620999992000010303004-25730+028180FM-15+1322FAPR V0201001N00151220001CN0112651N1+01901+01801999999ADDGA1071+003009999GA2021+009009099MA1101901999999MW1611REMMET058FAPR 030300Z 10003KT 9999 -RA BKN010 FEW030CB 19/18 Q1019;EQDQ01+000022SCOTCVQ02+000003PRSWM1Q03    003PRSWM1
0207682620999992000010304004-25730+028180FM-15+1322FAPR V0200801N00101220001CN0080001N1+01901+01701999999ADDGA1021+003009999GA2021+009009099GA3081+009009999GF108991999999999999999999MA1102001999999MW1611REMMET065FAPR 030400Z 08002KT 8000 -RA FEW010 FEW030CB OVC030 19/17 Q1020;EQDQ01+000003PRSWM1Q02    003PRSWM1
0182682620999992000010305004-25730+028180FM-15+1322FAPR V0200701N001510045019N0080001N1+01801+01701999999ADDGA1021+003009999GA2081+004509999GF108991999999999999999999MA1102101999999MW1611REMMET056FAPR 030500Z 07003KT 8000 -RA FEW010 OVC015 18/17 Q1021;EQDQ01+000003PRSWM1Q02    003PRSWM1
0381682620999992000010306004-25730+028180SY-MT+1322FAPR V0209999C000010045019N0080001N1+01781+01731999999ADDAA101005191AA224015991AY161061AY261061GA1021+003009999GA2081+004509999GF108991081061004501999999KA1240M+02791KA2120N+01761MA1102101087301MD1210211+9999ME1315349MW1611REMSYN122AAXX  03064 68262 11458 80000 10178 20173 38730 48534 52021 60164 76166 886// 333 20176 60055 91005 555 10279 20159 91022;MET056FAPR 030600Z 07003KT 8000 -RA FEW010 OVC015 18/17 Q1021;EQDQ01    003PRSWM1
0182682620999992000010307004-25730+028180FM-15+1322FAPR V0200601N001010030019N0080001N1+01801+01701999999ADDGA1021+002409999GA2081+003009999GF108991999999999999999999MA1102201999999MW1611REMMET056FAPR 030700Z 06002KT 8000 -RA FEW008 OVC010 18/17 Q1022;EQDQ01+000003PRSWM1Q02    003PRSWM1
0182682620999992000010308004-25730+028180FM-15+1322FAPR V0200801N001510240019N0112651N1+01801+01801999999ADDGA1021+003009999GA2081+024009999GF108991999999999999999999MA1102201999999MW1611REMMET056FAPR 030800Z 08003KT 9999 -RA SCT010 OVC080 18/18 Q1022;EQDQ01+000003PRSWM1Q02    003PRSWM1
0139682620999992000010309004-25730+028180FM-15+1322FAPR V0200801N001010045019N0112651N1+02001+01801999999ADDGA1081+004509999GF108991999999999999999999MA1102201999999MW1001REMMET045FAPR 030900Z 08002KT 9999 OVC015 20/18 Q1022;EQDQ01+000000PRSWM2
0139682620999992000010310004-25730+028180FM-15+1322FAPR V0200801N002110060019N0112651N1+02201+01801999999ADDGA1081+006009999GF108991999999999999999999MA1102101999999MW1001REMMET045FAPR 031000Z 08004KT 9999 OVC020 22/18 Q1021;EQDQ01+000000PRSWM2
0139682620999992000010311004-25730+028180FM-15+1322FAPR V0200801N002110075019N0112651N1+02301+01801999999ADDGA1081+007509999GF108991999999999999999999MA1102101999999MW1001REMMET045FAPR 031100Z 08004KT 9999 OVC025 23/18 Q1021;EQDQ01+000000PRSWM2
0332682620999992000010312004-25730+028180SY-MT+1322FAPR V0201101N00211006001CN0100001N1+02151+01891999999ADDAA101000191AA224003691GA1081+006009999GF108991081051008001999999KA1120M+02331KA2120N+01761MA1102001087171MD1710141+9999ME1315229MW1001REMSYN116AAXX  03124 68262 12560 81104 10215 20189 38717 48522 57014 60041 885// 333 10233 20176 69925 91007 555 20036 91020;MET045FAPR 031200Z 07002KT 9999 OVC020 22/19 Q1020;EQDQ01+000000PRSWM2
0164682620999992000010313004-25730+028180FM-15+1322FAPR V0200701N00211220001CN0112651N1+02301+01801999999ADDGA1021+006009099GA2081+006009999GF108991999999999999999999MA1102001999999MW1001REMMET054FAPR 031300Z 07004KT 9999 FEW020CB OVC020 23/18 Q1020;EQDQ01+000000PRSWM2
0234682620999992000010318004-25730+028180FM-12+1322FAPR V0209999C000010360019N0100001N1+02061+01741999999ADDAA112005192AA224004692GF106991021051008001071001KA1120M+02331KA2120N+02061MA1999999087241MD1210171+9999ME1315279REMSYN110AAXX  03184 68262 12560 60000 10206 20174 38724 48527 52017 60052 82570 333 10233 20206 91009 555 20046 91021;
0234682620999992000010400004-25730+028180FM-12+1322FAPR V0201501N002110360019N0100001N1+01881+01611999999ADDAA106005192AA224004892GF105991021061004501071001KA1120M+02331KA2120N+01881MA1999999087251MD1710101+9999ME1315299REMSYN110AAXX  04004 68262 12460 51504 10188 20161 38725 48529 57010 60051 82670 333 10233 20188 91005 555 20048 91021;
0162682620999992000010402004-25730+028180FM-15+1322FAPR V0200801N001512200019N0112651N1+01801+01501999999ADDGA1021+003009999GA2021+004509999GF102991999999999999999999MA1102101999999MW1001REMMET052FAPR 040200Z 08003KT 9999 SCT010 FEW015 18/15 Q1021;EQDQ01+000000PRSWM2
0162682620999992000010403004-25730+028180FM-15+1322FAPR V0200801N001512200019N0112651N1+01801+01401999999ADDGA1021+004509999GA2021+024009999GF104991999999999999999999MA1102101999999MW1001REMMET052FAPR 040300Z 08003KT 9999 SCT015 SCT080 18/14 Q1021;EQDQ01+000000PRSWM2
0091682620999992000010405004-25730+028180FM-15+1322FAPR V0200401N00101220001CN0099001N1+01801+01401999999ADDMA1102201999999MW1001REMMET039FAPR 040500Z 04002KT CAVOK 18/14 Q1022;EQDQ01+000000PRSWM2
0293682620999992000010406004-25730+028180SY-MT+1322FAPR V0209999C00001220001CN0160001N1+01891+01441999999ADDAA124006091GF106991061001999999071001KA1240M+02331KA2120N+01741MA1102201087341MD1210081+9999ME1315389MW1001REMSYN110AAXX  04064 68262 12966 60000 10189 20144 38734 48538 52008 60064 86070 333 20174 91006 555 10233 20060 91022;MET039FAPR 040600Z 04002KT CAVOK 19/14 Q1022;EQDQ01+000000PRSWM2
0162682620999992000010407004-25730+028180FM-15+1322FAPR V0200801N001510300019N0112651N1+02101+01501999999ADDGA1021+007509999GA2071+030009999GF107991999999999999999999MA1102201999999MW1001REMMET052FAPR 040700Z 08003KT 9999 FEW025 BKN100 21/15 Q1022;EQDQ01+000000PRSWM2
0162682620999992000010408004-25730+028180FM-15+1322FAPR V0200901N001010300019N0112651N1+02201+01601999999ADDGA1021+007509999GA2071+030009999GF107991999999999999999999MA1102201999999MW1001REMMET052FAPR 040800Z 09002KT 9999 FEW025 BKN100 22/16 Q1022;EQDQ01+000000PRSWM2
0152682620999992000010409004-25730+028180FM-15+1322FAPR V0200501N00361220001CN0112651N1+02301+01601999999ADDGA1071+007509999GA2021+030009999MA1102201999999MW1001REMMET052FAPR 040900Z 05007KT 9999 BKN025 SCT100 23/16 Q1022;EQDQ01+000042SCOTCVQ02+000000PRSWM2
0139682620999992000010410004-25730+028180FM-15+1322FAPR V0200601N002110090019N0112651N1+02401+01701999999ADDGA1081+009009999GF108991999999999999999999MA1102101999999MW1001REMMET045FAPR 041000Z 06004KT 9999 OVC030 24/17 Q1021;EQDQ01+000000PRSWM2
0139682620999992000010411004-25730+028180FM-15+1322FAPR V0209999C000012200019N0112651N1+02401+01601999999ADDGA1021+010509999GF104991999999999999999999MA1102101999999MW1001REMMET045FAPR 041100Z 00000KT 9999 SCT035 24/16 Q1021;EQDQ01+000000PRSWM2
0319682620999992000010412004-25730+028180SY-MT+1322FAPR V0200501N002110105019N0200001N1+02511+01681999999ADDAA106000091GA1071+010509999GF106991041011012501081091KA1120M+02531KA2120N+01741MA1102001087131MD1710181+9999ME1315329MW1001REMSYN098AAXX  04124 68262 32670 60504 10251 20168 38713 48532 57018 84189 333 10253 20174 91008 555 91020;MET045FAPR 041200Z 04005KT 9999 BKN035 25/18 Q1020;EQDQ01+000000PRSWM2Q02  00002PRCP06
0139682620999992000010413004-25730+028180FM-15+1322FAPR V0200501N002110120019N0112651N1+02601+01701999999ADDGA1071+012009999GF107991999999999999999999MA1101901999999MW1001REMMET045FAPR 041300Z 05004KT 9999 BKN040 26/17 Q1019;EQDQ01+000000PRSWM2
0230682620999992000010418004-25730+028180FM-12+1322FAPR V0200601N002110075019N0100001N1+02051+01861999999ADDAA106000091GF108991051051008001071999KA1120M+02681KA2120N+02021MA1999999087141MD1210181+9999ME1315309REMSYN098AAXX  04184 68262 32560 80604 10205 20186 38714 48530 52018 8557/ 333 10268 20202 91011 555 91020;EQDQ01  00002PRCP06
0234682620999992000010500004-25730+028180FM-12+1322FAPR V0200601N002110021019N0100001N1+01911+01861999999ADDAA106001091AA224001091GF107991061061002501999999KA1120M+02681KA2120N+01901MA1999999087131MD1710101+9999ME1315289REMSYN110AAXX  05004 68262 12360 70604 10191 20186 38713 48528 57010 60011 866// 333 10268 20190 91005 555 20010 91020;
0139682620999992000010502004-25730+028180FM-15+1322FAPR V0200501N002112200019N0112651N1+01801+01801999999ADDGA1021+002409999GF104991999999999999999999MA1101901999999MW1001REMMET045FAPR 050200Z 05004KT 9999 SCT008 18/18 Q1019;EQDQ01+000000PRSWM2
0162682620999992000010503004-25730+028180FM-15+1322FAPR V0200401N001510300019N0112651N1+01801+01801999999ADDGA1021+003009999GA2071+030009999GF107991999999999999999999MA1102001999999MW1001REMMET052FAPR 050300Z 04003KT 9999 FEW010 BKN100 18/18 Q1020;EQDQ01+000000PRSWM2
0162682620999992000010504004-25730+028180FM-15+1322FAPR V0200701N001010300019N0112651N1+01801+01801999999ADDGA1021+003009999GA2071+030009999GF107991999999999999999999MA1102001999999MW1001REMMET052FAPR 050400Z 07002KT 9999 FEW010 BKN100 18/18 Q1020;EQDQ01+000000PRSWM2
0162682620999992000010505004-25730+028180FM-15+1322FAPR V0200601N001510045019N0112651N1+01901+01801999999ADDGA1021+003009999GA2071+004509999GF107991999999999999999999MA1102101999999MW1001REMMET052FAPR 050500Z 06003KT 9999 FEW010 BKN015 19/18 Q1021;EQDQ01+000000PRSWM2
0338682620999992000010506004-25730+028180SY-MT+1322FAPR V0200601N002110045019N0200001N1+01981+01781999999ADDAA124001891GA1021+003009999GA2071+004509999GF107991051061004501999999KA1240M+02681KA2120N+01791MA1102101087221MD1210101+9999ME1315379MW1001REMSYN110AAXX  05064 68262 12470 70604 10198 20178 38722 48537 52010 60014 856// 333 20179 91008 555 10268 20018 91021;MET052FAPR 050600Z 04005KT 9999 FEW010 BKN015 20/18 Q1021;EQDQ01+000000PRSWM2
0162682620999992000010507004-25730+028180FM-15+1322FAPR V0200301N003110045019N0112651N1+02001+01701999999ADDGA1021+003009999GA2071+004509999GF107991999999999999999999MA1102101999999MW1001REMMET052FAPR 050700Z 03006KT 9999 SCT010 BKN015 20/17 Q1021;EQDQ01+000000PRSWM2
0139682620999992000010508004-25730+028180FM-15+1322FAPR V0200201N002110045019N0112651N1+02101+01701999999ADDGA1081+004509999GF108991999999999999999999MA1102101999999MW1001REMMET045FAPR 050800Z 02004KT 9999 OVC015 21/17 Q1021;EQDQ01+000000PRSWM2
0139682620999992000010509004-25730+028180FM-15+1322FAPR V0203501N001010060019N0112651N1+02201+01701999999ADDGA1081+006009999GF108991999999999999999999MA1102101999999MW1001REMMET045FAPR 050900Z 35002KT 9999 OVC020 22/17 Q1021;EQDQ01+000000PRSWM2
0139682620999992000010510004-25730+028180FM-15+1322FAPR V0200401N001010060019N0112651N1+02301+01701999999ADDGA1081+006009999GF108991999999999999999999MA1102101999999MW1001REMMET045FAPR 051000Z 04002KT 9999 OVC020 23/17 Q1021;EQDQ01+000000PRSWM2
0139682620999992000010511004-25730+028180FM-15+1322FAPR V0200601N002110060019N0112651N1+02401+01801999999ADDGA1071+006009999GF107991999999999999999999MA1102001999999MW1001REMMET045FAPR 051100Z 06004KT 9999 BKN020 24/18 Q1020;EQDQ01+000000PRSWM2
0319682620999992000010512004-25730+028180SY-MT+1322FAPR V0200601N002110075019N0220001N1+02471+01791999999ADDAA106000091GA1081+007509999GF108991081051008001999999KA1120M+02491KA2120N+01791MA1101901087051MD1710171+9999ME1315229MW1001REMSYN098AAXX  05124 68262 32572 80604 10247 20179 38705 48522 57017 885// 333 10249 20179 91006 555 91019;MET045FAPR 051200Z 31002KT 9999 OVC025 25/18 Q1019;EQDQ01+000000PRSWM2Q02  00002PRCP06
0139682620999992000010513004-25730+028180FM-15+1322FAPR V0203101N001510090019N0112651N1+02601+01801999999ADDGA1071+009009999GF107991999999999999999999MA1101801999999MW1001REMMET045FAPR 051300Z 31003KT 9999 BKN030 26/18 Q1018;EQDQ01+000000PRSWM2
0230682620999992000010518004-25730+028180FM-12+1322FAPR V0209999C000012200019N0200001N1+02261+01781999999ADDAA106000091GF103991011011008001001021KA1120M+02591KA2120N+02261MA1999999087001MD1210091+9999ME1315159REMSYN098AAXX  05184 68262 32570 30000 10226 20178 38700 48515 52009 81102 333 10259 20226 91001 555 91018;EQDQ01  00002PRCP06
0091682620999992000010602004-25730+028180FM-15+1322FAPR V0203101N00051220001CN0099001N1+01901+01801999999ADDMA1101801999999MW1001REMMET039FAPR 060200Z 31001KT CAVOK 19/18 Q1018;EQDQ01+000000PRSWM2
0091682620999992000010603004-25730+028180FM-15+1322FAPR V0203101N00051220001CN0099001N1+01901+01801999999ADDMA1101801999999MW1001REMMET039FAPR 060300Z 31001KT CAVOK 19/18 Q1018;EQDQ01+000000PRSWM2
0091682620999992000010605004-25730+028180FM-15+1322FAPR V0202801N00051220001CN0099001N1+02001+01801999999ADDMA1101801999999MW1001REMMET039FAPR 060500Z 28001KT CAVOK 20/18 Q1018;EQDQ01+000000PRSWM2
0297682620999992000010606004-25730+028180SY-MT+1322FAPR V0200701N003110360019N0200001N1+02251+01851999999ADDAA106000091GF105991031051012501071001KA1240M+02591KA2120N+01851MA1101801087021MD1210031+9999ME1315169MW1001REMSYN098AAXX  06064 68262 32670 50706 10225 20185 38702 48516 52003 83570 333 20185 91007 555 10259 91019;MET039FAPR 060600Z 28001KT CAVOK 20/18 Q1018;EQDQ01+000000PRSWM2Q02  00002PRCP06
0165682620999992000010607004-25730+028180FM-15+1322FAPR V0200201N001510060019N0112651N1+02301+01901999999ADDGA1071+006009999GA2021+007509029GF107991999999999999999999MA1101901999999MW1001REMMET055FAPR 060700Z 02003KT 9999 FEW025TCU BKN020 23/19 Q1019;EQDQ01+000000PRSWM2
0142682620999992000010608004-25730+028180FM-15+1322FAPR V0200101N001510090019N0112651N1+02601+01901999999ADDGA1071+009009029GF107991999999999999999999MA1101801999999MW1001REMMET048FAPR 060800Z 01003KT 9999 BKN030TCU 26/19 Q1018;EQDQ01+000000PRSWM2
0142682620999992000010609004-25730+028180FM-15+1322FAPR V0203601N001510105019N0112651N1+02601+01801999999ADDGA1071+010509029GF107991999999999999999999MA1101801999999MW1001REMMET048FAPR 060900Z 36003KT 9999 BKN035TCU 26/18 Q1018;EQDQ01+000000PRSWM2
0142682620999992000010610004-25730+028180FM-15+1322FAPR V0203101N002610105019N0112651N1+02701+01901999999ADDGA1071+010509029GF107991999999999999999999MA1101691999999MW1001REMMET048FAPR 061000Z 31005KT 9999 BKN035TCU 27/19 Q1017;EQDQ01+000000PRSWM2
0142682620999992000010611004-25730+028180FM-15+1322FAPR V0203301N003112200019N0112651N1+02801+01901999999ADDGA1021+010509029GF104991999999999999999999MA1101591999999MW1001REMMET048FAPR 061100Z 33006KT 9999 SCT035TCU 28/19 Q1016;EQDQ01+000000PRSWM2
0338682620999992000010612004-25730+028180SY-MT+1322FAPR V0203301N002110120019N0200001N1+02801+01931999999ADDAA106000091GA1071+012009029GF199999051021012501001001KA1120M+02911KA2120N+01851MA1101491086731MD1710221+9999ME1314899MW1001REMSYN098AAXX  06124 68262 32670 53304 10280 20193 38673 48489 57022 85200 333 10291 20185 91012 555 91015;MET048FAPR 061200Z 33004KT 9999 BKN040TCU 29/19 Q1015;EQDQ01+000052SCOTCVQ02+000000PRSWM2Q03  00002PRCP06
0164682620999992000010613004-25730+028180FM-15+1322FAPR V0203001N002612200019N0112651N1+02901+01801999999ADDGA1021+012009099GA2021+012009999GF104991999999999999999999MA1101391999999MW1001REMMET054FAPR 061300Z 30005KT 9999 FEW040CB SCT040 29/18 Q1014;EQDQ01+000000PRSWM2
0230682620999992000010700004-25730+028180FM-12+1322FAPR V0209999C000012200019N0200001N1+01911+01851999999ADDAA106000091GF102991021001999999071001KA1120M+02911KA2120N+01901MA1999999086721MD1710131+9999ME1314869REMSYN098AAXX  07004 68262 32970 20000 10191 20185 38672 48486 57013 82070 333 10291 20190 91003 555 91015;EQDQ01  00002PRCP06
0091682620999992000010702004-25730+028180FM-15+1322FAPR V0200801N00101220001CN0099001N1+02001+01801999999ADDMA1101491999999MW1001REMMET039FAPR 070200Z 08002KT CAVOK 20/18 Q1015;EQDQ01+000000PRSWM2
0091682620999992000010703004-25730+028180FM-15+1322FAPR V0200701N00101220001CN0099001N1+02001+01801999999ADDMA1101491999999MW1001REMMET039FAPR 070300Z 07002KT CAVOK 20/18 Q1015;EQDQ01+000000PRSWM2
0091682620999992000010704004-25730+028180FM-15+1322FAPR V0203501N00051220001CN0099001N1+02001+01801999999ADDMA1101491999999MW1001REMMET039FAPR 070400Z 35001KT CAVOK 20/18 Q1015;EQDQ01+000000PRSWM2
0091682620999992000010705004-25730+028180FM-15+1322FAPR V0203401N00101220001CN0099001N1+02101+01901999999ADDMA1101491999999MW1001REMMET039FAPR 070500Z 34002KT CAVOK 21/19 Q1015;EQDQ01+000000PRSWM2
0322682620999992000010706004-25730+028180SY-MT+1322FAPR V0209999C000012200019N0200001N1+02241+01901999999ADDAA106000091GA1021+004509029GF103991011021004501081001KA1240M+02911KA2120N+01901MA1101591086801MD1210081+9999ME1314949MW1001REMSYN098AAXX  07064 68262 32470 30000 10224 20190 38680 48494 52008 81280 333 20190 91006 555 10291 91016;MET048FAPR 070600Z 08001KT 9999 FEW015TCU 22/19 Q1016;EQDQ01+000000PRSWM2Q02  00002PRCP06
0165682620999992000010707004-25730+028180FM-15+1322FAPR V0200201N002112200019N0112651N1+02301+01801999999ADDGA1021+006009029GA2021+036009999GF104991999999999999999999MA1101591999999MW1001REMMET055FAPR 070700Z 02004KT 9999 FEW020TCU SCT120 23/18 Q1016;EQDQ01+000000PRSWM2
0155682620999992000010708004-25730+028180FM-15+1322FAPR V0203501N00211220001CN0112651N1+02501+01901999999ADDGA1071+007509029GA2021+036009999MA1101591999999MW1001REMMET055FAPR 070800Z 35004KT 9999 BKN025TCU SCT120 25/19 Q1016;EQDQ01+000042SCOTCVQ02+000000PRSWM2
0141682620999992000010709004-25730+028180FM-15+1322FAPR V0203201N002610090019N0112651N1+02601+01901999999ADDGA1071+009009099GF107991999999999999999999MA1101591999999MW1001REMMET047FAPR 070900Z 32005KT 9999 BKN030CB 26/19 Q1016;EQDQ01+000000PRSWM2
0162682620999992000010710004-25730+028180FM-15+1322FAPR V0203301N002110075019N0112651N1+02501+02001999999ADDGA1071+007509099GF107991999999999999999999MA1101591999999MW1161REMMET052FAPR 071000Z 33004KT 9999 VCSH BKN025CB 25/20 Q1016;EQDQ01+000003PRSWM1Q02    003PRSWM1
0165682620999992000010711004-25730+028180FM-15+1322FAPR V0203201N003610360019N0112651N1+02601+01801999999ADDGA1021+009009029GA2071+036009999GF107991999999999999999999MA1101591999999MW1001REMMET055FAPR 071100Z 32007KT 9999 SCT030TCU BKN120 26/18 Q1016;EQDQ01+000000PRSWM2
0345682620999992000010712004-25730+028180SY-MT+1322FAPR V0203201N003110360019N0200001N1+02501+01801999999ADDAA106000091GA1021+009009029GA2071+036009999GF107991011021008001071001KA1120M+02641KA2120N+01901MA1101491086691MD1710071+9999ME1314849MW1001REMSYN098AAXX  07124 68262 32570 73206 10250 20180 38669 48484 57007 81270 333 10264 20190 91010 555 91015;MET055FAPR 071200Z 32006KT 9999 FEW030TCU BKN120 25/18 Q1015;EQDQ01+000000PRSWM2Q02  00002PRCP06
0164682620999992000010713004-25730+028180FM-15+1322FAPR V0203401N001510360019N0112651N1+02501+01801999999ADDGA1021+009009099GA2071+036009999GF107991999999999999999999MA1101391999999MW1001REMMET054FAPR 071300Z 34003KT 9999 FEW030CB BKN120 25/18 Q1014;EQDQ01+000000PRSWM2
0230682620999992000010718004-25730+028180FM-12+1322FAPR V0202701N003112200019N0100001N1+02241+01801999999ADDAA106000091GF104991021001999999071011KA1120M+02641KA2120N+02241MA1999999086591MD1210121+9999ME1314739REMSYN098AAXX  07184 68262 32960 42706 10224 20180 38659 48473 52012 82071 333 10264 20224 91009 555 91014;EQDQ01  00002PRCP06
0230682620999992000010800004-25730+028180FM-12+1322FAPR V0209999C000010900019N0100001N1+02011+01751999999ADDAA106000091GF105991021051008001071011KA1120M+02641KA2120N+02001MA1999999086591MD1710061+9999ME1314729REMSYN098AAXX  08004 68262 32560 50000 10201 20175 38659 48472 57006 82571 333 10264 20200 91002 555 91014;EQDQ01  00002PRCP06
0162682620999992000010802004-25730+028180FM-15+1322FAPR V0202701N001012200019N0112651N1+02001+01801999999ADDGA1021+009009999GA2021+030009999GF104991999999999999999999MA1101291999999MW1001REMMET052FAPR 080200Z 27002KT 9999 SCT030 SCT100 20/18 Q1013;EQDQ01+000000PRSWM2
0162682620999992000010803004-25730+028180FM-15+1322FAPR V0203001N000512200019N0112651N1+02001+01701999999ADDGA1021+009009999GA2021+021009999GF104991999999999999999999MA1101291999999MW1001REMMET052FAPR 080300Z 30001KT 9999 FEW030 SCT070 20/17 Q1013;EQDQ01+000000PRSWM2
0091682620999992000010804004-25730+028180FM-15+1322FAPR V0203001N00051220001CN0099001N1+02001+01801999999ADDMA1101291999999MW1001REMMET039FAPR 080400Z 30001KT CAVOK 20/18 Q1013;EQDQ01+000000PRSWM2
0293682620999992000010806004-25730+028180SY-MT+1322FAPR V0202301N00211220001CN0100001N1+02401+01781999999ADDAA124000291GF102991021001999999081001KA1240M+02641KA2120N+01981MA1101291086561MD1710011+9999ME1314699MW1001REMSYN110AAXX  08064 68262 12960 22304 10240 20178 38656 48469 57001 69924 82080 333 20198 91006 555 10264 20002 91013;MET039FAPR 080600Z 24002KT CAVOK 23/18 Q1013;EQDQ01+000000PRSWM2
0139682620999992000010807004-25730+028180FM-15+1322FAPR V0202401N001512200019N0112651N1+02601+01801999999ADDGA1021+009009999GF102991999999999999999999MA1101291999999MW1001REMMET045FAPR 080700Z 24003KT 9999 FEW030 26/18 Q1013;EQDQ01+000000PRSWM2
0142682620999992000010808004-25730+028180FM-15+1322FAPR V0200801N002112200019N0112651N1+02701+01701999999ADDGA1021+012009029GF104991999999999999999999MA1101291999999MW1001REMMET048FAPR 080800Z 08004KT 9999 SCT040TCU 27/17 Q1013;EQDQ01+000000PRSWM2
0142682620999992000010809004-25730+028180FM-15+1322FAPR V0201001N002112200019N0112651N1+02701+01801999999ADDGA1021+012009029GF104991999999999999999999MA1101291999999MW1001REMMET048FAPR 080900Z 10004KT 9999 SCT040TCU 27/18 Q1013;EQDQ01+000000PRSWM2
0141682620999992000010810004-25730+028180FM-15+1322FAPR V0200601N001510120019N0112651N1+02801+01801999999ADDGA1071+012009099GF107991999999999999999999MA1101291999999MW1001REMMET047FAPR 081000Z 06003KT 9999 BKN040CB 28/18 Q1013;EQDQ01+000000PRSWM2
0140682620999992000010811004-25730+028180FM-15+1322FAPR V0200901N002112200019N0112651N1+99999+99999999999ADDGA1021+012009099GF104991999999999999999999MA1101291999999MW1001REMMET046FAPR 081100Z 09004KT 9999 SCT040CB 2/17 Q1013;EQDQ01+000000PRSWM2
0321682620999992000010812004-25730+028180SY-MT+1322FAPR V0209999C00001012001CN0100001N1+02741+01641999999ADDAA106000091GA1071+012009099GF107991031091012501071031KA1120M+02881KA2120N+01981MA1101191086421MD1710131+9999ME1314589MW1001REMSYN098AAXX  08124 68262 32660 70000 10274 20164 38642 48458 57013 83973 333 10288 20198 91005 555 91012;MET047FAPR 081200Z 08002KT 9999 BKN040CB 28/17 Q1012;EQDQ01+000000PRSWM2Q02  00002PRCP06
0141682620999992000010813004-25730+028180FM-15+1322FAPR V0202901N001012200019N0112651N1+02601+01801999999ADDGA1021+010509099GF104991999999999999999999MA1101081999999MW1001REMMET047FAPR 081300Z 29002KT 9999 SCT035CB 26/18 Q1011;EQDQ01+000000PRSWM2
0268682620999992000010818004-25730+028180FM-12+1322FAPR V0201301N002110360019N0100001N1+02071+01691999999ADDAA101000191AA224001691AY191061AY291061GF106991021091008001071001KA1120M+02881KA2120N+02051MA1999999086661MD1210171+9999ME1314819MW1011REMSYN122AAXX  08184 68262 11560 61304 10207 20169 38666 48481 52017 60022 70199 82970 333 10288 20205 69925 91011 555 20016 91014;
0234682620999992000010900004-25730+028180FM-12+1322FAPR V0209999C000010360019N0100001N1+01891+01521999999ADDAA106002092AA224001692GF107991021051008001071999KA1120M+02881KA2120N+01871MA1999999086711MD1710151+9999ME1314879REMSYN110AAXX  09004 68262 12560 70000 10189 20152 38671 48487 57015 60021 8257/ 333 10288 20187 91008 555 20016 91015;
0162682620999992000010902004-25730+028180FM-15+1322FAPR V0200601N001010300019N0112651N1+01801+01501999999ADDGA1021+007509999GA2071+030009999GF107991999999999999999999MA1101491999999MW1001REMMET052FAPR 090200Z 06002KT 9999 FEW025 BKN100 18/15 Q1015;EQDQ01+000000PRSWM2
0162682620999992000010903004-25730+028180FM-15+1322FAPR V0200401N001012200019N0112651N1+01801+01501999999ADDGA1021+003009999GA2021+004509999GF104991999999999999999999MA1101391999999MW1001REMMET052FAPR 090300Z 04002KT 9999 FEW010 SCT015 18/15 Q1014;EQDQ01+000000PRSWM2
0139682620999992000010904004-25730+028180FM-15+1322FAPR V0200601N001510060019N0112651N1+01801+01501999999ADDGA1081+006009999GF108991999999999999999999MA1101491999999MW1001REMMET045FAPR 090400Z 06003KT 9999 OVC020 18/15 Q1015;EQDQ01+000000PRSWM2
0139682620999992000010905004-25730+028180FM-15+1322FAPR V0200601N001510060019N0112651N1+01901+01601999999ADDGA1081+006009999GF108991999999999999999999MA1101591999999MW1001REMMET045FAPR 090500Z 06003KT 9999 OVC020 19/16 Q1016;EQDQ01+000000PRSWM2
0139682620999992000010907004-25730+028180FM-15+1322FAPR V0200601N001510045019N0112651N1+02001+01601999999ADDGA1071+004509999GF107991999999999999999999MA1101591999999MW1001REMMET045FAPR 090700Z 06003KT 9999 BKN015 20/16 Q1016;EQDQ01+000000PRSWM2
0139682620999992000010908004-25730+028180FM-15+1322FAPR V0200601N002110075019N0112651N1+02101+01601999999ADDGA1071+007509999GF107991999999999999999999MA1101591999999MW1001REMMET045FAPR 090800Z 06004KT 9999 BKN025 21/16 Q1016;EQDQ01+000000PRSWM2
0139682620999992000010909004-25730+028180FM-15+1322FAPR V0200201N002110075019N0112651N1+02201+01601999999ADDGA1071+007509999GF107991999999999999999999MA1101491999999MW1001REMMET045FAPR 090900Z 02004KT 9999 BKN025 22/16 Q1015;EQDQ01+000000PRSWM2
0139682620999992000010910004-25730+028180FM-15+1322FAPR V0200601N001510075019N0112651N1+02301+01701999999ADDGA1071+007509999GF107991999999999999999999MA1101491999999MW1001REMMET045FAPR 091000Z 06003KT 9999 BKN025 23/17 Q1015;EQDQ01+000000PRSWM2
0162682620999992000010911004-25730+028180FM-15+1322FAPR V0203601N001510240019N0112651N1+02501+01801999999ADDGA1021+007509999GA2071+024009999GF107991999999999999999999MA1101391999999MW1001REMMET052FAPR 091100Z 36003KT 9999 SCT025 BKN080 25/18 Q1014;EQDQ01+000000PRSWM2
0358682620999992000010912004-25730+028180SY-MT+1322FAPR V0209999C00001024001CN0200001N1+02501+01721999999ADDAA106000091GA1021+009009999GA2071+024009999GF199999031051008001031001KA1120M+02521KA2120N+01831MA1101391086571MD1710161+9999ME1314729MW1001REMSYN098AAXX  09124 68262 32570 60000 10250 20172 38657 48472 57016 83530 333 10252 20183 91009 555 91013;MET052FAPR 091200Z 03004KT 9999 SCT030 BKN080 25/17 Q1014;EQDQ01+000062SCOTCVQ02+000000PRSWM2Q03  00002PRCP06
0139682620999992000010913004-25730+028180FM-15+1322FAPR V0200201N002110090019N0112651N1+02401+01601999999ADDGA1071+009009999GF107991999999999999999999MA1101291999999MW1001REMMET045FAPR 091300Z 02004KT 9999 BKN030 24/16 Q1013;EQDQ01+000000PRSWM2
0230682620999992000010918004-25730+028180FM-12+1322FAPR V0209999C000012200019N0200001N1+02261+01661999999ADDAA106000091GF103991021001999999071051KA1120M+02611KA2120N+02261MA1999999086531MD1210081+9999ME1314689REMSYN098AAXX  09184 68262 32970 30000 10226 20166 38653 48468 52008 82075 333 10261 20226 91002 555 91013;EQDQ01  00002PRCP06
0230682620999992000011000004-25730+028180FM-12+1322FAPR V0209999C000019999999N0200001N1+01971+01751999999ADDAA106000091GF105991051001999999071001KA1120M+02611KA2120N+01951MA1999999086631MD1710071+9999ME1314779REMSYN098AAXX  10004 68262 32970 50000 10197 20175 38663 48477 57007 85070 333 10261 20195 91003 555 91014;EQDQ01  00002PRCP06
0091682620999992000011002004-25730+028180FM-15+1322FAPR V0200501N00101220001CN0099001N1+01901+01701999999ADDMA1101391999999MW1001REMMET039FAPR 100200Z 05002KT CAVOK 19/17 Q1014;EQDQ01+000000PRSWM2
0091682620999992000011003004-25730+028180FM-15+1322FAPR V0200301N00051220001CN0099001N1+01901+01801999999ADDMA1101391999999MW1001REMMET039FAPR 100300Z 03001KT CAVOK 19/18 Q1014;EQDQ01+000000PRSWM2
0091682620999992000011004004-25730+028180FM-15+1322FAPR V0203301N00051220001CN0099001N1+01801+01701999999ADDMA1101391999999MW1001REMMET039FAPR 100400Z 33001KT CAVOK 18/17 Q1014;EQDQ01+000000PRSWM2
0091682620999992000011005004-25730+028180FM-15+1322FAPR V0203101N00101220001CN0099001N1+01901+01801999999ADDMA1101391999999MW1001REMMET039FAPR 100500Z 31002KT CAVOK 19/18 Q1014;EQDQ01+000000PRSWM2
0311682620999992000011006004-25730+028180SY-MT+1322FAPR V0209999C000012200019N0200001N1+02171+01831999999ADDAA106000091GF102991021051004501001001KA1240M+02611KA2120N+01801MA1101391086651MD1210071+9999ME1314789MW1001REMSYN098AAXX  10064 68262 32470 20000 10217 20183 38665 48478 52007 82500 333 20180 91005 555 10261 91014;MET053FAPR 100600Z AUTO 27002KT //// // ////// 22/18 Q1014;EQDQ01+000000PRSWM2Q02  00002PRCP06
0139682620999992000011007004-25730+028180FM-15+1322FAPR V0202501N001012200019N0112651N1+02401+01801999999ADDGA1021+007509999GF104991999999999999999999MA1101391999999MW1001REMMET045FAPR 100700Z 25002KT 9999 SCT025 24/18 Q1014;EQDQ01+000000PRSWM2
0139682620999992000011008004-25730+028180FM-15+1322FAPR V0203301N001012200019N0112651N1+02601+01801999999ADDGA1021+009009999GF104991999999999999999999MA1101391999999MW1001REMMET045FAPR 100800Z 33002KT 9999 SCT030 26/18 Q1014;EQDQ01+000000PRSWM2
0139682620999992000011009004-25730+028180FM-15+1322FAPR V0203301N001010105019N0112651N1+02701+01701999999ADDGA1071+010509999GF107991999999999999999999MA1101391999999MW1001REMMET045FAPR 100900Z 33002KT 9999 BKN035 27/17 Q1014;EQDQ01+000000PRSWM2
0165682620999992000011010004-25730+028180FM-15+1322FAPR V0200401N002112200019N0112651N1+02601+01801999999ADDGA1021+010509029GA2021+010509999GF104991999999999999999999MA1101391999999MW1001REMMET055FAPR 101000Z 04004KT 9999 SCT035TCU SCT035 26/18 Q1014;EQDQ01+000000PRSWM2
0164682620999992000011011004-25730+028180FM-15+1322FAPR V0200401N002112200019N0112651N1+02801+01801999999ADDGA1021+010509099GA2021+012009999GF104991999999999999999999MA1101291999999MW1001REMMET054FAPR 101100Z 04004KT 9999 SCT035CB SCT040 28/18 Q1013;EQDQ01+000000PRSWM2
0387682620999992000011012004-25730+028180SY-MT+1322FAPR V0209999C00001030001CN0100001N1+02221+01781999999ADDAA101002092AA224001692GA1021+009009099GA2021+010509999GA3071+030009999GF107991031091008001071999KA1120M+02811KA2120N+01801MA1101291086511MD1710091+9999ME1314669MW1001REMSYN116AAXX  10124 68262 12560 70000 10222 20178 38651 48466 57009 60021 8397/ 333 10281 20180 60025 91004 555 20016 91013;MET068FAPR 101200Z 25004KT 9999 SCT030CB FEW035 BKN100 22/18 Q1013 RERATS;EQDQ01+000000PRSWM2
0164682620999992000011013004-25730+028180FM-15+1322FAPR V0202401N001512200019N0112651N1+02701+01801999999ADDGA1021+012009099GA2021+012009999GF102991999999999999999999MA1101191999999MW1001REMMET054FAPR 101300Z 24003KT 9999 FEW040CB FEW040 27/18 Q1012;EQDQ01+000000PRSWM2
0234682620999992000011018004-25730+028180FM-12+1322FAPR V0209999C000012200019N0200001N1+02261+01551999999ADDAA112002092AA224001692GF102991021001999999071001KA1120M+02981KA2120N+02221MA1999999086551MD1210151+9999ME1314719REMSYN110AAXX  10184 68262 12970 20000 10226 20155 38655 48471 52015 60022 82070 333 10298 20222 91001 555 20016 91013;
0262682620999992000011100004-25730+028180FM-12+1322FAPR V0200801N002112200019N0200001N1+02061+01581999999ADDAA106002092AA224001692AY101061AY201061GF103991031001999999071001KA1120M+02981KA2120N+02051MA1999999086751MD1710021+9999ME1314919MW1131REMSYN116AAXX  11004 68262 11970 30804 10206 20158 38675 48491 57002 60021 71300 83070 333 10298 20205 91006 555 20016 91015;
0091682620999992000011102004-25730+028180FM-15+1322FAPR V0200801N00101220001CN0099001N1+02001+01601999999ADDMA1101491999999MW1001REMMET039FAPR 110200Z 08002KT CAVOK 20/16 Q1015;EQDQ01+000000PRSWM2
0141682620999992000011103004-25730+028180FM-15+1322FAPR V0203401N000512200019N0112651N1+01901+01601999999ADDGA1021+006009099GF102991999999999999999999MA1101491999999MW1001REMMET047FAPR 110300Z 34001KT 9999 FEW020CB 19/16 Q1015;EQDQ01+000000PRSWM2
0164682620999992000011104004-25730+028180FM-15+1322FAPR V0203001N001012200019N0112651N1+01901+01601999999ADDGA1021+004509999GA2021+006009099GF102991999999999999999999MA1101591999999MW1001REMMET054FAPR 110400Z 30002KT 9999 FEW020CB FEW015 19/16 Q1016;EQDQ01+000000PRSWM2
0139682620999992000011105004-25730+028180FM-15+1322FAPR V0200501N001510060019N0112651N1+02001+01701999999ADDGA1071+006009999GF107991999999999999999999MA1101691999999MW1001REMMET045FAPR 110500Z 05003KT 9999 BKN020 20/17 Q1017;EQDQ01+000000PRSWM2
0315682620999992000011106004-25730+028180SY-MT+1322FAPR V0200801N002112200019N0160001N1+02201+01651999999ADDAA124002591GA1021+006009999GF104991031051008001071001KA1240M+02981KA2120N+01841MA1101691086871MD1210121+9999ME1315049MW1001REMSYN110AAXX  11064 68262 12566 40804 10220 20165 38687 48504 52012 60024 83570 333 20184 91009 555 10298 20025 91017;MET045FAPR 110600Z 06003KT 9999 SCT020 22/17 Q1017;EQDQ01+000000PRSWM2
0139682620999992000011107004-25730+028180FM-15+1322FAPR V0200601N002612200019N0112651N1+02301+01601999999ADDGA1021+009009999GF104991999999999999999999MA1101691999999MW1001REMMET045FAPR 110700Z 06005KT 9999 SCT030 23/16 Q1017;EQDQ01+000000PRSWM2
0139682620999992000011108004-25730+028180FM-15+1322FAPR V0200601N001512200019N0112651N1+02401+01201999999ADDGA1021+012009999GF102991999999999999999999MA1101591999999MW1001REMMET045FAPR 110800Z 06003KT 9999 FEW040 24/12 Q1016;EQDQ01+000000PRSWM2
0139682620999992000011109004-25730+028180FM-15+1322FAPR V0200501N003112200019N0112651N1+02601+01001999999ADDGA1021+015009999GF102991999999999999999999MA1101591999999MW1001REMMET045FAPR 110900Z 05006KT 9999 FEW050 26/10 Q1016;EQDQ01+000000PRSWM2
0139682620999992000011110004-25730+028180FM-15+1322FAPR V0200601N001012200019N0112651N1+02701+01001999999ADDGA1021+015009999GF102991999999999999999999MA1101591999999MW1001REMMET045FAPR 111000Z 06002KT 9999 FEW050 27/10 Q1016;EQDQ01+000000PRSWM2
0139682620999992000011111004-25730+028180FM-15+1322FAPR V0200701N002112200019N0112651N1+02801+00701999999ADDGA1021+015009999GF102991999999999999999999MA1101491999999MW1001REMMET045FAPR 111100Z 07004KT 9999 FEW050 28/07 Q1015;EQDQ01+000000PRSWM2
0335682620999992000011112004-25730+028180SY-MT+1322FAPR V0209999C000012200019N0160001N1+02831+00811999999ADDAA106000091GA1021+015009999GF199999011011017501001001KA1120M+02881KA2120N+01841MA1101491086641MD1710161+9999ME1314869MW1001REMSYN098AAXX  11124 68262 32766 10000 10283 20081 38664 48486 57016 81100 333 10288 20184 91010 555 91014;MET045FAPR 111200Z 07005KT 9999 FEW050 28/09 Q1015;EQDQ01+000012SCOTCVQ02+000000PRSWM2Q03  00002PRCP06
0091682620999992000011113004-25730+028180FM-15+1322FAPR V0200601N00151220001CN0099001N1+02901+00801999999ADDMA1101391999999MW1001REMMET039FAPR 111300Z 06003KT CAVOK 29/08 Q1014;EQDQ01+000000PRSWM2
0230682620999992000011118004-25730+028180FM-12+1322FAPR V0200401N002112200019N0200001N1+02441+01331999999ADDAA106000091GF101991001001999999001011KA1120M+02961KA2120N+02441MA1999999086621MD1210161+9999ME1314809REMSYN098AAXX  11184 68262 32970 10404 10244 20133 38662 48480 52016 80001 333 10296 20244 91007 555 91014;EQDQ01  00002PRCP06
0240682620999992000011200004-25730+028180FM-12+1322FAPR V0209999C000012200019N0200001N1+02031+01401999999ADDAA106000091GA1001+999999999GF100991001001999999001001KA1120M+02961KA2120N+02031MA1999999086741MD1710021+9999ME1314919REMSYN092AAXX  12004 68262 32970 00000 10203 20140 38674 48491 57002 333 10296 20203 91008 555 91015;EQDQ01  00002PRCP06
0091682620999992000011202004-25730+028180FM-15+1322FAPR V0200901N00151220001CN0099001N1+01901+01401999999ADDMA1101491999999MW1001REMMET039FAPR 120200Z 09003KT CAVOK 19/14 Q1015;EQDQ01+000000PRSWM2
0091682620999992000011203004-25730+028180FM-15+1322FAPR V0200801N00101220001CN0099001N1+01901+01501999999ADDMA1101491999999MW1001REMMET039FAPR 120300Z 08002KT CAVOK 19/15 Q1015;EQDQ01+000000PRSWM2
0091682620999992000011204004-25730+028180FM-15+1322FAPR V0200901N00151220001CN0099001N1+01901+01501999999ADDMA1101491999999MW1001REMMET039FAPR 120400Z 09003KT CAVOK 19/15 Q1015;EQDQ01+000000PRSWM2
0091682620999992000011205004-25730+028180FM-15+1322FAPR V0200701N00151220001CN0099001N1+01901+01501999999ADDMA1101591999999MW1001REMMET039FAPR 120500Z 07003KT CAVOK 19/15 Q1016;EQDQ01+000000PRSWM2
0291682620999992000011206004-25730+028180SY-MT+1322FAPR V0200401N00211220001CN0200001N1+02221+01511999999ADDAA106000091GF100991001001999999001001KA1240M+02961KA2120N+01861MA1101591086781MD1210081+9999ME1314959MW1001REMSYN092AAXX  12064 68262 32970 00404 10222 20151 38678 48495 52008 333 20186 91008 555 10296 91016;MET039FAPR 120600Z 04003KT CAVOK 21/16 Q1016;EQDQ01+000000PRSWM2Q02  00002PRCP06
0091682620999992000011207004-25730+028180FM-15+1322FAPR V0203601N00151220001CN0099001N1+02401+01501999999ADDMA1101591999999MW1001REMMET039FAPR 120700Z 36003KT CAVOK 24/15 Q1016;EQDQ01+000000PRSWM2
0139682620999992000011208004-25730+028180FM-15+1322FAPR V0203301N001512200019N0112651N1+02601+01601999999ADDGA1021+012009999GF102991999999999999999999MA1101591999999MW1001REMMET045FAPR 120800Z 33003KT 9999 FEW040 26/16 Q1016;EQDQ01+000000PRSWM2
0139682620999992000011209004-25730+028180FM-15+1322FAPR V0202801N002112200019N0112651N1+02701+01501999999ADDGA1021+013509999GF102991999999999999999999MA1101491999999MW1001REMMET045FAPR 120900Z 28004KT 9999 FEW045 27/15 Q1015;EQDQ01+000000PRSWM2
0091682620999992000011210004-25730+028180FM-15+1322FAPR V0202501N00101220001CN0099001N1+02801+01401999999ADDMA1101391999999MW1001REMMET039FAPR 121000Z 25002KT CAVOK 28/14 Q1014;EQDQ01+000000PRSWM2
0091682620999992000011211004-25730+028180FM-15+1322FAPR V0202301N00151220001CN0099001N1+02901+01501999999ADDMA1101391999999MW1001REMMET039FAPR 121100Z 23003KT CAVOK 29/15 Q1014;EQDQ01+000000PRSWM2
0297682620999992000011212004-25730+028180SY-MT+1322FAPR V0202301N002112200019N0200001N1+03041+01281999999ADDAA106000091GF102991021021017501001001KA1120M+03041KA2120N+01861MA1101291086521MD1710181+9999ME1314719MW1001REMSYN098AAXX  12124 68262 32770 22304 10304 20128 38652 48471 57018 82200 333 10304 20186 91009 555 91013;MET039FAPR 121200Z 29003KT CAVOK 30/14 Q1013;EQDQ01+000000PRSWM2Q02  00002PRCP06
0091682620999992000011213004-25730+028180FM-15+1322FAPR V0200901N00211220001CN0099001N1+03001+01201999999ADDMA1101191999999MW1001REMMET039FAPR 121300Z 09004KT CAVOK 30/12 Q1012;EQDQ01+000000PRSWM2
0246682620999992000011218004-25730+028180FM-12+1322FAPR V0209999C000012200019N0200001N1+02651+01361999999ADDAA106000091GF101991999031017501071001KA1120M+03241KA2120N+02651MA1999999086511MD1210151+9999ME1314699REMSYN098AAXX  12184 68262 32770 10000 10265 20136 38651 48469 52015 80370 333 10324 20265 91003 555 91013;EQDQ01+000002SCOTLCQ02  00002PRCP06
0230682620999992000011300004-25730+028180FM-12+1322FAPR V0200401N002119999999N0200001N1+02201+01741999999ADDAA106000091GF107991071001999999071999KA1120M+03241KA2120N+02201MA1999999086721MD1210031+9999ME1314889REMSYN098AAXX  13004 68262 32970 70404 10220 20174 38672 48488 52003 8707/ 333 10324 20220 91013 555 91015;EQDQ01  00002PRCP06
0162682620999992000011302004-25730+028180FM-15+1322FAPR V0200601N002610030019N0112651N1+02101+01801999999ADDGA1071+003009999GA2071+030009999GF107991999999999999999999MA1101491999999MW1001REMMET052FAPR 130200Z 06005KT 9999 BKN010 BKN100 21/18 Q1015;EQDQ01+000000PRSWM2
0162682620999992000011303004-25730+028180FM-15+1322FAPR V0200501N003110300019N0112651N1+02101+01701999999ADDGA1021+003009999GA2071+030009999GF107991999999999999999999MA1101591999999MW1001REMMET052FAPR 130300Z 05006KT 9999 SCT010 BKN100 21/17 Q1016;EQDQ01+000000PRSWM2
0184682620999992000011304004-25730+028180FM-15+1322FAPR V0202201N001510060019N0112651N1+01801+01401999999ADDGA1081+006009999GA2021+007509099GF108991999999999999999999MA1101691999999MW1611REMMET058FAPR 130400Z 22003KT 9999 -RA FEW025CB OVC020 18/14 Q1017;EQDQ01+000003PRSWM1Q02    003PRSWM1
0139682620999992000011305004-25730+028180FM-15+1322FAPR V0200901N002110060019N0112651N1+01701+01401999999ADDGA1081+006009999GF108991999999999999999999MA1101801999999MW1001REMMET045FAPR 130500Z 09004KT 9999 OVC020 17/14 Q1018;EQDQ01+000000PRSWM2
0318682620999992000011306004-25730+028180SY-MT+1322FAPR V0200701N002110060019N0200001N1+01701+01391999999ADDAA124001391GA1081+006009999GF108991081051008001999999KA1240M+03241KA2120N+01661MA1101801086981MD1210181+9999ME1315179MW1001REMSYN110AAXX  13064 68262 12570 80704 10170 20139 38698 48517 52018 60014 885// 333 20166 91013 555 10324 20013 91018;MET048FAPR 130600Z 07003G13KT 9999 OVC020 17/14 Q1018;EQDQ01+000000PRSWM2
0173682620999992000011307004-25730+028180FM-15+1322FAPR V0200701N002610270019N0112651N1+01801+01401999999ADDGA1021+006009999GA2071+027009999GF107991999999999999999999MA1101801999999MW1001OC100771REMMET055FAPR 130700Z 07005G15KT 9999 SCT020 BKN090 18/14 Q1018;EQDQ01+000000PRSWM2
0162682620999992000011308004-25730+028180FM-15+1322FAPR V0200701N002610270019N0112651N1+01901+01401999999ADDGA1021+006609999GA2071+027009999GF107991999999999999999999MA1101901999999MW1001REMMET052FAPR 130800Z 07005KT 9999 FEW022 BKN090 19/14 Q1019;EQDQ01+000000PRSWM2
0139682620999992000011309004-25730+028180FM-15+1322FAPR V0200801N002110066019N0112651N1+02001+01501999999ADDGA1081+006609999GF108991999999999999999999MA1101901999999MW1001REMMET045FAPR 130900Z 08004KT 9999 OVC022 20/15 Q1019;EQDQ01+000000PRSWM2
0139682620999992000011310004-25730+028180FM-15+1322FAPR V0200801N002610072019N0112651N1+02001+01401999999ADDGA1081+007209999GF108991999999999999999999MA1101901999999MW1001REMMET045FAPR 131000Z 08005KT 9999 OVC024 20/14 Q1019;EQDQ01+000000PRSWM2
0139682620999992000011311004-25730+028180FM-15+1322FAPR V0200601N001510075019N0112651N1+02001+01401999999ADDGA1081+007509999GF108991999999999999999999MA1101801999999MW1001REMMET045FAPR 131100Z 06003KT 9999 OVC025 20/14 Q1018;EQDQ01+000000PRSWM2
0319682620999992000011312004-25730+028180SY-MT+1322FAPR V0209999C000010075019N0200001N1+02001+01421999999ADDAA106000091GA1081+007509999GF108991081051008001999999KA1120M+02041KA2120N+01661MA1101801086981MD1710041+9999ME1315159MW1001REMSYN098AAXX  13124 68262 32570 80000 10200 20142 38698 48515 57004 885// 333 10204 20166 91006 555 91018;MET045FAPR 131200Z 09003KT 9999 OVC025 20/14 Q1018;EQDQ01+000000PRSWM2Q02  00002PRCP06
0139682620999992000011313004-25730+028180FM-15+1322FAPR V0201001N002610075019N0112651N1+02001+01401999999ADDGA1081+007509999GF108991999999999999999999MA1101801999999MW1001REMMET045FAPR 131300Z 10005KT 9999 OVC025 20/14 Q1018;EQDQ01+000000PRSWM2
0234682620999992000011318004-25730+028180FM-12+1322FAPR V0200901N004110042019N0100001N1+01661+01281999999ADDAA112000592AA224000492GF107991071051004501999999KA1120M+02041KA2120N+01661MA1999999087021MD1210101+9999ME1315109REMSYN110AAXX  13184 68262 12460 70908 10166 20128 38702 48510 52010 69942 875// 333 10204 20166 91011 555 20004 91019;
0272682620999992000011400004-25730+028180FM-12+132299999V0201101N002110012019N0060001N1+01341+01291999999ADDAA101016091AA224024691AY161061AY261061GF108991051061001501999999KA1120M+02041KA2120N+01341MA1999999087051MD1710081+9999ME1315209MW1811REMSYN126    AAXX  14004 68262 11256 81104 10134 20129 38705 48520 57008 60251 78166 856// 333 10204 20134 60165 91011 555 20246 91019;
0171682620999992000011402004-25730+028180FM-15+1322FAPR V0200801N00261220001CN0060001N1+01301+01201999999ADDGA1071+001809999GA2021+004509999MA1101901999999MW1631REMMET055FAPR 140200Z 08005KT 6000 RA BKN006 SCT015 13/12 Q1019;EQDQ01+000042SCOTCVQ02+000003PRSWM1Q03    003PRSWM1
0171682620999992000011403004-25730+028180FM-15+1322FAPR V0200901N00211220001CN0060001N1+01301+01201999999ADDGA1071+001809999GA2021+004509999MA1101901999999MW1631REMMET055FAPR 140300Z 09004KT 6000 RA BKN006 SCT015 13/12 Q1019;EQDQ01+000042SCOTCVQ02+000003PRSWM1Q03    003PRSWM1
0171682620999992000011404004-25730+028180FM-15+1322FAPR V0200601N00151220001CN0060001N1+01301+01201999999ADDGA1071+001809999GA2021+004509999MA1101901999999MW1631REMMET055FAPR 140400Z 06003KT 6000 RA BKN006 SCT015 13/12 Q1019;EQDQ01+000042SCOTCVQ02+000003PRSWM1Q03    003PRSWM1
0181682620999992000011405004-25730+028180FM-15+1322FAPR V0200901N002110075019N0060001N1+01301+01201999999ADDGA1021+001809999GA2081+007509999GF108991999999999999999999MA1102001999999MW1631REMMET055FAPR 140500Z 09004KT 6000 RA SCT006 OVC025 13/12 Q1020;EQDQ01+000003PRSWM1Q02    003PRSWM1
0385682620999992000011406004-25730+028180SY-MT+1322FAPR V0209999C000010180019N0060001N1+01351+01261999999ADDAA101000891AA224057291AY181061AY281061GA1021+001809999GA2081+018009999GF108991031061001501021999KA1240M+02041KA2120N+01251MA1102001087171MD1210121+9999ME1315339MW1611REMSYN126    AAXX  14064 68262 11256 80000 10135 20126 38717 48533 52012 60574 76188 8362/ 333 20125 69985 91007 555 10204 20572 91020;MET056FAPR 140600Z 06002KT 6000 -RA SCT006 OVC060 14/13 Q1020;EQDQ01    003PRSWM1
0159682620999992000011407004-25730+028180FM-15+1322FAPR V0203101N000510180019N0060001N1+01401+01301999999ADDGA1081+018009999GF108991999999999999999999MA1102001999999MW1611REMMET049FAPR 140700Z 31001KT 6000 -RA OVC060 14/13 Q1020;EQDQ01+000003PRSWM1Q02    003PRSWM1
0145682620999992000011408004-25730+028180FM-15+1322FAPR V0200701N001010240019N0090001N1+01501+01301999999ADDGA1081+024009999GF108991999999999999999999MA1102001999999MW1001REMMET051FAPR 140800Z 07002KT 9000 OVC080 15/13 Q1020 RE-RA;EQDQ01+000000PRSWM2
0091682620999992000011409004-25730+028180FM-15+1322FAPR V0203401N00051220001CN0099001N1+01501+01301999999ADDMA1102101999999MW1001REMMET039FAPR 140900Z 34001KT CAVOK 15/13 Q1021;EQDQ01+000000PRSWM2
0162682620999992000011410004-25730+028180FM-15+1322FAPR V0203401N000510300019N0112651N1+01601+01401999999ADDGA1021+003009999GA2081+030009999GF108991999999999999999999MA1102001999999MW1001REMMET052FAPR 141000Z 34001KT 9999 FEW010 OVC100 16/14 Q1020;EQDQ01+000000PRSWM2
0162682620999992000011411004-25730+028180FM-15+1322FAPR V0200701N001010300019N0112651N1+01701+01401999999ADDGA1021+004509999GA2081+030009999GF108991999999999999999999MA1102001999999MW1001REMMET052FAPR 141100Z 07002KT 9999 FEW015 OVC100 17/14 Q1020;EQDQ01+000000PRSWM2
0308682620999992000011412004-25730+028180SY-MT+132299999V0209999C000019999999N0140001N1+01781+01411999999ADDAA106001091AA224001291GF108991081001999999071999KA1120M+01781KA2120N+01251MA1101901087051MD1710151+9999ME1315219MW1001REMSYN114    AAXX  14124 68262 12964 80000 10178 20141 38705 48521 57015 60011 8807/ 333 10178 20125 91005 555 20012 91019;MET039FAPR 141200Z 27001KT CAVOK 18/14 Q1019;EQDQ01+000000PRSWM2
0091682620999992000011413004-25730+028180FM-15+1322FAPR V0201801N00051220001CN0099001N1+01801+01501999999ADDMA1101801999999MW1001REMMET039FAPR 141300Z 18001KT CAVOK 18/15 Q1018;EQDQ01+000000PRSWM2
0272682620999992000011418004-25730+028180FM-12+132299999V0200901N003110360019N0060001N1+01641+01481999999ADDAA101002091AA224002891AY121061AY221061GF108991021051004501071999KA1120M+01911KA2120N+01641MA1999999086981MD1210091+9999ME1315059MW1611REMSYN126    AAXX  14184 68262 11456 80906 10164 20148 38698 48505 52009 60032 76122 8257/ 333 10191 20164 60025 91008 555 20028 91018;
0238682620999992000011500004-25730+028180FM-12+132299999V0209999C000010060019N0100001N1+01591+01481999999ADDAA106004192AA224003692GF108991081081002501999999KA1120M+01911KA2120N+01541MA1999999086931MD1710131+9999ME1315069REMSYN114    AAXX  15004 68262 12360 80000 10159 20148 38693 48506 57013 60041 888// 333 10191 20154 91007 555 20036 91017;
0139682620999992000011502004-25730+028180FM-15+1322FAPR V0200501N002110018019N0112651N1+01601+01501999999ADDGA1081+001809999GF108991999999999999999999MA1101691999999MW1001REMMET045FAPR 150200Z 05004KT 9999 OVC006 16/15 Q1017;EQDQ01+000000PRSWM2
0139682620999992000011503004-25730+028180FM-15+1322FAPR V0200601N003610018019N0112651N1+01601+01501999999ADDGA1081+001809999GF108991999999999999999999MA1101691999999MW1001REMMET045FAPR 150300Z 06007KT 9999 OVC006 16/15 Q1017;EQDQ01+000000PRSWM2
0159682620999992000011504004-25730+028180FM-15+1322FAPR V0200401N003610018019N0080001N1+01501+01501999999ADDGA1081+001809999GF108991999999999999999999MA1101691999999MW1511REMMET049FAPR 150400Z 04007KT 8000 -DZ OVC006 15/15 Q1017;EQDQ01+000003PRSWM1Q02    003PRSWM1
0159682620999992000011505004-25730+028180FM-15+1322FAPR V0200501N003110015019N0050001N1+01501+01401999999ADDGA1081+001509999GF108991999999999999999999MA1101801999999MW1511REMMET049FAPR 150500Z 05006KT 5000 -DZ OVC005 15/14 Q1018;EQDQ01+000003PRSWM1Q02    003PRSWM1
0345682620999992000011506004-25730+028180SY-MT+1322FAPR V0200801N002110015019N0060001N1+01491+01431999999ADDAA124005091AY121061AY251061GA1081+001509999GF108991081071001501999999KA1240M+01911KA2120N+01441MA1101801087001MD1210101+9999ME1315139MW1511REMSYN120    AAXX  15064 68262 11256 80804 10149 20143 38700 48513 52010 60054 75125 887// 333 20144 91011 555 10191 20050 91018;MET049FAPR 150600Z 05005KT 6000 -DZ OVC005 15/14 Q1018;EQDQ01    003PRSWM1
0159682620999992000011507004-25730+028180FM-15+1322FAPR V0200501N002110018019N0060001N1+01601+01501999999ADDGA1081+001809999GF108991999999999999999999MA1101901999999MW1511REMMET049FAPR 150700Z 05004KT 6000 -DZ OVC006 16/15 Q1019;EQDQ01+000003PRSWM1Q02    003PRSWM1
0145682620999992000011508004-25730+028180FM-15+1322FAPR V0200301N002110024019N0112651N1+01601+01501999999ADDGA1081+002409999GF108991999999999999999999MA1101901999999MW1001REMMET051FAPR 150800Z 03004KT 9999 OVC008 16/15 Q1019 RE-DZ;EQDQ01+000000PRSWM2
0139682620999992000011509004-25730+028180FM-15+1322FAPR V0200401N002610024019N0112651N1+01701+01401999999ADDGA1081+002409999GF108991999999999999999999MA1101801999999MW1001REMMET045FAPR 150900Z 04005KT 9999 OVC008 17/14 Q1018;EQDQ01+000000PRSWM2
0159682620999992000011510004-25730+028180FM-15+1322FAPR V0203501N001010021019N0040001N1+01701+01601999999ADDGA1081+002109999GF108991999999999999999999MA1101801999999MW1611REMMET049FAPR 151000Z 35002KT 4000 -RA OVC007 17/16 Q1018;EQDQ01+000003PRSWM1Q02    003PRSWM1
0159682620999992000011511004-25730+028180FM-15+1322FAPR V0202601N001010021019N0045001N1+01601+01601999999ADDGA1081+002109999GF108991999999999999999999MA1101801999999MW1611REMMET049FAPR 151100Z 26002KT 4500 -RA OVC007 16/16 Q1018;EQDQ01+000003PRSWM1Q02    003PRSWM1
0362682620999992000011512004-25730+028180SY-MT+132299999V0202601N002110021019N0040001N1+01611+01561999999ADDAA101001091AA224006691AY121061AY261061GA1081+002109999GF108991081071002501999999KA1120M+01751KA2120N+01441MA1101691086931MD1710081+9999ME1315069MW1611REMSYN126    AAXX  15124 68262 11340 82604 10161 20156 38693 48506 57008 60071 76126 887// 333 10175 20144 60015 91006 555 20066 91017;MET049FAPR 151200Z 26003KT 4000 -RA OVC007 16/16 Q1017;EQDQ01    003PRSWM1
0159682620999992000011513004-25730+028180FM-15+1322FAPR V0202501N002110021019N0040001N1+01601+01501999999ADDGA1081+002109999GF108991999999999999999999MA1101691999999MW1611REMMET049FAPR 151300Z 25004KT 4000 -RA OVC007 16/15 Q1017;EQDQ01+000003PRSWM1Q02    003PRSWM1
0272682620999992000011518004-25730+028180FM-12+132299999V0209999C000010012019N0030001N1+01361+01301999999ADDAA101002091AA224029291AY161061AY261061GF108991081071001501999999KA1120M+01751KA2120N+01361MA1999999086911MD1210021+9999ME1314989MW1611REMSYN126    AAXX  15184 68262 11230 80000 10136 20130 38691 48498 52002 60292 76166 887// 333 10175 20136 60025 91009 555 20292 91017;
0272682620999992000011600004-25730+028180FM-12+132299999V0209999C000010021019N0045001N1+01371+01361999999ADDAA101003091AA224059291AY161061AY261061GF108991081071002501999999KA1120M+01751KA2120N+01321MA1999999086831MD1710111+9999ME1314959MW1611REMSYN126    AAXX  16004 68262 11345 80000 10137 20136 38683 48495 57011 60591 76166 887// 333 10175 20132 60035 91004 555 20592 91016;
0139682620999992000011602004-25730+028180FM-15+1322FAPR V0202701N000510021019N0050001N1+01401+01401999999ADDGA1081+002109999GF108991999999999999999999MA1101591999999MW1001REMMET045FAPR 160200Z 27001KT 5000 OVC007 14/14 Q1016;EQDQ01+000000PRSWM2
0159682620999992000011603004-25730+028180FM-15+1322FAPR V0200801N001010021019N0050001N1+01401+01401999999ADDGA1081+002109999GF108991999999999999999999MA1101591999999MW1611REMMET049FAPR 160300Z 08002KT 5000 -RA OVC007 14/14 Q1016;EQDQ01+000003PRSWM1Q02    003PRSWM1
0159682620999992000011604004-25730+028180FM-15+1322FAPR V0203101N000510024019N0050001N1+01401+01401999999ADDGA1081+002409999GF108991999999999999999999MA1101591999999MW1611REMMET049FAPR 160400Z 31001KT 5000 -RA OVC008 14/14 Q1016;EQDQ01+000003PRSWM1Q02    003PRSWM1
0159682620999992000011605004-25730+028180FM-15+1322FAPR V0203201N000510030019N0050001N1+01501+01501999999ADDGA1081+003009999GF108991999999999999999999MA1101591999999MW1611REMMET049FAPR 160500Z 32001KT 5000 -RA OVC010 15/15 Q1016;EQDQ01+000003PRSWM1Q02    003PRSWM1
0336682620999992000011606004-25730+028180SY-MT+132299999V0209999C00001003001CN0100001N1+01541+01541999999ADDAA101000191AA224068391GA1081+003009999GF108991081051004501999999KA1240M+01751KA2120N+01321MA1101691086861MD1210071+9999ME1314979MW1001REMSYN120    AAXX  16064 68262 12460 80000 10154 20154 38686 48497 52007 60684 885// 333 20132 69925 91004 555 10175 20683 91017;MET045FAPR 160600Z 02002KT 9999 OVC010 15/15 Q1017;EQDQ01+000000PRSWM2
0182682620999992000011607004-25730+028180FM-15+1322FAPR V0200701N001010030019N0112651N1+01601+01601999999ADDGA1021+002709999GA2081+003009999GF108991999999999999999999MA1101691999999MW1511REMMET056FAPR 160700Z 07002KT 9999 -DZ FEW009 OVC010 16/16 Q1017;EQDQ01+000003PRSWM1Q02    003PRSWM1
0139682620999992000011608004-25730+028180FM-15+1322FAPR V0200601N001510045019N0112651N1+01801+01601999999ADDGA1081+004509999GF108991999999999999999999MA1101691999999MW1001REMMET045FAPR 160800Z 06003KT 9999 OVC015 18/16 Q1017;EQDQ01+000000PRSWM2
0139682620999992000011610004-25730+028180FM-15+1322FAPR V0200201N001010060019N0112651N1+02001+01601999999ADDGA1081+006009999GF108991999999999999999999MA1101591999999MW1001REMMET045FAPR 161000Z 02002KT 9999 OVC020 20/16 Q1016;EQDQ01+000000PRSWM2
0139682620999992000011611004-25730+028180FM-15+1322FAPR V0200401N001010075019N0112651N1+02001+01601999999ADDGA1081+007509999GF108991999999999999999999MA1101491999999MW1001REMMET045FAPR 161100Z 04002KT 9999 OVC025 20/16 Q1015;EQDQ01+000000PRSWM2
0307682620999992000011612004-25730+028180SY-MT+132299999V0209999C000010075019N0100001N1+02101+01641999999ADDAA199000021GA1081+007509999GF108991081051008001999999KA1120M+02121KA2120N+01321MA1101491086721MD1710101+9999ME1314869MW1001REMSYN102    AAXX  16124 68262 32560 80000 10210 20164 38672 48486 57010 885// 333 10212 20132 91004 555 91015;MET045FAPR 161200Z 07003KT 9999 OVC025 21/16 Q1015;EQDQ01+000000PRSWM2
0159682620999992000011613004-25730+028180FM-15+1322FAPR V0202401N001010030019N0050001N1+01901+01801999999ADDGA1081+003009999GF108991999999999999999999MA1101491999999MW1611REMMET049FAPR 161300Z 24002KT 5000 -RA OVC010 19/18 Q1015;EQDQ01+000003PRSWM1Q02    003PRSWM1
0272682620999992000011618004-25730+028180FM-12+132299999V0209999C000010021019N0050001N1+01611+01411999999ADDAA101000591AA224004291AY161061AY261061GF108991081071002501999999KA1120M+02121KA2120N+01611MA1999999086881MD1210171+9999ME1314969MW1611REMSYN126    AAXX  16184 68262 11350 80000 10161 20141 38688 48496 52017 60042 76166 887// 333 10212 20161 69945 91018 555 20042 91017;
0238682620999992000011700004-25730+028180FM-12+132299999V0209999C000010360019N0070001N1+01571+01301999999ADDAA106006192AA224006092GF107991031061002501021999KA1120M+02121KA2120N+01471MA1999999086861MD1710111+9999ME1315009REMSYN114    AAXX  17004 68262 12357 70000 10157 20130 38686 48500 57011 60061 8362/ 333 10212 20147 91009 555 20060 91017;
0139682620999992000011702004-25730+028180FM-15+1322FAPR V0200701N001510024019N0090001N1+01601+01301999999ADDGA1071+002409999GF107991999999999999999999MA1101691999999MW1001REMMET045FAPR 170200Z 07003KT 9000 BKN008 16/13 Q1017;EQDQ01+000000PRSWM2
0170682620999992000011703004-25730+028180FM-15+1322FAPR V0200701N001510030019N0090001N1+01601+01301999999ADDGA1071+003009999GF107991999999999999999999MA1101691999999MW1611OC100671REMMET052FAPR 170300Z 07003G13KT 9000 -RA BKN010 16/13 Q1017;EQDQ01+000003PRSWM1Q02    003PRSWM1
0168682620999992000011704004-25730+028180FM-15+1322FAPR V0200801N001510060019N0090001N1+01601+01301999999ADDGA1021+003009999GA2081+006009999GF108991999999999999999999MA1101801999999MW1001REMMET058FAPR 170400Z 08003KT 9000 FEW010 OVC020 16/13 Q1018 RE-RA;EQDQ01+000000PRSWM2
0139682620999992000011705004-25730+028180FM-15+1322FAPR V0200801N002110060019N0112651N1+01601+01201999999ADDGA1081+006009999GF108991999999999999999999MA1101801999999MW1001REMMET045FAPR 170500Z 08004KT 9999 OVC020 16/12 Q1018;EQDQ01+000000PRSWM2
0374682620999992000011706004-25730+028180SY-MT+132299999V0209999C00001006001CN0100001N1+01631+01211999999ADDAA101000191AA224007591AY161061AY221061GA1081+006009999GF108991081051008001999999KA1240M+02121KA2120N+01471MA1101801087021MD1210141+9999ME1315189MW1021REMSYN126    AAXX  17064 68262 11560 80000 10163 20121 38702 48518 52014 60084 70262 885// 333 20147 69925 91011 555 10212 20075 91019;MET045FAPR 170600Z 08005KT 9999 OVC020 16/12 Q1018;EQDQ01+000000PRSWM2Q02    003PRSWM1
0173682620999992000011707004-25730+028180FM-15+1322FAPR V0200801N002610270019N0112651N1+01701+01201999999ADDGA1021+007509999GA2071+027009999GF107991999999999999999999MA1101901999999MW1001OC100821REMMET055FAPR 170700Z 08005G16KT 9999 SCT025 BKN090 17/12 Q1019;EQDQ01+000000PRSWM2
0162682620999992000011708004-25730+028180FM-15+1322FAPR V0200801N002110270019N0112651N1+01701+01201999999ADDGA1021+007509999GA2071+027009999GF107991999999999999999999MA1101901999999MW1001REMMET052FAPR 170800Z 08004KT 9999 SCT025 BKN090 17/12 Q1019;EQDQ01+000000PRSWM2
0162682620999992000011709004-25730+028180FM-15+1322FAPR V0200401N001510270019N0112651N1+01801+01201999999ADDGA1021+007509999GA2071+027009999GF107991999999999999999999MA1101901999999MW1001REMMET052FAPR 170900Z 04003KT 9999 FEW025 BKN090 18/12 Q1019;EQDQ01+000000PRSWM2
0162682620999992000011710004-25730+028180FM-15+1322FAPR V0200401N001510300019N0112651N1+01901+01201999999ADDGA1021+009009999GA2071+030009999GF107991999999999999999999MA1101901999999MW1001REMMET052FAPR 171000Z 04003KT 9999 FEW030 BKN100 19/12 Q1019;EQDQ01+000000PRSWM2
0162682620999992000011711004-25730+028180FM-15+1322FAPR V0200201N001010300019N0112651N1+02001+01301999999ADDGA1021+009009999GA2071+030009999GF107991999999999999999999MA1101801999999MW1001REMMET052FAPR 171100Z 02002KT 9999 SCT030 BKN100 20/13 Q1018;EQDQ01+000000PRSWM2
0330682620999992000011712004-25730+028180SY-MT+132299999V0201201N00211030001CN0100001N1+02101+01301999999ADDAA199000021GA1021+009009999GA2071+030009999GF108991011051008001071999KA1120M+02121KA2120N+01471MA1101801086961MD1710061+9999ME1315139MW1001REMSYN102    AAXX  17124 68262 32560 81204 10210 20130 38696 48513 57006 8157/ 333 10212 20147 91012 555 91018;MET052FAPR 171200Z 08003KT 9999 FEW030 BKN100 21/13 Q1018;EQDQ01+000000PRSWM2
0162682620999992000011713004-25730+028180FM-15+1322FAPR V0200901N001010300019N0112651N1+02101+01301999999ADDGA1021+009009999GA2071+030009999GF107991999999999999999999MA1101801999999MW1001REMMET052FAPR 171300Z 09002KT 9999 FEW030 BKN100 21/13 Q1018;EQDQ01+000000PRSWM2
0234682620999992000011718004-25730+028180FM-12+132299999V0209999C000010360019N0100001N1+01881+01231999999ADDAA199000091GF106991041051008001071999KA1120M+02121KA2120N+01881MA1999999087171MD1210221+9999ME1315289REMSYN102    AAXX  17184 68262 32560 60000 10188 20123 38717 48528 52022 8457/ 333 10212 20188 91013 555 91020;EQDQ01  00002PRCP99
0234682620999992000011800004-25730+028180FM-12+132299999V0201401N002119999999N0140001N1+01381+00801999999ADDAA199000091GF106991061001999999081001KA1120M+02121KA2120N+01381MA1999999087251MD1710031+9999ME1315459REMSYN102    AAXX  18004 68262 32964 61404 10138 20080 38725 48545 57003 86080 333 10212 20138 91013 555 91021;EQDQ01  00002PRCP99
0102682620999992000011802004-25730+028180FM-15+1322FAPR V0200901N00211220001CN0099001N1+01301+00801999999ADDMA1102101999999MW1001OC100871REMMET042FAPR 180200Z 09004G17KT CAVOK 13/08 Q1021;EQDQ01+000000PRSWM2
0102682620999992000011803004-25730+028180FM-15+1322FAPR V0200901N00211220001CN0099001N1+01301+00801999999ADDMA1102101999999MW1001OC100871REMMET042FAPR 180300Z 09004G17KT CAVOK 13/08 Q1021;EQDQ01+000000PRSWM2
0150682620999992000011804004-25730+028180FM-15+1322FAPR V0200901N002112200019N0112651N1+01301+00701999999ADDGA1021+007509999GF102991999999999999999999MA1102101999999MW1001OC100771REMMET048FAPR 180400Z 09004G15KT 9999 FEW025 13/07 Q1021;EQDQ01+000000PRSWM2
0139682620999992000011805004-25730+028180FM-15+1322FAPR V0201001N003112200019N0112651N1+01301+00701999999ADDGA1021+009009999GF102991999999999999999999MA1102201999999MW1001REMMET045FAPR 180500Z 10006KT 9999 FEW030 13/07 Q1022;EQDQ01+000000PRSWM2
0334682620999992000011806004-25730+028180SY-MT+132299999V0200801N004112200019N0140001N1+01541+00671999999ADDAA199000091GA1021+010509999GF103991011011012501071001KA1240M+02121KA2120N+01271MA1102201087341MD1210091+9999ME1315559MW1001OC100981REMSYN102    AAXX  18064 68262 32664 30808 10154 20067 38734 48555 52009 81170 333 20127 91017 555 10212 91022;MET048FAPR 180600Z 09006G19KT 9999 FEW035 15/07 Q1022;EQDQ01+000000PRSWM2Q02  00002PRCP99
0150682620999992000011807004-25730+028180FM-15+1322FAPR V0200801N003612200019N0112651N1+01701+00601999999ADDGA1021+013509999GF102991999999999999999999MA1102201999999MW1001OC101031REMMET048FAPR 180700Z 08007G20KT 9999 FEW045 17/06 Q1022;EQDQ01+000000PRSWM2
0150682620999992000011808004-25730+028180FM-15+1322FAPR V0200801N003112200019N0112651N1+01901+00601999999ADDGA1021+015009999GF102991999999999999999999MA1102301999999MW1001OC100931REMMET048FAPR 180800Z 08006G18KT 9999 FEW050 19/06 Q1023;EQDQ01+000000PRSWM2
0091682620999992000011809004-25730+028180FM-15+1322FAPR V0200801N00211220001CN0099001N1+02101+00801999999ADDMA1102201999999MW1001REMMET039FAPR 180900Z 08004KT CAVOK 21/08 Q1022;EQDQ01+000000PRSWM2
0091682620999992000011810004-25730+028180FM-15+1322FAPR V0200801N00261220001CN0099001N1+02201+00801999999ADDMA1102201999999MW1001REMMET039FAPR 181000Z 08005KT CAVOK 22/08 Q1022;EQDQ01+000000PRSWM2
0091682620999992000011811004-25730+028180FM-15+1322FAPR V0200601N00101220001CN0099001N1+02301+00901999999ADDMA1102201999999MW1001REMMET039FAPR 181100Z 06002KT CAVOK 23/09 Q1022;EQDQ01+000000PRSWM2
0323682620999992000011812004-25730+028180SY-MT+132299999V0209999C000012200019N0140001N1+02431+01061999999ADDAA199000091GA1021+015009999GF103991021011017501001011KA1120M+02441KA2120N+01271MA1102101087241MD1710141+9999ME1315479MW1001REMSYN102    AAXX  18124 68262 32764 30000 10243 20106 38724 48547 57014 82101 333 10244 20127 91008 555 91021;MET045FAPR 181200Z 05003KT 9999 SCT050 24/09 Q1021;EQDQ01+000000PRSWM2Q02  00002PRCP99
0139682620999992000011813004-25730+028180FM-15+1322FAPR V0200801N002110150019N0112651N1+02301+01001999999ADDGA1071+015009999GF107991999999999999999999MA1102101999999MW1001REMMET045FAPR 181300Z 08004KT 9999 BKN050 23/10 Q1021;EQDQ01+000000PRSWM2
0234682620999992000011818004-25730+028180FM-12+132299999V0201701N002112200019N0100001N1+01971+01041999999ADDAA199000091GF102991011041017501001091KA1120M+02441KA2120N+01971MA1999999087351MD1210161+9999ME1315509REMSYN102    AAXX  18184 68262 32760 21704 10197 20104 38735 48550 52016 81409 333 10244 20197 91008 555 91022;EQDQ01  00002PRCP99
0234682620999992000011900004-25730+028180FM-12+132299999V0209999C000012200019N0100001N1+01381+00991999999ADDAA199000091GF101991011001999999071001KA1120M+02441KA2120N+01371MA1999999087471MD1710061+9999ME1315689REMSYN102    AAXX  19004 68262 32960 10000 10138 20099 38747 48568 57006 81070 333 10244 20137 91003 555 91024;EQDQ01  00002PRCP99
0091682620999992000011902004-25730+028180FM-15+1322FAPR V0200701N00101220001CN0099001N1+01301+01001999999ADDMA1102401999999MW1001REMMET039FAPR 190200Z 07002KT CAVOK 13/10 Q1024;EQDQ01+000000PRSWM2
0091682620999992000011903004-25730+028180FM-15+1322FAPR V0200101N00051220001CN0099001N1+01301+01001999999ADDMA1102401999999MW1001REMMET039FAPR 190300Z 01001KT CAVOK 13/10 Q1024;EQDQ01+000000PRSWM2
0091682620999992000011904004-25730+028180FM-15+1322FAPR V0200701N00101220001CN0099001N1+01301+01001999999ADDMA1102401999999MW1001REMMET039FAPR 190400Z 07002KT CAVOK 13/10 Q1024;EQDQ01+000000PRSWM2
0091682620999992000011905004-25730+028180FM-15+1322FAPR V0203601N00051220001CN0099001N1+01301+00901999999ADDMA1102511999999MW1001REMMET039FAPR 190500Z 36001KT CAVOK 13/09 Q1025;EQDQ01+000000PRSWM2
0301682620999992000011906004-25730+028180SY-MT+132299999V0200801N004112200019N0140001N1+01601+00851999999ADDAA199000091GF101991011001999999041001KA1240M+02441KA2120N+01241MA1102611087661MD1210161+9999ME1315909MW1001REMSYN102    AAXX  19064 68262 32964 10808 10160 20085 38766 48590 52016 81040 333 20124 91010 555 10244 91026;MET039FAPR 190600Z 09004KT CAVOK 16/09 Q1026;EQDQ01+000000PRSWM2Q02  00002PRCP99
0091682620999992000011907004-25730+028180FM-15+1322FAPR V0200801N00151220001CN0099001N1+01701+00701999999ADDMA1102611999999MW1001REMMET039FAPR 190700Z 08003KT CAVOK 17/07 Q1026;EQDQ01+000000PRSWM2
0139682620999992000011908004-25730+028180FM-15+1322FAPR V0200901N002112200019N0112651N1+01901+00701999999ADDGA1021+012009999GF102991999999999999999999MA1102611999999MW1001REMMET045FAPR 190800Z 09004KT 9999 FEW040 19/07 Q1026;EQDQ01+000000PRSWM2
0139682620999992000011909004-25730+028180FM-15+1322FAPR V0200501N001512200019N0112651N1+02001+00601999999ADDGA1021+012009999GF102991999999999999999999MA1102511999999MW1001REMMET045FAPR 190900Z 05003KT 9999 FEW040 20/06 Q1025;EQDQ01+000000PRSWM2
0139682620999992000011910004-25730+028180FM-15+1322FAPR V0200601N003612200019N0112651N1+02101+00601999999ADDGA1021+015009999GF102991999999999999999999MA1102511999999MW1001REMMET045FAPR 191000Z 06007KT 9999 FEW050 21/06 Q1025;EQDQ01+000000PRSWM2
0139682620999992000011911004-25730+028180FM-15+1322FAPR V0200701N002612200019N0112651N1+02201+00701999999ADDGA1021+015009999GF102991999999999999999999MA1102401999999MW1001REMMET045FAPR 191100Z 07005KT 9999 FEW050 22/07 Q1024;EQDQ01+000000PRSWM2
0339682620999992000011912004-25730+028180SY-MT+132299999V0209999C000012200019N0160001N1+02341+00671999999ADDAA199000091GA1021+015009999GF199999011051017501001001KA1120M+02341KA2120N+01241MA1102301087441MD1710171+9999ME1315719MW1001REMSYN102    AAXX  19124 68262 32766 10000 10234 20067 38744 48571 57017 81500 333 10234 20124 91009 555 91023;MET045FAPR 191200Z 08003KT 9999 FEW050 23/08 Q1023;EQDQ01+000012SCOTCVQ02+000000PRSWM2Q03  00002PRCP99
0091682620999992000011913004-25730+028180FM-15+1322FAPR V0200901N00151220001CN0099001N1+02301+00901999999ADDMA1102301999999MW1001REMMET039FAPR 191300Z 09003KT CAVOK 23/09 Q1023;EQDQ01+000000PRSWM2
0240682620999992000011918004-25730+028180FM-12+1322FAPR V0209999C000012200019N0160001N1+01971+01071999999ADDAA199000091GA1001+999999999GF100991001001999999001001KA1120M+02401KA2120N+01971MA1999999087521MD1210151+9999ME1315689REMSYN092AAXX  19184 68262 32966 00000 10197 20107 38752 48568 52015 333 10240 20197 91005 555 91024;EQDQ01  00002PRCP99
0240682620999992000012000004-25730+028180FM-12+1322FAPR V0200801N002112200019N0160001N1+01631+01111999999ADDAA199000091GA1001+999999999GF100991001001999999001001KA1120M+02401KA2120N+01501MA1999999087631MD1710021+9999ME1315859REMSYN092AAXX  20004 68262 32966 00804 10163 20111 38763 48585 57002 333 10240 20150 91008 555 91025;EQDQ01  00002PRCP99
0091682620999992000012002004-25730+028180FM-15+1322FAPR V0200801N00151220001CN0099001N1+01601+01101999999ADDMA1102511999999MW1001REMMET039FAPR 200200Z 08003KT CAVOK 16/11 Q1025;EQDQ01+000000PRSWM2
0091682620999992000012003004-25730+028180FM-15+1322FAPR V0200701N00101220001CN0099001N1+01501+01101999999ADDMA1102511999999MW1001REMMET039FAPR 200300Z 07002KT CAVOK 15/11 Q1025;EQDQ01+000000PRSWM2
0091682620999992000012004004-25730+028180FM-15+1322FAPR V0200301N00051220001CN0099001N1+01501+01101999999ADDMA1102611999999MW1001REMMET039FAPR 200400Z 03001KT CAVOK 15/11 Q1026;EQDQ01+000000PRSWM2
0091682620999992000012005004-25730+028180FM-15+1322FAPR V0200801N00101220001CN0099001N1+01501+01101999999ADDMA1102711999999MW1001REMMET039FAPR 200500Z 08002KT CAVOK 15/11 Q1027;EQDQ01+000000PRSWM2
0291682620999992000012006004-25730+028180SY-MT+1322FAPR V0200501N00311220001CN0200001N1+01811+01191999999ADDAA199000091GF100991001001999999001001KA1240M+02401KA2120N+01431MA1102711087791MD1210161+9999ME1316029MW1001REMSYN092AAXX  20064 68262 32970 00506 10181 20119 38779 48602 52016 333 20143 91007 555 10240 91027;MET039FAPR 200600Z 06003KT CAVOK 17/12 Q1027;EQDQ01+000000PRSWM2Q02  00002PRCP99
0091682620999992000012007004-25730+028180FM-15+1322FAPR V0200401N00211220001CN0099001N1+01901+01201999999ADDMA1102711999999MW1001REMMET039FAPR 200700Z 04004KT CAVOK 19/12 Q1027;EQDQ01+000000PRSWM2
0139682620999992000012008004-25730+028180FM-15+1322FAPR V0201201N001012200019N0112651N1+02101+01301999999ADDGA1021+009009999GF102991999999999999999999MA1102711999999MW1001REMMET045FAPR 200800Z 12002KT 9999 FEW030 21/13 Q1027;EQDQ01+000000PRSWM2
0139682620999992000012009004-25730+028180FM-15+1322FAPR V0202501N001012200019N0112651N1+02201+01101999999ADDGA1021+012009999GF102991999999999999999999MA1102611999999MW1001REMMET045FAPR 200900Z 25002KT 9999 FEW040 22/11 Q1026;EQDQ01+000000PRSWM2
0139682620999992000012010004-25730+028180FM-15+1322FAPR V0200301N001012200019N0112651N1+02401+01101999999ADDGA1021+015009999GF102991999999999999999999MA1102611999999MW1001REMMET045FAPR 201000Z 03002KT 9999 FEW050 24/11 Q1026;EQDQ01+000000PRSWM2
0139682620999992000012011004-25730+028180FM-15+1322FAPR V0203501N001512200019N0112651N1+02401+01101999999ADDGA1021+015009999GF102991999999999999999999MA1102511999999MW1001REMMET045FAPR 201100Z 35003KT 9999 FEW050 24/11 Q1025;EQDQ01+000000PRSWM2
0335682620999992000012012004-25730+028180SY-MT+1322FAPR V0200601N002112200019N0200001N1+02591+01051999999ADDAA199000091GA1021+015009999GF199999011011017501001001KA1120M+02591KA2120N+01431MA1102401087511MD1710191+9999ME1315779MW1001REMSYN098AAXX  20124 68262 32770 10604 10259 20105 38751 48577 57019 81100 333 10259 20143 91007 555 91024;MET045FAPR 201200Z 35002KT 9999 FEW050 25/10 Q1024;EQDQ01+000012SCOTCVQ02+000000PRSWM2Q03  00002PRCP99
0139682620999992000012013004-25730+028180FM-15+1322FAPR V0200401N002112200019N0112651N1+02601+01101999999ADDGA1021+015009999GF102991999999999999999999MA1102301999999MW1001REMMET045FAPR 201300Z 04004KT 9999 FEW050 26/11 Q1023;EQDQ01+000000PRSWM2
0239682620999992000012018004-25730+028180FM-12+1322FAPR V0209999C000012200019N0200001N1+02261+00761999999ADDAA199000091GA1001+999999999GF100991001001999999001001KA1120M+02761KA2120N+02251MA1999999087431MD1210061+9999ME1315639REMSYN091AAXX  20184 68262 32970 00000 10226 20076 38743 48563 52006 333 10276 20225 91003 55 91023;EQDQ01  00002PRCP99
0240682620999992000012100004-25730+028180FM-12+1322FAPR V0209999C000012200019N0200001N1+01731+01181999999ADDAA199000091GA1001+999999999GF100991001001999999001001KA1120M+02761KA2120N+01671MA1999999087501MD1710051+9999ME1315719REMSYN092AAXX  21004 68262 32970 00000 10173 20118 38750 48571 57005 333 10276 20167 91004 555 91024;EQDQ01  00002PRCP99
0091682620999992000012102004-25730+028180FM-15+1322FAPR V0200701N00151220001CN0099001N1+01601+01201999999ADDMA1102401999999MW1001REMMET039FAPR 210200Z 07003KT CAVOK 16/12 Q1024;EQDQ01+000000PRSWM2
0091682620999992000012103004-25730+028180FM-15+1322FAPR V0200801N00151220001CN0099001N1+01601+01201999999ADDMA1102401999999MW1001REMMET039FAPR 210300Z 08003KT CAVOK 16/12 Q1024;EQDQ01+000000PRSWM2
0091682620999992000012104004-25730+028180FM-15+1322FAPR V0200701N00101220001CN0099001N1+01501+01201999999ADDMA1102401999999MW1001REMMET039FAPR 210400Z 07002KT CAVOK 15/12 Q1024;EQDQ01+000000PRSWM2
0105682620999992000012105004-25730+028180FM-15+1322FAPR V0200601N001012200019N9999999N1+01601+01301999999ADDMA1102511999999MW1001REMMET053FAPR 210500Z AUTO 06002KT //// // ////// 16/13 Q1025;EQDQ01+000000PRSWM2
0305682620999992000012106004-25730+028180SY-MT+1322FAPR V0209999C000012200019N0200001N1+01871+01381999999ADDAA199000091GF100991001001999999001001KA1240M+02761KA2120N+01531MA1102511087601MD1210091+9999ME1315809MW1001REMSYN092AAXX  21064 68262 32970 00000 10187 20138 38760 48580 52009 333 20153 91005 555 10276 91025;MET053FAPR 210600Z AUTO 03002KT //// // ////// 18/13 Q1025;EQDQ01+000000PRSWM2Q02  00002PRCP99
0139682620999992000012107004-25730+028180FM-15+1322FAPR V0202301N001012200019N0112651N1+02001+01401999999ADDGA1021+007509999GF102991999999999999999999MA1102511999999MW1001REMMET045FAPR 210700Z 23002KT 9999 FEW025 20/14 Q1025;EQDQ01+000000PRSWM2
0139682620999992000012108004-25730+028180FM-15+1322FAPR V0203301N001512200019N0112651N1+02201+01501999999ADDGA1021+009009999GF102991999999999999999999MA1102401999999MW1001REMMET045FAPR 210800Z 33003KT 9999 FEW030 22/15 Q1024;EQDQ01+000000PRSWM2
0139682620999992000012109004-25730+028180FM-15+1322FAPR V0203001N001012200019N0112651N1+02401+01401999999ADDGA1021+010509999GF102991999999999999999999MA1102401999999MW1001REMMET045FAPR 210900Z 30002KT 9999 FEW035 24/14 Q1024;EQDQ01+000000PRSWM2
0139682620999992000012110004-25730+028180FM-15+1322FAPR V0202601N001512200019N0112651N1+02501+01401999999ADDGA1021+012009999GF102991999999999999999999MA1102301999999MW1001REMMET045FAPR 211000Z 26003KT 9999 FEW040 25/14 Q1023;EQDQ01+000000PRSWM2
0139682620999992000012111004-25730+028180FM-15+1322FAPR V0203201N002112200019N0112651N1+02701+01401999999ADDGA1021+013509999GF102991999999999999999999MA1102201999999MW1001REMMET045FAPR 211100Z 32004KT 9999 FEW045 27/14 Q1022;EQDQ01+000000PRSWM2
0361682620999992000012112004-25730+028180SY-MT+1322FAPR V0200301N003112200019N0220001N1+02701+01261999999ADDAA199000091GA1021+015009029GA2021+015009999GF102991999021017501001001KA1120M+02771KA2120N+01531MA1102101087251MD1710211+9999ME1315479MW1001REMSYN098AAXX  21124 68262 32772 20306 10270 20126 38725 48547 57021 81200 333 10277 20153 91007 555 91021;MET055FAPR 211200Z 36004KT 9999 FEW050TCU FEW050 27/14 Q1021;EQDQ01+000012SCOTLCQ02+000000PRSWM2Q03  00002PRCP99
0165682620999992000012113004-25730+028180FM-15+1322FAPR V0200301N002112200019N0112651N1+02701+01401999999ADDGA1021+015009029GA2021+015009999GF102991999999999999999999MA1102101999999MW1001REMMET055FAPR 211300Z 03004KT 9999 FEW050TCU FEW050 27/14 Q1021;EQDQ01+000000PRSWM2
0230682620999992000012118004-25730+028180FM-12+1322FAPR V0209999C000012200019N0220001N1+02301+01401999999ADDAA199000091GF104991011011017501071011KA1120M+02811KA2120N+02301MA1999999087171MD1210051+9999ME1315309REMSYN098AAXX  21184 68262 32772 40000 10230 20140 38717 48530 52005 81171 333 10281 20230 91003 555 91020;EQDQ01  00002PRCP99
0240682620999992000012200004-25730+028180FM-12+1322FAPR V0209999C000012200019N0220001N1+01871+00951999999ADDAA199000091GA1001+999999999GF100991001001999999001001KA1120M+02811KA2120N+01811MA1999999087201MD1710041+9999ME1315419REMSYN092AAXX  22004 68262 32972 00000 10187 20095 38720 48541 57004 333 10281 20181 91004 555 91021;EQDQ01  00002PRCP99
0091682620999992000012202004-25730+028180FM-15+1322FAPR V0200501N00101220001CN0099001N1+01701+01001999999ADDMA1102001999999MW1001REMMET039FAPR 220200Z 05002KT CAVOK 17/10 Q1020;EQDQ01+000000PRSWM2
0091682620999992000012203004-25730+028180FM-15+1322FAPR V0203201N00051220001CN0099001N1+01601+01201999999ADDMA1102101999999MW1001REMMET039FAPR 220300Z 32001KT CAVOK 16/12 Q1021;EQDQ01+000000PRSWM2
0091682620999992000012204004-25730+028180FM-15+1322FAPR V0203201N00051220001CN0099001N1+01501+01201999999ADDMA1102101999999MW1001REMMET039FAPR 220400Z 32001KT CAVOK 15/12 Q1021;EQDQ01+000000PRSWM2
0091682620999992000012205004-25730+028180FM-15+1322FAPR V0203401N00051220001CN0099001N1+01701+01301999999ADDMA1102201999999MW1001REMMET039FAPR 220500Z 34001KT CAVOK 17/13 Q1022;EQDQ01+000000PRSWM2
0291682620999992000012206004-25730+028180SY-MT+1322FAPR V0209999C00001220001CN0220001N1+02051+01441999999ADDAA199000091GF100991001001999999001001KA1240M+02811KA2120N+01501MA1102201087291MD1210071+9999ME1315479MW1001REMSYN092AAXX  22064 68262 32972 00000 10205 20144 38729 48547 52007 333 20150 91002 555 10281 91022;MET039FAPR 220600Z 19001KT CAVOK 20/14 Q1022;EQDQ01+000000PRSWM2Q02  00002PRCP99
0091682620999992000012207004-25730+028180FM-15+1322FAPR V0203001N00151220001CN0099001N1+02301+01501999999ADDMA1102101999999MW1001REMMET039FAPR 220700Z 30003KT CAVOK 23/15 Q1021;EQDQ01+000000PRSWM2
0091682620999992000012208004-25730+028180FM-15+1322FAPR V0202901N00211220001CN0099001N1+02501+01501999999ADDMA1102101999999MW1001REMMET039FAPR 220800Z 29004KT CAVOK 25/15 Q1021;EQDQ01+000000PRSWM2
0091682620999992000012209004-25730+028180FM-15+1322FAPR V0203001N00211220001CN0099001N1+02601+01401999999ADDMA1102101999999MW1001REMMET039FAPR 220900Z 30004KT CAVOK 26/14 Q1021;EQDQ01+000000PRSWM2
0139682620999992000012210004-25730+028180FM-15+1322FAPR V0203101N002112200019N0112651N1+02701+01501999999ADDGA1021+013509999GF102991999999999999999999MA1102001999999MW1001REMMET045FAPR 221000Z 31004KT 9999 FEW045 27/15 Q1020;EQDQ01+000000PRSWM2
0139682620999992000012211004-25730+028180FM-15+1322FAPR V0202901N001512200019N0112651N1+02801+01401999999ADDGA1021+015009999GF102991999999999999999999MA1102001999999MW1001REMMET045FAPR 221100Z 29003KT 9999 FEW050 28/14 Q1020;EQDQ01+000000PRSWM2
0361682620999992000012212004-25730+028180SY-MT+1322FAPR V0202501N003112200019N0240001N1+02931+01391999999ADDAA199000091GA1021+015009029GA2021+015009999GF103991999021017501001001KA1120M+02941KA2120N+01501MA1101901087031MD1710171+9999ME1315239MW1001REMSYN098AAXX  22124 68262 32774 32506 10293 20139 38703 48523 57017 82200 333 10294 20150 91009 555 91019;MET055FAPR 221200Z 30004KT 9999 FEW050TCU FEW050 29/14 Q1019;EQDQ01+000022SCOTLCQ02+000000PRSWM2Q03  00002PRCP99
0165682620999992000012213004-25730+028180FM-15+1322FAPR V0203301N002612200019N0112651N1+03001+01401999999ADDGA1021+015009029GA2021+015009999GF102991999999999999999999MA1101801999999MW1001REMMET055FAPR 221300Z 33005KT 9999 FEW050TCU FEW050 30/14 Q1018;EQDQ01+000000PRSWM2
0262682620999992000012218004-25730+028180FM-12+1322FAPR V0209999C000012200019N0160001N1+02141+01411999999ADDAA112008991AA224009491AY191061AY201061GF102991021001999999081001KA1120M+03041KA2120N+01741MA1999999086991MD1210031+9999ME1315129MW1011REMSYN116AAXX  22184 68262 11966 20000 10214 20141 38699 48512 52003 60092 70190 82080 333 10304 20174 91003 555 20094 91018;
0244682620999992000012300004-25730+028180FM-12+1322FAPR V0209999C000012200019N0160001N1+01701+01501999999ADDAA106008991AA224009491GA1001+999999999GF100991001001999999001001KA1120M+03041KA2120N+01701MA1999999087141MD1210021+9999ME1315309REMSYN104AAXX  23004 68262 42966 00000 10170 20150 38714 48530 52002 60091 333 10304 20170 91002 555 20094 91020;
0091682620999992000012302004-25730+028180FM-15+1322FAPR V0200901N00211220001CN0099001N1+01801+01501999999ADDMA1102001999999MW1001REMMET039FAPR 230200Z 09004KT CAVOK 18/15 Q1020;EQDQ01+000000PRSWM2
0091682620999992000012303004-25730+028180FM-15+1322FAPR V0200801N00101220001CN0099001N1+01801+01501999999ADDMA1102001999999MW1001REMMET039FAPR 230300Z 08002KT CAVOK 18/15 Q1020;EQDQ01+000000PRSWM2
0091682620999992000012304004-25730+028180FM-15+1322FAPR V0200901N00151220001CN0099001N1+01801+01501999999ADDMA1102001999999MW1001REMMET039FAPR 230400Z 09003KT CAVOK 18/15 Q1020;EQDQ01+000000PRSWM2
0091682620999992000012305004-25730+028180FM-15+1322FAPR V0200901N00101220001CN0099001N1+01801+01501999999ADDMA1102101999999MW1001REMMET039FAPR 230500Z 09002KT CAVOK 18/15 Q1021;EQDQ01+000000PRSWM2
0287682620999992000012306004-25730+028180SY-MT+1322FAPR V0200401N003112200019N0200001N1+02081+01581999999ADDAA124009491GF100991001001999999001001KA1240M+03041KA2120N+01621MA1102101087271MD1210131+9999ME1315449MW1001REMSYN104AAXX  23064 68262 12970 00406 10208 20158 38727 48544 52013 60094 333 20162 91007 555 10304 20094 91021;MET039FAPR 230600Z 07002KT CAVOK 21/16 Q1021;EQDQ01+000000PRSWM2
0091682620999992000012307004-25730+028180FM-15+1322FAPR V0200501N00151220001CN0099001N1+02201+01601999999ADDMA1102101999999MW1001REMMET039FAPR 230700Z 05003KT CAVOK 22/16 Q1021;EQDQ01+000000PRSWM2
0139682620999992000012308004-25730+028180FM-15+1322FAPR V0203301N001512200019N0112651N1+02401+01601999999ADDGA1021+009009999GF102991999999999999999999MA1102101999999MW1001REMMET045FAPR 230800Z 33003KT 9999 FEW030 24/16 Q1021;EQDQ01+000000PRSWM2
0139682620999992000012309004-25730+028180FM-15+1322FAPR V0203101N001012200019N0112651N1+02501+01601999999ADDGA1021+010509999GF102991999999999999999999MA1102101999999MW1001REMMET045FAPR 230900Z 31002KT 9999 FEW035 25/16 Q1021;EQDQ01+000000PRSWM2
0139682620999992000012310004-25730+028180FM-15+1322FAPR V0203501N001512200019N0112651N1+02501+01601999999ADDGA1021+012009999GF104991999999999999999999MA1102101999999MW1001REMMET045FAPR 231000Z 35003KT 9999 SCT040 25/16 Q1021;EQDQ01+000000PRSWM2
0142682620999992000012311004-25730+028180FM-15+1322FAPR V0200201N001512200019N0112651N1+02601+01501999999ADDGA1021+013509029GF104991999999999999999999MA1102001999999MW1001REMMET048FAPR 231100Z 02003KT 9999 SCT045TCU 26/15 Q1020;EQDQ01+000000PRSWM2
0160682620999992000012312004-25730+028180FM-12+1322FAPR V0209999C000012200019N0280001N1+02871+01621999999ADDGF104991041021012501001001MD1810171+9999ME1315349REMSYN080AAXX  23124 68262 42678 40000 10287 20162 39078 48534 58017 84200 333 555 91017;EQDQ01+090783APOSP 
0142682620999992000012313004-25730+028180FM-15+1322FAPR V0200201N002612200019N0112651N1+02701+01301999999ADDGA1021+015009029GF104991999999999999999999MA1101901999999MW1001REMMET048FAPR 231300Z 02005KT 9999 SCT050TCU 27/13 Q1019;EQDQ01+000000PRSWM2
0240682620999992000012318004-25730+028180FM-12+1322FAPR V0209999C000010360019N0100001N1+01971+01411999999ADDAA101000191AA224000291GF105991021041008001071001KA1120M+02871KA2120N+01851MA1999999087121MD1210161+9999ME1315259REMSYN116AAXX  23184 68262 12560 50000 10197 20141 38712 48525 52016 69922 82470 333 10287 20185 69925 91004 555 20002 91020;
0234682620999992000012400004-25730+028180FM-12+1322FAPR V0200801N003112200019N0100001N1+01861+01451999999ADDAA106000191AA224000291GF103991031001999999071001KA1120M+02871KA2120N+01851MA1999999087271MD1710011+9999ME1315449REMSYN110AAXX  24004 68262 12960 30806 10186 20145 38727 48544 57001 69921 83070 333 10287 20185 91008 555 20002 91021;
0091682620999992000012402004-25730+028180FM-15+1322FAPR V0200701N00211220001CN0099001N1+01801+01401999999ADDMA1102101999999MW1001REMMET039FAPR 240200Z 07004KT CAVOK 18/14 Q1021;EQDQ01+000000PRSWM2
0162682620999992000012403004-25730+028180FM-15+1322FAPR V0200801N002112200019N0112651N1+01801+01401999999ADDGA1021+004509999GA2021+030009999GF104991999999999999999999MA1102101999999MW1001REMMET052FAPR 240300Z 08004KT 9999 FEW015 SCT100 18/14 Q1021;EQDQ01+000000PRSWM2
0091682620999992000012404004-25730+028180FM-15+1322FAPR V0200701N00211220001CN0099001N1+01801+01401999999ADDMA1102201999999MW1001REMMET039FAPR 240400Z 07004KT CAVOK 18/14 Q1022;EQDQ01+000000PRSWM2
0091682620999992000012405004-25730+028180FM-15+1322FAPR V0200801N00151220001CN0099001N1+01801+01401999999ADDMA1102201999999MW1001REMMET039FAPR 240500Z 08003KT CAVOK 18/14 Q1022;EQDQ01+000000PRSWM2
0293682620999992000012406004-25730+028180SY-MT+1322FAPR V0209999C000019999999N0140001N1+01931+01461999999ADDAA124000291GF108991081001999999071999KA1240M+02871KA2120N+01761MA1102201087371MD1210101+9999ME1315559MW1001REMSYN110AAXX  24064 68262 12964 80000 10193 20146 38737 48555 52010 69924 8807/ 333 20176 91006 555 10287 20002 91022;MET039FAPR 240600Z 06004KT CAVOK 19/15 Q1022;EQDQ01+000000PRSWM2
0105682620999992000012407004-25730+028180FM-15+1322FAPR V0200801N002112200019N9999999N1+02001+01501999999ADDMA1102201999999MW1001REMMET053FAPR 240700Z AUTO 08004KT //// // ////// 20/15 Q1022;EQDQ01+000000PRSWM2
0139682620999992000012408004-25730+028180FM-15+1322FAPR V0200401N002112200019N0112651N1+02201+01601999999ADDGA1021+007509999GF104991999999999999999999MA1102201999999MW1001REMMET045FAPR 240800Z 04004KT 9999 SCT025 22/16 Q1022;EQDQ01+000000PRSWM2
0139682620999992000012409004-25730+028180FM-15+1322FAPR V0200401N001510075019N0112651N1+02201+01601999999ADDGA1071+007509999GF107991999999999999999999MA1102101999999MW1001REMMET045FAPR 240900Z 04003KT 9999 BKN025 22/16 Q1021;EQDQ01+000000PRSWM2
0139682620999992000012410004-25730+028180FM-15+1322FAPR V0200301N002110090019N0112651N1+02401+01601999999ADDGA1071+009009999GF107991999999999999999999MA1102101999999MW1001REMMET045FAPR 241000Z 03004KT 9999 BKN030 24/16 Q1021;EQDQ01+000000PRSWM2
0162682620999992000012411004-25730+028180FM-15+1322FAPR V0200201N001012200019N0112651N1+02501+01701999999ADDGA1021+009009999GA2021+030009999GF104991999999999999999999MA1102001999999MW1001REMMET052FAPR 241100Z 02002KT 9999 SCT030 SCT100 25/17 Q1020;EQDQ01+000000PRSWM2
0345682620999992000012412004-25730+028180SY-MT+1322FAPR V0203501N002110360019N0160001N1+02531+01481999999ADDAA199000091GA1021+010509029GA2021+030009999GF106991041021012501071001KA1120M+02581KA2120N+01761MA1102001087151MD1710121+9999ME1315339MW1001REMSYN098AAXX  24124 68262 32666 63504 10253 20148 38715 48533 57012 84270 333 10258 20176 91008 555 91020;MET055FAPR 241200Z 05002KT 9999 SCT035TCU SCT100 26/15 Q1020;EQDQ01+000000PRSWM2Q02  00002PRCP99
0165682620999992000012413004-25730+028180FM-15+1322FAPR V0200601N001512200019N0112651N1+02601+01401999999ADDGA1021+012009029GA2021+030009999GF104991999999999999999999MA1101901999999MW1001REMMET055FAPR 241300Z 06003KT 9999 SCT040TCU SCT100 26/14 Q1019;EQDQ01+000000PRSWM2
0230682620999992000012418004-25730+028180FM-12+1322FAPR V0209999C000012200019N0160001N1+02301+01431999999ADDAA199000091GF103991031001999999071001KA1120M+02671KA2120N+02301MA1999999087051MD1210081+9999ME1315179REMSYN098AAXX  24184 68262 32966 30000 10230 20143 38705 48517 52008 83070 333 10267 20230 91004 555 91019;EQDQ01  00002PRCP99
0230682620999992000012500004-25730+028180FM-12+1322FAPR V0209999C000019999999N0100001N1+01981+01611999999ADDAA199000091GF106991061001999999071001KA1120M+02671KA2120N+01971MA1999999087151MD1710021+9999ME1315309REMSYN098AAXX  25004 68262 32960 60000 10198 20161 38715 48530 57002 86070 333 10267 20197 91002 555 91020;EQDQ01  00002PRCP99
0182682620999992000012502004-25730+028180FM-15+1322FAPR V0200701N001510270019N0112651N1+01901+01601999999ADDGA1021+004509999GA2081+027009999GF108991999999999999999999MA1102001999999MW1511REMMET056FAPR 250200Z 07003KT 9999 -DZ FEW015 OVC090 19/16 Q1020;EQDQ01+000003PRSWM1Q02    003PRSWM1
0182682620999992000012503004-25730+028180FM-15+1322FAPR V0200701N001010270019N0112651N1+01901+01501999999ADDGA1021+004509999GA2071+027009999GF107991999999999999999999MA1102001999999MW1611REMMET056FAPR 250300Z 07002KT 9999 -RA FEW015 BKN090 19/15 Q1020;EQDQ01+000003PRSWM1Q02    003PRSWM1
0159682620999992000012504004-25730+028180FM-15+1322FAPR V0200701N001010270019N0112651N1+01801+01601999999ADDGA1081+027009999GF108991999999999999999999MA1102101999999MW1611REMMET049FAPR 250400Z 07002KT 9999 -RA OVC090 18/16 Q1021;EQDQ01+000003PRSWM1Q02    003PRSWM1
0159682620999992000012505004-25730+028180FM-15+1322FAPR V0200201N000510270019N0112651N1+01801+01601999999ADDGA1081+027009999GF108991999999999999999999MA1102101999999MW1611REMMET049FAPR 250500Z 02001KT 9999 -RA OVC090 18/16 Q1021;EQDQ01+000003PRSWM1Q02    003PRSWM1
0348682620999992000012506004-25730+028180SY-MT+1322FAPR V0209999C00001220001CN0100001N1+01851+01601999999ADDAA101000191AA224001691AY161061AY261061GF108991081001999999011999KA1240M+02671KA2120N+01741MA1102101087281MD1210101+9999ME1315439MW1021REMSYN122AAXX  25064 68262 11960 80000 10185 20160 38728 48543 52010 60024 70266 8801/ 333 20174 69925 91003 555 10267 20016 91021;MET039FAPR 250600Z 34002KT CAVOK 18/16 Q1021;EQDQ01+000000PRSWM2Q02    003PRSWM1
0139682620999992000012507004-25730+028180FM-15+1322FAPR V0203301N001010090019N0112651N1+01901+01701999999ADDGA1081+009009999GF108991999999999999999999MA1102101999999MW1001REMMET045FAPR 250700Z 33002KT 9999 OVC030 19/17 Q1021;EQDQ01+000000PRSWM2
0139682620999992000012509004-25730+028180FM-15+1322FAPR V0202701N001510075019N0112651N1+02201+01701999999ADDGA1081+007509999GF108991999999999999999999MA1102101999999MW1001REMMET045FAPR 250900Z 27003KT 9999 OVC025 22/17 Q1021;EQDQ01+000000PRSWM2
0162682620999992000012510004-25730+028180FM-15+1322FAPR V0202501N002110300019N0112651N1+02401+01601999999ADDGA1021+009009999GA2071+030009999GF107991999999999999999999MA1102101999999MW1001REMMET052FAPR 251000Z 25004KT 9999 SCT030 BKN100 24/16 Q1021;EQDQ01+000000PRSWM2
0162682620999992000012511004-25730+028180FM-15+1322FAPR V0202801N002110300019N0112651N1+02301+01601999999ADDGA1021+009009999GA2071+030009999GF107991999999999999999999MA1102001999999MW1001REMMET052FAPR 251100Z 28004KT 9999 SCT030 BKN100 23/16 Q1020;EQDQ01+000000PRSWM2
0326682620999992000012512004-25730+028180SY-MT+1322FAPR V0202901N00211030001CN0100001N1+02241+01601999999ADDAA199000021GA1021+009009999GA2081+030009999GF108991021051008001071999KA1120M+02351KA2120N+01741MA1102001087161MD1710101+9999ME1315329MW1001REMSYN098AAXX  25124 68262 32560 82904 10224 20160 38716 48532 57010 8257/ 333 10235 20174 91008 555 91020;MET052FAPR 251200Z 25004KT 9999 FEW030 OVC100 22/16 Q1020;EQDQ01+000000PRSWM2
0162682620999992000012513004-25730+028180FM-15+1322FAPR V0202401N002110300019N0112651N1+02301+01701999999ADDGA1021+009009999GA2081+030009999GF108991999999999999999999MA1102001999999MW1001REMMET052FAPR 251300Z 24004KT 9999 FEW030 OVC100 23/17 Q1020;EQDQ01+000000PRSWM2
0268682620999992000012518004-25730+028180FM-12+1322FAPR V0209999C000019999999N0080001N1+01921+01791999999ADDAA101000191AA224000491AY121061AY261061GF108991081001999999021999KA1120M+02351KA2120N+01921MA1999999087081MD1210041+9999ME1315169MW1611REMSYN122AAXX  25184 68262 11958 80000 10192 20179 38708 48516 52004 69942 76126 8802/ 333 10235 20192 69925 91003 555 20004 91019;
0234682620999992000012600004-25730+028180FM-12+1322FAPR V0209999C000019999999N0140001N1+01871+01631999999ADDAA106000592AA224000492GF107991071001999999071999KA1120M+02351KA2120N+01871MA1999999087031MD1710061+9999ME1315169REMSYN110AAXX  26004 68262 12964 70000 10187 20163 38703 48516 57006 69941 8707/ 333 10235 20187 91003 555 20004 91019;
0091682620999992000012602004-25730+028180FM-15+1322FAPR V0202801N00051220001CN0099001N1+01901+01601999999ADDMA1101801999999MW1001REMMET039FAPR 260200Z 28001KT CAVOK 19/16 Q1018;EQDQ01+000000PRSWM2
0105682620999992000012603004-25730+028180FM-15+1322FAPR V0200201N001012200019N9999999N1+01801+01801999999ADDMA1101901999999MW1001REMMET053FAPR 260300Z AUTO 02002KT //// // ////// 18/18 Q1019;EQDQ01+000000PRSWM2
0139682620999992000012604004-25730+028180FM-15+1322FAPR V0203501N000510360019N0080001N1+01801+01601999999ADDGA1081+036009999GF108991999999999999999999MA1101901999999MW1001REMMET045FAPR 260400Z 35001KT 8000 OVC120 18/16 Q1019;EQDQ01+000000PRSWM2
0139682620999992000012605004-25730+028180FM-15+1322FAPR V0200401N000510360019N0080001N1+01901+01601999999ADDGA1081+036009999GF108991999999999999999999MA1102001999999MW1001REMMET045FAPR 260500Z 04001KT 8000 OVC120 19/16 Q1020;EQDQ01+000000PRSWM2
0341682620999992000012606004-25730+028180SY-MT+1322FAPR V0200701N002110360019N0080001N1+01941+01631999999ADDAA124000691AY121061AY221061GA1081+036009999GF108991081001999999071999KA1240M+02351KA2120N+01811MA1102001087181MD1210141+9999ME1315319MW1611REMSYN116AAXX  26064 68262 11958 80704 10194 20163 38718 48531 52014 69964 76122 8807/ 333 20181 91006 555 10235 20006 91020;MET049FAPR 260600Z 05002KT 8000 -RA OVC120 19/16 Q1020;EQDQ01    003PRSWM1
0139682620999992000012607004-25730+028180FM-15+1322FAPR V0200601N001510360019N0080001N1+01901+01601999999ADDGA1081+036009999GF108991999999999999999999MA1102101999999MW1001REMMET045FAPR 260700Z 06003KT 8000 OVC120 19/16 Q1021;EQDQ01+000000PRSWM2
0091682620999992000012608004-25730+028180FM-15+1322FAPR V0200501N00261220001CN0099001N1+02001+01701999999ADDMA1102101999999MW1001REMMET039FAPR 260800Z 05005KT CAVOK 20/17 Q1021;EQDQ01+000000PRSWM2
0152682620999992000012609004-25730+028180FM-15+1322FAPR V0200101N00151220001CN0112651N1+02101+01701999999ADDGA1071+004509999GA2021+030009999MA1102001999999MW1001REMMET052FAPR 260900Z 01003KT 9999 BKN015 SCT100 21/17 Q1020;EQDQ01+000042SCOTCVQ02+000000PRSWM2
0139682620999992000012610004-25730+028180FM-15+1322FAPR V0200401N002110045019N0112651N1+02201+01801999999ADDGA1071+004509999GF107991999999999999999999MA1102001999999MW1001REMMET045FAPR 261000Z 04004KT 9999 BKN015 22/18 Q1020;EQDQ01+000000PRSWM2
0139682620999992000012611004-25730+028180FM-15+1322FAPR V0203301N001010075019N0112651N1+02301+01701999999ADDGA1071+007509999GF107991999999999999999999MA1101901999999MW1001REMMET045FAPR 261100Z 33002KT 9999 BKN025 23/17 Q1019;EQDQ01+000000PRSWM2
