0277025860999992000010106004+58250+017020FM-12+000799999V0202301N00211030001CN0100001N1+00031+00021101751ADDAA112007191AJ100149199999999AY171061AY221061GA1031+004509069GF108991031051004501021999IA1249KA1120N+99999MA1999999101711MD1810071+9999MW1701REMSYN106AAXX  01064 02586 11497 82304 10003 20002 30171 40175 58007 60072 77072 8352/ 333 20056 48014 83694 88599;EQDQ01 +00562ATMN  
0187025860999992000010109004+58250+017020FM-12+000799999V0202201N002610045019N0100001N1+00071+00061101761ADDAY171031AY221031GA1071+004509059GF108991071051004501999999MA1999999101721MD1210011+9999MW1021REMSYN082AAXX  01094 02586 41497 82205 10007 20006 30172 40176 52001 70272 875// 333 87694;
0210025860999992000010112004+58250+017020FM-12+000799999V0202001N00261030001CN0100001N1+00101+00091101691ADDAA106000191AY171061AY221061GA1031+004509069GF108991031051004501071999MA1999999101651MD1710071+9999MW1021REMSYN094AAXX  01124 02586 11497 82005 10010 20009 30165 40169 57007 69921 70272 8357/ 333 83694 88399;
0237025860999992000010206004+58250+017020FM-12+000799999V0202101N002610075019N0200001N1+00131+00121101721ADDAA106000091AJ100139199999999GA1071+007509059GF108991071051008001999999IA1289KA1120N+00041MA1999999101681MD1710091+9999REMSYN088AAXX  02064 02586 32598 82105 10013 20012 30168 40172 57009 875// 333 20004 44013 87625;EQDQ01  00002PRCP06
0159025860999992000010209004+58250+017020FM-12+000799999V0202301N003110080019N0200001N1+00111+00101101641ADDGA1071+008009059GF108991071051008001999999MA1999999101601MD1710081+9999REMSYN076AAXX  02094 02586 42598 82306 10011 20010 30160 40164 57008 875// 333 87695;
0189025860999992000010212004+58250+017020FM-12+000799999V0202001N003610080019N0200001N1+00141+00131101381ADDAA106000091GA1071+008009059GF108991071051008001999999MA1999999101341MD1810261+9999REMSYN076AAXX  02124 02586 32598 82007 10014 20013 30134 40138 58026 875// 333 87695;EQDQ01  00002PRCP06
0193025860999992000010215004+58250+017020FM-12+000799999V0202101N00361004501CN0200001N1+00201+00191101061ADDAY171031AY221031GA1061+004509069GF108991061051004501021999MA1999999101021MD1710321+9999MW1681REMSYN088AAXX  02154 02586 41498 82107 10020 20019 30102 40106 57032 76872 8652/ 333 86694 88599;
0223025860999992000010218004+58250+017020FM-12+000799999V0202301N002110039019N0100001N1+00331+00291100891ADDAA112000391AY171061AY221061GA1071+003909059GF108991071051004501999999KA1120M+00331MA1999999100851MD1710171+9999MW1021REMSYN094AAXX  02184 02586 11497 82304 10033 20029 30085 40089 57017 69932 70272 875// 333 10033 87613;
0225025860999992000010306004+58250+017020FM-12+000799999V0202901N002612200019N0200001N1+00101-00121101321ADDAA106000091AJ100109199999999GA1001+999999999GF100991001001999999001001IA1289KA1120N+00081MA1999999101281MD1110061+9999REMSYN076AAXX  03064 02586 32998 02905 10010 21012 30128 40132 51006 333 20008 44010;EQDQ01  00002PRCP06
0165025860999992000010309004+58250+017020FM-12+000799999V0202101N001519999999N0200001N1+00001-00041101281ADDGA1041+025009039GF106991041001999999071021MA1999999101241MD1710041+9999REMSYN082AAXX  03094 02586 42998 62103 10000 21004 30124 40128 57004 84072 333 84399 84099;
0195025860999992000010312004+58250+017020FM-12+000799999V0202201N002119999999N0200001N1+00191+00041101001ADDAA106000091GA1031+025009039GF105991031001999999071081MA1999999100961MD1810281+9999REMSYN082AAXX  03124 02586 32998 52204 10019 20004 30096 40100 58028 83078 333 83399 85299;EQDQ01  00002PRCP06
0165025860999992000010315004+58250+017020FM-12+000799999V0201901N00461002501CN0200001N1+00221+00191100571ADDGA1061+002509079GF108991061071002501071999MA1999999100531MD1810431+9999REMSYN082AAXX  03154 02586 42398 81909 10022 20019 30053 40057 58043 8677/ 333 86793 88399;
0208025860999992000010318004+58250+017020FM-12+000799999V0202101N003612200019N0200001N1+00271+00241100441ADDAA106000091GA1021+999999079GF102991021001999999071011KA1120M+00271MA1999999100401MD1610131+9999REMSYN082AAXX  03184 02586 32998 22107 10027 20024 30040 40044 56013 82071 333 10027 82399;EQDQ01  00002PRCP06
0237025860999992000010406004+58250+017020FM-12+000799999V0202301N003612200019N0500001N1+00361+00111099901ADDAA106000091AJ100079199999999GA1011+999999079GF101991011001999999071001IA1289KA1120N+00221MA1999999099861MD1710191+9999REMSYN088AAXX  04064 02586 32999 12307 10036 20011 39986 49990 57019 81070 333 20022 44007 81399;EQDQ01  00002PRCP06
0143025860999992000010409004+58250+017020FM-12+000799999V0202501N006712200019N0200001N1+00421-00281099801ADDGA1001+999999999GF100991001001999999001001MA1999999099761MD1610101+9999REMSYN060AAXX  04094 02586 42998 02513 10042 21028 39976 49980 56010;
0173025860999992000010412004+58250+017020FM-12+000799999V0202501N006212200019N0500001N1+00541-00441099811ADDAA106000091GA1001+999999999GF100991001001999999001001MA1999999099771MD1010011+9999REMSYN060AAXX  04124 02586 32999 02512 10054 21044 39977 49981 50001;EQDQ01  00002PRCP06
0159025860999992000010415004+58250+017020FM-12+000799999V0202501N005112200019N0500001N1+00491-00441100041ADDGA1011+004509059GF101991011051004501001001MA1999999100001MD1310231+9999REMSYN076AAXX  04154 02586 42499 12510 10049 21044 30000 40004 53023 81500 333 81694;
0196025860999992000010418004+58250+017020FM-12+000799999V0202701N004112200019N0500001N1+00391-00381100251ADDAA106000091GA1001+999999999GF100991001001999999001001KA1999M+00541MA1999999100211MD1210211+9999REMSYN070AAXX  04184 02586 32999 02708 10039 21038 30021 40025 52021 333 10054;EQDQ01  00002PRCP06
0237025860999992000010506004+58250+017020FM-12+000799999V0202301N001512200019N0500001N1+00011-00061100481ADDAA106000091AJ100049199999999GA1021+999999019GF102991001001999999001021IA1309KA1120N+00001MA1999999100441MD1310041+9999REMSYN088AAXX  05064 02586 32999 22303 10001 21006 30044 40048 53004 80002 333 20000 42004 82099;EQDQ01  00002PRCP06
0159025860999992000010509004+58250+017020FM-12+000799999V0202901N003112200019N0200001N1+00051-00021100731ADDGA1021+999999019GF102991001001999999001011MA1999999100691MD1210251+9999REMSYN076AAXX  05094 02586 42998 22906 10005 21002 30069 40073 52025 80001 333 82099;
0189025860999992000010512004+58250+017020FM-12+000799999V0202801N002112200019N0200001N1+00201-00021100921ADDAA106000091GA1011+999999019GF101991001001999999001011MA1999999100881MD1110191+9999REMSYN076AAXX  05124 02586 32998 12804 10020 21002 30088 40092 51019 80001 333 81099;EQDQ01  00002PRCP06
0159025860999992000010515004+58250+017020FM-12+000799999V0202401N002112200019N0200001N1+00121-00101101151ADDGA1011+999999079GF101991011001999999041011MA1999999101111MD1210231+9999REMSYN076AAXX  05154 02586 42998 12404 10012 21010 30111 40115 52023 81041 333 81399;
0159025860999992000010615004+58250+017020FM-12+000799999V0201901N004610080019N0200001N1+00311+00261100651ADDGA1071+008009059GF107991071051008001001001MA1999999100611MD1610211+9999REMSYN076AAXX  06154 02586 42598 71909 10031 20026 30061 40065 56021 87500 333 87695;
0212025860999992000010706004+58250+017020FM-12+000799999V0202601N003612200019N0500001N1+00271-00261100861ADDAA112000391AJ100009199999999GA1001+999999999GF100991001001999999001001IA1259KA1120N+00271MA1999999100821MD1210271+9999REMSYN082AAXX  07064 02586 12999 02607 10027 21026 30082 40086 52027 69932 333 20027 41998;
0159025860999992000010709004+58250+017020FM-12+000799999V0202601N00311075001CN0500001N1+00261-00341101121ADDGA1061+999999019GF106991001001999999001011MA1999999101081MD1210261+9999REMSYN076AAXX  07094 02586 42999 62606 10026 21034 30108 40112 52026 80001 333 86099;
0195025860999992000010712004+58250+017020FM-12+000799999V0202501N003619999999N0200001N1+00361-00331101151ADDAA106000091GA1021+025009039GF106991021001999999031021MA1999999101111MD1110031+9999REMSYN082AAXX  07124 02586 32998 62507 10036 21033 30111 40115 51003 82032 333 82399 85099;EQDQ01  00002PRCP06
0165025860999992000010715004+58250+017020FM-12+000799999V0202301N00311999999CN0500001N1+00351-00241101151ADDGA1051+025009039GF107991051001999999031081MA1999999101111MD1410001+9999REMSYN082AAXX  07154 02586 42999 72306 10035 21024 30111 40115 54000 85038 333 85399 86299;
0214025860999992000010718004+58250+017020FM-12+000799999V0202301N00411999999CN0200001N1+00391-00181100991ADDAA106000091GA1051+025009039GF107991051001999999031081KA1120M+00391MA1999999100951MD1810161+9999REMSYN088AAXX  07184 02586 32998 72308 10039 21018 30095 40099 58016 85038 333 10039 85399 85299;EQDQ01  00002PRCP06
0253025860999992000010806004+58250+017020FM-12+000799999V0202301N004612200019N0200001N1+00641-00031100351ADDAA106000091AJ199992999999999GA1041+008009059GF104991041051008001001001IA1259KA1120N+00311MA1999999100311MD1710181+9999REMSYN088AAXX  08064 02586 32598 42309 10064 21003 30031 40035 57018 84500 333 20031 41998 84695;EQDQ01  00002PRCP06Q02  09972SNDP  
0159025860999992000010809004+58250+017020FM-12+000799999V0202201N004610080019N0200001N1+00601+00101100381ADDGA1071+008009059GF107991071051008001001001MA1999999100341MD1310031+9999REMSYN076AAXX  08094 02586 42598 72209 10060 20010 30034 40038 53003 87500 333 87695;
0195025860999992000010812004+58250+017020FM-12+000799999V0202301N00461007501CN0200001N1+00721+00141100401ADDAA106000091GA1021+008009099GF106991061091008001001011MA1999999100361MD1210021+9999REMSYN082AAXX  08124 02586 32598 62309 10072 20014 30036 40040 52002 86901 333 82995 85695;EQDQ01  00002PRCP06
0159025860999992000010909004+58250+017020FM-12+000799999V0202301N002612200019N0200001N1+00301-00021101291ADDGA1021+999999079GF103991021001999999031011MA1999999101251MD1210151+9999REMSYN076AAXX  09094 02586 42998 32305 10030 21002 30125 40129 52015 82031 333 82399;
0189025860999992000010912004+58250+017020FM-12+000799999V0202301N003112200019N0200001N1+00431-00041101391ADDAA106000091GA1021+999999019GF102991001001999999001011MA1999999101351MD1210101+9999REMSYN076AAXX  09124 02586 32998 22306 10043 21004 30135 40139 52010 80001 333 82099;EQDQ01  00002PRCP06
0159025860999992000010915004+58250+017020FM-12+000799999V0202301N002612200019N0200001N1+00361-00101101491ADDGA1021+999999089GF102991001001999999001081MA1999999101451MD1210101+9999REMSYN076AAXX  09154 02586 42998 22305 10036 21010 30145 40149 52010 80008 333 82299;
0196025860999992000010918004+58250+017020FM-12+000799999V0202301N002112200019N0200001N1+00251-00061101641ADDAA106000091GA1001+999999999GF100991001001999999001001KA1999M+00441MA1999999101601MD1310151+9999REMSYN070AAXX  09184 02586 32998 02304 10025 21006 30160 40164 53015 333 10044;EQDQ01  00002PRCP06
0225025860999992000011006004+58250+017020FM-12+000799999V0202501N001512200019N0200001N1-00031-00091102251ADDAA106000091AJ100009199999999GA1001+999999999GF100991001001999999001001IA1259KA1120N-00041MA1999999102211MD1210161+9999REMSYN076AAXX  10064 02586 32998 02503 11003 21009 30221 40225 52016 333 21004 41998;EQDQ01  00002PRCP06
0159025860999992000011009004+58250+017020FM-12+000799999V0202801N001512200019N0200001N1+00141+00031102441ADDGA1021+999999019GF102991001001999999001011MA1999999102401MD1210191+9999REMSYN076AAXX  10094 02586 42998 22803 10014 20003 30240 40244 52019 80001 333 82099;
0189025860999992000011012004+58250+017020FM-12+000799999V0202601N002112200019N0500001N1+00261-00131102581ADDAA106000091GA1011+999999019GF101991001001999999001011MA1999999102541MD1310141+9999REMSYN076AAXX  10124 02586 32999 12604 10026 21013 30254 40258 53014 80001 333 81099;EQDQ01  00002PRCP06
0159025860999992000011015004+58250+017020FM-12+000799999V0202501N002112200019N0500001N1+00191-00251102641ADDGA1021+999999019GF102991001001999999001011MA1999999102601MD1210061+9999REMSYN076AAXX  10154 02586 42999 22504 10019 21025 30260 40264 52006 80001 333 82099;
0208025860999992000011018004+58250+017020FM-12+000799999V0202201N002112200019N0500001N1+00171-00211102641ADDAA106000091GA1021+999999019GF102991001001999999001011KA1120M+00261MA1999999102601MD1410001+9999REMSYN082AAXX  10184 02586 32999 22204 10017 21021 30260 40264 54000 80001 333 10026 82099;EQDQ01  00002PRCP06
0253025860999992000011106004+58250+017020FM-12+000799999V0202301N004610045019N0200001N1+00401-00021102341ADDAA106000091AJ199992999999999GA1071+004509059GF108991071051004501999999IA1259KA1120N+00091MA1999999102301MD1710091+9999REMSYN088AAXX  11064 02586 32498 82309 10040 21002 30230 40234 57009 875// 333 20009 41998 87615;EQDQ01  00002PRCP06Q02  09972SNDP  
0159025860999992000011109004+58250+017020FM-12+000799999V0202301N003119999999N0200001N1+00411+00021102381ADDGA1071+999999079GF107991071001999999071001MA1999999102341MD1310041+9999REMSYN076AAXX  11094 02586 42998 72306 10041 20002 30234 40238 53004 87070 333 87399;
0189025860999992000011112004+58250+017020FM-12+000799999V0202301N003110080019N0200001N1+00491+00081102421ADDAA106000091GA1061+008009059GF107991061051008001071001MA1999999102381MD1210041+9999REMSYN076AAXX  11124 02586 32598 72306 10049 20008 30238 40242 52004 86570 333 86695;EQDQ01  00002PRCP06
0165025860999992000011115004+58250+017020FM-12+000799999V0202401N002612200019N0500001N1+00451+00131102481ADDGA1011+008009069GF103991011051008001071011MA1999999102441MD1210061+9999REMSYN082AAXX  11154 02586 42599 32405 10045 20013 30244 40248 52006 81571 333 81695 83099;
0208025860999992000011118004+58250+017020FM-12+000799999V0202401N003112200019N0500001N1+00371+00171102481ADDAA106000091GA1021+999999019GF102991001001999999001041KA1120M+00511MA1999999102441MD1010001+9999REMSYN082AAXX  11184 02586 32999 22406 10037 20017 30244 40248 50000 80004 333 10051 82099;EQDQ01  00002PRCP06
0277025860999992000011206004+58250+017020FM-12+000799999V0202101N00411030001CN0200001N1+00351+00341101761ADDAA112001091AJ199992999999999AY171061AY261061GA1021+002509079GF108991021071002501021999IA1259KA1120N+00251MA1999999101721MD1710271+9999MW1611REMSYN106AAXX  12064 02586 11398 82108 10035 20034 30172 40176 57027 60012 76176 8272/ 333 20025 41998 82793 88599;EQDQ01  09972SNDP  
0125025860999992000011209004+58250+017020FM-12+000799999V0202201N004119999999N0200001N1+00531+99999999999ADDGF108991999999004501999999REMSYN087AAXX  12094 02586 41498 82208 10053 2008 30162 40166 57010 76166 8352/ 333 83694 88599;
0204025860999992000011212004+58250+017020FM-12+000799999V0202301N004110080019N0500001N1+00621+00101101661ADDAA106000591AY161061AY221061GA1071+008009059GF108991071071008001999999MA1999999101621MD1410001+9999MW1021REMSYN088AAXX  12124 02586 11599 82308 10062 20010 30162 40166 54000 69961 70262 877// 333 87695;
0159025860999992000011215004+58250+017020FM-12+000799999V0202301N004110080019N0500001N1+00561+00101101621ADDGA1071+008009059GF108991071051008001001001MA1999999101581MD1810041+9999REMSYN076AAXX  12154 02586 42599 82308 10056 20010 30158 40162 58004 87500 333 87695;
0229025860999992000011218004+58250+017020FM-12+000799999V0202201N003610066019N0200001N1+00431+00201101631ADDAA112000891AY161061AY221061GA1051+006609069GF108991051051008001021999KA1120M+00621MA1999999101591MD1610011+9999MW1611REMSYN100AAXX  12184 02586 11598 82207 10043 20020 30159 40163 56001 69982 76162 8552/ 333 10062 85622 88599;
0277025860999992000011306004+58250+017020FM-12+000799999V0202401N00361004501CN0200001N1+00421+00121101431ADDAA112000891AJ199992999999999AY171061AY261061GA1051+004509069GF108991051051004501021999IA1259KA1120N+00361MA1999999101391MD1710041+9999MW1681REMSYN106AAXX  13064 02586 11498 82407 10042 20012 30139 40143 57004 69972 76876 8552/ 333 20036 41998 85694 88599;EQDQ01  09972SNDP  
0187025860999992000011309004+58250+017020FM-12+000799999V0202301N002610080019N0200001N1+00401+00301101511ADDAY171031AY221031GA1071+008009059GF108991071051008001999999MA1999999101471MD1310081+9999MW1021REMSYN082AAXX  13094 02586 41598 82305 10040 20030 30147 40151 53008 70272 875// 333 87695;
0232025860999992000011312004+58250+017020FM-12+000799999V0202001N00151008001CN0200001N1+00461+00131101551ADDAA106000191AY171061AY221061GA1051+008009069GA2051+025009039GF108991051051008001071999MA1999999101511MD1210041+9999MW1021REMSYN100AAXX  13124 02586 11598 82003 10046 20013 30151 40155 52004 69911 70272 8557/ 333 85695 85399 88499;
0159025860999992000011315004+58250+017020FM-12+000799999V0202301N002110080019N0200001N1+00421+00171101611ADDGA1071+008009059GF108991071051008001999999MA1999999101571MD1210061+9999REMSYN076AAXX  13154 02586 42598 82304 10042 20017 30157 40161 52006 875// 333 87695;
0223025860999992000011318004+58250+017020FM-12+000799999V0202501N00151030001CN0100001N1+00351+00121101751ADDAA112000191GA1021+008009069GA2031+025009039GF108991021051008001071081KA1120M+00461MA1999999101711MD1310141+9999REMSYN100AAXX  13184 02586 12597 82503 10035 20012 30171 40175 53014 69912 82578 333 10046 82695 83399 87299;
0257025860999992000011406004+58250+017020FM-12+000799999V0200601N002110033019N0200001N1+00261+00031102291ADDAA199000091AJ199992999999999GA1071+003309059GF108991071051004501999999IA1259KA1120N+00211MA1999999102251MD1210121+9999REMSYN092    AAXX  14064 02586 32498 80604 10026 20003 30225 40229 52012 875// 333 20021 41998 87611;EQDQ01  00002PRCP99Q02  09972SNDP  
0163025860999992000011409004+58250+017020FM-12+000799999V0200401N002110045019N0200001N1+00201+00091102431ADDGA1071+004509059GF108991071051004501999999MA1999999102391MD1210141+9999REMSYN080    AAXX  14094 02586 42498 80404 10020 20009 30239 40243 52014 875// 333 87694;
0208025860999992000011412004+58250+017020FM-12+000799999V0200301N002110045019N0200001N1+00171+00131102471ADDAA106000191AY181061AY221061GA1071+004509059GF108991071051004501999999MA1999999102431MD1110041+9999MW1021REMSYN092    AAXX  14124 02586 11498 80304 10017 20013 30243 40247 51004 69911 70282 875// 333 87694;
0197025860999992000011415004+58250+017020FM-12+000799999V0200201N00261002501CN0040001N1+00121+00111102541ADDAY161031AY221031GA1051+002509079GF108991051071002501021999MA1999999102501MD1310071+9999MW1601REMSYN092    AAXX  14154 02586 41396 80205 10012 20011 30250 40254 53007 76062 8572/ 333 85793 88599;
0227025860999992000011418004+58250+017020FM-12+000799999V0200201N002610090019N0200001N1+00121+00021102651ADDAA112000391AY161061AY221061GA1071+009009059GF108991071051008001999999KA1120M+00291MA1999999102611MD1210111+9999MW1021REMSYN098    AAXX  14184 02586 11598 80205 10012 20002 30261 40265 52011 69932 70262 875// 333 10029 87630;
0263025860999992000011506004+58250+017020FM-12+000799999V0202901N002119999999N0200001N1-00201-00281102721ADDAA199000091AJ199992999999999GA1031+025009039GF107991031001999999071081IA1259KA1120N-00221MA1999999102681MD1810041+9999REMSYN098    AAXX  15064 02586 32998 72904 11020 21028 30268 40272 58004 83078 333 21022 41998 83399 87299;EQDQ01  00002PRCP99Q02  09972SNDP  
0163025860999992000011509004+58250+017020FM-12+000799999V0202801N002119999999N0200001N1-00141-00361102671ADDGA1031+999999079GF105991031001999999071021MA1999999102631MD1710051+9999REMSYN080    AAXX  15094 02586 42998 52804 11014 21036 30263 40267 57005 83072 333 83399;
0193025860999992000011512004+58250+017020FM-12+000799999V0202901N003112200019N0500001N1+00061-00481102491ADDAA199000091GA1011+012509059GF102991011051012501041011MA1999999102451MD1810181+9999REMSYN080    AAXX  15124 02586 32699 22906 10006 21048 30245 40249 58018 81541 333 81696;EQDQ01  00002PRCP99
0229025860999992000011606004+58250+017020FM-12+000799999V0202801N002612200019N0200001N1+00061-00181102081ADDAA199000091AJ100009199999999GA1001+999999999GF100991001001999999001001IA1259KA1120N+00011MA1999999102041MD1810041+9999REMSYN080    AAXX  16064 02586 32998 02805 10006 21018 30204 40208 58004 333 20001 41998;EQDQ01  00002PRCP99
0163025860999992000011609004+58250+017020FM-12+000799999V0202601N002119999999N0500001N1+00161-00051101891ADDGA1071+999999079GF107991071001999999071001MA1999999101851MD1810191+9999REMSYN080    AAXX  16094 02586 42999 72604 10016 21005 30185 40189 58019 87070 333 87399;
0193025860999992000011612004+58250+017020FM-12+000799999V0202401N003619999999N0500001N1+00381-00141101451ADDAA199000091GA1071+999999079GF107991071001999999071001MA1999999101411MD1810441+9999REMSYN080    AAXX  16124 02586 32999 72407 10038 21014 30141 40145 58044 87070 333 87399;EQDQ01  00002PRCP99
0169025860999992000011615004+58250+017020FM-12+000799999V0202601N00461999999CN0500001N1+00471-00221100991ADDGA1051+025009039GF107991051001999999071081MA1999999100951MD1710541+9999REMSYN086    AAXX  16154 02586 42999 72609 10047 21022 30095 40099 57054 85078 333 85399 85299;
0212025860999992000011618004+58250+017020FM-12+000799999V0202801N004612200019N0500001N1+00531-00201100531ADDAA199000091GA1011+999999079GF102991011001999999071081KA1120M+00531MA1999999100491MD1710461+9999REMSYN086    AAXX  16184 02586 32999 22809 10053 21020 30049 40053 57046 81078 333 10053 81399;EQDQ01  00002PRCP99
0257025860999992000011706004+58250+017020FM-12+000799999V0203001N003612200019N0200001N1+00471-00311099901ADDAA199000091AJ199992999999999GA1011+008009059GF101991011051008001001001IA1259KA1120N+00391MA1999999099861MD1610111+9999REMSYN092    AAXX  17064 02586 32598 13007 10047 21031 39986 49990 56011 81500 333 20039 41998 81695;EQDQ01  00002PRCP99Q02  09972SNDP  
0163025860999992000011709004+58250+017020FM-12+000799999V0203001N004112200019N0500001N1+00481-00531099841ADDGA1011+008009059GF101991011051008001001011MA1999999099801MD1810061+9999REMSYN080    AAXX  17094 02586 42599 13008 10048 21053 39980 49984 58006 81501 333 81695;
0193025860999992000011712004+58250+017020FM-12+000799999V0203101N004110125019N0500001N1+00511-00641099681ADDAA199000091GA1051+012509059GF105991051051012501001001MA1999999099641MD1210161+9999REMSYN080    AAXX  17124 02586 32699 53108 10051 21064 39964 49968 52016 85500 333 85696;EQDQ01  00002PRCP99
0163025860999992000011715004+58250+017020FM-12+000799999V0203301N005112200019N0500001N1+00461-00851099681ADDGA1011+012509059GF101991011051012501041001MA1999999099641MD1510001+9999REMSYN080    AAXX  17154 02586 42699 13310 10046 21085 39964 49968 55000 81540 333 81696;
0200025860999992000011718004+58250+017020FM-12+000799999V0203201N005712200019N0500001N1+00371-00931099751ADDAA199000091GA1001+999999999GF100991001001999999001001KA1999M+00551MA1999999099711MD1110071+9999REMSYN074    AAXX  17184 02586 32999 03211 10037 21093 39971 49975 51007 333 10055;EQDQ01  00002PRCP99
0257025860999992000011806004+58250+017020FM-12+000799999V0203201N003110093019N0500001N1+00251-00831099631ADDAA199000091AJ199992999999999GA1071+009309059GF108991071051008001999999IA1259KA1120N+00151MA1999999099591MD1310071+9999REMSYN092    AAXX  18064 02586 32599 83206 10025 21083 39959 49963 53007 875// 333 20015 41998 87631;EQDQ01  00002PRCP99Q02  09972SNDP  
0163025860999992000011809004+58250+017020FM-12+000799999V0203301N005110300019N0500001N1+00291-00731099731ADDGA1041+008009059GF105991041051008001031011MA1999999099691MD1210101+9999REMSYN080    AAXX  18094 02586 42599 53310 10029 21073 39969 49973 52010 84531 333 84695;
0214025860999992000011812004+58250+017020FM-12+000799999V0203401N00461004201CN0500001N1+00151-00021100101ADDAA106000191AY181061AY221061GA1021+004509099GF106991061091004501001001MA1999999100061MD1310371+9999MW1261REMSYN098    AAXX  18124 02586 11499 63409 10015 21002 30006 40010 53037 69911 72682 86900 333 82994 84696;
0197025860999992000011815004+58250+017020FM-12+000799999V0203201N005110750019N0500001N1+00071-00661100531ADDAY181031AY221031GA1011+004509069GF105991011051004501041021MA1999999100491MD1210431+9999MW1021REMSYN092    AAXX  18154 02586 41499 53210 10007 21066 30049 40053 52043 70282 81542 333 81694 83399;
0227025860999992000011818004+58250+017020FM-12+000799999V0203401N005712200019N0500001N1+00011-00551100751ADDAA112000191AY181061AY211061GA1011+008009059GF101991011051008001001001KA1120M+00381MA1999999100711MD1210261+9999MW1011REMSYN098    AAXX  18184 02586 11599 13411 10001 21055 30071 40075 52026 69922 70181 81500 333 10038 81695;
0257025860999992000011906004+58250+017020FM-12+000799999V0203201N004610069019N0500001N1-00071-00701101451ADDAA199000091AJ199992999999999GA1071+006909059GF108991071051008001999999IA1259KA1120N-00291MA1999999101411MD1110041+9999REMSYN092    AAXX  19064 02586 32599 83209 11007 21070 30141 40145 51004 875// 333 21029 41998 87623;EQDQ01  00002PRCP99Q02  09972SNDP  
0163025860999992000011909004+58250+017020FM-12+000799999V0203301N004612200019N0500001N1-00061-00871101571ADDGA1011+008009059GF101991011051008001001001MA1999999101531MD1310121+9999REMSYN080    AAXX  19094 02586 42599 13309 11006 21087 30153 40157 53012 81500 333 81695;
0193025860999992000011912004+58250+017020FM-12+000799999V0203201N005112200019N0500001N1+00051-01011101611ADDAA199000091GA1011+008009059GF101991011051008001001081MA1999999101571MD1110041+9999REMSYN080    AAXX  19124 02586 32599 13210 10005 21101 30157 40161 51004 81508 333 81695;EQDQ01  00002PRCP99
0169025860999992000011915004+58250+017020FM-12+000799999V0203201N00361075001CN0500001N1+00051-00881101681ADDGA1011+008009069GF105991011051008001031011MA1999999101641MD1310071+9999REMSYN086    AAXX  19154 02586 42599 53207 10005 21088 30164 40168 53007 81531 333 81695 85399;
0208025860999992000011918004+58250+017020FM-12+000799999V0203101N003619999999N0500001N1+00071-00781101621ADDAA199000091GA1051+999999079GF106991051001999999031011KA1120M+00071MA1999999101581MD1510061+9999REMSYN082AAXX  19184 02586 32999 63107 10007 21078 30158 40162 55006 85031 333 10007 85399;EQDQ01  00002PRCP99
0259025860999992000012006004+58250+017020FM-12+000799999V0202901N004612200019N0500001N1+00341-00551100331ADDAA199000091AJ199992999999999GA1011+008009069GF104991011051008001071081IA1259KA1120N-00021MA1999999100291MD1710421+9999REMSYN094AAXX  20064 02586 32599 42909 10034 21055 30029 40033 57042 81578 333 21002 41998 81695 83399;EQDQ01  00002PRCP99Q02  09972SNDP  
0187025860999992000012009004+58250+017020FM-12+000799999V0203101N004110300019N0500001N1+00401-00521100171ADDGA1011+008009069GA2031+025009039GF108991011051008001071999MA1999999100131MD1610161+9999REMSYN088AAXX  20094 02586 42599 83108 10040 21052 30013 40017 56016 8157/ 333 81695 83399 87499;
0204025860999992000012012004+58250+017020FM-12+000799999V0203201N003610175019N0500001N1+00261-00131100231ADDAA106000191AY181061AY221061GA1071+017509059GF107991071051017501041001MA1999999100191MD1010061+9999MW1021REMSYN088AAXX  20124 02586 11799 73207 10026 21013 30019 40023 50006 69911 70282 87540 333 87697;
0165025860999992000012015004+58250+017020FM-12+000799999V0203501N004112200019N0500001N1+00161-01061100241ADDGA1011+012509069GF103991011051012501041021MA1999999100201MD1210011+9999REMSYN082AAXX  20154 02586 42699 33508 10016 21106 30020 40024 52001 81542 333 81696 83099;
0195025860999992000012018004+58250+017020FM-12+000799999V0203201N005112200019N0500001N1-00011-01211100251ADDAA112000191GA1011+008009059GF101991011051008001001001KA1120M+00401MA1999999100211MD1010011+9999REMSYN088AAXX  20184 02586 12599 13210 11001 21121 30021 40025 50001 69912 81500 333 10040 81695;
0253025860999992000012106004+58250+017020FM-12+000799999V0203401N008212200019N0500001N1-00041-01421100541ADDAA199000091AJ199992999999999GA1011+008009059GF101991011051008001001011IA1259KA1120N-00401MA1999999100501MD1310201+9999REMSYN088AAXX  21064 02586 32599 13416 11004 21142 30050 40054 53020 81501 333 21040 41998 81695;EQDQ01  00002PRCP99Q02  09972SNDP  
0159025860999992000012109004+58250+017020FM-12+000799999V0203501N006210080019N0500001N1-00441-01381100941ADDGA1051+008009059GF105991051051008001001001MA1999999100901MD1310401+9999REMSYN076AAXX  21094 02586 42599 53512 11044 21138 30090 40094 53040 85500 333 85695;
0189025860999992000012112004+58250+017020FM-12+000799999V0203401N006712200019N0500001N1-00401-01361101301ADDAA199000091GA1021+008009059GF102991021051008001001001MA1999999101261MD1210361+9999REMSYN076AAXX  21124 02586 32599 23413 11040 21136 30126 40130 52036 82500 333 82695;EQDQ01  00002PRCP99
0159025860999992000012115004+58250+017020FM-12+000799999V0203401N005112200019N0500001N1-00401-01291101521ADDGA1011+008009059GF101991011051008001001001MA1999999101481MD1110221+9999REMSYN076AAXX  21154 02586 42599 13410 11040 21129 30148 40152 51022 81500 333 81695;
0208025860999992000012118004+58250+017020FM-12+000799999V0203201N004612200019N0500001N1-00541-01421101601ADDAA199000091GA1011+008009059GF101991011051008001001001KA1120M-00381MA1999999101561MD1010081+9999REMSYN082AAXX  21184 02586 32599 13209 11054 21142 30156 40160 50008 81500 333 11038 81695;EQDQ01  00002PRCP99
0253025860999992000012206004+58250+017020FM-12+000799999V0203101N001512200019N0500001N1-00841-01211101221ADDAA199000091AJ199992999999999GA1011+008009059GF102991011051008001001021IA1259KA1120N-00861MA1999999101181MD1710071+9999REMSYN088AAXX  22064 02586 32599 23103 11084 21121 30118 40122 57007 81502 333 21086 41998 81695;EQDQ01  00002PRCP99Q02  09972SNDP  
0159025860999992000012209004+58250+017020FM-12+000799999V0203301N002112200019N0500001N1-00741-01191101251ADDGA1021+999999089GF102991001001999999001081MA1999999101211MD1310031+9999REMSYN076AAXX  22094 02586 42999 23304 11074 21119 30121 40125 53003 80008 333 82299;
0195025860999992000012212004+58250+017020FM-12+000799999V0203401N00211220001CN0500001N1-00561-01361101311ADDAA199000091GA1011+008009069GF105991011051008001001011MA1999999101271MD1210061+9999REMSYN082AAXX  22124 02586 32599 53404 11056 21136 30127 40131 52006 81501 333 81695 85099;EQDQ01  00002PRCP99
0271025860999992000012306004+58250+017020FM-12+000799999V0203001N002110225019N0100001N1-00581-00761101581ADDAA112000191AJ199993999999999AY171061AY221061GA1081+022509029GF108991081001022501021999IA1239KA1120N-00721MA1999999101541MD1110011+9999MW1711REMSYN100AAXX  23064 02586 11897 83004 11058 21076 30154 40158 51001 69922 77172 8802/ 333 21072 47997 88598;EQDQ01  09982SNDP  
0193025860999992000012309004+58250+017020FM-12+000799999V0203401N00411007501CN0020001N1-00631-00831101721ADDAY181031AY271031GA1031+008009099GF107991061091008001031001MA1999999101681MD1210141+9999MW1851REMSYN088AAXX  23094 02586 41595 73408 11063 21083 30168 40172 52014 78587 86930 333 83995 84695;
0204025860999992000012312004+58250+017020FM-12+000799999V0203401N003112200019N0200001N1-00651-01091101831ADDAA106000791AY181061AY211061GA1011+008009059GF101991011051008001001011MA1999999101791MD1210111+9999MW1011REMSYN088AAXX  23124 02586 11598 13406 11065 21109 30179 40183 52011 69901 70181 81501 333 81695;
0159025860999992000012315004+58250+017020FM-12+000799999V0203301N002612200019N0500001N1-00751-01451101911ADDGA1011+008009059GF101991011051008001001001MA1999999101871MD1110081+9999REMSYN076AAXX  23154 02586 42599 13305 11075 21145 30187 40191 51008 81500 333 81695;
0183025860999992000012318004+58250+017020FM-12+000799999V0203401N002612200019N0500001N1-00901-01341102021ADDAA112000791GA1001+999999999GF100991001001999999001001KA1999M-00541MA1999999101981MD1210111+9999REMSYN076AAXX  23184 02586 12999 03405 11090 21134 30198 40202 52011 69902 333 11054;
0259025860999992000012406004+58250+017020FM-12+000799999V0202901N002119999999N0500001N1-01031-01211102011ADDAA199000091AJ199993999999999GA1021+025009039GF105991051001999999071001IA1239KA1120N-01161MA1999999101971MD1610071+9999REMSYN094AAXX  24064 02586 32999 52904 11103 21121 30197 40201 56007 85070 333 21116 47997 82399 84499;EQDQ01  00002PRCP99Q02  09982SNDP  
0165025860999992000012409004+58250+017020FM-12+000799999V0202601N00151030001CN0500001N1-00681-00821102001ADDGA1021+008009069GF107991021051008001071001MA1999999101961MD1710011+9999REMSYN082AAXX  24094 02586 42599 72603 11068 21082 30196 40200 57001 82570 333 82695 87399;
0195025860999992000012412004+58250+017020FM-12+000799999V0202501N002119999999N0500001N1-00421-00791101851ADDAA199000091GA1041+025009039GF107991041001999999031081MA1999999101811MD1810151+9999REMSYN082AAXX  24124 02586 32999 72504 11042 21079 30181 40185 58015 84038 333 84399 87299;EQDQ01  00002PRCP99
0206025860999992000012415004+58250+017020FM-12+000799999V0202301N002112200019N0500001N1-00321-00681101761ADDGA1051+008009069GA2041+025009039GF199999051051008001031081MA1999999101721MD1710091+9999REMSYN088AAXX  24154 02586 42599 42304 11032 21068 30172 40176 57009 85538 333 85695 84399 86299;EQDQ01+000042SCOTCV
0236025860999992000012418004+58250+017020FM-12+000799999V0202501N00151999999CN0500001N1-00261-00621101751ADDAA199000091GA1021+008009069GA2051+025009039GF108991021051008001071999KA1120M-00241MA1999999101711MD1610011+9999REMSYN094AAXX  24184 02586 32599 82503 11026 21062 30171 40175 56001 8257/ 333 11024 82695 85399 88499;EQDQ01  00002PRCP99
0277025860999992000012506004+58250+017020FM-12+000799999V0203201N00151001501CN0100001N1-00271-00341101761ADDAA112000191AJ199993999999999AY171061AY221061GA1061+001509079GF108991061071001501021999IA1239KA1120N-00301MA1999999101721MD1710071+9999MW1711REMSYN106AAXX  25064 02586 11297 83203 11027 21034 30172 40176 57007 69912 77172 8672/ 333 21030 47997 86792 88598;EQDQ01  09982SNDP  
0187025860999992000012509004+58250+017020FM-12+000799999V0202901N002110080019N0500001N1-00301-00421101691ADDAY171031AY221031GA1071+008009059GF108991071051008001999999MA1999999101651MD1810071+9999MW1021REMSYN082AAXX  25094 02586 41599 82904 11030 21042 30165 40169 58007 70272 875// 333 87695;
0204025860999992000012512004+58250+017020FM-12+000799999V0202801N002612200019N0500001N1-00131-00291101491ADDAA106000791AY171061AY211061GA1021+004509059GF104991021051004501041011MA1999999101451MD1810201+9999MW1021REMSYN088AAXX  25124 02586 11499 42805 11013 21029 30145 40149 58020 69901 70271 82541 333 82694;
0159025860999992000012515004+58250+017020FM-12+000799999V0202901N003610080019N0500001N1+00151-00491101321ADDGA1071+008009059GF107991071051008001001001MA1999999101281MD1810171+9999REMSYN076AAXX  25154 02586 42599 72907 10015 21049 30128 40132 58017 87500 333 87695;
0195025860999992000012518004+58250+017020FM-12+000799999V0203001N003112200019N0500001N1+00011-00551101381ADDAA112000791GA1021+008009059GF102991021051008001001001KA1120M+00151MA1999999101341MD1310061+9999REMSYN088AAXX  25184 02586 12599 23006 10001 21055 30134 40138 53006 69902 82500 333 10015 82695;
0269025860999992000012606004+58250+017020FM-12+000799999V0202901N003112200019N0500001N1+00051-00431101131ADDAA199000091AJ199993999999999GA1011+999999079GF101991011001999999031001IA1239KA1120N+99999MA1999999101091MD1610171+9999REMSYN088AAXX  26064 02586 32999 12906 10005 21043 30109 40113 56017 81030 333 20019 47997 81399;EQDQ01  00002PRCP99Q02 +00192ATMN  Q03  09982SNDP  
0159025860999992000012609004+58250+017020FM-12+000799999V0202901N003112200019N0500001N1+00311-00481100971ADDGA1011+008009059GF102991011051008001041041MA1999999100931MD1710161+9999REMSYN076AAXX  26094 02586 42599 22906 10031 21048 30093 40097 57016 81544 333 81695;
0189025860999992000012612004+58250+017020FM-12+000799999V0202801N003112200019N0500001N1+00531-00371100921ADDAA199000091GA1021+999999019GF102991001001999999001021MA1999999100881MD1710051+9999REMSYN076AAXX  26124 02586 32999 22806 10053 21037 30088 40092 57005 80002 333 82099;EQDQ01  00002PRCP99
0187025860999992000012615004+58250+017020FM-12+000799999V0202901N00261075001CN0500001N1+00351-00301100881ADDGA1011+004509069GA2041+025009039GF106991011051004501051061MA1999999100841MD1710041+9999REMSYN088AAXX  26154 02586 42499 62905 10035 21030 30084 40088 57004 81556 333 81694 84399 85299;
0208025860999992000012618004+58250+017020FM-12+000799999V0202901N002612200019N0500001N1+00221-00101100881ADDAA199000091GA1011+999999079GF102991011001999999071081KA1120M+00531MA1999999100841MD1010001+9999REMSYN082AAXX  26184 02586 32999 22905 10022 21010 30084 40088 50000 81078 333 10053 81399;EQDQ01  00002PRCP99
0253025860999992000012706004+58250+017020FM-12+000799999V0202701N002619999999N0200001N1+00031-00221101001ADDAA199000091AJ199993999999999GA1061+999999089GF106991001001999999001081IA1239KA1120N+00011MA1999999100961MD1210041+9999REMSYN088AAXX  27064 02586 32998 62705 10003 21022 30096 40100 52004 80008 333 20001 47997 86299;EQDQ01  00002PRCP99Q02  09982SNDP  
0159025860999992000012709004+58250+017020FM-12+000799999V0202701N002119999999N0500001N1+00001-00251100861ADDGA1081+999999089GF108991001001999999001081MA1999999100821MD1810141+9999REMSYN076AAXX  27094 02586 42999 82704 10000 21025 30082 40086 58014 80008 333 88299;
0195025860999992000012712004+58250+017020FM-12+000799999V0202001N00101999999CN0500001N1+00151-00191100541ADDAA199000091GA1051+025009039GF108991051001999999031081MA1999999100501MD1810321+9999REMSYN082AAXX  27124 02586 32999 82002 10015 21019 30050 40054 58032 85038 333 85399 88299;EQDQ01  00002PRCP99
0165025860999992000012715004+58250+017020FM-12+000799999V0202301N00211008001CN0500001N1+00151-00141100121ADDGA1051+008009069GF107991051051008001071001MA1999999100081MD1710421+9999REMSYN082AAXX  27154 02586 42599 72304 10015 21014 30008 40012 57042 85570 333 85695 87399;
0229025860999992000012718004+58250+017020FM-12+000799999V0202501N00411004501CN0200001N1+00431-00021099651ADDAA112000791AY171061AY221061GA1051+004509069GF108991051051004501021999KA1120M+00431MA1999999099611MD1810471+9999MW1681REMSYN100AAXX  27184 02586 11498 82508 10043 21002 39961 49965 58047 69902 76872 8552/ 333 10043 85694 88599;
0243025860999992000012806004+58250+017020FM-12+000799999V0202801N003612200019N0500001N1+00191-00491099541ADDAA112000791AJ199992999999999GA1011+999999019GF101991001001999999001011IA1259KA1120N+00191MA1999999099501MD1310091+9999REMSYN094AAXX  28064 02586 12999 12807 10019 21049 39950 49954 53009 69902 80001 333 20019 41998 81099;EQDQ01  09972SNDP  
0165025860999992000012809004+58250+017020FM-12+000799999V0202901N003119999999N0500001N1+00121-00551099711ADDGA1031+025009039GF106991031001999999031051MA1999999099671MD1310171+9999REMSYN082AAXX  28094 02586 42999 62906 10012 21055 39967 49971 53017 83035 333 83399 85299;
0195025860999992000012812004+58250+017020FM-12+000799999V0203101N002119999999N0500001N1+00091-00641099791ADDAA199000091GA1021+025009039GF106991021001999999031061MA1999999099751MD1110081+9999REMSYN082AAXX  28124 02586 32999 63104 10009 21064 39975 49979 51008 82036 333 82399 85299;EQDQ01  00002PRCP99
0159025860999992000012815004+58250+017020FM-12+000799999V0201901N000519999999N0500001N1-00071-00651099761ADDGA1081+999999089GF108991001001999999001071MA1999999099721MD1810031+9999REMSYN076AAXX  28154 02586 42999 81901 11007 21065 39972 49976 58003 80007 333 88299;
0208025860999992000012818004+58250+017020FM-12+000799999V0201701N001512200019N0500001N1-00071-00111099701ADDAA199000091GA1021+999999089GF102991001001999999001081KA1120M+00191MA1999999099661MD1710061+9999REMSYN082AAXX  28184 02586 32999 21703 11007 21011 39966 49970 57006 80008 333 10019 82299;EQDQ01  00002PRCP99
0253025860999992000012906004+58250+017020FM-12+000799999V0201801N004610080019N0200001N1+00171+00131098501ADDAA199000091AJ199992999999999GA1071+008009059GF107991071051008001001001IA1259KA1120N-00181MA1999999098461MD1810401+9999REMSYN088AAXX  29064 02586 32598 71809 10017 20013 39846 49850 58040 87500 333 21018 41998 87695;EQDQ01  00002PRCP99Q02  09972SNDP  
0187025860999992000012909004+58250+017020FM-12+000799999V0201801N005710015019N0010001N1+00191+00181097991ADDAY121031AY221031GA1081+001509069GF108991081061001501999999MA1999999097951MD1710511+9999MW1101REMSYN082AAXX  29094 02586 41294 81811 10019 20018 39795 49799 57051 71022 886// 333 88792;
0213025860999992000012912004+58250+017020FM-12+000799999V0201801N007219999999N0005001N1+00211+00201097282ADDAA106000791AY161061AY241061GF108991081999999999999999MA1999999097242MD1810711+9999MW1601REMSYN078AAXX  29124 02586 11/93 81814 10021 20020 39724 49728 58071 69901 76064 88///;EQDQ01+097243APOSP Q02+097283APOSLP
0277025860999992000013006004+58250+017020FM-12+000799999V0202601N00311007501CN0100001N1+00311-00011096061ADDAA112001091AJ199992999999999AY181061AY221061GA1041+008009099GF107991071091008001001001IA1259KA1120N+00261MA1999999096021MD1310301+9999MW1831REMSYN106AAXX  30064 02586 11597 72606 10031 21001 39602 49606 53030 60012 78382 87900 333 20026 41998 84995 85695;EQDQ01  09972SNDP  
0187025860999992000013009004+58250+017020FM-12+000799999V0203101N005710080019N0500001N1+00291-00091096921ADDAY181031AY221031GA1051+008009059GF105991051051008001001081MA1999999096841MD1210861+9999MW1011REMSYN082AAXX  30094 02586 41599 53111 10029 21009 39684 49692 52086 70182 85508 333 85695;
0204025860999992000013012004+58250+017020FM-12+000799999V0203101N008212200019N0500001N1+00311-00891097801ADDAA106000191AY181061AY211061GA1011+008009059GF102991011051008001041021MA1999999097761MD1210881+9999MW1011REMSYN088AAXX  30124 02586 11599 23116 10031 21089 39776 49780 52088 69911 70181 81542 333 81695;
0159025860999992000013015004+58250+017020FM-12+000799999V0203101N008212200019N0500001N1+00191-01351098641ADDGA1011+008009059GF101991011051008001001011MA1999999098601MD1210841+9999REMSYN076AAXX  30154 02586 42599 13116 10019 21135 39860 49864 52084 81501 333 81695;
0218025860999992000013018004+58250+017020FM-12+000799999V0203101N006212200019N0500001N1+00041-01401099342ADDAA112000191GA1001+999999999GF100991001001999999001001KA1999M+00331MA1999999099302MD1110701+9999REMSYN076AAXX  30184 02586 12999 03112 10004 21140 39930 49934 51070 69912 333 10033;EQDQ01+099303APOSP Q02+099343APOSLP
0281025860999992000013106004+58250+017020FM-12+000799999V0202001N00311999999CN0200001N1-00131-00991099231ADDAA199000091AJ199992999999999GA1031+004509069GA2031+025009039GF108991031051004501071999IA1259KA1120N-00301MA1999999099191MD1610291+9999REMSYN100AAXX  31064 02586 32498 82006 11013 21099 39919 49923 56029 8357/ 333 21030 41998 83694 83399 88299;EQDQ01  00002PRCP99Q02  09972SNDP  
0215025860999992000013109004+58250+017020FM-12+000799999V0200301N00051001501CN0200001N1-00241-00351099261ADDAY171031AY221031GA1051+001509079GA2061+025009039GF108991051071002501071999MA1999999099221MD1210031+9999MW1711REMSYN094AAXX  31094 02586 41398 80301 11024 21035 39922 49926 52003 77172 8577/ 333 85792 86399 88599;
0204025860999992000013112004+58250+017020FM-12+000799999V0203401N002612200019N0200001N1-00101-00561099721ADDAA106000191AY171061AY211061GA1011+004509059GF101991011051004501041011MA1999999099681MD1210461+9999MW1011REMSYN088AAXX  31124 02586 11498 13405 11010 21056 39968 49972 52046 69911 70171 81541 333 81694;
0159025860999992000013115004+58250+017020FM-12+000799999V0202701N001012200019N0200001N1-00121-00921100251ADDGA1011+004509059GF101991011051004501041001MA1999999100211MD1210531+9999REMSYN076AAXX  31154 02586 42498 12702 11012 21092 30021 40025 52053 81540 333 81694;
0183025860999992000013118004+58250+017020FM-12+000799999V0202301N003612200019N0200001N1-00231-00651100461ADDAA112000191GA1001+999999999GF100991001001999999001001KA1999M-00081MA1999999100421MD1110211+9999REMSYN076AAXX  31184 02586 12998 02307 11023 21065 30042 40046 51021 69912 333 11008;
0225025860999992000020106004+58250+017020FM-12+000799999V0202801N001512200019N0500001N1-00291-00391100771ADDAA199000091AJ100009199999999GA1001+999999999GF100991001001999999001001IA1259KA1120N-00301MA1999999100731MD1210091+9999REMSYN076AAXX  01064 02586 32999 02803 11029 21039 30073 40077 52009 333 21030 41998;EQDQ01  00002PRCP99
0165025860999992000020109004+58250+017020FM-12+000799999V0202801N001519999999N0500001N1-00251-00391100801ADDGA1041+025009039GF105991041001999999031041MA1999999100761MD1110031+9999REMSYN082AAXX  01094 02586 42999 52803 11025 21039 30076 40080 51003 84034 333 84399 83099;
0195025860999992000020112004+58250+017020FM-12+000799999V0202101N001519999999N0500001N1+00151-00471100691ADDAA199000091GA1011+025009039GF106991011001999999031081MA1999999100651MD1810111+9999REMSYN082AAXX  01124 02586 32999 62103 10015 21047 30065 40069 58011 81038 333 81399 85299;EQDQ01  00002PRCP99
0165025860999992000020115004+58250+017020FM-12+000799999V0201801N00211004501CN0200001N1+00021-00231100391ADDGA1061+004509069GF108991061051004501071999MA1999999100351MD1810301+9999REMSYN082AAXX  01154 02586 42498 81804 10002 21023 30035 40039 58030 8657/ 333 86694 88399;
0223025860999992000020118004+58250+017020FM-12+000799999V0201801N002110007519N0020001N1+00051+00041100001ADDAA112001091AY171061AY221061GA1081+000759069GF108991081071000751999999KA1120M+00151MA1999999099961MD1810391+9999MW1731REMSYN094AAXX  01184 02586 11195 81804 10005 20004 39996 40000 58039 60012 77372 887// 333 10015 88791;
0243025860999992000020206004+58250+017020FM-12+000799999V0202701N002612200019N0500001N1+00281-00071099221ADDAA112003091AJ199992999999999GA1031+008009059GF103991031051008001001081IA1259KA1120N+00021MA1999999099181MD1110041+9999REMSYN094AAXX  02064 02586 12599 32705 10028 21007 39918 49922 51004 60032 83508 333 20002 41998 83695;EQDQ01  09972SNDP  
0159025860999992000020209004+58250+017020FM-12+000799999V0202701N003612200019N0500001N1+00351-00171099231ADDGA1011+999999089GF101991001001999999001081MA1999999099191MD1210011+9999REMSYN076AAXX  02094 02586 42999 12707 10035 21017 39919 49923 52001 80008 333 81299;
0189025860999992000020212004+58250+017020FM-12+000799999V0202701N004612200019N0500001N1+00521-00361099221ADDAA199000091GA1011+004509059GF101991011051004501001081MA1999999099181MD1810011+9999REMSYN076AAXX  02124 02586 32499 12709 10052 21036 39918 49922 58001 81508 333 81694;EQDQ01  00002PRCP99
0159025860999992000020215004+58250+017020FM-12+000799999V0202601N003112200019N0500001N1+00461-00391099091ADDGA1011+008009059GF102991011051008001001021MA1999999099051MD1710131+9999REMSYN076AAXX  02154 02586 42599 22606 10046 21039 39905 49909 57013 81502 333 81695;
0208025860999992000020218004+58250+017020FM-12+000799999V0202201N002612200019N0200001N1+00291-00341098931ADDAA199000091GA1041+007509059GF104991041051008001001001KA1120M+00521MA1999999098891MD1810161+9999REMSYN082AAXX  02184 02586 32598 42205 10029 21034 39889 49893 58016 84500 333 10052 84625;EQDQ01  00002PRCP99
0271025860999992000020306004+58250+017020FM-12+000799999V0203101N003612200019N0500001N1-00261-00501100451ADDAA112000891AJ100029199999999AY171061AY211061GA1011+004509059GF101991011051004501001001IA1239KA1120N-00291MA1999999100411MD1210522+9999MW1011REMSYN100AAXX  03064 02586 11499 13107 11026 21050 30041 40045 52052 69972 70171 81500 333 21029 47002 81694;EQDQ01+000522APC3  
0143025860999992000020309004+58250+017020FM-12+000799999V0203101N003112200019N0500001N1-00441-00781100941ADDGA1001+999999999GF100991001001999999001001MA1999999100901MD1210491+9999REMSYN060AAXX  03094 02586 42999 03106 11044 21078 30090 40094 52049;
0173025860999992000020312004+58250+017020FM-12+000799999V0203001N003612200019N0500001N1-00221-00761101261ADDAA199000091GA1001+999999999GF100991001001999999001001MA1999999101221MD1210321+9999REMSYN060AAXX  03124 02586 32999 03007 11022 21076 30122 40126 52032;EQDQ01  00002PRCP99
0159025860999992000020315004+58250+017020FM-12+000799999V0203001N003612200019N0500001N1-00161-00681101551ADDGA1011+008009059GF101991011051008001001001MA1999999101511MD1310291+9999REMSYN076AAXX  03154 02586 42599 13007 11016 21068 30151 40155 53029 81500 333 81695;
0196025860999992000020318004+58250+017020FM-12+000799999V0203001N004112200019N0500001N1-00171-00701101911ADDAA199000091GA1001+999999999GF100991001001999999001001KA1999M-00161MA1999999101871MD1210361+9999REMSYN070AAXX  03184 02586 32999 03008 11017 21070 30187 40191 52036 333 11016;EQDQ01  00002PRCP99
0265025860999992000020406004+58250+017020FM-12+000799999V0202301N00461999999CN0200001N1+00151-00251101151ADDAA199000091AJ100019199999999GA1021+008009069GA2041+025009039GF108991021051008001071081IA1309KA1120N-00251MA1999999101111MD1710471+9999REMSYN100AAXX  04064 02586 32598 82309 10015 21025 30111 40115 57047 82578 333 21025 42001 82695 84399 88299;EQDQ01  00002PRCP99
0159025860999992000020409004+58250+017020FM-12+000799999V0202401N004110080019N0200001N1+00391-00051100741ADDGA1071+008009059GF107991071051008001001001MA1999999100701MD1710401+9999REMSYN076AAXX  04094 02586 42598 72408 10039 21005 30070 40074 57040 87500 333 87695;
0189025860999992000020412004+58250+017020FM-12+000799999V0202701N003610080019N0500001N1+00561-00041100441ADDAA199000091GA1071+008009059GF107991071051008001001001MA1999999100401MD1710301+9999REMSYN076AAXX  04124 02586 32599 72707 10056 21004 30040 40044 57030 87500 333 87695;EQDQ01  00002PRCP99
0159025860999992000020415004+58250+017020FM-12+000799999V0202601N003110045019N0200001N1+00531+00121100201ADDGA1071+004509059GF108991071051004501999999MA1999999100161MD1710241+9999REMSYN076AAXX  04154 02586 42498 82606 10053 20012 30016 40020 57024 875// 333 87694;
0208025860999992000020418004+58250+017020FM-12+000799999V0202701N002110030019N0200001N1+00511+00281100171ADDAA199000091GA1081+003009059GF108991081051004501999999KA1120M+00561MA1999999100131MD1610031+9999REMSYN082AAXX  04184 02586 32498 82704 10051 20028 30013 40017 56003 885// 333 10056 88610;EQDQ01  00002PRCP99
0271025860999992000020506004+58250+017020FM-12+000799999V0202801N001012200019N0500001N1+00091-00181101081ADDAA112004191AJ199992999999999AY161061AY211061GA1011+999999089GF101991001001999999001081IA1259KA1120N+00051MA1999999101041MD1210371+9999MW1011REMSYN100AAXX  05064 02586 11999 12802 10009 21018 30104 40108 52037 60042 70161 80008 333 20005 41998 81299;EQDQ01  09972SNDP  
0159025860999992000020509004+58250+017020FM-12+000799999V0203001N001019999999N0500001N1+00161-00021101321ADDGA1051+999999089GF105991001001999999001081MA1999999101281MD1110241+9999REMSYN076AAXX  05094 02586 42999 53002 10016 21002 30128 40132 51024 80008 333 85299;
0195025860999992000020512004+58250+017020FM-12+000799999V0201701N00101999999CN0500001N1+00341-00361101371ADDAA199000091GA1061+025009039GF107991061001999999051061MA1999999101331MD1110051+9999REMSYN082AAXX  05124 02586 32999 71702 10034 21036 30133 40137 51005 86056 333 86399 87299;EQDQ01  00002PRCP99
0253025860999992000020606004+58250+017020FM-12+000799999V0202101N001510033019N0100001N1+00311+00301100431ADDAA199000091AJ199992999999999GA1071+003309059GF108991071051004501999999IA1259KA1120N+00211MA1999999100391MD1710231+9999REMSYN088AAXX  06064 02586 32497 82103 10031 20030 30039 40043 57023 875// 333 20021 41998 87611;EQDQ01  00002PRCP99Q02  09972SNDP  
0159025860999992000020609004+58250+017020FM-12+000799999V0202501N003610045019N0200001N1+00611+00091100421ADDGA1071+004509059GF108991071051004501999999MA1999999100381MD1810011+9999REMSYN076AAXX  06094 02586 42498 82507 10061 20009 30038 40042 58001 875// 333 87694;
0189025860999992000020612004+58250+017020FM-12+000799999V0202701N003110045019N0200001N1+00821+00241100461ADDAA199000091GA1071+004509059GF107991071051004501001001MA1999999100421MD1310041+9999REMSYN076AAXX  06124 02586 32498 72706 10082 20024 30042 40046 53004 87500 333 87694;EQDQ01  00002PRCP99
0165025860999992000020615004+58250+017020FM-12+000799999V0202501N003119999999N0200001N1+00741+00121100591ADDGA1011+025009009GF106991001001999999001081MA1999999100551MD1310131+9999REMSYN082AAXX  06154 02586 42998 62506 10074 20012 30055 40059 53013 80008 333 81099 85299;
0208025860999992000020618004+58250+017020FM-12+000799999V0202301N002612200019N0200001N1+00491+00121100781ADDAA199000091GA1011+999999089GF101991001001999999001081KA1120M+00821MA1999999100741MD1210191+9999REMSYN082AAXX  06184 02586 32998 12305 10049 20012 30074 40078 52019 80008 333 10082 81299;EQDQ01  00002PRCP99
0241025860999992000020706004+58250+017020FM-12+000799999V0201801N00361000751CN0010001N1+00281+00271100151ADDAA112001091AY161061AY221061GA1061+000759079GF108991061071000751021999IA1119KA1120N+00121MA1999999100111MD1810331+9999MW1631REMSYN106AAXX  07064 02586 11194 81807 10028 20027 30011 40015 58033 69992 76362 8672/ 333 20012 32/// 86791 88598;
0171025860999992000020709004+58250+017020FM-12+000799999V0201901N004110003019N0002001N1+00291+00281099831ADDAY161031AY241031GA1091+999999999GF109991091999999999999999MA1999999099791MD1710321+9999MW1471REMSYN066AAXX  07094 02586 41/92 91908 10029 20028 39979 49983 57032 74764;
0210025860999992000020712004+58250+017020FM-12+000799999V0201901N00411004501CN0100001N1+00381+00371099451ADDAA106003091AY161061AY241061GA1061+004509069GF108991061051004501071999MA1999999099411MD1710381+9999MW1281REMSYN094AAXX  07124 02586 11497 81908 10038 20037 39941 49945 57038 60031 72864 8657/ 333 86694 88399;
0159025860999992000020715004+58250+017020FM-12+000799999V0202301N004612200019N0500001N1+00591-00101099311ADDGA1021+004509059GF102991021051004501001081MA1999999099271MD1710141+9999REMSYN076AAXX  07154 02586 42499 22309 10059 21010 39927 49931 57014 82508 333 82694;
0195025860999992000020718004+58250+017020FM-12+000799999V0202301N005112200019N0200001N1+00471-00331099241ADDAA112003091GA1011+008009059GF101991011051008001001001KA1120M+00671MA1999999099201MD1810071+9999REMSYN088AAXX  07184 02586 12598 12310 10047 21033 39920 49924 58007 60032 81500 333 10067 81695;
0241025860999992000020806004+58250+017020FM-12+000799999V0201801N00261004501CN0100001N1+00201+00131098821ADDAA112000591AY161061AY221061GA1051+004509069GF108991051051004501021999IA1149KA1120N+00181MA1999999098781MD1710311+9999MW1601REMSYN106AAXX  08064 02586 11497 81805 10020 20013 39878 49882 57031 69962 76062 8552/ 333 20018 34/// 85694 88599;
0187025860999992000020809004+58250+017020FM-12+000799999V0202101N002110007519N0010001N1+00261+00251098661ADDAY161031AY221031GA1071+000759069GF108991071061000751999999MA1999999098621MD1710161+9999MW1021REMSYN082AAXX  08094 02586 41194 82104 10026 20025 39862 49866 57016 70262 876// 333 87791;
0204025860999992000020812004+58250+017020FM-12+000799999V0202901N001010045019N0100001N1+00371+00341098591ADDAA106000391AY161061AY221061GA1071+004509059GF108991071051004501999999MA1999999098551MD1710071+9999MW1021REMSYN088AAXX  08124 02586 11497 82902 10037 20034 39855 49859 57007 69931 70262 875// 333 87694;
0165025860999992000020815004+58250+017020FM-12+000799999V0202901N00151008001CN0200001N1+00341+00191098631ADDGA1051+008009069GF107991051051008001071001MA1999999098591MD1310041+9999REMSYN082AAXX  08154 02586 42598 72903 10034 20019 39859 49863 53004 85570 333 85695 83399;
0195025860999992000020818004+58250+017020FM-12+000799999V0202301N001510024019N0200001N1+00251+00131098621ADDAA112000391GA1051+002409069GF105991051071002501001021KA1120M+00371MA1999999098581MD1810011+9999REMSYN088AAXX  08184 02586 12398 52303 10025 20013 39858 49862 58001 69932 85702 333 10037 85708;
0213025860999992000020906004+58250+017020FM-12+000799999V0200401N001519999999N0005001N1+00151+00141098521ADDAA112002091AY161061AY241061GF108991081999999999999999IA1119KA1120N+00101MA1999999098481MD1310081+9999MW1611REMSYN094AAXX  09064 02586 11/93 80403 10015 20014 39848 49852 53008 60022 76164 88/// 333 20010 32///;
0161025860999992000020909004+58250+017020FM-12+000799999V0203401N001019999999N0005001N1+00101+00091098811ADDAY161031AY241031GF108991081999999999999999MA1999999098771MD1310291+9999MW1601REMSYN072AAXX  09094 02586 41/93 83402 10010 20009 39877 49881 53029 76064 88///;
0210025860999992000020912004+58250+017020FM-12+000799999V0203401N00211000751CN0020001N1+00081+00071099201ADDAA106002091AY161061AY241061GA1061+000759079GF108991061071000751021999MA1999999099161MD1210391+9999MW1711REMSYN094AAXX  09124 02586 11195 83404 10008 20007 39916 49920 52039 60021 77164 8672/ 333 86791 88598;
0193025860999992000020915004+58250+017020FM-12+000799999V0203501N00261001501CN0100001N1+00091+00061099681ADDAY171031AY221031GA1051+001509079GF108991051071001501011999MA1999999099641MD1210481+9999MW1701REMSYN088AAXX  09154 02586 41297 83505 10009 20006 39964 49968 52048 77072 8571/ 333 85792 88399;
0223025860999992000020918004+58250+017020FM-12+000799999V0203201N002612200019N0200001N1+00041+00011100271ADDAA112002091AY171061AY221061GA1011+999999079GF101991011001999999071081KA1120M+00161MA1999999100231MD1310591+9999MW1011REMSYN094AAXX  09184 02586 11998 13205 10004 20001 30023 40027 53059 60022 70172 81078 333 10016 81399;
0226025860999992000021006004+58250+017020FM-12+000799999V0202301N002112200019N0500001N1-00171-00201100981ADDAA199000091GA1021+025009039GF104991021001999999031041IA1149KA1120N-00181MA1999999100941MD1810011+9999REMSYN094AAXX  10064 02586 32999 42304 11017 21020 30094 40098 58001 82034 333 21018 34/// 82399 83099;EQDQ01  00002PRCP99
0165025860999992000021009004+58250+017020FM-12+000799999V0202001N004110300019N0200001N1-00021-00061100931ADDGA1011+008009069GF105991011051008001071051MA1999999100891MD1610051+9999REMSYN082AAXX  10094 02586 42598 52008 11002 21006 30089 40093 56005 81575 333 81695 83299;
0217025860999992000021012004+58250+017020FM-12+000799999V0201901N003110300019N0200001N1+00191+00111100681ADDAA199000091GA1011+004509069GA2031+025009039GF106991011051004501071081MA1999999100641MD1810251+9999REMSYN088AAXX  10124 02586 32498 61906 10019 20011 30064 40068 58025 81578 333 81694 83399 86299;EQDQ01  00002PRCP99
0165025860999992000021015004+58250+017020FM-12+000799999V0201801N00461004501CN0200001N1+00231+00201100251ADDGA1061+004509069GF106991061051004501001081MA1999999100211MD1810431+9999REMSYN082AAXX  10154 02586 42498 61809 10023 20020 30021 40025 58043 86508 333 86694 85299;
0208025860999992000021018004+58250+017020FM-12+000799999V0201901N005710072019N0200001N1+00291+00201099961ADDAA199000091GA1071+007209059GF108991071051008001999999KA1120M+00291MA1999999099921MD1610291+9999REMSYN082AAXX  10184 02586 32598 81911 10029 20020 39992 49996 56029 875// 333 10029 87624;EQDQ01  00002PRCP99
0220025860999992000021106004+58250+017020FM-12+000799999V0202601N004112200019N0200001N1+00391-00281100311ADDAA199000091GA1011+008009059GF101991011051008001001001IA1119KA1120N+00291MA1999999100271MD1310301+9999REMSYN088AAXX  11064 02586 32598 12608 10039 21028 30027 40031 53030 81500 333 20029 32/// 81695;EQDQ01  00002PRCP99
0143025860999992000021109004+58250+017020FM-12+000799999V0202601N005112200019N0200001N1+00441-00411100601ADDGA1001+999999999GF100991001001999999001001MA1999999100561MD1210291+9999REMSYN060AAXX  11094 02586 42998 02610 10044 21041 30056 40060 52029;
0189025860999992000021112004+58250+017020FM-12+000799999V0202501N005712200019N0200001N1+00651-00381100741ADDAA199000091GA1031+012509029GF103991031011012501001001MA1999999100701MD1110141+9999REMSYN076AAXX  11124 02586 32698 32511 10065 21038 30070 40074 51014 83100 333 83896;EQDQ01  00002PRCP99
0159025860999992000021115004+58250+017020FM-12+000799999V0202501N004112200019N0500001N1+00651-00321100851ADDGA1011+012509029GF101991011011012501001001MA1999999100811MD1110111+9999REMSYN076AAXX  11154 02586 42699 12508 10065 21032 30081 40085 51011 81100 333 81896;
0208025860999992000021118004+58250+017020FM-12+000799999V0202401N003612200019N0200001N1+00521-00261101071ADDAA199000091GA1021+008009059GF102991021041008001001001KA1120M+00681MA1999999101031MD1310221+9999REMSYN082AAXX  11184 02586 32598 22407 10052 21026 30103 40107 53022 82400 333 10068 82695;EQDQ01  00002PRCP99
0220025860999992000021206004+58250+017020FM-12+000799999V0202401N003110080019N0200001N1+00461-00211101411ADDAA199000091GA1051+008009059GF105991051051008001071001IA1119KA1120N+00411MA1999999101371MD1710031+9999REMSYN088AAXX  12064 02586 32598 52406 10046 21021 30137 40141 57003 85570 333 20041 32/// 85695;EQDQ01  00002PRCP99
0159025860999992000021209004+58250+017020FM-12+000799999V0202101N004610080019N0200001N1+00431-00191101361ADDGA1061+008009059GF106991061051008001001081MA1999999101321MD1710051+9999REMSYN076AAXX  12094 02586 42598 62109 10043 21019 30132 40136 57005 86508 333 86695;
0195025860999992000021212004+58250+017020FM-12+000799999V0201801N00311030001CN0200001N1+00471+00011101151ADDAA199000091GA1011+008009069GF106991011051008001031001MA1999999101111MD1810211+9999REMSYN082AAXX  12124 02586 32598 61806 10047 20001 30111 40115 58021 81530 333 81695 85399;EQDQ01  00002PRCP99
0220025860999992000021306004+58250+017020FM-12+000799999V0202301N003112200019N0500001N1+00141-00311099811ADDAA199000091GA1011+008009059GF102991011051008001031011IA1099KA1120N+00131MA1999999099771MD1710041+9999REMSYN088AAXX  13064 02586 32599 22306 10014 21031 39977 49981 57004 81531 333 20013 31/// 81695;EQDQ01  00002PRCP99
0165025860999992000021309004+58250+017020FM-12+000799999V0202301N00361030001CN0500001N1+00231-00311099871ADDGA1011+004509069GF106991011051004501071021MA1999999099831MD1210061+9999REMSYN082AAXX  13094 02586 42499 62307 10023 21031 39983 49987 52006 81572 333 81694 85099;
0189025860999992000021312004+58250+017020FM-12+000799999V0202401N003110125019N0500001N1+00471-00461099851ADDAA199000091GA1051+012509029GF105991051021012501001001MA1999999099811MD1710021+9999REMSYN076AAXX  13124 02586 32699 52406 10047 21046 39981 49985 57002 85200 333 85896;EQDQ01  00002PRCP99
0159025860999992000021315004+58250+017020FM-12+000799999V0202301N003112200019N0500001N1+00401-00571099821ADDGA1041+012509029GF104991041011012501001001MA1999999099781MD1710031+9999REMSYN076AAXX  13154 02586 42699 42306 10040 21057 39978 49982 57003 84100 333 84896;
0208025860999992000021318004+58250+017020FM-12+000799999V0202101N004110125019N0500001N1+00211-00241099751ADDAA199000091GA1061+012509059GF106991061051012501001001KA1120M+00481MA1999999099711MD1810071+9999REMSYN082AAXX  13184 02586 32699 62108 10021 21024 39971 49975 58007 86500 333 10048 86696;EQDQ01  00002PRCP99
0208025860999992000021406004+58250+017020FM-12+000799999V0202801N003612200019N0500001N1-00051-00491100231ADDAA199000091GA1001+999999999GF100991001001999999001001IA1149KA1120N-00091MA1999999100191MD1210201+9999REMSYN076AAXX  14064 02586 32999 02807 11005 21049 30019 40023 52020 333 21009 34///;EQDQ01  00002PRCP99
0189025860999992000021412004+58250+017020FM-12+000799999V0203101N003112200019N0500001N1+00301-00541100661ADDAA199000091GA1011+999999079GF101991011001999999041001MA1999999100621MD1210211+9999REMSYN076AAXX  14124 02586 32999 13106 10030 21054 30062 40066 52021 81040 333 81399;EQDQ01  00002PRCP99
0113025860999992000021415004+58250+017020FM-12+000799999V0203001N002612200019N0500001N1+00281-00691999999ADDGA1001+999999999GF100991001001999999001001REMSYN059AAXX  14154 02586 42999 03005 10028 21069 3008 40088 52022;
0196025860999992000021418004+58250+017020FM-12+000799999V0202601N001512200019N0500001N1+00051-00751101001ADDAA199000091GA1001+999999999GF100991001001999999001001KA1999M+00321MA1999999100961MD1110121+9999REMSYN070AAXX  14184 02586 32999 02603 10005 21075 30096 40100 51012 333 10032;EQDQ01  00002PRCP99
0165025860999992000021615004+58250+017020FM-12+000799999V0201401N000510120019N0500001N1+00171-00121099541ADDGA1011+008009089GF107991071081008001001001MA1999999099501MD1610041+9999REMSYN082AAXX  16154 02586 42599 71401 10017 21012 39950 49954 56004 87800 333 81895 86695;
0208025860999992000021618004+58250+017020FM-12+000799999V0201001N000510080019N0500001N1+00131+00051099561ADDAA199000091GA1071+008009059GF108991071051008001999999KA1120M+00321MA1999999099521MD1010021+9999REMSYN082AAXX  16184 02586 32599 81001 10013 20005 39952 49956 50002 875// 333 10032 87695;EQDQ01  00002PRCP99
0241025860999992000021706004+58250+017020FM-12+000799999V0203501N00361004201CN0200001N1-00101-00271099681ADDAA112000791AY181061AY221061GA1021+004509099GF108991071091004501999999IA1149KA1120N-00121MA1999999099641MD1310091+9999MW1851REMSYN106AAXX  17064 02586 11498 83507 11010 21027 39964 49968 53009 69902 78582 879// 333 21012 34/// 82994 85694;
0187025860999992000021709004+58250+017020FM-12+000799999V0203401N003610080019N0500001N1-00081-00371099821ADDAY181031AY221031GA1071+008009059GF107991071051008001001001MA1999999099781MD1210141+9999MW1021REMSYN082AAXX  17094 02586 41599 73407 11008 21037 39978 49982 52014 70282 87500 333 87695;
0204025860999992000021712004+58250+017020FM-12+000799999V0202901N003112200019N0500001N1+00031-00471100011ADDAA106000791AY181061AY281061GA1011+008009059GF102991011051008001031001MA1999999099971MD1310191+9999MW1011REMSYN088AAXX  17124 02586 11599 22906 10003 21047 39997 40001 53019 69901 70188 81530 333 81695;
0159025860999992000021715004+58250+017020FM-12+000799999V0203101N002612200019N0500001N1-00081-00471100251ADDGA1021+008009059GF102991021051008001001001MA1999999100211MD1210241+9999REMSYN076AAXX  17154 02586 42599 23105 11008 21047 30021 40025 52024 82500 333 82695;
0195025860999992000021718004+58250+017020FM-12+000799999V0202901N002112200019N0500001N1-00251-00491100441ADDAA112000791GA1011+008009059GF101991011051008001001001KA1120M+00031MA1999999100401MD1110191+9999REMSYN088AAXX  17184 02586 12599 12904 11025 21049 30040 40044 51019 69902 81500 333 10003 81695;
0220025860999992000021806004+58250+017020FM-12+000799999V0202901N001510080019N0500001N1-00271-00501100611ADDAA199000091GA1051+008009059GF105991051051008001001001IA1149KA1120N-00401MA1999999100571MD1310021+9999REMSYN088AAXX  18064 02586 32599 52903 11027 21050 30057 40061 53002 85500 333 21040 34/// 85695;EQDQ01  00002PRCP99
0159025860999992000021809004+58250+017020FM-12+000799999V0202501N001010045019N0500001N1-00211-00531100681ADDGA1071+004509059GF107991071051004501001001MA1999999100641MD1310071+9999REMSYN076AAXX  18094 02586 42499 72502 11021 21053 30064 40068 53007 87500 333 87694;
0189025860999992000021812004+58250+017020FM-12+000799999V0202001N001010080019N0200001N1-00141-00601100711ADDAA199000091GA1071+008009059GF107991071051008001001001MA1999999100671MD1210031+9999REMSYN076AAXX  18124 02586 32598 72002 11014 21060 30067 40071 52003 87500 333 87695;EQDQ01  00002PRCP99
0187025860999992000021815004+58250+017020FM-12+000799999V0201801N00101030001CN0500001N1-00121-00561100651ADDGA1011+008009069GA2041+025009039GF107991011051008001031081MA1999999100611MD1710061+9999REMSYN088AAXX  18154 02586 42599 71802 11012 21056 30061 40065 57006 81538 333 81695 84399 86299;
0214025860999992000021818004+58250+017020FM-12+000799999V0201801N00151075001CN0500001N1-00231-00551100681ADDAA199000091GA1031+008009069GF107991031051008001001081KA1120M-00121MA1999999100641MD1310031+9999REMSYN088AAXX  18184 02586 32599 71803 11023 21055 30064 40068 53003 83508 333 11012 83695 87299;EQDQ01  00002PRCP99
0226025860999992000021906004+58250+017020FM-12+000799999V0201401N00051030001CN0200001N1-00221-00351100961ADDAA199000091GA1041+004509069GF108991041051004501071999IA1149KA1120N-00451MA1999999100921MD1210121+9999REMSYN094AAXX  19064 02586 32498 81401 11022 21035 30092 40096 52012 8457/ 333 21045 34/// 84694 88399;EQDQ01  00002PRCP99
0159025860999992000021909004+58250+017020FM-12+000799999V0201201N001010080019N0500001N1+00051-00221101091ADDGA1081+008009059GF108991081051008001999999MA1999999101051MD1210131+9999REMSYN076AAXX  19094 02586 42599 81202 10005 21022 30105 40109 52013 885// 333 88695;
0204025860999992000021912004+58250+017020FM-12+000799999V0201401N001010015019N0010001N1+00071+00011101201ADDAA106000591AY181061AY271061GA1071+001509069GF108991071071001501999999MA1999999101161MD1210111+9999MW1741REMSYN088AAXX  19124 02586 11294 81402 10007 20001 30116 40120 52011 69961 77487 877// 333 87792;
0243025860999992000022006004+58250+017020FM-12+000799999V0203301N001510045019N0200001N1-00291-00321101991ADDAA112000191AJ199992999999999GA1081+004509059GF108991081051004501999999IA1229KA1120N-00311MA1999999101951MD1310161+9999REMSYN094AAXX  20064 02586 12498 83303 11029 21032 30195 40199 53016 69922 885// 333 21031 46998 88694;EQDQ01  09972SNDP  
0159025860999992000022009004+58250+017020FM-12+000799999V0202901N002110045019N0200001N1-00351-00491102121ADDGA1071+004509059GF108991071051004501999999MA1999999102081MD1210131+9999REMSYN076AAXX  20094 02586 42498 82904 11035 21049 30208 40212 52013 875// 333 87694;
0189025860999992000022012004+58250+017020FM-12+000799999V0202901N001512200019N0500001N1-00051-00651102191ADDAA199000091GA1011+004509059GF101991011051004501001021MA1999999102151MD1210071+9999REMSYN076AAXX  20124 02586 32499 12903 11005 21065 30215 40219 52007 81502 333 81694;EQDQ01  00002PRCP99
0159025860999992000022015004+58250+017020FM-12+000799999V0203101N001512200019N0500001N1-00011-00761102211ADDGA1011+004509059GF101991011051004501001011MA1999999102171MD1110021+9999REMSYN076AAXX  20154 02586 42499 13103 11001 21076 30217 40221 51002 81501 333 81694;
0196025860999992000022018004+58250+017020FM-12+000799999V0202901N001512200019N0500001N1-00291-00661102281ADDAA199000091GA1001+999999999GF100991001001999999001001KA1999M-00011MA1999999102241MD1210071+9999REMSYN070AAXX  20184 02586 32999 02903 11029 21066 30224 40228 52007 333 11001;EQDQ01  00002PRCP99
0225025860999992000022106004+58250+017020FM-12+000799999V0203201N002112200019N0500001N1-00431-00631102451ADDAA199000091AJ100009199999999GA1001+999999999GF100991001001999999001001IA1229KA1120N-00451MA1999999102411MD1210011+9999REMSYN076AAXX  21064 02586 32999 03204 11043 21063 30241 40245 52001 333 21045 46998;EQDQ01  00002PRCP99
0143025860999992000022109004+58250+017020FM-12+000799999V0202901N002112200019N0200001N1-00291-00581102551ADDGA1001+999999999GF100991001001999999001001MA1999999102511MD1310101+9999REMSYN060AAXX  21094 02586 42998 02904 11029 21058 30251 40255 53010;
0143025860999992000022115004+58250+017020FM-12+000799999V0203401N000512200019N0500001N1+00151-00761102471ADDGA1001+999999999GF100991001001999999001001MA1999999102431MD1710071+9999REMSYN060AAXX  21154 02586 42999 03401 10015 21076 30243 40247 57007;
0196025860999992000022118004+58250+017020FM-12+000799999V0202601N001012200019N0500001N1-00371-00641102451ADDAA199000091GA1001+999999999GF100991001001999999001001KA1999M+00171MA1999999102411MD1610021+9999REMSYN070AAXX  21184 02586 32999 02602 11037 21064 30241 40245 56002 333 10017;EQDQ01  00002PRCP99
0253025860999992000022206004+58250+017020FM-12+000799999V0202701N001512200019N0500001N1-00381-00521102281ADDAA199000091AJ199992999999999GA1011+999999079GF101991011001999999071001IA1229KA1120N-00531MA1999999102241MD1610021+9999REMSYN088AAXX  22064 02586 32999 12703 11038 21052 30224 40228 56002 81070 333 21053 46998 81399;EQDQ01  00002PRCP99Q02  09972SNDP  
0159025860999992000022209004+58250+017020FM-12+000799999V0202501N001019999999N0500001N1-00211-00531102301ADDGA1071+999999079GF107991071001999999071001MA1999999102261MD1110021+9999REMSYN076AAXX  22094 02586 42999 72502 11021 21053 30226 40230 51002 87070 333 87399;
0189025860999992000022212004+58250+017020FM-12+000799999V0202401N001019999999N0500001N1+00011-00501102311ADDAA199000091GA1071+999999079GF107991071001999999071001MA1999999102271MD1210011+9999REMSYN076AAXX  22124 02586 32999 72402 10001 21050 30227 40231 52001 87070 333 87399;EQDQ01  00002PRCP99
0165025860999992000022215004+58250+017020FM-12+000799999V0202501N000519999999N0500001N1+00131-00691102281ADDGA1031+025009039GF108991081001999999011999MA1999999102241MD1710031+9999REMSYN082AAXX  22154 02586 42999 82501 10013 21069 30224 40228 57003 8801/ 333 83399 88499;
0214025860999992000022218004+58250+017020FM-12+000799999V0202701N001019999999N0500001N1-00091-00441102301ADDAA199000091GA1011+025009039GF105991011001999999031081KA1120M+00151MA1999999102261MD1310021+9999REMSYN088AAXX  22184 02586 32999 52702 11009 21044 30226 40230 53002 81038 333 10015 81399 85299;EQDQ01  00002PRCP99
0258025860999992000022306004+58250+017020FM-12+000799999V0203301N00151001501CN0040001N1-00061-00071102421ADDAA112000891AJ100029199999999AY171061AY221061GA1061+001509079GF108991061071001501021999IA1239KA1120N-00121MA1999999102381MD1210081+9999MW1711REMSYN106AAXX  23064 02586 11296 83303 11006 21007 30238 40242 52008 69982 77172 8672/ 333 21012 47002 86792 88598;
0187025860999992000022309004+58250+017020FM-12+000799999V0203601N001510045019N0500001N1-00071-00171102561ADDAY171031AY221031GA1071+004509059GF107991071051004501001001MA1999999102521MD1310141+9999MW1021REMSYN082AAXX  23094 02586 41499 73603 11007 21017 30252 40256 53014 70272 87500 333 87694;
0210025860999992000022312004+58250+017020FM-12+000799999V0203401N00211030001CN0500001N1-00021-00211102591ADDAA106000791AY171061AY221061GA1021+008009069GF106991021051008001031001MA1999999102551MD1110031+9999MW1011REMSYN094AAXX  23124 02586 11599 63404 11002 21021 30255 40259 51003 69901 70172 82530 333 82695 85399;
0193025860999992000022315004+58250+017020FM-12+000799999V0200401N00101004201CN0200001N1+00071-00121102561ADDAY181031AY221031GA1041+004509099GF107991071091004501001001MA1999999102521MD1610031+9999MW1851REMSYN088AAXX  23154 02586 41498 70402 10007 21012 30252 40256 56003 78582 87900 333 84994 84695;
0229025860999992000022318004+58250+017020FM-12+000799999V0201001N00151004201CN0500001N1+00031-00221102601ADDAA112000391AY181061AY221061GA1031+004509099GF107991071091004501001001KA1120M+00071MA1999999102561MD1210041+9999MW1851REMSYN100AAXX  23184 02586 11499 71003 10003 21022 30256 40260 52004 69932 78582 87900 333 10007 83994 85695;
0271025860999992000022406004+58250+017020FM-12+000799999V0201801N00461030001CN0200001N1+00061-00131101991ADDAA112000791AJ199992999999999GA1021+004509099GA2021+004509069GF107991041031004501071001IA1229KA1120N-00041MA1999999101951MD1810251+9999REMSYN106AAXX  24064 02586 12498 71809 10006 21013 30195 40199 58025 69902 84370 333 21004 46998 82694 82994 87399;EQDQ01  09972SNDP  
0187025860999992000022409004+58250+017020FM-12+000799999V0201801N00571008001CN0200001N1+00061-00371101641ADDGA1041+004509069GA2011+008009099GF108991051091004501071999MA1999999101601MD1810351+9999REMSYN088AAXX  24094 02586 42498 81811 10006 21037 30160 40164 58035 8597/ 333 84694 81995 88399;
0204025860999992000022412004+58250+017020FM-12+000799999V0201701N006210007519N0010001N1+00111+00011101061ADDAA106000191AY171061AY221061GA1071+000759069GF108991071071000751999999MA1999999101021MD1810581+9999MW1731REMSYN088AAXX  24124 02586 11194 81712 10011 20001 30102 40106 58058 69911 77372 877// 333 87791;
0161025860999992000022415004+58250+017020FM-12+000799999V0201701N004619999999N0002001N1+00051+00041100541ADDAY171031AY271031GF108991999999999999999999MA1999999100501MD1710521+9999MW1751REMSYN072AAXX  24154 02586 41/92 81709 10005 20004 30050 40054 57052 77577 8////;
0223025860999992000022418004+58250+017020FM-12+000799999V0202201N003610015019N0100001N1+00101+00091100221ADDAA112006191AY171061AY271061GA1071+001509069GF108991071071001501999999KA1120M+00141MA1999999100181MD1710321+9999MW1711REMSYN094AAXX  24184 02586 11297 82207 10010 20009 30018 40022 57032 60062 77177 877// 333 10014 87792;
0224025860999992000022506004+58250+017020FM-12+000799999V0202501N002112200019N0500001N1+00091-00101100461ADDAA112000791AJ100029199999999GA1011+999999079GF101991011001999999041001IA1279KA1120N+00091MA1999999100421MD1210011+9999REMSYN094AAXX  25064 02586 12999 12504 10009 21010 30042 40046 52001 69902 81040 333 20009 43002 81399;
0165025860999992000022509004+58250+017020FM-12+000799999V0202601N00211030001CN0500001N1+00211-00081100511ADDGA1011+008009069GF106991011051008001071021MA1999999100471MD1310051+9999REMSYN082AAXX  25094 02586 42599 62604 10021 21008 30047 40051 53005 81572 333 81695 84399;
0189025860999992000022512004+58250+017020FM-12+000799999V0203001N002110080019N0500001N1+00351-00221100601ADDAA199000091GA1071+008009059GF108991071051008001999999MA1999999100561MD1110091+9999REMSYN076AAXX  25124 02586 32599 83004 10035 21022 30056 40060 51009 875// 333 87695;EQDQ01  00002PRCP99
0159025860999992000022515004+58250+017020FM-12+000799999V0202801N001510080019N0500001N1+00351-00251100681ADDGA1071+008009059GF107991071051008001001001MA1999999100641MD1210081+9999REMSYN076AAXX  25154 02586 42599 72803 10035 21025 30064 40068 52008 87500 333 87695;
0208025860999992000022518004+58250+017020FM-12+000799999V0202401N001512200019N0500001N1+00071-00201100851ADDAA199000091GA1021+008009059GF102991021051008001001001KA1120M+00351MA1999999100811MD1310171+9999REMSYN082AAXX  25184 02586 32599 22403 10007 21020 30081 40085 53017 82500 333 10035 82695;EQDQ01  00002PRCP99
0237025860999992000022606004+58250+017020FM-12+000799999V0203101N001512200019N0200001N1-00071-00081101631ADDAA199000091AJ100019199999999GA1011+004509059GF102991011051004501001011IA1309KA1120N-00101MA1999999101591MD1210201+9999REMSYN088AAXX  26064 02586 32498 23103 11007 21008 30159 40163 52020 81501 333 21010 42001 81694;EQDQ01  00002PRCP99
0143025860999992000022609004+58250+017020FM-12+000799999V0202801N001512200019N0500001N1+00091-00051101811ADDGA1001+999999999GF100991001001999999001001MA1999999101771MD1210181+9999REMSYN060AAXX  26094 02586 42999 02803 10009 21005 30177 40181 52018;
0189025860999992000022612004+58250+017020FM-12+000799999V0202601N001512200019N0500001N1+00581-00471101861ADDAA199000091GA1021+999999089GF102991001001999999001081MA1999999101821MD1110051+9999REMSYN076AAXX  26124 02586 32999 22603 10058 21047 30182 40186 51005 80008 333 82299;EQDQ01  00002PRCP99
0253025860999992000022706004+58250+017020FM-12+000799999V0202201N002119999999N0200001N1+00051-00021102101ADDAA199000091AJ199993999999999GA1051+999999089GF105991001001999999001081IA1259KA1120N+00051MA1999999102061MD1010011+9999REMSYN088AAXX  27064 02586 32998 52204 10005 21002 30206 40210 50001 80008 333 20005 41997 85299;EQDQ01  00002PRCP99Q02  09982SNDP  
0159025860999992000022709004+58250+017020FM-12+000799999V0202101N003619999999N0200001N1+00261+00011102031ADDGA1081+999999089GF108991001001999999001071MA1999999101991MD1810071+9999REMSYN076AAXX  27094 02586 42998 82107 10026 20001 30199 40203 58007 80007 333 88299;
0217025860999992000022712004+58250+017020FM-12+000799999V0202301N003610300019N0200001N1+00521-00361101821ADDAA199000091GA1011+008009069GA2031+025009039GF107991011051008001071081MA1999999101781MD1710211+9999REMSYN088AAXX  27124 02586 32598 72307 10052 21036 30178 40182 57021 81578 333 81695 83399 87299;EQDQ01  00002PRCP99
0165025860999992000022715004+58250+017020FM-12+000799999V0202201N003619999999N0200001N1+00561-00461101481ADDGA1011+025009039GF107991011001999999071081MA1999999101441MD1710341+9999REMSYN082AAXX  27154 02586 42998 72207 10056 21046 30144 40148 57034 81078 333 81399 87299;
0214025860999992000022718004+58250+017020FM-12+000799999V0202001N004112200019N0200001N1+00381-00471101201ADDAA199000091GA1021+025009039GF104991021001999999071081KA1120M+00651MA1999999101161MD1710281+9999REMSYN088AAXX  27184 02586 32998 42008 10038 21047 30116 40120 57028 82078 333 10065 82399 83299;EQDQ01  00002PRCP99
0253025860999992000022806004+58250+017020FM-12+000799999V0201801N003610080019N0100001N1+00361+00151099991ADDAA199000091AJ199992999999999GA1071+008009059GF108991071051008001999999IA1259KA1120N+00321MA1999999099951MD1710291+9999REMSYN088AAXX  28064 02586 32597 81807 10036 20015 39995 49999 57029 875// 333 20032 41998 87695;EQDQ01  00002PRCP99Q02  09972SNDP  
0223025860999992000022818004+58250+017020FM-12+000799999V0202301N002619999999N0200001N1+00391+00241099791ADDAA112000191AY161061AY221061GA1071+999999079GF108991071001999999071999KA1120M+00851MA1999999099751MD1210281+9999MW1031REMSYN094AAXX  28184 02586 11998 82305 10039 20024 39975 49979 52028 69922 70362 8707/ 333 10085 87399;
0253025860999992000022906004+58250+017020FM-12+000799999V0202301N004112200019N0500001N1+00281-00131100111ADDAA199000091AJ199992999999999GA1011+008009059GF102991011051008001071001IA1259KA1120N+00251MA1999999100071MD1210111+9999REMSYN088AAXX  29064 02586 32599 22308 10028 21013 30007 40011 52011 81570 333 20025 41998 81695;EQDQ01  00002PRCP99Q02  09972SNDP  
0159025860999992000022909004+58250+017020FM-12+000799999V0202501N005710080019N0200001N1+00551-00221100271ADDGA1061+008009059GF106991061051008001001001MA1999999100251MD1310161+9999REMSYN076AAXX  29094 02586 42598 62511 10055 21022 30025 40027 53016 86500 333 86695;
0208025860999992000022918004+58250+017020FM-12+000799999V0201901N004612200019N0500001N1+00321-00401100001ADDAA199000091GA1021+999999019GF102991001001999999001041KA1120M+00711MA1999999099961MD1710181+9999REMSYN082AAXX  29184 02586 32999 21909 10032 21040 39996 40000 57018 80004 333 10071 82099;EQDQ01  00002PRCP99
0277025860999992000030106004+58250+017020FM-12+000799999V0201701N00361001501CN0020001N1+00271+00261098541ADDAA112000791AJ199992999999999AY161061AY221061GA1061+001509079GF108991061071001501021999IA1259KA1120N+00161MA1999999098501MD1710401+9999MW1611REMSYN106AAXX  01064 02586 11295 81707 10027 20026 39850 49854 57040 69902 76162 8672/ 333 20016 41998 86792 88598;EQDQ01  09972SNDP  
0193025860999992000030109004+58250+017020FM-12+000799999V0201901N00261001501CN0020001N1+00291+00281098141ADDAY161031AY221031GA1061+001509079GF108991061071001501021999MA1999999098101MD1710401+9999MW1601REMSYN088AAXX  01094 02586 41295 81905 10029 20028 39810 49814 57040 76062 8672/ 333 86792 88598;
0210025860999992000030112004+58250+017020FM-12+000799999V0202101N00211002501CN0010001N1+00331+00321097981ADDAA106002091AY161061AY221061GA1061+002509079GF108991061071002501071999MA1999999097941MD1710161+9999MW1601REMSYN094AAXX  01124 02586 11394 82104 10033 20032 39794 49798 57016 60021 76062 8677/ 333 86793 88399;
0187025860999992000030115004+58250+017020FM-12+000799999V0202601N003110045019N0100001N1+00291+00231098061ADDAY161031AY261031GA1071+004509059GF108991071051004501999999MA1999999098021MD1310081+9999MW1611REMSYN082AAXX  01154 02586 41497 82606 10029 20023 39802 49806 53008 76166 875// 333 87694;
0251025860999992000030118004+58250+017020FM-12+000799999V0202301N003110300019N0200001N1+00371+00111098331ADDAA112003091AY161061AY221061GA1011+008009069GA2031+025009039GF106991011051008001071081KA1120M+00391MA1999999098291MD1310271+9999MW1021REMSYN106AAXX  01184 02586 11598 62306 10037 20011 39829 49833 53027 60032 70262 81578 333 10039 81695 83399 85299;
0220025860999992000030206004+58250+017020FM-12+000799999V0202901N003612200019N0500001N1+00051-00531099381ADDAA199000091GA1021+999999019GF102991001001999999001021IA1149KA1120N+00041MA1999999099341MD1310361+9999REMSYN088AAXX  02064 02586 32999 22907 10005 21053 39934 49938 53036 80002 333 20004 34/// 82099;EQDQ01  00002PRCP99
0159025860999992000030209004+58250+017020FM-12+000799999V0203001N003612200019N0500001N1+00131-00821099701ADDGA1011+999999019GF101991001001999999001021MA1999999099661MD1210321+9999REMSYN076AAXX  02094 02586 42999 13007 10013 21082 39966 49970 52032 80002 333 81099;
0173025860999992000030212004+58250+017020FM-12+000799999V0202701N004112200019N0500001N1+00401-01121099981ADDAA199000091GA1001+999999999GF100991001001999999001001MA1999999099941MD1110281+9999REMSYN060AAXX  02124 02586 32999 02708 10040 21112 39994 49998 51028;EQDQ01  00002PRCP99
0159025860999992000030215004+58250+017020FM-12+000799999V0202701N003112200019N0500001N1+00441-01201100151ADDGA1011+012509029GF101991011011012501001011MA1999999100111MD1210171+9999REMSYN076AAXX  02154 02586 42699 12706 10044 21120 30011 40015 52017 81101 333 81896;
0223025860999992000030218004+58250+017020FM-12+000799999V0202301N001512200019N0500001N1+00171-00931100201ADDAA112000791AY181061AY211061GA1011+008009099GF102991011091008001001081KA1120M+00471MA1999999100161MD1210051+9999MW1271REMSYN094AAXX  02184 02586 11599 22303 10017 21093 30016 40020 52005 69902 72781 81908 333 10047 81995;
0254025860999992000030306004+58250+017020FM-12+000799999V0201801N009810015019N0040001N1+00191+00131097941ADDAA112000591AY171061AY221061GA1071+001509069GF108991071071001501999999IA1289KA1120N+00041MA1999999097901MD1810872+9999MW1681REMSYN100AAXX  03064 02586 11296 81819 10019 20013 39790 49794 58087 69962 76872 877// 333 20004 44/// 87792;EQDQ01+000872APC3  
0206025860999992000030309004+58250+017020FM-12+000799999V0201901N005710015019N0100001N1+00161+99999097451ADDAY181031AY221031GA1071+001509069GF108991071071001501999999MA1999999097411MD1610491+9999MW1261REMSYN082AAXX  03094 02586 41297 81911 10016 21105 39741 49745 56049 72682 877// 333 87792;EQDQ01-001053ATOD  
0210025860999992000030312004+58250+017020FM-12+000799999V0202401N00361004201CN0200001N1+00421+00161097311ADDAA106002091AY181061AY221061GA1031+004509069GF106991061091004501001021MA1999999097271MD1610141+9999MW1801REMSYN094AAXX  03124 02586 11498 62407 10042 20016 39727 49731 56014 60021 78082 86902 333 83694 83994;
0187025860999992000030315004+58250+017020FM-12+000799999V0202501N004612200019N0500001N1+00501-00401097261ADDAY181031AY211031GA1021+012509029GF102991021011012501061021MA1999999097221MD1710051+9999MW1011REMSYN082AAXX  03154 02586 41699 22509 10050 21040 39722 49726 57005 70181 82162 333 82896;
0229025860999992000030318004+58250+017020FM-12+000799999V0202301N00361075001CN0500001N1+00321-00241097281ADDAA112002091AY181061AY211061GA1011+008009099GF105991011091008001061041KA1120M+00501MA1999999097241MD1210021+9999MW1031REMSYN100AAXX  03184 02586 11599 52307 10032 21024 39724 49728 52002 60022 70381 81964 333 10050 81995 85099;
0263025860999992000030406004+58250+017020FM-12+000799999V0202901N003612200019N0200001N1-00381-00821098521ADDAA112000791AY181061AY211061GA1011+004509099GA2011+004509069GF103991021091004501061081IA1149KA1120N-00401MA1999999098481MD1210421+9999MW1851REMSYN112AAXX  04064 02586 11498 32907 11038 21082 39848 49852 52042 69902 78581 82968 333 21040 34/// 81694 81994 83299;
0193025860999992000030409004+58250+017020FM-12+000799999V0203101N00571075001CN0500001N1-00201-01151098961ADDAY181031AY281031GA1011+004509069GF105991011051004501001051MA1999999098921MD1210441+9999MW1031REMSYN088AAXX  04094 02586 41499 53111 11020 21115 39892 49896 52044 70388 81505 333 81694 84299;
0210025860999992000030412004+58250+017020FM-12+000799999V0203201N00571075001CN0500001N1+00021-01341099381ADDAA106000791AY181061AY221061GA1011+004509069GF106991011051004501041061MA1999999099341MD1210421+9999MW1031REMSYN094AAXX  04124 02586 11499 63211 10002 21134 39934 49938 52042 69901 70382 81546 333 81694 86299;
0226025860999992000030506004+58250+017020FM-12+000799999V0202901N00311075001CN0500001N1-00221-01171100701ADDAA199000091GA1011+008009069GF105991011051008001031011IA1149KA1120N-00291MA1999999100661MD1210201+9999REMSYN094AAXX  05064 02586 32599 52906 11022 21117 30066 40070 52020 81531 333 21029 34/// 81695 84099;EQDQ01  00002PRCP99
0159025860999992000030509004+58250+017020FM-12+000799999V0203201N005112200019N0500001N1+00021-01121100971ADDGA1011+008009059GF103991011051008001031021MA1999999100931MD1310271+9999REMSYN076AAXX  05094 02586 42599 33210 10002 21112 30093 40097 53027 81532 333 81695;
0189025860999992000030512004+58250+017020FM-12+000799999V0203101N004112200019N0500001N1+00101-01081101231ADDAA199000091GA1031+012509029GF103991031021012501001021MA1999999101191MD1210261+9999REMSYN076AAXX  05124 02586 32699 33108 10010 21108 30119 40123 52026 83202 333 83896;EQDQ01  00002PRCP99
0159025860999992000030515004+58250+017020FM-12+000799999V0203201N003612200019N0500001N1+00061-01151101461ADDGA1011+012509029GF101991011011012501001011MA1999999101421MD1210231+9999REMSYN076AAXX  05154 02586 42699 13207 10006 21115 30142 40146 52023 81101 333 81896;
0208025860999992000030518004+58250+017020FM-12+000799999V0203201N002112200019N0500001N1-00151-01251101681ADDAA199000091GA1021+999999019GF102991001001999999001041KA1120M+00131MA1999999101641MD1210221+9999REMSYN082AAXX  05184 02586 32999 23204 11015 21125 30164 40168 52022 80004 333 10013 82099;EQDQ01  00002PRCP99
0241025860999992000030606004+58250+017020FM-12+000799999V0202101N00511002501CN0100001N1+00001-00271100781ADDAA112000791AY171061AY221061GA1051+002509079GF108991051071002501021999IA1149KA1120N-00561MA1999999100741MD1710471+9999MW1711REMSYN106AAXX  06064 02586 11397 82110 10000 21027 30074 40078 57047 69902 77172 8572/ 333 21056 34/// 85793 88599;
0187025860999992000030609004+58250+017020FM-12+000799999V0202101N005110045019N0200001N1+00111+00071100211ADDAY171031AY221031GA1071+004509059GF108991071051004501999999MA1999999100171MD1710571+9999MW1221REMSYN082AAXX  06094 02586 41498 82110 10011 20007 30017 40021 57057 72272 875// 333 87694;
0204025860999992000030612004+58250+017020FM-12+000799999V0202301N004110080019N0200001N1+00541+00101099731ADDAA106000591AY171061AY221061GA1071+008009059GF108991071051008001999999MA1999999099691MD1710481+9999MW1021REMSYN088AAXX  06124 02586 11598 82308 10054 20010 39969 49973 57048 69951 70272 875// 333 87695;
0165025860999992000030615004+58250+017020FM-12+000799999V0202301N00461075001CN0200001N1+00751+00121099501ADDGA1021+008009069GF106991021051008001001081MA1999999099461MD1710231+9999REMSYN082AAXX  06154 02586 42598 62309 10075 20012 39946 49950 57023 82508 333 82695 86299;
0201025860999992000030618004+58250+017020FM-12+000799999V0202501N00461008001CN0200001N1+00801+00081099271ADDAA112000591GA1061+008009069GF106991061051008001001081KA1120M+00801MA1999999099231MD1710231+9999REMSYN094AAXX  06184 02586 12598 62509 10080 20008 39923 49927 57023 69952 86508 333 10080 86695 85299;
0220025860999992000030706004+58250+017020FM-12+000799999V0202601N006712200019N0500001N1+00431-00661099151ADDAA199000091GA1021+999999019GF102991001001999999001011IA1099KA1120N+00411MA1999999099111MD1210191+9999REMSYN088AAXX  07064 02586 32999 22613 10043 21066 39911 49915 52019 80001 333 20041 31/// 82099;EQDQ01  00002PRCP99
0159025860999992000030709004+58250+017020FM-12+000799999V0202801N006212200019N0500001N1+00571-00691099341ADDGA1031+999999089GF104991001001999999001051MA1999999099301MD1210191+9999REMSYN076AAXX  07094 02586 42999 42812 10057 21069 39930 49934 52019 80005 333 83299;
0195025860999992000030712004+58250+017020FM-12+000799999V0202801N005719999999N0500001N1+00681-00651099471ADDAA199000091GA1021+025009019GF106991001001999999001061MA1999999099431MD1110131+9999REMSYN082AAXX  07124 02586 32999 62811 10068 21065 39943 49947 51013 80006 333 82199 84299;EQDQ01  00002PRCP99
0165025860999992000030715004+58250+017020FM-12+000799999V0202901N00411999999CN0500001N1+00691-00681099651ADDGA1051+025009009GF106991001001999999001081MA1999999099611MD1210181+9999REMSYN082AAXX  07154 02586 42999 62908 10069 21068 39961 49965 52018 80008 333 85099 83299;
0208025860999992000030718004+58250+017020FM-12+000799999V0202801N003612200019N0500001N1+00451-00641099861ADDAA199000091GA1021+999999089GF102991001001999999001081KA1120M+00691MA1999999099821MD1210211+9999REMSYN082AAXX  07184 02586 32999 22807 10045 21064 39982 49986 52021 80008 333 10069 82299;EQDQ01  00002PRCP99
0220025860999992000030806004+58250+017020FM-12+000799999V0202801N002112200019N0500001N1-00091-00631100341ADDAA199000091GA1021+999999019GF102991001001999999001011IA1149KA1120N-00121MA1999999100301MD1210041+9999REMSYN088AAXX  08064 02586 32999 22804 11009 21063 30030 40034 52004 80001 333 21012 34/// 82099;EQDQ01  00002PRCP99
0165025860999992000030809004+58250+017020FM-12+000799999V0201701N000519999999N0500001N1+00221-00571100191ADDGA1011+025009039GF106991011001999999041051MA1999999100151MD1810151+9999REMSYN082AAXX  08094 02586 42999 61701 10022 21057 30015 40019 58015 81045 333 81399 85299;
0195025860999992000030812004+58250+017020FM-12+000799999V0201501N002119999999N0500001N1+00241-00271099891ADDAA199000091GA1021+025009039GF108991081001999999011999MA1999999099851MD1810301+9999REMSYN082AAXX  08124 02586 32999 81504 10024 21027 39985 49989 58030 8801/ 333 82399 88499;EQDQ01  00002PRCP99
0187025860999992000030815004+58250+017020FM-12+000799999V0201801N001510007519N0010001N1+00111+00011099531ADDAY171031AY221031GA1081+000759069GF108991081071000751999999MA1999999099491MD1710361+9999MW1731REMSYN082AAXX  08154 02586 41194 81803 10011 20001 39949 49953 57036 77372 887// 333 88791;
0223025860999992000030818004+58250+017020FM-12+000799999V0201201N002110007519N0010001N1+00061+00051099191ADDAA112002091AY171061AY221061GA1081+000759069GF108991081071000751999999KA1120M+00241MA1999999099151MD1710341+9999MW1731REMSYN094AAXX  08184 02586 11194 81204 10006 20005 39915 49919 57034 60022 77372 887// 333 10024 88791;
0252025860999992000030906004+58250+017020FM-12+000799999V0200201N004110045019N0200001N1-00041-00171099471ADDAA112004191AJ100039199999999AY171061AY271061GA1071+004509059GF108991071051004501999999IA1239KA1120N-00061MA1999999099431MD1310361+9999MW1711REMSYN100AAXX  09064 02586 11498 80208 11004 21017 39943 49947 53036 60042 77177 875// 333 21006 47003 87694;
0187025860999992000030909004+58250+017020FM-12+000799999V0203201N003112200019N0500001N1+00001-00251099821ADDAY171031AY221031GA1011+008009059GF101991011051008001001001MA1999999099781MD1110351+9999MW1011REMSYN082AAXX  09094 02586 41599 13206 10000 21025 39978 49982 51035 70172 81500 333 81695;
0204025860999992000030912004+58250+017020FM-12+000799999V0203201N004112200019N0500001N1+00171-00591100121ADDAA106000591AY171061AY221061GA1011+008009029GF101991011011008001001001MA1999999100081MD1210301+9999MW1021REMSYN088AAXX  09124 02586 11599 13208 10017 21059 30008 40012 52030 69951 70272 81100 333 81895;
0159025860999992000030915004+58250+017020FM-12+000799999V0203001N004612200019N0500001N1+00181-00781100341ADDGA1021+008009029GF102991021011008001001011MA1999999100301MD1210221+9999REMSYN076AAXX  09154 02586 42599 23009 10018 21078 30030 40034 52022 82101 333 82895;
0195025860999992000030918004+58250+017020FM-12+000799999V0202901N004112200019N0500001N1+00051-00781100471ADDAA112000591GA1011+008009029GF101991011011008001001001KA1120M+00191MA1999999100431MD1210131+9999REMSYN088AAXX  09184 02586 12599 12908 10005 21078 30043 40047 52013 69952 81100 333 10019 81895;
0225025860999992000031006004+58250+017020FM-12+000799999V0203101N004612200019N0500001N1-00171-01071101131ADDAA199000091AJ100009199999999GA1001+999999999GF100991001001999999001001IA1259KA1120N-00191MA1999999101091MD1210171+9999REMSYN076AAXX  10064 02586 32999 03109 11017 21107 30109 40113 52017 333 21019 41998;EQDQ01  00002PRCP99
0143025860999992000031009004+58250+017020FM-12+000799999V0203201N003612200019N0500001N1+00081-00951101311ADDGA1001+999999999GF100991001001999999001001MA1999999101271MD1210181+9999REMSYN060AAXX  10094 02586 42999 03207 10008 21095 30127 40131 52018;
0189025860999992000031012004+58250+017020FM-12+000799999V0203301N004112200019N0500001N1+00351-00991101491ADDAA199000091GA1011+008009029GF102991011011008001001081MA1999999101451MD1210181+9999REMSYN076AAXX  10124 02586 32599 23308 10035 21099 30145 40149 52018 81108 333 81895;EQDQ01  00002PRCP99
0165025860999992000031015004+58250+017020FM-12+000799999V0203001N003112200019N0500001N1+00401-01011101511ADDGA1011+012509089GF103991011011012501001041MA1999999101471MD1110021+9999REMSYN082AAXX  10154 02586 42699 33006 10040 21101 30147 40151 51002 81104 333 81896 83099;
0208025860999992000031018004+58250+017020FM-12+000799999V0202601N003112200019N0500001N1+00111-00921101541ADDAA199000091GA1021+999999089GF102991001001999999001081KA1120M+00421MA1999999101501MD1210031+9999REMSYN082AAXX  10184 02586 32999 22606 10011 21092 30150 40154 52003 80008 333 10042 82299;EQDQ01  00002PRCP99
0253025860999992000031106004+58250+017020FM-12+000799999V0201101N000519999999N0500001N1-00421-00691100811ADDAA199000091AJ199992999999999GA1051+999999089GF105991001001999999001081IA1259KA1120N-00441MA1999999100771MD1710181+9999REMSYN088AAXX  11064 02586 32999 51101 11042 21069 30077 40081 57018 80008 333 21044 41998 85299;EQDQ01  00002PRCP99Q02  09972SNDP  
0159025860999992000031109004+58250+017020FM-12+000799999V0201001N001019999999N0500001N1+00191-00481100871ADDGA1081+999999089GF108991001001999999001071MA1999999100831MD1310061+9999REMSYN076AAXX  11094 02586 42999 81002 10019 21048 30083 40087 53006 80007 333 88299;
0195025860999992000031112004+58250+017020FM-12+000799999V0200601N002112200019N0500001N1+00291-00501100981ADDAA199000091GA1011+004509069GF103991011051004501001081MA1999999100941MD1310111+9999REMSYN082AAXX  11124 02586 32499 30604 10029 21050 30094 40098 53011 81508 333 81694 83299;EQDQ01  00002PRCP99
0259025860999992000031206004+58250+017020FM-12+000799999V0202601N002112200019N0500001N1-00271-00451102041ADDAA199000091AJ199992999999999GA1011+025009039GF103991011001999999031081IA1259KA1120N-00491MA1999999102001MD1110031+9999REMSYN094AAXX  12064 02586 32999 32604 11027 21045 30200 40204 51003 81038 333 21049 41998 81399 83299;EQDQ01  00002PRCP99Q02  09972SNDP  
0159025860999992000031209004+58250+017020FM-12+000799999V0202501N001512200019N0500001N1+00091-00641102111ADDGA1011+999999019GF101991001001999999001011MA1999999102071MD1210071+9999REMSYN076AAXX  12094 02586 42999 12503 10009 21064 30207 40211 52007 80001 333 81099;
0211025860999992000031212004+58250+017020FM-12+000799999V0202701N00211012501CN0500001N1+00401-00841102031ADDAA199000091GA1051+012509069GF106991051999012501051091MA1999999101991MD1810081+9999REMSYN082AAXX  12124 02586 32699 62704 10040 21084 30199 40203 58008 85059 333 85696 83199;EQDQ01+000002SCOLCGQ02  00002PRCP99
0159025860999992000031215004+58250+017020FM-12+000799999V0202401N001510125019N0500001N1+00321-00701101961ADDGA1071+012509059GF108991071051012501999999MA1999999101921MD1710071+9999REMSYN076AAXX  12154 02586 42699 82403 10032 21070 30192 40196 57007 875// 333 87696;
0208025860999992000031218004+58250+017020FM-12+000799999V0202301N001010125019N0200001N1+00261-00511101921ADDAA199000091GA1071+012509059GF108991071051012501999999KA1120M+00491MA1999999101881MD1710041+9999REMSYN082AAXX  12184 02586 32698 82302 10026 21051 30188 40192 57004 875// 333 10049 87696;EQDQ01  00002PRCP99
0271025860999992000031306004+58250+017020FM-12+000799999V0202101N003110080019N0200001N1+00181+00011101571ADDAA112000791AJ199992999999999AY161061AY221061GA1071+008009059GF108991071051008001999999IA1259KA1120N+00151MA1999999101531MD1710151+9999MW1601REMSYN100AAXX  13064 02586 11598 82106 10018 20001 30153 40157 57015 69902 76062 875// 333 20015 41998 87695;EQDQ01  09972SNDP  
0187025860999992000031309004+58250+017020FM-12+000799999V0202101N003110080019N0200001N1+00341+00081101341ADDAY161031AY221031GA1071+008009059GF108991071051008001999999MA1999999101301MD1810231+9999MW1021REMSYN082AAXX  13094 02586 41598 82106 10034 20008 30130 40134 58023 70262 875// 333 87695;
0204025860999992000031312004+58250+017020FM-12+000799999V0202501N003610080019N0200001N1+00741-00031101151ADDAA106000791AY161061AY221061GA1071+008009059GF107991071051008001999999MA1999999101111MD1710191+9999MW1021REMSYN088AAXX  13124 02586 11598 72507 10074 21003 30111 40115 57019 69901 70262 875// 333 87695;
0158025860999992000031315004+58250+017020FM-12+000799999V0202401N003110075019N0200001N1+00791+00121100931ADDGA1061+999999069GF107991061051008001001081MA1999999100891MD1710221+9999REMSYN075AAXX  13154 02586 42598 72406 10079 20012 30089 40093 57022 86508 333 8665;
0201025860999992000031318004+58250+017020FM-12+000799999V0202301N00311030001CN0500001N1+00571+00091100811ADDAA112000791GA1021+008009069GF107991021051008001051001KA1120M+00791MA1999999100771MD1610121+9999REMSYN094AAXX  13184 02586 12599 72306 10057 20009 30077 40081 56012 69902 82550 333 10079 82695 87399;
0259025860999992000031406004+58250+017020FM-12+000799999V0202401N003119999999N0500001N1+00331-00111100191ADDAA199000091AJ199992999999999GA1021+025009039GF105991021001999999071091IA1259KA1120N+00311MA1999999100151MD1710051+9999REMSYN094AAXX  14064 02586 32999 52406 10033 21011 30015 40019 57005 82079 333 20031 41998 82399 84199;EQDQ01  00002PRCP99Q02  09972SNDP  
0159025860999992000031409004+58250+017020FM-12+000799999V0202401N003110080019N0500001N1+00561-00111100081ADDGA1071+008009059GF107991071051008001001001MA1999999100041MD1710111+9999REMSYN076AAXX  14094 02586 42599 72406 10056 21011 30004 40008 57011 87500 333 87695;
0195025860999992000031412004+58250+017020FM-12+000799999V0202701N003612200019N0500001N1+00811-00571099951ADDAA199000091GA1011+012509089GF104991011011012501001081MA1999999099911MD1810131+9999REMSYN082AAXX  14124 02586 32699 42707 10081 21057 39991 49995 58013 81108 333 81896 84299;EQDQ01  00002PRCP99
0165025860999992000031415004+58250+017020FM-12+000799999V0202701N001519999999N0500001N1+00701-00701099801ADDGA1021+025009009GF107991001001999999001081MA1999999099761MD1710151+9999REMSYN082AAXX  14154 02586 42999 72703 10070 21070 39976 49980 57015 80008 333 82099 86299;
0236025860999992000031418004+58250+017020FM-12+000799999V0202301N002610750019N0500001N1+00461-00791099651ADDAA199000091GA1011+008009099GA2031+025009009GF106991011091008001001081KA1120M+00811MA1999999099611MD1710151+9999REMSYN094AAXX  14184 02586 32599 62305 10046 21079 39961 49965 57015 81908 333 10081 81995 83099 85299;EQDQ01  00002PRCP99
0258025860999992000031506004+58250+017020FM-12+000799999V0203301N00571000751CN0010001N1+00051+00041099971ADDAA112002091AJ100029199999999AY171061AY221061GA1061+000759079GF108991061071000751021999IA1309KA1120N+00001MA1999999099931MD1310361+9999MW1731REMSYN106AAXX  15064 02586 11194 83311 10005 20004 39993 49997 53036 60022 77372 8672/ 333 20000 42002 86791 88598;
