0107033130999992000010100004+53250-003500FM-12+007799999V0202801N003119999999N9999999N1+00871+00721101901ADDAA106000591MD1210301+9999REMSYN070AAXX  01004 03313 16/// /2806 10087 20072 40190 52030 69961 555 92354;
0090033130999992000010101004+53250-003500FM-12+007799999V0203001N002619999999N9999999N1+00881+00731101981ADDMD1210281+9999REMSYN064AAXX  01014 03313 46/// /3005 10088 20073 40198 52028 555 90053;
0090033130999992000010102004+53250-003500FM-12+007799999V0202801N002619999999N9999999N1+00771+00661102091ADDMD1210281+9999REMSYN064AAXX  01024 03313 46/// /2805 10077 20066 40209 52028 555 90153;
0090033130999992000010103004+53250-003500FM-12+007799999V0202801N002619999999N9999999N1+00741+00601102171ADDMD1210271+9999REMSYN064AAXX  01034 03313 46/// /2805 10074 20060 40217 52027 555 90253;
0090033130999992000010104004+53250-003500FM-12+007799999V0209999C000019999999N9999999N1+00671+00551102201ADDMD1210221+9999REMSYN064AAXX  01044 03313 46/// /0000 10067 20055 40220 52022 555 90353;
0090033130999992000010105004+53250-003500FM-12+007799999V0202201N002119999999N9999999N1+00551+00451102241ADDMD1210151+9999REMSYN064AAXX  01054 03313 46/// /2204 10055 20045 40224 52015 555 90453;
0130033130999992000010106004+53250-003500FM-12+007799999V0202201N002619999999N9999999N1+00501+00381102331ADDAA112000591KA1120N+00491MD1210161+9999REMSYN080AAXX  01064 03313 16/// /2205 10050 20038 40233 52016 69962 333 20049 555 90554;
0090033130999992000010107004+53250-003500FM-12+007799999V0202101N002619999999N9999999N1+00401+00271102371ADDMD1210171+9999REMSYN064AAXX  01074 03313 46/// /2105 10040 20027 40237 52017 555 90653;
0090033130999992000010108004+53250-003500FM-12+007799999V0202101N003119999999N9999999N1+00371+00241102421ADDMD1210181+9999REMSYN064AAXX  01084 03313 46/// /2106 10037 20024 40242 52018 555 90753;
0112033130999992000010109004+53250-003500FM-12+007799999V0202101N003119999999N9999999N1+00301+00191102451ADDIA2999-00109MD1210121+9999REMSYN074AAXX  01094 03313 46/// /2106 10030 20019 40245 52012 333 3/101 555 90855;
0090033130999992000010110004+53250-003500FM-12+007799999V0202001N002619999999N9999999N1+00401+00191102471ADDMD1210101+9999REMSYN064AAXX  01104 03313 46/// /2005 10040 20019 40247 52010 555 90953;
0090033130999992000010111004+53250-003500FM-12+007799999V0209999C000019999999N9999999N1+00591+00321102471ADDMD1210051+9999REMSYN064AAXX  01114 03313 46/// /0000 10059 20032 40247 52005 555 91053;
0120033130999992000010112004+53250-003500FM-12+007799999V0209999C000019999999N9999999N1+00701+00421102441ADDAA106000091MD1710011+9999REMSYN064AAXX  01124 03313 36/// /0000 10070 20042 40244 57001 555 91153;EQDQ01  00002PRCP06
0090033130999992000010113004+53250-003500FM-12+007799999V0209999C000019999999N9999999N1+00821+00481102431ADDMD1710041+9999REMSYN064AAXX  01134 03313 46/// /0000 10082 20048 40243 57004 555 91253;
0090033130999992000010114004+53250-003500FM-12+007799999V0209999C000019999999N9999999N1+00891+00531102331ADDMD1710141+9999REMSYN064AAXX  01144 03313 46/// /0000 10089 20053 40233 57014 555 91353;
0090033130999992000010115004+53250-003500FM-12+007799999V0202001N003619999999N9999999N1+00741+00391102371ADDMD1710071+9999REMSYN064AAXX  01154 03313 46/// /2007 10074 20039 40237 57007 555 91453;
0090033130999992000010116004+53250-003500FM-12+007799999V0209999C000019999999N9999999N1+00491+00291102371ADDMD1710061+9999REMSYN064AAXX  01164 03313 46/// /0000 10049 20029 40237 57006 555 91553;
0090033130999992000010117004+53250-003500FM-12+007799999V0209999C000019999999N9999999N1+00541+00291102331ADDMD1410001+9999REMSYN064AAXX  01174 03313 46/// /0000 10054 20029 40233 54000 555 91656;
0143033130999992000010118004+53250-003500FM-12+007799999V0202001N003119999999N9999999N1+00581+00361102341ADDAA106000091KA1120M+00901MD1710031+9999REMSYN074AAXX  01184 03313 36/// /2006 10058 20036 40234 57003 333 10090 555 91754;EQDQ01  00002PRCP06
0090033130999992000010119004+53250-003500FM-12+007799999V0209999C000019999999N9999999N1+00451+00301102401ADDMD1210031+9999REMSYN064AAXX  01194 03313 46/// /0000 10045 20030 40240 52003 555 91853;
0090033130999992000010120004+53250-003500FM-12+007799999V0202001N002619999999N9999999N1+00591+00351102331ADDMD1410001+9999REMSYN064AAXX  01204 03313 46/// /2005 10059 20035 40233 54000 555 91953;
0090033130999992000010121004+53250-003500FM-12+007799999V0209999C000019999999N9999999N1+00491+00291102321ADDMD1710021+9999REMSYN064AAXX  01214 03313 46/// /0000 10049 20029 40232 57002 555 92054;
0090033130999992000010122004+53250-003500FM-12+007799999V0201901N002619999999N9999999N1+00541+00291102261ADDMD1710141+9999REMSYN064AAXX  01224 03313 46/// /1905 10054 20029 40226 57014 555 92153;
0090033130999992000010123004+53250-003500FM-12+007799999V0209999C000019999999N9999999N1+00451+00271102301ADDMD1710031+9999REMSYN064AAXX  01234 03313 46/// /0000 10045 20027 40230 57003 555 92253;
0120033130999992000010200004+53250-003500FM-12+007799999V0209999C000019999999N9999999N1+00481+00281102341ADDAA106000091MD1210021+9999REMSYN064AAXX  02004 03313 36/// /0000 10048 20028 40234 52002 555 92353;EQDQ01  00002PRCP06
0090033130999992000010201004+53250-003500FM-12+007799999V0202401N003619999999N9999999N1+00671+00381102261ADDMD1410001+9999REMSYN064AAXX  02014 03313 46/// /2407 10067 20038 40226 54000 555 90053;
0090033130999992000010202004+53250-003500FM-12+007799999V0209999C000019999999N9999999N1+00711+00381102221ADDMD1710081+9999REMSYN064AAXX  02024 03313 46/// /0000 10071 20038 40222 57008 555 90153;
0090033130999992000010203004+53250-003500FM-12+007799999V0209999C000019999999N9999999N1+00511+00311102241ADDMD1710101+9999REMSYN064AAXX  02034 03313 46/// /0000 10051 20031 40224 57010 555 90253;
0090033130999992000010204004+53250-003500FM-12+007799999V0202201N003119999999N9999999N1+00631+00311102311ADDMD1210051+9999REMSYN064AAXX  02044 03313 46/// /2206 10063 20031 40231 52005 555 90353;
0090033130999992000010205004+53250-003500FM-12+007799999V0202201N003119999999N9999999N1+00661+00401102261ADDMD1210041+9999REMSYN064AAXX  02054 03313 46/// /2206 10066 20040 40226 52004 555 90453;
0143033130999992000010206004+53250-003500FM-12+007799999V0202101N004619999999N9999999N1+00761+00431102221ADDAA106000091KA1120N+00381MD1710021+9999REMSYN074AAXX  02064 03313 36/// /2109 10076 20043 40222 57002 333 20038 555 90554;EQDQ01  00002PRCP06
0090033130999992000010207004+53250-003500FM-12+007799999V0202201N004619999999N9999999N1+00821+00451102211ADDMD1710101+9999REMSYN064AAXX  02074 03313 46/// /2209 10082 20045 40221 57010 555 90653;
0090033130999992000010208004+53250-003500FM-12+007799999V0202301N005119999999N9999999N1+00791+00491102251ADDMD1710011+9999REMSYN064AAXX  02084 03313 46/// /2310 10079 20049 40225 57001 555 90753;
0112033130999992000010209004+53250-003500FM-12+007799999V0202201N003119999999N9999999N1+00801+00551102291ADDIA2999-00109MD1210071+9999REMSYN074AAXX  02094 03313 46/// /2206 10080 20055 40229 52007 333 3/101 555 90855;
0090033130999992000010210004+53250-003500FM-12+007799999V0202201N003119999999N9999999N1+00871+00601102321ADDMD1210111+9999REMSYN064AAXX  02104 03313 46/// /2206 10087 20060 40232 52011 555 90953;
0090033130999992000010211004+53250-003500FM-12+007799999V0202201N005119999999N9999999N1+00951+00621102251ADDMD1410001+9999REMSYN064AAXX  02114 03313 46/// /2210 10095 20062 40225 54000 555 91053;
0120033130999992000010212004+53250-003500FM-12+007799999V0202201N005119999999N9999999N1+01001+00631102241ADDAA106000091MD1710051+9999REMSYN064AAXX  02124 03313 36/// /2210 10100 20063 40224 57005 555 91153;EQDQ01  00002PRCP06
0090033130999992000010213004+53250-003500FM-12+007799999V0202101N006219999999N9999999N1+01001+00631102161ADDMD1710161+9999REMSYN064AAXX  02134 03313 46/// /2112 10100 20063 40216 57016 555 91253;
0090033130999992000010214004+53250-003500FM-12+007799999V0202001N004119999999N9999999N1+00991+00621102011ADDMD1710241+9999REMSYN064AAXX  02144 03313 46/// /2008 10099 20062 40201 57024 555 91353;
0090033130999992000010215004+53250-003500FM-12+007799999V0201601N003619999999N9999999N1+00931+00551101941ADDMD1710301+9999REMSYN064AAXX  02154 03313 46/// /1607 10093 20055 40194 57030 555 91453;
0090033130999992000010216004+53250-003500FM-12+007799999V0201501N002619999999N9999999N1+00911+00551101931ADDMD1710231+9999REMSYN064AAXX  02164 03313 46/// /1505 10091 20055 40193 57023 555 91553;
0090033130999992000010217004+53250-003500FM-12+007799999V0201901N000519999999N9999999N1+00901+00681101861ADDMD1710151+9999REMSYN064AAXX  02174 03313 46/// /1901 10090 20068 40186 57015 555 91656;
0143033130999992000010218004+53250-003500FM-12+007799999V0201801N007219999999N9999999N1+00951+00551101641ADDAA106000091KA1120M+01021MD1710301+9999REMSYN074AAXX  02184 03313 36/// /1814 10095 20055 40164 57030 333 10102 555 91756;EQDQ01  00002PRCP06
0090033130999992000010219004+53250-003500FM-12+007799999V0201901N004119999999N9999999N1+00981+00591101661ADDMD1710271+9999REMSYN064AAXX  02194 03313 46/// /1908 10098 20059 40166 57027 555 91853;
0090033130999992000010220004+53250-003500FM-12+007799999V0202101N004619999999N9999999N1+00981+00681101571ADDMD1710291+9999REMSYN064AAXX  02204 03313 46/// /2109 10098 20068 40157 57029 555 91953;
0090033130999992000010221004+53250-003500FM-12+007799999V0202001N007219999999N9999999N1+01121+00771101381ADDMD1710261+9999REMSYN064AAXX  02214 03313 46/// /2014 10112 20077 40138 57026 555 92054;
0090033130999992000010222004+53250-003500FM-12+007799999V0201901N007719999999N9999999N1+01161+00851101301ADDMD1710361+9999REMSYN064AAXX  02224 03313 46/// /1915 10116 20085 40130 57036 555 92153;
0090033130999992000010223004+53250-003500FM-12+007799999V0202201N008219999999N9999999N1+01161+00791101191ADDMD1710381+9999REMSYN064AAXX  02234 03313 46/// /2216 10116 20079 40119 57038 555 92253;
0124033130999992000010300004+53250-003500FM-12+007799999V0202101N011819999999N9999999N1+01111+00841101101ADDAA106000191MD1710281+9999OA140102261REMSYN076AAXX  03004 03313 16/// /2123 10111 20084 40110 57028 69921 555 1//44 92353;
0096033130999992000010301004+53250-003500FM-12+007799999V0202201N010819999999N9999999N1+01111+00731101081ADDMD1710221+9999REMSYN070AAXX  03014 03313 46/// /2221 10111 20073 40108 57022 555 1//39 90053;
0096033130999992000010302004+53250-003500FM-12+007799999V0202201N008719999999N9999999N1+01071+00801101041ADDMD1710151+9999REMSYN070AAXX  03024 03313 46/// /2217 10107 20080 40104 57015 555 1//37 90153;
0090033130999992000010303004+53250-003500FM-12+007799999V0202301N007219999999N9999999N1+01081+00851101071ADDMD1710031+9999REMSYN064AAXX  03034 03313 46/// /2314 10108 20085 40107 57003 555 90253;
0090033130999992000010304004+53250-003500FM-12+007799999V0202301N006219999999N9999999N1+01081+00831101111ADDMD1210031+9999REMSYN064AAXX  03044 03313 46/// /2312 10108 20083 40111 52003 555 90353;
0090033130999992000010305004+53250-003500FM-12+007799999V0202801N004619999999N9999999N1+00951+00531101271ADDMD1210231+9999REMSYN064AAXX  03054 03313 46/// /2809 10095 20053 40127 52023 555 90453;
0130033130999992000010306004+53250-003500FM-12+007799999V0202701N005119999999N9999999N1+00811+00291101401ADDAA112000591KA1120N+00811MD1210331+9999REMSYN080AAXX  03064 03313 16/// /2710 10081 20029 40140 52033 69942 333 20081 555 90554;
0090033130999992000010307004+53250-003500FM-12+007799999V0202601N005719999999N9999999N1+00791+00211101451ADDMD1210341+9999REMSYN064AAXX  03074 03313 46/// /2611 10079 20021 40145 52034 555 90653;
0090033130999992000010308004+53250-003500FM-12+007799999V0202401N006219999999N9999999N1+00791+00151101491ADDMD1210221+9999REMSYN064AAXX  03084 03313 46/// /2412 10079 20015 40149 52022 555 90753;
0112033130999992000010309004+53250-003500FM-12+007799999V0202001N003619999999N9999999N1+00601+00171101521ADDIA2999+00209MD1210121+9999REMSYN074AAXX  03094 03313 46/// /2007 10060 20017 40152 52012 333 3/002 555 90855;
0090033130999992000010310004+53250-003500FM-12+007799999V0202201N004119999999N9999999N1+00631+00241101581ADDMD1210131+9999REMSYN064AAXX  03104 03313 46/// /2208 10063 20024 40158 52013 555 90953;
0090033130999992000010311004+53250-003500FM-12+007799999V0202101N003619999999N9999999N1+00791+00341101601ADDMD1210111+9999REMSYN064AAXX  03114 03313 46/// /2107 10079 20034 40160 52011 555 91053;
0120033130999992000010312004+53250-003500FM-12+007799999V0202301N004119999999N9999999N1+00821+00381101581ADDAA106000091MD1210061+9999REMSYN064AAXX  03124 03313 36/// /2308 10082 20038 40158 52006 555 91153;EQDQ01  00002PRCP06
0090033130999992000010313004+53250-003500FM-12+007799999V0202301N003619999999N9999999N1+00871+00411101541ADDMD1710041+9999REMSYN064AAXX  03134 03313 46/// /2307 10087 20041 40154 57004 555 91253;
0090033130999992000010314004+53250-003500FM-12+007799999V0202301N002619999999N9999999N1+00841+00451101491ADDMD1710111+9999REMSYN064AAXX  03144 03313 46/// /2305 10084 20045 40149 57011 555 91353;
0090033130999992000010315004+53250-003500FM-12+007799999V0202201N002119999999N9999999N1+00801+00451101451ADDMD1710131+9999REMSYN064AAXX  03154 03313 46/// /2204 10080 20045 40145 57013 555 91453;
0090033130999992000010316004+53250-003500FM-12+007799999V0202501N002619999999N9999999N1+00781+00301101481ADDMD1710061+9999REMSYN064AAXX  03164 03313 46/// /2505 10078 20030 40148 57006 555 91553;
0090033130999992000010317004+53250-003500FM-12+007799999V0202601N002619999999N9999999N1+00731+00301101491ADDMD1410001+9999REMSYN064AAXX  03174 03313 46/// /2605 10073 20030 40149 54000 555 91653;
0143033130999992000010318004+53250-003500FM-12+007799999V0202301N000519999999N9999999N1+00631+00391101531ADDAA106000091KA1120M+00891MD1210081+9999REMSYN074AAXX  03184 03313 36/// /2301 10063 20039 40153 52008 333 10089 555 91754;EQDQ01  00002PRCP06
0090033130999992000010319004+53250-003500FM-12+007799999V0202501N004119999999N9999999N1+00751+00181101481ADDMD1410001+9999REMSYN064AAXX  03194 03313 46/// /2508 10075 20018 40148 54000 555 91853;
0090033130999992000010320004+53250-003500FM-12+007799999V0202201N002619999999N9999999N1+00591+00221101521ADDMD1210031+9999REMSYN064AAXX  03204 03313 46/// /2205 10059 20022 40152 52003 555 91953;
0090033130999992000010321004+53250-003500FM-12+007799999V0202201N003619999999N9999999N1+00511+00291101521ADDMD1710011+9999REMSYN064AAXX  03214 03313 46/// /2207 10051 20029 40152 57001 555 92054;
0090033130999992000010322004+53250-003500FM-12+007799999V0202101N002619999999N9999999N1+00531+00361101591ADDMD1210111+9999REMSYN064AAXX  03224 03313 46/// /2105 10053 20036 40159 52011 555 92153;
0090033130999992000010323004+53250-003500FM-12+007799999V0202001N002619999999N9999999N1+00581+00411101591ADDMD1210071+9999REMSYN064AAXX  03234 03313 46/// /2005 10058 20041 40159 52007 555 92253;
0107033130999992000010400004+53250-003500FM-12+007799999V0202101N003119999999N9999999N1+00591+00471101561ADDAA106000591MD1210041+9999REMSYN070AAXX  04004 03313 16/// /2106 10059 20047 40156 52004 69941 555 92353;
0090033130999992000010401004+53250-003500FM-12+007799999V0201301N001019999999N9999999N1+00571+00421101401ADDMD1710191+9999REMSYN064AAXX  04014 03313 46/// /1302 10057 20042 40140 57019 555 90053;
0090033130999992000010402004+53250-003500FM-12+007799999V0201901N003619999999N9999999N1+00651+00441101331ADDMD1710261+9999REMSYN064AAXX  04024 03313 46/// /1907 10065 20044 40133 57026 555 90153;
0090033130999992000010403004+53250-003500FM-12+007799999V0201801N003619999999N9999999N1+00711+00431101311ADDMD1710251+9999REMSYN064AAXX  04034 03313 46/// /1807 10071 20043 40131 57025 555 90253;
0090033130999992000010404004+53250-003500FM-12+007799999V0201801N004619999999N9999999N1+00731+00401101211ADDMD1710191+9999REMSYN064AAXX  04044 03313 46/// /1809 10073 20040 40121 57019 555 90353;
0130033130999992000010406004+53250-003500FM-12+007799999V0201601N005119999999N9999999N1+00741+00341101031ADDAA112000591KA1120N+00471MD1710281+9999REMSYN080AAXX  04064 03313 16/// /1610 10074 20034 40103 57028 69942 333 20047 555 90554;
0090033130999992000010407004+53250-003500FM-12+007799999V0201701N005719999999N9999999N1+00701+00321100921ADDMD1710291+9999REMSYN064AAXX  04074 03313 46/// /1711 10070 20032 40092 57029 555 90653;
0090033130999992000010408004+53250-003500FM-12+007799999V0201701N003119999999N9999999N1+00621+00301100831ADDMD1710321+9999REMSYN064AAXX  04084 03313 46/// /1706 10062 20030 40083 57032 555 90753;
0112033130999992000010409004+53250-003500FM-12+007799999V0201801N004119999999N9999999N1+00721+00341100711ADDIA2999+00109MD1710321+9999REMSYN074AAXX  04094 03313 46/// /1808 10072 20034 40071 57032 333 3/001 555 90855;
0090033130999992000010410004+53250-003500FM-12+007799999V0201701N004619999999N9999999N1+00751+00371100601ADDMD1710321+9999REMSYN064AAXX  04104 03313 46/// /1709 10075 20037 40060 57032 555 90953;
0108033130999992000010411004+53250-003500FM-12+007799999V0201501N004119999999N0350001N1+00871+00381100431ADDMD1710401+9999REMSYN082AAXX  04114 03313 46581 /1508 10087 20038 40043 57040 555 81/23 83/33 86/44 91055;
0125033130999992000010412004+53250-003500FM-12+007799999V0202201N007219999999N0050001N1+00721+00441100391ADDAA106001091MD1710321+9999REMSYN088AAXX  04124 03313 16450 /2214 10072 20044 40039 57032 60011 555 81/17 86/21 81/31 91155;
0108033130999992000010413004+53250-003500FM-12+007799999V0202301N002119999999N0550001N1+00331+00201100611ADDMD1210011+9999REMSYN082AAXX  04134 03313 46685 /2304 10033 20020 40061 52001 555 1//39 83/30 83/59 91255;
0096033130999992000010414004+53250-003500FM-12+007799999V0202601N008219999999N0260001N1+00601+00141100681ADDMD1210251+9999REMSYN070AAXX  04144 03313 46976 /2616 10060 20014 40068 52025 555 80/99 91355;
0096033130999992000010415004+53250-003500FM-12+007799999V0202701N007219999999N0270001N1+00571+00051100771ADDMD1210381+9999REMSYN070AAXX  04154 03313 46977 /2714 10057 20005 40077 52038 555 80/99 91455;
0096033130999992000010416004+53250-003500FM-12+007799999V0202601N005719999999N0300001N1+00491-00071100881ADDMD1210271+9999REMSYN070AAXX  04164 03313 46980 /2611 10049 21007 40088 52027 555 80/99 91555;
0096033130999992000010417004+53250-003500FM-12+007799999V0202501N006219999999N0280001N1+00481-00111100951ADDMD1210271+9999REMSYN070AAXX  04174 03313 46978 /2512 10048 21011 40095 52027 555 80/99 91655;
0136033130999992000010418004+53250-003500FM-12+007799999V0202501N007219999999N0350001N1+00491-00201101041ADDAA112003091KA1120M+00901MD1210271+9999REMSYN086AAXX  04184 03313 16981 /2514 10049 21020 40104 52027 60032 333 10090 555 80/99 91755;
0096033130999992000010419004+53250-003500FM-12+007799999V0202501N005719999999N0350001N1+00461-00141101121ADDMD1210241+9999REMSYN070AAXX  04194 03313 46981 /2511 10046 21014 40112 52024 555 80/99 91855;
0096033130999992000010420004+53250-003500FM-12+007799999V0202501N006719999999N0350001N1+00481-00211101171ADDMD1210221+9999REMSYN070AAXX  04204 03313 46981 /2513 10048 21021 40117 52022 555 80/99 91955;
0096033130999992000010421004+53250-003500FM-12+007799999V0202101N004119999999N0290001N1+00441-00071101241ADDMD1210201+9999REMSYN070AAXX  04214 03313 46979 /2108 10044 21007 40124 52020 555 80/99 92056;
0096033130999992000010422004+53250-003500FM-12+007799999V0202301N004619999999N0290001N1+00471-00061101231ADDMD1210111+9999REMSYN070AAXX  04224 03313 46979 /2309 10047 21006 40123 52011 555 80/99 92155;
0096033130999992000010423004+53250-003500FM-12+007799999V0202401N006219999999N0300001N1+00511-00071101171ADDMD1410001+9999REMSYN070AAXX  04234 03313 46980 /2412 10051 21007 40117 54000 555 80/99 92255;
0126033130999992000010500004+53250-003500FM-12+007799999V0202101N002119999999N0300001N1+00461+00011101181ADDAA106000091MD1710061+9999REMSYN070AAXX  05004 03313 36980 /2104 10046 20001 40118 57006 555 80/99 92355;EQDQ01  00002PRCP06
0096033130999992000010501004+53250-003500FM-12+007799999V0202101N002119999999N0300001N1+00521+00081101171ADDMD1710061+9999REMSYN070AAXX  05014 03313 46980 /2104 10052 20008 40117 57006 555 80/99 90055;
0108033130999992000010502004+53250-003500FM-12+007799999V0202201N003619999999N0250001N1+00571+00221101101ADDMD1710071+9999REMSYN082AAXX  05024 03313 46575 /2207 10057 20022 40110 57007 555 81/24 81/28 83/37 90155;
0102033130999992000010503004+53250-003500FM-12+007799999V0202101N006219999999N0250001N1+00601+00201101061ADDMD1710121+9999REMSYN076AAXX  05034 03313 46475 /2112 10060 20020 40106 57012 555 82/19 81/26 90255;
0102033130999992000010504004+53250-003500FM-12+007799999V0202101N005119999999N0270001N1+00651+00201100931ADDMD1710241+9999REMSYN076AAXX  05044 03313 46577 /2110 10065 20020 40093 57024 555 82/28 83/34 90355;
0108033130999992000010505004+53250-003500FM-12+007799999V0201901N006219999999N0270001N1+00681+00321100911ADDMD1710191+9999REMSYN082AAXX  05054 03313 46477 /1912 10068 20032 40091 57019 555 81/18 84/32 82/62 90455;
0155033130999992000010506004+53250-003500FM-12+007799999V0201301N002119999999N0300001N1+00701+00321100801ADDAA106000091KA1120N+00391MD1710261+9999REMSYN086AAXX  05064 03313 36580 /1304 10070 20032 40080 57026 333 20039 555 87/26 83/37 90555;EQDQ01  00002PRCP06
0102033130999992000010507004+53250-003500FM-12+007799999V0201801N005719999999N0270001N1+00881+00401100721ADDMD1710211+9999REMSYN076AAXX  05074 03313 46577 /1811 10088 20040 40072 57021 555 87/25 84/34 90655;
0102033130999992000010508004+53250-003500FM-12+007799999V0201801N007219999999N0220001N1+00951+00531100601ADDMD1710311+9999REMSYN076AAXX  05084 03313 46572 /1814 10095 20053 40060 57031 555 87/22 83/50 90755;
0130033130999992000010509004+53250-003500FM-12+007799999V0201901N007719999999N0280001N1+00961+00611100541ADDIA2999-00209MD1710261+9999REMSYN092AAXX  05094 03313 46578 /1915 10096 20061 40054 57026 333 3/102 555 83/21 85/25 83/40 90856;
0102033130999992000010510004+53250-003500FM-12+007799999V0202001N009319999999N0300001N1+01061+00611100511ADDMD1710211+9999REMSYN076AAXX  05104 03313 46980 /2018 10106 20061 40051 57021 555 1//37 80/99 90955;
0108033130999992000010511004+53250-003500FM-12+007799999V0202001N009819999999N0280001N1+01061+00631100481ADDMD1710121+9999REMSYN082AAXX  05114 03313 46678 /2019 10106 20063 40048 57012 555 81/37 82/44 83/50 91055;
0126033130999992000010512004+53250-003500FM-12+007799999V0202001N009319999999N0300001N1+01111+00541100401ADDAA106000091MD1710141+9999REMSYN070AAXX  05124 03313 36780 /2018 10111 20054 40040 57014 555 84/50 91155;EQDQ01  00002PRCP06
0114033130999992000010513004+53250-003500FM-12+007799999V0202001N007219999999N0270001N1+01031+00551100411ADDMD1710101+9999REMSYN088AAXX  05134 03313 46577 /2014 10103 20055 40041 57010 555 1//35 81/22 81/26 87/33 91255;
0096033130999992000010514004+53250-003500FM-12+007799999V0201801N008719999999N0400001N1+01081+00381100321ADDMD1710161+9999REMSYN070AAXX  05144 03313 46682 /1817 10108 20038 40032 57016 555 86/42 91355;
0108033130999992000010515004+53250-003500FM-12+007799999V0201701N006719999999N0300001N1+01021+00431100141ADDMD1710261+9999REMSYN082AAXX  05154 03313 46680 /1713 10102 20043 40014 57026 555 82/33 86/42 84/48 91455;
0096033130999992000010516004+53250-003500FM-12+007799999V0201901N006719999999N0300001N1+01021+00411100091ADDMD1710321+9999REMSYN070AAXX  05164 03313 46680 /1913 10102 20041 40009 57032 555 87/30 91555;
0096033130999992000010517004+53250-003500FM-12+007799999V0201901N008219999999N0350001N1+01041+00481099961ADDMD1710361+9999REMSYN070AAXX  05174 03313 46681 /1916 10104 20048 49996 57036 555 87/30 91655;
0102033130999992000010519004+53250-003500FM-12+007799999V0201901N010819999999N0500001N1+01171+00711099711ADDMD1710381+9999REMSYN076AAXX  05194 03313 46584 /1921 10117 20071 49971 57038 555 1//38 87/24 91855;
0108033130999992000010521004+53250-003500FM-12+007799999V0202001N010319999999N0210001N1+01201+00901099601ADDMD1710251+9999REMSYN082AAXX  05214 03313 46571 /2020 10120 20090 49960 57025 555 1//39 84/21 82/30 92056;
0114033130999992000010522004+53250-003500FM-12+007799999V0202101N009319999999N0220001N1+01031+00621099631ADDMD1710081+9999REMSYN088AAXX  05224 03313 46472 /2118 10103 20062 49963 57008 555 1//41 81/19 81/23 81/46 92155;
0108033130999992000010601004+53250-003500FM-12+007799999V0202201N010319999999N0200001N1+01021+00431099831ADDMD1210201+9999REMSYN082AAXX  06014 03313 46670 /2220 10102 20043 49983 52020 555 1//41 81/30 82/35 90055;
0114033130999992000010602004+53250-003500FM-12+007799999V0202201N008719999999N0180001N1+00971+00531099821ADDMD1210101+9999REMSYN088AAXX  06024 03313 46468 /2217 10097 20053 49982 52010 555 1//35 82/19 81/25 81/38 90155;
0096033130999992000010603004+53250-003500FM-12+007799999V0202301N007719999999N0200001N1+00951+00481099891ADDMD1210141+9999REMSYN070AAXX  06034 03313 46970 /2315 10095 20048 49989 52014 555 80/99 90255;
0096033130999992000010604004+53250-003500FM-12+007799999V0202301N006719999999N0210001N1+00941+00441099921ADDMD1210091+9999REMSYN070AAXX  06044 03313 46971 /2313 10094 20044 49992 52009 555 80/99 90355;
0096033130999992000010605004+53250-003500FM-12+007799999V0202401N007219999999N0180001N1+00871+00531099981ADDMD1210161+9999REMSYN070AAXX  06054 03313 46568 /2414 10087 20053 49998 52016 555 81/23 90455;
0136033130999992000010606004+53250-003500FM-12+007799999V0202401N008219999999N0180001N1+00861+00551100011ADDAA112000591KA1120N+00851MD1210121+9999REMSYN086AAXX  06064 03313 16968 /2416 10086 20055 40001 52012 69962 333 20085 555 80/99 90555;
0096033130999992000010607004+53250-003500FM-12+007799999V0202401N007219999999N0280001N1+00851+00491100131ADDMD1210211+9999REMSYN070AAXX  06074 03313 46978 /2414 10085 20049 40013 52021 555 80/99 90655;
0096033130999992000010608004+53250-003500FM-12+007799999V0202501N006719999999N0350001N1+00871+00301100281ADDMD1210301+9999REMSYN070AAXX  06084 03313 46981 /2513 10087 20030 40028 52030 555 80/99 90755;
0118033130999992000010609004+53250-003500FM-12+007799999V0202501N008219999999N0350001N1+00881+00261100471ADDIA2999+00409MD1210461+9999REMSYN080AAXX  06094 03313 46681 /2516 10088 20026 40047 52046 333 3/004 555 85/42 90856;
0102033130999992000010610004+53250-003500FM-12+007799999V0202601N006719999999N0350001N1+00881+00371100591ADDMD1210461+9999REMSYN076AAXX  06104 03313 46681 /2613 10088 20037 40059 52046 555 81/32 82/37 90955;
0108033130999992000010611004+53250-003500FM-12+007799999V0202901N006219999999N0090001N1+00671+00531100871ADDMD1210591+9999REMSYN082AAXX  06114 03313 46459 /2912 10067 20053 40087 52059 555 81/12 81/15 87/21 91055;
0125033130999992000010612004+53250-003500FM-12+007799999V0202801N003619999999N0090001N1+00671+00581100991ADDAA106000591MD1210521+9999REMSYN088AAXX  06124 03313 16359 /2807 10067 20058 40099 52052 69961 555 81/08 82/10 87/24 91155;
0108033130999992000010613004+53250-003500FM-12+007799999V0202801N003619999999N0260001N1+00771+00591101121ADDMD1210531+9999REMSYN082AAXX  06134 03313 46476 /2807 10077 20059 40112 52053 555 81/14 86/30 82/50 91255;
0096033130999992000010614004+53250-003500FM-12+007799999V0202901N005719999999N0220001N1+00781+00411101181ADDMD1210311+9999REMSYN070AAXX  06144 03313 46972 /2911 10078 20041 40118 52031 555 80/99 91355;
0096033130999992000010615004+53250-003500FM-12+007799999V0202901N004619999999N0230001N1+00731+00401101281ADDMD1210291+9999REMSYN070AAXX  06154 03313 46973 /2909 10073 20040 40128 52029 555 80/99 91457;
0096033130999992000010616004+53250-003500FM-12+007799999V0202401N002619999999N0210001N1+00601+00361101371ADDMD1210251+9999REMSYN070AAXX  06164 03313 46971 /2405 10060 20036 40137 52025 555 80/99 91555;
0096033130999992000010617004+53250-003500FM-12+007799999V0202601N003119999999N0210001N1+00551+00331101521ADDMD1210341+9999REMSYN070AAXX  06174 03313 46971 /2606 10055 20033 40152 52034 555 80/99 91655;
0136033130999992000010618004+53250-003500FM-12+007799999V0201801N003119999999N0210001N1+00421+00211101511ADDAA112000891KA1120M+00911MD1210231+9999REMSYN086AAXX  06184 03313 16971 /1806 10042 20021 40151 52023 69982 333 10091 555 80/99 91755;
0096033130999992000010620004+53250-003500FM-12+007799999V0201601N003619999999N0180001N1+00381+00171101581ADDMD1210061+9999REMSYN070AAXX  06204 03313 46968 /1607 10038 20017 40158 52006 555 80/99 91955;
0096033130999992000010621004+53250-003500FM-12+007799999V0201401N002619999999N0230001N1+00421+00191101521ADDMD1210011+9999REMSYN070AAXX  06214 03313 46973 /1405 10042 20019 40152 52001 555 80/99 92056;
0096033130999992000010622004+53250-003500FM-12+007799999V0201801N003619999999N0250001N1+00531+00261101511ADDMD1710021+9999REMSYN070AAXX  06224 03313 46975 /1807 10053 20026 40151 57002 555 80/99 92155;
0096033130999992000010623004+53250-003500FM-12+007799999V0202101N006719999999N0240001N1+00701+00321101481ADDMD1710101+9999REMSYN070AAXX  06234 03313 46974 /2113 10070 20032 40148 57010 555 85/61 92255;
0108033130999992000010701004+53250-003500FM-12+007799999V0202201N005119999999N0240001N1+00811+00391101391ADDMD1710121+9999REMSYN082AAXX  07014 03313 46574 /2210 10081 20039 40139 57012 555 84/28 81/58 85/61 90055;
0102033130999992000010702004+53250-003500FM-12+007799999V0202301N004619999999N0230001N1+00881+00421101281ADDMD1710201+9999REMSYN076AAXX  07024 03313 46573 /2309 10088 20042 40128 57020 555 86/25 87/56 90155;
0102033130999992000010703004+53250-003500FM-12+007799999V0202201N006719999999N0230001N1+00921+00491101201ADDMD1710261+9999REMSYN076AAXX  07034 03313 46573 /2213 10092 20049 40120 57026 555 83/27 87/56 90255;
0102033130999992000010704004+53250-003500FM-12+007799999V0202201N010319999999N0260001N1+00941+00441101051ADDMD1710341+9999REMSYN076AAXX  07044 03313 46976 /2220 10094 20044 40105 57034 555 1//38 80/99 90355;
0102033130999992000010705004+53250-003500FM-12+007799999V0202101N009319999999N0260001N1+00931+00451101081ADDMD1710201+9999REMSYN076AAXX  07054 03313 46776 /2118 10093 20045 40108 57020 555 1//37 81/56 90455;
0166033130999992000010706004+53250-003500FM-12+007799999V0202101N009319999999N0210001N1+00931+00551101041ADDAA106000091KA1120N+00291MD1710161+9999OA140102011REMSYN086AAXX  07064 03313 36471 /2118 10093 20055 40104 57016 333 20029 555 1//39 85/19 90555;EQDQ01  00002PRCP06
0102033130999992000010707004+53250-003500FM-12+007799999V0202101N009319999999N0240001N1+00931+00501101011ADDMD1710041+9999REMSYN076AAXX  07074 03313 46474 /2118 10093 20050 40101 57004 555 1//36 86/19 90655;
0102033130999992000010708004+53250-003500FM-12+007799999V0202101N010319999999N0240001N1+00951+00481100991ADDMD1710091+9999REMSYN076AAXX  07084 03313 46574 /2120 10095 20048 40099 57009 555 1//37 85/22 90755;
0135033130999992000010709004+53250-003500FM-12+007799999V0202201N010819999999N0250001N1+00911+00531100951ADDIA2999-00109MD1710091+9999OA140101961REMSYN086AAXX  07094 03313 46575 /2221 10091 20053 40095 57009 333 3/101 555 1//38 82/23 90856;
0102033130999992000010710004+53250-003500FM-12+007799999V0202101N010819999999N0260001N1+00971+00401101001ADDMD1710011+9999REMSYN076AAXX  07104 03313 46576 /2121 10097 20040 40100 57001 555 1//41 81/26 90955;
0102033130999992000010711004+53250-003500FM-12+007799999V0202101N008719999999N0280001N1+00991+00451100941ADDMD1710051+9999REMSYN076AAXX  07114 03313 46578 /2117 10099 20045 40094 57005 555 1//34 84/27 91055;
0126033130999992000010712004+53250-003500FM-12+007799999V0202301N008719999999N0280001N1+01021+00411100851ADDAA106000091MD1710101+9999REMSYN070AAXX  07124 03313 36678 /2317 10102 20041 40085 57010 555 84/33 91155;EQDQ01  00002PRCP06
0102033130999992000010713004+53250-003500FM-12+007799999V0202101N009319999999N0270001N1+01011+00421100711ADDMD1710291+9999REMSYN076AAXX  07134 03313 46677 /2118 10101 20042 40071 57029 555 1//35 87/33 91255;
0102033130999992000010714004+53250-003500FM-12+007799999V0201901N009319999999N0110001N1+00921+00541100631ADDMD1710311+9999REMSYN076AAXX  07144 03313 46461 /1918 10092 20054 40063 57031 555 87/19 83/28 91355;
0102033130999992000010715004+53250-003500FM-12+007799999V0202001N008719999999N0049001N1+00871+00671100501ADDMD1710351+9999REMSYN076AAXX  07154 03313 46249 /2017 10087 20067 40050 57035 555 81/04 87/16 91455;
0114033130999992000010716004+53250-003500FM-12+007799999V0202101N009819999999N0060001N1+00891+00721100391ADDMD1710321+9999REMSYN088AAXX  07164 03313 46356 /2119 10089 20072 40039 57032 555 1//36 83/06 82/08 86/20 91555;
0102033130999992000010717004+53250-003500FM-12+007799999V0202001N009319999999N0190001N1+00951+00671100401ADDMD1710231+9999REMSYN076AAXX  07174 03313 46469 /2018 10095 20067 40040 57023 555 1//35 87/19 91655;
0136033130999992000010718004+53250-003500FM-12+007799999V0202101N007719999999N0180001N1+00981+00701100321ADDAA112000191KA1120M+01031MD1710181+9999REMSYN086AAXX  07184 03313 16468 /2115 10098 20070 40032 57018 69922 333 10103 555 88/17 91755;
0096033130999992000010719004+53250-003500FM-12+007799999V0202101N008219999999N0160001N1+01001+00741100221ADDMD1710171+9999REMSYN070AAXX  07194 03313 46466 /2116 10100 20074 40022 57017 555 87/17 91855;
0102033130999992000010720004+53250-003500FM-12+007799999V0202301N006719999999N0260001N1+01021+00741100211ADDMD1710191+9999REMSYN076AAXX  07204 03313 46476 /2313 10102 20074 40021 57019 555 1//34 87/15 91955;
0096033130999992000010721004+53250-003500FM-12+007799999V0202801N006719999999N0170001N1+00821+00641100361ADDMD1210041+9999REMSYN070AAXX  07214 03313 46467 /2813 10082 20064 40036 52004 555 88/14 92056;
0108033130999992000010722004+53250-003500FM-12+007799999V0202601N007219999999N0350001N1+00841+00371100441ADDMD1210221+9999REMSYN082AAXX  07224 03313 46581 /2614 10084 20037 40044 52022 555 81/23 84/33 86/39 92155;
0102033130999992000010723004+53250-003500FM-12+007799999V0201901N002619999999N0350001N1+00791+00371100521ADDMD1210311+9999REMSYN076AAXX  07234 03313 46681 /1905 10079 20037 40052 52031 555 82/36 82/50 92255;
0113033130999992000010800004+53250-003500FM-12+007799999V0202601N007719999999N0300001N1+00761-00031100641ADDAA106000591MD1210281+9999REMSYN076AAXX  08004 03313 16780 /2615 10076 21003 40064 52028 69961 555 81/50 92355;
0096033130999992000010801004+53250-003500FM-12+007799999V0202501N009819999999N0250001N1+00731-00111100671ADDMD1210231+9999REMSYN070AAXX  08014 03313 46975 /2519 10073 21011 40067 52023 555 80/99 90055;
0096033130999992000010802004+53250-003500FM-12+007799999V0202501N008219999999N0300001N1+00701-00291100731ADDMD1210211+9999REMSYN070AAXX  08024 03313 46980 /2516 10070 21029 40073 52021 555 80/99 90155;
0096033130999992000010803004+53250-003500FM-12+007799999V0202101N002119999999N0290001N1+00491-00131100801ADDMD1210161+9999REMSYN070AAXX  08034 03313 46979 /2104 10049 21013 40080 52016 555 80/99 90255;
0096033130999992000010804004+53250-003500FM-12+007799999V0202301N003619999999N0280001N1+00581-00211100821ADDMD1210151+9999REMSYN070AAXX  08044 03313 46978 /2307 10058 21021 40082 52015 555 80/99 90355;
0096033130999992000010805004+53250-003500FM-12+007799999V0202301N002119999999N0260001N1+00541-00131100881ADDMD1210151+9999REMSYN070AAXX  08054 03313 46976 /2304 10054 21013 40088 52015 555 80/99 90455;
0136033130999992000010806004+53250-003500FM-12+007799999V0202101N001019999999N0260001N1+00451-00061100951ADDAA112000591KA1120N+00451MD1210151+9999REMSYN086AAXX  08064 03313 16976 /2102 10045 21006 40095 52015 69962 333 20045 555 80/99 90555;
0096033130999992000010807004+53250-003500FM-12+007799999V0201701N000519999999N0250001N1+00441-00071101031ADDMD1210211+9999REMSYN070AAXX  08074 03313 46975 /1701 10044 21007 40103 52021 555 80/99 90655;
0096033130999992000010808004+53250-003500FM-12+007799999V0202201N003119999999N0230001N1+00471+00001101061ADDMD1210181+9999REMSYN070AAXX  08084 03313 46973 /2206 10047 20000 40106 52018 555 80/99 90755;
0118033130999992000010809004+53250-003500FM-12+007799999V0202401N002119999999N0230001N1+00501+00001101151ADDIA2999-00309MD1210201+9999REMSYN080AAXX  08094 03313 46973 /2404 10050 20000 40115 52020 333 3/103 555 80/99 90856;
0096033130999992000010810004+53250-003500FM-12+007799999V0202301N003619999999N0220001N1+00611+00041101251ADDMD1210221+9999REMSYN070AAXX  08104 03313 46972 /2307 10061 20004 40125 52022 555 80/99 90955;
0102033130999992000010811004+53250-003500FM-12+007799999V0202201N001019999999N0250001N1+00741+00091101271ADDMD1210211+9999REMSYN076AAXX  08114 03313 46675 /2202 10074 20009 40127 52021 555 81/41 81/50 91100;
0126033130999992000010812004+53250-003500FM-12+007799999V0202001N001519999999N0260001N1+00831+00081101261ADDAA106000091MD1210111+9999REMSYN070AAXX  08124 03313 36976 /2003 10083 20008 40126 52011 555 80/99 91200;EQDQ01  00002PRCP06
0096033130999992000010813004+53250-003500FM-12+007799999V0202501N005119999999N0300001N1+00791-00061101291ADDMD1210041+9999REMSYN070AAXX  08134 03313 46680 /2510 10079 21006 40129 52004 555 83/45 91300;
0096033130999992000010814004+53250-003500FM-12+007799999V0202501N004119999999N0300001N1+00781-00071101301ADDMD1210031+9999REMSYN070AAXX  08144 03313 46980 /2508 10078 21007 40130 52003 555 80/99 91355;
0096033130999992000010815004+53250-003500FM-12+007799999V0202401N004119999999N0220001N1+00721-00091101331ADDMD1210071+9999REMSYN070AAXX  08154 03313 46972 /2408 10072 21009 40133 52007 555 80/99 91455;
0096033130999992000010816004+53250-003500FM-12+007799999V0202501N004619999999N0300001N1+00591-00041101391ADDMD1210101+9999REMSYN070AAXX  08164 03313 46980 /2509 10059 21004 40139 52010 555 80/99 91555;
0096033130999992000010817004+53250-003500FM-12+007799999V0202401N002619999999N0270001N1+00491-00011101481ADDMD1210181+9999REMSYN070AAXX  08174 03313 46977 /2405 10049 21001 40148 52018 555 80/99 91655;
0149033130999992000010818004+53250-003500FM-12+007799999V0202501N005719999999N0270001N1+00551-00021101541ADDAA106000091KA1120M+00851MD1210211+9999REMSYN080AAXX  08184 03313 36977 /2511 10055 21002 40154 52021 333 10085 555 80/99 91755;EQDQ01  00002PRCP06
0096033130999992000010819004+53250-003500FM-12+007799999V0202501N007719999999N0280001N1+00551-00121101591ADDMD1210201+9999REMSYN070AAXX  08194 03313 46978 /2515 10055 21012 40159 52020 555 80/99 91855;
0096033130999992000010820004+53250-003500FM-12+007799999V0202501N005719999999N0280001N1+00511-00041101661ADDMD1210181+9999REMSYN070AAXX  08204 03313 46978 /2511 10051 21004 40166 52018 555 80/99 91955;
0096033130999992000010821004+53250-003500FM-12+007799999V0202601N004619999999N0280001N1+00471-00031101751ADDMD1210211+9999REMSYN070AAXX  08214 03313 46978 /2609 10047 21003 40175 52021 555 80/99 92056;
0096033130999992000010822004+53250-003500FM-12+007799999V0202701N005119999999N0300001N1+00461-00011101811ADDMD1210221+9999REMSYN070AAXX  08224 03313 46980 /2710 10046 21001 40181 52022 555 80/99 92155;
0096033130999992000010823004+53250-003500FM-12+007799999V0202501N004619999999N0300001N1+00421-00061101841ADDMD1210181+9999REMSYN070AAXX  08234 03313 46980 /2509 10042 21006 40184 52018 555 80/99 92255;
0126033130999992000010900004+53250-003500FM-12+007799999V0202601N005119999999N0300001N1+00431-00081101851ADDAA106000091MD1210101+9999REMSYN070AAXX  09004 03313 36980 /2610 10043 21008 40185 52010 555 80/99 92355;EQDQ01  00002PRCP06
0096033130999992000010901004+53250-003500FM-12+007799999V0202501N004619999999N0300001N1+00441-00041101911ADDMD1210101+9999REMSYN070AAXX  09014 03313 46980 /2509 10044 21004 40191 52010 555 80/99 90055;
0096033130999992000010902004+53250-003500FM-12+007799999V0202501N003619999999N0280001N1+00421+00001102001ADDMD1210161+9999REMSYN070AAXX  09024 03313 46678 /2507 10042 20000 40200 52016 555 81/31 90155;
0096033130999992000010903004+53250-003500FM-12+007799999V0202401N005119999999N0280001N1+00441-00041102081ADDMD1210231+9999REMSYN070AAXX  09034 03313 46678 /2410 10044 21004 40208 52023 555 82/31 90255;
0096033130999992000010904004+53250-003500FM-12+007799999V0202501N004619999999N0270001N1+00441+00011102111ADDMD1210201+9999REMSYN070AAXX  09044 03313 46977 /2509 10044 20001 40211 52020 555 80/99 90355;
0096033130999992000010905004+53250-003500FM-12+007799999V0202501N004619999999N0260001N1+00441+00041102181ADDMD1210181+9999REMSYN070AAXX  09054 03313 46976 /2509 10044 20004 40218 52018 555 80/99 90455;
0096033130999992000010907004+53250-003500FM-12+007799999V0202501N004119999999N0260001N1+00371+00081102281ADDMD1210171+9999REMSYN070AAXX  09074 03313 46976 /2508 10037 20008 40228 52017 555 80/99 90655;
0096033130999992000010908004+53250-003500FM-12+007799999V0202701N005119999999N0280001N1+00451+00111102391ADDMD1210211+9999REMSYN070AAXX  09084 03313 46678 /2710 10045 20011 40239 52021 555 85/45 90755;
0118033130999992000010909004+53250-003500FM-12+007799999V0202601N003119999999N0270001N1+00371+00081102501ADDIA2999-00109MD1210271+9999REMSYN080AAXX  09094 03313 46977 /2606 10037 20008 40250 52027 333 3/101 555 80/99 90856;
0102033130999992000010910004+53250-003500FM-12+007799999V0202601N002619999999N0270001N1+00481+00121102581ADDMD1210301+9999REMSYN076AAXX  09104 03313 46577 /2605 10048 20012 40258 52030 555 81/24 81/29 90955;
0102033130999992000010911004+53250-003500FM-12+007799999V0202701N004119999999N0300001N1+00521+00191102671ADDMD1210281+9999REMSYN076AAXX  09114 03313 46480 /2708 10052 20019 40267 52028 555 81/18 81/26 91055;
0126033130999992000010912004+53250-003500FM-12+007799999V0202801N005119999999N0300001N1+00601+00171102661ADDAA106000091MD1210161+9999REMSYN070AAXX  09124 03313 36980 /2810 10060 20017 40266 52016 555 80/99 91155;EQDQ01  00002PRCP06
0096033130999992000010913004+53250-003500FM-12+007799999V0202801N004619999999N0300001N1+00591+00191102691ADDMD1210111+9999REMSYN070AAXX  09134 03313 46480 /2809 10059 20019 40269 52011 555 81/19 91257;
0102033130999992000010914004+53250-003500FM-12+007799999V0202801N005119999999N0350001N1+00591+00161102751ADDMD1210081+9999REMSYN076AAXX  09144 03313 46481 /2810 10059 20016 40275 52008 555 81/19 81/26 91355;
0102033130999992000010915004+53250-003500FM-12+007799999V0203001N004619999999N0350001N1+00631+00211102821ADDMD1210161+9999REMSYN076AAXX  09154 03313 46481 /3009 10063 20021 40282 52016 555 82/19 82/36 91455;
0108033130999992000010916004+53250-003500FM-12+007799999V0202701N002619999999N0300001N1+00531+00201102891ADDMD1210201+9999REMSYN082AAXX  09164 03313 46480 /2705 10053 20020 40289 52020 555 82/19 81/22 85/31 91555;
0096033130999992000010917004+53250-003500FM-12+007799999V0202501N002119999999N0280001N1+00421+00131102951ADDMD1210201+9999REMSYN070AAXX  09174 03313 46678 /2504 10042 20013 40295 52020 555 82/37 91657;
0149033130999992000010918004+53250-003500FM-12+007799999V0202101N002119999999N0240001N1+00261+00071103011ADDAA106000091KA1120M+00661MD1210191+9999REMSYN080AAXX  09184 03313 36974 /2104 10026 20007 40301 52019 333 10066 555 80/99 91758;EQDQ01  00002PRCP06
0096033130999992000010919004+53250-003500FM-12+007799999V0202101N002619999999N0240001N1+00221-00021103081ADDMD1210191+9999REMSYN070AAXX  09194 03313 46974 /2105 10022 21002 40308 52019 555 80/99 91857;
0096033130999992000010920004+53250-003500FM-12+007799999V0202101N003119999999N0260001N1+00211-00031103091ADDMD1210141+9999REMSYN070AAXX  09204 03313 46976 /2106 10021 21003 40309 52014 555 80/99 91955;
0096033130999992000010921004+53250-003500FM-12+007799999V0202101N003619999999N0300001N1+00201-00011103101ADDMD1210091+9999REMSYN070AAXX  09214 03313 46980 /2107 10020 21001 40310 52009 555 80/99 92056;
0096033130999992000010922004+53250-003500FM-12+007799999V0202201N004119999999N0300001N1+00241+00001103131ADDMD1210051+9999REMSYN070AAXX  09224 03313 46980 /2208 10024 20000 40313 52005 555 80/99 92153;
0096033130999992000010923004+53250-003500FM-12+007799999V0202001N003119999999N0280001N1+00191-00031103111ADDMD1210021+9999REMSYN070AAXX  09234 03313 46978 /2006 10019 21003 40311 52002 555 80/99 92253;
0127033130999992000011000004+53250-003500FM-12+007799999V0202001N009319999999N0130001N1+00971+00731999999ADDMD1710061+9999REMSYN082AAXX  11204 03313 46463 /2018 10097 20073 40209 57006 555 81/14 87/18 84/28 91954;EQDQ01+102093APOSLP
0096033130999992000011001004+53250-003500FM-12+007799999V0201601N002119999999N0300001N1+00152-00041103071ADDMD1710061+9999REMSYN070AAXX  10014 03313 46980 /1604 10015 21004 40307 57006 555 80/99 90054;
0096033130999992000011002004+53250-003500FM-12+007799999V0202301N003119999999N0290001N1+00301+00061103051ADDMD1710061+9999REMSYN070AAXX  10024 03313 46979 /2306 10030 20006 40305 57006 555 80/99 90153;
0096033130999992000011003004+53250-003500FM-12+007799999V0202001N004119999999N0350001N1+00411+00091103041ADDMD1710101+9999REMSYN070AAXX  10034 03313 46981 /2008 10041 20009 40304 57010 555 80/99 90253;
0096033130999992000011004004+53250-003500FM-12+007799999V0209999C000019999999N0300001N1+00221+00081103051ADDMD1710021+9999REMSYN070AAXX  10044 03313 46980 /0000 10022 20008 40305 57002 555 80/99 90353;
0102033130999992000011005004+53250-003500FM-12+007799999V0201301N000519999999N0300001N1+00331+00091103021ADDMD1710031+9999REMSYN076AAXX  10054 03313 46580 /1301 10033 20009 40302 57003 555 84/22 83/29 90453;
0149033130999992000011006004+53250-003500FM-12+007799999V0201301N002619999999N0300001N1+00331+00121102951ADDAA106000091KA1120N+00111MD1710091+9999REMSYN080AAXX  10064 03313 36580 /1305 10033 20012 40295 57009 333 20011 555 81/22 90554;EQDQ01  00002PRCP06
0096033130999992000011007004+53250-003500FM-12+007799999V0201901N004619999999N0350001N1+00581+00201102931ADDMD1710121+9999REMSYN070AAXX  10074 03313 46581 /1909 10058 20020 40293 57012 555 81/26 90656;
0102033130999992000011008004+53250-003500FM-12+007799999V0201701N004619999999N0350001N1+00631+00291102941ADDMD1710081+9999REMSYN076AAXX  10084 03313 46581 /1709 10063 20029 40294 57008 555 85/22 82/27 90754;
0130033130999992000011009004+53250-003500FM-12+007799999V0202101N003619999999N0400001N1+00721+00341102911ADDIA2999-00409MD1710041+9999REMSYN092AAXX  10094 03313 46582 /2107 10072 20034 40291 57004 333 3/104 555 86/23 84/32 84/64 90856;
0102033130999992000011010004+53250-003500FM-12+007799999V0202201N005119999999N0450001N1+00771+00341102911ADDMD1710021+9999REMSYN076AAXX  10104 03313 46583 /2210 10077 20034 40291 57002 555 86/27 85/32 90954;
0102033130999992000011011004+53250-003500FM-12+007799999V0201901N005719999999N0400001N1+00811+00441102861ADDMD1710081+9999REMSYN076AAXX  10114 03313 46582 /1911 10081 20044 40286 57008 555 84/22 84/50 91054;
0132033130999992000011012004+53250-003500FM-12+007799999V0202001N005119999999N0400001N1+00841+00401102821ADDAA106000091MD1710091+9999REMSYN076AAXX  10124 03313 36582 /2010 10084 20040 40282 57009 555 82/26 84/56 91155;EQDQ01  00002PRCP06
0102033130999992000011013004+53250-003500FM-12+007799999V0202201N006719999999N0400001N1+00871+00361102731ADDMD1710181+9999REMSYN076AAXX  10134 03313 46582 /2213 10087 20036 40273 57018 555 81/25 87/50 91254;
0108033130999992000011014004+53250-003500FM-12+007799999V0202101N006719999999N0400001N1+00871+00461102681ADDMD1710181+9999REMSYN082AAXX  10144 03313 46582 /2113 10087 20046 40268 57018 555 83/20 81/25 85/59 91354;
0102033130999992000011015004+53250-003500FM-12+007799999V0202301N004619999999N0400001N1+00871+00481102631ADDMD1710191+9999REMSYN076AAXX  10154 03313 46582 /2309 10087 20048 40263 57019 555 81/21 87/58 91454;
0102033130999992000011016004+53250-003500FM-12+007799999V0202301N007219999999N0450001N1+00861+00521102601ADDMD1710131+9999REMSYN076AAXX  10164 03313 46983 /2314 10086 20052 40260 57013 555 81/58 84/61 91554;
0136033130999992000011018004+53250-003500FM-12+007799999V0202301N009319999999N0600001N1+00891+00561102571ADDAA112000191KA1120M+00901MD1710061+9999REMSYN086AAXX  10184 03313 16986 /2318 10089 20056 40257 57006 69922 333 10090 555 86/58 91755;
0096033130999992000011020004+53250-003500FM-12+007799999V0202201N007219999999N0550001N1+00901+00611102631ADDMD1210081+9999REMSYN070AAXX  10204 03313 46685 /2214 10090 20061 40263 52008 555 87/47 91955;
0108033130999992000011021004+53250-003500FM-12+007799999V0202201N006719999999N0220001N1+00921+00661102641ADDMD1210071+9999REMSYN082AAXX  10214 03313 46472 /2213 10092 20066 40264 52007 555 82/19 83/41 86/56 92055;
0096033130999992000011022004+53250-003500FM-12+007799999V0202201N006719999999N0600001N1+00921+00661102651ADDMD1210041+9999REMSYN070AAXX  10224 03313 46686 /2213 10092 20066 40265 52004 555 87/47 92154;
0096033130999992000011023004+53250-003500FM-12+007799999V0202201N005719999999N0500001N1+00921+00681102691ADDMD1210061+9999REMSYN070AAXX  10234 03313 46684 /2211 10092 20068 40269 52006 555 86/46 92254;
0132033130999992000011100004+53250-003500FM-12+007799999V0202301N004619999999N0500001N1+00921+00731102681ADDAA106000091MD1210041+9999REMSYN076AAXX  11004 03313 36684 /2309 10092 20073 40268 52004 555 87/33 83/50 92354;EQDQ01  00002PRCP06
0102033130999992000011101004+53250-003500FM-12+007799999V0202201N004119999999N0600001N1+00941+00721102671ADDMD1210021+9999REMSYN076AAXX  11014 03313 46586 /2208 10094 20072 40267 52002 555 81/29 84/56 90054;
0108033130999992000011102004+53250-003500FM-12+007799999V0202301N003619999999N0600001N1+00961+00721102701ADDMD1210011+9999REMSYN082AAXX  11024 03313 46586 /2307 10096 20072 40270 52001 555 84/22 83/26 85/57 90154;
0108033130999992000011103004+53250-003500FM-12+007799999V0202201N002619999999N0500001N1+00941+00771102701ADDMD1210021+9999REMSYN082AAXX  11034 03313 46584 /2205 10094 20077 40270 52002 555 81/21 84/39 85/56 90254;
0102033130999992000011104004+53250-003500FM-12+007799999V0202301N003119999999N0600001N1+00941+00771102671ADDMD1410001+9999REMSYN076AAXX  11044 03313 46686 /2306 10094 20077 40267 54000 555 85/37 85/46 90354;
0108033130999992000011105004+53250-003500FM-12+007799999V0202201N003619999999N0600001N1+00951+00761102631ADDMD1710071+9999REMSYN082AAXX  11054 03313 46686 /2207 10095 20076 40263 57007 555 85/31 81/50 83/57 90455;
0136033130999992000011106004+53250-003500FM-12+007799999V0202301N004119999999N0600001N1+00981+00771102621ADDAA112000191KA1120N+00881MD1710081+9999REMSYN086AAXX  11064 03313 16686 /2308 10098 20077 40262 57008 69922 333 20088 555 87/40 90555;
0096033130999992000011107004+53250-003500FM-12+007799999V0202201N003619999999N0600001N1+00971+00781102641ADDMD1710031+9999REMSYN070AAXX  11074 03313 46686 /2207 10097 20078 40264 57003 555 86/48 90654;
0108033130999992000011108004+53250-003500FM-12+007799999V0202201N003119999999N0250001N1+00961+00791102611ADDMD1710021+9999REMSYN082AAXX  11084 03313 46575 /2206 10096 20079 40261 57002 555 81/29 81/35 86/42 90755;
0130033130999992000011109004+53250-003500FM-12+007799999V0202201N004619999999N0140001N1+00961+00811102611ADDIA2999+00609MD1710011+9999REMSYN092AAXX  11094 03313 46464 /2209 10096 20081 40261 57001 333 3/006 555 82/19 82/50 83/57 90855;
0102033130999992000011110004+53250-003500FM-12+007799999V0202201N006219999999N0450001N1+01041+00791102581ADDMD1710061+9999REMSYN076AAXX  11104 03313 46783 /2212 10104 20079 40258 57006 555 81/56 86/58 90954;
0108033130999992000011111004+53250-003500FM-12+007799999V0202101N007719999999N0110001N1+01061+00831102571ADDMD1710041+9999REMSYN082AAXX  11114 03313 46461 /2115 10106 20083 40257 57004 555 81/12 84/17 86/57 91054;
0125033130999992000011112004+53250-003500FM-12+007799999V0202101N007219999999N0130001N1+01061+00831102511ADDAA106000191MD1710101+9999REMSYN088AAXX  11124 03313 16463 /2114 10106 20083 40251 57010 69921 555 86/15 82/29 83/57 91155;
0108033130999992000011113004+53250-003500FM-12+007799999V0202001N006719999999N0140001N1+01051+00801102441ADDMD1710141+9999REMSYN082AAXX  11134 03313 46464 /2013 10105 20080 40244 57014 555 84/16 85/24 84/29 91254;
0108033130999992000011114004+53250-003500FM-12+007799999V0202101N006719999999N0070001N1+01031+00801102371ADDMD1710201+9999REMSYN082AAXX  11144 03313 46457 /2113 10103 20080 40237 57020 555 84/14 83/21 87/26 91354;
0102033130999992000011115004+53250-003500FM-12+007799999V0202001N007219999999N0110001N1+01011+00781102311ADDMD1710201+9999REMSYN076AAXX  11154 03313 46461 /2014 10101 20078 40231 57020 555 87/15 84/26 91454;
0108033130999992000011116004+53250-003500FM-12+007799999V0202001N007219999999N0090001N1+00961+00791102241ADDMD1710201+9999REMSYN082AAXX  11164 03313 46359 /2014 10096 20079 40224 57020 555 81/06 81/08 87/20 91554;
0108033130999992000011117004+53250-003500FM-12+007799999V0202101N009319999999N0350001N1+00981+00701102151ADDMD1710221+9999REMSYN082AAXX  11174 03313 46481 /2118 10098 20070 40215 57022 555 81/14 83/18 81/24 91654;
0142033130999992000011118004+53250-003500FM-12+007799999V0202101N009319999999N0230001N1+00961+00721102111ADDAA112000591KA1120M+01081MD1710201+9999REMSYN092AAXX  11184 03313 16473 /2118 10096 20072 40211 57020 69942 333 10108 555 81/16 87/19 91755;
0102033130999992000011119004+53250-003500FM-12+007799999V0202001N009319999999N0130001N1+00961+00721102081ADDMD1710161+9999REMSYN076AAXX  11194 03313 46463 /2018 10096 20072 40208 57016 555 81/14 87/19 91854;
0096033130999992000011121004+53250-003500FM-12+007799999V0202101N008219999999N0200001N1+00981+00701102021ADDMD1710091+9999REMSYN070AAXX  11214 03313 46470 /2116 10098 20070 40202 57009 555 87/15 92055;
0102033130999992000011122004+53250-003500FM-12+007799999V0202101N008719999999N0180001N1+00961+00701102041ADDMD1710041+9999REMSYN076AAXX  11224 03313 46468 /2117 10096 20070 40204 57004 555 1//36 87/17 92154;
0108033130999992000011123004+53250-003500FM-12+007799999V0202101N009319999999N0250001N1+00971+00711101981ADDMD1710111+9999REMSYN082AAXX  11234 03313 46475 /2118 10097 20071 40198 57011 555 1//36 81/16 87/19 92254;
0142033130999992000011200004+53250-003500FM-12+007799999V0202101N008219999999N0240001N1+00971+00711101941ADDAA106000191MD1710081+9999OA140101751REMSYN094AAXX  12004 03313 16474 /2116 10097 20071 40194 57008 69921 555 1//34 81/18 87/22 84/56 92354;
0102033130999992000011201004+53250-003500FM-12+007799999V0202101N008719999999N0170001N1+00951+00691101931ADDMD1710111+9999REMSYN076AAXX  12014 03313 46567 /2117 10095 20069 40193 57011 555 1//39 87/22 90054;
0096033130999992000011202004+53250-003500FM-12+007799999V0202101N008719999999N0200001N1+00901+00641101861ADDMD1710121+9999REMSYN070AAXX  12024 03313 46470 /2117 10090 20064 40186 57012 555 87/19 90154;
0108033130999992000011203004+53250-003500FM-12+007799999V0202101N008719999999N0170001N1+00891+00651101841ADDMD1710101+9999REMSYN082AAXX  12034 03313 46467 /2117 10089 20065 40184 57010 555 81/10 81/12 87/18 90254;
0108033130999992000011204004+53250-003500FM-12+007799999V0202101N008219999999N0270001N1+00921+00641101741ADDMD1710191+9999REMSYN082AAXX  12044 03313 46577 /2116 10092 20064 40174 57019 555 1//34 86/22 83/50 90354;
0102033130999992000011205004+53250-003500FM-12+007799999V0202201N007219999999N0300001N1+00921+00641101711ADDMD1710151+9999REMSYN076AAXX  12054 03313 46580 /2214 10092 20064 40171 57015 555 87/20 83/28 90454;
0136033130999992000011206004+53250-003500FM-12+007799999V0202201N006219999999N0220001N1+00921+00661101661ADDAA112000891KA1120N+00881MD1710181+9999REMSYN086AAXX  12064 03313 16472 /2212 10092 20066 40166 57018 69982 333 20088 555 88/17 90555;
0108033130999992000011207004+53250-003500FM-12+007799999V0202801N004619999999N0070001N1+00761+00671101741ADDMD1410001+9999REMSYN082AAXX  12074 03313 46157 /2809 10076 20067 40174 54000 555 82/02 81/14 87/17 90654;
0096033130999992000011208004+53250-003500FM-12+007799999V0203201N001519999999N0015001N1+00641+00631101761ADDMD1210051+9999REMSYN070AAXX  12084 03313 46015 /3203 10064 20063 40176 52005 555 87/01 90754;
0118033130999992000011209004+53250-003500FM-12+007799999V0209999C000019999999N0039001N1+00601+00591101751ADDIA2999+00609MD1210091+9999REMSYN080AAXX  12094 03313 46039 /0000 10060 20059 40175 52009 333 3/006 555 87/01 90856;
0102033130999992000011210004+53250-003500FM-12+007799999V0209999C000019999999N0037001N1+00601+00591101731ADDMD1710011+9999REMSYN076AAXX  12104 03313 46037 /0000 10060 20059 40173 57001 555 87/01 84/27 90954;
0102033130999992000011211004+53250-003500FM-12+007799999V0209999C000019999999N0050001N1+00621+00591101741ADDMD1710021+9999REMSYN076AAXX  12114 03313 46150 /0000 10062 20059 40174 57002 555 87/02 83/31 91054;
0113033130999992000011212004+53250-003500FM-12+007799999V0209999C000019999999N0038001N1+00631+00601101641ADDAA106009991MD1710111+9999REMSYN076AAXX  12124 03313 16238 /0000 10063 20060 40164 57011 60101 555 87/04 91155;
0108033130999992000011213004+53250-003500FM-12+007799999V0209999C000019999999N0080001N1+00641+00591101551ADDMD1710181+9999REMSYN082AAXX  12134 03313 46358 /0000 10064 20059 40155 57018 555 81/07 82/10 87/17 91254;
0108033130999992000011214004+53250-003500FM-12+007799999V0209999C000019999999N0060001N1+00641+00591101471ADDMD1710271+9999REMSYN082AAXX  12144 03313 46356 /0000 10064 20059 40147 57027 555 84/07 85/20 84/32 91354;
0108033130999992000011215004+53250-003500FM-12+007799999V0209999C000019999999N0031001N1+00621+00591101421ADDMD1710221+9999REMSYN082AAXX  12154 03313 46131 /0000 10062 20059 40142 57022 555 84/02 86/25 82/29 91454;
0108033130999992000011216004+53250-003500FM-12+007799999V0209999C000019999999N0041001N1+00581+00551101361ADDMD1710191+9999REMSYN082AAXX  12164 03313 46041 /0000 10058 20055 40136 57019 555 85/01 84/05 86/15 91554;
0102033130999992000011217004+53250-003500FM-12+007799999V0203301N001019999999N0060001N1+00521+00511101381ADDMD1710091+9999REMSYN076AAXX  12174 03313 46056 /3302 10052 20051 40138 57009 555 87/01 82/26 91654;
0142033130999992000011218004+53250-003500FM-12+007799999V0203101N002619999999N0050001N1+00451+00401101391ADDAA112022191KA1120M+00921MD1710031+9999REMSYN092AAXX  12184 03313 16250 /3105 10045 20040 40139 57003 60222 333 10092 555 83/03 87/21 91755;
0108033130999992000011219004+53250-003500FM-12+007799999V0202801N002119999999N0036001N1+00411+00331101411ADDMD1210051+9999REMSYN082AAXX  12194 03313 46236 /2804 10041 20033 40141 52005 555 81/05 83/12 87/18 91854;
0108033130999992000011220004+53250-003500FM-12+007799999V0209999C000019999999N0060001N1+00341+00261101401ADDMD1210021+9999REMSYN082AAXX  12204 03313 46356 /0000 10034 20026 40140 52002 555 86/07 86/15 85/22 91954;
0096033130999992000011221004+53250-003500FM-12+007799999V0203101N002619999999N0080001N1+00331+00251101441ADDMD1210051+9999REMSYN070AAXX  12214 03313 46358 /3105 10033 20025 40144 52005 555 87/09 92055;
0096033130999992000011222004+53250-003500FM-12+007799999V0203301N002119999999N0090001N1+00331+00251101451ADDMD1210041+9999REMSYN070AAXX  12224 03313 46359 /3304 10033 20025 40145 52004 555 88/07 92154;
0096033130999992000011223004+53250-003500FM-12+007799999V0203201N004119999999N0180001N1+00341+00231101461ADDMD1210061+9999REMSYN070AAXX  12234 03313 46368 /3208 10034 20023 40146 52006 555 87/07 92254;
0119033130999992000011300004+53250-003500FM-12+007799999V0203101N003619999999N0110001N1+00351+00221101431ADDAA106007991MD1710011+9999REMSYN082AAXX  13004 03313 16461 /3107 10035 20022 40143 57001 60081 555 84/13 86/17 92354;
0102033130999992000011301004+53250-003500FM-12+007799999V0203001N003119999999N0300001N1+00341+00231101461ADDMD1210011+9999REMSYN076AAXX  13014 03313 46480 /3006 10034 20023 40146 52001 555 86/13 84/24 90054;
0108033130999992000011302004+53250-003500FM-12+007799999V0209999C000019999999N0600001N1+00321+00161101431ADDMD1710031+9999REMSYN082AAXX  13024 03313 46586 /0000 10032 20016 40143 57003 555 81/26 84/42 84/58 90154;
0108033130999992000011303004+53250-003500FM-12+007799999V0209999C000019999999N0500001N1+00341+00181101421ADDMD1710011+9999REMSYN082AAXX  13034 03313 46584 /0000 10034 20018 40142 57001 555 83/22 82/42 85/56 90254;
0102033130999992000011304004+53250-003500FM-12+007799999V0209999C000019999999N0500001N1+00311+00121101431ADDMD1710031+9999REMSYN076AAXX  13044 03313 46584 /0000 10031 20012 40143 57003 555 81/26 85/46 90354;
0096033130999992000011305004+53250-003500FM-12+007799999V0209999C000019999999N0400001N1+00241+00081101451ADDMD1210021+9999REMSYN070AAXX  13054 03313 46682 /0000 10024 20008 40145 52002 555 83/48 90454;
0136033130999992000011306004+53250-003500FM-12+007799999V0209999C000019999999N0350001N1+00151+00061101461ADDAA112007991KA1120N+00151MD1210041+9999REMSYN086AAXX  13064 03313 16981 /0000 10015 20006 40146 52004 60082 333 20015 555 80/99 90555;
0096033130999992000011307004+53250-003500FM-12+007799999V0209999C000019999999N0300001N1+00101-00011101511ADDMD1210081+9999REMSYN070AAXX  13074 03313 46980 /0000 10010 21001 40151 52008 555 80/99 90654;
0102033130999992000011308004+53250-003500FM-12+007799999V0209999C000019999999N0290001N1+00111-00021101591ADDMD1210141+9999REMSYN076AAXX  13084 03313 46479 /0000 10011 21002 40159 52014 555 81/19 81/22 90754;
0118033130999992000011309004+53250-003500FM-12+007799999V0209999C000019999999N0270001N1+00091-00021101631ADDIA2999-00309MD1210171+9999REMSYN080AAXX  13094 03313 46477 /0000 10009 21002 40163 52017 333 3/103 555 81/19 90856;
0096033130999992000011310004+53250-003500FM-12+007799999V0209999C000019999999N0300001N1+00341+00101101671ADDMD1210161+9999REMSYN070AAXX  13104 03313 46580 /0000 10034 20010 40167 52016 555 81/21 90954;
0096033130999992000011311004+53250-003500FM-12+007799999V0209999C000019999999N0240001N1+00461+00201101701ADDMD1210111+9999REMSYN070AAXX  13114 03313 46574 /0000 10046 20020 40170 52011 555 85/24 91054;
0132033130999992000011312004+53250-003500FM-12+007799999V0202901N003619999999N0400001N1+00561+00131101691ADDAA106000091MD1210061+9999REMSYN076AAXX  13124 03313 36582 /2907 10056 20013 40169 52006 555 81/27 82/39 91155;EQDQ01  00002PRCP06
0096033130999992000011313004+53250-003500FM-12+007799999V0202901N003619999999N0350001N1+00571+00141101661ADDMD1710011+9999REMSYN070AAXX  13134 03313 46581 /2907 10057 20014 40166 57001 555 86/24 91254;
0108033130999992000011314004+53250-003500FM-12+007799999V0202501N003619999999N0290001N1+00471+00221101611ADDMD1710091+9999REMSYN082AAXX  13144 03313 46479 /2507 10047 20022 40161 57009 555 81/15 85/20 81/50 91354;
0108033130999992000011315004+53250-003500FM-12+007799999V0203001N004619999999N0270001N1+00571+00331101581ADDMD1710111+9999REMSYN082AAXX  13154 03313 46477 /3009 10057 20033 40158 57011 555 82/15 82/35 86/40 91454;
0108033130999992000011316004+53250-003500FM-12+007799999V0202501N001519999999N0400001N1+00431+00201101591ADDMD1710071+9999REMSYN082AAXX  13164 03313 46482 /2503 10043 20020 40159 57007 555 81/13 81/44 84/56 91554;
0108033130999992000011317004+53250-003500FM-12+007799999V0202301N001019999999N0350001N1+00371+00211101641ADDMD1210031+9999REMSYN082AAXX  13174 03313 46481 /2302 10037 20021 40164 52003 555 81/15 85/28 82/50 91654;
0136033130999992000011318004+53250-003500FM-12+007799999V0209999C000019999999N0070001N1+00291+00211101721ADDAA112002091KA1120M+00621MD1210141+9999REMSYN086AAXX  13184 03313 16457 /0000 10029 20021 40172 52014 60022 333 10062 555 87/13 91755;
0102033130999992000011319004+53250-003500FM-12+007799999V0209999C000019999999N0050001N1+00241+00181101791ADDMD1210201+9999REMSYN076AAXX  13194 03313 46450 /0000 10024 20018 40179 52020 555 87/12 84/26 91854;
0112033130999992000011320004+53250-003500FM-12+007799999V0209999C000019999999N0220001N1+00251+00221101911ADDMD1210271+9999REMSYN086    AAXX  13204 03313 46372 /0000 10025 20022 40191 52027 555 85/08 81/27 82/43 91954;
0112033130999992000011321004+53250-003500FM-12+007799999V0200501N004119999999N0180001N1+00331+00091102051ADDMD1210331+9999REMSYN086    AAXX  13214 03313 46368 /0508 10033 20009 40205 52033 555 81/07 85/20 84/43 92055;
0100033130999992000011322004+53250-003500FM-12+007799999V0209999C000019999999N0220001N1+00221+00051102161ADDMD1210371+9999REMSYN074    AAXX  13224 03313 46772 /0000 10022 20005 40216 52037 555 82/50 92154;
0106033130999992000011323004+53250-003500FM-12+007799999V0209999C000019999999N0260001N1+00171+00001102241ADDMD1210331+9999REMSYN080    AAXX  13234 03313 46676 /0000 10017 20000 40224 52033 555 84/31 81/43 92254;
0123033130999992000011400004+53250-003500FM-12+007799999V0203501N002119999999N0270001N1+00391+00161102271ADDAA106000591MD1210221+9999REMSYN086    AAXX  14004 03313 16577 /3504 10039 20016 40227 52022 69961 555 85/24 86/31 92354;
0112033130999992000011401004+53250-003500FM-12+007799999V0200101N003119999999N0180001N1+00411+00151102311ADDMD1210151+9999REMSYN086    AAXX  14014 03313 46468 /0106 10041 20015 40231 52015 555 82/16 82/20 87/23 90054;
0100033130999992000011402004+53250-003500FM-12+007799999V0203501N003119999999N0260001N1+00421+00191102351ADDMD1210111+9999REMSYN074    AAXX  14024 03313 46476 /3506 10042 20019 40235 52011 555 87/13 90154;
0106033130999992000011403004+53250-003500FM-12+007799999V0203501N002119999999N0300001N1+00411+00121102431ADDMD1210161+9999REMSYN080    AAXX  14034 03313 46480 /3504 10041 20012 40243 52016 555 83/19 86/24 90254;
0106033130999992000011404004+53250-003500FM-12+007799999V0203501N003119999999N0300001N1+00431+00091102451ADDMD1210141+9999REMSYN080    AAXX  14044 03313 46480 /3506 10043 20009 40245 52014 555 87/18 83/41 90354;
0140033130999992000011406004+53250-003500FM-12+007799999V0203501N003119999999N0300001N1+00451+00141102591ADDAA112000591KA1120N+00121MD1210161+9999REMSYN090    AAXX  14064 03313 16580 /3506 10045 20014 40259 52016 69962 333 20012 555 87/27 90555;
0100033130999992000011407004+53250-003500FM-12+007799999V0203601N003119999999N0300001N1+00461+00151102661ADDMD1210211+9999REMSYN074    AAXX  14074 03313 46680 /3606 10046 20015 40266 52021 555 87/33 90654;
0106033130999992000011408004+53250-003500FM-12+007799999V0203601N003619999999N0270001N1+00481+00171102701ADDMD1210171+9999REMSYN080    AAXX  14084 03313 46577 /3607 10048 20017 40270 52017 555 83/21 87/32 90754;
0134033130999992000011409004+53250-003500FM-12+007799999V0200101N004119999999N0350001N1+00441+00041102821ADDIA2999-00409MD1210231+9999REMSYN096    AAXX  14094 03313 46581 /0108 10044 20004 40282 52023 333 3/104 555 81/24 84/32 82/59 90856;
0106033130999992000011410004+53250-003500FM-12+007799999V0200201N003119999999N0300001N1+00451+00001102861ADDMD1210201+9999REMSYN080    AAXX  14104 03313 46580 /0206 10045 20000 40286 52020 555 84/25 87/35 90954;
0100033130999992000011411004+53250-003500FM-12+007799999V0200101N003119999999N0270001N1+00461+00011102891ADDMD1210191+9999REMSYN074    AAXX  14114 03313 46577 /0106 10046 20001 40289 52019 555 87/24 91054;
0136033130999992000011412004+53250-003500FM-12+007799999V0203601N003619999999N0300001N1+00471-00031102921ADDAA199000091MD1210101+9999REMSYN080    AAXX  14124 03313 36580 /3607 10047 21003 40292 52010 555 83/26 84/35 91154;EQDQ01  00002PRCP99
0112033130999992000011413004+53250-003500FM-12+007799999V0203401N003619999999N0250001N1+00471+00081102901ADDMD1210041+9999REMSYN086    AAXX  14134 03313 46575 /3407 10047 20008 40290 52004 555 81/26 86/36 82/41 91254;
0100033130999992000011414004+53250-003500FM-12+007799999V0203401N004119999999N0240001N1+00471+00111102931ADDMD1210041+9999REMSYN074    AAXX  14144 03313 46574 /3408 10047 20011 40293 52004 555 87/23 91354;
0112033130999992000011415004+53250-003500FM-12+007799999V0203501N004119999999N0230001N1+00481+00151102951ADDMD1210031+9999REMSYN086    AAXX  14154 03313 46573 /3508 10048 20015 40295 52003 555 84/27 85/32 84/39 91454;
0112033130999992000011416004+53250-003500FM-12+007799999V0203601N004119999999N0260001N1+00511+00071103021ADDMD1210121+9999REMSYN086    AAXX  14164 03313 46576 /3608 10051 20007 40302 52012 555 81/26 85/31 86/39 91554;
0112033130999992000011417004+53250-003500FM-12+007799999V0200101N004119999999N0240001N1+00501+00031103111ADDMD1210181+9999REMSYN086    AAXX  14174 03313 46574 /0108 10050 20003 40311 52018 555 81/25 84/34 86/43 91654;
0153033130999992000011418004+53250-003500FM-12+007799999V0203601N004119999999N0240001N1+00491-00041103181ADDAA199000091KA1120M+00511MD1210231+9999REMSYN084    AAXX  14184 03313 36574 /3608 10049 21004 40318 52023 333 10051 555 87/27 91755;EQDQ01  00002PRCP99
0106033130999992000011419004+53250-003500FM-12+007799999V0200201N003619999999N0250001N1+00471+00001103281ADDMD1210261+9999REMSYN080    AAXX  14194 03313 46575 /0207 10047 20000 40328 52026 555 87/25 85/33 91854;
0100033130999992000011420004+53250-003500FM-12+007799999V0200201N004119999999N0240001N1+00461-00071103341ADDMD1210231+9999REMSYN074    AAXX  14204 03313 46574 /0208 10046 21007 40334 52023 555 87/28 91954;
0112033130999992000011421004+53250-003500FM-12+007799999V0203601N003119999999N0240001N1+00421-00031103401ADDMD1210221+9999REMSYN086    AAXX  14214 03313 46574 /3606 10042 21003 40340 52022 555 81/27 85/32 83/50 92055;
0106033130999992000011422004+53250-003500FM-12+007799999V0203601N003119999999N0260001N1+00421+00001103471ADDMD1210191+9999REMSYN080    AAXX  14224 03313 46576 /3606 10042 20000 40347 52019 555 87/29 84/50 92154;
0100033130999992000011423004+53250-003500FM-12+007799999V0203401N002119999999N0280001N1+00411-00041103501ADDMD1210161+9999REMSYN074    AAXX  14234 03313 46578 /3404 10041 21004 40350 52016 555 88/26 92254;
0130033130999992000011500004+53250-003500FM-12+007799999V0203601N003119999999N0300001N1+00411-00041103531ADDAA199000091MD1210131+9999REMSYN074    AAXX  15004 03313 36580 /3606 10041 21004 40353 52013 555 88/23 92354;EQDQ01  00002PRCP99
0106033130999992000011501004+53250-003500FM-12+007799999V0200101N003119999999N0260001N1+00401+00031103581ADDMD1210111+9999REMSYN080    AAXX  15014 03313 46576 /0106 10040 20003 40358 52011 555 81/21 87/25 90054;
0100033130999992000011502004+53250-003500FM-12+007799999V0200301N004619999999N0270001N1+00421+00001103651ADDMD1210151+9999REMSYN074    AAXX  15024 03313 46577 /0309 10042 20000 40365 52015 555 87/23 90154;
0106033130999992000011503004+53250-003500FM-12+007799999V0200401N006219999999N0260001N1+00411+00011103671ADDMD1210141+9999REMSYN080    AAXX  15034 03313 46576 /0412 10041 20001 40367 52014 555 87/22 83/50 90254;
0112033130999992000011504004+53250-003500FM-12+007799999V0200401N005119999999N0260001N1+00381+00031103721ADDMD1210141+9999REMSYN086    AAXX  15044 03313 46576 /0410 10038 20003 40372 52014 555 84/20 84/33 86/56 90354;
0106033130999992000011505004+53250-003500FM-12+007799999V0200401N004119999999N0280001N1+00361+00071103741ADDMD1210091+9999REMSYN080    AAXX  15054 03313 46478 /0408 10036 20007 40374 52009 555 81/19 87/50 90454;
0153033130999992000011506004+53250-003500FM-12+007799999V0200301N003119999999N0290001N1+00351+00081103811ADDAA199000091KA1120N+00331MD1210141+9999REMSYN084    AAXX  15064 03313 36679 /0306 10035 20008 40381 52014 333 20033 555 88/49 90555;EQDQ01  00002PRCP99
0100033130999992000011507004+53250-003500FM-12+007799999V0200401N002619999999N0280001N1+00271+00081103871ADDMD1210151+9999REMSYN074    AAXX  15074 03313 46778 /0405 10027 20008 40387 52015 555 82/50 90654;
0100033130999992000011508004+53250-003500FM-12+007799999V0200401N001519999999N0250001N1+00251+00111103931ADDMD1210191+9999REMSYN074    AAXX  15084 03313 46775 /0403 10025 20011 40393 52019 555 81/50 90754;
0134033130999992000011509004+53250-003500FM-12+007799999V0200201N001019999999N0270001N1+00301+00081104031ADDIA2999-00209MD1210221+9999REMSYN096    AAXX  15094 03313 46577 /0202 10030 20008 40403 52022 333 3/102 555 81/23 81/30 86/37 90856;
0100033130999992000011510004+53250-003500FM-12+007799999V0200301N002619999999N0300001N1+00391+00071104121ADDMD1210251+9999REMSYN074    AAXX  15104 03313 46680 /0305 10039 20007 40412 52025 555 88/43 90954;
0106033130999992000011511004+53250-003500FM-12+007799999V0200301N003119999999N0220001N1+00421+00051104181ADDMD1210251+9999REMSYN080    AAXX  15114 03313 46572 /0306 10042 20005 40418 52025 555 82/29 81/50 91054;
0130033130999992000011512004+53250-003500FM-12+007799999V0200401N002119999999N0260001N1+00511+00041104201ADDAA199000091MD1210171+9999REMSYN074    AAXX  15124 03313 36976 /0404 10051 20004 40420 52017 555 80/99 91154;EQDQ01  00002PRCP99
0100033130999992000011513004+53250-003500FM-12+007799999V0200501N001519999999N0300001N1+00551+00061104201ADDMD1210081+9999REMSYN074    AAXX  15134 03313 46980 /0503 10055 20006 40420 52008 555 80/99 91254;
0100033130999992000011514004+53250-003500FM-12+007799999V0200401N003119999999N0280001N1+00521+00081104191ADDMD1210011+9999REMSYN074    AAXX  15144 03313 46978 /0406 10052 20008 40419 52001 555 80/99 91354;
0100033130999992000011515004+53250-003500FM-12+007799999V0200401N003119999999N0250001N1+00461+00041104211ADDMD1210011+9999REMSYN074    AAXX  15154 03313 46975 /0406 10046 20004 40421 52001 555 80/99 91454;
0100033130999992000011516004+53250-003500FM-12+007799999V0209999C000019999999N0280001N1+00361+00091104251ADDMD1210051+9999REMSYN074    AAXX  15164 03313 46978 /0000 10036 20009 40425 52005 555 80/99 91554;
0100033130999992000011517004+53250-003500FM-12+007799999V0209999C000019999999N0210001N1+00181-00011104261ADDMD1210071+9999REMSYN074    AAXX  15174 03313 46971 /0000 10018 21001 40426 52007 555 80/99 91654;
0153033130999992000011518004+53250-003500FM-12+007799999V0209999C000019999999N0180001N1+00131+00001104291ADDAA199000091KA1120M+00551MD1210081+9999REMSYN084    AAXX  15184 03313 36968 /0000 10013 20000 40429 52008 333 10055 555 80/99 91755;EQDQ01  00002PRCP99
0100033130999992000011519004+53250-003500FM-12+007799999V0209999C000019999999N0100001N1+00071-00041104291ADDMD1210041+9999REMSYN074    AAXX  15194 03313 46960 /0000 10007 21004 40429 52004 555 80/99 91854;
0100033130999992000011520004+53250-003500FM-12+007799999V0209999C000019999999N0100001N1+00031-00051104301ADDMD1210041+9999REMSYN074    AAXX  15204 03313 46960 /0000 10003 21005 40430 52004 555 80/99 91954;
0100033130999992000011521004+53250-003500FM-12+007799999V0202101N002119999999N0100001N1+00051-00091104291ADDMD1410001+9999REMSYN074    AAXX  15214 03313 46960 /2104 10005 21009 40429 54000 555 80/99 92055;
0100033130999992000011522004+53250-003500FM-12+007799999V0202201N002619999999N0110001N1+00031-00081104331ADDMD1210041+9999REMSYN074    AAXX  15224 03313 46961 /2205 10003 21008 40433 52004 555 80/99 92154;
0100033130999992000011523004+53250-003500FM-12+007799999V0209999C000019999999N0110001N1+00021-00121104361ADDMD1210061+9999REMSYN074    AAXX  15234 03313 46561 /0000 10002 21012 40436 52006 555 81/25 92254;
0136033130999992000011600004+53250-003500FM-12+007799999V0209999C000019999999N0110001N1+00031-00051104371ADDAA199000091MD1210081+9999REMSYN080    AAXX  16004 03313 36561 /0000 10003 21005 40437 52008 555 83/24 85/29 92354;EQDQ01  00002PRCP99
0100033130999992000011601004+53250-003500FM-12+007799999V0209999C000019999999N0150001N1+00171+00031104361ADDMD1210031+9999REMSYN074    AAXX  16014 03313 46565 /0000 10017 20003 40436 52003 555 87/22 90054;
0100033130999992000011602004+53250-003500FM-12+007799999V0209999C000019999999N0230001N1+00211+00021104321ADDMD1710041+9999REMSYN074    AAXX  16024 03313 46573 /0000 10021 20002 40432 57004 555 88/24 90154;
0100033130999992000011603004+53250-003500FM-12+007799999V0209999C000019999999N0280001N1+00231+00091104291ADDMD1710081+9999REMSYN074    AAXX  16034 03313 46578 /0000 10023 20009 40429 57008 555 88/23 90254;
0100033130999992000011604004+53250-003500FM-12+007799999V0209999C000019999999N0210001N1+00251+00091104221ADDMD1710141+9999REMSYN074    AAXX  16044 03313 46571 /0000 10025 20009 40422 57014 555 88/24 90354;
0100033130999992000011605004+53250-003500FM-12+007799999V0209999C000019999999N0160001N1+00261+00121104251ADDMD1710071+9999REMSYN074    AAXX  16054 03313 46566 /0000 10026 20012 40425 57007 555 88/20 90454;
0140033130999992000011606004+53250-003500FM-12+007799999V0209999C000019999999N0300001N1+00351+00141104261ADDAA112000191KA1120N-00061MD1710031+9999REMSYN090    AAXX  16064 03313 16480 /0000 10035 20014 40426 57003 69922 333 21006 555 88/17 90555;
0100033130999992000011607004+53250-003500FM-12+007799999V0203001N001019999999N0260001N1+00371+00191104221ADDMD1410001+9999REMSYN074    AAXX  16074 03313 46576 /3002 10037 20019 40422 54000 555 88/21 90654;
0100033130999992000011608004+53250-003500FM-12+007799999V0203101N002119999999N0450001N1+00461+00261104201ADDMD1710051+9999REMSYN074    AAXX  16084 03313 46583 /3104 10046 20026 40420 57005 555 88/20 90754;
0122033130999992000011609004+53250-003500FM-12+007799999V0203001N002619999999N0400001N1+00521+00301104201ADDIA2999-00609MD1710061+9999REMSYN084    AAXX  16094 03313 46582 /3005 10052 20030 40420 57006 333 3/106 555 88/21 90856;
0094033130999992000011613004+53250-003500FM-12+007799999V0203301N003119999999N9999999N1+00571+00541104211ADDMD1710011+9999REMSYN068    AAXX  16134 03313 46/// /3306 10057 20054 40421 57001 555 91254;
0100033130999992000011614004+53250-003500FM-12+007799999V0203101N002619999999N0038001N1+00601+00571104121ADDMD1710121+9999REMSYN074    AAXX  16144 03313 46138 /3105 10060 20057 40412 57012 555 81/02 91354;
0100033130999992000011615004+53250-003500FM-12+007799999V0203101N002119999999N0110001N1+00621+00591104101ADDMD1710111+9999REMSYN074    AAXX  16154 03313 46061 /3104 10062 20059 40410 57011 555 87/01 91454;
0100033130999992000011616004+53250-003500FM-12+007799999V0203201N003619999999N0070001N1+00621+00611104101ADDMD1710111+9999REMSYN074    AAXX  16164 03313 46057 /3207 10062 20061 40410 57011 555 87/01 91554;
0106033130999992000011617004+53250-003500FM-12+007799999V0203101N003619999999N0046001N1+00641+00631104111ADDMD1710011+9999REMSYN080    AAXX  16174 03313 46046 /3107 10064 20063 40411 57001 555 85/00 87/13 91654;
0146033130999992000011618004+53250-003500FM-12+007799999V0203201N003619999999N0140001N1+00651+00601104081ADDAA112000191KA1120M+00661MD1710021+9999REMSYN096    AAXX  16184 03313 16064 /3207 10065 20060 40408 57002 69922 333 10066 555 81/01 88/13 91755;
0100033130999992000011619004+53250-003500FM-12+007799999V0203001N003119999999N0270001N1+00661+00571104101ADDMD1410001+9999REMSYN074    AAXX  16194 03313 46477 /3006 10066 20057 40410 54000 555 88/14 91854;
0100033130999992000011620004+53250-003500FM-12+007799999V0203001N002619999999N0300001N1+00671+00551104091ADDMD1710021+9999REMSYN074    AAXX  16204 03313 46480 /3005 10067 20055 40409 57002 555 88/14 91954;
0100033130999992000011621004+53250-003500FM-12+007799999V0203101N002619999999N0350001N1+00701+00561104091ADDMD1210011+9999REMSYN074    AAXX  16214 03313 46381 /3105 10070 20056 40409 52001 555 88/08 92055;
0100033130999992000011622004+53250-003500FM-12+007799999V0203201N003119999999N0350001N1+00681+00591104101ADDMD1410001+9999REMSYN074    AAXX  16224 03313 46381 /3206 10068 20059 40410 54000 555 88/08 92154;
0100033130999992000011623004+53250-003500FM-12+007799999V0203001N002119999999N0300001N1+00661+00571104121ADDMD1210031+9999REMSYN074    AAXX  16234 03313 46380 /3004 10066 20057 40412 52003 555 88/08 92254;
0136033130999992000011700004+53250-003500FM-12+007799999V0203201N001519999999N0300001N1+00651+00561104121ADDAA199000091MD1210031+9999REMSYN080    AAXX  17004 03313 36380 /3203 10065 20056 40412 52003 555 86/08 88/17 92354;EQDQ01  00002PRCP99
0100033130999992000011701004+53250-003500FM-12+007799999V0209999C000019999999N0300001N1+00621+00521104061ADDMD1710041+9999REMSYN074    AAXX  17014 03313 46380 /0000 10062 20052 40406 57004 555 87/07 90054;
0100033130999992000011702004+53250-003500FM-12+007799999V0209999C000019999999N0220001N1+00591+00491104051ADDMD1710071+9999REMSYN074    AAXX  17024 03313 46372 /0000 10059 20049 40405 57007 555 87/06 90154;
0100033130999992000011703004+53250-003500FM-12+007799999V0209999C000019999999N0240001N1+00471+00391104031ADDMD1710091+9999REMSYN074    AAXX  17034 03313 46474 /0000 10047 20039 40403 57009 555 81/13 90254;
0100033130999992000011704004+53250-003500FM-12+007799999V0202801N003119999999N0240001N1+00631+00511104031ADDMD1710031+9999REMSYN074    AAXX  17044 03313 46374 /2806 10063 20051 40403 57003 555 87/08 90354;
0100033130999992000011705004+53250-003500FM-12+007799999V0202901N005719999999N0300001N1+00671+00511104001ADDMD1710051+9999REMSYN074    AAXX  17054 03313 46380 /2911 10067 20051 40400 57005 555 88/09 90454;
0153033130999992000011706004+53250-003500FM-12+007799999V0203001N003619999999N0250001N1+00671+00531103991ADDAA199000091KA1120N+00471MD1710041+9999REMSYN084    AAXX  17064 03313 36375 /3007 10067 20053 40399 57004 333 20047 555 88/09 90555;EQDQ01  00002PRCP99
0100033130999992000011707004+53250-003500FM-12+007799999V0203001N004119999999N0300001N1+00711+00571103991ADDMD1710041+9999REMSYN074    AAXX  17074 03313 46380 /3008 10071 20057 40399 57004 555 88/09 90654;
0100033130999992000011708004+53250-003500FM-12+007799999V0203001N004619999999N0300001N1+00721+00561103971ADDMD1710031+9999REMSYN074    AAXX  17084 03313 46380 /3009 10072 20056 40397 57003 555 88/09 90755;
0122033130999992000011709004+53250-003500FM-12+007799999V0203001N004619999999N0290001N1+00711+00551104011ADDIA2999+00109MD1210021+9999REMSYN084    AAXX  17094 03313 46379 /3009 10071 20055 40401 52002 333 3/001 555 88/09 90856;
0100033130999992000011710004+53250-003500FM-12+007799999V0203001N006219999999N0260001N1+00711+00551103991ADDMD1410001+9999REMSYN074    AAXX  17104 03313 46476 /3012 10071 20055 40399 54000 555 88/10 90954;
0100033130999992000011711004+53250-003500FM-12+007799999V0203001N005119999999N0270001N1+00741+00581104021ADDMD1210051+9999REMSYN074    AAXX  17114 03313 46377 /3010 10074 20058 40402 52005 555 88/09 91054;
0130033130999992000011712004+53250-003500FM-12+007799999V0203001N004619999999N0220001N1+00741+00581103991ADDAA199000091MD1710021+9999REMSYN074    AAXX  17124 03313 36372 /3009 10074 20058 40399 57002 555 88/08 91155;EQDQ01  00002PRCP99
0100033130999992000011713004+53250-003500FM-12+007799999V0203001N006219999999N0260001N1+00771+00571103961ADDMD1710031+9999REMSYN074    AAXX  17134 03313 46376 /3012 10077 20057 40396 57003 555 88/09 91254;
0100033130999992000011714004+53250-003500FM-12+007799999V0203001N004619999999N0270001N1+00801+00571103911ADDMD1710111+9999REMSYN074    AAXX  17144 03313 46477 /3009 10080 20057 40391 57011 555 87/10 91354;
0100033130999992000011715004+53250-003500FM-12+007799999V0202901N005119999999N0300001N1+00781+00581103881ADDMD1710111+9999REMSYN074    AAXX  17154 03313 46380 /2910 10078 20058 40388 57011 555 88/09 91454;
0100033130999992000011717004+53250-003500FM-12+007799999V0202901N004119999999N0230001N1+00721+00581103881ADDMD1710031+9999REMSYN074    AAXX  17174 03313 46373 /2908 10072 20058 40388 57003 555 88/08 91654;
0159033130999992000011718004+53250-003500FM-12+007799999V0203201N002619999999N0230001N1+00721+00601103921ADDAA199000091KA1120M+00811MD1210041+9999REMSYN090    AAXX  17184 03313 36373 /3205 10072 20060 40392 52004 333 10081 555 87/07 86/13 91755;EQDQ01  00002PRCP99
0106033130999992000011719004+53250-003500FM-12+007799999V0203001N002619999999N0200001N1+00691+00601103891ADDMD1710021+9999REMSYN080    AAXX  17194 03313 46470 /3005 10069 20060 40389 57002 555 83/11 87/17 91854;
0100033130999992000011720004+53250-003500FM-12+007799999V0203101N002119999999N0240001N1+00691+00571103881ADDMD1410001+9999REMSYN074    AAXX  17204 03313 46474 /3104 10069 20057 40388 54000 555 88/11 91955;
0100033130999992000011721004+53250-003500FM-12+007799999V0203001N003119999999N0300001N1+00701+00561103861ADDMD1710061+9999REMSYN074    AAXX  17214 03313 46480 /3006 10070 20056 40386 57006 555 88/11 92055;
0100033130999992000011722004+53250-003500FM-12+007799999V0203101N001019999999N0350001N1+00721+00541103871ADDMD1710021+9999REMSYN074    AAXX  17224 03313 46481 /3102 10072 20054 40387 57002 555 87/10 92154;
0100033130999992000011723004+53250-003500FM-12+007799999V0203101N002619999999N0200001N1+00641+00541103871ADDMD1710011+9999REMSYN074    AAXX  17234 03313 46370 /3105 10064 20054 40387 57001 555 87/08 92254;
0136033130999992000011800004+53250-003500FM-12+007799999V0203101N003119999999N0150001N1+00591+00541103891ADDAA199000091MD1210031+9999REMSYN080    AAXX  18004 03313 36165 /3106 10059 20054 40389 52003 555 85/02 84/11 92357;EQDQ01  00002PRCP99
0100033130999992000011801004+53250-003500FM-12+007799999V0203001N002619999999N0180001N1+00591+00541103891ADDMD1210021+9999REMSYN074    AAXX  18014 03313 46268 /3005 10059 20054 40389 52002 555 85/04 90054;
0100033130999992000011802004+53250-003500FM-12+007799999V0209999C000019999999N0200001N1+00571+00501103881ADDMD1210011+9999REMSYN074    AAXX  18024 03313 46370 /0000 10057 20050 40388 52001 555 87/06 90154;
0100033130999992000011803004+53250-003500FM-12+007799999V0203101N002119999999N0250001N1+00681+00611103841ADDMD1710051+9999REMSYN074    AAXX  18034 03313 46375 /3104 10068 20061 40384 57005 555 88/06 90254;
0100033130999992000011804004+53250-003500FM-12+007799999V0209999C000019999999N0260001N1+00701+00581103801ADDMD1710091+9999REMSYN074    AAXX  18044 03313 46376 /0000 10070 20058 40380 57009 555 88/06 90354;
0100033130999992000011805004+53250-003500FM-12+007799999V0202901N003119999999N0047001N1+00671+00621103771ADDMD1710111+9999REMSYN074    AAXX  18054 03313 46047 /2906 10067 20062 40377 57011 555 88/01 90454;
0153033130999992000011806004+53250-003500FM-12+007799999V0209999C000019999999N0009001N1+00671+00661103781ADDAA199000091KA1120N+00541MD1710061+9999REMSYN084    AAXX  18064 03313 36009 /0000 10067 20066 40378 57006 333 20054 555 88/00 90555;EQDQ01  00002PRCP99
0100033130999992000011807004+53250-003500FM-12+007799999V0209999C000019999999N0001001N1+00601+00591103771ADDMD1710031+9999REMSYN074    AAXX  18074 03313 46001 /0000 10060 20059 40377 57003 555 88/00 90655;
0100033130999992000011808004+53250-003500FM-12+007799999V0203401N001519999999N0001001N1+00621+00611103811ADDMD1210041+9999REMSYN074    AAXX  18084 03313 46001 /3403 10062 20061 40381 52004 555 88/00 90754;
0122033130999992000011809004+53250-003500FM-12+007799999V0203301N002119999999N0005001N1+00621+00611103841ADDIA2999+00109MD1210061+9999REMSYN084    AAXX  18094 03313 46005 /3304 10062 20061 40384 52006 333 3/001 555 88/00 90856;
0106033130999992000011810004+53250-003500FM-12+007799999V0203201N002119999999N0042001N1+00631+00621103871ADDMD1210101+9999REMSYN080    AAXX  18104 03313 46042 /3204 10063 20062 40387 52010 555 84/00 81/04 90954;
0100033130999992000011811004+53250-003500FM-12+007799999V0203301N002619999999N0012001N1+00621+00611103881ADDMD1210071+9999REMSYN074    AAXX  18114 03313 46912 /3305 10062 20061 40388 52007 555 80/99 91054;
0117033130999992000011812004+53250-003500FM-12+007799999V0203201N003119999999N0060001N1+00651+00641103871ADDAA106000591MD1210031+9999REMSYN080    AAXX  18124 03313 16056 /3206 10065 20064 40387 52003 69961 555 87/01 91154;
0100033130999992000011813004+53250-003500FM-12+007799999V0203201N002119999999N0013001N1+00651+00641103831ADDMD1710041+9999REMSYN074    AAXX  18134 03313 46013 /3204 10065 20064 40383 57004 555 82/01 91254;
0100033130999992000011814004+53250-003500FM-12+007799999V0203101N002619999999N0022001N1+00641+00631103791ADDMD1710091+9999REMSYN074    AAXX  18144 03313 46922 /3105 10064 20063 40379 57009 555 80/99 91354;
0100033130999992000011815004+53250-003500FM-12+007799999V0203201N002119999999N0060001N1+00621+00591103781ADDMD1710091+9999REMSYN074    AAXX  18154 03313 46056 /3204 10062 20059 40378 57009 555 83/01 91454;
0100033130999992000011816004+53250-003500FM-12+007799999V0209999C000019999999N0080001N1+00601+00591103791ADDMD1710041+9999REMSYN074    AAXX  18164 03313 46058 /0000 10060 20059 40379 57004 555 87/01 91554;
0100033130999992000011817004+53250-003500FM-12+007799999V0209999C000019999999N0090001N1+00581+00551103811ADDMD1210021+9999REMSYN074    AAXX  18174 03313 46059 /0000 10058 20055 40381 52002 555 88/01 91654;
0140033130999992000011818004+53250-003500FM-12+007799999V0209999C000019999999N0100001N1+00571+00541103811ADDAA112001091KA1120M+00671MD1210031+9999REMSYN090    AAXX  18184 03313 16160 /0000 10057 20054 40381 52003 60012 333 10067 555 88/02 91755;
0100033130999992000011819004+53250-003500FM-12+007799999V0209999C000019999999N0090001N1+00571+00541103841ADDMD1210051+9999REMSYN074    AAXX  18194 03313 46259 /0000 10057 20054 40384 52005 555 88/03 91854;
0100033130999992000011820004+53250-003500FM-12+007799999V0209999C000019999999N0120001N1+00571+00561103831ADDMD1210021+9999REMSYN074    AAXX  18204 03313 46262 /0000 10057 20056 40383 52002 555 88/05 91954;
0100033130999992000011821004+53250-003500FM-12+007799999V0209999C000019999999N0100001N1+00581+00571103841ADDMD1210031+9999REMSYN074    AAXX  18214 03313 46260 /0000 10058 20057 40384 52003 555 87/03 92055;
0100033130999992000011822004+53250-003500FM-12+007799999V0209999C000019999999N0050001N1+00581+00551103801ADDMD1710041+9999REMSYN074    AAXX  18224 03313 46150 /0000 10058 20055 40380 57004 555 88/02 92154;
0106033130999992000011823004+53250-003500FM-12+007799999V0209999C000019999999N0060001N1+00571+00541103811ADDMD1710021+9999REMSYN080    AAXX  18234 03313 46156 /0000 10057 20054 40381 57002 555 83/02 88/08 92254;
0123033130999992000011900004+53250-003500FM-12+007799999V0209999C000019999999N0100001N1+00571+00521103801ADDAA106000191MD1710041+9999REMSYN086    AAXX  19004 03313 16360 /0000 10057 20052 40380 57004 69921 555 81/09 88/11 92354;
0106033130999992000011901004+53250-003500FM-12+007799999V0209999C000019999999N0070001N1+00561+00511103841ADDMD1210041+9999REMSYN080    AAXX  19014 03313 46457 /0000 10056 20051 40384 52004 555 81/11 88/14 90054;
0100033130999992000011902004+53250-003500FM-12+007799999V0209999C000019999999N0080001N1+00561+00511103811ADDMD1410001+9999REMSYN074    AAXX  19024 03313 46458 /0000 10056 20051 40381 54000 555 88/16 90154;
0100033130999992000011903004+53250-003500FM-12+007799999V0209999C000019999999N0110001N1+00561+00511103801ADDMD1410001+9999REMSYN074    AAXX  19034 03313 46561 /0000 10056 20051 40380 54000 555 88/20 90254;
0100033130999992000011904004+53250-003500FM-12+007799999V0209999C000019999999N0160001N1+00571+00471103801ADDMD1710041+9999REMSYN074    AAXX  19044 03313 46466 /0000 10057 20047 40380 57004 555 88/18 90354;
0100033130999992000011905004+53250-003500FM-12+007799999V0209999C000019999999N0220001N1+00571+00451103801ADDMD1710011+9999REMSYN074    AAXX  19054 03313 46572 /0000 10057 20045 40380 57001 555 88/23 90454;
0152033130999992000011906004+53250-003500FM-12+007799999V0209999C000019999999N0070001N1+00551+00501103831ADDAA112000191KA1120N+00551MD1210031+9999REMSYN102    AAXX  19064 03313 16357 /0000 10055 20050 40383 52003 69922 333 20055 555 81/09 86/12 86/23 90555;
0112033130999992000011907004+53250-003500FM-12+007799999V0209999C000019999999N0060001N1+00531+00501103841ADDMD1210041+9999REMSYN086    AAXX  19074 03313 46156 /0000 10053 20050 40384 52004 555 81/02 86/09 86/22 90654;
0106033130999992000011908004+53250-003500FM-12+007799999V0209999C000019999999N0090001N1+00531+00501103841ADDMD1210041+9999REMSYN080    AAXX  19084 03313 46159 /0000 10053 20050 40384 52004 555 82/02 87/06 90754;
0128033130999992000011909004+53250-003500FM-12+007799999V0209999C000019999999N0120001N1+00531+00481103881ADDIA2999+00509MD1210051+9999REMSYN090    AAXX  19094 03313 46162 /0000 10053 20048 40388 52005 333 3/005 555 86/02 87/12 90856;
0100033130999992000011910004+53250-003500FM-12+007799999V0209999C000019999999N0190001N1+00541+00471103921ADDMD1210081+9999REMSYN074    AAXX  19104 03313 46469 /0000 10054 20047 40392 52008 555 87/11 90954;
0106033130999992000011911004+53250-003500FM-12+007799999V0209999C000019999999N0280001N1+00601+00461103931ADDMD1210091+9999REMSYN080    AAXX  19114 03313 46378 /0000 10060 20046 40393 52009 555 86/09 85/34 91054;
0130033130999992000011912004+53250-003500FM-12+007799999V0209999C000019999999N0190001N1+00691+00481103871ADDAA199000091MD1710011+9999REMSYN074    AAXX  19124 03313 36369 /0000 10069 20048 40387 57001 555 87/08 91154;EQDQ01  00002PRCP99
0100033130999992000011913004+53250-003500FM-12+007799999V0209999C000019999999N0220001N1+00691+00461103881ADDMD1710041+9999REMSYN074    AAXX  19134 03313 46372 /0000 10069 20046 40388 57004 555 81/09 91254;
0100033130999992000011915004+53250-003500FM-12+007799999V0209999C000019999999N0190001N1+00621+00451103871ADDMD1410001+9999REMSYN074    AAXX  19154 03313 46969 /0000 10062 20045 40387 54000 555 80/99 91454;
0096033130999992000011916004+53250-003500FM-12+007799999V0209999C000019999999N0130001N1+00531+00411103851ADDMD1710031+9999REMSYN070AAXX  19164 03313 46963 /0000 10053 20041 40385 57003 555 80/99 91554;
0096033130999992000011917004+53250-003500FM-12+007799999V0209999C000019999999N0060001N1+00371+00321103881ADDMD1210021+9999REMSYN070AAXX  19174 03313 46956 /0000 10037 20032 40388 52002 555 80/99 91654;
0149033130999992000011918004+53250-003500FM-12+007799999V0209999C000019999999N0050001N1+00281+00251103881ADDAA199000091KA1120M+00761MD1210011+9999REMSYN080AAXX  19184 03313 36950 /0000 10028 20025 40388 52001 333 10076 555 80/99 91755;EQDQ01  00002PRCP99
0096033130999992000011919004+53250-003500FM-12+007799999V0209999C000019999999N0060001N1+00331+00281103861ADDMD1210011+9999REMSYN070AAXX  19194 03313 46556 /0000 10033 20028 40386 52001 555 86/29 91854;
0096033130999992000011920004+53250-003500FM-12+007799999V0209999C000019999999N0080001N1+00411+00331103841ADDMD1710041+9999REMSYN070AAXX  19204 03313 46558 /0000 10041 20033 40384 57004 555 87/27 91954;
0096033130999992000011921004+53250-003500FM-12+007799999V0209999C000019999999N0070001N1+00461+00361103841ADDMD1710041+9999REMSYN070AAXX  19214 03313 46557 /0000 10046 20036 40384 57004 555 87/25 92055;
0096033130999992000011922004+53250-003500FM-12+007799999V0209999C000019999999N0080001N1+00481+00351103841ADDMD1710021+9999REMSYN070AAXX  19224 03313 46558 /0000 10048 20035 40384 57002 555 88/24 92154;
0096033130999992000011923004+53250-003500FM-12+007799999V0209999C000019999999N0130001N1+00491+00291103811ADDMD1710031+9999REMSYN070AAXX  19234 03313 46563 /0000 10049 20029 40381 57003 555 88/24 92254;
0120033130999992000012000004+53250-003500FM-12+007799999V0209999C000019999999N9999999N1+00491+00261103721ADDAA199000091MD1710121+9999REMSYN064AAXX  20004 03313 36/// /0000 10049 20026 40372 57012 555 92354;EQDQ01  00002PRCP99
0096033130999992000012001004+53250-003500FM-12+007799999V0209999C000019999999N0150001N1+00511+00211103691ADDMD1710151+9999REMSYN070AAXX  20014 03313 46565 /0000 10051 20021 40369 57015 555 88/22 90054;
0096033130999992000012002004+53250-003500FM-12+007799999V0202201N000519999999N0140001N1+00521+00221103631ADDMD1710181+9999REMSYN070AAXX  20024 03313 46564 /2201 10052 20022 40363 57018 555 88/22 90154;
0096033130999992000012003004+53250-003500FM-12+007799999V0209999C000019999999N0160001N1+00541+00271103581ADDMD1710141+9999REMSYN070AAXX  20034 03313 46566 /0000 10054 20027 40358 57014 555 88/25 90254;
0096033130999992000012004004+53250-003500FM-12+007799999V0209999C000019999999N0110001N1+00551+00251103551ADDMD1710141+9999REMSYN070AAXX  20044 03313 46561 /0000 10055 20025 40355 57014 555 88/25 90354;
0096033130999992000012005004+53250-003500FM-12+007799999V0202701N003119999999N0090001N1+00531+00231103491ADDMD1710141+9999REMSYN070AAXX  20054 03313 46559 /2706 10053 20023 40349 57014 555 87/26 90454;
0149033130999992000012006004+53250-003500FM-12+007799999V0202601N003119999999N0100001N1+00501+00201103441ADDAA199000091KA1120N+00281MD1710141+9999REMSYN080AAXX  20064 03313 36560 /2606 10050 20020 40344 57014 333 20028 555 88/25 90555;EQDQ01  00002PRCP99
0102033130999992000012007004+53250-003500FM-12+007799999V0202601N000519999999N0110001N1+00481+00151103421ADDMD1710131+9999REMSYN076AAXX  20074 03313 46561 /2601 10048 20015 40342 57013 555 87/21 85/27 90654;
0096033130999992000012008004+53250-003500FM-12+007799999V0202701N004119999999N0140001N1+00481+00121103411ADDMD1710081+9999REMSYN070AAXX  20084 03313 46564 /2708 10048 20012 40341 57008 555 88/21 90754;
0118033130999992000012009004+53250-003500FM-12+007799999V0202901N004119999999N0170001N1+00471+00111103431ADDIA2999+00409MD1710011+9999REMSYN080AAXX  20094 03313 46567 /2908 10047 20011 40343 57001 333 3/004 555 88/20 90856;
0096033130999992000012010004+53250-003500FM-12+007799999V0202901N005119999999N0140001N1+00441+00131103461ADDMD1210041+9999REMSYN070AAXX  20104 03313 46464 /2910 10044 20013 40346 52004 555 88/17 90954;
0096033130999992000012011004+53250-003500FM-12+007799999V0202601N004619999999N0100001N1+00421+00131103471ADDMD1210061+9999REMSYN070AAXX  20114 03313 46460 /2609 10042 20013 40347 52006 555 88/17 91054;
0138033130999992000012012004+53250-003500FM-12+007799999V0202601N003619999999N0140001N1+00491+00211103421ADDAA199000091MD1710011+9999REMSYN082AAXX  20124 03313 36464 /2607 10049 20021 40342 57001 555 81/18 82/21 86/38 91154;EQDQ01  00002PRCP99
0102033130999992000012013004+53250-003500FM-12+007799999V0202901N004119999999N0210001N1+00541+00241103401ADDMD1710061+9999REMSYN076AAXX  20134 03313 46571 /2908 10054 20024 40340 57006 555 86/24 82/34 91254;
0102033130999992000012014004+53250-003500FM-12+007799999V0202701N003119999999N0220001N1+00521+00321103331ADDMD1710141+9999REMSYN076AAXX  20144 03313 46472 /2706 10052 20032 40333 57014 555 81/10 87/12 91354;
0096033130999992000012015004+53250-003500FM-12+007799999V0202701N003119999999N0035001N1+00511+00411103321ADDMD1710101+9999REMSYN070AAXX  20154 03313 46335 /2706 10051 20041 40332 57010 555 87/06 91454;
0108033130999992000012016004+53250-003500FM-12+007799999V0203001N003119999999N0170001N1+00511+00461103341ADDMD1710061+9999REMSYN082AAXX  20164 03313 46167 /3006 10051 20046 40334 57006 555 86/02 82/19 83/33 91554;
0102033130999992000012017004+53250-003500FM-12+007799999V0203001N003119999999N0080001N1+00551+00521103381ADDMD1210051+9999REMSYN076AAXX  20174 03313 46058 /3006 10055 20052 40338 52005 555 87/01 83/16 91654;
0148033130999992000012018004+53250-003500FM-12+007799999V0209999C000019999999N0060001N1+00541+00491103391ADDAA112001091KA1120M+00571MD1210071+9999REMSYN098AAXX  20184 03313 16356 /0000 10054 20049 40339 52007 60012 333 10057 555 81/07 87/35 82/43 91755;
0102033130999992000012019004+53250-003500FM-12+007799999V0203101N001019999999N0070001N1+00561+00511103441ADDMD1210101+9999REMSYN076AAXX  20194 03313 46457 /3102 10056 20051 40344 52010 555 83/11 87/35 91854;
0102033130999992000012020004+53250-003500FM-12+007799999V0209999C000019999999N0050001N1+00571+00521103461ADDMD1210081+9999REMSYN076AAXX  20204 03313 46350 /0000 10057 20052 40346 52008 555 81/07 87/33 91954;
0096033130999992000012021004+53250-003500FM-12+007799999V0209999C000019999999N0042001N1+00581+00531103491ADDMD1210101+9999REMSYN070AAXX  20214 03313 46342 /0000 10058 20053 40349 52010 555 87/08 92055;
0108033130999992000012022004+53250-003500FM-12+007799999V0209999C000019999999N0034001N1+00551+00521103481ADDMD1210041+9999REMSYN082AAXX  20224 03313 46334 /0000 10055 20052 40348 52004 555 87/07 84/13 84/17 92154;
0096033130999992000012023004+53250-003500FM-12+007799999V0209999C000019999999N0047001N1+00571+00521103501ADDMD1210041+9999REMSYN070AAXX  20234 03313 46247 /0000 10057 20052 40350 52004 555 87/05 92254;
0126033130999992000012100004+53250-003500FM-12+007799999V0209999C000019999999N0090001N1+00551+00501103511ADDAA199000091MD1210021+9999REMSYN070AAXX  21004 03313 36259 /0000 10055 20050 40351 52002 555 88/04 92354;EQDQ01  00002PRCP99
0096033130999992000012101004+53250-003500FM-12+007799999V0209999C000019999999N0090001N1+00531+00481103531ADDMD1210051+9999REMSYN070AAXX  21014 03313 46259 /0000 10053 20048 40353 52005 555 88/04 90054;
0096033130999992000012102004+53250-003500FM-12+007799999V0209999C000019999999N0190001N1+00551+00481103511ADDMD1210011+9999REMSYN070AAXX  21024 03313 46269 /0000 10055 20048 40351 52001 555 88/04 90154;
0096033130999992000012103004+53250-003500FM-12+007799999V0209999C000019999999N0210001N1+00541+00491103541ADDMD1210031+9999REMSYN070AAXX  21034 03313 46371 /0000 10054 20049 40354 52003 555 88/06 90254;
0096033130999992000012104004+53250-003500FM-12+007799999V0209999C000019999999N0200001N1+00531+00431103511ADDMD1710021+9999REMSYN070AAXX  21044 03313 46470 /0000 10053 20043 40351 57002 555 87/10 90354;
0096033130999992000012105004+53250-003500FM-12+007799999V0209999C000019999999N0230001N1+00531+00411103481ADDMD1710031+9999REMSYN070AAXX  21054 03313 46473 /0000 10053 20041 40348 57003 555 87/13 90454;
0155033130999992000012106004+53250-003500FM-12+007799999V0209999C000019999999N0300001N1+00531+00431103481ADDAA199000091KA1120N+00481MD1710061+9999REMSYN086AAXX  21064 03313 36380 /0000 10053 20043 40348 57006 333 20048 555 86/09 82/35 90555;EQDQ01  00002PRCP99
0108033130999992000012107004+53250-003500FM-12+007799999V0203101N000519999999N0300001N1+00591+00491103491ADDMD1710021+9999REMSYN082AAXX  21074 03313 46380 /3101 10059 20049 40349 57002 555 86/08 82/15 84/31 90654;
