0138035413999992000010208504+52370-001480FM-15+0082EGBE V0202101N002110069019N0112651N1+00401+00301999999ADDGA1071+006909999GF107991999999999999999999MA1102511999999MW1001REMMET044EGBE 020850 21004KT 9999 BKN023 04/03 Q1025;EQDQ01+000000PRSWM2
0138035413999992000010209504+52370-001480FM-15+0082EGBE V0202101N002612200019N0112651N1+00401+00401999999ADDGA1021+007509999GF104991999999999999999999MA1102611999999MW1001REMMET044EGBE 020950 21005KT 9999 SCT025 04/04 Q1026;EQDQ01+000000PRSWM2
0138035413999992000010210504+52370-001480FM-15+0082EGBE V0202101N003112200019N0112651N1+00601+00401999999ADDGA1021+008409999GF102991999999999999999999MA1102511999999MW1001REMMET044EGBE 021050 21006KT 9999 FEW028 06/04 Q1025;EQDQ01+000000PRSWM2
0138035413999992000010211504+52370-001480FM-15+0082EGBE V0202101N003110093019N0112651N1+00801+00501999999ADDGA1071+009309999GF107991999999999999999999MA1102511999999MW1001REMMET044EGBE 021150 21006KT 9999 BKN031 08/05 Q1025;EQDQ01+000000PRSWM2
0138035413999992000010212504+52370-001480FM-15+0082EGBE V0202101N003610093019N0112651N1+00801+00501999999ADDGA1071+009309999GF107991999999999999999999MA1102511999999MW1001REMMET044EGBE 021250 21007KT 9999 BKN031 08/05 Q1025;EQDQ01+000000PRSWM2
0146035413999992000010213504+52370-001480FM-15+0082EGBE V0202201N003610090019N0112651N1+00801+00501999999ADDGA1071+009009999GF107991999999999999999999MA1102401999999MW1001REMMET052EGBE 021350 22007KT 180V260 9999 BKN030 08/05 Q1024;EQDQ01+000000PRSWM2
0138035413999992000010214504+52370-001480FM-15+0082EGBE V0202001N002610078019N0112651N1+00701+00501999999ADDGA1071+007809999GF107991999999999999999999MA1102401999999MW1001REMMET044EGBE 021450 20005KT 9999 BKN026 07/05 Q1024;EQDQ01+000000PRSWM2
0146035413999992000010215504+52370-001480FM-15+0082EGBE V0202001N004610075019N0112651N1+00701+00501999999ADDGA1071+007509999GF107991999999999999999999MA1102301999999MW1001REMMET052EGBE 021550 20009KT 170V230 9999 BKN025 07/05 Q1023;EQDQ01+000000PRSWM2
0146035413999992000010216504+52370-001480FM-15+0082EGBE V0201901N003610039019N0112651N1+00701+00501999999ADDGA1071+003909999GF107991999999999999999999MA1102201999999MW1001REMMET052EGBE 021650 19007KT 150V220 9999 BKN013 07/05 Q1022;EQDQ01+000000PRSWM2
0166035413999992000010217504+52370-001480FM-15+0082EGBE V0201901N003610027019N0050001N1+00701+00601999999ADDGA1071+002709999GF107991999999999999999999MA1102201999999MW1511REMMET056EGBE 021750 19007KT 150V220 5000 -DZ BKN009 07/06 Q1022;EQDQ01+000003PRSWM1Q02    003PRSWM1
0166035413999992000010218504+52370-001480FM-15+0082EGBE V0202001N005710015019N0070001N1+00801+00701999999ADDGA1071+001509999GF107991999999999999999999MA1102101999999MW1511REMMET056EGBE 021850 20011KT 150V220 7000 -DZ BKN005 08/07 Q1021;EQDQ01+000003PRSWM1Q02    003PRSWM1
0189035413999992000010314204+52370-001480FM-15+0082EGBE V0202401N003110180019N0112651N1+00701+00401999999ADDGA1021+010509999GA2071+018009999GF107991999999999999999999MA1101591999999MW1611REMMET063EGBE 031420 24006KT 190V270 9999 -RA FEW035 BKN065 07/04 Q1016;EQDQ01+000003PRSWM1Q02    003PRSWM1
0212035413999992000010314504+52370-001480FM-15+0082EGBE V0202501N003610180019N0112651N1+00701+00401999999ADDGA1021+009609999GA2021+013509999GA3071+018009999GF107991999999999999999999MA1101591999999MW1611REMMET070EGBE 031450 25007KT 190V300 9999 -RA FEW032 SCT045 BKN060 07/04 Q1016;EQDQ01+000003PRSWM1Q02    003PRSWM1
0181035413999992000010315504+52370-001480FM-15+0082EGBE V0202401N003610114019N0080001N1+00701+00401999999ADDGA1021+009009999GA2071+011409999GF107991999999999999999999MA1101591999999MW1611REMMET055EGBE 031550 24007KT 8000 -RA SCT030 BKN038 07/04 Q1016;EQDQ01+000003PRSWM1Q02    003PRSWM1
0188035413999992000010317504+52370-001480FM-15+0082EGBE V0202501N003610060019N0080001N1+00501+00401999999ADDGA1021+004509999GA2071+006009999GF107991999999999999999999MA1101691999999MW1631REMMET062EGBE 031750 25007KT 210V280 8000 RA SCT015 BKN020 05/04 Q1017;EQDQ01+000003PRSWM1Q02    003PRSWM1
0189035413999992000010318504+52370-001480FM-15+0082EGBE V0202101N004110084019N0112651N1+00501+00401999999ADDGA1021+003909999GA2071+008409999GF107991999999999999999999MA1101691999999MW1611REMMET063EGBE 031850 21008KT 160V250 9999 -RA FEW013 BKN028 05/04 Q1017;EQDQ01+000003PRSWM1Q02    003PRSWM1
0189035413999992000010319504+52370-001480FM-15+0082EGBE V0202101N003612200019N0112651N1+00401+00301999999ADDGA1021+001509999GA2021+002109999GF104991999999999999999999MA1101691999999MW1611REMMET063EGBE 031950 21007KT 180V250 9999 -RA FEW005 SCT007 04/03 Q1017;EQDQ01+000003PRSWM1Q02    003PRSWM1
0146035413999992000010320504+52370-001480FM-15+0082EGBE V0202301N002612200019N0112651N1+00401+00301999999ADDGA1021+001509999GF102991999999999999999999MA1101691999999MW1001REMMET052EGBE 032050 23005KT 200V270 9999 FEW005 04/03 Q1017;EQDQ01+000000PRSWM2
0146035413999992000010321504+52370-001480FM-15+0082EGBE V0202301N003112200019N0112651N1+00301+00301999999ADDGA1021+001509999GF102991999999999999999999MA1101691999999MW1001REMMET052EGBE 032150 23006KT 180V260 9999 FEW005 03/03 Q1017;EQDQ01+000000PRSWM2
0138035413999992000010322504+52370-001480FM-15+0082EGBE V0202401N003612200019N0112651N1+00401+00301999999ADDGA1021+008109999GF104991999999999999999999MA1101691999999MW1001REMMET044EGBE 032250 24007KT 9999 SCT027 04/03 Q1017;EQDQ01+000000PRSWM2
0146035413999992000010323504+52370-001480FM-15+0082EGBE V0202401N003112200019N0112651N1+00401+00301999999ADDGA1021+009609999GF104991999999999999999999MA1101801999999MW1001REMMET052EGBE 032350 24006KT 210V270 9999 SCT032 04/03 Q1018;EQDQ01+000000PRSWM2
0138035413999992000010400504+52370-001480FM-15+0082EGBE V0202301N003612200019N0112651N1+00401+00301999999ADDGA1021+009609999GF104991999999999999999999MA1101691999999MW1001REMMET044EGBE 040050 23007KT 9999 SCT032 04/03 Q1017;EQDQ01+000000PRSWM2
0146035413999992000010401504+52370-001480FM-15+0082EGBE V0202101N002612200019N0112651N1+00101+00101999999ADDGA1021+006009999GF102991999999999999999999MA1101691999999MW1001REMMET052EGBE 040150 21005KT 180V250 9999 FEW020 01/01 Q1017;EQDQ01+000000PRSWM2
0165035413999992000010402504+52370-001480FM-15+0082EGBE V0202101N002112200019N0050001N1+00101+00101999999ADDGA1021+000909999GF102991999999999999999999MA1101591999999MW1101REMMET055EGBE 040250 21004KT 180V250 5000 BR FEW003 01/01 Q1016;EQDQ01+000003PRSWM1Q02    003PRSWM1
0149035413999992000010403504+52370-001480FM-15+0082EGBE V0201901N001512200019N0050001N1+00001+00001999999ADDGF100991999999999999999999MA1101591999999MW1101MW2121REMMET049EGBE 040350 19003KT 5000 BR MIFG SKC 00/00 Q1016;EQDQ01+000003PRSWM1Q02    003PRSWM1
0151035413999992000010404504+52370-001480FM-15+0082EGBE V0201901N001512200019N0050001N1+00001-00101999999ADDGF100991999999999999999999MA1101491999999MW1101MW2411REMMET051EGBE 040450 19003KT 5000 BR BCFG SKC M00/M01 Q1015;EQDQ01+000003PRSWM1Q02    003PRSWM1
0143035413999992000010405504+52370-001480FM-15+0082EGBE V0202001N001512200019N0112651N1+00001+00001999999ADDGF100991999999999999999999MA1101391999999MW1411REMMET049EGBE 040550Z 20003KT 9999 BCFG SKC M00/M00 Q1014;EQDQ01+000003PRSWM1Q02    003PRSWM1
0170035413999992000010407504+52370-001480FM-15+0082EGBE V0209999C000012200019N0003501N1-00201-00201999999ADDED199U03509GF100991999999999999999999MA1101391999999MW1441REMMET065EGBE 040750Z 00000KT 0350 R05/0350 R23/0500 FG SKC M02/M02 Q1014;EQDQ01+000003PRSWM1Q02    003PRSWM1
0161035413999992000010408504+52370-001480FM-15+0082EGBE V0209999C00001000151CN0004001N1-00101-00101999999ADDGA1091+000159999GF109991999999000251999999MA1101191999999MW1491REMMET051EGBE 040850Z 00000KT 0400 FZFG VV001 M01/M01 Q1012;EQDQ01+000003PRSWM1Q02    003PRSWM1
0188035413999992000010409504+52370-001480FM-15+0082EGBE V0200201N003610003019N0009001N1+00001+00001999999ADDED199U11009GA1081+000309999GF108991999999999999999999MA1101191999999MW1441REMMET067EGBE 040950Z 020007KT 0900 R23/1100 R05/1300 FG OVC001 00/00 Q1012;EQDQ01+000003PRSWM1Q02    003PRSWM1
0206035413999992000010410504+52370-001480FM-15+0082EGBE V0201801N999990012019N0045001N1+00101+00101999999ADDGA1021+000609999GA2081+001209999GF108991999999999999999999MA1101081999999MW1101REMMET064EGBE 041050Z 180098KT 070V230 4500 BR FEW002 OVC004 01/01 Q1011;EQDQ01+005043WOSPD Q02+000003PRSWM1Q03    003PRSWM1
0170035413999992000010411504+52370-001480FM-15+0082EGBE V0202001N004610012019N0070001N1+00301+00201999999ADDGA1021+000909999GA2071+001209999GF107991999999999999999999MA1100911999999MW1001REMMET060EGBE 041150Z 20009KT 150V240 7000 FEW003 BKN004 03/02 Q1009;EQDQ01+000000PRSWM2
0213035413999992000010412504+52370-001480FM-15+0082EGBE V0202001N007210150019N0112651N1+00501+00401999999ADDGA1021+001809999GA2021+012909999GA3071+015009999GF107991999999999999999999MA1100711999999MW1611REMMET071EGBE 041250Z 20014KT 160V230 9999 -RA FEW006 SCT043 BKN050 05/04 Q1007;EQDQ01+000003PRSWM1Q02    003PRSWM1
0213035413999992000010413504+52370-001480FM-15+0082EGBE V0202301N008210060019N0112651N1+00601+00401999999ADDGA1021+003009999GA2021+004509999GA3071+006009999GF107991999999999999999999MA1100711999999MW1611REMMET071EGBE 041350Z 23016KT 180V270 9999 -RA FEW010 SCT015 BKN020 06/04 Q1007;EQDQ01+000003PRSWM1Q02    003PRSWM1
0170035413999992000010414504+52370-001480FM-15+0082EGBE V0202701N007712200019N0112651N1+00601+00201999999ADDGA1021+007509999GA2021+027009999GF104991999999999999999999MA1100811999999MW1001REMMET060EGBE 041450Z 27015KT 240V300 9999 FEW025 SCT090 06/02 Q1008;EQDQ01+000000PRSWM2
0139035413999992000010415504+52370-001480FM-15+0082EGBE V0202501N004612200019N0112651N1+00501+00201999999ADDGA1021+009009999GF102991999999999999999999MA1101021999999MW1001REMMET045EGBE 041550Z 25009KT 9999 FEW030 05/02 Q1010;EQDQ01+000000PRSWM2
0147035413999992000010416504+52370-001480FM-15+0082EGBE V0202401N003612200019N0112651N1+00401+00201999999ADDGA1021+010509999GF102991999999999999999999MA1101081999999MW1001REMMET053EGBE 041650Z 24007KT 200V260 9999 FEW035 04/02 Q1011;EQDQ01+000000PRSWM2
0091035413999992000010417504+52370-001480FM-15+0082EGBE V0202501N00361220001CN0099001N1+00401+00001999999ADDMA1101191999999MW1001REMMET039EGBE 041750Z 25007KT CAVOK 04/00 Q1012;EQDQ01+000000PRSWM2
0091035413999992000010418504+52370-001480FM-15+0082EGBE V0202501N00361220001CN0099001N1+00301+00001999999ADDMA1101291999999MW1001REMMET039EGBE 041850Z 25007KT CAVOK 03/00 Q1013;EQDQ01+000000PRSWM2
0100035413999992000010419504+52370-001480FM-15+0082EGBE V0202401N00461220001CN0099001N1+00301+00001999999ADDMA1101391999999MW1001REMMET048EGBE 041950Z 24009KT 210V270 CAVOK 03/M00 Q1014;EQDQ01+000000PRSWM2
0092035413999992000010420504+52370-001480FM-15+0082EGBE V0202401N00461220001CN0099001N1+00301+00001999999ADDMA1101491999999MW1001REMMET040EGBE 042050Z 24009KT CAVOK 03/M00 Q1015;EQDQ01+000000PRSWM2
0100035413999992000010421504+52370-001480FM-15+0082EGBE V0202101N00211220001CN0099001N1+00201-00101999999ADDMA1101491999999MW1001REMMET048EGBE 042150Z 21004KT 150V280 CAVOK 02/M01 Q1015;EQDQ01+000000PRSWM2
0100035413999992000010422504+52370-001480FM-15+0082EGBE V0202301N00361220001CN0099001N1+00201-00101999999ADDMA1101591999999MW1001REMMET048EGBE 042250Z 23007KT 200V260 CAVOK 02/M01 Q1016;EQDQ01+000000PRSWM2
0100035413999992000010423504+52370-001480FM-15+0082EGBE V0202101N00411220001CN0099001N1+00101-00101999999ADDMA1101591999999MW1001REMMET048EGBE 042350Z 21008KT 180V240 CAVOK 01/M01 Q1016;EQDQ01+000000PRSWM2
0100035413999992000010500504+52370-001480FM-15+0082EGBE V0202101N00361220001CN0099001N1+00001-00101999999ADDMA1101591999999MW1001REMMET048EGBE 050050Z 21007KT 180V240 CAVOK 00/M01 Q1016;EQDQ01+000000PRSWM2
0148035413999992000010501504+52370-001480FM-15+0082EGBE V0202201N003612200019N0112651N1+00101-00101999999ADDGA1021+011409999GF104991999999999999999999MA1101591999999MW1001REMMET054EGBE 050150Z 22007KT 190V250 9999 SCT038 01/M01 Q1016;EQDQ01+000000PRSWM2
0148035413999992000010502504+52370-001480FM-15+0082EGBE V0201901N003612200019N0112651N1+00101+00001999999ADDGA1021+014409999GF102991999999999999999999MA1101491999999MW1001REMMET054EGBE 050250Z 19007KT 150V220 9999 FEW048 01/M00 Q1015;EQDQ01+000000PRSWM2
0100035413999992000010503504+52370-001480FM-15+0082EGBE V0201801N00261220001CN0099001N1+00101-00101999999ADDMA1101491999999MW1001REMMET048EGBE 050350Z 18005KT 150V220 CAVOK 01/M01 Q1015;EQDQ01+000000PRSWM2
0100035413999992000010504504+52370-001480FM-15+0082EGBE V0201801N00361220001CN0099001N1+00201+00001999999ADDMA1101391999999MW1001REMMET048EGBE 050450Z 18007KT 150V220 CAVOK 02/M00 Q1014;EQDQ01+000000PRSWM2
0148035413999992000010505504+52370-001480FM-15+0082EGBE V0201701N005112200019N0112651N1+00201+00001999999ADDGA1021+013509999GF104991999999999999999999MA1101291999999MW1001REMMET054EGBE 050550Z 17010KT 150V210 9999 SCT045 02/M00 Q1013;EQDQ01+000000PRSWM2
0147035413999992000010506504+52370-001480FM-15+0082EGBE V0201701N004612200019N0112651N1+00201+00001999999ADDGA1021+012609999GF104991999999999999999999MA1101291999999MW1001REMMET053EGBE 050650Z 17009KT 140V200 9999 SCT042 02/00 Q1013;EQDQ01+000000PRSWM2
0147035413999992000010507504+52370-001480FM-15+0082EGBE V0201801N003612200019N0112651N1+00301+00101999999ADDGA1021+015009999GF104991999999999999999999MA1101291999999MW1001REMMET053EGBE 050750Z 18007KT 150V210 9999 SCT050 03/01 Q1013;EQDQ01+000000PRSWM2
0170035413999992000010508504+52370-001480FM-15+0082EGBE V0201901N004112200019N0112651N1+00501+00201999999ADDGA1021+012009999GA2021+018009999GF104991999999999999999999MA1101191999999MW1001REMMET060EGBE 050850Z 19008KT 140V240 9999 FEW040 SCT060 05/02 Q1012;EQDQ01+000000PRSWM2
0147035413999992000010509504+52370-001480FM-15+0082EGBE V0202001N007212200019N0112651N1+00601+00401999999ADDGA1021+012009999GF102991999999999999999999MA1101081999999MW1001REMMET053EGBE 050950Z 20014KT 150V250 9999 FEW040 06/04 Q1011;EQDQ01+000000PRSWM2
0147035413999992000010510504+52370-001480FM-15+0082EGBE V0202101N008712200019N0112651N1+00801+00501999999ADDGA1021+005409999GF102991999999999999999999MA1101081999999MW1001REMMET053EGBE 051050Z 21017KT 160V250 9999 FEW018 08/05 Q1011;EQDQ01+000000PRSWM2
0181035413999992000010511504+52370-001480FM-15+0082EGBE V0202101N008712200019N0112651N1+00801+00601999999ADDGA1021+004509999GA2021+015009999GF104991999999999999999999MA1101021999999MW1001OC101391REMMET063EGBE 051150Z 21017G27KT 170V240 9999 FEW015 SCT050 08/06 Q1010;EQDQ01+000000PRSWM2
0170035413999992000010512504+52370-001480FM-15+0082EGBE V0202001N008712200019N0112651N1+00901+00701999999ADDGA1021+004509999GA2021+015009999GF104991999999999999999999MA1100911999999MW1001REMMET060EGBE 051250Z 20017KT 150V250 9999 SCT015 SCT050 09/07 Q1009;EQDQ01+000000PRSWM2
0170035413999992000010513504+52370-001480FM-15+0082EGBE V0202001N010312200019N0112651N1+00901+00701999999ADDGA1021+004509999GA2021+015009999GF104991999999999999999999MA1100811999999MW1001REMMET060EGBE 051350Z 20020KT 150V240 9999 SCT015 SCT050 09/07 Q1008;EQDQ01+000000PRSWM2
0170035413999992000010514504+52370-001480FM-15+0082EGBE V0202001N009310126019N0112651N1+00901+00601999999ADDGA1021+005409999GA2071+012609999GF107991999999999999999999MA1100711999999MW1001REMMET060EGBE 051450Z 20018KT 170V230 9999 FEW018 BKN042 09/06 Q1007;EQDQ01+000000PRSWM2
0158035413999992000010515504+52370-001480FM-15+0082EGBE V0202001N008710126019N0112651N1+00901+00601999999ADDGA1071+012609999GF107991999999999999999999MA1100711999999MW1001OC101491REMMET056EGBE 051550Z 20017G29KT 160V230 9999 BKN042 09/06 Q1007;EQDQ01+000000PRSWM2
0170035413999992000010516504+52370-001480FM-15+0082EGBE V0202001N006712200019N0112651N1+00901+00701999999ADDGA1021+006609999GA2021+010509999GF104991999999999999999999MA1100611999999MW1001REMMET060EGBE 051650Z 20013KT 160V220 9999 FEW022 SCT035 09/07 Q1006;EQDQ01+000000PRSWM2
0181035413999992000010517504+52370-001480FM-15+0082EGBE V0202001N009312200019N0112651N1+00901+00701999999ADDGA1021+004509999GA2021+007509999GF104991999999999999999999MA1100611999999MW1001OC101591REMMET063EGBE 051750Z 20018G31KT 150V230 9999 FEW015 SCT025 09/07 Q1006;EQDQ01+000000PRSWM2
0158035413999992000010518504+52370-001480FM-15+0082EGBE V0201901N008712200019N0112651N1+01001+00701999999ADDGA1021+007509999GF104991999999999999999999MA1100511999999MW1001OC101441REMMET056EGBE 051850Z 19017G28KT 140V210 9999 SCT025 10/07 Q1005;EQDQ01+000000PRSWM2
0150035413999992000010520504+52370-001480FM-15+0082EGBE V0202001N011310045019N0112651N1+01001+00801999999ADDGA1071+004509999GF107991999999999999999999MA1100411999999MW1001OC101651REMMET048EGBE 052050Z 20022G32KT 9999 BKN015 10/08 Q1004;EQDQ01+000000PRSWM2
0201035413999992000010521504+52370-001480FM-15+0082EGBE V0202001N010810060019N0112651N1+01101+00901999999ADDGA1021+003009999GA2071+006009999GF107991999999999999999999MA1100311999999MW1611OC101591REMMET067EGBE 052150Z 20021G31KT 160V240 9999 -RA FEW010 BKN020 11/09 Q1003;EQDQ01+000003PRSWM1Q02    003PRSWM1
0226035413999992000010600504+52370-001480FM-15+0082EGBE V0202101N009810054019N0050001N1+01001+00901999999ADDGA1021+002709999GA2021+003609999GA3071+005409999GF107991999999999999999999MA1100311999999MW1821OC101491REMMET076EGBE 060050Z 21019G29KT 160V250 5000 +SHRA FEW009 SCT012 BKN018 10/09 Q1003;EQDQ01+000003PRSWM1Q02    003PRSWM1
0099035413999992000010604504+52370-001480FM-15+0082EGBE V0202201N00931220001CN0099001N1+00801+00601999999ADDMA1100511999999MW1001REMMET047EGBE 060450Z 22018KT 180V260 CAVOK 08/06 Q1005;EQDQ01+000000PRSWM2
0110035413999992000010605504+52370-001480FM-15+0082EGBE V0202201N00771220001CN0099001N1+00901+00601999999ADDMA1100511999999MW1001OC101341REMMET050EGBE 060550Z 22015G26KT 190V250 CAVOK 09/06 Q1005;EQDQ01+000000PRSWM2
0099035413999992000010606504+52370-001480FM-15+0082EGBE V0202301N00821220001CN0099001N1+00901+00601999999ADDMA1100511999999MW1001REMMET047EGBE 060650Z 23016KT 180V250 CAVOK 09/06 Q1005;EQDQ01+000000PRSWM2
0181035413999992000010607504+52370-001480FM-15+0082EGBE V0202301N008210360019N0112651N1+00801+00601999999ADDGA1021+012009999GA2071+036009999GF107991999999999999999999MA1100611999999MW1001OC101341REMMET063EGBE 060750Z 23016G26KT 200V260 9999 SCT040 BKN120 08/06 Q1006;EQDQ01+000000PRSWM2
0170035413999992000010608504+52370-001480FM-15+0082EGBE V0202301N005112200019N0112651N1+00801+00601999999ADDGA1021+013509999GA2021+036009999GF104991999999999999999999MA1100811999999MW1001REMMET060EGBE 060850Z 23010KT 200V260 9999 FEW045 SCT120 08/06 Q1008;EQDQ01+000000PRSWM2
0193035413999992000010609504+52370-001480FM-15+0082EGBE V0202301N006212200019N0112651N1+00801+00601999999ADDGA1021+012009999GA2021+036009999GA3021+054009999GF104991999999999999999999MA1100811999999MW1001REMMET067EGBE 060950Z 23012KT 190V260 9999 FEW040 SCT120 SCT180 08/06 Q1008;EQDQ01+000000PRSWM2
0170035413999992000010610504+52370-001480FM-15+0082EGBE V0202301N006712200019N0112651N1+00801+00601999999ADDGA1021+014409999GA2021+054009999GF104991999999999999999999MA1100911999999MW1001REMMET060EGBE 061050Z 23013KT 190V260 9999 SCT048 SCT180 08/06 Q1009;EQDQ01+000000PRSWM2
0181035413999992000010611504+52370-001480FM-15+0082EGBE V0202301N006212200019N0112651N1+00901+00701999999ADDGA1021+004509999GA2021+009609999GF104991999999999999999999MA1100911999999MW1001OC101131REMMET063EGBE 061150Z 23012G22KT 200V270 9999 FEW015 SCT032 09/07 Q1009;EQDQ01+000000PRSWM2
0170035413999992000010612504+52370-001480FM-15+0082EGBE V0202501N006712200019N0112651N1+00901+00601999999ADDGA1021+005409999GA2021+007509999GF104991999999999999999999MA1101021999999MW1001REMMET060EGBE 061250Z 25013KT 210V270 9999 FEW018 SCT025 09/06 Q1010;EQDQ01+000000PRSWM2
0170035413999992000010613504+52370-001480FM-15+0082EGBE V0202701N007710090019N0112651N1+00901+00301999999ADDGA1021+006009999GA2071+009009999GF107991999999999999999999MA1101081999999MW1001REMMET060EGBE 061350Z 27015KT 240V300 9999 FEW020 BKN030 09/03 Q1011;EQDQ01+000000PRSWM2
0162035413999992000010614504+52370-001480FM-15+0082EGBE V0202701N005712200019N0112651N1+00901+00401999999ADDGA1021+010509999GA2021+013509999GF104991999999999999999999MA1101191999999MW1001REMMET052EGBE 061450Z 27011KT 9999 FEW035 SCT045 09/04 Q1012;EQDQ01+000000PRSWM2
0170035413999992000010615504+52370-001480FM-15+0082EGBE V0203201N003610096019N0112651N1+00701+00301999999ADDGA1021+006009999GA2071+009609999GF107991999999999999999999MA1101391999999MW1001REMMET060EGBE 061550Z 32007KT 280V350 9999 FEW020 BKN032 07/03 Q1014;EQDQ01+000000PRSWM2
0089035413999992000010616504+52370-001480FM-15+0082EGBE V0202301N001012200019N0112651N1+99999+99999999999ADDMW1001REMMET052EGBE 061650Z 23002KT 190V270 9999 CAVOK 04/02 Q1015;EQDQ01+000000PRSWM2
0081035413999992000010617504+52370-001480FM-15+0082EGBE V0202601N002112200019N0112651N1+99999+99999999999ADDMW1001REMMET044EGBE 061750Z 26004KT 9999 CAVOK 05/03 Q1016;EQDQ01+000000PRSWM2
0139035413999992000010618504+52370-001480FM-15+0082EGBE V0202301N002112200019N0112651N1+00401+00201999999ADDGA1021+012609999GF102991999999999999999999MA1101691999999MW1001REMMET045EGBE 061850Z 23004KT 9999 FEW042 04/02 Q1017;EQDQ01+000000PRSWM2
0139035413999992000010619504+52370-001480FM-15+0082EGBE V0202301N002112200019N0112651N1+00401+00201999999ADDGA1021+006009999GF102991999999999999999999MA1101691999999MW1001REMMET045EGBE 061950Z 23004KT 9999 FEW020 04/02 Q1017;EQDQ01+000000PRSWM2
0099035413999992000010620504+52370-001480FM-15+0082EGBE V0202001N00311220001CN0099001N1+00201+00101999999ADDMA1101691999999MW1001REMMET047EGBE 062050Z 20006KT 170V250 CAVOK 02/01 Q1017;EQDQ01+000000PRSWM2
0099035413999992000010621504+52370-001480FM-15+0082EGBE V0202201N00211220001CN0099001N1+00301+00201999999ADDMA1101801999999MW1001REMMET047EGBE 062150Z 22004KT 170V260 CAVOK 03/02 Q1018;EQDQ01+000000PRSWM2
0099035413999992000010622504+52370-001480FM-15+0082EGBE V0202101N00361220001CN0099001N1+00201+00101999999ADDMA1101801999999MW1001REMMET047EGBE 062250Z 21007KT 180V250 CAVOK 02/01 Q1018;EQDQ01+000000PRSWM2
0099035413999992000010623504+52370-001480FM-15+0082EGBE V0202201N00261220001CN0099001N1+00301+00201999999ADDMA1101901999999MW1001REMMET047EGBE 062350Z 22005KT 190V260 CAVOK 03/02 Q1019;EQDQ01+000000PRSWM2
0099035413999992000010700504+52370-001480FM-15+0082EGBE V0202001N00261220001CN0099001N1+00101+00101999999ADDMA1101801999999MW1001REMMET047EGBE 070050Z 20005KT 160V230 CAVOK 01/01 Q1018;EQDQ01+000000PRSWM2
0091035413999992000010701504+52370-001480FM-15+0082EGBE V0202001N00311220001CN0099001N1+00201+00201999999ADDMA1101801999999MW1001REMMET039EGBE 070150Z 20006KT CAVOK 02/02 Q1018;EQDQ01+000000PRSWM2
0091035413999992000010702504+52370-001480FM-15+0082EGBE V0202101N00411220001CN0099001N1+00201+00201999999ADDMA1101691999999MW1001REMMET039EGBE 070250Z 21008KT CAVOK 02/02 Q1017;EQDQ01+000000PRSWM2
0091035413999992000010703504+52370-001480FM-15+0082EGBE V0202001N00571220001CN0099001N1+00501+00301999999ADDMA1101691999999MW1001REMMET039EGBE 070350Z 20011KT CAVOK 05/03 Q1017;EQDQ01+000000PRSWM2
0147035413999992000010707504+52370-001480FM-15+0082EGBE V0202201N007212200019N0112651N1+00601+00501999999ADDGA1021+010509999GF102991999999999999999999MA1101591999999MW1001REMMET053EGBE 070750Z 22014KT 190V250 9999 FEW035 06/05 Q1016;EQDQ01+000000PRSWM2
0170035413999992000010708504+52370-001480FM-15+0082EGBE V0202201N005112200019N0112651N1+00601+00401999999ADDGA1021+005409999GA2021+010509999GF104991999999999999999999MA1101491999999MW1001REMMET060EGBE 070850Z 22010KT 170V230 9999 FEW018 SCT035 06/04 Q1015;EQDQ01+000000PRSWM2
0139035413999992000010709504+52370-001480FM-15+0082EGBE V0202001N006212200019N0112651N1+00601+00501999999ADDGA1021+005109999GF104991999999999999999999MA1101491999999MW1001REMMET045EGBE 070950Z 20012KT 9999 SCT017 06/05 Q1015;EQDQ01+000000PRSWM2
0181035413999992000010710504+52370-001480FM-15+0082EGBE V0202101N006710114019N0112651N1+00701+00501999999ADDGA1021+004509999GA2071+011409999GF107991999999999999999999MA1101491999999MW1001OC101181REMMET063EGBE 071050Z 21013G23KT 180V240 9999 SCT015 BKN038 07/05 Q1015;EQDQ01+000000PRSWM2
0204035413999992000010711504+52370-001480FM-15+0082EGBE V0202101N007210120019N0112651N1+00801+00501999999ADDGA1021+006009999GA2021+008409999GA3071+012009999GF107991999999999999999999MA1101391999999MW1001OC101231REMMET070EGBE 071150Z 21014G24KT 190V250 9999 FEW020 SCT028 BKN040 08/05 Q1014;EQDQ01+000000PRSWM2
0204035413999992000010712504+52370-001480FM-15+0082EGBE V0202201N008710120019N0112651N1+00901+00601999999ADDGA1021+007509999GA2021+010509999GA3071+012009999GF107991999999999999999999MA1101291999999MW1001OC101491REMMET070EGBE 071250Z 22017G29KT 190V250 9999 FEW025 SCT035 BKN040 09/06 Q1013;EQDQ01+000000PRSWM2
0204035413999992000010713504+52370-001480FM-15+0082EGBE V0202301N011810126019N0112651N1+00901+00501999999ADDGA1021+003609999GA2021+010809999GA3071+012609999GF107991999999999999999999MA1101191999999MW1001OC101801REMMET070EGBE 071350Z 23023G35KT 200V260 9999 FEW012 SCT036 BKN042 09/05 Q1012;EQDQ01+000000PRSWM2
0181035413999992000010714504+52370-001480FM-15+0082EGBE V0202201N009810120019N0112651N1+00901+00401999999ADDGA1021+009009999GA2071+012009999GF107991999999999999999999MA1101081999999MW1001OC101541REMMET063EGBE 071450Z 22019G30KT 190V250 9999 SCT030 BKN040 09/04 Q1011;EQDQ01+000000PRSWM2
0193035413999992000010715504+52370-001480FM-15+0082EGBE V0202201N006210135019N0112651N1+00901+00401999999ADDGA1021+008409999GA2021+010509999GA3071+013509999GF107991999999999999999999MA1101081999999MW1001REMMET067EGBE 071550Z 22012KT 190V240 9999 FEW028 SCT035 BKN045 09/04 Q1011;EQDQ01+000000PRSWM2
0147035413999992000010716504+52370-001480FM-15+0082EGBE V0202201N007712200019N0112651N1+00901+00401999999ADDGA1021+008409999GF104991999999999999999999MA1101021999999MW1001REMMET053EGBE 071650Z 22015KT 180V250 9999 SCT028 09/04 Q1010;EQDQ01+000000PRSWM2
0147035413999992000010717504+52370-001480FM-15+0082EGBE V0202201N007710096019N0112651N1+00901+00401999999ADDGA1071+009609999GF107991999999999999999999MA1100911999999MW1001REMMET053EGBE 071750Z 22015KT 170V250 9999 BKN032 09/04 Q1009;EQDQ01+000000PRSWM2
0147035413999992000010718504+52370-001480FM-15+0082EGBE V0202101N008710075019N0112651N1+00901+00501999999ADDGA1071+007509999GF107991999999999999999999MA1100911999999MW1001REMMET053EGBE 071850Z 21017KT 180V250 9999 BKN025 09/05 Q1009;EQDQ01+000000PRSWM2
0170035413999992000010719504+52370-001480FM-15+0082EGBE V0202201N009812200019N0112651N1+00901+00601999999ADDGA1021+006009999GA2021+007509999GF104991999999999999999999MA1100811999999MW1001REMMET060EGBE 071950Z 22019KT 180V260 9999 FEW020 SCT025 09/06 Q1008;EQDQ01+000000PRSWM2
0170035413999992000010720504+52370-001480FM-15+0082EGBE V0202101N007210069019N0112651N1+00901+00601999999ADDGA1021+005409999GA2071+006909999GF107991999999999999999999MA1100811999999MW1001REMMET060EGBE 072050Z 21014KT 160V250 9999 SCT018 BKN023 09/06 Q1008;EQDQ01+000000PRSWM2
0091035413999992000010807504+52370-001480FM-15+0082EGBE V0202101N00411220001CN0099001N1+00401+00201999999ADDMA1101391999999MW1001REMMET039EGBE 080750Z 21008KT CAVOK 04/02 Q1014;EQDQ01+000000PRSWM2
0091035413999992000010808504+52370-001480FM-15+0082EGBE V0202301N00461220001CN0099001N1+00401+00101999999ADDMA1101391999999MW1001REMMET039EGBE 080850Z 23009KT CAVOK 04/01 Q1014;EQDQ01+000000PRSWM2
0091035413999992000010809504+52370-001480FM-15+0082EGBE V0202401N00411220001CN0099001N1+00501+00201999999ADDMA1101491999999MW1001REMMET039EGBE 080950Z 24008KT CAVOK 05/02 Q1015;EQDQ01+000000PRSWM2
0099035413999992000010810504+52370-001480FM-15+0082EGBE V0202301N00411220001CN0099001N1+00601+00201999999ADDMA1101491999999MW1001REMMET047EGBE 081050Z 23008KT 200V260 CAVOK 06/02 Q1015;EQDQ01+000000PRSWM2
0099035413999992000010811504+52370-001480FM-15+0082EGBE V0202301N00571220001CN0099001N1+00701+00201999999ADDMA1101491999999MW1001REMMET047EGBE 081150Z 23011KT 200V260 CAVOK 07/02 Q1015;EQDQ01+000000PRSWM2
0170035413999992000010812504+52370-001480FM-15+0082EGBE V0202401N005712200019N0112651N1+00701+00201999999ADDGA1021+009609999GA2021+021009999GF104991999999999999999999MA1101491999999MW1001REMMET060EGBE 081250Z 24011KT 200V270 9999 FEW032 SCT070 07/02 Q1015;EQDQ01+000000PRSWM2
0170035413999992000010813504+52370-001480FM-15+0082EGBE V0202301N006712200019N0112651N1+00701+00201999999ADDGA1021+009609999GA2021+021009999GF104991999999999999999999MA1101491999999MW1001REMMET060EGBE 081350Z 23013KT 200V260 9999 FEW032 SCT070 07/02 Q1015;EQDQ01+000000PRSWM2
0170035413999992000010814504+52370-001480FM-15+0082EGBE V0202401N006212200019N0112651N1+00701+00201999999ADDGA1021+010209999GA2021+012009999GF104991999999999999999999MA1101491999999MW1001REMMET060EGBE 081450Z 24012KT 210V280 9999 SCT034 SCT040 07/02 Q1015;EQDQ01+000000PRSWM2
0162035413999992000010815504+52370-001480FM-15+0082EGBE V0202301N004612200019N0112651N1+00601+00201999999ADDGA1021+010509999GA2021+012009999GF104991999999999999999999MA1101591999999MW1001REMMET052EGBE 081550Z 23009KT 9999 FEW035 SCT040 06/02 Q1016;EQDQ01+000000PRSWM2
0170035413999992000010816504+52370-001480FM-15+0082EGBE V0202401N004112200019N0112651N1+00601+00101999999ADDGA1021+010509999GA2021+018009999GF104991999999999999999999MA1101591999999MW1001REMMET060EGBE 081650Z 24008KT 200V270 9999 FEW035 SCT060 06/01 Q1016;EQDQ01+000000PRSWM2
0099035413999992000010817504+52370-001480FM-15+0082EGBE V0202501N00211220001CN0099001N1+00501+00001999999ADDMA1101691999999MW1001REMMET047EGBE 081750Z 25004KT 230V300 CAVOK 05/00 Q1017;EQDQ01+000000PRSWM2
0099035413999992000010818504+52370-001480FM-15+0082EGBE V0202301N00261220001CN0099001N1+00501+00001999999ADDMA1101801999999MW1001REMMET047EGBE 081850Z 23005KT 180V270 CAVOK 05/00 Q1018;EQDQ01+000000PRSWM2
0093035413999992000010908504+52370-001480FM-15+0082EGBE V0202301N00211220001CN0099001N1-00201-00301999999ADDMA1102511999999MW1001REMMET041EGBE 090850Z 23004KT CAVOK M02/M03 Q1025;EQDQ01+000000PRSWM2
0092035413999992000010909504+52370-001480FM-15+0082EGBE V0202401N00261220001CN0099001N1+00101+00001999999ADDMA1102611999999MW1001REMMET040EGBE 090950Z 24005KT CAVOK 01/M00 Q1026;EQDQ01+000000PRSWM2
0091035413999992000010910504+52370-001480FM-15+0082EGBE V0202601N00461220001CN0099001N1+00301+00101999999ADDMA1102711999999MW1001REMMET039EGBE 091050Z 26009KT CAVOK 03/01 Q1027;EQDQ01+000000PRSWM2
0091035413999992000010911504+52370-001480FM-15+0082EGBE V0202501N00361220001CN0099001N1+00401+00101999999ADDMA1102711999999MW1001REMMET039EGBE 091150Z 25007KT CAVOK 04/01 Q1027;EQDQ01+000000PRSWM2
0147035413999992000010912504+52370-001480FM-15+0082EGBE V0202601N003112200019N0112651N1+00501+00101999999ADDGA1021+009009999GF102991999999999999999999MA1102711999999MW1001REMMET053EGBE 091250Z 26006KT 230V300 9999 FEW030 05/01 Q1027;EQDQ01+000000PRSWM2
0147035413999992000010913504+52370-001480FM-15+0082EGBE V0202601N002612200019N0112651N1+00601+00101999999ADDGA1021+009009999GF102991999999999999999999MA1102811999999MW1001REMMET053EGBE 091350Z 26005KT 230V310 9999 FEW030 06/01 Q1028;EQDQ01+000000PRSWM2
0147035413999992000010914504+52370-001480FM-15+0082EGBE V0202501N002612200019N0112651N1+00501+00101999999ADDGA1021+008109999GF102991999999999999999999MA1102811999999MW1001REMMET053EGBE 091450Z 25005KT 220V280 9999 FEW027 05/01 Q1028;EQDQ01+000000PRSWM2
0139035413999992000010915504+52370-001480FM-15+0082EGBE V0202601N002612200019N0112651N1+00401+00101999999ADDGA1021+009009999GF104991999999999999999999MA1103011999999MW1001REMMET045EGBE 091550Z 26005KT 9999 SCT030 04/01 Q1030;EQDQ01+000000PRSWM2
0139035413999992000010916504+52370-001480FM-15+0082EGBE V0202501N002612200019N0112651N1+00301+00101999999ADDGA1021+009609999GF102991999999999999999999MA1103011999999MW1001REMMET045EGBE 091650Z 25005KT 9999 FEW032 03/01 Q1030;EQDQ01+000000PRSWM2
0091035413999992000010918504+52370-001480FM-15+0082EGBE V0202601N00211220001CN0099001N1+00101+00101999999ADDMA1103121999999MW1001REMMET039EGBE 091850Z 26004KT CAVOK 01/01 Q1031;EQDQ01+000000PRSWM2
0093035413999992000010919504+52370-001480FM-15+0082EGBE V0202001N00151220001CN0099001N1-00101-00201999999ADDMA1103181999999MW1001REMMET041EGBE 091950Z 20003KT CAVOK M01/M02 Q1032;EQDQ01+000000PRSWM2
0141035413999992000010923504+52370-001480FM-15+0082EGBE V0202101N002112200019N0112651N1-00201-00201999999ADDGA1021+054009999GF102991999999999999999999MA1103291999999MW1001REMMET047EGBE 092350Z 21004KT 9999 FEW180 M02/M02 Q1033;EQDQ01+000000PRSWM2
0141035413999992000011004504+52370-001480FM-15+0082EGBE V0201701N002612200019N0080001N1-00301-00301999999ADDGA1021+015009999GF102991999999999999999999MA1103291999999MW1001REMMET047EGBE 100450Z 17005KT 8000 FEW050 M03/M03 Q1033;EQDQ01+000000PRSWM2
0083035413999992000011005504+52370-001480FM-15+0082EGBE V0202001N001512200019N0800001N1+99999+99999999999ADDMW1001REMMET046EGBE 100550Z 20003KT 800 FEW150 M03/M03 Q1033;EQDQ01+000000PRSWM2
0149035413999992000011006504+52370-001480FM-15+0082EGBE V0202001N001512200019N0080001N1-00201-00301999999ADDGA1021+054009999GF102991999999999999999999MA1103291999999MW1001REMMET055EGBE 100650Z 20003KT 170V230 8000 FEW180 M02/M03 Q1033;EQDQ01+000000PRSWM2
0149035413999992000011007504+52370-001480FM-15+0082EGBE V0202101N002112200019N0045001N1-00201-00301999999ADDGA1021+054009999GF102991999999999999999999MA1103391999999MW1001REMMET055EGBE 100750Z 21004KT 180V240 4500 FEW180 M02/M03 Q1034;EQDQ01+000000PRSWM2
0141035413999992000011008504+52370-001480FM-15+0082EGBE V0202001N003112200019N0060001N1-00201-00201999999ADDGA1021+054009999GF102991999999999999999999MA1103391999999MW1001REMMET047EGBE 100850Z 20006KT 6000 FEW180 M02/M02 Q1034;EQDQ01+000000PRSWM2
0148035413999992000011009504+52370-001480FM-15+0082EGBE V0202001N003112200019N0070001N1+00001+00001999999ADDGA1021+054009999GF104991999999999999999999MA1103291999999MW1001REMMET054EGBE 100950Z 20006KT 160V230 7000 SCT180 00/M00 Q1033;EQDQ01+000000PRSWM2
0162035413999992000011010504+52370-001480FM-15+0082EGBE V0202001N004612200019N0112651N1+00201+00101999999ADDGA1021+036009999GA2021+054009999GF104991999999999999999999MA1103291999999MW1001REMMET052EGBE 101050Z 20009KT 9999 SCT120 SCT180 02/01 Q1033;EQDQ01+000000PRSWM2
0099035413999992000011011504+52370-001480FM-15+0082EGBE V0202001N00361220001CN0099001N1+00301+00101999999ADDMA1103291999999MW1001REMMET047EGBE 101150Z 20007KT 160V230 CAVOK 03/01 Q1033;EQDQ01+000000PRSWM2
0147035413999992000011012504+52370-001480FM-15+0082EGBE V0202101N005112200019N0112651N1+00401+00201999999ADDGA1021+013509999GF102991999999999999999999MA1103181999999MW1001REMMET053EGBE 101250Z 21010KT 180V260 9999 FEW045 04/02 Q1032;EQDQ01+000000PRSWM2
0147035413999992000011014204+52370-001480FM-15+0082EGBE V0202001N005112200019N0112651N1+00401+00201999999ADDGA1021+013509999GF102991999999999999999999MA1103181999999MW1001REMMET053EGBE 101420Z 20010KT 160V240 9999 FEW045 04/02 Q1032;EQDQ01+000000PRSWM2
0147035413999992000011014504+52370-001480FM-15+0082EGBE V0202101N005112200019N0112651N1+00501+00201999999ADDGA1021+013509999GF102991999999999999999999MA1103121999999MW1001REMMET053EGBE 101450Z 21010KT 180V260 9999 FEW045 05/02 Q1031;EQDQ01+000000PRSWM2
0139035413999992000011015504+52370-001480FM-15+0082EGBE V0202101N004612200019N0112651N1+00501+00201999999ADDGA1021+012009999GF102991999999999999999999MA1103181999999MW1001REMMET045EGBE 101550Z 21009KT 9999 FEW040 05/02 Q1032;EQDQ01+000000PRSWM2
0147035413999992000011016504+52370-001480FM-15+0082EGBE V0202101N004112200019N0112651N1+00401+00201999999ADDGA1021+013509999GF102991999999999999999999MA1103121999999MW1001REMMET053EGBE 101650Z 21008KT 180V250 9999 FEW045 04/02 Q1031;EQDQ01+000000PRSWM2
0147035413999992000011017504+52370-001480FM-15+0082EGBE V0202101N004612200019N0112651N1+00401+00301999999ADDGA1021+013509999GF102991999999999999999999MA1103121999999MW1001REMMET053EGBE 101750Z 21009KT 170V240 9999 FEW045 04/03 Q1031;EQDQ01+000000PRSWM2
0147035413999992000011018504+52370-001480FM-15+0082EGBE V0202201N004112200019N0112651N1+00501+00301999999ADDGA1021+010509999GF104991999999999999999999MA1103121999999MW1001REMMET053EGBE 101850Z 22008KT 170V260 9999 SCT035 05/03 Q1031;EQDQ01+000000PRSWM2
0139035413999992000011019504+52370-001480FM-15+0082EGBE V0202001N004112200019N0112651N1+00501+00301999999ADDGA1021+009009999GF102991999999999999999999MA1103121999999MW1001REMMET045EGBE 101950Z 20008KT 9999 FEW030 05/03 Q1031;EQDQ01+000000PRSWM2
0147035413999992000011020504+52370-001480FM-15+0082EGBE V0202001N004112200019N0112651N1+00501+00301999999ADDGA1021+009009999GF102991999999999999999999MA1103121999999MW1001REMMET053EGBE 102050Z 20008KT 160V230 9999 FEW030 05/03 Q1031;EQDQ01+000000PRSWM2
0170035413999992000011021504+52370-001480FM-15+0082EGBE V0202101N004612200019N0112651N1+00601+00401999999ADDGA1021+010509999GA2021+018009999GF104991999999999999999999MA1103121999999MW1001REMMET060EGBE 102150Z 21009KT 180V270 9999 FEW035 SCT065 06/04 Q1031;EQDQ01+000000PRSWM2
0182035413999992000011022504+52370-001480FM-15+0082EGBE V0202201N005110180019N0112651N1+00601+00401999999ADDGA1021+010509999GA2071+018009999GF107991999999999999999999MA1103121999999MW1611REMMET056EGBE 102250Z 22010KT 9999 -RA FEW035 BKN060 06/04 Q1031;EQDQ01+000003PRSWM1Q02    003PRSWM1
0170035413999992000011023504+52370-001480FM-15+0082EGBE V0202101N004610240019N0112651N1+00601+00401999999ADDGA1021+013509999GA2071+024009999GF107991999999999999999999MA1103121999999MW1001REMMET060EGBE 102350Z 21009KT 180V240 9999 SCT045 BKN080 06/04 Q1031;EQDQ01+000000PRSWM2
0190035413999992000011100504+52370-001480FM-15+0082EGBE V0202001N003610180019N0112651N1+00601+00401999999ADDGA1021+008109999GA2071+018009999GF107991999999999999999999MA1103121999999MW1511REMMET064EGBE 110050Z 20007KT 170V240 9999 -DZ SCT027 BKN060 06/04 Q1031;EQDQ01+000003PRSWM1Q02    003PRSWM1
0170035413999992000011101504+52370-001480FM-15+0082EGBE V0202101N004110084019N0112651N1+00601+00401999999ADDGA1021+004209999GA2071+008409999GF107991999999999999999999MA1103121999999MW1001REMMET060EGBE 110150Z 21008KT 170V250 9999 SCT014 BKN028 06/04 Q1031;EQDQ01+000000PRSWM2
0170035413999992000011102504+52370-001480FM-15+0082EGBE V0202001N004110138019N0112651N1+00601+00501999999ADDGA1021+003909999GA2071+013809999GF107991999999999999999999MA1103121999999MW1001REMMET060EGBE 110250Z 20008KT 160V240 9999 SCT013 BKN046 06/05 Q1031;EQDQ01+000000PRSWM2
0170035413999992000011103504+52370-001480FM-15+0082EGBE V0202101N004112200019N0112651N1+00601+00501999999ADDGA1021+004209999GA2021+007809999GF104991999999999999999999MA1103011999999MW1001REMMET060EGBE 110350Z 21008KT 180V250 9999 SCT014 SCT026 06/05 Q1030;EQDQ01+000000PRSWM2
0147035413999992000011104504+52370-001480FM-15+0082EGBE V0202101N004110039019N0112651N1+00701+00501999999ADDGA1071+003909999GF107991999999999999999999MA1103011999999MW1001REMMET053EGBE 110450Z 21008KT 160V250 9999 BKN013 07/05 Q1030;EQDQ01+000000PRSWM2
0170035413999992000011105504+52370-001480FM-15+0082EGBE V0202101N003612200019N0112651N1+00701+00501999999ADDGA1021+003909999GA2021+005409999GF104991999999999999999999MA1103011999999MW1001REMMET060EGBE 110550Z 21007KT 190V250 9999 FEW013 SCT018 07/05 Q1030;EQDQ01+000000PRSWM2
0170035413999992000011106504+52370-001480FM-15+0082EGBE V0202201N004610060019N0112651N1+00701+00601999999ADDGA1021+003909999GA2071+006009999GF107991999999999999999999MA1103011999999MW1001REMMET060EGBE 110650Z 22009KT 190V260 9999 SCT013 BKN020 07/06 Q1030;EQDQ01+000000PRSWM2
0193035413999992000011107504+52370-001480FM-15+0082EGBE V0202101N005110054019N0112651N1+00801+00601999999ADDGA1021+003009999GA2021+004209999GA3071+005409999GF107991999999999999999999MA1103011999999MW1001REMMET067EGBE 110750Z 21010KT 180V240 9999 FEW010 SCT014 BKN018 08/06 Q1030;EQDQ01+000000PRSWM2
0193035413999992000011108504+52370-001480FM-15+0082EGBE V0202101N005710120019N0112651N1+00701+00601999999ADDGA1021+003609999GA2021+005409999GA3071+012009999GF107991999999999999999999MA1103011999999MW1001REMMET067EGBE 110850Z 21011KT 180V240 9999 FEW012 SCT018 BKN040 07/06 Q1030;EQDQ01+000000PRSWM2
0192035413999992000011109504+52370-001480FM-15+0082EGBE V0202101N006210270019N0112651N1+00801+00601999999ADDGA1021+004509999GA2021+007509999GA3071+027009999GF107991999999999999999999MA1103011999999MW1001REMMET066EGBE 110950 21012KT 180V230 9999 FEW015 SCT025 BKN090 08/06 Q1030;EQDQ01+000000PRSWM2
0169035413999992000011110504+52370-001480FM-15+0082EGBE V0202201N005710066019N0112651N1+00901+00601999999ADDGA1021+004509999GA2071+006609999GF107991999999999999999999MA1103011999999MW1001REMMET059EGBE 111050 22011KT 180V260 9999 SCT015 BKN022 09/06 Q1030;EQDQ01+000000PRSWM2
0169035413999992000011111504+52370-001480FM-15+0082EGBE V0202101N007210072019N0112651N1+00901+00701999999ADDGA1021+004509999GA2071+007209999GF107991999999999999999999MA1102911999999MW1001REMMET059EGBE 111150 21014KT 170V240 9999 SCT015 BKN024 09/07 Q1029;EQDQ01+000000PRSWM2
0169035413999992000011112504+52370-001480FM-15+0082EGBE V0202301N008710084019N0112651N1+01001+00601999999ADDGA1021+005409999GA2071+008409999GF107991999999999999999999MA1102911999999MW1001REMMET059EGBE 111250 23017KT 200V260 9999 SCT018 BKN028 10/06 Q1029;EQDQ01+000000PRSWM2
0181035413999992000011113504+52370-001480FM-15+0082EGBE V0202301N008710084019N0112651N1+01001+00601999999ADDGA1021+006009999GA2071+008409999GF107991999999999999999999MA1102911999999MW1001OC101391REMMET063EGBE 111350Z 23017G27KT 200V260 9999 SCT020 BKN028 10/06 Q1029;EQDQ01+000000PRSWM2
0170035413999992000011114504+52370-001480FM-15+0082EGBE V0202301N008710072019N0112651N1+00901+00601999999ADDGA1021+006009999GA2071+007209999GF107991999999999999999999MA1102811999999MW1001REMMET060EGBE 111450Z 23017KT 190V260 9999 SCT020 BKN024 09/06 Q1028;EQDQ01+000000PRSWM2
0170035413999992000011115504+52370-001480FM-15+0082EGBE V0202201N007210090019N0112651N1+00901+00601999999ADDGA1021+006309999GA2071+009009999GF107991999999999999999999MA1102811999999MW1001REMMET060EGBE 111550Z 22014KT 180V260 9999 FEW021 BKN030 09/06 Q1028;EQDQ01+000000PRSWM2
0147035413999992000011116504+52370-001480FM-15+0082EGBE V0202101N006210087019N0112651N1+00901+00501999999ADDGA1071+008709999GF107991999999999999999999MA1102711999999MW1001REMMET053EGBE 111650Z 21012KT 180V250 9999 BKN029 09/05 Q1027;EQDQ01+000000PRSWM2
0170035413999992000011117504+52370-001480FM-15+0082EGBE V0202101N005112200019N0112651N1+00901+00501999999ADDGA1021+007509999GA2021+009009999GF104991999999999999999999MA1102711999999MW1001REMMET060EGBE 111750Z 21010KT 150V240 9999 FEW025 SCT030 09/05 Q1027;EQDQ01+000000PRSWM2
0170035413999992000011118504+52370-001480FM-15+0082EGBE V0202101N007212200019N0112651N1+00801+00501999999ADDGA1021+006009999GA2021+007509999GF104991999999999999999999MA1102711999999MW1001REMMET060EGBE 111850Z 21014KT 180V250 9999 FEW020 SCT025 08/05 Q1027;EQDQ01+000000PRSWM2
0147035413999992000011120504+52370-001480FM-15+0082EGBE V0202101N005712200019N0112651N1+00801+00501999999ADDGA1021+006009999GF104991999999999999999999MA1102711999999MW1001REMMET053EGBE 112050Z 21011KT 180V250 9999 SCT020 08/05 Q1027;EQDQ01+000000PRSWM2
0147035413999992000011121504+52370-001480FM-15+0082EGBE V0202201N005712200019N0112651N1+00801+00501999999ADDGA1021+010509999GF102991999999999999999999MA1102611999999MW1001REMMET053EGBE 112150Z 22011KT 190V260 9999 FEW035 08/05 Q1026;EQDQ01+000000PRSWM2
0158035413999992000011122504+52370-001480FM-15+0082EGBE V0202301N007212200019N0112651N1+00801+00401999999ADDGA1021+007509999GF104991999999999999999999MA1102611999999MW1001OC101231REMMET056EGBE 112250Z 23014G24KT 190V250 9999 SCT025 08/04 Q1026;EQDQ01+000000PRSWM2
0147035413999992000011123504+52370-001480FM-15+0082EGBE V0202301N007212200019N0112651N1+00801+00401999999ADDGA1021+007509999GF102991999999999999999999MA1102511999999MW1001REMMET053EGBE 112350Z 23014KT 190V260 9999 FEW025 08/04 Q1025;EQDQ01+000000PRSWM2
0170035413999992000011200504+52370-001480FM-15+0082EGBE V0202301N006712200019N0112651N1+00801+00401999999ADDGA1021+007509999GA2021+012609999GF104991999999999999999999MA1102511999999MW1001REMMET060EGBE 120050Z 23013KT 170V270 9999 FEW025 SCT042 08/04 Q1025;EQDQ01+000000PRSWM2
0147035413999992000011201504+52370-001480FM-15+0082EGBE V0202201N007712200019N0112651N1+00801+00401999999ADDGA1021+007509999GF104991999999999999999999MA1102401999999MW1001REMMET053EGBE 120150Z 22015KT 180V250 9999 SCT025 08/04 Q1024;EQDQ01+000000PRSWM2
0139035413999992000011202504+52370-001480FM-15+0082EGBE V0202301N008212200019N0112651N1+00801+00401999999ADDGA1021+009009999GF104991999999999999999999MA1102301999999MW1001REMMET045EGBE 120250Z 23016KT 9999 SCT030 08/04 Q1023;EQDQ01+000000PRSWM2
0139035413999992000011203504+52370-001480FM-15+0082EGBE V0202301N006712200019N0112651N1+00801+00401999999ADDGA1021+009609999GF102991999999999999999999MA1102301999999MW1001REMMET045EGBE 120350Z 23013KT 9999 FEW032 08/04 Q1023;EQDQ01+000000PRSWM2
0099035413999992000011204504+52370-001480FM-15+0082EGBE V02099999999992200019N0112651N1+99999+99999999999ADDMW1001REMMET062EGBE 120450Z 22015G2KT 180V260 9999 FEW030 SCT100 08/04 Q1022;EQDQ01+000000PRSWM2
0139035413999992000011205504+52370-001480FM-15+0082EGBE V0202301N008210090019N0112651N1+00801+00401999999ADDGA1071+009009999GF107991999999999999999999MA1102101999999MW1001REMMET045EGBE 120550Z 23016KT 9999 BKN030 08/04 Q1021;EQDQ01+000000PRSWM2
0139035413999992000011206504+52370-001480FM-15+0082EGBE V0202201N007212200019N0112651N1+00801+00501999999ADDGA1021+009009999GF104991999999999999999999MA1102101999999MW1001REMMET045EGBE 120650Z 22014KT 9999 SCT030 08/05 Q1021;EQDQ01+000000PRSWM2
0150035413999992000011207504+52370-001480FM-15+0082EGBE V0202201N007712200019N0112651N1+00801+00501999999ADDGA1021+008409999GF104991999999999999999999MA1102101999999MW1001OC101291REMMET048EGBE 120750Z 22015G25KT 9999 SCT028 08/05 Q1021;EQDQ01+000000PRSWM2
0170035413999992000011208504+52370-001480FM-15+0082EGBE V0202201N006210072019N0112651N1+00801+00501999999ADDGA1021+005409999GA2071+007209999GF107991999999999999999999MA1102001999999MW1001REMMET060EGBE 120850Z 22012KT 170V260 9999 SCT018 BKN024 08/05 Q1020;EQDQ01+000000PRSWM2
0170035413999992000011209504+52370-001480FM-15+0082EGBE V0202101N006212200019N0112651N1+00801+00501999999ADDGA1021+005409999GA2021+008409999GF104991999999999999999999MA1102001999999MW1001REMMET060EGBE 120950Z 21012KT 160V250 9999 FEW018 SCT028 08/05 Q1020;EQDQ01+000000PRSWM2
0204035413999992000011210504+52370-001480FM-15+0082EGBE V0202101N006710120019N0112651N1+00901+00601999999ADDGA1021+005409999GA2021+009009999GA3071+012009999GF107991999999999999999999MA1102001999999MW1001OC101181REMMET070EGBE 121050Z 21013G23KT 180V240 9999 SCT018 SCT030 BKN040 09/06 Q1020;EQDQ01+000000PRSWM2
0170035413999992000011211504+52370-001480FM-15+0082EGBE V0202101N007710066019N0112651N1+00901+00501999999ADDGA1071+006609999GA2071+008409999GF107991999999999999999999MA1102001999999MW1001REMMET060EGBE 121150Z 21015KT 180V250 9999 BKN022 BKN028 09/05 Q1020;EQDQ01+000000PRSWM2
0181035413999992000011212504+52370-001480FM-15+0082EGBE V0202101N007210078019N0112651N1+00901+00501999999ADDGA1021+006009999GA2071+007809999GF107991999999999999999999MA1101901999999MW1001OC101231REMMET063EGBE 121250Z 21014G24KT 180V250 9999 SCT020 BKN026 09/05 Q1019;EQDQ01+000000PRSWM2
0147035413999992000011213504+52370-001480FM-15+0082EGBE V0202101N006712200019N0112651N1+99999+99999999999ADDGA1021+006309999GF102991999999999999999999MW1001REMMET068EGBE 121350Z 21013KT 180V250 9999 FEW0218 BKN021 BKN024 09/05 Q1018;EQDQ01+000000PRSWM2
0170035413999992000011214504+52370-001480FM-15+0082EGBE V0202101N007210075019N0112651N1+00801+00501999999ADDGA1021+005709999GA2071+007509999GF107991999999999999999999MA1101691999999MW1001REMMET060EGBE 121450Z 21014KT 180V240 9999 FEW019 BKN025 08/05 Q1017;EQDQ01+000000PRSWM2
0193035413999992000011215504+52370-001480FM-15+0082EGBE V0202001N007710060019N0112651N1+00801+00501999999ADDGA1021+004509999GA2071+006009999GA3071+007509999GF107991999999999999999999MA1101691999999MW1001REMMET067EGBE 121550Z 20015KT 150V240 9999 FEW015 BKN020 BKN025 08/05 Q1017;EQDQ01+000000PRSWM2
0170035413999992000011216504+52370-001480FM-15+0082EGBE V0202101N008710087019N0112651N1+00801+00501999999ADDGA1021+004509999GA2071+008709999GF107991999999999999999999MA1101691999999MW1001REMMET060EGBE 121650Z 21017KT 160V240 9999 FEW015 BKN029 08/05 Q1017;EQDQ01+000000PRSWM2
0193035413999992000011217504+52370-001480FM-15+0082EGBE V0202001N007210120019N0112651N1+00701+00401999999ADDGA1021+004809999GA2021+007509999GA3071+012009999GF107991999999999999999999MA1101591999999MW1001REMMET067EGBE 121750Z 20014KT 160V230 9999 FEW016 SCT025 BKN040 07/04 Q1016;EQDQ01+000000PRSWM2
0170035413999992000011218504+52370-001480FM-15+0082EGBE V0202001N007210090019N0112651N1+00701+00401999999ADDGA1021+003609999GA2071+009009999GF107991999999999999999999MA1101591999999MW1001REMMET060EGBE 121850Z 20014KT 150V240 9999 SCT012 BKN030 07/04 Q1016;EQDQ01+000000PRSWM2
0190035413999992000011219504+52370-001480FM-15+0082EGBE V0202001N008210075019N0112651N1+00601+00401999999ADDGA1021+003009999GA2071+007509999GF107991999999999999999999MA1101491999999MW1611REMMET064EGBE 121950Z 20016KT 140V230 9999 -RA SCT010 BKN025 06/04 Q1015;EQDQ01+000003PRSWM1Q02    003PRSWM1
0190035413999992000011220504+52370-001480FM-15+0082EGBE V0201901N007210045019N0112651N1+00601+00501999999ADDGA1021+003009999GA2071+004509999GF107991999999999999999999MA1101491999999MW1611REMMET064EGBE 122050Z 19014KT 150V230 9999 -RA SCT010 BKN015 06/05 Q1015;EQDQ01+000003PRSWM1Q02    003PRSWM1
0190035413999992000011221504+52370-001480FM-15+0082EGBE V0201901N005112200019N0090001N1+00601+00501999999ADDGA1021+003009999GA2021+007509999GF104991999999999999999999MA1101391999999MW1611REMMET064EGBE 122150Z 19010KT 150V210 9000 -RA FEW010 SCT025 06/05 Q1014;EQDQ01+000003PRSWM1Q02    003PRSWM1
0189035413999992000011222504+52370-001480FM-15+0082EGBE V0201901N005710075019N0090001N1+00501+00401999999ADDGA1021+003309999GA2071+007509999GF107991999999999999999999MA1101291999999MW1631REMMET063EGBE 122250Z 19011KT 160V220 9000 RA SCT011 BKN025 05/04 Q1013;EQDQ01+000003PRSWM1Q02    003PRSWM1
0189035413999992000011223504+52370-001480FM-15+0082EGBE V0201801N006210060019N0080001N1+00501+00401999999ADDGA1021+002409999GA2071+006009999GF107991999999999999999999MA1101191999999MW1631REMMET063EGBE 122350Z 18012KT 140V210 8000 RA SCT008 BKN020 05/04 Q1012;EQDQ01+000003PRSWM1Q02    003PRSWM1
0189035413999992000011300504+52370-001480FM-15+0082EGBE V0201701N005710045019N0060001N1+00501+00401999999ADDGA1021+002709999GA2071+004509999GF107991999999999999999999MA1101191999999MW1631REMMET063EGBE 130050Z 17011KT 150V210 6000 RA SCT009 BKN015 05/04 Q1012;EQDQ01+000003PRSWM1Q02    003PRSWM1
0189035413999992000011301504+52370-001480FM-15+0082EGBE V0202101N004610045019N0060001N1+00501+00501999999ADDGA1021+001809999GA2071+004509999GF107991999999999999999999MA1101191999999MW1631REMMET063EGBE 130150Z 21009KT 180V240 6000 RA SCT006 BKN015 05/05 Q1012;EQDQ01+000003PRSWM1Q02    003PRSWM1
0181035413999992000011302504+52370-001480FM-15+0082EGBE V0203201N004610075019N0112651N1+00201+00101999999ADDGA1021+002109999GA2071+007509999GF107991999999999999999999MA1101291999999MW1631REMMET055EGBE 130250Z 32009KT 9999 RA SCT007 BKN025 02/01 Q1013;EQDQ01+000003PRSWM1Q02    003PRSWM1
0182035413999992000011303504+52370-001480FM-15+0082EGBE V0203301N003612200019N0112651N1+00201+00101999999ADDGA1021+001809999GA2021+007509999GF104991999999999999999999MA1101291999999MW1611REMMET056EGBE 130350Z 33007KT 9999 -RA FEW006 SCT025 02/01 Q1013;EQDQ01+000003PRSWM1Q02    003PRSWM1
0189035413999992000011304504+52370-001480FM-15+0082EGBE V0203301N003610078019N0112651N1+00201+00101999999ADDGA1021+002109999GA2021+003009999GA3071+007809999GF107991999999999999999999MW1611REMMET062EGBE 130450Z 33007KT 9999 -RA FEW007 SCT010 BKN026 02/01 1013;EQDQ01+000003PRSWM1Q02    003PRSWM1
0189035413999992000011305504+52370-001480FM-15+0082EGBE V0203301N003610090019N0112651N1+00301+00101999999ADDGA1021+002109999GA2021+003009999GA3071+009009999GF107991999999999999999999MW1611REMMET062EGBE 130550Z 33007KT 9999 -RA FEW007 SCT010 BKN030 03/01 1013;EQDQ01+000003PRSWM1Q02    003PRSWM1
0205035413999992000011306504+52370-001480FM-15+0082EGBE V0203301N003610090019N0112651N1+00201+00101999999ADDGA1021+002109999GA2021+003009999GA3071+009009999GF107991999999999999999999MA1101291999999MW1611REMMET063EGBE 130650Z 33007KT 9999 -RA FEW007 SCT010 BKN030 02/01 Q1013;EQDQ01+000003PRSWM1Q02    003PRSWM1
0213035413999992000011307504+52370-001480FM-15+0082EGBE V0203301N004110096019N0112651N1+00201+00101999999ADDGA1021+002409999GA2021+003609999GA3071+009609999GF107991999999999999999999MA1101491999999MW1611REMMET071EGBE 130750Z 33008KT 200V260 9999 -RA SCT008 SCT012 BKN032 02/01 Q1015;EQDQ01+000003PRSWM1Q02    003PRSWM1
0193035413999992000011308504+52370-001480FM-15+0082EGBE V0203301N003110126019N0090001N1+00301+00101999999ADDGA1021+002409999GA2021+009009999GA3071+012609999GF107991999999999999999999MA1101491999999MW1001REMMET067EGBE 130850Z 33006KT 300V360 9000 FEW008 SCT030 BKN042 03/01 Q1015;EQDQ01+000000PRSWM2
0170035413999992000011309504+52370-001480FM-15+0082EGBE V0203201N003612200019N0080001N1+00301+00101999999ADDGA1021+002409999GA2021+014409999GF104991999999999999999999MA1101491999999MW1001REMMET060EGBE 130950Z 32007KT 290V350 8000 FEW008 SCT048 03/01 Q1015;EQDQ01+000000PRSWM2
0170035413999992000011311204+52370-001480FM-15+0082EGBE V0203401N003612200019N0112651N1+00401+00101999999ADDGA1021+015009999GA2021+054009999GF104991999999999999999999MA1101591999999MW1001REMMET060EGBE 131120Z 34007KT 300V010 9999 FEW050 SCT180 04/01 Q1016;EQDQ01+000000PRSWM2
0193035413999992000011311504+52370-001480FM-15+0082EGBE V0203401N005110540019N0112651N1+00401+00101999999ADDGA1021+004509999GA2021+018009999GA3071+054009999GF107991999999999999999999MA1101591999999MW1001REMMET067EGBE 131150Z 34010KT 300V010 9999 FEW015 SCT060 BKN180 04/01 Q1016;EQDQ01+000000PRSWM2
0170035413999992000011312504+52370-001480FM-15+0082EGBE V0203401N003610660019N0112651N1+00401+00101999999ADDGA1021+004509999GA2071+066009999GF107991999999999999999999MA1101591999999MW1001REMMET060EGBE 131250Z 34007KT 310V030 9999 FEW015 BKN220 04/01 Q1016;EQDQ01+000000PRSWM2
0170035413999992000011313504+52370-001480FM-15+0082EGBE V0203301N004112200019N0112651N1+00401+00101999999ADDGA1021+004509999GA2021+007509999GF104991999999999999999999MA1101591999999MW1001REMMET060EGBE 131350Z 33008KT 300V360 9999 FEW015 SCT025 04/01 Q1016;EQDQ01+000000PRSWM2
0147035413999992000011314504+52370-001480FM-15+0082EGBE V0203301N005112200019N0080001N1+00401+00001999999ADDGA1021+005409999GF102991999999999999999999MA1101591999999MW1001REMMET053EGBE 131450Z 33010KT 290V010 8000 FEW018 04/00 Q1016;EQDQ01+000000PRSWM2
0147035413999992000011315504+52370-001480FM-15+0082EGBE V0203301N003612200019N0080001N1+00301+00001999999ADDGA1021+075009999GF102991999999999999999999MA1101591999999MW1001REMMET053EGBE 131550Z 33007KT 300V360 8000 FEW250 03/00 Q1016;EQDQ01+000000PRSWM2
0140035413999992000011316504+52370-001480FM-15+0082EGBE V0203001N001012200019N0060001N1+00201+00001999999ADDGA1021+045009999GF102991999999999999999999MA1101591999999MW1001REMMET046EGBE 131650Z 30002KT 6000 FEW150 02/M00 Q1016;EQDQ01+000000PRSWM2
0121035413999992000011317504+52370-001480FM-15+0082EGBE V0202601N001012200019N0060001N1+00101-00101999999ADDGF100991999999999999999999MA1101691999999MW1001REMMET043EGBE 131750Z 26002KT 6000 SKC 01/M01 Q1017;EQDQ01+000000PRSWM2
0121035413999992000011318504+52370-001480FM-15+0082EGBE V0202901N001012200019N0060001N1+00101+00001999999ADDGF100991999999999999999999MA1101691999999MW1001REMMET043EGBE 131850Z 29002KT 6000 SKC 01/M00 Q1017;EQDQ01+000000PRSWM2
0142035413999992000011319504+52370-001480FM-15+0082EGBE V0203401N001012200019N0080001N1+00101+00001999999ADDGF100991999999999999999999MA1101801999999MW1411REMMET048EGBE 131950Z 34002KT 8000 BCFG SKC 01/M00 Q1018;EQDQ01+000003PRSWM1Q02    003PRSWM1
0161035413999992000011320504+52370-001480FM-15+0082EGBE V0203501N001512200019N0090001N1+00101+00001999999ADDGA1021+009009999GF102991999999999999999999MA1101901999999MW1411REMMET051EGBE 132050Z 35003KT 9000 BCFG FEW030 01/M00 Q1019;EQDQ01+000003PRSWM1Q02    003PRSWM1
0140035413999992000011321504+52370-001480FM-15+0082EGBE V0203301N001012200019N0090001N1+00001-00101999999ADDGA1021+009009999GF102991999999999999999999MA1101901999999MW1001REMMET046EGBE 132150Z 33002KT 9000 FEW030 00/M01 Q1019;EQDQ01+000000PRSWM2
0100035413999992000011322504+52370-001480FM-15+0082EGBE V0203501N00211220001CN0099001N1+00001-00101999999ADDMA1101901999999MW1001REMMET048EGBE 132250Z 35004KT 320V020 CAVOK 00/M01 Q1019;EQDQ01+000000PRSWM2
0100035413999992000011323504+52370-001480FM-15+0082EGBE V0203501N00261220001CN0099001N1+00101-00101999999ADDMA1102001999999MW1001REMMET048EGBE 132350Z 35005KT 310V030 CAVOK 01/M01 Q1020;EQDQ01+000000PRSWM2
0100035413999992000011400504+52370-001480FM-15+0082EGBE V0203401N00461220001CN0099001N1+00101-00101999999ADDMA1102001999999MW1001REMMET048EGBE 140050Z 34009KT 310V010 CAVOK 01/M01 Q1020;EQDQ01+000000PRSWM2
0171035413999992000011401504+52370-001480FM-15+0082EGBE V0203301N003612200019N0112651N1+00101-00101999999ADDGA1021+003009999GA2021+005709999GF104991999999999999999999MA1102001999999MW1001REMMET061EGBE 140150Z 33007KT 300V010 9999 SCT010 SCT019 01/M01 Q1020;EQDQ01+000000PRSWM2
0213035413999992000011402504+52370-001480FM-15+0082EGBE V0202501N004110048019N0112651N1+00101+00001999999ADDGA1021+002709999GA2021+003009999GA3071+004809999GF107991999999999999999999MA1102101999999MW1511REMMET071EGBE 140250Z 25008KT 310V040 9999 -DZ FEW009 SCT010 BKN016 01/00 Q1021;EQDQ01+000003PRSWM1Q02    003PRSWM1
0170035413999992000011403504+52370-001480FM-15+0082EGBE V0203601N004112200019N0112651N1+00101+00101999999ADDGA1021+002709999GA2021+009609999GF104991999999999999999999MA1102101999999MW1001REMMET060EGBE 140350Z 36008KT 320V030 9999 SCT009 SCT032 01/01 Q1021;EQDQ01+000000PRSWM2
0170035413999992000011404504+52370-001480FM-15+0082EGBE V0203501N003112200019N0112651N1+00201+00001999999ADDGA1021+002709999GA2021+010509999GF104991999999999999999999MA1102201999999MW1001REMMET060EGBE 140450Z 35006KT 310V030 9999 SCT009 SCT035 02/00 Q1022;EQDQ01+000000PRSWM2
0160035413999992000011405504+52370-001480FM-15+0082EGBE V0203501N00361220001CN0112651N1+00201+00101999999ADDGA1071+003009999GA2021+007509999MA1102201999999MW1001REMMET060EGBE 140550Z 35007KT 320V030 9999 BKN010 SCT025 02/01 Q1022;EQDQ01+000042SCOTCVQ02+000000PRSWM2
0170035413999992000011406504+52370-001480FM-15+0082EGBE V0203501N003612200019N0112651N1+00201+00101999999ADDGA1021+009009999GA2021+013509999GF104991999999999999999999MA1102301999999MW1001REMMET060EGBE 140650Z 35007KT 320V020 9999 FEW030 SCT045 02/01 Q1023;EQDQ01+000000PRSWM2
0147035413999992000011407504+52370-001480FM-15+0082EGBE V0203501N004112200019N0112651N1+00101+00001999999ADDGA1021+009609999GF102991999999999999999999MA1102301999999MW1001REMMET053EGBE 140750Z 35008KT 320V020 9999 FEW032 01/00 Q1023;EQDQ01+000000PRSWM2
0162035413999992000011408504+52370-001480FM-15+0082EGBE V0203501N004112200019N0112651N1+00201+00001999999ADDGA1021+008409999GA2021+012009999GF104991999999999999999999MA1102401999999MW1001REMMET052EGBE 140850Z 35008KT 9999 FEW028 SCT040 02/00 Q1024;EQDQ01+000000PRSWM2
0147035413999992000011409504+52370-001480FM-15+0082EGBE V0203501N004612200019N0112651N1+00301+00001999999ADDGA1021+011409999GF102991999999999999999999MA1102511999999MW1001REMMET053EGBE 140950Z 35009KT 320V020 9999 FEW038 03/00 Q1025;EQDQ01+000000PRSWM2
0147035413999992000011410504+52370-001480FM-15+0082EGBE V0203501N005112200019N0112651N1+00401+00101999999ADDGA1021+010509999GF102991999999999999999999MA1102511999999MW1001REMMET053EGBE 141050Z 35010KT 320V020 9999 FEW035 04/01 Q1025;EQDQ01+000000PRSWM2
0162035413999992000011411504+52370-001480FM-15+0082EGBE V0203601N006212200019N0112651N1+00401+00101999999ADDGA1021+006609999GA2021+009009999GF104991999999999999999999MA1102511999999MW1001REMMET052EGBE 141150Z 36012KT 9999 FEW022 SCT030 04/01 Q1025;EQDQ01+000000PRSWM2
0170035413999992000011412504+52370-001480FM-15+0082EGBE V0203501N005110096019N0112651N1+00501+00101999999ADDGA1021+006609999GA2071+009609999GF107991999999999999999999MA1102511999999MW1001REMMET060EGBE 141250Z 35010KT 320V040 9999 SCT022 BKN032 05/01 Q1025;EQDQ01+000000PRSWM2
0170035413999992000011413504+52370-001480FM-15+0082EGBE V0203501N004610066019N0112651N1+00501+00101999999ADDGA1071+006609999GA2071+008409999GF107991999999999999999999MA1102511999999MW1001REMMET060EGBE 141350Z 35009KT 320V030 9999 BKN022 BKN028 05/01 Q1025;EQDQ01+000000PRSWM2
0170035413999992000011415204+52370-001480FM-15+0082EGBE V0203201N006710072019N0112651N1+00401+00201999999ADDGA1021+005409999GA2071+007209999GF107991999999999999999999MA1102511999999MW1001REMMET060EGBE 141520Z 32013KT 320V030 9999 FEW018 BKN024 04/02 Q1025;EQDQ01+000000PRSWM2
0190035413999992000011415504+52370-001480FM-15+0082EGBE V0203501N006210078019N0112651N1+00401+00201999999ADDGA1021+005409999GA2071+007809999GF107991999999999999999999MA1102511999999MW1611REMMET064EGBE 141550Z 35012KT 320V020 9999 -RA SCT018 BKN026 04/02 Q1025;EQDQ01+000003PRSWM1Q02    003PRSWM1
0170035413999992000011416504+52370-001480FM-15+0082EGBE V0203501N006210078019N0112651N1+00501+00201999999ADDGA1021+005409999GA2071+007809999GF107991999999999999999999MA1102611999999MW1001REMMET060EGBE 141650Z 35012KT 320V030 9999 SCT018 BKN026 05/02 Q1026;EQDQ01+000000PRSWM2
0147035413999992000011417504+52370-001480FM-15+0082EGBE V0203601N006210060019N0112651N1+00401+00201999999ADDGA1071+006009999GF107991999999999999999999MA1102711999999MW1001REMMET053EGBE 141750Z 36012KT 320V030 9999 BKN020 04/02 Q1027;EQDQ01+000000PRSWM2
0170035413999992000011418504+52370-001480FM-15+0082EGBE V0203601N006212200019N0112651N1+00401+00201999999ADDGA1021+005409999GA2021+007809999GF104991999999999999999999MA1102811999999MW1001REMMET060EGBE 141850Z 36012KT 320V030 9999 FEW018 SCT026 04/02 Q1028;EQDQ01+000000PRSWM2
0170035413999992000011419504+52370-001480FM-15+0082EGBE V0200101N006210069019N0112651N1+00401+00201999999ADDGA1021+004509999GA2071+006909999GF107991999999999999999999MA1102811999999MW1001REMMET060EGBE 141950Z 01012KT 330V050 9999 FEW015 BKN023 04/02 Q1028;EQDQ01+000000PRSWM2
0170035413999992000011420504+52370-001480FM-15+0082EGBE V0200201N006710060019N0112651N1+00401+00201999999ADDGA1021+004509999GA2071+006009999GF107991999999999999999999MA1102911999999MW1001REMMET060EGBE 142050Z 02013KT 330V060 9999 SCT015 BKN020 04/02 Q1029;EQDQ01+000000PRSWM2
0190035413999992000011421504+52370-001480FM-15+0082EGBE V0200101N006210048019N0112651N1+00401+00201999999ADDGA1021+004209999GA2071+004809999GF107991999999999999999999MA1103011999999MW1611REMMET064EGBE 142150Z 01012KT 330V050 9999 -RA SCT014 BKN016 04/02 Q1030;EQDQ01+000003PRSWM1Q02    003PRSWM1
0167035413999992000011422504+52370-001480FM-15+0082EGBE V0200101N006710042019N0112651N1+00401+00201999999ADDGA1071+004209999GF107991999999999999999999MA1103011999999MW1611REMMET057EGBE 142250Z 01013KT 320V070 9999 -RA BKN014 04/02 Q1030;EQDQ01+000003PRSWM1Q02    003PRSWM1
0147035413999992000011423504+52370-001480FM-15+0082EGBE V0200201N006710042019N0112651N1+00401+00201999999ADDGA1071+004209999GF107991999999999999999999MA1103121999999MW1001REMMET053EGBE 142350Z 02013KT 340V050 9999 BKN014 04/02 Q1031;EQDQ01+000000PRSWM2
0170035413999992000011500504+52370-001480FM-15+0082EGBE V0200201N007210045019N0112651N1+00401+00201999999ADDGA1021+003609999GA2071+004509999GF107991999999999999999999MA1103121999999MW1001REMMET060EGBE 150050Z 02014KT 350V060 9999 SCT012 BKN015 04/02 Q1031;EQDQ01+000000PRSWM2
0190035413999992000011501504+52370-001480FM-15+0082EGBE V0200301N008710036019N0112651N1+00401+00201999999ADDGA1021+003009999GA2071+003609999GF107991999999999999999999MA1103181999999MW1611REMMET064EGBE 150150Z 03017KT 360V070 9999 -RA SCT010 BKN012 04/02 Q1032;EQDQ01+000003PRSWM1Q02    003PRSWM1
0167035413999992000011502504+52370-001480FM-15+0082EGBE V0200401N007210030019N0080001N1+00401+00201999999ADDGA1071+003009999GF107991999999999999999999MA1103291999999MW1611REMMET057EGBE 150250Z 04014KT 360V080 8000 -RA BKN010 04/02 Q1033;EQDQ01+000003PRSWM1Q02    003PRSWM1
0147035413999992000011503504+52370-001480FM-15+0082EGBE V0200401N006710030019N0080001N1+00401+00201999999ADDGA1071+003009999GF107991999999999999999999MA1103291999999MW1001REMMET053EGBE 150350Z 04013KT 010V080 8000 BKN010 04/02 Q1033;EQDQ01+000000PRSWM2
0170035413999992000011507504+52370-001480FM-15+0082EGBE V0200401N005710105019N0080001N1+00401+00201999999ADDGA1021+004509999GA2071+010509999GF107991999999999999999999MA1103691999999MW1001REMMET060EGBE 150750Z 04011KT 020V090 8000 SCT015 BKN035 04/02 Q1037;EQDQ01+000000PRSWM2
0170035413999992000011508504+52370-001480FM-15+0082EGBE V0200501N004610135019N0080001N1+00401+00201999999ADDGA1021+006609999GA2071+013509999GF107991999999999999999999MA1103791999999MW1001REMMET060EGBE 150850Z 05009KT 010V080 8000 FEW022 BKN045 04/02 Q1038;EQDQ01+000000PRSWM2
0162035413999992000011509504+52370-001480FM-15+0082EGBE V0200501N004110144019N0080001N1+00401+00201999999ADDGA1021+006609999GA2071+014409999GF107991999999999999999999MA1103891999999MW1001REMMET052EGBE 150950Z 05008KT 8000 FEW022 BKN048 04/02 Q1039;EQDQ01+000000PRSWM2
0162035413999992000011510504+52370-001480FM-15+0082EGBE V0200501N005110150019N0112651N1+00401+00201999999ADDGA1021+005409999GA2071+015009999GF107991999999999999999999MA1103891999999MW1001REMMET052EGBE 151050Z 05010KT 9999 FEW018 BKN050 04/02 Q1039;EQDQ01+000000PRSWM2
0170035413999992000011511504+52370-001480FM-15+0082EGBE V0200301N005110150019N0112651N1+00501+00201999999ADDGA1021+006009999GA2071+015009999GF107991999999999999999999MA1104001999999MW1001REMMET060EGBE 151150Z 03010KT 360V060 9999 FEW020 BKN050 05/02 Q1040;EQDQ01+000000PRSWM2
0172035413999992000011512504+52370-001480FM-15+0082EGBE V0200501N004610135019N0112651N1+00501+00201999999ADDGA1021+005409999GA2071+013509099GF107991999999999999999999MA1103891999999MW1001REMMET062EGBE 151250Z 05009KT 020V080 9999 FEW018 BKN045CB 05/02 Q1039;EQDQ01+000000PRSWM2
0193035413999992000011513504+52370-001480FM-15+0082EGBE V0200501N005110120019N0112651N1+00501+00201999999ADDGA1021+004509999GA2071+012009099GF107991999999999999999999MA1104001999999MW1161REMMET067EGBE 151350Z 05010KT 020V070 9999 VCSH FEW015 BKN040CB 05/02 Q1040;EQDQ01+000003PRSWM1Q02    003PRSWM1
0149035413999992000011514504+52370-001480FM-15+0082EGBE V0200401N005710090019N0112651N1+00501+00001999999ADDGA1071+009009099GF107991999999999999999999MA1104001999999MW1001REMMET055EGBE 151450Z 04011KT 010V080 9999 BKN030CB 05/00 Q1040;EQDQ01+000000PRSWM2
0185035413999992000011515504+52370-001480FM-15+0082EGBE V0200401N004112200019N0112651N1+00501+00101999999ADDGA1021+007509999GA2021+012009099GF104991999999999999999999MA1104001999999MW1161REMMET059EGBE 151550Z 04008KT 9999 VCSH FEW025 SCT040CB 05/01 Q1040;EQDQ01+000003PRSWM1Q02    003PRSWM1
0162035413999992000011516504+52370-001480FM-15+0082EGBE V0200301N004612200019N0112651N1+00501+00101999999ADDGA1021+007509999GA2021+013509999GF104991999999999999999999MA1104101999999MW1001REMMET052EGBE 151650Z 03009KT 9999 FEW025 SCT045 05/01 Q1041;EQDQ01+000000PRSWM2
0162035413999992000011517504+52370-001480FM-15+0082EGBE V0200301N004610135019N0112651N1+00401+00101999999ADDGA1021+009609999GA2071+013509999GF107991999999999999999999MA1104101999999MW1001REMMET052EGBE 151750Z 03009KT 9999 FEW032 BKN045 04/01 Q1041;EQDQ01+000000PRSWM2
0139035413999992000011518504+52370-001480FM-15+0082EGBE V0200201N002610120019N0112651N1+00401+00101999999ADDGA1071+012009999GF107991999999999999999999MA1104201999999MW1001REMMET045EGBE 151850Z 02005KT 9999 BKN040 04/01 Q1042;EQDQ01+000000PRSWM2
0093035413999992000011606504+52370-001480FM-15+0082EGBE V0209999C00001220001CN0099001N1+00001-00201999999ADDMA1104201999999MW1001REMMET041EGBE 160650Z 00000KT CAVOK M00/M02 Q1042;EQDQ01+000000PRSWM2
0149035413999992000011607504+52370-001480FM-15+0082EGBE V0203301N001512200019N0112651N1+00001-00201999999ADDGA1021+015009999GF102991999999999999999999MA1104201999999MW1001REMMET055EGBE 160750Z 33003KT 300V360 9999 FEW050 M00/M02 Q1042;EQDQ01+000000PRSWM2
0149035413999992000011608504+52370-001480FM-15+0082EGBE V0203201N001512200019N0112651N1+00001-00101999999ADDGA1021+012009999GF102991999999999999999999MA1104101999999MW1001REMMET055EGBE 160850Z 32003KT 280V350 9999 FEW040 M00/M01 Q1041;EQDQ01+000000PRSWM2
0092035413999992000011609504+52370-001480FM-15+0082EGBE V0209999C00001220001CN0099001N1+00101-00101999999ADDMA1104201999999MW1001REMMET040EGBE 160950Z 00000KT CAVOK 01/M01 Q1042;EQDQ01+000000PRSWM2
0148035413999992000011610504+52370-001480FM-15+0082EGBE V0200401N001512200019N0112651N1+00301+00001999999ADDGA1021+012009999GF102991999999999999999999MA1104201999999MW1001REMMET054EGBE 161050Z 04003KT 010V110 9999 FEW040 03/M00 Q1042;EQDQ01+000000PRSWM2
0140035413999992000011611504+52370-001480FM-15+0082EGBE V0200101N003612200019N0112651N1+00401+00001999999ADDGA1021+010509999GF102991999999999999999999MA1104201999999MW1001REMMET046EGBE 161150Z 01007KT 9999 FEW035 04/M00 Q1042;EQDQ01+000000PRSWM2
0148035413999992000011612504+52370-001480FM-15+0082EGBE V0200301N002612200019N0112651N1+00401+00001999999ADDGA1021+010509999GF102991999999999999999999MA1104101999999MW1001REMMET054EGBE 161250Z 03005KT 350V050 9999 FEW035 04/M00 Q1041;EQDQ01+000000PRSWM2
0147035413999992000011613504+52370-001480FM-15+0082EGBE V0203301N003112200019N0112651N1+00401+00001999999ADDGA1021+010509999GF102991999999999999999999MA1104001999999MW1001REMMET053EGBE 161350Z 33006KT 300V010 9999 FEW035 04/00 Q1040;EQDQ01+000000PRSWM2
0147035413999992000011614504+52370-001480FM-15+0082EGBE V0203301N001512200019N0112651N1+00501+00101999999ADDGA1021+009009999GF102991999999999999999999MA1104001999999MW1001REMMET053EGBE 161450Z 33003KT 280V010 9999 FEW030 05/01 Q1040;EQDQ01+000000PRSWM2
0166035413999992000011618504+52370-001480FM-15+0082EGBE V0203001N002112200019N0060001N1+00301+00101999999ADDGA1021+060009999GF102991999999999999999999MA1104001999999MW1051REMMET056EGBE 161850Z 30004KT 260V350 6000 HZ FEW200 03/01 Q1040;EQDQ01+000003PRSWM1Q02    003PRSWM1
0181035413999992000011619504+52370-001480FM-15+0082EGBE V0203001N002612200019N0050001N1+00301+00101999999ADDGA1021+004509999GA2021+060009999GF104991999999999999999999MA1104001999999MW1101REMMET055EGBE 161950Z 30005KT 5000 BR FEW015 SCT200 03/01 Q1040;EQDQ01+000003PRSWM1Q02    003PRSWM1
0147035413999992000011704504+52370-001480FM-15+0082EGBE V0203101N004110018019N0060001N1+00501+00401999999ADDGA1071+001809999GF107991999999999999999999MA1103791999999MW1001REMMET053EGBE 170450Z 31008KT 280V350 6000 BKN006 05/04 Q1038;EQDQ01+000000PRSWM2
0147035413999992000011705504+52370-001480FM-15+0082EGBE V0203101N005710018019N0060001N1+00501+00401999999ADDGA1071+001809999GF107991999999999999999999MA1103791999999MW1001REMMET053EGBE 170550Z 31011KT 280V340 6000 BKN006 05/04 Q1038;EQDQ01+000000PRSWM2
0147035413999992000011709204+52370-001480FM-15+0082EGBE V0203101N005710030019N0090001N1+00601+00401999999ADDGA1071+003009999GF107991999999999999999999MA1103791999999MW1001REMMET053EGBE 170920Z 31011KT 270V360 9000 BKN010 06/04 Q1038;EQDQ01+000000PRSWM2
0147035413999992000011709504+52370-001480FM-15+0082EGBE V0203201N005110033019N0090001N1+00601+00401999999ADDGA1071+003309999GF107991999999999999999999MA1103791999999MW1001REMMET053EGBE 170950Z 32010KT 280V360 9000 BKN011 06/04 Q1038;EQDQ01+000000PRSWM2
0147035413999992000011710504+52370-001480FM-15+0082EGBE V0203201N006210033019N0112651N1+00601+00401999999ADDGA1071+003309999GF107991999999999999999999MA1103891999999MW1001REMMET053EGBE 171050Z 32012KT 290V350 9999 BKN011 06/04 Q1039;EQDQ01+000000PRSWM2
0147035413999992000011711504+52370-001480FM-15+0082EGBE V0203301N004610030019N0080001N1+00601+00401999999ADDGA1071+003009999GF107991999999999999999999MA1103891999999MW1001REMMET053EGBE 171150Z 33009KT 280V360 8000 BKN010 06/04 Q1039;EQDQ01+000000PRSWM2
0139035413999992000011712504+52370-001480FM-15+0082EGBE V0203201N005112200019N0070001N1+00701+00401999999ADDGA1021+003009999GF104991999999999999999999MA1103791999999MW1001REMMET045EGBE 171250Z 32010KT 7000 SCT010 07/04 Q1038;EQDQ01+000000PRSWM2
0139035413999992000011713504+52370-001480FM-15+0082EGBE V0203401N004612200019N0070001N1+00701+00401999999ADDGA1021+003609999GF102991999999999999999999MA1103691999999MW1001REMMET045EGBE 171350Z 34009KT 7000 FEW012 07/04 Q1037;EQDQ01+000000PRSWM2
0139035413999992000011714504+52370-001480FM-15+0082EGBE V0203301N004112200019N0080001N1+00701+00401999999ADDGA1021+009009999GF102991999999999999999999MA1103691999999MW1001REMMET045EGBE 171450Z 33008KT 8000 FEW030 07/04 Q1037;EQDQ01+000000PRSWM2
0139035413999992000011715504+52370-001480FM-15+0082EGBE V0203301N004112200019N0080001N1+00701+00401999999ADDGA1021+003309999GF104991999999999999999999MA1103691999999MW1001REMMET045EGBE 171550Z 33008KT 8000 SCT011 07/04 Q1037;EQDQ01+000000PRSWM2
0139035413999992000011716504+52370-001480FM-15+0082EGBE V0203201N005110024019N0060001N1+00501+00401999999ADDGA1071+002409999GF107991999999999999999999MA1103691999999MW1001REMMET045EGBE 171650Z 32010KT 6000 BKN008 05/04 Q1037;EQDQ01+000000PRSWM2
0139035413999992000011717504+52370-001480FM-15+0082EGBE V0203501N005712200019N0080001N1+00501+00301999999ADDGA1021+002109999GF104991999999999999999999MA1103691999999MW1001REMMET045EGBE 171750Z 35011KT 8000 SCT007 05/03 Q1037;EQDQ01+000000PRSWM2
0147035413999992000011718504+52370-001480FM-15+0082EGBE V0203301N003612200019N0070001N1+00501+00301999999ADDGA1021+002709999GF104991999999999999999999MA1103691999999MW1001REMMET053EGBE 171850Z 33007KT 290V360 7000 SCT009 05/03 Q1037;EQDQ01+000000PRSWM2
0147035413999992000011719504+52370-001480FM-15+0082EGBE V0203301N003110027019N0090001N1+00501+00301999999ADDGA1071+002709999GF107991999999999999999999MA1103691999999MW1001REMMET053EGBE 171950Z 33006KT 300V010 9000 BKN009 05/03 Q1037;EQDQ01+000000PRSWM2
0147035413999992000011720504+52370-001480FM-15+0082EGBE V0203301N002112200019N0090001N1+00401+00301999999ADDGA1021+002709999GF102991999999999999999999MA1103791999999MW1001REMMET053EGBE 172050Z 33004KT 300V010 9000 FEW009 04/03 Q1038;EQDQ01+000000PRSWM2
0098035413999992000011721504+52370-001480FM-15+0082EGBE V0203201N002112200019N0090001N1+00401+00301999999ADDMA1103791999999MW1001REMMET046EGBE 172150Z 32004KT 270V350 9000 04/03 Q1038;EQDQ01+000000PRSWM2
0090035413999992000011722504+52370-001480FM-15+0082EGBE V0203201N001512200019N0090001N1+00401+00301999999ADDMA1103691999999MW1001REMMET038EGBE 172250Z 32003KT 9000 04/03 Q1037;EQDQ01+000000PRSWM2
0098035413999992000011723504+52370-001480FM-15+0082EGBE V0202701N002612200019N0090001N1+00401+00301999999ADDMA1103691999999MW1001REMMET046EGBE 172350Z 27005KT 240V310 9000 04/03 Q1037;EQDQ01+000000PRSWM2
0098035413999992000011800504+52370-001480FM-15+0082EGBE V0203101N001512200019N0050001N1+00301+00201999999ADDMA1103691999999MW1001REMMET046EGBE 180050Z 31003KT 270V340 5000 03/02 Q1037;EQDQ01+000000PRSWM2
0147035413999992000011801504+52370-001480FM-15+0082EGBE V0203301N003610012019N0050001N1+00301+00301999999ADDGA1071+001209999GF107991999999999999999999MA1103691999999MW1001REMMET053EGBE 180150Z 33007KT 290V020 5000 BKN004 03/03 Q1037;EQDQ01+000000PRSWM2
0170035413999992000011802504+52370-001480FM-15+0082EGBE V0203301N003610012019N0045001N1+00301+00301999999ADDGA1021+000909999GA2071+001209999GF107991999999999999999999MA1103591999999MW1001REMMET060EGBE 180250Z 33007KT 290V360 4500 SCT003 BKN004 03/03 Q1036;EQDQ01+000000PRSWM2
0098035413999992000011803504+52370-001480FM-15+0082EGBE V0203101N002112200019N0050001N1+00301+00201999999ADDMA1103591999999MW1001REMMET046EGBE 180350Z 31004KT 270V350 5000 03/02 Q1036;EQDQ01+000000PRSWM2
0090035413999992000011805504+52370-001480FM-15+0082EGBE V0203001N002112200019N0060001N1+00301+00201999999ADDMA1103491999999MW1001REMMET038EGBE 180550Z 30004KT 6000 03/02 Q1035;EQDQ01+000000PRSWM2
0173035413999992000011807504+52370-001480FM-15+0082EGBE V0203201N004110009019N0112651N1+00401+00301999999ADDGA1021+000609999GA2071+000909999GF107991999999999999999999MA1103591999999MW1001REMMET063EGBE 180750Z 32008KT 290V350 BR 2200 SCT002 BKN003 04/03 Q1036;EQDQ01+000000PRSWM2
0189035413999992000011808504+52370-001480FM-15+0082EGBE V0203301N004610009019N0020001N1+00401+00401999999ADDGA1021+000609999GA2071+000909999GF107991999999999999999999MA1103591999999MW1101REMMET063EGBE 180850Z 33009KT 300V360 2000 BR SCT002 BKN003 04/04 Q1036;EQDQ01+000003PRSWM1Q02    003PRSWM1
0189035413999992000011809504+52370-001480FM-15+0082EGBE V0203401N004110015019N0028001N1+00501+00401999999ADDGA1021+000909999GA2071+001509999GF107991999999999999999999MA1103591999999MW1101REMMET063EGBE 180950Z 34008KT 300V010 2800 BR SCT003 BKN005 05/04 Q1036;EQDQ01+000003PRSWM1Q02    003PRSWM1
0189035413999992000011810504+52370-001480FM-15+0082EGBE V0203401N005110021019N0040001N1+00501+00501999999ADDGA1021+001209999GA2071+002109999GF107991999999999999999999MA1103591999999MW1101REMMET063EGBE 181050Z 34010KT 310V010 4000 BR SCT004 BKN007 05/05 Q1036;EQDQ01+000003PRSWM1Q02    003PRSWM1
0189035413999992000011811504+52370-001480FM-15+0082EGBE V0203501N004112200019N0050001N1+00601+00501999999ADDGA1021+001809999GA2021+003009999GF104991999999999999999999MA1103691999999MW1101REMMET063EGBE 181150Z 35008KT 310V020 5000 BR FEW006 SCT010 06/05 Q1037;EQDQ01+000003PRSWM1Q02    003PRSWM1
0189035413999992000011812504+52370-001480FM-15+0082EGBE V0203501N004110072019N0050001N1+00601+00501999999ADDGA1021+001209999GA2071+007209999GF107991999999999999999999MA1103591999999MW1101REMMET063EGBE 181250Z 35008KT 320V020 5000 BR FEW004 BKN024 06/05 Q1036;EQDQ01+000003PRSWM1Q02    003PRSWM1
0162035413999992000011813504+52370-001480FM-15+0082EGBE V0203301N003610069019N0060001N1+00701+00501999999ADDGA1021+001809999GA2071+006909999GF107991999999999999999999MA1103591999999MW1001REMMET052EGBE 181350Z 33007KT 6000 FEW006 BKN023 07/05 Q1036;EQDQ01+000000PRSWM2
0147035413999992000011814504+52370-001480FM-15+0082EGBE V0203401N003610072019N0070001N1+00701+00501999999ADDGA1071+007209999GF107991999999999999999999MA1103591999999MW1001REMMET053EGBE 181450Z 34007KT 300V020 7000 BKN024 07/05 Q1036;EQDQ01+000000PRSWM2
0147035413999992000011815504+52370-001480FM-15+0082EGBE V0203401N003610069019N0060001N1+00701+00501999999ADDGA1071+006909999GF107991999999999999999999MA1103591999999MW1001REMMET053EGBE 181550Z 34007KT 300V010 6000 BKN023 07/05 Q1036;EQDQ01+000000PRSWM2
0162035413999992000011816504+52370-001480FM-15+0082EGBE V0203301N002610066019N0050001N1+00601+00501999999ADDGA1021+001809999GA2071+006609999GF107991999999999999999999MA1103591999999MW1001REMMET052EGBE 181650Z 33005KT 5000 FEW006 BKN022 06/05 Q1036;EQDQ01+000000PRSWM2
0170035413999992000011817504+52370-001480FM-15+0082EGBE V0203301N002610060019N0060001N1+00601+00501999999ADDGA1021+001809999GA2071+006009999GF107991999999999999999999MA1103591999999MW1001REMMET060EGBE 181750Z 33005KT 290V010 6000 FEW006 BKN020 06/05 Q1036;EQDQ01+000000PRSWM2
0170035413999992000011818504+52370-001480FM-15+0082EGBE V0203301N003110066019N0060001N1+00601+00501999999ADDGA1021+001809999GA2071+006609999GF107991999999999999999999MA1103591999999MW1001REMMET060EGBE 181850Z 33006KT 290V360 6000 FEW006 BKN022 06/05 Q1036;EQDQ01+000000PRSWM2
0147035413999992000011819504+52370-001480FM-15+0082EGBE V0203501N003610060019N0112651N1+00601+00401999999ADDGA1071+006009999GF107991999999999999999999MA1103691999999MW1001REMMET053EGBE 181950Z 35007KT 310V040 9999 BKN020 06/04 Q1037;EQDQ01+000000PRSWM2
0147035413999992000011820504+52370-001480FM-15+0082EGBE V0203201N002610066019N0112651N1+00601+00401999999ADDGA1071+006609999GF107991999999999999999999MA1103691999999MW1001REMMET053EGBE 182050Z 32005KT 290V360 9999 BKN022 06/04 Q1037;EQDQ01+000000PRSWM2
0147035413999992000011821504+52370-001480FM-15+0082EGBE V0203501N003610069019N0112651N1+00601+00401999999ADDGA1071+006909999GF107991999999999999999999MA1103691999999MW1001REMMET053EGBE 182150Z 35007KT 310V010 9999 BKN023 06/04 Q1037;EQDQ01+000000PRSWM2
0147035413999992000011822504+52370-001480FM-15+0082EGBE V0203501N002610066019N0112651N1+00601+00401999999ADDGA1071+006609999GF107991999999999999999999MA1103691999999MW1001REMMET053EGBE 182250Z 35005KT 310V030 9999 BKN022 06/04 Q1037;EQDQ01+000000PRSWM2
0147035413999992000011823504+52370-001480FM-15+0082EGBE V0203201N002610072019N0112651N1+00601+00401999999ADDGA1071+007209999GF107991999999999999999999MA1103691999999MW1001REMMET053EGBE 182350Z 32005KT 280V350 9999 BKN024 06/04 Q1037;EQDQ01+000000PRSWM2
0139035413999992000011900504+52370-001480FM-15+0082EGBE V0203101N003110117019N0060001N1+00501+00301999999ADDGA1081+011709999GF108991999999999999999999MA1103691999999MW1001REMMET045EGBE 190050Z 31006KT 6000 OVC039 05/03 Q1037;EQDQ01+000000PRSWM2
0139035413999992000011901504+52370-001480FM-15+0082EGBE V0203101N002110108019N0112651N1+00501+00401999999ADDGA1071+010809999GF107991999999999999999999MA1103591999999MW1001REMMET045EGBE 190150Z 31004KT 9999 BKN036 05/04 Q1036;EQDQ01+000000PRSWM2
0139035413999992000011902504+52370-001480FM-15+0082EGBE V0203301N001510117019N0112651N1+00501+00401999999ADDGA1071+011709999GF107991999999999999999999MA1103691999999MW1001REMMET045EGBE 190250Z 33003KT 9999 BKN039 05/04 Q1037;EQDQ01+000000PRSWM2
0139035413999992000011903504+52370-001480FM-15+0082EGBE V0203201N003610117019N0112651N1+00501+00401999999ADDGA1071+011709999GF107991999999999999999999MA1103691999999MW1001REMMET045EGBE 190350Z 32007KT 9999 BKN039 05/04 Q1037;EQDQ01+000000PRSWM2
0147035413999992000011904504+52370-001480FM-15+0082EGBE V0203201N004110120019N0060001N1+00501+00401999999ADDGA1071+012009999GF107991999999999999999999MA1103691999999MW1001REMMET053EGBE 190450Z 32008KT 290V360 6000 BKN040 05/04 Q1037;EQDQ01+000000PRSWM2
0166035413999992000011905504+52370-001480FM-15+0082EGBE V0203301N003610120019N0045001N1+00501+00401999999ADDGA1071+012009999GF107991999999999999999999MA1103691999999MW1101REMMET056EGBE 190550Z 33007KT 300V360 4500 BR BKN040 05/04 Q1037;EQDQ01+000003PRSWM1Q02    003PRSWM1
0166035413999992000011906504+52370-001480FM-15+0082EGBE V0203301N003610111019N0040001N1+00501+00401999999ADDGA1071+011109999GF107991999999999999999999MA1103691999999MW1101REMMET056EGBE 190650Z 33007KT 290V350 4000 BR BKN037 05/04 Q1037;EQDQ01+000003PRSWM1Q02    003PRSWM1
0189035413999992000011907504+52370-001480FM-15+0082EGBE V0203301N003610114019N0050001N1+00501+00401999999ADDGA1021+006609999GA2071+011409999GF107991999999999999999999MA1103691999999MW1101REMMET063EGBE 190750Z 33007KT 300V360 5000 BR SCT022 BKN038 05/04 Q1037;EQDQ01+000003PRSWM1Q02    003PRSWM1
0170035413999992000011908504+52370-001480FM-15+0082EGBE V0203301N003110105019N0070001N1+00501+00401999999ADDGA1021+003609999GA2071+010509999GF107991999999999999999999MA1103691999999MW1001REMMET060EGBE 190850Z 33006KT 290V360 7000 FEW012 BKN035 05/04 Q1037;EQDQ01+000000PRSWM2
0170035413999992000011909504+52370-001480FM-15+0082EGBE V0203301N003110114019N0060001N1+00601+00401999999ADDGA1021+006009999GA2071+011409999GF107991999999999999999999MA1103791999999MW1001REMMET060EGBE 190950Z 33006KT 290V010 6000 FEW020 BKN038 06/04 Q1038;EQDQ01+000000PRSWM2
0170035413999992000011910504+52370-001480FM-15+0082EGBE V0203501N004110075019N0080001N1+00701+00401999999ADDGA1021+006009999GA2071+007509999GF107991999999999999999999MA1103791999999MW1001REMMET060EGBE 191050Z 35008KT 290V030 8000 FEW020 BKN025 07/04 Q1038;EQDQ01+000000PRSWM2
0170035413999992000011911504+52370-001480FM-15+0082EGBE V0200101N004612200019N0112651N1+00701+00301999999ADDGA1021+005409999GA2021+008409999GF104991999999999999999999MA1103791999999MW1001REMMET060EGBE 191150Z 01009KT 330V040 9999 FEW018 SCT028 07/03 Q1038;EQDQ01+000000PRSWM2
0170035413999992000011912504+52370-001480FM-15+0082EGBE V0200201N004610072019N0112651N1+00701+00301999999ADDGA1021+005409999GA2071+007209999GF107991999999999999999999MA1103791999999MW1001REMMET060EGBE 191250Z 02009KT 330V060 9999 FEW018 BKN024 07/03 Q1038;EQDQ01+000000PRSWM2
0170035413999992000011914204+52370-001480FM-15+0082EGBE V0200301N004110084019N0112651N1+00701+00201999999ADDGA1021+005409999GA2071+008409999GF107991999999999999999999MA1103791999999MW1001REMMET060EGBE 191420Z 03008KT 350V060 9999 FEW018 BKN028 07/02 Q1038;EQDQ01+000000PRSWM2
0170035413999992000011915204+52370-001480FM-15+0082EGBE V0200401N003110090019N0112651N1+00601+00101999999ADDGA1021+006009999GA2071+009009999GF107991999999999999999999MA1103791999999MW1001REMMET060EGBE 191520Z 04006KT 010V070 9999 FEW020 BKN030 06/01 Q1038;EQDQ01+000000PRSWM2
0170035413999992000011915504+52370-001480FM-15+0082EGBE V0200501N002112200019N0112651N1+00601+00101999999ADDGA1021+006009999GA2021+009009999GF104991999999999999999999MA1103791999999MW1001REMMET060EGBE 191550Z 05004KT 020V080 9999 FEW020 SCT030 06/01 Q1038;EQDQ01+000000PRSWM2
0139035413999992000011917504+52370-001480FM-15+0082EGBE V0209999C000012200019N0112651N1+00301+00101999999ADDGA1021+009009999GF102991999999999999999999MA1103891999999MW1001REMMET045EGBE 191750Z 00000KT 9999 FEW030 03/01 Q1039;EQDQ01+000000PRSWM2
0091035413999992000011918504+52370-001480FM-15+0082EGBE V0209999C00001220001CN0099001N1+00301+00101999999ADDMA1103891999999MW1001REMMET039EGBE 191850Z 00000KT CAVOK 03/01 Q1039;EQDQ01+000000PRSWM2
0092035413999992000011920504+52370-001480FM-15+0082EGBE V0209999C00001220001CN0099001N1+00101+00001999999ADDMA1103791999999MW1001REMMET040EGBE 192050Z 00000KT CAVOK 01/M00 Q1038;EQDQ01+000000PRSWM2
0143035413999992000011921504+52370-001480FM-15+0082EGBE V0202501N001012200019N0112651N1+00001-00101999999ADDGF100991999999999999999999MA1103891999999MW1121REMMET049EGBE 192150Z 25002KT 9999 MIFG SKC M00/M01 Q1039;EQDQ01+000003PRSWM1Q02    003PRSWM1
0143035413999992000011922504+52370-001480FM-15+0082EGBE V0209999C000012200019N0112651N1-00101-00101999999ADDGF100991999999999999999999MA1103891999999MW1121REMMET049EGBE 192250Z 00000KT 9999 MIFG SKC M01/M01 Q1039;EQDQ01+000003PRSWM1Q02    003PRSWM1
0141035413999992000011923504+52370-001480FM-15+0082EGBE V0202301N001510084019N0080001N1+00001-00101999999ADDGA1071+008409999GF107991999999999999999999MA1103791999999MW1001REMMET047EGBE 192350Z 23003KT 8000 BKN028 M00/M01 Q1038;EQDQ01+000000PRSWM2
0141035413999992000012000504+52370-001480FM-15+0082EGBE V0202101N001510090019N0080001N1+00001+00001999999ADDGA1071+009009999GF107991999999999999999999MA1103791999999MW1001REMMET047EGBE 200050Z 21003KT 8000 BKN030 M00/M00 Q1038;EQDQ01+000000PRSWM2
0139035413999992000012001504+52370-001480FM-15+0082EGBE V0202301N001510099019N0060001N1+00101+00001999999ADDGA1071+009909999GF107991999999999999999999MA1103691999999MW1001REMMET045EGBE 200150Z 23003KT 6000 BKN033 01/00 Q1037;EQDQ01+000000PRSWM2
0139035413999992000012002504+52370-001480FM-15+0082EGBE V0202401N001510090019N0060001N1+00101+00101999999ADDGA1071+009009999GF107991999999999999999999MA1103691999999MW1001REMMET045EGBE 200250Z 24003KT 6000 BKN030 01/01 Q1037;EQDQ01+000000PRSWM2
0166035413999992000012003504+52370-001480FM-15+0082EGBE V0202501N002110084019N0050001N1+00101+00101999999ADDGA1071+008409999GF107991999999999999999999MA1103591999999MW1101REMMET056EGBE 200350Z 25004KT 210V280 5000 BR BKN028 01/01 Q1036;EQDQ01+000003PRSWM1Q02    003PRSWM1
0158035413999992000012004504+52370-001480FM-15+0082EGBE V0202301N001510081019N0050001N1+00201+00101999999ADDGA1071+008109999GF107991999999999999999999MA1103591999999MW1101REMMET048EGBE 200450Z 23003KT 5000 BR BKN027 02/01 Q1036;EQDQ01+000003PRSWM1Q02    003PRSWM1
0123035413999992000012005504+52370-001480FM-15+0082EGBE V0202401N002112200019N0050001N1+00301+00201999999ADDMA1103491999999MW1101REMMET055EGBE 200550Z 24004KT 200V260 5000 BR BN027 03/02 Q1035;EQDQ01+000003PRSWM1Q02    003PRSWM1
0139035413999992000012006504+52370-001480FM-15+0082EGBE V0202501N002610081019N0080001N1+00301+00201999999ADDGA1071+008109999GF107991999999999999999999MA1103391999999MW1001REMMET045EGBE 200650Z 25005KT 8000 BKN027 03/02 Q1034;EQDQ01+000000PRSWM2
0139035413999992000012007504+52370-001480FM-15+0082EGBE V0202401N002610081019N0080001N1+00301+00201999999ADDGA1071+008109999GF107991999999999999999999MA1103391999999MW1001REMMET045EGBE 200750Z 24005KT 8000 BKN027 03/02 Q1034;EQDQ01+000000PRSWM2
0139035413999992000012008504+52370-001480FM-15+0082EGBE V0202601N002610075019N0060001N1+00301+00201999999ADDGA1071+007509999GF107991999999999999999999MA1103391999999MW1001REMMET045EGBE 200850Z 26005KT 6000 BKN025 03/02 Q1034;EQDQ01+000000PRSWM2
0147035413999992000012009504+52370-001480FM-15+0082EGBE V0202701N002610078019N0060001N1+00401+00201999999ADDGA1071+007809999GF107991999999999999999999MA1103391999999MW1001REMMET053EGBE 200950Z 27005KT 240V300 6000 BKN026 04/02 Q1034;EQDQ01+000000PRSWM2
0162035413999992000012010504+52370-001480FM-15+0082EGBE V0202901N002110075019N0060001N1+00401+00201999999ADDGA1021+006009999GA2071+007509999GF107991999999999999999999MA1103391999999MW1001REMMET052EGBE 201050Z 29004KT 6000 FEW020 BKN025 04/02 Q1034;EQDQ01+000000PRSWM2
0147035413999992000012011504+52370-001480FM-15+0082EGBE V0203201N004110072019N0070001N1+00501+00101999999ADDGA1071+007209999GF107991999999999999999999MA1103391999999MW1001REMMET053EGBE 201150Z 32008KT 280V340 7000 BKN024 05/01 Q1034;EQDQ01+000000PRSWM2
0170035413999992000012012504+52370-001480FM-15+0082EGBE V0203201N004610078019N0080001N1+00501+00101999999ADDGA1021+005409999GA2071+007809999GF107991999999999999999999MA1103291999999MW1001REMMET060EGBE 201250Z 32009KT 280V340 8000 SCT018 BKN026 05/01 Q1033;EQDQ01+000000PRSWM2
0147035413999992000012013504+52370-001480FM-15+0082EGBE V0203001N004610066019N0080001N1+00501+00101999999ADDGA1071+006609999GF107991999999999999999999MA1103291999999MW1001REMMET053EGBE 201350Z 30009KT 260V340 8000 BKN022 05/01 Q1033;EQDQ01+000000PRSWM2
0170035413999992000012014504+52370-001480FM-15+0082EGBE V0203001N005712200019N0090001N1+00501+00101999999ADDGA1021+007509999GA2021+012609999GF104991999999999999999999MA1103181999999MW1001REMMET060EGBE 201450Z 30011KT 270V340 9000 FEW025 SCT042 05/01 Q1032;EQDQ01+000000PRSWM2
0170035413999992000012015504+52370-001480FM-15+0082EGBE V0203301N005110120019N0070001N1+00501+00101999999ADDGA1021+005409999GA2071+012009999GF107991999999999999999999MA1103181999999MW1001REMMET060EGBE 201550Z 33010KT 290V010 7000 SCT018 BKN040 05/01 Q1032;EQDQ01+000000PRSWM2
0162035413999992000012016504+52370-001480FM-15+0082EGBE V0203301N004610117019N0070001N1+00501+00101999999ADDGA1021+006009999GA2071+011709999GF107991999999999999999999MA1103291999999MW1001REMMET052EGBE 201650Z 33009KT 7000 SCT020 BKN039 05/01 Q1033;EQDQ01+000000PRSWM2
0147035413999992000012017504+52370-001480FM-15+0082EGBE V0203301N003610117019N0112651N1+00501+00201999999ADDGA1071+011709999GF107991999999999999999999MA1103291999999MW1001REMMET053EGBE 201750Z 33007KT 280V010 9999 BKN039 05/02 Q1033;EQDQ01+000000PRSWM2
0147035413999992000012018504+52370-001480FM-15+0082EGBE V0203201N002612200019N0112651N1+00301+00101999999ADDGA1021+011409999GF102991999999999999999999MA1103291999999MW1001REMMET053EGBE 201850Z 32005KT 280V350 9999 FEW038 03/01 Q1033;EQDQ01+000000PRSWM2
0099035413999992000012019504+52370-001480FM-15+0082EGBE V0203101N00211220001CN0099001N1+00301+00101999999ADDMA1103391999999MW1001REMMET047EGBE 201950Z 31004KT 270V360 CAVOK 03/01 Q1034;EQDQ01+000000PRSWM2
0147035413999992000012020504+52370-001480FM-15+0082EGBE V0203101N002610114019N0112651N1+00301+00201999999ADDGA1071+011409999GF107991999999999999999999MA1103391999999MW1001REMMET053EGBE 202050Z 31005KT 280V350 9999 BKN038 03/02 Q1034;EQDQ01+000000PRSWM2
0147035413999992000012021504+52370-001480FM-15+0082EGBE V0203201N002112200019N0112651N1+00301+00201999999ADDGA1021+012009999GF104991999999999999999999MA1103391999999MW1001REMMET053EGBE 202150Z 32004KT 280V350 9999 SCT040 03/02 Q1034;EQDQ01+000000PRSWM2
0139035413999992000012022504+52370-001480FM-15+0082EGBE V0209999C000012200019N0070001N1+00301+00201999999ADDGA1021+009009999GF104991999999999999999999MA1103391999999MW1001REMMET045EGBE 202250Z 00000KT 7000 SCT030 03/02 Q1034;EQDQ01+000000PRSWM2
0139035413999992000012023504+52370-001480FM-15+0082EGBE V0209999C000012200019N0090001N1+00401+00201999999ADDGA1021+008409999GF104991999999999999999999MA1103391999999MW1001REMMET045EGBE 202350Z 00000KT 9000 SCT028 04/02 Q1034;EQDQ01+000000PRSWM2
0139035413999992000012100504+52370-001480FM-15+0082EGBE V0209999C000010090019N0080001N1+00401+00201999999ADDGA1071+009009999GF107991999999999999999999MA1103391999999MW1001REMMET045EGBE 210050Z 00000KT 8000 BKN030 04/02 Q1034;EQDQ01+000000PRSWM2
0162035413999992000012101504+52370-001480FM-15+0082EGBE V0202501N001510114019N0080001N1+00301+00201999999ADDGA1021+009609999GA2071+011409999GF107991999999999999999999MA1103391999999MW1001REMMET052EGBE 210150Z 25003KT 8000 SCT032 BKN038 03/02 Q1034;EQDQ01+000000PRSWM2
0147035413999992000012102504+52370-001480FM-15+0082EGBE V0202801N001510120019N0112651N1+00401+00201999999ADDGA1071+012009999GF107991999999999999999999MA1103391999999MW1001REMMET053EGBE 210250Z 28003KT 250V310 9999 BKN040 04/02 Q1034;EQDQ01+000000PRSWM2
0147035413999992000012103504+52370-001480FM-15+0082EGBE V0202901N002112200019N0112651N1+00401+00201999999ADDGA1021+012609999GF104991999999999999999999MA1103391999999MW1001REMMET053EGBE 210350Z 29004KT 250V330 9999 SCT042 04/02 Q1034;EQDQ01+000000PRSWM2
0139035413999992000012104504+52370-001480FM-15+0082EGBE V0203301N003610126019N0080001N1+00301+00201999999ADDGA1071+012609999GF107991999999999999999999MA1103391999999MW1001REMMET045EGBE 210450Z 33007KT 8000 BKN042 03/02 Q1034;EQDQ01+000000PRSWM2
0139035413999992000012105504+52370-001480FM-15+0082EGBE V0203301N002610126019N0060001N1+00301+00201999999ADDGA1071+012609999GF107991999999999999999999MA1103391999999MW1001REMMET045EGBE 210550Z 33005KT 6000 BKN042 03/02 Q1034;EQDQ01+000000PRSWM2
0162035413999992000012106504+52370-001480FM-15+0082EGBE V0203201N002610120019N0060001N1+00301+00201999999ADDGA1021+002409999GA2071+012009999GF107991999999999999999999MA1103391999999MW1001REMMET052EGBE 210650Z 32005KT 6000 SCT008 BKN040 03/02 Q1034;EQDQ01+000000PRSWM2
0181035413999992000012107504+52370-001480FM-15+0082EGBE V0203201N003110090019N0045001N1+00401+00301999999ADDGA1021+002409999GA2081+009009999GF108991999999999999999999MA1103391999999MW1101REMMET055EGBE 210750Z 32006KT 4500 BR SCT008 OVC030 04/03 Q1034;EQDQ01+000003PRSWM1Q02    003PRSWM1
0139035413999992000012108504+52370-001480FM-15+0082EGBE V0203201N003610126019N0060001N1+00401+00301999999ADDGA1071+012609999GF107991999999999999999999MA1103391999999MW1001REMMET045EGBE 210850Z 32007KT 6000 BKN042 04/03 Q1034;EQDQ01+000000PRSWM2
0147035413999992000012109504+52370-001480FM-15+0082EGBE V0203001N004612200019N0070001N1+00501+00301999999ADDGA1021+012609999GF104991999999999999999999MA1103391999999MW1001REMMET053EGBE 210950Z 30009KT 270V340 7000 SCT042 05/03 Q1034;EQDQ01+000000PRSWM2
0147035413999992000012110504+52370-001480FM-15+0082EGBE V0203201N004112200019N0070001N1+00601+00301999999ADDGA1021+012009999GF102991999999999999999999MA1103491999999MW1001REMMET053EGBE 211050Z 32008KT 270V350 7000 FEW040 06/03 Q1035;EQDQ01+000000PRSWM2
0147035413999992000012111504+52370-001480FM-15+0082EGBE V0203201N004612200019N0070001N1+00601+00301999999ADDGA1021+002709999GF102991999999999999999999MA1103491999999MW1001REMMET053EGBE 211150Z 32009KT 280V350 7000 FEW009 06/03 Q1035;EQDQ01+000000PRSWM2
0147035413999992000012112504+52370-001480FM-15+0082EGBE V0203301N005112200019N0090001N1+00701+00301999999ADDGA1021+003909999GF102991999999999999999999MA1103391999999MW1001REMMET053EGBE 211250Z 33010KT 290V360 9000 FEW013 07/03 Q1034;EQDQ01+000000PRSWM2
0147035413999992000012113504+52370-001480FM-15+0082EGBE V0203101N004612200019N0070001N1+00601+00301999999ADDGA1021+003909999GF104991999999999999999999MA1103291999999MW1001REMMET053EGBE 211350Z 31009KT 280V340 7000 SCT013 06/03 Q1033;EQDQ01+000000PRSWM2
0147035413999992000012114504+52370-001480FM-15+0082EGBE V0203301N003612200019N0070001N1+00701+00301999999ADDGA1021+004209999GF102991999999999999999999MA1103291999999MW1001REMMET053EGBE 211450Z 33007KT 290V010 7000 FEW014 07/03 Q1033;EQDQ01+000000PRSWM2
0147035413999992000012115504+52370-001480FM-15+0082EGBE V0203301N002612200019N0090001N1+00601+00301999999ADDGA1021+004509999GF102991999999999999999999MA1103291999999MW1001REMMET053EGBE 211550Z 33005KT 290V360 9000 FEW015 06/03 Q1033;EQDQ01+000000PRSWM2
0090035413999992000012117504+52370-001480FM-15+0082EGBE V0203001N003112200019N0060001N1+00601+00201999999ADDMA1103121999999MW1001REMMET038EGBE 211750Z 30006KT 6000 06/02 Q1031;EQDQ01+000000PRSWM2
0090035413999992000012118504+52370-001480FM-15+0082EGBE V0202901N003112200019N0060001N1+00601+00201999999ADDMA1103121999999MW1001REMMET038EGBE 211850Z 29006KT 6000 06/02 Q1031;EQDQ01+000000PRSWM2
0162035413999992000012119504+52370-001480FM-15+0082EGBE V0202601N002612200019N0112651N1+00501+00201999999ADDGA1021+007509999GA2021+012009999GF104991999999999999999999MA1103121999999MW1001REMMET052EGBE 211950Z 26005KT 9999 FEW025 SCT040 05/02 Q1031;EQDQ01+000000PRSWM2
0162035413999992000012120504+52370-001480FM-15+0082EGBE V0202501N004110135019N0112651N1+00501+00201999999ADDGA1021+007509999GA2071+013509999GF107991999999999999999999MA1103011999999MW1001REMMET052EGBE 212050Z 25008KT 9999 FEW025 BKN045 05/02 Q1030;EQDQ01+000000PRSWM2
0170035413999992000012121504+52370-001480FM-15+0082EGBE V0202701N004112200019N0112651N1+00501+00201999999ADDGA1021+006609999GA2021+013509999GF104991999999999999999999MA1102911999999MW1001REMMET060EGBE 212150Z 27008KT 240V300 9999 FEW022 SCT045 05/02 Q1029;EQDQ01+000000PRSWM2
0147035413999992000012122504+52370-001480FM-15+0082EGBE V0202601N004112200019N0112651N1+00501+00201999999ADDGA1021+006609999GF104991999999999999999999MA1102811999999MW1001REMMET053EGBE 212250Z 26008KT 230V290 9999 SCT022 05/02 Q1028;EQDQ01+000000PRSWM2
0213035413999992000012123504+52370-001480FM-15+0082EGBE V0202701N004110066019N0112651N1+00501+00301999999ADDGA1021+004509999GA2071+006609999GA3071+009609999GF107991999999999999999999MA1102711999999MW1611REMMET071EGBE 212350Z 27008KT 240V300 9999 -RA SCT015 BKN022 BKN032 05/03 Q1027;EQDQ01+000003PRSWM1Q02    003PRSWM1
0170035413999992000012200504+52370-001480FM-15+0082EGBE V0202801N005112200019N0112651N1+00501+00201999999ADDGA1021+004509999GA2021+006609999GF104991999999999999999999MA1102611999999MW1001REMMET060EGBE 220050Z 28010KT 250V310 9999 FEW015 SCT022 05/02 Q1026;EQDQ01+000000PRSWM2
0170035413999992000012201504+52370-001480FM-15+0082EGBE V0202601N004112200019N0112651N1+00401+00101999999ADDGA1021+005409999GA2021+008409999GF104991999999999999999999MA1102511999999MW1001REMMET060EGBE 220150Z 26008KT 230V290 9999 FEW018 SCT028 04/01 Q1025;EQDQ01+000000PRSWM2
0201035413999992000012206504+52370-001480FM-15+0082EGBE V0203101N011810078019N0112651N1+00701+00301999999ADDGA1021+006009999GA2071+007809999GF107991999999999999999999MA1101801999999MW1611OC101751REMMET067EGBE 220650Z 31023G34KT 230V290 9999 -RA SCT020 BKN026 07/03 Q1018;EQDQ01+000003PRSWM1Q02    003PRSWM1
0170035413999992000012207504+52370-001480FM-15+0082EGBE V0203201N009812200019N0112651N1+00701+00301999999ADDGA1021+007809999GA2021+013509999GF104991999999999999999999MA1101801999999MW1001REMMET060EGBE 220750Z 32019KT 280V350 9999 SCT026 SCT045 07/03 Q1018;EQDQ01+000000PRSWM2
0170035413999992000012208504+52370-001480FM-15+0082EGBE V0203201N007712200019N0112651N1+00601+00201999999ADDGA1021+006609999GA2021+008109999GF102991999999999999999999MA1101801999999MW1001REMMET060EGBE 220850Z 32015KT 290V010 9999 FEW022 FEW027 06/02 Q1018;EQDQ01+000000PRSWM2
0147035413999992000012209504+52370-001480FM-15+0082EGBE V0203301N007710081019N0112651N1+00601+00201999999ADDGA1071+008109999GF107991999999999999999999MA1101801999999MW1001REMMET053EGBE 220950Z 33015KT 260V360 9999 BKN027 06/02 Q1018;EQDQ01+000000PRSWM2
0158035413999992000012210504+52370-001480FM-15+0082EGBE V0203301N009812200019N0112651N1+00701+00201999999ADDGA1021+007809999GF104991999999999999999999MA1101801999999MW1001OC101541REMMET056EGBE 221050Z 33019G30KT 290V020 9999 SCT026 07/02 Q1018;EQDQ01+000000PRSWM2
0158035413999992000012211504+52370-001480FM-15+0082EGBE V0203301N009310087019N0112651N1+00701+00101999999ADDGA1071+008709999GF107991999999999999999999MA1101801999999MW1001OC101491REMMET056EGBE 221150Z 33018G29KT 290V010 9999 BKN029 07/01 Q1018;EQDQ01+000000PRSWM2
