0360042500999992000010100004+64170-051750FM-12+0070BGGH V0201701N007210141019N0050001N1-00571-00861096211ADDAA103000791GA1011+012309999GA2081+014109999GF108991999999012501999999MA1999999095191MD1210191+9999REMSYN250AAXX  01004 04250 //650 81714 11057 21086 39519 49621 52019 60021 75465 333 69907 81/41 88/47 555 61990 62990 63990 71051 72099 73069 75050 888 000166 010170 020006 030004 040139 050149 900163 910134 300806 310782 401057 411056 421055 431057 700000 7
0344042500999992000010103004+64170-051750FM-12+0070BGGH V0203101N008710021019N9999999N1-00631-00701096491ADDAA103001091GA1091+002109999GF109991091999999999999999MA1999999095461MD1210271+9999REMSYN250AAXX  01034 04250 2//// 93117 11063 21070 39546 49649 52027 333 60017 89/07 555 63018 64004 65066 66993 67029 68003 74016 75104 888 000309 010298 020004 030012 040165 050120 900165 910095 300944 310948 401063 411060 421057 431063 700000 710004 720000
0127042500999992000010106004+64170-051750FM-12+0070BGGH V0203101N012310063019N9999999N1-00601-00771096751ADDAA103001091GA1031+005409999GA2071+006309999GF107991999999004501999999KA1999M-00481KA2999N-00681MA1999999095721MD1210261+9999
0117042500999992000010109004+64170-051750FM-12+0070BGGH V0203201N011810087019N9999999N1-00671-00801097091ADDAA103013091GA1011+003009999GA2031+007509999GA3071+008709999GF107991999999004501999999MA1999999096051MD1210331+9999
0117042500999992000010112004+64170-051750FM-12+0070BGGH V0203201N013410048019N9999999N1-00691-00791097401ADDAA103022191GA1031+003009999GA2051+004809999GA3071+015009999GF107991999999004501999999MA1999999096361MD1210311+9999
0148042500999992000010113504+64170-051750FM-15+0070BGGH V0203601N009810033019N0040001N1-00801-00801999999ADDGA1081+003309999GF108991999999999999999999MA1097701999999MW1711REMMET054BGGH 1350Z 36019KT 4000 -SN DRSN OVC011 M08/M08 Q0977;EQDQ01    003PRSWM1
0135042500999992000010114504+64170-051750FM-15+0070BGGH V0203601N00871000151CN0040001N1-00801-00901999999ADDGA1091+000159999GF109991999999000251999999MA1097801999999MW1711REMMET060BGGH 011450Z 36017KT 4000 -SN VCSH DRSN VV012 M08/M09 Q0978;
0101042500999992000010115004+64170-051750FM-12+0070BGGH V0203501N010310066019N9999999N1-00731-00831097901ADDAA103003091GA1051+006609999GA2081+008109999GF108991999999008001999999MA1999999096851MD1210491+9999
0149042500999992000010115504+64170-051750FM-15+0070BGGH V0200201N00571000151CN0025001N1-00801-00901999999ADDGA1091+000159999GF109991999999000251999999MA1097901999999MW1711REMMET055BGGH 011550Z 02011KT 2500 -SN VCSH VV012 M08/M09 Q0979;EQDQ01    003PRSWM1
0149042500999992000010116504+64170-051750FM-15+0070BGGH V0203601N00621000151CN0070001N1-00801-00901999999ADDGA1091+000159999GF109991999999000251999999MA1098001999999MW1711REMMET055BGGH 011650Z 36012KT 7000 -SN VCSH VV013 M08/M09 Q0980;EQDQ01    003PRSWM1
0146042500999992000010117254+64170-051750FM-15+0070BGGH V0203601N006210066019N0070001N1-00801-00901999999ADDGA1081+006609999GF108991999999999999999999MA1098101999999MW1161REMMET052BGGH 011725Z 36012KT 7000 VCSH OVC022 M08/M09 Q0981;EQDQ01    003PRSWM1
0173042500999992000010117504+64170-051750FM-15+0070BGGH V0203501N004610066019N0080001N1-00901-00901999999ADDGA1021+000909999GA2081+006609999GF108991999999999999999999MA1098101999999MW1711REMMET063BGGH 011750Z 35009KT 8000 -SN VCSH FEW003 OVC022 M09/M09 Q0981;EQDQ01    003PRSWM1
0127042500999992000010118004+64170-051750FM-12+0070BGGH V0203401N007210120019N9999999N1-00801-00981098271ADDAA103002091GA1011+009609999GA2071+012009999GF107991999999008001999999KA1999M-00601KA2999N-00801MA1999999097211MD1210361+9999
0149042500999992000010118504+64170-051750FM-15+0070BGGH V0203601N00461000151CN0050001N1-00901-00901999999ADDGA1091+000159999GF109991999999000251999999MA1098211999999MW1711REMMET055BGGH 011850Z 36009KT 5000 -SN VCSH VV018 M09/M09 Q0982;EQDQ01    003PRSWM1
0149042500999992000010119504+64170-051750FM-15+0070BGGH V0203401N00511000151CN0050001N1-00901-00901999999ADDGA1091+000159999GF109991999999000251999999MA1098411999999MW1711REMMET055BGGH 011950Z 34010KT 5000 -SN VCSH VV014 M09/M09 Q0984;EQDQ01    003PRSWM1
0122042500999992000010120504+64170-051750FM-15+0070BGGH V0200101N003610075019N0112651N1-00801-01001999999ADDGA1081+007509999GF108991999999999999999999MA1098511999999MW1001REMMET047BGGH 012050Z 01007KT 9999 OVC025 M08/M10 Q0985;
0117042500999992000010121004+64170-051750FM-12+0070BGGH V0203601N005110114019N9999999N1-00781-01001098611ADDAA103001091GA1011+009309999GA2051+011409999GA3071+013209999GF107991999999008001999999MA1999999097551MD1210341+9999
0122042500999992000010121504+64170-051750FM-15+0070BGGH V0200201N003110090019N0112651N1-00901-01001999999ADDGA1071+009009999GF107991999999999999999999MA1098611999999MW1001REMMET047BGGH 012150Z 02006KT 9999 BKN030 M09/M10 Q0986;
0130042500999992000010122504+64170-051750FM-15+0070BGGH V0200401N002610120019N0112651N1-00801-01001999999ADDGA1071+012009999GF107991999999999999999999MA1098611999999MW1001REMMET055BGGH 012250Z 04005KT 360V070 9999 BKN040 M08/M10 Q0986;
0360042500999992000010200004+64170-051750FM-12+0070BGGH V0203501N004610135019N9999999N1-00771-01111098841ADDAA103000591GA1011+010209999GA2081+013509999GF108991999999012501999999MA1999999097791MD1210241+9999REMSYN250AAXX  02004 04250 /66// 83509 11077 21111 39779 49884 52024 60011 333 69967 81/34 88/45 555 888 000349 010358 020007 030010 040089 050089 900094 910075 300759 310756 401077 411076 421075 431077 700000 710000 720000 730000 740000 750000 999 060010 070
0350042500999992000010203004+64170-051750FM-12+0070BGGH V0203101N004610012019N9999999N1-00831-00931099051ADDAA106000091GA1091+001209999GF109991091999999999999999MA1999999097991MD1210201+9999REMSYN237AAXX  02034 04250 36/// 93109 11083 21093 39799 49905 52020 333 89/04 555 888 000310 010356 020011 030027 040095 050087 900095 910076 300927 310834 401083 411080 421078 431083 700000 710000 720000 730000 740000 750000 999 060010 070001 ;EQDQ01  00002PRCP06
0143042500999992000010206004+64170-051750FM-12+0070BGGH V0203101N009810063019N9999999N1-00891-00991099191ADDAA103004191GA1011+003309999GA2051+006309999GA3071+007509999GF107991999999004501999999KA1999M-00751KA2999N-00891MA1999999098131MD1210141+9999
0344042500999992000010209004+64170-051750FM-12+0070BGGH V0202901N009810060019N9999999N1-00951-01101099351ADDAA103003091GA1081+006009999GF108991999999008001999999MA1999999098281MD1210151+9999REMSYN250AAXX  02094 04250 265// 82919 11095 21110 39828 49935 52015 333 60037 88/20 555 888 000292 010293 020005 030003 040188 050202 090110 900220 910170 300907 310891 401095 411095 421094 431096 700000 710010 720000 730360 740000 750010 999 060010 070001 ;
0343042500999992000010212004+64170-051750FM-12+0070BGGH V0203101N008210099019N9999999N1-00981-01131099411ADDAA103002091GA1081+009909999GF108991999999012501999999MA1999999098331MD1210051+9999REMSYN249AAXX  02124 04250 /66// 83116 11098 21113 39833 49941 52005 60041 333 60027 88/33 555 888 000311 010311 020005 030004 040159 050151 900159 910142 300895 310865 401098 411099 421097 431099 700000 710004 720000 730240 740000 750005 999 060010 070001 ;
0117042500999992000010215004+64170-051750FM-12+0070BGGH V0203301N005710096019N9999999N1-01011-01221099411ADDAA103001091GA1011+006909999GA2051+009609999GA3081+011109999GF108991999999008001999999MA1999999098331MD1410001+9999
0143042500999992000010218004+64170-051750FM-12+0070BGGH V0203401N005110075019N9999999N1-01041-01201099361ADDAA103000591GA1011+003009999GA2051+007509999GA3081+009609999GF108991999999004501999999KA1999M-00871KA2999N-01051MA1999999098281MD1710051+9999
0344042500999992000010221004+64170-051750FM-12+0070BGGH V0203301N003610270019N9999999N1-01041-01391099411ADDAA103002091GA1071+027009999GF107991999999022501999999MA1999999098341MD1210061+9999REMSYN250AAXX  02214 04250 268// 73307 11104 21139 39834 49941 52006 333 60027 87/59 555 888 000333 010346 020007 030015 040073 050064 090034 900074 910049 300762 310760 401104 411102 421101 431104 700006 710006 720360 730360 740004 750004 999 060010 070001 ;
0360042500999992000010300004+64170-051750FM-12+0070BGGH V0203401N003610150019N9999999N1-01031-01361099401ADDAA103001091GA1011+009309999GA2081+015009999GF108991999999008001999999MA1999999098331MD1710011+9999REMSYN250AAXX  03004 04250 /65// 83407 11103 21136 39833 49940 57001 60031 333 60017 81/31 88/50 555 888 000339 010343 020007 030011 040068 050070 900078 910064 300775 310818 401103 411104 421103 431105 700000 710000 720000 730000 740000 750000 999 060010 070
0360042500999992000010303004+64170-051750FM-12+0070BGGH V0203001N002110123019N9999999N1-01071-01411099491ADDAA103000591GA1011+006909999GA2081+012309999GF108991999999008001999999MA1999999098421MD1210091+9999REMSYN250AAXX  03034 04250 265// 83004 11107 21141 39842 49949 52009 333 69957 81/23 88/41 555 888 000296 010323 020016 030018 040042 050034 090000 900057 910011 300767 310736 401107 411106 421105 431107 700000 710000 720000 730000 740000 750000 999 060010 07
0169042500999992000010308504+64170-051750FM-15+0070BGGH V0202501N002110054019N0090001N1-01201-01301999999ADDGA1081+005409999GF108991999999999999999999MA1099491999999MW1711REMMET059BGGH 030850Z 25004KT 200V280 9000 -SN OVC018 M12/M13 Q0995;EQDQ01+000003PRSWM1Q02    003PRSWM1
0101042500999992000010309004+64170-051750FM-12+0070BGGH V0202501N004110150019N9999999N1-01091-01641099731ADDAA103001091GA1011+008409999GA2081+015009999GF108991999999008001999999MA1999999098651MD1210151+9999
0161042500999992000010309504+64170-051750FM-15+0070BGGH V02099999999990054019N0090001N1-01201-01301999999ADDGA1081+005409999GF108991999999999999999999MA1099591999999MW1711REMMET051BGGH 030950Z VRB02KT 9000 -SN OVC018 M12/M13 Q0996;EQDQ01+000003PRSWM1Q02    003PRSWM1
0161042500999992000010310504+64170-051750FM-15+0070BGGH V0201301N001510054019N0090001N1-01201-01301999999ADDGA1081+005409999GF108991999999999999999999MA1099591999999MW1711REMMET051BGGH 031050Z 13003KT 9000 -SN OVC018 M12/M13 Q0996;EQDQ01+000003PRSWM1Q02    003PRSWM1
0159042500999992000010311504+64170-051750FM-15+0070BGGH V0202201N00511000151CN0010001N1-01201-01201999999ADDGA1091+000159999GF109991999999000251999999MA1099591999999MW1731REMMET049BGGH 031150Z 22010KT 1000 SN VV023 M12/M12 Q0996;EQDQ01+000003PRSWM1Q02    003PRSWM1
0343042500999992000010312004+64170-051750FM-12+0070BGGH V0201901N004610030019N9999999N1-01111-01321099801ADDAA103003091GA1091+003009999GF109991091999999999999999MA1999999098721MD1210071+9999REMSYN249AAXX  03124 04250 /6/// 91909 11111 21132 39872 49980 52007 60051 333 60037 89/10 555 888 000186 010202 020007 030019 040095 050091 900125 910046 300843 310768 401111 411109 421104 431113 700000 710016 720000 730420 740000 750008 999 060010 070001 ;
0142042500999992000010312084+64170-051750FM-16+0070BGGH V0201001N011312200019N0112651N1-00901-01601999999ADDGA1021+008709999GF102991999999999999999999MW1001REMMET047BGGH 031208Z 10022KT 9999 FEW029 M09/M16 Q0977;EQDQ01+097703APOA  Q02+000000PRSWM2
0159042500999992000010312104+64170-051750FM-16+0070BGGH V0202201N00461000151CN0030001N1-01201-01301999999ADDGA1091+000159999GF109991999999000251999999MA1099591999999MW1731REMMET049BGGH 031210Z 22009KT 3000 SN VV024 M12/M13 Q0996;EQDQ01+000003PRSWM1Q02    003PRSWM1
0185042500999992000010312504+64170-051750FM-15+0070BGGH V0201601N007210024019N0040001N1-01201-01301999999ADDGA1071+002409999GA2081+009009999GF108991999999999999999999MA1099591999999MW1861REMMET059BGGH 031250Z 16014KT 4000 SHSN BKN008 OVC030 M12/M13 Q0996;EQDQ01+000003PRSWM1Q02    003PRSWM1
0162042500999992000010313294+64170-051750FM-16+0070BGGH V0201701N00511000151CN0006001N1-01201-01301999999ADDGA1091+000159999GF109991999999000251999999MA1099591999999MW1861REMMET052BGGH 031329Z 17010KT 0600 +SHSN VV004 M12/M13 Q0996;EQDQ01+000003PRSWM1Q02    003PRSWM1
0170042500999992000010313334+64170-051750FM-16+0070BGGH V0201701N00571000151CN0002001N1-01201-01201999999ADDGA1091+000159999GF109991999999000251999999MA1099591999999MW1771MW2861REMMET054BGGH 031333Z 17011KT 0200 +SHSNSG VV001 M12/M12 Q0996;EQDQ01+000003PRSWM1Q02    003PRSWM1
0196042500999992000010313504+64170-051750FM-15+0070BGGH V0201701N008710090019N0112651N1-01201-01201999999ADDGA1021+006009999GA2081+009009999GF108991999999999999999999MA1099591999999MW1161MW2861REMMET064BGGH 031350Z 17017KT 9999 SHSN VCSH SCT020 OVC030 M12/M12 Q0996;EQDQ01+000003PRSWM1Q02    003PRSWM1
0162042500999992000010314304+64170-051750FM-15+0070BGGH V0201801N00771000151CN0002001N1-01201-01201999999ADDGA1091+000159999GF109991999999000251999999MA1099591999999MW1861REMMET052BGGH 031430Z 18015KT 0200 +SHSN VV002 M12/M12 Q0996;EQDQ01+000003PRSWM1Q02    003PRSWM1
0161042500999992000010314504+64170-051750FM-15+0070BGGH V0201701N00671000151CN0030001N1-01201-01201999999ADDGA1091+000159999GF109991999999000251999999MA1099591999999MW1861REMMET051BGGH 031450Z 17013KT 3000 SHSN VV007 M12/M12 Q0996;EQDQ01+000003PRSWM1Q02    003PRSWM1
0337042500999992000010315004+64170-051750FM-12+0070BGGH V0201501N007710015019N9999999N1-01121-01241099791ADDAA103005191GA1091+001509999GF109991091999999999999999MA1999999098711MD1710011+9999REMSYN243AAXX  03154 04250 26/// 91515 11112 21124 39871 49979 57001 333 60057 89/05 555 888 000148 010159 020006 030008 040147 050178 900204 910147 300893 310885 401112 411110 421108 431113 700008 710012 720240 730240 740006 750010 999 060010 070001 ;
0172042500999992000010315504+64170-051750FM-15+0070BGGH V0201501N007710090019N0112651N1-01201-01401999999ADDGA1081+009009999GF108991999999999999999999MA1099591999999MW1161MW2711REMMET056BGGH 031550Z 15015KT 9999 -SN VCSH OVC030 M12/M14 Q0996;EQDQ01+000003PRSWM1Q02    003PRSWM1
0159042500999992000010316414+64170-051750FM-16+0070BGGH V0201401N00771000151CN0050001N1-01201-01401999999ADDGA1091+000159999GF109991999999000251999999MA1099591999999MW1731REMMET049BGGH 031641Z 14015KT 5000 SN VV008 M12/M14 Q0996;EQDQ01+000003PRSWM1Q02    003PRSWM1
0172042500999992000010316504+64170-051750FM-15+0070BGGH V0201501N00771000151CN0060001N1-01201-01301999999ADDGA1091+000159999GF109991999999000251999999MA1099591999999MW1161MW2861REMMET056BGGH 031650Z 15015KT 6000 SHSN VCSH VV008 M12/M13 Q0996;EQDQ01+000003PRSWM1Q02    003PRSWM1
0183042500999992000010317254+64170-051750FM-15+0070BGGH V0201501N00871000151CN0015001N1-01201-01401999999ADDGA1091+000159999GF109991999999000251999999MA1099591999999MW1161MW2861OC101441REMMET059BGGH 031725Z 15017G28KT 1500 SHSN VCSH VV006 M12/M14 Q0996;EQDQ01+000003PRSWM1Q02    003PRSWM1
0182042500999992000010317404+64170-051750FM-16+0070BGGH V0201501N00821000151CN0010001N1-01201-01301999999ADDGA1091+000159999GF109991999999000251999999MA1099591999999MW1861REMMET056BGGH 031740Z 15016KT 1000 SHSN VCSH VV006 M12/M13 Q0996;EQDQ01+000160PRSWM3Q02+000003PRSWM1Q03    003PRSWM1
0161042500999992000010317504+64170-051750FM-15+0070BGGH V0201401N00771000151CN0070001N1-01201-01401999999ADDGA1091+000159999GF109991999999000251999999MA1099591999999MW1161REMMET051BGGH 031750Z 14015KT 7000 VCSH VV010 M12/M14 Q0996;EQDQ01+000003PRSWM1Q02    003PRSWM1
0159042500999992000010318004+64170-051750FM-12+0070BGGH V0201401N009310108019N9999999N1-01121-01461099801ADDAA103002091GA1011+004509999GA2031+008409999GA3071+010809999GA4081+013209999GF108991999999004501999999KA1999M-01041KA2999N-01161MA1999999098721MD1210011+9999
0182042500999992000010318124+64170-051750FM-16+0070BGGH V0201401N00771000151CN0020001N1-01201-01301999999ADDGA1091+000159999GF109991999999000251999999MA1099591999999MW1861REMMET056BGGH 031812Z 14015KT 2000 SHSN VCSH VV007 M12/M13 Q0996;EQDQ01+000160PRSWM3Q02+000003PRSWM1Q03    003PRSWM1
0182042500999992000010318224+64170-051750FM-16+0070BGGH V0201401N00871000151CN0006001N1-01201-01301999999ADDGA1091+000159999GF109991999999000251999999MA1099591999999MW1861REMMET056BGGH 031822Z 14017KT 0600 SHSN VCSH VV004 M12/M13 Q0996;EQDQ01+000160PRSWM3Q02+000003PRSWM1Q03    003PRSWM1
0161042500999992000010318504+64170-051750FM-15+0070BGGH V0201401N00871000151CN0015001N1-01101-01401999999ADDGA1091+000159999GF109991999999000251999999MA1099591999999MW1861REMMET051BGGH 031850Z 14017KT 1500 SHSN VV007 M11/M14 Q0996;EQDQ01+000003PRSWM1Q02    003PRSWM1
0159042500999992000010319004+64170-051750FM-15+0070BGGH V0201401N00871000151CN0005001N1-01101-01301999999ADDGA1091+000159999GF109991999999000251999999MA1099591999999MW1731REMMET049BGGH 031856Z 14017KT 0500 SN VV004 M11/M13 Q0996;EQDQ01+000003PRSWM1Q02    003PRSWM1
0183042500999992000010319374+64170-051750FM-16+0070BGGH V0201501N00721000151CN0040001N1-01101-01401999999ADDGA1091+000159999GF109991999999000251999999MA1099591999999MW1851REMMET057BGGH 031937Z 15014KT 4000 -SHSN VCSH VV010 M11/M14 Q0996;EQDQ01+000160PRSWM3Q02+000003PRSWM1Q03    003PRSWM1
0173042500999992000010319504+64170-051750FM-15+0070BGGH V0201601N00771000151CN0050001N1-01101-01101999999ADDGA1091+000159999GF109991999999000251999999MA1099591999999MW1161MW2851REMMET057BGGH 031950Z 16015KT 5000 -SHSN VCSH VV012 M11/M11 Q0996;EQDQ01+000003PRSWM1Q02    003PRSWM1
0182042500999992000010320414+64170-051750FM-16+0070BGGH V0201601N00871000151CN0045001N1-01101+99999999999ADDGA1091+000159999GF109991999999000251999999MA1099591999999MW1851REMMET056BGGH 032041Z 16017KT 4500 -SHSN VCSH VV010 M11/// Q0996;EQDQ01+000160PRSWM3Q02+000003PRSWM1Q03    003PRSWM1
0172042500999992000010320504+64170-051750FM-15+0070BGGH V0201501N01031000151CN0040001N1-01101+99999999999ADDGA1091+000159999GF109991999999000251999999MA1099591999999MW1161MW2851REMMET056BGGH 032050Z 15020KT 4000 -SHSN VCSH VV011 M11/// Q0996;EQDQ01+000003PRSWM1Q02    003PRSWM1
0133042500999992000010321004+64170-051750FM-12+0070BGGH V0201501N011310060019N9999999N1-01051-01341099751ADDAA103003091GA1011+005109999GA2051+006009999GA3071+008409999GA4081+012309999GF108991999999004501999999MA1999999098671MD1710051+9999
0184042500999992000010321504+64170-051750FM-15+0070BGGH V0201601N00931000151CN0050001N1-01101-01301999999ADDGA1091+000159999GF109991999999000251999999MA1099591999999MW1161MW2851OC101491REMMET060BGGH 032150Z 16018G29KT 5000 -SHSN VCSH VV012 M11/M13 Q0996;EQDQ01+000003PRSWM1Q02    003PRSWM1
0193042500999992000010322124+64170-051750FM-16+0070BGGH V0201601N00931000151CN0020001N1-01101-01201999999ADDGA1091+000159999GF109991999999000251999999MA1099591999999MW1861OC101441REMMET059BGGH 032212Z 16018G28KT 2000 SHSN VCSH VV006 M11/M12 Q0996;EQDQ01+000160PRSWM3Q02+000003PRSWM1Q03    003PRSWM1
0183042500999992000010322504+64170-051750FM-15+0070BGGH V0201501N00871000151CN0020001N1-01101-01301999999ADDGA1091+000159999GF109991999999000251999999MA1099591999999MW1161MW2861OC101441REMMET059BGGH 032250Z 15017G28KT 2000 SHSN VCSH VV007 M11/M13 Q0996;EQDQ01+000003PRSWM1Q02    003PRSWM1
0355042500999992000010400004+64170-051750FM-12+0070BGGH V0201501N012310024019N0002001N1-01031-01221099751ADDAA103005191GA1091+002409999GF109991091999999999999999MA1999999098671MD1410001+9999OA149901901REMSYN250AAXX  04004 04250 ///02 91524 11103 21122 39867 49975 54000 60081 77275 333 60057 89/08 91137 555 61003 62001 63003 64996 65011 66995 67006 68005 71824 72020 73851 75104 888 000151 010152 020005 030005 040243 050233 070367 900268 910192 300865 310830
0360042500999992000010403004+64170-051750FM-12+0070BGGH V0201601N011310150019N0070001N1-00951-01241099731ADDAA103021191GA1011+008409999GA2071+015009999GF107991999999008001999999MA1999999098651MD1710021+9999REMSYN250AAXX  04034 04250 2/557 71622 11095 21124 39865 49973 57002 75475 333 60217 81/28 87/50 555 61990 63002 64001 65016 66991 67010 68001 71072 72468 73313 74269 75468 888 000158 010156 020007 030005 040223 050220 090132 900243 910199 300767 310829 40109
0111042500999992000010406004+64170-051750FM-12+0070BGGH V0201001N008710510019N0450001N1-00951-01731099541ADDAA103000791GA1071+051009999GF107991999999999999999999KA1999M-00911KA2999N-01111MA1999999098471MD1710181+9999
0124042500999992000010408504+64170-051750FM-15+0070BGGH V0201401N009310090019N0112651N1-01001-01401999999ADDGA1071+009009999GF107991999999999999999999MW1001REMMET045BGGH 040850Z 14018KT 9999 BKN030 M10/M14 992;EQDQ01+000000PRSWM2
0101042500999992000010409004+64170-051750FM-12+0070BGGH V0201101N008210690019N0210001N1-00921-01791099341ADDAA103000791GA1031+021009999GA2071+069009999GF107991999999017501999999MA1999999098271MD1710201+9999
0141042500999992000010409504+64170-051750FM-15+0070BGGH V0201201N007210090019N0112651N1-00901-01501999999ADDGA1071+009009999GF107991999999999999999999MA1099091999999MW1001REMMET047BGGH 040950Z 12014KT 9999 BKN030 M09/M15 Q0991;EQDQ01+000000PRSWM2
0141042500999992000010410504+64170-051750FM-15+0070BGGH V0201501N005110120019N0112651N1-00801-01501999999ADDGA1071+012009999GF107991999999999999999999MA1099091999999MW1001REMMET047BGGH 041050Z 15010KT 9999 BKN040 M08/M15 Q0991;EQDQ01+000000PRSWM2
0149042500999992000010411504+64170-051750FM-15+0070BGGH V0201401N006710093019N0112651N1-00801-01401999999ADDGA1071+009309999GF107991999999999999999999MA1099091999999MW1001REMMET055BGGH 041150Z 14013KT 110V170 9999 BKN031 M08/M14 Q0991;EQDQ01+000000PRSWM2
0117042500999992000010412004+64170-051750FM-12+0070BGGH V0201501N007710240019N0450001N1-00661-01701099271ADDAA103000791GA1011+013509999GA2031+021009999GA3071+024009999GF107991999999012501999999MA1999999098211MD1710061+9999
0141042500999992000010412504+64170-051750FM-15+0070BGGH V0201801N012310066019N0112651N1-00801-01101999999ADDGA1071+006609999GF107991999999999999999999MA1099091999999MW1001REMMET047BGGH 041250Z 18024KT 9999 BKN022 M08/M11 Q0991;EQDQ01+000000PRSWM2
0189042500999992000010413504+64170-051750FM-15+0070BGGH V0202501N00571000151CN0010001N1-00901-01001999999ADDGA1091+000159999GF109991999999000251999999MA1099291999999MW1361MW2731OC101081REMMET065BGGH 041350Z 25011G21KT 210V300 1000 SN DRSN VV010 M09/M10 Q0993;EQDQ01+000003PRSWM1Q02    003PRSWM1
0181042500999992000010414144+64170-051750FM-16+0070BGGH V0202301N00311000151CN0010001N1-00901-00901999999ADDGA1091+000159999GF109991999999000251999999MA1099291999999MW1751REMMET055BGGH 041414Z 23006KT 1000 +SN DRSN VV006 M09/M09 Q0993;EQDQ01+000360PRSWM3Q02+000003PRSWM1Q03    003PRSWM1
0170042500999992000010414504+64170-051750FM-15+0070BGGH V0202601N00571000151CN0008001N1-01001-01001999999ADDGA1091+000159999GF109991999999000251999999MA1099391999999MW1361MW2731REMMET054BGGH 041450Z 26011KT 0800 SN DRSN VV006 M10/M10 Q0994;EQDQ01+000003PRSWM1Q02    003PRSWM1
0355042500999992000010415004+64170-051750FM-12+0070BGGH V0202601N009810039019N0003001N1-00941-01111099541ADDAA103003091GA1091+003909999GF109991091999999999999999MA1999999098471MD1210261+9999OA149901701REMSYN250AAXX  04154 04250 2//03 92619 11094 21111 39847 49954 52026 77276 333 60037 89/13 91133 555 61995 62991 63005 64002 65028 66994 67015 68004 71832 72022 73891 74022 75050 888 000264 010262 020003 030009 040187 050157 900191 910066 300875 310909 401094
0188042500999992000010416394+64170-051750FM-16+0070BGGH V0202601N00571000151CN0030001N1-01101-01101999999ADDGA1091+000159999GF109991999999000251999999MA1099491999999MW1731REMMET062BGGH 041639Z 26011KT 220V280 3000 SN DRSN VV010 M11/M11 Q0995;EQDQ01+000360PRSWM3Q02+000003PRSWM1Q03    003PRSWM1
0170042500999992000010416504+64170-051750FM-15+0070BGGH V0202601N00511000151CN0015001N1-01101-01201999999ADDGA1091+000159999GF109991999999000251999999MA1099491999999MW1361MW2731REMMET054BGGH 041650Z 26010KT 1500 SN DRSN VV010 M11/M12 Q0995;EQDQ01+000003PRSWM1Q02    003PRSWM1
0178042500999992000010417204+64170-051750FM-15+0070BGGH V0202501N00511000151CN0008001N1-01201-01201999999ADDGA1091+000159999GF109991999999000251999999MA1099591999999MW1361MW2731REMMET062BGGH 041720Z 25010KT 230V290 0800 SN DRSN VV004 M12/M12 Q0996;EQDQ01+000003PRSWM1Q02    003PRSWM1
0180042500999992000010417444+64170-051750FM-16+0070BGGH V0202601N00621000151CN0006001N1-01101-01101999999ADDGA1091+000159999GF109991999999000251999999MA1099591999999MW1731REMMET054BGGH 041744Z 26012KT 0600 SN DRSN VV006 M11/M11 Q0996;EQDQ01+000360PRSWM3Q02+000003PRSWM1Q03    003PRSWM1
0143042500999992000010418004+64170-051750FM-12+0070BGGH V0202601N008210042019N0006001N1-01101-01351099781ADDAA103002091GA1031+001809999GA2051+004209999GA3071+008409999GF107991999999001501999999KA1999M-00641KA2999N-01101MA1999999098701MD1210231+9999
0187042500999992000010418364+64170-051750FM-16+0070BGGH V0202501N00571000151CN0008001N1-01201-01501999999ADDGA1091+000159999GF109991999999000251999999MA1099701999999MW1861REMMET061BGGH 041836Z 25011KT 0800 SHSN VCSH DRSN VV007 M12/M15 Q0997;EQDQ01+000160PRSWM3Q02+000360PRSWM4Q03+000003PRSWM1
0167042500999992000010418504+64170-051750FM-15+0070BGGH V0202501N00511000151CN0025001N1-01201-01201999999ADDGA1091+000159999GF109991999999000251999999MA1099701999999MW1161MW2361MW3861REMMET061BGGH 041850Z 25010KT 2500 SHSN VCSH DRSN VV009 M12/M12 Q0997;EQDQ01+000003PRSWM1
0187042500999992000010419044+64170-051750FM-16+0070BGGH V0202401N00571000151CN0006001N1-01201-01201999999ADDGA1091+000159999GF109991999999000251999999MA1099701999999MW1861REMMET061BGGH 041904Z 24011KT 0600 SHSN VCSH DRSN VV004 M12/M12 Q0997;EQDQ01+000160PRSWM3Q02+000360PRSWM4Q03+000003PRSWM1
0167042500999992000010419504+64170-051750FM-15+0070BGGH V0202401N00511000151CN0020001N1-01201-01201999999ADDGA1091+000159999GF109991999999000251999999MA1099801999999MW1161MW2361MW3861REMMET061BGGH 041950Z 24010KT 2000 SHSN VCSH DRSN VV010 M12/M12 Q0998;EQDQ01+000003PRSWM1
0196042500999992000010420274+64170-051750FM-16+0070BGGH V0202201N00511000151CN0040001N1-01201-01301999999ADDGA1091+000159999GF109991999999000251999999MA1099801999999MW1851REMMET070BGGH 042027Z 22010KT 200V260 4000 -SHSN VCSH DRSN VV012 M12/M13 Q0998;EQDQ01+000160PRSWM3Q02+000360PRSWM4Q03+000003PRSWM1
0175042500999992000010420504+64170-051750FM-15+0070BGGH V0202401N00511000151CN0010001N1-01201-01301999999ADDGA1091+000159999GF109991999999000251999999MA1099901999999MW1161MW2361MW3861REMMET069BGGH 042050Z 24010KT 200V320 1000 SHSN VCSH DRSN VV008 M12/M13 Q0999;EQDQ01+000003PRSWM1
0085042500999992000010421004+64170-051750FM-12+0070BGGH V0202601N007710033019N0006001N1-01141-01541100051ADDAA103002091GA1091+003309999GF109991091999999999999999MA1999999098961MD1210261+9999
0188042500999992000010421234+64170-051750FM-16+0070BGGH V0202601N00461000151CN0050001N1-01201-01401999999ADDGA1091+000159999GF109991999999000251999999MA1099901999999MW1851REMMET062BGGH 042123Z 26009KT 5000 -SHSN VCSH DRSN VV015 M12/M14 Q0999;EQDQ01+000160PRSWM3Q02+000360PRSWM4Q03+000003PRSWM1
0168042500999992000010421504+64170-051750FM-15+0070BGGH V0202301N00671000151CN0040001N1-01201-01401999999ADDGA1091+000159999GF109991999999000251999999MA1099901999999MW1161MW2361MW3851REMMET062BGGH 042150Z 23013KT 4000 -SHSN VCSH DRSN VV012 M12/M14 Q0999;EQDQ01+000003PRSWM1
0167042500999992000010422004+64170-051750FM-15+0070BGGH V0202401N00771000151CN0006001N1-01201-01301999999ADDGA1091+000159999GF109991999999000251999999MA1099901999999MW1161MW2361MW3861REMMET061BGGH 042156Z 24015KT 0600 SHSN VCSH DRSN VV005 M12/M13 Q0999;EQDQ01+000003PRSWM1
0168042500999992000010422254+64170-051750FM-15+0070BGGH V0202301N00871000151CN0040001N1-01201-01401999999ADDGA1091+000159999GF109991999999000251999999MA1100001999999MW1161MW2361MW3851REMMET062BGGH 042225Z 23017KT 4000 -SHSN VCSH DRSN VV010 M12/M14 Q1000;EQDQ01+000003PRSWM1
0168042500999992000010422504+64170-051750FM-15+0070BGGH V0202301N00821000151CN0040001N1-01201-01401999999ADDGA1091+000159999GF109991999999000251999999MA1100001999999MW1161MW2361MW3851REMMET062BGGH 042250Z 23016KT 4000 -SHSN VCSH DRSN VV010 M12/M14 Q1000;EQDQ01+000003PRSWM1
0187042500999992000010423054+64170-051750FM-16+0070BGGH V0202301N00931000151CN0015001N1-01201-01401999999ADDGA1091+000159999GF109991999999000251999999MA1100001999999MW1861REMMET061BGGH 042305Z 23018KT 1500 SHSN VCSH DRSN VV009 M12/M14 Q1000;EQDQ01+000160PRSWM3Q02+000360PRSWM4Q03+000003PRSWM1
0195042500999992000010423364+64170-051750FM-16+0070BGGH V0202801N00981000151CN0006001N1-01301-01301999999ADDGA1091+000159999GF109991999999000251999999MA1100101999999MW1861REMMET069BGGH 042336Z 28019KT 230V300 0600 SHSN VCSH DRSN VV004 M13/M13 Q1001;EQDQ01+000160PRSWM3Q02+000360PRSWM4Q03+000003PRSWM1
0167042500999992000010423504+64170-051750FM-15+0070BGGH V0202901N00931000151CN0005001N1-01301-01301999999ADDGA1091+000159999GF109991999999000251999999MA1100101999999MW1161MW2361MW3861REMMET061BGGH 042350Z 29018KT 0500 SHSN VCSH DRSN VV005 M13/M13 Q1001;EQDQ01+000003PRSWM1
0117042500999992000010500004+64170-051750FM-12+0070BGGH V0202801N009810027019N0003001N1-01261-01421100241ADDAA103007191GA1031+002109999GA2051+002709999GA3071+003609999GF107991999999002501999999MA1999999099151MD1210191+9999
0167042500999992000010500504+64170-051750FM-15+0070BGGH V0203001N00461000151CN0012001N1-01401-01401999999ADDGA1091+000159999GF109991999999000251999999MA1100101999999MW1161MW2361MW3861REMMET061BGGH 050050Z 30009KT 1200 SHSN VCSH DRSN VV007 M14/M14 Q1001;EQDQ01+000003PRSWM1
0182042500999992000010501184+64170-051750FM-16+0070BGGH V0202901N00261000151CN0009001N1-01401-01401999999ADDGA1091+000159999GF109991999999000251999999MA1100101999999MW1861REMMET056BGGH 050118Z 29005KT 0900 SHSN VCSH VV004 M14/M14 Q1001;EQDQ01+000160PRSWM3Q02+000003PRSWM1Q03    003PRSWM1
0344042500999992000010503004+64170-051750FM-12+0070BGGH V0201301N001510009019N0005001N1-01311-01441100321ADDAA103002091GA1091+000909999GF109991091999999999999999MA1999999099221MD1210071+9999REMSYN250AAXX  05034 04250 2//05 91303 11131 21144 39922 40032 52007 77277 333 60027 89/03 91220 555 61999 62995 63001 64001 65017 66992 67011 68002 71856 72016 73889 74012 75048 888 000130 010226 020006 030092 040025 050037 090000 900067 910010 300897 310884
0159042500999992000010506004+64170-051750FM-12+0070BGGH V0202101N009310099019N0002001N1-01201-01511100271ADDAA103003091GA1011+006009999GA2031+008709999GA3051+009909999GA4071+011409999GF107991999999008001999999KA1999M-01081KA2999N-01311MA1999999099181MD1710041+9999
0174042500999992000010506504+64170-051750FM-15+0070BGGH V0202001N007712200019N0112651N1-01301-01501999999ADDGA1021+018009999GF104991999999999999999999MA1100101999999MW1161MW2851REMMET058BGGH 050650Z 20015KT 9999 -SHSN VCSH SCT060 M13/M15 Q1001;EQDQ01+000003PRSWM1Q02    003PRSWM1
0163042500999992000010507504+64170-051750FM-15+0070BGGH V0202101N007212200019N0112651N1-01301-01501999999ADDGA1021+018009999GF104991999999999999999999MA1100101999999MW1851REMMET053BGGH 050750Z 21014KT 9999 -SHSN SCT060 M13/M15 Q1001;EQDQ01+000003PRSWM1Q02    003PRSWM1
0162042500999992000010508504+64170-051750FM-15+0070BGGH V0201601N007710180019N0112651N1-01201-01301999999ADDGA1071+018009999GF107991999999999999999999MA1100001999999MW1861REMMET052BGGH 050850Z 16015KT 9999 SHSN BKN060 M12/M13 Q1000;EQDQ01+000003PRSWM1Q02    003PRSWM1
0133042500999992000010509004+64170-051750FM-12+0070BGGH V0201501N007710096019N0007001N1-01161-01501100171ADDAA103000891GA1011+003609999GA2031+008409999GA3051+009609999GA4071+011109999GF107991999999004501999999MA1999999099081MD1710101+9999
0160042500999992000010509504+64170-051750FM-15+0070BGGH V0201501N006210090019N0112651N1-01201-01501999999ADDGA1071+009009999GF107991999999999999999999MA1100001999999MW1731REMMET050BGGH 050950Z 15012KT 9999 SN BKN030 M12/M15 Q1000;EQDQ01+000003PRSWM1Q02    003PRSWM1
0160042500999992000010510504+64170-051750FM-15+0070BGGH V0201301N007210060019N0030001N1-01201-01601999999ADDGA1081+006009999GF108991999999999999999999MA1099801999999MW1731REMMET050BGGH 051050Z 13014KT 3000 SN OVC020 M12/M16 Q0998;EQDQ01+000003PRSWM1Q02    003PRSWM1
0141042500999992000010511414+64170-051750FM-16+0070BGGH V0201201N007210075019N0112651N1-01201-01501999999ADDGA1071+007509999GF107991999999999999999999MA1099701999999MW1001REMMET047BGGH 051141Z 12014KT 9999 BKN025 M12/M15 Q0997;EQDQ01+000000PRSWM2
0162042500999992000010511504+64170-051750FM-15+0070BGGH V0201301N006710075019N0112651N1-01201-01601999999ADDGA1071+007509999GF107991999999999999999999MA1099701999999MW1161REMMET052BGGH 051150Z 13013KT 9999 VCSH BKN025 M12/M16 Q0997;EQDQ01+000003PRSWM1Q02    003PRSWM1
0117042500999992000010512004+64170-051750FM-12+0070BGGH V0201301N006710270019N9999999N1-01151-01841099891ADDAA103003091GA1011+021009999GA2051+027009999GA3071+066009999GF107991999999017501999999MA1999999098811MD1710271+9999
0164042500999992000010512504+64170-051750FM-15+0070BGGH V0201301N005110090019N0112651N1-01201-01701999999ADDGA1021+004509999GA2071+009009999GF107991999999999999999999MA1099591999999MW1001REMMET054BGGH 051250Z 13010KT 9999 FEW015 BKN030 M12/M17 Q0996;EQDQ01+000000PRSWM2
0187042500999992000010513194+64170-051750FM-16+0070BGGH V0201201N005710420019N0112651N1-01201-01701999999ADDGA1021+004509999GA2021+009009999GA3071+042009999GF107991999999999999999999MA1099591999999MW1001REMMET061BGGH 051319Z 12011KT 9999 FEW015 SCT030 BKN140 M12/M17 Q0996;EQDQ01+000000PRSWM2
0164042500999992000010513504+64170-051750FM-15+0070BGGH V0201201N007210540019N0112651N1-01201-01601999999ADDGA1021+004509999GA2071+054009999GF107991999999999999999999MA1099491999999MW1001REMMET054BGGH 051350Z 12014KT 9999 FEW015 BKN180 M12/M16 Q0995;EQDQ01+000000PRSWM2
0187042500999992000010514504+64170-051750FM-15+0070BGGH V0200901N007710420019N0112651N1-01201-01601999999ADDGA1021+004509999GA2021+018009999GA3071+042009999GF107991999999999999999999MA1099391999999MW1001REMMET061BGGH 051450Z 09015KT 9999 FEW015 SCT060 BKN140 M12/M16 Q0994;EQDQ01+000000PRSWM2
0344042500999992000010515004+64170-051750FM-12+0070BGGH V0200801N008712200019N0190001N1-01171-02021099511ADDAA103000591GA1031+051009999GF103991999999999999999999MA1999999098431MD1710381+9999REMSYN250AAXX  05154 04250 25969 30817 11117 21202 39843 49951 57038 333 69947 83/67 555 60/// 71198 72050 73346 74454 75050 888 000080 010094 020005 030018 040172 050116 900175 910086 300499 310499 401117 411117 421114 431124 700000 710000 720000 730000 7400
0187042500999992000010515504+64170-051750FM-15+0070BGGH V0201001N007210420019N0112651N1-01201-01701999999ADDGA1021+004509999GA2021+018009999GA3081+042009999GF108991999999999999999999MA1099191999999MW1001REMMET061BGGH 051550Z 10014KT 9999 FEW015 SCT060 OVC140 M12/M17 Q0992;EQDQ01+000000PRSWM2
0187042500999992000010517504+64170-051750FM-15+0070BGGH V0200901N008210420019N0112651N1-01301-01601999999ADDGA1021+004509999GA2021+018009999GA3081+042009999GF108991999999999999999999MA1098921999999MW1001REMMET061BGGH 051750Z 09016KT 9999 FEW015 SCT060 OVC140 M13/M16 Q0989;EQDQ01+000000PRSWM2
0127042500999992000010518004+64170-051750FM-12+0070BGGH V0200801N009810450019N0035001N1-01191-01931099081ADDAA103000791GA1051+045009999GA2071+051009999GF107991999999999999999999KA1999M-01131KA2999N-01241MA1999999098001MD1710431+9999
0187042500999992000010518504+64170-051750FM-15+0070BGGH V0200801N007710420019N0112651N1-01301-01601999999ADDGA1021+004509999GA2021+018009999GA3081+042009999GF108991999999999999999999MA1098821999999MW1001REMMET061BGGH 051850Z 08015KT 9999 FEW015 SCT060 OVC140 M13/M16 Q0988;EQDQ01+000000PRSWM2
0344042500999992000010521004+64170-051750FM-12+0070BGGH V0200501N010810330019N0010001N1-01131-01641098651ADDAA103000591GA1071+033009999GF107991999999999999999999MA1999999097581MD1710421+9999REMSYN250AAXX  05214 04250 2/910 70521 11113 21164 39758 49865 57042 78587 333 69947 87/61 555 61991 62990 63997 64991 65001 67001 71010 72042 73020 74025 75050 888 000053 010056 020005 030004 040209 050216 900230 910196 300651 310655 401113 411114 421112 431
0355042500999992000010603004+64170-051750FM-12+0070BGGH V0203601N010310240019N0017001N1-01221-01811097891ADDAA103000791GA1081+024009999GF108991999999017501999999MA1999999096821MD1710371+9999OA149901441REMSYN250AAXX  06034 04250 2/717 83620 11122 21181 39682 49789 57037 78587 333 69907 88/58 91128 555 61990 62990 63991 64991 65001 67001 71017 72079 73028 74024 75374 888 000004 010008 020005 030007 040201 050200 900220 910185 300662 310688 401122 411119 4211
0111042500999992000010606004+64170-051750FM-12+0070BGGH V0200101N009810240019N0019001N1-01141-01801097791ADDAA103000791GA1081+024009999GF108991999999017501999999KA1999M-01071KA2999N-01261MA1999999096731MD1710091+9999
0141042500999992000010608504+64170-051750FM-15+0070BGGH V0200301N004610096019N0112651N1-01101-01601999999ADDGA1071+009609999GF107991999999999999999999MA1097801999999MW1001REMMET047BGGH 060850Z 03009KT 9999 BKN032 M11/M16 Q0978;EQDQ01+000000PRSWM2
0360042500999992000010609004+64170-051750FM-12+0070BGGH V0200101N006210270019N0500001N1-01011-02011097921ADDAA103000791GA1011+008709999GA2081+027009999GF108991999999008001999999MA1999999096861MD1210131+9999REMSYN250AAXX  06094 04250 2/584 80112 11101 21201 39686 49792 52013 70087 333 69907 81/29 88/59 555 63990 71500 72050 73050 74050 75050 888 000014 010020 020005 030006 040116 050126 900138 910116 300449 310488 401101 411103 421101 431106 700000 710000 720000
0149042500999992000010609504+64170-051750FM-15+0070BGGH V0200301N003610102019N0112651N1-01101-01501999999ADDGA1071+010209999GF107991999999999999999999MA1097801999999MW1001REMMET055BGGH 060950Z 03007KT 350V070 9999 BKN034 M11/M15 Q0978;EQDQ01+000000PRSWM2
0141042500999992000010610504+64170-051750FM-15+0070BGGH V0203601N004110108019N0112651N1-01101-01301999999ADDGA1071+010809999GF107991999999999999999999MA1097901999999MW1001REMMET047BGGH 061050Z 36008KT 9999 BKN036 M11/M13 Q0979;EQDQ01+000000PRSWM2
0141042500999992000010611504+64170-051750FM-15+0070BGGH V0200101N003110099019N0112651N1-01001-01201999999ADDGA1071+009909999GF107991999999999999999999MA1098001999999MW1001REMMET047BGGH 061150Z 01006KT 9999 BKN033 M10/M12 Q0980;EQDQ01+000000PRSWM2
0359042500999992000010612004+64170-051750FM-12+0070BGGH V0203301N005710096019N0130001N1-00891-01281098111ADDAA103000791GA1011+008109999GA2071+009609999GF107991999999008001999999MA1999999097061MD1210201+9999REMSYN249AAXX  06124 04250 //563 73311 11089 21128 39706 49811 52020 69901 75487 333 69907 81/27 87/32 555 61990 63990 71137 72299 73257 75050 888 000327 010336 020009 030008 040114 050132 900149 910106 300720 310688 401089 411091 421089 431095 700000 710000
0170042500999992000010612224+64170-051750FM-16+0070BGGH V0200101N002110078019N0050001N1-01101-01201999999ADDGA1071+007809999GF107991999999999999999999MA1098001999999MW1161REMMET060BGGH 061222Z 01004KT 310V050 5000 VCSH BKN026 M11/M12 Q0980;EQDQ01+000003PRSWM1Q02    003PRSWM1
0175042500999992000010612504+64170-051750FM-15+0070BGGH V0203001N004610066019N0040001N1-01001-01101999999ADDGA1071+006609999GF107991999999999999999999MA1098001999999MW1161MW2851REMMET059BGGH 061250Z 30009KT 4000N -SHSN VCSH BKN022 M10/M11 Q0980;EQDQ01+000003PRSWM1Q02    003PRSWM1
0205042500999992000010613504+64170-051750FM-15+0070BGGH V0203501N002110096019N0070001N1-01001-01201999999ADDGA1021+005409999GA2071+009609999GF107991999999999999999999MA1098001999999MW1161MW2851REMMET073BGGH 061350Z 35004KT 320V020 7000 -SHSN VCSH SCT018 BKN032 M10/M12 Q0980;EQDQ01+000003PRSWM1Q02    003PRSWM1
0182042500999992000010614124+64170-051750FM-16+0070BGGH V0203501N000510054019N0035001N1-01001-01101999999ADDGA1071+005409999GF107991999999999999999999MA1098001999999MW1711REMMET056BGGH 061412Z 35001KT 3500 -SN VCSH BKN018 M10/M11 Q0980;EQDQ01+000160PRSWM3Q02+000003PRSWM1Q03    003PRSWM1
0172042500999992000010614204+64170-051750FM-15+0070BGGH V02099999999990036019N0015001N1-01001-01101999999ADDGA1071+003609999GF107991999999999999999999MA1098001999999MW1161MW2731REMMET056BGGH 061420Z VRB01KT 1500S SN VCSH BKN012 M10/M11 Q0980;EQDQ01+000003PRSWM1Q02    003PRSWM1
0172042500999992000010614504+64170-051750FM-15+0070BGGH V02099999999990048019N0050001N1-01001-01201999999ADDGA1071+004809999GF107991999999999999999999MA1098101999999MW1161MW2711REMMET056BGGH 061450Z VRB01KT 5000 -SN VCSH BKN016 M10/M12 Q0981;EQDQ01+000003PRSWM1Q02    003PRSWM1
0133042500999992000010615004+64170-051750FM-12+0070BGGH V0202201N001510036019N0006001N1-00951-01071098231ADDAA103000591GA1011+001809999GA2031+002709999GA3051+003609999GA4081+006609999GF108991999999001501999999MA1999999097171MD1210111+9999
0194042500999992000010615504+64170-051750FM-15+0070BGGH V0200701N002112200019N0080001N1-01101-01201999999ADDGA1021+004209999GA2021+045009999GF104991999999999999999999MA1098101999999MW1161MW2731REMMET062BGGH 061550Z 07004KT 8000 SN VCSH SCT014 SCT150 M11/M12 Q0981;EQDQ01+000003PRSWM1Q02    003PRSWM1
0175042500999992000010616324+64170-051750FM-16+0070BGGH V0203401N00511220001CN0060001N1-01001-01301999999ADDGA1071+007509999GA2021+045009999MA1098101999999MW1161REMMET059BGGH 061632Z 34010KT 6000 VCSH BKN025 SCT150 M10/M13 Q0981;EQDQ01+000042SCOTCVQ02+000003PRSWM1Q03    003PRSWM1
0166042500999992000010616504+64170-051750FM-15+0070BGGH V0203301N007210060019N0025001N1-01101-01101999999ADDGA1071+006009999GF107991999999999999999999MA1098211999999MW1161MW2361MW3731REMMET060BGGH 061650Z 33014KT 2500 SN DRSN VCSH BKN020 M11/M11 Q0982;EQDQ01+000003PRSWM1
0171042500999992000010617504+64170-051750FM-15+0070BGGH V0203201N00511000151CN0035001N1-01101-01101999999ADDGA1091+000159999GF109991999999000251999999MA1098311999999MW1161MW2711REMMET055BGGH 061750Z 32010KT 3500 -SN VCSH VV016 M11/M11 Q0983;EQDQ01+000003PRSWM1Q02    003PRSWM1
0171042500999992000010619504+64170-051750FM-15+0070BGGH V0203301N00821000151CN0050001N1-01201-01301999999ADDGA1091+000159999GF109991999999000251999999MA1098611999999MW1161MW2711REMMET055BGGH 061950Z 33016KT 5000 -SN VCSH VV016 M12/M13 Q0986;EQDQ01+000003PRSWM1Q02    003PRSWM1
0180042500999992000010620144+64170-051750FM-16+0070BGGH V0203401N00931000151CN0010001N1-01201-01201999999ADDGA1091+000159999GF109991999999000251999999MA1098711999999MW1731REMMET054BGGH 062014Z 34018KT 1000 SN VCSH VV010 M12/M12 Q0987;EQDQ01+000160PRSWM3Q02+000003PRSWM1Q03    003PRSWM1
0171042500999992000010620504+64170-051750FM-15+0070BGGH V0203301N00871000151CN0020001N1-01201-01201999999ADDGA1091+000159999GF109991999999000251999999MA1098711999999MW1161MW2711REMMET055BGGH 062050Z 33017KT 2000 -SN VCSH VV010 M12/M12 Q0987;EQDQ01+000003PRSWM1Q02    003PRSWM1
0101042500999992000010621004+64170-051750FM-12+0070BGGH V0203101N014910066019N0003001N1-01171-01291098921ADDAA103001091GA1031+003309999GA2071+006609999GF107991999999004501999999MA1999999097841MD1210481+9999
0171042500999992000010621504+64170-051750FM-15+0070BGGH V0203201N00821000151CN0030001N1-01201-01301999999ADDGA1091+000159999GF109991999999000251999999MA1098921999999MW1161MW2711REMMET055BGGH 062150Z 32016KT 3000 -SN VCSH VV012 M12/M13 Q0989;EQDQ01+000003PRSWM1Q02    003PRSWM1
0171042500999992000010622504+64170-051750FM-15+0070BGGH V0203201N00821000151CN0030001N1-01301-01301999999ADDGA1091+000159999GF109991999999000251999999MA1099091999999MW1161MW2711REMMET055BGGH 062250Z 32016KT 3000 -SN VCSH VV012 M13/M13 Q0991;EQDQ01+000003PRSWM1Q02    003PRSWM1
0371042500999992000010700004+64170-051750FM-12+0070BGGH V0203001N007710150019N0019001N1-01331-01561099341ADDAA103008991GA1011+003609999GA2071+015009999GF107991999999004501999999MA1999999098261MD1210421+9999OA149901901REMSYN250AAXX  07004 04250 //419 73015 11133 21156 39826 49934 52042 60101 75485 333 60097 81/12 87/50 91137 91230 555 61991 62990 63003 64001 65019 66991 67010 68001 71019 72103 73042 75158 888 000303 010303 020005 030003 040151 050212 900273 910151 300838 3
0117042500999992000010703004+64170-051750FM-12+0070BGGH V0202801N009810147019N0026001N1-01461-01791099531ADDAA103008991GA1011+003909999GA2031+006309999GA3081+014709999GF108991999999004501999999MA1999999098431MD1210171+9999
0143042500999992000010706004+64170-051750FM-12+0070BGGH V0202601N006710114019N0070001N1-01511-02071099741ADDAA103000791GA1011+005409999GA2051+011409999GA3071+013209999GF107991999999004501999999KA1999M-01041KA2999N-01611MA1999999098641MD1210211+9999
0162042500999992000010708504+64170-051750FM-15+0070BGGH V0202601N004112200019N0050001N1-01601-01801999999ADDGA1021+010509999GF104991999999999999999999MA1099701999999MW1161REMMET052BGGH 070850Z 26008KT 5000 VCSH SCT035 M16/M18 Q0997;EQDQ01+000003PRSWM1Q02    003PRSWM1
0360042500999992000010709004+64170-051750FM-12+0070BGGH V0202401N005110138019N0400001N1-01471-02141099921ADDAA103000891GA1011+010809999GA2051+013809999GF105991999999012501999999MA1999999098821MD1210181+9999REMSYN250AAXX  07094 04250 2/682 52410 11147 21214 39882 49992 52018 72287 333 69987 81/36 85/46 555 63995 64991 65001 67001 71422 72050 73050 74437 75050 888 000244 010251 020009 030010 040101 050121 900136 910101 300557 310579 401147 411148 421137 431150 70
0192042500999992000010709504+64170-051750FM-15+0070BGGH V0202301N00361000151CN0011001N1-01601-01601999999ADDGA1091+000159999GF109991999999000251999999MA1099801999999MW1161MW2861OC101031REMMET068BGGH 070950Z 23007G20KT 160V290 1100 +SHSN VCSH VV008 M16/M16 Q0998;EQDQ01+000003PRSWM1Q02    003PRSWM1
0180042500999992000010710504+64170-051750FM-15+0070BGGH V0202501N005110060019N0060001N1-01601-01701999999ADDGA1071+006009999GF107991999999999999999999MA1099801999999MW1161MW2711REMMET064BGGH 071050Z 25010KT 220V280 6000 -SN VCSH BKN020 M16/M17 Q0998;EQDQ01+000003PRSWM1Q02    003PRSWM1
0195042500999992000010711504+64170-051750FM-15+0070BGGH V0202601N005110060019N0060001N1-01601-01601999999ADDGA1071+006009999GA2071+014109999GF107991999999999999999999MA1099801999999MW1161MW2711REMMET063BGGH 071150Z 26010KT 6000 -SN VCSH BKN020 BKN047 M16/M16 Q0998;EQDQ01+000003PRSWM1Q02    003PRSWM1
0117042500999992000010712004+64170-051750FM-12+0070BGGH V0202701N006710102019N0031001N1-01441-01931100001ADDAA103001091GA1011+001809999GA2051+010209999GA3071+015009999GF107991999999001501999999MA1999999098901MD1210081+9999
0168042500999992000010712214+64170-051750FM-16+0070BGGH V0202501N00461000151CN0010001N1-01601-01601999999ADDGA1091+000159999GF109991999999000251999999MA1099801999999MW1751REMMET058BGGH 071221Z 25009KT 210V280 1000 +SN VV010 M16/M16 Q0998;EQDQ01+000003PRSWM1Q02    003PRSWM1
0172042500999992000010712504+64170-051750FM-15+0070BGGH V0202701N005110060019N0050001N1-01601-01601999999ADDGA1071+006009999GF107991999999999999999999MA1099801999999MW1161MW2711REMMET056BGGH 071250Z 27010KT 5000 -SN VCSH BKN020 M16/M16 Q0998;EQDQ01+000003PRSWM1Q02    003PRSWM1
0181042500999992000010713044+64170-051750FM-16+0070BGGH V0202701N005710060019N0020001N1-01601-01601999999ADDGA1071+006009999GF107991999999999999999999MA1099801999999MW1731REMMET055BGGH 071304Z 27011KT 2000 SN VCSH BKN020 M16/M16 Q0998;EQDQ01+000160PRSWM3Q02+000003PRSWM1Q03    003PRSWM1
0181042500999992000010713084+64170-051750FM-16+0070BGGH V0202601N006210015019N0006001N1-01601-01601999999ADDGA1071+001509999GF107991999999999999999999MA1099801999999MW1731REMMET055BGGH 071308Z 26012KT 0600 SN VCSH BKN005 M16/M16 Q0998;EQDQ01+000160PRSWM3Q02+000003PRSWM1Q03    003PRSWM1
0216042500999992000010713294+64170-051750FM-16+0070BGGH V0202601N003610090019N0030001N1-01601-01601999999ADDGA1021+004509999GA2071+009009999GF107991999999999999999999MA1099801999999MW1851REMMET074BGGH 071329Z 26007KT 230V290 3000N -SHSN VCSH FEW015 BKN030 M16/M16 Q0998;EQDQ01+000160PRSWM3Q02+000003PRSWM1Q03    003PRSWM1
0198042500999992000010713504+64170-051750FM-15+0070BGGH V0202701N004610108019N0030001N1-01601-01601999999ADDGA1021+007509999GA2071+010809999GF107991999999999999999999MA1099801999999MW1161MW2851REMMET066BGGH 071350Z 27009KT 3000N -SHSN VCSH FEW025 BKN036 M16/M16 Q0998;EQDQ01+000003PRSWM1Q02    003PRSWM1
0195042500999992000010714504+64170-051750FM-15+0070BGGH V0203101N004610090019N0020001N1-01601-01601999999ADDGA1021+005409999GA2081+009009999GF108991999999999999999999MA1099901999999MW1161MW2711REMMET063BGGH 071450Z 31009KT 2000 -SN VCSH SCT018 OVC030 M16/M16 Q0999;EQDQ01+000003PRSWM1Q02    003PRSWM1
0133042500999992000010715004+64170-051750FM-12+0070BGGH V0202901N006710063019N0014001N1-01461-01741100061ADDAA103000191GA1011+004809999GA2051+006309999GA3071+008709999GA4081+010809999GF108991999999004501999999MA1999999098961MD1210061+9999
0215042500999992000010715224+64170-051750FM-16+0070BGGH V0203101N003110090019N0050001N1-01601-01601999999ADDGA1021+004509999GA2071+009009999GF107991999999999999999999MA1099901999999MW1851REMMET073BGGH 071522Z 31006KT 280V340 5000 -SHSN VCSH FEW015 BKN030 M16/M16 Q0999;EQDQ01+000160PRSWM3Q02+000003PRSWM1Q03    003PRSWM1
0185042500999992000010715504+64170-051750FM-15+0070BGGH V02099999999990090019N0112651N1-01601-01601999999ADDGA1021+004509999GA2071+009009999GF107991999999999999999999MA1099901999999MW1161REMMET059BGGH 071550Z VRB04KT 9999 VCSH FEW015 BKN030 M16/M16 Q0999;EQDQ01+000003PRSWM1Q02    003PRSWM1
0149042500999992000010716504+64170-051750FM-15+0070BGGH V0203601N002110090019N0112651N1-01601-01701999999ADDGA1071+009009999GF107991999999999999999999MA1099901999999MW1001REMMET055BGGH 071650Z 36004KT 320V020 9999 BKN030 M16/M17 Q0999;EQDQ01+000000PRSWM2
0172042500999992000010717504+64170-051750FM-15+0070BGGH V0203501N002110075019N0112651N1-01601-01701999999ADDGA1071+007509999GA2071+012009999GF107991999999999999999999MA1099901999999MW1001REMMET062BGGH 071750Z 35004KT 330V030 9999 BKN025 BKN040 M16/M17 Q0999;EQDQ01+000000PRSWM2
0127042500999992000010718004+64170-051750FM-12+0070BGGH V0203401N003610150019N0350001N1-01491-01971100121ADDAA103000791GA1031+013209999GA2081+015009999GF108991999999012501999999KA1999M-01371KA2999N-01551MA1999999099021MD1210061+9999
0170042500999992000010718504+64170-051750FM-15+0070BGGH V0200301N00151000151CN0040001N1-01601-01701999999ADDGA1091+000159999GF109991999999000251999999MA1099901999999MW1361MW2731REMMET054BGGH 071850Z 03003KT 4000 SN DRSN VV008 M16/M17 Q0999;EQDQ01+000003PRSWM1Q02    003PRSWM1
0170042500999992000010719504+64170-051750FM-15+0070BGGH V0200801N00211000151CN0060001N1-01601-01601999999ADDGA1091+000159999GF109991999999000251999999MA1099901999999MW1361MW2731REMMET054BGGH 071950Z 08004KT 6000 SN DRSN VV012 M16/M16 Q0999;EQDQ01+000003PRSWM1Q02    003PRSWM1
0170042500999992000010720504+64170-051750FM-15+0070BGGH V0200701N00361000151CN0060001N1-01601-01601999999ADDGA1091+000159999GF109991999999000251999999MA1099901999999MW1361MW2731REMMET054BGGH 072050Z 07007KT 6000 SN DRSN VV012 M16/M16 Q0999;EQDQ01+000003PRSWM1Q02    003PRSWM1
0344042500999992000010721004+64170-051750FM-12+0070BGGH V0200701N005110036019N0024001N1-01501-01781100101ADDAA103000791GA1091+003609999GF109991091999999999999999MA1999999099001MD1710021+9999REMSYN250AAXX  07214 04250 2//24 90710 11150 21178 39900 40010 57002 78588 333 69907 89/12 555 61990 62990 63991 64991 66991 67001 68001 71024 72046 73035 74046 75498 888 000072 010077 020004 030005 040096 050080 900096 910064 300784 310813 401150 411150 4211
0159042500999992000010721504+64170-051750FM-15+0070BGGH V0200901N00361000151CN0060001N1-01501-01601999999ADDGA1091+000159999GF109991999999000251999999MA1099901999999MW1731REMMET049BGGH 072150Z 09007KT 6000 SN VV012 M15/M16 Q0999;EQDQ01+000003PRSWM1Q02    003PRSWM1
0159042500999992000010722504+64170-051750FM-15+0070BGGH V0200801N00261000151CN0050001N1-01501-01601999999ADDGA1091+000159999GF109991999999000251999999MA1099901999999MW1731REMMET049BGGH 072250Z 08005KT 5000 SN VV012 M15/M16 Q0999;EQDQ01+000003PRSWM1Q02    003PRSWM1
0344042500999992000010800004+64170-051750FM-12+0070BGGH V0200501N004110030019N0025001N1-01441-01661100061ADDAA103000791GA1091+003009999GF109991091999999999999999MA1999999098961MD1710041+9999REMSYN250AAXX  08004 04250 ///25 90508 11144 21166 39896 40006 57004 69901 78588 333 69907 89/10 555 61990 62990 63991 65001 71025 72036 73032 75498 888 000054 010064 020006 030008 040078 050077 900089 910065 300838 310843 401144 411145 421144 431147 700000 7
0101042500999992000010803004+64170-051750FM-12+0070BGGH V0200801N006210240019N0070001N1-01431-01881100011ADDAA103000791GA1031+021009999GA2081+024009999GF108991999999017501999999MA1999999098911MD1710051+9999
0127042500999992000010806004+64170-051750FM-12+0070BGGH V0200801N007710240019N0210001N1-01391-02071100051ADDAA103000791GA1071+024009999GA2081+030009999GF108991999999022501999999KA1999M-01391KA2999N-01521MA1999999098961MD1210051+9999
0122042500999992000010808504+64170-051750FM-15+0070BGGH V0201201N005712200019N0112651N1-01501-01701999999ADDGF100991999999999999999999MA1099901999999MW1001REMMET044BGGH 080850Z 12011KT 9999 SKC M15/M17 Q0999;EQDQ01+000000PRSWM2
0379042500999992000010809004+64170-051750FM-12+0070BGGH V0201001N004610690019N0450001N1-01411-02081100111ADDAA106000091GA1011+027009999GA2051+069009999GF105991999999022501999999MA1999999099011MD1210051+9999REMSYN250AAXX  08094 04250 35883 51009 11141 21208 39901 40011 52005 333 81/59 85/73 555 60/// 71498 72050 73050 74498 75050 888 000095 010092 020009 030007 040089 050097 900109 910081 300563 310557 401141 411140 421138 431141 700000 70000 720000 730000 74000EQDQ01  00002PRCP06
0122042500999992000010809504+64170-051750FM-15+0070BGGH V0201101N006712200019N0112651N1-01501-01701999999ADDGF100991999999999999999999MA1099901999999MW1001REMMET044BGGH 080950Z 11013KT 9999 SKC M15/M17 Q0999;EQDQ01+000000PRSWM2
0141042500999992000010810504+64170-051750FM-15+0070BGGH V0201101N005712200019N0112651N1-01601-01801999999ADDGA1021+006009999GF102991999999999999999999MA1100001999999MW1001REMMET047BGGH 081050Z 11011KT 9999 FEW020 M16/M18 Q1000;EQDQ01+000000PRSWM2
0141042500999992000010811504+64170-051750FM-15+0070BGGH V0201001N005110090019N0112651N1-01601-01801999999ADDGA1071+009009999GF107991999999999999999999MA1100001999999MW1001REMMET047BGGH 081150Z 10010KT 9999 BKN030 M16/M18 Q1000;EQDQ01+000000PRSWM2
0104042500999992000010812004+64170-051750FM-12+0070BGGH V0200901N005710240019N0450001N1-01391-02161100181ADDAA106000091GA1071+024009999GF107991999999022501999999MA1999999099081MD1210071+9999EQDQ01  00002PRCP06
0164042500999992000010812504+64170-051750FM-15+0070BGGH V0201001N006210360019N0112651N1-01601-01801999999ADDGA1021+003009999GA2071+036009999GF107991999999999999999999MA1100001999999MW1001REMMET054BGGH 081250Z 10012KT 9999 FEW010 BKN120 M16/M18 Q1000;EQDQ01+000000PRSWM2
0141042500999992000010813504+64170-051750FM-15+0070BGGH V0201001N006212200019N0112651N1-01601-01801999999ADDGA1021+002409999GF102991999999999999999999MA1100001999999MW1001REMMET047BGGH 081350Z 10012KT 9999 FEW008 M16/M18 Q1000;EQDQ01+000000PRSWM2
0164042500999992000010814504+64170-051750FM-15+0070BGGH V0201001N006712200019N0112651N1-01501-01801999999ADDGA1021+000909999GA2021+030009999GF104991999999999999999999MA1100001999999MW1001REMMET054BGGH 081450Z 10013KT 9999 FEW003 SCT100 M15/M18 Q1000;EQDQ01+000000PRSWM2
0363042500999992000010815004+64170-051750FM-12+0070BGGH V0200901N007210240019N0450001N1-01421-02201100231ADDAA106000091GA1071+024009999GF107991999999022501999999MA1999999099131MD1210051+9999REMSYN250AAXX  08154 04250 35883 70914 11142 21220 39913 40023 52005 333 87/58 555 60/// 71453 72050 73050 74484 75050 888 000086 010085 020004 030002 040139 050136 900147 910119 300519 310514 401142 411141 421139 431143 700000 710000 720000 730000 740000 750EQDQ01  00002PRCP06
0164042500999992000010815504+64170-051750FM-15+0070BGGH V0200901N007210300019N0112651N1-01501-01801999999ADDGA1021+015009999GA2071+030009999GF107991999999999999999999MA1100001999999MW1001REMMET054BGGH 081550Z 09014KT 9999 FEW050 BKN100 M15/M18 Q1000;EQDQ01+000000PRSWM2
0164042500999992000010816504+64170-051750FM-15+0070BGGH V0200901N007210300019N0112651N1-01501-01701999999ADDGA1021+015009999GA2071+030009999GF107991999999999999999999MA1100001999999MW1001REMMET054BGGH 081650Z 09014KT 9999 FEW050 BKN100 M15/M17 Q1000;EQDQ01+000000PRSWM2
0164042500999992000010817504+64170-051750FM-15+0070BGGH V0201001N007212200019N0112651N1-01601-01801999999ADDGA1021+015009999GA2021+030009999GF104991999999999999999999MA1100001999999MW1001REMMET054BGGH 081750Z 10014KT 9999 FEW050 SCT100 M16/M18 Q1000;EQDQ01+000000PRSWM2
0369042500999992000010818004+64170-051750FM-12+0070BGGH V0200801N008712200019N0090001N1-01421-02181100141ADDAA103000791GA1031+069009999GF103991999999999999999999KA1120M-01371KA2120N-01461MA1999999099041MD1710091+9999REMSYN249AAXX  08184 04250 //959 30817 11142 21218 39904 40014 57009 69902 72288 333 11137 21146 69907 83/73 555 63990 71097 72465 73321 75050 888 000083 010082 020003 030002 040165 050174 900196 910150 300530 310532 401142 411141 421138 431143 700000 710000
0185042500999992000010818504+64170-051750FM-15+0070BGGH V0201001N007712200019N0112651N1-01601-01701999999ADDGA1021+015009999GA2021+030009999GF104991999999999999999999MA1099901999999MW1361REMMET059BGGH 081850Z 10015KT 9999 DRSN FEW050 SCT100 M16/M17 Q0999;EQDQ01+000003PRSWM1Q02    003PRSWM1
0185042500999992000010819504+64170-051750FM-15+0070BGGH V0201101N009312200019N0112651N1-01501-01701999999ADDGA1021+015009999GA2021+030009999GF104991999999999999999999MA1099901999999MW1361REMMET059BGGH 081950Z 11018KT 9999 DRSN FEW050 SCT100 M15/M17 Q0999;EQDQ01+000003PRSWM1Q02    003PRSWM1
0164042500999992000010820504+64170-051750FM-15+0070BGGH V0200901N007212200019N0112651N1-01501-01801999999ADDGA1021+015009999GA2021+030009999GF104991999999999999999999MA1099901999999MW1001REMMET054BGGH 082050Z 09014KT 9999 FEW050 SCT100 M15/M18 Q0999;EQDQ01+000000PRSWM2
0360042500999992000010821004+64170-051750FM-12+0070BGGH V0200801N009310690019N0110001N1-01401-02121100071ADDAA103000791GA1011+021009999GA2051+069009999GF105991999999017501999999MA1999999098971MD1710071+9999REMSYN250AAXX  08214 04250 2/761 50818 11140 21212 39897 40007 57007 72287 333 69907 81/57 85/73 555 60/// 71118 72050 73392 74312 75050 888 000084 010080 020002 030004 040181 050189 900198 910160 300549 310530 401140 411140 421137 431142 700000 710000 720000
0185042500999992000010821504+64170-051750FM-15+0070BGGH V0201001N008712200019N0112651N1-01501-01701999999ADDGA1021+015009999GA2021+030009999GF104991999999999999999999MA1099901999999MW1361REMMET059BGGH 082150Z 10017KT 9999 DRSN FEW050 SCT100 M15/M17 Q0999;EQDQ01+000003PRSWM1Q02    003PRSWM1
0185042500999992000010822504+64170-051750FM-15+0070BGGH V0201001N007712200019N0112651N1-01401-01701999999ADDGA1021+015009999GA2021+030009999GF104991999999999999999999MA1099801999999MW1361REMMET059BGGH 082250Z 10015KT 9999 DRSN FEW050 SCT100 M14/M17 Q0998;EQDQ01+000003PRSWM1Q02    003PRSWM1
0141042500999992000010823504+64170-051750FM-15+0070BGGH V0200901N007712200019N0112651N1-01401-01701999999ADDGA1021+030009999GF104991999999999999999999MA1099701999999MW1001REMMET047BGGH 082350Z 09015KT 9999 SCT100 M14/M17 Q0997;EQDQ01+000000PRSWM2
0371042500999992000010900004+64170-051750FM-12+0070BGGH V0200701N009810690019N0100001N1-01391-02161099911ADDAA103000791GA1011+027009999GA2071+069009999GF107991999999022501999999MA1999999098811MD1710161+9999OA149901291REMSYN250AAXX  09004 04250 //860 70719 11139 21216 39881 49991 57016 69901 333 69907 81/59 87/73 91125 555 60/// 71107 72387 75050 888 000072 010076 020003 030004 040191 050187 900201 910154 300521 310524 401139 411138 421136 431142 700000 710000 720000 73000
0344042500999992000010903004+64170-051750FM-12+0070BGGH V0200701N010312200019N0060001N1-01431-02131099561ADDAA103000791GA1031+069009999GF103991999999999999999999MA1999999098471MD1710341+9999REMSYN250AAXX  09034 04250 2/956 30720 11143 21213 39847 49956 57034 78587 333 69907 83/73 555 63990 71064 72233 73137 74144 75050 888 000065 010064 020004 030003 040202 050203 900210 910188 300565 310560 401143 411143 421141 431145 700000 710000 720000 73000
0369042500999992000010906004+64170-051750FM-12+0070BGGH V0200701N008210690019N0110001N1-01461-02151099261ADDAA103000791GA1051+069009999GF105991999999999999999999KA1120M-01351KA2120N-01461MA1999999098171MD1710301+9999REMSYN249AAXX  09064 04250 //961 50716 11146 21215 39817 49926 57030 69902 70087 333 11135 21146 69907 85/73 555 63990 71114 72050 73499 75050 888 000070 010071 020005 030003 040162 050191 900204 910159 300552 310547 401146 411144 421136 431146 700000 710000
0122042500999992000010908504+64170-051750FM-15+0070BGGH V0200901N005712200019N0112651N1-01601-01701999999ADDGF100991999999999999999999MA1098921999999MW1001REMMET044BGGH 090850Z 09011KT 9999 SKC M16/M17 Q0989;EQDQ01+000000PRSWM2
0363042500999992000010909004+64170-051750FM-12+0070BGGH V0200701N005710690019N0500001N1-01461-01911099021ADDAA106000091GA1071+069009999GF107991999999999999999999MA1999999097941MD1710231+9999REMSYN250AAXX  09094 04250 35984 70711 11146 21191 39794 49902 57023 333 87/73 555 60/// 71500 72050 73050 74050 75050 888 000067 010072 020005 030005 040114 050129 900148 910112 300682 310653 401146 411146 421144 431148 700000 710000 720000 730000 740000 750EQDQ01  00002PRCP06
0122042500999992000010909504+64170-051750FM-15+0070BGGH V0200801N005712200019N0112651N1-01601-01701999999ADDGF100991999999999999999999MA1098821999999MW1001REMMET044BGGH 090950Z 08011KT 9999 SKC M16/M17 Q0988;EQDQ01+000000PRSWM2
0122042500999992000010910504+64170-051750FM-15+0070BGGH V0201001N003612200019N0112651N1-01601-01701999999ADDGF100991999999999999999999MA1098821999999MW1001REMMET044BGGH 091050Z 10007KT 9999 SKC M16/M17 Q0988;EQDQ01+000000PRSWM2
0363042500999992000010912004+64170-051750FM-12+0070BGGH V0203601N006712200019N0450001N1-01571-01801098871ADDAA106000091GA1031+069009999GF103991999999999999999999MA1999999097781MD1710161+9999REMSYN250AAXX  09124 04250 35983 33613 11157 21180 39778 49887 57016 333 83/73 555 60/// 71478 72050 73050 75050 888 000358 010357 020004 030006 040133 050142 900149 910123 300824 310840 401157 411153 421149 431157 700000 710000 720000 730000 740000 750000 99EQDQ01  00002PRCP06
0141042500999992000010913504+64170-051750FM-15+0070BGGH V0203601N003612200019N0112651N1-01701-01701999999ADDGA1021+003009999GF102991999999999999999999MA1098611999999MW1001REMMET047BGGH 091350Z 36007KT 9999 FEW010 M17/M17 Q0986;EQDQ01+000000PRSWM2
0141042500999992000010914504+64170-051750FM-15+0070BGGH V0203501N003112200019N0112651N1-01801-01801999999ADDGA1021+003009999GF102991999999999999999999MA1098611999999MW1001REMMET047BGGH 091450Z 35006KT 9999 FEW010 M18/M18 Q0986;EQDQ01+000000PRSWM2
0363042500999992000010915004+64170-051750FM-12+0070BGGH V0203401N004110690019N0450001N1-01581-01941098821ADDAA106000091GA1051+069009999GF105991999999999999999999MA1999999097731MD1710051+9999REMSYN250AAXX  09154 04250 35983 53408 11158 21194 39773 49882 57005 333 85/73 555 60/// 71493 72050 73050 74050 75050 888 000339 010350 020007 030009 040077 050083 900093 910075 300740 310684 401158 411156 421155 431158 700000 710000 720000 730000 740000 750EQDQ01  00002PRCP06
0141042500999992000010916504+64170-051750FM-15+0070BGGH V02099999999992200019N0112651N1-01801-01901999999ADDGA1021+001509999GF102991999999999999999999MA1098711999999MW1001REMMET047BGGH 091650Z VRB04KT 9999 FEW005 M18/M19 Q0987;EQDQ01+000000PRSWM2
0141042500999992000010917504+64170-051750FM-15+0070BGGH V0200301N001012200019N0112651N1-01801-01901999999ADDGA1021+003009999GF102991999999999999999999MA1098711999999MW1001REMMET047BGGH 091750Z 03002KT 9999 FEW010 M18/M19 Q0987;EQDQ01+000000PRSWM2
0389042500999992000010918004+64170-051750FM-12+0070BGGH V0203401N005112200019N0500001N1-01701-02431098931ADDAA106000091GA1001+999999999GF100991001001999999001001KA1120M-01421KA2120N-01701MA1999999097831MD1210101+9999REMSYN250AAXX  09184 04250 35984 03410 11170 21243 39783 49893 52010 333 11142 21170 555 60/// 71500 72050 73050 75050 888 000337 010019 020006 030025 040104 050066 900104 910043 300517 310565 401170 411166 421162 431170 700000 710000 720000 730000 740000 750EQDQ01  00002PRCP06
0141042500999992000010918504+64170-051750FM-15+0070BGGH V0200901N001012200019N0112651N1-01801-01801999999ADDGA1021+003009999GF102991999999999999999999MA1098821999999MW1001REMMET047BGGH 091850Z 09002KT 9999 FEW010 M18/M18 Q0988;EQDQ01+000000PRSWM2
0360042500999992000010921004+64170-051750FM-12+0070BGGH V0200301N004110720019N0500001N1-01621-01801099191ADDAA103000791GA1011+002109999GA2051+072009999GF105991999999002501999999MA1999999098091MD1210261+9999REMSYN250AAXX  09214 04250 2/384 50308 11162 21180 39809 49919 52026 77777 333 69907 81/07 85/74 555 63990 71500 72050 73050 74050 75050 888 000025 010034 020011 030012 040078 050053 900085 910030 300844 310873 401162 411165 421161 431169 700000 710000 720000
0122042500999992000010921504+64170-051750FM-15+0070BGGH V0200801N003612200019N0112651N1-01701-01901999999ADDGF100991999999999999999999MA1099091999999MW1001REMMET044BGGH 092150Z 08007KT 9999 SKC M17/M19 Q0991;EQDQ01+000000PRSWM2
0141042500999992000010922504+64170-051750FM-15+0070BGGH V0200501N003112200019N0112651N1-01701-01801999999ADDGA1021+012609999GF102991999999999999999999MA1099191999999MW1001REMMET047BGGH 092250Z 05006KT 9999 FEW042 M17/M18 Q0992;EQDQ01+000000PRSWM2
0141042500999992000010923504+64170-051750FM-15+0070BGGH V0200601N001512200019N0112651N1-01601-01701999999ADDGA1021+014409999GF102991999999999999999999MA1099291999999MW1001REMMET047BGGH 092350Z 06003KT 9999 FEW048 M16/M17 Q0993;EQDQ01+000000PRSWM2
0360042500999992000011000004+64170-051750FM-12+0070BGGH V0200601N002610138019N0450001N1-01431-01841099501ADDAA103000791GA1011+005409999GA2071+013809999GF107991999999004501999999MA1999999098411MD1210321+9999REMSYN250AAXX  10004 04250 //483 70605 11143 21184 39841 49950 52032 69901 70077 333 69907 81/18 87/46 555 63990 71475 72050 73050 75050 888 000060 010069 020005 030009 040053 050050 900082 910025 300714 310707 401143 411145 421142 431150 700000 710000 720000
0167042500999992000011003004+64170-051750FM-12+0070BGGH V0200201N005712200019N0500001N1-01471-01791099811ADDAA106000091GF103991999999999999999999MA1999999098711MD1210301+9999REMSYN070AAXX  10034 04250 35984 30211 11147 21179 39871 49981 52030 333 74482;EQDQ01  00002PRCP06
0146042500999992000011006004+64170-051750FM-12+0070BGGH V0200101N008212200019N0170001N1-01541-01881100121ADDAA106000091GA1011+012609999GA2031+072009999GF103991999999012501999999KA1999M-01421KA2999N-01751MA1999999099011MD1210301+9999EQDQ01  00002PRCP06
0141042500999992000011008504+64170-051750FM-15+0070BGGH V0200401N004612200019N0112651N1-01701-01801999999ADDGA1021+030009999GF102991999999999999999999MA1100201999999MW1001REMMET047BGGH 100850Z 04009KT 9999 FEW100 M17/M18 Q1002;EQDQ01+000000PRSWM2
0358042500999992000011009004+64170-051750FM-12+0070BGGH V0200101N008212200019N0130001N1-01491-02131100371ADDAA106000091GA1011+069009999GF101991999999999999999999MA1999999099261MD1210251+9999REMSYN245AAXX  10094 04250 35963 10116 11149 21213 39926 40037 52025 333 81/73 555 60/// 71131 72050 73300 74202 75050 888 000011 010014 020006 030005 040158 050154 900166 910146 300588 310665 401149 411150 421148 431154 720000 740000 999 060032 070002 ;EQDQ01  00002PRCP06
0141042500999992000011009504+64170-051750FM-15+0070BGGH V0200301N004612200019N0112651N1-01701-01801999999ADDGA1021+030009999GF102991999999999999999999MA1100201999999MW1001REMMET047BGGH 100950Z 03009KT 9999 FEW100 M17/M18 Q1002;EQDQ01+000000PRSWM2
0141042500999992000011010504+64170-051750FM-15+0070BGGH V0200401N005112200019N0112651N1-01701-01801999999ADDGA1021+030009999GF102991999999999999999999MA1100311999999MW1001REMMET047BGGH 101050Z 04010KT 9999 FEW100 M17/M18 Q1003;EQDQ01+000000PRSWM2
0141042500999992000011011504+64170-051750FM-15+0070BGGH V0200601N004612200019N0112651N1-01701-01801999999ADDGA1021+030009999GF102991999999999999999999MA1100311999999MW1001REMMET047BGGH 101150Z 06009KT 9999 FEW100 M17/M18 Q1003;EQDQ01+000000PRSWM2
0363042500999992000011012004+64170-051750FM-12+0070BGGH V0200401N007212200019N0500001N1-01471-02221100541ADDAA106000091GA1031+069009999GF103991999999999999999999MA1999999099431MD1210171+9999REMSYN250AAXX  10124 04250 35984 30414 11147 21222 39943 40054 52017 333 83/73 555 60/// 71500 72050 73050 75050 888 000044 010035 020005 030008 040136 050152 900165 910136 300535 310565 401147 411147 421140 431149 700000 710000 720000 730000 740000 750000 99EQDQ01  00002PRCP06
0122042500999992000011013504+64170-051750FM-15+0070BGGH V0200801N006712200019N0112651N1-01701-01701999999ADDGF100991999999999999999999MA1100511999999MW1001REMMET044BGGH 101350Z 08013KT 9999 SKC M17/M17 Q1005;EQDQ01+000000PRSWM2
0122042500999992000011014504+64170-051750FM-15+0070BGGH V0200701N006212200019N0112651N1-01701-01801999999ADDGF100991999999999999999999MA1100511999999MW1001REMMET044BGGH 101450Z 07012KT 9999 SKC M17/M18 Q1005;EQDQ01+000000PRSWM2
0363042500999992000011015004+64170-051750FM-12+0070BGGH V0200701N008212200019N0350001N1-01511-01951100721ADDAA106000091GA1031+069009999GF103991999999999999999999MA1999999099611MD1210181+9999REMSYN250AAXX  10154 04250 35981 30716 11151 21195 39961 40072 52018 333 83/73 555 60/// 71394 72050 73050 74050 75050 888 000067 010065 020004 030004 040155 050139 900158 910110 300691 310721 401151 411152 421149 431167 700000 710000 720000 730000 740000 750EQDQ01  00002PRCP06
0162042500999992000011015504+64170-051750FM-15+0070BGGH V0200801N008212200019N0112651N1-01601-01801999999ADDGA1021+018009999GF102991999999999999999999MA1100511999999MW1361REMMET052BGGH 101550Z 08016KT 9999 DRSN FEW060 M16/M18 Q1005;EQDQ01+000003PRSWM1Q02    003PRSWM1
0162042500999992000011016504+64170-051750FM-15+0070BGGH V0200801N006712200019N0112651N1-01601-01801999999ADDGA1021+018009999GF102991999999999999999999MA1100511999999MW1361REMMET052BGGH 101650Z 08013KT 9999 DRSN FEW060 M16/M18 Q1005;EQDQ01+000003PRSWM1Q02    003PRSWM1
0162042500999992000011017504+64170-051750FM-15+0070BGGH V0200801N007212200019N0112651N1-01501-01701999999ADDGA1021+006009999GF102991999999999999999999MA1100611999999MW1361REMMET052BGGH 101750Z 08014KT 9999 DRSN FEW020 M15/M17 Q1006;EQDQ01+000003PRSWM1Q02    003PRSWM1
0389042500999992000011018004+64170-051750FM-12+0070BGGH V0200601N006710690019N0500001N1-01471-01871100831ADDAA106000091GA1051+069009999GF105991999999999999999999KA1120M-01361KA2120N-01671MA1999999099721MD1210111+9999REMSYN250AAXX  10184 04250 35984 50613 11147 21187 39972 40083 52011 333 11136 21167 85/73 555 60/// 71500 72050 73050 75050 888 000057 010057 020004 030004 040133 050137 900148 910131 300711 310660 401147 411148 421146 431149 700000 710000 720000 730000 7400EQDQ01  00002PRCP06
0141042500999992000011019504+64170-051750FM-15+0070BGGH V0201201N001512200019N0112651N1-01601-01601999999ADDGA1021+006009999GF102991999999999999999999MA1100811999999MW1001REMMET047BGGH 101950Z 12003KT 9999 FEW020 M16/M16 Q1008;EQDQ01+000000PRSWM2
0141042500999992000011020504+64170-051750FM-15+0070BGGH V02099999999992200019N0112651N1-01701-02001999999ADDGA1021+006009999GF102991999999999999999999MA1100811999999MW1001REMMET047BGGH 102050Z VRB01KT 9999 FEW020 M17/M20 Q1008;EQDQ01+000000PRSWM2
0363042500999992000011021004+64170-051750FM-12+0070BGGH V0200501N003110690019N0500001N1-01401-02041101051ADDAA106000091GA1071+069009999GF107991999999999999999999MA1999999099941MD1210221+9999REMSYN250AAXX  10214 04250 35984 70506 11140 21204 39994 40105 52022 333 87/73 555 60/// 71500 72050 73050 74050 75050 888 000046 010055 020008 030007 040062 050075 900098 910044 300585 310591 401140 411144 421140 431156 700000 710000 720000 730000 740000 750EQDQ01  00002PRCP06
0141042500999992000011021504+64170-051750FM-15+0070BGGH V0200901N001512200019N0112651N1-01401-01801999999ADDGA1021+018009999GF102991999999999999999999MA1100911999999MW1001REMMET047BGGH 102150Z 09003KT 9999 FEW060 M14/M18 Q1009;EQDQ01+000000PRSWM2
0122042500999992000011022504+64170-051750FM-15+0070BGGH V0201101N001512200019N0112651N1-01601-01701999999ADDGF100991999999999999999999MA1101021999999MW1001REMMET044BGGH 102250Z 11003KT 9999 SKC M16/M17 Q1010;EQDQ01+000000PRSWM2
0122042500999992000011023504+64170-051750FM-15+0070BGGH V0209999C000012200019N0112651N1-01501-01801999999ADDGF100991999999999999999999MA1101021999999MW1001REMMET044BGGH 102350Z 00000KT 9999 SKC M15/M18 Q1010;EQDQ01+000000PRSWM2
0120042500999992000011100004+64170-051750FM-12+0070BGGH V0200501N001510720019N0500001N1-01321-02001101221ADDAA106000091GA1031+024009999GA2071+072009999GF107991999999017501999999MA1999999100121MD1210181+9999EQDQ01  00002PRCP06
0141042500999992000011100504+64170-051750FM-15+0070BGGH V0201001N002112200019N0112651N1-01601-01701999999ADDGA1021+030009999GF102991999999999999999999MA1101081999999MW1001REMMET047BGGH 110050Z 10004KT 9999 FEW100 M16/M17 Q1011;EQDQ01+000000PRSWM2
0149042500999992000011101504+64170-051750FM-15+0070BGGH V0200501N002112200019N0112651N1-01401-01601999999ADDGA1021+009009999GF102991999999999999999999MA1101081999999MW1001REMMET055BGGH 110150Z 05004KT 350V080 9999 FEW030 M14/M16 Q1011;EQDQ01+000000PRSWM2
0344042500999992000011103004+64170-051750FM-12+0070BGGH V0200301N001510210019N0500001N1-01201-01801101361ADDAA103000791GA1071+021009999GF107991999999017501999999MA1999999100261MD1210141+9999REMSYN250AAXX  11034 04250 2/784 70303 11120 21180 30026 40136 52014 72287 333 69907 87/57 555 60/// 71500 72050 73050 74050 75050 888 000030 010035 020012 030060 040032 050026 900043 910009 300602 310586 401120 411122 421119 431125 700000 710000 720000 73000
0111042500999992000011106004+64170-051750FM-12+0070BGGH V0201501N005710138019N0450001N1-01071-01561101421ADDAA103000791GA1081+013809999GF108991999999012501999999KA1999M-01071KA2999N-01561MA1999999100321MD1210061+9999
0141042500999992000011106504+64170-051750FM-15+0070BGGH V0201201N005712200019N0112651N1-01101-01501999999ADDGA1021+013809999GF104991999999999999999999MA1101291999999MW1001REMMET047BGGH 110650Z 12011KT 9999 SCT046 M11/M15 Q1013;EQDQ01+000000PRSWM2
0141042500999992000011107504+64170-051750FM-15+0070BGGH V0201201N006712200019N0112651N1-01101-01601999999ADDGA1021+013809999GF104991999999999999999999MA1101291999999MW1001REMMET047BGGH 110750Z 12013KT 9999 SCT046 M11/M16 Q1013;EQDQ01+000000PRSWM2
0141042500999992000011108504+64170-051750FM-15+0070BGGH V0201201N007212200019N0112651N1-01101-01501999999ADDGA1021+013809999GF104991999999999999999999MA1101291999999MW1001REMMET047BGGH 110850Z 12014KT 9999 SCT046 M11/M15 Q1013;EQDQ01+000000PRSWM2
0363042500999992000011109004+64170-051750FM-12+0070BGGH V0201201N004610117019N0450001N1-01031-01731101541ADDAA106000091GA1081+011709999GF108991999999012501999999MA1999999100441MD1210121+9999REMSYN250AAXX  11094 04250 35683 81209 11103 21173 30044 40154 52012 333 88/39 555 60/// 71495 72050 73050 74050 75050 888 000123 010136 020007 030012 040085 050107 900128 910085 300549 310571 401103 411101 421099 431105 700000 710000 720000 730000 740000 750EQDQ01  00002PRCP06
0141042500999992000011109504+64170-051750FM-15+0070BGGH V0201201N008212200019N0112651N1-01201-01501999999ADDGA1021+012309999GF104991999999999999999999MA1101291999999MW1001REMMET047BGGH 110950Z 12016KT 9999 SCT041 M12/M15 Q1013;EQDQ01+000000PRSWM2
0125042500999992000011110504+64170-051750FM-15+0070BGGH V0201101N007712200019N0112651N1-01201-01501999999ADDGA1021+012009999GF104991999999999999999999MW1001REMMET046BGGH 111050Z 11015KT 9999 SCT040 M12/M15 Q101;EQDQ01+000000PRSWM2
0141042500999992000011111504+64170-051750FM-15+0070BGGH V0201101N008210120019N0112651N1-01201-01501999999ADDGA1071+012009999GF107991999999999999999999MA1101291999999MW1001REMMET047BGGH 111150Z 11016KT 9999 BKN040 M12/M15 Q1013;EQDQ01+000000PRSWM2
0363042500999992000011112004+64170-051750FM-12+0070BGGH V0201101N006210105019N0500001N1-01011-01731101481ADDAA106000091GA1081+010509999GF108991999999012501999999MA1999999100381MD1710061+9999REMSYN250AAXX  11124 04250 35684 81112 11101 21173 30038 40148 57006 333 88/35 555 60/// 71500 72050 73050 75050 888 000112 010118 020008 030007 040122 050116 900130 910100 300560 310553 401101 411099 421097 431102 700000 710000 720000 730000 740000 750000 99EQDQ01  00002PRCP06
0141042500999992000011112504+64170-051750FM-15+0070BGGH V0201101N008210120019N0112651N1-01101-01501999999ADDGA1071+012009999GF107991999999999999999999MA1101291999999MW1001REMMET047BGGH 111250Z 11016KT 9999 BKN040 M11/M15 Q1013;EQDQ01+000000PRSWM2
0164042500999992000011113504+64170-051750FM-15+0070BGGH V0201301N007710300019N0112651N1-01101-01401999999ADDGA1021+012009999GA2071+030009999GF107991999999999999999999MA1101191999999MW1001REMMET054BGGH 111350Z 13015KT 9999 FEW040 BKN100 M11/M14 Q1012;EQDQ01+000000PRSWM2
0175042500999992000011114504+64170-051750FM-15+0070BGGH V0201601N008210135019N0112651N1-01001-01301999999ADDGA1021+007209999GA2081+013509999GF108991999999999999999999MA1101191999999MW1001OC101391REMMET057BGGH 111450Z 16016G27KT 9999 FEW024 OVC045 M10/M13 Q1012;EQDQ01+000000PRSWM2
0117042500999992000011115004+64170-051750FM-12+0070BGGH V0201501N012310300019N0060001N1-00851-01431101331ADDAA103000791GA1011+009009999GA2031+027009999GA3051+030009999GF105991999999008001999999MA1999999100241MD1710141+9999
0162042500999992000011115504+64170-051750FM-15+0070BGGH V0201601N010310135019N0112651N1-00901-01101999999ADDGA1081+013509999GF108991999999999999999999MA1101081999999MW1361REMMET052BGGH 111550Z 16020KT 9999 DRSN OVC045 M09/M11 Q1011;EQDQ01+000003PRSWM1Q02    003PRSWM1
0167042500999992000011116504+64170-051750FM-15+0070BGGH V0201601N008210060019N0060001N1-00801-01001999999ADDGA1081+006009999GF108991999999999999999999MA1101021999999MW1161MW2361MW3711REMMET061BGGH 111650Z 16016KT 6000 -SN DRSN VCSH OVC020 M08/M10 Q1010;EQDQ01+000003PRSWM1
0213042500999992000011117504+64170-051750FM-15+0070BGGH V0201501N008210051019N0050001N1-00701-00901999999ADDGA1071+005109999GA2081+008409999GF108991999999999999999999MA1101021999999MW1361MW2731OC101341REMMET073BGGH 111750Z 15016G26KT 120V180 5000 SN DRSN BKN017 OVC028 M07/M09 Q1010;EQDQ01+000003PRSWM1Q02    003PRSWM1
0111042500999992000011118004+64170-051750FM-12+0070BGGH V0201501N010810039019N0017001N1-00601-00971101151ADDAA103002091GA1091+003909999GF109991091999999999999999KA1999M-00601KA2999N-01091MA1999999100071MD1710171+9999
0181042500999992000011118014+64170-051750FM-16+0070BGGH V0201601N00871000151CN0015001N1-00701-00701999999ADDGA1091+000159999GF109991999999000251999999MA1101021999999MW1381MW2731OC101751REMMET057BGGH 111801Z 16017G34KT 1500 SN BLSN VV013 M07/M07 Q1010;EQDQ01+000003PRSWM1Q02    003PRSWM1
0179042500999992000011118504+64170-051750FM-15+0070BGGH V0201501N009310039019N0040001N1-00701-00701999999ADDGA1081+003909999GF108991999999999999999999MA1101021999999MW1731OC101541REMMET061BGGH 111850Z 15018G30KT 120V180 4000 SN OVC013 M07/M07 Q1010;EQDQ01+000003PRSWM1Q02    003PRSWM1
0194042500999992000011119004+64170-051750FM-15+0070BGGH V0201501N006710075019N0060001N1-00601-00801999999ADDGA1071+007509999GA2071+009009999GF107991999999999999999999MA1101021999999MW1731OC101541REMMET060BGGH 111900Z 15013G30KT 6000 SN BKN025 BKN030 M06/M08 Q1010;EQDQ01+000003PRSWM1Q02    003PRSWM1
0171042500999992000011119074+64170-051750FM-16+0070BGGH V0201501N006710039019N0040001N1-00601-00801999999ADDGA1081+003909999GF108991999999999999999999MA1101021999999MW1731OC101541REMMET053BGGH 111907Z 15013G30KT 4000 SN OVC013 M06/M08 Q1010;EQDQ01+000003PRSWM1Q02    003PRSWM1
0171042500999992000011119254+64170-051750FM-15+0070BGGH V0201601N012910027019N0035001N1-00601-00601999999ADDGA1081+002709999GF108991999999999999999999MA1101021999999MW1731OC101901REMMET053BGGH 111925Z 16025G37KT 3500 SN OVC009 M06/M06 Q1010;EQDQ01+000003PRSWM1Q02    003PRSWM1
0171042500999992000011119264+64170-051750FM-16+0070BGGH V0201601N012910027019N0035001N1-00601-00601999999ADDGA1081+002709999GF108991999999999999999999MA1101021999999MW1731OC101901REMMET053BGGH 111926Z 16025G37KT 3500 SN OVC009 M06/M06 Q1010;EQDQ01+000003PRSWM1Q02    003PRSWM1
0192042500999992000011119324+64170-051750FM-16+0070BGGH V0201401N007710018019N0010001N1-00601-00601999999ADDGA1081+001809999GF108991999999999999999999MA1101021999999MW1381MW2731OC101491REMMET068BGGH 111932Z 14015G29KT 120V180 1000 SN BLSN OVC006 M06/M06 Q1010 :;EQDQ01+000003PRSWM1Q02    003PRSWM1
0240042500999992000011119444+64170-051750FM-16+0070BGGH V0201601N011310039019N0040001N1-00601-00601999999ADDGA1071+003909999GA2071+007509999GA3081+009009999GF108991999999999999999999MA1101021999999MW1381MW2861OC101701REMMET084BGGH 111944Z 16022G33KT 120V190 4000 SHSN BLSN BKN013 BKN025 OVC030 M06/M06 Q1010 :;EQDQ01+000003PRSWM1Q02    003PRSWM1
0227042500999992000011119504+64170-051750FM-15+0070BGGH V0201601N014910120019N0040001N1-00601+99999999999ADDGA1021+004509999GA2071+012009999GA3071+021009999GF107991999999999999999999MA1100911999999MW1381MW2731OC102011REMMET071BGGH 111950Z 16029G39KT 4000 SN BLSN SCT015 BKN040 BKN075 M06/// Q1009;EQDQ01+000003PRSWM1Q02    003PRSWM1
0230042500999992000011120414+64170-051750FM-16+0070BGGH V0201601N012910039019N0030001N1-00501-00501999999ADDGA1071+003909999GA2071+007509999GA3081+012009999GF108991999999999999999999MA1100911999999MW1381MW2731OC101801REMMET074BGGH 112041Z 16025G35KT 3000 SN BLSN BKN013 BKN025 OVC040 M05/M05 Q1009 :;EQDQ01+000003PRSWM1Q02    003PRSWM1
0181042500999992000011120504+64170-051750FM-15+0070BGGH V0201601N014910030019N0015001N1-00601+99999999999ADDGA1081+003009999GF108991999999999999999999MA1100911999999MW1381MW2731OC102311REMMET057BGGH 112050Z 16029G45KT 1500 SN BLSN OVC010 M06/// Q1009;EQDQ01+000003PRSWM1Q02    003PRSWM1
0133042500999992000011121004+64170-051750FM-12+0070BGGH V0201601N016410123019N0006001N1-00421-00921101021ADDAA103006191GA1011+005109999GA2031+009909999GA3051+012309999GA4071+014409999GF107991999999004501999999MA1999999099951MD1710121+9999
0238042500999992000011121104+64170-051750FM-16+0070BGGH V0201601N013410096019N0045001N1-00501-00501999999ADDGA1021+004509999GA2071+009609999GA3071+012909999GF107991999999999999999999MA1100911999999MW1381MW2731OC101851REMMET082BGGH 112110Z 16026G36KT 110V190 4500 SN BLSN SCT015 BKN032 BKN043 M05/M05 Q1009 :;EQDQ01+000003PRSWM1Q02    003PRSWM1
0191042500999992000011121504+64170-051750FM-15+0070BGGH V0201501N013410108019N0050001N1-00401-00401999999ADDGA1071+010809999GF107991999999999999999999MA1100911999999MW1381MW2711OC102011REMMET067BGGH 112150Z 15026G39KT 120V180 5000 -SN BLSN BKN036 M04/M04 Q1009;EQDQ01+000003PRSWM1Q02    003PRSWM1
0207042500999992000011122124+64170-051750FM-16+0070BGGH V0201701N010310120019N0050001N1-00401-00501999999ADDGA1021+004509999GA2071+012009999GF107991999999999999999999MA1100911999999MW1381MW2731OC102011REMMET067BGGH 112212Z 17020G39KT 5000 SN BLSN SCT015 BKN040 M04/M05 Q1009 :;EQDQ01+000003PRSWM1Q02    003PRSWM1
0182042500999992000011122314+64170-051750FM-16+0070BGGH V0201601N010810144019N0080001N1-00401-00501999999ADDGA1071+014409999GF107991999999999999999999MA1100911999999MW1381OC102311REMMET064BGGH 112231Z 16021G45KT 120V190 8000 -BLSN BKN048 M04/M05 Q1009;EQDQ01+000003PRSWM1Q02    003PRSWM1
0173042500999992000011122504+64170-051750FM-15+0070BGGH V0201601N017010144019N0080001N1-00401-00501999999ADDGA1071+014409999GF107991999999999999999999MA1100811999999MW1381OC102211REMMET055BGGH 112250Z 16033G43KT 8000 BLSN BKN048 M04/M05 Q1008;EQDQ01+000003PRSWM1Q02    003PRSWM1
0173042500999992000011123504+64170-051750FM-15+0070BGGH V0201601N018010138019N0080001N1-00401-00401999999ADDGA1071+013809999GF107991999999999999999999MA1100811999999MW1381OC102521REMMET055BGGH 112350Z 16035G49KT 8000 BLSN BKN046 M04/M04 Q1008;EQDQ01+000003PRSWM1Q02    003PRSWM1
0354042500999992000011200004+64170-051750FM-12+0070BGGH V0201601N019010138019N0003001N1-00311-00811100891ADDAA103007991GA1071+013809999GF107991999999012501999999MA1999999099821MD1710131+9999OA149902571REMSYN249AAXX  12004 04250 //603 71637 11031 21081 39982 40089 57013 60131 77175 333 60087 87/46 91049 91150 555 61002 62995 63002 64994 65006 66993 67004 68003 71834 72021 73869 75109 888 000158 010155 020003 030003 040366 050361 060493 070503 090253 900392
0183042500999992000011200264+64170-051750FM-16+0070BGGH V0201501N011310138019N0112651N1-00401-00401999999ADDGA1071+013809999GF107991999999999999999999MA1100811999999MW1381OC102621REMMET065BGGH 120026Z 15022G51KT 080V200 9999 BLSN BKN046 M04/M04 Q1008 :;EQDQ01+000003PRSWM1Q02    003PRSWM1
0183042500999992000011200364+64170-051750FM-16+0070BGGH V0201601N014910126019N0112651N1-00401-00401999999ADDGA1071+012609999GF107991999999999999999999MA1100811999999MW1381OC102111REMMET065BGGH 120036Z 16029G41KT 110V190 9999 BLSN BKN042 M04/M04 Q1008 :;EQDQ01+000003PRSWM1Q02    003PRSWM1
0173042500999992000011200504+64170-051750FM-15+0070BGGH V0201601N018010126019N0080001N1-00401-00501999999ADDGA1071+012609999GF107991999999999999999999MA1100811999999MW1381OC102681REMMET055BGGH 120050Z 16035G52KT 8000 BLSN BKN042 M04/M05 Q1008;EQDQ01+000003PRSWM1Q02    003PRSWM1
0371042500999992000011203004+64170-051750FM-12+0070BGGH V0201601N019510096019N0002001N1-00251-00651100741ADDAA103007991GA1051+009609999GA2071+011709999GF107991999999008001999999MA1999999099681MD1710141+9999OA149902731REMSYN250AAXX  12034 04250 2/502 71638 11025 21065 39968 40074 57014 77277 333 60087 85/32 87/39 91052 91153 555 61999 62994 63001 64997 65013 66994 67007 68004 71827 72015 73848 74860 75077 888 000161 010162 020005 030003 040381 050355 060516 070531 080256 0
0173042500999992000011207504+64170-051750FM-15+0070BGGH V0201801N008210240019N0112651N1-00201-00301999999ADDGA1081+024009999GF108991999999999999999999MA1100311999999MW1361OC101541REMMET055BGGH 120750Z 18016G30KT 9999 DRSN OVC080 M02/M03 Q1003;EQDQ01+000003PRSWM1Q02    003PRSWM1
0181042500999992000011208504+64170-051750FM-15+0070BGGH V0201801N006710180019N0112651N1-00101-00501999999ADDGA1081+018009999GF108991999999999999999999MA1100201999999MW1361OC101541REMMET063BGGH 120850Z 18013G30KT 130V220 9999 DRSN OVC065 M01/M05 Q1002;EQDQ01+000003PRSWM1Q02    003PRSWM1
0117042500999992000011209004+64170-051750FM-12+0070BGGH V0201801N006710330019N0500001N1-00161-01352100291ADDAA103017091GA1011+027009999GA2051+033009999GA3071+039009999GF107991999999022501999999MA1999999099241MD1710241+9999
0181042500999992000011209504+64170-051750FM-15+0070BGGH V0201701N006210180019N0112651N1+00001-00701999999ADDGA1081+018009999GF108991999999999999999999MA1100001999999MW1361OC101231REMMET063BGGH 120950Z 17012G24KT 140V220 9999 DRSN OVC060 M00/M07 Q1000;EQDQ01+000003PRSWM1Q02    003PRSWM1
0201042500999992000011210334+64170-051750FM-16+0070BGGH V0201801N010310135019N0112651N1-00101-00501999999ADDGA1081+013509999GF108991999999999999999999MA1099901999999MW1711OC101951REMMET067BGGH 121033Z 18020G38KT 110V200 9999 -SN DRSN OVC045 M01/M05 Q0999;EQDQ01+000360PRSWM3Q02+000003PRSWM1Q03    003PRSWM1
0191042500999992000011210504+64170-051750FM-15+0070BGGH V0201701N009310135019N0112651N1-00101-00501999999ADDGA1081+013509999GF108991999999999999999999MA1099901999999MW1361MW2711OC101441REMMET067BGGH 121050Z 17018G28KT 140V220 9999 -SN DRSN OVC045 M01/M05 Q0999;EQDQ01+000003PRSWM1Q02    003PRSWM1
0180042500999992000011211114+64170-051750FM-16+0070BGGH V0201801N003110129019N0112651N1+00001-00401999999ADDGA1071+012909999GF107991999999999999999999MA1099901999999MW1711OC100821REMMET062BGGH 121111Z 18006G16KT 100V260 9999 -SN BKN043 M00/M04 Q0999;EQDQ01+000003PRSWM1Q02    003PRSWM1
0160042500999992000011211194+64170-051750FM-16+0070BGGH V02099999999990060019N0070001N1-00101-00401999999ADDGA1071+006009999GF107991999999999999999999MA1099801999999MW1731REMMET050BGGH 121119Z VRB03KT 7000 SN BKN020 M01/M04 Q0998;EQDQ01+000003PRSWM1Q02    003PRSWM1
0160042500999992000011211504+64170-051750FM-15+0070BGGH V02099999999990042019N0050001N1-00101-00301999999ADDGA1081+004209999GF108991999999999999999999MA1099801999999MW1731REMMET050BGGH 121150Z VRB05KT 5000 SN OVC014 M01/M03 Q0998;EQDQ01+000003PRSWM1Q02    003PRSWM1
0133042500999992000011212004+64170-051750FM-12+0070BGGH V0201401N009310120019N0033001N1+00031-00491099881ADDAA103000591GA1011+006609999GA2031+007809999GA3051+012009999GA4081+021009999GF108991999999008001999999MA1999999098841MD1710401+9999
0190042500999992000011212214+64170-051750FM-16+0070BGGH V02099999999990066019N0070001N1-00101-00201999999ADDGA1071+006609999GF107991999999999999999999MA1099701999999MW1711REMMET064BGGH 121221Z VRB13G38KT 7000 -SN DRSN VCSH BKN022 M01/M02 Q0997;EQDQ01+000360PRSWM3Q02+000160PRSWM4Q03+000003PRSWM1
0196042500999992000011212274+64170-051750FM-16+0070BGGH V0201601N012310066019N0070001N1-00101-00101999999ADDGA1071+006609999GF107991999999999999999999MA1099701999999MW1381MW2711OC102421REMMET072BGGH 121227Z 16024G47KT 100V220 7000 -SN BLSN VCSH BKN022 M01/M01 Q0997;EQDQ01+000160PRSWM4Q02+000003PRSWM1
0188042500999992000011212464+64170-051750FM-16+0070BGGH V0201601N017010054019N0050001N1-00101-00101999999ADDGA1081+005409999GF108991999999999999999999MA1099591999999MW1381MW2711OC102421REMMET064BGGH 121246Z 16033G47KT 5000 -SN BLSN VCSH OVC018 M01/M01 Q0996;EQDQ01+000160PRSWM4Q02+000003PRSWM1
0178042500999992000011212504+64170-051750FM-15+0070BGGH V0201601N016510054019N0040001N1-00101-00201999999ADDGA1081+005409999GF108991999999999999999999MA1099491999999MW1161MW2381MW3711OC102261REMMET064BGGH 121250Z 16032G44KT 4000 -SN BLSN VCSH OVC018 M01/M02 Q0995;EQDQ01+000003PRSWM1
0188042500999992000011213014+64170-051750FM-16+0070BGGH V0201601N019010045019N0020001N1-00101-00301999999ADDGA1081+004509999GF108991999999999999999999MA1099491999999MW1381MW2711OC102881REMMET064BGGH 121301Z 16037G56KT 2000 -SN BLSN VCSH OVC015 M01/M03 Q0995;EQDQ01+000160PRSWM4Q02+000003PRSWM1
0196042500999992000011213104+64170-051750FM-16+0070BGGH V0201601N019510045019N0020001N1-00101-00101999999ADDGA1081+004509999GF108991999999999999999999MA1099491999999MW1381MW2711OC103341REMMET072BGGH 121310Z 16038G65KT 130V200 2000 -SN BLSN VCSH OVC015 M01/M01 Q0995;EQDQ01+000160PRSWM4Q02+000003PRSWM1
0177042500999992000011213504+64170-051750FM-15+0070BGGH V0201601N020610030019N0018001N1-00101-00501999999ADDGA1081+003009999GF108991999999999999999999MA1099391999999MW1161MW2381MW3731OC102981REMMET063BGGH 121350Z 16040G58KT 1800 SN BLSN VCSH OVC010 M01/M05 Q0994;EQDQ01+000003PRSWM1
0192042500999992000011214154+64170-051750FM-16+0070BGGH V0201601N01801000151CN0013001N1-00101-00101999999ADDGA1091+000159999GF109991999999000251999999MA1099391999999MW1731OC103701REMMET058BGGH 121415Z 16035G72KT 1300 SN +BLSN VV008 M01/M01 Q0994;EQDQ01+000390PRSWM3Q02+000003PRSWM1Q03    003PRSWM1
0206042500999992000011214504+64170-051750FM-15+0070BGGH V0201601N020110018019N0017001N1-00101-00201999999ADDGA1071+001809999GA2081+004509999GF108991999999999999999999MA1099291999999MW1391MW2731OC103041REMMET066BGGH 121450Z 16039G59KT 1700 SN +BLSN BKN006 OVC015 M01/M02 Q0993;EQDQ01+000003PRSWM1Q02    003PRSWM1
0133042500999992000011215004+64170-051750FM-12+0070BGGH V0201601N016410051019N0005001N1+00021-00101099471ADDAA103023191GA1031+003609999GA2051+005109999GA3071+007509999GA4081+008709999GF108991999999004501999999MA1999999098441MD1710401+9999
0191042500999992000011215504+64170-051750FM-15+0070BGGH V0201601N021110018019N0010001N1+00001+00001999999ADDGA1081+001809999GF108991999999999999999999MA1099391999999MW1391MW2731OC102831REMMET067BGGH 121550Z 16041G55KT 120V180 1000 SN +BLSN OVC006 M00/M00 Q0994;EQDQ01+000003PRSWM1Q02    003PRSWM1
0192042500999992000011216024+64170-051750FM-16+0070BGGH V0201601N023710015019N0008001N1+00001-00101999999ADDGA1081+001509999GF108991999999999999999999MA1099291999999MW1731OC103651REMMET058BGGH 121602Z 16046G71KT 0800 SN +BLSN OVC005 00/M01 Q0993;EQDQ01+000390PRSWM3Q02+000003PRSWM1Q03    003PRSWM1
0182042500999992000011216504+64170-051750FM-15+0070BGGH V0201601N023710018019N0023001N1+00101+00001999999ADDGA1081+001809999GF108991999999999999999999MA1099291999999MW1391MW2731OC102981REMMET058BGGH 121650Z 16046G58KT 2300 SN +BLSN OVC006 01/M00 Q0993;EQDQ01+000003PRSWM1Q02    003PRSWM1
0111042500999992000011218004+64170-051750FM-12+0070BGGH V0201601N018010024019N0006001N1+00021-00011099391ADDAA103017091GA1091+002409999GF109991091999999999999999KA1999M+00111KA2999N-00171MA1999999098361MD1710081+9999
0133042500999992000011221004+64170-051750FM-12+0070BGGH V0201701N022110015019N0004001N1+00011-00011099681ADDAA103011991GA1011+000909999GA2051+001509999GA3071+002709999GA4081+003309999GF108991999999000751999999MA1999999098641MD1210281+9999
0117042500999992000011300004+64170-051750FM-12+0070BGGH V0201801N015410210019N0070001N1-00061-00081100291ADDAA103009991GA1011+009309999GA2051+021009999GA3071+027009999GF107991999999008001999999MA1999999099251MD1210611+9999
0168042500999992000011303004+64170-051750FM-12+0070BGGH V0202201N010810033019N0048001N1-00231-00261100902ADDAA103002091GA1011+001809999GA2051+003309999GA3071+004209999GA4081+008709999GF108991999999001501999999MA1999999099852MD1210601+9999EQDQ01+099853APOSP Q02+100903APOSLP
0127042500999992000011306004+64170-051750FM-12+0070BGGH V0202601N004610033019N0110001N1-00461-00561101371ADDAA103000791GA1071+003309999GA2081+004209999GF108991999999004501999999KA1999M+00061KA2999N-00461MA1999999100301MD1210451+9999
0160042500999992000011307504+64170-051750FM-15+0070BGGH V0200101N001510042019N0060001N1-00501-00501999999ADDGA1081+004209999GF108991999999999999999999MA1101191999999MW1731REMMET050BGGH 130750Z 01003KT 6000 SN OVC014 M05/M05 Q1012;EQDQ01+000003PRSWM1Q02    003PRSWM1
0160042500999992000011308504+64170-051750FM-15+0070BGGH V0203501N003610027019N0050001N1-00501-00501999999ADDGA1081+002709999GF108991999999999999999999MA1101191999999MW1731REMMET050BGGH 130850Z 35007KT 5000 SN OVC009 M05/M05 Q1012;EQDQ01+000003PRSWM1Q02    003PRSWM1
0117042500999992000011309004+64170-051750FM-12+0070BGGH V0203501N008210027019N0046001N1-00471-00541101321ADDAA103000191GA1011+001809999GA2051+002709999GA3081+003609999GF108991999999001501999999MA1999999100251MD1710051+9999
0160042500999992000011309504+64170-051750FM-15+0070BGGH V0203601N008210027019N0050001N1-00601-00601999999ADDGA1081+002709999GF108991999999999999999999MA1101081999999MW1731REMMET050BGGH 130950Z 36016KT 5000 SN OVC009 M06/M06 Q1011;EQDQ01+000003PRSWM1Q02    003PRSWM1
0160042500999992000011310504+64170-051750FM-15+0070BGGH V0203601N009310027019N0050001N1-00601-00601999999ADDGA1081+002709999GF108991999999999999999999MA1100911999999MW1731REMMET050BGGH 131050Z 36018KT 5000 SN OVC009 M06/M06 Q1009;EQDQ01+000003PRSWM1Q02    003PRSWM1
0161042500999992000011311504+64170-051750FM-15+0070BGGH V0200201N010310024019N0080001N1-00401-00401999999ADDGA1081+002409999GF108991999999999999999999MA1100711999999MW1711REMMET051BGGH 131150Z 02020KT 8000 -SN OVC008 M04/M04 Q1007;EQDQ01+000003PRSWM1Q02    003PRSWM1
0360042500999992000011312004+64170-051750FM-12+0070BGGH V0203601N012310027019N0019001N1-00491-00541100751ADDAA103000191GA1031+002109999GA2081+002709999GF108991999999002501999999MA1999999099681MD1710571+9999REMSYN250AAXX  13124 04250 //319 83624 11049 21054 39968 40075 57057 69921 75476 333 69917 83/07 88/09 555 61990 62990 63999 64995 65005 67005 71019 72078 73045 75139 888 000360 010358 020002 030003 040241 050236 900242 910230 300958 310949 401049 411052 4210
0161042500999992000011312254+64170-051750FM-15+0070BGGH V0200401N010310030019N0112651N1-00401-00401999999ADDGA1081+003009999GF108991999999999999999999MA1100511999999MW1711REMMET051BGGH 131225Z 04020KT 9999 -SN OVC010 M04/M04 Q1005;EQDQ01+000003PRSWM1Q02    003PRSWM1
0184042500999992000011312504+64170-051750FM-15+0070BGGH V0200601N010810084019N0112651N1-00401-00401999999ADDGA1021+004509999GA2071+008409999GF107991999999999999999999MA1100411999999MW1711REMMET058BGGH 131250Z 06021KT 9999 -SN SCT015 BKN028 M04/M04 Q1004;EQDQ01+000003PRSWM1Q02    003PRSWM1
0164042500999992000011313504+64170-051750FM-15+0070BGGH V0200701N010310084019N0112651N1-00401-00401999999ADDGA1021+004509999GA2071+008409999GF107991999999999999999999MA1100101999999MW1001REMMET054BGGH 131350Z 07020KT 9999 FEW015 BKN028 M04/M04 Q1001;EQDQ01+000000PRSWM2
0185042500999992000011314504+64170-051750FM-15+0070BGGH V0200501N008210084019N0060001N1-00301-00401999999ADDGA1021+004509999GA2071+008409999GF107991999999999999999999MA1099901999999MW1161REMMET059BGGH 131450Z 05016KT 6000 VCSH FEW015 BKN028 M03/M04 Q0999;EQDQ01+000003PRSWM1Q02    003PRSWM1
0376042500999992000011315004+64170-051750FM-12+0070BGGH V0200401N010810120019N0050001N1-00251-00351099921ADDAA103000791GA1011+008709999GA2051+012009999GA3081+015009999GF108991999999008001999999MA1999999098871MD1710811+9999REMSYN250AAXX  13154 04250 2/550 80421 11025 21035 39887 49992 57081 75475 333 69907 81/29 85/40 88/50 555 61993 62991 63993 65001 71057 72213 73110 74057 75392 888 000044 010041 020005 030006 040212 050227 900243 910206 300931 310934 401025 411028 421022 431
0171042500999992000011315304+64170-051750FM-15+0070BGGH V0200501N008710042019N0015001N1-00301-00301999999ADDGA1081+004209999GF108991999999999999999999MA1099591999999MW1361MW2731REMMET055BGGH 131530Z 05017KT 1500 SN DRSN OVC014 M03/M03 Q0996;EQDQ01+000003PRSWM1Q02    003PRSWM1
0180042500999992000011315444+64170-051750FM-16+0070BGGH V0200401N00871000151CN0006001N1-00301-00301999999ADDGA1091+000159999GF109991999999000251999999MA1099491999999MW1731REMMET054BGGH 131544Z 04017KT 0600 SN DRSN VV005 M03/M03 Q0995;EQDQ01+000360PRSWM3Q02+000003PRSWM1Q03    003PRSWM1
0170042500999992000011315504+64170-051750FM-15+0070BGGH V0200501N00821000151CN0007001N1-00301-00301999999ADDGA1091+000159999GF109991999999000251999999MA1099491999999MW1361MW2731REMMET054BGGH 131550Z 05016KT 0700 SN DRSN VV005 M03/M03 Q0995;EQDQ01+000003PRSWM1Q02    003PRSWM1
0170042500999992000011316504+64170-051750FM-15+0070BGGH V0200201N00721000151CN0007001N1-00301-00301999999ADDGA1091+000159999GF109991999999000251999999MA1099391999999MW1361MW2731REMMET054BGGH 131650Z 02014KT 0700 SN DRSN VV002 M03/M03 Q0994;EQDQ01+000003PRSWM1Q02    003PRSWM1
0170042500999992000011317504+64170-051750FM-15+0070BGGH V0200201N00871000151CN0005001N1-00301-00301999999ADDGA1091+000159999GF109991999999000251999999MA1099091999999MW1361MW2731REMMET054BGGH 131750Z 02017KT 0500 SN DRSN VV002 M03/M03 Q0991;EQDQ01+000003PRSWM1Q02    003PRSWM1
0146042500999992000011318004+64170-051750FM-12+0070BGGH V0200101N010310006019N0006001N1-00291-00311099172ADDAA112000191GA1091+000609999GF109991091999999999999999KA1999M-00221KA2999N-00561MA1999999098122MD1710751+9999EQDQ01+098123APOSP Q02+099173APOSLP
0179042500999992000011318264+64170-051750FM-16+0070BGGH V0200501N00871000151CN0009001N1-00201-00201999999ADDGA1091+000159999GF109991999999000251999999MA1098981999999MW1731MW2871REMMET063BGGH 131826Z 05017KT 0900 SNGS DRSN BKN002 VV004 M02/M02 Q0990;EQDQ01+000360PRSWM4Q02+000003PRSWM1
0176042500999992000011319204+64170-051750FM-15+0070BGGH V0200701N002610084019N0015001N1+00001-00101999999ADDGA1071+008409999GF107991999999999999999999MA1098981999999MW1611MW2711REMMET060BGGH 131920Z 07005KT 1500N 7000SW -RASN BKN028 00/M01 Q0990;EQDQ01+000003PRSWM1Q02    003PRSWM1
0170042500999992000011319324+64170-051750FM-16+0070BGGH V0201901N002610075019N0040001N1-00101-00101999999ADDGA1071+007509999GF107991999999999999999999MA1098981999999MW1671REMMET060BGGH 131932Z 19005KT 4000N 7000SW FZRA BKN025 M01/M01 Q0990;EQDQ01+000003PRSWM1Q02    003PRSWM1
0176042500999992000011319504+64170-051750FM-15+0070BGGH V0201901N003610078019N0030001N1-00101-00101999999ADDGA1071+007809999GF107991999999999999999999MA1098981999999MW1161MW2671REMMET060BGGH 131950Z 19007KT 3000N 5000SW FZRA BKN026 M01/M01 Q0990;EQDQ01+000003PRSWM1Q02    003PRSWM1
0181042500999992000011320354+64170-051750FM-16+0070BGGH V0203001N00101000151CN0005001N1-00101-00101999999ADDGA1091+000159999GF109991999999000251999999MA1099091999999MW1751REMMET055BGGH 132035Z 30002KT 0500 +SN VCSH VV002 M01/M01 Q0991;EQDQ01+000160PRSWM3Q02+000003PRSWM1Q03    003PRSWM1
0160042500999992000011320504+64170-051750FM-15+0070BGGH V0209999999999000151CN0006001N1-00101-00101999999ADDGA1091+000159999GF109991999999000251999999MA1099191999999MW1751REMMET050BGGH 132050Z VRB02KT 0600 +SN VV003 M01/M01 Q0992;EQDQ01+000003PRSWM1Q02    003PRSWM1
0117042500999992000011321004+64170-051750FM-12+007099999V0201601N003610030019N0003001N1+00011-00011099241ADDAA103000591GA1031+000609999GA2051+003009999GA3071+004809999GF107991999999000751999999MA1999999098211MD1210091+9999
0371042500999992000011400004+64170-051750FM-12+007099999V0201701N020010030019N0042001N1+00131-00011099331ADDAA103003091GA1051+003009999GA2081+003909999GF108991999999004501999999MA1999999098311MD1210101+9999OA149902681REMSYN250    AAXX  14004 04250 //442 81739 10013 21001 39831 49933 52010 60041 76776 333 60037 85/10 88/13 91152 555 61992 62991 63005 64081 65709 67002 71042 72088 73060 75313 888 000166 010167 020004 030001 040387 050390 070524 090273 900423 910283 300895 3
0117042500999992000011403004+64170-051750FM-12+007099999V0201701N013410210019N0160001N1+00191-00181099571ADDAA103000591GA1011+008409999GA2051+021009999GA3071+027009999GF107991999999008001999999MA1999999098541MD1210231+9999
