0202062690999992000010100004+52450+005380FM-12-000399999V02099999999999999999N0028001N1+00441+00381102101ADDAA106000091MD1810051+9999OA140199999OA249999999REMSYN092AAXX  01001 06269 36/28 /19// 10044 20038 40210 58005 333 91005 91107 912// 555 51107 512//;EQDQ01  00002PRCP06Q02  00262WGOSPDQ03  00362WGOSPD
0159062690999992000010101004+52450+005380FM-12-000399999V0201801N004019999999N0014001N1+00441+00381102111ADDMD1510031+9999OA140199999OA249999999REMSYN076AAXX  01011 06269 46/14 /1804 10044 20038 40211 55003 333 91005 91106 91204;EQDQ01  00262WGOSPDQ02  00312WGOSPD
0159062690999992000010102004+52450+005380FM-12-000399999V0202001N004019999999N0012001N1+00461+00401102111ADDMD1610031+9999OA140199999OA249999999REMSYN076AAXX  01021 06269 46/12 /2004 10046 20040 40211 56003 333 91006 91106 91204;EQDQ01  00312WGOSPDQ02  00312WGOSPD
0196062690999992000010104004+52450+005380FM-12-000399999V0202001N005019999999N0015001N1+00501+00451102041ADDMD1810071+9999OA140199999OA249999999OA359999999REMSYN086AAXX  01041 06269 46/15 /2005 10050 20045 40204 58007 333 91006 91106 91205 555 53000;EQDQ01  00312WGOSPDQ02  00312WGOSPDQ03  00262WGOSPD
0196062690999992000010105004+52450+005380FM-12-000399999V0202001N005019999999N0006001N1+00511+00461102021ADDMD1610091+9999OA140199999OA249999999OA359999999REMSYN086AAXX  01051 06269 46/06 /2005 10051 20046 40202 56009 333 91006 91106 91205 555 53000;EQDQ01  00312WGOSPDQ02  00312WGOSPDQ03  00262WGOSPD
0147062690999992000010106004+52450+005380FM-12-000399999V02099999999999999999N9999999N1+00521+99999999999ADDIA2999+00309KA1120N+00391REMSYN110AAXX  01061 06269 46/// /21// 10052 2//// 4//// 5//// 333 20039 3/003 910// 911// 912// 555 511// 512// 53///;
0196062690999992000010107004+52450+005380FM-12-000399999V0202301N004019999999N0014001N1+00541+00511102051ADDMD1310011+9999OA140199999OA249999999OA359999999REMSYN086AAXX  01071 06269 46/14 /2304 10054 20051 40205 53001 333 91007 91107 91205 555 53000;EQDQ01  00362WGOSPDQ02  00362WGOSPDQ03  00262WGOSPD
0208062690999992000010108004+52450+005380FM-12-000399999V0202401N004019999999N0010001N1+00571+00541102111ADDMD1310091+9999OA140199999OA249999999OA359999999REMSYN098AAXX  01081 06269 46/10 /2404 10057 20054 40211 53009 333 91006 91107 91205 555 20039 40035 53000;EQDQ01  00312WGOSPDQ02  00362WGOSPDQ03  00262WGOSPD
0164062690999992000010110004+52450+005380FM-12-000399999V0202601N002019999999N0018001N1+00671+00641102221ADDMD1110171+9999OA140100211OA249900261OA359999999REMSYN086AAXX  01101 06269 46/18 /2602 10067 20064 40222 51017 333 91004 91105 91203 555 53005;EQDQ01  00152WGOSPD
0180062690999992000010111004+52450+005380FM-12-000399999V0202901N003019999999N0034001N1+00761+00731102271ADDMD1110161+9999OA140199999OA249900311OA359999999REMSYN086AAXX  01111 06269 46/34 /2903 10076 20073 40227 51016 333 91005 91106 91204 555 53023;EQDQ01  00262WGOSPDQ02  00212WGOSPD
0209062690999992000010112004+52450+005380FM-12-000399999V0203001N003019999999N0046001N1+00721+00691102321ADDAA106000391MD1210151+9999OA140199999OA249900361OA359999999REMSYN104AAXX  01121 06269 16/46 /3003 10072 20069 40232 52015 69931 333 91004 91107 91205 555 51106 51204 53034;EQDQ01  00212WGOSPDQ02  00262WGOSPD
0196062690999992000010113004+52450+005380FM-12-000399999V0203201N005019999999N0150001N1+00811+00751102361ADDMD1110141+9999OA140199999OA249999999OA359999999REMSYN086AAXX  01131 06269 46/65 /3205 10081 20075 40236 51014 333 91007 91107 91205 555 53054;EQDQ01  00362WGOSPDQ02  00362WGOSPDQ03  00262WGOSPD
0196062690999992000010114004+52450+005380FM-12-000399999V0203501N004019999999N9999999N1+00781+00631102371ADDMD1110101+9999OA140199999OA249999999OA359999999REMSYN086AAXX  01141 06269 46/// /3504 10078 20063 40237 51010 333 91005 91107 91205 555 53054;EQDQ01  00262WGOSPDQ02  00362WGOSPDQ03  00262WGOSPD
0180062690999992000010116004+52450+005380FM-12-000399999V0202901N002019999999N0130001N1+00531+00431102481ADDMD1310121+9999OA140199999OA249900261OA359999999REMSYN086AAXX  01161 06269 46/63 /2902 10053 20043 40248 53012 333 91002 91105 91203 555 53003;EQDQ01  00102WGOSPDQ02  00152WGOSPD
0196062690999992000010117004+52450+005380FM-12-000399999V0202001N002019999999N0047001N1+00241+00161102521ADDMD1110151+9999OA140199999OA249999999OA359999999REMSYN086AAXX  01171 06269 46/47 /2002 10024 20016 40252 51015 333 91003 91103 91202 555 53000;EQDQ01  00152WGOSPDQ02  00152WGOSPDQ03  00102WGOSPD
0193062690999992000010118004+52450+005380FM-12-000399999V0202701N001019999999N0041001N1+00221+00161102561ADDAA112000391KA1120M+00821MD1210121+9999OA140100101OA249900361OA359900261REMSYN110AAXX  01181 06269 16/41 /2701 10022 20016 40256 52012 69932 333 10082 91002 91107 91205 555 51103 51202 53000;
0182062690999992000010119004+52450+005380FM-12-000399999V0202101N002019999999N0001001N1+00181+00131999999ADDOA140199999OA249999999OA359999999REMSYN086AAXX  01191 06269 46/01 /2102 10018 20013 4//// 5//// 333 91002 91102 91202 555 53000;EQDQ01  00102WGOSPDQ02  00102WGOSPDQ03  00102WGOSPD
0145062690999992000010120004+52450+005380FM-12-000399999V0202301N001019999999N0001001N1+00111+00071102671ADDMD1310151+9999OA140100101OA249900101OA359900101REMSYN086AAXX  01201 06269 46/01 /2301 10011 20007 40267 53015 333 91002 91102 91202 555 53000;
0143062690999992000010122004+52450+005380FM-12-000399999V0202401N002019999999N0003001N1+00381+00351102751ADDMD1110151+9999OA140199999OA249900211REMSYN076AAXX  01221 06269 46/03 /2402 10038 20035 40275 51015 333 91003 91104 91202;EQDQ01  00152WGOSPD
0102062690999992000010123004+52450+005380FM-12-000399999V0202301N003019999999N0002001N1+00401+00381102781ADDMD1110111+9999REMSYN076AAXX  01231 06269 46/02 /2303 10040 20038 40278 51011 333 910// 911// 91203;
0213062690999992000010200004+52450+005380FM-12-000399999V0202101N002019999999N0001001N1+00431+00411102761ADDAA106000091MD1010041+9999OA140199999OA249900311OA359999999REMSYN092AAXX  02001 06269 36/01 /2102 10043 20041 40276 50004 333 91003 91106 91203 555 51105 51203;EQDQ01  00002PRCP06Q02  00152WGOSPDQ03  00152WGOSPD
0145062690999992000010201004+52450+005380FM-12-000399999V0202101N003019999999N0003001N1+00461+00441999999ADDOA140199999OA249999999REMSYN076AAXX  02011 06269 46/03 /2103 10046 20044 4//// 5//// 333 91004 91105 91203;EQDQ01  00212WGOSPDQ02  00262WGOSPD
0159062690999992000010202004+52450+005380FM-12-000399999V0202001N004019999999N0011001N1+00491+00481102701ADDMD1810081+9999OA140199999OA249999999REMSYN076AAXX  02021 06269 46/11 /2004 10049 20048 40270 58008 333 91005 91105 91204;EQDQ01  00262WGOSPDQ02  00262WGOSPD
0095062690999992000010204004+52450+005380FM-12-000399999V02099999999999999999N9999999N1+00521+99999999999REMSYN086AAXX  02041 06269 46/// /22// 10052 2//// 4//// 5//// 333 910// 911// 912// 555 53///;
0182062690999992000010205004+52450+005380FM-12-000399999V0202001N004019999999N0026001N1+00501+00491102711ADDOA140199999OA249999999OA359999999REMSYN086AAXX  02051 06269 46/26 /2004 10050 20049 40271 5//// 333 91006 91107 91205 555 53000;EQDQ01  00312WGOSPDQ02  00362WGOSPDQ03  00262WGOSPD
0204062690999992000010206004+52450+005380FM-12-000399999V0202001N004019999999N0008001N1+00491+00481102701ADDIA2999+00009KA1120N+00101OA140199999OA259999999REMSYN110AAXX  02061 06269 46/08 /2004 10049 20048 40270 5//// 333 20010 3/100 91006 911// 91206 555 51108 51206 53000;EQDQ01  00312WGOSPDQ02  00312WGOSPD
0142062690999992000010207004+52450+005380FM-12-000399999V0201901N005019999999N0015001N1+00551+99999102611ADDMD1810091+9999OA159999999REMSYN086AAXX  02071 06269 46/15 /1905 10055 2//// 40261 58009 333 910// 911// 91205 555 53000;EQDQ01  00262WGOSPD
0112062690999992000010208004+52450+005380FM-12-000399999V02099999999999999999N0020001N1+00571+00551102691ADDMD1510021+9999REMSYN086AAXX  02081 06269 46/20 /20// 10057 20055 40269 55002 333 910// 911// 912// 555 53000;
0196062690999992000010210004+52450+005380FM-12-000399999V0202101N005019999999N0031001N1+00721+00691102671ADDMD1110061+9999OA140199999OA249999999OA359999999REMSYN086AAXX  02101 06269 46/31 /2105 10072 20069 40267 51006 333 91008 91109 91206 555 53031;EQDQ01  00412WGOSPDQ02  00462WGOSPDQ03  00312WGOSPD
0180062690999992000010211004+52450+005380FM-12-000399999V0202101N004019999999N0025001N1+00711+00671102671ADDMD1610021+9999OA140199999OA249900461OA359999999REMSYN086AAXX  02111 06269 46/25 /2104 10071 20067 40267 56002 333 91007 91109 91206 555 53011;EQDQ01  00362WGOSPDQ02  00312WGOSPD
0124062690999992000010212004+52450+005380FM-12-000399999V0202101N004019999999N0021001N1+00731+00691102681ADDMD1110031+9999REMSYN098AAXX  02121 06269 46/21 /2104 10073 20069 40268 51003 333 91006 911// 912// 555 51107 51205 53009;
0112062690999992000010213004+52450+005380FM-12-000399999V02099999999999999999N9999999N1+00771+00741102661ADDMD1810011+9999REMSYN086AAXX  02131 06269 46/// /22// 10077 20074 40266 58001 333 910// 911// 912// 555 53007;
0196062690999992000010214004+52450+005380FM-12-000399999V0202201N004019999999N9999999N1+00791+00761102611ADDMD1810061+9999OA140199999OA249999999OA359999999REMSYN086AAXX  02141 06269 46/// /2204 10079 20076 40261 58006 333 91007 91107 91205 555 53010;EQDQ01  00362WGOSPDQ02  00362WGOSPDQ03  00262WGOSPD
0095062690999992000010216004+52450+005380FM-12-000399999V02099999999999999999N9999999N1+99999+99999999999REMSYN086AAXX  02161 06269 46/// ///// 1//// 2//// 4//// 5//// 333 910// 911// 912// 555 53///;
0095062690999992000010217004+52450+005380FM-12-000399999V02099999999999999999N9999999N1+99999+99999999999REMSYN086AAXX  02171 06269 46/// ///// 1//// 2//// 4//// 5//// 333 910// 911// 912// 555 53///;
0184062690999992000010218004+52450+005380FM-12-000399999V0202101N003019999999N0030001N1+00791+00751102601ADDKA1120M+00811MD1510011+9999OA140199999OA249900361REMSYN104AAXX  02181 06269 46/30 /2103 10079 20075 40260 55001 333 10081 91005 91107 912// 555 51105 51204 53000;EQDQ01  00262WGOSPD
0095062690999992000010219004+52450+005380FM-12-000399999V02099999999999999999N9999999N1+99999+99999999999REMSYN086AAXX  02191 06269 46/// ///// 1//// 2//// 4//// 5//// 333 910// 911// 912// 555 53///;
0180062690999992000010220004+52450+005380FM-12-000399999V0202101N004019999999N0029001N1+00791+00721102521ADDMD1810071+9999OA140199999OA249900411OA359999999REMSYN086AAXX  02201 06269 46/29 /2104 10079 20072 40252 58007 333 91005 91108 91205 555 53000;EQDQ01  00262WGOSPDQ02  00262WGOSPD
0085062690999992000010222004+52450+005380FM-12-000399999V02099999999999999999N9999999N1+99999+99999999999REMSYN076AAXX  02221 06269 46/// ///// 1//// 2//// 4//// 5//// 333 910// 911// 912//;
0085062690999992000010223004+52450+005380FM-12-000399999V02099999999999999999N9999999N1+99999+99999999999REMSYN076AAXX  02231 06269 46/// ///// 1//// 2//// 4//// 5//// 333 910// 911// 912//;
0213062690999992000010300004+52450+005380FM-12-000399999V0202201N004019999999N0050001N1+00801+00711102391ADDAA106000091MD1610121+9999OA140199999OA249900411OA359999999REMSYN092AAXX  03001 06269 36/50 /2204 10080 20071 40239 56012 333 91006 91108 91205 555 51108 51205;EQDQ01  00002PRCP06Q02  00312WGOSPDQ03  00262WGOSPD
0085062690999992000010301004+52450+005380FM-12-000399999V02099999999999999999N9999999N1+99999+99999999999REMSYN076AAXX  03011 06269 46/// ///// 1//// 2//// 4//// 5//// 333 910// 911// 912//;
0085062690999992000010302004+52450+005380FM-12-000399999V02099999999999999999N9999999N1+99999+99999999999REMSYN076AAXX  03021 06269 46/// ///// 1//// 2//// 4//// 5//// 333 910// 911// 912//;
0095062690999992000010304004+52450+005380FM-12-000399999V02099999999999999999N9999999N1+99999+99999999999REMSYN086AAXX  03041 06269 46/// ///// 1//// 2//// 4//// 5//// 333 910// 911// 912// 555 53///;
0095062690999992000010305004+52450+005380FM-12-000399999V02099999999999999999N9999999N1+99999+99999999999REMSYN086AAXX  03051 06269 46/// ///// 1//// 2//// 4//// 5//// 333 910// 911// 912// 555 53///;
0107062690999992000010306004+52450+005380FM-12-000399999V02099999999999999999N9999999N1+99999+99999999999REMSYN098AAXX  03061 06269 46/// ///// 1//// 2//// 4//// 5//// 333 910// 911// 912// 555 511// 512// 53///;
0196062690999992000010307004+52450+005380FM-12-000399999V0202001N007019999999N0036001N1+00791+00711102071ADDMD1810101+9999OA140199999OA249999999OA359999999REMSYN086AAXX  03071 06269 46/36 /2007 10079 20071 40207 58010 333 91010 91112 91208 555 53000;EQDQ01  00512WGOSPDQ02  00622WGOSPDQ03  00412WGOSPD
0208062690999992000010308004+52450+005380FM-12-000399999V0202101N007019999999N0050001N1+00831+00741102061ADDMD1610101+9999OA140199999OA249999999OA359999999REMSYN098AAXX  03081 06269 46/50 /2107 10083 20074 40206 56010 333 91010 91113 91209 555 20074 40069 53000;EQDQ01  00512WGOSPDQ02  00672WGOSPDQ03  00462WGOSPD
0196062690999992000010310004+52450+005380FM-12-000399999V0202201N008019999999N0140001N1+00941+00781102031ADDMD1810041+9999OA140199999OA249999999OA359999999REMSYN086AAXX  03101 06269 46/64 /2208 10094 20078 40203 58004 333 91012 91112 91208 555 53005;EQDQ01  00622WGOSPDQ02  00622WGOSPDQ03  00412WGOSPD
0196062690999992000010311004+52450+005380FM-12-000399999V0202201N008019999999N0050001N1+00921+00791102011ADDMD1810051+9999OA140199999OA249999999OA359999999REMSYN086AAXX  03111 06269 46/50 /2208 10092 20079 40201 58005 333 91012 91113 91208 555 53005;EQDQ01  00622WGOSPDQ02  00672WGOSPDQ03  00412WGOSPD
0225062690999992000010312004+52450+005380FM-12-000399999V0202201N007019999999N0034001N1+00911+00821101971ADDAA106000391MD1810081+9999OA140199999OA249999999OA359999999REMSYN104AAXX  03121 06269 16/34 /2207 10091 20082 40197 58008 69931 333 91010 91113 91209 555 51112 51208 53010;EQDQ01  00512WGOSPDQ02  00672WGOSPDQ03  00462WGOSPD
0196062690999992000010313004+52450+005380FM-12-000399999V0202201N008019999999N0050001N1+00921+00831101911ADDMD1810121+9999OA140199999OA249999999OA359999999REMSYN086AAXX  03131 06269 46/50 /2208 10092 20083 40191 58012 333 91011 91112 91208 555 53008;EQDQ01  00572WGOSPDQ02  00622WGOSPDQ03  00412WGOSPD
0196062690999992000010314004+52450+005380FM-12-000399999V0202201N007019999999N0025001N1+00901+00831101871ADDMD1710141+9999OA140199999OA249999999OA359999999REMSYN086AAXX  03141 06269 46/25 /2207 10090 20083 40187 57014 333 91011 91111 91208 555 53006;EQDQ01  00572WGOSPDQ02  00572WGOSPDQ03  00412WGOSPD
0196062690999992000010316004+52450+005380FM-12-000399999V0202201N006019999999N0020001N1+00861+00811101811ADDMD1610101+9999OA140199999OA249999999OA359999999REMSYN086AAXX  03161 06269 46/20 /2206 10086 20081 40181 56010 333 91009 91111 91207 555 53000;EQDQ01  00462WGOSPDQ02  00572WGOSPDQ03  00362WGOSPD
0196062690999992000010317004+52450+005380FM-12-000399999V0202101N007019999999N0021001N1+00861+00811101781ADDMD1710091+9999OA140199999OA249999999OA359999999REMSYN086AAXX  03171 06269 46/21 /2107 10086 20081 40178 57009 333 91010 91110 91207 555 53000;EQDQ01  00512WGOSPDQ02  00512WGOSPDQ03  00362WGOSPD
0244062690999992000010318004+52450+005380FM-12-000399999V0202101N007019999999N0021001N1+00861+00801101731ADDAA112002091KA1120M+00951MD1810111+9999OA140199999OA249999999OA359999999REMSYN110AAXX  03181 06269 16/21 /2107 10086 20080 40173 58011 60022 333 10095 91010 91112 91208 555 51111 51207 53000;EQDQ01  00512WGOSPDQ02  00622WGOSPDQ03  00412WGOSPD
0196062690999992000010319004+52450+005380FM-12-000399999V0202201N007019999999N0022001N1+00851+00801101701ADDMD1710111+9999OA140199999OA249999999OA359999999REMSYN086AAXX  03191 06269 46/22 /2207 10085 20080 40170 57011 333 91011 91111 91207 555 53000;EQDQ01  00572WGOSPDQ02  00572WGOSPDQ03  00362WGOSPD
0196062690999992000010320004+52450+005380FM-12-000399999V0202201N007019999999N0015001N1+00841+00791101651ADDMD1710131+9999OA140199999OA249999999OA359999999REMSYN086AAXX  03201 06269 46/15 /2207 10084 20079 40165 57013 333 91011 91111 91207 555 53000;EQDQ01  00572WGOSPDQ02  00572WGOSPDQ03  00362WGOSPD
0159062690999992000010322004+52450+005380FM-12-000399999V0202201N007019999999N0018001N1+00801+00751101631ADDMD1610071+9999OA140199999OA249999999REMSYN076AAXX  03221 06269 46/18 /2207 10080 20075 40163 56007 333 91010 91111 91208;EQDQ01  00512WGOSPDQ02  00572WGOSPD
0143062690999992000010323004+52450+005380FM-12-000399999V0203301N006019999999N0023001N1+00651+00591101691ADDMD1310041+9999OA140199999OA249900621REMSYN076AAXX  03231 06269 46/23 /3306 10065 20059 40169 53004 333 91009 91112 91208;EQDQ01  00462WGOSPD
0187062690999992000010400004+52450+005380FM-12-000399999V0203501N003019999999N0070001N1+00531+00481101741ADDAA106004191MD1310111+9999OA140199999OA249900671OA359900411REMSYN098AAXX  04001 06269 16/57 /3503 10053 20048 40174 53011 60041 333 91005 91113 91208 555 51109 51206;EQDQ01  00262WGOSPD
0124062690999992000010401004+52450+005380FM-12-000399999V0203401N001019999999N0050001N1+00501+00441101751ADDMD1110121+9999OA140100101OA249900311REMSYN076AAXX  04011 06269 46/50 /3401 10050 20044 40175 51012 333 91002 91106 91204;
0085062690999992000010402004+52450+005380FM-12-000399999V02099999999999999999N9999999N1+00481+99999999999REMSYN076AAXX  04021 06269 46/// /05// 10048 2//// 4//// 5//// 333 910// 911// 912//;
0145062690999992000010405004+52450+005380FM-12-000399999V0202601N001019999999N0400001N1+00411+00361101761ADDMD1310021+9999OA140100101OA249900101OA359900101REMSYN086AAXX  04051 06269 46/82 /2601 10041 20036 40176 53002 333 91002 91102 91202 555 53000;
0196062690999992000010407004+52450+005380FM-12-000399999V0201201N001019999999N0003001N1+00271+00241101681ADDMD1810031+9999OA140199999OA249999999OA359999999REMSYN086AAXX  04071 06269 46/03 /1201 10027 20024 40168 58003 333 91001 91101 91201 555 53000;EQDQ01  00052WGOSPDQ02  00052WGOSPDQ03  00052WGOSPD
0192062690999992000010408004+52450+005380FM-12-000399999V0201201N001019999999N0003001N1+00251+00211101661ADDMD1610101+9999OA140199999OA249900101OA359999999REMSYN098AAXX  04081 06269 46/03 /1201 10025 20021 40166 56010 333 91001 91102 91201 555 20024 40007 53000;EQDQ01  00052WGOSPDQ02  00052WGOSPD
0196062690999992000010410004+52450+005380FM-12-000399999V0201001N002019999999N0019001N1+00421+00401101551ADDMD1810131+9999OA140199999OA249999999OA359999999REMSYN086AAXX  04101 06269 46/19 /1002 10042 20040 40155 58013 333 91003 91103 91202 555 53011;EQDQ01  00152WGOSPDQ02  00152WGOSPDQ03  00102WGOSPD
0196062690999992000010411004+52450+005380FM-12-000399999V0201101N003019999999N0011001N1+00491+00471101421ADDMD1810241+9999OA140199999OA249999999OA359999999REMSYN086AAXX  04111 06269 46/11 /1103 10049 20047 40142 58024 333 91004 91104 91203 555 53010;EQDQ01  00212WGOSPDQ02  00212WGOSPDQ03  00152WGOSPD
0225062690999992000010412004+52450+005380FM-12-000399999V0201201N003019999999N0009001N1+00551+00531101271ADDAA106000391MD1810341+9999OA140199999OA249999999OA359999999REMSYN104AAXX  04121 06269 16/09 /1203 10055 20053 40127 58034 69931 333 91004 91104 91203 555 51104 51203 53006;EQDQ01  00212WGOSPDQ02  00212WGOSPDQ03  00152WGOSPD
0196062690999992000010413004+52450+005380FM-12-000399999V0201701N004019999999N0013001N1+00661+00651101121ADDMD1810431+9999OA140199999OA249999999OA359999999REMSYN086AAXX  04131 06269 46/13 /1704 10066 20065 40112 58043 333 91005 91105 91204 555 53007;EQDQ01  00262WGOSPDQ02  00262WGOSPDQ03  00212WGOSPD
0196062690999992000010414004+52450+005380FM-12-000399999V0201901N005019999999N0019001N1+00761+00751100991ADDMD1610431+9999OA140199999OA249999999OA359999999REMSYN086AAXX  04141 06269 46/19 /1905 10076 20075 40099 56043 333 91007 91107 91205 555 53006;EQDQ01  00362WGOSPDQ02  00362WGOSPDQ03  00262WGOSPD
0196062690999992000010416004+52450+005380FM-12-000399999V0202101N007019999999N0070001N1+00871+00831100841ADDMD1610281+9999OA140199999OA249999999OA359999999REMSYN086AAXX  04161 06269 46/57 /2107 10087 20083 40084 56028 333 91011 91112 91207 555 53000;EQDQ01  00572WGOSPDQ02  00622WGOSPDQ03  00362WGOSPD
0180062690999992000010417004+52450+005380FM-12-000399999V0202501N008019999999N0750001N1+00841+00681100911ADDMD1510081+9999OA140199999OA249900881OA359999999REMSYN086AAXX  04171 06269 46/89 /2508 10084 20068 40091 55008 333 91012 91117 91211 555 53000;EQDQ01  00622WGOSPDQ02  00572WGOSPD
0244062690999992000010418004+52450+005380FM-12-000399999V0202401N009019999999N0750001N1+00761+00541101021ADDAA112003091KA1120M+00931MD1310141+9999OA140199999OA249999999OA359999999REMSYN110AAXX  04181 06269 16/89 /2409 10076 20054 40102 53014 60032 333 10093 91014 91117 91211 555 51114 51209 53000;EQDQ01  00722WGOSPDQ02  00882WGOSPDQ03  00572WGOSPD
0095062690999992000010419004+52450+005380FM-12-000399999V02099999999999999999N9999999N1+00681+99999999999REMSYN086AAXX  04191 06269 46/// /23// 10068 2//// 4//// 5//// 333 910// 911// 912// 555 53///;
0196062690999992000010420004+52450+005380FM-12-000399999V0202301N007019999999N0350001N1+00731+00601101071ADDMD1110161+9999OA140199999OA249999999OA359999999REMSYN086AAXX  04201 06269 46/81 /2307 10073 20060 40107 51016 333 91011 91111 91207 555 53000;EQDQ01  00572WGOSPDQ02  00572WGOSPDQ03  00362WGOSPD
0143062690999992000010422004+52450+005380FM-12-000399999V0202801N006019999999N0350001N1+00601+00271101331ADDMD1310291+9999OA140199999OA249900671REMSYN076AAXX  04221 06269 46/81 /2806 10060 20027 40133 53029 333 91011 91113 91209;EQDQ01  00572WGOSPD
0159062690999992000010423004+52450+005380FM-12-000399999V0202701N007019999999N0300001N1+00551+00271101441ADDMD1310371+9999OA140199999OA249999999REMSYN076AAXX  04231 06269 46/80 /2707 10055 20027 40144 53037 333 91010 91112 91208;EQDQ01  00512WGOSPDQ02  00622WGOSPD
0213062690999992000010500004+52450+005380FM-12-000399999V0202701N005019999999N0300001N1+00501+00201101551ADDAA106000091MD1110391+9999OA140199999OA249900721OA359999999REMSYN092AAXX  05001 06269 36/80 /2705 10050 20020 40155 51039 333 91008 91114 91209 555 51110 51207;EQDQ01  00002PRCP06Q02  00412WGOSPDQ03  00462WGOSPD
0143062690999992000010501004+52450+005380FM-12-000399999V0202601N004019999999N0300001N1+00461+00181101611ADDMD1110281+9999OA140199999OA249900461REMSYN076AAXX  05011 06269 46/80 /2604 10046 20018 40161 51028 333 91006 91109 91206;EQDQ01  00312WGOSPD
0143062690999992000010502004+52450+005380FM-12-000399999V0202501N003019999999N0300001N1+00371+00131101671ADDMD1110231+9999OA140199999OA249900361REMSYN076AAXX  05021 06269 46/80 /2503 10037 20013 40167 51023 333 91005 91107 91204;EQDQ01  00262WGOSPD
0196062690999992000010504004+52450+005380FM-12-000399999V0202101N004019999999N0290001N1+00211+00081101801ADDMD1210191+9999OA140199999OA249999999OA359999999REMSYN086AAXX  05041 06269 46/79 /2104 10021 20008 40180 52019 333 91005 91105 91204 555 53000;EQDQ01  00262WGOSPDQ02  00262WGOSPDQ03  00212WGOSPD
0196062690999992000010505004+52450+005380FM-12-000399999V0202101N004019999999N0300001N1+00181+00091101851ADDMD1110181+9999OA140199999OA249999999OA359999999REMSYN086AAXX  05051 06269 46/80 /2104 10018 20009 40185 51018 333 91005 91106 91204 555 53000;EQDQ01  00262WGOSPDQ02  00312WGOSPDQ03  00212WGOSPD
0256062690999992000010506004+52450+005380FM-12-000399999V0202101N004019999999N0250001N1+00171+00081101911ADDAA106000091IA2999+00109KA1120N+00151MD1210171+9999OA140199999OA249900461OA359999999REMSYN110AAXX  05061 06269 36/75 /2104 10017 20008 40191 52017 333 20015 3/001 91005 91109 91206 555 51106 51204 53000;EQDQ01  00002PRCP06Q02  00262WGOSPDQ03  00312WGOSPD
0196062690999992000010507004+52450+005380FM-12-000399999V0202101N003019999999N0160001N1+00121+00041101921ADDMD1110121+9999OA140199999OA249999999OA359999999REMSYN086AAXX  05071 06269 46/66 /2103 10012 20004 40192 51012 333 91005 91105 91204 555 53000;EQDQ01  00262WGOSPDQ02  00262WGOSPDQ03  00212WGOSPD
0208062690999992000010508004+52450+005380FM-12-000399999V0202101N004019999999N0180001N1+00131+00061101951ADDMD1110101+9999OA140199999OA249999999OA359999999REMSYN098AAXX  05081 06269 46/68 /2104 10013 20006 40195 51010 333 91006 91106 91204 555 20008 40000 53000;EQDQ01  00312WGOSPDQ02  00312WGOSPDQ03  00212WGOSPD
0196062690999992000010510004+52450+005380FM-12-000399999V0202001N006019999999N0160001N1+00301+00211101981ADDMD1110061+9999OA140199999OA249999999OA359999999REMSYN086AAXX  05101 06269 46/66 /2006 10030 20021 40198 51006 333 91008 91109 91206 555 53037;EQDQ01  00412WGOSPDQ02  00462WGOSPDQ03  00312WGOSPD
0196062690999992000010511004+52450+005380FM-12-000399999V0202101N005019999999N0220001N1+00441+00291101981ADDMD1110031+9999OA140199999OA249999999OA359999999REMSYN086AAXX  05111 06269 46/72 /2105 10044 20029 40198 51003 333 91007 91108 91206 555 53070;EQDQ01  00362WGOSPDQ02  00412WGOSPDQ03  00312WGOSPD
0225062690999992000010512004+52450+005380FM-12-000399999V0201901N006019999999N0300001N1+00561+00301101881ADDAA106000791MD1810081+9999OA140199999OA249999999OA359999999REMSYN104AAXX  05121 06269 16/80 /1906 10056 20030 40188 58008 69901 333 91008 91109 91206 555 51108 51206 53080;EQDQ01  00412WGOSPDQ02  00462WGOSPDQ03  00312WGOSPD
0196062690999992000010513004+52450+005380FM-12-000399999V0201801N005019999999N0300001N1+00661+00401101851ADDMD1810131+9999OA140199999OA249999999OA359999999REMSYN086AAXX  05131 06269 46/80 /1805 10066 20040 40185 58013 333 91008 91108 91206 555 53071;EQDQ01  00412WGOSPDQ02  00412WGOSPDQ03  00312WGOSPD
0095062690999992000010514004+52450+005380FM-12-000399999V02099999999999999999N9999999N1+00691+99999999999REMSYN086AAXX  05141 06269 46/// /20// 10069 2//// 4//// 5//// 333 910// 911// 912// 555 53///;
0095062690999992000010516004+52450+005380FM-12-000399999V02099999999999999999N9999999N1+00571+99999999999REMSYN086AAXX  05161 06269 46/// /18// 10057 2//// 4//// 5//// 333 910// 911// 912// 555 53///;
0196062690999992000010517004+52450+005380FM-12-000399999V0201801N005019999999N0170001N1+00521+00371101721ADDMD1610101+9999OA140199999OA249999999OA359999999REMSYN086AAXX  05171 06269 46/67 /1805 10052 20037 40172 56010 333 91007 91107 91206 555 53000;EQDQ01  00362WGOSPDQ02  00362WGOSPDQ03  00312WGOSPD
0244062690999992000010518004+52450+005380FM-12-000399999V0201801N006019999999N0190001N1+00531+00401101681ADDAA112000791KA1120M+00711MD1810101+9999OA140199999OA249999999OA359999999REMSYN110AAXX  05181 06269 16/69 /1806 10053 20040 40168 58010 69902 333 10071 91009 91109 91206 555 51109 51206 53000;EQDQ01  00462WGOSPDQ02  00462WGOSPDQ03  00312WGOSPD
0196062690999992000010519004+52450+005380FM-12-000399999V0201901N007019999999N0180001N1+00551+00411101671ADDMD1610081+9999OA140199999OA249999999OA359999999REMSYN086AAXX  05191 06269 46/68 /1907 10055 20041 40167 56008 333 91010 91110 91207 555 53000;EQDQ01  00512WGOSPDQ02  00512WGOSPDQ03  00362WGOSPD
0159062690999992000010522004+52450+005380FM-12-000399999V0201901N006019999999N0120001N1+00511+00381101591ADDMD1810081+9999OA140199999OA249999999REMSYN076AAXX  05221 06269 46/62 /1906 10051 20038 40159 58008 333 91009 91109 91207;EQDQ01  00462WGOSPDQ02  00462WGOSPD
0085062690999992000010601004+52450+005380FM-12-000399999V02099999999999999999N9999999N1+00501+99999999999REMSYN076AAXX  06011 06269 46/// /19// 10050 2//// 4//// 5//// 333 910// 911// 912//;
0159062690999992000010602004+52450+005380FM-12-000399999V0201901N007019999999N0110001N1+00491+00391101461ADDMD1610121+9999OA140199999OA249999999REMSYN076AAXX  06021 06269 46/61 /1907 10049 20039 40146 56012 333 91009 91110 91207;EQDQ01  00462WGOSPDQ02  00512WGOSPD
0095062690999992000010604004+52450+005380FM-12-000399999V02099999999999999999N9999999N1+00541+99999999999REMSYN086AAXX  06041 06269 46/// /19// 10054 2//// 4//// 5//// 333 910// 911// 912// 555 53///;
0196062690999992000010605004+52450+005380FM-12-000399999V0201901N007019999999N0150001N1+00571+00451101361ADDMD1610101+9999OA140199999OA249999999OA359999999REMSYN086AAXX  06051 06269 46/65 /1907 10057 20045 40136 56010 333 91010 91111 91208 555 53000;EQDQ01  00512WGOSPDQ02  00572WGOSPDQ03  00412WGOSPD
0246062690999992000010606004+52450+005380FM-12-000399999V0201901N006019999999N0140001N1+00501+00401101331ADDAA112000791IA2999+00409KA1120N+00471MD1710081+9999OA140199999OA249900621OA359999999REMSYN116AAXX  06061 06269 16/64 /1906 10050 20040 40133 57008 69902 333 20047 3/004 91009 91112 91209 555 51110 51207 53000;EQDQ01  00462WGOSPDQ02  00462WGOSPD
0196062690999992000010607004+52450+005380FM-12-000399999V0201901N008019999999N0160001N1+00541+00421101321ADDMD1610061+9999OA140199999OA249999999OA359999999REMSYN086AAXX  06071 06269 46/66 /1908 10054 20042 40132 56006 333 91010 91111 91208 555 53000;EQDQ01  00512WGOSPDQ02  00572WGOSPDQ03  00412WGOSPD
0208062690999992000010608004+52450+005380FM-12-000399999V0201901N008019999999N0150001N1+00591+00461101301ADDMD1610061+9999OA140199999OA249999999OA359999999REMSYN098AAXX  06081 06269 46/65 /1908 10059 20046 40130 56006 333 91011 91111 91208 555 20047 40037 53000;EQDQ01  00572WGOSPDQ02  00572WGOSPDQ03  00412WGOSPD
0196062690999992000010610004+52450+005380FM-12-000399999V0202001N008019999999N0190001N1+00741+00561101331ADDMD1310011+9999OA140199999OA249999999OA359999999REMSYN086AAXX  06101 06269 46/69 /2008 10074 20056 40133 53001 333 91011 91111 91208 555 53017;EQDQ01  00572WGOSPDQ02  00572WGOSPDQ03  00412WGOSPD
0196062690999992000010611004+52450+005380FM-12-000399999V0202001N008019999999N0300001N1+00811+00581101351ADDMD1110051+9999OA140199999OA249999999OA359999999REMSYN086AAXX  06111 06269 46/80 /2008 10081 20058 40135 51005 333 91010 91110 91208 555 53019;EQDQ01  00512WGOSPDQ02  00512WGOSPDQ03  00412WGOSPD
0235062690999992000010612004+52450+005380FM-12-000399999V0202001N009019999999N0270001N1+00821+00591101301ADDAA106000091MD1810031+9999OA140199999OA249999999OA359999999REMSYN098AAXX  06121 06269 36/77 /2009 10082 20059 40130 58003 333 91011 91111 91209 555 51111 51209 53022;EQDQ01  00002PRCP06Q02  00572WGOSPDQ03  00572WGOSPDQ04  00462WGOSPD
0196062690999992000010613004+52450+005380FM-12-000399999V0202001N007019999999N0210001N1+00831+00641101271ADDMD1810061+9999OA140199999OA249999999OA359999999REMSYN086AAXX  06131 06269 46/71 /2007 10083 20064 40127 58006 333 91009 91111 91208 555 53022;EQDQ01  00462WGOSPDQ02  00572WGOSPDQ03  00412WGOSPD
0180062690999992000010614004+52450+005380FM-12-000399999V0202101N005019999999N0140001N1+00841+00651101291ADDMD1510061+9999OA140199999OA249900511OA359999999REMSYN086AAXX  06141 06269 46/64 /2105 10084 20065 40129 55006 333 91009 91110 91207 555 53006;EQDQ01  00462WGOSPDQ02  00362WGOSPD
0196062690999992000010616004+52450+005380FM-12-000399999V0202101N005019999999N0070001N1+00781+00691101371ADDMD1310101+9999OA140199999OA249999999OA359999999REMSYN086AAXX  06161 06269 46/57 /2105 10078 20069 40137 53010 333 91008 91109 91206 555 53000;EQDQ01  00412WGOSPDQ02  00462WGOSPDQ03  00312WGOSPD
0196062690999992000010617004+52450+005380FM-12-000399999V0202301N006019999999N0080001N1+00791+00701101441ADDMD1310151+9999OA140199999OA249999999OA359999999REMSYN086AAXX  06171 06269 46/58 /2306 10079 20070 40144 53015 333 91009 91109 91206 555 53000;EQDQ01  00462WGOSPDQ02  00462WGOSPDQ03  00312WGOSPD
0196062690999992000010620004+52450+005380FM-12-000399999V0202201N005019999999N0060001N1+00801+00701101571ADDMD1310131+9999OA140199999OA249999999OA359999999REMSYN086AAXX  06201 06269 46/56 /2205 10080 20070 40157 53013 333 91007 91107 91205 555 53000;EQDQ01  00362WGOSPDQ02  00362WGOSPDQ03  00262WGOSPD
0143062690999992000010622004+52450+005380FM-12-000399999V0202301N004019999999N0090001N1+00791+00691101721ADDMD1310211+9999OA140199999OA249900411REMSYN076AAXX  06221 06269 46/59 /2304 10079 20069 40172 53021 333 91007 91108 91205;EQDQ01  00362WGOSPD
0143062690999992000010623004+52450+005380FM-12-000399999V0202301N003019999999N0080001N1+00701+00621101731ADDMD1110161+9999OA140199999OA249900311REMSYN076AAXX  06231 06269 46/58 /2303 10070 20062 40173 51016 333 91005 91106 91204;EQDQ01  00262WGOSPD
0187062690999992000010700004+52450+005380FM-12-000399999V0202201N003019999999N0060001N1+00571+00511101801ADDAA106000791MD1210151+9999OA140199999OA249900461OA359900311REMSYN098AAXX  07001 06269 16/56 /2203 10057 20051 40180 52015 69901 333 91004 91109 91206 555 51105 51203;EQDQ01  00212WGOSPD
0159062690999992000010701004+52450+005380FM-12-000399999V0202301N004019999999N0090001N1+00571+00501101881ADDMD1310161+9999OA140199999OA249999999REMSYN076AAXX  07011 06269 46/59 /2304 10057 20050 40188 53016 333 91006 91106 91204;EQDQ01  00312WGOSPDQ02  00312WGOSPD
0159062690999992000010702004+52450+005380FM-12-000399999V0202301N004019999999N0100001N1+00511+00451101931ADDMD1110201+9999OA140199999OA249999999REMSYN076AAXX  07021 06269 46/60 /2304 10051 20045 40193 51020 333 91005 91106 91204;EQDQ01  00262WGOSPDQ02  00312WGOSPD
0196062690999992000010704004+52450+005380FM-12-000399999V0202201N003019999999N0050001N1+00371+00321102011ADDMD1110131+9999OA140199999OA249999999OA359999999REMSYN086AAXX  07041 06269 46/50 /2203 10037 20032 40201 51013 333 91004 91105 91203 555 53000;EQDQ01  00212WGOSPDQ02  00262WGOSPDQ03  00152WGOSPD
0196062690999992000010705004+52450+005380FM-12-000399999V0202101N003019999999N0001001N1+00271+00231102061ADDMD1310131+9999OA140199999OA249999999OA359999999REMSYN086AAXX  07051 06269 46/01 /2103 10027 20023 40206 53013 333 91004 91104 91203 555 53000;EQDQ01  00212WGOSPDQ02  00212WGOSPDQ03  00152WGOSPD
0262062690999992000010706004+52450+005380FM-12-000399999V0201901N004019999999N0001001N1+00351+00331102081ADDAA112000791IA2999+00209KA1120N+00261MD1110111+9999OA140199999OA249999999OA359999999REMSYN116AAXX  07061 06269 16/01 /1904 10035 20033 40208 51011 69902 333 20026 3/002 91005 91106 91204 555 51106 51204 53000;EQDQ01  00262WGOSPDQ02  00312WGOSPDQ03  00212WGOSPD
0196062690999992000010707004+52450+005380FM-12-000399999V0202001N006019999999N0002001N1+00441+00421102111ADDMD1110101+9999OA140199999OA249999999OA359999999REMSYN086AAXX  07071 06269 46/02 /2006 10044 20042 40211 51010 333 91008 91108 91206 555 53000;EQDQ01  00412WGOSPDQ02  00412WGOSPDQ03  00312WGOSPD
0208062690999992000010708004+52450+005380FM-12-000399999V0202101N006019999999N0016001N1+00501+00491102111ADDMD1110051+9999OA140199999OA249999999OA359999999REMSYN098AAXX  07081 06269 46/16 /2106 10050 20049 40211 51005 333 91009 91109 91206 555 20026 40018 53000;EQDQ01  00462WGOSPDQ02  00462WGOSPDQ03  00312WGOSPD
0196062690999992000010710004+52450+005380FM-12-000399999V0202101N006019999999N0050001N1+00621+00601102131ADDMD1010021+9999OA140199999OA249999999OA359999999REMSYN086AAXX  07101 06269 46/50 /2106 10062 20060 40213 50002 333 91009 91109 91206 555 53017;EQDQ01  00462WGOSPDQ02  00462WGOSPDQ03  00312WGOSPD
0196062690999992000010711004+52450+005380FM-12-000399999V0202101N007019999999N0060001N1+00641+00601102091ADDMD1810021+9999OA140199999OA249999999OA359999999REMSYN086AAXX  07111 06269 46/56 /2107 10064 20060 40209 58002 333 91010 91110 91207 555 53061;EQDQ01  00512WGOSPDQ02  00512WGOSPDQ03  00362WGOSPD
0107062690999992000010712004+52450+005380FM-12-000399999V02099999999999999999N9999999N1+00721+99999999999REMSYN098AAXX  07121 06269 46/// /21// 10072 2//// 4//// 5//// 333 910// 911// 912// 555 511// 512// 53///;
0196062690999992000010713004+52450+005380FM-12-000399999V0202201N007019999999N0070001N1+00681+00541101981ADDMD1610151+9999OA140199999OA249999999OA359999999REMSYN086AAXX  07131 06269 46/57 /2207 10068 20054 40198 56015 333 91010 91111 91207 555 53056;EQDQ01  00512WGOSPDQ02  00572WGOSPDQ03  00362WGOSPD
0196062690999992000010714004+52450+005380FM-12-000399999V0202101N007019999999N0050001N1+00681+00561101941ADDMD1610151+9999OA140199999OA249999999OA359999999REMSYN086AAXX  07141 06269 46/50 /2107 10068 20056 40194 56015 333 91009 91112 91208 555 53031;EQDQ01  00462WGOSPDQ02  00622WGOSPDQ03  00412WGOSPD
0196062690999992000010716004+52450+005380FM-12-000399999V0202001N008019999999N0090001N1+00681+00521101891ADDMD1610091+9999OA140199999OA249999999OA359999999REMSYN086AAXX  07161 06269 46/59 /2008 10068 20052 40189 56009 333 91011 91112 91208 555 53001;EQDQ01  00572WGOSPDQ02  00622WGOSPDQ03  00412WGOSPD
0196062690999992000010717004+52450+005380FM-12-000399999V0202201N009019999999N0130001N1+00641+00401101871ADDMD1610071+9999OA140199999OA249999999OA359999999REMSYN086AAXX  07171 06269 46/63 /2209 10064 20040 40187 56007 333 91014 91114 91209 555 53000;EQDQ01  00722WGOSPDQ02  00722WGOSPDQ03  00462WGOSPD
0228062690999992000010718004+52450+005380FM-12-000399999V0202101N007019999999N0110001N1+00651+00421101831ADDAA112000791KA1120M+00731MD1810081+9999OA140199999OA249900721OA359999999REMSYN110AAXX  07181 06269 16/61 /2107 10065 20042 40183 58008 69902 333 10073 91010 91114 91209 555 51113 51207 53000;EQDQ01  00512WGOSPDQ02  00462WGOSPD
0095062690999992000010719004+52450+005380FM-12-000399999V02099999999999999999N9999999N1+00641+99999999999REMSYN086AAXX  07191 06269 46/// /20// 10064 2//// 4//// 5//// 333 910// 911// 912// 555 53///;
0196062690999992000010720004+52450+005380FM-12-000399999V0202001N007019999999N0180001N1+00621+00421101741ADDMD1810131+9999OA140199999OA249999999OA359999999REMSYN086AAXX  07201 06269 46/68 /2007 10062 20042 40174 58013 333 91011 91111 91208 555 53000;EQDQ01  00572WGOSPDQ02  00572WGOSPDQ03  00412WGOSPD
0159062690999992000010722004+52450+005380FM-12-000399999V0202101N008019999999N0200001N1+00601+00401101671ADDMD1610121+9999OA140199999OA249999999REMSYN076AAXX  07221 06269 46/70 /2108 10060 20040 40167 56012 333 91013 91113 91209;EQDQ01  00672WGOSPDQ02  00672WGOSPD
0159062690999992000010723004+52450+005380FM-12-000399999V0202001N008019999999N0210001N1+00571+00391101631ADDMD1610111+9999OA140199999OA249999999REMSYN076AAXX  07231 06269 46/71 /2008 10057 20039 40163 56011 333 91011 91112 91208;EQDQ01  00572WGOSPDQ02  00622WGOSPD
0229062690999992000010800004+52450+005380FM-12-000399999V0202001N009019999999N0190001N1+00591+00391101601ADDAA106000091MD1810091+9999OA140199999OA249999999OA359999999REMSYN092AAXX  08001 06269 36/69 /2009 10059 20039 40160 58009 333 91012 91113 91209 555 51113 51209;EQDQ01  00002PRCP06Q02  00622WGOSPDQ03  00672WGOSPDQ04  00462WGOSPD
0159062690999992000010801004+52450+005380FM-12-000399999V0202001N008019999999N0190001N1+00601+00391101531ADDMD1810141+9999OA140199999OA249999999REMSYN076AAXX  08011 06269 46/69 /2008 10060 20039 40153 58014 333 91012 91113 91209;EQDQ01  00622WGOSPDQ02  00672WGOSPD
0159062690999992000010802004+52450+005380FM-12-000399999V0202101N009019999999N0180001N1+00601+00401101501ADDMD1710131+9999OA140199999OA249999999REMSYN076AAXX  08021 06269 46/68 /2109 10060 20040 40150 57013 333 91012 91112 91209;EQDQ01  00622WGOSPDQ02  00622WGOSPD
0196062690999992000010804004+52450+005380FM-12-000399999V0202001N009019999999N0190001N1+00611+00421101461ADDMD1810071+9999OA140199999OA249999999OA359999999REMSYN086AAXX  08041 06269 46/69 /2009 10061 20042 40146 58007 333 91012 91112 91209 555 53000;EQDQ01  00622WGOSPDQ02  00622WGOSPDQ03  00462WGOSPD
0196062690999992000010805004+52450+005380FM-12-000399999V0202001N008019999999N0110001N1+00611+00451101451ADDMD1810051+9999OA140199999OA249999999OA359999999REMSYN086AAXX  08051 06269 46/61 /2008 10061 20045 40145 58005 333 91011 91112 91209 555 53000;EQDQ01  00572WGOSPDQ02  00622WGOSPDQ03  00462WGOSPD
0272062690999992000010806004+52450+005380FM-12-000399999V0202101N008019999999N0060001N1+00601+00491101451ADDAA106000091IA2999+00509KA1120N+00541MD1610051+9999OA140199999OA249999999OA359999999REMSYN110AAXX  08061 06269 36/56 /2108 10060 20049 40145 56005 333 20054 3/005 91012 91113 91209 555 51112 51208 53000;EQDQ01  00002PRCP06Q02  00622WGOSPDQ03  00672WGOSPDQ04  00462WGOSPD
0095062690999992000010807004+52450+005380FM-12-000399999V02099999999999999999N9999999N1+00571+99999999999REMSYN086AAXX  08071 06269 46/// /20// 10057 2//// 4//// 5//// 333 910// 911// 912// 555 53///;
0208062690999992000010808004+52450+005380FM-12-000399999V0202001N008019999999N0016001N1+00571+00511101511ADDMD1310061+9999OA140199999OA249999999OA359999999REMSYN098AAXX  08081 06269 46/16 /2008 10057 20051 40151 53006 333 91011 91111 91208 555 20054 40047 53000;EQDQ01  00572WGOSPDQ02  00572WGOSPDQ03  00412WGOSPD
0196062690999992000010810004+52450+005380FM-12-000399999V0202001N006019999999N0020001N1+00611+00561101561ADDMD1110101+9999OA140199999OA249999999OA359999999REMSYN086AAXX  08101 06269 46/20 /2006 10061 20056 40156 51010 333 91009 91110 91207 555 53006;EQDQ01  00462WGOSPDQ02  00512WGOSPDQ03  00362WGOSPD
0196062690999992000010811004+52450+005380FM-12-000399999V0202101N006019999999N0019001N1+00651+00601101581ADDMD1110071+9999OA140199999OA249999999OA359999999REMSYN086AAXX  08111 06269 46/19 /2106 10065 20060 40158 51007 333 91009 91110 91206 555 53007;EQDQ01  00462WGOSPDQ02  00512WGOSPDQ03  00312WGOSPD
0209062690999992000010812004+52450+005380FM-12-000399999V0202201N005019999999N0050001N1+00691+00651101591ADDAA106002091MD1110051+9999OA140199999OA249900621OA359999999REMSYN104AAXX  08121 06269 16/50 /2205 10069 20065 40159 51005 60021 333 91008 91112 91208 555 51109 51206 53008;EQDQ01  00412WGOSPDQ02  00412WGOSPD
0196062690999992000010813004+52450+005380FM-12-000399999V0202301N005019999999N0050001N1+00751+00691101621ADDMD1310061+9999OA140199999OA249999999OA359999999REMSYN086AAXX  08131 06269 46/50 /2305 10075 20069 40162 53006 333 91008 91109 91205 555 53015;EQDQ01  00412WGOSPDQ02  00462WGOSPDQ03  00262WGOSPD
0180062690999992000010814004+52450+005380FM-12-000399999V0202301N004019999999N0043001N1+00781+00701101621ADDMD1110041+9999OA140199999OA249900411OA359999999REMSYN086AAXX  08141 06269 46/43 /2304 10078 20070 40162 51004 333 91005 91108 91205 555 53017;EQDQ01  00262WGOSPDQ02  00262WGOSPD
0196062690999992000010816004+52450+005380FM-12-000399999V0202401N003019999999N0060001N1+00701+00641101741ADDMD1310121+9999OA140199999OA249999999OA359999999REMSYN086AAXX  08161 06269 46/56 /2403 10070 20064 40174 53012 333 91004 91104 91203 555 53002;EQDQ01  00212WGOSPDQ02  00212WGOSPDQ03  00152WGOSPD
0196062690999992000010817004+52450+005380FM-12-000399999V0202201N002019999999N0100001N1+00531+00471101791ADDMD1310171+9999OA140199999OA249999999OA359999999REMSYN086AAXX  08171 06269 46/60 /2202 10053 20047 40179 53017 333 91003 91103 91202 555 53000;EQDQ01  00152WGOSPDQ02  00152WGOSPDQ03  00102WGOSPD
0228062690999992000010818004+52450+005380FM-12-000399999V0202201N003019999999N0150001N1+00471+00421101831ADDAA112002091KA1120M+00791MD1110171+9999OA140199999OA249900461OA359999999REMSYN110AAXX  08181 06269 16/65 /2203 10047 20042 40183 51017 60022 333 10079 91004 91109 91205 555 51104 51203 53000;EQDQ01  00212WGOSPDQ02  00262WGOSPD
0196062690999992000010819004+52450+005380FM-12-000399999V0202201N003019999999N0150001N1+00391+00331101851ADDMD1110111+9999OA140199999OA249999999OA359999999REMSYN086AAXX  08191 06269 46/65 /2203 10039 20033 40185 51011 333 91004 91105 91203 555 53000;EQDQ01  00212WGOSPDQ02  00262WGOSPDQ03  00152WGOSPD
0196062690999992000010820004+52450+005380FM-12-000399999V0202101N003019999999N0070001N1+00301+00251101891ADDMD1210101+9999OA140199999OA249999999OA359999999REMSYN086AAXX  08201 06269 46/57 /2103 10030 20025 40189 52010 333 91004 91105 91203 555 53000;EQDQ01  00212WGOSPDQ02  00262WGOSPDQ03  00152WGOSPD
0159062690999992000010822004+52450+005380FM-12-000399999V0202101N003019999999N0130001N1+00261+00221101931ADDMD1110081+9999OA140199999OA249999999REMSYN076AAXX  08221 06269 46/63 /2103 10026 20022 40193 51008 333 91005 91105 91203;EQDQ01  00262WGOSPDQ02  00262WGOSPD
0159062690999992000010823004+52450+005380FM-12-000399999V0202101N004019999999N0140001N1+00251+00201101951ADDMD1210061+9999OA140199999OA249999999REMSYN076AAXX  08231 06269 46/64 /2104 10025 20020 40195 52006 333 91005 91105 91204;EQDQ01  00262WGOSPDQ02  00262WGOSPD
0229062690999992000010900004+52450+005380FM-12-000399999V0202101N004019999999N0130001N1+00221+00171101951ADDAA106000091MD1110041+9999OA140199999OA249999999OA359999999REMSYN092AAXX  09001 06269 36/63 /2104 10022 20017 40195 51004 333 91005 91105 91204 555 51105 51204;EQDQ01  00002PRCP06Q02  00262WGOSPDQ03  00262WGOSPDQ04  00212WGOSPD
0159062690999992000010901004+52450+005380FM-12-000399999V0202101N003019999999N0120001N1+00181+00131101961ADDMD1110031+9999OA140199999OA249999999REMSYN076AAXX  09011 06269 46/62 /2103 10018 20013 40196 51003 333 91004 91105 91204;EQDQ01  00212WGOSPDQ02  00262WGOSPD
0159062690999992000010902004+52450+005380FM-12-000399999V0202101N003019999999N0100001N1+00161+00121101981ADDMD1310031+9999OA140199999OA249999999REMSYN076AAXX  09021 06269 46/60 /2103 10016 20012 40198 53003 333 91005 91105 91204;EQDQ01  00262WGOSPDQ02  00262WGOSPD
0196062690999992000010904004+52450+005380FM-12-000399999V0202101N003019999999N0050001N1+00061+00021102031ADDMD1210071+9999OA140199999OA249999999OA359999999REMSYN086AAXX  09041 06269 46/50 /2103 10006 20002 40203 52007 333 91004 91104 91203 555 53000;EQDQ01  00212WGOSPDQ02  00212WGOSPDQ03  00152WGOSPD
0196062690999992000010905004+52450+005380FM-12-000399999V0202101N003019999999N0050001N1+00091+00061102051ADDMD1110071+9999OA140199999OA249999999OA359999999REMSYN086AAXX  09051 06269 46/50 /2103 10009 20006 40205 51007 333 91004 91105 91203 555 53000;EQDQ01  00212WGOSPDQ02  00262WGOSPDQ03  00152WGOSPD
0196062690999992000010907004+52450+005380FM-12-000399999V0202301N002019999999N0050001N1+00081+00051102181ADDMD1310151+9999OA140199999OA249999999OA359999999REMSYN086AAXX  09071 06269 46/50 /2302 10008 20005 40218 53015 333 91003 91103 91202 555 53000;EQDQ01  00152WGOSPDQ02  00152WGOSPDQ03  00102WGOSPD
0192062690999992000010908004+52450+005380FM-12-000399999V0202301N002019999999N0080001N1+00101+00071102291ADDMD1310241+9999OA140199999OA249900211OA359999999REMSYN098AAXX  09081 06269 46/58 /2302 10010 20007 40229 53024 333 91003 91104 91202 555 20002 41007 53000;EQDQ01  00152WGOSPDQ02  00102WGOSPD
0196062690999992000010910004+52450+005380FM-12-000399999V0202401N002019999999N0160001N1+00251+00221102411ADDMD1110231+9999OA140199999OA249999999OA359999999REMSYN086AAXX  09101 06269 46/66 /2402 10025 20022 40241 51023 333 91003 91103 91202 555 53047;EQDQ01  00152WGOSPDQ02  00152WGOSPDQ03  00102WGOSPD
0180062690999992000010911004+52450+005380FM-12-000399999V0202401N002019999999N0190001N1+00441+00401102431ADDMD1110141+9999OA140199999OA249900211OA359999999REMSYN086AAXX  09111 06269 46/69 /2402 10044 20040 40243 51014 333 91003 91104 91202 555 53071;EQDQ01  00152WGOSPDQ02  00102WGOSPD
0225062690999992000010912004+52450+005380FM-12-000399999V0202801N003019999999N0300001N1+00601+00481102461ADDAA106000191MD1110111+9999OA140199999OA249999999OA359999999REMSYN104AAXX  09121 06269 16/80 /2803 10060 20048 40246 51011 69911 333 91005 91105 91203 555 51105 51203 53084;EQDQ01  00262WGOSPDQ02  00262WGOSPDQ03  00152WGOSPD
0196062690999992000010913004+52450+005380FM-12-000399999V0202801N004019999999N0300001N1+00631+00341102521ADDMD1310111+9999OA140199999OA249999999OA359999999REMSYN086AAXX  09131 06269 46/80 /2804 10063 20034 40252 53011 333 91007 91107 91204 555 53081;EQDQ01  00362WGOSPDQ02  00362WGOSPDQ03  00212WGOSPD
0196062690999992000010914004+52450+005380FM-12-000399999V0202801N004019999999N0350001N1+00621+00311102581ADDMD1310151+9999OA140199999OA249999999OA359999999REMSYN086AAXX  09141 06269 46/81 /2804 10062 20031 40258 53015 333 91006 91106 91204 555 53057;EQDQ01  00312WGOSPDQ02  00312WGOSPDQ03  00212WGOSPD
0180062690999992000010916004+52450+005380FM-12-000399999V0202701N002019999999N0300001N1+00411+00211102711ADDMD1310191+9999OA140199999OA249900211OA359999999REMSYN086AAXX  09161 06269 46/80 /2702 10041 20021 40271 53019 333 91003 91104 91202 555 53005;EQDQ01  00152WGOSPDQ02  00102WGOSPD
0196062690999992000010917004+52450+005380FM-12-000399999V0202901N002019999999N0300001N1+00261+00111102771ADDMD1210191+9999OA140199999OA249999999OA359999999REMSYN086AAXX  09171 06269 46/80 /2902 10026 20011 40277 52019 333 91003 91103 91202 555 53000;EQDQ01  00152WGOSPDQ02  00152WGOSPDQ03  00102WGOSPD
0193062690999992000010918004+52450+005380FM-12-000399999V0202601N001019999999N0300001N1+00211+00101102831ADDAA112000191KA1120M+00641MD1110191+9999OA140100101OA249900361OA359900211REMSYN110AAXX  09181 06269 16/80 /2601 10021 20010 40283 51019 69912 333 10064 91002 91107 91204 555 51103 51202 53000;
0196062690999992000010919004+52450+005380FM-12-000399999V0202601N002019999999N0230001N1+00151+00081102911ADDMD1310201+9999OA140199999OA249999999OA359999999REMSYN086AAXX  09191 06269 46/73 /2602 10015 20008 40291 53020 333 91002 91103 91202 555 53000;EQDQ01  00102WGOSPDQ02  00152WGOSPDQ03  00102WGOSPD
0145062690999992000010920004+52450+005380FM-12-000399999V0202601N001019999999N0100001N1+00081+00021103001ADDMD1310231+9999OA140100101OA249900101OA359900101REMSYN086AAXX  09201 06269 46/60 /2601 10008 20002 40300 53023 333 91002 91102 91202 555 53000;
0159062690999992000010922004+52450+005380FM-12-000399999V0202401N002019999999N0034001N1+00061+00011103101ADDMD1110191+9999OA140199999OA249999999REMSYN076AAXX  09221 06269 46/34 /2402 10006 20001 40310 51019 333 91002 91102 91202;EQDQ01  00102WGOSPDQ02  00102WGOSPD
0124062690999992000010923004+52450+005380FM-12-000399999V0202301N001019999999N0034001N1-00031-00081103161ADDMD1210161+9999OA140100101OA249900101REMSYN076AAXX  09231 06269 46/34 /2301 11003 21008 40316 52016 333 91002 91102 91202;
0168062690999992000011000004+52450+005380FM-12-000399999V0202401N001019999999N0044001N1-00071-00111103191ADDAA106000791MD1110131+9999OA140100101OA249900151OA359900101REMSYN098AAXX  10001 06269 16/44 /2401 11007 21011 40319 51013 69901 333 91002 91103 91202 555 51102 51202;
0159062690999992000011001004+52450+005380FM-12-000399999V0202101N002019999999N0021001N1-00061-00091103241ADDMD1110141+9999OA140199999OA249999999REMSYN076AAXX  10011 06269 46/21 /2102 11006 21009 40324 51014 333 91002 91102 91202;EQDQ01  00102WGOSPDQ02  00102WGOSPD
0159062690999992000011002004+52450+005380FM-12-000399999V0201901N002019999999N0080001N1-00151-00181103271ADDMD1210111+9999OA140199999OA249999999REMSYN076AAXX  10021 06269 46/58 /1902 11015 21018 40327 52011 333 91002 91102 91202;EQDQ01  00102WGOSPDQ02  00102WGOSPD
0164062690999992000011004004+52450+005380FM-12-000399999V0202501N001019999999N0130001N1-00151-00181103361ADDMD1310121+9999OA140199999OA249900101OA359900101REMSYN086AAXX  10041 06269 46/63 /2501 11015 21018 40336 53012 333 91001 91102 91202 555 53000;EQDQ01  00052WGOSPD
0196062690999992000011005004+52450+005380FM-12-000399999V0201701N002019999999N0110001N1-00201-00231103381ADDMD1110111+9999OA140199999OA249999999OA359999999REMSYN086AAXX  10051 06269 46/61 /1702 11020 21023 40338 51011 333 91002 91102 91202 555 53000;EQDQ01  00102WGOSPDQ02  00102WGOSPDQ03  00102WGOSPD
0262062690999992000011006004+52450+005380FM-12-000399999V0201901N002019999999N0100001N1-00191-00211103451ADDAA112000791IA2999-00409KA1120N-00221MD1310131+9999OA140199999OA249999999OA359999999REMSYN116AAXX  10061 06269 16/60 /1902 11019 21021 40345 53013 69902 333 21022 3/104 91002 91102 91202 555 51102 51202 53000;EQDQ01  00102WGOSPDQ02  00102WGOSPDQ03  00102WGOSPD
0196062690999992000011007004+52450+005380FM-12-000399999V0201701N002019999999N0130001N1-00211-00241103491ADDMD1310131+9999OA140199999OA249999999OA359999999REMSYN086AAXX  10071 06269 46/63 /1702 11021 21024 40349 53013 333 91003 91103 91202 555 53000;EQDQ01  00152WGOSPDQ02  00152WGOSPDQ03  00102WGOSPD
0208062690999992000011008004+52450+005380FM-12-000399999V0201801N002019999999N0120001N1-00251-00281103531ADDMD1110151+9999OA140199999OA249999999OA359999999REMSYN098AAXX  10081 06269 46/62 /1802 11025 21028 40353 51015 333 91002 91103 91202 555 21026 41038 53000;EQDQ01  00102WGOSPDQ02  00152WGOSPDQ03  00102WGOSPD
0145062690999992000011010004+52450+005380FM-12-000399999V0202001N001019999999N0140001N1+00051+00021103621ADDMD1310131+9999OA140100101OA249900101OA359900101REMSYN086AAXX  10101 06269 46/64 /2001 10005 20002 40362 53013 333 91002 91102 91202 555 53060;
0196062690999992000011011004+52450+005380FM-12-000399999V0202001N002019999999N9999999N1+00171+00131103661ADDMD1310131+9999OA140199999OA249999999OA359999999REMSYN086AAXX  10111 06269 46/// /2002 10017 20013 40366 53013 333 91002 91103 91202 555 53085;EQDQ01  00102WGOSPDQ02  00152WGOSPDQ03  00102WGOSPD
0209062690999992000011012004+52450+005380FM-12-000399999V0201801N002019999999N9999999N1+00311+00261103591ADDAA106000791MD1010051+9999OA140199999OA249900211OA359999999REMSYN104AAXX  10121 06269 16/// /1802 10031 20026 40359 50005 69901 333 91003 91104 91203 555 51104 51203 53090;EQDQ01  00152WGOSPDQ02  00152WGOSPD
0196062690999992000011013004+52450+005380FM-12-000399999V0202301N002019999999N0050001N1+00421+00321103581ADDMD1810041+9999OA140199999OA249999999OA359999999REMSYN086AAXX  10131 06269 46/50 /2302 10042 20032 40358 58004 333 91003 91103 91202 555 53072;EQDQ01  00152WGOSPDQ02  00152WGOSPDQ03  00102WGOSPD
0196062690999992000011014004+52450+005380FM-12-000399999V0201901N003019999999N0042001N1+00381+00231103581ADDMD1610081+9999OA140199999OA249999999OA359999999REMSYN086AAXX  10141 06269 46/42 /1903 10038 20023 40358 56008 333 91004 91104 91203 555 53051;EQDQ01  00212WGOSPDQ02  00212WGOSPDQ03  00152WGOSPD
0196062690999992000011016004+52450+005380FM-12-000399999V0201701N004019999999N0070001N1+00171+00081103591ADDMD1310011+9999OA140199999OA249999999OA359999999REMSYN086AAXX  10161 06269 46/57 /1704 10017 20008 40359 53001 333 91005 91105 91204 555 53006;EQDQ01  00262WGOSPDQ02  00262WGOSPDQ03  00212WGOSPD
0196062690999992000011017004+52450+005380FM-12-000399999V0201701N004019999999N0038001N1+00111+00041103571ADDMD1810011+9999OA140199999OA249999999OA359999999REMSYN086AAXX  10171 06269 46/38 /1704 10011 20004 40357 58001 333 91005 91105 91204 555 53000;EQDQ01  00262WGOSPDQ02  00262WGOSPDQ03  00212WGOSPD
0244062690999992000011018004+52450+005380FM-12-000399999V0201801N003019999999N0038001N1+00061+00011103601ADDAA112000791KA1120M+00441MD1310021+9999OA140199999OA249999999OA359999999REMSYN110AAXX  10181 06269 16/38 /1803 10006 20001 40360 53002 69902 333 10044 91004 91105 91204 555 51105 51204 53000;EQDQ01  00212WGOSPDQ02  00262WGOSPDQ03  00212WGOSPD
0196062690999992000011019004+52450+005380FM-12-000399999V0201801N004019999999N0019001N1+00031-00021103601ADDMD1310011+9999OA140199999OA249999999OA359999999REMSYN086AAXX  10191 06269 46/19 /1804 10003 21002 40360 53001 333 91005 91105 91204 555 53000;EQDQ01  00262WGOSPDQ02  00262WGOSPDQ03  00212WGOSPD
0196062690999992000011020004+52450+005380FM-12-000399999V0201701N003019999999N0014001N1-00031-00071103621ADDMD1110051+9999OA140199999OA249999999OA359999999REMSYN086AAXX  10201 06269 46/14 /1703 11003 21007 40362 51005 333 91004 91105 91204 555 53000;EQDQ01  00212WGOSPDQ02  00262WGOSPDQ03  00212WGOSPD
0159062690999992000011022004+52450+005380FM-12-000399999V0201901N004019999999N0028001N1+00011-00031103621ADDMD1010021+9999OA140199999OA249999999REMSYN076AAXX  10221 06269 46/28 /1904 10001 21003 40362 50002 333 91006 91106 91204;EQDQ01  00312WGOSPDQ02  00312WGOSPD
0159062690999992000011023004+52450+005380FM-12-000399999V0201801N004019999999N0034001N1-00011-00051103611ADDMD1810011+9999OA140199999OA249999999REMSYN076AAXX  10231 06269 46/34 /1804 11001 21005 40361 58001 333 91006 91106 91204;EQDQ01  00312WGOSPDQ02  00312WGOSPD
0229062690999992000011100004+52450+005380FM-12-000399999V0201901N004019999999N0041001N1+00001-00051103601ADDAA106000091MD1610041+9999OA140199999OA249999999OA359999999REMSYN092AAXX  11001 06269 36/41 /1904 10000 21005 40360 56004 333 91006 91106 91205 555 51106 51205;EQDQ01  00002PRCP06Q02  00312WGOSPDQ03  00312WGOSPDQ04  00262WGOSPD
0159062690999992000011101004+52450+005380FM-12-000399999V0201901N005019999999N0046001N1+00001-00071103601ADDMD1610021+9999OA140199999OA249999999REMSYN076AAXX  11011 06269 46/46 /1905 10000 21007 40360 56002 333 91007 91107 91205;EQDQ01  00362WGOSPDQ02  00362WGOSPD
0159062690999992000011102004+52450+005380FM-12-000399999V0201901N005019999999N0044001N1-00031-00091103611ADDMD1510001+9999OA140199999OA249999999REMSYN076AAXX  11021 06269 46/44 /1905 11003 21009 40361 55000 333 91007 91107 91205;EQDQ01  00362WGOSPDQ02  00362WGOSPD
0112062690999992000011104004+52450+005380FM-12-000399999V02099999999999999999N0080001N1+00031-00071103571ADDMD1810031+9999REMSYN086AAXX  11041 06269 46/58 /20// 10003 21007 40357 58003 333 910// 911// 912// 555 53000;
0196062690999992000011105004+52450+005380FM-12-000399999V0202001N006019999999N0080001N1+00041-00071103541ADDMD1610071+9999OA140199999OA249999999OA359999999REMSYN086AAXX  11051 06269 46/58 /2006 10004 21007 40354 56007 333 91008 91109 91206 555 53000;EQDQ01  00412WGOSPDQ02  00462WGOSPDQ03  00312WGOSPD
0272062690999992000011106004+52450+005380FM-12-000399999V0201901N006019999999N0090001N1+00041-00081103511ADDAA106000091IA2999-00109KA1120N-00031MD1810061+9999OA140199999OA249999999OA359999999REMSYN110AAXX  11061 06269 36/59 /1906 10004 21008 40351 58006 333 21003 3/101 91008 91109 91206 555 51108 51206 53000;EQDQ01  00002PRCP06Q02  00412WGOSPDQ03  00462WGOSPDQ04  00312WGOSPD
0196062690999992000011107004+52450+005380FM-12-000399999V0201901N005019999999N0080001N1+00031-00081103531ADDMD1510041+9999OA140199999OA249999999OA359999999REMSYN086AAXX  11071 06269 46/58 /1905 10003 21008 40353 55004 333 91007 91108 91206 555 53000;EQDQ01  00362WGOSPDQ02  00412WGOSPDQ03  00312WGOSPD
0208062690999992000011108004+52450+005380FM-12-000399999V0201801N005019999999N0080001N1+00021-00081103521ADDMD1610021+9999OA140199999OA249999999OA359999999REMSYN098AAXX  11081 06269 46/58 /1805 10002 21008 40352 56002 333 91007 91108 91206 555 21003 41009 53000;EQDQ01  00362WGOSPDQ02  00412WGOSPDQ03  00312WGOSPD
0196062690999992000011110004+52450+005380FM-12-000399999V0201901N006019999999N0110001N1+00131+00001103571ADDMD1310041+9999OA140199999OA249999999OA359999999REMSYN086AAXX  11101 06269 46/61 /1906 10013 20000 40357 53004 333 91008 91109 91207 555 53029;EQDQ01  00412WGOSPDQ02  00462WGOSPDQ03  00362WGOSPD
0196062690999992000011111004+52450+005380FM-12-000399999V0201901N006019999999N0140001N1+00221+00031103541ADDMD1010021+9999OA140199999OA249999999OA359999999REMSYN086AAXX  11111 06269 46/64 /1906 10022 20003 40354 50002 333 91008 91108 91206 555 53048;EQDQ01  00412WGOSPDQ02  00412WGOSPDQ03  00312WGOSPD
0235062690999992000011112004+52450+005380FM-12-000399999V0202101N006019999999N0200001N1+00361+00061103501ADDAA106000091MD1810061+9999OA140199999OA249999999OA359999999REMSYN098AAXX  11121 06269 36/70 /2106 10036 20006 40350 58006 333 91009 91109 91207 555 51109 51206 53063;EQDQ01  00002PRCP06Q02  00462WGOSPDQ03  00462WGOSPDQ04  00362WGOSPD
0196062690999992000011113004+52450+005380FM-12-000399999V0202001N006019999999N0170001N1+00361+00091103471ADDMD1710101+9999OA140199999OA249999999OA359999999REMSYN086AAXX  11131 06269 46/67 /2006 10036 20009 40347 57010 333 91008 91110 91207 555 53042;EQDQ01  00412WGOSPDQ02  00512WGOSPDQ03  00362WGOSPD
0196062690999992000011114004+52450+005380FM-12-000399999V0201901N006019999999N0160001N1+00391+00131103411ADDMD1810131+9999OA140199999OA249999999OA359999999REMSYN086AAXX  11141 06269 46/66 /1906 10039 20013 40341 58013 333 91009 91109 91206 555 53029;EQDQ01  00462WGOSPDQ02  00462WGOSPDQ03  00312WGOSPD
0196062690999992000011116004+52450+005380FM-12-000399999V0202001N006019999999N0140001N1+00381+00131103421ADDMD1610051+9999OA140199999OA249999999OA359999999REMSYN086AAXX  11161 06269 46/64 /2006 10038 20013 40342 56005 333 91008 91109 91206 555 53003;EQDQ01  00412WGOSPDQ02  00462WGOSPDQ03  00312WGOSPD
0196062690999992000011117004+52450+005380FM-12-000399999V0202001N006019999999N0150001N1+00381+00131103391ADDMD1810021+9999OA140199999OA249999999OA359999999REMSYN086AAXX  11171 06269 46/65 /2006 10038 20013 40339 58002 333 91008 91109 91207 555 53000;EQDQ01  00412WGOSPDQ02  00462WGOSPDQ03  00362WGOSPD
0254062690999992000011118004+52450+005380FM-12-000399999V0201901N006019999999N0130001N1+00371+00141103371ADDAA106000091KA1120M+00421MD1810061+9999OA140199999OA249999999OA359999999REMSYN104AAXX  11181 06269 36/63 /1906 10037 20014 40337 58006 333 10042 91009 91110 91207 555 51109 51206 53000;EQDQ01  00002PRCP06Q02  00462WGOSPDQ03  00512WGOSPDQ04  00362WGOSPD
0196062690999992000011119004+52450+005380FM-12-000399999V0201901N006019999999N0150001N1+00381+00131103361ADDMD1610061+9999OA140199999OA249999999OA359999999REMSYN086AAXX  11191 06269 46/65 /1906 10038 20013 40336 56006 333 91008 91109 91206 555 53000;EQDQ01  00412WGOSPDQ02  00462WGOSPDQ03  00312WGOSPD
0095062690999992000011120004+52450+005380FM-12-000399999V02099999999999999999N9999999N1+00371+99999999999REMSYN086AAXX  11201 06269 46/// /19// 10037 2//// 4//// 5//// 333 910// 911// 912// 555 53///;
0159062690999992000011122004+52450+005380FM-12-000399999V0201901N006019999999N0170001N1+00301+00041103271ADDMD1810091+9999OA140199999OA249999999REMSYN076AAXX  11221 06269 46/67 /1906 10030 20004 40327 58009 333 91008 91108 91206;EQDQ01  00412WGOSPDQ02  00412WGOSPD
0159062690999992000011123004+52450+005380FM-12-000399999V0202001N006019999999N0200001N1+00301+00021103241ADDMD1710111+9999OA140199999OA249999999REMSYN076AAXX  11231 06269 46/70 /2006 10030 20002 40324 57011 333 91009 91109 91206;EQDQ01  00462WGOSPDQ02  00462WGOSPD
0229062690999992000011200004+52450+005380FM-12-000399999V0201901N007019999999N0150001N1+00191-00071103201ADDAA106000091MD1610121+9999OA140199999OA249999999OA359999999REMSYN092AAXX  12001 06269 36/65 /1907 10019 21007 40320 56012 333 91010 91110 91207 555 51110 51207;EQDQ01  00002PRCP06Q02  00512WGOSPDQ03  00512WGOSPDQ04  00362WGOSPD
0159062690999992000011201004+52450+005380FM-12-000399999V0202001N006019999999N0140001N1+00111-00121103161ADDMD1810111+9999OA140199999OA249999999REMSYN076AAXX  12011 06269 46/64 /2006 10011 21012 40316 58011 333 91008 91110 91207;EQDQ01  00412WGOSPDQ02  00512WGOSPD
0085062690999992000011202004+52450+005380FM-12-000399999V02099999999999999999N9999999N1+00041-00141999999REMSYN076AAXX  12021 06269 46/// /19// 10004 21014 4//// 5//// 333 910// 911// 912//;
0196062690999992000011204004+52450+005380FM-12-000399999V0201901N006019999999N0110001N1+00031-00151103011ADDMD1810151+9999OA140199999OA249999999OA359999999REMSYN086AAXX  12041 06269 46/61 /1906 10003 21015 40301 58015 333 91009 91109 91207 555 53000;EQDQ01  00462WGOSPDQ02  00462WGOSPDQ03  00362WGOSPD
0196062690999992000011205004+52450+005380FM-12-000399999V0201901N007019999999N0090001N1+00021-00161102971ADDMD1710151+9999OA140199999OA249999999OA359999999REMSYN086AAXX  12051 06269 46/59 /1907 10002 21016 40297 57015 333 91009 91109 91207 555 53000;EQDQ01  00462WGOSPDQ02  00462WGOSPDQ03  00362WGOSPD
0272062690999992000011206004+52450+005380FM-12-000399999V0201901N006019999999N0080001N1-00011-00161102941ADDAA106000091IA2999-00109KA1120N-00011MD1610141+9999OA140199999OA249999999OA359999999REMSYN110AAXX  12061 06269 36/58 /1906 11001 21016 40294 56014 333 21001 3/101 91007 91110 91207 555 51109 51207 53000;EQDQ01  00002PRCP06Q02  00362WGOSPDQ03  00512WGOSPDQ04  00362WGOSPD
0196062690999992000011207004+52450+005380FM-12-000399999V0201901N007019999999N0090001N1+00011-00161102881ADDMD1810131+9999OA140199999OA249999999OA359999999REMSYN086AAXX  12071 06269 46/59 /1907 10001 21016 40288 58013 333 91009 91109 91207 555 53000;EQDQ01  00462WGOSPDQ02  00462WGOSPDQ03  00362WGOSPD
0208062690999992000011208004+52450+005380FM-12-000399999V0201901N007019999999N0110001N1+00021-00171102861ADDMD1610111+9999OA140199999OA249999999OA359999999REMSYN098AAXX  12081 06269 46/61 /1907 10002 21017 40286 56011 333 91010 91111 91208 555 21001 41007 53001;EQDQ01  00512WGOSPDQ02  00572WGOSPDQ03  00412WGOSPD
0196062690999992000011210004+52450+005380FM-12-000399999V0201901N007019999999N0170001N1+00091-00141102851ADDMD1810031+9999OA140199999OA249999999OA359999999REMSYN086AAXX  12101 06269 46/67 /1907 10009 21014 40285 58003 333 91010 91110 91208 555 53034;EQDQ01  00512WGOSPDQ02  00512WGOSPDQ03  00412WGOSPD
0196062690999992000011211004+52450+005380FM-12-000399999V0201901N007019999999N0140001N1+00141-00091102781ADDMD1810081+9999OA140199999OA249999999OA359999999REMSYN086AAXX  12111 06269 46/64 /1907 10014 21009 40278 58008 333 91010 91110 91208 555 53039;EQDQ01  00512WGOSPDQ02  00512WGOSPDQ03  00412WGOSPD
0235062690999992000011212004+52450+005380FM-12-000399999V0202001N007019999999N0150001N1+00221-00031102701ADDAA106000091MD1810181+9999OA140199999OA249999999OA359999999REMSYN098AAXX  12121 06269 36/65 /2007 10022 21003 40270 58018 333 91009 91111 91208 555 51109 51207 53046;EQDQ01  00002PRCP06Q02  00462WGOSPDQ03  00572WGOSPDQ04  00412WGOSPD
0196062690999992000011213004+52450+005380FM-12-000399999V0202001N008019999999N0170001N1+00301+00021102611ADDMD1810241+9999OA140199999OA249999999OA359999999REMSYN086AAXX  12131 06269 46/67 /2008 10030 20002 40261 58024 333 91011 91112 91208 555 53064;EQDQ01  00572WGOSPDQ02  00622WGOSPDQ03  00412WGOSPD
0196062690999992000011214004+52450+005380FM-12-000399999V0202001N008019999999N0210001N1+00281+00001102551ADDMD1610231+9999OA140199999OA249999999OA359999999REMSYN086AAXX  12141 06269 46/71 /2008 10028 20000 40255 56023 333 91011 91112 91208 555 53049;EQDQ01  00572WGOSPDQ02  00622WGOSPDQ03  00412WGOSPD
0196062690999992000011216004+52450+005380FM-12-000399999V0201901N006019999999N0220001N1+00221-00061102511ADDMD1610101+9999OA140199999OA249999999OA359999999REMSYN086AAXX  12161 06269 46/72 /1906 10022 21006 40251 56010 333 91008 91110 91207 555 53005;EQDQ01  00412WGOSPDQ02  00512WGOSPDQ03  00362WGOSPD
0196062690999992000011217004+52450+005380FM-12-000399999V0202001N007019999999N0280001N1+00151-00161102481ADDMD1810071+9999OA140199999OA249999999OA359999999REMSYN086AAXX  12171 06269 46/78 /2007 10015 21016 40248 58007 333 91009 91109 91207 555 53000;EQDQ01  00462WGOSPDQ02  00462WGOSPDQ03  00362WGOSPD
0238062690999992000011218004+52450+005380FM-12-000399999V0202001N006019999999N0180001N1+00111-00161102471ADDAA106000091KA1120M+00311MD1610061+9999OA140199999OA249900621OA359999999REMSYN104AAXX  12181 06269 36/68 /2006 10011 21016 40247 56006 333 10031 91009 91112 91208 555 51109 51206 53000;EQDQ01  00002PRCP06Q02  00462WGOSPDQ03  00412WGOSPD
0196062690999992000011219004+52450+005380FM-12-000399999V0202001N006019999999N0110001N1+00071-00151102441ADDMD1710071+9999OA140199999OA249999999OA359999999REMSYN086AAXX  12191 06269 46/61 /2006 10007 21015 40244 57007 333 91009 91109 91207 555 53000;EQDQ01  00462WGOSPDQ02  00462WGOSPDQ03  00362WGOSPD
0196062690999992000011220004+52450+005380FM-12-000399999V0202001N007019999999N0110001N1+00041-00171102381ADDMD1810101+9999OA140199999OA249999999OA359999999REMSYN086AAXX  12201 06269 46/61 /2007 10004 21017 40238 58010 333 91010 91110 91208 555 53000;EQDQ01  00512WGOSPDQ02  00512WGOSPDQ03  00412WGOSPD
0159062690999992000011222004+52450+005380FM-12-000399999V0202001N006019999999N0100001N1-00011-00171102331ADDMD1610111+9999OA140199999OA249999999REMSYN076AAXX  12221 06269 46/60 /2006 11001 21017 40233 56011 333 91008 91110 91207;EQDQ01  00412WGOSPDQ02  00512WGOSPD
0159062690999992000011223004+52450+005380FM-12-000399999V0202001N006019999999N0090001N1-00011-00161102261ADDMD1810121+9999OA140199999OA249999999REMSYN076AAXX  12231 06269 46/59 /2006 11001 21016 40226 58012 333 91008 91110 91206;EQDQ01  00412WGOSPDQ02  00512WGOSPD
0229062690999992000011300004+52450+005380FM-12-000399999V0202001N007019999999N0110001N1+00021-00161102211ADDAA106000091MD1810141+9999OA140199999OA249999999OA359999999REMSYN092AAXX  13001 06269 36/61 /2007 10002 21016 40221 58014 333 91010 91110 91208 555 51110 51207;EQDQ01  00002PRCP06Q02  00512WGOSPDQ03  00512WGOSPDQ04  00412WGOSPD
0159062690999992000011301004+52450+005380FM-12-000399999V0201901N006019999999N0110001N1+00001-00171102161ADDMD1610171+9999OA140199999OA249999999REMSYN076AAXX  13011 06269 46/61 /1906 10000 21017 40216 56017 333 91008 91111 91207;EQDQ01  00412WGOSPDQ02  00572WGOSPD
0102062690999992000011302004+52450+005380FM-12-000399999V02099999999999999999N9999999N1-00031-00171102121ADDMD1610141+9999REMSYN076AAXX  13021 06269 46/// /18// 11003 21017 40212 56014 333 910// 911// 912//;
0196062690999992000011304004+52450+005380FM-12-000399999V0201801N006019999999N0140001N1+00071-00151101911ADDMD1810251+9999OA140199999OA249999999OA359999999REMSYN086AAXX  13041 06269 46/64 /1806 10007 21015 40191 58025 333 91008 91109 91207 555 53000;EQDQ01  00412WGOSPDQ02  00462WGOSPDQ03  00362WGOSPD
0196062690999992000011305004+52450+005380FM-12-000399999V0201701N006019999999N0110001N1+00041-00151101851ADDMD1610271+9999OA140199999OA249999999OA359999999REMSYN086AAXX  13051 06269 46/61 /1706 10004 21015 40185 56027 333 91008 91109 91206 555 53000;EQDQ01  00412WGOSPDQ02  00462WGOSPDQ03  00312WGOSPD
0272062690999992000011306004+52450+005380FM-12-000399999V0201701N006019999999N0100001N1+00081-00111101821ADDAA106000091IA2999-00109KA1120N-00041MD1610191+9999OA140199999OA249999999OA359999999REMSYN110AAXX  13061 06269 36/60 /1706 10008 21011 40182 56019 333 21004 3/101 91008 91111 91207 555 51108 51206 53000;EQDQ01  00002PRCP06Q02  00412WGOSPDQ03  00572WGOSPDQ04  00362WGOSPD
0196062690999992000011307004+52450+005380FM-12-000399999V0201801N006019999999N0120001N1+00121-00111101761ADDMD1710151+9999OA140199999OA249999999OA359999999REMSYN086AAXX  13071 06269 46/62 /1806 10012 21011 40176 57015 333 91009 91109 91206 555 53000;EQDQ01  00462WGOSPDQ02  00462WGOSPDQ03  00312WGOSPD
0208062690999992000011308004+52450+005380FM-12-000399999V0201801N005019999999N0110001N1+00131-00111101761ADDMD1610091+9999OA140199999OA249999999OA359999999REMSYN098AAXX  13081 06269 46/61 /1805 10013 21011 40176 56009 333 91007 91108 91206 555 21004 41010 53000;EQDQ01  00362WGOSPDQ02  00412WGOSPDQ03  00312WGOSPD
0196062690999992000011310004+52450+005380FM-12-000399999V0201801N005019999999N0130001N1+00171-00101101731ADDMD1810031+9999OA140199999OA249999999OA359999999REMSYN086AAXX  13101 06269 46/63 /1805 10017 21010 40173 58003 333 91007 91107 91205 555 53020;EQDQ01  00362WGOSPDQ02  00362WGOSPDQ03  00262WGOSPD
0196062690999992000011311004+52450+005380FM-12-000399999V0201901N006019999999N0160001N1+00241-00091101691ADDMD1810071+9999OA140199999OA249999999OA359999999REMSYN086AAXX  13111 06269 46/66 /1906 10024 21009 40169 58007 333 91008 91109 91206 555 53051;EQDQ01  00412WGOSPDQ02  00462WGOSPDQ03  00312WGOSPD
0235062690999992000011312004+52450+005380FM-12-000399999V0201901N006019999999N0150001N1+00271-00071101611ADDAA106000091MD1810151+9999OA140199999OA249999999OA359999999REMSYN098AAXX  13121 06269 36/65 /1906 10027 21007 40161 58015 333 91008 91110 91206 555 51110 51206 53059;EQDQ01  00002PRCP06Q02  00412WGOSPDQ03  00512WGOSPDQ04  00312WGOSPD
0196062690999992000011313004+52450+005380FM-12-000399999V0202001N006019999999N0150001N1+00311-00051101561ADDMD1810171+9999OA140199999OA249999999OA359999999REMSYN086AAXX  13131 06269 46/65 /2006 10031 21005 40156 58017 333 91008 91109 91206 555 53046;EQDQ01  00412WGOSPDQ02  00462WGOSPDQ03  00312WGOSPD
0196062690999992000011314004+52450+005380FM-12-000399999V0201901N005019999999N0140001N1+00301-00051101521ADDMD1610171+9999OA140199999OA249999999OA359999999REMSYN086AAXX  13141 06269 46/64 /1905 10030 21005 40152 56017 333 91007 91109 91206 555 53023;EQDQ01  00362WGOSPDQ02  00462WGOSPDQ03  00312WGOSPD
0095062690999992000011316004+52450+005380FM-12-000399999V02099999999999999999N9999999N1+99999+99999999999REMSYN086AAXX  13161 06269 46/// ///// 1//// 2//// 4//// 5//// 333 910// 911// 912// 555 53///;
0095062690999992000011317004+52450+005380FM-12-000399999V02099999999999999999N9999999N1+99999+99999999999REMSYN086AAXX  13171 06269 46/// ///// 1//// 2//// 4//// 5//// 333 910// 911// 912// 555 53///;
0238062690999992000011318004+52450+005380FM-12-000399999V0201901N004019999999N0140001N1+00261-00061101561ADDAA106000091KA1120M+00321MD1310081+9999OA140199999OA249900461OA359999999REMSYN104AAXX  13181 06269 36/64 /1904 10026 21006 40156 53008 333 10032 91006 91109 91206 555 51107 51204 53000;EQDQ01  00002PRCP06Q02  00312WGOSPDQ03  00312WGOSPD
0112062690999992000011319004+52450+005380FM-12-000399999V02099999999999999999N9999999N1+00251-00041101551ADDMD1010041+9999REMSYN086AAXX  13191 06269 46/// /19// 10025 21004 40155 50004 333 910// 911// 912// 555 53000;
0116062690999992000011320004+52450+005380FM-12-000399999V02099999999999999999N9999999N1+00271-00021101571ADDMD1110061+9999REMSYN090    AAXX  13201 06269 46/// /19// 10027 21002 40157 51006 333 910// 911// 912// 555 53000;
0163062690999992000011322004+52450+005380FM-12-000399999V0202001N005019999999N0025001N1+00171+00081101591ADDMD1110041+9999OA140199999OA249999999REMSYN080    AAXX  13221 06269 46/25 /2005 10017 20008 40159 51004 333 91006 91107 91205;EQDQ01  00312WGOSPDQ02  00362WGOSPD
0163062690999992000011323004+52450+005380FM-12-000399999V0202001N005019999999N0023001N1+00171+00101101601ADDMD1210031+9999OA140199999OA249999999REMSYN080    AAXX  13231 06269 46/23 /2005 10017 20010 40160 52003 333 91007 91107 91205;EQDQ01  00362WGOSPDQ02  00362WGOSPD
0105062690999992000011400004+52450+005380FM-12-000399999V02099999999999999999N9999999N1+00171+99999999999REMSYN096    AAXX  14001 06269 46/// /20// 10017 2//// 4//// 5//// 333 910// 911// 912// 555 511// 512//;
0163062690999992000011401004+52450+005380FM-12-000399999V0201901N004019999999N0035001N1+00171+00101101621ADDMD1010031+9999OA140199999OA249999999REMSYN080    AAXX  14011 06269 46/35 /1904 10017 20010 40162 50003 333 91005 91106 91204;EQDQ01  00262WGOSPDQ02  00312WGOSPD
0163062690999992000011402004+52450+005380FM-12-000399999V0202001N004019999999N0027001N1+00161+00101101651ADDMD1210051+9999OA140199999OA249999999REMSYN080    AAXX  14021 06269 46/27 /2004 10016 20010 40165 52005 333 91006 91106 91204;EQDQ01  00312WGOSPDQ02  00312WGOSPD
0200062690999992000011404004+52450+005380FM-12-000399999V0201901N004019999999N0026001N1+00171+00111101691ADDMD1310071+9999OA140199999OA249999999OA359999999REMSYN090    AAXX  14041 06269 46/26 /1904 10017 20011 40169 53007 333 91005 91105 91204 555 53000;EQDQ01  00262WGOSPDQ02  00262WGOSPDQ03  00212WGOSPD
0184062690999992000011405004+52450+005380FM-12-000399999V0202001N003019999999N0028001N1+00171+00111101721ADDMD1310071+9999OA140199999OA249900311OA359999999REMSYN090    AAXX  14051 06269 46/28 /2003 10017 20011 40172 53007 333 91005 91106 91204 555 53000;EQDQ01  00262WGOSPDQ02  00212WGOSPD
0276062690999992000011406004+52450+005380FM-12-000399999V0201901N004019999999N0009001N1+00161+00111101751ADDAA199000091IA2999+00109KA1120N+00161MD1110101+9999OA140199999OA249999999OA359999999REMSYN114    AAXX  14061 06269 36/09 /1904 10016 20011 40175 51010 333 20016 3/001 91006 91106 91204 555 51106 51204 53000;EQDQ01  00002PRCP99Q02  00312WGOSPDQ03  00312WGOSPDQ04  00212WGOSPD
0200062690999992000011407004+52450+005380FM-12-000399999V0202001N003019999999N0013001N1+00171+00131101811ADDMD1310121+9999OA140199999OA249999999OA359999999REMSYN090    AAXX  14071 06269 46/13 /2003 10017 20013 40181 53012 333 91004 91105 91204 555 53000;EQDQ01  00212WGOSPDQ02  00262WGOSPDQ03  00212WGOSPD
0212062690999992000011408004+52450+005380FM-12-000399999V0202001N003019999999N0017001N1+00191+00151101881ADDMD1310161+9999OA140199999OA249999999OA359999999REMSYN102    AAXX  14081 06269 46/17 /2003 10019 20015 40188 53016 333 91005 91105 91203 555 20016 40013 53000;EQDQ01  00262WGOSPDQ02  00262WGOSPDQ03  00152WGOSPD
0200062690999992000011410004+52450+005380FM-12-000399999V0202101N003019999999N0011001N1+00271+00231101971ADDMD1110161+9999OA140199999OA249999999OA359999999REMSYN090    AAXX  14101 06269 46/11 /2103 10027 20023 40197 51016 333 91004 91105 91203 555 53022;EQDQ01  00212WGOSPDQ02  00262WGOSPDQ03  00152WGOSPD
0200062690999992000011411004+52450+005380FM-12-000399999V0202201N003019999999N0013001N1+00301+00271102021ADDMD1210141+9999OA140199999OA249999999OA359999999REMSYN090    AAXX  14111 06269 46/13 /2203 10030 20027 40202 52014 333 91005 91105 91203 555 53025;EQDQ01  00262WGOSPDQ02  00262WGOSPDQ03  00152WGOSPD
0191062690999992000011412004+52450+005380FM-12-000399999V0202001N002019999999N0011001N1+00301+00271102041ADDAA199000091MD1110111+9999OA140100211OA249900261OA359900211REMSYN102    AAXX  14121 06269 36/11 /2002 10030 20027 40204 51011 333 91004 91105 91204 555 51104 51203 53028;EQDQ01  00002PRCP99
0200062690999992000011414004+52450+005380FM-12-000399999V0201701N003019999999N0015001N1+00391+00351102131ADDMD1310111+9999OA140199999OA249999999OA359999999REMSYN090    AAXX  14141 06269 46/15 /1703 10039 20035 40213 53011 333 91004 91104 91203 555 53020;EQDQ01  00212WGOSPDQ02  00212WGOSPDQ03  00152WGOSPD
0200062690999992000011416004+52450+005380FM-12-000399999V0201601N002019999999N0012001N1+00381+00341102241ADDMD1110181+9999OA140199999OA249999999OA359999999REMSYN090    AAXX  14161 06269 46/12 /1602 10038 20034 40224 51018 333 91003 91103 91202 555 53002;EQDQ01  00152WGOSPDQ02  00152WGOSPDQ03  00102WGOSPD
0149062690999992000011417004+52450+005380FM-12-000399999V0201701N001019999999N0012001N1+00351+00311102341ADDMD1310211+9999OA140100101OA249900151OA359900101REMSYN090    AAXX  14171 06269 46/12 /1701 10035 20031 40234 53021 333 91002 91103 91202 555 53000;
0242062690999992000011418004+52450+005380FM-12-000399999V0201401N002019999999N0011001N1+00341+00301102421ADDAA199000091KA1120M+00401MD1310241+9999OA140199999OA249900211OA359999999REMSYN108    AAXX  14181 06269 36/11 /1402 10034 20030 40242 53024 333 10040 91003 91104 91203 555 51103 51202 53000;EQDQ01  00002PRCP99Q02  00152WGOSPDQ03  00152WGOSPD
0149062690999992000011419004+52450+005380FM-12-000399999V0201801N001019999999N0013001N1+00321+00281102511ADDMD1110271+9999OA140100101OA249900151OA359900151REMSYN090    AAXX  14191 06269 46/13 /1801 10032 20028 40251 51027 333 91002 91103 91203 555 53000;
0168062690999992000011420004+52450+005380FM-12-000399999V0203401N001019999999N0015001N1+00331+00291102611ADDMD1310271+9999OA140199999OA249900211OA359900101REMSYN090    AAXX  14201 06269 46/15 /3401 10033 20029 40261 53027 333 91001 91104 91202 555 53000;EQDQ01  00052WGOSPD
0128062690999992000011422004+52450+005380FM-12-000399999V0209999C000019999999N0012001N1+00291+00251102771ADDMD1110261+9999OA140100051OA249900051REMSYN080    AAXX  14221 06269 46/12 /0000 10029 20025 40277 51026 333 91001 91101 91201;
0128062690999992000011423004+52450+005380FM-12-000399999V0200401N001019999999N0010001N1+00301+00271102841ADDMD1110231+9999OA140100101OA249900151REMSYN080    AAXX  14231 06269 46/10 /0401 10030 20027 40284 51023 333 91002 91103 91202;
0179062690999992000011500004+52450+005380FM-12-000399999V0200301N002019999999N0009001N1+00301+00271102911ADDAA199000091MD1210211+9999OA159999999REMSYN096    AAXX  15001 06269 36/09 /0302 10030 20027 40291 52021 333 910// 911// 91203 555 511// 51202;EQDQ01  00002PRCP99Q02  00152WGOSPD
0163062690999992000011501004+52450+005380FM-12-000399999V0200401N004019999999N0013001N1+00291+00251102991ADDMD1310221+9999OA140199999OA249999999REMSYN080    AAXX  15011 06269 46/13 /0404 10029 20025 40299 53022 333 91005 91105 91204;EQDQ01  00262WGOSPDQ02  00262WGOSPD
0106062690999992000011502004+52450+005380FM-12-000399999V02099999999999999999N9999999N1+00281+00251103051ADDMD1110211+9999REMSYN080    AAXX  15021 06269 46/// /03// 10028 20025 40305 51021 333 910// 911// 912//;
0200062690999992000011504004+52450+005380FM-12-000399999V0200201N003019999999N0015001N1+00281+00241103151ADDMD1110161+9999OA140199999OA249999999OA359999999REMSYN090    AAXX  15041 06269 46/15 /0203 10028 20024 40315 51016 333 91004 91104 91203 555 53000;EQDQ01  00212WGOSPDQ02  00212WGOSPDQ03  00152WGOSPD
0200062690999992000011505004+52450+005380FM-12-000399999V0200201N003019999999N0016001N1+00291+00251103211ADDMD1210161+9999OA140199999OA249999999OA359999999REMSYN090    AAXX  15051 06269 46/16 /0203 10029 20025 40321 52016 333 91005 91105 91203 555 53000;EQDQ01  00262WGOSPDQ02  00262WGOSPDQ03  00152WGOSPD
0276062690999992000011506004+52450+005380FM-12-000399999V0200201N003019999999N0015001N1+00291+00231103261ADDAA199000091IA2999+00209KA1120N+00271MD1310151+9999OA140199999OA249999999OA359999999REMSYN114    AAXX  15061 06269 36/15 /0203 10029 20023 40326 53015 333 20027 3/002 91004 91105 91204 555 51105 51203 53000;EQDQ01  00002PRCP99Q02  00212WGOSPDQ03  00262WGOSPDQ04  00212WGOSPD
0200062690999992000011507004+52450+005380FM-12-000399999V0200201N004019999999N0014001N1+00301+00231103361ADDMD1310211+9999OA140199999OA249999999OA359999999REMSYN090    AAXX  15071 06269 46/14 /0204 10030 20023 40336 53021 333 91006 91106 91204 555 53000;EQDQ01  00312WGOSPDQ02  00312WGOSPDQ03  00212WGOSPD
0196062690999992000011508004+52450+005380FM-12-000399999V0200201N003019999999N0018001N1+00231+00151103461ADDMD1310251+9999OA140199999OA249900311OA359999999REMSYN102    AAXX  15081 06269 46/18 /0203 10023 20015 40346 53025 333 91005 91106 91204 555 20023 40014 53000;EQDQ01  00262WGOSPDQ02  00212WGOSPD
0184062690999992000011510004+52450+005380FM-12-000399999V0200301N002019999999N0028001N1+00281+00181103551ADDMD1110191+9999OA140199999OA249900211OA359999999REMSYN090    AAXX  15101 06269 46/28 /0302 10028 20018 40355 51019 333 91003 91104 91203 555 53037;EQDQ01  00152WGOSPDQ02  00152WGOSPD
0200062690999992000011511004+52450+005380FM-12-000399999V0200101N002019999999N0042001N1+00341+00181103601ADDMD1110141+9999OA140199999OA249999999OA359999999REMSYN090    AAXX  15111 06269 46/42 /0102 10034 20018 40360 51014 333 91003 91103 91202 555 53030;EQDQ01  00152WGOSPDQ02  00152WGOSPDQ03  00102WGOSPD
0223062690999992000011512004+52450+005380FM-12-000399999V0203601N003019999999N0060001N1+00401+00211103621ADDAA199000091MD1110101+9999OA140199999OA249900311OA359999999REMSYN102    AAXX  15121 06269 36/56 /3603 10040 20021 40362 51010 333 91005 91106 91204 555 51105 51203 53037;EQDQ01  00002PRCP99Q02  00262WGOSPDQ03  00212WGOSPD
0200062690999992000011513004+52450+005380FM-12-000399999V0200301N004019999999N0210001N1+00491+00211103621ADDMD1110071+9999OA140199999OA249999999OA359999999REMSYN090    AAXX  15131 06269 46/71 /0304 10049 20021 40362 51007 333 91005 91106 91204 555 53081;EQDQ01  00262WGOSPDQ02  00312WGOSPDQ03  00212WGOSPD
0184062690999992000011514004+52450+005380FM-12-000399999V0200401N003019999999N0180001N1+00481+00201103641ADDMD1210041+9999OA140199999OA249900311OA359999999REMSYN090    AAXX  15141 06269 46/68 /0403 10048 20020 40364 52004 333 91004 91106 91204 555 53057;EQDQ01  00212WGOSPDQ02  00212WGOSPD
0200062690999992000011516004+52450+005380FM-12-000399999V0203301N002019999999N0350001N1+00331+00141103701ADDMD1310081+9999OA140199999OA249999999OA359999999REMSYN090    AAXX  15161 06269 46/81 /3302 10033 20014 40370 53008 333 91003 91103 91202 555 53005;EQDQ01  00152WGOSPDQ02  00152WGOSPDQ03  00102WGOSPD
0200062690999992000011517004+52450+005380FM-12-000399999V0203401N003019999999N0750001N1+00331+00171103721ADDMD1210081+9999OA140199999OA249999999OA359999999REMSYN090    AAXX  15171 06269 46/89 /3403 10033 20017 40372 52008 333 91003 91104 91203 555 53000;EQDQ01  00152WGOSPDQ02  00212WGOSPDQ03  00152WGOSPD
0226062690999992000011518004+52450+005380FM-12-000399999V0203301N002019999999N0750001N1+00281+00151103751ADDAA199000091KA1120M+00521MD1110091+9999OA140199999OA249900311OA359900211REMSYN108    AAXX  15181 06269 36/89 /3302 10028 20015 40375 51009 333 10052 91003 91106 91204 555 51104 51202 53000;EQDQ01  00002PRCP99Q02  00152WGOSPD
0200062690999992000011519004+52450+005380FM-12-000399999V0203101N002019999999N0750001N1+00241+00121103731ADDMD1010031+9999OA140199999OA249999999OA359999999REMSYN090    AAXX  15191 06269 46/89 /3102 10024 20012 40373 50003 333 91003 91103 91202 555 53000;EQDQ01  00152WGOSPDQ02  00152WGOSPDQ03  00102WGOSPD
0184062690999992000011520004+52450+005380FM-12-000399999V0203001N002019999999N0750001N1+00261+00141103721ADDMD1010001+9999OA140199999OA249900211OA359999999REMSYN090    AAXX  15201 06269 46/89 /3002 10026 20014 40372 50000 333 91003 91104 91202 555 53000;EQDQ01  00152WGOSPDQ02  00102WGOSPD
0089062690999992000011522004+52450+005380FM-12-000399999V02099999999999999999N9999999N1+00301+99999999999REMSYN080    AAXX  15221 06269 46/// /30// 10030 2//// 4//// 5//// 333 910// 911// 912//;
0163062690999992000011523004+52450+005380FM-12-000399999V0203001N002019999999N0750001N1+00291+00161103761ADDMD1310041+9999OA140199999OA249999999REMSYN080    AAXX  15231 06269 46/89 /3002 10029 20016 40376 53004 333 91003 91103 91202;EQDQ01  00152WGOSPDQ02  00152WGOSPD
0233062690999992000011600004+52450+005380FM-12-000399999V0203001N003019999999N9999999N1+00321+00191103721ADDAA199000091MD1810011+9999OA140199999OA249999999OA359999999REMSYN096    AAXX  16001 06269 36/// /3003 10032 20019 40372 58001 333 91005 91105 91203 555 51105 51203;EQDQ01  00002PRCP99Q02  00262WGOSPDQ03  00262WGOSPDQ04  00152WGOSPD
0147062690999992000011601004+52450+005380FM-12-000399999V0203001N002019999999N0750001N1+00261+00121103681ADDMD1810061+9999OA140199999OA249900261REMSYN080    AAXX  16011 06269 46/89 /3002 10026 20012 40368 58006 333 91002 91105 91203;EQDQ01  00102WGOSPD
0089062690999992000011602004+52450+005380FM-12-000399999V02099999999999999999N9999999N1+99999+99999999999REMSYN080    AAXX  16021 06269 46/// ///// 1//// 2//// 4//// 5//// 333 910// 911// 912//;
0099062690999992000011604004+52450+005380FM-12-000399999V02099999999999999999N9999999N1+00401+99999999999REMSYN090    AAXX  16041 06269 46/// /30// 10040 2//// 4//// 5//// 333 910// 911// 912// 555 53///;
0200062690999992000011605004+52450+005380FM-12-000399999V0203101N003019999999N0150001N1+00421+00361103571ADDMD1710081+9999OA140199999OA249999999OA359999999REMSYN090    AAXX  16051 06269 46/65 /3103 10042 20036 40357 57008 333 91004 91104 91203 555 53000;EQDQ01  00212WGOSPDQ02  00212WGOSPDQ03  00152WGOSPD
0276062690999992000011606004+52450+005380FM-12-000399999V0203101N004019999999N0070001N1+00451+00391103521ADDAA199000091IA2999+00109KA1120N+00231MD1810111+9999OA140199999OA249999999OA359999999REMSYN114    AAXX  16061 06269 36/57 /3104 10045 20039 40352 58011 333 20023 3/001 91005 91106 91204 555 51106 51204 53000;EQDQ01  00002PRCP99Q02  00262WGOSPDQ03  00312WGOSPDQ04  00212WGOSPD
0200062690999992000011607004+52450+005380FM-12-000399999V0203201N004019999999N0120001N1+00481+00441103521ADDMD1610071+9999OA140199999OA249999999OA359999999REMSYN090    AAXX  16071 06269 46/62 /3204 10048 20044 40352 56007 333 91006 91106 91205 555 53000;EQDQ01  00312WGOSPDQ02  00312WGOSPDQ03  00262WGOSPD
0196062690999992000011608004+52450+005380FM-12-000399999V0203101N003019999999N0230001N1+00481+00431103561ADDMD1510011+9999OA140199999OA249900311OA359999999REMSYN102    AAXX  16081 06269 46/73 /3103 10048 20043 40356 55001 333 91004 91106 91204 555 20023 40011 53000;EQDQ01  00212WGOSPDQ02  00212WGOSPD
0200062690999992000011610004+52450+005380FM-12-000399999V0203301N004019999999N0037001N1+00571+00501103641ADDMD1110121+9999OA140199999OA249999999OA359999999REMSYN090    AAXX  16101 06269 46/37 /3304 10057 20050 40364 51012 333 91007 91107 91205 555 53030;EQDQ01  00362WGOSPDQ02  00362WGOSPDQ03  00262WGOSPD
0184062690999992000011611004+52450+005380FM-12-000399999V0203001N003019999999N0150001N1+00541+00481103601ADDMD1010041+9999OA140199999OA249900311OA359999999REMSYN090    AAXX  16111 06269 46/65 /3003 10054 20048 40360 50004 333 91005 91106 91204 555 53028;EQDQ01  00262WGOSPDQ02  00212WGOSPD
0229062690999992000011612004+52450+005380FM-12-000399999V0203101N005019999999N0050001N1+00571+00521103581ADDAA106000591MD1810061+9999OA140199999OA249999999OA359999999REMSYN108    AAXX  16121 06269 16/50 /3105 10057 20052 40358 58006 69941 333 91007 91107 91205 555 51107 51205 53021;EQDQ01  00362WGOSPDQ02  00362WGOSPDQ03  00262WGOSPD
0200062690999992000011613004+52450+005380FM-12-000399999V0203301N005019999999N0140001N1+00651+00591103521ADDMD1810121+9999OA140199999OA249999999OA359999999REMSYN090    AAXX  16131 06269 46/64 /3305 10065 20059 40352 58012 333 91008 91108 91205 555 53026;EQDQ01  00412WGOSPDQ02  00412WGOSPDQ03  00262WGOSPD
0200062690999992000011614004+52450+005380FM-12-000399999V0203201N006019999999N0350001N1+00671+00621103461ADDMD1810141+9999OA140199999OA249999999OA359999999REMSYN090    AAXX  16141 06269 46/81 /3206 10067 20062 40346 58014 333 91009 91109 91206 555 53026;EQDQ01  00462WGOSPDQ02  00462WGOSPDQ03  00312WGOSPD
0184062690999992000011616004+52450+005380FM-12-000399999V0203201N005019999999N0019001N1+00581+00521103511ADDMD1510011+9999OA140199999OA249900511OA359999999REMSYN090    AAXX  16161 06269 46/19 /3205 10058 20052 40351 55001 333 91007 91110 91207 555 53002;EQDQ01  00362WGOSPDQ02  00362WGOSPD
0200062690999992000011617004+52450+005380FM-12-000399999V0203101N004019999999N0400001N1+00571+00521103491ADDMD1010031+9999OA140199999OA249999999OA359999999REMSYN090    AAXX  16171 06269 46/82 /3104 10057 20052 40349 50003 333 91005 91107 91205 555 53000;EQDQ01  00262WGOSPDQ02  00362WGOSPDQ03  00262WGOSPD
0232062690999992000011618004+52450+005380FM-12-000399999V0203001N004019999999N0140001N1+00571+00521103461ADDAA112000591KA1120M+00671MD1810041+9999OA140199999OA249900511OA359999999REMSYN114    AAXX  16181 06269 16/64 /3004 10057 20052 40346 58004 69962 333 10067 91006 91110 91207 555 51106 51205 53000;EQDQ01  00312WGOSPDQ02  00362WGOSPD
0184062690999992000011619004+52450+005380FM-12-000399999V0203001N003019999999N0160001N1+00561+00501103471ADDMD1510041+9999OA140199999OA249900311OA359999999REMSYN090    AAXX  16191 06269 46/66 /3003 10056 20050 40347 55004 333 91005 91106 91204 555 53000;EQDQ01  00262WGOSPDQ02  00212WGOSPD
0200062690999992000011620004+52450+005380FM-12-000399999V0203001N005019999999N0280001N1+00551+00491103431ADDMD1810061+9999OA140199999OA249999999OA359999999REMSYN090    AAXX  16201 06269 46/78 /3005 10055 20049 40343 58006 333 91007 91108 91205 555 53000;EQDQ01  00362WGOSPDQ02  00412WGOSPDQ03  00262WGOSPD
0147062690999992000011622004+52450+005380FM-12-000399999V0203001N004019999999N0290001N1+00521+00431103341ADDMD1810131+9999OA140199999OA249900411REMSYN080    AAXX  16221 06269 46/79 /3004 10052 20043 40334 58013 333 91007 91108 91205;EQDQ01  00362WGOSPD
0163062690999992000011623004+52450+005380FM-12-000399999V0202901N005019999999N0270001N1+00551+00471103281ADDMD1810151+9999OA140199999OA249999999REMSYN080    AAXX  16231 06269 46/77 /2905 10055 20047 40328 58015 333 91009 91109 91205;EQDQ01  00462WGOSPDQ02  00462WGOSPD
0163062690999992000011701004+52450+005380FM-12-000399999V0202901N005019999999N0260001N1+00561+00461103221ADDMD1610121+9999OA140199999OA249999999REMSYN080    AAXX  17011 06269 46/76 /2905 10056 20046 40322 56012 333 91007 91109 91206;EQDQ01  00362WGOSPDQ02  00462WGOSPD
0163062690999992000011702004+52450+005380FM-12-000399999V0202801N005019999999N0200001N1+00561+00461103201ADDMD1610081+9999OA140199999OA249999999REMSYN080    AAXX  17021 06269 46/70 /2805 10056 20046 40320 56008 333 91007 91107 91205;EQDQ01  00362WGOSPDQ02  00362WGOSPD
0099062690999992000011704004+52450+005380FM-12-000399999V02099999999999999999N9999999N1+00581+99999999999REMSYN090    AAXX  17041 06269 46/// /30// 10058 2//// 4//// 5//// 333 910// 911// 912// 555 53///;
0200062690999992000011705004+52450+005380FM-12-000399999V0203001N005019999999N0160001N1+00601+00501103031ADDMD1610171+9999OA140199999OA249999999OA359999999REMSYN090    AAXX  17051 06269 46/66 /3005 10060 20050 40303 56017 333 91007 91108 91205 555 53000;EQDQ01  00362WGOSPDQ02  00412WGOSPDQ03  00262WGOSPD
0151062690999992000011706004+52450+005380FM-12-000399999V02099999999999999999N9999999N1+99999+99999999999ADDIA2999+00409KA1120N+00511REMSYN114    AAXX  17061 06269 46/// ///// 1//// 2//// 4//// 5//// 333 20051 3/004 910// 911// 912// 555 511// 512// 53///;
0200062690999992000011707004+52450+005380FM-12-000399999V0203001N004019999999N0150001N1+00581+00491103011ADDMD1610071+9999OA140199999OA249999999OA359999999REMSYN090    AAXX  17071 06269 46/65 /3004 10058 20049 40301 56007 333 91007 91107 91205 555 53000;EQDQ01  00362WGOSPDQ02  00362WGOSPDQ03  00262WGOSPD
0212062690999992000011708004+52450+005380FM-12-000399999V0203001N005019999999N0150001N1+00621+00541103021ADDMD1510011+9999OA140199999OA249999999OA359999999REMSYN102    AAXX  17081 06269 46/65 /3005 10062 20054 40302 55001 333 91007 91108 91205 555 20051 40043 53000;EQDQ01  00362WGOSPDQ02  00412WGOSPDQ03  00262WGOSPD
0200062690999992000011710004+52450+005380FM-12-000399999V0203301N006019999999N0100001N1+00651+00521103061ADDMD1310051+9999OA140199999OA249999999OA359999999REMSYN090    AAXX  17101 06269 46/60 /3306 10065 20052 40306 53005 333 91011 91111 91206 555 53009;EQDQ01  00572WGOSPDQ02  00572WGOSPDQ03  00312WGOSPD
0200062690999992000011711004+52450+005380FM-12-000399999V0203201N007019999999N0060001N1+00641+00551103041ADDMD1010021+9999OA140199999OA249999999OA359999999REMSYN090    AAXX  17111 06269 46/56 /3207 10064 20055 40304 50002 333 91010 91111 91207 555 53019;EQDQ01  00512WGOSPDQ02  00572WGOSPDQ03  00362WGOSPD
0229062690999992000011712004+52450+005380FM-12-000399999V0203201N008019999999N0080001N1+00691+00601103021ADDAA106000791MD1810011+9999OA140199999OA249999999OA359999999REMSYN108    AAXX  17121 06269 16/58 /3208 10069 20060 40302 58001 69901 333 91011 91112 91208 555 51112 51208 53028;EQDQ01  00572WGOSPDQ02  00622WGOSPDQ03  00412WGOSPD
0200062690999992000011714004+52450+005380FM-12-000399999V0203201N007019999999N0240001N1+00711+00611102901ADDMD1810141+9999OA140199999OA249999999OA359999999REMSYN090    AAXX  17141 06269 46/74 /3207 10071 20061 40290 58014 333 91009 91111 91208 555 53018;EQDQ01  00462WGOSPDQ02  00572WGOSPDQ03  00412WGOSPD
0184062690999992000011716004+52450+005380FM-12-000399999V0203101N006019999999N0070001N1+00661+00561102901ADDMD1510061+9999OA140199999OA249900621OA359999999REMSYN090    AAXX  17161 06269 46/57 /3106 10066 20056 40290 55006 333 91009 91112 91208 555 53001;EQDQ01  00462WGOSPDQ02  00412WGOSPD
0200062690999992000011717004+52450+005380FM-12-000399999V0203201N007019999999N0100001N1+00661+00581102891ADDMD1710011+9999OA140199999OA249999999OA359999999REMSYN090    AAXX  17171 06269 46/60 /3207 10066 20058 40289 57001 333 91012 91112 91208 555 53000;EQDQ01  00622WGOSPDQ02  00622WGOSPDQ03  00412WGOSPD
0200062690999992000011719004+52450+005380FM-12-000399999V0203201N008019999999N0250001N1+00681+00571102831ADDMD1510071+9999OA140199999OA249999999OA359999999REMSYN090    AAXX  17191 06269 46/75 /3208 10068 20057 40283 55007 333 91013 91113 91209 555 53000;EQDQ01  00672WGOSPDQ02  00672WGOSPDQ03  00462WGOSPD
0200062690999992000011720004+52450+005380FM-12-000399999V0203301N009019999999N0270001N1+00691+00551102821ADDMD1610071+9999OA140199999OA249999999OA359999999REMSYN090    AAXX  17201 06269 46/77 /3309 10069 20055 40282 56007 333 91014 91114 91209 555 53000;EQDQ01  00722WGOSPDQ02  00722WGOSPDQ03  00462WGOSPD
0163062690999992000011722004+52450+005380FM-12-000399999V0203201N008019999999N0060001N1+00641+00561102791ADDMD1810041+9999OA140199999OA249999999REMSYN080    AAXX  17221 06269 46/56 /3208 10064 20056 40279 58004 333 91011 91114 91209;EQDQ01  00572WGOSPDQ02  00722WGOSPD
0163062690999992000011723004+52450+005380FM-12-000399999V0203201N008019999999N0100001N1+00631+00561102741ADDMD1810081+9999OA140199999OA249999999REMSYN080    AAXX  17231 06269 46/60 /3208 10063 20056 40274 58008 333 91013 91113 91208;EQDQ01  00672WGOSPDQ02  00672WGOSPD
0207062690999992000011800004+52450+005380FM-12-000399999V0203301N007019999999N0080001N1+00641+00571102711ADDAA106000191MD1610131+9999OA140199999OA249900721OA359999999REMSYN102    AAXX  18001 06269 16/58 /3307 10064 20057 40271 56013 69911 333 91011 91114 91209 555 51112 51208;EQDQ01  00572WGOSPDQ02  00462WGOSPD
0163062690999992000011801004+52450+005380FM-12-000399999V0203201N007019999999N0047001N1+00621+00551102641ADDMD1810151+9999OA140199999OA249999999REMSYN080    AAXX  18011 06269 46/47 /3207 10062 20055 40264 58015 333 91011 91112 91208;EQDQ01  00572WGOSPDQ02  00622WGOSPD
0163062690999992000011802004+52450+005380FM-12-000399999V0203201N008019999999N0050001N1+00631+00571102601ADDMD1810141+9999OA140199999OA249999999REMSYN080    AAXX  18021 06269 46/50 /3208 10063 20057 40260 58014 333 91012 91112 91208;EQDQ01  00622WGOSPDQ02  00622WGOSPD
0200062690999992000011804004+52450+005380FM-12-000399999V0203201N009019999999N0050001N1+00661+00601102501ADDMD1810141+9999OA140199999OA249999999OA359999999REMSYN090    AAXX  18041 06269 46/50 /3209 10066 20060 40250 58014 333 91012 91112 91209 555 53000;EQDQ01  00622WGOSPDQ02  00622WGOSPDQ03  00462WGOSPD
0200062690999992000011805004+52450+005380FM-12-000399999V0203301N009019999999N0160001N1+00651+00581102461ADDMD1810141+9999OA140199999OA249999999OA359999999REMSYN090    AAXX  18051 06269 46/66 /3309 10065 20058 40246 58014 333 91014 91114 91209 555 53000;EQDQ01  00722WGOSPDQ02  00722WGOSPDQ03  00462WGOSPD
0266062690999992000011806004+52450+005380FM-12-000399999V0203301N010019999999N0260001N1+00671+00581102371ADDAA112000591IA2999+00609KA1120N+00611MD1810211+9999OA140199999OA249999999OA359999999REMSYN120    AAXX  18061 06269 16/76 /3310 10067 20058 40237 58021 69952 333 20061 3/006 91014 91116 91211 555 51116 51211 53000;EQDQ01  00722WGOSPDQ02  00822WGOSPDQ03  00572WGOSPD
0200062690999992000011807004+52450+005380FM-12-000399999V0203301N011019999999N0400001N1+00691+00561102371ADDMD1610131+9999OA140199999OA249999999OA359999999REMSYN090    AAXX  18071 06269 46/82 /3311 10069 20056 40237 56013 333 91016 91117 91212 555 53000;EQDQ01  00822WGOSPDQ02  00882WGOSPDQ03  00622WGOSPD
0212062690999992000011808004+52450+005380FM-12-000399999V0203301N011019999999N0300001N1+00691+00541102451ADDMD1510011+9999OA140199999OA249999999OA359999999REMSYN102    AAXX  18081 06269 46/80 /3311 10069 20054 40245 55001 333 91018 91120 91212 555 20061 40057 53000;EQDQ01  00932WGOSPDQ02  01032WGOSPDQ03  00622WGOSPD
0200062690999992000011811004+52450+005380FM-12-000399999V0203301N010019999999N0190001N1+00751+00551102481ADDMD1110031+9999OA140199999OA249999999OA359999999REMSYN090    AAXX  18111 06269 46/69 /3310 10075 20055 40248 51003 333 91014 91115 91211 555 53028;EQDQ01  00722WGOSPDQ02  00772WGOSPDQ03  00572WGOSPD
0229062690999992000011812004+52450+005380FM-12-000399999V0203301N012019999999N0160001N1+00761+00551102461ADDAA106000191MD1810011+9999OA140199999OA249999999OA359999999REMSYN108    AAXX  18121 06269 16/66 /3312 10076 20055 40246 58001 69911 333 91016 91120 91212 555 51116 51212 53077;EQDQ01  00822WGOSPDQ02  01032WGOSPDQ03  00622WGOSPD
0200062690999992000011813004+52450+005380FM-12-000399999V0203401N010019999999N0210001N1+00731+00461102511ADDMD1310041+9999OA140199999OA249999999OA359999999REMSYN090    AAXX  18131 06269 46/71 /3410 10073 20046 40251 53004 333 91015 91116 91211 555 53091;EQDQ01  00772WGOSPDQ02  00822WGOSPDQ03  00572WGOSPD
0200062690999992000011814004+52450+005380FM-12-000399999V0203401N010019999999N0180001N1+00701+00391102521ADDMD1310041+9999OA140199999OA249999999OA359999999REMSYN090    AAXX  18141 06269 46/68 /3410 10070 20039 40252 53004 333 91013 91117 91211 555 53072;EQDQ01  00672WGOSPDQ02  00882WGOSPDQ03  00572WGOSPD
0200062690999992000011816004+52450+005380FM-12-000399999V0203501N008019999999N0180001N1+00581+00201102601ADDMD1310091+9999OA140199999OA249999999OA359999999REMSYN090    AAXX  18161 06269 46/68 /3508 10058 20020 40260 53009 333 91015 91115 91208 555 53004;EQDQ01  00772WGOSPDQ02  00772WGOSPDQ03  00412WGOSPD
0200062690999992000011817004+52450+005380FM-12-000399999V0203401N008019999999N0160001N1+00561+00211102631ADDMD1110111+9999OA140199999OA249999999OA359999999REMSYN090    AAXX  18171 06269 46/66 /3408 10056 20021 40263 51011 333 91011 91111 91208 555 53000;EQDQ01  00572WGOSPDQ02  00572WGOSPDQ03  00412WGOSPD
0232062690999992000011818004+52450+005380FM-12-000399999V0203501N007019999999N0180001N1+00571+00171102701ADDAA112000191KA1120M+00781MD1310121+9999OA140199999OA249900881OA359999999REMSYN114    AAXX  18181 06269 16/68 /3507 10057 20017 40270 53012 69912 333 10078 91009 91117 91211 555 51112 51208 53000;EQDQ01  00462WGOSPDQ02  00572WGOSPD
0200062690999992000011819004+52450+005380FM-12-000399999V0203401N006019999999N0170001N1+00541+00191102731ADDMD1210131+9999OA140199999OA249999999OA359999999REMSYN090    AAXX  18191 06269 46/67 /3406 10054 20019 40273 52013 333 91009 91111 91207 555 53000;EQDQ01  00462WGOSPDQ02  00572WGOSPDQ03  00362WGOSPD
0200062690999992000011820004+52450+005380FM-12-000399999V0203501N006019999999N0250001N1+00551+00071102781ADDMD1110151+9999OA140199999OA249999999OA359999999REMSYN090    AAXX  18201 06269 46/75 /3506 10055 20007 40278 51015 333 91009 91109 91206 555 53000;EQDQ01  00462WGOSPDQ02  00462WGOSPDQ03  00312WGOSPD
0147062690999992000011822004+52450+005380FM-12-000399999V0203501N005019999999N0230001N1+00511+00101102881ADDMD1110151+9999OA140199999OA249900621REMSYN080    AAXX  18221 06269 46/73 /3505 10051 20010 40288 51015 333 91008 91112 91208;EQDQ01  00412WGOSPD
