0131070390999992000010101004+99999+999999FM-12+999999999V0202301N004019999999N9999999N1+00941+00891102351ADDAA106000091MA1999999101601MD1110061+9999REMSYN060AAXX  0101  07039 36/// /2304 10094 20089 30160 40235 51006;EQDQ01  00002PRCP06
0131070390999992000010102004+99999+999999FM-12+999999999V0202401N004019999999N9999999N1+00931+00881102381ADDAA106000091MA1999999101631MD1210071+9999REMSYN060AAXX  0102  07039 36/// /2404 10093 20088 30163 40238 52007;EQDQ01  00002PRCP06
0122070390999992000010104004+99999+999999FM-12+999999999V0202301N002019999999N9999999N1+00941+00911102391ADDAA101000591MA1999999101641MD1010041+9999REMSYN070AAXX  0104  07039 26/// /2302 10094 20091 30164 40239 50004 333 69965;
0131070390999992000010105004+99999+999999FM-12+999999999V0202501N002019999999N9999999N1+00941+00911102391ADDAA106000091MA1999999101641MD1110011+9999REMSYN060AAXX  0105  07039 36/// /2502 10094 20091 30164 40239 51001;EQDQ01  00002PRCP06
0131070390999992000010107004+99999+999999FM-12+999999999V0202501N004019999999N9999999N1+00951+00921102461ADDAA106000091MA1999999101711MD1310071+9999REMSYN060AAXX  0107  07039 36/// /2504 10095 20092 30171 40246 53007;EQDQ01  00002PRCP06
0131070390999992000010108004+99999+999999FM-12+999999999V0202601N004019999999N9999999N1+00951+00921102511ADDAA106000091MA1999999101761MD1310121+9999REMSYN060AAXX  0108  07039 36/// /2604 10095 20092 30176 40251 53012;EQDQ01  00002PRCP06
0131070390999992000010110004+99999+999999FM-12+999999999V0202401N002019999999N9999999N1+00981+00951102591ADDAA106000091MA1999999101841MD1110131+9999REMSYN060AAXX  0110  07039 36/// /2402 10098 20095 30184 40259 51013;EQDQ01  00002PRCP06
0122070390999992000010111004+99999+999999FM-12+999999999V0202201N002019999999N9999999N1+01021+01001102611ADDAA101000591MA1999999101861MD1110101+9999REMSYN070AAXX  0111  07039 26/// /2202 10102 20100 30186 40261 51010 333 69945;
0131070390999992000010113004+99999+999999FM-12+999999999V0201901N004019999999N9999999N1+01051+01031102571ADDAA106000091MA1999999101821MD1810021+9999REMSYN060AAXX  0113  07039 36/// /1904 10105 20103 30182 40257 58002;EQDQ01  00002PRCP06
0131070390999992000010114004+99999+999999FM-12+999999999V0201901N004019999999N9999999N1+01051+01021102561ADDAA106000091MA1999999101811MD1610051+9999REMSYN060AAXX  0114  07039 36/// /1904 10105 20102 30181 40256 56005;EQDQ01  00002PRCP06
0131070390999992000010116004+99999+999999FM-12+999999999V0201901N004019999999N9999999N1+01011+00991102591ADDAA106000091MA1999999101841MD1310021+9999REMSYN060AAXX  0116  07039 36/// /1904 10101 20099 30184 40259 53002;EQDQ01  00002PRCP06
0131070390999992000010117004+99999+999999FM-12+999999999V0202001N002019999999N9999999N1+00991+00971102631ADDAA106000091MA1999999101881MD1310071+9999REMSYN060AAXX  0117  07039 36/// /2002 10099 20097 30188 40263 53007;EQDQ01  00002PRCP06
0131070390999992000010119004+99999+999999FM-12+999999999V0202101N002019999999N9999999N1+00981+00961102671ADDAA106000091MA1999999101921MD1110081+9999REMSYN060AAXX  0119  07039 36/// /2102 10098 20096 30192 40267 51008;EQDQ01  00002PRCP06
0131070390999992000010120004+99999+999999FM-12+999999999V0202101N002019999999N9999999N1+00991+00971102691ADDAA106000091MA1999999101941MD1310061+9999REMSYN060AAXX  0120  07039 36/// /2102 10099 20097 30194 40269 53006;EQDQ01  00002PRCP06
0131070390999992000010122004+99999+999999FM-12+999999999V0202501N004019999999N9999999N1+01011+00991102701ADDAA106000091MA1999999101951MD1010031+9999REMSYN060AAXX  0122  07039 36/// /2504 10101 20099 30195 40270 50003;EQDQ01  00002PRCP06
0131070390999992000010123004+99999+999999FM-12+999999999V0202401N006019999999N9999999N1+01001+00981102711ADDAA106000091MA1999999101961MD1110021+9999REMSYN060AAXX  0123  07039 36/// /2406 10100 20098 30196 40271 51002;EQDQ01  00002PRCP06
0131070390999992000010202004+99999+999999FM-12+999999999V0202301N004019999999N9999999N1+00961+00941102711ADDAA106000091MA1999999101961MD1510001+9999REMSYN060AAXX  0202  07039 36/// /2304 10096 20094 30196 40271 55000;EQDQ01  00002PRCP06
0131070390999992000010204004+99999+999999FM-12+999999999V0202001N002019999999N9999999N1+00941+00921102681ADDAA106000091MA1999999101931MD1810011+9999REMSYN060AAXX  0204  07039 36/// /2002 10094 20092 30193 40268 58001;EQDQ01  00002PRCP06
0131070390999992000010205004+99999+999999FM-12+999999999V0202101N004019999999N9999999N1+00931+00921102691ADDAA106000091MA1999999101941MD1510021+9999REMSYN060AAXX  0205  07039 36/// /2104 10093 20092 30194 40269 55002;EQDQ01  00002PRCP06
0131070390999992000010207004+99999+999999FM-12+999999999V0202101N002019999999N9999999N1+00951+00931102761ADDAA106000091MA1999999102011MD1310081+9999REMSYN060AAXX  0207  07039 36/// /2102 10095 20093 30201 40276 53008;EQDQ01  00002PRCP06
0122070390999992000010208004+99999+999999FM-12+999999999V0209999C000019999999N9999999N1+00941+00921102791ADDAA101000191MA1999999102041MD1310101+9999REMSYN070AAXX  0208  07039 26/// /0000 10094 20092 30204 40279 53010 333 69925;
0122070390999992000010210004+99999+999999FM-12+999999999V0201701N002019999999N9999999N1+00981+00961102811ADDAA101000591MA1999999102061MD1110051+9999REMSYN070AAXX  0210  07039 26/// /1702 10098 20096 30206 40281 51005 333 69945;
0131070390999992000010211004+99999+999999FM-12+999999999V0201901N002019999999N9999999N1+01031+01011102791ADDAA106000091MA1999999102041MD1010001+9999REMSYN060AAXX  0211  07039 36/// /1902 10103 20101 30204 40279 50000;EQDQ01  00002PRCP06
0131070390999992000010213004+99999+999999FM-12+999999999V0202101N004019999999N9999999N1+01051+01031102731ADDAA106000091MA1999999101981MD1810081+9999REMSYN060AAXX  0213  07039 36/// /2104 10105 20103 30198 40273 58008;EQDQ01  00002PRCP06
0131070390999992000010214004+99999+999999FM-12+999999999V0202101N006019999999N9999999N1+01031+01011102691ADDAA106000091MA1999999101941MD1810101+9999REMSYN060AAXX  0214  07039 36/// /2106 10103 20101 30194 40269 58010;EQDQ01  00002PRCP06
0122070390999992000010216004+99999+999999FM-12+999999999V0202501N004019999999N9999999N1+01011+00991102671ADDAA101000191MA1999999101921MD1610061+9999REMSYN070AAXX  0216  07039 26/// /2504 10101 20099 30192 40267 56006 333 69925;
0122070390999992000010217004+99999+999999FM-12+999999999V0201901N002019999999N9999999N1+01011+00991102681ADDAA101000591MA1999999101931MD1510011+9999REMSYN070AAXX  0217  07039 26/// /1902 10101 20099 30193 40268 55001 333 69945;
0131070390999992000010219004+99999+999999FM-12+999999999V0202101N004019999999N9999999N1+01001+00981102651ADDAA106000091MA1999999101901MD1810021+9999REMSYN060AAXX  0219  07039 36/// /2104 10100 20098 30190 40265 58002;EQDQ01  00002PRCP06
0122070390999992000010220004+99999+999999FM-12+999999999V0202001N004019999999N9999999N1+01021+01001102631ADDAA101000191MA1999999101881MD1610051+9999REMSYN070AAXX  0220  07039 26/// /2004 10102 20100 30188 40263 56005 333 69925;
0131070390999992000010222004+99999+999999FM-12+999999999V0202201N008019999999N9999999N1+01001+00981102601ADDAA106000091MA1999999101851MD1610051+9999REMSYN060AAXX  0222  07039 36/// /2208 10100 20098 30185 40260 56005;EQDQ01  00002PRCP06
0131070390999992000010223004+99999+999999FM-12+999999999V0202301N010019999999N9999999N1+00931+00921102591ADDAA106000091MA1999999101841MD1610041+9999REMSYN060AAXX  0223  07039 36/// /2310 10093 20092 30184 40259 56004;EQDQ01  00002PRCP06
0131070390999992000010301004+99999+999999FM-12+999999999V0202301N008019999999N9999999N1+00941+00821102501ADDAA106000091MA1999999101751MD1810101+9999REMSYN060AAXX  0301  07039 36/// /2308 10094 20082 30175 40250 58010;EQDQ01  00002PRCP06
0131070390999992000010302004+99999+999999FM-12+999999999V0202201N008019999999N9999999N1+00951+00831102481ADDAA106000091MA1999999101731MD1610111+9999REMSYN060AAXX  0302  07039 36/// /2208 10095 20083 30173 40248 56011;EQDQ01  00002PRCP06
0131070390999992000010304004+99999+999999FM-12+999999999V0202101N008019999999N9999999N1+00921+00811102371ADDAA106000091MA1999999101621MD1810131+9999REMSYN060AAXX  0304  07039 36/// /2108 10092 20081 30162 40237 58013;EQDQ01  00002PRCP06
0131070390999992000010305004+99999+999999FM-12+999999999V0202201N008019999999N9999999N1+00931+00841102371ADDAA106000091MA1999999101621MD1610111+9999REMSYN060AAXX  0305  07039 36/// /2208 10093 20084 30162 40237 56011;EQDQ01  00002PRCP06
0131070390999992000010307004+99999+999999FM-12+999999999V0202301N012019999999N9999999N1+00961+00821102331ADDAA106000091MA1999999101581MD1710041+9999REMSYN060AAXX  0307  07039 36/// /2312 10096 20082 30158 40233 57004;EQDQ01  00002PRCP06
0131070390999992000010308004+99999+999999FM-12+999999999V0202201N008019999999N9999999N1+00971+00811102341ADDAA106000091MA1999999101591MD1510031+9999REMSYN060AAXX  0308  07039 36/// /2208 10097 20081 30159 40234 55003;EQDQ01  00002PRCP06
0131070390999992000010310004+99999+999999FM-12+999999999V0202101N014019999999N9999999N1+00981+00811102341ADDAA106000091MA1999999101591MD1110011+9999REMSYN060AAXX  0310  07039 36/// /2114 10098 20081 30159 40234 51001;EQDQ01  00002PRCP06
0131070390999992000010311004+99999+999999FM-12+999999999V0202201N012019999999N9999999N1+00991+00851102301ADDAA106000091MA1999999101551MD1810041+9999REMSYN060AAXX  0311  07039 36/// /2212 10099 20085 30155 40230 58004;EQDQ01  00002PRCP06
0131070390999992000010313004+99999+999999FM-12+999999999V0202101N010019999999N9999999N1+01011+00821102181ADDAA106000091MA1999999101441MD1810151+9999REMSYN060AAXX  0313  07039 36/// /2110 10101 20082 30144 40218 58015;EQDQ01  00002PRCP06
0131070390999992000010314004+99999+999999FM-12+999999999V0202101N008019999999N9999999N1+01001+00831102121ADDAA106000091MA1999999101381MD1810171+9999REMSYN060AAXX  0314  07039 36/// /2108 10100 20083 30138 40212 58017;EQDQ01  00002PRCP06
0131070390999992000010316004+99999+999999FM-12+999999999V0202001N008019999999N9999999N1+00951+00841102041ADDAA106000091MA1999999101291MD1610151+9999REMSYN060AAXX  0316  07039 36/// /2008 10095 20084 30129 40204 56015;EQDQ01  00002PRCP06
0122070390999992000010317004+99999+999999FM-12+999999999V0202001N008019999999N9999999N1+00921+00861101981ADDAA101000591MA1999999101231MD1710151+9999REMSYN070AAXX  0317  07039 26/// /2008 10092 20086 30123 40198 57015 333 69945;
0122070390999992000010319004+99999+999999FM-12+999999999V0202101N010019999999N9999999N1+00941+00861101921ADDAA101000191MA1999999101181MD1610111+9999REMSYN070AAXX  0319  07039 26/// /2110 10094 20086 30118 40192 56011 333 69925;
0101070390999992000010320004+99999+999999FM-12+999999999V0202301N012019999999N9999999N1+00931+00881101871ADDMA1999999101131MD1810101+9999REMSYN060AAXX  0320  07039 26/// /2312 10093 20088 30113 40187 58010;
0122070390999992000010322004+99999+999999FM-12+999999999V0202401N010019999999N9999999N1+00981+00921101851ADDAA101000191MA1999999101111MD1610071+9999REMSYN070AAXX  0322  07039 26/// /2410 10098 20092 30111 40185 56007 333 69925;
0122070390999992000010323004+99999+999999FM-12+999999999V0202301N010019999999N9999999N1+00971+00921101871ADDAA101000591MA1999999101131MD1510001+9999REMSYN070AAXX  0323  07039 26/// /2310 10097 20092 30113 40187 55000 333 69965;
0122070390999992000010401004+99999+999999FM-12+999999999V0202101N010019999999N9999999N1+01011+00981101751ADDAA101000591MA1999999101011MD1810101+9999REMSYN070AAXX  0401  07039 26/// /2110 10101 20098 30101 40175 58010 333 69945;
0122070390999992000010402004+99999+999999FM-12+999999999V0202201N010019999999N9999999N1+01021+00971101701ADDAA101000891MA1999999100961MD1810171+9999REMSYN070AAXX  0402  07039 26/// /2210 10102 20097 30096 40170 58017 333 69985;
0122070390999992000010404004+99999+999999FM-12+999999999V0202101N008019999999N9999999N1+01041+01011101581ADDAA101003091MA1999999100841MD1810171+9999REMSYN070AAXX  0404  07039 26/// /2108 10104 20101 30084 40158 58017 333 60035;
0122070390999992000010405004+99999+999999FM-12+999999999V0202001N012019999999N9999999N1+01061+01031101511ADDAA101001091MA1999999100771MD1810191+9999REMSYN070AAXX  0405  07039 26/// /2012 10106 20103 30077 40151 58019 333 60015;
0131070390999992000010407004+99999+999999FM-12+999999999V0202301N010019999999N9999999N1+01101+01041101471ADDAA106000091MA1999999100731MD1610111+9999REMSYN060AAXX  0407  07039 36/// /2310 10110 20104 30073 40147 56011;EQDQ01  00002PRCP06
0131070390999992000010408004+99999+999999FM-12+999999999V0202501N008019999999N9999999N1+01091+01031101481ADDAA106000091MA1999999100741MD1510031+9999REMSYN060AAXX  0408  07039 36/// /2508 10109 20103 30074 40148 55003;EQDQ01  00002PRCP06
0131070390999992000010410004+99999+999999FM-12+999999999V0202901N010019999999N9999999N1+00951+00791101641ADDAA106000091MA1999999100901MD1310171+9999REMSYN060AAXX  0410  07039 36/// /2910 10095 20079 30090 40164 53017;EQDQ01  00002PRCP06
0131070390999992000010411004+99999+999999FM-12+999999999V0202601N006019999999N9999999N1+01051+00861101631ADDAA106000091MA1999999100891MD1010151+9999REMSYN060AAXX  0411  07039 36/// /2606 10105 20086 30089 40163 50015;EQDQ01  00002PRCP06
0131070390999992000010413004+99999+999999FM-12+999999999V0202601N010019999999N9999999N1+01111+00701101571ADDAA106000091MA1999999100831MD1710071+9999REMSYN060AAXX  0413  07039 36/// /2610 10111 20070 30083 40157 57007;EQDQ01  00002PRCP06
0131070390999992000010414004+99999+999999FM-12+999999999V0202601N010019999999N9999999N1+01071+00661101581ADDAA106000091MA1999999100841MD1510051+9999REMSYN060AAXX  0414  07039 36/// /2610 10107 20066 30084 40158 55005;EQDQ01  00002PRCP06
0131070390999992000010416004+99999+999999FM-12+999999999V0202701N010019999999N9999999N1+00931+00601101631ADDAA106000091MA1999999100891MD1310061+9999REMSYN060AAXX  0416  07039 36/// /2710 10093 20060 30089 40163 53006;EQDQ01  00002PRCP06
0122070390999992000010417004+99999+999999FM-12+999999999V0202901N010019999999N9999999N1+00911+00531101731ADDAA101000191MA1999999100991MD1310151+9999REMSYN070AAXX  0417  07039 26/// /2910 10091 20053 30099 40173 53015 333 69925;
0131070390999992000010419004+99999+999999FM-12+999999999V0203101N008019999999N9999999N1+00781+00471101931ADDAA106000091MA1999999101181MD1210291+9999REMSYN060AAXX  0419  07039 36/// /3108 10078 20047 30118 40193 52029;EQDQ01  00002PRCP06
0131070390999992000010420004+99999+999999FM-12+999999999V0202401N002019999999N9999999N1+00661+00491102021ADDAA106000091MA1999999101271MD1210281+9999REMSYN060AAXX  0420  07039 36/// /2402 10066 20049 30127 40202 52028;EQDQ01  00002PRCP06
0131070390999992000010422004+99999+999999FM-12+999999999V0202801N002019999999N9999999N1+00521+00451102091ADDAA106000091MA1999999101331MD1110151+9999REMSYN060AAXX  0422  07039 36/// /2802 10052 20045 30133 40209 51015;EQDQ01  00002PRCP06
0131070390999992000010423004+99999+999999FM-12+999999999V0201801N002019999999N9999999N1+00551+00451102081ADDAA106000091MA1999999101321MD1010051+9999REMSYN060AAXX  0423  07039 36/// /1802 10055 20045 30132 40208 50005;EQDQ01  00002PRCP06
0131070390999992000010501004+99999+999999FM-12+999999999V0201501N002019999999N9999999N1+00331+00291102081ADDAA106000091MA1999999101321MD1610011+9999REMSYN060AAXX  0501  07039 36/// /1502 10033 20029 30132 40208 56001;EQDQ01  00002PRCP06
0131070390999992000010502004+99999+999999FM-12+999999999V0209999C000019999999N9999999N1+00311+00281102051ADDAA106000091MA1999999101291MD1810031+9999REMSYN060AAXX  0502  07039 36/// /0000 10031 20028 30129 40205 58003;EQDQ01  00002PRCP06
0131070390999992000010505004+99999+999999FM-12+999999999V0201801N002019999999N9999999N1+00401+00391101941ADDAA106000091MA1999999101181MD1610111+9999REMSYN060AAXX  0505  07039 36/// /1802 10040 20039 30118 40194 56011;EQDQ01  00002PRCP06
0131070390999992000010507004+99999+999999FM-12+999999999V0201901N004019999999N9999999N1+00631+00621101841ADDAA106000091MA1999999101091MD1810121+9999REMSYN060AAXX  0507  07039 36/// /1904 10063 20062 30109 40184 58012;EQDQ01  00002PRCP06
0131070390999992000010508004+99999+999999FM-12+999999999V0202201N006019999999N9999999N1+00681+00671101851ADDAA106000091MA1999999101101MD1510081+9999REMSYN060AAXX  0508  07039 36/// /2206 10068 20067 30110 40185 55008;EQDQ01  00002PRCP06
0122070390999992000010510004+99999+999999FM-12+999999999V0201901N008019999999N9999999N1+00781+00721101841ADDAA101000191MA1999999101091MD1010001+9999REMSYN070AAXX  0510  07039 26/// /1908 10078 20072 30109 40184 50000 333 69925;
0131070390999992000010511004+99999+999999FM-12+999999999V0202001N010019999999N9999999N1+00811+00751101821ADDAA106000091MA1999999101071MD1810031+9999REMSYN060AAXX  0511  07039 36/// /2010 10081 20075 30107 40182 58003;EQDQ01  00002PRCP06
0131070390999992000010513004+99999+999999FM-12+999999999V0201901N010019999999N9999999N1+01061+00801101591ADDAA106000091MA1999999100851MD1810241+9999REMSYN060AAXX  0513  07039 36/// /1910 10106 20080 30085 40159 58024;EQDQ01  00002PRCP06
0131070390999992000010514004+99999+999999FM-12+999999999V0201901N010019999999N9999999N1+01111+00741101491ADDAA106000091MA1999999100751MD1810321+9999REMSYN060AAXX  0514  07039 36/// /1910 10111 20074 30075 40149 58032;EQDQ01  00002PRCP06
0131070390999992000010516004+99999+999999FM-12+999999999V0201801N010019999999N9999999N1+01051+00771101361ADDAA106000091MA1999999100621MD1610231+9999REMSYN060AAXX  0516  07039 36/// /1810 10105 20077 30062 40136 56023;EQDQ01  00002PRCP06
0131070390999992000010517004+99999+999999FM-12+999999999V0201801N014019999999N9999999N1+01031+00771101351ADDAA106000091MA1999999100611MD1610141+9999REMSYN060AAXX  0517  07039 36/// /1814 10103 20077 30061 40135 56014;EQDQ01  00002PRCP06
0131070390999992000010519004+99999+999999FM-12+999999999V0201901N012019999999N9999999N1+00991+00781101341ADDAA106000091MA1999999100601MD1810021+9999REMSYN060AAXX  0519  07039 36/// /1912 10099 20078 30060 40134 58002;EQDQ01  00002PRCP06
0131070390999992000010522004+99999+999999FM-12+999999999V0201901N012019999999N9999999N1+00951+00781101331ADDAA106000091MA1999999100591MD1810011+9999REMSYN060AAXX  0522  07039 36/// /1912 10095 20078 30059 40133 58001;EQDQ01  00002PRCP06
0131070390999992000010601004+99999+999999FM-12+999999999V0202001N010019999999N9999999N1+00961+00801101241ADDAA106000091MA1999999100501MD1810091+9999REMSYN060AAXX  0601  07039 36/// /2010 10096 20080 30050 40124 58009;EQDQ01  00002PRCP06
0131070390999992000010602004+99999+999999FM-12+999999999V0202001N012019999999N9999999N1+00981+00821101231ADDAA106000091MA1999999100491MD1610091+9999REMSYN060AAXX  0602  07039 36/// /2012 10098 20082 30049 40123 56009;EQDQ01  00002PRCP06
0131070390999992000010604004+99999+999999FM-12+999999999V0201901N008019999999N9999999N1+01001+00831101221ADDAA106000091MA1999999100481MD1710021+9999REMSYN060AAXX  0604  07039 36/// /1908 10100 20083 30048 40122 57002;EQDQ01  00002PRCP06
0131070390999992000010605004+99999+999999FM-12+999999999V0202101N008019999999N9999999N1+00951+00811101221ADDAA106000091MA1999999100481MD1710011+9999REMSYN060AAXX  0605  07039 36/// /2108 10095 20081 30048 40122 57001;EQDQ01  00002PRCP06
0131070390999992000010607004+99999+999999FM-12+999999999V0202001N008019999999N9999999N1+00971+00861101251ADDAA106000091MA1999999100511MD1310031+9999REMSYN060AAXX  0607  07039 36/// /2008 10097 20086 30051 40125 53003;EQDQ01  00002PRCP06
0122070390999992000010608004+99999+999999FM-12+999999999V0202001N008019999999N9999999N1+00971+00881101331ADDAA101000891MA1999999100591MD1310111+9999REMSYN070AAXX  0608  07039 26/// /2008 10097 20088 30059 40133 53011 333 69985;
0122070390999992000010610004+99999+999999FM-12+999999999V0202201N006019999999N9999999N1+00871+00841101541ADDAA101001091MA1999999100801MD1210291+9999REMSYN070AAXX  0610  07039 26/// /2206 10087 20084 30080 40154 52029 333 60015;
0122070390999992000010611004+99999+999999FM-12+999999999V0202401N006019999999N9999999N1+00901+00851101621ADDAA101001091MA1999999100881MD1110291+9999REMSYN070AAXX  0611  07039 26/// /2406 10090 20085 30088 40162 51029 333 60015;
0131070390999992000010613004+99999+999999FM-12+999999999V0202401N006019999999N9999999N1+00951+00861101661ADDAA106000091MA1999999100921MD1110121+9999REMSYN060AAXX  0613  07039 36/// /2406 10095 20086 30092 40166 51012;EQDQ01  00002PRCP06
0131070390999992000010614004+99999+999999FM-12+999999999V0202301N006019999999N9999999N1+00961+00871101701ADDAA106000091MA1999999100961MD1310081+9999REMSYN060AAXX  0614  07039 36/// /2306 10096 20087 30096 40170 53008;EQDQ01  00002PRCP06
0131070390999992000010616004+99999+999999FM-12+999999999V0202701N006019999999N9999999N1+00991+00821101831ADDAA106000091MA1999999101091MD1310171+9999REMSYN060AAXX  0616  07039 36/// /2706 10099 20082 30109 40183 53017;EQDQ01  00002PRCP06
0122070390999992000010617004+99999+999999FM-12+999999999V0202601N006019999999N9999999N1+00901+00781101941ADDAA101000191MA1999999101191MD1310231+9999REMSYN070AAXX  0617  07039 26/// /2606 10090 20078 30119 40194 53023 333 69925;
0122070390999992000010620004+99999+999999FM-12+999999999V0202901N004019999999N9999999N1+00631+00591102161ADDAA101000191MA1999999101401MD1310211+9999REMSYN070AAXX  0620  07039 26/// /2904 10063 20059 30140 40216 53021 333 69925;
0131070390999992000010622004+99999+999999FM-12+999999999V0209999C000019999999N9999999N1+00381+00351102251ADDAA106000091MA1999999101491MD1110171+9999REMSYN060AAXX  0622  07039 36/// /0000 10038 20035 30149 40225 51017;EQDQ01  00002PRCP06
0131070390999992000010623004+99999+999999FM-12+999999999V0202201N002019999999N9999999N1+00221+00191102311ADDAA106000091MA1999999101541MD1310141+9999REMSYN060AAXX  0623  07039 36/// /2202 10022 20019 30154 40231 53014;EQDQ01  00002PRCP06
0131070390999992000010701004+99999+999999FM-12+999999999V0202301N004019999999N9999999N1+00421+00391102311ADDAA106000091MA1999999101551MD1010061+9999REMSYN060AAXX  0701  07039 36/// /2304 10042 20039 30155 40231 50006;EQDQ01  00002PRCP06
0131070390999992000010702004+99999+999999FM-12+999999999V0209999C000019999999N9999999N1+00101+00071102341ADDAA106000091MA1999999101571MD1210031+9999REMSYN060AAXX  0702  07039 36/// /0000 10010 20007 30157 40234 52003;EQDQ01  00002PRCP06
0131070390999992000010704004+99999+999999FM-12+999999999V0201701N002019999999N9999999N1+00251+00241102331ADDAA106000091MA1999999101561MD1010011+9999REMSYN060AAXX  0704  07039 36/// /1702 10025 20024 30156 40233 50001;EQDQ01  00002PRCP06
0122070390999992000010705004+99999+999999FM-12+999999999V0202201N004019999999N9999999N1+00511+00501102301ADDAA101000191MA1999999101541MD1810031+9999REMSYN070AAXX  0705  07039 26/// /2204 10051 20050 30154 40230 58003 333 69925;
0131070390999992000010707004+99999+999999FM-12+999999999V0202101N004019999999N9999999N1+00661+00651102311ADDAA106000091MA1999999101551MD1610011+9999REMSYN060AAXX  0707  07039 36/// /2104 10066 20065 30155 40231 56001;EQDQ01  00002PRCP06
0131070390999992000010708004+99999+999999FM-12+999999999V0201701N004019999999N9999999N1+00641+00631102321ADDAA106000091MA1999999101561MD1210021+9999REMSYN060AAXX  0708  07039 36/// /1704 10064 20063 30156 40232 52002;EQDQ01  00002PRCP06
0131070390999992000010710004+99999+999999FM-12+999999999V0201901N006019999999N9999999N1+00681+00671102311ADDAA106000091MA1999999101561MD1110011+9999REMSYN060AAXX  0710  07039 36/// /1906 10068 20067 30156 40231 51001;EQDQ01  00002PRCP06
0131070390999992000010713004+99999+999999FM-12+999999999V0202301N010019999999N9999999N1+00871+00681102091ADDAA106000091MA1999999101341MD1610221+9999REMSYN060AAXX  0713  07039 36/// /2310 10087 20068 30134 40209 56022;EQDQ01  00002PRCP06
0131070390999992000010714004+99999+999999FM-12+999999999V0202301N008019999999N9999999N1+00861+00671102031ADDAA106000091MA1999999101281MD1610201+9999REMSYN060AAXX  0714  07039 36/// /2308 10086 20067 30128 40203 56020;EQDQ01  00002PRCP06
0131070390999992000010716004+99999+999999FM-12+999999999V0202001N006019999999N9999999N1+00801+00681101931ADDAA106000091MA1999999101181MD1810161+9999REMSYN060AAXX  0716  07039 36/// /2006 10080 20068 30118 40193 58016;EQDQ01  00002PRCP06
0131070390999992000010717004+99999+999999FM-12+999999999V0202001N008019999999N9999999N1+00791+00681101881ADDAA106000091MA1999999101131MD1810151+9999REMSYN060AAXX  0717  07039 36/// /2008 10079 20068 30113 40188 58015;EQDQ01  00002PRCP06
0131070390999992000010719004+99999+999999FM-12+999999999V0202001N006019999999N9999999N1+00821+00731101821ADDAA106000091MA1999999101071MD1610111+9999REMSYN060AAXX  0719  07039 36/// /2006 10082 20073 30107 40182 56011;EQDQ01  00002PRCP06
0131070390999992000010720004+99999+999999FM-12+999999999V0202101N010019999999N9999999N1+00861+00751101811ADDAA106000091MA1999999101061MD1610071+9999REMSYN060AAXX  0720  07039 36/// /2110 10086 20075 30106 40181 56007;EQDQ01  00002PRCP06
0131070390999992000010722004+99999+999999FM-12+999999999V0202101N008019999999N9999999N1+00891+00741101731ADDAA106000091MA1999999100991MD1810081+9999REMSYN060AAXX  0722  07039 36/// /2108 10089 20074 30099 40173 58008;EQDQ01  00002PRCP06
0131070390999992000010723004+99999+999999FM-12+999999999V0202101N010019999999N9999999N1+00921+00701101691ADDAA106000091MA1999999100951MD1710111+9999REMSYN060AAXX  0723  07039 36/// /2110 10092 20070 30095 40169 57011;EQDQ01  00002PRCP06
0131070390999992000010801004+99999+999999FM-12+999999999V0202201N010019999999N9999999N1+00911+00741101651ADDAA106000091MA1999999100911MD1610081+9999REMSYN060AAXX  0801  07039 36/// /2210 10091 20074 30091 40165 56008;EQDQ01  00002PRCP06
0131070390999992000010802004+99999+999999FM-12+999999999V0202301N010019999999N9999999N1+00921+00751101621ADDAA106000091MA1999999100881MD1810071+9999REMSYN060AAXX  0802  07039 36/// /2310 10092 20075 30088 40162 58007;EQDQ01  00002PRCP06
0122070390999992000010804004+99999+999999FM-12+999999999V0202201N008019999999N9999999N1+00871+00831101611ADDAA101000591MA1999999100871MD1610041+9999REMSYN070AAXX  0804  07039 26/// /2208 10087 20083 30087 40161 56004 333 69945;
0131070390999992000010807004+99999+999999FM-12+999999999V0202701N002019999999N9999999N1+00751+00681101781ADDAA106000091MA1999999101031MD1310161+9999REMSYN060AAXX  0807  07039 36/// /2702 10075 20068 30103 40178 53016;EQDQ01  00002PRCP06
0131070390999992000010808004+99999+999999FM-12+999999999V0202601N002019999999N9999999N1+00751+00681101851ADDAA106000091MA1999999101101MD1310211+9999REMSYN060AAXX  0808  07039 36/// /2602 10075 20068 30110 40185 53021;EQDQ01  00002PRCP06
0131070390999992000010810004+99999+999999FM-12+999999999V0202501N002019999999N9999999N1+00831+00801101991ADDAA106000091MA1999999101241MD1110211+9999REMSYN060AAXX  0810  07039 36/// /2502 10083 20080 30124 40199 51021;EQDQ01  00002PRCP06
0131070390999992000010811004+99999+999999FM-12+999999999V0209999C000019999999N9999999N1+00881+00831102001ADDAA106000091MA1999999101251MD1110151+9999REMSYN060AAXX  0811  07039 36/// /0000 10088 20083 30125 40200 51015;EQDQ01  00002PRCP06
0131070390999992000010813004+99999+999999FM-12+999999999V0203101N008019999999N9999999N1+01021+00521101981ADDAA106000091MA1999999101241MD1010001+9999REMSYN060AAXX  0813  07039 36/// /3108 10102 20052 30124 40198 50000;EQDQ01  00002PRCP06
0131070390999992000010814004+99999+999999FM-12+999999999V0203101N006019999999N9999999N1+01001+00261101991ADDAA106000091MA1999999101251MD1510001+9999REMSYN060AAXX  0814  07039 36/// /3106 10100 20026 30125 40199 55000;EQDQ01  00002PRCP06
0131070390999992000010816004+99999+999999FM-12+999999999V0202901N002019999999N9999999N1+00781+00251102091ADDAA106000091MA1999999101341MD1310101+9999REMSYN060AAXX  0816  07039 36/// /2902 10078 20025 30134 40209 53010;EQDQ01  00002PRCP06
0131070390999992000010817004+99999+999999FM-12+999999999V0200101N002019999999N9999999N1+00611+00311102151ADDAA106000091MA1999999101391MD1210141+9999REMSYN060AAXX  0817  07039 36/// /0102 10061 20031 30139 40215 52014;EQDQ01  00002PRCP06
0131070390999992000010819004+99999+999999FM-12+999999999V0202901N002019999999N9999999N1+00271+00211102241ADDAA106000091MA1999999101471MD1110131+9999REMSYN060AAXX  0819  07039 36/// /2902 10027 20021 30147 40224 51013;EQDQ01  00002PRCP06
0131070390999992000010820004+99999+999999FM-12+999999999V0203201N002019999999N9999999N1+00221+00191102251ADDAA106000091MA1999999101481MD1110091+9999REMSYN060AAXX  0820  07039 36/// /3202 10022 20019 30148 40225 51009;EQDQ01  00002PRCP06
0122070390999992000010822004+99999+999999FM-12+999999999V0203401N002019999999N9999999N1+00321+00281102331ADDAA101000891MA1999999101561MD1310091+9999REMSYN070AAXX  0822  07039 26/// /3402 10032 20028 30156 40233 53009 333 69985;
0131070390999992000010823004+99999+999999FM-12+999999999V0202701N004019999999N9999999N1+00301+00271102331ADDAA106000091MA1999999101561MD1110081+9999REMSYN060AAXX  0823  07039 36/// /2704 10030 20027 30156 40233 51008;EQDQ01  00002PRCP06
0131070390999992000010901004+99999+999999FM-12+999999999V0203301N002019999999N9999999N1+00071+00041102311ADDAA106000091MA1999999101541MD1810021+9999REMSYN060AAXX  0901  07039 36/// /3302 10007 20004 30154 40231 58002;EQDQ01  00002PRCP06
0131070390999992000010902004+99999+999999FM-12+999999999V0202801N002019999999N9999999N1+00051+00021102371ADDAA106000091MA1999999101601MD1310041+9999REMSYN060AAXX  0902  07039 36/// /2802 10005 20002 30160 40237 53004;EQDQ01  00002PRCP06
0131070390999992000010904004+99999+999999FM-12+999999999V0203201N004019999999N9999999N1+00031+00021102481ADDAA106000091MA1999999101701MD1110161+9999REMSYN060AAXX  0904  07039 36/// /3204 10003 20002 30170 40248 51016;EQDQ01  00002PRCP06
0131070390999992000010905004+99999+999999FM-12+999999999V0203201N004019999999N9999999N1-00031-00041102511ADDAA106000091MA1999999101731MD1110131+9999REMSYN060AAXX  0905  07039 36/// /3204 11003 21004 30173 40251 51013;EQDQ01  00002PRCP06
0131070390999992000010907004+99999+999999FM-12+999999999V0203301N004019999999N9999999N1+00091+00061102631ADDAA106000091MA1999999101861MD1310161+9999REMSYN060AAXX  0907  07039 36/// /3304 10009 20006 30186 40263 53016;EQDQ01  00002PRCP06
0131070390999992000010908004+99999+999999FM-12+999999999V0203601N002019999999N9999999N1+00091+00061102721ADDAA106000091MA1999999101941MD1310211+9999REMSYN060AAXX  0908  07039 36/// /3602 10009 20006 30194 40272 53021;EQDQ01  00002PRCP06
0131070390999992000010910004+99999+999999FM-12+999999999V0203201N004019999999N9999999N1+00371+00311102851ADDAA106000091MA1999999102081MD1110221+9999REMSYN060AAXX  0910  07039 36/// /3204 10037 20031 30208 40285 51022;EQDQ01  00002PRCP06
0122070390999992000010911004+99999+999999FM-12+999999999V0203501N006019999999N9999999N1+00671+00261102881ADDAA101000191MA1999999102121MD1110181+9999REMSYN070AAXX  0911  07039 26/// /3506 10067 20026 30212 40288 51018 333 69925;
0131070390999992000010913004+99999+999999FM-12+999999999V0203501N010019999999N9999999N1+00831+00211102911ADDAA106000091MA1999999102151MD1110071+9999REMSYN060AAXX  0913  07039 36/// /3510 10083 20021 30215 40291 51007;EQDQ01  00002PRCP06
0131070390999992000010914004+99999+999999FM-12+999999999V0203501N006019999999N9999999N1+00771+00151102931ADDAA106000091MA1999999102171MD1110051+9999REMSYN060AAXX  0914  07039 36/// /3506 10077 20015 30217 40293 51005;EQDQ01  00002PRCP06
0131070390999992000010916004+99999+999999FM-12+999999999V0203601N004019999999N9999999N1+00631+00181103081ADDAA106000091MA1999999102321MD1310171+9999REMSYN060AAXX  0916  07039 36/// /3604 10063 20018 30232 40308 53017;EQDQ01  00002PRCP06
0131070390999992000010917004+99999+999999FM-12+999999999V0203401N002019999999N9999999N1+00431+00151103151ADDAA106000091MA1999999102381MD1210211+9999REMSYN060AAXX  0917  07039 36/// /3402 10043 20015 30238 40315 52021;EQDQ01  00002PRCP06
0131070390999992000010919004+99999+999999FM-12+999999999V0203401N002019999999N9999999N1+00151+00051103261ADDAA106000091MA1999999102481MD1210161+9999REMSYN060AAXX  0919  07039 36/// /3402 10015 20005 30248 40326 52016;EQDQ01  00002PRCP06
0131070390999992000010920004+99999+999999FM-12+999999999V0203401N002019999999N9999999N1+00011-00051103341ADDAA106000091MA1999999102561MD1310181+9999REMSYN060AAXX  0920  07039 36/// /3402 10001 21005 30256 40334 53018;EQDQ01  00002PRCP06
0131070390999992000010922004+99999+999999FM-12+999999999V0203501N002019999999N9999999N1-00061-00091103411ADDAA106000091MA1999999102631MD1110151+9999REMSYN060AAXX  0922  07039 36/// /3502 11006 21009 30263 40341 51015;EQDQ01  00002PRCP06
0131070390999992000010923004+99999+999999FM-12+999999999V0203601N002019999999N9999999N1-00151-00181103451ADDAA106000091MA1999999102661MD1110101+9999REMSYN060AAXX  0923  07039 36/// /3602 11015 21018 30266 40345 51010;EQDQ01  00002PRCP06
0131070390999992000011001004+99999+999999FM-12+999999999V0203201N004019999999N9999999N1-00151-00181103491ADDAA106000091MA1999999102701MD1210071+9999REMSYN060AAXX  1001  07039 36/// /3204 11015 21018 30270 40349 52007;EQDQ01  00002PRCP06
0131070390999992000011002004+99999+999999FM-12+999999999V0203601N004019999999N9999999N1-00191-00221103511ADDAA106000091MA1999999102721MD1310061+9999REMSYN060AAXX  1002  07039 36/// /3604 11019 21022 30272 40351 53006;EQDQ01  00002PRCP06
0131070390999992000011004004+99999+999999FM-12+999999999V0200101N002019999999N9999999N1-00221-00251103541ADDAA106000091MA1999999102751MD1110051+9999REMSYN060AAXX  1004  07039 36/// /0102 11022 21025 30275 40354 51005;EQDQ01  00002PRCP06
0131070390999992000011005004+99999+999999FM-12+999999999V0203601N004019999999N9999999N1-00231-00261103561ADDAA106000091MA1999999102771MD1110051+9999REMSYN060AAXX  1005  07039 36/// /3604 11023 21026 30277 40356 51005;EQDQ01  00002PRCP06
0131070390999992000011007004+99999+999999FM-12+999999999V0203601N002019999999N9999999N1-00271-00301103621ADDAA106000091MA1999999102831MD1210081+9999REMSYN060AAXX  1007  07039 36/// /3602 11027 21030 30283 40362 52008;EQDQ01  00002PRCP06
0131070390999992000011010004+99999+999999FM-12+999999999V0209999C000019999999N9999999N1+00211+00181103741ADDAA106000091MA1999999102961MD1110131+9999REMSYN060AAXX  1010  07039 36/// /0000 10021 20018 30296 40374 51013;EQDQ01  00002PRCP06
0122070390999992000011011004+99999+999999FM-12+999999999V0201801N002019999999N9999999N1+00551+00301103731ADDAA101000191MA1999999102961MD1110061+9999REMSYN070AAXX  1011  07039 26/// /1802 10055 20030 30296 40373 51006 333 69925;
0131070390999992000011013004+99999+999999FM-12+999999999V0202301N006019999999N9999999N1+00831+00471103641ADDAA106000091MA1999999102881MD1810081+9999REMSYN060AAXX  1013  07039 36/// /2306 10083 20047 30288 40364 58008;EQDQ01  00002PRCP06
0131070390999992000011014004+99999+999999FM-12+999999999V0202401N006019999999N9999999N1+00781+00461103591ADDAA106000091MA1999999102831MD1810131+9999REMSYN060AAXX  1014  07039 36/// /2406 10078 20046 30283 40359 58013;EQDQ01  00002PRCP06
0131070390999992000011016004+99999+999999FM-12+999999999V0202001N004019999999N9999999N1+00591+00411103631ADDAA106000091MA1999999102861MD1510021+9999REMSYN060AAXX  1016  07039 36/// /2004 10059 20041 30286 40363 55002;EQDQ01  00002PRCP06
0131070390999992000011017004+99999+999999FM-12+999999999V0202101N004019999999N9999999N1+00491+00371103661ADDAA106000091MA1999999102891MD1310061+9999REMSYN060AAXX  1017  07039 36/// /2104 10049 20037 30289 40366 53006;EQDQ01  00002PRCP06
0131070390999992000011019004+99999+999999FM-12+999999999V0202201N004019999999N9999999N1+00321+00231103681ADDAA106000091MA1999999102901MD1110041+9999REMSYN060AAXX  1019  07039 36/// /2204 10032 20023 30290 40368 51004;EQDQ01  00002PRCP06
0131070390999992000011020004+99999+999999FM-12+999999999V0202201N002019999999N9999999N1+00261+00171103671ADDAA106000091MA1999999102891MD1010001+9999REMSYN060AAXX  1020  07039 36/// /2202 10026 20017 30289 40367 50000;EQDQ01  00002PRCP06
0131070390999992000011022004+99999+999999FM-12+999999999V0202101N002019999999N9999999N1+00191+00151103701ADDAA106000091MA1999999102921MD1310021+9999REMSYN060AAXX  1022  07039 36/// /2102 10019 20015 30292 40370 53002;EQDQ01  00002PRCP06
0131070390999992000011023004+99999+999999FM-12+999999999V0202101N002019999999N9999999N1+00221+00181103701ADDAA106000091MA1999999102921MD1110031+9999REMSYN060AAXX  1023  07039 36/// /2102 10022 20018 30292 40370 51003;EQDQ01  00002PRCP06
0131070390999992000011101004+99999+999999FM-12+999999999V0209999C000019999999N9999999N1+00141+00111103691ADDAA106000091MA1999999102911MD1810011+9999REMSYN060AAXX  1101  07039 36/// /0000 10014 20011 30291 40369 58001;EQDQ01  00002PRCP06
0131070390999992000011102004+99999+999999FM-12+999999999V0201701N004019999999N9999999N1+00151+00141103681ADDAA106000091MA1999999102901MD1810021+9999REMSYN060AAXX  1102  07039 36/// /1704 10015 20014 30290 40368 58002;EQDQ01  00002PRCP06
0131070390999992000011104004+99999+999999FM-12+999999999V0201801N002019999999N9999999N1+00091+00061103681ADDAA106000091MA1999999102901MD1810011+9999REMSYN060AAXX  1104  07039 36/// /1802 10009 20006 30290 40368 58001;EQDQ01  00002PRCP06
0131070390999992000011105004+99999+999999FM-12+999999999V0201901N004019999999N9999999N1+00041+00031103671ADDAA106000091MA1999999102891MD1810011+9999REMSYN060AAXX  1105  07039 36/// /1904 10004 20003 30289 40367 58001;EQDQ01  00002PRCP06
0131070390999992000011107004+99999+999999FM-12+999999999V0202001N002019999999N9999999N1+00171+00161103711ADDAA106000091MA1999999102931MD1310031+9999REMSYN060AAXX  1107  07039 36/// /2002 10017 20016 30293 40371 53003;EQDQ01  00002PRCP06
0122070390999992000011108004+99999+999999FM-12+999999999V0202001N004019999999N9999999N1+00131+00121103701ADDAA101000191MA1999999102921MD1010031+9999REMSYN070AAXX  1108  07039 26/// /2004 10013 20012 30292 40370 50003 333 69925;
0131070390999992000011110004+99999+999999FM-12+999999999V0202001N002019999999N9999999N1+00271+00261103731ADDAA106000091MA1999999102951MD1310021+9999REMSYN060AAXX  1110  07039 36/// /2002 10027 20026 30295 40373 53002;EQDQ01  00002PRCP06
0131070390999992000011111004+99999+999999FM-12+999999999V0209999C000019999999N9999999N1+00411+00401103721ADDAA106000091MA1999999102951MD1110031+9999REMSYN060AAXX  1111  07039 36/// /0000 10041 20040 30295 40372 51003;EQDQ01  00002PRCP06
0131070390999992000011113004+99999+999999FM-12+999999999V0202301N008019999999N9999999N1+00531+00381103631ADDAA106000091MA1999999102861MD1810091+9999REMSYN060AAXX  1113  07039 36/// /2308 10053 20038 30286 40363 58009;EQDQ01  00002PRCP06
0131070390999992000011114004+99999+999999FM-12+999999999V0202301N008019999999N9999999N1+00531+00381103571ADDAA106000091MA1999999102801MD1810151+9999REMSYN060AAXX  1114  07039 36/// /2308 10053 20038 30280 40357 58015;EQDQ01  00002PRCP06
0131070390999992000011116004+99999+999999FM-12+999999999V0202401N004019999999N9999999N1+00391+00271103531ADDAA106000091MA1999999102761MD1610101+9999REMSYN060AAXX  1116  07039 36/// /2404 10039 20027 30276 40353 56010;EQDQ01  00002PRCP06
0131070390999992000011117004+99999+999999FM-12+999999999V0202201N006019999999N9999999N1+00331+00231103501ADDAA106000091MA1999999102731MD1610071+9999REMSYN060AAXX  1117  07039 36/// /2206 10033 20023 30273 40350 56007;EQDQ01  00002PRCP06
0131070390999992000011119004+99999+999999FM-12+999999999V0202001N002019999999N9999999N1+00191+00121103531ADDAA106000091MA1999999102751MD1610011+9999REMSYN060AAXX  1119  07039 36/// /2002 10019 20012 30275 40353 56001;EQDQ01  00002PRCP06
0131070390999992000011120004+99999+999999FM-12+999999999V0202001N002019999999N9999999N1+00201+00141103511ADDAA106000091MA1999999102731MD1010001+9999REMSYN060AAXX  1120  07039 36/// /2002 10020 20014 30273 40351 50000;EQDQ01  00002PRCP06
0131070390999992000011122004+99999+999999FM-12+999999999V0202401N004019999999N9999999N1+00211+00171103441ADDAA106000091MA1999999102661MD1810091+9999REMSYN060AAXX  1122  07039 36/// /2404 10021 20017 30266 40344 58009;EQDQ01  00002PRCP06
0131070390999992000011123004+99999+999999FM-12+999999999V0202401N006019999999N9999999N1+00221+00181103421ADDAA106000091MA1999999102641MD1710091+9999REMSYN060AAXX  1123  07039 36/// /2406 10022 20018 30264 40342 57009;EQDQ01  00002PRCP06
0131070390999992000011201004+99999+999999FM-12+999999999V0202101N004019999999N9999999N1+00211+00171103311ADDAA106000091MA1999999102531MD1810131+9999REMSYN060AAXX  1201  07039 36/// /2104 10021 20017 30253 40331 58013;EQDQ01  00002PRCP06
0131070390999992000011202004+99999+999999FM-12+999999999V0202101N004019999999N9999999N1+00171+00131103241ADDAA106000091MA1999999102461MD1810181+9999REMSYN060AAXX  1202  07039 36/// /2104 10017 20013 30246 40324 58018;EQDQ01  00002PRCP06
0131070390999992000011204004+99999+999999FM-12+999999999V0201801N004019999999N9999999N1+00121+00081103131ADDAA106000091MA1999999102351MD1710181+9999REMSYN060AAXX  1204  07039 36/// /1804 10012 20008 30235 40313 57018;EQDQ01  00002PRCP06
0131070390999992000011205004+99999+999999FM-12+999999999V0201701N004019999999N9999999N1+00071+00041103081ADDAA106000091MA1999999102301MD1810161+9999REMSYN060AAXX  1205  07039 36/// /1704 10007 20004 30230 40308 58016;EQDQ01  00002PRCP06
0131070390999992000011207004+99999+999999FM-12+999999999V0201901N004019999999N9999999N1+00091+00061103031ADDAA106000091MA1999999102251MD1610101+9999REMSYN060AAXX  1207  07039 36/// /1904 10009 20006 30225 40303 56010;EQDQ01  00002PRCP06
0131070390999992000011208004+99999+999999FM-12+999999999V0201901N006019999999N9999999N1+00031+00001102991ADDAA106000091MA1999999102211MD1810091+9999REMSYN060AAXX  1208  07039 36/// /1906 10003 20000 30221 40299 58009;EQDQ01  00002PRCP06
0131070390999992000011210004+99999+999999FM-12+999999999V0202001N006019999999N9999999N1+00071+00041102951ADDAA106000091MA1999999102171MD1710081+9999REMSYN060AAXX  1210  07039 36/// /2006 10007 20004 30217 40295 57008;EQDQ01  00002PRCP06
0131070390999992000011213004+99999+999999FM-12+999999999V0202001N008019999999N9999999N1+00051-00021102741ADDAA106000091MA1999999101961MD1810211+9999REMSYN060AAXX  1213  07039 36/// /2008 10005 21002 30196 40274 58021;EQDQ01  00002PRCP06
0131070390999992000011214004+99999+999999FM-12+999999999V0202201N006019999999N9999999N1+00071-00031102661ADDAA106000091MA1999999101881MD1610291+9999REMSYN060AAXX  1214  07039 36/// /2206 10007 21003 30188 40266 56029;EQDQ01  00002PRCP06
0131070390999992000011216004+99999+999999FM-12+999999999V0202001N008019999999N9999999N1+00051-00051102551ADDAA106000091MA1999999101771MD1610191+9999REMSYN060AAXX  1216  07039 36/// /2008 10005 21005 30177 40255 56019;EQDQ01  00002PRCP06
0131070390999992000011217004+99999+999999FM-12+999999999V0202001N004019999999N9999999N1-00011-00111102471ADDAA106000091MA1999999101691MD1810191+9999REMSYN060AAXX  1217  07039 36/// /2004 11001 21011 30169 40247 58019;EQDQ01  00002PRCP06
0131070390999992000011219004+99999+999999FM-12+999999999V0201901N004019999999N9999999N1-00071-00151102301ADDAA106000091MA1999999101521MD1810251+9999REMSYN060AAXX  1219  07039 36/// /1904 11007 21015 30152 40230 58025;EQDQ01  00002PRCP06
0131070390999992000011220004+99999+999999FM-12+999999999V0201801N006019999999N9999999N1-00051-00131102241ADDAA106000091MA1999999101461MD1610231+9999REMSYN060AAXX  1220  07039 36/// /1806 11005 21013 30146 40224 56023;EQDQ01  00002PRCP06
0131070390999992000011222004+99999+999999FM-12+999999999V0201901N004019999999N9999999N1+00031-00081102071ADDAA106000091MA1999999101301MD1810221+9999REMSYN060AAXX  1222  07039 36/// /1904 10003 21008 30130 40207 58022;EQDQ01  00002PRCP06
0131070390999992000011223004+99999+999999FM-12+999999999V0202001N006019999999N9999999N1+00061-00051101981ADDAA106000091MA1999999101211MD1810251+9999REMSYN060AAXX  1223  07039 36/// /2006 10006 21005 30121 40198 58025;EQDQ01  00002PRCP06
0131070390999992000011302004+99999+999999FM-12+999999999V0202101N008019999999N9999999N1+00251+00181101701ADDAA106000091MA1999999100941MD1610271+9999REMSYN060AAXX  1302  07039 36/// /2108 10025 20018 30094 40170 56027;EQDQ01  00002PRCP06
0131070390999992000011304004+99999+999999FM-12+999999999V0202001N008019999999N9999999N1+00261+00231101541ADDAA106000091MA1999999100781MD1810231+9999REMSYN060AAXX  1304  07039 36/// /2008 10026 20023 30078 40154 58023;EQDQ01  00002PRCP06
0122070390999992000011305004+99999+999999FM-12+999999999V0202201N008019999999N9999999N1+00261+00231101511ADDAA101000191MA1999999100751MD1610191+9999REMSYN070AAXX  1305  07039 26/// /2208 10026 20023 30075 40151 56019 333 69925;
0122070390999992000011307004+99999+999999FM-12+999999999V0202101N006019999999N9999999N1+00261+00231101541ADDAA101000191MA1999999100781MD1510001+9999REMSYN070AAXX  1307  07039 26/// /2106 10026 20023 30078 40154 55000 333 69925;
0131070390999992000011308004+99999+999999FM-12+999999999V0202301N004019999999N9999999N1+00301+00271101581ADDAA106000091MA1999999100821MD1310071+9999REMSYN060AAXX  1308  07039 36/// /2304 10030 20027 30082 40158 53007;EQDQ01  00002PRCP06
0131070390999992000011310004+99999+999999FM-12+999999999V0203601N006019999999N9999999N1+00411+00381101671ADDAA106000091MA1999999100911MD1210131+9999REMSYN060AAXX  1310  07039 36/// /3606 10041 20038 30091 40167 52013;EQDQ01  00002PRCP06
0131070390999992000011311004+99999+999999FM-12+999999999V0200101N004019999999N9999999N1+00471+00411101691ADDAA106000091MA1999999100931MD1110111+9999REMSYN060AAXX  1311  07039 36/// /0104 10047 20041 30093 40169 51011;EQDQ01  00002PRCP06
0131070390999992000011314004+99999+999999FM-12+999999999V0203601N008019999999N9999999N1+00581+00231101591ADDAA106000091MA1999999100841MD1610091+9999REMSYN060AAXX  1314  07039 36/// /3608 10058 20023 30084 40159 56009;EQDQ01  00002PRCP06
0131070390999992000011316004+99999+999999FM-12+999999999V0200101N004019999999N9999999N1+00491+00171101641ADDAA106000091MA1999999100881MD1310031+9999REMSYN060AAXX  1316  07039 36/// /0104 10049 20017 30088 40164 53003;EQDQ01  00002PRCP06
0131070390999992000011317004+99999+999999FM-12+999999999V0200101N004019999999N9999999N1+00421+00141101671ADDAA106000091MA1999999100911MD1310071+9999REMSYN060AAXX  1317  07039 36/// /0104 10042 20014 30091 40167 53007;EQDQ01  00002PRCP06
0131070390999992000011319004+99999+999999FM-12+999999999V0200401N004019999999N9999999N1+00331+00091101751ADDAA106000091MA1999999100991MD1210111+9999REMSYN060AAXX  1319  07039 36/// /0404 10033 20009 30099 40175 52011;EQDQ01  00002PRCP06
0135070390999992000011320004+99999+999999FM-12+999999999V0200101N002019999999N9999999N1+00271+00081101761ADDAA199000091MA1999999101001MD1110091+9999REMSYN064    AAXX  1320  07039 36/// /0102 10027 20008 30100 40176 51009;EQDQ01  00002PRCP99
0135070390999992000011322004+99999+999999FM-12+999999999V0200301N002019999999N9999999N1+00201+00051101801ADDAA199000091MA1999999101031MD1110041+9999REMSYN064    AAXX  1322  07039 36/// /0302 10020 20005 30103 40180 51004;EQDQ01  00002PRCP99
0135070390999992000011323004+99999+999999FM-12+999999999V0200401N004019999999N9999999N1+00191+00041101821ADDAA199000091MA1999999101051MD1110051+9999REMSYN064    AAXX  1323  07039 36/// /0404 10019 20004 30105 40182 51005;EQDQ01  00002PRCP99
0135070390999992000011401004+99999+999999FM-12+999999999V0200201N004019999999N9999999N1+00151+00001101831ADDAA199000091MA1999999101061MD1110031+9999REMSYN064    AAXX  1401  07039 36/// /0204 10015 20000 30106 40183 51003;EQDQ01  00002PRCP99
0135070390999992000011402004+99999+999999FM-12+999999999V0200201N004019999999N9999999N1+00221+00041101821ADDAA199000091MA1999999101061MD1110011+9999REMSYN064    AAXX  1402  07039 36/// /0204 10022 20004 30106 40182 51001;EQDQ01  00002PRCP99
0135070390999992000011404004+99999+999999FM-12+999999999V0200301N008019999999N9999999N1+00381+00121101851ADDAA199000091MA1999999101091MD1210031+9999REMSYN064    AAXX  1404  07039 36/// /0308 10038 20012 30109 40185 52003;EQDQ01  00002PRCP99
0135070390999992000011405004+99999+999999FM-12+999999999V0200501N008019999999N9999999N1+00401+00091101871ADDAA199000091MA1999999101111MD1110051+9999REMSYN064    AAXX  1405  07039 36/// /0508 10040 20009 30111 40187 51005;EQDQ01  00002PRCP99
0135070390999992000011407004+99999+999999FM-12+999999999V0200401N008019999999N9999999N1+00401+00031101971ADDAA199000091MA1999999101211MD1310121+9999REMSYN064    AAXX  1407  07039 36/// /0408 10040 20003 30121 40197 53012;EQDQ01  00002PRCP99
0135070390999992000011408004+99999+999999FM-12+999999999V0200501N006019999999N9999999N1+00421+00111102021ADDAA199000091MA1999999101261MD1310151+9999REMSYN064    AAXX  1408  07039 36/// /0506 10042 20011 30126 40202 53015;EQDQ01  00002PRCP99
0135070390999992000011410004+99999+999999FM-12+999999999V0200601N008019999999N9999999N1+00551+00181102131ADDAA199000091MA1999999101371MD1110161+9999REMSYN064    AAXX  1410  07039 36/// /0608 10055 20018 30137 40213 51016;EQDQ01  00002PRCP99
0135070390999992000011411004+99999+999999FM-12+999999999V0200501N008019999999N9999999N1+00531+00251102161ADDAA199000091MA1999999101401MD1110141+9999REMSYN064    AAXX  1411  07039 36/// /0508 10053 20025 30140 40216 51014;EQDQ01  00002PRCP99
0135070390999992000011413004+99999+999999FM-12+999999999V0200701N010019999999N9999999N1+00621+00231102151ADDAA199000091MA1999999101391MD1010021+9999REMSYN064    AAXX  1413  07039 36/// /0710 10062 20023 30139 40215 50002;EQDQ01  00002PRCP99
0135070390999992000011414004+99999+999999FM-12+999999999V0200601N012019999999N9999999N1+00631+00081102161ADDAA199000091MA1999999101401MD1510001+9999REMSYN064    AAXX  1414  07039 36/// /0612 10063 20008 30140 40216 55000;EQDQ01  00002PRCP99
0126070390999992000011416004+99999+999999FM-12+999999999V0200601N012019999999N9999999N1+00521+00271102251ADDAA101000591MA1999999101491MD1210101+9999REMSYN074    AAXX  1416  07039 26/// /0612 10052 20027 30149 40225 52010 333 69965;
0135070390999992000011417004+99999+999999FM-12+999999999V0200501N008019999999N9999999N1+00531+00271102341ADDAA199000091MA1999999101581MD1310181+9999REMSYN064    AAXX  1417  07039 36/// /0508 10053 20027 30158 40234 53018;EQDQ01  00002PRCP99
0135070390999992000011419004+99999+999999FM-12+999999999V0200501N008019999999N9999999N1+00561+00211102481ADDAA199000091MA1999999101721MD1110231+9999REMSYN064    AAXX  1419  07039 36/// /0508 10056 20021 30172 40248 51023;EQDQ01  00002PRCP99
0135070390999992000011420004+99999+999999FM-12+999999999V0200501N008019999999N9999999N1+00541+00221102551ADDAA199000091MA1999999101791MD1210211+9999REMSYN064    AAXX  1420  07039 36/// /0508 10054 20022 30179 40255 52021;EQDQ01  00002PRCP99
0135070390999992000011422004+99999+999999FM-12+999999999V0200401N006019999999N9999999N1+00491+00141102641ADDAA199000091MA1999999101881MD1110161+9999REMSYN064    AAXX  1422  07039 36/// /0406 10049 20014 30188 40264 51016;EQDQ01  00002PRCP99
0135070390999992000011423004+99999+999999FM-12+999999999V0200501N006019999999N9999999N1+00431+00121102711ADDAA199000091MA1999999101941MD1310151+9999REMSYN064    AAXX  1423  07039 36/// /0506 10043 20012 30194 40271 53015;EQDQ01  00002PRCP99
0135070390999992000011501004+99999+999999FM-12+999999999V0200401N006019999999N9999999N1+00411+00161102781ADDAA199000091MA1999999102011MD1110131+9999REMSYN064    AAXX  1501  07039 36/// /0406 10041 20016 30201 40278 51013;EQDQ01  00002PRCP99
0135070390999992000011502004+99999+999999FM-12+999999999V0200401N006019999999N9999999N1+00451+00241102811ADDAA199000091MA1999999102041MD1110101+9999REMSYN064    AAXX  1502  07039 36/// /0406 10045 20024 30204 40281 51010;EQDQ01  00002PRCP99
0135070390999992000011504004+99999+999999FM-12+999999999V0200601N004019999999N9999999N1+00441+00211102881ADDAA199000091MA1999999102111MD1210101+9999REMSYN064    AAXX  1504  07039 36/// /0604 10044 20021 30211 40288 52010;EQDQ01  00002PRCP99
0135070390999992000011505004+99999+999999FM-12+999999999V0200701N004019999999N9999999N1+00451+00201102931ADDAA199000091MA1999999102161MD1310121+9999REMSYN064    AAXX  1505  07039 36/// /0704 10045 20020 30216 40293 53012;EQDQ01  00002PRCP99
0135070390999992000011507004+99999+999999FM-12+999999999V0200801N006019999999N9999999N1+00581+00231103091ADDAA199000091MA1999999102331MD1310221+9999REMSYN064    AAXX  1507  07039 36/// /0806 10058 20023 30233 40309 53022;EQDQ01  00002PRCP99
0135070390999992000011508004+99999+999999FM-12+999999999V0201001N008019999999N9999999N1+00551+00141103191ADDAA199000091MA1999999102421MD1310261+9999REMSYN064    AAXX  1508  07039 36/// /1008 10055 20014 30242 40319 53026;EQDQ01  00002PRCP99
0135070390999992000011510004+99999+999999FM-12+999999999V0201101N014019999999N9999999N1+00641+00091103371ADDAA199000091MA1999999102611MD1110281+9999REMSYN064    AAXX  1510  07039 36/// /1114 10064 20009 30261 40337 51028;EQDQ01  00002PRCP99
0135070390999992000011511004+99999+999999FM-12+999999999V0200901N010019999999N9999999N1+00691+00161103431ADDAA199000091MA1999999102671MD1110251+9999REMSYN064    AAXX  1511  07039 36/// /0910 10069 20016 30267 40343 51025;EQDQ01  00002PRCP99
0135070390999992000011513004+99999+999999FM-12+999999999V0201001N016019999999N9999999N1+00701+00131103471ADDAA199000091MA1999999102711MD1110101+9999REMSYN064    AAXX  1513  07039 36/// /1016 10070 20013 30271 40347 51010;EQDQ01  00002PRCP99
0135070390999992000011514004+99999+999999FM-12+999999999V0201001N010019999999N9999999N1+00711+00181103451ADDAA199000091MA1999999102691MD1010021+9999REMSYN064    AAXX  1514  07039 36/// /1010 10071 20018 30269 40345 50002;EQDQ01  00002PRCP99
0135070390999992000011516004+99999+999999FM-12+999999999V0200801N010019999999N9999999N1+00641+00151103561ADDAA199000091MA1999999102791MD1310081+9999REMSYN064    AAXX  1516  07039 36/// /0810 10064 20015 30279 40356 53008;EQDQ01  00002PRCP99
0135070390999992000011517004+99999+999999FM-12+999999999V0200801N008019999999N9999999N1+00581+00121103631ADDAA199000091MA1999999102861MD1310171+9999REMSYN064    AAXX  1517  07039 36/// /0808 10058 20012 30286 40363 53017;EQDQ01  00002PRCP99
0135070390999992000011519004+99999+999999FM-12+999999999V0200801N010019999999N9999999N1+00611+00141103701ADDAA199000091MA1999999102931MD1110141+9999REMSYN064    AAXX  1519  07039 36/// /0810 10061 20014 30293 40370 51014;EQDQ01  00002PRCP99
0135070390999992000011522004+99999+999999FM-12+999999999V0201001N012019999999N9999999N1+00571+00141103761ADDAA199000091MA1999999102991MD1110061+9999REMSYN064    AAXX  1522  07039 36/// /1012 10057 20014 30299 40376 51006;EQDQ01  00002PRCP99
0135070390999992000011523004+99999+999999FM-12+999999999V0201001N010019999999N9999999N1+00531+00141103791ADDAA199000091MA1999999103021MD1310051+9999REMSYN064    AAXX  1523  07039 36/// /1010 10053 20014 30302 40379 53005;EQDQ01  00002PRCP99
0135070390999992000011601004+99999+999999FM-12+999999999V0200901N008019999999N9999999N1+00491+00121103841ADDAA199000091MA1999999103071MD1110081+9999REMSYN064    AAXX  1601  07039 36/// /0908 10049 20012 30307 40384 51008;EQDQ01  00002PRCP99
0135070390999992000011602004+99999+999999FM-12+999999999V0201001N006019999999N9999999N1+00491+00161103841ADDAA199000091MA1999999103071MD1110051+9999REMSYN064    AAXX  1602  07039 36/// /1006 10049 20016 30307 40384 51005;EQDQ01  00002PRCP99
0135070390999992000011604004+99999+999999FM-12+999999999V0201001N006019999999N9999999N1+00501+00151103811ADDAA199000091MA1999999103041MD1810031+9999REMSYN064    AAXX  1604  07039 36/// /1006 10050 20015 30304 40381 58003;EQDQ01  00002PRCP99
0135070390999992000011605004+99999+999999FM-12+999999999V0200901N006019999999N9999999N1+00501+00201103821ADDAA199000091MA1999999103051MD1510021+9999REMSYN064    AAXX  1605  07039 36/// /0906 10050 20020 30305 40382 55002;EQDQ01  00002PRCP99
0135070390999992000011607004+99999+999999FM-12+999999999V0200601N006019999999N9999999N1+00511+00211103891ADDAA199000091MA1999999103121MD1310081+9999REMSYN064    AAXX  1607  07039 36/// /0606 10051 20021 30312 40389 53008;EQDQ01  00002PRCP99
0135070390999992000011608004+99999+999999FM-12+999999999V0200501N008019999999N9999999N1+00551+00201103881ADDAA199000091MA1999999103111MD1010061+9999REMSYN064    AAXX  1608  07039 36/// /0508 10055 20020 30311 40388 50006;EQDQ01  00002PRCP99
0135070390999992000011610004+99999+999999FM-12+999999999V0200501N010019999999N9999999N1+00591+00181103911ADDAA199000091MA1999999103141MD1310021+9999REMSYN064    AAXX  1610  07039 36/// /0510 10059 20018 30314 40391 53002;EQDQ01  00002PRCP99
0135070390999992000011611004+99999+999999FM-12+999999999V0200601N008019999999N9999999N1+00601+00211103951ADDAA199000091MA1999999103181MD1310071+9999REMSYN064    AAXX  1611  07039 36/// /0608 10060 20021 30318 40395 53007;EQDQ01  00002PRCP99
0135070390999992000011613004+99999+999999FM-12+999999999V0200501N008019999999N9999999N1+00601+00371103851ADDAA199000091MA1999999103081MD1810061+9999REMSYN064    AAXX  1613  07039 36/// /0508 10060 20037 30308 40385 58006;EQDQ01  00002PRCP99
0135070390999992000011614004+99999+999999FM-12+999999999V0200501N008019999999N9999999N1+00571+00351103841ADDAA199000091MA1999999103071MD1710111+9999REMSYN064    AAXX  1614  07039 36/// /0508 10057 20035 30307 40384 57011;EQDQ01  00002PRCP99
0135070390999992000011616004+99999+999999FM-12+999999999V0200501N008019999999N9999999N1+00591+00311103861ADDAA199000091MA1999999103091MD1310011+9999REMSYN064    AAXX  1616  07039 36/// /0508 10059 20031 30309 40386 53001;EQDQ01  00002PRCP99
0135070390999992000011617004+99999+999999FM-12+999999999V0200501N008019999999N9999999N1+00581+00301103881ADDAA199000091MA1999999103111MD1310041+9999REMSYN064    AAXX  1617  07039 36/// /0508 10058 20030 30311 40388 53004;EQDQ01  00002PRCP99
0135070390999992000011619004+99999+999999FM-12+999999999V0200401N008019999999N9999999N1+00581+00311103881ADDAA199000091MA1999999103111MD1210021+9999REMSYN064    AAXX  1619  07039 36/// /0408 10058 20031 30311 40388 52002;EQDQ01  00002PRCP99
0135070390999992000011813004+99999+999999FM-12+999999999V0200101N006019999999N9999999N1+00861+00641103451ADDAA199000091MA1999999102691MD1810101+9999REMSYN064    AAXX  1813  07039 36/// /0106 10086 20064 30269 40345 58010;EQDQ01  00002PRCP99
0135070390999992000011814004+99999+999999FM-12+999999999V0200301N008019999999N9999999N1+00841+00601103421ADDAA199000091MA1999999102661MD1610131+9999REMSYN064    AAXX  1814  07039 36/// /0308 10084 20060 30266 40342 56013;EQDQ01  00002PRCP99
0135070390999992000011816004+99999+999999FM-12+999999999V0200401N012019999999N9999999N1+00771+00571103421ADDAA199000091MA1999999102661MD1610031+9999REMSYN064    AAXX  1816  07039 36/// /0412 10077 20057 30266 40342 56003;EQDQ01  00002PRCP99
0135070390999992000011817004+99999+999999FM-12+999999999V0200501N010019999999N9999999N1+00751+00551103421ADDAA199000091MA1999999102661MD1410001+9999REMSYN064    AAXX  1817  07039 36/// /0510 10075 20055 30266 40342 54000;EQDQ01  00002PRCP99
0135070390999992000011819004+99999+999999FM-12+999999999V0200501N006019999999N9999999N1+00741+00551103521ADDAA199000091MA1999999102761MD1310101+9999REMSYN064    AAXX  1819  07039 36/// /0506 10074 20055 30276 40352 53010;EQDQ01  00002PRCP99
0135070390999992000011820004+99999+999999FM-12+999999999V0200401N010019999999N9999999N1+00761+00561103531ADDAA199000091MA1999999102771MD1110111+9999REMSYN064    AAXX  1820  07039 36/// /0410 10076 20056 30277 40353 51011;EQDQ01  00002PRCP99
0135070390999992000011822004+99999+999999FM-12+999999999V0200601N006019999999N9999999N1+00761+00521103571ADDAA199000091MA1999999102811MD1210051+9999REMSYN064    AAXX  1822  07039 36/// /0606 10076 20052 30281 40357 52005;EQDQ01  00002PRCP99
0135070390999992000011823004+99999+999999FM-12+999999999V0200501N008019999999N9999999N1+00761+00521103581ADDAA199000091MA1999999102821MD1110051+9999REMSYN064    AAXX  1823  07039 36/// /0508 10076 20052 30282 40358 51005;EQDQ01  00002PRCP99
0135070390999992000011901004+99999+999999FM-12+999999999V0200401N006019999999N9999999N1+00731+00461103571ADDAA199000091MA1999999102811MD1010001+9999REMSYN064    AAXX  1901  07039 36/// /0406 10073 20046 30281 40357 50000;EQDQ01  00002PRCP99
0135070390999992000011902004+99999+999999FM-12+999999999V0200301N006019999999N9999999N1+00721+00431103571ADDAA199000091MA1999999102811MD1710011+9999REMSYN064    AAXX  1902  07039 36/// /0306 10072 20043 30281 40357 57001;EQDQ01  00002PRCP99
0135070390999992000011904004+99999+999999FM-12+999999999V0200401N008019999999N9999999N1+00711+00371103561ADDAA199000091MA1999999102801MD1810011+9999REMSYN064    AAXX  1904  07039 36/// /0408 10071 20037 30280 40356 58001;EQDQ01  00002PRCP99
0135070390999992000011905004+99999+999999FM-12+999999999V0200301N006019999999N9999999N1+00701+00361103561ADDAA199000091MA1999999102801MD1710011+9999REMSYN064    AAXX  1905  07039 36/// /0306 10070 20036 30280 40356 57001;EQDQ01  00002PRCP99
0135070390999992000011907004+99999+999999FM-12+999999999V0200301N006019999999N9999999N1+00681+00321103551ADDAA199000091MA1999999102791MD1810011+9999REMSYN064    AAXX  1907  07039 36/// /0306 10068 20032 30279 40355 58001;EQDQ01  00002PRCP99
0135070390999992000011908004+99999+999999FM-12+999999999V0200301N008019999999N9999999N1+00701+00381103581ADDAA199000091MA1999999102821MD1310021+9999REMSYN064    AAXX  1908  07039 36/// /0308 10070 20038 30282 40358 53002;EQDQ01  00002PRCP99
0135070390999992000011910004+99999+999999FM-12+999999999V0200501N008019999999N9999999N1+00751+00461103681ADDAA199000091MA1999999102921MD1310131+9999REMSYN064    AAXX  1910  07039 36/// /0508 10075 20046 30292 40368 53013;EQDQ01  00002PRCP99
0135070390999992000011911004+99999+999999FM-12+999999999V0200401N008019999999N9999999N1+00801+00421103701ADDAA199000091MA1999999102941MD1110121+9999REMSYN064    AAXX  1911  07039 36/// /0408 10080 20042 30294 40370 51012;EQDQ01  00002PRCP99
0135070390999992000011913004+99999+999999FM-12+999999999V0200501N008019999999N9999999N1+00781+00441103661ADDAA199000091MA1999999102901MD1810021+9999REMSYN064    AAXX  1913  07039 36/// /0508 10078 20044 30290 40366 58002;EQDQ01  00002PRCP99
0131070390999992000011917004+99999+999999FM-12+999999999V0200301N004019999999N9999999N1+00691+00441103681ADDAA199000091MA1999999102911MD1010031+9999REMSYN060AAXX  1917  07039 36/// /0304 10069 20044 30291 40368 50003;EQDQ01  00002PRCP99
0131070390999992000011919004+99999+999999FM-12+999999999V0200401N004019999999N9999999N1+00551+00281103721ADDAA199000091MA1999999102951MD1310031+9999REMSYN060AAXX  1919  07039 36/// /0404 10055 20028 30295 40372 53003;EQDQ01  00002PRCP99
0131070390999992000011920004+99999+999999FM-12+999999999V0200401N008019999999N9999999N1+00681+00361103731ADDAA199000091MA1999999102961MD1210051+9999REMSYN060AAXX  1920  07039 36/// /0408 10068 20036 30296 40373 52005;EQDQ01  00002PRCP99
0131070390999992000011922004+99999+999999FM-12+999999999V0200501N006019999999N9999999N1+00641+00361103751ADDAA199000091MA1999999102981MD1110031+9999REMSYN060AAXX  1922  07039 36/// /0506 10064 20036 30298 40375 51003;EQDQ01  00002PRCP99
0131070390999992000011923004+99999+999999FM-12+999999999V0200601N002019999999N9999999N1+00611+00311103751ADDAA199000091MA1999999102981MD1110021+9999REMSYN060AAXX  1923  07039 36/// /0602 10061 20031 30298 40375 51002;EQDQ01  00002PRCP99
0131070390999992000012001004+99999+999999FM-12+999999999V0203601N002019999999N9999999N1+00561+00261103751ADDAA199000091MA1999999102981MD1010001+9999REMSYN060AAXX  2001  07039 36/// /3602 10056 20026 30298 40375 50000;EQDQ01  00002PRCP99
0131070390999992000012002004+99999+999999FM-12+999999999V0200301N004019999999N9999999N1+00511+00311103741ADDAA199000091MA1999999102971MD1810011+9999REMSYN060AAXX  2002  07039 36/// /0304 10051 20031 30297 40374 58001;EQDQ01  00002PRCP99
0131070390999992000012004004+99999+999999FM-12+999999999V0200701N002019999999N9999999N1+00521+00291103671ADDAA199000091MA1999999102901MD1810081+9999REMSYN060AAXX  2004  07039 36/// /0702 10052 20029 30290 40367 58008;EQDQ01  00002PRCP99
0131070390999992000012005004+99999+999999FM-12+999999999V0203601N002019999999N9999999N1+00481+00301103671ADDAA199000091MA1999999102901MD1610071+9999REMSYN060AAXX  2005  07039 36/// /3602 10048 20030 30290 40367 56007;EQDQ01  00002PRCP99
0131070390999992000012007004+99999+999999FM-12+999999999V0203101N004019999999N9999999N1+00451+00301103681ADDAA199000091MA1999999102911MD1310011+9999REMSYN060AAXX  2007  07039 36/// /3104 10045 20030 30291 40368 53001;EQDQ01  00002PRCP99
0131070390999992000012008004+99999+999999FM-12+999999999V0203501N002019999999N9999999N1+00441+00311103691ADDAA199000091MA1999999102921MD1310021+9999REMSYN060AAXX  2008  07039 36/// /3502 10044 20031 30292 40369 53002;EQDQ01  00002PRCP99
0131070390999992000012010004+99999+999999FM-12+999999999V0202901N002019999999N9999999N1+00571+00271103661ADDAA199000091MA1999999102891MD1810021+9999REMSYN060AAXX  2010  07039 36/// /2902 10057 20027 30289 40366 58002;EQDQ01  00002PRCP99
0131070390999992000012011004+99999+999999FM-12+999999999V0203001N004019999999N9999999N1+00641+00191103631ADDAA199000091MA1999999102861MD1810061+9999REMSYN060AAXX  2011  07039 36/// /3004 10064 20019 30286 40363 58006;EQDQ01  00002PRCP99
0131070390999992000012013004+99999+999999FM-12+999999999V0203001N004019999999N9999999N1+00651+00221103531ADDAA199000091MA1999999102761MD1810131+9999REMSYN060AAXX  2013  07039 36/// /3004 10065 20022 30276 40353 58013;EQDQ01  00002PRCP99
0131070390999992000012014004+99999+999999FM-12+999999999V0203101N004019999999N9999999N1+00651+00221103451ADDAA199000091MA1999999102691MD1810171+9999REMSYN060AAXX  2014  07039 36/// /3104 10065 20022 30269 40345 58017;EQDQ01  00002PRCP99
0131070390999992000012016004+99999+999999FM-12+999999999V0202601N002019999999N9999999N1+00631+00241103421ADDAA199000091MA1999999102651MD1610111+9999REMSYN060AAXX  2016  07039 36/// /2602 10063 20024 30265 40342 56011;EQDQ01  00002PRCP99
0131070390999992000012017004+99999+999999FM-12+999999999V0202901N002019999999N9999999N1+00611+00271103361ADDAA199000091MA1999999102591MD1810101+9999REMSYN060AAXX  2017  07039 36/// /2902 10061 20027 30259 40336 58010;EQDQ01  00002PRCP99
0131070390999992000012019004+99999+999999FM-12+999999999V0209999C000019999999N9999999N1+00561+00331103351ADDAA199000091MA1999999102581MD1510071+9999REMSYN060AAXX  2019  07039 36/// /0000 10056 20033 30258 40335 55007;EQDQ01  00002PRCP99
0131070390999992000012020004+99999+999999FM-12+999999999V0203501N004019999999N9999999N1+00581+00461103351ADDAA199000091MA1999999102581MD1610011+9999REMSYN060AAXX  2020  07039 36/// /3504 10058 20046 30258 40335 56001;EQDQ01  00002PRCP99
0131070390999992000012022004+99999+999999FM-12+999999999V0200401N004019999999N9999999N1+00581+00401103371ADDAA199000091MA1999999102601MD1310021+9999REMSYN060AAXX  2022  07039 36/// /0404 10058 20040 30260 40337 53002;EQDQ01  00002PRCP99
0131070390999992000012023004+99999+999999FM-12+999999999V0200501N006019999999N9999999N1+00561+00361103391ADDAA199000091MA1999999102621MD1310041+9999REMSYN060AAXX  2023  07039 36/// /0506 10056 20036 30262 40339 53004;EQDQ01  00002PRCP99
0131070390999992000012101004+99999+999999FM-12+999999999V0203401N004019999999N9999999N1+00511+00311103341ADDAA199000091MA1999999102571MD1810031+9999REMSYN060AAXX  2101  07039 36/// /3404 10051 20031 30257 40334 58003;EQDQ01  00002PRCP99
0116070390999992000012102004+99999+999999FM-12+999999999V0200201N004019999999N9999999N1+00521+00321999999ADDAA199000091MA1999999102581REMSYN059AAXX  2102  07039 36/// /0204 10052 20032 30258 4335 55004;EQDQ01  00002PRCP99
0131070390999992000012104004+99999+999999FM-12+999999999V0200301N004019999999N9999999N1+00521+00191103361ADDAA199000091MA1999999102591MD1210021+9999REMSYN060AAXX  2104  07039 36/// /0304 10052 20019 30259 40336 52002;EQDQ01  00002PRCP99
0131070390999992000012105004+99999+999999FM-12+999999999V0200401N002019999999N9999999N1+00531+00141103371ADDAA199000091MA1999999102601MD1310021+9999REMSYN060AAXX  2105  07039 36/// /0402 10053 20014 30260 40337 53002;EQDQ01  00002PRCP99
0131070390999992000012107004+99999+999999FM-12+999999999V0200201N004019999999N9999999N1+00471+00171103411ADDAA199000091MA1999999102641MD1310051+9999REMSYN060AAXX  2107  07039 36/// /0204 10047 20017 30264 40341 53005;EQDQ01  00002PRCP99
0131070390999992000012108004+99999+999999FM-12+999999999V0200401N004019999999N9999999N1+00481+00161103441ADDAA199000091MA1999999102671MD1310071+9999REMSYN060AAXX  2108  07039 36/// /0404 10048 20016 30267 40344 53007;EQDQ01  00002PRCP99
0131070390999992000012110004+99999+999999FM-12+999999999V0203101N002019999999N9999999N1+00521+00171103511ADDAA199000091MA1999999102741MD1110101+9999REMSYN060AAXX  2110  07039 36/// /3102 10052 20017 30274 40351 51010;EQDQ01  00002PRCP99
0131070390999992000012111004+99999+999999FM-12+999999999V0202901N002019999999N9999999N1+00621+00151103541ADDAA199000091MA1999999102771MD1110101+9999REMSYN060AAXX  2111  07039 36/// /2902 10062 20015 30277 40354 51010;EQDQ01  00002PRCP99
0131070390999992000012113004+99999+999999FM-12+999999999V0200101N006019999999N9999999N1+00761+00311103441ADDAA199000091MA1999999102681MD1810061+9999REMSYN060AAXX  2113  07039 36/// /0106 10076 20031 30268 40344 58006;EQDQ01  00002PRCP99
0131070390999992000012114004+99999+999999FM-12+999999999V0200101N006019999999N9999999N1+00711+00371103401ADDAA199000091MA1999999102641MD1810131+9999REMSYN060AAXX  2114  07039 36/// /0106 10071 20037 30264 40340 58013;EQDQ01  00002PRCP99
0131070390999992000012116004+99999+999999FM-12+999999999V0200101N004019999999N9999999N1+00671+00371103361ADDAA199000091MA1999999102601MD1610081+9999REMSYN060AAXX  2116  07039 36/// /0104 10067 20037 30260 40336 56008;EQDQ01  00002PRCP99
0131070390999992000012117004+99999+999999FM-12+999999999V0203501N004019999999N9999999N1+00631+00401103361ADDAA199000091MA1999999102601MD1610041+9999REMSYN060AAXX  2117  07039 36/// /3504 10063 20040 30260 40336 56004;EQDQ01  00002PRCP99
0131070390999992000012119004+99999+999999FM-12+999999999V0203001N002019999999N9999999N1+00601+00401103351ADDAA199000091MA1999999102581MD1810021+9999REMSYN060AAXX  2119  07039 36/// /3002 10060 20040 30258 40335 58002;EQDQ01  00002PRCP99
0131070390999992000012120004+99999+999999FM-12+999999999V0203001N002019999999N9999999N1+00571+00391103311ADDAA199000091MA1999999102541MD1810061+9999REMSYN060AAXX  2120  07039 36/// /3002 10057 20039 30254 40331 58006;EQDQ01  00002PRCP99
0131070390999992000012122004+99999+999999FM-12+999999999V0203101N004019999999N9999999N1+00561+00281103211ADDAA199000091MA1999999102441MD1710141+9999REMSYN060AAXX  2122  07039 36/// /3104 10056 20028 30244 40321 57014;EQDQ01  00002PRCP99
0131070390999992000012123004+99999+999999FM-12+999999999V0203201N006019999999N9999999N1+00631+00061103181ADDAA199000091MA1999999102421MD1610121+9999REMSYN060AAXX  2123  07039 36/// /3206 10063 20006 30242 40318 56012;EQDQ01  00002PRCP99
0131070390999992000012201004+99999+999999FM-12+999999999V0203201N008019999999N9999999N1+00631+00161103001ADDAA199000091MA1999999102241MD1810201+9999REMSYN060AAXX  2201  07039 36/// /3208 10063 20016 30224 40300 58020;EQDQ01  00002PRCP99
0131070390999992000012202004+99999+999999FM-12+999999999V0203301N010019999999N9999999N1+00571+00301102961ADDAA199000091MA1999999102201MD1610221+9999REMSYN060AAXX  2202  07039 36/// /3310 10057 20030 30220 40296 56022;EQDQ01  00002PRCP99
0131070390999992000012205004+99999+999999FM-12+999999999V0203201N008019999999N9999999N1+00611+00141102671ADDAA199000091MA1999999101911MD1810291+9999REMSYN060AAXX  2205  07039 36/// /3208 10061 20014 30191 40267 58029;EQDQ01  00002PRCP99
0131070390999992000012207004+99999+999999FM-12+999999999V0203201N010019999999N9999999N1+00631+00241102481ADDAA199000091MA1999999101721MD1610281+9999REMSYN060AAXX  2207  07039 36/// /3210 10063 20024 30172 40248 56028;EQDQ01  00002PRCP99
0131070390999992000012208004+99999+999999FM-12+999999999V0203001N010019999999N9999999N1+00651+00311102361ADDAA199000091MA1999999101601MD1710311+9999REMSYN060AAXX  2208  07039 36/// /3010 10065 20031 30160 40236 57031;EQDQ01  00002PRCP99
0141070390999992000012210004+99999+999999FM-12+999999999V0203201N012019999999N9999999N1+00731+00391102211ADDAA199000091MA1999999101461MD1610261+9999REMSYN070AAXX  2210  07039 36/// /3212 10073 20039 30146 40221 56026 333 91131;EQDQ01  00002PRCP99
0147070390999992000012211004+99999+999999FM-12+999999999V0203301N016019999999N9999999N1+00851+00431102131ADDAA199000091MA1999999101381MD1810221+9999REMSYN076AAXX  2211  07039 36/// /3316 10085 20043 30138 40213 58022 333 91027 91133;EQDQ01  00002PRCP99
0128070390999992000012213004+99999+999999FM-12+999999999V0203401N012019999999N9999999N1+00841+00481101981ADDAA101000491MA1999999101231MD1610231+9999REMSYN076AAXX  2213  07039 26/// /3412 10084 20048 30123 40198 56023 333 69945 91133;
0147070390999992000012214004+99999+999999FM-12+999999999V0203501N016019999999N9999999N1+00831+00361101941ADDAA199000091MA1999999101191MD1610191+9999REMSYN076AAXX  2214  07039 36/// /3516 10083 20036 30119 40194 56019 333 91029 91131;EQDQ01  00002PRCP99
0134070390999992000012216004+99999+999999FM-12+999999999V0203501N016019999999N9999999N1+00761+00351101971ADDAA101000291MA1999999101221MD1610011+9999REMSYN082AAXX  2216  07039 26/// /3516 10076 20035 30122 40197 56001 333 69925 91027 91135;
0147070390999992000012217004+99999+999999FM-12+999999999V0200201N017019999999N9999999N1+00641-00031102081ADDAA199000091MA1999999101321MD1310131+9999REMSYN076AAXX  2217  07039 36/// /0217 10064 21003 30132 40208 53013 333 91031 91139;EQDQ01  00002PRCP99
0131070390999992000012219004+99999+999999FM-12+999999999V0200101N010019999999N9999999N1+00561-00221102201ADDAA199000091MA1999999101441MD1110221+9999REMSYN060AAXX  2219  07039 36/// /0110 10056 21022 30144 40220 51022;EQDQ01  00002PRCP99
0131070390999992000012220004+99999+999999FM-12+999999999V0200201N010019999999N9999999N1+00571-00101102251ADDAA199000091MA1999999101491MD1110171+9999REMSYN060AAXX  2220  07039 36/// /0210 10057 21010 30149 40225 51017;EQDQ01  00002PRCP99
0131070390999992000012222004+99999+999999FM-12+999999999V0200201N012019999999N9999999N1+00521-00021102351ADDAA199000091MA1999999101591MD1110151+9999REMSYN060AAXX  2222  07039 36/// /0212 10052 21002 30159 40235 51015;EQDQ01  00002PRCP99
0131070390999992000012223004+99999+999999FM-12+999999999V0200301N010019999999N9999999N1+00541-00041102391ADDAA199000091MA1999999101631MD1110141+9999REMSYN060AAXX  2223  07039 36/// /0310 10054 21004 30163 40239 51014;EQDQ01  00002PRCP99
0131070390999992000012301004+99999+999999FM-12+999999999V0200101N008019999999N9999999N1+00511-00071102431ADDAA199000091MA1999999101671MD1110081+9999REMSYN060AAXX  2301  07039 36/// /0108 10051 21007 30167 40243 51008;EQDQ01  00002PRCP99
0131070390999992000012302004+99999+999999FM-12+999999999V0200101N006019999999N9999999N1+00421-00061102391ADDAA199000091MA1999999101631MD1010001+9999REMSYN060AAXX  2302  07039 36/// /0106 10042 21006 30163 40239 50000;EQDQ01  00002PRCP99
0131070390999992000012304004+99999+999999FM-12+999999999V0203501N004019999999N9999999N1+00261-00021102411ADDAA199000091MA1999999101641MD1610031+9999REMSYN060AAXX  2304  07039 36/// /3504 10026 21002 30164 40241 56003;EQDQ01  00002PRCP99
0131070390999992000012305004+99999+999999FM-12+999999999V0203601N004019999999N9999999N1+00351+00001102391ADDAA199000091MA1999999101621MD1810011+9999REMSYN060AAXX  2305  07039 36/// /3604 10035 20000 30162 40239 58001;EQDQ01  00002PRCP99
0131070390999992000012307004+99999+999999FM-12+999999999V0200101N006019999999N9999999N1+00451-00171102361ADDAA199000091MA1999999101601MD1710041+9999REMSYN060AAXX  2307  07039 36/// /0106 10045 21017 30160 40236 57004;EQDQ01  00002PRCP99
0131070390999992000012308004+99999+999999FM-12+999999999V0200101N008019999999N9999999N1+00461-00121102391ADDAA199000091MA1999999101631MD1310011+9999REMSYN060AAXX  2308  07039 36/// /0108 10046 21012 30163 40239 53001;EQDQ01  00002PRCP99
0131070390999992000012311004+99999+999999FM-12+999999999V0200201N008019999999N9999999N1+00681+00031102451ADDAA199000091MA1999999101691MD1210061+9999REMSYN060AAXX  2311  07039 36/// /0208 10068 20003 30169 40245 52006;EQDQ01  00002PRCP99
0131070390999992000012313004+99999+999999FM-12+999999999V0200301N012019999999N9999999N1+00651+00181102451ADDAA199000091MA1999999101691MD1010021+9999REMSYN060AAXX  2313  07039 36/// /0312 10065 20018 30169 40245 50002;EQDQ01  00002PRCP99
0131070390999992000012314004+99999+999999FM-12+999999999V0200301N012019999999N9999999N1+00651+00201102461ADDAA199000091MA1999999101701MD1210011+9999REMSYN060AAXX  2314  07039 36/// /0312 10065 20020 30170 40246 52001;EQDQ01  00002PRCP99
0131070390999992000012316004+99999+999999FM-12+999999999V0200301N008019999999N9999999N1+00571+00161102541ADDAA199000091MA1999999101781MD1310091+9999REMSYN060AAXX  2316  07039 36/// /0308 10057 20016 30178 40254 53009;EQDQ01  00002PRCP99
0131070390999992000012319004+99999+999999FM-12+999999999V0200201N004019999999N9999999N1+00441-00061102621ADDAA199000091MA1999999101861MD1110081+9999REMSYN060AAXX  2319  07039 36/// /0204 10044 21006 30186 40262 51008;EQDQ01  00002PRCP99
0131070390999992000012320004+99999+999999FM-12+999999999V0200201N008019999999N9999999N1+00501+00041102631ADDAA199000091MA1999999101871MD1110051+9999REMSYN060AAXX  2320  07039 36/// /0208 10050 20004 30187 40263 51005;EQDQ01  00002PRCP99
0131070390999992000012322004+99999+999999FM-12+999999999V0200201N008019999999N9999999N1+00521+00101102621ADDAA199000091MA1999999101861MD1010001+9999REMSYN060AAXX  2322  07039 36/// /0208 10052 20010 30186 40262 50000;EQDQ01  00002PRCP99
0131070390999992000012323004+99999+999999FM-12+999999999V0200301N008019999999N9999999N1+00471+00101102621ADDAA199000091MA1999999101861MD1710011+9999REMSYN060AAXX  2323  07039 36/// /0308 10047 20010 30186 40262 57001;EQDQ01  00002PRCP99
0131070390999992000012401004+99999+999999FM-12+999999999V0203601N004019999999N9999999N1+00241+00001102611ADDAA199000091MA1999999101841MD1810021+9999REMSYN060AAXX  2401  07039 36/// /3604 10024 20000 30184 40261 58002;EQDQ01  00002PRCP99
0131070390999992000012402004+99999+999999FM-12+999999999V0203601N004019999999N9999999N1+00261+00051102521ADDAA199000091MA1999999101751MD1810111+9999REMSYN060AAXX  2402  07039 36/// /3604 10026 20005 30175 40252 58011;EQDQ01  00002PRCP99
0131070390999992000012404004+99999+999999FM-12+999999999V0200201N004019999999N9999999N1+00321+00111102451ADDAA199000091MA1999999101681MD1610161+9999REMSYN060AAXX  2404  07039 36/// /0204 10032 20011 30168 40245 56016;EQDQ01  00002PRCP99
0131070390999992000012405004+99999+999999FM-12+999999999V0200201N002019999999N9999999N1+00321+00111102451ADDAA199000091MA1999999101681MD1610071+9999REMSYN060AAXX  2405  07039 36/// /0202 10032 20011 30168 40245 56007;EQDQ01  00002PRCP99
0131070390999992000012407004+99999+999999FM-12+999999999V0200401N002019999999N9999999N1+00251+00101102391ADDAA199000091MA1999999101621MD1710061+9999REMSYN060AAXX  2407  07039 36/// /0402 10025 20010 30162 40239 57006;EQDQ01  00002PRCP99
0101070390999992000012410004+99999+999999FM-12+999999999V0200301N004019999999N9999999N1+00501+00171102371ADDMA1999999101611MD1610011+9999REMSYN060AAXX  2410  07039 26/// /0304 10050 20017 30161 40237 56001;
0131070390999992000012411004+99999+999999FM-12+999999999V0200301N006019999999N9999999N1+00461+00131102391ADDAA199000091MA1999999101631MD1210041+9999REMSYN060AAXX  2411  07039 36/// /0306 10046 20013 30163 40239 52004;EQDQ01  00002PRCP99
0131070390999992000012413004+99999+999999FM-12+999999999V0200701N006019999999N9999999N1+00521+00041102331ADDAA199000091MA1999999101571MD1810041+9999REMSYN060AAXX  2413  07039 36/// /0706 10052 20004 30157 40233 58004;EQDQ01  00002PRCP99
0131070390999992000012414004+99999+999999FM-12+999999999V0200501N006019999999N9999999N1+00521+00001102311ADDAA199000091MA1999999101551MD1610081+9999REMSYN060AAXX  2414  07039 36/// /0506 10052 20000 30155 40231 56008;EQDQ01  00002PRCP99
0131070390999992000012416004+99999+999999FM-12+999999999V0201001N010019999999N9999999N1+00451+00201102391ADDAA199000091MA1999999101631MD1310061+9999REMSYN060AAXX  2416  07039 36/// /1010 10045 20020 30163 40239 53006;EQDQ01  00002PRCP99
0131070390999992000012417004+99999+999999FM-12+999999999V0200901N002019999999N9999999N1+00331+00201102471ADDAA199000091MA1999999101701MD1310151+9999REMSYN060AAXX  2417  07039 36/// /0902 10033 20020 30170 40247 53015;EQDQ01  00002PRCP99
0131070390999992000012419004+99999+999999FM-12+999999999V0200401N002019999999N9999999N1+00121+00061102541ADDAA199000091MA1999999101771MD1110141+9999REMSYN060AAXX  2419  07039 36/// /0402 10012 20006 30177 40254 51014;EQDQ01  00002PRCP99
0131070390999992000012420004+99999+999999FM-12+999999999V0200401N002019999999N9999999N1+00051-00011102581ADDAA199000091MA1999999101801MD1310101+9999REMSYN060AAXX  2420  07039 36/// /0402 10005 21001 30180 40258 53010;EQDQ01  00002PRCP99
0131070390999992000012422004+99999+999999FM-12+999999999V0200401N004019999999N9999999N1+00001-00041102631ADDAA199000091MA1999999101851MD1110081+9999REMSYN060AAXX  2422  07039 36/// /0404 10000 21004 30185 40263 51008;EQDQ01  00002PRCP99
0131070390999992000012423004+99999+999999FM-12+999999999V0200201N002019999999N9999999N1+00001-00031102641ADDAA199000091MA1999999101861MD1110061+9999REMSYN060AAXX  2423  07039 36/// /0202 10000 21003 30186 40264 51006;EQDQ01  00002PRCP99
0131070390999992000012501004+99999+999999FM-12+999999999V0200401N002019999999N9999999N1+00011-00021102661ADDAA199000091MA1999999101881MD1210031+9999REMSYN060AAXX  2501  07039 36/// /0402 10001 21002 30188 40266 52003;EQDQ01  00002PRCP99
0131070390999992000012502004+99999+999999FM-12+999999999V0200301N004019999999N9999999N1+00111+00081102691ADDAA199000091MA1999999101921MD1310061+9999REMSYN060AAXX  2502  07039 36/// /0304 10011 20008 30192 40269 53006;EQDQ01  00002PRCP99
0131070390999992000012504004+99999+999999FM-12+999999999V0209999C000019999999N9999999N1+00161+00131102661ADDAA199000091MA1999999101891MD1010011+9999REMSYN060AAXX  2504  07039 36/// /0000 10016 20013 30189 40266 50001;EQDQ01  00002PRCP99
0131070390999992000012505004+99999+999999FM-12+999999999V0200801N002019999999N9999999N1+00161+00131102691ADDAA199000091MA1999999101921MD1510001+9999REMSYN060AAXX  2505  07039 36/// /0802 10016 20013 30192 40269 55000;EQDQ01  00002PRCP99
0131070390999992000012507004+99999+999999FM-12+999999999V0201001N002019999999N9999999N1-00011-00051102791ADDAA199000091MA1999999102011MD1310121+9999REMSYN060AAXX  2507  07039 36/// /1002 11001 21005 30201 40279 53012;EQDQ01  00002PRCP99
0131070390999992000012508004+99999+999999FM-12+999999999V0200601N002019999999N9999999N1-00121-00161102841ADDAA199000091MA1999999102061MD1310141+9999REMSYN060AAXX  2508  07039 36/// /0602 11012 21016 30206 40284 53014;EQDQ01  00002PRCP99
0131070390999992000012510004+99999+999999FM-12+999999999V0201701N004019999999N9999999N1+00141-00121102891ADDAA199000091MA1999999102111MD1110101+9999REMSYN060AAXX  2510  07039 36/// /1704 10014 21012 30211 40289 51010;EQDQ01  00002PRCP99
0131070390999992000012511004+99999+999999FM-12+999999999V0201501N006019999999N9999999N1+00191-00151102931ADDAA199000091MA1999999102161MD1310101+9999REMSYN060AAXX  2511  07039 36/// /1506 10019 21015 30216 40293 53010;EQDQ01  00002PRCP99
0131070390999992000012513004+99999+999999FM-12+999999999V0201301N008019999999N9999999N1+00271-00381102901ADDAA199000091MA1999999102131MD1010021+9999REMSYN060AAXX  2513  07039 36/// /1308 10027 21038 30213 40290 50002;EQDQ01  00002PRCP99
0131070390999992000012514004+99999+999999FM-12+999999999V0201301N006019999999N9999999N1+00301-00561102891ADDAA199000091MA1999999102121MD1810041+9999REMSYN060AAXX  2514  07039 36/// /1306 10030 21056 30212 40289 58004;EQDQ01  00002PRCP99
0131070390999992000012516004+99999+999999FM-12+999999999V0201101N006019999999N9999999N1+00191-00711102961ADDAA199000091MA1999999102191MD1310061+9999REMSYN060AAXX  2516  07039 36/// /1106 10019 21071 30219 40296 53006;EQDQ01  00002PRCP99
0131070390999992000012517004+99999+999999FM-12+999999999V0201001N004019999999N9999999N1+00041-00691103001ADDAA199000091MA1999999102221MD1310101+9999REMSYN060AAXX  2517  07039 36/// /1004 10004 21069 30222 40300 53010;EQDQ01  00002PRCP99
0131070390999992000012519004+99999+999999FM-12+999999999V0200601N002019999999N9999999N1-00181-00601103051ADDAA199000091MA1999999102261MD1110071+9999REMSYN060AAXX  2519  07039 36/// /0602 11018 21060 30226 40305 51007;EQDQ01  00002PRCP99
0131070390999992000012520004+99999+999999FM-12+999999999V0200801N004019999999N9999999N1-00211-00511103071ADDAA199000091MA1999999102281MD1110061+9999REMSYN060AAXX  2520  07039 36/// /0804 11021 21051 30228 40307 51006;EQDQ01  00002PRCP99
0131070390999992000012522004+99999+999999FM-12+999999999V0209999C000019999999N9999999N1-00371-00511103131ADDAA199000091MA1999999102341MD1310081+9999REMSYN060AAXX  2522  07039 36/// /0000 11037 21051 30234 40313 53008;EQDQ01  00002PRCP99
0131070390999992000012523004+99999+999999FM-12+999999999V0201501N002019999999N9999999N1-00441-00561103161ADDAA199000091MA1999999102371MD1210091+9999REMSYN060AAXX  2523  07039 36/// /1502 11044 21056 30237 40316 52009;EQDQ01  00002PRCP99
0131070390999992000012604004+99999+999999FM-12+999999999V0201201N004019999999N9999999N1-00251-00741103171ADDAA199000091MA1999999102381MD1610031+9999REMSYN060AAXX  2604  07039 36/// /1204 11025 21074 30238 40317 56003;EQDQ01  00002PRCP99
0131070390999992000012605004+99999+999999FM-12+999999999V0201101N006019999999N9999999N1-00221-00711103181ADDAA199000091MA1999999102391MD1510011+9999REMSYN060AAXX  2605  07039 36/// /1106 11022 21071 30239 40318 55001;EQDQ01  00002PRCP99
0131070390999992000012607004+99999+999999FM-12+999999999V0201401N006019999999N9999999N1-00291-00741103241ADDAA199000091MA1999999102451MD1310071+9999REMSYN060AAXX  2607  07039 36/// /1406 11029 21074 30245 40324 53007;EQDQ01  00002PRCP99
0131070390999992000012608004+99999+999999FM-12+999999999V0201401N006019999999N9999999N1-00271-00871103271ADDAA199000091MA1999999102481MD1310091+9999REMSYN060AAXX  2608  07039 36/// /1406 11027 21087 30248 40327 53009;EQDQ01  00002PRCP99
0131070390999992000012702004+99999+999999FM-12+999999999V0201001N002019999999N9999999N1-00721-00811103291ADDAA199000091MA1999999102491MD1810051+9999REMSYN060AAXX  2702  07039 36/// /1002 11072 21081 30249 40329 58005;EQDQ01  00002PRCP99
0131070390999992000012704004+99999+999999FM-12+999999999V0209999C000019999999N9999999N1-00791-00911103251ADDAA199000091MA1999999102441MD1610071+9999REMSYN060AAXX  2704  07039 36/// /0000 11079 21091 30244 40325 56007;EQDQ01  00002PRCP99
0131070390999992000012705004+99999+999999FM-12+999999999V0203601N002019999999N9999999N1-00841-00951103231ADDAA199000091MA1999999102421MD1610071+9999REMSYN060AAXX  2705  07039 36/// /3602 11084 21095 30242 40323 56007;EQDQ01  00002PRCP99
0131070390999992000012707004+99999+999999FM-12+999999999V0203601N002019999999N9999999N1-00801-00891103181ADDAA199000091MA1999999102371MD1510071+9999REMSYN060AAXX  2707  07039 36/// /3602 11080 21089 30237 40318 55007;EQDQ01  00002PRCP99
0131070390999992000012708004+99999+999999FM-12+999999999V0200201N004019999999N9999999N1-00831-00921103191ADDAA199000091MA1999999102381MD1510041+9999REMSYN060AAXX  2708  07039 36/// /0204 11083 21092 30238 40319 55004;EQDQ01  00002PRCP99
0131070390999992000012710004+99999+999999FM-12+999999999V0202101N002019999999N9999999N1+00011-00311103181ADDAA199000091MA1999999102401MD1010031+9999REMSYN060AAXX  2710  07039 36/// /2102 10001 21031 30240 40318 50003;EQDQ01  00002PRCP99
0131070390999992000012711004+99999+999999FM-12+999999999V0202001N002019999999N9999999N1+00241-00211103141ADDAA199000091MA1999999102371MD1810011+9999REMSYN060AAXX  2711  07039 36/// /2002 10024 21021 30237 40314 58001;EQDQ01  00002PRCP99
0131070390999992000012713004+99999+999999FM-12+999999999V0201701N002019999999N9999999N1+00681+00071103001ADDAA199000091MA1999999102241MD1810161+9999REMSYN060AAXX  2713  07039 36/// /1702 10068 20007 30224 40300 58016;EQDQ01  00002PRCP99
0131070390999992000012714004+99999+999999FM-12+999999999V0201401N002019999999N9999999N1+00701+00071102921ADDAA199000091MA1999999102161MD1810211+9999REMSYN060AAXX  2714  07039 36/// /1402 10070 20007 30216 40292 58021;EQDQ01  00002PRCP99
0131070390999992000012716004+99999+999999FM-12+999999999V0201701N002019999999N9999999N1+00421-00041102871ADDAA199000091MA1999999102101MD1610141+9999REMSYN060AAXX  2716  07039 36/// /1702 10042 21004 30210 40287 56014;EQDQ01  00002PRCP99
0131070390999992000012717004+99999+999999FM-12+999999999V0202901N004019999999N9999999N1+00241-00101102901ADDAA199000091MA1999999102131MD1510031+9999REMSYN060AAXX  2717  07039 36/// /2904 10024 21010 30213 40290 55003;EQDQ01  00002PRCP99
0131070390999992000012719004+99999+999999FM-12+999999999V0203301N002019999999N9999999N1-00091-00231102861ADDAA199000091MA1999999102081MD1810021+9999REMSYN060AAXX  2719  07039 36/// /3302 11009 21023 30208 40286 58002;EQDQ01  00002PRCP99
0131070390999992000012720004+99999+999999FM-12+999999999V0203601N002019999999N9999999N1-00181-00281102861ADDAA199000091MA1999999102081MD1610051+9999REMSYN060AAXX  2720  07039 36/// /3602 11018 21028 30208 40286 56005;EQDQ01  00002PRCP99
0131070390999992000012722004+99999+999999FM-12+999999999V0200101N002019999999N9999999N1-00341-00411102791ADDAA199000091MA1999999102001MD1810081+9999REMSYN060AAXX  2722  07039 36/// /0102 11034 21041 30200 40279 58008;EQDQ01  00002PRCP99
0131070390999992000012723004+99999+999999FM-12+999999999V0200301N002019999999N9999999N1-00391-00461102771ADDAA199000091MA1999999101981MD1610101+9999REMSYN060AAXX  2723  07039 36/// /0302 11039 21046 30198 40277 56010;EQDQ01  00002PRCP99
0131070390999992000012801004+99999+999999FM-12+999999999V0202501N002019999999N9999999N1-00351-00391102661ADDAA199000091MA1999999101871MD1810131+9999REMSYN060AAXX  2801  07039 36/// /2502 11035 21039 30187 40266 58013;EQDQ01  00002PRCP99
0131070390999992000012802004+99999+999999FM-12+999999999V0209999C000019999999N9999999N1-00431-00481102601ADDAA199000091MA1999999101811MD1810171+9999REMSYN060AAXX  2802  07039 36/// /0000 11043 21048 30181 40260 58017;EQDQ01  00002PRCP99
0131070390999992000012804004+99999+999999FM-12+999999999V0202601N002019999999N9999999N1-00181-00211102481ADDAA199000091MA1999999101701MD1610171+9999REMSYN060AAXX  2804  07039 36/// /2602 11018 21021 30170 40248 56017;EQDQ01  00002PRCP99
0131070390999992000012805004+99999+999999FM-12+999999999V0200301N002019999999N9999999N1-00241-00281102401ADDAA199000091MA1999999101621MD1810191+9999REMSYN060AAXX  2805  07039 36/// /0302 11024 21028 30162 40240 58019;EQDQ01  00002PRCP99
0131070390999992000012807004+99999+999999FM-12+999999999V0202501N004019999999N9999999N1+00051+00041102321ADDAA199000091MA1999999101551MD1610151+9999REMSYN060AAXX  2807  07039 36/// /2504 10005 20004 30155 40232 56015;EQDQ01  00002PRCP99
0131070390999992000012808004+99999+999999FM-12+999999999V0201901N004019999999N9999999N1+00081+00051102261ADDAA199000091MA1999999101491MD1710131+9999REMSYN060AAXX  2808  07039 36/// /1904 10008 20005 30149 40226 57013;EQDQ01  00002PRCP99
0122070390999992000012810004+99999+999999FM-12+999999999V0202001N004019999999N9999999N1+00241+00231102191ADDAA101000191MA1999999101421MD1610131+9999REMSYN070AAXX  2810  07039 26/// /2004 10024 20023 30142 40219 56013 333 69925;
0131070390999992000012813004+99999+999999FM-12+999999999V0202401N008019999999N9999999N1+00731+00431101911ADDAA199000091MA1999999101161MD1810261+9999REMSYN060AAXX  2813  07039 36/// /2408 10073 20043 30116 40191 58026;EQDQ01  00002PRCP99
0122070390999992000012814004+99999+999999FM-12+999999999V0202401N010019999999N9999999N1+00751+00561101821ADDAA101000191MA1999999101071MD1610331+9999REMSYN070AAXX  2814  07039 26/// /2410 10075 20056 30107 40182 56033 333 69925;
0131070390999992000012816004+99999+999999FM-12+999999999V0202401N010019999999N9999999N1+00721+00581101691ADDAA199000091MA1999999100941MD1610221+9999REMSYN060AAXX  2816  07039 36/// /2410 10072 20058 30094 40169 56022;EQDQ01  00002PRCP99
0131070390999992000012817004+99999+999999FM-12+999999999V0202401N010019999999N9999999N1+00691+00581101641ADDAA199000091MA1999999100891MD1610181+9999REMSYN060AAXX  2817  07039 36/// /2410 10069 20058 30089 40164 56018;EQDQ01  00002PRCP99
0131070390999992000012819004+99999+999999FM-12+999999999V0202401N008019999999N9999999N1+00751+00581101521ADDAA199000091MA1999999100771MD1810171+9999REMSYN060AAXX  2819  07039 36/// /2408 10075 20058 30077 40152 58017;EQDQ01  00002PRCP99
0131070390999992000012820004+99999+999999FM-12+999999999V0202401N010019999999N9999999N1+00811+00561101451ADDAA199000091MA1999999100701MD1810191+9999REMSYN060AAXX  2820  07039 36/// /2410 10081 20056 30070 40145 58019;EQDQ01  00002PRCP99
0122070390999992000012823004+99999+999999FM-12+999999999V0202501N010019999999N9999999N1+00771+00651101231ADDAA101000891MA1999999100491MD1610211+9999REMSYN070AAXX  2823  07039 26/// /2510 10077 20065 30049 40123 56021 333 69985;
0122070390999992000012901004+99999+999999FM-12+999999999V0202501N014019999999N9999999N1+00801+00721101041ADDAA101002091MA1999999100301MD1810251+9999REMSYN070AAXX  2901  07039 26/// /2514 10080 20072 30030 40104 58025 333 60025;
0122070390999992000012902004+99999+999999FM-12+999999999V0202601N014019999999N9999999N1+00851+00811100951ADDAA101002091MA1999999100211MD1610281+9999REMSYN070AAXX  2902  07039 26/// /2614 10085 20081 30021 40095 56028 333 60025;
0134070390999992000012904004+99999+999999FM-12+999999999V0202801N016019999999N9999999N1+00991+00941100861ADDAA101000491MA1999999100121MD1610181+9999REMSYN082AAXX  2904  07039 26/// /2816 10099 20094 30012 40086 56018 333 69945 91029 91131;
0128070390999992000012905004+99999+999999FM-12+999999999V0202801N016019999999N9999999N1+01001+00841100841ADDAA101000291MA1999999100101MD1610111+9999REMSYN076AAXX  2905  07039 26/// /2816 10100 20084 30010 40084 56011 333 69925 91027;
0134070390999992000012907004+99999+999999FM-12+999999999V0202801N016019999999N9999999N1+00981+00921100831ADDAA101000291MA1999999100091MD1610031+9999REMSYN082AAXX  2907  07039 26/// /2816 10098 20092 30009 40083 56003 333 69925 91027 91131;
0128070390999992000012908004+99999+999999FM-12+999999999V0202701N014019999999N9999999N1+00991+00911100861ADDAA101000291MA1999999100121MD1310021+9999REMSYN076AAXX  2908  07039 26/// /2714 10099 20091 30012 40086 53002 333 69925 91133;
0141070390999992000012910004+99999+999999FM-12+999999999V0202701N014019999999N9999999N1+01031+00841100891ADDAA199000091MA1999999100161MD1210071+9999REMSYN070AAXX  2910  07039 36/// /2714 10103 20084 30016 40089 52007 333 91137;EQDQ01  00002PRCP99
0147070390999992000012911004+99999+999999FM-12+999999999V0202901N017019999999N9999999N1+01021+00851100991ADDAA199000091MA1999999100251MD1310131+9999REMSYN076AAXX  2911  07039 36/// /2917 10102 20085 30025 40099 53013 333 91033 91135;EQDQ01  00002PRCP99
0134070390999992000012913004+99999+999999FM-12+999999999V0202901N017019999999N9999999N1+01021+00881100971ADDAA101000291MA1999999100231MD1110071+9999REMSYN082AAXX  2913  07039 26/// /2917 10102 20088 30023 40097 51007 333 69925 91037 91137;
0141070390999992000012914004+99999+999999FM-12+999999999V0202901N014019999999N9999999N1+01011+00901100971ADDAA199000091MA1999999100231MD1610021+9999REMSYN070AAXX  2914  07039 36/// /2914 10101 20090 30023 40097 56002 333 91141;EQDQ01  00002PRCP99
0147070390999992000012916004+99999+999999FM-12+999999999V0202801N017019999999N9999999N1+01021+00931100991ADDAA199000091MA1999999100251MD1210021+9999REMSYN076AAXX  2916  07039 36/// /2817 10102 20093 30025 40099 52002 333 91029 91133;EQDQ01  00002PRCP99
0147070390999992000012917004+99999+999999FM-12+999999999V0202801N021019999999N9999999N1+01061+00941101041ADDAA199000091MA1999999100301MD1310071+9999REMSYN076AAXX  2917  07039 36/// /2821 10106 20094 30030 40104 53007 333 91035 91139;EQDQ01  00002PRCP99
0141070390999992000012919004+99999+999999FM-12+999999999V0202901N014019999999N9999999N1+01081+00921101211ADDAA199000091MA1999999100471MD1110221+9999REMSYN070AAXX  2919  07039 36/// /2914 10108 20092 30047 40121 51022 333 91137;EQDQ01  00002PRCP99
0147070390999992000012920004+99999+999999FM-12+999999999V0202901N017019999999N9999999N1+01101+00941101261ADDAA199000091MA1999999100521MD1110221+9999REMSYN076AAXX  2920  07039 36/// /2917 10110 20094 30052 40126 51022 333 91031 91133;EQDQ01  00002PRCP99
0141070390999992000012922004+99999+999999FM-12+999999999V0202901N017019999999N9999999N1+01111+00921101431ADDAA199000091MA1999999100691MD1310221+9999REMSYN070AAXX  2922  07039 36/// /2917 10111 20092 30069 40143 53022 333 91133;EQDQ01  00002PRCP99
0134070390999992000012923004+99999+999999FM-12+999999999V0203001N016019999999N9999999N1+01091+00981101461ADDAA101000291MA1999999100721MD1110201+9999REMSYN082AAXX  2923  07039 26/// /3016 10109 20098 30072 40146 51020 333 69925 91031 91133;
0147070390999992000013001004+99999+999999FM-12+999999999V0203001N017019999999N9999999N1+01101+00991101531ADDAA199000091MA1999999100791MD1110101+9999REMSYN076AAXX  3001  07039 36/// /3017 10110 20099 30079 40153 51010 333 91033 91137;EQDQ01  00002PRCP99
0141070390999992000013002004+99999+999999FM-12+999999999V0203001N014019999999N9999999N1+01111+00971101601ADDAA199000091MA1999999100861MD1310141+9999REMSYN070AAXX  3002  07039 36/// /3014 10111 20097 30086 40160 53014 333 91137;EQDQ01  00002PRCP99
0147070390999992000013005004+99999+999999FM-12+999999999V0202901N016019999999N9999999N1+01101+01011101821ADDAA199000091MA1999999101081MD1310221+9999REMSYN076AAXX  3005  07039 36/// /2916 10110 20101 30108 40182 53022 333 91033 91135;EQDQ01  00002PRCP99
0131070390999992000013007004+99999+999999FM-12+999999999V02099999999999999999N9999999N1+01091+00921101951ADDAA199000091MA1999999101211MD1310241+9999REMSYN060AAXX  3007  07039 36/// ///// 10109 20092 30121 40195 53024;EQDQ01  00002PRCP99
0131070390999992000013008004+99999+999999FM-12+999999999V02099999999999999999N9999999N1+01101+00931102041ADDAA199000091MA1999999101301MD1310221+9999REMSYN060AAXX  3008  07039 36/// ///// 10110 20093 30130 40204 53022;EQDQ01  00002PRCP99
0131070390999992000013010004+99999+999999FM-12+999999999V02099999999999999999N9999999N1+01091+00921102211ADDAA199000091MA1999999101471MD1110261+9999REMSYN060AAXX  3010  07039 36/// ///// 10109 20092 30147 40221 51026;EQDQ01  00002PRCP99
0131070390999992000013011004+99999+999999FM-12+999999999V02099999999999999999N9999999N1+01111+00881102251ADDAA199000091MA1999999101511MD1110211+9999REMSYN060AAXX  3011  07039 36/// ///// 10111 20088 30151 40225 51021;EQDQ01  00002PRCP99
0131070390999992000013013004+99999+999999FM-12+999999999V02099999999999999999N9999999N1+01171+00871102231ADDAA199000091MA1999999101491MD1010021+9999REMSYN060AAXX  3013  07039 36/// ///// 10117 20087 30149 40223 50002;EQDQ01  00002PRCP99
0131070390999992000013014004+99999+999999FM-12+999999999V02099999999999999999N9999999N1+01111+00881102211ADDAA199000091MA1999999101471MD1810041+9999REMSYN060AAXX  3014  07039 36/// ///// 10111 20088 30147 40221 58004;EQDQ01  00002PRCP99
0131070390999992000013016004+99999+999999FM-12+999999999V02099999999999999999N9999999N1+01031+00921102281ADDAA199000091MA1999999101541MD1310051+9999REMSYN060AAXX  3016  07039 36/// ///// 10103 20092 30154 40228 53005;EQDQ01  00002PRCP99
0131070390999992000013017004+99999+999999FM-12+999999999V02099999999999999999N9999999N1+01021+00901102311ADDAA199000091MA1999999101561MD1110091+9999REMSYN060AAXX  3017  07039 36/// ///// 10102 20090 30156 40231 51009;EQDQ01  00002PRCP99
0131070390999992000013019004+99999+999999FM-12+999999999V02099999999999999999N9999999N1+01011+00821102301ADDAA199000091MA1999999101551MD1010011+9999REMSYN060AAXX  3019  07039 36/// ///// 10101 20082 30155 40230 50001;EQDQ01  00002PRCP99
0131070390999992000013020004+99999+999999FM-12+999999999V02099999999999999999N9999999N1+01011+00821102371ADDAA199000091MA1999999101621MD1310061+9999REMSYN060AAXX  3020  07039 36/// ///// 10101 20082 30162 40237 53006;EQDQ01  00002PRCP99
0131070390999992000013022004+99999+999999FM-12+999999999V02099999999999999999N9999999N1+01011+00751102421ADDAA199000091MA1999999101671MD1110121+9999REMSYN060AAXX  3022  07039 36/// ///// 10101 20075 30167 40242 51012;EQDQ01  00002PRCP99
0131070390999992000013023004+99999+999999FM-12+999999999V02099999999999999999N9999999N1+00961+00721102441ADDAA199000091MA1999999101691MD1210071+9999REMSYN060AAXX  3023  07039 36/// ///// 10096 20072 30169 40244 52007;EQDQ01  00002PRCP99
0131070390999992000013101004+99999+999999FM-12+999999999V02099999999999999999N9999999N1+01011+00801102481ADDAA199000091MA1999999101731MD1110061+9999REMSYN060AAXX  3101  07039 36/// ///// 10101 20080 30173 40248 51006;EQDQ01  00002PRCP99
0131070390999992000013102004+99999+999999FM-12+999999999V02099999999999999999N9999999N1+01001+00841102511ADDAA199000091MA1999999101761MD1110071+9999REMSYN060AAXX  3102  07039 36/// ///// 10100 20084 30176 40251 51007;EQDQ01  00002PRCP99
