0131073350999992000010100004+46580+000320FM-12+0120LFBI V0202501N002119999999N9999999N1+00691+00661102631ADDAA106000091MA1999999101151MD1310091+9999REMSYN060AAXX  01004 07335 36/// /2504 10069 20066 30115 40263 53009;EQDQ01  00002PRCP06
0131073350999992000010101004+46580+000320FM-12+0120LFBI V0202401N002119999999N9999999N1+00701+00671102611ADDAA106000091MA1999999101131MD1010051+9999REMSYN060AAXX  01014 07335 36/// /2404 10070 20067 30113 40261 50005;EQDQ01  00002PRCP06
0131073350999992000010102004+46580+000320FM-12+0120LFBI V0202301N002119999999N9999999N1+00721+00691102621ADDAA106000091MA1999999101141MD1110021+9999REMSYN060AAXX  01024 07335 36/// /2304 10072 20069 30114 40262 51002;EQDQ01  00002PRCP06
0131073350999992000010103004+46580+000320FM-12+0120LFBI V0202301N001019999999N0019001N1+00741+00711102651ADDAA106000091MA1999999101171MD1310021+9999REMSYN060AAXX  01034 07335 36/19 /2302 10074 20071 30117 40265 53002;EQDQ01  00002PRCP06
0131073350999992000010104004+46580+000320FM-12+0120LFBI V0202101N002119999999N0018001N1+00741+00711102641ADDAA106000091MA1999999101161MD1010031+9999REMSYN060AAXX  01044 07335 36/18 /2104 10074 20071 30116 40264 50003;EQDQ01  00002PRCP06
0292073350999992000010105004+46580+000320SY-MT+0120LFBI V0202801N003110006019N0025001N1+00791+00781102671ADDAA101999929AY161999AY251999GA1081+000609999GF108991081071000751999999MA1102611101191MD1210051+9999MW1511MW2581REMSYN088AAXX  01054 07335 21125 82806 10079 20078 30119 40267 52005 75865 887// 333 69905 88702;MET057LFBI 010500Z 28005KT 2500 -DZRA OVC002 08/08 Q1026 NOSIG;EQDQ01    003PRSWM1
0420073350999992000010106004+46580+000320SY-MT+0120LFBI V0202601N003110006019N0025001N1+00791+00781102681ADDAA103000491AA224001291AY161061AY251061GA1071+000609999GA2071+002709999GF108991081071000751999999GJ100009IA1119IA2999+00609KA1999M+00851KA2999N+00691MA1102611101201MD1310031+9999MW1511MW2581REMSYN130AAXX  01064 07335 /1125 82606 10079 20078 30120 40268 53003 69942 75865 887// 333 10085 20069 32006 55000 69947 70012 86702 87709;MET064LFBI 010600Z 26005KT 2500 -DZRA BKN002 BKN009 08/08 Q1026 NOSIG;EQDQ01    003PRSWM1
0292073350999992000010107004+46580+000320SY-MT+0120LFBI V0202801N002110006019N0050001N1+00781+00771102741ADDAA101999929AY161999AY261999GA1081+000609999GF108991081071000751999999MA1102711101261MD1310101+9999MW1511MW2581REMSYN088AAXX  01074 07335 21150 82804 10078 20077 30126 40274 53010 75866 887// 333 69905 88702;MET057LFBI 010700Z 28004KT 5000 -DZRA OVC002 08/08 Q1027 NOSIG;EQDQ01    003PRSWM1
0292073350999992000010108004+46580+000320SY-MT+0120LFBI V0203001N003110006019N0030001N1+00801+00791102791ADDAA101999929AY161999AY261999GA1081+000609999GF108991081071000751999999MA1102711101311MD1310121+9999MW1511MW2581REMSYN088AAXX  01084 07335 21130 83006 10080 20079 30131 40279 53012 75866 887// 333 69905 88702;MET057LFBI 010800Z 30007KT 3000 -DZRA OVC002 08/08 Q1027 NOSIG;EQDQ01    003PRSWM1
0292073350999992000010109004+46580+000320SY-MT+0120LFBI V0202901N001010006019N0030001N1+00821+00791102841ADDAA103999929AY161031AY261031GA1081+000609999GF108991081071000751999999MA1102811101361MD1110161+9999MW1511MW2581REMSYN088AAXX  01094 07335 21130 82902 10082 20079 30136 40284 51016 75866 887// 333 69907 88702;MET057LFBI 010900Z 29003KT 3000 -DZRA OVC002 08/08 Q1028 NOSIG;EQDQ01    003PRSWM1
0338073350999992000010110004+46580+000320SY-MT+0120LFBI V0202401N00211018001CN0030001N1+00871+00841102881ADDAA101999929AY161999AY251999GA1021+000609999GA2021+003909999GA3071+018009999GF107991071051000751999999MA1102811101401MD1110141+9999MW1211REMSYN100AAXX  01104 07335 21130 72404 10087 20084 30140 40288 51014 72165 875// 333 69905 83702 83613 86656;MET065LFBI 011000Z 24003KT 3000 SCT002 SCT013 BKN060 09/09 Q1028 NOSIG;EQDQ01    003PRSWM1
0262073350999992000010111004+46580+000320SY-MT+0120LFBI V0202501N002110006019N0030001N1+00941+00861102861ADDAA106000021GA1071+000609999GA2071+003909999GF107991071051000751999999MA1102811101391MD1010081+9999MW1001REMSYN082AAXX  01114 07335 32130 72504 10094 20086 30139 40286 50008 875// 333 86702 86613;MET058LFBI 011100Z 24005KT 3000 BKN002 BKN013 09/09 Q1028 NOSIG;
0315073350999992000010112004+46580+000320SY-MT+0120LFBI V0202601N002110009019N0050001N1+00931+00851102851ADDAA103000291AY161061AY251061GA1071+000909999GA2071+005409999GF108991081051000751999999MA1102811101381MD1010021+9999MW1201REMSYN100AAXX  01124 07335 /1150 82604 10093 20085 30138 40285 50002 69921 72065 885// 333 69927 85703 87618;MET058LFBI 011200Z 26003KT 5000 BKN003 BKN018 09/09 Q1028 NOSIG;EQDQ01    003PRSWM1
0262073350999992000010113004+46580+000320SY-MT+0120LFBI V0202501N002110048019N0080001N1+00971+00911102831ADDAA106000021GA1021+000909999GA2071+004809999GF107991071051001501999999MA1102811101361MD1810041+9999MW1001REMSYN082AAXX  01134 07335 32258 72504 10097 20091 30136 40283 58004 875// 333 83703 86616;MET058LFBI 011300Z 25004KT 8000 SCT003 BKN016 10/09 Q1028 NOSIG;
0262073350999992000010114004+46580+000320SY-MT+0120LFBI V0202801N002110099019N0120001N1+00971+00861102821ADDAA106000021GA1021+001509999GA2071+009909999GF107991071081001501999999MA1102711101351MD1710041+9999MW1001REMSYN082AAXX  01144 07335 32262 72804 10097 20086 30135 40282 57004 878// 333 82805 87633;MET058LFBI 011400Z 28004KT 9999 FEW005 BKN033 10/09 Q1027 NOSIG;
0262073350999992000010115004+46580+000320SY-MT+0120LFBI V0202601N002110099019N0200001N1+00981+00871102831ADDAA106000021GA1021+002409999GA2071+009909999GF107991071081002501999999MA1102811101361MD1510021+9999MW1001REMSYN082AAXX  01154 07335 32370 72604 10098 20087 30136 40283 55002 878// 333 83808 87633;MET058LFBI 011500Z 26003KT 9999 SCT008 BKN033 10/09 Q1028 NOSIG;
0262073350999992000010116004+46580+000320SY-MT+0120LFBI V0202401N003110114019N0200001N1+00861+00771102861ADDAA106000021GA1021+003009999GA2071+011409999GF107991071081004501999999MA1102811101381MD1310021+9999MW1001REMSYN082AAXX  01164 07335 32470 72406 10086 20077 30138 40286 53002 878// 333 81810 87638;MET058LFBI 011600Z 24005KT 9999 FEW010 BKN038 09/08 Q1028 NOSIG;
0112073350999992000010117004+46580+000320FM-12+0120LFBI V0202601N002119999999N9999999N1+00801+00771102881ADDAA106000021MA1999999101401MD1310051+9999REMSYN060AAXX  01174 07335 36/// /2604 10080 20077 30140 40288 53005;
0160073350999992000010118004+46580+000320FM-12+0120LFBI V0202601N002119999999N9999999N1+00791+00751102911ADDAA112000191KA1999M+01001KA2999N+00731MA1999999101431MD1310071+9999REMSYN082AAXX  01184 07335 16/// /2604 10079 20075 30143 40291 53007 69922 333 10100 20073;
0131073350999992000010119004+46580+000320FM-12+0120LFBI V0202601N002119999999N9999999N1+00751+00691102951ADDAA106000091MA1999999101471MD1310091+9999REMSYN060AAXX  01194 07335 36/// /2604 10075 20069 30147 40295 53009;EQDQ01  00002PRCP06
0131073350999992000010120004+46580+000320FM-12+0120LFBI V0202501N002119999999N9999999N1+00731+00691102951ADDAA106000091MA1999999101461MD1010061+9999REMSYN060AAXX  01204 07335 36/// /2504 10073 20069 30146 40295 50006;EQDQ01  00002PRCP06
0131073350999992000010121004+46580+000320FM-12+0120LFBI V0202201N001019999999N9999999N1+00751+00721102951ADDAA106000091MA1999999101471MD1110041+9999REMSYN060AAXX  01214 07335 36/// /2202 10075 20072 30147 40295 51004;EQDQ01  00002PRCP06
0131073350999992000010122004+46580+000320FM-12+0120LFBI V0202301N001019999999N9999999N1+00751+00721102971ADDAA106000091MA1999999101491MD1310021+9999REMSYN060AAXX  01224 07335 36/// /2302 10075 20072 30149 40297 53002;EQDQ01  00002PRCP06
0131073350999992000010123004+46580+000320FM-12+0120LFBI V0209999C000019999999N9999999N1+00771+00741102981ADDAA106000091MA1999999101501MD1210041+9999REMSYN060AAXX  01234 07335 36/// /0000 10077 20074 30150 40298 52004;EQDQ01  00002PRCP06
0131073350999992000010200004+46580+000320FM-12+0120LFBI V0201501N001019999999N9999999N1+00771+00741102981ADDAA106000091MA1999999101501MD1110031+9999REMSYN060AAXX  02004 07335 36/// /1502 10077 20074 30150 40298 51003;EQDQ01  00002PRCP06
0122073350999992000010202004+46580+000320FM-12+0120LFBI V0202101N001019999999N0017001N1+00771+00761102971ADDAA101000191MA1999999101491MD1710011+9999REMSYN070AAXX  02024 07335 26/17 /2102 10077 20076 30149 40297 57001 333 69925;
0122073350999992000010203004+46580+000320FM-12+0120LFBI V0202201N001019999999N0005001N1+00761+00751102981ADDAA103000191MA1999999101501MD1510001+9999REMSYN070AAXX  02034 07335 26/05 /2202 10076 20075 30150 40298 55000 333 69927;
0131073350999992000010204004+46580+000320FM-12+0120LFBI V0202101N001019999999N0004001N1+00761+00751102981ADDAA106000091MA1999999101501MD1210011+9999REMSYN060AAXX  02044 07335 36/04 /2102 10076 20075 30150 40298 52001;EQDQ01  00002PRCP06
0343073350999992000010205004+46580+000320SY-MT+0120LFBI V0202201N001010006019N0012001N1+00771+00761102991ADDAA101000291AY151999AY221999ED199U14009GA1071+000609999GA2081+003009999GF108991081071000751999999MA1102911101511MD1210021+9999MW1501MW2511REMSYN094AAXX  02054 07335 21112 82202 10077 20076 30151 40299 52002 75052 887// 333 69925 86702 88710;MET075LFBI 020500Z 22002KT 1200 R21/1400N -DZ BR BKN002 OVC010 08/08 Q1029 NOSIG;EQDQ01    003PRSWM1
0422073350999992000010206004+46580+000320SY-MT+0120LFBI V0201901N001010006019N0010001N1+00781+00771103001ADDAA103000491AA224000891AY151061AY221061ED199U20009GA1081+000609999GF108991081071000751999999GJ100009IA1119IA2999+00609KA1999M+00791KA2999N+00721MA1102911101521MD1310021+9999MW1511REMSYN124AAXX  02064 07335 /1110 81902 10078 20077 30152 40300 53002 69962 75152 887// 333 10079 20072 32006 55000 69947 70008 88702;MET083LFBI 020600Z 19002KT 1000 R21/P2000 -DZ BR OVC002 08/08 Q1029 TEMPO 0500 FG OVC001;EQDQ01    003PRSWM1
0325073350999992000010207004+46580+000320SY-MT+0120LFBI V0209999C000010006019N0010001N1+00771+00761103001ADDAA101999929AY151999AY221999ED199U13009GA1081+000609999GF108991081061000751999999MA1102911101521MD1110021+9999MW1101MW2201REMSYN088AAXX  02074 07335 21110 80000 10077 20076 30152 40300 51002 72052 886// 333 69905 88702;MET079LFBI 020700Z 00000KT 1000 R21/1300N BR OVC002 08/08 Q1029 TEMPO 0500 FG OVC001;EQDQ01    003PRSWM1
0309073350999992000010208004+46580+000320SY-MT+0120LFBI V0202301N001010006019N0013001N1+00781+00771103031ADDAA106000021AY121999AY221999GA1081+000609999GF108991081071000751999999MA1103011101551MD1310041+9999MW1101REMSYN082AAXX  02084 07335 31113 82302 10078 20077 30155 40303 53004 71022 887// 333 88702;MET086LFBI 020800Z 22002KT 1300 R21/1500VP2000U BR OVC002 08/08 Q1030 TEMPO 1000 -DZ OVC002;EQDQ01    003PRSWM1
0312073350999992000010209004+46580+000320SY-MT+0120LFBI V0202301N001010006019N0030001N1+00811+00801103051ADDAA103999929AY151031AY221031GA1071+000609999GA2071+003909999GF108991081061000751999999MA1103011101571MD1310051+9999MW1101REMSYN094AAXX  02094 07335 21130 82302 10081 20080 30157 40305 53005 71052 886// 333 69907 87702 85613;MET061LFBI 020900Z 23002KT 3000 BR BKN002 BKN013 08/08 Q1030 NOSIG;EQDQ01    003PRSWM1
0318073350999992000010210004+46580+000320SY-MT+0120LFBI V0202301N001010006019N0045001N1+00851+00841103101ADDAA106000021AY121999AY221999GA1071+000609999GA2071+003609999GF108991081061000751999999MA1103011101621MD1310101+9999MW1101REMSYN088AAXX  02104 07335 31145 82302 10085 20084 30162 40310 53010 71022 886// 333 87702 85612;MET073LFBI 021000Z 23002KT 4500 BR BKN002 BKN012 09/09 Q1030 BECMG 6000 BKN003;EQDQ01    003PRSWM1
0271073350999992000010211004+46580+000320SY-MT+0120LFBI V0202601N002110006019N0050001N1+00931+00921103081ADDAA106000021GA1071+000609999GF107991071061000751999999MA1103011101601MD1010051+9999MW1001REMSYN076AAXX  02114 07335 32150 72604 10093 20092 30160 40308 50005 876// 333 87702;MET070LFBI 021100Z 26003KT 5000 BKN002 09/09 Q1030 BECMG 8000 BKN005 BKN015;EQDQ01+000000PRSWM2
0344073350999992000010212004+46580+000320SY-MT+0120LFBI V0202301N001010042019N0070001N1+00961+00871103031ADDAA106000791AY151061AY221061GA1021+001509999GA2071+004209999GF108991081061001501999999MA1103011101561MD1810011+9999MW1011REMSYN094AAXX  02124 07335 11257 82302 10096 20087 30156 40303 58001 69901 70152 886// 333 84705 87614;MET077LFBI 021200Z 23002KT 7000 SCT005 BKN014 10/09 Q1030 BECMG 9999 SCT010 BKN020;EQDQ01+000000PRSWM2Q02    003PRSWM1
0344073350999992000010213004+46580+000320SY-MT+0120LFBI V0209999C000010006019N0090001N1+00991+00881102991ADDAA101999929AY151999AY221999GA1071+000609999GA2071+003009999GF108991081051000751999999MA1102911101521MD1810101+9999MW1201REMSYN094AAXX  02134 07335 21159 80000 10099 20088 30152 40299 58010 72052 885// 333 69905 85702 87610;MET077LFBI 021300Z 00000KT 9000 BKN002 BKN010 10/09 Q1029 BECMG 9999 BKN010 BKN020;EQDQ01+000000PRSWM2Q02    003PRSWM1
0316073350999992000010214004+46580+000320SY-MT+0120LFBI V0209999C000010006019N0030001N1+00971+00911102951ADDAA101000291AY161999AY251999GA1071+000609999GA2071+003309999GF108991081051000751999999MA1102911101481MD1710121+9999MW1511REMSYN094AAXX  02144 07335 21130 80000 10097 20091 30148 40295 57012 75165 885// 333 69925 86702 87611;MET065LFBI 021400Z 00000KT 3000 -DZ BR BKN002 BKN011 10/09 Q1029 NOSIG;EQDQ01    003PRSWM1
0322073350999992000010215004+46580+000320SY-MT+0120LFBI V0209999C000010006019N0030001N1+00981+00921102931ADDAA103000291AY161031AY251031GA1071+000609999GA2071+001809999GF108991081071000751999999MA1102911101461MD1610101+9999MW1501MW2511REMSYN094AAXX  02154 07335 21130 80000 10098 20092 30146 40293 56010 75065 887// 333 69927 85702 85706;MET065LFBI 021500Z 00000KT 3000 -DZ BR BKN002 BKN006 10/09 Q1029 NOSIG;EQDQ01    003PRSWM1
0321073350999992000010216004+46580+000320SY-MT+0120LFBI V0201401N002110009019N0018001N1+00921+00891102941ADDAA101000691AY151999AY251999GA1071+000909999GA2071+001809999GF108991081071000751999999MA1102911101471MD1510051+9999MW1521MW2531REMSYN094AAXX  02164 07335 21118 81404 10092 20089 30147 40294 55005 75255 887// 333 69965 86703 85706;MET064LFBI 021600Z 14004KT 1800 DZ BR BKN003 BKN006 09/09 Q1029 NOSIG;EQDQ01    003PRSWM1
0122073350999992000010217004+46580+000320FM-12+0120LFBI V0201601N002119999999N9999999N1+00901+00871102951ADDAA101000191MA1999999101471MD1610011+9999REMSYN070AAXX  02174 07335 26/// /1604 10090 20087 30147 40295 56001 333 69925;
0096073350999992000010305004+46580+000320FM-12+0120LFBI V0201801N002119999999N9999999N1+00701+00631999999ADDAA106000091REMSYN054AAXX  03054 07335 36/// /1804 10070 20063 3//// 4////;EQDQ01  00002PRCP06
0361073350999992000010306004+46580+000320SY-MT+0120LFBI V0201701N002110063019N0200001N1+00711+00641102871ADDAA106000091AA224001291GA1081+006309999GF108991081051008001999999GJ100009IA1119IA2999+00609KA1999M+00891KA2999N+00681MA1102811101381MD1410001+9999MW1001REMSYN106AAXX  03064 07335 32570 81704 10071 20064 30138 40287 54003 885// 333 10089 20068 32006 55000 70012 88621;MET051LFBI 030600Z 17004KT 9999 OVC021 07/06 Q1028 NOSIG;EQDQ01+000000PRSWM2Q02  00002PRCP06
0268073350999992000010307004+46580+000320SY-MT+0120LFBI V0201901N002110060019N0200001N1+00701+00611102891ADDAA106000091GA1081+006009999GF108991081051008001999999MA1102811101401MD1410001+9999MW1001REMSYN076AAXX  03074 07335 32570 81904 10070 20061 30140 40289 54001 885// 333 88620;MET051LFBI 030700Z 19004KT 9999 OVC020 07/06 Q1028 NOSIG;EQDQ01+000000PRSWM2Q02  00002PRCP06
0248073350999992000010308004+46580+000320SY-MT+0120LFBI V0202001N003110072019N0200001N1+00691+00581102911ADDAA106000091GA1081+007209999GF108991081051008001999999MA1102811101421MW1001REMSYN070AAXX  03084 07335 32570 82006 10069 20058 30142 40291 885// 333 88624;MET051LFBI 030800Z 20005KT 9999 OVC024 07/06 Q1028 NOSIG;EQDQ01+000000PRSWM2Q02  00002PRCP06
0297073350999992000010309004+46580+000320SY-MT+0120LFBI V0202001N003110078019N0200001N1+00721+00601102941ADDAA106000091GA1071+007809999GA2071+013509999GF107991071051008001999999MA1102911101451MD1310071+9999MW1001REMSYN082AAXX  03094 07335 32570 72006 10072 20060 30145 40294 53007 875// 333 85626 87645;MET058LFBI 030900Z 20005KT 9999 BKN026 BKN045 07/06 Q1029 NOSIG;EQDQ01+000000PRSWM2Q02  00002PRCP06
0297073350999992000010310004+46580+000320SY-MT+0120LFBI V0201801N002110129019N0200001N1+00781+00641102951ADDAA106000091GA1021+008409999GA2071+012909999GF107991071051008001999999MA1102911101471MD1210071+9999MW1001REMSYN082AAXX  03104 07335 32570 71804 10078 20064 30147 40295 52007 875// 333 83628 87643;MET058LFBI 031000Z 18004KT 9999 SCT028 BKN043 08/06 Q1029 NOSIG;EQDQ01+000000PRSWM2Q02  00002PRCP06
0268073350999992000010311004+46580+000320SY-MT+0120LFBI V0201801N003110120019N0200001N1+00851+00731102911ADDAA106000091GA1071+012009999GF107991071051012501999999MA1102811101431MD1010011+9999MW1001REMSYN076AAXX  03114 07335 32670 71806 10085 20073 30143 40291 50001 875// 333 87640;MET051LFBI 031100Z 18005KT 9999 BKN040 09/07 Q1028 NOSIG;EQDQ01+000000PRSWM2Q02  00002PRCP06
0305073350999992000010312004+46580+000320SY-MT+0120LFBI V0201801N003112200019N0250001N1+00981+00691102811ADDAA106000091GA1021+003309999GA2021+012909999GF103991031081004501001011MA1102711101341MD1810111+9999MW1001REMSYN082AAXX  03124 07335 32475 31806 10098 20069 30134 40281 58011 83801 333 81811 83643;MET066LFBI 031200Z 18006KT 150V220 9999 FEW011 SCT043 10/07 Q1027 NOSIG;EQDQ01+000000PRSWM2Q02  00002PRCP06
0268073350999992000010313004+46580+000320SY-MT+0120LFBI V0202201N005112200019N0250001N1+01061+00641102751ADDAA106000091GA1021+005409999GF103991031081004501001011MA1102711101281MD1810191+9999MW1001REMSYN076AAXX  03134 07335 32475 32210 10106 20064 30128 40275 58019 83801 333 83818;MET051LFBI 031300Z 22009KT 9999 SCT018 11/06 Q1027 NOSIG;EQDQ01+000000PRSWM2Q02  00002PRCP06
0284073350999992000010314004+46580+000320SY-MT+0120LFBI V0202301N004110063019N0300001N1+00971+00591102691ADDAA106000091GA1071+006309999GF199999061021008001001011MA1102611101221MD1610211+9999MW1001REMSYN076AAXX  03144 07335 32580 62308 10097 20059 30122 40269 56021 86201 333 86821;MET051LFBI 031400Z 23008KT 9999 BKN021 10/06 Q1026 NOSIG;EQDQ01+000062SCOTCVQ02+000000PRSWM2Q03  00002PRCP06
0268073350999992000010315004+46580+000320SY-MT+0120LFBI V0202101N004110084019N0300001N1+00981+00481102671ADDAA106000091GA1071+008409999GF107991071051008001999999MA1102611101201MD1610141+9999MW1001REMSYN076AAXX  03154 07335 32580 72108 10098 20048 30120 40267 56014 875// 333 87628;MET051LFBI 031500Z 21008KT 9999 BKN028 10/05 Q1026 NOSIG;EQDQ01+000000PRSWM2Q02  00002PRCP06
0268073350999992000010316004+46580+000320SY-MT+0120LFBI V0202201N003110090019N0250001N1+00941+00521102671ADDAA106000091GA1071+009009999GF107991071051008001999999MA1102611101201MD1610081+9999MW1001REMSYN076AAXX  03164 07335 32575 72206 10094 20052 30120 40267 56008 875// 333 87630;MET051LFBI 031600Z 22006KT 9999 BKN030 09/05 Q1026 NOSIG;EQDQ01+000000PRSWM2Q02  00002PRCP06
0268073350999992000010317004+46580+000320SY-MT+0120LFBI V0202101N003110090019N0250001N1+00891+00531102701ADDAA106000091GA1071+009009999GF107991071051008001999999MA1102611101231MD1310011+9999MW1001REMSYN076AAXX  03174 07335 32575 72106 10089 20053 30123 40270 53001 875// 333 87630;MET051LFBI 031700Z 21006KT 9999 BKN030 09/05 Q1026 NOSIG;EQDQ01+000000PRSWM2Q02  00002PRCP06
0322073350999992000010318004+46580+000320SY-MT+0120LFBI V0202001N003110099019N0250001N1+00701+00471102701ADDAA106000091GA1071+009909999GF199999061051012501001001KA1999M+01081KA2999N+00691MA1102611101221MD1010021+9999MW1001REMSYN088AAXX  03184 07335 32675 62006 10070 20047 30122 40270 50002 86500 333 10108 20069 86633;MET051LFBI 031800Z 20005KT 9999 BKN033 07/05 Q1026 NOSIG;EQDQ01+000062SCOTCVQ02+000000PRSWM2Q03  00002PRCP06
0131073350999992000010319004+46580+000320FM-12+0120LFBI V0201901N003119999999N9999999N1+00651+00501102701ADDAA106000091MA1999999101211MD1010011+9999REMSYN060AAXX  03194 07335 36/// /1906 10065 20050 30121 40270 50001;EQDQ01  00002PRCP06
0131073350999992000010320004+46580+000320FM-12+0120LFBI V0201801N003119999999N9999999N1+00591+00471102681ADDAA106000091MA1999999101191MD1810041+9999REMSYN060AAXX  03204 07335 36/// /1806 10059 20047 30119 40268 58004;EQDQ01  00002PRCP06
0131073350999992000010321004+46580+000320FM-12+0120LFBI V0201901N004119999999N9999999N1+00581+00441102671ADDAA106000091MA1999999101181MD1710041+9999REMSYN060AAXX  03214 07335 36/// /1908 10058 20044 30118 40267 57004;EQDQ01  00002PRCP06
0131073350999992000010322004+46580+000320FM-12+0120LFBI V0202001N005119999999N9999999N1+00601+00451102621ADDAA106000091MA1999999101131MD1810081+9999REMSYN060AAXX  03224 07335 36/// /2010 10060 20045 30113 40262 58008;EQDQ01  00002PRCP06
0131073350999992000010323004+46580+000320FM-12+0120LFBI V0202001N005119999999N9999999N1+00591+00451102611ADDAA106000091MA1999999101121MD1710071+9999REMSYN060AAXX  03234 07335 36/// /2010 10059 20045 30112 40261 57007;EQDQ01  00002PRCP06
0131073350999992000010400004+46580+000320FM-12+0120LFBI V0202001N004119999999N9999999N1+00601+00481102581ADDAA106000091MA1999999101091MD1610091+9999REMSYN060AAXX  04004 07335 36/// /2008 10060 20048 30109 40258 56009;EQDQ01  00002PRCP06
0131073350999992000010401004+46580+000320FM-12+0120LFBI V0202001N005119999999N9999999N1+00631+00491102531ADDAA106000091MA1999999101041MD1810091+9999REMSYN060AAXX  04014 07335 36/// /2010 10063 20049 30104 40253 58009;EQDQ01  00002PRCP06
0131073350999992000010402004+46580+000320FM-12+0120LFBI V0202101N004119999999N9999999N1+00631+00511102541ADDAA106000091MA1999999101051MD1510071+9999REMSYN060AAXX  04024 07335 36/// /2108 10063 20051 30105 40254 55007;EQDQ01  00002PRCP06
0131073350999992000010403004+46580+000320FM-12+0120LFBI V0202001N005119999999N9999999N1+00581+00481102481ADDAA106000091MA1999999100991MD1810101+9999REMSYN060AAXX  04034 07335 36/// /2010 10058 20048 30099 40248 58010;EQDQ01  00002PRCP06
0131073350999992000010404004+46580+000320FM-12+0120LFBI V0202001N005119999999N9999999N1+00541+00451102481ADDAA106000091MA1999999100991MD1810051+9999REMSYN060AAXX  04044 07335 36/// /2010 10054 20045 30099 40248 58005;EQDQ01  00002PRCP06
0256073350999992000010405004+46580+000320SY-MT+0120LFBI V0202001N005110180019N0150001N1+00551+00451102431ADDAA106000091GA1071+018009059GF108991071051017501999999MA1102301100941MD1610111+9999MW1001REMSYN076AAXX  04054 07335 32765 82010 10055 20045 30094 40243 56011 875// 333 87656;MET039LFBI 040500Z 20010KT CAVOK 06/05 Q1023;EQDQ01+000000PRSWM2Q02  00002PRCP06
0349073350999992000010406004+46580+000320SY-MT+0120LFBI V0202001N005110045019N0100001N1+00581+00481102451ADDAA106000091AA224000091GA1071+004509999GF108991071051004501999999GJ100909IA2999+00309KA1999M+00701KA2999N+00541MA1102401100961MD1510031+9999MW1001REMSYN106AAXX  04064 07335 32460 82010 10058 20048 30096 40245 55003 875// 333 10070 20054 3/003 55015 70000 87615;MET045LFBI 040600Z 20009KT 9999 BKN015 06/05 Q1024;EQDQ01+000000PRSWM2Q02  00002PRCP06
0297073350999992000010407004+46580+000320SY-MT+0120LFBI V0202001N007210045019N0150001N1+00601+00501102401ADDAA106000091GA1021+002409999GA2071+004509999GF108991081051002501999999MA1102301100921MD1610071+9999MW1001REMSYN082AAXX  04074 07335 32365 82014 10060 20050 30092 40240 56007 885// 333 81708 87615;MET058LFBI 040700Z 20013KT 9999 FEW008 BKN015 06/05 Q1023 NOSIG;EQDQ01+000000PRSWM2Q02  00002PRCP06
0275073350999992000010408004+46580+000320SY-MT+0120LFBI V0201901N006210045019N0080001N1+00591+00491102431ADDAA106000091GA1021+001809999GA2071+004509999GF107991999999999999999999MA1102301100941MD1410001+9999MW1001REMSYN060AAXX  04084 07335 36/// /1912 10059 20049 30094 40243 54000;MET058LFBI 040800Z 19010KT 8000 SCT006 BKN015 06/05 Q1023 NOSIG;EQDQ01+000000PRSWM2Q02  00002PRCP06
0173073350999992000010409004+46580+000320FM-15+0120LFBI V0202001N004110018019N0060001N1+00601+00601999999ADDGA1071+001809999GF107991999999999999999999MA1102401999999MW1001REMMET079LFBI 040900Z 20008KT 6000 BKN006 06/06 Q1024 TEMPO 20015G25KT 3000 DZRA OVC005;EQDQ01+000000PRSWM2
0319073350999992000010410004+46580+000320SY-MT+0120LFBI V0202101N005110006019N0050001N1+00731+00641102461ADDAA101999929AY161999AY251999GA1071+000609999GA2071+004509999GF108991071051000751999999MA1102401100981MD1210061+9999MW1501MW2511REMSYN094AAXX  04104 07335 21150 82110 10073 20064 30098 40246 52006 75065 875// 333 69905 85702 87615;MET062LFBI 041000Z 21010KT 5000 -DZ BKN002 BKN015 07/06 Q1024 NOSIG;EQDQ01    003PRSWM1
0319073350999992000010411004+46580+000320SY-MT+0120LFBI V0202101N006210009019N0040001N1+00761+00701102451ADDAA101000291AY161999AY251999GA1071+000909999GA2071+004509999GF108991071051001501999999MA1102401100971MD1010031+9999MW1511MW2581REMSYN094AAXX  04114 07335 21240 82112 10076 20070 30097 40245 50003 75865 875// 333 69925 86703 87615;MET062LFBI 041100Z 21011KT 4000 -DZ BKN003 BKN015 08/07 Q1024 NOSIG;EQDQ01    003PRSWM1
0272073350999992000010412004+46580+000320SY-MT+0120LFBI V0202101N007210009019N0050001N1+00801+00761102361ADDAA103000191GA1071+000909999GF107991999999999999999999MA1102301100891MD1810071+9999MW1511REMSYN076AAXX  04124 07335 /6/// /2114 10080 20076 30089 40236 58007 69921 333 69927;MET055LFBI 041200Z 21013KT 5000 -DZ BKN003 08/08 Q1023 NOSIG;EQDQ01+000003PRSWM1Q02    003PRSWM1
0293073350999992000010413004+46580+000320SY-MT+0120LFBI V0202101N006210006019N0035001N1+00841+00801102311ADDAA101999929AY151999AY221999GA1081+000609999GF108991081071000751999999MA1102201100841MD1810141+9999MW1201MW2511REMSYN088AAXX  04134 07335 21135 82112 10084 20080 30084 40231 58014 72052 887// 333 69905 88702;MET058LFBI 041300Z 21011KT 3500 -DZ BR OVC002 08/08 Q1022 NOSIG;EQDQ01    003PRSWM1
0293073350999992000010414004+46580+000320SY-MT+0120LFBI V0202201N006210012019N0035001N1+00911+00861102321ADDAA101999929AY151999AY251999GA1081+001209999GF108991081071001501999999MA1102201100851MD1510121+9999MW1501MW2511REMSYN088AAXX  04144 07335 21235 82212 10091 20086 30085 40232 55012 75055 887// 333 69905 88704;MET058LFBI 041400Z 22012KT 3500 -DZ BR OVC004 09/09 Q1022 NOSIG;EQDQ01    003PRSWM1
0293073350999992000010415004+46580+000320SY-MT+0120LFBI V0202201N006210012019N0033001N1+00941+00891102301ADDAA103999929AY151031AY251031GA1081+001209999GF108991081071001501999999MA1102201100841MD1610051+9999MW1501MW2511REMSYN088AAXX  04154 07335 21233 82212 10094 20089 30084 40230 56005 75055 887// 333 69907 88704;MET058LFBI 041500Z 22011KT 3300 -DZ BR OVC004 09/09 Q1022 NOSIG;EQDQ01    003PRSWM1
0289073350999992000010416004+46580+000320SY-MT+0120LFBI V0202201N006210012019N0040001N1+00971+00921102311ADDAA101999929AY151999AY221999GA1071+001209999GF108991081071001501999999MA1102201100851MD1210011+9999MW1101MW2201REMSYN088AAXX  04164 07335 21240 82212 10097 20092 30085 40231 52001 72052 887// 333 69905 87704;MET054LFBI 041600Z 22011KT 4000 BR BKN004 10/09 Q1022 NOSIG;EQDQ01    003PRSWM1
0293073350999992000010417004+46580+000320SY-MT+0120LFBI V0202201N006210009019N0030001N1+00961+00911102311ADDAA101999929AY151999AY221999GA1071+000909999GF108991081071001501999999MA1102201100851MD1510001+9999MW1501MW2511REMSYN088AAXX  04174 07335 21230 82212 10096 20091 30085 40231 55000 75052 887// 333 69905 87703;MET058LFBI 041700Z 22011KT 3000 -DZ BR BKN003 10/09 Q1022 NOSIG;EQDQ01    003PRSWM1
0337073350999992000010418004+46580+000320SY-MT+0120LFBI V0202201N006210006019N0045001N1+00961+00931102351ADDAA103000291AY151061AY221061GA1071+000609999GF108991081071000751999999KA1999M+00971KA2999N+00571MA1102301100891MD1310051+9999MW1501MW2511REMSYN106AAXX  04184 07335 /1145 82212 10096 20093 30089 40235 53005 69942 75052 887// 333 10097 20057 69927 87702;MET058LFBI 041800Z 22011KT 4500 -DZ BR BKN002 10/09 Q1023 NOSIG;EQDQ01    003PRSWM1
0122073350999992000010419004+46580+000320FM-12+0120LFBI V0202201N005119999999N0016001N1+01011+00981102391ADDAA101000191MA1999999100931MD1310081+9999REMSYN070AAXX  04194 07335 26/16 /2210 10101 20098 30093 40239 53008 333 69925;
0122073350999992000010420004+46580+000320FM-12+0120LFBI V0202201N004119999999N9999999N1+01021+00991102411ADDAA101000591MA1999999100951MD1110101+9999REMSYN070AAXX  04204 07335 26/// /2208 10102 20099 30095 40241 51010 333 69965;
0122073350999992000010421004+46580+000320FM-12+0120LFBI V0202301N005119999999N9999999N1+01041+01011102431ADDAA103001091MA1999999100971MD1110081+9999REMSYN070AAXX  04214 07335 26/// /2310 10104 20101 30097 40243 51008 333 60017;
0122073350999992000010422004+46580+000320FM-12+0120LFBI V0202301N004119999999N9999999N1+01041+01011102451ADDAA101000191MA1999999100991MD1210061+9999REMSYN070AAXX  04224 07335 26/// /2308 10104 20101 30099 40245 52006 333 69925;
0122073350999992000010423004+46580+000320FM-12+0120LFBI V0202501N003119999999N9999999N1+01031+01001102501ADDAA101000191MA1999999101041MD1310091+9999REMSYN070AAXX  04234 07335 26/// /2506 10103 20100 30104 40250 53009 333 69925;
0128073350999992000010500004+46580+000320FM-12+0120LFBI V0202601N002119999999N9999999N1+01021+00991102491ADDAA103000591MA1999999101031MD1010061+9999REMSYN076AAXX  05004 07335 /6/// /2604 10102 20099 30103 40249 50006 60011 333 69947;
0122073350999992000010501004+46580+000320FM-12+0120LFBI V0202701N003119999999N9999999N1+00901+00871102491ADDAA101000791MA1999999101021MD1010031+9999REMSYN070AAXX  05014 07335 26/// /2706 10090 20087 30102 40249 50003 333 69905;
0122073350999992000010502004+46580+000320FM-12+0120LFBI V0202301N002119999999N9999999N1+00841+00811102461ADDAA101000791MA1999999100991MD1810051+9999REMSYN070AAXX  05024 07335 26/// /2304 10084 20081 30099 40246 58005 333 69905;
0122073350999992000010503004+46580+000320FM-12+0120LFBI V0202401N002119999999N9999999N1+00731+00701102481ADDAA103000791MA1999999101001MD1510031+9999REMSYN070AAXX  05034 07335 26/// /2404 10073 20070 30100 40248 55003 333 69907;
0122073350999992000010504004+46580+000320FM-12+0120LFBI V0202301N003119999999N0002001N1+00751+00741102461ADDAA101000791MA1999999100981MD1610041+9999REMSYN070AAXX  05044 07335 26/02 /2306 10075 20074 30098 40246 56004 333 69905;
0321073350999992000010505004+46580+000320SY-MT+0120LFBI V0202101N003110003019N0003001N1+00721+00711102461ADDAA101999929AY141999AY221999ED199U06009GA1081+000309999GF108991081061000251999999MA1102401100981MD1810011+9999MW1441MW2461REMSYN088AAXX  05054 07335 21003 82106 10072 20071 30098 40246 58001 74642 886// 333 69905 88701;MET075LFBI 050500Z 21005KT 0300 R21/0600N FG OVC001 07/07 Q1024 TEMPO 0150 VV///;EQDQ01    003PRSWM1
0408073350999992000010506004+46580+000320SY-MT+0120LFBI V0202101N001010003019N0003001N1+00721+00711102411ADDAA112001091AA224001891AY141061AY221061ED199U05509GA1081+000309999GF108991081061000251999999GJ100009IA1099IA2999+00509KA1999M+01041KA2999N+00701MA1102301100931MD1810071+9999MW1441REMSYN118AAXX  05064 07335 11003 82102 10072 20071 30093 40241 58007 60012 74442 886// 333 10104 20070 31005 55000 70018 88701;MET075LFBI 050600Z 21003KT 0300 R21/0550N FG OVC001 07/07 Q1023 TEMPO 0150 VV///;EQDQ01    003PRSWM1
0321073350999992000010507004+46580+000320SY-MT+0120LFBI V0202101N002110003019N0005001N1+00731+00721102391ADDAA101000291AY141999AY241999ED199U07009GA1081+000309999GF108991081061000251999999MA1102301100911MD1810071+9999MW1421MW2441REMSYN088AAXX  05074 07335 21005 82104 10073 20072 30091 40239 58007 74244 886// 333 69925 88701;MET075LFBI 050700Z 21004KT 0500 R21/0700N FG OVC001 07/07 Q1023 TEMPO 0150 VV///;EQDQ01    003PRSWM1
0314073350999992000010508004+46580+000320SY-MT+0120LFBI V0201901N003110003019N0003001N1+00661+00651102371ADDAA106000091AY141999AY241999GA1081+000309999GF108991081061000251999999MA1102301100891MD1610091+9999MW1441MW2461REMSYN082AAXX  05084 07335 31003 81906 10066 20065 30089 40237 56009 74644 886// 333 88701;MET069LFBI 050800Z 19005KT 0300 R21/0350V0500N FG OVC001 07/07 Q1023 NOSIG;EQDQ01  00002PRCP06Q02    003PRSWM1
0304073350999992000010509004+46580+000320SY-MT+0120LFBI V0201701N003110003019N0003001N1+00731+00721102411ADDAA103000291AY141031AY241031ED199U06009GA1081+000309999GF108991081061000251999999MA1102301100931MD1510001+9999MW1441REMSYN088AAXX  05094 07335 21003 81706 10073 20072 30093 40241 55000 74444 886// 333 69927 88701;MET064LFBI 050900Z 17006KT 0300 R21/0600N FG OVC001 07/07 Q1023 NOSIG;EQDQ01    003PRSWM1
0306073350999992000010510004+46580+000320SY-MT+0120LFBI V0202001N003110015019N0050001N1+00811+00801102401ADDAA106000091AY141999AY221999GA1071+001509999GF107991071061001501999999MA1102301100931MD1310021+9999MW1281REMSYN082AAXX  05104 07335 31250 72006 10081 20080 30093 40240 53002 72842 876// 333 87705;MET051LFBI 051000Z 20005KT 5000 BKN005 08/08 Q1023 NOSIG;EQDQ01+000000PRSWM2Q02  00002PRCP06Q03    003PRSWM1
0145073350999992000010511004+46580+000320FM-15+0120LFBI V0201801N003610021019N0060001N1+00901+00801999999ADDGA1071+002109999GF107991999999999999999999MA1102301999999MW1001REMMET051LFBI 051100Z 18007KT 6000 BKN007 09/08 Q1023 NOSIG;EQDQ01+000000PRSWM2
0325073350999992000010512004+46580+000320SY-MT+0120LFBI V0201901N004110027019N0080001N1+00971+00851102261ADDAA106000191AY141061AY221061GA1071+002709999GA2071+004509999GF107991071051002501999999MA1102201100801MD1810131+9999MW1011REMSYN094AAXX  05124 07335 11358 71908 10097 20085 30080 40226 58013 69921 70142 875// 333 85709 87615;MET058LFBI 051200Z 19008KT 8000 BKN009 BKN015 10/09 Q1022 NOSIG;EQDQ01+000000PRSWM2Q02    003PRSWM1
0284073350999992000010513004+46580+000320SY-MT+0120LFBI V0202101N005110036019N0100001N1+01031+00821102171ADDAA106000091GA1071+003609999GF199999061011004501001021MA1102101100711MD1810221+9999MW1001REMSYN076AAXX  05134 07335 32460 62110 10103 20082 30071 40217 58022 86102 333 86812;MET051LFBI 051300Z 21009KT 9999 BKN012 10/08 Q1021 NOSIG;EQDQ01+000062SCOTCVQ02+000000PRSWM2Q03  00002PRCP06
0268073350999992000010514004+46580+000320SY-MT+0120LFBI V0202001N004110036019N0100001N1+01021+00801102101ADDAA106000091GA1071+003609999GF107991071011004501999999MA1102001100641MD1610251+9999MW1001REMSYN076AAXX  05144 07335 32460 72008 10102 20080 30064 40210 56025 871// 333 87812;MET051LFBI 051400Z 20007KT 9999 BKN012 10/08 Q1020 NOSIG;EQDQ01+000000PRSWM2Q02  00002PRCP06
0297073350999992000010515004+46580+000320SY-MT+0120LFBI V0201801N003110030019N0100001N1+00981+00791102061ADDAA106000091GA1071+003009999GA2071+010509999GF107991071081004501999999MA1102001100601MD1610201+9999MW1001REMSYN082AAXX  05154 07335 32460 71806 10098 20079 30060 40206 56020 878// 333 85810 85635;MET058LFBI 051500Z 18006KT 9999 BKN010 BKN035 10/08 Q1020 NOSIG;EQDQ01+000000PRSWM2Q02  00002PRCP06
0268073350999992000010516004+46580+000320SY-MT+0120LFBI V0201901N001010030019N0100001N1+00911+00791101991ADDAA106000091GA1071+003009999GF107991071051004501999999MA1101901100531MD1710181+9999MW1001REMSYN076AAXX  05164 07335 32460 71902 10091 20079 30053 40199 57018 875// 333 87610;MET051LFBI 051600Z 19002KT 9999 BKN010 09/08 Q1019 NOSIG;EQDQ01+000000PRSWM2Q02  00002PRCP06
0268073350999992000010517004+46580+000320SY-MT+0120LFBI V0201201N001010036019N0100001N1+00731+00621101981ADDAA106000091GA1071+003609999GF107991071051004501999999MA1101901100511MD1610131+9999MW1001REMSYN076AAXX  05174 07335 32460 71202 10073 20062 30051 40198 56013 875// 333 87612;MET051LFBI 051700Z 12001KT 9999 BKN012 07/06 Q1019 NOSIG;EQDQ01+000000PRSWM2Q02  00002PRCP06
0145073350999992000010518004+46580+000320FM-15+0120LFBI V0201401N002110045019N0080001N1+00801+00701999999ADDGA1071+004509999GF107991999999999999999999MA1101901999999MW1001REMMET051LFBI 051800Z 14004KT 8000 BKN015 08/07 Q1019 NOSIG;EQDQ01+000000PRSWM2
0131073350999992000010519004+46580+000320FM-12+0120LFBI V0201601N003119999999N9999999N1+00691+00631101921ADDAA106000091MA1999999100451MD1710081+9999REMSYN060AAXX  05194 07335 36/// /1606 10069 20063 30045 40192 57008;EQDQ01  00002PRCP06
0131073350999992000010521004+46580+000320FM-12+0120LFBI V0201601N002119999999N9999999N1+00701+00631101911ADDAA106000091MA1999999100441MD1610031+9999REMSYN060AAXX  05214 07335 36/// /1604 10070 20063 30044 40191 56003;EQDQ01  00002PRCP06
0131073350999992000010522004+46580+000320FM-12+0120LFBI V0201501N002119999999N9999999N1+00651+00591101871ADDAA106000091MA1999999100401MD1810051+9999REMSYN060AAXX  05224 07335 36/// /1504 10065 20059 30040 40187 58005;EQDQ01  00002PRCP06
0131073350999992000010601004+46580+000320FM-12+0120LFBI V0201701N002119999999N0016001N1+00441+00411101791ADDAA106000091MA1999999100311MD1810091+9999REMSYN060AAXX  06014 07335 36/16 /1704 10044 20041 30031 40179 58009;EQDQ01  00002PRCP06
0131073350999992000010602004+46580+000320FM-12+0120LFBI V0201001N001019999999N9999999N1+00401+00371101821ADDAA106000091MA1999999100331MD1510051+9999REMSYN060AAXX  06024 07335 36/// /1002 10040 20037 30033 40182 55005;EQDQ01  00002PRCP06
0122073350999992000010603004+46580+000320FM-12+0120LFBI V0201501N002119999999N9999999N1+00451+00421101831ADDAA103000191MA1999999100351MD1310011+9999REMSYN070AAXX  06034 07335 26/// /1504 10045 20042 30035 40183 53001 333 69927;
0131073350999992000010604004+46580+000320FM-12+0120LFBI V0201501N002119999999N9999999N1+00451+00421101821ADDAA106000091MA1999999100341MD1010031+9999REMSYN060AAXX  06044 07335 36/// /1504 10045 20042 30034 40182 50003;EQDQ01  00002PRCP06
0227073350999992000010605004+46580+000320SY-MT+0120LFBI V0201901N004112200019N0080001N1+00481+00451101831ADDAA106000091GF100991001001999999001001MA1101691100351MD1110021+9999MW1001REMSYN060AAXX  06054 07335 32958 01908 10048 20045 30035 40183 51002;MET042LFBI 060500Z 19007KT 8000 SKC 05/05 Q1017;EQDQ01+000000PRSWM2Q02  00002PRCP06
0306073350999992000010606004+46580+000320SY-MT+0120LFBI V0202001N004112200019N0100001N1+00541+00451101861ADDAA112000191GF100991001001999999001001GJ100069IA1099IA2999-00109KA1999M+00781KA2999N+00351MA1101801100381MD1310031+9999MW1001REMSYN100AAXX  06064 07335 12960 02008 10054 20045 30038 40186 53003 69922 333 10078 20035 31101 55001 70004;MET045LFBI 060600Z 20008KT CAVOK 05/05 Q1018 NOSIG;EQDQ01+000000PRSWM2
0262073350999992000010607004+46580+000320SY-MT+0120LFBI V0202001N004112200019N0100001N1+00511+00411101941ADDAA106000091GA1011+030009079GF101991011001999999031011MA1101801100461MD1310121+9999MW1001REMSYN076AAXX  06074 07335 32960 12008 10051 20041 30046 40194 53012 81031 333 81360;MET045LFBI 060700Z 20008KT CAVOK 05/04 Q1018 NOSIG;EQDQ01+000000PRSWM2Q02  00002PRCP06
0246073350999992000010608004+46580+000320SY-MT+0120LFBI V0202001N004112200019N0100001N1+00511+00391102011ADDAA106000091GF101991011001999999031011MA1101901100531MD1310181+9999MW1001REMSYN076AAXX  06084 07335 32960 12008 10051 20039 30053 40201 53018 81031 333 81360;MET045LFBI 060800Z 20008KT CAVOK 05/04 Q1019 NOSIG;EQDQ01+000000PRSWM2Q02  00002PRCP06
0262073350999992000010609004+46580+000320SY-MT+0120LFBI V0202101N005112200019N0100001N1+00621+00441102131ADDAA106000091GA1011+030009079GF102991011001999999031011MA1102001100651MD1310271+9999MW1001REMSYN076AAXX  06094 07335 32960 22110 10062 20044 30065 40213 53027 81031 333 81360;MET045LFBI 060900Z 21010KT CAVOK 06/04 Q1020 NOSIG;EQDQ01+000000PRSWM2Q02  00002PRCP06
0268073350999992000010610004+46580+000320SY-MT+0120LFBI V0202101N006212200019N0150001N1+00751+00511102161ADDAA106000091GA1011+030009039GF104991011001999999031021MA1102101100691MD1110231+9999MW1001REMSYN082AAXX  06104 07335 32965 42112 10075 20051 30069 40216 51023 81032 333 81360 83075;MET045LFBI 061000Z 21011KT CAVOK 07/05 Q1021 NOSIG;EQDQ01+000000PRSWM2Q02  00002PRCP06
0246073350999992000010611004+46580+000320SY-MT+0120LFBI V0202101N005112200019N0120001N1+00911+00621102191ADDAA106000091GF103991011001999999031021MA1102101100721MD1110191+9999MW1001REMSYN076AAXX  06114 07335 32962 32110 10091 20062 30072 40219 51019 81032 333 81360;MET045LFBI 061100Z 21009KT CAVOK 09/06 Q1021 NOSIG;EQDQ01+000000PRSWM2Q02  00002PRCP06
0246073350999992000010612004+46580+000320SY-MT+0120LFBI V0202201N005119999999N0120001N1+00951+00661102201ADDAA106000091GF105991031001999999031021MA1102101100741MD1110091+9999MW1001REMSYN076AAXX  06124 07335 32962 52210 10095 20066 30074 40220 51009 83032 333 83360;MET045LFBI 061200Z 22010KT CAVOK 10/07 Q1021 NOSIG;EQDQ01+000000PRSWM2Q02  00002PRCP06
0268073350999992000010613004+46580+000320SY-MT+0120LFBI V0202201N006219999999N0150001N1+01071+00721102211ADDAA106000091GA1011+030009039GF105991011001999999031021MA1102101100751MD1110061+9999MW1001REMSYN082AAXX  06134 07335 32965 52212 10107 20072 30075 40221 51006 81032 333 81360 84075;MET045LFBI 061300Z 22011KT CAVOK 11/07 Q1021 NOSIG;EQDQ01+000000PRSWM2Q02  00002PRCP06
0268073350999992000010614004+46580+000320SY-MT+0120LFBI V0202201N005119999999N0120001N1+01021+00731102231ADDAA106000091GA1021+030009039GF107991021001999999031021MA1102201100771MD1210051+9999MW1001REMSYN082AAXX  06144 07335 32962 72210 10102 20073 30077 40223 52005 82032 333 82360 87075;MET045LFBI 061400Z 22009KT CAVOK 10/07 Q1022 NOSIG;EQDQ01+000000PRSWM2Q02  00002PRCP06
0284073350999992000010615004+46580+000320SY-MT+0120LFBI V0202101N004110750019N0100001N1+01011+00751102261ADDAA106000091GA1021+030009079GA2071+075009019GF107991021001999999031021MA1102201100801MD1310061+9999MW1001REMSYN082AAXX  06154 07335 32960 72108 10101 20075 30080 40226 53006 82032 333 82360 87075;MET045LFBI 061500Z 21008KT CAVOK 10/08 Q1022 NOSIG;EQDQ01+000000PRSWM2Q02  00002PRCP06
0268073350999992000010616004+46580+000320SY-MT+0120LFBI V0202101N003119999999N0100001N1+00981+00721102271ADDAA106000091GA1031+030009039GF107991031001999999031021MA1102201100811MD1110061+9999MW1001REMSYN082AAXX  06164 07335 32960 72106 10098 20072 30081 40227 51006 83032 333 83360 86075;MET045LFBI 061600Z 21006KT CAVOK 10/07 Q1022 NOSIG;EQDQ01+000000PRSWM2Q02  00002PRCP06
0268073350999992000010617004+46580+000320SY-MT+0120LFBI V0202001N004119999999N0100001N1+00901+00681102321ADDAA106000091GA1041+030009039GF107991031001999999031021MA1102201100851MD1310081+9999MW1001REMSYN082AAXX  06174 07335 32960 72008 10090 20068 30085 40232 53008 83032 333 84360 85075;MET045LFBI 061700Z 20007KT CAVOK 09/07 Q1022 NOSIG;EQDQ01+000000PRSWM2Q02  00002PRCP06
0335073350999992000010618004+46580+000320SY-MT+0120LFBI V0202101N004110300019N0090001N1+00871+00671102381ADDAA106000091GA1021+015009999GA2071+030009999GF107991041051017501031999KA1999M+01121KA2999N+00491MA1102301100911MD1310111+9999MW1001REMSYN094AAXX  06184 07335 32759 72108 10087 20067 30091 40238 53011 8453/ 333 10112 20049 84650 85360;MET058LFBI 061800Z 21007KT 9000 SCT053 BKN100 09/07 Q1023 NOSIG;EQDQ01+000000PRSWM2Q02  00002PRCP06
0131073350999992000010620004+46580+000320FM-12+0120LFBI V0202201N003119999999N9999999N1+00851+00651102451ADDAA106000091MA1999999100981MD1110131+9999REMSYN060AAXX  06204 07335 36/// /2206 10085 20065 30098 40245 51013;EQDQ01  00002PRCP06
0131073350999992000010621004+46580+000320FM-12+0120LFBI V0202201N003119999999N9999999N1+00861+00641102441ADDAA106000091MA1999999100971MD1010061+9999REMSYN060AAXX  06214 07335 36/// /2206 10086 20064 30097 40244 50006;EQDQ01  00002PRCP06
0122073350999992000010622004+46580+000320FM-12+0120LFBI V0202901N002119999999N9999999N1+00811+00731102551ADDAA101000591MA1999999101071MD1310141+9999REMSYN070AAXX  06224 07335 26/// /2904 10081 20073 30107 40255 53014 333 69965;
0122073350999992000010623004+46580+000320FM-12+0120LFBI V0203301N002119999999N9999999N1+00761+00721102621ADDAA101000191MA1999999101141MD1310161+9999REMSYN070AAXX  06234 07335 26/// /3304 10076 20072 30114 40262 53016 333 69925;
0128073350999992000010700004+46580+000320FM-12+0120LFBI V0202401N001019999999N9999999N1+00721+00681102601ADDAA103000891MA1999999101121MD1010151+9999REMSYN076AAXX  07004 07335 /6/// /2402 10072 20068 30112 40260 50015 69981 333 69987;
0131073350999992000010701004+46580+000320FM-12+0120LFBI V0202701N001019999999N0002001N1+00531+00471102641ADDAA106000091MA1999999101151MD1110081+9999REMSYN060AAXX  07014 07335 36/02 /2702 10053 20047 30115 40264 51008;EQDQ01  00002PRCP06
0131073350999992000010702004+46580+000320FM-12+0120LFBI V0203201N001019999999N0002001N1+00391+00351102691ADDAA106000091MA1999999101191MD1310051+9999REMSYN060AAXX  07024 07335 36/02 /3202 10039 20035 30119 40269 53005;EQDQ01  00002PRCP06
0131073350999992000010703004+46580+000320FM-12+0120LFBI V0202301N001019999999N0000001N1+00411+00401102701ADDAA106000091MA1999999101201MD1110081+9999REMSYN060AAXX  07034 07335 36/00 /2302 10041 20040 30120 40270 51008;EQDQ01  00002PRCP06
0131073350999992000010704004+46580+000320FM-12+0120LFBI V0209999C000019999999N0008001N1+00411+00401102711ADDAA106000091MA1999999101211MD1110061+9999REMSYN060AAXX  07044 07335 36/08 /0000 10041 20040 30121 40271 51006;EQDQ01  00002PRCP06
0275073350999992000010705004+46580+000320SY-MT+0120LFBI V0201701N001012200019N0020001N1+00251+00241102711ADDAA106000091AY101999AY201999GF100991001001999999001001MA1102611101201MD1010011+9999MW1111MW2121REMSYN066AAXX  07054 07335 31920 01702 10025 20024 30120 40271 50001 71100;MET062LFBI 070500Z 17001KT 2000 R21/0800V1700U MIFG SKC 03/02 Q1026;EQDQ01  00002PRCP06Q02    003PRSWM1
0373073350999992000010706004+46580+000320SY-MT+0120LFBI V0201701N00211000151CN0003001N1+00191+00181102741ADDAA112000891AY141061AY211061ED199U03509GA1091+000159999GF109991091999000151999999GJ100009IA1099IA2999-00109KA1999M+00891KA2999N+00171MA1102611101231MD1310031+9999MW1451MW2471REMSYN106AAXX  07064 07335 11/03 91704 10019 20018 30123 40274 53003 69982 74741 333 10089 20017 31101 55000 70008;MET057LFBI 070600Z 17003KT 0300 R21/0350N FG VV/// 02/02 Q1026;EQDQ01    003PRSWM1
0297073350999992000010707004+46580+000320SY-MT+0120LFBI V0201701N001010001519N0001001N1+00221+00211102761ADDAA106000091AY141011AY241011ED199U05509GA1091+000159999GF109991091999000151999999MA1102611101251MD1310041+9999MW1451MW2471REMSYN066AAXX  07074 07335 31/01 91702 10022 20021 30125 40276 53004 74744;MET057LFBI 070700Z 17002KT 0100 R21/0550D FG VV/// 02/02 Q1026;EQDQ01  00002PRCP06Q02    003PRSWM1
0291073350999992000010708004+46580+000320SY-MT+0120LFBI V0201701N00211000151CN0002001N1+00431+00421102761ADDAA101000191AY141999AY241999GA1091+000159999GF109991091999000151999999MA1102711101261MD1110061+9999MW1451MW2471REMSYN076AAXX  07084 07335 21/02 91704 10043 20042 30126 40276 51006 74744 333 69925;MET068LFBI 070800Z 17004KT 0200 R21/0400V0500N FG VV/// 04/04 Q1027 NOSIG;EQDQ01    003PRSWM1
0291073350999992000010709004+46580+000320SY-MT+0120LFBI V0201901N00211000151CN0002001N1+00481+00471102791ADDAA103000191AY141031AY241031ED199U04009GA1091+000159999GF109991091999000151999999MA1102711101291MD1310061+9999MW1451REMSYN076AAXX  07094 07335 21/02 91904 10048 20047 30129 40279 53006 74544 333 69927;MET063LFBI 070900Z 19004KT 0200 R21/0400N FG VV/// 05/05 Q1027 NOSIG;EQDQ01    003PRSWM1
0291073350999992000010710004+46580+000320SY-MT+0120LFBI V0202001N00211000151CN0002001N1+00531+00521102791ADDAA106000091AY141999AY241999GA1091+000159999GF109991091999000151999999MA1102711101301MD1210051+9999MW1451REMSYN066AAXX  07104 07335 31/02 92004 10053 20052 30130 40279 52005 74544;MET068LFBI 071000Z 20004KT 0200 R21/0250V0350N FG VV/// 05/05 Q1027 NOSIG;EQDQ01  00002PRCP06Q02    003PRSWM1
0311073350999992000010711004+46580+000320SY-MT+0120LFBI V0201901N00311000151CN0005001N1+00571+00561102771ADDAA106000091AY141999AY241999ED199U12009GA1091+000159999GF109991091999000151999999MA1102711101281MD1010021+9999MW1431MW2451REMSYN066AAXX  07114 07335 31/05 91906 10057 20056 30128 40277 50002 74344;MET071LFBI 071100Z 19005KT 160V230 0500 R21/1200U FG VV/// 06/06 Q1027 NOSIG;EQDQ01  00002PRCP06Q02    003PRSWM1
0312073350999992000010712004+46580+000320SY-MT+0120LFBI V0202101N002110006019N0007001N1+00611+00601102691ADDAA106000191AY141061AY241061GA1081+000609999GF108991081071000751999999MA1102611101201MD1810091+9999MW1421MW2441REMSYN088AAXX  07124 07335 11107 82104 10061 20060 30120 40269 58009 69921 74244 887// 333 88702;MET077LFBI 071200Z 21004KT 160V240 0700 R21/0750V1400U FG OVC002 06/06 Q1026 NOSIG;EQDQ01    003PRSWM1
0308073350999992000010713004+46580+000320SY-MT+0120LFBI V0202001N003110006019N0007001N1+00601+00591102621ADDAA106000091AY141999AY241999GA1081+000609999GF108991081061000751999999MA1102511101131MD1810171+9999MW1441REMSYN082AAXX  07134 07335 31107 82006 10060 20059 30113 40262 58017 74444 886// 333 88702;MET069LFBI 071300Z 20005KT 0700 R21/1000V1800U FG OVC002 06/06 Q1025 NOSIG;EQDQ01  00002PRCP06Q02    003PRSWM1
0217073350999992000010714004+46580+000320FM-12+0120LFBI V0202101N003110006019N0020001N1+00611+00601102581ADDAA106000091AY141999AY221999GA1081+000609069GF108991081061000751999999MA1999999101091MD1610191+9999MW1281REMSYN082AAXX  07144 07335 31120 82106 10061 20060 30109 40258 56019 72842 886// 333 88702;EQDQ01  00002PRCP06
0164073350999992000010714154+46580+000320FM-15+0120LFBI V0201701N002610006019N0020001N1+00601+00601999999ADDGA1081+000609999GF108991999999999999999999MA1102511999999MW1101REMMET054LFBI 071415Z 17005KT 2000 BR OVC002 06/06 Q1025 NOSIG;EQDQ01+000003PRSWM1Q02    003PRSWM1
0292073350999992000010715004+46580+000320SY-MT+0120LFBI V0201801N003110006019N0016001N1+00601+00591102551ADDAA106000091GA1081+000609999GF108991999999000751999999MA1102511101061MD1610141+9999MW1101REMSYN081AAXX  07154 07335 31116 81806 10060 20059 30106 40255 56014 1042 886// 333 88702;MET054LFBI 071500Z 18006KT 1600 BR OVC002 06/06 Q1025 NOSIG;EQDQ01+000003PRSWM1Q02  00002PRCP06Q03    003PRSWM1
0293073350999992000010716004+46580+000320SY-MT+0120LFBI V0201701N003110009019N0020001N1+00571+00561102491ADDAA106000091AY121999AY221999GA1081+000909999GF108991081061000751999999MA1102401101001MD1810131+9999MW1101REMSYN082AAXX  07164 07335 31120 81706 10057 20056 30100 40249 58013 71022 886// 333 88703;MET054LFBI 071600Z 17005KT 2000 BR OVC003 06/06 Q1024 NOSIG;EQDQ01  00002PRCP06Q02    003PRSWM1
0293073350999992000010717004+46580+000320SY-MT+0120LFBI V0201901N002110006019N0016001N1+00561+00551102491ADDAA106000091AY121999AY221999GA1081+000609999GF108991081061000751999999MA1102401101001MD1610091+9999MW1101REMSYN082AAXX  07174 07335 31116 81904 10056 20055 30100 40249 56009 71022 886// 333 88702;MET054LFBI 071700Z 19003KT 1600 BR OVC002 06/06 Q1024 NOSIG;EQDQ01  00002PRCP06Q02    003PRSWM1
0342073350999992000010718004+46580+000320SY-MT+0120LFBI V0201701N003110006019N0004001N1+00561+00551102451ADDAA112000191AY141061AY221061GA1081+000609999GF108991081061000751999999KA1999M+00631KA2999N+00171MA1102401100961MD1610101+9999MW1441MW2461REMSYN100AAXX  07184 07335 11104 81706 10056 20055 30096 40245 56010 69922 74642 886// 333 10063 20017 88702;MET069LFBI 071800Z 17006KT 0400 R21/0800V1300N FG OVC002 06/06 Q1024 NOSIG;EQDQ01    003PRSWM1
0131073350999992000010719004+46580+000320FM-12+0120LFBI V0201701N002119999999N0005001N1+00571+00561102441ADDAA106000091MA1999999100951MD1810051+9999REMSYN060AAXX  07194 07335 36/05 /1704 10057 20056 30095 40244 58005;EQDQ01  00002PRCP06
0131073350999992000010720004+46580+000320FM-12+0120LFBI V0201901N003119999999N0016001N1+00641+00631102391ADDAA106000091MA1999999100911MD1710091+9999REMSYN060AAXX  07204 07335 36/16 /1906 10064 20063 30091 40239 57009;EQDQ01  00002PRCP06
0131073350999992000010721004+46580+000320FM-12+0120LFBI V0202101N004119999999N0012001N1+00741+00731102391ADDAA106000091MA1999999100911MD1610051+9999REMSYN060AAXX  07214 07335 36/12 /2108 10074 20073 30091 40239 56005;EQDQ01  00002PRCP06
0131073350999992000010722004+46580+000320FM-12+0120LFBI V0202101N004119999999N0009001N1+00801+00791102351ADDAA106000091MA1999999100881MD1610071+9999REMSYN060AAXX  07224 07335 36/09 /2108 10080 20079 30088 40235 56007;EQDQ01  00002PRCP06
0131073350999992000010723004+46580+000320FM-12+0120LFBI V0202101N005119999999N0015001N1+00831+00801102321ADDAA106000091MA1999999100851MD1810061+9999REMSYN060AAXX  07234 07335 36/15 /2110 10083 20080 30085 40232 58006;EQDQ01  00002PRCP06
0131073350999992000010800004+46580+000320FM-12+0120LFBI V0202101N005119999999N0017001N1+00831+00791102311ADDAA106000091MA1999999100841MD1610071+9999REMSYN060AAXX  08004 07335 36/17 /2110 10083 20079 30084 40231 56007;EQDQ01  00002PRCP06
0131073350999992000010801004+46580+000320FM-12+0120LFBI V0202101N004119999999N9999999N1+00831+00791102281ADDAA106000091MA1999999100811MD1710071+9999REMSYN060AAXX  08014 07335 36/// /2108 10083 20079 30081 40228 57007;EQDQ01  00002PRCP06
0131073350999992000010802004+46580+000320FM-12+0120LFBI V0202101N004119999999N0019001N1+00831+00791102271ADDAA106000091MA1999999100801MD1710051+9999REMSYN060AAXX  08024 07335 36/19 /2108 10083 20079 30080 40227 57005;EQDQ01  00002PRCP06
0122073350999992000010803004+46580+000320FM-12+0120LFBI V0202101N004119999999N0017001N1+00821+00781102251ADDAA103000191MA1999999100781MD1610061+9999REMSYN070AAXX  08034 07335 26/17 /2108 10082 20078 30078 40225 56006 333 69927;
0122073350999992000010804004+46580+000320FM-12+0120LFBI V0202101N004119999999N0012001N1+00811+00771102211ADDAA101000191MA1999999100741MD1810071+9999REMSYN070AAXX  08044 07335 26/12 /2108 10081 20077 30074 40221 58007 333 69925;
0173073350999992000010805004+46580+000320FM-15+0120LFBI V0202001N004110006019N0015001N1+00801+00801999999ADDGA1081+000609999GF108991999999999999999999MA1102101999999MW1511MW2611REMMET057LFBI 080500Z 20008KT 1500 -RADZ OVC002 08/08 Q1021 NOSIG;EQDQ01+000003PRSWM1Q02    003PRSWM1
0391073350999992000010806004+46580+000320SY-MT+0120LFBI V0202101N003110006019N0015001N1+00811+00781102241ADDAA103000691AA224001091AY161061AY251061GA1081+000609999GF108991081071000751999999GJ100009IA1119IA2999+00609KA1999M+00841KA2999N+00551MA1102201100771MD1510011+9999MW1581MW2611REMSYN124AAXX  08064 07335 /1115 82106 10081 20078 30077 40224 55001 69982 75865 887// 333 10084 20055 32006 55000 69967 70010 88702;MET057LFBI 080600Z 21005KT 1500 -RADZ OVC002 08/08 Q1022 NOSIG;EQDQ01    003PRSWM1
0296073350999992000010807004+46580+000320SY-MT+0120LFBI V0202001N004110006019N0020001N1+00821+00791102241ADDAA101000491AY161999AY251999GA1081+000609999GF108991081071000751999999MA1102201100771MD1210031+9999MW1211REMSYN088AAXX  08074 07335 21120 82008 10082 20079 30077 40224 52003 72165 887// 333 69945 88702;MET051LFBI 080700Z 20007KT 2000 OVC002 08/08 Q1022 NOSIG;EQDQ01+000000PRSWM2Q02    003PRSWM1
0277073350999992000010808004+46580+000320SY-MT+0120LFBI V0202001N003110009019N0020001N1+00841+00811102261ADDAA106000021AY121999AY221999GA1081+000909999GF108991081071000751999999MA1102201100791MD1110051+9999MW1101REMSYN082AAXX  08084 07335 31120 82006 10084 20081 30079 40226 51005 71022 887// 333 88703;MET054LFBI 080800Z 20005KT 2000 BR OVC003 08/08 Q1022 NOSIG;EQDQ01    003PRSWM1
0283073350999992000010809004+46580+000320SY-MT+0120LFBI V0202001N004110009019N0020001N1+00881+00851102271ADDAA103000491AY161031AY251031GA1081+000909999GF108991081061000751999999MA1102201100801MD1310031+9999MW1101REMSYN088AAXX  08094 07335 21120 82008 10088 20085 30080 40227 53003 71065 886// 333 69947 88703;MET054LFBI 080900Z 20008KT 2000 BR OVC003 09/09 Q1022 NOSIG;EQDQ01    003PRSWM1
0277073350999992000010810004+46580+000320SY-MT+0120LFBI V0202101N004110009019N0025001N1+00941+00911102291ADDAA106000021AY121999AY221999GA1071+000909999GF107991071061000751999999MA1102201100831MD1310061+9999MW1101REMSYN082AAXX  08104 07335 31125 72108 10094 20091 30083 40229 53006 71022 876// 333 87703;MET054LFBI 081000Z 21008KT 2500 BR BKN003 09/09 Q1022 NOSIG;EQDQ01    003PRSWM1
0277073350999992000010811004+46580+000320SY-MT+0120LFBI V0202001N004110009019N0028001N1+01021+00971102271ADDAA106000021AY121999AY221999GA1071+000909999GF108991071061000751999999MA1102201100811MD1010021+9999MW1101REMSYN082AAXX  08114 07335 31128 82008 10102 20097 30081 40227 50002 71022 876// 333 87703;MET054LFBI 081100Z 20007KT 2800 BR BKN003 10/10 Q1022 NOSIG;EQDQ01    003PRSWM1
0298073350999992000010812004+46580+000320SY-MT+0120LFBI V0202101N004110006019N0018001N1+01001+00971102221ADDAA103999929AY161061AY251061GA1081+000609999GF108991081071000751999999MA1102201100761MD1810041+9999MW1511MW2581REMSYN094AAXX  08124 07335 /1118 82108 10100 20097 30076 40222 58004 69941 75865 887// 333 69907 88702;MET057LFBI 081200Z 21007KT 1800 -DZRA OVC002 10/10 Q1022 NOSIG;EQDQ01    003PRSWM1
0292073350999992000010813004+46580+000320SY-MT+0120LFBI V0202001N004110009019N0020001N1+01011+00981102171ADDAA101000291AY161999AY261999GA1081+000909999GF108991081071000751999999MA1102101100711MD1810121+9999MW1511MW2581REMSYN088AAXX  08134 07335 21120 82008 10101 20098 30071 40217 58012 75866 887// 333 69925 88703;MET057LFBI 081300Z 20007KT 2000 -DZRA OVC003 10/10 Q1021 NOSIG;EQDQ01    003PRSWM1
0292073350999992000010814004+46580+000320SY-MT+0120LFBI V0202001N003110009019N0020001N1+01021+00991102141ADDAA101999929AY161999AY261999GA1081+000909999GF108991081071000751999999MA1102101100681MD1610131+9999MW1511MW2581REMSYN088AAXX  08144 07335 21120 82006 10102 20099 30068 40214 56013 75866 887// 333 69905 88703;MET057LFBI 081400Z 20006KT 2000 -DZRA OVC003 10/10 Q1021 NOSIG;EQDQ01    003PRSWM1
0321073350999992000010815004+46580+000320SY-MT+0120LFBI V0202001N003110006019N0020001N1+01001+00971102131ADDAA103000291AY161031AY261031GA1071+000609999GA2081+001809999GF108991081071000751999999MA1102101100671MD1610091+9999MW1511MW2581REMSYN094AAXX  08154 07335 21120 82006 10100 20097 30067 40213 56009 75866 887// 333 69927 85702 88706;MET064LFBI 081500Z 20006KT 2000 -DZRA BKN002 OVC006 10/10 Q1021 NOSIG;EQDQ01    003PRSWM1
0321073350999992000010816004+46580+000320SY-MT+0120LFBI V0201901N003110006019N0018001N1+01011+00981102141ADDAA101000291AY161999AY261999GA1071+000609999GA2081+001809999GF108991081071000751999999MA1102101100681MD1510031+9999MW1511MW2581REMSYN094AAXX  08164 07335 21118 81906 10101 20098 30068 40214 55003 75866 887// 333 69925 85702 88706;MET064LFBI 081600Z 19005KT 1800 -DZRA BKN002 OVC006 10/10 Q1021 NOSIG;EQDQ01    003PRSWM1
0122073350999992000010817004+46580+000320FM-12+0120LFBI V0203001N001019999999N9999999N1+01011+00981102161ADDAA101001091MA1999999100701MD1310021+9999REMSYN070AAXX  08174 07335 26/// /3002 10101 20098 30070 40216 53002 333 60015;
0166073350999992000010818004+46580+000320FM-12+0120LFBI V0202201N002119999999N9999999N1+01011+00981102171ADDAA103002091KA1999M+01031KA2999N+00811MA1999999100711MD1210041+9999REMSYN088AAXX  08184 07335 /6/// /2204 10101 20098 30071 40217 52004 60032 333 10103 20081 60027;
0122073350999992000010819004+46580+000320FM-12+0120LFBI V0202401N003119999999N0014001N1+01021+00991102181ADDAA101001091MA1999999100721MD1110041+9999REMSYN070AAXX  08194 07335 26/14 /2406 10102 20099 30072 40218 51004 333 60015;
0122073350999992000010820004+46580+000320FM-12+0120LFBI V0202201N002119999999N0010001N1+01001+00971102161ADDAA101001091MA1999999100701MD1010001+9999REMSYN070AAXX  08204 07335 26/10 /2204 10100 20097 30070 40216 50000 333 60015;
0122073350999992000010821004+46580+000320FM-12+0120LFBI V0203301N004119999999N9999999N1+00901+00871102191ADDAA103007991MA1999999100731MD1310021+9999REMSYN070AAXX  08214 07335 26/// /3308 10090 20087 30073 40219 53002 333 60087;
0122073350999992000010822004+46580+000320FM-12+0120LFBI V0203501N002119999999N9999999N1+00851+00821102241ADDAA101001091MA1999999100771MD1310051+9999REMSYN070AAXX  08224 07335 26/// /3504 10085 20082 30077 40224 53005 333 60015;
0122073350999992000010823004+46580+000320FM-12+0120LFBI V0203501N004119999999N9999999N1+00811+00771102261ADDAA101000591MA1999999100791MD1110091+9999REMSYN070AAXX  08234 07335 26/// /3508 10081 20077 30079 40226 51009 333 69945;
0128073350999992000010900004+46580+000320FM-12+0120LFBI V0203501N003119999999N9999999N1+00741+00701102231ADDAA103001091MA1999999100761MD1010031+9999REMSYN076AAXX  09004 07335 /6/// /3506 10074 20070 30076 40223 50003 60091 333 60017;
0122073350999992000010901004+46580+000320FM-12+0120LFBI V0203501N003119999999N9999999N1+00711+00671102271ADDAA101000791MA1999999100791MD1310021+9999REMSYN070AAXX  09014 07335 26/// /3506 10071 20067 30079 40227 53002 333 69905;
0122073350999992000010902004+46580+000320FM-12+0120LFBI V0203601N003119999999N9999999N1+00661+00621102311ADDAA101000791MA1999999100831MD1310041+9999REMSYN070AAXX  09024 07335 26/// /3606 10066 20062 30083 40231 53004 333 69905;
0122073350999992000010903004+46580+000320FM-12+0120LFBI V0203601N004119999999N9999999N1+00641+00601102351ADDAA103000791MA1999999100871MD1310111+9999REMSYN070AAXX  09034 07335 26/// /3608 10064 20060 30087 40235 53011 333 69907;
0122073350999992000010904004+46580+000320FM-12+0120LFBI V0203601N004119999999N9999999N1+00631+00591102351ADDAA101000791MA1999999100871MD1110081+9999REMSYN070AAXX  09044 07335 26/// /3608 10063 20059 30087 40235 51008 333 69905;
0252073350999992000010905004+46580+000320SY-MT+0120LFBI V0203601N004110006019N0080001N1+00581+00541102401ADDAA101999929GA1081+000609999GF108991081061000751999999MA1102301100911MD1210081+9999MW1001REMSYN082AAXX  09054 07335 22158 83608 10058 20054 30091 40240 52008 886// 333 69905 88702;MET045LFBI 090500Z 36007KT 8000 OVC002 06/05 Q1023;EQDQ01+000000PRSWM2
0326073350999992000010908004+46580+000320SY-MT+0120LFBI V0203501N00311030001CN0100001N1+00401+00361102601ADDAA106000091GA1021+000609999GA2021+015009999GA3071+030009999GF108991061051000751071999MA1102511101101MD1310191+9999MW1001REMSYN088AAXX  09084 07335 32160 83506 10040 20036 30110 40260 53019 8657/ 333 83702 84650 87360;MET065LFBI 090800Z 35006KT 9999 SCT002 SCT050 BKN100 04/04 Q1025 NOSIG;EQDQ01+000000PRSWM2Q02  00002PRCP06
0326073350999992000010909004+46580+000320SY-MT+0120LFBI V0203501N004110300019N0150001N1+00481+00421102671ADDAA106000091GA1021+000609999GA2021+015009999GA3071+030009999GF107991031051000751071999MA1102611101171MD1310211+9999MW1001REMSYN088AAXX  09094 07335 32165 73508 10048 20042 30117 40267 53021 8357/ 333 81702 83650 87360;MET065LFBI 090900Z 35008KT 9999 FEW002 SCT050 BKN100 05/04 Q1026 NOSIG;EQDQ01+000000PRSWM2Q02  00002PRCP06
0326073350999992000010910004+46580+000320SY-MT+0120LFBI V0203601N004110300019N0150001N1+00531+00441102711ADDAA106000091GA1021+000609999GA2021+015009999GA3081+030009999GF108991031051000751071999MA1102611101221MD1110201+9999MW1001REMSYN088AAXX  09104 07335 32165 83608 10053 20044 30122 40271 51020 8357/ 333 81702 83650 88360;MET065LFBI 091000Z 36007KT 9999 FEW002 SCT050 OVC100 05/04 Q1026 NOSIG;EQDQ01+000000PRSWM2Q02  00002PRCP06
0297073350999992000010911004+46580+000320SY-MT+0120LFBI V0203601N003110300019N0150001N1+00591+00491102731ADDAA106000091GA1021+001509999GA2081+030009999GF108991021051001501071999MA1102611101241MD1110141+9999MW1001REMSYN082AAXX  09114 07335 32265 83606 10059 20049 30124 40273 51014 8257/ 333 81705 88360;MET058LFBI 091100Z 36006KT 9999 FEW005 OVC100 06/05 Q1026 NOSIG;EQDQ01+000000PRSWM2Q02  00002PRCP06
0297073350999992000010912004+46580+000320SY-MT+0120LFBI V0203601N005110300019N0200001N1+00661+00521102751ADDAA106000091GA1021+001809999GA2071+030009999GF108991021061001501071999MA1102711101261MD1110091+9999MW1001REMSYN082AAXX  09124 07335 32270 83610 10066 20052 30126 40275 51009 8267/ 333 82706 87360;MET058LFBI 091200Z 36009KT 9999 FEW006 BKN100 07/05 Q1027 NOSIG;EQDQ01+000000PRSWM2Q02  00002PRCP06
0297073350999992000010913004+46580+000320SY-MT+0120LFBI V0203601N005110300019N0200001N1+00681+00511102771ADDAA106000091GA1021+002409999GA2071+030009999GF107991021061002501071999MA1102711101281MD1210061+9999MW1001REMSYN082AAXX  09134 07335 32370 73610 10068 20051 30128 40277 52006 8267/ 333 82708 87360;MET058LFBI 091300Z 36010KT 9999 FEW008 BKN100 07/05 Q1027 NOSIG;EQDQ01+000000PRSWM2Q02  00002PRCP06
0313073350999992000010914004+46580+000320SY-MT+0120LFBI V0203601N005110300019N0250001N1+00771+00551102771ADDAA106000091GA1021+003009999GA2071+030009999GF199999021081004501031001MA1102711101291MD1110051+9999MW1001REMSYN082AAXX  09144 07335 32475 63610 10077 20055 30129 40277 51005 82830 333 81810 85360;MET058LFBI 091400Z 36009KT 9999 FEW010 BKN100 08/06 Q1027 NOSIG;EQDQ01+000062SCOTCVQ02+000000PRSWM2Q03  00002PRCP06
0297073350999992000010915004+46580+000320SY-MT+0120LFBI V0203601N005110036019N0250001N1+00711+00491102831ADDAA106000091GA1071+003609999GA2021+012009999GF107991071081004501999999MA1102711101341MD1310081+9999MW1001REMSYN082AAXX  09154 07335 32475 73610 10071 20049 30134 40283 53008 878// 333 85812 84640;MET058LFBI 091500Z 36010KT 9999 BKN012 SCT040 07/05 Q1027 NOSIG;EQDQ01+000000PRSWM2Q02  00002PRCP06
0296073350999992000010916004+46580+000320SY-MT+0120LFBI V0203601N003112200019N0250001N1+00621+00451102891ADDAA101000291AY111999AY211999GA1021+004509999GF104991021081004501031011MA1102811101401MD1310121+9999MW1251REMSYN088AAXX  09164 07335 21475 43606 10062 20045 30140 40289 53012 72511 82831 333 69925 82815;MET051LFBI 091600Z 36007KT 9999 FEW015 06/05 Q1028 NOSIG;EQDQ01+000000PRSWM2Q02    003PRSWM1
0112073350999992000010917004+46580+000320FM-12+0120LFBI V0203601N003119999999N9999999N1+00431+00331102981ADDAA106000021MA1999999101481MD1310191+9999REMSYN060AAXX  09174 07335 36/// /3606 10043 20033 30148 40298 53019;
0166073350999992000010918004+46580+000320FM-12+0120LFBI V0203601N003119999999N9999999N1+00321+00251103071ADDAA103000191KA1999M+00781KA2999N+00321MA1999999101561MD1310221+9999REMSYN088AAXX  09184 07335 /6/// /3606 10032 20025 30156 40307 53022 69922 333 10078 20032 69927;
0112073350999992000010919004+46580+000320FM-12+0120LFBI V0203601N004119999999N9999999N1+00331+00241103141ADDAA106000021MA1999999101631MD1110231+9999REMSYN060AAXX  09194 07335 36/// /3608 10033 20024 30163 40314 51023;
0112073350999992000010920004+46580+000320FM-12+0120LFBI V0203601N003119999999N9999999N1+00231+00141103201ADDAA106000021MA1999999101681MD1110201+9999REMSYN060AAXX  09204 07335 36/// /3606 10023 20014 30168 40320 51020;
0112073350999992000010921004+46580+000320FM-12+0120LFBI V0203601N002119999999N9999999N1+00151+00111103261ADDAA106000021MA1999999101741MD1110181+9999REMSYN060AAXX  09214 07335 36/// /3604 10015 20011 30174 40326 51018;
0112073350999992000010922004+46580+000320FM-12+0120LFBI V0203501N003119999999N9999999N1+00051+00011103321ADDAA106000021MA1999999101791MD1210161+9999REMSYN060AAXX  09224 07335 36/// /3506 10005 20001 30179 40332 52016;
0131073350999992000010923004+46580+000320FM-12+0120LFBI V0203601N002119999999N9999999N1+00001-00041103361ADDAA106000091MA1999999101831MD1110151+9999REMSYN060AAXX  09234 07335 36/// /3604 10000 21004 30183 40336 51015;EQDQ01  00002PRCP06
0131073350999992000011000004+46580+000320FM-12+0120LFBI V0203601N002119999999N9999999N1-00091-00161103391ADDAA106000091MA1999999101851MD1110111+9999REMSYN060AAXX  10004 07335 36/// /3604 11009 21016 30185 40339 51011;EQDQ01  00002PRCP06
0131073350999992000011001004+46580+000320FM-12+0120LFBI V0203301N002119999999N9999999N1-00181-00241103411ADDAA106000091MA1999999101871MD1110081+9999REMSYN060AAXX  10014 07335 36/// /3304 11018 21024 30187 40341 51008;EQDQ01  00002PRCP06
0131073350999992000011002004+46580+000320FM-12+0120LFBI V0203401N003119999999N9999999N1-00191-00221103461ADDAA106000091MA1999999101911MD1310081+9999REMSYN060AAXX  10024 07335 36/// /3406 11019 21022 30191 40346 53008;EQDQ01  00002PRCP06
0131073350999992000011003004+46580+000320FM-12+0120LFBI V0203401N002119999999N9999999N1-00261-00301103491ADDAA106000091MA1999999101941MD1310091+9999REMSYN060AAXX  10034 07335 36/// /3404 11026 21030 30194 40349 53009;EQDQ01  00002PRCP06
0131073350999992000011004004+46580+000320FM-12+0120LFBI V0203401N002119999999N9999999N1-00241-00271103491ADDAA106000091MA1999999101941MD1110071+9999REMSYN060AAXX  10044 07335 36/// /3404 11024 21027 30194 40349 51007;EQDQ01  00002PRCP06
0229073350999992000011005004+46580+000320SY-MT+0120LFBI V0203501N002112200019N0080001N1-00211-00241103531ADDAA106000091GF100991001001999999001001MA1103391101981MD1310071+9999MW1001REMSYN060AAXX  10054 07335 32958 03504 11021 21024 30198 40353 53007;MET044LFBI 100500Z 35004KT 8000 SKC M02/M02 Q1034;EQDQ01+000000PRSWM2Q02  00002PRCP06
0315073350999992000011006004+46580+000320SY-MT+0120LFBI V0203601N002112200019N0080001N1-00251-00261103561ADDAA106000091GF100991001001999999001001GJ100609IA1149IA2999-00709KA1999M+00351KA2999N-00281MA1103391102011MD1310071+9999MW1001REMSYN094AAXX  10064 07335 32958 03604 11025 21026 30201 40356 53007 333 10035 21028 34107 55010 70002;MET044LFBI 100600Z 36003KT 8000 SKC M02/M03 Q1034;EQDQ01+000000PRSWM2Q02  00002PRCP06
0229073350999992000011007004+46580+000320SY-MT+0120LFBI V0203501N002112200019N0080001N1-00241-00271103601ADDAA106000091GF100991001001999999001001MA1103491102051MD1210111+9999MW1001REMSYN060AAXX  10074 07335 32958 03504 11024 21027 30205 40360 52011;MET044LFBI 100700Z 35004KT 8000 SKC M02/M03 Q1035;EQDQ01+000000PRSWM2Q02  00002PRCP06
0229073350999992000011008004+46580+000320SY-MT+0120LFBI V0209999C000012200019N0080001N1-00241-00271103661ADDAA106000091GF100991001001999999001001MA1103491102111MD1310131+9999MW1001REMSYN060AAXX  10084 07335 32958 00000 11024 21027 30211 40366 53013;MET044LFBI 100800Z 00000KT 8000 SKC M02/M03 Q1035;EQDQ01+000000PRSWM2Q02  00002PRCP06
0289073350999992000011009004+46580+000320SY-MT+0120LFBI V0209999C000010006019N0030001N1-00191-00201103701ADDAA106000091AY111031AY211031GA1081+000609999GF108991081061000751999999MA1103591102151MD1210141+9999MW1101REMSYN082AAXX  10094 07335 31130 80000 11019 21020 30215 40370 52014 71011 886// 333 88702;MET050LFBI 100900Z 00000KT 3000 BR OVC002 M02/M02 Q1036;EQDQ01  00002PRCP06Q02    003PRSWM1
0299073350999992000011010004+46580+000320SY-MT+0120LFBI V0200801N00211000151CN0002001N1-00011-00021103761ADDAA106000091AY141999AY221999ED199U02009GA1091+000159999GF109991091999000151999999MA1103591102221MD1310171+9999MW1451MW2471REMSYN066AAXX  10104 07335 31/02 90804 11001 21002 30222 40376 53017 74742;MET059LFBI 101000Z 07004KT 0250 R21/0200D FG VV/// M00/M00 Q1036;EQDQ01  00002PRCP06Q02    003PRSWM1
0337073350999992000011011004+46580+000320SY-MT+0120LFBI V0200701N003110003019N0006001N1+00011+00001103791ADDAA106000091AY141999AY241999GA1071+000309999GA2081+000609999GF108991081061000251999999MA1103691102251MD1110141+9999MW1421MW2441REMSYN088AAXX  10114 07335 31006 80706 10001 20000 30225 40379 51014 74244 886// 333 85701 88602;MET070LFBI 101100Z 07006KT 0600 R21/0550V1000D FG BKN001 OVC002 00/00 Q1037;EQDQ01  00002PRCP06Q02    003PRSWM1
0308073350999992000011012004+46580+000320SY-MT+0120LFBI V0200501N003110006019N0010001N1+00031+00021103761ADDAA106000091AY141061AY211061GA1081+000609999GF108991081061000751999999MA1103591102221MD1010071+9999MW1101MW2281REMSYN082AAXX  10124 07335 31110 80506 10003 20002 30222 40376 50007 72841 886// 333 88702;MET063LFBI 101200Z 05006KT 1000 R21/0800V1500U BR OVC002 00/00 Q1036;EQDQ01  00002PRCP06Q02    003PRSWM1
0295073350999992000011013004+46580+000320SY-MT+0120LFBI V0200701N003110006019N0035001N1+00071+00031103701ADDAA106000091AY121999AY221999GA1081+000609999GF108991081061000751999999MA1103591102171MD1810051+9999MW1101REMSYN082AAXX  10134 07335 31135 80706 10007 20003 30217 40370 58005 71022 886// 333 88702;MET056LFBI 101300Z 07005KT 030V100 3500 BR OVC002 01/00 Q1036;EQDQ01  00002PRCP06Q02    003PRSWM1
0270073350999992000011014004+46580+000320SY-MT+0120LFBI V0200401N003110018019N0080001N1+00121+00031103701ADDAA106000091GA1071+001809999GF107991071021001501999999MA1103591102171MD1610081+9999MW1001REMSYN076AAXX  10144 07335 32258 70406 10012 20003 30217 40370 56008 872// 333 87806;MET053LFBI 101400Z 04006KT 010V080 8000 BKN006 01/00 Q1036;EQDQ01+000000PRSWM2Q02  00002PRCP06
0262073350999992000011015004+46580+000320SY-MT+0120LFBI V0200201N004110018019N0060001N1+00131+00031103741ADDAA106000091GA1071+001809999GF107991071021001501999999MA1103591102211MD1510011+9999MW1001REMSYN076AAXX  10154 07335 32256 70208 10013 20003 30221 40374 55001 872// 333 87806;MET045LFBI 101500Z 02007KT 6000 BKN006 01/00 Q1036;EQDQ01+000000PRSWM2Q02  00002PRCP06
0263073350999992000011016004+46580+000320SY-MT+0120LFBI V0200601N003110027019N0060001N1+00121-00041103761ADDAA106000091GA1071+002709999GF107991071021002501999999MA1103591102231MD1310061+9999MW1001REMSYN076AAXX  10164 07335 32356 70606 10012 21004 30223 40376 53006 872// 333 87809;MET046LFBI 101600Z 06006KT 6000 BKN009 01/M00 Q1036;EQDQ01+000000PRSWM2Q02  00002PRCP06
0271073350999992000011017004+46580+000320SY-MT+0120LFBI V0200701N003110027019N0080001N1+00141-00041103771ADDAA106000091GA1071+002709999GF107991071021002501999999MA1103691102241MD1110071+9999MW1001REMSYN076AAXX  10174 07335 32358 70706 10014 21004 30224 40377 51007 872// 333 87809;MET054LFBI 101700Z 07005KT 030V110 8000 BKN009 01/M00 Q1037;EQDQ01+000000PRSWM2Q02  00002PRCP06
0297073350999992000011018004+46580+000320SY-MT+0120LFBI V0200801N004110033019N0112651N1+00141-00071103771ADDAA106000091GA1071+003309999GF107991999999999999999999KA1999M+00161KA2999N-00321MA1103691102241MD1110031+9999MW1001REMSYN076AAXX  10184 07335 36/// /0808 10014 21007 30224 40377 51003 333 10016 21032;MET054LFBI 101800Z 08006KT 040V110 9999 BKN011 01/M01 Q1037;EQDQ01+000000PRSWM2Q02  00002PRCP06
0131073350999992000011019004+46580+000320FM-12+0120LFBI V0200901N004119999999N9999999N1+00111-00111103801ADDAA106000091MA1999999102271MD1310041+9999REMSYN060AAXX  10194 07335 36/// /0908 10011 21011 30227 40380 53004;EQDQ01  00002PRCP06
0131073350999992000011020004+46580+000320FM-12+0120LFBI V0200601N003119999999N9999999N1+00071-00151103831ADDAA106000091MA1999999102291MD1310051+9999REMSYN060AAXX  10204 07335 36/// /0606 10007 21015 30229 40383 53005;EQDQ01  00002PRCP06
0131073350999992000011021004+46580+000320FM-12+0120LFBI V0200701N002119999999N9999999N1+00071-00151103851ADDAA106000091MA1999999102311MD1110071+9999REMSYN060AAXX  10214 07335 36/// /0704 10007 21015 30231 40385 51007;EQDQ01  00002PRCP06
0131073350999992000011022004+46580+000320FM-12+0120LFBI V0200801N003119999999N9999999N1+00071-00181103841ADDAA106000091MA1999999102301MD1010031+9999REMSYN060AAXX  10224 07335 36/// /0806 10007 21018 30230 40384 50003;EQDQ01  00002PRCP06
0131073350999992000011023004+46580+000320FM-12+0120LFBI V0200601N001019999999N9999999N1+00021-00191103851ADDAA106000091MA1999999102311MD1110021+9999REMSYN060AAXX  10234 07335 36/// /0602 10002 21019 30231 40385 51002;EQDQ01  00002PRCP06
0131073350999992000011100004+46580+000320FM-12+0120LFBI V0200101N001019999999N9999999N1-00201-00281103851ADDAA106000091MA1999999102301MD1710011+9999REMSYN060AAXX  11004 07335 36/// /0102 11020 21028 30230 40385 57001;EQDQ01  00002PRCP06
0131073350999992000011101004+46580+000320FM-12+0120LFBI V0200601N001019999999N9999999N1-00301-00371103851ADDAA106000091MA1999999102291MD1810011+9999REMSYN060AAXX  11014 07335 36/// /0602 11030 21037 30229 40385 58001;EQDQ01  00002PRCP06
0131073350999992000011102004+46580+000320FM-12+0120LFBI V0203501N001019999999N9999999N1-00351-00391103851ADDAA106000091MA1999999102291MD1610021+9999REMSYN060AAXX  11024 07335 36/// /3502 11035 21039 30229 40385 56002;EQDQ01  00002PRCP06
0131073350999992000011103004+46580+000320FM-12+0120LFBI V0209999C000019999999N0018001N1-00401-00441103861ADDAA106000091MA1999999102301MD1510001+9999REMSYN060AAXX  11034 07335 36/18 /0000 11040 21044 30230 40386 55000;EQDQ01  00002PRCP06
0131073350999992000011104004+46580+000320FM-12+0120LFBI V0209999C000019999999N0006001N1-00191-00201103881ADDAA106000091MA1999999102331MD1310041+9999REMSYN060AAXX  11044 07335 36/06 /0000 11019 21020 30233 40388 53004;EQDQ01  00002PRCP06
0295073350999992000011105004+46580+000320SY-MT+0120LFBI V0209999C000010003019N0004001N1-00201-00211103931ADDAA106000091ED199U07509GA1081+000309999GF108991999999000251999999MA1103791102381MW1441REMSYN081AAXX  11054 07335 31004 80000 11020 21021 30238 40393 5009 74642 886// 333 88701;MET060LFBI 110500Z 00000KT 0400 R21/0750D FG OVC001 M02/M02 Q1038;EQDQ01+000003PRSWM1Q02  00002PRCP06Q03    003PRSWM1
0385073350999992000011106004+46580+000320SY-MT+0120LFBI V0209999C00001000151CN0004001N1-00211-00221103931ADDAA106000091AY141061AY221061ED199U05509GA1091+000159999GF109991091999000151999999GJ100009IA1149IA2999-00709KA1999M+00151KA2999N-00441MA1103791102381MD1110081+9999MW1451MW2471REMSYN100AAXX  11064 07335 31/04 90000 11021 21022 30238 40393 51008 74742 333 10015 21044 34107 55000 70000;MET059LFBI 110600Z 00000KT 0400 R21/0550N FG VV/// M02/M02 Q1038;EQDQ01  00002PRCP06Q02    003PRSWM1
0305073350999992000011107004+46580+000320SY-MT+0120LFBI V0209999C00001000151CN0003001N1-00211-00221103931ADDAA106000091AY141999AY241999ED199U07509GA1091+000159999GF109991091999000151999999MA1103791102381MD1110051+9999MW1451MW2471REMSYN066AAXX  11074 07335 31/03 90000 11021 21022 30238 40393 51005 74744;MET065LFBI 110700Z 00000KT 0300 R21/0750N FG VV/// M02/M02 Q1038 NOSIG;EQDQ01  00002PRCP06Q02    003PRSWM1
0301073350999992000011108004+46580+000320SY-MT+0120LFBI V0209999C00001000151CN0003001N1-00211-00221103961ADDAA106000091AY141999AY241999ED199U08009GA1091+000159999GF109991091999000151999999MA1103791102411MD1310031+9999MW1491REMSYN066AAXX  11084 07335 31/03 90000 11021 21022 30241 40396 53003 74944;MET067LFBI 110800Z 00000KT 0300 R21/0800U FZFG VV/// M02/M02 Q1038 NOSIG;EQDQ01  00002PRCP06Q02    003PRSWM1
0307073350999992000011109004+46580+000320SY-MT+0120LFBI V02099999999990003019N0006001N1-00211-00221104001ADDAA106000091AY141031AY241031GF108991081061000251999999MA1999999102451MD1310071+9999MW1481REMSYN082AAXX  11094 07335 31006 8//// 11021 21022 30245 40400 53007 74844 886// 333 88701;MET068LFBI 110900Z /////KT 0600 R21/0700D FZFG OVC001 M02/M02 Q1039 NOSIG;EQDQ01+000000PRSWM2Q02  00002PRCP06Q03    003PRSWM1
0299073350999992000011110004+46580+000320SY-MT+0120LFBI V02099999999990003019N0006001N1-00161-00171104001ADDAA106000091AY141999AY241999GA1081+000309999GF108991081061000751999999MA1103891102451MD1110071+9999MW1481REMSYN082AAXX  11104 07335 31106 8//// 11016 21017 30245 40400 51007 74844 886// 333 88701;MET060LFBI 111000Z 0600 R21/0800U FZFG OVC001 M02/M02 Q1039 NOSIG;EQDQ01  00002PRCP06Q02    003PRSWM1
0305073350999992000011111004+46580+000320SY-MT+0120LFBI V0209999999999000601CN0008001N1-00131-00141103971ADDAA106000091AY141999AY241999GF108991081061000751999999MA1999999102421MD1010011+9999MW1461REMSYN082AAXX  11114 07335 31108 8//// 11013 21014 30242 40397 50001 74644 886// 333 88701;MET066LFBI 111100Z /////KT 0800 R21/0800N FG OVC001 M01/M01 Q1038 NOSIG;EQDQ01+000000PRSWM2Q02  00002PRCP06Q03    003PRSWM1
0295073350999992000011112004+46580+000320SY-MT+0120LFBI V02099999999990006019N0015001N1-00111-00121103921ADDAA106000091AY141061AY221061GF108991081061000751999999MA1999999102371MD1810081+9999MW1281REMSYN082AAXX  11124 07335 31115 8//// 11011 21012 30237 40392 58008 72842 886// 333 88702;MET056LFBI 111200Z /////KT 1500 BR OVC002 M01/M01 Q1038 NOSIG;EQDQ01+000000PRSWM2Q02  00002PRCP06Q03    003PRSWM1
0307073350999992000011113004+46580+000320SY-MT+0120LFBI V0209999999999000601CN0020001N1-00091-00101103851ADDAA106000091AY121999AY221999GF108991081061000751999999MA1999999102301MD1810151+9999MW1101REMSYN082AAXX  11134 07335 31120 8//// 11009 21010 30230 40385 58015 71022 886// 333 88703;MET068LFBI 111300Z /////KT 2000 BR OVC003 M01/M01 Q1037 BECMG 3500 BKN005;EQDQ01+000000PRSWM2Q02  00002PRCP06Q03    003PRSWM1
0295073350999992000011114004+46580+000320SY-MT+0120LFBI V02099999999990006019N0025001N1-00061-00071103801ADDAA106000091AY121999AY221999GF108991081061000751999999MA1999999102261MD1610161+9999MW1101REMSYN082AAXX  11144 07335 31125 8//// 11006 21007 30226 40380 56016 71022 886// 333 88702;MET056LFBI 111400Z /////KT 2500 BR OVC002 M01/M01 Q1037 NOSIG;EQDQ01+000000PRSWM2Q02  00002PRCP06Q03    003PRSWM1
0295073350999992000011115004+46580+000320SY-MT+0120LFBI V0200701N002110009019N0045001N1-00031-00061103791ADDAA106000091AY121031AY221031GA1081+000909999GF108991081061000751999999MA1103691102251MD1610121+9999MW1101REMSYN082AAXX  11154 07335 31145 80704 11003 21006 30225 40379 56012 71022 886// 333 88703;MET056LFBI 111500Z 07004KT 4500 BR OVC003 M00/M01 Q1037 NOSIG;EQDQ01  00002PRCP06Q02    003PRSWM1
0270073350999992000011116004+46580+000320SY-MT+0120LFBI V0200401N003110009019N0050001N1-00031-00071103791ADDAA106000091GA1081+000909999GF108991081061000751999999MA1103691102251MD1610051+9999MW1001REMSYN076AAXX  11164 07335 32150 80406 11003 21007 30225 40379 56005 886// 333 88703;MET053LFBI 111600Z 04006KT 5000 OVC003 M00/M01 Q1037 NOSIG;EQDQ01+000000PRSWM2Q02  00002PRCP06
0326073350999992000011117004+46580+000320SY-MT+0120LFBI V0200501N002110006019N0045001N1-00041-00081103761ADDAA106000091AY121999AY221999GA1081+000609999GF108991081061000751999999MA1103591102221MD1810041+9999MW1101REMSYN082AAXX  11174 07335 31145 80504 11004 21008 30222 40376 58004 71022 886// 333 88702;MET087LFBI 111700Z 06004KT 020V110 4500 BR OVC002 M00/M01 Q1036 BECMG VRB02KT 0800 FG OVC001;EQDQ01  00002PRCP06Q02    003PRSWM1
0341073350999992000011118004+46580+000320SY-MT+0120LFBI V0200501N003110006019N0045001N1-00041-00081103781ADDAA106000091AY121061AY221061GA1081+000609999GF108991081061000751999999KA1999M-00021KA2999N-00221MA1103691102241MD1510011+9999MW1101REMSYN094AAXX  11184 07335 31145 80506 11004 21008 30224 40378 55001 71022 886// 333 11002 21022 88702;MET064LFBI 111800Z 05006KT 020V090 4500 BR OVC002 M00/M01 Q1037 NOSIG;EQDQ01  00002PRCP06Q02    003PRSWM1
0131073350999992000011119004+46580+000320FM-12+0120LFBI V0200501N003119999999N9999999N1-00071-00111103771ADDAA106000091MA1999999102231MD1610021+9999REMSYN060AAXX  11194 07335 36/// /0506 11007 21011 30223 40377 56002;EQDQ01  00002PRCP06
0131073350999992000011120004+46580+000320FM-12+0120LFBI V0200401N003119999999N0017001N1-00081-00121103741ADDAA106000091MA1999999102201MD1810021+9999REMSYN060AAXX  11204 07335 36/17 /0406 11008 21012 30220 40374 58002;EQDQ01  00002PRCP06
0131073350999992000011121004+46580+000320FM-12+0120LFBI V0200501N002119999999N9999999N1-00081-00111103701ADDAA106000091MA1999999102161MD1810081+9999REMSYN060AAXX  11214 07335 36/// /0504 11008 21011 30216 40370 58008;EQDQ01  00002PRCP06
0131073350999992000011122004+46580+000320FM-12+0120LFBI V0200501N003119999999N9999999N1-00051-00091103681ADDAA106000091MA1999999102141MD1610091+9999REMSYN060AAXX  11224 07335 36/// /0506 11005 21009 30214 40368 56009;EQDQ01  00002PRCP06
0131073350999992000011123004+46580+000320FM-12+0120LFBI V0200501N002119999999N0014001N1-00051-00081103641ADDAA106000091MA1999999102101MD1710101+9999REMSYN060AAXX  11234 07335 36/14 /0504 11005 21008 30210 40364 57010;EQDQ01  00002PRCP06
0131073350999992000011200004+46580+000320FM-12+0120LFBI V0200301N003119999999N0016001N1-00051-00081103581ADDAA106000091MA1999999102041MD1810121+9999REMSYN060AAXX  12004 07335 36/16 /0306 11005 21008 30204 40358 58012;EQDQ01  00002PRCP06
0131073350999992000011201004+46580+000320FM-12+0120LFBI V0200301N002119999999N0013001N1-00051-00081103521ADDAA106000091MA1999999101981MD1810161+9999REMSYN060AAXX  12014 07335 36/13 /0304 11005 21008 30198 40352 58016;EQDQ01  00002PRCP06
0131073350999992000011202004+46580+000320FM-12+0120LFBI V0200101N002119999999N0005001N1-00071-00101103471ADDAA106000091MA1999999101931MD1610171+9999REMSYN060AAXX  12024 07335 36/05 /0104 11007 21010 30193 40347 56017;EQDQ01  00002PRCP06
0131073350999992000011203004+46580+000320FM-12+0120LFBI V0200201N002119999999N0011001N1-00061-00071103441ADDAA106000091MA1999999101901MD1610141+9999REMSYN060AAXX  12034 07335 36/11 /0204 11006 21007 30190 40344 56014;EQDQ01  00002PRCP06
0131073350999992000011204004+46580+000320FM-12+0120LFBI V0200201N002119999999N0014001N1-00071-00081103391ADDAA106000091MA1999999101851MD1710131+9999REMSYN060AAXX  12044 07335 36/14 /0204 11007 21008 30185 40339 57013;EQDQ01  00002PRCP06
0310073350999992000011205004+46580+000320SY-MT+0120LFBI V0200101N002110006019N0015001N1-00071-00081103341ADDAA106000091AY121999AY221999GA1081+000609999GF108991081061000751999999MA1103181101801MD1810131+9999MW1101REMSYN082AAXX  12054 07335 31115 80104 11007 21008 30180 40334 58013 71022 886// 333 88702;MET071LFBI 120500Z 01003KT 1500 BR OVC002 M01/M01 Q1032 TEMPO 0500 FG OVC001;EQDQ01  00002PRCP06Q02    003PRSWM1
0403073350999992000011206004+46580+000320SY-MT+0120LFBI V0203601N002110006019N0015001N1-00071-00081103311ADDAA106000091AA224000091AY121061AY221061GA1081+000609999GF108991081061000751999999GJ100009IA1149IA2999-00109KA1999M-00041KA2999N-00091MA1103181101771MD1610131+9999MW1101REMSYN112AAXX  12064 07335 31115 83604 11007 21008 30177 40331 56013 71022 886// 333 11004 21009 34101 55000 70000 88702;MET071LFBI 120600Z 36003KT 1500 BR OVC002 M01/M01 Q1032 TEMPO 0500 FG OVC001;EQDQ01  00002PRCP06Q02    003PRSWM1
0310073350999992000011207004+46580+000320SY-MT+0120LFBI V0200101N001010006019N0015001N1-00061-00071103291ADDAA106000091AY121999AY221999GA1081+000609999GF108991081061000751999999MA1103181101751MD1610101+9999MW1101REMSYN082AAXX  12074 07335 31115 80102 11006 21007 30175 40329 56010 71022 886// 333 88702;MET071LFBI 120700Z 01002KT 1500 BR OVC002 M01/M01 Q1032 TEMPO 0500 FG OVC001;EQDQ01  00002PRCP06Q02    003PRSWM1
0310073350999992000011208004+46580+000320SY-MT+0120LFBI V0200101N001010006019N0017001N1-00041-00051103291ADDAA106000091AY121999AY221999GA1081+000609999GF108991081061000751999999MA1103181101761MD1510041+9999MW1101REMSYN082AAXX  12084 07335 31117 80102 11004 21005 30176 40329 55004 71022 886// 333 88702;MET071LFBI 120800Z 01002KT 1700 BR OVC002 M00/M00 Q1032 TEMPO 0500 FG OVC001;EQDQ01  00002PRCP06Q02    003PRSWM1
0300073350999992000011209004+46580+000320SY-MT+0120LFBI V0209999C000010006019N0020001N1-00021-00031103271ADDAA106000091AY121031AY221031GA1081+000609999GF108991081061000751999999MA1103121101741MD1710031+9999MW1101REMSYN082AAXX  12094 07335 31120 80000 11002 21003 30174 40327 57003 71022 886// 333 88702;MET061LFBI 120900Z 00000KT 2000 BR OVC002 M00/M00 Q1031 BECMG 2500;EQDQ01  00002PRCP06Q02    003PRSWM1
0298073350999992000011210004+46580+000320SY-MT+0120LFBI V0201801N001010009019N0020001N1+00111+00071103211ADDAA106000091AY121999AY221999GA1081+000909999GF108991081061000751999999MA1103121101691MD1810061+9999MW1101REMSYN082AAXX  12104 07335 31120 81802 10011 20007 30169 40321 58006 71022 886// 333 88703;MET059LFBI 121000Z 18002KT 2000 BR OVC003 01/01 Q1031 BECMG 2500;EQDQ01  00002PRCP06Q02    003PRSWM1
0298073350999992000011211004+46580+000320SY-MT+0120LFBI V0202001N002110012019N0030001N1+00081+00011103201ADDAA106000091AY121999AY221999GA1081+001209999GF108991081061001501999999MA1103121101671MD1710091+9999MW1101REMSYN082AAXX  12114 07335 31230 82004 10008 20001 30167 40320 57009 71022 886// 333 88704;MET059LFBI 121100Z 20003KT 3000 BR OVC004 01/00 Q1031 BECMG 4000;EQDQ01  00002PRCP06Q02    003PRSWM1
0327073350999992000011212004+46580+000320SY-MT+0120LFBI V0202301N002110018019N0035001N1+00111+00011103101ADDAA106000091AY121061AY221061GA1071+001809999GA2071+003009999GF108991081051001501999999MA1103011101581MD1810161+9999MW1101REMSYN088AAXX  12124 07335 31235 82304 10011 20001 30158 40310 58016 71022 885// 333 86706 87610;MET066LFBI 121200Z 23003KT 3500 BR BKN006 BKN010 01/00 Q1030 BECMG 5000;EQDQ01  00002PRCP06Q02    003PRSWM1
0328073350999992000011213004+46580+000320SY-MT+0120LFBI V0202201N002110018019N0040001N1+00121-00071103021ADDAA106000091AY121999AY221999GA1071+001809999GA2071+003609999GF108991081051002501999999MA1102911101501MD1810191+9999MW1101REMSYN088AAXX  12134 07335 31340 82204 10012 21007 30150 40302 58019 71022 885// 333 86706 87612;MET067LFBI 121300Z 22004KT 4000 BR BKN006 BKN012 01/M01 Q1029 BECMG 5000;EQDQ01  00002PRCP06Q02    003PRSWM1
0274073350999992000011214004+46580+000320SY-MT+0120LFBI V0202401N001010042019N0050001N1+00121-00101102961ADDAA106000091GA1081+004209999GF108991081051004501999999MA1102811101441MD1610231+9999MW1001REMSYN076AAXX  12144 07335 32450 82402 10012 21010 30144 40296 56023 885// 333 88614;MET057LFBI 121400Z 24003KT 5000 OVC014 01/M01 Q1028 TEMPO 6000;EQDQ01+000000PRSWM2Q02  00002PRCP06
0277073350999992000011215004+46580+000320SY-MT+0120LFBI V0202001N003110027019N0050001N1+00091-00071102921ADDAA106000091GA1081+002709999GF108991081061002501999999MA1102811101401MD1610181+9999MW1001REMSYN076AAXX  12154 07335 32350 82006 10009 21007 30140 40292 56018 886// 333 88709;MET060LFBI 121500Z 20005KT 160V240 5000 OVC009 01/M01 Q1028 NOSIG;EQDQ01+000000PRSWM2Q02  00002PRCP06
0306073350999992000011216004+46580+000320SY-MT+0120LFBI V0202301N002110036019N0050001N1+00071-00111102901ADDAA106000091GA1021+000909999GA2081+003609999GF108991081051001501999999MA1102811101381MD1610121+9999MW1001REMSYN082AAXX  12164 07335 32250 82304 10007 21011 30138 40290 56012 885// 333 83703 88612;MET067LFBI 121600Z 23004KT 180V270 5000 SCT003 OVC012 01/M01 Q1028 NOSIG;EQDQ01+000000PRSWM2Q02  00002PRCP06
0298073350999992000011217004+46580+000320SY-MT+0120LFBI V0202101N002110039019N0050001N1+00041-00201102881ADDAA106000091GA1021+000909999GA2081+003909999GF108991081051001501999999MA1102811101361MD1610081+9999MW1001REMSYN082AAXX  12174 07335 32250 82104 10004 21020 30136 40288 56008 885// 333 82703 88613;MET059LFBI 121700Z 21005KT 5000 FEW003 OVC013 00/M02 Q1028 NOSIG;EQDQ01+000000PRSWM2Q02  00002PRCP06
0308073350999992000011218004+46580+000320SY-MT+0120LFBI V0202101N004110048019N0060001N1-00011-00281102851ADDAA106000091GA1081+004809999GF108991081051004501999999KA1999M+00131KA2999N-00071MA1102711101321MD1810081+9999MW1001REMSYN088AAXX  12184 07335 32456 82108 11001 21028 30132 40285 58008 885// 333 10013 21007 88616;MET053LFBI 121800Z 21007KT 6000 OVC016 M00/M03 Q1027 NOSIG;EQDQ01+000000PRSWM2Q02  00002PRCP06
0131073350999992000011219004+46580+000320FM-12+0120LFBI V0202301N003119999999N9999999N1-00011-00261102811ADDAA106000091MA1999999101281MD1810101+9999REMSYN060AAXX  12194 07335 36/// /2306 11001 21026 30128 40281 58010;EQDQ01  00002PRCP06
0131073350999992000011220004+46580+000320FM-12+0120LFBI V0202301N003119999999N9999999N1-00021-00231102761ADDAA106000091MA1999999101231MD1810131+9999REMSYN060AAXX  12204 07335 36/// /2306 11002 21023 30123 40276 58013;EQDQ01  00002PRCP06
0131073350999992000011221004+46580+000320FM-12+0120LFBI V0202101N003119999999N9999999N1-00071-00271102691ADDAA106000091MA1999999101161MD1810161+9999REMSYN060AAXX  12214 07335 36/// /2106 11007 21027 30116 40269 58016;EQDQ01  00002PRCP06
0131073350999992000011222004+46580+000320FM-12+0120LFBI V0201901N003119999999N9999999N1-00081-00251102641ADDAA106000091MA1999999101111MD1710171+9999REMSYN060AAXX  12224 07335 36/// /1906 11008 21025 30111 40264 57017;EQDQ01  00002PRCP06
0131073350999992000011223004+46580+000320FM-12+0120LFBI V0201901N004119999999N9999999N1-00081-00191102581ADDAA106000091MA1999999101051MD1610181+9999REMSYN060AAXX  12234 07335 36/// /1908 11008 21019 30105 40258 56018;EQDQ01  00002PRCP06
0131073350999992000011300004+46580+000320FM-12+0120LFBI V0202001N004119999999N0018001N1-00101-00141102521ADDAA106000091MA1999999100991MD1810171+9999REMSYN060AAXX  13004 07335 36/18 /2008 11010 21014 30099 40252 58017;EQDQ01  00002PRCP06
0131073350999992000011301004+46580+000320FM-12+0120LFBI V0201901N004119999999N9999999N1-00121-00161102451ADDAA106000091MA1999999100921MD1810191+9999REMSYN060AAXX  13014 07335 36/// /1908 11012 21016 30092 40245 58019;EQDQ01  00002PRCP06
0131073350999992000011302004+46580+000320FM-12+0120LFBI V0201901N003119999999N9999999N1-00101-00141102351ADDAA106000091MA1999999100831MD1810221+9999REMSYN060AAXX  13024 07335 36/// /1906 11010 21014 30083 40235 58022;EQDQ01  00002PRCP06
0131073350999992000011303004+46580+000320FM-12+0120LFBI V0201901N005119999999N9999999N1-00101-00141102301ADDAA106000091MA1999999100781MD1610211+9999REMSYN060AAXX  13034 07335 36/// /1910 11010 21014 30078 40230 56021;EQDQ01  00002PRCP06
0131073350999992000011304004+46580+000320FM-12+0120LFBI V0201901N005119999999N9999999N1-00081-00151102201ADDAA106000091MA1999999100681MD1810241+9999REMSYN060AAXX  13044 07335 36/// /1910 11008 21015 30068 40220 58024;EQDQ01  00002PRCP06
0270073350999992000011305004+46580+000320SY-MT+0120LFBI V0201901N005110018019N0050001N1-00051-00131102141ADDAA106000091GA1081+001809999GF108991081061001501999999MA1102001100621MD1810211+9999MW1001REMSYN076AAXX  13054 07335 32250 81910 11005 21013 30062 40214 58021 886// 333 88706;MET053LFBI 130500Z 19010KT 5000 OVC006 M00/M01 Q1020 NOSIG;EQDQ01+000000PRSWM2Q02  00002PRCP06
0348073350999992000011306004+46580+000320SY-MT+0120LFBI V0202001N005110018019N0050001N1-00021-00121999999ADDAA106000091AA224000091GA1081+001809999GF108991999999001501999999GJ100009IA1019IA2999-00109KA1999M-00011KA2999N-00121MA1102001999999MW1001REMSYN105AAXX  13064 07335 32250 82010 11002 21012 3058 40210 56020 886// 333 11001 21012 30101 55000 70000 88706;MET053LFBI 130600Z 20010KT 5000 OVC006 M00/M01 Q1020 NOSIG;EQDQ01+000000PRSWM2Q02  00002PRCP06
0298073350999992000011307004+46580+000320SY-MT+0120LFBI V0201901N005110018019N0060001N1+00001-00101102041ADDAA106000091GA1071+001809999GA2071+006309999GF108991081051001501999999MA1101901100531MD1610151+9999MW1001REMSYN082AAXX  13074 07335 32256 81910 10000 21010 30053 40204 56015 885// 333 86706 87621;MET059LFBI 130700Z 19010KT 6000 BKN006 BKN021 00/M01 Q1019 NOSIG;EQDQ01+000000PRSWM2Q02  00002PRCP06
0298073350999992000011308004+46580+000320SY-MT+0120LFBI V0201901N004110021019N0070001N1+00021-00081102041ADDAA106000091GA1071+002109999GA2071+005409999GF108991081051002501999999MA1101901100531MD1610091+9999MW1001REMSYN082AAXX  13084 07335 32357 81908 10002 21008 30053 40204 56009 885// 333 86707 87618;MET059LFBI 130800Z 19008KT 7000 BKN007 BKN018 00/M01 Q1019 NOSIG;EQDQ01+000000PRSWM2Q02  00002PRCP06
0327073350999992000011309004+46580+000320SY-MT+0120LFBI V0201801N005110054019N0070001N1+00071-00071102011ADDAA106000091GA1021+002109999GA2071+005409999GA3071+015009999GF107991071051002501999999MA1101901100501MD1610081+9999MW1001REMSYN088AAXX  13094 07335 32357 71810 10007 21007 30050 40201 56008 875// 333 81707 85618 87650;MET066LFBI 130900Z 18010KT 7000 FEW007 BKN018 BKN050 01/M01 Q1019 NOSIG;EQDQ01+000000PRSWM2Q02  00002PRCP06
0322073350999992000011310004+46580+000320SY-MT+0120LFBI V0201801N003110180019N0080001N1+00111-00041102001ADDAA106000091GA1021+005409999GA2071+018009999GF199999051051004501001001MA1101901100491MD1810041+9999MW1001REMSYN082AAXX  13104 07335 32458 51806 10011 21004 30049 40200 58004 85500 333 81618 85656;MET067LFBI 131000Z 18007KT 140V220 8000 FEW018 BKN060 01/M00 Q1019 NOSIG;EQDQ01+000052SCOTCVQ02+000000PRSWM2Q03  00002PRCP06
0297073350999992000011311004+46580+000320SY-MT+0120LFBI V0201901N005110180019N0100001N1+00231+00021101931ADDAA106000091GA1021+004809999GA2071+018009999GF107991071051004501999999MA1101801100431MD1810101+9999MW1001REMSYN082AAXX  13114 07335 32460 71910 10023 20002 30043 40193 58010 875// 333 81616 86656;MET058LFBI 131100Z 19009KT 9999 FEW016 BKN060 02/00 Q1018 NOSIG;EQDQ01+000000PRSWM2Q02  00002PRCP06
0297073350999992000011312004+46580+000320SY-MT+0120LFBI V0201901N005110180019N0100001N1+00361+00101101841ADDAA106000091GA1021+004809999GA2071+018009999GF107991071051004501999999MA1101691100351MD1810151+9999MW1001REMSYN082AAXX  13124 07335 32460 71910 10036 20010 30035 40184 58015 875// 333 81616 87656;MET058LFBI 131200Z 19010KT 9999 FEW016 BKN060 04/01 Q1017 NOSIG;EQDQ01+000000PRSWM2Q02  00002PRCP06
0297073350999992000011313004+46580+000320SY-MT+0120LFBI V0201901N004110180019N0120001N1+00401+00151101751ADDAA106000091GA1021+010809999GA2071+018009999GF107991071051012501999999MA1101591100261MD1810231+9999MW1001REMSYN082AAXX  13134 07335 32662 71908 10040 20015 30026 40175 58023 875// 333 81636 87656;MET058LFBI 131300Z 19008KT 9999 FEW036 BKN060 04/02 Q1016 NOSIG;EQDQ01+000000PRSWM2Q02  00002PRCP06
0297073350999992000011314004+46580+000320SY-MT+0120LFBI V0201901N004110180019N0120001N1+00461+00161101671ADDAA106000091GA1021+010809999GA2071+018009999GF107991071051012501999999MA1101591100191MD1610241+9999MW1001REMSYN082AAXX  13144 07335 32662 71908 10046 20016 30019 40167 56024 875// 333 81636 87656;MET058LFBI 131400Z 19007KT 9999 FEW036 BKN060 05/02 Q1016 NOSIG;EQDQ01+000000PRSWM2Q02  00002PRCP06
0284073350999992000011315004+46580+000320SY-MT+0120LFBI V0202001N003110180019N0150001N1+00491+00121101651ADDAA106000091GA1051+018009059GA2071+030009079GF107991051051017501031999MA1101591100171MD1610181+9999MW1001REMSYN082AAXX  13154 07335 32765 72006 10049 20012 30017 40165 56018 8553/ 333 85656 87360;MET045LFBI 131500Z 20007KT CAVOK 05/01 Q1016 NOSIG;EQDQ01+000000PRSWM2Q02  00002PRCP06
0262073350999992000011316004+46580+000320SY-MT+0120LFBI V0201801N003110180019N0150001N1+00461+00161101631ADDAA106000091GA1071+018009059GF107991071051017501999999MA1101491100151MD1610111+9999MW1001REMSYN076AAXX  13164 07335 32765 71806 10046 20016 30015 40163 56011 875// 333 87656;MET045LFBI 131600Z 18007KT CAVOK 05/02 Q1015 NOSIG;EQDQ01+000000PRSWM2Q02  00002PRCP06
0262073350999992000011317004+46580+000320SY-MT+0120LFBI V0201701N003110180019N0150001N1+00401+00101101641ADDAA106000091GA1071+018009059GF107991071051017501999999MA1101491100151MD1610041+9999MW1001REMSYN076AAXX  13174 07335 32765 71706 10040 20010 30015 40164 56004 875// 333 87656;MET045LFBI 131700Z 17006KT CAVOK 04/01 Q1015 NOSIG;EQDQ01+000000PRSWM2Q02  00002PRCP06
0284073350999992000011318004+46580+000320SY-MT+0120LFBI V0201601N00211015001CN0150001N1+00331+00091101641ADDAA106000091GF107991071051017501999999KA1999M+00511KA2999N-00021MA1101491100151MD1610021+9999MW1001REMSYN088AAXX  13184 07335 32765 71604 10033 20009 30015 40164 56002 875// 333 10051 21002 87656;MET045LFBI 131800Z 16003KT CAVOK 03/01 Q1015 NOSIG;EQDQ01+000000PRSWM2Q02  00002PRCP06
0131073350999992000011319004+46580+000320FM-12+0120LFBI V0201801N002119999999N9999999N1+00281+00051101631ADDAA106000091MA1999999100141MD1810011+9999REMSYN060AAXX  13194 07335 36/// /1804 10028 20005 30014 40163 58001;EQDQ01  00002PRCP06
0135073350999992000011320004+46580+000320FM-12+012099999V0209999C00001999999BN9999999N1+00311+00051101651ADDAA199000091MA1999999100161MD1310011+9999REMSYN064    AAXX  13204 07335 36/// /0000 10031 20005 30016 40165 53001;EQDQ01  00002PRCP99
0135073350999992000011321004+46580+000320FM-12+012099999V0209999C00001999999BN9999999N1+00281+00071101641ADDAA199000091MA1999999100151MD1410001+9999REMSYN064    AAXX  13214 07335 36/// /0000 10028 20007 30015 40164 54000;EQDQ01  00002PRCP99
0135073350999992000011322004+46580+000320FM-12+012099999V0201501N00101999999BN9999999N1+00291+00061101611ADDAA199000091MA1999999100121MD1810021+9999REMSYN064    AAXX  13224 07335 36/// /1502 10029 20006 30012 40161 58002;EQDQ01  00002PRCP99
0135073350999992000011323004+46580+000320FM-12+012099999V0201301N00101999999BN9999999N1+00241+00061101601ADDAA199000091MA1999999100111MD1710051+9999REMSYN064    AAXX  13234 07335 36/// /1302 10024 20006 30011 40160 57005;EQDQ01  00002PRCP99
0135073350999992000011400004+46580+000320FM-12+012099999V0201501N00101999999BN9999999N1+00321+00041101591ADDAA199000091MA1999999100101MD1610051+9999REMSYN064    AAXX  14004 07335 36/// /1502 10032 20004 30010 40159 56005;EQDQ01  00002PRCP99
0135073350999992000011401004+46580+000320FM-12+012099999V0209999C00001999999BN9999999N1+00251+00021101581ADDAA199000091MA1999999100091MD1710031+9999REMSYN064    AAXX  14014 07335 36/// /0000 10025 20002 30009 40158 57003;EQDQ01  00002PRCP99
0135073350999992000011402004+46580+000320FM-12+012099999V0201401N00101999999BN9999999N1+00061-00081101571ADDAA199000091MA1999999100071MD1810041+9999REMSYN064    AAXX  14024 07335 36/// /1402 10006 21008 30007 40157 58004;EQDQ01  00002PRCP99
0135073350999992000011403004+46580+000320FM-12+012099999V0201501N00101999999BN9999999N1+00161-00021101561ADDAA199000091MA1999999100061MD1710041+9999REMSYN064    AAXX  14034 07335 36/// /1502 10016 21002 30006 40156 57004;EQDQ01  00002PRCP99
0135073350999992000011404004+46580+000320FM-12+012099999V0200501N00101999999BN9999999N1-00091-00201101571ADDAA199000091MA1999999100061MD1610031+9999REMSYN064    AAXX  14044 07335 36/// /0502 11009 21020 30006 40157 56003;EQDQ01  00002PRCP99
0252073350999992000011405004+46580+000320SY-MT+012099999V0200601N00101220001BN0150001N1-00191-00291101581ADDAA199000091GF104991041051017501001001MA1101391100061MD1610011+9999MW1001REMSYN080    AAXX  14054 07335 32765 40602 11019 21029 30006 40158 56001 84500 333 84656;MET047LFBI 140500Z 06002KT CAVOK M02/M03 Q1014 NOSIG;EQDQ01+000000PRSWM2Q02  00002PRCP99
0318073350999992000011406004+46580+000320SY-MT+012099999V0200701N00101220001BN0120001N1-00171-00211101591ADDAA124000091GF104991041051017501001001GJ100189IA1019IA2999-00509KA1999M+00341KA2999N-00211MA1101491100071MD1310011+9999MW1001REMSYN110    AAXX  14064 07335 32762 40702 11017 21021 30007 40159 53001 84500 333 10034 21021 30105 55003 70000 84656;MET047LFBI 140600Z 07001KT CAVOK M02/M02 Q1015 NOSIG;EQDQ01+000000PRSWM2
