0178080270999992000010100004+43300-002050FM-12+025999999V0202401N004110075019N0300001N1+00801+00581102871ADDAA106000191AY161061AY221061GF108991081071008001999999MA1999999099711MD1110081+9999MW1021REMSYN078AAXX  01004 08027 11580 82408 10080 20058 39971 40287 51008 69921 70262 887//;
0133080270999992000010103004+43300-002050FM-12+025999999V0202601N002110075019N0300001N1+00821+00651102871ADDGF108991081071008001999999MA1999999099711MD1410001+9999REMSYN066AAXX  01034 08027 42580 82604 10082 20065 39971 40287 54000 887//;
0209080270999992000010106004+43300-002050FM-12+025999999V0202301N002110075019N0300001N1+00841+00581102831ADDAA112000191GF108991081071008001999999IA1119IA2999+00709KA1120N+00721MA1999999099671MD1510041+9999REMSYN100AAXX  01064 08027 12580 82304 10084 20058 39967 40283 55004 69922 887// 333 20072 32007 50020 55000;
0161080270999992000010109004+43300-002050FM-12+025999999V0202801N002110075019N0200001N1+00821+00651102941ADDAY151031AY221031GF108991081071008001999999MA1999999099781MD1210111+9999MW1501REMSYN072AAXX  01094 08027 41570 82804 10082 20065 39978 40294 52011 75052 887//;
0178080270999992000010112004+43300-002050FM-12+025999999V0203401N001010075019N0150001N1+00881+00751102951ADDAA106000791AY151061AY221061GF108991081071008001999999MA1999999099791MD1010011+9999MW1021REMSYN078AAXX  01124 08027 11565 83402 10088 20075 39979 40295 50001 69901 70252 887//;
0201080270999992000010118004+43300-002050FM-12+025999999V0209999C000010075019N0100001N1+00841+00761102901ADDAA112000191AY151061AY221061GF108991081071008001999999KA1999M+00941MA1999999099741MD1110031+9999MW1021REMSYN088AAXX  01184 08027 11560 80000 10084 20076 39974 40290 51003 69922 70252 887// 333 10094;
0171080270999992000010121004+43300-002050FM-12+025999999V0201301N001510003019N0004001N1+00781+00741102921ADDAY151031AY241031GA1091+999999999GF109991091999999999999999MA1999999099751MD1110011+9999MW1471REMSYN066AAXX  01214 08027 41/04 91303 10078 20074 39975 40292 51001 74754;
0178080270999992000010200004+43300-002050FM-12+025999999V0200101N001010075019N0120001N1+00741+00701102951ADDAA106000591AY141061AY221061GF108991081071008001999999MA1999999099781MD1310031+9999MW1021REMSYN078AAXX  02004 08027 11562 80102 10074 20070 39978 40295 53003 69951 70242 887//;
0171080270999992000010203004+43300-002050FM-12+025999999V0202901N002610003019N0004001N1+00801+00711102911ADDAY141031AY221031GA1091+999999999GF109991091999999999999999MA1999999099751MD1510031+9999MW1471REMSYN066AAXX  02034 08027 41/04 92905 10080 20071 39975 40291 55003 74742;
0237080270999992000010206004+43300-002050FM-12+025999999V0203101N001010075019N0100001N1+00781+00741102821ADDAA112000591AY141061AY221061GF108991081071008001999999IA1099IA2999+00809KA1120N+00721MA1999999099661MD1610091+9999MW1021REMSYN106AAXX  02064 08027 11560 83102 10078 20074 39966 40282 56009 69952 70242 887// 333 20072 31008 50020 55000;
0171080270999992000010209004+43300-002050FM-12+025999999V0200101N002110006019N0007001N1+00821+00781103021ADDAY161031AY241031GA1091+999999999GF109991091999999999999999MA1999999099861MD1110121+9999MW1471REMSYN066AAXX  02094 08027 41/07 90104 10082 20078 39986 40302 51012 74764;
0178080270999992000010212004+43300-002050FM-12+025999999V0203301N002110021019N0020001N1+00881+00881102891ADDAA106000891AY161061AY241061GF108991081061002501999999MA1999999099741MD1810121+9999MW1101REMSYN078AAXX  02124 08027 11320 83304 10088 20088 39974 40289 58012 69981 71064 886//;
0201080270999992000010218004+43300-002050FM-12+025999999V0200701N002110090019N0030001N1+00841+00801102771ADDAA112000891AY121061AY221061GF108991081081004501999999KA1999M+00941MA1999999099621MD1410001+9999MW1101REMSYN088AAXX  02184 08027 11430 80704 10084 20080 39962 40277 54000 69982 71022 888// 333 10094;
0161080270999992000010221004+43300-002050FM-12+025999999V0200801N002110042019N0030001N1+00861+00821102771ADDAY121031AY221031GF108991081061004501999999MA1999999099621MD1510001+9999MW1101REMSYN072AAXX  02214 08027 41430 80804 10086 20082 39962 40277 55000 71022 886//;
0201080270999992000010300004+43300-002050FM-12+025999999V0201501N002112200019N0040001N1+00741+00701102791ADDAA106000091AY111061AY201061GA1001+999999999GF100991001001999999001001MA1999999099621MD1410001+9999MW1101REMSYN066AAXX  03004 08027 31940 01504 10074 20070 39962 40279 54000 71010;EQDQ01  00002PRCP06
0143080270999992000010303004+43300-002050FM-12+025999999V0201701N005112200019N0300001N1+00621+00391102761ADDGA1001+999999999GF100991001001999999001001MA1999999099581MD1810041+9999REMSYN060AAXX  03034 08027 42980 01710 10062 20039 39958 40276 58004;
0232080270999992000010306004+43300-002050FM-12+025999999V0201701N007212200019N0150001N1+00681+00191102681ADDAA106000091GA1001+999999999GF100991001001999999001001IA1099IA2999+00509KA1120N+00581MA1999999099511MD1710071+9999REMSYN088AAXX  03064 08027 32965 01714 10068 20019 39951 40268 57007 333 20058 31005 50060 55001;EQDQ01  00002PRCP06
0133080270999992000010309004+43300-002050FM-12+025999999V0201601N009812200019N0200001N1+00781+00201102701ADDGF101991001001999999001011MA1999999099541MD1310031+9999REMSYN066AAXX  03094 08027 42970 11619 10078 20020 39954 40270 53003 80001;
0163080270999992000010312004+43300-002050FM-12+025999999V0201601N007212200019N0200001N1+01081+00301102671ADDAA106000091GF103991001001999999001011MA1999999099541MD1010001+9999REMSYN066AAXX  03124 08027 32970 31614 10108 20030 39954 40267 50000 80001;EQDQ01  00002PRCP06
0186080270999992000010318004+43300-002050FM-12+025999999V0201601N008212200019N0250001N1+00961+00141102601ADDAA106000091GF101991001001999999001011KA1999M+01201MA1999999099461MD1510001+9999REMSYN076AAXX  03184 08027 32975 11616 10096 20014 39946 40260 55000 80001 333 10120;EQDQ01  00002PRCP06
0143080270999992000010321004+43300-002050FM-12+025999999V0201601N008212200019N0250001N1+00901+00181102651ADDGA1001+999999999GF100991001001999999001001MA1999999099501MD1110041+9999REMSYN060AAXX  03214 08027 42975 01616 10090 20018 39950 40265 51004;
0173080270999992000010400004+43300-002050FM-12+025999999V0201701N009312200019N0250001N1+00841+00161102621ADDAA106000091GA1001+999999999GF100991001001999999001001MA1999999099471MD1710031+9999REMSYN060AAXX  04004 08027 32975 01718 10084 20016 39947 40262 57003;EQDQ01  00002PRCP06
0143080270999992000010403004+43300-002050FM-12+025999999V0201701N009312200019N0250001N1+00821+00141102591ADDGA1001+999999999GF100991001001999999001001MA1999999099431MD1610041+9999REMSYN060AAXX  04034 08027 42975 01718 10082 20014 39943 40259 56004;
0133080270999992000010409004+43300-002050FM-12+025999999V0201801N004112200019N0200001N1+00801+00051102741ADDGF101991001001999999001011MA1999999099581MD1210121+9999REMSYN066AAXX  04094 08027 42970 11808 10080 20005 39958 40274 52012 80001;
0163080270999992000010412004+43300-002050FM-12+025999999V0201701N006212200019N0250001N1+01101+00161102711ADDAA106000091GF101991001001999999001011MA1999999099581MD1010001+9999REMSYN066AAXX  04124 08027 32975 11712 10110 20016 39958 40271 50000 80001;EQDQ01  00002PRCP06
0186080270999992000010418004+43300-002050FM-12+025999999V0201601N002112200019N0250001N1+01121+00121102631ADDAA106000091GF103991001001999999001011KA1999M+01321MA1999999099511MD1110041+9999REMSYN076AAXX  04184 08027 32975 31604 10112 20012 39951 40263 51004 80001 333 10132;EQDQ01  00002PRCP06
0133080270999992000010421004+43300-002050FM-12+025999999V0203101N004612200019N0250001N1+01101+00331102751ADDGF102991011001017501051011MA1999999099621MD1310111+9999REMSYN066AAXX  04214 08027 42775 23109 10110 20033 39962 40275 53011 81051;
0163080270999992000010500004+43300-002050FM-12+025999999V0201801N002610360019N0200001N1+00881+00381102771ADDAA106000091GF108991031061012501071999MA1999999099621MD1010001+9999REMSYN066AAXX  05004 08027 32670 81805 10088 20038 39962 40277 50000 8367/;EQDQ01  00002PRCP06
0143080270999992000010503004+43300-002050FM-12+025999999V0201801N002112200019N0300001N1+00781+00261102581ADDGA1001+999999999GF100991001001999999001001MA1999999099421MD1710201+9999REMSYN060AAXX  05034 08027 42980 01804 10078 20026 39942 40258 57020;
0232080270999992000010506004+43300-002050FM-12+025999999V0201701N003112200019N0250001N1+00781+00261102371ADDAA106000091GA1001+999999999GF100991001001999999001001IA1019IA2999+00609KA1120N+00721MA1999999099221MD1710201+9999REMSYN088AAXX  05064 08027 32975 01706 10078 20026 39922 40237 57020 333 20072 30006 50150 55065;EQDQ01  00002PRCP06
0133080270999992000010509004+43300-002050FM-12+025999999V0201601N006710360019N0250001N1+00741+00261102301ADDGF106991011011012501041051MA1999999099151MD1610071+9999REMSYN066AAXX  05094 08027 42675 61613 10074 20026 39915 40230 56007 81145;
0163080270999992000010512004+43300-002050FM-12+025999999V0201801N008210360019N0220001N1+00981+00341102141ADDAA106000091GF106991011011012501041051MA1999999099021MD1810131+9999REMSYN066AAXX  05124 08027 32672 61816 10098 20034 39902 40214 58013 81145;EQDQ01  00002PRCP06
0133080270999992000010521004+43300-002050FM-12+025999999V0201601N014912200019N0200001N1+00961-00171101691ADDGF102991011011012501041001MA1999999098581MD1710011+9999REMSYN066AAXX  05214 08027 42670 21629 10096 21017 39858 40169 57001 81140;
0143080270999992000010603004+43300-002050FM-12+025999999V0201601N012912200019N0300001N1+00761-00201101841ADDGA1001+999999999GF100991001001999999001001MA1999999098701MD1210071+9999REMSYN060AAXX  06034 08027 42980 01625 10076 21020 39870 40184 52007;
0232080270999992000010606004+43300-002050FM-12+025999999V0201801N008212200019N0300001N1+00741-00031101921ADDAA106000091GA1001+999999999GF100991001001999999001001IA1019IA2999+00709KA1120N+00661MA1999999098781MD1110081+9999REMSYN088AAXX  06064 08027 32980 01816 10074 21003 39878 40192 51008 333 20066 30007 50350 55004;EQDQ01  00002PRCP06
0133080270999992000010609004+43300-002050FM-12+025999999V0201601N008219999999N0300001N1+00841-00021102081ADDGF106991001001999999001011MA1999999098941MD1210161+9999REMSYN066AAXX  06094 08027 42980 61616 10084 21002 39894 40208 52016 80001;
0163080270999992000010612004+43300-002050FM-12+025999999V0202001N004119999999N0400001N1+01181+00091102251ADDAA106000091GF106991001001999999001011MA1999999099141MD1110201+9999REMSYN066AAXX  06124 08027 32982 62008 10118 20009 39914 40225 51020 80001;EQDQ01  00002PRCP06
0133080270999992000010621004+43300-002050FM-12+025999999V0201801N002112200019N0300001N1+00841+00221102611ADDGF102991011001017501081011MA1999999099461MD1210111+9999REMSYN066AAXX  06214 08027 42780 21804 10084 20022 39946 40261 52011 81081;
0163080270999992000010700004+43300-002050FM-12+025999999V0201601N003112200019N0250001N1+00801+00171102631ADDAA106000091GF102991011001017501081011MA1999999099471MD1110011+9999REMSYN066AAXX  07004 08027 32775 21606 10080 20017 39947 40263 51001 81081;EQDQ01  00002PRCP06
0133080270999992000010703004+43300-002050FM-12+025999999V0201601N002110150019N0200001N1+00901+00241102691ADDGF107991071001017501071999MA1999999099541MD1110071+9999REMSYN066AAXX  07034 08027 42770 71604 10090 20024 39954 40269 51007 8707/;
0222080270999992000010706004+43300-002050FM-12+025999999V0201601N002110150019N0200001N1+00961+00201102611ADDAA106000091GF107991071001017501051999IA1099IA2999+00709KA1120N+00761MA1999999099471MD1610071+9999REMSYN094AAXX  07064 08027 32770 71604 10096 20020 39947 40261 56007 8705/ 333 20076 31007 50010 55078;EQDQ01  00002PRCP06
0133080270999992000010709004+43300-002050FM-12+025999999V0201801N002110150019N0400001N1+00981+00231102681ADDGF107991071001017501051999MA1999999099541MD1310071+9999REMSYN066AAXX  07094 08027 42782 71804 10098 20023 39954 40268 53007 8705/;
0163080270999992000010712004+43300-002050FM-12+025999999V0203401N001012200019N0300001N1+01121+00561102621ADDAA106000091GF101991011001017501041001MA1999999099501MD1810041+9999REMSYN066AAXX  07124 08027 32780 13402 10112 20056 39950 40262 58004 81040;EQDQ01  00002PRCP06
0186080270999992000010718004+43300-002050FM-12+025999999V0209999C000012200019N0150001N1+01001+00361102481ADDAA106000091GF101991011001017501041001KA1999M+01381MA1999999099351MD1410001+9999REMSYN076AAXX  07184 08027 32765 10000 10100 20036 39935 40248 54000 81040 333 10138;EQDQ01  00002PRCP06
0133080270999992000010721004+43300-002050FM-12+025999999V0201701N003110150019N0150001N1+01021+00491102481ADDGF107991071001017501051999MA1999999099351MD1410001+9999REMSYN066AAXX  07214 08027 42765 71706 10102 20049 39935 40248 54000 8705/;
0163080270999992000010800004+43300-002050FM-12+025999999V0200301N001010150019N0100001N1+01101+00441102471ADDAA106000091GF107991071001017501051999MA1999999099351MD1410001+9999REMSYN066AAXX  08004 08027 32760 70302 10110 20044 39935 40247 54000 8705/;EQDQ01  00002PRCP06
0133080270999992000010803004+43300-002050FM-12+025999999V0203001N002110075019N0150001N1+01101+00331102421ADDGF107991071051008001999999MA1999999099301MD1810051+9999REMSYN066AAXX  08034 08027 42565 73004 10110 20033 39930 40242 58005 875//;
0222080270999992000010806004+43300-002050FM-12+025999999V0201701N001010075019N0150001N1+00981+00451102361ADDAA106000091GF107991071051008001999999IA1099IA2999+00909KA1120N+00921MA1999999099231MD1710071+9999REMSYN094AAXX  08064 08027 32565 71702 10098 20045 39923 40236 57007 875// 333 20092 31009 50010 55075;EQDQ01  00002PRCP06
0133080270999992000010809004+43300-002050FM-12+025999999V0201701N002110150019N0100001N1+01021+00391102401ADDGF107991071001017501051999MA1999999099271MD1310041+9999REMSYN066AAXX  08094 08027 42760 71704 10102 20039 39927 40240 53004 8705/;
0163080270999992000010812004+43300-002050FM-12+025999999V0201501N003110150019N0150001N1+01201+00461102331ADDAA106000091GF107991071001017501051999MA1999999099231MD1810041+9999REMSYN066AAXX  08124 08027 32765 71506 10120 20046 39923 40233 58004 8705/;EQDQ01  00002PRCP06
0186080270999992000010818004+43300-002050FM-12+025999999V0203201N001512200019N0150001N1+01161+00411102331ADDAA106000091GF104991041041012501001001KA1999M+01341MA1999999099221MD1310071+9999REMSYN076AAXX  08184 08027 32665 43203 10116 20041 39922 40233 53007 84400 333 10134;EQDQ01  00002PRCP06
0133080270999992000010821004+43300-002050FM-12+025999999V0201301N001012200019N0150001N1+01061+00491102341ADDGF104991041001017501071001MA1999999099221MD1410001+9999REMSYN066AAXX  08214 08027 42765 41302 10106 20049 39922 40234 54000 84070;
0163080270999992000010900004+43300-002050FM-12+025999999V0203201N003112200019N0150001N1+01001+00521102301ADDAA106000091GF103991031001017501071001MA1999999099181MD1810041+9999REMSYN066AAXX  09004 08027 32765 33206 10100 20052 39918 40230 58004 83070;EQDQ01  00002PRCP06
0133080270999992000010903004+43300-002050FM-12+025999999V0203101N004110360019N0150001N1+00961+00571102271ADDGF106991031051008001071001MA1999999099141MD1510041+9999REMSYN066AAXX  09034 08027 42565 63108 10096 20057 39914 40227 55004 83570;
0188080270999992000010909004+43300-002050FM-12+025999999V0200101N008210090019N0050001N1+00741+00651102631ADDAY161031AY221031GF108991081081004501999999MA1999999099471MD1310331+9999MW1611OA149902681REMSYN088AAXX  09094 08027 41450 80116 10074 20065 39947 40263 53033 76162 888// 333 91152 91535;
0178080270999992000010912004+43300-002050FM-12+025999999V0200301N003610120019N0120001N1+00761+00541102831ADDAA106002091AY161061AY221061GF107991051081008001071001MA1999999099661MD1210191+9999MW1021REMSYN078AAXX  09124 08027 11562 70307 10076 20054 39966 40283 52019 60021 70262 85870;
0201080270999992000010918004+43300-002050FM-12+025999999V0203501N004110120019N0150001N1+00621+00481102971ADDAA112003091AY161061AY221061GF107991071081008001999999KA1999M+00961MA1999999099781MD1310121+9999MW1611REMSYN088AAXX  09184 08027 11565 73508 10062 20048 39978 40297 53012 60032 76162 878// 333 10096;
0161080270999992000010921004+43300-002050FM-12+025999999V0209999V001510075019N0100001N1+00521+00431103071ADDAY161031AY261031GF108991081071008001999999MA1999999099871MD1110091+9999MW1211REMSYN072AAXX  09214 08027 41560 89903 10052 20043 39987 40307 51009 72166 887//;
0178080270999992000011000004+43300-002050FM-12+025999999V0200701N003110075019N0100001N1+00521+00431103141ADDAA106009991AY161061AY221061GF108991081071008001999999MA1999999099941MD1310071+9999MW1211REMSYN078AAXX  10004 08027 11560 80706 10052 20043 39994 40314 53007 60101 72162 887//;
0133080270999992000011003004+43300-002050FM-12+025999999V0200401N005110075019N0100001N1+00441+00341103241ADDGF107991071071008001999999MA1999999100021MD1310081+9999REMSYN066AAXX  10034 08027 42560 70410 10044 20034 30002 40324 53008 877//;
0209080270999992000011006004+43300-002050FM-12+025999999V0200401N003612200019N0100001N1+00361+00311103331ADDAA112009991GF102991021071008001999999IA1119IA2999+00409KA1120N+00361MA1999999100101MD1310081+9999REMSYN100AAXX  10064 08027 12560 20407 10036 20031 30010 40333 53008 60102 827// 333 20036 32004 50200 55022;
0161080270999992000011009004+43300-002050FM-12+025999999V0209999V001010090019N0040001N1+00321+00221103461ADDAY121031AY221031GF106991061081004501999999MA1999999100221MD1310121+9999MW1101REMSYN072AAXX  10094 08027 41440 69902 10032 20022 30022 40346 53012 71022 868//;
0163080270999992000011012004+43300-002050FM-12+025999999V0200201N002112200019N0120001N1+00401+00201103501ADDAA106000091GF103991031021008001999999MA1999999100271MD1010051+9999REMSYN066AAXX  10124 08027 32562 30204 10040 20020 30027 40350 50005 832//;EQDQ01  00002PRCP06
0186080270999992000011018004+43300-002050FM-12+025999999V0200301N002112200019N0300001N1+00401+00091103531ADDAA106000091GF103991031021008001001001KA1999M+00521MA1999999100301MD1110121+9999REMSYN076AAXX  10184 08027 32580 30304 10040 20009 30030 40353 51012 83200 333 10052;EQDQ01  00002PRCP06
0133080270999992000011021004+43300-002050FM-12+025999999V0200101N002112200019N0300001N1+00401+00031103531ADDGF103991031021008001001001MA1999999100301MD1410001+9999REMSYN066AAXX  10214 08027 42580 30104 10040 20003 30030 40353 54000 83200;
0163080270999992000011100004+43300-002050FM-12+025999999V0209999V001012200019N0300001N1+00381+00011103531ADDAA106000091GF103991031051008001001001MA1999999100301MD1410001+9999REMSYN066AAXX  11004 08027 32580 39902 10038 20001 30030 40353 54000 83500;EQDQ01  00002PRCP06
0222080270999992000011106004+43300-002050FM-12+025999999V0200101N001012200019N0300001N1+00241+00081103591ADDAA106000091GF103991031051008001001001IA1099IA2999+00009KA1120N+00161MA1999999100341MD1310041+9999REMSYN094AAXX  11064 08027 32580 30102 10024 20008 30034 40359 53004 83500 333 20016 31000 50010 55057;EQDQ01  00002PRCP06
0133080270999992000011109004+43300-002050FM-12+025999999V0200801N001010075019N0150001N1+00281+00011103681ADDGF106991061071008001001001MA1999999100431MD1210091+9999REMSYN066AAXX  11094 08027 42565 60802 10028 20001 30043 40368 52009 86700;
0163080270999992000011112004+43300-002050FM-12+025999999V0203401N001012200019N0200001N1+00361+00101103581ADDAA106000091GF104991041051008001001001MA1999999100341MD1810091+9999REMSYN066AAXX  11124 08027 32570 43402 10036 20010 30034 40358 58009 84500;EQDQ01  00002PRCP06
0214080270999992000011118004+43300-002050FM-12+025999999V0200901N001510042019N0040001N1+00361+00211103461ADDAA106000091AY121061AY221061GF108991081061004501999999KA1999M+00501MA1999999100231MD1210051+9999MW1101REMSYN082AAXX  11184 08027 31440 80903 10036 20021 30023 40346 52005 71022 886// 333 10050;EQDQ01  00002PRCP06
0161080270999992000011121004+43300-002050FM-12+025999999V0201601N002112200019N0050001N1+00261+00101103431ADDAY111031AY201031GF102991021061004501001001MA1999999100191MD1810041+9999MW1101REMSYN072AAXX  11214 08027 41450 21604 10026 20010 30019 40343 58004 71010 82600;
0173080270999992000011200004+43300-002050FM-12+025999999V0203201N001512200019N0200001N1+00261+00161103341ADDAA106000091GA1001+999999999GF100991001001999999001001MA1999999100101MD1710091+9999REMSYN060AAXX  12004 08027 32970 03203 10026 20016 30010 40334 57009;EQDQ01  00002PRCP06
0161080270999992000011203004+43300-002050FM-12+025999999V0203001N002112200019N0050001N1+00301+00251103211ADDAY101031AY201031GF102991021061004501001001MA1999999099981MD1710121+9999MW1101REMSYN072AAXX  12034 08027 41450 23004 10030 20025 39998 40321 57012 71000 82600;
0266080270999992000011206004+43300-002050FM-12+025999999V0201601N002112200019N0150001N1+00061+00061103121ADDAA106000091AY101061AY201061GA1001+999999999GF100991001001999999001001IA1149IA2999+00109KA1120N+00021MA1999999099861MD1710121+9999MW1101REMSYN100AAXX  12064 08027 32965 01604 10006 20006 39986 40312 57012 71000 82600 333 20002 34001 50010 55051;EQDQ01  00002PRCP06
0191080270999992000011212004+43300-002050FM-12+025999999V0209999C000012200019N0050001N1+00421+00321102951ADDAA106000091AY101061AY201061GF101991011001017501041001MA1999999099741MD1810131+9999MW1101REMSYN072AAXX  12124 08027 31750 10000 10042 20032 39974 40295 58013 71000 81040;EQDQ01  00002PRCP06
0224080270999992000011218004+43300-002050FM-12+025999999V0201801N002112200019N0020001N1+00361+00261102751ADDAA106000091AY141061AY201061GA1001+999999999GF100991001001999999001001KA1999M+00441MA1999999099541MD1710041+9999MW1101REMSYN076AAXX  12184 08027 31920 01804 10036 20026 39954 40275 57004 71040 333 10044;EQDQ01  00002PRCP06
0171080270999992000011221004+43300-002050FM-12+025999999V0201901N002112200019N0020001N1+00481-00111102631ADDAY101031AY201031GA1001+999999999GF100991001001999999001001MA1999999099431MD1710111+9999MW1051REMSYN066AAXX  12214 08027 41920 01904 10048 21011 39943 40263 57011 70500;
0173080270999992000011300004+43300-002050FM-12+025999999V0201701N005112200019N0350001N1+00481-00111102451ADDAA106000091GA1001+999999999GF100991001001999999001001MA1999999099261MD1710171+9999REMSYN060AAXX  13004 08027 32981 01710 10048 21011 39926 40245 57017;EQDQ01  00002PRCP06
0143080270999992000011303004+43300-002050FM-12+025999999V0201801N005112200019N0350001N1+00521-00061102211ADDGA1001+999999999GF100991001001999999001001MA1999999099031MD1810231+9999REMSYN060AAXX  13034 08027 42981 01810 10052 21006 39903 40221 58023;
0222080270999992000011306004+43300-002050FM-12+025999999V0201601N005110150019N0350001N1+00521-00061102041ADDAA106000091GF107991071001017501051999IA1099IA2999+00409KA1120N+00301MA1999999098871MD1710161+9999REMSYN094AAXX  13064 08027 32781 71610 10052 21006 39887 40204 57016 8705/ 333 20030 31004 50130 55080;EQDQ01  00002PRCP06
0133080270999992000011309004+43300-002050FM-12+025999999V0201701N007210150019N0150001N1+00681+00021101931ADDGF107991061001017501051011MA1999999098781MD1610091+9999REMSYN066AAXX  13094 08027 42765 71714 10068 20002 39878 40193 56009 86051;
0163080270999992000011312004+43300-002050FM-12+025999999V0201801N009810150019N0100001N1+00761+00001101731ADDAA106000091GF107991071001017501071999MA1999999098591MD1710191+9999REMSYN066AAXX  13124 08027 32760 71819 10076 20000 39859 40173 57019 8707/;EQDQ01  00002PRCP06
0173080270999992000011318004+43300-002050FM-12+025999999V0201601N008210075019N0100001N1+00861-00051101421ADDAA112000791GF108991051051008001071999KA1999M+00901MA1999999098301MD1710081+9999REMSYN082AAXX  13184 08027 12560 81616 10086 21005 39830 40142 57008 69902 8557/ 333 10090;
0137080270999992000011321004+43300-002050FM-12+025999999V0201601N008210075019N0100001N1+00821-00101101341ADDGF108991051051008001071999MA1999999098221MD1810081+9999REMSYN070    AAXX  13214 08027 42560 81616 10082 21010 39822 40134 58008 8557/;
0167080270999992000011400004+43300-002050FM-12+025999999V0201601N007210360019N0150001N1+00821-00321101221ADDAA199000091GF107991031051008001071001MA1999999098101MD1810121+9999REMSYN070    AAXX  14004 08027 32565 71614 10082 21032 39810 40122 58012 83570;EQDQ01  00002PRCP99
0137080270999992000011403004+43300-002050FM-12+025999999V0201601N009810360019N0150001N1+00801-00271101131ADDGF108991041051008001071999MA1999999098021MD1710081+9999REMSYN070    AAXX  14034 08027 42565 81619 10080 21027 39802 40113 57008 8457/;
0226080270999992000011406004+43300-002050FM-12+025999999V0201601N007210075019N0150001N1+00741-00081101071ADDAA199000091GF108991051051008001071999IA1019IA2999+00709KA1120N+00681MA1999999097951MD1610071+9999REMSYN098    AAXX  14064 08027 32565 81614 10074 21008 39795 40107 56007 8557/ 333 20068 30007 50160 55007;EQDQ01  00002PRCP99
0137080270999992000011409004+43300-002050FM-12+025999999V0201501N003110360019N0150001N1+00701+00051101071ADDGF106991031051012501071011MA1999999097951MD1410001+9999REMSYN070    AAXX  14094 08027 42665 61506 10070 20005 39795 40107 54000 83571;
0167080270999992000011412004+43300-002050FM-12+025999999V0201401N002610900019N0150001N1+00961+00091101081ADDAA199000091GF105991021051012501071011MA1999999097991MD1010081+9999REMSYN070    AAXX  14124 08027 32665 51405 10096 20009 39799 40108 50008 82571;EQDQ01  00002PRCP99
0190080270999992000011418004+43300-002050FM-12+025999999V0200801N002110120019N0250001N1+00861+00251101131ADDAA199000091GF108991051051012501071999KA1999M+01041MA1999999098021MD1210151+9999REMSYN080    AAXX  14184 08027 32675 80804 10086 20025 39802 40113 52015 8557/ 333 10104;EQDQ01  00002PRCP99
0137080270999992000011421004+43300-002050FM-12+025999999V0201401N002610120019N0250001N1+00801+00061101271ADDGF108991051051012501071999MA1999999098151MD1210131+9999REMSYN070    AAXX  14214 08027 42675 81405 10080 20006 39815 40127 52013 8557/;
0167080270999992000011500004+43300-002050FM-12+025999999V0201901N003110120019N0250001N1+00821+00021101461ADDAA199000091GF108991051051012501071999MA1999999098341MD1210191+9999REMSYN070    AAXX  15004 08027 32675 81906 10082 20002 39834 40146 52019 8557/;EQDQ01  00002PRCP99
0137080270999992000011503004+43300-002050FM-12+025999999V0200301N002610120019N0250001N1+00821+00251101541ADDGF108991051071012501071999MA1999999098421MD1310081+9999REMSYN070    AAXX  15034 08027 42675 80305 10082 20025 39842 40154 53008 8577/;
0226080270999992000011506004+43300-002050FM-12+025999999V0201801N00101036001CN0140001N1+00701+00381101681ADDAA199000091GF106991021051012501071999IA1019IA2999+00709KA1120N+00681MA1999999098541MD1310121+9999REMSYN098    AAXX  15064 08027 32664 61802 10070 20038 39854 40168 53012 8257/ 333 20068 30007 50160 55015;EQDQ01  00002PRCP99
0137080270999992000011509004+43300-002050FM-12+025999999V0202101N00211036001CN0100001N1+00721+00241101931ADDGF106991021051012501071999MA1999999098781MD1210241+9999REMSYN070    AAXX  15094 08027 42660 62104 10072 20024 39878 40193 52024 8257/;
0195080270999992000011512004+43300-002050FM-12+025999999V0200101N002112200019N0050001N1+00801+00631102051ADDAA199000091AY121061AY221061GF104991041001017501051999MA1999999098911MD1110131+9999MW1101REMSYN076    AAXX  15124 08027 31750 40104 10080 20063 39891 40205 51013 71022 8405/;EQDQ01  00002PRCP99
0190080270999992000011518004+43300-002050FM-12+025999999V0209999V001012200019N0150001N1+00701+00321102301ADDAA199000091GF102991021051012501001001KA1999M+00921MA1999999099141MD1210161+9999REMSYN080    AAXX  15184 08027 32665 29902 10070 20032 39914 40230 52016 82500 333 10092;EQDQ01  00002PRCP99
0137080270999992000011521004+43300-002050FM-12+025999999V0202801N002112200019N0150001N1+00641+00501102481ADDGF102991021051012501001001MA1999999099311MD1210171+9999REMSYN070    AAXX  15214 08027 42665 22804 10064 20050 39931 40248 52017 82500;
0167080270999992000011600004+43300-002050FM-12+025999999V0209999C000012200019N0150001N1+00561+00421102601ADDAA199000091GF101991011051008001001001MA1999999099421MD1110111+9999REMSYN070    AAXX  16004 08027 32565 10000 10056 20042 39942 40260 51011 81500;EQDQ01  00002PRCP99
0137080270999992000011603004+43300-002050FM-12+025999999V0209999C000012200019N0150001N1+00561+00421102601ADDGF101991011051008001001001MA1999999099421MD1410001+9999REMSYN070    AAXX  16034 08027 42565 10000 10056 20042 39942 40260 54000 81500;
0226080270999992000011606004+43300-002050FM-12+025999999V0201701N002112200019N0150001N1+00501+00361102661ADDAA199000091GF103991031051008001001001IA1099IA2999+00309KA1120N+00441MA1999999099471MD1310051+9999REMSYN098    AAXX  16064 08027 32565 31704 10050 20036 39947 40266 53005 83500 333 20044 31003 50030 55044;EQDQ01  00002PRCP99
0165080270999992000011609004+43300-002050FM-12+025999999V0203601N001010075019N0050001N1+00681+00591102721ADDAY121031AY221031GF108991081061008001999999MA1999999099551MD1110081+9999MW1101REMSYN076    AAXX  16094 08027 41550 83602 10068 20059 39955 40272 51008 71022 886//;
0195080270999992000011612004+43300-002050FM-12+025999999V0203601N005110075019N0040001N1+00461+00411102831ADDAA199000091AY121061AY221061GF108991081061008001999999MA1999999099631MD1110081+9999MW1101REMSYN076    AAXX  16124 08027 31540 83610 10046 20041 39963 40283 51008 71022 886//;EQDQ01  00002PRCP99
0190080270999992000011618004+43300-002050FM-12+025999999V0203101N002110075019N0150001N1+00461+00311102871ADDAA199000091GF108991081061008001999999KA1999M+00701MA1999999099671MD1110041+9999REMSYN080    AAXX  16184 08027 32565 83104 10046 20031 39967 40287 51004 886// 333 10070;EQDQ01  00002PRCP99
0137080270999992000011621004+43300-002050FM-12+025999999V0202601N003110075019N0150001N1+00501+00411102951ADDGF108991081061008001999999MA1999999099751MD1110081+9999REMSYN070    AAXX  16214 08027 42565 82606 10050 20041 39975 40295 51008 886//;
0137080270999992000011703004+43300-002050FM-12+025999999V0202601N002110075019N0150001N1+00501+00311103031ADDGF108991081061008001999999MA1999999099831MD1410001+9999REMSYN070    AAXX  17034 08027 42565 82604 10050 20031 39983 40303 54000 886//;
0226080270999992000011706004+43300-002050FM-12+025999999V0200701N002110075019N0200001N1+00421+00271103161ADDAA199000091GF108991081061008001999999IA1099IA2999+00409KA1120N+00421MA1999999099941MD1110111+9999REMSYN098    AAXX  17064 08027 32570 80704 10042 20027 39994 40316 51011 886// 333 20042 31004 50060 55000;EQDQ01  00002PRCP99
0165080270999992000011709004+43300-002050FM-12+025999999V0200401N002110075019N0050001N1+00401+00251103241ADDAY121031AY221031GF108991081061008001999999MA1999999100021MD1310081+9999MW1101REMSYN076    AAXX  17094 08027 41550 80404 10040 20025 30002 40324 53008 71022 886//;
0195080270999992000011712004+43300-002050FM-12+025999999V0200201N003110075019N0050001N1+00421+00221103291ADDAA199000091AY121061AY221061GF108991081061008001999999MA1999999100071MD1110051+9999MW1101REMSYN076    AAXX  17124 08027 31550 80206 10042 20022 30007 40329 51005 71022 886//;EQDQ01  00002PRCP99
0218080270999992000011718004+43300-002050FM-12+025999999V0203501N001010042019N0030001N1+00401+00201103241ADDAA199000091AY121061AY221061GF108991081051004501999999KA1999M+00461MA1999999100021MD1310031+9999MW1101REMSYN086    AAXX  17184 08027 31430 83502 10040 20020 30002 40324 53003 71022 885// 333 10046;EQDQ01  00002PRCP99
0165080270999992000011721004+43300-002050FM-12+025999999V0201701N001010042019N0030001N1+00401+00141103241ADDAY121031AY221031GF107991071051004501999999MA1999999100021MD1410001+9999MW1101REMSYN076    AAXX  17214 08027 41430 71702 10040 20014 30002 40324 54000 71022 875//;
0195080270999992000011800004+43300-002050FM-12+025999999V0201201N001010042019N0020001N1+00281+00071103221ADDAA199000091AY121061AY221061GF106991061051004501999999MA1999999099981MD1810041+9999MW1101REMSYN076    AAXX  18004 08027 31420 61202 10028 20007 39998 40322 58004 71022 865//;EQDQ01  00002PRCP99
0165080270999992000011803004+43300-002050FM-12+025999999V0200401N002110042019N0020001N1+00281+00121103131ADDAY121031AY221031GF108991081061004501999999MA1999999099901MD1810081+9999MW1101REMSYN076    AAXX  18034 08027 41420 80404 10028 20012 39990 40313 58008 71022 886//;
0254080270999992000011806004+43300-002050FM-12+025999999V0201801N001010042019N0020001N1+00281+00011103021ADDAA199000091AY121061AY221061GF108991081061004501999999IA1099IA2999+00009KA1120N+00201MA1999999099791MD1710111+9999MW1101REMSYN104    AAXX  18064 08027 31420 81802 10028 20001 39979 40302 57011 71022 886// 333 20020 31000 50090 55006;EQDQ01  00002PRCP99
0175080270999992000011809004+43300-002050FM-12+025999999V0203601N001010006019N0008001N1+00321+00221103061ADDAY121031AY221031GA1091+999999999GF109991091999999999999999MA1999999099831MD1310041+9999MW1471REMSYN070    AAXX  18094 08027 41/08 93602 10032 20022 39983 40306 53004 74722;
0205080270999992000011812004+43300-002050FM-12+025999999V0200101N002110003019N0002001N1+00361+00311103041ADDAA199000091AY141061AY221061GA1091+999999999GF109991091999999999999999MA1999999099821MD1810011+9999MW1471REMSYN070    AAXX  18124 08027 31/02 90104 10036 20031 39982 40304 58001 74742;EQDQ01  00002PRCP99
0218080270999992000011818004+43300-002050FM-12+025999999V0202201N001010042019N0080001N1+00421+00371102911ADDAA199000091AY121061AY221061GF108991081051004501999999KA1999M+00441MA1999999099701MD1410001+9999MW1101REMSYN086    AAXX  18184 08027 31458 82202 10042 20037 39970 40291 54000 71022 885// 333 10044;EQDQ01  00002PRCP99
0175080270999992000011821004+43300-002050FM-12+025999999V0200301N004610003019N0002001N1+00361+00361103011ADDAY141031AY221031GA1091+999999999GF109991091999999999999999MA1999999099791MD1210091+9999MW1451REMSYN070    AAXX  18214 08027 41/02 90309 10036 20036 39979 40301 52009 74542;
0205080270999992000011900004+43300-002050FM-12+025999999V0200601N003110003019N0003001N1+00241+00241103021ADDAA199000091AY141061AY241061GA1091+999999999GF109991091999999999999999MA1999999099791MD1410001+9999MW1451REMSYN070    AAXX  19004 08027 31/03 90606 10024 20024 39979 40302 54000 74544;EQDQ01  00002PRCP99
0165080270999992000011903004+43300-002050FM-12+025999999V0202001N001510021019N0050001N1+00261+00211102981ADDAY141031AY221031GF108991081061002501999999MA1999999099751MD1810041+9999MW1101REMSYN076    AAXX  19034 08027 41350 82003 10026 20021 39975 40298 58004 71042 886//;
0254080270999992000011906004+43300-002050FM-12+025999999V0202901N000510042019N0080001N1+00401+00301102951ADDAA199000091AY121061AY221061GF108991081061004501999999IA1099IA2999+00209KA1120N+00221MA1999999099741MD1610011+9999MW1101REMSYN104    AAXX  19064 08027 31458 82901 10040 20030 39974 40295 56001 71022 886// 333 20022 31002 50050 55000;EQDQ01  00002PRCP99
0165080270999992000011909004+43300-002050FM-12+025999999V0203601N003110042019N0080001N1+00521+00381102991ADDAY121031AY221031GF108991081051004501999999MA1999999099791MD1210051+9999MW1101REMSYN076    AAXX  19094 08027 41458 83606 10052 20038 39979 40299 52005 71022 885//;
0195080270999992000011912004+43300-002050FM-12+025999999V0200201N004110042019N0080001N1+00541+00401102991ADDAA199000091AY121061AY221061GF107991071051004501001001MA1999999099791MD1010001+9999MW1101REMSYN076    AAXX  19124 08027 31458 70208 10054 20040 39979 40299 50000 71022 87500;EQDQ01  00002PRCP99
0186080270999992000011918004+43300-002050FM-12+025999999V0203601N002610075019N0100001N1+00561+00101103021ADDAA199000091GF108991081051008001999999KA1999M+00621MA1999999099821MD1210071+9999REMSYN076AAXX  19184 08027 32560 83605 10056 20010 39982 40302 52007 885// 333 10062;EQDQ01  00002PRCP99
0133080270999992000011921004+43300-002050FM-12+025999999V0200201N004110042019N0100001N1+00541+00021103061ADDGF108991081051004501999999MA1999999099861MD1210041+9999REMSYN066AAXX  19214 08027 42460 80208 10054 20002 39986 40306 52004 885//;
0163080270999992000012000004+43300-002050FM-12+025999999V0200201N005710075019N0100001N1+00481+00071103071ADDAA199000091GF108991081051008001999999MA1999999099861MD1410001+9999REMSYN066AAXX  20004 08027 32560 80211 10048 20007 39986 40307 54000 885//;EQDQ01  00002PRCP99
0250080270999992000012006004+43300-002050FM-12+025999999V0200601N001510075019N0080001N1+00321+00001103141ADDAA199000091AY121061AY221061GF108991081051008001999999IA1099IA2999+00409KA1120N+00261MA1999999099911MD1210051+9999MW1051REMSYN100AAXX  20064 08027 31558 80603 10032 20000 39991 40314 52005 70522 885// 333 20026 31004 50010 55001;EQDQ01  00002PRCP99
0133080270999992000012009004+43300-002050FM-12+025999999V0200201N002110075019N0100001N1+00321-00121103291ADDGF108991081051008001999999MA1999999100061MD1110151+9999REMSYN066AAXX  20094 08027 42560 80204 10032 21012 30006 40329 51015 885//;
0163080270999992000012012004+43300-002050FM-12+025999999V0200201N002110075019N0100001N1+00421-00071103281ADDAA199000091GF107991071051008001999999MA1999999100061MD1010001+9999REMSYN066AAXX  20124 08027 32560 70204 10042 21007 30006 40328 50000 875//;EQDQ01  00002PRCP99
0186080270999992000012018004+43300-002050FM-12+025999999V0203401N001510075019N0150001N1+00441-00101103281ADDAA199000091GF107991071051008001999999KA1999M+00501MA1999999100061MD1210081+9999REMSYN076AAXX  20184 08027 32565 73403 10044 21010 30006 40328 52008 875// 333 10050;EQDQ01  00002PRCP99
0133080270999992000012021004+43300-002050FM-12+025999999V0209999C000010075019N0100001N1+00421-00011103321ADDGF108991081051008001999999MA1999999100101MD1110041+9999REMSYN066AAXX  20214 08027 42560 80000 10042 21001 30010 40332 51004 885//;
0163080270999992000012100004+43300-002050FM-12+025999999V0203201N003110075019N0100001N1+00501-00031103271ADDAA199000091GF107991071051008001999999MA1999999100061MD1710041+9999REMSYN066AAXX  21004 08027 32560 73206 10050 21003 30006 40327 57004 875//;EQDQ01  00002PRCP99
0133080270999992000012103004+43300-002050FM-12+025999999V0203401N004110075019N0100001N1+00521+00001103201ADDGF107991071051008001999999MA1999999099991MD1610071+9999REMSYN066AAXX  21034 08027 42560 73408 10052 20000 39999 40320 56007 875//;
0222080270999992000012106004+43300-002050FM-12+025999999V0203401N001010360019N0150001N1+00481+00071103231ADDAA199000091GF108991041061004501071999IA1019IA2999+00709KA1120N+00361MA1999999100021MD1210031+9999REMSYN094AAXX  21064 08027 32465 83402 10048 20007 30002 40323 52003 8467/ 333 20036 30007 50070 55013;EQDQ01  00002PRCP99
0161080270999992000012109004+43300-002050FM-12+025999999V0200201N004110042019N0050001N1+00381+00071103331ADDAY121031AY221031GF108991071071004501071999MA1999999100101MD1310081+9999MW1101REMSYN072AAXX  21094 08027 41450 80208 10038 20007 30010 40333 53008 71022 8777/;
0163080270999992000012112004+43300-002050FM-12+025999999V0200201N002110150019N0100001N1+00401-00031103331ADDAA199000091GF108991071041017501071999MA1999999100101MD1410001+9999REMSYN066AAXX  21124 08027 32760 80204 10040 21003 30010 40333 54000 8747/;EQDQ01  00002PRCP99
0186080270999992000012118004+43300-002050FM-12+025999999V0200801N003610042019N0100001N1+00321-00191103211ADDAA199000091GF108991061071004501071999KA1999M+00481MA1999999099981MD1510001+9999REMSYN076AAXX  21184 08027 32460 80807 10032 21019 39998 40321 55000 8677/ 333 10048;EQDQ01  00002PRCP99
0133080270999992000012121004+43300-002050FM-12+025999999V0200601N001510042019N0100001N1+00281-00311103151ADDGF108991081071004501999999MA1999999099911MD1810071+9999REMSYN066AAXX  21214 08027 42460 80603 10028 21031 39991 40315 58007 887//;
0163080270999992000012200004+43300-002050FM-12+025999999V0201001N001010360019N0150001N1+00321-00251103051ADDAA199000091GF108991041071008001071999MA1999999099821MD1810091+9999REMSYN066AAXX  22004 08027 32565 81002 10032 21025 39982 40305 58009 8477/;EQDQ01  00002PRCP99
0133080270999992000012203004+43300-002050FM-12+025999999V0201401N002610360019N0150001N1+00301-00281102901ADDGF108991041071008001071999MA1999999099671MD1610151+9999REMSYN066AAXX  22034 08027 42565 81405 10030 21028 39967 40290 56015 8477/;
0222080270999992000012206004+43300-002050FM-12+025999999V0201601N001510360019N0150001N1+00281-00241102811ADDAA199000091GF108991041071008001071999IA1019IA2999+00209KA1120N+00241MA1999999099591MD1710081+9999REMSYN094AAXX  22064 08027 32565 81603 10028 21024 39959 40281 57008 8477/ 333 20024 30002 50020 55000;EQDQ01  00002PRCP99
0133080270999992000012209004+43300-002050FM-12+025999999V0201301N002110360019N0120001N1+00281-00241102891ADDGF107991011051008001081999MA1999999099661MD1210071+9999REMSYN066AAXX  22094 08027 42562 71304 10028 21024 39966 40289 52007 8158/;
0163080270999992000012212004+43300-002050FM-12+025999999V0209999V00101036001CN0140001N1+00421-00191102831ADDAA199000091GF106991011051008001081999MA1999999099621MD1810041+9999REMSYN066AAXX  22124 08027 32564 69902 10042 21019 39962 40283 58004 8158/;EQDQ01  00002PRCP99
0201080270999992000012218004+43300-002050FM-12+025999999V0202701N003110042019N0040001N1+00421-00061102621ADDAA112000791AY121061AY221061GF108991081071004501999999KA1999M+00481MA1999999099421MD1710121+9999MW1501REMSYN088AAXX  22184 08027 11440 82706 10042 21006 39942 40262 57012 69902 75022 887// 333 10048;
0161080270999992000012221004+43300-002050FM-12+025999999V0202801N005110042019N0040001N1+00501+00361102461ADDAY151031AY221031GF108991081071004501999999MA1999999099271MD1710151+9999MW1511REMSYN072AAXX  22214 08027 41440 82810 10050 20036 39927 40246 57015 75152 887//;
0178080270999992000012300004+43300-002050FM-12+025999999V0203101N008710120019N0150001N1+00751+00411102261ADDAA106001091AY181061AY251061GF107991071081008001999999MA1999999099111MD1710161+9999MW1011REMSYN078AAXX  23004 08027 11565 73117 10075 20041 39911 40226 57016 60011 70185 878//;
0161080270999992000012303004+43300-002050FM-12+025999999V0203501N011810120019N0100001N1+00721+00351102181ADDAY181031AY221031GF107991071081008001999999MA1999999099031MD1710081+9999MW1011REMSYN072AAXX  23034 08027 41560 73523 10072 20035 39903 40218 57008 70182 878//;
0237080270999992000012306004+43300-002050FM-12+025999999V0203601N004110120019N0040001N1+00561+00271102201ADDAA112001091AY121061AY221061GF107991071081008001999999IA1099IA2999+00509KA1120N+00401MA1999999099031MD1410001+9999MW1101REMSYN106AAXX  23064 08027 11540 73608 10056 20027 39903 40220 54000 60012 71022 878// 333 20040 31005 50020 55015;
0161080270999992000012309004+43300-002050FM-12+025999999V0200401N004110120019N0050001N1+00381+00281102391ADDAY181031AY221031GF107991071081008001999999MA1999999099191MD1310161+9999MW1101REMSYN072AAXX  23094 08027 41550 70408 10038 20028 39919 40239 53016 71082 878//;
0173080270999992000012318004+43300-002050FM-12+025999999V0209999C000010075019N0100001N1+00461+00041102411ADDAA112000791GF108991081051008001999999KA1999M+00661MA1999999099221MD1410001+9999REMSYN082AAXX  23184 08027 12560 80000 10046 20004 39922 40241 54000 69902 885// 333 10066;
0161080270999992000012321004+43300-002050FM-12+025999999V0200601N002110120019N0100001N1+00361+00161102431ADDAY161031AY221031GF107991071081008001001001MA1999999099231MD1110011+9999MW1211REMSYN072AAXX  23214 08027 41560 70604 10036 20016 39923 40243 51001 72162 87800;
0150080270999992000012400004+43300-002050FM-12+025999999V0201301N001510120019N0150001N1+00341+00081102421ADDAA106000591GF107991071081008001001001MA1999999099221MD1710011+9999REMSYN072AAXX  24004 08027 12565 71303 10034 20008 39922 40242 57001 69941 87800;
0133080270999992000012403004+43300-002050FM-12+025999999V0201001N001010120019N0200001N1+00361-00271102381ADDGF107991071081008001001001MA1999999099181MD1610041+9999REMSYN066AAXX  24034 08027 42570 71002 10036 21027 39918 40238 56004 87800;
0209080270999992000012406004+43300-002050FM-12+025999999V0201701N003110120019N0200001N1+00181-00221102321ADDAA112000591GF107991071081008001001001IA1099IA2999+00009KA1120N+00161MA1999999099101MD1810081+9999REMSYN100AAXX  24064 08027 12570 71706 10018 21022 39910 40232 58008 69942 87800 333 20016 31000 50010 55044;
0133080270999992000012409004+43300-002050FM-12+025999999V0209999C000010120019N0200001N1+00301-00281102351ADDGF107991071081008001001001MA1999999099141MD1310041+9999REMSYN066AAXX  24094 08027 42570 70000 10030 21028 39914 40235 53004 87800;
0163080270999992000012412004+43300-002050FM-12+025999999V0209999C000010120019N0200001N1+00421-00121102291ADDAA199000091GF108991081081008001999999MA1999999099101MD1810041+9999REMSYN066AAXX  24124 08027 32570 80000 10042 21012 39910 40229 58004 888//;EQDQ01  00002PRCP99
0186080270999992000012418004+43300-002050FM-12+025999999V0200301N003110120019N0250001N1+00401-00211102131ADDAA199000091GF108991081081008001999999KA1999M+00521MA1999999098941MD1410001+9999REMSYN076AAXX  24184 08027 32575 80306 10040 21021 39894 40213 54000 888// 333 10052;EQDQ01  00002PRCP99
0133080270999992000012421004+43300-002050FM-12+025999999V0200101N002110120019N0250001N1+00321-00321102141ADDGF106991061081008001001001MA1999999098941MD1410001+9999REMSYN066AAXX  24214 08027 42575 60104 10032 21032 39894 40214 54000 86800;
0163080270999992000012500004+43300-002050FM-12+025999999V0200901N003112200019N0250001N1+00181-00431102161ADDAA199000091GF104991041081008001001001MA1999999098941MD1410001+9999REMSYN066AAXX  25004 08027 32575 40906 10018 21043 39894 40216 54000 84800;EQDQ01  00002PRCP99
0133080270999992000012503004+43300-002050FM-12+025999999V0200901N003112200019N0250001N1+00181-00431102161ADDGF104991041081008001001001MA1999999098941MD1410001+9999REMSYN066AAXX  25034 08027 42575 40906 10018 21043 39894 40216 54000 84800;
0226080270999992000012506004+43300-002050FM-12+025999999V0201601N002112200019N0300001N1+00061-00171102171ADDAA199000091GA1001+999999999GF100991001001999999001001IA1149IA2999+01309KA1120N+00061MA1999999098941MD1410001+9999REMSYN082AAXX  25064 08027 32980 01604 10006 21017 39894 40217 54000 333 20006 34013 55010;EQDQ01  00002PRCP99
0133080270999992000012509004+43300-002050FM-12+025999999V0201401N002112200019N0200001N1+00041-00321102221ADDGF102991021081008001001001MA1999999098991MD1310051+9999REMSYN066AAXX  25094 08027 42570 21404 10004 21032 39899 40222 53005 82800;
0163080270999992000012512004+43300-002050FM-12+025999999V0201501N002110150019N0150001N1+00261-00191102231ADDAA199000091GF106991061081012501001001MA1999999099021MD1010031+9999REMSYN066AAXX  25124 08027 32665 61504 10026 21019 39902 40223 50003 86800;EQDQ01  00002PRCP99
0186080270999992000012518004+43300-002050FM-12+025999999V0201101N001010120019N0200001N1+00161-00311102241ADDAA199000091GF106991061081008001001001KA1999M+00301MA1999999099021MD1210081+9999REMSYN076AAXX  25184 08027 32570 61102 10016 21031 39902 40224 52008 86800 333 10030;EQDQ01  00002PRCP99
0133080270999992000012521004+43300-002050FM-12+025999999V0201501N002112200019N0200001N1+00021-00351102301ADDGF103991031081008001001001MA1999999099061MD1110041+9999REMSYN066AAXX  25214 08027 42570 31504 10002 21035 39906 40230 51004 83800;
0163080270999992000012600004+43300-002050FM-12+025999999V0201601N002112200019N0200001N1-00081-00331102321ADDAA199000091GF102991021081008001001001MA1999999099071MD1110011+9999REMSYN066AAXX  26004 08027 32570 21604 11008 21033 39907 40232 51001 82800;EQDQ01  00002PRCP99
0133080270999992000012603004+43300-002050FM-12+025999999V0201601N002112200019N0200001N1-00081-00331102321ADDGF102991021081008001001001MA1999999099071MD1410001+9999REMSYN066AAXX  26034 08027 42570 21604 11008 21033 39907 40232 54000 82800;
0226080270999992000012606004+43300-002050FM-12+025999999V0201501N002112200019N0200001N1+00161-00461102291ADDAA199000091GA1001+999999999GF100991001001999999001001IA1149IA2999-00309KA1120N-00881MA1999999099071MD1510001+9999REMSYN082AAXX  26064 08027 32970 01504 10016 21046 39907 40229 55000 333 21088 34103 55081;EQDQ01  00002PRCP99
0133080270999992000012609004+43300-002050FM-12+025999999V0201501N005112200019N0250001N1+00461-00341102341ADDGF102991011081008001011001MA1999999099151MD1310081+9999REMSYN066AAXX  26094 08027 42575 21510 10046 21034 39915 40234 53008 81810;
0163080270999992000012612004+43300-002050FM-12+025999999V0201601N008712200019N0300001N1+00821-00401102331ADDAA199000091GF101991011051012501001001MA1999999099181MD1010031+9999REMSYN066AAXX  26124 08027 32680 11617 10082 21040 39918 40233 50003 81500;EQDQ01  00002PRCP99
0186080270999992000012618004+43300-002050FM-12+025999999V0201601N006212200019N0300001N1+00881-00461102421ADDAA199000091GF101991011061008001001001KA1999M+01001MA1999999099271MD1210091+9999REMSYN076AAXX  26184 08027 32580 11612 10088 21046 39927 40242 52009 81600 333 10100;EQDQ01  00002PRCP99
0133080270999992000012621004+43300-002050FM-12+025999999V0201601N009812200019N0300001N1+00841-00451102531ADDGF101991011061008001001001MA1999999099381MD1210111+9999REMSYN066AAXX  26214 08027 42580 11619 10084 21045 39938 40253 52011 81600;
0173080270999992000012700004+43300-002050FM-12+025999999V0201601N012912200019N0300001N1+00821-00051102541ADDAA199000091GA1001+999999999GF100991001001999999001001MA1999999099391MD1110011+9999REMSYN060AAXX  27004 08027 32980 01625 10082 21005 39939 40254 51001;EQDQ01  00002PRCP99
0133080270999992000012703004+43300-002050FM-12+025999999V0201601N012910360019N0200001N1+00861+00071102531ADDGF106991041061008001071999MA1999999099381MD1810011+9999REMSYN066AAXX  27034 08027 42570 61625 10086 20007 39938 40253 58001 8467/;
0253080270999992000012706004+43300-002050FM-12+025999999V0201601N012910360019N0200001N1+00861+00071102541ADDAA199000091GF106991031061008001071999GJ105589IA1019IA2999+00709KA1120N+00761MA1999999099391MD1210011+9999OA149902111REMSYN106AAXX  27064 08027 32570 61625 10086 20007 39939 40254 52001 8367/ 333 20076 30007 50300 55093 91141 91216;EQDQ01  00002PRCP99
0161080270999992000012709004+43300-002050FM-12+025999999V0201601N008210075019N0300001N1+00921+00091102701ADDAY181031AY221031GF107991071051008001071999MA1999999099551MD1210161+9999MW1021REMSYN072AAXX  27094 08027 42580 71616 10092 20009 39955 40270 52016 70282 8757/;
0173080270999992000012718004+43300-002050FM-12+025999999V0201601N005112200019N0300001N1+00941+00231102641ADDAA112000791GF103991011001017501041011KA1999M+01161MA1999999099501MD1410001+9999REMSYN082AAXX  27184 08027 12780 31610 10094 20023 39950 40264 54000 69902 81041 333 10116;
0133080270999992000012721004+43300-002050FM-12+025999999V0201601N005112200019N0300001N1+00861+00191102701ADDGF102991011001017501041011MA1999999099551MD1110051+9999REMSYN066AAXX  27214 08027 42780 21610 10086 20019 39955 40270 51005 81041;
0173080270999992000012800004+43300-002050FM-12+025999999V0202001N004612200019N0300001N1+00841+00161102711ADDAA199000091GA1001+999999999GF100991001001999999001001MA1999999099551MD1410001+9999REMSYN060AAXX  28004 08027 32980 02009 10084 20016 39955 40271 54000;EQDQ01  00002PRCP99
0143080270999992000012803004+43300-002050FM-12+025999999V0201601N005112200019N0300001N1+00761+00231102671ADDGA1001+999999999GF100991001001999999001001MA1999999099511MD1810041+9999REMSYN060AAXX  28034 08027 42980 01610 10076 20023 39951 40267 58004;
0232080270999992000012806004+43300-002050FM-12+025999999V0201601N002112200019N0300001N1+00721+00291102671ADDAA199000091GA1001+999999999GF100991001001999999001001IA1019IA2999+00509KA1120N+00661MA1999999099501MD1710011+9999REMSYN088AAXX  28064 08027 32980 01604 10072 20029 39950 40267 57001 333 20066 30005 50240 55047;EQDQ01  00002PRCP99
0133080270999992000012809004+43300-002050FM-12+025999999V0201801N002112200019N0150001N1+00761+00291102701ADDGF102991001001999999001011MA1999999099541MD1210041+9999REMSYN066AAXX  28094 08027 42965 21804 10076 20029 39954 40270 52004 80001;
0163080270999992000012812004+43300-002050FM-12+025999999V0203301N002112200019N0100001N1+01021+00281102681ADDAA199000091GF101991011001017501041001MA1999999099541MD1410001+9999REMSYN066AAXX  28124 08027 32760 13304 10102 20028 39954 40268 54000 81040;EQDQ01  00002PRCP99
0196080270999992000012818004+43300-002050FM-12+025999999V0201901N001512200019N0100001N1+00841+00381102651ADDAA199000091GA1001+999999999GF100991001001999999001001KA1999M+01101MA1999999099501MD1110031+9999REMSYN070AAXX  28184 08027 32960 01903 10084 20038 39950 40265 51003 333 10110;EQDQ01  00002PRCP99
0143080270999992000012821004+43300-002050FM-12+025999999V0202101N002112200019N0100001N1+00741+00321102681ADDGA1001+999999999GF100991001001999999001001MA1999999099511MD1210011+9999REMSYN060AAXX  28214 08027 42960 02104 10074 20032 39951 40268 52001;
0163080270999992000012900004+43300-002050FM-12+025999999V0202501N003610075019N0100001N1+00841+00101102711ADDAA199000091GF105991051051008001001001MA1999999099551MD1110041+9999REMSYN066AAXX  29004 08027 32560 52507 10084 20010 39955 40271 51004 85500;EQDQ01  00002PRCP99
0133080270999992000012903004+43300-002050FM-12+025999999V0202301N003110360019N0100001N1+00781+00201102701ADDGF106991041051008001071001MA1999999099541MD1810011+9999REMSYN066AAXX  29034 08027 42560 62306 10078 20020 39954 40270 58001 84570;
0232080270999992000012906004+43300-002050FM-12+025999999V0202401N005112200019N0100001N1+00781+00411102701ADDAA199000091GA1001+999999999GF100991001001999999001001IA1019IA2999+00609KA1120N+00681MA1999999099541MD1010001+9999REMSYN088AAXX  29064 08027 32960 02410 10078 20041 39954 40270 50000 333 20068 30006 50040 55087;EQDQ01  00002PRCP99
0133080270999992000012909004+43300-002050FM-12+025999999V0202301N003112200019N0150001N1+00841+00481102861ADDGF102991011001022501071011MA1999999099701MD1210161+9999REMSYN066AAXX  29094 08027 42865 22306 10084 20048 39970 40286 52016 81071;
0163080270999992000012912004+43300-002050FM-12+025999999V0202801N005710120019N0150001N1+01081+00191102921ADDAA199000091GF107991051051012501071001MA1999999099781MD1110081+9999REMSYN066AAXX  29124 08027 32665 72811 10108 20019 39978 40292 51008 85570;EQDQ01  00002PRCP99
0186080270999992000012918004+43300-002050FM-12+025999999V0202801N005710120019N0200001N1+01021+00681102961ADDAA199000091GF108991061051012501071999KA1999M+01121MA1999999099821MD1310081+9999REMSYN076AAXX  29184 08027 32670 82811 10102 20068 39982 40296 53008 8657/ 333 10112;EQDQ01  00002PRCP99
0133080270999992000012921004+43300-002050FM-12+025999999V0202701N005110120019N0200001N1+01101+00631103091ADDGF108991061051012501071999MA1999999099951MD1210131+9999REMSYN066AAXX  29214 08027 42670 82710 10110 20063 39995 40309 52013 8657/;
0163080270999992000013000004+43300-002050FM-12+025999999V0203101N008210120019N0200001N1+01101+00861103201ADDAA199000091GF108991061051012501071999MA1999999100061MD1210111+9999REMSYN066AAXX  30004 08027 32670 83116 10110 20086 30006 40320 52011 8657/;EQDQ01  00002PRCP99
0133080270999992000013003004+43300-002050FM-12+025999999V0203001N006210120019N0200001N1+01061+00901103251ADDGF108991081051012501999999MA1999999100111MD1310051+9999REMSYN066AAXX  30034 08027 42670 83012 10106 20090 30011 40325 53005 885//;
0222080270999992000013006004+43300-002050FM-12+025999999V0202901N004110120019N0200001N1+01081+00751103331ADDAA199000091GF108991061051012501071999IA1019IA2999+01009KA1120N+00961MA1999999100181MD1310071+9999REMSYN094AAXX  30064 08027 32670 82908 10108 20075 30018 40333 53007 8657/ 333 20096 30010 50210 55016;EQDQ01  00002PRCP99
0133080270999992000013009004+43300-002050FM-12+025999999V0202701N002110120019N0200001N1+01061+00811103451ADDGF108991051051012501071999MA1999999100301MD1110121+9999REMSYN066AAXX  30094 08027 42670 82704 10106 20081 30030 40345 51012 8557/;
0163080270999992000013012004+43300-002050FM-12+025999999V0202201N002110120019N0150001N1+01121+00881103491ADDAA199000091GF108991081051012501999999MA1999999100351MD1010051+9999REMSYN066AAXX  30124 08027 32665 82204 10112 20088 30035 40349 50005 885//;EQDQ01  00002PRCP99
0196080270999992000013018004+43300-002050FM-12+025999999V0200601N002112200019N0300001N1+01001+00711103181ADDAA199000091GA1001+999999999GF100991001001999999001001KA1999M+01241MA1999999100031MD1610081+9999REMSYN070AAXX  30184 08027 32980 00604 10100 20071 30003 40318 56008 333 10124;EQDQ01  00002PRCP99
0143080270999992000013021004+43300-002050FM-12+025999999V0201201N002112200019N0300001N1+00941+00771103231ADDGA1001+999999999GF100991001001999999001001MA1999999100071MD1110041+9999REMSYN060AAXX  30214 08027 42980 01204 10094 20077 30007 40323 51004;
0173080270999992000013100004+43300-002050FM-12+025999999V0203101N002112200019N0200001N1+00901+00771103271ADDAA199000091GA1001+999999999GF100991001001999999001001MA1999999100111MD1110041+9999REMSYN060AAXX  31004 08027 32970 03104 10090 20077 30011 40327 51004;EQDQ01  00002PRCP99
0143080270999992000013103004+43300-002050FM-12+025999999V0203101N002112200019N0200001N1+00861+00741103271ADDGA1001+999999999GF100991001001999999001001MA1999999100111MD1410001+9999REMSYN060AAXX  31034 08027 42970 03104 10086 20074 30011 40327 54000;
0232080270999992000013106004+43300-002050FM-12+025999999V0201501N005112200019N0150001N1+00681+00591103011ADDAA199000091GA1001+999999999GF100991001001999999001001IA1099IA2999+00509KA1120N+00681MA1999999099831MD1710231+9999REMSYN088AAXX  31064 08027 32965 01510 10068 20059 39983 40301 57023 333 20068 31005 50070 55026;EQDQ01  00002PRCP99
0180080270999992000013109004+43300-002050FM-12+025999999V0203401N002112200019N0005001N1+00821+00821102861ADDAY101031AY201031GF103991001001999999001081MA1999999099701MD1610131+9999MW1461REMSYN072AAXX  31094 08027 41905 33404 10082 20082 39970 40286 56013 74600 83008;EQDQ01+000032SCOTLC
0191080270999992000013112004+43300-002050FM-12+025999999V0203601N001012200019N0150001N1+00961+00881102801ADDAA199000091AY141061AY221061GF103991011001012501011081MA1999999099661MD1810041+9999MW1021REMSYN072AAXX  31124 08027 31665 33602 10096 20088 39966 40280 58004 70242 81018;EQDQ01  00002PRCP99
0214080270999992000013118004+43300-002050FM-12+025999999V0209999V002119999999N0030001N1+01161+00751102571ADDAA199000091AY121061AY211061GF105991001001999999001081KA1999M+01681MA1999999099461MD1410001+9999MW1051REMSYN082AAXX  31184 08027 31930 59904 10116 20075 39946 40257 54000 70521 80008 333 10168;EQDQ01  00002PRCP99
0161080270999992000013121004+43300-002050FM-12+025999999V0209999V002119999999N0030001N1+00981+00641102591ADDAY121031AY221031GF105991001001999999001081MA1999999099461MD1410001+9999MW1051REMSYN072AAXX  31214 08027 41930 59904 10098 20064 39946 40259 54000 70522 80008;
0163080270999992000020100004+43300-002050FM-12+025999999V0201601N008712200019N0150001N1+01441+00341102551ADDAA199000091GF102991001001999999001011MA1999999099461MD1010001+9999REMSYN066AAXX  01004 08027 32965 21617 10144 20034 39946 40255 50000 80001;EQDQ01  00002PRCP99
0133080270999992000020103004+43300-002050FM-12+025999999V0201901N007212200019N0350001N1+01581+00131102461ADDGF103991031001017501041001MA1999999099391MD1810071+9999REMSYN066AAXX  01034 08027 42781 31914 10158 20013 39939 40246 58007 83040;
0222080270999992000020106004+43300-002050FM-12+025999999V0201901N007212200019N0350001N1+01521+00031102181ADDAA199000091GF103991031001017501041001IA1019IA2999+01309KA1120N+00861MA1999999099111MD1810281+9999REMSYN094AAXX  01064 08027 32781 31914 10152 20003 39911 40218 58028 83040 333 20086 30013 50180 55062;EQDQ01  00002PRCP99
0133080270999992000020109004+43300-002050FM-12+025999999V0201701N008210900019N0200001N1+01561+00411102251ADDGF107991041001017501071071MA1999999099191MD1310081+9999REMSYN066AAXX  01094 08027 42770 71716 10156 20041 39919 40225 53008 84077;
0163080270999992000020112004+43300-002050FM-12+025999999V0201801N006210150019N0200001N1+01781+00661102231ADDAA199000091GF107991071001017501071999MA1999999099191MD1410001+9999REMSYN066AAXX  01124 08027 32770 71812 10178 20066 39919 40223 54000 8707/;EQDQ01  00002PRCP99
0186080270999992000020118004+43300-002050FM-12+025999999V0201801N006210150019N0250001N1+01721+00781102101ADDAA199000091GF107991071001017501071001KA1999M+01861MA1999999099061MD1310041+9999REMSYN076AAXX  01184 08027 32775 71812 10172 20078 39906 40210 53004 87070 333 10186;EQDQ01  00002PRCP99
0133080270999992000020121004+43300-002050FM-12+025999999V0202701N004110360019N0200001N1+01461+00921102331ADDGF108991031051008001071999MA1999999099261MD1210201+9999REMSYN066AAXX  01214 08027 42570 82708 10146 20092 39926 40233 52020 8357/;
0163080270999992000020200004+43300-002050FM-12+025999999V0201901N003110360019N0200001N1+01461+00871102341ADDAA199000091GF108991031051008001071999MA1999999099271MD1110011+9999REMSYN066AAXX  02004 08027 32570 81906 10146 20087 39927 40234 51001 8357/;EQDQ01  00002PRCP99
0133080270999992000020203004+43300-002050FM-12+025999999V0202101N005110360019N0200001N1+01481+00811102301ADDGF108991021051012501071999MA1999999099231MD1710041+9999REMSYN066AAXX  02034 08027 42670 82110 10148 20081 39923 40230 57004 8257/;
0222080270999992000020206004+43300-002050FM-12+025999999V0203001N007210360019N0150001N1+01261+00991102411ADDAA199000091GF108991041051008001071999IA1019IA2999+01209KA1120N+01261MA1999999099311MD1310081+9999REMSYN094AAXX  02064 08027 32565 83014 10126 20099 39931 40241 53008 8457/ 333 20126 30012 50320 55012;EQDQ01  00002PRCP99
0161080270999992000020209004+43300-002050FM-12+025999999V0202801N005710021019N0020001N1+01141+01141102701ADDAY161031AY241031GF108991081071002501999999MA1999999099581MD1210271+9999MW1631REMSYN072AAXX  02094 08027 41320 82811 10114 20114 39958 40270 52027 76364 887//;
0178080270999992000020212004+43300-002050FM-12+025999999V0202901N008210120019N0100001N1+01201+01121102781ADDAA106005191AY161061AY261061GF108991061081008001071999MA1999999099671MD1110091+9999MW1211REMSYN078AAXX  02124 08027 11560 82916 10120 20112 39967 40278 51009 60051 72166 8687/;
0211080270999992000020218004+43300-002050FM-12+025999999V0203001N010810001519N0000001N1+01061+01061102991ADDAA112007191AY161061AY241061GA1091+999999999GF109991091999999999999999KA1999M+01261MA1999999099861MD1310161+9999MW1601REMSYN082AAXX  02184 08027 11/00 93021 10106 20106 39986 40299 53016 60072 76064 333 10126;
0171080270999992000020221004+43300-002050FM-12+025999999V0203401N009810001519N0000001N1+01101+01101103241ADDAY161031AY241031GA1091+999999999GF109991091999999999999999MA1999999100101MD1210241+9999MW1611REMSYN066AAXX  02214 08027 41/00 93419 10110 20110 30010 40324 52024 76164;
0178080270999992000020300004+43300-002050FM-12+025999999V0203501N006210090019N0100001N1+00921+00881103511ADDAA106004191AY161061AY241061GF108991081081004501999999MA1999999100341MD1210241+9999MW1211REMSYN078AAXX  03004 08027 11460 83512 10092 20088 30034 40351 52024 60041 72164 888//;
0133080270999992000020303004+43300-002050FM-12+025999999V0203601N004110120019N0150001N1+00861+00551103531ADDGF105991051081008001001001MA1999999100351MD1110011+9999REMSYN066AAXX  03034 08027 42565 53608 10086 20055 30035 40353 51001 85800;
0209080270999992000020306004+43300-002050FM-12+025999999V0203601N003110120019N0150001N1+00861+00451103571ADDAA112004191GF107991071081008001999999IA1119IA2999+00709KA1120N+00801MA1999999100391MD1310041+9999REMSYN100AAXX  03064 08027 12565 73606 10086 20045 30039 40357 53004 60042 878// 333 20080 32007 50240 55000;
0133080270999992000020309004+43300-002050FM-12+025999999V0200101N001010360019N0100001N1+00861+00551103721ADDGF107991041051008001051999MA1999999100541MD1210151+9999REMSYN066AAXX  03094 08027 42560 70102 10086 20055 30054 40372 52015 8455/;
0144080270999992000020312004+43300-002050FM-12+025999999V0200201N002110120019N0150001N1+00961+00471103791ADDAA199000021GF106991061051012501001001MA1999999100621MD1010081+9999REMSYN066AAXX  03124 08027 32665 60204 10096 20047 30062 40379 50008 86500;
0196080270999992000020318004+43300-002050FM-12+025999999V0200501N003112200019N0300001N1+00781+00511103651ADDAA199000091GA1001+999999999GF100991001001999999001001KA1999M+01061MA1999999100461MD1610041+9999REMSYN070AAXX  03184 08027 32980 00506 10078 20051 30046 40365 56004 333 10106;EQDQ01  00002PRCP99
0143080270999992000020321004+43300-002050FM-12+025999999V0201401N002112200019N0300001N1+00721+00491103711ADDGA1001+999999999GF100991001001999999001001MA1999999100511MD1110051+9999REMSYN060AAXX  03214 08027 42980 01404 10072 20049 30051 40371 51005;
0173080270999992000020400004+43300-002050FM-12+025999999V0201701N003112200019N0300001N1+00641+00461103641ADDAA199000091GA1001+999999999GF100991001001999999001001MA1999999100431MD1810081+9999REMSYN060AAXX  04004 08027 32980 01706 10064 20046 30043 40364 58008;EQDQ01  00002PRCP99
0143080270999992000020403004+43300-002050FM-12+025999999V0201701N003112200019N0300001N1+00581+00441103641ADDGA1001+999999999GF100991001001999999001001MA1999999100431MD1410001+9999REMSYN060AAXX  04034 08027 42980 01706 10058 20044 30043 40364 54000;
0232080270999992000020406004+43300-002050FM-12+025999999V0201601N002112200019N0300001N1+00601+00151103481ADDAA199000091GA1001+999999999GF100991001001999999001001IA1099IA2999+00309KA1120N+00601MA1999999100271MD1610081+9999REMSYN088AAXX  04064 08027 32980 01604 10060 20015 30027 40348 56008 333 20060 31003 50070 55049;EQDQ01  00002PRCP99
0133080270999992000020409004+43300-002050FM-12+025999999V0201501N002112200019N0300001N1+00781+00361103461ADDGF101991001001999999001011MA1999999100271MD1410001+9999REMSYN066AAXX  04094 08027 42980 11504 10078 20036 30027 40346 54000 80001;
0163080270999992000020412004+43300-002050FM-12+025999999V0201701N002112200019N0350001N1+01181+00431103331ADDAA199000091GF101991001001999999001081MA1999999100191MD1810081+9999REMSYN066AAXX  04124 08027 32981 11704 10118 20043 30019 40333 58008 80008;EQDQ01  00002PRCP99
0186080270999992000020418004+43300-002050FM-12+025999999V0201201N003112200019N0300001N1+01421+00431103051ADDAA199000091GF103991001001999999001011KA1999M+01461MA1999999099951MD1610031+9999REMSYN076AAXX  04184 08027 32980 31206 10142 20043 39995 40305 56003 80001 333 10146;EQDQ01  00002PRCP99
0133080270999992000020421004+43300-002050FM-12+025999999V0201701N008712200019N0300001N1+01581-00161103041ADDGF102991001001999999001011MA1999999099951MD1410001+9999REMSYN066AAXX  04214 08027 42980 21717 10158 21016 39995 40304 54000 80001;
0163080270999992000020500004+43300-002050FM-12+025999999V0201601N010312200019N0300001N1+01601-00371103001ADDAA199000091GF103991001001999999001081MA1999999099911MD1610041+9999REMSYN066AAXX  05004 08027 32980 31620 10160 21037 39991 40300 56004 80008;EQDQ01  00002PRCP99
0133080270999992000020503004+43300-002050FM-12+025999999V0201601N010812200019N0300001N1+01541-00411102881ADDGF104991001001999999001081MA1999999099791MD1710121+9999REMSYN066AAXX  05034 08027 42980 41621 10154 21041 39979 40288 57012 80008;
0222080270999992000020506004+43300-002050FM-12+025999999V0201601N009812200019N0300001N1+01501-00401102841ADDAA199000091GF104991001001999999001081IA1019IA2999+01409KA1120N+01321MA1999999099751MD1610041+9999REMSYN094AAXX  05064 08027 32980 41619 10150 21040 39975 40284 56004 80008 333 20132 30014 50420 55081;EQDQ01  00002PRCP99
0133080270999992000020509004+43300-002050FM-12+025999999V0201801N013412200019N0300001N1+01501-00151102841ADDGF104991001001999999001081MA1999999099751MD1510001+9999REMSYN066AAXX  05094 08027 42980 41826 10150 21015 39975 40284 55000 80008;
0163080270999992000020512004+43300-002050FM-12+025999999V0201701N008212200019N0300001N1+01781-00011102881ADDAA199000091GF104991001001999999001081MA1999999099821MD1110071+9999REMSYN066AAXX  05124 08027 32980 41716 10178 21001 39982 40288 51007 80008;EQDQ01  00002PRCP99
0186080270999992000020518004+43300-002050FM-12+025999999V0203001N003119999999N0300001N1+01261+00481102941ADDAA199000091GF105991001001999999001081KA1999M+01961MA1999999099821MD1210031+9999REMSYN076AAXX  05184 08027 32980 53006 10126 20048 39982 40294 52003 80008 333 10196;EQDQ01  00002PRCP99
0133080270999992000020521004+43300-002050FM-12+025999999V0201801N002112200019N0300001N1+01221+00431102981ADDGF103991001001999999001011MA1999999099861MD1110041+9999REMSYN066AAXX  05214 08027 42980 31804 10122 20043 39986 40298 51004 80001;
0163080270999992000020600004+43300-002050FM-12+025999999V0201601N002112200019N0300001N1+01161+00241102961ADDAA199000091GF102991001001999999001011MA1999999099831MD1810031+9999REMSYN066AAXX  06004 08027 32980 21604 10116 20024 39983 40296 58003 80001;EQDQ01  00002PRCP99
0143080270999992000020603004+43300-002050FM-12+025999999V0201601N003612200019N0300001N1+01081+00001102881ADDGA1001+999999999GF100991001001999999001001MA1999999099741MD1810091+9999REMSYN060AAXX  06034 08027 42980 01607 10108 20000 39974 40288 58009;
0232080270999992000020606004+43300-002050FM-12+025999999V0201601N003612200019N0300001N1+01021+00041102771ADDAA199000091GA1001+999999999GF100991001001999999001001IA1099IA2999+00409KA1120N+00921MA1999999099631MD1710111+9999REMSYN088AAXX  06064 08027 32980 01607 10102 20004 39963 40277 57011 333 20092 31004 50320 55051;EQDQ01  00002PRCP99
0133080270999992000020609004+43300-002050FM-12+025999999V0202201N001019999999N0100001N1+01101+00331102791ADDGF106991001001999999001081MA1999999099661MD1310031+9999REMSYN066AAXX  06094 08027 42960 62202 10110 20033 39966 40279 53003 80008;
0163080270999992000020612004+43300-002050FM-12+025999999V0209999C000010900019N0100001N1+01221+00531102731ADDAA199000091GF108991021001017501041081MA1999999099621MD1710041+9999REMSYN066AAXX  06124 08027 32760 80000 10122 20053 39962 40273 57004 82048;EQDQ01  00002PRCP99
0214080270999992000020618004+43300-002050FM-12+025999999V0203001N004110150019N0020001N1+01041+00471102711ADDAA199000091AY121061AY221061GF107991071001017501071999KA1999M+01501MA1999999099581MD1310111+9999MW1051REMSYN082AAXX  06184 08027 31720 73008 10104 20047 39958 40271 53011 70522 8707/ 333 10150;EQDQ01  00002PRCP99
0133080270999992000020621004+43300-002050FM-12+025999999V0201701N003110150019N0100001N1+00961+00621102801ADDGF107991071001017501071999MA1999999099661MD1210081+9999REMSYN066AAXX  06214 08027 42760 71706 10096 20062 39966 40280 52008 8707/;
0163080270999992000020700004+43300-002050FM-12+025999999V0202801N007210150019N0100001N1+01341+00431102851ADDAA199000091GF107991071001017501071999MA1999999099741MD1210081+9999REMSYN066AAXX  07004 08027 32760 72814 10134 20043 39974 40285 52008 8707/;EQDQ01  00002PRCP99
0161080270999992000020703004+43300-002050FM-12+025999999V0203001N007210120019N0100001N1+01021+00981103001ADDAY181031AY221031GF108991081081008001999999MA1999999099861MD1210121+9999MW1251REMSYN072AAXX  07034 08027 41560 83014 10102 20098 39986 40300 52012 72582 888//;
0237080270999992000020706004+43300-002050FM-12+025999999V0202501N002610360019N0100001N1+00981+00861103011ADDAA112001091AY181061AY221061GF107991041081008001051999IA1119IA2999+00909KA1120N+00901MA1999999099861MD1410001+9999MW1011REMSYN106AAXX  07064 08027 11560 72505 10098 20086 39986 40301 54000 60012 70182 8485/ 333 20090 32009 50120 55017;
0133080270999992000020709004+43300-002050FM-12+025999999V0201901N002110900019N0100001N1+01101+00901103121ADDGF107991021051008001001071MA1999999099981MD1310121+9999REMSYN066AAXX  07094 08027 42560 71904 10110 20090 39998 40312 53012 82507;
0144080270999992000020712004+43300-002050FM-12+025999999V0201701N003110900019N0150001N1+01341+00911103051ADDAA199000021GF107991011051008001001081MA1999999099941MD1810041+9999REMSYN066AAXX  07124 08027 32565 71706 10134 20091 39994 40305 58004 81508;
0201080270999992000020718004+43300-002050FM-12+025999999V0202701N004110360019N0100001N1+01301+00771102981ADDAA112000791AY121061AY221061GF108991021051008001071999KA1999M+01501MA1999999099871MD1310081+9999MW1601REMSYN088AAXX  07184 08027 11560 82708 10130 20077 39987 40298 53008 69902 76022 8257/ 333 10150;
0161080270999992000020721004+43300-002050FM-12+025999999V0201601N004110360019N0100001N1+01121+00751102991ADDAY161031AY221031GF108991041051012501071999MA1999999099861MD1810011+9999MW1211REMSYN072AAXX  07214 08027 41660 81608 10112 20075 39986 40299 58001 72162 8457/;
0150080270999992000020800004+43300-002050FM-12+025999999V0202201N003110360019N0100001N1+01321+00751102901ADDAA106000191GF108991041051012501071999MA1999999099791MD1610071+9999REMSYN072AAXX  08004 08027 12660 82206 10132 20075 39979 40290 56007 69921 8457/;
0161080270999992000020803004+43300-002050FM-12+025999999V0201801N003110360019N0100001N1+01241+00881102781ADDAY121031AY221031GF108991041051008001071999MA1999999099671MD1010121+9999MW1211REMSYN072AAXX  08034 08027 41560 81806 10124 20088 39967 40278 50012 72122 8457/;
0209080270999992000020806004+43300-002050FM-12+025999999V0202701N003110075019N0100001N1+01301+00911102731ADDAA112000391GF108991051051008001071999IA1099IA2999+01109KA1120N+01101MA1999999099631MD1610041+9999REMSYN100AAXX  08064 08027 12560 82706 10130 20091 39963 40273 56004 69932 8557/ 333 20110 31011 50030 55006;
0161080270999992000020809004+43300-002050FM-12+025999999V0201401N002110360019N0050001N1+01121+01081102861ADDAY141031AY221031GF106991021051012501071081MA1999999099741MD1010111+9999MW1101REMSYN072AAXX  08094 08027 41650 61404 10112 20108 39974 40286 50011 71042 82578;
0144080270999992000020812004+43300-002050FM-12+025999999V0203401N002112200019N0100001N1+01261+00911102821ADDAA199000021GF104991011011012501001081MA1999999099711MD1510031+9999REMSYN066AAXX  08124 08027 32660 43404 10126 20091 39971 40282 55003 81108;
0223080270999992000020818004+43300-002050FM-12+025999999V0203001N008210003019N0000001N1+01161+01121102901ADDAA112000791AY121061AY221061GA1091+000309999GF109991091999999999999999KA1120M+01521MA1999999099781MD1310191+9999MW1601REMSYN094AAXX  08184 08027 11/00 93016 10116 20112 39978 40290 53019 69902 76022 333 10152 89/01 96047;
0181080270999992000020821004+43300-002050FM-12+025999999V0202601N008710003019N0000001N1+01161+01161103061ADDAY161031AY241031GA1091+000309999GF109991091999999999999999MA1999999099941MD1310161+9999MW1451REMSYN076AAXX  08214 08027 41/00 92617 10116 20116 39994 40306 53016 74564 333 89/01;
0188080270999992000020900004+43300-002050FM-12+025999999V0203001N011810006019N0008001N1+01081+01081103241ADDAA106004191AY141061AY241061GA1091+999999999GF109991091999999999999999MA1999999100101MD1210161+9999MW1431REMSYN072AAXX  09004 08027 11/08 93023 10108 20108 30010 40324 52016 60041 74344;
0161080270999992000020903004+43300-002050FM-12+025999999V0203301N005110042019N0050001N1+00981+00941103301ADDAY161031AY241031GF108991081061004501999999MA1999999100151MD1310051+9999MW1101REMSYN072AAXX  09034 08027 41450 83310 10098 20094 30015 40330 53005 71064 886//;
0209080270999992000020906004+43300-002050FM-12+025999999V0202901N002610120019N0100001N1+00881+00881103361ADDAA112005191GF106991061051012501999999IA1099IA2999+00809KA1120N+00881MA1999999100191MD1310041+9999REMSYN100AAXX  09064 08027 12660 62905 10088 20088 30019 40336 53004 60052 865// 333 20088 31008 50180 55044;
0161080270999992000020909004+43300-002050FM-12+025999999V0202901N004110090019N0050001N1+00921+00881103471ADDAY121031AY221031GF107991071081004501999999MA1999999100301MD1310111+9999MW1101REMSYN072AAXX  09094 08027 41450 72908 10092 20088 30030 40347 53011 71022 878//;
0178080270999992000020912004+43300-002050FM-12+025999999V0203001N003110090019N0050001N1+01001+00881103541ADDAA106000191AY161061AY221061GF107991071081004501999999MA1999999100381MD1010081+9999MW1101REMSYN078AAXX  09124 08027 11450 73006 10100 20088 30038 40354 50008 69911 71062 878//;
0173080270999992000020918004+43300-002050FM-12+025999999V0201201N003112200019N0100001N1+01001+00711103141ADDAA112000591GF102991001001999999001011KA1999M+01181MA1999999099991MD1710151+9999REMSYN082AAXX  09184 08027 12960 21206 10100 20071 39999 40314 57015 69942 80001 333 10118;
0133080270999992000020921004+43300-002050FM-12+025999999V0201401N004612200019N0100001N1+00821+00511103191ADDGF101991001001999999001011MA1999999100021MD1110031+9999REMSYN066AAXX  09214 08027 42960 11409 10082 20051 30002 40319 51003 80001;
0173080270999992000021000004+43300-002050FM-12+025999999V0201601N004112200019N0100001N1+00721+00401103051ADDAA199000091GA1001+999999999GF100991001001999999001001MA1999999099871MD1710151+9999REMSYN060AAXX  10004 08027 32960 01608 10072 20040 39987 40305 57015;EQDQ01  00002PRCP99
0143080270999992000021003004+43300-002050FM-12+025999999V0201601N003612200019N0100001N1+00781+00261102911ADDGA1001+999999999GF100991001001999999001001MA1999999099741MD1810131+9999REMSYN060AAXX  10034 08027 42960 01607 10078 20026 39974 40291 58013;
0232080270999992000021006004+43300-002050FM-12+025999999V0201601N005112200019N0100001N1+00841+00221102791ADDAA199000091GA1001+999999999GF100991001001999999001001IA1099IA2999+00509KA1120N+00661MA1999999099631MD1710111+9999REMSYN088AAXX  10064 08027 32960 01610 10084 20022 39963 40279 57011 333 20066 31005 50080 55040;EQDQ01  00002PRCP99
0133080270999992000021009004+43300-002050FM-12+025999999V0201601N005112200019N0300001N1+01161+00461102701ADDGF106991041001017501041011MA1999999099581MD1510051+9999REMSYN066AAXX  10094 08027 42780 61610 10116 20046 39958 40270 55005 84041;
0163080270999992000021012004+43300-002050FM-12+025999999V0201601N003110150019N0300001N1+01461+00641102671ADDAA199000091GF108991081001017501061999MA1999999099581MD1410001+9999REMSYN066AAXX  10124 08027 32780 81606 10146 20064 39958 40267 54000 8806/;EQDQ01  00002PRCP99
0186080270999992000021018004+43300-002050FM-12+025999999V0203401N008210360019N0100001N1+01541+00791102571ADDAA199000091GF108991041061008001071999KA1999M+01581MA1999999099501MD1310031+9999REMSYN076AAXX  10184 08027 32560 83416 10154 20079 39950 40257 53003 8467/ 333 10158;EQDQ01  00002PRCP99
0171080270999992000021021004+43300-002050FM-12+025999999V0201601N002110042019N0050001N1+01101+01021102751ADDAY121031AY221031GF108991081061004501999999MA1999999099631MD1110131+9999MW1511REMSYN082AAXX  10214 08027 41450 81604 10110 20102 39963 40275 51013 75122 886// 333 96010;
0188080270999992000021100004+43300-002050FM-12+025999999V0202701N001010042019N0050001N1+01041+01001102751ADDAA106001091AY151061AY221061GF108991081061004501999999MA1999999099621MD1710011+9999MW1501REMSYN088AAXX  11004 08027 11450 82702 10104 20100 39962 40275 57001 60011 75052 886// 333 96010;
0251080270999992000021106004+43300-002050FM-12+025999999V0200201N002110042019N0080001N1+00561+00511102981ADDAA112007991AY161061AY241061GF108991081071004501999999GJ101389IA1119IA2999+00509KA1120N+00521MA1999999099791MD1310131+9999MW1501REMSYN112AAXX  11064 08027 11458 80204 10056 20051 39979 40298 53013 60082 75064 887// 333 20052 32005 50160 55023 96010;
0161080270999992000021109004+43300-002050FM-12+025999999V0201601N002110042019N0080001N1+00641+00601103061ADDAY151031AY221031GF108991081051004501999999MA1999999099871MD1210081+9999MW1101REMSYN072AAXX  11094 08027 41458 81604 10064 20060 39987 40306 52008 71052 885//;
0188080270999992000021112004+43300-002050FM-12+025999999V0200201N004110042019N0050001N1+00601+00511103061ADDAA106000191AY151061AY221061GF108991081051004501999999MA1999999099871MD1410001+9999MW1501REMSYN088AAXX  11124 08027 11450 80208 10060 20051 39987 40306 54000 69921 75052 885// 333 96010;
0173080270999992000021118004+43300-002050FM-12+025999999V0203501N002610120019N0150001N1+00621+00171102971ADDAA112000191GF107991051051012501071001KA1999M+00721MA1999999099781MD1510011+9999REMSYN082AAXX  11184 08027 12665 73505 10062 20017 39978 40297 55001 69922 85570 333 10072;
0133080270999992000021121004+43300-002050FM-12+025999999V0203501N002610360019N0150001N1+00601+00031103011ADDGF107991021051008001071001MA1999999099821MD1210041+9999REMSYN066AAXX  11214 08027 42565 73505 10060 20003 39982 40301 52004 82570;
0144080270999992000021200004+43300-002050FM-12+025999999V0203401N004112200019N0150001N1+00601+00031103021ADDAA199000021GF102991011051008001071001MA1999999099831MD1210011+9999REMSYN066AAXX  12004 08027 32565 23408 10060 20003 39983 40302 52001 81570;
0133080270999992000021203004+43300-002050FM-12+025999999V0202901N002110360019N0150001N1+00581+00241103061ADDGF106991041051008001071001MA1999999099861MD1210031+9999REMSYN066AAXX  12034 08027 42565 62904 10058 20024 39986 40306 52003 84570;
0222080270999992000021206004+43300-002050FM-12+025999999V0203601N002612200019N0150001N1+00581+00131103151ADDAA199000091GF103991021051008001071001IA1099IA2999+00409KA1120N+00561MA1999999099951MD1210091+9999REMSYN094AAXX  12064 08027 32565 33605 10058 20013 39995 40315 52009 82570 333 20056 31004 50030 55000;EQDQ01  00002PRCP99
0133080270999992000021209004+43300-002050FM-12+025999999V0203601N002612200019N0150001N1+00641+00081103341ADDGF104991041051008001001001MA1999999100141MD1210191+9999REMSYN066AAXX  12094 08027 42565 43605 10064 20008 30014 40334 52019 84500;
0163080270999992000021212004+43300-002050FM-12+025999999V0203601N004112200019N0200001N1+00761+00061103421ADDAA199000091GF104991041051008001001001MA1999999100231MD1110091+9999REMSYN066AAXX  12124 08027 32570 43608 10076 20006 30023 40342 51009 84500;EQDQ01  00002PRCP99
0186080270999992000021218004+43300-002050FM-12+025999999V0209999C000012200019N0300001N1+00681+00011103381ADDAA199000091GF103991031001017501041999KA1999M+00901MA1999999100181MD1510041+9999REMSYN076AAXX  12184 08027 32780 30000 10068 20001 30018 40338 55004 8304/ 333 10090;EQDQ01  00002PRCP99
0133080270999992000021221004+43300-002050FM-12+025999999V0201901N001512200019N0300001N1+00481+00071103441ADDGF103991001001999999001051MA1999999100221MD1110041+9999REMSYN066AAXX  12214 08027 42980 31903 10048 20007 30022 40344 51004 80005;
0163080270999992000021300004+43300-002050FM-12+025999999V0209999V001012200019N0300001N1+00401+00031103291ADDAA199000091GF101991001001999999001051MA1999999100071MD1810151+9999REMSYN066AAXX  13004 08027 32980 19902 10040 20003 30007 40329 58015 80005;EQDQ01  00002PRCP99
0143080270999992000021303004+43300-002050FM-12+025999999V0201601N002112200019N0300001N1+00401+00031103161ADDGA1001+999999999GF100991001001999999001001MA1999999099941MD1710131+9999REMSYN060AAXX  13034 08027 42980 01604 10040 20003 39994 40316 57013;
0222080270999992000021306004+43300-002050FM-12+025999999V0201801N002110150019N0300001N1+00461+00041102991ADDAA199000091GF107991071001017501071999IA1019IA2999+00009KA1120N+00361MA1999999099781MD1710161+9999REMSYN094AAXX  13064 08027 32780 71804 10046 20004 39978 40299 57016 8707/ 333 20036 30000 50080 55080;EQDQ01  00002PRCP99
0133080270999992000021309004+43300-002050FM-12+025999999V0203001N002110150019N0300001N1+00781+00141103001ADDGF107991071001017501071999MA1999999099831MD1310051+9999REMSYN066AAXX  13094 08027 42780 73004 10078 20014 39983 40300 53005 8707/;
0163080270999992000021312004+43300-002050FM-12+025999999V0202501N004610150019N0300001N1+01081+00361103011ADDAA199000091GF107991071001017501071999MA1999999099871MD1110041+9999REMSYN066AAXX  13124 08027 32780 72509 10108 20036 39987 40301 51004 8707/;EQDQ01  00002PRCP99
0211080270999992000021318004+43300-002050FM-12+025999999V0202701N008210006019N0008001N1+00861+00821102911ADDAA112004191AY151061AY221061GA1091+999999999GF109991091999999999999999KA1999M+01181MA1999999099751MD1610031+9999MW1511REMSYN082AAXX  13184 08027 11/08 92716 10086 20082 39975 40291 56003 60042 75152 333 10118;
0161080270999992000021321004+43300-002050FM-12+025999999V0202901N008710042019N0100001N1+01001+00921102891ADDAY151031AY241031GF108991081071004501999999MA1999999099751MD1410001+9999MW1201REMSYN072AAXX  13214 08027 41460 82917 10100 20092 39975 40289 54000 72054 887//;
0188080270999992000021400004+43300-002050FM-12+025999999V0202801N008210003019N0004001N1+00981+00981102891ADDAA106005191AY161061AY241061GA1091+999999999GF109991091999999999999999MA1999999099751MD1410001+9999MW1611REMSYN072AAXX  14004 08027 11/04 92816 10098 20098 39975 40289 54000 60051 76164;
0171080270999992000021403004+43300-002050FM-12+025999999V0203001N010810001519N0000001N1+01021+01021102791ADDAY161031AY241031GA1091+999999999GF109991091999999999999999MA1999999099661MD1810091+9999MW1611REMSYN066AAXX  14034 08027 41/00 93021 10102 20102 39966 40279 58009 76164;
0247080270999992000021406004+43300-002050FM-12+025999999V0203001N011810001519N0000001N1+01041+01041102791ADDAA112014091AY161061AY241061GA1091+999999999GF109991091999999999999999IA1119IA2999+01009KA1120N+00841MA1999999099661MD1510001+9999MW1511REMSYN100AAXX  14064 08027 11/00 93023 10104 20104 39966 40279 55000 60142 75164 333 20084 32010 50330 55011;
0171080270999992000021409004+43300-002050FM-12+025999999V0203101N010810001519N0000001N1+01061+01061102871ADDAY161031AY241031GA1091+999999999GF109991091999999999999999MA1999999099741MD1310081+9999MW1611REMSYN066AAXX  14094 08027 41/00 93121 10106 20106 39974 40287 53008 76164;
0188080270999992000021412004+43300-002050FM-12+025999999V0203001N010810001519N0000001N1+01041+01041102961ADDAA106009991AY161061AY241061GA1091+999999999GF109991091999999999999999MA1999999099821MD1210081+9999MW1611REMSYN072AAXX  14124 08027 11/00 93021 10104 20104 39982 40296 52008 60101 76164;
0201080270999992000021418004+43300-002050FM-12+025999999V0203001N006210120019N0300001N1+01061+00981103041ADDAA112010991AY161061AY241061GF108991081081008001999999KA1999M+01061MA1999999099901MD1110111+9999MW1021REMSYN088AAXX  14184 08027 11580 83012 10106 20098 39990 40304 51011 60112 70264 888// 333 10106;
0171080270999992000021421004+43300-002050FM-12+025999999V0202801N007210003019N0004001N1+00981+00981103101ADDAY161031AY241031GA1091+999999999GF109991091999999999999999MA1999999099951MD1110051+9999MW1611REMSYN066AAXX  14214 08027 41/04 92814 10098 20098 39995 40310 51005 76164;
0178080270999992000021500004+43300-002050FM-12+025999999V0202801N005110120019N0300001N1+00981+00901103101ADDAA106002091AY161061AY241061GF108991081081008001999999MA1999999099951MD1410001+9999MW1021REMSYN078AAXX  15004 08027 11580 82810 10098 20090 39995 40310 54000 60021 70264 888//;
0133080270999992000021503004+43300-002050FM-12+025999999V0202801N005110120019N0300001N1+00981+00901103101ADDGF108991081081008001999999MA1999999099951MD1410001+9999REMSYN066AAXX  15034 08027 42580 82810 10098 20090 39995 40310 54000 888//;
0209080270999992000021506004+43300-002050FM-12+025999999V0202801N004110120019N0300001N1+00981+00901103021ADDAA112007191GF108991081081008001999999IA1119IA2999+00809KA1120N+00941MA1999999099871MD1510041+9999REMSYN100AAXX  15064 08027 12580 82808 10098 20090 39987 40302 55004 60072 888// 333 20094 32008 50390 55000;
0133080270999992000021509004+43300-002050FM-12+025999999V0202501N004110120019N0300001N1+01041+00791103011ADDGF108991081081008001999999MA1999999099871MD1410001+9999REMSYN066AAXX  15094 08027 42580 82508 10104 20079 39987 40301 54000 888//;
0163080270999992000021512004+43300-002050FM-12+025999999V0201901N002110120019N0300001N1+01121+00961102951ADDAA199000091GF108991081081008001999999MA1999999099821MD1810051+9999REMSYN066AAXX  15124 08027 32580 81904 10112 20096 39982 40295 58005 888//;EQDQ01  00002PRCP99
0186080270999992000021518004+43300-002050FM-12+025999999V0202901N004110120019N0300001N1+01021+00901102671ADDAA199000091GF108991081081008001999999KA1999M+01221MA1999999099541MD1610041+9999REMSYN076AAXX  15184 08027 32580 82908 10102 20090 39954 40267 56004 888// 333 10122;EQDQ01  00002PRCP99
0133080270999992000021521004+43300-002050FM-12+025999999V0202901N005110120019N0300001N1+01041+00791102631ADDGF108991081081008001999999MA1999999099501MD1810041+9999REMSYN066AAXX  15214 08027 42580 82910 10104 20079 39950 40263 58004 888//;
0163080270999992000021600004+43300-002050FM-12+025999999V0202801N006210120019N0300001N1+01161+00611102491ADDAA199000091GF108991081081008001999999MA1999999099381MD1710121+9999REMSYN066AAXX  16004 08027 32580 82812 10116 20061 39938 40249 57012 888//;EQDQ01  00002PRCP99
0133080270999992000021603004+43300-002050FM-12+025999999V0202801N006210120019N0300001N1+01161+00611102491ADDGF108991081081008001999999MA1999999099381MD1410001+9999REMSYN066AAXX  16034 08027 42580 82812 10116 20061 39938 40249 54000 888//;
0237080270999992000021606004+43300-002050FM-12+025999999V0202801N006210120019N0300001N1+00841+00711102441ADDAA112005191AY181061AY221061GF108991081081008001999999IA1119IA2999+00809KA1120N+00841MA1999999099301MD1610121+9999MW1021REMSYN106AAXX  16064 08027 11580 82812 10084 20071 39930 40244 56012 60052 70282 888// 333 20084 32008 50160 55002;
0161080270999992000021609004+43300-002050FM-12+025999999V0202801N007210075019N0150001N1+00841+00761102441ADDAY161031AY221031GF108991081071008001999999MA1999999099301MD1510001+9999MW1601REMSYN072AAXX  16094 08027 41565 82814 10084 20076 39930 40244 55000 76062 887//;
0178080270999992000021612004+43300-002050FM-12+025999999V0202801N013910075019N0120001N1+00741+00651102501ADDAA106005191AY161061AY221061GF108991081071008001999999MA1999999099341MD1010041+9999MW1601REMSYN078AAXX  16124 08027 11562 82827 10074 20065 39934 40250 50004 60051 76062 887//;
0224080270999992000021618004+43300-002050FM-12+025999999V0203001N011810120019N0020001N1+00841+00711102281ADDAA112007991AY181061AY221061GF108991081081008001999999KA1120M+00941MA1999999099141MD1710081+9999MW1251OA149902111REMSYN100AAXX  16184 08027 11520 83023 10084 20071 39914 40228 57008 60082 72582 888// 333 10094 91141 91529;
0188080270999992000021621004+43300-002050FM-12+025999999V0203001N012910120019N0100001N1+00881+00531102401ADDAY181031AY221031GF108991081081008001999999MA1999999099261MD1310121+9999MW1021OA149902631REMSYN088AAXX  16214 08027 41560 83025 10088 20053 39926 40240 53012 70282 888// 333 91151 91530;
0205080270999992000021700004+43300-002050FM-12+025999999V0203101N015910090019N0020001N1+00841+00801102371ADDAA106004191AY181061AY221061GF108991081081004501999999MA1999999099231MD1810031+9999MW1251OA149902731REMSYN094AAXX  17004 08027 11420 83131 10084 20080 39923 40237 58003 60041 72582 888// 333 91153 91531;
0188080270999992000021703004+43300-002050FM-12+025999999V0203001N012910090019N0020001N1+00881+00841102281ADDAY181031AY221031GF108991081081004501999999MA1999999099151MD1710081+9999MW1801OA149902261REMSYN088AAXX  17034 08027 41420 83025 10088 20084 39915 40228 57008 78082 888// 333 91144 91531;
0237080270999992000021706004+43300-002050FM-12+025999999V0202801N008210120019N0030001N1+00821+00741102171ADDAA112007991AY181061AY221061GF108991081081008001999999IA1119IA2999+00809KA1120N+00741MA1999999099031MD1710121+9999MW1101REMSYN106AAXX  17064 08027 11530 82816 10082 20074 39903 40217 57012 60082 71082 888// 333 20074 32008 50680 55000;
0198080270999992000021709004+43300-002050FM-12+025999999V0203001N018010006019N0008001N1+01061+01061102051ADDAY161031AY241031GA1091+999999999GF109991091999999999999999MA1999999098941MD1510091+9999MW1611OA149902681REMSYN082AAXX  17094 08027 41/08 93035 10106 20106 39894 40205 55009 76164 333 91152 91530;
0215080270999992000021712004+43300-002050FM-12+025999999V0203101N014910001519N0000001N1+01101+01101102251ADDAA106006191AY181061AY241061GA1091+999999999GF109991091999999999999999MA1999999099141MD1310201+9999MW1801OA149902681REMSYN088AAXX  17124 08027 11/00 93129 10110 20110 39914 40225 53020 60061 78084 333 91152 91530;
0211080270999992000021718004+43300-002050FM-12+025999999V0203101N010810001519N0000001N1+01081+01081102541ADDAA112007191AY161061AY241061GA1091+999999999GF109991091999999999999999KA1999M+01101MA1999999099421MD1310201+9999MW1451REMSYN082AAXX  17184 08027 11/00 93121 10108 20108 39942 40254 53020 60072 74564 333 10110;
0171080270999992000021721004+43300-002050FM-12+025999999V0203101N008710001519N0000001N1+01081+01081102661ADDAY161031AY241031GA1091+999999999GF109991091999999999999999MA1999999099541MD1210121+9999MW1451REMSYN066AAXX  17214 08027 41/00 93117 10108 20108 39954 40266 52012 74564;
0188080270999992000021800004+43300-002050FM-12+025999999V0202901N008210001519N0000001N1+01021+01021102671ADDAA106002091AY161061AY241061GA1091+999999999GF109991091999999999999999MA1999999099541MD1410001+9999MW1451REMSYN072AAXX  18004 08027 11/00 92916 10102 20102 39954 40267 54000 60021 74564;
0171080270999992000021803004+43300-002050FM-12+025999999V0203001N008210001519N0000001N1+01041+01041102591ADDAY161031AY241031GA1091+999999999GF109991091999999999999999MA1999999099471MD1710071+9999MW1611REMSYN066AAXX  18034 08027 41/00 93016 10104 20104 39947 40259 57007 76164;
0247080270999992000021806004+43300-002050FM-12+025999999V0203001N008710001519N0001001N1+01041+01041102551ADDAA112003091AY161061AY241061GA1091+999999999GF109991091999999999999999IA1119IA2999+01009KA1120N+00961MA1999999099431MD1510041+9999MW1501REMSYN100AAXX  18064 08027 11/01 93017 10104 20104 39943 40255 55004 60032 75064 333 20096 32010 50280 55000;
0161080270999992000021809004+43300-002050FM-12+025999999V0202801N007710042019N0080001N1+01041+01041102591ADDAY161031AY241031GF108991081071004501999999MA1999999099471MD1110041+9999MW1101REMSYN072AAXX  18094 08027 41458 82815 10104 20104 39947 40259 51004 71064 887//;
0178080270999992000021812004+43300-002050FM-12+025999999V0202901N005110042019N0060001N1+01041+01041102631ADDAA106000391AY161061AY241061GF108991081071004501999999MA1999999099501MD1310031+9999MW1101REMSYN078AAXX  18124 08027 11456 82910 10104 20104 39950 40263 53003 69931 71064 887//;
0173080270999992000021818004+43300-002050FM-12+025999999V0203001N006210090019N0150001N1+01061+00901102541ADDAA112000391GF108991081081004501999999KA1999M+01101MA1999999099421MD1310041+9999REMSYN082AAXX  18184 08027 12465 83012 10106 20090 39942 40254 53004 69932 888// 333 10110;
0161080270999992000021821004+43300-002050FM-12+025999999V0202801N004110075019N0100001N1+01041+00921102601ADDAY161031AY221031GF108991081071008001999999MA1999999099471MD1010051+9999MW1631REMSYN072AAXX  18214 08027 41560 82808 10104 20092 39947 40260 50005 76362 887//;
0178080270999992000021900004+43300-002050FM-12+025999999V0203001N005110120019N0150001N1+01101+00861102501ADDAA106000191AY161061AY221061GF108991081081008001999999MA1999999099381MD1710091+9999MW1021REMSYN078AAXX  19004 08027 11565 83010 10110 20086 39938 40250 57009 69921 70262 888//;
0181080270999992000021903004+43300-002050FM-12+025999999V0203001N006210001519N0000001N1+01001+01001102391ADDAY121031AY221031GA1091+999999999GF109991091999999999999999MA1999999099271MD1710111+9999MW1631REMSYN076AAXX  19034 08027 41/00 93012 10100 20100 39927 40239 57011 76322 333 96047;
0237080270999992000021906004+43300-002050FM-12+025999999V0203001N006710042019N0030001N1+00941+00901102431ADDAA112001091AY161061AY221061GF108991081071004501999999IA1119IA2999+00909KA1120N+00901MA1999999099301MD1310031+9999MW1611REMSYN106AAXX  19064 08027 11430 83013 10094 20090 39930 40243 53003 60012 76162 887// 333 20090 32009 50020 55005;
0133080270999992000021909004+43300-002050FM-12+025999999V0202901N009810120019N0120001N1+01021+00821102461ADDGF108991081081008001999999MA1999999099341MD1310041+9999REMSYN066AAXX  19094 08027 42562 82919 10102 20082 39934 40246 53004 888//;
0178080270999992000021912004+43300-002050FM-12+025999999V0202901N008210042019N0040001N1+01021+00901102511ADDAA106000791AY121061AY221061GF108991081071004501999999MA1999999099381MD1210041+9999MW1611REMSYN078AAXX  19124 08027 11440 82916 10102 20090 39938 40251 52004 69901 76122 887//;
0211080270999992000021918004+43300-002050FM-12+025999999V0203501N005110003019N0004001N1+00881+00881102481ADDAA112007191AY161061AY241061GA1091+999999999GF109991091999999999999999KA1999M+01061MA1999999099341MD1310071+9999MW1601REMSYN082AAXX  19184 08027 11/04 93510 10088 20088 39934 40248 53007 60072 76064 333 10106;
0161080270999992000021921004+43300-002050FM-12+025999999V0203401N007210120019N0060001N1+00841+00801102621ADDAY161031AY241031GF108991081081008001999999MA1999999099471MD1210131+9999MW1601REMSYN072AAXX  19214 08027 41556 83414 10084 20080 39947 40262 52013 76064 888//;
0178080270999992000022000004+43300-002050FM-12+025999999V0203001N005110120019N0050001N1+00841+00801102691ADDAA106003091AY161061AY221061GF108991081081008001999999MA1999999099541MD1110071+9999MW1601REMSYN078AAXX  20004 08027 11550 83010 10084 20080 39954 40269 51007 60031 76062 888//;
0161080270999992000022003004+43300-002050FM-12+025999999V0203001N005110120019N0050001N1+00841+00801102691ADDAY161031AY221031GF108991081081008001999999MA1999999099541MD1410001+9999MW1601REMSYN072AAXX  20034 08027 42550 83010 10084 20080 39954 40269 54000 76062 888//;
0237080270999992000022006004+43300-002050FM-12+025999999V0202901N001010120019N0250001N1+00701+00571102601ADDAA112004191AY161061AY221061GF108991081081008001999999IA1129IA2999+00209KA1120N+00701MA1999999099431MD1610111+9999MW1021REMSYN106AAXX  20064 08027 11575 82902 10070 20057 39943 40260 56011 60042 70262 888// 333 20070 33002 50210 55000;
0133080270999992000022009004+43300-002050FM-12+025999999V0201201N002110120019N0250001N1+00801+00671102741ADDGF106991061081008001001001MA1999999099581MD1310151+9999REMSYN066AAXX  20094 08027 42575 61204 10080 20067 39958 40274 53015 86800;
0144080270999992000022012004+43300-002050FM-12+025999999V0200201N004112200019N0300001N1+00921+00421102771ADDAA199000021GF103991031081008001001001MA1999999099621MD1110041+9999REMSYN066AAXX  20124 08027 32580 30208 10092 20042 39962 40277 51004 83800;
0186080270999992000022018004+43300-002050FM-12+025999999V0200201N002612200019N0300001N1+00761+00441102711ADDAA199000091GF102991021011008001041001KA1999M+01041MA1999999099551MD1310011+9999REMSYN076AAXX  20184 08027 32580 20205 10076 20044 39955 40271 53001 82140 333 10104;EQDQ01  00002PRCP99
0133080270999992000022021004+43300-002050FM-12+025999999V0201201N002112200019N0300001N1+00721+00401102721ADDGF101991011011008001041001MA1999999099551MD1410001+9999REMSYN066AAXX  20214 08027 42580 11204 10072 20040 39955 40272 54000 81140;
0163080270999992000022100004+43300-002050FM-12+025999999V0200901N002112200019N0300001N1+00641+00311102731ADDAA199000091GF101991001001999999001011MA1999999099551MD1410001+9999REMSYN066AAXX  21004 08027 32980 10904 10064 20031 39955 40273 54000 80001;EQDQ01  00002PRCP99
0143080270999992000022103004+43300-002050FM-12+025999999V0203201N001512200019N0300001N1+00561+00371102701ADDGA1001+999999999GF100991001001999999001001MA1999999099511MD1810041+9999REMSYN060AAXX  21034 08027 42980 03203 10056 20037 39951 40270 58004;
0222080270999992000022106004+43300-002050FM-12+025999999V0203001N002112200019N0300001N1+00441+00391102701ADDAA199000091GF101991011001017501041001IA1099IA2999+00209KA1120N+00401MA1999999099501MD1610011+9999REMSYN094AAXX  21064 08027 32780 13004 10044 20039 39950 40270 56001 81040 333 20040 31002 50220 55082;EQDQ01  00002PRCP99
0161080270999992000022109004+43300-002050FM-12+025999999V0203201N001012200019N0080001N1+00541+00451102741ADDAY111031AY201031GF102991001001999999001011MA1999999099551MD1310051+9999MW1101REMSYN072AAXX  21094 08027 41958 23202 10054 20045 39955 40274 53005 71010 80001;
0191080270999992000022112004+43300-002050FM-12+025999999V0203001N001019999999N0050001N1+00781+00601102741ADDAA199000091AY121061AY211061GF107991001001999999001081MA1999999099581MD1110031+9999MW1101REMSYN072AAXX  21124 08027 31950 73002 10078 20060 39958 40274 51003 71021 80008;EQDQ01  00002PRCP99
0186080270999992000022118004+43300-002050FM-12+025999999V0200401N002110900019N0250001N1+00681+00081102731ADDAA199000091GF105991011001017501041021KA1999M+00861MA1999999099551MD1310051+9999REMSYN076AAXX  21184 08027 32775 50404 10068 20008 39955 40273 53005 81042 333 10086;EQDQ01  00002PRCP99
0133080270999992000022121004+43300-002050FM-12+025999999V0209999C000019999999N0250001N1+00541+00081102731ADDGF105991001001999999001011MA1999999099541MD1610011+9999REMSYN066AAXX  21214 08027 42975 50000 10054 20008 39954 40273 56001 80001;
0163080270999992000022200004+43300-002050FM-12+025999999V0202701N004119999999N0250001N1+00481+00011102741ADDAA199000091GF106991001001999999001081MA1999999099541MD1410001+9999REMSYN066AAXX  22004 08027 32975 62708 10048 20001 39954 40274 54000 80008;EQDQ01  00002PRCP99
0133080270999992000022203004+43300-002050FM-12+025999999V0202301N002110150019N0150001N1+00501+00201102741ADDGF107991071001017501051999MA1999999099541MD1010001+9999REMSYN066AAXX  22034 08027 42765 72304 10050 20020 39954 40274 50000 8705/;
0222080270999992000022206004+43300-002050FM-12+025999999V0202501N003112200019N0150001N1+00461+00211102671ADDAA199000091GF104991011051008001041001IA1099IA2999+00309KA1120N+00401MA1999999099471MD1510071+9999REMSYN094AAXX  22064 08027 32565 42506 10046 20021 39947 40267 55007 81540 333 20040 31003 50100 55092;EQDQ01  00002PRCP99
0133080270999992000022209004+43300-002050FM-12+025999999V0202501N003110900019N0200001N1+00681+00351102641ADDGF105991011051008001001071MA1999999099471MD1410001+9999REMSYN066AAXX  22094 08027 42570 52506 10068 20035 39947 40264 54000 81507;
0163080270999992000022212004+43300-002050FM-12+025999999V0203001N003110360019N0150001N1+00841+00271102701ADDAA199000091GF107991011011008001041081MA1999999099541MD1310071+9999REMSYN066AAXX  22124 08027 32565 73006 10084 20027 39954 40270 53007 81148;EQDQ01  00002PRCP99
0186080270999992000022218004+43300-002050FM-12+025999999V0202901N001010360019N0150001N1+00761+00391102581ADDAA199000091GF108991011051012501071999KA1999M+00861MA1999999099421MD1710011+9999REMSYN076AAXX  22184 08027 32665 82902 10076 20039 39942 40258 57001 8157/ 333 10086;EQDQ01  00002PRCP99
0133080270999992000022221004+43300-002050FM-12+025999999V0201501N001510900019N0150001N1+00721+00401102631ADDGF107991031001022501071081MA1999999099461MD1110041+9999REMSYN066AAXX  22214 08027 42865 71503 10072 20040 39946 40263 51004 83078;
