0153107550999992000010305004+49320+010630FM-15+0467ETEB V0201701N003610015019N0008001N1+99999+99999999999ADDMW1001MW2441MW3771REMMET104ETEB 030455Z 17007KT 0800 -SG FG VVOO5 M01/M01 A3036 RMK PK WND 16011/39 SLPNO CIG005 8/6// 9/8// FIRST;EQDQ01+000003PRSWM1
0145107550999992000010305254+49320+010630FM-16+0467ETEB V0202001N003110006019N0006001N1+99999+99999999999ADDGD14991+0001599GF108991999999999999999999MW1001MW2441REMMET061ETEB 030525Z 20006KT 0600 FG OVC0O2 M02/M02 A3036 RMK CIG002;EQDQ01+000003PRSWM1
0203107550999992000010306004+49320+010630FM-15+0467ETEB V0202001N003610015019N0008001N1-00201-00201999999ADDGD15991+0001599GF109991999999000251999999MA1102811999999MW1451REMMET094ETEB 030559Z 20007KT 0800 FG VV005 M02/M02 A3036 RMK PK WND 19010/08 SLPNO CIG005 8/6// 9/8//;EQDQ01+000003PRSWM1Q02    003PRSWM1
0169107550999992000010306304+49320+010630FM-15+0467ETEB V0202001N003110015019N0006001N1-00201-00201999999ADDGD15991+0001599GF109991999999000251999999MA1102811999999MW1451REMMET060ETEB 030630Z 20006KT 0600 FG VV005 M02/M02 A3036 RMK CIG005;EQDQ01+000003PRSWM1Q02    003PRSWM1
0191107550999992000010306554+49320+010630FM-15+0467ETEB V0202001N004610015019N0004001N1-00201-00201999999ADDGD15991+0001599GF109991999999000251999999MA1102841999999MW1451REMMET082ETEB 030655Z 20009KT 0400 FG VV005 M02/M02 A3037 RMK PK WND 24013/34 SLPNO CIG005;EQDQ01+000003PRSWM1Q02    003PRSWM1
0191107550999992000010307554+49320+010630FM-15+0467ETEB V0202101N005710015019N0006001N1-00201-00201999999ADDGD15991+0001599GF109991999999000251999999MA1102881999999MW1451REMMET082ETEB 030755Z 21011KT 0600 FG VV005 M02/M02 A3038 RMK PK WND 21015/33 SLPNO CIG005;EQDQ01+000003PRSWM1Q02    003PRSWM1
0202107550999992000010309004+49320+010630FM-15+0467ETEB V0202201N004110015019N0006001N1-00201-00201999999ADDGD15991+0001599GF109991999999000251999999MA1102881999999MW1451OC100721REMMET085ETEB 030855Z 22008G14KT 0600 FG VV005 M02/M02 A3038 RMK PK WND 25015/23 SLPNO CIG005;EQDQ01+000003PRSWM1Q02    003PRSWM1
0180107550999992000010309104+49320+010630FM-16+0467ETEB V0202301N004610015019N0020001N1-00201-00201999999ADDGD15991+0001599GF109991999999000251999999MA1102911999999MW1101OC100671REMMET063ETEB 030910Z 23009G13KT 2000 BR VV005 M02/M02 A3039 RMK CIG005;EQDQ01+000003PRSWM1Q02    003PRSWM1
0170107550999992000010309404+49320+010630FM-16+0467ETEB V0202501N003110009019N0040001N1-00201-00201999999ADDGD14991+0009099GF108991999999999999999999MA1102911999999MW1101REMMET061ETEB 030940Z 25006KT 4000 BR OVC003 M02/M02 A3039 RMK CIG003;EQDQ01+000003PRSWM1Q02    003PRSWM1
0180107550999992000010309504+49320+010630FM-15+0467ETEB V0202401N003610009019N0040001N1-00201-00201999999ADDGD14991+0009099GF108991999999999999999999MA1102911999999MW1101MW2711REMMET065ETEB 030950Z 24007KT 4000 -SN BR OVC003 M02/M02 A3039 RMK CIG003;EQDQ01+000003PRSWM1Q02    003PRSWM1
0214107550999992000010309554+49320+010630FM-15+0467ETEB V0202301N003110009019N0040001N1-00101-00101999999ADDGD14991+0009099GF108991999999999999999999MA1102911999999MW1101MW2771REMMET099ETEB 030955Z 23006KT 4000 -SG BR OVC003 M01/M01 A3039 RMK PK WND 23015/58 SLPNO CIG003 8/6// 9/8//;EQDQ01+000003PRSWM1Q02    003PRSWM1
0203107550999992000010310454+49320+010630FM-15+0467ETEB V0202501N005110012019N0044001N1-00101-00101999999ADDGD12991+0009099GD24991+0012099GF108991999999999999999999MA1102841999999MW1101OC100671REMMET071ETEB 031045Z 25010G13KT 4400 BR SCT003 OVC004 M01/M01 A3037 RMK CIG004;EQDQ01+000003PRSWM1Q02    003PRSWM1
0226107550999992000010311004+49320+010630FM-15+0467ETEB V0202401N004610012019N0044001N1-00101-00101999999ADDGD12991+0009099GD24991+0012099GF108991999999999999999999MA1102841999999MW1101REMMET102ETEB 031055Z 24009KT 4400 BR SCT003 OVC004 M01/M01 A3037 RMK PK WND 26013/40 SLPNO CIG004 8/6// 9/8//;EQDQ01+000003PRSWM1Q02    003PRSWM1
0192107550999992000010311154+49320+010630FM-16+0467ETEB V0202301N004110018019N0060001N1-00101-00101999999ADDGD12991+0012099GD24991+0018099GF108991999999999999999999MA1102841999999MW1101REMMET068ETEB 031115Z 23008KT 6000 BR FEW004 OVC006 M01/M01 A3037 RMK CIG006;EQDQ01+000003PRSWM1Q02    003PRSWM1
0243107550999992000010311564+49320+010630FM-15+0467ETEB V0202401N005110018019N0060001N1+00001+00001999999ADDGD12991+0012099GD24991+0018099GF108991999999999999999999MA1102811999999MW1101OC100771REMMET111ETEB 031156Z 24010G15KT 6000 BR FEW004 OVC006 M00/M00 A3036 RMK PK WND 25015/54 SLPNO CIG006 60000 8/6// 9/8//;EQDQ01+000003PRSWM1Q02    003PRSWM1
0204107550999992000010312564+49320+010630FM-15+0467ETEB V0202501N004110018019N0060001N1+00001+00001999999ADDGD14991+0018099GF108991999999999999999999MA1102781999999MW1101REMMET095ETEB 031256Z 25008KT 6000 BR OVC006 M00/M00 A3035 RMK PK WND 25013/17 SLPNO CIG006 8/6// 9/8//;EQDQ01+000003PRSWM1Q02    003PRSWM1
0215107550999992000010313554+49320+010630FM-15+0467ETEB V0202501N005710018019N0060001N1+00001+00001999999ADDGD14991+0018099GF108991999999999999999999MA1102741999999MW1101OC100721REMMET098ETEB 031355Z 25011G14KT 6000 BR OVC006 M00/M00 A3034 RMK PK WND 26014/44 SLPNO CIG006 8/6// 9/8//;EQDQ01+000003PRSWM1Q02    003PRSWM1
0215107550999992000010314554+49320+010630FM-15+0467ETEB V0202201N006210018019N0060001N1+00001+00001999999ADDGD14991+0018099GF108991999999999999999999MA1102711999999MW1101OC100821REMMET098ETEB 031455Z 22012G16KT 6000 BR OVC006 M00/M00 A3033 RMK PK WND 22017/34 SLPNO CIG006 8/6// 9/8//;EQDQ01+000003PRSWM1Q02    003PRSWM1
0215107550999992000010315554+49320+010630FM-15+0467ETEB V0202001N006210018019N0050001N1-00101-00101999999ADDGD14991+0018099GF108991999999999999999999MA1102681999999MW1101OC100821REMMET098ETEB 031555Z 20012G16KT 5000 BR OVC006 M01/M01 A3032 RMK PK WND 20016/48 SLPNO CIG006 8/6// 9/8//;EQDQ01+000003PRSWM1Q02    003PRSWM1
0229107550999992000010316554+49320+010630FM-15+0467ETEB V0201701N003110018019N0050001N1+00001+00001999999ADDGD13991+0018099GD24991+0060099GF108991999999999999999999MA1102681999999MW1101REMMET105ETEB 031655Z 17006G09KT 5000 BR BKN006 OVC020 M00/M00 A3032 RMK PK WND 19017/06 SLPNO CIG006 8/6// 9/8//;EQDQ01+000003PRSWM1Q02    003PRSWM1
0226107550999992000010317554+49320+010630FM-15+0467ETEB V0201901N004110018019N0050001N1+00001+00001999999ADDGD13991+0018099GD24991+0060099GF108991999999999999999999MA1102681999999MW1101REMMET102ETEB 031755Z 19008KT 5000 BR BKN006 OVC020 M00/M00 A3032 RMK PK WND 16017/01 SLPNO CIG006 8/6// 9/8//;EQDQ01+000003PRSWM1Q02    003PRSWM1
0226107550999992000010318554+49320+010630FM-15+0467ETEB V0201901N005710018019N0050001N1+00001+00001999999ADDGD13991+0018099GD24991+0060099GF108991999999999999999999MA1102641999999MW1101REMMET102ETEB 031855Z 19011KT 5000 BR BKN006 OVC020 M00/M00 A3031 RMK PK WND 20016/13 SLPNO CIG006 8/6// 9/8//;EQDQ01+000003PRSWM1Q02    003PRSWM1
0235107550999992000010320004+49320+010630FM-15+0467ETEB V0201701N004110018019N0070001N1+00001+00001999999ADDGD13991+0018099GD24991+0075099GF108991999999999999999999MA1102611999999MW1101OC100511REMMET103ETEB 031955Z 17008G10KT 7000 BR BKN006 OVC025 00/00 A3030 RMK PK WND 18016/31 SLPNO CIG006 8/6// 9/8//;EQDQ01+000003PRSWM1Q02    003PRSWM1
0201107550999992000010320404+49320+010630FM-16+0467ETEB V0201901N003610075019N0070001N1+00001+00001999999ADDGD12991+0018099GD24991+0075099GF108991999999999999999999MA1102611999999MW1101OC100511REMMET069ETEB 032040Z 19007G10KT 7000 BR SCT006 OVC025 00/00 A3030 RMK CIG025;EQDQ01+000003PRSWM1Q02    003PRSWM1
0240107550999992000010320554+49320+010630FM-15+0467ETEB V0201901N005110075019N0070001N1+00001+00001999999ADDGD12991+0018099GD24991+0075099GF108991999999999999999999MA1102571999999MW1101OC100821REMMET108ETEB 032055Z 19010G16KT 7000 BR SCT006 OVC025 00/00 A3029 RMK PK WND 19016/54 SLPNO CIG025 8/6// 9/8// LAST;EQDQ01+000003PRSWM1Q02    003PRSWM1
0211107550999992000010405004+49320+010630FM-15+0467ETEB V0201801N004110075019N0112651N1+00101+00001999999ADDGD12991+0030099GD24991+0075099GF108991999999999999999999MA1102301999999MW1001REMMET103ETEB 040455Z 18008KT 9999 FEW010 OVC025 01/00 A3021 RMK PK WND 18013/13 SLPNO CIG025 8/6// 9/8// FIRST;EQDQ01+000000PRSWM2
0216107550999992000010405564+49320+010630FM-15+0467ETEB V0201801N004610075019N0112651N1+00101+00101999999ADDGD12991+0030099GD24991+0075099GF108991999999999999999999MA1102271999999MW1001OC100621REMMET100ETEB 040556Z 18009G12KT 9999 FEW010 OVC025 01/01 A3020 RMK PK WND 18016/38 SLPNO CIG025 8/6// 9/8//;EQDQ01+000000PRSWM2
0213107550999992000010406554+49320+010630FM-15+0467ETEB V0201901N005710075019N0090001N1+00101+00001999999ADDGD14991+0075099GF108991999999999999999999MA1102271999999MW1101OC100821REMMET096ETEB 040655Z 19011G16KT 9000 BR OVC025 01/00 A3020 RMK PK WND 19016/48 SLPNO CIG025 8/5// 9/8//;EQDQ01+000003PRSWM1Q02    003PRSWM1
0213107550999992000010407554+49320+010630FM-15+0467ETEB V0201801N004610075019N0090001N1+00101+00101999999ADDGD14991+0075099GF108991999999999999999999MA1102301999999MW1101OC100671REMMET096ETEB 040755Z 18009G13KT 9000 BR OVC025 01/01 A3021 RMK PK WND 19015/02 SLPNO CIG025 8/5// 9/8//;EQDQ01+000003PRSWM1Q02    003PRSWM1
0213107550999992000010408504+49320+010630FM-15+0467ETEB V0201801N005110075019N0090001N1+00201+00101999999ADDGD13991+0075099GD24991+0270099GF108991999999999999999999MA1102271999999MW1101MW2611REMMET083ETEB 040850Z COR 18010KT 9000 -RA BR BKN025 OVC090 02/01 A3020 RMK CIG025 COR 0855;EQDQ01+000003PRSWM1Q02    003PRSWM1
0253107550999992000010409004+49320+010630FM-15+0467ETEB V0201801N005110075019N0090001N1+00201+00101999999ADDGD13991+0075099GD24991+0270099GF108991999999999999999999MA1102271999999MW1101MW2611REMMET123ETEB 040858Z COR 18010KT 9000 -RA BR BKN025 OVC090 02/01 A3020 RMK PK WND 20013/54 SLPNO CIG025 60000 8/57/ 9/62/ COR 0905;EQDQ01+000003PRSWM1Q02    003PRSWM1
0232107550999992000010409154+49320+010630FM-16+0467ETEB V0201701N005110150019N0080001N1+00201+00101999999ADDGD12991+0105099GD23991+0150099GD34991+0270099GF108991999999999999999999MA1102271999999MW1611REMMET077ETEB 040915Z 17010KT 8000 -RA BR SCT035 BKN050 OVC090 02/01 A3020 RMK CIG050;EQDQ01+000100PRSWM3Q02+000003PRSWM1Q03    003PRSWM1
0210107550999992000010409404+49320+010630FM-16+0467ETEB V0201601N004610075019N0080001N1+00101+00101999999ADDGD13991+0075099GD24991+0150099GF108991999999999999999999MA1102271999999MW1771REMMET070ETEB 040940Z 16009KT 8000 -SG BR BKN025 OVC050 01/01 A3020 RMK CIG025;EQDQ01+000100PRSWM3Q02+000003PRSWM1Q03    003PRSWM1
0234107550999992000010410004+49320+010630FM-15+0467ETEB V0201601N005110075019N0080001N1+00101+00101999999ADDGD13991+0075099GD24991+0150099GF108991999999999999999999MA1102271999999MW1101MW2771REMMET104ETEB 040955Z 16010KT 8000 -SG BR BKN025 OVC050 01/01 A3020 RMK PK WND 16014/49 SLPNO CIG025 8/5// 9/8//;EQDQ01+000003PRSWM1Q02    003PRSWM1
0201107550999992000010410404+49320+010630FM-16+0467ETEB V0201701N006710075019N0080001N1+00201+00101999999ADDGD13991+0075099GD24991+0150099GF108991999999999999999999MA1102171999999MW1101OC100931REMMET069ETEB 041040Z 17013G18KT 8000 BR BKN025 OVC050 02/01 A3017 RMK CIG025;EQDQ01+000003PRSWM1Q02    003PRSWM1
0235107550999992000010410554+49320+010630FM-15+0467ETEB V0201701N006210060019N0080001N1+00201+00201999999ADDGD13991+0060099GD24991+0270099GF108991999999999999999999MA1102171999999MW1101OC100871REMMET103ETEB 041055Z 17012G17KT 8000 BR BKN020 OVC090 02/02 A3017 RMK PK WND 17018/39 SLPNO CIG020 8/57/ 9/62/;EQDQ01+000003PRSWM1Q02    003PRSWM1
0182107550999992000010411504+49320+010630FM-15+0467ETEB V0201701N006710120019N0112651N1+00301+00201999999ADDGD12991+0075099GD23991+0120099GF107991999999999999999999MA1102101999999MW1001OC100821REMMET066ETEB 041150Z 17013G16KT 9999 SCT025 BKN040 03/02 A3015 RMK CIG040;EQDQ01+000000PRSWM2
0235107550999992000010412004+49320+010630FM-15+0467ETEB V0201701N006710120019N0112651N1+00301+00201999999ADDGD12991+0075099GD23991+0120099GF107991999999999999999999MA1102101999999MW1001OC100871REMMET119ETEB 041158Z COR 17013G17KT 9999 SCT025 BKN040 03/02 A3015 RMK PK WND 19017/38 SLPNO CIG040 60000 8/500 9/700 COR 1202;EQDQ01+000000PRSWM2
0201107550999992000010412204+49320+010630FM-15+0467ETEB V0201701N006210060019N0090001N1+00301+00201999999ADDGD13991+0060099GD23991+0120099GF107991999999999999999999MA1102071999999MW1101OC100821REMMET069ETEB 041220Z 17012G16KT 9000 BR BKN020 BKN040 03/02 A3014 RMK CIG020;EQDQ01+000003PRSWM1Q02    003PRSWM1
0216107550999992000010412554+49320+010630FM-15+0467ETEB V0201801N005710075019N0112651N1+00301+00201999999ADDGD13991+0075099GD23991+0150099GF107991999999999999999999MA1102031999999MW1001OC100821REMMET100ETEB 041255Z 18011G16KT 9999 BKN025 BKN050 03/02 A3013 RMK PK WND 18018/28 SLPNO CIG025 8/500 9/700;EQDQ01+000000PRSWM2
0238107550999992000010414004+49320+010630FM-15+0467ETEB V0201701N006710060019N0112651N1+00301+00201999999ADDGD13991+0060099GD23991+0150099GD33991+0240099GF107991999999999999999999MA1102001999999MW1001OC100931REMMET107ETEB 041355Z 17013G18KT 9999 BKN020 BKN050 BKN080 03/02 A3012 RMK PK WND 17018/48 SLPNO CIG020 8/570 9/520;EQDQ01+000000PRSWM2
0204107550999992000010414224+49320+010630FM-16+0467ETEB V0201801N005710150019N0112651N1+00301+00201999999ADDGD12991+0060099GD23991+0150099GD33991+0240099GF107991999999999999999999MA1101961999999MW1001OC100821REMMET073ETEB 041422Z 18011G16KT 9999 SCT020 BKN050 BKN080 03/02 A3011 RMK CIG050;EQDQ01+000000PRSWM2
0238107550999992000010414554+49320+010630FM-15+0467ETEB V0201701N006710180019N0112651N1+00301+00201999999ADDGD12991+0060099GD23991+0180099GD33991+0240099GF107991999999999999999999MA1101961999999MW1001OC100821REMMET107ETEB 041455Z 17013G16KT 9999 FEW020 BKN060 BKN080 03/02 A3011 RMK PK WND 16018/37 SLPNO CIG060 8/570 9/520;EQDQ01+000000PRSWM2
0216107550999992000010416554+49320+010630FM-15+0467ETEB V0201801N006710180019N0112651N1+00301+00201999999ADDGD13991+0180099GD23991+0240099GF107991999999999999999999MA1101861999999MW1001OC100981REMMET100ETEB 041655Z 18013G19KT 9999 BKN060 BKN080 03/02 A3008 RMK PK WND 18019/44 SLPNO CIG060 8/570 9/520;EQDQ01+000000PRSWM2
0223107550999992000010417404+49320+010630FM-16+0467ETEB V0201801N005710180019N0090001N1+00401+00301999999ADDGD13991+0180099GD24991+0240099GF108991999999999999999999MA1101831999999MW1801OC100871REMMET075ETEB 041740Z 18011G17KT 9000 -SHRA BR BKN060 OVC080 04/03 A3007 RMK CIG060;EQDQ01+000100PRSWM3Q02+000003PRSWM1Q03    003PRSWM1
0275107550999992000010418004+49320+010630FM-15+0467ETEB V0201801N006210180019N0090001N1+00301+00301999999ADDGD12991+0120099GD23991+0180099GD34991+0210099GF108991999999999999999999MA1101831999999MW1101MW2801OC100871REMMET122ETEB 041755Z 18012G17KT 9000 -SHRA BR FEW040 BKN060 OVC070 03/03 A3007 RMK PK WND 18019/21 SLPNO CIG060 60000 8/57/ 9/53/;EQDQ01+000003PRSWM1Q02    003PRSWM1
0262107550999992000010419004+49320+010630FM-15+0467ETEB V0201901N005710150019N0090001N1+00401+00301999999ADDGD12991+0090099GD23991+0150099GD34991+0210099GF108991999999999999999999MA1101861999999MW1101MW2611REMMET117METAR ETEB 041855Z 19011KT 9000 -RA BR SCT030 BKN050 OVC070 04/03 A3008 RMK PK WND 20018/29 SLPNO CIG050 8/57/ 9/62/;EQDQ01+000003PRSWM1Q02    003PRSWM1
0221107550999992000010419354+49320+010630FM-16+0467ETEB V0202001N006710075019N0090001N1+00401+00301999999ADDGD13991+0075099GD24991+0150099GF108991999999999999999999MA1101861999999MW1611OC101081REMMET073ETEB 041935Z 20013G21KT 9000 -RA BR BKN025 OVC050 04/03 A3008 RMK CIG025;EQDQ01+000100PRSWM3Q02+000003PRSWM1Q03    003PRSWM1
0245107550999992000010420004+49320+010630FM-15+0467ETEB V0202001N005710075019N0090001N1+00401+00301999999ADDGD13991+0075099GD24991+0150099GF108991999999999999999999MA1101861999999MW1101MW2611OC100771REMMET107ETEB 041955Z 20011G15KT 9000 -RA BR BKN025 OVC050 04/03 A3008 RMK PK WND 20021/33 SLPNO CIG025 8/5// 9/8//;EQDQ01+000003PRSWM1Q02    003PRSWM1
0201107550999992000010420204+49320+010630FM-15+0467ETEB V0202101N006710075019N0090001N1+00401+00401999999ADDGD13991+0075099GD24991+0150099GF108991999999999999999999MA1101861999999MW1101OC100931REMMET069ETEB 042020Z 21013G18KT 9000 BR BKN025 OVC050 04/04 A3008 RMK CIG025;EQDQ01+000003PRSWM1Q02    003PRSWM1
0213107550999992000010420304+49320+010630FM-15+0467ETEB V0202101N006710045019N0090001N1+00401+00401999999ADDGD13991+0045099GD24991+0090099GF108991999999999999999999MA1101861999999MW1101MW2801OC100981REMMET075ETEB 042030Z 21013G19KT 9000 -SHRA BR BKN015 OVC030 04/04 A3008 RMK CIG015;EQDQ01+000003PRSWM1Q02    003PRSWM1
0252107550999992000010420554+49320+010630FM-15+0467ETEB V0202101N008210045019N0090001N1+00401+00401999999ADDGD13991+0045099GD24991+0090099GF108991999999999999999999MA1101901999999MW1101MW2801OC101131REMMET114ETEB 042055Z 21016G22KT 9000 -SHRA BR BKN015 OVC030 04/04 A3009 RMK PK WND 23026/51 SLPNO CIG015 8/5// 9/8// LAST;EQDQ01+000003PRSWM1Q02    003PRSWM1
0244107550999992000010504554+49320+010630FM-15+0467ETEB V0202301N005710045019N0112651N1+00501+00501999999ADDGD12991+0024099GD23991+0045099GD34991+0150099GF108991999999999999999999MA1101961999999MW1001OC100821REMMET113ETEB 050455Z 23011G16KT 9999 FEW008 BKN015 OVC055 05/05 A3011 RMK PK WND 24018/00 SLPNO CIG015 8/5// 9/8// FIRST;EQDQ01+000000PRSWM2
0228107550999992000010506004+49320+010630FM-15+0467ETEB V0202401N007210060019N0112651N1+00501+00401999999ADDGD13991+0060099GD24991+0150099GF108991999999999999999999MA1102031999999MW1001OC100871REMMET112ETEB 050555Z 24014G17KT 9999 BKN020 OVC050 05/04 A3013 RMK PK WND 25019/40 SLPNO CIG020 6//// 70018 8/5// 9/8//;EQDQ01+000000PRSWM2
0221107550999992000010506054+49320+010630FM-16+0467ETEB V0202501N007210090019N0090001N1+00501+00401999999ADDGD13991+0090099GD24991+0150099GF108991999999999999999999MA1102071999999MW1611OC101131REMMET073ETEB 050605Z 25014G22KT 9000 -RA BR BKN030 OVC050 05/04 A3014 RMK CIG030;EQDQ01+000100PRSWM3Q02+000003PRSWM1Q03    003PRSWM1
0236107550999992000010506554+49320+010630FM-15+0467ETEB V0202601N007210120019N0112651N1+00401+00401999999ADDGD12991+0030099GD24991+0120099GF108991999999999999999999MA1102171999999MW1611OC101181REMMET104ETEB 050655Z 26014G23KT 9999 -RA FEW010 OVC040 04/04 A3017 RMK PK WND 26023/46 SLPNO CIG040 8/8// 9/8//;EQDQ01+000003PRSWM1Q02    003PRSWM1
0193107550999992000010507454+49320+010630FM-15+0467ETEB V0202601N003610150019N0112651N1+00301+00301999999ADDGD12991+0030099GD23991+0150099GD33991+0750099GF107991999999999999999999MA1102241999999MW1001REMMET070ETEB 050745Z 26007KT 9999 FEW010 BKN050 BKN250 03/03 A3019 RMK CIG050;EQDQ01+000000PRSWM2
0227107550999992000010507554+49320+010630FM-15+0467ETEB V0202601N003610150019N0112651N1+00301+00301999999ADDGD12991+0030099GD23991+0150099GD33991+0750099GF107991999999999999999999MA1102271999999MW1001REMMET104ETEB 050755Z 26007KT 9999 FEW010 BKN050 BKN250 03/03 A3020 RMK PK WND 26015/03 SLPNO CIG050 8/804 9/502;EQDQ01+000000PRSWM2
0205107550999992000010508554+49320+010630FM-15+0467ETEB V0202501N003610750019N0112651N1+00301+00301999999ADDGD12991+0150099GD23991+0750099GF107991999999999999999999MA1102341999999MW1001REMMET097ETEB 050855Z 25007KT 9999 SCT050 BKN250 03/03 A3022 RMK PK WND 28011/01 SLPNO CIG250 8/508 9/302;EQDQ01+000000PRSWM2
0205107550999992000010509554+49320+010630FM-15+0467ETEB V0202601N003610750019N0112651N1+00501+00401999999ADDGD12991+0150099GD23991+0750099GF107991999999999999999999MA1102401999999MW1001REMMET097ETEB 050955Z 26007KT 9999 SCT050 BKN250 05/04 A3024 RMK PK WND 27012/35 SLPNO CIG250 8/808 9/302;EQDQ01+000000PRSWM2
0227107550999992000010510554+49320+010630FM-15+0467ETEB V0202601N003610750019N0112651N1+00601+00401999999ADDGD12991+0030099GD22991+0150099GD33991+0750099GF107991999999999999999999MA1102371999999MW1001REMMET104ETEB 051055Z 26007KT 9999 FEW010 FEW050 BKN250 06/04 A3023 RMK PK WND 26011/24 SLPNO CIG250 8/808 9/205;EQDQ01+000000PRSWM2
0233107550999992000010511554+49320+010630FM-15+0467ETEB V0202201N004110750019N0112651N1+00601+00401999999ADDGD12991+0060099GD22991+0150099GD34991+0750099GF108991999999999999999999MA1102341999999MW1001REMMET110ETEB 051155Z 22008KT 9999 FEW020 FEW050 OVC250 06/04 A3022 RMK PK WND 25012/18 SLPNO CIG250 60002 8/808 9/206;EQDQ01+000000PRSWM2
0198107550999992000010512564+49320+010630FM-15+0467ETEB V0202401N004112200019N0112651N1+00601+00301999999ADDGD12991+0150099GD22991+0750099GF104991999999999999999999MA1102341999999MW1001REMMET090ETEB 051256Z 24008KT 9999 FEW050 SCT250 06/03 A3022 RMK PK WND 24012/50 SLPNO 8/508 9/202;EQDQ01+000000PRSWM2
0205107550999992000010513554+49320+010630FM-15+0467ETEB V0202101N003610750019N0112651N1+00601+00301999999ADDGD12991+0150099GD23991+0750099GF107991999999999999999999MA1102341999999MW1001REMMET097ETEB 051355Z 21007KT 9999 FEW050 BKN250 06/03 A3022 RMK PK WND 26011/34 SLPNO CIG250 8/508 9/205;EQDQ01+000000PRSWM2
0205107550999992000010514554+49320+010630FM-15+0467ETEB V0202001N002610750019N0112651N1+00501+00301999999ADDGD12991+0150099GD23991+0750099GF107991999999999999999999MA1102301999999MW1001REMMET097ETEB 051455Z 20005KT 9999 FEW050 BKN250 05/03 A3021 RMK PK WND 21011/09 SLPNO CIG250 8/508 9/204;EQDQ01+000000PRSWM2
0205107550999992000010515554+49320+010630FM-15+0467ETEB V0201401N003110750019N0112651N1+00401+00301999999ADDGD12991+0135099GD23991+0750099GF107991999999999999999999MA1102301999999MW1001REMMET097ETEB 051555Z 14006KT 9999 SCT045 BKN250 04/03 A3021 RMK PK WND 14007/54 SLPNO CIG250 8/508 9/303;EQDQ01+000000PRSWM2
0208107550999992000010516554+49320+010630FM-15+0467ETEB V0201201N003110750019N0112651N1+00301+00301999999ADDGD12991+0135099GD23991+0750099GF107991999999999999999999MA1102301999999MW1001REMMET100ETEB 051655Z 12006G07KT 9999 SCT045 BKN250 03/03 A3021 RMK PK WND 14011/41 SLPNO CIG250 8/508 9/302;EQDQ01+000000PRSWM2
0209107550999992000010517554+49320+010630FM-15+0467ETEB V0201201N003612200019N0112651N1+00301+00301999999ADDGD12991+0135099GD22991+0750099GF104991999999999999999999MA1102301999999MW1001OC100671REMMET093ETEB 051755Z 12007G13KT 9999 SCT045 SCT250 03/03 A3021 RMK PK WND 14015/17 SLPNO 8/501 9/301;EQDQ01+000000PRSWM2
0176107550999992000010518554+49320+010630FM-15+0467ETEB V0201501N003612200019N0112651N1+00201+00201999999ADDGD12991+0135099GF104991999999999999999999MA1102301999999MW1001REMMET083ETEB 051855Z 15007KT 9999 SCT045 02/02 A3021 RMK PK WND 10013/56 SLPNO 8/500 9/300;EQDQ01+000000PRSWM2
0198107550999992000010520004+49320+010630FM-15+0467ETEB V0201401N002612200019N0112651N1+00201+00201999999ADDGD12991+0120099GD22991+0270099GF102991999999999999999999MA1102301999999MW1001REMMET090ETEB 051955Z 14005KT 9999 FEW040 FEW090 02/02 A3021 RMK PK WND 14007/53 SLPNO 8/570 9/110;EQDQ01+000000PRSWM2
0179107550999992000010520254+49320+010630FM-15+0467ETEB V0201301N004112200019N0045001N1+00201+00201999999ADDGD12991+0120099GD22991+0270099GF102991999999999999999999MA1102271999999MW1101REMMET055ETEB 052025Z 13008KT 4500 BR FEW040 FEW090 02/02 A3020;EQDQ01+000003PRSWM1Q02    003PRSWM1
0222107550999992000010520554+49320+010630FM-15+0467ETEB V0201401N003112200019N0040001N1+00101+00101999999ADDGD12991+0120099GD22991+0270099GF102991999999999999999999MA1102271999999MW1101REMMET098ETEB 052055Z 14006KT 4000 BR FEW040 FEW090 01/01 A3020 RMK PK WND 14009/36 SLPNO 8/570 9/110 LAST;EQDQ01+000003PRSWM1Q02    003PRSWM1
0206107550999992000010605004+49320+010630FM-15+0467ETEB V0201701N005110003019N0008001N1+00201+00201999999ADDGD15991+0001599GF109991999999000251999999MA1102071999999MW1451OC100771REMMET089ETEB 060455Z 17010G15KT 0800 FG VV001 02/02 A3014 RMK PK WND 16015/45 SLPNO CIG001 FIRST;EQDQ01+000003PRSWM1Q02    003PRSWM1
0178107550999992000010605344+49320+010630FM-16+0467ETEB V0201601N005110003019N0005001N1+00201+00201999999ADDGD15991+0001599GF109991999999000251999999MA1102031999999MW1451OC100621REMMET061ETEB 060534Z 16010G12KT 0500 FG VV001 02/02 A3013 RMK CIG001;EQDQ01+000003PRSWM1Q02    003PRSWM1
0179107550999992000010605454+49320+010630FM-15+0467ETEB V0201601N005710006019N0010001N1+00201+00201999999ADDGD14991+0006099GF108991999999999999999999MA1102071999999MW1101OC100771REMMET062ETEB 060545Z 16011G15KT 1000 BR OVC002 02/02 A3014 RMK CIG002;EQDQ01+000003PRSWM1Q02    003PRSWM1
0225107550999992000010605554+49320+010630FM-15+0467ETEB V0201601N005710006019N0010001N1+00201+00201999999ADDGD14991+0006099GF108991999999999999999999MA1102071999999MW1101OC100771REMMET108ETEB 060555Z 16011G15KT 1000 BR OVC002 02/02 A3014 RMK PK WND 17017/16 SLPNO CIG002 6//// 70003 8/6// 9/8//;EQDQ01+000003PRSWM1Q02    003PRSWM1
0167107550999992000010606454+49320+010630FM-15+0467ETEB V0201501N004610003019N0003001N1+00201+00201999999ADDGD15991+0001599GF109991999999000251999999MA1102071999999MW1451REMMET058ETEB 060645Z 15009KT 0300 FG VV001 02/02 A3014 RMK CIG001;EQDQ01+000003PRSWM1Q02    003PRSWM1
0189107550999992000010606554+49320+010630FM-15+0467ETEB V0201501N004610003019N0003001N1+00201+00201999999ADDGD15991+0001599GF109991999999000251999999MA1102071999999MW1451REMMET080ETEB 060655Z 15009KT 0300 FG VV001 02/02 A3014 RMK PK WND 16013/32 SLPNO CIG001;EQDQ01+000003PRSWM1Q02    003PRSWM1
0189107550999992000010607554+49320+010630FM-15+0467ETEB V0201401N005110003019N0002001N1+00101+00101999999ADDGD15991+0001599GF109991999999000251999999MA1102131999999MW1451REMMET080ETEB 060755Z 14010KT 0200 FG VV001 01/01 A3016 RMK PK WND 13013/37 SLPNO CIG001;EQDQ01+000003PRSWM1Q02    003PRSWM1
0189107550999992000010608554+49320+010630FM-15+0467ETEB V0201401N004610003019N0002001N1+00101+00101999999ADDGD15991+0001599GF109991999999000251999999MA1102131999999MW1451REMMET080ETEB 060855Z 14009KT 0200 FG VV001 01/01 A3016 RMK PK WND 13013/36 SLPNO CIG001;EQDQ01+000003PRSWM1Q02    003PRSWM1
0202107550999992000010609554+49320+010630FM-15+0467ETEB V0201801N005110003019N0004001N1+00001+00001999999ADDGD15991+0001599GF109991999999000251999999MA1102171999999MW1491OC100721REMMET085ETEB 060955Z 18010G14KT 0400 FZFG VV001 00/00 A3017 RMK PK WND 17014/54 SLPNO CIG001;EQDQ01+000003PRSWM1Q02    003PRSWM1
0213107550999992000010610554+49320+010630FM-15+0467ETEB V0201701N005110003019N0004001N1+00001+00001999999ADDGD15991+0001599GF109991999999000251999999MA1102131999999MW1451OC100671REMMET096ETEB 061055Z COR 17010G13KT 0400 FG VV001 00/00 A3016 RMK PK WND 16016/19 SLPNO CIG001 COR 1122;EQDQ01+000003PRSWM1Q02    003PRSWM1
0189107550999992000010612004+49320+010630FM-15+0467ETEB V0201701N005110003019N0005001N1+00101+00101999999ADDGD15991+0001599GF109991999999000251999999MA1102171999999MW1451REMMET080ETEB 061155Z 17010KT 0500 FG VV001 01/01 A3017 RMK PK WND 17015/13 SLPNO CIG001;EQDQ01+000003PRSWM1Q02    003PRSWM1
0167107550999992000010612204+49320+010630FM-15+0467ETEB V0201701N004610012019N0006001N1+00101+00101999999ADDGD15991+0001599GF109991999999000251999999MA1102171999999MW1451REMMET058ETEB 061220Z 17009KT 0600 FG VV004 01/01 A3017 RMK CIG004;EQDQ01+000003PRSWM1Q02    003PRSWM1
0178107550999992000010612404+49320+010630FM-16+0467ETEB V0201701N004610021019N0012001N1+00201+00201999999ADDGD15991+0001599GF109991999999000251999999MA1102131999999MW1101OC100671REMMET061ETEB 061240Z 17009G13KT 1200 BR VV007 02/02 A3016 RMK CIG007;EQDQ01+000003PRSWM1Q02    003PRSWM1
0213107550999992000010613004+49320+010630FM-15+0467ETEB V0201601N004110009019N0020001N1+00201+00201999999ADDGD14991+0009099GF108991999999999999999999MA1102131999999MW1101OC100511REMMET096ETEB 061255Z 16008G10KT 2000 BR OVC003 02/02 A3016 RMK PK WND 17014/08 SLPNO CIG003 8/6// 9/8//;EQDQ01+000003PRSWM1Q02    003PRSWM1
0168107550999992000010613064+49320+010630FM-16+0467ETEB V0201601N003610009019N0040001N1+00201+00201999999ADDGD14991+0009099GF108991999999999999999999MA1102131999999MW1101REMMET059ETEB 061306Z 16007KT 4000 BR OVC003 02/02 A3016 RMK CIG003;EQDQ01+000003PRSWM1Q02    003PRSWM1
0168107550999992000010613204+49320+010630FM-15+0467ETEB V0201601N004110009019N0050001N1+00201+00201999999ADDGD14991+0009099GF108991999999999999999999MA1102101999999MW1101REMMET059ETEB 061320Z 16008KT 5000 BR OVC003 02/02 A3015 RMK CIG003;EQDQ01+000003PRSWM1Q02    003PRSWM1
0213107550999992000010613554+49320+010630FM-15+0467ETEB V0201601N004110009019N0050001N1+00201+00201999999ADDGD14991+0009099GF108991999999999999999999MA1102131999999MW1101OC100621REMMET096ETEB 061355Z 16008G12KT 5000 BR OVC003 02/02 A3016 RMK PK WND 19013/30 SLPNO CIG003 8/6// 9/8//;EQDQ01+000003PRSWM1Q02    003PRSWM1
0202107550999992000010615004+49320+010630FM-15+0467ETEB V0201601N004110009019N0050001N1+00201+00201999999ADDGD14991+0009099GF108991999999999999999999MA1102131999999MW1101REMMET093ETEB 061455Z 16008KT 5000 BR OVC003 02/02 A3016 RMK PK WND 14011/48 SLPNO CIG003 8/6// 9/8//;EQDQ01+000003PRSWM1Q02    003PRSWM1
0168107550999992000010615104+49320+010630FM-16+0467ETEB V0201601N005110006019N0030001N1+00201+00201999999ADDGD14991+0006099GF108991999999999999999999MA1102101999999MW1101REMMET059ETEB 061510Z 16010KT 3000 BR OVC002 02/02 A3015 RMK CIG002;EQDQ01+000003PRSWM1Q02    003PRSWM1
0168107550999992000010615204+49320+010630FM-15+0467ETEB V0201501N005710006019N0010001N1+00201+00201999999ADDGD14991+0006099GF108991999999999999999999MA1102131999999MW1101REMMET059ETEB 061520Z 15011KT 1000 BR OVC002 02/02 A3016 RMK CIG002;EQDQ01+000003PRSWM1Q02    003PRSWM1
0168107550999992000010615254+49320+010630FM-15+0467ETEB V0201501N005710003019N0006001N1+00201+00201999999ADDGD14991+0003099GF108991999999999999999999MA1102131999999MW1441REMMET059ETEB 061525Z 15011KT 0600 FG OVC001 02/02 A3016 RMK CIG001;EQDQ01+000003PRSWM1Q02    003PRSWM1
0207107550999992000010615554+49320+010630FM-15+0467ETEB V0201701N004610003019N0005001N1+00201+00201999999ADDGD14991+0003099GF108991999999999999999999MA1102131999999MW1441REMMET098ETEB 061555Z 17009KT 0500 FG OVC001 02/02 A3016 RMK PK WND 14015/17 SLPNO CIG001 8/6// 9/8// LAST;EQDQ01+000003PRSWM1Q02    003PRSWM1
0218107550999992000010704554+49320+010630FM-15+0467ETEB V0201901N004110045019N0080001N1+00301+00301999999ADDGD14991+0045099GF108991999999999999999999MA1102341999999MW1101MW2611REMMET103ETEB 070455Z 19008KT 8000 -RA BR OVC015 03/03 A3022 RMK PK WND 19010/48 SLPNO CIG015 8/6// 9/8// FIRST;EQDQ01+000003PRSWM1Q02    003PRSWM1
0224107550999992000010706004+49320+010630FM-15+0467ETEB V0201801N004110045019N0080001N1+00301+00301999999ADDGD14991+0045099GF108991999999999999999999MA1102371999999MW1101MW2611REMMET109ETEB 070555Z 18008KT 8000 -RA BR OVC015 03/03 A3023 RMK PK WND 19012/13 SLPNO CIG015 6//// 70001 8/6// 9/8//;EQDQ01+000003PRSWM1Q02    003PRSWM1
0168107550999992000010706304+49320+010630FM-15+0467ETEB V0201901N003110030019N0080001N1+00301+00301999999ADDGD14991+0030099GF108991999999999999999999MA1102401999999MW1101REMMET059ETEB 070630Z 19006KT 8000 BR OVC010 03/03 A3024 RMK CIG010;EQDQ01+000003PRSWM1Q02    003PRSWM1
0202107550999992000010707004+49320+010630FM-15+0467ETEB V0201801N002610030019N0090001N1+00301+00301999999ADDGD14991+0030099GF108991999999999999999999MA1102401999999MW1101REMMET093ETEB 070655Z 18005KT 9000 BR OVC010 03/03 A3024 RMK PK WND 19009/15 SLPNO CIG010 8/5// 9/8//;EQDQ01+000003PRSWM1Q02    003PRSWM1
0168107550999992000010707234+49320+010630FM-16+0467ETEB V02099999999990024019N0080001N1+00301+00301999999ADDGD14991+0024099GF108991999999999999999999MA1102441999999MW1101REMMET059ETEB 070723Z VRB05KT 8000 BR OVC008 03/03 A3025 RMK CIG008;EQDQ01+000003PRSWM1Q02    003PRSWM1
0202107550999992000010708004+49320+010630FM-15+0467ETEB V0202101N002110021019N0080001N1+00301+00301999999ADDGD14991+0021099GF108991999999999999999999MA1102471999999MW1101REMMET093ETEB 070755Z 21004KT 8000 BR OVC007 03/03 A3026 RMK PK WND 19008/33 SLPNO CIG007 8/5// 9/8//;EQDQ01+000003PRSWM1Q02    003PRSWM1
0168107550999992000010708254+49320+010630FM-15+0467ETEB V0202101N003610012019N0032001N1+00301+00301999999ADDGD14991+0012099GF108991999999999999999999MA1102511999999MW1101REMMET059ETEB 070825Z 21007KT 3200 BR OVC004 03/03 A3027 RMK CIG004;EQDQ01+000003PRSWM1Q02    003PRSWM1
0168107550999992000010708454+49320+010630FM-15+0467ETEB V0201901N003610006019N0020001N1+00301+00301999999ADDGD14991+0006099GF108991999999999999999999MA1102511999999MW1101REMMET059ETEB 070845Z 19007KT 2000 BR OVC002 03/03 A3027 RMK CIG002;EQDQ01+000003PRSWM1Q02    003PRSWM1
0202107550999992000010709004+49320+010630FM-15+0467ETEB V0201901N003610006019N0020001N1+00301+00301999999ADDGD14991+0006099GF108991999999999999999999MA1102511999999MW1101REMMET093ETEB 070855Z 19007KT 2000 BR OVC002 03/03 A3027 RMK PK WND 20010/34 SLPNO CIG002 8/6// 9/8//;EQDQ01+000003PRSWM1Q02    003PRSWM1
0168107550999992000010709204+49320+010630FM-15+0467ETEB V0201901N002610006019N0010001N1+00301+00301999999ADDGD14991+0006099GF108991999999999999999999MA1102541999999MW1101REMMET059ETEB 070920Z 19005KT 1000 BR OVC002 03/03 A3028 RMK CIG002;EQDQ01+000003PRSWM1Q02    003PRSWM1
0168107550999992000010709454+49320+010630FM-15+0467ETEB V0202101N002610006019N0005001N1+00301+00301999999ADDGD14991+0006099GF108991999999999999999999MA1102541999999MW1441REMMET059ETEB 070945Z 21005KT 0500 FG OVC002 03/03 A3028 RMK CIG002;EQDQ01+000003PRSWM1Q02    003PRSWM1
0202107550999992000010710004+49320+010630FM-15+0467ETEB V0202101N002610006019N0005001N1+00301+00301999999ADDGD14991+0006099GF108991999999999999999999MA1102541999999MW1441REMMET093ETEB 070955Z 21005KT 0500 FG OVC002 03/03 A3028 RMK PK WND 19009/06 SLPNO CIG002 8/6// 9/8//;EQDQ01+000003PRSWM1Q02    003PRSWM1
0168107550999992000010710104+49320+010630FM-16+0467ETEB V0202001N002610003019N0004001N1+00301+00301999999ADDGD14991+0003099GF108991999999999999999999MA1102541999999MW1441REMMET059ETEB 071010Z 20005KT 0400 FG OVC001 03/03 A3028 RMK CIG001;EQDQ01+000003PRSWM1Q02    003PRSWM1
0202107550999992000010710554+49320+010630FM-15+0467ETEB V0201801N002610003019N0004001N1+00401+00401999999ADDGD14991+0003099GF108991999999999999999999MA1102511999999MW1441REMMET093ETEB 071055Z 18005KT 0400 FG OVC001 04/04 A3027 RMK PK WND 19007/40 SLPNO CIG001 8/6// 9/8//;EQDQ01+000003PRSWM1Q02    003PRSWM1
0208107550999992000010712004+49320+010630FM-15+0467ETEB V0202001N002610003019N0004001N1+00401+00401999999ADDGD14991+0003099GF108991999999999999999999MA1102441999999MW1441REMMET099ETEB 071155Z 20005KT 0400 FG OVC001 04/04 A3025 RMK PK WND 20010/24 SLPNO CIG001 60000 8/6// 9/8//;EQDQ01+000003PRSWM1Q02    003PRSWM1
0168107550999992000010712434+49320+010630FM-16+0467ETEB V0201801N002610006019N0009001N1+00401+00401999999ADDGD14991+0006099GF108991999999999999999999MA1102401999999MW1441REMMET059ETEB 071243Z 18005KT 0900 FG OVC002 04/04 A3024 RMK CIG002;EQDQ01+000003PRSWM1Q02    003PRSWM1
0202107550999992000010713004+49320+010630FM-15+0467ETEB V0201901N002610006019N0010001N1+00401+00401999999ADDGD14991+0006099GF108991999999999999999999MA1102401999999MW1101REMMET093ETEB 071255Z 19005KT 1000 BR OVC002 04/04 A3024 RMK PK WND 20008/18 SLPNO CIG002 8/6// 9/8//;EQDQ01+000003PRSWM1Q02    003PRSWM1
0168107550999992000010713154+49320+010630FM-16+0467ETEB V0202101N003610009019N0020001N1+00401+00401999999ADDGD14991+0009099GF108991999999999999999999MA1102401999999MW1101REMMET059ETEB 071315Z 21007KT 2000 BR OVC003 04/04 A3024 RMK CIG003;EQDQ01+000003PRSWM1Q02    003PRSWM1
0202107550999992000010714004+49320+010630FM-15+0467ETEB V0202101N002110012019N0030001N1+00401+00401999999ADDGD14991+0012099GF108991999999999999999999MA1102401999999MW1101REMMET093ETEB 071356Z 21004KT 3000 BR OVC004 04/04 A3024 RMK PK WND 21008/13 SLPNO CIG004 8/6// 9/8//;EQDQ01+000003PRSWM1Q02    003PRSWM1
0168107550999992000010714174+49320+010630FM-16+0467ETEB V0201701N003110012019N0042001N1+00401+00401999999ADDGD14991+0012099GF108991999999999999999999MA1102401999999MW1101REMMET059ETEB 071417Z 17006KT 4200 BR OVC004 04/04 A3024 RMK CIG004;EQDQ01+000003PRSWM1Q02    003PRSWM1
0202107550999992000010715004+49320+010630FM-15+0467ETEB V0201901N003110012019N0042001N1+00401+00401999999ADDGD14991+0012099GF108991999999999999999999MA1102401999999MW1101REMMET093ETEB 071455Z 19006KT 4200 BR OVC004 04/04 A3024 RMK PK WND 19008/55 SLPNO CIG004 8/6// 9/8//;EQDQ01+000003PRSWM1Q02    003PRSWM1
0168107550999992000010715404+49320+010630FM-16+0467ETEB V0201901N001510012019N0022001N1+00401+00401999999ADDGD14991+0012099GF108991999999999999999999MA1102401999999MW1101REMMET059ETEB 071540Z 19003KT 2200 BR OVC004 04/04 A3024 RMK CIG004;EQDQ01+000003PRSWM1Q02    003PRSWM1
0202107550999992000010715554+49320+010630FM-15+0467ETEB V0202001N001510012019N0020001N1+00401+00401999999ADDGD14991+0012099GF108991999999999999999999MA1102401999999MW1101REMMET093ETEB 071555Z 20003KT 2000 BR OVC004 04/04 A3024 RMK PK WND 18009/10 SLPNO CIG004 8/6// 9/8//;EQDQ01+000003PRSWM1Q02    003PRSWM1
0207107550999992000010716554+49320+010630FM-15+0467ETEB V0201701N003610009019N0020001N1+00401+00401999999ADDGD14991+0009099GF108991999999999999999999MA1102371999999MW1101REMMET098ETEB 071655Z 17007KT 2000 BR OVC003 04/04 A3023 RMK PK WND 16011/51 SLPNO CIG003 8/6// 9/8// LAST;EQDQ01+000003PRSWM1Q02    003PRSWM1
0208107550999992000011004554+49320+010630FM-15+0467ETEB V0200201N003610006019N0020001N1+00001+00001999999ADDGD14991+0006099GF108991999999999999999999MA1102881999999MW1101REMMET099ETEB 100455Z 02007KT 2000 BR OVC002 00/00 A3038 RMK PK WND 36009/52 SLPNO CIG002 8/6// 9/8// FIRST;EQDQ01+000003PRSWM1Q02    003PRSWM1
0272107550999992000011006004+49320+010630FM-15+0467ETEB V0200201N003610006019N0020001N1+00001+00001999999ADDAA199001591GD13991+0006099GD24991+0036099GF108991999999999999999999MA1102951999999MW1101REMMET137METAR ETEB 100555Z COR 02007KT 2000 BR BKN002 OVC012 00/00 A3040 RMK PK WND 02009/40 SLPNO CIG002 6//// 70006 E72HR 8/6// 9/8// COR 0648;EQDQ01+000003PRSWM1Q02    003PRSWM1
0224107550999992000011007004+49320+010630FM-15+0467ETEB V0200201N004110006019N0016001N1+00101+00101999999ADDGD13991+0006099GD24991+0036099GF108991999999999999999999MA1103011999999MW1101REMMET100ETEB 100655Z 02008KT 1600 BR BKN002 OVC012 01/01 A3042 RMK PK WND 02010/47 SLPNO CIG002 8/6// 9/8//;EQDQ01+000003PRSWM1Q02    003PRSWM1
0190107550999992000011007254+49320+010630FM-15+0467ETEB V0200301N003610006019N0005001N1+00101+00101999999ADDGD13991+0006099GD24991+0036099GF108991999999999999999999MA1103051999999MW1441REMMET066ETEB 100725Z 03007KT 0500 FG BKN002 OVC012 01/01 A3043 RMK CIG002;EQDQ01+000003PRSWM1Q02    003PRSWM1
0224107550999992000011007564+49320+010630FM-15+0467ETEB V0200301N004110006019N0005001N1+00101+00101999999ADDGD13991+0006099GD24991+0036099GF108991999999999999999999MA1103081999999MW1441REMMET100ETEB 100756Z 03008KT 0500 FG BKN002 OVC012 01/01 A3044 RMK PK WND 04012/44 SLPNO CIG002 8/6// 9/8//;EQDQ01+000003PRSWM1Q02    003PRSWM1
0190107550999992000011008484+49320+010630FM-16+0467ETEB V0200301N004110006019N0012001N1+00101+00101999999ADDGD13991+0006099GD24991+0036099GF108991999999999999999999MA1103121999999MW1101REMMET066ETEB 100848Z 03008KT 1200 BR BKN002 OVC012 01/01 A3045 RMK CIG002;EQDQ01+000003PRSWM1Q02    003PRSWM1
0224107550999992000011009004+49320+010630FM-15+0467ETEB V0200401N004610006019N0012001N1+00101+00101999999ADDGD13991+0006099GD24991+0036099GF108991999999999999999999MA1103121999999MW1101REMMET100ETEB 100858Z 04009KT 1200 BR BKN002 OVC012 01/01 A3045 RMK PK WND 05012/54 SLPNO CIG002 8/6// 9/8//;EQDQ01+000003PRSWM1Q02    003PRSWM1
0210107550999992000011009354+49320+010630FM-16+0467ETEB V0200301N005710006019N0016001N1+00101+00101999999ADDGD13991+0006099GD24991+0036099GF108991999999999999999999MA1103181999999MW1511REMMET070ETEB 100935Z 03011KT 1600 -DZ BR BKN002 OVC012 01/01 A3047 RMK CIG002;EQDQ01+000100PRSWM3Q02+000003PRSWM1Q03    003PRSWM1
0234107550999992000011009574+49320+010630FM-15+0467ETEB V0200401N004110006019N0016001N1+00101+00101999999ADDGD13991+0006099GD24991+0036099GF108991999999999999999999MA1103181999999MW1101MW2511REMMET104ETEB 100957Z 04008KT 1600 -DZ BR BKN002 OVC012 01/01 A3047 RMK PK WND 03014/33 SLPNO CIG002 8/6// 9/8//;EQDQ01+000003PRSWM1Q02    003PRSWM1
0234107550999992000011010554+49320+010630FM-15+0467ETEB V0200401N004610006019N0020001N1+00101+00101999999ADDGD13991+0006099GD24991+0024099GF108991999999999999999999MA1103221999999MW1101MW2511REMMET104ETEB 101055Z 04009KT 2000 -DZ BR BKN002 OVC008 01/01 A3048 RMK PK WND 05012/03 SLPNO CIG002 8/6// 9/8//;EQDQ01+000003PRSWM1Q02    003PRSWM1
0240107550999992000011012004+49320+010630FM-15+0467ETEB V0200401N003610006019N0020001N1+00201+00201999999ADDGD13991+0006099GD24991+0024099GF108991999999999999999999MA1103221999999MW1101MW2511REMMET110ETEB 101155Z 04007KT 2000 -DZ BR BKN002 OVC008 02/02 A3048 RMK PK WND 03011/38 SLPNO CIG002 60002 8/6// 9/8//;EQDQ01+000003PRSWM1Q02    003PRSWM1
0200107550999992000011012254+49320+010630FM-15+0467ETEB V0200301N003610006019N0040001N1+00201+00201999999ADDGD13991+0006099GD24991+0024099GF108991999999999999999999MA1103181999999MW1101MW2511REMMET070ETEB 101225Z 03007KT 4000 -DZ BR BKN002 OVC008 02/02 A3047 RMK CIG002;EQDQ01+000003PRSWM1Q02    003PRSWM1
0234107550999992000011014004+49320+010630FM-15+0467ETEB V0200401N004110006019N0040001N1+00201+00201999999ADDGD13991+0006099GD24991+0024099GF108991999999999999999999MA1103221999999MW1101MW2511REMMET104ETEB 101355Z 04008KT 4000 -DZ BR BKN002 OVC008 02/02 A3048 RMK PK WND 04012/44 SLPNO CIG002 8/6// 9/8//;EQDQ01+000003PRSWM1Q02    003PRSWM1
0200107550999992000011014304+49320+010630FM-15+0467ETEB V0200401N004610015019N0040001N1+00201+00201999999ADDGD13991+0015099GD24991+0024099GF108991999999999999999999MA1103251999999MW1101MW2511REMMET070ETEB 101430Z 04009KT 4000 -DZ BR BKN005 OVC008 02/02 A3049 RMK CIG005;EQDQ01+000003PRSWM1Q02    003PRSWM1
0234107550999992000011015004+49320+010630FM-15+0467ETEB V0200401N004610015019N0040001N1+00201+00201999999ADDGD13991+0015099GD24991+0024099GF108991999999999999999999MA1103291999999MW1101MW2511REMMET104ETEB 101455Z 04009KT 4000 -DZ BR BKN005 OVC008 02/02 A3050 RMK PK WND 04013/11 SLPNO CIG005 8/6// 9/8//;EQDQ01+000003PRSWM1Q02    003PRSWM1
0234107550999992000011015554+49320+010630FM-15+0467ETEB V0200501N004610015019N0040001N1+00201+00201999999ADDGD13991+0015099GD24991+0036099GF108991999999999999999999MA1103291999999MW1101MW2511REMMET104ETEB 101555Z 05009KT 4000 -DZ BR BKN005 OVC012 02/02 A3050 RMK PK WND 05012/54 SLPNO CIG005 8/6// 9/8//;EQDQ01+000003PRSWM1Q02    003PRSWM1
0234107550999992000011017004+49320+010630FM-15+0467ETEB V0200601N004110015019N0040001N1+00101+00101999999ADDGD13991+0015099GD24991+0036099GF108991999999999999999999MA1103321999999MW1101MW2511REMMET104ETEB 101655Z 06008KT 4000 -DZ BR BKN005 OVC012 01/01 A3051 RMK PK WND 05012/03 SLPNO CIG005 8/6// 9/8//;EQDQ01+000003PRSWM1Q02    003PRSWM1
0222107550999992000011017254+49320+010630FM-15+0467ETEB V0200501N003610036019N0060001N1+00101+00101999999ADDGD12991+0015099GD23991+0036099GD34991+0210099GF108991999999999999999999MA1103351999999MW1101MW2511REMMET077ETEB 101725Z 05007KT 6000 -DZ BR SCT005 BKN012 OVC070 01/01 A3052 RMK CIG012;EQDQ01+000003PRSWM1Q02    003PRSWM1
0234107550999992000011017564+49320+010630FM-15+0467ETEB V0200201N004110030019N0060001N1+00101+00101999999ADDGD12991+0015099GD24991+0030099GF108991999999999999999999MA1103351999999MW1101MW2511REMMET104ETEB 101756Z 02008KT 6000 -DZ BR SCT005 OVC010 01/01 A3052 RMK PK WND 06011/57 SLPNO CIG010 8/6// 9/8//;EQDQ01+000003PRSWM1Q02    003PRSWM1
0234107550999992000011020004+49320+010630FM-15+0467ETEB V0200401N004610015019N0060001N1+00101+00101999999ADDGD13991+0015099GD24991+0030099GF108991999999999999999999MA1103451999999MW1101MW2511REMMET104ETEB 101955Z 04009KT 6000 -DZ BR BKN005 OVC010 01/01 A3055 RMK PK WND 04011/48 SLPNO CIG005 8/6// 9/8//;EQDQ01+000003PRSWM1Q02    003PRSWM1
0200107550999992000011020454+49320+010630FM-15+0467ETEB V0200501N004110015019N0040001N1+00101+00101999999ADDGD13991+0015099GD24991+0030099GF108991999999999999999999MA1103451999999MW1101MW2511REMMET070ETEB 102045Z 05008KT 4000 -DZ BR BKN005 OVC010 01/01 A3055 RMK CIG005;EQDQ01+000003PRSWM1Q02    003PRSWM1
0239107550999992000011021004+49320+010630FM-15+0467ETEB V0200501N004110015019N0040001N1+00101+00101999999ADDGD13991+0015099GD24991+0030099GF108991999999999999999999MA1103451999999MW1101MW2511REMMET109ETEB 102055Z 05008KT 4000 -DZ BR BKN005 OVC010 01/01 A3055 RMK PK WND 05011/12 SLPNO CIG005 8/6// 9/8// LAST;EQDQ01+000003PRSWM1Q02    003PRSWM1
0230107550999992000011104554+49320+010630FM-15+0467ETEB V0201001N002610030019N0040001N1+00101+00101999999ADDGD13991+0030099GD24991+0060099GF108991999999999999999999MA1103561999999MW1101REMMET106ETEB 110455Z 10005KT 4000 BR BKN010 OVC020 01/01 A3058 RMK PK WND 10007/48 SLPNO CIG010 8/6// 9/8// FIRST;EQDQ01+000003PRSWM1Q02    003PRSWM1
0236107550999992000011105554+49320+010630FM-15+0467ETEB V0201001N003110030019N0040001N1+00101+00101999999ADDGD13991+0030099GD24991+0060099GF108991999999999999999999MA1103621999999MW1101REMMET112ETEB 110555Z 10006KT 4000 BR BKN010 OVC020 01/01 A3060 RMK PK WND 08009/16 SLPNO CIG010 6//// 70003 8/6// 9/8//;EQDQ01+000003PRSWM1Q02    003PRSWM1
0224107550999992000011106554+49320+010630FM-15+0467ETEB V0201001N003110030019N0040001N1+00101+00101999999ADDGD13991+0030099GD24991+0060099GF108991999999999999999999MA1103661999999MW1101REMMET100ETEB 110655Z 10006KT 4000 BR BKN010 OVC020 01/01 A3061 RMK PK WND 11008/01 SLPNO CIG010 8/6// 9/8//;EQDQ01+000003PRSWM1Q02    003PRSWM1
0224107550999992000011108004+49320+010630FM-15+0467ETEB V0201101N002610030019N0040001N1+00101+00101999999ADDGD13991+0030099GD24991+0060099GF108991999999999999999999MA1103691999999MW1101REMMET100ETEB 110755Z 11005KT 4000 BR BKN010 OVC020 01/01 A3062 RMK PK WND 13012/24 SLPNO CIG010 8/6// 9/8//;EQDQ01+000003PRSWM1Q02    003PRSWM1
0190107550999992000011108394+49320+010630FM-16+0467ETEB V0201301N003610045019N0040001N1+00101+00101999999ADDGD13991+0045099GD24991+0060099GF108991999999999999999999MA1103691999999MW1101REMMET066ETEB 110839Z 13007KT 4000 BR BKN015 OVC020 01/01 A3062 RMK CIG015;EQDQ01+000003PRSWM1Q02    003PRSWM1
0224107550999992000011108554+49320+010630FM-15+0467ETEB V0201301N003110045019N0040001N1+00101+00101999999ADDGD13991+0045099GD24991+0060099GF108991999999999999999999MA1103691999999MW1101REMMET100ETEB 110855Z 13006KT 4000 BR BKN015 OVC020 01/01 A3062 RMK PK WND 13011/50 SLPNO CIG015 8/6// 9/8//;EQDQ01+000003PRSWM1Q02    003PRSWM1
0224107550999992000011109554+49320+010630FM-15+0467ETEB V0201101N003610045019N0040001N1+00101+00101999999ADDGD13991+0045099GD24991+0060099GF108991999999999999999999MA1103691999999MW1101REMMET100ETEB 110955Z 11007KT 4000 BR BKN015 OVC020 01/01 A3062 RMK PK WND 13010/28 SLPNO CIG015 8/6// 9/8//;EQDQ01+000003PRSWM1Q02    003PRSWM1
0212107550999992000011110474+49320+010630FM-16+0467ETEB V0201201N003610060019N0060001N1+00201+00101999999ADDGD13991+0060099GD23991+0120099GD34991+0600099GF108991999999999999999999MA1103661999999MW1101REMMET073ETEB 111047Z 12007KT 6000 BR BKN020 BKN040 OVC200 02/01 A3061 RMK CIG020;EQDQ01+000003PRSWM1Q02    003PRSWM1
0230107550999992000011110554+49320+010630FM-15+0467ETEB V0201201N003110060019N0060001N1+00201+00101999999ADDGD13991+0060099GD23991+0120099GD33991+0600099GF107991999999999999999999MA1103661999999MW1101REMMET091ETEB 111055Z 12006KT 6000 BR BKN020 BKN040 BKN200 02/01 A3061 RMK SLPNO CIG020 8/502 9/602;EQDQ01+000003PRSWM1Q02    003PRSWM1
0232107550999992000011112004+49320+010630FM-15+0467ETEB V0201001N004610060019N0080001N1+00201+00101999999ADDGD13991+0060099GD24991+0120099GF108991999999999999999999MA1103621999999MW1101OC100671REMMET100ETEB 111155Z COR 10009G13KT 8000 BR BKN020 OVC040 02/01 A3060 RMK SLPNO CIG020 8/5// 9/8// COR 1250;EQDQ01+000003PRSWM1Q02    003PRSWM1
0224107550999992000011112554+49320+010630FM-15+0467ETEB V0200901N003610060019N0080001N1+00201+00001999999ADDGD12991+0045099GD24991+0060099GF108991999999999999999999MA1103621999999MW1101REMMET100ETEB 111255Z 09007KT 8000 BR SCT015 OVC020 02/00 A3060 RMK PK WND 10013/12 SLPNO CIG020 8/5// 9/8//;EQDQ01+000003PRSWM1Q02    003PRSWM1
0217107550999992000011113554+49320+010630FM-15+0467ETEB V0201101N004110060019N0112651N1+00201+00001999999ADDGD12991+0045099GD24991+0060099GF108991999999999999999999MA1103661999999MW1001OC100671REMMET101ETEB 111355Z 11008G13KT 9999 SCT015 OVC020 02/M00 A3061 RMK PK WND 10013/15 SLPNO CIG020 8/5// 9/8//;EQDQ01+000000PRSWM2
0205107550999992000011114554+49320+010630FM-15+0467ETEB V02099999999990060019N0112651N1+00201+00001999999ADDGD12991+0030099GD24991+0060099GF108991999999999999999999MA1103621999999MW1001REMMET097ETEB 111455Z VRB06KT 9999 FEW010 OVC020 02/00 A3060 RMK PK WND 14012/07 SLPNO CIG020 8/5// 9/8//;EQDQ01+000000PRSWM2
0202107550999992000011115354+49320+010630FM-16+0467ETEB V0201101N003610045019N0090001N1+00101+00001999999ADDGD12991+0030099GD24991+0045099GF108991999999999999999999MA1103621999999MW1101OC100621REMMET070ETEB 111535Z 11007G12KT 9000 BR FEW010 OVC015 01/M00 A3060 RMK CIG015;EQDQ01+000003PRSWM1Q02    003PRSWM1
0225107550999992000011115554+49320+010630FM-15+0467ETEB V0200901N003610045019N0080001N1+00101+00001999999ADDGD12991+0030099GD24991+0045099GF108991999999999999999999MA1103621999999MW1101REMMET101ETEB 111555Z 09007KT 8000 BR FEW010 OVC015 01/M00 A3060 RMK PK WND 14015/18 SLPNO CIG015 8/5// 9/8//;EQDQ01+000003PRSWM1Q02    003PRSWM1
0249107550999992000011116554+49320+010630FM-15+0467ETEB V0201201N003610045019N0080001N1+00101+00001999999ADDGD12991+0030099GD24991+0045099GF108991999999999999999999MA1103661999999MW1101OC100721REMMET117ETEB 111655Z COR 12007G14KT 8000 BR FEW010 OVC015 01/M00 A3061 RMK PK WND 12014/47 SLPNO CIG015 8/5// 9/8// COR 1658;EQDQ01+000003PRSWM1Q02    003PRSWM1
0203107550999992000011117554+49320+010630FM-15+0467ETEB V0201001N002610045019N0080001N1+00101+00001999999ADDGD14991+0045099GF108991999999999999999999MA1103661999999MW1101REMMET094ETEB 111755Z 10005KT 8000 BR OVC015 01/M00 A3061 RMK PK WND 15011/01 SLPNO CIG015 8/5// 9/8//;EQDQ01+000003PRSWM1Q02    003PRSWM1
0203107550999992000011118554+49320+010630FM-15+0467ETEB V0201301N003110045019N0080001N1+00101+00001999999ADDGD14991+0045099GF108991999999999999999999MA1103621999999MW1101REMMET094ETEB 111855Z 13006KT 8000 BR OVC015 01/M00 A3060 RMK PK WND 12011/37 SLPNO CIG015 8/5// 9/8//;EQDQ01+000003PRSWM1Q02    003PRSWM1
0203107550999992000011119554+49320+010630FM-15+0467ETEB V0201001N003110045019N0080001N1+00101-00101999999ADDGD14991+0045099GF108991999999999999999999MA1103621999999MW1101REMMET094ETEB 111955Z 10006KT 8000 BR OVC015 01/M01 A3060 RMK PK WND 12012/03 SLPNO CIG015 8/5// 9/8//;EQDQ01+000003PRSWM1Q02    003PRSWM1
0208107550999992000011120554+49320+010630FM-15+0467ETEB V0201001N003110045019N0080001N1+00001-00101999999ADDGD14991+0045099GF108991999999999999999999MA1103621999999MW1101REMMET099ETEB 112055Z 10006KT 8000 BR OVC015 00/M01 A3060 RMK PK WND 11012/18 SLPNO CIG015 8/5// 9/8// LAST;EQDQ01+000003PRSWM1Q02    003PRSWM1
0214107550999992000011206004+49320+010630FM-15+0467ETEB V0200901N003610033019N0080001N1-00201-00201999999ADDGD14991+0033099GF108991999999999999999999MA1103291999999MW1101REMMET105ETEB 120555Z COR 09007KT 8000 BR OVC011 M02/M02 A3050 RMK PK WND 10011/29 SLPNO CIG011 8/5// 9/8// FIRST;EQDQ01+000003PRSWM1Q02    003PRSWM1
0215107550999992000011206554+49320+010630FM-15+0467ETEB V0201101N004610033019N0060001N1-00201-00201999999ADDGD14991+0033099GF108991999999999999999999MA1103291999999MW1101OC100571REMMET098ETEB 120655Z 11009G11KT 6000 BR OVC011 M02/M02 A3050 RMK PK WND 13014/46 SLPNO CIG011 8/5// 9/8//;EQDQ01+000003PRSWM1Q02    003PRSWM1
0226107550999992000011207584+49320+010630FM-15+0467ETEB V0201101N003610033019N0060001N1-00201-00201999999ADDGD12991+0021099GD24991+0033099GF108991999999999999999999MA1103291999999MW1101REMMET102ETEB 120758Z 11007KT 6000 BR SCT007 OVC011 M02/M02 A3050 RMK PK WND 10013/35 SLPNO CIG011 8/5// 9/8//;EQDQ01+000003PRSWM1Q02    003PRSWM1
0226107550999992000011208554+49320+010630FM-15+0467ETEB V0201301N003110033019N0060001N1-00201-00201999999ADDGD12991+0021099GD24991+0033099GF108991999999999999999999MA1103291999999MW1101REMMET102ETEB 120855Z 13006KT 6000 BR FEW007 OVC011 M02/M02 A3050 RMK PK WND 10012/36 SLPNO CIG011 8/5// 9/8//;EQDQ01+000003PRSWM1Q02    003PRSWM1
0226107550999992000011210004+49320+010630FM-15+0467ETEB V0201401N004610033019N0080001N1-00301-00301999999ADDGD12991+0021099GD24991+0033099GF108991999999999999999999MA1103251999999MW1101REMMET102ETEB 120956Z 14009KT 8000 BR FEW007 OVC011 M03/M03 A3049 RMK PK WND 15016/44 SLPNO CIG011 8/5// 9/8//;EQDQ01+000003PRSWM1Q02    003PRSWM1
0226107550999992000011211004+49320+010630FM-15+0467ETEB V0200901N004610033019N0080001N1-00201-00301999999ADDGD12991+0021099GD24991+0033099GF108991999999999999999999MA1103181999999MW1101REMMET102ETEB 121058Z 09009KT 8000 BR FEW007 OVC011 M02/M03 A3047 RMK PK WND 09014/13 SLPNO CIG011 8/5// 9/8//;EQDQ01+000003PRSWM1Q02    003PRSWM1
0226107550999992000011212004+49320+010630FM-15+0467ETEB V0201001N004110033019N0080001N1-00201-00301999999ADDGD12991+0021099GD24991+0033099GF108991999999999999999999MA1103121999999MW1101REMMET102ETEB 121158Z 10008KT 8000 BR FEW007 OVC011 M02/M03 A3045 RMK PK WND 11012/21 SLPNO CIG011 8/5// 9/8//;EQDQ01+000003PRSWM1Q02    003PRSWM1
0226107550999992000011212554+49320+010630FM-15+0467ETEB V0201401N003110033019N0080001N1-00201-00301999999ADDGD12991+0021099GD24991+0033099GF108991999999999999999999MA1103051999999MW1101REMMET102ETEB 121255Z 14006KT 8000 BR SCT007 OVC011 M02/M03 A3043 RMK PK WND 10014/14 SLPNO CIG011 8/5// 9/8//;EQDQ01+000003PRSWM1Q02    003PRSWM1
0237107550999992000011213554+49320+010630FM-15+0467ETEB V0201201N004110033019N0080001N1-00201-00301999999ADDGD12991+0021099GD24991+0033099GF108991999999999999999999MA1102981999999MW1101OC100721REMMET105ETEB 121355Z 12008G14KT 8000 BR SCT007 OVC011 M02/M03 A3041 RMK PK WND 13014/45 SLPNO CIG011 8/5// 9/8//;EQDQ01+000003PRSWM1Q02    003PRSWM1
0226107550999992000011214554+49320+010630FM-15+0467ETEB V0201401N004610033019N0060001N1-00201-00301999999ADDGD12991+0021099GD24991+0033099GF108991999999999999999999MA1102951999999MW1101REMMET102ETEB 121455Z 14009KT 6000 BR SCT007 OVC011 M02/M03 A3040 RMK PK WND 12016/25 SLPNO CIG011 8/5// 9/8//;EQDQ01+000003PRSWM1Q02    003PRSWM1
0204107550999992000011215584+49320+010630FM-15+0467ETEB V0201101N004110033019N0060001N1-00301-00301999999ADDGD14991+0033099GF108991999999999999999999MA1102911999999MW1101REMMET095ETEB 121558Z 11008KT 6000 BR OVC011 M03/M03 A3039 RMK PK WND 12014/37 SLPNO CIG011 8/5// 9/8//;EQDQ01+000003PRSWM1Q02    003PRSWM1
0204107550999992000011216554+49320+010630FM-15+0467ETEB V02099999999990030019N0080001N1-00301-00301999999ADDGD14991+0030099GF108991999999999999999999MA1102881999999MW1101REMMET095ETEB 121655Z VRB06KT 8000 BR OVC010 M03/M03 A3038 RMK PK WND 14017/35 SLPNO CIG010 8/5// 9/8//;EQDQ01+000003PRSWM1Q02    003PRSWM1
0181107550999992000011217404+49320+010630FM-16+0467ETEB V0201201N004610027019N0080001N1-00301-00301999999ADDGD14991+0027099GF108991999999999999999999MA1102881999999MW1101OC100721REMMET064ETEB 121740Z 12009G14KT 8000 BR OVC009 M03/M03 A3038 RMK CIG009;EQDQ01+000003PRSWM1Q02    003PRSWM1
0223107550999992000011217554+49320+010630FM-15+0467ETEB V0201301N004110027019N0080001N1-00301-00301999999ADDGD14991+0027099GF108991999999999999999999MA1102881999999MW1101OC100671REMMET106ETEB 121755Z 13008G13KT 080V170 8000 BR OVC009 M03/M03 A3038 RMK PK WND 16019/22 SLPNO CIG009 8/5// 9/8//;EQDQ01+000003PRSWM1Q02    003PRSWM1
0225107550999992000011218554+49320+010630FM-15+0467ETEB V0201301N003610027019N0080001N1-00301-00301999999ADDGD14991+0027099GF108991999999999999999999MA1102811999999MW1101REMMET116ETEB 121855Z COR 13007KT 090V170 8000 BR OVC009 M03/M03 A3036 RMK PK WND 16018/26 SLPNO CIG009 8/5// 9/8// COR 1857;EQDQ01+000003PRSWM1Q02    003PRSWM1
0215107550999992000011219554+49320+010630FM-15+0467ETEB V0201601N004610027019N0080001N1-00301-00401999999ADDGD14991+0027099GF108991999999999999999999MA1102781999999MW1101OC100671REMMET098ETEB 121955Z 16009G13KT 8000 BR OVC009 M03/M04 A3035 RMK PK WND 12017/00 SLPNO CIG009 8/5// 9/8//;EQDQ01+000003PRSWM1Q02    003PRSWM1
0209107550999992000011220554+49320+010630FM-15+0467ETEB V0201301N004610027019N0080001N1-00401-00401999999ADDGD14991+0027099GF108991999999999999999999MA1102741999999MW1101REMMET100ETEB 122055Z 13009KT 8000 BR OVC009 M04/M04 A3034 RMK PK WND 18014/59 SLPNO CIG009 8/5// 9/8// LAST;EQDQ01+000003PRSWM1Q02    003PRSWM1
0210107550999992000011304554+49320+010630FM-15+0467ETEB V0201201N005110030019N0060001N1-00501-00501999999ADDGD14991+0030099GF108991999999999999999999MA1102301999999MW1101REMMET101ETEB 130455Z 12010KT 6000 BR OVC010 M05/M05 A3021 RMK PK WND 13016/47 SLPNO CIG010 8/6// 9/8// FIRST;EQDQ01+000003PRSWM1Q02    003PRSWM1
0245107550999992000011306004+49320+010630FM-15+0467ETEB V0201301N006210030019N0060001N1-00501-00501999999ADDGD12991+0024099GD24991+0030099GF108991999999999999999999MA1102241999999MW1101REMMET121METAR ETEB 130555Z COR 13012KT 6000 BR SCT008 OVC010 M05/M05 A3019 RMK PK WND 16017/31 SLPNO CIG010 8/6// 9/8// COR 0620;EQDQ01+000003PRSWM1Q02    003PRSWM1
0192107550999992000011306474+49320+010630FM-16+0467ETEB V0201301N006210018019N0040001N1-00501-00501999999ADDGD13991+0018099GD24991+0030099GF108991999999999999999999MA1102241999999MW1101REMMET068ETEB 130647Z 13012KT 4000 BR BKN006 OVC010 M05/M05 A3019 RMK CIG006;EQDQ01+000003PRSWM1Q02    003PRSWM1
0226107550999992000011306564+49320+010630FM-15+0467ETEB V0201101N006710018019N0040001N1-00501-00501999999ADDGD13991+0018099GD24991+0030099GF108991999999999999999999MA1102241999999MW1101REMMET102ETEB 130656Z 11013KT 4000 BR BKN006 OVC010 M05/M05 A3019 RMK PK WND 14016/57 SLPNO CIG006 8/5// 9/8//;EQDQ01+000003PRSWM1Q02    003PRSWM1
0237107550999992000011308004+49320+010630FM-15+0467ETEB V0201201N004610015019N0040001N1-00501-00501999999ADDGD13991+0015099GD24991+0030099GF108991999999999999999999MA1102241999999MW1101OC100721REMMET105ETEB 130755Z 12009G14KT 4000 BR BKN005 OVC010 M05/M05 A3019 RMK PK WND 13016/01 SLPNO CIG005 8/5// 9/8//;EQDQ01+000003PRSWM1Q02    003PRSWM1
0190107550999992000011308234+49320+010630FM-16+0467ETEB V0201201N004610015019N0040001N1-00401-00401999999ADDGD14991+0015099GF108991999999999999999999MA1102241999999MW1711REMMET065ETEB 130823Z 12009KT 4000 -SN BR OVC005 M04/M04 A3019 RMK CIG005;EQDQ01+000100PRSWM3Q02+000003PRSWM1Q03    003PRSWM1
0214107550999992000011309004+49320+010630FM-15+0467ETEB V0201601N004110015019N0040001N1-00401-00401999999ADDGD14991+0015099GF108991999999999999999999MA1102241999999MW1101MW2711MW3771REMMET109ETEB 130857Z 16008KT 120V190 4000 -SGSN BR OVC005 M04/M04 A3019 RMK PK WND 16015/29 SLPNO CIG005 8/5// 9/8//;EQDQ01+000003PRSWM1
0223107550999992000011309414+49320+010630FM-16+0467ETEB V0201401N006210030019N0060001N1-00401-00401999999ADDGD12991+0021099GD24991+0030099GF108991999999999999999999MA1102201999999MW1771OC100821REMMET075ETEB 130941Z 14012G16KT 6000 -SG BR SCT007 OVC010 M04/M04 A3018 RMK CIG010;EQDQ01+000100PRSWM3Q02+000003PRSWM1Q03    003PRSWM1
0260107550999992000011310004+49320+010630FM-15+0467ETEB V0201601N005110030019N0060001N1-00401-00401999999ADDGD12991+0024099GD24991+0030099GF108991999999999999999999MA1102171999999MW1101MW2771OC100671REMMET122ETEB 130957Z COR 16010G13KT 6000 -SG BR SCT008 OVC010 M04/M04 A3017 RMK PK WND 13017/30 SLPNO CIG010 8/5// 9/8// COR 1018;EQDQ01+000003PRSWM1Q02    003PRSWM1
0255107550999992000011311004+49320+010630FM-15+0467ETEB V0201601N005110030019N0060001N1-00401-00401999999ADDGD12991+0024099GD24991+0030099GF108991999999999999999999MA1102171999999MW1101MW2771OC100671REMMET117ETEB 130957Z 16010G13KT 120V190 6000 -SG BR SCT008 OVC010 M04/M04 A3017 RMK PK WND 13017/30 SLPNO CIG010 8/5// 9/8//;EQDQ01+000003PRSWM1Q02    003PRSWM1
0192107550999992000011311204+49320+010630FM-15+0467ETEB V0201301N004110030019N0060001N1-00301-00301999999ADDGD12991+0021099GD24991+0030099GF108991999999999999999999MA1102101999999MW1101REMMET068ETEB 131120Z 13008KT 6000 BR SCT007 OVC010 M03/M03 A3015 RMK CIG010;EQDQ01+000003PRSWM1Q02    003PRSWM1
0232107550999992000011311554+49320+010630FM-15+0467ETEB V0201301N004110030019N0060001N1-00301-00301999999ADDGD12991+0021099GD24991+0030099GF108991999999999999999999MA1102101999999MW1101REMMET108ETEB 131155Z 13008KT 6000 BR SCT007 OVC010 M03/M03 A3015 RMK PK WND 14013/55 SLPNO CIG010 60000 8/5// 9/8//;EQDQ01+000003PRSWM1Q02    003PRSWM1
0237107550999992000011312564+49320+010630FM-15+0467ETEB V0201301N004110030019N0060001N1-00201-00301999999ADDGD12991+0024099GD24991+0030099GF108991999999999999999999MA1102031999999MW1101OC100771REMMET105ETEB 131256Z 13008G15KT 6000 BR SCT008 OVC010 M02/M03 A3013 RMK PK WND 09017/22 SLPNO CIG010 8/5// 9/8//;EQDQ01+000003PRSWM1Q02    003PRSWM1
0226107550999992000011313554+49320+010630FM-15+0467ETEB V0201101N003610030019N0060001N1-00201-00201999999ADDGD12991+0024099GD24991+0030099GF108991999999999999999999MA1101961999999MW1101REMMET102ETEB 131355Z 11007KT 6000 BR FEW008 OVC010 M02/M02 A3011 RMK PK WND 11011/41 SLPNO CIG010 8/5// 9/8//;EQDQ01+000003PRSWM1Q02    003PRSWM1
0192107550999992000011314454+49320+010630FM-15+0467ETEB V0201101N005110024019N0040001N1-00201-00201999999ADDGD13991+0024099GD24991+0030099GF108991999999999999999999MA1101931999999MW1101REMMET068ETEB 131445Z 11010KT 4000 BR BKN008 OVC010 M02/M02 A3010 RMK CIG008;EQDQ01+000003PRSWM1Q02    003PRSWM1
0226107550999992000011314554+49320+010630FM-15+0467ETEB V0201101N005110024019N0040001N1-00201-00201999999ADDGD13991+0024099GD24991+0030099GF108991999999999999999999MA1101931999999MW1101REMMET102ETEB 131455Z 11010KT 4000 BR BKN008 OVC010 M02/M02 A3010 RMK PK WND 10013/22 SLPNO CIG008 8/5// 9/8//;EQDQ01+000003PRSWM1Q02    003PRSWM1
0226107550999992000011315554+49320+010630FM-15+0467ETEB V0201101N004610024019N0040001N1-00201-00201999999ADDGD13991+0024099GD24991+0030099GF108991999999999999999999MA1101931999999MW1101REMMET102ETEB 131555Z 11009KT 4000 BR BKN008 OVC010 M02/M02 A3010 RMK PK WND 10013/57 SLPNO CIG008 8/5// 9/8//;EQDQ01+000003PRSWM1Q02    003PRSWM1
0226107550999992000011316554+49320+010630FM-15+0467ETEB V0201201N004610024019N0040001N1-00201-00201999999ADDGD13991+0024099GD24991+0030099GF108991999999999999999999MA1101931999999MW1101REMMET102ETEB 131655Z 12009KT 4000 BR BKN008 OVC010 M02/M02 A3010 RMK PK WND 13016/26 SLPNO CIG008 8/5// 9/8//;EQDQ01+000003PRSWM1Q02    003PRSWM1
0237107550999992000011317554+49320+010630FM-15+0467ETEB V0201201N005710024019N0040001N1-00201-00201999999ADDGD13991+0024099GD24991+0030099GF108991999999999999999999MA1101931999999MW1101OC100871REMMET105ETEB 131755Z 12011G17KT 4000 BR BKN008 OVC010 M02/M02 A3010 RMK PK WND 13017/48 SLPNO CIG008 8/5// 9/8//;EQDQ01+000003PRSWM1Q02    003PRSWM1
0204107550999992000011318554+49320+010630FM-15+0467ETEB V0201301N005110024019N0040001N1-00201-00201999999ADDGD14991+0024099GF108991999999999999999999MA1101901999999MW1101REMMET095ETEB 131855Z 13010KT 4000 BR OVC008 M02/M02 A3009 RMK PK WND 13016/15 SLPNO CIG008 8/5// 9/8//;EQDQ01+000003PRSWM1Q02    003PRSWM1
0233107550999992000011319554+49320+010630FM-15+0467ETEB V0201301N005710024019N0040001N1-00201-00201999999ADDGD14991+0024099GF108991999999999999999999MA1101901999999MW1101OC100721REMMET116ETEB 131955Z COR 13011G14KT 4000 BR OVC008 M02/M02 A3009 RMK PK WND 14015/41 SLPNO CIG008 8/5// 9/8// LAST COR 2015;EQDQ01+000003PRSWM1Q02    003PRSWM1
0235107550999992000011804554+49320+010630FM-15+0467ETEB V0202601N010310060019N0112651N1+00401+00401999999ADDGD12991+0036099GD23991+0060099GF107991999999999999999999MA1101591999999MW1001OC101291REMMET119ETEB 180455Z COR 26020G25KT 9999 SCT012 BKN020 04/04 A3000 RMK PK WND 26027/42 SLPNO CIG020 8/500 9/700 FIRST COR 0520;EQDQ01+000000PRSWM2
0241107550999992000011806004+49320+010630FM-15+0467ETEB V0202501N010310060019N0112651N1+00401+00401999999ADDGD12991+0036099GD24991+0060099GF108991999999999999999999MA1101521999999MW1001OC101541REMMET125ETEB 180555Z COR 25020G30KT 9999 SCT012 OVC020 04/04 A2998 RMK PK WND 26030/49 SLPNO CIG020 6//// 70003 8/5// 9/8// COR 0600;EQDQ01+000000PRSWM2
0182107550999992000011806254+49320+010630FM-15+0467ETEB V0202601N010310030019N0112651N1+00401+00401999999ADDGD13991+0030099GD24991+0060099GF108991999999999999999999MA1101491999999MW1001OC101441REMMET066ETEB 180625Z 26020G28KT 9999 BKN010 OVC020 04/04 A2997 RMK CIG010;EQDQ01+000000PRSWM2
0216107550999992000011806554+49320+010630FM-15+0467ETEB V0202601N010310030019N0112651N1+00401+00401999999ADDGD13991+0030099GD24991+0060099GF108991999999999999999999MA1101461999999MW1001OC101491REMMET100ETEB 180655Z 26020G29KT 9999 BKN010 OVC020 04/04 A2996 RMK PK WND 26029/50 SLPNO CIG010 8/5// 9/8//;EQDQ01+000000PRSWM2
0194107550999992000011808004+49320+010630FM-15+0467ETEB V0202701N010810030019N0112651N1+00401+00401999999ADDGD14991+0030099GF108991999999999999999999MA1101421999999MW1001OC101441REMMET093ETEB 180755Z 27021G28KT 9999 OVC010 04/04 A2995 RMK PK WND 26032/44 SLPNO CIG010 8/5// 9/8//;EQDQ01+000000PRSWM2
0180107550999992000011808104+49320+010630FM-16+0467ETEB V0202701N011310030019N0112651N1+00401+00401999999ADDGD14991+0030099GF108991999999999999999999MA1101421999999MW1611OC101491REMMET063ETEB 180810Z 27022G29KT 9999 -RA OVC010 04/04 A2995 RMK CIG010;EQDQ01+000003PRSWM1Q02    003PRSWM1
0225107550999992000011808554+49320+010630FM-15+0467ETEB V0202601N009810030019N0060001N1+00401+00401999999ADDGD14991+0030099GF108991999999999999999999MA1101461999999MW1101MW2801OC101441REMMET102ETEB 180855Z 26019G28KT 6000 -SHRA BR OVC010 04/04 A2996 RMK PK WND 27030/32 SLPNO CIG010 8/5// 9/8//;EQDQ01+000003PRSWM1Q02    003PRSWM1
0238107550999992000011810004+49320+010630FM-15+0467ETEB V0202701N009810030019N0112651N1+00401+00401999999ADDGD13991+0030099GD24991+0060099GF108991999999999999999999MA1101421999999MW1801OC101491REMMET106ETEB 180955Z 27019G29KT 9999 -SHRA BKN010 OVC020 04/04 A2995 RMK PK WND 26030/47 SLPNO CIG010 8/5// 9/8//;EQDQ01+000003PRSWM1Q02    003PRSWM1
0180107550999992000011810404+49320+010630FM-16+0467ETEB V0202701N009310045019N0112651N1+00401+00401999999ADDGD14991+0045099GF108991999999999999999999MA1101421999999MW1611OC101341REMMET063ETEB 181040Z 27018G26KT 9999 -RA OVC015 04/04 A2995 RMK CIG015;EQDQ01+000003PRSWM1Q02    003PRSWM1
0244107550999992000011811004+49320+010630FM-15+0467ETEB V0202701N010810045019N0112651N1+00401+00401999999ADDGD13991+0045099GD24991+0090099GF108991999999999999999999MA1101351999999MW1611MW2711OC101491REMMET106ETEB 181055Z 27021G29KT 9999 -RASN BKN015 OVC030 04/04 A2993 RMK PK WND 26029/50 SLPNO CIG015 8/5// 9/8//;EQDQ01+000003PRSWM1Q02    003PRSWM1
0204107550999992000011811354+49320+010630FM-16+0467ETEB V0202701N010810045019N0112651N1+00501+00401999999ADDGD12991+0009099GD23991+0045099GD33991+0090099GF107991999999999999999999MA1101391999999MW1001OC101591REMMET073ETEB 181135Z 27021G31KT 9999 FEW003 BKN015 BKN030 05/04 A2994 RMK CIG015;EQDQ01+000000PRSWM2
0260107550999992000011812004+49320+010630FM-15+0467ETEB V0202701N010310045019N0112651N1+00501+00401999999ADDGD12991+0009099GD23991+0045099GD33991+0060099GD43991+0150099GF107991999999999999999999MA1101391999999MW1001OC101541REMMET114ETEB 181155Z 27020G30KT 9999 FEW003 BKN015 BKN020 BKN050 05/04 A2994 RMK PK WND 28031/26 SLPNO CIG015 8/500 9/700;EQDQ01+000000PRSWM2
0232107550999992000011812104+49320+010630FM-16+0467ETEB V0202801N009810045019N0060001N1+00401+00401999999ADDGD12991+0009099GD23991+0045099GD33991+0090099GF107991999999999999999999MA1101391999999MW1611MW2711OC101591REMMET079ETEB 181210Z 28019G31KT 6000 -RASN FEW003 BKN015 BKN030 04/04 A2994 RMK CIG015;EQDQ01+000003PRSWM1Q02    003PRSWM1
0239107550999992000011812454+49320+010630FM-15+0467ETEB V0202801N009810105019N0112651N1+00501+00401999999ADDGD12991+0045099GD23991+0105099GD33991+0180099GD43991+0600099GF107991999999999999999999MA1101421999999MW1001OC101441REMMET093ETEB 181245Z COR 28019G28KT 9999 FEW015 BKN035 BKN060 BKN200 05/04 A2995 RMK CIG035 COR 1253;EQDQ01+000000PRSWM2
0260107550999992000011813004+49320+010630FM-15+0467ETEB V0202801N009810105019N0112651N1+00501+00401999999ADDGD12991+0045099GD23991+0105099GD33991+0180099GD43991+0600099GF107991999999999999999999MA1101391999999MW1001OC101341REMMET114ETEB 181255Z 28019G26KT 9999 FEW015 BKN035 BKN060 BKN200 05/04 A2994 RMK PK WND 27031/06 SLPNO CIG035 8/808 9/601;EQDQ01+000000PRSWM2
0232107550999992000011813154+49320+010630FM-16+0467ETEB V0202801N007210060019N0112651N1+00401+00401999999ADDGD12991+0045099GD23991+0060099GD34991+0180099GF108991999999999999999999MA1101421999999MW1611MW2711OC101231REMMET079ETEB 181315Z 28014G24KT 9999 -RASN FEW015 BKN020 OVC060 04/04 A2995 RMK CIG020;EQDQ01+000003PRSWM1Q02    003PRSWM1
0204107550999992000011813474+49320+010630FM-16+0467ETEB V0202901N007210060019N0112651N1+00401+00301999999ADDGD12991+0045099GD23991+0060099GD33991+0180099GF107991999999999999999999MA1101461999999MW1001OC101131REMMET073ETEB 181347Z 29014G22KT 9999 FEW015 BKN020 BKN060 04/03 A2996 RMK CIG020;EQDQ01+000000PRSWM2
0238107550999992000011814004+49320+010630FM-15+0467ETEB V0202901N007710060019N0112651N1+00401+00301999999ADDGD12991+0045099GD23991+0060099GD33991+0180099GF107991999999999999999999MA1101461999999MW1001OC101231REMMET107ETEB 181355Z 29015G24KT 9999 FEW015 BKN020 BKN060 04/03 A2996 RMK PK WND 28026/01 SLPNO CIG020 8/800 9/700;EQDQ01+000000PRSWM2
0204107550999992000011814354+49320+010630FM-16+0467ETEB V0202801N008710180019N0112651N1+00401+00301999999ADDGD12991+0045099GD22991+0060099GD33991+0180099GF107991999999999999999999MA1101491999999MW1001OC101181REMMET073ETEB 181435Z 28017G23KT 9999 FEW015 SCT020 BKN060 04/03 A2997 RMK CIG060;EQDQ01+000000PRSWM2
0238107550999992000011815004+49320+010630FM-15+0467ETEB V0202901N008710180019N0112651N1+00401+00301999999ADDGD12991+0045099GD22991+0060099GD33991+0180099GF107991999999999999999999MA1101521999999MW1001OC101341REMMET107ETEB 181455Z 29017G26KT 9999 FEW015 SCT020 BKN060 04/03 A2998 RMK PK WND 27026/45 SLPNO CIG060 8/800 9/600;EQDQ01+000000PRSWM2
0238107550999992000011816004+49320+010630FM-15+0467ETEB V0202901N006710180019N0112651N1+00301+00201999999ADDGD12991+0045099GD22991+0060099GD33991+0180099GF107991999999999999999999MA1101631999999MW1001OC100871REMMET107ETEB 181555Z 29013G17KT 9999 FEW015 SCT020 BKN060 03/02 A3001 RMK PK WND 30023/22 SLPNO CIG060 8/800 9/700;EQDQ01+000000PRSWM2
0238107550999992000011816554+49320+010630FM-15+0467ETEB V0202801N007210180019N0112651N1+00301+00101999999ADDGD12991+0045099GD22991+0060099GD33991+0180099GF107991999999999999999999MA1101691999999MW1001OC101031REMMET107ETEB 181655Z 28014G20KT 9999 FEW015 SCT020 BKN060 03/01 A3003 RMK PK WND 29022/33 SLPNO CIG060 8/800 9/600;EQDQ01+000000PRSWM2
0233107550999992000011818004+49320+010630FM-15+0467ETEB V0202801N005110180019N0112651N1+00201+00101999999ADDGD12991+0045099GD22991+0060099GD34991+0180099GF108991999999999999999999MA1101801999999MW1001REMMET110ETEB 181755Z 28010KT 9999 FEW015 SCT020 OVC060 02/01 A3006 RMK PK WND 27020/00 SLPNO CIG060 60002 8/8// 9/8//;EQDQ01+000000PRSWM2
0220107550999992000011818584+49320+010630FM-15+0467ETEB V0202901N006712200019N0112651N1+00201+00001999999ADDGD12991+0045099GD22991+0060099GD32991+0180099GF104991999999999999999999MA1101901999999MW1001REMMET097ETEB 181858Z 29013KT 9999 FEW015 SCT020 SCT060 02/00 A3009 RMK PK WND 28019/42 SLPNO 8/800 9/400;EQDQ01+000000PRSWM2
0231107550999992000011820004+49320+010630FM-15+0467ETEB V0202801N006212200019N0112651N1+00101+00001999999ADDGD12991+0045099GD22991+0060099GD32991+0180099GF104991999999999999999999MA1101961999999MW1001OC100871REMMET100ETEB 181958Z 28012G17KT 9999 FEW015 SCT020 SCT060 01/00 A3011 RMK PK WND 27020/20 SLPNO 8/800 9/400;EQDQ01+000000PRSWM2
0210107550999992000011820274+49320+010630FM-16+0467ETEB V0202901N006712200019N0112651N1+00101+00001999999ADDGD12991+0045099GD22991+0060099GD32991+0180099GF104991999999999999999999MA1102001999999MW1611MW2711REMMET065ETEB 182027Z 29013KT 9999 -RASN FEW015 SCT020 SCT060 01/00 A3012;EQDQ01+000003PRSWM1Q02    003PRSWM1
0260107550999992000011820554+49320+010630FM-15+0467ETEB V0202901N005110180019N0112651N1+00101+00001999999ADDGD12991+0045099GD22991+0060099GD34991+0180099GF108991999999999999999999MA1102031999999MW1611MW2711REMMET115ETEB 182055Z 29010KT 9999 -RASN FEW015 SCT020 OVC060 01/00 A3013 RMK PK WND 28020/16 SLPNO CIG060 8/8// 9/8// LAST;EQDQ01+000003PRSWM1Q02    003PRSWM1
0154107550999992000011904554+49320+010630FM-15+0467ETEB V0202501N005112200019N0112651N1-00301-00301999999ADDGF100991999999999999999999MA1102341999999MW1001REMMET076ETEB 190455Z 25010KT 9999 SKC M03/M03 A3022 RMK PK WND 26014/44 SLPNO FIRST;EQDQ01+000000PRSWM2
0190107550999992000011905554+49320+010630FM-15+0467ETEB V0202701N004112200019N0112651N1-00301-00301999999ADDGD12991+0090099GF102991999999999999999999MA1102371999999MW1001REMMET097ETEB 190555Z 27008KT 9999 FEW030 M03/M03 A3023 RMK PK WND 25015/28 SLPNO 6//// 70005 8/500 9/100;EQDQ01+000000PRSWM2
0178107550999992000011906554+49320+010630FM-15+0467ETEB V0202301N003612200019N0112651N1-00301-00301999999ADDGD12991+0090099GF102991999999999999999999MA1102441999999MW1001REMMET085ETEB 190655Z 23007KT 9999 FEW030 M03/M03 A3025 RMK PK WND 26014/21 SLPNO 8/500 9/100;EQDQ01+000000PRSWM2
0178107550999992000011907554+49320+010630FM-15+0467ETEB V0202401N004112200019N0112651N1-00301-00301999999ADDGD12991+0090099GF102991999999999999999999MA1102511999999MW1001REMMET085ETEB 190755Z 24008KT 9999 FEW030 M03/M03 A3027 RMK PK WND 24012/51 SLPNO 8/500 9/100;EQDQ01+000000PRSWM2
0178107550999992000011908554+49320+010630FM-15+0467ETEB V0202501N004612200019N0112651N1-00201-00201999999ADDGD12991+0090099GF102991999999999999999999MA1102541999999MW1001REMMET085ETEB 190855Z 25009KT 9999 FEW030 M02/M02 A3028 RMK PK WND 23013/45 SLPNO 8/500 9/100;EQDQ01+000000PRSWM2
0189107550999992000011909554+49320+010630FM-15+0467ETEB V0202601N005712200019N0112651N1+00001-00201999999ADDGD12991+0075099GF102991999999999999999999MA1102571999999MW1001OC100771REMMET088ETEB 190955Z 26011G15KT 9999 FEW025 M00/M02 A3029 RMK PK WND 25016/35 SLPNO 8/500 9/100;EQDQ01+000000PRSWM2
0188107550999992000011910554+49320+010630FM-15+0467ETEB V0202701N006712200019N0112651N1+00101-00201999999ADDGD12991+0060099GF104991999999999999999999MA1102611999999MW1001OC100931REMMET087ETEB 191055Z 27013G18KT 9999 SCT020 01/M02 A3030 RMK PK WND 28018/53 SLPNO 8/500 9/300;EQDQ01+000000PRSWM2
0188107550999992000011911574+49320+010630FM-15+0467ETEB V0202801N006712200019N0112651N1+00101-00201999999ADDGD12991+0060099GF102991999999999999999999MA1102571999999MW1001OC100931REMMET087ETEB 191157Z 28013G18KT 9999 FEW020 01/M02 A3029 RMK PK WND 27019/40 SLPNO 8/500 9/200;EQDQ01+000000PRSWM2
0188107550999992000011912554+49320+010630FM-15+0467ETEB V0202901N007712200019N0112651N1+00101-00301999999ADDGD12991+0120099GF102991999999999999999999MA1102571999999MW1001OC100981REMMET087ETEB 191255Z 29015G19KT 9999 FEW040 01/M03 A3029 RMK PK WND 30020/26 SLPNO 8/500 9/200;EQDQ01+000000PRSWM2
0183107550999992000011914584+49320+010630FM-15+0467ETEB V0202701N005112200019N0112651N1+00101-00201999999ADDGD12991+0120099GF104991999999999999999999MA1102641999999MW1001REMMET090METAR ETEB 191458Z 27010KT 9999 SCT040 01/M02 A3031 RMK PK WND 27020/14 SLPNO 8/500 9/300;EQDQ01+000000PRSWM2
0178107550999992000011915554+49320+010630FM-15+0467ETEB V0202701N003612200019N0112651N1+00001-00301999999ADDGD12991+0120099GF102991999999999999999999MA1102681999999MW1001REMMET085ETEB 191555Z 27007KT 9999 FEW040 M00/M03 A3032 RMK PK WND 27020/57 SLPNO 8/500 9/100;EQDQ01+000000PRSWM2
0178107550999992000011916554+49320+010630FM-15+0467ETEB V0202701N004112200019N0112651N1-00101-00301999999ADDGD12991+0120099GF102991999999999999999999MA1102741999999MW1001REMMET085ETEB 191655Z 27008KT 9999 FEW040 M01/M03 A3034 RMK PK WND 27013/45 SLPNO 8/500 9/100;EQDQ01+000000PRSWM2
0191107550999992000011918004+49320+010630FM-15+0467ETEB V0202601N003612200019N0112651N1-00201-00301999999ADDGD12991+0120099GF102991999999999999999999MA1102811999999MW1001REMMET098ETEB 191755Z COR 26007KT 9999 FEW040 M02/M03 A3036 RMK PK WND 33014/05 SLPNO 8/500 9/100 COR 1850;EQDQ01+000000PRSWM2
0213107550999992000011918554+49320+010630FM-15+0467ETEB V0202301N003612200019N0112651N1-00201-00301999999ADDGD12991+0120099GD22991+0600099GF104991999999999999999999MA1102881999999MW1001REMMET105ETEB 191855Z COR 23007KT 9999 FEW040 SCT200 M02/M03 A3038 RMK PK WND 18012/54 SLPNO 8/501 9/102 COR 1900;EQDQ01+000000PRSWM2
0178107550999992000011919554+49320+010630FM-15+0467ETEB V0202501N003112200019N0112651N1-00301-00401999999ADDGD12991+0600099GF104991999999999999999999MA1102881999999MW1001REMMET085ETEB 191955Z 25006KT 9999 SCT200 M03/M04 A3038 RMK PK WND 27009/47 SLPNO 8/001 9/003;EQDQ01+000000PRSWM2
0205107550999992000011920554+49320+010630FM-15+0467ETEB V0202401N003112200019N0112651N1-00301-00301999999ADDGD12991+0180099GD22991+0600099GF104991999999999999999999MA1102951999999MW1001REMMET097ETEB 192055Z 24006KT 9999 FEW060 SCT200 M03/M03 A3040 RMK PK WND 25008/06 SLPNO 8/501 9/103 LAST;EQDQ01+000000PRSWM2
0191107550999992000012005004+49320+010630FM-15+0467ETEB V02099999999990120019N0112651N1-00301-00301999999ADDGD13991+0120099GF107991999999999999999999MA1102881999999MW1001REMMET098ETEB 200455Z VRB04KT 9999 BKN040 M03/M03 A3038 RMK PK WND 21008/26 SLPNO CIG040 8/500 9/700 FIRST;EQDQ01+000000PRSWM2
0185107550999992000012006004+49320+010630FM-15+0467ETEB V0202401N003610120019N0112651N1-00201-00201999999ADDGD13991+0120099GF107991999999999999999999MA1102841999999MW1001REMMET092ETEB 200555Z 24007KT 9999 BKN040 M02/M02 A3037 RMK PK WND 25008/50 SLPNO CIG040 8/500 9/700;EQDQ01+000000PRSWM2
0207107550999992000012006554+49320+010630FM-15+0467ETEB V0202401N003610600019N0112651N1-00201-00201999999ADDGD12991+0120099GD23991+0600099GF107991999999999999999999MA1102881999999MW1001REMMET099ETEB 200655Z 24007KT 9999 SCT040 BKN200 M02/M02 A3038 RMK PK WND 23009/54 SLPNO CIG200 8/508 9/403;EQDQ01+000000PRSWM2
0192107550999992000012007404+49320+010630FM-16+0467ETEB V0202301N005710030019N0070001N1-00101-00101999999ADDGD13991+0030099GD24991+0120099GF108991999999999999999999MA1102841999999MW1101REMMET068ETEB 200740Z 23011KT 7000 BR BKN010 OVC040 M01/M01 A3037 RMK CIG010;EQDQ01+000003PRSWM1Q02    003PRSWM1
0226107550999992000012007554+49320+010630FM-15+0467ETEB V0202301N005710030019N0070001N1-00101-00101999999ADDGD13991+0030099GD24991+0120099GF108991999999999999999999MA1102841999999MW1101REMMET102ETEB 200755Z 23011KT 7000 BR BKN010 OVC040 M01/M01 A3037 RMK PK WND 22014/53 SLPNO CIG010 8/5// 9/8//;EQDQ01+000003PRSWM1Q02    003PRSWM1
0226107550999992000012009004+49320+010630FM-15+0467ETEB V0202501N005710030019N0070001N1-00101-00101999999ADDGD13991+0030099GD24991+0120099GF108991999999999999999999MA1102841999999MW1101REMMET102ETEB 200855Z 25011KT 7000 BR BKN010 OVC040 M01/M01 A3037 RMK PK WND 26016/33 SLPNO CIG010 8/5// 9/8//;EQDQ01+000003PRSWM1Q02    003PRSWM1
0225107550999992000012009284+49320+010630FM-16+0467ETEB V0202501N005110030019N0070001N1-00101-00101999999ADDGD13991+0030099GD24991+0120099GF108991999999999999999999MA1102841999999MW1561OC100771REMMET077ETEB 200928Z 25010G15KT 7000 -FZDZ BR BKN010 OVC040 M01/M01 A3037 RMK CIG010;EQDQ01+000100PRSWM3Q02+000003PRSWM1Q03    003PRSWM1
0203107550999992000012009384+49320+010630FM-16+0467ETEB V0202401N005710030019N0070001N1-00101-00101999999ADDGD13991+0030099GD24991+0120099GF108991999999999999999999MA1102841999999MW1101OC100821REMMET071ETEB 200938Z 24011G16KT 7000 BR BKN010 OVC040 M01/M01 A3037 RMK CIG010;EQDQ01+000003PRSWM1Q02    003PRSWM1
0237107550999992000012010004+49320+010630FM-15+0467ETEB V0202401N007210030019N0070001N1-00101-00101999999ADDGD13991+0030099GD24991+0120099GF108991999999999999999999MA1102811999999MW1101OC100931REMMET105ETEB 200955Z 24014G18KT 7000 BR BKN010 OVC040 M01/M01 A3036 RMK PK WND 25018/51 SLPNO CIG010 8/5// 9/8//;EQDQ01+000003PRSWM1Q02    003PRSWM1
0245107550999992000012010044+49320+010630FM-16+0467ETEB V0202501N007210084019N0070001N1-00101-00101999999ADDGD12991+0030099GD23991+0084099GD34991+0120099GF108991999999999999999999MA1102841999999MW1771OC101031REMMET082ETEB 201004Z 25014G20KT 7000 -SG BR FEW010 BKN028 OVC040 M01/M01 A3037 RMK CIG028;EQDQ01+000100PRSWM3Q02+000003PRSWM1Q03    003PRSWM1
0214107550999992000012010354+49320+010630FM-16+0467ETEB V0202401N006710084019N0070001N1-00101-00101999999ADDGD12991+0030099GD23991+0084099GD34991+0120099GF108991999999999999999999MA1102811999999MW1101REMMET075ETEB 201035Z 24013KT 7000 BR FEW010 BKN028 OVC040 M01/M01 A3036 RMK CIG028;EQDQ01+000003PRSWM1Q02    003PRSWM1
0259107550999992000012011004+49320+010630FM-15+0467ETEB V0202401N005710084019N0080001N1+00001-00101999999ADDGD12991+0030099GD23991+0084099GD34991+0120099GF108991999999999999999999MA1102781999999MW1101OC100871REMMET112ETEB 201055Z 24011G17KT 8000 BR SCT010 BKN028 OVC040 M00/M01 A3035 RMK PK WND 24020/56 SLPNO CIG028 8/5// 9/8//;EQDQ01+000003PRSWM1Q02    003PRSWM1
0225107550999992000012011324+49320+010630FM-16+0467ETEB V0202401N007210120019N0080001N1+00001-00101999999ADDGD12991+0030099GD22991+0075099GD34991+0120099GF108991999999999999999999MA1102711999999MW1101OC101031REMMET078ETEB 201132Z 24014G20KT 8000 BR FEW010 SCT025 OVC040 M00/M01 A3033 RMK CIG040;EQDQ01+000003PRSWM1Q02    003PRSWM1
0265107550999992000012011554+49320+010630FM-15+0467ETEB V0202401N006710120019N0080001N1+00001-00101999999ADDGD12991+0030099GD22991+0075099GD34991+0120099GF108991999999999999999999MA1102711999999MW1101OC100871REMMET118ETEB 201155Z 24013G17KT 8000 BR FEW010 SCT025 OVC040 M00/M01 A3033 RMK PK WND 24020/39 SLPNO CIG040 60000 8/5// 9/8//;EQDQ01+000003PRSWM1Q02    003PRSWM1
0280107550999992000012012554+49320+010630FM-15+0467ETEB V0202501N006210090019N0080001N1+00001+00001999999ADDGD12991+0030099GD22991+0060099GD33991+0090099GD44991+0120099GF108991999999999999999999MA1102641999999MW1101OC100871REMMET118ETEB 201255Z 25012G17KT 8000 BR FEW010 SCT020 BKN030 OVC040 00/M00 A3031 RMK PK WND 24018/28 SLPNO CIG030 8/5// 9/8//;EQDQ01+000003PRSWM1Q02    003PRSWM1
0247107550999992000012013554+49320+010630FM-15+0467ETEB V0202301N006210090019N0080001N1+00001+00001999999ADDGD12991+0060099GD23991+0090099GD34991+0180099GF108991999999999999999999MA1102611999999MW1101REMMET108ETEB 201355Z 23012KT 8000 BR SCT020 BKN030 OVC060 00/M00 A3030 RMK PK WND 25019/20 SLPNO CIG030 8/5// 9/8//;EQDQ01+000003PRSWM1Q02    003PRSWM1
0247107550999992000012015004+49320+010630FM-15+0467ETEB V0202501N006710090019N0080001N1+00001-00101999999ADDGD12991+0060099GD23991+0090099GD34991+0180099GF108991999999999999999999MA1102571999999MW1101REMMET108ETEB 201455Z 25013KT 8000 BR SCT020 BKN030 OVC060 00/M01 A3029 RMK PK WND 24020/20 SLPNO CIG030 8/5// 9/8//;EQDQ01+000003PRSWM1Q02    003PRSWM1
0222107550999992000012015124+49320+010630FM-16+0467ETEB V0202501N006710150019N0080001N1+00001+00001999999ADDGD12991+0075099GD24991+0150099GF108991999999999999999999MA1102541999999MW1711OC100821REMMET074ETEB 201512Z 25013G16KT 8000 -SN BR SCT025 OVC050 00/M00 A3028 RMK CIG050;EQDQ01+000100PRSWM3Q02+000003PRSWM1Q03    003PRSWM1
0212107550999992000012015454+49320+010630FM-15+0467ETEB V0202501N006210075019N0040001N1+00001+00001999999ADDGD13991+0075099GD24991+0150099GF108991999999999999999999MA1102541999999MW1101MW2711OC100931REMMET074ETEB 201545Z 25012G18KT 4000 -SN BR BKN025 OVC050 00/M00 A3028 RMK CIG025;EQDQ01+000003PRSWM1Q02    003PRSWM1
0247107550999992000012015554+49320+010630FM-15+0467ETEB V0202501N006210075019N0040001N1+00001+00001999999ADDGD13991+0075099GD24991+0150099GF108991999999999999999999MA1102511999999MW1101MW2711OC100821REMMET109ETEB 201555Z 25012G16KT 4000 -SN BR BKN025 OVC050 M00/M00 A3027 RMK PK WND 25020/17 SLPNO CIG025 8/5// 9/8//;EQDQ01+000003PRSWM1Q02    003PRSWM1
0240107550999992000012016554+49320+010630FM-15+0467ETEB V0202401N005710075019N0040001N1+00001+00001999999ADDGD13991+0075099GD24991+0150099GF108991999999999999999999MA1102441999999MW1101MW2711REMMET110ETEB 201655Z COR 24011KT 4000 -SN BR BKN025 OVC050 M00/M00 A3025 RMK PK WND 25019/03 SLPNO CIG025 8/5// 9/8//;EQDQ01+000003PRSWM1Q02    003PRSWM1
0240107550999992000012018004+49320+010630FM-15+0467ETEB V0202501N006710075019N0040001N1+00001+00001999999ADDGD13991+0075099GD24991+0150099GF108991999999999999999999MA1102401999999MW1101MW2711REMMET110ETEB 201757Z 25013KT 4000 -SN BR BKN025 OVC050 00/00 A3024 RMK PK WND 24017/39 SLPNO CIG025 60000 8/5// 9/8//;EQDQ01+000003PRSWM1Q02    003PRSWM1
0210107550999992000012018414+49320+010630FM-16+0467ETEB V0202401N007210045019N0030001N1+00001+00001999999ADDGD13991+0045099GD24991+0060099GF108991999999999999999999MA1102401999999MW1711REMMET070ETEB 201841Z 24014KT 3000 -SN BR BKN015 OVC020 00/00 A3024 RMK CIG015;EQDQ01+000100PRSWM3Q02+000003PRSWM1Q03    003PRSWM1
0234107550999992000012018554+49320+010630FM-15+0467ETEB V0202301N007710045019N0030001N1+00001+00001999999ADDGD13991+0045099GD24991+0060099GF108991999999999999999999MA1102371999999MW1101MW2711REMMET104ETEB 201855Z 23015KT 3000 -SN BR BKN015 OVC020 00/00 A3023 RMK PK WND 24023/21 SLPNO CIG015 8/5// 9/8//;EQDQ01+000003PRSWM1Q02    003PRSWM1
0234107550999992000012019554+49320+010630FM-15+0467ETEB V0202301N007710045019N0030001N1+00001+00001999999ADDGD13991+0045099GD24991+0060099GF108991999999999999999999MA1102371999999MW1101MW2711REMMET104ETEB 201955Z 23015KT 3000 -SN BR BKN015 OVC020 00/00 A3023 RMK PK WND 25022/35 SLPNO CIG015 8/5// 9/8//;EQDQ01+000003PRSWM1Q02    003PRSWM1
0251107550999992000012020554+49320+010630FM-15+0467ETEB V0202301N009810045019N0030001N1+00001+00001999999ADDGD13991+0045099GD24991+0060099GF108991999999999999999999MA1102341999999MW1101MW2711OC101391REMMET113ETEB 202055Z 23019G27KT 3000 -SN BR BKN015 OVC020 00/M00 A3022 RMK PK WND 23024/51 SLPNO CIG015 8/5// 9/8// LAST;EQDQ01+000003PRSWM1Q02    003PRSWM1
0222107550999992000012104554+49320+010630FM-15+0467ETEB V0202501N010310030019N0112651N1+00001+00001999999ADDGD13991+0030099GD24991+0060099GF108991999999999999999999MA1101861999999MW1001OC101341REMMET106ETEB 210455Z 25020G26KT 9999 BKN010 OVC020 00/00 A3008 RMK PK WND 24026/54 SLPNO CIG010 8/5// 9/8// FIRST;EQDQ01+000000PRSWM2
0202107550999992000012105454+49320+010630FM-15+0467ETEB V0202601N009310030019N0112651N1+00001+00001999999ADDGD13991+0030099GD24991+0060099GF108991999999999999999999MA1101831999999MW1711OC101291REMMET070ETEB 210545Z 26018G25KT 9999 -SN BKN010 OVC020 00/00 A3007 RMK CIG010;EQDQ01+000003PRSWM1Q02    003PRSWM1
0255107550999992000012105554+49320+010630FM-15+0467ETEB V0202601N009310030019N0112651N1+00001+00001999999ADDGD13991+0030099GD24991+0060099GF108991999999999999999999MA1101831999999MW1711OC101181REMMET123ETEB 210555Z COR 26018G23KT 9999 -SN BKN010 OVC020 00/00 A3007 RMK PK WND 24028/11 SLPNO CIG010 6//// 8/5// 9/8// COR 0605;EQDQ01+000003PRSWM1Q02    003PRSWM1
0245107550999992000012107004+49320+010630FM-15+0467ETEB V0202501N010310030019N0050001N1+00001+00001999999ADDGD13991+0030099GD24991+0060099GF108991999999999999999999MA1101831999999MW1101MW2771OC101391REMMET107ETEB 210655Z 25020G27KT 5000 -SG BR BKN010 OVC020 00/00 A3007 RMK PK WND 25027/52 SLPNO CIG010 8/5// 9/8//;EQDQ01+000003PRSWM1Q02    003PRSWM1
0211107550999992000012107204+49320+010630FM-15+0467ETEB V0202501N009810030019N0040001N1+00001+00001999999ADDGD13991+0030099GD24991+0060099GF108991999999999999999999MA1101801999999MW1101MW2771OC101341REMMET073ETEB 210720Z 25019G26KT 4000 -SG BR BKN010 OVC020 00/00 A3006 RMK CIG010;EQDQ01+000003PRSWM1Q02    003PRSWM1
0221107550999992000012107384+49320+010630FM-16+0467ETEB V0202501N009310030019N0050001N1+00001+00001999999ADDGD13991+0030099GD24991+0060099GF108991999999999999999999MA1101831999999MW1771OC101341REMMET073ETEB 210738Z 25018G26KT 5000 -SG BR BKN010 OVC020 00/00 A3007 RMK CIG010;EQDQ01+000100PRSWM3Q02+000003PRSWM1Q03    003PRSWM1
0245107550999992000012107554+49320+010630FM-15+0467ETEB V0202501N009810030019N0050001N1+00001+00001999999ADDGD13991+0030099GD24991+0060099GF108991999999999999999999MA1101831999999MW1101MW2771OC101291REMMET107ETEB 210755Z 25019G25KT 5000 -SG BR BKN010 OVC020 00/00 A3007 RMK PK WND 22028/12 SLPNO CIG010 8/5// 9/8//;EQDQ01+000003PRSWM1Q02    003PRSWM1
0245107550999992000012108554+49320+010630FM-15+0467ETEB V0202501N009810030019N0050001N1+00101+00101999999ADDGD13991+0030099GD24991+0060099GF108991999999999999999999MA1101801999999MW1101MW2771OC101391REMMET107ETEB 210855Z 25019G27KT 5000 -SG BR BKN010 OVC020 01/01 A3006 RMK PK WND 24027/46 SLPNO CIG010 8/5// 9/8//;EQDQ01+000003PRSWM1Q02    003PRSWM1
0245107550999992000012109554+49320+010630FM-15+0467ETEB V0202601N009810030019N0050001N1+00101+00101999999ADDGD13991+0030099GD24991+0060099GF108991999999999999999999MA1101861999999MW1101MW2771OC101341REMMET107ETEB 210955Z 26019G26KT 5000 -SG BR BKN010 OVC020 01/01 A3008 RMK PK WND 25030/38 SLPNO CIG010 8/5// 9/8//;EQDQ01+000003PRSWM1Q02    003PRSWM1
0245107550999992000012111004+49320+010630FM-15+0467ETEB V0202501N009310030019N0050001N1+00101+00101999999ADDGD13991+0030099GD24991+0060099GF108991999999999999999999MA1101831999999MW1101MW2771OC101441REMMET107ETEB 211055Z 25018G28KT 5000 -SG BR BKN010 OVC020 01/01 A3007 RMK PK WND 25028/53 SLPNO CIG010 8/5// 9/8//;EQDQ01+000003PRSWM1Q02    003PRSWM1
0242107550999992000012111584+49320+010630FM-15+0467ETEB V0202501N009310030019N0050001N1+00101+00101999999ADDGD14991+0030099GF108991999999999999999999MA1101801999999MW1101MW2771OC101291REMMET119ETEB 211158Z COR 25018G25KT 5000 -SG BR OVC010 01/01 A3006 RMK PK WND 23026/09 SLPNO CIG010 60002 8/5// 9/8// COR 1201;EQDQ01+000003PRSWM1Q02    003PRSWM1
0245107550999992000012113004+49320+010630FM-15+0467ETEB V0202601N007710030019N0050001N1+00101+00101999999ADDGD12991+0015099GD24991+0030099GF108991999999999999999999MA1101801999999MW1101MW2771OC101341REMMET107ETEB 211255Z 26015G26KT 5000 -SG BR SCT005 OVC010 01/01 A3006 RMK PK WND 26026/51 SLPNO CIG010 8/5// 9/8//;EQDQ01+000003PRSWM1Q02    003PRSWM1
0210107550999992000012113034+49320+010630FM-16+0467ETEB V0202601N008210030019N0025001N1+00101+00101999999ADDGD12991+0015099GD24991+0030099GF108991999999999999999999MA1101801999999MW1771REMMET070ETEB 211303Z 26016KT 2500 -SG BR SCT005 OVC010 01/01 A3006 RMK CIG010;EQDQ01+000100PRSWM3Q02+000003PRSWM1Q03    003PRSWM1
0232107550999992000012113124+49320+010630FM-16+0467ETEB V0202601N008210021019N0040001N1+00101+00101999999ADDGD12991+0015099GD23991+0021099GD34991+0030099GF108991999999999999999999MA1101801999999MW1771REMMET077ETEB 211312Z 26016KT 4000 -SG BR FEW005 BKN007 OVC010 01/01 A3006 RMK CIG007;EQDQ01+000100PRSWM3Q02+000003PRSWM1Q03    003PRSWM1
0257107550999992000012113314+49320+010630FM-16+0467ETEB V0202701N008710021019N0028001N1+00101+00101999999ADDGD12991+0015099GD23991+0021099GD34991+0030099GF108991999999999999999999MA1101801999999MW1771OC101181REMMET094ETEB 211331Z 27017G23KT 2800 -SG BR FEW005 BKN007 OVC010 01/01 A3006 RMK VIS 1500V4000 CIG007;EQDQ01+000100PRSWM3Q02+000003PRSWM1Q03    003PRSWM1
0289107550999992000012113554+49320+010630FM-15+0467ETEB V0202701N007710021019N0030001N1+00101+00001999999ADDGD13991+0021099GD23991+0030099GD34991+0060099GF108991999999999999999999MA1101861999999MW1101MW2771REMMET144METAR ETEB 211355Z COR 27015KT 3000 -SG BR BKN007 BKN010 OVC020 01/00 A3008 RMK PK WND 27023/29 VIS 1500V4000 SLPNO CIG007 8/5// 9/8// COR 1406;EQDQ01+000003PRSWM1Q02    003PRSWM1
0210107550999992000012114474+49320+010630FM-16+0467ETEB V0203001N005110090019N0050001N1+00101+00101999999ADDGD12991+0045099GD24991+0090099GF108991999999999999999999MA1101961999999MW1771REMMET070ETEB 211447Z 30010KT 5000 -SG BR SCT015 OVC030 01/01 A3011 RMK CIG030;EQDQ01+000100PRSWM3Q02+000003PRSWM1Q03    003PRSWM1
0234107550999992000012114554+49320+010630FM-15+0467ETEB V0202901N005710090019N0050001N1+00101+00101999999ADDGD12991+0045099GD23991+0090099GF107991999999999999999999MA1101961999999MW1101MW2771REMMET104ETEB 211455Z 29011KT 5000 -SG BR SCT015 BKN030 01/01 A3011 RMK PK WND 28020/57 SLPNO CIG030 8/500 9/700;EQDQ01+000003PRSWM1Q02    003PRSWM1
0239107550999992000012116554+49320+010630FM-15+0467ETEB V0202801N006210180019N0080001N1+00101+00001999999ADDGD12991+0090099GD24991+0180099GF108991999999999999999999MA1102101999999MW1101MW2711REMMET109ETEB 211655Z 28012KT 8000 -SN BR SCT030 OVC060 01/00 A3015 RMK PK WND 28018/12 SLPNO CIG060 8/5// 9/8// LAST;EQDQ01+000003PRSWM1Q02    003PRSWM1
0154107550999992000012404554+49320+010630FM-15+0467ETEB V0200101N002612200019N0112651N1-01301-01301999999ADDGF100991999999999999999999MA1101931999999MW1001REMMET076ETEB 240455Z 01005KT 9999 SKC M13/M13 A3010 RMK PK WND 01008/36 SLPNO FIRST;EQDQ01+000000PRSWM2
0179107550999992000012407004+49320+010630FM-15+0467ETEB V0200101N003112200019N0060001N1-01301-01301999999ADDGF100991999999999999999999MA1102101999999MW1101REMMET085ETEB 240655Z COR 01006KT 6000 BR SKC M13/M13 A3015 RMK PK WND 3608/58 SLPNO COR 0754;EQDQ01+000003PRSWM1Q02    003PRSWM1
0180107550999992000012407554+49320+010630FM-15+0467ETEB V0200401N002612200019N0060001N1-01201-01201999999ADDGF100991999999999999999999MA1102101999999MW1101REMMET086ETEB 240755Z COR 04005KT 6000 BR SKC M12/M12 A3015 RMK PK WND 03O08/32 SLPNO COR 0759;EQDQ01+000003PRSWM1Q02    003PRSWM1
0167107550999992000012408554+49320+010630FM-15+0467ETEB V0200401N002612200019N0090001N1-01101-01101999999ADDGF100991999999999999999999MA1102131999999MW1101REMMET073ETEB 240855Z 04005KT 9000 BR SKC M11/M11 A3016 RMK PK WND 04008/20 SLPNO;EQDQ01+000003PRSWM1Q02    003PRSWM1
0148107550999992000012409554+49320+010630FM-15+0467ETEB V0200801N002112200019N0112651N1-01101-01101999999ADDGF100991999999999999999999MA1102201999999MW1001REMMET070ETEB 240955Z 08004KT 9999 SKC M11/M11 A3018 RMK PK WND 06006/41 SLPNO;EQDQ01+000000PRSWM2
0148107550999992000012410584+49320+010630FM-15+0467ETEB V0200201N002112200019N0112651N1-00901-01001999999ADDGF100991999999999999999999MA1102201999999MW1001REMMET070ETEB 241058Z 02004KT 9999 SKC M09/M10 A3018 RMK PK WND 04009/54 SLPNO;EQDQ01+000000PRSWM2
0148107550999992000012411554+49320+010630FM-15+0467ETEB V0200701N002612200019N0112651N1-00801-00901999999ADDGF100991999999999999999999MA1102171999999MW1001REMMET070ETEB 241155Z 07005KT 9999 SKC M08/M09 A3017 RMK PK WND 01009/20 SLPNO;EQDQ01+000000PRSWM2
0191107550999992000012413004+49320+010630FM-15+0467ETEB V0209999V001012200019N0112651N1-00801-01001999999ADDGD12991+0090099GF102991999999999999999999MA1102171999999MW1001REMMET098ETEB 241255Z COR VRB02KT 9999 FEW030 M08/M10 A3017 RMK PK WND 07006/58 SLPNO 8/100 9/100 COR 1340;EQDQ01+000000PRSWM2
0200107550999992000012413554+49320+010630FM-15+0467ETEB V0202601N001512200019N0112651N1-00801-00901999999ADDGD12991+0090099GD22991+0600099GF102991999999999999999999MA1102171999999MW1001REMMET092ETEB 241355Z 26003KT 9999 FEW030 FEW200 M08/M09 A3017 RMK PK WND 30005/49 SLPNO 8/101 9/101;EQDQ01+000000PRSWM2
0178107550999992000012414554+49320+010630FM-15+0467ETEB V0202101N001512200019N0112651N1-00701-00901999999ADDGD12991+0600099GF102991999999999999999999MA1102201999999MW1001REMMET085ETEB 241455Z 21003KT 9999 FEW200 M07/M09 A3018 RMK PK WND 25005/03 SLPNO 8/001 9/001;EQDQ01+000000PRSWM2
0178107550999992000012415554+49320+010630FM-15+0467ETEB V0203101N001012200019N0112651N1-00801-00901999999ADDGD12991+0600099GF102991999999999999999999MA1102201999999MW1001REMMET085ETEB 241555Z 31002KT 9999 FEW200 M08/M09 A3018 RMK PK WND 31003/55 SLPNO 8/001 9/002;EQDQ01+000000PRSWM2
0178107550999992000012416554+49320+010630FM-15+0467ETEB V0203001N002112200019N0112651N1-01001-01001999999ADDGD12991+0600099GF102991999999999999999999MA1102241999999MW1001REMMET085ETEB 241655Z 30004KT 9999 FEW200 M10/M10 A3019 RMK PK WND 30005/51 SLPNO 8/001 9/002;EQDQ01+000000PRSWM2
0178107550999992000012417554+49320+010630FM-15+0467ETEB V0202501N002612200019N0112651N1-01101-01101999999ADDGD12991+0600099GF102991999999999999999999MA1102271999999MW1001REMMET085ETEB 241755Z 25005KT 9999 FEW200 M11/M11 A3020 RMK PK WND 28012/21 SLPNO 8/001 9/002;EQDQ01+000000PRSWM2
0178107550999992000012418554+49320+010630FM-15+0467ETEB V0202501N002612200019N0112651N1-01101-01101999999ADDGD12991+0600099GF102991999999999999999999MA1102301999999MW1001REMMET085ETEB 241855Z 25005KT 9999 FEW200 M11/M11 A3021 RMK PK WND 25006/35 SLPNO 8/001 9/002;EQDQ01+000000PRSWM2
0178107550999992000012419554+49320+010630FM-15+0467ETEB V0202801N001512200019N0112651N1-01201-01201999999ADDGD12991+0600099GF102991999999999999999999MA1102341999999MW1001REMMET085ETEB 241955Z 28003KT 9999 FEW200 M12/M12 A3022 RMK PK WND 26007/33 SLPNO 8/001 9/002;EQDQ01+000000PRSWM2
0205107550999992000012420554+49320+010630FM-15+0467ETEB V0202401N002112200019N0112651N1-01201-01201999999ADDGD12991+0180099GD22991+0600099GF102991999999999999999999MA1102371999999MW1001REMMET097ETEB 242055Z 24004KT 9999 FEW060 FEW200 M12/M12 A3023 RMK PK WND 26005/55 SLPNO 8/101 9/101 LAST;EQDQ01+000000PRSWM2
0154107550999992000012504574+49320+010630FM-15+0467ETEB V0202401N002112200019N0112651N1-01401-01501999999ADDGF100991999999999999999999MA1102441999999MW1001REMMET076ETEB 250457Z 24004KT 9999 SKC M14/M15 A3025 RMK PK WND 24006/17 SLPNO FIRST;EQDQ01+000000PRSWM2
0201107550999992000012505594+49320+010630FM-15+0467ETEB V0203001N002112200019N0112651N1-01401-01401999999ADDAJ100089199999999GD12991+0360099GF102991999999999999999999MA1102511999999MW1001REMMET091ETEB 250559Z 30004KT 9999 FEW120 M14/M14 A3027 RMK PK WND 29005/54 SLPNO 4/003 8/010 9/070;EQDQ01+000000PRSWM2
0197107550999992000012506554+49320+010630FM-15+0467ETEB V0202401N002112200019N0070001N1-01401-01401999999ADDGD12991+0360099GF102991999999999999999999MA1102541999999MW1101REMMET088ETEB 250655Z 24004KT 7000 BR FEW120 M14/M14 A3028 RMK PK WND 24005/55 SLPNO 8/010 9/070;EQDQ01+000003PRSWM1Q02    003PRSWM1
0167107550999992000012507554+49320+010630FM-15+0467ETEB V0202501N002112200019N0080001N1-01501-01501999999ADDGF100991999999999999999999MA1102641999999MW1101REMMET073ETEB 250755Z 25004KT 8000 BR SKC M15/M15 A3031 RMK PK WND 24005/54 SLPNO;EQDQ01+000003PRSWM1Q02    003PRSWM1
0167107550999992000012508574+49320+010630FM-15+0467ETEB V0201801N002112200019N0070001N1-01201-01201999999ADDGF100991999999999999999999MA1102681999999MW1101REMMET073ETEB 250857Z 18004KT 7000 BR SKC M12/M12 A3032 RMK PK WND 18005/47 SLPNO;EQDQ01+000003PRSWM1Q02    003PRSWM1
0167107550999992000012509594+49320+010630FM-15+0467ETEB V02099999999992200019N0080001N1-01001-01001999999ADDGF100991999999999999999999MA1102681999999MW1101REMMET073ETEB 250959Z VRB03KT 8000 BR SKC M10/M10 A3032 RMK PK WND 17015/28 SLPNO;EQDQ01+000003PRSWM1Q02    003PRSWM1
0167107550999992000012510554+49320+010630FM-15+0467ETEB V02099999999992200019N0090001N1-00801-00901999999ADDGF100991999999999999999999MA1102711999999MW1101REMMET073ETEB 251055Z VRB03KT 9000 BR SKC M08/M09 A3033 RMK PK WND 15010/16 SLPNO;EQDQ01+000003PRSWM1Q02    003PRSWM1
0201107550999992000012511554+49320+010630FM-15+0467ETEB V02099999999992200019N0112651N1-00601-00801999999ADDAJ100089199999999GD12991+0060099GF102991999999999999999999MA1102741999999MW1001REMMET091ETEB 251155Z VRB02KT 9999 FEW020 M06/M08 A3034 RMK PK WND 18005/58 SLPNO 4/003 8/001 9/001;EQDQ01+000000PRSWM2
0191107550999992000012513004+49320+010630FM-15+0467ETEB V0209999V001012200019N0112651N1-00601-00801999999ADDGD12991+0060099GF102991999999999999999999MA1102741999999MW1001REMMET098ETEB 251255Z COR VRB02KT 9999 FEW020 M06/M08 A3034 RMK PK WND 16005/01 SLPNO 8/100 9/100 COR 1351;EQDQ01+000000PRSWM2
0178107550999992000012513554+49320+010630FM-15+0467ETEB V0202101N002112200019N0112651N1-00601-00901999999ADDGD12991+0060099GF102991999999999999999999MA1102741999999MW1001REMMET085ETEB 251355Z 21004KT 9999 FEW020 M06/M09 A3034 RMK PK WND 03014/27 SLPNO 8/100 9/100;EQDQ01+000000PRSWM2
0178107550999992000012514554+49320+010630FM-15+0467ETEB V0201801N001512200019N0112651N1-00601-00901999999ADDGD12991+0060099GF102991999999999999999999MA1102781999999MW1001REMMET085ETEB 251455Z 18003KT 9999 FEW020 M06/M09 A3035 RMK PK WND 35007/33 SLPNO 8/100 9/100;EQDQ01+000000PRSWM2
0178107550999992000012515554+49320+010630FM-15+0467ETEB V0201301N002112200019N0112651N1-00601-00901999999ADDGD12991+0060099GF102991999999999999999999MA1102811999999MW1001REMMET085ETEB 251555Z 13004KT 9999 FEW020 M06/M09 A3036 RMK PK WND 14016/10 SLPNO 8/100 9/100;EQDQ01+000000PRSWM2
0171107550999992000012517554+49320+010630FM-15+0467ETEB V0202001N002112200019N0112651N1-00901-00901999999ADDAJ100059199999999GF100991999999999999999999MA1102881999999MW1001REMMET076ETEB 251755Z 20004KT 9999 SKC M09/M09 A3038 RMK PK WND 17009/47 SLPNO 4/002;EQDQ01+000000PRSWM2
0148107550999992000012518554+49320+010630FM-15+0467ETEB V0202401N001512200019N0112651N1-01101-01101999999ADDGF100991999999999999999999MA1102881999999MW1001REMMET070ETEB 251855Z 24003KT 9999 SKC M11/M11 A3038 RMK PK WND 29015/12 SLPNO;EQDQ01+000000PRSWM2
