0237118410999992000010100004+49230+018620FM-12+031599999V0209999C000010012019N0022001N1-00761-00811102731ADDAA106000091AY141061AY221061GA1081+001209079GF108991081061001501999999GJ100489MA1999999098721MD1110021+9999MW1101REMSYN094AAXX  01001 11841 31222 80000 11076 21081 39872 40273 51002 71042 886// 333 55008 88704 93501;EQDQ01  00002PRCP06
0101118410999992000010103004+49230+018620FM-12+031599999V0209999C000019999999N9999999N1-00761-00831102801ADDMA1999999098791MD1210081+9999REMSYN060AAXX  01031 11841 46/// /0000 11076 21083 39879 40280 52008;
0289118410999992000010106004+49230+018620FM-12+031599999V0209999C000010009019N0028001N1-00771-00841102871ADDAA106000091AJ100219199999999AY121061AY221061GA1081+000909079GF108991081061001501999999IA1279IA2999-01609KA1120N-01241MA1999999098851MD1310061+9999MW1101REMSYN106AAXX  01061 11841 31228 80000 11077 21084 39885 40287 53006 71022 886// 333 21124 3/116 43021 88703 93501;EQDQ01  00002PRCP06
0193118410999992000010109004+49230+018620FM-12+031599999V0200801N001010012019N0020001N1-00791-00871102901ADDAY121031AY221031GA1081+001209079GF108991081061001501999999MA1999999098881MD1110031+9999MW1101REMSYN088AAXX  01091 11841 41220 80801 11079 21087 39888 40290 51003 71022 886// 333 88704 93501;
0217118410999992000010112004+49230+018620FM-12+031599999V0200901N001012200019N0050001N1-00621-00861102731ADDAA106000091AY111061AY211061GA1031+051009019GF103991001001999999001021MA1999999098741MD1710141+9999MW1101REMSYN082AAXX  01121 11841 31950 30901 11062 21086 39874 40273 57014 71011 80002 333 83067;EQDQ01  00002PRCP06
0193118410999992000010115004+49230+018620FM-12+031599999V0201001N00201090001CN0024001N1-00621-00731102691ADDAY111031AY211031GA1041+015009069GF107991041051017501001061MA1999999098701MD1610041+9999MW1101REMSYN088AAXX  01151 11841 41724 71002 11062 21073 39870 40269 56004 71011 84506 333 84650 86265;
0242118410999992000010118004+49230+018620FM-12+031599999V0200901N00101007501CN0035001N1-00701-00781102691ADDAA106000091AY111061AY211061GA1021+006309069GF107991071051008001999999KA1120M-00551MA1999999098691MD1610011+9999MW1101REMSYN094AAXX  01181 11841 31535 70901 11070 21078 39869 40269 56001 71011 875// 333 11055 82621 87650;EQDQ01  00002PRCP06
0187118410999992000010121004+49230+018620FM-12+031599999V0200701N002010090019N0032001N1-00631-00741102651ADDAY121031AY221031GA1081+009009059GF108991081051008001999999MA1999999098661MD1810031+9999MW1101REMSYN082AAXX  01211 11841 41532 80702 11063 21074 39866 40265 58003 71022 885// 333 88630;
0231118410999992000010200004+49230+018620FM-12+031599999V0200801N002010090019N0026001N1-00571-00681102641ADDAA106000091AY121061AY221061GA1081+009009059GF108991081051008001999999GJ100789MA1999999098661MD1510001+9999MW1101REMSYN088AAXX  02001 11841 31526 80802 11057 21068 39866 40264 55000 71022 885// 333 55013 88630;EQDQ01  00002PRCP06
0206118410999992000010203004+49230+018620FM-12+031599999V0201101N001012200019N0028001N1-00721-00831102711ADDAY111031AY211031GA1021+015009059GF102991021051017501999001MA1999999098711MD1110051+9999MW1101REMSYN082AAXX  02031 11841 41728 21101 11072 21083 39871 40271 51005 71011 82500 333 82650;EQDQ01    003SCOMCG
0276118410999992000010206004+49230+018620FM-12+031599999V0200801N00201007501CN0028001N1-00691-00781102851ADDAA112000791AJ100219199999999AY171061AY221061GA1041+008409069GF108991081051008001999999IA1279IA2999-01209KA1120N-00901MA1999999098851MD1310141+9999MW1101REMSYN112AAXX  02061 11841 11528 80802 11069 21078 39885 40285 53014 69902 71072 885// 333 21090 3/112 43021 84628 88633;
0187118410999992000010209004+49230+018620FM-12+031599999V0209999C000010066019N0048001N1-00521-00691103021ADDAY121031AY221031GA1081+006609059GF108991081051008001999999MA1999999099041MD1210191+9999MW1101REMSYN082AAXX  02091 11841 41548 80000 11052 21069 39904 40302 52019 71022 885// 333 88622;
0217118410999992000010212004+49230+018620FM-12+031599999V0209999C000010048019N0050001N1-00361-00611103031ADDAA106000091AY121061AY221061GA1081+004809059GF108991081051004501999999MA1999999099071MD1210031+9999MW1101REMSYN082AAXX  02121 11841 31450 80000 11036 21061 39907 40303 52003 71022 885// 333 88616;EQDQ01  00002PRCP06
0187118410999992000010215004+49230+018620FM-12+031599999V0209999C000010045019N0045001N1-00341-00561103061ADDAY121031AY221031GA1081+004509069GF108991081061004501999999MA1999999099101MD1310031+9999MW1101REMSYN082AAXX  02151 11841 41445 80000 11034 21056 39910 40306 53003 71022 886// 333 88715;
0236118410999992000010218004+49230+018620FM-12+031599999V0209999C000010045019N0037001N1-00361-00471103141ADDAA106000091AY121061AY221061GA1081+004509069GF108991081061004501999999KA1120M-00301MA1999999099171MD1110071+9999MW1101REMSYN088AAXX  02181 11841 31437 80000 11036 21047 39917 40314 51007 71022 886// 333 11030 88715;EQDQ01  00002PRCP06
0187118410999992000010221004+49230+018620FM-12+031599999V0209999C000010024019N0035001N1-00361-00411103141ADDAY171031AY221031GA1081+002409069GF108991081061002501999999MA1999999099171MD1010001+9999MW1221REMSYN082AAXX  02211 11841 41335 80000 11036 21041 39917 40314 50000 72272 886// 333 88708;
0218118410999992000010300004+49230+018620FM-12+031599999V0209999C000010024019N0032001N1-00351-00401103111ADDAA106000791AY171061AY221061GA1081+002409069GF108991081061002501999999GJ100009MA1999999099151MD1810021+9999MW1101REMSYN094AAXX  03001 11841 11332 80000 11035 21040 39915 40311 58002 69901 71072 886// 333 55000 88708;
0270118410999992000010306004+49230+018620FM-12+031599999V0202701N003010015019N0060001N1-00251-00321102901ADDAA112000791AJ100219199999999AY121061AY221061GA1081+001509069GF108991081061001501999999IA1279IA2999-00409KA1120N-00371MA1999999098961MD1610071+9999MW1101REMSYN106AAXX  03061 11841 11256 82703 11025 21032 39896 40290 56007 69902 71022 886// 333 21037 3/104 43021 88705;
0187118410999992000010309004+49230+018620FM-12+031599999V0202601N003010012019N0020001N1-00221-00291102961ADDAY171031AY221031GA1081+001209069GF108991081071001501999999MA1999999099021MD1110061+9999MW1711REMSYN082AAXX  03091 11841 41220 82603 11022 21029 39902 40296 51006 77172 887// 333 88704;
0204118410999992000010312004+49230+018620FM-12+031599999V0202701N004010024019N0025001N1-00141-00211102771ADDAA106000791AY171061AY221061GA1081+002409069GF108991081071002501999999MA1999999098851MD1710171+9999MW1221REMSYN088AAXX  03121 11841 11325 82704 11014 21021 39885 40277 57017 69901 72272 887// 333 88708;
0187118410999992000010315004+49230+018620FM-12+031599999V0202601N001010018019N0020001N1-00151-00221102711ADDAY121031AY221031GA1081+001809069GF108991081061001501999999MA1999999098791MD1710061+9999MW1101REMSYN082AAXX  03151 11841 41220 82601 11015 21022 39879 40271 57006 71022 886// 333 88706;
0223118410999992000010318004+49230+018620FM-12+031599999V0202601N002010021019N0030001N1-00171-00221102651ADDAA112000791AY121061AY221061GA1081+002109069GF108991081061002501999999KA1120M-00131MA1999999098731MD1810061+9999MW1101REMSYN094AAXX  03181 11841 11330 82602 11017 21022 39873 40265 58006 69902 71022 886// 333 11013 88707;
0187118410999992000010321004+49230+018620FM-12+031599999V0202601N002010012019N0022001N1-00171-00201102601ADDAY121031AY221031GA1081+001209069GF108991081061001501999999MA1999999098681MD1610051+9999MW1101REMSYN082AAXX  03211 11841 41222 82602 11017 21020 39868 40260 56005 71022 886// 333 88704;
0231118410999992000010400004+49230+018620FM-12+031599999V0202801N002010015019N0022001N1-00171-00211102541ADDAA106000091AY121061AY221061GA1081+001509069GF108991081061001501999999GJ100009MA1999999098631MD1610051+9999MW1101REMSYN088AAXX  04001 11841 31222 82802 11017 21021 39863 40254 56005 71022 886// 333 55000 88705;EQDQ01  00002PRCP06
0187118410999992000010403004+49230+018620FM-12+031599999V0209999C000010021019N0028001N1-00191-00241102481ADDAY171031AY221031GA1081+002109069GF108991081071002501999999MA1999999098571MD1610061+9999MW1701REMSYN082AAXX  04031 11841 41328 80000 11019 21024 39857 40248 56006 77072 887// 333 88707;
0270118410999992000010406004+49230+018620FM-12+031599999V0202901N001010024019N0035001N1-00181-00251102451ADDAA112000791AJ100219199999999AY171061AY221061GA1081+002409069GF108991081061002501999999IA1239IA2999-00209KA1120N-00201MA1999999098541MD1610031+9999MW1101REMSYN106AAXX  04061 11841 11335 82901 11018 21025 39854 40245 56003 69902 71072 886// 333 21020 3/102 47021 88708;
0101118410999992000010409004+49230+018620FM-12+031599999V0202801N002019999999N9999999N1-00101-00241102491ADDMA1999999098591MD1210051+9999REMSYN060AAXX  04091 11841 46/// /2802 11010 21024 39859 40249 52005;
0217118410999992000010412004+49230+018620FM-12+031599999V0202801N002010018019N0040001N1-00071-00181102361ADDAA106000091AY121061AY221061GA1081+001809069GF108991081061002501999999MA1999999098471MD1610131+9999MW1101REMSYN082AAXX  04121 11841 31340 82802 11007 21018 39847 40236 56013 71022 886// 333 88706;EQDQ01  00002PRCP06
0187118410999992000010415004+49230+018620FM-12+031599999V0202901N002010012019N0017001N1-00061-00121102371ADDAY121031AY221031GA1081+001209069GF108991081071001501999999MA1999999098481MD1310011+9999MW1101REMSYN082AAXX  04151 11841 41217 82902 11006 21012 39848 40237 53001 71022 887// 333 88704;
0236118410999992000010418004+49230+018620FM-12+031599999V0202601N002010030019N0050001N1-00111-00191102381ADDAA106000091AY121061AY221061GA1081+003009069GF108991081061004501999999KA1120M-00041MA1999999098481MD1510001+9999MW1101REMSYN088AAXX  04181 11841 31450 82602 11011 21019 39848 40238 55000 71022 886// 333 11004 88710;EQDQ01  00002PRCP06
0101118410999992000010421004+49230+018620FM-12+031599999V0202701N002019999999N9999999N1-00111-00191102301ADDMA1999999098411MD1710061+9999REMSYN060AAXX  04211 11841 46/// /2702 11011 21019 39841 40230 57006;
0231118410999992000010500004+49230+018620FM-12+031599999V0202501N002010015019N0012001N1-00121-00161102211ADDAA106000091AY121061AY221061GA1081+001509069GF108991081061001501999999GJ100009MA1999999098321MD1610091+9999MW1101REMSYN088AAXX  05001 11841 31212 82502 11012 21016 39832 40221 56009 71022 886// 333 55000 88705;EQDQ01  00002PRCP06
0187118410999992000010503004+49230+018620FM-12+031599999V0202501N001010018019N0012001N1-00131-00201102091ADDAY171031AY221031GA1081+001809069GF108991081071002501999999MA1999999098201MD1610121+9999MW1701REMSYN082AAXX  05031 11841 41312 82501 11013 21020 39820 40209 56012 77072 887// 333 88706;
0270118410999992000010506004+49230+018620FM-12+031599999V0202701N002010018019N0012001N1-00161-00231102131ADDAA112000391AJ100219199999999AY171061AY221061GA1081+001809069GF108991081071002501999999IA1239IA2999-00209KA1120N-00161MA1999999098231MD1110031+9999MW1701REMSYN106AAXX  05061 11841 11312 82702 11016 21023 39823 40213 51003 69932 77072 887// 333 21016 3/102 47021 88706;
0187118410999992000010509004+49230+018620FM-12+031599999V0202801N001010027019N0040001N1-00121-00221102201ADDAY171031AY221031GA1081+002709069GF108991081071002501999999MA1999999098311MD1210081+9999MW1701REMSYN082AAXX  05091 11841 41340 82801 11012 21022 39831 40220 52008 77072 887// 333 88709;
0204118410999992000010512004+49230+018620FM-12+031599999V0202601N004010027019N0035001N1-00041-00151102201ADDAA106000791AY171061AY221061GA1081+002709069GF108991081071002501999999MA1999999098321MD1010011+9999MW1701REMSYN088AAXX  05121 11841 11335 82604 11004 21015 39832 40220 50001 69901 77072 887// 333 88709;
0187118410999992000010515004+49230+018620FM-12+031599999V0202401N002012200019N0028001N1-00201-00301102351ADDAY171031AY211031GA1031+009309029GF103991031011008001001001MA1999999098441MD1310121+9999MW1101REMSYN082AAXX  05151 11841 41528 32402 11020 21030 39844 40235 53012 71071 83100 333 83831;
0217118410999992000010518004+49230+018620FM-12+031599999V0201301N001010006019N0002001N1-00351-00361102531ADDAA112000791AY171061AY211061GA1091+000609999GF109991091999999999999999KA1120M+00111MA1999999098591MD1210151+9999MW1451REMSYN088AAXX  05181 11841 11/02 91301 11035 21036 39859 40253 52015 69902 74571 333 10011 89/02;
0187118410999992000010521004+49230+018620FM-12+031599999V0209999C000010003019N0002001N1-00491-00501102691ADDAY141031AY241031GA1091+000309999GF109991091999999999999999MA1999999098721MD1110131+9999MW1451REMSYN082AAXX  05211 11841 41/02 90000 11049 21050 39872 40269 51013 74544 333 89/01 93501;
0187118410999992000010603004+49230+018620FM-12+031599999V0209999C000010003019N0002001N1-00641-00681102761ADDAY141031AY241031GA1091+000309999GF109991091999999999999999MA1999999098771MD1010021+9999MW1471REMSYN082AAXX  06031 11841 41/02 90000 11064 21068 39877 40276 50002 74744 333 89/01 93502;
0289118410999992000010606004+49230+018620FM-12+031599999V0209999C000010003019N0010001N1-00711-00761102821ADDAA106000091AJ100219199999999AY141061AY221061GA1081+000309079GF108991081061000251999999IA1239IA2999-00809KA1120N-00711MA1999999098811MD1310041+9999MW1281REMSYN106AAXX  06061 11841 31010 80000 11071 21076 39881 40282 53004 72842 886// 333 21071 3/108 47021 88701 93502;EQDQ01  00002PRCP06
0193118410999992000010609004+49230+018620FM-12+031599999V0209999C000010006019N0008001N1-00621-00691102791ADDAY141031AY221031GA1051+000609079GF105991051061000751001001MA1999999098801MD1810011+9999MW1421REMSYN088AAXX  06091 11841 41108 50000 11062 21069 39880 40279 58001 74242 85600 333 85702 93503;
0201118410999992000010612004+49230+018620FM-12+031599999V0209999C000012200019N0030001N1-00291-00361102681ADDAA106000091AY141061AY211061GA1001+999999999GF100991001001999999001001MA1999999098741MD1710061+9999MW1101REMSYN066AAXX  06121 11841 31930 00000 11029 21036 39874 40268 57006 71041;EQDQ01  00002PRCP06
0193118410999992000010615004+49230+018620FM-12+031599999V0201001N001012200019N0048001N1-00391-00471102681ADDAY101031AY201031GA1011+060009009GF101991001001999999001011MA1999999098731MD1510011+9999MW1101REMSYN088AAXX  06151 11841 41948 11001 11039 21047 39873 40268 55001 71000 80001 333 81070 93503;
0230118410999992000010618004+49230+018620FM-12+031599999V0209999C000012200019N0012001N1-00961-01011102801ADDAA106000091AY101061AY201061GA1001+999999999GF100991001001999999001001KA1120M-00251MA1999999098761MD1310031+9999MW1101REMSYN082AAXX  06181 11841 31912 00000 11096 21101 39876 40280 53003 71000 333 11025 93503;EQDQ01  00002PRCP06
0193118410999992000010621004+49230+018620FM-12+031599999V0209999C000010001519N0006001N1-00791-00831102801ADDAY141031AY211031GA1081+000159079GF108991081061000251999999MA1999999098781MD1210021+9999MW1441REMSYN088AAXX  06211 11841 41006 80000 11079 21083 39878 40280 52002 74441 886// 333 88700 93503;
0231118410999992000010700004+49230+018620FM-12+031599999V0209999C000010003019N0006001N1-00761-00801102821ADDAA106000091AY141061AY211061GA1091+000309999GF109991091999999999999999GJ102349MA1999999098811MD1110031+9999MW1431REMSYN088AAXX  07001 11841 31/06 90000 11076 21080 39881 40282 51003 74341 333 55039 89/01 93504;EQDQ01  00002PRCP06
0311118410999992000010706004+49230+018620FM-12+031599999V0209999C000010096019N0025001N1-00751-00801102921ADDAA106000091AJ100219199999999AY141061AY221061GA1021+000609079GA2061+009609069GF107991071051000751001001IA1239IA2999-01409KA1120N-01011MA1999999098901MD1010031+9999MW1101REMSYN112AAXX  07061 11841 31125 70000 11075 21080 39890 40292 50003 71042 87500 333 21101 3/114 47021 82702 86632 93505;EQDQ01  00002PRCP06
0193118410999992000010709004+49230+018620FM-12+031599999V0209999C000010066019N0022001N1-00651-00721102991ADDAY121031AY221031GA1081+006609069GF108991081051008001999999MA1999999098991MD1210091+9999MW1101REMSYN088AAXX  07091 11841 41522 80000 11065 21072 39899 40299 52009 71022 885// 333 88622 93507;
0131118410999992000010712004+49230+018620FM-12+031599999V0202801N001019999999N9999999N1-00481-00541102931ADDAA106000091MA1999999098961MD1710021+9999REMSYN060AAXX  07121 11841 36/// /2801 11048 21054 39896 40293 57002;EQDQ01  00002PRCP06
0193118410999992000010715004+49230+018620FM-12+031599999V0209999C000010036019N0015001N1-00391-00431102981ADDAY121031AY221031GA1081+003609079GF108991081061004501999999MA1999999099021MD1210061+9999MW1101REMSYN088AAXX  07151 11841 41415 80000 11039 21043 39902 40298 52006 71022 886// 333 88712 93506;
0242118410999992000010718004+49230+018620FM-12+031599999V0209999C000010021019N0023001N1-00361-00401102971ADDAA106000091AY121061AY221061GA1081+002109079GF108991081061002501999999KA1120M-00361MA1999999099011MD1510011+9999MW1101REMSYN094AAXX  07181 11841 31323 80000 11036 21040 39901 40297 55001 71022 886// 333 11036 88707 93506;EQDQ01  00002PRCP06
0193118410999992000010721004+49230+018620FM-12+031599999V0209999C000010027019N0025001N1-00351-00401103011ADDAY121031AY221031GA1081+002709079GF108991081061002501999999MA1999999099051MD1110041+9999MW1101REMSYN088AAXX  07211 11841 41325 80000 11035 21040 39905 40301 51004 71022 886// 333 88709 93506;
0237118410999992000010800004+49230+018620FM-12+031599999V0202701N001010024019N0028001N1-00351-00401102951ADDAA106000091AY121061AY221061GA1081+002409079GF108991081061002501999999GJ100009MA1999999098991MD1710061+9999MW1101REMSYN094AAXX  08001 11841 31328 82701 11035 21040 39899 40295 57006 71022 886// 333 55000 88708 93506;EQDQ01  00002PRCP06
0193118410999992000010803004+49230+018620FM-12+031599999V0209999C000010021019N0032001N1-00341-00381102891ADDAY121031AY221031GA1081+002109079GF108991081061002501999999MA1999999098941MD1710051+9999MW1101REMSYN088AAXX  08031 11841 41332 80000 11034 21038 39894 40289 57005 71022 886// 333 88707 93506;
0289118410999992000010806004+49230+018620FM-12+031599999V0209999C000010024019N0024001N1-00331-00371102851ADDAA106000091AJ100219199999999AY121061AY221061GA1081+002409079GF108991081061002501999999IA1239IA2999-00409KA1120N-00371MA1999999098901MD1510041+9999MW1101REMSYN106AAXX  08061 11841 31324 80000 11033 21037 39890 40285 55004 71022 886// 333 21037 3/104 47021 88708 93506;EQDQ01  00002PRCP06
0215118410999992000010809004+49230+018620FM-12+031599999V0203001N001010027019N0023001N1-00221-00301102901ADDAY121031AY221031GA1051+002709079GA2071+015009069GF107991071051002501001001MA1999999098971MD1110071+9999MW1101REMSYN094AAXX  08091 11841 41323 73001 11022 21030 39897 40290 51007 71022 87500 333 85709 87650 93506;
0223118410999992000010812004+49230+018620FM-12+031599999V0202501N003010030019N0030001N1-00101-00231102821ADDAA106000091AY121061AY221061GA1081+003009079GF108991081061004501999999MA1999999098901MD1810071+9999MW1101REMSYN088AAXX  08121 11841 31430 82503 11010 21023 39890 40282 58007 71022 886// 333 88710 93506;EQDQ01  00002PRCP06
0193118410999992000010815004+49230+018620FM-12+031599999V0202701N00201004201CN0034001N1-00081-00211102781ADDAY121031AY221031GA1041+003009079GF108991081051004501999999MA1999999098871MD1510031+9999MW1101REMSYN088AAXX  08151 11841 41434 82702 11008 21021 39887 40278 55003 71022 885// 333 84710 88633;
0242118410999992000010818004+49230+018620FM-12+031599999V0202801N00201004201CN0038001N1-00121-00221102841ADDAA106000091AY121061AY221061GA1031+003009079GF108991081051004501999999KA1120M-00071MA1999999098921MD1310051+9999MW1101REMSYN094AAXX  08181 11841 31438 82802 11012 21022 39892 40284 53005 71022 885// 333 11007 83710 88631;EQDQ01  00002PRCP06
0187118410999992000010821004+49230+018620FM-12+031599999V0202501N003010102019N0050001N1-00141-00241102821ADDAY121031AY221031GA1081+010209059GF108991081051012501999999MA1999999098901MD1510021+9999MW1101REMSYN082AAXX  08211 11841 41650 82503 11014 21024 39890 40282 55002 71022 885// 333 88634;
0231118410999992000010900004+49230+018620FM-12+031599999V0202601N002010093019N0050001N1-00161-00241102801ADDAA106000091AY121061AY221061GA1081+009309059GF108991081051008001999999GJ100009MA1999999098881MD1810021+9999MW1101REMSYN088AAXX  09001 11841 31550 82602 11016 21024 39888 40280 58002 71022 885// 333 55000 88631;EQDQ01  00002PRCP06
0187118410999992000010903004+49230+018620FM-12+031599999V0209999C000010087019N0048001N1-00171-00251102761ADDAY121031AY221031GA1081+008709059GF108991081051008001999999MA1999999098841MD1810041+9999MW1101REMSYN082AAXX  09031 11841 41548 80000 11017 21025 39884 40276 58004 71022 885// 333 88629;
0187118410999992000010909004+49230+018620FM-12+031599999V0202801N001010078019N0050001N1-00101-00231102841ADDAY121031AY221031GA1081+007809059GF108991081051008001999999MA1999999098921MD1210071+9999MW1101REMSYN082AAXX  09091 11841 41550 82801 11010 21023 39892 40284 52007 71022 885// 333 88626;
0217118410999992000010912004+49230+018620FM-12+031599999V0202501N002010060019N0050001N1-00011-00201102751ADDAA106000091AY141061AY211061GA1071+006009069GF107991071071008001999999MA1999999098851MD1610071+9999MW1101REMSYN082AAXX  09121 11841 31550 72502 11001 21020 39885 40275 56007 71041 877// 333 87720;EQDQ01  00002PRCP06
0101118410999992000010915004+49230+018620FM-12+031599999V0203001N001019999999N9999999N1-00041-00201102761ADDMA1999999098861MD1410001+9999REMSYN060AAXX  09151 11841 46/// /3001 11004 21020 39886 40276 54000;
0154118410999992000010918004+49230+018620FM-12+031599999V0203001N001019999999N9999999N1-00111-00221102831ADDAA106000091KA1999M+00021MA1999999098921MD1210071+9999REMSYN070AAXX  09181 11841 36/// /3001 11011 21022 39892 40283 52007 333 10002;EQDQ01  00002PRCP06
0101118410999992000010921004+49230+018620FM-12+031599999V0202901N001019999999N9999999N1-00171-00241102921ADDMA1999999099001MD1210091+9999REMSYN060AAXX  09211 11841 46/// /2901 11017 21024 39900 40292 52009;
0217118410999992000011000004+49230+018620FM-12+031599999V0209999C000010075019N0050001N1-00201-00271103021ADDAA106000091AY121061AY221061GA1081+007509059GF108991081051008001999999MA1999999099081MD1110081+9999MW1101REMSYN082AAXX  10001 11841 31550 80000 11020 21027 39908 40302 51008 71022 885// 333 88625;EQDQ01  00002PRCP06
0187118410999992000011003004+49230+018620FM-12+031599999V0202701N001010042019N0060001N1-00181-00251103081ADDAY121031AY221031GA1081+004209069GF108991081061004501999999MA1999999099141MD1110061+9999MW1101REMSYN082AAXX  10031 11841 41456 82701 11018 21025 39914 40308 51006 71022 886// 333 88714;
0270118410999992000011006004+49230+018620FM-12+031599999V0209999C000010030019N0030001N1-00191-00231103181ADDAA112000791AJ100209199999999AY171061AY221061GA1081+003009069GF108991081071004501999999IA1239IA2999-00409KA1120N-00241MA1999999099241MD1110101+9999MW1701REMSYN106AAXX  10061 11841 11430 80000 11019 21023 39924 40318 51010 69902 77072 887// 333 21024 3/104 47020 88710;
0187118410999992000011009004+49230+018620FM-12+031599999V0209999C000010009019N0028001N1-00101-00201103331ADDAY171031AY221031GA1081+000909069GF108991081061000751999999MA1999999099401MD1110161+9999MW1101REMSYN082AAXX  10091 11841 41128 80000 11010 21020 39940 40333 51016 71072 886// 333 88703;
0204118410999992000011012004+49230+018620FM-12+031599999V0209999C000010018019N0040001N1+00071-00201103361ADDAA106000791AY171061AY221061GA1081+001809069GF108991081061001501999999MA1999999099451MD1110051+9999MW1101REMSYN088AAXX  10121 11841 11240 80000 10007 21020 39945 40336 51005 69901 71072 886// 333 88706;
0193118410999992000011015004+49230+018620FM-12+031599999V0209999C000010033019N0060001N1+00011-00161103481ADDAY121031AY221031GA1061+003309079GF108991081051004501999999MA1999999099561MD1310111+9999MW1101REMSYN088AAXX  10151 11841 41456 80000 10001 21016 39956 40348 53011 71022 885// 333 86711 88623;
0195118410999992000011018004+49230+018620FM-12+031599999V0200701N001010096019N0150001N1+00051-00271103591ADDAA112000791GA1071+009609059GF107991071051008001001001KA1120M+00091MA1999999099671MD1210111+9999REMSYN088AAXX  10181 11841 12565 70701 10005 21027 39967 40359 52011 69902 87500 333 10009 87632;
0159118410999992000011021004+49230+018620FM-12+031599999V0209999C000010108019N0200001N1-00061-00231103721ADDGA1081+010809059GF108991081051012501999999MA1999999099781MD1310111+9999REMSYN076AAXX  10211 11841 42670 80000 11006 21023 39978 40372 53011 885// 333 88636;
0203118410999992000011100004+49230+018620FM-12+031599999V0200901N001012200019N0200001N1-00161-00271103761ADDAA106000091GA1041+012609059GF104991041051012501001001GJ100009MA1999999099801MD1210021+9999REMSYN082AAXX  11001 11841 32670 40901 11016 21027 39980 40376 52002 84500 333 55000 84642;EQDQ01  00002PRCP06
0159118410999992000011103004+49230+018620FM-12+031599999V0201201N002012200019N0200001N1-00491-00601103861ADDGA1021+013809059GF102991021051012501001001MA1999999099851MD1210051+9999REMSYN076AAXX  11031 11841 42670 21202 11049 21060 39985 40386 52005 82500 333 82646;
0255118410999992000011106004+49230+018620FM-12+031599999V0209999C000010135019N0100001N1-00581-00671103971ADDAA106000091AJ100199199999999GA1071+013509059GF107991071051012501001001IA1279IA2999-01109KA1120N-00731MA1999999099941MD1210091+9999REMSYN094AAXX  11061 11841 32660 70000 11058 21067 39994 40397 52009 87500 333 21073 3/111 43019 87645;EQDQ01  00002PRCP06
0187118410999992000011109004+49230+018620FM-12+031599999V0201001N002012200019N0060001N1-00101-00371103971ADDAY111031AY211031GA1041+012609059GF104991041051012501001001MA1999999100011MD1110071+9999MW1101REMSYN082AAXX  11091 11841 41656 41002 11010 21037 30001 40397 51007 71011 84500 333 84642;
0189118410999992000011112004+49230+018620FM-12+031599999V0200801N002012200019N0200001N1+00211-00531103871ADDAA106000091GA1011+012909029GF102991011011012501031001MA1999999099961MD1810051+9999REMSYN076AAXX  11121 11841 32670 20802 10021 21053 39996 40387 58005 81130 333 81843;EQDQ01  00002PRCP06
0159118410999992000011115004+49230+018620FM-12+031599999V0209999C000010129019N0200001N1+00071-00381103911ADDGA1071+012909059GF107991071051012501001001MA1999999099981MD1210021+9999REMSYN076AAXX  11151 11841 42670 70000 10007 21038 39998 40391 52002 87500 333 87643;
0208118410999992000011118004+49230+018620FM-12+031599999V0209999C000010123019N0100001N1-00171-00311103981ADDAA106000091GA1071+012309059GF107991071051012501001001KA1120M+00331MA1999999100011MD1010031+9999REMSYN082AAXX  11181 11841 32660 70000 11017 21031 30001 40398 50003 87500 333 10033 87641;EQDQ01  00002PRCP06
0187118410999992000011121004+49230+018620FM-12+031599999V0209999C000010126019N0080001N1-00251-00321104021ADDAY121031AY221031GA1071+012609059GF107991071051012501001001MA1999999100041MD1110031+9999MW1101REMSYN082AAXX  11211 11841 41658 70000 11025 21032 30004 40402 51003 71022 87500 333 87642;
0141118410999992000011200004+49230+018620FM-12+031599999V0209999C000019999999N9999999N1-00421-00511103981ADDAA106000091MA1999999099981MD1710071+9999REMSYN070AAXX  12001 11841 36/// /0000 11042 21051 39998 40398 57007 333 55044;EQDQ01  00002PRCP06
0187118410999992000011203004+49230+018620FM-12+031599999V0209999C000012200019N0018001N1-00701-00711103981ADDAY101031AY201031GA1011+011109059GF101991011051012501001001MA1999999099931MD1610031+9999MW1101REMSYN082AAXX  12031 11841 41618 10000 11070 21071 39993 40398 56003 71000 81500 333 81637;
0283118410999992000011206004+49230+018620FM-12+031599999V0209999C000012200019N0050001N1-00801-00851103981ADDAA106000091AJ100189199999999AY111061AY211061GA1011+012309059GF101991011051012501001001IA1279IA2999-01309KA1120N-00831MA1999999099921MD1810011+9999MW1101REMSYN100AAXX  12061 11841 31650 10000 11080 21085 39992 40398 58001 71011 81500 333 21083 3/113 43018 81641;EQDQ01  00002PRCP06
0171118410999992000011209004+49230+018620FM-12+031599999V0209999C000012200019N0025001N1-00661-00881103981ADDAY101031AY201031GA1001+999999999GF100991001001999999001001MA1999999099941MD1110021+9999MW1111REMSYN066AAXX  12091 11841 41925 00000 11066 21088 39994 40398 51002 71100;
0201118410999992000011212004+49230+018620FM-12+031599999V0209999C000012200019N0080001N1-00061-00721103701ADDAA106000091AY101061AY201061GA1001+999999999GF100991001001999999001001MA1999999099751MD1710191+9999MW1051REMSYN066AAXX  12121 11841 31958 00000 11006 21072 39975 40370 57019 70500;EQDQ01  00002PRCP06
0159118410999992000011215004+49230+018620FM-12+031599999V0201201N001012200019N0120001N1-00271-00581103631ADDGA1011+010809029GF101991011011012501001001MA1999999099661MD1610091+9999REMSYN076AAXX  12151 11841 42662 11201 11027 21058 39966 40363 56009 81100 333 81836;
0224118410999992000011218004+49230+018620FM-12+031599999V0209999C000012200019N0030001N1-00821-00861103681ADDAA106000091AY101061AY201061GA1001+999999999GF100991001001999999001001KA1999M+00021MA1999999099621MD1710041+9999MW1111REMSYN076AAXX  12181 11841 31930 00000 11082 21086 39962 40368 57004 71100 333 10002;EQDQ01  00002PRCP06
0187118410999992000011221004+49230+018620FM-12+031599999V0209999C000012200019N0002001N1-01271-01331103711ADDAY141031AY201031GA1021+000309069GF102991021061000251001001MA1999999099581MD1810041+9999MW1461REMSYN082AAXX  12211 11841 41002 20000 11127 21133 39958 40371 58004 74640 82600 333 82701;
0237118410999992000011300004+49230+018620FM-12+031599999V0209999C000010006019N0005001N1-01111-01161103631ADDAA106000091AY141061AY211061GA1081+000609079GF108991081061000751999999GJ103669MA1999999099531MD1710051+9999MW1461REMSYN094AAXX  13001 11841 31105 80000 11111 21116 39953 40363 57005 74641 886// 333 55061 88702 93501;EQDQ01  00002PRCP06
0187118410999992000011303004+49230+018620FM-12+031599999V0209999C000010003019N0002001N1-01181-01241103471ADDAY141031AY241031GA1091+000309999GF109991091999999999999999MA1999999099371MD1710161+9999MW1471REMSYN082AAXX  13031 11841 41/02 90000 11118 21124 39937 40347 57016 74744 333 89/01 93502;
0283118410999992000011306004+49230+018620FM-12+031599999V0209999C000010003019N0002001N1-01351-01451103401ADDAA106000091AJ100179199999999AY141061AY241061GA1091+000309999GF109991091999999999999999IA1279IA2999-01709KA1120N-01351MA1999999099271MD1710101+9999MW1471REMSYN100AAXX  13061 11841 31/02 90000 11135 21145 39927 40340 57010 74744 333 21135 3/117 43017 89/01 93503;EQDQ01  00002PRCP06
0193118410999992000011309004+49230+018620FM-12+031599999V0209999C000012200019N0012001N1-01221-01321103401ADDAY171031AY241031GA1041+001509079GF104991041061001501001001MA1999999099291MD1010021+9999MW1221REMSYN088AAXX  13091 11841 41212 40000 11122 21132 39929 40340 50002 72274 84600 333 84705 93505;
0210118410999992000011312004+49230+018620FM-12+031599999V0209999C000012200019N0045001N1-00661-00771103081ADDAA106000791AY171061AY241061GA1041+010809069GF104991041051012501001001MA1999999099071MD1710221+9999MW1101REMSYN094AAXX  13121 11841 11645 40000 11066 21077 39907 40308 57022 69901 71074 84500 333 84636 93504;
0193118410999992000011315004+49230+018620FM-12+031599999V0209999C000010120019N0080001N1-00531-00681102911ADDAY111031AY211031GA1051+012009069GF105991051051012501001001MA1999999098931MD1610141+9999MW1101REMSYN088AAXX  13151 11841 41658 50000 11053 21068 39893 40291 56014 71011 85500 333 85640 93501;
0229118410999992000011318004+49230+018620FM-12+031599999V0209999C000010102019N0045001N1-00631-00681102891ADDAA112000791AY111061AY211061GA1071+010209069GF107991071051012501001001KA1120M-00471MA1999999098891MD1610041+9999MW1101REMSYN100AAXX  13181 11841 11645 70000 11063 21068 39889 40289 56004 69902 71011 87500 333 11047 87634 93501;
0191118410999992000011321004+49230+018620FM-12+031599999V0202601N003010075019N0070001N1-00271-00501102761ADDAY121031AY221031GA1081+007509059GF108991081051008001999999MA1999999098821MD1810071+9999MW1101REMSYN086    AAXX  13211 11841 41557 82603 11027 21050 39882 40276 58007 71022 885// 333 88625;
0207118410999992000011400004+49230+018620FM-12+031599999V0202601N002010081019N0100001N1-00221-00481102681ADDAA199000091GA1081+008109059GF108991081051008001999999GJ101929MA1999999098751MD1710071+9999REMSYN086    AAXX  14001 11841 32560 82602 11022 21048 39875 40268 57007 885// 333 55032 88627;EQDQ01  00002PRCP99
0163118410999992000011403004+49230+018620FM-12+031599999V0202201N002010084019N0120001N1-00151-00501102661ADDGA1081+008409059GF108991081051008001999999MA1999999098741MD1810011+9999REMSYN080    AAXX  14031 11841 42562 82202 11015 21050 39874 40266 58001 885// 333 88628;
0259118410999992000011406004+49230+018620FM-12+031599999V0202901N001010066019N0100001N1-00191-00441102671ADDAA199000091AJ100179199999999GA1081+006609059GF108991081051008001999999IA1279IA2999-00709KA1120N-00631MA1999999098751MD1310011+9999REMSYN098    AAXX  14061 11841 32560 82901 11019 21044 39875 40267 53001 885// 333 21063 3/107 43017 88622;EQDQ01  00002PRCP99
0163118410999992000011409004+49230+018620FM-12+031599999V0202701N002010060019N0120001N1-00121-00391102751ADDGA1081+006009059GF108991081051008001999999MA1999999098831MD1210081+9999REMSYN080    AAXX  14091 11841 42562 82702 11012 21039 39883 40275 52008 885// 333 88620;
0221118410999992000011412004+49230+018620FM-12+031599999V0202801N002010060019N0070001N1-00051-00291102701ADDAA199000091AY121061AY221061GA1081+006009059GF108991081051008001999999MA1999999098801MD1710031+9999MW1101REMSYN086    AAXX  14121 11841 31557 82802 11005 21029 39880 40270 57003 71022 885// 333 88620;EQDQ01  00002PRCP99
0191118410999992000011415004+49230+018620FM-12+031599999V0202501N002010069019N0060001N1-00091-00281102711ADDAY121031AY221031GA1081+006909059GF108991081051008001999999MA1999999098801MD1010001+9999MW1101REMSYN086    AAXX  14151 11841 41556 82502 11009 21028 39880 40271 50000 71022 885// 333 88623;
0240118410999992000011418004+49230+018620FM-12+031599999V0202401N002010060019N0090001N1-00141-00311102821ADDAA199000091AY121061AY221061GA1081+006009059GF108991081051008001999999KA1120M-00021MA1999999098901MD1210101+9999MW1101REMSYN092    AAXX  14181 11841 31559 82402 11014 21031 39890 40282 52010 71022 885// 333 11002 88620;EQDQ01  00002PRCP99
0191118410999992000011421004+49230+018620FM-12+031599999V0202501N001010060019N0080001N1-00191-00301102921ADDAY121031AY221031GA1081+006009059GF108991081051008001999999MA1999999098991MD1210091+9999MW1101REMSYN086    AAXX  14211 11841 41558 82501 11019 21030 39899 40292 52009 71022 885// 333 88620;
0235118410999992000011500004+49230+018620FM-12+031599999V0209999C000010060019N0080001N1-00221-00321102961ADDAA199000091AY121061AY221061GA1081+006009059GF108991081051008001999999GJ100009MA1999999099021MD1110031+9999MW1101REMSYN092    AAXX  15001 11841 31558 80000 11022 21032 39902 40296 51003 71022 885// 333 55000 88620;EQDQ01  00002PRCP99
0191118410999992000011503004+49230+018620FM-12+031599999V0202701N001010051019N0080001N1-00241-00351102951ADDAY121031AY221031GA1081+005109059GF108991081051004501999999MA1999999099011MD1810011+9999MW1101REMSYN086    AAXX  15031 11841 41458 82701 11024 21035 39901 40295 58001 71022 885// 333 88617;
0287118410999992000011506004+49230+018620FM-12+031599999V0209999C000010051019N0050001N1-00241-00351102951ADDAA199000091AJ100179199999999AY121061AY221061GA1081+005109059GF108991081051004501999999IA1279IA2999-00309KA1120N-00251MA1999999099011MD1510001+9999MW1101REMSYN104    AAXX  15061 11841 31450 80000 11024 21035 39901 40295 55000 71022 885// 333 21025 3/103 43017 88617;EQDQ01  00002PRCP99
0191118410999992000011509004+49230+018620FM-12+031599999V0209999C000010048019N0050001N1-00131-00351102991ADDAY121031AY221031GA1081+004809059GF108991081051004501999999MA1999999099061MD1110051+9999MW1101REMSYN086    AAXX  15091 11841 41450 80000 11013 21035 39906 40299 51005 71022 885// 333 88616;
0221118410999992000011512004+49230+018620FM-12+031599999V0202601N002010111019N0080001N1-00091-00391102901ADDAA199000091AY121061AY221061GA1081+011109059GF108991081051012501999999MA1999999098981MD1810081+9999MW1101REMSYN086    AAXX  15121 11841 31658 82602 11009 21039 39898 40290 58008 71022 885// 333 88637;EQDQ01  00002PRCP99
0169118410999992000011515004+49230+018620FM-12+031599999V0202501N00201004201CN0100001N1-00121-00371102831ADDGA1021+004809079GF108991081051004501999999MA1999999098911MD1710071+9999REMSYN086    AAXX  15151 11841 42460 82502 11012 21037 39891 40283 57007 885// 333 82716 88639;
0212118410999992000011518004+49230+018620FM-12+031599999V0209999C000010108019N0120001N1-00191-00391102861ADDAA199000091GA1081+010809059GF108991081051012501999999KA1120M-00031MA1999999098931MD1110021+9999REMSYN086    AAXX  15181 11841 32662 80000 11019 21039 39893 40286 51002 885// 333 11003 88636;EQDQ01  00002PRCP99
0197118410999992000011521004+49230+018620FM-12+031599999V0209999C00001012001CN0150001N1-00201-00461102881ADDAY181031AY221031GA1031+009009089GF108991081081008001999999MA1999999098951MD1010021+9999MW1251REMSYN092    AAXX  15211 11841 41565 80000 11020 21046 39895 40288 50002 72582 888// 333 83830 88650;
0222118410999992000011600004+49230+018620FM-12+031599999V0209999C000010063019N0060001N1-00311-00351102881ADDAA106000191AY181061AY271061GA1081+006309059GF108991081051008001999999GJ100009MA1999999098931MD1710021+9999MW1711REMSYN098    AAXX  16001 11841 11556 80000 11031 21035 39893 40288 57002 69921 77187 885// 333 55000 88621;
0197118410999992000011603004+49230+018620FM-12+031599999V0209999C00001007501CN0100001N1-00351-00381102921ADDAY171031AY221031GA1031+006609069GF108991081051008001999999MA1999999098961MD1110031+9999MW1711REMSYN092    AAXX  16031 11841 41560 80000 11035 21038 39896 40292 51003 77172 885// 333 83622 88643;
0274118410999992000011606004+49230+018620FM-12+031599999V0209999C000010102019N0035001N1-00371-00401102971ADDAA112000891AJ100219199999999AY171061AY221061GA1081+010209059GF108991081051012501999999IA1279IA2999-00409KA1120N-00401MA1999999099011MD1310051+9999MW1711REMSYN110    AAXX  16061 11841 11635 80000 11037 21040 39901 40297 53005 69972 77172 885// 333 21040 3/104 43021 88634;
0197118410999992000011609004+49230+018620FM-12+031599999V0209999C00001004201CN0020001N1-00271-00371103111ADDAY171031AY271031GA1021+003609079GF107991071051004501001001MA1999999099161MD1210151+9999MW1711REMSYN092    AAXX  16091 11841 41420 70000 11027 21037 39916 40311 52015 77177 87500 333 82712 87623;
0208118410999992000011612004+49230+018620FM-12+031599999V0209999C000010096019N0100001N1-00101-00401103031ADDAA106000591AY171061AY221061GA1071+009609059GF107991071051008001001001MA1999999099111MD1810051+9999MW1701REMSYN092    AAXX  16121 11841 11560 70000 11010 21040 39911 40303 58005 69951 77072 87500 333 87632;
0197118410999992000011615004+49230+018620FM-12+031599999V0209999C00001007501CN0150001N1-00191-00421102981ADDAY171031AY271031GA1021+009009069GF107991071051008001001001MA1999999099051MD1610061+9999MW1021REMSYN092    AAXX  16151 11841 41565 70000 11019 21042 39905 40298 56006 70277 87500 333 82630 87643;
0233118410999992000011618004+49230+018620FM-12+031599999V0209999C00001007501CN0080001N1-00311-00411102971ADDAA112000591AY171061AY271061GA1021+008109069GF106991061051008001001001KA1120M+00051MA1999999099021MD1810031+9999MW1101REMSYN104    AAXX  16181 11841 11558 60000 11031 21041 39902 40297 58003 69952 71077 86500 333 10005 82627 86645;
0210118410999992000011621004+49230+018620FM-12+031599999V0209999C000012200019N0010001N1-00851-00921102841ADDAY111031AY211031GA1011+015009059GF101991011051017501999001MA1999999098811MD1810211+9999MW1101REMSYN086    AAXX  16211 11841 41710 10000 11085 21092 39881 40284 58021 71011 81500 333 81650;EQDQ01    003SCOMCG
0216118410999992000011700004+49230+018620FM-12+031599999V0200801N001010060019N0025001N1-00561-00601102531ADDAA199000021AY111061AY211061GA1081+006009059GF108991081051008001999999GJ100189MA1999999098561MD1810251+9999MW1101REMSYN092    AAXX  17001 11841 31525 80801 11056 21060 39856 40253 58025 71011 885// 333 55003 88620;
0197118410999992000011703004+49230+018620FM-12+031599999V0202401N00301004201CN0060001N1-00371-00511102071ADDAY121031AY221031GA1041+003609079GF108991081051004501999999MA1999999098141MD1710421+9999MW1101REMSYN092    AAXX  17031 11841 41456 82403 11037 21051 39814 40207 57042 71022 885// 333 84712 88620;
0280118410999992000011706004+49230+018620FM-12+031599999V0202601N00401007501CN0020001N1-00381-00451101701ADDAA112000791AJ100239199999999AY171061AY221061GA1041+007509069GF108991081051008001999999IA1239IA2999-01309KA1120N-00921MA1999999097791MD1710351+9999MW1701REMSYN116    AAXX  17061 11841 11520 82604 11038 21045 39779 40170 57035 69902 77072 885// 333 21092 3/113 47023 84625 88640;
0197118410999992000011709004+49230+018620FM-12+031599999V0209999C00001001201CN0021001N1-00211-00291101401ADDAY171031AY271031GA1021+001509079GF108991081071001501999999MA1999999097521MD1610271+9999MW1711REMSYN092    AAXX  17091 11841 41221 80000 11021 21029 39752 40140 56027 77177 887// 333 82705 88714;
0197118410999992000011715004+49230+018620FM-12+031599999V0202501N00501002101CN0080001N1+00231+00081100381ADDAY171031AY221031GA1021+002109079GF108991081051002501999999MA1999999096601MD1710391+9999MW1611REMSYN092    AAXX  17151 11841 41358 82505 10023 20008 39660 40038 57039 76172 885// 333 82707 88625;
0233118410999992000011718004+49230+018620FM-12+031599999V0202401N004010069019N0100001N1+00271+00151100121ADDAA112002091AY171061AY261061GA1061+006909069GF108991081051008001999999KA1120M+00291MA1999999096361MD1610241+9999MW1611REMSYN104    AAXX  17181 11841 11560 82404 10027 20015 39636 40012 56024 60022 76176 885// 333 10029 86623 88633;
0191118410999992000011721004+49230+018620FM-12+031599999V0203201N007010108019N0100001N1+00421+00121099861ADDAY171031AY261031GA1081+010809059GF108991081051012501999999MA1999999096131MD1610231+9999MW1611REMSYN086    AAXX  17211 11841 41660 83207 10042 20012 39613 49986 56023 76176 885// 333 88636;
0222118410999992000011800004+49230+018620FM-12+031599999V0203001N002010078019N0080001N1+00121-00021100131ADDAA106005191AY161061AY221061GA1081+007809059GF108991081051008001999999GJ100009MA1999999096351MD1110221+9999MW1711REMSYN098    AAXX  18001 11841 11558 83002 10012 21002 39635 40013 51022 60051 77162 885// 333 55000 88626;
0191118410999992000011803004+49230+018620FM-12+031599999V0202701N002010120019N0060001N1+00121-00061100051ADDAY171031AY221031GA1081+012009059GF108991081051012501999999MA1999999096271MD1710081+9999MW1711REMSYN086    AAXX  18031 11841 41656 82702 10012 21006 39627 40005 57008 77172 885// 333 88640;
0274118410999992000011806004+49230+018620FM-12+031599999V0201801N001010018019N0013001N1+00021-00011099911ADDAA112008991AJ100229199999999AY171061AY221061GA1081+001809069GF108991081071001501999999IA1239IA2999+00009KA1120N+00001MA1999999096121MD1810151+9999MW1731REMSYN110    AAXX  18061 11841 11213 81801 10002 21001 39612 49991 58015 60092 77372 887// 333 20000 3/100 47022 88706;
0197118410999992000011809004+49230+018620FM-12+031599999V0209999C000010039019N0045001N1+00091-00131099741ADDAY171031AY271031GA1051+003909079GF108991081051004501999999MA1999999095971MD1710151+9999MW1711REMSYN092    AAXX  18091 11841 41445 80000 10009 21013 39597 49974 57015 77177 885// 333 85713 88630;
0214118410999992000011812004+49230+018620FM-12+031599999V0200301N00101004201CN0030001N1-00071-00151099801ADDAA106006191AY171061AY221061GA1041+004509079GF108991081051004501999999MA1999999096001MD1310031+9999MW1711REMSYN098    AAXX  18121 11841 11430 80301 11007 21015 39600 49980 53003 60061 77172 885// 333 84715 88630;
0197118410999992000011815004+49230+018620FM-12+031599999V0203401N00401007501CN0100001N1-00021-00361100111ADDAY171031AY221031GA1021+006909069GF107991071051008001001001MA1999999096311MD1310311+9999MW1711REMSYN092    AAXX  18151 11841 41560 73404 11002 21036 39631 40011 53031 77172 87500 333 82623 87636;
0233118410999992000011818004+49230+018620FM-12+031599999V0203001N00301007501CN0100001N1+00031-00361100481ADDAA112006191AY171061AY221061GA1031+009009069GF108991081051008001999999KA1120M+00091MA1999999096671MD1210361+9999MW1711REMSYN104    AAXX  18181 11841 11560 83003 10003 21036 39667 40048 52036 60062 77172 885// 333 10009 83630 87648;
0105118410999992000011821004+49230+018620FM-12+031599999V0202501N003019999999N9999999N1-00101-00171100621ADDMA1999999096791MD1210151+9999REMSYN064    AAXX  18211 11841 46/// /2503 11010 21017 39679 40062 52015;
0222118410999992000011900004+49230+018620FM-12+031599999V0203001N004010090019N0100001N1+00021-00271100641ADDAA106000591AY171061AY221061GA1071+009009059GF107991071051008001001001GJ100009MA1999999096831MD1110041+9999MW1701REMSYN098    AAXX  19001 11841 11560 73004 10002 21027 39683 40064 51004 69961 77072 87500 333 55000 87630;
0191118410999992000011903004+49230+018620FM-12+031599999V0200301N003010105019N0150001N1-00081-00521100881ADDAY171031AY221031GA1071+010509059GF107991071051012501001001MA1999999097041MD1210211+9999MW1701REMSYN086    AAXX  19031 11841 41665 70303 11008 21052 39704 40088 52021 77072 87500 333 87635;
0280118410999992000011906004+49230+018620FM-12+031599999V0203601N00301012001CN0200001N1-00141-00671101141ADDAA112001091AJ100369199999999AY171061AY221061GA1031+009909069GF108991081051012501999999IA1239IA2999-00309KA1120N-00181MA1999999097281MD1110241+9999MW1031REMSYN116    AAXX  19061 11841 11670 83603 11014 21067 39728 40114 51024 60012 70372 885// 333 21018 3/103 47036 83633 88650;
0197118410999992000011909004+49230+018620FM-12+031599999V0201701N001010018019N0010001N1-00211-00381101311ADDAY171031AY221031GA1051+001809079GF108991081051002501999999MA1999999097441MD1210161+9999MW1721REMSYN092    AAXX  19091 11841 41310 81701 11021 21038 39744 40131 52016 77272 885// 333 85706 88618;
0214118410999992000011912004+49230+018620FM-12+031599999V0203201N003012200019N0150001N1-00161-00811101501ADDAA106000591AY171061AY211061GA1021+009009089GF103991021021008001001011MA1999999097621MD1110181+9999MW1261REMSYN098    AAXX  19121 11841 11565 33203 11016 21081 39762 40150 51018 69941 72671 82201 333 82830 91009;
0191118410999992000011915004+49230+018620FM-12+031599999V0203401N004010084019N0080001N1-00171-00591101661ADDAY181031AY211031GA1071+008409029GF107991071021008001001001MA1999999097781MD1110161+9999MW1851REMSYN086    AAXX  19151 11841 41558 73404 11017 21059 39778 40166 51016 78581 87200 333 87828;
0223118410999992000011918004+49230+018620FM-12+031599999V0203401N003010099019N0100001N1-00161-00641101891ADDAA112000591AY181061AY211061GA1071+009909059GF107991071051012501001001KA1120M-00101MA1999999098001MD1110221+9999MW1261REMSYN094AAXX  19181 11841 11660 73403 11016 21064 39800 40189 51022 69952 72681 87500 333 11010 87633;
0193118410999992000011921004+49230+018620FM-12+031599999V0203001N00101004201CN0100001N1-00181-00551102091ADDAY181031AY221031GA1011+003309079GF106991061021004501001001MA1999999098191MD1210191+9999MW1851REMSYN088AAXX  19211 11841 41460 63001 11018 21055 39819 40209 52019 78582 86200 333 81711 86833;
0128118410999992000012000004+49230+018620FM-12+031599999V0209999V004019999999N9999999N1-00231-00371102261ADDAA106001091MA1999999098351MD1210201+9999REMSYN076AAXX  20001 11841 16/// /9904 11023 21037 39835 40226 52020 60011 333 55007;
0101118410999992000012003004+49230+018620FM-12+031599999V0202801N001019999999N9999999N1-00341-00451102341ADDMA1999999098411MD1210091+9999REMSYN060AAXX  20031 11841 46/// /2801 11034 21045 39841 40234 52009;
0270118410999992000012006004+49230+018620FM-12+031599999V0202901N002010078019N0150001N1-00451-00501102401ADDAA112002091AJ100489199999999AY181061AY221061GA1071+007809059GF107991071051008001001001IA1239IA2999-00409KA1120N-00521MA1999999098451MD1310041+9999MW1261REMSYN106AAXX  20061 11841 11565 72902 11045 21050 39845 40240 53004 60022 72682 87500 333 21052 3/104 47048 87626;
0159118410999992000012009004+49230+018620FM-12+031599999V0202201N003012200019N0200001N1-00261-00611102401ADDGA1031+009009029GF104991031011008001041001MA1999999098481MD1110031+9999REMSYN076AAXX  20091 11841 42570 42203 11026 21061 39848 40240 51003 83140 333 83830;
0112118410999992000012012004+49230+018620FM-12+031599999V0202501N006019999999N9999999N1-00201-00471102041ADDAA199000021MA1999999098141MD1710331+9999REMSYN060AAXX  20121 11841 36/// /2506 11020 21047 39814 40204 57033;
0193118410999992000012015004+49230+018620FM-12+031599999V0202501N00301004201CN0014001N1-00251-00361101841ADDAY171031AY221031GA1041+003909079GF108991081051004501999999MA1999999097941MD1710211+9999MW1711REMSYN088AAXX  20151 11841 41414 82503 11025 21036 39794 40184 57021 77172 885// 333 84713 88617;
0229118410999992000012018004+49230+018620FM-12+031599999V0202601N003010024019N0011001N1-00181-00211101531ADDAA112001091AY171061AY221061GA1061+002409079GF108991081051002501999999KA1120M-00161MA1999999097651MD1710291+9999MW1711REMSYN100AAXX  20181 11841 11311 82603 11018 21021 39765 40153 57029 60012 77172 885// 333 11016 86708 88615;
0212118410999992000012021004+49230+018620FM-12+031599999V0202401N006010015019N0010001N1-00051-00061101171ADDAY171031AY271031GA1071+001509079GF108991999071001501021999MA1999999097331MD1710321+9999MW1711REMSYN088AAXX  20211 11841 41210 82406 11005 21006 39733 40117 57032 77177 8872/ 333 87705 88520;EQDQ01+000082SCOTLC
0224118410999992000012100004+49230+018620FM-12+031599999V0202301N005010018019N0013001N1+00011-00031100841ADDAA106004191AY171061AY271061GA1051+001809079GF108991051071002501021999GJ100009MA1999999097021MD1710311+9999MW1711REMSYN100AAXX  21001 11841 11313 82305 10001 21003 39702 40084 57031 60041 77177 8572/ 333 55000 85706 88516;
0101118410999992000012103004+49230+018620FM-12+031599999V0202501N005019999999N9999999N1+00091-00021100431ADDMA1999999096641MD1710421+9999REMSYN060AAXX  21031 11841 46/// /2505 10009 21002 39664 40043 57042;
0270118410999992000012106004+49230+018620FM-12+031599999V0202401N007010027019N0012001N1+00041-00021100011ADDAA112007191AJ100579199999999AY171061AY271061GA1081+002709069GF108991081071002501999999IA1279IA2999-00109KA1120N-00181MA1999999096221MD1710381+9999MW1711REMSYN106AAXX  21061 11841 11312 82407 10004 21002 39622 40001 57038 60072 77177 887// 333 21018 3/101 43057 88709;
0215118410999992000012109004+49230+018620FM-12+031599999V0200301N003010078019N0150001N1-00081-00331100241ADDAY171031AY221031GA1011+002709079GA2051+007809069GF107991071051002501999999MA1999999096431MD1310211+9999MW1221REMSYN094AAXX  21091 11841 41365 70303 11008 21033 39643 40024 53021 72272 875// 333 81709 85626 87636;
0210118410999992000012112004+49230+018620FM-12+031599999V0203301N001010063019N0028001N1-00211-00381100481ADDAA106002091AY171061AY221061GA1061+006309069GF108991081051008001999999MA1999999096641MD1110211+9999MW1711REMSYN094AAXX  21121 11841 11528 83301 11021 21038 39664 40048 51021 60021 77172 885// 333 86621 88640;
0193118410999992000012115004+49230+018620FM-12+031599999V0203401N00401036001CN0100001N1-00411-00751100871ADDAY171031AY221031GA1021+007809069GF106991021051008001031011MA1999999096981MD1310341+9999MW1221REMSYN088AAXX  21151 11841 41560 63404 11041 21075 39698 40087 53034 72272 82531 333 82626 83358;
0229118410999992000012118004+49230+018620FM-12+031599999V0203401N004010108019N0150001N1-00491-00971101351ADDAA112002091AY181061AY271061GA1051+010809089GF106991051021012501031001KA1120M+00091MA1999999097431MD1110451+9999MW1851REMSYN100AAXX  21181 11841 11665 63404 11049 21097 39743 40135 51045 60022 78587 85230 333 10009 85836 91009;
0193118410999992000012121004+49230+018620FM-12+031599999V0203001N00301002101CN0050001N1-00621-00821101651ADDAY181031AY221031GA1021+002409079GF108991081051002501999999MA1999999097701MD1110271+9999MW1711REMSYN088AAXX  21211 11841 41350 83003 11062 21082 39770 40165 51027 77182 885// 333 82708 88621;
0218118410999992000012200004+49230+018620FM-12+031599999V0202301N005010075019N0038001N1-00661-00821101891ADDAA106000791AY181061AY271061GA1051+007509029GF105991051021008001001001GJ100009MA1999999097931MD1210231+9999MW1851REMSYN094AAXX  22001 11841 11538 52305 11066 21082 39793 40189 52023 69901 78587 85200 333 55000 85825;
0101118410999992000012203004+49230+018620FM-12+031599999V0202501N001019999999N9999999N1-00821-00901101981ADDMA1999999098001MD1210101+9999REMSYN060AAXX  22031 11841 46/// /2501 11082 21090 39800 40198 52010;
0276118410999992000012206004+49230+018620FM-12+031599999V0209999C00001036001CN0150001N1-01181-01271102001ADDAA112000791AJ100619199999999AY181061AY221061GA1011+006009089GF107991011071008001011001IA1239IA2999-01609KA1120N-01181MA1999999097961MD1510041+9999MW1021REMSYN112AAXX  22061 11841 11565 70000 11118 21127 39796 40200 55004 69902 70282 81710 333 21118 3/116 47061 81820 87461;
0165118410999992000012209004+49230+018620FM-12+031599999V0209999C000012200019N0100001N1-00881-01131101881ADDGA1021+045009039GF104991021001999999031011MA1999999097891MD1810071+9999REMSYN082AAXX  22091 11841 42960 40000 11088 21113 39789 40188 58007 82031 333 82365 83070;
0176118410999992000012212004+49230+018620FM-12+031599999V0209999C00001036001CN0250001N1-00681-01121101651ADDAA199000021GA1021+013509069GF107991021051012501071001MA1999999097691MD1810201+9999REMSYN082AAXX  22121 11841 32675 70000 11068 21112 39769 40165 58020 82570 333 82645 87358;
0193118410999992000012215004+49230+018620FM-12+031599999V0202401N00101036001CN0100001N1-00731-00911101491ADDAY121031AY221031GA1041+014409069GF108991041051012501021999MA1999999097531MD1810161+9999MW1701REMSYN088AAXX  22151 11841 41660 82401 11073 21091 39753 40149 58016 77022 8452/ 333 84648 88458;
0223118410999992000012218004+49230+018620FM-12+031599999V0209999C000010060019N0060001N1-00771-00861101341ADDAA112000191AY171061AY221061GA1081+006009059GF108991081051008001999999KA1120M-00611MA1999999097381MD1710151+9999MW1711REMSYN094AAXX  22181 11841 11556 80000 11077 21086 39738 40134 57015 69912 77172 885// 333 11061 88620;
0187118410999992000012221004+49230+018620FM-12+031599999V0209999C000010060019N0015001N1-00771-00841101281ADDAY171031AY221031GA1081+006009059GF108991081051008001999999MA1999999097331MD1610051+9999MW1711REMSYN082AAXX  22211 11841 41515 80000 11077 21084 39733 40128 56005 77172 885// 333 88620;
0224118410999992000012300004+49230+018620FM-12+031599999V0209999C000010105019N0030001N1-00871-00951101241ADDAA106000591AY171061AY221061GA1051+010509069GF108991051051012501021999GJ100009MA1999999097271MD1610061+9999MW1701REMSYN100AAXX  23001 11841 11630 80000 11087 21095 39727 40124 56006 69961 77072 8552/ 333 55000 85635 88458;
0187118410999992000012303004+49230+018620FM-12+031599999V0209999C000010105019N0045001N1-00771-00841101191ADDAY171031AY221031GA1081+010509059GF108991081051012501999999MA1999999097241MD1510031+9999MW1701REMSYN082AAXX  23031 11841 41645 80000 11077 21084 39724 40119 55003 77072 885// 333 88635;
0139118410999992000012306004+49230+018620FM-12+031599999V0209999C000019999999N9999999N1-00751-00831101111ADDAA199000021IA2999-00809KA1120N-00751MA1999999097171REMSYN076AAXX  23061 11841 36/// /0000 11075 21083 39717 40111 5//// 333 21075 3/108;
0187118410999992000012309004+49230+018620FM-12+031599999V0209999C000010096019N0040001N1-00521-00761101151ADDAY171031AY221031GA1081+009609059GF108991081051008001999999MA1999999097241MD1310071+9999MW1701REMSYN082AAXX  23091 11841 41540 80000 11052 21076 39724 40115 53007 77072 885// 333 88632;
0193118410999992000012315004+49230+018620FM-12+031599999V0202101N001010036019N0025001N1-00501-00611101191ADDAY171031AY221031GA1051+003609079GF108991081051004501999999MA1999999097281MD1310021+9999MW1711REMSYN088AAXX  23151 11841 41425 82101 11050 21061 39728 40119 53002 77172 885// 333 85712 88631;
0229118410999992000012318004+49230+018620FM-12+031599999V0202101N004019999999N0100001N1-00671-00991101371ADDAA112000791AY171061AY221061GA1021+024009039GF106991021001999999031081KA1120M-00211MA1999999097431MD1210151+9999MW1021REMSYN100AAXX  23181 11841 11960 62104 11067 21099 39743 40137 52015 69902 70272 82038 333 11021 82358 86272;
0193118410999992000012321004+49230+018620FM-12+031599999V0200301N005012200019N0100001N1-00751-01131101521ADDAY131031AY211031GA1011+006609069GF104991011051008001001021MA1999999097561MD1110131+9999MW1361REMSYN088AAXX  23211 11841 41560 40305 11075 21113 39756 40152 51013 73631 81502 333 81622 83072;
0122118410999992000012400004+49230+018620FM-12+031599999V0202201N003019999999N9999999N1-01101-01451101711ADDAA199000021MA1999999097691MD1210141+9999REMSYN070AAXX  24001 11841 36/// /2203 11110 21145 39769 40171 52014 333 55005;
0159118410999992000012403004+49230+018620FM-12+031599999V0209999C000012200019N0100001N1-01601-01851101891ADDGA1011+007509029GF101991011011008001001001MA1999999097781MD1210101+9999REMSYN076AAXX  24031 11841 42560 10000 11160 21185 39778 40189 52010 81100 333 81825;
0255118410999992000012406004+49230+018620FM-12+031599999V0200201N001012200019N0120001N1-01411-01521101971ADDAA199000091AJ100559199999999GA1031+007809059GF104991031051008001041001IA1239IA2999-02609KA1120N-01791MA1999999097891MD1310111+9999REMSYN094AAXX  24061 11841 32562 40201 11141 21152 39789 40197 53011 83540 333 21179 3/126 47055 83626;EQDQ01  00002PRCP99
0159118410999992000012409004+49230+018620FM-12+031599999V0200301N004012200019N0150001N1-00911-01411102061ADDGA1021+007809029GF102991021011008001001001MA1999999098051MD1110161+9999REMSYN076AAXX  24091 11841 42565 20304 11091 21141 39805 40206 51016 82100 333 82826;
0189118410999992000012412004+49230+018620FM-12+031599999V0201201N001012200019N0200001N1-00481-01291101971ADDAA199000091GA1011+009009029GF102991011011008001041001MA1999999098031MD1810021+9999REMSYN076AAXX  24121 11841 32570 21201 11048 21129 39803 40197 58002 81140 333 81830;EQDQ01  00002PRCP99
0178118410999992000012415004+49230+018620FM-12+031599999V0200301N002012200019N0150001N1-00701-01121102121ADDGA1041+021009079GF104991041999022501041001MA1999999098141MD1310111+9999REMSYN076AAXX  24151 11841 42865 40302 11070 21112 39814 40212 53011 84040 333 84357;EQDQ01+000002SCOLCG
0229118410999992000012418004+49230+018620FM-12+031599999V0200701N002012200019N0100001N1-01021-01181102301ADDAA112000791AY181061AY211061GA1011+010209089GF104991041081012501001001KA1120M-00291MA1999999098271MD1310131+9999MW1851REMSYN100AAXX  24181 11841 11660 40702 11102 21118 39827 40230 53013 69902 78581 84800 333 11029 81834 83646;
0187118410999992000012421004+49230+018620FM-12+031599999V0201101N001012200019N0060001N1-01091-01221102391ADDAY181031AY211031GA1031+011109029GF103991031021012501001001MA1999999098341MD1310071+9999MW1851REMSYN082AAXX  24211 11841 41656 31101 11109 21122 39834 40239 53007 78581 83200 333 83837;
0218118410999992000012500004+49230+018620FM-12+031599999V0209999C000010078019N0030001N1-01421-01561102591ADDAA106000791AY181061AY271061GA1081+007809059GF108991081051008001999999GJ102289MA1999999098481MD1110141+9999MW1701REMSYN094AAXX  25001 11841 11530 80000 11142 21156 39848 40259 51014 69901 77087 885// 333 55038 88626;
0193118410999992000012503004+49230+018620FM-12+031599999V0209999C00001004201CN0034001N1-01601-01701102741ADDAY171031AY211031GA1031+003309079GF105991051051004501001001MA1999999098601MD1110121+9999MW1221REMSYN088AAXX  25031 11841 41434 50000 11160 21170 39860 40274 51012 72271 85500 333 83711 85620;
0270118410999992000012506004+49230+018620FM-12+031599999V0209999C000012200019N0027001N1-01931-02131102931ADDAA112000791AJ100509199999999AY171061AY211061GA1031+009609059GF103991031051008001001001IA1239IA2999-02509KA1120N-01931MA1999999098731MD1110131+9999MW1221REMSYN106AAXX  25061 11841 11527 30000 11193 21213 39873 40293 51013 69902 72271 83500 333 21193 3/125 47050 83632;
0171118410999992000012509004+49230+018620FM-12+031599999V0209999C000012200019N0020001N1-01611-01821103061ADDAY141031AY201031GA1001+999999999GF100991001001999999001001MA1999999098901MD1110171+9999MW1101REMSYN066AAXX  25091 11841 41920 00000 11161 21182 39890 40306 51017 71040;
0188118410999992000012512004+49230+018620FM-12+031599999V0209999C000012200019N0038001N1-00721-01381102891ADDAA106000791AY141061AY211061GA1001+999999999GF100991001001999999001001MA1999999098881MD1710021+9999MW1051REMSYN072AAXX  25121 11841 11938 00000 11072 21138 39888 40289 57002 69901 70541;
0187118410999992000012515004+49230+018620FM-12+031599999V0209999C000012200019N0050001N1-00961-01301102961ADDAY101031AY201031GA1011+030009079GF101991011001999999031001MA1999999098911MD1310031+9999MW1051REMSYN082AAXX  25151 11841 41950 10000 11096 21130 39891 40296 53003 70500 81030 333 81360;
0223118410999992000012518004+49230+018620FM-12+031599999V0209999C000012200019N0025001N1-01411-01541103141ADDAA112000791AY101061AY201061GA1041+030009079GF104991041001999999031001KA1120M-00631MA1999999099011MD1010101+9999MW1101REMSYN094AAXX  25181 11841 11925 40000 11141 21154 39901 40314 50010 69902 71000 84030 333 11063 84360;
0187118410999992000012521004+49230+018620FM-12+031599999V0209999C000010270019N0020001N1-01381-01511103151ADDAY111031AY211031GA1071+027009079GF107991071001999999071999MA1999999099031MD1310021+9999MW1101REMSYN082AAXX  25211 11841 41920 70000 11138 21151 39903 40315 53002 71011 8707/ 333 87359;
0247118410999992000012600004+49230+018620FM-12+031599999V0200101N001010210019N0025001N1-01251-01371103041ADDAA199000091AY121061AY221061GA1081+021009079GF108991081999022501071999GJ103249MA1999999098941MD1710091+9999MW1101REMSYN088AAXX  26001 11841 31825 80101 11125 21137 39894 40304 57009 71022 8807/ 333 55054 88357;EQDQ01+000002SCOLCGQ02  00002PRCP99
0187118410999992000012603004+49230+018620FM-12+031599999V0209999C000010090019N0025001N1-01111-01211102911ADDAY121031AY221031GA1081+009009059GF108991081051008001999999MA1999999098841MD1610101+9999MW1711REMSYN082AAXX  26031 11841 41525 80000 11111 21121 39884 40291 56010 77122 885// 333 88630;
0270118410999992000012606004+49230+018620FM-12+031599999V0202101N001010150019N0045001N1-01061-01161102851ADDAA112000791AJ100449199999999AY171061AY221061GA1081+015009059GF108991081051017501999999IA1239IA2999-01709KA1120N-01481MA1999999098791MD1510051+9999MW1221REMSYN106AAXX  26061 11841 11745 82101 11106 21116 39879 40285 55005 69902 72272 885// 333 21148 3/117 47044 88650;
0187118410999992000012609004+49230+018620FM-12+031599999V0202201N003010120019N0038001N1-00811-01091102881ADDAY171031AY221031GA1071+012009059GF107991071051012501001001MA1999999098861MD1010071+9999MW1701REMSYN082AAXX  26091 11841 41638 72203 11081 21109 39886 40288 50007 77072 87500 333 87640;
0204118410999992000012612004+49230+018620FM-12+031599999V0202601N003010081019N0100001N1-00751-01041102841ADDAA106000191AY171061AY221061GA1081+008109059GF108991081051008001999999MA1999999098831MD1710031+9999MW1021REMSYN088AAXX  26121 11841 11560 82603 11075 21104 39883 40284 57003 69921 70272 885// 333 88627;
0165118410999992000012615004+49230+018620FM-12+031599999V0202501N00301004201CN0100001N1-00721-00931102791ADDGA1031+003909079GF108991081051004501999999MA1999999098781MD1610051+9999REMSYN082AAXX  26151 11841 42460 82503 11072 21093 39878 40279 56005 885// 333 83713 88623;
0229118410999992000012618004+49230+018620FM-12+031599999V0200801N00101004201CN0080001N1-00741-00881102901ADDAA112000191AY121061AY221061GA1031+004509079GF108991081051004501999999KA1120M-00701MA1999999098891MD1310111+9999MW1101REMSYN100AAXX  26181 11841 11458 80801 11074 21088 39889 40290 53011 69922 71022 885// 333 11070 83715 88623;
0187118410999992000012621004+49230+018620FM-12+031599999V0209999C000010075019N0060001N1-00721-00861102911ADDAY121031AY221031GA1081+007509059GF108991081051008001999999MA1999999098901MD1210011+9999MW1101REMSYN082AAXX  26211 11841 41556 80000 11072 21086 39890 40291 52001 71022 885// 333 88625;
0237118410999992000012700004+49230+018620FM-12+031599999V0209999C00001004201CN0060001N1-00691-00841102881ADDAA199000091AY121061AY221061GA1041+003909079GF108991081051004501999999GJ100009MA1999999098881MD1710021+9999MW1101REMSYN094AAXX  27001 11841 31456 80000 11069 21084 39888 40288 57002 71022 885// 333 55000 84713 88626;EQDQ01  00002PRCP99
0187118410999992000012703004+49230+018620FM-12+031599999V0200401N001010036019N0060001N1-00651-00791102821ADDAY121031AY221031GA1081+003609069GF108991081061004501999999MA1999999098821MD1810061+9999MW1101REMSYN082AAXX  27031 11841 41456 80401 11065 21079 39882 40282 58006 71022 886// 333 88712;
0283118410999992000012706004+49230+018620FM-12+031599999V0209999C000010039019N0060001N1-00591-00731102821ADDAA199000091AJ100469199999999AY121061AY221061GA1081+003909069GF108991081061004501999999IA1239IA2999-00809KA1120N-00741MA1999999098831MD1210011+9999MW1101REMSYN100AAXX  27061 11841 31456 80000 11059 21073 39883 40282 52001 71022 886// 333 21074 3/108 47046 88713;EQDQ01  00002PRCP99
0187118410999992000012709004+49230+018620FM-12+031599999V0209999C000010027019N0028001N1-00501-00651102871ADDAY171031AY221031GA1081+002709069GF108991081071002501999999MA1999999098891MD1010061+9999MW1221REMSYN082AAXX  27091 11841 41328 80000 11050 21065 39889 40287 50006 72272 887// 333 88709;
0118118410999992000012712004+49230+018620FM-12+031599999V0209999C000019999999N9999999N1-00331-00561102731ADDAA106000191MA1999999098791MD1710111+9999REMSYN066AAXX  27121 11841 16/// /0000 11033 21056 39879 40273 57011 69911;
0187118410999992000012715004+49230+018620FM-12+031599999V0201401N001010015019N0015001N1-00291-00371102641ADDAY171031AY221031GA1081+001509069GF108991081071001501999999MA1999999098701MD1710081+9999MW1761REMSYN082AAXX  27151 11841 41215 81401 11029 21037 39870 40264 57008 77672 887// 333 88705;
0223118410999992000012718004+49230+018620FM-12+031599999V0209999C000010015019N0016001N1-00281-00321102551ADDAA112000191AY171061AY221061GA1081+001509069GF108991081061001501999999KA1120M-00271MA1999999098621MD1710081+9999MW1101REMSYN094AAXX  27181 11841 11216 80000 11028 21032 39862 40255 57008 69912 71072 886// 333 11027 88705;
0187118410999992000012721004+49230+018620FM-12+031599999V0202301N004010048019N0018001N1+00031-00271102371ADDAY121031AY221031GA1081+004809069GF108991081071004501999999MA1999999098491MD1710131+9999MW1101REMSYN082AAXX  27211 11841 41418 82304 10003 21027 39849 40237 57013 71022 887// 333 88716;
0122118410999992000012800004+49230+018620FM-12+031599999V0202401N004019999999N9999999N1-00081-00371102301ADDAA199000021MA1999999098411MD1710101+9999REMSYN070AAXX  28001 11841 36/// /2404 11008 21037 39841 40230 57010 333 55000;
0101118410999992000012803004+49230+018620FM-12+031599999V0202601N004019999999N9999999N1-00231-00481102251ADDMA1999999098341MD1710071+9999REMSYN060AAXX  28031 11841 46/// /2604 11023 21048 39834 40225 57007;
0255118410999992000012806004+49230+018620FM-12+031599999V0202401N005010066019N0100001N1-00261-00481102221ADDAA199000091AJ100459199999999GA1081+006609059GF108991081051008001999999IA1239IA2999-00309KA1120N-00291MA1999999098301MD1510041+9999REMSYN094AAXX  28061 11841 32560 82405 11026 21048 39830 40222 55004 885// 333 21029 3/103 47045 88622;EQDQ01  00002PRCP99
0159118410999992000012809004+49230+018620FM-12+031599999V0202501N003010069019N0100001N1-00221-00501102211ADDGA1071+006909059GF107991071051008001001001MA1999999098301MD1010001+9999REMSYN076AAXX  28091 11841 42560 72503 11022 21050 39830 40221 50000 87500 333 87623;
0195118410999992000012812004+49230+018620FM-12+031599999V0202401N003012200019N0150001N1+00071-00601101941ADDAA199000091GA1011+030009039GF104991011001999999041011MA1999999098081MD1710221+9999REMSYN082AAXX  28121 11841 32965 42403 10007 21060 39808 40194 57022 81041 333 81360 84070;EQDQ01  00002PRCP99
0165118410999992000012815004+49230+018620FM-12+031599999V0202501N00401090001CN0150001N1-00231-00801102001ADDGA1021+012909069GF105991021051012501001021MA1999999098101MD1310021+9999REMSYN082AAXX  28151 11841 42665 52504 11023 21080 39810 40200 53002 82502 333 82643 84070;
0224118410999992000012818004+49230+018620FM-12+031599999V0201001N001010180019N0120001N1-00321-00571102081ADDAA199000091GA1071+018009059GF107991071051017501999001KA1120M+00131MA1999999098161MD1110061+9999REMSYN082AAXX  28181 11841 32762 71001 11032 21057 39816 40208 51006 87500 333 10013 87656;EQDQ01+000002SCOMCGQ02  00002PRCP99
0159118410999992000012821004+49230+018620FM-12+031599999V0209999C000012200019N0100001N1-00801-00881102101ADDGA1041+030009079GF104991041001999999031001MA1999999098111MD1610051+9999REMSYN076AAXX  28211 11841 42960 40000 11080 21088 39811 40210 56005 84030 333 84360;
0203118410999992000012900004+49230+018620FM-12+031599999V0202601N001010300019N0100001N1-00701-00791102001ADDAA199000091GA1061+030009079GF106991061001999999031001GJ101569MA1999999098031MD1610081+9999REMSYN082AAXX  29001 11841 32960 62601 11070 21079 39803 40200 56008 86030 333 55026 86360;EQDQ01  00002PRCP99
0187118410999992000012903004+49230+018620FM-12+031599999V0202501N001010150019N0070001N1-00631-00741101841ADDAY121031AY221031GA1081+015009059GF108991081051017501999999MA1999999097891MD1710141+9999MW1701REMSYN082AAXX  29031 11841 41757 82501 11063 21074 39789 40184 57014 77022 885// 333 88650;
0276118410999992000012906004+49230+018620FM-12+031599999V0209999C000010054019N0015001N1-00541-00641101681ADDAA112000591AJ100459199999999AY171061AY221061GA1051+005409069GF108991081051004501999999IA1239IA2999-01209KA1120N-00891MA1999999097741MD1710151+9999MW1711REMSYN112AAXX  29061 11841 11415 80000 11054 21064 39774 40168 57015 69952 77172 885// 333 21089 3/112 47045 85618 88622;
0187118410999992000012909004+49230+018620FM-12+031599999V0209999C000010099019N0028001N1-00451-00571101541ADDAY171031AY221031GA1081+009909059GF108991081051012501999999MA1999999097621MD1610121+9999MW1711REMSYN082AAXX  29091 11841 41628 80000 11045 21057 39762 40154 56012 77172 885// 333 88633;
0204118410999992000012912004+49230+018620FM-12+031599999V0209999C000010108019N0035001N1-00231-00431101141ADDAA106000191AY171061AY221061GA1081+010809059GF108991081051012501999999MA1999999097271MD1710351+9999MW1701REMSYN088AAXX  29121 11841 11635 80000 11023 21043 39727 40114 57035 69921 77072 885// 333 88636;
0187118410999992000012915004+49230+018620FM-12+031599999V0201901N001010069019N0016001N1-00131-00291100791ADDAY171031AY221031GA1081+006909059GF108991081051008001999999MA1999999096951MD1610321+9999MW1711REMSYN082AAXX  29151 11841 41516 81901 11013 21029 39695 40079 56032 77172 885// 333 88623;
0229118410999992000012918004+49230+018620FM-12+031599999V0202601N00401001201CN0010001N1-00011-00011100611ADDAA112003091AY171061AY221061GA1031+001509079GF108991081071001501999999KA1120M+00001MA1999999096791MD1710161+9999MW1731REMSYN100AAXX  29181 11841 11210 82604 11001 21001 39679 40061 57016 60032 77372 887// 333 10000 83705 88710;
0193118410999992000012921004+49230+018620FM-12+031599999V0202701N00401001201CN0018001N1+00021+00021100471ADDAY171031AY271031GA1031+001809079GF108991081071001501999999MA1999999096661MD1610131+9999MW1711REMSYN088AAXX  29211 11841 41218 82704 10002 20002 39666 40047 56013 77177 887// 333 83706 88714;
0224118410999992000013000004+49230+018620FM-12+031599999V0202501N002010018019N0020001N1+00041+00031100271ADDAA106006191AY171061AY221061GA1051+001809079GF108991081071001501999999GJ100009MA1999999096471MD1710191+9999MW1711REMSYN100AAXX  30001 11841 11220 82502 10004 20003 39647 40027 57019 60061 77172 887// 333 55000 85706 88711;
0193118410999992000013003004+49230+018620FM-12+031599999V0200801N00101001201CN0026001N1+00031+00021100101ADDAY171031AY221031GA1041+001809079GF108991081071001501999999MA1999999096311MD1710161+9999MW1681REMSYN088AAXX  30031 11841 41226 80801 10003 20002 39631 40010 57016 76872 887// 333 84706 88712;
0298118410999992000013006004+49230+018620FM-12+031599999V0200201N001010039019N0060001N1+00161+00151100001ADDAA112014091AJ100499199999999AY171061AY271061GA1021+001809079GA2041+003909079GF108991081051001501999999IA1279IA2999+00009KA1120N-00011MA1999999096231MD1510081+9999MW1611REMSYN118AAXX  30061 11841 11256 80201 10016 20015 39623 40000 55008 60142 76177 885// 333 21001 3/100 43049 82706 84713 88620;
0193118410999992000013009004+49230+018620FM-12+031599999V0203001N00101009001CN0100001N1+00221+00181100381ADDAY181031AY261031GA1031+005409089GF107991071081004501001001MA1999999096601MD1210371+9999MW1801REMSYN088AAXX  30091 11841 41460 73001 10022 20018 39660 40038 52037 78086 87800 333 83818 84621;
0204118410999992000013012004+49230+018620FM-12+031599999V0202701N005012200019N0200001N1+00441-00121100601ADDAA106000191AY181061AY261061GA1041+011709029GF104991041021012501061001MA1999999096841MD1210241+9999MW1011REMSYN088AAXX  30121 11841 11670 42705 10044 21012 39684 40060 52024 69911 70186 84260 333 84839;
0165118410999992000013015004+49230+018620FM-12+031599999V0202701N007012200019N0200001N1+00441-00181100951ADDGA1031+013809089GF103991031021012501061001MA1999999097181MD1210341+9999REMSYN082AAXX  30151 11841 42670 32707 10044 21018 39718 40095 52034 83260 333 83846 91012;
0195118410999992000013018004+49230+018620FM-12+031599999V0202601N005012200019N0200001N1+00311-00261101291ADDAA112000191GA1021+030009079GF102991021001999999041001KA1120M+00621MA1999999097491MD1310311+9999REMSYN088AAXX  30181 11841 12970 22605 10031 21026 39749 40129 53031 69912 82040 333 10062 82360;
0178118410999992000013021004+49230+018620FM-12+031599999V0202701N002012200019N0150001N1-00011-00361101641ADDGA1021+018009059GF103991021051017501999011MA1999999097781MD1310291+9999REMSYN076AAXX  30211 11841 42765 32702 11001 21036 39778 40164 53029 82501 333 82656;EQDQ01+000002SCOMCG
0203118410999992000013100004+49230+018620FM-12+031599999V0200601N001010300019N0100001N1+00031-00141101721ADDAA199000091GA1071+030009079GF107991071001999999071999GJ101749MA1999999097871MD1010091+9999REMSYN082AAXX  31001 11841 32960 70601 10003 21014 39787 40172 50009 8707/ 333 55029 87360;EQDQ01  00002PRCP99
0193118410999992000013103004+49230+018620FM-12+031599999V0202801N002010006019N0028001N1+00061+00021101571ADDAY171031AY221031GA1061+000609079GF108991081071000751999999MA1999999097731MD1810141+9999MW1681REMSYN088AAXX  31031 11841 41128 82802 10006 20002 39773 40157 58014 76872 887// 333 86702 88711;
0276118410999992000013106004+49230+018620FM-12+031599999V0203601N001010006019N0070001N1+00101+00061101451ADDAA112003091AJ100379199999999AY171061AY261061GA1061+000609079GF108991081071000751999999IA1279IA2999-00509KA1120N-00061MA1999999097621MD1610111+9999MW1611REMSYN112AAXX  31061 11841 11157 83601 10010 20006 39762 40145 56011 60032 76176 887// 333 21006 3/105 43037 86702 88708;
0193118410999992000013109004+49230+018620FM-12+031599999V0200601N002010045019N0070001N1+00121+00091101431ADDAY161031AY221031GA1051+004509079GF108991081051004501999999MA1999999097601MD1710021+9999MW1601REMSYN088AAXX  31091 11841 41457 80602 10012 20009 39760 40143 57002 76062 885// 333 85715 88620;
0210118410999992000013112004+49230+018620FM-12+031599999V0202401N00601004201CN0300001N1+00601+00321101361ADDAA106001091AY161061AY221061GA1041+004809079GF108991081051004501999999MA1999999097601MD1010001+9999MW1211REMSYN094AAXX  31121 11841 11480 82406 10060 20032 39760 40136 50000 60011 72162 885// 333 84716 88633;
0187118410999992000013115004+49230+018620FM-12+031599999V0202601N006010081019N0150001N1+00541+00291101521ADDAY161031AY221031GA1081+008109059GF108991081051008001999999MA1999999097741MD1310141+9999MW1601REMSYN082AAXX  31151 11841 41565 82606 10054 20029 39774 40152 53014 76062 885// 333 88627;
0223118410999992000013118004+49230+018620FM-12+031599999V0202601N006010360019N0150001N1+00611+00221101871ADDAA112001091AY161061AY221061GA1041+012609059GF105991041051012501031001KA1120M+00691MA1999999098091MD1210351+9999MW1011REMSYN094AAXX  31181 11841 11665 52606 10061 20022 39809 40187 52035 60012 70162 84530 333 10069 84642;
0159118410999992000013121004+49230+018620FM-12+031599999V0203001N002012200019N0100001N1+00281+00051102261ADDGA1011+009909059GF101991011051012501001001MA1999999098421MD1210331+9999REMSYN076AAXX  31211 11841 42660 13002 10028 20005 39842 40226 52033 81500 333 81633;
0122118410999992000020100004+49230+018620FM-12+031599999V0201201N001019999999N9999999N1-00071-00101102511ADDAA199000021MA1999999098621MD1210231+9999REMSYN070AAXX  01001 11841 36/// /1201 11007 21010 39862 40251 52023 333 55000;
0187118410999992000020103004+49230+018620FM-12+031599999V0201101N001010600019N0018001N1-00241-00251102531ADDAY111031AY211031GA1061+060009019GF106991001001999999001021MA1999999098611MD1810021+9999MW1101REMSYN082AAXX  01031 11841 41918 61101 11024 21025 39861 40253 58002 71011 80002 333 86070;
0298118410999992000020106004+49230+018620FM-12+031599999V0209999C000010015019N0014001N1-00031-00071102561ADDAA112000791AJ100289199999999AY151061AY211061GA1051+001509079GA2081+003009079GF108991081071001501999999IA1279IA2999-00609KA1120N-00341MA1999999098671MD1110061+9999MW1561REMSYN118AAXX  01061 11841 11214 80000 11003 21007 39867 40256 51006 69902 75651 887// 333 21034 3/106 43028 85705 88710 93401;
0215118410999992000020109004+49230+018620FM-12+031599999V0209999C000010009019N0012001N1+00111+00041102541ADDAY151031AY221031GA1051+000909079GA2081+005109069GF108991081051000751999999MA1999999098671MD1010001+9999MW1101REMSYN094AAXX  01091 11841 41112 80000 10011 20004 39867 40254 50000 71052 885// 333 85703 88617 93401;
0210118410999992000020112004+49230+018620FM-12+031599999V0201201N00101090001CN0650001N1+00481+00221102301ADDAA106000191AY151061AY221061GA1041+006609069GF107991041051008001001081MA1999999098491MD1810181+9999MW1021REMSYN094AAXX  01121 11841 11587 71201 10048 20022 39849 40230 58018 69911 70252 84508 333 84622 85270;
0165118410999992000020115004+49230+018620FM-12+031599999V0209999C000012200019N0250001N1+00701+00271102111ADDGA1011+030009039GF104991011001999999041021MA1999999098331MD1610161+9999REMSYN082AAXX  01151 11841 42975 40000 10070 20027 39833 40211 56016 81042 333 81360 83070;
0195118410999992000020118004+49230+018620FM-12+031599999V0209999C000012200019N0100001N1+00061+00051102161ADDAA112000191GA1021+069009019GF102991001001999999001021KA1120M+00871MA1999999098291MD1610041+9999REMSYN088AAXX  01181 11841 12960 20000 10006 20005 39829 40216 56004 69912 80002 333 10087 82073;
0101118410999992000020121004+49230+018620FM-12+031599999V0209999C000019999999N9999999N1-00091-00101102111ADDMA1999999098231MD1710061+9999REMSYN060AAXX  01211 11841 46/// /0000 11009 21010 39823 40211 57006;
0141118410999992000020200004+49230+018620FM-12+031599999V0209999C000019999999N9999999N1-00081-00081101971ADDAA199000091MA1999999098101MD1710151+9999REMSYN070AAXX  02001 11841 36/// /0000 11008 21008 39810 40197 57015 333 55039;EQDQ01  00002PRCP99
0181118410999992000020203004+49230+018620FM-12+031599999V0209999C000010003019N0002001N1-00081-00081101831ADDAY141031AY241031GA1091+000309999GF109991091999999999999999MA1999999097961MD1710141+9999MW1451REMSYN076AAXX  02031 11841 41/02 90000 11008 21008 39796 40183 57014 74544 333 89/01;
0277118410999992000020206004+49230+018620FM-12+031599999V0202401N001010009019N0002001N1-00041-00041101731ADDAA199000091AJ100269199999999AY141061AY241061GA1091+000909999GF109991091999999999999999IA1279IA2999-00209KA1120N-00181MA1999999097871MD1710091+9999MW1471REMSYN094AAXX  02061 11841 31/02 92401 11004 21004 39787 40173 57009 74744 333 21018 3/102 43026 89/03;EQDQ01  00002PRCP99
0181118410999992000020209004+49230+018620FM-12+031599999V0202601N004010009019N0002001N1+00141+00141101631ADDAY141031AY241031GA1091+000909999GF109991091999999999999999MA1999999097801MD1810071+9999MW1451REMSYN076AAXX  02091 11841 41/02 92604 10014 20014 39780 40163 58007 74544 333 89/03;
0223118410999992000020212004+49230+018620FM-12+031599999V0200601N00101001201CN0011001N1+00301+00171101491ADDAA199000091AY141061AY241061GA1041+001809079GF108991081051001501999999MA1999999097681MD1810121+9999MW1281REMSYN088AAXX  02121 11841 31211 80601 10030 20017 39768 40149 58012 72844 885// 333 84706 88630;EQDQ01  00002PRCP99
0159118410999992000020215004+49230+018620FM-12+031599999V0203201N001010360019N0100001N1+00381+00201101351ADDGA1041+012009059GF106991041051012501031011MA1999999097561MD1610121+9999REMSYN076AAXX  02151 11841 42660 63201 10038 20020 39756 40135 56012 84531 333 84640;
0236118410999992000020218004+49230+018620FM-12+031599999V0209999C000010120019N0045001N1+00101+00061101421ADDAA199000091AY121061AY221061GA1071+012009059GF107991071051012501001001KA1120M+00511MA1999999097591MD1310031+9999MW1101REMSYN088AAXX  02181 11841 31645 70000 10010 20006 39759 40142 53003 71022 87500 333 10051 87640;EQDQ01  00002PRCP99
0187118410999992000020221004+49230+018620FM-12+031599999V0209999C000010102019N0045001N1+00231+00131101431ADDAY121031AY221031GA1081+010209059GF108991081051012501999999MA1999999097621MD1310031+9999MW1101REMSYN082AAXX  02211 11841 41645 80000 10023 20013 39762 40143 53003 71022 885// 333 88634;
0224118410999992000020300004+49230+018620FM-12+031599999V0200601N00101007501CN0045001N1+00191+00121101501ADDAA106000791AY161061AY221061GA1041+007809069GF108991081051008001999999GJ100249MA1999999097681MD1310061+9999MW1211REMSYN100AAXX  03001 11841 11545 80601 10019 20012 39768 40150 53006 69901 72162 885// 333 55004 84626 88645;
0159118410999992000020303004+49230+018620FM-12+031599999V0202801N006012200019N0250001N1+00451-00151101711ADDGA1021+013809059GF102991021051012501001001MA1999999097911MD1310231+9999REMSYN076AAXX  03031 11841 42675 22806 10045 21015 39791 40171 53023 82500 333 82646;
0242118410999992000020306004+49230+018620FM-12+031599999V0202601N004012200019N0300001N1+00231-00261101961ADDAA112000791AJ100259199999999GA1011+013809059GF101991011051012501001001IA1279IA2999-00109KA1120N+00081MA1999999098121MD1310211+9999REMSYN100AAXX  03061 11841 12680 12604 10023 21026 39812 40196 53021 69902 81500 333 20008 3/101 43025 81646;
0159118410999992000020309004+49230+018620FM-12+031599999V0202601N006010123019N0300001N1+00471-00171102041ADDGA1071+012309059GF107991071041012501001001MA1999999098231MD1110111+9999REMSYN076AAXX  03091 11841 42680 72606 10047 21017 39823 40204 51011 87400 333 87641;
0210118410999992000020312004+49230+018620FM-12+031599999V0202501N00501012001CN0300001N1+00341-00041102131ADDAA106000791AY181061AY221061GA1021+009909089GF107991071081008001001001MA1999999098301MD1110071+9999MW1801REMSYN094AAXX  03121 11841 11580 72505 10034 21004 39830 40213 51007 69901 78082 87800 333 82833 85636;
0193118410999992000020315004+49230+018620FM-12+031599999V0203101N00501007501CN0120001N1+00271+00011102381ADDAY181031AY281031GA1021+007209099GF107991071031008001001001MA1999999098531MD1310231+9999MW1831REMSYN088AAXX  03151 11841 41562 73105 10027 20001 39853 40238 53023 78388 87300 333 82924 84630;
0229118410999992000020318004+49230+018620FM-12+031599999V0203101N00201012001CN0100001N1+00171-00071102561ADDAA112000191AY181061AY281061GA1021+010809099GF107991071031012501001001KA1120M+00671MA1999999098691MD1310161+9999MW1831REMSYN100AAXX  03181 11841 11660 73102 10017 21007 39869 40256 53016 69922 78388 87300 333 10067 82936 85639;
0193118410999992000020321004+49230+018620FM-12+031599999V0203101N00201012001CN0100001N1+00161-00021102941ADDAY181031AY211031GA1021+008709089GF107991071081008001999999MA1999999099061MD1210371+9999MW1851REMSYN088AAXX  03211 11841 41560 73102 10016 21002 39906 40294 52037 78581 878// 333 82829 85643;
0224118410999992000020400004+49230+018620FM-12+031599999V0202301N002012200019N0100001N1+00051-00091103231ADDAA106000891AY181061AY211061GA1011+009309089GF104991041081008001001001GJ101329MA1999999099321MD1210261+9999MW1261REMSYN100AAXX  04001 11841 11560 42302 10005 21009 39932 40323 52026 69971 72681 84800 333 55022 81831 83644;
0101118410999992000020403004+49230+018620FM-12+031599999V0209999C000019999999N9999999N1-00241-00371103521ADDMA1999999099561MD1210261+9999REMSYN060AAXX  04031 11841 46/// /0000 11024 21037 39956 40352 52026;
0270118410999992000020406004+49230+018620FM-12+031599999V0202301N001012200019N0150001N1-00511-00601103791ADDAA112001091AJ100239199999999AY181061AY211061GA1021+009009059GF102991021051008001001011IA1239IA2999-01009KA1120N-00521MA1999999099781MD1210171+9999MW1011REMSYN106AAXX  04061 11841 11565 22301 11051 21060 39978 40379 52017 69992 70181 82501 333 21052 3/110 47023 82630;
0165118410999992000020409004+49230+018620FM-12+031599999V0209999C000012200019N0200001N1-00181-00551103841ADDGA1031+063009009GF103991001001999999001011MA1999999099871MD1210091+9999REMSYN082AAXX  04091 11841 42970 30000 11018 21055 39987 40384 52009 80001 333 83071 93501;
0176118410999992000020412004+49230+018620FM-12+031599999V0202401N003010108019N0300001N1+00441-00461103611ADDAA199000021GA1051+010809069GF105991051051012501001001MA1999999099741MD1810131+9999REMSYN082AAXX  04121 11841 32680 52403 10044 21046 39974 40361 58013 85500 333 85636 91008;
0159118410999992000020415004+49230+018620FM-12+031599999V0202401N002010108019N0300001N1+00291-00261103401ADDGA1061+010809059GF106991061051012501001011MA1999999099521MD1710221+9999REMSYN076AAXX  04151 11841 42680 62402 10029 21026 39952 40340 57022 86501 333 86636;
0214118410999992000020418004+49230+018620FM-12+031599999V0202701N003012200019N0250001N1+00081-00181103311ADDAA199000091GA1011+015009069GF104991011051017501041001KA1120M+00551MA1999999099401MD1610121+9999REMSYN088AAXX  04181 11841 32775 42703 10008 21018 39940 40331 56012 81540 333 10055 81650 84363;EQDQ01  00002PRCP99
0193118410999992000020421004+49230+018620FM-12+031599999V0202701N004010099019N0300001N1+00181-00061103101ADDAY171031AY221031GA1051+009909069GF107991071051008001001001MA1999999099211MD1710191+9999MW1681REMSYN088AAXX  04211 11841 41580 72704 10018 21006 39921 40310 57019 76872 87500 333 85633 87645;
0246118410999992000020500004+49230+018620FM-12+031599999V0202601N006010033019N0060001N1+00071+00011102931ADDAA106001091AY171061AY211061GA1021+002109079GA2061+003309079GF108991081051002501999999GJ103429MA1999999099041MD1710171+9999MW1681REMSYN106AAXX  05001 11841 11356 82606 10007 20001 39904 40293 57017 60011 76871 885// 333 55057 82707 86711 88620;
0187118410999992000020503004+49230+018620FM-12+031599999V0202601N004010027019N0250001N1+00131+00041102741ADDAY171031AY271031GA1081+002709069GF108991081061002501999999MA1999999098861MD1610181+9999MW1231REMSYN082AAXX  05031 11841 41375 82604 10013 20004 39886 40274 56018 72377 886// 333 88709;
0270118410999992000020506004+49230+018620FM-12+031599999V0202901N001010030019N0035001N1+00131+00101102661ADDAA112004191AJ100199199999999AY171061AY221061GA1081+003009069GF108991081071004501999999IA1279IA2999+00009KA1120N+00051MA1999999098791MD1610071+9999MW1681REMSYN106AAXX  05061 11841 11435 82901 10013 20010 39879 40266 56007 60042 76872 887// 333 20005 3/100 43019 88710;
0101118410999992000020509004+49230+018620FM-12+031599999V0202801N003019999999N9999999N1+00251+00201102671ADDMA1999999098821MD1210031+9999REMSYN060AAXX  05091 11841 46/// /2803 10025 20020 39882 40267 52003;
0210118410999992000020512004+49230+018620FM-12+031599999V0200101N00101001201CN0025001N1+00331+00261102681ADDAA106000591AY161061AY221061GA1041+001809079GF108991081051001501999999MA1999999098831MD1010021+9999MW1601REMSYN094AAXX  05121 11841 11225 80101 10033 20026 39883 40268 50002 69941 76062 885// 333 84706 88617;
0101118410999992000020515004+49230+018620FM-12+031599999V0209999V001019999999N9999999N1+00251+00221102651ADDMA1999999098801MD1710041+9999REMSYN060AAXX  05151 11841 46/// /9901 10025 20022 39880 40265 57004;
0229118410999992000020518004+49230+018620FM-12+031599999V0209999C00001002101CN0010001N1+00201+00181102771ADDAA112000591AY161061AY221061GA1041+002109079GF108991081051002501999999KA1120M+00361MA1999999098901MD1210111+9999MW1211REMSYN100AAXX  05181 11841 11310 80000 10020 20018 39890 40277 52011 69942 72162 885// 333 10036 84707 88618;
0101118410999992000020521004+49230+018620FM-12+031599999V0200801N001019999999N9999999N1+00151+00151102851ADDMA1999999098981MD1210101+9999REMSYN060AAXX  05211 11841 46/// /0801 10015 20015 39898 40285 52010;
0212118410999992000020600004+49230+018620FM-12+031599999V0209999C000010006019N0004001N1+00091+00091102901ADDAA106000791AY141061AY221061GA1091+000609999GF109991091999999999999999GJ100009MA1999999099011MD1110031+9999MW1471REMSYN088AAXX  06001 11841 11/04 90000 10009 20009 39901 40290 51003 69901 74742 333 55000 89/02;
0181118410999992000020603004+49230+018620FM-12+031599999V0209999C000010003019N0002001N1+00121+00121102901ADDAY141031AY241031GA1091+000309999GF109991091999999999999999MA1999999099011MD1410001+9999MW1451REMSYN076AAXX  06031 11841 41/02 90000 10012 20012 39901 40290 54000 74544 333 89/01;
0264118410999992000020606004+49230+018620FM-12+031599999V0209999C000010003019N0002001N1+00101+00101102891ADDAA112000791AJ100189199999999AY141061AY241061GA1091+000309999GF109991091999999999999999IA1279IA2999+00009KA1120N+00071MA1999999099001MD1710011+9999MW1451REMSYN100AAXX  06061 11841 11/02 90000 10010 20010 39900 40289 57001 69902 74544 333 20007 3/000 43018 89/01;
0187118410999992000020609004+49230+018620FM-12+031599999V0209999C000010009019N0005001N1+00231+00231102891ADDAY141031AY241031GA1081+000909069GF108991081061001501999999MA1999999099021MD1110021+9999MW1441REMSYN082AAXX  06091 11841 41205 80000 10023 20023 39902 40289 51002 74444 886// 333 88703;
0217118410999992000020612004+49230+018620FM-12+031599999V0209999C000010033019N0020001N1+00541+00281102751ADDAA199000091AY141061AY241061GA1071+003309069GF107991071061004501001001MA1999999098931MD1810091+9999MW1101REMSYN082AAXX  06121 11841 31420 70000 10054 20028 39893 40275 58009 71044 87600 333 87711;EQDQ01  00002PRCP99
0187118410999992000020615004+49230+018620FM-12+031599999V0200801N002010015019N0020001N1+00421+00331102621ADDAY121031AY221031GA1081+001509069GF108991081061001501999999MA1999999098791MD1610141+9999MW1101REMSYN082AAXX  06151 11841 41220 80802 10042 20033 39879 40262 56014 71022 886// 333 88705;
0230118410999992000020618004+49230+018620FM-12+031599999V0201101N001010006019N0007001N1+00241+00221102641ADDAA199000091AY121061AY221061GA1091+000609999GF109991091999999999999999KA1120M+00621MA1999999098781MD1510011+9999MW1471REMSYN082AAXX  06181 11841 31/07 91101 10024 20022 39878 40264 55001 74722 333 10062 89/02;EQDQ01  00002PRCP99
0181118410999992000020621004+49230+018620FM-12+031599999V0200901N001010006019N0005001N1+00181+00181102551ADDAY141031AY241031GA1091+000609999GF109991091999999999999999MA1999999098691MD1810091+9999MW1451REMSYN076AAXX  06211 11841 41/05 90901 10018 20018 39869 40255 58009 74544 333 89/02;
0225118410999992000020700004+49230+018620FM-12+031599999V0200601N001010006019N0004001N1+00081+00081102421ADDAA199000091AY141061AY241061GA1091+000609999GF109991091999999999999999GJ100009MA1999999098551MD1710141+9999MW1451REMSYN082AAXX  07001 11841 31/04 90601 10008 20008 39855 40242 57014 74544 333 55000 89/02;EQDQ01  00002PRCP99
0181118410999992000020703004+49230+018620FM-12+031599999V0209999C000010006019N0004001N1+00041+00041102261ADDAY141031AY241031GA1091+000609999GF109991091999999999999999MA1999999098391MD1610161+9999MW1451REMSYN076AAXX  07031 11841 41/04 90000 10004 20004 39839 40226 56016 74544 333 89/02;
0277118410999992000020706004+49230+018620FM-12+031599999V0209999C000010006019N0003001N1+00021+00021102241ADDAA199000091AJ100189199999999AY141061AY241061GA1091+000609999GF109991091999999999999999IA1279IA2999+00009KA1120N+00011MA1999999098371MD1510021+9999MW1471REMSYN094AAXX  07061 11841 31/03 90000 10002 20002 39837 40224 55002 74744 333 20001 3/100 43018 89/02;EQDQ01  00002PRCP99
0181118410999992000020709004+49230+018620FM-12+031599999V0209999C000010003019N0003001N1+00081+00081102241ADDAY141031AY241031GA1091+000309999GF109991091999999999999999MA1999999098371MD1010001+9999MW1451REMSYN076AAXX  07091 11841 41/03 90000 10008 20008 39837 40224 50000 74544 333 89/01;
0211118410999992000020712004+49230+018620FM-12+031599999V0209999C000010006019N0002001N1+00181+00031102131ADDAA199000091AY141061AY241061GA1091+000609999GF109991091999999999999999MA1999999098281MD1810091+9999MW1471REMSYN076AAXX  07121 11841 31/02 90000 10018 20003 39828 40213 58009 74744 333 89/02;EQDQ01  00002PRCP99
0193118410999992000020715004+49230+018620FM-12+031599999V0201001N001010300019N0080001N1+00341+00211102021ADDAY141031AY221031GA1051+030009039GF107991051001999999031081MA1999999098201MD1610081+9999MW1101REMSYN088AAXX  07151 11841 41958 71001 10034 20021 39820 40202 56008 71042 85038 333 85360 87270;
0223118410999992000020718004+49230+018620FM-12+031599999V0201101N001010270019N0025001N1+00201+00161102051ADDAA112000791AY141061AY221061GA1081+027009019GF108991081001999999071999KA1120M+00421MA1999999098211MD1010011+9999MW1601REMSYN094AAXX  07181 11841 11925 81101 10020 20016 39821 40205 50001 69902 76042 8807/ 333 10042 88459;
0187118410999992000020721004+49230+018620FM-12+031599999V0200801N001010009019N0003001N1+00181+00151102021ADDAY161031AY221031GA1081+000909069GF108991081061000751999999MA1999999098181MD1810031+9999MW1461REMSYN082AAXX  07211 11841 41103 80801 10018 20015 39818 40202 58003 74662 886// 333 88703;
0212118410999992000020800004+49230+018620FM-12+031599999V0209999C000010006019N0002001N1+00161+00131101931ADDAA106000391AY161061AY221061GA1091+000609999GF109991091999999999999999GJ100009MA1999999098091MD1610091+9999MW1451REMSYN088AAXX  08001 11841 11/02 90000 10016 20013 39809 40193 56009 69931 74562 333 55000 89/02;
0181118410999992000020803004+49230+018620FM-12+031599999V0202501N001010006019N0002001N1+00171+00161101731ADDAY141031AY241031GA1091+000609999GF109991091999999999999999MA1999999097901MD1610191+9999MW1451REMSYN076AAXX  08031 11841 41/02 92501 10017 20016 39790 40173 56019 74544 333 89/02;
0264118410999992000020806004+49230+018620FM-12+031599999V0209999C000010003019N0001001N1+00151+00141101581ADDAA112000391AJ100169199999999AY141061AY241061GA1091+000309999GF109991091999999999999999IA1279IA2999+00009KA1120N+00141MA1999999097751MD1710151+9999MW1471REMSYN100AAXX  08061 11841 11/01 90000 10015 20014 39775 40158 57015 69932 74744 333 20014 3/000 43016 89/01;
0187118410999992000020809004+49230+018620FM-12+031599999V0202701N005010054019N0050001N1+00351+00261101441ADDAY141031AY241031GA1081+005409059GF108991081051004501999999MA1999999097641MD1810111+9999MW1611REMSYN082AAXX  08091 11841 41450 82705 10035 20026 39764 40144 58011 76144 885// 333 88618;
0204118410999992000020812004+49230+018620FM-12+031599999V0202501N006010078019N0150001N1+00581+00331101141ADDAA106000591AY161061AY241061GA1081+007809059GF108991081051008001999999MA1999999097391MD1710251+9999MW1601REMSYN088AAXX  08121 11841 11565 82506 10058 20033 39739 40114 57025 69941 76064 885// 333 88626;
0193118410999992000020815004+49230+018620FM-12+031599999V0202601N001010063019N0100001N1+00471+00351101021ADDAY161031AY221031GA1061+006309069GF108991081051008001999999MA1999999097261MD1610131+9999MW1021REMSYN088AAXX  08151 11841 41560 82601 10047 20035 39726 40102 56013 70262 885// 333 86621 88630;
0229118410999992000020818004+49230+018620FM-12+031599999V0200601N00101004201CN0030001N1+00221+00181100861ADDAA112000591AY161061AY221061GA1021+003609079GF108991081051004501999999KA1120M+00661MA1999999097071MD1610191+9999MW1101REMSYN100AAXX  08181 11841 11430 80601 10022 20018 39707 40086 56019 69942 71062 885// 333 10066 82712 88650;
0193118410999992000020821004+49230+018620FM-12+031599999V0209999C00001001201CN0008001N1+00201+00181100591ADDAY141031AY241031GA1031+001509079GF108991081051001501999999MA1999999096801MD1710271+9999MW1611REMSYN088AAXX  08211 11841 41208 80000 10020 20018 39680 40059 57027 76144 885// 333 83705 88620;
0224118410999992000020900004+49230+018620FM-12+031599999V0209999C000010015019N0005001N1+00231+00231100451ADDAA106007191AY161061AY261061GA1061+001509079GF108991081051001501999999GJ100009MA1999999096671MD1610131+9999MW1611REMSYN100AAXX  09001 11841 11205 80000 10023 20023 39667 40045 56013 60071 76166 885// 333 55000 86705 88623;
0193118410999992000020903004+49230+018620FM-12+031599999V0202701N00101001201CN0060001N1+00471+00461100421ADDAY161031AY241031GA1021+001809079GF108991081051001501999999MA1999999096681MD1010011+9999MW1611REMSYN088AAXX  09031 11841 41256 82701 10047 20046 39668 40042 50001 76164 885// 333 82706 88621;
0276118410999992000020906004+49230+018620FM-12+031599999V0209999C00001036001CN0150001N1+00401+00301100801ADDAA112007991AJ100139199999999AY161061AY221061GA1031+015009069GF108991031051017501071999IA1279IA2999+00009KA1120N+00161MA1999999097041MD1110391+9999MW1021REMSYN112AAXX  09061 11841 11765 80000 10040 20030 39704 40080 51039 60082 70262 8357/ 333 20016 3/000 43013 83650 88358;
0193118410999992000020909004+49230+018620FM-12+031599999V0202801N00301036001CN0250001N1+00511+00161101061ADDAY161031AY221031GA1041+010509089GF107991041021012501071001MA1999999097301MD1210261+9999MW1021REMSYN088AAXX  09091 11841 41675 72803 10051 20016 39730 40106 52026 70262 84270 333 84835 86361;
0210118410999992000020912004+49230+018620FM-12+031599999V0202801N00501220001CN0300001N1+00491-00031101281ADDAA106000391AY161061AY221061GA1031+009609089GF106991031021008001001061MA1999999097511MD1310211+9999MW1211REMSYN094AAXX  09121 11841 11580 62805 10049 21003 39751 40128 53021 69931 72162 83206 333 83832 86273;
0159118410999992000020915004+49230+018620FM-12+031599999V0202801N003012200019N0300001N1+00431-00251101451ADDGA1031+012009029GF105991031021012501001081MA1999999097661MD1310151+9999REMSYN076AAXX  09151 11841 42680 52803 10043 21025 39766 40145 53015 83208 333 83840;
0223118410999992000020918004+49230+018620FM-12+031599999V0202301N003012200019N0250001N1+00261-00161101781ADDAA112000391AY181061AY211061GA1021+010809029GF102991021021012501001001KA1120M+00561MA1999999097961MD1210301+9999MW1251REMSYN094AAXX  09181 11841 11675 22303 10026 21016 39796 40178 52030 69932 72581 82200 333 10056 82836;
0159118410999992000020921004+49230+018620FM-12+031599999V0200901N001010096019N0300001N1+00101-00041101861ADDGA1071+009609059GF107991071051008001001001MA1999999098011MD1010051+9999REMSYN076AAXX  09211 11841 42580 70901 10010 21004 39801 40186 50005 87500 333 87632;
0218118410999992000021000004+49230+018620FM-12+031599999V0202401N005010051019N0100001N1+00121+00001101861ADDAA106000891AY161061AY221061GA1081+005109059GF108991081051004501999999GJ100729MA1999999098011MD1510001+9999MW1601REMSYN094AAXX  10001 11841 11460 82405 10012 20000 39801 40186 55000 69971 76062 885// 333 55012 88617;
0187118410999992000021003004+49230+018620FM-12+031599999V0203001N003010084019N0200001N1+00141+00041101991ADDAY161031AY221031GA1081+008409059GF108991081051008001999999MA1999999098141MD1210131+9999MW1601REMSYN082AAXX  10031 11841 41570 83003 10014 20004 39814 40199 52013 76062 885// 333 88628;
0276118410999992000021006004+49230+018620FM-12+031599999V0203001N00101007501CN0150001N1+00131+00061102251ADDAA112002091AJ100119199999999AY161061AY221061GA1031+007809069GF108991081051008001999999IA1279IA2999+00009KA1120N+00061MA1999999098391MD1310251+9999MW1601REMSYN112AAXX  10061 11841 11565 83001 10013 20006 39839 40225 53025 60022 76062 885// 333 20006 3/100 43011 83626 88650;
0193118410999992000021009004+49230+018620FM-12+031599999V0202701N00201001201CN0150001N1+00221+00121102601ADDAY161031AY221031GA1011+001509079GF106991051051001501041091MA1999999098741MD1210351+9999MW1211REMSYN088AAXX  10091 11841 41265 62702 10022 20012 39874 40260 52035 72162 85549 333 81705 85630;
0204118410999992000021012004+49230+018620FM-12+031599999V0203301N001010117019N0300001N1+00351+00041102591ADDAA106000391AY161061AY221061GA1071+011709059GF107991071051012501001001MA1999999098751MD1010011+9999MW1021REMSYN088AAXX  10121 11841 11680 73301 10035 20004 39875 40259 50001 69931 70262 87500 333 87639;
0159118410999992000021015004+49230+018620FM-12+031599999V0200601N003012200019N0250001N1+00311+00001102481ADDGA1031+014109059GF103991031051012501001001MA1999999098641MD1610111+9999REMSYN076AAXX  10151 11841 42675 30603 10031 21000 39864 40248 56011 83500 333 83647;
0214118410999992000021018004+49230+018620FM-12+031599999V0201301N001012200019N0100001N1+00001-00071102521ADDAA112000391GA1011+015009059GF101991011051017501999001KA1120M+00561MA1999999098631MD1810011+9999REMSYN088AAXX  10181 11841 12760 11301 10000 21007 39863 40252 58001 69932 81500 333 10056 81650;EQDQ01    003SCOMCG
0181118410999992000021021004+49230+018620FM-12+031599999V0209999C000010003019N0003001N1-00091-00101102521ADDAY141031AY241031GA1091+000309999GF109991091999999999999999MA1999999098621MD1810011+9999MW1471REMSYN076AAXX  10211 11841 41/03 90000 11009 21010 39862 40252 58001 74744 333 89/01;
0225118410999992000021100004+49230+018620FM-12+031599999V0209999C000010003019N0002001N1-00191-00191102421ADDAA199000091AY141061AY241061GA1091+000309999GF109991091999999999999999GJ101389MA1999999098511MD1810111+9999MW1451REMSYN082AAXX  11001 11841 31/02 90000 11019 21019 39851 40242 58011 74544 333 55023 89/01;EQDQ01  00002PRCP99
0181118410999992000021103004+49230+018620FM-12+031599999V0209999C000010003019N0002001N1-00331-00331102401ADDAY141031AY241031GA1091+000309999GF109991091999999999999999MA1999999098471MD1710041+9999MW1451REMSYN076AAXX  11031 11841 41/02 90000 11033 21033 39847 40240 57004 74544 333 89/01;
