0178133890999992000010100004+42980+021950FM-12+023299999V0203401N006010075019N0005001N1-00091-00191101961ADDAA106000591AY171061AY271061GF108991081001008001021999MA1999999099041MD1210181+9999MW1711REMSYN078AAXX  01001 13389 11593 83406 11009 21019 39904 40196 52018 69951 77177 8802/;
0172133890999992000010103004+42980+021950FM-12+023299999V0203401N005010075019N0100001N1-00131-00221102181ADDAA106000021AY171031AY221031GF108991081061008001999999MA1999999099261MD1210221+9999MW1021REMSYN072AAXX  01031 13389 31597 83405 11013 21022 39926 40218 52022 70272 886//;
0276133890999992000010106004+42980+021950FM-12+023299999V0203401N003010075019N0100001N1-00161-00291102431ADDAA112000891AJ100139199999999AL10601391AY121061AY271061GF108991081061008001999999IA1279IA2999-00209KA1120N-00171MA1999999099491MD1210231+9999MW1021REMSYN118AAXX  01061 13389 11597 83403 11016 21029 39949 40243 52023 69982 70227 886// 333 21017 3/102 43013 55000 93113 92801;
0191133890999992000010109004+42980+021950FM-12+023299999V0203301N001010075019N0040001N1-00161-00251102651ADDAA106000091AY171031AY221031GF108991081061008001999999MA1999999099701MD1210211+9999MW1101REMSYN072AAXX  01091 13389 31596 83301 11016 21025 39970 40265 52021 71072 886//;EQDQ01  00002PRCP06
0178133890999992000010112004+42980+021950FM-12+023299999V0203201N002010075019N0100001N1-00091-00331102641ADDAA106000191AY171061AY221061GF108991081071008001999999MA1999999099701MD1410001+9999MW1701REMSYN078AAXX  01121 13389 11597 83202 11009 21033 39970 40264 54000 69921 77072 887//;
0172133890999992000010115004+42980+021950FM-12+023299999V0203001N001010075019N0100001N1-00171-00361102711ADDAA106000021AY121031AY271031GF107991071061008001001001MA1999999099761MD1310061+9999MW1011REMSYN072AAXX  01151 13389 31597 73001 11017 21036 39976 40271 53006 70127 87600;
0163133890999992000010121004+42980+021950FM-12+023299999V0202001N001010075019N0100001N1-00301-00401102821ADDAA106000091GF108991081061008001999999MA1999999099861MD1110021+9999REMSYN066AAXX  01211 13389 32597 82001 11030 21040 39986 40282 51002 886//;EQDQ01  00002PRCP06
0163133890999992000010203004+42980+021950FM-12+023299999V0209999C000010120019N0100001N1-00381-00441102811ADDAA106000091GF108991081051012501999999MA1999999099841MD1410001+9999REMSYN066AAXX  02031 13389 32697 80000 11038 21044 39984 40281 54000 885//;EQDQ01  00002PRCP06
0163133890999992000010209004+42980+021950FM-12+023299999V0209999C000010120019N0100001N1-00221-00401103011ADDAA106000091GF107991071051012501001001MA1999999100051MD1210171+9999REMSYN066AAXX  02091 13389 32697 70000 11022 21040 30005 40301 52017 87500;EQDQ01  00002PRCP06
0163133890999992000010215004+42980+021950FM-12+023299999V0209999C000012200019N0100001N1-00271-00611103001ADDAA106000091GF103991011051012501031001MA1999999100031MD1310051+9999REMSYN066AAXX  02151 13389 32697 30000 11027 21061 30003 40300 53005 81530;EQDQ01  00002PRCP06
0163133890999992000010221004+42980+021950FM-12+023299999V0203301N002010120019N0100001N1-00241-00531103231ADDAA106000091GF108991081051012501999999MA1999999100261MD1210151+9999REMSYN066AAXX  02211 13389 32697 83302 11024 21053 30026 40323 52015 885//;EQDQ01  00002PRCP06
0163133890999992000010300004+42980+021950FM-12+023299999V0203001N001010120019N0100001N1-00281-00571103251ADDAA106000091GF108991081051012501999999MA1999999100271MD1110011+9999REMSYN066AAXX  03001 13389 32697 83001 11028 21057 30027 40325 51001 885//;EQDQ01  00002PRCP06
0163133890999992000010303004+42980+021950FM-12+023299999V0203101N001010120019N0200001N1-00311-00571103251ADDAA106000091GF108991081051012501999999MA1999999100271MD1410001+9999REMSYN066AAXX  03031 13389 32698 83101 11031 21057 30027 40325 54000 885//;EQDQ01  00002PRCP06
0163133890999992000010309004+42980+021950FM-12+023299999V0200501N001010075019N0100001N1-00281-00571103411ADDAA106000091GF108991081061008001999999MA1999999100431MD1110091+9999REMSYN066AAXX  03091 13389 32597 80501 11028 21057 30043 40341 51009 886//;EQDQ01  00002PRCP06
0179133890999992000010312004+42980+021950FM-12+023299999V0201601N002010075019N0100001N1-00161-00481103201ADDAA106000091GF108991081061008001999999MA1999999100241MD1710211+9999REMSYN066AAXX  03121 13389 32597 81602 11016 21048 30024 40320 57109 886//;EQDQ01+001092APC3  Q02  00002PRCP06
0209133890999992000010318004+42980+021950FM-12+023299999V0209999C000010360019N0200001N1-00361-00531103011ADDAA106000091AJ100089199999999GF108991041051012501071999KA1120M-00111MA1999999100031MD1510091+9999REMSYN082AAXX  03181 13389 32698 80000 11036 21053 30003 40301 55009 8457/ 333 11011 4/008;EQDQ01  00002PRCP06
0163133890999992000010321004+42980+021950FM-12+023299999V0201601N001019999999N0100001N1-00471-00571102991ADDAA106000091GF107991071001999999071001MA1999999100001MD1810031+9999REMSYN066AAXX  03211 13389 32997 71601 11047 21057 30000 40299 58003 87070;EQDQ01  00002PRCP06
0163133890999992000010400004+42980+021950FM-12+023299999V0202001N001010360019N0100001N1-00451-00571102851ADDAA106000091GF108991041051012501071999MA1999999099871MD1710131+9999REMSYN066AAXX  04001 13389 32697 82001 11045 21057 39987 40285 57013 8457/;EQDQ01  00002PRCP06
0163133890999992000010403004+42980+021950FM-12+023299999V0202001N001010120019N0100001N1-00521-00571102721ADDAA106000091GF108991081051012501999999MA1999999099741MD1710131+9999REMSYN066AAXX  04031 13389 32697 82001 11052 21057 39974 40272 57013 885//;EQDQ01  00002PRCP06
0239133890999992000010406004+42980+021950FM-12+023299999V0201801N001010360019N0100001N1-00511-00611102691ADDAA106000091AJ100089199999999GF108991031051012501071999IA1279IA2999-00709KA1120N-00541MA1999999099711MD1710031+9999REMSYN094AAXX  04061 13389 32697 81801 11051 21061 39971 40269 57003 8357/ 333 21054 3/107 43008 55000;EQDQ01  00002PRCP06
0163133890999992000010409004+42980+021950FM-12+023299999V0209999C000012200019N0100001N1-00081-00531102651ADDAA106000091GF104991041001999999071001MA1999999099711MD1410001+9999REMSYN066AAXX  04091 13389 32997 40000 11008 21053 39971 40265 54000 84070;EQDQ01  00002PRCP06
0163133890999992000010412004+42980+021950FM-12+023299999V0200501N001012200019N0100001N1+00161-00361102511ADDAA106000091GF103991001001999999001011MA1999999099611MD1810101+9999REMSYN066AAXX  04121 13389 32997 30501 10016 21036 39961 40251 58010 80001;EQDQ01  00002PRCP06
0163133890999992000010415004+42980+021950FM-12+023299999V0209999C000012200019N0100001N1+00101-00361102431ADDAA106000091GF101991001001999999001011MA1999999099561MD1610051+9999REMSYN066AAXX  04151 13389 32997 10000 10010 21036 39956 40243 56005 80001;EQDQ01  00002PRCP06
0247133890999992000010418004+42980+021950FM-12+023299999V0201701N001012200019N0040001N1-00421-00481102531ADDAA106000091AJ100069199999999AY101061AY211061GA1001+999999999GF100991001001999999001001KA1120M+00271MA1999999099561MD1410001+9999MW1101REMSYN082AAXX  04181 13389 31996 01701 11042 21048 39956 40253 54000 71001 333 10027 4/006;EQDQ01  00002PRCP06
0201133890999992000010421004+42980+021950FM-12+023299999V0209999C000012200019N0040001N1-00601-00661102621ADDAA106000091AY101031AY201031GA1001+999999999GF100991001001999999001001MA1999999099631MD1310071+9999MW1101REMSYN066AAXX  04211 13389 31996 00000 11060 21066 39963 40262 53007 71000;EQDQ01  00002PRCP06
0191133890999992000010500004+42980+021950FM-12+023299999V0201801N001012200019N0040001N1-00721-00811102631ADDAA106000091AY101061AY201061GF103991031001999999031001MA1999999099631MD1410001+9999MW1101REMSYN072AAXX  05001 13389 31996 31801 11072 21081 39963 40263 54000 71000 83030;EQDQ01  00002PRCP06
0201133890999992000010503004+42980+021950FM-12+023299999V0209999C000012200019N0040001N1-00861-00971102601ADDAA106000091AY101031AY201031GA1001+999999999GF100991001001999999001001MA1999999099581MD1810051+9999MW1101REMSYN066AAXX  05031 13389 31996 00000 11086 21097 39958 40260 58005 71000;EQDQ01  00002PRCP06
0277133890999992000010506004+42980+021950FM-12+023299999V0201501N001012200019N0040001N1-00961-01091102581ADDAA106000091AJ100069199999999AY101061AY201061GA1001+999999999GF100991001001999999001001IA1279IA2999-01309KA1120N-01001MA1999999099551MD1810031+9999MW1101REMSYN094AAXX  05061 13389 31996 01501 11096 21109 39955 40258 58003 71000 333 21100 3/113 43006 55065;EQDQ01  00002PRCP06
0191133890999992000010509004+42980+021950FM-12+023299999V0202001N001019999999N0010001N1-00441-00571102611ADDAA106000091AY101031AY201031GF105991041001999999031011MA1999999099641MD1310091+9999MW1101REMSYN072AAXX  05091 13389 31994 52001 11044 21057 39964 40261 53009 71000 84031;EQDQ01  00002PRCP06
0191133890999992000010512004+42980+021950FM-12+023299999V0200601N002010120019N0040001N1-00141-00401102541ADDAA106000091AY121061AY211061GF107991051051012501031001MA1999999099611MD1810031+9999MW1101REMSYN072AAXX  05121 13389 31696 70602 11014 21040 39961 40254 58003 71021 85530;EQDQ01  00002PRCP06
0191133890999992000010515004+42980+021950FM-12+023299999V0200201N001010120019N0040001N1-00041-00291102511ADDAA106000091AY121031AY221031GF108991081051012501999999MA1999999099581MD1610031+9999MW1101REMSYN072AAXX  05151 13389 31696 80201 11004 21029 39958 40251 56003 71022 885//;EQDQ01  00002PRCP06
0237133890999992000010518004+42980+021950FM-12+023299999V0202001N001010120019N0040001N1-00071-00221102621ADDAA106000091AJ100069199999999AY121061AY221061GF108991081051012501999999KA1120M-00031MA1999999099681MD1310101+9999MW1101REMSYN088AAXX  05181 13389 31696 82001 11007 21022 39968 40262 53010 71022 885// 333 11003 4/006;EQDQ01  00002PRCP06
0191133890999992000010521004+42980+021950FM-12+023299999V0209999C000010120019N0040001N1-00121-00221102641ADDAA106000091AY121031AY221031GF108991081051012501999999MA1999999099701MD1110021+9999MW1101REMSYN072AAXX  05211 13389 31696 80000 11012 21022 39970 40264 51002 71022 885//;EQDQ01  00002PRCP06
0191133890999992000010603004+42980+021950FM-12+023299999V0209999C000010120019N0040001N1-00121-00251102611ADDAA106000091AY121031AY221031GF107991071051012501001001MA1999999099671MD1410001+9999MW1101REMSYN072AAXX  06031 13389 31696 70000 11012 21025 39967 40261 54000 71022 87500;EQDQ01  00002PRCP06
0238133890999992000010606004+42980+021950FM-12+023299999V0201801N002010120019N0020001N1-00431-00481102641ADDAA106000091AY121061AY221061GF107991061051012501031001IA2999-00709KA1120N-00431MA1999999099471MD1410001+9999MW1101REMSYN094AAXX  06061 13389 31695 71802 11043 21048 39947 40264 54000 71022 86530 333 21043 3/107 55011;EQDQ01  00002PRCP06
0191133890999992000010609004+42980+021950FM-12+023299999V0209999C000010120019N0010001N1-00131-00251102671ADDAA106000091AY111031AY221031GF106991061051012501001001MA1999999099731MD1310061+9999MW1101REMSYN072AAXX  06091 13389 31694 60000 11013 21025 39973 40267 53006 71012 86500;EQDQ01  00002PRCP06
0191133890999992000010612004+42980+021950FM-12+023299999V0200401N003012200019N0040001N1+00231-00151102551ADDAA106000091AY111061AY211061GF103991031051012501001001MA1999999099651MD1810081+9999MW1101REMSYN072AAXX  06121 13389 31696 30403 10023 21015 39965 40255 58008 71011 83500;EQDQ01  00002PRCP06
0191133890999992000010615004+42980+021950FM-12+023299999V0209999C000012200019N0040001N1+00181-00221102521ADDAA106000091AY101031AY201031GF102991021051012501001001MA1999999099621MD1610031+9999MW1101REMSYN072AAXX  06151 13389 31696 20000 10018 21022 39962 40252 56003 71000 82500;EQDQ01  00002PRCP06
0191133890999992000010621004+42980+021950FM-12+023299999V0201601N001010120019N0040001N1-00131-00221102781ADDAA106000091AY121031AY201031GF108991081051012501999999MA1999999099841MD1210151+9999MW1101REMSYN072AAXX  06211 13389 32696 81601 11013 21022 39984 40278 52015 71020 885//;EQDQ01  00002PRCP06
0191133890999992000010700004+42980+021950FM-12+023299999V0202901N002010120019N0040001N1-00081-00251102871ADDAA106000091AY121061AY211061GF108991081051012501999999MA1999999099931MD1210091+9999MW1101REMSYN072AAXX  07001 13389 31696 82902 11008 21025 39993 40287 52009 71021 885//;EQDQ01  00002PRCP06
0191133890999992000010703004+42980+021950FM-12+023299999V0209999C000010120019N0040001N1-00081-00251102941ADDAA106000091AY121031AY221031GF108991081051012501999999MA1999999099991MD1210061+9999MW1101REMSYN072AAXX  07031 13389 31696 80000 11008 21025 39999 40294 52006 71022 885//;EQDQ01  00002PRCP06
0267133890999992000010706004+42980+021950FM-12+023299999V0209999C000010120019N0040001N1-00091-00291103001ADDAA106000091AJ100049199999999AY121061AY221061GF108991081051012501999999IA1279IA2999-00509KA1120N-00131MA1999999100051MD1210061+9999MW1101REMSYN100AAXX  07061 13389 31696 80000 11009 21029 30005 40300 52006 71022 885// 333 21013 3/105 43004 55051;EQDQ01  00002PRCP06
0191133890999992000010709004+42980+021950FM-12+023299999V0202901N002010120019N0040001N1-00041-00331103121ADDAA106000091AY121031AY221031GF108991081051012501999999MA1999999100181MD1210131+9999MW1101REMSYN072AAXX  07091 13389 31696 82902 11004 21033 30018 40312 52013 71022 885//;EQDQ01  00002PRCP06
0191133890999992000010712004+42980+021950FM-12+023299999V0202601N001010120019N0040001N1+00061-00331103061ADDAA106000091AY121061AY221061GF108991081051012501999999MA1999999100131MD1810051+9999MW1101REMSYN072AAXX  07121 13389 31696 82601 10006 21033 30013 40306 58005 71022 885//;EQDQ01  00002PRCP06
0191133890999992000010715004+42980+021950FM-12+023299999V0202501N001010120019N0040001N1-00021-00361103021ADDAA106000091AY121031AY221031GF107991071051012501001001MA1999999100081MD1610051+9999MW1101REMSYN072AAXX  07151 13389 31696 72501 11002 21036 30008 40302 56005 71022 87500;EQDQ01  00002PRCP06
0237133890999992000010718004+42980+021950FM-12+023299999V0202801N001010120019N0040001N1-00081-00331103061ADDAA106000091AJ100039199999999AY121061AY221061GF108991081051012501999999KA1120M+00061MA1999999100111MD1310031+9999MW1101REMSYN088AAXX  07181 13389 31696 82801 11008 21033 30011 40306 53003 71022 885// 333 10006 4/003;EQDQ01  00002PRCP06
0163133890999992000010721004+42980+021950FM-12+023299999V0203001N001010120019N0100001N1-00111-00331103121ADDAA106000091GF108991081051012501999999MA1999999100171MD1210061+9999REMSYN066AAXX  07211 13389 32697 83001 11011 21033 30017 40312 52006 885//;EQDQ01  00002PRCP06
0237133890999992000011018004+42980+021950FM-12+023299999V0209999C000010120019N0040001N1-00261-00401103481ADDAA106000091AJ100029199999999AY121061AY221061GF108991081051012501999999KA1120M-00231MA1999999100501MD1210141+9999MW1101REMSYN088AAXX  10181 13389 31696 80000 11026 21040 30050 40348 52014 71022 885// 333 11023 4/002;EQDQ01  00002PRCP06
0191133890999992000011021004+42980+021950FM-12+023299999V0203501N002010120019N0005001N1-00251-00401103591ADDAA106000091AY121031AY221031GF108991081051012501999999MA1999999100621MD1210121+9999MW1101REMSYN072AAXX  10211 13389 31693 83502 11025 21040 30062 40359 52012 71022 885//;EQDQ01  00002PRCP06
0191133890999992000011100004+42980+021950FM-12+023299999V0209999C000010120019N0040001N1-00261-00441103661ADDAA106000091AY121061AY221061GF108991081051012501999999MA1999999100671MD1110051+9999MW1101REMSYN072AAXX  11001 13389 31696 80000 11026 21044 30067 40366 51005 71022 885//;EQDQ01  00002PRCP06
0191133890999992000011103004+42980+021950FM-12+023299999V0201601N001010120019N0040001N1-00281-00361103701ADDAA106000091AY121031AY221031GF108991081051012501999999MA1999999100711MD1310041+9999MW1101REMSYN072AAXX  11031 13389 31696 81601 11028 21036 30071 40370 53004 71022 885//;EQDQ01  00002PRCP06
0267133890999992000011106004+42980+021950FM-12+023299999V0203401N001010075019N0040001N1-00241-00331103751ADDAA106000091AJ100029199999999AY121061AY221061GF108991081061008001999999IA1309IA2999-00309KA1120N-00281MA1999999100771MD1210061+9999MW1101REMSYN100AAXX  11061 13389 31596 83401 11024 21033 30077 40375 52006 71022 886// 333 21028 3/103 42002 55000;EQDQ01  00002PRCP06
0172133890999992000011109004+42980+021950FM-12+023299999V0209999C000010075019N0040001N1-00221-00291103841ADDAA106000021AY171031AY221031GF108991081001008001021999MA1999999100861MD1210091+9999MW1711REMSYN072AAXX  11091 13389 31596 80000 11022 21029 30086 40384 52009 77172 8802/;
0178133890999992000011112004+42980+021950FM-12+023299999V0201901N001010075019N0040001N1-00101-00221103831ADDAA106000591AY171061AY271061GF108991081001008001021999MA1999999100861MD1410001+9999MW1711REMSYN078AAXX  11121 13389 11596 81901 11010 21022 30086 40383 54000 69941 77177 8802/;
0172133890999992000011115004+42980+021950FM-12+023299999V0203101N001010075019N0100001N1-00121-00291103831ADDAA106000021AY171031AY271031GF108991081061008001999999MA1999999100861MD1410001+9999MW1111REMSYN072AAXX  11151 13389 31597 83101 11012 21029 30086 40383 54000 71177 886//;
0219133890999992000011118004+42980+021950FM-12+023299999V0202801N001010075019N0040001N1-00281+99999103841ADDAA112000591AJ100029199999999AL10699999AY121061AY271061GF108991081061008001999999KA1120M-00081MD1410001+9999MW1101REMSYN094AAXX  11181 13389 11596 82801 11028 21025 40384 54000 69942 71027 886// 333 11008 4/002 93197;
0191133890999992000011121004+42980+021950FM-12+023299999V0202701N001010075019N0040001N1-00191-00291103911ADDAA106000091AY121031AY221031GF108991081061008001999999MA1999999100931MD1310071+9999MW1101REMSYN072AAXX  11211 13389 31596 82701 11019 21029 30093 40391 53007 71022 886//;EQDQ01  00002PRCP06
0172133890999992000011203004+42980+021950FM-12+023299999V0202401N001010075019N0040001N1-00221-00291103861ADDAA106000021AY171031AY221031GF108991081071008001999999MA1999999100881MD1810051+9999MW1701REMSYN072AAXX  12031 13389 31596 82401 11022 21029 30088 40386 58005 77072 887//;
0264133890999992000011206004+42980+021950FM-12+023299999V0209999C000010360019N0040001N1-00241-00291103841ADDAA112000191AJ100029199999999AL10699999AY171061AY271061GF108991031071008001021999IA1279IA2999-00309KA1120N-00241MA1999999100861MD1610021+9999MW1711REMSYN106AAXX  12061 13389 11596 80000 11024 21029 30086 40384 56002 69922 77177 8372/ 333 21024 3/103 43002 93197;
0172133890999992000011209004+42980+021950FM-12+023299999V0202401N001010360019N0040001N1-00181-00251103841ADDAA106000021AY171031AY221031GF108991021071008001021999MA1999999100861MD1410001+9999MW1711REMSYN072AAXX  12091 13389 31596 82401 11018 21025 30086 40384 54000 77172 8272/;
0178133890999992000011212004+42980+021950FM-12+023299999V0200501N001010075019N0040001N1-00021-00291103711ADDAA106000791AY171061AY271061GF108991081061008001999999MA1999999100751MD1810111+9999MW1101REMSYN078AAXX  12121 13389 11596 80501 11002 21029 30075 40371 58011 69901 71077 886//;
0144133890999992000011215004+42980+021950FM-12+023299999V0200701N001010120019N0100001N1-00081-00441103681ADDAA106000021GF108991081051012501999999MA1999999100711MD1610041+9999REMSYN066AAXX  12151 13389 32697 80701 11008 21044 30071 40368 56004 885//;
0212133890999992000011218004+42980+021950FM-12+023299999V0201601N001010120019N0100001N1-00141-00361103681ADDAA112000791AJ100029199999999AL10699999GF108991081051012501999999KA1120M+00021MA1999999100711MD1410001+9999REMSYN094AAXX  12181 13389 12697 81601 11014 21036 30071 40368 54000 69902 885// 333 10002 4/002 93197;
0163133890999992000011221004+42980+021950FM-12+023299999V0209999C000010120019N0100001N1-00201-00331103691ADDAA106000091GF108991081051012501999999MA1999999100711MD1410001+9999REMSYN066AAXX  12211 13389 32697 80000 11020 21033 30071 40369 54000 885//;EQDQ01  00002PRCP06
0163133890999992000011300004+42980+021950FM-12+023299999V0209999C000010120019N0100001N1-00281-00331103591ADDAA106000091GF108991081051012501999999MA1999999100601MD1710111+9999REMSYN066AAXX  13001 13389 32697 80000 11028 21033 30060 40359 57011 885//;EQDQ01  00002PRCP06
0163133890999992000011303004+42980+021950FM-12+023299999V0201901N001010120019N0100001N1-00321-00361103481ADDAA106000091GF108991081051012501999999MA1999999100501MD1710101+9999REMSYN066AAXX  13031 13389 32697 81901 11032 21036 30050 40348 57010 885//;EQDQ01  00002PRCP06
0255133890999992000011306004+42980+021950FM-12+023299999V0201801N001010120019N0100001N1-00401-00441103491ADDAA106000091AJ100029199999999AL10699999GF108991081051012501999999IA1309IA2999-00509KA1120N-00401MA1999999100501MD1410001+9999REMSYN100AAXX  13061 13389 32697 81801 11040 21044 30050 40349 54000 885// 333 21040 3/105 42002 55000 93197;EQDQ01  00002PRCP06
0163133890999992000011309004+42980+021950FM-12+023299999V0209999C000012200019N0100001N1-00061-00401103471ADDAA106000091GF102991011001999999031011MA1999999100521MD1310021+9999REMSYN066AAXX  13091 13389 32997 20000 11006 21040 30052 40347 53002 81031;EQDQ01  00002PRCP06
0173133890999992000011312004+42980+021950FM-12+023299999V0201801N001012200019N0100001N1+00341-00361103191ADDAA106000091GA1001+999999999GF100991001001999999001001MA1999999100281MD1810241+9999REMSYN060AAXX  13121 13389 32997 01801 10034 21036 30028 40319 58024;EQDQ01  00002PRCP06
0173133890999992000011315004+42980+021950FM-12+023299999V0201601N001012200019N0100001N1+00171-00401103151ADDAA106000091GA1001+999999999GF100991001001999999001001MA1999999100231MD1710051+9999REMSYN060AAXX  13151 13389 32997 01601 10017 21040 30023 40315 57005;EQDQ01  00002PRCP06
0219133890999992000011318004+42980+021950FM-12+023299999V0201501N001012200019N0100001N1-00291-00701103191ADDAA106000091AJ100029199999999GA1001+999999999GF100991001001999999001001KA1120M+00481MA1999999100221MD1610011+9999REMSYN076AAXX  13181 13389 32997 01501 11029 21070 30022 40319 56001 333 10048 4/002;EQDQ01  00002PRCP06
0177133890999992000011321004+42980+021950FM-12+023299999V0209999C000012200019N0100001N1-00451-00531103171ADDAA199000091GA1001+999999999GF100991001001999999001001MA1999999100191MD1810031+9999REMSYN064    AAXX  13211 13389 32997 00000 11045 21053 30019 40317 58003;EQDQ01  00002PRCP99
0177133890999992000011400004+42980+021950FM-12+023299999V0201501N001012200019N0100001N1-00651-00711103231ADDAA199000091GA1001+999999999GF100991001001999999001001MA1999999100221MD1310031+9999REMSYN064    AAXX  14001 13389 32997 01501 11065 21071 30022 40323 53003;EQDQ01  00002PRCP99
0177133890999992000011403004+42980+021950FM-12+023299999V0209999C000012200019N0100001N1-00761-00811103231ADDAA199000091GA1001+999999999GF100991001001999999001001MA1999999100201MD1810021+9999REMSYN064    AAXX  14031 13389 32997 00000 11076 21081 30020 40323 58002;EQDQ01  00002PRCP99
0281133890999992000011406004+42980+021950FM-12+023299999V0201801N001012200019N0040001N1-00831-00911103261ADDAA199000091AJ100029199999999AY101061AY201061GA1001+999999999GF100991001001999999001001IA1309IA2999-01109KA1120N-00841MA1999999100231MD1310031+9999MW1101REMSYN098    AAXX  14061 13389 31996 01801 11083 21091 30023 40326 53003 71000 333 21084 3/111 42002 55073;EQDQ01  00002PRCP99
0205133890999992000011409004+42980+021950FM-12+023299999V0201801N001012200019N0040001N1-00411-00571103181ADDAA199000091AY101031AY201031GA1001+999999999GF100991001001999999001001MA1999999100201MD1810031+9999MW1101REMSYN070    AAXX  14091 13389 31996 01801 11041 21057 30020 40318 58003 71000;EQDQ01  00002PRCP99
0205133890999992000011412004+42980+021950FM-12+023299999V0200601N002012200019N0040001N1+00031-00401102981ADDAA199000091AY101061AY201061GA1001+999999999GF100991001001999999001001MA1999999100051MD1710151+9999MW1101REMSYN070    AAXX  14121 13389 31996 00602 10003 21040 30005 40298 57015 71000;EQDQ01  00002PRCP99
0177133890999992000011415004+42980+021950FM-12+023299999V0209999C000012200019N0100001N1+00111-00361102921ADDAA199000091GA1001+999999999GF100991001001999999001001MA1999999100001MD1610051+9999REMSYN064    AAXX  14151 13389 32997 00000 10011 21036 30000 40292 56005;EQDQ01  00002PRCP99
0223133890999992000011418004+42980+021950FM-12+023299999V0201801N001012200019N0100001N1-00341-00481103021ADDAA199000091AJ100029199999999GA1001+999999999GF100991001001999999001001KA1120M+00301MA1999999100051MD1310051+9999REMSYN080    AAXX  14181 13389 32997 01801 11034 21048 30005 40302 53005 333 10030 4/002;EQDQ01  00002PRCP99
0177133890999992000011421004+42980+021950FM-12+023299999V0202101N002012200019N0100001N1-00551-00661103061ADDAA199000091GA1001+999999999GF100991001001999999001001MA1999999100061MD1110011+9999REMSYN064    AAXX  14211 13389 32997 02102 11055 21066 30006 40306 51001;EQDQ01  00002PRCP99
0177133890999992000011500004+42980+021950FM-12+023299999V0209999C000012200019N0100001N1-00781-00861103111ADDAA199000091GA1001+999999999GF100991001001999999001001MA1999999100081MD1310021+9999REMSYN064    AAXX  15001 13389 32997 00000 11078 21086 30008 40311 53002;EQDQ01  00002PRCP99
0177133890999992000011503004+42980+021950FM-12+023299999V0209999C000012200019N0100001N1-00891-01031103121ADDAA199000091GA1001+999999999GF100991001001999999001001MA1999999100081MD1410001+9999REMSYN064    AAXX  15031 13389 32997 00000 11089 21103 30008 40312 54000;EQDQ01  00002PRCP99
0297133890999992000011506004+42980+021950FM-12+023299999V0209999C000012200019N0040001N1-01101-01151103081ADDAA199000091AJ100009199999999AY101061AY201061GA1001+999999999GF100991001001999999001001IA1309IA2999-01309KA1120N+99999MA1999999100031MD1810051+9999MW1101REMSYN098    AAXX  15061 13389 31996 00000 11110 21115 30003 40308 58005 71000 333 21100 31113 42000 55080;EQDQ01  00002PRCP99Q02 -01002ATMN  
0195133890999992000011509004+42980+021950FM-12+023299999V0209999C000019999999N0040001N1-00341-00531103031ADDAA199000091AY111031AY211031GF106991001001999999001061MA1999999100061MD1310031+9999MW1101REMSYN076    AAXX  15091 13389 31996 60000 11034 21053 30006 40303 53003 71011 80006;EQDQ01  00002PRCP99
0205133890999992000011512004+42980+021950FM-12+023299999V0209999C000012200019N0040001N1+00211-00331102751ADDAA199000091AY101061AY201061GA1001+999999999GF100991001001999999001001MA1999999099841MD1810221+9999MW1101REMSYN070    AAXX  15121 13389 31996 00000 10021 21033 39984 40275 58022 71000;EQDQ01  00002PRCP99
0167133890999992000011515004+42980+021950FM-12+023299999V0209999C000012200019N0200001N1+00151-00441102671ADDAA199000091GF102991001001999999001011MA1999999099761MD1710081+9999REMSYN070    AAXX  15151 13389 32998 20000 10015 21044 39976 40267 57008 80001;EQDQ01  00002PRCP99
0177133890999992000011521004+42980+021950FM-12+023299999V0202101N001012200019N0100001N1-00581-00761102871ADDAA199000091GA1001+999999999GF100991001001999999001001MA1999999099871MD1310021+9999REMSYN064    AAXX  15211 13389 32997 02101 11058 21076 39987 40287 53002;EQDQ01  00002PRCP99
0167133890999992000011600004+42980+021950FM-12+023299999V0201601N001010120019N0100001N1-00481-00531102901ADDAA199000091GF108991081051012501999999MA1999999099911MD1210041+9999REMSYN070    AAXX  16001 13389 32697 81601 11048 21053 39991 40290 52004 885//;EQDQ01  00002PRCP99
0167133890999992000011603004+42980+021950FM-12+023299999V0209999C000010120019N0100001N1-00361-00441102901ADDAA199000091GF108991081051012501999999MA1999999099921MD1110011+9999REMSYN070    AAXX  16031 13389 32697 80000 11036 21044 39992 40290 51001 885//;EQDQ01  00002PRCP99
0271133890999992000011606004+42980+021950FM-12+023299999V0209999C000010120019N0040001N1-00311-00401102941ADDAA199000091AJ100029199999999AY121061AY221061GF108991081051012501999999IA1309IA2999-01009KA1120N-00651MA1999999099971MD1310051+9999MW1101REMSYN104    AAXX  16061 13389 32696 80000 11031 21040 39997 40294 53005 71022 885// 333 21065 3/110 42002 55063;EQDQ01  00002PRCP99
0176133890999992000011609004+42980+021950FM-12+023299999V0202001N002010075019N0040001N1-00221-00331103001ADDAA199000021AY171031AY221031GF108991081071008001999999MA1999999100041MD1210071+9999MW1711REMSYN076    AAXX  16091 13389 31596 82002 11022 21033 30004 40300 52007 77172 887//;
0182133890999992000011612004+42980+021950FM-12+023299999V0209999C000010075019N0040001N1-00061-00401102901ADDAA106000191AY171061AY221061GF108991081061008001999999MA1999999099951MD1810091+9999MW1021REMSYN082    AAXX  16121 13389 11596 80000 11006 21040 39995 40290 58009 69911 70272 886//;
0176133890999992000011615004+42980+021950FM-12+023299999V0209999C000010360019N0040001N1-00131-00331102851ADDAA199000021AY171031AY241031GF108991021071008001021999MA1999999099911MD1610041+9999MW1711REMSYN076    AAXX  16151 13389 31596 80000 11013 21033 39991 40285 56004 77174 8272/;
0244133890999992000011618004+42980+021950FM-12+023299999V0209999C000010360019N0040001N1-00191-00331102891ADDAA112000191AJ100029199999999AL10699999AY171061AY271061GF108991021071008001021999KA1120M-00051MA1999999099941MD1310031+9999MW1711REMSYN104    AAXX  16181 13389 11596 80000 11019 21033 39994 40289 53003 69922 77177 8272/ 333 11005 4/002 93197;
0176133890999992000011621004+42980+021950FM-12+023299999V0209999C000010360019N0040001N1-00221-00331102851ADDAA199000021AY171031AY271031GF108991021071008001021999MA1999999099901MD1810041+9999MW1711REMSYN076    AAXX  16211 13389 31596 80000 11022 21033 39990 40285 58004 77177 8272/;
0182133890999992000011700004+42980+021950FM-12+023299999V0201801N001010360019N0040001N1-00261-00361102751ADDAA106000191AY171061AY271061GF108991021071008001011999MA1999999099791MD1710111+9999MW1711REMSYN082    AAXX  17001 13389 11596 81801 11026 21036 39979 40275 57011 69911 77177 8271/;
0176133890999992000011703004+42980+021950FM-12+023299999V0202501N001010075019N0040001N1-00261-00361102601ADDAA199000021AY171031AY271031GF108991081001008001021999MA1999999099641MD1710151+9999MW1711REMSYN076    AAXX  17031 13389 31596 82501 11026 21036 39964 40260 57015 77177 8802/;
0268133890999992000011706004+42980+021950FM-12+023299999V0203301N001010075019N0040001N1-00281-00571102471ADDAA112000191AJ100039199999999AL10600191AY121061AY271061GF108991081061008001999999IA1279IA2999-00309KA1120N-00281MA1999999099521MD1710121+9999MW1101REMSYN110    AAXX  17061 13389 11596 83301 11028 21057 39952 40247 57012 69922 71027 886// 333 21028 3/103 43003 93101;
0176133890999992000011709004+42980+021950FM-12+023299999V0202101N002012200019N0040001N1-00141-00331102201ADDAA199000021AY171031AY271031GF103991031081012501001001MA1999999099281MD1710241+9999MW1701REMSYN076    AAXX  17091 13389 31696 32102 11014 21033 39928 40220 57024 77077 83800;
0182133890999992000011712004+42980+021950FM-12+023299999V0201701N002010360019N0100001N1+00111-00711101761ADDAA106000791AY111061AY271061GF105991011011012501031001MA1999999098861MD1710421+9999MW1021REMSYN082    AAXX  17121 13389 11697 51702 10011 21071 39886 40176 57042 69901 70217 81130;
0148133890999992000011715004+42980+021950FM-12+023299999V0200701N002010360019N0200001N1-00061-00761101381ADDAA199000021GF106991021051012501031001MA1999999098481MD1710381+9999REMSYN070    AAXX  17151 13389 32698 60702 11006 21076 39848 40138 57038 82530;
0216133890999992000011718004+42980+021950FM-12+023299999V0209999C000010120019N0100001N1-00071-00661101141ADDAA112000791AJ100029199999999AL10699999GF108991081051012501999999KA1120M+00111MA1999999098251MD1710231+9999REMSYN098    AAXX  17181 13389 12697 80000 11007 21066 39825 40114 57023 69902 885// 333 10011 4/002 93197;
0176133890999992000011721004+42980+021950FM-12+023299999V0201401N001010075019N0100001N1-00061-00571100731ADDAA199000021AY171031AY221031GF108991081071008001999999MA1999999097851MD1710401+9999MW1701REMSYN076    AAXX  17211 13389 31597 81401 11006 21057 39785 40073 57040 77072 887//;
0182133890999992000011800004+42980+021950FM-12+023299999V0209999C000010075019N0040001N1-00101-00221100401ADDAA106000591AY171061AY271061GF108991081001008001021999MA1999999097531MD1710321+9999MW1711REMSYN082    AAXX  18001 13389 11596 80000 11010 21022 39753 40040 57032 69961 77177 8802/;
0176133890999992000011803004+42980+021950FM-12+023299999V0202301N002010075019N0040001N1+00061+00011100071ADDAA199000021AY171031AY271031GF108991081001008001021999MA1999999097231MD1710301+9999MW1711REMSYN076    AAXX  18031 13389 31596 82302 10006 20001 39723 40007 57030 77177 8802/;
0274133890999992000011806004+42980+021950FM-12+023299999V0203101N001010075019N0040001N1+00041+00011100061ADDAA112006191AJ100069199999999AL10600491AY171061AY271061GF108991081001008001021999IA1279IA2999-00209KA1120N-00101MA1999999097211MD1510021+9999MW1711REMSYN116    AAXX  18061 13389 11596 83101 10004 20001 39721 40006 55002 60062 77177 8802/ 333 21010 3/102 43006 55038 93104;
0180133890999992000011809004+42980+021950FM-12+023299999V0203401N002010120019N0100001N1+00141-00021100271ADDAA199000021AY171031AY261031GF108991081001012501021999MD1210211+9999MW1711REMSYN076    AAXX  18091 13389 31697 83402 10014 21002 37742 40027 52021 77176 8802/;EQDQ01+077423APOSP 
0182133890999992000011812004+42980+021950FM-12+023299999V0201601N002010150019N0200001N1+00271+00011100131ADDAA106000591AY171061AY261061GF107991071081012501001001MA1999999097311MD1810111+9999MW1021REMSYN082    AAXX  18121 13389 11698 71602 10027 20001 39731 40013 58011 69941 70276 87800;
0148133890999992000011815004+42980+021950FM-12+023299999V0209999C000010120019N0100001N1+00251-00091100001ADDAA199000021GF108991081051012501999999MA1999999097171MD1710141+9999REMSYN070    AAXX  18151 13389 32697 80000 10025 21009 39717 40000 57014 885//;
0231133890999992000011818004+42980+021950FM-12+023299999V0200401N001010075019N0100001N1+00051+00011099871ADDAA112002091AJ100039199999999AL10600191AY171061AY271061GF107991071061008001001001MA1999999097021MD1710151+9999MW1271REMSYN104    AAXX  18181 13389 11597 70401 10005 20001 39702 49987 57015 60022 72777 87600 333 10/// 4/003 93101;
0176133890999992000011821004+42980+021950FM-12+023299999V0203601N003010075019N0100001N1+00081+00011100451ADDAA199000021AY171031AY221031GF107991071061008001001001MA1999999097601MD1310581+9999MW1701REMSYN076    AAXX  18211 13389 31597 73603 10008 20001 39760 40045 53058 77072 87600;
0182133890999992000011900004+42980+021950FM-12+023299999V0203301N006010075019N0200001N1+00031-00331100751ADDAA106001091AY111061AY271061GF105991051061008001001001MA1999999097881MD1110281+9999MW1021REMSYN082    AAXX  19001 13389 11598 53306 10003 21033 39788 40075 51028 60011 70217 85600;
0148133890999992000011903004+42980+021950FM-12+023299999V0203201N002010075019N0200001N1+00021-00401100911ADDAA199000021GF107991071061008001001001MA1999999098031MD1310151+9999REMSYN070    AAXX  19031 13389 32598 73202 10002 21040 39803 40091 53015 87600;
0280133890999992000011906004+42980+021950FM-12+023299999V0202101N002010075019N0200001N1+00011-00361101021ADDAA112001091AJ100039199999999AL10600191AY171061AY271061GF108991081061008001999999IA1279IA2999-00209KA1120N+00041MA1999999098141MD1210111+9999MW1221REMSYN122    AAXX  19061 13389 11598 82102 10001 21036 39814 40102 52011 60012 72277 886// 333 20004 3/102 43003 55003 93101 92821;
0176133890999992000011909004+42980+021950FM-12+023299999V0202301N002010075019N0100001N1+00081-00151101131ADDAA199000021AY121031AY271031GF108991081071008001999999MA1999999098261MD1210121+9999MW1711REMSYN076    AAXX  19091 13389 31597 82302 10008 21015 39826 40113 52012 77127 887//;
0182133890999992000011912004+42980+021950FM-12+023299999V0203001N003010075019N0100001N1+00161-00191101201ADDAA106000191AY171061AY271061GF107991071061008001001001MA1999999098341MD1210081+9999MW1221REMSYN082    AAXX  19121 13389 11597 73003 10016 21019 39834 40120 52008 69921 72277 87600;
0172133890999992000011915004+42980+021950FM-12+023299999V0203101N003010150019N0100001N1+00021-00251101441ADDAA199000021AY121031AY271031GF106991061081012501001001MA1999999098551MD1210211+9999MW1021REMSYN072AAXX  19151 13389 31697 63103 10002 21025 39855 40144 52021 70227 86800;
0240133890999992000011918004+42980+021950FM-12+023299999V0203201N001010075019N0010001N1-00141-00221101691ADDAA112000591AJ100039199999999AL10600191AY171061AY271061GF108991081001008001021999KA1120M+00181MA1999999098781MD1210231+9999MW1731REMSYN100AAXX  19181 13389 11594 83201 11014 21022 39878 40169 52023 69962 77377 8802/ 333 10018 4/003 93101;
0172133890999992000011921004+42980+021950FM-12+023299999V0202501N001010120019N0040001N1-00111-00401101791ADDAA199000021AY171031AY271031GF108991081001012501021999MA1999999098881MD1310101+9999MW1711REMSYN072AAXX  19211 13389 31696 82501 11011 21040 39888 40179 53010 77177 8802/;
0178133890999992000012000004+42980+021950FM-12+023299999V0203201N006012200019N0100001N1-00271-00611102051ADDAA106000391AY171061AY271061GF104991041051012501001001MA1999999099111MD1210231+9999MW1021REMSYN078AAXX  20001 13389 11697 43206 11027 21061 39911 40205 52023 69931 70277 84500;
0172133890999992000012003004+42980+021950FM-12+023299999V0202501N002012200019N0100001N1-00371-00481102171ADDAA199000021AY171031AY211031GF104991041051012501001001MA1999999099221MD1210111+9999MW1221REMSYN072AAXX  20031 13389 31697 42502 11037 21048 39922 40217 52011 72271 84500;
0276133890999992000012006004+42980+021950FM-12+023299999V0201801N001010120019N0100001N1-00301-00661102361ADDAA112000591AJ100049199999999AL10600291AY171061AY271061GF107991071051012501001001IA1279IA2999-00809KA1120N-00401MA1999999099411MD1210191+9999MW1031REMSYN118AAXX  20061 13389 12697 71801 11030 21066 39941 40236 52019 69962 70377 87500 333 21040 3/108 43004 55003 92800 93102;
0144133890999992000012009004+42980+021950FM-12+023299999V0203401N003010120019N0100001N1-00141-00481102551ADDAA199000021GF106991061081008001001001MA1999999099621MD1210211+9999REMSYN066AAXX  20091 13389 32597 63403 11014 21048 39962 40255 52021 86800;
0144133890999992000012012004+42980+021950FM-12+023299999V0203401N003012200019N0100001N1-00041-00401102631ADDAA199000021GF104991041081012501001001MA1999999099701MD1110071+9999REMSYN066AAXX  20121 13389 32697 43403 11004 21040 39970 40263 51007 84800;
0172133890999992000012015004+42980+021950FM-12+023299999V0200401N001010150019N0100001N1-00081-00401102641ADDAA199000021AY171031AY221031GF106991061081012501001001MA1999999099701MD1410001+9999MW1021REMSYN072AAXX  20151 13389 31697 60401 11008 21040 39970 40264 54000 70272 86800;
0240133890999992000012018004+42980+021950FM-12+023299999V0201601N001012200019N0100001N1-00541-00711102681ADDAA112000791AJ100049199999999AL10699999AY121061AY271061GF102991021001999999031001KA1120M+00261MA1999999099701MD1410001+9999MW1011REMSYN100AAXX  20181 13389 11997 21601 11054 21071 39970 40268 54000 69902 70127 82030 333 10026 4/004 93197;
0173133890999992000012100004+42980+021950FM-12+023299999V0202001N001012200019N0100001N1-01141-01221102471ADDAA199000091GA1001+999999999GF100991001001999999001001MA1999999099431MD1810171+9999REMSYN060AAXX  21001 13389 32997 02001 11114 21122 39943 40247 58017;EQDQ01  00002PRCP99
0163133890999992000012103004+42980+021950FM-12+023299999V0201601N001019999999N0100001N1-00681-00761102111ADDAA199000091GF105991051001999999031001MA1999999099121MD1710311+9999REMSYN066AAXX  21031 13389 32997 51601 11068 21076 39912 40211 57031 85030;EQDQ01  00002PRCP99
0239133890999992000012106004+42980+021950FM-12+023299999V0209999C000019999999N0200001N1-00541-00861101831ADDAA199000091AJ100049199999999GF107991071001999999071001IA1279IA2999-01409KA1120N-01161MA1999999098871MD1710251+9999REMSYN094AAXX  21061 13389 32998 70000 11054 21086 39887 40183 57025 87070 333 21116 3/114 43004 55041;EQDQ01  00002PRCP99
0163133890999992000012109004+42980+021950FM-12+023299999V0201301N003012200019N0200001N1-00081-00911101581ADDAA199000091GF104991041001999999071001MA1999999098671MD1710201+9999REMSYN066AAXX  21091 13389 32998 41303 11008 21091 39867 40158 57020 84070;EQDQ01  00002PRCP99
0163133890999992000012112004+42980+021950FM-12+023299999V0200801N003010120019N0200001N1+00041-00711101191ADDAA199000091GF107991051051012501071001MA1999999098311MD1710361+9999REMSYN066AAXX  21121 13389 32698 70803 10004 21071 39831 40119 57036 85570;EQDQ01  00002PRCP99
0173133890999992000012115004+42980+021950FM-12+023299999V0202401N006010120019N0200001N1+00381-00151100901ADDAA199000091GF107991071051012501001001MA1999999098061MD1710251+9999REMSYN076AAXX  21151 13389 32698 72406 10038 21015 39806 40090 57025 87500 333 91111;EQDQ01  00002PRCP99
0215133890999992000012118004+42980+021950FM-12+023299999V0202401N006010360019N0200001N1+00411-00091100731ADDAA199000091AJ100039199999999GF107991031051012501071001KA1120M+00451MA1999999097901MD1710161+9999REMSYN088AAXX  21181 13389 32698 72406 10041 21009 39790 40073 57016 83570 333 10045 4/003 91112;EQDQ01  00002PRCP99
0172133890999992000012121004+42980+021950FM-12+023299999V0203101N004010120019N0100001N1+00101-00091101171ADDAA199000021AY171031AY261031GF108991081001012501021999MA1999999098301MD1310401+9999MW1711REMSYN072AAXX  21211 13389 31697 83104 10010 21009 39830 40117 53040 77176 8802/;
0189133890999992000012203004+42980+021950FM-12+023299999V0203401N005012200019N0200001N1-00351-01151102072ADDAA199000021GF103991031051012501001001MA1999999099122MD1210341+9999REMSYN076AAXX  22031 13389 32698 33405 11035 21115 39912 40207 52034 83500 333 91112;EQDQ01+099123APOSP Q02+102073APOSLP
0242133890999992000012206004+42980+021950FM-12+023299999V0203301N002012200019N0200001N1-00661-01221102281ADDAA112001091AJ100049199999999AL10600291GF102991021001999999031001IA1239IA2999-01209KA1120N-00661MA1999999099291MD1210171+9999REMSYN106AAXX  22061 13389 12998 23302 11066 21122 39929 40228 52017 60012 82030 333 21066 3/112 47004 55009 93102;
0144133890999992000012209004+42980+021950FM-12+023299999V0201301N002019999999N0200001N1-00291-01031102381ADDAA199000021GF107991001001999999001061MA1999999099431MD1110141+9999REMSYN066AAXX  22091 13389 32998 71302 11029 21103 39943 40238 51014 80006;
0163133890999992000012212004+42980+021950FM-12+023299999V0201201N002012200019N0200001N1-00121-01151102231ADDAA199000091GF102991001001999999001011MA1999999099311MD1810121+9999REMSYN066AAXX  22121 13389 32998 21202 11012 21115 39931 40223 58012 80001;EQDQ01  00002PRCP99
0163133890999992000012215004+42980+021950FM-12+023299999V0200601N002019999999N0200001N1-00181-01371102021ADDAA199000091GF107991001001999999001061MA1999999099091MD1710221+9999REMSYN066AAXX  22151 13389 32998 70602 11018 21137 39909 40202 57022 80006;EQDQ01  00002PRCP99
0209133890999992000012218004+42980+021950FM-12+023299999V0200401N001019999999N0200001N1-00511-01291101971ADDAA199000091AJ100039199999999GF107991001001999999001061KA1120M-00101MA1999999099011MD1610081+9999REMSYN082AAXX  22181 13389 32998 70401 11051 21129 39901 40197 56008 80006 333 11010 4/003;EQDQ01  00002PRCP99
0163133890999992000012221004+42980+021950FM-12+023299999V0201601N002019999999N0200001N1-00821-01151101901ADDAA199000091GF107991071001999999071001MA1999999098911MD1810101+9999REMSYN066AAXX  22211 13389 32998 71602 11082 21115 39891 40190 58010 87070;EQDQ01  00002PRCP99
0163133890999992000012300004+42980+021950FM-12+023299999V0202401N001019999999N0200001N1-00591-01151101671ADDAA199000091GF107991071001999999071001MA1999999098711MD1710201+9999REMSYN066AAXX  23001 13389 32998 72401 11059 21115 39871 40167 57020 87070;EQDQ01  00002PRCP99
0163133890999992000012303004+42980+021950FM-12+023299999V0200601N001010360019N0200001N1-00491-00911101471ADDAA199000091GF108991041051012501071999MA1999999098531MD1710181+9999REMSYN066AAXX  23031 13389 32698 80601 11049 21091 39853 40147 57018 8457/;EQDQ01  00002PRCP99
0239133890999992000012306004+42980+021950FM-12+023299999V0201201N001010120019N0200001N1-00401-00911101111ADDAA199000091AJ100039199999999GF108991081051012501999999IA1279IA2999-01209KA1120N-00881MA1999999098191MD1710341+9999REMSYN094AAXX  23061 13389 32698 81201 11040 21091 39819 40111 57034 885// 333 21088 3/112 43003 55058;EQDQ01  00002PRCP99
0163133890999992000012309004+42980+021950FM-12+023299999V0200601N002010120019N0200001N1-00161-00611100741ADDAA199000091GF107991051051012501031001MA1999999097891MD1710301+9999REMSYN066AAXX  23091 13389 32698 70602 11016 21061 39789 40074 57030 85530;EQDQ01  00002PRCP99
0163133890999992000012312004+42980+021950FM-12+023299999V0203601N003010120019N0200001N1+00361-00361100421ADDAA199000091GF107991071051012501001001MA1999999097601MD1710291+9999REMSYN066AAXX  23121 13389 32698 73603 10036 21036 39760 40042 57029 87500;EQDQ01  00002PRCP99
0163133890999992000012315004+42980+021950FM-12+023299999V0200201N002010120019N0200001N1+00381-00221100231ADDAA199000091GF107991071051012501001001MA1999999097411MD1610191+9999REMSYN066AAXX  23151 13389 32698 70202 10038 21022 39741 40023 56019 87500;EQDQ01  00002PRCP99
0224133890999992000012318004+42980+021950FM-12+023299999V0203601N003010120019N0100001N1+00211+00011100211ADDAA112000191AJ100029199999999AY161061AY221061GF108991081051012501999999KA1120M+00461MA1999999097371MD1810041+9999MW1611REMSYN094AAXX  23181 13389 11697 83603 10021 20001 39737 40021 58004 69912 76162 885// 333 10046 4/002;
0172133890999992000012321004+42980+021950FM-12+023299999V0203001N002010120019N0020001N1-00041-00121100261ADDAA199000021AY171031AY261031GF108991081001012501021999MA1999999097401MD1310031+9999MW1731REMSYN072AAXX  23211 13389 31695 83002 11004 21012 39740 40026 53003 77376 8802/;
0178133890999992000012400004+42980+021950FM-12+023299999V0202901N003010120019N0040001N1-00521-00661100611ADDAA106007191AY171061AY261061GF108991081001012501021999MA1999999097691MD1210291+9999MW1711REMSYN078AAXX  24001 13389 11696 82903 11052 21066 39769 40061 52029 60071 77176 8802/;
0172133890999992000012403004+42980+021950FM-12+023299999V0203401N003010075019N0020001N1-00531-00711100771ADDAA199000021AY171031AY271031GF108991081001008001021999MA1999999097851MD1210161+9999MW1731REMSYN072AAXX  24031 13389 31595 83403 11053 21071 39785 40077 52016 77377 8802/;
0172133890999992000012409004+42980+021950FM-12+023299999V0203201N003010360019N0020001N1-00541-00761101131ADDAA199000021AY171031AY271031GF108991021071008001021999MA1999999098191MD1210211+9999MW1711REMSYN072AAXX  24091 13389 31595 83203 11054 21076 39819 40113 52021 77177 8272/;
0178133890999992000012412004+42980+021950FM-12+023299999V0200401N001010075019N0005001N1-00401-00571101151ADDAA106001091AY171061AY271061GF108991081001008001021999MA1999999098231MD1210041+9999MW1751REMSYN078AAXX  24121 13389 11593 80401 11040 21057 39823 40115 52004 60011 77577 8802/;
0172133890999992000012415004+42980+021950FM-12+023299999V0209999C000010075019N0020001N1-00541-00711101381ADDAA199000021AY171031AY271031GF108991071021008001999999MA1999999098441MD1210211+9999MW1731REMSYN072AAXX  24151 13389 31595 80000 11054 21071 39844 40138 52021 77377 872//;
0240133890999992000012418004+42980+021950FM-12+023299999V0203601N004010360019N0020001N1-00621-00811101651ADDAA112002091AJ100229199999999AL10600691AY171061AY271061GF108991021071008001021999KA1120M-00371MA1999999098691MD1210251+9999MW1731REMSYN100AAXX  24181 13389 11595 83604 11062 21081 39869 40165 52025 60022 77377 8272/ 333 11037 4/022 93106;
0172133890999992000012421004+42980+021950FM-12+023299999V0209999C000010360019N0040001N1-00681-00861101901ADDAA199000021AY171031AY271031GF108991031071008001021999MA1999999098921MD1210231+9999MW1711REMSYN072AAXX  24211 13389 31596 80000 11068 21086 39892 40190 52023 77177 8372/;
0178133890999992000012500004+42980+021950FM-12+023299999V0202201N002010360019N0020001N1-00731-00811102111ADDAA106000591AY171061AY271061GF108991021071008001021999MA1999999099121MD1210201+9999MW1731REMSYN078AAXX  25001 13389 11595 82202 11073 21081 39912 40211 52020 69961 77377 8272/;
0172133890999992000012503004+42980+021950FM-12+023299999V0202701N001010360019N0100001N1-00941-01031102321ADDAA199000021AY171031AY221031GF107991021051012501071001MA1999999099311MD1210191+9999MW1011REMSYN072AAXX  25031 13389 31697 72701 11094 21103 39931 40232 52019 70172 82570;
0254133890999992000012506004+42980+021950FM-12+023299999V0202101N001012200019N0100001N1-01501-01711102611ADDAA112000891AJ100229199999999AY171061AY211061GF104991041001999999031001IA1239IA2999-02009KA1120N-01501MA1999999099521MD1210211+9999MW1021REMSYN106AAXX  25061 13389 11997 42101 11150 21171 39952 40261 52021 69982 70271 84030 333 21150 3/120 47022 55000;
0144133890999992000012509004+42980+021950FM-12+023299999V0209999C000012200019N0100001N1-00881-01291102811ADDAA199000021GF101991011001999999031001MA1999999099781MD1210261+9999REMSYN066AAXX  25091 13389 32997 10000 11088 21129 39978 40281 52026 81030;
0144133890999992000012512004+42980+021950FM-12+023299999V0201201N002012200019N0100001N1-00581-01451102791ADDAA199000021GF101991011081012501001001MA1999999099801MD1210021+9999REMSYN066AAXX  25121 13389 32697 11202 11058 21145 39980 40279 52002 81800;
0163133890999992000012515004+42980+021950FM-12+023299999V0203101N002012200019N0200001N1-00771-01531102951ADDAA199000091GF101991011001999999031001MA1999999099931MD1310131+9999REMSYN066AAXX  25151 13389 32998 13102 11077 21153 39993 40295 53013 81030;EQDQ01  00002PRCP99
0195133890999992000012518004+42980+021950FM-12+023299999V0201701N002012200019N0200001N1-01491-01821103251ADDAA199000091AJ100229199999999GF101991011001999999031001KA1120M-00571MA1999999100141REMSYN082AAXX  25181 13389 32998 11702 11149 21182 30014 40325 5//// 81030 333 11057 4/022;EQDQ01  00002PRCP99
0173133890999992000012521004+42980+021950FM-12+023299999V0202001N001012200019N0100001N1-02061-02341103421ADDAA199000091GA1001+999999999GF100991001001999999001001MA1999999100231MD1210091+9999REMSYN060AAXX  25211 13389 32997 02001 11206 21234 30023 40342 52009;EQDQ01  00002PRCP99
0163133890999992000012600004+42980+021950FM-12+023299999V0200701N001010360019N0100001N1-01821-02051103441ADDAA199000091GF108991031051012501071999MA1999999100241MD1110061+9999REMSYN066AAXX  26001 13389 32697 80701 11182 21205 30024 40344 51006 8357/;EQDQ01  00002PRCP99
0163133890999992000012603004+42980+021950FM-12+023299999V0201601N001010120019N0100001N1-01501-01711103411ADDAA199000091GF108991081051012501999999MA1999999100291MD1410001+9999REMSYN066AAXX  26031 13389 32697 81601 11150 21171 30029 40341 54000 885//;EQDQ01  00002PRCP99
0239133890999992000012606004+42980+021950FM-12+023299999V0203201N001010120019N0100001N1-01421-01621103391ADDAA199000091AJ100229199999999GF108991081051012501999999IA1239IA2999-02409KA1120N-02271MA1999999100291MD1410001+9999REMSYN094AAXX  26061 13389 32697 83201 11142 21162 30029 40339 54000 885// 333 21227 3/124 47022 55073;EQDQ01  00002PRCP99
0163133890999992000012609004+42980+021950FM-12+023299999V0209999C000012200019N0100001N1-01211-01621103421ADDAA199000091GF101991001001999999001011MA1999999100341MD1310051+9999REMSYN066AAXX  26091 13389 32997 10000 11121 21162 30034 40342 53005 80001;EQDQ01  00002PRCP99
0191133890999992000012612004+42980+021950FM-12+023299999V0200701N002012200019N0040001N1-00751-01451103231ADDAA199000091AY111061AY201061GF102991011001999999031011MA1999999100201MD1810141+9999MW1101REMSYN072AAXX  26121 13389 31996 20702 11075 21145 30020 40323 58014 71010 81031;EQDQ01  00002PRCP99
0163133890999992000012615004+42980+021950FM-12+023299999V0200301N001012200019N0200001N1-00741-01221103141ADDAA199000091GF101991011001999999031001MA1999999100121MD1610081+9999REMSYN066AAXX  26151 13389 32998 10301 11074 21122 30012 40314 56008 81030;EQDQ01  00002PRCP99
0209133890999992000012618004+42980+021950FM-12+023299999V0209999C000019999999N0100001N1-00981-01291103241ADDAA199000091AJ100219199999999GF105991051001999999031001KA1120M-00631MA1999999100191MD1310051+9999REMSYN082AAXX  26181 13389 32997 50000 11098 21129 30019 40324 53005 85030 333 11063 4/021;EQDQ01  00002PRCP99
0163133890999992000012621004+42980+021950FM-12+023299999V0209999C000012200019N0100001N1-01051-01291103271ADDAA199000091GF102991001001999999001011MA1999999100221MD1110031+9999REMSYN066AAXX  26211 13389 32997 20000 11105 21129 30022 40327 51003 80001;EQDQ01  00002PRCP99
0163133890999992000012700004+42980+021950FM-12+023299999V0209999C000012200019N0100001N1-01321-01531103341ADDAA199000091GF103991031001999999031001MA1999999100251MD1310031+9999REMSYN066AAXX  27001 13389 32997 30000 11132 21153 30025 40334 53003 83030;EQDQ01  00002PRCP99
0163133890999992000012703004+42980+021950FM-12+023299999V0209999C000019999999N0100001N1-01111-01221103351ADDAA199000091GF108991081001999999071999MA1999999100381MD1210031+9999REMSYN066AAXX  27031 13389 32997 80000 11111 21122 30038 40335 52003 8807/;EQDQ01  00002PRCP99
0267133890999992000012706004+42980+021950FM-12+023299999V0209999C000010120019N0020001N1-00971-01151103341ADDAA199000091AJ100219199999999AY121061AY211061GF108991081051012501999999IA1279IA2999-01509KA1120N-01391MA1999999100271MD1810011+9999MW1101REMSYN100AAXX  27061 13389 31695 80000 11097 21115 30027 40334 58001 71021 885// 333 21139 3/115 43021 55049;EQDQ01  00002PRCP99
0163133890999992000012709004+42980+021950FM-12+023299999V0203401N001010120019N0100001N1-00561-00911103331ADDAA199000091GF108991081051012501999999MA1999999100321MD1110051+9999REMSYN066AAXX  27091 13389 32697 83401 11056 21091 30032 40333 51005 885//;EQDQ01  00002PRCP99
0163133890999992000012712004+42980+021950FM-12+023299999V0200901N001012200019N0200001N1+00001-00911103091ADDAA199000091GF103991031001999999031001MA1999999100151MD1710171+9999REMSYN066AAXX  27121 13389 32998 30901 10000 21091 30015 40309 57017 83030;EQDQ01  00002PRCP99
0219133890999992000012718004+42980+021950FM-12+023299999V0201901N001012200019N0200001N1-00721-00861103061ADDAA199000091AJ100189199999999GA1001+999999999GF100991001001999999001001KA1120M+00241MA1999999100051MD1410001+9999REMSYN076AAXX  27181 13389 32998 01901 11072 21086 30005 40306 54000 333 10024 4/018;EQDQ01  00002PRCP99
0173133890999992000012721004+42980+021950FM-12+023299999V0209999C000012200019N0200001N1-01221-01371103141ADDAA199000091GA1001+999999999GF100991001001999999001001MA1999999100071MD1310021+9999REMSYN060AAXX  27211 13389 32998 00000 11122 21137 30007 40314 53002;EQDQ01  00002PRCP99
0173133890999992000012803004+42980+021950FM-12+023299999V0201601N001012200019N0200001N1-01551-01711102981ADDAA199000091GA1001+999999999GF100991001001999999001001MA1999999099861MD1710151+9999REMSYN060AAXX  28031 13389 32998 01601 11155 21171 39986 40298 57015;EQDQ01  00002PRCP99
0249133890999992000012806004+42980+021950FM-12+023299999V0201801N001012200019N0200001N1-01661-01821102961ADDAA199000091AJ100189199999999GA1001+999999999GF100991001001999999001001IA1279IA2999-01809KA1120N-01661MA1999999099831MD1610031+9999REMSYN088AAXX  28061 13389 32998 01801 11166 21182 39983 40296 56003 333 21166 3/118 43018 55034;EQDQ01  00002PRCP99
0173133890999992000012809004+42980+021950FM-12+023299999V0202101N001012200019N0200001N1-00741+99999102781ADDAA199000091GA1001+999999999GF100991001001999999001001MA1999999099771MD1810061+9999REMSYN060AAXX  28091 13389 32998 02101 11074 21019 39977 40278 58006;EQDQ01  00002PRCP99
0201133890999992000012812004+42980+021950FM-12+023299999V0200601N001012200019N0040001N1-00081-00711102461ADDAA199000091AY101061AY201061GA1001+999999999GF100991001001999999001001MA1999999099531MD1710241+9999MW1101REMSYN066AAXX  28121 13389 31996 00601 11008 21071 39953 40246 57024 71000;EQDQ01  00002PRCP99
0191133890999992000012815004+42980+021950FM-12+023299999V0209999C000012200019N0040001N1-00041-00761102371ADDAA199000091AY101031AY201031GF104991001001999999001011MA1999999099451MD1610081+9999MW1101REMSYN072AAXX  28151 13389 31996 40000 11004 21076 39945 40237 56008 71000 80001;EQDQ01  00002PRCP99
0247133890999992000012818004+42980+021950FM-12+023299999V0200901N001012200019N0040001N1-00741-00911102581ADDAA199000091AJ100069199999999AY101061AY201061GA1001+999999999GF100991001001999999001001KA1120M+00061MA1999999099531MD1110081+9999MW1101REMSYN082AAXX  28181 13389 31996 00901 11074 21091 39953 40258 51008 71000 333 10006 4/006;EQDQ01  00002PRCP99
0201133890999992000012821004+42980+021950FM-12+023299999V0201901N001012200019N0040001N1-01081-01151102681ADDAA199000091AY101031AY201031GA1001+999999999GF100991001001999999001001MA1999999099631MD1210101+9999MW1101REMSYN066AAXX  28211 13389 31996 01901 11108 21115 39963 40268 52010 71000;EQDQ01  00002PRCP99
0201133890999992000012900004+42980+021950FM-12+023299999V0201801N001012200019N0040001N1-01201-01371102691ADDAA199000091AY101061AY201061GA1001+999999999GF100991001001999999001001MA1999999099631MD1410001+9999MW1101REMSYN066AAXX  29001 13389 31996 01801 11120 21137 39963 40269 54000 71000;EQDQ01  00002PRCP99
0201133890999992000012903004+42980+021950FM-12+023299999V0202001N001012200019N0040001N1-01461-01621102721ADDAA199000091AY101031AY201031GA1001+999999999GF100991001001999999001001MA1999999099631MD1410001+9999MW1101REMSYN066AAXX  29031 13389 31996 02001 11146 21162 39963 40272 54000 71000;EQDQ01  00002PRCP99
0277133890999992000012906004+42980+021950FM-12+023299999V0201301N001012200019N0040001N1-01521-01711102791ADDAA199000091AJ100169199999999AY101061AY201061GA1001+999999999GF100991001001999999001001IA1279IA2999-01909KA1120N-01521MA1999999099691MD1110061+9999MW1101REMSYN094AAXX  29061 13389 31996 01301 11152 21171 39969 40279 51006 71000 333 21152 3/119 43016 55067;EQDQ01  00002PRCP99
0201133890999992000012909004+42980+021950FM-12+023299999V0201801N001012200019N0040001N1-00791-01091102741ADDAA199000091AY101031AY201031GA1001+999999999GF100991001001999999001001MA1999999099731MD1110041+9999MW1101REMSYN066AAXX  29091 13389 31996 01801 11079 21109 39973 40274 51004 71000;EQDQ01  00002PRCP99
0173133890999992000012912004+42980+021950FM-12+023299999V0200501N001012200019N0100001N1-00071-00611102361ADDAA199000091GA1001+999999999GF100991001001999999001001MA1999999099431MD1810301+9999REMSYN060AAXX  29121 13389 32997 00501 11007 21061 39943 40236 58030;EQDQ01  00002PRCP99
0173133890999992000012915004+42980+021950FM-12+023299999V0202301N001012200019N0200001N1+00051-00661102131ADDAA199000091GA1001+999999999GF100991001001999999001001MA1999999099221MD1710241+9999REMSYN060AAXX  29151 13389 32998 02301 10005 21066 39922 40213 57024;EQDQ01  00002PRCP99
0220133890999992000012918004+42980+021950FM-12+023299999V0201801N001012200019N0200001N1-00581-00811102231ADDAA199000091AJ100159199999999GA1001+999999999GF100991001001999999001001KA1120M+00191MD1310031+9999REMSYN076AAXX  29181 13389 32998 01801 11058 21081 39625 40223 53003 333 10019 4/015;EQDQ01+096253APOSP Q02  00002PRCP99
0173133890999992000012921004+42980+021950FM-12+023299999V0201501N001012200019N0200001N1-01001-01151102241ADDAA199000091GA1001+999999999GF100991001001999999001001MA1999999099221MD1810031+9999REMSYN060AAXX  29211 13389 32998 01501 11100 21115 39922 40224 58003;EQDQ01  00002PRCP99
0179133890999992000013000004+42980+021950FM-12+023299999V0202201N001012200019N0100001N1-00661-00861102091ADDAA199000091GF104991999001999999071999MA1999999099101MD1710081+9999REMSYN066AAXX  30001 13389 32997 42201 11066 21086 39910 40209 57008 8807/;EQDQ01+000082SCOTLCQ02  00002PRCP99
0163133890999992000013003004+42980+021950FM-12+023299999V0201601N001012200019N0100001N1-00531-00761101941ADDAA199000091GF104991031001999999031011MA1999999098981MD1710121+9999REMSYN066AAXX  30031 13389 32997 41601 11053 21076 39898 40194 57012 83031;EQDQ01  00002PRCP99
0245133890999992000013006004+42980+021950FM-12+023299999V0201401N003019999999N0200001N1+00121-00531101731ADDAA199000091AJ100159199999999GF106991061001999999071001IA1279IA2999-01309KA1120N-01061MA1999999098841MD1710141+9999REMSYN100AAXX  30061 13389 32998 61403 10012 21053 39884 40173 57014 86070 333 21106 3/113 43015 55081 92830;EQDQ01  00002PRCP99
0163133890999992000013009004+42980+021950FM-12+023299999V0201201N003019999999N0200001N1+00371-00401101741ADDAA199000091GF107991071001999999071001MA1999999098881MD1310041+9999REMSYN066AAXX  30091 13389 32998 71203 10037 21040 39888 40174 53004 87070;EQDQ01  00002PRCP99
0163133890999992000013012004+42980+021950FM-12+023299999V0201201N002010120019N0100001N1+00511-00251101651ADDAA199000091GF108991081051012501999999MA1999999098801MD1810081+9999REMSYN066AAXX  30121 13389 32697 81202 10051 21025 39880 40165 58008 885//;EQDQ01  00002PRCP99
0191133890999992000013015004+42980+021950FM-12+023299999V0201501N002010120019N0200001N1+00451+00011101691ADDAA199000091AY121031AY261031GF108991081051012501999999MA1999999098831MD1310031+9999MW1021REMSYN072AAXX  30151 13389 31698 81502 10045 20001 39883 40169 53003 70226 885//;EQDQ01  00002PRCP99
0224133890999992000013018004+42980+021950FM-12+023299999V0203601N001010120019N0200001N1+00241+00121101911ADDAA112001091AJ100129199999999AY161061AY261061GF108991081051012501999999KA1120M+00571MA1999999099041MD1210211+9999MW1211REMSYN094AAXX  30181 13389 11698 83601 10024 20012 39904 40191 52021 60012 72166 885// 333 10057 4/012;
0172133890999992000013021004+42980+021950FM-12+023299999V0203401N004010360019N0100001N1+00381+00281102281ADDAA199000021AY161031AY221031GF108991041051012501021999MA1999999099421MD1210381+9999MW1611REMSYN072AAXX  30211 13389 31697 83404 10038 20028 39942 40228 52038 76162 8452/;
0178133890999992000013100004+42980+021950FM-12+023299999V0201901N001010120019N0200001N1+00211+00151102441ADDAA106000591AY161061AY221061GF108991081051012501999999MA1999999099551MD1110131+9999MW1021REMSYN078AAXX  31001 13389 11698 81901 10021 20015 39955 40244 51013 69951 70262 885//;
0144133890999992000013103004+42980+021950FM-12+023299999V0209999C000012200019N0100001N1+00081+00041102551ADDAA199000021GF104991041051012501001001MA1999999099641MD1310091+9999REMSYN066AAXX  31031 13389 32697 40000 10008 20004 39964 40255 53009 84500;
0226133890999992000013106004+42980+021950FM-12+023299999V0201801N001010120019N0200001N1+00121+00061102681ADDAA112000591AJ100119199999999GF108991081051012501999999IA1279IA2999-00209KA1120N+00041MA1999999099761MD1210121+9999REMSYN100AAXX  31061 13389 12698 81801 10012 20006 39976 40268 52012 69952 885// 333 20004 3/102 43011 55000;
0226133890999992000013109004+42980+021950FM-12+023299999V0201801N001010120019N0200001N1+00121+00061102681ADDAA112000591AJ100119199999999GF108991081051012501999999IA1279IA2999-00209KA1120N+00041MA1999999099761MD1210121+9999REMSYN100AAXX  31091 13389 12698 81801 10012 20006 39976 40268 52012 69952 885// 333 20004 3/102 43011 55000;
0163133890999992000013112004+42980+021950FM-12+023299999V0200901N002012200019N0200001N1+01081+00181102231ADDAA199000091GF102991021001999999031001MA1999999099431MD1710271+9999REMSYN066AAXX  31121 13389 32998 20902 10108 20018 39943 40223 57027 82030;EQDQ01  00002PRCP99
0219133890999992000013118004+42980+021950FM-12+023299999V0202001N001012200019N0200001N1+00391+00151102401ADDAA199000091AJ100059199999999GA1001+999999999GF100991001001999999001001KA1120M+01201MA1999999099531MD1210211+9999REMSYN076AAXX  31181 13389 32998 02001 10039 20015 39953 40240 52021 333 10120 4/005;EQDQ01  00002PRCP99
0173133890999992000013121004+42980+021950FM-12+023299999V0201801N002012200019N0100001N1+00031-00061102661ADDAA199000091GA1001+999999999GF100991001001999999001001MA1999999099731MD1210201+9999REMSYN060AAXX  31211 13389 32997 01802 10003 21006 39973 40266 52020;EQDQ01  00002PRCP99
0163133890999992000020100004+42980+021950FM-12+023299999V0200601N001010120019N0100001N1+00081+00041102871ADDAA199000091GF107991071051012501001001MA1999999099951MD1210221+9999REMSYN066AAXX  01001 13389 32697 70601 10008 20004 39995 40287 52022 87500;EQDQ01  00002PRCP99
0163133890999992000020103004+42980+021950FM-12+023299999V0209999C000010120019N0100001N1+00081+00041102921ADDAA199000091GF107991071051012501001001MA1999999100001MD1110051+9999REMSYN066AAXX  01031 13389 32697 70000 10008 20004 30000 40292 51005 87500;EQDQ01  00002PRCP99
0227133890999992000020106004+42980+021950FM-12+023299999V0209999C000010120019N0200001N1+00061+00011103011ADDAA199000091AJ100059199999999GF107991071051012501001001IA2999-00409KA1120N+00021MA1999999100081MD1210081+9999REMSYN088AAXX  01061 13389 32698 70000 10006 20001 30008 40301 52008 87500 333 20002 3/104 43005;EQDQ01  00002PRCP99
0163133890999992000020109004+42980+021950FM-12+023299999V0209999C000019999999N0200001N1+00421+00231103131ADDAA199000091GF106991061001999999071001MA1999999100241MD1210161+9999REMSYN066AAXX  01091 13389 32998 60000 10042 20023 30024 40313 52016 86070;EQDQ01  00002PRCP99
0163133890999992000020112004+42980+021950FM-12+023299999V0209999C000012200019N0200001N1+01101+00281102991ADDAA199000091GF101991001001999999001011MA1999999100171MD1810071+9999REMSYN066AAXX  01121 13389 32998 10000 10110 20028 30017 40299 58007 80001;EQDQ01  00002PRCP99
0173133890999992000020115004+42980+021950FM-12+023299999V0200501N001012200019N0200001N1+01121+00251102821ADDAA199000091GA1001+999999999GF100991001001999999001001MA1999999100001MD1710171+9999REMSYN060AAXX  01151 13389 32998 00501 10112 20025 30000 40282 57017;EQDQ01  00002PRCP99
0173133890999992000020121004+42980+021950FM-12+023299999V0202001N001012200019N0200001N1-00041-00091102861ADDAA199000091GA1001+999999999GF100991001001999999001001MA1999999099931MD1810091+9999REMSYN060AAXX  01211 13389 32998 02001 11004 21009 39993 40286 58009;EQDQ01  00002PRCP99
0173133890999992000020203004+42980+021950FM-12+023299999V0209999C000012200019N0200001N1-00141-00221102631ADDAA199000091GA1001+999999999GF100991001001999999001001MA1999999099691MD1710111+9999REMSYN060AAXX  02031 13389 32998 00000 11014 21022 39969 40263 57011;EQDQ01  00002PRCP99
0249133890999992000020206004+42980+021950FM-12+023299999V0201801N003012200019N0200001N1-00061-00121102511ADDAA199000091AJ100029199999999GA1001+999999999GF100991001001999999001001IA1309IA2999-00609KA1120N-00251MA1999999099581MD1710111+9999REMSYN088AAXX  02061 13389 32998 01803 11006 21012 39958 40251 57011 333 21025 3/106 42002 55058;EQDQ01  00002PRCP99
0173133890999992000020209004+42980+021950FM-12+023299999V0209999C000012200019N0200001N1+00621+00251102311ADDAA199000091GA1001+999999999GF100991001001999999001001MA1999999099461MD1710121+9999REMSYN060AAXX  02091 13389 32998 00000 10062 20025 39946 40231 57012;EQDQ01  00002PRCP99
0173133890999992000020212004+42980+021950FM-12+023299999V0201201N003012200019N0500001N1+01421+00301101961ADDAA199000091GA1001+999999999GF100991001001999999001001MA1999999099201MD1710261+9999REMSYN060AAXX  02121 13389 32999 01203 10142 20030 39920 40196 57026;EQDQ01  00002PRCP99
0163133890999992000020215004+42980+021950FM-12+023299999V0200901N001012200019N0500001N1+01311+00251101781ADDAA199000091GF101991001001999999001011MA1999999099011MD1710191+9999REMSYN066AAXX  02151 13389 32999 10901 10131 20025 39901 40178 57019 80001;EQDQ01  00002PRCP99
0196133890999992000020218004+42980+021950FM-12+023299999V0209999C000012200019N0200001N1+00521+00181101951ADDAA199000091GA1001+999999999GF100991001001999999001001KA1999M+01431MA1999999099091MD1310081+9999REMSYN070AAXX  02181 13389 32998 00000 10052 20018 39909 40195 53008 333 10143;EQDQ01  00002PRCP99
0173133890999992000020221004+42980+021950FM-12+023299999V0202201N001012200019N0200001N1+00241+00061102041ADDAA199000091GA1001+999999999GF100991001001999999001001MA1999999099151MD1310061+9999REMSYN060AAXX  02211 13389 32998 02201 10024 20006 39915 40204 53006;EQDQ01  00002PRCP99
0173133890999992000020300004+42980+021950FM-12+023299999V0209999C000012200019N0100001N1+00021-00021102081ADDAA199000091GA1001+999999999GF100991001001999999001001MA1999999099171MD1110021+9999REMSYN060AAXX  03001 13389 32997 00000 10002 21002 39917 40208 51002;EQDQ01  00002PRCP99
0163133890999992000020303004+42980+021950FM-12+023299999V0209999C000012200019N0100001N1-00021-00061102081ADDAA199000091GF102991021001999999031001MA1999999099171MD1410001+9999REMSYN066AAXX  03031 13389 32997 20000 11002 21006 39917 40208 54000 82030;EQDQ01  00002PRCP99
0255133890999992000020306004+42980+021950FM-12+023299999V0203501N001010120019N0100001N1+00221+00151102051ADDAA199000091AJ199992999999999GF108991081051012501999999IA1259IA2999-00409KA1120N-00021MA1999999099171MD1410001+9999REMSYN094AAXX  03061 13389 32697 83501 10022 20015 39917 40205 54000 885// 333 21002 3/104 41998 55079;EQDQ01  00002PRCP99Q02  09972SNDP  
0163133890999992000020309004+42980+021950FM-12+023299999V0200601N001010120019N0100001N1+00391+00281102181ADDAA199000091GF108991081051012501999999MA1999999099321MD1310151+9999REMSYN066AAXX  03091 13389 32697 80601 10039 20028 39932 40218 53015 885//;EQDQ01  00002PRCP99
0191133890999992000020315004+42980+021950FM-12+023299999V0203401N001010150019N0200001N1+00621+00301102451ADDAA199000091AY121031AY261031GF108991081081012501999999MA1999999099601MD1210181+9999MW1021REMSYN072AAXX  03151 13389 31698 83401 10062 20030 39960 40245 52018 70226 888//;EQDQ01  00002PRCP99
0201133890999992000020318004+42980+021950FM-12+023299999V0202601N001010120019N0200001N1+00421+00041102741ADDAA112000791AY121061AY261061GF107991071051012501001001KA1999M+00711MA1999999099851MD1210251+9999MW1021REMSYN088AAXX  03181 13389 11698 72601 10042 20004 39985 40274 52025 69902 70226 87500 333 10071;
0163133890999992000020321004+42980+021950FM-12+023299999V0201501N001010120019N0200001N1+00341+00011102881ADDAA199000091GF107991071051012501001001MA1999999099981MD1210131+9999REMSYN066AAXX  03211 13389 32698 71501 10034 20001 39998 40288 52013 87500;EQDQ01  00002PRCP99
0163133890999992000020400004+42980+021950FM-12+023299999V0201801N001010120019N0200001N1+00181+00041103001ADDAA199000091GF108991081051012501999999MA1999999100081MD1110101+9999REMSYN066AAXX  04001 13389 32698 81801 10018 20004 30008 40300 51010 885//;EQDQ01  00002PRCP99
0163133890999992000020403004+42980+021950FM-12+023299999V0203301N003010120019N0200001N1+00341-00091103131ADDAA199000091GF106991061051012501001001MA1999999100221MD1210141+9999REMSYN066AAXX  04031 13389 32698 63303 10034 21009 30022 40313 52014 86500;EQDQ01  00002PRCP99
0255133890999992000020406004+42980+021950FM-12+023299999V0203401N004010120019N0200001N1+00311-00091103391ADDAA199000091AJ199992999999999GF107991071061012501001001IA1259IA2999-00109KA1120N+00191MA1999999100471MD1210251+9999REMSYN094AAXX  04061 13389 32698 73404 10031 21009 30047 40339 52025 87600 333 20019 3/101 41998 55000;EQDQ01  00002PRCP99Q02  09972SNDP  
0163133890999992000020409004+42980+021950FM-12+023299999V0203601N005010150019N0100001N1+00361+00041103581ADDAA199000091GF106991061081012501001001MA1999999100671MD1210201+9999REMSYN066AAXX  04091 13389 32697 63605 10036 20004 30067 40358 52020 86800;EQDQ01  00002PRCP99
0163133890999992000020412004+42980+021950FM-12+023299999V0203601N004010150019N0100001N1+00421+00041103661ADDAA199000091GF106991061081012501001001MA1999999100751MD1210081+9999REMSYN066AAXX  04121 13389 32697 63604 10042 20004 30075 40366 52008 86800;EQDQ01  00002PRCP99
0163133890999992000020415004+42980+021950FM-12+023299999V0203401N004012200019N0100001N1+00461-00331103641ADDAA199000091GF101991011021012501001001MA1999999100741MD1610011+9999REMSYN066AAXX  04151 13389 32697 13404 10046 21033 30074 40364 56001 81200;EQDQ01  00002PRCP99
0196133890999992000020418004+42980+021950FM-12+023299999V0202801N001012200019N0100001N1+00071-00331103821ADDAA199000091GA1001+999999999GF100991001001999999001001KA1999M+00521MA1999999100871MD1310131+9999REMSYN070AAXX  04181 13389 32997 02801 10007 21033 30087 40382 53013 333 10052;EQDQ01  00002PRCP99
0173133890999992000020421004+42980+021950FM-12+023299999V0201801N002012200019N0100001N1-00221-00331103901ADDAA199000091GA1001+999999999GF100991001001999999001001MA1999999100971MD1110101+9999REMSYN060AAXX  04211 13389 32997 01802 11022 21033 30097 40390 51010;EQDQ01  00002PRCP99
0173133890999992000020500004+42980+021950FM-12+023299999V0209999C000012200019N0100001N1-00401-00441103941ADDAA199000091GA1001+999999999GF100991001001999999001001MA1999999100931MD1810041+9999REMSYN060AAXX  05001 13389 32997 00000 11040 21044 30093 40394 58004;EQDQ01  00002PRCP99
0173133890999992000020503004+42980+021950FM-12+023299999V0201601N001012200019N0100001N1-00531-00611103731ADDAA199000091GA1001+999999999GF100991001001999999001001MA1999999100721MD1810211+9999REMSYN060AAXX  05031 13389 32997 01601 11053 21061 30072 40373 58021;EQDQ01  00002PRCP99
0216133890999992000020506004+42980+021950FM-12+023299999V0201201N001012200019N0200001N1-00561-00661103631ADDAA199000091GF102991001001999999001011IA1149IA2999-01009KA1120N-00571MA1999999100611MD1710111+9999REMSYN088AAXX  05061 13389 32998 21201 11056 21066 30061 40363 57011 80001 333 21057 34110 55029;EQDQ01  00002PRCP99
0163133890999992000020509004+42980+021950FM-12+023299999V0200701N001012200019N0200001N1+00161-00401103391ADDAA199000091GF104991001001999999001011MA1999999100461MD1710151+9999REMSYN066AAXX  05091 13389 32998 40701 10016 21040 30046 40339 57015 80001;EQDQ01  00002PRCP99
0163133890999992000020512004+42980+021950FM-12+023299999V0200701N002012200019N0200001N1+00681-00761103001ADDAA199000091GF103991001001999999001011MA1999999100141MD1710321+9999REMSYN066AAXX  05121 13389 32998 30702 10068 21076 30014 40300 57032 80001;EQDQ01  00002PRCP99
0163133890999992000020515004+42980+021950FM-12+023299999V0209999C000019999999N0200001N1+00781-00711102871ADDAA199000091GF107991071001999999071001MA1999999100021MD1710121+9999REMSYN066AAXX  05151 13389 32998 70000 10078 21071 30002 40287 57012 87070;EQDQ01  00002PRCP99
0186133890999992000020518004+42980+021950FM-12+023299999V0209999C000019999999N0100001N1+00461-00191102901ADDAA199000091GF108991081001999999071999KA1999M+00801MA1999999100021MD1410001+9999REMSYN076AAXX  05181 13389 32997 80000 10046 21019 30002 40290 54000 8807/ 333 10080;EQDQ01  00002PRCP99
0163133890999992000020521004+42980+021950FM-12+023299999V0201001N001010120019N0100001N1+00371+00011102981ADDAA199000091GF108991081051012501999999MA1999999100091MD1310071+9999REMSYN066AAXX  05211 13389 32697 81001 10037 20001 30009 40298 53007 885//;EQDQ01  00002PRCP99
0163133890999992000020600004+42980+021950FM-12+023299999V0201401N001010120019N0100001N1+00361-00021103011ADDAA199000091GF108991081051012501999999MA1999999100121MD1210031+9999REMSYN066AAXX  06001 13389 32697 81401 10036 21002 30012 40301 52003 885//;EQDQ01  00002PRCP99
0163133890999992000020603004+42980+021950FM-12+023299999V0203301N002010120019N0100001N1+00371+99999102981ADDAA199000091GF108991081051012501999999MA1999999100091MD1810031+9999REMSYN066AAXX  06031 13389 32697 83302 10037 20040 30009 40298 58003 885//;EQDQ01  00002PRCP99
0216133890999992000020606004+42980+021950FM-12+023299999V0200101N001010120019N0100001N1+00411+00201103011ADDAA199000091GF108991081051012501999999IA1099IA2999+00209KA1120N+00361MA1999999100131MD1310041+9999REMSYN088AAXX  06061 13389 32697 80101 10041 20020 30013 40301 53004 885// 333 20036 31002 55041;EQDQ01  00002PRCP99
0163133890999992000020609004+42980+021950FM-12+023299999V0200201N001010120019N0200001N1+00691+00451103021ADDAA199000091GF108991081051012501999999MA1999999100161MD1310031+9999REMSYN066AAXX  06091 13389 32698 80201 10069 20045 30016 40302 53003 885//;EQDQ01  00002PRCP99
0163133890999992000020612004+42980+021950FM-12+023299999V0209999C000010120019N0200001N1+00901+00491102961ADDAA199000091GF108991081051012501999999MA1999999100131MD1810031+9999REMSYN066AAXX  06121 13389 32698 80000 10090 20049 30013 40296 58003 885//;EQDQ01  00002PRCP99
0163133890999992000020615004+42980+021950FM-12+023299999V0201301N001010120019N0200001N1+00931+00561102911ADDAA199000091GF107991071051012501001001MA1999999100081MD1710051+9999REMSYN066AAXX  06151 13389 32698 71301 10093 20056 30008 40291 57005 87500;EQDQ01  00002PRCP99
0196133890999992000020618004+42980+021950FM-12+023299999V0209999C000012200019N0200001N1+00371+00251102961ADDAA199000091GA1001+999999999GF100991001001999999001001KA1999M+00971MA1999999100081MD1510001+9999REMSYN070AAXX  06181 13389 32998 00000 10037 20025 30008 40296 55000 333 10097;EQDQ01  00002PRCP99
0173133890999992000020621004+42980+021950FM-12+023299999V0209999C000012200019N0100001N1+00021-00021102981ADDAA199000091GA1001+999999999GF100991001001999999001001MA1999999100051MD1810031+9999REMSYN060AAXX  06211 13389 32997 00000 10002 21002 30005 40298 58003;EQDQ01  00002PRCP99
0201133890999992000020700004+42980+021950FM-12+023299999V0209999C000012200019N0040001N1-00141-00151102971ADDAA199000091AY101061AY201061GA1001+999999999GF100991001001999999001001MA1999999100021MD1710031+9999MW1101REMSYN066AAXX  07001 13389 31996 00000 11014 21015 30002 40297 57003 71000;EQDQ01  00002PRCP99
0201133890999992000020703004+42980+021950FM-12+023299999V0209999C000012200019N0040001N1-00171-00191102871ADDAA199000091AY101031AY201031GA1001+999999999GF100991001001999999001001MA1999999099921MD1710101+9999MW1101REMSYN066AAXX  07031 13389 31996 00000 11017 21019 39992 40287 57010 71000;EQDQ01  00002PRCP99
0254133890999992000020706004+42980+021950FM-12+023299999V0201801N001012200019N0040001N1-00271-00291102851ADDAA199000091AY101061AY201061GA1001+999999999GF100991001001999999001001IA1149IA2999-00609KA1120N-00271MA1999999099881MD1710041+9999MW1101REMSYN088AAXX  07061 13389 31996 01801 11027 21029 39988 40285 57004 71000 333 21027 34106 55000;EQDQ01  00002PRCP99
0201133890999992000020709004+42980+021950FM-12+023299999V0202101N001012200019N0040001N1+00281+00181102741ADDAA199000091AY101031AY201031GA1001+999999999GF100991001001999999001001MA1999999099841MD1710041+9999MW1101REMSYN066AAXX  07091 13389 31996 02101 10028 20018 39984 40274 57004 71000;EQDQ01  00002PRCP99
0173133890999992000020712004+42980+021950FM-12+023299999V0200901N002012200019N0200001N1+01231+00531102371ADDAA199000091GA1001+999999999GF100991001001999999001001MA1999999099581MD1710261+9999REMSYN060AAXX  07121 13389 32998 00902 10123 20053 39958 40237 57026;EQDQ01  00002PRCP99
0173133890999992000020715004+42980+021950FM-12+023299999V0201401N002012200019N0200001N1+01421+00401102161ADDAA199000091GA1001+999999999GF100991001001999999001001MA1999999099401MD1610181+9999REMSYN060AAXX  07151 13389 32998 01402 10142 20040 39940 40216 56018;EQDQ01  00002PRCP99
0196133890999992000020718004+42980+021950FM-12+023299999V0209999C000012200019N0200001N1+00591+00251102271ADDAA199000091GA1001+999999999GF100991001001999999001001KA1999M+01541MA1999999099431MD1310031+9999REMSYN070AAXX  07181 13389 32998 00000 10059 20025 39943 40227 53003 333 10154;EQDQ01  00002PRCP99
0173133890999992000020721004+42980+021950FM-12+023299999V0202001N001012200019N0200001N1+00231+00121102361ADDAA199000091GA1001+999999999GF100991001001999999001001MA1999999099471MD1110041+9999REMSYN060AAXX  07211 13389 32998 02001 10023 20012 39947 40236 51004;EQDQ01  00002PRCP99
0173133890999992000020800004+42980+021950FM-12+023299999V0201201N002012200019N0200001N1+00041-00021102391ADDAA199000091GA1001+999999999GF100991001001999999001001MA1999999099471MD1410001+9999REMSYN060AAXX  08001 13389 32998 01202 10004 21002 39947 40239 54000;EQDQ01  00002PRCP99
0173133890999992000020803004+42980+021950FM-12+023299999V0201701N001012200019N0200001N1-00061-00121102281ADDAA199000091GA1001+999999999GF100991001001999999001001MA1999999099351MD1810121+9999REMSYN060AAXX  08031 13389 32998 01701 11006 21012 39935 40228 58012;EQDQ01  00002PRCP99
0216133890999992000020806004+42980+021950FM-12+023299999V0202201N001012200019N0200001N1-00041-00091102251ADDAA199000091GF104991001001999999001011IA1149IA2999-00409KA1120N-00081MA1999999099341MD1510011+9999REMSYN088AAXX  08061 13389 32998 42201 11004 21009 39934 40225 55001 80001 333 21008 34104 55080;EQDQ01  00002PRCP99
0173133890999992000020809004+42980+021950FM-12+023299999V0200101N002012200019N0200001N1-00701+99999102171ADDAA199000091GA1001+999999999GF100991001001999999001001MA1999999099341MD1510001+9999REMSYN060AAXX  08091 13389 32998 00102 11070 20033 39934 40217 55000;EQDQ01  00002PRCP99
0179133890999992000020812004+42980+021950FM-12+023299999V0200901N001012200019N0200001N1+01432+00381101881ADDAA199000091GF102991001001999999001011MA1999999099131MD1710211+9999REMSYN066AAXX  08121 13389 32998 20901 10143 20038 39913 40188 57021 80001;EQDQ01+001433ATOT  Q02  00002PRCP99
0163133890999992000020815004+42980+021950FM-12+023299999V0201201N002012200019N0200001N1+01541+00331101671ADDAA199000091GF102991001001999999001011MA1999999098931MD1610201+9999REMSYN066AAXX  08151 13389 32998 21202 10154 20033 39893 40167 56020 80001;EQDQ01  00002PRCP99
0196133890999992000020818004+42980+021950FM-12+023299999V0201601N001012200019N0200001N1+00661+00381101831ADDAA199000091GA1001+999999999GF100991001001999999001001KA1999M+01611MA1999999099011MD1310081+9999REMSYN070AAXX  08181 13389 32998 01601 10066 20038 39901 40183 53008 333 10161;EQDQ01  00002PRCP99
0173133890999992000020821004+42980+021950FM-12+023299999V0202701N001012200019N0200001N1+00271+00151101831ADDAA199000091GA1001+999999999GF100991001001999999001001MA1999999098961MD1510051+9999REMSYN060AAXX  08211 13389 32998 02701 10027 20015 39896 40183 55005;EQDQ01  00002PRCP99
0173133890999992000020900004+42980+021950FM-12+023299999V0209999C000012200019N0200001N1+00081+00011101711ADDAA199000091GA1001+999999999GF100991001001999999001001MA1999999098821MD1810141+9999REMSYN060AAXX  09001 13389 32998 00000 10008 20001 39882 40171 58014;EQDQ01  00002PRCP99
0173133890999992000020903004+42980+021950FM-12+023299999V0209999C000012200019N0200001N1-00041-00091101631ADDAA199000091GA1001+999999999GF100991001001999999001001MA1999999098731MD1610091+9999REMSYN060AAXX  09031 13389 32998 00000 11004 21009 39873 40163 56009;EQDQ01  00002PRCP99
0216133890999992000020906004+42980+021950FM-12+023299999V0201801N001012200019N0200001N1-00081-00121101671ADDAA199000091GF102991001001999999001011IA1149IA2999-00509KA1120N-00101MA1999999098761MD1310031+9999REMSYN088AAXX  09061 13389 32998 21801 11008 21012 39876 40167 53003 80001 333 21010 34105 55080;EQDQ01  00002PRCP99
0163133890999992000020909004+42980+021950FM-12+023299999V0202401N001019999999N0200001N1+00621+00421101531ADDAA199000091GF107991071001999999071001MA1999999098711MD1810051+9999REMSYN066AAXX  09091 13389 32998 72401 10062 20042 39871 40153 58005 87070;EQDQ01  00002PRCP99
0172133890999992000020915004+42980+021950FM-12+023299999V0203301N003010120019N0040001N1+00721+00621101491ADDAA199000021AY161031AY221031GF108991051051012501021999MA1999999098681MD1310101+9999MW1631REMSYN072AAXX  09151 13389 31696 83303 10072 20062 39868 40149 53010 76362 8552/;
0201133890999992000020918004+42980+021950FM-12+023299999V0203301N001010360019N0040001N1+00601+00531101681ADDAA112004191AY161061AY261061GF108991021071008001021999KA1999M+01231MA1999999098851MD1210171+9999MW1611REMSYN088AAXX  09181 13389 11596 83301 10060 20053 39885 40168 52017 60042 76166 8272/ 333 10123;
0172133890999992000020921004+42980+021950FM-12+023299999V0202101N001010360019N0100001N1+00501+00451101831ADDAA199000021AY161031AY261031GF108991021071008001021999MA1999999098991MD1210141+9999MW1611REMSYN072AAXX  09211 13389 31597 82101 10050 20045 39899 40183 52014 76166 8272/;
0178133890999992000021000004+42980+021950FM-12+023299999V0203501N003010075019N0100001N1+00531+00251101971ADDAA106001091AY121061AY261061GF108991081071008001999999MA1999999099111MD1210121+9999MW1211REMSYN078AAXX  10001 13389 11597 83503 10053 20025 39911 40197 52012 60011 72126 887//;
0144133890999992000021003004+42980+021950FM-12+023299999V0203501N003010120019N0100001N1+00441+00041102091ADDAA199000021GF108991081051012501999999MA1999999099221MD1210111+9999REMSYN066AAXX  10031 13389 32697 83503 10044 20004 39922 40209 52011 885//;
0203133890999992000021006004+42980+021950FM-12+023299999V0203501N004010120019N0100001N1+00351-00021102291ADDAA112001091GF108991051051012501071999IA1099IA2999+00309KA1120N+00351MA1999999099421MD1210201+9999REMSYN094AAXX  10061 13389 12697 83504 10035 21002 39942 40229 52020 60012 8557/ 333 20035 31003 55000;
0144133890999992000021009004+42980+021950FM-12+023299999V0203601N004010360019N0200001N1+00441+00041102521ADDAA199000021GF108991021051012501071999MA1999999099641MD1210221+9999REMSYN066AAXX  10091 13389 32698 83604 10044 20004 39964 40252 52022 8257/;
0144133890999992000021012004+42980+021950FM-12+023299999V0203601N004010360019N0200001N1+00521-00021102511ADDAA199000021GF108991011051012501071999MA1999999099641MD1010001+9999REMSYN066AAXX  10121 13389 32698 83604 10052 21002 39964 40251 50000 8157/;
0163133890999992000021015004+42980+021950FM-12+023299999V0203601N003019999999N0100001N1+00461-00121102521ADDAA199000091GF108991081001999999071999MA1999999099651MD1310011+9999REMSYN066AAXX  10151 13389 32997 83603 10046 21012 39965 40252 53001 8807/;EQDQ01  00002PRCP99
0186133890999992000021018004+42980+021950FM-12+023299999V0209999C000019999999N0100001N1+00351+00181102631ADDAA199000091GF108991081001999999071999KA1999M+00541MA1999999099751MD1310101+9999REMSYN076AAXX  10181 13389 32997 80000 10035 20018 39975 40263 53010 8807/ 333 10054;EQDQ01  00002PRCP99
0163133890999992000021021004+42980+021950FM-12+023299999V0209999C000019999999N0100001N1+00281+00181102661ADDAA199000091GF107991071001999999071001MA1999999099761MD1010011+9999REMSYN066AAXX  10211 13389 32997 70000 10028 20018 39976 40266 50001 87070;EQDQ01  00002PRCP99
0163133890999992000021100004+42980+021950FM-12+023299999V0209999C000019999999N0100001N1+00201+00121102661ADDAA199000091GF108991081001999999071999MA1999999099761MD1410001+9999REMSYN066AAXX  11001 13389 32997 80000 10020 20012 39976 40266 54000 8807/;EQDQ01  00002PRCP99
0163133890999992000021103004+42980+021950FM-12+023299999V0209999C000019999999N0100001N1+00231+00181102571ADDAA199000091GF108991081001999999071999MA1999999099681MD1810081+9999REMSYN066AAXX  11031 13389 32997 80000 10023 20018 39968 40257 58008 8807/;EQDQ01  00002PRCP99
0216133890999992000021106004+42980+021950FM-12+023299999V0209999C000010360019N0100001N1+00231+00151102591ADDAA199000091GF107991041051012501031001IA1099IA2999+00009KA1120N+00201MA1999999099701MD1310021+9999REMSYN088AAXX  11061 13389 32697 70000 10023 20015 39970 40259 53002 84530 333 20020 31100 55000;EQDQ01  00002PRCP99
0163133890999992000021109004+42980+021950FM-12+023299999V0200601N001010120019N0100001N1+00511+00201102591ADDAA199000091GF107991051051012501031001MA1999999099721MD1110021+9999REMSYN066AAXX  11091 13389 32697 70601 10051 20020 39972 40259 51002 85530;EQDQ01  00002PRCP99
0163133890999992000021112004+42980+021950FM-12+023299999V0202501N001010360019N0100001N1+00881+00061102531ADDAA199000091GF107991021051012501031001MA1999999099701MD1810021+9999REMSYN066AAXX  11121 13389 32697 72501 10088 20006 39970 40253 58002 82530;EQDQ01  00002PRCP99
0179133890999992000021115004+42980+021950FM-12+023299999V0209999C000019999999N0100001N1+00891+00201102531ADDAA199000091GF107991999051012501999999MA1999999099701MD1510001+9999REMSYN066AAXX  11151 13389 32697 70000 10089 20020 39970 40253 55000 885//;EQDQ01+000082SCOTLCQ02  00002PRCP99
0186133890999992000021118004+42980+021950FM-12+023299999V0209999C000010120019N0100001N1+00721+00401102631ADDAA199000091GF107991071051012501001001KA1999M+00921MA1999999099791MD1210091+9999REMSYN076AAXX  11181 13389 32697 70000 10072 20040 39979 40263 52009 87500 333 10092;EQDQ01  00002PRCP99
0163133890999992000021121004+42980+021950FM-12+023299999V0209999C000010120019N0100001N1+00651+00401102701ADDAA199000091GF108991081051012501999999MA1999999099851MD1210061+9999REMSYN066AAXX  11211 13389 32697 80000 10065 20040 39985 40270 52006 885//;EQDQ01  00002PRCP99
0163133890999992000021200004+42980+021950FM-12+023299999V0202501N001010120019N0100001N1+00591+00451102771ADDAA199000091GF108991081051012501999999MA1999999099911MD1210061+9999REMSYN066AAXX  12001 13389 32697 82501 10059 20045 39991 40277 52006 885//;EQDQ01  00002PRCP99
0191133890999992000021203004+42980+021950FM-12+023299999V0201901N001010120019N0100001N1+00531+00421102731ADDAA199000091AY121031AY261031GF108991081051012501999999MA1999999099861MD1810051+9999MW1021REMSYN072AAXX  12031 13389 31697 81901 10053 20042 39986 40273 58005 70226 885//;EQDQ01  00002PRCP99
0231133890999992000021206004+42980+021950FM-12+023299999V0202501N001010120019N0100001N1+00521+00381102741ADDAA112000191AY121061AY261061GF108991081051012501999999IA1099IA2999+00409KA1120N+00491MA1999999099871MD1310011+9999MW1021REMSYN100AAXX  12061 13389 11697 82501 10052 20038 39987 40274 53001 69912 70226 885// 333 20049 31004 55006;
0191133890999992000021209004+42980+021950FM-12+023299999V0203401N001010120019N0040001N1+00581+00381102691ADDAA199000091AY121031AY221031GF108991081051012501999999MA1999999099841MD1810031+9999MW1101REMSYN072AAXX  12091 13389 31696 83401 10058 20038 39984 40269 58003 71022 885//;EQDQ01  00002PRCP99
0163133890999992000021212004+42980+021950FM-12+023299999V0203201N002010120019N0100001N1+00701+00331102551ADDAA199000091GF108991081051012501999999MA1999999099711MD1710131+9999REMSYN066AAXX  12121 13389 32697 83202 10070 20033 39971 40255 57013 885//;EQDQ01  00002PRCP99
0163133890999992000021215004+42980+021950FM-12+023299999V0203501N002010075019N0100001N1+00761+00351102401ADDAA199000091GF108991081061008001999999MA1999999099571MD1710141+9999REMSYN066AAXX  12151 13389 32597 83502 10076 20035 39957 40240 57014 886//;EQDQ01  00002PRCP99
0214133890999992000021218004+42980+021950FM-12+023299999V0202901N001010075019N0040001N1+00631+00351102451ADDAA199000091AY121061AY221061GF108991081061008001999999KA1999M+00871MA1999999099601MD1310031+9999MW1101REMSYN082AAXX  12181 13389 31596 82901 10063 20035 39960 40245 53003 71022 886// 333 10087;EQDQ01  00002PRCP99
0191133890999992000021300004+42980+021950FM-12+023299999V0202101N001010075019N0040001N1+00531+00401102371ADDAA199000091AY121061AY221061GF108991081061008001999999MA1999999099511MD1710071+9999MW1101REMSYN072AAXX  13001 13389 31596 82101 10053 20040 39951 40237 57007 71022 886//;EQDQ01  00002PRCP99
0191133890999992000021303004+42980+021950FM-12+023299999V0200201N001010075019N0040001N1+00501+00381102281ADDAA199000091AY121031AY221031GF108991081061008001999999MA1999999099431MD1710081+9999MW1101REMSYN072AAXX  13031 13389 31596 80201 10050 20038 39943 40228 57008 71022 886//;EQDQ01  00002PRCP99
0244133890999992000021306004+42980+021950FM-12+023299999V0209999C000010075019N0020001N1+00471+00381102281ADDAA199000091AY121061AY221061GF108991081061008001999999IA1099IA2999+00409KA1120N+00471MA1999999099431MD1410001+9999MW1101REMSYN094AAXX  13061 13389 31595 80000 10047 20038 39943 40228 54000 71022 886// 333 20047 31004 55000;EQDQ01  00002PRCP99
0191133890999992000021309004+42980+021950FM-12+023299999V0209999C000010075019N0040001N1+00601+00401102321ADDAA199000091AY121031AY221031GF108991081061008001999999MA1999999099471MD1110041+9999MW1101REMSYN072AAXX  13091 13389 31596 80000 10060 20040 39947 40232 51004 71022 886//;EQDQ01  00002PRCP99
0191133890999992000021312004+42980+021950FM-12+023299999V0203201N002010075019N0040001N1+00641+00281102291ADDAA199000091AY121061AY221061GF108991081061008001999999MA1999999099451MD1810021+9999MW1101REMSYN072AAXX  13121 13389 31596 83202 10064 20028 39945 40229 58002 71022 886//;EQDQ01  00002PRCP99
0191133890999992000021315004+42980+021950FM-12+023299999V0203101N002010075019N0040001N1+00601+00281102221ADDAA199000091AY121031AY221031GF108991081061008001999999MA1999999099381MD1710071+9999MW1101REMSYN072AAXX  13151 13389 31596 83102 10060 20028 39938 40222 57007 71022 886//;EQDQ01  00002PRCP99
0214133890999992000021318004+42980+021950FM-12+023299999V0202601N001010075019N0040001N1+00541+00281102271ADDAA199000091AY121061AY221061GF108991081061008001999999KA1999M+00651MA1999999099421MD1310041+9999MW1101REMSYN082AAXX  13181 13389 31596 82601 10054 20028 39942 40227 53004 71022 886// 333 10065;EQDQ01  00002PRCP99
0191133890999992000021321004+42980+021950FM-12+023299999V0209999C000010075019N0040001N1+00441+00281102221ADDAA199000091AY121031AY221031GF107991071061008001001001MA1999999099361MD1810061+9999MW1101REMSYN072AAXX  13211 13389 31596 70000 10044 20028 39936 40222 58006 71022 87600;EQDQ01  00002PRCP99
0201133890999992000021400004+42980+021950FM-12+023299999V0201801N001012200019N0040001N1+00121+00041102131ADDAA199000091AY111061AY201061GA1001+999999999GF100991001001999999001001MA1999999099231MD1710171+9999MW1101REMSYN066AAXX  14001 13389 31996 01801 10012 20004 39923 40213 57017 71010;EQDQ01  00002PRCP99
0191133890999992000021403004+42980+021950FM-12+023299999V0209999C000010120019N0040001N1-00021-00061102031ADDAA199000091AY121031AY211031GF107991071051012501001001MA1999999099221MD1710111+9999MW1101REMSYN072AAXX  14031 13389 31696 70000 11002 21006 39922 40203 57011 71021 87500;EQDQ01  00002PRCP99
0244133890999992000021406004+42980+021950FM-12+023299999V0209999C000012200019N0002001N1-00021-00061102001ADDAA199000091AY141061AY211061GF101991011001999999031001IA1149IA2999-00509KA1120N-00071MA1999999099091MD1710031+9999MW1441REMSYN094AAXX  14061 13389 31992 10000 11002 21006 39909 40200 57003 74441 81030 333 21007 34105 55000;EQDQ01  00002PRCP99
0201133890999992000021409004+42980+021950FM-12+023299999V0209999C000010003019N0002001N1+00141+00121102071ADDAA199000091AY141031AY241031GA1091+999999999GF109991091999999999999999MA1999999099171MD1110081+9999MW1451REMSYN066AAXX  14091 13389 31/92 90000 10014 20012 39917 40207 51008 74544;EQDQ01  00002PRCP99
0178133890999992000021412004+42980+021950FM-12+023299999V0202801N001010075019N0040001N1+00521+00281102051ADDAA106000191AY161061AY241061GF108991081071008001999999MA1999999099201MD1110031+9999MW1611REMSYN078AAXX  14121 13389 11596 82801 10052 20028 39920 40205 51003 69921 76164 887//;
0172133890999992000021415004+42980+021950FM-12+023299999V0200601N001010360019N0100001N1+00501+00331101951ADDAA199000021AY161031AY261031GF108991031071008001021999MA1999999099111MD1610091+9999MW1611REMSYN072AAXX  14151 13389 31597 80601 10050 20033 39911 40195 56009 76166 8372/;
0173133890999992000021418004+42980+021950FM-12+023299999V0200601N001012200019N0100001N1+00241+00041102001ADDAA112001091GF104991021051012501031001KA1999M+00551MA1999999099111MD1410001+9999REMSYN082AAXX  14181 13389 11697 40601 10024 20004 39911 40200 54000 60012 82530 333 10055;
0154133890999992000021421004+42980+021950FM-12+023299999V0209999C000012200019N0100001N1-00041-00121102201ADDAA199000021GA1001+999999999GF100991001001999999001001MA1999999099291MD1310191+9999REMSYN060AAXX  14211 13389 32997 00000 11004 21012 39929 40220 53019;
0144133890999992000021500004+42980+021950FM-12+023299999V0203601N001019999999N0100001N1-00131-00221102191ADDAA199000021GF105991051001999999031001MA1999999099271MD1810021+9999REMSYN066AAXX  15001 13389 32997 53601 11013 21022 39927 40219 58002 85030;
0172133890999992000021503004+42980+021950FM-12+023299999V0202401N003010120019N0100001N1+00001-00091102161ADDAA199000021AY121031AY271031GF107991071051012501001001MA1999999099251MD1610021+9999MW1021REMSYN072AAXX  15031 13389 31697 72403 10000 21009 39925 40216 56002 70227 87500;
0264133890999992000021506004+42980+021950FM-12+023299999V0203401N001010120019N0100001N1-00131-00361102251ADDAA112000891AJ100019199999999AL10600191AY121061AY271061GF107991071051012501001001IA1279IA2999-00509KA1120N-00221MA1999999099331MD1310081+9999MW1021REMSYN106AAXX  15061 13389 11697 73401 11013 21036 39933 40225 53008 69982 70227 87500 333 21022 3/105 43001 93101;
0163133890999992000021509004+42980+021950FM-12+023299999V0201601N002010120019N0200001N1+00041-00331102481ADDAA199000091GF107991071051012501001001MA1999999099561MD1210231+9999REMSYN066AAXX  15091 13389 32698 71602 10004 21033 39956 40248 52023 87500;EQDQ01  00002PRCP99
0163133890999992000021512004+42980+021950FM-12+023299999V0200901N001010150019N0100001N1+00151-00291102411ADDAA199000091GF106991061081012501001001MA1999999099511MD1410001+9999REMSYN066AAXX  15121 13389 32697 60901 10015 21029 39951 40241 54000 86800;EQDQ01  00002PRCP99
0163133890999992000021515004+42980+021950FM-12+023299999V0202001N002010150019N0200001N1+00301-00361102241ADDAA199000091GF105991051081012501001001MA1999999099361MD1710151+9999REMSYN066AAXX  15151 13389 32698 52002 10030 21036 39936 40224 57015 85800;EQDQ01  00002PRCP99
0196133890999992000021518004+42980+021950FM-12+023299999V0202001N001012200019N0200001N1-00141-00401102291ADDAA199000091GA1001+999999999GF100991001001999999001001KA1999M+00331MA1999999099361MD1410001+9999REMSYN070AAXX  15181 13389 32998 02001 11014 21040 39936 40229 54000 333 10033;EQDQ01  00002PRCP99
0173133890999992000021521004+42980+021950FM-12+023299999V0209999C000012200019N0200001N1-00341-00481102311ADDAA199000091GA1001+999999999GF100991001001999999001001MA1999999099361MD1410001+9999REMSYN060AAXX  15211 13389 32998 00000 11034 21048 39936 40231 54000;EQDQ01  00002PRCP99
0173133890999992000021600004+42980+021950FM-12+023299999V0201701N001012200019N0200001N1-00421-00611102261ADDAA199000091GA1001+999999999GF100991001001999999001001MA1999999099301MD1810061+9999REMSYN060AAXX  16001 13389 32998 01701 11042 21061 39930 40226 58006;EQDQ01  00002PRCP99
0173133890999992000021603004+42980+021950FM-12+023299999V0201801N001012200019N0200001N1-00501-00661102161ADDAA199000091GA1001+999999999GF100991001001999999001001MA1999999099191MD1710111+9999REMSYN060AAXX  16031 13389 32998 01801 11050 21066 39919 40216 57011;EQDQ01  00002PRCP99
0216133890999992000021606004+42980+021950FM-12+023299999V0209999C000012200019N0200001N1-00481-00611102121ADDAA199000091GF101991011001999999031001IA1149IA2999-01009KA1120N-00521MA1999999099151MD1510041+9999REMSYN088AAXX  16061 13389 32998 10000 11048 21061 39915 40212 55004 81030 333 21052 34110 55013;EQDQ01  00002PRCP99
0163133890999992000021609004+42980+021950FM-12+023299999V0202101N001012200019N0200001N1+00271-00481101891ADDAA199000091GF101991011001999999031001MA1999999099021MD1810131+9999REMSYN066AAXX  16091 13389 32998 12101 10027 21048 39902 40189 58013 81030;EQDQ01  00002PRCP99
0163133890999992000021612004+42980+021950FM-12+023299999V0201101N002010360019N0200001N1+00721-00711101591ADDAA199000091GF107991031051012501071001MA1999999098761MD1710261+9999REMSYN066AAXX  16121 13389 32698 71102 10072 21071 39876 40159 57026 83570;EQDQ01  00002PRCP99
0163133890999992000021615004+42980+021950FM-12+023299999V0201301N003019999999N0200001N1+00871-00571101321ADDAA199000091GF106991031001999999031011MA1999999098521MD1710241+9999REMSYN066AAXX  16151 13389 32998 61303 10087 21057 39852 40132 57024 83031;EQDQ01  00002PRCP99
0186133890999992000021618004+42980+021950FM-12+023299999V0201801N001012200019N0200001N1+00431-00661101271ADDAA199000091GF102991021001999999031001KA1999M+00971MA1999999098721MD1710101+9999REMSYN076AAXX  16181 13389 32998 21801 10043 21066 39872 40127 57010 82030 333 10097;EQDQ01  00002PRCP99
0163133890999992000021621004+42980+021950FM-12+023299999V0202901N001010360019N0200001N1+00371-00481101091ADDAA199000091GF106991021051012501031001MA1999999098251MD1710171+9999REMSYN066AAXX  16211 13389 32698 62901 10037 21048 39825 40109 57017 82530;EQDQ01  00002PRCP99
0163133890999992000021700004+42980+021950FM-12+023299999V0201101N004019999999N0100001N1+00521-00611100781ADDAA199000091GF108991081001999999071999MA1999999097961MD1710291+9999REMSYN066AAXX  17001 13389 32997 81104 10052 21061 39796 40078 57029 8807/;EQDQ01  00002PRCP99
0148133890999992000021703004+42980+021950FM-12+023299999V0200601N002019999999N0200001N1+00561-00011100481ADDAA199000091GF108991999999999999999999MA1999999097681REMSYN065AAXX  17031 13389 32998 80602 10056 21001 39768 40048 5702 8807/;EQDQ01  00002PRCP99
0216133890999992000021706004+42980+021950FM-12+023299999V0200401N001010075019N0200001N1+00591-00151100361ADDAA199000091GF108991081061008001999999IA1099IA2999-00209KA1120N+00301MA1999999097561MD1710121+9999REMSYN088AAXX  17061 13389 32598 80401 10059 21015 39756 40036 57012 886// 333 20030 31102 55065;EQDQ01  00002PRCP99
0163133890999992000021709004+42980+021950FM-12+023299999V0200701N001010360019N0200001N1+00841+00041100151ADDAA199000091GF108991031051012501071999MA1999999097371MD1710191+9999REMSYN066AAXX  17091 13389 32698 80701 10084 20004 39737 40015 57019 8357/;EQDQ01  00002PRCP99
0163133890999992000021712004+42980+021950FM-12+023299999V0203201N003010120019N0100001N1+00921+00181099881ADDAA199000091GF108991081051012501999999MA1999999097121MD1610261+9999REMSYN066AAXX  17121 13389 32697 83203 10092 20018 39712 49988 56026 885//;EQDQ01  00002PRCP99
0240133890999992000021718004+42980+021950FM-12+023299999V0203401N002010120019N0040001N1+00091+00011100421ADDAA112007991AJ100019199999999AL10600191AY171061AY261061GF108991081001012501021999KA1120M+00991MA1999999097571MD1110081+9999MW1711REMSYN100AAXX  17181 13389 11696 83402 10009 20001 39757 40042 51008 60082 77176 8802/ 333 10099 4/001 93101;
0172133890999992000021721004+42980+021950FM-12+023299999V0202901N003010120019N0040001N1+00061-00021100481ADDAA199000021AY171031AY271031GF108991081001012501021999MA1999999097631MD1310061+9999MW1731REMSYN072AAXX  17211 13389 31696 82903 10006 21002 39763 40048 53006 77377 8802/;
0178133890999992000021800004+42980+021950FM-12+023299999V0202201N002010075019N0020001N1+00021-00061100551ADDAA106005191AY171061AY271061GF108991081001008001021999MA1999999097681MD1110051+9999MW1751REMSYN078AAXX  18001 13389 11595 82202 10002 21006 39768 40055 51005 60051 77577 8802/;
0172133890999992000021803004+42980+021950FM-12+023299999V0202101N001010075019N0020001N1+00021-00061100551ADDAA199000021AY171031AY271031GF108991081001008001021999MA1999999097681MD1410001+9999MW1731REMSYN072AAXX  18031 13389 31595 82101 10002 21006 39768 40055 54000 77377 8802/;
