0233151650999992000010100004+99999+999999FM-12+999999999V0203401N002019999999N0012001N1-00631-00711999999ADDAA106000091AJ100209199999999AY121061AY221061GF108991081001999999071999IA1249MA1999999095711MD1710101+9999ME1207909MW1101REMSYN082AAXX  01001 15165 31912 83402 11063 21071 39571 42790 57010 71022 8807/ 333 48020;EQDQ01  00002PRCP06
0088151650999992000010105004+99999+999999FM-12+999999999V0201001N999992200019N0010001N1+99999+99999999999ADDAW1101AZ121999GF101991999999000251999999REMSYN036AAXX  01051 15165 /5010 11052 7102/;
0254151650999992000010106004+99999+999999FM-12+999999999V0203201N004019999999N0060001N1-00301-00681999999ADDAA106000091AJ100209199999999AY121061GF108991081001999999071999IA1249IA2120-00709KA1120N-00701MA1999999095811ME1207999MW1101REMSYN100AAXX  01061 15165 31956 83204 11030 21068 39581 42799 5//// 7102/ 8807/ 333 21070 3/107 48020 92833;EQDQ01  00002PRCP06
0108151650999992000010107004+99999+999999FM-12+999999999V0203201N004019999999N0060001N1-00541+99999999999ADDAY121011AY221011GF108991081001999999021999MW1101REMSYN048AAXX  01071 15165 41956 83204 11054 71022 8802/;
0080151650999992000010108004+99999+999999FM-12+999999999V0203201N002019999999N0100001N1-00521+99999999999ADDGF106991011001999999041081REMSYN042AAXX  01081 15165 42960 63202 11052 81048;
0172151650999992000010109004+99999+999999FM-12+999999999V0202901N005019999999N0100001N1-00521-00731999999ADDAA106000091GF106991001001999999081081MA1999999095881MD1210071+9999ME1208079REMSYN066AAXX  01091 15165 32960 62905 11052 21073 39588 42807 52007 80088;EQDQ01  00002PRCP06
0080151650999992000010110004+99999+999999FM-12+999999999V0203201N004019999999N0150001N1+99999+99999999999ADDGF106991001001999999001081REMSYN042AAXX  01101 15165 42965 63204 1744/ 80008;
0080151650999992000010113004+99999+999999FM-12+999999999V0202701N003012200019N9999999N1-00321+99999999999ADDGF104991011001999999041011REMSYN042AAXX  01131 15165 429// 42703 11032 81041;
0172151650999992000010115004+99999+999999FM-12+999999999V0202301N002012200019N0210001N1-00411-00831999999ADDAA106000091GF103991011001999999041011MA1999999095801MD1310051+9999ME1208079REMSYN066AAXX  01151 15165 32971 32302 11041 21083 39580 42807 53005 81041;EQDQ01  00002PRCP06
0080151650999992000010116004+99999+999999FM-12+999999999V0202501N002012200019N0100001N1-00401+99999999999ADDGF101991011001999999041001REMSYN042AAXX  01161 15165 42960 12502 11040 81040;
0090151650999992000010117004+99999+999999FM-12+999999999V0202701N002012200019N0100001N1-00401+99999999999ADDGA1001+999999999GF100991001001999999001001REMSYN036AAXX  01171 15165 42960 02702 11040;
0246151650999992000010118004+99999+999999FM-12+999999999V0202701N003012200019N0100001N1-00441-00751999999ADDAA106000091AJ100209199999999GA1001+999999999GF100991001001999999001001IA1249KA1120M-00251MA1999999096021MD1210121+9999ME1208159REMSYN088AAXX  01181 15165 32960 02703 11044 21075 39602 42815 52012 333 11025 3/101 48020 92833;EQDQ01  00002PRCP06
0110151650999992000010119004+99999+999999FM-12+999999999V0202301N001012200019N0045001N1-00521+99999999999ADDAY121999GA1001+999999999GF100991001001999999001001MW1221REMSYN042AAXX  01191 15165 41945 02301 11052 7222/;
0118151650999992000010120004+99999+999999FM-12+999999999V0202301N001012200019N0045001N1-00521+99999999999ADDAY101999AY201999GA1001+999999999GF100991001001999999001001MW1101REMSYN042AAXX  01201 15165 41945 02301 11052 71000;
0201151650999992000010121004+99999+999999FM-12+999999999V0202701N002012200019N0045001N1-00581-00761999999ADDAA106000021AY101031AY201031GA1001+999999999GF100991001001999999001001MA1999999096051MD1110031+9999ME1208239MW1101REMSYN076AAXX  01211 15165 31945 02702 11058 21076 39605 42823 51003 71000 333 55045;
0118151650999992000010122004+99999+999999FM-12+999999999V0202701N004012200019N0045001N1-00641+99999999999ADDAY101999AY201999GA1001+999999999GF100991001001999999001001MW1101REMSYN042AAXX  01221 15165 41945 02704 11064 71000;
0118151650999992000010123004+99999+999999FM-12+999999999V0202301N006012200019N0045001N1-00661+99999999999ADDAY101999AY201999GA1001+999999999GF100991001001999999001001MW1101REMSYN042AAXX  01231 15165 41945 02306 11066 71000;
0224151650999992000010200004+99999+999999FM-12+999999999V0202301N004012200019N0045001N1-00721-00771999999ADDAA106000021AJ100209199999999AY101061AY201061GA1001+999999999GF100991001001999999001001IA1249MA1999999096061MD1310011+9999ME1208239MW1101REMSYN076AAXX  02001 15165 31945 02304 11072 21077 39606 42823 53001 71000 333 48020;
0110151650999992000010205004+99999+999999FM-12+999999999V0209999C00001045001CN0045001N1-00781+99999999999ADDAY171999GF108991041071008001021999MW1711REMSYN058AAXX  02051 15165 41545 80000 11078 7717/ 8472/ 333 96010;
0267151650999992000010206004+99999+999999FM-12+999999999V0209999C000010003019N0005001N1-00781-00841999999ADDAA112000191AJ100209199999999AY171061GA1091+999999999GF109991091999999999999999IA1249IA2120-01309KA1120N-01031MA1999999096191ME1208259MW1711REMSYN116AAXX  02061 15165 11/05 90000 11078 21084 39619 42825 5//// 69922 7717/ 333 21103 3/113 48020 92813 96047 555 69902;
0120151650999992000010208004+99999+999999FM-12+999999999V0203401N004010001519N0000001N1-00791+99999999999ADDAY141999GA1091+999999999GF109991091999999999999999MW1491REMSYN052AAXX  02081 15165 41/00 93404 11079 7494/ 333 92712;
0207151650999992000010209004+99999+999999FM-12+999999999V0203401N003010001519N0000001N1-00751-00811999999ADDAA103999929AY171031AY241031GA1091+999999999GF109991091999999999999999MA1999999096391MD1210201+9999ME1208479MW1491REMSYN082AAXX  02091 15165 21/00 93403 11075 21081 39639 42847 52020 74974 333 69907 92712;
0122151650999992000010210004+99999+999999FM-12+999999999V0203401N999990001519N0001001N1-00701+99999999999ADDAY141999AY241999GA1091+999999999GF109991091999999999999999MW1491REMSYN046AAXX  02101 15165 41/01 93453 1107/ 74944 333;
0114151650999992000010213004+99999+999999FM-12+999999999V0203601N004010012019N0012001N1-00651+99999999999ADDAY121999AY221999GF108991081061001501999999MW1101REMSYN054AAXX  02131 15165 41212 83604 11065 71022 886// 92717;
0118151650999992000010214004+99999+999999FM-12+999999999V0209999C000010012019N0022001N1-00671+99999999999ADDAY121999AY221999GF108991081061001501999999MW1101REMSYN058AAXX  02141 15165 41222 80000 11067 71022 886// 333 92717;
0210151650999992000010215004+99999+999999FM-12+999999999V0200201N002010012019N0022001N1-00731-00781999999ADDAA106000091AY121031AY221031GF108991081061001501999999MA1999999096461MD1310051+9999ME1208559MW1101REMSYN082AAXX  02151 15165 31222 80202 11073 21078 39646 42855 53005 71022 886// 333 92717;EQDQ01  00002PRCP06
0118151650999992000010216004+99999+999999FM-12+999999999V0209999C000010042019N0022001N1-00761+99999999999ADDAY121999AY221999GF108991081061004501999999MW1101REMSYN058AAXX  02161 15165 41422 80000 11076 71022 886// 333 92717;
0118151650999992000010217004+99999+999999FM-12+999999999V0203601N001010012019N0022001N1-00771+99999999999ADDAY121999AY221999GF108991081061001501999999MW1101REMSYN058AAXX  02171 15165 41222 83601 11077 71022 886// 333 92717;
0257151650999992000010218004+99999+999999FM-12+999999999V0209999C000010042019N0022001N1-00771-00831999999ADDAA112000791AJ100209199999999AY121061AY221061GF108991081061004501999999IA1249KA1120M-00541MA1999999096561MD1210101+9999ME1208639MW1101REMSYN112AAXX  02181 15165 11422 80000 11077 21083 39656 42863 52010 69902 71022 886// 333 11054 3/103 48020 92717 92813;
0118151650999992000010219004+99999+999999FM-12+999999999V0203601N001010042019N0022001N1-00781+99999999999ADDAY121999AY221999GF108991081061004501999999MW1101REMSYN058AAXX  02191 15165 41422 83601 11078 71022 886// 333 92717;
0118151650999992000010220004+99999+999999FM-12+999999999V0202701N002010042019N0022001N1-00781+99999999999ADDAY121021AY221021GF108991081061004501999999MW1101REMSYN058AAXX  02201 15165 41422 82702 11078 71022 886// 333 92717;
0210151650999992000010221004+99999+999999FM-12+999999999V0203601N002010042019N0022001N1-00771-00831999999ADDAA106000091AY121031AY221031GF108991081061004501999999MA1999999096661MD1110101+9999ME1208719MW1101REMSYN082AAXX  02211 15165 31422 83602 11077 21083 39666 42871 51010 71022 886// 333 92717;EQDQ01  00002PRCP06
0118151650999992000010222004+99999+999999FM-12+999999999V0203601N001010042019N0022001N1-00751+99999999999ADDAY121999AY221999GF108991081061004501999999MW1101REMSYN058AAXX  02221 15165 41422 83601 11075 71022 886// 333 92717;
0118151650999992000010223004+99999+999999FM-12+999999999V0203601N002010042019N0032001N1-00761+99999999999ADDAY121999AY221999GF108991081061004501999999MW1101REMSYN058AAXX  02231 15165 41432 83602 11076 71022 886// 333 92717;
0239151650999992000010300004+99999+999999FM-12+999999999V0203201N001010042019N0045001N1-00771-00831999999ADDAA106000091AJ100209199999999AY121061AY221061GF108991081061004501999999IA1249MA1999999096661MD1410001+9999ME1208719MW1101REMSYN088AAXX  03001 15165 31445 83201 11077 21083 39666 42871 54000 71022 886// 333 48020 92717;EQDQ01  00002PRCP06
0090151650999992000010305004+99999+999999FM-12+999999999V0202001N001010075019N0280001N1-00801+99999999999ADDGF108991081051008001999999REMSYN052AAXX  03051 15165 42578 82001 11080 885// 333 92717;
0266151650999992000010306004+99999+999999FM-12+999999999V0202001N001010075019N9999999N1-00821-00881999999ADDAA106999999AJ199999999999999GF108991081051007801999999IA1249IA2120-00809KA1120N-00841MA1999999096611ME1208579REMSYN110AAXX  03061 15165 325// 82001 11082 21088 39661 42857 5//// 885// 333 21084 3/108 48030 92717 92813 555 69900;EQDQ01  99992PRCP06Q02  00302SNDP  
0112151650999992000010315004+99999+999999FM-12+999999999V02099999999999999999N0012001N1-00741+99999999999ADDAY171031AY271031GF105991999999004501999999MW1711REMSYN052AAXX  03151 15165 41412 5000/ 11074 77177 333 92717;
0112151650999992000010316004+99999+999999FM-12+999999999V0209999C000010042019N0012001N1-00741+99999999999ADDAY171999AY271999GF108991081001004501021999MW1711REMSYN052AAXX  03161 15165 41412 80000 11074 77177 8802/ 333;
0124151650999992000010317004+99999+999999FM-12+999999999V0209999C000010042019N0012001N1-00741+99999999999ADDAY171999AY271999GF108991081001004501021999MW1711REMSYN064AAXX  03171 15165 41412 80000 11074 77177 8802/ 333 92717 96010;
0124151650999992000010319004+99999+999999FM-12+999999999V0209999C000010075019N0060001N1-00741+99999999999ADDAY171999AY271999GF108991081001008001021999MW1711REMSYN064AAXX  03191 15165 41556 80000 11074 77177 8802/ 333 92717 96010;
0124151650999992000010320004+99999+999999FM-12+999999999V0202001N002010075019N0060001N1-00721+99999999999ADDAY171999AY271999GF108991081001008001021999MW1711REMSYN064AAXX  03201 15165 41556 82002 11072 77177 8802/ 333 92717 96010;
0209151650999992000010321004+99999+999999FM-12+999999999V0209999C000010075019N0045001N1-00721-00811999999ADDAA103000391AY171031AY271031GF108991081001008001021999MA1999999096271MD1510011+9999ME1208319MW1711REMSYN100AAXX  03211 15165 21545 80000 11072 21081 39627 42831 55001 77177 8802/ 333 55000 69937 92717 96010;
0124151650999992000010322004+99999+999999FM-12+999999999V0209999C000010075019N0045001N1-00711+99999999999ADDAY171999AY271999GF108991081001008001021999MW1711REMSYN064AAXX  03221 15165 41545 80000 11071 77177 8802/ 333 92717 96010;
0124151650999992000010323004+99999+999999FM-12+999999999V0209999C000010075019N0045001N1-00721+99999999999ADDAY171999AY271999GF108991081001008001021999MW1711REMSYN064AAXX  03231 15165 41545 80000 11072 77177 8802/ 333 92717 96010;
0221151650999992000010400004+99999+999999FM-12+999999999V0202901N001010042019N0045001N1-00661-00741999999ADDAA103000191AY171061AY271061GF108991081001004501021999IA1249MA1999999096181MD1710091+9999ME1208319MW1711REMSYN106AAXX  04001 15165 /1445 82901 11066 21074 39618 42831 57009 69941 77177 8802/ 333 4802/ 69917 92717 96010;
0216151650999992000010420004+99999+999999FM-12+999999999V0209999C000010042019N0012001N1-00521-00551999999ADDAA106000091AY121999AY221999GF108991081061004501999999MA1999999096041MD1410001+9999ME1208159MW1101REMSYN088AAXX  04201 15165 31412 80000 11052 21055 39604 42815 54000 71022 886// 333 55000 92117;EQDQ01  00002PRCP06
0216151650999992000010421004+99999+999999FM-12+999999999V0209999C000010042019N0012001N1-00521-00551999999ADDAA106000091AY121031AY221031GF108991081061004501999999MA1999999096041MD1410001+9999ME1208159MW1101REMSYN088AAXX  04211 15165 31412 80000 11052 21055 39604 42815 54000 71022 886// 333 55000 92717;EQDQ01  00002PRCP06
0118151650999992000010422004+99999+999999FM-12+999999999V0209999C000010042019N0012001N1-00541+99999999999ADDAY121999AY221999GF108991081061004501999999MW1101REMSYN058AAXX  04221 15165 41412 80000 11054 71022 886// 333 92717;
0239151650999992000010500004+99999+999999FM-12+999999999V0209999C000010042019N0012001N1-00481-00511999999ADDAA106000091AJ100239199999999AY121061AY221061GF108991081061004501999999IA1249MA1999999095951MD1810111+9999ME1208159MW1101REMSYN088AAXX  05001 15165 31412 80000 11048 21051 39595 42815 58011 71022 886// 333 48023 92717;EQDQ01  00002PRCP06
0110151650999992000010504004+99999+999999FM-12+999999999V0203601N001010042019N0012001N1-00501+99999999999ADDAY121999GF108991081061004501999999MW1101REMSYN058AAXX  05041 15165 41412 83601 11050 7102/ 886// 333 92717;
0112151650999992000010505004+99999+999999FM-12+999999999V0209999C000010042019N0022001N1-00481+99999999999ADDAY121999AY221999GF108991081061004501999999MW1101REMSYN052AAXX  05051 15165 41422 80000 11048 71022 886// 333;
0216151650999992000010515004+99999+999999FM-12+999999999V0209999C000010075019N0022001N1+99999-00371999999ADDAA103000291AY101031AY221031GF108991081001008001021999MA1999999095861MD1110021+9999ME1208129REMSYN094AAXX  05151 15165 21522 80000 1030/ 21037 39586 42812 51002 77172 8802/ 333 69927 92717 96010;EQDQ01 +03003ATOT  
0124151650999992000010516004+99999+999999FM-12+999999999V02099999999990075019N0012001N1-00341+99999999999ADDAY171999AY271999GF108991081001008001021999MW1711REMSYN064AAXX  05161 15165 41512 8000/ 11034 77177 8802/ 333 92717 96010;
0279151650999992000010518004+99999+999999FM-12+999999999V0209999C000010001519N0001001N1-00331-00331999999ADDAA103000191AJ100239199999999AY171061AY241061GA1091+999999999GF109991091999999999999999IA1249KA1120M-00161MA1999999095881MD1110021+9999ME1208079MW1711REMSYN118AAXX  05181 15165 /1/01 90000 11033 21033 39588 42807 51002 69932 77174 333 11016 3/001 48023 69917 92717 92803 96045;
0134151650999992000010519004+99999+999999FM-12+999999999V0209999C000010001519N0001001N1-00331+99999999999ADDAY171999AY241999GA1091+999999999GF109991091999999999999999MW1711REMSYN058AAXX  05191 15165 41/01 90000 11033 77174 333 92717 96045;
0124151650999992000010520004+99999+999999FM-12+999999999V0202301N002010042019N0012001N1-00281+99999999999ADDAY171999AY241999GF108991081001004501021999MW1711REMSYN064AAXX  05201 15165 41412 82302 11028 77174 8802/ 333 92717 96010;
0219151650999992000010521004+99999+999999FM-12+999999999V0203401N001010001519N0001001N1-00341-00341999999ADDAA103000291AY171031AY241031GA1091+999999999GF109991091999999999999999MA1999999095911MD1310031+9999ME1208079MW1711REMSYN094AAXX  05211 15165 21/01 93401 11034 21034 39591 42807 53003 77174 333 55000 69927 92717 96047;
0134151650999992000010522004+99999+999999FM-12+999999999V0209999C000010001519N0001001N1-00361+99999999999ADDAY171999AY241999GA1091+999999999GF109991091999999999999999MW1711REMSYN058AAXX  05221 15165 41/01 90000 11036 77174 333 92717 96010;
0197151650999992000010615004+99999+999999FM-12+999999999V0203401N004010075019N0060001N1-00281-00281999999ADDAA103000191AY171031AY241031GF108991081051008001999999MA1999999096121MD1310111+9999ME1208299MW1101REMSYN088AAXX  06151 15165 21556 83404 11028 21028 39612 42829 53011 71074 885// 333 69917 92717;
0118151650999992000010616004+99999+999999FM-12+999999999V0203201N003010075019N0060001N1-00301+99999999999ADDAY121999AY221999GF108991081051008001999999MW1101REMSYN058AAXX  06161 15165 41556 83203 11030 71022 885// 333 92717;
0090151650999992000010620004+99999+999999FM-12+999999999V0203201N001010075019N0100001N1-00341+99999999999ADDGF108991081051008001999999REMSYN052AAXX  06201 15165 42560 83201 11034 885// 333 92717;
0188151650999992000010621004+99999+999999FM-12+999999999V0203201N001010075019N0100001N1-00351-00351999999ADDAA106000091GF107991071051008001001001MA1999999096331MD1110091+9999ME1208399REMSYN082AAXX  06211 15165 32560 73201 11035 21035 39633 42839 51009 87500 333 55000 92717;EQDQ01  00002PRCP06
0090151650999992000010622004+99999+999999FM-12+999999999V0209999C000010075019N0100001N1-00341+99999999999ADDGF107991071051008001001001REMSYN052AAXX  06221 15165 42560 70000 11034 87500 333 92717;
0090151650999992000010623004+99999+999999FM-12+999999999V0209999C000010075019N0120001N1-00331+99999999999ADDGF108991081051008001999999REMSYN052AAXX  06231 15165 42562 80000 11033 885// 333 92717;
0211151650999992000010700004+99999+999999FM-12+999999999V0209999C000010075019N0120001N1-00361-00411999999ADDAA106000091AJ100259199999999GF108991081051008001999999IA1249MA1999999096351MD1110021+9999ME1208479REMSYN082AAXX  07001 15165 32562 80000 11036 21041 39635 42847 51002 885// 333 48025 92717;EQDQ01  00002PRCP06
0084151650999992000010714004+99999+999999FM-12+999999999V0209999C000010042019N0022001N1-00411+99999999999ADDGF108991081061004501999999REMSYN046AAXX  07141 15165 41422 80000 11041 886// 333;
0191151650999992000010715004+99999+999999FM-12+999999999V0209999C000010042019N0060001N1-00461-00591999999ADDAA103000191AY171031AY221031GF108991081061004501999999MA1999999096541MD1310021+9999ME1208559MW1101REMSYN082AAXX  07151 15165 21456 80000 11046 21059 39654 42855 53002 71072 886// 333 69917;
0108151650999992000010716004+99999+999999FM-12+999999999V0201801N002010042019N0045001N1-00521+99999999999ADDAY121999AY221999GF108991081061004501999999MW1101REMSYN048AAXX  07161 15165 41445 81802 11052 71022 886//;
0108151650999992000010717004+99999+999999FM-12+999999999V0209999C000010042019N0060001N1-00541+99999999999ADDAY121999AY221999GF108991081061004501999999MW1101REMSYN048AAXX  07171 15165 41456 80000 11054 71022 886//;
0251151650999992000010718004+99999+999999FM-12+999999999V0209999C000010042019N0060001N1-00541-00611999999ADDAA112000191AJ100259199999999AY171061AY221061GF108991081061004501999999IA1249KA1120M-00341MA1999999096581MD1110041+9999ME1208639MW1101REMSYN106AAXX  07181 15165 11456 80000 11054 21061 39658 42863 51004 69912 71072 886// 333 11034 3/101 48025 92833;
0108151650999992000010719004+99999+999999FM-12+999999999V0209999C000010042019N0060001N1-00541+99999999999ADDAY121999AY221999GF108991081061004501999999MW1101REMSYN048AAXX  07191 15165 41456 80000 11054 71022 886//;
0210151650999992000010721004+99999+999999FM-12+999999999V0209999C000010042019N0060001N1-00561-00601999999ADDAA106000091AY121031AY221031GF108991081061004501999999MA1999999096611MD1310031+9999ME1208639MW1101REMSYN082AAXX  07211 15165 31456 80000 11056 21060 39661 42863 53003 71022 886// 333 55000;EQDQ01  00002PRCP06
0108151650999992000010722004+99999+999999FM-12+999999999V0209999C000010042019N0060001N1-00581+99999999999ADDAY121999AY221999GF108991081061004501999999MW1101REMSYN048AAXX  07221 15165 41456 80000 11058 71022 886//;
0108151650999992000010723004+99999+999999FM-12+999999999V0209999C000010042019N0060001N1-00561+99999999999ADDAY121999AY221999GF108991081061004501999999MW1101REMSYN048AAXX  07231 15165 41456 80000 11056 71022 886//;
0128151650999992000010817004+99999+999999FM-12+999999999V0209999C000010001519N0000001N1-00721+99999999999ADDAY141999AY241999GA1091+999999999GF109991091999999999999999MW1471REMSYN052AAXX  08171 15165 41/00 90000 11072 74744 333 92717;
0280151650999992000010818004+99999+999999FM-12+999999999V0209999C000010001519N0000001N1-00741-00741999999ADDAA106000091AJ100259199999999AY141061AY241061GA1091+999999999GF109991091999999999999999IA1249KA1120M-00501MA1999999096541MD1410001+9999ME1208559MW1451REMSYN100AAXX  08181 15165 31/00 90000 11074 21074 39654 42855 54000 74544 333 11050 3/103 48025 92717 92833;EQDQ01  00002PRCP06
0128151650999992000010819004+99999+999999FM-12+999999999V0209999C000010001519N0000001N1-00741+99999999999ADDAY141011AY241011GA1091+999999999GF109991091999999999999999MW1451REMSYN052AAXX  08191 15165 41/00 90000 11074 74544 333 92717;
0128151650999992000010820004+99999+999999FM-12+999999999V0201401N002010001519N0000001N1-00761+99999999999ADDAY141999AY241999GA1091+999999999GF109991091999999999999999MW1451REMSYN052AAXX  08201 15165 41/00 91402 11076 74544 333 92717;
0226151650999992000010821004+99999+999999FM-12+999999999V0201401N001010001519N0000001N1-00761-00761999999ADDAA106000091AY141031AY241031GA1091+999999999GF109991091999999999999999MA1999999096511MD1810031+9999ME1208559MW1491REMSYN082AAXX  08211 15165 31/00 91401 11076 21076 39651 42855 58003 74944 333 55000 92710;EQDQ01  00002PRCP06
0128151650999992000010822004+99999+999999FM-12+999999999V0201401N001010001519N0000001N1-00761+99999999999ADDAY141999AY241999GA1091+999999999GF109991091999999999999999MW1491REMSYN052AAXX  08221 15165 41/00 91401 11076 74944 333 92710;
0210151650999992000010915004+99999+999999FM-12+999999999V0209999C000010042019N0045001N1-00901-00971999999ADDAA106000091AY121031AY221031GF108991081061004501999999MA1999999096381MD1610021+9999ME1208419MW1101REMSYN082AAXX  09151 15165 31445 80000 11090 21097 39638 42841 56002 71022 886// 333 92717;EQDQ01  00002PRCP06
0118151650999992000010916004+99999+999999FM-12+999999999V0209999C000010042019N0045001N1-00931+99999999999ADDAY121999AY221999GF108991081061004501999999MW1101REMSYN058AAXX  09161 15165 41445 80000 11093 71022 886// 333 92717;
0118151650999992000010917004+99999+999999FM-12+999999999V0209999C000010042019N0060001N1-00941+99999999999ADDAY121999AY221999GF108991081061004501999999MW1101REMSYN058AAXX  09171 15165 41456 80000 11094 71022 886// 333 92717;
0257151650999992000010918004+99999+999999FM-12+999999999V0209999C000012200019N0060001N1-00981-01061999999ADDAA112000791AJ100249199999999AY111061AY211061GF103991031061004501001001IA1249KA1120M-00761MA1999999096401MD1310021+9999ME1208419MW1101REMSYN112AAXX  09181 15165 11456 30000 11098 21106 39640 42841 53002 69902 71011 83600 333 11076 3/104 48024 92717 92833;
0118151650999992000010919004+99999+999999FM-12+999999999V0209999C000010042019N0060001N1-01011+99999999999ADDAY111999AY211999GF107991071061004501001001MW1101REMSYN058AAXX  09191 15165 41456 70000 11101 71011 87600 333 92717;
0118151650999992000010920004+99999+999999FM-12+999999999V0209999C000010042019N0060001N1-01021+99999999999ADDAY121999AY221999GF106991061061004501001001MW1101REMSYN058AAXX  09201 15165 41456 60000 11102 71022 86600 333 92717;
0216151650999992000010921004+99999+999999FM-12+999999999V0209999C000010042019N0060001N1-01061-01151999999ADDAA106000091AY111031AY211031GF105991051061004501001001MA1999999096411MD1110011+9999ME1208419MW1101REMSYN088AAXX  09211 15165 31456 50000 11106 21115 39641 42841 51001 71011 85600 333 55001 92717;EQDQ01  00002PRCP06
0092151650999992000010922004+99999+999999FM-12+999999999V0209999C000019999999N9999999N1-01061+99999999999ADDAY121999AY221999MW1101REMSYN058AAXX  09221 15165 4145/ /0000 11106 71022 85600 333 92717;
0118151650999992000010923004+99999+999999FM-12+999999999V0209999C000010042019N0060001N1-01101+99999999999ADDAY121999AY221999GF108991081061004501999999MW1101REMSYN058AAXX  09231 15165 41456 80000 11110 71022 886// 333 92717;
0239151650999992000011000004+99999+999999FM-12+999999999V0209999C000010042019N0060001N1-01121-01121999999ADDAA106000091AJ100249199999999AY111061AY211061GF108991081061004501999999IA1249MA1999999096411MD1410001+9999ME1208419MW1101REMSYN088AAXX  10001 15165 31456 80000 11112 21112 39641 42841 54000 71011 886// 333 48024 92717;EQDQ01  00002PRCP06
0120151650999992000011005004+99999+999999FM-12+999999999V02099999999990001519N0000001N1-01081+99999999999ADDAY141999GA1091+999999999GF109991091999999999999999MW1451REMSYN052AAXX  10051 15165 41/00 9008/ 11108 7454/ 333 92717;
0213151650999992000011015004+99999+999999FM-12+999999999V02099999999990042019N9999999N1-00701+99999999999ADDAA106000091AY121031AY221031GF108991081061004501999999KA1999N+99999MA1999999096751ME1208799MW1101REMSYN070AAXX  10151 15165 3142/ 808// 11070 39675 42879 71022 886// 333 2727/;EQDQ01  00002PRCP06Q02 +02702ATMN  
0118151650999992000011016004+99999+999999FM-12+999999999V0209999C000010042019N9999999N1-00811+99999999999ADDAY121999AY221999GF108991081061004501999999MW1101REMSYN058AAXX  10161 15165 /14/2 80000 11081 71022 886// 333 92727;
0118151650999992000011017004+99999+999999FM-12+999999999V0209999C000010042019N0022001N1-00791+99999999999ADDAY121999AY221999GF108991081061004501999999MW1101REMSYN058AAXX  10171 15165 41422 80000 11079 71022 886// 333 92727;
0270151650999992000011018004+99999+999999FM-12+999999999V0209999C000010042019N0022001N1-00801-00901999999ADDAA106000091AJ100249199999999AY121061AY221061GF108991081061004501999999IA1249KA1120M-00661MA1999999096831MD1210081+9999ME1208739MW1101REMSYN106AAXX  10181 15165 31422 80000 11080 21090 39683 42873 52008 71022 886// 333 11066 3/103 48024 92727 92833;EQDQ01  00002PRCP06
0118151650999992000011019004+99999+999999FM-12+999999999V0209999C000010042019N0022001N1-00781+99999999999ADDAY121011AY221011GF108991081061004501999999MW1101REMSYN058AAXX  10191 15165 41422 80000 11078 71022 886// 333 92727;
0118151650999992000011020004+99999+999999FM-12+999999999V0209999C000010042019N0022001N1-00811+99999999999ADDAY121999AY221999GF108991081061004501999999MW1101REMSYN058AAXX  10201 15165 41422 80000 11081 71022 886// 333 92727;
0216151650999992000011021004+99999+999999FM-12+999999999V0201401N001010042019N0022001N1-00801-00861999999ADDAA106000091AY121031AY221031GF108991081061004501999999MA1999999096961MD1210131+9999ME1207899MW1101REMSYN088AAXX  10211 15165 31422 81401 11080 21086 39696 42789 52013 71022 886// 333 55000 92727;EQDQ01  00002PRCP06
0118151650999992000011022004+99999+999999FM-12+999999999V0209999C000010042019N0022001N1-00791+99999999999ADDAY121999AY221999GF108991081061004501999999MW1101REMSYN058AAXX  10221 15165 41422 80000 11079 71022 886// 333 92727;
0118151650999992000011023004+99999+999999FM-12+999999999V0209999C000010042019N0022001N1-00791+99999999999ADDAY121999AY221999GF108991081061004501999999MW1101REMSYN058AAXX  10231 15165 41422 80000 11079 71022 886// 333 92717;
0247151650999992000011100004+99999+999999FM-12+999999999V0209999C000010042019N0022001N1-00801-00901999999ADDAA106000091AJ100249199999999AY121061GF108991081061004501999999IA1249MA1999999999999MD1210091+9999ME1208969MW1101REMSYN088AAXX  11001 15165 31422 80000 11080 21090 38705 42896 52009 7102/ 886// 333 48024 92727;EQDQ01  00002PRCP06Q02 087053APOSP 
0110151650999992000011105004+99999+999999FM-12+999999999V0209999C000010042019N0022001N1-00811+99999999999ADDAY121999GF108991081061004501999999MW1101REMSYN058AAXX  11051 15165 41422 80000 11081 7102/ 886// 333 92727;
0204151650999992000011109004+99999+999999FM-12+999999999V0209999C000019999999N0012001N1-00651-00731999999ADDAA106000091AY121031AY221031GF107991071001999999071001MA1999999097221MD1210071+9999ME1209129MW1101REMSYN076AAXX  11091 15165 31912 70000 11065 21073 39722 42912 52007 71022 87070 333;EQDQ01  00002PRCP06
0118151650999992000011116004+99999+999999FM-12+999999999V0209999C000010120019N0022001N1-00601+99999999999ADDAY121999AY221999GF107991071051012501001001MW1101REMSYN058AAXX  11161 15165 41622 70000 11060 71022 87500 333 92727;
0288151650999992000011118004+99999+999999FM-12+999999999V0209999C000019999999N0045001N1-00581-00651999999ADDAA103999999AJ100249199999999AY171061AY221061GF108991081999012501999999IA1249KA1120M-00431MA1999999097251MD1310041+9999ME1209199MW1171REMSYN124AAXX  11181 15165 /1645 80000 11058 21065 39725 42919 53004 69932 71772 88/// 333 11043 3/101 48024 69907 92707 92833 96010;EQDQ01  99992PRCP03
0124151650999992000011122004+99999+999999FM-12+999999999V0209999C000010075019N0045001N1-00611+99999999999ADDAY171999AY271999GF108991081051008001999999MW1711REMSYN064AAXX  11221 15165 41545 80000 11061 77177 885// 333 92727 96010;
0238151650999992000011200004+99999+999999FM-12+999999999V0209999C000010075019N0022001N1-00571-00641999999ADDAA103000191AJ100249199999999AY171061AY271061GF108991081001008001021999IA1249MA1999999097291MD1410001+9999ME1209199MW1711REMSYN106AAXX  12001 15165 /1522 80000 11057 21064 39729 42919 54000 69921 77177 8802/ 333 48024 69917 92727 96010;
0100151650999992000011205004+99999+999999FM-12+999999999V0209999C000019999999N0022001N1-00561+99999999999ADDAY121999GF107991999999008001999999MW1101REMSYN048AAXX  12051 15165 41522 70000 11056 7102/ 88///;
0252151650999992000011218004+99999+999999FM-12+999999999V0209999C000012200019N0045001N1-00581-00621999999ADDAA112000791AJ100239199999999AY111061AY211061GA1001+999999999GF100991001001999999001001IA1249KA1120M-00341MD1310021+9999ME1209129MW1101REMSYN106AAXX  12181 15165 11945 00000 11058 21062 391/2 42912 53002 69902 71011 333 11034 3/001 48023 92727 92813;
0122151650999992000011222004+99999+999999FM-12+999999999V0200901N002012200019N0045001N1-00561+99999999999ADDAY101999AY201999GA1001+999999999GF100991001001999999001001MW1101REMSYN046AAXX  12221 15165 41945 00902 11056 71000 333;
0128151650999992000011223004+99999+999999FM-12+999999999V0200901N001012200019N0012001N1-00601+99999999999ADDAY101999AY201999GA1001+999999999GF100991001001999999001001MW1401REMSYN052AAXX  12231 15165 41912 00901 11060 74000 333 9)727;
0240151650999992000011300004+99999+999999FM-12+999999999V0209999C000012200019N0012001N1-00701-00751999999ADDAA106000091AJ100239199999999AY101061AY201061GA1001+999999999GF100991001001999999001001IA1249MA1999999097121MD1710071+9999MW1401REMSYN082AAXX  13001 15165 31912 00100 11070 21075 39712 429/4 57007 74000 333 48023 92727;EQDQ01  00002PRCP06
0274151650999992000011306004+99999+999999FM-12+999999999V0201401N001012200019N0002001N1-01161-01251999999ADDAA112000791AJ100239199999999AY141061AY211061GA1001+999999999GF100991001001999999001001IA1249IA2120-01609KA1120N-01181MA1999999097031ME1208899MW1461REMSYN115AAXX  13061 15165 11302 01401 11116 21125 39703 42889 5//// 69902 74641 333 21118 3/116 48023 92727 92813 555 6900;
0106151650999992000011307004+99999+999999FM-12+999999999V0209999C000019999999N9999999N1-01301+99999999999ADDGA1091+999999999GF109991091999999999999999REMSYN052AAXX  13071 15165 1/00/ 90000 11130 74944 333 92723;
0253151650999992000011318004+99999+999999FM-12+999999999V0201101N002012200019N0012001N1-00701-00871999999ADDAA106000091AY101061AY201061GF101991001001999999001011IA1249KA1120M-00601MA1999999096741MD1610021+9999ME1208719MW1101REMSYN106AAXX  13181 15165 31912 11102 11070 21087 39674 42871 56002 71000 88001 333 11060 3/105 4802/ 92727 92813;EQDQ01  00002PRCP06
0112151650999992000011416004+99999+999999FM-12+999999999V0200501N001012200019N0060001N1-00801+99999999999ADDAY111999AY211999GF103991001001999999001011MW1101REMSYN052    AAXX  14161 15165 41956 30501 11080 71011 80001;
0112151650999992000011417004+99999+999999FM-12+999999999V0209999C000012200019N0060001N1-00801+99999999999ADDAY101999AY201999GF103991001001999999001011MW1101REMSYN052    AAXX  14171 15165 41956 30000 11080 71000 80001;
0237151650999992000011500004+99999+999999FM-12+999999999V0201601N001012200019N0060001N1-00741-01131999999ADDAA199000091AJ100239199999999AY111061AY211061GF103991001001999999001011IA1249MA1999999096471MD1810061+9999ME1208559MW1101REMSYN086    AAXX  15001 15165 31956 31601 11074 21113 39647 42855 58006 71011 80001 333 48023;EQDQ01  00002PRCP99
0104151650999992000011505004+99999+999999FM-12+999999999V0209999C000012200019N0060001N1-00521+99999999999ADDAY101999GF104991021001999999041011MW1101REMSYN052    AAXX  15051 15165 41956 40000 11052 7100/ 82041;
0122151650999992000011517004+99999+999999FM-12+999999999V0209999C000012200019N0045001N1-00541+99999999999ADDAY101999AY201999GA1001+999999999GF100991001001999999001001MW1101REMSYN046    AAXX  15171 15165 41945 00000 11054 71000;
0278151650999992000011518004+99999+999999FM-12+999999999V0209999C000012200019N0045001N1-00541-00961999999ADDAA199000091AJ100229199999999AY101061AY201061GA1001+999999999GF100991001001999999001001IA1249KA1120M-00101MA1999999096301MD1310021+9999ME1208399MW1101REMSYN098    AAXX  15181 15165 31945 00000 11054 21096 39630 42839 53002 71000 333 11010 3/103 48022 92833;EQDQ01  00002PRCP99
0122151650999992000011519004+99999+999999FM-12+999999999V0209999C000012200019N0045001N1-00571+99999999999ADDAY101011AY201011GA1001+999999999GF100991001001999999001001MW1101REMSYN046    AAXX  15191 15165 41945 00000 11057 71000;
0122151650999992000011522004+99999+999999FM-12+999999999V0209999C000012200019N0045001N1-00571+99999999999ADDAY101999AY201999GA1001+999999999GF100991001001999999001001MW1101REMSYN046    AAXX  15221 15165 41945 00000 11057 71000;
0122151650999992000011523004+99999+999999FM-12+999999999V0209999C000012200019N0045001N1-00581+99999999999ADDAY101999AY201999GA1001+999999999GF100991001001999999001001MW1101REMSYN046    AAXX  15231 15165 41945 00000 11058 71000;
0084151650999992000011604004+99999+999999FM-12+999999999V0202301N002019999999N0045001N1-00721+99999999999ADDGF107991999001999999071999REMSYN046    AAXX  16041 15165 41945 72302 11072 8807/;
0112151650999992000011615004+99999+999999FM-12+999999999V0202301N002019999999N0045001N1-00581+99999999999ADDAY121031AY221031GF107991011001999999041081MW1101REMSYN052    AAXX  16151 15165 41945 72302 11058 71022 81048;
0112151650999992000011622004+99999+999999FM-12+999999999V0203201N001019999999N0060001N1-00741+99999999999ADDAY121999AY221999GF108991081001999999071999MW1101REMSYN052    AAXX  16221 15165 41956 83201 11074 71022 8807/;
0122151650999992000011623004+99999+999999FM-12+999999999V0203401N003019999999N0060001N1-00721+99999999999ADDAY171999AY221999GF108991081001999999021999MW1711REMSYN062    AAXX  16231 15165 41956 83403 11072 77172 8802/ 333 96010;
0236151650999992000011700004+99999+999999FM-12+999999999V0203401N002010075019N0045001N1-00711-00881999999ADDAA103000191AJ100239199999999AY171061AY221061GF108991081001008001021999IA1249MA1999999096051MD1710121+9999ME1208239MW1711REMSYN104    AAXX  17001 15165 /1545 83402 11071 21088 39605 42823 57012 69911 77172 8802/ 333 48023 69917 96010;
0286151650999992000011718004+99999+999999FM-12+999999999V0202301N010019999999N0120001N1-00521-00661999999ADDAA103999999AJ100229199999999AY171061AY221061GF108991071001999999071999IA1249KA1120M-00431MA1999999093691MD1710361+9999ME1206259MW1361REMSYN122    AAXX  17181 15165 /1962 82310 11052 21066 39369 42625 57036 69912 73672 8707/ 333 11043 3/104 48022 69907 92803 92912;EQDQ01  99992PRCP03
0122151650999992000011722004+99999+999999FM-12+999999999V0202301N010019999999N0120001N1-00421+99999999999ADDAY121999AY221999GF108991081001999999071999MW1361REMSYN062    AAXX  17221 15165 41962 82310 11042 73622 8807/ 333 92912;
0084151650999992000011723004+99999+999999FM-12+999999999V0202301N006019999999N0120001N1-00421+99999999999ADDGF108991081001999999071999REMSYN046    AAXX  17231 15165 42962 82306 11042 8807/;
0224151650999992000011800004+99999+999999FM-12+999999999V0202301N006019999999N0120001N1-00441-00461999999ADDAA106000191AJ100249199999999AY171061AY221061GF108991081001999999071999IA1249MA1999999093051MD1710231+9999ME1205759MW1021REMSYN092    AAXX  18001 15165 11962 82306 11044 21046 39305 42575 57023 69911 70272 8807/ 333 48024;
0273151650999992000011818004+99999+999999FM-12+999999999V0203201N008010075019N0100001N1-00341-00341999999ADDAA103000991AJ199999999999999AY181061AY271061GF108991051071008001021999IA1249MA1999999093321MD1210131+9999ME1205929MW1711REMSYN122    AAXX  18181 15165 /1560 83208 11034 21034 39332 42592 52013 69992 77187 8572/ 333 3/101 48026 69997 92803 92913 96036;EQDQ01  00262SNDP  
0114151650999992000011823004+99999+999999FM-12+999999999V0203201N008010075019N0280001N1-00301+99999999999ADDAY121999GF107991071051008001001001MW1361REMSYN062    AAXX  18231 15165 41578 73208 11030 7362/ 87500 333 92912;
0218151650999992000011915004+99999+999999FM-12+999999999V0203201N01601045001CN0210001N1-00451-00721999999ADDAA103000191AY181031AY221031GF107991031031008001061001MA1999999094381MD1210161+9999ME1206849MW1371OA149902001REMSYN098    AAXX  19151 15165 21571 73216 11045 21072 39438 42684 52016 73782 83360 333 69917 91120 92922;
0110151650999992000012015004+99999+999999FM-12+999999999V0202301N004019999999N0500001N1-00421-00801999999ADDAA199000091GF107991999999008001999999REMSYN042AAXX  20151 15165 32584 72304 11042 21080;EQDQ01  00002PRCP99
0080151650999992000012016004+99999+999999FM-12+999999999V0202301N006019999999N0500001N1-00521+99999999999ADDGF107991071001999999071001REMSYN042AAXX  20161 15165 42984 72306 11052 87070;
0080151650999992000012017004+99999+999999FM-12+999999999V0202301N008019999999N0280001N1-00521+99999999999ADDGF107991071001999999071001REMSYN042AAXX  20171 15165 42978 72308 11052 87070;
0090151650999992000012105004+99999+999999FM-12+999999999V0202301N016019999999N0280001N1-00401+99999999999ADDGF108991081001999999999999REMSYN052AAXX  21051 15165 42978 82316 11040 880// 333 91120;
0214151650999992000012115004+99999+999999FM-12+999999999V0203201N01201045001CN0100001N1-00221-00251999999ADDAA103000591AY171031AY221031GF108991031071008001021999MA1999999093461MD1310091+9999ME1206109MW1371OA149901601REMSYN094AAXX  21151 15165 21560 83212 11022 21025 39346 42610 53009 73772 8372/ 333 69957 91116 92923;
0129151650999992000012116004+99999+999999FM-12+999999999V0203201N012019999999N0210001N1-00361+99999999999ADDAY121999AY221999GF108991999999007801999999MW1371OA149901601REMSYN058AAXX  21161 15165 41571 83212 11036 73722 333 91116 92922;
0114151650999992000012205004+99999+999999FM-12+999999999V02099999999999999999N0020001N1+99999+99999999999ADDGF107991999999001501999999OA149999999REMSYN046AAXX  22051 15165 //220 7370/ 333 91124 92922;EQDQ01  02402WGOSPD
0276151650999992000012206004+99999+999999FM-12+999999999V0203201N018012200019N0280001N1-00901+99999999999ADDAA199000091AJ100249199999999AY101061GA1001+999999999GF100991001001999999001001IA1299IA2120-01209KA1120N-00921ME1207219MW1371OA149902401REMSYN110AAXX  22061 15165 31978 03218 11090 2/090 42721 5//// 7370/ 333 21092 3/112 49024 91124 92806 92922 555 60005;EQDQ01  00002PRCP99
0172151650999992000012215004+99999+999999FM-12+999999999V0202301N00201045001CN0500001N1-00721-01251999999ADDAA199000091GF106991021021012501061091MA1999999095311MD1310041+9999ME1207589REMSYN066AAXX  22151 15165 32684 62302 11072 21125 39531 42758 53004 82269;EQDQ01  00002PRCP99
0080151650999992000012216004+99999+999999FM-12+999999999V0202001N002010120019N0210001N1-00761+99999999999ADDGF107991071051012501001001REMSYN042AAXX  22161 15165 42671 72002 11076 87500;
0080151650999992000012217004+99999+999999FM-12+999999999V0202301N001010120019N0280001N1-00851+99999999999ADDGF106991061051012501001001REMSYN042AAXX  22171 15165 42678 62301 11085 86500;
0236151650999992000012218004+99999+999999FM-12+999999999V0209999C000012200019N0280001N1-00901-01401999999ADDAA199000091AJ100249199999999GF104991011001999999041011IA1299KA1120M-00581MA1999999095281MD1810031+9999ME1207539REMSYN094AAXX  22181 15165 32978 40000 11090 21140 39528 42753 58003 81041 333 11058 3/101 49024 92837;EQDQ01  00002PRCP99
0191151650999992000012300004+99999+999999FM-12+999999999V0201801N002012200019N0120001N1-01251-01451999999ADDAA199000091AJ100249199999999GF101991001001999999001011IA1299MA1999999095151ME1207459REMSYN076AAXX  23001 15165 32962 11802 11125 21145 39515 42745 5//// 80001 333 49024;EQDQ01  00002PRCP99
0112151650999992000012317004+99999+999999FM-12+999999999V0203201N003019999999N0045001N1-01181+99999999999ADDAY171999AY201999GF108991999999008001999999MW1711REMSYN052AAXX  23171 15165 41545 83203 11118 77170 333 96010;
0263151650999992000012318004+99999+999999FM-12+999999999V0203201N004010075019N0045001N1-01181-01321999999ADDAA103000291AJ100249199999999AY171061AY221061GF108991081001008001021999IA1299KA1120M-01051MA1999999094391MD1710131+9999ME1206819MW1711REMSYN118AAXX  23181 15165 /1545 83204 11118 21132 39439 42681 57013 69922 77172 8802/ 333 11105 3/109 49024 69927 92836 96010;
0110151650999992000012323004+99999+999999FM-12+999999999V0209999C000010075019N0060001N1-00981+99999999999ADDAY171999GF108991081001008001021999MW1711REMSYN058AAXX  23231 15165 41556 80000 11098 7717/ 8802/ 333 96010;
0223151650999992000012400004+99999+999999FM-12+999999999V0209999C000010075019N0060001N1-01061-01211999999ADDAA106002091AJ199999999999999AY171061GF108991081001008001021999IA1299MA1999999094311ME1206739MW1221REMSYN094AAXX  24001 15165 11556 80000 11106 21121 39431 42673 5//// 60021 7227/ 8802/ 333 49026 96010;EQDQ01  00262SNDP  
0266151650999992000012406004+99999+999999FM-12+999999999V0203201N004010042019N0045001N1-00841-01001999999ADDAA112002091AJ199999999999999AY171061GF108991081001004501021999IA1299IA2120-01009KA1120N-01151MA1999999094291ME1206739MW1711REMSYN112AAXX  24061 15165 /1445 83204 11084 21100 39429 42673 5//// 60022 7717/ 8802/ 333 21115 3/110 49037 92816 96010;EQDQ01  00372SNDP  
0191151650999992000012415004+99999+999999FM-12+999999999V0203401N00201045001CN0100001N1-00921+99999999999ADDAA103000191AY171031AY221031GF108991041051008001071999MA1999999094601MD1210141+9999ME1206979MW1021REMSYN082AAXX  24151 15165 21560 83402 11092 2//// 39460 42697 52014 70272 8457/ 333 69917;
0080151650999992000012416004+99999+999999FM-12+999999999V0203401N00601045001CN0100001N1-00951+99999999999ADDGF108991041051008001071999REMSYN042AAXX  24161 15165 42560 83406 11095 8457/;
0080151650999992000012417004+99999+999999FM-12+999999999V0203201N006010075019N0280001N1-00981+99999999999ADDGF108991051051008001071999REMSYN042AAXX  24171 15165 42578 83206 11098 8557/;
0080151650999992000012423004+99999+999999FM-12+999999999V0203201N004019999999N0280001N1-01081+99999999999ADDGF108991081001999999071999REMSYN042AAXX  24231 15165 42978 83204 11108 8807/;
0207151650999992000012500004+99999+999999FM-12+999999999V0203201N004019999999N0280001N1-01101-01301999999ADDAA199000091AJ199999999999999GF108991081001999999071999IA1299MA1999999095141ME1207379REMSYN076AAXX  25001 15165 32978 83204 11110 21130 39514 42737 5//// 8807/ 333 49027;EQDQ01  00002PRCP99Q02  00272SNDP  
0068151650999992000012502004+99999+999999FM-12+999999999V02099999999992200019N9999999N1+99999+99999999999ADDGF101991999999999999999999REMSYN030AAXX  25021 15165 ////8 1521/;
0080151650999992000012505004+99999+999999FM-12+999999999V0203201N004019999999N0280001N1-01201+99999999999ADDGF107991071001999999071001REMSYN042AAXX  25051 15165 42978 73204 11120 87070;
0272151650999992000012506004+99999+999999FM-12+999999999V02099999999999999999N0280001N1-01271-01881999999ADDAA199000091AJ199999999999999GF107991071001999999071001IA1299IA2120-01609KA1120N-01281MA1999999095491ME1207619REMSYN116AAXX  25061 15165 32978 7//02 11127 21188 39549 42761 5//// 87070 333 21128 3/116 49027 92816 555 10020 20040 60006;EQDQ01  00002PRCP99Q02  00272SNDP  
0080151650999992000012507004+99999+999999FM-12+999999999V02099999999999999999N0500001N1-01301+99999999999ADDGF107991071001999999071001REMSYN042AAXX  25071 15165 42984 732// 11130 87070;
0145151650999992000012515004+99999+999999FM-12+999999999V0202901N002012200019N0210001N1-01141-01201999999ADDAA199000091GF101991999999999999999999MD1219999+9999ME1208099REMSYN054AAXX  25151 15165 32971 12902 11114 2112/ 42809 52/16;EQDQ01  00002PRCP99
0102151650999992000012517004+99999+999999FM-12+999999999V0202501N003012200019N0280001N1-01201+99999999999ADDAY141999AY201999GF101991999999999999999999MW1101REMSYN042AAXX  25171 15165 42978 12503 11120 71040;
0252151650999992000012518004+99999+999999FM-12+999999999V0202901N002012200019N0280001N1-01251-01601999999ADDAA199000091AJ199999999999999GF103991031001999999041001IA1299KA1120M-00811MA1999999096161MD1210161+9999ME1208259REMSYN094AAXX  25181 15165 32978 32902 11125 21160 39616 42825 52016 83040 333 11081 3/106 49027 92836;EQDQ01  00002PRCP99Q02  00272SNDP  
0197151650999992000012615004+99999+999999FM-12+999999999V0202301N002010042019N0045001N1-01021-01151999999ADDAA103000391AY171031AY271031GF108991081001004501021999MA1999999095991MD1810061+9999ME1208099MW1711REMSYN088AAXX  26151 15165 21445 82302 11102 21115 39599 42809 58006 77177 8802/ 333 69937 96010;
0118151650999992000012616004+99999+999999FM-12+999999999V0209999C000010042019N0045001N1-01101+99999999999ADDAY171999AY271999GF108991081001004501021999MW1711REMSYN058AAXX  26161 15165 41445 80000 11110 77177 8802/ 333 96010;
0118151650999992000012617004+99999+999999FM-12+999999999V0209999C000010042019N0045001N1-01061+99999999999ADDAY171999AY271999GF108991081001004501021999MW1711REMSYN058AAXX  26171 15165 41445 80000 11106 77177 8802/ 333 96010;
0282151650999992000012618004+99999+999999FM-12+999999999V0202301N003010075019N0045001N1-01061-01121999999ADDAA103000291AJ199999999999999AY171061AY221061GF108991051051008001071999IA1299KA1120M-00901MA1999999096051MD1310061+9999ME1208179MW1221REMSYN118AAXX  26181 15165 /1545 82303 11106 21112 39605 42817 53006 69972 72272 8557/ 333 11090 3/104 49027 69927 92806 96010;EQDQ01  00272SNDP  
0203151650999992000012700004+99999+999999FM-12+999999999V0209999C000010075019N9999999N1-00981-01061999999ADDAA106000191AJ199999999999999GF108991051051008001071999IA1299MA1999999096111ME1208179REMSYN088AAXX  27001 15165 1155/ 80000 11098 21106 39611 42817 5//// 69911 8557/ 333 49027 96010;EQDQ01  00272SNDP  
0270151650999992000012706004+99999+999999FM-12+999999999V0202301N002010075019N0060001N1-00961-01081999999ADDAA112000191AJ199999999999999AY121061GF108991081051008001999999IA1299IA2120-00909KA1120N-01081MA1999999096161ME1208259MW1101REMSYN116AAXX  27061 15165 11556 82302 11096 21108 39616 42825 5//// 69912 7102/ 885// 333 21108 3/109 49027 92806 555 60008;EQDQ01  00272SNDP  
0249151650999992000012712004+99999+999999FM-12+999999999V0209999C000010075019N0060001N1-00581-00981999999ADDAA199000091AJ199999999999999AY111061AY211061GF107991071051008001001001IA1299MA1999999096201MD1810021+9999ME1208319MW1101REMSYN082AAXX  27121 15165 31556 70000 11058 21098 39620 42831 58002 71011 87500 333 49027;EQDQ01  00002PRCP99Q02  00272SNDP  
0194151650999992000012713004+99999+999999FM-12+999999999V0209999C000010075019N0060001N1-00581+99999999999ADDAA199000091AY111999AY211999GF107991071051008001001001MA1999999096201MD1810021+9999ME1208319MW1101REMSYN066AAXX  27131 15165 31556 70000 11058 39620 42831 58002 71011 87500;EQDQ01  00002PRCP99
0108151650999992000012714004+99999+999999FM-12+999999999V0202301N004010075019N0060001N1-00601+99999999999ADDAY121021AY221021GF107991071051008001001001MW1101REMSYN048AAXX  27141 15165 41556 72304 11060 71022 87500;
0200151650999992000012715004+99999+999999FM-12+999999999V0202301N004010075019N0060001N1-00601-01041999999ADDAA199000091AY121031AY221031GF107991071051008001001001MA1999999096161MD1710041+9999ME1208319MW1101REMSYN072AAXX  27151 15165 31556 72304 11060 21104 39616 42831 57004 71022 87500;EQDQ01  00002PRCP99
0108151650999992000012717004+99999+999999FM-12+999999999V0209999C000010075019N0060001N1-00681+99999999999ADDAY121999AY221999GF108991081051008001999999MW1101REMSYN048AAXX  27171 15165 41556 80000 11068 71022 885//;
0227151650999992000012800004+99999+999999FM-12+999999999V0209999C000010075019N0060001N1-00601-00751999999ADDAA199000091AJ199999999999999AY121061GF108991081051008001999999IA1299MA1999999096081ME1208339MW1101REMSYN082AAXX  28001 15165 31556 80000 11060 21075 39608 42833 5//// 7102/ 885// 333 49027;EQDQ01  00002PRCP99Q02  00272SNDP  
0100151650999992000012805004+99999+999999FM-12+999999999V0209999C000010075019N0060001N1-00501+99999999999ADDAY121999GF108991081051008001999999MW1101REMSYN048AAXX  28051 15165 41556 80000 11050 7102/ 885//;
0262151650999992000012806004+99999+999999FM-12+999999999V0201401N002010075019N0060001N1+99999+99999999999ADDAA199000091AJ199999999999999GF107991071051008001001001IA1299IA2120-00609KA1120N-00661MA1999999095971ME1208159MW1101REMSYN100AAXX  28061 15165 31556 71402 17054 21064 39597 42815 5//// 710// 87500 333 21066 3/106 49027 91836;EQDQ01  00002PRCP99Q02  00272SNDP  
0074151650999992000012808004+99999+999999FM-12+999999999V0202001N003012200019N0060001N1+99999+99999999999ADDGF102991021001999999041001REMSYN036AAXX  28081 15165 41956 22003 82040;
0108151650999992000012813004+99999+999999FM-12+999999999V0201801N002019999999N0060001N1+00041+99999999999ADDAY111999AY211999GF106991001001999999001061MW1101REMSYN048AAXX  28131 15165 41956 61802 10004 71011 80006;
0108151650999992000012814004+99999+999999FM-12+999999999V0209999C000019999999N0060001N1+00041+99999999999ADDAY121999AY221999GF107991001001999999001061MW1101REMSYN048AAXX  28141 15165 41956 70000 10004 71022 80006;
0200151650999992000012815004+99999+999999FM-12+999999999V0202001N002019999999N0060001N1-00121-00751999999ADDAA199000091AY111031AY211031GF107991001001999999001081MA1999999095691MD1710111+9999ME1207959MW1101REMSYN072AAXX  28151 15165 31956 72002 11012 21075 39569 42795 57011 71011 80008;EQDQ01  00002PRCP99
0108151650999992000012816004+99999+999999FM-12+999999999V0202301N005012200019N0060001N1-00251+99999999999ADDAY111999AY211999GF103991011001999999041011MW1101REMSYN048AAXX  28161 15165 41956 32305 11025 71011 81041;
0108151650999992000012817004+99999+999999FM-12+999999999V0203601N006012200019N0060001N1-00541+99999999999ADDAY101999AY201999GF101991001001999999001011MW1101REMSYN048AAXX  28171 15165 41956 13606 11054 71000 80001;
0237151650999992000012900004+99999+999999FM-12+999999999V0202301N002012200019N0060001N1-00521-00851999999ADDAA199000091AJ199999999999999AY101061GA1001+999999999GF100991001001999999001001IA1299MA1999999095751ME1207999MW1101REMSYN076AAXX  29001 15165 31956 02302 11052 21085 39575 42799 5//// 7100/ 333 49026;EQDQ01  00002PRCP99Q02  00262SNDP  
0080151650999992000012904004+99999+999999FM-12+999999999V0202301N002010075019N0120001N1-00521+99999999999ADDGF108991081051008001999999REMSYN042AAXX  29041 15165 42562 82302 11052 885//;
0172151650999992000012915004+99999+999999FM-12+999999999V0202301N008012200019N0100001N1+00041-00791999999ADDAA199000091GF103991999001999999041001MA1999999095331MD1710181+9999ME1207629REMSYN066AAXX  29151 15165 32960 32308 10004 21079 39533 42762 57018 82040;EQDQ01  00002PRCP99
0080151650999992000012916004+99999+999999FM-12+999999999V0202301N008012200019N0100001N1+00081+99999999999ADDGF102991021001999999041001REMSYN042AAXX  29161 15165 42960 22308 10008 82040;
0080151650999992000012917004+99999+999999FM-12+999999999V0202301N006012200019N0100001N1+00001+99999999999ADDGF101991011001999999041001REMSYN042AAXX  29171 15165 42960 12306 10000 81040;
0132151650999992000013000004+99999+999999FM-12+999999999V0202301N009019999999N0280001N1+00121-00811999999ADDAA199000091GF105991051001999999071001REMSYN064AAXX  30001 15165 32978 52309 10012 21081 394/7 5//// 85070 333;EQDQ01  00002PRCP99
0090151650999992000013008004+99999+999999FM-12+999999999V0202301N012019999999N0500001N1+00191+99999999999ADDGF107991051001999999071021REMSYN052AAXX  30081 15165 42984 72312 10019 85072 333 91116;
0182151650999992000013009004+99999+999999FM-12+999999999V0202301N012019999999N0500001N1+00251+00061999999ADDAA199000091GF107991071001999999071001MA1999999094441MD1810021+9999ME1206909REMSYN076AAXX  30091 15165 32984 72312 10025 20006 39444 42690 58002 87070 333 91116;EQDQ01  00002PRCP99
0182151650999992000013015004+99999+999999FM-12+999999999V0202301N012012200019N0500001N1+00251+00091999999ADDAA199000091GF103991021031008001061001MA1999999094461MD1210191+9999ME1206989REMSYN076AAXX  30151 15165 32584 32312 10025 20009 39446 42698 52019 82360 333 91116;EQDQ01  00002PRCP99
0080151650999992000013016004+99999+999999FM-12+999999999V0202301N007012200019N0500001N1+00261+99999999999ADDGF104991031031008001061001REMSYN042AAXX  30161 15165 42584 42307 10026 83360;
0080151650999992000013017004+99999+999999FM-12+999999999V0202301N008010075019N0280001N1+00201+99999999999ADDGF107991071031008001001001REMSYN042AAXX  30171 15165 42578 72308 10020 87300;
0080151650999992000013105004+99999+999999FM-12+999999999V0202501N008019999999N0280001N1-00041+99999999999ADDGF107991071001999999071001REMSYN042AAXX  31051 15165 42978 72508 11004 87070;
0182151650999992000013115004+99999+999999FM-12+999999999V0202301N012019999999N0500001N1+00361+00071999999ADDAA199000091GF108991081001999999071999MA1999999095241MD1710221+9999ME1207579REMSYN076AAXX  31151 15165 32984 82312 10036 20007 39524 42757 57022 8807/ 333 91116;EQDQ01  00002PRCP99
0090151650999992000013116004+99999+999999FM-12+999999999V0202301N01201045001CN0210001N1+00301+99999999999ADDGF108991041031008001071999REMSYN052AAXX  31161 15165 42571 82312 10030 8437/ 333 91116;
0080151650999992000013117004+99999+999999FM-12+999999999V0202301N00801045001CN0280001N1+00321+99999999999ADDGF108991041031008001071999REMSYN042AAXX  31171 15165 42578 82308 10032 8437/;
0223151650999992000013118004+99999+999999FM-12+999999999V0202301N00801045001CN0280001N1+00341+00051999999ADDAA112000791AJ100219199999999GF108991031031008001071999IA1309KA1120M+00401MA1999999095401MD1310161+9999ME1557759REMSYN100AAXX  31181 15165 12578 82308 10034 20005 39540 45775 53016 69902 8337/ 333 10040 3/004 42021 92856;
0080151650999992000013123004+99999+999999FM-12+999999999V0202301N006019999999N0280001N1+00401+99999999999ADDGF107991071001999999071001REMSYN042AAXX  31231 15165 42978 72306 10040 87070;
0191151650999992000020100004+99999+999999FM-12+999999999V0202301N004019999999N0280001N1+00361+00101999999ADDAA199000091AJ100219199999999GF107991071001999999071001IA1309MA1999999095721ME1211009REMSYN076AAXX  01001 15165 32978 72304 10036 20010 39572 42100 5//// 87070 333 42021;EQDQ01  00002PRCP99
0244151650999992000020106004+99999+999999FM-12+999999999V0203201N006012200019N0280001N1+00301-00081999999ADDAA199000091AJ100199199999999GF104991021001999999041011IA1309IA2120+00009KA1120N+00281MA1999999096181ME1208429REMSYN104AAXX  01061 15165 32978 43206 10030 21008 39618 42842 5//// 82041 333 20028 3/000 42019 92856 555 89900;EQDQ01  00002PRCP99
0080151650999992000020107004+99999+999999FM-12+999999999V0203201N006019999999N0240001N1+00281+99999999999ADDGF106991021001999999041061REMSYN042AAXX  01071 15165 42974 63206 10028 82046;
0236151650999992000020118004+99999+999999FM-12+999999999V0201801N002012200019N0280001N1+00371-00111999999ADDAA199000091AJ100169199999999GF103991031001999999041001IA1309KA1120M+00631MA1999999096261MD1010021+9999ME1208519REMSYN094AAXX  01181 15165 32978 31802 10037 21011 39626 42851 50002 83040 333 10063 3/006 42016 92856;EQDQ01  00002PRCP99
0080151650999992000020211004+99999+999999FM-12+999999999V0202301N003019999999N0210001N1+00391+99999999999ADDGF106991001001999999001021REMSYN042AAXX  02111 15165 42971 62303 10039 80002;
0205151650999992000020212004+99999+999999FM-12+999999999V0202301N004019999999N0210001N1+00461+00071999999ADDAA199000091AJ100169199999999GF106991001001999999001021IA1309MA1999999095481MD1810101+9999ME1207839REMSYN076AAXX  02121 15165 32971 62304 10046 20007 39548 42783 58010 80002 333 42016;EQDQ01  00002PRCP99
0080151650999992000020213004+99999+999999FM-12+999999999V0202301N005012200019N0210001N1+00641+99999999999ADDGF103991001001999999001021REMSYN042AAXX  02131 15165 42971 32305 10064 80002;
0080151650999992000020214004+99999+999999FM-12+999999999V0202301N006019999999N0100001N1+00691+99999999999ADDGF106991011001999999041021REMSYN042AAXX  02141 15165 42960 62306 10069 81042;
0172151650999992000020215004+99999+999999FM-12+999999999V0202301N005019999999N0100001N1+00611+00191999999ADDAA199000091GF107991011001999999041081MA1999999095331MD1710151+9999ME1207669REMSYN066AAXX  02151 15165 32960 72305 10061 20019 39533 42766 57015 81048;EQDQ01  00002PRCP99
0080151650999992000020216004+99999+999999FM-12+999999999V0202301N008019999999N0100001N1+00531+99999999999ADDGF106991011001999999041081REMSYN042AAXX  02161 15165 42960 62308 10053 81048;
0080151650999992000020217004+99999+999999FM-12+999999999V0202301N008019999999N0100001N1+00501+99999999999ADDGF105991001001999999001021REMSYN042AAXX  02171 15165 42960 52308 10050 80002;
0236151650999992000020218004+99999+999999FM-12+999999999V0202301N006019999999N0100001N1+00461+00151999999ADDAA199000091AJ100139199999999GF105991001001999999001021IA1309KA1120M+00751MA1999999095261MD1710071+9999ME1207669REMSYN094AAXX  02181 15165 32960 52306 10046 20015 39526 42766 57007 80002 333 10075 3/005 42013 92856;EQDQ01  00002PRCP99
0211151650999992000020300004+99999+999999FM-12+999999999V0202501N003012200019N0045001N1+00361+00151999999ADDAA199000091AJ100129199999999AY111061GF101991001001999999001011IA1309MA1999999095291ME1207669MW1101REMSYN082AAXX  03001 15165 31945 12503 10036 20015 39529 42766 5//// 7101/ 80001 333 42012;EQDQ01  00002PRCP99
0080151650999992000020314004+99999+999999FM-12+999999999V0203201N999999999999N0210001N1+00271+99999999999ADDGF106991999001999999071001REMSYN042AAXX  03141 15165 42971 63275 10027 81070;
0172151650999992000020315004+99999+999999FM-12+999999999V0203201N010019999999N0210001N1+00241-00431999999ADDAA199000091GF107991071001999999071001MA1999999095611MD1210081+9999ME1207929REMSYN066AAXX  03151 15165 32971 73210 10024 21043 39561 42792 52008 87070;EQDQ01  00002PRCP99
0080151650999992000020316004+99999+999999FM-12+999999999V0203201N010012200019N0210001N1+00201+99999999999ADDGF104991041001999999071001REMSYN042AAXX  03161 15165 42971 43210 10020 84070;
0080151650999992000020317004+99999+999999FM-12+999999999V0203201N006012200019N0280001N1+00161+99999999999ADDGF101991011001999999041001REMSYN042AAXX  03171 15165 42978 13206 10016 81040;
0223151650999992000020318004+99999+999999FM-12+999999999V0203201N004012200019N0280001N1+00121-00231999999ADDAA112000791AJ100099199999999GF102991021001999999041001IA1309KA1120M+00451MA1999999095891MD1210281+9999ME1208129REMSYN100AAXX  03181 15165 12978 23204 10012 21023 39589 42812 52028 69902 82040 333 10045 3/004 42009 92846;
0090151650999992000020323004+99999+999999FM-12+999999999V0203201N008012200019N0280001N1+00081+99999999999ADDGA1001+999999999GF100991001001999999001001REMSYN036AAXX  03231 15165 42978 03208 10008;
0170151650999992000020400004+99999+999999FM-12+999999999V0203201N006012200019N0280001N1+00101-00251999999ADDAA199000091AJ100099199999999GF102991021001999999041001IA1309ME1208379REMSYN070AAXX  04001 15165 32978 23206 10010 21025 42837 5/9// 82040 333 42009;EQDQ01  00002PRCP99
0252151650999992000020406004+99999+999999FM-12+999999999V0203201N012012200019N0500001N1-00141-00471999999ADDAA199000091AJ100099199999999GF103991031001999999041001IA1309IA2120-00409KA1120N-00151MA1999999096461OA149901601REMSYN110AAXX  04061 15165 32984 33212 11014 21047 39646 4/861 5//// 83040 333 21015 3/104 42009 91116 92846 555 69900;EQDQ01  00002PRCP99
0090151650999992000020417004+99999+999999FM-12+999999999V0203401N003012200019N0280001N1-00221+99999999999ADDGA1001+999999999GF100991001001999999001001REMSYN036AAXX  04171 15165 42978 03403 11022;
0246151650999992000020418004+99999+999999FM-12+999999999V0203401N002012200019N0280001N1-00261-00911999999ADDAA199000091AJ100089199999999GA1001+999999999GF100991001001999999001001IA1259KA1120M+00021MA1999999097151MD1210091+9999ME1209199REMSYN088AAXX  04181 15165 32978 03402 11026 21091 39715 42919 52009 333 10002 3/004 41008 92840;EQDQ01  00002PRCP99
0201151650999992000020500004+99999+999999FM-12+999999999V0201601N999992200019N0280001N1-00401-00921999999ADDAA199000091AJ100089199999999GA1001+999999999GF100991001001999999001001IA1259MA1999999096951ME1208969REMSYN070AAXX  05001 15165 32978 06602 1104/ 21092 39695 42896 5//// 333 41008;EQDQ01  00002PRCP99
0128151650999992000020517004+99999+999999FM-12+999999999V0209999C000010001519N0000001N1-00231+99999999999ADDAY171999AY241999GA1091+999999999GF109991091999999999999999MW1711REMSYN052AAXX  05171 15165 41/00 90000 11023 77174 333 96045;
0273151650999992000020518004+99999+999999FM-12+999999999V0209999C000010003019N0002001N1-00181+99999999999ADDAA103000291AJ100089199999999AY171061AY241061GA1091+999999999GF109991091999999999999999IA1249KA1120M+00171MA1999999096791MD1310091+9999ME1208379MW1711REMSYN112AAXX  05181 15165 /1/02 90000 11018 22018 39679 42837 53009 69922 77174 333 10017 3/003 48008 69927 92813 96043;
0118151650999992000020611004+99999+999999FM-12+999999999V0201801N001010001519N0001001N1+00081+99999999999ADDAY141999AY241999GA1091+999999999GF109991091999999999999999MW1451REMSYN042AAXX  06111 15165 41/01 91801 10008 74544;
0200151650999992000020615004+99999+999999FM-12+999999999V0209999C000010075019N0005001N1+00161+00161999999ADDAA199000091AY141031AY241031GF107991071051008001001001MA1999999096431MD1810041+9999ME1208539MW1441REMSYN072AAXX  06151 15165 31505 70000 10016 20016 39643 42853 58004 74444 87500;EQDQ01  00002PRCP99
0118151650999992000020616004+99999+999999FM-12+999999999V0209999C000010075019N0012001N1+00241+99999999999ADDAY141999AY221999GF108991081051008001999999MW1281REMSYN058AAXX  06161 15165 41512 80000 10024 72842 885// 333 96010;
0108151650999992000020617004+99999+999999FM-12+999999999V0209999C000010075019N0005001N1+00061+99999999999ADDAY141999AY221999GF108991081051008001999999MW1461REMSYN048AAXX  06171 15165 41505 80000 10006 74642 885//;
0252151650999992000020618004+99999+999999FM-12+999999999V0209999C000010075019N0005001N1-00021-00021999999ADDAA199000091AJ100089199999999AY141061AY221061GF108991081051008001999999KA1120M+00301MA1999999096491MD1310061+9999ME1208619MW1441REMSYN094AAXX  06181 15165 31505 80000 11002 21002 39649 42861 53006 74442 885// 333 10030 3/002 41008;EQDQ01  00002PRCP99
0128151650999992000020707004+99999+999999FM-12+999999999V0209999C000010001519N0000001N1-00021+99999999999ADDAY151999AY241999GA1091+999999999GF109991091999999999999999MW1561REMSYN052AAXX  07071 15165 41/00 90000 11002 75654 333 96045;
0191151650999992000020715004+99999+999999FM-12+999999999V0209999C000010001519N0000001N1+00091+00091999999ADDAA199000021AY141031AY241031GA1091+999999999GF109991091999999999999999MA1999999096001MD1710181+9999ME1208309MW1451REMSYN066AAXX  07151 15165 31/00 90000 10009 20009 39600 42830 57018 74544;
0118151650999992000020716004+99999+999999FM-12+999999999V0209999C000010001519N0000001N1+00061+99999999999ADDAY141999AY241999GA1091+999999999GF109991091999999999999999MW1451REMSYN042AAXX  07161 15165 41/00 90000 10006 74544;
0118151650999992000020717004+99999+999999FM-12+999999999V0209999C000010001519N0000001N1+00051+99999999999ADDAY141999AY241999GA1091+999999999GF109991091999999999999999MW1451REMSYN042AAXX  07171 15165 41/00 90000 10005 74544;
0232151650999992000020718004+99999+999999FM-12+999999999V0209999C000010001519N0000001N1+00041+00041999999ADDAJ100079199999999AY141061AY241061GA1091+999999999GF109991091999999999999999KA1120M+00111MA1999999095961MD1719999+9999ME1208209MW1451REMSYN088AAXX  07181 15165 11/00 90000 10004 20004 39596 42820 570/4 74544 333 10011 3/02/ 41007;
0110151650999992000020723004+99999+999999FM-12+999999999V0209999C000010001519N0000001N1-00021+99999999999ADDAY141999GA1091+999999999GF109991091999999999999999MW1451REMSYN042AAXX  07231 15165 41/00 90000 11002 7454/;
0118151650999992000020810004+99999+999999FM-12+999999999V0201801N003010001519N0001001N1+00041+99999999999ADDAY141999AY241999GA1091+999999999GF109991091999999999999999MW1431REMSYN042AAXX  08101 15165 41/01 91803 10004 74344;
0108151650999992000020816004+99999+999999FM-12+999999999V0202301N006019999999N0005001N1+00331+99999999999ADDAY141999AY241999GF107991011001999999041061MW1441REMSYN048AAXX  08161 15165 41905 72306 10033 74444 81046;
0108151650999992000020817004+99999+999999FM-12+999999999V0202301N006019999999N0005001N1+00401+99999999999ADDAY141999AY241999GF107991011001999999041081MW1441REMSYN048AAXX  08171 15165 41905 72306 10040 74444 81048;
0258151650999992000020818004+99999+999999FM-12+999999999V0202701N004012200019N0001001N1-00061-00121999999ADDAA199000091AJ100069199999999AY141061AY241061GF102991001001999999001011IA1099KA1120M+00451MA1999999095251MD1610021+9999ME1207629MW1461REMSYN094AAXX  08181 15165 31901 22704 11006 21012 39525 42762 56002 74644 80001 333 10045 31004 41006;EQDQ01  00002PRCP99
0209151650999992000020906004+99999+999999FM-12+999999999V0202301N010010075019N0210001N1+00541-00011999999ADDAA199000091AJ100059199999999GF108991081051008001999999IA2120-00109MA1999999094701ME1207159REMSYN088AAXX  09061 15165 32571 82310 10054 21001 39470 42715 5//// 885// 333 26012 3/101 41005;EQDQ01  00002PRCP99
0080151650999992000020907004+99999+999999FM-12+999999999V0202301N010010075019N0210001N1+00421+99999999999ADDGF108991051051008001071999REMSYN042AAXX  09071 15165 42571 82310 10042 8557/;
0108151650999992000020917004+99999+999999FM-12+999999999V0203201N004010042019N0100001N1+00291+99999999999ADDAY161999AY221999GF108991061071004501021999MW1611REMSYN048AAXX  09171 15165 41460 83204 10029 76162 8672/;
0080151650999992000020923004+99999+999999FM-12+999999999V0202701N002010075019N0100001N1+00301+99999999999ADDGF108991081051008001999999REMSYN042AAXX  09231 15165 42560 82702 10030 885//;
0051151650999992000021011004+99999+999999FM-12+999999999V02099999999999999999N0280001N1+00241+99999999999REMSYN042AAXX  10111 15165 42678 //000 10024 82400;
0172151650999992000021015004+99999+999999FM-12+999999999V0209999C000012200019N0210001N1+00401-00511999999ADDAA199000091GF101991011041012501001001MA1999999096121MD1810041+9999ME1208349REMSYN066AAXX  10151 15165 32671 10000 10040 21051 39612 42834 58004 81400;EQDQ01  00002PRCP99
0080151650999992000021017004+99999+999999FM-12+999999999V0209999C000012200019N0280001N1+00241+99999999999ADDGF102991021041012501001001REMSYN042AAXX  10171 15165 42678 20000 10024 82400;
0234151650999992000021018004+99999+999999FM-12+999999999V0209999C000012200019N0280001N1+00261-00481999999ADDAA199000091AJ100009199999999GA1001+999999999GF100991001001999999001001KA1120M+00451MA1999999096251MD1310131+9999ME1208519REMSYN082AAXX  10181 15165 32978 00000 10026 21048 39625 42851 53013 333 10045 3/113 41998;EQDQ01  00002PRCP99
0090151650999992000021023004+99999+999999FM-12+999999999V0209999C000012200019N0280001N1+00141+99999999999ADDGA1001+999999999GF100991001001999999001001REMSYN036AAXX  10231 15165 42978 00000 10014;
0271151650999992000021118004+99999+999999FM-12+999999999V0209999C000010001519N0000001N1-00381-00381999999ADDAA199000091AJ199992999999999AY141061AY241061GA1091+999999999GF109991091999999999999999IA1259MA1999999096421MD1310071+9999ME1208479MW1491REMSYN088AAXX  11181 15165 31/00 90000 11038 21038 39642 42847 53007 74944 333 3/004 41998 92713;EQDQ01  00002PRCP99Q02  09972SNDP  
0108151650999992000021215004+99999+999999FM-12+999999999V0209999C000010042019N0012001N1-00181+99999999999ADDAY121031AY221031GF108991081061004501999999MW1101REMSYN048AAXX  12151 15165 41412 80000 11018 71022 886//;
0151151650999992000021415004+99999+999999FM-12+999999999V0203201N003019999999N0210001N1+00101-00101999999ADDAA199000091GF107991051031999999061001MD1610031+9999ME1207629REMSYN060AAXX  14151 15165 32/71 73203 10010 21010 42762 56003 85360;EQDQ01  00002PRCP99
0106151650999992000021416004+99999+999999FM-12+999999999V0209999C000010075019N0045001N1+99999+99999999999ADDAY181999GF108991081031008001999999MW1861REMSYN054AAXX  14161 15165 41545 80000 11/0/ 7868/ 883// 2220/;
0108151650999992000021417004+99999+999999FM-12+999999999V0209999C000010075019N0045001N1-00011+99999999999ADDAY181999AY281999GF108991081031008001999999MW1861REMSYN048AAXX  14171 15165 41545 80000 11001 78688 883//;
0231151650999992000021418004+99999+999999FM-12+999999999V0202301N001019999999N0180001N1-00051-00201999999ADDAA103000591AJ100019199999999AY181061AY221061IA1239KA1120M+00261MA1999999095321MD1110061+9999ME1207629MW1261REMSYN112AAXX  14181 15165 11568 /2301 11005 21020 39532 42762 51006 69952 72682 883// 333 10026 3/005 47001 69957 92811;
0110151650999992000021423004+99999+999999FM-12+999999999V0202701N003010001519N0000001N1-00201+99999999999ADDAY141999GA1091+999999999GF109991091999999999999999MW1471REMSYN042AAXX  14231 15165 41/00 92703 11020 7474/;
0187151650999992000021500004+99999+999999FM-12+999999999V0203201N002010075019N0022001N1-00171-00171999999ADDAJ100039199999999AY181061GF108991081031008001999999IA1239MA1999999095331ME1207629MW1851REMSYN088AAXX  15001 15165 11522 83202 11017 21017 39533 42762 5//// 7858/ 883// 333 47003 96010;
0172151650999992000021515004+99999+999999FM-12+999999999V0209999C000012200019N0210001N1+00041-00501999999ADDAA199000091GF104991041031008001001001MA1999999095691MD1610011+9999ME1207959REMSYN066AAXX  15151 15165 32571 40000 10004 21050 39569 42795 56001 84300;EQDQ01  00002PRCP99
0080151650999992000021516004+99999+999999FM-12+999999999V0209999C000012200019N0210001N1+00001+99999999999ADDGF104991041031008001001001REMSYN042AAXX  15161 15165 42571 40000 10000 84300;
0080151650999992000021517004+99999+999999FM-12+999999999V0209999C000010075019N0280001N1-00121+99999999999ADDGF106991061031008001001001REMSYN042AAXX  15171 15165 42578 60000 11012 86300;
0174151650999992000021600004+99999+999999FM-12+999999999V0202001N001019999999N9999999N1-00311-00531999999ADDAA199000091GF107991999999017501999999MA1999999999999ME1207909REMSYN066AAXX  16001 15165 3/70/ 72001 11031 21053 35566 42790 5//// 8////;EQDQ01  00002PRCP99Q02 055663APOSP 
0080151650999992000021605004+99999+999999FM-12+999999999V0201801N002019999999N0280001N1-00341+99999999999ADDGF108991081001999999071999REMSYN042AAXX  16051 15165 42978 81802 11034 8807/;
0172151650999992000021609004+99999+999999FM-12+999999999V0201801N002012200019N0150001N1-00091-00511999999ADDAA199000091GF103991031001999999041001MA1999999095351MD1710091+9999ME1207709REMSYN066AAXX  16091 15165 32965 31802 11009 21051 39535 42770 57009 83040;EQDQ01  00002PRCP99
0080151650999992000021610004+99999+999999FM-12+999999999V0201801N004019999999N0210001N1-00101+99999999999ADDGF105991051001999999071001REMSYN042AAXX  16101 15165 42971 51804 11010 85070;
0205151650999992000021612004+99999+999999FM-12+999999999V0201601N004012200019N0210001N1+00241-00801999999ADDAA199000091AJ100009199999999GF102991001001999999001011IA1259MA1999999095131MD1710221+9999ME1207499REMSYN076AAXX  16121 15165 32971 21604 10024 21080 39513 42749 57022 80001 333 41998;EQDQ01  00002PRCP99
0080151650999992000021613004+99999+999999FM-12+999999999V0201601N004012200019N0210001N1+00301+99999999999ADDGF103991001001999999001011REMSYN042AAXX  16131 15165 42971 31604 10030 80001;
0080151650999992000021616004+99999+999999FM-12+999999999V0201601N003019999999N0210001N1+00251+99999999999ADDGF107991021001008001041081REMSYN042AAXX  16161 15165 42571 71603 10025 82048;
0224151650999992000021618004+99999+999999FM-12+999999999V0201601N003019999999N0280001N1+00131-00841999999ADDAA199000091AJ100009199999999GF105991051001999999071001KA1120M+00471MA1999999094831MD1710101+9999ME1207209REMSYN088AAXX  16181 15165 32978 51603 10013 21084 39483 42720 57010 85070 333 10047 3/010 41998;EQDQ01  00002PRCP99
0080151650999992000021623004+99999+999999FM-12+999999999V0201601N005012200019N0280001N1-00021+99999999999ADDGF102991021001999999041001REMSYN042AAXX  16231 15165 42978 21605 11002 82040;
0191151650999992000021700004+99999+999999FM-12+999999999V0201601N002012200019N0280001N1-00111-00831999999ADDAA199000091AJ100009199999999GF103991011001008001041011IA1259MA1999999094451ME1206959REMSYN076AAXX  17001 15165 32578 31602 11011 21083 39445 42695 5//// 81041 333 41998;EQDQ01  00002PRCP99
0216151650999992000021706004+99999+999999FM-12+999999999V0201601N005019999999N0210001N1+00011-00661999999ADDAA199000091AJ100009199999999GF107991999999999999999999IA2120-00409KA1120N-00211MA1999999094041ME1206539REMSYN082AAXX  17061 15165 32971 71605 10001 21066 39404 42653 5//// 333 21021 3/104 41998;EQDQ01  00002PRCP99
0080151650999992000021707004+99999+999999FM-12+999999999V0201601N003019999999N0210001N1-00071+99999999999ADDGF107991071001999999071001REMSYN042AAXX  17071 15165 42971 71603 11007 87070;
0108151650999992000021715004+99999+999999FM-12+999999999V0202301N00401045001CN0100001N1+00181+99999999999ADDAY171031AY261031GF108991031071008001021999MW1681REMSYN048AAXX  17151 15165 41560 82304 10018 76876 8372/;
0108151650999992000021716004+99999+999999FM-12+999999999V0202301N00401045001CN0100001N1+00181+99999999999ADDAY171999AY261999GF108991031071008001021999MW1681REMSYN048AAXX  17161 15165 41560 82304 10018 76876 8372/;
0108151650999992000021717004+99999+999999FM-12+999999999V0202301N004010075019N0100001N1+00111+99999999999ADDAY171999AY261999GF108991051071008001021999MW1611REMSYN048AAXX  17171 15165 41560 82304 10011 76176 8572/;
0262151650999992000021718004+99999+999999FM-12+999999999V0202301N003010042019N0022001N1+00061+00061999999ADDAA103004091AJ199992999999999AY171061AY261061GF108991061071004501021999IA1259KA1120M+00621MA1999999093871ME1206449MW1681REMSYN112AAXX  17181 15165 /1422 82303 10006 20006 39387 42644 5//// 60042 76876 8672/ 333 10062 3/009 41998 60047 96010;EQDQ01  09972SNDP  
0128151650999992000021719004+99999+999999FM-12+999999999V0202301N004010003019N0002001N1-00011+99999999999ADDAY171999AY241999GA1091+999999999GF109991091999999999999999MW1711REMSYN052AAXX  17191 15165 41/02 92304 11001 77174 333 9604.;
0203151650999992000021721004+99999+999999FM-12+999999999V0202301N004019999999N0012001N1-00041-00041999999ADDAA103002091AY171031AY241031GF108991081001999999021999MA1999999094011MD1110141+9999ME1206539MW1711REMSYN094AAXX  17211 15165 21912 82304 11004 21004 39401 42653 51014 77174 8802/ 333 55013 60027 96010;
0118151650999992000021722004+99999+999999FM-12+999999999V0202301N004019999999N0012001N1-00041+99999999999ADDAY171999AY271999GF108991081001999999021999MW1711REMSYN058AAXX  17221 15165 41912 82304 11004 77177 8802/ 333 96010;
0112151650999992000021723004+99999+999999FM-12+999999999V0202901N004010075019N0022001N1+99999+99999999999ADDAY171999AY271999GF108991081001008001021999MW1711REMSYN052AAXX  17231 15165 41522 82904 77177 8802/ 333 96010;
0138151650999992000021800004+99999+999999FM-12+999999999V0203601N004019999999N0022001N1-00041-00041999999ADDGF108991999999004501999999REMSYN100AAXX  18001 15165 /1422 83604 11004 21004 39=07 42661 51006 60021 77174 8802/ 333 4//01 69987 96010;
0110151650999992000021805004+99999+999999FM-12+999999999V0203201N005010003019N0002001N1-00121+99999999999ADDAY141999GA1091+999999999GF109991091999999999999999MW1471REMSYN042AAXX  18051 15165 41/02 93205 11012 7474/;
0118151650999992000021807004+99999+999999FM-12+999999999V0203401N005010042019N0022001N1-00151+99999999999ADDAY141999AY221999GF108991081061004501999999MW1281REMSYN058AAXX  18071 15165 41422 83405 11015 72842 886// 333 96010;
0112151650999992000021815004+99999+999999FM-12+999999999V0203201N010019999999N0022001N1+99999+99999999999ADDAY171031AY241031GF108991999999008001999999MW1361REMSYN052AAXX  18151 15165 41522 83210 112/0 73674 333 92989;
0118151650999992000021816004+99999+999999FM-12+999999999V0203201N010010075019N0022001N1-00201+99999999999ADDAY171011AY241011GF108991081001008001021999MW1361REMSYN058AAXX  18161 15165 41522 83210 11020 73674 8802/ 333 92912;
0118151650999992000021817004+99999+999999FM-12+999999999V0203201N010019999999N0120001N1-00181+99999999999ADDAY121999AY221999GF108991081001999999021999MW1361REMSYN058AAXX  18171 15165 41962 83210 11018 73622 8802/ 333 92912;
0080151650999992000021819004+99999+999999FM-12+999999999V0203201N008019999999N0280001N1-00141+99999999999ADDGF108991081001999999071999REMSYN042AAXX  18191 15165 42978 83208 11014 8807/;
0080151650999992000021820004+99999+999999FM-12+999999999V0203201N008019999999N0280001N1-00141+99999999999ADDGF108991081001999999071999REMSYN042AAXX  18201 15165 42978 83208 11014 8807/;
0182151650999992000021821004+99999+999999FM-12+999999999V0203201N008019999999N0280001N1-00161-00651999999ADDAA199000091GF108991011001999999041071MA1999999094571MD1210121+9999ME1207039REMSYN076AAXX  18211 15165 32978 83208 11016 21065 39457 42703 52012 81047 333 55000;EQDQ01  00002PRCP99
0080151650999992000021822004+99999+999999FM-12+999999999V0203201N007019999999N0280001N1-00201+99999999999ADDGF108991011001999999041071REMSYN042AAXX  18221 15165 42978 83207 11020 81047;
0080151650999992000021905004+99999+999999FM-12+999999999V0209999C000012200019N0280001N1-00441+99999999999ADDGF102991021001999999041001REMSYN042AAXX  19051 15165 42978 20000 11044 82040;
0080151650999992000021910004+99999+999999FM-12+999999999V0201801N001012200019N0100001N1-00101+99999999999ADDGF101991011001999999041001REMSYN042AAXX  19101 15165 42960 11801 11010 81040;
0080151650999992000021916004+99999+999999FM-12+999999999V0209999C00001045001CN0210001N1-00101+99999999999ADDGF107991041051012501071001REMSYN042AAXX  19161 15165 42671 70000 11010 84570;
0080151650999992000021917004+99999+999999FM-12+999999999V0201601N001010120019N0210001N1-00121+99999999999ADDGF108991051051012501071999REMSYN042AAXX  19171 15165 42671 81601 11012 8557/;
0080151650999992000021919004+99999+999999FM-12+999999999V0209999C000019999999N0280001N1-00171+99999999999ADDGF108991081001999999071999REMSYN042AAXX  19191 15165 42978 80000 11017 8807/;
0080151650999992000021920004+99999+999999FM-12+999999999V0209999C000019999999N0280001N1-00181+99999999999ADDGF107991071001999999071001REMSYN042AAXX  19201 15165 42978 70000 11018 87070;
0182151650999992000021921004+99999+999999FM-12+999999999V0201601N001019999999N0280001N1-00171-00581999999ADDAA199000091GF108991081001999999071999MA1999999094841MD1210031+9999ME1207209REMSYN076AAXX  19211 15165 32978 81601 11017 21058 39484 42720 52003 8807/ 333 55074;EQDQ01  00002PRCP99
0080151650999992000021922004+99999+999999FM-12+999999999V0201601N001019999999N0280001N1-00201+99999999999ADDGF108991081001999999071999REMSYN042AAXX  19221 15165 42978 81601 11020 8807/;
0061151650999992000022005004+99999+999999FM-12+999999999V0201601N002019999999N0280001N1-00311+99999999999REMSYN052AAXX  20051 15165 42978 /1602 11031 87070 333 92600;
0080151650999992000022016004+99999+999999FM-12+999999999V0203601N002019999999N0210001N1+00121+99999999999ADDGF107991031001999999041081REMSYN042AAXX  20161 15165 42971 73602 10012 83048;
0198151650999992000022018004+99999+999999FM-12+999999999V0203201N004019999999N0280001N1+00021-00251999999ADDAA199000091AJ100009199999999KA1120M+00241MA1999999095021MD1310101+9999ME1207379REMSYN088AAXX  20181 15165 32978 /3204 10002 21025 39502 42737 53010 8807/ 333 10024 3/004 41998;EQDQ01  00002PRCP99
0080151650999992000022019004+99999+999999FM-12+999999999V0203201N004019999999N0280001N1-00071+99999999999ADDGF108991081001999999071999REMSYN042AAXX  20191 15165 42978 83204 11007 8807/;
0080151650999992000022020004+99999+999999FM-12+999999999V0203401N004019999999N0280001N1-00061+99999999999ADDGF108991081001999999071999REMSYN042AAXX  20201 15165 42978 83404 11006 8807/;
0182151650999992000022021004+99999+999999FM-12+999999999V0203201N004019999999N0280001N1-00131-00211999999ADDAA199000091GF106991061001999999071001MA1999999095081MD1210061+9999ME1207459REMSYN076AAXX  20211 15165 32978 63204 11013 21021 39508 42745 52006 86070 333 55066;EQDQ01  00002PRCP99
0080151650999992000022022004+99999+999999FM-12+999999999V0203201N005019999999N0280001N1-00181+99999999999ADDGF107991071001999999071001REMSYN042AAXX  20221 15165 42978 73205 11018 87070;
0222151650999992000022106004+99999+999999FM-12+999999999V0203401N006019999999N0100001N1-00161-00271999999ADDAA199000091AJ100009199999999GF108991081001999999071999IA2120-00109KA1120N-00201MA1999999095241ME1205409REMSYN088AAXX  21061 15165 32960 83406 11016 21027 39524 4254/ 5//// 8807/ 333 21020 3/101 41998;EQDQ01  00002PRCP99
0080151650999992000022107004+99999+999999FM-12+999999999V0203401N008019999999N0100001N1-00191+99999999999ADDGF108991081001999999071999REMSYN042AAXX  21071 15165 42960 83408 11019 8807/;
0080151650999992000022108004+99999+999999FM-12+999999999V0203201N008019999999N0100001N1-00221+99999999999ADDGF108991081001999999021999REMSYN042AAXX  21081 15165 42960 83208 11022 8802/;
0172151650999992000022109004+99999+999999FM-12+999999999V0203401N010019999999N0150001N1-00231-00481999999ADDAA199000091GF106991061001999999071001MA1999999095351MD1210111+9999ME1207759REMSYN066AAXX  21091 15165 32965 63410 11023 21048 39535 42775 52011 86070;EQDQ01  00002PRCP99
0080151650999992000022114004+99999+999999FM-12+999999999V0203401N009012200019N0210001N1+00091+99999999999ADDGF103991031021008001001001REMSYN042AAXX  21141 15165 42571 33409 10009 83200;
0080151650999992000022116004+99999+999999FM-12+999999999V0203401N007012200019N0210001N1+00001+99999999999ADDGF101991011001999999061001REMSYN042AAXX  21161 15165 42971 13407 10000 81060;
0090151650999992000022117004+99999+999999FM-12+999999999V0203401N006012200019N0210001N1-00131+99999999999ADDGA1001+999999999GF100991001001999999001001REMSYN036AAXX  21171 15165 42971 03406 11013;
0080151650999992000022217004+99999+999999FM-12+999999999V0203601N003012200019N0032001N1-00401+99999999999ADDGF101991011041999999001001REMSYN042AAXX  22171 15165 42/32 13603 11040 81400;
0234151650999992000022218004+99999+999999FM-12+999999999V0203601N002012200019N0280001N1-00441-01001999999ADDAA199000091AJ100009199999999GA1001+999999999GF100991001001999999001001KA1120M-00101MA1999999096061MD1310141+9999ME1208239REMSYN082AAXX  22181 15165 32978 03602 11044 21100 39606 42823 53014 333 11010 3/009 41998;EQDQ01  00002PRCP99
0090151650999992000022220004+99999+999999FM-12+999999999V0209999C000012200019N0280001N1-00441+99999999999ADDGA1001+999999999GF100991001001999999001001REMSYN036AAXX  22201 15165 42978 00000 11044;
0192151650999992000022221004+99999+999999FM-12+999999999V0203201N002012200019N0280001N1-00461-01121999999ADDAA199000091GA1001+999999999GF100991001001999999001001MA1999999096091MD1110031+9999ME1208239REMSYN070AAXX  22211 15165 32978 03202 11046 21112 39609 42823 51003 333 55056;EQDQ01  00002PRCP99
0090151650999992000022222004+99999+999999FM-12+999999999V0203201N004012200019N0280001N1-00521+99999999999ADDGA1001+999999999GF100991001001999999001001REMSYN036AAXX  22221 15165 42978 03204 11052;
0108151650999992000022308004+99999+999999FM-12+999999999V0209999C000010075019N0100001N1-00491+99999999999ADDAY171999AY221999GF105991051051008001001001MW1221REMSYN048AAXX  23081 15165 41560 50000 11049 72272 85500;
0108151650999992000022311004+99999+999999FM-12+999999999V0209999C000012200019N0100001N1-00241+99999999999ADDAY171999AY211999GF104991041081008001001001MW1221REMSYN048AAXX  23111 15165 41560 40000 11024 72271 84800;
0080151650999992000022313004+99999+999999FM-12+999999999V0200501N003012200019N0100001N1-00301+99999999999ADDGF104991031021008001001011REMSYN042AAXX  23131 15165 42560 40503 11030 83201;
0153151650999992000022315004+99999+999999FM-12+999999999V0200701N003012200019N0100001N1-00301-01061999999ADDAA199000021GF104991031041008001001011MA1999999096161MD1710081+9999ME1208239REMSYN066AAXX  23151 15165 32560 40703 11030 21106 39616 42823 57008 83401;
0080151650999992000022316004+99999+999999FM-12+999999999V0209999C000010075019N0210001N1-00301+99999999999ADDGF106991061051008001001001REMSYN042AAXX  23161 15165 42571 60000 11030 86500;
0080151650999992000022317004+99999+999999FM-12+999999999V0209999C000012200019N0210001N1-00421+99999999999ADDGF104991041051008001001001REMSYN042AAXX  23171 15165 42571 40000 11042 84500;
0211151650999992000022318004+99999+999999FM-12+999999999V0200901N002010075019N0280001N1-00421-01011999999ADDAA112000791AJ100009199999999GF106991061051008001001001KA1120M-00181MA1999999096241MD1310081+9999ME1208319REMSYN094AAXX  23181 15165 12578 60902 11042 21101 39624 42831 53008 69902 86500 333 11018 3/009 41998;
0080151650999992000022319004+99999+999999FM-12+999999999V0209999C000010075019N0280001N1-00421+99999999999ADDGF105991051051008001001001REMSYN042AAXX  23191 15165 42578 50000 11042 85500;
0185151650999992000022321004+99999+999999FM-12+999999999V0200901N001012200019N0280001N1-00481-01151999999ADDAA199000021AY101031AY201031GF103991999999008001999999MA1999999096261MD1110021+9999ME1208399MW1351REMSYN076AAXX  23211 15165 32578 30901 11048 21115 39626 42839 51002 73500 333 55056;
0080151650999992000022322004+99999+999999FM-12+999999999V0209999C000012200019N0280001N1-00481+99999999999ADDGF102991021001999999041001REMSYN042AAXX  23221 15165 42978 20000 11048 82040;
0080151650999992000022323004+99999+999999FM-12+999999999V0209999C000012200019N0280001N1-00481+99999999999ADDGF102991021001999999041001REMSYN042AAXX  23231 15165 42978 20000 11048 82040;
0205151650999992000022400004+99999+999999FM-12+999999999V0209999C000010075019N0280001N1-00561-01121999999ADDAA199000091AJ100009199999999GF106991061051008001001001IA1259MA1999999096301MD1210041+9999ME1208399REMSYN076AAXX  24001 15165 32578 60000 11056 21112 39630 42839 52004 86500 333 41998;EQDQ01  00002PRCP99
0282151650999992000022406004+99999+999999FM-12+999999999V0200501N002010075019N0060001N1-00821-01051999999ADDAA199000091AJ199992999999999AY121061AY221061GF107991071051008001001001IA1259IA2120-00609KA1120N-00851MA1999999096401ME1208419MW1101REMSYN104AAXX  24061 15165 31556 70502 11082 21105 39640 42841 5//// 71022 87500 333 21085 3/106 41998 555 69900;EQDQ01  00002PRCP99Q02  09972SNDP  
0108151650999992000022407004+99999+999999FM-12+999999999V0200501N001010075019N0060001N1-00841+99999999999ADDAY121011AY221011GF107991071051008001001001MW1101REMSYN048AAXX  24071 15165 41556 70501 11084 71022 87500;
0108151650999992000022408004+99999+999999FM-12+999999999V0209999C000010120019N0060001N1-00681+99999999999ADDAY121999AY221999GF106991061051012501001001MW1101REMSYN048AAXX  24081 15165 41656 60000 11068 71022 86500;
0102151650999992000022413004+99999+999999FM-12+999999999V0201601N001012200019N0210001N1+99999+99999999999ADDAY111999AY221999GF104991041021008001001001MW1101REMSYN042AAXX  24131 15165 42571 41601 71012 84200;
0172151650999992000022415004+99999+999999FM-12+999999999V0209999C000012200019N0210001N1-00111-01091999999ADDAA199000091GF102991021041012501001001MA1999999096481MD1710041+9999ME1208619REMSYN066AAXX  24151 15165 32671 20000 11011 21109 39648 42861 57004 82400;EQDQ01  00002PRCP99
0080151650999992000022416004+99999+999999FM-12+999999999V0201601N002012200019N0210001N1-00151+99999999999ADDGF101991011041012501001001REMSYN042AAXX  24161 15165 42671 11602 11015 81400;
0080151650999992000022417004+99999+999999FM-12+999999999V0209999C000010120019N0150001N1-00281+99999999999ADDGF106991061051012501001001REMSYN042AAXX  24171 15165 42665 60000 11028 86500;
0224151650999992000022418004+99999+999999FM-12+999999999V0209999C000010075019N0120001N1-00341-01021999999ADDAA199000091AJ100009199999999GF106991061051008001001001KA1120M-00041MA1999999096501MD1310021+9999ME1208619REMSYN088AAXX  24181 15165 32562 60000 11034 21102 39650 42861 53002 86500 333 11004 3/013 41998;EQDQ01  00002PRCP99
0080151650999992000022422004+99999+999999FM-12+999999999V0202001N002012200019N0120001N1-00421+99999999999ADDGF103991031051012501001001REMSYN042AAXX  24221 15165 42662 32002 11042 83500;
0222151650999992000022506004+99999+999999FM-12+999999999V0202301N006019999999N0120001N1-00401-00701999999ADDAA199000091AJ100009199999999GF108991081001999999071999IA2120-00509KA1120N-00541MA1999999096311ME1208399REMSYN088AAXX  25061 15165 32962 82306 11040 21070 39631 42839 5//// 8807/ 333 21054 3/105 41998;EQDQ01  00002PRCP99
0080151650999992000022507004+99999+999999FM-12+999999999V0202301N007019999999N0120001N1+99999+99999999999ADDGF108991081001999999071999REMSYN042AAXX  25071 15165 42962 82307 1//// 8807/;
0224151650999992000022518004+99999+999999FM-12+999999999V0202301N010019999999N0280001N1+00171-00241999999ADDAA199000091AJ100009199999999GF108991081001999999071999KA1120M+00331MA1999999095501MD1710261+9999ME1207799REMSYN088AAXX  25181 15165 32978 82310 10017 21024 39550 42779 57026 8807/ 333 10033 3/003 41998;EQDQ01  00002PRCP99
0080151650999992000022716004+99999+999999FM-12+999999999V0203401N008012200019N0210001N1+00261+99999999999ADDGF102991021041012501001001REMSYN042AAXX  27161 15165 42671 23408 10026 82400;
0080151650999992000022717004+99999+999999FM-12+999999999V0203401N007012200019N0210001N1+00241+99999999999ADDGF102991021041012501001001REMSYN042AAXX  27171 15165 42671 23407 10024 82400;
0211151650999992000022718004+99999+999999FM-12+999999999V0203401N007012200019N0280001N1+00081-00451999999ADDAA112000791AJ100009199999999GF102991021041012501001001KA1120M+00401MA1999999096881MD1210091+9999ME1208949REMSYN094AAXX  27181 15165 12678 23407 10008 21045 39688 42894 52009 69902 82400 333 10040 3/013 41998;
0090151650999992000022719004+99999+999999FM-12+999999999V0203401N006012200019N0280001N1+00041+99999999999ADDGA1001+999999999GF100991001001999999001001REMSYN036AAXX  27191 15165 42978 03406 10004;
0090151650999992000022720004+99999+999999FM-12+999999999V0203401N006012200019N0280001N1-00041+99999999999ADDGA1001+999999999GF100991001001999999001001REMSYN036AAXX  27201 15165 42978 03406 11004;
0192151650999992000022721004+99999+999999FM-12+999999999V0203401N006012200019N0280001N1-00061-00301999999ADDAA199000091GA1001+999999999GF100991001001999999001001MA1999999097031MD1210151+9999ME1209029REMSYN070AAXX  27211 15165 32978 03406 11006 21030 39703 42902 52015 333 55072;EQDQ01  00002PRCP99
0090151650999992000022723004+99999+999999FM-12+999999999V0203401N004012200019N0280001N1-00081+99999999999ADDGA1001+999999999GF100991001001999999001001REMSYN036AAXX  27231 15165 42978 03404 11008;
0120151650999992000022805004+99999+999999FM-12+999999999V0209999C000012200019N0060001N1-00181+99999999999ADDAY101999GA1001+999999999GF100991001001999999001001MW1101REMSYN052AAXX  28051 15165 41956 00000 11018 7100/ 333 92600;
0290151650999992000022806004+99999+999999FM-12+999999999V0209999C000012200019N0060001N1-00221-00221999999ADDAA199000091AJ199992999999999AY101061GA1001+999999999GF100991001001999999001001IA1259IA2120-00609KA1120N-00301MA1999999097261ME1209279MW1101REMSYN104AAXX  28061 15165 31956 00000 11022 21022 39726 42927 5//// 7100/ 333 21030 3/106 41998 92600 555 69900;EQDQ01  00002PRCP99Q02  09972SNDP  
0128151650999992000022807004+99999+999999FM-12+999999999V0209999C000012200019N0060001N1-00181+99999999999ADDAY101999AY201999GA1001+999999999GF100991001001999999001001MW1101REMSYN052AAXX  28071 15165 41956 00000 11018 71000 333 92600;
0200151650999992000022809004+99999+999999FM-12+999999999V0201401N002012200019N0060001N1+00041-00191999999ADDAA199000091AY101031AY201031GF101991011011012501001001MA1999999097371MD1210111+9999ME1209359MW1101REMSYN072AAXX  28091 15165 31656 11402 10004 21019 39737 42935 52011 71000 81100;EQDQ01  00002PRCP99
0080151650999992000022810004+99999+999999FM-12+999999999V0201401N002012200019N0100001N1+00161+99999999999ADDGF101991011011012501001001REMSYN042AAXX  28101 15165 42660 11402 10016 81100;
0080151650999992000022811004+99999+999999FM-12+999999999V0201801N003012200019N0120001N1+00381+99999999999ADDGF102991021021008001001001REMSYN042AAXX  28111 15165 42562 21803 10038 82200;
0205151650999992000022812004+99999+999999FM-12+999999999V0202701N002012200019N0210001N1+00441-00751999999ADDAA199000091AJ100009199999999GF102991021021008001001001IA1259MA1999999097311MD1810061+9999ME1209349REMSYN076AAXX  28121 15165 32571 22702 10044 21075 39731 42934 58006 82200 333 41998;EQDQ01  00002PRCP99
0080151650999992000022813004+99999+999999FM-12+999999999V0201801N003012200019N0210001N1+00501+99999999999ADDGF101991011011012501001001REMSYN042AAXX  28131 15165 42671 11803 10050 81100;
0090151650999992000022814004+99999+999999FM-12+999999999V0201401N002012200019N0210001N1+00461+99999999999ADDGA1001+999999999GF100991001001999999001001REMSYN036AAXX  28141 15165 42971 01402 10046;
0090151650999992000022816004+99999+999999FM-12+999999999V0209999C000012200019N0210001N1+00321+99999999999ADDGA1001+999999999GF100991001001999999001001REMSYN036AAXX  28161 15165 42971 00000 10032;
0090151650999992000022817004+99999+999999FM-12+999999999V0209999C000012200019N0210001N1+00291+99999999999ADDGA1001+999999999GF100991001001999999001001REMSYN036AAXX  28171 15165 42971 00000 10029;
0234151650999992000022818004+99999+999999FM-12+999999999V0209999C000012200019N0210001N1+00161-00661999999ADDAA199000091AJ100009199999999GA1001+999999999GF100991001001999999001001KA1120M+00581MA1999999097181MD1710061+9999ME1209199REMSYN082AAXX  28181 15165 32971 00000 10016 21066 39718 42919 57006 333 10058 3/016 41998;EQDQ01  00002PRCP99
0192151650999992000022821004+99999+999999FM-12+999999999V0201401N002012200019N0280001N1+99999+99999999999ADDAA199000091GA1001+999999999GF100991001001999999001001MA1999999097841MD1610041+9999ME1209119REMSYN070AAXX  28211 15165 32978 01402 100/5 21069 39784 42911 56004 333 55101;EQDQ01  00002PRCP99
0090151650999992000022822004+99999+999999FM-12+999999999V0201401N004012200019N0280001N1+00001+99999999999ADDGA1001+999999999GF100991001001999999001001REMSYN036AAXX  28221 15165 42978 01404 10000;
0090151650999992000022823004+99999+999999FM-12+999999999V0201801N002012200019N0280001N1+00021+99999999999ADDGA1001+999999999GF100991001001999999001001REMSYN036AAXX  28231 15165 42978 01802 10002;
0039151650999992000022901004+99999+999999FM-12+999999999V02099999999999999999N9999999N1+99999+99999999999REMSYN030AAXX  29011 15165 //8// //0/8;
0250151650999992000022906004+99999+999999FM-12+999999999V0201401N002012200019N0100001N1-00321-00751999999ADDAA199000091AJ199992999999999GF102991001001999999001011IA1259IA2120-00809KA1120N-00341MA1999999096881ME1208879REMSYN094AAXX  29061 15165 32960 21402 11032 21075 39688 42887 5//// 80001 333 21034 3/108 41998 92600;EQDQ01  00002PRCP99Q02  09972SNDP  
0090151650999992000022910004+99999+999999FM-12+999999999V0201601N001012200019N9999999N1+00251+99999999999ADDGA1001+999999999GF100991001001999999001001REMSYN036AAXX  29101 15165 429/5 01601 10025;
0090151650999992000022911004+99999+999999FM-12+999999999V02099999999992200019N0150001N1+99999+99999999999ADDGA1001+999999999GF100991001001999999001001REMSYN036AAXX  29111 15165 42965 0//07 1////;
0104151650999992000022917004+99999+999999FM-12+999999999V0201101N001012200019N0150001N1+99999+99999999999ADDGA1001+999999999GF100991001001999999001001MD1010351+9999REMSYN036AAXX  29171 15165 42965 01101 50035;
0090151650999992000022919004+99999+999999FM-12+999999999V0201801N002012200019N0120001N1+00221+99999999999ADDGA1001+999999999GF100991001001999999001001REMSYN036AAXX  29191 15165 42562 01802 10022;
0090151650999992000022920004+99999+999999FM-12+999999999V0209999C000012200019N0120001N1+00191+99999999999ADDGA1001+999999999GF100991001001999999001001REMSYN036AAXX  29201 15165 42962 00000 10019;
0100151650999992000030105004+99999+999999FM-12+999999999V0209999C000012200019N0120001N1-00231+99999999999ADDGA1001+999999999GF100991001001999999001001REMSYN046AAXX  01051 15165 42962 00000 11023 333 92600;
0080151650999992000030207004+99999+999999FM-12+999999999V0201801N004019999999N0210001N1+00261+99999999999ADDGF107991071001999999071001REMSYN042AAXX  02071 15165 42971 71804 10026 87070;
0080151650999992000030208004+99999+999999FM-12+999999999V0201601N003019999999N0210001N1+00301+99999999999ADDGF107991051001999999071021REMSYN042AAXX  02081 15165 42971 71603 10030 85072;
0102151650999992000030211004+99999+999999FM-12+999999999V0201601N003019999999N0210001N1+00541+99999999999ADDAY161999AY221999GF108991999999999999999999MW1611REMSYN042AAXX  02111 15165 41971 81603 10054 76162;
0245151650999992000030212004+99999+999999FM-12+999999999V0209999C000019999999N0100001N1+00481-00081999999ADDAA103000191AJ199992999999999AY161061AY221061GF108991081001999999071999IA1259MA1999999094571MD1810021+9999ME1207079MW1611REMSYN094AAXX  02121 15165 /1960 80000 10048 21008 39457 42707 58002 69911 76162 8807/ 333 41998 69917;EQDQ01  09972SNDP  
0191151650999992000030215004+99999+999999FM-12+999999999V0202901N002010075019N0100001N1+00261+00261999999ADDAA103001091AY161031AY261031GF108991051071008001021999MA1999999094621MD1310051+9999ME1207079MW1611REMSYN082AAXX  02151 15165 21560 82902 10026 20026 39462 42707 53005 76166 8572/ 333 60017;
0108151650999992000030216004+99999+999999FM-12+999999999V0203201N002010075019N0100001N1+00221+99999999999ADDAY161999AY261999GF108991051071008001021999MW1611REMSYN048AAXX  02161 15165 41560 83202 10022 76166 8572/;
0118151650999992000030217004+99999+999999FM-12+999999999V0203201N003010042019N0045001N1+00181+99999999999ADDAY161999AY261999GF108991061071004501021999MW1611REMSYN058AAXX  02171 15165 41445 83203 10018 76166 8672/ 333 96010;
0276151650999992000030218004+99999+999999FM-12+999999999V0203201N002010042019N0012001N1+00101+00101999999ADDAA103003091AJ199992999999999AY161061AY261061GF108991061071004501021999IA1259KA1120M+00601MA1999999094801MD1210181+9999ME1207209MW1611REMSYN112AAXX  02181 15165 /1412 83202 10010 20010 39480 42720 52018 60052 76166 8672/ 333 10060 3/010 41998 60037 96010;EQDQ01  09972SNDP  
0128151650999992000030219004+99999+999999FM-12+999999999V0203201N006010001519N0000001N1+00001+99999999999ADDAY171011AY261011GA1091+999999999GF109991091999999999999999MW1681REMSYN052AAXX  02191 15165 41/00 93206 10000 76876 333 96047;
0128151650999992000030220004+99999+999999FM-12+999999999V0203401N008010001519N0000001N1+00001+99999999999ADDAY171999AY271999GA1091+999999999GF109991091999999999999999MW1711REMSYN052AAXX  02201 15165 41/00 93408 10000 77177 333 96045;
0203151650999992000030221004+99999+999999FM-12+999999999V0203401N008010042019N0012001N1+00021+00021999999ADDAA103001091AY171031AY271031GF108991051071004501021999MA1999999095021MD1210221+9999ME1207289MW1281REMSYN094AAXX  02211 15165 21412 83408 10002 20002 39502 42728 52022 72877 8572/ 333 55006 60017 96010;
0108151650999992000030222004+99999+999999FM-12+999999999V0203401N00601045001CN0060001N1+00041+99999999999ADDAY121999AY221999GF108991041071004501021999MW1101REMSYN048AAXX  02221 15165 41456 83406 10004 71022 8472/;
0090151650999992000030223004+99999+999999FM-12+999999999V02099999999992200019N0034001N1+00041+99999999999ADDGA1001+999999999GF100991001001999999001001REMSYN036AAXX  02231 15165 42434 06/// 10004;
0080151650999992000030316004+99999+999999FM-12+999999999V0201801N00201045001CN9999999N1+00301+99999999999ADDGF106991041021008001061001REMSYN042AAXX  03161 15165 4257/ 61802 10030 84260;
0080151650999992000030317004+99999+999999FM-12+999999999V0201601N002012200019N9999999N1+00201+99999999999ADDGF103991021041000601001011REMSYN042AAXX  03171 15165 //1// 31602 10020 82401;
0224151650999992000030318004+99999+999999FM-12+999999999V0201801N002012200019N0280001N1+00151-00051999999ADDAA199000091AJ100009199999999GF101991011041012501001001KA1120M+00441MA1999999095461MD1410001+9999ME1207799REMSYN088AAXX  03181 15165 32678 11802 10015 21005 39546 42779 54000 81400 333 10044 3/015 41998;EQDQ01  00002PRCP99
0090151650999992000030319004+99999+999999FM-12+999999999V0201801N003012200019N0280001N1+00171+99999999999ADDGA1001+999999999GF100991001001999999001001REMSYN036AAXX  03191 15165 42978 01803 10017;
0080151650999992000030320004+99999+999999FM-12+999999999V0202301N003012200019N0280001N1+00161+99999999999ADDGF101991001001999999001011REMSYN042AAXX  03201 15165 42978 12303 10016 80001;
0172151650999992000030321004+99999+999999FM-12+999999999V0202301N004012200019N0280001N1+00091-00371999999ADDAA199000091GF101991001001999999001011MA1999999095471MD1010011+9999ME1207799REMSYN066AAXX  03211 15165 32978 12304 10009 21037 39547 42779 50001 80001;EQDQ01  00002PRCP99
0074151650999992000030322004+99999+999999FM-12+999999999V0202301N004012200019N0280001N1+99999+99999999999ADDGF101991999999999999999999REMSYN036AAXX  03221 15165 42978 12304 22210;
0215151650999992000030400004+99999+999999FM-12+999999999V0202301N005012200019N0280001N1-00011-00381999999ADDAA199000091AJ100009199999999GA1001+999999999GF100991001001999999001001IA1259MA1999999095391MD1810081+9999ME1207709REMSYN070AAXX  04001 15165 32978 02305 11001 21038 39539 42770 58008 333 41998;EQDQ01  00002PRCP99
0080151650999992000030407004+99999+999999FM-12+999999999V0201801N002019999999N0500001N1-00061+99999999999ADDGF107991011001999999041011REMSYN042AAXX  04071 15165 42984 71802 11006 81041;
0080151650999992000030419004+99999+999999FM-12+999999999V0202301N003010075019N0280001N1+00471+99999999999ADDGF108991051031008001071999REMSYN042AAXX  04191 15165 42578 82303 10047 8537/;
