0250154770999992000010100004+44080+026630FM-12+003299999V0200501N019010042019N0100001N1+00401+00401101271ADDAA103003091AY161061AY261061GF108991061071004501021999MA1999999101101MD1710351+9999MW1611OA149902401SA1+0709UA1M070809999REMSYN118AAXX  01001 15477 /1497 80519 10040 20040 30110 40127 57035 60051 76166 8672/ 222// 00070 20716 333 60037 91124 92477;
0118154770999992000010102004+44080+026630FM-12+003299999V0200501N018010042019N0100001N1+00411+99999999999ADDAY161999AY261999GF108991061071004501021999MW1611REMSYN058AAXX  01021 15477 41497 80518 10041 76166 8672/ 333 91124;
0118154770999992000010105004+44080+026630FM-12+003299999V0200501N018010042019N0100001N1+00461+99999999999ADDAY161999AY261999GF108991061071004501021999MW1611REMSYN058AAXX  01051 15477 41497 80518 10046 76166 8672/ 333 91123;
0248154770999992000010106004+44080+026630FM-12+003299999V0200901N016010042019N0100001N1+00681+00681100771ADDAA103002091AY161061AY261061GF108991061071004501021999KA1120N+00401MA1999999100601MD1710151+9999MW1611OA149902101REMSYN124AAXX  01061 15477 /1497 80916 10068 20068 30060 40077 57015 60092 76166 8672/ 22200 00070 20815 333 20040 60027 91121 92477;
0118154770999992000010107004+44080+026630FM-12+003299999V0201401N016010042019N0100001N1+00731+99999999999ADDAY161999AY221999GF108991061071004501021999MW1211REMSYN058AAXX  01071 15477 41497 81416 10073 72162 8672/ 333 91121;
0061154770999992000010108004+44080+026630FM-12+003299999V0201801N015019999999N0100001N1+00751+99999999999REMSYN052AAXX  01081 15477 42597 /1815 10075 85570 333 91120;
0074154770999992000010110004+44080+026630FM-12+003299999V0201801N010019999999N0100001N1+00601+99999999999ADDGF106991999999008001999999REMSYN036AAXX  01101 15477 42597 61810 10060;
0248154770999992000010112004+44080+026630FM-12+003299999V0203401N032010042019N0040001N1+00101+00101100871ADDAA103000291AY161061AY221061GF108991061071004501021999MA1999999100701MD1310101+9999MW1611OA149903701UA1M999999079REMSYN124AAXX  01121 15477 /1496 83432 10010 20010 30070 40087 53010 69931 76162 8672/ 22200 00070 20817 333 69927 91137 92476 96010;
0135154770999992000010114004+44080+026630FM-12+003299999V0203401N027010042019N0040001N1+00021+99999999999ADDAY171999AY221999GF108991061071004501021999MW1221OA149903201REMSYN064AAXX  01141 15477 41496 83427 10002 72272 8672/ 333 91132 96010;
0197154770999992000010115004+44080+026630FM-12+003299999V0203401N023010042019N0100001N1-00021-00021101541ADDAA103000191AY171031GF108991061071004501021999MA1999999101371MD1210671+9999MW1021OA149902801REMSYN094AAXX  01151 15477 21497 83423 11002 21002 30137 40154 52067 7027/ 8672/ 333 69917 91128 92477;
0090154770999992000010116004+44080+026630FM-12+003299999V0203401N020010042019N0100001N1-00051+99999999999ADDGF108991061071004501021999REMSYN052AAXX  01161 15477 42497 83420 11005 8672/ 333 91125;
0090154770999992000010117004+44080+026630FM-12+003299999V0203401N016010042019N0100001N1-00051+99999999999ADDGF108991061071004501021999REMSYN052AAXX  01171 15477 42497 83416 11005 8672/ 333 91121;
0263154770999992000010118004+44080+026630FM-12+003299999V0203401N016010042019N0100001N1-00081-00111102071ADDAA112000591AY171061AY261061GF108991061071004501021999KA1120M+00801MA1999999101901MD1210231+9999MW1021OA149902101SA1+0709UA1M080759999REMSYN118AAXX  01181 15477 11497 83416 11008 21011 30190 40207 52023 69942 70276 8672/ 222// 00070 20815 333 10080 91121 92477;
0090154770999992000010119004+44080+026630FM-12+003299999V0203401N016010042019N0100001N1-00101+99999999999ADDGF108991061071004501021999REMSYN052AAXX  01191 15477 42497 83416 11010 8672/ 333 91120;
0090154770999992000010120004+44080+026630FM-12+003299999V0203401N015010075019N0100001N1-00101+99999999999ADDGF105991051051008001001001REMSYN052AAXX  01201 15477 42597 53415 11010 85500 333 91119;
0173154770999992000010121004+44080+026630FM-12+003299999V0203401N014010075019N0100001N1-00101-00131102271ADDAA106000091GF106991061051008001001001MA1999999102101MD1210201+9999REMSYN076AAXX  01211 15477 32597 63414 11010 21013 30210 40227 52020 86500 333 92467;EQDQ01  00002PRCP06
0080154770999992000010122004+44080+026630FM-12+003299999V0203401N014010075019N0100001N1-00121+99999999999ADDGF105991051051008001001001REMSYN042AAXX  01221 15477 42597 53414 11012 85500;
0080154770999992000010123004+44080+026630FM-12+003299999V0203401N012010075019N0100001N1-00121+99999999999ADDGF105991051051008001001001REMSYN042AAXX  01231 15477 42597 53412 11012 85500;
0212154770999992000010200004+44080+026630FM-12+003299999V0203401N014010075019N0100001N1-00141-00171102331ADDAA106000091GF106991061091008001001001MA1999999102161MD1210061+9999SA1+0699UA1M080409999REMSYN094AAXX  02001 15477 32597 63414 11014 21017 30216 40233 52006 86900 22200 00069 20808 333 92467;EQDQ01  00002PRCP06
0186154770999992000010201004+44080+026630FM-12+003299999V02099999999999999999N0100001N1-00141-00171102331ADDAA106000091MA1999999102161MD1210061+9999SA1+0699UA1M080409999REMSYN094AAXX  02011 15477 32597 ////6 11014 21017 30216 40233 52006 86500 22200 00069 20808 333 92467;EQDQ01  00002PRCP06
0080154770999992000010202004+44080+026630FM-12+003299999V0203401N012010075019N0100001N1-00171+99999999999ADDGF105991051051008001001001REMSYN042AAXX  02021 15477 42597 53412 11017 85500;
0137154770999992000010203004+44080+026630FM-12+003299999V0203401N010010075019N0100001N1-00141-00171999999ADDAA106000091GF105991051051008001001001MA1999999102711REMSYN054AAXX  02031 15477 32597 53410 11014 21017 30271 85500;EQDQ01  00002PRCP06
0080154770999992000010204004+44080+026630FM-12+003299999V0203401N010010075019N0100001N1-00121+99999999999ADDGF105991051051008001001001REMSYN042AAXX  02041 15477 42597 53410 11012 85500;
0080154770999992000010205004+44080+026630FM-12+003299999V0203401N010012200019N0100001N1-00131+99999999999ADDGF103991031051008001001001REMSYN042AAXX  02051 15477 42597 33410 11013 83500;
0230154770999992000010206004+44080+026630FM-12+003299999V0203401N009012200019N0100001N1-00151-00181102471ADDAA106000091GF103991031051008001001001KA1999N-00181MA1999999102301MD1210051+9999SA1+0729UG1080203609REMSYN100AAXX  02061 15477 32597 33409 11015 21018 30230 40247 52005 83500 22200 00072 336// 40804 333 21018;EQDQ01  00002PRCP06
0080154770999992000010207004+44080+026630FM-12+003299999V0203401N009012200019N0100001N1-00181+99999999999ADDGF103991031051008001001001REMSYN042AAXX  02071 15477 42597 33409 11018 83500;
0099154770999992000010208004+44080+026630FM-12+003299999V02099999999999999999N9999999N1+99999+99999999999ADDGF107991999051999999001001REMSYN042AAXX  02081 15477 4//// 7//// 334/8 83500;EQDQ01+000032SCOTLC
0173154770999992000010209004+44080+026630FM-12+003299999V0203401N007012200019N0100001N1-00131-00161102691ADDAA106000091GF104991041051008001001001MA1999999102521MD1210221+9999REMSYN076AAXX  02091 15477 32597 43407 11013 21016 30252 40269 52022 84500 333 92447;EQDQ01  00002PRCP06
0080154770999992000010213004+44080+026630FM-12+003299999V0203401N006019999999N0100001N1+00061+99999999999ADDGF105991999999008001001001REMSYN042AAXX  02131 15477 42597 53406 10006 8//00;
0080154770999992000010214004+44080+026630FM-12+003299999V0203401N007010075019N0100001N1+00101+99999999999ADDGF105991051051008001001001REMSYN042AAXX  02141 15477 42597 53407 10010 85500;
0173154770999992000010215004+44080+026630FM-12+003299999V0203401N007010075019N0100001N1+00071+00011102701ADDAA106000091GF107991051051008001071001MA1999999102531MD1310031+9999REMSYN076AAXX  02151 15477 32597 73407 10007 20001 30253 40270 53003 85570 333 92447;EQDQ01  00002PRCP06
0080154770999992000010216004+44080+026630FM-12+003299999V0203401N007010075019N0100001N1+00031+99999999999ADDGF108991051051008001071999REMSYN042AAXX  02161 15477 42597 83407 10003 8557/;
0080154770999992000010217004+44080+026630FM-12+003299999V0203401N007010075019N0100001N1+00001+99999999999ADDGF108991051051008001071999REMSYN042AAXX  02171 15477 42597 83407 10000 8557/;
0201154770999992000010218004+44080+026630FM-12+003299999V0203401N008010075019N0100001N1-00101-00131102771ADDGF108991051051008001071999KA1120M+00121MA1999999102601MD1210071+9999SA1+0759UA1M059999999REMSYN100AAXX  02181 15477 42597 83408 11010 21013 30260 40277 52007 8557/ 22200 00075 2050/ 333 10012 92447;
0080154770999992000010219004+44080+026630FM-12+003299999V0203401N008010075019N0100001N1-00161+99999999999ADDGF108991051051008001071999REMSYN042AAXX  02191 15477 42597 83408 11016 8557/;
0080154770999992000010220004+44080+026630FM-12+003299999V0203401N008010075019N0100001N1-00171+99999999999ADDGF108991051051008001071999REMSYN042AAXX  02201 15477 42597 83408 11017 8557/;
0173154770999992000010221004+44080+026630FM-12+003299999V0203401N008010075019N0100001N1-00141-00141102871ADDAA106000091GF108991051051008001071999MA1999999102701MD1210101+9999REMSYN076AAXX  02211 15477 32597 83408 11014 21014 30270 40287 52010 8557/ 333 92447;EQDQ01  00002PRCP06
0080154770999992000010222004+44080+026630FM-12+003299999V0203401N008010075019N0100001N1-00121+99999999999ADDGF108991051051008001071999REMSYN042AAXX  02221 15477 42597 83408 11012 8557/;
0080154770999992000010223004+44080+026630FM-12+003299999V0203601N009010075019N0100001N1-00121+99999999999ADDGF108991051051008001071999REMSYN042AAXX  02231 15477 42597 83609 11012 8557/;
0212154770999992000010300004+44080+026630FM-12+003299999V0203601N009010075019N0100001N1-00101-00221102851ADDAA106000091GF108991051051008001071999MA1999999102681MD1810021+9999SA1+0759UA1M049999999REMSYN094AAXX  03001 15477 32597 83609 11010 21022 30268 40285 58002 8557/ 22200 00075 2040/ 333 92447;EQDQ01  00002PRCP06
0080154770999992000010301004+44080+026630FM-12+003299999V0203601N009010075019N0100001N1-00091+99999999999ADDGF108991051051008001071999REMSYN042AAXX  03011 15477 42597 83609 11009 8557/;
0080154770999992000010302004+44080+026630FM-12+003299999V0203601N008010075019N0100001N1-00111+99999999999ADDGF108991051051008001071999REMSYN042AAXX  03021 15477 42597 83608 11011 8557/;
0173154770999992000010303004+44080+026630FM-12+003299999V0203601N009010075019N0100001N1-00101-00101102801ADDAA106000091GF108991051051008001071999MA1999999102631MD1710051+9999REMSYN076AAXX  03031 15477 32597 83609 11010 21010 30263 40280 57005 8557/ 333 92447;EQDQ01  00002PRCP06
0080154770999992000010304004+44080+026630FM-12+003299999V0203601N009010075019N0100001N1-00121+99999999999ADDGF108991051051008001071999REMSYN042AAXX  03041 15477 42597 83609 11012 8557/;
0080154770999992000010305004+44080+026630FM-12+003299999V0203601N008010075019N0100001N1-00131+99999999999ADDGF108991051051008001071999REMSYN042AAXX  03051 15477 42597 83608 11013 8557/;
0051154770999992000010308004+44080+026630FM-12+003299999V02099999999999999999N0100001N1-00301+99999999999REMSYN042AAXX  03081 15477 42597 //608 11030 87500;
0173154770999992000010314004+44080+026630FM-12+003299999V0203601N007010075019N0100001N1+00001+99999102571ADDAA106000091GF107991071051008001001001MA1999999102401MD1710121+9999REMSYN076AAXX  03141 15477 32597 73607 10000 21/27 30240 40257 57012 87500 333 92447;EQDQ01  00002PRCP06
0094154770999992000010315004+44080+026630FM-12+003299999V0203601N007019999999N0100001N1+00001+99999999999ADDGF107991999999999999999999MD1019999+9999REMSYN042AAXX  03151 15477 42997 73607 10000 500/9;
0080154770999992000010316004+44080+026630FM-12+003299999V0203601N007010075019N0100001N1+00001+99999999999ADDGF107991071051008001001001REMSYN042AAXX  03161 15477 42597 73607 10000 87500;
0236154770999992000010318004+44080+026630FM-12+003299999V0203201N006010075019N0100001N1-00021-00141102401ADDAA106000091GF106991061051008001001001KA1120M+00021MA1999999102231MD1710171+9999SA1+0759UG1070103609REMSYN106AAXX  03181 15477 32597 63206 11002 21014 30223 40240 57017 86500 22200 00075 336// 40702 333 10002 92437;EQDQ01  00002PRCP06
0080154770999992000010319004+44080+026630FM-12+003299999V0202701N007010075019N0100001N1-00021+99999999999ADDGF106991061051008001001001REMSYN042AAXX  03191 15477 42597 62707 11002 86500;
0080154770999992000010320004+44080+026630FM-12+003299999V0202701N007010075019N0100001N1-00101+99999999999ADDGF106991061051008001001001REMSYN042AAXX  03201 15477 42597 62707 11010 86500;
0205154770999992000010321004+44080+026630FM-12+003299999V0202901N007010075019N0100001N1-00121-00151102321ADDAA106000091GF106991061051008001001001MA1999999102151MD1710081+9999REMSYN076AAXX  03211 15477 32597 62907 11012 21015 30215 40232 5700/ 86500 333 92437;EQDQ01+000072APCTENQ02+000002APC3  Q03  00002PRCP06
0080154770999992000010322004+44080+026630FM-12+003299999V0202901N007010075019N0100001N1-00121+99999999999ADDGF106991061051008001001001REMSYN042AAXX  03221 15477 42597 62907 11012 86500;
0169154770999992000010400004+44080+026630FM-12+003299999V0203201N006010075019N0100001N1-00081-00201102251ADDAA106000091GF108991081051008001999999MA1999999102051MD1710101+9999REMSYN072AAXX  04001 15477 32597 83206 11008 21020 30205 40225 57010 885// 22200;EQDQ01  00002PRCP06
0080154770999992000010402004+44080+026630FM-12+003299999V0203401N008010075019N0100001N1-00111+99999999999ADDGF108991081051008001999999REMSYN042AAXX  04021 15477 42597 83408 11011 885//;
0080154770999992000010403004+44080+026630FM-12+003299999V0203601N007010075019N0100001N1-00101+99999999999ADDGF108991081051008001999999REMSYN042AAXX  04031 15477 42597 83607 11010 885//;
0090154770999992000010422004+44080+026630FM-12+003299999V0203401N008012200019N0200001N1+00101+99999999999ADDGA1001+999999999GF100991001001999999001001REMSYN036AAXX  04221 15477 42998 03408 10010;
0222154770999992000010500004+44080+026630FM-12+003299999V0203601N006012200019N0200001N1+00101-00041102321ADDAA106000091GA1001+999999999GF100991001001999999001001MA1999999102151MD1810071+9999SA1+0709UA1M050159999REMSYN088AAXX  05001 15477 32998 03606 10010 21004 30215 40232 58007 22200 00070 20503 333 92448;EQDQ01  00002PRCP06
0090154770999992000010501004+44080+026630FM-12+003299999V0203601N006012200019N0200001N1+00101+99999999999ADDGA1001+999999999GF100991001001999999001001REMSYN036AAXX  05011 15477 42998 03606 10010;
0090154770999992000010502004+44080+026630FM-12+003299999V0203601N006012200019N0100001N1+00081+99999999999ADDGA1001+999999999GF100991001001999999001001REMSYN036AAXX  05021 15477 42997 03606 10008;
0183154770999992000010503004+44080+026630FM-12+003299999V0203601N005012200019N0100001N1+00081+00021102321ADDAA106000091GA1001+999999999GF100991001001999999001001MA1999999102151MD1810071+9999REMSYN070AAXX  05031 15477 32997 03605 10008 20002 30215 40232 58007 333 92448;EQDQ01  00002PRCP06
0090154770999992000010504004+44080+026630FM-12+003299999V0203601N005012200019N0200001N1+00001+99999999999ADDGA1001+999999999GF100991001001999999001001REMSYN036AAXX  05041 15477 42998 03605 10000;
0090154770999992000010505004+44080+026630FM-12+003299999V0203601N005012200019N0100001N1+00001+99999999999ADDGA1001+999999999GF100991001001999999001001REMSYN036AAXX  05051 15477 42997 03605 10000;
0240154770999992000010506004+44080+026630FM-12+003299999V0203401N002012200019N0100001N1+00081+99999102171ADDAA106000091GA1001+999999999GF100991001001999999001001KA1120N+00001MA1999999102001MD1810151+9999SA1+0709UG1060103609REMSYN094AAXX  05061 15477 32997 03402 10008 30200 40217 58015 22200 00070 336// 40602 333 20000 92437;EQDQ01  00002PRCP06
0090154770999992000010507004+44080+026630FM-12+003299999V0209999C000012200019N0100001N1+99999+99999999999ADDGA1001+999999999GF100991001001999999001001REMSYN036AAXX  05071 15477 42997 00000 70/10;
0143154770999992000010515004+44080+026630FM-12+003299999V0202001N003019999999N0100001N1+00141+00031102091ADDGF105991051001999999071001MA1999999101921MD1410001+9999REMSYN076AAXX  05151 15477 /2997 52003 10014 20003 30192 40209 54000 85070 333 92437;
0096154770999992000010516004+44080+026630FM-12+003299999V02099999999990024019N0100001N1+00121+99999999999ADDGA1091+999999999GF109991091999999999999999REMSYN042AAXX  05161 15477 42997 9//// 10012 86070;
0231154770999992000010518004+44080+026630FM-12+003299999V0202001N005019999999N0100001N1+00081+00081102091ADDAA106000091GF105991051001999999071001KA1120M+00371MA1999999101921MD1410001+9999SA1+0709UA1M030109999REMSYN100AAXX  05181 15477 32997 52005 10008 20008 30192 40209 54000 85070 22200 00070 20302 333 10037 92437;EQDQ01  00002PRCP06
0080154770999992000010519004+44080+026630FM-12+003299999V0202001N005019999999N0100001N1+00071+99999999999ADDGF105991051001999999071001REMSYN042AAXX  05191 15477 42997 52005 10007 85070;
0080154770999992000010520004+44080+026630FM-12+003299999V0202001N005019999999N0100001N1+00051+99999999999ADDGF105991051001999999071001REMSYN042AAXX  05201 15477 42997 52005 10005 85070;
0173154770999992000010521004+44080+026630FM-12+003299999V0202701N004010360019N0100001N1+00051+00051102151ADDAA106000091GF106991031051008001071001MA1999999101981MD1310061+9999REMSYN076AAXX  05211 15477 32597 62704 10005 20005 30198 40215 53006 83570 333 92437;EQDQ01  00002PRCP06
0074154770999992000010601004+44080+026630FM-12+003299999V0203201N007019999999N0100001N1+99999+99999999999ADDGF107991999999008001999999REMSYN036AAXX  06011 15477 42597 73207 222//;
0080154770999992000010604004+44080+026630FM-12+003299999V0200201N006010075019N0100001N1+00041+99999999999ADDGF105991051051008001001001REMSYN042AAXX  06041 15477 42597 50206 10004 85500;
0099154770999992000010605004+44080+026630FM-12+003299999V0203601N006010075019N0100001N1+00862+99999999999ADDGF106991061051008001001001REMSYN042AAXX  06051 15477 42597 63606 10086 86500;EQDQ01+000863ATOT  
0245154770999992000010612004+44080+026630FM-12+003299999V0203201N007010042019N0040001N1+00131+99999102071ADDAA106000091AY121061AY221061GF108991081061004501999999MA1999999101901MD1410001+9999MW1101SA1+0709UG1070153209REMSYN106AAXX  06121 15477 31496 83207 10013 20023 30190 40207 54000 71022 886// 22200 00070 332// 40703 333 92436;EQDQ01  00002PRCP06
0108154770999992000010614004+44080+026630FM-12+003299999V0203601N008010042019N0040001N1+00121+99999999999ADDAY121021AY221021GF108991081061004501999999MW1101REMSYN048AAXX  06141 15477 41496 83608 10012 71022 886//;
0201154770999992000010615004+44080+026630FM-12+003299999V0203601N008010042019N0040001N1+00181+00181102101ADDAA106000091AY121031AY221031GF108991081061004501999999MA1999999101931MD1310031+9999MW1101REMSYN082AAXX  06151 15477 31496 83608 10018 20018 30193 40210 53003 71022 886// 333 92436;EQDQ01  00002PRCP06
0108154770999992000010616004+44080+026630FM-12+003299999V0203601N009010042019N0040001N1+00201+99999999999ADDAY121999AY221999GF108991081061004501999999MW1101REMSYN048AAXX  06161 15477 41496 83609 10020 71022 886//;
0108154770999992000010620004+44080+026630FM-12+003299999V0203601N008010042019N0100001N1+00281+99999999999ADDAY121999AY221999GF108991061071004501021999MW1611REMSYN048AAXX  06201 15477 41497 83608 10028 76122 8672/;
0188154770999992000010621004+44080+026630FM-12+003299999V0203601N008010042019N0100001N1+00301+00301102251ADDAA103000291AY161031AY221031GF108991061071004501021999MA1999999102081MD1210081+9999MW1611REMSYN088AAXX  06211 15477 21497 83608 10030 20030 30208 40225 52008 76162 8672/ 333 69927 92447;
0108154770999992000010623004+44080+026630FM-12+003299999V0203601N009010042019N0200001N1+00301+99999999999ADDAY161999AY261999GF108991061071004501021999MW1611REMSYN048AAXX  06231 15477 41498 83609 10030 76166 8672/;
0233154770999992000010700004+44080+026630FM-12+003299999V0200501N012010042019N9999999N1+00431+00311102371ADDAA103002091AY161061AY221061GF108991061071004501021999MA1999999102201MD1210121+9999MW1611SA1+0729UA1M050259999REMSYN112AAXX  07001 15477 /14/7 80512 10043 20031 30220 40237 52012 60021 76162 8672/ 22200 00072 20505 333 60027 92447;
0108154770999992000010701004+44080+026630FM-12+003299999V0200501N012010042019N0100001N1+00481+99999999999ADDAY161999AY221999GF108991061071004501021999MW1211REMSYN048AAXX  07011 15477 41497 80512 10048 72162 8672/;
0080154770999992000010702004+44080+026630FM-12+003299999V0200501N012010075019N0200001N1+00501+99999999999ADDGF108991081051008001999999REMSYN042AAXX  07021 15477 42598 80512 10050 885//;
0188154770999992000010703004+44080+026630FM-12+003299999V0200501N013010075019N0200001N1+00501+00231102451ADDAA103000191AY161031AY221031GF108991081051008001999999MA1999999102281MD1210081+9999MW1021REMSYN088AAXX  07031 15477 21598 80513 10050 20023 30228 40245 52008 70262 885// 333 69917 92458;
0080154770999992000010713004+44080+026630FM-12+003299999V0203601N013010075019N0200001N1+00401+99999999999ADDGF108991081051008001999999REMSYN042AAXX  07131 15477 42598 83613 10040 885//;
0173154770999992000010715004+44080+026630FM-12+003299999V0203601N013010075019N0200001N1+00381+00381102751ADDAA106000091GF108991081051008001999999MA1999999102581MD1310061+9999REMSYN076AAXX  07151 15477 32598 83613 10038 20038 30258 40275 53006 885// 333 92458;EQDQ01  00002PRCP06
0080154770999992000010716004+44080+026630FM-12+003299999V0203601N012010075019N0200001N1+00361+99999999999ADDGF108991081051008001999999REMSYN042AAXX  07161 15477 42598 83612 10036 885//;
0080154770999992000010717004+44080+026630FM-12+003299999V0203601N011010075019N0200001N1+00351+99999999999ADDGF108991081051008001999999REMSYN042AAXX  07171 15477 42598 83611 10035 885//;
0231154770999992000010718004+44080+026630FM-12+003299999V0203601N011010075019N0200001N1+00371+00371102821ADDAA106000091GF108991081051008001999999KA1120M+00521MA1999999102651MD1210071+9999SA1+0709UA1M060309999REMSYN100AAXX  07181 15477 32598 83611 10037 20037 30265 40282 52007 885// 22200 00070 20606 333 10052 92458;EQDQ01  00002PRCP06
0080154770999992000010719004+44080+026630FM-12+003299999V0203601N010010075019N0200001N1+00381+99999999999ADDGF108991081051008001999999REMSYN042AAXX  07191 15477 42598 83610 10038 885//;
0173154770999992000010721004+44080+026630FM-12+003299999V0203601N010010075019N0200001N1+00381+00361102871ADDAA106000091GF108991081051008001999999MA1999999102701MD1210051+9999REMSYN076AAXX  07211 15477 32598 83610 10038 20036 30270 40287 52005 885// 333 92458;EQDQ01  00002PRCP06
0080154770999992000010722004+44080+026630FM-12+003299999V0203601N010010075019N0200001N1+00381+99999999999ADDGF108991081051008001999999REMSYN042AAXX  07221 15477 42598 83610 10038 885//;
0080154770999992000010723004+44080+026630FM-12+003299999V0203601N010010075019N0200001N1+00371+99999999999ADDGF108991081051008001999999REMSYN042AAXX  07231 15477 42598 83610 10037 885//;
0080154770999992000010801004+44080+026630FM-12+003299999V0203601N008010075019N0200001N1+00401+99999999999ADDGF108991081051008001999999REMSYN042AAXX  08011 15477 42598 83608 10040 885//;
0231154770999992000010810004+44080+026630FM-12+003299999V0203601N012010075019N0100001N1+00401+00121102871ADDAA106000091GF108991081051008001999999KA1120M+00451MA1999999102701MD1310101+9999SA1+0759UA1M060259999REMSYN100AAXX  08101 15477 32597 83612 10040 20012 30270 40287 53010 885// 22200 00075 20605 333 10045 92457;EQDQ01  00002PRCP06
0080154770999992000010819004+44080+026630FM-12+003299999V0203601N011010075019N0100001N1+00401+99999999999ADDGF108991081051008001999999REMSYN042AAXX  08191 15477 42597 83611 10040 885//;
0080154770999992000010820004+44080+026630FM-12+003299999V0203601N010010075019N0100001N1+00401+99999999999ADDGF108991081051008001999999REMSYN042AAXX  08201 15477 42597 83610 10040 885//;
0173154770999992000010821004+44080+026630FM-12+003299999V0203601N010010075019N0100001N1+00401+00141102871ADDAA106000091GF108991081051008001999999MA1999999102701MD1410001+9999REMSYN076AAXX  08211 15477 32597 83610 10040 20014 30270 40287 54000 885// 333 92447;EQDQ01  00002PRCP06
0141154770999992000010915004+44080+026630FM-12+003299999V0203601N009019999999N0200001N1+00241+00191999999ADDAA106000091GF108991999999008001999999MA1999999102721REMSYN058AAXX  09151 15477 32598 83609 10024 20019 30272 333 92448;EQDQ01  00002PRCP06
0080154770999992000010916004+44080+026630FM-12+003299999V0203601N008010075019N0200001N1+00231+99999999999ADDGF108991081051008001999999REMSYN042AAXX  09161 15477 42598 83608 10023 885//;
0080154770999992000010917004+44080+026630FM-12+003299999V0203601N008010075019N0200001N1+00231+99999999999ADDGF108991081051008001999999REMSYN042AAXX  09171 15477 42598 83608 10023 885//;
0236154770999992000010918004+44080+026630FM-12+003299999V0203601N008010075019N0200001N1+00241+00161102871ADDAA106000091GF108991081051008001999999KA1120M+00301MA1999999102701MD1810021+9999SA1+0759UG1070203609REMSYN106AAXX  09181 15477 32598 83608 10024 20016 30270 40287 58002 885// 22200 00075 336// 40704 333 10030 92448;EQDQ01  00002PRCP06
0080154770999992000010919004+44080+026630FM-12+003299999V0203601N008010075019N0200001N1+00251+99999999999ADDGF108991081051008001999999REMSYN042AAXX  09191 15477 42598 83608 10025 885//;
0080154770999992000010920004+44080+026630FM-12+003299999V0203601N008010075019N0200001N1+00241+99999999999ADDGF108991081051008001999999REMSYN042AAXX  09201 15477 42598 83608 10024 885//;
0080154770999992000010922004+44080+026630FM-12+003299999V0203601N008010075019N0200001N1+00231+99999999999ADDGF108991081051008001999999REMSYN042AAXX  09221 15477 42598 83608 10023 885//;
0080154770999992000010923004+44080+026630FM-12+003299999V0203601N007010075019N0200001N1+00241+99999999999ADDGF108991081051008001999999REMSYN042AAXX  09231 15477 42598 83607 10024 885//;
0218154770999992000011000004+44080+026630FM-12+003299999V0203601N007010075019N0200001N1+00221+00141102971ADDAA106000091GF108991081051008001999999MA1999999102801MD1210021+9999SA1+0759UG1060203609REMSYN101AAXX  10001 15477 32598 83607 10022 20014 30280 40297 52002 885// 22200 00075 336// 40604 333 924 58;EQDQ01  00002PRCP06
0080154770999992000011001004+44080+026630FM-12+003299999V0203601N008010075019N0200001N1+00201+99999999999ADDGF108991081051008001999999REMSYN042AAXX  10011 15477 42598 83608 10020 885//;
0080154770999992000011002004+44080+026630FM-12+003299999V0203601N007019999999N0200001N1+00201+99999999999ADDGF108991051999008001999999REMSYN042AAXX  10021 15477 42598 83607 10020 85///;
0173154770999992000011003004+44080+026630FM-12+003299999V0203601N008010075019N0200001N1+00201+00041102971ADDAA106000091GF108991081051008001999999MA1999999102801MD1410001+9999REMSYN076AAXX  10031 15477 32598 83608 10020 20004 30280 40297 54000 885// 333 92448;EQDQ01  00002PRCP06
0080154770999992000011005004+44080+026630FM-12+003299999V0203601N009010075019N0200001N1+00201+99999999999ADDGF108991081051008001999999REMSYN042AAXX  10051 15477 42598 83609 10020 885//;
0080154770999992000011017004+44080+026630FM-12+003299999V0203401N005010042019N0100001N1+00181+99999999999ADDGF106991061061004501001001REMSYN042AAXX  10171 15477 42497 63405 10018 86600;
0222154770999992000011018004+44080+026630FM-12+003299999V0203601N006010042019N0100001N1+00101+00101103241ADDAA106000091GF107991071061004501001001KA1120M+00451MA1999999103071MD1210091+9999UG1080103609REMSYN100AAXX  10181 15477 32497 73606 10010 20010 30307 40324 52009 87600 22200 336// 40802 333 10045 92437;EQDQ01  00002PRCP06
0118154770999992000011019004+44080+026630FM-12+003299999V02099999999990001519N0001001N1+00021+99999999999ADDAY121999AY221999GA1091+999999999GF109991091999999999999999MW1451REMSYN042AAXX  10191 15477 41/91 9606/ 10002 74522;
0118154770999992000011020004+44080+026630FM-12+003299999V02099999999990003019N0005001N1-00131+99999999999ADDAY141999AY241999GA1091+999999999GF109991091999999999999999MW1431REMSYN042AAXX  10201 15477 41/93 9106/ 11013 74344;
0207154770999992000011021004+44080+026630FM-12+003299999V0203601N006010042019N0010001N1-00201-00201103341ADDAA106000091AY141031AY221031GF108991081061004501999999MA1999999103171MD1210101+9999MW1281REMSYN088AAXX  10211 15477 32494 83606 11020 21020 30317 40334 52010 72842 886// 333 96010 92434;EQDQ01  00002PRCP06
0108154770999992000011022004+44080+026630FM-12+003299999V0203601N006010042019N0040001N1-00231+99999999999ADDAY121999AY221999GF108991081061004501999999MW1101REMSYN048AAXX  10221 15477 41496 83606 11023 71022 886//;
0245154770999992000011100004+44080+026630FM-12+003299999V0203601N007010042019N0100001N1-00251-00251103351ADDAA106000091AY141061AY221061GF106991061061004501001001MA1999999103181MD1110011+9999MW1011SA1+0739UG1070103609REMSYN106AAXX  11001 15477 31497 63607 11025 21025 30318 40335 51001 70142 86600 222// 00073 336// 40702 333 92437;EQDQ01  00002PRCP06
0080154770999992000011102004+44080+026630FM-12+003299999V0203401N007010042019N0100001N1-00231+99999999999ADDGF106991061061004501999999REMSYN042AAXX  11021 15477 42497 63407 11023 866//;
0173154770999992000011103004+44080+026630FM-12+003299999V0203401N007019999999N0100001N1-00181-00271103351ADDAA106000091GF108991999061004501999999MA1999999103181MD1410001+9999REMSYN076AAXX  11031 15477 32497 83407 11018 21027 30318 40335 54000 8/6// 333 92447;EQDQ01  00002PRCP06
0080154770999992000011105004+44080+026630FM-12+003299999V0203401N007010042019N0100001N1-00171+99999999999ADDGF108991081061004501999999REMSYN042AAXX  11051 15477 42497 83407 11017 886//;
0236154770999992000011106004+44080+026630FM-12+003299999V0203601N008010042019N0100001N1-00101-00251103471ADDAA106000091GF108991081061004501999999KA1120N-00251MA1999999103301MD1310121+9999SA1+0709UG1070103609REMSYN106AAXX  11061 15477 32497 83608 11010 21025 30330 40347 53012 886// 22200 00070 336// 40702 333 21025 92437;EQDQ01  00002PRCP06
0080154770999992000011116004+44080+026630FM-12+003299999V0203601N009010042019N0100001N1+00041+99999999999ADDGF108991081061004501999999REMSYN042AAXX  11161 15477 42497 83609 10004 886//;
0231154770999992000011118004+44080+026630FM-12+003299999V0203601N009010042019N0100001N1-00021-00081103651ADDAA106000091GF108991081061004501999999KA1120N-00251MA1999999103481MD1210061+9999SA1+0679UA1M040159999REMSYN100AAXX  11181 15477 32497 83609 11002 21008 30348 40365 52006 886// 22200 00067 20403 333 21025 92447;EQDQ01  00002PRCP06
0080154770999992000011119004+44080+026630FM-12+003299999V0203601N008010042019N0100001N1-00041+99999999999ADDGF108991081061004501999999REMSYN042AAXX  11191 15477 42497 83608 11004 886//;
0080154770999992000011120004+44080+026630FM-12+003299999V0203601N008010042019N0100001N1-00051+99999999999ADDGF108991081061004501999999REMSYN042AAXX  11201 15477 42497 83608 11005 886//;
0173154770999992000011121004+44080+026630FM-12+003299999V0203601N009010042019N0100001N1+00061-00081103671ADDAA106000091GF108991081061004501999999MA1999999103501MD1210021+9999REMSYN076AAXX  11211 15477 32497 83609 10006 21008 30350 40367 52002 886// 333 92447;EQDQ01  00002PRCP06
0080154770999992000011122004+44080+026630FM-12+003299999V0203601N008010042019N0100001N1+00081+99999999999ADDGF108991081061004501999999REMSYN042AAXX  11221 15477 42497 83608 10008 886//;
0080154770999992000011200004+44080+026630FM-12+003299999V0203601N008010075019N0100001N1+00101+99999999999ADDGF108991081051008001999999REMSYN042AAXX  12001 15477 42597 83608 10010 885//;
0080154770999992000011202004+44080+026630FM-12+003299999V0203601N009010075019N0100001N1+00101+99999999999ADDGF108991081051008001999999REMSYN042AAXX  12021 15477 42597 83609 10010 885//;
0080154770999992000011204004+44080+026630FM-12+003299999V0203601N009019999999N0100001N1+00041+99999999999ADDGF106991999051008001001999REMSYN042AAXX  12041 15477 42597 63609 10004 8/50/;
0210154770999992000011206004+44080+026630FM-12+003299999V0203601N008019999999N0100001N1+00071-00041103651ADDAA106000091GF108991999999008001999999KA1120N-00051MA1999999103481SA1+0659UG1070203609REMSYN094AAXX  12061 15477 32597 83608 10007 21004 30348 40365 22200 00065 336// 40704 333 21005 92447;EQDQ01  00002PRCP06
0080154770999992000011216004+44080+026630FM-12+003299999V02099999999990075019N9999999N1+00121+99999999999ADDGF108991081051008001999999REMSYN042AAXX  12161 15477 4259/ 8607/ 10012 885//;
0231154770999992000011218004+44080+026630FM-12+003299999V0200201N009010075019N0100001N1+00231+00071103671ADDAA106000091GF108991081051008001999999KA1120M+00301MA1999999103501MD1310051+9999SA1+0659UA1M040159999REMSYN100AAXX  12181 15477 32597 80209 10023 20007 30350 40367 53005 885// 22200 00065 20403 333 10030 92447;EQDQ01  00002PRCP06
0080154770999992000011219004+44080+026630FM-12+003299999V0200501N008010075019N0100001N1+00331+99999999999ADDGF108991081051008001999999REMSYN042AAXX  12191 15477 42597 80508 10033 885//;
0080154770999992000011220004+44080+026630FM-12+003299999V0200201N009010075019N0100001N1+00351+99999999999ADDGF108991081051008001999999REMSYN042AAXX  12201 15477 42597 80209 10035 885//;
0080154770999992000011222004+44080+026630FM-12+003299999V0200501N009010075019N0100001N1+00201+99999999999ADDGF108991081051008001999999REMSYN042AAXX  12221 15477 42597 80509 10020 885//;
0212154770999992000011300004+44080+026630FM-12+003299999V0203601N009010075019N0100001N1+99999+99999103571ADDAA106000091GF105991051051008001001001MA1999999103401MD1710101+9999SA1+0659UA1M990209999REMSYN094AAXX  13001 15477 32597 53609 10818 20013 30340 40357 57010 85500 22200 00065 2/504 333 92447;EQDQ01  00002PRCP06
0090154770999992000011301004+44080+026630FM-12+003299999V0203601N009012200019N0100001N1+00151+99999999999ADDGA1001+999999999GF100991001001999999001001REMSYN036AAXX  13011 15477 42997 03609 10015;
0090154770999992000011302004+44080+026630FM-12+003299999V0203601N013012200019N0100001N1+00121+99999999999ADDGA1001+999999999GF100991001001999999001001REMSYN036AAXX  13021 15477 42997 03613 10012;
0225154770999992000011306004+44080+026630FM-12+003299999V0203601N012010042019N0100001N1+00061+99999103591ADDAA106000091GF108991081061004501999999KA1120N+00001MA1999999103421MD1410001+9999SA1+0659UA1M050209999REMSYN094AAXX  13061 15477 32497 83612 10006 30342 40359 54000 886// 22200 00065 20504 333 20000 92447;EQDQ01  00002PRCP06
0080154770999992000011307004+44080+026630FM-12+003299999V0203601N011010042019N0100001N1+00081+99999999999ADDGF108991081061004501999999REMSYN042AAXX  13071 15477 42497 83611 10008 886//;
0241154770999992000011318004+44080+026630FM-12+003299999V0200901N010010042019N0100001N1+00441+00021103471ADDAA106000091GF108991081061004501999999MA1999999103301MD1210051+9999SA1+0659UA1M020059999UG1060153609REMSYN111AAXX  13181 15477 32497 80910 10044 20002 30330 40347 52005 886// 22200 00065 20201 336//40603 333 18044 92447;EQDQ01  00002PRCP06
0084154770999992000011319004+44080+026630FM-12+003299999V02099999999990042019N0100001N1+00451+99999999999ADDGF108991081061004501999999REMSYN046    AAXX  13191 15477 4/497 8//// 10045 886//;
0177154770999992000011321004+44080+026630FM-12+003299999V0200901N011010075019N0100001N1+00451+00001103701ADDAA199000091GF105991051051008001001001MA1999999103301MD1410001+9999REMSYN080    AAXX  13211 15477 32597 50911 10045 20000 30330 4037/ 54000 85500 333 92447;EQDQ01  00002PRCP99
0072154770999992000011322004+44080+026630FM-12+003299999V0200901N010019999999N0100001N1+99999+99999999999ADDGF105991999999008001999999REMSYN034    AAXX  13221 15477 42597 50910;
0084154770999992000011416004+44080+026630FM-12+003299999V0201401N010010075019N0100001N1+00461+99999999999ADDGF108991081051008001999999REMSYN046    AAXX  14161 15477 42597 81410 10046 885//;
0235154770999992000011418004+44080+026630FM-12+003299999V0201401N010010075019N0100001N1+00481+00461103291ADDAA199000091GF108991081051008001999999KA1120M+00561MA1999999103121MD1410001+9999SA1+0649UA1M049999999REMSYN104    AAXX  14181 15477 32597 81410 10048 20046 30312 40329 54000 885// 22200 00064 2040/ 333 10056 92447;EQDQ01  00002PRCP99
0084154770999992000011419004+44080+026630FM-12+003299999V0201401N011010075019N0100001N1+00501+99999999999ADDGF108991081051008001999999REMSYN046    AAXX  14191 15477 42597 81411 10050 885//;
0084154770999992000011422004+44080+026630FM-12+003299999V0202001N007010075019N0100001N1+00541+99999999999ADDGF105991051051008001001001REMSYN046    AAXX  14221 15477 42597 52007 10054 85500;
0215154770999992000011500004+44080+026630FM-12+003299999V0201601N006010075019N0100001N1+00561+00371103271ADDAA199000091GF105991051051008001001001MA1999999103101MD1810051+9999SA1+0659UG1070209999REMSYN098    AAXX  15001 15477 32597 51606 10056 20037 30310 40327 58005 85500 22200 00065 40704 333 92447;EQDQ01  00002PRCP99
0084154770999992000011501004+44080+026630FM-12+003299999V0201601N003010075019N0100001N1+00501+99999999999ADDGF106991061051008001001001REMSYN046    AAXX  15011 15477 /2597 61603 1005/ 86500;
0084154770999992000011502004+44080+026630FM-12+003299999V0201601N004010075019N0100001N1+00531+99999999999ADDGF108991081051008001999999REMSYN046    AAXX  15021 15477 42597 81604 10053 885//;
0177154770999992000011503004+44080+026630FM-12+003299999V0201601N006010075019N0100001N1+00521+00381103171ADDAA199000091GF105991051051008001001001MA1999999103001MD1710101+9999REMSYN080    AAXX  15031 15477 32597 51606 10052 20038 30300 40317 57010 85500 333 92447;EQDQ01  00002PRCP99
0084154770999992000011504004+44080+026630FM-12+003299999V0201601N005010075019N0100001N1+00501+99999999999ADDGF105991051051008001001001REMSYN046    AAXX  15041 15477 42597 51605 10050 85500;
0084154770999992000011505004+44080+026630FM-12+003299999V0201601N006010075019N0100001N1+00501+99999999999ADDGF106991061051008001001001REMSYN046    AAXX  15051 15477 42597 61606 10050 86500;
0086154770999992000011517004+44080+026630FM-12+003299999V0202901N005019999999N0200001N1+00151+99999999999ADDAY141999AY221999MW1281REMSYN052    AAXX  15171 15477 42598 /2905 10015 72842 885//;
0084154770999992000011519004+44080+026630FM-12+003299999V0202701N006010075019N0100001N1+00181+99999999999ADDGF108991081051008001999999REMSYN046    AAXX  15191 15477 42597 82706 10018 885//;
0084154770999992000011522004+44080+026630FM-12+003299999V0202901N007010075019N0100001N1+00051+99999999999ADDGF108991081051008001999999REMSYN046    AAXX  15221 15477 42597 82907 10005 885//;
0084154770999992000011523004+44080+026630FM-12+003299999V0202701N008010075019N0100001N1+00051+99999999999ADDGF108991081051008001999999REMSYN046    AAXX  15231 15477 42597 82708 10005 885//;
0216154770999992000011600004+44080+026630FM-12+003299999V0202901N008010075019N0100001N1-00031-00031102671ADDAA199000091GF108991081051008001999999MA1999999102501MD1710081+9999SA1+0629UA1M039999999REMSYN098    AAXX  16001 15477 32597 82908 11003 21003 30250 40267 57008 885// 22200 00062 2030/ 333 92437;EQDQ01  00002PRCP99
0177154770999992000011603004+44080+026630FM-12+003299999V0202901N008010075019N0100001N1-00151-00151102601ADDAA199000091GF108991081051008001999999MA1999999102431MD1710071+9999REMSYN080    AAXX  16031 15477 32597 82908 11015 21015 30243 40260 57007 885// 333 92447;EQDQ01  00002PRCP99
0084154770999992000011604004+44080+026630FM-12+003299999V0202901N008010075019N0100001N1-00181+99999999999ADDGF108991081051008001999999REMSYN046    AAXX  16041 15477 42597 82908 11018 885//;
0279154770999992000011618004+44080+026630FM-12+003299999V0203201N006010042019N0020001N1-00021-00111102671ADDAA199000091AY141061AY221061GF108991081061004501999999KA1120M+99999MA1999999102501MD1210051+9999MW1101SA1+0609UA1M030059999REMSYN110    AAXX  16181 15477 31495 83206 11002 21011 30250 40267 52005 71042 886// 22200 00060 20301 333 11035 92435;EQDQ01  00002PRCP99Q02 -00352ATMX  
0104154770999992000011619004+44080+026630FM-12+003299999V0203201N007010042019N0020001N1-00031+99999999999ADDAY121999GF108991081061004501999999MW1101REMSYN052    AAXX  16191 15477 41495 83207 11003 7102/ 886//;
0112154770999992000011620004+44080+026630FM-12+003299999V0203201N008010042019N0020001N1-00051+99999999999ADDAY121999AY221999GF108991081061004501999999MW1101REMSYN052    AAXX  16201 15477 41495 83208 11005 71022 886//;
0177154770999992000011621004+44080+026630FM-12+003299999V0203601N007010042019N0100001N1+00021-00041102571ADDAA199000091GF108991081061004501999999MA1999999102401MD1810101+9999REMSYN080    AAXX  16211 15477 32497 83607 10002 21004 30240 40257 58010 886// 333 92437;EQDQ01  00002PRCP99
0078154770999992000011622004+44080+026630FM-12+003299999V0203601N005010042019N0100001N1+99999+99999999999ADDGF108991081061004501999999REMSYN040    AAXX  16221 15477 42497 83605 886//;
0084154770999992000011623004+44080+026630FM-12+003299999V0203601N006010042019N0100001N1+00101+99999999999ADDGF108991081061004501999999REMSYN046    AAXX  16231 15477 42497 83606 10010 886//;
0177154770999992000011700004+44080+026630FM-12+003299999V0203601N005010042019N0100001N1+00081+00031102371ADDAA199000091GF108991081061004501999999MA1999999102201MD1710201+9999REMSYN080    AAXX  17001 15477 32497 83605 10008 20003 30220 40237 57020 886// 333 92437;EQDQ01  00002PRCP99
0084154770999992000011701004+44080+026630FM-12+003299999V0203601N006010042019N0100001N1+00101+99999999999ADDGF108991081061004501999999REMSYN046    AAXX  17011 15477 42497 83606 10010 886//;
0084154770999992000011702004+44080+026630FM-12+003299999V0203601N005010042019N0100001N1+00101+99999999999ADDGF108991081061004501999999REMSYN046    AAXX  17021 15477 42497 83605 10010 886//;
0177154770999992000011703004+44080+026630FM-12+003299999V0203601N004010042019N0100001N1+00071-00011102091ADDAA199000091GF108991081061004501999999MA1999999101921MD1710281+9999REMSYN080    AAXX  17031 15477 32497 83604 10007 21001 30192 40209 57028 886// 333 92437;EQDQ01  00002PRCP99
0084154770999992000011704004+44080+026630FM-12+003299999V0203401N005010042019N0100001N1+00071+99999999999ADDGF108991081061004501999999REMSYN046    AAXX  17041 15477 42497 83405 10007 886//;
0084154770999992000011705004+44080+026630FM-12+003299999V0203401N005010042019N0100001N1+00101+99999999999ADDGF108991081061004501999999REMSYN046    AAXX  17051 15477 42497 83405 10010 886//;
0239154770999992000011718004+44080+026630FM-12+003299999V0202701N020019999999N0100001N1-00061-00271100071ADDAA199000021GF108991999999008001999999KA1120M+00001MA1999999099901MD1710401+9999MW1851OA149902501SA1+0589UA1M070609999REMSYN110    AAXX  17181 15477 32597 82720 11006 21027 39990 40007 57040 785// 22200 00058 20712 333 10000 91125 92467;
0094154770999992000011720004+44080+026630FM-12+003299999V0202501N020010075019N0100001N1-00101+99999999999ADDGF108991081051008001999999REMSYN056    AAXX  17201 15477 42597 82520 11010 885// 333 92477;
0122154770999992000011722004+44080+026630FM-12+003299999V0202501N018010042019N0100001N1-00121+99999999999ADDAY171999AY271999GF108991061071004501021999MW1771REMSYN062    AAXX  17221 15477 41497 82518 11012 77777 8672/ 333 91123;
0082154770999992000011723004+44080+026630FM-12+003299999V0202501N018019999999N0100001N1+99999+99999999999ADDGF108991999999004501999999REMSYN044    AAXX  17231 15477 41497 82518 333 91123;
0233154770999992000011800004+44080+026630FM-12+003299999V0202701N016010042019N0100001N1-00041-00131099331ADDAA103000391AY171061AY271061GF108991061071004501021999MA1999999099151MD1710401+9999MW1771OA149902101REMSYN122    AAXX  18001 15477 /1497 82716 11004 21013 39915 49933 57040 69951 77777 8672/ 22200 00055 20713 333 69937 91121 92477;
0122154770999992000011801004+44080+026630FM-12+003299999V0202701N016010042019N0100001N1-00021+99999999999ADDAY171999AY271999GF108991061071004501021999MW1771REMSYN062    AAXX  18011 15477 41497 82716 11002 77777 8672/ 333 91121;
0122154770999992000011802004+44080+026630FM-12+003299999V0202701N017010042019N0100001N1-00021+99999999999ADDAY171999AY271999GF108991061071004501021999MW1771REMSYN062    AAXX  18021 15477 41497 82717 11002 77777 8672/ 333 91122;
0209154770999992000011803004+44080+026630FM-12+003299999V0202701N016010042019N0100001N1-00021-00111099101ADDAA103000391AY171031AY221031GF108991061071004501021999MA1999999098921MD1710231+9999MW1221OA149902101REMSYN098    AAXX  18031 15477 21497 82716 11002 21011 39892 49910 57023 72272 8672/ 333 69937 91121 92477;
0112154770999992000011804004+44080+026630FM-12+003299999V0202701N014010042019N0100001N1-00021+99999999999ADDAY171999AY221999GF108991061071004501021999MW1021REMSYN052    AAXX  18041 15477 41497 82714 11002 70272 8672/;
0202154770999992000011818004+44080+026630FM-12+003299999V0202901N014010075019N0100001N1+00261-00201099401ADDAA199000091GF105991051051008001001001MA1999999099221MD1210221+9999UA1M050259999REMSYN092    AAXX  18181 15477 32597 52914 10026 21020 39922 49940 52022 85500 22200 0055/ 20505 333;EQDQ01  00002PRCP99
0157154770999992000011821004+44080+026630FM-12+003299999V0203201N011012200019N0100001N1+00261-00201099581ADDAA199000091GA1001+999999999GF100991001001999999001001MA1999999099401REMSYN058    AAXX  18211 15477 32997 03211 10026 21020 39940 49958;EQDQ01  00002PRCP99
0094154770999992000011822004+44080+026630FM-12+003299999V0203201N010012200019N0100001N1+00281+99999999999ADDGA1001+999999999GF100991001001999999001001REMSYN040    AAXX  18221 15477 42997 03210 10028;
0049154770999992000011823004+44080+026630FM-12+003299999V0203201N010019999999N0100001N1+00261+99999999999REMSYN040    AAXX  18231 15477 /2/97 /3210 10026;
0094154770999992000011901004+44080+026630FM-12+003299999V0203201N011012200019N0100001N1+00221+99999999999ADDGA1001+999999999GF100991001001999999001001REMSYN040    AAXX  19011 15477 42997 03211 10022;
0145154770999992000011903004+44080+026630FM-12+003299999V0209999C010019999999N0100001N1+00241-00221099881ADDAA199000091MA1999999099701MD1210101+9999REMSYN074    AAXX  19031 15477 32997 /0010 10024 21022 39970 49988 52010 333 92447;EQDQ01  00002PRCP99
0094154770999992000011905004+44080+026630FM-12+003299999V0202701N012012200019N0100001N1+00221+99999999999ADDGA1001+999999999GF100991001001999999001001REMSYN040    AAXX  19051 15477 42997 02712 10022;
0245154770999992000011906004+44080+026630FM-12+003299999V0202501N010012200019N0100001N1+99999+99999099971ADDAA199000091GA1001+999999999GF100991001001999999001001KA1120N+00181MA1999999099801MD1210101+9999SA1+0559UA1M040209999REMSYN098    AAXX  19061 15477 32997 02510 10/18 21019 39980 49997 52010 22200 00055 20404 333 20018 92447;EQDQ01  00002PRCP99
0177154770999992000011915004+44080+026630FM-12+003299999V0203401N005010075019N0100001N1+00161+99999100471ADDAA199000091GF105991051051008001001001MA1999999100301MD1210221+9999REMSYN080    AAXX  19151 15477 32597 53405 10016 20022 30030 40047 52022 85500 333 92447;EQDQ01  00002PRCP99
0080154770999992000011916004+44080+026630FM-12+003299999V0203401N005010075019N0100001N1+00181+99999999999ADDGF105991051051008001001001REMSYN042AAXX  19161 15477 42597 53405 10018 85500;
0231154770999992000011918004+44080+026630FM-12+003299999V0203201N012010075019N0100001N1+00061-00401100621ADDAA199000091GF106991061051008001001001KA1120M+00201MA1999999100451MD1210151+9999SA1+0559UA1M040209999REMSYN100AAXX  19181 15477 32597 63212 10006 21040 30045 40062 52015 86500 22200 00055 20404 333 10020 92447;EQDQ01  00002PRCP99
0068154770999992000011919004+44080+026630FM-12+003299999V02099999999999999999N9999999N1+99999+99999999999ADDGF107991999999008001999999REMSYN030AAXX  19191 15477 4252/ 7/227;
0162154770999992000011921004+44080+026630FM-12+003299999V0203401N014012200019N0100001N1+00081-00371999999ADDAA199000091GA1001+999999999GF100991001001999999001001MD1210221+9999REMSYN064AAXX  19211 15477 32997 03414 10008 21037 38/85 52022 333 92457;EQDQ01  00002PRCP99
0116154770999992000012015004+44080+026630FM-12+003299999V0203201N015012200019N0100001N1-00201+99999999999ADDAA199000091GF104991999999008001999999REMSYN048AAXX  20151 15477 32597 43215 11020 219// 92467;EQDQ01  00002PRCP99
0080154770999992000012016004+44080+026630FM-12+003299999V0203201N013012200019N0100001N1-00151+99999999999ADDGF104991041051008001001001REMSYN042AAXX  20161 15477 42597 43213 11015 84500;
0080154770999992000012017004+44080+026630FM-12+003299999V02099999999992200019N0100001N1-00131+99999999999ADDGF104991041051008001051001REMSYN042AAXX  20171 15477 42597 4//14 11013 84550;
0208154770999992000012018004+44080+026630FM-12+003299999V0202701N014012200019N0100001N1+99999+99999999999ADDAA199000091GA1001+999999999GF100991001001999999001001KA1120M-00051MD1810031+9999SA1+0509UA1M050309999REMSYN076AAXX  20181 15477 32997 02714 2272/ 58003 22200 00050 20506 333 11005 92457;EQDQ01  00002PRCP99
0237154770999992000012106004+44080+026630FM-12+003299999V0202501N021012200019N0100001N1-00061-00371100681ADDAA199000091GA1001+999999999GF100991001001999999001001KA1120N-00121MA1999999100501MD1710301+9999OA149902601REMSYN100AAXX  21061 15477 32997 02521 11006 21037 30050 40068 57030 22200 00050 20712 333 21012 91126 92467;EQDQ01  00002PRCP99
0100154770999992000012107004+44080+026630FM-12+003299999V02099999999992200019N0100001N1+99999+99999999999ADDGA1001+999999999GF100991001001999999001001REMSYN046AAXX  21071 15477 42997 025// 1//// 333 91125;
0190154770999992000012115004+44080+026630FM-12+003299999V0202501N020010360019N0100001N1+00301-00091099831ADDAA199000091GF108991031051008001071999MA1999999099651MD1710251+9999OA149902501REMSYN082AAXX  21151 15477 32597 82520 10030 21009 39965 49983 57025 8357/ 333 91125 92477;EQDQ01  00002PRCP99
0090154770999992000012116004+44080+026630FM-12+003299999V0202501N022010360019N0100001N1+00291+99999999999ADDGF108991031051008001071999REMSYN052AAXX  21161 15477 42597 82522 10029 8357/ 333 91127;
0221154770999992000012118004+44080+026630FM-12+003299999V0202501N024010360019N0100001N1+00321+99999099661ADDAA199000091GF108991041051008001071999KA1120M+00321MA1999999099481MD1710171+9999OA149903001REMSYN100AAXX  21181 15477 32597 82524 10032 39948 49966 57017 8457/ 22200 00050 20816 333 10032 91130 92477;EQDQ01  00002PRCP99
0080154770999992000012204004+44080+026630FM-12+003299999V0203401N013010075019N0100001N1-00181+99999999999ADDGF106991061051008001001001REMSYN042AAXX  22041 15477 42597 63413 11018 86500;
0080154770999992000012207004+44080+026630FM-12+003299999V0203401N014010075019N0100001N1-00361+99999999999ADDGF106991061051008001001001REMSYN042AAXX  22071 15477 42597 63414 11036 86500;
0079154770999992000012216004+44080+026630FM-12+003299999V0202701N009019999999N0100001N1-00201+99999999999ADDGF106991999999008001999999REMSYN041AAXX  22161 15477 42597 62709 11020 8500;
0080154770999992000012217004+44080+026630FM-12+003299999V0202701N008010075019N0100001N1-00231+99999999999ADDGF106991061051008001001001REMSYN042AAXX  22171 15477 42597 62708 11023 86500;
0231154770999992000012218004+44080+026630FM-12+003299999V0202701N008012200019N0100001N1-00171-00611101901ADDAA199000091GF104991041051008001001001KA1120M-00171MA1999999101721MD1210121+9999SA1+0509UA1M039999999REMSYN100AAXX  22181 15477 32597 42708 11017 21061 30172 40190 52012 84500 22200 00050 2030/ 333 11017 92447;EQDQ01  00002PRCP99
0080154770999992000012219004+44080+026630FM-12+003299999V0202501N008012200019N0100001N1-00151+99999999999ADDGF104991041051008001001001REMSYN042AAXX  22191 15477 42597 42508 11015 84500;
0080154770999992000012220004+44080+026630FM-12+003299999V0203401N009010075019N0100001N1-00221+99999999999ADDGF105991051051008001001001REMSYN042AAXX  22201 15477 42597 53409 11022 85500;
0183154770999992000012221004+44080+026630FM-12+003299999V0203401N008012200019N0100001N1-00261-00571102031ADDAA199000091GA1001+999999999GF100991001001999999001001MA1999999101851MD1210131+9999REMSYN070AAXX  22211 15477 32997 03408 11026 21057 30185 40203 52013 333 92447;EQDQ01  00002PRCP99
0090154770999992000012222004+44080+026630FM-12+003299999V0203401N008012200019N0100001N1-00281+99999999999ADDGA1001+999999999GF100991001001999999001001REMSYN036AAXX  22221 15477 42997 03408 11028;
0045154770999992000012223004+44080+026630FM-12+003299999V0203401N008019999999N0100001N1-00301+99999999999REMSYN036AAXX  22231 15477 42997 /3408 11030;
0090154770999992000012301004+44080+026630FM-12+003299999V0203401N006012200019N0100001N1-00251+99999999999ADDGA1001+999999999GF100991001001999999001001REMSYN036AAXX  23011 15477 42997 03406 11025;
0090154770999992000012302004+44080+026630FM-12+003299999V0203401N005012200019N0100001N1-00231+99999999999ADDGA1001+999999999GF100991001001999999001001REMSYN036AAXX  23021 15477 42997 03405 11023;
0183154770999992000012303004+44080+026630FM-12+003299999V0203201N003012200019N0100001N1-00221-00641101981ADDAA199000091GA1001+999999999GF100991001001999999001001MA1999999101801MD1810101+9999REMSYN070AAXX  23031 15477 32997 03203 11022 21064 30180 40198 58010 333 92437;EQDQ01  00002PRCP99
0241154770999992000012306004+44080+026630FM-12+003299999V0202001N005012200019N0100001N1-00081-00501101961ADDAA199000091GA1001+999999999GF100991001001999999001001KA1120N-00301MA1999999101781MD1710021+9999SA1+0509UA1M020059999REMSYN094AAXX  23061 15477 32997 02005 11008 21050 30178 40196 57002 22200 00050 20201 333 21030 92427;EQDQ01  00002PRCP99
0090154770999992000012307004+44080+026630FM-12+003299999V0202001N005012200019N0100001N1-00061+99999999999ADDGA1001+999999999GF100991001001999999001001REMSYN036AAXX  23071 15477 42997 02005 11006;
0173154770999992000012315004+44080+026630FM-12+003299999V0201801N009010075019N0100001N1+00301-00081101511ADDAA199000091GF108991081051008001999999MA1999999101331MD1710121+9999REMSYN076AAXX  23151 15477 32597 81809 10030 21008 30133 40151 57012 885// 333 92447;EQDQ01  00002PRCP99
0068154770999992000012317004+44080+026630FM-12+003299999V0201601N014019999999N0100001N1+99999+99999999999ADDGF108991999999008001999999REMSYN030AAXX  23171 15477 42597 81614;
0231154770999992000012318004+44080+026630FM-12+003299999V0201401N014010075019N0100001N1+00341-00011101361ADDAA199000091GF108991081051008001999999KA1120M+00341MA1999999101181MD1710151+9999SA1+0509UA1M049999999REMSYN100AAXX  23181 15477 32597 81414 10034 21001 30118 40136 57015 885// 22200 00050 2040/ 333 10034 92457;EQDQ01  00002PRCP99
0118154770999992000012319004+44080+026630FM-12+003299999V0201401N016010042019N0100001N1+00291+99999999999ADDAY121011AY221011GF108991061071004501021999MW1711REMSYN058AAXX  23191 15477 41497 81416 10029 77122 8672/ 333 91121;
0118154770999992000012320004+44080+026630FM-12+003299999V0201401N016010042019N0100001N1+00181+99999999999ADDAY171999AY271999GF108991061071004501021999MW1711REMSYN058AAXX  23201 15477 41497 81416 10018 77177 8672/ 333 91121;
0205154770999992000012321004+44080+026630FM-12+003299999V0201401N016010042019N0100001N1+00101+00101101161ADDAA103000791AY121031AY221031GF108991061071004501021999MA1999999100981MD1710201+9999MW1711OA149902101REMSYN094AAXX  23211 15477 21497 81416 10010 20010 30098 40116 57020 77122 8672/ 333 69977 91121 92457;
0118154770999992000012322004+44080+026630FM-12+003299999V0201401N017010042019N0100001N1+00081+99999999999ADDAY171999AY271999GF108991061071004501021999MW1711REMSYN058AAXX  23221 15477 41497 81417 10008 77177 8672/ 333 91122;
0118154770999992000012323004+44080+026630FM-12+003299999V0201401N016010042019N0100001N1+00061+99999999999ADDAY171999AY271999GF108991061071004501021999MW1711REMSYN058AAXX  23231 15477 41497 81416 10006 77177 8672/ 333 91121;
0250154770999992000012400004+44080+026630FM-12+003299999V0201401N016010042019N0100001N1+00121+00121100881ADDAA103001091AY121061AY221061GF108991061071004501021999MA1999999100701MD1710281+9999MW1711OA149902101SA1+0509UA1M060459999REMSYN118AAXX  24001 15477 /1497 81416 10012 20012 30070 40088 57028 60021 77122 8672/ 222// 00050 20609 333 60017 91121 92467;
0118154770999992000012401004+44080+026630FM-12+003299999V0201401N017010042019N0100001N1+00181+99999999999ADDAY171011AY271011GF108991061071004501021999MW1711REMSYN058AAXX  24011 15477 41497 81417 10018 77177 8672/ 333 91122;
0118154770999992000012402004+44080+026630FM-12+003299999V0201401N016010042019N0100001N1+00231+99999999999ADDAY171999AY271999GF108991061071004501021999MW1611REMSYN058AAXX  24021 15477 /1497 81416 10023 76177 8672/ 333 91121;
0118154770999992000012405004+44080+026630FM-12+003299999V0201401N016010042019N0100001N1+00351+99999999999ADDAY161999AY261999GF108991061071004501021999MW1611REMSYN058AAXX  24051 15477 41497 81416 10035 76166 8672/ 333 91121;
0283154770999992000012406004+44080+026630FM-12+003299999V0201401N016010042019N0100001N1+00501+00501100002ADDAA103002091AY171061AY271061GF108991061071004501021999KA1120N+00051MA1999999099822MD1710481+9999MW1611OA149902801REMSYN124AAXX  24061 15477 /1497 81416 10050 20050 39982 40000 57048 60042 76177 8672/ 2220/ 00050 20709 333 20005 60027 91128 92467;EQDQ01+099823APOSP Q02+100003APOSLP
0112154770999992000012416004+44080+026630FM-12+003299999V02099999999990042019N0002001N1+99999+99999999999ADDAY171999AY221999GF107991061071004501021999MW1221REMSYN052AAXX  24161 15477 41492 7/08/ 72272 8672/ 333 91134;
0090154770999992000012417004+44080+026630FM-12+003299999V02099999999990042019N0100001N1-01401+99999999999ADDGF108991061071004501021999REMSYN052AAXX  24171 15477 42497 832// 11140 8672/ 333 91128;
0248154770999992000012418004+44080+026630FM-12+003299999V0203201N021010042019N0100001N1-00382-00481100581ADDAA103000291AY171061AY221061GF108991061071004501021999KA1120M+00601MA1999999100401MD1210401+9999MW1021OA149902601REMSYN124AAXX  24181 15477 /1497 83221 11038 21048 30040 40058 52040 60052 70272 8672/ 22200 00050 20513 333 10060 69927 91126 92477;
0090154770999992000012419004+44080+026630FM-12+003299999V0203401N018010042019N0100001N1-00401+99999999999ADDGF108991061071004501021999REMSYN052AAXX  24191 15477 42497 83418 11040 8672/ 333 91123;
0090154770999992000012420004+44080+026630FM-12+003299999V0203401N018010042019N0100001N1-00421+99999999999ADDGF108991061071004501021999REMSYN052AAXX  24201 15477 42497 83418 11042 8672/ 333 91123;
0171154770999992000012421004+44080+026630FM-12+003299999V0203401N017010042019N0100001N1-00451-00561100881ADDAA199000021GF108991061071004501021999MA1999999100701MD1210301+9999OA149902201REMSYN082AAXX  24211 15477 32497 83417 11045 21056 30070 40088 52030 8672/ 333 91122 92477;
0090154770999992000012423004+44080+026630FM-12+003299999V0203401N016010075019N0100001N1-00501+99999999999ADDGF108991081051008001999999REMSYN052AAXX  24231 15477 42597 83416 11050 885// 333 91121;
0189154770999992000012500004+44080+026630FM-12+003299999V0203401N016010075019N0100001N1-00541-00651101231ADDAA199000021GF108991081051008001999999MA1999999101051MD1210351+9999OA149902101REMSYN100AAXX  25001 15477 32597 83416 11054 21065 30105 40123 52035 885// 22200 00050 2060/ 333 91121 92467;
0084154770999992000012501004+44080+026630FM-12+003299999V0203401N016019999999N0100001N1-00501+99999999999ADDGF108991999999008001999999REMSYN046AAXX  25011 15477 42597 83416 1105/ 333 91121;
0080154770999992000012502004+44080+026630FM-12+003299999V0203401N013010075019N0100001N1-00601+99999999999ADDGF108991081051008001999999REMSYN042AAXX  25021 15477 42597 83413 11060 885//;
0154154770999992000012503004+44080+026630FM-12+003299999V0203401N014010075019N0100001N1-00681-00801101481ADDAA199000021GF108991081051008001999999MA1999999101301MD1210251+9999REMSYN076AAXX  25031 15477 32597 83414 11068 21080 30130 40148 52025 885// 333 92467;
0080154770999992000012504004+44080+026630FM-12+003299999V0203401N013010075019N0100001N1-00721+99999999999ADDGF108991081051008001999999REMSYN042AAXX  25041 15477 42597 83413 11072 885//;
0080154770999992000012505004+44080+026630FM-12+003299999V0203401N014010075019N0100001N1-00751+99999999999ADDGF108991081051008001999999REMSYN042AAXX  25051 15477 42597 83414 11075 885//;
0231154770999992000012506004+44080+026630FM-12+003299999V0203401N014010075019N0100001N1-00721-00801101781ADDAA199000091GF108991081051008001999999KA1120N-00751MA1999999101601MD1210301+9999SA1+0489UA1M069999999REMSYN100AAXX  25061 15477 32597 83414 11072 21080 30160 40178 52030 885// 22200 00048 2060/ 333 21075 92457;EQDQ01  00002PRCP99
0080154770999992000012507004+44080+026630FM-12+003299999V0203401N014010075019N0100001N1-00701+99999999999ADDGF108991081051008001999999REMSYN042AAXX  25071 15477 42597 83414 11070 885//;
0173154770999992000012515004+44080+026630FM-12+003299999V0203401N010012200019N0100001N1-00551-01001102381ADDAA199000091GF104991041051008001001001MA1999999102201MD1210201+9999REMSYN076AAXX  25151 15477 32597 43410 11055 21100 30220 40238 52020 84500 333 92447;EQDQ01  00002PRCP99
0080154770999992000012516004+44080+026630FM-12+003299999V0203401N009012200019N0100001N1-00561+99999999999ADDGF104991041051008001001001REMSYN042AAXX  25161 15477 42597 43409 11056 84500;
0080154770999992000012517004+44080+026630FM-12+003299999V0203401N009012200019N0100001N1-00601+99999999999ADDGF104991041051008001001001REMSYN042AAXX  25171 15477 42597 43409 11060 84500;
0183154770999992000012615004+44080+026630FM-12+003299999V0202701N010012200019N0100001N1-00501-00811102181ADDAA199000091GA1001+999999999GF100991001001999999001001MA1999999102001MD1710051+9999REMSYN070AAXX  26151 15477 32997 02710 11050 21081 30200 40218 57005 333 92457;EQDQ01  00002PRCP99
0080154770999992000012616004+44080+026630FM-12+003299999V0202901N010012200019N0100001N1-00431+99999999999ADDGF104991021051008001031001REMSYN042AAXX  26161 15477 42597 42910 11043 82530;
0080154770999992000012617004+44080+026630FM-12+003299999V0202901N010012200019N0100001N1-00411+99999999999ADDGF104991041051008001001001REMSYN042AAXX  26171 15477 42597 42910 11041 84500;
0257154770999992000012618004+44080+026630FM-12+003299999V0202701N010012200019N0100001N1-00361-00501102281ADDAA199000091GA1001+999999999GF100991001001999999001001KA1120M-00361MA1999999102101MD1310101+9999SA1+0469UA1M040209999REMSYN094AAXX  26181 15477 32997 02710 11036 21050 30210 40228 5300/ 22200 00046 20404 333 11036 92447;EQDQ01+000002APC3  Q02  00002PRCP99
0090154770999992000012620004+44080+026630FM-12+003299999V0202701N009012200019N0100001N1-00371+99999999999ADDGA1001+999999999GF100991001001999999001001REMSYN036AAXX  26201 15477 42997 02709 11037;
0183154770999992000012621004+44080+026630FM-12+003299999V0202901N008012200019N0100001N1-00301-00401102231ADDAA199000091GA1001+999999999GF100991001001999999001001MA1999999102051MD1810051+9999REMSYN070AAXX  26211 15477 32997 02908 11030 21040 30205 40223 58005 333 92447;EQDQ01  00002PRCP99
0090154770999992000012622004+44080+026630FM-12+003299999V0202901N008012200019N0100001N1-00261+99999999999ADDGA1001+999999999GF100991001001999999001001REMSYN036AAXX  26221 15477 42997 02908 11026;
0090154770999992000012623004+44080+026630FM-12+003299999V0202901N008012200019N0100001N1-00241+99999999999ADDGA1001+999999999GF100991001001999999001001REMSYN036AAXX  26231 15477 42997 02908 11024;
0080154770999992000012701004+44080+026630FM-12+003299999V0202701N009019999999N0100001N1-00221+99999999999ADDGF107991071001999999071001REMSYN042AAXX  27011 15477 42997 72709 11022 87070;
0099154770999992000012702004+44080+026630FM-12+003299999V02099999999992200019N9999999N1-00231+99999999999ADDGF104991999001999999071001REMSYN042AAXX  27021 15477 4//// 4//// 11023 86070;EQDQ01+000062SCOTLC
0074154770999992000012704004+44080+026630FM-12+003299999V0202701N009019999999N0100001N1-00161+99999999999ADDGF106991999999999999999999REMSYN036AAXX  27041 15477 42997 62709 11016;
0080154770999992000012705004+44080+026630FM-12+003299999V0202701N009019999999N0100001N1-00151+99999999999ADDGF106991061001999999071001REMSYN042AAXX  27051 15477 42997 62709 11015 86070;
0231154770999992000012706004+44080+026630FM-12+003299999V0202701N009019999999N0100001N1-00131-00251102181ADDAA199000091GF107991071001999999071001KA1120N-00371MA1999999102001MD1810021+9999SA1+0509UA1M050159999REMSYN100AAXX  27061 15477 32997 72709 11013 21025 30200 40218 58002 87070 22200 00050 20503 333 21037 92447;EQDQ01  00002PRCP99
0212154770999992000012712004+44080+026630FM-12+003299999V0202701N011019999999N0100001N1-00101-00221102181ADDAA199000091GF108991081001999999071999MA1999999102001MD1810081+9999SA1+0509UA1M050259999REMSYN094AAXX  27121 15477 32997 82711 11010 21022 30200 40218 58008 8807/ 22200 00050 20505 333 92447;EQDQ01  00002PRCP99
0074154770999992000012713004+44080+026630FM-12+003299999V0202701N011019999999N0100001N1+99999+99999999999ADDGF108991999999999999999999REMSYN036AAXX  27131 15477 42997 82711 12//4;
0080154770999992000012714004+44080+026630FM-12+003299999V0202701N010019999999N0100001N1-00101+99999999999ADDGF108991081001999999071999REMSYN042AAXX  27141 15477 42960 82710 11010 8807/;
0173154770999992000012715004+44080+026630FM-12+003299999V0202701N010019999999N0100001N1-00051-00181102161ADDAA199000091GF108991081001999999071999MA1999999101981MD1710021+9999REMSYN076AAXX  27151 15477 32997 82710 11005 21018 30198 40216 57002 8807/ 333 92447;EQDQ01  00002PRCP99
0080154770999992000012717004+44080+026630FM-12+003299999V0202701N011019999999N0100001N1-00011+99999999999ADDGF108991081001999999071999REMSYN042AAXX  27171 15477 42997 82711 11001 8807/;
0153154770999992000012721004+44080+026630FM-12+003299999V0202701N011019999999N0100001N1+00121-00011102271ADDAA199000091GF108991081001999999071999MA1999999102091REMSYN070AAXX  27211 15477 32997 82711 10012 21001 30209 40227 8807/ 333 92447;EQDQ01  00002PRCP99
0080154770999992000012722004+44080+026630FM-12+003299999V0202701N010019999999N0100001N1+00151+99999999999ADDGF108991081001999999071999REMSYN042AAXX  27221 15477 42997 82710 10015 8807/;
0212154770999992000012800004+44080+026630FM-12+003299999V0202701N010019999999N0100001N1+00201+00071102271ADDAA199000091GF108991081001999999071999MA1999999102091MD1410001+9999SA1+0509UA1M050159999REMSYN094AAXX  28001 15477 32997 82710 10020 20007 30209 40227 54000 8807/ 22200 00050 20503 333 92447;EQDQ01  00002PRCP99
0080154770999992000012801004+44080+026630FM-12+003299999V0202701N008019999999N0100001N1+00241+99999999999ADDGF108991081001999999071999REMSYN042AAXX  28011 15477 42997 82708 10024 8807/;
0074154770999992000012802004+44080+026630FM-12+003299999V0202701N007019999999N0100001N1+99999+99999999999ADDGF108991081001999999071999REMSYN036AAXX  28021 15477 42997 82707 8807/;
0173154770999992000012803004+44080+026630FM-12+003299999V0202701N006019999999N0100001N1+00301+00141102231ADDAA199000091GF108991081001999999071999MA1999999102051MD1810041+9999REMSYN076AAXX  28031 15477 32997 82706 10030 20014 30205 40223 58004 8807/ 333 92437;EQDQ01  00002PRCP99
0080154770999992000012804004+44080+026630FM-12+003299999V0202901N007019999999N0100001N1+00341+99999999999ADDGF108991081001999999071999REMSYN042AAXX  28041 15477 42997 82907 10034 8807/;
0080154770999992000012805004+44080+026630FM-12+003299999V0202701N007019999999N0200001N1+00351+99999999999ADDGF108991081001999999071999REMSYN042AAXX  28051 15477 42998 82707 10035 8807/;
0203154770999992000012806004+44080+026630FM-12+003299999V0202701N006019999999N0200001N1+99999+99999999999ADDAA199000091GF105991051001999999051001KA1120N+00081MD1310021+9999SA1+0509UG1060102709REMSYN088AAXX  28061 15477 32998 52706 2/82/ 53002 85050 22200 00050 327// 40602 333 20008 92438;EQDQ01  00002PRCP99
0080154770999992000012807004+44080+026630FM-12+003299999V0202701N006019999999N0200001N1+00221+99999999999ADDGF105991051001999999051001REMSYN042AAXX  28071 15477 42998 52706 10022 85050;
0090154770999992000012814004+44080+026630FM-12+003299999V0202501N006012200019N0200001N1+00251+99999999999ADDGA1001+999999999GF100991001001999999001001REMSYN036AAXX  28141 15477 42998 02506 10025;
0183154770999992000012815004+44080+026630FM-12+003299999V0202301N005012200019N0100001N1+00221+00091102101ADDAA199000091GA1001+999999999GF100991001001999999001001MA1999999101921MD1710081+9999REMSYN070AAXX  28151 15477 32997 02305 10022 20009 30192 40210 57008 333 92437;EQDQ01  00002PRCP99
0090154770999992000012816004+44080+026630FM-12+003299999V0202301N005012200019N0100001N1+00201+99999999999ADDGA1001+999999999GF100991001001999999001001REMSYN036AAXX  28161 15477 42997 02305 10020;
0090154770999992000012817004+44080+026630FM-12+003299999V0202301N005012200019N0100001N1+00201+99999999999ADDGA1001+999999999GF100991001001999999001001REMSYN036AAXX  28171 15477 42997 02305 10020;
0257154770999992000012818004+44080+026630FM-12+003299999V0202301N004012200019N0100001N1+00161+00111999999ADDAA199000091GA1001+999999999GF100991001001999999001001KA1120M+00361MA1999999101901MD1710021+9999SA1+0509UA1M020059999REMSYN094AAXX  28181 15477 32997 02304 10016 20011 30190 4008/ 57002 22200 00050 20201 333 10036 92427;EQDQ01+100803APOSLPQ02  00002PRCP99
0090154770999992000012819004+44080+026630FM-12+003299999V0202501N006012200019N0100001N1+00141+99999999999ADDGA1001+999999999GF100991001001999999001001REMSYN036AAXX  28191 15477 42997 02506 10014;
0090154770999992000012820004+44080+026630FM-12+003299999V0202501N006012200019N0100001N1+00121+99999999999ADDGA1001+999999999GF100991001001999999001001REMSYN036AAXX  28201 15477 42997 02506 10012;
0183154770999992000012821004+44080+026630FM-12+003299999V0202501N006012200019N0100001N1+00121+00041102061ADDAA199000091GA1001+999999999GF100991001001999999001001MA1999999101881MD1710021+9999REMSYN070AAXX  28211 15477 32997 02506 10012 20004 30188 40206 57002 333 92427;EQDQ01  00002PRCP99
0090154770999992000012822004+44080+026630FM-12+003299999V0202501N006012200019N0100001N1+00121+99999999999ADDGA1001+999999999GF100991001001999999001001REMSYN036AAXX  28221 15477 42997 02506 10012;
0090154770999992000012823004+44080+026630FM-12+003299999V0202501N005012200019N0100001N1+00101+99999999999ADDGA1001+999999999GF100991001001999999001001REMSYN036AAXX  28231 15477 42997 02505 10010;
0202154770999992000012900004+44080+026630FM-12+003299999V0202701N005012200019N0100001N1+00181+99999101981ADDAA199000091GA1001+999999999GF100991001001999999001001MA1999999101801MD1710081+9999UA1M030059999REMSYN076AAXX  29001 15477 32997 02705 10018 30180 40198 57008 22200 20301 333 92427;EQDQ01  00002PRCP99
0090154770999992000012901004+44080+026630FM-12+003299999V0202701N005012200019N0100001N1+00191+99999999999ADDGA1001+999999999GF100991001001999999001001REMSYN036AAXX  29011 15477 42997 02705 10019;
0090154770999992000012902004+44080+026630FM-12+003299999V0202701N005012200019N0100001N1+00201+99999999999ADDGA1001+999999999GF100991001001999999001001REMSYN036AAXX  29021 15477 42997 02705 10020;
0183154770999992000012903004+44080+026630FM-12+003299999V0202701N006012200019N0100001N1+00181+00101101981ADDAA199000091GA1001+999999999GF100991001001999999001001MA1999999101801MD1410001+9999REMSYN070AAXX  29031 15477 32997 02706 10018 20010 30180 40198 54000 333 92437;EQDQ01  00002PRCP99
0090154770999992000012904004+44080+026630FM-12+003299999V0202701N006012200019N0100001N1+00181+99999999999ADDGA1001+999999999GF100991001001999999001001REMSYN036AAXX  29041 15477 42997 02706 10018;
0173154770999992000012915004+44080+026630FM-12+003299999V0202701N006012200019N0100001N1+00201+00011101981ADDAA199000091GF102991021001999999031001MA1999999101801MD1310021+9999REMSYN076AAXX  29151 15477 32997 22706 10020 20001 30180 40198 53002 82030 333 92437;EQDQ01  00002PRCP99
0080154770999992000012916004+44080+026630FM-12+003299999V0202701N006012200019N0100001N1+00201+99999999999ADDGF102991021001999999041001REMSYN042AAXX  29161 15477 42997 22706 10020 82040;
0090154770999992000012917004+44080+026630FM-12+003299999V0202701N008012200019N0100001N1+00201+99999999999ADDGA1001+999999999GF100991001001999999001001REMSYN036AAXX  29171 15477 42997 02708 10020;
0090154770999992000012923004+44080+026630FM-12+003299999V0202301N009012200019N0100001N1+00331+99999999999ADDGA1001+999999999GF100991001001999999001001REMSYN036AAXX  29231 15477 /2997 02309 10033;
0211154770999992000013000004+44080+026630FM-12+003299999V0202301N009012200019N0100001N1+01202+99999101761ADDAA199000091GA1001+999999999GF100991001001999999001001MD1710131+9999SA1+0509UA1M040159999REMSYN076AAXX  30001 15477 32997 02309 1012/ 40176 57013 22200 00050 20403 333 92447;EQDQ01+001203ATOT  Q02  00002PRCP99
0231154770999992000013006004+44080+026630FM-12+003299999V0202301N012012200019N0100001N1+00471+00331101381ADDAA199000091GF104991021001999999031011KA1120N+00201MA1999999101201MD1710181+9999SA1+0509UA1M050259999REMSYN100AAXX  30061 15477 32997 42312 10047 20033 30120 40138 57018 82031 22200 00050 20505 333 20020 92447;EQDQ01  00002PRCP99
0173154770999992000013015004+44080+026630FM-12+003299999V0202301N014019999999N0100001N1+00531+00291101011ADDAA199000091GF108991081001999999071999MA1999999100831MD1710091+9999REMSYN076AAXX  30151 15477 32997 82314 10053 20029 30083 40101 57009 8807/ 333 92457;EQDQ01  00002PRCP99
0080154770999992000013016004+44080+026630FM-12+003299999V0202301N014019999999N0100001N1+00541+99999999999ADDGF108991081001999999071999REMSYN042AAXX  30161 15477 42997 82314 10054 8807/;
0080154770999992000013017004+44080+026630FM-12+003299999V0202301N014019999999N0100001N1+00541+99999999999ADDGF108991081001999999071999REMSYN042AAXX  30171 15477 42997 82314 10054 8807/;
0231154770999992000013018004+44080+026630FM-12+003299999V0202301N014019999999N0100001N1+00601+00211100921ADDAA199000091GF108991081001999999071999KA1120M+00601MA1999999100751MD1710081+9999SA1+0489UA1M069999999REMSYN100AAXX  30181 15477 32997 82314 10060 20021 30075 40092 57008 8807/ 22200 00048 2060/ 333 10060 92457;EQDQ01  00002PRCP99
0080154770999992000013019004+44080+026630FM-12+003299999V0202301N014019999999N0100001N1+00631+99999999999ADDGF108991081001999999071999REMSYN042AAXX  30191 15477 42997 82314 10063 8807/;
0080154770999992000013102004+44080+026630FM-12+003299999V0203201N013019999999N0100001N1+00381+99999999999ADDGF108991081001999999071999REMSYN042AAXX  31021 15477 42997 83213 10038 8807/;
0080154770999992000013116004+44080+026630FM-12+003299999V0202301N009012200019N0200001N1+00481+99999999999ADDGF104991041001999999051001REMSYN042AAXX  31161 15477 42998 42309 10048 84050;
0080154770999992000013117004+44080+026630FM-12+003299999V0202301N010019999999N0200001N1+99999+99999999999ADDGF105991051001999999051001REMSYN042AAXX  31171 15477 42998 52310 1/048 85050;
0082154770999992000013120004+44080+026630FM-12+003299999V0202301N014019999999N0200001N1+00521+99999999999ADDAY161999AY261999MW1611REMSYN048AAXX  31201 15477 41498 /2314 10052 76166 8672/;
0080154770999992000013122004+44080+026630FM-12+003299999V0202301N010010042019N0100001N1+00581+99999999999ADDGF108991061071004501021999REMSYN042AAXX  31221 15477 42497 82310 10058 8672/;
0080154770999992000013123004+44080+026630FM-12+003299999V0202701N009019999999N0100001N1+00581+99999999999ADDGF106991061001999999071001REMSYN042AAXX  31231 15477 42997 62709 10058 86070;
0234154770999992000020100004+44080+026630FM-12+003299999V0202701N008012200019N0100001N1+00561+00401101551ADDAA106000591AY161061AY221061GA1001+999999999GF100991001001999999001001MA1999999101381MD1410001+9999MW1021UG1070152309REMSYN106AAXX  01001 15477 11997 02708 10056 20040 30138 40155 54000 69941 70262 22200 000// 323// 40703 333 92447;
0090154770999992000020102004+44080+026630FM-12+003299999V0202701N007012200019N0100001N1+00511+99999999999ADDGA1001+999999999GF100991001001999999001001REMSYN036AAXX  01021 15477 42997 02707 10051;
0168154770999992000020103004+44080+026630FM-12+003299999V0202701N008012200019N0100001N1+00521+00401101701ADDAA199000021GA1001+999999999GF100991001001999999001001MD1310151+9999REMSYN070AAXX  01031 15477 32997 02708 10052 20040 3153/ 40170 53015 333 92447;EQDQ01+015301APOSP 
0090154770999992000020104004+44080+026630FM-12+003299999V0202701N008012200019N0100001N1+00531+99999999999ADDGA1001+999999999GF100991001001999999001001REMSYN036AAXX  01041 15477 42997 02708 10053;
0218154770999992000020106004+44080+026630FM-12+003299999V0203201N008012200019N0200001N1+00601+00341102101ADDAA112000591GF103991031001999999031001KA1120N+00501MA1999999101931MD1210401+9999SA1+0509UA1M040159999REMSYN106AAXX  01061 15477 12998 33208 10060 20034 30193 40210 52040 69942 83030 22200 00050 20403 333 20050 92448;
0080154770999992000020107004+44080+026630FM-12+003299999V0203601N009012200019N0200001N1+00641+99999999999ADDGF103991031001999999031001REMSYN042AAXX  01071 15477 42998 33609 10064 83030;
0080154770999992000020108004+44080+026630FM-12+003299999V0203401N014012200019N0200001N1+00701+99999999999ADDGF103991031001999999031001REMSYN042AAXX  01081 15477 42998 33414 10070 83030;
0232154770999992000020118004+44080+026630FM-12+003299999V0203401N006012200019N0200001N1+00571+00171102721ADDAA199000091GA1001+999999999GF100991001001999999001001KA1120M+00801MA1999999102551MD1210051+9999UG1070153609REMSYN094AAXX  01181 15477 32998 03406 10057 20017 30255 40272 52005 22200 336// 40703 333 10080 92448;EQDQ01  00002PRCP99
0109154770999992000020120004+44080+026630FM-12+003299999V0202901N999992200019N0200001N1+00521+99999999999ADDGA1001+999999999GF100991001001999999001001REMSYN036AAXX  01201 15477 42998 02998 10052;EQDQ01+009801WOSPD 
0183154770999992000020121004+44080+026630FM-12+003299999V0201801N005012200019N0200001N1+00521+00331102671ADDAA199000091GA1001+999999999GF100991001001999999001001MA1999999102501MD1810051+9999REMSYN070AAXX  01211 15477 32998 01805 10052 20033 30250 40267 58005 333 92448;EQDQ01  00002PRCP99
0090154770999992000020211004+44080+026630FM-12+003299999V0202301N012012200019N0200001N1+00601+99999999999ADDGA1001+999999999GF100991001001999999001001REMSYN036AAXX  02111 15477 42998 02312 10060;
0090154770999992000020214004+44080+026630FM-12+003299999V0201801N012012200019N0200001N1+00651+99999999999ADDGA1001+999999999GF100991001001999999001001REMSYN036AAXX  02141 15477 42998 01812 10065;
0173154770999992000020215004+44080+026630FM-12+003299999V0202001N012012200019N0200001N1+99999+99999101571ADDAA199000091GF103991001001999999001021MA1999999101401MD1710251+9999REMSYN076AAXX  02151 15477 32998 32012 1067/ 20053 30140 40157 57025 80002 333 92448;EQDQ01  00002PRCP99
0080154770999992000020216004+44080+026630FM-12+003299999V0202001N011019999999N0200001N1+00651+99999999999ADDGF105991051001999999071001REMSYN042AAXX  02161 15477 42998 52011 10065 85070;
0080154770999992000020217004+44080+026630FM-12+003299999V0202001N010019999999N0200001N1+00651+99999999999ADDGF105991051001999999071001REMSYN042AAXX  02171 15477 42998 52010 10065 85070;
0241154770999992000020218004+44080+026630FM-12+003299999V0201801N013012200019N0200001N1+00621+00461101471ADDAA199000091GA1001+999999999GF100991001001999999001001KA1120M+00681MA1999999101301MD1310101+9999SA1+0529UA1M060259999REMSYN094AAXX  02181 15477 32998 01813 10062 20046 30130 40147 53010 22200 00052 20605 333 10068 92448;EQDQ01  00002PRCP99
0090154770999992000020219004+44080+026630FM-12+003299999V0202001N012012200019N0200001N1+00601+99999999999ADDGA1001+999999999GF100991001001999999001001REMSYN036AAXX  02191 15477 42998 02012 10060;
0183154770999992000020221004+44080+026630FM-12+003299999V0202001N010012200019N0200001N1+00601+00441101391ADDAA199000091GA1001+999999999GF100991001001999999001001MA1999999101221MD1810081+9999REMSYN070AAXX  02211 15477 32998 02010 10060 20044 30122 40139 58008 333 92448;EQDQ01  00002PRCP99
0222154770999992000020300004+44080+026630FM-12+003299999V0202001N012012200019N0200001N1+00651+00321101271ADDAA199000091GA1001+999999999GF100991001001999999001001MA1999999101101MD1710121+9999SA1+0529UA1M060259999REMSYN088AAXX  03001 15477 32998 02012 10065 20032 30110 40127 57012 22200 00052 20605 333 92458;EQDQ01  00002PRCP99
0090154770999992000020301004+44080+026630FM-12+003299999V0202001N011012200019N0200001N1+00671+99999999999ADDGA1001+999999999GF100991001001999999001001REMSYN036AAXX  03011 15477 42998 02011 10067;
0090154770999992000020302004+44080+026630FM-12+003299999V0202001N011012200019N0200001N1+00681+99999999999ADDGA1001+999999999GF100991001001999999001001REMSYN036AAXX  03021 15477 42998 02011 10068;
0222154770999992000020312004+44080+026630FM-12+003299999V0202701N011012200019N0200001N1+00601+00461101371ADDAA199000091GA1001+999999999GF100991001001999999001001MA1999999101201MD1210021+9999SA1+0529UA1M040209999REMSYN088AAXX  03121 15477 32998 02711 10060 20046 30120 40137 52002 22200 00052 20404 333 92448;EQDQ01  00002PRCP99
0080154770999992000020316004+44080+026630FM-12+003299999V0203601N009019999999N0200001N1+00701+99999999999ADDGF108991081001999999071999REMSYN042AAXX  03161 15477 42998 83609 10070 8807/;
0080154770999992000020317004+44080+026630FM-12+003299999V0203601N009010042019N0100001N1+00681+99999999999ADDGF108991061071004501021999REMSYN042AAXX  03171 15477 42497 83609 10068 8672/;
0250154770999992000020318004+44080+026630FM-12+003299999V0203601N007010042019N0100001N1+00541+00321999999ADDAA103000191AY121061AY221061GF108991061071004501021999KA1120M+00751MA1999999101721MD1210241+9999MW1611REMSYN118AAXX  03181 15477 /1497 83607 10054 20032 30172 40489 52024 69912 76122 8672/ 2220/ 00052 20603 333 10075 69917 92447;EQDQ01+104893APOSLP
0108154770999992000020319004+44080+026630FM-12+003299999V0200501N007010042019N0100001N1+00531+99999999999ADDAY161999AY261999GF108991061071004501021999MW1611REMSYN048AAXX  03191 15477 41497 80507 10053 76166 8672/;
0188154770999992000020321004+44080+026630FM-12+003299999V0203201N006010042019N0200001N1+00521+00381102091ADDAA103000291AY161031AY221031GF108991061071004501021999MA1999999101921MD1210201+9999MW1021REMSYN088AAXX  03211 15477 21498 83206 10052 20038 30192 40209 52020 70262 8672/ 333 69927 92438;
0080154770999992000020322004+44080+026630FM-12+003299999V0203401N006010360019N0200001N1+00501+99999999999ADDGF108991041051008001071999REMSYN042AAXX  03221 15477 42598 83406 10050 8457/;
0080154770999992000020323004+44080+026630FM-12+003299999V0203201N006010360019N0200001N1+00501+99999999999ADDGF108991041051008001071999REMSYN042AAXX  03231 15477 42598 83206 10050 8457/;
0232154770999992000020400004+44080+026630FM-12+003299999V0203201N008019999999N0200001N1+00501+00281102251ADDAA106000191AY161061AY221061GF108991081001999999071999MA1999999102081MD1210161+9999MW1011SA1+0529UG1070103609REMSYN112AAXX  04001 15477 12998 83208 10050 20028 30208 40225 52016 69921 70162 8807/ 22200 00052 336// 40702 333 92438;
0080154770999992000020401004+44080+026630FM-12+003299999V0202901N008019999999N0200001N1+00501+99999999999ADDGF108991081001999999071999REMSYN042AAXX  04011 15477 42998 82908 10050 8807/;
0154154770999992000020403004+44080+026630FM-12+003299999V0202901N009019999999N0200001N1+00481+00231102341ADDAA199000021GF108991081001999999071999MA1999999102171MD1210091+9999REMSYN076AAXX  04031 15477 32998 82909 10048 20023 30217 40234 52009 8807/ 333 92448;
0173154770999992000020515004+44080+026630FM-12+003299999V0202701N018019999999N0200001N1+00381-00251101921ADDAA199000091GF106991061001999999071001MA1999999101751MD1710351+9999REMSYN076AAXX  05151 15477 32998 62718 10038 21025 30175 40192 57035 86070 333 92468;EQDQ01  00002PRCP99
0090154770999992000020516004+44080+026630FM-12+003299999V0202701N018019999999N0200001N1+00401+99999999999ADDGF108991081001999999071999REMSYN052AAXX  05161 15477 42998 82718 10040 8807/ 333 91123;
0118154770999992000020517004+44080+026630FM-12+003299999V0202701N017010042019N0200001N1+00381+99999999999ADDAY161999AY221999GF108991061071004501021999MW1611REMSYN058AAXX  05171 15477 41498 82717 10038 76162 8672/ 333 91123;
0248154770999992000020518004+44080+026630FM-12+003299999V0202701N017010042019N0200001N1+00321+00031101901ADDAA103000191AY161061AY221061GF108991061071004501021999KA1120M+00431MA1999999101731MD1710021+9999MW1611OA149902201REMSYN124AAXX  05181 15477 /1498 82717 10032 20003 30173 40190 57002 69912 76162 8672/ 2220/ 00050 20710 333 10043 69917 91122 92468;
0118154770999992000020519004+44080+026630FM-12+003299999V0202701N017010042019N0200001N1+00301+99999999999ADDAY161011AY221011GF108991061071004501021999MW1211REMSYN058AAXX  05191 15477 41498 82717 10030 72162 8672/ 333 92422;
0090154770999992000020601004+44080+026630FM-12+003299999V0203201N016012200019N0200001N1+00501+99999999999ADDGF102991021001999999031001REMSYN052AAXX  06011 15477 /2998 23216 10050 82030 333 91121;
0096154770999992000020602004+44080+026630FM-12+003299999V0203201N015012200019N0200001N1+00501+99999999999ADDGF103991031001999999031001REMSYN058AAXX  06021 15477 42998 33215 10050 83030 333 1///1 827//;
0090154770999992000020613004+44080+026630FM-12+003299999V0203201N006012200019N0200001N1+00701+99999999999ADDGA1001+999999999GF100991001001999999001001REMSYN036AAXX  06131 15477 42998 03206 10070;
0173154770999992000020615004+44080+026630FM-12+003299999V0203201N008019999999N0200001N1+00601+00231102571ADDAA199000091GF108991081001999999071999MA1999999102401MD1310051+9999REMSYN076AAXX  06151 15477 32998 83208 10060 20023 30240 40257 53005 8807/ 333 92448;EQDQ01  00002PRCP99
0080154770999992000020616004+44080+026630FM-12+003299999V0203201N007019999999N0200001N1+00571+99999999999ADDGF108991081001999999071999REMSYN042AAXX  06161 15477 42998 83207 10057 8807/;
0080154770999992000020617004+44080+026630FM-12+003299999V0202901N007019999999N0200001N1+00561+99999999999ADDGF108991081001999999071999REMSYN042AAXX  06171 15477 42998 82907 10056 8807/;
0236154770999992000020618004+44080+026630FM-12+003299999V0203201N005019999999N0200001N1+00551+00461102601ADDAA199000091GF108991081001999999071999KA1120M+00751MA1999999102431MD1210031+9999SA1+0529UG1070103209REMSYN106AAXX  06181 15477 32998 83205 10055 20046 30243 40260 52003 8807/ 22200 00052 332// 40702 333 10075 92438;EQDQ01  00002PRCP99
0080154770999992000020619004+44080+026630FM-12+003299999V0202701N005019999999N0200001N1+00541+99999999999ADDGF108991081001999999071999REMSYN042AAXX  06191 15477 42998 82705 10054 8807/;
0080154770999992000020620004+44080+026630FM-12+003299999V0202501N005019999999N0200001N1+00541+99999999999ADDGF108991081001999999071999REMSYN042AAXX  06201 15477 42998 82505 10054 8807/;
0236154770999992000020706004+44080+026630FM-12+003299999V0202501N006019999999N0100001N1+00521+00451102451ADDAA199000091GF108991081001999999071999KA1120N+00501MA1999999102281MD1710021+9999SA1+0509UG1060102309REMSYN106AAXX  07061 15477 32997 82506 10052 20045 30228 40245 57002 8807/ 22200 00050 323// 40602 333 20050 92437;EQDQ01  00002PRCP99
0080154770999992000020707004+44080+026630FM-12+003299999V0202501N007019999999N0100001N1+00521+99999999999ADDGF106991061001999999071001REMSYN042AAXX  07071 15477 42997 62507 10052 86070;
0183154770999992000020715004+44080+026630FM-12+003299999V0202301N005012200019N0100001N1+99999+99999102251ADDAA199000091GA1001+999999999GF100991001001999999001001MA1999999102081MD1710071+9999REMSYN070AAXX  07151 15477 32997 02305 100/4 20050 30208 40225 57007 333 92437;EQDQ01  00002PRCP99
0090154770999992000020716004+44080+026630FM-12+003299999V0202501N006012200019N0100001N1+00651+99999999999ADDGA1001+999999999GF100991001001999999001001REMSYN036AAXX  07161 15477 42997 02506 10065;
0090154770999992000020717004+44080+026630FM-12+003299999V0202501N006012200019N0100001N1+99999+99999999999ADDGA1001+999999999GF100991001001999999001001REMSYN036AAXX  07171 15477 42997 02506 100/5;
0241154770999992000020718004+44080+026630FM-12+003299999V0202301N007012200019N0100001N1+00651+00491102271ADDAA199000091GA1001+999999999GF100991001001999999001001KA1120M+00651MA1999999102101MD1310021+9999SA1+0509UA1M040109999REMSYN094AAXX  07181 15477 32997 02307 10065 20049 30210 40227 53002 22200 00050 20402 333 10065 92437;EQDQ01  00002PRCP99
0090154770999992000020719004+44080+026630FM-12+003299999V0201801N009012200019N0100001N1+00631+99999999999ADDGA1001+999999999GF100991001001999999001001REMSYN036AAXX  07191 15477 42997 01809 10063;
0090154770999992000020720004+44080+026630FM-12+003299999V0201801N009012200019N0100001N1+00641+99999999999ADDGA1001+999999999GF100991001001999999001001REMSYN036AAXX  07201 15477 42997 01809 10064;
0183154770999992000020721004+44080+026630FM-12+003299999V0201801N009012200019N0100001N1+00351+99999102171ADDAA199000091GA1001+999999999GF100991001001999999001001MA1999999102001MD1810101+9999REMSYN070AAXX  07211 15477 32997 01809 10035 20049 30200 40217 58010 333 92447;EQDQ01  00002PRCP99
0090154770999992000020723004+44080+026630FM-12+003299999V0202001N012012200019N0100001N1+00631+99999999999ADDGA1001+999999999GF100991001001999999001001REMSYN036AAXX  07231 15477 42997 02012 10063;
0183154770999992000020815004+44080+026630FM-12+003299999V0202301N005012200019N0100001N1+99999+99999102251ADDAA199000091GA1001+999999999GF100991001001999999001001MA1999999102081MD1710071+9999REMSYN070AAXX  08151 15477 32997 02305 100/4 20050 30208 40225 57007 333 92437;EQDQ01  00002PRCP99
0080154770999992000020816004+44080+026630FM-12+003299999V0201801N010019999999N0100001N1+00661+99999999999ADDGF108991081001999999071999REMSYN042AAXX  08161 15477 42997 81810 10066 8807/;
0231154770999992000020906004+44080+026630FM-12+003299999V0202301N010019999999N0100001N1+00661+00381101121ADDAA199000091GF105991051001999999071001KA1120N+00601MA1999999100951MD1410001+9999SA1+0509UA1M040159999REMSYN100AAXX  09061 15477 32997 52310 10066 20038 30095 40112 54000 85070 22200 00050 20403 333 20060 92447;EQDQ01  00002PRCP99
0080154770999992000020907004+44080+026630FM-12+003299999V0202301N011019999999N0100001N1+00651+99999999999ADDGF105991051001999999071001REMSYN042AAXX  09071 15477 42997 52311 10065 85070;
0080154770999992000020917004+44080+026630FM-12+003299999V0202001N010019999999N0100001N1+00771+99999999999ADDGF105991051001999999071001REMSYN042AAXX  09171 15477 42997 52010 10077 85070;
0074154770999992000020922004+44080+026630FM-12+003299999V0202301N006019999999N0100001N1+99999+99999999999ADDGF105991051001999999071001REMSYN036AAXX  09221 15477 42997 52306 85070;
0212154770999992000021012004+44080+026630FM-12+003299999V0200501N010019999999N0100001N1+00601+00441102191ADDAA199000091GF106991061001999999071001MA1999999102021MD1210101+9999SA1+0529UA1M050209999REMSYN094AAXX  10121 15477 32997 60510 10060 20044 30202 40219 52010 86070 22200 00052 20504 333 92447;EQDQ01  00002PRCP99
0173154770999992000021015004+44080+026630FM-12+003299999V0200501N010019999999N0100001N1+00581+00321102321ADDAA199000091GF108991081001999999071999MA1999999102151MD1210131+9999REMSYN076AAXX  10151 15477 32997 80510 10058 20032 30215 40232 52013 8807/ 333 92447;EQDQ01  00002PRCP99
0080154770999992000021016004+44080+026630FM-12+003299999V0200501N010019999999N0100001N1+00551+99999999999ADDGF108991081001999999071999REMSYN042AAXX  10161 15477 42997 80510 10055 8807/;
0080154770999992000021017004+44080+026630FM-12+003299999V0200501N007019999999N0100001N1+00541+99999999999ADDGF108991081001999999071999REMSYN042AAXX  10171 15477 42997 80507 10054 8807/;
0212154770999992000021018004+44080+026630FM-12+003299999V0200201N008019999999N0100001N1+00581+00371102521ADDAA199000091GF108991081001999999071999KA1120M+00641MA1999999102351MD1210201+9999SA1+0599REMSYN094AAXX  10181 15477 32997 80208 10058 20037 30235 40252 52020 8807/ 22200 00059 333 10064 92447;EQDQ01  00002PRCP99
0074154770999992000021019004+44080+026630FM-12+003299999V0200201N007019999999N0100001N1+00601+99999999999ADDGF108991999999999999999999REMSYN036AAXX  10191 15477 42997 80207 10060;
0173154770999992000021021004+44080+026630FM-12+003299999V0203601N005019999999N0100001N1+00621+00431102571ADDAA199000091GF108991081001999999071999MA1999999102401MD1210051+9999REMSYN076AAXX  10211 15477 32997 83605 10062 20043 3024/ 40257 52005 8807/ 333 92447;EQDQ01  00002PRCP99
0227154770999992000021100004+44080+026630FM-12+003299999V0209999C000012200019N0100001N1+00551+00381102571ADDAA199000091GA1001+999999999GF100991001001999999001001MA1999999102401MD1410001+9999SA1+0509UG1079990509REMSYN094AAXX  11001 15477 32997 00000 10055 20038 30240 40257 54000 22200 00050 305// 4070/ 333 92437;EQDQ01  00002PRCP99
0090154770999992000021102004+44080+026630FM-12+003299999V02099999999992200019N0100001N1+00551+99999999999ADDGA1001+999999999GF100991001001999999001001REMSYN036AAXX  11021 15477 42997 036/6 10055;
0183154770999992000021103004+44080+026630FM-12+003299999V0200201N005012200019N0100001N1+00481+00361102591ADDAA199000091GA1001+999999999GF100991001001999999001001MA1999999102421MD1310021+9999REMSYN070AAXX  11031 15477 32997 00205 10048 20036 30242 40259 53002 333 92437;EQDQ01  00002PRCP99
0090154770999992000021104004+44080+026630FM-12+003299999V0200201N007012200019N0100001N1+00461+99999999999ADDGA1001+999999999GF100991001001999999001001REMSYN036AAXX  11041 15477 42997 00207 10046;
0230154770999992000021106004+44080+026630FM-12+003299999V0203601N007019999999N0100001N1+00441+00241102671ADDAA199000091GF105991051001999999071001KA1120N+00441MA1999999102501MD1210081+9999SA1+0509UG1999993609REMSYN100AAXX  11061 15477 32997 53607 10044 20024 30250 40267 52008 85070 22200 00050 336// 333 20044 92437;EQDQ01  00002PRCP99
0090154770999992000021119004+44080+026630FM-12+003299999V0209999C000012200019N0100001N1+00521+99999999999ADDGA1001+999999999GF100991001001999999001001REMSYN036AAXX  11191 15477 42997 00000 10052;
0090154770999992000021120004+44080+026630FM-12+003299999V0209999C000012200019N0100001N1+00541+99999999999ADDGA1001+999999999GF100991001001999999001001REMSYN036AAXX  11201 15477 42997 00000 10054;
0183154770999992000021121004+44080+026630FM-12+003299999V0201401N002012200019N0100001N1+00521+00401102871ADDAA199000091GA1001+999999999GF100991001001999999001001MA1999999102701MD1210021+9999REMSYN070AAXX  11211 15477 32997 01402 10052 20040 30270 40287 52002 333 92417;EQDQ01  00002PRCP99
0118154770999992000021205004+44080+026630FM-12+003299999V0209999C000010001519N0001001N1+00351+99999999999ADDAY141999AY241999GA1091+999999999GF109991091999999999999999MW1451REMSYN042AAXX  12051 15477 41/91 90000 10035 74544;
0118154770999992000021215004+44080+026630FM-12+003299999V0200901N005010024019N0040001N1+99999+99999999999ADDAY141031AY241031GA1091+999999999GF109991091999999999999999MW1451REMSYN042AAXX  12151 15477 41/96 90905 1/014 74544;
0118154770999992000021217004+44080+026630FM-12+003299999V0200501N004010001519N0001001N1+00121+99999999999ADDAY141999AY241999GA1091+999999999GF109991091999999999999999MW1451REMSYN042AAXX  12171 15477 41/91 90504 10012 74544;
0108154770999992000021222004+44080+026630FM-12+003299999V0203601N005012200019N0100001N1+00241+99999999999ADDAY141999AY211999GF104991041091008001001001MW1281REMSYN048AAXX  12221 15477 41597 43605 10024 72841 84900;
0198154770999992000021318004+44080+026630FM-12+003299999V0203201N005019999999N0100001N1+99999+99999999999ADDAA199000091GF108991999999999999999999KA1120M+00261SA1+0509UA1M020059999REMSYN080AAXX  13181 15477 32/97 83205 10/12 21005 3122/ 22200 00050 20201 333 10026 987;EQDQ01+012201APOSP Q02  00002PRCP99
0090154770999992000021416004+44080+026630FM-12+003299999V0202301N006012200019N0100001N1+00501+99999999999ADDGA1001+999999999GF100991001001999999001001REMSYN036AAXX  14161 15477 42997 02306 10050;
0090154770999992000021417004+44080+026630FM-12+003299999V0202301N007012200019N0100001N1+00521+99999999999ADDGA1001+999999999GF100991001001999999001001REMSYN036AAXX  14171 15477 42997 02307 10052;
0220154770999992000021418004+44080+026630FM-12+003299999V0202301N007019999999N0100001N1+00541+00351101651ADDAA199000091GF106991061001999999071001MA1999999101481MD1310031+9999SA1+0509UA1M040109999UG1999993209REMSYN090AAXX  14181 15477 32997 62307 10054 20035 30148 40165 53003 86070 22200 00050 20402 33322;EQDQ01  00002PRCP99
0189154770999992000021421004+44080+026630FM-12+003299999V0202901N008019999999N0100001N1+00481+00281999999ADDAA199000091GF108991081001999999071999MA1999999101401MD1810081+9999REMSYN076AAXX  14211 15477 32997 82908 10048 20028 30140 40757 58008 8807/ 333 92447;EQDQ01  00002PRCP99Q02 107573APOSLP
0080154770999992000021422004+44080+026630FM-12+003299999V0203201N006019999999N0100001N1+00451+99999999999ADDGF108991081001999999071999REMSYN042AAXX  14221 15477 42997 83206 10045 8807/;
0233154770999992000021500004+44080+026630FM-12+003299999V0203601N003019999999N0100001N1+00421+00191101492ADDAA199000091GF108991081001999999071999MA1999999101321MD1710081+9999SA1+0509UG1070151809REMSYN100AAXX  15001 15477 32997 83603 10042 20019 30132 40149 57008 8807/ 22200 00050 318// 40703 333 92447;EQDQ01+101493APOSLPQ02  00002PRCP99
0173154770999992000021503004+44080+026630FM-12+003299999V0203601N009019999999N0100001N1+00351+00171101391ADDAA199000091GF108991081001999999071999MA1999999101221MD1710101+9999REMSYN076AAXX  15031 15477 32997 83609 10035 20017 30122 40139 57010 8807/ 333 92447;EQDQ01  00002PRCP99
0093154770999992000021504004+44080+026630FM-12+003299999V0201101N999990021019N9999999N1+99999+99999999999ADDGF107991061071002501021999REMSYN036AAXX  15041 15477 4132/ 76122 8672/;EQDQ01+012201WOSPD 
0108154770999992000021505004+44080+026630FM-12+003299999V0203601N009010042019N0100001N1+00341+99999999999ADDAY161999AY261999GF108991061071004501021999MW1611REMSYN048AAXX  15051 15477 41497 83609 10034 76166 8672/;
0108154770999992000021510004+44080+026630FM-12+003299999V0203601N008010042019N0100001N1+00381+99999999999ADDAY161999AY261999GF108991061071004501021999MW1611REMSYN048AAXX  15101 15477 41497 83608 10038 76166 8672/;
0108154770999992000021513004+44080+026630FM-12+003299999V0203601N009010042019N0100001N1+00321+99999999999ADDAY161999AY261999GF108991061071004501021999MW1611REMSYN048AAXX  15131 15477 41497 83609 10032 76166 8672/;
0113154770999992000021514004+44080+026630FM-12+003299999V0203601N014019999999N0100001N1+99999+99999999999ADDAA100003091AY161999AY261999GF108991999999004501999999MW1611REMSYN042AAXX  15141 15477 41497 83614 60030 76166;
0188154770999992000021515004+44080+026630FM-12+003299999V0203601N014010042019N0100001N1+00301+00091101771ADDAA103000591AY161031AY261031GF108991061071004501021999MA1999999101601MD1210101+9999MW1611REMSYN088AAXX  15151 15477 21497 83614 10030 20009 30160 40177 52010 76166 8672/ 333 69957 92457;
0108154770999992000021516004+44080+026630FM-12+003299999V0203601N012010042019N0100001N1+00301+99999999999ADDAY161999AY221999GF108991061071004501021999MW1211REMSYN048AAXX  15161 15477 41497 83612 10030 72162 8672/;
0080154770999992000021517004+44080+026630FM-12+003299999V0203601N012010042019N0100001N1+00291+99999999999ADDGF108991061071004501021999REMSYN042AAXX  15171 15477 42497 83612 10029 8672/;
0252154770999992000021518004+44080+026630FM-12+003299999V0203601N012010042019N0100001N1+00321+00031101901ADDAA103000291AY161061AY221061GF108991061071004501021999KA1120M+00401MA1999999101731MD1210131+9999MW1021SA1+0509UA1M060259999REMSYN118AAXX  15181 15477 /1497 83612 10032 20003 30173 40190 52013 60022 70262 8672/ 22200 00050 20605 333 10040 69927 92457;
0080154770999992000021519004+44080+026630FM-12+003299999V0203601N012010075019N0100001N1+00341+99999999999ADDGF108991081051008001999999REMSYN042AAXX  15191 15477 42597 83612 10034 885//;
0080154770999992000021520004+44080+026630FM-12+003299999V0203601N012010075019N0100001N1+00341+99999999999ADDGF108991081071008001999999REMSYN042AAXX  15201 15477 42597 83612 10034 887//;
0150154770999992000021521004+44080+026630FM-12+003299999V0203601N012010075019N0100001N1+00341+00021101971ADDAA199000021GF108991081051008001999999MA1999999101801MD1210071+9999REMSYN072AAXX  15211 15477 32597 83612 10034 20002 30180 40197 52007 885// 92457;
0080154770999992000021522004+44080+026630FM-12+003299999V0203601N011010075019N0100001N1+00341+99999999999ADDGF105991051051008001001001REMSYN042AAXX  15221 15477 42597 53611 10034 85500;
0126154770999992000021600004+44080+026630FM-12+003299999V0203601N999992200019N0100001N1+00271+00001102011ADDAA199000021GF104991999999008001999999REMSYN058AAXX  16001 15477 32597 43670 10027 2100/ 40201 333 92457;EQDQ01+007003WOSPD 
0080154770999992000021601004+44080+026630FM-12+003299999V0203601N010010075019N0100001N1+00281+99999999999ADDGF105991051051008001001999REMSYN042AAXX  16011 15477 42597 53610 10028 8550/;
0226154770999992000021606004+44080+026630FM-12+003299999V0203401N005012200019N0100001N1+00281-00081102031ADDAA199000091GA1001+999999999GF100991001001999999001001KA1120N+00241MA1999999101851SA1+0509UG1080153609REMSYN094AAXX  16061 15477 32997 03405 10028 21008 30185 40203 22200 00050 336// 40803 333 20024 5447/;EQDQ01  00002PRCP99
0101154770999992000021614004+44080+026630FM-12+003299999V0201801N003012200019N0100001N1+99999+99999999999ADDAA100005191GA1001+999999999GF100991001001999999001001REMSYN036AAXX  16141 15477 42997 01803 60050;
0090154770999992000021616004+44080+026630FM-12+003299999V0201801N008012200019N0100001N1+00431+99999999999ADDGA1001+999999999GF100991001001999999001001REMSYN036AAXX  16161 15477 42997 01808 10043;
0241154770999992000021618004+44080+026630FM-12+003299999V0201801N009012200019N0100001N1+00421-00101101781ADDAA199000091GA1001+999999999GF100991001001999999001001KA1120M+00581MA1999999101601MD1710051+9999SA1+0509UA1M030159999REMSYN094AAXX  16181 15477 32997 01809 10042 21010 30160 40178 57005 22200 00050 20303 333 10058 92447;EQDQ01  00002PRCP99
0090154770999992000021620004+44080+026630FM-12+003299999V0201801N009012200019N0100001N1+00411+99999999999ADDGA1001+999999999GF100991001001999999001001REMSYN036AAXX  16201 15477 42997 01809 10041;
