0183154990999992000010100004+43820+028580FM-12+000999999V0200501N012010042019N0100001N1+00561+00491101121ADDAA106011991AY161061GF108991061071004501021999MA1999999101011MW1611OA149901601REMSYN094AAXX  01001 15499 /1460 80512 10056 20049 30101 40112 5//// 60121 7616/ 8672/ 333 91116 92457;
0080154990999992000010105004+43820+028580FM-12+000999999V0201601N006010042019N0100001N1+00781+99999999999ADDGF108991081061004501999999REMSYN042AAXX  01051 15499 42460 81606 10078 886//;
0240154990999992000010106004+43820+028580FM-12+000999999V02099999999990042019N0100001N1+99999+99999100631ADDAA112020191AY161061GF107991071061004501001001IA1099KA1120N+00501MA1999999100521MW1021SA1+0489UA1M999999049REMSYN122AAXX  01061 15499 /1460 71/18 100/8 20052 30052 40063 5//// 60202 7026/ 87600 222// 00048 333 20050 3104/ 92447 555 60304;
0074154990999992000010107004+43820+028580FM-12+000999999V02099999999990042019N0100001N1+99999+99999999999ADDGF108991081061004501999999REMSYN036AAXX  01071 15499 42460 8//// 886//;
0080154990999992000010108004+43820+028580FM-12+000999999V0201801N006010042019N0100001N1+00481+99999999999ADDGF108991081061004501999999REMSYN042AAXX  01081 15499 42460 81806 10048 886//;
0202154990999992000010112004+43820+028580FM-12+000999999V0202901N010010042019N0100001N1-00081+99999999999ADDAA103000191AY171061AY221061GF108991061071004501021999MA1999999102382MD1210411+9999MW1021SA1+0509REMSYN094AAXX  01121 15499 /1460 82910 11008 30238 52041 69927 70272 8672/ 222// 00050 333 69917 92447;
0080154990999992000010113004+43820+028580FM-12+000999999V0202701N010019999999N9999999N1-00061+99999999999ADDGF108991081061999999999999REMSYN042AAXX  01131 15499 42//0 82710 11006 886//;
0080154990999992000010114004+43820+028580FM-12+000999999V0202701N010019999999N0100001N1-00061+99999999999ADDGF107991999061004501999999REMSYN042AAXX  01141 15499 42460 72710 11006 886//;
0179154990999992000010115004+43820+028580FM-12+000999999V0202901N010012200019N0100001N1-00101-00221101981ADDAA106000091GA1001+999999999GF100991001001999999001001MA1999999101871MD1210491+9999REMSYN066AAXX  01151 15499 32960 02910 11010 21022 30187 40198 52049 91114;EQDQ01  00002PRCP06
0090154990999992000010116004+43820+028580FM-12+000999999V0202901N010012200019N0100001N1-00141+99999999999ADDGA1001+999999999GF100991001001999999001001REMSYN036AAXX  01161 15499 42960 02910 11014;
0090154990999992000010117004+43820+028580FM-12+000999999V0202901N010012200019N0100001N1-00201+99999999999ADDGA1001+999999999GF100991001001999999001001REMSYN036AAXX  01171 15499 42960 02910 11020;
0244154990999992000010118004+43820+028580FM-12+000999999V0202901N004012200019N0100001N1-00141-00331102241ADDAA112000191GA1001+999999999GF100991001001999999001001IA1149KA1120M+00701MA1999999102131MD1210261+9999SA1+0479UA1M999999049REMSYN110AAXX  01181 15499 12960 02904 11014 21033 30213 40224 52026 69922 222// 00047 333 10070 34006 92447 555 55000;
0090154990999992000010123004+43820+028580FM-12+000999999V0209999C000012200019N0100001N1-00201+99999999999ADDGA1001+999999999GF100991001001999999001001REMSYN036AAXX  01231 15499 42960 00000 11020;
0169154990999992000010200004+43820+028580FM-12+000999999V0209999C000012200019N0100001N1-00261-00421102471ADDAA106000091GA1001+999999999GF100991001001999999001001MA1999999102361REMSYN070AAXX  02001 15499 32960 00000 11026 21042 30236 40247 5//// 333 92437;EQDQ01  00002PRCP06
0169154990999992000010201004+43820+028580FM-12+000999999V0209999C000012200019N0100001N1-00261-00421102471ADDAA106000091GA1001+999999999GF100991001001999999001001MA1999999102361REMSYN070AAXX  02011 15499 32960 00000 11026 21042 30236 40247 5//// 333 92437;EQDQ01  00002PRCP06
0090154990999992000010205004+43820+028580FM-12+000999999V0202901N003012200019N0100001N1-00351+99999999999ADDGA1001+999999999GF100991001001999999001001REMSYN036AAXX  02051 15499 42960 02903 11035;
0232154990999992000010206004+43820+028580FM-12+000999999V0202901N003010042019N0100001N1-00361-00441102571ADDAA106000091GF108991081061004501999999IA1149IA2120-00409MA1999999102461SA1+0409UA1M999999029REMSYN110AAXX  02061 15499 32460 82903 11036 21044 30246 40257 5//// 886// 222// 00040 333 22040 34104 92427 555 60002;EQDQ01  00002PRCP06
0108154990999992000010207004+43820+028580FM-12+000999999V0202901N002010042019N0040001N1-00281+99999999999ADDAY121011AY221011GF108991081061004501999999MW1101REMSYN048AAXX  02071 15499 41440 82902 11028 71022 886//;
0173154990999992000010209004+43820+028580FM-12+000999999V0202901N002012200019N0100001N1-00141-00201102731ADDAA106000091GF103991031061004501001001MA1999999102621MD1210161+9999REMSYN076AAXX  02091 15499 32460 32902 11014 21020 30262 40273 52016 83600 333 92427;EQDQ01  00002PRCP06
0090154990999992000010213004+43820+028580FM-12+000999999V0202901N002012200019N0100001N1-00021+99999999999ADDGA1001+999999999GF100991001001999999001001REMSYN036AAXX  02131 15499 42960 02902 11002;
0090154990999992000010214004+43820+028580FM-12+000999999V0202701N003012200019N0100001N1-00081+99999999999ADDGA1001+999999999GF100991001001999999001001REMSYN036AAXX  02141 15499 42960 02703 11008;
0173154990999992000010215004+43820+028580FM-12+000999999V0202901N002010075019N0100001N1-00161-00321102751ADDAA106000091GF105991051051008001001001MA1999999102641MD1310031+9999REMSYN076AAXX  02151 15499 32560 52902 11016 21032 30264 40275 53003 85500 333 92427;EQDQ01  00002PRCP06
0080154990999992000010216004+43820+028580FM-12+000999999V0202901N002010075019N0100001N1-00181+99999999999ADDGF107991071051008001001001REMSYN042AAXX  02161 15499 42560 72902 11018 87500;
0080154990999992000010217004+43820+028580FM-12+000999999V0209999C000010075019N0100001N1-00181+99999999999ADDGF108991081051008001999999REMSYN042AAXX  02171 15499 42560 80000 11018 885//;
0247154990999992000010218004+43820+028580FM-12+000999999V0209999C000010075019N0100001N1-00181-00341102831ADDAA106000091GF108991081051008001999999IA1149KA1120M+00001MA1999999102721MD1210081+9999SA1+0409UA1M999999029REMSYN110AAXX  02181 15499 32560 80000 11018 21034 30272 40283 52008 885// 222// 00040 333 10000 34001 92427 555 55015;EQDQ01  00002PRCP06
0080154990999992000010223004+43820+028580FM-12+000999999V0202901N002019999999N0100001N1-00281+99999999999ADDGF108991081001999999071999REMSYN042AAXX  02231 15499 42960 82902 11028 8807/;
0159154990999992000010300004+43820+028580FM-12+000999999V0202901N002019999999N0100001N1-00281-00411102931ADDAA106000091GF108991081001999999071999MA1999999102821REMSYN076AAXX  03001 15499 32960 82902 11028 21041 30282 40293 5//// 8807/ 333 92427;EQDQ01  00002PRCP06
0080154990999992000010305004+43820+028580FM-12+000999999V0202901N002019999999N0100001N1-00291+99999999999ADDGF108991081001999999071999REMSYN042AAXX  03051 15499 42960 82902 11029 8807/;
0074154990999992000010308004+43820+028580FM-12+000999999V0202901N002010042019N0100001N1+99999+99999999999ADDGF108991081061004501999999REMSYN036AAXX  03081 15499 42460 82902 886//;
0090154990999992000010316004+43820+028580FM-12+000999999V02099999999992200019N0100001N1-00361+99999999999ADDGA1001+999999999GF100991001001999999001001REMSYN036AAXX  03161 15499 4/960 0/000 11036;
0109154990999992000010317004+43820+028580FM-12+000999999V0209999C999992200019N0100001N1-00361+99999999999ADDGA1001+999999999GF100991001001999999001001REMSYN036AAXX  03171 15499 42960 00080 11036;EQDQ01+008003WOSPD 
0257154990999992000010318004+43820+028580FM-12+000999999V0202701N002012200019N0100001N1-00421-00581102451ADDAA106000091GA1001+999999999GF100991001001999999001001IA1149KA1120M-00111MA1999999102341MD1710131+9999SA1+0409UA1M999999029REMSYN104AAXX  03181 15499 32960 02702 11042 21058 30234 40245 57013 222// 00040 333 11011 34000 92427 555 55008;EQDQ01  00002PRCP06
0169154990999992000010500004+43820+028580FM-12+000999999V0202901N003012200019N0100001N1-00441-00601102291ADDAA106000091GA1001+999999999GF100991001001999999001001MA1999999102181REMSYN070AAXX  05001 15499 32960 02903 11044 21060 30218 40229 5//// 333 92427;EQDQ01  00002PRCP06
0096154990999992000010505004+43820+028580FM-12+000999999V0209999C000012200019N0100001N1-00441+99999999999ADDGA1001+999999999GF100991001001999999001001REMSYN042AAXX  05051 15499 42960 00000 11044 92600;
0173154990999992000010515004+43820+028580FM-12+000999999V0202701N002012200019N0100001N1+00081-00251102131ADDAA106000091GF103991031001999999051001MA1999999102021MD1610011+9999REMSYN076AAXX  05151 15499 32960 32702 10008 21025 30202 40213 56001 83050 333 92427;EQDQ01  00002PRCP06
0090154990999992000010516004+43820+028580FM-12+000999999V0209999C000012200019N9999999N1-00051+99999999999ADDGA1001+999999999GF100991001001999999001001REMSYN036AAXX  05161 15499 2/60/ 00000 11005;
0045154990999992000010517004+43820+028580FM-12+000999999V0209999C000019999999N0100001N1-00101+99999999999REMSYN036AAXX  05171 15499 42960 /0000 11010;
0257154990999992000010518004+43820+028580FM-12+000999999V0209999C000012200019N0100001N1-00101-00351102141ADDAA106000091GA1001+999999999GF100991001001999999001001IA1149KA1120M+00261MA1999999102031MD1310011+9999SA1+0429UA1M999999029REMSYN104AAXX  05181 15499 32960 00000 11010 21035 30203 40214 53001 222// 00042 333 10026 34005 92427 555 55033;EQDQ01  00002PRCP06
0188154990999992000010600004+43820+028580FM-12+000999999V0202701N002012200019N0100001N1-00101-00351102141ADDAA106000091GA1001+999999999GF100991001001999999001001MA1999999102031UA1M999999029REMSYN076AAXX  06001 15499 32960 02702 11010 21035 30203 40214 5//// 333 92427 92600;EQDQ01  00002PRCP06
0092154990999992000010605004+43820+028580FM-12+000999999V0202701N001019999999N0100001N1+99999+99999999999ADDGF108991061071999999021999MW1711REMSYN048AAXX  06051 15499 41/60 82701 11/06 771// 8672/;
0262154990999992000010612004+43820+028580FM-12+000999999V0203201N002010042019N0100001N1-00011-00101102041ADDAA103000191AJ100019199999999AY171061AY271061GF108991061071004501021999IA1289MA1999999101931MD1810091+9999MW1681SA1+0429UA1M999999029REMSYN118AAXX  06121 15499 /1460 83202 11001 21010 30193 40204 58009 69951 76877 8672/ 222// 00042 333 44001 69917 92427 92802;
0108154990999992000010614004+43820+028580FM-12+000999999V0203201N002010042019N0100001N1+00071+99999999999ADDAY171021AY271021GF108991061071004501021999MW1681REMSYN048AAXX  06141 15499 41460 83202 10007 76877 8672/;
0188154990999992000010615004+43820+028580FM-12+000999999V0203201N002010042019N0100001N1+00061-00021102121ADDAA103000491AY121031AY221031GF108991061071004501021999MA1999999102011MD1210081+9999MW1681REMSYN088AAXX  06151 15499 21460 83202 10006 21002 30201 40212 52008 76822 8672/ 333 69947 92427;
0108154990999992000010616004+43820+028580FM-12+000999999V0203201N002010042019N0100001N1+00041+99999999999ADDAY121999AY221999GF108991061071004501021999MW1681REMSYN048AAXX  06161 15499 41460 83202 10004 76822 8672/;
0273154990999992000010618004+43820+028580FM-12+000999999V0203201N002010042019N0100001N1+00031-00051102171ADDAA103002091AY171061AY271061GF108991061071004501021999IA1239MA1999999102061MD1210051+9999MW1231SA1+0429UA1M999999029UG1990059999REMSYN134AAXX  06181 15499 /1460 83202 10003 21005 30206 40217 52005 60032 72377 8672/ 222// 00042 3/000 44001 333 60027 92427 92802 555 55000;
0080154990999992000010623004+43820+028580FM-12+000999999V0203201N002010042019N0100001N1+00091+99999999999ADDGF108991081061004501999999REMSYN042AAXX  06231 15499 42460 83202 10009 886//;
0195154990999992000010700004+43820+028580FM-12+000999999V0203201N002010042019N0100001N1+00091+00001101941ADDAA106000891AJ100019199999999AY171061GF108991081061004501999999IA1289MA1999999101831MW1021REMSYN094AAXX  07001 15499 11460 83202 10009 20000 30183 40194 5//// 69981 7027/ 886// 333 44001 92427;
0100154990999992000010705004+43820+028580FM-12+000999999V0200201N006010042019N0100001N1+00301+99999999999ADDAY161999GF108991061071004501021999MW1021REMSYN048AAXX  07051 15499 41460 80206 10030 7026/ 8672/;
0080154990999992000010713004+43820+028580FM-12+000999999V0200201N002010042019N0100001N1+00321+99999999999ADDGF108991081061004501999999REMSYN042AAXX  07131 15499 42460 80202 10032 886//;
0173154990999992000010715004+43820+028580FM-12+000999999V0209999C000010042019N0100001N1+00221+00001102641ADDAA106000091GF107991071061004501001001MA1999999102531MD1810021+9999REMSYN076AAXX  07151 15499 32460 70000 10022 20000 30253 40264 58002 87600 333 92427;EQDQ01  00002PRCP06
0080154990999992000010716004+43820+028580FM-12+000999999V0209999C000010042019N0100001N1+00201+99999999999ADDGF106991061061004501001001REMSYN042AAXX  07161 15499 42460 60000 10020 86600;
0080154990999992000010717004+43820+028580FM-12+000999999V0203201N002010042019N0100001N1+00161+99999999999ADDGF108991081061004501999999REMSYN042AAXX  07171 15499 42460 83202 10016 886//;
0247154990999992000010718004+43820+028580FM-12+000999999V0203201N004010042019N0100001N1+00181-00011102741ADDAA106000091GF108991081061004501999999IA1099KA1120M+00361MA1999999102631MD1210101+9999SA1+0429UA1M999999029REMSYN110AAXX  07181 15499 32460 83204 10018 21001 30263 40274 52010 886// 222// 00042 333 10036 31004 92427 555 55005;EQDQ01  00002PRCP06
0080154990999992000010723004+43820+028580FM-12+000999999V0203201N004010042019N0100001N1+00131+99999999999ADDGF108991081061004501999999REMSYN042AAXX  07231 15499 42460 83204 10013 886//;
0240154990999992000010810004+43820+028580FM-12+000999999V0202901N004010042019N0100001N1+00001-00151102801ADDAA106000091GF108991081061004501999999IA1099IA2999+00109KA1120M+00101MA1999999102771MD1210101+9999SA1+0389REMSYN104AAXX  08101 15499 32460 82904 10000 21015 30277 4028/ 52010 886// 222// 00038 333 10010 31001 555 55000;EQDQ01  00002PRCP06
0233154990999992000010818004+43820+028580FM-12+000999999V0202901N004010042019N0100001N1+00001-00151102881ADDAA106000091GF108991081061004501999999IA1099KA1120M+00101MA1999999102771MD1210101+9999UA1M999999029REMSYN104AAXX  08181 15499 32460 82904 10000 21015 30277 40288 52010 886// 222// 333 10010 31002 92427 555 55000;EQDQ01  00002PRCP06
0155154990999992000010915004+43820+028580FM-12+000999999V02099999999999999999N0100001N1+99999+99999102911ADDAA106000091GF108991999999004501999999MA1999999102801MD1210061+9999REMSYN058AAXX  09151 15499 32460 829// 30280 40291 52006 333 5247/;EQDQ01  00002PRCP06
0080154990999992000010916004+43820+028580FM-12+000999999V0202901N001010042019N0100001N1-00181+99999999999ADDGF108991081061004501999999REMSYN042AAXX  09161 15499 42460 82901 11018 886//;
0099154990999992000010917004+43820+028580FM-12+000999999V02099999999999999999N0100001N1-00231+99999999999ADDGF108991999061004501999999REMSYN042AAXX  09171 15499 42460 82/0/ 11023 806//;EQDQ01+000002SCOTLC
0247154990999992000010918004+43820+028580FM-12+000999999V0202901N002019999999N0100001N1-00261-00391102881ADDAA106000091GF108991081001999999071999IA1149KA1120M-00261MA1999999102771MD1710031+9999SA1+0409UA1M999999029REMSYN110AAXX  09181 15499 32960 82902 11026 21039 30277 40288 57003 8807/ 222// 00040 333 11026 34102 92427 555 55000;EQDQ01  00002PRCP06
0259154990999992000010919004+43820+028580FM-12+000999999V0202901N002019999999N0100001N1-00261+99999102881ADDAA106000091GF108991081001999999071999IA1149IA2999-00209KA1120M-00261MA1999999102771MD1710031+9999SA1+0409UA1M999999029REMSYN110AAXX  09191 15499 32960 82902 11026 210/9 30277 40288 57003 8807/ 222// 00040 333 11026 34102 92427 555 55000;EQDQ01  00002PRCP06
0080154990999992000010923004+43820+028580FM-12+000999999V0202901N002019999999N0100001N1-00501+99999999999ADDGF108991081001999999071999REMSYN042AAXX  09231 15499 42960 82902 11050 8807/;
0159154990999992000011000004+43820+028580FM-12+000999999V0202901N002019999999N0100001N1-00501-00631102981ADDAA106000091GF108991081001999999071999MA1999999102871REMSYN076AAXX  10001 15499 32960 82902 11050 21063 30287 40298 5//// 8807/ 333 92427;EQDQ01  00002PRCP06
0090154990999992000011005004+43820+028580FM-12+000999999V0202901N003019999999N0100001N1-00741+99999999999ADDGF108991081061999999999999REMSYN052AAXX  10051 15499 42960 82903 11074 886// 333 92600;
0096154990999992000011016004+43820+028580FM-12+000999999V02099999999992200019N0120001N1-00521+99999999999ADDGA1001+999999999GF100991001001999999001001REMSYN042AAXX  10161 15499 42962 02/// 11052 807//;
0080154990999992000011017004+43820+028580FM-12+000999999V0203201N002019999999N0100001N1-00531+99999999999ADDGF108991081001999999071999REMSYN042AAXX  10171 15499 42960 83202 11053 8807/;
0247154990999992000011018004+43820+028580FM-12+000999999V0209999C000019999999N0100001N1-00521-00661103151ADDAA106000091GF108991081001999999071999IA1149KA1120M-00281MA1999999103041MD1210041+9999SA1+0369UA1M999999029REMSYN110AAXX  10181 15499 32960 80000 11052 21066 30304 40315 52004 8807/ 222// 00036 333 11028 34100 92427 555 55002;EQDQ01  00002PRCP06
0074154990999992000011023004+43820+028580FM-12+000999999V0202701N002019999999N0100001N1-00501+99999999999ADDGF108991999999999999999999REMSYN036AAXX  10231 15499 42960 82702 11050;
0175154990999992000011100004+43820+028580FM-12+000999999V02099999999999999999N0100001N1+00522-00661103321ADDAA106000091GF108991081001999999071999MA1999999103211REMSYN076AAXX  11001 15499 32960 8/702 10052 21066 30321 40332 5//// 8807/ 333 92417;EQDQ01+000523ATOT  Q02  00002PRCP06
0090154990999992000011105004+43820+028580FM-12+000999999V02099999999992200019N0100001N1-00481+99999999999ADDGA1001+999999999GF100991001001999999001001REMSYN036AAXX  11051 15499 42460 0290/ 11048;
0222154990999992000011106004+43820+028580FM-12+000999999V0202901N004010042019N0100001N1-00461-00591103531ADDAA106000091GF108991081061004501999999IA1149IA2120-00509KA1120N-00541MA1999999103421SA1+0349REMSYN100AAXX  11061 15499 32460 82904 11046 21059 30342 40353 5//// 886// 222// 00034 333 21054 34105 92427;EQDQ01  00002PRCP06
0108154990999992000011110004+43820+028580FM-12+000999999V0202901N003010042019N0040001N1-00541+99999999999ADDAY121999AY221999GF108991081061004501999999MW1101REMSYN048AAXX  11101 15499 41440 82903 11054 71022 886//;
0080154990999992000011116004+43820+028580FM-12+000999999V0202701N003010042019N0100001N1-00441+99999999999ADDGF108991081061004501999999REMSYN042AAXX  11161 15499 42460 82703 11044 886//;
0247154990999992000011118004+43820+028580FM-12+000999999V0202701N003010042019N0100001N1-00361-00501103731ADDAA106000091GF108991081061004501999999IA1149KA1120M-00341MA1999999103621MD1210071+9999SA1+0309UA1M999999029REMSYN110AAXX  11181 15499 32460 82703 11036 21050 30362 40373 52007 886// 222// 00030 333 11034 34103 92427 555 55000;EQDQ01  00002PRCP06
0222154990999992000011206004+43820+028580FM-12+000999999V0202901N002012200019N0100001N1-00251-00381103701ADDAA106000091GF103991031061004501001001IA1149IA2120-00409KA1120N-00361MA1999999103591SA1+0309REMSYN100AAXX  12061 15499 32460 32902 11025 21038 30359 40370 5//// 83600 222// 00030 333 21036 34104 95427;EQDQ01  00002PRCP06
0080154990999992000011216004+43820+028580FM-12+000999999V0209999C000012200019N0100001N1-00211+99999999999ADDGF102991021001999999041001REMSYN042AAXX  12161 15499 42960 20000 11021 82040;
0257154990999992000011218004+43820+028580FM-12+000999999V0202901N001012200019N0100001N1-00291-00491103731ADDAA106000091GA1001+999999999GF100991001001999999001001IA1149KA1120M-00071MA1999999103621MD1210051+9999SA1+0329UA1M999999029REMSYN104AAXX  12181 15499 32960 02901 11029 21049 30362 40373 52005 222// 00032 333 11007 34102 92427 555 55000;EQDQ01  00002PRCP06
0147154990999992000011300004+43820+028580FM-12+000999999V0202901N002019999999N0100001N1-00181-00401103671ADDAA106000091GF106991999999004501999999MA1999999103561REMSYN064AAXX  13001 15499 32460 62902 11018 21040 30356 40367 5//// 333;EQDQ01  00002PRCP06
0228154990999992000011306004+43820+028580FM-12+000999999V0202901N003010042019N0100001N1-00381-00531103621ADDAA106000091GF108991081061004501999999IA1149IA2120-00309KA1120N-00401MA1999999103511SA1+0329REMSYN106AAXX  13061 15499 32460 82903 11038 21053 30351 40362 5//// 886// 222// 00032 333 21040 34103 92600 92427;EQDQ01  00002PRCP06
0084154990999992000011307004+43820+028580FM-12+000999999V0203201N002012200019N0100001N1+99999+99999999999ADDGF103991001001999999001011REMSYN046AAXX  13071 15499 42960 33202 80001 333 92600;
0199154990999992000011318004+43820+028580FM-12+000999999V0202701N004010042019N0100001N1-00281-00381103431ADDAA106000091GF107991071061004501001001MA1999999103321MD1810031+9999SA1+0339REMSYN094AAXX  13181 15499 32460 72704 11028 21038 30332 40343 58003 87600 222// 00033 3400/ 555 55027;EQDQ01  00002PRCP06
0084154990999992000011416004+43820+028580FM-12+000999999V0202901N002010042019N0100001N1-00081+99999999999ADDGF108991081061004501999999REMSYN046    AAXX  14161 15499 42460 82902 11008 886//;
0112154990999992000011417004+43820+028580FM-12+000999999V0209999C000010042019N0040001N1-00101+99999999999ADDAY121999AY221999GF108991081061004501999999MW1101REMSYN052    AAXX  14171 15499 41440 80000 11010 71022 886//;
0279154990999992000011418004+43820+028580FM-12+000999999V0209999C000010042019N0040001N1-00141-00261103361ADDAA199000091AY121061AY221061GF108991081061004501999999IA1149KA1120M+00041MA1999999103251MD1210061+9999MW1101SA1+0349UA1M999999029REMSYN120    AAXX  14181 15499 31440 80000 11014 21026 30325 40336 52006 71022 886// 222// 00034 333 10004 34003 92426 555 55000;EQDQ01  00002PRCP99
0098154990999992000011423004+43820+028580FM-12+000999999V0209999C000019999999N0040001N1-00441+99999999999ADDAY171999GF108991999999004501999999MW1121REMSYN046    AAXX  14231 15499 41440 80000 11044 7127/;
0179154990999992000011500004+43820+028580FM-12+000999999V0209999C000010042019N0040001N1-00421-00511103311ADDAA199000091GF108991999061004501999061MA1999999103201REMSYN080    AAXX  15001 15499 31440 80000 11042 21051 3032/ 40331 5//// 886/6 333 92426;EQDQ01+000082SCOTLCQ02  00002PRCP99
0104154990999992000011505004+43820+028580FM-12+000999999V0209999C000012200019N0100001N1-00491+99999999999ADDGA1001+999999999GF100991001001999999001001REMSYN050    AAXX  15051 15499 42960 00000 11049 333 92600;
0084154990999992000011517004+43820+028580FM-12+000999999V0209999C000010042019N0100001N1-00191+99999999999ADDGF106991061061004501001001REMSYN046    AAXX  15171 15499 42460 60000 11019 86600;
0279154990999992000011518004+43820+028580FM-12+000999999V0209999C000010042019N0040001N1-00181-00271102781ADDAA199000091AY121061AY221061GF108991081061004501999999IA1149KA1120M-00081MA1999999102671MD1719999+9999MW1101SA1+0329UA1M999999029REMSYN120    AAXX  15181 15499 31440 80000 11018 21027 30267 40278 570/4 71022 886// 222// 00032 333 11008 34002 92426 555 55000;EQDQ01  00002PRCP99
0112154990999992000011523004+43820+028580FM-12+000999999V0203201N001010042019N0040001N1-00261+99999999999ADDAY121999AY221999GF108991081061004501999999MW1101REMSYN052    AAXX  15231 15499 41440 83201 11026 71022 886//;
0191154990999992000011600004+43820+028580FM-12+000999999V0209999C000010042019N0040001N1-00281-00411102691ADDAA199000091AY121061AY221061GF108991081061004501999999MA1999999102581MW1101REMSYN086    AAXX  16001 15499 31440 80000 11028 21041 30258 40269 5//// 71022 886// 333 92426;EQDQ01  00002PRCP99
0084154990999992000011605004+43820+028580FM-12+000999999V0202801N003010042019N0040001N1-00461+99999999999ADDGF108991081061004501999999REMSYN046    AAXX  16051 15499 41440 82803 11046 886//;
0251154990999992000011618004+43820+028580FM-12+000999999V0202701N002010042019N0100001N1-00401-00591102681ADDAA199000091GF108991081061004501999999IA1149KA1120M-00361MA1999999102571MD1210041+9999SA1+0309UA1M999999029REMSYN114    AAXX  16181 15499 32460 82702 11040 21059 30257 40268 52004 886// 222// 00030 333 11036 34101 92427 555 55000;EQDQ01  00002PRCP99
0084154990999992000011623004+43820+028580FM-12+000999999V0209999C000010042019N0100001N1-00421+99999999999ADDGF108991081061004501999999REMSYN046    AAXX  16231 15499 42460 80000 11042 886//;
0163154990999992000011700004+43820+028580FM-12+000999999V0209999C000010042019N0100001N1-00421-00611102431ADDAA199000091GF108991081061004501999999MA1999999102321REMSYN080    AAXX  17001 15499 32460 80000 11042 21061 30232 40243 5//// 886// 333 92427;EQDQ01  00002PRCP99
0084154990999992000011705004+43820+028580FM-12+000999999V0209999C000010042019N0100001N1-00401+99999999999ADDGF108991081061004501999999REMSYN046    AAXX  17051 15499 42460 80000 11040 886//;
0251154990999992000011718004+43820+028580FM-12+000999999V0202901N003010042019N0100001N1-00181-00631100431ADDAA199000091GF107991071061004501001001IA1149KA1120M+00001MA1999999100321MD1710271+9999SA1+0309UA1M999999029REMSYN114    AAXX  17181 15499 32460 72903 11018 21063 30032 40043 57027 87600 222// 00030 333 10000 34001 92427 555 55000;EQDQ01  00002PRCP99
0084154990999992000011723004+43820+028580FM-12+000999999V0202901N004010042019N0100001N1-00161+99999999999ADDGF108991061071004501021999REMSYN046    AAXX  17231 15499 42460 82904 11016 8672/;
0195154990999992000011800004+43820+028580FM-12+000999999V0202901N004010042019N0100001N1-00161-00381099462ADDAA199000091GF108991061071004501021999MA1999999099352REMSYN080    AAXX  18001 15499 32460 82904 11016 21038 39935 49946 5//// 8672/ 333 92427;EQDQ01+099353APOSP Q02+099463APOSLPQ03  00002PRCP99
0212154990999992000011818004+43820+028580FM-12+000999999V0202501N002012200019N0100001N1+00021-00381099431ADDGA1001+999999999GF100991001001999999001001IA1099MA1999999099321MD1210161+9999SA1+0349UA1M999999029REMSYN102    AAXX  18181 15499 42960 02502 10002 21038 39932 49943 52016 222// 00034 333 31007 92427 555 55003;
0084154990999992000011823004+43820+028580FM-12+000999999V0202701N004019999999N0100001N1-00191+99999999999ADDGF106991001001999999001061REMSYN046    AAXX  18231 15499 42960 62704 11019 80006;
0104154990999992000011905004+43820+028580FM-12+000999999V0202701N004012200019N0100001N1-00261+99999999999ADDGA1001+999999999GF100991001001999999001001REMSYN050    AAXX  19051 15499 42960 02704 11026 333 92600;
0242154990999992000011906004+43820+028580FM-12+000999999V0202701N004012200019N0100001N1-00261-00451100051ADDAA199000091GA1001+999999999GF100991001001999999001001IA1149IA2120-00409KA1120N-00281MA1999999099941SA1+0329REMSYN104    AAXX  19061 15499 32960 02704 11026 21045 39994 40005 5//// 222// 00032 333 21028 34104 92600 92427;EQDQ01  00002PRCP99
0157154990999992000011915004+43820+028580FM-12+000999999V0202901N003012200019N0100001N1+00061-00341100501ADDAA199000091GF103991011001999999041011MA1999999100391REMSYN074    AAXX  19151 15499 32960 32903 10006 21034 30039 40050 81041 333 92427;EQDQ01  00002PRCP99
0080154990999992000011916004+43820+028580FM-12+000999999V0202901N002012200019N0100001N1-00041+99999999999ADDGF102991011001999999041011REMSYN042AAXX  19161 15499 42960 22902 11004 81041;
0257154990999992000011918004+43820+028580FM-12+000999999V0202901N002012200019N0100001N1-00081-00331100701ADDAA199000091GA1001+999999999GF100991001001999999001001IA1149KA1120M+00281MA1999999100591MD1210201+9999SA1+0389UA1M999999029REMSYN104AAXX  19181 15499 32960 02902 11008 21033 30059 40070 52020 222// 00038 333 10028 34008 92427 555 55034;EQDQ01  00002PRCP99
0183154990999992000012015004+43820+028580FM-12+000999999V0203201N002012200019N0100001N1-00301-00761101891ADDAA199000091GA1001+999999999GF100991001001999999001001MA1999999101781MD1110031+9999REMSYN070AAXX  20151 15499 32960 03202 11030 21076 30178 40189 51003 333 92427;EQDQ01  00002PRCP99
0090154990999992000012016004+43820+028580FM-12+000999999V0202701N003012200019N0100001N1-00341+99999999999ADDGA1001+999999999GF100991001001999999001001REMSYN036AAXX  20161 15499 42960 02703 11034;
0090154990999992000012017004+43820+028580FM-12+000999999V0202701N002012200019N0100001N1-00341+99999999999ADDGA1001+999999999GF100991001001999999001001REMSYN036AAXX  20171 15499 42960 02702 11034;
0257154990999992000012018004+43820+028580FM-12+000999999V0202701N003012200019N0100001N1-00341-00701101851ADDAA199000091GA1001+999999999GF100991001001999999001001IA1099KA1120M-00181MA1999999101741MD1710041+9999SA1+0409UA1M999999029REMSYN104AAXX  20181 15499 32960 02703 11034 21070 30174 40185 57004 222// 00040 333 11018 31002 92427 555 55016;EQDQ01  00002PRCP99
0090154990999992000012105004+43820+028580FM-12+000999999V0202901N005012200019N0100001N1-00351+99999999999ADDGA1001+999999999GF100991001001999999001001REMSYN036AAXX  21051 15499 42960 02905 11035;
0216154990999992000012106004+43820+028580FM-12+000999999V0202701N006019999999N0100001N1-00221+99999101011ADDAA199000091GF107991011001999999041081IA1149IA2120-00509KA1120N-00381MA1999999100901SA1+0429REMSYN094AAXX  21061 15499 32960 72706 11022 30090 40101 5//// 81048 222// 00042 333 21038 34105 92427;EQDQ01  00002PRCP99
0080154990999992000012116004+43820+028580FM-12+000999999V0202501N008019999999N0110001N1+00401+99999999999ADDGF108991081001999999071999REMSYN042AAXX  21161 15499 42961 82508 10040 8807/;
0247154990999992000012118004+43820+028580FM-12+000999999V0202501N010012200019N0100001N1+00401-00291099801ADDAA199000091GF101991011001999999041001IA1019KA1120M+00461MA1999999099691MD1710151+9999SA1+0429UA1M999999039REMSYN110AAXX  21181 15499 32960 12510 10040 21029 39969 49980 57015 81040 222// 00042 333 10046 30005 92437 555 55011;EQDQ01  00002PRCP99
0080154990999992000012204004+43820+028580FM-12+000999999V0202701N003010042019N0100001N1-00281+99999999999ADDGF108991081061004501999999REMSYN042AAXX  22041 15499 42460 82703 11028 886//;
0248154990999992000012206004+43820+028580FM-12+000999999V0202701N004010042019N0100001N1-00361-00611101191ADDAA199000091AJ100019199999999GF108991081061004501999999IA1289IA2120-00309KA1120N-00381MA1999999101081UA1M999999029REMSYN104AAXX  22061 15499 32460 82704 11036 21061 30108 40119 5//// 886// 333 21038 3/103 44001 92427 555 60004;EQDQ01  00002PRCP99
0080154990999992000012207004+43820+028580FM-12+000999999V0203401N004010042019N0100001N1-00381+99999999999ADDGF106991061061004501001001REMSYN042AAXX  22071 15499 42460 63404 11038 86600;
0090154990999992000012216004+43820+028580FM-12+000999999V0202701N005012200019N0100001N1-00361+99999999999ADDGA1001+999999999GF100991001001999999001001REMSYN036AAXX  22161 15499 42960 02705 11036;
0090154990999992000012217004+43820+028580FM-12+000999999V0202701N004012200019N0100001N1-00401+99999999999ADDGA1001+999999999GF100991001001999999001001REMSYN036AAXX  22171 15499 42960 02704 11040;
0296154990999992000012218004+43820+028580FM-12+000999999V0202701N003012200019N0100001N1-00481-00801101931ADDAA199000091AJ199992999999999GA1001+999999999GF100991001001999999001001IA1289KA1120M-00161MA1999999101821MD1210091+9999SA1+0329UA1M999999029REMSYN110AAXX  22181 15499 32960 02703 11048 21080 30182 40193 52009 222// 00032 333 11016 3/001 44998 92427 555 55023;EQDQ01  00002PRCP99Q02  09972SNDP  
0080154990999992000012223004+43820+028580FM-12+000999999V0202701N002012200019N9999999N1-00761+99999999999ADDGF103991001001999999001011REMSYN042AAXX  22231 15499 4296/ 32702 11076 80001;
0261154990999992000012306004+43820+028580FM-12+000999999V0209999C000019999999N0100001N1-00761-01061101911ADDAA199000091AJ199992999999999GF105991051001999999071001IA1289IA2120-00809KA1120N-00801MA1999999101801SA1+0309REMSYN106AAXX  23061 15499 32960 50000 11076 21106 30180 40191 5//// 85070 222// 00030 333 21080 3/108 44998 92427;EQDQ01  00002PRCP99Q02  09972SNDP  
0080154990999992000012307004+43820+028580FM-12+000999999V0209999C000019999999N0100001N1-00741+99999999999ADDGF105991051001999999071001REMSYN042AAXX  23071 15499 42960 50000 11074 85070;
0153154990999992000012315004+43820+028580FM-12+000999999V0201601N008019999999N0100001N1+00301-00311101321ADDAA199000091GF108991081001999999071999MA1999999101211REMSYN070AAXX  23151 15499 32960 81608 10030 21031 30121 40132 8807/ 333 92437;EQDQ01  00002PRCP99
0099154990999992000012316004+43820+028580FM-12+000999999V0202601N999999999999N0100001N1+00281+99999999999ADDGF108991081001999999071999REMSYN042AAXX  23161 15499 42960 87610 10028 8807/;EQDQ01+011001WOSPD 
0080154990999992000012317004+43820+028580FM-12+000999999V0201401N010019999999N0100001N1+00361+99999999999ADDGF108991081001999999071999REMSYN042AAXX  23171 15499 42960 81410 10036 8807/;
0220154990999992000012318004+43820+028580FM-12+000999999V02099999999999999999N9999999N1-00582-00651100791ADDAA103000591AJ100069199999999AY171061AY221061IA1279KA1120M-00521MD1710201+9999MW1101REMSYN106AAXX  23181 15499 /149/ //907 11058 21065 39943 40079 57020 69952 71072 8672/ 333 11052 3/104 43006 69947;EQDQ01+099433APOSP 
0100154990999992000012323004+43820+028580FM-12+000999999V0201401N010010042019N0100001N1+00441+99999999999ADDAY161999GF108991061071004501021999MW1211REMSYN048AAXX  23231 15499 41460 81410 10044 7216/ 8672/;
0172154990999992000012400004+43820+028580FM-12+000999999V0201401N010010042019N0100001N1+00441+00291100611ADDAA103000491AY161061GF108991061071004501021999MA1999999100501MW1021REMSYN094AAXX  24001 15499 11460 81410 10044 20029 30050 40061 5//// 69941 7026/ 8672/ 333 69947 92447;
0203154990999992000012406004+43820+028580FM-12+000999999V0201401N004010042019N0100001N1+00651+00471099991ADDAA112000591GF108991081061004501999999MA1999999099881SA1+0329UA1M001909999UG2999990309REMSYN106AAXX  24061 15499 12460 81404 10065 20047 39988 49999 5//// 69942 886// 222// 00032 20038 30003 555 60004;
0108154990999992000012408004+43820+028580FM-12+000999999V02099999999990042019N0110001N1+00121+99999999999ADDAY161999AY221999GF108991061071004501021999MW1211REMSYN048AAXX  24081 15499 41461 88/04 10012 72162 8672/;
0183154990999992000012415004+43820+028580FM-12+000999999V0201101N999999999999N9999999N1+99999+99999999999ADDAA199000021GF107991001001999999999999MA1999999100391MD1219999+9999REMSYN070AAXX  24151 15499 32//1 76106 21076 30039 400// 52/21 806// 333 92437;EQDQ01+010601WOSPD Q02+000062SCOLCG
0080154990999992000012416004+43820+028580FM-12+000999999V0202901N010010042019N0100001N1-00631+99999999999ADDGF108991081061004501999999REMSYN042AAXX  24161 15499 42460 82910 11063 886//;
0080154990999992000012417004+43820+028580FM-12+000999999V0202901N010010042019N0100001N1+99999+99999999999ADDGF108991081061004501999999REMSYN042AAXX  24171 15499 42460 82910 1//// 886//;
0263154990999992000012418004+43820+028580FM-12+000999999V0202901N006010042019N0100001N1-00691-00851100931ADDAA112000591AJ100019199999999GF108991081061004501999999IA1289KA1120M+00651MA1999999100821MD1210431+9999SA1+0309UA1M999999039REMSYN128AAXX  24181 15499 32460 82906 11069 21085 30082 40093 52043 69962 886// 222// 00030 333 10065 3/004 44001 92437 92822 555 55000;
0080154990999992000012423004+43820+028580FM-12+000999999V0202901N005010042019N9999999N1-00701+99999999999ADDGF108991081061004501999999REMSYN042AAXX  24231 15499 424/0 82905 11070 886//;
0182154990999992000012500004+43820+028580FM-12+000999999V0202901N008019999999N0100001N1-00701-00901101351ADDAA199000091AJ100019199999999GF108991081061999999999999IA1289MA1999999101241REMSYN076AAXX  25001 15499 32960 82908 11070 21090 30124 40135 886// 333 44001 92437;EQDQ01  00002PRCP99
0092154990999992000012505004+43820+028580FM-12+000999999V0202701N008010042019N0100001N1-00881+99999999999ADDGF108991061071004501021999MW1711REMSYN048AAXX  25051 15499 41460 82708 11088 771// 8672/;
0281154990999992000012506004+43820+028580FM-12+000999999V0203401N007010042019N0100001N1-00881-01031101841ADDAA112000191AJ100019199999999AY171061GF108991061071004501021999IA1289IA2120-00609KA1120N-00901MA1999999101731MW1711SA1+0289UA1M999999039REMSYN134AAXX  25061 15499 /1460 83407 11088 21103 30173 40184 5//// 69922 7717/ 8672/ 222// 00028 333 21090 3/106 44001 92802 92437 555 60008;
0108154990999992000012507004+43820+028580FM-12+000999999V0203401N006010042019N0100001N1-00881+99999999999ADDAY171999AY221999GF108991061071004501021999MW1211REMSYN048AAXX  25071 15499 41460 83406 11088 72172 8672/;
0080154990999992000012516004+43820+028580FM-12+000999999V0203201N002012200019N0100001N1-00831+99999999999ADDGF102991001001999999001011REMSYN042AAXX  25161 15499 42960 23202 11083 80001;
0080154990999992000012517004+43820+028580FM-12+000999999V0203201N002012200019N0100001N1-00861+99999999999ADDGF102991001001999999001061REMSYN042AAXX  25171 15499 42960 23202 11086 80006;
0183154990999992000012615004+43820+028580FM-12+000999999V0202701N004012200019N0100001N1-00501-01041102311ADDAA199000091GA1001+999999999GF100991001001999999001001MA1999999102201MD1710041+9999REMSYN070AAXX  26151 15499 32960 02704 11050 21104 30220 40231 57004 333 92427;EQDQ01  00002PRCP99
0090154990999992000012616004+43820+028580FM-12+000999999V0202701N003012200019N0100001N1-00601+99999999999ADDGA1001+999999999GF100991001001999999001001REMSYN036AAXX  26161 15499 42960 02703 11060;
0090154990999992000012617004+43820+028580FM-12+000999999V0202701N002012200019N0100001N1-00741+99999999999ADDGA1001+999999999GF100991001001999999001001REMSYN036AAXX  26171 15499 42960 02702 11074;
0280154990999992000012618004+43820+028580FM-12+000999999V0202701N002012200019N0100001N1-00761-01111102381ADDAA199000091AJ100019199999999GA1001+999999999GF100991001001999999001001IA1289KA1120M-00461MA1999999102271MD1210071+9999SA1+0189UA1M999999029REMSYN110AAXX  26181 15499 32960 02702 11076 21111 30227 40238 52007 222// 00018 333 11046 3/101 44001 92427 555 55031;EQDQ01  00002PRCP99
0074154990999992000012705004+43820+028580FM-12+000999999V0202701N002019999999N0100001N1+99999+99999999999ADDGF106991061001999999071001REMSYN036AAXX  27051 15499 42960 62702 86070;
0210154990999992000012706004+43820+028580FM-12+000999999V0202701N002012200019N0100001N1-00751-01011102301ADDAA199000091GF102991999999999999999999IA2120-00909KA1120N-00751MA1999999102191SA1+0169REMSYN094AAXX  27061 15499 32960 22702 11075 21101 30219 40230 5//// 222// 00016 333 21075 3/109 92427;EQDQ01  00002PRCP99
0080154990999992000012707004+43820+028580FM-12+000999999V0202701N002012200019N0100001N1-00681+99999999999ADDGF103991031001999999041001REMSYN042AAXX  27071 15499 42960 32702 11068 83040;
0080154990999992000012713004+43820+028580FM-12+000999999V0209999C000019999999N0100001N1-00091+99999999999ADDGF108991081001999999071999REMSYN042AAXX  27131 15499 42960 80000 11009 8807/;
0080154990999992000012714004+43820+028580FM-12+000999999V0202901N001019999999N0100001N1-00031+99999999999ADDGF108991081001999999071999REMSYN042AAXX  27141 15499 42960 82901 11003 8807/;
0173154990999992000012715004+43820+028580FM-12+000999999V0202701N003019999999N0100001N1-00021-00381102251ADDAA199000091GF106991061001999999071001MA1999999102741MD1710031+9999REMSYN076AAXX  27151 15499 32960 62703 11002 21038 30274 40225 57003 86070 333 92427;EQDQ01  00002PRCP99
0080154990999992000012716004+43820+028580FM-12+000999999V0202701N003012200019N0100001N1-00161+99999999999ADDGF101991011001999999041001REMSYN042AAXX  27161 15499 42960 12703 11016 81040;
0090154990999992000012717004+43820+028580FM-12+000999999V0202701N002012200019N0100001N1-00241+99999999999ADDGA1001+999999999GF100991001001999999001001REMSYN036AAXX  27171 15499 42960 02702 11024;
0099154990999992000012723004+43820+028580FM-12+000999999V0202701N002019999999N0100001N1-00421+99999999999ADDGF108991001001999999999999REMSYN042AAXX  27231 15499 42960 82702 11042 807//;EQDQ01+000072SCOLCG
0198154990999992000012800004+43820+028580FM-12+000999999V0202701N003012200019N0100001N1-00441-00661102341ADDAA199000091AJ100019199999999GA1001+999999999GF100991001001999999001001IA1289MA1999999102231REMSYN076AAXX  28001 15499 32960 02703 11044 21066 30223 40234 5//// 333 44001 92427;EQDQ01  00002PRCP99
0090154990999992000012805004+43820+028580FM-12+000999999V0202901N003012200019N0100001N1-00481+99999999999ADDGA1001+999999999GF100991001001999999001001REMSYN036AAXX  28051 15499 42960 02903 11048;
0247154990999992000012806004+43820+028580FM-12+000999999V0202901N003012200019N0100001N1-00481-00681102281ADDAA199000091AJ100019199999999GA1001+999999999GF100991001001999999001001IA1289IA2120-00509KA1120N-00501MA1999999102171REMSYN100AAXX  28061 15499 32960 02903 11048 21068 30217 40228 5//// 222// 08018 333 21050 3/105 44001 92427;EQDQ01  00002PRCP99
0090154990999992000012807004+43820+028580FM-12+000999999V0202901N002012200019N0100001N1-00421+99999999999ADDGA1001+999999999GF100991001001999999001001REMSYN036AAXX  28071 15499 42960 02902 11042;
0090154990999992000012813004+43820+028580FM-12+000999999V0202701N002012200019N0100001N1+00291+99999999999ADDGA1001+999999999GF100991001001999999001001REMSYN036AAXX  28131 15499 42960 02702 10029;
0183154990999992000012815004+43820+028580FM-12+000999999V0209999C000012200019N0100001N1+00251-00141102001ADDAA199000091GA1001+999999999GF100991001001999999001001MA1999999101891MD1710081+9999REMSYN070AAXX  28151 15499 32960 00000 10025 21014 30189 40200 57008 333 92427;EQDQ01  00002PRCP99
0090154990999992000012816004+43820+028580FM-12+000999999V0209999C000012200019N0100001N1+00121+99999999999ADDGA1001+999999999GF100991001001999999001001REMSYN036AAXX  28161 15499 42960 00000 10012;
0090154990999992000012817004+43820+028580FM-12+000999999V0209999C000012200019N0100001N1+00061+99999999999ADDGA1001+999999999GF100991001001999999001001REMSYN036AAXX  28171 15499 42960 00000 10006;
0257154990999992000012818004+43820+028580FM-12+000999999V0209999C000012200019N0100001N1+00041-00161102011ADDAA199000091GA1001+999999999GF100991001001999999001001IA1149KA1120M+00311MA1999999101971MD1210081+9999SA1+0209UA1M999999029REMSYN104AAXX  28181 15499 32960 00000 10004 21016 30197 40201 52008 222// 00020 333 10031 34007 92427 555 55034;EQDQ01  00002PRCP99
0100154990999992000012823004+43820+028580FM-12+000999999V0209999C000012200019N0100001N1-00241+99999999999ADDGA1001+999999999GF100991001001999999001001REMSYN046AAXX  28231 15499 42960 00000 11024 333 92600;
0175154990999992000012900004+43820+028580FM-12+000999999V0209999C000012200019N0100001N1-00261-00491102021ADDAA199000091GA1001+999999999GF100991001001999999001001MA1999999101911REMSYN076AAXX  29001 15499 32960 00000 11026 21049 30191 40202 5//// 333 92600 92427;EQDQ01  00002PRCP99
0090154990999992000012905004+43820+028580FM-12+000999999V0202701N002010075019N0100001N1-00341+99999999999ADDGF106991061051008001001001REMSYN052AAXX  29051 15499 42560 62702 11034 86500 333 92600;
0173154990999992000012915004+43820+028580FM-12+000999999V0209999C000012200019N0100001N1+00301-00421101981ADDAA199000091GF103991001001999999001021MA1999999101871MD1610021+9999REMSYN076AAXX  29151 15499 32960 30000 10030 21042 30187 40198 56002 80002 333 92427;EQDQ01  00002PRCP99
0080154990999992000012916004+43820+028580FM-12+000999999V0209999C000012200019N0100001N1+00281+99999999999ADDGF102991001001999999001021REMSYN042AAXX  29161 15499 42960 20000 10028 80002;
0090154990999992000012917004+43820+028580FM-12+000999999V0202501N002012200019N0100001N1+00141+99999999999ADDGA1001+999999999GF100991001001999999001001REMSYN036AAXX  29171 15499 42960 02502 10014;
0153154990999992000013000004+43820+028580FM-12+000999999V0202701N002012200019N0100001N1+00121+99999101131ADDAA199000091GA1001+999999999GF100991001001999999001001MA1999999101721REMSYN054AAXX  30001 15499 32960 02702 10012 30172 40113 5////;EQDQ01  00002PRCP99
0232154990999992000013006004+43820+028580FM-12+000999999V0200901N002012200019N0100001N1+00041-00231101401ADDAA199000091GA1001+999999999GF100991001001999999001001IA1149IA2120+00009KA1120N+00001MA1999999101291SA1+0209REMSYN094AAXX  30061 15499 32960 00902 10004 21023 30129 40140 5//// 222// 00020 333 20000 34100 92427;EQDQ01  00002PRCP99
0138154990999992000013015004+43820+028580FM-12+000999999V0202501N002019999999N0100001N1+99999+99999999999ADDAA199000091GF108991999999999999999999REMSYN070AAXX  30151 15499 32960 82502 2=007 30094 40105 57011 8807/ 333 92427;EQDQ01  00002PRCP99
0080154990999992000013016004+43820+028580FM-12+000999999V0202501N002019999999N0100001N1+00601+99999999999ADDGF108991081001999999071999REMSYN042AAXX  30161 15499 42960 82502 10060 8807/;
0080154990999992000013017004+43820+028580FM-12+000999999V0202501N002010042019N0100001N1+00561+99999999999ADDGF108991081061004501999999REMSYN042AAXX  30171 15499 42460 82502 10056 886//;
0247154990999992000013018004+43820+028580FM-12+000999999V0202501N002010042019N0100001N1+00521-00071101141ADDAA199000091GF108991081061004501999999IA1099KA1120M+00741MA1999999101031MD1210091+9999SA1+0259UA1M999999029REMSYN110AAXX  30181 15499 32460 82502 10052 21007 30103 40114 52009 886// 222// 00025 333 10074 31008 92427 555 55003;EQDQ01  00002PRCP99
0159154990999992000013100004+43820+028580FM-12+000999999V0202901N004010042019N0100001N1+00561+00161101561ADDAA199000091GF108991081061004501999999MA1999999101451REMSYN076AAXX  01001 15499 32460 82904 10056 20016 30145 40156 5//// 886// 333 92427;EQDQ01  00002PRCP99
0080154990999992000013116004+43820+028580FM-12+000999999V0202001N004019999999N0100001N1+00761+99999999999ADDGF106991061001999999071001REMSYN042AAXX  31161 15499 42960 62004 10076 86070;
0080154990999992000013117004+43820+028580FM-12+000999999V0202001N002010042019N0100001N1+00641+99999999999ADDGF108991081061004501999999REMSYN042AAXX  31171 15499 42460 82002 10064 886//;
0080154990999992000013123004+43820+028580FM-12+000999999V0202901N004010042019N0100001N1+00581+99999999999ADDGF108991081061004501999999REMSYN042AAXX  31231 15499 42460 82904 10058 886//;
0222154990999992000020106004+43820+028580FM-12+000999999V0202701N004010075019N0100001N1+00401+00221102161ADDAA199000091GF106991061051008001001001IA1099IA2120+00109KA1120N+00301MA1999999102051SA1+0309REMSYN100AAXX  01061 15499 32560 62704 10040 20022 30205 40216 5//// 86500 222// 00030 333 20030 31001 92427;EQDQ01  00002PRCP99
0080154990999992000020107004+43820+028580FM-12+000999999V0202701N002010075019N0100001N1+00401+99999999999ADDGF105991051051008001001001REMSYN042AAXX  01071 15499 42560 52702 10040 85500;
0257154990999992000020118004+43820+028580FM-12+000999999V0200701N002012200019N0100001N1+00501+00121102771ADDAA199000091GA1001+999999999GF100991001001999999001001IA1099KA1120M+01001MA1999999102661MD1210031+9999SA1+0409UA1M999999029REMSYN104AAXX  01181 15499 32960 00702 10050 20012 30266 40277 52003 222// 00040 333 10100 31016 92427 555 55021;EQDQ01  00002PRCP99
0109154990999992000020211004+43820+028580FM-12+000999999V0203201N999992200019N0100001N1+01221+99999999999ADDGA1001+999999999GF100991001001999999001001REMSYN036AAXX  02111 15499 42960 03282 10122;EQDQ01+008203WOSPD 
0090154990999992000020214004+43820+028580FM-12+000999999V0202501N002012200019N0100001N1+01421+99999999999ADDGA1001+999999999GF100991001001999999001001REMSYN036AAXX  02141 15499 42960 02502 10142;
0169154990999992000020215004+43820+028580FM-12+000999999V0209999C000012200019N0100001N1+01221+00681101631ADDAA199000091GF101991001001999999001011MA1999999101521MD1710201+9999REMSYN072AAXX  02151 15499 32960 10000 10122 20068 30152 40163 57020 80001 222//;EQDQ01  00002PRCP99
0080154990999992000020216004+43820+028580FM-12+000999999V0201601N002019999999N0100001N1+01021+99999999999ADDGF105991001001999999001061REMSYN042AAXX  02161 15499 42960 51602 10102 80006;
0080154990999992000020217004+43820+028580FM-12+000999999V0201601N002019999999N0100001N1+00821+99999999999ADDGF106991001001999999001061REMSYN042AAXX  02171 15499 42960 61602 10082 80006;
0257154990999992000020218004+43820+028580FM-12+000999999V0209999C000012200019N0100001N1+00781+00291101521ADDAA199000091GA1001+999999999GF100991001001999999001001IA1099KA1120M+01441MA1999999101411MD1710111+9999SA1+0389UA1M999999029REMSYN104AAXX  02181 15499 32960 00000 10078 20029 30141 40152 57011 222// 00038 333 10144 31017 92427 555 55041;EQDQ01  00002PRCP99
0169154990999992000020300004+43820+028580FM-12+000999999V0209999C000012200019N0100001N1+00511+00211101321ADDAA199000091GA1001+999999999GF100991001001999999001001MA1999999101211REMSYN070AAXX  03001 15499 32960 00000 10051 20021 30121 40132 5//// 333 92427;EQDQ01  00002PRCP99
0090154990999992000020305004+43820+028580FM-12+000999999V0202701N005012200019N0100001N1+00661+99999999999ADDGA1001+999999999GF100991001001999999001001REMSYN036AAXX  03051 15499 42960 02705 10066;
0080154990999992000020310004+43820+028580FM-12+000999999V0202701N006012200019N0100001N1+01041+99999999999ADDGF104991021001999999031011REMSYN042AAXX  03101 15499 42960 42706 10104 82031;
0080154990999992000020311004+43820+028580FM-12+000999999V0202701N005019999999N0100001N1+01081+99999999999ADDGF106991001001999999001061REMSYN042AAXX  03111 15499 42960 62705 10108 80006;
0152154990999992000020315004+43820+028580FM-12+000999999V0202701N001019999999N0100001N1+00941+00641101541ADDAA199000091GF108991081001999999071999MD1210161+9999REMSYN070AAXX  03151 15499 32960 82701 10094 20064 40154 52016 8807/ 333 92427;EQDQ01  00002PRCP99
0080154990999992000020316004+43820+028580FM-12+000999999V0202701N002019999999N0100001N1+00821+99999999999ADDGF108991081001999999071999REMSYN042AAXX  03161 15499 42960 82702 10082 8807/;
0080154990999992000020317004+43820+028580FM-12+000999999V0202701N004010360019N0100001N1+00741+99999999999ADDGF108991041061004501071999REMSYN042AAXX  03171 15499 42460 82704 10074 8467/;
0246154990999992000020318004+43820+028580FM-12+000999999V0203401N004019999999N0100001N1+00641+00481101891ADDAA199000091GF108991999999004501999999IA1099KA1120M+01161MA1999999101781MD1210351+9999SA1+0369UA1M999999029REMSYN109AAXX  03181 15499 32460 83404 10064 20048 30178 40189 52035 886/ 222// 00036 333 10116 31017 92427 555 55031;EQDQ01  00002PRCP99
0080154990999992000020323004+43820+028580FM-12+000999999V0202701N005010042019N0100001N1+00361+99999999999ADDGF108991081061004501999999REMSYN042AAXX  03231 15499 42460 82705 10036 886//;
0166154990999992000020400004+43820+028580FM-12+000999999V0202701N004010042019N0100001N1+00321+00221102241ADDAA106001091AY161061GF108991081061004501999999MA1999999102131MW1021REMSYN088AAXX  04001 15499 11460 82704 10032 20022 30213 40224 5//// 60011 7026/ 886// 333 92427;
0090154990999992000020417004+43820+028580FM-12+000999999V0203401N002012200019N0100001N1+00081+99999999999ADDGA1001+999999999GF100991001001999999001001REMSYN036AAXX  04171 15499 42960 03402 10008;
0244154990999992000020418004+43820+028580FM-12+000999999V0209999C000012200019N0100001N1+00061-00271103511ADDAA112000191GA1001+999999999GF100991001001999999001001IA1149KA1120M+00461MA1999999103401MD1210171+9999SA1+0489UA1M999999029REMSYN110AAXX  04181 15499 12960 00000 10006 21027 30340 40351 52017 69922 222// 00048 333 10046 34005 92427 555 55001;
0173154990999992000020515004+43820+028580FM-12+000999999V02099999999999999999N0100001N1+00521-00491102061ADDAA199000091GF108991081001999999071999MA1999999101951MD1710311+9999REMSYN076AAXX  05151 15499 32960 825/5 10052 21049 30195 40206 57031 8807/ 333 92427;EQDQ01  00002PRCP99
0080154990999992000020516004+43820+028580FM-12+000999999V0202501N002019999999N0100001N1+00461+99999999999ADDGF108991081001999999071999REMSYN042AAXX  05161 15499 42960 82502 10046 8807/;
0080154990999992000020517004+43820+028580FM-12+000999999V0202501N002019999999N0100001N1+00441+99999999999ADDGF108991081001999999071999REMSYN042AAXX  05171 15499 42960 82502 10044 8807/;
0227154990999992000020518004+43820+028580FM-12+000999999V0202501N001010042019N0100001N1+00361-00241102061ADDAA199000091GF108991081061004501999999IA1099KA1120M+00621MA1999999101951MD1410001+9999UA1M999999029REMSYN098AAXX  05181 15499 32460 82501 10036 21024 30195 40206 54000 886// 333 10062 31008 92427 555 55042;EQDQ01  00002PRCP99
0080154990999992000020610004+43820+028580FM-12+000999999V0202701N003010042019N0100001N1+00681+99999999999ADDGF108991081061004501999999REMSYN042AAXX  06101 15499 42460 82703 10068 886//;
0080154990999992000020613004+43820+028580FM-12+000999999V0202701N002010042019N0100001N1+00821+99999999999ADDGF108991081061004501999999REMSYN042AAXX  06131 15499 42460 82702 10082 886//;
0163154990999992000020615004+43820+028580FM-12+000999999V0209999C000010042019N0100001N1+00801+00481102531ADDAA199000091GF108991081061004501999999MA1999999102421MD1710031+9999REMSYN066AAXX  06151 15499 32460 80000 10080 20048 30242 40253 57003 886//;EQDQ01  00002PRCP99
0080154990999992000020616004+43820+028580FM-12+000999999V0209999C000012200019N0100001N1+00761+99999999999ADDGF104991041001999999041001REMSYN042AAXX  06161 15499 42960 40000 10076 84040;
0080154990999992000020617004+43820+028580FM-12+000999999V0209999C000012200019N0100001N1+00731+99999999999ADDGF103991031001999999041001REMSYN042AAXX  06171 15499 42960 30000 10073 83040;
0247154990999992000020618004+43820+028580FM-12+000999999V0209999C000012200019N0100001N1+00681+00521102611ADDAA199000091GF102991021001999999041001IA1099KA1120M+00881MA1999999102501MD1210081+9999SA1+0409UA1M999999029REMSYN110AAXX  06181 15499 32960 20000 10068 20052 30250 40261 52008 82040 222// 00040 333 10088 31013 92427 555 55010;EQDQ01  00002PRCP99
0232154990999992000020706004+43820+028580FM-12+000999999V0202501N002012200019N0100001N1+00421+00321102521ADDAA199000091GA1001+999999999GF100991001001999999001001IA1099IA2120+00309KA1120N+00401MA1999999102411SA1+0449REMSYN094AAXX  07061 15499 32960 02502 10042 20032 30241 40252 5//// 222// 00044 333 20040 31003 92427;EQDQ01  00002PRCP99
0090154990999992000020707004+43820+028580FM-12+000999999V0202501N004012200019N0100001N1+00561+99999999999ADDGA1001+999999999GF100991001001999999001001REMSYN036AAXX  07071 15499 42960 02504 10056;
0090154990999992000020716004+43820+028580FM-12+000999999V02099999999992200019N0100001N1+00781+99999999999ADDGA1001+999999999GF100991001001999999001001REMSYN036AAXX  07161 15499 42960 0//00 10078;
0090154990999992000020717004+43820+028580FM-12+000999999V0209999C000012200019N0100001N1+00721+99999999999ADDGA1001+999999999GF100991001001999999001001REMSYN036AAXX  07171 15499 42960 00000 10072;
0257154990999992000020718004+43820+028580FM-12+000999999V0201801N002012200019N0100001N1+00801+00741102261ADDAA199000091GA1001+999999999GF100991001001999999001001IA1099KA1120M+01381MA1999999102151MD1610021+9999SA1+0529UA1M999999029REMSYN104AAXX  07181 15499 32960 01802 10080 20074 30215 40226 56002 222// 00052 333 10138 31021 92427 555 55031;EQDQ01  00002PRCP99
0090154990999992000020723004+43820+028580FM-12+000999999V0201401N002012200019N0100001N1+00641+99999999999ADDGA1001+999999999GF100991001001999999001001REMSYN036AAXX  07231 15499 42960 01402 10064;
0090154990999992000020816004+43820+028580FM-12+000999999V0201401N001012200019N0100001N1+00891+99999999999ADDGA1001+999999999GF100991001001999999001001REMSYN036AAXX  08161 15499 42960 01401 10089;
0232154990999992000020906004+43820+028580FM-12+000999999V0209999C000012200019N0100001N1+00761+00461101171ADDAA199000091GA1001+999999999GF100991001001999999001001IA1099IA2120+00409MA1999999101061SA1+0479UA1M003709999REMSYN094AAXX  09061 15499 32960 00000 10076 20046 30106 40117 5//// 222// 00047 20074 333 31004 92427;EQDQ01  00002PRCP99
0080154990999992000020907004+43820+028580FM-12+000999999V0202501N002012200019N0100001N1+00841+99999999999ADDGF103991001001999999001011REMSYN042AAXX  09071 15499 42960 32502 10084 80001;
0080154990999992000020917004+43820+028580FM-12+000999999V0202001N002019999999N0100001N1+01061+99999999999ADDGF106991001001999999001061REMSYN042AAXX  09171 15499 42960 62002 10106 80006;
0080154990999992000020923004+43820+028580FM-12+000999999V0209999C000019999999N0100001N1+00881+99999999999ADDGF108991081001999999071999REMSYN042AAXX  09231 15499 42960 80000 10088 8807/;
0193154990999992000021012004+43820+028580FM-12+000999999V0200201N003010075019N0100001N1+00741+00611102211ADDAA199000091GF107991071051008001001001MA1999999102101MD1210131+9999SA1+0709REMSYN088AAXX  10121 15499 32560 70203 10074 20061 30210 40221 52013 87500 222// 00070 333 92427;EQDQ01  00002PRCP99
0173154990999992000021015004+43820+028580FM-12+000999999V0200201N002010075019N0100001N1+00701+00561102331ADDAA199000091GF105991051051008001001001MA1999999102221MD1210121+9999REMSYN076AAXX  10151 15499 32560 50202 10070 20056 30222 40233 52012 85500 333 92427;EQDQ01  00002PRCP99
0080154990999992000021016004+43820+028580FM-12+000999999V0200201N002010075019N0100001N1+99999+99999999999ADDGF106991061051008001001001REMSYN042AAXX  10161 15499 42560 60202 10868 86500;
0080154990999992000021017004+43820+028580FM-12+000999999V0209999C000010075019N0100001N1+00701+99999999999ADDGF107991071051008001001001REMSYN042AAXX  10171 15499 42560 70000 10070 87500;
0235154990999992000021018004+43820+028580FM-12+000999999V0209999C000010075019N0100001N1+00701+00381102501ADDAA199000091GF107991071051008001001001KA1120M+00801MA1999999102391MD1210171-0081SA1+0689UA1M999999029REMSYN104AAXX  10181 15499 32560 70000 10070 20038 30239 40250 52017 87500 222// 00068 333 10080 92427 555 59008;EQDQ01  00002PRCP99
0222154990999992000021106004+43820+028580FM-12+000999999V0202701N002012200019N0100001N1+00191+00051102641ADDAA199000091GF102991021001999999041001IA1099IA2120+00109KA1120N+00181MA1999999102531SA1+0689REMSYN100AAXX  11061 15499 32960 22702 10019 20005 30253 40264 5//// 82040 222// 00068 333 20018 31001 92427;EQDQ01  00002PRCP99
0080154990999992000021205004+43820+028580FM-12+000999999V0209999C000019999999N0100001N1+00531+99999999999ADDGF108991081001999999071999REMSYN042AAXX  12051 15499 42960 80000 10053 8807/;
0080154990999992000021215004+43820+028580FM-12+000999999V0200501N002010042019N0100001N1+00481+99999999999ADDGF107991071061004501001001REMSYN042AAXX  12151 15499 42460 70502 10048 87600;
0080154990999992000021217004+43820+028580FM-12+000999999V0200501N002010042019N0100001N1+00481+99999999999ADDGF107991071061004501001001REMSYN042AAXX  12171 15499 42460 70502 10048 87600;
0258154990999992000021218004+43820+028580FM-12+000999999V0200501N002010042019N0040001N1+00341+00271102681ADDAA199000091AY121061AY221061GF108991081061004501999999IA1099KA1120M+00651MA1999999102571MD1410001+9999MW1101SA1+0639REMSYN112AAXX  12181 15499 31440 80502 10034 20027 30257 40268 54000 71022 886// 222// 00063 333 10065 31014 55935 5000/;EQDQ01  00002PRCP99
0080154990999992000021416004+43820+028580FM-12+000999999V0200901N001010075019N0100001N1+00661+99999999999ADDGF108991081051008001999999REMSYN042AAXX  14161 15499 42560 80901 10066 885//;
0080154990999992000021417004+43820+028580FM-12+000999999V0209999C000010042019N0100001N1+00621+99999999999ADDGF108991081061004501999999REMSYN042AAXX  14171 15499 42460 80000 10062 886//;
0247154990999992000021418004+43820+028580FM-12+000999999V0209999C000010042019N0100001N1+00561+00321101541ADDAA199000091GF108991081061004501999999IA1099KA1120M+00721MA1999999101431MD1210031+9999SA1+0609UA1M999999029REMSYN110AAXX  14181 15499 32460 80000 10056 20032 30143 40154 52003 886// 222// 00060 333 10072 31016 92427 555 55002;EQDQ01  00002PRCP99
0115154990999992000021422004+43820+028580FM-12+000999999V0209999C000019999999N0110001N1+03202+99999999999ADDGF108991999011999999071999REMSYN042AAXX  14221 15499 42961 80000 10320 8817/;EQDQ01+000082SCOTLCQ02+003203ATOT  
0080154990999992000021423004+43820+028580FM-12+000999999V0209999C000019999999N0100001N1+03201+99999999999ADDGF108991081001999999071999REMSYN042AAXX  14231 15499 42960 80000 10320 8807/;
0148154990999992000021500004+43820+028580FM-12+000999999V0209999C000019999999N0100001N1+00312+00151101531ADDGF108991081001999999071999MA1999999101421REMSYN076AAXX  15001 15499 42960 80000 10031 20015 30142 40153 5//// 8807/ 333 92417;EQDQ01+000313ATOT  
0080154990999992000021505004+43820+028580FM-12+000999999V0209999C000010042019N0100001N1+00181+99999999999ADDGF108991081061004501999999REMSYN042AAXX  15051 15499 42460 80000 10018 886//;
0108154990999992000021510004+43820+028580FM-12+000999999V0209999C000010042019N0100001N1+00201+99999999999ADDAY161999AY221999GF108991061071004501021999MW1611REMSYN048AAXX  15101 15499 41460 80000 10020 76162 8672/;
0108154990999992000021511004+43820+028580FM-12+000999999V0209999C000010042019N0100001N1+00181+99999999999ADDAY161999AY221999GF108991061071004501021999MW1211REMSYN048AAXX  15111 15499 41460 80000 10018 72162 8672/;
0108154990999992000021513004+43820+028580FM-12+000999999V0203601N006010042019N0100001N1+00241+99999999999ADDAY171999AY221999GF108991061071004501021999MW1221REMSYN048AAXX  15131 15499 41460 83606 10024 72272 8672/;
0080154990999992000021514004+43820+028580FM-12+000999999V0203601N007010360019N0100001N1+00241+99999999999ADDGF108991011011004501021999REMSYN042AAXX  15141 15499 42460 83607 10024 8112/;
0182154990999992000021515004+43820+028580FM-12+000999999V0203401N006010042019N0100001N1+00281+00101101871ADDAA103001091AY171031AY221031GF108991061071004501021999MA1999999101761MD1210191+9999MW1021REMSYN082AAXX  15151 15499 21460 83406 10028 2001/ 30176 40187 52019 70272 8672/ 333 60017;
0080154990999992000021516004+43820+028580FM-12+000999999V0203401N006010042019N0100001N1+00281+99999999999ADDGF108991081061004501999999REMSYN042AAXX  15161 15499 42460 83406 10028 886//;
0080154990999992000021517004+43820+028580FM-12+000999999V0203601N006010042019N0100001N1+00291+99999999999ADDGF108991081061004501999999REMSYN042AAXX  15171 15499 42460 83606 10029 886//;
0238154990999992000021518004+43820+028580FM-12+000999999V0203601N006010042019N0100001N1+00301+00091101871ADDAA112004191AY171061AY221061GF108991081061004501999999MA1999999101761MD1410001+9999MW1021SA1+0559UG1999991009UG2999990209REMSYN106AAXX  15181 15499 11460 83606 10030 20009 30176 40187 54000 60042 70272 886// 222// 00055 31002 555 55000;
0171154990999992000021606004+43820+028580FM-12+000999999V0209999C000012200019N0100001N1-00101-00251102021ADDAA199000091GA1001+999999999GF100991001001999999001001MA1999999101911REMSYN072AAXX  16061 15499 32960 00000 11010 21025 30191 40202 5//// 222// 00054;EQDQ01  00002PRCP99
0100154990999992000021607004+43820+028580FM-12+000999999V0209999C000012200019N0100001N1+00001+99999999999ADDGA1001+999999999GF100991001001999999001001REMSYN046AAXX  16071 15499 42960 00000 10000 333 92600;
0090154990999992000021616004+43820+028580FM-12+000999999V0201401N006012200019N0100001N1+00501+99999999999ADDGA1001+999999999GF100991001001999999001001REMSYN036AAXX  16161 15499 42960 01406 10050;
0090154990999992000021617004+43820+028580FM-12+000999999V0201401N006012200019N0100001N1+00501+99999999999ADDGA1001+999999999GF100991001001999999001001REMSYN036AAXX  16171 15499 42960 01406 10050;
0257154990999992000021618004+43820+028580FM-12+000999999V0201801N004012200019N0100001N1+00361+00101101731ADDAA199000091GA1001+999999999GF100991001001999999001001IA1099KA1120M+00601MA1999999101621MD1610021+9999SA1+0569UA1M999999029REMSYN104AAXX  16181 15499 32960 01804 10036 20010 30162 40173 56002 222// 00056 333 10060 31015 92427 555 55016;EQDQ01  00002PRCP99
0090154990999992000021623004+43820+028580FM-12+000999999V0201801N002012200019N0100001N1+00301+99999999999ADDGA1001+999999999GF100991001001999999001001REMSYN036AAXX  16231 15499 42960 01802 10030;
0169154990999992000021700004+43820+028580FM-12+000999999V0201801N002012200019N0100001N1+00301+00141101491ADDAA199000091GA1001+999999999GF100991001001999999001001MA1999999101381REMSYN070AAXX  17001 15499 32960 01802 10030 20014 30138 40149 5//// 333 92427;EQDQ01  00002PRCP99
0080154990999992000021717004+43820+028580FM-12+000999999V0201801N010019999999N0100001N1+00701+99999999999ADDGF106991001001999999001061REMSYN042AAXX  17171 15499 42960 61810 10070 80006;
0247154990999992000021718004+43820+028580FM-12+000999999V0201801N010019999999N0100001N1+00701+00461100611ADDAA199000091GF107991001001999999001061IA1099KA1120M+00721MA1999999100501MD1210021+9999SA1+0549UA1M999999039REMSYN110AAXX  17181 15499 32960 71810 10070 20046 30050 40061 52002 80006 222// 00054 333 10072 31013 92437 555 55050;EQDQ01  00002PRCP99
0051154990999992000021722004+43820+028580FM-12+000999999V0201801N010019999999N9999999N1+00791+99999999999REMSYN042AAXX  17221 15499 4246/ /1810 10079 86///;
0079154990999992000021723004+43820+028580FM-12+000999999V0201801N010010042019N0100001N1+00751+99999999999ADDGF108991081061004501999999REMSYN041AAXX  17231 15499 42460 81810 10075886//;
0159154990999992000021800004+43820+028580FM-12+000999999V0201801N010010042019N0100001N1+00751+00451100391ADDAA199000091GF108991081061004501999999MA1999999100281REMSYN076AAXX  18001 15499 32460 81810 10075 20045 30028 40039 5//// 886// 333 92437;EQDQ01  00002PRCP99
0258154990999992000021806004+43820+028580FM-12+000999999V0201601N010010042019N0100001N1+00921+00711100251ADDAA103000191AY161061GF108991061071004501021999IA1099IA2120+00609KA1120N+00701MA1999999100141MW1611SA1+0509UA1M999999039REMSYN128AAXX  18061 15499 /1460 81610 10092 20071 30014 40025 5//// 69912 7616/ 8672/ 222// 00050 333 20070 31006 69917 92437 555 60001;
0108154990999992000021807004+43820+028580FM-12+000999999V0201601N010010042019N0100001N1+00801+99999999999ADDAY161011AY221011GF108991061071004501021999MW1211REMSYN048AAXX  18071 15499 41460 81610 10080 72162 8672/;
0080154990999992000021813004+43820+028580FM-12+000999999V0201801N010012200019N0100001N1+00891+99999999999ADDGF104991041061004501001001REMSYN042AAXX  18131 15499 42460 41810 10089 84600;
0080154990999992000021814004+43820+028580FM-12+000999999V0201801N010010042019N0100001N1+00901+99999999999ADDGF105991051061004501001001REMSYN042AAXX  18141 15499 42460 51810 10090 85600;
0143154990999992000021815004+43820+028580FM-12+000999999V0202501N010019999999N0100001N1+00661+00001100261ADDGF106991001001999999001061MA1999999100151MD1210211+9999REMSYN076AAXX  18151 15499 /2960 62510 10066 2000/ 30015 40026 52021 80006 333 92437;
0080154990999992000021816004+43820+028580FM-12+000999999V0202501N005019999999N0100001N1+00541+99999999999ADDGF106991001001999999001061REMSYN042AAXX  18161 15499 42960 62505 10054 80006;
0099154990999992000021817004+43820+028580FM-12+000999999V0202501N004012200019N9999999N1+00451+99999999999ADDGF102991001001999999001011REMSYN042AAXX  18171 15499 4/60/ 22504 10045 80001;EQDQ01+012502SCOLCB
0193154990999992000021818004+43820+028580FM-12+000999999V0202501N005012200019N0100001N1+00381+00151100491ADDAA112002091GF102991001001999999001011KA1999M+00941MA1999999100381MD1210231+9999SA1+0489REMSYN094AAXX  18181 15499 12960 22505 10038 20015 30038 40049 52023 60022 80001 222// 00048 333 10094;
0080154990999992000021823004+43820+028580FM-12+000999999V0203201N006010042019N0100001N1+99999+99999999999ADDGF108991081061004501999999REMSYN042AAXX  18231 15499 /2460 83206 1/014 886//;
0080154990999992000021905004+43820+028580FM-12+000999999V0203401N004010042019N0100001N1+00001+99999999999ADDGF108991061071004501021999REMSYN042AAXX  19051 15499 41460 83404 1000/ 8672/;
0108154990999992000021910004+43820+028580FM-12+000999999V0209999C000010042019N0100001N1+00201+99999999999ADDAY171999AY221999GF107991071061004501001001MW1221REMSYN048AAXX  19101 15499 41460 70000 10020 72272 87600;
0154154990999992000021915004+43820+028580FM-12+000999999V0202701N002010042019N0100001N1+00341+00021101281ADDAA199000021GF106991061061004501001001MA1999999101171MD1210121+9999REMSYN076AAXX  19151 15499 32460 62702 10034 20002 30117 40128 52012 86600 333 92427;
0080154990999992000021916004+43820+028580FM-12+000999999V0209999C000010042019N0100001N1+00321+99999999999ADDGF106991061061004501001001REMSYN042AAXX  19161 15499 42460 60000 10032 86600;
0080154990999992000021917004+43820+028580FM-12+000999999V0209999C000010042019N0100001N1+00301+99999999999ADDGF106991061061004501001001REMSYN042AAXX  19171 15499 42460 60000 10030 86600;
0108154990999992000022016004+43820+028580FM-12+000999999V0200901N002010042019N0100001N1+00621+99999999999ADDAY121999AY221999GF108991061071004501021999MW1611REMSYN048AAXX  20161 15499 41460 80902 10062 76122 8672/;
0108154990999992000022017004+43820+028580FM-12+000999999V0209999C000010042019N0100001N1+00621+99999999999ADDAY161999AY261999GF108991061071004501021999MW1611REMSYN048AAXX  20171 15499 41460 80000 10062 76166 8672/;
0257154990999992000022018004+43820+028580FM-12+000999999V0209999C000010042019N0100001N1+00621+00621101091ADDAY121061AY221061GF108991061071004501021999IA1099KA1120M+00721MA1999999100981MD1710051+9999MW1611SA1+0409UA1M999999029REMSYN128AAXX  20181 15499 /1460 80000 10062 20062 30098 40109 57005 60022 76122 8672/ 222// 00040 333 10072 31014 60/27 92427 555 55027;
0086154990999992000022023004+43820+028580FM-12+000999999V0200201N006019999999N0100001N1+00461+99999999999ADDGF108991999999004501999999REMSYN048AAXX  20231 15499 41460 80206 10046 71=// 8672/;
0092154990999992000022104004+43820+028580FM-12+000999999V0203601N006010042019N0100001N1+00201+99999999999ADDGF108991061071004501021999MW1611REMSYN048AAXX  21041 15499 41460 83606 1002/ 761// 8672/;
0086154990999992000022107004+43820+028580FM-12+000999999V0203601N008019999999N0100001N1+00141+99999999999ADDGF108991999999004501999999MW1611REMSYN042AAXX  21071 15499 41460 83608 10014 761/5;
0080154990999992000022111004+43820+028580FM-12+000999999V0203601N006012200019N0100001N1+00401+99999999999ADDGF106991041061004501001011REMSYN042AAXX  21111 15499 42460 63606 10040 84601;
0152154990999992000022112004+43820+028580FM-12+000999999V0203601N006012200019N0100001N1+00481+00011101301ADDAA103001091GF104991041061004501001001MA1999999101211REMSYN088AAXX  21121 15499 /1460 43606 10048 20001 30121 4013/ 84600 222// 0/042 333 60017 92437;
0154154990999992000022115004+43820+028580FM-12+000999999V0203401N006010042019N0100001N1+00481-00081101501ADDAA199000021GF105991051061004501001001MA1999999101391MD1210181+9999REMSYN076AAXX  21151 15499 32460 53406 10048 21008 30139 40150 52018 85600 333 92437;
0080154990999992000022116004+43820+028580FM-12+000999999V0203401N006012200019N0100001N1+00361+99999999999ADDGF102991001001999999001011REMSYN042AAXX  21161 15499 42960 23406 10036 80001;
0080154990999992000022117004+43820+028580FM-12+000999999V0203401N007012200019N0100001N1+00301+99999999999ADDGF102991001001999999001011REMSYN042AAXX  21171 15499 42960 23407 10030 80001;
0253154990999992000022206004+43820+028580FM-12+000999999V0202701N002012200019N0100001N1-00281-00481102331ADDAA199000091GA1001+999999999GF100991001001999999001001IA1149IA2120-00409KA1120N-00341MA1999999102221UA1M999999029REMSYN110AAXX  22061 15499 32960 02702 11028 21048 30222 40233 5//// 222// 00036 333 21034 34104 92427 92600 555 60056;EQDQ01  00002PRCP99
0096154990999992000022207004+43820+028580FM-12+000999999V0202701N002012200019N0100001N1-00081+99999999999ADDGA1001+999999999GF100991001001999999001001REMSYN042AAXX  22071 15499 42960 02702 11008 92600;
0080154990999992000022216004+43820+028580FM-12+000999999V0200201N002010075019N0100001N1+00161+99999999999ADDGF106991061051008001001001REMSYN042AAXX  22161 15499 42560 60202 10016 86500;
0247154990999992000022218004+43820+028580FM-12+000999999V0209999C000010075019N0100001N1+00101-00321102491ADDAA199000091GF107991071051008001001001IA1099KA1120M+00241MA1999999102381MD1210151+9999SA1+0449UA1M999999029REMSYN110AAXX  22181 15499 32560 70000 10010 21032 30238 40249 52015 87500 222// 00044 333 10024 31004 92427 555 55020;EQDQ01  00002PRCP99
0090154990999992000022307004+43820+028580FM-12+000999999V0209999C000012200019N0100001N1-00281+99999999999ADDGA1001+999999999GF100991001001999999001001REMSYN036AAXX  23071 15499 42960 00000 11028;
0090154990999992000022308004+43820+028580FM-12+000999999V0202901N001012200019N0100001N1-00161+99999999999ADDGA1001+999999999GF100991001001999999001001REMSYN036AAXX  23081 15499 42960 02901 11016;
0080154990999992000022311004+43820+028580FM-12+000999999V0200501N002012200019N0100001N1+00021+99999999999ADDGF103991031061004501001001REMSYN042AAXX  23111 15499 42460 30502 10002 83600;
0193154990999992000022312004+43820+028580FM-12+000999999V0200501N002012200019N0100001N1+00031-00341102821ADDAA199000091GF103991031061004501001001MA1999999102711MD1810021+9999SA1+0429REMSYN088AAXX  23121 15499 32460 30502 10003 21034 30271 40282 58002 83600 222// 00042 333 92427;EQDQ01  00002PRCP99
0080154990999992000022313004+43820+028580FM-12+000999999V0200501N002010042019N0100001N1+00031+99999999999ADDGF106991061061004501001001REMSYN042AAXX  23131 15499 42460 60502 10003 86600;
0080154990999992000022314004+43820+028580FM-12+000999999V0200501N002010042019N0100001N1+00001+99999999999ADDGF106991061061004501001001REMSYN042AAXX  23141 15499 42460 60502 10000 86600;
0090154990999992000022316004+43820+028580FM-12+000999999V0209999C000012200019N0100001N1-00041+99999999999ADDGA1001+999999999GF100991001001999999001001REMSYN036AAXX  23161 15499 42960 00000 11004;
0090154990999992000022317004+43820+028580FM-12+000999999V0209999C000012200019N0100001N1-00061+99999999999ADDGA1001+999999999GF100991001001999999001001REMSYN036AAXX  23171 15499 42960 00000 11006;
0257154990999992000022318004+43820+028580FM-12+000999999V0209999C000012200019N0100001N1-00011-00321102791ADDAA199000091GA1001+999999999GF100991001001999999001001IA1149KA1120M+00051MA1999999102681MD1210191+9999SA1+0389UA1M999999029REMSYN104AAXX  23181 15499 32960 00000 11001 21032 30268 40279 52019 222// 00038 333 10005 34101 92427 555 55049;EQDQ01  00002PRCP99
0090154990999992000022323004+43820+028580FM-12+000999999V0209999C000012200019N0100001N1-00221+99999999999ADDGA1001+999999999GF100991001001999999001001REMSYN036AAXX  23231 15499 42960 00000 11022;
0169154990999992000022400004+43820+028580FM-12+000999999V0209999C000012200019N0100001N1-00241-00401102881ADDAA199000091GA1001+999999999GF100991001001999999001001MA1999999102771REMSYN070AAXX  24001 15499 32960 00000 11024 21040 30277 40288 5//// 333 92427;EQDQ01  00002PRCP99
0080154990999992000022405004+43820+028580FM-12+000999999V0209999C000010042019N0100001N1-00141+99999999999ADDGF108991081061004501999999REMSYN042AAXX  24051 15499 42460 80000 11014 886//;
0228154990999992000022406004+43820+028580FM-12+000999999V0209999C000012200019N0100001N1-00161+99999102911ADDAA199000091GF103991031061004501001001IA1149IA2120-00309KA1120N-00241MA1999999102801SA1+0349REMSYN106AAXX  24061 15499 32460 30000 11016 27033 30280 40291 5//// 83600 222// 00034 333 21024 34103 92600 92427;EQDQ01  00002PRCP99
0080154990999992000022407004+43820+028580FM-12+000999999V0203601N003010042019N0100001N1+00001+99999999999ADDGF105991051061004501001001REMSYN042AAXX  24071 15499 42460 53603 10000 85600;
0080154990999992000022411004+43820+028580FM-12+000999999V0200501N002012200019N0100001N1+00201+99999999999ADDGF103991001001999999001011REMSYN042AAXX  24111 15499 42960 30502 10020 80001;
0183154990999992000022412004+43820+028580FM-12+000999999V0200701N002012200019N0100001N1+00221-00461102981ADDAA199000091GF103991021021008001001011MA1999999102871MD1310021+9999SA1+3809REMSYN078AAXX  24121 15499 32560 30702 10022 21046 30287 40298 53002 82201 222// 00038;EQDQ01  00002PRCP99
0080154990999992000022413004+43820+028580FM-12+000999999V0200701N002010120019N0100001N1+00201+99999999999ADDGF106991061081008001001001REMSYN042AAXX  24131 15499 42560 60702 10020 86800;
0173154990999992000022415004+43820+028580FM-12+000999999V0200501N004012200019N0100001N1+00161-00391102921ADDAA199000091GF104991041061004501001001MA1999999102811MD1710061+9999REMSYN076AAXX  24151 15499 32460 40504 10016 21039 30281 40292 57006 84600 333 92427;EQDQ01  00002PRCP99
0099154990999992000022416004+43820+028580FM-12+000999999V0203501N999990042019N0100001N1+00141+99999999999ADDGF105991051061004501001001REMSYN042AAXX  24161 15499 42460 58505 10014 85600;EQDQ01+010501WOSPD 
0090154990999992000022417004+43820+028580FM-12+000999999V0200501N002012200019N0100001N1+00081+99999999999ADDGA1001+999999999GF100991001001999999001001REMSYN036AAXX  24171 15499 42960 00502 10008;
0182154990999992000022418004+43820+028580FM-12+000999999V0209999C000019999999N0100001N1+00041-00431102991ADDAA199000091IA1149MA1999999102881MD1210071+9999UA1M999999029REMSYN092AAXX  24181 15499 32960 /0000 10004 21043 30288 40299 52007 222// 333 34013 9242/ 555 55049;EQDQ01  00002PRCP99
0231154990999992000022506004+43820+028580FM-12+000999999V0202901N003012200019N0100001N1-00281-00411102921ADDAA199000091GA1001+999999999GF100991001001999999001001IA1149IA2120-00409KA1120N-00351MA1999999102811UA1M999999029REMSYN088AAXX  25061 15499 32960 02903 11028 21041 30281 40292 5//// 333 21035 34104 92427 92600;EQDQ01  00002PRCP99
0119154990999992000022507004+43820+028580FM-12+000999999V0202901N060022200019N0100001N1-00101+99999999999ADDGA1001+999999999GF100991001001999999001001REMSYN046AAXX  25071 15499 42960 02960 11010 333 92600;EQDQ01+006003WOSPD 
0080154990999992000022716004+43820+028580FM-12+000999999V0209999C000010360019N0100001N1+00641+99999999999ADDGF106991041091008001061001REMSYN042AAXX  27161 15499 42560 60000 10064 84960;
0080154990999992000022717004+43820+028580FM-12+000999999V0209999C000010360019N0100001N1+00601+99999999999ADDGF105991031091008001061001REMSYN042AAXX  27171 15499 42560 50000 10060 83960;
0247154990999992000022718004+43820+028580FM-12+000999999V0209999C000019999999N0100001N1+00461+00131103051ADDAA199000091GF107991071001999999071001IA1019KA1120M+00861MA1999999103041MD1210141+9999SA1+0419UA1M999999029REMSYN110AAXX  27181 15499 32960 70000 10046 20013 30304 40305 52014 87070 222// 00041 333 10086 30013 92427 555 55053;EQDQ01  00002PRCP99
0122154990999992000022723004+43820+028580FM-12+000999999V0201401N002019999999N0200001N1+00021-00041999999ADDAA199000091GF105991051001999999071001REMSYN054AAXX  27231 15499 32998 51402 10002 21004 5//// 85070;EQDQ01  00002PRCP99
0222154990999992000022806004+43820+028580FM-12+000999999V0202901N002010042019N0100001N1+00081+00001103761ADDAA199000091GF106991061061004501001001IA1099IA2120+00009KA1120N+00061MA1999999103651SA1+0409REMSYN100AAXX  28061 15499 32460 62902 10008 20000 30365 40376 5//// 86600 222// 00040 333 20006 31000 92427;EQDQ01  00002PRCP99
0080154990999992000022807004+43820+028580FM-12+000999999V0203401N002012200019N0100001N1+00141+99999999999ADDGF102991021061004501001001REMSYN042AAXX  28071 15499 42460 23402 10014 82600;
0193154990999992000022812004+43820+028580FM-12+000999999V0200201N003012200019N0100001N1+00461+00261103881ADDAA199000091GF103991031061004501001001MA1999999103771MD1710061+9999SA1+0509REMSYN088AAXX  28121 15499 32460 30203 10046 20026 30377 40388 57006 83600 222// 00050 333 92427;EQDQ01  00002PRCP99
0080154990999992000022813004+43820+028580FM-12+000999999V0200201N002012200019N0100001N1+00421+99999999999ADDGF102991021061004501001001REMSYN042AAXX  28131 15499 42460 20202 10042 82600;
0080154990999992000022814004+43820+028580FM-12+000999999V0200201N002012200019N0100001N1+00401+99999999999ADDGF102991021061004501001001REMSYN042AAXX  28141 15499 42460 20202 10040 82600;
0173154990999992000022815004+43820+028580FM-12+000999999V0200201N002012200019N0100001N1+00381+00201103811ADDAA199000091GF102991021061004501001001MA1999999103701MD1710071+9999REMSYN076AAXX  28151 15499 32460 20202 10038 20020 30370 40381 57007 82600 333 92427;EQDQ01  00002PRCP99
0080154990999992000022816004+43820+028580FM-12+000999999V0200501N002012200019N0100001N1+00381+99999999999ADDGF104991041061004501001001REMSYN042AAXX  28161 15499 42460 40502 10038 84600;
0080154990999992000022817004+43820+028580FM-12+000999999V0200501N002010042019N0100001N1+00371+99999999999ADDGF106991061061004501001001REMSYN042AAXX  28171 15499 42460 60502 10037 86600;
0247154990999992000022818004+43820+028580FM-12+000999999V0200501N004010042019N0100001N1+00361+00011103821ADDAA199000091GF107991071061004501001001IA1099KA1120M+00501MA1999999103711MD1310011+9999SA1+0509UA1M999999029REMSYN110AAXX  28181 15499 32460 70504 10036 20001 30371 40382 53001 87600 222// 00050 333 10050 31018 92427 555 55067;EQDQ01  00002PRCP99
0142154990999992000022900004+43820+028580FM-12+000999999V0209999C000012200019N0100001N1+00201-00201999999ADDAA199000091GA1001+999999999GF100991001001999999001001REMSYN058AAXX  29001 15499 32960 00000 10020 21020 5//// 333 92427;EQDQ01  00002PRCP99
0251154990999992000022906004+43820+028580FM-12+000999999V0209999C000012200019N0100001N1-00241-00401103521ADDAA199000091GA1001+999999999GF100991001001999999001001IA1149IA2120-00509KA1120N-00281MA1999999103411SA1+0469UA1M999999029REMSYN100AAXX  29061 15499 32960 00000 11024 21040 30341 40352 5//// 222// 00046 333 21028 34105 92427 92600;EQDQ01  00002PRCP99
0090154990999992000022907004+43820+028580FM-12+000999999V0209999C000012200019N0100001N1+00061+99999999999ADDGA1001+999999999GF100991001001999999001001REMSYN036AAXX  29071 15499 42960 00000 10006;
0090154990999992000022911004+43820+028580FM-12+000999999V0200501N001012200019N0100001N1+00461+99999999999ADDGA1001+999999999GF100991001001999999001001REMSYN036AAXX  29111 15499 42960 00501 10046;
0090154990999992000022917004+43820+028580FM-12+000999999V0201601N006012200019N0100001N1+00421+99999999999ADDGA1001+999999999GF100991001001999999001001REMSYN036AAXX  29171 15499 42960 01606 10042;
0256154990999992000022918004+43820+028580FM-12+000999999V0201601N006012200019N0100001N1+00401+00031103091ADDAA199000091GA1001+999999999GF100991001001999999001001IA1019KA1120M+00541MA1999999102981MD1710061+9999SA1+0449UA1M999999029REMSYN103AAXX  29181 15499 32960 01606 10040 20003 30298 40309 57006 222// 00044 333 10054 30017 92427 555 9504;EQDQ01  00002PRCP99
0096154990999992000030105004+43820+028580FM-12+000999999V0209999C000012200019N0100001N1-00081+99999999999ADDGA1001+999999999GF100991001001999999001001REMSYN042AAXX  01051 15499 42960 00000 11008 92600;
0080154990999992000030211004+43820+028580FM-12+000999999V0201601N010012200019N0100001N1+00721+99999999999ADDGF104991021061004501001011REMSYN042AAXX  02111 15499 42460 41610 10072 82601;
0080154990999992000030214004+43820+028580FM-12+000999999V0201401N010012200019N0100001N1+00681+99999999999ADDGF102991001001999999001011REMSYN042AAXX  02141 15499 42960 21410 10068 80001;
0173154990999992000030215004+43820+028580FM-12+000999999V0201401N010012200019N0100001N1+00701+00591100951ADDAA199000091GF102991001001999999001011MA1999999100841MD1710281+9999REMSYN076AAXX  02151 15499 32960 21410 10070 20059 30084 40095 57028 80001 333 92437;EQDQ01  00002PRCP99
0080154990999992000030216004+43820+028580FM-12+000999999V0201401N010012200019N0100001N1+00701+99999999999ADDGF103991001001999999001011REMSYN042AAXX  02161 15499 42960 31410 10070 80001;
0090154990999992000030217004+43820+028580FM-12+000999999V0201401N006012200019N0100001N1+00681+99999999999ADDGA1001+999999999GF100991001001999999001001REMSYN036AAXX  02171 15499 42960 01406 10068;
0238154990999992000030218004+43820+028580FM-12+000999999V02099999999992200019N0100001N1+00681+00591101071ADDAA199000091GA1001+999999999GF100991001001999999001001IA1019KA1120M+00781MA1999999100961MD1210121+9999SA1+0489REMSYN098AAXX  02181 15499 32960 014// 10068 20059 30096 40107 52012 222// 00048 333 10078 30017 555 550/);EQDQ01  00002PRCP99
0169154990999992000030300004+43820+028580FM-12+000999999V0201401N003012200019N0100001N1+00661+00571101071ADDAA199000091GA1001+999999999GF100991001001999999001001MA1999999100961REMSYN070AAXX  03001 15499 32960 01403 10066 20057 30096 40107 5//// 333 92437;EQDQ01  00002PRCP99
0092154990999992000030305004+43820+028580FM-12+000999999V0209999C000010042019N0100001N1+00611+99999999999ADDGF108991061071004501021999MW1611REMSYN048AAXX  03051 15499 41460 80000 10061 761// 8672/;
0108154990999992000030307004+43820+028580FM-12+000999999V0203601N002010042019N0110001N1+00561+99999999999ADDAY161999AY221999GF107991061071004501021999MW1211REMSYN048AAXX  03071 15499 41461 73602 10056 72162 8672/;
0188154990999992000030309004+43820+028580FM-12+000999999V0200501N002010042019N0100001N1+00531+00481101381ADDAA103000191AY161031AY221031GF108991081061004501999999MA1999999101271MD1210141+9999MW1021REMSYN088AAXX  03091 15499 21460 80502 10053 20048 30127 40138 52014 70262 886// 333 69917 92427;
0080154990999992000030310004+43820+028580FM-12+000999999V0200501N002010042019N0100001N1+00531+99999999999ADDGF108991081061004501999999REMSYN042AAXX  03101 15499 42460 80502 10053 886//;
0080154990999992000030316004+43820+028580FM-12+000999999V0200201N004010042019N0100001N1+00481+99999999999ADDGF108991081061004501999999REMSYN042AAXX  03161 15499 42460 80204 10048 886//;
0090154990999992000030317004+43820+028580FM-12+000999999V02099999999992200019N0100001N1+99999+99999999999ADDGA1001+999999999GF100991001001999999001001REMSYN036AAXX  03171 15499 42460 0//// 226//;
0265154990999992000030318004+43820+028580FM-12+000999999V0209999C000010042019N0100001N1+00491+00491101721ADDAA103000191AA212000191AY121061AY221061GF108991061071004501021999IA1099MA1999999101611MD1210291+9999MW1611SA1+0529UA1M999999029REMSYN127AAXX  03181 15499 /1460 80000 10049 20049 30161 40172 52029 69922 76122 8672/ 222// 00052 333 10/0 31006 69917 92427 555 55000;
0099154990999992000030323004+43820+028580FM-12+000999999V0202701N002010042019N0100001N1+00461+99999999999ADDGF108991999061004501999091REMSYN042AAXX  03231 15499 42460 82702 10046 886/9;EQDQ01+000082SCOTLC
0142154990999992000030400004+43820+028580FM-12+000999999V0202701N002010042019N0100001N1+00451+00381101751ADDAY161061AY221061GF108991081061004501999999MW1021REMSYN082AAXX  04001 15499 11460 82702 10045 20038 301// 40175 5//95 70262 886// 333 92427;
0233154990999992000030406004+43820+028580FM-12+000999999V0209999C000012200019N0100001N1+00301+00171101661ADDAA112000591AY161061GA1001+999999999GF100991001001999999001001MA1999999101551MW1021SA1+0509UA1M001409999UG1999991009REMSYN106AAXX  04061 15499 11460 00000 10030 20017 30155 40166 5//// 69952 7026/ 222// 00050 20028 31000 555 60007;
0090154990999992000030407004+43820+028580FM-12+000999999V0202701N004012200019N0100001N1+00481+99999999999ADDGA1001+999999999GF100991001001999999001001REMSYN036AAXX  04071 15499 42960 02704 10048;
0080154990999992000030505004+43820+028580FM-12+000999999V0202501N003019999999N0100001N1+00701+99999999999ADDGF108991081001999999071999REMSYN042AAXX  05051 15499 42960 82503 10070 8807/;
0222154990999992000030506004+43820+028580FM-12+000999999V0202501N003019999999N0100001N1+00741+00361101411ADDAA199000091GF108991081001999999071999IA1019IA2120+00309KA1120N+00601MA1999999101301SA1+0569REMSYN100AAXX  05061 15499 32960 82503 10074 20036 30130 40141 5//// 8807/ 222// 00056 333 20060 30003 92427;EQDQ01  00002PRCP99
0080154990999992000030507004+43820+028580FM-12+000999999V0202501N002019999999N0100001N1+00741+99999999999ADDGF107991071001999999071001REMSYN042AAXX  05071 15499 42960 72502 10074 87070;
0080154990999992000030508004+43820+028580FM-12+000999999V0202301N002019999999N0100001N1+00841+99999999999ADDGF107991071001999999071001REMSYN042AAXX  05081 15499 42960 72302 10084 87070;
0173154990999992000030509004+43820+028580FM-12+000999999V0202301N003019999999N0100001N1+00961+00511101501ADDAA199000091GF107991071001999999071001MA1999999101391MD1210091+9999REMSYN076AAXX  05091 15499 32960 72303 10096 20051 30139 40150 52009 87070 333 92427;EQDQ01  00002PRCP99
0267154990999992000030518004+43820+028580FM-12+000999999V0203201N003010042019N0100001N1+00251+00221101921ADDAA103002091AY161061AY261061GF108991061071004501021999IA1099KA1120M+01101MA1999999101811MD1210141+9999MW1611SA1+0549UA1M999999029REMSYN127AAXX  05181 15499 /1460 83203 10025 20022 30181 40192 52014 60062 76166 8672/ 222// 00054 333 10110 31008 60027 92427 555 5500;
0166154990999992000030600004+43820+028580FM-12+000999999V0203401N002010042019N0100001N1+00201+00121102111ADDAA106001091AY161061GF108991081061004501999999MA1999999102001MW1021REMSYN088AAXX  06001 15499 11460 83402 10020 20012 30200 40211 5//// 60011 7026/ 886// 333 92427;
0090154990999992000031223004+43820+028580FM-12+000999999V0202901N002012200019N0100001N1+00211+99999999999ADDGA1001+999999999GF100991001001999999001001REMSYN036AAXX  12231 15499 42960 02902 10021;
0185154990999992000032015004+43820+028580FM-12+000999999V0202701N002010075019N0100001N1+00681-00611101981ADDAA199000091GF106991061021008001001001MA1999999101871MD1710101+9999REMSYN088AAXX  20151 15499 32560 62702 10068 21061 30187 40198 57010 86200 222// 000/2 333 92427;EQDQ01  00002PRCP99
0216154990999992000032106004+43820+028580FM-12+000999999V0202701N002012200019N0100001N1-00011-00321101761ADDAA199000091GF102991021001999999041001MA1999999101651SA1+0549UA1M100409999UG2999990209REMSYN100AAXX  21061 15499 32960 22702 11001 21032 30165 40176 5//// 82040 222// 00054 21008 34102 555 60010;EQDQ01  00002PRCP99
0193154990999992000032112004+43820+028580FM-12+000999999V0201101N003010360019N0100001N1+00401-00221101881ADDAA199000091GF108991031091008001071001MA1999999101771MD1810011+9999SA1+0589REMSYN088AAXX  21121 15499 32560 81103 10040 21022 30177 40188 58001 83970 222// 00058 333 92427;EQDQ01  00002PRCP99
0108154990999992000033014004+43820+028580FM-12+000999999V0200901N004010042019N0010001N1+00731+99999999999ADDAY121999AY221999GF108991081061004501999999MW1101REMSYN048AAXX  30141 15499 41410 80904 10073 71022 886//;
0242154990999992000033106004+43820+028580FM-12+000999999V02099999999990042019N0040001N1+00781+00611101141ADDAA199000091AY121061GF105991051061004501001001IA1019IA2120+00609KA1120N+00641MA1999999101031MW1101SA1+0749REMSYN106AAXX  31061 15499 31440 5//// 10078 20061 30103 40114 5//// 7102/ 85600 222// 00074 333 20064 30006 92427;EQDQ01  00002PRCP99
0173154990999992000033109004+43820+028580FM-12+000999999V0202901N003010042019N0100001N1+01101+00581101361ADDAA199000091GF105991051061004501001001MA1999999101251MD1210221+9999REMSYN076AAXX  31091 15499 32460 52903 10110 20058 30125 40136 52022 85600 333 92427;EQDQ01  00002PRCP99
0080154990999992000033114004+43820+028580FM-12+000999999V0201401N003012200019N0100001N1+00941+99999999999ADDGF101991011011008001001001REMSYN042AAXX  31141 15499 42560 11403 10094 81100;
0090154990999992000033116004+43820+028580FM-12+000999999V0201401N005012200019N0100001N1+00901+99999999999ADDGA1001+999999999GF100991001001999999001001REMSYN036AAXX  31161 15499 42960 01405 10090;
0080154990999992000033117004+43820+028580FM-12+000999999V0201401N004019999999N0100001N1+00881+99999999999ADDGF105991001001999999001061REMSYN042AAXX  31171 15499 42960 51404 10088 80006;
0247154990999992000033118004+43820+028580FM-12+000999999V0201401N004019999999N0100001N1+00881+00731101201ADDAA199000091GF105991001001999999001061IA1019KA1120M+01481MA1999999101091MD1210061+9999SA1+0739UA1M999999029REMSYN110AAXX  31181 15499 32960 51404 10088 20073 30109 40120 52006 80006 222// 00073 333 10148 30035 92427 555 55071;EQDQ01  00002PRCP99
0128154990999992000040110004+43820+028580FM-12+000999999V0201401N004012200019N0010001N1+00901+99999999999ADDAY141999AY211999GA1001+999999999GF100991001001999999001001MW1281REMSYN052AAXX  01101 15499 41910 01404 10090 72841 333 96010;
0080154990999992000040111004+43820+028580FM-12+000999999V0201401N004012200019N0100001N1+00981+99999999999ADDGF102991001001999999001011REMSYN042AAXX  01111 15499 42960 21404 10098 80001;
0080154990999992000040113004+43820+028580FM-12+000999999V0201401N003012200019N0100001N1+01021+99999999999ADDGF104991001001999999001051REMSYN042AAXX  01131 15499 42960 41403 10102 80005;
0080154990999992000040114004+43820+028580FM-12+000999999V0201101N002019999999N0100001N1+01001+99999999999ADDGF107991071001999999071001REMSYN042AAXX  01141 15499 42960 71102 10100 87070;
0080154990999992000040313004+43820+028580FM-12+000999999V0201401N002012200019N0100001N1+01141+99999999999ADDGF102991001001999999001011REMSYN042AAXX  03131 15499 42960 21402 10114 80001;
0080154990999992000040314004+43820+028580FM-12+000999999V0201401N006019999999N0100001N1+01041+99999999999ADDGF108991081001999999071999REMSYN042AAXX  03141 15499 42960 81406 10104 8807/;
0166154990999992000040418004+43820+028580FM-12+000999999V0201401N003019999999N0100001N1+01061+00641100711ADDAA112000191IA1099MA1999999100601MD1410001+9999SA1+0869REMSYN100AAXX  04181 15499 12960 /1403 10106 20064 30060 40071 54000 69912 222// 00086 333 101/8 31024 92427;
0090154990999992000040507004+43820+028580FM-12+000999999V0201401N005019999999N0100001N1+01131+99999999999ADDGF106991001001999999001061REMSYN052AAXX  05071 15499 42960 61405 10113 80006 555 55025;
0108154990999992000040708004+43820+028580FM-12+000999999V0202701N002010075019N0050001N1+00701+99999999999ADDAY181999AY221999GF108991081091008001999999MW1251REMSYN048AAXX  07081 15499 41550 82702 10070 72582 889//;
0080154990999992000040710004+43820+028580FM-12+000999999V0202901N002010075019N0100001N1+00941+99999999999ADDGF106991061091008001001001REMSYN042AAXX  07101 15499 42560 62902 10094 86900;
0080154990999992000040714004+43820+028580FM-12+000999999V0202501N004010900019N0100001N1+01141+99999999999ADDGF106991041021008001001021REMSYN042AAXX  07141 15499 42560 62504 10114 84202;
0193154990999992000040912004+43820+028580FM-12+000999999V0200901N004012200019N0100001N1+00821+00321101861ADDAA199000091GF103991031021008001001001MA1999999101751MD1810021+9999SA1+0829REMSYN088AAXX  09121 15499 32560 30904 10082 20032 30175 40186 58002 83200 222// 00082 333 92427;EQDQ01  00002PRCP99
0159154990999992000041000004+43820+028580FM-12+000999999V0209999C000010075019N0100001N1+00701+00611101971ADDAA199000091GF108991081091008001999999MA1999999101861REMSYN076AAXX  10001 15499 32560 80000 10070 20061 30186 40197 5//// 889// 333 9242/;EQDQ01  00002PRCP99
0090154990999992000041007004+43820+028580FM-12+000999999V0201801N003012200019N0100001N1+00881+99999999999ADDGF103991031001999999031001REMSYN052AAXX  10071 15499 42960 31803 10088 83030 555 55083;
0080154990999992000041011004+43820+028580FM-12+000999999V0201401N006010075019N0100001N1+00901+99999999999ADDGF107991071021008001001001REMSYN042AAXX  10111 15499 42560 71406 10090 87200;
0080154990999992000041014004+43820+028580FM-12+000999999V0201401N006010900019N0100001N1+00951+99999999999ADDGF105991031021008001001021REMSYN042AAXX  10141 15499 42560 51406 10095 83202;
0234154990999992000041018004+43820+028580FM-12+000999999V0201401N003012200019N0100001N1+00841+00591101591ADDAA199000091GA1001+999999999GF100991001001999999001001IA1019KA1120M+01081MA1999999101481MD1710111+9999SA1+0849REMSYN094AAXX  10181 15499 32960 01403 10084 20059 30148 40159 57011 222// 00084 333 10108 30027 92427;EQDQ01  00002PRCP99
0169154990999992000041100004+43820+028580FM-12+000999999V0201401N002012200019N0100001N1+00701+00401101501ADDAA199000091GA1001+999999999GF100991001001999999001001MA1999999101391REMSYN070AAXX  11001 15499 32960 01402 10070 20040 30139 40150 5//// 333 92427;EQDQ01  00002PRCP99
0080154990999992000041111004+43820+028580FM-12+000999999V0201401N002019999999N0100001N1+00971+99999999999ADDGF108991081001999999071999REMSYN042AAXX  11111 15499 42960 81402 10097 8807/;
0080154990999992000041208004+43820+028580FM-12+000999999V0201401N004010042019N0100001N1+00761+99999999999ADDGF108991081061004501999999REMSYN042AAXX  12081 15499 42460 81404 10076 886//;
0080154990999992000041211004+43820+028580FM-12+000999999V0201401N004010042019N0100001N1+00821+99999999999ADDGF108991081061004501999999REMSYN042AAXX  12111 15499 42460 81404 10082 886//;
0201154990999992000041309004+43820+028580FM-12+000999999V0209999C000010042019N0010001N1+00701+00611101061ADDAA199000091AY141031AY221031GF108991081061004501999999MA1999999100951MD1110021+9999MW1101REMSYN082AAXX  13091 15499 31410 80000 10070 20061 30095 40106 51002 71042 886// 333 92424;EQDQ01  00002PRCP99
0252154990999992000041406004+43820+028580FM-12+000999999V0209999C000012200019N0010001N1+00601+00561101261ADDAA199000091AY141061GA1001+999999999GF100991001001999999001001IA1019IA2120+00409KA1120N+00441MA1999999101151MW1101SA1+0909REMSYN100AAXX  14061 15499 31910 00000 10060 20056 30115 40126 5//// 7104/ 222// 00090 333 20044 30004 92424;EQDQ01  00002PRCP99
0201154990999992000041409004+43820+028580FM-12+000999999V0201401N005019999999N0040001N1+00791+00741101251ADDAA199000091AY121031AY201031GF108991081001999999071999MA1999999101141MD1810011+9999MW1101REMSYN082AAXX  14091 15499 31940 81405 10079 20074 30114 40125 58001 71020 8807/ 333 92426;EQDQ01  00002PRCP99
0173154990999992000041415004+43820+028580FM-12+000999999V0201401N003010042019N0100001N1+00851+00771101121ADDAA199000091GF108991081061004501999999MA1999999101011MD1710141+9999REMSYN076AAXX  14151 15499 32460 81403 10085 20077 30101 40112 57014 886// 333 92427;EQDQ01  00002PRCP99
0234154990999992000041518004+43820+028580FM-12+000999999V0201401N004012200019N0100001N1+01121+00881101021ADDAA199000091GA1001+999999999GF100991001001999999001001IA1019KA1120M+01241MA1999999100911MD1310021+9999SA1+0869REMSYN094AAXX  15181 15499 32960 01404 10112 20088 30091 40102 53002 222// 00086 333 10124 30031 92427;EQDQ01  00002PRCP99
0159154990999992000041600004+43820+028580FM-12+000999999V0201601N004019999999N0100001N1+01061+00851101051ADDAA199000091GF106991061001999999071001MA1999999100941REMSYN076AAXX  16001 15499 32960 61604 10106 20085 30094 40105 5//// 86070 333 92427;EQDQ01  00002PRCP99
0080154990999992000041708004+43820+028580FM-12+000999999V0201601N001019999999N0100001N1+01241+99999999999ADDGF105991001001999999001061REMSYN042AAXX  17081 15499 42960 51601 10124 80006;
0173154990999992000041709004+43820+028580FM-12+000999999V0201601N001019999999N0100001N1+01271+01041101341ADDAA199000091GF105991001001999999001061MA1999999101231MD1210051+9999REMSYN076AAXX  17091 15499 32960 51601 10127 20104 30123 40134 52005 80006 333 92427;EQDQ01  00002PRCP99
0080154990999992000041710004+43820+028580FM-12+000999999V0209999C000012200019N0100001N1+01261+99999999999ADDGF103991001001999999001021REMSYN042AAXX  17101 15499 42960 30000 10126 80002;
0173154990999992000041809004+43820+028580FM-12+000999999V0200501N006019999999N0100001N1+01321+01051100911ADDAA199000091GF106991001001999999001061MA1999999100801MD1710041+9999REMSYN076AAXX  18091 15499 32960 60506 10132 20105 30080 40091 57004 80006 333 92427;EQDQ01  00002PRCP99
0080154990999992000041810004+43820+028580FM-12+000999999V0200501N006019999999N0100001N1+01351+99999999999ADDGF106991001001999999001061REMSYN042AAXX  18101 15499 42960 60506 10135 80006;
0080154990999992000041811004+43820+028580FM-12+000999999V0200501N005019999999N0100001N1+01371+99999999999ADDGF105991001001999999001061REMSYN042AAXX  18111 15499 42960 50505 10137 80006;
0080154990999992000041813004+43820+028580FM-12+000999999V0200501N003012200019N0100001N1+01301+99999999999ADDGF101991001001999999001011REMSYN042AAXX  18131 15499 42960 10503 10130 80001;
0173154990999992000041909004+43820+028580FM-12+000999999V0200201N007019999999N0100001N1+01341+01071100261ADDAA199000091GF106991061001999999071001MA1999999100151MD1810021+9999REMSYN076AAXX  19091 15499 32960 60207 10134 20107 30015 40026 58002 86070 333 92437;EQDQ01  00002PRCP99
0080154990999992000041913004+43820+028580FM-12+000999999V0200201N006019999999N0100001N1+01201+99999999999ADDGF108991081001999999071999REMSYN042AAXX  19131 15499 42960 80206 10120 8807/;
0173154990999992000041915004+43820+028580FM-12+000999999V0200201N006019999999N0100001N1+01221+00971100231ADDAA199000091GF106991061001999999071001MA1999999100121MD1810011+9999REMSYN076AAXX  19151 15499 32960 60206 10122 20097 30012 40023 58001 86070 333 92427;EQDQ01  00002PRCP99
0074154990999992000042005004+43820+028580FM-12+000999999V0200201N006019999999N0100001N1+01221+99999999999ADDGF106991999999008001999999REMSYN036AAXX  20051 15499 42560 60206 10122;
0173154990999992000042009004+43820+028580FM-12+000999999V0200201N006019999999N0100001N1+01291+01061100041ADDAA199000091GF108991081001999999071999MA1999999099931MD1210141+9999REMSYN076AAXX  20091 15499 32960 80206 10129 20106 39993 40004 52014 8807/ 333 92437;EQDQ01  00002PRCP99
0080154990999992000042013004+43820+028580FM-12+000999999V0200201N007019999999N0100001N1+01321+99999999999ADDGF108991081001999999071999REMSYN042AAXX  20131 15499 42960 80207 10132 8807/;
0080154990999992000042014004+43820+028580FM-12+000999999V0200201N007019999999N0100001N1+01261+99999999999ADDGF108991081001999999071999REMSYN042AAXX  20141 15499 42960 80207 10126 8807/;
0080154990999992000042017004+43820+028580FM-12+000999999V0200201N005010075019N0100001N1+01121+99999999999ADDGF108991081091008001999999REMSYN042AAXX  20171 15499 42560 80205 10112 889//;
0080154990999992000042108004+43820+028580FM-12+000999999V0200701N004010075019N0100001N1+01501+99999999999ADDGF108991081091008001999999REMSYN042AAXX  21081 15499 42560 80704 10150 889//;
0102154990999992000042113004+43820+028580FM-12+000999999V0200501N002019999999N0100001N1+99999+99999999999ADDAY161999AY201999GF106991061001999999071001MW1011REMSYN042AAXX  21131 15499 42960 60502 70160 86070;
0118154990999992000042307004+43820+028580FM-12+000999999V0203201N002010075019N0100001N1+01431+99999999999ADDAY181999AY221999GF108991081091008001999999MW1251REMSYN058AAXX  23071 15499 41560 83202 10143 72582 889// 555 55094;
0080154990999992000042308004+43820+028580FM-12+000999999V0209999C000010075019N0100001N1+01561+99999999999ADDGF108991081091008001999999REMSYN042AAXX  23081 15499 42560 80000 10156 889//;
