0227160080999992000010100004+45750+010530FM-12+146199999V0200301N005712200019N0150001N1-00641-00741999999ADDAA106000091AJ100309199999999GA1001+999999999GF100991001001999999001001IA1239MA1999999085441MD1310031+9999ME1315019REMSYN082AAXX  01004 16008 32965 00311 11064 21074 38544 48501 53003 92336 333 47030 92810;EQDQ01  00002PRCP06
0180160080999992000010103004+45750+010530FM-12+146199999V0200501N006712200019N0150001N1-00601-00701999999ADDGA1031+007509069GF103991031051008001001001MA1999999085521MD1110081+9999ME1315069REMSYN088AAXX  01034 16008 42565 30513 11060 21070 38552 48506 51008 83500 90240 333 83625 92810;
0258160080999992000010106004+45750+010530FM-12+146199999V0200401N005112200019N0150001N1-00661-00741999999ADDAA106000091AJ100309199999999GA1041+007509069GF104991041051008001001001IA1239KA1120N-00681MA1999999085571MD1210061+9999ME1315129REMSYN100AAXX  01064 16008 32565 40410 11066 21074 38557 48512 52006 84500 90535 333 21068 47030 84625 92810;EQDQ01  00002PRCP06
0180160080999992000010109004+45750+010530FM-12+146199999V0200601N004612200019N0200001N1-00701-00781999999ADDGA1021+007509089GF102991021011008001001001MA1999999085681MD1110111+9999ME1315259REMSYN088AAXX  01094 16008 42570 20609 11070 21078 38568 48525 51011 82100 90839 333 82825 92810;
0239160080999992000010112004+45750+010530FM-12+146199999V0200501N004110060019N0250001N1-00241-00711999999ADDAA106000091AJ100299199999999GA1061+006009089GF106991061011008001001001IA1239MA1999999085721MD1110041+9999ME1315269REMSYN094AAXX  01124 16008 32575 60508 11024 21071 38572 48526 51004 86100 91135 333 47029 86820 92810;EQDQ01  00002PRCP06
0180160080999992000010115004+45750+010530FM-12+146199999V0200301N003612200019N0300001N1+00001-00691999999ADDGA1031+009009069GF103991031051008001001001MA1999999085661MD1810061+9999ME1315219REMSYN088AAXX  01154 16008 42580 30307 10000 21069 38566 48521 58006 83500 91434 333 83630 92810;
0258160080999992000010118004+45750+010530FM-12+146199999V0200501N004610105019N0250001N1-00141-00591999999ADDAA106000091AJ100299199999999GA1061+010509069GF106991061051012501001001IA1239KA1120M+00061MA1999999085651MD1610011+9999ME1315219REMSYN100AAXX  01184 16008 32675 60509 11014 21059 38565 48521 56001 86500 91737 333 10006 47029 86635 92810;EQDQ01  00002PRCP06
0180160080999992000010121004+45750+010530FM-12+146199999V0200601N006710060019N0200001N1-00121-00511999999ADDGA1081+006009079GF108991081061008001999999MA1999999085701MD1310051+9999ME1315269REMSYN088AAXX  01214 16008 42570 80613 11012 21051 38570 48526 53005 886// 92042 333 88720 92810;
0227160080999992000010200004+45750+010530FM-12+146199999V0200701N006712200019N0150001N1-00141-00331999999ADDAA106000091AJ100299199999999GA1001+999999999GF100991001001999999001001IA1239MA1999999085711MD1110021+9999ME1315269REMSYN082AAXX  02004 16008 32965 00713 11014 21033 38571 48526 51002 92339 333 47029 92810;EQDQ01  00002PRCP06
0168160080999992000010203004+45750+010530FM-12+146199999V0200401N005712200019N0150001N1-00141-00331999999ADDGA1001+999999999GF100991001001999999001001MA1999999085781MD1310071+9999ME1315349REMSYN076AAXX  02034 16008 42965 00411 11014 21033 38578 48534 53007 90235 333 92810;
0246160080999992000010206004+45750+010530FM-12+146199999V0200401N005112200019N0150001N1-00181-00431999999ADDAA106000091AJ100299199999999GA1001+999999999GF100991001001999999001001IA1239KA1120N-00181MA1999999085861MD1110081+9999ME1315409REMSYN088AAXX  02064 16008 32965 00410 11018 21043 38586 48540 51008 90540 333 21018 47029 92810;EQDQ01  00002PRCP06
0168160080999992000010209004+45750+010530FM-12+146199999V0200601N007712200019N0200001N1-00301-00561999999ADDGA1001+999999999GF100991001001999999001001MA1999999086011MD1210161+9999ME1315539REMSYN076AAXX  02094 16008 42970 00615 11030 21056 38601 48553 52016 90838 333 92810;
0227160080999992000010212004+45750+010530FM-12+146199999V0200901N009812200019N0250001N1+00081-00771999999ADDAA106000091AJ100289199999999GA1001+999999999GF100991001001999999001001IA1239MA1999999086051MD1110031+9999ME1315609REMSYN082AAXX  02124 16008 32975 00919 10008 21077 38605 48560 51003 91140 333 47028 92810;EQDQ01  00002PRCP06
0158160080999992000010215004+45750+010530FM-12+146199999V0200601N007212200019N0300001N1+00241-00881999999ADDGF103991001001999999001011MA1999999086051MD1410001+9999ME1315609REMSYN082AAXX  02154 16008 42980 30614 10024 21088 38605 48560 54000 80001 91435 333 92810;
0246160080999992000010218004+45750+010530FM-12+146199999V0200401N005712200019N0250001N1-00101-00651999999ADDAA106000091AJ100289199999999GA1001+999999999GF100991001001999999001001IA1239KA1120M+00301MA1999999086181MD1310131+9999ME1315739REMSYN088AAXX  02184 16008 32975 00411 11010 21065 38618 48573 53013 91734 333 10030 47028 92810;EQDQ01  00002PRCP06
0168160080999992000010221004+45750+010530FM-12+146199999V0200401N005712200019N0200001N1-00281-00621999999ADDGA1001+999999999GF100991001001999999001001MA1999999086281MD1210101+9999ME1315809REMSYN076AAXX  02214 16008 42970 00411 11028 21062 38628 48580 52010 92036 333 92810;
0227160080999992000010300004+45750+010530FM-12+146199999V0200601N006212200019N0200001N1-00441-00691999999ADDAA106000091AJ100289199999999GA1001+999999999GF100991001001999999001001IA1239MA1999999086331MD1110061+9999ME1315859REMSYN082AAXX  03004 16008 32970 00612 11044 21069 38633 48585 51006 92335 333 47028 92810;EQDQ01  00002PRCP06
0168160080999992000010303004+45750+010530FM-12+146199999V0200301N005112200019N0200001N1-00541-00781999999ADDGA1001+999999999GF100991001001999999001001MA1999999086341MD1110011+9999ME1315849REMSYN076AAXX  03034 16008 42970 00310 11054 21078 38634 48584 51001 90236 333 92810;
0246160080999992000010306004+45750+010530FM-12+146199999V0200501N006212200019N0200001N1-00601-00851999999ADDAA106000091AJ100289199999999GA1001+999999999GF100991001001999999001001IA1239KA1120N-00601MA1999999086301MD1810041+9999ME1315799REMSYN088AAXX  03064 16008 32970 00512 11060 21085 38630 48579 58004 90534 333 21060 47028 92810;EQDQ01  00002PRCP06
0158160080999992000010309004+45750+010530FM-12+146199999V0200401N006712200019N0250001N1-00521-00901999999ADDGF103991001001999999001011MA1999999086381MD1310081+9999ME1315909REMSYN082AAXX  03094 16008 42975 30413 11052 21090 38638 48590 53008 80001 90840 333 92810;
0227160080999992000010312004+45750+010530FM-12+146199999V0200501N006212200019N0300001N1+00101-01021999999ADDAA106000091AJ100279199999999GA1001+999999999GF100991001001999999001001IA1239MA1999999086281MD1810101+9999ME1315829REMSYN082AAXX  03124 16008 32980 00512 10010 21102 38628 48582 58010 91135 333 47027 92810;EQDQ01  00002PRCP06
0168160080999992000010315004+45750+010530FM-12+146199999V0200501N006212200019N0300001N1+00141-01051999999ADDGA1001+999999999GF100991001001999999001001MA1999999086161MD1610121+9999ME1315689REMSYN076AAXX  03154 16008 42980 00512 10014 21105 38616 48568 56012 91434 333 92810;
0246160080999992000010318004+45750+010530FM-12+146199999V0200601N004112200019N0250001N1-00201-00871999999ADDAA106000091AJ100279199999999GA1001+999999999GF100991001001999999001001IA1239KA1120M+00301MA1999999086151MD1610011+9999ME1315679REMSYN088AAXX  03184 16008 32975 00608 11020 21087 38615 48567 56001 91736 333 10030 47027 92810;EQDQ01  00002PRCP06
0168160080999992000010321004+45750+010530FM-12+146199999V0200501N004612200019N0250001N1-00241-00871999999ADDGA1001+999999999GF100991001001999999001001MA1999999086151MD1410001+9999ME1315679REMSYN076AAXX  03214 16008 42975 00509 11024 21087 38615 48567 54000 92039 333 92810;
0227160080999992000010400004+45750+010530FM-12+146199999V0200501N004612200019N0200001N1-00301-00881999999ADDAA106000091AJ100279199999999GA1001+999999999GF100991001001999999001001IA1239MA1999999086081MD1810071+9999ME1315649REMSYN082AAXX  04004 16008 32970 00509 11030 21088 38608 48564 58007 92340 333 47027 92810;EQDQ01  00002PRCP06
0168160080999992000010403004+45750+010530FM-12+146199999V0200401N006212200019N0200001N1-00401-00951999999ADDGA1001+999999999GF100991001001999999001001MA1999999086001MD1710081+9999ME1315539REMSYN076AAXX  04034 16008 42970 00412 11040 21095 38600 48553 57008 90235 333 92810;
0168160080999992000010409004+45750+010530FM-12+146199999V0200401N007212200019N0250001N1-00401-00951999999ADDGA1001+999999999GF100991001001999999001001MA1999999085791MD1610081+9999ME1315349REMSYN076AAXX  04094 16008 42975 00414 11040 21095 38579 48534 56008 90838 333 92810;
0227160080999992000010412004+45750+010530FM-12+146199999V0200601N006212200019N0300001N1+00281-01201999999ADDAA106000091AJ100269199999999GA1001+999999999GF100991001001999999001001IA1239MA1999999085711MD1810091+9999ME1315279REMSYN082AAXX  04124 16008 32980 00612 10028 21120 38571 48527 58009 91135 333 47026 92810;EQDQ01  00002PRCP06
0168160080999992000010415004+45750+010530FM-12+146199999V0200101N006712200019N0300001N1+00401-01181999999ADDGA1001+999999999GF100991001001999999001001MA1999999085521MD1710191+9999ME1315089REMSYN076AAXX  04154 16008 42980 00113 10040 21118 38552 48508 57019 91434 333 92810;
0246160080999992000010418004+45750+010530FM-12+146199999V0200401N006712200019N0250001N1-00121-00831999999ADDAA106000091AJ100269199999999GA1001+999999999GF100991001001999999001001IA1239KA1120M+00501MA1999999085561MD1310041+9999ME1315139REMSYN088AAXX  04184 16008 32975 00413 11012 21083 38556 48513 53004 91736 333 10050 47026 92810;EQDQ01  00002PRCP06
0168160080999992000010421004+45750+010530FM-12+146199999V0200501N005112200019N0250001N1-00201-00811999999ADDGA1001+999999999GF100991001001999999001001MA1999999085621MD1210061+9999ME1315189REMSYN076AAXX  04214 16008 42975 00510 11020 21081 38562 48518 52006 92038 333 92810;
0239160080999992000010500004+45750+010530FM-12+146199999V0200301N006210270019N0200001N1-00161-00731999999ADDAA106000091AJ100269199999999GA1061+027009049GF106991061001999999011001IA1239MA1999999085701MD1110081+9999ME1315269REMSYN094AAXX  05004 16008 32970 60312 11016 21073 38570 48526 51008 86010 92334 333 47026 86459 92810;EQDQ01  00002PRCP06
0180160080999992000010503004+45750+010530FM-12+146199999V0200501N004610270019N0200001N1-00141-00621999999ADDGA1071+027009049GF107991071001999999011001MA1999999085701MD1410001+9999ME1315269REMSYN088AAXX  05034 16008 42970 70509 11014 21062 38570 48526 54000 87010 90240 333 87459 92810;
0258160080999992000010506004+45750+010530FM-12+146199999V0200501N004110270019N0150001N1-00041-00341999999ADDAA106000091AJ100269199999999GA1071+027009049GF107991071001999999011001IA1239KA1120N-00201MA1999999085671MD1810021+9999ME1315219REMSYN100AAXX  05064 16008 32965 70508 11004 21034 38567 48521 58002 87010 90538 333 21020 47026 87459 92810;EQDQ01  00002PRCP06
0180160080999992000010509004+45750+010530FM-12+146199999V0200501N005110075019N0150001N1+00001-00291999999ADDGA1061+007509089GF106991061021008001001001MA1999999085701MD1310031+9999ME1315279REMSYN088AAXX  05094 16008 42565 60510 10000 21029 38570 48527 53003 86200 90840 333 86825 92810;
0239160080999992000010512004+45750+010530FM-12+146199999V0200401N004112200019N0200001N1+00401-00181999999ADDAA106000091AJ100259199999999GA1041+007509089GF104991041011008001001001IA1239MA1999999085781MD1110081+9999ME1315369REMSYN094AAXX  05124 16008 32570 40408 10040 21018 38578 48536 51008 84100 91135 333 47025 84825 92810;EQDQ01  00002PRCP06
0168160080999992000010515004+45750+010530FM-12+146199999V0209999C000012200019N0200001N1+00401-00351999999ADDGA1001+999999999GF100991001001999999001001MA1999999085721MD1810061+9999ME1315289REMSYN076AAXX  05154 16008 42970 00000 10040 21035 38572 48528 58006 91438 333 92810;
0168160080999992000010521004+45750+010530FM-12+146199999V0200301N003612200019N0200001N1-00121-00381999999ADDGA1001+999999999GF100991001001999999001001MA1999999085701MD1110061+9999ME1315279REMSYN076AAXX  05214 16008 42970 00307 11012 21038 38570 48527 51006 92038 333 92810;
0168160080999992000010603004+45750+010530FM-12+146199999V0200401N003112200019N0200001N1-00501-00711999999ADDGA1001+999999999GF100991001001999999001001MA1999999085801MD1410001+9999ME1315359REMSYN076AAXX  06034 16008 42970 00406 11050 21071 38580 48535 54000 90238 333 92810;
0168160080999992000010609004+45750+010530FM-12+146199999V0200601N005112200019N0300001N1-00601-00791999999ADDGA1001+999999999GF100991001001999999001001MA1999999085701MD1610011+9999ME1315259REMSYN076AAXX  06094 16008 42980 00610 11060 21079 38570 48525 56001 90838 333 92810;
0227160080999992000010612004+45750+010530FM-12+146199999V0200301N005112200019N0300001N1+00201-00791999999ADDAA106000091AJ100219199999999GA1001+999999999GF100991001001999999001001IA1239MA1999999085701MD1410001+9999ME1315279REMSYN082AAXX  06124 16008 32980 00310 10020 21079 38570 48527 54000 91139 333 47021 92810;EQDQ01  00002PRCP06
0168160080999992000010615004+45750+010530FM-12+146199999V0200301N004112200019N0300001N1+00301-00971999999ADDGA1001+999999999GF100991001001999999001001MA1999999085601MD1810101+9999ME1315199REMSYN076AAXX  06154 16008 42980 00308 10030 21097 38560 48519 58010 91438 333 92810;
0168160080999992000010621004+45750+010530FM-12+146199999V0200201N005112200019N0200001N1-00101-00771999999ADDGA1001+999999999GF100991001001999999001001MA1999999085711MD1210011+9999ME1315269REMSYN076AAXX  06214 16008 42970 00210 11010 21077 38571 48526 52001 92038 333 92810;
0227160080999992000010700004+45750+010530FM-12+146199999V0200301N006212200019N0200001N1-00181-00781999999ADDAA106000091AJ100209199999999GA1001+999999999GF100991001001999999001001IA1239MA1999999085801MD1110091+9999ME1315349REMSYN082AAXX  07004 16008 32970 00312 11018 21078 38580 48534 51009 92339 333 47020 92810;EQDQ01  00002PRCP06
0168160080999992000010709004+45750+010530FM-12+146199999V0200401N005112200019N0300001N1-00301-00851999999ADDGA1001+999999999GF100991001001999999001001MA1999999085881MD1310081+9999ME1315459REMSYN076AAXX  07094 16008 42980 00410 11030 21085 38588 48545 53008 90839 333 92810;
0227160080999992000010712004+45750+010530FM-12+146199999V0200201N004112200019N0300001N1+00201-00861999999ADDAA106000091AJ100209199999999GA1001+999999999GF100991001001999999001001IA1239MA1999999085801MD1110011+9999ME1315469REMSYN082AAXX  07124 16008 32980 00208 10020 21086 38580 48546 51001 91139 333 47020 92810;EQDQ01  00002PRCP06
0168160080999992000010715004+45750+010530FM-12+146199999V0200301N002612200019N0300001N1+00401-01001999999ADDGA1001+999999999GF100991001001999999001001MA1999999085781MD1810111+9999ME1315369REMSYN076AAXX  07154 16008 42980 00305 10040 21100 38578 48536 58011 91438 333 92810;
0246160080999992000010718004+45750+010530FM-12+146199999V0209999C000012200019N0200001N1-00301-00851999999ADDAA106000091AJ100189199999999GA1001+999999999GF100991001001999999001001IA1239KA1120M+00501MA1999999085801MD1310021+9999ME1315369REMSYN088AAXX  07184 16008 32970 00000 11030 21085 38580 48536 53002 91739 333 10050 47018 92810;EQDQ01  00002PRCP06
0168160080999992000010721004+45750+010530FM-12+146199999V0209999C000012200019N0200001N1-00501-00851999999ADDGA1001+999999999GF100991001001999999001001MA1999999085901MD1110101+9999ME1315449REMSYN076AAXX  07214 16008 42970 00000 11050 21085 38590 48544 51010 92038 333 92810;
0227160080999992000010800004+45750+010530FM-12+146199999V0209999C000012200019N0200001N1-00701-00961999999ADDAA106000091AJ100189199999999GA1001+999999999GF100991001001999999001001IA1239MA1999999085901MD1410001+9999ME1315449REMSYN082AAXX  08004 16008 32970 00000 11070 21096 38590 48544 54000 92338 333 47018 92810;EQDQ01  00002PRCP06
0168160080999992000010803004+45750+010530FM-12+146199999V0209999C000012200019N0200001N1-00821-00971999999ADDGA1001+999999999GF100991001001999999001001MA1999999085801MD1810101+9999ME1315339REMSYN076AAXX  08034 16008 42970 00000 11082 21097 38580 48533 58010 90239 333 92810;
0246160080999992000010806004+45750+010530FM-12+146199999V0209999C000012200019N0200001N1-00901-01051999999ADDAA106000091AJ100189199999999GA1001+999999999GF100991001001999999001001IA1239KA1120N-00901MA1999999085781MD1610021+9999ME1315329REMSYN088AAXX  08064 16008 32970 00000 11090 21105 38578 48532 56002 90538 333 21090 47018 92810;EQDQ01  00002PRCP06
0227160080999992000010812004+45750+010530FM-12+146199999V0209999C000012200019N0200001N1+00101-01001999999ADDAA106000091AJ100189199999999GA1001+999999999GF100991001001999999001001IA1239MA1999999085751MD1810051+9999ME1315329REMSYN082AAXX  08124 16008 32970 00000 10010 21100 38575 48532 58005 91138 333 47018 92810;EQDQ01  00002PRCP06
0168160080999992000010815004+45750+010530FM-12+146199999V0209999C000012200019N0200001N1+00401+99999999999ADDGA1001+999999999GF100991001001999999001001MA1999999085601MD1710151+9999ME1315199REMSYN076AAXX  08154 16008 42970 00000 10040 2//// 38560 48519 57015 91439 333 92810;
0246160080999992000010818004+45750+010530FM-12+146199999V0209999C000012200019N0200001N1-00301-00821999999ADDAA106000091AJ100169199999999GA1001+999999999GF100991001001999999001001IA1239KA1120M+00421MA1999999085621MD1310021+9999ME1315189REMSYN088AAXX  08184 16008 32970 00000 11030 21082 38562 48518 53002 91738 333 10042 47016 92810;EQDQ01  00002PRCP06
0168160080999992000010821004+45750+010530FM-12+146199999V0209999C000012200019N0200001N1-00541-00901999999ADDGA1001+999999999GF100991001001999999001001MA1999999085681MD1110061+9999ME1315259REMSYN076AAXX  08214 16008 42970 00000 11054 21090 38568 48525 51006 92039 333 92810;
0227160080999992000010900004+45750+010530FM-12+146199999V0209999C000012200019N0200001N1-00701-00961999999ADDAA106000091AJ100189199999999GA1001+999999999GF100991001001999999001001IA1239MA1999999085641MD1810041+9999ME1315209REMSYN082AAXX  09004 16008 32970 00000 11070 21096 38564 48520 58004 92339 333 47018 92810;EQDQ01  00002PRCP06
0168160080999992000010903004+45750+010530FM-12+146199999V0209999C000012200019N0200001N1-00701-00901999999ADDGA1001+999999999GF100991001001999999001001MA1999999085801MD1610041+9999ME1315179REMSYN076AAXX  09034 16008 42970 00000 11070 21090 38580 48517 56004 90238 333 92810;
0231160080999992000010909004+45750+010530FM-12+146199999V0209999C000012200019N0200001N1-00601-00791999999ADDGA1061+009009069GF199999999999999999001001MA1999999085581MD1310031+9999ME1315179REMSYN088AAXX  09094 16008 42570 00000 11060 21079 38558 48517 53003 86500 90838 333 86630 92810;EQDQ01+000002SCOTCVQ02+000002SCOTLCQ03+000002SCOLCG
0239160080999992000010912004+45750+010530FM-12+146199999V0209999C000010090019N0200001N1-00201-00581999999ADDAA106000091AJ100189199999999GA1061+009009069GF106991061051008001001001IA1239MA1999999085591MD1110011+9999ME1315199REMSYN094AAXX  09124 16008 32570 60000 11020 21058 38559 48519 51001 86500 91139 333 47018 86630 92810;EQDQ01  00002PRCP06
0180160080999992000010915004+45750+010530FM-12+146199999V0209999C000010090019N0200001N1-00021-00581999999ADDGA1081+009009069GF108991081051008001999999MA1999999085511MD1810081+9999ME1315079REMSYN088AAXX  09154 16008 42570 80000 11002 21058 38551 48507 58008 885// 91439 333 88630 92810;
0258160080999992000010918004+45750+010530FM-12+146199999V0209999C000010090019N0200001N1-00101-00621999999ADDAA106000091AJ100189199999999GA1061+009009069GF106991061051008001001001IA1239KA1120M+00081MA1999999085561MD1310051+9999ME1315139REMSYN100AAXX  09184 16008 32570 60000 11010 21062 38556 48513 53005 86500 91738 333 10008 47018 86630 92810;EQDQ01  00002PRCP06
0180160080999992000010921004+45750+010530FM-12+146199999V0209999C000010090019N0200001N1-00121-00321999999ADDGA1061+009009069GF106991061051008001001001MA1999999085631MD1210071+9999ME1315219REMSYN088AAXX  09214 16008 42570 60000 11012 21032 38563 48521 52007 86500 92040 333 86630 92810;
0239160080999992000011000004+45750+010530FM-12+146199999V0209999C000010090019N0200001N1-00121-00361999999ADDAA106000091AJ100189199999999GA1061+009009069GF106991061051008001001001IA1239MA1999999085701MD1110071+9999ME1315269REMSYN094AAXX  10004 16008 32570 60000 11012 21036 38570 48526 51007 86500 92338 333 47018 86630 92810;EQDQ01  00002PRCP06
0180160080999992000011003004+45750+010530FM-12+146199999V0209999C000010090019N0200001N1-00101-00391999999ADDGA1061+009009069GF106991061051008001001001MA1999999085781MD1310081+9999ME1315349REMSYN088AAXX  10034 16008 42570 60000 11010 21039 38578 48534 53008 86500 90239 333 86630 92810;
0258160080999992000011006004+45750+010530FM-12+146199999V0209999C000010090019N0200001N1-00161-00411999999ADDAA106000091AJ100189199999999GA1061+009009069GF106991061051008001001001IA1239KA1120N-00161MA1999999085801MD1110021+9999ME1315349REMSYN100AAXX  10064 16008 32570 60000 11016 21041 38580 48534 51002 86500 90539 333 21016 47018 86630 92810;EQDQ01  00002PRCP06
0180160080999992000011009004+45750+010530FM-12+146199999V0200401N006210090019N0200001N1-00161-00391999999ADDGA1061+009009069GF106991061051008001001001MA1999999085961MD1310161+9999ME1315519REMSYN088AAXX  10094 16008 42570 60412 11016 21039 38596 48551 53016 86500 90839 333 86630 92810;
0261160080999992000011012004+45750+010530FM-12+146199999V0200401N007710180019N0200001N1+00201-00271999999ADDAA106000091AJ100189199999999GA1021+009009089GA2061+018009049GF106991021011008001011001IA1239MA1999999086021MD1210061+9999ME1315609REMSYN100AAXX  10124 16008 32570 60415 10020 21027 38602 48560 52006 82110 91139 333 47018 82830 86456 92810;EQDQ01  00002PRCP06
0180160080999992000011015004+45750+010530FM-12+146199999V0200501N007210270019N0200001N1+00321-00451999999ADDGA1061+027009049GF106991061001008001011001MA1999999086021MD1010001+9999ME1315559REMSYN088AAXX  10154 16008 42570 60514 10032 21045 38602 48555 50000 86010 91435 333 86459 92810;
0258160080999992000011018004+45750+010530FM-12+146199999V0200701N006210270019N0200001N1+00061-00491999999ADDAA106000091AJ100189199999999GA1061+027009049GF106991061001008001011001IA1239KA1120M+00401MA1999999086101MD1310081+9999ME1315659REMSYN100AAXX  10184 16008 32570 60712 10006 21049 38610 48565 53008 86010 91737 333 10040 47018 86459 92810;EQDQ01  00002PRCP06
0180160080999992000011021004+45750+010530FM-12+146199999V0200401N004110270019N0200001N1-00101-00401999999ADDGA1061+027009049GF106991061001008001011001MA1999999086261MD1210161+9999ME1315789REMSYN088AAXX  10214 16008 42570 60408 11010 21040 38626 48578 52016 86010 92034 333 86459 92810;
0239160080999992000011100004+45750+010530FM-12+146199999V0209999C000010270019N0200001N1-00301-00461999999ADDAA106000091AJ100189199999999GA1061+027009049GF106991061001999999011001IA1239MA1999999086321MD1110061+9999ME1315809REMSYN094AAXX  11004 16008 32970 60000 11030 21046 38632 48580 51006 86010 92338 333 47018 86459 92810;EQDQ01  00002PRCP06
0180160080999992000011103004+45750+010530FM-12+146199999V0209999C000010270019N0200001N1-00461-00781999999ADDGA1061+027009049GF106991061001999999011001MA1999999086401MD1310081+9999ME1315909REMSYN088AAXX  11034 16008 42970 60000 11046 21078 38640 48590 53008 86010 90239 333 86459 92810;
0258160080999992000011106004+45750+010530FM-12+146199999V0200601N002610270019N0200001N1-00601-00821999999ADDAA106000091AJ100189199999999GA1061+027009049GF106991061001999999011001IA1239KA1120N-00601MA1999999086411MD1110011+9999ME1315899REMSYN100AAXX  11064 16008 32970 60605 11060 21082 38641 48589 51001 86010 90536 333 21060 47018 86459 92810;EQDQ01  00002PRCP06
0180160080999992000011109004+45750+010530FM-12+146199999V0200401N002110090019N0300001N1-00521-00671999999ADDGA1061+009009069GF106991061051008001001001MA1999999086501MD1310091+9999ME1315989REMSYN088AAXX  11094 16008 42580 60404 11052 21067 38650 48598 53009 86500 90837 333 86630 92810;
0239160080999992000011112004+45750+010530FM-12+146199999V0200301N004612200019N0300001N1-00101-00511999999ADDAA106000091AJ100179199999999GA1041+012009069GF104991041051012501001001IA1239MA1999999086491MD1810011+9999ME1316009REMSYN094AAXX  11124 16008 32680 40309 11010 21051 38649 48600 58001 84500 91134 333 47017 84640 92810;EQDQ01  00002PRCP06
0168160080999992000011115004+45750+010530FM-12+146199999V0200401N003612200019N0300001N1+00201-00621999999ADDGA1001+999999999GF100991001001999999001001MA1999999086401MD1610091+9999ME1315939REMSYN076AAXX  11154 16008 42980 00407 10020 21062 38640 48593 56009 91438 333 92810;
0246160080999992000011118004+45750+010530FM-12+146199999V0200101N003112200019N0200001N1-00301-00641999999ADDAA106000091AJ100169199999999GA1001+999999999GF100991001001999999001001IA1239KA1120M+00261MA1999999086451MD1310051+9999ME1315939REMSYN088AAXX  11184 16008 32970 00106 11030 21064 38645 48593 53005 91735 333 10026 47016 92810;EQDQ01  00002PRCP06
0168160080999992000011121004+45750+010530FM-12+146199999V0200401N002112200019N0200001N1-00481-00711999999ADDGA1001+999999999GF100991001001999999001001MA1999999086491MD1110041+9999ME1315989REMSYN076AAXX  11214 16008 42970 00404 11048 21071 38649 48598 51004 92037 333 92810;
0227160080999992000011200004+45750+010530FM-12+146199999V0200501N003612200019N0200001N1-00601-00791999999ADDAA106000091AJ100169199999999GA1001+999999999GF100991001001999999001001IA1239MA1999999086491MD1410001+9999ME1315979REMSYN082AAXX  12004 16008 32970 00507 11060 21079 38649 48597 54000 92338 333 47016 92810;EQDQ01  00002PRCP06
0168160080999992000011203004+45750+010530FM-12+146199999V0200401N004112200019N0200001N1-00701-00841999999ADDGA1001+999999999GF100991001001999999001001MA1999999086401MD1810091+9999ME1315899REMSYN076AAXX  12034 16008 42970 00408 11070 21084 38640 48589 58009 90239 333 92810;
0246160080999992000011206004+45750+010530FM-12+146199999V0200401N003112200019N0200001N1-00861-00981999999ADDAA106000091AJ100169199999999GA1001+999999999GF100991001001999999001001IA1239KA1120N-00861MA1999999086301MD1710101+9999ME1315779REMSYN088AAXX  12064 16008 32970 00406 11086 21098 38630 48577 57010 90536 333 21086 47016 92810;EQDQ01  00002PRCP06
0168160080999992000011209004+45750+010530FM-12+146199999V0200401N003112200019N0300001N1-00861-00981999999ADDGA1001+999999999GF100991001001999999001001MA1999999086291MD1610011+9999ME1315779REMSYN076AAXX  12094 16008 42980 00406 11086 21098 38629 48577 56001 90834 333 92810;
0227160080999992000011212004+45750+010530FM-12+146199999V0200401N003612200019N0300001N1-00201-00911999999ADDAA106000091AJ100169199999999GA1001+999999999GF100991001001999999001001IA1239MA1999999086121MD1810171+9999ME1315649REMSYN082AAXX  12124 16008 32980 00407 11020 21091 38612 48564 58017 91137 333 47016 92810;EQDQ01  00002PRCP06
0168160080999992000011215004+45750+010530FM-12+146199999V0209999C000012200019N0300001N1+00021-01111999999ADDGA1001+999999999GF100991001001999999001001MA1999999085981MD1710141+9999ME1315549REMSYN076AAXX  12154 16008 42980 00000 10002 21111 38598 48554 57014 91435 333 92820;
0246160080999992000011218004+45750+010530FM-12+146199999V0209999C000012200019N0200001N1-00501-00981999999ADDAA106000091AJ100159199999999GA1001+999999999GF100991001001999999001001IA1239KA1120M+00041MA1999999085951MD1610031+9999ME1315499REMSYN088AAXX  12184 16008 32970 00000 11050 21098 38595 48549 56003 91739 333 10004 47015 92820;EQDQ01  00002PRCP06
0168160080999992000011221004+45750+010530FM-12+146199999V0209999C000012200019N0200001N1-00861-01141999999ADDGA1001+999999999GF100991001001999999001001MA1999999085911MD1610041+9999ME1315439REMSYN076AAXX  12214 16008 42970 00000 11086 21114 38591 48543 56004 92036 333 92820;
0227160080999992000011300004+45750+010530FM-12+146199999V0209999C000012200019N0200001N1-01021-01181999999ADDAA106000091AJ100159199999999GA1001+999999999GF100991001001999999001001IA1239MA1999999085871MD1810041+9999ME1315379REMSYN082AAXX  13004 16008 32970 00000 11102 21118 38587 48537 58004 92335 333 47015 92820;EQDQ01  00002PRCP06
0168160080999992000011303004+45750+010530FM-12+146199999V0209999C000012200019N0200001N1-01181-01251999999ADDGA1001+999999999GF100991001001999999001001MA1999999085791MD1710081+9999ME1315329REMSYN076AAXX  13034 16008 42970 00000 11118 21125 38579 48532 57008 90239 333 92820;
0246160080999992000011306004+45750+010530FM-12+146199999V0209999C000012200019N0200001N1-01221-01261999999ADDAA106000091AJ100159199999999GA1001+999999999GF100991001001999999001001IA1239KA1120N-01221MA1999999085651MD1610141+9999ME1315189REMSYN088AAXX  13064 16008 32970 00000 11122 21126 38565 48518 56014 90534 333 21122 47015 92820;EQDQ01  00002PRCP06
0168160080999992000011309004+45750+010530FM-12+146199999V0209999C000012200019N0300001N1-01321-01361999999ADDGA1001+999999999GF100991001001999999001001MA1999999085601MD1610051+9999ME1315169REMSYN076AAXX  13094 16008 42980 00000 11132 21136 38560 48516 56005 90835 333 92820;
0227160080999992000011312004+45750+010530FM-12+146199999V0209999C000012200019N0300001N1-00441-00971999999ADDAA106000091AJ100139199999999GA1001+999999999GF100991001001999999001001IA1239MA1999999085491MD1810111+9999ME1315079REMSYN082AAXX  13124 16008 32980 00000 11044 21097 38549 48507 58011 91137 333 47013 92820;EQDQ01  00002PRCP06
0168160080999992000011315004+45750+010530FM-12+146199999V0209999C000012200019N0300001N1-00401-00851999999ADDGA1001+999999999GF100991001001999999001001MA1999999085371MD1710121+9999ME1314939REMSYN076AAXX  13154 16008 42980 00000 11040 21085 38537 48493 57012 91434 333 92820;
0246160080999992000011318004+45750+010530FM-12+146199999V0209999C000012200019N0200001N1-00901-01091999999ADDAA106000091AJ100139199999999GA1001+999999999GF100991001001999999001001IA1239KA1120M-00321MA1999999085391MD1310021+9999ME1314989REMSYN088AAXX  13184 16008 32970 00000 11090 21109 38539 48498 53002 91736 333 11032 47013 92820;EQDQ01  00002PRCP06
0172160080999992000011321004+45750+010530FM-12+146199999V0209999C000012200019N0200001N1-01121-01191999999ADDGA1001+999999999GF100991001001999999001001MA1999999085401MD1110011+9999ME1314989REMSYN080    AAXX  13214 16008 42970 00000 11112 21119 38540 48498 51001 92039 333 92820;
0231160080999992000011400004+45750+010530FM-12+146199999V0209999C000012200019N0200001N1-01221-01261999999ADDAA199000091AJ100139199999999GA1001+999999999GF100991001001999999001001IA1239MA1999999085401MD1410001+9999ME1314989REMSYN086    AAXX  14004 16008 32970 00000 11122 21126 38540 48498 54000 92338 333 47013 92820;EQDQ01  00002PRCP99
0172160080999992000011403004+45750+010530FM-12+146199999V0209999C000012200019N0200001N1-01321-01361999999ADDGA1001+999999999GF100991001001999999001001MA1999999085411MD1310011+9999ME1314979REMSYN080    AAXX  14034 16008 42970 00000 11132 21136 38541 48497 53001 90235 333 92820;
0250160080999992000011406004+45750+010530FM-12+146199999V0209999C000012200019N0200001N1-01401-01441999999ADDAA199000091AJ100139199999999GA1001+999999999GF100991001001999999001001IA1239KA1120N-01421MA1999999085411MD1010001+9999ME1314979REMSYN092    AAXX  14064 16008 32970 00000 11140 21144 38541 48497 50000 90537 333 21142 47013 92820;EQDQ01  00002PRCP99
0172160080999992000011409004+45750+010530FM-12+146199999V0209999C000012200019N0300001N1-01321-01361999999ADDGA1001+999999999GF100991001001999999001001MA1999999085481MD1310071+9999ME1315059REMSYN080    AAXX  14094 16008 42980 00000 11132 21136 38548 48505 53007 90836 333 92820;
0231160080999992000011412004+45750+010530FM-12+146199999V0209999C000012200019N0300001N1-00201-01161999999ADDAA199000091AJ100129199999999GA1001+999999999GF100991001001999999001001IA1239MA1999999085501MD1010021+9999ME1315079REMSYN086    AAXX  14124 16008 32980 00000 11020 21116 38550 48507 50002 91134 333 47012 92843;EQDQ01  00002PRCP99
0172160080999992000011415004+45750+010530FM-12+146199999V0202201N002112200019N0300001N1-00081-01091999999ADDGA1001+999999999GF100991001001999999001001MA1999999085441MD1510061+9999ME1315029REMSYN080    AAXX  14154 16008 42980 02204 11008 21109 38544 48502 55006 91439 333 92843;
0250160080999992000011418004+45750+010530FM-12+146199999V0209999C000012200019N0200001N1-00401-00911999999ADDAA199000091AJ100119199999999GA1001+999999999GF100991001001999999001001IA1239KA1120M-00031MA1999999085511MD1210071+9999ME1315079REMSYN092    AAXX  14184 16008 32970 00000 11040 21091 38551 48507 52007 91736 333 11003 47011 92843;EQDQ01  00002PRCP99
0172160080999992000011421004+45750+010530FM-12+146199999V0209999C000012200019N0200001N1-00761-00971999999ADDGA1001+999999999GF100991001001999999001001MA1999999085691MD1110181+9999ME1315259REMSYN080    AAXX  14214 16008 42970 00000 11076 21097 38569 48525 51018 92035 333 92843;
0231160080999992000011500004+45750+010530FM-12+146199999V0209999C000012200019N0200001N1-00781-00991999999ADDAA199000091AJ100119199999999GA1001+999999999GF100991001001999999001001IA1239MA1999999085701MD1110011+9999ME1315259REMSYN086    AAXX  15004 16008 32970 00000 11078 21099 38570 48525 51001 92339 333 47011 92843;EQDQ01  00002PRCP99
0172160080999992000011503004+45750+010530FM-12+146199999V0200601N002612200019N0200001N1-00821-00941999999ADDGA1001+999999999GF100991001001999999001001MA1999999085741MD1310041+9999ME1315309REMSYN080    AAXX  15034 16008 42970 00605 11082 21094 38574 48530 53004 90236 333 92843;
0250160080999992000011506004+45750+010530FM-12+146199999V0200501N003612200019N0200001N1-00821-00941999999ADDAA199000091AJ100119199999999GA1001+999999999GF100991001001999999001001IA1239KA1120N-00821MA1999999085711MD1810031+9999ME1315259REMSYN092    AAXX  15064 16008 32970 00507 11082 21094 38571 48525 58003 90538 333 21082 47011 92843;EQDQ01  00002PRCP99
0172160080999992000011509004+45750+010530FM-12+146199999V0200601N003112200019N0300001N1-00781-00931999999ADDGA1001+999999999GF100991001001999999001001MA1999999085791MD1310081+9999ME1315339REMSYN080    AAXX  15094 16008 42980 00606 11078 21093 38579 48533 53008 90837 333 92843;
0231160080999992000011512004+45750+010530FM-12+146199999V0200201N004112200019N0300001N1+00041-00741999999ADDAA199000091AJ100119199999999GA1001+999999999GF100991001001999999001001IA1239MA1999999085791MD1010001+9999ME1315359REMSYN086    AAXX  15124 16008 32980 00208 10004 21074 38579 48535 50000 91136 333 47011 92843;EQDQ01  00002PRCP99
0172160080999992000011515004+45750+010530FM-12+146199999V0200401N003112200019N0300001N1+00381-00891999999ADDGA1001+999999999GF100991001001999999001001MA1999999085721MD1610071+9999ME1315279REMSYN080    AAXX  15154 16008 42980 00406 10038 21089 38572 48527 56007 91434 333 92843;
0250160080999992000011518004+45750+010530FM-12+146199999V0200301N005112200019N0250001N1-00121-00861999999ADDAA199000091AJ100119199999999GA1001+999999999GF100991001001999999001001IA1239KA1120M+00381MA1999999085741MD1310021+9999ME1315329REMSYN092    AAXX  15184 16008 32975 00310 11012 21086 38574 48532 53002 91738 333 10038 47011 92843;EQDQ01  00002PRCP99
0172160080999992000011521004+45750+010530FM-12+146199999V0200601N005712200019N0250001N1-00221-00791999999ADDGA1001+999999999GF100991001001999999001001MA1999999085781MD1210051+9999ME1315349REMSYN080    AAXX  15214 16008 42975 00611 11022 21079 38578 48534 52005 92035 333 92843;
0231160080999992000011600004+45750+010530FM-12+146199999V0200301N003612200019N0200001N1-00281-00971999999ADDAA199000091AJ100119199999999GA1001+999999999GF100991001001999999001001IA1239MA1999999085811MD1110021+9999ME1315349REMSYN086    AAXX  16004 16008 32970 00307 11028 21097 38581 48534 51002 92337 333 47011 92843;EQDQ01  00002PRCP99
0172160080999992000011603004+45750+010530FM-12+146199999V0200101N007212200019N0200001N1-00541-00871999999ADDGA1001+999999999GF100991001001999999001001MA1999999085761MD1810051+9999ME1315319REMSYN080    AAXX  16034 16008 42970 00114 11054 21087 38576 48531 58005 90235 333 92843;
0250160080999992000011606004+45750+010530FM-12+146199999V0200401N010312200019N0200001N1-00581-00931999999ADDAA199000091AJ100119199999999GA1001+999999999GF100991001001999999001001IA1239KA1120N-00581MA1999999085721MD1610041+9999ME1315259REMSYN092    AAXX  16064 16008 32970 00420 11058 21093 38572 48525 56004 90540 333 21058 47011 92843;EQDQ01  00002PRCP99
0172160080999992000011609004+45750+010530FM-12+146199999V0200401N011312200019N0250001N1-00701-00901999999ADDGA1001+999999999GF100991001001999999001001MA1999999085791MD1310071+9999ME1315339REMSYN080    AAXX  16094 16008 42975 00422 11070 21090 38579 48533 53007 90837 333 92843;
0231160080999992000011612004+45750+010530FM-12+146199999V0200601N012912200019N0300001N1-00301-00821999999ADDAA199000091AJ100119199999999GA1001+999999999GF100991001001999999001001IA1239MA1999999085841MD1110051+9999ME1315399REMSYN086    AAXX  16124 16008 32980 00625 11030 21082 38584 48539 51005 91137 333 47011 92843;EQDQ01  00002PRCP99
0172160080999992000011615004+45750+010530FM-12+146199999V0200601N010312200019N0300001N1-00181-00901999999ADDGA1001+999999999GF100991001001999999001001MA1999999085781MD1810061+9999ME1315349REMSYN080    AAXX  16154 16008 42980 00620 11018 21090 38578 48534 58006 91438 333 92843;
0250160080999992000011618004+45750+010530FM-12+146199999V0200201N007212200019N0300001N1-00361-00891999999ADDAA199000091AJ100119199999999GA1001+999999999GF100991001001999999001001IA1239KA1120M-00121MA1999999085881MD1310101+9999ME1315459REMSYN092    AAXX  16184 16008 32980 00214 11036 21089 38588 48545 53010 91736 333 11012 47011 92843;EQDQ01  00002PRCP99
0172160080999992000011621004+45750+010530FM-12+146199999V0200401N010312200019N0250001N1-00521-00911999999ADDGA1001+999999999GF100991001001999999001001MA1999999085931MD1210051+9999ME1315499REMSYN080    AAXX  16214 16008 42975 00420 11052 21091 38593 48549 52005 92038 333 92843;
0231160080999992000011700004+45750+010530FM-12+146199999V0200401N008712200019N0200001N1-00641-00961999999ADDAA199000091AJ100119199999999GA1001+999999999GF100991001001999999001001IA1239MA1999999085981MD1110051+9999ME1315529REMSYN086    AAXX  17004 16008 32970 00417 11064 21096 38598 48552 51005 92336 333 47011 92843;EQDQ01  00002PRCP99
0172160080999992000011703004+45750+010530FM-12+146199999V0200201N009312200019N0200001N1-00641-00991999999ADDGA1001+999999999GF100991001001999999001001MA1999999085891MD1810091+9999ME1315449REMSYN080    AAXX  17034 16008 42970 00218 11064 21099 38589 48544 58009 90237 333 92843;
0250160080999992000011706004+45750+010530FM-12+146199999V0200301N012912200019N0250001N1-00701-01101999999ADDAA199000091AJ100119199999999GA1001+999999999GF100991001001999999001001IA1239KA1120N-00701MA1999999085741MD1510151+9999ME1315309REMSYN092    AAXX  17064 16008 32975 00325 11070 21110 38574 48530 55015 90537 333 21070 47011 92843;EQDQ01  00002PRCP99
0243160080999992000011712004+45750+010530FM-12+146199999V0200701N009812200019N0250001N1+00321-00681999999ADDAA199000091AJ100119199999999GA1011+012009089GF101991011011012501001001IA1239MA1999999085671MD1810121+9999ME1315229REMSYN098    AAXX  17124 16008 32675 10719 10032 21068 38567 48522 58012 81100 91137 333 47011 81840 92843;EQDQ01  00002PRCP99
0184160080999992000011715004+45750+010530FM-12+146199999V0200201N010812200019N0250001N1+00581-00451999999ADDGA1041+009009089GF104991041011008001001001MA1999999085471MD1710201+9999ME1315039REMSYN092    AAXX  17154 16008 42575 40221 10058 21045 38547 48503 57020 84100 91437 333 84830 92843;
0184160080999992000011721004+45750+010530FM-12+146199999V0203401N006712200019N0200001N1+00461-00391999999ADDGA1041+009009089GF104991041011008001001001MA1999999085311MD1310061+9999ME1314899REMSYN092    AAXX  17214 16008 42570 43413 10046 21039 38531 48489 53006 84100 92037 333 84830 92843;
0243160080999992000011800004+45750+010530FM-12+146199999V0200501N012312200019N0200001N1+00361-00461999999ADDAA199000091AJ100119199999999GA1031+009009089GF103991031011008001001001IA1239MA1999999085271MD1810041+9999ME1314869REMSYN098    AAXX  18004 16008 32570 30524 10036 21046 38527 48486 58004 83100 92337 333 47011 83830 92843;EQDQ01  00002PRCP99
0184160080999992000011803004+45750+010530FM-12+146199999V0200301N010312200019N0200001N1+00301-00451999999ADDGA1041+009009089GF104991041011008001001001MA1999999085241MD1610031+9999ME1314869REMSYN092    AAXX  18034 16008 42570 40320 10030 21045 38524 48486 56003 84100 90236 333 84830 92843;
0262160080999992000011806004+45750+010530FM-12+146199999V0200401N010310090019N0200001N1+00241-00441999999ADDAA199000091AJ100109199999999GA1071+009009079GF107991071061008001001001IA1239KA1120N+00241MA1999999085131MD1810111+9999ME1314759REMSYN104    AAXX  18064 16008 32570 70420 10024 21044 38513 48475 58011 87600 90537 333 20024 47010 87730 92843;EQDQ01  00002PRCP99
0212160080999992000011809004+45750+010530FM-12+146199999V0200401N012310060019N0100001N1+00141-00261999999ADDAY171031AY221031GA1081+006009079GF108991081071008001999999MA1999999085051MD1610081+9999ME1314669MW1701REMSYN098    AAXX  18094 16008 41560 80424 10014 21026 38505 48466 56008 77072 887// 90837 333 88720 92843;
0258160080999992000011812004+45750+010530FM-12+146199999V0200101N010310045019N0100001N1+00141-00111999999ADDAA106000791AJ100109199999999AY171061AY221061GA1081+004509079GF108991081071004501999999IA1239MA1999999084871MD1810181+9999ME1314479MW1701REMSYN110    AAXX  18124 16008 11460 80120 10014 21011 38487 48447 58018 69901 77072 887// 91137 333 47010 88715 92843;
0212160080999992000011815004+45750+010530FM-12+146199999V0200601N014410060019N0200001N1+00181-00431999999ADDAY171031AY221031GA1061+006009079GF106991061071008001001001MA1999999084771MD1510101+9999ME1314369MW1011REMSYN098    AAXX  18154 16008 41570 60628 10018 21043 38477 48436 55010 70172 86700 91436 333 86720 92843;
0277160080999992000011818004+45750+010530FM-12+146199999V0200301N012910060019N0200001N1+00081-00821999999ADDAA112000791AJ100109199999999AY171061AY221061GA1051+006009089GF105991051011008001001001IA1239KA1120M+00281MA1999999084791MD1110021+9999ME1314429MW1011REMSYN116    AAXX  18184 16008 11570 50325 10008 21082 38479 48442 51002 69902 70172 85100 91738 333 10028 47010 85820 92843;
0184160080999992000011821004+45750+010530FM-12+146199999V0200401N010312200019N0200001N1+00041-00771999999ADDGA1031+006009089GF103991031011008001001001MA1999999084841MD1310051+9999ME1314479REMSYN092    AAXX  18214 16008 42570 30420 10004 21077 38484 48447 53005 83100 92037 333 83820 92843;
0224160080999992000011900004+45750+010530FM-12+146199999V0200401N009310045019N0150001N1-00081-00541999999ADDAA199000021AJ100109199999999GA1071+004509079GF107991071061004501001001IA1239MA1999999084841MD1010001+9999ME1314479REMSYN098    AAXX  19004 16008 32465 70418 11008 21054 38484 48447 50000 87600 92337 333 47010 87715 92843;
0184160080999992000011903004+45750+010530FM-12+146199999V0200201N008210060019N0150001N1-00261-01091999999ADDGA1051+006009089GF105991051011008001021001MA1999999085001MD1310161+9999ME1314619REMSYN092    AAXX  19034 16008 42565 50216 11026 21109 38500 48461 53016 85120 90237 333 85820 92843;
0184160080999992000011909004+45750+010530FM-12+146199999V0200601N004612200019N0250001N1-00381-01071999999ADDGA1011+009009089GF101991011011008001001001MA1999999085421MD1210261+9999ME1314999REMSYN092    AAXX  19094 16008 42575 10609 11038 21107 38542 48499 52026 81100 90836 333 81830 92843;
0231160080999992000011912004+45750+010530FM-12+146199999V0200401N007712200019N0250001N1-00161-01231999999ADDAA199000091AJ100109199999999GA1001+999999999GF100991001001999999001001IA1239MA1999999085501MD1110081+9999ME1315079REMSYN086    AAXX  19124 16008 32975 00415 11016 21123 38550 48507 51008 91137 333 47010 92843;EQDQ01  00002PRCP99
0172160080999992000011915004+45750+010530FM-12+146199999V0203501N007712200019N0250001N1-00161-01481999999ADDGA1001+999999999GF100991001001999999001001MA1999999085471MD1810031+9999ME1315029REMSYN080    AAXX  19154 16008 42975 03515 11016 21148 38547 48502 58003 91438 333 92843;
0246160080999992000011918004+45750+010530FM-12+146199999V0203501N011312200019N0250001N1-00321-01311999999ADDAA199000091AJ100109199999999GA1001+999999999GF100991001001999999001001IA1239KA1120M-00121MA1999999085611MD1310141+9999ME1315189REMSYN088AAXX  19184 16008 32975 03522 11032 21131 38561 48518 53014 91736 333 11012 47010 92843;EQDQ01  00002PRCP99
0168160080999992000011921004+45750+010530FM-12+146199999V0200601N007212200019N0200001N1-00521-01501999999ADDGA1001+999999999GF100991001001999999001001MA1999999085811MD1210201+9999ME1315339REMSYN076AAXX  19214 16008 42970 00614 11052 21150 38581 48533 52020 92037 333 92843;
0227160080999992000012000004+45750+010530FM-12+146199999V0200601N007712200019N0200001N1-00741-01311999999ADDAA199000091AJ100109199999999GA1001+999999999GF100991001001999999001001IA1239MA1999999085931MD1210121+9999ME1315499REMSYN082AAXX  20004 16008 32970 00615 11074 21131 38593 48549 52012 92337 333 47010 92843;EQDQ01  00002PRCP99
0246160080999992000012006004+45750+010530FM-12+146199999V0200601N006712200019N0200001N1-00881-01501999999ADDAA199000091AJ100109199999999GA1001+999999999GF100991001001999999001001IA1239KA1120N-00881MA1999999085841MD1610081+9999ME1315389REMSYN088AAXX  20064 16008 32970 00613 11088 21150 38584 48538 56008 90536 333 21088 47010 92843;EQDQ01  00002PRCP99
0168160080999992000012009004+45750+010530FM-12+146199999V0200301N007712200019N0250001N1-01021-01541999999ADDGA1001+999999999GF100991001001999999001001MA1999999085881MD1310041+9999ME1315439REMSYN076AAXX  20094 16008 42975 00315 11102 21154 38588 48543 53004 90838 333 92843;
0217160080999992000012012004+45750+010530FM-12+146199999V0200501N008219999999N0250001N1-00381-01371999999ADDAA199000091AJ100109199999999GF105991001001999999001041IA1239MA1999999085831MD1810051+9999ME1315399REMSYN088AAXX  20124 16008 32975 50516 11038 21137 38583 48539 58005 80004 91137 333 47010 92843;EQDQ01  00002PRCP99
0210160080999992000012015004+45750+010530FM-12+146199999V0200401N003610210019N0250001N1+00021-01341999999ADDAA199000091GA1051+021009039GF107991051001022501041041MA1999999085651MD1710181+9999ME1315219REMSYN088AAXX  20154 16008 32875 70407 10002 21134 38565 48521 57018 85044 91440 333 85357 92843;EQDQ01  00002PRCP99
0231160080999992000012018004+45750+010530FM-12+146199999V0200401N002612200019N0250001N1-00201-01161999999ADDAA199000091AJ100109199999999GA1001+999999999GF100991001001999999001001IA1239KA1120M+00021MA1999999085621MD1610031+9999REMSYN082AAXX  20184 16008 32975 00405 11020 21116 38562 56003 91740 333 10002 47010 92843;EQDQ01  00002PRCP99
0168160080999992000012021004+45750+010530FM-12+146199999V0200401N003112200019N0200001N1-00441-01151999999ADDGA1001+999999999GF100991001001999999001001MA1999999085601MD1810021+9999ME1315179REMSYN076AAXX  20214 16008 42970 00406 11044 21115 38560 48517 58002 92041 333 92843;
0239160080999992000012100004+45750+010530FM-12+146199999V0200401N004610210019N0200001N1-00461-01071999999ADDAA199000091AJ100109199999999GA1061+021009049GF106991061001022501011001IA1239MA1999999085531MD1710071+9999ME1315129REMSYN094AAXX  21004 16008 32870 60409 11046 21107 38553 48512 57007 86010 92340 333 47010 86457 92843;EQDQ01  00002PRCP99
0258160080999992000012106004+45750+010530FM-12+146199999V0200401N006210120019N0200001N1-00401-01091999999ADDAA199000091AJ100109199999999GA1071+012009069GF107991071051012501001001IA1239KA1120N-00461MA1999999085311MD1610011+9999ME1314889REMSYN100AAXX  21064 16008 32670 70412 11040 21109 38531 48488 56001 87500 90539 333 21046 47010 87640 92843;EQDQ01  00002PRCP99
0180160080999992000012109004+45750+010530FM-12+146199999V0200401N006710060019N0200001N1-00321-01081999999ADDGA1081+006009079GF108991081061008001999999MA1999999085341MD1310031+9999ME1314939REMSYN088AAXX  21094 16008 42570 80413 11032 21108 38534 48493 53003 886// 90840 333 88720 92843;
0239160080999992000012112004+45750+010530FM-12+146199999V0200301N008710060019N0200001N1-00201-00941999999ADDAA199000091AJ100109199999999GA1081+006009079GF108991081061008001999999IA1239MA1999999085401MD1110071+9999ME1314999REMSYN094AAXX  21124 16008 32570 80317 11020 21094 38540 48499 51007 886// 91139 333 47010 88720 92843;EQDQ01  00002PRCP99
0208160080999992000012115004+45750+010530FM-12+146199999V0200301N006710030019N0080001N1-00181-00811999999ADDAY121031AY221031GA1081+003009079GF108991081061004501999999MA1999999085361MD1810051+9999ME1314949MW1101REMSYN094AAXX  21154 16008 41458 80313 11018 21081 38536 48494 58005 71022 886// 91441 333 88710 92843;
0273160080999992000012118004+45750+010530FM-12+146199999V0200401N003110030019N0060001N1-00341-00721999999ADDAA112000791AJ100109199999999AY121061AY221061GA1081+003009079GF108991081071004501999999IA1239KA1120M-00181MA1999999085411MD1310051+9999ME1314999MW1701REMSYN112AAXX  21184 16008 11456 80406 11034 21072 38541 48499 53005 69902 77022 887// 91740 333 11018 47010 88710 92843;
0218160080999992000012121004+45750+010530FM-12+146199999V0200401N002610030019N0060001N1-00321-00361999999ADDAL10600191AY171031AY271031GA1081+003009079GF108991081071004501999999MA1999999085491MD1110091+9999ME1315079MW1701REMSYN094AAXX  21214 16008 41456 80405 11032 21036 38549 48507 51009 77077 887// 92039 333 88710 93101;
0264160080999992000012200004+45750+010530FM-12+146199999V0200401N005710210019N0150001N1-00321-00411999999ADDAA106000591AJ100119199999999AL10600191AY171061AY221061GA1071+021009049GF107991071001022501011001IA1239MA1999999085381MD1810121+9999ME1314939MW1011REMSYN106AAXX  22004 16008 11865 70411 11032 21041 38538 48493 58012 69961 70172 87010 92339 333 47011 87457 93101;
0202160080999992000012203004+45750+010530FM-12+146199999V0200301N005110240019N0150001N1-00321-00621999999ADDGA1021+009009089GA2061+024009049GF106991061011008001011001MA1999999085201MD1710181+9999ME1314809REMSYN094AAXX  22034 16008 42565 60310 11032 21062 38520 48480 57018 86110 90240 333 82830 86458 92810;
0245160080999992000012206004+45750+010530FM-12+146199999V0200301N004110090019N0150001N1-00321-00531999999ADDAA112000591AJ100119199999999GA1051+009009069GF105991051051008001001001IA1239KA1120N-00321MA1999999085001MD1710201+9999ME1314619REMSYN106AAXX  22064 16008 12565 50308 11032 21053 38500 48461 57020 69962 85500 90539 333 21032 47011 85630 92810;
0180160080999992000012209004+45750+010530FM-12+146199999V0200401N001510090019N0200001N1-00401-00571999999ADDGA1061+009009069GF106991061051008001001001MA1999999084901MD1710101+9999ME1314539REMSYN088AAXX  22094 16008 42570 60403 11040 21057 38490 48453 57010 86500 90840 333 86630 92810;
0239160080999992000012212004+45750+010530FM-12+146199999V0200301N002610090019N0200001N1+00221-00971999999ADDAA199000091AJ100119199999999GA1061+009009069GF106991061051008001001001IA1239MA1999999084571MD1710331+9999ME1314179REMSYN094AAXX  22124 16008 32570 60305 10022 21097 38457 48417 57033 86500 91138 333 47011 86630 92810;EQDQ01  00002PRCP99
0202160080999992000012215004+45750+010530FM-12+146199999V0200401N001510105019N0150001N1+00101-00941999999ADDGA1041+006009089GA2051+010509069GF108991081081008001999999MA1999999084101MD1710471+9999ME1313769REMSYN094AAXX  22154 16008 42565 80403 10010 21094 38410 48376 57047 888// 91439 333 84820 85635 92810;
0258160080999992000012218004+45750+010530FM-12+146199999V0200601N004110060019N0110001N1-00181-00561999999ADDAA199000091AJ100119199999999GA1081+006009079GF108991081061008001999999IA1239KA1120M+00241MA1999999084131MD1310021+9999ME1313809REMSYN100AAXX  22184 16008 32561 80608 11018 21056 38413 48380 53002 886// 91737 333 10024 47011 88720 92810;EQDQ01  00002PRCP99
0180160080999992000012221004+45750+010530FM-12+146199999V0209999C000010090019N0110001N1-00301-00511999999ADDGA1051+009009069GF105991051051008001001001MA1999999084101MD1810021+9999ME1313779REMSYN088AAXX  22214 16008 42561 50000 11030 21051 38410 48377 58002 85500 92035 333 85630 92810;
0239160080999992000012300004+45750+010530FM-12+146199999V0200501N003110090019N0110001N1-00441-00561999999ADDAA199000091AJ100119199999999GA1061+009009069GF106991061051008001001001IA1239MA1999999084021MD1610081+9999ME1313679REMSYN094AAXX  23004 16008 32561 60506 11044 21056 38402 48367 56008 86500 92337 333 47011 86630 92810;EQDQ01  00002PRCP99
0180160080999992000012303004+45750+010530FM-12+146199999V0200601N004612200019N0110001N1-00521-00651999999ADDGA1031+007509089GF103991031021008001001001MA1999999084001MD1610021+9999ME1313679REMSYN088AAXX  23034 16008 42561 30609 11052 21065 38400 48367 56002 83200 90235 333 83825 92810;
0258160080999992000012306004+45750+010530FM-12+146199999V0200501N006210060019N0110001N1-00501-00631999999ADDAA199000091AJ100119199999999GA1081+006009079GF108991081061008001999999IA1239KA1120N-00541MA1999999083951MD1810041+9999ME1313649REMSYN100AAXX  23064 16008 32561 80512 11050 21063 38395 48364 58004 886// 90540 333 21054 47011 88720 92810;EQDQ01  00002PRCP99
0180160080999992000012309004+45750+010530FM-12+146199999V0200601N004110060019N0120001N1-00521-00621999999ADDGA1051+006009089GF105991051021008001001001MA1999999084061MD1310111+9999ME1313739REMSYN088AAXX  23094 16008 42562 50608 11052 21062 38406 48373 53011 85200 90839 333 85820 92810;
0202160080999992000012315004+45750+010530FM-12+146199999V0200301N006710075019N0130001N1-00201-00661999999ADDGA1041+004509089GA2051+007509069GF108991081081004501999999MA1999999084061MD1510001+9999ME1313729REMSYN094AAXX  23154 16008 42463 80313 11020 21066 38406 48372 55000 888// 91434 333 84815 85625 92810;
0280160080999992000012318004+45750+010530FM-12+146199999V0200501N004110090019N0120001N1-00401-00601999999ADDAA199000091AJ100119199999999GA1041+004509089GA2051+009009069GF108991081081004501999999IA1239KA1120M-00141MA1999999084161MD1110101+9999ME1313809REMSYN106AAXX  23184 16008 32462 80508 11040 21060 38416 48380 51010 888// 91735 333 11014 47011 84815 85630 92810;EQDQ01  00002PRCP99
0180160080999992000012321004+45750+010530FM-12+146199999V0200801N003110060019N0110001N1-00481-00611999999ADDGA1081+006009079GF108991081061008001999999MA1999999084261MD1110101+9999ME1313919REMSYN088AAXX  23214 16008 42561 80806 11048 21061 38426 48391 51010 886// 92036 333 88720 92810;
0239160080999992000012400004+45750+010530FM-12+146199999V0200801N004112200019N0110001N1-00501-00571999999ADDAA199000091AJ100119199999999GA1031+007509089GF103991031021008001001001IA1239MA1999999084301MD1110041+9999ME1313979REMSYN094AAXX  24004 16008 32561 30808 11050 21057 38430 48397 51004 83200 92340 333 47011 83825 92810;EQDQ01  00002PRCP99
0180160080999992000012403004+45750+010530FM-12+146199999V0201001N003110090019N0110001N1-00561-00721999999ADDGA1061+009009069GF106991061041008001001001MA1999999084301MD1410001+9999ME1313979REMSYN088AAXX  24034 16008 42561 61006 11056 21072 38430 48397 54000 86400 90235 333 86630 92810;
0258160080999992000012406004+45750+010530FM-12+146199999V0200701N004110090019N0110001N1-00601-00791999999ADDAA199000091AJ100119199999999GA1061+009009069GF106991061041008001001001IA1239KA1120N-00601MA1999999084301MD1410001+9999ME1313979REMSYN100AAXX  24064 16008 32561 60708 11060 21079 38430 48397 54000 86400 90539 333 21060 47011 86630 92810;EQDQ01  00002PRCP99
0180160080999992000012409004+45750+010530FM-12+146199999V0200501N005710090019N0120001N1-00561-01091999999ADDGA1071+009009069GF107991071041008001001001MA1999999084421MD1310131+9999ME1314059REMSYN088AAXX  24094 16008 42562 70511 11056 21109 38442 48405 53013 87400 90836 333 87630 92810;
0239160080999992000012412004+45750+010530FM-12+146199999V0200501N005712200019N0150001N1-00321-01281999999ADDAA199000091AJ100119199999999GA1031+006009089GF103991031021008001001001IA1239MA1999999084561MD1210141+9999ME1314189REMSYN094AAXX  24124 16008 32565 30511 11032 21128 38456 48418 52014 83200 91135 333 47011 83820 92810;EQDQ01  00002PRCP99
0168160080999992000012415004+45750+010530FM-12+146199999V0200301N005712200019N0200001N1-00321-01471999999ADDGA1001+999999999GF100991001001999999001001MA1999999084611MD1110041+9999ME1314239REMSYN076AAXX  24154 16008 42970 00311 11032 21147 38461 48423 51004 91434 333 92810;
0246160080999992000012418004+45750+010530FM-12+146199999V0200501N004612200019N0200001N1-00901-01271999999ADDAA199000091AJ100119199999999GA1001+999999999GF100991001001999999001001IA1239KA1120M-00261MA1999999084781MD1210171+9999ME1314439REMSYN088AAXX  24184 16008 32970 00509 11090 21127 38478 48443 52017 91738 333 11026 47011 92810;EQDQ01  00002PRCP99
0168160080999992000012421004+45750+010530FM-12+146199999V0200401N008712200019N0180001N1-01081-01251999999ADDGA1001+999999999GF100991001001999999001001MA1999999084921MD1110141+9999ME1314539REMSYN076AAXX  24214 16008 42968 00417 11108 21125 38492 48453 51014 92040 333 92810;
0227160080999992000012500004+45750+010530FM-12+146199999V0200501N005712200019N0150001N1-01201-01311999999ADDAA199000091AJ100119199999999GA1001+999999999GF100991001001999999001001IA1239MA1999999084981MD1110061+9999ME1314619REMSYN082AAXX  25004 16008 32965 00511 11120 21131 38498 48461 51006 92339 333 47011 92810;EQDQ01  00002PRCP99
0168160080999992000012503004+45750+010530FM-12+146199999V0200501N004612200019N0150001N1-01301-01381999999ADDGA1001+999999999GF100991001001999999001001MA1999999085001MD1110021+9999ME1314619REMSYN076AAXX  25034 16008 42965 00509 11130 21138 38500 48461 51002 90235 333 92810;
0246160080999992000012506004+45750+010530FM-12+146199999V0200401N004112200019N0150001N1-01421-01501999999ADDAA199000091AJ100119199999999GA1001+999999999GF100991001001999999001001IA1239KA1120N-01421MA1999999085021MD1110021+9999ME1314619REMSYN088AAXX  25064 16008 32965 00408 11142 21150 38502 48461 51002 90540 333 21142 47011 92810;EQDQ01  00002PRCP99
0168160080999992000012509004+45750+010530FM-12+146199999V0200601N003612200019N0150001N1-01521-01611999999ADDGA1001+999999999GF100991001001999999001001MA1999999085241MD1210221+9999ME1314849REMSYN076AAXX  25094 16008 42965 00607 11152 21161 38524 48484 52022 90836 333 92810;
0227160080999992000012512004+45750+010530FM-12+146199999V0200301N004112200019N0250001N1-00861-01561999999ADDAA199000091AJ100119199999999GA1001+999999999GF100991001001999999001001IA1239MA1999999085291MD1110041+9999ME1314879REMSYN082AAXX  25124 16008 32975 00308 11086 21156 38529 48487 51004 91136 333 47011 92810;EQDQ01  00002PRCP99
0168160080999992000012515004+45750+010530FM-12+146199999V0200401N003112200019N0300001N1-00641-01591999999ADDGA1001+999999999GF100991001001999999001001MA1999999085301MD1110011+9999ME1314889REMSYN076AAXX  25154 16008 42980 00406 11064 21159 38530 48488 51001 91435 333 92810;
0246160080999992000012518004+45750+010530FM-12+146199999V0200501N003112200019N0250001N1-01061-01511999999ADDAA199000091AJ100119199999999GA1001+999999999GF100991001001999999001001IA1239KA1120M-00621MA1999999085471MD1310181+9999ME1315009REMSYN088AAXX  25184 16008 32975 00506 11106 21151 38547 48500 53018 91737 333 11062 47011 92810;EQDQ01  00002PRCP99
0168160080999992000012521004+45750+010530FM-12+146199999V0200501N004112200019N0200001N1-01201-01511999999ADDGA1001+999999999GF100991001001999999001001MA1999999085611MD1210131+9999ME1315169REMSYN076AAXX  25214 16008 42970 00508 11120 21151 38561 48516 52013 92040 333 92810;
0226160080999992000012600004+45750+010530FM-12+146199999V0200501N005112200019N0200001N1-01241-01521999999ADDAA199000091AJ100119199999999GA1001+999999999GF100991001001999999001001IA1239MA1999999085701MD1110091+9999ME1315249REMSYN081AAXX  26004 16008 32970 00510 11124 2115238570 48524 51009 92335 333 47011 92810;EQDQ01  00002PRCP99
0168160080999992000012603004+45750+010530FM-12+146199999V0200501N005112200019N0200001N1-01301-01591999999ADDGA1001+999999999GF100991001001999999001001MA1999999085721MD1110021+9999ME1315239REMSYN076AAXX  26034 16008 42970 00510 11130 21159 38572 48523 51002 90236 333 92810;
0246160080999992000012606004+45750+010530FM-12+146199999V0200301N004612200019N0200001N1-01301-01681999999ADDAA199000091AJ100119199999999GA1001+999999999GF100991001001999999001001IA1239KA1120N-01321MA1999999085731MD1110011+9999ME1315299REMSYN088AAXX  26064 16008 32970 00309 11130 21168 38573 48529 51001 90540 333 21132 47011 92810;EQDQ01  00002PRCP99
0168160080999992000012609004+45750+010530FM-12+146199999V0200301N003612200019N0200001N1-01241-01711999999ADDGA1001+999999999GF100991001001999999001001MA1999999085831MD1310111+9999ME1315379REMSYN076AAXX  26094 16008 42970 00307 11124 21171 38583 48537 53011 90837 333 92810;
0227160080999992000012612004+45750+010530FM-12+146199999V0200501N007212200019N0250001N1-00281-01591999999ADDAA199000091AJ100119199999999GA1001+999999999GF100991001001999999001001IA1239MA1999999085881MD1110051+9999ME1315459REMSYN082AAXX  26124 16008 32975 00514 11028 21159 38588 48545 51005 91136 333 47011 92810;EQDQ01  00002PRCP99
0168160080999992000012615004+45750+010530FM-12+146199999V0200401N004612200019N0300001N1+00001-01861999999ADDGA1001+999999999GF100991001001999999001001MA1999999085891MD1110011+9999ME1315469REMSYN076AAXX  26154 16008 42980 00409 10000 21186 38589 48546 51001 91438 333 92810;
0246160080999992000012618004+45750+010530FM-12+146199999V0200101N004112200019N0300001N1-00301-01471999999ADDAA199000091AJ100109199999999GA1001+999999999GF100991001001999999001001IA1239KA1120M+00021MA1999999085991MD1310091+9999ME1315539REMSYN088AAXX  26184 16008 32980 00108 11030 21147 38599 48553 53009 91734 333 10002 47010 92820;EQDQ01  00002PRCP99
0168160080999992000012621004+45750+010530FM-12+146199999V0200501N004612200019N0250001N1-00581-01231999999ADDGA1001+999999999GF100991001001999999001001MA1999999086081MD1210091+9999ME1315639REMSYN076AAXX  26214 16008 42975 00509 11058 21123 38608 48563 52009 92040 333 92820;
0227160080999992000012700004+45750+010530FM-12+146199999V0200501N007212200019N0200001N1-00661-01221999999ADDAA199000091AJ100109199999999GA1001+999999999GF100991001001999999001001IA1239MA1999999086121MD1110041+9999ME1315629REMSYN082AAXX  27004 16008 32970 00514 11066 21122 38612 48562 51004 92337 333 47010 92820;EQDQ01  00002PRCP99
0168160080999992000012703004+45750+010530FM-12+146199999V0200501N006712200019N0200001N1-00681-01251999999ADDGA1001+999999999GF100991001001999999001001MA1999999086131MD1110011+9999ME1315659REMSYN076AAXX  27034 16008 42970 00513 11068 21125 38613 48565 51001 90235 333 92820;
0246160080999992000012706004+45750+010530FM-12+146199999V0200501N007212200019N0200001N1-00681-01251999999ADDAA199000091AJ100109199999999GA1001+999999999GF100991001001999999001001IA1239KA1120N-00741MA1999999086081MD1810051+9999ME1315629REMSYN088AAXX  27064 16008 32970 00514 11068 21125 38608 48562 58005 90538 333 21074 47010 92820;EQDQ01  00002PRCP99
0168160080999992000012709004+45750+010530FM-12+146199999V0200401N005712200019N0250001N1-00681-01211999999ADDGA1001+999999999GF100991001001999999001001MA1999999086101MD1310021+9999ME1315629REMSYN076AAXX  27094 16008 42975 00411 11068 21121 38610 48562 53002 90834 333 92820;
0168160080999992000012715004+45750+010530FM-12+146199999V0200401N005112200019N0300001N1+00321-01151999999ADDGA1001+999999999GF100991001001999999001001MA1999999085801MD1710241+9999ME1315369REMSYN076AAXX  27154 16008 42980 00410 10032 21115 38580 48536 57024 91438 333 92820;
0246160080999992000012718004+45750+010530FM-12+146199999V0209999C000012200019N0300001N1-00101-00831999999ADDAA199000091AJ100099199999999GA1001+999999999GF100991001001999999001001IA1239KA1120M+00381MA1999999085801MD1010001+9999ME1315349REMSYN088AAXX  27184 16008 32980 00000 11010 21083 38580 48534 50000 91737 333 10038 47009 92820;EQDQ01  00002PRCP99
0168160080999992000012721004+45750+010530FM-12+146199999V0200301N002612200019N0200001N1-00301-00851999999ADDGA1001+999999999GF100991001001999999001001MA1999999085741MD1810061+9999ME1315319REMSYN076AAXX  27214 16008 42970 00305 11030 21085 38574 48531 58006 92038 333 92820;
0227160080999992000012800004+45750+010530FM-12+146199999V0200401N004112200019N0200001N1-00301-00851999999ADDAA199000091AJ100099199999999GA1001+999999999GF100991001001999999001001IA1239MA1999999085711MD1610031+9999ME1315269REMSYN082AAXX  28004 16008 32970 00408 11030 21085 38571 48526 56003 92338 333 47009 92820;EQDQ01  00002PRCP99
0168160080999992000012803004+45750+010530FM-12+146199999V0200501N006212200019N0200001N1-00541-00961999999ADDGA1001+999999999GF100991001001999999001001MA1999999085681MD1810031+9999ME1315259REMSYN076AAXX  28034 16008 42970 00512 11054 21096 38568 48525 58003 90236 333 92820;
0246160080999992000012806004+45750+010530FM-12+146199999V0200401N005112200019N0200001N1-00601-01071999999ADDAA199000091AJ100099199999999GA1001+999999999GF100991001001999999001001IA1239KA1120N-00601MA1999999085701MD1310021+9999ME1315259REMSYN088AAXX  28064 16008 32970 00410 11060 21107 38570 48525 53002 90538 333 21060 47009 92820;EQDQ01  00002PRCP99
0168160080999992000012809004+45750+010530FM-12+146199999V0200601N005112200019N0200001N1-00661-01201999999ADDGA1001+999999999GF100991001001999999001001MA1999999085711MD1110011+9999ME1315239REMSYN076AAXX  28094 16008 42970 00610 11066 21120 38571 48523 51001 90836 333 92820;
0227160080999992000012812004+45750+010530FM-12+146199999V0200401N005112200019N0200001N1-00101-01081999999ADDAA199000091AJ100099199999999GA1001+999999999GF100991001001999999001001IA1239MA1999999085611MD1810101+9999ME1315189REMSYN082AAXX  28124 16008 32970 00410 11010 21108 38561 48518 58010 91138 333 47009 92820;EQDQ01  00002PRCP99
0168160080999992000012815004+45750+010530FM-12+146199999V0200601N002612200019N0300001N1+00201-01621999999ADDGA1001+999999999GF100991001001999999001001MA1999999085391MD1710221+9999ME1315009REMSYN076AAXX  28154 16008 42980 00605 10020 21162 38539 48500 57022 91437 333 92820;
0247160080999992000012818004+45750+010530FM-12+146199999V0200601N002112200019N0300001N1-00181-01301999999ADDAA199000091AJ100099199999999GA1001+999999999GF100991001001999999001001IA1239KA1120M+00221MD1310011+9999ME1315189REMSYN088AAXX  28184 16008 32980 00604 11018 21130 38440 48518 53001 91738 333 10022 47009 92820;EQDQ01+084403APOSP Q02  00002PRCP99
0168160080999992000012821004+45750+010530FM-12+146199999V0209999C000012200019N0200001N1-00301-01051999999ADDGA1001+999999999GF100991001001999999001001MA1999999085411MD1110011+9999ME1314999REMSYN076AAXX  28214 16008 42970 00000 11030 21105 38541 48499 51001 92037 333 92820;
0227160080999992000012900004+45750+010530FM-12+146199999V0200401N002612200019N0200001N1-00401-00981999999ADDAA199000091AJ100099199999999GA1001+999999999GF100991001001999999001001IA1239MA1999999085381MD1810031+9999ME1314939REMSYN082AAXX  29004 16008 32970 00405 11040 21098 38538 48493 58003 92338 333 47009 92820;EQDQ01  00002PRCP99
0168160080999992000012903004+45750+010530FM-12+146199999V0200301N002112200019N0200001N1-00581-01011999999ADDGA1001+999999999GF100991001001999999001001MA1999999085281MD1710101+9999ME1314889REMSYN076AAXX  29034 16008 42970 00304 11058 21101 38528 48488 57010 90237 333 92820;
0246160080999992000012906004+45750+010530FM-12+146199999V0200501N003112200019N0200001N1-00661-01011999999ADDAA199000091AJ100099199999999GA1001+999999999GF100991001001999999001001IA1239KA1120N-00661MA1999999085201MD1710081+9999ME1314809REMSYN088AAXX  29064 16008 32970 00506 11066 21101 38520 48480 57008 90538 333 21066 47009 92820;EQDQ01  00002PRCP99
0168160080999992000012909004+45750+010530FM-12+146199999V0200601N002112200019N0200001N1-00701-00991999999ADDGA1001+999999999GF100991001001999999001001MA1999999085121MD1610081+9999ME1314699REMSYN076AAXX  29094 16008 42970 00604 11070 21099 38512 48469 56008 90836 333 92820;
0239160080999992000012912004+45750+010530FM-12+146199999V0200401N003110120019N0200001N1-00131-00811999999ADDAA199000091AJ100099199999999GA1061+012009069GF106991061051012501001001IA1239MA1999999084971MD1810151+9999ME1314569REMSYN094AAXX  29124 16008 32670 60406 11013 21081 38497 48456 58015 86500 91137 333 47009 86640 92820;EQDQ01  00002PRCP99
0218160080999992000012915004+45750+010530FM-12+146199999V0209999C000010060019N0100001N1+00101-00471999999ADDAL10699999AY121031AY221031GA1081+006009079GF108991081071008001999999MA1999999084871MD1610101+9999ME1314479MW1701REMSYN094AAXX  29154 16008 41560 80000 10010 21047 38487 48447 56010 77022 887// 91439 333 88720 93197;
0254160080999992000012918004+45750+010530FM-12+146199999V0209999C000010060019N0100001N1-00101-00101999999ADDAA112000591AL10600291AY171061AY221061GA1081+006009079GF108991081071008001999999KA1120M+00121MA1999999084871MD1410001+9999ME1314479MW1701REMSYN106AAXX  29184 16008 11560 80000 11010 21010 38487 48447 54000 69942 77072 887// 91737 333 10012 88720 93102;
0218160080999992000012921004+45750+010530FM-12+146199999V0209999C000010060019N0100001N1-00061-00061999999ADDAL10699999AY171031AY271031GA1081+006009079GF108991081071008001999999MA1999999084881MD1310011+9999ME1314479MW1701REMSYN094AAXX  29214 16008 42560 80000 11006 21006 38488 48447 53001 77077 887// 92038 333 88720 93197;
0264160080999992000013000004+45750+010530FM-12+146199999V0209999C000010060019N0100001N1-00021-00021999999ADDAA106000791AJ100119199999999AL10699999AY171061AY271061GA1081+006009079GF108991081071008001999999IA1239MA1999999084741MD1810141+9999ME1314369MW1701REMSYN106AAXX  30004 16008 11560 80000 11002 21002 38474 48436 58014 69901 77077 887// 92338 333 47011 88720 93197;
0218160080999992000013003004+45750+010530FM-12+146199999V0209999C000010060019N0100001N1+00081+00081999999ADDAL10699999AY171031AY221031GA1081+006009079GF108991081061008001999999MA1999999084701MD1610041+9999ME1314349MW1021REMSYN094AAXX  30034 16008 41560 80000 10008 20008 38470 48434 56004 70272 886// 90236 333 88720 93197;
0180160080999992000013009004+45750+010530FM-12+146199999V0209999C000010060019N0100001N1+00181-00141999999ADDGA1081+006009079GF108991081061008001999999MA1999999085001MD1210021+9999ME1314619REMSYN088AAXX  30094 16008 42560 80000 10018 21014 38500 48461 52002 886// 90837 333 88720 92820;
0220160080999992000013012004+45750+010530FM-12+146199999V0209999C000010060019N0100001N1+00121+00081999999ADDAA199000021AJ100119199999999GA1081+006009079GF108991081061008001999999IA1239MA1999999085201MD1210201+9999ME1314809REMSYN094AAXX  30124 16008 32560 80000 10012 20008 38520 48480 52020 886// 91137 333 47011 88720 92820;
0208160080999992000013015004+45750+010530FM-12+146199999V0209999C000010060019N0100001N1+00181-00031999999ADDAY121031AY221031GA1081+006009079GF108991081061008001999999MA1999999085401MD1210201+9999ME1314999MW1211REMSYN094AAXX  30154 16008 41560 80000 10018 21003 38540 48499 52020 72122 886// 91438 333 88720 92820;
0251160080999992000013018004+45750+010530FM-12+146199999V0209999C000010075019N0100001N1+00101+00081999999ADDAA112000191AJ100119199999999AY161061AY221061GF108991081061008001999999IA1239KA1120M+00221MA1999999085701MD1210301+9999ME1315279MW1021REMSYN106AAXX  30184 16008 11560 80000 10010 20008 38570 48527 52030 69922 70262 886// 91737 333 10022 47011 92820;
0179160080999992000013021004+45750+010530FM-12+146199999V0209999C00001006001CN0100001N1+00101+00101999999ADDGA1081+006009079GF108991081061008001999999MA1999999085881MD1110181+9999ME1315469REMSYN087AAXX  30214 16008 42560 80000 10010 20010 38588 48546 51018 886// 9038 333 88720 92820;
0168160080999992000013103004+45750+010530FM-12+146199999V0200301N003612200019N0200001N1+00101+00101999999ADDGA1001+999999999GF100991001001999999001001MA1999999085901MD1110011+9999ME1315669REMSYN076AAXX  31034 16008 42970 00307 10010 20010 38590 48566 51001 90237 333 92820;
0168160080999992000013109004+45750+010530FM-12+146199999V0200601N006212200019N0200001N1+00001-00051999999ADDGA1001+999999999GF100991001001999999001001MA1999999086001MD1310101+9999ME1315549REMSYN076AAXX  31094 16008 42970 00612 10000 21005 38600 48554 53010 90837 333 92820;
0227160080999992000013112004+45750+010530FM-12+146199999V0200601N006212200019N0300001N1+00701-00011999999ADDAA199000091AJ100109199999999GA1001+999999999GF100991001001999999001001IA1239MA1999999086001MD1010001+9999ME1315569REMSYN082AAXX  31124 16008 32980 00612 10070 21001 38600 48556 50000 91138 333 47010 92820;EQDQ01  00002PRCP99
0168160080999992000013115004+45750+010530FM-12+146199999V0203401N006212200019N0300001N1+01001-00341999999ADDGA1001+999999999GF100991001001999999001001MA1999999086001MD1510001+9999ME1315579REMSYN076AAXX  31154 16008 42980 03412 10100 21034 38600 48557 55000 91435 333 92820;
0246160080999992000013118004+45750+010530FM-12+146199999V0200601N005112200019N0300001N1+00501-00391999999ADDAA199000091AJ100089199999999GA1001+999999999GF100991001001999999001001IA1239KA1120M+01041MA1999999086181MD1210181+9999ME1315759REMSYN088AAXX  31184 16008 32980 00610 10050 21039 38618 48575 52018 91736 333 10104 47008 92820;EQDQ01  00002PRCP99
0227160080999992000020100004+45750+010530FM-12+146199999V0209999C000012200019N0300001N1+00101-00231999999ADDAA199000091AJ100089199999999GA1001+999999999GF100991001001999999001001IA1239MA1999999086291MD1310071+9999ME1315829REMSYN082AAXX  01004 16008 32980 00000 10010 21023 38629 48582 53007 92337 333 47008 92820;EQDQ01  00002PRCP99
0168160080999992000020103004+45750+010530FM-12+146199999V0200601N005112200019N0200001N1+00101-00131999999ADDGA1001+999999999GF100991001001999999001001MA1999999086301MD1110011+9999ME1315829REMSYN076AAXX  01034 16008 42970 00610 10010 21013 38630 48582 51001 90237 333 92820;
0168160080999992000020109004+45750+010530FM-12+146199999V0200501N004112200019N0300001N1-00121-00411999999ADDGA1001+999999999GF100991001001999999001001MA1999999086191MD1610011+9999ME1315739REMSYN076AAXX  01094 16008 42980 00508 11012 21041 38619 48573 56001 90837 333 92820;
0227160080999992000020112004+45750+010530FM-12+146199999V0209999C000012200019N0300001N1+00601-00461999999ADDAA199000091AJ100089199999999GA1001+999999999GF100991001001999999001001IA1239MA1999999086091MD1810101+9999ME1315679REMSYN082AAXX  01124 16008 32980 00000 10060 21046 38609 48567 58010 91135 333 47008 92820;EQDQ01  00002PRCP99
0168160080999992000020115004+45750+010530FM-12+146199999V0209999C000012200019N0300001N1+00961-00441999999ADDGA1001+999999999GF100991001001999999001001MA1999999085911MD1610181+9999ME1315499REMSYN076AAXX  01154 16008 42980 00000 10096 21044 38591 48549 56018 91439 333 92820;
0246160080999992000020118004+45750+010530FM-12+146199999V0209999C000012200019N0200001N1+00201-00291999999ADDAA199000091AJ100089199999999GA1001+999999999GF100991001001999999001001IA1239KA1120M+00981MA1999999085891MD1610021+9999ME1315469REMSYN088AAXX  01184 16008 32970 00000 10020 21029 38589 48546 56002 91739 333 10098 47008 92820;EQDQ01  00002PRCP99
0168160080999992000020121004+45750+010530FM-12+146199999V0209999C000012200019N0200001N1-00061-00321999999ADDGA1001+999999999GF100991001001999999001001MA1999999085891MD1410001+9999ME1315459REMSYN076AAXX  01214 16008 42970 00000 11006 21032 38589 48545 54000 92036 333 92820;
0227160080999992000020200004+45750+010530FM-12+146199999V0209999C000012200019N0200001N1-00201-00381999999ADDAA199000091AJ100089199999999GA1001+999999999GF100991001001999999001001IA1239MA1999999085801MD1810091+9999ME1315349REMSYN082AAXX  02004 16008 32970 00000 11020 21038 38580 48534 58009 92334 333 47008 92820;EQDQ01  00002PRCP99
0168160080999992000020203004+45750+010530FM-12+146199999V0209999C000012200019N0200001N1-00301-00411999999ADDGA1001+999999999GF100991001001999999001001MA1999999085621MD1710181+9999ME1315189REMSYN076AAXX  02034 16008 42970 00000 11030 21041 38562 48518 57018 90236 333 92820;
0246160080999992000020206004+45750+010530FM-12+146199999V0200601N001512200019N0200001N1-00301-00491999999ADDAA199000091AJ100089199999999GA1001+999999999GF100991001001999999001001IA1239KA1120N-00321MA1999999085561MD1710061+9999ME1315129REMSYN088AAXX  02064 16008 32970 00603 11030 21049 38556 48512 57006 90539 333 21032 47008 92820;EQDQ01  00002PRCP99
0180160080999992000020209004+45750+010530FM-12+146199999V0200601N003112200019N0300001N1-00301-00511999999ADDGA1041+030009049GF104991041001999999011001MA1999999085481MD1610081+9999ME1315079REMSYN088AAXX  02094 16008 42980 40606 11030 21051 38548 48507 56008 84010 90834 333 84460 92820;
0217160080999992000020212004+45750+010530FM-12+146199999V0201901N003610075019N0200001N1+00001-00261999999ADDAA199000091AJ100089199999999GF107991071051008001001001IA1239MA1999999085381MD1810101+9999ME1314999REMSYN088AAXX  02124 16008 32570 71907 10000 21026 38538 48499 58010 87500 91141 333 47008 92820;EQDQ01  00002PRCP99
0218160080999992000020215004+45750+010530FM-12+146199999V0209999C000010030019N0150001N1-00021-00231999999ADDAL10699999AY121031AY221031GA1081+003009079GF108991081071004501999999MA1999999085291MD1610091+9999ME1314889MW1701REMSYN094AAXX  02154 16008 41465 80000 11002 21023 38529 48488 56009 77022 887// 91436 333 88710 93197;
0283160080999992000020218004+45750+010530FM-12+146199999V0209999C000010030019N0150001N1-00021-00071999999ADDAA112000791AJ100089199999999AL10699999AY171061AY221061GA1081+003009079GF108991081061004501999999IA1239KA1120M+00201MA1999999085291MD1410001+9999ME1314889MW1021REMSYN112AAXX  02184 16008 11465 80000 11002 21007 38529 48488 54000 69902 70272 886// 91735 333 10020 47008 88710 93197;
0180160080999992000020221004+45750+010530FM-12+146199999V0200301N004610090019N0200001N1+00101+00061999999ADDGA1061+009009069GF106991061051008001001001MA1999999085311MD1310021+9999ME1314889REMSYN088AAXX  02214 16008 42570 60309 10010 20006 38531 48488 53002 86500 92039 333 86630 92820;
0220160080999992000020300004+45750+010530FM-12+146199999V0200701N005110090019N0200001N1+00141-00021999999ADDAA199000021AJ100089199999999GA1061+009009069GF106991061051008001001001IA1239MA1999999085481MD1210171+9999ME1315089REMSYN094AAXX  03004 16008 32570 60710 10014 21002 38548 48508 52017 86500 92335 333 47008 86630 92800;
0180160080999992000020303004+45750+010530FM-12+146199999V0200601N002610090019N0200001N1+00121-00111999999ADDGA1061+009009069GF106991061051008001001001MA1999999085601MD1210121+9999ME1315199REMSYN088AAXX  03034 16008 42570 60605 10012 21011 38560 48519 52012 86500 90239 333 86630 92810;
0180160080999992000020309004+45750+010530FM-12+146199999V0200101N005710060019N0250001N1-00021-00471999999ADDGA1051+006009089GF105991051021008001001001MA1999999085971MD1210291+9999ME1315519REMSYN088AAXX  03094 16008 42575 50111 11002 21047 38597 48551 52029 85200 90836 333 85820 92820;
0239160080999992000020312004+45750+010530FM-12+146199999V0200101N007212200019N0300001N1+00401-01041999999ADDAA199000091AJ100089199999999GA1041+006009089GF104991041021008001001001IA1239MA1999999086111MD1110141+9999ME1315669REMSYN094AAXX  03124 16008 32580 40114 10040 21104 38611 48566 51014 84200 91134 333 47008 84820 92820;EQDQ01  00002PRCP99
0168160080999992000020315004+45750+010530FM-12+146199999V0200301N006212200019N0300001N1+00401-01181999999ADDGA1001+999999999GF100991001001999999001001MA1999999086121MD1310011+9999ME1315669REMSYN076AAXX  03154 16008 42980 00312 10040 21118 38612 48566 53001 91438 333 92820;
0246160080999992000020318004+45750+010530FM-12+146199999V0200501N004612200019N0300001N1+00001-01281999999ADDAA199000091AJ100089199999999GA1001+999999999GF100991001001999999001001IA1239KA1120M+00421MA1999999086341MD1210221+9999ME1315879REMSYN088AAXX  03184 16008 32980 00509 10000 21128 38634 48587 52022 91736 333 10042 47008 92820;EQDQ01  00002PRCP99
0168160080999992000020321004+45750+010530FM-12+146199999V0200401N002612200019N0200001N1-00201-01161999999ADDGA1001+999999999GF100991001001999999001001MA1999999086491MD1110151+9999ME1315999REMSYN076AAXX  03214 16008 42970 00405 11020 21116 38649 48599 51015 92039 333 92820;
0227160080999992000020400004+45750+010530FM-12+146199999V0200201N004612200019N0200001N1-00281-00981999999ADDAA199000091AJ100089199999999GA1001+999999999GF100991001001999999001001IA1239MA1999999086501MD1310011+9999ME1315999REMSYN082AAXX  04004 16008 32970 00209 11028 21098 38650 48599 53001 92339 333 47008 92820;EQDQ01  00002PRCP99
0168160080999992000020403004+45750+010530FM-12+146199999V0200201N004112200019N0200001N1-00381-00891999999ADDGA1001+999999999GF100991001001999999001001MA1999999086611MD1110111+9999ME1316069REMSYN076AAXX  04034 16008 42970 00208 11038 21089 38661 48606 51011 90234 333 92820;
0246160080999992000020406004+45750+010530FM-12+146199999V0200301N004112200019N0200001N1-00501-00911999999ADDAA199000091AJ100089199999999GA1001+999999999GF100991001001999999001001IA1239KA1120N-00501MA1999999086611MD1410001+9999ME1316069REMSYN088AAXX  04064 16008 32970 00308 11050 21091 38661 48606 54000 90538 333 21050 47008 92820;EQDQ01  00002PRCP99
0168160080999992000020409004+45750+010530FM-12+146199999V0200101N003612200019N0300001N1-00601-00971999999ADDGA1001+999999999GF100991001001999999001001MA1999999086711MD1310101+9999ME1316169REMSYN076AAXX  04094 16008 42980 00107 11060 21097 38671 48616 53010 90836 333 92820;
0227160080999992000020412004+45750+010530FM-12+146199999V0200301N004612200019N0300001N1+00101-01021999999ADDAA199000091AJ100079199999999GA1001+999999999GF100991001001999999001001IA1239MA1999999086801MD1110091+9999ME1316289REMSYN082AAXX  04124 16008 32980 00309 10010 21102 38680 48628 51009 91137 333 47007 92834;EQDQ01  00002PRCP99
0168160080999992000020415004+45750+010530FM-12+146199999V0200301N002612200019N0300001N1+00481-01311999999ADDGA1001+999999999GF100991001001999999001001MA1999999086691MD1810111+9999ME1316229REMSYN076AAXX  04154 16008 42980 00305 10048 21131 38669 48622 58011 91439 333 92834;
0246160080999992000020418004+45750+010530FM-12+146199999V0209999C000012200019N0200001N1+00101-01291999999ADDAA199000091AJ100079199999999GA1001+999999999GF100991001001999999001001IA1239KA1120M+00481MA1999999086691MD1510001+9999ME1316209REMSYN088AAXX  04184 16008 32970 00000 10010 21129 38669 48620 55000 91734 333 10048 47007 92844;EQDQ01  00002PRCP99
0168160080999992000020421004+45750+010530FM-12+146199999V0200401N004112200019N0200001N1-00201-01081999999ADDGA1001+999999999GF100991001001999999001001MA1999999086751MD1110061+9999ME1316249REMSYN076AAXX  04214 16008 42970 00408 11020 21108 38675 48624 51006 92035 333 92843;
0227160080999992000020500004+45750+010530FM-12+146199999V0200401N004612200019N0200001N1-00201-00971999999ADDAA199000091AJ100079199999999GA1001+999999999GF100991001001999999001001IA1239MA1999999086781MD1110031+9999ME1316269REMSYN082AAXX  05004 16008 32970 00409 11020 21097 38678 48626 51003 92337 333 47007 92843;EQDQ01  00002PRCP99
0168160080999992000020503004+45750+010530FM-12+146199999V0200401N004112200019N0200001N1-00141-00891999999ADDGA1001+999999999GF100991001001999999001001MA1999999086761MD1810021+9999ME1316249REMSYN076AAXX  05034 16008 42970 00408 11014 21089 38676 48624 58002 90235 333 92843;
0246160080999992000020506004+45750+010530FM-12+146199999V0200401N004112200019N0200001N1-00021-00861999999ADDAA199000091AJ100079199999999GA1001+999999999GF100991001001999999001001IA1239KA1120N-00211MA1999999086691MD1610071+9999ME1316199REMSYN088AAXX  05064 16008 32970 00408 11002 21086 38669 48619 56007 90538 333 21021 47007 92843;EQDQ01  00002PRCP99
0180160080999992000020509004+45750+010530FM-12+146199999V0200301N003610090019N0200001N1+00061-00581999999ADDGA1061+009009069GF106991061051008001001001MA1999999086701MD1310011+9999ME1316209REMSYN088AAXX  05094 16008 42570 60307 10006 21058 38670 48620 53001 86500 90839 333 86630 92844;
0239160080999992000020512004+45750+010530FM-12+146199999V0203601N004110090019N0300001N1+00301-00101999999ADDAA199000091AJ100069199999999GA1061+009009069GF106991061051008001001001IA1239MA1999999086711MD1010011+9999ME1316219REMSYN094AAXX  05124 16008 32580 63608 10030 21010 38671 48621 50001 86500 91134 333 47006 86630 92844;EQDQ01  00002PRCP99
0180160080999992000020515004+45750+010530FM-12+146199999V0200501N003612200019N0300001N1+00781-00281999999ADDGA1041+009009069GF104991041051008001001001MA1999999086601MD1610111+9999ME1316139REMSYN088AAXX  05154 16008 42580 40507 10078 21028 38660 48613 56011 84500 91437 333 84630 92844;
0246160080999992000020518004+45750+010530FM-12+146199999V0200401N003612200019N0200001N1+00341-00031999999ADDAA199000091AJ100069199999999GA1001+999999999GF100991001001999999001001IA1239KA1120M+00891MA1999999086601MD1410001+9999ME1316109REMSYN088AAXX  05184 16008 32970 00407 10034 21003 38660 48610 54000 91739 333 10089 47006 92844;EQDQ01  00002PRCP99
0168160080999992000020521004+45750+010530FM-12+146199999V0200501N002112200019N0200001N1+00161+00011999999ADDGA1001+999999999GF100991001001999999001001MA1999999086611MD1310011+9999ME1316099REMSYN076AAXX  05214 16008 42970 00504 10016 20001 38661 48609 53001 92036 333 92844;
0227160080999992000020600004+45750+010530FM-12+146199999V0200501N002112200019N0200001N1+00001-00141999999ADDAA199000091AJ100069199999999GA1001+999999999GF100991001001999999001001IA1239MA1999999086621MD1110011+9999ME1316099REMSYN082AAXX  06004 16008 32970 00504 10000 21014 38662 48609 51001 92339 333 47006 92844;EQDQ01  00002PRCP99
0168160080999992000020603004+45750+010530FM-12+146199999V0200501N002612200019N0200001N1-00141-00221999999ADDGA1001+999999999GF100991001001999999001001MA1999999086571MD1810051+9999ME1316059REMSYN076AAXX  06034 16008 42970 00505 11014 21022 38657 48605 58005 90234 333 92843;
0246160080999992000020606004+45750+010530FM-12+146199999V0200501N002612200019N0200001N1-00221-00281999999ADDAA199000091AJ100069199999999GA1001+999999999GF100991001001999999001001IA1239KA1120N-00221MA1999999086481MD1710091+9999ME1315999REMSYN088AAXX  06064 16008 32970 00505 11022 21028 38648 48599 57009 90538 333 21022 47006 92843;EQDQ01  00002PRCP99
0125160080999992000020609004+45750+010530FM-12+146199999V0200401N003619999999N0250001N1-00241-00281999999ADDGF105991999999999999999999REMSYN087AAXX  06094 16008 42975 50407 11024 21028 3860 48591 57008 85010 90837 333 85460 92843;
0239160080999992000020612004+45750+010530FM-12+146199999V0209999C000010300019N0250001N1+00441-00241999999ADDAA199000091AJ100069199999999GA1051+030009049GF105991051001999999011001IA1239MA1999999086281MD1710121+9999ME1315839REMSYN094AAXX  06124 16008 32975 50000 10044 21024 38628 48583 57012 85010 91136 333 47006 85460 92844;EQDQ01  00002PRCP99
0180160080999992000020615004+45750+010530FM-12+146199999V0209999C000010300019N0250001N1+01001-00371999999ADDGA1051+030009049GF106991051001999999011011MA1999999086111MD1710171+9999ME1315699REMSYN088AAXX  06154 16008 42975 60000 10100 21037 38611 48569 57017 85011 91438 333 85460 92844;
0246160080999992000020618004+45750+010530FM-12+146199999V0209999C000012200019N0200001N1+00501-00161999999ADDAA199000091AJ100059199999999GA1001+999999999GF100991001001999999001001IA1239KA1120M+01001MA1999999086001MD1610111+9999ME1315569REMSYN088AAXX  06184 16008 32970 00000 10050 21016 38600 48556 56011 91735 333 10100 47005 92844;EQDQ01  00002PRCP99
0168160080999992000020621004+45750+010530FM-12+146199999V0209999C000012200019N0200001N1+00101-00231999999ADDGA1001+999999999GF100991001001999999001001MA1999999086001MD1410001+9999ME1315549REMSYN076AAXX  06214 16008 42970 00000 10010 21023 38600 48554 54000 92038 333 92844;
0227160080999992000020700004+45750+010530FM-12+146199999V0209999C000012200019N0200001N1-00041-00211999999ADDAA199000091AJ100059199999999GA1001+999999999GF100991001001999999001001IA1239MA1999999085911MD1810091+9999ME1315469REMSYN082AAXX  07004 16008 32970 00000 11004 21021 38591 48546 58009 92340 333 47005 92843;EQDQ01  00002PRCP99
0168160080999992000020703004+45750+010530FM-12+146199999V0209999C000012200019N0200001N1-00161-00291999999ADDGA1001+999999999GF100991001001999999001001MA1999999085781MD1710131+9999ME1315349REMSYN076AAXX  07034 16008 42970 00000 11016 21029 38578 48534 57013 90238 333 92843;
0258160080999992000020706004+45750+010530FM-12+146199999V0200501N002110240019N0200001N1-00221-00311999999ADDAA199000091AJ100059199999999GA1051+024009049GF105991051001022501011001IA1239KA1120N-00221MA1999999085631MD1710151+9999ME1315219REMSYN100AAXX  07064 16008 32870 50504 11022 21031 38563 48521 57015 85010 90540 333 21022 47005 85458 92843;EQDQ01  00002PRCP99
0180160080999992000020709004+45750+010530FM-12+146199999V0200501N001510210019N0250001N1-00201-00351999999ADDGA1061+021009039GF106991061001022501051001MA1999999085611MD1610021+9999ME1315189REMSYN088AAXX  07094 16008 42875 60503 11020 21035 38561 48518 56002 86050 90839 333 86357 92843;
0239160080999992000020712004+45750+010530FM-12+146199999V0200401N004610090019N0250001N1+00701-00311999999ADDAA199000091AJ100059199999999GA1061+009009069GF106991061051008001001001IA1239MA1999999085601MD1810011+9999ME1315209REMSYN094AAXX  07124 16008 32575 60409 10070 21031 38560 48520 58001 86500 91140 333 47005 86630 92844;EQDQ01  00002PRCP99
0180160080999992000020715004+45750+010530FM-12+146199999V0200401N003112200019N0300001N1+00701-00561999999ADDGA1041+009009089GF104991041011008001001001MA1999999085431MD1610171+9999ME1315039REMSYN088AAXX  07154 16008 42580 40406 10070 21056 38543 48503 56017 84100 91438 333 84830 92844;
0246160080999992000020718004+45750+010530FM-12+146199999V0209999C000012200019N0250001N1+00321-00341999999ADDAA199000091AJ100049199999999GA1001+999999999GF100991001001999999001001IA1239KA1120M+00941MA1999999085551MD1310121+9999ME1315149REMSYN088AAXX  07184 16008 32975 00000 10032 21034 38555 48514 53012 91739 333 10094 47004 92844;EQDQ01  00002PRCP99
0180160080999992000020721004+45750+010530FM-12+146199999V0209999C000010300019N0200001N1+00101-00531999999ADDGA1051+030009049GF105991051001999999011001MA1999999085541MD1810011+9999ME1315139REMSYN088AAXX  07214 16008 42970 50000 10010 21053 38554 48513 58001 85010 92037 333 85460 92844;
0239160080999992000020800004+45750+010530FM-12+146199999V0200301N003110300019N0200001N1+00101-00441999999ADDAA199000091AJ100049199999999GA1071+030009049GF107991071001999999011001IA1239MA1999999085511MD1510031+9999ME1315189REMSYN094AAXX  08004 16008 32970 70306 10010 21044 38551 48518 55003 87010 92339 333 47004 87460 92844;EQDQ01  00002PRCP99
0180160080999992000020803004+45750+010530FM-12+146199999V0209999C000010300019N0200001N1+00121-00261999999ADDGA1051+030009049GF105991051001999999011001MA1999999085441MD1810071+9999ME1315029REMSYN088AAXX  08034 16008 42970 50000 10012 21026 38544 48502 58007 85010 90238 333 85460 92844;
0258160080999992000020806004+45750+010530FM-12+146199999V0200401N004110090019N0250001N1+00081+00021999999ADDAA199000091AJ100049199999999GA1051+009009069GF105991051051008001001001IA1239KA1120N+00081MA1999999085311MD1610141+9999ME1314889REMSYN100AAXX  08064 16008 32575 50408 10008 20002 38531 48488 56014 85500 90540 333 20008 47004 85630 92844;EQDQ01  00002PRCP99
0180160080999992000020809004+45750+010530FM-12+146199999V0200401N003610210019N0250001N1+00001-00051999999ADDGA1051+021009039GF106991051001022501031011MA1999999085331MD1310021+9999ME1314949REMSYN088AAXX  08094 16008 42875 60407 10000 21005 38533 48494 53002 85031 90839 333 85357 92844;
0239160080999992000020812004+45750+010530FM-12+146199999V0200501N003110090019N0250001N1+00321-00151999999ADDAA199000091AJ100049199999999GA1071+009009069GF107991071051008001001001IA1239MA1999999085301MD1810021+9999ME1314899REMSYN094AAXX  08124 16008 32575 70506 10032 21015 38530 48489 58002 87500 91138 333 47004 87630 92844;EQDQ01  00002PRCP99
0180160080999992000020815004+45750+010530FM-12+146199999V0209999C000010075019N0200001N1+00601-00061999999ADDGA1081+007509069GF108991081051008001999999MA1999999085101MD1710201+9999ME1314699REMSYN088AAXX  08154 16008 42570 80000 10060 21006 38510 48469 57020 885// 91437 333 88625 92844;
0258160080999992000020818004+45750+010530FM-12+146199999V0209999C000010090019N0150001N1+00201-00091999999ADDAA199000091AJ100039199999999GA1061+009009069GF106991061051008001001001IA1239KA1120M+00601MA1999999085001MD1610011+9999ME1314619REMSYN100AAXX  08184 16008 32565 60000 10020 21009 38500 48461 56001 86500 91739 333 10060 47003 86630 92844;EQDQ01  00002PRCP99
0208160080999992000020821004+45750+010530FM-12+146199999V0209999C000010090019N0150001N1+00121-00081999999ADDAY151031AY221031GA1081+009009069GF108991081071008001999999MA1999999085001MD1410001+9999ME1314619MW1501REMSYN094AAXX  08214 16008 41565 80000 10012 21008 38500 48461 54000 75052 887// 92039 333 88630 92844;
0254160080999992000020900004+45750+010530FM-12+146199999V0209999C000010090019N0060001N1+00101+00091999999ADDAA106002091AJ100029199999999AY151061AY221061GA1081+009009069GF108991081071008001999999IA1239MA1999999085001MD1510001+9999ME1314619MW1701REMSYN106AAXX  09004 16008 11556 80000 10010 20009 38500 48461 55000 60021 77052 887// 92337 333 47002 88630 92854;
0208160080999992000020903004+45750+010530FM-12+146199999V0200501N004610090019N0080001N1+00121+00101999999ADDAY161031AY261031GA1081+009009069GF108991081071008001999999MA1999999084901MD1810111+9999ME1314539MW1601REMSYN094AAXX  09034 16008 41558 80509 10012 20010 38490 48453 58011 76066 887// 90239 333 88630 92854;
0202160080999992000020909004+45750+010530FM-12+146199999V0200301N003110120019N0200001N1+00041-00841999999ADDGA1031+009009089GA2051+012009069GF106991061081008001001001MA1999999085181MD1110181+9999ME1314809REMSYN094AAXX  09094 16008 42570 60306 10004 21084 38518 48480 51018 86800 90840 333 83830 85640 92844;
0248160080999992000020912004+45750+010530FM-12+146199999V0200301N005710030019N0040001N1+00001-01061999999ADDAA199000021AJ100029199999999AY121061AY221061GA1081+003009079GF108991081061004501999999IA1239MA1999999085311MD1210131+9999ME1314889MW1101REMSYN100AAXX  09124 16008 31440 80311 10000 21106 38531 48488 52013 71022 886// 91137 333 47002 88710 92844;
0208160080999992000020915004+45750+010530FM-12+146199999V0200301N006710021019N0020001N1-00281-00441999999ADDAY171031AY221031GA1081+002109079GF108991081061002501999999MA1999999085281MD1810041+9999ME1314889MW1701REMSYN094AAXX  09154 16008 41320 80313 11028 21044 38528 48488 58004 77072 886// 91438 333 88707 92813;
0273160080999992000020918004+45750+010530FM-12+146199999V0200401N005710018019N0015001N1-00381-00601999999ADDAA112001091AJ100049199999999AY171061AY221061GA1081+001809079GF108991081061001501999999IA1239KA1120M+00181MA1999999085421MD1310141+9999ME1314999MW1701REMSYN112AAXX  09184 16008 11215 80411 11038 21060 38542 48499 53014 60012 77072 886// 91737 333 10018 47004 88706 92813;
0208160080999992000020921004+45750+010530FM-12+146199999V0200601N003110030019N0080001N1-00401-00541999999ADDAY171031AY221031GA1081+003009079GF108991081061004501999999MA1999999085761MD1210341+9999ME1315319MW1101REMSYN094AAXX  09214 16008 41458 80606 11040 21054 38576 48531 52034 71072 886// 92037 333 88710 92813;
0254160080999992000021000004+45750+010530FM-12+146199999V0200201N004612200019N0150001N1-00381-00741999999ADDAA106000591AJ100049199999999AY171061AY211061GA1021+012009089GF102991021011012501001001IA1249MA1999999085801MD1110041+9999ME1315349MW1011REMSYN106AAXX  10004 16008 11665 20209 11038 21074 38580 48534 51004 69941 70171 82100 92335 333 48004 82840 92813;
0180160080999992000021003004+45750+010530FM-12+146199999V0200201N003110090019N0150001N1-00401-00701999999ADDGA1051+009009069GF105991051051008001001001MA1999999085801MD1410001+9999ME1315349REMSYN088AAXX  10034 16008 42565 50206 11040 21070 38580 48534 54000 85500 90237 333 85630 92813;
0239160080999992000021006004+45750+010530FM-12+146199999V0200701N007210090019N0150001N1-00401-00681999999ADDAA199000021AJ100049199999999GA1051+009009069GF105991051051008001001001IA1249KA1120N-00421MA1999999085851MD1310051+9999ME1315399REMSYN100AAXX  10064 16008 32565 50714 11040 21068 38585 48539 53005 85500 90537 333 21042 48004 85630 92813;
0168160080999992000021009004+45750+010530FM-12+146199999V0200301N008712200019N0250001N1-00401-00651999999ADDGA1001+999999999GF100991001001999999001001MA1999999086031MD1210181+9999ME1315589REMSYN076AAXX  10094 16008 42975 00317 11040 21065 38603 48558 52018 90836 333 92813;
0227160080999992000021012004+45750+010530FM-12+146199999V0200501N011312200019N0250001N1+00061-00741999999ADDAA199000091AJ100049199999999GA1001+999999999GF100991001001999999001001IA1249MA1999999085951MD1810081+9999ME1315519REMSYN082AAXX  10124 16008 32975 00522 10006 21074 38595 48551 58008 91137 333 48004 92813;EQDQ01  00002PRCP99
0168160080999992000021015004+45750+010530FM-12+146199999V0200501N007212200019N0300001N1+00321-01061999999ADDGA1001+999999999GF100991001001999999001001MA1999999085681MD1710271+9999ME1315279REMSYN076AAXX  10154 16008 42980 00514 10032 21106 38568 48527 57027 91436 333 92813;
0246160080999992000021018004+45750+010530FM-12+146199999V0200601N002612200019N0250001N1-00061-00571999999ADDAA199000091AJ100039199999999GA1001+999999999GF100991001001999999001001IA1249KA1120M+00321MA1999999085681MD1510001+9999ME1315269REMSYN088AAXX  10184 16008 32975 00605 11006 21057 38568 48526 55000 91736 333 10032 48003 92813;EQDQ01  00002PRCP99
0168160080999992000021021004+45750+010530FM-12+146199999V0200601N002612200019N0200001N1-00261-00601999999ADDGA1001+999999999GF100991001001999999001001MA1999999085731MD1110051+9999ME1315319REMSYN076AAXX  10214 16008 42970 00605 11026 21060 38573 48531 51005 92036 333 92813;
0227160080999992000021100004+45750+010530FM-12+146199999V0200501N004112200019N0200001N1-00341-00611999999ADDAA199000091AJ100039199999999GA1001+999999999GF100991001001999999001001IA1249MA1999999085671MD1810061+9999ME1315209REMSYN082AAXX  11004 16008 32970 00508 11034 21061 38567 48520 58006 92337 333 48003 92823;EQDQ01  00002PRCP99
0168160080999992000021103004+45750+010530FM-12+146199999V0200601N003112200019N0200001N1-00401-00821999999ADDGA1001+999999999GF100991001001999999001001MA1999999085551MD1710131+9999ME1315129REMSYN076AAXX  11034 16008 42970 00606 11040 21082 38555 48512 57013 90238 333 92823;
0246160080999992000021106004+45750+010530FM-12+146199999V0209999C000012200019N0200001N1-00341-00631999999ADDAA199000091AJ102239199999999GA1001+999999999GF100991001001999999001001IA1249KA1120N-00421MA1999999085511MD1610041+9999ME1315079REMSYN088AAXX  11064 16008 32970 00000 11034 21063 38551 48507 56004 90537 333 21042 48223 92873;EQDQ01  00002PRCP99
0180160080999992000021109004+45750+010530FM-12+146199999V0200601N004110090019N0200001N1-00241-00681999999ADDGA1081+009009069GF108991081051008001999999MA1999999085641MD1310141+9999ME1315219REMSYN088AAXX  11094 16008 42570 80608 11024 21068 38564 48521 53014 885// 90838 333 88630 92873;
0217160080999992000021112004+45750+010530FM-12+146199999V0209999C000010075019N0150001N1+00001-00631999999ADDAA199000091AJ100039199999999GF108991081051008001999999IA1249MA1999999085681MD1110041+9999ME1315279REMSYN088AAXX  11124 16008 32565 80000 10000 21063 38568 48527 51004 885// 91137 333 48003 92873;EQDQ01  00002PRCP99
0180160080999992000021115004+45750+010530FM-12+146199999V0200501N005110060019N0150001N1+00021-00121999999ADDGA1081+006009069GF108991081051008001999999MA1999999085631MD1810051+9999ME1315219REMSYN088AAXX  11154 16008 42565 80510 10002 21012 38563 48521 58005 885// 91436 333 88620 92873;
0258160080999992000021118004+45750+010530FM-12+146199999V0200601N003112200019N0200001N1-00061-00081999999ADDAA199000091AJ100039199999999GA1021+009009089GF102991021011008001001001IA1249KA1120M+00061MA1999999085681MD1310051+9999ME1315269REMSYN100AAXX  11184 16008 32570 20606 11006 21008 38568 48526 53005 82100 91738 333 10006 48003 82830 92873;EQDQ01  00002PRCP99
0239160080999992000021200004+45750+010530FM-12+146199999V0209999C000010090019N0200001N1-00141-00221999999ADDAA199000091AJ100039199999999GA1081+009009069GF108991081051008001999999IA1249MA1999999085791MD1310011+9999ME1315349REMSYN094AAXX  12004 16008 32570 80000 11014 21022 38579 48534 53001 885// 92336 333 48003 88630 92873;EQDQ01  00002PRCP99
0180160080999992000021203004+45750+010530FM-12+146199999V0209999C000010090019N0200001N1-00221-00261999999ADDGA1081+009009069GF108991081051008001999999MA1999999085731MD1810061+9999ME1315319REMSYN088AAXX  12034 16008 42570 80000 11022 21026 38573 48531 58006 885// 90237 333 88630 92873;
0258160080999992000021206004+45750+010530FM-12+146199999V0209999C000010090019N0200001N1-00241-00331999999ADDAA199000091AJ100039199999999GA1061+009009069GF106991061051008001001001IA1249KA1120N-00241MA1999999085701MD1610031+9999ME1315269REMSYN100AAXX  12064 16008 32570 60000 11024 21033 38570 48526 56003 86500 90538 333 21024 48003 86630 92873;EQDQ01  00002PRCP99
0180160080999992000021209004+45750+010530FM-12+146199999V0200501N002610135019N0250001N1-00421-00621999999ADDGA1061+013509039GF106991061001012501041001MA1999999085661MD1810051+9999ME1315209REMSYN088AAXX  12094 16008 42675 60505 11042 21062 38566 48520 58005 86040 90838 333 86345 92873;
0239160080999992000021212004+45750+010530FM-12+146199999V0200301N003612200019N0250001N1+00161-00451999999ADDAA199000091AJ100039199999999GA1041+030009039GF104991041001017501071001IA1249MA1999999085591MD1710061+9999ME1315199REMSYN094AAXX  12124 16008 32775 40307 10016 21045 38559 48519 57006 84070 91136 333 48003 84360 92873;EQDQ01  00002PRCP99
0180160080999992000021215004+45750+010530FM-12+146199999V0200601N003112200019N0300001N1+00261-00731999999ADDGA1031+012009089GF107991031011012501001011MA1999999085481MD1710111+9999ME1315089REMSYN088AAXX  12154 16008 42680 70606 10026 21073 38548 48508 57011 83101 91437 333 83840 92873;
