0133223830999992000010112004+66770+047780FM-12+000999999V0201301N004012200019N0100001N1-02871-03181103431ADDGF102991001001999999001011MA1999999103231MD1210091+9999REMSYN066AAXX  01121 22383 42997 21304 11287 21318 30323 40343 52009 80001;
0165223830999992000010206004+66770+047780FM-12+000999999V0201701N004012200019N0100001N1-02831-03131103401ADDAA106000091GF102991001001999999001011KA1999N-03121MD1710041+9999REMSYN070AAXX  02061 22383 32997 21704 11283 21313 40340 57004 80001 333 21312;EQDQ01  00002PRCP06
0112223830999992000010209004+66770+047780FM-12+000999999V0201601N005012200019N0200001N1-02361-02581103371ADDGF102991001001999999001011MD1610021+9999REMSYN060AAXX  02091 22383 42998 21605 11236 21258 40337 56002 80001;
0161223830999992000010212004+66770+047780FM-12+000999999V0201701N007019999999N0100001N1-02321-02711103331ADDAY131061AY221061GF108991001001999999001071MA1999999103141MD1710041+9999MW1361REMSYN072AAXX  02121 22383 41997 81707 11232 21271 30314 40333 57004 73632 80007;
0166223830999992000010306004+66770+047780FM-12+000999999V0201701N007010018019N0020001N1-02201-02521102681ADDAY121061AY221061GA1061+001809069GF107991061061002501001011MD1310041+9999MW1101REMSYN076AAXX  03061 22383 41395 71707 11220 21252 40268 53004 71022 86601 333 86706;
0166223830999992000010309004+66770+047780FM-12+000999999V0201701N007010018019N0020001N1-02281-02521102681ADDAY121031AY221031GA1061+001809069GF107991061061002501001011MD1310041+9999MW1101REMSYN076AAXX  03091 22383 41395 71707 11228 21252 40268 53004 71022 86601 333 86706;
0112223830999992000010409004+66770+047780FM-12+000999999V0201201N006019999999N0500001N1-01811-02141101681ADDGF105991051001999999031001MD1710161+9999REMSYN060AAXX  04091 22383 42999 51206 11181 21214 40168 57016 85030;
0133223830999992000010412004+66770+047780FM-12+000999999V0201401N004012200019N0100001N1-02041-02371101531ADDGF102991021001999999031001MA1999999101351MD1710151+9999REMSYN066AAXX  04121 22383 42997 21404 11204 21237 30135 40153 57015 82030;
0133223830999992000010612004+66770+047780FM-12+000999999V0201201N004012200019N0100001N1-02491-02881101621ADDGF102991001001999999001011MA1999999101431MD1210071+9999REMSYN066AAXX  06121 22383 42997 21204 11249 21288 30143 40162 52007 80001;
0161223830999992000010712004+66770+047780FM-12+000999999V0201301N007019999999N0100001N1-02891-03271101191ADDAY131061AY211061GF107991021001999999031071MA1999999101001MD1710211+9999MW1361REMSYN072AAXX  07121 22383 41997 71307 11289 21327 30100 40119 57021 73631 82037;
0187223830999992000010812004+66770+047780FM-12+000999999V0201301N008010027019N0100001N1-02151-02471100091ADDAY181061AY231061GA1071+002709069GF107991071071002501031999MA1999999099911MD1710061+9999MW1361REMSYN082AAXX  08121 22383 41397 71308 11215 21247 39991 40009 57006 73683 8773/ 333 87709;
0187223830999992000010912004+66770+047780FM-12+000999999V0202501N007010018019N0040001N1-00021-00051098421ADDAY181061AY231061GA1071+001809069GF108991081091001501999999MA1999999098251MD1310081+9999MW1851REMSYN082AAXX  09121 22383 41296 82507 11002 21005 39825 49842 53008 78583 889// 333 87706;
0187223830999992000011012004+66770+047780FM-12+000999999V0202601N007010015019N0040001N1-00161-00181099611ADDAY181061AY231061GA1071+001509069GF108991081091001501999999MA1999999099441MD1210261+9999MW1801REMSYN082AAXX  10121 22383 41296 82607 11016 21018 39944 49961 52026 78083 889// 333 87705;
0236223830999992000011103004+66770+047780FM-12+000999999V0202501N008010033019N0100001N1-00241-03041999999ADDAA112000491AA224021091AJ100729199999999AY131031AY231031GA1081+003309079GF108991081061004501999999IA1249MD1410001+9999MW1361REMSYN101AAXX  11031 22383 /1497 82508 11024 21304 54000 73633 886// 333 48072 88711 555 21036 69942 7021/ /-;
0265223830999992000011503004+66770+047780FM-12+000999999V0201801N005010027019N0020001N1-01151-01211100941ADDAA112000791AA224000791AJ100789199999999AY171031AY221031GA1071+002709079GF108991999071002501021999IA1239MD1810341+9999MW1711REMSYN111    AAXX  15031 22383 /1395 81805 11115 21121 40094 58034 77172 8872/ 333 47078 87709 555 21296 69972 7997/ /-;EQDQ01+000082SCOTLC
0191223830999992000011712004+66770+047780FM-12+000999999V0200801N004010030019N9999999N1-00931-01051098901ADDAY181061AY221061GA1081+003009069GF108991081061004501999999MA1999999098731MD1610021+9999MW1051REMSYN086    AAXX  17121 22383 4149/ 80804 11093 21105 39873 49890 56002 70582 886// 333 88710;
0165223830999992000011912004+66770+047780FM-12+000999999V0201001N001019999999N0200001N1-01751+99999100111ADDAY181061AY271061GF108991001001999999001051MA1999999099931MD1810061+9999MW1021REMSYN076    AAXX  19121 22383 41998 81001 11175 21/01 39993 40011 58006 70287 80005;
0161223830999992000012112004+66770+047780FM-12+000999999V0200901N003012200019N0040001N1-00961-01121098631ADDAY181061AY271061GF108991031091004501001011MA1999999098461MD1310031+9999MW1861REMSYN072AAXX  21121 22383 41496 80903 11096 21112 39846 49863 53003 78687 83901;
0133223830999992000012212004+66770+047780FM-12+000999999V0201501N004019999999N0200001N1-02101-02351099691ADDGF107991001001999999001011MA1999999099511MD1210081+9999REMSYN066AAXX  22121 22383 42998 71504 11210 21235 39951 49969 52008 80001;
0171223830999992000012612004+66770+047780FM-12+000999999V0201501N007012200019N0200001N1-02221-02541100711ADDAY131061AY231061GA1001+999999999GF100991001001999999001001MA1999999100531MD1710241+9999MW1361REMSYN066AAXX  26121 22383 41998 01507 11222 21254 30053 40071 57024 73633;
0140223830999992000012709004+66770+047780FM-12+000999999V0201701N007012200019N0200001N1-02121-03441099021ADDAY131031AY201031GF102991001001999999001011MD1710121+9999MW1361REMSYN066AAXX  27091 22383 41998 21707 11212 21344 49902 57012 73630 80001;
0150223830999992000012809004+66770+047780FM-12+000999999V0201901N006010042019N0040001N1-01451-01791098631ADDAY181031AY231031GF107991051091004501051001MD1210211+9999MW1851REMSYN076AAXX  28091 22383 41496 71906 11145 21179 49863 52021 78583 85950 333 8597/;
0161223830999992000012812004+66770+047780FM-12+000999999V0201701N007010300019N0040001N1-01541-01881098831ADDAY181061AY231061GF107991031091004501031001MA1999999098651MD1210201+9999MW1851REMSYN072AAXX  28121 22383 41496 71707 11154 21188 39865 49883 52020 78583 83930;
0187223830999992000013012004+66770+047780FM-12+000999999V0201401N010010078019N0200001N1-01151-01501099541ADDAY131061AY231061GA1061+007809059GF108991061999008001021999MA1999999099371MD1810291+9999MW1371REMSYN082AAXX  30121 22383 41598 81410 11115 21150 39937 49954 58029 73733 86/2/ 333 86626;
0187223830999992000020112004+66770+047780FM-12+000999999V0201901N007010024019N0100001N1-01401-01601098241ADDAY181061AY231061GA1071+002409069GF108991081091002501999999MA1999999098061MD1110031+9999MW1851REMSYN082AAXX  01121 22383 41397 81907 11140 21160 39806 49824 51003 78583 889// 333 87708;
0161223830999992000020212004+66770+047780FM-12+000999999V0202601N006010300019N0040001N1-00991-01111097661ADDAY181061AY231061GF108991031091002501031011MA1999999097491MD1310231+9999MW1851REMSYN072AAXX  02121 22383 41396 82606 11099 21111 39749 49766 53023 78583 83931;
0133223830999992000020412004+66770+047780FM-12+000999999V0200901N001010300019N0200001N1-01841-02031099171ADDGF106991021051004501031011MA1999999098091MD1210101+9999REMSYN066AAXX  04121 22383 42498 60901 11184 21203 39809 49917 52010 82531;
0213223830999992000020803004+66770+047780FM-12+000999999V0201701N005010021019N0300001N1-00871-01021099381ADDAA199000091AJ100939199999999GA1081+002109079GF108991081061002501999999IA1249MD1710131+9999REMSYN092AAXX  08031 22383 32380 81705 11087 21102 49938 57013 886// 333 48093 88707 555 21124 7000/;EQDQ01  00002PRCP99
0140223830999992000021009004+66770+047780FM-12+000999999V0202401N004010036019N9999999N1+00051-01011999999ADDAY181031AY221031GA1061+003609059GF108991061041999999051999MW1021REMSYN064AAXX  10091 22383 419// 82404 10005 21101 70282 8645/ 333 86612;
0180223830999992000021112004+66770+047780FM-12+000999999V0201701N009019999999N0200001N1-00311+99999099801ADDAY131061AY211061GF107991001001999999001011MA1999999099631MD1710121+9999MW1361REMSYN072AAXX  11121 22383 41998 71709 11031 21013 39963 49980 57012 73631 86001;EQDQ01+000062SCOTLC
0172223830999992000021306004+66770+047780FM-12+000999999V0202901N002010024019N9999999N1-00241-00331999999ADDGA1071+002409069GF108991999091999999999999KA1120N-00231MD1110081+9999ME1100419REMSYN082AAXX  13061 22383 2//// 82902 11024 21033 41041 51008 72684 8/9// 333 21023 87708;
0135223830999992000021512004+66770+047780FM-12+000999999V0201201N004012200019N0200001N1-00681-00901999999ADDAY131061AY201061GF101991999999999999999999MA1999999100301MW1101REMSYN060AAXX  15121 22383 42998 11204 11068 2109/ 30030 40/47 71030;
0187223830999992000021806004+66770+047780FM-12+000999999V0201401N005010021019N0200001N1-00681-00801101581ADDAA199000091GA1061+002109069GF106991061061002501001001KA1120N-00681MD1810011+9999REMSYN076AAXX  18061 22383 32398 61405 11068 21080 40158 58001 86600 333 21068 86707;EQDQ01  00002PRCP99
0161223830999992000022012004+66770+047780FM-12+000999999V0202201N004010300019N0200001N1-00871-01111101331ADDAY181061AY231061GF105991021091004501031001MA1999999101161MD1210081+9999MW1261REMSYN072AAXX  20121 22383 41498 52204 11087 21111 30116 40133 52008 72683 82930;
0161223830999992000022212004+66770+047780FM-12+000999999V0202601N006010300019N0100001N1-01031-01231101811ADDAY181061AY271061GF107991031091004501031001MA1999999101631MD1210121+9999MW1851REMSYN072AAXX  22121 22383 41497 72606 11103 21123 30163 40181 52012 78587 83930;
0167223830999992000022312004+66770+047780FM-12+000999999V0202001N004010036019N0200001N1-01321-01591102001ADDAY181061AY221061GA1051+003609059GF107991051051004501051999MA1999999101821MW1021REMSYN076AAXX  23121 22383 41498 72004 11132 21159 30182 40200 70282 8555/ 333 85612;
0114223830999992000022603004+66770+047780FM-12+000999999V0202001N014019999999N0300001N1-02371-02701999999ADDAA199000091MD1410001+9999REMSYN058AAXX  26031 22383 32980 /2014 11237 21270 54010 82030 333;EQDQ01  00002PRCP99
0201223830999992000030103004+66770+047780FM-12+000999999V0201901N004012200019N0350001N1-03141-03501100221ADDAA199000091AJ101009199999999GA1001+999999999GF100991001001999999001001IA1249MD1110081+9999REMSYN080AAXX  01031 22383 32981 01904 11314 21350 40022 51008 333 48100 555 21401 7990/;EQDQ01  00002PRCP99
0112223830999992000030109004+66770+047780FM-12+000999999V0201801N005019999999N0200001N1-02401-02801100401ADDGF105991001001999999001011MD1110021+9999REMSYN060AAXX  01091 22383 42998 51805 11240 21280 40040 51002 80001;
0133223830999992000030112004+66770+047780FM-12+000999999V0201401N004019999999N0200001N1-02131-02611100331ADDGF107991001001999999001071MA1999999100151MD1810061+9999REMSYN066AAXX  01121 22383 42998 71404 11213 21261 30015 40033 58006 80007;
0157223830999992000030206004+66770+047780FM-12+000999999V0201101N006010042019N0100001N1-00881-01071099531ADDAA100000591AY181061AY271061GF107991071051004501999999MD1710121+9999MW1221REMSYN072AAXX  02061 22383 11497 71106 11088 21107 49953 57012 69940 72287 875//;
0157223830999992000030209004+66770+047780FM-12+000999999V0201301N007010027019N0100001N1-00601-00831099311ADDGA1071+002709069GF199999071061002501051001MD1810221+9999REMSYN070AAXX  02091 22383 41397 51307 11060 21083 49931 58022 87650 333 87709;EQDQ01+000052SCOTCV
0202223830999992000030306004+66770+047780FM-12+000999999V0202201N008010042019N0200001N1-00061-00471099101ADDAA100000591AY181061AY231061GA1051+004209059GF106991051061004501001001KA1120N-00091MD1310221+9999MW1361REMSYN088AAXX  03061 22383 11498 62208 11006 21047 49910 53022 69950 73683 85600 333 21009 85614;
0160223830999992000030309004+66770+047780FM-12+000999999V0201901N006010051019N0200001N1+00081+99999099171ADDAY181031AY231031GA1051+005109059GF107991051051004501031001MD1110071+9999MW1361REMSYN070AAXX  03091 22383 41498 71906 10008 49917 51007 73683 85530 333 85617;
0187223830999992000030312004+66770+047780FM-12+000999999V02099999999990300019N0200001N1+00171-00241099141ADDAY181061AY221061GA1041+004209059GF107991041051004501051999MA1999999098971MD1810031+9999MW1021REMSYN082AAXX  03121 22383 41498 71/06 10017 21024 39897 49914 58003 70282 8455/ 333 84614;
0187223830999992000030612004+66770+047780FM-12+000999999V0201101N001010015019N0100001N1-00531-00631100271ADDAY141061AY221061GA1081+001509069GF108991081061001501999999MA1999999100101MD1810021+9999MW1021REMSYN082AAXX  06121 22383 41297 81101 11053 21063 30010 40027 58002 70242 886// 333 88705;
0129223830999992000030706004+66770+047780FM-12+000999999V0201501N005010300019N0200001N1-00921-01081099861ADDAA100000591GF107991021051004501031001MD1710061+9999REMSYN066AAXX  07061 22383 12498 71505 11092 21108 49986 57006 69950 82530;
0138223830999992000030709004+66770+047780FM-12+000999999V0201601N006010039019N0200001N1-00481-00681099771ADDGA1061+003909059GF107991061051004501051999MD1710081+9999REMSYN070AAXX  07091 22383 42498 71606 11048 21068 49977 57008 8655/ 333 86613;
0161223830999992000030712004+66770+047780FM-12+000999999V0201401N007010300019N0200001N1-00461-00941099621ADDAY131061AY221061GF107991021051004501051999MA1999999099451MD1810151+9999MW1361REMSYN072AAXX  07121 22383 41498 71407 11046 21094 39945 49962 58015 73632 8255/;
0180223830999992000030806004+66770+047780FM-12+000999999V0201201N007010300019N0040001N1-00321-00531098661ADDAA100000591AY181061AY231061GF107991031091004501031999KA1999N-00501MD1710161+9999MW1851REMSYN082AAXX  08061 22383 11496 71207 11032 21053 49866 57016 69940 78583 8393/ 333 21050;
0140223830999992000030809004+66770+047780FM-12+000999999V0201201N006010300019N0200001N1-00221-00541098461ADDAY181031AY231031GF108991041051004501031071MD1710201+9999MW1361REMSYN066AAXX  08091 22383 41498 81206 11022 21054 49846 57020 73683 84537;
0202223830999992000030906004+66770+047780FM-12+000999999V0201301N006010057019N0100001N1-00471-00641098361ADDAA100001091AY181061AY271061GA1061+005709059GF107991061051004501051001KA1120N-00891MD1210021+9999MW1361REMSYN088AAXX  09061 22383 11497 71306 11047 21064 49836 52002 69990 73687 86550 333 21089 86619;
0180223830999992000031006004+66770+047780FM-12+000999999V0201401N004012200019N0200001N1-01421-01551099331ADDAA100002091AY171061AY211061GF103991001001999999001061KA1999N-01631MD1110091+9999MW1021REMSYN082AAXX  10061 22383 11998 31404 11142 21155 49933 51009 60020 70271 80006 333 21163;
0112223830999992000031009004+66770+047780FM-12+000999999V0201001N003012200019N0200001N1-01161-01291099381ADDGF102991001001999999001011MD1210061+9999REMSYN060AAXX  10091 22383 42998 21003 11116 21129 49938 52006 80001;
0241223830999992000031203004+66770+047780FM-12+000999999V0201401N006010012019N0100001N1-01031-01161099111ADDAA199000091AJ101099199999999AY131031AY231031GA1081+001209079GF108991081061002501999999IA1249MD1210031+9999MW1361REMSYN098AAXX  12031 22383 31397 81406 11103 21116 49911 52003 73633 886// 333 48109 88704 555 21126 7993/;EQDQ01  00002PRCP99
0152223830999992000031309004+66770+047780FM-12+000999999V0201901N007010045019N0200001N1-00931+99999100701ADDAY131031AY231031GA1071+004509059GF107991071051004501001001MW1361REMSYN076AAXX  13091 22383 41498 71907 11093 21082 40070 5//30 73633 87500 333 87615;
0180223830999992000031406004+66770+047780FM-12+000999999V0201601N011019999999N9999999N1-00751-01241101101ADDAA100000791AY131061AY231061GF107991021001999999031011KA1999N-01131MD1610041+9999MW1381REMSYN082AAXX  14061 22383 119// 71611 11075 21124 40110 56004 69900 73833 82031 333 21113;
0140223830999992000031409004+66770+047780FM-12+000999999V0201601N010019999999N0040001N1-00421-01161101101ADDAY131031AY231031GF106991021001999999031011MD1410001+9999MW1381REMSYN066AAXX  14091 22383 41996 61610 11042 21116 40110 54000 73833 82031;
0161223830999992000031412004+66770+047780FM-12+000999999V0201601N010012200019N0100001N1-00371-01081101161ADDAY131061AY231061GF104991011001999999031011MA1999999100991MD1310061+9999MW1371REMSYN072AAXX  14121 22383 41997 41610 11037 21108 30099 40116 53006 73733 81031;
0235223830999992000031603004+66770+047780FM-12+000999999V0201301N006019999999N0200001N1-00581-00971101591ADDAA199000091AJ101049199999999AY131031AY231031GF107991999001999999071999IA1249MD1110091+9999MW1361REMSYN092AAXX  16031 22383 31998 71306 11058 21097 40159 51009 73633 8807/ 333 48104 555 21062 7000/;EQDQ01+000082SCOTLCQ02  00002PRCP99
0193223830999992000031606004+66770+047780FM-12+000999999V0201401N006019999999N0200001N1-00461-00771101661ADDAA199000091AY131061AY231061GF107991071001999999031011KA1999N-00621MD1210071+9999MW1361REMSYN076AAXX  16061 22383 31998 71406 11046 21077 40166 52007 73633 87031 333 21062;EQDQ01  00002PRCP99
0140223830999992000031609004+66770+047780FM-12+000999999V0201501N005019999999N0200001N1-00201-00591101771ADDAY131031AY221031GF107991021001999999031011MD1210111+9999MW1021REMSYN066AAXX  16091 22383 41998 71505 11020 21059 40177 52011 70232 82031;
0161223830999992000031612004+66770+047780FM-12+000999999V0201501N005019999999N0200001N1-00091-00441101881ADDAY131061AY221061GF107991071001999999031001MA1999999101711MD1210111+9999MW1021REMSYN072AAXX  16121 22383 41998 71505 11009 21044 30171 40188 52011 70232 87030;
0122223830999992000031709004+66770+047780FM-12+000999999V0201401N003012200019N0500001N1-00541-00961102831ADDGA1001+999999999GF100991001001999999001001MD1210081+9999REMSYN054AAXX  17091 22383 42999 01403 11054 21096 40283 52008;
0143223830999992000031712004+66770+047780FM-12+000999999V0201501N003012200019N0200001N1-00151-00831102821ADDGA1001+999999999GF100991001001999999001001MA1999999102651MD1410001+9999REMSYN060AAXX  17121 22383 42998 01503 11015 21083 30265 40282 54000;
0175223830999992000031806004+66770+047780FM-12+000999999V0201501N005012200019N0200001N1-01301-01571102901ADDAA199000091GA1001+999999999GF100991001001999999001001KA1999N-01681MD1310021+9999REMSYN064AAXX  18061 22383 32998 01505 11130 21157 40290 53002 333 21168;EQDQ01  00002PRCP99
0117223830999992000031809004+66770+047780FM-12+000999999V0201801N004012200019N0200001N1-00411-01051999999ADDGA1001+999999999GF100991001001999999001001MA1999999102921REMSYN048AAXX  18091 22383 42998 01804 11041 21105 30292;
0143223830999992000031812004+66770+047780FM-12+000999999V0201801N004012200019N0200001N1-00131-00981102921ADDGA1001+999999999GF100991001001999999001001MA1999999102751MD1110011+9999REMSYN060AAXX  18121 22383 42998 01804 11013 21098 30275 40292 51001;
0175223830999992000031906004+66770+047780FM-12+000999999V0201501N005012200019N0200001N1-01131-01331102501ADDAA199000091GA1001+999999999GF100991001001999999001001KA1999N-01471MD1810181+9999REMSYN064AAXX  19061 22383 32998 01505 11113 21133 40250 58018 333 21147;EQDQ01  00002PRCP99
0112223830999992000031909004+66770+047780FM-12+000999999V0202001N003019999999N0200001N1-00421-01011102361ADDGF107991071001999999051999MD1710141+9999REMSYN060AAXX  19091 22383 42998 72003 11042 21101 40236 57014 8705/;
0153223830999992000031912004+66770+047780FM-12+000999999V0201701N007010300019N0100001N1-00301-00541102081ADDAY131061GF107991021091004501051999MA1999999101901MD1810281+9999MW1881REMSYN072AAXX  19121 22383 41497 71707 11030 21054 30190 40208 58028 7883/ 8295/;
0133223830999992000032112004+66770+047780FM-12+000999999V0202301N007012200019N0200001N1-00221-00651099281ADDGF103991021051004501001011MA1999999099111MD1210151+9999REMSYN066AAXX  21121 22383 42498 32307 11022 21065 39911 49928 52015 82501;
0191223830999992000032203004+66770+047780FM-12+000999999V0202201N004012200019N0200001N1-00951-01211099421ADDAA199000091AJ101039199999999GF103991031001999999031001IA1249MD1710031+9999REMSYN086AAXX  22031 22383 32998 32204 11095 21121 49942 57003 83030 333 48103 555 21106 7000/;EQDQ01  00002PRCP99
0165223830999992000032206004+66770+047780FM-12+000999999V0202201N006012200019N0200001N1-00801-01071099401ADDAA199000091GF103991021001999999031011KA1999N-01061MD1710021+9999REMSYN070AAXX  22061 22383 32998 32206 11080 21107 49940 57002 82031 333 21106;EQDQ01  00002PRCP99
0112223830999992000032209004+66770+047780FM-12+000999999V0201901N004019999999N0200001N1-00371-00811099451ADDGF106991051001999999031011MD1310051+9999REMSYN060AAXX  22091 22383 42998 61904 11037 21081 49945 53005 85031;
0133223830999992000032512004+66770+047780FM-12+000999999V0203401N004012200019N0200001N1-00631-01231100171ADDGF104991041051008001001001MA1999999100001MD1210121+9999REMSYN066AAXX  25121 22383 42598 43404 11063 21123 30000 40017 52012 84500;
0202223830999992000032603004+66770+047780FM-12+000999999V0202601N007010015019N0010001N1-00621-00661100391ADDAA100000791AY141031AY231031GA1071+001509069GF107991071061001501001001KA1120N-00941MD1110011+9999MW1361REMSYN088AAXX  26031 22383 11294 72607 11062 21066 40039 51001 69900 73643 87600 333 21094 87705;
0105223830999992000032609004+66770+047780FM-12+000999999V02099999999999999999N0100001N1-00391-00511100351ADDMD1810772+9999REMSYN060AAXX  26091 22383 41297 //608 11039 21051 40035 58077 87705;EQDQ01+000772APC3  
0193223830999992000032706004+66770+047780FM-12+000999999V0202801N003012200019N0200001N1-00791-01101100941ADDAA199000091AY181061AY221061GF102991021001999999031001KA1999N-01211MD1110091+9999MW1011REMSYN076AAXX  27061 22383 31998 22803 11079 21110 40094 51009 70182 82030 333 21121;EQDQ01  00002PRCP99
0202223830999992000033106004+66770+047780FM-12+000999999V0202801N006010015019N0200001N1+00021-00091098311ADDAA100002091AY171061AY221061GA1081+001509069GF108991081061001501999999KA1120N-00391MD1310051+9999MW1221REMSYN088AAXX  31061 22383 11298 82806 10002 21009 49831 53005 60020 72272 886// 333 21039 88705;
0138223830999992000033109004+66770+047780FM-12+000999999V0200601N006010018019N0040001N1-00461-00591098511ADDGA1071+001809069GF108991071091002501999999MD1310201+9999REMSYN070AAXX  31091 22383 41396 80606 11046 21059 49851 53020 879// 333 87706;
0206223830999992000033112004+66770+047780FM-12+000999999V0200101N008010009019N0010001N1-00851-01041099392ADDAY181061AY231061GA1061+000909099GF108991061091001501021999MA1999999099221MD1810121+9999MW1861REMSYN082AAXX  31121 22383 41294 80108 11085 21104 39922 49939 58012 78683 8692/ 333 86903;EQDQ01+099393APOSLP
0191223830999992000040103004+66770+047780FM-12+000999999V0201801N003019999999N0200001N1-01481-01681100981ADDAA199000091AJ101139199999999GF107991071001999999051999IA1249MD1210411+9999REMSYN086AAXX  01031 22383 32998 71803 11148 21168 40098 52041 8705/ 333 48113 555 21202 7702/;EQDQ01  00002PRCP99
0165223830999992000040106004+66770+047780FM-12+000999999V0201801N005019999999N0200001N1-01021-01461100911ADDAA199000091GF108991001001999999001071KA1999N-02021MD1810071+9999REMSYN070AAXX  01061 22383 32998 81805 11102 21146 40091 58007 80007 333 21202;EQDQ01  00002PRCP99
0112223830999992000040109004+66770+047780FM-12+000999999V0201501N005019999999N0200001N1-00791-01151100791ADDGF108991081999999999001071MD1710121+9999REMSYN060AAXX  01091 22383 42998 81505 11079 21115 40079 57012 88/07;
0155223830999992000040112004+66770+047780FM-12+000999999V0201501N006019999999N0020001N1-00581-01011100511ADDAY181061AY231061GF108991999999004501999999MA1999999100341MD1810271+9999MW1861REMSYN066AAXX  01121 22383 41495 81506 11058 21101 30034 40051 58027 78683;
