0147232560999992000010100004+67470+078730FM-12+000899999V0209999C000012200019N0200001N1-03501-03871999999ADDGA1001+999999999GF100991001001999999001001MA1999999100361MD1710041+9999REMSYN064AAXX  01001 23256 42998 00000 11350 21387 30036 57004 333 93602;
0191232560999992000010103004+67470+078730FM-12+000899999V0200801N001012200019N0200001N1-03521-03871103981ADDAA106000091AJ100339199999999GA1001+999999999GF100991001001999999001001IA1249MD1710041+9999REMSYN070AAXX  01031 23256 32998 00801 11352 21387 40398 57004 333 48033 55000;EQDQ01  00002PRCP06
0197232560999992000010106004+67470+078730FM-12+000899999V0201201N001012200019N0200001N1-03771-04111103941ADDAA106000091GA1001+999999999GF100991001001999999001001KA1120N+99999MD1710051+9999REMSYN070AAXX  01061 23256 32998 01201 11377 21411 40394 57005 333 21368 93602;EQDQ01  00002PRCP06Q02 -03682ATMN  
0122232560999992000010109004+67470+078730FM-12+000899999V0201201N002012200019N0200001N1-04081-04441103921ADDGA1001+999999999GF100991001001999999001001MD1710021+9999REMSYN054AAXX  01091 23256 42998 01202 11408 21444 40392 57002;
0153232560999992000010112004+67470+078730FM-12+000899999V0201101N002012200019N0200001N1-04201-04551103971ADDGA1001+999999999GF100991001001999999001001MA1999999103562MD1210051+9999REMSYN070AAXX  01121 23256 42998 01102 11420 21455 30356 40397 52005 333 93602;
0175232560999992000010115004+67470+078730FM-12+000899999V0201101N002012200019N0200001N1-04181-04491103941ADDAA106000091GA1001+999999999GF100991001001999999001001KA1999M-03521MD1710031+9999REMSYN064AAXX  01151 23256 32998 01102 11418 21449 40394 57003 333 11352;EQDQ01  00002PRCP06
0181232560999992000010118004+67470+078730FM-12+000899999V0201201N003012200019N0200001N1-04231-04551103931ADDAA106000091GA1001+999999999GF100991001001999999001001KA1120M-03521MD1710011+9999REMSYN070AAXX  01181 23256 32998 01203 11423 21455 40393 57001 333 11352 93602;EQDQ01  00002PRCP06
0122232560999992000010121004+67470+078730FM-12+000899999V0201101N002012200019N0200001N1-04321-04681103941ADDGA1001+999999999GF100991001001999999001001MD1410001+9999REMSYN054AAXX  01211 23256 42998 01102 11432 21468 40394 54000;
0153232560999992000010200004+67470+078730FM-12+000899999V0201001N003012200019N0200001N1-04371-04681103981ADDGA1001+999999999GF100991001001999999001001MA1999999103561MD1210041+9999REMSYN070AAXX  02001 23256 42998 01003 11437 21468 30356 40398 52004 333 93602;
0191232560999992000010203004+67470+078730FM-12+000899999V0200901N003012200019N0200001N1-04421-04751103951ADDAA106000091AJ100339199999999GA1001+999999999GF100991001001999999001001IA1249MD1710031+9999REMSYN070AAXX  02031 23256 32998 00903 11442 21475 40395 57003 333 48033 55000;EQDQ01  00002PRCP06
0181232560999992000010206004+67470+078730FM-12+000899999V0201001N002012200019N0200001N1-04451-04751103971ADDAA106000091GA1001+999999999GF100991001001999999001001KA1120N-04421MD1210021+9999REMSYN070AAXX  02061 23256 32998 01002 11445 21475 40397 52002 333 21442 93602;EQDQ01  00002PRCP06
0122232560999992000010209004+67470+078730FM-12+000899999V0200501N001012200019N0200001N1-04421-04751104011ADDGA1001+999999999GF100991001001999999001001MD1210041+9999REMSYN054AAXX  02091 23256 42998 00501 11442 21475 40401 52004;
0153232560999992000010212004+67470+078730FM-12+000899999V0200501N001012200019N0200001N1-04361-04681104051ADDGA1001+999999999GF100991001001999999001001MA1999999103631MD1210041+9999REMSYN070AAXX  02121 23256 42998 00501 11436 21468 30363 40405 52004 333 93602;
0175232560999992000010215004+67470+078730FM-12+000899999V0200501N001012200019N0200001N1-04241-04551104051ADDAA106000091GA1001+999999999GF100991001001999999001001KA1999M-04241MD1210011+9999REMSYN064AAXX  02151 23256 32998 00501 11424 21455 40405 52001 333 11424;EQDQ01  00002PRCP06
0181232560999992000010218004+67470+078730FM-12+000899999V0202901N002012200019N0200001N1-04261-04611104071ADDAA106000091GA1001+999999999GF100991001001999999001001KA1120M-04241MD1210011+9999REMSYN070AAXX  02181 23256 32998 02902 11426 21461 40407 52001 333 11424 93603;EQDQ01  00002PRCP06
0122232560999992000010221004+67470+078730FM-12+000899999V0203101N002012200019N0200001N1-04191-04551104061ADDGA1001+999999999GF100991001001999999001001MD1410001+9999REMSYN054AAXX  02211 23256 42998 03102 11419 21455 40406 54000;
0153232560999992000010300004+67470+078730FM-12+000899999V0202601N001012200019N0200001N1-04011-04331104071ADDGA1001+999999999GF100991001001999999001001MA1999999103661MD1210011+9999REMSYN070AAXX  03001 23256 42998 02601 11401 21433 30366 40407 52001 333 93602;
0209232560999992000010303004+67470+078730FM-12+000899999V0202601N003012200019N0040001N1-04011-04331104091ADDAA106000091AJ100339199999999AY101031AY201031GF103991001001999999001011IA1249MD1210021+9999MW1041REMSYN082AAXX  03031 23256 31996 32603 11401 21433 40409 52002 70400 80001 333 48033 55000;EQDQ01  00002PRCP06
0180232560999992000010306004+67470+078730FM-12+000899999V0202301N002019999999N0020001N1-03791-04151104061ADDAA106000021AY171061AY211061GF108991001001999999001061KA1120N-04331MD1710031+9999MW1711REMSYN082AAXX  03061 23256 31995 82302 11379 21415 40406 57003 77171 80006 333 21433 93602;
0140232560999992000010309004+67470+078730FM-12+000899999V0201501N002019999999N0020001N1-03901-04241104161ADDAY171031AY221031GF105991001001999999001011MD1210101+9999MW1021REMSYN066AAXX  03091 23256 41995 51502 11390 21424 40416 52010 70272 80001;
0181232560999992000010312004+67470+078730FM-12+000899999V0201201N003012200019N0200001N1-04181-04491104261ADDAY171061AY211061GA1001+999999999GF100991001001999999001001MA1999999103851MD1210101+9999MW1041REMSYN076AAXX  03121 23256 41998 01203 11418 21449 30385 40426 52010 70471 333 93602;
0203232560999992000010315004+67470+078730FM-12+000899999V0201201N005012200019N0010001N1-04381-04681104321ADDAA106000091AY101031AY201031GA1001+999999999GF100991001001999999001001KA1999M-03791MD1210051+9999MW1041REMSYN070AAXX  03151 23256 31994 01205 11438 21468 40432 52005 70400 333 11379;EQDQ01  00002PRCP06
0196232560999992000010318004+67470+078730FM-12+000899999V0201201N004012200019N0200001N1-04471-04831104371ADDAA100000791AY101061AY201061GA1001+999999999GF100991001001999999001001KA1120M-03791MD1210051+9999MW1041REMSYN082AAXX  03181 23256 11998 01204 11447 21483 40437 52005 69900 70400 333 11379 93602;
0150232560999992000010321004+67470+078730FM-12+000899999V0201201N003012200019N0010001N1-04471-04831104421ADDAY101031AY201031GA1001+999999999GF100991001001999999001001MD1210051+9999MW1021REMSYN060AAXX  03211 23256 41994 01203 11447 21483 40442 52005 70200;
0181232560999992000010400004+67470+078730FM-12+000899999V0201201N003012200019N0010001N1-04501-04831104561ADDAY101061AY201061GA1001+999999999GF100991001001999999001001MA1999999104141MD1210141+9999MW1041REMSYN076AAXX  04001 23256 41994 01203 11450 21483 30414 40456 52014 70400 333 99602;
0219232560999992000010403004+67470+078730FM-12+000899999V0201101N003012200019N0010001N1-04521-04831104631ADDAA106000091AJ100339199999999AY101031AY201031GA1001+999999999GF100991001001999999001001IA1249MD1210071+9999MW1041REMSYN076AAXX  04031 23256 31994 01103 11452 21483 40463 52007 70400 333 48033 55000;EQDQ01  00002PRCP06
0209232560999992000010406004+67470+078730FM-12+000899999V0201101N003012200019N0020001N1-04501-04831104691ADDAA106000091AY101061AY201061GA1001+999999999GF100991001001999999001001KA1120N-04541MD1210061+9999MW1041REMSYN076AAXX  04061 23256 31995 01103 11450 21483 40469 52006 70400 333 21454 93602;EQDQ01  00002PRCP06
0150232560999992000010409004+67470+078730FM-12+000899999V0201101N003012200019N0020001N1-04471-04831104851ADDAY101031AY201031GA1001+999999999GF100991001001999999001001MD1210161+9999MW1041REMSYN060AAXX  04091 23256 41995 01103 11447 21483 40485 52016 70400;
0181232560999992000010412004+67470+078730FM-12+000899999V0201201N004012200019N0010001N1-04441-04751104931ADDAY101061AY201061GA1001+999999999GF100991001001999999001001MA1999999104511MD1210091+9999MW1041REMSYN076AAXX  04121 23256 41994 01204 11444 21475 30451 40493 52009 70400 333 93602;
0203232560999992000010415004+67470+078730FM-12+000899999V0201101N004012200019N0010001N1-04451-04751104961ADDAA106000091AY101031AY201031GA1001+999999999GF100991001001999999001001KA1999M-04441MD1210031+9999MW1041REMSYN070AAXX  04151 23256 31994 01104 11445 21475 40496 52003 70400 333 11444;EQDQ01  00002PRCP06
0150232560999992000010421004+67470+078730FM-12+000899999V0201201N004012200019N0010001N1-04461-04751105121ADDAY101031AY201031GA1001+999999999GF100991001001999999001001MD1210021+9999MW1041REMSYN060AAXX  04211 23256 41994 01204 11446 21475 40512 52002 70400;
0181232560999992000010500004+67470+078730FM-12+000899999V0201201N002012200019N0010001N1-04481-04831105161ADDAY101061AY201061GA1001+999999999GF100991001001999999001001MA1999999104741MD1210041+9999MW1041REMSYN076AAXX  05001 23256 41994 01202 11448 21483 30474 40516 52004 70400 333 93602;
0219232560999992000010503004+67470+078730FM-12+000899999V0201101N003012200019N0010001N1-04521-04831105171ADDAA106000091AJ100339199999999AY101031AY201031GA1001+999999999GF100991001001999999001001IA1249MD1210011+9999MW1041REMSYN076AAXX  05031 23256 31994 01103 11452 21483 40517 52001 70400 333 48033 55000;EQDQ01  00002PRCP06
0209232560999992000010506004+67470+078730FM-12+000899999V0201301N003012200019N0010001N1-04521-04831105201ADDAA106000091AY101061AY201061GA1001+999999999GF100991001001999999001001KA1120N-04521MD1210031+9999MW1041REMSYN076AAXX  05061 23256 31994 01303 11452 21483 40520 52003 70400 333 21452 93602;EQDQ01  00002PRCP06
0130232560999992000010509004+67470+078730FM-12+000899999V0201301N003012200019N0010001N1-04501-04831105221ADDAY101031AY201031GA1001+999999999GF100991001001999999001001MW1041REMSYN054AAXX  05091 23256 41994 01303 11450 21483 40522 70400;
0181232560999992000010512004+67470+078730FM-12+000899999V0201201N003012200019N0010001N1-04491-04831105221ADDAY101061AY201061GA1001+999999999GF100991001001999999001001MA1999999104801MD1410001+9999MW1041REMSYN076AAXX  05121 23256 41994 01203 11449 21483 30480 40522 54000 70400 333 93602;
0203232560999992000010515004+67470+078730FM-12+000899999V0201101N004012200019N0010001N1-04491-04831105211ADDAA106000091AY101031AY201031GA1001+999999999GF100991001001999999001001KA1999M-04491MD1710011+9999MW1041REMSYN070AAXX  05151 23256 31994 01104 11449 21483 40521 57001 70400 333 11449;EQDQ01  00002PRCP06
0209232560999992000010518004+67470+078730FM-12+000899999V0201201N004012200019N0020001N1-04491-04831105161ADDAA106000091AY101061AY201061GA1001+999999999GF100991001001999999001001KA1120M-04491MD1710051+9999MW1041REMSYN076AAXX  05181 23256 31995 01204 11449 21483 40516 57005 70400 333 11449 93602;EQDQ01  00002PRCP06
0150232560999992000010521004+67470+078730FM-12+000899999V0201201N003012200019N0010001N1-04481-04831105151ADDAY101031AY201031GA1001+999999999GF100991001001999999001001MD1710011+9999MW1041REMSYN060AAXX  05211 23256 41994 01203 11448 21483 40515 57001 70400;
0219232560999992000010603004+67470+078730FM-12+000899999V0201101N005012200019N0020001N1-04521-04831104981ADDAA106000091AJ100339199999999AY101031AY201031GA1001+999999999GF100991001001999999001001IA1249MD1710081+9999MW1041REMSYN076AAXX  06031 23256 31995 01105 11452 21483 40498 57008 70400 333 48033 55000;EQDQ01  00002PRCP06
0209232560999992000010606004+67470+078730FM-12+000899999V0201201N005012200019N0020001N1-04531-04831104911ADDAA106000091AY101061AY201061GA1001+999999999GF100991001001999999001001KA1120N-04521MD1710071+9999MW1041REMSYN076AAXX  06061 23256 31995 01205 11453 21483 40491 57007 70400 333 21452 93602;EQDQ01  00002PRCP06
0122232560999992000010609004+67470+078730FM-12+000899999V0201101N005012200019N0200001N1-04541-04831104861ADDGA1001+999999999GF100991001001999999001001MD1710051+9999REMSYN054AAXX  06091 23256 42998 01105 11454 21483 40486 57005;
0153232560999992000010612004+67470+078730FM-12+000899999V0201101N005012200019N0200001N1-04521-04831104851ADDGA1001+999999999GF100991001001999999001001MA1999999104431MD1710011+9999REMSYN070AAXX  06121 23256 42998 01105 11452 21483 30443 40485 57001 333 93602;
0175232560999992000010615004+67470+078730FM-12+000899999V0201101N005012200019N0200001N1-04491-04831104781ADDAA106000091GA1001+999999999GF100991001001999999001001KA1999M-04491MD1710071+9999REMSYN064AAXX  06151 23256 32998 01105 11449 21483 40478 57007 333 11449;EQDQ01  00002PRCP06
0150232560999992000010621004+67470+078730FM-12+000899999V0201001N004012200019N0200001N1-04441-04751104661ADDAY101031AY201031GA1001+999999999GF100991001001999999001001MD1710041+9999MW1041REMSYN060AAXX  06211 23256 41998 01004 11444 21475 40466 57004 70400;
0181232560999992000010700004+67470+078730FM-12+000899999V0201101N003012200019N0040001N1-04421-04751104601ADDAY101061AY201061GA1001+999999999GF100991001001999999001001MA1999999104181MD1710061+9999MW1071REMSYN076AAXX  07001 23256 41996 01103 11442 21475 30418 40460 57006 70700 333 93602;
0219232560999992000010703004+67470+078730FM-12+000899999V0201001N003012200019N0040001N1-04421-04751104541ADDAA106000091AJ100339199999999AY101031AY201031GA1001+999999999GF100991001001999999001001IA1249MD1710061+9999MW1041REMSYN076AAXX  07031 23256 31996 01003 11442 21475 40454 57006 70400 333 48033 55000;EQDQ01  00002PRCP06
0181232560999992000010706004+67470+078730FM-12+000899999V0201001N005012200019N0200001N1-04361-04681104471ADDAA106000091GA1001+999999999GF100991001001999999001001KA1120N-04521MD1710071+9999REMSYN070AAXX  07061 23256 32998 01005 11436 21468 40447 57007 333 21452 93602;EQDQ01  00002PRCP06
0150232560999992000010709004+67470+078730FM-12+000899999V0201001N003012200019N0040001N1-04321-04681104431ADDAY101031AY201031GA1001+999999999GF100991001001999999001001MD1710041+9999MW1041REMSYN060AAXX  07091 23256 41996 01003 11432 21468 40443 57004 70400;
0181232560999992000010712004+67470+078730FM-12+000899999V0201001N003012200019N0020001N1-04351-04681104321ADDAY101061AY201061GA1001+999999999GF100991001001999999001001MA1999999103901MD1710111+9999MW1041REMSYN076AAXX  07121 23256 41995 01003 11435 21468 30390 40432 57011 70400 333 93602;
0203232560999992000010715004+67470+078730FM-12+000899999V0200801N003012200019N0040001N1-04331-04681104211ADDAA106000091AY101031AY201031GA1001+999999999GF100991001001999999001001KA1999M-04321MD1710111+9999MW1041REMSYN070AAXX  07151 23256 31996 00803 11433 21468 40421 57011 70400 333 11432;EQDQ01  00002PRCP06
0197232560999992000010718004+67470+078730FM-12+000899999V0200901N003012200019N0200001N1-04191-04551104101ADDAA106000091GA1001+999999999GF100991001001999999001001KA1120M+99999MD1710101+9999REMSYN070AAXX  07181 23256 32998 00903 11419 21455 40410 57010 333 11432 93602;EQDQ01  00002PRCP06Q02 -04322ATMX  
0122232560999992000010721004+67470+078730FM-12+000899999V0201001N003012200019N0200001N1-04051-04381104001ADDGA1001+999999999GF100991001001999999001001MD1710101+9999REMSYN054AAXX  07211 23256 42998 01003 11405 21438 40400 57010;
0153232560999992000010800004+67470+078730FM-12+000899999V0200901N002012200019N0200001N1-03971-04291103871ADDGA1001+999999999GF100991001001999999001001MA1999999103471MD1710121+9999REMSYN070AAXX  08001 23256 42998 00902 11397 21429 30347 40387 57012 333 93602;
0191232560999992000010803004+67470+078730FM-12+000899999V0201001N003012200019N0200001N1-03991-04331103721ADDAA106000091AJ100339199999999GA1001+999999999GF100991001001999999001001IA1249MD1710151+9999REMSYN070AAXX  08031 23256 32998 01003 11399 21433 40372 57015 333 48033 55000;EQDQ01  00002PRCP06
0181232560999992000010806004+67470+078730FM-12+000899999V0200901N003012200019N0200001N1-03941-04291103551ADDAA106000091GA1001+999999999GF100991001001999999001001KA1120N-04331MD1710171+9999REMSYN070AAXX  08061 23256 32998 00903 11394 21429 40355 57017 333 21433 93602;EQDQ01  00002PRCP06
0122232560999992000010809004+67470+078730FM-12+000899999V0201001N002012200019N0200001N1-04001-04271103471ADDGA1001+999999999GF100991001001999999001001MD1710081+9999REMSYN054AAXX  08091 23256 42998 01002 11400 21427 40347 57008;
0153232560999992000010812004+67470+078730FM-12+000899999V0201001N002012200019N0200001N1-03991-04331103341ADDGA1001+999999999GF100991001001999999001001MA1999999102941MD1710131+9999REMSYN070AAXX  08121 23256 42998 01002 11399 21433 30294 40334 57013 333 93602;
0175232560999992000010815004+67470+078730FM-12+000899999V0201001N002012200019N0200001N1-04001-04331103221ADDAA106000091GA1001+999999999GF100991001001999999001001KA1999M-03941MD1710121+9999REMSYN064AAXX  08151 23256 32998 01002 11400 21433 40322 57012 333 11394;EQDQ01  00002PRCP06
0209232560999992000010818004+67470+078730FM-12+000899999V0201101N002012200019N0020001N1-03981-04331103141ADDAA106000091AY101061AY201061GA1001+999999999GF100991001001999999001001KA1120M-03941MD1710081+9999MW1041REMSYN076AAXX  08181 23256 31995 01102 11398 21433 40314 57008 70400 333 11394 93602;EQDQ01  00002PRCP06
0181232560999992000010900004+67470+078730FM-12+000899999V0201101N002012200019N0010001N1-04121-04441102971ADDAY101061AY201061GA1001+999999999GF100991001001999999001001MA1999999102571MD1710111+9999MW1041REMSYN076AAXX  09001 23256 41994 01102 11412 21444 30257 40297 57011 70400 333 93602;
0219232560999992000010903004+67470+078730FM-12+000899999V0201101N002012200019N0010001N1-04131-04441102891ADDAA106000091AJ100339199999999AY101031AY201031GA1001+999999999GF100991001001999999001001IA1249MD1710081+9999MW1041REMSYN076AAXX  09031 23256 31994 01102 11413 21444 40289 57008 70400 333 48033 55000;EQDQ01  00002PRCP06
0150232560999992000010909004+67470+078730FM-12+000899999V0201201N002012200019N0005001N1-04201-04551102701ADDAY101031AY201031GA1001+999999999GF100991001001999999001001MD1710081+9999MW1041REMSYN060AAXX  09091 23256 41993 01202 11420 21455 40270 57008 70400;
0181232560999992000010912004+67470+078730FM-12+000899999V0201201N002012200019N0005001N1-04221-04551102591ADDAY101061AY201061GA1001+999999999GF100991001001999999001001MA1999999102191MD1710111+9999MW1041REMSYN076AAXX  09121 23256 41993 01202 11422 21455 30219 40259 57011 70400 333 93602;
0203232560999992000010915004+67470+078730FM-12+000899999V0201201N003012200019N0010001N1-04221-04551102451ADDAA106000091AY101031AY211031GA1001+999999999GF100991001001999999001001KA1999M-04161MD1710141+9999MW1041REMSYN070AAXX  09151 23256 31994 01203 11422 21455 40245 57014 70401 333 11416;EQDQ01  00002PRCP06
0209232560999992000010918004+67470+078730FM-12+000899999V0201101N003012200019N0200001N1-04261-04611102311ADDAA106000091AY101061AY201061GA1001+999999999GF100991001001999999001001KA1120M-04161MD1710151+9999MW1041REMSYN076AAXX  09181 23256 31998 01103 11426 21461 40231 57015 70400 333 11416 93602;EQDQ01  00002PRCP06
0150232560999992000010921004+67470+078730FM-12+000899999V0201201N004012200019N0010001N1-04271-04611102171ADDAY101031AY201031GA1001+999999999GF100991001001999999001001MD1710141+9999MW1041REMSYN060AAXX  09211 23256 41994 01204 11427 21461 40217 57014 70400;
0181232560999992000011000004+67470+078730FM-12+000899999V0201201N005012200019N0010001N1-04371-04681101991ADDAY101061AY201061GA1001+999999999GF100991001001999999001001MA1999999101581MD1710181+9999MW1041REMSYN076AAXX  10001 23256 41994 01205 11437 21468 30158 40199 57018 70400 333 93602;
0219232560999992000011003004+67470+078730FM-12+000899999V0201201N005012200019N0010001N1-04261-04611101911ADDAA106000091AJ100339199999999AY101031AY201031GA1001+999999999GF100991001001999999001001IA1249MD1710081+9999MW1041REMSYN076AAXX  10031 23256 31994 01205 11426 21461 40191 57008 70400 333 48033 55000;EQDQ01  00002PRCP06
0193232560999992000011006004+67470+078730FM-12+000899999V0201201N007012200019N0010001N1-04041-04381101701ADDAA106000091AY101061AY201061GF102991001001999999001011KA1999N-04371MD1710201+9999MW1051REMSYN076AAXX  10061 23256 31994 21207 11404 21438 40170 57020 70500 80001 333 21437;EQDQ01  00002PRCP06
0140232560999992000011009004+67470+078730FM-12+000899999V0201101N007019999999N0010001N1-03901-04241101541ADDAY111031AY211031GF106991001001999999001011MD1710161+9999MW1051REMSYN066AAXX  10091 23256 41994 61107 11390 21424 40154 57016 70511 80001;
0171232560999992000011012004+67470+078730FM-12+000899999V0201101N008019999999N0020001N1-03791-04151101391ADDAY111061AY211061GF108991001001999999001061MA1999999100991MD1710151+9999MW1711REMSYN082AAXX  10121 23256 41995 81108 11379 21415 30099 40139 57015 77111 80006 333 92993;
0163232560999992000011015004+67470+078730FM-12+000899999V0201201N008019999999N0040001N1-03781-04111101251ADDAY171031AY231031GF107991001001999999001011KA1999M-03781MD1710141+9999MW1051REMSYN076AAXX  10151 23256 /1996 71208 11378 21411 40125 57014 70573 80001 333 11378;
0186232560999992000011018004+67470+078730FM-12+000899999V0201101N007019999999N0040001N1-03751-04111101181ADDAA100000391AY171061AY231061GF106991001001999999001011KA1120M-03781MD1710071+9999MW1051REMSYN088AAXX  10181 23256 11996 61107 11375 21411 40118 57007 69930 70573 80001 333 11378 92990;
0106232560999992000011021004+67470+078730FM-12+000899999V0201201N006019999999N0200001N1-03651-04001101091ADDGF106991999999999999999999MD1710081+9999REMSYN054AAXX  10211 23256 42998 61206 11365 21400 40109 57008;
0161232560999992000011100004+67470+078730FM-12+000899999V0201201N006019999999N0040001N1-03481-03841101021ADDAY171061AY221061GF108991001001999999001061MA1999999100631MD1710071+9999MW1711REMSYN072AAXX  11001 23256 41996 81206 11348 21384 30063 40102 57007 77172 80006;
0179232560999992000011103004+67470+078730FM-12+000899999V0201201N006019999999N0040001N1-03361-03721100901ADDAJ100339199999999AY171031AY221031GF108991081001999999071999IA1249MD1710121+9999MW1711REMSYN082AAXX  11031 23256 /1996 81206 11336 21372 40090 57012 77172 8807/ 333 48033 55000;
0180232560999992000011106004+67470+078730FM-12+000899999V0201101N005019999999N0100001N1-03261-03611100831ADDAA100000591AY171061AY231061GF108991051001999999031061KA1999N-03781MD1710061+9999MW1711REMSYN082AAXX  11061 23256 11997 81105 11326 21361 40083 57006 69960 77173 85036 333 21378;
0140232560999992000011109004+67470+078730FM-12+000899999V0201001N005019999999N0100001N1-03221-03591100761ADDAY171031AY221031GF108991051001999999031061MD1710071+9999MW1711REMSYN066AAXX  11091 23256 41997 81005 11322 21359 40076 57007 77172 85036;
0161232560999992000011112004+67470+078730FM-12+000899999V0201001N005019999999N0040001N1-03131-03501100701ADDAY171061AY221061GF108991001001999999001061MA1999999100321MD1710061+9999MW1711REMSYN072AAXX  11121 23256 41996 81005 11313 21350 30032 40070 57006 77172 80006;
0163232560999992000011115004+67470+078730FM-12+000899999V0200801N003019999999N0040001N1-03091-03451100661ADDAY171031AY221031GF108991001001999999001061KA1999M-03091MD1710041+9999MW1711REMSYN076AAXX  11151 23256 /1996 80803 11309 21345 40066 57004 77172 80006 333 11309;
0199232560999992000011118004+67470+078730FM-12+000899999V0200801N003019999999N0200001N1-03031-03411100551ADDAA100001091AY171061AY221061GF108991001001999999001061KA1999M+99999MD1710111+9999MW1711REMSYN082AAXX  11181 23256 11998 80803 11303 21341 40055 57011 60010 77172 80006 333 11309;EQDQ01 -03092ATMX  
0140232560999992000011121004+67470+078730FM-12+000899999V0200501N002019999999N0200001N1-02991-03371100481ADDAY171031AY221031GF108991001001999999001061MD1710071+9999MW1711REMSYN066AAXX  11211 23256 41998 80502 11299 21337 40048 57007 77172 80006;
0161232560999992000011200004+67470+078730FM-12+000899999V0200301N002019999999N0040001N1-02861-03241100501ADDAY171061AY221061GF108991001001999999001061MA1999999100121MD1210021+9999MW1711REMSYN072AAXX  12001 23256 41996 80302 11286 21324 30012 40050 52002 77172 80006;
0209232560999992000011203004+67470+078730FM-12+000899999V0203201N004010042019N0200001N1-02811-03111100431ADDAJ100339199999999AY171031AY221031GA1051+004209059GF108991051051004501001061GJ100009IA1249MD1710071+9999MW1711REMSYN088AAXX  12031 23256 /1498 83204 11281 21311 40043 57007 77172 85506 333 48033 55000 85614;
0202232560999992000011206004+67470+078730FM-12+000899999V0203001N004010033019N0100001N1-02831-03131100441ADDAA100000891AY171061AY221061GA1051+003309059GF108991051051004501001061KA1120N-03091MD1210011+9999MW1711REMSYN088AAXX  12061 23256 11497 83004 11283 21313 40044 52001 69970 77172 85506 333 21309 85611;
0140232560999992000011209004+67470+078730FM-12+000899999V0203101N004019999999N0100001N1-03061-03361100491ADDAY171031AY221031GF108991001001999999001061MD1210051+9999MW1711REMSYN066AAXX  12091 23256 41997 83104 11306 21336 40049 52005 77172 80006;
0161232560999992000011212004+67470+078730FM-12+000899999V0203401N005019999999N0200001N1-03341-03621100581ADDAY171061AY221061GF108991001001999999001061MA1999999100201MD1210091+9999MW1021REMSYN072AAXX  12121 23256 41998 83405 11334 21362 30020 40058 52009 70272 80006;
0163232560999992000011215004+67470+078730FM-12+000899999V0203301N005019999999N0200001N1-03381-03681100641ADDAY171031AY221031GF108991051001999999031061KA1999M-02801MD1210061+9999MW1711REMSYN076AAXX  12151 23256 /1998 83305 11338 21368 40064 52006 77172 85036 333 11280;
0140232560999992000011221004+67470+078730FM-12+000899999V0202901N006019999999N0200001N1-03221-03521100741ADDAY171031AY221031GF108991001001999999001061MD1210021+9999MW1711REMSYN066AAXX  12211 23256 41998 82906 11322 21352 40074 52002 77172 80006;
0161232560999992000011300004+67470+078730FM-12+000899999V0203001N005019999999N0200001N1-03301-03601100751ADDAY171061AY231061GF108991001001999999001061MA1999999100371MD1210011+9999MW1711REMSYN072AAXX  13001 23256 41998 83005 11330 21360 30037 40075 52001 77173 80006;
0199232560999992000011306004+67470+078730FM-12+000899999V0202801N005012200019N0040001N1-03731-04071100871ADDAA112000891AY171061AY231061GF103991001001999999001011KA1999N+99999MD1210141+9999MW1051REMSYN082AAXX  13061 23256 11996 32805 11373 21407 40087 52014 69982 70573 80001 333 21358;EQDQ01 -03582ATMN  
0112232560999992000011309004+67470+078730FM-12+000899999V0202701N006012200019N0100001N1-03601-03971100861ADDGF102991001001999999001011MD1710011+9999REMSYN060AAXX  13091 23256 42997 22706 11360 21397 40086 57001 80001;
0133232560999992000011312004+67470+078730FM-12+000899999V0202801N006012200019N0200001N1-03671-04041100991ADDGF103991001001999999001011MA1999999100601MD1210121+9999REMSYN066AAXX  13121 23256 42998 32806 11367 21404 30060 40099 52012 80001;
0145232560999992000011315004+67470+078730FM-12+000899999V0202701N006012200019N0200001N1-03821-04151101071ADDGA1001+999999999GF100991001001999999001001KA1999M-03601MD1210071+9999REMSYN064AAXX  13151 23256 /2998 02706 11382 21415 40107 52007 333 11360;
0162232560999992000011318004+67470+078730FM-12+000899999V0202501N005012200019N0200001N1-03871-04201101071ADDAA100000191GA1001+999999999GF100991001001999999001001KA1999M-03601MD1410001+9999REMSYN070AAXX  13181 23256 12998 02505 11387 21420 40107 54000 69920 333 11360;
0126232560999992000011321004+67470+078730FM-12+000899999V0202501N005012200019N0200001N1-03841-04201101141ADDGA1001+999999999GF100991001001999999001001MD1210071+9999REMSYN058    AAXX  13211 23256 42998 02505 11384 21420 40114 52007;
0147232560999992000011400004+67470+078730FM-12+000899999V0202401N006012200019N0200001N1-03881-04241101151ADDGA1001+999999999GF100991001001999999001001MA1999999100751MD1210011+9999REMSYN064    AAXX  14001 23256 42998 02406 11388 21424 30075 40115 52001;
0223232560999992000011403004+67470+078730FM-12+000899999V0202301N005012200019N0040001N1-04001-04331101161ADDAA199000091AJ100349199999999AY101031AY201031GA1001+999999999GF100991001001999999001001IA1249MD1210011+9999MW1041REMSYN080    AAXX  14031 23256 31996 02305 11400 21433 40116 52001 70400 333 48034 55000;EQDQ01  00002PRCP99
0207232560999992000011406004+67470+078730FM-12+000899999V0202201N005012200019N0020001N1-04021-04331101241ADDAA199000091AY101061AY201061GA1001+999999999GF100991001001999999001001KA1999N-04001MD1210081+9999MW1041REMSYN074    AAXX  14061 23256 31995 02205 11402 21433 40124 52008 70400 333 21400;EQDQ01  00002PRCP99
0154232560999992000011409004+67470+078730FM-12+000899999V0202301N002012200019N0020001N1-04011-04331101261ADDAY101031AY201031GA1001+999999999GF100991001001999999001001MD1210021+9999MW1041REMSYN064    AAXX  14091 23256 41995 02302 11401 21433 40126 52002 70400;
0175232560999992000011412004+67470+078730FM-12+000899999V0201501N002012200019N0002001N1-04141-04491101311ADDAY101061AY201061GA1001+999999999GF100991001001999999001001MA1999999100911MD1210051+9999MW1041REMSYN070    AAXX  14121 23256 41992 01502 11414 21449 30091 40131 52005 70400;
0207232560999992000011415004+67470+078730FM-12+000899999V0201001N002012200019N0020001N1-04261-04611101391ADDAA199000091AY101031AY201031GA1001+999999999GF100991001001999999001001KA1999M-04011MD1210071+9999MW1041REMSYN074    AAXX  14151 23256 31995 01002 11426 21461 40139 52007 70400 333 11401;EQDQ01  00002PRCP99
0207232560999992000011418004+67470+078730FM-12+000899999V0200401N001012200019N0020001N1-04321-04681101421ADDAA199000091AY101061AY201061GA1001+999999999GF100991001001999999001001KA1999M-04011MD1210031+9999MW1041REMSYN074    AAXX  14181 23256 31995 00401 11432 21468 40142 52003 70400 333 11401;EQDQ01  00002PRCP99
0154232560999992000011421004+67470+078730FM-12+000899999V0201101N002012200019N0020001N1-04221-04551101421ADDAY101031AY201031GA1001+999999999GF100991001001999999001001MD1210011+9999MW1041REMSYN064    AAXX  14211 23256 41995 01102 11422 21455 40142 52001 70400;
0175232560999992000011500004+67470+078730FM-12+000899999V0203401N002012200019N0020001N1-04181-04561101441ADDAY101061AY201061GA1001+999999999GF100991001001999999001001MA1999999101041MD1210021+9999MW1041REMSYN070    AAXX  15001 23256 41995 03402 11418 21456 30104 40144 52002 70400;
0223232560999992000011503004+67470+078730FM-12+000899999V0203301N002012200019N0020001N1-04121-04511101521ADDAA199000091AJ100349199999999AY101031AY201031GA1001+999999999GF100991001001999999001001IA1249MD1210081+9999MW1041REMSYN080    AAXX  15031 23256 31995 03302 11412 21451 40152 52008 70400 333 48034 55000;EQDQ01  00002PRCP99
0207232560999992000011506004+67470+078730FM-12+000899999V0203201N001012200019N0020001N1-04071-04451101511ADDAA199000091AY101061AY201061GA1001+999999999GF100991001001999999001001KA1999N-04331MD1710011+9999MW1041REMSYN074    AAXX  15061 23256 31995 03201 11407 21445 40151 57001 70400 333 21433;EQDQ01  00002PRCP99
0154232560999992000011509004+67470+078730FM-12+000899999V0203401N002012200019N0020001N1-04031-04381101531ADDAY101031AY201031GA1001+999999999GF100991001001999999001001MD1210021+9999MW1041REMSYN064    AAXX  15091 23256 41995 03402 11403 21438 40153 52002 70400;
0175232560999992000011512004+67470+078730FM-12+000899999V0203101N002012200019N0020001N1-04271-04611101651ADDAY101061AY201061GA1001+999999999GF100991001001999999001001MA1999999101241MD1210111+9999MW1041REMSYN070    AAXX  15121 23256 41995 03102 11427 21461 30124 40165 52011 70400;
0207232560999992000011515004+67470+078730FM-12+000899999V0203001N002012200019N0040001N1-04261-04511101701ADDAA199000091AY101031AY201031GA1001+999999999GF100991001001999999001001KA1999M-04031MD1210051+9999MW1041REMSYN074    AAXX  15151 23256 31996 03002 11426 21451 40170 52005 70400 333 11403;EQDQ01  00002PRCP99
0207232560999992000011518004+67470+078730FM-12+000899999V0202901N003012200019N0040001N1-04321-04681101701ADDAA199000091AY101061AY201061GA1001+999999999GF100991001001999999001001KA1999M-04031MD1410001+9999MW1041REMSYN074    AAXX  15181 23256 31996 02903 11432 21468 40170 54000 70400 333 11403;EQDQ01  00002PRCP99
0154232560999992000011521004+67470+078730FM-12+000899999V0202901N002012200019N0040001N1-04301-04611101701ADDAY101031AY201031GA1001+999999999GF100991001001999999001001MD1410001+9999MW1041REMSYN064    AAXX  15211 23256 41996 02902 11430 21461 40170 54000 70400;
0175232560999992000011600004+67470+078730FM-12+000899999V0202701N002012200019N0040001N1-04301-04681101761ADDAY101061AY201061GA1001+999999999GF100991001001999999001001MA1999999101351MD1210061+9999MW1041REMSYN070    AAXX  16001 23256 41996 02702 11430 21468 30135 40176 52006 70400;
0223232560999992000011603004+67470+078730FM-12+000899999V0201501N001012200019N0010001N1-03981-04411101761ADDAA199000091AJ100349199999999AY101031AY201031GA1001+999999999GF100991001001999999001001IA1249MD1210011+9999MW1041REMSYN080    AAXX  16031 23256 31994 01501 11398 21441 40176 52001 70400 333 48034 55000;EQDQ01  00002PRCP99
0207232560999992000011606004+67470+078730FM-12+000899999V0201601N001012200019N0005001N1-03931-04291101741ADDAA199000091AY101061AY201061GA1001+999999999GF100991001001999999001001KA1999N-04431MD1710021+9999MW1041REMSYN074    AAXX  16061 23256 31993 01601 11393 21429 40174 57002 70400 333 21443;EQDQ01  00002PRCP99
0154232560999992000011609004+67470+078730FM-12+000899999V0201701N002012200019N0002001N1-04011-04331101721ADDAY101031AY201031GA1001+999999999GF100991001001999999001001MD1710021+9999MW1041REMSYN064    AAXX  16091 23256 41992 01702 11401 21433 40172 57002 70400;
0175232560999992000011612004+67470+078730FM-12+000899999V0201401N004012200019N0002001N1-03981-04331101671ADDAY101061AY201061GA1001+999999999GF100991001001999999001001MA1999999101271MD1710051+9999MW1041REMSYN070    AAXX  16121 23256 41992 01404 11398 21433 30127 40167 57005 70400;
0207232560999992000011615004+67470+078730FM-12+000899999V0201401N005012200019N0010001N1-03831-04151101641ADDAA199000091AY101031AY201031GA1001+999999999GF100991001001999999001001KA1999M-03831MD1710031+9999MW1041REMSYN074    AAXX  16151 23256 31994 01405 11383 21415 40164 57003 70400 333 11383;EQDQ01  00002PRCP99
0195232560999992000011618004+67470+078730FM-12+000899999V0201401N006012200019N0200001N1-03611-03971101541ADDAA199000091GA1001+999999999GF100991001001999999001001KA1999M+99999MD1710091+9999REMSYN068    AAXX  16181 23256 32998 01406 11361 21397 40154 57009 333 11383;EQDQ01  00002PRCP99Q02 -03832ATMX  
0126232560999992000011621004+67470+078730FM-12+000899999V0201601N006012200019N0200001N1-03201-03571101391ADDGA1001+999999999GF100991001001999999001001MD1710141+9999REMSYN058    AAXX  16211 23256 42998 01606 11320 21357 40139 57014;
0147232560999992000011700004+67470+078730FM-12+000899999V0201401N005012200019N0200001N1-02971-03351101341ADDGA1001+999999999GF100991001001999999001001MA1999999100961MD1710051+9999REMSYN064    AAXX  17001 23256 42998 01405 11297 21335 30096 40134 57005;
0185232560999992000011703004+67470+078730FM-12+000899999V0201401N007019999999N0200001N1-02811-03111101191ADDAA199000091AJ100349199999999GF108991081001999999071999IA1249MD1710151+9999REMSYN080    AAXX  17031 23256 32998 81407 11281 21311 40119 57015 8807/ 333 48034 55000;EQDQ01  00002PRCP99
0169232560999992000011706004+67470+078730FM-12+000899999V0201401N008019999999N0200001N1-02761-03061101091ADDAA199000091GF108991081001999999071999KA1999N-03831MD1710101+9999REMSYN074    AAXX  17061 23256 32998 81408 11276 21306 40109 57010 8807/ 333 21383;EQDQ01  00002PRCP99
0144232560999992000011709004+67470+078730FM-12+000899999V0201401N007019999999N0040001N1-02821-03131101061ADDAY171031AY221031GF108991081001999999071999MD1710031+9999MW1711REMSYN070    AAXX  17091 23256 41996 81407 11282 21313 40106 57003 77172 8807/;
0165232560999992000011712004+67470+078730FM-12+000899999V0201301N008019999999N0200001N1-02941-03241101041ADDAY171061AY231061GF106991031001999999031011MA1999999100661MD1710021+9999MW1361REMSYN076    AAXX  17121 23256 41998 61308 11294 21324 30066 40104 57002 73673 83031;
0167232560999992000011715004+67470+078730FM-12+000899999V0201201N006019999999N0040001N1-02901-03201101021ADDAY171031AY231031GF108991081001999999071999KA1999M-02721MD1710021+9999MW1711REMSYN080    AAXX  17151 23256 /1996 81206 11290 21320 40102 57002 77173 8807/ 333 11272;
0184232560999992000011718004+67470+078730FM-12+000899999V0201401N006019999999N0200001N1-02791-03091100941ADDAA100000591AY171061AY231061GF108991081001999999071999KA1999M-02721MD1710081+9999MW1711REMSYN086    AAXX  17181 23256 11998 81406 11279 21309 40094 57008 69940 77173 8807/ 333 11272;
0144232560999992000011721004+67470+078730FM-12+000899999V0201401N005019999999N0200001N1-02781-03091100881ADDAY171031AY221031GF108991041001999999031061MD1710061+9999MW1021REMSYN070    AAXX  17211 23256 41998 81405 11278 21309 40088 57006 70272 84036;
0165232560999992000011800004+67470+078730FM-12+000899999V0201501N006019999999N0200001N1-02721-03031100821ADDAY171061AY221061GF108991081001999999071999MA1999999100451MD1710051+9999MW1711REMSYN076    AAXX  18001 23256 41998 81506 11272 21303 30045 40082 57005 77172 8807/;
0183232560999992000011803004+67470+078730FM-12+000899999V0201401N005019999999N0200001N1-02641-02951100791ADDAJ100379199999999AY171031AY231031GF108991051001999999031061IA1249MD1710031+9999MW1711REMSYN086    AAXX  18031 23256 /1998 81405 11264 21295 40079 57003 77173 85036 333 48037 55000;
0184232560999992000011806004+67470+078730FM-12+000899999V0201401N005019999999N0100001N1-02571-02881100781ADDAA100000591AY171061AY231061GF108991081001999999071999KA1999N-02901MD1710011+9999MW1711REMSYN086    AAXX  18061 23256 11997 81405 11257 21288 40078 57001 69960 77173 8807/ 333 21290;
0144232560999992000011809004+67470+078730FM-12+000899999V0201401N005019999999N0100001N1-02571-02881100801ADDAY171031AY221031GF108991001001999999001061MD1210021+9999MW1711REMSYN070    AAXX  18091 23256 41997 81405 11257 21288 40080 52002 77172 80006;
0165232560999992000011812004+67470+078730FM-12+000899999V0201401N003019999999N0200001N1-02521-02841100881ADDAY171061AY221061GF108991081001999999071999MA1999999100511MD1210081+9999MW1711REMSYN076    AAXX  18121 23256 41998 81403 11252 21284 30051 40088 52008 77172 8807/;
0167232560999992000011815004+67470+078730FM-12+000899999V0201401N003019999999N0200001N1-02301-02631100901ADDAY171031AY221031GF108991081001999999071999KA1999M-02301MD1210021+9999MW1711REMSYN080    AAXX  18151 23256 /1998 81403 11230 21263 40090 52002 77172 8807/ 333 11230;
0184232560999992000011818004+67470+078730FM-12+000899999V0201401N004019999999N0200001N1-02351-02671100951ADDAA100000891AY171061AY221061GF108991081001999999071999KA1999M-02301MD1210051+9999MW1711REMSYN086    AAXX  18181 23256 11998 81404 11235 21267 40095 52005 69970 77172 8807/ 333 11230;
0170232560999992000011821004+67470+078730FM-12+000899999V0201501N003010300019N0200001N1-02201-02521101051ADDAY171031AY221031GA1041+004809059GF108991041051004501071999MD1210101+9999MW1711REMSYN080    AAXX  18211 23256 41498 81503 11220 21252 40105 52010 77172 8457/ 333 84616;
0165232560999992000011900004+67470+078730FM-12+000899999V0201301N003010012019N0200001N1-02131-02461101051ADDAY171061AY221061GF108991081051001501999999MA1999999100681MD1410001+9999MW1711REMSYN076    AAXX  19001 23256 41298 81303 11213 21246 30068 40105 54000 77172 885//;
0183232560999992000011903004+67470+078730FM-12+000899999V0201401N004019999999N0020001N1-02121-02441101091ADDAJ100409199999999AY171031AY221031GF108991081001999999071999IA1249MD1210041+9999MW1711REMSYN086    AAXX  19031 23256 /1995 81404 11212 21244 40109 52004 77172 8807/ 333 48040 55000;
0184232560999992000011906004+67470+078730FM-12+000899999V0201301N003019999999N0200001N1-02271-02591101141ADDAA100000891AY171061AY221061GF106991031001999999031011KA1999N-02411MD1210051+9999MW1221REMSYN086    AAXX  19061 23256 11998 61303 11227 21259 40114 52005 69970 72272 83031 333 21241;
0144232560999992000011909004+67470+078730FM-12+000899999V0201401N005019999999N0100001N1-02301-02631101221ADDAY171031AY221031GF108991051001999999031061MD1210081+9999MW1711REMSYN070    AAXX  19091 23256 41997 81405 11230 21263 40122 52008 77172 85036;
0165232560999992000011912004+67470+078730FM-12+000899999V0201401N005019999999N0040001N1-02301-02631101291ADDAY171061AY221061GF108991031001999999031061MA1999999100921MD1210071+9999MW1711REMSYN076    AAXX  19121 23256 41996 81405 11230 21263 30092 40129 52007 77172 83036;
0163232560999992000011915004+67470+078730FM-12+000899999V0201501N005019999999N0040001N1-02241-02561101381ADDAY171031AY221031GF108991041001999999031061KA1999M-02101MD1210091+9999MW1711REMSYN076AAXX  19151 23256 /1996 81505 11224 21256 40138 52009 77172 84036 333 11210;
0180232560999992000011918004+67470+078730FM-12+000899999V0201301N004019999999N0200001N1-02161-02481101441ADDAA100001091AY171061AY221061GF108991001001999999001061KA1999M-02101MD1210061+9999MW1221REMSYN082AAXX  19181 23256 11998 81304 11216 21248 40144 52006 60010 72272 80006 333 11210;
0140232560999992000011921004+67470+078730FM-12+000899999V0201301N005019999999N0200001N1-02221-02541101491ADDAY171031AY221031GF108991001001999999001061MD1210051+9999MW1711REMSYN066AAXX  19211 23256 41998 81305 11222 21254 40149 52005 77172 80006;
0203232560999992000012000004+67470+078730FM-12+000899999V0201501N009019999999N0200001N1-01221-01422101861ADDAA100000191AY171061AY231061GF108991041001999999031061KA1120N-01901MD1710081+9999MW1711OA140101201REMSYN094AAXX  10601 23256 11998 81509 11122 21142 40186 57008 69920 77173 84036 333 21190 91012 91113;
0179232560999992000012003004+67470+078730FM-12+000899999V0201301N004019999999N0200001N1-02161-02481101611ADDAJ100409199999999AY171031AY221031GF108991081001999999071999IA1249MD1210071+9999MW1711REMSYN082AAXX  20031 23256 /1998 81304 11216 21248 40161 52007 77172 8807/ 333 48040 55000;
0161232560999992000012012004+67470+078730FM-12+000899999V0201401N005019999999N0040001N1-02081-02411101921ADDAY171061AY221061GF108991081001999999071999MA1999999101551MD1210131+9999MW1711REMSYN072AAXX  20121 23256 41996 81405 11208 21241 30155 40192 52013 77172 8807/;
0163232560999992000012015004+67470+078730FM-12+000899999V0201401N007019999999N0040001N1-01901-02231101891ADDAY171031AY231031GF108991081001999999071999KA1999M-01901MD1710031+9999MW1711REMSYN076AAXX  20151 23256 /1996 81407 11190 21223 40189 57003 77173 8807/ 333 11190;
0199232560999992000012018004+67470+078730FM-12+000899999V0201501N007019999999N0200001N1-01601-01941101881ADDAA100000591AY171061AY231061GF108991081001999999071999KA1999M+99999MD1410001+9999MW1711REMSYN082AAXX  20181 23256 11998 81507 11160 21194 40188 54000 69950 77173 8807/ 333 11190;EQDQ01 -01902ATMX  
0140232560999992000012021004+67470+078730FM-12+000899999V0201501N006019999999N0200001N1-01461-01731101931ADDAY171031AY231031GF108991051001999999031061MD1210051+9999MW1221REMSYN066AAXX  20211 23256 41998 81506 11146 21173 40193 52005 72273 85036;
0161232560999992000012100004+67470+078730FM-12+000899999V0201401N007019999999N0200001N1-01281-01551101961ADDAY171061AY231061GF108991001001999999001061MA1999999101601MD1210031+9999MW1361REMSYN072AAXX  21001 23256 41998 81407 11128 21155 30160 40196 52003 73673 80006;
0179232560999992000012103004+67470+078730FM-12+000899999V0201601N008019999999N0200001N1-01261-01461101941ADDAJ100429199999999AY131031AY221031GF108991001001999999001061IA1249MD1710011+9999MW1021REMSYN082AAXX  21031 23256 /1998 81608 11126 21146 40194 57001 70232 80006 333 48042 55000;
0140232560999992000012109004+67470+078730FM-12+000899999V0201601N009019999999N0200001N1-01151-01431101901ADDAY171031AY221031GF107991041001999999031011MD1210041+9999MW1021REMSYN066AAXX  21091 23256 41998 71609 11115 21143 40190 52004 70272 84031;
0188232560999992000012112004+67470+078730FM-12+000899999V0201401N009019999999N0200001N1-01211-01481101981ADDAY171061AY221061GF107991051001999999031011MA1999999101631MD1210081+9999MW1021OA140101101REMSYN088AAXX  21121 23256 41998 71409 11121 21148 30163 40198 52008 70272 85031 333 91011 91112;
0163232560999992000012115004+67470+078730FM-12+000899999V0201501N010019999999N0200001N1-01211-01561101991ADDAY131031AY221031GF106991031001999999031011KA1999M-01131MD1210011+9999MW1361REMSYN076AAXX  21151 23256 /1998 61510 11121 21156 40199 52001 73632 83031 333 11113;
0222232560999992000012118004+67470+078730FM-12+000899999V0201801N011019999999N0200001N1-01061-01341102021ADDAA100000791AY171061AY231061GF108991001001999999001061KA1120M+99999MD1210031+9999MW1711OA140101401REMSYN094AAXX  21181 23256 11998 81811 11106 21134 40202 52003 69900 77173 80006 333 11113 91014 91114;EQDQ01 -01132ATMX  
0140232560999992000012121004+67470+078730FM-12+000899999V0201801N011019999999N0200001N1-01151-01431102181ADDAY171031AY231031GF108991001001999999001061MD1210161+9999MW1711REMSYN066AAXX  21211 23256 41998 81811 11115 21143 40218 52016 77173 80006;
0188232560999992000012200004+67470+078730FM-12+000899999V0201701N009019999999N0200001N1-01271-01541102351ADDAY171061AY231061GF108991001001999999001061MA1999999101991MD1210161+9999MW1711OA140101201REMSYN088AAXX  22001 23256 41998 81709 11127 21154 30199 40235 52016 77173 80006 333 91012 91114;
0179232560999992000012203004+67470+078730FM-12+000899999V0201601N009019999999N0200001N1-01211-01481102511ADDAJ100429199999999AY171031AY231031GF108991041001999999031061IA1249MD1210171+9999MW1361REMSYN082AAXX  22031 23256 /1998 81609 11121 21148 40251 52017 73673 84036 333 48042 55000;
0203232560999992000012206004+67470+078730FM-12+000899999V0201601N009019999999N0200001N1-01131-01411102441ADDAA100000791AY171061AY231061GF108991081001999999071999KA1120N-01321MD1710071+9999MW1021OA140101201REMSYN094AAXX  22061 23256 11998 81609 11113 21141 40244 57007 69900 70273 8807/ 333 21132 91012 91113;
0140232560999992000012209004+67470+078730FM-12+000899999V0201501N010019999999N0200001N1-01011-01371102351ADDAY131031AY221031GF108991081001999999071999MD1710091+9999MW1361REMSYN066AAXX  22091 23256 41998 81510 11101 21137 40235 57009 73632 8807/;
0188232560999992000012212004+67470+078730FM-12+000899999V0201601N011019999999N0028001N1-00971-01331102071ADDAY131061AY221061GF108991081001999999071999MA1999999101721MD1710281+9999MW1361OA140101401REMSYN088AAXX  22121 23256 41928 81611 11097 21133 30172 40207 57028 73632 8807/ 333 91014 91117;
0193232560999992000012215004+67470+078730FM-12+000899999V0201801N014019999999N0200001N1-00911-01251102011ADDAA199000091AY131031AY221031GF108991081001999999071999KA1999M-00901MD1710061+9999MW1361REMSYN076AAXX  22151 23256 31998 81814 11091 21125 40201 57006 73632 8807/ 333 1109/;EQDQ01  00002PRCP99
0219232560999992000012218004+67470+078730FM-12+000899999V0201801N012010015019N0020001N1-00931-01231102201ADDAA199000021AY171061AY231061GA1051+001509079GF108991081051001501999999KA1120M-00911MD1210191+9999MW1711OA140101501REMSYN094AAXX  22181 23256 31295 81812 11093 21123 40220 52019 77173 885// 333 11091 85705 91015 91118;
0166232560999992000012221004+67470+078730FM-12+000899999V0201801N010010018019N0010001N1-01011-01291102371ADDAY171031AY231031GA1051+001809069GF108991081051001501999999MD1210171+9999MW1731REMSYN076AAXX  22211 23256 41294 81810 11101 21129 40237 52017 77373 885// 333 85706;
0227232560999992000012300004+67470+078730FM-12+000899999V0201701N009010018019N0020001N1-01011-01291102291ADDAY171061AY231061GA1051+001809079GF108991081051001501999999MA1999999101941MD1710081+9999MW1731OA140101201OA249901401REMSYN100AAXX  23001 23256 41295 81709 11101 21129 30194 40229 57008 77373 885// 333 85706 91012 91114 9299/;
0242232560999992000012306004+67470+078730FM-12+000899999V0201801N009010021019N0100001N1-00971-01331102261ADDAA100003091AY171061AY231061GA1051+002109079GF108991081051002501999999KA1120N-01011MD1410001+9999MW1711OA140101201OA249901301REMSYN106AAXX  23061 23256 11397 81809 11097 21133 40226 54000 60030 77173 885// 333 21101 85707 91012 91113 92990;
0166232560999992000012309004+67470+078730FM-12+000899999V0201901N008010030019N0040001N1-00921-01221102481ADDAY171031AY231031GA1051+003009069GF108991081051004501999999MD1210221+9999MW1711REMSYN076AAXX  23091 23256 41496 81908 11092 21122 40248 52022 77173 885// 333 85710;
0187232560999992000012312004+67470+078730FM-12+000899999V0201801N007010099019N0200001N1-01071-01511102611ADDAY171061AY231061GA1051+009909059GF108991051051012501071999MA1999999102261MD1210131+9999MW1711REMSYN082AAXX  23121 23256 41698 81807 11107 21151 30226 40261 52013 77173 8557/ 333 85633;
0163232560999992000012315004+67470+078730FM-12+000899999V0201801N007019999999N0200001N1-01191-01631102621ADDAY171031AY231031GF108991081001999999071999KA1999M-00921MD1210011+9999MW1361REMSYN076AAXX  23151 23256 /1998 81807 11119 21163 40262 52001 73673 8807/ 333 11092;
0180232560999992000012318004+67470+078730FM-12+000899999V0201701N006019999999N0200001N1-01211-01731102641ADDAA100002091AY171061AY231061GF107991071001999999031001KA1999M-00921MD1210021+9999MW1021REMSYN082AAXX  23181 23256 11998 71706 11121 21173 40264 52002 60020 70273 87030 333 11092;
0112232560999992000012321004+67470+078730FM-12+000899999V0201501N004019999999N0200001N1-01311-01831102631ADDGF106991061001999999031001MD1710021+9999REMSYN060AAXX  23211 23256 42998 61504 11131 21183 40263 57002 86030;
0133232560999992000012400004+67470+078730FM-12+000899999V0201301N004019999999N0200001N1-01621-02121102551ADDGF106991061001999999031001MA1999999102191MD1710081+9999REMSYN066AAXX  24001 23256 42998 61304 11162 21212 30219 40255 57008 86030;
0181232560999992000012403004+67470+078730FM-12+000899999V0201401N005012200019N0200001N1-01901-02391102471ADDAA199000091AJ100409199999999GF102991021001999999031001IA1249MD1710091+9999REMSYN076AAXX  24031 23256 32998 21405 11190 21239 40247 57009 82030 333 48040 55000;EQDQ01  00002PRCP99
0165232560999992000012406004+67470+078730FM-12+000899999V0201601N006019999999N0200001N1-01921-02411102391ADDAA199000091GF106991021001999999031011KA1999N-01901MD1710081+9999REMSYN070AAXX  24061 23256 32998 61606 11192 21241 40239 57008 82031 333 21190;EQDQ01  00002PRCP99
0112232560999992000012409004+67470+078730FM-12+000899999V0201501N006019999999N0200001N1-01941-02431102341ADDGF105991001001999999001011MD1710051+9999REMSYN060AAXX  24091 23256 42998 51506 11194 21243 40234 57005 80001;
0143232560999992000012412004+67470+078730FM-12+000899999V0201501N008012200019N0200001N1-02031-02521102201ADDGA1001+999999999GF100991001001999999001001MA1999999101831MD1710141+9999REMSYN060AAXX  24121 23256 42998 01508 11203 21252 30183 40220 57014;
0191232560999992000012415004+67470+078730FM-12+000899999V0201501N005012200019N0200001N1-02161-02561102011ADDAA199000091GA1001+999999999GF100991001001999999001001KA1999N+99999MD1710191+9999REMSYN064AAXX  24151 23256 32998 01505 11216 21256 40201 57019 333 21190;EQDQ01  00002PRCP99Q02 -01902ATMN  
0175232560999992000012418004+67470+078730FM-12+000899999V0201501N006012200019N0200001N1-02271-02671101851ADDAA199000091GA1001+999999999GF100991001001999999001001KA1999M-01901MD1710161+9999REMSYN064AAXX  24181 23256 32998 01506 11227 21267 40185 57016 333 11190;EQDQ01  00002PRCP99
0122232560999992000012421004+67470+078730FM-12+000899999V0201501N006012200019N0200001N1-02381-02701101651ADDGA1001+999999999GF100991001001999999001001MD1710201+9999REMSYN054AAXX  24211 23256 42998 01506 11238 21270 40165 57020;
0143232560999992000012500004+67470+078730FM-12+000899999V0201601N004012200019N0200001N1-02451-02771101491ADDGA1001+999999999GF100991001001999999001001MA1999999101121MD1710161+9999REMSYN060AAXX  25001 23256 42998 01604 11245 21277 30112 40149 57016;
0191232560999992000012503004+67470+078730FM-12+000899999V0201501N004012200019N0200001N1-02501-02811101301ADDAA199000091AJ100409199999999GA1001+999999999GF100991001001999999001001IA1249MD1710191+9999REMSYN070AAXX  25031 23256 32998 01504 11250 21281 40130 57019 333 48040 55014;EQDQ01  00002PRCP99
0174232560999992000012506004+67470+078730FM-12+000899999V0201501N004019999999N0200001N1-02521-02841101191ADDAA199000021AY111061AY211061GF108991001001999999001061KA1999N-02511MD1710111+9999MW1711REMSYN076AAXX  25061 23256 31998 81504 11252 21284 40119 57011 77111 80006 333 21251;
0140232560999992000012509004+67470+078730FM-12+000899999V0201501N004019999999N0200001N1-02381-02701101101ADDAY171031AY221031GF108991001001999999001061MD1710091+9999MW1711REMSYN066AAXX  25091 23256 41998 81504 11238 21270 40110 57009 77172 80006;
0187232560999992000012512004+67470+078730FM-12+000899999V0201501N002010750019N0200001N1-02461-02771101151ADDAY171061AY221061GA1041+005109059GF108991041051004501001061MA1999999100781MD1210051+9999MW1711REMSYN082AAXX  25121 23256 41498 81502 11246 21277 30078 40115 52005 77172 84506 333 84617;
0185232560999992000012515004+67470+078730FM-12+000899999V0201601N005010057019N0200001N1-02211-02541101141ADDAY171031AY221031GA1061+005709059GF108991061051004501001061KA1120M-02211MD1710011+9999MW1711REMSYN082AAXX  25151 23256 /1498 81605 11221 21254 40114 57001 77172 86506 333 11221 86619;
0180232560999992000012518004+67470+078730FM-12+000899999V0201901N004019999999N0200001N1-02251-02571101201ADDAA100000591AY171061AY221061GF108991001001999999001061KA1999M-02211MD1210061+9999MW1711REMSYN082AAXX  25181 23256 11998 81904 11225 21257 40120 52006 69940 77172 80006 333 11221;
0166232560999992000012521004+67470+078730FM-12+000899999V0201601N004010039019N0200001N1-02371-02681101241ADDAY171031AY221031GA1051+003909059GF108991051051004501071999MD1210041+9999MW1711REMSYN076AAXX  25211 23256 41498 81604 11237 21268 40124 52004 77172 8557/ 333 85613;
0161232560999992000012600004+67470+078730FM-12+000899999V0201701N003019999999N0200001N1-02481-02801101281ADDAY171061AY221061GF108991001001999999001061MA1999999100911MD1210041+9999MW1741REMSYN072AAXX  26001 23256 41998 81703 11248 21280 30091 40128 52004 77472 80006;
0179232560999992000012603004+67470+078730FM-12+000899999V0202301N005019999999N0200001N1-02531-02841101361ADDAJ100409199999999AY171031AY221031GF106991041001999999031011IA1249MD1210081+9999MW1221REMSYN082AAXX  26031 23256 /1998 62305 11253 21284 40136 52008 72272 84031 333 48040 55000;
0199232560999992000012606004+67470+078730FM-12+000899999V0202401N004012200019N0200001N1-02791-03091101471ADDAA100000391AY171061AY211061GF102991001001999999001011KA1999N+99999MD1210101+9999MW1021REMSYN082AAXX  26061 23256 11998 22404 11279 21309 40147 52010 69930 70271 80001 333 21253;EQDQ01 -02532ATMN  
0112232560999992000012609004+67470+078730FM-12+000899999V0202401N006019999999N0200001N1-03041-03341101711ADDGF106991001001999999001011MD1210241+9999REMSYN060AAXX  26091 23256 42998 62406 11304 21334 40171 52024 80001;
0133232560999992000012612004+67470+078730FM-12+000899999V0202401N005019999999N0200001N1-03081-03381101921ADDGF105991001001999999001011MA1999999101541MD1210211+9999REMSYN066AAXX  26121 23256 42998 52405 11308 21338 30154 40192 52021 80001;
0146232560999992000012615004+67470+078730FM-12+000899999V0202401N005019999999N0200001N1-03231-03521102181ADDAA199000021GF106991001001999999001011KA1999M-02531MD1210261+9999REMSYN070AAXX  26151 23256 32998 62405 11323 21352 40218 52026 80001 333 11253;
0165232560999992000012618004+67470+078730FM-12+000899999V0202301N005012200019N0200001N1-03281-03641102411ADDAA199000091GF103991001001999999001011KA1999M-02531MD1210221+9999REMSYN070AAXX  26181 23256 32998 32305 11328 21364 40241 52022 80001 333 11253;EQDQ01  00002PRCP99
0112232560999992000012621004+67470+078730FM-12+000899999V0202101N004012200019N0200001N1-03261-03611102551ADDGF103991001001999999001011MD1210141+9999REMSYN060AAXX  26211 23256 42998 32104 11326 21361 40255 52014 80001;
0133232560999992000012700004+67470+078730FM-12+000899999V0201701N002019999999N0200001N1-03041-03411102541ADDGF105991001001999999001011MA1999999102161MD1410001+9999REMSYN066AAXX  27001 23256 42998 51702 11304 21341 30216 40254 54000 80001;
0181232560999992000012703004+67470+078730FM-12+000899999V0201401N005019999999N0200001N1-03051-03411102481ADDAA199000091AJ100409199999999GF108991051001999999031061IA1249MD1710061+9999REMSYN076AAXX  27031 23256 32998 81405 11305 21341 40248 57006 85036 333 48040 55000;EQDQ01  00002PRCP99
0165232560999992000012706004+67470+078730FM-12+000899999V0201201N005019999999N0200001N1-02881-03251102321ADDAA199000091GF108991081001999999071999KA1999N-03351MD1710161+9999REMSYN070AAXX  27061 23256 32998 81205 11288 21325 40232 57016 8807/ 333 21335;EQDQ01  00002PRCP99
0140232560999992000012709004+67470+078730FM-12+000899999V0201501N007019999999N0020001N1-02311-02631101941ADDAY171031AY231031GF108991081001999999071999MD1710381+9999MW1721REMSYN066AAXX  27091 23256 41995 81507 11231 21263 40194 57038 77273 8807/;
0171232560999992000012712004+67470+078730FM-12+000899999V0201401N007019999999N0020001N1-01961-02291101701ADDAY171061AY231061GF108991081001999999071999MA1999999101331MD1710231+9999MW1711REMSYN082AAXX  27121 23256 41995 81407 11196 21229 30133 40170 57023 77173 8807/ 333 92990;
0163232560999992000012715004+67470+078730FM-12+000899999V0201601N005019999999N0200001N1-01591-01861101481ADDAY171031AY231031GF108991081001999999071999KA1999M-01581MD1710211+9999MW1711REMSYN076AAXX  27151 23256 /1998 81605 11159 21186 40148 57021 77173 8807/ 333 11158;
0180232560999992000012718004+67470+078730FM-12+000899999V0201701N007019999999N0200001N1-01551-01821101301ADDAA100000891AY171061AY231061GF108991081001999999071999KA1999M-01581MD1710181+9999MW1711REMSYN082AAXX  27181 23256 11998 81707 11155 21182 40130 57018 69980 77173 8807/ 333 11158;
0161232560999992000012800004+67470+078730FM-12+000899999V0201801N008019999999N0040001N1-01271-01541100891ADDAY171061AY231061GF108991081001999999071999MA1999999100531MD1710201+9999MW1711REMSYN072AAXX  28001 23256 41996 81808 11127 21154 30053 40089 57020 77173 8807/;
0140232560999992000012809004+67470+078730FM-12+000899999V0202001N009019999999N0200001N1-01141-01421101151ADDAY171031AY231031GF108991041001999999031061MD1210271+9999MW1361REMSYN066AAXX  28091 23256 41998 82009 11114 21142 40115 52027 73673 84036;
0163232560999992000012815004+67470+078730FM-12+000899999V0201801N007019999999N0040001N1-01441-01711101321ADDAY121031AY221031GF108991001001999999001061KA1999M-01081MD1710011+9999MW1711REMSYN076AAXX  28151 23256 /1996 81807 11144 21171 40132 57001 77122 80006 333 11108;
0180232560999992000012818004+67470+078730FM-12+000899999V0201701N007019999999N0200001N1-01411-01611101261ADDAA100000591AY171061AY231061GF108991001001999999001061KA1999M-01081MD1710061+9999MW1711REMSYN082AAXX  28181 23256 11998 81707 11141 21161 40126 57006 69940 77173 80006 333 11108;
0140232560999992000012821004+67470+078730FM-12+000899999V0201701N007019999999N0200001N1-01451-01651101171ADDAY171031AY231031GF108991001001999999001061MD1710091+9999MW1361REMSYN066AAXX  28211 23256 41998 81707 11145 21165 40117 57009 73673 80006;
0161232560999992000012900004+67470+078730FM-12+000899999V0201801N005019999999N0200001N1-01291-01491101061ADDAY171061AY231061GF108991001001999999001061MA1999999100701MD1710111+9999MW1021REMSYN072AAXX  29001 23256 41998 81805 11129 21149 30070 40106 57011 70273 80006;
0151232560999992000012903004+67470+078730FM-12+000899999V0201901N005019999999N0200001N1-01221-01421100881ADDAJ100419199999999GF108991081001999999071999IA1249MD1710171+9999REMSYN076AAXX  29031 23256 /2998 81905 11122 21142 40088 57017 8807/ 333 48041 55000;
0202232560999992000012906004+67470+078730FM-12+000899999V0201901N004010036019N0200001N1-01211-01411100821ADDAA100000791AY171061AY221061GA1051+003609099GF108991081031004501999999KA1120N-01511MD1710061+9999MW1851REMSYN088AAXX  29061 23256 11498 81904 11121 21141 40082 57006 69900 78572 883// 333 21151 85912;
0140232560999992000012909004+67470+078730FM-12+000899999V0202201N005012200019N0200001N1-01581-01771100881ADDAY181031AY211031GF102991001001999999001011MD1210051+9999MW1021REMSYN066AAXX  29091 23256 41998 22205 11158 21177 40088 52005 70281 80001;
0161232560999992000012912004+67470+078730FM-12+000899999V0202201N005019999999N0200001N1-01741-01931101001ADDAY181061AY211061GF106991061001999999031001MA1999999100641MD1210121+9999MW1021REMSYN072AAXX  29121 23256 41998 62205 11174 21193 30064 40100 52012 70281 86030;
0135232560999992000012915004+67470+078730FM-12+000899999V0202101N004012200019N0200001N1-01961-02151101061ADDGF103991031001999999031001KA1999M-01151MD1210051+9999REMSYN070AAXX  29151 23256 /2998 32104 11196 21215 40106 52005 83030 333 11115;
0168232560999992000012918004+67470+078730FM-12+000899999V0202201N005012200019N0200001N1-02041-02231101181ADDAA100000191GA1001+999999999GF100991001001999999001001KA1120M-01151MD1210121+9999REMSYN076AAXX  29181 23256 12998 02205 11204 21223 40118 52012 69920 333 11115 93508;
0122232560999992000012921004+67470+078730FM-12+000899999V0202001N006012200019N0200001N1-02161-02341101271ADDGA1001+999999999GF100991001001999999001001MD1210091+9999REMSYN054AAXX  29211 23256 42998 02006 11216 21234 40127 52009;
0153232560999992000013000004+67470+078730FM-12+000899999V0202001N006012200019N0200001N1-02261-02511101361ADDGA1001+999999999GF100991001001999999001001MA1999999100991MD1210091+9999REMSYN070AAXX  30001 23256 42998 02006 11226 21251 30099 40136 52009 333 93508;
0191232560999992000013003004+67470+078730FM-12+000899999V0201901N005012200019N0200001N1-02421-02661101491ADDAA199000091AJ100419199999999GA1001+999999999GF100991001001999999001001IA1249MD1210131+9999REMSYN070AAXX  30031 23256 32998 01905 11242 21266 40149 52013 333 48041 55009;EQDQ01  00002PRCP99
0171232560999992000013006004+67470+078730FM-12+000899999V0201701N005019999999N0200001N1-02431-02681101541ADDAA199000091GF106991021001999999031011KA1120N-02421MD1210051+9999REMSYN076AAXX  30061 23256 32998 61705 11243 21268 40154 52005 82031 333 21242 93507;EQDQ01  00002PRCP99
0112232560999992000013009004+67470+078730FM-12+000899999V0201401N003019999999N0200001N1-02381-02631101581ADDGF106991001001999999001011MD1210041+9999REMSYN060AAXX  30091 23256 42998 61403 11238 21263 40158 52004 80001;
0143232560999992000013012004+67470+078730FM-12+000899999V0201401N004019999999N0200001N1-02511-02751101561ADDGF107991001001999999001011MA1999999101191MD1710021+9999REMSYN076AAXX  30121 23256 42998 71404 11251 21275 30119 40156 57002 80001 333 93507;
0163232560999992000013015004+67470+078730FM-12+000899999V0201401N004019999999N0200001N1-02311-02551101531ADDAY171031AY221031GF108991001001999999001061KA1999M-02311MD1710031+9999MW1711REMSYN076AAXX  30151 23256 /1998 81404 11231 21255 40153 57003 77172 80006 333 11231;
0227232560999992000013018004+67470+078730FM-12+000899999V0201201N003010042019N0040001N1-02151-02401101471ADDAA100000791AY171061AY221061GA1061+004209069GF108991061051004501071999KA1120M+99999MD1710061+9999MW1711REMSYN094AAXX  30181 23256 11496 81203 11215 21240 40147 57006 69900 77172 8657/ 333 11231 86614 93507;EQDQ01 -02312ATMX  
0126232560999992000013021004+67470+078730FM-12+000899999V0201501N003019999999N0200001N1-02171-02421101431ADDAY171031GF108991999999999999999999MD1710041+9999MW1701REMSYN060AAXX  30211 23256 41998 81503 11217 21242 40143 57004 7707/;
0171232560999992000013100004+67470+078730FM-12+000899999V0201401N002019999999N0200001N1-02131-02381101431ADDAY171061AY221061GF108991081001999999071999MA1999999101061MD1410001+9999MW1711REMSYN082AAXX  31001 23256 41998 81402 11213 21238 30106 40143 54000 77172 8807/ 333 93506;
0179232560999992000013103004+67470+078730FM-12+000899999V0201801N001019999999N0200001N1-02121-02371101481ADDAJ100419199999999AY171031AY221031GF108991031001999999031061IA1249MD1210051+9999MW1711REMSYN082AAXX  31031 23256 /1998 81801 11212 21237 40148 52005 77172 83036 333 48041 55000;
0122232560999992000013109004+67470+078730FM-12+000899999V0202701N002012200019N0200001N1-02311-02551101581ADDGA1001+999999999GF100991001001999999001001MD1210111+9999REMSYN054AAXX  31091 23256 42998 02702 11231 21255 40158 52011;
0153232560999992000013112004+67470+078730FM-12+000899999V0202601N002012200019N0200001N1-02561-02811101671ADDGA1001+999999999GF100991001001999999001001MA1999999101301MD1210091+9999REMSYN070AAXX  31121 23256 42998 02602 11256 21281 30130 40167 52009 333 93506;
0173232560999992000013115004+67470+078730FM-12+000899999V0202401N001012200019N0040001N1-02601-02841101741ADDAY101031AY201031GA1001+999999999GF100991001001999999001001KA1999M-02001MD1210071+9999MW1101REMSYN070AAXX  31151 23256 /1996 02401 11260 21284 40174 52007 71000 333 11200;
0168232560999992000013118004+67470+078730FM-12+000899999V0202301N001012200019N0200001N1-02751-02991101801ADDAA100000791GA1001+999999999GF100991001001999999001001KA1120M-02001MD1210061+9999REMSYN076AAXX  31181 23256 12998 02301 11275 21299 40180 52006 69900 333 11200 93512;
0122232560999992000013121004+67470+078730FM-12+000899999V0202101N001012200019N0200001N1-02761-02991101841ADDGA1001+999999999GF100991001001999999001001MD1210031+9999REMSYN054AAXX  31211 23256 42998 02101 11276 21299 40184 52003;
0153232560999992000020100004+67470+078730FM-12+000899999V0201701N003012200019N0200001N1-02861-03161101851ADDGA1001+999999999GF100991001001999999001001MA1999999101471MD1210011+9999REMSYN070AAXX  01001 23256 42998 01703 11286 21316 30147 40185 52001 333 93512;
0166232560999992000020103004+67470+078730FM-12+000899999V0201601N004019999999N0200001N1-02751-03061101831ADDAA199000091AJ100419199999999GF108991999999999999999999IA1249REMSYN075AAXX  01031 23256 32998 81604 11275 21306 40183 5702 8807/ 333 48041 55010;EQDQ01  00002PRCP99
0193232560999992000020106004+67470+078730FM-12+000899999V0201401N005012200019N0200001N1-02601-02841101791ADDAA199000091GA1041+001209079GF107991041061001501001011KA1120N-02881MD1710031+9999REMSYN082AAXX  01061 23256 32298 71405 11260 21284 40179 57003 84601 333 21288 84704 93512;EQDQ01  00002PRCP99
0112232560999992000020109004+67470+078730FM-12+000899999V0201601N005012200019N0200001N1-02441-02691101711ADDGF107991021061002501001011MD1710081+9999REMSYN060AAXX  01091 23256 42398 71605 11244 21269 40171 57008 82601;
0143232560999992000020112004+67470+078730FM-12+000899999V0201501N005019999999N0200001N1-02281-02531101621ADDGF107991001001999999001011MA1999999101251MD1710091+9999REMSYN076AAXX  01121 23256 42998 71505 11228 21253 30125 40162 57009 80001 333 93509;
0165232560999992000020115004+67470+078730FM-12+000899999V0201601N007012200019N0200001N1-02141-02391101461ADDAA199000091GF103991001001999999001011KA1999M-02141MD1710161+9999REMSYN070AAXX  01151 23256 32998 31607 11214 21239 40146 57016 80001 333 11214;EQDQ01  00002PRCP99
0187232560999992000020118004+67470+078730FM-12+000899999V0201501N007019999999N0200001N1-01741-02001101361ADDAA199000091GF108991081001999999071999KA1120M+99999MD1710091+9999REMSYN076AAXX  01181 23256 32998 81507 11174 21200 40136 57009 8807/ 333 11214 93509;EQDQ01  00002PRCP99Q02 -02142ATMX  
0112232560999992000020121004+67470+078730FM-12+000899999V0201401N009019999999N0200001N1-01691-01831101261ADDGF108991081001999999071999MD1710101+9999REMSYN060AAXX  01211 23256 42998 81409 11169 21183 40126 57010 8807/;
0220232560999992000020200004+67470+078730FM-12+000899999V0201501N006010018019N0200001N1-01821-02011101231ADDAL10600891AY131061AY221061GA1081+001809079GF108991081061001501999999MA1999999100861MD1710041+9999MW1021OA149901201REMSYN094AAXX  02001 23256 41298 81506 11182 21201 30086 40123 57004 70232 886// 333 88706 91112 99508;
0209232560999992000020203004+67470+078730FM-12+000899999V0201501N006010015019N0100001N1-01871-02061101151ADDAJ100409199999999AY171031AY231031GA1051+001509069GF108991051061001501001061GJ100009IA1249MD1710081+9999MW1711REMSYN088AAXX  02031 23256 /1297 81506 11187 21206 40115 57008 77173 85606 333 48040 55000 85705;
0208232560999992000020206004+67470+078730FM-12+000899999V0201601N006010036019N0100001N1-01701-01891101081ADDAA100000791AY171061AY231061GA1061+003609069GF108991061051004501001061KA1120N-02141MD1710061+9999MW1711REMSYN094AAXX  02061 23256 11497 81606 11170 21189 40108 57006 69900 77173 86506 333 21214 86612 93506;
0166232560999992000020209004+67470+078730FM-12+000899999V0201601N008010063019N0040001N1-01571-01761100951ADDAY171031AY221031GA1061+006309059GF108991061051008001001061MD1710131+9999MW1711REMSYN076AAXX  02091 23256 41596 81608 11157 21176 40095 57013 77172 86506 333 86621;
0194232560999992000020212004+67470+078730FM-12+000899999V0201601N007019999999N0040001N1-01501-01701100871ADDAY171061AY231061GF108991051001999999031061MA1999999100511MD1710081+9999MW1711OA149901301REMSYN094AAXX  02121 23256 41996 81607 11150 21170 30051 40087 57008 77173 85036 333 91113 92990 93506;
0163232560999992000020215004+67470+078730FM-12+000899999V0201601N007019999999N0040001N1-01441-01641100741ADDAY171031AY231031GF108991081001999999071999KA1999M-01441MD1710121+9999MW1711REMSYN076AAXX  02151 23256 /1996 81607 11144 21164 40074 57012 77173 8807/ 333 11144;
0227232560999992000020218004+67470+078730FM-12+000899999V0201601N008010039019N0040001N1-01201-01401100611ADDAA100000591AY171061AY231061GA1061+003909069GF108991061051004501071999KA1120M+99999MD1710131+9999MW1711REMSYN094AAXX  02181 23256 11496 81608 11120 21140 40061 57013 69960 77173 8657/ 333 11144 86613 93504;EQDQ01 -01442ATMX  
0166232560999992000020221004+67470+078730FM-12+000899999V0201701N008010021019N0040001N1-00861-01051100531ADDAY171031AY231031GA1051+002109069GF108991081051002501999999MD1710081+9999MW1711REMSYN076AAXX  02211 23256 41396 81708 11086 21105 40053 57008 77173 885// 333 85707;
0193232560999992000020300004+67470+078730FM-12+000899999V0201701N010010024019N0040001N1-00791-00931100471ADDAY171061AY231061GA1051+002409079GF108991081051002501999999MA1999999100121MD1710061+9999MW1711REMSYN088AAXX  03001 23256 41396 81710 11079 21093 30012 40047 57006 77173 885// 333 85708 93500;
0209232560999992000020303004+67470+078730FM-12+000899999V0201701N009010021019N0020001N1-00741-00871100441ADDAJ100419199999999AY171031AY231031GA1051+002109069GF108991081051002501999999GJ100009IA1249MD1710021+9999MW1711REMSYN088AAXX  03031 23256 /1395 81709 11074 21087 40044 57002 77173 885// 333 48041 55000 85707;
0225232560999992000020306004+67470+078730FM-12+000899999V0201701N007010039019N0020001N1-00671-00791100441ADDAA100000891AY171061AY231061GA1061+003909069GF108991061051004501071999KA1120N-01441MD1410001+9999MW1711OA149901201REMSYN100AAXX  03061 23256 11495 81707 11067 21079 40044 54000 69970 77173 8657/ 333 21144 86613 91112 92990;
0166232560999992000020309004+67470+078730FM-12+000899999V0201901N008010039019N0020001N1-00721-00891100551ADDAY171031AY231031GA1061+003909059GF108991061051004501071999MD1210111+9999MW1711REMSYN076AAXX  03091 23256 41495 81908 11072 21089 40055 52011 77173 8657/ 333 86613;
0188232560999992000020312004+67470+078730FM-12+000899999V0201801N009019999999N0040001N1-00801-00981100661ADDAY171061AY231061GF108991081001999999071999MA1999999100311MD1210101+9999MW1711OA140101201REMSYN088AAXX  03121 23256 41996 81809 11080 21098 30031 40066 52010 77173 8807/ 333 91012 91112;
0185232560999992000020315004+67470+078730FM-12+000899999V0201901N009010300019N0020001N1-00851-01001100661ADDAY171031AY231031GA1041+004509059GF108991041051004501071999KA1120M-00641MD1410001+9999MW1711REMSYN082AAXX  03151 23256 /1495 81909 11085 21100 40066 54000 77173 8457/ 333 11064 84615;
0203232560999992000020318004+67470+078730FM-12+000899999V0201901N009019999999N0040001N1-00891-01091100701ADDAA100002091AY171061AY231061GF108991081001999999071999KA1120M-00641MD1210041+9999MW1711OA140101201REMSYN094AAXX  03181 23256 11996 81909 11089 21109 40070 52004 60020 77173 8807/ 333 11064 91012 91112;
0140232560999992000020321004+67470+078730FM-12+000899999V0201801N009019999999N0040001N1-00941-01151100701ADDAY171031AY231031GF108991081001999999071999MD1410001+9999MW1711REMSYN066AAXX  03211 23256 41996 81809 11094 21115 40070 54000 77173 8807/;
0188232560999992000020400004+67470+078730FM-12+000899999V0201701N009019999999N0040001N1-01031-01231100671ADDAY171061AY231061GF108991081001999999071999MA1999999100321MD1710031+9999MW1711OA140101201REMSYN088AAXX  04001 23256 41996 81709 11103 21123 30032 40067 57003 77173 8807/ 333 91012 91112;
0179232560999992000020403004+67470+078730FM-12+000899999V0201701N008019999999N0200001N1-01131-01411100631ADDAJ100419199999999AY171031AY231031GF108991081001999999071999IA1249MD1710041+9999MW1221REMSYN082AAXX  04031 23256 /1998 81708 11113 21141 40063 57004 72273 8807/ 333 48041 55000;
0166232560999992000020409004+67470+078730FM-12+000899999V0201601N008010300019N0200001N1-01091-01531100471ADDAY171031AY221031GA1041+007209059GF108991041051008001071999MD1710111+9999MW1711REMSYN076AAXX  04091 23256 41598 81608 11109 21153 40047 57011 77172 8457/ 333 84624;
0210232560999992000020412004+67470+078730FM-12+000899999V0201401N009010042019N0020001N1-01141-01491100281ADDAY171061AY231061GA1061+004209069GF108991061051004501071999MA1999999099931MD1710191+9999MW1711OA140101201REMSYN094AAXX  04121 23256 41495 81409 11114 21149 39993 40028 57019 77173 8657/ 333 86614 91012 91112;
0185232560999992000020415004+67470+078730FM-12+000899999V0201601N009010048019N0020001N1-01151-01431100101ADDAY171031AY231031GA1051+004809059GF108991051051004501071999KA1120M-01081MD1710181+9999MW1711REMSYN082AAXX  04151 23256 /1495 81609 11115 21143 40010 57018 77173 8557/ 333 11108 85616;
0203232560999992000020418004+67470+078730FM-12+000899999V0201501N010019999999N0040001N1-01141-01421099911ADDAA100000591AY171061AY231061GF108991081001999999071999KA1120M-01081MD1710191+9999MW1711OA140101301REMSYN094AAXX  04181 23256 11996 81510 11114 21142 49991 57019 69940 77173 8807/ 333 11108 91013 91114;
0140232560999992000020421004+67470+078730FM-12+000899999V0201601N009019999999N0040001N1-01161-01441099781ADDAY171031AY231031GF108991081001999999071999MD1710121+9999MW1711REMSYN066AAXX  04211 23256 41996 81609 11116 21144 49978 57012 77173 8807/;
0188232560999992000020500004+67470+078730FM-12+000899999V0201601N009019999999N0020001N1-01171-01441099651ADDAY171061AY231061GF108991081001999999071999MA1999999099311MD1710131+9999MW1711OA140101201REMSYN088AAXX  05001 23256 41995 81609 11117 21144 39931 49965 57013 77173 8807/ 333 91012 92112;
0209232560999992000020503004+67470+078730FM-12+000899999V0201401N009010024019N0020001N1-01231-01501099501ADDAJ100439199999999AY171031AY231031GA1061+002409069GF108991081051002501999999GJ100009IA1249MD1710151+9999MW1711REMSYN088AAXX  05031 23256 /1395 81409 11123 21150 49950 57015 77173 885// 333 48043 55000 86708;
0225232560999992000020506004+67470+078730FM-12+000899999V0201301N009010036019N0020001N1-01271-01541099311ADDAA100001091AY171061AY231061GA1051+003609069GF108991061051004501071999KA1120N-01251MD1710201+9999MW1711OA140101201REMSYN100AAXX  05061 23256 11495 81309 11127 21154 49931 57020 60010 77173 8657/ 333 21125 85612 91012 91113;
0140232560999992000020509004+67470+078730FM-12+000899999V0201201N008010300019N0020001N1-01231-01501099141ADDAY171031AY231031GF108991031051004501071999MD1710161+9999MW1711REMSYN066AAXX  05091 23256 41495 81208 11123 21150 49914 57016 77173 8357/;
0193232560999992000020512004+67470+078730FM-12+000899999V0201601N005010300019N0040001N1-01311-01511099231ADDAY171061AY231061GA1041+001509079GF108991041071001501071999MA1999999098881MD1210081+9999MW1711REMSYN088AAXX  05121 23256 41296 81605 11131 21151 39888 49923 52008 77173 8477/ 333 84705 92990;
0163232560999992000020515004+67470+078730FM-12+000899999V0201801N005019999999N0200001N1-01481-01681099391ADDAY171031AY221031GF108991081001999999071999KA1999M-01231MD1210161+9999MW1711REMSYN076AAXX  05151 23256 /1998 81805 11148 21168 49939 52016 77172 8807/ 333 11123;
0180232560999992000020518004+67470+078730FM-12+000899999V0201901N005019999999N0200001N1-01741-01931099511ADDAA100001091AY171061AY221061GF108991001001999999001061KA1999M-01231MD1210121+9999MW1711REMSYN082AAXX  05181 23256 11998 81905 11174 21193 49951 52012 60010 77172 80006 333 11123;
0140232560999992000020521004+67470+078730FM-12+000899999V0201801N005019999999N0040001N1-01881-02071099641ADDAY171031AY221031GF108991001001999999001061MD1210121+9999MW1711REMSYN066AAXX  05211 23256 41996 81805 11188 21207 49964 52012 77172 80006;
0161232560999992000020600004+67470+078730FM-12+000899999V0201901N005019999999N0200001N1-01851-02041099771ADDAY171061AY221061GF108991001001999999001061MA1999999099411MD1210131+9999MW1711REMSYN072AAXX  06001 23256 41998 81905 11185 21204 39941 49977 52013 77172 80006;
0179232560999992000020603004+67470+078730FM-12+000899999V0202001N006019999999N0200001N1-01961-02151099851ADDAJ100429199999999AY171031AY221031GF108991001001999999001061IA1249MD1210081+9999MW1711REMSYN082AAXX  06031 23256 /1998 82006 11196 21215 49985 52008 77172 80006 333 48042 55000;
0199232560999992000020606004+67470+078730FM-12+000899999V0202101N007019999999N0100001N1-02041-02291099921ADDAA100000791AY171061AY221061GF108991001001999999001061KA1999N+99999MD1210071+9999MW1711REMSYN082AAXX  06061 23256 11997 82107 11204 21229 49992 52007 69900 77172 80006 333 21196;EQDQ01 -01962ATMN  
0140232560999992000020609004+67470+078730FM-12+000899999V0202201N008019999999N0100001N1-02211-02471100071ADDAY171031AY221031GF106991001001999999001011MD1210151+9999MW1361REMSYN066AAXX  06091 23256 41997 62208 11221 21247 40007 52015 73672 80001;
0161232560999992000020612004+67470+078730FM-12+000899999V0202301N007012200019N0200001N1-02451-02701100351ADDAY171061AY231061GF104991001001999999001011MA1999999099981MD1210271+9999MW1021REMSYN072AAXX  06121 23256 41998 42307 11245 21270 39998 40035 52027 70273 80001;
0145232560999992000020615004+67470+078730FM-12+000899999V0202301N005012200019N0200001N1-02991+99999100521ADDGA1001+999999999GF100991001001999999001001KA1999M-01961MD1210171+9999REMSYN064AAXX  06151 23256 /2998 02305 11299 21284 40052 52017 333 11196;
0162232560999992000020618004+67470+078730FM-12+000899999V0202301N005012200019N0200001N1-02501-02741100671ADDAA100000591GA1001+999999999GF100991001001999999001001KA1999M-01961MD1210151+9999REMSYN070AAXX  06181 23256 12998 02305 11250 21274 40067 52015 69960 333 11196;
0140232560999992000020621004+67470+078730FM-12+000899999V0202401N007019999999N0040001N1-02241-02491100851ADDAY171031AY231031GF108991001001999999001061MD1210191+9999MW1711REMSYN066AAXX  06211 23256 41996 82407 11224 21249 40085 52019 77173 80006;
0161232560999992000020700004+67470+078730FM-12+000899999V0202401N007019999999N0040001N1-02151-02401100981ADDAY171061AY231061GF108991001001999999001061MA1999999100611MD1210121+9999MW1711REMSYN072AAXX  07001 23256 41996 82407 11215 21240 30061 40098 52012 77173 80006;
0209232560999992000020703004+67470+078730FM-12+000899999V0202301N008010078019N0100001N1-02191-02441101161ADDAJ100419199999999AY171031AY231031GA1051+007809059GF108991051051008001001061GJ100609IA1249MD1210181+9999MW1711REMSYN088AAXX  07031 23256 /1597 82308 11219 21244 40116 52018 77173 85506 333 48041 55010 85626;
0203232560999992000020706004+67470+078730FM-12+000899999V0202401N009019999999N0100001N1-02391-02641101291ADDAA100000191AY171061AY231061GF107991031001999999031011KA1120N-02681MD1210131+9999MW1361OA140101201REMSYN094AAXX  07061 23256 11997 72409 11239 21264 40129 52013 69920 73673 83031 333 21268 91012 91113;
0140232560999992000020709004+67470+078730FM-12+000899999V0202101N009019999999N0020001N1-02231-02481101481ADDAY131031AY231031GF107991021001999999031011MD1210191+9999MW1381REMSYN066AAXX  07091 23256 41995 72109 11223 21248 40148 52019 73833 82031;
0171232560999992000020712004+67470+078730FM-12+000899999V0202001N007019999999N0200001N1-02321-02571101571ADDAY131061AY231061GF105991001001999999001011MA1999999101201MD1210091+9999MW1361REMSYN082AAXX  07121 23256 41998 52007 11232 21257 30120 40157 52009 73633 80001 333 91112;
0163232560999992000020715004+67470+078730FM-12+000899999V0202101N007019999999N0040001N1-02411-02661101651ADDAY131031AY221031GF108991001001999999001061KA1999M-02091MD1210081+9999MW1711REMSYN076AAXX  07151 23256 /1996 82107 11241 21266 40165 52008 77132 80006 333 11209;
0203232560999992000020718004+67470+078730FM-12+000899999V0202001N010019999999N0020001N1-02401-02651101751ADDAA100000591AY171061AY231061GF108991001001999999001061KA1120M-02091MD1210101+9999MW1711OA140101301REMSYN094AAXX  07181 23256 11995 82010 11240 21265 40175 52010 69960 77173 80006 333 11209 91013 91113;
0159232560999992000020721004+67470+078730FM-12+000899999V0201901N006019999999N0040001N1-02521-02771999999ADDAY171031AY231031GF108991081001999999071999MD1210061+9999MW1711REMSYN066AAXX  07211 23256 41996 81906 11252 21277 40017 52006 77173 8807/;EQDQ01+100173APOSLP
0161232560999992000020800004+67470+078730FM-12+000899999V0201701N004019999999N0200001N1-02591-02911101891ADDAY171061AY231061GF108991001001999999001061MA1999999101511MD1210071+9999MW1711REMSYN072AAXX  08001 23256 41998 81704 11259 21291 30151 40189 52007 77173 80006;
0209232560999992000020803004+67470+078730FM-12+000899999V0201501N004010015019N0200001N1-02691-03001101961ADDAJ100419199999999AY171031AY221031GA1051+001509069GF108991051061001501001061GJ101929IA1249MD1210071+9999MW1021REMSYN088AAXX  08031 23256 /1298 81504 11269 21300 40196 52007 70272 85606 333 48041 55032 85705;
0202232560999992000020806004+67470+078730FM-12+000899999V0201301N005010015019N0100001N1-02691-03001101941ADDAA100000391AY171061AY221061GA1051+001509069GF108991061061001501001061KA1120N-02691MD1710021+9999MW1221REMSYN088AAXX  08061 23256 11297 81305 11269 21300 40194 57002 69930 72272 86606 333 21269 85705;
0112232560999992000020809004+67470+078730FM-12+000899999V0201401N005012200019N0200001N1-02681-03001101961ADDGF102991001001999999001011MD1210021+9999REMSYN060AAXX  08091 23256 42998 21405 11268 21300 40196 52002 80001;
0143232560999992000020812004+67470+078730FM-12+000899999V0201401N005012200019N0200001N1-02761-03061101971ADDGA1001+999999999GF100991001001999999001001MA1999999101591MD1210011+9999REMSYN060AAXX  08121 23256 42998 01405 11276 21306 30159 40197 52001;
0163232560999992000020815004+67470+078730FM-12+000899999V0201601N005019999999N0200001N1-02811-03111101961ADDAY111031AY211031GF108991001001999999001061KA1999M-02661MD1710011+9999MW1711REMSYN076AAXX  08151 23256 /1998 81605 11281 21311 40196 57001 77111 80006 333 11266;
0180232560999992000020818004+67470+078730FM-12+000899999V0201401N004012200019N0200001N1-02761-03061101941ADDAA100000791AY171061AY211061GF103991001001999999001011KA1999M-02661MD1710021+9999MW1021REMSYN082AAXX  08181 23256 11998 31404 11276 21306 40194 57002 69900 70271 80001 333 11266;
0140232560999992000020821004+67470+078730FM-12+000899999V0201401N004019999999N0200001N1-02581-02891101851ADDAY171031AY211031GF108991001001999999001061MD1710081+9999MW1711REMSYN066AAXX  08211 23256 41998 81404 11258 21289 40185 57008 77171 80006;
0187232560999992000020900004+67470+078730FM-12+000899999V0201401N004010018019N0040001N1-02601-02911101891ADDAY171061AY221061GA1051+001809069GF108991051061002501001061MA1999999101511MD1210031+9999MW1711REMSYN082AAXX  09001 23256 41396 81404 11260 21291 30151 40189 52003 77172 85606 333 85706;
0209232560999992000020903004+67470+078730FM-12+000899999V0201601N005010024019N0200001N1-02371-02681101881ADDAJ100419199999999AY171031AY221031GA1061+002409069GF108991061061002501001061GJ101449IA1249MD1710011+9999MW1711REMSYN088AAXX  09031 23256 /1398 81605 11237 21268 40188 57001 77172 86606 333 48041 55024 86708;
0180232560999992000020906004+67470+078730FM-12+000899999V0201501N005012200019N0200001N1-02201-02451101881ADDAA100000191AY171061AY221061GF107991031061002501001011KA1999N-02811MD1210011+9999MW1221REMSYN082AAXX  09061 23256 11398 71505 11220 21245 40188 52001 69920 72272 83601 333 21281;
0138232560999992000020909004+67470+078730FM-12+000899999V0201801N007010015019N0200001N1-02141-02391101921ADDGA1051+001509069GF106991051061001501001011MD1210041+9999REMSYN070AAXX  09091 23256 42298 61807 11214 21239 40192 52004 85601 333 85705;
0133232560999992000020912004+67470+078730FM-12+000899999V0201701N006012200019N0200001N1-02271-02521102031ADDGF103991001001999999001011MA1999999101651MD1210101+9999REMSYN066AAXX  09121 23256 42998 31706 11227 21252 30165 40203 52010 80001;
0163232560999992000020915004+67470+078730FM-12+000899999V0201801N009012200019N0040001N1-02131-02381102051ADDAY131031AY201031GF102991001001999999001011KA1999M-02121MD1210031+9999MW1381REMSYN076AAXX  09151 23256 11996 21809 11213 21238 40205 52003 73830 80001 333 11212;
0213232560999992000020918004+67470+078730FM-12+000899999V0201801N009012200019N0040001N1-02081-02331102211ADDAA100000791AY131061AY201061GA1001+999999999GF100991001001999999001001KA1120M-02121MD1210161+9999MW1381OA140101201REMSYN088AAXX  09181 23256 11996 01809 11208 21233 40221 52016 69900 73830 333 11212 91012 91113;
0150232560999992000020921004+67470+078730FM-12+000899999V0201701N002012200019N0200001N1-02161-02411102301ADDAY131031AY201031GA1001+999999999GF100991001001999999001001MD1210091+9999MW1021REMSYN060AAXX  09211 23256 41998 01702 11216 21241 40230 52009 70230;
0171232560999992000021000004+67470+078730FM-12+000899999V0201801N005012200019N0200001N1-02161-02411102351ADDAY131061AY231061GA1001+999999999GF100991001001999999001001MA1999999101981MD1210051+9999MW1021REMSYN066AAXX  10001 23256 41998 01805 11216 21241 30198 40235 52005 70233;
0191232560999992000021003004+67470+078730FM-12+000899999V0201701N005012200019N0200001N1-02271-02591102431ADDAA199000091AJ100119199999999GA1001+999999999GF100991001001999999001001IA1249MD1210071+9999REMSYN070AAXX  10031 23256 32998 01705 11227 21259 40243 52007 333 48011 55033;EQDQ01  00002PRCP99
0175232560999992000021006004+67470+078730FM-12+000899999V0201601N005012200019N0200001N1-02191-02511102471ADDAA199000091GA1001+999999999GF100991001001999999001001KA1999N-02271MD1210051+9999REMSYN064AAXX  10061 23256 32998 01605 11219 21251 40247 52005 333 21227;EQDQ01  00002PRCP99
0112232560999992000021009004+67470+078730FM-12+000899999V0201601N006012200019N0200001N1-02031-02281102541ADDGF102991001001999999001011MD1210071+9999REMSYN060AAXX  10091 23256 42998 21606 11203 21228 40254 52007 80001;
0133232560999992000021012004+67470+078730FM-12+000899999V0201701N006012200019N0200001N1-01961-02221102601ADDGF102991001001999999001011MA1999999102231MD1210061+9999REMSYN066AAXX  10121 23256 42998 21706 11196 21222 30223 40260 52006 80001;
0165232560999992000021015004+67470+078730FM-12+000899999V0201601N005012200019N0200001N1-02121-02371102621ADDAA199000091GF102991001001999999001011KA1999M-01961MD1210021+9999REMSYN070AAXX  10151 23256 32998 21605 11212 21237 40262 52002 80001 333 11196;EQDQ01  00002PRCP99
0175232560999992000021018004+67470+078730FM-12+000899999V0201601N005012200019N0200001N1-02241-02491102621ADDAA199000091GA1001+999999999GF100991001001999999001001KA1999M-01961MD1410001+9999REMSYN064AAXX  10181 23256 32998 01605 11224 21249 40262 54000 333 11196;EQDQ01  00002PRCP99
0122232560999992000021021004+67470+078730FM-12+000899999V0201601N005012200019N0200001N1-02291-02541102631ADDGA1001+999999999GF100991001001999999001001MD1410001+9999REMSYN054AAXX  10211 23256 42998 01605 11229 21254 40263 54000;
0143232560999992000021100004+67470+078730FM-12+000899999V0201601N006012200019N0200001N1-02301-02551102611ADDGA1001+999999999GF100991001001999999001001MA1999999102231MD1710021+9999REMSYN060AAXX  11001 23256 42998 01606 11230 21255 30223 40261 57002;
0181232560999992000021103004+67470+078730FM-12+000899999V0201501N006019999999N0200001N1-02241-02491102601ADDAA199000091AJ100419199999999GF107991021001999999031011IA1249MD1410001+9999REMSYN076AAXX  11031 23256 32998 71506 11224 21249 40260 54000 82031 333 48041 55069;EQDQ01  00002PRCP99
0165232560999992000021106004+67470+078730FM-12+000899999V0201701N007019999999N0200001N1-02041-02291102561ADDAA199000091GF107991031001999999031011KA1999N-02371MD1710041+9999REMSYN070AAXX  11061 23256 32998 71707 11204 21229 40256 57004 83031 333 21237;EQDQ01  00002PRCP99
0112232560999992000021109004+67470+078730FM-12+000899999V0201601N009019999999N0200001N1-01821-02151102571ADDGF108991081001999999071999MD1210011+9999REMSYN060AAXX  11091 23256 42998 81609 11182 21215 40257 52001 8807/;
0188232560999992000021112004+67470+078730FM-12+000899999V0201801N011019999999N0040001N1-01621-01881102531ADDAY131061AY231061GF108991081001999999071999MA1999999102171MD1710031+9999MW1381OA140101401REMSYN088AAXX  11121 23256 41996 81811 11162 21188 30217 40253 57003 73833 8807/ 333 91014 91114;
0193232560999992000021115004+67470+078730FM-12+000899999V0201801N010019999999N0200001N1-01681-01941102571ADDAA199000091AY131031AY221031GF107991071001999999031001KA1999M-01621MD1210041+9999MW1021REMSYN076AAXX  11151 23256 31998 71810 11168 21194 40257 52004 70232 87030 333 11162;EQDQ01  00002PRCP99
0216232560999992000021118004+67470+078730FM-12+000899999V0201901N010019999999N0200001N1-01581-01851102621ADDAA199000091AY131061AY221061GF108991001001999999001061KA1120M-01621MD1210051+9999MW1021OA140101301REMSYN088AAXX  11181 23256 31998 81910 11158 21185 40262 52005 70232 80006 333 11162 91013 91113;EQDQ01  00002PRCP99
0112232560999992000021121004+67470+078730FM-12+000899999V0201801N009019999999N0200001N1-01671-01931102691ADDGF108991001001999999001061MD1210071+9999REMSYN060AAXX  11211 23256 42998 81809 11167 21193 40269 52007 80006;
0160232560999992000021200004+67470+078730FM-12+000899999V0201801N009019999999N0200001N1-01741-02001102761ADDGF108991001001999999001061MA1999999102401MD1210071+9999OA140101201REMSYN082AAXX  12001 23256 42998 81809 11174 21200 30240 40276 52007 80006 333 91012 91113;
0181232560999992000021203004+67470+078730FM-12+000899999V0201701N007012200019N0200001N1-02001-02261102811ADDAA199000091AJ100419199999999GF103991001001999999001011IA1249MD1210041+9999REMSYN076AAXX  12031 23256 32998 31707 11200 21226 40281 52004 80001 333 48041 55000;EQDQ01  00002PRCP99
0181232560999992000021206004+67470+078730FM-12+000899999V0201501N006012200019N0200001N1-02091-02341102771ADDAA199000091GF102991001001999999001011KA1999N+99999MD1710041+9999REMSYN070AAXX  12061 23256 32998 21506 11209 21234 40277 57004 80001 333 21200;EQDQ01  00002PRCP99Q02 -02002ATMN  
0181232560999992000021209004+67470+078730FM-12+000899999V0201501N006012200019N0200001N1-02091-02341102771ADDAA199000091GF102991001001999999001011KA1999N+99999MD1710041+9999REMSYN070AAXX  12091 23256 32998 21506 11209 21234 40277 57004 80001 333 21200;EQDQ01  00002PRCP99Q02 -02002ATMN  
0133232560999992000021212004+67470+078730FM-12+000899999V0201501N006019999999N0200001N1-02141-02391102811ADDGF105991001001999999001011MA1999999102441MD1210011+9999REMSYN066AAXX  12121 23256 42998 51506 11214 21239 30244 40281 52001 80001;
0133232560999992000021215004+67470+078730FM-12+000899999V0201501N006019999999N0200001N1-02141-02391102811ADDGF105991001001999999001011MA1999999102441MD1210011+9999REMSYN066AAXX  12151 23256 42998 51506 11214 21239 30244 40281 52001 80001;
0175232560999992000021218004+67470+078730FM-12+000899999V0201501N007012200019N0200001N1-02221-02471102751ADDAA199000091GA1001+999999999GF100991001001999999001001KA1999M-02001MD1710041+9999REMSYN064AAXX  12181 23256 32998 01507 11222 21247 40275 57004 333 11200;EQDQ01  00002PRCP99
0122232560999992000021221004+67470+078730FM-12+000899999V0201501N005012200019N0200001N1-02311-02551102761ADDGA1001+999999999GF100991001001999999001001MD1410001+9999REMSYN054AAXX  12211 23256 42998 01505 11231 21255 40276 54000;
0143232560999992000021300004+67470+078730FM-12+000899999V0201501N002012200019N0200001N1-02301-02551102711ADDGA1001+999999999GF100991001001999999001001MA1999999102331MD1710051+9999REMSYN060AAXX  13001 23256 42998 01502 11230 21255 30233 40271 57005;
0135232560999992000021306004+67470+078730FM-12+000899999V0201401N008019999999N0200001N1-02221-02471102661ADDGF106991001001999999001011KA1999N-02361MD1710011+9999REMSYN070AAXX  13061 23256 42998 61408 11222 21247 40266 57001 80001 333 21236;
0112232560999992000021309004+67470+078730FM-12+000899999V0201401N006019999999N0200001N1-02121-02371102591ADDGF105991001001999999001011MD1710071+9999REMSYN060AAXX  13091 23256 42998 51406 11212 21237 40259 57007 80001;
0133232560999992000021312004+67470+078730FM-12+000899999V0201401N008019999999N0200001N1-01211-02371102561ADDGF105991001001999999001011MA1999999102191MD1710031+9999REMSYN066AAXX  13121 23256 42998 51408 11121 21237 30219 40256 57003 80001;
0165232560999992000021315004+67470+078730FM-12+000899999V0201301N006012200019N0200001N1-02181-02431102491ADDAA199000091GF102991001001999999001011KA1999M-02111MD1710071+9999REMSYN070AAXX  13151 23256 32998 21306 11218 21243 40249 57007 80001 333 11211;EQDQ01  00002PRCP99
0165232560999992000021318004+67470+078730FM-12+000899999V0201301N006012200019N0200001N1-02191-02441102441ADDAA199000091GF103991001001999999001011KA1999M-02111MD1710051+9999REMSYN070AAXX  13181 23256 32998 31306 11219 21244 40244 57005 80001 333 11211;EQDQ01  00002PRCP99
0112232560999992000021321004+67470+078730FM-12+000899999V0201201N006019999999N0200001N1-02111-02361102341ADDGF108991081001999999071999MD1710101+9999REMSYN060AAXX  13211 23256 42998 81206 11211 21236 40234 57010 8807/;
0179232560999992000021403004+67470+078730FM-12+000899999V0201201N007019999999N0100001N1-02001-02331102181ADDAJ100419199999999AY171031AY221031GF108991081001999999071999IA1249MD1710111+9999MW1711REMSYN082AAXX  14031 23256 /1997 81207 11200 21233 40218 57011 77172 8807/ 333 48041 55047;
0174232560999992000021406004+67470+078730FM-12+000899999V0201201N005019999999N0200001N1+99999+99999102091ADDAA100000791AY171061AY221061GF107991071001999999031001KA1999N-02261MD1710091+9999MW1021REMSYN076AAXX  14061 23256 11998 71205 21238 40209 57009 69900 70272 87030 333 21226;
0112232560999992000021409004+67470+078730FM-12+000899999V0201201N005012200019N0200001N1-02051-02381102011ADDGF103991001001999999001011MD1710081+9999REMSYN060AAXX  14091 23256 42998 31205 11205 21238 40201 57008 80001;
0133232560999992000021412004+67470+078730FM-12+000899999V0201101N004012200019N0200001N1-02251-02501102011ADDGF103991001001999999001011MA1999999101641MD1410001+9999REMSYN066AAXX  14121 23256 42998 31104 11225 21250 30164 40201 54000 80001;
0162232560999992000021418004+67470+078730FM-12+000899999V0201201N003012200019N0200001N1-02401-02651101851ADDAA100000791GA1001+999999999GF100991001001999999001001KA1999M-02001MD1710071+9999REMSYN070AAXX  14181 23256 12998 01203 11240 21265 40185 57007 69900 333 11200;
0140232560999992000021421004+67470+078730FM-12+000899999V0201001N002019999999N0200001N1-02191-02441101711ADDAY171031AY211031GF108991001001999999001061MD1710141+9999MW1711REMSYN066AAXX  14211 23256 41998 81002 11219 21244 40171 57014 77171 80006;
0161232560999992000021500004+67470+078730FM-12+000899999V0200901N002019999999N0200001N1-02041-02291101631ADDAY171061AY241061GF108991001001999999001061MA1999999101261MD1710081+9999MW1711REMSYN072AAXX  15001 23256 41998 80902 11204 21229 30126 40163 57008 77174 80006;
0179232560999992000021503004+67470+078730FM-12+000899999V0201001N003019999999N0200001N1-02321-02571101521ADDAJ100419199999999AY171031AY221031GF108991001001999999001061IA1249MD1710111+9999MW1711REMSYN082AAXX  15031 23256 /1998 81003 11232 21257 40152 57011 77172 80006 333 48041 55042;
0180232560999992000021506004+67470+078730FM-12+000899999V0201001N002019999999N0200001N1-02481-02731101421ADDAA100000391AY171061AY221061GF106991001001999999001011KA1999N-02461MD1710101+9999MW1021REMSYN082AAXX  15061 23256 11998 61002 11248 21273 40142 57010 69930 70272 80001 333 21246;
0112232560999992000021509004+67470+078730FM-12+000899999V0201101N002019999999N0200001N1-02431-02751101431ADDGF107991001001999999001011MD1210011+9999REMSYN060AAXX  15091 23256 42998 71102 11243 21275 40143 52001 80001;
0187232560999992000021512004+67470+078730FM-12+000899999V0201101N002010078019N0200001N1-02551-02801101391ADDAY171061AY221061GA1051+007809059GF108991051051008001001061MA1999999101021MD1710041+9999MW1021REMSYN082AAXX  15121 23256 41598 81102 11255 21280 30102 40139 57004 70272 85506 333 85626;
0185232560999992000021515004+67470+078730FM-12+000899999V0201101N001010069019N0200001N1-02361-02611101371ADDAY171031AY221031GA1051+006909059GF108991051051008001001061KA1120M-02321MD1710021+9999MW1711REMSYN082AAXX  15151 23256 /1598 81101 11236 21261 40137 57002 77172 85506 333 11232 85623;
0180232560999992000021518004+67470+078730FM-12+000899999V0201201N002012200019N0200001N1-02581-02821101371ADDAA100000191AY171061AY211061GF102991001001999999001011KA1999M-02321MD1410001+9999MW1021REMSYN082AAXX  15181 23256 11998 21202 11258 21282 40137 54000 69920 70271 80001 333 11232;
0140232560999992000021521004+67470+078730FM-12+000899999V0201501N001019999999N0200001N1-02511-02751101381ADDAY111031AY211031GF108991001001999999001061MD1210011+9999MW1711REMSYN066AAXX  15211 23256 41998 81501 11251 21275 40138 52001 77111 80006;
0161232560999992000021600004+67470+078730FM-12+000899999V0201301N001019999999N0200001N1-02521-02771101421ADDAY171061AY211061GF108991001001999999001061MA1999999101051MD1210041+9999MW1711REMSYN072AAXX  16001 23256 41998 81301 11252 21277 30105 40142 52004 77171 80006;
0209232560999992000021603004+67470+078730FM-12+000899999V0201301N002010072019N0200001N1-02401-02651101451ADDAJ100419199999999AY171031AY221031GA1051+007209059GF108991051051008001001061GJ103549IA1249MD1210031+9999MW1711REMSYN088AAXX  16031 23256 /1598 81302 11240 21265 40145 52003 77172 85506 333 48041 55059 85624;
0180232560999992000021606004+67470+078730FM-12+000899999V0209999C000019999999N0200001N1-02371-02611101501ADDAA100000591AY171061AY221061GF108991001001999999001061KA1999N-02641MD1210051+9999MW1711REMSYN082AAXX  16061 23256 11998 80000 11237 21261 40150 52005 69940 77172 80006 333 21264;
0166232560999992000021609004+67470+078730FM-12+000899999V0201301N001010750019N0200001N1-02371-02611101621ADDAY171031AY221031GA1041+004209059GF108991041051004501001061MD1210121+9999MW1021REMSYN076AAXX  16091 23256 41498 81301 11237 21261 40162 52012 70272 84506 333 84614;
0187232560999992000021612004+67470+078730FM-12+000899999V0209999C000010084019N0200001N1-02501-02741101711ADDAY171061AY221061GA1051+008409059GF108991051051008001001061MA1999999101341MD1210091+9999MW1711REMSYN082AAXX  16121 23256 41598 80000 11250 21274 30134 40171 52009 77172 85506 333 85628;
0163232560999992000021615004+67470+078730FM-12+000899999V0201501N001019999999N0200001N1-02641-02881101731ADDAY171031AY221031GF108991001001999999001061KA1999M-02341MD1210021+9999MW1711REMSYN076AAXX  16151 23256 /1998 81501 11264 21288 40173 52002 77172 80006 333 11234;
0180232560999992000021618004+67470+078730FM-12+000899999V0202501N001019999999N0200001N1-02681-03001101801ADDAA100000191AY171061AY221061GF106991001001999999001011KA1999M-02341MD1210071+9999MW1021REMSYN082AAXX  16181 23256 11998 62501 11268 21300 40180 52007 69920 70272 80001 333 11234;
0112232560999992000021621004+67470+078730FM-12+000899999V0202201N002019999999N0200001N1-02761-03061101921ADDGF105991001001999999001011MD1210111+9999REMSYN060AAXX  16211 23256 42998 52202 11276 21306 40192 52011 80001;
0133232560999992000021700004+67470+078730FM-12+000899999V0201501N002019999999N0200001N1-02921-03221101961ADDGF105991021001999999031011MA1999999101581MD1210041+9999REMSYN066AAXX  17001 23256 42998 51502 11292 21322 30158 40196 52004 82031;
0179232560999992000021703004+67470+078730FM-12+000899999V0201701N002019999999N0200001N1-02821-03131102041ADDAJ100439199999999AY121031AY221031GF108991021001999999031011IA1249MD1210081+9999MW1711REMSYN082AAXX  17031 23256 /1998 81702 11282 21313 40204 52008 77122 82031 333 48043 55035;
0180232560999992000021706004+67470+078730FM-12+000899999V0201501N002019999999N0200001N1-02661-02971102081ADDAA100000791AY171061AY221061GF107991031001999999031011KA1999N-02961MD1210041+9999MW1221REMSYN082AAXX  17061 23256 11998 71502 11266 21297 40208 52004 69900 72272 83031 333 21296;
0112232560999992000021709004+67470+078730FM-12+000899999V0201501N003019999999N0200001N1-02541-02851102141ADDGF107991001001999999001011MD1210061+9999REMSYN060AAXX  17091 23256 42998 71503 11254 21285 40214 52006 80001;
0161232560999992000021712004+67470+078730FM-12+000899999V0201601N002019999999N0200001N1-02491-02811102181ADDAY171061AY221061GF108991001001999999001061MA1999999101801MD1210041+9999MW1711REMSYN072AAXX  17121 23256 41998 81602 11249 21281 30180 40218 52004 77172 80006;
0163232560999992000021715004+67470+078730FM-12+000899999V0201501N002019999999N0200001N1-02541-02851102251ADDAY171031AY221031GF108991031001999999031061KA1999M-02391MD1210071+9999MW1711REMSYN076AAXX  17151 23256 /1998 81502 11254 21285 40225 52007 77172 83036 333 11239;
0180232560999992000021718004+67470+078730FM-12+000899999V0201601N002019999999N0200001N1-02511-02821102321ADDAA100000191AY171061AY221061GF108991081001999999071999KA1999M-02391MD1210071+9999MW1711REMSYN082AAXX  17181 23256 11998 81602 11251 21282 40232 52007 69920 77172 8807/ 333 11239;
0140232560999992000021721004+67470+078730FM-12+000899999V0201601N002019999999N0200001N1-02881-03181102381ADDAY171031AY221031GF108991081001999999071999MD1210061+9999MW1021REMSYN066AAXX  17211 23256 41998 81602 11288 21318 40238 52006 70272 8807/;
