0208310880999992000010100004+59370+143200FM-12+000699999V0203601N005010075019N0500001N1-01611-02121103741ADDAA100000191AJ100089199999999GF106991061051008001001001IA1239KA1120N-01661MA1999999103661MD1210101+9999REMSYN094AAXX  01001 31088 12599 63605 11161 21212 30366 40374 52010 69920 86500 333 21166 47008 55000;
0112310880999992000010103004+59370+143200FM-12+000699999V0203501N004010300019N0500001N1-01581-02091103781ADDGF107991041051008001031011MD1110041+9999REMSYN060AAXX  01031 31088 42599 73504 11158 21209 40378 51004 84531;
0112310880999992000010106004+59370+143200FM-12+000699999V0200301N004010300019N0500001N1-01511-02021103761ADDGF107991021051008001041011MD1810021+9999REMSYN060AAXX  01061 31088 42599 70304 11151 21202 40376 58002 82541;
0165310880999992000010109004+59370+143200FM-12+000699999V0203601N005010300019N0500001N1-01541-02141103751ADDAA106000091GF107991021051008001041011KA1999M-01451MD1710011+9999REMSYN070AAXX  01091 31088 32599 73605 11154 21214 40375 57001 82541 333 11145;EQDQ01  00002PRCP06
0186310880999992000010112004+59370+143200FM-12+000699999V0200301N003019999999N0500001N1-01661-02251103771ADDAA106000091GF106991031001999999041011KA1999M-01451MA1999999103691MD1310021+9999REMSYN076AAXX  01121 31088 32999 60303 11166 21225 30369 40377 53002 83041 333 11145;EQDQ01  00002PRCP06
0112310880999992000010115004+59370+143200FM-12+000699999V0200201N004019999999N0500001N1-01761-02261103711ADDGF106991021001999999041011MD1810061+9999REMSYN060AAXX  01151 31088 42999 60204 11176 21226 40371 58006 82041;
0112310880999992000010118004+59370+143200FM-12+000699999V0200201N003010300019N0500001N1-01721-02221103601ADDGF107991031051008001051011MD1710031+9999REMSYN060AAXX  01181 31088 42599 70203 11172 21222 40360 57003 83551;
0158310880999992000010121004+59370+143200FM-12+000699999V0200201N004010075019N0500001N1-01401-01911103651ADDAA106000091GF108991061051008001051999IA1239MD1710031+9999REMSYN070AAXX  01211 31088 32599 80204 11140 21191 40365 57003 8655/ 333 47008;EQDQ01  00002PRCP06
0251310880999992000010200004+59370+143200FM-12+000699999V0203501N004010081019N0500001N1-01411-02021103641ADDAA106000091AJ100089199999999GA1081+008109059GF108991081051008001999999GJ100009IA1239KA1120N-01831MA1999999103561MD1710011+9999REMSYN094AAXX  02001 31088 32599 83504 11141 21202 30356 40364 57001 885// 333 21183 47008 55000 88627;EQDQ01  00002PRCP06
0138310880999992000010203004+59370+143200FM-12+000699999V0203601N004010081019N0500001N1-01321-02031103561ADDGA1081+008109059GF108991081051008001999999MD1710081+9999REMSYN070AAXX  02031 31088 42599 83604 11132 21203 40356 57008 885// 333 88627;
0138310880999992000010206004+59370+143200FM-12+000699999V0200101N004010078019N0500001N1-01281-01891103411ADDGA1081+007809059GF108991081051008001999999MD1810151+9999REMSYN070AAXX  02061 31088 42599 80104 11128 21189 40341 58015 885// 333 88626;
0187310880999992000010209004+59370+143200FM-12+000699999V0200101N003010078019N0500001N1-01351-01961103551ADDAA106000091GA1081+007809059GF108991081051008001999999KA1120M-01261MD1310141+9999REMSYN076AAXX  02091 31088 32599 80103 11135 21196 40355 53014 885// 333 11126 88626;EQDQ01  00002PRCP06
0208310880999992000010212004+59370+143200FM-12+000699999V0203601N004010078019N0500001N1-01381-02091103591ADDAA106000091GA1061+007809059GF106991061051008001001001KA1120M-01261MA1999999103511MD1110041+9999REMSYN082AAXX  02121 31088 32599 63604 11138 21209 30351 40359 51004 86500 333 11126 86626;EQDQ01  00002PRCP06
0138310880999992000010215004+59370+143200FM-12+000699999V0203501N003010072019N0500001N1-01401-02011103611ADDGA1081+007209059GF108991081051008001999999MD1210021+9999REMSYN070AAXX  02151 31088 42599 83503 11140 21201 40361 52002 885// 333 88624;
0138310880999992000010218004+59370+143200FM-12+000699999V0203601N004010066019N0500001N1-01431-02041103531ADDGA1081+006609059GF108991081051008001999999MD1810081+9999REMSYN070AAXX  02181 31088 42599 83604 11143 21204 40353 58008 885// 333 88622;
0197310880999992000010221004+59370+143200FM-12+000699999V0203601N004010072019N0500001N1-01521-02121103551ADDAA106000091AJ100089199999999GA1081+007209059GF108991081051008001999999IA1239MD1310021+9999REMSYN076AAXX  02211 31088 32599 83604 11152 21212 40355 53002 885// 333 47008 88624;EQDQ01  00002PRCP06
0112310880999992000010303004+59370+143200FM-12+000699999V0200101N003010075019N0500001N1-01541-02141103591ADDGF108991061051008001071999MD1310041+9999REMSYN060AAXX  03031 31088 42599 80103 11154 21214 40359 53004 8657/;
0101310880999992000010306004+59370+143200FM-12+000699999V0200201N003010075019N0500001N1-01551-02151999999ADDGF108991051051008001071999ME1310029REMSYN054AAXX  03061 31088 42599 80203 11155 21215 48002 8557/;
0165310880999992000010309004+59370+143200FM-12+000699999V0200201N002010300019N0500001N1-01591-02191103651ADDAA106000091GF107991031051008001041011KA1999M-01521MD1310081+9999REMSYN070AAXX  03091 31088 32599 70202 11159 21219 40365 53008 83541 333 11152;EQDQ01  00002PRCP06
0186310880999992000010312004+59370+143200FM-12+000699999V0200101N003010075019N0500001N1-01661-02161103711ADDAA106000091GF107991051051008001031011KA1999M-01521MA1999999103631MD1210061+9999REMSYN076AAXX  03121 31088 32599 70103 11166 21216 30363 40371 52006 85531 333 11152;EQDQ01  00002PRCP06
0112310880999992000010315004+59370+143200FM-12+000699999V0200101N004010075019N0500001N1-01731-02231103701ADDGF107991061051008001031011MD1810011+9999REMSYN060AAXX  03151 31088 42599 70104 11173 21223 40370 58001 86531;
0112310880999992000010318004+59370+143200FM-12+000699999V0200101N003010075019N0500001N1-01681-02181103711ADDGF107991051051008001031011MD1310011+9999REMSYN060AAXX  03181 31088 42599 70103 11168 21218 40371 53001 85531;
0158310880999992000010321004+59370+143200FM-12+000699999V0200101N002010300019N0500001N1-01601-02021103811ADDAA106000091GF107991031051008001031011IA1239MD1210101+9999REMSYN070AAXX  03211 31088 32599 70102 11160 21202 40381 52010 83531 333 47008;EQDQ01  00002PRCP06
0251310880999992000010400004+59370+143200FM-12+000699999V0200101N003010072019N0500001N1-01611-01951103801ADDAA106000091AJ100089199999999GA1061+007209059GF107991061051008001051001GJ100009IA1239KA1120N-01771MA1999999103721MD1810011+9999REMSYN094AAXX  04001 31088 32599 70103 11161 21195 30372 40380 58001 86550 333 21177 47008 55000 86624;EQDQ01  00002PRCP06
0112310880999992000010403004+59370+143200FM-12+000699999V0203601N002010075019N0500001N1-01481-01911103771ADDGF108991051051008001011999MD1710031+9999REMSYN060AAXX  04031 31088 42599 83602 11148 21191 40377 57003 8551/;
0112310880999992000010406004+59370+143200FM-12+000699999V0203301N003010075019N0500001N1-01371-01801103771ADDGF108991061051008001011999MD1410001+9999REMSYN060AAXX  04061 31088 42599 83303 11137 21180 40377 54000 8651/;
0187310880999992000010409004+59370+143200FM-12+000699999V0200101N001010069019N0500001N1-01521-01941103751ADDAA106000091GA1081+006909059GF108991081051008001999999KA1120M-01351MD1810021+9999REMSYN076AAXX  04091 31088 32599 80101 11152 21194 40375 58002 885// 333 11135 88623;EQDQ01  00002PRCP06
0186310880999992000010412004+59370+143200FM-12+000699999V0200201N003010075019N0500001N1-01501-01921103771ADDAA106000091GF108991081051008001999999KA1999M-01351MA1999999103691MD1310021+9999REMSYN076AAXX  04121 31088 32599 80203 11150 21192 30369 40377 53002 885// 333 11135;EQDQ01  00002PRCP06
0112310880999992000010415004+59370+143200FM-12+000699999V0200101N001010075019N0500001N1-01481-01821103741ADDGF108991051051008001071999MD1810031+9999REMSYN060AAXX  04151 31088 42599 80101 11148 21182 40374 58003 8557/;
0112310880999992000010418004+59370+143200FM-12+000699999V0200101N003010300019N0500001N1-01421-01851103651ADDGF108991031051008001071999MD1710091+9999REMSYN060AAXX  04181 31088 42599 80103 11142 21185 40365 57009 8357/;
0158310880999992000010421004+59370+143200FM-12+000699999V0200101N001010075019N0500001N1-01441-01871103641ADDAA106000091GF108991051051008001071999IA1279MD1610011+9999REMSYN070AAXX  04211 31088 32599 80101 11144 21187 40364 56001 8557/ 333 43008;EQDQ01  00002PRCP06
0221310880999992000010500004+59370+143200FM-12+000699999V0200101N003019999999N0500001N1-01421-01851103681ADDAA106000091AJ100089199999999GF108991081001999999071999IA1279KA1120N-01541MA1999999103601MD1310041+9999REMSYN088AAXX  05001 31088 32999 80103 11142 21185 30360 40368 53004 8807/ 333 21154 43008 55000;EQDQ01  00002PRCP06
0112310880999992000010503004+59370+143200FM-12+000699999V0200301N002019999999N0500001N1-01361-01791103661ADDGF108991081001999999071999MD1810021+9999REMSYN060AAXX  05031 31088 42999 80302 11136 21179 40366 58002 8807/;
0112310880999992000010506004+59370+143200FM-12+000699999V0200201N003019999999N0500001N1-01381-01901103661ADDGF108991081001999999071999MD1410001+9999REMSYN060AAXX  05061 31088 42999 80203 11138 21190 40366 54000 8807/;
0165310880999992000010509004+59370+143200FM-12+000699999V0200401N003019999999N0500001N1-01451-01961103691ADDAA106000091GF107991061001999999051011KA1999M-01311MD1310031+9999REMSYN070AAXX  05091 31088 32999 70403 11145 21196 40369 53003 86051 333 11131;EQDQ01  00002PRCP06
0186310880999992000010512004+59370+143200FM-12+000699999V0203601N002019999999N0500001N1-01581-02091103781ADDAA106000091GF107991061001999999051011KA1999M-01311MA1999999103701MD1210091+9999REMSYN076AAXX  05121 31088 32999 73602 11158 21209 30370 40378 52009 86051 333 11131;EQDQ01  00002PRCP06
0112310880999992000010515004+59370+143200FM-12+000699999V0200101N003010300019N0500001N1-01511-02021103771ADDGF107991031051008001051011MD1810011+9999REMSYN060AAXX  05151 31088 42599 70103 11151 21202 40377 58001 83551;
0112310880999992000010518004+59370+143200FM-12+000699999V0200101N003010075019N0500001N1-01511-02021103771ADDGF108991051051008001021999MD1410001+9999REMSYN060AAXX  05181 31088 42599 80103 11151 21202 40377 54000 8552/;
0158310880999992000010521004+59370+143200FM-12+000699999V0200201N003010300019N0500001N1-01501-02011103781ADDAA106000091GF108991031051008001051999IA1279MD1310011+9999REMSYN070AAXX  05211 31088 32599 80203 11150 21201 40378 53001 8355/ 333 43008;EQDQ01  00002PRCP06
0112310880999992000010603004+59370+143200FM-12+000699999V0200301N004019999999N0500001N1-01481-01991103831ADDGF108991081001999999071999MD1810031+9999REMSYN060AAXX  06031 31088 42999 80304 11148 21199 40383 58003 8807/;
0112310880999992000010606004+59370+143200FM-12+000699999V0200201N003019999999N0500001N1-01401-01911103821ADDGF108991081001999999071999MD1210011+9999REMSYN060AAXX  06061 31088 42999 80203 11140 21191 40382 52001 8807/;
0165310880999992000010609004+59370+143200FM-12+000699999V0200201N004019999999N0500001N1-01441-02051103861ADDAA106000091GF107991061001999999051011KA1999M-01391MD1310041+9999REMSYN070AAXX  06091 31088 32999 70204 11144 21205 40386 53004 86051 333 11139;EQDQ01  00002PRCP06
0186310880999992000010612004+59370+143200FM-12+000699999V0200201N003019999999N0500001N1-01451-01961103851ADDAA106000091GF108991081001999999071999KA1999M-01391MA1999999103771MD1810011+9999REMSYN076AAXX  06121 31088 32999 80203 11145 21196 30377 40385 58001 8807/ 333 11139;EQDQ01  00002PRCP06
0140310880999992000010615004+59370+143200FM-12+000699999V0200201N004019999999N0200001N1-01521-01941103791ADDAY171031AY221031GF108991081001999999021999MD1710061+9999MW1711REMSYN066AAXX  06151 31088 41998 80204 11152 21194 40379 57006 77172 8802/;
0156310880999992000010621004+59370+143200FM-12+000699999V0200201N005010075019N0040001N1-01491-01621103701ADDAY181031AY271031GF108991081091008001999999IA1239MD1710041+9999MW1851REMSYN076AAXX  06211 31088 /1596 80205 11149 21162 40370 57004 78587 889// 333 47009;
0236310880999992000010700004+59370+143200FM-12+000699999V0203601N004010075019N0020001N1-01461-01591103641ADDAA100001091AJ100099199999999AY181061AY271061GF108991081091008001999999IA1239KA1120N-01561MA1999999103561MD1710061+9999MW1861REMSYN100AAXX  07001 31088 11595 83604 11146 21159 30356 40364 57006 69990 78687 889// 333 21156 47009 55000;
0140310880999992000010703004+59370+143200FM-12+000699999V0203601N005010075019N0010001N1-01381-01441103521ADDAY181031AY221031GF108991081091008001999999MD1810121+9999MW1861REMSYN066AAXX  07031 31088 41594 83605 11138 21144 40352 58012 78682 889//;
0140310880999992000010706004+59370+143200FM-12+000699999V0203601N004010075019N0010001N1-01271-01331103521ADDAY181061AY221061GF108991081091008001999999MD1410001+9999MW1861REMSYN066AAXX  07061 31088 41594 83604 11127 21133 40352 54000 78682 889//;
0163310880999992000010709004+59370+143200FM-12+000699999V0203501N005010075019N0040001N1-01241-01371103511ADDAY181031AY221031GF108991081091008001999999KA1999M-01231MD1810011+9999MW1851REMSYN076AAXX  07091 31088 /1596 83505 11124 21137 40351 58001 78582 889// 333 11123;
0201310880999992000010712004+59370+143200FM-12+000699999V0200201N004010075019N0040001N1-01181-01311103571ADDAA100003091AY181061AY221061GF108991081091008001999999KA1999M-01231MA1999999103491MD1310061+9999MW1851REMSYN088AAXX  07121 31088 11596 80204 11118 21131 30349 40357 53006 60030 78582 889// 333 11123;
0140310880999992000010715004+59370+143200FM-12+000699999V0200101N004010075019N0020001N1-01121-01181103481ADDAY181031AY221031GF108991081091008001999999MD1810081+9999MW1861REMSYN066AAXX  07151 31088 41595 80104 11112 21118 40348 58008 78682 889//;
0140310880999992000010718004+59370+143200FM-12+000699999V0200101N005010075019N0200001N1-00961-01041103281ADDAY181061AY221061GF108991081091008001999999MD1810201+9999MW1021REMSYN066AAXX  07181 31088 41598 80105 11096 21104 40328 58020 70282 889//;
0156310880999992000010721004+59370+143200FM-12+000699999V0200801N004010075019N0200001N1-00681-01011103321ADDAY181031AY221031GF108991081091008001999999IA1239MD1310041+9999MW1021REMSYN076AAXX  07211 31088 /1598 80804 11068 21101 40332 53004 70282 889// 333 47017;
0238310880999992000010800004+59370+143200FM-12+000699999V0203401N002010069019N0500001N1-01071-01201103221ADDAA100000591AJ100179199999999GA1061+006909059GF108991081031008001999999GJ100009IA1239KA1120N-01251MA1999999103151MD1810101+9999REMSYN100AAXX  08001 31088 12599 83402 11107 21120 30315 40322 58010 69960 883// 333 21125 47017 55000 86623;
0112310880999992000010803004+59370+143200FM-12+000699999V0200101N002010075019N0500001N1-01031-01231102921ADDGF108991061031008001071999MD1810301+9999REMSYN060AAXX  08031 31088 42599 80102 11103 21123 40292 58030 8637/;
0112310880999992000010806004+59370+143200FM-12+000699999V0200601N001010075019N0500001N1-00651-01541102661ADDGF108991061031008001071999MD1710261+9999REMSYN060AAXX  08061 31088 42599 80601 11065 21154 40266 57026 8637/;
0163310880999992000010809004+59370+143200FM-12+000699999V0200501N007010075019N0040001N1-00631-01711102451ADDAY171031AY221031GF108991061051008001071999KA1999M-00591MD1710211+9999MW1711REMSYN076AAXX  08091 31088 /1596 80507 11063 21171 40245 57021 77172 8657/ 333 11059;
0201310880999992000010812004+59370+143200FM-12+000699999V0200501N006010300019N0200001N1-00681-01301102261ADDAA100000191AY171061AY231061GF108991041051008001021999KA1999M-00591MA1999999102191MD1710191+9999MW1361REMSYN088AAXX  08121 31088 11598 80506 11068 21130 30219 40226 57019 69920 73673 8452/ 333 11059;
0140310880999992000010815004+59370+143200FM-12+000699999V0200401N004010300019N0040001N1-00771-00871102101ADDAY171031AY231031GF108991031051008001021999MD1710161+9999MW1711REMSYN066AAXX  08151 31088 41596 80404 11077 21087 40210 57016 77173 8352/;
0140310880999992000010818004+59370+143200FM-12+000699999V0200301N005010300019N0020001N1-00701-00791101931ADDAY171061AY231061GF108991041071004501021999MD1710171+9999MW1731REMSYN066AAXX  08181 31088 41495 80305 11070 21079 40193 57017 77373 8472/;
0156310880999992000010821004+59370+143200FM-12+000699999V0200601N006010042019N0020001N1-00671-00911101821ADDAY171031AY231031GF108991051071004501021999IA1239MD1710111+9999MW1731REMSYN076AAXX  08211 31088 /1495 80606 11067 21091 40182 57011 77373 8572/ 333 47021;
0236310880999992000010900004+59370+143200FM-12+000699999V0200201N004010042019N0020001N1-00651-00811101661ADDAA100004191AJ100219199999999AY171061AY231061GF108991051071004501021999IA1239KA1120N-00781MA1999999101591MD1710161+9999MW1711REMSYN100AAXX  09001 31088 11495 80204 11065 21081 30159 40166 57016 60040 77173 8572/ 333 21078 47021 55000;
0150310880999992000010903004+59370+143200FM-12+000699999V0200601N006019999999N0040001N1-00621-00891101571ADDAY171031AY231031GF108991081001999999021999MD1710091+9999MW1711REMSYN076AAXX  09031 31088 41996 80606 11062 21089 40157 57009 77173 8802/ 333 91114;
0163310880999992000010909004+59370+143200FM-12+000699999V0200101N005019999999N0020001N1-00721-00971101531ADDAY171031AY231031GF108991081001999999021999KA1999M-00561MD1310041+9999MW1711REMSYN076AAXX  09091 31088 /1995 80105 11072 21097 40153 53004 77173 8802/ 333 11056;
0201310880999992000010912004+59370+143200FM-12+000699999V0200901N007010042019N0020001N1-00671-00911101611ADDAA100002091AY171061AY231061GF108991061071004501021999KA1999M-00561MA1999999101541MD1210081+9999MW1731REMSYN088AAXX  09121 31088 11495 80907 11067 21091 30154 40161 52008 60020 77373 8672/ 333 11056;
0150310880999992000010915004+59370+143200FM-12+000699999V0200901N006010042019N0040001N1-00641-00761101651ADDAY171031AY231031GF108991051071004501021999MD1210041+9999MW1711REMSYN076AAXX  09151 31088 41496 80906 11064 21076 40165 52004 77173 8572/ 333 91112;
0140310880999992000010918004+59370+143200FM-12+000699999V0200601N004019999999N0500001N1-00661-01271101591ADDAY171061AY231061GF108991081001999999021999MD1810061+9999MW1011REMSYN066AAXX  09181 31088 41999 80604 11066 21127 40159 58006 70173 8802/;
0156310880999992000010921004+59370+143200FM-12+000699999V0203501N006019999999N0500001N1-00731-01491101611ADDAY131031AY221031GF108991081001999999031999IA1239MD1310021+9999MW1361REMSYN076AAXX  09211 31088 /1999 83506 11073 21149 40161 53002 73632 8803/ 333 47022;
0236310880999992000011000004+59370+143200FM-12+000699999V0203601N002010300019N0200001N1-00711-01401101541ADDAA100002091AJ100229199999999AY131061AY221061GF108991041031008001021999IA1239KA1120N-00821MA1999999101471MD1810071+9999MW1031REMSYN100AAXX  10001 31088 11598 83602 11071 21140 30147 40154 58007 60020 70332 8432/ 333 21082 47022 55000;
0140310880999992000011003004+59370+143200FM-12+000699999V0200101N003010075019N0040001N1-00941-01011101511ADDAY181031AY221031GF108991061091008001021999MD1710031+9999MW1851REMSYN066AAXX  10031 31088 41596 80103 11094 21101 40151 57003 78582 8692/;
0140310880999992000011006004+59370+143200FM-12+000699999V0200401N003010075019N0040001N1-00861-00971101521ADDAY181061AY221061GF108991071091008001021999MD1310011+9999MW1851REMSYN066AAXX  10061 31088 41596 80403 11086 21097 40152 53001 78582 8792/;
0163310880999992000011009004+59370+143200FM-12+000699999V0202701N003010075019N0040001N1-00961-01081101721ADDAY181031AY221031GF108991081091008001999999KA1999M-00591MD1310201+9999MW1851REMSYN076AAXX  10091 31088 /1596 82703 11096 21108 40172 53020 78582 889// 333 11059;
0201310880999992000011012004+59370+143200FM-12+000699999V0200601N002010300019N0500001N1-01131-01191102011ADDAA100003091AY181061AY221061GF107991031051008001041011KA1999M-00591MA1999999101941MD1210291+9999MW1011REMSYN088AAXX  10121 31088 11599 70602 11113 21119 30194 40201 52029 60030 70182 83541 333 11059;
0112310880999992000011015004+59370+143200FM-12+000699999V0200101N001010300019N0500001N1-01691-01751102191ADDGF107991031051008001041011MD1110171+9999REMSYN060AAXX  10151 31088 42599 70101 11169 21175 40219 51017 83541;
0140310880999992000011018004+59370+143200FM-12+000699999V0203501N002010075019N0020001N1-01741-01861102341ADDAY171061AY211061GF108991061051008001021999MD1210151+9999MW1701REMSYN066AAXX  10181 31088 41595 83502 11174 21186 40234 52015 77071 8652/;
0156310880999992000011021004+59370+143200FM-12+000699999V0200201N004010075019N0500001N1-01821-01941102501ADDAY171031AY221031GF107991051051008001051011IA1239MD1210161+9999MW1011REMSYN076AAXX  10211 31088 /1599 70204 11182 21194 40250 52016 70172 85551 333 47025;
0236310880999992000011100004+59370+143200FM-12+000699999V0200101N004012200019N0500001N1-01921-02041102611ADDAA100000591AJ100259199999999AY171061AY221061GF107991021031008001001011IA1239KA1120N-01941MA1999999102531MD1210111+9999MW1021REMSYN100AAXX  11001 31088 11599 70104 11192 21204 30253 40261 52011 69960 70272 82301 333 21194 47025 55000;
0112310880999992000011103004+59370+143200FM-12+000699999V0200201N004019999999N0500001N1-01801-01921102501ADDGF105991001001999999001011MD1810111+9999REMSYN060AAXX  11031 31088 42999 50204 11180 21192 40250 58011 80001;
0112310880999992000011106004+59370+143200FM-12+000699999V0200301N004012200019N0500001N1-01811-01931102351ADDGF103991021001999999031011MD1710151+9999REMSYN060AAXX  11061 31088 42999 30304 11181 21193 40235 57015 82031;
0165310880999992000011109004+59370+143200FM-12+000699999V0200201N005012200019N0500001N1-01941-02061102111ADDAA106000091GF103991021001999999031011KA1999M-01781MD1810241+9999REMSYN070AAXX  11091 31088 32999 30205 11194 21206 40211 58024 82031 333 11178;EQDQ01  00002PRCP06
0186310880999992000011112004+59370+143200FM-12+000699999V0203601N004012200019N0500001N1-01891-02081101761ADDAA106000091GF102991021001999999031001KA1999M-01781MA1999999101681MD1710351+9999REMSYN076AAXX  11121 31088 32999 23604 11189 21208 30168 40176 57035 82030 333 11178;EQDQ01  00002PRCP06
0140310880999992000011115004+59370+143200FM-12+000699999V0203601N006019999999N0500001N1-01711-02051101341ADDAY131031AY211031GF108991081001999999071999MD1710411+9999MW1361REMSYN066AAXX  11151 31088 41999 83606 11171 21205 40134 57041 73631 8807/;
0140310880999992000011118004+59370+143200FM-12+000699999V0203501N007010300019N0500001N1-01491-02001100821ADDAY131061AY211061GF108991031051008001071999MD1710521+9999MW1361REMSYN066AAXX  11181 31088 41599 83507 11149 21200 40082 57052 73631 8357/;
0209310880999992000011121004+59370+143200FM-12+000699999V0203301N008010300019N0200001N1-01221-01841100411ADDAA106000091AJ100229199999999AY131031AY221031GF108991031051008001071999IA1239MD1610391+9999MW1361REMSYN082AAXX  11211 31088 31598 83308 11122 21184 40041 56039 73632 8357/ 333 47022 91113;EQDQ01  00002PRCP06
0263310880999992000011200004+59370+143200FM-12+000699999V0200101N007010300019N0500001N1-00901-01571100111ADDAA106000091AJ100229199999999AY131061AY221061GF108991021051008001051999GJ102469IA1239KA1120N-02031MA1999999100041MD1710301+9999MW1361REMSYN100AAXX  12001 31088 31599 80107 11090 21157 30004 40011 57030 73632 8255/ 333 21203 47022 55041 91112;EQDQ01  00002PRCP06
0150310880999992000011203004+59370+143200FM-12+000699999V0200101N008019999999N0500001N1-00781-01511099811ADDAY131031AY221031GF108991081001008001071999MD1710301+9999MW1361REMSYN076AAXX  12031 31088 41599 80108 11078 21151 49981 57030 73632 8807/ 333 91113;
0150310880999992000011206004+59370+143200FM-12+000699999V0200101N006010300019N0040001N1-00841-01121099701ADDAY171061AY231061GF108991031051008001071999MD1810111+9999MW1711REMSYN076AAXX  12061 31088 41596 80106 11084 21112 49970 58011 77173 8357/ 333 91112;
0169310880999992000011209004+59370+143200FM-12+000699999V0203601N007010300019N0040001N1-00941-01061099641ADDAY171031AY231031GF108991041051008001021999KA1120M-00771MD1710061+9999MW1711REMSYN082AAXX  12091 31088 /1596 83607 11094 21106 49964 57006 77173 8452/ 333 11077 91112;
0207310880999992000011212004+59370+143200FM-12+000699999V0200101N008010300019N0040001N1-00961-01481099611ADDAA100000891AY171061AY231061GF108991021051008001031999KA1120M-00771MA1999999099541MD1710031+9999MW1711REMSYN094AAXX  12121 31088 11596 80108 11096 21148 39954 49961 57003 69970 77173 8253/ 333 11077 91113;
0150310880999992000011215004+59370+143200FM-12+000699999V0203601N005010300019N0500001N1-01161-01601099611ADDAY171031AY231031GF108991021051008001021999MD1410001+9999MW1361REMSYN076AAXX  12151 31088 41599 83605 11116 21160 49961 54000 73673 8252/ 333 91111;
0140310880999992000011218004+59370+143200FM-12+000699999V0200101N001019999999N0500001N1-01421-01931099631ADDAY171061AY231061GF106991031001999999031011MD1310021+9999MW1011REMSYN066AAXX  12181 31088 41999 60101 11142 21193 49963 53002 70173 83031;
0128310880999992000011221004+59370+143200FM-12+000699999V0200301N003012200019N0500001N1-01731-02231099801ADDGF102991021001999999031001IA1239MD1310171+9999REMSYN070AAXX  12211 31088 /2999 20303 11173 21223 49980 53017 82030 333 47021;
0227310880999992000011300004+59370+143200FM-12+000699999V0203601N004010300019N0500001N1-01881-02371100011ADDAA100000191AJ100219199999999GF106991021051008001031011IA1239KA1120N+99999MA1999999099931MD1210201+9999REMSYN094AAXX  13001 31088 12599 63604 11188 21237 39993 40001 52020 69920 82531 333 21174 47021 55000;EQDQ01 -01742ATMN  
0112310880999992000011303004+59370+143200FM-12+000699999V0203601N004010300019N0500001N1-01751-02441100141ADDGF106991021051008001031011MD1210141+9999REMSYN060AAXX  13031 31088 42599 63604 11175 21244 40014 52014 82531;
0112310880999992000011306004+59370+143200FM-12+000699999V0203501N003012200019N0500001N1-01901-02581100391ADDGF102991021051008001001001MD1310241+9999REMSYN060AAXX  13061 31088 42599 23503 11190 21258 40039 53024 82500;
0175310880999992000011309004+59370+143200FM-12+000699999V0200101N004012200019N0500001N1-01981-02651100611ADDAA106000091GA1001+999999999GF100991001001999999001001KA1999M-01701MD1210221+9999REMSYN064AAXX  13091 31088 32999 00104 11198 21265 40061 52022 333 11170;EQDQ01  00002PRCP06
0186310880999992000011312004+59370+143200FM-12+000699999V0200501N005012200019N0500001N1-01991-02661100891ADDAA106000091GF102991001001999999001011KA1999M-01701MA1999999100811MD1210281+9999REMSYN076AAXX  13121 31088 32999 20505 11199 21266 30081 40089 52028 80001 333 11170;EQDQ01  00002PRCP06
0112310880999992000011315004+59370+143200FM-12+000699999V0200401N003010300019N0500001N1-01881-02661101061ADDGF106991021051008001051001MD1210171+9999REMSYN060AAXX  13151 31088 42599 60403 11188 21266 40106 52017 82550;
0112310880999992000011318004+59370+143200FM-12+000699999V0200301N003012200019N0500001N1-01951-02631101241ADDGF103991021001999999051011MD1210181+9999REMSYN060AAXX  13181 31088 42999 30303 11195 21263 40124 52018 82051;
0179310880999992000011321004+59370+143200FM-12+000699999V0200101N004012200019N0500001N1-02041-02711101431ADDAA199000091AJ100209199999999GF102991001001999999001011IA1239MD1210191+9999REMSYN074    AAXX  13211 31088 32999 20104 11204 21271 40143 52019 80001 333 47020;EQDQ01  00002PRCP99
0225310880999992000011400004+59370+143200FM-12+000699999V0200201N003012200019N0500001N1-02101-02771101591ADDAA199000091AJ100209199999999GF102991011001999999031011IA1239KA1120N-02081MA1999999101511MD1210161+9999REMSYN092    AAXX  14001 31088 32999 20203 11210 21277 30151 40159 52016 81031 333 21208 47020 55032;EQDQ01  00002PRCP99
0116310880999992000011403004+59370+143200FM-12+000699999V0200201N003012200019N0500001N1-01961-02741101641ADDGF103991021001999999041011MD1110051+9999REMSYN064    AAXX  14031 31088 42999 30203 11196 21274 40164 51005 82041;
0116310880999992000011406004+59370+143200FM-12+000699999V0200201N002012200019N0500001N1-01991-02771101751ADDGF101991001001999999001011MD1210111+9999REMSYN064    AAXX  14061 31088 42999 10202 11199 21277 40175 52011 80001;
0169310880999992000011409004+59370+143200FM-12+000699999V0200101N004012200019N0500001N1-02091-02861101961ADDAA199000091GF101991001001999999001011KA1999M-01951MD1310211+9999REMSYN074    AAXX  14091 31088 32999 10104 11209 21286 40196 53021 80001 333 11195;EQDQ01  00002PRCP99
0200310880999992000011412004+59370+143200FM-12+000699999V0200101N004012200019N0500001N1-02171-02931101921ADDAA199000091GA1001+999999999GF100991001001999999001001KA1999M-01951MA1999999101841MD1810041+9999REMSYN074    AAXX  14121 31088 32999 00104 11217 21293 30184 40192 58004 333 11195;EQDQ01  00002PRCP99
0126310880999992000011415004+59370+143200FM-12+000699999V0203601N003012200019N0500001N1-02161-02931102041ADDGA1001+999999999GF100991001001999999001001MD1310121+9999REMSYN058    AAXX  14151 31088 42999 03603 11216 21293 40204 53012;
0126310880999992000011418004+59370+143200FM-12+000699999V0203601N004012200019N0500001N1-02261-02931102061ADDGA1001+999999999GF100991001001999999001001MD1110021+9999REMSYN058    AAXX  14181 31088 42999 03604 11226 21293 40206 51002;
0189310880999992000011421004+59370+143200FM-12+000699999V0203501N005012200019N0500001N1-02331-03081102011ADDAA199000091AJ100209199999999GA1001+999999999GF100991001001999999001001IA1279MD1810051+9999REMSYN068    AAXX  14211 31088 32999 03505 11233 21308 40201 58005 333 43020;EQDQ01  00002PRCP99
0251310880999992000011500004+59370+143200FM-12+000699999V0200101N004012200019N0500001N1-02411-03161101991ADDAA199000091AJ100209199999999GA1001+999999999GF100991001001999999001001IA1279KA1120N+99999MA1999999101911MD1710021+9999REMSYN086    AAXX  15001 31088 32999 00104 11241 21316 30191 40199 57002 333 21235 43020 55059;EQDQ01  00002PRCP99Q02 -02352ATMN  
0116310880999992000011503004+59370+143200FM-12+000699999V0200101N003012200019N0500001N1-02101-02871101891ADDGF102991021001999999041001MD1810101+9999REMSYN064    AAXX  15031 31088 42999 20103 11210 21287 40189 58010 82040;
0116310880999992000011506004+59370+143200FM-12+000699999V0200101N003012200019N0500001N1-02061-02831101771ADDGF102991021001999999041001MD1710121+9999REMSYN064    AAXX  15061 31088 42999 20103 11206 21283 40177 57012 82040;
0179310880999992000011509004+59370+143200FM-12+000699999V0200101N003012200019N0500001N1-02171-02931101721ADDAA199000091GA1001+999999999GF100991001001999999001001KA1999M-02051MD1610051+9999REMSYN068    AAXX  15091 31088 32999 00103 11217 21293 40172 56005 333 11205;EQDQ01  00002PRCP99
0200310880999992000011511004+59370+143200FM-12+000699999V0200201N003012200019N0090001N1-03131+99999101631ADDAA199000091GA1001+999999999GF100991001001999999001001KA1999M-03051MA1999999101551MD1710091+9999REMSYN074    AAXX  15111 31088 32959 00203 11313 21289 30155 40163 57009 333 11305;EQDQ01  00002PRCP99
0200310880999992000011512004+59370+143200FM-12+000699999V0200201N003012200019N0500001N1-03131+99999101631ADDAA199000091GA1001+999999999GF100991001001999999001001KA1999M-03051MA1999999101551MD1710091+9999REMSYN074    AAXX  15121 31088 32999 00203 11313 21289 30155 40163 57009 333 11305;EQDQ01  00002PRCP99
0126310880999992000011515004+59370+143200FM-12+000699999V0203601N003012200019N0500001N1-02241-03001101581ADDGA1001+999999999GF100991001001999999001001MD1710051+9999REMSYN058    AAXX  15151 31088 42999 03603 11224 21300 40158 57005;
0126310880999992000011518004+59370+143200FM-12+000699999V0203601N002012200019N0500001N1-02291-03051101601ADDGA1001+999999999GF100991001001999999001001MD1310021+9999REMSYN058    AAXX  15181 31088 42999 03602 11229 21305 40160 53002;
0189310880999992000011521004+59370+143200FM-12+000699999V0209999C000012200019N0500001N1-02091-02861101591ADDAA199000091AJ100209199999999GA1001+999999999GF100991001001999999001001IA1279MD1810011+9999REMSYN068    AAXX  15211 31088 32999 00000 11209 21286 40159 58001 333 43020;EQDQ01  00002PRCP99
0225310880999992000011600004+59370+143200FM-12+000699999V0200301N003012200019N0500001N1-02021-02691101641ADDAA199000091AJ100209199999999GF102991011001999999041011IA1279KA1120N-02381MA1999999101531MD1310021+9999REMSYN092    AAXX  16001 31088 32999 20303 11202 21269 30153 40164 53002 81041 333 21238 43020 55061;EQDQ01  00002PRCP99
0126310880999992000011603004+59370+143200FM-12+000699999V0203601N003012200019N0500001N1-01821-02611101521ADDGA1001+999999999GF100991001001999999001001MD1810091+9999REMSYN058    AAXX  16031 31088 42999 03603 11182 21261 40152 58009;
0116310880999992000011606004+59370+143200FM-12+000699999V0203601N002012200019N0500001N1-01811-02601101511ADDGF102991001001999999001011MD1610011+9999REMSYN064    AAXX  16061 31088 42999 23602 11181 21260 40151 56001 80001;
0169310880999992000011609004+59370+143200FM-12+000699999V0200201N002012200019N0500001N1-01851-02531101531ADDAA199000091GF103991021001999999041011KA1999M-01731MD1310021+9999REMSYN074    AAXX  16091 31088 32999 30202 11185 21253 40153 53002 82041 333 11173;EQDQ01  00002PRCP99
0190310880999992000011612004+59370+143200FM-12+000699999V0200401N002012200019N0500001N1-02021-02691101561ADDAA199000091GF102991021001999999041001KA1999M-01731MA1999999101481MD1210031+9999REMSYN080    AAXX  16121 31088 32999 20402 11202 21269 30148 40156 52003 82040 333 11173;EQDQ01  00002PRCP99
0116310880999992000011615004+59370+143200FM-12+000699999V0200101N002012200019N0500001N1-02031-02801101541ADDGF102991021001999999041001MD1610021+9999REMSYN064    AAXX  16151 31088 42999 20102 11203 21280 40154 56002 82040;
0126310880999992000011618004+59370+143200FM-12+000699999V0200301N002012200019N0500001N1-02011-02791101521ADDGA1001+999999999GF100991001001999999001001MD1710021+9999REMSYN058    AAXX  16181 31088 42999 00302 11201 21279 40152 57002;
0189310880999992000011621004+59370+143200FM-12+000699999V0200401N003012200019N0500001N1-02091-02861101551ADDAA199000091AJ100209199999999GA1001+999999999GF100991001001999999001001IA1279MD1310031+9999REMSYN068    AAXX  16211 31088 32999 00403 11209 21286 40155 53003 333 43020;EQDQ01  00002PRCP99
0235310880999992000011700004+59370+143200FM-12+000699999V0200401N004012200019N0500001N1-02171-02931101601ADDAA199000091AJ100209199999999GA1001+999999999GF100991001001999999001001IA1279KA1120N-02241MA1999999101521MD1210051+9999REMSYN086    AAXX  17001 31088 32999 00404 11217 21293 30152 40160 52005 333 21224 43020 55064;EQDQ01  00002PRCP99
0126310880999992000011703004+59370+143200FM-12+000699999V0200201N003012200019N0500001N1-01941-02721101631ADDGA1001+999999999GF100991001001999999001001MD1210031+9999REMSYN058    AAXX  17031 31088 42999 00203 11194 21272 40163 52003;
0126310880999992000011706004+59370+143200FM-12+000699999V0200301N003012200019N0500001N1-01961-02851101671ADDGA1001+999999999GF100991001001999999001001MD1210041+9999REMSYN058    AAXX  17061 31088 42999 00303 11196 21285 40167 52004;
0179310880999992000011709004+59370+143200FM-12+000699999V0200401N003012200019N0500001N1-02151-02921101791ADDAA199000091GA1001+999999999GF100991001001999999001001KA1999M-01851MD1310121+9999REMSYN068    AAXX  17091 31088 32999 00403 11215 21292 40179 53012 333 11185;EQDQ01  00002PRCP99
0200310880999992000011712004+59370+143200FM-12+000699999V0203601N002012200019N0500001N1-02331-03081101901ADDAA199000091GA1001+999999999GF100991001001999999001001KA1999M-01851MA1999999101821MD1210111+9999REMSYN074    AAXX  17121 31088 32999 03602 11233 21308 30182 40190 52011 333 11185;EQDQ01  00002PRCP99
0145310880999992000011715004+59370+143200FM-12+000699999V0200101N999992200019N0500001N1-02351-03221101881ADDGA1001+999999999GF100991001001999999001001MD1810021+9999REMSYN058    AAXX  17151 31088 42999 00150 11235 21322 40188 58002;EQDQ01+005003WOSPD 
0126310880999992000011718004+59370+143200FM-12+000699999V0200101N005012200019N0500001N1-02411-03161101981ADDGA1001+999999999GF100991001001999999001001MD1310101+9999REMSYN058    AAXX  17181 31088 42999 00105 11241 21316 40198 53010;
0189310880999992000011721004+59370+143200FM-12+000699999V0200301N003012200019N0500001N1-02501-03351102061ADDAA199000091AJ100209199999999GA1001+999999999GF100991001001999999001001IA1279MD1210081+9999REMSYN068    AAXX  17211 31088 32999 00303 11250 21335 40206 52008 333 43020;EQDQ01  00002PRCP99
0235310880999992000011800004+59370+143200FM-12+000699999V0200301N004012200019N0500001N1-02571-03531102171ADDAA199000091AJ100209199999999GA1001+999999999GF100991001001999999001001IA1279KA1120N-02571MA1999999102091MD1210111+9999REMSYN086    AAXX  18001 31088 32999 00304 11257 21353 30209 40217 52011 333 21257 43020 55065;EQDQ01  00002PRCP99
0126310880999992000011803004+59370+143200FM-12+000699999V0200201N004012200019N0500001N1-02321-03181102181ADDGA1001+999999999GF100991001001999999001001MD1110011+9999REMSYN058    AAXX  18031 31088 42999 00204 11232 21318 40218 51001;
0126310880999992000011806004+59370+143200FM-12+000699999V0200201N003012200019N0500001N1-02211-03091102211ADDGA1001+999999999GF100991001001999999001001MD1210031+9999REMSYN058    AAXX  18061 31088 42999 00203 11221 21309 40221 52003;
0179310880999992000011809004+59370+143200FM-12+000699999V0200301N004012200019N0500001N1-02421-03281102261ADDAA199000091GA1001+999999999GF100991001001999999001001KA1999M-02191MD1210051+9999REMSYN068    AAXX  18091 31088 32999 00304 11242 21328 40226 52005 333 11219;EQDQ01  00002PRCP99
0200310880999992000011812004+59370+143200FM-12+000699999V0200301N004012200019N0500001N1-02491-03351102331ADDAA199000091GA1001+999999999GF100991001001999999001001KA1999M-02191MA1999999102251MD1210071+9999REMSYN074    AAXX  18121 31088 32999 00304 11249 21335 30225 40233 52007 333 11219;EQDQ01  00002PRCP99
0126310880999992000011815004+59370+143200FM-12+000699999V0200401N005012200019N0500001N1-02511-03361102351ADDGA1001+999999999GF100991001001999999001001MD1210021+9999REMSYN058    AAXX  18151 31088 42999 00405 11251 21336 40235 52002;
0126310880999992000011818004+59370+143200FM-12+000699999V0200401N004012200019N0500001N1-02571-03411102381ADDGA1001+999999999GF100991001001999999001001MD1210031+9999REMSYN058    AAXX  18181 31088 42999 00404 11257 21341 40238 52003;
0189310880999992000011821004+59370+143200FM-12+000699999V0200401N004012200019N0500001N1-02631-03471102401ADDAA199000091AJ100209199999999GA1001+999999999GF100991001001999999001001IA1279MD1210021+9999REMSYN068    AAXX  18211 31088 32999 00404 11263 21347 40240 52002 333 43020;EQDQ01  00002PRCP99
0235310880999992000011900004+59370+143200FM-12+000699999V0203601N004012200019N0500001N1-02681-03531102461ADDAA199000091AJ100209199999999GA1001+999999999GF100991001001999999001001IA1279KA1120N-02631MA1999999102381MD1210061+9999REMSYN086    AAXX  19001 31088 32999 03604 11268 21353 30238 40246 52006 333 21263 43020 55062;EQDQ01  00002PRCP99
0126310880999992000011903004+59370+143200FM-12+000699999V0200101N005012200019N0500001N1-02441-03301102541ADDGA1001+999999999GF100991001001999999001001MD1210081+9999REMSYN058    AAXX  19031 31088 42999 00105 11244 21330 40254 52008;
0126310880999992000011906004+59370+143200FM-12+000699999V0203601N003012200019N0500001N1-02351-03341102441ADDGA1001+999999999GF100991001001999999001001MD1810101+9999REMSYN058    AAXX  19061 31088 42999 03603 11235 21334 40244 58010;
0179310880999992000011909004+59370+143200FM-12+000699999V0203601N004012200019N0500001N1-02421-03391102461ADDAA199000091GA1001+999999999GF100991001001999999001001KA1999M-02291MD1310021+9999REMSYN068    AAXX  19091 31088 32999 03604 11242 21339 40246 53002 333 11229;EQDQ01  00002PRCP99
0200310880999992000011912004+59370+143200FM-12+000699999V0200301N002012200019N0500001N1-02461-03311102511ADDAA199000091GA1001+999999999GF100991001001999999001001KA1999M-02291MA1999999102471MD1210051+9999REMSYN074    AAXX  19121 31088 32999 00302 11246 21331 30247 40251 52005 333 11229;EQDQ01  00002PRCP99
0122310880999992000011915004+59370+143200FM-12+000699999V0200401N003012200019N0500001N1-02491-03351102441ADDGA1001+999999999GF100991001001999999001001MD1810071+9999REMSYN054AAXX  19151 31088 42999 00403 11249 21335 40244 58007;
0122310880999992000011918004+59370+143200FM-12+000699999V0200101N004012200019N0500001N1-02561-03301102391ADDGA1001+999999999GF100991001001999999001001MD1710051+9999REMSYN054AAXX  19181 31088 42999 00104 11256 21330 40239 57005;
0185310880999992000011921004+59370+143200FM-12+000699999V0200401N003012200019N0500001N1-02601-03331102341ADDAA199000091AJ100199199999999GA1001+999999999GF100991001001999999001001IA1279MD1710051+9999REMSYN064AAXX  19211 31088 32999 00403 11260 21333 40234 57005 333 43019;EQDQ01  00002PRCP99
0231310880999992000012000004+59370+143200FM-12+000699999V0200101N003012200019N0500001N1-02481-03231102351ADDAA199000091AJ100199199999999GA1001+999999999GF100991001001999999001001IA1279KA1120N-02631MA1999999102271MD1310011+9999REMSYN082AAXX  20001 31088 32999 00103 11248 21323 30227 40235 53001 333 21263 43019 55063;EQDQ01  00002PRCP99
0122310880999992000012003004+59370+143200FM-12+000699999V0200101N003012200019N0500001N1-02331-03081102241ADDGA1001+999999999GF100991001001999999001001MD1810111+9999REMSYN054AAXX  20031 31088 42999 00103 11233 21308 40224 58011;
0122310880999992000012006004+59370+143200FM-12+000699999V0200101N002012200019N0500001N1-02221-03091102171ADDGA1001+999999999GF100991001001999999001001MD1710071+9999REMSYN054AAXX  20061 31088 42999 00102 11222 21309 40217 57007;
0175310880999992000012009004+59370+143200FM-12+000699999V0200101N004012200019N0500001N1-02321-03181102171ADDAA199000091GA1001+999999999GF100991001001999999001001KA1999M-02161MD1410001+9999REMSYN064AAXX  20091 31088 32999 00104 11232 21318 40217 54000 333 11216;EQDQ01  00002PRCP99
0196310880999992000012012004+59370+143200FM-12+000699999V0203601N004012200019N0500001N1-02441-03301102151ADDAA199000091GA1001+999999999GF100991001001999999001001KA1999M-02161MA1999999102071MD1810021+9999REMSYN070AAXX  20121 31088 32999 03604 11244 21330 30207 40215 58002 333 11216;EQDQ01  00002PRCP99
0122310880999992000012015004+59370+143200FM-12+000699999V0203601N005012200019N0500001N1-02481-03331102121ADDGA1001+999999999GF100991001001999999001001MD1710031+9999REMSYN054AAXX  20151 31088 42999 03605 11248 21333 40212 57003;
0122310880999992000012018004+59370+143200FM-12+000699999V0203501N004012200019N0500001N1-02491-03351102081ADDGA1001+999999999GF100991001001999999001001MD1710041+9999REMSYN054AAXX  20181 31088 42999 03504 11249 21335 40208 57004;
0185310880999992000012021004+59370+143200FM-12+000699999V0203601N003012200019N0500001N1-02511-03361102051ADDAA199000091AJ100199199999999GA1001+999999999GF100991001001999999001001IA1279MD1710031+9999REMSYN064AAXX  20211 31088 32999 03603 11251 21336 40205 57003 333 43019;EQDQ01  00002PRCP99
0231310880999992000012100004+59370+143200FM-12+000699999V0203601N003012200019N0500001N1-02531-03261102071ADDAA199000091AJ100199199999999GA1001+999999999GF100991001001999999001001IA1279KA1120N-02531MA1999999101991MD1310021+9999REMSYN082AAXX  21001 31088 32999 03603 11253 21326 30199 40207 53002 333 21253 43019 55066;EQDQ01  00002PRCP99
0122310880999992000012103004+59370+143200FM-12+000699999V0200101N003012200019N0500001N1-02351-03111101981ADDGA1001+999999999GF100991001001999999001001MD1810091+9999REMSYN054AAXX  21031 31088 42999 00103 11235 21311 40198 58009;
0122310880999992000012106004+59370+143200FM-12+000699999V0203601N003012200019N0500001N1-02311-03171101931ADDGA1001+999999999GF100991001001999999001001MD1710051+9999REMSYN054AAXX  21061 31088 42999 03603 11231 21317 40193 57005;
0175310880999992000012109004+59370+143200FM-12+000699999V0200101N003012200019N0500001N1-02491-03241101941ADDAA199000091GA1001+999999999GF100991001001999999001001KA1999M-02271MD1310011+9999REMSYN064AAXX  21091 31088 32999 00103 11249 21324 40194 53001 333 11227;EQDQ01  00002PRCP99
0196310880999992000012112004+59370+143200FM-12+000699999V0200201N002012200019N0500001N1-02651-03391101951ADDAA199000091GA1001+999999999GF100991001001999999001001KA1999M-02271MA1999999101871MD1210011+9999REMSYN070AAXX  21121 31088 32999 00202 11265 21339 30187 40195 52001 333 11227;EQDQ01  00002PRCP99
0122310880999992000012115004+59370+143200FM-12+000699999V0200201N002012200019N0500001N1-02861-03481101911ADDGA1001+999999999GF100991001001999999001001MD1810041+9999REMSYN054AAXX  21151 31088 42999 00202 11286 21348 40191 58004;
0122310880999992000012118004+59370+143200FM-12+000699999V0200101N003012200019N0500001N1-02941-03561101871ADDGA1001+999999999GF100991001001999999001001MD1710041+9999REMSYN054AAXX  21181 31088 42999 00103 11294 21356 40187 57004;
0185310880999992000012121004+59370+143200FM-12+000699999V0200101N003012200019N0500001N1-02911-03541101851ADDAA199000091AJ100199199999999GA1001+999999999GF100991001001999999001001IA1279MD1710021+9999REMSYN064AAXX  21211 31088 32999 00103 11291 21354 40185 57002 333 43019;EQDQ01  00002PRCP99
0221310880999992000012200004+59370+143200FM-12+000699999V0200101N003012200019N0500001N1-02941-03561101881ADDAA199000091AJ100199199999999GF102991021001999999041001IA1279KA1120N-02981MA1999999101801MD1310031+9999REMSYN088AAXX  22001 31088 32999 20103 11294 21356 30180 40188 53003 82040 333 21298 43019 55065;EQDQ01  00002PRCP99
0112310880999992000012203004+59370+143200FM-12+000699999V0203401N003012200019N0500001N1-02651-03391101821ADDGF102991021001999999031001MD1810061+9999REMSYN060AAXX  22031 31088 42999 23403 11265 21339 40182 58006 82030;
0112310880999992000012206004+59370+143200FM-12+000699999V0203301N001012200019N0500001N1-02411-03281101751ADDGF102991021001999999031001MD1710071+9999REMSYN060AAXX  22061 31088 42999 23301 11241 21328 40175 57007 82030;
0165310880999992000012209004+59370+143200FM-12+000699999V0203601N002012200019N0500001N1-02581-03431101811ADDAA199000091GF102991021001999999031001KA1999M-02281MD1310061+9999REMSYN070AAXX  22091 31088 32999 23602 11258 21343 40181 53006 82030 333 11228;EQDQ01  00002PRCP99
0186310880999992000012212004+59370+143200FM-12+000699999V0200101N002012200019N0500001N1-02511-03361101851ADDAA199000091GF103991031001999999041001KA1999M-02281MA1999999101771MD1210041+9999REMSYN076AAXX  22121 31088 32999 30102 11251 21336 30177 40185 52004 83040 333 11228;EQDQ01  00002PRCP99
0112310880999992000012215004+59370+143200FM-12+000699999V0200101N003012200019N0500001N1-02491-03351101831ADDGF103991031001999999041001MD1810021+9999REMSYN060AAXX  22151 31088 42999 30103 11249 21335 40183 58002 83040;
0112310880999992000012218004+59370+143200FM-12+000699999V0200101N002019999999N0500001N1-02641-03371101831ADDGF107991031001999999041061MD1410001+9999REMSYN060AAXX  22181 31088 42999 70102 11264 21337 40183 54000 83046;
0175310880999992000012221004+59370+143200FM-12+000699999V0200101N002019999999N0500001N1-02651+99999101831ADDAA199000091AJ100179199999999GF105991031001999999041011IA1279MD1410001+9999REMSYN070AAXX  22211 31088 32999 50102 11265 21239 40183 54000 83041 333 43017;EQDQ01  00002PRCP99
0221310880999992000012300004+59370+143200FM-12+000699999V0200201N003012200019N0500001N1-02631-03471101861ADDAA199000091AJ100179199999999GF103991021001999999041011IA1279KA1120N-02691MA1999999101781MD1310031+9999REMSYN088AAXX  23001 31088 32999 30203 11263 21347 30178 40186 53003 82041 333 21269 43017 55067;EQDQ01  00002PRCP99
0112310880999992000012303004+59370+143200FM-12+000699999V0200201N002019999999N0500001N1-02381-03241101811ADDGF107991001001999999001061MD1810051+9999REMSYN060AAXX  23031 31088 42999 70202 11238 21324 40181 58005 80006;
0142310880999992000012306004+59370+143200FM-12+000699999V0200101N002019999999N0500001N1-02231-03101101801ADDAA199000091GF107991051001999999041011MD1710011+9999REMSYN060AAXX  23061 31088 32999 70102 11223 21310 40180 57001 85041;EQDQ01  00002PRCP99
0165310880999992000012309004+59370+143200FM-12+000699999V0200301N002019999999N0500001N1-02391-03141101851ADDAA199000091GF107991041001999999041061KA1999M-02151MD1310051+9999REMSYN070AAXX  23091 31088 32999 70302 11239 21314 40185 53005 84046 333 11215;EQDQ01  00002PRCP99
0202310880999992000012312004+59370+143200FM-12+000699999V0203201N001019999999N0500001N1-02351-03111101841ADDAA199000091GF107991021001999999041061KA1999N+99999MA1999999101761MD1810011+9999REMSYN076AAXX  23121 31088 32999 73201 11235 21311 30176 40184 58001 82046 333 21215;EQDQ01  00002PRCP99Q02 -02152ATMN  
0152310880999992000012315004+59370+143200FM-12+000699999V0203601N009019999999N0500001N1+99999+99999101821ADDAA199000091GF107991999001999999041001MD1710021+9999REMSYN054AAXX  23151 31088 32999 73609 21220 40182 57002 85040;EQDQ01+000052SCOTLCQ02  00002PRCP99
0112310880999992000012318004+59370+143200FM-12+000699999V0203601N002019999999N0500001N1-02591-03331101791ADDGF106991021001999999041011MD1710031+9999REMSYN060AAXX  23181 31088 42999 63602 11259 21333 40179 57003 82041;
0175310880999992000012321004+59370+143200FM-12+000699999V0203601N004019999999N0500001N1-02651-03391101681ADDAA199000091AJ100179199999999GF105991031001999999041011IA1279MD1810111+9999REMSYN070AAXX  23211 31088 32999 53604 11265 21339 40168 58011 83041 333 43017;EQDQ01  00002PRCP99
0221310880999992000012400004+59370+143200FM-12+000699999V0200401N002019999999N0500001N1-02691-03531101591ADDAA199000091AJ100179199999999GF107991031001999999041011IA1279KA1120N-02691MA1999999101511MD1710091+9999REMSYN088AAXX  24001 31088 32999 70402 11269 21353 30151 40159 57009 83041 333 21269 43017 55045;EQDQ01  00002PRCP99
0112310880999992000012403004+59370+143200FM-12+000699999V0200101N003019999999N0500001N1-02391-03251101351ADDGF107991021001999999041021MD1810241+9999REMSYN060AAXX  24031 31088 42999 70103 11239 21325 40135 58024 82042;
0112310880999992000012406004+59370+143200FM-12+000699999V0203601N002010300019N0500001N1-02211-03091101221ADDGF107991021041008001031011MD1710131+9999REMSYN060AAXX  24061 31088 42599 73602 11221 21309 40122 57013 82431;
0165310880999992000012409004+59370+143200FM-12+000699999V0200201N002010300019N0500001N1-02451-03311101161ADDAA199000091GF107991021041008001031011KA1999M-02171MD1610061+9999REMSYN070AAXX  24091 31088 32599 70202 11245 21331 40116 56006 82431 333 11217;EQDQ01  00002PRCP99
0186310880999992000012412004+59370+143200FM-12+000699999V0200201N002019999999N0500001N1-02531-03371101071ADDAA199000091GF105991021001999999041011KA1999M-02171MA1999999100991MD1710091+9999REMSYN076AAXX  24121 31088 32999 50202 11253 21337 30099 40107 57009 82041 333 11217;EQDQ01  00002PRCP99
0112310880999992000012415004+59370+143200FM-12+000699999V0200101N002012200019N0500001N1-02651-03501101021ADDGF102991021001999999041001MD1710051+9999REMSYN060AAXX  24151 31088 42999 20102 11265 21350 40102 57005 82040;
0122310880999992000012418004+59370+143200FM-12+000699999V0200301N004012200019N0500001N1-02571+99999101011ADDGA1001+999999999GF100991001001999999001001MD1710011+9999REMSYN054AAXX  24181 31088 42999 00304 11257 21241 40101 57001;
0185310880999992000012421004+59370+143200FM-12+000699999V0200301N003012200019N0500001N1-02631-03471101041ADDAA199000091AJ100169199999999GA1001+999999999GF100991001001999999001001IA1279MD1310031+9999REMSYN064AAXX  24211 31088 32999 00303 11263 21347 40104 53003 333 43016;EQDQ01  00002PRCP99
0231310880999992000012500004+59370+143200FM-12+000699999V0203601N003012200019N0500001N1-02651-03501101071ADDAA199000091AJ100169199999999GA1001+999999999GF100991001001999999001001IA1279KA1120N-02771MA1999999100991MD1210031+9999REMSYN082AAXX  25001 31088 32999 03603 11265 21350 30099 40107 52003 333 21277 43016 55044;EQDQ01  00002PRCP99
0122310880999992000012503004+59370+143200FM-12+000699999V0203501N005012200019N0500001N1-02211-03211101131ADDGA1001+999999999GF100991001001999999001001MD1210061+9999REMSYN054AAXX  25031 31088 42999 03505 11221 21321 40113 52006;
0122310880999992000012506004+59370+143200FM-12+000699999V0200101N003012200019N0500001N1-02101-03111101181ADDGA1001+999999999GF100991001001999999001001MD1210051+9999REMSYN054AAXX  25061 31088 42999 00103 11210 21311 40118 52005;
0175310880999992000012509004+59370+143200FM-12+000699999V0203601N003012200019N0500001N1-02291-03281101351ADDAA199000091GA1001+999999999GF100991001001999999001001KA1999M-01991MD1310171+9999REMSYN064AAXX  25091 31088 32999 03603 11229 21328 40135 53017 333 11199;EQDQ01  00002PRCP99
0196310880999992000012512004+59370+143200FM-12+000699999V0200401N002012200019N0500001N1-02331-03191101411ADDAA199000091GA1001+999999999GF100991001001999999001001KA1999M-01991MA1999999101331MD1110061+9999REMSYN070AAXX  25121 31088 32999 00402 11233 21319 30133 40141 51006 333 11199;EQDQ01  00002PRCP99
0122310880999992000012515004+59370+143200FM-12+000699999V0200301N003012200019N0500001N1-02391-03141101331ADDGA1001+999999999GF100991001001999999001001MD1810081+9999REMSYN054AAXX  25151 31088 42999 00303 11239 21314 40133 58008;
0122310880999992000012518004+59370+143200FM-12+000699999V0200101N003012200019N0500001N1-02331+99999101191ADDGA1001+999999999GF100991001001999999001001MD1710141+9999REMSYN054AAXX  25181 31088 42999 00103 11233 21208 40119 57014;
0206310880999992000012521004+59370+143200FM-12+000699999V0200401N004012200019N0500001N1-02331-03081101061ADDAA199000091AJ100169199999999GA1001+999999999GF100991001001999999001001IA1279MA1999999100981MD1710131+9999REMSYN070AAXX  25211 31088 32999 00404 11233 21308 30098 40106 57013 333 43016;EQDQ01  00002PRCP99
0221310880999992000012600004+59370+143200FM-12+000699999V0200401N005012200019N0500001N1-02241-03001100901ADDAA199000091AJ100169199999999GF102991001001999999001011IA1279KA1120N-02501MA1999999100821MD1710161+9999REMSYN088AAXX  26001 31088 32999 20405 11224 21300 30082 40090 57016 80001 333 21250 43016 55069;EQDQ01  00002PRCP99
0112310880999992000012603004+59370+143200FM-12+000699999V0200101N004012200019N0500001N1-01971-02751100731ADDGF101991001001999999001011MD1710171+9999REMSYN060AAXX  26031 31088 42999 10104 11197 21275 40073 57017 80001;
0112310880999992000012606004+59370+143200FM-12+000699999V0200201N001019999999N0500001N1-01851-02751100691ADDGF107991001001999999001011MD1610041+9999REMSYN060AAXX  26061 31088 42999 70201 11185 21275 40069 56004 80001;
0165310880999992000012609004+59370+143200FM-12+000699999V0200301N003019999999N0500001N1-01781-02571100651ADDAA199000091GF107991001001999999001011KA1999M-01751MD1710041+9999REMSYN070AAXX  26091 31088 32999 70303 11178 21257 40065 57004 80001 333 11175;EQDQ01  00002PRCP99
0186310880999992000012612004+59370+143200FM-12+000699999V0200101N004019999999N0500001N1-01901-02801100481ADDAA199000091GF107991001001999999001011KA1999M-01751MA1999999100401MD1810171+9999REMSYN076AAXX  26121 31088 32999 70104 11190 21280 30040 40048 58017 80001 333 11175;EQDQ01  00002PRCP99
0112310880999992000012615004+59370+143200FM-12+000699999V0200301N003019999999N0500001N1-01961-02851100331ADDGF107991021001999999041011MD1710151+9999REMSYN060AAXX  26151 31088 42999 70303 11196 21285 40033 57015 82041;
0112310880999992000012618004+59370+143200FM-12+000699999V0203601N004012200019N0500001N1-02071-02951100281ADDGF102991021001999999041001MD1610051+9999REMSYN060AAXX  26181 31088 42999 23604 11207 21295 40028 56005 82040;
0175310880999992000012621004+59370+143200FM-12+000699999V0203601N005012200019N0500001N1-02591-03231100241ADDAA199000091AJ100169199999999GF101991011001999999041001IA1279MD1710041+9999REMSYN070AAXX  26211 31088 32999 13605 11259 21323 40024 57004 81040 333 43016;EQDQ01  00002PRCP99
0221310880999992000012700004+59370+143200FM-12+000699999V0200101N004012200019N0500001N1-02231-02891100301ADDAA199000091AJ100169199999999GF102991001001999999001011IA1279KA1120N-02611MA1999999100221MD1310061+9999REMSYN088AAXX  27001 31088 32999 20104 11223 21289 30022 40030 53006 80001 333 21261 43016 55066;EQDQ01  00002PRCP99
0112310880999992000012703004+59370+143200FM-12+000699999V0200101N004012200019N0500001N1-01961-02741100311ADDGF102991021001999999041001MD1210011+9999REMSYN060AAXX  27031 31088 42999 20104 11196 21274 40031 52001 82040;
0112310880999992000012706004+59370+143200FM-12+000699999V0200101N003012200019N0500001N1-01871-02651100351ADDGF102991021001999999041001MD1210041+9999REMSYN060AAXX  27061 31088 42999 20103 11187 21265 40035 52004 82040;
0165310880999992000012709004+59370+143200FM-12+000699999V0200201N002012200019N0500001N1-01951-02731100391ADDAA199000091GF102991021001999999041001KA1999M-01781MD1210041+9999REMSYN070AAXX  27091 31088 32999 20202 11195 21273 40039 52004 82040 333 11178;EQDQ01  00002PRCP99
0196310880999992000012712004+59370+143200FM-12+000699999V0200101N004012200019N0500001N1-02051-02821100441ADDAA199000091GA1001+999999999GF100991001001999999001001KA1999M-01781MA1999999100361MD1210051+9999REMSYN070AAXX  27121 31088 32999 00104 11205 21282 30036 40044 52005 333 11178;EQDQ01  00002PRCP99
0122310880999992000012715004+59370+143200FM-12+000699999V0200201N002012200019N0500001N1-02061-02831100521ADDGA1001+999999999GF100991001001999999001001MD1210081+9999REMSYN054AAXX  27151 31088 42999 00202 11206 21283 40052 52008;
0122310880999992000012718004+59370+143200FM-12+000699999V0200201N003012200019N0500001N1-02151-02921100671ADDGA1001+999999999GF100991001001999999001001MD1310151+9999REMSYN054AAXX  27181 31088 42999 00203 11215 21292 40067 53015;
0185310880999992000012721004+59370+143200FM-12+000699999V0200401N004012200019N0500001N1-02291-03051100891ADDAA199000091AJ100159199999999GA1001+999999999GF100991001001999999001001IA1279MD1210221+9999REMSYN064AAXX  27211 31088 32999 00404 11229 21305 40089 52022 333 43015;EQDQ01  00002PRCP99
0247310880999992000012800004+59370+143200FM-12+000699999V0203501N003012200019N0500001N1-02401-03151101141ADDAA199000091AJ100159199999999GA1001+999999999GF100991001001999999001001IA1279KA1120N+99999MA1999999101061MD1210251+9999REMSYN082AAXX  28001 31088 32999 03503 11240 21315 30106 40114 52025 333 21234 43015 55070;EQDQ01  00002PRCP99Q02 -02342ATMN  
0112310880999992000012803004+59370+143200FM-12+000699999V0203601N002019999999N0500001N1-02071-02951101311ADDGF105991021001999999031011MD1210171+9999REMSYN060AAXX  28031 31088 42999 53602 11207 21295 40131 52017 82031;
0112310880999992000012806004+59370+143200FM-12+000699999V0203501N002019999999N0500001N1-01911-02931101601ADDGF107991031001999999051011MD1210291+9999REMSYN060AAXX  28061 31088 42999 73502 11191 21293 40160 52029 83051;
0165310880999992000012809004+59370+143200FM-12+000699999V0203601N003019999999N0500001N1-02351-03221101971ADDAA199000091GF106991031001999999051011KA1999M-01861MD1310371+9999REMSYN070AAXX  28091 31088 32999 63603 11235 21322 40197 53037 83051 333 11186;EQDQ01  00002PRCP99
0186310880999992000012812004+59370+143200FM-12+000699999V0200101N003019999999N0500001N1-02501-03351102251ADDAA199000091GF105991001001999999001011KA1999M-01861MA1999999102171MD1210281+9999REMSYN076AAXX  28121 31088 32999 50103 11250 21335 30217 40225 52028 80001 333 11186;EQDQ01  00002PRCP99
0112310880999992000012815004+59370+143200FM-12+000699999V0200101N003019999999N0500001N1-02431+99999102451ADDGF105991031001999999041011MD1210201+9999REMSYN060AAXX  28151 31088 42999 50103 11243 21241 40245 52020 83041;
0112310880999992000012818004+59370+143200FM-12+000699999V0200101N004012200019N0500001N1-02671+99999102561ADDGF102991021001999999041001MD1110111+9999REMSYN060AAXX  28181 31088 42999 20104 11267 21247 40256 51011 82040;
0175310880999992000012821004+59370+143200FM-12+000699999V0200101N001012200019N0500001N1-02811-03641102621ADDAA199000091AJ100159199999999GF102991021001999999041001IA1279MD1210061+9999REMSYN070AAXX  28211 31088 32999 20101 11281 21364 40262 52006 82040 333 43015;EQDQ01  00002PRCP99
0231310880999992000012900004+59370+143200FM-12+000699999V0200401N003012200019N0500001N1-02611-03461102741ADDAA199000091AJ100159199999999GA1001+999999999GF100991001001999999001001IA1279KA1120N-02811MA1999999102661MD1210091+9999REMSYN082AAXX  29001 31088 32999 00403 11261 21346 30266 40274 52009 333 21281 43015 55059;EQDQ01  00002PRCP99
0122310880999992000012903004+59370+143200FM-12+000699999V0200301N004012200019N0500001N1-02291-03161102711ADDGA1001+999999999GF100991001001999999001001MD1810031+9999REMSYN054AAXX  29031 31088 42999 00304 11229 21316 40271 58003;
0122310880999992000012906004+59370+143200FM-12+000699999V0200301N003012200019N0500001N1-02211-03211102691ADDGA1001+999999999GF100991001001999999001001MD1710021+9999REMSYN054AAXX  29061 31088 42999 00303 11221 21321 40269 57002;
0175310880999992000012909004+59370+143200FM-12+000699999V0200401N004012200019N0500001N1-02361-03351102701ADDAA199000091GA1001+999999999GF100991001001999999001001KA1999M-02141MD1310011+9999REMSYN064AAXX  29091 31088 32999 00404 11236 21335 40270 53001 333 11214;EQDQ01  00002PRCP99
0122310880999992000012915004+59370+143200FM-12+000699999V0200201N004012200019N0500001N1-02351-03341102561ADDGA1001+999999999GF100991001001999999001001MD1610051+9999REMSYN054AAXX  29151 31088 42999 00204 11235 21334 40256 56005;
0122310880999992000012918004+59370+143200FM-12+000699999V0200201N005012200019N0500001N1-02461-03311102761ADDGA1001+999999999GF100991001001999999001001MD1710091+9999REMSYN054AAXX  29181 31088 42999 00205 11246 21331 40276 57009;
0191310880999992000012921004+59370+143200FM-12+000699999V0202901N999992200019N0700001N1-02361-03231102291ADDAA199000091AJ100159199999999GF103991999999000251999999IA1279MD1810181+9999REMSYN070AAXX  29211 31088 31088 32999 00205 11236 21323 40229 58018 333 43015;EQDQ01+020501WOSPD Q02  00002PRCP99
0231310880999992000013000004+59370+143200FM-12+000699999V0200101N004012200019N0500001N1-02361-03121102171ADDAA199000091AJ100159199999999GA1001+999999999GF100991001001999999001001IA1279KA1120N-02511MA1999999102091MD1710121+9999REMSYN082AAXX  30001 31088 32999 00104 11236 21312 30209 40217 57012 333 21251 43015 55070;EQDQ01  00002PRCP99
0122310880999992000013003004+59370+143200FM-12+000699999V0200301N002012200019N0500001N1-02051-02821101951ADDGA1001+999999999GF100991001001999999001001MD1810221+9999REMSYN054AAXX  30031 31088 42999 00302 11205 21282 40195 58022;
0122310880999992000013006004+59370+143200FM-12+000699999V0200301N003012200019N0500001N1-01881-02781101731ADDGA1001+999999999GF100991001001999999001001MD1710221+9999REMSYN054AAXX  30061 31088 42999 00303 11188 21278 40173 57022;
0165310880999992000013009004+59370+143200FM-12+000699999V0200401N003012200019N0500001N1-01991-02881101521ADDAA199000091GF101991011001999999041001KA1999M-01861MD1710211+9999REMSYN070AAXX  30091 31088 32999 10403 11199 21288 40152 57021 81040 333 11186;EQDQ01  00002PRCP99
0196310880999992000013012004+59370+143200FM-12+000699999V0200401N003012200019N0500001N1-02031-02801101291ADDAA199000091GA1001+999999999GF100991001001999999001001KA1999M-01861MA1999999101211MD1710231+9999REMSYN070AAXX  30121 31088 32999 00403 11203 21280 30121 40129 57023 333 11186;EQDQ01  00002PRCP99
0122310880999992000013015004+59370+143200FM-12+000699999V0200401N002012200019N0500001N1-02141-02911101041ADDGA1001+999999999GF100991001001999999001001MD1710251+9999REMSYN054AAXX  30151 31088 42999 00402 11214 21291 40104 57025;
0122310880999992000013018004+59370+143200FM-12+000699999V0200101N002012200019N0500001N1-02301-02961100591ADDGA1001+999999999GF100991001001999999001001MD1810451+9999REMSYN054AAXX  30181 31088 42999 00102 11230 21296 40059 58045;
0175310880999992000013021004+59370+143200FM-12+000699999V0200101N002019999999N0500001N1-02351-02911100311ADDAA199000091AJ100149199999999GF107991071001999999031001IA1279MD1610281+9999REMSYN070AAXX  30211 31088 32999 70102 11235 21291 40031 56028 87030 333 43014;EQDQ01  00002PRCP99
0224310880999992000013100004+59370+143200FM-12+000699999V0203401N001010075019N0040001N1+99999+99999100101ADDAA199000021AJ100149199999999AY171061AY221061GF108991081051008001999999IA1279KA1120N-02441MA1999999100021MD1710211+9999MW1711REMSYN088AAXX  31001 31088 31596 83401 21240 30002 40010 57021 77172 885// 333 21244 43014 55074;
0140310880999992000013103004+59370+143200FM-12+000699999V0203601N004010075019N0200001N1-02051-02301099991ADDAY171031AY221031GF107991061051008001051061MD1610111+9999MW1011REMSYN066AAXX  31031 31088 41598 73604 11205 21230 49999 56011 70172 86556;
0140310880999992000013106004+59370+143200FM-12+000699999V0203601N003010300019N0500001N1-01861-02121100051ADDAY171061AY221061GF107991021051008001031061MD1310061+9999MW1021REMSYN066AAXX  31061 31088 41599 73603 11186 21212 40005 53006 70272 82536;
0135310880999992000013109004+59370+143200FM-12+000699999V0203501N002010300019N0500001N1-01661-01851100191ADDGF107991031051008001031061KA1999M-01641MD1210141+9999REMSYN070AAXX  31091 31088 /2599 73502 11166 21185 40019 52014 83536 333 11164;
0173310880999992000013112004+59370+143200FM-12+000699999V0200301N003019999999N0500001N1-01861-02271100361ADDAA100000591GF107991071001999999031061KA1999M-01641MA1999999100281MD1210171+9999REMSYN082AAXX  31121 31088 12999 70303 11186 21227 30028 40036 52017 69960 87036 333 11164;
0112310880999992000013115004+59370+143200FM-12+000699999V0200201N003019999999N0500001N1-01961-02541100421ADDGF107991031001999999031011MD1110061+9999REMSYN060AAXX  31151 31088 42999 70203 11196 21254 40042 51006 83031;
0175310880999992000013121004+59370+143200FM-12+000699999V0200201N002019999999N0500001N1-02391-02951100661ADDAA199000091AJ100159199999999GF105991001001999999001011IA1239MD1210111+9999REMSYN070AAXX  31211 31088 32999 50202 11239 21295 40066 52011 80001 333 47015;EQDQ01  00002PRCP99
0221310880999992000020100004+59370+143200FM-12+000699999V0203501N001019999999N0500001N1-02041-02611100751ADDAA199000091AJ100159199999999GF107991031001999999031061IA1239KA1120N-02391MA1999999100671MD1210091+9999REMSYN088AAXX  01001 31088 32999 73501 11204 21261 30067 40075 52009 83036 333 21239 47015 55000;EQDQ01  00002PRCP99
0112310880999992000020103004+59370+143200FM-12+000699999V0203601N002019999999N0500001N1-01711-02511100821ADDGF107991021001999999031061MD1210081+9999REMSYN060AAXX  01031 31088 42999 73602 11171 21251 40082 52008 82036;
0112310880999992000020106004+59370+143200FM-12+000699999V0203401N004019999999N0500001N1-01531-02461100791ADDGF107991011001999999041011MD1810031+9999REMSYN060AAXX  01061 31088 42999 73404 11153 21246 40079 58003 81041;
0165310880999992000020109004+59370+143200FM-12+000699999V0203601N004019999999N0500001N1-01831-02731100921ADDAA199000091GF107991011001999999041011KA1999M-01481MD1310111+9999REMSYN070AAXX  01091 31088 32999 73604 11183 21273 40092 53011 81041 333 11148;EQDQ01  00002PRCP99
0186310880999992000020112004+59370+143200FM-12+000699999V0200201N002019999999N0500001N1-02011-02901100931ADDAA199000091GF107991001001999999001011KA1999M-01481MA1999999100851MD1110021+9999REMSYN076AAXX  01121 31088 32999 70202 11201 21290 30085 40093 51002 80001 333 11148;EQDQ01  00002PRCP99
0112310880999992000020115004+59370+143200FM-12+000699999V0203601N005019999999N0500001N1-01851-02751100951ADDGF107991001001999999001011MD1210021+9999REMSYN060AAXX  01151 31088 42999 73605 11185 21275 40095 52002 80001;
0112310880999992000020118004+59370+143200FM-12+000699999V0200101N003019999999N0500001N1-01871-02901101011ADDGF106991001001999999001011MD1210061+9999REMSYN060AAXX  01181 31088 42999 60103 11187 21290 40101 52006 80001;
0175310880999992000020121004+59370+143200FM-12+000699999V0203601N003012200019N0500001N1-02051-02941101041ADDAA199000091AJ100149199999999GF103991001001999999001011IA1239MD1210031+9999REMSYN070AAXX  01211 31088 32999 33603 11205 21294 40104 52003 80001 333 47014;EQDQ01  00002PRCP99
0231310880999992000020200004+59370+143200FM-12+000699999V0200101N003012200019N0500001N1-01991-02771101101ADDAA199000091AJ100149199999999GA1001+999999999GF100991001001999999001001IA1239KA1120N-02161MA1999999101021MD1210061+9999REMSYN082AAXX  02001 31088 32999 00103 11199 21277 30102 40110 52006 333 21216 47014 55045;EQDQ01  00002PRCP99
0112310880999992000020203004+59370+143200FM-12+000699999V0200101N003012200019N0500001N1-01671-02591101061ADDGF102991001001999999001011MD1810041+9999REMSYN060AAXX  02031 31088 42999 20103 11167 21259 40106 58004 80001;
0112310880999992000020206004+59370+143200FM-12+000699999V0203501N002012200019N0500001N1-01421-02361101021ADDGF102991021001999999041001MD1710031+9999REMSYN060AAXX  02061 31088 42999 23502 11142 21236 40102 57003 82040;
0165310880999992000020209004+59370+143200FM-12+000699999V0200101N002012200019N0500001N1-01781-02691101081ADDAA199000091GF102991021001999999041001KA1999M-01371MD1310051+9999REMSYN070AAXX  02091 31088 32999 20102 11178 21269 40108 53005 82040 333 11137;EQDQ01  00002PRCP99
0196310880999992000020212004+59370+143200FM-12+000699999V0209999C000012200019N0500001N1-01941-02831101111ADDAA199000091GA1001+999999999GF100991001001999999001001KA1999M-01371MA1999999101031MD1210031+9999REMSYN070AAXX  02121 31088 32999 00000 11194 21283 30103 40111 52003 333 11137;EQDQ01  00002PRCP99
0122310880999992000020215004+59370+143200FM-12+000699999V0203601N002012200019N0500001N1-02051-02821101131ADDGA1001+999999999GF100991001001999999001001MD1210021+9999REMSYN054AAXX  02151 31088 42999 03602 11205 21282 40113 52002;
0122310880999992000020218004+59370+143200FM-12+000699999V0203601N004012200019N0500001N1-02051-02821101131ADDGA1001+999999999GF100991001001999999001001MD1410001+9999REMSYN054AAXX  02181 31088 42999 03604 11205 21282 40113 54000;
0185310880999992000020221004+59370+143200FM-12+000699999V0200101N003012200019N0500001N1-01851-02641101201ADDAA199000091AJ100149199999999GA1001+999999999GF100991001001999999001001IA1239MD1310071+9999REMSYN064AAXX  02211 31088 32999 00103 11185 21264 40120 53007 333 47014;EQDQ01  00002PRCP99
0221310880999992000020300004+59370+143200FM-12+000699999V0203401N005012200019N0500001N1-01761-02551101341ADDAA199000091AJ100149199999999GF102991001001999999001011IA1239KA1120N-02231MA1999999101261MD1310141+9999REMSYN088AAXX  03001 31088 32999 23405 11176 21255 30126 40134 53014 80001 333 21223 47014 55076;EQDQ01  00002PRCP99
0112310880999992000020303004+59370+143200FM-12+000699999V0203601N004012200019N0500001N1-01411-02351101341ADDGF103991011001999999031011MD1410001+9999REMSYN060AAXX  03031 31088 42999 33604 11141 21235 40134 54000 81031;
0112310880999992000020306004+59370+143200FM-12+000699999V0203601N004012200019N0500001N1-01301-02241101311ADDGF103991021001999999051011MD1810021+9999REMSYN060AAXX  03061 31088 42999 33604 11130 21224 40131 58002 82051;
0165310880999992000020309004+59370+143200FM-12+000699999V0200401N001019999999N0500001N1-01471-02401101431ADDAA199000091GF106991021001999999051011KA1999M-01261MD1310121+9999REMSYN070AAXX  03091 31088 32999 60401 11147 21240 40143 53012 82051 333 11126;EQDQ01  00002PRCP99
0186310880999992000020312004+59370+143200FM-12+000699999V0200101N004012200019N0500001N1-01441-02371101521ADDAA199000091GF103991031001999999041001KA1999M-01261MA1999999101451MD1210091+9999REMSYN076AAXX  03121 31088 32999 30104 11144 21237 30145 40152 52009 83040 333 11126;EQDQ01  00002PRCP99
0112310880999992000020315004+59370+143200FM-12+000699999V0200101N003019999999N0500001N1-01631-02551101711ADDGF106991031001999999041011MD1310181+9999REMSYN060AAXX  03151 31088 42999 60103 11163 21255 40171 53018 83041;
0112310880999992000020318004+59370+143200FM-12+000699999V0200201N002019999999N0500001N1-01761-02551101781ADDGF107991031001999999041011MD1110071+9999REMSYN060AAXX  03181 31088 42999 70202 11176 21255 40178 51007 83041;
0175310880999992000020321004+59370+143200FM-12+000699999V0200401N003019999999N0500001N1-01731-02231101801ADDAA199000091AJ100149199999999GF105991021001999999041011IA1279MD1210021+9999REMSYN070AAXX  03211 31088 32999 50403 11173 21223 40180 52002 82041 333 43014;EQDQ01  00002PRCP99
0231310880999992000020400004+59370+143200FM-12+000699999V0200301N003012200019N0500001N1-01801-02481101831ADDAA199000091AJ100149199999999GA1001+999999999GF100991001001999999001001IA1279KA1120N-01971MA1999999101751MD1210031+9999REMSYN082AAXX  04001 31088 32999 00303 11180 21248 30175 40183 52003 333 21197 43014 55074;EQDQ01  00002PRCP99
0122310880999992000020403004+59370+143200FM-12+000699999V0200201N003012200019N0500001N1-01481-02291101731ADDGA1001+999999999GF100991001001999999001001MD1810101+9999REMSYN054AAXX  04031 31088 42999 00203 11148 21229 40173 58010;
0112310880999992000020406004+59370+143200FM-12+000699999V0200301N004012200019N0500001N1-01311-02251101691ADDGF102991021001999999041011MD1710041+9999REMSYN060AAXX  04061 31088 42999 20304 11131 21225 40169 57004 82041;
0165310880999992000020409004+59370+143200FM-12+000699999V0200501N003012200019N0500001N1-01681-02481101691ADDAA199000091GF102991021001999999041011KA1999M-01271MD1410001+9999REMSYN070AAXX  04091 31088 32999 20503 11168 21248 40169 54000 82041 333 11127;EQDQ01  00002PRCP99
0186310880999992000020412004+59370+143200FM-12+000699999V0200201N002012200019N0500001N1-01611-02411101671ADDAA199000091GF103991001001999999001011KA1999M-01271MA1999999101591MD1810021+9999REMSYN076AAXX  04121 31088 32999 30202 11161 21241 30159 40167 58002 80001 333 11127;EQDQ01  00002PRCP99
0122310880999992000020415004+59370+143200FM-12+000699999V0203601N004012200019N0500001N1-01581-02381101641ADDGA1001+999999999GF100991001001999999001001MD1710031+9999REMSYN054AAXX  04151 31088 42999 03604 11158 21238 40164 57003;
0122310880999992000020418004+59370+143200FM-12+000699999V0200201N004012200019N0500001N1-01631-02431101661ADDGA1001+999999999GF100991001001999999001001MD1310021+9999REMSYN054AAXX  04181 31088 42999 00204 11163 21243 40166 53002;
0175310880999992000020421004+59370+143200FM-12+000699999V0200101N005012200019N0500001N1-01631-02431101661ADDAA199000091AJ100149199999999GF102991021001999999031001IA1279MD1410001+9999REMSYN070AAXX  04211 31088 32999 20105 11163 21243 40166 54000 82030 333 43014;EQDQ01  00002PRCP99
0221310880999992000020500004+59370+143200FM-12+000699999V0200301N003012200019N0500001N1-01641-02331101761ADDAA199000091AJ100149199999999GF103991011001999999041011IA1279KA1120N-01811MA1999999101681MD1310101+9999REMSYN088AAXX  05001 31088 32999 30303 11164 21233 30168 40176 53010 81041 333 21181 43014 55070;EQDQ01  00002PRCP99
0112310880999992000020503004+59370+143200FM-12+000699999V0200301N004012200019N0500001N1-01331-02041101741ADDGF101991001001999999001011MD1810021+9999REMSYN060AAXX  05031 31088 42999 10304 11133 21204 40174 58002 80001;
0112310880999992000020506004+59370+143200FM-12+000699999V0200401N003012200019N0500001N1-01171-02121101711ADDGF102991001001999999001011MD1710021+9999REMSYN060AAXX  05061 31088 42999 20403 11117 21212 40171 57002 80001;
0165310880999992000020509004+59370+143200FM-12+000699999V0200301N005012200019N0500001N1-01351-02291101751ADDAA199000091GF102991001001999999001011KA1999M-01141MD1310031+9999REMSYN070AAXX  05091 31088 32999 20305 11135 21229 40175 53003 80001 333 11114;EQDQ01  00002PRCP99
0186310880999992000020512004+59370+143200FM-12+000699999V0200401N005012200019N0500001N1-01421-02241101771ADDAA199000091GF102991001001999999001011KA1999M-01141MA1999999101691MD1210021+9999REMSYN076AAXX  05121 31088 32999 20405 11142 21224 30169 40177 52002 80001 333 11114;EQDQ01  00002PRCP99
0122310880999992000020515004+59370+143200FM-12+000699999V0200401N003012200019N0500001N1-01481-02291101771ADDGA1001+999999999GF100991001001999999001001MD1410001+9999REMSYN054AAXX  05151 31088 42999 00403 11148 21229 40177 54000;
0122310880999992000020518004+59370+143200FM-12+000699999V0200401N004012200019N0500001N1-01551-02361101771ADDGA1001+999999999GF100991001001999999001001MD1410001+9999REMSYN054AAXX  05181 31088 42999 00404 11155 21236 40177 54000;
0185310880999992000020521004+59370+143200FM-12+000699999V0200301N005012200019N0500001N1-01551-02361101691ADDAA199000091AJ100129199999999GA1001+999999999GF100991001001999999001001IA1279MD1810081+9999REMSYN064AAXX  05211 31088 32999 00305 11155 21236 40169 58008 333 43012;EQDQ01  00002PRCP99
0231310880999992000020600004+59370+143200FM-12+000699999V0203601N005012200019N0500001N1-01641-02441101651ADDAA199000091AJ100139199999999GA1001+999999999GF100991001001999999001001IA1279KA1120N-01731MA1999999101571MD1710041+9999REMSYN082AAXX  06001 31088 32999 03605 11164 21244 30157 40165 57004 333 21173 43013 55075;EQDQ01  00002PRCP99
0122310880999992000020603004+59370+143200FM-12+000699999V0203601N006012200019N0500001N1-01111-01951101501ADDGA1001+999999999GF100991001001999999001001MD1810141+9999REMSYN054AAXX  06031 31088 42999 03606 11111 21195 40150 58014;
0122310880999992000020606004+59370+143200FM-12+000699999V0203601N006012200019N0500001N1-00881-01891101421ADDGA1001+999999999GF100991001001999999001001MD1710081+9999REMSYN054AAXX  06061 31088 42999 03606 11088 21189 40142 57008;
0165310880999992000020609004+59370+143200FM-12+000699999V0203501N003012200019N0500001N1-01031-02001101331ADDAA199000091GF102991021001999999031001KA1999M-00811MD1710091+9999REMSYN070AAXX  06091 31088 32999 23503 11103 21200 40133 57009 82030 333 11081;EQDQ01  00002PRCP99
0186310880999992000020612004+59370+143200FM-12+000699999V0200201N003012200019N0500001N1-01081-01921101351ADDAA199000091GF102991021001999999041001KA1999M-00811MA1999999101281MD1310021+9999REMSYN076AAXX  06121 31088 32999 20203 11108 21192 30128 40135 53002 82040 333 11081;EQDQ01  00002PRCP99
0112310880999992000020615004+59370+143200FM-12+000699999V0200301N002012200019N0500001N1-01241-02071101261ADDGF101991011001999999041001MD1810091+9999REMSYN060AAXX  06151 31088 42999 10302 11124 21207 40126 58009 81040;
0112310880999992000020618004+59370+143200FM-12+000699999V0200101N003019999999N0500001N1-01141-02101101191ADDGF105991021001999999041011MD1710071+9999REMSYN060AAXX  06181 31088 42999 50103 11114 21210 40119 57007 82041;
0175310880999992000020621004+59370+143200FM-12+000699999V0200301N003012200019N0500001N1-01341-02161101101ADDAA199000091AJ100139199999999GF102991021001999999031001IA1279MD1710091+9999REMSYN070AAXX  06211 31088 32999 20303 11134 21216 40110 57009 82030 333 43013;EQDQ01  00002PRCP99
0221310880999992000020700004+59370+143200FM-12+000699999V0203601N004010300019N0500001N1-00921-01741101031ADDAA199000091AJ100139199999999GF107991021051008001031011IA1279KA1120N-01391MA1999999100961MD1710071+9999REMSYN088AAXX  07001 31088 32599 73604 11092 21174 30096 40103 57007 82531 333 21139 43013 55078;EQDQ01  00002PRCP99
0112310880999992000020703004+59370+143200FM-12+000699999V0203501N005010300019N0500001N1-00671-01511100921ADDGF107991021051008001031011MD1710111+9999REMSYN060AAXX  07031 31088 42599 73505 11067 21151 40092 57011 82531;
0112310880999992000020706004+59370+143200FM-12+000699999V0203501N007010300019N0500001N1-00561-01631100811ADDGF107991021051008001031011MD1710111+9999REMSYN060AAXX  07061 31088 42599 73507 11056 21163 40081 57011 82531;
0165310880999992000020709004+59370+143200FM-12+000699999V0203501N004010300019N0500001N1-00691-01751100781ADDAA199000091GF107991011051008001031011KA1999M-00531MD1610031+9999REMSYN070AAXX  07091 31088 32599 73504 11069 21175 40078 56003 81531 333 11053;EQDQ01  00002PRCP99
0186310880999992000020712004+59370+143200FM-12+000699999V0203601N004010300019N0500001N1-00871-01791100781ADDAA199000091GF107991021051008001031011KA1999M-00531MA1999999100711MD1410001+9999REMSYN076AAXX  07121 31088 32599 73604 11087 21179 30071 40078 54000 82531 333 11053;EQDQ01  00002PRCP99
0112310880999992000020715004+59370+143200FM-12+000699999V0203501N001019999999N0500001N1-01281-02111100781ADDGF106991021001999999041011MD1410001+9999REMSYN060AAXX  07151 31088 42999 63501 11128 21211 40078 54000 82041;
0112310880999992000020718004+59370+143200FM-12+000699999V0203401N003012200019N0000001N1-01341-02051100781ADDGF103991011001000251041011MD1410001+9999REMSYN060AAXX  07181 31088 42000 33403 11134 21205 40078 54000 81041;
0175310880999992000020721004+59370+143200FM-12+000699999V0203601N003012200019N0500001N1-01481-02181100811ADDAA199000091AJ100139199999999GF102991021001999999041001IA1279MD1310031+9999REMSYN070AAXX  07211 31088 32999 23603 11148 21218 40081 53003 82040 333 43013;EQDQ01  00002PRCP99
0208310880999992000020800004+59370+143200FM-12+000699999V0203401N002010300019N0500001N1-01471-02071100911ADDAA199000091AJ100139199999999GF107991031051008001041011IA1279MA1999999100841MD1210101+9999REMSYN088AAXX  08001 31088 32599 73402 11147 21207 30084 40091 52010 83541 333 24150 43013 55023;EQDQ01  00002PRCP99
0112310880999992000020803004+59370+143200FM-12+000699999V0203601N002010042019N0500001N1-01051-01891100861ADDGF107991051061004501041011MD1810051+9999REMSYN060AAXX  08031 31088 42499 73602 11105 21189 40086 58005 85641;
0112310880999992000020806004+59370+143200FM-12+000699999V0200101N002019999999N0500001N1-00831-01871999999ADDGF105991021001999999041011MD1710081+9999REMSYN060AAXX  08061 31088 42999 50102 11083 21187 44078 57008 82041;
0165310880999992000020809004+59370+143200FM-12+000699999V0200101N002019999999N0500001N1-01291-02011100771ADDAA199000091GF105991021001999999041011KA1999M-00791MD1610011+9999REMSYN070AAXX  08091 31088 32999 50102 11129 21201 40077 56001 82041 333 11079;EQDQ01  00002PRCP99
0186310880999992000020812004+59370+143200FM-12+000699999V0203501N003012200019N0500001N1-01611-02311100751ADDAA199000091GF102991011001999999041011KA1999M-00791MA1999999100681MD1710021+9999REMSYN076AAXX  08121 31088 32999 23503 11161 21231 30068 40075 57002 81041 333 11079;EQDQ01  00002PRCP99
0112310880999992000020815004+59370+143200FM-12+000699999V0203501N002012200019N0500001N1-01761-02261100611ADDGF102991001001999999001011MD1810151+9999REMSYN060AAXX  08151 31088 42999 23502 11176 21226 40061 58015 80001;
0106310880999992000020818004+59370+143200FM-12+000699999V0203501N003012200019N0500001N1-01581-02181100441ADDGF104991999999999999999999MD1710161+9999REMSYN054AAXX  08181 31088 42999 43503 11158 21218 40044 57016;
0175310880999992000020821004+59370+143200FM-12+000699999V0203501N002012200019N0500001N1-01641-02241100271ADDAA199000091AJ100139199999999GF102991001001999999001011IA1279MD1710171+9999REMSYN070AAXX  08211 31088 32999 23502 11164 21224 40027 57017 80001 333 43013;EQDQ01  00002PRCP99
0221310880999992000020900004+59370+143200FM-12+000699999V0203601N003012200019N0500001N1-01451-02061100221ADDAA199000091AJ100139199999999GF103991021001999999031011IA1279KA1120N-01921MA1999999100151MD1610051+9999REMSYN088AAXX  09001 31088 32999 33603 11145 21206 30015 40022 56005 82031 333 21192 43013 55072;EQDQ01  00002PRCP99
0112310880999992000020903004+59370+143200FM-12+000699999V0203401N003019999999N0500001N1-01181-01811099981ADDGF105991021001999999031011MD1810241+9999REMSYN060AAXX  09031 31088 42999 53403 11118 21181 49998 58024 82031;
0112310880999992000020906004+59370+143200FM-12+000699999V0203601N003019999999N0500001N1-00881-01891099831ADDGF107991051001999999051011MD1610151+9999REMSYN060AAXX  09061 31088 42999 73603 11088 21189 49983 56015 85051;
0165310880999992000020909004+59370+143200FM-12+000699999V0203501N003019999999N0500001N1-01091-02821099811ADDAA199000091GF108991081001999999071999KA1999M-00221MD1610021+9999REMSYN070AAXX  09091 31088 32999 83503 11109 21282 49981 56002 8807/ 333 11022;EQDQ01  00002PRCP99
0186310880999992000020912004+59370+143200FM-12+000699999V0200101N001019999999N0500001N1-01091-01821099801ADDAA199000091GF107991051001999999041011KA1999M-00821MA1999999099731MD1710011+9999REMSYN076AAXX  09121 31088 32999 70101 11109 21182 39973 49980 57001 85041 333 11082;EQDQ01  00002PRCP99
0112310880999992000020915004+59370+143200FM-12+000699999V0200101N002019999999N0500001N1-01021-01751099751ADDGF107991061001999999041011MD1710051+9999REMSYN060AAXX  09151 31088 42999 70102 11102 21175 49975 57005 86041;
0112310880999992000020918004+59370+143200FM-12+000699999V0200201N002019999999N0500001N1-01181-01801099751ADDGF107991061001999999041011MD1710021+9999REMSYN060AAXX  09181 31088 42999 70202 11118 21180 49975 57002 86041;
0175310880999992000020921004+59370+143200FM-12+000699999V0200201N001019999999N0500001N1-01311-01921099711ADDAA199000091AJ100129199999999GF107991051001999999041011IA1279MD1710021+9999REMSYN070AAXX  09211 31088 32999 70201 11131 21192 49971 57002 85041 333 43012;EQDQ01  00002PRCP99
0221310880999992000021000004+59370+143200FM-12+000699999V0200101N002019999999N0500001N1-01311-01921099741ADDAA199000091AJ100129199999999GF108991081001999999071999IA1279KA1120N-01311MA1999999099671MD1310031+9999REMSYN088AAXX  10001 31088 32999 80102 11131 21192 39967 49974 53003 8807/ 333 21131 43012 55078;EQDQ01  00002PRCP99
0112310880999992000021003004+59370+143200FM-12+000699999V0200201N002019999999N0500001N1-01061-01691099691ADDGF108991031001999999041071MD1810051+9999REMSYN060AAXX  10031 31088 42999 80202 11106 21169 49969 58005 83047;
0112310880999992000021006004+59370+143200FM-12+000699999V0200101N002019999999N0500001N1-00981-01691099691ADDGF107991021001999999051061MD1410001+9999REMSYN060AAXX  10061 31088 42999 70102 11098 21169 49969 54000 82056;
0165310880999992000021009004+59370+143200FM-12+000699999V0200301N002019999999N0500001N1-01151-01771099741ADDAA199000091GF107991021001999999051061KA1999M-00931MD1310051+9999REMSYN070AAXX  10091 31088 32999 70302 11115 21177 49974 53005 82056 333 11093;EQDQ01  00002PRCP99
0186310880999992000021012004+59370+143200FM-12+000699999V0203601N002019999999N0500001N1-01511-02021099801ADDAA199000091GF105991031001999999051011KA1999M-00531MA1999999099731MD1210061+9999REMSYN076AAXX  10121 31088 32999 53602 11151 21202 39973 49980 52006 83051 333 11053;EQDQ01  00002PRCP99
0131310880999992000021015004+59370+143200FM-12+000699999V0203601N002012200019N0500001N1+99999-02141099851ADDGF103991021001999999031011MD1210051+9999REMSYN060AAXX  10151 31088 42999 33602 10164 21214 49985 52005 82031;EQDQ01+001643ATOT  
0112310880999992000021018004+59370+143200FM-12+000699999V0200201N002019999999N0500001N1-01671-02171099941ADDGF107991031001999999051011MD1210091+9999REMSYN060AAXX  10181 31088 42999 70202 11167 21217 49994 52009 83051;
0175310880999992000021021004+59370+143200FM-12+000699999V0200101N003019999999N0500001N1-01661-02251100041ADDAA199000091AJ100129199999999GF107991041001999999051011IA1279MD1210101+9999REMSYN070AAXX  10211 31088 32999 70103 11166 21225 40004 52010 84051 333 43012;EQDQ01  00002PRCP99
0255310880999992000041900004+59370+143200FM-12+000699999V0201501N005010075019N0200001N1+00021-00071100991ADDAA100000791AJ199992999999999AY171061AY221061GF108991051051008001011999IA1259KA1120N-00011MA1999999100921MD1210051+9999MW1711REMSYN100AAXX  19001 31088 11598 81505 10002 21007 30092 40099 52005 69900 77172 8551/ 333 21001 41998 55120;EQDQ01  09972SNDP  
0140310880999992000041903004+59370+143200FM-12+000699999V0201401N001010300019N0200001N1-00051-00111101111ADDAY181031AY271031GF108991041091008001011999MD1210121+9999MW1851REMSYN066AAXX  19031 31088 41598 81401 11005 21011 40111 52012 78587 8491/;
0166310880999992000041906004+59370+143200FM-12+000699999V0201701N006010060019N0200001N1-00191-00251101271ADDAY181061AY271061GA1061+006009059GF108991081031008001999999MD1210161+9999MW1021REMSYN076AAXX  19061 31088 41598 81706 11019 21025 40127 52016 70287 883// 333 86620;
0223310880999992000041912004+59370+143200FM-12+000699999V0201601N005010072019N0200001N1-00301-00331101571ADDAA100000191AY181061AY271061GA1051+007209059GF108991081091008001999999KA1120M+00041MA1999999101501MD1210141+9999MW1021REMSYN094AAXX  19121 31088 11598 81605 11030 21033 30150 40157 52014 69920 70287 889// 333 10004 85624;
0140310880999992000041915004+59370+143200FM-12+000699999V0201401N004010042019N0200001N1-00301-00331101681ADDAY171031AY221031GF108991081061004501999999MD1210111+9999MW1771REMSYN066AAXX  19151 31088 41498 81404 11030 21033 40168 52011 77772 886//;
0140310880999992000041918004+59370+143200FM-12+000699999V0201301N004010042019N0200001N1-00361-00361101741ADDAY171061AY221061GF108991081061004501999999MD1110061+9999MW1771REMSYN066AAXX  19181 31088 41498 81304 11036 21036 40174 51006 77772 886//;
0173310880999992000041921004+59370+143200FM-12+000699999V0201801N003010021019N0200001N1-00391-00411101831ADDAJ100009199999999AY171031AY221031GF108991081061002501999999IA1219MD1210091+9999MW1771REMSYN076AAXX  19211 31088 /1398 81803 11039 21041 40183 52009 77772 886// 333 45997;
0255310880999992000042000004+59370+143200FM-12+000699999V0201601N003010021019N0200001N1-00351-00401101941ADDAA100000591AJ199993999999999AY171061AY221061GF108991081061002501999999IA1219KA1120N-00411MA1999999101871MD1210111+9999MW1771REMSYN100AAXX  20001 31088 11398 81603 11035 21040 30187 40194 52011 69940 77772 886// 333 21041 45997 55000;EQDQ01  09982SNDP  
0140310880999992000042003004+59370+143200FM-12+000699999V0201801N004010021019N0200001N1-00281-00351101941ADDAY171031AY221031GF108991061061002501071999MD1410001+9999MW1021REMSYN066AAXX  20031 31088 41398 81804 11028 21035 40194 54000 70272 8667/;
0166310880999992000042006004+59370+143200FM-12+000699999V0201801N003010036019N0200001N1-00241-00301101961ADDAY171061AY221061GA1071+003609069GF107991071061004501001001MD1310021+9999MW1021REMSYN076AAXX  20061 31088 41498 71803 11024 21030 40196 53002 70272 87600 333 87712;
0157310880999992000042009004+59370+143200FM-12+000699999V0201801N003010030019N0009001N1-00311-00351101961ADDGA1081+003009069GF108991081061004501999999KA1120M-00171MD1410001+9999REMSYN076AAXX  20091 31088 /2409 81803 11031 21035 40196 54000 886// 333 11017 88710;
0195310880999992000042012004+59370+143200FM-12+000699999V0209999C000010027019N0200001N1-00311-00381102011ADDAA100000791GA1081+002709069GF108991081061002501999999KA1120M-00171MA1999999101941MD1310051+9999REMSYN088AAXX  20121 31088 12398 80000 11031 21038 30194 40201 53005 69900 886// 333 11017 88709;
0140310880999992000042015004+59370+143200FM-12+000699999V0209999C000010021019N0200001N1-00311-00381101981ADDAY171031AY221031GF108991081061002501999999MD1810031+9999MW1771REMSYN066AAXX  20151 31088 41398 80000 11031 21038 40198 58003 77772 886//;
0140310880999992000042018004+59370+143200FM-12+000699999V0209999C000010021019N0200001N1-00321-00381101981ADDAY171061AY221061GF108991081061002501999999MD1410001+9999MW1771REMSYN066AAXX  20181 31088 41398 80000 11032 21038 40198 54000 77772 886//;
0173310880999992000042021004+59370+143200FM-12+000699999V0203001N001010021019N0200001N1-00351-00401101921ADDAJ100009199999999AY171031AY221031GF108991081061002501999999IA1219MD1810061+9999MW1771REMSYN076AAXX  20211 31088 /1398 83001 11035 21040 40192 58006 77772 886// 333 45997;
0138310880999992000042103004+59370+143200FM-12+000699999V0202201N002010033019N0500001N1-00221-00491101791ADDGA1061+003309069GF108991081031004501999999MD1810101+9999REMSYN070AAXX  21031 31088 42499 82202 11022 21049 40179 58010 883// 333 86711;
0112310880999992000042106004+59370+143200FM-12+000699999V0202301N003010075019N0500001N1+99999+99999101731ADDGF107991071021008001001001MD1710061+9999REMSYN060AAXX  21061 31088 42599 72303 11006 21827 40173 57006 87200;
0157310880999992000042109004+59370+143200FM-12+000699999V0202301N003010030019N0200001N1-00221-00311101701ADDGA1051+003009069GF108991081061004501999999KA1120M-00021MD1710031+9999REMSYN076AAXX  21091 31088 /2498 82303 11022 21031 40170 57003 886// 333 11002 85710;
0195310880999992000042112004+59370+143200FM-12+000699999V0202401N002010027019N0200001N1-00261-00261101751ADDAA100000791GA1081+002709069GF108991081061002501999999KA1120M-00021MA1999999101681MD1310051+9999REMSYN088AAXX  21121 31088 12398 82402 11026 21026 30168 40175 53005 69900 886// 333 11002 88709;
0138310880999992000042115004+59370+143200FM-12+000699999V0202001N001010021019N0200001N1-00301-00301101691ADDGA1081+002109069GF108991081061002501999999MD1810061+9999REMSYN070AAXX  21151 31088 42398 82001 11030 21030 40169 58006 886// 333 88707;
0140310880999992000042118004+59370+143200FM-12+000699999V0209999C000010012019N0200001N1-00271-00271101671ADDAY171061AY221061GF108991081061001501999999MD1710021+9999MW1711REMSYN066AAXX  21181 31088 41298 80000 11027 21027 40167 57002 77172 886//;
0214310880999992000042121004+59370+143200FM-12+000699999V0209999C000010024019N0200001N1-00321-00321101761ADDAJ199992999999999AY171031AY221031GA1081+002409069GF108991081061001501999999IA1229MD1310091+9999MW1021REMSYN082AAXX  21211 31088 /1298 80000 11032 21032 40176 53009 70272 886// 333 46998 88708;EQDQ01  09972SNDP  
0260310880999992000042200004+59370+143200FM-12+000699999V0209999C000010024019N0020001N1-00311-00311101821ADDAA199000021AJ199992999999999AY171061AY221061GA1081+002409069GF108991081061002501999999GJ102049IA1229MA1999999101751MD1210061+9999MW1101REMSYN094AAXX  22001 31088 31395 80000 11031 21031 30175 40182 52006 71072 886// 333 46998 55034 88708;EQDQ01  09972SNDP  
0138310880999992000042203004+59370+143200FM-12+000699999V0202301N002010027019N0100001N1-00151-00231101831ADDGA1081+002709069GF108991081061002501999999MD1210011+9999REMSYN070AAXX  22031 31088 41397 82302 11015 21023 40183 52001 886// 333 88709;
0138310880999992000042206004+59370+143200FM-12+000699999V0202501N003010024019N0100001N1-00141-00221101821ADDGA1081+002409069GF108991081061002501999999MD1810011+9999REMSYN070AAXX  22061 31088 41397 82503 11014 21022 40182 58001 886// 333 88708;
0163310880999992000042209004+59370+143200FM-12+000699999V0202401N003010021019N0020001N1-00181-00181101861ADDAY171031AY221031GF108991081061002501999999KA1999M-00081MD1310041+9999MW1771REMSYN076AAXX  22091 31088 /1395 82403 11018 21018 40186 53004 77772 886// 333 11008;
0140310880999992000042215004+59370+143200FM-12+000699999V0201001N003010021019N0020001N1-00261-00361101991ADDAY171031AY221031GF108991081061002501999999MD1110021+9999MW1771REMSYN066AAXX  22151 31088 41395 81003 11026 21036 40199 51002 77772 886//;
0173310880999992000042221004+59370+143200FM-12+000699999V0209999C000010042019N0100001N1-00241-00431101971ADDAJ100009199999999AY171031AY221031GF108991081061004501999999IA1229MD1810031+9999MW1771REMSYN076AAXX  22211 31088 /1497 80000 11024 21043 40197 58003 77772 886// 333 46998;
0255310880999992000042300004+59370+143200FM-12+000699999V0209999C000010042019N0010001N1-00191-00401102021ADDAA100000591AJ199992999999999AY171061AY221061GF108991081061004501999999IA1229KA1120N-00291MA1999999101951MD1310051+9999MW1771REMSYN100AAXX  23001 31088 11494 80000 11019 21040 30195 40202 53005 69940 77772 886// 333 21029 46998 55000;EQDQ01  09972SNDP  
0166310880999992000042303004+59370+143200FM-12+000699999V0202401N001010030019N0200001N1-00131-00331102001ADDAY171031AY221031GA1051+003009069GF108991081061004501999999MD1810021+9999MW1021REMSYN076AAXX  23031 31088 41498 82401 11013 21033 40200 58002 70272 886// 333 85710;
0166310880999992000042306004+59370+143200FM-12+000699999V0202501N00101004201CN0200001N1-00081-00301101921ADDAY171061AY221061GA1041+003009069GF108991081061004501999999MD1710081+9999MW1021REMSYN076AAXX  23061 31088 41498 82501 11008 21030 40192 57008 70272 886// 333 84710;
0163310880999992000042309004+59370+143200FM-12+000699999V0202601N001010042019N0040001N1-00181-00181101901ADDAY171031AY221031GF108991061061004501021999KA1999M-00081MD1610021+9999MW1731REMSYN076AAXX  23091 31088 /1496 82601 11018 21018 40190 56002 77372 8662/ 333 11008;
0201310880999992000042312004+59370+143200FM-12+000699999V0202501N002010042019N0040001N1-00151-00171101871ADDAA100000391AY171061AY221061GF108991081061004501999999KA1999M-00081MA1999999101801MD1710031+9999MW1731REMSYN088AAXX  23121 31088 11496 82502 11015 21017 30180 40187 57003 69930 77372 886// 333 11008;
0140310880999992000042315004+59370+143200FM-12+000699999V0202701N002010042019N0020001N1-00161-00161101821ADDAY181031AY271031GF108991081061004501999999MD1710051+9999MW1851REMSYN066AAXX  23151 31088 41495 82702 11016 21016 40182 57005 78587 886//;
0159310880999992000042318004+59370+143200FM-12+000699999V0202801N001019999999N0040001N1-00141-00141101771ADDAY181061AY271061GF108991999091004501999999MD1710051+9999MW1851REMSYN066AAXX  23181 31088 41496 82801 11014 21014 40177 57005 78587 899//;EQDQ01+000092SCOTLC
0195310880999992000042321004+59370+143200FM-12+000699999V0200201N001010030019N0200001N1-00191-00191101771ADDAJ100019199999999AY171031AY221031GA1051+003009069GF108991061061004501051999IA1239MD1410001+9999MW1221REMSYN082AAXX  23211 31088 /1498 80201 11019 21019 40177 54000 72272 8665/ 333 47001 85710;
0266310880999992000042400004+59370+143200FM-12+000699999V0203601N002010072019N0200001N1-00041-00281101751ADDAA100002091AJ100019199999999AY171061AY221061GA1051+007209059GF107991071031008001001001GJ100009IA1239KA1120N-00201MA1999999101681MD1810021+9999MW1021REMSYN106AAXX  24001 31088 11598 73602 11004 21028 30168 40175 58002 60020 70272 87300 333 21020 47001 55000 85624;
0112310880999992000042403004+59370+143200FM-12+000699999V0202401N004010300019N0500001N1+00131-00161101711ADDGF106991021011008001031011MD1710041+9999REMSYN060AAXX  24031 31088 42599 62404 10013 21016 40171 57004 82131;
0112310880999992000042406004+59370+143200FM-12+000699999V0202501N004010300019N0500001N1+00161+00001101721ADDGF107991021041008001031011MD1310011+9999REMSYN060AAXX  24061 31088 42599 72504 10016 21000 40172 53001 82431;
0165310880999992000042409004+59370+143200FM-12+000699999V0202601N999990075019N0500001N1+00001-00031101721ADDAA199000021GF107991051051008001051011KA1999M+00281MD1410001+9999REMSYN070AAXX  24091 31088 32599 77603 10000 21003 40172 54800 85551 333 10028;EQDQ01+010301WOSPD 
0140310880999992000042415004+59370+143200FM-12+000699999V0209999C000010021019N0020001N1-00281-00281101991ADDAY121031AY221031GF108991081061002501999999MD1210121+9999MW1101REMSYN066AAXX  24151 31088 41395 80000 11028 21028 40199 52012 71022 886//;
0166310880999992000042418004+59370+143200FM-12+000699999V0209999C000010030019N0040001N1-00121-00121102161ADDAY121061AY221061GA1081+003009069GF108991081061004501999999MD1210151+9999MW1101REMSYN076AAXX  24181 31088 41496 80000 11012 21012 40216 52015 71022 886// 333 88710;
0180310880999992000042421004+59370+143200FM-12+000699999V0203501N002010006019N0010001N1-00311-00311102281ADDAA199000091AY141031AY221031GA1091+999999999GF109991091999999999999999MD1210121+9999MW1451REMSYN060AAXX  24211 31088 31/94 93502 11031 21031 40228 52012 74542;EQDQ01  00002PRCP99
0275310880999992000042500004+59370+143200FM-12+000699999V0201401N004012200019N0500001N1+00251-00421102331ADDAA199000091AJ199992999999999AY141061AY211061GA1001+999999999GF100991001001999999001001IA1259KA1120N-00331MA1999999102261MD1110051+9999MW1011REMSYN088AAXX  25001 31088 31999 01404 10025 21042 30226 40233 51005 70141 333 21033 41998 55060;EQDQ01  00002PRCP99Q02  09972SNDP  
0138310880999992000042503004+59370+143200FM-12+000699999V0202001N002010033019N0200001N1-00081-00171102371ADDGA1071+003309069GF107991071061004501001001MD1210041+9999REMSYN070AAXX  25031 31088 42498 72002 11008 21017 40237 52004 87600 333 87711;
0112310880999992000042506004+59370+143200FM-12+000699999V0201801N002010042019N0200001N1-00111-00171102271ADDGF106991061061004501001001MD1810101+9999REMSYN060AAXX  25061 31088 42498 61802 11011 21017 40227 58010 86600;
0165310880999992000042509004+59370+143200FM-12+000699999V0201801N001012200019N0500001N1-00041-00161102191ADDAA199000091GF102991001001999999001011KA1999M+00311MD1710081+9999REMSYN070AAXX  25091 31088 32999 21801 11004 21016 40219 57008 80001 333 10031;EQDQ01  00002PRCP99
0196310880999992000042512004+59370+143200FM-12+000699999V0202301N002012200019N0500001N1+00001-00121102131ADDAA199000091GA1001+999999999GF100991001001999999001001KA1999M+00311MA1999999102061MD1710061+9999REMSYN070AAXX  25121 31088 32999 02302 10000 21012 30206 40213 57006 333 10031;EQDQ01  00002PRCP99
0122310880999992000042515004+59370+143200FM-12+000699999V0202401N001012200019N0500001N1+99999+99999102011ADDGA1001+999999999GF100991001001999999001001MD1810121+9999REMSYN054AAXX  25151 31088 42999 02401 11005 21808 40201 58012;
0112310880999992000042518004+59370+143200FM-12+000699999V0202701N004010042019N0200001N1-00081-01121101891ADDGF106991061061004501001001MD1710121+9999REMSYN060AAXX  25181 31088 42498 62704 11008 21112 40189 57012 86600;
0142310880999992000042521004+59370+143200FM-12+000699999V0203001N002010042019N0200001N1-00101-00121101761ADDAA199000091GF106991061061004501001001MD1710131+9999REMSYN060AAXX  25211 31088 32498 63002 11010 21012 40176 57013 86600;EQDQ01  00002PRCP99
0192310880999992000042600004+59370+143200FM-12+000699999V0202301N002010042019N0200001N1-00071-00221101531ADDAA199000091GF107991061061004501041011KA1120N-00141MA1999999101461MD1810231+9999REMSYN082AAXX  26001 31088 32498 72302 11007 21022 30146 40153 58023 86641 333 21014 55128;EQDQ01  00002PRCP99
0112310880999992000042603004+59370+143200FM-12+000699999V0202501N004010042019N0200001N1-00011-00321101341ADDGF107991071061004501001001MD1710191+9999REMSYN060AAXX  26031 31088 42498 72504 11001 21032 40134 57019 87600;
0112310880999992000042606004+59370+143200FM-12+000699999V0202601N003010042019N0500001N1+00011-00291101131ADDGF107991051061004501001011MD1710211+9999REMSYN060AAXX  26061 31088 42499 72603 10001 21029 40113 57021 85601;
0187310880999992000042609004+59370+143200FM-12+000699999V0202201N004010030019N0200001N1-00151-00261101021ADDAA199000091GA1071+003009069GF107991071061004501001001KA1120M+00121MD1610111+9999REMSYN076AAXX  26091 31088 32498 72204 11015 21026 40102 56011 87600 333 10012 87710;EQDQ01  00002PRCP99
0208310880999992000042612004+59370+143200FM-12+000699999V0202101N001010030019N0200001N1-00191-00251100941ADDAA199000091GA1081+003009069GF108991081061004501999999KA1120M+00121MA1999999100871MD1710081+9999REMSYN082AAXX  26121 31088 32498 82101 11019 21025 30087 40094 57008 886// 333 10012 88710;EQDQ01  00002PRCP99
