0198360340999992000010100004+51500+081220FM-12+021599999V0200401N003019999999N0200001N1-02781-03031103381ADDAA106000091GF108991001001999999001021IA1249KA1120N-03401MA1999999100271MD1710511+9999REMSYN082AAXX  01001 36034 32998 80403 11278 21303 30027 40338 57051 80002 333 21340 48008;EQDQ01  00002PRCP06
0112360340999992000010103004+51500+081220FM-12+021599999V0200301N004019999999N0200001N1-02591-02841102861ADDGF108991081001999999021999MD1710461+9999REMSYN060AAXX  01031 36034 42998 80304 11259 21284 40286 57046 8802/;
0166360340999992000010106004+51500+081220FM-12+021599999V0200401N004010018019N0040001N1-02331-02581102501ADDAY171061AY221061GA1061+001809069GF108991081999002501021999MD1710321+9999MW1711REMSYN076AAXX  01061 36034 41396 80404 11233 21258 40250 57032 77172 8802/ 333 86706;
0166360340999992000010109004+51500+081220FM-12+021599999V0200301N003010015019N0005001N1-02001-02261102151ADDAY171031AY221031GA1061+001509069GF108991999071001501021999MD1310321+9999MW1751REMSYN076AAXX  01091 36034 41293 80303 11200 21226 40215 53032 77572 8872/ 333 86705;
0223360340999992000010112004+51500+081220FM-12+021599999V0200101N002010018019N0010001N1-01851-02041102011ADDAA112001091AY181061AY271061GA1061+001809069GF108991081091002501999999KA1120M-01811MA1999999099061MD1710111+9999MW1861REMSYN094AAXX  01121 36034 11394 80102 11185 21204 39906 40201 57011 60012 78687 889// 333 11181 86706;
0166360340999992000010118004+51500+081220FM-12+021599999V0202001N007010018019N0100001N1-00821-00881101711ADDAY181061AY231061GA1061+001809069GF108991081091002501999999MD1710011+9999MW1851REMSYN076AAXX  01181 36034 41397 82007 11082 21088 40171 57001 78583 889// 333 86706;
0166360340999992000010121004+51500+081220FM-12+021599999V0202001N006010015019N0100001N1-00801-00861101701ADDAY181031AY231031GA1061+001509069GF108991081091002501999999MD1310011+9999MW1851REMSYN076AAXX  01211 36034 41397 82006 11080 21086 40170 53001 78583 889// 333 86705;
0252360340999992000010200004+51500+081220FM-12+021599999V0201901N004010015019N0100001N1-01141-01271101751ADDAA112001091AJ100129199999999AY181061AY231061GA1061+001509069GF108991081091001501999999IA1249KA1120N-01841MA1999999098891MD1210021+9999MW1851REMSYN100AAXX  02001 36034 11297 81904 11114 21127 39889 40175 52002 60012 78583 889// 333 21184 48012 86705;
0166360340999992000010203004+51500+081220FM-12+021599999V0202301N004010015019N0040001N1-01381-01581101911ADDAY181031AY231031GA1061+001509069GF108991081091001501999999MD1210131+9999MW1851REMSYN076AAXX  02031 36034 41296 82304 11138 21158 40191 52013 78583 889// 333 86705;
0166360340999992000010206004+51500+081220FM-12+021599999V0202501N00601004201CN0040001N1-01701-02041102121ADDAY181061AY231061GA1041+004809099GF108991081091004501999999MD1210161+9999MW1851REMSYN076AAXX  02061 36034 41496 82506 11170 21204 40212 52016 78583 889// 333 84916;
0140360340999992000010209004+51500+081220FM-12+021599999V0202501N006019999999N0100001N1-01911-02321102371ADDAY181031AY231031GF108991021001999999031021MD1210231+9999MW1361REMSYN066AAXX  02091 36034 41997 82506 11191 21232 40237 52023 73683 82032;
0217360340999992000010212004+51500+081220FM-12+021599999V0202601N007019999999N0200001N1-02151-02551102691ADDAA112000391AY181061AY231061GA1091+999999999GF109991091999999999999999KA1999M-01151MA1999999099691MD1210281+9999MW1361REMSYN088AAXX  02121 36034 11998 92607 11215 21255 39969 40269 52028 69932 73683 8805/ 333 11115;
0122360340999992000010218004+51500+081220FM-12+021599999V0202101N003012200019N0200001N1-03181-03471103571ADDGA1001+999999999GF100991001001999999001001MD1210281+9999REMSYN054AAXX  02181 36034 42998 02103 11318 21347 40357 52028;
0122360340999992000010221004+51500+081220FM-12+021599999V0201801N003012200019N0200001N1-03481-03771103981ADDGA1001+999999999GF100991001001999999001001MD1210361+9999REMSYN054AAXX  02211 36034 42998 01803 11348 21377 40398 52036;
0208360340999992000010300004+51500+081220FM-12+021599999V0201801N004012200019N0200001N1-03411-03711104181ADDAA106000091GA1001+999999999GF100991001001999999001001IA1249KA1120N-03491MA1999999100981MD1210211+9999REMSYN076AAXX  03001 36034 32998 01804 11341 21371 30098 40418 52021 333 21349 48012;EQDQ01  00002PRCP06
0112360340999992000010303004+51500+081220FM-12+021599999V0202001N004019999999N0200001N1-03581-03861104351ADDGF108991001001999999001021MD1210131+9999REMSYN060AAXX  03031 36034 42998 82004 11358 21386 40435 52013 80002;
0122360340999992000010306004+51500+081220FM-12+021599999V0201901N006012200019N0200001N1-03341-03621104421ADDGA1001+999999999GF100991001001999999001001MD1210111+9999REMSYN054AAXX  03061 36034 42998 01906 11334 21362 40442 52011;
0112360340999992000010309004+51500+081220FM-12+021599999V0201801N006019999999N0200001N1-03141-03501104531ADDGF105991001001999999001021MD1210131+9999REMSYN060AAXX  03091 36034 42998 51806 11314 21350 40453 52013 80002;
0223360340999992000010312004+51500+081220FM-12+021599999V0201801N007010039019N0100001N1-03021-03391104571ADDAA112000791AY181061AY231061GA1051+003909099GF108991081091004501999999KA1120M-02711MA1999999101411MD1210061+9999MW1851REMSYN094AAXX  03121 36034 11497 81807 11302 21339 30141 40457 52006 69902 78583 889// 333 11271 85913;
0122360340999992000010318004+51500+081220FM-12+021599999V0201901N002012200019N0200001N1-03581-03861104841ADDGA1001+999999999GF100991001001999999001001MD1210081+9999REMSYN054AAXX  03181 36034 41998 01902 11358 21386 40484 52008;
0122360340999992000010321004+51500+081220FM-12+021599999V0202101N002012200019N0200001N1-03761-04051104931ADDGA1001+999999999GF100991001001999999001001MD1210061+9999REMSYN054AAXX  03211 36034 42998 02102 11376 21405 40493 52006;
0195360340999992000010400004+51500+081220FM-12+021599999V0202201N002012200019N0200001N1-04061-04381105131ADDAA112000791GA1001+999999999GF100991001001999999001001IA1249KA1120N-04191MA1999999101801MD1210161+9999REMSYN082AAXX  04001 36034 32998 02202 11406 21438 30180 40513 52016 69902 333 21419 48012;
0150360340999992000010403004+51500+081220FM-12+021599999V0202001N001012200019N0020001N1-04241-04551105321ADDAY101031AY201031GA1001+999999999GF100991001001999999001001MD1210191+9999MW1101REMSYN060AAXX  04031 36034 41995 02001 11424 21455 40532 52019 71000;
0195360340999992000010406004+51500+081220FM-12+021599999V0202201N002012200019N0200001N1-04061-04381105131ADDAA112000791GA1001+999999999GF100991001001999999001001IA1249KA1120N-04191MA1999999101801MD1210161+9999REMSYN082AAXX  04061 36034 32998 02202 11406 21438 30180 40513 52016 69902 333 21419 48012;
0122360340999992000010409004+51500+081220FM-12+021599999V0202001N003012200019N0200001N1-03131-03501105351ADDGA1001+999999999GF100991001001999999001001MD1210071+9999REMSYN054AAXX  04091 36034 42998 02003 11313 21350 40535 52007;
0224360340999992000010412004+51500+081220FM-12+021599999V0209999C000012200019N0100001N1-03521-03801105411ADDAA106000091AY101061AY201061GA1001+999999999GF100991001001999999001001KA1999M-03091MA1999999102151MD1210011+9999MW1101REMSYN076AAXX  04121 36034 31997 00000 11352 21380 30215 40541 52001 71000 333 11309;EQDQ01  00002PRCP06
0122360340999992000010418004+51500+081220FM-12+021599999V0203601N001012200019N0200001N1-03791-04151105141ADDGA1001+999999999GF100991001001999999001001MD1710161+9999REMSYN054AAXX  04181 36034 42998 03601 11379 21415 40514 57016;
0122360340999992000010421004+51500+081220FM-12+021599999V0200301N001012200019N0200001N1-03851-04201104971ADDGA1001+999999999GF100991001001999999001001MD1710201+9999REMSYN054AAXX  04211 36034 42998 00301 11385 21420 40497 57020;
0208360340999992000010500004+51500+081220FM-12+021599999V0200101N002012200019N0200001N1-04001-04331104761ADDAA106000091GA1001+999999999GF100991001001999999001001IA1249KA1120N-04051MA1999999101461MD1710221+9999REMSYN076AAXX  05001 36034 32998 00102 11400 21433 30146 40476 57022 333 21405 48012;EQDQ01  00002PRCP06
0150360340999992000010503004+51500+081220FM-12+021599999V0200101N002012200019N0100001N1-03741-04011104521ADDAY101031AY201031GA1001+999999999GF100991001001999999001001MD1710201+9999MW1101REMSYN060AAXX  05031 36034 41997 00102 11374 21401 40452 57020 71000;
0122360340999992000010506004+51500+081220FM-12+021599999V0200101N002012200019N0200001N1-03371-03651104191ADDGA1001+999999999GF100991001001999999001001MD1710271+9999REMSYN054AAXX  05061 36034 42998 00102 11337 21365 40419 57027;
0106360340999992000010509004+51500+081220FM-12+021599999V0200201N003019999999N0200001N1+99999+99999103891ADDGF108991001001999999001021MD1710251+9999REMSYN054AAXX  05091 36034 42998 80203 21334 40389 57025 80002;
0186360340999992000010512004+51500+081220FM-12+021599999V0200201N003019999999N0200001N1-03051-03341103671ADDAA106000091GF108991001001999999001021KA1999M-03011MA1999999100531MD1710211+9999REMSYN076AAXX  05121 36034 32998 80203 11305 21334 30053 40367 57021 80002 333 11301;EQDQ01  00002PRCP06
0112360340999992000010518004+51500+081220FM-12+021599999V0200201N002019999999N0200001N1-02721-03031102981ADDGF108991001001999999001021MD1710331+9999REMSYN060AAXX  05181 36034 42998 80202 11272 21303 40298 57033 80002;
0112360340999992000010521004+51500+081220FM-12+021599999V0200301N003019999999N0200001N1-02601-02911102601ADDGF108991031001999999031021MD1710361+9999REMSYN060AAXX  05211 36034 42998 80303 11260 21291 40260 57036 83032;
0138360340999992000010603004+51500+081220FM-12+021599999V0200301N001010090019N0200001N1-02251-02501101971ADDGA1081+009009059GF108991081051008001999999MD1710191+9999REMSYN070AAXX  06031 36034 42598 80301 11225 21250 40197 57019 885// 333 88630;
0138360340999992000010606004+51500+081220FM-12+021599999V0200601N003019999999N0200001N1-01801-02141101711ADDGA1041+011409059GF108991041051012501999999MD1710221+9999REMSYN070AAXX  06061 36034 42698 80603 11180 21214 40171 57022 845// 333 84638;
0138360340999992000010609004+51500+081220FM-12+021599999V0201801N004010120019N0200001N1-01241-01861101491ADDGA1061+012009059GF108991061051012501999999MD1710151+9999REMSYN070AAXX  06091 36034 42698 81804 11124 21186 40149 57015 865// 333 86640;
0186360340999992000010612004+51500+081220FM-12+021599999V0201701N004019999999N0200001N1-01211-01831101521ADDAA106000091GF107991071001999999031001KA1999M-01111MA1999999098651MD1310031+9999REMSYN076AAXX  06121 36034 32998 71704 11121 21183 39865 40152 53003 87030 333 11111;EQDQ01  00002PRCP06
0166360340999992000010621004+51500+081220FM-12+021599999V0202001N006010048019N0100001N1-01241-01441101561ADDAY181031AY231031GA1051+004809099GF108991081091004501999999MD1310101+9999MW1851REMSYN076AAXX  06211 36034 41497 82006 11124 21144 40156 53010 78583 889// 333 85916;
0213360340999992000010700004+51500+081220FM-12+021599999V0202301N006019999999N0200001N1-01741-02001101761ADDAA112000191AY181061AY231061GF108991001001999999001021IA1249KA1120N-01751MA1999999098831MD1210141+9999MW1361REMSYN094AAXX  07001 36034 11998 82306 11174 21200 39883 40176 52014 69922 73683 80002 333 21175 48013;
0140360340999992000010703004+51500+081220FM-12+021599999V0202001N006019999999N0100001N1-01991-02251102071ADDAY131031AY221031GF108991021001999999031021MD1210261+9999MW1361REMSYN066AAXX  07031 36034 41997 82006 11199 21225 40207 52026 73632 82032;
0140360340999992000010706004+51500+081220FM-12+021599999V0202001N007019999999N0200001N1-02051-02381102241ADDAY131061AY221061GF105991001001999999001021MD1210171+9999MW1361REMSYN066AAXX  07061 36034 41998 52007 11205 21238 40224 52017 73632 80002;
0140360340999992000010709004+51500+081220FM-12+021599999V0201901N006012200019N0200001N1-02031-02441102491ADDAY131031AY211031GF102991001001999999001021MD1210251+9999MW1361REMSYN066AAXX  07091 36034 41998 21906 11203 21244 40249 52025 73631 80002;
0214360340999992000010712004+51500+081220FM-12+021599999V0201901N004019999999N0200001N1-02131-02461102711ADDAA106000091AY131061AY211061GF106991001001999999001021KA1999M-01731MA1999999099711MD1210201+9999MW1021REMSYN082AAXX  07121 36034 31998 61904 11213 21246 39971 40271 52020 70231 80002 333 11173;EQDQ01  00002PRCP06
0122360340999992000010718004+51500+081220FM-12+021599999V0201701N003012200019N0200001N1-02131-02381102731ADDGA1001+999999999GF100991001001999999001001MD1810081+9999REMSYN054AAXX  07181 36034 42998 01703 11213 21238 40273 58008;
0122360340999992000010721004+51500+081220FM-12+021599999V0202401N001012200019N0200001N1-02441-02691102621ADDGA1001+999999999GF100991001001999999001001MD1710151+9999REMSYN054AAXX  07211 36034 42998 02401 11244 21269 40262 57015;
0208360340999992000010800004+51500+081220FM-12+021599999V0200301N003012200019N0200001N1-02591-02841102511ADDAA106000091GA1001+999999999GF100991001001999999001001IA1249KA1120N-02601MA1999999099461MD1710121+9999REMSYN076AAXX  08001 36034 32998 00303 11259 21284 39946 40251 57012 333 21260 48013;EQDQ01  00002PRCP06
0112360340999992000010803004+51500+081220FM-12+021599999V0200301N003019999999N0200001N1-02381-02631102161ADDGF108991051001999999051011MD1710311+9999REMSYN060AAXX  08031 36034 42998 80303 11238 21263 40216 57031 85051;
0112360340999992000010806004+51500+081220FM-12+021599999V0200301N003019999999N0200001N1-01931-02191101651ADDGF108991001001999999001071MD1810451+9999REMSYN060AAXX  08061 36034 42998 80303 11193 21219 40165 58045 80007;
0112360340999992000010809004+51500+081220FM-12+021599999V0200301N003019999999N0200001N1-01751-02091101301ADDGF108991081001999999021999MD1710311+9999REMSYN060AAXX  08091 36034 42998 80303 11175 21209 40130 57031 8802/;
0201360340999992000010812004+51500+081220FM-12+021599999V0200301N004019999999N0200001N1-01651-01911101081ADDAA112000791AY171061AY221061GF108991081001999999021999KA1999M-01651MA1999999098181MD1710211+9999MW1711REMSYN088AAXX  08121 36034 11998 80304 11165 21191 39818 40108 57021 69902 77172 8802/ 333 11165;
0166360340999992000010818004+51500+081220FM-12+021599999V0203301N005010015019N0100001N1-01651-01841101151ADDAY181061AY231061GA1061+001509069GF108991081091001501999999MD1310111+9999MW1851REMSYN076AAXX  08181 36034 41297 83305 11165 21184 40115 53011 78583 889// 333 86705;
0166360340999992000010821004+51500+081220FM-12+021599999V0202701N003010015019N0200001N1-01691-01881101921ADDAY181031AY231031GA1061+001509069GF108991081091001501999999MD1310741+9999MW1851REMSYN076AAXX  08211 36034 41298 82703 11169 21188 40192 53074 78583 889// 333 86705;
0287360340999992000010900004+51500+081220FM-12+021599999V0202301N005010015019N0100001N1-01851-02041102582ADDAA112007191AJ100259199999999AY181061AY231061GA1061+001509069GF108991081091001501999999IA1249KA1120N-01851MA1999999099611MD1210622+9999MW1851REMSYN100AAXX  09001 36034 11297 82305 11185 21204 39961 40258 52062 60072 78583 889// 333 21185 48025 86705;EQDQ01+102583APOSLPQ02+000622APC3  
0185360340999992000010903004+51500+081220FM-12+021599999V0202101N006010021019N0040001N1-01931-02191103101ADDAY181031AY231031GA1061+002109069GF108991081091002501999999MD1210502+9999MW1851REMSYN076AAXX  09031 36034 41396 82106 11193 21219 40310 52050 78583 889// 333 86707;EQDQ01+000502APC3  
0150360340999992000010909004+51500+081220FM-12+021599999V0201801N006012200019N0200001N1-01931-02261103491ADDAY181031AY231031GA1001+999999999GF100991001001999999001001MD1210171+9999MW1361REMSYN060AAXX  09091 36034 41998 01806 11193 21226 40349 52017 73683;
0211360340999992000010912004+51500+081220FM-12+021599999V0202001N003012200019N0200001N1-02571-02811103871ADDAA112000591AY181061AY231061GA1001+999999999GF100991001001999999001001KA1999M-01781MA1999999100771MD1210271+9999MW1361REMSYN082AAXX  09121 36034 11998 02003 11257 21281 30077 40387 52027 69962 73683 333 11178;
0150360340999992000010918004+51500+081220FM-12+021599999V0202101N002012200019N0200001N1-02651-02901103921ADDAY131061AY201061GA1001+999999999GF100991001001999999001001MD1210031+9999MW1021REMSYN060AAXX  09181 36034 41998 02102 11265 21290 40392 52003 70230;
0150360340999992000010921004+51500+081220FM-12+021599999V0201501N004012200019N0200001N1-01831-02091103751ADDAY131031AY201031GA1001+999999999GF100991001001999999001001MD1810071+9999MW1361REMSYN060AAXX  09211 36034 41998 01504 11183 21209 40375 58007 73630;
0226360340999992000011000004+51500+081220FM-12+021599999V0201701N006019999999N0200001N1-01751-02091103731ADDAA106000091AY131061AY211061GF108991081001999999051999IA1249KA1120N-03121MA1999999100751MD1410001+9999MW1361REMSYN088AAXX  10001 36034 31998 81706 11175 21209 30075 40373 54000 73631 8805/ 333 21312 48023;EQDQ01  00002PRCP06
0140360340999992000011003004+51500+081220FM-12+021599999V0201701N007019999999N0100001N1-01791-02121103771ADDAY131031AY221031GF108991021001999999031021MD1310021+9999MW1361REMSYN066AAXX  10031 36034 41997 81707 11179 21212 40377 53002 73632 82032;
0166360340999992000011006004+51500+081220FM-12+021599999V0201601N007010051019N0040001N1-01531-01871103611ADDAY181061AY231061GA1051+005109099GF108991081091004501999999MD1810121+9999MW1851REMSYN076AAXX  10061 36034 41496 81607 11153 21187 40361 58012 78583 889// 333 85917;
0140360340999992000011009004+51500+081220FM-12+021599999V0201501N007012200019N0200001N1-01321-01751103391ADDAY181031AY231031GF102991001001999999001011MD1710181+9999MW1361REMSYN066AAXX  10091 36034 41998 21507 11132 21175 40339 57018 73683 80001;
0201360340999992000011012004+51500+081220FM-12+021599999V0201601N008012200019N0200001N1-01461-01891103361ADDAA112000791AY181061AY231061GF102991021001999999031001KA1999M-01281MA1999999100411MD1710061+9999MW1361REMSYN088AAXX  10121 36034 11998 21608 11146 21189 30041 40336 57006 69902 73683 82030 333 11128;
0150360340999992000011018004+51500+081220FM-12+021599999V0201901N004012200019N0200001N1-02141-02331103211ADDAY131061AY201061GA1001+999999999GF100991001001999999001001MD1710101+9999MW1021REMSYN060AAXX  10181 36034 41998 01904 11214 21233 40321 57010 70230;
0131360340999992000011021004+51500+081220FM-12+021599999V0202401N003019999999N0200001N1-01731-01991999999ADDGF108991061001999999031021MD1710131+9999REMSYN060AAXX  10211 36034 42998 82403 11173 21199 40403 57013 86032;EQDQ01+104033APOSLP
0198360340999992000011100004+51500+081220FM-12+021599999V0201601N005019999999N0200001N1-01531-01871102901ADDAA106000091GF108991001001999999001021IA1249KA1120N-02161MA1999999099971MD1710091+9999REMSYN082AAXX  11001 36034 32998 81605 11153 21187 39997 40290 57009 80002 333 21216 48022;EQDQ01  00002PRCP06
0112360340999992000011103004+51500+081220FM-12+021599999V0201601N006019999999N0200001N1-01511-01851102871ADDGF108991021001999999031021MD1710031+9999REMSYN060AAXX  11031 36034 42998 81606 11151 21185 40287 57003 82032;
0112360340999992000011106004+51500+081220FM-12+021599999V0202001N004012200019N0200001N1-01631-01971102921ADDGF102991001001999999001021MD1310041+9999REMSYN060AAXX  11061 36034 42998 22004 11163 21197 40292 53004 80002;
0112360340999992000011109004+51500+081220FM-12+021599999V0201801N005019999999N0200001N1-01341-01771102801ADDGF105991001001999999001021MD1810091+9999REMSYN060AAXX  11091 36034 42998 51805 11134 21177 40280 58009 80002;
0186360340999992000011112004+51500+081220FM-12+021599999V0201601N006019999999N0200001N1-01251-01601102811ADDAA106000091GF106991061001999999031001KA1999M-01241MA1999999099911MD1310021+9999REMSYN076AAXX  11121 36034 32998 61606 11125 21160 39991 40281 53002 86030 333 11124;EQDQ01  00002PRCP06
0166360340999992000011118004+51500+081220FM-12+021599999V0201701N007010150019N0200001N1-01201-01551102761ADDAY131061AY221061GA1081+015009059GF108991081051017501999999MD1710031+9999MW1361REMSYN076AAXX  11181 36034 41798 81707 11120 21155 40276 57003 73632 885// 333 88650;
0166360340999992000011121004+51500+081220FM-12+021599999V0201601N007010150019N0200001N1-01341-01771102761ADDAY131031AY221031GA1081+015009059GF108991081051017501999999MD1710011+9999MW1361REMSYN076AAXX  11211 36034 41798 81607 11134 21177 40276 57001 73632 885// 333 88650;
0265360340999992000011200004+51500+081220FM-12+021599999V0201601N007010138019N0200001N1-01281-01631102761ADDAA106000091AJ100209199999999AY131061AY221061GA1081+013809059GF108991081051012501999999IA1249KA1120N-01361MA1999999099851MD1410001+9999MW1361REMSYN094AAXX  12001 36034 31698 81607 11128 21163 39985 40276 54000 73632 885// 333 21136 48020 88646;EQDQ01  00002PRCP06
0140360340999992000011203004+51500+081220FM-12+021599999V0201501N008019999999N0200001N1-01331-01761102621ADDAY131031AY221031GF108991081001999999051999MD1810141+9999MW1361REMSYN066AAXX  12031 36034 41998 81508 11133 21176 40262 58014 73632 8805/;
0140360340999992000011206004+51500+081220FM-12+021599999V0201501N008019999999N0200001N1-01171-01611102591ADDAY171061AY231061GF108991081001999999021999MD1710021+9999MW1711REMSYN066AAXX  12061 36034 41998 81508 11117 21161 40259 57002 77173 8802/;
0140360340999992000011209004+51500+081220FM-12+021599999V0201701N008019999999N0200001N1-01011-01451102311ADDAY171031AY231031GF108991081001999999021999MD1710241+9999MW1711REMSYN066AAXX  12091 36034 41998 81708 11101 21145 40231 57024 77173 8802/;
0242360340999992000011212004+51500+081220FM-12+021599999V0201701N008010015019N0010001N1-01021-01221102171ADDAA112000191AY171061AY231061GA1061+001509069GF108991999071001501021999KA1120M-00971MA1999999099311MD1710141+9999MW1751REMSYN094AAXX  12121 36034 11294 81708 11102 21122 39931 40217 57014 69922 77573 8872/ 333 11097 86705;EQDQ01+000082SCOTLC
0166360340999992000011218004+51500+081220FM-12+021599999V0201801N008010015019N0100001N1-01041-01241101881ADDAY181061AY271061GA1061+001509069GF108991081091001501999999MD1710121+9999MW1851REMSYN076AAXX  12181 36034 41297 81808 11104 21124 40188 57012 78587 889// 333 86705;
0166360340999992000011221004+51500+081220FM-12+021599999V0201801N007010024019N0100001N1-01101-01301101881ADDAY181031AY231031GA1061+002409069GF108991081091002501999999MD1710021+9999MW1851REMSYN076AAXX  12211 36034 41397 81807 11110 21130 40188 57002 78583 889// 333 86708;
0213360340999992000011300004+51500+081220FM-12+021599999V0201801N004019999999N0200001N1-01271-01401101981ADDAA112000591AY181061AY231061GF108991001001999999001011IA1249KA1120N-01281MA1999999099091MD1310081+9999MW1361REMSYN094AAXX  13001 36034 11998 81804 11127 21140 39909 40198 53008 69942 73683 80001 333 21128 48016;
0140360340999992000011303004+51500+081220FM-12+021599999V0201801N004019999999N0200001N1-01591-01721102201ADDAY131031AY221031GF108991001001999999001021MD1210181+9999MW1361REMSYN066AAXX  13031 36034 41998 81804 11159 21172 40220 52018 73632 80002;
0166360340999992000011306004+51500+081220FM-12+021599999V0201801N005010099019N0200001N1-01281-01481102391ADDAY181061AY231061GA1081+009909099GF108991081091012501999999MD1210231+9999MW1851REMSYN076AAXX  13061 36034 41698 81805 11128 21148 40239 52023 78583 889// 333 88933;
0166360340999992000011309004+51500+081220FM-12+021599999V0201801N006010120019N0200001N1-01041-01241102531ADDAY181031AY231031GA1031+012009099GF108991051091012501051999MD1210151+9999MW1361REMSYN076AAXX  13091 36034 41698 81806 11104 21124 40253 52015 73683 8595/ 333 83940;
0223360340999992000011312004+51500+081220FM-12+021599999V0201701N008010018019N0100001N1-01041-01171102671ADDAA112000791AY181061AY231061GA1051+001809069GF108991081091002501999999KA1120M-00911MA1999999099791MD1210141+9999MW1851REMSYN094AAXX  13121 36034 11397 81708 11104 21117 39979 40267 52014 69902 78583 889// 333 11091 85706;
0140360340999992000011318004+51500+081220FM-12+021599999V0201601N007010012019N0100001N1-00981-01101102831ADDAY181061AY231061GF108991081091001501999999MD1210051+9999MW1851REMSYN066AAXX  13181 36034 41297 81607 11098 21110 40283 52005 78583 889//;
0170360340999992000011321004+51500+081220FM-12+021599999V0201601N00701001201CN0100001N1-01041-01171102831ADDAY181031AY231031GA1041+001509069GF108991081091001501999999MD1410001+9999MW1851REMSYN080    AAXX  13211 36034 41297 81607 11104 21117 40283 54000 78583 889// 333 84705;
0256360340999992000011400004+51500+081220FM-12+021599999V0201601N003010018019N0200001N1-01131-01331102791ADDAA112000391AJ100169199999999AY181061AY231061GA1051+001809069GF108991081091002501999999IA1249KA1120N-01131MA1999999099901MD1810051+9999MW1851REMSYN104    AAXX  14001 36034 11398 81603 11113 21133 39990 40279 58005 69932 78583 889// 333 21113 48016 85706;
0170360340999992000011403004+51500+081220FM-12+021599999V0201601N009010018019N0040001N1-01141-01341102701ADDAY181031AY231031GA1051+001809069GF108991081091002501999999MD1710041+9999MW1851REMSYN080    AAXX  14031 36034 41396 81609 11114 21134 40270 57004 78583 889// 333 85706;
0170360340999992000011406004+51500+081220FM-12+021599999V0201701N008010015019N0005001N1-01081-01211102721ADDAY181061AY231061GA1051+001509069GF108991081091001501999999MD1710041+9999MW1861REMSYN080    AAXX  14061 36034 41293 81708 11108 21121 40272 57004 78683 889// 333 85705;
0170360340999992000011409004+51500+081220FM-12+021599999V0201501N010010018019N0040001N1-01001-01171102581ADDAY181031AY231031GA1061+001809069GF108991081091002501999999MD1710131+9999MW1851REMSYN080    AAXX  14091 36034 41396 81510 11100 21117 40258 57013 78583 889// 333 86706;
0246360340999992000011412004+51500+081220FM-12+021599999V0201701N009010018019N0100001N1-00961-01121102511ADDAA112000191AY181061AY271061GA1071+001809069GF108991081999001501021999KA1120M-00931MA1999999099651MD1710051+9999MW1711REMSYN098    AAXX  14121 36034 11297 81709 11096 21112 39965 40251 57005 69922 77187 8802/ 333 11093 87706;EQDQ01+000002SCOLCG
0189360340999992000011418004+51500+081220FM-12+021599999V0201801N010010024019N0100001N1-00971-01181102211ADDAY181061AY271061GA1051+002409069GF108991081999002501021999MD1710231+9999MW1381REMSYN080    AAXX  14181 36034 41397 81810 11097 21118 40221 57023 73887 8802/ 333 85708;EQDQ01+000002SCOLCG
0170360340999992000011421004+51500+081220FM-12+021599999V0201601N013010009019N0001001N1-00891-01091102071ADDAY171031AY231031GA1091+000909999GF109991091999999999999999MD1710131+9999MW1751REMSYN080    AAXX  14211 36034 41/91 91613 11089 21109 40207 57013 77573 333 89/03 91118;
0298360340999992000011500004+51500+081220FM-12+021599999V0201601N013010015019N0002001N1-00901-00991102031ADDAA112000191AJ100109199999999AY171061AY231061GA1051+001509079GF108991081999001501021999IA1249KA1120N-01011MA1999999099181MD1710041+9999MW1751OA140101801REMSYN116    AAXX  15001 36034 11292 81613 11090 21099 39918 40203 57004 69922 77573 8802/ 333 21101 48010 85705 91018 91121;EQDQ01+000002SCOLCG
0195360340999992000011503004+51500+081220FM-12+021599999V0201701N01201001201CN0002001N1-00931-01001102161ADDAY171031AY231031GA1041+001509079GF108991081999001501021999MD1310131+9999MW1751REMSYN086    AAXX  15031 36034 41292 81712 11093 21100 40216 53013 77573 8802/ 333 84705 91120;EQDQ01+000002SCOLCG
0212360340999992000011506004+51500+081220FM-12+021599999V0201701N013010018019N0005001N1-00931-01001102191ADDAY171061AY231061GA1051+001809079GF108991081999002501021999MD1210031+9999MW1751OA140101901REMSYN092    AAXX  15061 36034 41393 81713 11093 21100 40219 52003 77573 8802/ 333 85706 91019 91119;EQDQ01+000002SCOLCG
0176360340999992000011509004+51500+081220FM-12+021599999V0201701N012019999999N0005001N1-00971-01091102101ADDAY181031AY231031GA1041+002109079GF108991081091999999999999MD1210091+9999MW1861REMSYN086    AAXX  15091 36034 41993 81712 11097 21109 40210 52009 78683 889// 333 84707 91119;
0250360340999992000011512004+51500+081220FM-12+021599999V0201701N013010021019N0001001N1-00991-01111102001ADDAA112000591AY181061AY231061GA1041+002109079GF108991081091002501999999KA1120M-00901MA1999999099141MD1810111+9999MW1861OA140101801REMSYN110    AAXX  15121 36034 11391 81713 11099 21111 39914 40200 58011 69952 78683 889// 333 11090 84707 91018 91119;
0176360340999992000011518004+51500+081220FM-12+021599999V0201601N012019999999N0002001N1-00801-00901101851ADDAY181061AY231061GA1041+002409079GF108991081091999999999999MD1410001+9999MW1861REMSYN086    AAXX  15181 36034 41992 81612 11080 21090 40185 54000 78683 889// 333 84708 91119;
0164360340999992000011521004+51500+081220FM-12+021599999V0201601N012012200019N0100001N1-00991-01111102091ADDAY181031AY231031GA1001+999999999GF100991001001999999001001MD1310211+9999MW1381REMSYN074    AAXX  15211 36034 41997 01612 11099 21111 40209 53021 73883 333 91118;
0244360340999992000011600004+51500+081220FM-12+021599999V0202201N007012200019N0100001N1-01611-01801102611ADDAA112000791AJ100109199999999AY181061AY231061GA1001+999999999GF100991001001999999001001IA1249KA1120N-01611MA1999999099671MD1210441+9999MW1381REMSYN092    AAXX  16001 36034 11997 02207 11161 21180 39967 40261 52044 69902 73883 333 21161 48010;
0173360340999992000011603004+51500+081220FM-12+021599999V0202201N003012200019N0200001N1-02221-02471103272ADDAY131031AY201031GA1001+999999999GF100991001001999999001001MD1210581+9999MW1021REMSYN064    AAXX  16031 36034 41998 02203 11222 21247 40327 52058 70230;EQDQ01+103273APOSLP
0154360340999992000011606004+51500+081220FM-12+021599999V0202101N004012200019N0200001N1-02141-02471103641ADDAY131061AY201061GA1001+999999999GF100991001001999999001001MD1210361+9999MW1021REMSYN064    AAXX  16061 36034 41998 02104 11214 21247 40364 52036 70230;
0126360340999992000011609004+51500+081220FM-12+021599999V0201901N006012200019N0200001N1-02161-02561103861ADDGA1001+999999999GF100991001001999999001001MD1210201+9999REMSYN058    AAXX  16091 36034 42998 01906 11216 21256 40386 52020;
0200360340999992000011612004+51500+081220FM-12+021599999V0201801N005012200019N0200001N1-02341-02661104091ADDAA199000091GA1001+999999999GF100991001001999999001001KA1999M-01601MA1999999101031MD1210221+9999REMSYN074    AAXX  16121 36034 32998 01805 11234 21266 30103 40409 52022 333 11160;EQDQ01  00002PRCP99
0126360340999992000011618004+51500+081220FM-12+021599999V0203301N002012200019N0200001N1-02901-03131104171ADDGA1001+999999999GF100991001001999999001001MD1810081+9999REMSYN058    AAXX  16181 36034 42998 03302 11290 21313 40417 58008;
0126360340999992000011621004+51500+081220FM-12+021599999V0200301N002012200019N0200001N1-02921-03151103991ADDGA1001+999999999GF100991001001999999001001MD1710161+9999REMSYN058    AAXX  16211 36034 42998 00302 11292 21315 40399 57016;
0229360340999992000011700004+51500+081220FM-12+021599999V0200101N003012200019N0200001N1-02821-03061103891ADDAA199000091AJ100109199999999GA1001+999999999GF100991001001999999001001IA1249KA1120N-03011MA1999999100771MD1710091+9999REMSYN080    AAXX  17001 36034 32998 00103 11282 21306 30077 40389 57009 333 21301 48010;EQDQ01  00002PRCP99
0116360340999992000011703004+51500+081220FM-12+021599999V0200301N002019999999N0200001N1-02691-02931103731ADDGF108991081001999999031001MD1710151+9999REMSYN064    AAXX  17031 36034 42998 80302 11269 21293 40373 57015 88030;
0116360340999992000011706004+51500+081220FM-12+021599999V0201701N005012200019N0200001N1-01321-01671103511ADDGF102991021001999999031001MD1710051+9999REMSYN064    AAXX  17061 36034 42998 21705 11132 21167 40351 57005 82030;
0116360340999992000011709004+51500+081220FM-12+021599999V0201701N002019999999N0200001N1-01221-01651103341ADDGF105991001001999999001011MD1710141+9999REMSYN064    AAXX  17091 36034 42998 51702 11122 21165 40334 57014 80001;
0190360340999992000011712004+51500+081220FM-12+021599999V0201701N004012200019N0200001N1-01261-01611103291ADDAA199000091GF102991001001999999001011KA1999M-01111MA1999999100381MD1710051+9999REMSYN080    AAXX  17121 36034 32998 21704 11126 21161 30038 40329 57005 80001 333 11111;EQDQ01  00002PRCP99
0126360340999992000011718004+51500+081220FM-12+021599999V0201801N003012200019N0200001N1-01911-02101103141ADDGA1001+999999999GF100991001001999999001001MD1710141+9999REMSYN058    AAXX  17181 36034 42998 01803 11191 21210 40314 57014;
0116360340999992000011721004+51500+081220FM-12+021599999V0202101N002019999999N0200001N1-02101-02281102951ADDGF108991001001999999001011MD1710201+9999REMSYN064    AAXX  17211 36034 42998 82102 11210 21228 40295 57020 80001;
0181360340999992000011800004+51500+081220FM-12+021599999V0201801N002019999999N0200001N1-01761-02021102741ADDAA199000091GF108991999999999999999999KA1120N-02101MA1999999099771REMSYN085    AAXX  18001 36034 32998 81802 11176 21202 39977 40274 5701 80001 333 21210 48010;EQDQ01  00002PRCP99
0116360340999992000011803004+51500+081220FM-12+021599999V0201601N003019999999N0200001N1-01361-01791102491ADDGF108991001001999999001011MD1710191+9999REMSYN064    AAXX  18031 36034 42998 81603 11136 21179 40249 57019 80001;
0116360340999992000011806004+51500+081220FM-12+021599999V0201601N002019999999N0200001N1-00941-01631102311ADDGF108991001001999999001011MD1710121+9999REMSYN064    AAXX  18061 36034 42998 81602 11094 21163 40231 57012 80001;
0116360340999992000011809004+51500+081220FM-12+021599999V0201701N003019999999N0200001N1-00851-01551102111ADDGF108991001001999999001071MD1710191+9999REMSYN064    AAXX  18091 36034 42998 81703 11085 21155 40211 57019 80007;
0190360340999992000011812004+51500+081220FM-12+021599999V0201701N003019999999N0200001N1-00801-01421102101ADDAA199000091GF108991001001999999001071KA1999M-00801MA1999999099261MD1710011+9999REMSYN080    AAXX  18121 36034 32998 81703 11080 21142 39926 40210 57001 80007 333 11080;EQDQ01  00002PRCP99
0116360340999992000011818004+51500+081220FM-12+021599999V0201801N004019999999N0200001N1-00711-01091102121ADDGF108991081001999999011999MD1310061+9999REMSYN064    AAXX  18181 36034 42998 81804 11071 21109 40212 53006 8801/;
0189360340999992000011821004+51500+081220FM-12+021599999V0201901N003010021019N0200001N1-00721-00931102131ADDAY171031AY221031GA1051+002109069GF108991999071002501021999MD1210011+9999MW1711REMSYN080    AAXX  18211 36034 41398 81903 11072 21093 40213 52001 77172 8872/ 333 85707;EQDQ01+000082SCOTLC
0170360340999992000011903004+51500+081220FM-12+021599999V0202101N003010051019N0100001N1-00941-01061102671ADDAY181031AY221031GA1051+005109099GF108991081091004501999999MD1210221+9999MW1851REMSYN080    AAXX  19031 36034 41497 82103 11094 21106 40267 52022 78582 889// 333 85917;
0144360340999992000011906004+51500+081220FM-12+021599999V0202001N004019999999N0200001N1-01091-01371102971ADDAY181061AY221061GF108991041001999999031021MD1210261+9999MW1021REMSYN070    AAXX  19061 36034 41998 82004 11109 21137 40297 52026 70282 84032;
0101360340999992000011909004+51500+081220FM-12+021599999V0201901N003012200019N0200001N1-01111+99999999999ADDGF102991999999999999999999REMSYN063    AAXX  19091 36034 42998 21903 11111 1147 40308 52011 80002;
0187360340999992000011912004+51500+081220FM-12+021599999V0202001N002012200019N0200001N1-01801-01991103361ADDAA112000891GA1001+999999999GF100991001001999999001001KA1999M-00851MA1999999100381MD1210201+9999REMSYN080    AAXX  19121 36034 12998 02002 11180 21199 30038 40336 52020 69982 333 11085;
0150360340999992000011918004+51500+081220FM-12+021599999V0202101N001012200019N0001001N1-02141-02261103521ADDAY141061AY201061GA1001+999999999GF100991001001999999001001MD1410001+9999MW1481REMSYN060AAXX  19181 36034 41991 02101 11214 21226 40352 54000 74840;
0160360340999992000011921004+51500+081220FM-12+021599999V0209999C000010006019N0001001N1-02261-02321103531ADDAY141031AY211031GA1091+000609999GF109991091999999999999999MD1810011+9999MW1491REMSYN070AAXX  19211 36034 41/91 90000 11226 21232 40353 58001 74941 333 89/02;
0150360340999992000012003004+51500+081220FM-12+021599999V0200501N002012200019N0040001N1-02141-02331103521ADDAY141031AY211031GA1001+999999999GF100991001001999999001001MD1310041+9999MW1101REMSYN060AAXX  20031 36034 41996 00502 11214 21233 40352 53004 71041;
0150360340999992000012006004+51500+081220FM-12+021599999V0200301N002012200019N0040001N1-02031-02221103441ADDAY141061AY211061GA1001+999999999GF100991001001999999001001MD1810071+9999MW1101REMSYN060AAXX  20061 36034 41996 00302 11203 21222 40344 58007 71041;
0150360340999992000012009004+51500+081220FM-12+021599999V0200201N001012200019N0100001N1-01831-02021103251ADDAY101031AY201031GA1001+999999999GF100991001001999999001001MD1710161+9999MW1101REMSYN060AAXX  20091 36034 41997 00201 11183 21202 40325 57016 71000;
0196360340999992000012012004+51500+081220FM-12+021599999V0203601N003012200019N0200001N1-02101-02281103211ADDAA199000091GA1001+999999999GF100991001001999999001001KA1999M-01811MA1999999100191MD1710081+9999REMSYN070AAXX  20121 36034 32998 03603 11210 21228 30019 40321 57008 333 11181;EQDQ01  00002PRCP99
0150360340999992000012018004+51500+081220FM-12+021599999V0200101N002012200019N0100001N1-02101-02281103091ADDAY101061AY201061GA1001+999999999GF100991001001999999001001MD1810151+9999MW1101REMSYN060AAXX  20181 36034 41997 00102 11210 21228 40309 58015 71000;
0150360340999992000012021004+51500+081220FM-12+021599999V0200201N002012200019N0001001N1-02141-02261103021ADDAY141031AY201031GA1001+999999999GF100991001001999999001001MD1710051+9999MW1481REMSYN060AAXX  20211 36034 41991 00202 11214 21226 40302 57005 74840;
0253360340999992000012100004+51500+081220FM-12+021599999V0200101N002012200019N0020001N1-02181-02361103091ADDAA199000091AJ100139199999999AY141061AY201061GA1001+999999999GF100991001001999999001001IA1249KA1120N-02281MA1999999100061MD1310041+9999MW1101REMSYN082AAXX  21001 36034 31995 00102 11218 21236 30006 40309 53004 71040 333 21228 48013;EQDQ01  00002PRCP99
0150360340999992000012103004+51500+081220FM-12+021599999V0200301N002012200019N0020001N1-02321-02501103101ADDAY101031AY201031GA1001+999999999GF100991001001999999001001MD1410001+9999MW1101REMSYN060AAXX  21031 36034 41995 00302 11232 21250 40310 54000 71000;
0140360340999992000012106004+51500+081220FM-12+021599999V0200301N002019999999N0040001N1-01931-02121103101ADDAY111061AY211061GF108991001001999999001021MD1310051+9999MW1101REMSYN066AAXX  21061 36034 41996 80302 11193 21212 40310 53005 71011 80002;
0112360340999992000012109004+51500+081220FM-12+021599999V0200101N002019999999N0200001N1-01771-01961103051ADDGF108991001001999999001011MD1810041+9999REMSYN060AAXX  21091 36034 42998 80102 11177 21196 40305 58004 80001;
0202360340999992000012112004+51500+081220FM-12+021599999V0200101N002019999999N0200001N1-02051-02241103111ADDAA199000091GF108991001001999999001021KA1999M-01771MA1999999100101MD1310031+9999REMSYN076AAXX  21121 36034 32298 80102 11205 21224 30010 40311 53003 80002 333 11177;EQDQ01+001502SCOLCBQ02  00002PRCP99
0112360340999992000012118004+51500+081220FM-12+021599999V0200601N004019999999N0200001N1-01991-02181103191ADDGF108991031001999999031011MD1810031+9999REMSYN060AAXX  21181 36034 42998 80604 11199 21218 40319 58003 83031;
0122360340999992000012121004+51500+081220FM-12+021599999V0200101N003012200019N0200001N1-02051-02241103181ADDGA1001+999999999GF100991001001999999001001MD1710011+9999REMSYN054AAXX  21211 36034 42998 00103 11205 21224 40318 57001;
0215360340999992000012200004+51500+081220FM-12+021599999V0203601N002012200019N0200001N1-02221-02401103171ADDAA199000091AJ100139199999999GF102991001001999999001021IA1249KA1120N-02301MA1999999100141MD1710031+9999REMSYN082AAXX  22001 36034 32998 23602 11222 21240 30014 40317 57003 80002 333 21230 48013;EQDQ01  00002PRCP99
0122360340999992000012203004+51500+081220FM-12+021599999V0200101N003012200019N0200001N1-02151-02331103201ADDGA1001+999999999GF100991001001999999001001MD1310041+9999REMSYN054AAXX  22031 36034 42998 00103 11215 21233 40320 53004;
0122360340999992000012206004+51500+081220FM-12+021599999V0200201N002012200019N0200001N1-01711-01901103121ADDGA1001+999999999GF100991001001999999001001MD1810031+9999REMSYN054AAXX  22061 36034 42998 00202 11171 21190 40312 58003;
0112360340999992000012209004+51500+081220FM-12+021599999V0200101N002012200019N0200001N1-01561-01691103061ADDGF102991001001999999001021MD1710041+9999REMSYN060AAXX  22091 36034 42998 20102 11156 21169 40306 57004 80002;
0186360340999992000012212004+51500+081220FM-12+021599999V0203601N002012200019N0200001N1-01941-02131103091ADDAA199000091GF102991001001999999001021KA1999M-01381MA1999999100101MD1710011+9999REMSYN076AAXX  22121 36034 32998 23602 11194 21213 30010 40309 57001 80002 333 11138;EQDQ01  00002PRCP99
0122360340999992000012218004+51500+081220FM-12+021599999V0200201N002012200019N0200001N1-02271-02451103021ADDGA1001+999999999GF100991001001999999001001MD1710061+9999REMSYN054AAXX  22181 36034 42998 00202 11227 21245 40302 57006;
0122360340999992000012221004+51500+081220FM-12+021599999V0203601N002012200019N0200001N1-02321-02501103041ADDGA1001+999999999GF100991001001999999001001MD1310021+9999REMSYN054AAXX  22211 36034 42998 03602 11232 21250 40304 53002;
0225360340999992000012300004+51500+081220FM-12+021599999V0200101N002012200019N0200001N1-02511-02751103001ADDAA199000091AJ100139199999999GA1001+999999999GF100991001001999999001001IA1249KA1120N-02531MA1999999099951MD1810061+9999REMSYN076AAXX  23001 36034 32998 00102 11251 21275 39995 40300 58006 333 21253 48013;EQDQ01  00002PRCP99
0150360340999992000012303004+51500+081220FM-12+021599999V0200201N002012200019N0100001N1-02501-02741103001ADDAY101031AY201031GA1001+999999999GF100991001001999999001001MD1410001+9999MW1101REMSYN060AAXX  23031 36034 41997 00202 11250 21274 40300 54000 71000;
0150360340999992000012306004+51500+081220FM-12+021599999V0200101N001012200019N0100001N1-02151-02401102931ADDAY101061AY201061GA1001+999999999GF100991001001999999001001MD1810021+9999MW1101REMSYN060AAXX  23061 36034 41997 00101 11215 21240 40293 58002 71000;
0122360340999992000012309004+51500+081220FM-12+021599999V0200301N002012200019N0200001N1-01911-02101102811ADDGA1001+999999999GF100991001001999999001001MD1710101+9999REMSYN054AAXX  23091 36034 42998 00302 11191 21210 40281 57010;
0196360340999992000012312004+51500+081220FM-12+021599999V0200101N003012200019N0200001N1-02321-02571102921ADDAA199000091GA1001+999999999GF100991001001999999001001KA1999M-01861MA1999999099891MD1310061+9999REMSYN070AAXX  23121 36034 32998 00103 11232 21257 39989 40292 53006 333 11186;EQDQ01  00002PRCP99
0122360340999992000012318004+51500+081220FM-12+021599999V0200201N002012200019N0200001N1-02571-02811102751ADDGA1001+999999999GF100991001001999999001001MD1710131+9999REMSYN054AAXX  23181 36034 42998 00202 11257 21281 40275 57013;
0122360340999992000012321004+51500+081220FM-12+021599999V0200201N002012200019N0200001N1-02621-02871102711ADDGA1001+999999999GF100991001001999999001001MD1710041+9999REMSYN054AAXX  23211 36034 42998 00202 11262 21287 40271 57004;
0243360340999992000012400004+51500+081220FM-12+021599999V0201501N008019999999N0200001N1-01081-01361102501ADDAA199000091AJ100129199999999AY131061AY211061GF108991021001999999031021IA1249KA1120N-02641MA1999999099611MD1710041+9999MW1361REMSYN088AAXX  24001 36034 31998 81508 11108 21136 39961 40250 57004 73631 82032 333 21264 48012;EQDQ01  00002PRCP99
0140360340999992000012403004+51500+081220FM-12+021599999V0201501N008019999999N0100001N1-00721-01301102591ADDAY131031AY221031GF108991041001999999031021MD1310141+9999MW1361REMSYN066AAXX  24031 36034 41997 81508 11072 21130 40259 53014 73632 84032;
0166360340999992000012406004+51500+081220FM-12+021599999V0201701N00801012001CN0040001N1-00661-00861102741ADDAY181061AY231061GA1031+009909099GF108991051091012501031999MD1210161+9999MW1851REMSYN076AAXX  24061 36034 41696 81708 11066 21086 40274 52016 78583 8593/ 333 83933;
0166360340999992000012409004+51500+081220FM-12+021599999V0201601N007010300019N0040001N1-00551-00621102971ADDAY181031AY231031GA1031+012009099GF108991031091012501031021MD1210221+9999MW1851REMSYN076AAXX  24091 36034 41696 81607 11055 21062 40297 52022 78583 83932 333 83940;
0201360340999992000012412004+51500+081220FM-12+021599999V0201601N006019999999N0200001N1-00751-00881103131ADDAA112000391AY181061AY231061GF105991051001999999031001KA1999M-00491MA1999999100271MD1210141+9999MW1361REMSYN088AAXX  24121 36034 11998 51606 11075 21088 30027 40313 52014 69932 73683 85030 333 11049;
0150360340999992000012418004+51500+081220FM-12+021599999V0201501N007012200019N0200001N1-00851-01271103331ADDAY131061AY211061GA1001+999999999GF100991001001999999001001MD1210041+9999MW1361REMSYN060AAXX  24181 36034 41998 01507 11085 21127 40333 52004 73631;
0150360340999992000012421004+51500+081220FM-12+021599999V0201601N007012200019N0200001N1-00921-01421103391ADDAY131031AY201031GA1001+999999999GF100991001001999999001001MD1210051+9999MW1361REMSYN060AAXX  24211 36034 41998 01607 11092 21142 40339 52005 73630;
0253360340999992000012500004+51500+081220FM-12+021599999V0201601N007012200019N0200001N1-00821-01341103461ADDAA199000091AJ100129199999999AY131061AY201061GA1001+999999999GF100991001001999999001001IA1249KA1120N-00931MA1999999100581MD1210071+9999MW1361REMSYN082AAXX  25001 36034 31998 01607 11082 21134 30058 40346 52007 73630 333 21093 48012;EQDQ01  00002PRCP99
0150360340999992000012503004+51500+081220FM-12+021599999V0201501N005012200019N0200001N1-00801-01261103471ADDAY131031AY201031GA1001+999999999GF100991001001999999001001MD1210011+9999MW1361REMSYN060AAXX  25031 36034 41998 01505 11080 21126 40347 52001 73630;
0140360340999992000012506004+51500+081220FM-12+021599999V0201801N006019999999N0200001N1-00641-01191103491ADDAY131061AY211061GF108991001001999999001011MD1210041+9999MW1361REMSYN066AAXX  25061 36034 41998 81806 11064 21119 40349 52004 73631 80001;
0140360340999992000012509004+51500+081220FM-12+021599999V0202001N006019999999N0200001N1-00701-01131103651ADDAY131031AY221031GF108991001001999999001011MD1210151+9999MW1361REMSYN066AAXX  25091 36034 41998 82006 11070 21113 40365 52015 73632 80001;
0214360340999992000012512004+51500+081220FM-12+021599999V0202201N004019999999N0200001N1-00821-01141103831ADDAA199000091AY131061AY221061GF108991001001999999001021KA1999M-00641MA1999999100951MD1210171+9999MW1021REMSYN082AAXX  25121 36034 31998 82204 11082 21114 30095 40383 52017 70232 80002 333 11064;EQDQ01  00002PRCP99
0112360340999992000012518004+51500+081220FM-12+021599999V0202101N004019999999N0200001N1-01301-01731104321ADDGF106991001001999999001011MD1210141+9999REMSYN060AAXX  25181 36034 42998 62104 11130 21173 40432 52014 80001;
0122360340999992000012521004+51500+081220FM-12+021599999V0201901N004012200019N0200001N1-01751-02011104501ADDGA1001+999999999GF100991001001999999001001MD1210131+9999REMSYN054AAXX  25211 36034 42998 01904 11175 21201 40450 52013;
0225360340999992000012600004+51500+081220FM-12+021599999V0201801N005012200019N0200001N1-01971-02161104671ADDAA199000091AJ100129199999999GA1001+999999999GF100991001001999999001001IA1249KA1120N-02001MA1999999101621MD1210121+9999REMSYN076AAXX  26001 36034 32998 01805 11197 21216 30162 40467 52012 333 21200 48012;EQDQ01  00002PRCP99
0122360340999992000012603004+51500+081220FM-12+021599999V0201901N003012200019N0200001N1-02281-02461104881ADDGA1001+999999999GF100991001001999999001001MD1210171+9999REMSYN054AAXX  26031 36034 42998 01903 11228 21246 40488 52017;
0122360340999992000012606004+51500+081220FM-12+021599999V0201901N004012200019N0200001N1-01821-02081104951ADDGA1001+999999999GF100991001001999999001001MD1210131+9999REMSYN054AAXX  26061 36034 42998 01904 11182 21208 40495 52013;
0122360340999992000012609004+51500+081220FM-12+021599999V0202001N004012200019N0200001N1-01481-01911104891ADDGA1001+999999999GF100991001001999999001001MD1810021+9999REMSYN054AAXX  26091 36034 42998 02004 11148 21191 40489 58002;
0196360340999992000012612004+51500+081220FM-12+021599999V0202001N002012200019N0200001N1-01881-02141104991ADDAA199000091GA1001+999999999GF100991001001999999001001KA1999M-01441MA1999999101951MD1310051+9999REMSYN070AAXX  26121 36034 32998 02002 11188 21214 30195 40499 53005 333 11144;EQDQ01  00002PRCP99
0122360340999992000012618004+51500+081220FM-12+021599999V0200101N002012200019N0200001N1-02441-02691104941ADDGA1001+999999999GF100991001001999999001001MD1810091+9999REMSYN054AAXX  26181 36034 42998 00102 11244 21269 40494 58009;
0122360340999992000012621004+51500+081220FM-12+021599999V0200201N001012200019N0200001N1-02471-02711104851ADDGA1001+999999999GF100991001001999999001001MD1710101+9999REMSYN054AAXX  26211 36034 42998 00201 11247 21271 40485 57010;
0225360340999992000012700004+51500+081220FM-12+021599999V0200101N003012200019N0200001N1-02301-02551104681ADDAA199000091AJ100129199999999GA1001+999999999GF100991001001999999001001IA1249KA1120N-02501MA1999999101591MD1710151+9999REMSYN076AAXX  27001 36034 32998 00103 11230 21255 30159 40468 57015 333 21250 48012;EQDQ01  00002PRCP99
0122360340999992000012703004+51500+081220FM-12+021599999V0200101N002012200019N0200001N1-02261-02511104571ADDGA1001+999999999GF100991001001999999001001MD1710091+9999REMSYN054AAXX  27031 36034 42998 00102 11226 21251 40457 57009;
0122360340999992000012706004+51500+081220FM-12+021599999V0200301N003012200019N0200001N1-01851-02111104421ADDGA1001+999999999GF100991001001999999001001MD1710091+9999REMSYN054AAXX  27061 36034 42998 00303 11185 21211 40442 57009;
0122360340999992000012709004+51500+081220FM-12+021599999V0200101N004012200019N0200001N1-01511-01851104161ADDGA1001+999999999GF100991001001999999001001MD1710231+9999REMSYN054AAXX  27091 36034 42998 00104 11151 21185 40416 57023;
0196360340999992000012712004+51500+081220FM-12+021599999V0200101N003012200019N0200001N1-01631-01891104061ADDAA199000091GA1001+999999999GF100991001001999999001001KA1999M-01471MA1999999101071MD1710111+9999REMSYN070AAXX  27121 36034 32998 00103 11163 21189 30107 40406 57011 333 11147;EQDQ01  00002PRCP99
0122360340999992000012718004+51500+081220FM-12+021599999V0200101N002012200019N0200001N1-01941-02201103911ADDGA1001+999999999GF100991001001999999001001MD1710071+9999REMSYN054AAXX  27181 36034 42998 00102 11194 21220 40391 57007;
0122360340999992000012721004+51500+081220FM-12+021599999V0200201N002012200019N0200001N1-02021-02281103811ADDGA1001+999999999GF100991001001999999001001MD1710111+9999REMSYN054AAXX  27211 36034 42998 00202 11202 21228 40381 57011;
0225360340999992000012800004+51500+081220FM-12+021599999V0200101N001012200019N0200001N1-02321-02571103791ADDAA199000091AJ100129199999999GA1001+999999999GF100991001001999999001001IA1249KA1120N-02351MA1999999100731MD1710061+9999REMSYN076AAXX  28001 36034 32998 00101 11232 21257 30073 40379 57006 333 21235 48012;EQDQ01  00002PRCP99
0122360340999992000012803004+51500+081220FM-12+021599999V0203601N002012200019N0200001N1-02401-02581103881ADDGA1001+999999999GF100991001001999999001001MD1310081+9999REMSYN054AAXX  28031 36034 42998 03602 11240 21258 40388 53008;
0112360340999992000012806004+51500+081220FM-12+021599999V0203601N002019999999N0200001N1-01731-01991104191ADDGF108991001001999999001011MD1210381+9999REMSYN060AAXX  28061 36034 42998 83602 11173 21199 40419 52038 80001;
0116360340999992000012809004+51500+081220FM-12+021599999V0202101N001012200019N0200001N1-01121-01651999999ADDGA1001+999999999GF100991001001999999001001MD1710091+9999REMSYN048AAXX  28091 36034 42998 02101 11112 21165 57009;
0186360340999992000012812004+51500+081220FM-12+021599999V0200501N003012200019N0200001N1-01551-01891103651ADDAA199000091GF102991001001999999001011KA1999M-00951MA1999999100691MD1710011+9999REMSYN076AAXX  28121 36034 32998 20503 11155 21189 30069 40365 57001 80001 333 11095;EQDQ01  00002PRCP99
0122360340999992000012818004+51500+081220FM-12+021599999V0200601N002012200019N0200001N1-02161-02411103631ADDGA1001+999999999GF100991001001999999001001MD1710041+9999REMSYN054AAXX  28181 36034 42998 00602 11216 21241 40363 57004;
0122360340999992000012821004+51500+081220FM-12+021599999V0209999C000012200019N0200001N1-02271-02521103651ADDGA1001+999999999GF100991001001999999001001MD1310011+9999REMSYN054AAXX  28211 36034 42998 00000 11227 21252 40365 53001;
0225360340999992000012900004+51500+081220FM-12+021599999V0202401N001012200019N0200001N1-01991-02251103561ADDAA199000091AJ100129199999999GA1001+999999999GF100991001001999999001001IA1249KA1120N-02381MA1999999100541MD1810051+9999REMSYN076AAXX  29001 36034 32998 02401 11199 21225 30054 40356 58005 333 21238 48012;EQDQ01  00002PRCP99
0122360340999992000012903004+51500+081220FM-12+021599999V0201901N002012200019N0200001N1-01481-01821103571ADDGA1001+999999999GF100991001001999999001001MD1310071+9999REMSYN054AAXX  29031 36034 42998 01902 11148 21182 40357 53007;
0112360340999992000012906004+51500+081220FM-12+021599999V0202301N001012200019N0200001N1-00811-01551103401ADDGF101991001001999999001011MD1810081+9999REMSYN060AAXX  29061 36034 42998 12301 11081 21155 40340 58008 80001;
0112360340999992000012909004+51500+081220FM-12+021599999V0201501N003012200019N0200001N1-00221-01241103171ADDGF101991001001999999001011MD1710161+9999REMSYN060AAXX  29091 36034 42998 11503 11022 21124 40317 57016 80001;
0196360340999992000012912004+51500+081220FM-12+021599999V0201301N003012200019N0200001N1-00511-01301103191ADDAA199000091GA1001+999999999GF100991001001999999001001KA1999M-00171MA1999999100351MD1710021+9999REMSYN070AAXX  29121 36034 32998 01303 11051 21130 30035 40319 57002 333 11017;EQDQ01  00002PRCP99
0122360340999992000012918004+51500+081220FM-12+021599999V0201501N001012200019N0200001N1-01221-01571103081ADDGA1001+999999999GF100991001001999999001001MD1710101+9999REMSYN054AAXX  29181 36034 42998 01501 11122 21157 40308 57010;
0122360340999992000012921004+51500+081220FM-12+021599999V0201101N001012200019N0200001N1-01651-01911103011ADDGA1001+999999999GF100991001001999999001001MD1710121+9999REMSYN054AAXX  29211 36034 42998 01101 11165 21191 40301 57012;
0225360340999992000013000004+51500+081220FM-12+021599999V0200901N001012200019N0200001N1-01741-02081102791ADDAA199000091AJ100129199999999GA1001+999999999GF100991001001999999001001IA1249KA1120N-01771MA1999999099831MD1710221+9999REMSYN076AAXX  30001 36034 32998 00901 11174 21208 39983 40279 57022 333 21177 48012;EQDQ01  00002PRCP99
0112360340999992000013003004+51500+081220FM-12+021599999V0209999C000019999999N0200001N1-01541-01881102631ADDGF108991081001999999051999MD1710131+9999REMSYN060AAXX  30031 36034 42998 80000 11154 21188 40263 57013 8805/;
0112360340999992000013006004+51500+081220FM-12+021599999V0201601N002019999999N0200001N1-01061-01421102541ADDGF108991041001999999031021MD1710041+9999REMSYN060AAXX  30061 36034 42998 81602 11106 21142 40254 57004 84032;
0112360340999992000013009004+51500+081220FM-12+021599999V0203501N002019999999N0200001N1-00741-01231102291ADDGF106991021001999999031021MD1710201+9999REMSYN060AAXX  30091 36034 42998 63502 11074 21123 40229 57020 82032;
0186360340999992000013012004+51500+081220FM-12+021599999V0201901N006019999999N0200001N1-00401-01081102271ADDAA199000091GF108991001001999999001021KA1999M-00391MA1999999099471MD1310011+9999REMSYN076AAXX  30121 36034 32998 81906 11040 21108 39947 40227 53001 80002 333 11039;EQDQ01  00002PRCP99
0166360340999992000013018004+51500+081220FM-12+021599999V0202001N00501004201CN0100001N1-00441-00751102401ADDAY181061AY231061GA1041+004809099GF108991081091004501999999MD1210091+9999MW1851REMSYN076AAXX  30181 36034 41497 82005 11044 21075 40240 52009 78583 889// 333 84916;
0113360340999992000013021004+51500+081220FM-12+021599999V0202001N004019999999N0200001N1-00781-00921999999ADDGF108991999999008001999999REMSYN075AAXX  30211 36034 41598 82004 11078 21092 0266 52022 78583 889// 333 84922;
0252360340999992000013100004+51500+081220FM-12+021599999V0202201N00401007501CN0200001N1-01021-01151102821ADDAA112002091AJ100169199999999AY181061AY231061GA1041+006909099GF108991081091008001999999IA1249KA1120N-01031MA1999999099941MD1210131+9999MW1851REMSYN100AAXX  31001 36034 11598 82204 11102 21115 39994 40282 52013 60022 78583 889// 333 21103 48016 84923;
0166360340999992000013103004+51500+081220FM-12+021599999V0202001N004010030019N0010001N1-01061-01191102941ADDAY181031AY221031GA1051+003009069GF108991081091004501999999MD1210111+9999MW1861REMSYN076AAXX  31031 36034 41494 82004 11106 21119 40294 52011 78682 889// 333 85710;
0140360340999992000013106004+51500+081220FM-12+021599999V0201901N004019999999N0200001N1-01061-01341103041ADDAY181061AY221061GF108991001001999999001091MD1210101+9999MW1261REMSYN066AAXX  31061 36034 41998 81904 11106 21134 40304 52010 72682 80009;
0112360340999992000013109004+51500+081220FM-12+021599999V0201801N004012200019N0200001N1-01121-01401103051ADDGF102991001001999999001021MD1410001+9999REMSYN060AAXX  31091 36034 42998 21804 11112 21140 40305 54000 80002;
0195360340999992000013112004+51500+081220FM-12+021599999V0201801N00501007501CN0200001N1-01221-01421103201ADDAA112000391GA1031+007809099GF108991051091008001051999KA1120M-01021MA1999999100291MD1310141+9999REMSYN088AAXX  31121 36034 12598 81805 11122 21142 30029 40320 53014 69932 8595/ 333 11102 83926;
0166360340999992000013118004+51500+081220FM-12+021599999V0201901N00301007501CN0200001N1-01031-01231103471ADDAY181061AY221061GA1031+006009099GF105991051091008001001001MD1210141+9999MW1851REMSYN076AAXX  31181 36034 41598 51903 11103 21123 40347 52014 78582 85900 333 83920;
0166360340999992000013121004+51500+081220FM-12+021599999V0201801N004010039019N0200001N1-01091-01291103541ADDAY181031AY221031GA1051+003909099GF108991081091004501999999MD1210051+9999MW1021REMSYN076AAXX  31211 36034 41498 81804 11109 21129 40354 52005 70282 889// 333 85913;
0252360340999992000020100004+51500+081220FM-12+021599999V0201801N005010042019N0200001N1-01051-01181103591ADDAA112000791AJ100209199999999AY181061AY221061GA1051+004209099GF108991081091004501999999IA1249KA1120N-01341MA1999999100691MD1210071+9999MW1851REMSYN100AAXX  01001 36034 11498 81805 11105 21118 30069 40359 52007 69902 78582 889// 333 21134 48020 85914;
0166360340999992000020103004+51500+081220FM-12+021599999V0201901N00301007501CN0040001N1-01101-01231103741ADDAY181031AY221031GA1041+006609099GF108991081091008001999999MD1210131+9999MW1851REMSYN076AAXX  01031 36034 41596 81903 11110 21123 40374 52013 78582 889// 333 84922;
0150360340999992000020106004+51500+081220FM-12+021599999V0201901N003012200019N0200001N1-01121-01321103751ADDAY181061AY211061GA1001+999999999GF100991001001999999001001MD1210011+9999MW1021REMSYN060AAXX  01061 36034 41998 01903 11112 21132 40375 52001 70281;
0122360340999992000020109004+51500+081220FM-12+021599999V0201901N002012200019N0200001N1-01011-01451103551ADDGA1001+999999999GF100991001001999999001001MD1810181+9999REMSYN054AAXX  01091 36034 42998 01902 11101 21145 40355 58018;
0177360340999992000020112004+51500+081220FM-12+021599999V0209999C000012200019N0200001N1-01561-01691103461ADDAA199000021GA1001+999999999GF100991001001999999001001KA1999M-01011MA1999999100511MD1710141+9999REMSYN070AAXX  01121 36034 32998 00000 11156 21169 30051 40346 57014 333 11101;
0140360340999992000020118004+51500+081220FM-12+021599999V0200101N002019999999N0010001N1-02101-02281103411ADDAY111061AY211061GF108991001001999999001021MD1710071+9999MW1101REMSYN066AAXX  01181 36034 41994 80102 11210 21228 40341 57007 71011 80002;
0140360340999992000020121004+51500+081220FM-12+021599999V0200301N001019999999N0010001N1-02061-02311103271ADDAY121031AY221031GF108991001001999999001021MD1710141+9999MW1101REMSYN066AAXX  01211 36034 41994 80301 11206 21231 40327 57014 71022 80002;
0253360340999992000020200004+51500+081220FM-12+021599999V0200101N002012200019N0010001N1-02231-02481103181ADDAA199000091AJ100209199999999AY111061AY211061GA1001+999999999GF100991001001999999001001IA1249KA1120N-02271MA1999999100151MD1710101+9999MW1101REMSYN082AAXX  02001 36034 31994 00102 11223 21248 30015 40318 57010 71011 333 21227 48020;EQDQ01  00002PRCP99
0166360340999992000020203004+51500+081220FM-12+021599999V0200201N001010018019N0020001N1-02161-02341103141ADDAY141031AY211031GA1081+001809069GF108991081061001501999999MD1710041+9999MW1281REMSYN076AAXX  02031 36034 41295 80201 11216 21234 40314 57004 72841 886// 333 88706;
0140360340999992000020206004+51500+081220FM-12+021599999V0200201N002012200019N0040001N1-01951-02141103001ADDAY141061AY211061GF102991001001999999001011MD1710091+9999MW1101REMSYN066AAXX  02061 36034 41996 20202 11195 21214 40300 57009 71041 80001;
0122360340999992000020209004+51500+081220FM-12+021599999V0203601N003012200019N0200001N1-01851-02111102861ADDGA1001+999999999GF100991001001999999001001MD1710131+9999REMSYN054AAXX  02091 36034 42998 03603 11185 21211 40286 57013;
0214360340999992000020212004+51500+081220FM-12+021599999V0200301N001019999999N0040001N1-02161-02281102861ADDAA199000091AY111061AY211061GF108991001001999999001021KA1999M-01811MA1999999099851MD1710041+9999MW1101REMSYN082AAXX  02121 36034 31996 80301 11216 21228 39985 40286 57004 71011 80002 333 11181;EQDQ01  00002PRCP99
0150360340999992000020218004+51500+081220FM-12+021599999V0203601N002012200019N0100001N1-02271-02391102681ADDAY111061AY211061GA1001+999999999GF100991001001999999001001MD1710081+9999MW1101REMSYN060AAXX  02181 36034 41997 03602 11227 21239 40268 57008 71011;
0122360340999992000020221004+51500+081220FM-12+021599999V0200301N003012200019N0200001N1-02501-02741102601ADDGA1001+999999999GF100991001001999999001001MD1710101+9999REMSYN054AAXX  02211 36034 42998 00303 11250 21274 40260 57010;
0225360340999992000020300004+51500+081220FM-12+021599999V0203601N002012200019N0200001N1-02701-02941102561ADDAA199000091AJ100189199999999GA1001+999999999GF100991001001999999001001IA1249KA1120N-02741MA1999999099501MD1710051+9999REMSYN076AAXX  03001 36034 32998 03602 11270 21294 39950 40256 57005 333 21274 48018;EQDQ01  00002PRCP99
0150360340999992000020303004+51500+081220FM-12+021599999V0200101N002012200019N0100001N1-02551-02801102471ADDAY101031AY201031GA1001+999999999GF100991001001999999001001MD1710071+9999MW1101REMSYN060AAXX  03031 36034 41997 00102 11255 21280 40247 57007 71000;
0144360340999992000020306004+51500+081220FM-12+021599999V0200301N002012200019N0100001N1-02071+99999102361ADDAY101061AY201061GA1001+999999999GF100991001001999999001001MD1710061+9999MW1101REMSYN054AAXX  03061 36034 41997 00302 11207 40236 57006 71000;
0140360340999992000020309004+51500+081220FM-12+021599999V0201601N010012200019N0200001N1-00492-01321102021ADDAY131031AY201031GF102991001001999999001011MD1710161+9999MW1361REMSYN066AAXX  03091 36034 41998 21610 11049 21132 40202 57016 73630 80001;
0224360340999992000020312004+51500+081220FM-12+021599999V0201601N008012200019N0200001N1-00581-01251101911ADDAA199000091AY131061AY201061GA1001+999999999GF100991001001999999001001KA1999M-00491MA1999999099091MD1710121+9999MW1361REMSYN076AAXX  03121 36034 31998 01608 11058 21125 39909 40191 57012 73630 333 11049;EQDQ01  00002PRCP99
0150360340999992000020318004+51500+081220FM-12+021599999V0201601N008012200019N0200001N1-00681-01201101931ADDAY131061AY201061GA1001+999999999GF100991001001999999001001MD1310031+9999MW1361REMSYN060AAXX  03181 36034 41998 01608 11068 21120 40193 53003 73630;
0166360340999992000020321004+51500+081220FM-12+021599999V0201701N009010027019N0040001N1-00541-00611102031ADDAY181031AY231031GA1051+002709069GF108991081091002501999999MD1210121+9999MW1851REMSYN076AAXX  03211 36034 41396 81709 11054 21061 40203 52012 78583 889// 333 85709;
0252360340999992000020400004+51500+081220FM-12+021599999V0201801N009010027019N0100001N1-00541-00611102141ADDAA112000191AJ100159199999999AY181061AY231061GA1051+002709069GF108991081091002501999999IA1249KA1120N-00811MA1999999099331MD1210111+9999MW1851REMSYN100AAXX  04001 36034 11397 81809 11054 21061 39933 40214 52011 69922 78583 889// 333 21081 48015 85709;
0166360340999992000020403004+51500+081220FM-12+021599999V0201801N008010027019N0200001N1-00661-00901102421ADDAY181031AY231031GA1051+002709069GF108991081091002501999999MD1210261+9999MW1361REMSYN076AAXX  04031 36034 41398 81808 11066 21090 40242 52026 73683 889// 333 85709;
0166360340999992000020406004+51500+081220FM-12+021599999V0201801N009010030019N0200001N1-00661-00901102481ADDAY181061AY231061GA1051+003009069GF108991081091004501999999MD1210061+9999MW1361REMSYN076AAXX  04061 36034 41498 81809 11066 21090 40248 52006 73683 889// 333 85710;
0166360340999992000020409004+51500+081220FM-12+021599999V0201801N00701004201CN0200001N1-00481-00611102561ADDAY181031AY231031GA1031+003009069GF108991081091004501999999MD1210101+9999MW1361REMSYN076AAXX  04091 36034 41498 81807 11048 21061 40256 52010 73683 889// 333 83710;
0223360340999992000020412004+51500+081220FM-12+021599999V0201801N00401004201CN0200001N1-00881-00991102791ADDAA112000391AY181061AY231061GA1031+004509099GF106991061091004501001001KA1120M-00391MA1999999099931MD1210181+9999MW1361REMSYN094AAXX  04121 36034 11498 61804 11088 21099 39993 40279 52018 69932 73683 86900 333 11039 83915;
0166360340999992000020418004+51500+081220FM-12+021599999V0201601N008010066019N0200001N1-00631-01031102741ADDAY131061AY221061GA1051+006609099GF108991081091008001999999MD1810081+9999MW1361REMSYN076AAXX  04181 36034 41598 81608 11063 21103 40274 58008 73632 889// 333 85922;
0166360340999992000020421004+51500+081220FM-12+021599999V0201501N008010024019N0200001N1-00661-01121102681ADDAY131031AY221031GA1051+002409069GF108991081091002501999999MD1710061+9999MW1361REMSYN076AAXX  04211 36034 41398 81508 11066 21112 40268 57006 73632 889// 333 85708;
0265360340999992000020500004+51500+081220FM-12+021599999V0201601N008010027019N0200001N1-00601-00991102661ADDAA199000091AJ100159199999999AY131061AY221061GA1051+002709069GF108991081091002501999999IA1249KA1120N-01091MA1999999099831MD1710021+9999MW1361REMSYN094AAXX  05001 36034 31398 81608 11060 21099 39983 40266 57002 73632 889// 333 21109 48015 85709;EQDQ01  00002PRCP99
0140360340999992000020503004+51500+081220FM-12+021599999V0201601N009019999999N0200001N1-00541-00961102691ADDAY131031AY221031GF108991081001999999051999MD1310041+9999MW1361REMSYN066AAXX  05031 36034 41998 81609 11054 21096 40269 53004 73632 8805/;
0185360340999992000020506004+51500+081220FM-12+021599999V0201701N008010018019N0040001N1-00501-00781102771ADDAY171061AY231061GA1061+001809069GF108991999021001501071999MD1210081+9999MW1711REMSYN076AAXX  05061 36034 41296 81708 11050 21078 40277 52008 77173 8827/ 333 86706;EQDQ01+000082SCOTLC
0185360340999992000020509004+51500+081220FM-12+021599999V0201501N006010015019N0100001N1-00401-00701102741ADDAY171031AY231031GA1061+001509069GF108991999021001501071999MD1810021+9999MW1711REMSYN076AAXX  05091 36034 41297 81506 11040 21070 40274 58002 77173 8827/ 333 86705;EQDQ01+000082SCOTLC
0201360340999992000020512004+51500+081220FM-12+021599999V0201601N008010300019N0200001N1-00401-00741102711ADDAA112000791AY171061AY231061GF108991021051008001051999KA1999M-00391MA1999999099901MD1710031+9999MW1361REMSYN088AAXX  05121 36034 11598 81608 11040 21074 39990 40271 57003 69902 73673 8255/ 333 11039;
0140360340999992000020518004+51500+081220FM-12+021599999V0201801N007019999999N0200001N1-00561-01031102551ADDAY131061AY221061GF108991001001999999001011MD1710131+9999MW1361REMSYN066AAXX  05181 36034 41998 81807 11056 21103 40255 57013 73632 80001;
0140360340999992000020521004+51500+081220FM-12+021599999V0201801N006019999999N0200001N1-00631-01131102381ADDAY131031AY221031GF108991001001999999001011MD1710181+9999MW1361REMSYN066AAXX  05211 36034 41998 81806 11063 21113 40238 57018 73632 80001;
0243360340999992000020600004+51500+081220FM-12+021599999V0201801N004019999999N0200001N1-00641-01141102241ADDAA199000091AJ100139199999999AY131061AY221061GF107991071001999999031001IA1249KA1120N-01011MA1999999099421MD1710131+9999MW1021REMSYN088AAXX  06001 36034 31998 71804 11064 21114 39942 40224 57013 70232 87030 333 21101 48013;EQDQ01  00002PRCP99
0112360340999992000020603004+51500+081220FM-12+021599999V0201801N004019999999N0200001N1-00851-01231102171ADDGF108991031001999999031021MD1710091+9999REMSYN060AAXX  06031 36034 42998 81804 11085 21123 40217 57009 83032;
0140360340999992000020606004+51500+081220FM-12+021599999V0201801N008010300019N0200001N1-00601-01131102041ADDAY131061AY221061GF108991021091012501051999MD1710111+9999MW1361REMSYN066AAXX  06061 36034 41698 81808 11060 21113 40204 57011 73632 8295/;
0140360340999992000020609004+51500+081220FM-12+021599999V0201801N008019999999N0200001N1-00301-00971101941ADDAY131031AY221031GF108991081001999999011999MD1710071+9999MW1361REMSYN066AAXX  06091 36034 41998 81808 11030 21097 40194 57007 73632 8801/;
0236360340999992000020612004+51500+081220FM-12+021599999V0201801N008010129019N0200001N1-00351-00791102101ADDAA199000091AY131061AY221061GA1081+012909059GF108991081051012501999999KA1120M-00201MA1999999099311MD1310161+9999MW1361REMSYN088AAXX  06121 36034 31698 81808 11035 21079 39931 40210 53016 73632 885// 333 11020 88643;EQDQ01  00002PRCP99
0166360340999992000020618004+51500+081220FM-12+021599999V0201801N00601004201CN0100001N1-00441-00601102441ADDAY181061AY231061GA1041+003009069GF108991081091004501999999MD1210131+9999MW1851REMSYN076AAXX  06181 36034 41497 81806 11044 21060 40244 52013 78583 889// 333 84710;
0166360340999992000020621004+51500+081220FM-12+021599999V0201901N002010042019N0200001N1-00551-00591102611ADDAY181031AY231031GA1051+004209099GF108991081091004501999999MD1210161+9999MW1851REMSYN076AAXX  06211 36034 41498 81902 11055 21059 40261 52016 78583 889// 333 85914;
0252360340999992000020700004+51500+081220FM-12+021599999V0202001N00101007501CN0200001N1-00581-00581102671ADDAA112000391AJ100169199999999AY181061AY231061GA1041+007809099GF108991081091008001999999IA1249KA1120N-00631MA1999999099851MD1210061+9999MW1851REMSYN100AAXX  07001 36034 11598 82001 11058 21058 39985 40267 52006 69932 78583 889// 333 21063 48016 84926;
0166360340999992000020703004+51500+081220FM-12+021599999V0203601N002010084019N0100001N1-00541-00541102721ADDAY181031AY221031GA1051+008409099GF108991081091008001999999MD1210051+9999MW1101REMSYN076AAXX  07031 36034 41597 83602 11054 21054 40272 52005 71082 889// 333 85928;
0166360340999992000020706004+51500+081220FM-12+021599999V0200201N003010090019N0100001N1-00421-00541102671ADDAY181061AY221061GA1061+009009099GF108991081091008001999999MD1810041+9999MW1851REMSYN076AAXX  07061 36034 41597 80203 11042 21054 40267 58004 78582 889// 333 86930;
0166360340999992000020709004+51500+081220FM-12+021599999V0200301N003010057019N0200001N1-00321-00491102471ADDAY181031AY221031GA1051+005709099GF108991081091004501999999MD1710191+9999MW1021REMSYN076AAXX  07091 36034 41498 80303 11032 21049 40247 57019 70282 889// 333 85919;
0242360340999992000020712004+51500+081220FM-12+021599999V0200301N003010021019N0100001N1-00441-00581102391ADDAA112000791AY181061AY271061GA1051+002109069GF108991081999002501021999KA1120M-00281MA1999999099581MD1710091+9999MW1711REMSYN094AAXX  07121 36034 11397 80303 11044 21058 39958 40239 57009 69902 77187 8802/ 333 11028 85707;EQDQ01+000002SCOLCG
0185360340999992000020718004+51500+081220FM-12+021599999V0200101N002010018019N0200001N1-00501-00571102151ADDAY171061AY221061GA1051+001809069GF108991081999002501021999MD1710131+9999MW1021REMSYN076AAXX  07181 36034 41398 80102 11050 21057 40215 57013 70272 8802/ 333 85706;EQDQ01+000002SCOLCG
0138360340999992000020721004+51500+081220FM-12+021599999V0200301N003010018019N0200001N1-00861-00941102031ADDGA1081+001809029GF108991081001001501021999MD1710151+9999REMSYN070AAXX  07211 36034 42298 80303 11086 21094 40203 57015 8802/ 333 88506;
0224360340999992000020800004+51500+081220FM-12+021599999V0200401N003010051019N0200001N1-00901-00971101961ADDAA112000791AJ100159199999999GA1051+005109099GF107991071091004501001001IA1249KA1120N-00941MA1999999099111MD1710081+9999REMSYN094AAXX  08001 36034 12498 70403 11090 21097 39911 40196 57008 69902 87900 333 21094 48015 85917;
0112360340999992000020803004+51500+081220FM-12+021599999V0200501N003010300019N0200001N1-00931-01001101901ADDGF108991021051008001051999MD1710061+9999REMSYN060AAXX  08031 36034 42598 80503 11093 21100 40190 57006 8255/;
0122360340999992000020806004+51500+081220FM-12+021599999V0203601N001012200019N0200001N1-00801-00941101851ADDGA1001+999999999GF100991001001999999001001MD1710031+9999REMSYN054AAXX  08061 36034 42998 03601 11080 21094 40185 57003;
0112360340999992000020809004+51500+081220FM-12+021599999V0200201N001019999999N0200001N1-00581-00841101701ADDGF108991001001999999001021MD1710121+9999REMSYN060AAXX  08091 36034 42998 80201 11058 21084 40170 57012 80002;
0186360340999992000020812004+51500+081220FM-12+021599999V0203601N002019999999N0200001N1-00881-01031101691ADDAA199000091GF108991021001999999031021KA1999M-00541MA1999999098851MD1710051+9999REMSYN076AAXX  08121 36034 32998 83602 11088 21103 39885 40169 57005 82032 333 11054;EQDQ01  00002PRCP99
0138360340999992000020818004+51500+081220FM-12+021599999V0200101N001010060019N0200001N1-00951-01071101571ADDGA1051+006009059GF108991051051008001051999MD1710041+9999REMSYN070AAXX  08181 36034 42598 80101 11095 21107 40157 57004 8555/ 333 85620;
0138360340999992000020821004+51500+081220FM-12+021599999V0209999C00001007501CN0200001N1-00981-01101101541ADDGA1041+006609099GF108991081091008001999999MD1710041+9999REMSYN070AAXX  08211 36034 42598 80000 11098 21110 40154 57004 889// 333 84922;
0237360340999992000020900004+51500+081220FM-12+021599999V0201901N002010027019N0200001N1-00541-00791101541ADDAA199000091AJ100159199999999GA1051+002709069GF108991081091002501999999IA1249KA1120N-01081MA1999999098751MD1310061+9999REMSYN088AAXX  09001 36034 32398 81902 11054 21079 39875 40154 53006 889// 333 21108 48015 85709;EQDQ01  00002PRCP99
0166360340999992000020903004+51500+081220FM-12+021599999V0201901N002010021019N0005001N1-00601-00671101621ADDAY181031AY221031GA1061+002109069GF108991081091002501999999MD1210071+9999MW1861REMSYN076AAXX  09031 36034 41393 81902 11060 21067 40162 52007 78682 889// 333 86707;
0166360340999992000020906004+51500+081220FM-12+021599999V0202101N002010030019N0010001N1-00461-00591101631ADDAY181061AY221061GA1061+003009069GF108991081091002501999999MD1210031+9999MW1861REMSYN076AAXX  09061 36034 41394 82102 11046 21059 40163 52003 78682 889// 333 86710;
0166360340999992000020909004+51500+081220FM-12+021599999V0203101N002010030019N0040001N1-00451-00851101631ADDAY181031AY221031GA1061+003009069GF108991081091002501999999MD1410001+9999MW1851REMSYN076AAXX  09091 36034 41396 83102 11045 21085 40163 54000 78582 889// 333 86710;
0242360340999992000020912004+51500+081220FM-12+021599999V0203201N002010006019N0010001N1-00501-00571101721ADDAA112003091AY181061AY271061GA1061+000609069GF108991999071000751021999KA1120M-00371MA1999999098931MD1310081+9999MW1751REMSYN094AAXX  09121 36034 11194 83202 11050 21057 39893 40172 53008 60032 77587 8872/ 333 11037 86702;EQDQ01+000082SCOTLC
0185360340999992000020918004+51500+081220FM-12+021599999V0203001N004010006019N0010001N1-00961-01121102121ADDAY171061AY221061GA1061+000609069GF108991999071000751021999MD1210141+9999MW1751REMSYN076AAXX  09181 36034 41194 83004 11096 21112 40212 52014 77572 8872/ 333 86702;EQDQ01+000082SCOTLC
0185360340999992000020921004+51500+081220FM-12+021599999V0202601N003010006019N0010001N1-01041-01171102361ADDAY171031AY221031GA1061+000609069GF108991999021000751071999MD1210231+9999MW1751REMSYN076AAXX  09211 36034 41194 82603 11104 21117 40236 52023 77572 8827/ 333 86702;EQDQ01+000082SCOTLC
0230360340999992000021000004+51500+081220FM-12+021599999V0202701N004019999999N0200001N1-01221-01421102631ADDAA112006191AJ100219199999999AY171061AY221061GF108991081001999999051999IA1249KA1120N-01271MA1999999099731MD1210231+9999MW1221REMSYN094AAXX  10001 36034 11998 82704 11122 21142 39973 40263 52023 60062 72272 8805/ 333 21127 48021;
0140360340999992000021003004+51500+081220FM-12+021599999V0202201N003012200019N0100001N1-02071-02261103031ADDAY111031AY211031GF102991001001999999001021MD1310301+9999MW1101REMSYN066AAXX  10031 36034 41997 22203 11207 21226 40303 53030 71011 80002;
0112360340999992000021006004+51500+081220FM-12+021599999V0202101N004019999999N0100001N1-01661-02001103161ADDGF106991051001999999031021MD1210161+9999REMSYN060AAXX  10061 36034 42997 62104 11166 21200 40316 52016 85032;
0140360340999992000021009004+51500+081220FM-12+021599999V0202101N006012200019N0200001N1-01471-01811103251ADDAY131031AY211031GF103991031001999999031001MD1210111+9999MW1361REMSYN066AAXX  10091 36034 41998 32106 11147 21181 40325 52011 73631 83030;
0195360340999992000021012004+51500+081220FM-12+021599999V0201801N006012200019N0200001N1-01451-01791103371ADDAA199000021AY131061AY211061GF102991021001999999031001KA1999M-01181MA1999999100431MD1210131+9999MW1361REMSYN082AAXX  10121 36034 31998 21806 11145 21179 30043 40337 52013 73631 82030 333 11118;
0166360340999992000021018004+51500+081220FM-12+021599999V0201901N004010054019N0100001N1-01391-01591103621ADDAY181061AY231061GA1051+005409099GF108991081091004501999999MD1210051+9999MW1851REMSYN076AAXX  10181 36034 41497 81904 11139 21159 40362 52005 78583 889// 333 85918;
0166360340999992000021021004+51500+081220FM-12+021599999V0201701N005010078019N0200001N1-01451-01721103601ADDAY181031AY231031GA1051+007809099GF108991081091008001999999MD1810021+9999MW1021REMSYN076AAXX  10211 36034 41598 81705 11145 21172 40360 58002 70283 889// 333 85926;
0240360340999992000021100004+51500+081220FM-12+021599999V0202201N003012200019N0200001N1-02421-02661103741ADDAA112000791AJ100229199999999AY181061AY231061GA1001+999999999GF100991001001999999001001IA1249KA1120N-02431MA1999999100671MD1310021+9999MW1021REMSYN088AAXX  11001 36034 11998 02203 11242 21266 30067 40374 53002 69902 70283 333 21243 48022;
0112360340999992000021103004+51500+081220FM-12+021599999V0202101N002019999999N0200001N1-02261-02511103841ADDGF108991001001999999001091MD1210111+9999REMSYN060AAXX  11031 36034 42998 82102 11226 21251 40384 52011 80009;
0112360340999992000021106004+51500+081220FM-12+021599999V0201701N004019999999N0200001N1-01461-01891103731ADDGF108991001001999999001091MD1810011+9999REMSYN060AAXX  11061 36034 42998 81704 11146 21189 40373 58001 80009;
0112360340999992000021109004+51500+081220FM-12+021599999V0201801N004012200019N0200001N1-01081-01611103571ADDGF102991001001999999001021MD1710121+9999REMSYN060AAXX  11091 36034 42998 21804 11108 21161 40357 57012 80002;
0186360340999992000021112004+51500+081220FM-12+021599999V0201601N004012200019N0200001N1-01261-01691103591ADDAA199000091GF101991001001999999001021KA1999M-01051MA1999999100661MD1310011+9999REMSYN076AAXX  11121 36034 32998 11604 11126 21169 30066 40359 53001 80002 333 11105;EQDQ01  00002PRCP99
0112360340999992000021118004+51500+081220FM-12+021599999V0201801N002019999999N0200001N1-01691-01811103651ADDGF108991031001999999051021MD1810071+9999REMSYN060AAXX  11181 36034 42998 81802 11169 21181 40365 58007 83052;
0122360340999992000021121004+51500+081220FM-12+021599999V0201601N004012200019N0200001N1-01511-01701103581ADDGA1001+999999999GF100991001001999999001001MD1710051+9999REMSYN054AAXX  11211 36034 42998 01604 11151 21170 40358 57005;
0215360340999992000021200004+51500+081220FM-12+021599999V0201601N004019999999N0200001N1-01351-01701103491ADDAA199000091AJ100229199999999GF108991031001999999051021IA1249KA1120N-02131MA1999999100551MD1710071+9999REMSYN082AAXX  12001 36034 32998 81604 11135 21170 30055 40349 57007 83052 333 21213 48022;EQDQ01  00002PRCP99
0140360340999992000021203004+51500+081220FM-12+021599999V0201601N006019999999N0200001N1-01161-01511103471ADDAY131031AY221031GF108991081001999999051999MD1410001+9999MW1361REMSYN066AAXX  12031 36034 41998 81606 11116 21151 40347 54000 73632 8805/;
0166360340999992000021206004+51500+081220FM-12+021599999V0201601N007010069019N0200001N1-00941-01291103351ADDAY131061AY221061GA1051+006909099GF108991051091008001051999MD1810081+9999MW1361REMSYN076AAXX  12061 36034 41598 81607 11094 21129 40335 58008 73632 8595/ 333 85923;
0166360340999992000021209004+51500+081220FM-12+021599999V0201601N009010051019N0040001N1-00781-01051103201ADDAY181031AY231031GA1061+005109099GF108991081091004501999999MD1710141+9999MW1851REMSYN076AAXX  12091 36034 41496 81609 11078 21105 40320 57014 78583 889// 333 86917;
0201360340999992000021212004+51500+081220FM-12+021599999V0201601N008019999999N0100001N1-00681-00881103111ADDAA112000791AY181061AY231061GF108991031001999999031021KA1999M-00661MA1999999100251MD1710081+9999MW1361REMSYN088AAXX  12121 36034 11997 81608 11068 21088 30025 40311 57008 69902 73683 83032 333 11066;
0166360340999992000021218004+51500+081220FM-12+021599999V0201501N01201004201CN0100001N1-00991-01251102941ADDAY131061AY221061GA1041+004809099GF108991081091004501999999MD1710121+9999MW1381REMSYN076AAXX  12181 36034 41497 81512 11099 21125 40294 57012 73832 889// 333 84916;
0172360340999992000021221004+51500+081220FM-12+021599999V0201501N013010021019N0002001N1-00941-01101102831ADDAY181031AY231031GA1051+002109079GF108991081091002501999999MD1710081+9999MW1861REMSYN082AAXX  12211 36034 41392 81513 11094 21110 40283 57008 78683 889// 333 85707 91118;
0258360340999992000021300004+51500+081220FM-12+021599999V0201501N012010018019N0002001N1-00781-00921102681ADDAA112000191AJ100169199999999AY181061AY231061GA1051+001809079GF108991081091001501999999IA1249KA1120N-01051MA1999999099831MD1710141+9999MW1861REMSYN106AAXX  13001 36034 11292 81512 11078 21092 39983 40268 57014 69922 78683 889// 333 21105 48016 85706 91118;
0172360340999992000021303004+51500+081220FM-12+021599999V0201501N012010018019N0010001N1-00631-00751102681ADDAY181031AY231031GA1051+001809079GF108991081091001501999999MD1310021+9999MW1861REMSYN082AAXX  13031 36034 41294 81512 11063 21075 40268 53002 78683 889// 333 85706 91119;
0172360340999992000021306004+51500+081220FM-12+021599999V0201501N012010021019N0010001N1-00581-00691102651ADDAY181061AY231061GA1051+002109079GF108991081091002501999999MD1810021+9999MW1861REMSYN082AAXX  13061 36034 41394 81512 11058 21069 40265 58002 78683 889// 333 85707 91119;
0172360340999992000021309004+51500+081220FM-12+021599999V0201501N012010039019N0010001N1-00521-00621102681ADDAY181031AY231031GA1051+003909099GF108991081091004501999999MD1310031+9999MW1861REMSYN082AAXX  13091 36034 41494 81512 11052 21062 40268 53003 78683 889// 333 85913 91119;
0229360340999992000021312004+51500+081220FM-12+021599999V0201501N011010039019N0010001N1-00561-00671102681ADDAA112000391AY181061AY231061GA1051+003909099GF108991081091004501999999KA1120M-00471MA1999999099861MD1410001+9999MW1861REMSYN100AAXX  13121 36034 11494 81511 11056 21067 39986 40268 54000 69932 78683 889// 333 11047 85913 91118;
0166360340999992000021318004+51500+081220FM-12+021599999V0201601N011010048019N0010001N1-00791-00891102631ADDAY181061AY231061GA1051+004809099GF108991081091004501999999MD1710051+9999MW1861REMSYN076AAXX  13181 36034 41494 81611 11079 21089 40263 57005 78683 889// 333 85916;
0166360340999992000021321004+51500+081220FM-12+021599999V0201601N011010090019N0010001N1-00801-00901102631ADDAY181031AY231031GA1051+009009099GF108991081081008001999999MD1410001+9999MW1861REMSYN076AAXX  13211 36034 41594 81611 11080 21090 40263 54000 78683 888// 333 85930;
0252360340999992000021400004+51500+081220FM-12+021599999V0201601N00801007501CN0200001N1-00581-00691102561ADDAA112000591AJ100149199999999AY181061AY231061GA1041+009009099GF108991081091008001999999IA1249KA1120N-00831MA1999999099741MD1810041+9999MW1361REMSYN100AAXX  14001 36034 11598 81608 11058 21069 39974 40256 58004 69952 73683 889// 333 21083 48014 84930;
0140360340999992000021403004+51500+081220FM-12+021599999V0201501N008019999999N0200001N1-00621-00931102541ADDAY131031AY221031GF108991081001999999051999MD1710041+9999MW1361REMSYN066AAXX  14031 36034 41998 81508 11062 21093 40254 57004 73632 8805/;
0140360340999992000021406004+51500+081220FM-12+021599999V0201501N009019999999N0200001N1-00471-00911102441ADDAY131061AY221061GF108991081001999999011999MD1710081+9999MW1361REMSYN066AAXX  14061 36034 41998 81509 11047 21091 40244 57008 73632 8801/;
0214360340999992000021412004+51500+081220FM-12+021599999V0201601N007019999999N0200001N1-00431-00891102261ADDAA199000091AY131061AY221061GF108991001001999999001021KA1999M-00241MA1999999099461MD1710041+9999MW1361REMSYN082AAXX  14121 36034 31998 81607 11043 21089 39946 40226 57004 73632 80002 333 11024;EQDQ01  00002PRCP99
0140360340999992000021418004+51500+081220FM-12+021599999V0201601N004019999999N0200001N1-00721-01121102051ADDAY131061AY221061GF108991081001999999051999MD1710081+9999MW1021REMSYN066AAXX  14181 36034 41998 81604 11072 21112 40205 57008 70232 8805/;
0138360340999992000021421004+51500+081220FM-12+021599999V0201601N00501004201CN0200001N1-00641-01141101921ADDGA1041+004509099GF108991081091004501999999MD1710121+9999REMSYN070AAXX  14211 36034 42498 81605 11064 21114 40192 57012 889// 333 84915;
0215360340999992000021500004+51500+081220FM-12+021599999V0201701N006019999999N0200001N1-00601-01181101781ADDAA199000091AJ100149199999999GF105991021001999999051011IA1249KA1120N-00811MA1999999098981MD1710121+9999REMSYN082AAXX  15001 36034 32998 51706 11060 21118 39898 40178 57012 82051 333 21081 48014;EQDQ01  00002PRCP99
0112360340999992000021503004+51500+081220FM-12+021599999V0201701N003019999999N0200001N1-00571-01241101741ADDGF108991001001999999001021MD1710041+9999REMSYN060AAXX  15031 36034 42998 81703 11057 21124 40174 57004 80002;
0112360340999992000021506004+51500+081220FM-12+021599999V0202001N005019999999N0200001N1-00181-01011101551ADDGF108991001001999999001021MD1710151+9999REMSYN060AAXX  15061 36034 42998 82005 11018 21101 40155 57015 80002;
0112360340999992000021509004+51500+081220FM-12+021599999V0201901N005019999999N0200001N1-00071-00841101441ADDGF108991001001999999001071MD1710071+9999REMSYN060AAXX  15091 36034 42998 81905 11007 21084 40144 57007 80007;
0186360340999992000021512004+51500+081220FM-12+021599999V0201601N007019999999N0200001N1-00181-00881101341ADDAA199000091GF108991081001999999011999KA1999M-00031MA1999999098581MD1710121+9999REMSYN076AAXX  15121 36034 32998 81607 11018 21088 39858 40134 57012 8801/ 333 11003;EQDQ01  00002PRCP99
0166360340999992000021518004+51500+081220FM-12+021599999V0201801N008010015019N0002001N1-00381-00461101291ADDAY181061AY231061GA1061+001509069GF108991081091001501999999MD1310041+9999MW1861REMSYN076AAXX  15181 36034 41292 81808 11038 21046 40129 53004 78683 889// 333 86705;
0166360340999992000021521004+51500+081220FM-12+021599999V0202401N007010054019N0200001N1-00451-00541101451ADDAY181031AY231031GA1061+005409099GF108991081091004501999999MD1210141+9999MW1851REMSYN076AAXX  15211 36034 41498 82407 11045 21054 40145 52014 78583 889// 333 86918;
0252360340999992000021600004+51500+081220FM-12+021599999V0202501N007010042019N0200001N1-00471-00671101851ADDAA102001091AJ100149199999999AY181061AY231061GA1061+004209099GF108991081091004501999999IA1249KA1120N-00531MA1999999099051MD1310381+9999MW1851REMSYN100AAXX  16001 36034 11498 82507 11047 21067 39905 40185 53038 60016 78583 889// 333 21053 48014 86914;
0166360340999992000021603004+51500+081220FM-12+021599999V0202101N007010042019N0040001N1-00781-00921102391ADDAY181031AY231031GA1041+004209099GF108991081091004501999999MD1210491+9999MW1851REMSYN076AAXX  16031 36034 41496 82107 11078 21092 40239 52049 78583 889// 333 84914;
0185360340999992000021606004+51500+081220FM-12+021599999V0202101N007019999999N0200001N1-00611-01011102661ADDAY181061AY231061GA1031+006309099GF105991999091008001999999MD1210291+9999MW1851REMSYN076AAXX  16061 36034 41598 52107 11061 21101 40266 52029 78583 889// 333 83921;EQDQ01+000082SCOTLC
0140360340999992000021609004+51500+081220FM-12+021599999V0202001N007012200019N0200001N1-00671-01001102861ADDAY181031AY231031GF102991021001999999031001MD1210201+9999MW1361REMSYN066AAXX  16091 36034 41998 22007 11067 21100 40286 52020 73683 82030;
0201360340999992000021612004+51500+081220FM-12+021599999V0202001N006012200019N0200001N1-00961-01221103191ADDAA112000791AY181061AY231061GF102991021001999999031001KA1999M-00461MA1999999100311MD1210281+9999MW1361REMSYN088AAXX  16121 36034 11998 22006 11096 21122 30031 40319 52028 69902 73683 82030 333 11046;
0138360340999992000021618004+51500+081220FM-12+021599999V0201801N00501007501CN0200001N1-01151-01281103631ADDGA1041+007809099GF108991081091008001999999MD1210161+9999REMSYN070AAXX  16181 36034 42598 81805 11115 21128 40363 52016 889// 333 84926;
0166360340999992000021621004+51500+081220FM-12+021599999V0201801N00601007501CN0200001N1-01081-01211103661ADDAY181031AY221031GA1041+007809099GF108991081091008001999999MD1210031+9999MW1851REMSYN076AAXX  16211 36034 41598 81806 11108 21121 40366 52003 78582 889// 333 84926;
0252360340999992000021700004+51500+081220FM-12+021599999V0201701N00501007501CN0200001N1-01011-01141103671ADDAA112000191AJ100169199999999AY181061AY221061GA1041+006909099GF108991081091008001999999IA1249KA1120N-01391MA1999999100771MD1210031+9999MW1851REMSYN100AAXX  17001 36034 11598 81705 11101 21114 30077 40367 52003 69922 78582 889// 333 21139 48016 84923;
0166360340999992000021703004+51500+081220FM-12+021599999V0201601N003010054019N0040001N1-01061-01261103641ADDAY181031AY221031GA1051+005409099GF108991081091004501999999MD1810031+9999MW1851REMSYN076AAXX  17031 36034 41496 81603 11106 21126 40364 58003 78582 889// 333 85918;
0140360340999992000021706004+51500+081220FM-12+021599999V0201701N005019999999N0200001N1-00821-01191103491ADDAY181061AY221061GF108991001001999999001021MD1710131+9999MW1021REMSYN066AAXX  17061 36034 41998 81705 11082 21119 40349 57013 70282 80002;
0112360340999992000021709004+51500+081220FM-12+021599999V0201601N006019999999N0200001N1-00621-01021103341ADDGF108991001001999999001021MD1710121+9999REMSYN060AAXX  17091 36034 42998 81606 11062 21102 40334 57012 80002;
0173360340999992000021712004+51500+081220FM-12+021599999V0201601N005019999999N0200001N1-00841-01201103261ADDAA112000791GF108991001001999999001021KA1999M-00601MA1999999100391MD1710101+9999REMSYN082AAXX  17121 36034 12998 81605 11084 21120 30039 40326 57010 69902 80002 333 11060;
0112360340999992000021718004+51500+081220FM-12+021599999V0201801N002019999999N0200001N1-01311-01581103291ADDGF108991001001999999001021MD1710011+9999REMSYN060AAXX  17181 36034 42998 81802 11131 21158 40329 57001 80002;
0122360340999992000021721004+51500+081220FM-12+021599999V0202101N001012200019N0200001N1-02071-02261103351ADDGA1001+999999999GF100991001001999999001001MD1710041+9999REMSYN054AAXX  17211 36034 42998 02101 11207 21226 40335 57004;
0215360340999992000021800004+51500+081220FM-12+021599999V0202501N001019999999N0200001N1-02161-02341103291ADDAA199000091AJ100169199999999GF108991001001999999001061IA1249KA1120N-02191MA1999999100261MD1710071+9999REMSYN082AAXX  18001 36034 32998 82501 11216 21234 30026 40329 57007 80006 333 21219 48016;EQDQ01  00002PRCP99
0112360340999992000021803004+51500+081220FM-12+021599999V0202301N001019999999N0200001N1-01971-02161103201ADDGF108991001001999999001081MD1710071+9999REMSYN060AAXX  18031 36034 42998 82301 11197 21216 40320 57007 80008;
0112360340999992000021806004+51500+081220FM-12+021599999V0202301N002019999999N0200001N1-01241-01511103001ADDGF108991001001999999001021MD1710101+9999REMSYN060AAXX  18061 36034 42998 82302 11124 21151 40300 57010 80002;
0112360340999992000021809004+51500+081220FM-12+021599999V0202101N003019999999N0200001N1-00961-01421102801ADDGF108991001001999999001011MD1710151+9999REMSYN060AAXX  18091 36034 42998 82103 11096 21142 40280 57015 80001;
0186360340999992000021812004+51500+081220FM-12+021599999V0202101N002019999999N0200001N1-01281-01631102861ADDAA199000091GF108991001001999999001011KA1999M-00891MA1999999099951MD1310011+9999REMSYN076AAXX  18121 36034 32998 82102 11128 21163 39995 40286 53001 80001 333 11089;EQDQ01  00002PRCP99
0112360340999992000021818004+51500+081220FM-12+021599999V0202001N002019999999N0200001N1-02011-02201102941ADDGF108991001001999999001011MD1310011+9999REMSYN060AAXX  18181 36034 42998 82002 11201 21220 40294 53001 80001;
0112360340999992000021821004+51500+081220FM-12+021599999V0202301N002019999999N0200001N1-02101-02221102971ADDGF105991001001999999001011MD1210021+9999REMSYN060AAXX  18211 36034 42998 52302 11210 21222 40297 52002 80001;
0215360340999992000021900004+51500+081220FM-12+021599999V0202101N002019999999N0200001N1-02031-02151102931ADDAA199000091AJ100169199999999GF108991001001999999001021IA1249KA1120N-02181MA1999999099941MD1810031+9999REMSYN082AAXX  19001 36034 32998 82102 11203 21215 39994 40293 58003 80002 333 21218 48016;EQDQ01  00002PRCP99
0140360340999992000021903004+51500+081220FM-12+021599999V0202001N002019999999N0040001N1-01671-01861102911ADDAY171031AY221031GF108991081001999999021999MD1310011+9999MW1711REMSYN066AAXX  19031 36034 41996 82002 11167 21186 40291 53001 77172 8802/;
0140360340999992000021906004+51500+081220FM-12+021599999V0201901N002019999999N0040001N1-01291-01491102841ADDAY171061AY221061GF108991081001999999021999MD1810021+9999MW1711REMSYN066AAXX  19061 36034 41996 81902 11129 21149 40284 58002 77172 8802/;
0140360340999992000021909004+51500+081220FM-12+021599999V0202101N002019999999N0040001N1-01081-01361102791ADDAY171031AY221031GF108991081001999999021999MD1710031+9999MW1711REMSYN066AAXX  19091 36034 41996 82102 11108 21136 40279 57003 77172 8802/;
0201360340999992000021912004+51500+081220FM-12+021599999V0202001N002019999999N0040001N1-01161-01361102821ADDAA112000591AY171061AY221061GF108991081001999999021999KA1999M-01051MA1999999099931MD1310031+9999MW1711REMSYN088AAXX  19121 36034 11996 82002 11116 21136 39993 40282 53003 69952 77172 8802/ 333 11105;
0140360340999992000021918004+51500+081220FM-12+021599999V0202601N003019999999N0200001N1-01641-01771103051ADDAY171061AY221061GF108991081001999999021999MD1210041+9999MW1711REMSYN066AAXX  19181 36034 41998 82603 11164 21177 40305 52004 77172 8802/;
0140360340999992000021921004+51500+081220FM-12+021599999V0202401N002019999999N0200001N1-01811-01931103131ADDAY171031AY221031GF108991081001999999021999MD1210061+9999MW1711REMSYN066AAXX  19211 36034 41998 82402 11181 21193 40313 52006 77172 8802/;
0230360340999992000022000004+51500+081220FM-12+021599999V0202401N002019999999N0200001N1-01761-01951103201ADDAA112000591AJ100179199999999AY171061AY221061GF108991081001999999021999IA1249KA1120N-01801MA1999999100221MD1210071+9999MW1711REMSYN094AAXX  20001 36034 11998 82402 11176 21195 30022 40320 52007 69952 77172 8802/ 333 21180 48017;
0140360340999992000022003004+51500+081220FM-12+021599999V0202101N002019999999N0100001N1-01951-02141103331ADDAY171031AY221031GF108991081001999999021999MD1210121+9999MW1711REMSYN066AAXX  20031 36034 41997 82102 11195 21214 40333 52012 77172 8802/;
0140360340999992000022006004+51500+081220FM-12+021599999V0202801N002010075019N0040001N1-01461-01731103331ADDAY171061AY221061GF108991081001008001021999MD1210051+9999MW1711REMSYN066AAXX  20061 36034 41596 82802 11146 21173 40333 52005 77172 8802/;
0150360340999992000022009004+51500+081220FM-12+021599999V0201901N003012200019N0100001N1-01321-01671103411ADDAY171031AY211031GA1001+999999999GF100991001001999999001001MD1210101+9999MW1021REMSYN060AAXX  20091 36034 41997 01903 11132 21167 40341 52010 70271;
0201360340999992000022012004+51500+081220FM-12+021599999V0201801N003012200019N0200001N1-01511-01781103501ADDAA112000591AY171061AY211061GF102991001001999999001021KA1999M-01211MA1999999100541MD1210051+9999MW1021REMSYN088AAXX  20121 36034 11998 21803 11151 21178 30054 40350 52005 69952 70271 80002 333 11121;
0140360340999992000022018004+51500+081220FM-12+021599999V0202301N003019999999N0200001N1-02491-02671103981ADDAY171061AY211061GF108991081001999999021999MD1210121+9999MW1711REMSYN066AAXX  20181 36034 41998 82303 11249 21267 40398 52012 77171 8802/;
0140360340999992000022021004+51500+081220FM-12+021599999V0201801N002019999999N0200001N1-02621-02801104121ADDAY171031AY221031GF108991001001999999001021MD1210121+9999MW1021REMSYN066AAXX  20211 36034 41998 81802 11262 21280 40412 52012 70272 80002;
0240360340999992000022100004+51500+081220FM-12+021599999V0201801N003012200019N0200001N1-03131-03361104271ADDAA112000391AJ100209199999999AY171061AY211061GA1001+999999999GF100991001001999999001001IA1249KA1120N-03151MA1999999101091MD1210071+9999MW1021REMSYN088AAXX  21001 36034 11998 01803 11313 21336 30109 40427 52007 69932 70271 333 21315 48020;
0122360340999992000022103004+51500+081220FM-12+021599999V0201901N002012200019N0200001N1-03061-03291104441ADDGA1001+999999999GF100991001001999999001001MD1210171+9999REMSYN054AAXX  21031 36034 42998 01902 11306 21329 40444 52017;
0122360340999992000022106004+51500+081220FM-12+021599999V0201901N004012200019N0200001N1-02151-02471104371ADDGA1001+999999999GF100991001001999999001001MD1210051+9999REMSYN054AAXX  21061 36034 42998 01904 11215 21247 40437 52005;
0122360340999992000022109004+51500+081220FM-12+021599999V0201901N003012200019N0200001N1-01811-02221104271ADDGA1001+999999999GF100991001001999999001001MD1810051+9999REMSYN054AAXX  21091 36034 42998 01903 11181 21222 40427 58005;
0196360340999992000022112004+51500+081220FM-12+021599999V0201801N002012200019N0200001N1-01911-02321104411ADDAA199000091GA1001+999999999GF100991001001999999001001KA1999M-01681MA1999999101391MD1310131+9999REMSYN070AAXX  21121 36034 32998 01802 11191 21232 30139 40441 53013 333 11168;EQDQ01  00002PRCP99
0112360340999992000022118004+51500+081220FM-12+021599999V0201801N003019999999N0200001N1-02501-02741104531ADDGF108991001001999999001021MD1810041+9999REMSYN060AAXX  21181 36034 42998 81803 11250 21274 40453 58004 80002;
0138360340999992000022121004+51500+081220FM-12+021599999V0201601N00701004201CN0200001N1-02011-02271104421ADDGA1041+004809099GF108991081091004501999999MD1710051+9999REMSYN070AAXX  21211 36034 42498 81607 11201 21227 40442 57005 889// 333 84916;
0252360340999992000022200004+51500+081220FM-12+021599999V0201801N008010039019N0100001N1-01791-02051104361ADDAA112000791AJ100189199999999AY181061AY231061GA1061+003909099GF108991081091004501999999IA1249KA1120N-02601MA1999999101351MD1710031+9999MW1851REMSYN100AAXX  22001 36034 11497 81808 11179 21205 30135 40436 57003 69902 78583 889// 333 21260 48018 86913;
0166360340999992000022203004+51500+081220FM-12+021599999V0201801N006010039019N0200001N1-01591-01861104341ADDAY181031AY231031GA1061+003909099GF108991081091004501999999MD1410001+9999MW1851REMSYN076AAXX  22031 36034 41498 81806 11159 21186 40434 54000 78583 889// 333 86913;
0166360340999992000022206004+51500+081220FM-12+021599999V0201801N00701007501CN0200001N1-01261-01531104321ADDAY181061AY231061GA1041+007809099GF108991081091008001999999MD1310031+9999MW1361REMSYN076AAXX  22061 36034 41598 81807 11126 21153 40432 53003 73683 889// 333 84926;
0140360340999992000022209004+51500+081220FM-12+021599999V0201801N009010300019N0200001N1-01051-01411104271ADDAY131031AY221031GF106991021051012501031001MD1810031+9999MW1361REMSYN066AAXX  22091 36034 41698 61809 11105 21141 40427 58003 73632 82530;
0201360340999992000022212004+51500+081220FM-12+021599999V0201701N006019999999N0200001N1-01181-01531104371ADDAA112000791AY131061AY221061GF108991081001999999051999KA1999M-00991MA1999999101431MD1310081+9999MW1361REMSYN088AAXX  22121 36034 11998 81706 11118 21153 30143 40437 53008 69902 73632 8805/ 333 11099;
0140360340999992000022218004+51500+081220FM-12+021599999V0201901N003012200019N0200001N1-01761-01951104531ADDAY131061AY211061GF102991021001999999031001MD1410001+9999MW1021REMSYN066AAXX  22181 36034 41998 21903 11176 21195 40453 54000 70231 82030;
0122360340999992000022221004+51500+081220FM-12+021599999V0201901N002012200019N0200001N1-01851-02041104471ADDGA1001+999999999GF100991001001999999001001MD1810061+9999REMSYN054AAXX  22211 36034 42998 01902 11185 21204 40447 58006;
0215360340999992000022300004+51500+081220FM-12+021599999V0202001N003019999999N0200001N1-01601-01791104421ADDAA199000091AJ100199199999999GF108991081001999999051999IA1249KA1120N-02051MA1999999101431MD1710031+9999REMSYN082AAXX  23001 36034 32998 82003 11160 21179 30143 40442 57003 8805/ 333 21205 48019;EQDQ01  00002PRCP99
0112360340999992000022303004+51500+081220FM-12+021599999V0202001N003019999999N0200001N1-01571-01761104401ADDGF108991081001999999051999MD1710021+9999REMSYN060AAXX  23031 36034 42998 82003 11157 21176 40440 57002 8805/;
0112360340999992000022306004+51500+081220FM-12+021599999V0201901N004019999999N0200001N1-01231-01501104361ADDGF106991061001999999051999MD1310011+9999REMSYN060AAXX  23061 36034 42998 61904 11123 21150 40436 53001 8605/;
0122360340999992000022309004+51500+081220FM-12+021599999V0201901N003012200019N0200001N1-00941-01291104291ADDGA1001+999999999GF100991001001999999001001MD1810041+9999REMSYN054AAXX  23091 36034 42998 01903 11094 21129 40429 58004;
0196360340999992000022312004+51500+081220FM-12+021599999V0201701N003012200019N0200001N1-00901-01341104261ADDAA199000091GA1001+999999999GF100991001001999999001001KA1999M-00911MA1999999101351MD1710031+9999REMSYN070AAXX  23121 36034 32998 01703 11090 21134 30135 40426 57003 333 11091;EQDQ01  00002PRCP99
0122360340999992000022318004+51500+081220FM-12+021599999V0202001N003012200019N0200001N1-01811-02071104391ADDGA1001+999999999GF100991001001999999001001MD1210011+9999REMSYN054AAXX  23181 36034 42998 02003 11181 21207 40439 52001;
0122360340999992000022321004+51500+081220FM-12+021599999V0202001N003012200019N0200001N1-02031-02221104371ADDGA1001+999999999GF100991001001999999001001MD1810051+9999REMSYN054AAXX  23211 36034 42998 02003 11203 21222 40437 58005;
