0141412580999992000060421004+23630+058570FM-12+000499999V0202101N004119999999N9999999N1+03411+02061100251ADDAA199000091MA1999999095411MD1999999+0001REMSYN070AAXX  04214 41258 36/// /2108 10341 20206 39541 40025 333 03036 59000;EQDQ01  00002PRCP99
0111412580999992000061612004+23630+058570FM-12+000499999V0202801N008219999999N9999999N1+04401-00191099871ADDMA1999999098051MD1999999+0001REMSYN070AAXX  16124 41258 /6/// /2816 10440 21019 39805 49987 333 03028 59000;
0160412580999992000101106004+23630+058570FM-12+000499999V0209999V001019999999N9999999N1+03241+00851101611ADDAA199000091KA1120N+02341MA1999999096711MD1999999+0001REMSYN076AAXX  11064 41258 3//// /9902 10324 20085 39671 40161 333 03024 20234 58000;EQDQ01  00002PRCP99
