0179471034999992000010100004+37700+125700FM-15+0091RKSQ V0200801N002112200019N0040001N1+00001-00101999999ADDGA1011+000159999GA2021+060009999GF104991999999999999999999MA1102541999999MW1101REMMET069RKSQ 2359Z 08004KT 4000 BR 1FG/// SCT200 00/M01 A3028 RMK QFF1026PT4;EQDQ01    003PRSWM1
0128471034999992000010101264+37700+125700FM-16+0091RKSQ V0200901N002612200019N0048001N1+99999+99999999999ADDGA1011+000159999GA2021+060009999GF104991999999999999999999MW1001MW2101REMMET046RKSQ 0126Z 09005KT 4800 BR 1FG/// SCT200 RMK ;
0156471034999992000010102004+37700+125700FM-15+0091RKSQ V0200401N002612200019N0060001N1+00201-00101999999ADDGA1021+060009999GF104991999999999999999999MA1102571999999MW1101REMMET062RKSQ 0159Z 04005KT 6000 BR SCT200 02/M01 A3029 RMK QFF1026PT7;EQDQ01    003PRSWM1
0156471034999992000010102594+37700+125700FM-15+0091RKSQ V0200601N001512200019N0090001N1+00401-00101999999ADDGA1021+060009999GF104991999999999999999999MA1102511999999MW1101REMMET062RKSQ 0259Z 06003KT 9000 BR SCT200 04/M01 A3027 RMK QFF1026PT0;EQDQ01    003PRSWM1
0164471034999992000010104004+37700+125700FM-15+0091RKSQ V0200501N003110600019N0090001N1+00401+00001999999ADDGA1071+060009999GF107991999999999999999999MA1102441999999MW1101REMMET070RKSQ 0359Z 05006KT 9000 BR BKN200 04/M00 A3025 RMK CIG200/ QFF1025PT3;EQDQ01    003PRSWM1
0163471034999992000010105004+37700+125700FM-15+0091RKSQ V0201201N002610600019N0090001N1+00501+00001999999ADDGA1071+060009999GF107991999999999999999999MA1102341999999MW1101REMMET069RKSQ 0459Z 12005KT 9000 BR BKN200 05/00 A3022 RMK CIG200/ QFF1024PT3;EQDQ01    003PRSWM1
0186471034999992000010106004+37700+125700FM-15+0091RKSQ V0201301N003610600019N0090001N1+00501+00001999999ADDGA1021+009009999GA2071+060009999GF107991999999999999999999MA1102241999999MW1101REMMET076RKSQ 0559Z 13007KT 9000 BR FEW030 BKN200 05/00 A3019 RMK CIG200/ QFF1022PT9;EQDQ01    003PRSWM1
0209471034999992000010107004+37700+125700FM-15+0091RKSQ V0201001N000510600019N0090001N1+00501+00001999999ADDGA1021+009009999GA2021+030009999GA3071+060009999GF107991999999999999999999MA1102201999999MW1101REMMET083RKSQ 0759Z 10001KT 9000 BR FEW030 SCT100 BKN200 05/00 A3018 RMK CIG200/ QFF1022PT9;EQDQ01    003PRSWM1
0209471034999992000010108004+37700+125700FM-15+0091RKSQ V0201001N000510600019N0090001N1+00501+00001999999ADDGA1021+009009999GA2021+030009999GA3071+060009999GF107991999999999999999999MA1102201999999MW1101REMMET083RKSQ 0759Z 10001KT 9000 BR FEW030 SCT100 BKN200 05/00 A3018 RMK CIG200/ QFF1022PT9;EQDQ01    003PRSWM1
0209471034999992000010108594+37700+125700FM-15+0091RKSQ V0201001N001010600019N0060001N1+00501+00101999999ADDGA1021+009009999GA2021+030009999GA3071+060009999GF107991999999999999999999MA1102201999999MW1101REMMET083RKSQ 0859Z 10002KT 6000 BR FEW030 SCT100 BKN200 05/01 A3018 RMK CIG200/ QFF1022PT9;EQDQ01    003PRSWM1
0209471034999992000010110004+37700+125700FM-15+0091RKSQ V0201501N001010600019N0060001N1+00501+00101999999ADDGA1021+009009999GA2021+030009999GA3081+060009999GF108991999999999999999999MA1102171999999MW1101REMMET083RKSQ 0959Z 15002KT 6000 BR FEW030 SCT100 OVC200 05/01 A3017 RMK CIG200/ QFF1022PT6;EQDQ01    003PRSWM1
0209471034999992000010111004+37700+125700FM-15+0091RKSQ V0201601N001510600019N0060001N1+00501+00101999999ADDGA1021+009009999GA2071+030009999GA3081+060009999GF108991999999999999999999MA1102131999999MW1101REMMET083RKSQ 1059Z 16003KT 6000 BR FEW030 BKN100 OVC200 05/01 A3016 RMK CIG200/ QFF1022PT3;EQDQ01    003PRSWM1
0209471034999992000010111594+37700+125700FM-15+0091RKSQ V0200901N001010600019N0060001N1+00601+00101999999ADDGA1021+009009999GA2071+030009999GA3081+060009999GF108991999999999999999999MA1102131999999MW1101REMMET083RKSQ 1159Z 09002KT 6000 BR FEW030 BKN100 OVC200 06/01 A3016 RMK CIG200/ QFF1022PT3;EQDQ01    003PRSWM1
0209471034999992000010112004+37700+125700FM-15+0091RKSQ V0200901N001010300019N0060001N1+00601+00101999999ADDGA1021+009009999GA2071+030009999GA3081+060009999GF108991999999999999999999MA1102131999999MW1101REMMET083RKSQ 1159Z 09002KT 6000 BR FEW030 BKN100 OVC200 06/01 A3016 RMK CIG100/ QFF1022PT3;EQDQ01    003PRSWM1
0209471034999992000010113004+37700+125700FM-15+0091RKSQ V0201401N001010300019N0060001N1+00601+00101999999ADDGA1021+009009999GA2071+030009999GA3081+060009999GF108991999999999999999999MA1102071999999MW1101REMMET083RKSQ 1259Z 14002KT 6000 BR FEW030 BKN100 OVC200 06/01 A3014 RMK CIG100/ QFF1021PT6;EQDQ01    003PRSWM1
0209471034999992000010114004+37700+125700FM-15+0091RKSQ V0201901N000510300019N0060001N1+00501+00301999999ADDGA1021+009009999GA2071+030009999GA3081+060009999GF108991999999999999999999MA1101961999999MW1101REMMET083RKSQ 1359Z 19001KT 6000 BR FEW030 BKN100 OVC200 05/03 A3011 RMK CIG100/ QFF1020PT6;EQDQ01    003PRSWM1
0209471034999992000010114594+37700+125700FM-15+0091RKSQ V0203301N001010300019N0060001N1+00501+00401999999ADDGA1021+009009999GA2071+030009999GA3081+060009999GF108991999999999999999999MA1101861999999MW1101REMMET083RKSQ 1459Z 33002KT 6000 BR SCT030 BKN100 OVC200 05/04 A3008 RMK CIG100/ QFF1019PT6;EQDQ01    003PRSWM1
0209471034999992000010116004+37700+125700FM-15+0091RKSQ V0203201N001510300019N0048001N1+00501+00401999999ADDGA1011+000159999GA2021+009009999GA3081+030009999GF108991999999999999999999MA1101761999999MW1101REMMET083RKSQ 1559Z 32003KT 4800 BR 1FG/// SCT030 OVC100 05/04 A3005 RMK CIG100/ QFF1018PT5;EQDQ01    003PRSWM1
0209471034999992000010117004+37700+125700FM-15+0091RKSQ V0202901N000510300019N0048001N1+00501+00401999999ADDGA1011+000159999GA2021+009009999GA3081+030009999GF108991999999999999999999MA1101691999999MW1101REMMET083RKSQ 1659Z 29001KT 4800 BR 1FG/// SCT030 OVC100 05/04 A3003 RMK CIG100/ QFF1017PT9;EQDQ01    003PRSWM1
0209471034999992000010118004+37700+125700FM-15+0091RKSQ V0203001N002110090019N0048001N1+00501+00401999999ADDGA1011+000159999GA2071+009009999GA3081+030009999GF108991999999999999999999MA1101691999999MW1101REMMET083RKSQ 1759Z 30004KT 4800 BR 1FG/// BKN030 OVC100 05/04 A3003 RMK CIG030/ QFF1017PT9;EQDQ01    003PRSWM1
0159471034999992000010118084+37700+125700FM-16+0091RKSQ V0201801N003610090019N0048001N1+99999+99999999999ADDGA1011+000159999GA2071+009009999GA3081+030009999GF108991999999999999999999MW1001MW2611REMMET061RKSQ 1808Z 18007KT 4800 -RA 1FG/// BKN030 OVC100 RMK CIG030/;
0216471034999992000010119004+37700+125700FM-15+0091RKSQ V0202101N004110090019N0048001N1+00501+00401999999ADDGA1011+000159999GA2071+009009999GA3081+030009999GF108991999999999999999999MA1101561999999MW1611REMMET090RKSQ 1859Z 21008KT 4800 -RA 1FG/// BKN030 OVC100 05/04 A2999 RMK CIG030/1RA05/ QFF1016PT5;EQDQ01    003PRSWM1
0216471034999992000010120004+37700+125700FM-15+0091RKSQ V0201701N003110090019N0048001N1+00501+00401999999ADDGA1011+000159999GA2071+009009999GA3081+030009999GF108991999999999999999999MA1101421999999MW1611REMMET090RKSQ 1959Z 17006KT 4800 -RA 1FG/// BKN030 OVC100 05/04 A2995 RMK CIG030/1RA03/ QFF1015PT1;EQDQ01    003PRSWM1
0077471034999992000010120104+37700+125700FM-16+0091RKSQ V0202301N002110090019N0048001N1+99999+99999999999ADDMW1001MW2611REMMET053RKSQ 2010Z 23004KT 4800 -RA 012 030 A2999 RMK CIG030;
0216471034999992000010121004+37700+125700FM-15+0091RKSQ V0202001N003610090019N0048001N1+00501+00401999999ADDGA1011+000159999GA2021+003609999GA3081+009009999GF108991999999999999999999MA1101291999999MW1611REMMET090RKSQ 2059Z 20007KT 4800 -RA 1FG/// SCT012 OVC030 05/04 A2991 RMK CIG030/1RA07/ QFF1013PT8;EQDQ01    003PRSWM1
0140471034999992000010121424+37700+125700FM-16+0091RKSQ V0202201N004619999999N0032001N1+99999+99999999999ADDGA1021+000159999GF102991999999999999999999MW1001MW2611REMMET055RKSQ 2142Z 22009KT 3200 -RA 2FG/// 012 030 RMK CIGE012;EQDQ01 003603SCOCIG
0227471034999992000010122004+37700+125700FM-15+0091RKSQ V0202401N005110036019N0032001N1+00601+00401999999ADDGA1021+000159999GA2071+003609999GA3081+009009999GF108991999999999999999999MA1101221999999MW1631OC101031REMMET093RKSQ 2159Z 24010G020KT 3200 RA 2FG/// BKN012 OVC030 06/04A2989 RMK CIGE012/1RA15/ QFF1013PT1;EQDQ01    003PRSWM1
0229471034999992000010123004+37700+125700FM-15+0091RKSQ V0202801N005110036019N0032001N1+00501+00401999999ADDGA1021+000159999GA2071+003609999GA3081+009009999GF108991999999999999999999MA1101321999999MW1611OC101081REMMET095RKSQ 2259Z 28010G021KT 3200 -RA 2FG/// BKN012 OVC030 05/04 A2992 RMK CIGE012/1RA09/ QFF1014PT1;EQDQ01    003PRSWM1
0157471034999992000010123344+37700+125700FM-16+0091RKSQ V0203001N004610090019N0040001N1+99999+99999999999ADDGA1011+000159999GA2021+003609999GA3071+009009999GF107991999999999999999999MW1001MW2101REMMET059RKSQ 2334Z 30009KT 4000 BR 1FG/// SCT012 BKN030 RMK CIG030;
0221471034999992000010123594+37700+125700FM-15+0091RKSQ V0203001N007210090019N0040001N1+00401+00301999999ADDGA1011+000159999GA2021+003609999GA3071+009009999GF107991999999999999999999MA1101321999999MW1101REMMET095RKSQ 2359Z 30014KT 4000 BR 1FG/// SCT012 BKN030 04/03 A2992 RMK CIG030/1RA01/6RA40/ QFF1014PT1;EQDQ01    003PRSWM1
0188471034999992000010201394+37700+125700FM-16+0091RKSQ V0202801N009310090019N0048001N1+99999+99999999999ADDGA1011+000159999GA2021+003609999GA3071+009009999GF107991999999999999999999MW1001MW2101OC101541REMMET063RKSQ 0139Z 28018G030KT 4800 BR 1FG/// FEW012 BKN030 RMK CIG030;EQDQ01+000003PRSWM1
0183471034999992000010202004+37700+125700FM-15+0091RKSQ V0202801N008212200019N0060001N1+00401+00201999999ADDGA1021+009009999GF104991999999999999999999MA1101491999999MW1101OC101391REMMET065RKSQ 0159Z 28016G027KT 6000 BR SCT030 04/02 A2997 RMK QFF1015PT8;EQDQ01+000003PRSWM1Q02    003PRSWM1
0191471034999992000010202594+37700+125700FM-15+0091RKSQ V0202901N006210090019N0060001N1+00501+00001999999ADDGA1071+009009999GF107991999999999999999999MA1101461999999MW1101OC101131REMMET073RKSQ 0259Z 29012G022KT 6000 BR BKN030 05/00 A2996 RMK CIG030/ QFF1015PT5;EQDQ01+000003PRSWM1Q02    003PRSWM1
0192471034999992000010204004+37700+125700FM-15+0091RKSQ V0203301N003610090019N0080001N1+00401+00001999999ADDGA1071+009009999GF107991999999999999999999MA1101461999999MW1101OC100931REMMET074RKSQ 0359Z 33007G018KT 8000 BR BKN030 04/M00 A2996 RMK CIG030/ QFF1015PT5;EQDQ01+000003PRSWM1Q02    003PRSWM1
0184471034999992000010205004+37700+125700FM-15+0091RKSQ V0203201N004112200019N0080001N1+00401-00101999999ADDGA1021+009009999GF104991999999999999999999MA1101421999999MW1101OC100981REMMET066RKSQ 0459Z 32008G019KT 8000 BR SCT030 04/M01 A2995 RMK QFF1015PT1;EQDQ01+000003PRSWM1Q02    003PRSWM1
0184471034999992000010205594+37700+125700FM-15+0091RKSQ V0203001N002612200019N0080001N1+00501+00001999999ADDGA1021+009009999GF102991999999999999999999MA1101461999999MW1101OC100771REMMET066RKSQ 0559Z 30005G015KT 8000 BR FEW030 05/M00 A2996 RMK QFF1015PT5;EQDQ01+000003PRSWM1Q02    003PRSWM1
0172471034999992000010207004+37700+125700FM-15+0091RKSQ V0203301N005112200019N0080001N1+00401-00101999999ADDGA1021+009009999GF102991999999999999999999MA1101561999999MW1101REMMET062RKSQ 0659Z 33010KT 8000 BR FEW030 04/M01 A2999 RMK QFF1016PT5;EQDQ01+000003PRSWM1Q02    003PRSWM1
0123471034999992000010208594+37700+125700FM-15+0091RKSQ V0203101N005112200019N0090001N1+00101-00201999999ADDMA1101691999999MW1101REMMET055RKSQ 0859Z 31010KT 9000 BR 01/M02 A3003 RMK QFF1017PT9;EQDQ01+000003PRSWM1Q02    003PRSWM1
0102471034999992000010209004+37700+125700FM-15+0091RKSQ V0202701N004112200019N0080001N1+99999+99999999999ADDMW1001MW2101REMMET059RKSQ 0759Z 27008KT 8000 BR 030 02/M02 A3001 RMK QFF1017PT2;EQDQ01+000003PRSWM1
0172471034999992000010210004+37700+125700FM-15+0091RKSQ V0202901N003612200019N0090001N1+00001-00301999999ADDGA1021+009009999GF102991999999999999999999MA1101801999999MW1101REMMET062RKSQ 0959Z 29007KT 9000 BR FEW030 00/M03 A3006 RMK QFF1018PT9;EQDQ01+000003PRSWM1Q02    003PRSWM1
0172471034999992000010211004+37700+125700FM-15+0091RKSQ V0203301N005712200019N0090001N1+00001-00501999999ADDGA1021+009009999GF102991999999999999999999MA1102131999999MW1101REMMET062RKSQ 1059Z 33011KT 9000 BR FEW030 00/M05 A3016 RMK QFF1018PT6;EQDQ01+000003PRSWM1Q02    003PRSWM1
0173471034999992000010211594+37700+125700FM-15+0091RKSQ V0203001N004612200019N0090001N1+00001-00501999999ADDGA1021+009009999GF102991999999999999999999MA1101831999999MW1101REMMET063RKSQ 1159Z 30009KT 9000 BR FEW030 M00/M05 A3007 RMK QFF1019PT2;EQDQ01+000003PRSWM1Q02    003PRSWM1
0114471034999992000010213004+37700+125700FM-15+0091RKSQ V0202901N006212200019N0090001N1+99999+99999999999ADDMA1101831999999MW1001MW2101REMMET056RKSQ 1259Z 29012KT 9000 BR M01/M05 A3007 RMK QFF1019PT2;EQDQ01+000003PRSWM1
0114471034999992000010214004+37700+125700FM-15+0091RKSQ V0203101N006712200019N0090001N1+99999+99999999999ADDMA1101901999999MW1001MW2101REMMET056RKSQ 1359Z 31013KT 9000 BR M02/M05 A3009 RMK QFF1020PT2;EQDQ01+000003PRSWM1
0133471034999992000010214594+37700+125700FM-16+0091RKSQ V0202701N004112200019N0090001N1+99999+99999999999ADDMA1101931999999MW1001MW2101OC100931REMMET067RKSQ 1459Z 27008G018KT 9000 BR M02/M06 A3010 RMK 20040/ QFF1020PT7;EQDQ01+000003PRSWM1
0114471034999992000010216004+37700+125700FM-15+0091RKSQ V0202901N007212200019N0090001N1+99999+99999999999ADDMA1101961999999MW1001MW2101REMMET056RKSQ 1559Z 29014KT 9000 BR M03/M07 A3011 RMK QFF1021PT0;EQDQ01+000003PRSWM1
0126471034999992000010217004+37700+125700FM-15+0091RKSQ V0202701N005112200019N0090001N1+99999+99999999999ADDMA1101961999999MW1001MW2101OC101081REMMET060RKSQ 1659Z 27010G021KT 9000 BR M03/M07 A3011 RMK QFF1021PT0;EQDQ01+000003PRSWM1
0114471034999992000010217594+37700+125700FM-16+0091RKSQ V0203301N006212200019N0090001N1+99999+99999999999ADDMA1102101999999MW1001MW2101REMMET056RKSQ 1759Z 33012KT 9000 BR M04/M07 A3015 RMK QFF1022PT3;EQDQ01+000003PRSWM1
0173471034999992000010219004+37700+125700FM-15+0091RKSQ V0202801N004612200019N0090001N1-00501-00801999999ADDGA1021+009009999GF102991999999999999999999MA1102101999999MW1101REMMET063RKSQ 1859Z 28009KT 9000 BR FEW030 M05/M08 A3015 RMK QFF1022PT3;EQDQ01+000003PRSWM1Q02    003PRSWM1
0114471034999992000010220004+37700+125700FM-15+0091RKSQ V0203201N004112200019N0090001N1+99999+99999999999ADDMA1102101999999MW1001MW2101REMMET056RKSQ 1959Z 32008KT 9000 BR M07/M10 A3015 RMK QFF1022PT3;EQDQ01+000003PRSWM1
0173471034999992000010221004+37700+125700FM-15+0091RKSQ V0203001N003612200019N0090001N1-00501-01201999999ADDGA1021+009009999GF102991999999999999999999MA1102171999999MW1101REMMET063RKSQ 2059Z 30007KT 9000 BR FEW030 M05/M12 A3017 RMK QFF1022PT9;EQDQ01+000003PRSWM1Q02    003PRSWM1
0154471034999992000010222004+37700+125700FM-15+0091RKSQ V0203301N005112200019N0112651N1-00601-01101999999ADDGA1021+009009999GF102991999999999999999999MA1102171999999MW1001REMMET060RKSQ 2159Z 33010KT 9999 FEW030 M06/M11 A3017 RMK QFF1023PT0;EQDQ01+000000PRSWM2
0105471034999992000010223004+37700+125700FM-15+0091RKSQ V0203201N003612200019N0112651N1+99999+99999999999ADDMA1102201999999MW1001REMMET053RKSQ 2259Z 32007KT 9999 M06/M10 A3018 RMK QFF1023PT4;EQDQ01+000000PRSWM2
0154471034999992000010300004+37700+125700FM-15+0091RKSQ V0203101N003112200019N0112651N1-00601-01001999999ADDGA1021+060009999GF102991999999999999999999MA1102271999999MW1001REMMET060RKSQ 2359Z 31006KT 9999 FEW200 M06/M10 A3020 RMK QFF1024PT0;EQDQ01+000000PRSWM2
0105471034999992000010302004+37700+125700FM-15+0091RKSQ V0203401N003112200019N0112651N1+99999+99999999999ADDMA1102341999999MW1001REMMET053RKSQ 0159Z 34006KT 9999 M03/M09 A3022 RMK QFF1024PT7;EQDQ01+000000PRSWM2
0105471034999992000010303004+37700+125700FM-15+0091RKSQ V0203301N003112200019N0112651N1+99999+99999999999ADDMA1102341999999MW1001REMMET053RKSQ 0259Z 33006KT 9999 M02/M08 A3022 RMK QFF1024PT7;EQDQ01+000000PRSWM2
0153471034999992000010304004+37700+125700FM-15+0091RKSQ V0202801N002612200019N0112651N1+00001-00701999999ADDGA1021+060009999GF104991999999999999999999MA1102271999999MW1001REMMET059RKSQ 0359Z 28005KT 9999 SCT200 00/M07 A3020 RMK QFF1024PT0;EQDQ01+000000PRSWM2
0162471034999992000010305004+37700+125700FM-15+0091RKSQ V0203001N001010600019N0112651N1-00101-00801999999ADDGA1071+060009999GF107991999999999999999999MA1102241999999MW1001REMMET068RKSQ 0459Z 30002KT 9999 BKN200 M01/M08 A3019 RMK CIG200/ QFF1023PT7;EQDQ01+000000PRSWM2
0153471034999992000010306004+37700+125700FM-15+0091RKSQ V0202901N004112200019N0112651N1+00001-00601999999ADDGA1021+060009999GF104991999999999999999999MA1102241999999MW1001REMMET059RKSQ 0559Z 29008KT 9999 SCT200 00/M06 A3019 RMK QFF1023PT7;EQDQ01+000000PRSWM2
0153471034999992000010307004+37700+125700FM-15+0091RKSQ V0203001N001512200019N0112651N1+00001-00701999999ADDGA1021+060009999GF102991999999999999999999MA1102241999999MW1001REMMET059RKSQ 0659Z 30003KT 9999 FEW200 00/M07 A3019 RMK QFF1023PT7;EQDQ01+000000PRSWM2
0154471034999992000010308004+37700+125700FM-15+0091RKSQ V0202901N001012200019N0112651N1-00101-00701999999ADDGA1021+060009999GF104991999999999999999999MA1102301999999MW1001REMMET060RKSQ 0759Z 29002KT 9999 SCT200 M01/M07 A3021 RMK QFF1024PT4;EQDQ01+000000PRSWM2
0154471034999992000010309004+37700+125700FM-15+0091RKSQ V0203101N002612200019N0112651N1-00201-00801999999ADDGA1021+060009999GF102991999999999999999999MA1102271999999MW1001REMMET060RKSQ 0859Z 31005KT 9999 FEW200 M02/M08 A3020 RMK QFF1024PT0;EQDQ01+000000PRSWM2
0154471034999992000010310004+37700+125700FM-15+0091RKSQ V0200101N001012200019N0112651N1-00301-00601999999ADDGA1021+060009999GF102991999999999999999999MA1102301999999MW1001REMMET060RKSQ 0959Z 01002KT 9999 FEW200 M03/M06 A3021 RMK QFF1024PT4;EQDQ01+000000PRSWM2
0154471034999992000010311004+37700+125700FM-15+0091RKSQ V0200301N002112200019N0112651N1-00301-00601999999ADDGA1021+060009999GF104991999999999999999999MA1102341999999MW1001REMMET060RKSQ 1059Z 03004KT 9999 SCT200 M03/M06 A3022 RMK QFF1024PT7;EQDQ01+000000PRSWM2
0154471034999992000010312004+37700+125700FM-15+0091RKSQ V0200501N001512200019N0112651N1-00301-00501999999ADDGA1021+060009999GF104991999999999999999999MA1102341999999MW1001REMMET060RKSQ 1159Z 05003KT 9999 SCT200 M03/M05 A3022 RMK QFF1024PT7;EQDQ01+000000PRSWM2
0154471034999992000010313004+37700+125700FM-15+0091RKSQ V0200401N002612200019N0112651N1-00301-00601999999ADDGA1021+060009999GF102991999999999999999999MA1102341999999MW1001REMMET060RKSQ 1259Z 04005KT 9999 FEW200 M03/M06 A3022 RMK QFF1024PT7;EQDQ01+000000PRSWM2
0154471034999992000010314004+37700+125700FM-15+0091RKSQ V0200401N002112200019N0112651N1-00401-00701999999ADDGA1021+060009999GF102991999999999999999999MA1102401999999MW1001REMMET060RKSQ 1359Z 04004KT 9999 FEW200 M04/M07 A3024 RMK QFF1025PT4;EQDQ01+000000PRSWM2
0154471034999992000010314594+37700+125700FM-15+0091RKSQ V0200601N001512200019N0112651N1-00401-00701999999ADDGA1021+060009999GF102991999999999999999999MA1102441999999MW1001REMMET060RKSQ 1459Z 06003KT 9999 FEW200 M04/M07 A3025 RMK QFF1025PT7;EQDQ01+000000PRSWM2
0154471034999992000010316004+37700+125700FM-15+0091RKSQ V0200501N002612200019N0112651N1-00501-00701999999ADDGA1021+060009999GF102991999999999999999999MA1102441999999MW1001REMMET060RKSQ 1559Z 05005KT 9999 FEW200 M05/M07 A3025 RMK QFF1025PT7;EQDQ01+000000PRSWM2
0154471034999992000010317004+37700+125700FM-15+0091RKSQ V0200801N002112200019N0112651N1-00401-00701999999ADDGA1021+060009999GF102991999999999999999999MA1102401999999MW1001REMMET060RKSQ 1659Z 08004KT 9999 FEW200 M04/M07 A3024 RMK QFF1025PT4;EQDQ01+000000PRSWM2
0105471034999992000010317594+37700+125700FM-16+0091RKSQ V0200701N001512200019N0112651N1+99999+99999999999ADDMA1102511999999MW1001REMMET053RKSQ 1759Z 07003KT 9999 M04/M07 A3027 RMK QFF1026PT4;EQDQ01+000000PRSWM2
0105471034999992000010319004+37700+125700FM-15+0091RKSQ V0200901N000512200019N0112651N1+99999+99999999999ADDMA1102441999999MW1001REMMET053RKSQ 1859Z 09001KT 9999 M05/M07 A3025 RMK QFF1025PT7;EQDQ01+000000PRSWM2
0154471034999992000010320004+37700+125700FM-15+0091RKSQ V0201001N000512200019N0112651N1-00401-00901999999ADDGA1021+009009999GF102991999999999999999999MA1102401999999MW1001REMMET060RKSQ 1959Z 10001KT 9999 FEW030 M04/M09 A3024 RMK QFF1025PT4;EQDQ01+000000PRSWM2
0154471034999992000010321004+37700+125700FM-15+0091RKSQ V0200601N002112200019N0112651N1-00401-00601999999ADDGA1021+060009999GF102991999999999999999999MA1102401999999MW1001REMMET060RKSQ 2059Z 06004KT 9999 FEW200 M04/M06 A3024 RMK QFF1025PT4;EQDQ01+000000PRSWM2
0154471034999992000010322004+37700+125700FM-15+0091RKSQ V0200901N001512200019N0112651N1-00501-00701999999ADDGA1021+060009999GF104991999999999999999999MA1102401999999MW1001REMMET060RKSQ 2159Z 09003KT 9999 SCT200 M05/M07 A3024 RMK QFF1025PT4;EQDQ01+000000PRSWM2
0114471034999992000010323004+37700+125700FM-15+0091RKSQ V0200601N002612200019N0090001N1+99999+99999999999ADDMA1102471999999MW1001MW2101REMMET056RKSQ 2259Z 06005KT 9000 BR M04/M07 A3026 RMK QFF1026PT1;EQDQ01+000003PRSWM1
0114471034999992000010400004+37700+125700FM-15+0091RKSQ V0200601N001512200019N0090001N1+99999+99999999999ADDMA1102511999999MW1001MW2101REMMET056RKSQ 2359Z 06003KT 9000 BR M04/M07 A3027 RMK QFF1026PT4;EQDQ01+000003PRSWM1
0114471034999992000010401004+37700+125700FM-15+0091RKSQ V0200801N001512200019N0090001N1+99999+99999999999ADDMA1102541999999MW1001MW2101REMMET056RKSQ 0059Z 08003KT 9000 BR M03/M08 A3028 RMK QFF1026PT8;EQDQ01+000003PRSWM1
0114471034999992000010402004+37700+125700FM-15+0091RKSQ V0201001N002112200019N0090001N1+99999+99999999999ADDMA1102541999999MW1001MW2101REMMET056RKSQ 0159Z 10004KT 9000 BR M02/M05 A3028 RMK QFF1026PT8;EQDQ01+000003PRSWM1
0114471034999992000010403004+37700+125700FM-15+0091RKSQ V0200901N001012200019N0090001N1+99999+99999999999ADDMA1102511999999MW1001MW2101REMMET056RKSQ 0259Z 09002KT 9000 BR M01/M04 A3027 RMK QFF1026PT4;EQDQ01+000003PRSWM1
0114471034999992000010404004+37700+125700FM-15+0091RKSQ V0200901N002612200019N0090001N1+99999+99999999999ADDMA1102471999999MW1001MW2101REMMET056RKSQ 0359Z 09005KT 9000 BR M00/M05 A3026 RMK QFF1026PT1;EQDQ01+000003PRSWM1
0123471034999992000010405004+37700+125700FM-15+0091RKSQ V0200801N001012200019N0090001N1+00101-00501999999ADDMA1102371999999MW1101REMMET055RKSQ 0459Z 08002KT 9000 BR 01/M05 A3023 RMK QFF1025PT1;EQDQ01+000003PRSWM1Q02    003PRSWM1
0172471034999992000010406004+37700+125700FM-15+0091RKSQ V0200901N000512200019N0090001N1+00101-00501999999ADDGA1021+060009999GF102991999999999999999999MA1102341999999MW1101REMMET062RKSQ 0559Z 09001KT 9000 BR FEW200 01/M05 A3022 RMK QFF1024PT7;EQDQ01+000003PRSWM1Q02    003PRSWM1
0180471034999992000010407004+37700+125700FM-15+0091RKSQ V0200601N002110600019N0090001N1+00001-00401999999ADDGA1071+060009999GF107991999999999999999999MA1102341999999MW1101REMMET070RKSQ 0659Z 06004KT 9000 BR BKN200 00/M04 A3022 RMK CIG200/ QFF1024PT7;EQDQ01+000003PRSWM1Q02    003PRSWM1
0203471034999992000010408004+37700+125700FM-15+0091RKSQ V0200801N001510600019N0090001N1+00001-00501999999ADDGA1021+036009999GA2071+060009999GF107991999999999999999999MA1102401999999MW1101REMMET077RKSQ 0759Z 08003KT 9000 BR FEW120 BKN200 00/M05 A3024 RMK CIG200/ QFF1025PT4;EQDQ01+000003PRSWM1Q02    003PRSWM1
0203471034999992000010409004+37700+125700FM-15+0091RKSQ V0200501N002610600019N0090001N1+00001-00301999999ADDGA1021+036009999GA2071+060009999GF107991999999999999999999MA1102341999999MW1101REMMET077RKSQ 0859Z 05005KT 9000 BR SCT120 BKN200 00/M03 A3022 RMK CIG200/ QFF1024PT7;EQDQ01+000003PRSWM1Q02    003PRSWM1
0204471034999992000010410004+37700+125700FM-15+0091RKSQ V0200701N002110600019N0090001N1+00001-00401999999ADDGA1021+036009999GA2071+060009999GF107991999999999999999999MA1102341999999MW1101REMMET078RKSQ 0959Z 07004KT 9000 BR FEW120 BKN200 M00/M04 A3022 RMK CIG200/ QFF1024PT7;EQDQ01+000003PRSWM1Q02    003PRSWM1
0204471034999992000010411004+37700+125700FM-15+0091RKSQ V0201501N002110600019N0090001N1+00001-00401999999ADDGA1021+036009999GA2071+060009999GF107991999999999999999999MA1102301999999MW1101REMMET078RKSQ 1059Z 15004KT 9000 BR FEW120 BKN200 M00/M04 A3021 RMK CIG200/ QFF1024PT4;EQDQ01+000003PRSWM1Q02    003PRSWM1
0204471034999992000010412004+37700+125700FM-15+0091RKSQ V0201001N003110600019N0090001N1+00001-00501999999ADDGA1021+036009999GA2071+060009999GF107991999999999999999999MA1102341999999MW1101REMMET078RKSQ 1159Z 10006KT 9000 BR FEW120 BKN200 M00/M05 A3022 RMK CIG200/ QFF1024PT7;EQDQ01+000003PRSWM1Q02    003PRSWM1
0203471034999992000010413004+37700+125700FM-15+0091RKSQ V0200301N004610600019N0090001N1+00001-00501999999ADDGA1021+036009999GA2071+060009999GF107991999999999999999999MA1102301999999MW1101REMMET077RKSQ 1259Z 03009KT 9000 BR SCT120 BKN200 00/M05 A3021 RMK CIG200/ QFF1024PT4;EQDQ01+000003PRSWM1Q02    003PRSWM1
0184471034999992000010414004+37700+125700FM-15+0091RKSQ V0201101N003110600019N0112651N1+00001-00501999999ADDGA1021+036009999GA2071+060009999GF107991999999999999999999MA1102341999999MW1001REMMET074RKSQ 1359Z 11006KT 9999 SCT120 BKN200 00/M05 A3022 RMK CIG200/ QFF1024PT7;EQDQ01+000000PRSWM2
0184471034999992000010414594+37700+125700FM-15+0091RKSQ V0200801N002610360019N0112651N1+00001-00501999999ADDGA1071+036009999GA2081+060009999GF108991999999999999999999MA1102271999999MW1001REMMET074RKSQ 1459Z 08005KT 9999 BKN120 OVC200 00/M05 A3020 RMK CIG120/ QFF1024PT0;EQDQ01+000000PRSWM2
0184471034999992000010416004+37700+125700FM-15+0091RKSQ V0200701N002610360019N0112651N1+00001-00501999999ADDGA1071+036009999GA2081+060009999GF108991999999999999999999MA1102271999999MW1001REMMET074RKSQ 1559Z 07005KT 9999 BKN120 OVC200 00/M05 A3020 RMK CIG120/ QFF1024PT0;EQDQ01+000000PRSWM2
0183471034999992000010417004+37700+125700FM-15+0091RKSQ V0201001N002610360019N0112651N1+00101-00501999999ADDGA1071+036009999GA2081+060009999GF108991999999999999999999MA1102241999999MW1001REMMET073RKSQ 1659Z 10005KT 9999BKN120 OVC200 01/M05 A3019 RMK CIG120/ QFF1023PT7;EQDQ01+000000PRSWM2
0184471034999992000010417594+37700+125700FM-15+0091RKSQ V0200601N004110360019N0112651N1+00101-00501999999ADDGA1071+036009999GA2081+060009999GF108991999999999999999999MA1102201999999MW1001REMMET074RKSQ 1759Z 06008KT 9999 BKN120 OVC200 01/M05 A3018 RMK CIG120/ QFF1023PT0;EQDQ01+000000PRSWM2
0203471034999992000010419004+37700+125700FM-15+0091RKSQ V0201101N004610360019N0080001N1+00101-00501999999ADDGA1021+009009999GA2081+036009999GF108991999999999999999999MA1102171999999MW1101REMMET077RKSQ 1859Z 11009KT 8000 BR SCT030 OVC120 01/M05 A3017 RMK CIG120/ QFF1023PT0;EQDQ01+000003PRSWM1Q02    003PRSWM1
0154471034999992000010419094+37700+125700FM-16+0091RKSQ V0201001N003610360019N0060001N1+99999+99999999999ADDGA1021+009009999GA2081+036009999GF108991999999999999999999MW1001MW2711REMMET053RKSQ 1909Z 10007KT 6000 -SN SCT030 OVC120 RMK CIG120;EQDQ01+000003PRSWM1
0211471034999992000010420004+37700+125700FM-15+0091RKSQ V0200701N004610090019N0060001N1-00101-00201999999ADDGA1071+009009999GA2081+030009999GF108991999999999999999999MA1102131999999MW1711REMMET085RKSQ 1959Z 07009KT 6000 -SN BKN030 OVC100 M01/M02 A3016 RMK CIG030/1SN04/ QFF1022PT7;EQDQ01+000003PRSWM1Q02    003PRSWM1
0177471034999992000010420104+37700+125700FM-16+0091RKSQ V0200501N005710090019N0032001N1+99999+99999999999ADDGA1021+000159999GA2021+004509999GA3081+009009999GF108991999999999999999999MW1001MW2711REMMET060RKSQ 2010Z 05011KT 3200 -SN 2FG/// FEW015 OVC030 RMK CIG030;EQDQ01+000003PRSWM1
0178471034999992000010420404+37700+125700FM-16+0091RKSQ V0200601N003610036019N0024001N1+99999+99999999999ADDGA1021+000159999GA2071+003609999GA3081+009009999GF108991999999999999999999MW1001MW2711REMMET061RKSQ 2040Z 06007KT 2400 -SN 2FG/// BKN012 OVC030 RMK CIGE012;EQDQ01+000003PRSWM1
0235471034999992000010421004+37700+125700FM-15+0091RKSQ V0200901N003110036019N0024001N1-00101-00301999999ADDGA1021+000159999GA2071+003609999GA3081+009009999GF108991999999999999999999MA1102101999999MW1711REMMET093RKSQ 2059Z 09006KT 2400 -SN 2FG/// BKN012 OVC030 M01/M03 A3015 RMK CIGE012/1SN05/ QFF1022PT4;EQDQ01+000003PRSWM1Q02    003PRSWM1
0235471034999992000010422004+37700+125700FM-15+0091RKSQ V0200701N004610036019N0024001N1+00001-00201999999ADDGA1021+000159999GA2071+003609999GA3081+009009999GF108991999999999999999999MA1102071999999MW1711REMMET093RKSQ 2159Z 07009KT 2400 -SN 2FG/// BKN012 OVC030 M00/M02 A3014 RMK CIGE012/1SN05/ QFF1022PT0;EQDQ01+000003PRSWM1Q02    003PRSWM1
0091471034999992000010422384+37700+125700FM-16+0091RKSQ V0200901N005110036019N0012001N1+99999+99999999999ADDMW1001MW2711REMMET048RKSQ 2238Z 09010KT 1200 -SN 006 012 RMK CIGE012;EQDQ01+000003PRSWM1
0229471034999992000010423004+37700+125700FM-15+0091RKSQ V0200901N003110036019N0008001N1+00001-00101999999ADDGA1021+000159999GA2021+001809999GA3081+003609999GF108991999999999999999999MA1101961999999MW1711REMMET087RKSQ 2259Z 09006KT 0800 -SN 2SN/// SCT006 OVC012 M00/M01 A3011 RMK CIGE012/ QFF1021PT3;EQDQ01+000003PRSWM1Q02    003PRSWM1
0178471034999992000010423504+37700+125700FM-16+0091RKSQ V0200901N002610018019N0008001N1+99999+99999999999ADDGA1021+000159999GA2071+001809999GA3081+003609999GF108991999999999999999999MW1001MW2711REMMET061RKSQ 2350Z 09005KT 0800 -SN 2SN/// BKN006 OVC012 RMK CIGE006;EQDQ01+000003PRSWM1
0241471034999992000010500004+37700+125700FM-15+0091RKSQ V0200801N002110018019N0008001N1+00001-00101999999ADDGA1021+000159999GA2071+001809999GA3081+003609999GF108991999999999999999999MA1101961999999MW1711REMMET099RKSQ 2359Z 08004KT 0800 -SN 2SN/// BKN006 OVC012 M00/M01 A3011 RMK CIGE006/6SN26/90426/ QFF1021PT3;EQDQ01+000003PRSWM1Q02    003PRSWM1
0235471034999992000010501004+37700+125700FM-15+0091RKSQ V0200901N003110018019N0008001N1+00001-00101999999ADDGA1021+000159999GA2071+001809999GA3081+003609999GF108991999999999999999999MA1102031999999MW1711REMMET093RKSQ 0059Z 09006KT 0800 -SN 2SN/// BKN006 OVC012 M00/M01 A3013 RMK CIGE006/1SN04/ QFF1021PT7;EQDQ01+000003PRSWM1Q02    003PRSWM1
0235471034999992000010502004+37700+125700FM-15+0091RKSQ V0200901N005110018019N0008001N1+00001+00001999999ADDGA1021+000159999GA2071+001809999GA3081+003609999GF108991999999999999999999MA1102031999999MW1711REMMET093RKSQ 0159Z 09010KT 0800 -SN 2SN/// BKN006 OVC012 M00/M00 A3013 RMK CIGE006/1SN04/ QFF1021PT7;EQDQ01+000003PRSWM1Q02    003PRSWM1
0090471034999992000010502304+37700+125700FM-16+0091RKSQ V0200701N004110009019N0004001N1+99999+99999999999ADDMW1001MW2711REMMET047RKSQ 0230Z 07008KT 0400 -SN 9FG003 RMK CIGW003;EQDQ01+000003PRSWM1
0121471034999992000010502594+37700+125700FM-16+0091RKSQ V0200801N002110009019N0004001N1+99999+99999999999ADDMW1001MW2711REMMET078RKSQ 0259Z 08004KT 0400 -SN 9FG003 00/M00 A3008 RMK CIGW003/1SN01/ QFF1020PT3;EQDQ01+000003PRSWM1
0089471034999992000010503454+37700+125700FM-16+0091RKSQ V0200801N002610009019N0004001N1+99999+99999999999ADDMW1001MW2441REMMET046RKSQ 0345Z 08005KT 0400 FG 9FG003 RMK CIGW003;EQDQ01+000003PRSWM1
0120471034999992000010504004+37700+125700FM-15+0091RKSQ V0200601N003610009019N0004001N1+99999+99999999999ADDMW1001MW2441REMMET077RKSQ 0359Z 06007KT 0400 FG 9FG003 00/M00 A3003 RMK CIGW003/1SN00/ QFF1018PT3;EQDQ01+000003PRSWM1
0090471034999992000010504254+37700+125700FM-16+0091RKSQ V0201001N003110009019N0004001N1+99999+99999999999ADDMW1001MW2611REMMET047RKSQ 0425Z 10006KT 0400 -RA 9FG003 RMK CIGW003;EQDQ01+000003PRSWM1
0120471034999992000010505004+37700+125700FM-15+0091RKSQ V0200601N003110009019N0004001N1+99999+99999999999ADDMW1001MW2611REMMET077RKSQ 0459Z 06006KT 0400 -RA 9FG003 01/00 A2998 RMK CIGW003/1RA00/ QFF1016PT6;EQDQ01+000003PRSWM1
0177471034999992000010505384+37700+125700FM-16+0091RKSQ V0200701N002610021019N0008001N1+99999+99999999999ADDGA1031+000159999GA2071+002109999GA3081+004509999GF108991999999999999999999MW1001MW2441REMMET060RKSQ 0538Z 07005KT 0800 FG 3FG/// BKN007 OVC015 RMK CIGE007;EQDQ01+000003PRSWM1
0269471034999992000010506004+37700+125700FM-15+0091RKSQ V0201001N005110021019N0012001N1+00101+00101999999ADDGA1031+000159999GA2071+002109999GA3071+004509999GA4081+009009999GF108991999999999999999999MA1101421999999MW1101REMMET111RKSQ 0559Z 10010KT 1200 BR 3FG/// BKN007 BKN015 OVC030 01/01 A2995 RMK CIGE007/1RA00/6RASN09/90402/ QFF1015PT6;EQDQ01+000003PRSWM1Q02    003PRSWM1
0159471034999992000010506354+37700+125700FM-16+0091RKSQ V0200701N004619999999N0016001N1+99999+99999999999ADDGA1031+000159999GF103991999999999999999999MW1001MW2101REMMET058RKSQ 0635Z 07009KT 1600 BR 3FG/// 007 015 030 RMK CIGE015;EQDQ01+000003PRSWM1Q02 004503SCOCIG
0226471034999992000010507004+37700+125700FM-15+0091RKSQ V0201101N004110045019N0016001N1+00101+00101999999ADDGA1031+000159999GA2071+004509999GA3081+009009999GF108991999999999999999999MA1101521999999MW1101REMMET084RKSQ 0659Z 11008KT 1600 BR 3FG/// BKN015 OVC030 01/01 A2998 RMK CIGE015/ QFF1016PT6;EQDQ01+000003PRSWM1Q02    003PRSWM1
0226471034999992000010508004+37700+125700FM-15+0091RKSQ V0200801N003110045019N0016001N1+00201+00101999999ADDGA1031+000159999GA2071+004509999GA3081+009009999GF108991999999999999999999MA1101461999999MW1101REMMET084RKSQ 0759Z 08006KT 1600 BR 3FG/// BKN015 OVC030 02/01 A2996 RMK CIGE015/ QFF1015PT9;EQDQ01+000003PRSWM1Q02    003PRSWM1
0226471034999992000010509004+37700+125700FM-15+0091RKSQ V0201601N004610045019N0016001N1+00201+00101999999ADDGA1031+000159999GA2071+004509999GA3081+009009999GF108991999999999999999999MA1101521999999MW1101REMMET084RKSQ 0859Z 16009KT 1600 BR 3FG/// BKN015 OVC030 02/01 A2998 RMK CIGE015/ QFF1016PT6;EQDQ01+000003PRSWM1Q02    003PRSWM1
0178471034999992000010509084+37700+125700FM-16+0091RKSQ V0200701N003110045019N0016001N1+99999+99999999999ADDGA1031+000159999GA2071+004509999GA3081+009009999GF108991999999999999999999MW1001MW2611REMMET061RKSQ 0908Z 07006KT 1600 -RA 3FG/// BKN015 OVC030 RMK CIGE015;EQDQ01+000003PRSWM1
0233471034999992000010510004+37700+125700FM-15+0091RKSQ V0200501N004110045019N0016001N1+00101+00101999999ADDGA1031+000159999GA2071+004509999GA3081+009009999GF108991999999999999999999MA1101521999999MW1611REMMET091RKSQ 0959Z 05008KT 1600 -RA 3FG/// BKN015 OVC030 01/01 A2998 RMK CIGE015/1RA07/ QFF1016PT5;EQDQ01+000003PRSWM1Q02    003PRSWM1
0233471034999992000010511004+37700+125700FM-15+0091RKSQ V0200801N002110045019N0016001N1+00201+00201999999ADDGA1031+000159999GA2071+004509999GA3081+009009999GF108991999999999999999999MA1101491999999MW1611REMMET091RKSQ 1059Z 08004KT 1600 -RA 3FG/// BKN015 OVC030 02/02 A2997 RMK CIGE015/1RA07/ QFF1016PT2;EQDQ01+000003PRSWM1Q02    003PRSWM1
0178471034999992000010511154+37700+125700FM-16+0091RKSQ V0200701N004610045019N0012001N1+99999+99999999999ADDGA1031+000159999GA2021+001809999GA3081+004509999GF108991999999999999999999MW1001MW2611REMMET061RKSQ 1115Z 07009KT 1200 -RA 3FG/// FEW006 OVC015 RMK CIGE015;EQDQ01+000003PRSWM1
0178471034999992000010511404+37700+125700FM-16+0091RKSQ V0200501N004110018019N0008001N1+99999+99999999999ADDGA1031+000159999GA2071+001809999GA3081+004509999GF108991999999999999999999MW1001MW2611REMMET061RKSQ 1140Z 05008KT 0800 -RA 3FG/// BKN006 OVC015 RMK CIGE006;EQDQ01+000003PRSWM1
0239471034999992000010512004+37700+125700FM-15+0091RKSQ V0200601N005110018019N0008001N1+00201+00101999999ADDGA1031+000159999GA2071+001809999GA3081+004509999GF108991999999999999999999MA1101461999999MW1611REMMET097RKSQ 1159Z 06010KT 0800 -RA 3FG/// BKN006 OVC015 02/01 A2996 RMK CIGE006/1RA03/6RA17/ QFF1015PT8;EQDQ01+000003PRSWM1Q02    003PRSWM1
0090471034999992000010512254+37700+125700FM-16+0091RKSQ V0201201N002110012019N0004001N1+99999+99999999999ADDMW1001MW2611REMMET047RKSQ 1225Z 12004KT 0400 -RA 9FG004 RMK CIGW004;EQDQ01+000003PRSWM1
0120471034999992000010513004+37700+125700FM-15+0091RKSQ V0200801N001510012019N0004001N1+99999+99999999999ADDMW1001MW2611REMMET077RKSQ 1259Z 08003KT 0400 -RA 9FG004 02/02 A2994 RMK CIGW004/1RA02/ QFF1015PT1;EQDQ01+000003PRSWM1
0090471034999992000010513454+37700+125700FM-16+0091RKSQ V0200901N002610012019N0004001N1+99999+99999999999ADDMW1001MW2441REMMET047RKSQ 1345Z 09005KT 0400 FG 9FG004 RMK CIGW004/;EQDQ01+000003PRSWM1
0119471034999992000010514004+37700+125700FM-15+0091RKSQ V0201101N004110012019N0004001N1+99999+99999999999ADDMW1001MW2441REMMET076RKSQ 1359Z 11008KT 0400 FG 9FG004 02/02 A2992 RMK CIGW004/1RA02/ QFF1014PT1;EQDQ01+000003PRSWM1
0090471034999992000010514384+37700+125700FM-16+0091RKSQ V0201201N004610012019N0004001N1+99999+99999999999ADDMW1001MW2611REMMET047RKSQ 1438Z 12009KT 0400 -RA 9FG004 RMK CIGW004;EQDQ01+000003PRSWM1
0125471034999992000010514594+37700+125700FM-16+0091RKSQ V0200701N005110012019N0004001N1+99999+99999999999ADDMW1001MW2611REMMET082RKSQ 1459Z 07010KT 0400 -RA 9FG004 02/02 A2991 RMK CIGW004/1RA02/20058 QFF1013PT8;EQDQ01+000003PRSWM1
0119471034999992000010516004+37700+125700FM-15+0091RKSQ V0200401N004110012019N0004001N1+99999+99999999999ADDMW1001MW2631REMMET076RKSQ 1559Z 04008KT 0400 RA 9FG004 02/02 A2990 RMK CIGW004/1RA12/ QFF1013PT5;EQDQ01+000003PRSWM1
0120471034999992000010517004+37700+125700FM-15+0091RKSQ V0200501N004610012019N0004001N1+99999+99999999999ADDMW1001MW2611REMMET077RKSQ 1659Z 05009KT 0400 -RA 9FG004 02/02 A2988 RMK CIGW004/1RA06/ QFF1012PT8;EQDQ01+000003PRSWM1
0120471034999992000010519004+37700+125700FM-15+0091RKSQ V0203201N002610012019N0004001N1+99999+99999999999ADDMW1001MW2611REMMET077RKSQ 1859Z 32005KT 0400 -RA 9FG004 03/03 A2990 RMK CIGW004/1RA01/ QFF1013PT5;EQDQ01+000003PRSWM1
0177471034999992000010519434+37700+125700FM-16+0091RKSQ V0203101N002110018019N0012001N1+99999+99999999999ADDGA1031+000159999GA2071+001809999GA3081+004509999GF108991999999999999999999MW1001MW2101REMMET060RKSQ 1943Z 31004KT 1200 BR 3FG/// BKN006 OVC015 RMK CIGE006;EQDQ01+000003PRSWM1
0226471034999992000010521004+37700+125700FM-15+0091RKSQ V0202901N003110018019N0012001N1+00301+00301999999ADDGA1031+000159999GA2071+001809999GA3081+004509999GF108991999999999999999999MA1101191999999MW1101REMMET084RKSQ 2059Z 29006KT 1200 BR 3FG/// BKN006 OVC015 03/03 A2988 RMK CIGE006/ QFF1012PT8;EQDQ01+000003PRSWM1Q02    003PRSWM1
0225471034999992000010522004+37700+125700FM-15+0091RKSQ V0203001N002610018019N0012001N1+00301+00301999999ADDGA1031+000159999GA2071+001809999GA3081+004509999GF108991999999999999999999MA1101291999999MW1101REMMET083RKSQ 2159Z 30005KT 1200 BR 3FG/// BKN006 OVC015 03/03 A2991 RMK CIGW006 QFF1013PT8;EQDQ01+000003PRSWM1Q02    003PRSWM1
0202471034999992000010601004+37700+125700FM-15+0091RKSQ V0202901N003110090019N0060001N1+00201+00101999999ADDGA1021+004509999GA2081+009009999GF108991999999999999999999MA1101521999999MW1101REMMET076RKSQ 0059Z 29006KT 6000 BR SCT015 OVC030 02/01 A2998 RMK CIG030/ QFF1016PT2;EQDQ01+000003PRSWM1Q02    003PRSWM1
0202471034999992000010602004+37700+125700FM-15+0091RKSQ V0203001N002610090019N0060001N1+00301+00101999999ADDGA1021+004509999GA2081+009009999GF108991999999999999999999MA1101591999999MW1101REMMET076RKSQ 0159Z 30005KT 6000 BR SCT015 OVC030 03/01 A3000 RMK CIG030/ QFF1016PT8;EQDQ01+000003PRSWM1Q02    003PRSWM1
0202471034999992000010603004+37700+125700FM-15+0091RKSQ V0203201N004110090019N0060001N1+00301+00101999999ADDGA1021+004509999GA2081+009009999GF108991999999999999999999MA1101521999999MW1101REMMET076RKSQ 0259Z 32008KT 6000 BR SCT015 OVC030 03/01 A2998 RMK CIG030/ QFF1016PT2;EQDQ01+000003PRSWM1Q02    003PRSWM1
0202471034999992000010604004+37700+125700FM-15+0091RKSQ V0202701N005110090019N0060001N1+00201+00001999999ADDGA1021+004509999GA2071+009009999GF107991999999999999999999MA1101421999999MW1101REMMET076RKSQ 0359Z 27010KT 6000 BR SCT015 BKN030 02/00 A2995 RMK CIG030/ QFF1015PT8;EQDQ01+000003PRSWM1Q02    003PRSWM1
0216471034999992000010605004+37700+125700FM-15+0091RKSQ V0202901N007710090019N0060001N1-00101-00301999999ADDGA1021+004509999GA2081+009009999GF108991999999999999999999MA1101561999999MW1101OC101291REMMET082RKSQ 0459Z 29015G025KT 6000 BR FEW015 OVC030 M01/M03 A2999 RMK CIG030/ QFF1016PT5;EQDQ01+000003PRSWM1Q02    003PRSWM1
0216471034999992000010606004+37700+125700FM-15+0091RKSQ V0203201N005110090019N0060001N1-00101-00401999999ADDGA1021+004509999GA2081+009009999GF108991999999999999999999MA1101631999999MW1101OC101231REMMET082RKSQ 0559Z 32010G024KT 6000 BR FEW015 OVC030 M01/M04 A3001 RMK CIG030/ QFF1017PT2;EQDQ01+000003PRSWM1Q02    003PRSWM1
0197471034999992000010607004+37700+125700FM-15+0091RKSQ V0203001N006210090019N0112651N1-00101-00701999999ADDGA1071+009009999GA2071+060009999GF107991999999999999999999MA1101731999999MW1001OC101131REMMET079RKSQ 0659Z 30012G022KT 9999 BKN030 BKN200 M01/M07 A3004 RMK CIG030/ QFF1018PT3;EQDQ01+000000PRSWM2
0173471034999992000010608004+37700+125700FM-15+0091RKSQ V0203301N005112200019N0060001N1-00201-00801999999ADDGA1021+009009999GF104991999999999999999999MA1101801999999MW1101REMMET063RKSQ 0759Z 33010KT 6000 BR SCT030 M02/M08 A3006 RMK QFF1019PT3;EQDQ01+000003PRSWM1Q02    003PRSWM1
0185471034999992000010609004+37700+125700FM-15+0091RKSQ V0203501N005712200019N0060001N1-00201-00701999999ADDGA1021+009009999GF104991999999999999999999MA1101861999999MW1101OC101131REMMET067RKSQ 0859Z 35011G022KT 6000 BR SCT030 M02/M07 A3008 RMK QFF1020PT1;EQDQ01+000003PRSWM1Q02    003PRSWM1
0193471034999992000010610004+37700+125700FM-15+0091RKSQ V0203301N003610090019N0060001N1-00401-00901999999ADDGA1071+009009999GF107991999999999999999999MA1101961999999MW1101OC100871REMMET075RKSQ 0959Z 33007G017KT 6000 BR BKN030 M04/M09 A3011 RMK CIG030/ QFF1021PT2;EQDQ01+000003PRSWM1Q02    003PRSWM1
0181471034999992000010611004+37700+125700FM-15+0091RKSQ V0203201N006210090019N0060001N1-00401-00701999999ADDGA1071+009009999GF107991999999999999999999MA1102031999999MW1101REMMET071RKSQ 1059Z 32012KT 6000 BR BKN030 M04/M07 A3013 RMK CIG030/ QFF1021PT6;EQDQ01+000003PRSWM1Q02    003PRSWM1
0189471034999992000010611084+37700+125700FM-16+0091RKSQ V0203001N003110090019N0048001N1+99999+99999999999ADDGA1011+000159999GA2021+004509999GA3081+009009999GF108991999999999999999999MW1001MW2711OC100821REMMET064RKSQ 1108Z 30006G016KT 4800 -SN 1SN/// FEW015 OVC030 RMK CIG030;EQDQ01+000003PRSWM1
0205471034999992000010612004+37700+125700FM-15+0091RKSQ V0203401N002610090019N0060001N1-00401-00701999999ADDGA1071+009009999GF107991999999999999999999MA1101961999999MW1101OC100771REMMET087RKSQ 1159Z 34005G015KT 6000 BR BKN030 M04/M07 A3011 RMK CIG030/1SN00/6SN00/ QFF1021PT2;EQDQ01+000003PRSWM1Q02    003PRSWM1
0143471034999992000010613164+37700+125700FM-16+0091RKSQ V0202801N005110090019N0060001N1+99999+99999999999ADDGA1071+009009999GF107991999999999999999999MW1001MW2711OC101181REMMET050RKSQ 1316Z 28010G023KT 6000 -SN BKN030 RMK CIG030;EQDQ01+000003PRSWM1
0240471034999992000010614004+37700+125700FM-15+0091RKSQ V0203001N003610090019N0048001N1-00501-00801999999ADDGA1011+000159999GA2021+004509999GA3081+009009999GF108991999999999999999999MA1101961999999MW1711OC100871REMMET090RKSQ 1359Z 30007G017KT 4800 -SN 1SN/// FEW015 OVC030 M05/M08 A3011 RMK CIG030/ QFF1021PT2;EQDQ01+000003PRSWM1Q02    003PRSWM1
0142471034999992000010614354+37700+125700FM-16+0091RKSQ V0202801N004610090019N0060001N1+99999+99999999999ADDGA1071+009009999GF107991999999999999999999MW1001MW2101OC101031REMMET049RKSQ 1435Z 28009G020KT 6000 BR BKN030 RMK CIG030;EQDQ01+000003PRSWM1
0205471034999992000010615004+37700+125700FM-15+0091RKSQ V0203201N005110090019N0060001N1-00601-00701999999ADDGA1071+009009999GF107991999999999999999999MA1102071999999MW1101OC101231REMMET087RKSQ 1459Z 32010G024KT 6000 BR BKN030 M06/M07 A3014 RMK CIG030/1SN00/20025/ QFF1021PT9;EQDQ01+000003PRSWM1Q02    003PRSWM1
0143471034999992000010615074+37700+125700FM-16+0091RKSQ V0203301N005110090019N0060001N1+99999+99999999999ADDGA1071+009009999GF107991999999999999999999MW1001MW2711OC101081REMMET050RKSQ 1507Z 33010G021KT 6000 -SN BKN030 RMK CIG030;EQDQ01+000003PRSWM1
0124471034999992000010615414+37700+125700FM-16+0091RKSQ V0203501N006212200019N0060001N1+99999+99999999999ADDGA1021+009009999GF104991999999999999999999MW1001MW2101REMMET039RKSQ 1541Z 35012KT 6000 BR SCT030 RMK ;EQDQ01+000003PRSWM1
0199471034999992000010616004+37700+125700FM-15+0091RKSQ V0203401N004110090019N0060001N1-00801-01001999999ADDGA1071+009009999GF107991999999999999999999MA1102131999999MW1101OC100981REMMET081RKSQ 1559Z 34008G019KT 6000 BR BKN030 M08/M10 A3016 RMK CIG030/1SN00/ QFF1022PT6;EQDQ01+000003PRSWM1Q02    003PRSWM1
0143471034999992000010616154+37700+125700FM-16+0091RKSQ V0203201N005110090019N0060001N1+99999+99999999999ADDGA1071+009009999GF107991999999999999999999MW1001MW2711OC101031REMMET050RKSQ 1615Z 32010G020KT 6000 -SN BKN030 RMK CIG030;EQDQ01+000003PRSWM1
0142471034999992000010616354+37700+125700FM-16+0091RKSQ V0203501N003110090019N0060001N1+99999+99999999999ADDGA1071+009009999GF107991999999999999999999MW1001MW2101OC100821REMMET049RKSQ 1635Z 35006G016KT 6000 BR BKN030 RMK CIG030;EQDQ01+000003PRSWM1
0199471034999992000010617004+37700+125700FM-15+0091RKSQ V0203301N004110090019N0060001N1-00901-01201999999ADDGA1071+009009999GF107991999999999999999999MA1102201999999MW1101OC100931REMMET081RKSQ 1659Z 33008G018KT 6000 BR BKN030 M09/M12 A3018 RMK CIG030/1SN00/ QFF1023PT4;EQDQ01+000003PRSWM1Q02    003PRSWM1
0192471034999992000010618004+37700+125700FM-15+0091RKSQ V0203101N004612200019N0060001N1-01001-01201999999ADDGA1021+009009999GF104991999999999999999999MA1102271999999MW1101OC101081REMMET074RKSQ 1759Z 31009G021KT 6000 BR SCT030 M10/M12 A3020 RMK 6SN00/ QFF1024PT0;EQDQ01+000003PRSWM1Q02    003PRSWM1
0143471034999992000010619504+37700+125700FM-16+0091RKSQ V0200201N003610090019N0060001N1+99999+99999999999ADDGA1071+009009999GF107991999999999999999999MW1001MW2711OC100981REMMET050RKSQ 1950Z 02007G019KT 6000 -SN BKN030 RMK CIG030;EQDQ01+000003PRSWM1
0200471034999992000010620004+37700+125700FM-15+0091RKSQ V0200301N003110090019N0060001N1-01101-01301999999ADDGA1071+009009999GF107991999999999999999999MA1102301999999MW1711OC100871REMMET082RKSQ 1959Z 03006G017KT 6000 -SN BKN030 M11/M13 A3021 RMK CIG030/1SN00/ QFF1024PT4;EQDQ01+000003PRSWM1Q02    003PRSWM1
0223471034999992000010621004+37700+125700FM-15+0091RKSQ V0203501N003610090019N0048001N1-01101-01301999999ADDGA1011+000159999GA2071+009009999GF107991999999999999999999MA1102341999999MW1711OC100931REMMET089RKSQ 2059Z 35007G018KT 4800 -SN 1FG/// BKN030 M11/M13 A3022 RMK CIG030/1SN01/ QFF1024PT7;EQDQ01+000003PRSWM1Q02    003PRSWM1
0215471034999992000010622004+37700+125700FM-15+0091RKSQ V0200301N004112200019N0048001N1-01101-01301999999ADDGA1011+000159999GA2021+009009999GF104991999999999999999999MA1102401999999MW1101OC100931REMMET081RKSQ 2159Z 03008G018KT 4800 BR 1FG/// SCT030 M11/M13 A3024 RMK 1SN01/ QFF1025PT4;EQDQ01+000003PRSWM1Q02    003PRSWM1
0223471034999992000010623004+37700+125700FM-15+0091RKSQ V0200301N003610090019N0048001N1-01101-01301999999ADDGA1011+000159999GA2071+009009999GF107991999999999999999999MA1102471999999MW1711OC100981REMMET089RKSQ 2259Z 03007G019KT 4800 -SN 1FG/// BKN030 M11/M13 A3026 RMK CIG030/1SN01/ QFF1026PT1;EQDQ01+000003PRSWM1Q02    003PRSWM1
0154471034999992000010623164+37700+125700FM-16+0091RKSQ V0200601N005110090019N0040001N1+99999+99999999999ADDGA1011+000159999GA2071+009009999GF107991999999999999999999MW1001MW2711REMMET053RKSQ 2316Z 06010KT 4000 -SN 1FG/// BKN030 RMK CIG030;EQDQ01+000003PRSWM1
0217471034999992000010700004+37700+125700FM-15+0091RKSQ V0201201N002110090019N0040001N1-01101-01401999999ADDGA1011+000159999GA2071+009009999GF107991999999999999999999MA1102541999999MW1711REMMET091RKSQ 2359Z 12004KT 4000 -SN 1FG/// BKN030 M11/M14 A3028 RMK CIG030/1SN00/6SN02/ QFF1026PT8;EQDQ01+000003PRSWM1Q02    003PRSWM1
0147471034999992000010700444+37700+125700FM-16+0091RKSQ V0200601N002612200019N0048001N1+99999+99999999999ADDGA1011+000159999GA2021+009009999GF104991999999999999999999MW1001MW2101REMMET046RKSQ 0044Z 06005KT 4800 BR 1FG/// SCT030 RMK ;EQDQ01+000003PRSWM1
0203471034999992000010701004+37700+125700FM-15+0091RKSQ V0200701N001512200019N0048001N1-01101-01301999999ADDGA1011+000159999GA2021+009009999GF104991999999999999999999MA1102541999999MW1101REMMET077RKSQ 0059Z 07003KT 4800 BR 1FG/// SCT030 M11/M13 A3028 RMK 1SN00/ QFF1026PT8;EQDQ01+000003PRSWM1Q02    003PRSWM1
0154471034999992000010701264+37700+125700FM-16+0091RKSQ V0200601N001510090019N0048001N1+99999+99999999999ADDGA1011+000159999GA2071+009009999GF107991999999999999999999MW1001MW2711REMMET053RKSQ 0126Z 06003KT 4800 -SN 1FG/// BKN030 RMK CIG030;EQDQ01+000003PRSWM1
0211471034999992000010702004+37700+125700FM-15+0091RKSQ V0200901N001010090019N0048001N1-01001-01201999999ADDGA1011+000159999GA2071+009009999GF107991999999999999999999MA1102571999999MW1711REMMET085RKSQ 0159Z 09002KT 4800 -SN 1FG/// BKN030 M10/M12 A3029 RMK CIG030/1SN00/ QFF1027PT1;EQDQ01+000003PRSWM1Q02    003PRSWM1
0204471034999992000010703004+37700+125700FM-15+0091RKSQ V0200801N001012200019N0048001N1-00901-01101999999ADDGA1011+000159999GA2021+009009999GF104991999999999999999999MA1102541999999MW1711REMMET078RKSQ 0259Z 08002KT 4800 -SN 1FG/// SCT030 M09/M11 A3028 RMK 1SN00/ QFF1026PT8;EQDQ01+000003PRSWM1Q02    003PRSWM1
0204471034999992000010704004+37700+125700FM-15+0091RKSQ V0203001N001012200019N0048001N1-00801-00901999999ADDGA1011+000159999GA2021+009009999GF104991999999999999999999MA1102401999999MW1711REMMET078RKSQ 0359Z 30002KT 4800 -SN 1FG/// SCT030 M08/M09 A3024 RMK 1SN00/ QFF1025PT4;EQDQ01+000003PRSWM1Q02    003PRSWM1
0204471034999992000010704594+37700+125700FM-15+0091RKSQ V0203601N001512200019N0048001N1-00601-00901999999ADDGA1011+000159999GA2021+009009999GF104991999999999999999999MA1102341999999MW1711REMMET078RKSQ 0459Z 36003KT 4800 -SN 1FG/// SCT030 M06/M09 A3022 RMK 1SN00/ QFF1024PT7;EQDQ01+000003PRSWM1Q02    003PRSWM1
0217471034999992000010706004+37700+125700FM-15+0091RKSQ V0200201N002110090019N0048001N1-00701-00901999999ADDGA1011+000159999GA2071+009009999GF107991999999999999999999MA1102271999999MW1711REMMET091RKSQ 0559Z 02004KT 4800 -SN 1FG/// BKN030 M07/M09 A3020 RMK CIG030/1SN00/6SN00/ QFF1024PT0;EQDQ01+000003PRSWM1Q02    003PRSWM1
0154471034999992000010706374+37700+125700FM-16+0091RKSQ V0201001N001010090019N0040001N1+99999+99999999999ADDGA1011+000159999GA2071+009009999GF107991999999999999999999MW1001MW2711REMMET053RKSQ 0637Z 10002KT 4000 -SN 1FG/// BKN030 RMK CIG030;EQDQ01+000003PRSWM1
0211471034999992000010707004+37700+125700FM-15+0091RKSQ V0200901N000510090019N0040001N1-00801-01001999999ADDGA1011+000159999GA2071+009009999GF107991999999999999999999MA1102271999999MW1711REMMET085RKSQ 0659Z 09001KT 4000 -SN 1FG/// BKN030 M08/M10 A3020 RMK CIG030/1SN00/ QFF1024PT0;EQDQ01+000003PRSWM1Q02    003PRSWM1
0211471034999992000010708004+37700+125700FM-15+0091RKSQ V0200801N000510090019N0040001N1-00801-00901999999ADDGA1011+000159999GA2071+009009999GF107991999999999999999999MA1102271999999MW1711REMMET085RKSQ 0759Z 08001KT 4000 -SN 1FG/// BKN030 M08/M09 A3020 RMK CIG030/1SN02/ QFF1024PT0;EQDQ01+000003PRSWM1Q02    003PRSWM1
0177471034999992000010708404+37700+125700FM-16+0091RKSQ V0201201N000510090019N0040001N1+99999+99999999999ADDGA1021+000159999GA2021+004509999GA3081+009009999GF108991999999999999999999MW1001MW2711REMMET060RKSQ 0840Z 12001KT 4000 -SN 2SN/// FEW015 OVC030 RMK CIG030;EQDQ01+000003PRSWM1
0234471034999992000010709004+37700+125700FM-15+0091RKSQ V0200801N000510090019N0024001N1-00801-00901999999ADDGA1021+000159999GA2021+004509999GA3071+009009999GF107991999999999999999999MA1102241999999MW1711REMMET092RKSQ 0859Z 08001KT 2400 -SN 2SN/// FEW015 BKN030 M08/M09 A3019 RMK CIG030/1SN03/ QFF1023PT7;EQDQ01+000003PRSWM1Q02    003PRSWM1
0234471034999992000010710004+37700+125700FM-15+0091RKSQ V0201901N000510090019N0024001N1-00801-00901999999ADDGA1021+000159999GA2021+004509999GA3071+009009999GF107991999999999999999999MA1102241999999MW1711REMMET092RKSQ 0959Z 19001KT 2400 -SN 2SN/// FEW015 BKN030 M08/M09 A3019 RMK CIG030/1SN01/ QFF1023PT7;EQDQ01+000003PRSWM1Q02    003PRSWM1
0155471034999992000010710164+37700+125700FM-16+0091RKSQ V0202101N001010090019N0032001N1+99999+99999999999ADDGA1021+000159999GA2071+009009999GF107991999999999999999999MW1001MW2711REMMET054RKSQ 1016Z 21002KT 3200 -SN 2FG/// BKN030 RMK CIG030/;EQDQ01+000003PRSWM1
0205471034999992000010711004+37700+125700FM-15+0091RKSQ V0201701N000510090019N0040001N1-00701-00801999999ADDGA1011+000159999GA2071+009009999GF107991999999999999999999MA1102241999999MW1711REMMET079RKSQ 1059Z 17001KT 4000 -SN 1FG/// BKN030 M07/M08 A3019 RMK CIG030/ QFF1023PT7;EQDQ01+000003PRSWM1Q02    003PRSWM1
0223471034999992000010712004+37700+125700FM-15+0091RKSQ V0201201N000510090019N0040001N1-00701-00801999999ADDGA1011+000159999GA2071+009009999GF107991999999999999999999MA1102201999999MW1711REMMET097RKSQ 1159Z 12001KT 4000 -SN 1FG/// BKN030 M07/M08 A3018 RMK CIG030/1SN00/6SN06/90401/ QFF1023PT4;EQDQ01+000003PRSWM1Q02    003PRSWM1
0211471034999992000010713004+37700+125700FM-15+0091RKSQ V0201701N000510090019N0040001N1-00501-00601999999ADDGA1011+000159999GA2081+009009999GF108991999999999999999999MA1102201999999MW1711REMMET085RKSQ 1259Z 17001KT 4000 -SN 1FG/// OVC030 M05/M06 A3018 RMK CIG030/1SN01/ QFF1023PT4;EQDQ01+000003PRSWM1Q02    003PRSWM1
0223471034999992000010714004+37700+125700FM-15+0091RKSQ V0201201N000510090019N0040001N1-00701-00801999999ADDGA1011+000159999GA2071+009009999GF107991999999999999999999MA1102201999999MW1711REMMET097RKSQ 1359Z 12001KT 4000 -SN 1FG/// BKN030 M07/M08 A3018 RMK CIG030/1SN00/6SN06/90401/ QFF1023PT4;EQDQ01+000003PRSWM1Q02    003PRSWM1
0153471034999992000010714174+37700+125700FM-16+0091RKSQ V0200301N000510090019N0032001N1+99999+99999999999ADDGA1021+000159999GA2071+009009999GF107991999999999999999999MW1001MW2101REMMET052RKSQ 1417Z 03001KT 3200 BR 2FG/// BKN030 RMK CIG030;EQDQ01+000003PRSWM1
0239471034999992000010715004+37700+125700FM-15+0091RKSQ V0200501N000510090019N0032001N1-00501-00601999999ADDGA1021+000159999GA2021+004509999GA3071+009009999GF107991999999999999999999MA1102201999999MW1101REMMET097RKSQ 1459Z 05001KT 3200 BR 2FG/// FEW015 BKN030 M05/M06 A3018 RMK CIG030/1SN00/20014/ QFF1023PT4;EQDQ01+000003PRSWM1Q02    003PRSWM1
0154471034999992000010715074+37700+125700FM-16+0091RKSQ V0200301N000510090019N0032001N1+99999+99999999999ADDGA1021+000159999GA2071+009009999GF107991999999999999999999MW1001MW2711REMMET053RKSQ 1507Z 03001KT 3200 -SN 2FG/// BKN030 RMK CIG030;EQDQ01+000003PRSWM1
0234471034999992000010716004+37700+125700FM-15+0091RKSQ V0203401N001010090019N0032001N1-00601-00701999999ADDGA1021+000159999GA2021+004509999GA3071+009009999GF107991999999999999999999MA1102201999999MW1711REMMET092RKSQ 1559Z 34002KT 3200 -SN 2FG/// FEW015 BKN030 M06/M07 A3018 RMK CIG030/1SN02/ QFF1023PT4;EQDQ01+000003PRSWM1Q02    003PRSWM1
0211471034999992000010717004+37700+125700FM-15+0091RKSQ V0203501N000510090019N0040001N1-00601-00701999999ADDGA1011+000159999GA2071+009009999GF107991999999999999999999MA1102171999999MW1711REMMET085RKSQ 1659Z 35001KT 4000 -SN 1FG/// BKN030 M06/M07 A3017 RMK CIG030/1SN02/ QFF1023PT0;EQDQ01+000003PRSWM1Q02    003PRSWM1
0223471034999992000010717594+37700+125700FM-15+0091RKSQ V0201001N001510090019N0040001N1-00501-00601999999ADDGA1011+000159999GA2081+009009999GF108991999999999999999999MA1102171999999MW1711REMMET097RKSQ 1759Z 10003KT 4000 -SN 1FG/// OVC030 M05/M06 A3017 RMK CIG030/1SN01/6SN11/90402/ QFF1023PT0;EQDQ01+000003PRSWM1Q02    003PRSWM1
0183471034999992000010718004+37700+125700FM-15+0091RKSQ V0203501N000519999999N0040001N1+99999+99999999999ADDGA1021+000159999GF102991999999999999999999MW1001MW2711REMMET082RKSQ 1659Z 35001KT 4000 -SN 2FG/// 030 M06/M07 A3017 RMK CIG030/1SN02/ QFF1023PT0;EQDQ01+000003PRSWM1Q02 009003SCOCIG
0211471034999992000010719004+37700+125700FM-15+0091RKSQ V0202901N001510090019N0040001N1-00501-00501999999ADDGA1011+000159999GA2081+009009999GF108991999999999999999999MA1102171999999MW1711REMMET085RKSQ 1859Z 29003KT 4000 -SN 1FG/// OVC030 M05/M05 A3017 RMK CIG030/1SN02/ QFF1023PT0;EQDQ01+000003PRSWM1Q02    003PRSWM1
0211471034999992000010720004+37700+125700FM-15+0091RKSQ V0203101N002610090019N0040001N1-00501-00501999999ADDGA1011+000159999GA2081+009009999GF108991999999999999999999MA1102131999999MW1711REMMET085RKSQ 1959Z 31005KT 4000 -SN 1FG/// OVC030 M05/M05 A3016 RMK CIG030/1SN05/ QFF1022PT7;EQDQ01+000003PRSWM1Q02    003PRSWM1
0211471034999992000010720594+37700+125700FM-15+0091RKSQ V0203101N003610090019N0032001N1-00501-00501999999ADDGA1021+000159999GA2081+009009999GF108991999999999999999999MA1102171999999MW1711REMMET085RKSQ 2059Z 31007KT 3200 -SN 2FG/// OVC030 M05/M05 A3017 RMK CIG030/1SN05/ QFF1023PT0;EQDQ01+000003PRSWM1Q02    003PRSWM1
0211471034999992000010722004+37700+125700FM-15+0091RKSQ V0203501N002610090019N0032001N1-00501-00501999999ADDGA1021+000159999GA2081+009009999GF108991999999999999999999MA1102171999999MW1711REMMET085RKSQ 2159Z 35005KT 3200 -SN 2FG/// OVC030 M05/M05 A3017 RMK CIG030/1SN05/ QFF1023PT0;EQDQ01+000003PRSWM1Q02    003PRSWM1
0234471034999992000010723004+37700+125700FM-15+0091RKSQ V0200401N000510090019N0040001N1-00501-00501999999ADDGA1021+000159999GA2021+004509999GA3071+009009999GF107991999999999999999999MA1102201999999MW1711REMMET092RKSQ 2259Z 04001KT 4000 -SN 2FG/// SCT015 BKN030 M05/M05 A3018 RMK CIG030/1SN01/ QFF1023PT4;EQDQ01+000003PRSWM1Q02    003PRSWM1
0188471034999992000010723264+37700+125700FM-16+0091RKSQ V0200601N002110045019N0024001N1+99999+99999999999ADDGA1021+000159999GA2071+004509999GA3081+009009999GF108991999999999999999999MW1001MW2711REMMET071RKSQ 2326Z 06004KT 2400 -SN 2SN/// BKN015 OVC030 RMK CIGE015/SNFEW000/;EQDQ01+000003PRSWM1
0202471034999992000010723384+37700+125700FM-16+0091RKSQ V0200301N003110045019N0014001N1+99999+99999999999ADDGA1021+000159999GA2021+001809999GA3071+004509999GA4081+009009999GF108991999999999999999999MW1001MW2711REMMET069RKSQ 2338Z 03006KT 1400 -SN 2SN/// SCT006 BKN015 OVC030 RMK CIGE015/;EQDQ01+000003PRSWM1
0247471034999992000010800004+37700+125700FM-15+0091RKSQ V0200301N002110018019N0008001N1-00501-00501999999ADDGA1031+000159999GA2071+001809999GA3081+004509999GF108991999999999999999999MA1102241999999MW1711REMMET105RKSQ 2359Z 03004KT 0800 -SN 3SN/// BKN006 OVC015 M05/M05 A3019 RMK CIGE006/1SN04/6SN22/90403/ QFF1023PT7;EQDQ01+000003PRSWM1Q02    003PRSWM1
0211471034999992000010800294+37700+125700FM-16+0091RKSQ V0203001N002110045019N0016001N1+99999+99999999999ADDGA1021+000159999GA2021+001809999GA3071+004509999GA4081+009009999GF108991999999999999999999MW1001MW2711REMMET078RKSQ 0029Z 30004KT 1600 -SN 2SN/// SCT006 BKN015 OVC030 RMK CIGE015/SNFEW000/;EQDQ01+000003PRSWM1
0187471034999992000010800414+37700+125700FM-16+0091RKSQ V0200401N002110090019N0040001N1+99999+99999999999ADDGA1021+000159999GA2021+004509999GA3071+009009999GF107991999999999999999999MW1001MW2711REMMET070RKSQ 0041Z 04004KT 4000 -SN 2FG/// SCT015 BKN030 RMK CIG030/FGFEW000/;EQDQ01+000003PRSWM1
0234471034999992000010801004+37700+125700FM-15+0091RKSQ V0200601N001010090019N0040001N1-00401-00501999999ADDGA1011+000159999GA2021+004509999GA3071+009009999GF107991999999999999999999MA1102301999999MW1711REMMET092RKSQ 0059Z 06002KT 4000 -SN 1FG/// SCT015 BKN030 M04/M05 A3021 RMK CIG030/1SN03/ QFF1024PT4;EQDQ01+000003PRSWM1Q02    003PRSWM1
0180471034999992000010802004+37700+125700FM-15+0091RKSQ V0200201N001512200019N0060001N1-00301-00401999999ADDGA1021+009009999GF104991999999999999999999MA1102371999999MW1101REMMET070RKSQ 0159Z 02003KT 6000 BR SCT030 M03/M04 A3023 RMK 1SN00/ QFF1025PT1;EQDQ01+000003PRSWM1Q02    003PRSWM1
0173471034999992000010802594+37700+125700FM-15+0091RKSQ V0200101N002612200019N0090001N1-00101-00301999999ADDGA1021+009009999GF102991999999999999999999MA1102301999999MW1101REMMET063RKSQ 0259Z 01005KT 9000 BR FEW030 M01/M03 A3021 RMK QFF1024PT4;EQDQ01+000003PRSWM1Q02    003PRSWM1
0114471034999992000010804004+37700+125700FM-15+0091RKSQ V0200401N002112200019N0090001N1+99999+99999999999ADDMA1102271999999MW1001MW2101REMMET056RKSQ 0359Z 04004KT 9000 BR M00/M05 A3020 RMK QFF1024PT0;EQDQ01+000003PRSWM1
0172471034999992000010805004+37700+125700FM-15+0091RKSQ V0203601N001512200019N0090001N1+00001-00401999999ADDGA1021+009009999GF102991999999999999999999MA1102241999999MW1101REMMET062RKSQ 0459Z 36003KT 9000 BR FEW030 00/M04 A3019 RMK QFF1023PT7;EQDQ01+000003PRSWM1Q02    003PRSWM1
0172471034999992000010805594+37700+125700FM-15+0091RKSQ V0203301N002612200019N0090001N1+00001-00401999999ADDGA1021+009009999GF104991999999999999999999MA1102271999999MW1101REMMET062RKSQ 0559Z 33005KT 9000 BR SCT030 00/M04 A3020 RMK QFF1024PT0;EQDQ01+000003PRSWM1Q02    003PRSWM1
0181471034999992000010807004+37700+125700FM-15+0091RKSQ V0203401N003110090019N0090001N1-00201-00501999999ADDGA1071+009009999GF107991999999999999999999MA1102301999999MW1101REMMET071RKSQ 0659Z 34006KT 9000 BR BKN030 M02/M05 A3021 RMK CIG030/ QFF1024PT4;EQDQ01+000003PRSWM1Q02    003PRSWM1
0173471034999992000010808004+37700+125700FM-15+0091RKSQ V0203501N002112200019N0090001N1-00201-00501999999ADDGA1021+009009999GF104991999999999999999999MA1102301999999MW1101REMMET063RKSQ 0759Z 35004KT 9000 BR SCT030 M02/M05 A3021 RMK QFF1024PT4;EQDQ01+000003PRSWM1Q02    003PRSWM1
0173471034999992000010808594+37700+125700FM-15+0091RKSQ V0203401N000512200019N0090001N1-00401-00701999999ADDGA1021+009009999GF102991999999999999999999MA1102341999999MW1101REMMET063RKSQ 0859Z 34001KT 9000 BR FEW030 M04/M07 A3022 RMK QFF1024PT7;EQDQ01+000003PRSWM1Q02    003PRSWM1
0173471034999992000010810004+37700+125700FM-15+0091RKSQ V0203101N001012200019N0090001N1-00501-00601999999ADDGA1021+009009999GF102991999999999999999999MA1102401999999MW1101REMMET063RKSQ 0959Z 31002KT 9000 BR FEW030 M05/M06 A3024 RMK QFF1025PT4;EQDQ01+000003PRSWM1Q02    003PRSWM1
0173471034999992000010811004+37700+125700FM-15+0091RKSQ V0200501N000512200019N0090001N1-00501-00601999999ADDGA1021+009009999GF102991999999999999999999MA1102401999999MW1101REMMET063RKSQ 1059Z 05001KT 9000 BR FEW030 M05/M06 A3024 RMK QFF1025PT4;EQDQ01+000003PRSWM1Q02    003PRSWM1
0180471034999992000010811594+37700+125700FM-15+0091RKSQ V0200701N000512200019N0090001N1-00501-00601999999ADDGA1021+009009999GF102991999999999999999999MA1102441999999MW1101REMMET070RKSQ 1159Z 07001KT 9000 BR FEW030 M05/M06 A3025 RMK 90401/ QFF1025PT7;EQDQ01+000003PRSWM1Q02    003PRSWM1
0173471034999992000010813004+37700+125700FM-15+0091RKSQ V0200601N000512200019N0090001N1-00501-00801999999ADDGA1021+009009999GF102991999999999999999999MA1102401999999MW1101REMMET063RKSQ 1259Z 06001KT 9000 BR FEW030 M05/M08 A3024 RMK QFF1025PT4;EQDQ01+000003PRSWM1Q02    003PRSWM1
0173471034999992000010814004+37700+125700FM-15+0091RKSQ V0200501N000512200019N0090001N1-00501-00801999999ADDGA1021+009009999GF102991999999999999999999MA1102401999999MW1101REMMET063RKSQ 1359Z 05001KT 9000 BR FEW030 M05/M08 A3024 RMK QFF1025PT4;EQDQ01+000003PRSWM1Q02    003PRSWM1
0180471034999992000010814594+37700+125700FM-15+0091RKSQ V0200701N000512200019N0090001N1-00501-00801999999ADDGA1021+009009999GF102991999999999999999999MA1102401999999MW1101REMMET070RKSQ 1459Z 07001KT 9000 BR FEW030 M05/M08 A3024 RMK 20030/ QFF1025PT4;EQDQ01+000003PRSWM1Q02    003PRSWM1
0173471034999992000010816004+37700+125700FM-15+0091RKSQ V0201001N000512200019N0090001N1-00501-00801999999ADDGA1021+009009999GF104991999999999999999999MA1102401999999MW1101REMMET063RKSQ 1559Z 10001KT 9000 BR SCT030 M05/M08 A3024 RMK QFF1025PT4;EQDQ01+000003PRSWM1Q02    003PRSWM1
0180471034999992000010817594+37700+125700FM-15+0091RKSQ V0201101N001010090019N0090001N1-00401-00701999999ADDGA1071+009009999GF107991999999999999999999MA1102371999999MW1101REMMET070RKSQ 1759Z 11002KT 9000 BR BKN030 M04/M07 A3023 RMK CIG030 QFF1025PT1;EQDQ01+000003PRSWM1Q02    003PRSWM1
0103471034999992000010818004+37700+125700FM-15+0091RKSQ V0200901N000512200019N0090001N1+99999+99999999999ADDMW1001MW2101REMMET060RKSQ 1659Z 09001KT 9000 BR 030 M05/M07 A3024 RMK QFF1025PT4;EQDQ01+000003PRSWM1
0181471034999992000010819004+37700+125700FM-15+0091RKSQ V0201001N003610090019N0080001N1-00401-00701999999ADDGA1071+009009999GF107991999999999999999999MA1102341999999MW1101REMMET071RKSQ 1859Z 10007KT 8000 BR BKN030 M04/M07 A3022 RMK CIG030/ QFF1024PT7;EQDQ01+000003PRSWM1Q02    003PRSWM1
0181471034999992000010820004+37700+125700FM-15+0091RKSQ V0200901N001510090019N0080001N1-00301-00601999999ADDGA1081+009009999GF108991999999999999999999MA1102341999999MW1101REMMET071RKSQ 1959Z 09003KT 8000 BR OVC030 M03/M06 A3022 RMK CIG030/ QFF1024PT7;EQDQ01+000003PRSWM1Q02    003PRSWM1
0181471034999992000010820594+37700+125700FM-15+0091RKSQ V0201301N001510090019N0090001N1-00301-00501999999ADDGA1081+009009999GF108991999999999999999999MA1102341999999MW1101REMMET071RKSQ 2059Z 13003KT 9000 BR OVC030 M03/M05 A3022 RMK CIG030/ QFF1024PT7;EQDQ01+000003PRSWM1Q02    003PRSWM1
0181471034999992000010822004+37700+125700FM-15+0091RKSQ V0200801N002110090019N0090001N1-00301-00601999999ADDGA1081+009009999GF108991999999999999999999MA1102341999999MW1101REMMET071RKSQ 2159Z 08004KT 9000 BR OVC030 M03/M06 A3022 RMK CIG030/ QFF1024PT7;EQDQ01+000003PRSWM1Q02    003PRSWM1
0181471034999992000010823004+37700+125700FM-15+0091RKSQ V0200901N001510090019N0090001N1-00301-00601999999ADDGA1081+009009999GF108991999999999999999999MA1102271999999MW1101REMMET071RKSQ 2259Z 09003KT 9000 BR OVC030 M03/M06 A3020 RMK CIG030/ QFF1024PT0;EQDQ01+000003PRSWM1Q02    003PRSWM1
0204471034999992000010823594+37700+125700FM-15+0091RKSQ V0200601N001510090019N0090001N1-00301-00601999999ADDGA1071+009009999GA2071+060009999GF107991999999999999999999MA1102271999999MW1101REMMET078RKSQ 2359Z 06003KT 9000 BR BKN030 BKN200 M03/M06 A3020 RMK CIG030/ QFF1024PT0;EQDQ01+000003PRSWM1Q02    003PRSWM1
0227471034999992000010901004+37700+125700FM-15+0091RKSQ V0200901N001010600019N0090001N1-00301-00501999999ADDGA1021+009009999GA2021+024009999GA3071+060009999GF107991999999999999999999MA1102341999999MW1101REMMET085RKSQ 0059Z 09002KT 9000 BR FEW030 SCT080 BKN200 M03/M05 A3022 RMK CIG200/ QFF1024PT7;EQDQ01+000003PRSWM1Q02    003PRSWM1
0204471034999992000010902004+37700+125700FM-15+0091RKSQ V0201201N001510600019N0090001N1-00101-00501999999ADDGA1021+009009999GA2071+060009999GF107991999999999999999999MA1102341999999MW1101REMMET078RKSQ 0159Z 12003KT 9000 BR FEW030 BKN200 M01/M05 A3022 RMK CIG200/ QFF1024PT7;EQDQ01+000003PRSWM1Q02    003PRSWM1
0181471034999992000010903004+37700+125700FM-15+0091RKSQ V0201201N000510600019N0090001N1+00001-00401999999ADDGA1071+060009999GF107991999999999999999999MA1102241999999MW1101REMMET071RKSQ 0259Z 12001KT 9000 BR BKN200 M00/M04 A3019 RMK CIG200/ QFF1023PT7;EQDQ01+000003PRSWM1Q02    003PRSWM1
0204471034999992000010905004+37700+125700FM-15+0091RKSQ V0201101N002110600019N0090001N1-00101-00501999999ADDGA1021+030009999GA2071+060009999GF107991999999999999999999MA1102131999999MW1101REMMET078RKSQ 0459Z 11004KT 9000 BR FEW100 BKN200 M01/M05 A3016 RMK CIG200/ QFF1022PT7;EQDQ01+000003PRSWM1Q02    003PRSWM1
0227471034999992000010907004+37700+125700FM-15+0091RKSQ V0200601N003610300019N0090001N1-00101-00501999999ADDGA1021+009009999GA2071+030009999GA3081+060009999GF108991999999999999999999MA1102031999999MW1101REMMET085RKSQ 0659Z 06007KT 9000 BR SCT030 BKN100 OVC200 M01/M05 A3013 RMK CIG100/ QFF1021PT7;EQDQ01+000003PRSWM1Q02    003PRSWM1
0227471034999992000010908004+37700+125700FM-15+0091RKSQ V0200301N002610300019N0090001N1-00101-00501999999ADDGA1021+009009999GA2071+030009999GA3081+060009999GF108991999999999999999999MA1102031999999MW1101REMMET085RKSQ 0759Z 03005KT 9000 BR SCT030 BKN100 OVC200 M01/M05 A3013 RMK CIG100/ QFF1021PT7;EQDQ01+000003PRSWM1Q02    003PRSWM1
0178471034999992000010908394+37700+125700FM-16+0091RKSQ V0200701N003110300019N0060001N1+99999+99999999999ADDGA1021+009009999GA2071+030009999GA3081+060009999GF108991999999999999999999MW1001MW2711REMMET061RKSQ 0839Z 07006KT 6000 -SN SCT030 BKN100 OVC200 RMK CIG100/;EQDQ01+000003PRSWM1
0234471034999992000010908594+37700+125700FM-15+0091RKSQ V0201101N002110090019N0060001N1-00201-00501999999ADDGA1071+009009999GA2071+030009999GA3081+060009999GF108991999999999999999999MA1101961999999MW1711REMMET092RKSQ 0859Z 11004KT 6000 -SN BKN030 BKN100 OVC200 M02/M05 A3011 RMK CIG030/1SN00/ QFF1021PT3;EQDQ01+000003PRSWM1Q02    003PRSWM1
0234471034999992000010910004+37700+125700FM-15+0091RKSQ V0200801N001510090019N0060001N1-00201-00401999999ADDGA1071+009009999GA2071+030009999GA3081+060009999GF108991999999999999999999MA1102071999999MW1711REMMET092RKSQ 0959Z 08003KT 6000 -SN BKN030 BKN100 OVC200 M02/M04 A3014 RMK CIG030/1SN01/ QFF1022PT0;EQDQ01+000003PRSWM1Q02    003PRSWM1
0093471034999992000010910084+37700+125700FM-16+0091RKSQ V0200901N001010300019N0060001N1+99999+99999999999ADDMW1001MW2101REMMET050RKSQ 1008Z 09002KT 6000 BR 030 100 200 RMK CIG100;EQDQ01+000003PRSWM1
0227471034999992000010911004+37700+125700FM-15+0091RKSQ V0200801N000510300019N0060001N1-00201-00401999999ADDGA1021+009009999GA2071+030009999GA3081+060009999GF108991999999999999999999MA1102071999999MW1101REMMET085RKSQ 1059Z 08001KT 6000 BR SCT030 BKN100 OVC200 M02/M04 A3014 RMK CIG100/ QFF1022PT0;EQDQ01+000003PRSWM1Q02    003PRSWM1
0233471034999992000010911594+37700+125700FM-15+0091RKSQ V0200901N000510300019N0060001N1-00201-00401999999ADDGA1021+009009999GA2071+030009999GA3081+060009999GF108991999999999999999999MA1102101999999MW1101REMMET091RKSQ 1159Z 09001KT 6000 BR SCT030 BKN100 OVC200 M02/M04 A3015 RMK CIG100/6SN01/ QFF1022PT4;EQDQ01+000003PRSWM1Q02    003PRSWM1
0227471034999992000010913004+37700+125700FM-15+0091RKSQ V0202501N000510300019N0060001N1-00101-00301999999ADDGA1021+009009999GA2071+030009999GA3081+060009999GF108991999999999999999999MA1102071999999MW1101REMMET085RKSQ 1259Z 25001KT 6000 BR SCT030 BKN100 OVC200 M01/M03 A3014 RMK CIG100/ QFF1022PT0;EQDQ01+000003PRSWM1Q02    003PRSWM1
0204471034999992000010914004+37700+125700FM-15+0091RKSQ V0201101N000510090019N0060001N1-00101-00301999999ADDGA1071+009009999GA2081+030009999GF108991999999999999999999MA1102031999999MW1101REMMET078RKSQ 1359Z 11001KT 6000 BR BKN030 OVC100 M01/M03 A3013 RMK CIG030/ QFF1021PT7;EQDQ01+000003PRSWM1Q02    003PRSWM1
0154471034999992000010914284+37700+125700FM-16+0091RKSQ V0202501N005110090019N0060001N1+99999+99999999999ADDGA1071+009009999GA2081+030009999GF108991999999999999999999MW1001MW2711REMMET053RKSQ 1428Z 25010KT 6000 -SN BKN030 OVC100 RMK CIG030;EQDQ01+000003PRSWM1
0205471034999992000010914594+37700+125700FM-15+0091RKSQ V0202201N000510090019N0060001N1+00001-00201999999ADDGA1071+009009999GA2081+030009999GF108991999999999999999999MA1102071999999MW1711REMMET079RKSQ 1459Z 22001KT 6000 -SN BKN030 OVC100 M00/M02 A3014 RMK CIG030/ QFF1022PT0;EQDQ01+000003PRSWM1Q02    003PRSWM1
0205471034999992000010916004+37700+125700FM-15+0091RKSQ V0202401N000510090019N0060001N1+00001-00201999999ADDGA1071+009009999GA2081+030009999GF108991999999999999999999MA1102031999999MW1711REMMET079RKSQ 1559Z 24001KT 6000 -SN BKN030 OVC100 M00/M02 A3013 RMK CIG030/ QFF1021PT7;EQDQ01+000003PRSWM1Q02    003PRSWM1
0153471034999992000010916384+37700+125700FM-16+0091RKSQ V0201501N001010090019N0060001N1+99999+99999999999ADDGA1071+009009999GA2071+030009999GF107991999999999999999999MW1001MW2101REMMET052RKSQ 1638Z 15002KT 6000 BR BKN030 BKN100 RMK CIG030;EQDQ01+000003PRSWM1
0210471034999992000010917004+37700+125700FM-15+0091RKSQ V0201601N001510300019N0060001N1+00001-00201999999ADDGA1021+009009999GA2071+030009999GF107991999999999999999999MA1101931999999MW1101REMMET084RKSQ 1659Z 16003KT 6000 BR SCT030 BKN100 M00/M02 A3010 RMK CIG100/1SN00/ QFF1021PT0;EQDQ01+000003PRSWM1Q02    003PRSWM1
0155471034999992000010917154+37700+125700FM-16+0091RKSQ V0202701N001510090019N0060001N1+99999+99999999999ADDGA1071+009009999GA2081+030009999GF108991999999999999999999MW1001MW2611REMMET054RKSQ 1715Z 27003KT 6000 -RA BKN030 OVC100 RMK CIG030/;EQDQ01+000003PRSWM1
0154471034999992000010917354+37700+125700FM-16+0091RKSQ V0203401N001010300019N0060001N1+99999+99999999999ADDGA1021+009009999GA2081+030009999GF108991999999999999999999MW1001MW2101REMMET053RKSQ 1735Z 34002KT 6000 BR SCT030 OVC100 RMK CIG100/;EQDQ01+000003PRSWM1
0217471034999992000010917594+37700+125700FM-15+0091RKSQ V0202901N003610300019N0060001N1+00101-00201999999ADDGA1021+009009999GA2081+030009999GF108991999999999999999999MA1102031999999MW1101REMMET091RKSQ 1759Z 29007KT 6000 BR SCT030 OVC100 01/M02 A3013 RMK CIG100/1RA00/6RASN00/ QFF1021PT7;EQDQ01+000003PRSWM1Q02    003PRSWM1
0203471034999992000010919004+37700+125700FM-15+0091RKSQ V0203101N003110300019N0060001N1+00001-00101999999ADDGA1021+009009999GA2071+030009999GF107991999999999999999999MA1102131999999MW1101REMMET077RKSQ 1859Z 31006KT 6000 BR SCT030 BKN100 00/M01 A3016 RMK CIG100/ QFF1022PT7;EQDQ01+000003PRSWM1Q02    003PRSWM1
0204471034999992000010920004+37700+125700FM-15+0091RKSQ V0203401N004110300019N0080001N1-00101-00301999999ADDGA1021+009009999GA2071+030009999GF107991999999999999999999MA1102171999999MW1101REMMET078RKSQ 1959Z 34008KT 8000 BR SCT030 BKN100 M01/M03 A3017 RMK CIG100/ QFF1023PT0;EQDQ01+000003PRSWM1Q02    003PRSWM1
0204471034999992000010921004+37700+125700FM-15+0091RKSQ V0203001N005110300019N0080001N1-00201-00401999999ADDGA1021+009009999GA2071+030009999GF107991999999999999999999MA1102271999999MW1101REMMET078RKSQ 2059Z 30010KT 8000 BR SCT030 BKN100 M02/M04 A3020 RMK CIG100/ QFF1024PT0;EQDQ01+000003PRSWM1Q02    003PRSWM1
0208471034999992000010922004+37700+125700FM-15+0091RKSQ V0203101N002612200019N0080001N1-00201-00501999999ADDGA1021+009009999GA2021+030009999GF104991999999999999999999MA1102341999999MW1101OC100771REMMET074RKSQ 2159Z 31005G015KT 8000 BR FEW030 SCT100 M02/M05 A3022 RMK QFF1024PT7;EQDQ01+000003PRSWM1Q02    003PRSWM1
0173471034999992000010923004+37700+125700FM-15+0091RKSQ V0203101N003612200019N0080001N1-00301-00601999999ADDGA1021+009009999GF102991999999999999999999MA1102401999999MW1101REMMET063RKSQ 2259Z 31007KT 8000 BR FEW030 M03/M06 A3024 RMK QFF1025PT4;EQDQ01+000003PRSWM1Q02    003PRSWM1
0114471034999992000011000004+37700+125700FM-15+0091RKSQ V0203301N003112200019N0080001N1+99999+99999999999ADDMA1102511999999MW1001MW2101REMMET056RKSQ 2359Z 33006KT 8000 BR M03/M06 A3027 RMK QFF1026PT4;EQDQ01+000003PRSWM1
0126471034999992000011002004+37700+125700FM-15+0091RKSQ V0203201N005112200019N0090001N1+99999+99999999999ADDMA1102681999999MW1001MW2101OC101031REMMET060RKSQ 0159Z 32010G020KT 9000 BR M02/M09 A3032 RMK QFF1028PT1;EQDQ01+000003PRSWM1
0105471034999992000011003004+37700+125700FM-15+0091RKSQ V0202901N006712200019N0112651N1+99999+99999999999ADDMA1102681999999MW1001REMMET053RKSQ 0259Z 29013KT 9999 M01/M09 A3032 RMK QFF1028PT1;EQDQ01+000000PRSWM2
0105471034999992000011004004+37700+125700FM-15+0091RKSQ V0203401N007212200019N0112651N1+99999+99999999999ADDMA1102611999999MW1001REMMET053RKSQ 0359Z 34014KT 9999 M01/M08 A3030 RMK QFF1027PT4;EQDQ01+000000PRSWM2
0117471034999992000011005004+37700+125700FM-15+0091RKSQ V0203101N002612200019N0112651N1+99999+99999999999ADDMA1102571999999MW1001OC100771REMMET057RKSQ 0459Z 31005G015KT 9999 M00/M08 A3029 RMK QFF1027PT1;EQDQ01+000000PRSWM2
0105471034999992000011006004+37700+125700FM-15+0091RKSQ V0203201N003112200019N0112651N1+99999+99999999999ADDMA1102571999999MW1001REMMET053RKSQ 0559Z 32006KT 9999 M00/M08 A3029 RMK QFF1027PT1;EQDQ01+000000PRSWM2
0105471034999992000011007004+37700+125700FM-15+0091RKSQ V0203401N001012200019N0112651N1+99999+99999999999ADDMA1102611999999MW1001REMMET053RKSQ 0659Z 34002KT 9999 M00/M08 A3030 RMK QFF1027PT3;EQDQ01+000000PRSWM2
0105471034999992000011008004+37700+125700FM-15+0091RKSQ V0203501N003112200019N0112651N1+99999+99999999999ADDMA1102681999999MW1001REMMET053RKSQ 0759Z 35006KT 9999 M02/M07 A3032 RMK QFF1028PT1;EQDQ01+000000PRSWM2
0154471034999992000011009004+37700+125700FM-15+0091RKSQ V0202901N003612200019N0112651N1-00401-00801999999ADDGA1021+060009999GF102991999999999999999999MA1102741999999MW1001REMMET060RKSQ 0859Z 29007KT 9999 FEW200 M04/M08 A3034 RMK QFF1028PT8;EQDQ01+000000PRSWM2
0154471034999992000011010004+37700+125700FM-15+0091RKSQ V0203401N002612200019N0112651N1-00501-00901999999ADDGA1021+060009999GF102991999999999999999999MA1102811999999MW1001REMMET060RKSQ 0959Z 34005KT 9999 FEW200 M05/M09 A3036 RMK QFF1029PT5;EQDQ01+000000PRSWM2
0154471034999992000011011004+37700+125700FM-15+0091RKSQ V0203301N003112200019N0112651N1-00501-00901999999ADDGA1021+060009999GF102991999999999999999999MA1102841999999MW1001REMMET060RKSQ 1059Z 33006KT 9999 FEW200 M05/M09 A3037 RMK QFF1029PT8;EQDQ01+000000PRSWM2
0105471034999992000011012004+37700+125700FM-15+0091RKSQ V0203501N004112200019N0112651N1+99999+99999999999ADDMA1102881999999MW1001REMMET053RKSQ 1159Z 35008KT 9999 M05/M10 A3038 RMK QFF1030PT1;EQDQ01+000000PRSWM2
0105471034999992000011013004+37700+125700FM-15+0091RKSQ V0200301N004112200019N0112651N1+99999+99999999999ADDMA1102841999999MW1001REMMET053RKSQ 1259Z 03008KT 9999 M05/M10 A3037 RMK QFF1029PT8;EQDQ01+000000PRSWM2
0105471034999992000011014004+37700+125700FM-15+0091RKSQ V0200101N005112200019N0112651N1+99999+99999999999ADDMA1102841999999MW1001REMMET053RKSQ 1359Z 01010KT 9999 M05/M11 A3037 RMK QFF1029PT8;EQDQ01+000000PRSWM2
0105471034999992000011014594+37700+125700FM-16+0091RKSQ V0200301N004612200019N0112651N1+99999+99999999999ADDMA1102841999999MW1001REMMET053RKSQ 1459Z 03009KT 9999 M06/M09 A3037 RMK QFF1029PT8;EQDQ01+000000PRSWM2
0105471034999992000011016004+37700+125700FM-15+0091RKSQ V0200401N003612200019N0112651N1+99999+99999999999ADDMA1102841999999MW1001REMMET053RKSQ 1559Z 04007KT 9999 M06/M10 A3037 RMK QFF1029PT8;EQDQ01+000000PRSWM2
0105471034999992000011017004+37700+125700FM-15+0091RKSQ V0200201N004112200019N0112651N1+99999+99999999999ADDMA1102811999999MW1001REMMET053RKSQ 1659Z 02008KT 9999 M06/M10 A3036 RMK QFF1029PT5;EQDQ01+000000PRSWM2
0105471034999992000011017594+37700+125700FM-16+0091RKSQ V0200401N001512200019N0112651N1+99999+99999999999ADDMA1102811999999MW1001REMMET053RKSQ 1759Z 04003KT 9999 M07/M11 A3036 RMK QFF1029PT5;EQDQ01+000000PRSWM2
0105471034999992000011019004+37700+125700FM-15+0091RKSQ V0200101N001512200019N0112651N1+99999+99999999999ADDMA1102811999999MW1001REMMET053RKSQ 1859Z 01003KT 9999 M06/M11 A3036 RMK QFF1029PT5;EQDQ01+000000PRSWM2
0105471034999992000011020004+37700+125700FM-15+0091RKSQ V0200301N002612200019N0112651N1+99999+99999999999ADDMA1102781999999MW1001REMMET053RKSQ 1959Z 03005KT 9999 M06/M11 A3035 RMK QFF1029PT1;EQDQ01+000000PRSWM2
0105471034999992000011021004+37700+125700FM-15+0091RKSQ V0200701N001012200019N0112651N1+99999+99999999999ADDMA1102781999999MW1001REMMET053RKSQ 2059Z 07002KT 9999 M06/M11 A3035 RMK QFF1029PT1;EQDQ01+000000PRSWM2
0105471034999992000011022004+37700+125700FM-15+0091RKSQ V0200901N000512200019N0112651N1+99999+99999999999ADDMA1102781999999MW1001REMMET053RKSQ 2159Z 09001KT 9999 M07/M09 A3035 RMK QFF1029PT1;EQDQ01+000000PRSWM2
0154471034999992000011023004+37700+125700FM-15+0091RKSQ V0201101N001012200019N0112651N1-00701-01101999999ADDGA1021+060009999GF102991999999999999999999MA1102811999999MW1001REMMET060RKSQ 2259Z 11002KT 9999 FEW200 M07/M11 A3036 RMK QFF1029PT5;EQDQ01+000000PRSWM2
0154471034999992000011100004+37700+125700FM-15+0091RKSQ V0200901N003112200019N0112651N1-00501-01001999999ADDGA1021+060009999GF102991999999999999999999MA1102741999999MW1001REMMET060RKSQ 2359Z 09006KT 9999 FEW200 M05/M10 A3034 RMK QFF1028PT8;EQDQ01+000000PRSWM2
0154471034999992000011101004+37700+125700FM-15+0091RKSQ V0200701N005112200019N0112651N1-00501-00901999999ADDGA1021+060009999GF102991999999999999999999MA1102711999999MW1001REMMET060RKSQ 0059Z 07010KT 9999 FEW200 M05/M09 A3033 RMK QFF1028PT5;EQDQ01+000000PRSWM2
0154471034999992000011102004+37700+125700FM-15+0091RKSQ V0200901N002612200019N0112651N1-00301-00801999999ADDGA1021+060009999GF102991999999999999999999MA1102681999999MW1001REMMET060RKSQ 0159Z 09005KT 9999 FEW200 M03/M08 A3032 RMK QFF1028PT1;EQDQ01+000000PRSWM2
0154471034999992000011103004+37700+125700FM-15+0091RKSQ V0200901N001012200019N0112651N1-00201-00601999999ADDGA1021+060009999GF102991999999999999999999MA1102711999999MW1001REMMET060RKSQ 0259Z 09002KT 9999 FEW200 M02/M06 A3033 RMK QFF1028PT5;EQDQ01+000000PRSWM2
0154471034999992000011104004+37700+125700FM-15+0091RKSQ V0201001N003112200019N0112651N1-00101-00601999999ADDGA1021+060009999GF102991999999999999999999MA1102571999999MW1001REMMET060RKSQ 0359Z 10006KT 9999 FEW200 M01/M06 A3029 RMK QFF1027PT1;EQDQ01+000000PRSWM2
0154471034999992000011105004+37700+125700FM-15+0091RKSQ V0201201N002112200019N0112651N1+00001-00501999999ADDGA1021+060009999GF104991999999999999999999MA1102541999999MW1001REMMET060RKSQ 0459Z 12004KT 9999 SCT200 M00/M05 A3028 RMK QFF1026PT8;EQDQ01+000000PRSWM2
0153471034999992000011106004+37700+125700FM-15+0091RKSQ V0200701N003612200019N0112651N1+00101-00601999999ADDGA1021+060009999GF104991999999999999999999MA1102471999999MW1001REMMET059RKSQ 0559Z 07007KT 9999 SCT200 01/M06 A3026 RMK QFF1026PT1;EQDQ01+000000PRSWM2
0160471034999992000011107004+37700+125700FM-15+0091RKSQ V0200701N002610600019N0112651N1+00101-00301999999ADDGA1071+060009999GF107991999999999999999999MA1102471999999MW1001REMMET066RKSQ 0659Z 07005KT 9999 BKN200 01/M03 A3026 RMK CIG200 QFF1026PT1;EQDQ01+000000PRSWM2
0184471034999992000011108004+37700+125700FM-15+0091RKSQ V0200601N001510600019N0112651N1+00001-00601999999ADDGA1021+030009999GA2081+060009999GF108991999999999999999999MA1102441999999MW1001REMMET074RKSQ 0759Z 06003KT 9999 FEW100 OVC200 00/M06 A3025 RMK CIG200/ QFF1025PT7;EQDQ01+000000PRSWM2
0202471034999992000011109004+37700+125700FM-15+0091RKSQ V0200901N001510600019N0090001N1+00001-00601999999ADDGA1021+030009999GA2081+060009999GF108991999999999999999999MA1102441999999MW1101REMMET076RKSQ 0859Z 09003KT 9000 BR SCT100 OVC200 00/M06 A3025 RMK CIG200 QFF1025PT7;EQDQ01+000003PRSWM1Q02    003PRSWM1
0202471034999992000011110004+37700+125700FM-15+0091RKSQ V0200401N002110600019N0080001N1+00101-00401999999ADDGA1021+024009999GA2081+060009999GF108991999999999999999999MA1102401999999MW1101REMMET076RKSQ 0959Z 04004KT 8000 BR SCT080 OVC200 01/M04 A3024 RMK CIG200 QFF1025PT4;EQDQ01+000003PRSWM1Q02    003PRSWM1
0225471034999992000011111004+37700+125700FM-15+0091RKSQ V0200801N004110240019N0080001N1+00101-00401999999ADDGA1021+009009999GA2071+024009999GA3081+060009999GF108991999999999999999999MA1102341999999MW1101REMMET083RKSQ 1059Z 08008KT 8000 BR FEW030 BKN080 OVC200 01/M04 A3022 RMK CIG080 QFF1024PT7;EQDQ01+000003PRSWM1Q02    003PRSWM1
0225471034999992000011112004+37700+125700FM-15+0091RKSQ V0201201N003610240019N0080001N1+00101-00401999999ADDGA1021+009009999GA2071+024009999GA3081+060009999GF108991999999999999999999MA1102341999999MW1101REMMET083RKSQ 1159Z 12007KT 8000 BR FEW030 BKN080 OVC200 01/M04 A3022 RMK CIG080 QFF1024PT7;EQDQ01+000003PRSWM1Q02    003PRSWM1
0202471034999992000011113004+37700+125700FM-15+0091RKSQ V0201101N003610240019N0080001N1+00101-00401999999ADDGA1071+024009999GA2081+060009999GF108991999999999999999999MA1102341999999MW1101REMMET076RKSQ 1259Z 11007KT 8000 BR BKN080 OVC200 01/M04 A3022 RMK CIG080 QFF1024PT7;EQDQ01+000003PRSWM1Q02    003PRSWM1
0202471034999992000011114004+37700+125700FM-15+0091RKSQ V0200701N004610240019N0080001N1+00101-00401999999ADDGA1071+024009999GA2081+060009999GF108991999999999999999999MA1102401999999MW1101REMMET076RKSQ 1359Z 07009KT 8000 BR BKN080 OVC200 01/M04 A3024 RMK CIG080 QFF1025PT4;EQDQ01+000003PRSWM1Q02    003PRSWM1
0202471034999992000011114594+37700+125700FM-15+0091RKSQ V0200801N004610600019N0080001N1+00101-00401999999ADDGA1021+024009999GA2071+060009999GF107991999999999999999999MA1102401999999MW1101REMMET076RKSQ 1459Z 08009KT 8000 BR SCT080 BKN200 01/M04 A3024 RMK CIG200 QFF1025PT4;EQDQ01+000003PRSWM1Q02    003PRSWM1
0202471034999992000011116004+37700+125700FM-15+0091RKSQ V0200901N004110600019N0080001N1+00001-00301999999ADDGA1021+030009999GA2071+060009999GF107991999999999999999999MA1102341999999MW1101REMMET076RKSQ 1559Z 09008KT 8000 BR SCT100 BKN200 00/M03 A3022 RMK CIG200 QFF1024PT7;EQDQ01+000003PRSWM1Q02    003PRSWM1
0202471034999992000011117004+37700+125700FM-15+0091RKSQ V0200801N005110600019N0080001N1+00001-00301999999ADDGA1021+030009999GA2071+060009999GF107991999999999999999999MA1102271999999MW1101REMMET076RKSQ 1659Z 08010KT 8000 BR SCT100 BKN200 00/M03 A3020 RMK CIG200 QFF1024PT0;EQDQ01+000003PRSWM1Q02    003PRSWM1
0203471034999992000011117594+37700+125700FM-15+0091RKSQ V0201101N000510600019N0080001N1+00101-00301999999ADDGA1021+030009999GA2081+060009999GF108991999999999999999999MA1102241999999MW1101REMMET077RKSQ 1759Z 11001KT 8000 BR SCT100 OVC200 01/M03 A3019 RMK CIG200/ QFF1023PT7;EQDQ01+000003PRSWM1Q02    003PRSWM1
0203471034999992000011119004+37700+125700FM-15+0091RKSQ V0200601N004610600019N0080001N1+00001-00301999999ADDGA1021+030009999GA2071+060009999GF107991999999999999999999MA1102131999999MW1101REMMET077RKSQ 1859Z 06009KT 8000 BR SCT100 BKN200 00/M03 A3016 RMK CIG200/ QFF1022PT7;EQDQ01+000003PRSWM1Q02    003PRSWM1
0203471034999992000011120004+37700+125700FM-15+0091RKSQ V0200801N005710600019N0080001N1+00101-00301999999ADDGA1021+030009999GA2081+060009999GF108991999999999999999999MA1102101999999MW1101REMMET077RKSQ 1959Z 08011KT 8000 BR SCT100 OVC200 01/M03 A3015 RMK CIG200/ QFF1022PT4;EQDQ01+000003PRSWM1Q02    003PRSWM1
0203471034999992000011121004+37700+125700FM-15+0091RKSQ V0201001N004610600019N0080001N1+00101-00301999999ADDGA1021+030009999GA2081+060009999GF108991999999999999999999MA1102101999999MW1101REMMET077RKSQ 2059Z 10009KT 8000 BR SCT100 OVC200 01/M03 A3015 RMK CIG200/ QFF1022PT4;EQDQ01+000003PRSWM1Q02    003PRSWM1
0203471034999992000011122004+37700+125700FM-15+0091RKSQ V0201201N006210600019N0080001N1+00101-00201999999ADDGA1021+030009999GA2081+060009999GF108991999999999999999999MA1102031999999MW1101REMMET077RKSQ 2159Z 12012KT 8000 BR SCT100 OVC200 01/M02 A3013 RMK CIG200/ QFF1021PT3;EQDQ01+000003PRSWM1Q02    003PRSWM1
0203471034999992000011123004+37700+125700FM-15+0091RKSQ V0201201N002610300019N0080001N1+00101-00301999999ADDGA1071+030009999GA2081+060009999GF108991999999999999999999MA1102071999999MW1101REMMET077RKSQ 2259Z 12005KT 8000 BR BKN100 OVC200 01/M03 A3014 RMK CIG100/ QFF1021PT7;EQDQ01+000003PRSWM1Q02    003PRSWM1
0203471034999992000011200004+37700+125700FM-15+0091RKSQ V0201001N004110600019N0090001N1+00101-00301999999ADDGA1021+030009999GA2081+060009999GF108991999999999999999999MA1102101999999MW1101REMMET077RKSQ 2359Z 10008KT 9000 BR SCT100 OVC200 01/M03 A3015 RMK CIG200/ QFF1022PT0;EQDQ01+000003PRSWM1Q02    003PRSWM1
0203471034999992000011201004+37700+125700FM-15+0091RKSQ V0200901N001510600019N0090001N1+00201-00301999999ADDGA1021+030009999GA2081+060009999GF108991999999999999999999MA1102101999999MW1101REMMET077RKSQ 0059Z 09003KT 9000 BR SCT100 OVC200 02/M03 A3015 RMK CIG200/ QFF1022PT0;EQDQ01+000003PRSWM1Q02    003PRSWM1
0203471034999992000011202004+37700+125700FM-15+0091RKSQ V0200601N002110600019N0090001N1+00201-00301999999ADDGA1021+030009999GA2081+060009999GF108991999999999999999999MA1102071999999MW1101REMMET077RKSQ 0159Z 06004KT 9000 BR SCT100 OVC200 02/M03 A3014 RMK CIG200/ QFF1021PT7;EQDQ01+000003PRSWM1Q02    003PRSWM1
0177471034999992000011202204+37700+125700FM-16+0091RKSQ V0200801N001010300019N0090001N1+99999+99999999999ADDGA1021+009009999GA2071+030009999GA3081+060009999GF108991999999999999999999MW1001MW2611REMMET060RKSQ 0220Z 08002KT 9000 -RA SCT030 BKN100 OVC200 RMK CIG100;EQDQ01+000003PRSWM1
0210471034999992000011203004+37700+125700FM-15+0091RKSQ V0200901N002110090019N0080001N1+00201-00101999999ADDGA1071+009009999GA2081+030009999GF108991999999999999999999MA1101931999999MW1611REMMET084RKSQ 0259Z 09004KT 8000 -RA BKN030 OVC100 02/M01 A3010 RMK CIG030/1RA00/ QFF1020PT7;EQDQ01+000003PRSWM1Q02    003PRSWM1
0209471034999992000011204004+37700+125700FM-15+0091RKSQ V0201101N002110090019N0080001N1+00201+00001999999ADDGA1071+009009999GA2081+030009999GF108991999999999999999999MA1101861999999MW1711REMMET083RKSQ 0359Z 11004KT 8000 -SN BKN030 OVC100 02/00 A3008 RMK CIG030/1SN00/ QFF1019PT7;EQDQ01+000003PRSWM1Q02    003PRSWM1
0241471034999992000011206004+37700+125700FM-15+0091RKSQ V0200601N003110090019N0048001N1+00101+00001999999ADDGA1011+000159999GA2071+009009999GA3081+030009999GF108991999999999999999999MA1101731999999MW1711REMMET099RKSQ 0559Z 06006KT 4800 -SN 1FG/// BKN030 OVC100 01/M00 A3004 RMK CIG030/1SN00/6RASN00/ QFF1018PT5;EQDQ01+000003PRSWM1Q02    003PRSWM1
0233471034999992000011207004+37700+125700FM-15+0091RKSQ V0200901N003610090019N0048001N1+00101+00001999999ADDGA1011+000159999GA2071+009009999GA3081+030009999GF108991999999999999999999MA1101691999999MW1711REMMET091RKSQ 0659Z 09007KT 4800 -SN 1FG/// BKN030 OVC100 01/M00 A3003 RMK CIG030/1SN00/ QFF1018PT2;EQDQ01+000003PRSWM1Q02    003PRSWM1
0200471034999992000011207154+37700+125700FM-16+0091RKSQ V0201101N002110090019N0024001N1+99999+99999999999ADDGA1021+000159999GA2021+003009999GA3071+009009999GA4081+030009999GF108991999999999999999999MW1001MW2711REMMET067RKSQ 0715Z 11004KT 2400 -SN 2FG/// SCT010 BKN030 OVC100 RMK CIG030;EQDQ01+000003PRSWM1
0178471034999992000011207404+37700+125700FM-16+0091RKSQ V0200601N002110030019N0016001N1+99999+99999999999ADDGA1031+000159999GA2071+003009999GA3081+009009999GF108991999999999999999999MW1001MW2711REMMET061RKSQ 0740Z 06004KT 1600 -SN 3FG/// BKN010 OVC030 RMK CIGE010;EQDQ01+000003PRSWM1
0234471034999992000011208004+37700+125700FM-15+0091RKSQ V0200701N001510030019N0016001N1+00001+00001999999ADDGA1031+000159999GA2071+003009999GA3081+009009999GF108991999999999999999999MA1101661999999MW1711REMMET092RKSQ 0759Z 07003KT 1600 -SN 3FG/// BKN010 OVC030 00/M00 A3002 RMK CIGE010/1SN02/ QFF1017PT9;EQDQ01+000003PRSWM1Q02    003PRSWM1
0090471034999992000011208244+37700+125700FM-16+0091RKSQ V0200701N001510012019N0008001N1+99999+99999999999ADDMW1001MW2711REMMET047RKSQ 0824Z 07003KT 0800 -SN 9FG004 RMK CIGW004;EQDQ01+000003PRSWM1
0120471034999992000011209004+37700+125700FM-15+0091RKSQ V0200701N001510012019N0008001N1+99999+99999999999ADDMW1001MW2711REMMET077RKSQ 0859Z 07003KT 0800 -SN 9FG004 01/00 A3003 RMK CIGW004/1SN00/ QFF1018PT2;EQDQ01+000003PRSWM1
0120471034999992000011210004+37700+125700FM-15+0091RKSQ V0200501N002110012019N0008001N1+99999+99999999999ADDMW1001MW2711REMMET077RKSQ 0959Z 05004KT 0800 -SN 9FG004 01/00 A3003 RMK CIGW004/1SN00/ QFF1018PT2;EQDQ01+000003PRSWM1
0089471034999992000011210484+37700+125700FM-16+0091RKSQ V0200301N003610012019N0008001N1+99999+99999999999ADDMW1001MW2441REMMET046RKSQ 1048Z 03007KT 0800 FG 9FG004 RMK CIGW004;EQDQ01+000003PRSWM1
0119471034999992000011211004+37700+125700FM-15+0091RKSQ V0200301N003610012019N0008001N1+99999+99999999999ADDMW1001MW2441REMMET076RKSQ 1059Z 03007KT 0800 FG 9FG004 01/00 A3003 RMK CIGW004/1SN00/ QFF1018PT2;EQDQ01+000003PRSWM1
0120471034999992000011212004+37700+125700FM-15+0091RKSQ V0200301N003110012019N0008001N1+99999+99999999999ADDMW1001MW2441REMMET077RKSQ 1159Z 03006KT 0800 FG 9FG004 01/M02 A3003 RMK CIGW004/6SN02/ QFF1018PT2;EQDQ01+000003PRSWM1
0113471034999992000011213004+37700+125700FM-15+0091RKSQ V0200401N003110012019N0008001N1+99999+99999999999ADDMW1001MW2441REMMET070RKSQ 1259Z 04006KT 0800 FG 9FG004 01/M02 A3001 RMK CIGW004 QFF1017PT5;EQDQ01+000003PRSWM1
0113471034999992000011214004+37700+125700FM-15+0091RKSQ V0200201N002610012019N0008001N1+99999+99999999999ADDMW1001MW2441REMMET070RKSQ 1359Z 02005KT 0800 FG 9FG004 01/M02 A3000 RMK CIGW004 QFF1017PT2;EQDQ01+000003PRSWM1
0120471034999992000011214594+37700+125700FM-16+0091RKSQ V0203401N001010012019N0008001N1+99999+99999999999ADDMW1001MW2441REMMET077RKSQ 1459Z 34002KT 0800 FG 9FG004 01/M02 A2999 RMK CIGW004/20002/ QFF1016PT8;EQDQ01+000003PRSWM1
0113471034999992000011216004+37700+125700FM-15+0091RKSQ V0203001N001510012019N0008001N1+99999+99999999999ADDMW1001MW2441REMMET070RKSQ 1559Z 30003KT 0800 FG 9FG004 01/M02 A2999 RMK CIGW004 QFF1016PT8;EQDQ01+000003PRSWM1
0113471034999992000011217004+37700+125700FM-15+0091RKSQ V0203201N002110012019N0008001N1+99999+99999999999ADDMW1001MW2441REMMET070RKSQ 1659Z 32004KT 0800 FG 9FG004 01/M02 A2998 RMK CIGW004 QFF1016PT5;EQDQ01+000003PRSWM1
0113471034999992000011218004+37700+125700FM-15+0091RKSQ V0203101N003610012019N0008001N1+99999+99999999999ADDMW1001MW2441REMMET070RKSQ 1759Z 31007KT 0800 FG 9FG004 02/01 A2996 RMK CIGW004/ QFF1015PT5;EQDQ01+000003PRSWM1
0113471034999992000011219004+37700+125700FM-15+0091RKSQ V0202901N003110012019N0008001N1+99999+99999999999ADDMW1001MW2441REMMET070RKSQ 1859Z 29006KT 0800 FG 9FG004 02/01 A2996 RMK CIGW004/ QFF1015PT5;EQDQ01+000003PRSWM1
0113471034999992000011220004+37700+125700FM-15+0091RKSQ V0203001N003610012019N0008001N1+99999+99999999999ADDMW1001MW2441REMMET070RKSQ 1959Z 30007KT 0800 FG 9FG004 01/01 A2995 RMK CIGW004/ QFF1015PT5;EQDQ01+000003PRSWM1
0125471034999992000011221004+37700+125700FM-15+0091RKSQ V0203101N002610012019N0008001N1+99999+99999999999ADDMW1001MW2441OC100821REMMET074RKSQ 2059Z 31005G016KT 0800 FG 9FG004 01/00 A2995 RMK CIGW004/ QFF1015PT1;EQDQ01+000003PRSWM1
0114471034999992000011222004+37700+125700FM-15+0091RKSQ V0203001N006210012019N0008001N1+99999+99999999999ADDMW1001MW2441REMMET071RKSQ 2159Z 30012KT 0800 FG 9FG004 01/M00 A2997 RMK CIGW004/ QFF1015PT8;EQDQ01+000003PRSWM1
0177471034999992000011222134+37700+125700FM-16+0091RKSQ V0202901N005110024019N0016001N1+99999+99999999999ADDGA1031+000159999GA2071+002409999GA3081+003609999GF108991999999999999999999MW1001MW2101REMMET060RKSQ 2213Z 29010KT 1600 BR 3FG/// BKN008 OVC012 RMK CIGE008;EQDQ01+000003PRSWM1
0250471034999992000011223004+37700+125700FM-15+0091RKSQ V0202901N004110036019N0024001N1+00101-00101999999ADDGA1021+000159999GA2021+002409999GA3071+003609999GA4081+009009999GF108991999999999999999999MA1101491999999MW1101REMMET092RKSQ 2256Z 29008KT 2400 BR 2FG/// SCT008 BKN012 OVC030 01/M01 A2997 RMK CIGE012/ QFF1015PT8;EQDQ01+000003PRSWM1Q02    003PRSWM1
0200471034999992000011223144+37700+125700FM-16+0091RKSQ V0203001N005110036019N0040001N1+99999+99999999999ADDGA1011+000159999GA2021+002409999GA3071+003609999GA4081+009009999GF108991999999999999999999MW1001MW2101REMMET067RKSQ 2314Z 30010KT 4000 BR 1FG/// FEW008 BKN012 OVC030 RMK CIGE012;EQDQ01+000003PRSWM1
0153471034999992000011223314+37700+125700FM-16+0091RKSQ V0203001N005110090019N0048001N1+99999+99999999999ADDGA1021+003609999GA2081+009009999GF108991999999999999999999MW1001MW2101REMMET052RKSQ 2331Z 30010KT 4800 BR SCT012 OVC030 RMK CIG030;EQDQ01+000003PRSWM1
0203471034999992000011300004+37700+125700FM-15+0091RKSQ V0203001N003610090019N0048001N1+00101-00101999999ADDGA1021+003609999GA2081+009009999GF108991999999999999999999MA1101521999999MW1101REMMET077RKSQ 2359Z 30007KT 4800 BR SCT012 OVC030 01/M01 A2998 RMK CIG030/ QFF1016PT6;EQDQ01+000003PRSWM1Q02    003PRSWM1
0203471034999992000011301004+37700+125700FM-15+0091RKSQ V0203201N004110090019N0060001N1+00001-00101999999ADDGA1021+003609999GA2081+009009999GF108991999999999999999999MA1101561999999MW1101REMMET077RKSQ 0059Z 32008KT 6000 BR SCT012 OVC030 00/M01 A2999 RMK CIG030/ QFF1016PT9;EQDQ01+000003PRSWM1Q02    003PRSWM1
0215471034999992000011302004+37700+125700FM-15+0091RKSQ V0202701N005710090019N0060001N1+00001-00101999999ADDGA1021+003609999GA2081+009009999GF108991999999999999999999MA1101631999999MW1101OC101131REMMET081RKSQ 0159Z 27011G022KT 6000 BR SCT012 OVC030 00/M01 A3001 RMK CIG030/ QFF1017PT6;EQDQ01+000003PRSWM1Q02    003PRSWM1
0216471034999992000011303004+37700+125700FM-15+0091RKSQ V0203001N006210090019N0060001N1+00001-00401999999ADDGA1021+003609999GA2081+009009999GF108991999999999999999999MA1101561999999MW1101OC101131REMMET082RKSQ 0259Z 30012G022KT 6000 BR SCT012 OVC030 M00/M04 A2999 RMK CIG030/ QFF1016PT9;EQDQ01+000003PRSWM1Q02    003PRSWM1
0214471034999992000011304004+37700+125700FM-15+0091RKSQ V0203101N005110090019N0060001N1+00001-00301999999ADDGA1021+003609999GA2081+009009999GF108991999999999999999999MA1101491999999MW1101OC101081REMMET080RKSQ 0359Z 31010G021KT 6000 BR SCT012 OVC030 00/M03 A2997 RMK CIG030 QFF1016PT3;EQDQ01+000003PRSWM1Q02    003PRSWM1
0216471034999992000011305004+37700+125700FM-15+0091RKSQ V0203001N006210090019N0060001N1+00001-00301999999ADDGA1021+003609999GA2081+009009999GF108991999999999999999999MA1101491999999MW1101OC101291REMMET082RKSQ 0459Z 30012G025KT 6000 BR FEW012 OVC030 M00/M03 A2997 RMK CIG030/ QFF1016PT3;EQDQ01+000003PRSWM1Q02    003PRSWM1
0166471034999992000011305354+37700+125700FM-16+0091RKSQ V0203101N006210090019N0060001N1+99999+99999999999ADDGA1021+003609999GA2081+009009999GF108991999999999999999999MW1001MW2711OC101131REMMET057RKSQ 0535Z 31012G022KT 6000 -SN FEW012 OVC030 RMK CIG030;EQDQ01+000003PRSWM1
0229471034999992000011306004+37700+125700FM-15+0091RKSQ V0203101N006210090019N0060001N1-00201-00401999999ADDGA1021+003609999GA2081+009009999GF108991999999999999999999MA1101521999999MW1711OC101181REMMET095RKSQ 0559Z 31012G023KT 6000 -SN FEW012 OVC030 M02/M04 A2998 RMK CIG030/1SN00/6SN00/ QFF1016PT6;EQDQ01+000003PRSWM1Q02    003PRSWM1
0153471034999992000011306504+37700+125700FM-16+0091RKSQ V0203001N006710090019N0060001N1+99999+99999999999ADDGA1021+003609999GA2081+009009999GF108991999999999999999999MW1001MW2101REMMET052RKSQ 0650Z 30013KT 6000 BR FEW012 OVC030 RMK CIG030;EQDQ01+000003PRSWM1
0210471034999992000011307004+37700+125700FM-15+0091RKSQ V0203001N005710090019N0060001N1-00201-00501999999ADDGA1021+003609999GA2081+009009999GF108991999999999999999999MA1101591999999MW1101REMMET084RKSQ 0659Z 30011KT 6000 BR FEW012 OVC030 M02/M05 A3000 RMK CIG030/1SN00/ QFF1017PT3;EQDQ01+000003PRSWM1Q02    003PRSWM1
0204471034999992000011308004+37700+125700FM-15+0091RKSQ V0203001N005110090019N0060001N1-00201-00501999999ADDGA1021+003609999GA2071+009009999GF107991999999999999999999MA1101661999999MW1101REMMET078RKSQ 0759Z 30010KT 6000 BR FEW012 BKN030 M02/M05 A3002 RMK CIG030/ QFF1018PT0;EQDQ01+000003PRSWM1Q02    003PRSWM1
0226471034999992000011310004+37700+125700FM-15+0091RKSQ V0203001N005110090019N0048001N1-00301-00501999999ADDGA1011+000159999GA2021+003609999GA3081+009009999GF108991999999999999999999MA1101761999999MW1101REMMET084RKSQ 0959Z 30010KT 4800 BR 1FG/// SCT012 OVC030 M03/M05 A3005 RMK CIG030 QFF1019PT0;EQDQ01+000003PRSWM1Q02    003PRSWM1
0226471034999992000011311004+37700+125700FM-15+0091RKSQ V0203101N004110090019N0048001N1-00201-00501999999ADDGA1011+000159999GA2021+003609999GA3081+009009999GF108991999999999999999999MA1101761999999MW1101REMMET084RKSQ 1059Z 31008KT 4800 BR 1FG/// SCT012 OVC030 M02/M05 A3005 RMK CIG030 QFF1019PT0;EQDQ01+000003PRSWM1Q02    003PRSWM1
0233471034999992000011312004+37700+125700FM-15+0091RKSQ V0203101N003610090019N0048001N1-00201-00501999999ADDGA1011+000159999GA2021+003609999GA3081+009009999GF108991999999999999999999MA1101831999999MW1101REMMET091RKSQ 1159Z 31007KT 4800 BR 1FG/// SCT012 OVC030 M02/M05 A3007 RMK CIG030/6SN00/ QFF1019PT7;EQDQ01+000003PRSWM1Q02    003PRSWM1
0226471034999992000011313004+37700+125700FM-15+0091RKSQ V0200301N003610090019N0048001N1-00201-00501999999ADDGA1011+000159999GA2021+003609999GA3081+009009999GF108991999999999999999999MA1101831999999MW1101REMMET084RKSQ 1259Z 03007KT 4800 BR 1FG/// SCT012 OVC030 M02/M05 A3007 RMK CIG030 QFF1019PT7;EQDQ01+000003PRSWM1Q02    003PRSWM1
0203471034999992000011314004+37700+125700FM-15+0091RKSQ V0203201N002610090019N0048001N1-00201-00501999999ADDGA1011+000159999GA2081+009009999GF108991999999999999999999MA1101831999999MW1101REMMET077RKSQ 1359Z 32005KT 4800 BR 1FG/// OVC030 M02/M05 A3007 RMK CIG030 QFF1019PT7;EQDQ01+000003PRSWM1Q02    003PRSWM1
0203471034999992000011314594+37700+125700FM-15+0091RKSQ V0203001N002110090019N0048001N1-00301-00601999999ADDGA1011+000159999GA2081+009009999GF108991999999999999999999MA1101901999999MW1101REMMET077RKSQ 1459Z 30004KT 4800 BR 1FG/// OVC030 M03/M06 A3009 RMK CIG030 QFF1020PT7;EQDQ01+000003PRSWM1Q02    003PRSWM1
0203471034999992000011316004+37700+125700FM-15+0091RKSQ V0203401N004110090019N0048001N1-00301-00601999999ADDGA1011+000159999GA2081+009009999GF108991999999999999999999MA1101901999999MW1101REMMET077RKSQ 1559Z 34008KT 4800 BR 1FG/// OVC030 M03/M06 A3009 RMK CIG030 QFF1020PT7;EQDQ01+000003PRSWM1Q02    003PRSWM1
0203471034999992000011317004+37700+125700FM-15+0091RKSQ V0203001N003110090019N0048001N1-00301-00601999999ADDGA1011+000159999GA2081+009009999GF108991999999999999999999MA1101901999999MW1101REMMET077RKSQ 1659Z 30006KT 4800 BR 1FG/// OVC030 M03/M06 A3009 RMK CIG030 QFF1020PT7;EQDQ01+000003PRSWM1Q02    003PRSWM1
0204471034999992000011317594+37700+125700FM-15+0091RKSQ V0200101N002610090019N0048001N1-00301-00501999999ADDGA1011+000159999GA2071+009009999GF107991999999999999999999MA1101961999999MW1101REMMET078RKSQ 1759Z 01005KT 4800 BR 1FG/// BKN030 M03/M05 A3011 RMK CIG030/ QFF1021PT3;EQDQ01+000003PRSWM1Q02    003PRSWM1
0204471034999992000011319004+37700+125700FM-15+0091RKSQ V0200401N002610090019N0048001N1-00301-00501999999ADDGA1011+000159999GA2081+009009999GF108991999999999999999999MA1101961999999MW1101REMMET078RKSQ 1859Z 04005KT 4800 BR 1FG/// OVC030 M03/M05 A3011 RMK CIG030/ QFF1021PT3;EQDQ01+000003PRSWM1Q02    003PRSWM1
