0137475170999992000010103004+41230+141150FM-15+001099999V0202601N002112200019N0112651N1+00301-00601999999ADDGA1021+009009999GF104991999999999999999999MA1102001999999MW1001REMMET06247517 0300Z 26004KT 9999 SCT030 03/M06 Q1020 RMK 4CU030 A3014;
0137475170999992000010106004+41230+141150FM-15+001099999V0202001N001010090019N0112651N1+00201-00401999999ADDGA1071+009009999GF107991999999999999999999MA1102001999999MW1001REMMET06247517 0600Z 20002KT 9999 BKN030 02/M04 Q1020 RMK 6CU030 A3015;
0209475170999992000010200004+41230+141150FM-15+001099999V0203401N002110090019N0112651N1+00001-00601999999ADDGA1021+006009999GA2071+009009999GF107991999999999999999999MA1102201999999MW1851REMMET08347517 0000Z 34004KT 9999 -SHSN SCT020 BKN030 M00/M06 Q1022 RMK 3CU020 5CU030 A3019;EQDQ01+000003PRSWM1Q02    003PRSWM1
0156475170999992000010203004+41230+141150FM-15+001099999V0200701N002112200019N0112651N1+00301-00701999999ADDGA1021+009009999GF104991999999999999999999MA1102001999999MW1001REMMET06247517 0300Z 07004KT 9999 SCT030 03/M07 Q1020 RMK 4CU030 A3015;EQDQ01+000000PRSWM2
0156475170999992000010206004+41230+141150FM-15+001099999V0200901N001510090019N0112651N1+00201-00501999999ADDGA1071+009009999GF107991999999999999999999MA1101901999999MW1001REMMET06247517 0600Z 09003KT 9999 BKN030 02/M05 Q1019 RMK 6CU030 A3012;EQDQ01+000000PRSWM2
0247475170999992000010303004+41230+141150FM-15+001099999V0203301N001510045019N0049001N1+00301+00201999999ADDGA1021+001509999GA2071+004509999GA3081+006009999GF108991999999999999999999MA1100611999999MW1611MW2711REMMET09947517 0300Z COR 33003KT 4900 -RASN FEW005 BKN015 OVC020 03/02 Q1006 RMK 2ST005 5ST015 8SC020 A2973;EQDQ01+000003PRSWM1Q02    003PRSWM1
0245475170999992000010306004+41230+141150FM-15+001099999V0203501N001510045019N0030001N1+00101+00101999999ADDGA1021+001509999GA2071+004509999GA3071+006009999GF107991999999999999999999MA1100611999999MW1801MW2851REMMET09747517 0600Z 35003KT 3000 -SHSNRA FEW005 BKN015 BKN020 01/01 Q1006 RMK 2ST005 5ST015 7CU020 A2971;EQDQ01+000003PRSWM1Q02    003PRSWM1
0243475170999992000010400004+41230+141150FM-15+001099999V0200301N002110030019N0060001N1+00101+00101999999ADDGA1021+001509999GA2071+003009999GA3081+007509999GF108991999999999999999999MA1101291999999MW1611MW2711REMMET09547517 0000Z 03004KT 6000 -RASN FEW005 BKN010 OVC025 01/01 Q1013 RMK 2ST005 6ST010 8SC025 A2994;EQDQ01+000003PRSWM1Q02    003PRSWM1
0245475170999992000010403004+41230+141150FM-15+001099999V0200101N002110030019N0060001N1+00101+00101999999ADDGA1021+001509999GA2071+003009999GA3081+006009999GF108991999999999999999999MA1101291999999MW1801MW2851REMMET09747517 0300Z 01004KT 6000 -SHRASN FEW005 BKN010 OVC020 01/01 Q1013 RMK 2ST005 5ST010 8CU020 A2992;EQDQ01+000003PRSWM1Q02    003PRSWM1
0245475170999992000010406004+41230+141150FM-15+001099999V0200101N003610030019N0070001N1+00201+00101999999ADDGA1021+001509999GA2071+003009999GA3081+007509999GF108991999999999999999999MA1101291999999MW1801MW2851REMMET09747517 0600Z 01007KT 7000 -SHRASN FEW005 BKN010 OVC025 02/01 Q1013 RMK 1ST005 5ST010 8CU025 A2994;EQDQ01+000003PRSWM1Q02    003PRSWM1
0156475170999992000010500004+41230+141150FM-15+001099999V0202901N000512200019N0112651N1+00201-00301999999ADDGA1021+009009999GF102991999999999999999999MA1102401999999MW1001REMMET06247517 0000Z 29001KT 9999 FEW030 02/M03 Q1024 RMK 1CU030 A3027;EQDQ01+000000PRSWM2
0156475170999992000010503004+41230+141150FM-15+001099999V0203301N002112200019N0112651N1+00401-00301999999ADDGA1021+009009999GF102991999999999999999999MA1102401999999MW1001REMMET06247517 0300Z 33004KT 9999 FEW030 04/M03 Q1024 RMK 2CU030 A3026;EQDQ01+000000PRSWM2
0156475170999992000010506004+41230+141150FM-15+001099999V0203401N001010090019N0112651N1+00301-00101999999ADDGA1071+009009999GF107991999999999999999999MA1102401999999MW1001REMMET06247517 0600Z 34002KT 9999 BKN030 03/M01 Q1024 RMK 5CU030 A3025;EQDQ01+000000PRSWM2
0185475170999992000010603004+41230+141150FM-15+001099999V0201101N003610090019N0112651N1+00401+00001999999ADDGA1021+006009999GA2071+009009999GF107991999999999999999999MA1102201999999MW1001REMMET07547517 0300Z 11007KT 9999 SCT020 BKN030 04/00 Q1022 RMK 3CU020 7SC030 A3020;EQDQ01+000000PRSWM2
0235475170999992000010700004+41230+141150FM-15+001099999V0202601N001010090019N0112651N1+00601+00601999999ADDGA1021+003009999GA2071+009009999GA3081+024009999GF108991999999999999999999MA1100611999999MW1611REMMET09347517 0000Z 26002KT 9999 -RA FEW010 BKN030 OVC080 06/06 Q1006 RMK 1ST010 6SC030 8AS080 A2971;EQDQ01+000003PRSWM1Q02    003PRSWM1
0185475170999992000010703004+41230+141150FM-15+001099999V0202401N004610060019N0112651N1+00501+00201999999ADDGA1071+006009999GA2081+009009999GF108991999999999999999999MA1100711999999MW1001REMMET07547517 0300Z 24009KT 9999 BKN020 OVC030 05/02 Q1007 RMK 5CU020 8CU030 A2974;EQDQ01+000000PRSWM2
0238475170999992000010706004+41230+141150FM-15+001099999V0202501N004110090019N0112651N1+00301-00101999999ADDGA1021+006009999GA2071+009009999GA3071+024009999GF107991999999999999999999MA1100911999999MW1851REMMET09647517 0600Z 25008KT 9999 -SHSN FEW020 BKN030 BKN080 03/M01 Q1009 RMK 2CU020 6CU030 7AC080 A2980;EQDQ01+000003PRSWM1Q02    003PRSWM1
0243475170999992000010803004+41230+141150FM-15+001099999V0203001N001010045019N0025001N1-00101-00101999999ADDGA1021+003009999GA2071+004509999GA3071+007509999GF107991999999999999999999MA1101391999999MW1851REMMET10147517 0300Z COR 30002KT 2500 -SHSN SCT010 BKN015 BKN025 M01/M01 Q1014 RMK 3ST010 5CU015 7CU025 A2995;EQDQ01+000003PRSWM1Q02    003PRSWM1
0238475170999992000010806004+41230+141150FM-15+001099999V0202101N002110045019N0040001N1+00001+00001999999ADDGA1021+003009999GA2071+004509999GA3071+007509999GF107991999999999999999999MA1101391999999MW1851REMMET09647517 0600Z 21004KT 4000 -SHSN FEW010 BKN015 BKN025 00/M00 Q1014 RMK 2ST010 5CU015 7CU025 A2995;EQDQ01+000003PRSWM1Q02    003PRSWM1
0187475170999992000010900004+41230+141150FM-15+001099999V0201501N000510075019N0112651N1-00101-00101999999ADDGA1021+003009999GA2071+007509999GF107991999999999999999999MA1102201999999MW1001REMMET07747517 0000Z 15001KT 9999 FEW010 BKN025 M01/M01 Q1022 RMK 1ST010 6CU025 A3019;EQDQ01+000000PRSWM2
0156475170999992000010903004+41230+141150FM-15+001099999V0202201N002610090019N0112651N1+00301-00201999999ADDGA1071+009009999GF107991999999999999999999MA1102101999999MW1001REMMET06247517 0300Z 22005KT 9999 BKN030 03/M02 Q1021 RMK 7CU030 A3017;EQDQ01+000000PRSWM2
0205475170999992000011000004+41230+141150FM-15+001099999V0202801N001010045019N0060001N1+00301+00201999999ADDGA1071+004509999GA2081+009009999GF108991999999999999999999MA1101021999999MW1611REMMET07947517 0000Z 28002KT 6000 -RA BKN015 OVC030 03/02 Q1010 RMK 5ST015 8SC030 A2985;EQDQ01+000003PRSWM1Q02    003PRSWM1
0210475170999992000011003004+41230+141150FM-15+001099999V0202401N002110090019N0090001N1+00401+00301999999ADDGA1021+004509999GA2081+009009999GF108991999999999999999999MA1100511999999MW1611REMMET08447517 0300Z 24004KT 9000 -RA SCT015 OVC030 04/03 Q1005 RMK 4ST015 8SC030 A2969 P/FR;EQDQ01+000003PRSWM1Q02    003PRSWM1
0207475170999992000011006004+41230+141150FM-15+001099999V0201501N000510090019N0112651N1+00401+00301999999ADDGA1021+004509999GA2071+009009999GF107991999999999999999999MA1100311999999MW1801REMMET08147517 0600Z 15001KT 9999 -SHRA FEW015 BKN030 04/03 Q1003 RMK 2ST015 7CU030 A2962;EQDQ01+000003PRSWM1Q02    003PRSWM1
0209475170999992000011100004+41230+141150FM-15+001099999V0202601N004610060019N0070001N1-00201-00801999999ADDGA1021+002409999GA2071+006009999GF107991999999999999999999MA1101391999999MW1851REMMET08347517 0000Z 26009KT 7000 -SHSN SCT008 BKN020 M02/M08 Q1014 RMK 3CU008 7CU020 A2997;EQDQ01+000003PRSWM1Q02    003PRSWM1
0209475170999992000011103004+41230+141150FM-15+001099999V0202801N003610075019N0112651N1-00201-01001999999ADDGA1021+004509999GA2071+007509999GF107991999999999999999999MA1101491999999MW1851REMMET08347517 0300Z 28007KT 9999 -SHSN FEW015 BKN025 M02/M10 Q1015 RMK 2CU015 7CU025 A2999;EQDQ01+000003PRSWM1Q02    003PRSWM1
0209475170999992000011106004+41230+141150FM-15+001099999V0202101N001510030019N0030001N1-00301-00601999999ADDGA1071+003009999GA2071+006009999GF107991999999999999999999MA1101691999999MW1851REMMET08347517 0600Z 21003KT 3000 -SHSN BKN010 BKN020 M03/M06 Q1017 RMK 5CU010 7CU020 A3004;EQDQ01+000003PRSWM1Q02    003PRSWM1
0209475170999992000011200004+41230+141150FM-15+001099999V0203101N002110075019N0112651N1-00201-01001999999ADDGA1021+004509999GA2071+007509999GF107991999999999999999999MA1102611999999MW1851REMMET08347517 0000Z 31004KT 9999 -SHSN FEW015 BKN025 M02/M10 Q1026 RMK 2CU015 6CU025 A3031;EQDQ01+000003PRSWM1Q02    003PRSWM1
0187475170999992000011203004+41230+141150FM-15+001099999V0201601N001510090019N0112651N1-00101-00701999999ADDGA1021+004509999GA2071+009009999GF107991999999999999999999MA1102511999999MW1001REMMET07747517 0300Z 16003KT 9999 FEW015 BKN030 M01/M07 Q1025 RMK 2CU015 5CU030 A3029;EQDQ01+000000PRSWM2
0186475170999992000011206004+41230+141150FM-15+001099999V0203201N001510090019N0112651N1+00001-00801999999ADDGA1021+006009999GA2071+009009999GF107991999999999999999999MA1102511999999MW1001REMMET07647517 0600Z 32003KT 9999 FEW020 BKN030 00/M08 Q1025 RMK 1CU020 5CU030 A3029;EQDQ01+000000PRSWM2
0207475170999992000011400004+41230+141150FM-15+001099999V0209999C000010090019N0080001N1+00401+00301999999ADDGA1071+009009999GA2071+024009999GF107991999999999999999999MA1100311999999MW1801REMMET08147517 0000Z 00000KT 8000 -SHRA BKN030 BKN080 04/03 Q1003 RMK 5CU030 7AC080 A2963;EQDQ01+000003PRSWM1Q02    003PRSWM1
0207475170999992000011403004+41230+141150FM-15+001099999V0200801N001010045019N0060001N1+00501+00401999999ADDGA1071+004509999GA2071+007509999GF107991999999999999999999MA1100201999999MW1801REMMET08147517 0300Z 08002KT 6000 -SHRA BKN015 BKN025 05/04 Q1002 RMK 5CU015 7CU025 A2961;EQDQ01+000003PRSWM1Q02    003PRSWM1
0207475170999992000011406004+41230+141150FM-15+001099999V0201601N001010075019N0112651N1+00501+00401999999ADDGA1021+004509999GA2071+007509999GF107991999999999999999999MA1100411999999MW1801REMMET08147517 0600Z 16002KT 9999 -SHRA SCT015 BKN025 05/04 Q1004 RMK 4CU015 7CU025 A2968;EQDQ01+000003PRSWM1Q02    003PRSWM1
0179475170999992000011500004+41230+141150FM-15+001099999V0200501N001010600019N0112651N1+00301-00601999999ADDGA1021+009009999GA2071+060009999GF107991999999999999999999MA1101901999999MW1001REMMET06947517 0000Z 05002KT 9999 FEW030 BKN200 03/M06 Q1019 RMK 1CU030 A3011;EQDQ01+000000PRSWM2
0209475170999992000011503004+41230+141150FM-15+001099999V0200201N001510090019N0112651N1+00401-00501999999ADDGA1071+009009999GA2021+030009999GA3071+060009999GF107991999999999999999999MA1102001999999MW1001REMMET08347517 0300Z 02003KT 9999 BKN030 SCT100 BKN200 04/M05 Q1020 RMK 5CU030 4AC100 A3013;EQDQ01+000000PRSWM2
0186475170999992000011506004+41230+141150FM-15+001099999V0200501N001510090019N0112651N1+00401-00601999999ADDGA1071+009009999GA2071+030009999GF107991999999999999999999MA1102001999999MW1001REMMET07647517 0600Z 05003KT 9999 BKN030 BKN100 04/M06 Q1020 RMK 5CU030 5AC100 A3014;EQDQ01+000000PRSWM2
0180475170999992000011600004+41230+141150FM-15+001099999V0200901N000512200019N0112651N1+00001-00301999999ADDGA1021+009009999GA2021+060009999GF104991999999999999999999MA1102301999999MW1001REMMET07047517 0000Z 09001KT 9999 FEW030 SCT200 M00/M03 Q1023 RMK 1CU030 A3022;EQDQ01+000000PRSWM2
0209475170999992000011603004+41230+141150FM-15+001099999V0202201N001510240019N0112651N1+00301-00501999999ADDGA1021+009009999GA2071+024009999GA3071+060009999GF107991999999999999999999MA1102101999999MW1001REMMET08347517 0300Z 22003KT 9999 FEW030 BKN080 BKN200 03/M05 Q1021 RMK 1CU030 5AC080 A3015;EQDQ01+000000PRSWM2
0179475170999992000011606004+41230+141150FM-15+001099999V0202301N000510600019N0112651N1+00401-00401999999ADDGA1021+024009999GA2071+060009999GF107991999999999999999999MA1101801999999MW1001REMMET06947517 0600Z 23001KT 9999 SCT080 BKN200 04/M04 Q1018 RMK 3AC080 A3008;EQDQ01+000000PRSWM2
0169475170999992000011700004+41230+141150FM-15+001099999V0202601N00211000151CN0006001N1+00101-00101999999ADDGA1091+000159999GF109991999999000251999999MA1101591999999MW1861REMMET05947517 0000Z 26004KT 0600 SHSN VV008 01/M01 Q1016 RMK A3001;EQDQ01+000003PRSWM1Q02    003PRSWM1
0156475170999992000011703004+41230+141150FM-15+001099999V0202601N003110090019N0112651N1+00201-00301999999ADDGA1071+009009999GF107991999999999999999999MA1101491999999MW1001REMMET06247517 0300Z 26006KT 9999 BKN030 02/M03 Q1015 RMK 7CU030 A3000;EQDQ01+000000PRSWM2
0156475170999992000011706004+41230+141150FM-15+001099999V0202501N003110090019N0112651N1+00201-00501999999ADDGA1071+009009999GF107991999999999999999999MA1101391999999MW1001REMMET06247517 0600Z 25006KT 9999 BKN030 02/M05 Q1014 RMK 7CU030 A2997;EQDQ01+000000PRSWM2
0156475170999992000011800004+41230+141150FM-15+001099999V0201901N001510090019N0112651N1+00001-00501999999ADDGA1071+009009999GF107991999999999999999999MA1101491999999MW1001REMMET06247517 0000Z 19003KT 9999 BKN030 00/M05 Q1015 RMK 6CU030 A2998;EQDQ01+000000PRSWM2
0156475170999992000011803004+41230+141150FM-15+001099999V0201701N003112200019N0112651N1+00301-00301999999ADDGA1021+009009999GF104991999999999999999999MA1101291999999MW1001REMMET06247517 0300Z 17006KT 9999 SCT030 03/M03 Q1013 RMK 3CU030 A2992;EQDQ01+000000PRSWM2
0208475170999992000011806004+41230+141150FM-15+001099999V0202001N001510090019N0112651N1+00201+00001999999ADDGA1021+004509999GA2071+009009999GF107991999999999999999999MA1101191999999MW1851REMMET08247517 0600Z 20003KT 9999 -SHSN SCT015 BKN030 02/M00 Q1012 RMK 3CU015 7CU030 A2991;EQDQ01+000003PRSWM1Q02    003PRSWM1
0237475170999992000011900004+41230+141150FM-15+001099999V0202501N003110045019N0112651N1+00101+00001999999ADDGA1021+003009999GA2071+004509999GA3071+007509999GF107991999999999999999999MA1101391999999MW1851REMMET09547517 0000Z 25006KT 9999 -SHSN FEW010 BKN015 BKN025 01/00 Q1014 RMK 1ST010 5ST015 7CU025 A2995;EQDQ01+000003PRSWM1Q02    003PRSWM1
0237475170999992000011903004+41230+141150FM-15+001099999V0202701N001510045019N0020001N1+00201+00001999999ADDGA1021+003009999GA2071+004509999GA3071+007509999GF107991999999999999999999MA1101291999999MW1851REMMET09547517 0300Z 27003KT 2000 -SHSN FEW010 BKN015 BKN025 02/00 Q1013 RMK 2ST010 6ST015 7CU025 A2993;EQDQ01+000003PRSWM1Q02    003PRSWM1
0209475170999992000011906004+41230+141150FM-15+001099999V0202401N002610240019N0112651N1+00301-00101999999ADDGA1021+007509999GA2071+024009999GA3071+060009999GF107991999999999999999999MA1101191999999MW1001REMMET08347517 0600Z 24005KT 9999 FEW025 BKN080 BKN200 03/M01 Q1012 RMK 1CU025 5AC080 A2989;EQDQ01+000000PRSWM2
0207475170999992000012000004+41230+141150FM-15+001099999V0200401N004110045019N0040001N1+00201+00101999999ADDGA1071+004509999GA2071+007509999GF107991999999999999999999MA1100411999999MW1851REMMET08147517 0000Z 04008KT 4000 -SHSN BKN015 BKN025 02/01 Q1004 RMK 5CU015 7CU025 A2967;EQDQ01+000003PRSWM1Q02    003PRSWM1
0207475170999992000012003004+41230+141150FM-15+001099999V0200401N004610045019N0060001N1+00101+00101999999ADDGA1071+004509999GA2071+007509999GF107991999999999999999999MA1100311999999MW1851REMMET08147517 0300Z 04009KT 6000 -SHSN BKN015 BKN025 01/01 Q1003 RMK 5CU015 7CU025 A2963;EQDQ01+000003PRSWM1Q02    003PRSWM1
0216475170999992000012006004+41230+141150FM-15+001099999V0202701N002110300019N0112651N1+00301-00101999999ADDGA1021+004509999GA2021+013509999GA3071+030009999GF107991999999999999999999MA1100411999999MW1001REMMET09047517 0600Z 27004KT 9999 SCT015 SCT045 BKN100 03/M01 Q1004 RMK 3CU015 3SC045 7AC100 A2966;EQDQ01+000000PRSWM2
0186475170999992000012103004+41230+141150FM-15+001099999V0203501N003112200019N0112651N1+00101-00701999999ADDGA1021+004509999GA2021+009009999GF104991999999999999999999MA1101391999999MW1001REMMET07647517 0300Z 35006KT 9999 FEW015 SCT030 01/M07 Q1014 RMK 1CU015 3CU030 A2994;EQDQ01+000000PRSWM2
0209475170999992000012106004+41230+141150FM-15+001099999V0203401N005110090019N0112651N1-00101-00701999999ADDGA1021+004509999GA2071+009009999GF107991999999999999999999MA1101591999999MW1851REMMET08347517 0600Z 34010KT 9999 -SHSN FEW015 BKN030 M01/M07 Q1016 RMK 2CU015 5CU030 A3001;EQDQ01+000003PRSWM1Q02    003PRSWM1
0157475170999992000012200004+41230+141150FM-15+001099999V0201701N001010090019N0112651N1-00201-00701999999ADDGA1071+009009999GF107991999999999999999999MA1102811999999MW1001REMMET06347517 0000Z 17002KT 9999 BKN030 M02/M07 Q1028 RMK 6CU030 A3036;EQDQ01+000000PRSWM2
0179475170999992000012203004+41230+141150FM-15+001099999V0202601N004610075019N0112651N1-00101-00501999999ADDGA1071+007509999GF107991999999999999999999MA1102611999999MW1851REMMET06947517 0300Z 26009KT 9999 -SHSN BKN025 M01/M05 Q1026 RMK 6CU025 A3032;EQDQ01+000003PRSWM1Q02    003PRSWM1
0209475170999992000012206004+41230+141150FM-15+001099999V0202201N003110060019N0020001N1+00001-00401999999ADDGA1021+003009999GA2071+006009999GF107991999999999999999999MA1102611999999MW1851REMMET08347517 0600Z 22006KT 2000 -SHSN SCT010 BKN020 M00/M04 Q1026 RMK 3ST010 7CU020 A3030;EQDQ01+000003PRSWM1Q02    003PRSWM1
0216475170999992000012300004+41230+141150FM-15+001099999V0202101N003610075019N0112651N1+00201-00101999999ADDGA1021+004509999GA2071+007509999GA3071+030009999GF107991999999999999999999MA1101801999999MW1001REMMET09047517 0000Z 21007KT 9999 FEW015 BKN025 BKN100 02/M01 Q1018 RMK 2CU015 5CU025 6AC100 A3007;EQDQ01+000000PRSWM2
0237475170999992000012303004+41230+141150FM-15+001099999V0202101N002610045019N0070001N1+00101+00101999999ADDGA1021+001509999GA2021+003009999GA3081+004509999GF108991999999999999999999MA1101591999999MW1851REMMET09547517 0300Z 21005KT 7000 -SHSN FEW005 SCT010 OVC015 01/01 Q1016 RMK 2ST005 4CU010 8CU015 A3002;EQDQ01+000003PRSWM1Q02    003PRSWM1
0185475170999992000012306004+41230+141150FM-15+001099999V0200801N002110075019N0112651N1+00301+00001999999ADDGA1021+004509999GA2071+007509999GF107991999999999999999999MA1101591999999MW1001REMMET07547517 0600Z 08004KT 9999 FEW015 BKN025 03/00 Q1016 RMK 2CU015 7CU025 A3001;EQDQ01+000000PRSWM2
0186475170999992000012400004+41230+141150FM-15+001099999V0202401N001010300019N0112651N1+00101-00401999999ADDGA1021+007509999GA2071+030009999GF107991999999999999999999MA1101691999999MW1001REMMET07647517 0000Z 24002KT 9999 SCT025 BKN100 01/M04 Q1017 RMK 3CU025 7AC100 A3004;EQDQ01+000000PRSWM2
0219475170999992000012403004+41230+141150FM-15+001099999V0202701N004610090019N0112651N1+00201-00601999999ADDGA1021+004509999GA2071+009009999GF107991999999999999999999MA1101391999999MW1851OC101131REMMET08547517 0300Z 27009G22KT 9999 -SHSN FEW015 BKN030 02/M06 Q1014 RMK 2CU015 6CU030 A2997;EQDQ01+000003PRSWM1Q02    003PRSWM1
0209475170999992000012406004+41230+141150FM-15+001099999V0202401N002610045019N0020001N1-00201-00301999999ADDGA1021+003009999GA2071+004509999GF107991999999999999999999MA1101391999999MW1851REMMET08347517 0600Z 24005KT 2000 -SHSN SCT010 BKN015 M02/M03 Q1014 RMK 3ST010 7CU015 A2996;EQDQ01+000003PRSWM1Q02    003PRSWM1
0239475170999992000012500004+41230+141150FM-15+001099999V0202401N002110060019N0080001N1-00701-01001999999ADDGA1021+003009999GA2071+006009999GA3071+024009999GF107991999999999999999999MA1101591999999MW1851REMMET09747517 0000Z 24004KT 8000 -SHSN FEW010 BKN020 BKN080 M07/M10 Q1016 RMK 2CU010 5CU020 7AC080 A3002;EQDQ01+000003PRSWM1Q02    003PRSWM1
0157475170999992000012503004+41230+141150FM-15+001099999V0202701N004610075019N0112651N1-00501-01301999999ADDGA1071+007509999GF107991999999999999999999MA1101291999999MW1001REMMET06347517 0300Z 27009KT 9999 BKN025 M05/M13 Q1013 RMK 5CU025 A2993;EQDQ01+000000PRSWM2
0209475170999992000012506004+41230+141150FM-15+001099999V0202601N002610090019N0112651N1-00601-01301999999ADDGA1021+004509999GA2071+009009999GF107991999999999999999999MA1101291999999MW1851REMMET08347517 0600Z 26005KT 9999 -SHSN FEW015 BKN030 M06/M13 Q1013 RMK 2CU015 7CU030 A2992;EQDQ01+000003PRSWM1Q02    003PRSWM1
0187475170999992000012603004+41230+141150FM-15+001099999V0202201N001512200019N0112651N1-00401-01101999999ADDGA1021+004509999GA2021+009009999GF104991999999999999999999MA1101491999999MW1001REMMET07747517 0300Z 22003KT 9999 FEW015 SCT030 M04/M11 Q1015 RMK 1CU015 3CU030 A2999;EQDQ01+000000PRSWM2
0157475170999992000012606004+41230+141150FM-15+001099999V0200301N002612200019N0112651N1-00501-01001999999ADDGA1021+009009999GF102991999999999999999999MA1101491999999MW1001REMMET06347517 0600Z 03005KT 9999 FEW030 M05/M10 Q1015 RMK 2CU030 A3000;EQDQ01+000000PRSWM2
0187475170999992000012700004+41230+141150FM-15+001099999V0202401N001010120019N0112651N1-00501-01201999999ADDGA1021+009009999GA2071+012009999GF107991999999999999999999MA1102101999999MW1001REMMET07747517 0000Z 24002KT 9999 FEW030 BKN040 M05/M12 Q1021 RMK 2CU030 7SC040 A3015;EQDQ01+000000PRSWM2
0187475170999992000012703004+41230+141150FM-15+001099999V0201901N001010120019N0112651N1-00201-01001999999ADDGA1021+009009999GA2071+012009999GF107991999999999999999999MA1101901999999MW1001REMMET07747517 0300Z 19002KT 9999 SCT030 BKN040 M02/M10 Q1019 RMK 4CU030 7SC040 A3012;EQDQ01+000000PRSWM2
0209475170999992000012800004+41230+141150FM-15+001099999V0202301N001510075019N0040001N1-00101-00101999999ADDGA1021+004509999GA2071+007509999GF107991999999999999999999MA1102101999999MW1851REMMET08347517 0000Z 23003KT 4000 -SHSN SCT015 BKN025 M01/M01 Q1021 RMK 3CU015 7CU025 A3017;EQDQ01+000003PRSWM1Q02    003PRSWM1
0186475170999992000012803004+41230+141150FM-15+001099999V0202301N002110090019N0112651N1+00201-00301999999ADDGA1021+006009999GA2071+009009999GF107991999999999999999999MA1102101999999MW1001REMMET07647517 0300Z 23004KT 9999 FEW020 BKN030 02/M03 Q1021 RMK 2CU020 6CU030 A3016;EQDQ01+000000PRSWM2
0186475170999992000012806004+41230+141150FM-15+001099999V0202601N002610090019N0112651N1+00201-00601999999ADDGA1021+006009999GA2071+009009999GF107991999999999999999999MA1102201999999MW1001REMMET07647517 0600Z 26005KT 9999 FEW020 BKN030 02/M06 Q1022 RMK 1CU020 6CU030 A3020;EQDQ01+000000PRSWM2
0156475170999992000012900004+41230+141150FM-15+001099999V0209999C000010105019N0112651N1+00101-00201999999ADDGA1071+010509999GF107991999999999999999999MA1102911999999MW1001REMMET06247517 0000Z 00000KT 9999 BKN035 01/M02 Q1029 RMK 7CU035 A3041;EQDQ01+000000PRSWM2
0156475170999992000012903004+41230+141150FM-15+001099999V0202401N003610105019N0112651N1+00501-00401999999ADDGA1071+010509999GF107991999999999999999999MA1102811999999MW1001REMMET06247517 0300Z 24007KT 9999 BKN035 05/M04 Q1028 RMK 6CU035 A3037;EQDQ01+000000PRSWM2
0156475170999992000012906004+41230+141150FM-15+001099999V0202301N003110090019N0112651N1+00401-00301999999ADDGA1071+009009999GF107991999999999999999999MA1102711999999MW1001REMMET06247517 0600Z 23006KT 9999 BKN030 04/M03 Q1027 RMK 7CU030 A3035;EQDQ01+000000PRSWM2
0185475170999992000013000004+41230+141150FM-15+001099999V0202401N002110045019N0112651N1+00301+00101999999ADDGA1071+004509999GA2071+009009999GF107991999999999999999999MA1101691999999MW1001REMMET07547517 0000Z 24004KT 9999 BKN015 BKN030 03/01 Q1017 RMK 5CU015 7CU030 A3005;EQDQ01+000000PRSWM2
0237475170999992000013003004+41230+141150FM-15+001099999V0202301N003610045019N0112651N1+00301+00201999999ADDGA1021+002409999GA2071+004509999GA3081+009009999GF108991999999999999999999MA1101391999999MW1801REMMET09547517 0300Z 23007KT 9999 -SHRA FEW008 BKN015 OVC030 03/02 Q1014 RMK 2ST008 6CU015 8CU030 A2996;EQDQ01+000003PRSWM1Q02    003PRSWM1
0200475170999992000013006004+41230+141150FM-15+001099999V0202201N003110075019N0112651N1+00301+00101999999ADDGA1071+007509999GA2071+060009999GF107991999999999999999999MA1101081999999MW1801REMMET07447517 0600Z 22006KT 9999 -SHRA BKN025 BKN200 03/01 Q1011 RMK 5CU025 A2988;EQDQ01+000003PRSWM1Q02    003PRSWM1
0160475170999992000013100004+41230+141150FM-15+001099999V0200201N002612200019N0112651N1-00201-01001999999ADDGA1021+009009999GF102991999999999999999999MA1101801999999MW1001REMMET06647517 0000Z COR 02005KT 9999 FEW030 M02/M10Q1018 RMK 2CU030 A3006;EQDQ01+000000PRSWM2
0157475170999992000013103004+41230+141150FM-15+001099999V0200301N003112200019N0112651N1+00001-01001999999ADDGA1021+009009999GF102991999999999999999999MA1101691999999MW1001REMMET06347517 0300Z 03006KT 9999 FEW030 M00/M10 Q1017 RMK 2CU030 A3005;EQDQ01+000000PRSWM2
0239475170999992000013106004+41230+141150FM-15+001099999V0202901N001510060019N0060001N1-00101-00701999999ADDGA1021+004509999GA2071+006009999GA3071+009009999GF107991999999999999999999MA1101691999999MW1851REMMET09747517 0600Z 29003KT 6000 -SHSN FEW015 BKN020 BKN030 M01/M07 Q1017 RMK 2CU015 5CU020 7CU030 A3005;EQDQ01+000003PRSWM1Q02    003PRSWM1
0208475170999992000020100004+41230+141150FM-15+001099999V0202201N004110090019N0112651N1+00201-00401999999ADDGA1021+006009999GA2071+009009999GF107991999999999999999999MA1101591999999MW1851REMMET08247517 0000Z 22008KT 9999 -SHSN FEW020 BKN030 02/M04 Q1016 RMK 2CU020 7CU030 A3003;EQDQ01+000003PRSWM1Q02    003PRSWM1
0219475170999992000020103004+41230+141150FM-15+001099999V0202501N009310090019N0112651N1+00301-00301999999ADDGA1021+006009999GA2071+009009999GF107991999999999999999999MA1101491999999MW1851OC101541REMMET08547517 0300Z 25018G30KT 9999 -SHSN FEW020 BKN030 03/M03 Q1015 RMK 2CU020 7CU030 A2998;EQDQ01+000003PRSWM1Q02    003PRSWM1
0208475170999992000020106004+41230+141150FM-15+001099999V0202301N005110075019N0112651N1+00201-00201999999ADDGA1021+004509999GA2071+007509999GF107991999999999999999999MA1101491999999MW1851REMMET08247517 0600Z 23010KT 9999 -SHSN FEW015 BKN025 02/M02 Q1015 RMK 2CU015 7CU025 A2998;EQDQ01+000003PRSWM1Q02    003PRSWM1
0186475170999992000020200004+41230+141150FM-15+001099999V0200401N000510090019N0112651N1+00201-00201999999ADDGA1021+004509999GA2071+009009999GF107991999999999999999999MA1101591999999MW1001REMMET07647517 0000Z 04001KT 9999 SCT015 BKN030 02/M02 Q1016 RMK 3CU015 7CU030 A3003;EQDQ01+000000PRSWM2
0156475170999992000020203004+41230+141150FM-15+001099999V0202601N002110090019N0112651N1+00301-00501999999ADDGA1071+009009999GF107991999999999999999999MA1101591999999MW1001REMMET06247517 0300Z 26004KT 9999 BKN030 03/M05 Q1016 RMK 6CU030 A3001;EQDQ01+000000PRSWM2
0156475170999992000020206004+41230+141150FM-15+001099999V0202401N003610090019N0112651N1+00501-00401999999ADDGA1071+009009999GF107991999999999999999999MA1101591999999MW1001REMMET06247517 0600Z 24007KT 9999 BKN030 05/M04 Q1016 RMK 7CU030 A3002;EQDQ01+000000PRSWM2
0208475170999992000020300004+41230+141150FM-15+001099999V0202601N000510045019N0030001N1+00101+00001999999ADDGA1021+002409999GA2081+004509999GF108991999999999999999999MA1102001999999MW1851REMMET08247517 0000Z 26001KT 3000 -SHSN FEW008 OVC015 01/M00 Q1020 RMK 2ST008 8CU015 A3013;EQDQ01+000003PRSWM1Q02    003PRSWM1
0237475170999992000020303004+41230+141150FM-15+001099999V0209999C000010045019N0040001N1+00101+00101999999ADDGA1021+002409999GA2071+004509999GA3071+007509999GF107991999999999999999999MA1101801999999MW1851REMMET09547517 0300Z 00000KT 4000 -SHSN FEW008 BKN015 BKN025 01/01 Q1018 RMK 2ST008 5CU015 7CU025 A3008;EQDQ01+000003PRSWM1Q02    003PRSWM1
0245475170999992000020306004+41230+141150FM-15+001099999V0203201N001010045019N0040001N1+00201+00101999999ADDGA1021+002409999GA2071+004509999GA3081+007509999GF108991999999999999999999MA1101691999999MW1801MW2851REMMET09747517 0600Z 32002KT 4000 -SHRASN FEW008 BKN015 OVC025 02/01 Q1017 RMK 2ST008 6CU015 8CU025 A3005;EQDQ01+000003PRSWM1Q02    003PRSWM1
0178475170999992000020400004+41230+141150FM-15+001099999V0200201N002610075019N0112651N1+00301-00201999999ADDGA1071+007509999GF107991999999999999999999MA1101691999999MW1851REMMET06847517 0000Z 02005KT 9999 -SHSN BKN025 03/M02 Q1017 RMK 6CU025 A3004;EQDQ01+000003PRSWM1Q02    003PRSWM1
0156475170999992000020403004+41230+141150FM-15+001099999V0200201N002110090019N0112651N1+00301-00301999999ADDGA1071+009009999GF107991999999999999999999MA1101691999999MW1001REMMET06247517 0300Z 02004KT 9999 BKN030 03/M03 Q1017 RMK 7CU030 A3005;EQDQ01+000000PRSWM2
0156475170999992000020406004+41230+141150FM-15+001099999V0200401N003110090019N0112651N1+00301-00501999999ADDGA1071+009009999GF107991999999999999999999MA1101801999999MW1001REMMET06247517 0600Z 04006KT 9999 BKN030 03/M05 Q1018 RMK 5CU030 A3007;EQDQ01+000000PRSWM2
0178475170999992000020500004+41230+141150FM-15+001099999V0202101N000510075019N0112651N1+00001-00101999999ADDGA1071+007509999GF107991999999999999999999MA1102201999999MW1851REMMET06847517 0000Z 21001KT 9999 -SHSN BKN025 00/M01 Q1022 RMK 6CU025 A3018;EQDQ01+000003PRSWM1Q02    003PRSWM1
0156475170999992000020503004+41230+141150FM-15+001099999V0202701N002610090019N0112651N1+00401-00401999999ADDGA1071+009009999GF107991999999999999999999MA1102101999999MW1001REMMET06247517 0300Z 27005KT 9999 BKN030 04/M04 Q1021 RMK 7CU030 A3015;EQDQ01+000000PRSWM2
0156475170999992000020506004+41230+141150FM-15+001099999V0202601N003610090019N0112651N1+00301-00601999999ADDGA1071+009009999GF107991999999999999999999MA1102001999999MW1001REMMET06247517 0600Z 26007KT 9999 BKN030 03/M06 Q1020 RMK 7CU030 A3014;EQDQ01+000000PRSWM2
0209475170999992000020600004+41230+141150FM-15+001099999V0201301N001010600019N0112651N1+00001-00401999999ADDGA1021+009009999GA2021+030009999GA3071+060009999GF107991999999999999999999MA1101801999999MW1001REMMET08347517 0000Z 13002KT 9999 SCT030 SCT100 BKN200 00/M04 Q1018 RMK 3CU030 3AC100 A3008;EQDQ01+000000PRSWM2
0216475170999992000020603004+41230+141150FM-15+001099999V0201001N000510300019N0112651N1+00101-00501999999ADDGA1021+009009999GA2021+015009999GA3071+030009999GF107991999999999999999999MA1101591999999MW1001REMMET09047517 0300Z 10001KT 9999 FEW030 SCT050 BKN100 01/M05 Q1016 RMK 1CU030 3SC050 7AC100 A3001;EQDQ01+000000PRSWM2
0209475170999992000020606004+41230+141150FM-15+001099999V0201601N001010600019N0112651N1+00201-00401999999ADDGA1021+009009999GA2021+030009999GA3071+060009999GF107991999999999999999999MA1101291999999MW1001REMMET08347517 0600Z 16002KT 9999 SCT030 SCT100 BKN200 02/M04 Q1013 RMK 3CU030 3AC100 A2994;EQDQ01+000000PRSWM2
0206475170999992000020700004+41230+141150FM-15+001099999V0200401N004110090019N0050001N1+00001-00101999999ADDGA1021+006009999GA2081+009009999GF108991999999999999999999MA1100511999999MW1711REMMET08047517 0000Z 04008KT 5000 -SN SCT020 OVC030 00/M01 Q1005 RMK 4SC020 8SC030 A2971;EQDQ01+000003PRSWM1Q02    003PRSWM1
0208475170999992000020703004+41230+141150FM-15+001099999V0200601N003110090019N0112651N1+00101-00101999999ADDGA1021+004509999GA2071+009009999GF107991999999999999999999MA1100511999999MW1851REMMET08247517 0300Z 06006KT 9999 -SHSN SCT015 BKN030 01/M01 Q1005 RMK 3CU015 7CU030 A2970;EQDQ01+000003PRSWM1Q02    003PRSWM1
0185475170999992000020800004+41230+141150FM-15+001099999V0200701N001010060019N0112651N1+00201+00001999999ADDGA1071+006009999GA2071+024009999GF107991999999999999999999MA1099901999999MW1001REMMET07547517 0000Z 07002KT 9999 BKN020 BKN080 02/00 Q0999 RMK 6CU020 7AC080 A2951;EQDQ01+000000PRSWM2
0186475170999992000020803004+41230+141150FM-15+001099999V0200201N002610060019N0112651N1+00301+00001999999ADDGA1021+004509999GA2071+006009999GF107991999999999999999999MA1099591999999MW1001REMMET07647517 0300Z 02005KT 9999 SCT015 BKN020 03/M00 Q0996 RMK 3CU015 7CU020 A2941;EQDQ01+000000PRSWM2
0208475170999992000020806004+41230+141150FM-15+001099999V0200301N004610045019N0112651N1+00101+00001999999ADDGA1021+002409999GA2081+004509999GF108991999999999999999999MA1099391999999MW1851REMMET08247517 0600Z 03009KT 9999 -SHSN FEW008 OVC015 01/M00 Q0994 RMK 2ST008 8CU015 A2937;EQDQ01+000003PRSWM1Q02    003PRSWM1
0187475170999992000020900004+41230+141150FM-15+001099999V0201201N001010075019N0112651N1-00101-00701999999ADDGA1021+003009999GA2071+007509999GF107991999999999999999999MA1099901999999MW1001REMMET07747517 0000Z 12002KT 9999 FEW010 BKN025 M01/M07 Q0999 RMK 1ST010 6CU025 A2950;EQDQ01+000000PRSWM2
0179475170999992000020903004+41230+141150FM-15+001099999V0203501N003112200019N0112651N1+00101-00801999999ADDGA1021+007509999GA2021+060009999GF104991999999999999999999MA1100001999999MW1001REMMET06947517 0300Z 35006KT 9999 SCT025 SCT200 01/M08 Q1000 RMK 3CU025 A2954;EQDQ01+000000PRSWM2
0209475170999992000021000004+41230+141150FM-15+001099999V0202101N000510075019N0112651N1-00101-00601999999ADDGA1021+006009999GA2071+007509999GF107991999999999999999999MA1100811999999MW1851REMMET08347517 0000Z 21001KT 9999 -SHSN FEW020 BKN025 M01/M06 Q1008 RMK 2CU020 7CU025 A2977;EQDQ01+000003PRSWM1Q02    003PRSWM1
0208475170999992000021003004+41230+141150FM-15+001099999V0202501N004110090019N0112651N1+00101-00701999999ADDGA1021+006009999GA2071+009009999GF107991999999999999999999MA1100811999999MW1851REMMET08247517 0300Z 25008KT 9999 -SHSN FEW020 BKN030 01/M07 Q1008 RMK 2CU020 7CU030 A2977;EQDQ01+000003PRSWM1Q02    003PRSWM1
0208475170999992000021006004+41230+141150FM-15+001099999V0202401N005110024019N0010001N1-00101-00401999999ADDGA1071+002409999GA2081+004509999GF108991999999999999999999MA1100811999999MW1861REMMET08247517 0600Z 24010KT 1000 SHSN BKN008 OVC015 M01/M04 Q1008 RMK 5ST008 8CU015 A2979;EQDQ01+000003PRSWM1Q02    003PRSWM1
0208475170999992000021100004+41230+141150FM-15+001099999V0202301N002110090019N0112651N1+00101-00501999999ADDGA1021+004509999GA2071+009009999GF107991999999999999999999MA1100811999999MW1851REMMET08247517 0000Z 23004KT 9999 -SHSN FEW015 BKN030 01/M05 Q1008 RMK 2CU015 7CU030 A2979;EQDQ01+000003PRSWM1Q02    003PRSWM1
0219475170999992000021103004+41230+141150FM-15+001099999V0202401N003610090019N0112651N1+00301-00501999999ADDGA1021+006009999GA2071+009009999GF107991999999999999999999MA1100711999999MW1851OC100931REMMET08547517 0300Z 24007G18KT 9999 -SHSN FEW020 BKN030 03/M05 Q1007 RMK 1CU020 6CU030 A2975;EQDQ01+000003PRSWM1Q02    003PRSWM1
0208475170999992000021106004+41230+141150FM-15+001099999V0202601N002110045019N0050001N1+00001-00201999999ADDGA1071+004509999GA2071+009009999GF107991999999999999999999MA1100611999999MW1851REMMET08247517 0600Z 26004KT 5000 -SHSN BKN015 BKN030 00/M02 Q1006 RMK 5CU015 7CU030 A2973;EQDQ01+000003PRSWM1Q02    003PRSWM1
0209475170999992000021200004+41230+141150FM-15+001099999V0202701N002610600019N0112651N1+00001-00901999999ADDGA1021+009009999GA2021+030009999GA3071+060009999GF107991999999999999999999MA1100811999999MW1001REMMET08347517 0000Z 27005KT 9999 SCT030 SCT100 BKN200 00/M09 Q1008 RMK 3CU030 4AC100 A2978;EQDQ01+000000PRSWM2
0238475170999992000021203004+41230+141150FM-15+001099999V0202501N005110090019N0112651N1+00101-00601999999ADDGA1021+007509999GA2071+009009999GA3071+030009999GF107991999999999999999999MA1100611999999MW1851REMMET09647517 0300Z 25010KT 9999 -SHSN FEW025 BKN030 BKN100 01/M06 Q1006 RMK 2CU025 6CU030 7AC100 A2973;EQDQ01+000003PRSWM1Q02    003PRSWM1
0208475170999992000021206004+41230+141150FM-15+001099999V0202501N001010090019N0112651N1+00101-00601999999ADDGA1021+007509999GA2071+009009999GF107991999999999999999999MA1100611999999MW1851REMMET08247517 0600Z 25002KT 9999 -SHSN FEW025 BKN030 01/M06 Q1006 RMK 2CU025 7CU030 A2973;EQDQ01+000003PRSWM1Q02    003PRSWM1
0187475170999992000021300004+41230+141150FM-15+001099999V0202801N002612200019N0112651N1-00101-00901999999ADDGA1021+004509999GA2021+009009999GF104991999999999999999999MA1101291999999MW1001REMMET07747517 0000Z 28005KT 9999 FEW015 SCT030 M01/M09 Q1013 RMK 1CU015 3CU030 A2992;EQDQ01+000000PRSWM2
0208475170999992000021303004+41230+141150FM-15+001099999V0203301N002610090019N0030001N1+00101-00501999999ADDGA1021+004509999GA2071+009009999GF107991999999999999999999MA1101191999999MW1851REMMET08247517 0300Z 33005KT 3000 -SHSN SCT015 BKN030 01/M05 Q1012 RMK 3CU015 6CU030 A2991;EQDQ01+000003PRSWM1Q02    003PRSWM1
0187475170999992000021306004+41230+141150FM-15+001099999V0202701N002610090019N0112651N1+00001-00901999999ADDGA1021+006009999GA2071+009009999GF107991999999999999999999MA1101191999999MW1001REMMET07747517 0600Z 27005KT 9999 FEW020 BKN030 M00/M09 Q1012 RMK 1CU020 7CU030 A2989;EQDQ01+000000PRSWM2
0209475170999992000021400004+41230+141150FM-15+001099999V0209999C000010045019N0040001N1-00101-00201999999ADDGA1021+001509999GA2081+004509999GF108991999999999999999999MA1100911999999MW1851REMMET08347517 0000Z 00000KT 4000 -SHSN SCT005 OVC015 M01/M02 Q1009 RMK 3ST005 8CU015 A2982;EQDQ01+000003PRSWM1Q02    003PRSWM1
0209475170999992000021403004+41230+141150FM-15+001099999V0202301N002610030019N0015001N1+00001-00101999999ADDGA1021+001509999GA2071+003009999GF107991999999999999999999MA1100711999999MW1851REMMET08347517 0300Z 23005KT 1500 -SHSN SCT005 BKN010 M00/M01 Q1007 RMK 4ST005 7CU010 A2976;EQDQ01+000003PRSWM1Q02    003PRSWM1
0209475170999992000021406004+41230+141150FM-15+001099999V0200701N000510030019N0112651N1+00001-00101999999ADDGA1021+001509999GA2071+003009999GF107991999999999999999999MA1100511999999MW1851REMMET08347517 0600Z 07001KT 9999 -SHSN SCT005 BKN010 M00/M01 Q1005 RMK 3ST005 7CU010 A2968;EQDQ01+000003PRSWM1Q02    003PRSWM1
0209475170999992000021500004+41230+141150FM-15+001099999V0200501N002612200019N0112651N1-00301-00601999999ADDGA1021+002409999GA2021+024009999GF104991999999999999999999MA1099591999999MW1851REMMET08347517 0000Z 05005KT 9999 -SHSN FEW008 SCT080 M03/M06 Q0996 RMK 1ST008 4AC080 A2944;EQDQ01+000003PRSWM1Q02    003PRSWM1
0209475170999992000021503004+41230+141150FM-15+001099999V0202101N001510075019N0045001N1-00201-00601999999ADDGA1021+004509999GA2071+007509999GF107991999999999999999999MA1099491999999MW1851REMMET08347517 0300Z 21003KT 4500 -SHSN SCT015 BKN025 M02/M06 Q0995 RMK 3CU015 7CU025 A2938;EQDQ01+000003PRSWM1Q02    003PRSWM1
0213475170999992000021506004+41230+141150FM-15+001099999V0202701N003110075019N0112651N1-00201-01001999999ADDGA1021+003009999GA2071+007509999GF107991999999999999999999MA1099291999999MW1851REMMET08747517 0600Z COR 27006KT 9999 -SHSN FEW010 BKN025 M02/M10 Q0993 RMK 2CU010 5CU025 A2935;EQDQ01+000003PRSWM1Q02    003PRSWM1
0209475170999992000021600004+41230+141150FM-15+001099999V0202901N002110075019N0112651N1-00301-00901999999ADDGA1071+007509999GA2071+024009999GF107991999999999999999999MA1099591999999MW1851REMMET08347517 0000Z 29004KT 9999 -SHSN BKN025 BKN080 M03/M09 Q0996 RMK 5CU025 7AC080 A2943;EQDQ01+000003PRSWM1Q02    003PRSWM1
0209475170999992000021603004+41230+141150FM-15+001099999V0202701N002110015019N0015001N1-00401-00601999999ADDGA1071+001509999GA2071+004509999GF107991999999999999999999MA1099701999999MW1851REMMET08347517 0300Z 27004KT 1500 -SHSN BKN005 BKN015 M04/M06 Q0997 RMK 5ST005 7CU015 A2945;EQDQ01+000003PRSWM1Q02    003PRSWM1
0156475170999992000021703004+41230+141150FM-15+001099999V0202401N002112200019N0112651N1+00201-00801999999ADDGA1021+009009999GF104991999999999999999999MA1100811999999MW1001REMMET06247517 0300Z 24004KT 9999 SCT030 02/M08 Q1008 RMK 4CU030 A2978;EQDQ01+000000PRSWM2
0179475170999992000021706004+41230+141150FM-15+001099999V0202401N003610075019N0112651N1-00101-00401999999ADDGA1071+007509999GF107991999999999999999999MA1100811999999MW1851REMMET06947517 0600Z 24007KT 9999 -SHSN BKN025 M01/M04 Q1008 RMK 6CU025 A2978;EQDQ01+000003PRSWM1Q02    003PRSWM1
0209475170999992000021800004+41230+141150FM-15+001099999V0202401N001010075019N0112651N1-00101-00301999999ADDGA1021+004509999GA2071+007509999GF107991999999999999999999MA1100911999999MW1851REMMET08347517 0000Z 24002KT 9999 -SHSN FEW015 BKN025 M01/M03 Q1009 RMK 2CU015 7CU025 A2982;EQDQ01+000003PRSWM1Q02    003PRSWM1
0186475170999992000021803004+41230+141150FM-15+001099999V0202601N002110075019N0112651N1+00201-00401999999ADDGA1021+004509999GA2071+007509999GF107991999999999999999999MA1100911999999MW1001REMMET07647517 0300Z 26004KT 9999 FEW015 BKN025 02/M04 Q1009 RMK 2CU015 6CU025 A2980;EQDQ01+000000PRSWM2
0231475170999992000021806004+41230+141150FM-15+001099999V0202801N001510075019N0112651N1+00201-00301999999ADDGA1021+003009999GA2071+007509999GA3071+060009999GF107991999999999999999999MA1100911999999MW1851REMMET08947517 0600Z 28003KT 9999 -SHSN FEW010 BKN025 BKN200 02/M03 Q1009 RMK 2CU010 6CU025 A2980;EQDQ01+000003PRSWM1Q02    003PRSWM1
0157475170999992000021900004+41230+141150FM-15+001099999V0202101N003110090019N0112651N1+00001-00301999999ADDGA1071+009009999GF107991999999999999999999MA1101591999999MW1001REMMET06347517 0000Z 21006KT 9999 BKN030 M00/M03 Q1016 RMK 5CU030 A3002;EQDQ01+000000PRSWM2
0186475170999992000021903004+41230+141150FM-15+001099999V0202501N004112200019N0112651N1+00201-00601999999ADDGA1021+004509999GA2021+009009999GF104991999999999999999999MA1101491999999MW1001REMMET07647517 0300Z 25008KT 9999 FEW015 SCT030 02/M06 Q1015 RMK 1CU015 4CU030 A2998;EQDQ01+000000PRSWM2
0208475170999992000021906004+41230+141150FM-15+001099999V0202501N003610090019N0112651N1+00201-00501999999ADDGA1021+006009999GA2071+009009999GF107991999999999999999999MA1101391999999MW1851REMMET08247517 0600Z 25007KT 9999 -SHSN FEW020 BKN030 02/M05 Q1014 RMK 2CU020 7CU030 A2996;EQDQ01+000003PRSWM1Q02    003PRSWM1
0209475170999992000022000004+41230+141150FM-15+001099999V0201901N001510090019N0112651N1+00101-00101999999ADDGA1021+006009999GA2071+009009999GA3071+060009999GF107991999999999999999999MA1100811999999MW1001REMMET08347517 0000Z 19003KT 9999 FEW020 BKN030 BKN200 01/M01 Q1008 RMK 2CU020 5CU030 A2978;EQDQ01+000000PRSWM2
0179475170999992000022003004+41230+141150FM-15+001099999V0201901N001510600019N0112651N1+00301-00201999999ADDGA1021+007509999GA2071+060009999GF107991999999999999999999MA1100411999999MW1001REMMET06947517 0300Z 19003KT 9999 SCT025 BKN200 03/M02 Q1004 RMK 3CU025 A2967;EQDQ01+000000PRSWM2
0156475170999992000022006004+41230+141150FM-15+001099999V0201401N001012200019N0112651N1+00301-00301999999ADDGA1021+009009999GF102991999999999999999999MA1100201999999MW1001REMMET06247517 0600Z 14002KT 9999 FEW030 03/M03 Q1002 RMK 1CU030 A2960;EQDQ01+000000PRSWM2
0209475170999992000022100004+41230+141150FM-15+001099999V02099999999990030019N0020001N1-00101-00301999999ADDGA1071+003009999GA2071+006009999GF107991999999999999999999MA1100101999999MW1851REMMET08347517 0000Z VRB02KT 2000 -SHSN BKN010 BKN020 M01/M03 Q1001 RMK 5CU010 7CU020 A2957;EQDQ01+000003PRSWM1Q02    003PRSWM1
0209475170999992000022103004+41230+141150FM-15+001099999V0202401N001010060019N0030001N1-00201-00401999999ADDGA1021+003009999GA2071+006009999GF107991999999999999999999MA1100001999999MW1851REMMET08347517 0300Z 24002KT 3000 -SHSN SCT010 BKN020 M02/M04 Q1000 RMK 3CU010 7CU020 A2955;EQDQ01+000003PRSWM1Q02    003PRSWM1
0209475170999992000022106004+41230+141150FM-15+001099999V02099999999990060019N0080001N1-00201-00401999999ADDGA1021+002409999GA2071+006009999GF107991999999999999999999MA1100001999999MW1851REMMET08347517 0600Z VRB02KT 8000 -SHSN SCT008 BKN020 M02/M04 Q1000 RMK 4CU008 7CU020 A2954;EQDQ01+000003PRSWM1Q02    003PRSWM1
0180475170999992000022200004+41230+141150FM-15+001099999V0200301N004610600019N0112651N1-00301-00801999999ADDGA1021+007509999GA2071+060009999GF107991999999999999999999MA1100711999999MW1001REMMET07047517 0000Z 03009KT 9999 FEW025 BKN200 M03/M08 Q1007 RMK 2CU025 A2976;EQDQ01+000000PRSWM2
0180475170999992000022203004+41230+141150FM-15+001099999V0201101N002610600019N0112651N1-00101-00701999999ADDGA1021+009009999GA2071+060009999GF107991999999999999999999MA1100811999999MW1001REMMET07047517 0300Z 11005KT 9999 FEW030 BKN200 M01/M07 Q1008 RMK 1CU030 A2978;EQDQ01+000000PRSWM2
0232475170999992000022206004+41230+141150FM-15+001099999V0201901N001010090019N0112651N1-00201-00501999999ADDGA1021+006009999GA2071+009009999GA3071+060009999GF107991999999999999999999MA1100811999999MW1851REMMET09047517 0600Z 19002KT 9999 -SHSN FEW020 BKN030 BKN200 M02/M05 Q1008 RMK 1CU020 5CU030 A2979;EQDQ01+000003PRSWM1Q02    003PRSWM1
0168475170999992000022306004+41230+141150FM-15+001099999V0202601N005710075019N0112651N1+00001-01001999999ADDGA1071+007509999GF107991999999999999999999MA1101291999999MW1001OC101231REMMET06647517 0600Z 26011G24KT 9999 BKN025 M00/M10 Q1013 RMK 5CU025 A2993;EQDQ01+000000PRSWM2
0157475170999992000022406004+41230+141150FM-15+001099999V0202201N003112200019N0112651N1-00101-00701999999ADDGA1021+004509999GF102991999999999999999999MA1100611999999MW1001REMMET06347517 0600Z 22006KT 9999 FEW015 M01/M07 Q1006 RMK 1CU015 A2972;EQDQ01+000000PRSWM2
0209475170999992000022500004+41230+141150FM-15+001099999V0202601N000510030019N0015001N1-00501-00601999999ADDGA1071+003009999GA2081+004509999GF108991999999999999999999MA1101291999999MW1851REMMET08347517 0000Z 26001KT 1500 -SHSN BKN010 OVC015 M05/M06 Q1013 RMK 5CU010 8CU015 A2992;EQDQ01+000003PRSWM1Q02    003PRSWM1
0209475170999992000022503004+41230+141150FM-15+001099999V0202201N002610075019N0112651N1-00301-00601999999ADDGA1021+004509999GA2071+007509999GF107991999999999999999999MA1101191999999MW1851REMMET08347517 0300Z 22005KT 9999 -SHSN SCT015 BKN025 M03/M06 Q1012 RMK 3CU015 6CU025 A2990;EQDQ01+000003PRSWM1Q02    003PRSWM1
0209475170999992000022506004+41230+141150FM-15+001099999V0202601N002610075019N0050001N1-00301-00701999999ADDGA1021+004509999GA2071+007509999GF107991999999999999999999MA1101191999999MW1851REMMET08347517 0600Z 26005KT 5000 -SHSN SCT015 BKN025 M03/M07 Q1012 RMK 3CU015 7CU025 A2991;EQDQ01+000003PRSWM1Q02    003PRSWM1
0202475170999992000022600004+41230+141150FM-15+001099999V0202201N001010075019N0112651N1-00301-00501999999ADDGA1071+007509999GA2071+060009999GF107991999999999999999999MA1101591999999MW1851REMMET07647517 0000Z 22002KT 9999 -SHSN BKN025 BKN200 M03/M05 Q1016 RMK 5CU025 A3002;EQDQ01+000003PRSWM1Q02    003PRSWM1
0209475170999992000022603004+41230+141150FM-15+001099999V0202001N002110075019N0030001N1-00201-00401999999ADDGA1021+003009999GA2071+007509999GF107991999999999999999999MA1101491999999MW1851REMMET08347517 0300Z 20004KT 3000 -SHSN SCT010 BKN025 M02/M04 Q1015 RMK 3CU010 6CU025 A3000;EQDQ01+000003PRSWM1Q02    003PRSWM1
0170475170999992000022800004+41230+141150FM-15+001099999V0202601N00511000151CN0005001N1-00101-00201999999ADDGA1091+000159999GF109991999999000251999999MA1100911999999MW1861REMMET06047517 0000Z 26010KT 0500 SHSN VV006 M01/M02 Q1009 RMK A2980;EQDQ01+000003PRSWM1Q02    003PRSWM1
0208475170999992000022803004+41230+141150FM-15+001099999V0202401N004610090019N0112651N1+00101-00501999999ADDGA1021+006009999GA2071+009009999GF107991999999999999999999MA1100911999999MW1851REMMET08247517 0300Z 24009KT 9999 -SHSN FEW020 BKN030 01/M05 Q1009 RMK 2CU020 7CU030 A2981;EQDQ01+000003PRSWM1Q02    003PRSWM1
0157475170999992000022900004+41230+141150FM-15+001099999V0202401N002112200019N0112651N1-00101-00501999999ADDGA1021+009009999GF102991999999999999999999MA1101391999999MW1001REMMET06347517 0000Z 24004KT 9999 FEW030 M01/M05 Q1014 RMK 1CU030 A2995;EQDQ01+000000PRSWM2
0156475170999992000022903004+41230+141150FM-15+001099999V0203401N000510090019N0112651N1+00101-00501999999ADDGA1071+009009999GF107991999999999999999999MA1101391999999MW1001REMMET06247517 0300Z 34001KT 9999 BKN030 01/M05 Q1014 RMK 5CU030 A2997;EQDQ01+000000PRSWM2
0156475170999992000022906004+41230+141150FM-15+001099999V0200901N001512200019N0112651N1+00101-00501999999ADDGA1021+009009999GF104991999999999999999999MA1101391999999MW1001REMMET06247517 0600Z 09003KT 9999 SCT030 01/M05 Q1014 RMK 3CU030 A2996;EQDQ01+000000PRSWM2
0217475170999992000030100004+41230+141150FM-15+001099999V0202101N001510300019N0112651N1-00101-00501999999ADDGA1021+006009999GA2021+009009999GA3071+030009999GF107991999999999999999999MA1102101999999MW1001REMMET09147517 0000Z 21003KT 9999 FEW020 SCT030 BKN100 M01/M05 Q1021 RMK 1CU020 3CU030 5AC100 A3016;EQDQ01+000000PRSWM2
0238475170999992000030103004+41230+141150FM-15+001099999V0202401N005110090019N0112651N1+00001-00501999999ADDGA1021+006009999GA2071+009009999GA3071+030009999GF107991999999999999999999MA1102001999999MW1851REMMET09647517 0300Z 24010KT 9999 -SHSN SCT020 BKN030 BKN100 00/M05 Q1020 RMK 3CU020 5CU030 6AC100 A3015;EQDQ01+000003PRSWM1Q02    003PRSWM1
0249475170999992000030106004+41230+141150FM-15+001099999V0202501N006210090019N0112651N1+00101-00501999999ADDGA1021+006009999GA2071+009009999GA3071+030009999GF107991999999999999999999MA1101901999999MW1851OC101291REMMET09947517 0600Z 25012G25KT 9999 -SHSN FEW020 BKN030 BKN100 01/M05 Q1019 RMK 2CU020 5CU030 6AC100 A3010;EQDQ01+000003PRSWM1Q02    003PRSWM1
0178475170999992000030200004+41230+141150FM-15+001099999V0202501N005110090019N0112651N1+00501-00101999999ADDGA1071+009009999GF107991999999999999999999MA1101491999999MW1801REMMET06847517 0000Z 25010KT 9999 -SHRA BKN030 05/M01 Q1015 RMK 7CU030 A2999;EQDQ01+000003PRSWM1Q02    003PRSWM1
0156475170999992000030203004+41230+141150FM-15+001099999V0202501N005112200019N0112651N1+00701-00201999999ADDGA1021+009009999GF104991999999999999999999MA1101491999999MW1001REMMET06247517 0300Z 25010KT 9999 SCT030 07/M02 Q1015 RMK 4CU030 A2998;EQDQ01+000000PRSWM2
0156475170999992000030300004+41230+141150FM-15+001099999V0201301N001012200019N0112651N1+00101-00201999999ADDGA1021+009009999GF102991999999999999999999MA1102401999999MW1001REMMET06247517 0000Z 13002KT 9999 FEW030 01/M02 Q1024 RMK 1CU030 A3025;EQDQ01+000000PRSWM2
0167475170999992000030303004+41230+141150FM-15+001099999V0202001N005112200019N0112651N1+00601-00201999999ADDGA1021+009009999GF102991999999999999999999MA1102201999999MW1001OC101031REMMET06547517 0300Z 20010G20KT 9999 FEW030 06/M02 Q1022 RMK 2CU030 A3019;EQDQ01+000000PRSWM2
0179475170999992000030306004+41230+141150FM-15+001099999V0202301N004610600019N0112651N1+00701-00401999999ADDGA1021+009009999GA2071+060009999GF107991999999999999999999MA1102101999999MW1001REMMET06947517 0600Z 23009KT 9999 FEW030 BKN200 07/M04 Q1021 RMK 1CU030 A3016;EQDQ01+000000PRSWM2
0178475170999992000030400004+41230+141150FM-15+001099999V0202201N003610600019N0112651N1+00801+00201999999ADDGA1021+009009999GA2071+060009999GF107991999999999999999999MA1101291999999MW1001REMMET06847517 0000Z 22007KT 9999 FEW030 BKN200 08/02 Q1013 RMK 1CU030 A2992;EQDQ01+000000PRSWM2
0178475170999992000030403004+41230+141150FM-15+001099999V0202001N003610600019N0112651N1+01001+00001999999ADDGA1021+030009999GA2071+060009999GF107991999999999999999999MA1101021999999MW1001REMMET06847517 0300Z 20007KT 9999 SCT100 BKN200 10/00 Q1010 RMK 3AC100 A2983;EQDQ01+000000PRSWM2
0178475170999992000030406004+41230+141150FM-15+001099999V0202301N005710600019N0112651N1+01101+00201999999ADDGA1021+009009999GA2071+060009999GF107991999999999999999999MA1100711999999MW1001REMMET06847517 0600Z 23011KT 9999 FEW030 BKN200 11/02 Q1007 RMK 1CU030 A2974;EQDQ01+000000PRSWM2
0156475170999992000030500004+41230+141150FM-15+001099999V0202601N003610090019N0112651N1+00701-00801999999ADDGA1071+009009999GF107991999999999999999999MA1100511999999MW1001REMMET06247517 0000Z 26007KT 9999 BKN030 07/M08 Q1005 RMK 6CU030 A2968;EQDQ01+000000PRSWM2
0167475170999992000030503004+41230+141150FM-15+001099999V0202501N008712200019N0112651N1+00401-00701999999ADDGA1021+009009999GF104991999999999999999999MA1100611999999MW1001OC101701REMMET06547517 0300Z 25017G33KT 9999 SCT030 04/M07 Q1006 RMK 3CU030 A2973;EQDQ01+000000PRSWM2
0167475170999992000030506004+41230+141150FM-15+001099999V0202601N005112200019N0112651N1+00301-00801999999ADDGA1021+009009999GF104991999999999999999999MA1100811999999MW1001OC101031REMMET06547517 0600Z 26010G20KT 9999 SCT030 03/M08 Q1008 RMK 4CU030 A2977;EQDQ01+000000PRSWM2
0179475170999992000030600004+41230+141150FM-15+001099999V0202201N002110600019N0112651N1+00101-00301999999ADDGA1021+009009999GA2071+060009999GF107991999999999999999999MA1101391999999MW1001REMMET06947517 0000Z 22004KT 9999 SCT030 BKN200 01/M03 Q1014 RMK 3CU030 A2997;EQDQ01+000000PRSWM2
0179475170999992000030603004+41230+141150FM-15+001099999V0201701N003110600019N0112651N1+00301-00501999999ADDGA1021+009009999GA2071+060009999GF107991999999999999999999MA1101291999999MW1001REMMET06947517 0300Z 17006KT 9999 SCT030 BKN200 03/M05 Q1013 RMK 3CU030 A2994;EQDQ01+000000PRSWM2
0179475170999992000030606004+41230+141150FM-15+001099999V0201501N002610600019N0112651N1+00301-00601999999ADDGA1021+009009999GA2071+060009999GF107991999999999999999999MA1101191999999MW1001REMMET06947517 0600Z 15005KT 9999 FEW030 BKN200 03/M06 Q1012 RMK 2CU030 A2989;EQDQ01+000000PRSWM2
0155475170999992000030700004+41230+141150FM-15+001099999V0202201N003612200019N0112651N1+00301+00101999999ADDGA1021+007509999GF102991999999999999999999MA1100101999999MW1001REMMET06147517 0000Z 22007KT 9999 FEW025 03/01 Q1001 RMK 2CU025 A2958;EQDQ01+000000PRSWM2
0167475170999992000030703004+41230+141150FM-15+001099999V0202501N007712200019N0112651N1+00201-00801999999ADDGA1021+009009999GF102991999999999999999999MA1100201999999MW1001OC101391REMMET06547517 0300Z 25015G27KT 9999 FEW030 02/M08 Q1002 RMK 2CU030 A2960;EQDQ01+000000PRSWM2
0189475170999992000030706004+41230+141150FM-15+001099999V0202401N005710090019N0112651N1+00001-00801999999ADDGA1071+009009999GF107991999999999999999999MA1100201999999MW1851OC101181REMMET07147517 0600Z 24011G23KT 9999 -SHSN BKN030 00/M08 Q1002 RMK 5CU030 A2961;EQDQ01+000003PRSWM1Q02    003PRSWM1
0209475170999992000030800004+41230+141150FM-15+001099999V0202301N004110060019N0080001N1-00201-00401999999ADDGA1021+003009999GA2071+006009999GF107991999999999999999999MA1100101999999MW1851REMMET08347517 0000Z 23008KT 8000 -SHSN FEW010 BKN020 M02/M04 Q1001 RMK 2CU010 7CU020 A2958;EQDQ01+000003PRSWM1Q02    003PRSWM1
0209475170999992000030803004+41230+141150FM-15+001099999V0202401N004610030019N0015001N1-00201-00401999999ADDGA1071+003009999GA2081+004509999GF108991999999999999999999MA1100101999999MW1851REMMET08347517 0300Z 24009KT 1500 -SHSN BKN010 OVC015 M02/M04 Q1001 RMK 5ST010 8CU015 A2958;EQDQ01+000003PRSWM1Q02    003PRSWM1
0209475170999992000030806004+41230+141150FM-15+001099999V0202501N004610090019N0112651N1-00101-00601999999ADDGA1021+004509999GA2071+009009999GF107991999999999999999999MA1100101999999MW1851REMMET08347517 0600Z 25009KT 9999 -SHSN FEW015 BKN030 M01/M06 Q1001 RMK 2CU015 7CU030 A2959;EQDQ01+000003PRSWM1Q02    003PRSWM1
0187475170999992000030900004+41230+141150FM-15+001099999V0202501N004110090019N0112651N1-00201-01101999999ADDGA1021+004509999GA2071+009009999GF107991999999999999999999MA1100711999999MW1001REMMET07747517 0000Z 25008KT 9999 FEW015 BKN030 M02/M11 Q1007 RMK 2CU015 7CU030 A2976;EQDQ01+000000PRSWM2
0191475170999992000030903004+41230+141150FM-15+001099999V0202601N005110600019N0112651N1-00101-01301999999ADDGA1021+009009999GA2071+060009999GF107991999999999999999999MA1100811999999MW1001OC101341REMMET07347517 0300Z 26010G26KT 9999 SCT030 BKN200 M01/M13 Q1008 RMK 4CU030 A2977;EQDQ01+000000PRSWM2
0239475170999992000030906004+41230+141150FM-15+001099999V0202901N002110030019N0020001N1-00301-00901999999ADDGA1021+001809999GA2071+003009999GA3081+006009999GF108991999999999999999999MA1100711999999MW1851REMMET09747517 0600Z 29004KT 2000 -SHSN FEW006 BKN010 OVC020 M03/M09 Q1007 RMK 2ST006 5CU010 8CU020 A2976;EQDQ01+000003PRSWM1Q02    003PRSWM1
0209475170999992000031000004+41230+141150FM-15+001099999V0202401N002610090019N0112651N1-00401-01001999999ADDGA1021+006009999GA2071+009009999GF107991999999999999999999MA1101591999999MW1851REMMET08347517 0000Z 24005KT 9999 -SHSN FEW020 BKN030 M04/M10 Q1016 RMK 2CU020 6CU030 A3002;EQDQ01+000003PRSWM1Q02    003PRSWM1
0209475170999992000031003004+41230+141150FM-15+001099999V0202401N004110030019N0015001N1-00401-00601999999ADDGA1021+001509999GA2071+003009999GF107991999999999999999999MA1101591999999MW1851REMMET08347517 0300Z 24008KT 1500 -SHSN SCT005 BKN010 M04/M06 Q1016 RMK 4ST005 7CU010 A3002;EQDQ01+000003PRSWM1Q02    003PRSWM1
0209475170999992000031006004+41230+141150FM-15+001099999V0202501N004110075019N0070001N1-00301-00601999999ADDGA1021+004509999GA2071+007509999GF107991999999999999999999MA1101491999999MW1851REMMET08347517 0600Z 25008KT 7000 -SHSN FEW015 BKN025 M03/M06 Q1015 RMK 2ST015 7CU025 A2999;EQDQ01+000003PRSWM1Q02    003PRSWM1
0156475170999992000031100004+41230+141150FM-15+001099999V0202601N003110090019N0112651N1+00301-00601999999ADDGA1071+009009999GF107991999999999999999999MA1101191999999MW1001REMMET06247517 0000Z 26006KT 9999 BKN030 03/M06 Q1012 RMK 6CU030 A2989;EQDQ01+000000PRSWM2
0219475170999992000031103004+41230+141150FM-15+001099999V0202501N007210075019N0080001N1+00301-00301999999ADDGA1021+003009999GA2071+007509999GF107991999999999999999999MA1101021999999MW1851OC101491REMMET08547517 0300Z 25014G29KT 8000 -SHSN SCT010 BKN025 03/M03 Q1010 RMK 3ST010 7CU025 A2985;EQDQ01+000003PRSWM1Q02    003PRSWM1
0156475170999992000031106004+41230+141150FM-15+001099999V0202501N005710090019N0112651N1+00501-00601999999ADDGA1071+009009999GF107991999999999999999999MA1100811999999MW1001REMMET06247517 0600Z 25011KT 9999 BKN030 05/M06 Q1008 RMK 5CU030 A2979;EQDQ01+000000PRSWM2
0156475170999992000031200004+41230+141150FM-15+001099999V0203201N001510090019N0112651N1+00201-00801999999ADDGA1071+009009999GF107991999999999999999999MA1100711999999MW1001REMMET06247517 0000Z 32003KT 9999 BKN030 02/M08 Q1007 RMK 7CU030 A2975;EQDQ01+000000PRSWM2
0208475170999992000031203004+41230+141150FM-15+001099999V0202801N002110090019N0112651N1+00101-00601999999ADDGA1021+006009999GA2071+009009999GF107991999999999999999999MA1100711999999MW1851REMMET08247517 0300Z 28004KT 9999 -SHSN FEW020 BKN030 01/M06 Q1007 RMK 1CU020 6CU030 A2974;EQDQ01+000003PRSWM1Q02    003PRSWM1
0156475170999992000031206004+41230+141150FM-15+001099999V0202501N005710090019N0112651N1+00201-00801999999ADDGA1071+009009999GF107991999999999999999999MA1100611999999MW1001REMMET06247517 0600Z 25011KT 9999 BKN030 02/M08 Q1006 RMK 5CU030 A2971;EQDQ01+000000PRSWM2
0237475170999992000031300004+41230+141150FM-15+001099999V0202401N002610030019N0020001N1+00101+00001999999ADDGA1021+001509999GA2071+003009999GA3071+006009999GF107991999999999999999999MA1100311999999MW1851REMMET09547517 0000Z 24005KT 2000 -SHSN FEW005 BKN010 BKN020 01/00 Q1003 RMK 2ST005 5CU010 7CU020 A2965;EQDQ01+000003PRSWM1Q02    003PRSWM1
0208475170999992000031303004+41230+141150FM-15+001099999V0202701N002110060019N0112651N1+00101-00501999999ADDGA1021+003009999GA2071+006009999GF107991999999999999999999MA1100411999999MW1851REMMET08247517 0300Z 27004KT 9999 -SHSN FEW010 BKN020 01/M05 Q1004 RMK 2CU010 5CU020 A2967;EQDQ01+000003PRSWM1Q02    003PRSWM1
0209475170999992000031306004+41230+141150FM-15+001099999V0202601N004610060019N0112651N1-00101-00901999999ADDGA1021+003009999GA2071+006009999GF107991999999999999999999MA1100711999999MW1851REMMET08347517 0600Z 26009KT 9999 -SHSN FEW010 BKN020 M01/M09 Q1007 RMK 2CU010 6CU020 A2974;EQDQ01+000003PRSWM1Q02    003PRSWM1
0156475170999992000031400004+41230+141150FM-15+001099999V0202701N003110090019N0112651N1+00101-00901999999ADDGA1071+009009999GF107991999999999999999999MA1101291999999MW1001REMMET06247517 0000Z 27006KT 9999 BKN030 01/M09 Q1013 RMK 5CU030 A2992;EQDQ01+000000PRSWM2
0178475170999992000031403004+41230+141150FM-15+001099999V0202501N004610090019N0112651N1+00101-00701999999ADDGA1071+009009999GF107991999999999999999999MA1101191999999MW1851REMMET06847517 0300Z 25009KT 9999 -SHSN BKN030 01/M07 Q1012 RMK 7CU030 A2989;EQDQ01+000003PRSWM1Q02    003PRSWM1
0208475170999992000031406004+41230+141150FM-15+001099999V0202901N002610090019N0112651N1+00101-00801999999ADDGA1021+006009999GA2071+009009999GF107991999999999999999999MA1101191999999MW1851REMMET08247517 0600Z 29005KT 9999 -SHSN FEW020 BKN030 01/M08 Q1012 RMK 1CU020 7CU030 A2989;EQDQ01+000003PRSWM1Q02    003PRSWM1
0179475170999992000031500004+41230+141150FM-15+001099999V0201701N002110090019N0112651N1+00101-00401999999ADDGA1071+009009999GA2071+060009999GF107991999999999999999999MA1101591999999MW1001REMMET06947517 0000Z 17004KT 9999 BKN030 BKN200 01/M04 Q1016 RMK 5CU030 A3002;EQDQ01+000000PRSWM2
0167475170999992000031503004+41230+141150FM-15+001099999V0202501N005110090019N0112651N1+00301-00501999999ADDGA1071+009009999GF107991999999999999999999MA1101491999999MW1001OC101031REMMET06547517 0300Z 25010G20KT 9999 BKN030 03/M05 Q1015 RMK 7CU030 A3000;EQDQ01+000000PRSWM2
0208475170999992000031506004+41230+141150FM-15+001099999V0202501N004610090019N0112651N1+00301-00501999999ADDGA1021+006009999GA2071+009009999GF107991999999999999999999MA1101491999999MW1851REMMET08247517 0600Z 25009KT 9999 -SHSN SCT020 BKN030 03/M05 Q1015 RMK 3CU020 7CU030 A2999;EQDQ01+000003PRSWM1Q02    003PRSWM1
0186475170999992000031600004+41230+141150FM-15+001099999V0202701N001010360019N0112651N1+00301-00201999999ADDGA1021+009009999GA2071+036009999GF107991999999999999999999MA1101021999999MW1001REMMET07647517 0000Z 27002KT 9999 FEW030 BKN120 03/M02 Q1010 RMK 1CU030 7AC120 A2985;EQDQ01+000000PRSWM2
0205475170999992000031606004+41230+141150FM-15+001099999V0200801N003610024019N0040001N1+00101+00001999999ADDGA1071+002409999GA2071+004509999GF107991999999999999999999MA1100201999999MW1711REMMET07947517 0600Z 08007KT 4000 -SN BKN008 BKN015 01/00 Q1002 RMK 5ST008 7ST015 A2962;EQDQ01+000003PRSWM1Q02    003PRSWM1
0179475170999992000031700004+41230+141150FM-15+001099999V0203601N001510600019N0112651N1+00301-00201999999ADDGA1021+009009999GA2071+060009999GF107991999999999999999999MA1100201999999MW1001REMMET06947517 0000Z 36003KT 9999 FEW030 BKN200 03/M02 Q1002 RMK 2CU030 A2959;EQDQ01+000000PRSWM2
0179475170999992000031703004+41230+141150FM-15+001099999V0203601N001010600019N0112651N1+00401-00401999999ADDGA1021+009009999GA2071+060009999GF107991999999999999999999MA1100311999999MW1001REMMET06947517 0300Z 36002KT 9999 FEW030 BKN200 04/M04 Q1003 RMK 2CU030 A2963;EQDQ01+000000PRSWM2
0231475170999992000031706004+41230+141150FM-15+001099999V0200101N001510075019N0112651N1+00401-00301999999ADDGA1021+004509999GA2071+007509999GA3071+060009999GF107991999999999999999999MA1100511999999MW1851REMMET08947517 0600Z 01003KT 9999 -SHSN FEW015 BKN025 BKN200 04/M03 Q1005 RMK 2CU015 5CU025 A2969;EQDQ01+000003PRSWM1Q02    003PRSWM1
0208475170999992000031800004+41230+141150FM-15+001099999V0202401N003610075019N0112651N1+00201-00201999999ADDGA1021+003009999GA2071+007509999GF107991999999999999999999MA1101691999999MW1851REMMET08247517 0000Z 24007KT 9999 -SHSN FEW010 BKN025 02/M02 Q1017 RMK 1ST010 6CU025 A3004;EQDQ01+000003PRSWM1Q02    003PRSWM1
0156475170999992000031803004+41230+141150FM-15+001099999V0202001N002612200019N0112651N1+00401-00301999999ADDGA1021+009009999GF104991999999999999999999MA1101491999999MW1001REMMET06247517 0300Z 20005KT 9999 SCT030 04/M03 Q1015 RMK 3CU030 A2999;EQDQ01+000000PRSWM2
0245475170999992000031806004+41230+141150FM-15+001099999V0202501N002610045019N0080001N1+00201+00101999999ADDGA1021+001509999GA2071+004509999GA3071+006009999GF107991999999999999999999MA1101191999999MW1801MW2851REMMET09747517 0600Z 25005KT 8000 -SHRASN SCT005 BKN015 BKN020 02/01 Q1012 RMK 3ST005 7ST015 7CU020 A2989;EQDQ01+000003PRSWM1Q02    003PRSWM1
0179475170999992000031900004+41230+141150FM-15+001099999V0201101N002110600019N0112651N1+00301-00101999999ADDGA1021+007509999GA2071+060009999GF107991999999999999999999MA1101081999999MW1001REMMET06947517 0000Z 11004KT 9999 FEW025 BKN200 03/M01 Q1011 RMK 1CU025 A2987;EQDQ01+000000PRSWM2
0207475170999992000032000004+41230+141150FM-15+001099999V0200301N002110075019N0070001N1+00101+00001999999ADDGA1021+003009999GA2071+007509999GF107991999999999999999999MA1101021999999MW1851REMMET08147517 0000Z 03004KT 7000 -SHSN FEW010 BKN025 01/00 Q1010 RMK 2ST010 7CU025 A2984;EQDQ01+000003PRSWM1Q02    003PRSWM1
0207475170999992000032003004+41230+141150FM-15+001099999V0200401N002610060019N0020001N1+00101+00001999999ADDGA1021+003009999GA2081+006009999GF108991999999999999999999MA1101021999999MW1851REMMET08147517 0300Z 04005KT 2000 -SHSN SCT010 OVC020 01/00 Q1010 RMK 3ST010 8CU020 A2985;EQDQ01+000003PRSWM1Q02    003PRSWM1
0156475170999992000032100004+41230+141150FM-15+001099999V0200401N001512200019N0112651N1+00201-00601999999ADDGA1021+007509999GF102991999999999999999999MA1101801999999MW1001REMMET06247517 0000Z 04003KT 9999 FEW025 02/M06 Q1018 RMK 1CU025 A3007;EQDQ01+000000PRSWM2
0156475170999992000032103004+41230+141150FM-15+001099999V0201701N003610090019N0112651N1+00201-00401999999ADDGA1071+009009999GF107991999999999999999999MA1101591999999MW1001REMMET06247517 0300Z 17007KT 9999 BKN030 02/M04 Q1016 RMK 6CU030 A3003;EQDQ01+000000PRSWM2
0201475170999992000032106004+41230+141150FM-15+001099999V0203301N001510075019N0112651N1+00201-00201999999ADDGA1071+007509999GA2071+060009999GF107991999999999999999999MA1101491999999MW1851REMMET07547517 0600Z 33003KT 9999 -SHSN BKN025 BKN200 02/M02 Q1015 RMK 6CU025 A2998;EQDQ01+000003PRSWM1Q02    003PRSWM1
0186475170999992000032200004+41230+141150FM-15+001099999V0200401N002610300019N0112651N1+00001-00501999999ADDGA1021+009009999GA2071+030009999GF107991999999999999999999MA1101801999999MW1001REMMET07647517 0000Z 04005KT 9999 SCT030 BKN100 00/M05 Q1018 RMK 3CU030 6AC100 A3007;EQDQ01+000000PRSWM2
0156475170999992000032203004+41230+141150FM-15+001099999V0200601N003112200019N0112651N1+00301-00501999999ADDGA1021+009009999GF104991999999999999999999MA1101901999999MW1001REMMET06247517 0300Z 06006KT 9999 SCT030 03/M05 Q1019 RMK 3CU030 A3010;EQDQ01+000000PRSWM2
0156475170999992000032206004+41230+141150FM-15+001099999V0202101N002610090019N0112651N1+00201-00601999999ADDGA1071+009009999GF107991999999999999999999MA1101901999999MW1001REMMET06247517 0600Z 21005KT 9999 BKN030 02/M06 Q1019 RMK 6CU030 A3011;EQDQ01+000000PRSWM2
0186475170999992000032300004+41230+141150FM-15+001099999V0200301N000510120019N0112651N1+00101-00301999999ADDGA1021+009009999GA2081+012009999GF108991999999999999999999MA1102301999999MW1001REMMET07647517 0000Z 03001KT 9999 SCT030 OVC040 01/M03 Q1023 RMK 3CU030 8SC040 A3022;EQDQ01+000000PRSWM2
0185475170999992000032403004+41230+141150FM-15+001099999V0202301N002110090019N0112651N1+00601+00301999999ADDGA1071+009009999GA2071+024009999GF107991999999999999999999MA1099091999999MW1001REMMET07547517 0300Z 23004KT 9999 BKN030 BKN080 06/03 Q0991 RMK 5CU030 7AC080 A2927;EQDQ01+000000PRSWM2
0167475170999992000032406004+41230+141150FM-15+001099999V0202601N005112200019N0112651N1+00701+00001999999ADDGA1021+009009999GF104991999999999999999999MA1098981999999MW1001OC101131REMMET06547517 0600Z 26010G22KT 9999 SCT030 07/M00 Q0990 RMK 3CU030 A2926;EQDQ01+000000PRSWM2
0219475170999992000032500004+41230+141150FM-15+001099999V0202601N007710090019N0112651N1+00301-00301999999ADDGA1021+006009999GA2071+009009999GF107991999999999999999999MA1099491999999MW1851OC101591REMMET08547517 0000Z 26015G31KT 9999 -SHSN FEW020 BKN030 03/M03 Q0995 RMK 2CU020 6CU030 A2940;EQDQ01+000003PRSWM1Q02    003PRSWM1
0219475170999992000032503004+41230+141150FM-15+001099999V0202501N007210090019N0112651N1+00301-00301999999ADDGA1021+006009999GA2071+009009999GF107991999999999999999999MA1099491999999MW1851OC101341REMMET08547517 0300Z 25014G26KT 9999 -SHSN FEW020 BKN030 03/M03 Q0995 RMK 2CU020 7CU030 A2940;EQDQ01+000003PRSWM1Q02    003PRSWM1
0249475170999992000032506004+41230+141150FM-15+001099999V0202501N006710060019N0030001N1+00101-00101999999ADDGA1021+003009999GA2071+006009999GA3071+009009999GF107991999999999999999999MA1099491999999MW1851OC101701REMMET09947517 0600Z 25013G33KT 3000 -SHSN SCT010 BKN020 BKN030 01/M01 Q0995 RMK 3CU010 5CU020 7CU030 A2941;EQDQ01+000003PRSWM1Q02    003PRSWM1
0178475170999992000032606004+41230+141150FM-15+001099999V0202501N004610090019N0070001N1+00001-00601999999ADDGA1071+009009999GF107991999999999999999999MA1100001999999MW1851REMMET06847517 0600Z 25009KT 7000 -SHSN BKN030 00/M06 Q1000 RMK 7CU030 A2955;EQDQ01+000003PRSWM1Q02    003PRSWM1
0208475170999992000032700004+41230+141150FM-15+001099999V0202501N004610090019N0070001N1+00101-00501999999ADDGA1021+004509999GA2071+009009999GF107991999999999999999999MA1101081999999MW1851REMMET08247517 0000Z 25009KT 7000 -SHSN SCT015 BKN030 01/M05 Q1011 RMK 3CU015 7CU030 A2988;EQDQ01+000003PRSWM1Q02    003PRSWM1
0219475170999992000032703004+41230+141150FM-15+001099999V0202601N006210075019N0112651N1+00201-00501999999ADDGA1021+004509999GA2071+007509999GF107991999999999999999999MA1101291999999MW1851OC101131REMMET08547517 0300Z 26012G22KT 9999 -SHSN FEW015 BKN025 02/M05 Q1013 RMK 2CU015 7CU025 A2992;EQDQ01+000003PRSWM1Q02    003PRSWM1
0186475170999992000032706004+41230+141150FM-15+001099999V0202501N003110075019N0112651N1+00301-00601999999ADDGA1021+004509999GA2071+007509999GF107991999999999999999999MA1101391999999MW1001REMMET07647517 0600Z 25006KT 9999 FEW015 BKN025 03/M06 Q1014 RMK 1CU015 7CU025 A2995;EQDQ01+000000PRSWM2
0179475170999992000032800004+41230+141150FM-15+001099999V0200601N001510300019N0112651N1+00301-00401999999ADDGA1071+030009999GA2071+060009999GF107991999999999999999999MA1102001999999MW1001REMMET06947517 0000Z 06003KT 9999 BKN100 BKN200 03/M04 Q1020 RMK 5AC100 A3013;EQDQ01+000000PRSWM2
0179475170999992000032803004+41230+141150FM-15+001099999V0200601N001010600019N0112651N1+00601-00101999999ADDGA1021+012009999GA2071+060009999GF107991999999999999999999MA1101901999999MW1001REMMET06947517 0300Z 06002KT 9999 FEW040 BKN200 06/M01 Q1019 RMK 1SC040 A3010;EQDQ01+000000PRSWM2
0178475170999992000032806004+41230+141150FM-15+001099999V0200901N003110600019N0112651N1+00601+00101999999ADDGA1021+006009999GA2071+060009999GF107991999999999999999999MA1101691999999MW1001REMMET06847517 0600Z 09006KT 9999 FEW020 BKN200 06/01 Q1017 RMK 1CU020 A3004;EQDQ01+000000PRSWM2
0237475170999992000032900004+41230+141150FM-15+001099999V0202401N002110030019N0060001N1+00701+00701999999ADDGA1021+001809999GA2071+003009999GA3071+007509999GF107991999999999999999999MA1099701999999MW1801REMMET09547517 0000Z 24004KT 6000 -SHRA FEW006 BKN010 BKN025 07/07 Q0997 RMK 2ST006 5ST010 7CU025 A2945;EQDQ01+000003PRSWM1Q02    003PRSWM1
0215475170999992000032903004+41230+141150FM-15+001099999V0202601N002610075019N0112651N1+00901+00701999999ADDGA1021+003009999GA2071+007509999GA3071+024009999GF107991999999999999999999MA1099391999999MW1001REMMET08947517 0300Z 26005KT 9999 FEW010 BKN025 BKN080 09/07 Q0994 RMK 2ST010 6CU025 7AC080 A2936;EQDQ01+000000PRSWM2
0185475170999992000032906004+41230+141150FM-15+001099999V0202101N001510090019N0112651N1+00801+00701999999ADDGA1021+004509999GA2071+009009999GF107991999999999999999999MA1099091999999MW1001REMMET07547517 0600Z 21003KT 9999 FEW015 BKN030 08/07 Q0991 RMK 2CU015 7CU030 A2929;EQDQ01+000000PRSWM2
0156475170999992000033000004+41230+141150FM-15+001099999V0202601N004110090019N0112651N1+00601-00101999999ADDGA1071+009009999GF107991999999999999999999MA1099591999999MW1001REMMET06247517 0000Z 26008KT 9999 BKN030 06/M01 Q0996 RMK 6CU030 A2944;EQDQ01+000000PRSWM2
0245475170999992000033003004+41230+141150FM-15+001099999V0202401N004610060019N0112651N1+00301+00001999999ADDGA1021+003009999GA2071+006009999GA3081+009009999GF108991999999999999999999MA1099701999999MW1801MW2851REMMET09747517 0300Z 24009KT 9999 -SHSNRA FEW010 BKN020 OVC030 03/00 Q0997 RMK 2ST010 6CU020 8CU030 A2945;EQDQ01+000003PRSWM1Q02    003PRSWM1
0167475170999992000033006004+41230+141150FM-15+001099999V0202401N009312200019N0112651N1+00501-00401999999ADDGA1021+009009999GF102991999999999999999999MA1099801999999MW1001OC101951REMMET06547517 0600Z 24018G38KT 9999 FEW030 05/M04 Q0998 RMK 2CU030 A2948;EQDQ01+000000PRSWM2
0155475170999992000033100004+41230+141150FM-15+001099999V0202401N006212200019N0112651N1+01001+00201999999ADDGA1021+009009999GF102991999999999999999999MA1100411999999MW1001REMMET06147517 0000Z 24012KT 9999 FEW030 10/02 Q1004 RMK 2CU030 A2966;EQDQ01+000000PRSWM2
0155475170999992000033103004+41230+141150FM-15+001099999V0202101N006212200019N0112651N1+01001+00201999999ADDGA1021+009009999GF102991999999999999999999MA1100201999999MW1001REMMET06147517 0300Z 21012KT 9999 FEW030 10/02 Q1002 RMK 1CU030 A2961;EQDQ01+000000PRSWM2
0186475170999992000033106004+41230+141150FM-15+001099999V0202601N004110240019N0112651N1+01001-00101999999ADDGA1021+009009999GA2071+024009999GF107991999999999999999999MA1100101999999MW1001REMMET07647517 0600Z 26008KT 9999 SCT030 BKN080 10/M01 Q1001 RMK 3CU030 5AC080 A2957;EQDQ01+000000PRSWM2
0218475170999992000040100004+41230+141150FM-15+001099999V0202601N006210075019N0060001N1+00401+00101999999ADDGA1021+004509999GA2071+007509999GF107991999999999999999999MA1099901999999MW1801OC101651REMMET08447517 0000Z 26012G32KT 6000 -SHRA SCT015 BKN025 04/01 Q0999 RMK 3ST015 7CU025 A2950;EQDQ01+000003PRSWM1Q02    003PRSWM1
0218475170999992000040103004+41230+141150FM-15+001099999V0202701N005710075019N0050001N1+00501+00001999999ADDGA1021+003009999GA2071+007509999GF107991999999999999999999MA1100201999999MW1801OC101291REMMET08447517 0300Z 27011G25KT 5000 -SHRA SCT010 BKN025 05/00 Q1002 RMK 4ST010 7CU025 A2959;EQDQ01+000003PRSWM1Q02    003PRSWM1
0156475170999992000040106004+41230+141150FM-15+001099999V0202501N004612200019N0112651N1+00701-00101999999ADDGA1021+009009999GF104991999999999999999999MA1100411999999MW1001REMMET06247517 0600Z 25009KT 9999 SCT030 07/M01 Q1004 RMK 4CU030 A2967;EQDQ01+000000PRSWM2
0155475170999992000040200004+41230+141150FM-15+001099999V0202601N004110090019N0112651N1+00701+00401999999ADDGA1071+009009999GF107991999999999999999999MA1101591999999MW1001REMMET06147517 0000Z 26008KT 9999 BKN030 07/04 Q1016 RMK 5CU030 A3000;EQDQ01+000000PRSWM2
0167475170999992000040203004+41230+141150FM-15+001099999V0202401N008710090019N0112651N1+00701-00501999999ADDGA1071+009009999GF107991999999999999999999MA1101591999999MW1001OC101651REMMET06547517 0300Z 24017G32KT 9999 BKN030 07/M05 Q1016 RMK 6CU030 A3002;EQDQ01+000000PRSWM2
0167475170999992000040206004+41230+141150FM-15+001099999V0202401N006212200019N0112651N1+00601-00801999999ADDGA1021+009009999GF102991999999999999999999MA1101691999999MW1001OC101231REMMET06547517 0600Z 24012G24KT 9999 FEW030 06/M08 Q1017 RMK 1CU030 A3005;EQDQ01+000000PRSWM2
0156475170999992000040300004+41230+141150FM-15+001099999V0202501N004612200019N0112651N1+00801-00701999999ADDGA1021+009009999GF102991999999999999999999MA1102101999999MW1001REMMET06247517 0000Z 25009KT 9999 FEW030 08/M07 Q1021 RMK 1CU030 A3015;EQDQ01+000000PRSWM2
0130475170999992000040303004+41230+141150FM-15+001099999V0202701N003112200019N0112651N1+01001-00601999999ADDGF100991999999999999999999MA1102001999999MW1001REMMET05247517 0300Z 27006KT 9999 SKC 10/M06 Q1020 RMK A3013;EQDQ01+000000PRSWM2
0130475170999992000040306004+41230+141150FM-15+001099999V0202401N004112200019N0112651N1+01001-00701999999ADDGF100991999999999999999999MA1101901999999MW1001REMMET05247517 0600Z 24008KT 9999 SKC 10/M07 Q1019 RMK A3012;EQDQ01+000000PRSWM2
0129475170999992000040400004+41230+141150FM-15+001099999V0202001N002612200019N0112651N1+00501+00201999999ADDGF100991999999999999999999MA1102301999999MW1001REMMET05147517 0000Z 20005KT 9999 SKC 05/02 Q1023 RMK A3022;EQDQ01+000000PRSWM2
0130475170999992000040403004+41230+141150FM-15+001099999V0201901N002612200019N0112651N1+00901-00101999999ADDGF100991999999999999999999MA1102201999999MW1001REMMET05247517 0300Z 19005KT 9999 SKC 09/M01 Q1022 RMK A3019;EQDQ01+000000PRSWM2
0149475170999992000040406004+41230+141150FM-15+001099999V0201901N001512200019N0112651N1+01201-00201999999ADDGA1021+060009999GF102991999999999999999999MA1102001999999MW1001REMMET05547517 0600Z 19003KT 9999 FEW200 12/M02 Q1020 RMK A3012;EQDQ01+000000PRSWM2
0235475170999992000040506004+41230+141150FM-15+001099999V0203201N001010075019N0080001N1+01001+00801999999ADDGA1021+004509999GA2071+007509999GA3081+024009999GF108991999999999999999999MA1100711999999MW1611REMMET09347517 0600Z 32002KT 8000 -RA SCT015 BKN025 OVC080 10/08 Q1007 RMK 3ST015 6SC025 8AS080 A2976;EQDQ01+000003PRSWM1Q02    003PRSWM1
0186475170999992000040600004+41230+141150FM-15+001099999V0202501N003610090019N0112651N1+00601+00001999999ADDGA1021+004509999GA2071+009009999GF107991999999999999999999MA1100611999999MW1001REMMET07647517 0000Z 25007KT 9999 FEW015 BKN030 06/M00 Q1006 RMK 1CU015 6CU030 A2971;EQDQ01+000000PRSWM2
0156475170999992000040603004+41230+141150FM-15+001099999V0202601N004610090019N0112651N1+00601-00201999999ADDGA1071+009009999GF107991999999999999999999MA1100811999999MW1001REMMET06247517 0300Z 26009KT 9999 BKN030 06/M02 Q1008 RMK 6CU030 A2977;EQDQ01+000000PRSWM2
0167475170999992000040606004+41230+141150FM-15+001099999V0202501N007710090019N0112651N1+00701-00501999999ADDGA1071+009009999GF107991999999999999999999MA1100911999999MW1001OC101751REMMET06547517 0600Z 25015G34KT 9999 BKN030 07/M05 Q1009 RMK 5CU030 A2981;EQDQ01+000000PRSWM2
0149475170999992000040700004+41230+141150FM-15+001099999V0202201N002112200019N0112651N1+00801-00201999999ADDGA1021+060009999GF102991999999999999999999MA1101801999999MW1001REMMET05547517 0000Z 22004KT 9999 FEW200 08/M02 Q1018 RMK A3008;EQDQ01+000000PRSWM2
0149475170999992000040703004+41230+141150FM-15+001099999V0202001N002112200019N0112651N1+01101+00001999999ADDGA1021+060009999GF102991999999999999999999MA1101491999999MW1001REMMET05547517 0300Z 20004KT 9999 FEW200 11/M00 Q1015 RMK A2999;EQDQ01+000000PRSWM2
0149475170999992000040706004+41230+141150FM-15+001099999V0201801N002112200019N0112651N1+01501+00001999999ADDGA1021+060009999GF102991999999999999999999MA1101081999999MW1001REMMET05547517 0600Z 18004KT 9999 FEW200 15/M00 Q1011 RMK A2987;EQDQ01+000000PRSWM2
0166475170999992000040800004+41230+141150FM-15+001099999V0202501N007210090019N0112651N1+00901+00101999999ADDGA1071+009009999GF107991999999999999999999MA1100911999999MW1001OC101291REMMET06447517 0000Z 25014G25KT 9999 BKN030 09/01 Q1009 RMK 6CU030 A2982;EQDQ01+000000PRSWM2
0166475170999992000040803004+41230+141150FM-15+001099999V0202501N005110090019N0112651N1+00901+00101999999ADDGA1071+009009999GF107991999999999999999999MA1101081999999MW1001OC101181REMMET06447517 0300Z 25010G23KT 9999 BKN030 09/01 Q1011 RMK 6CU030 A2987;EQDQ01+000000PRSWM2
0167475170999992000040806004+41230+141150FM-15+001099999V0202401N005110090019N0112651N1+00801-00201999999ADDGA1071+009009999GF107991999999999999999999MA1101391999999MW1001OC101031REMMET06547517 0600Z 24010G20KT 9999 BKN030 08/M02 Q1014 RMK 5CU030 A2994;EQDQ01+000000PRSWM2
0155475170999992000040900004+41230+141150FM-15+001099999V0202001N004112200019N0112651N1+00801+00101999999ADDGA1021+009009999GF104991999999999999999999MA1102301999999MW1001REMMET06147517 0000Z 20008KT 9999 SCT030 08/01 Q1023 RMK 3CU030 A3022;EQDQ01+000000PRSWM2
0155475170999992000040903004+41230+141150FM-15+001099999V0201901N003112200019N0112651N1+00901+00101999999ADDGA1021+009009999GF102991999999999999999999MA1102201999999MW1001REMMET06147517 0300Z 19006KT 9999 FEW030 09/01 Q1022 RMK 1CU030 A3020;EQDQ01+000000PRSWM2
0156475170999992000040906004+41230+141150FM-15+001099999V0202001N004112200019N0112651N1+01101-00101999999ADDGA1021+009009999GF102991999999999999999999MA1102101999999MW1001REMMET06247517 0600Z 20008KT 9999 FEW030 11/M01 Q1021 RMK 1CU030 A3018;EQDQ01+000000PRSWM2
0178475170999992000041000004+41230+141150FM-15+001099999V0202401N002610660019N0112651N1+01401+00301999999ADDGA1021+024009999GA2071+066009999GF107991999999999999999999MA1101391999999MW1001REMMET06847517 0000Z 24005KT 9999 FEW080 BKN220 14/03 Q1014 RMK 2AC080 A2996;EQDQ01+000000PRSWM2
0186475170999992000041100004+41230+141150FM-15+001099999V0202501N005110090019N0112651N1+00501-00301999999ADDGA1071+009009999GA2071+024009999GF107991999999999999999999MA1100001999999MW1001REMMET07647517 0000Z 25010KT 9999 BKN030 BKN080 05/M03 Q1000 RMK 6CU030 7AC080 A2955;EQDQ01+000000PRSWM2
0237475170999992000041200004+41230+141150FM-15+001099999V0202301N005110045019N0112651N1+00401+00201999999ADDGA1021+003009999GA2071+004509999GA3071+009009999GF107991999999999999999999MA1099591999999MW1801REMMET09547517 0000Z 23010KT 9999 -SHRA FEW010 BKN015 BKN030 04/02 Q0996 RMK 2ST010 5CU015 7CU030 A2943;EQDQ01+000003PRSWM1Q02    003PRSWM1
0215475170999992000041206004+41230+141150FM-15+001099999V0202301N003610090019N0112651N1+00601+00201999999ADDGA1021+003009999GA2021+006009999GA3071+009009999GF107991999999999999999999MA1099591999999MW1001REMMET08947517 0600Z 23007KT 9999 FEW010 SCT020 BKN030 06/02 Q0996 RMK 1ST010 4CU020 7CU030 A2942;EQDQ01+000000PRSWM2
0185475170999992000041300004+41230+141150FM-15+001099999V0202401N005110240019N0112651N1+01001+00201999999ADDGA1021+009009999GA2071+024009999GF107991999999999999999999MA1100511999999MW1001REMMET07547517 0000Z 24010KT 9999 FEW030 BKN080 10/02 Q1005 RMK 1CU030 5AC080 A2969;EQDQ01+000000PRSWM2
0155475170999992000041303004+41230+141150FM-15+001099999V0202301N005712200019N0112651N1+01301+00001999999ADDGA1021+009009999GF104991999999999999999999MA1100511999999MW1001REMMET06147517 0300Z 23011KT 9999 SCT030 13/00 Q1005 RMK 3CU030 A2968;EQDQ01+000000PRSWM2
0156475170999992000041306004+41230+141150FM-15+001099999V0202301N004612200019N0112651N1+01401-00101999999ADDGA1021+009009999GF102991999999999999999999MA1100511999999MW1001REMMET06247517 0600Z 23009KT 9999 FEW030 14/M01 Q1005 RMK 1CU030 A2969;EQDQ01+000000PRSWM2
0215475170999992000041400004+41230+141150FM-15+001099999V0200501N003610120019N0112651N1+00901+00501999999ADDGA1021+006009999GA2071+012009999GA3071+024009999GF107991999999999999999999MA1100411999999MW1001REMMET08947517 0000Z 05007KT 9999 FEW020 BKN040 BKN080 09/05 Q1004 RMK 1CU020 5SC040 7AC080 A2966;EQDQ01+000000PRSWM2
0235475170999992000041403004+41230+141150FM-15+001099999V0201901N000510120019N0060001N1+00801+00701999999ADDGA1021+006009999GA2071+012009999GA3081+024009999GF108991999999999999999999MA1100311999999MW1611REMMET09347517 0300Z 19001KT 6000 -RA FEW020 BKN040 OVC080 08/07 Q1003 RMK 2CU020 6SC040 8AS080 A2964;EQDQ01+000003PRSWM1Q02    003PRSWM1
0215475170999992000041406004+41230+141150FM-15+001099999V0200401N003110060019N0112651N1+00801+00601999999ADDGA1021+003009999GA2071+006009999GA3071+024009999GF107991999999999999999999MA1100411999999MW1001REMMET08947517 0600Z 04006KT 9999 FEW010 BKN020 BKN080 08/06 Q1004 RMK 2ST010 5CU020 7AC080 A2965;EQDQ01+000000PRSWM2
0155475170999992000041500004+41230+141150FM-15+001099999V0202501N003610090019N0112651N1+00901+00201999999ADDGA1071+009009999GF107991999999999999999999MA1101021999999MW1001REMMET06147517 0000Z 25007KT 9999 BKN030 09/02 Q1010 RMK 7CU030 A2984;EQDQ01+000000PRSWM2
0185475170999992000041503004+41230+141150FM-15+001099999V0202601N003110090019N0112651N1+00901+00101999999ADDGA1021+006009999GA2071+009009999GF107991999999999999999999MA1100911999999MW1001REMMET07547517 0300Z 26006KT 9999 SCT020 BKN030 09/01 Q1009 RMK 3CU020 7CU030 A2981;EQDQ01+000000PRSWM2
0178475170999992000041506004+41230+141150FM-15+001099999V0202601N003610600019N0112651N1+00901+00101999999ADDGA1021+009009999GA2071+060009999GF107991999999999999999999MA1100811999999MW1001REMMET06847517 0600Z 26007KT 9999 FEW030 BKN200 09/01 Q1008 RMK 2CU030 A2978;EQDQ01+000000PRSWM2
0185475170999992000041600004+41230+141150FM-15+001099999V0201101N002110090019N0112651N1+00701+00201999999ADDGA1021+004509999GA2071+009009999GF107991999999999999999999MA1100411999999MW1001REMMET07547517 0000Z 11004KT 9999 FEW015 BKN030 07/02 Q1004 RMK 1CU015 6CU030 A2968;EQDQ01+000000PRSWM2
0186475170999992000041603004+41230+141150FM-15+001099999V0202801N002610090019N0112651N1+00901-00101999999ADDGA1021+006009999GA2071+009009999GF107991999999999999999999MA1100311999999MW1001REMMET07647517 0300Z 28005KT 9999 FEW020 BKN030 09/M01 Q1003 RMK 1CU020 7CU030 A2964;EQDQ01+000000PRSWM2
0156475170999992000041606004+41230+141150FM-15+001099999V0202701N004110090019N0112651N1+00801-00201999999ADDGA1071+009009999GF107991999999999999999999MA1100311999999MW1001REMMET06247517 0600Z 27008KT 9999 BKN030 08/M02 Q1003 RMK 7CU030 A2962;EQDQ01+000000PRSWM2
0237475170999992000041700004+41230+141150FM-15+001099999V0202501N003110060019N0112651N1+00501+00201999999ADDGA1021+004509999GA2071+006009999GA3071+009009999GF107991999999999999999999MA1101021999999MW1801REMMET09547517 0000Z 25006KT 9999 -SHRA FEW015 BKN020 BKN030 05/02 Q1010 RMK 2ST015 6CU020 7CU030 A2983;EQDQ01+000003PRSWM1Q02    003PRSWM1
0207475170999992000041703004+41230+141150FM-15+001099999V0202301N004110075019N0112651N1+00701+00301999999ADDGA1021+004509999GA2071+007509999GF107991999999999999999999MA1101021999999MW1801REMMET08147517 0300Z 23008KT 9999 -SHRA SCT015 BKN025 07/03 Q1010 RMK 3CU015 7CU025 A2984;EQDQ01+000003PRSWM1Q02    003PRSWM1
0207475170999992000041706004+41230+141150FM-15+001099999V0202401N003110075019N0112651N1+00501+00201999999ADDGA1021+004509999GA2071+007509999GF107991999999999999999999MA1101081999999MW1801REMMET08147517 0600Z 24006KT 9999 -SHRA FEW015 BKN025 05/02 Q1011 RMK 2CU015 7CU025 A2986;EQDQ01+000003PRSWM1Q02    003PRSWM1
0155475170999992000041800004+41230+141150FM-15+001099999V0202501N002110090019N0112651N1+00701+00101999999ADDGA1071+009009999GF107991999999999999999999MA1101491999999MW1001REMMET06147517 0000Z 25004KT 9999 BKN030 07/01 Q1015 RMK 6CU030 A3000;EQDQ01+000000PRSWM2
0155475170999992000041803004+41230+141150FM-15+001099999V0202601N002612200019N0112651N1+01001+00201999999ADDGA1021+009009999GF104991999999999999999999MA1101491999999MW1001REMMET06147517 0300Z 26005KT 9999 SCT030 10/02 Q1015 RMK 3CU030 A2998;EQDQ01+000000PRSWM2
0200475170999992000041806004+41230+141150FM-15+001099999V0202401N003610090019N0112651N1+01001+00201999999ADDGA1071+009009999GA2071+060009999GF107991999999999999999999MA1101391999999MW1801REMMET07447517 0600Z 24007KT 9999 -SHRA BKN030 BKN200 10/02 Q1014 RMK 5CU030 A2997;EQDQ01+000003PRSWM1Q02    003PRSWM1
0157475170999992000041900004+41230+141150FM-15+001099999V0201701N002612200019N0112651N1+00901+00201999999ADDGA1021+009009999GF102991999999999999999999MA1101591999999MW1001REMMET06347517 190000Z 17005KT 9999 FEW030 09/02 Q1016 RMK 2CU030 A3001;EQDQ01+000000PRSWM2
0157475170999992000041903004+41230+141150FM-15+001099999V0201801N002112200019N0112651N1+01101+00201999999ADDGA1021+009009999GF102991999999999999999999MA1101591999999MW1001REMMET06347517 190300Z 18004KT 9999 FEW030 11/02 Q1016 RMK 1CU030 A3002;EQDQ01+000000PRSWM2
0157475170999992000041906004+41230+141150FM-15+001099999V0201701N002112200019N0112651N1+01101+00101999999ADDGA1021+009009999GF102991999999999999999999MA1101591999999MW1001REMMET06347517 190600Z 17004KT 9999 FEW030 11/01 Q1016 RMK 1CU030 A3002;EQDQ01+000000PRSWM2
0157475170999992000042003004+41230+141150FM-15+001099999V0201201N003610060019N0112651N1+00701+00301999999ADDGA1071+006009999GF107991999999999999999999MA1102001999999MW1001REMMET06347517 200300Z 12007KT 9999 BKN020 07/03 Q1020 RMK 7CU020 A3015;EQDQ01+000000PRSWM2
0187475170999992000042006004+41230+141150FM-15+001099999V0201401N003110060019N0112651N1+00701+00301999999ADDGA1021+004509999GA2071+006009999GF107991999999999999999999MA1102001999999MW1001REMMET07747517 200600Z 14006KT 9999 SCT015 BKN020 07/03 Q1020 RMK 3CU015 7CU020 A3013;EQDQ01+000000PRSWM2
0217475170999992000042103004+41230+141150FM-15+001099999V0200601N002110045019N0112651N1+01101+00801999999ADDGA1021+002409999GA2071+004509999GA3071+007509999GF107991999999999999999999MA1101491999999MW1001REMMET09147517 210300Z 06004KT 9999 FEW008 BKN015 BKN025 11/08 Q1015 RMK 2ST008 5ST015 7SC025 A2999;EQDQ01+000000PRSWM2
0237475170999992000042106004+41230+141150FM-15+001099999V0203501N002110045019N0080001N1+01201+01001999999ADDGA1021+002409999GA2071+004509999GA3081+006009999GF108991999999999999999999MA1101191999999MW1611REMMET09547517 210600Z 35004KT 8000 -RA FEW008 BKN015 OVC020 12/10 Q1012 RMK 2ST008 6ST015 8SC020 A2991;EQDQ01+000003PRSWM1Q02    003PRSWM1
0237475170999992000042200004+41230+141150FM-15+001099999V0202201N002610030019N0112651N1+01101+01001999999ADDGA1021+001509999GA2071+003009999GA3081+006009999GF108991999999999999999999MA1099491999999MW1611REMMET09547517 220000Z 22005KT 9999 -RA FEW005 BKN010 OVC020 11/10 Q0995 RMK 2ST005 5ST010 8SC020 A2939;EQDQ01+000003PRSWM1Q02    003PRSWM1
0198475170999992000042203004+41230+141150FM-15+001099999V0202501N005710045019N0112651N1+01001+00801999999ADDGA1071+004509999GA2071+007509999GF107991999999999999999999MA1099591999999MW1001OC101181REMMET08047517 220300Z 25011G23KT 9999 BKN015 BKN025 10/08 Q0996 RMK 5ST015 7CU025 A2942;EQDQ01+000000PRSWM2
0239475170999992000042206004+41230+141150FM-15+001099999V0202401N004110060019N0112651N1+01101+00701999999ADDGA1021+003009999GA2021+004509999GA3071+006009999GF107991999999999999999999MA1099591999999MW1801REMMET09747517 220600Z 24008KT 9999 -SHRA FEW010 SCT015 BKN020 11/07 Q0996 RMK 1ST010 3ST015 7CU020 A2944;EQDQ01+000003PRSWM1Q02    003PRSWM1
0187475170999992000042300004+41230+141150FM-15+001099999V0201901N001510105019N0112651N1+01101+00601999999ADDGA1071+010509999GA2071+024009999GF107991999999999999999999MA1099701999999MW1001REMMET07747517 230000Z 19003KT 9999 BKN035 BKN080 11/06 Q0997 RMK 5CU035 7AC080 A2947;EQDQ01+000000PRSWM2
0198475170999992000042303004+41230+141150FM-15+001099999V0202301N005110090019N0112651N1+01201+00501999999ADDGA1071+009009999GA2071+024009999GF107991999999999999999999MA1099591999999MW1001OC101131REMMET08047517 230300Z 23010G22KT 9999 BKN030 BKN080 12/05 Q0996 RMK 5CU030 7AC080 A2941;EQDQ01+000000PRSWM2
0187475170999992000042306004+41230+141150FM-15+001099999V0202401N005110090019N0112651N1+01201+00201999999ADDGA1071+009009999GA2071+024009999GF107991999999999999999999MA1099491999999MW1001REMMET07747517 230600Z 24010KT 9999 BKN030 BKN080 12/02 Q0995 RMK 5CU030 6AC080 A2940;EQDQ01+000000PRSWM2
0179475170999992000042400004+41230+141150FM-15+001099999V0202401N002610075019N0112651N1+00701+00501999999ADDGA1071+007509999GF107991999999999999999999MA1100101999999MW1801REMMET06947517 240000Z 24005KT 9999 -SHRA BKN025 07/05 Q1001 RMK 7CU025 A2956;EQDQ01+000003PRSWM1Q02    003PRSWM1
0187475170999992000042403004+41230+141150FM-15+001099999V0202301N002610075019N0112651N1+00901+00501999999ADDGA1021+004509999GA2071+007509999GF107991999999999999999999MA1100101999999MW1001REMMET07747517 240300Z 23005KT 9999 FEW015 BKN025 09/05 Q1001 RMK 2CU015 7CU025 A2959;EQDQ01+000000PRSWM2
0217475170999992000042406004+41230+141150FM-15+001099999V0202401N003110075019N0112651N1+01001+00601999999ADDGA1021+004509999GA2071+007509999GA3071+030009999GF107991999999999999999999MA1100101999999MW1001REMMET09147517 240600Z 24006KT 9999 FEW015 BKN025 BKN100 10/06 Q1001 RMK 1CU015 6CU025 7AC100 A2957;EQDQ01+000000PRSWM2
0187475170999992000042500004+41230+141150FM-15+001099999V0201901N002112200019N0112651N1+00901+00701999999ADDGA1021+004509999GA2021+007509999GF104991999999999999999999MA1100311999999MW1001REMMET07747517 250000Z 19004KT 9999 FEW015 SCT025 09/07 Q1003 RMK 1CU015 3CU025 A2964;EQDQ01+000000PRSWM2
0198475170999992000042503004+41230+141150FM-15+001099999V0202601N005112200019N0112651N1+01201+00501999999ADDGA1021+007509999GA2021+024009999GF104991999999999999999999MA1100311999999MW1001OC101131REMMET08047517 250300Z 26010G22KT 9999 SCT025 SCT080 12/05 Q1003 RMK 3CU025 3AC080 A2964;EQDQ01+000000PRSWM2
0198475170999992000042506004+41230+141150FM-15+001099999V0202501N006710075019N0112651N1+00901+00401999999ADDGA1021+006009999GA2071+007509999GF107991999999999999999999MA1100511999999MW1001OC101491REMMET08047517 250600Z 25013G29KT 9999 FEW020 BKN025 09/04 Q1005 RMK 1CU020 7CU025 A2970;EQDQ01+000000PRSWM2
0180475170999992000042600004+41230+141150FM-15+001099999V0201701N002110600019N0112651N1+00901+00301999999ADDGA1021+009009999GA2071+060009999GF107991999999999999999999MA1101191999999MW1001REMMET07047517 260000Z 17004KT 9999 FEW030 BKN200 09/03 Q1012 RMK 2CU030 A2990;EQDQ01+000000PRSWM2
0180475170999992000042603004+41230+141150FM-15+001099999V0201701N001510600019N0112651N1+01101+00501999999ADDGA1021+009009999GA2071+060009999GF107991999999999999999999MA1101081999999MW1001REMMET07047517 260300Z 17003KT 9999 FEW030 BKN200 11/05 Q1011 RMK 2CU030 A2988;EQDQ01+000000PRSWM2
0150475170999992000042606004+41230+141150FM-15+001099999V0200501N002610600019N0112651N1+01201+00501999999ADDGA1071+060009999GF107991999999999999999999MA1101021999999MW1001REMMET05647517 260600Z 05005KT 9999 BKN200 12/05 Q1010 RMK A2983;EQDQ01+000000PRSWM2
0237475170999992000042700004+41230+141150FM-15+001099999V0200901N006710030019N0112651N1+00701+00501999999ADDGA1021+001509999GA2071+003009999GA3081+006009999GF108991999999999999999999MA1100511999999MW1611REMMET09547517 270000Z 09013KT 9999 -RA FEW005 BKN010 OVC020 07/05 Q1005 RMK 2ST005 5ST010 8SC020 A2971;EQDQ01+000003PRSWM1Q02    003PRSWM1
0239475170999992000042800004+41230+141150FM-15+001099999V0202501N001510090019N0112651N1+00701+00501999999ADDGA1021+003009999GA2071+009009999GA3071+024009999GF107991999999999999999999MA1099801999999MW1801REMMET09747517 280000Z 25003KT 9999 -SHRA FEW010 BKN030 BKN080 07/05 Q0998 RMK 2ST010 6CU030 7AC080 A2948;EQDQ01+000003PRSWM1Q02    003PRSWM1
0187475170999992000042803004+41230+141150FM-15+001099999V0200701N001510075019N0112651N1+00901+00601999999ADDGA1021+004509999GA2071+007509999GF107991999999999999999999MA1099701999999MW1001REMMET07747517 280300Z 07003KT 9999 FEW015 BKN025 09/06 Q0997 RMK 2ST015 7CU025 A2945;EQDQ01+000000PRSWM2
0187475170999992000042806004+41230+141150FM-15+001099999V0201001N000510075019N0112651N1+00901+00601999999ADDGA1021+006009999GA2071+007509999GF107991999999999999999999MA1099701999999MW1001REMMET07747517 280600Z 10001KT 9999 FEW020 BKN025 09/06 Q0997 RMK 1CU020 7CU025 A2945;EQDQ01+000000PRSWM2
0191475170999992000042900004+41230+141150FM-15+001099999V0202701N004610600019N0112651N1+00801+00101999999ADDGA1021+009009999GA2071+060009999GF107991999999999999999999MA1100711999999MW1001OC101031REMMET07347517 290000Z 27009G20KT 9999 FEW030 BKN200 08/01 Q1007 RMK 1CU030 A2976;EQDQ01+000000PRSWM2
0187475170999992000042903004+41230+141150FM-15+001099999V0202601N004112200019N0112651N1+01001+00201999999ADDGA1021+009009999GA2021+036009999GF104991999999999999999999MA1100811999999MW1001REMMET07747517 290300Z 26008KT 9999 FEW030 SCT120 10/02 Q1008 RMK 1CU030 3AC120 A2978;EQDQ01+000000PRSWM2
0187475170999992000042906004+41230+141150FM-15+001099999V0202601N003612200019N0112651N1+01101+00101999999ADDGA1021+009009999GA2021+030009999GF104991999999999999999999MA1100811999999MW1001REMMET07747517 290600Z 26007KT 9999 FEW030 SCT100 11/01 Q1008 RMK 1CU030 4AC100 A2979;EQDQ01+000000PRSWM2
0157475170999992000043000004+41230+141150FM-15+001099999V0201301N001512200019N0112651N1+00901+00401999999ADDGA1021+009009999GF102991999999999999999999MA1101491999999MW1001REMMET06347517 300000Z 13003KT 9999 FEW030 09/04 Q1015 RMK 1CU030 A2999;EQDQ01+000000PRSWM2
0180475170999992000043003004+41230+141150FM-15+001099999V0201001N002110600019N0112651N1+01201+00701999999ADDGA1021+009009999GA2071+060009999GF107991999999999999999999MA1101291999999MW1001REMMET07047517 300300Z 10004KT 9999 FEW030 BKN200 12/07 Q1013 RMK 1CU030 A2994;EQDQ01+000000PRSWM2
0217475170999992000050100004+41230+141150FM-15+001099999V0200801N002610075019N0112651N1+01101+00701999999ADDGA1021+004509999GA2071+007509999GA3071+024009999GF107991999999999999999999MA1101191999999MW1001REMMET09147517 010000Z 08005KT 9999 FEW015 BKN025 BKN080 11/07 Q1012 RMK 2CU015 5CU025 7AC080 A2990;EQDQ01+000000PRSWM2
0187475170999992000050103004+41230+141150FM-15+001099999V0200801N002610075019N0112651N1+01201+00901999999ADDGA1021+004509999GA2071+007509999GF107991999999999999999999MA1101081999999MW1001REMMET07747517 010300Z 08005KT 9999 SCT015 BKN025 12/09 Q1011 RMK 3CU015 7CU025 A2988;EQDQ01+000000PRSWM2
0217475170999992000050106004+41230+141150FM-15+001099999V0200301N003110045019N0090001N1+01001+00801999999ADDGA1021+003009999GA2071+004509999GA3081+007509999GF108991999999999999999999MA1101081999999MW1001REMMET09147517 010600Z 03006KT 9000 FEW010 BKN015 OVC025 10/08 Q1011 RMK 2ST010 5ST015 8SC025 A2986;EQDQ01+000000PRSWM2
0217475170999992000050200004+41230+141150FM-15+001099999V0200701N002610075019N0112651N1+01001+00801999999ADDGA1021+003009999GA2071+007509999GA3071+024009999GF107991999999999999999999MA1101291999999MW1001REMMET09147517 020000Z 07005KT 9999 FEW010 BKN025 BKN080 10/08 Q1013 RMK 2ST010 5CU025 7AC080 A2993;EQDQ01+000000PRSWM2
0187475170999992000050203004+41230+141150FM-15+001099999V0200701N002610240019N0112651N1+01301+00901999999ADDGA1021+006009999GA2071+024009999GF107991999999999999999999MA1101291999999MW1001REMMET07747517 020300Z 07005KT 9999 SCT020 BKN080 13/09 Q1013 RMK 3CU020 7AC080 A2992;EQDQ01+000000PRSWM2
0207475170999992000050206004+41230+141150FM-15+001099999V0200501N003110045019N0070001N1+01101+00901999999ADDGA1021+003009999GA2081+004509999GF108991999999999999999999MA1101191999999MW1511REMMET08147517 020600Z 05006KT 7000 -DZ SCT010 OVC015 11/09 Q1012 RMK 3ST010 8ST015 A2990;EQDQ01+000003PRSWM1Q02    003PRSWM1
0239475170999992000050300004+41230+141150FM-15+001099999V0200201N001010030019N0080001N1+01101+01001999999ADDGA1021+001509999GA2071+003009999GA3071+006009999GF107991999999999999999999MA1101021999999MW1801REMMET09747517 030000Z 02002KT 8000 -SHRA FEW005 BKN010 BKN020 11/10 Q1010 RMK 2ST005 5CU010 7CU020 A2985;EQDQ01+000003PRSWM1Q02    003PRSWM1
0239475170999992000050400004+41230+141150FM-15+001099999V0200201N002610030019N0112651N1+00801+00701999999ADDGA1021+002409999GA2071+003009999GA3071+006009999GF107991999999999999999999MA1101291999999MW1801REMMET09747517 040000Z 02005KT 9999 -SHRA SCT008 BKN010 BKN020 08/07 Q1013 RMK 3ST008 5ST010 7CU020 A2994;EQDQ01+000003PRSWM1Q02    003PRSWM1
0207475170999992000050403004+41230+141150FM-15+001099999V0200401N002610030019N0112651N1+00801+00701999999ADDGA1021+002409999GA2081+003009999GF108991999999999999999999MA1101391999999MW1511REMMET08147517 040300Z 04005KT 9999 -DZ SCT008 OVC010 08/07 Q1014 RMK 3ST008 8ST010 A2994;EQDQ01+000003PRSWM1Q02    003PRSWM1
0207475170999992000050406004+41230+141150FM-15+001099999V0200201N002610030019N0112651N1+00801+00701999999ADDGA1021+001809999GA2081+003009999GF108991999999999999999999MA1101391999999MW1511REMMET08147517 040600Z 02005KT 9999 -DZ SCT006 OVC010 08/07 Q1014 RMK 3ST006 8ST010 A2995;EQDQ01+000003PRSWM1Q02    003PRSWM1
0236475170999992000050500004+41230+141150FM-15+001099999V0202201N001010030019N0050001N1+00901+00901999999ADDGA1021+001509999GA2071+003009999GA3071+009009999GF107991999999999999999999MA1101801999999MW1101REMMET09447517 050000Z 22002KT 5000 BR FEW005 BKN010 BKN030 09/09 Q1018 RMK 2ST005 5ST010 7CU030 A3007;EQDQ01+000003PRSWM1Q02    003PRSWM1
0187475170999992000050503004+41230+141150FM-15+001099999V0202001N000510090019N0112651N1+01001+00801999999ADDGA1021+001509999GA2071+009009999GF107991999999999999999999MA1101901999999MW1001REMMET07747517 050300Z 20001KT 9999 FEW005 BKN030 10/08 Q1019 RMK 1ST005 7CU030 A3010;EQDQ01+000000PRSWM2
0187475170999992000050506004+41230+141150FM-15+001099999V0201901N001512200019N0112651N1+01101+00801999999ADDGA1021+004509999GA2021+007509999GF104991999999999999999999MA1101801999999MW1001REMMET07747517 050600Z 19003KT 9999 FEW015 SCT025 11/08 Q1018 RMK 1ST015 3CU025 A3008;EQDQ01+000000PRSWM2
0180475170999992000050600004+41230+141150FM-15+001099999V0201001N002110600019N0112651N1+01001+00601999999ADDGA1021+007509999GA2071+060009999GF107991999999999999999999MA1102001999999MW1001REMMET07047517 060000Z 10004KT 9999 FEW025 BKN200 10/06 Q1020 RMK 2CU025 A3014;EQDQ01+000000PRSWM2
0187475170999992000050603004+41230+141150FM-15+001099999V0201001N002110090019N0112651N1+01201+00701999999ADDGA1021+007509999GA2071+009009999GF107991999999999999999999MA1101901999999MW1001REMMET07747517 060300Z 10004KT 9999 FEW025 BKN030 12/07 Q1019 RMK 2CU025 7CU030 A3012;EQDQ01+000000PRSWM2
0180475170999992000050606004+41230+141150FM-15+001099999V0201301N003610600019N0112651N1+01201+00701999999ADDGA1021+007509999GA2071+060009999GF107991999999999999999999MA1101801999999MW1001REMMET07047517 060600Z 13007KT 9999 FEW025 BKN200 12/07 Q1018 RMK 1CU025 A3007;EQDQ01+000000PRSWM2
0236475170999992000050700004+41230+141150FM-15+001099999V0201101N001510090019N0015001N1+01001+00801999999ADDGA1021+001509999GA2071+009009999GA3071+024009999GF107991999999999999999999MA1101801999999MW1101REMMET09447517 070000Z 11003KT 1500 BR FEW005 BKN030 BKN080 10/08 Q1018 RMK 2ST005 5CU030 7AC080 A3008;EQDQ01+000003PRSWM1Q02    003PRSWM1
0210475170999992000050703004+41230+141150FM-15+001099999V0200601N004110600019N0112651N1+01401+01001999999ADDGA1021+003009999GA2021+030009999GA3071+060009999GF107991999999999999999999MA1101801999999MW1001REMMET08447517 070300Z 06008KT 9999 FEW010 SCT100 BKN200 14/10 Q1018 RMK 1ST010 3AC100 A3007;EQDQ01+000000PRSWM2
0180475170999992000050706004+41230+141150FM-15+001099999V0200601N003110600019N0112651N1+01501+01001999999ADDGA1021+009009999GA2071+060009999GF107991999999999999999999MA1101691999999MW1001REMMET07047517 070600Z 06006KT 9999 FEW030 BKN200 15/10 Q1017 RMK 1CU030 A3004;EQDQ01+000000PRSWM2
0187475170999992000050900004+41230+141150FM-15+001099999V0202001N002110075019N0112651N1+01301+01001999999ADDGA1021+002409999GA2071+007509999GF107991999999999999999999MA1101391999999MW1001REMMET07747517 090000Z 20004KT 9999 SCT008 BKN025 13/10 Q1014 RMK 3ST008 6CU025 A2996;EQDQ01+000000PRSWM2
