0174475450999992000010100004+39620+140220FM-15+0096RJSK V0203201N002610120019N0112651N1+00101-00301999999ADDGA1021+007509999GA2071+012009999GF107991999999999999999999MA1102201999999MW1001REMMET083RJSK 0000Z 32005KT 280V340 9999 FEW025 BKN040 01/M03 Q1022 RMK 1CU025 7CU040 A3019;
0229475450999992000010101004+39620+140220FM-15+0096RJSK V0200101N003610150019N0112651N1+00001-00201999999ADDGA1021+006009999GA2021+010509999GA3071+015009999GF107991999999999999999999MA1102201999999MW1851REMMET103RJSK 0100Z 01007KT 340V050 9999 -SHSN FEW020 SCT035 BKN050 00/M02 Q1022 RMK 1CU020 4CU035 7CU050 A3020;EQDQ01    003PRSWM1
0231475450999992000010101254+39620+140220FM-15+0096RJSK V0203401N003110105019N0035001N1+00101-00201999999ADDGA1021+003009999GA2021+006009999GA3071+010509999GF107991999999999999999999MA1102201999999MW1851REMMET105RJSK 010125Z 34006KT 320V030 3500 -SHSN FEW010 SCT020 BKN035 01/M02 Q1022 RMK 2ST010 3CU020 7CU035 A3021;EQDQ01    003PRSWM1
0231475450999992000010101324+39620+140220FM-16+0096RJSK V0203501N004110105019N0080001N1+00001-00301999999ADDGA1021+003009999GA2021+006009999GA3071+010509999GF107991999999999999999999MA1102201999999MW1851REMMET105RJSK 010132Z 35008KT 330V030 8000 -SHSN FEW010 SCT020 BKN035 00/M03 Q1022 RMK 1ST010 3CU020 7CU035 A3021;EQDQ01    003PRSWM1
0174475450999992000010102004+39620+140220FM-15+0096RJSK V0203301N003110150019N0112651N1+00101-00301999999ADDGA1021+006009999GA2071+015009999GF107991999999999999999999MA1102201999999MW1001REMMET083RJSK 0200Z 33006KT 300V360 9999 FEW020 BKN050 01/M03 Q1022 RMK 1CU020 5CU050 A3020;
0196475450999992000010103004+39620+140220FM-15+0096RJSK V02099999999990150019N0112651N1+00101-00201999999ADDGA1021+003009999GA2021+010509999GA3071+015009999GF107991999999999999999999MA1102201999999MW1001REMMET089RJSK 0300Z VRB03KT 9999 FEW010 SCT035 BKN050 01/M02 Q1022 RMK 1ST010 3CU035 7CU050 A3018;
0204475450999992000010104004+39620+140220FM-15+0096RJSK V0203001N002110060019N0112651N1+00101-00201999999ADDGA1021+003009999GA2071+006009999GA3071+012009999GF107991999999999999999999MA1102101999999MW1001REMMET097RJSK 0400Z 30004KT 260V360 9999 FEW010 BKN020 BKN040 01/M02 Q1021 RMK 1ST010 5CU020 6CU040 A3017;
0229475450999992000010105004+39620+140220FM-15+0096RJSK V0203401N004110120019N0112651N1+00101-00201999999ADDGA1021+003009999GA2021+004509999GA3071+012009999GF107991999999999999999999MA1102101999999MW1851REMMET103RJSK 0500Z 34008KT 310V010 9999 -SHSN FEW010 SCT015 BKN040 01/M02 Q1021 RMK 1ST010 3CU015 7CU040 A3017;EQDQ01    003PRSWM1
0221475450999992000010106004+39620+140220FM-15+0096RJSK V0203001N002110105019N0112651N1+00101-00201999999ADDGA1021+003009999GA2021+007509999GA3071+010509999GF107991999999999999999999MA1102201999999MW1851REMMET095RJSK 0600Z 30004KT 9999 -SHSN FEW010 SCT025 BKN035 01/M02 Q1022 RMK 1ST010 3CU025 7CU035 A3019;EQDQ01    003PRSWM1
0204475450999992000010107004+39620+140220FM-15+0096RJSK V0203101N002610120019N0112651N1+00101-00301999999ADDGA1021+003009999GA2021+006009999GA3071+012009999GF107991999999999999999999MA1102201999999MW1001REMMET097RJSK 0700Z 31005KT 280V360 9999 FEW010 SCT020 BKN040 01/M03 Q1022 RMK 1ST010 3CU020 7CU040 A3020;
0223475450999992000010107404+39620+140220FM-16+0096RJSK V0203201N003110030019N0040001N1+00101-00201999999ADDGA1021+001509999GA2071+003009999GA3071+009009999GF107991999999999999999999MA1102201999999MW1851REMMET097RJSK 010740Z 32006KT 4000 -SHSN FEW005 BKN010 BKN030 01/M02 Q1022 RMK 1ST005 6ST010 7CU030 A3020;EQDQ01    003PRSWM1
0229475450999992000010108004+39620+140220FM-15+0096RJSK V0203401N003110024019N0060001N1+00001-00201999999ADDGA1021+001509999GA2071+002409999GA3071+007509999GF107991999999999999999999MA1102201999999MW1851REMMET103RJSK 0800Z 34006KT 310V010 6000 -SHSN FEW005 BKN008 BKN025 00/M02 Q1022 RMK 1ST005 6ST008 7CU025 A3020;EQDQ01    003PRSWM1
0231475450999992000010108074+39620+140220FM-16+0096RJSK V0203401N003110045019N0112651N1+00001-00201999999ADDGA1021+001509999GA2071+004509999GA3071+007509999GF107991999999999999999999MA1102201999999MW1851REMMET105RJSK 010807Z 34006KT 310V020 9999 -SHSN FEW005 BKN015 BKN025 00/M02 Q1022 RMK 1ST005 6ST015 7CU025 A3020;EQDQ01    003PRSWM1
0231475450999992000010108424+39620+140220FM-16+0096RJSK V0203201N003110045019N0030001N1+00001-00201999999ADDGA1021+001509999GA2021+003009999GA3071+004509999GF107991999999999999999999MA1102301999999MW1851REMMET105RJSK 010842Z 32006KT 290V360 3000 -SHSN FEW005 SCT010 BKN015 00/M02 Q1023 RMK 1ST005 3ST010 6ST015 A3021;EQDQ01    003PRSWM1
0230475450999992000010109004+39620+140220FM-15+0096RJSK V0203201N003110030019N0112651N1+00001-00201999999ADDGA1021+001509999GA2071+003009999GA3071+007509999GF107991999999999999999999MA1102301999999MW1851REMMET104RJSK 0900Z 32006KT 290V350 9999 -SHSN FEW005 BKN010 BKN025 M00/M02 Q1023 RMK 1ST005 6ST010 7CU025 A3021;EQDQ01    003PRSWM1
0221475450999992000010110004+39620+140220FM-15+0096RJSK V0203001N002610051019N0040001N1+00001-00201999999ADDGA1021+001509999GA2021+003009999GA3071+005109999GF107991999999999999999999MA1102301999999MW1851REMMET095RJSK 1000Z 30005KT 4000 -SHSN FEW005 SCT010 BKN017 00/M02 Q1023 RMK 1ST005 3ST010 7CU017 A3021;EQDQ01    003PRSWM1
0223475450999992000010110104+39620+140220FM-16+0096RJSK V0203101N003110045019N0050001N1+00001-00201999999ADDGA1021+000909999GA2021+003009999GA3071+004509999GF107991999999999999999999MA1102301999999MW1851REMMET097RJSK 011010Z 31006KT 5000 -SHSN FEW003 SCT010 BKN015 00/M02 Q1023 RMK 1ST003 4ST010 7ST015 A3021;EQDQ01    003PRSWM1
0222475450999992000010111004+39620+140220FM-15+0096RJSK V0203401N003610060019N0040001N1+00001-00201999999ADDGA1021+000909999GA2021+003009999GA3071+006009999GF107991999999999999999999MA1102301999999MW1851REMMET096RJSK 1100Z 34007KT 4000 -SHSN FEW003 SCT010 BKN020 M00/M02 Q1023 RMK 1ST003 3ST010 7CU020 A3021;EQDQ01    003PRSWM1
0232475450999992000010111184+39620+140220FM-16+0096RJSK V0203301N003110105019N0080001N1+00001-00201999999ADDGA1021+001509999GA2021+004509999GA3071+010509999GF107991999999999999999999MA1102201999999MW1851REMMET106RJSK 011118Z 33006KT 310V010 8000 -SHSN FEW005 SCT015 BKN035 M00/M02 Q1022 RMK 1ST005 4ST015 7CU035 A3021;EQDQ01    003PRSWM1
0167475450999992000010121004+39620+140220FM-15+0096RJSK V02099999999990150019N0112651N1+00001-00301999999ADDGA1021+003009999GA2071+015009999GF107991999999999999999999MA1102101999999MW1001REMMET076RJSK 2100Z VRB01KT 9999 FEW010 BKN050 M00/M03 Q1021 RMK 1ST010 7CU050 A3016;
0167475450999992000010122004+39620+140220FM-15+0096RJSK V0202001N002110150019N0112651N1-00101-00301999999ADDGA1021+009009999GA2071+015009999GF107991999999999999999999MA1102101999999MW1001REMMET076RJSK 2200Z 20004KT 9999 FEW030 BKN050 M01/M03 Q1021 RMK 1CU030 7CU050 A3017;
0167475450999992000010123004+39620+140220FM-15+0096RJSK V02099999999990150019N0112651N1-00101-00301999999ADDGA1021+009009999GA2071+015009999GF107991999999999999999999MA1102101999999MW1001REMMET076RJSK 2300Z VRB02KT 9999 FEW030 BKN050 M01/M03 Q1021 RMK 1CU030 7CU050 A3017;
0186475450999992000010200004+39620+140220FM-15+0096RJSK V02099999999990150019N0112651N1+00001-00201999999ADDGA1021+003009999GA2071+015009999GF107991999999999999999999MA1102201999999MW1001REMMET076RJSK 0000Z VRB03KT 9999 FEW010 BKN050 M00/M02 Q1022 RMK 1ST010 6SC050 A3018;EQDQ01+000000PRSWM2
0155475450999992000010201004+39620+140220FM-15+0096RJSK V02099999999992200019N0112651N1+00101-00201999999ADDGA1021+009009999GF102991999999999999999999MA1102101999999MW1001REMMET061RJSK 0100Z VRB01KT 9999 FEW030 01/M02 Q1021 RMK 1CU030 A3017;EQDQ01+000000PRSWM2
0163475450999992000010202004+39620+140220FM-15+0096RJSK V0201901N002112200019N0112651N1+00201-00201999999ADDGA1021+006009999GF102991999999999999999999MA1102001999999MW1001REMMET069RJSK 0200Z 19004KT 120V240 9999 FEW020 02/M02 Q1020 RMK 2CU020 A3014;EQDQ01+000000PRSWM2
0193475450999992000010203004+39620+140220FM-15+0096RJSK V0201901N002112200019N0112651N1+00201-00201999999ADDGA1021+006009999GA2021+009009999GF104991999999999999999999MA1102001999999MW1001REMMET083RJSK 0300Z 19004KT 140V250 9999 FEW020 SCT030 02/M02 Q1020 RMK 1CU020 3CU030 A3013;EQDQ01+000000PRSWM2
0178475450999992000010204004+39620+140220FM-15+0096RJSK V02099999999999999999N0112651N1+00301-00301999999ADDGA1021+009009999GA2071+999999999GF107991999999999999999999MA1101901999999MW1001REMMET068RJSK 0400Z VRB04KT 9999 FEW030 BKN/// 03/M03 Q1019 RMK 1CU030 A3010;EQDQ01+000000PRSWM2
0186475450999992000010205004+39620+140220FM-15+0096RJSK V0201601N002119999999N0112651N1+00301-00301999999ADDGA1021+009009999GA2071+999999999GF107991999999999999999999MA1101801999999MW1001REMMET076RJSK 0500Z 16004KT 100V250 9999 FEW030 BKN/// 03/M03 Q1018 RMK 2CU030 A3008;EQDQ01+000000PRSWM2
0186475450999992000010206004+39620+140220FM-15+0096RJSK V0201501N003112200019N0112651N1+00301-00401999999ADDGA1021+009009999GA2021+999999999GF104991999999999999999999MA1101801999999MW1001REMMET076RJSK 0600Z 15006KT 100V200 9999 FEW030 SCT/// 03/M04 Q1018 RMK 1CU030 A3008;EQDQ01+000000PRSWM2
0186475450999992000010207004+39620+140220FM-15+0096RJSK V0201501N002119999999N0112651N1+00201-00401999999ADDGA1021+009009999GA2071+999999999GF107991999999999999999999MA1101801999999MW1001REMMET076RJSK 0700Z 15004KT 100V220 9999 FEW030 BKN/// 02/M04 Q1018 RMK 1CU030 A3007;EQDQ01+000000PRSWM2
0178475450999992000010208004+39620+140220FM-15+0096RJSK V0201201N002619999999N0112651N1+00101-00501999999ADDGA1021+009009999GA2071+999999999GF107991999999999999999999MA1101691999999MW1001REMMET068RJSK 0800Z 12005KT 9999 FEW030 BKN/// 01/M05 Q1017 RMK 1CU030 A3004;EQDQ01+000000PRSWM2
0179475450999992000010209004+39620+140220FM-15+0096RJSK V0200901N002619999999N0112651N1+00001-00501999999ADDGA1021+009009999GA2071+999999999GF107991999999999999999999MA1101591999999MW1001REMMET069RJSK 0900Z 09005KT 9999 FEW030 BKN/// M00/M05 Q1016 RMK 1CU030 A3003;EQDQ01+000000PRSWM2
0208475450999992000010210004+39620+140220FM-15+0096RJSK V02099999999990300019N0112651N1+00101-00501999999ADDGA1021+009009999GA2071+030009999GA3071+999999999GF107991999999999999999999MA1101691999999MW1001REMMET082RJSK 1000Z VRB03KT 9999 FEW030 BKN100 BKN/// 01/M05 Q1017 RMK 2CU030 5AC100 A3004;EQDQ01+000000PRSWM2
0217475450999992000010211004+39620+140220FM-15+0096RJSK V0201201N004110240019N0112651N1+00001-00501999999ADDGA1021+009009999GA2071+024009999GA3071+999999999GF107991999999999999999999MA1101591999999MW1001REMMET091RJSK 1100Z 12008KT 090V150 9999 FEW030 BKN080 BKN/// M00/M05 Q1016 RMK 2CU030 5AC080 A3000;EQDQ01+000000PRSWM2
0252475450999992000010220384+39620+140220FM-16+0096RJSK V0201201N006210024019N0025001N1+00001-00101999999ADDGA1021+000909999GA2071+002409999GA3071+004509999GF107991999999999999999999MA1100911999999MW1711REMMET110RJSK 022038Z 12012KT 2500 R28/1300V2000U -SN FEW003 BKN008 BKN015 00/M01 Q1009 RMK 1ST003 5ST008 7ST015 A2980;EQDQ01+000003PRSWM1Q02    003PRSWM1
0235475450999992000010221004+39620+140220FM-15+0096RJSK V0201201N006210018019N0112651N1+00001-00101999999ADDGA1021+000309999GA2021+000909999GA3071+001809999GF107991999999999999999999MA1100911999999MW1711REMMET093RJSK 2100Z 12012KT 9999 -SN FEW001 SCT003 BKN006 00/M01 Q1009 RMK 1ST001 3ST003 6ST006 A2980;EQDQ01+000003PRSWM1Q02    003PRSWM1
0237475450999992000010221314+39620+140220FM-16+0096RJSK V0201301N006210090019N0112651N1+00101-00101999999ADDGA1021+000909999GA2021+001809999GA3071+009009999GF107991999999999999999999MA1100811999999MW1711REMMET095RJSK 022131Z 13012KT 9999 -SN FEW003 SCT006 BKN030 01/M01 Q1008 RMK 1ST003 3ST006 7SC030 A2978;EQDQ01+000003PRSWM1Q02    003PRSWM1
0215475450999992000010222004+39620+140220FM-15+0096RJSK V0201301N005710105019N0112651N1+00101+00001999999ADDGA1021+000309999GA2021+007509999GA3071+010509999GF107991999999999999999999MA1100711999999MW1001REMMET089RJSK 2200Z 13011KT 9999 FEW001 SCT025 BKN035 01/M00 Q1007 RMK 1ST001 3CU025 6CU035 A2976;EQDQ01+000000PRSWM2
0237475450999992000010223004+39620+140220FM-15+0096RJSK V0201401N004610120019N0112651N1+00101-00101999999ADDGA1021+003009999GA2021+009009999GA3071+012009999GF107991999999999999999999MA1100711999999MW1851REMMET095RJSK 2300Z 14009KT 9999 -SHSN FEW010 SCT030 BKN040 01/M01 Q1007 RMK 1ST010 4CU030 7CU040 A2975;EQDQ01+000003PRSWM1Q02    003PRSWM1
0253475450999992000010300004+39620+140220FM-15+0096RJSK V0201401N005110090019N0112651N1+00101+00001999999ADDGA1021+003009999GA2021+006009999GA3071+009009999GF107991999999999999999999MA1100711999999MW1801MW2851REMMET105RJSK 0000Z 14010KT 110V170 9999 -SHRASN FEW010 SCT020 BKN030 01/M00 Q1007 RMK 1ST010 3CU020 7CU030 A2975;EQDQ01+000003PRSWM1Q02    003PRSWM1
0222475450999992000010301004+39620+140220FM-15+0096RJSK V0201401N004610090019N0112651N1+00201+00101999999ADDGA1021+004509999GA2071+009009999GA3071+015009999GF107991999999999999999999MA1100611999999MW1001REMMET096RJSK 0100Z 14009KT 100V160 9999 FEW015 BKN030 BKN050 02/01 Q1006 RMK 1ST015 5CU030 7CU050 A2973;EQDQ01+000000PRSWM2
0236475450999992000010302004+39620+140220FM-15+0096RJSK V0201001N003610060019N0112651N1+00201+00101999999ADDGA1021+003009999GA2071+006009999GA3071+012009999GF107991999999999999999999MA1100611999999MW1801REMMET094RJSK 0200Z 10007KT 9999 -SHRA FEW010 BKN020 BKN040 02/01 Q1006 RMK 1ST010 5CU020 7CU040 A2972;EQDQ01+000003PRSWM1Q02    003PRSWM1
0297475450999992000010302364+39620+140220FM-16+0096RJSK V0201301N005110090019N0112651N1+00201+00101999999ADDGA1021+001509999GA2021+006009099GA3021+006009999GA4071+009009999GF107991999999999999999999MA1100511999999MW1801MW2951REMMET133RJSK 030236Z 13010KT 9999 -TSRA FEW005 SCT020 FEW020CB BKN030 02/01 Q1005 RMK 1ST005 3CU020 1CB020 7CU030 A2969 FBL TS W MOV UNKNOWN;EQDQ01+000003PRSWM1Q02    003PRSWM1
0292475450999992000010303004+39620+140220FM-15+0096RJSK V0201201N004610090019N0080001N1+00301+00101999999ADDGA1021+001509999GA2021+006009099GA3021+006009999GA4071+009009999GF107991999999999999999999MA1100511999999MW1801REMMET134RJSK 0300Z 12009KT 090V150 8000 -SHRA FEW005 SCT020 FEW020CB BKN030 03/01 Q1005 RETS RMK 1ST005 4CU020 1CB020 7CU030 A2970 CB W MOV E;EQDQ01+000003PRSWM1Q02    003PRSWM1
0245475450999992000010303064+39620+140220FM-16+0096RJSK V0201401N002610060019N0040001N1+00201+00101999999ADDGA1021+001509999GA2021+003009999GA3071+006009999GF107991999999999999999999MA1100511999999MW1811REMMET103RJSK 030306Z 14005KT 070V240 4000 SHRA FEW005 SCT010 BKN020 02/01 Q1005 RMK 1ST005 3ST010 7CU020 A2970;EQDQ01+000003PRSWM1Q02    003PRSWM1
0243475450999992000010303204+39620+140220FM-15+0096RJSK V02099999999990045019N0070001N1+00201+00201999999ADDGA1021+001509999GA2021+003009999GA3071+004509999GF107991999999999999999999MA1100611999999MW1801REMMET101RJSK 030320Z VRB07KT 7000 -SHRA FEW005 SCT010 BKN015 02/02 Q1006 RERA RMK 1ST005 3ST010 7CU015 A2972;EQDQ01+000003PRSWM1Q02    003PRSWM1
0233475450999992000010304004+39620+140220FM-15+0096RJSK V0201901N002110045019N0112651N1+00301+00201999999ADDGA1021+000609999GA2071+004509999GF107991999999999999999999MA1100611999999MW1401MW2811REMMET101RJSK 0400Z 19004KT 150V270 9999 SHRA VCFG FEW002 BKN015 03/02 Q1006 RMK 1ST002 7CU015 A2972 3000E-SE;EQDQ01+000003PRSWM1Q02    003PRSWM1
0251475450999992000010304124+39620+140220FM-16+0096RJSK V0202501N004610045019N0112651N1+00401+00201999999ADDGA1021+001509999GA2071+004509999GA3071+006009999GF107991999999999999999999MA1100511999999MW1801REMMET109RJSK 030412Z 25009KT 160V310 9999 -SHRA FEW005 BKN015 BKN020 04/02 Q1005 RERA RMK 1ST005 5CU015 7CU020 A2970;EQDQ01+000003PRSWM1Q02    003PRSWM1
0251475450999992000010304384+39620+140220FM-16+0096RJSK V02099999999990030019N0018001N1+00301+00201999999ADDGA1021+001509999GA2071+003009999GA3071+006009999GF107991999999999999999999MA1100611999999MW1811MW2881MW3961REMMET113RJSK 030438Z VRB03KT 1800 TSRAGS FEW005 BKN010 BKN020 03/02 Q1006 RMK 2ST005 5ST010 7CU020 A2972 FBL TS S MOV NE;EQDQ01+000003PRSWM1
0232475450999992000010305004+39620+140220FM-15+0096RJSK V0202601N005710090019N0112651N1+00401+00201999999ADDGA1021+001509999GA2021+004509999GA3071+009009999GF107991999999999999999999MA1100611999999MW1001REMMET106RJSK 0500Z 26011KT 220V290 9999 FEW005 SCT015 BKN030 04/02 Q1006 RETS RERA RMK 1ST005 4CU015 7CU030 A2971;EQDQ01+000000PRSWM2
0192475450999992000010306004+39620+140220FM-15+0096RJSK V0201401N002110105019N0112651N1+00401+00301999999ADDGA1021+001509999GA2071+010509999GF107991999999999999999999MA1100511999999MW1001REMMET082RJSK 0600Z 14004KT 120V190 9999 FEW005 BKN035 04/03 Q1005 RMK 1ST005 6CU035 A2969;EQDQ01+000000PRSWM2
0195475450999992000010307004+39620+140220FM-15+0096RJSK V0202501N006210090019N0112651N1+00501+00101999999ADDGA1021+003009999GA2071+009009999GF107991999999999999999999MA1100611999999MW1001OC101231REMMET077RJSK 0700Z 25012G24KT 9999 FEW010 BKN030 05/01 Q1006 RMK 1ST010 7CU030 A2971;EQDQ01+000000PRSWM2
0184475450999992000010308004+39620+140220FM-15+0096RJSK V0202501N004110090019N0112651N1+00501+00101999999ADDGA1021+003009999GA2071+009009999GF107991999999999999999999MA1100611999999MW1001REMMET074RJSK 0800Z 25008KT 9999 FEW010 BKN030 05/01 Q1006 RMK 1ST010 7CU030 A2971;EQDQ01+000000PRSWM2
0210475450999992000010308274+39620+140220FM-16+0096RJSK V0202501N007210090019N0112651N1+00501+00101999999ADDGA1021+003009999GA2071+009009999GF107991999999999999999999MA1100611999999MW1001OC101231REMMET092RJSK 030827Z 25014G24KT 230V290 9999 FEW010 BKN030 05/01 Q1006 RETS RMK 1ST010 7CU030 A2972;EQDQ01+000000PRSWM2
0241475450999992000010309004+39620+140220FM-15+0096RJSK V0202601N006210090019N0112651N1+00401+00101999999ADDGA1021+003009999GA2021+006009999GA3071+009009999GF107991999999999999999999MA1100611999999MW1801REMMET099RJSK 0900Z 26012KT 9999 -SHRA FEW010 SCT020 BKN030 04/01 Q1006 RETS RMK 1ST010 3CU020 7CU030 A2972;EQDQ01+000003PRSWM1Q02    003PRSWM1
0214475450999992000010310004+39620+140220FM-15+0096RJSK V0202701N009810090019N0112651N1+00501+00101999999ADDGA1021+003009999GA2021+006009999GA3071+009009999GF107991999999999999999999MA1100611999999MW1001REMMET088RJSK 1000Z 27019KT 9999 FEW010 SCT020 BKN030 05/01 Q1006 RMK 1ST010 3CU020 7CU030 A2973;EQDQ01+000000PRSWM2
0214475450999992000010311004+39620+140220FM-15+0096RJSK V0202701N010810075019N0112651N1+00601+00101999999ADDGA1021+003009999GA2071+007509999GA3071+012009999GF107991999999999999999999MA1100711999999MW1001REMMET088RJSK 1100Z 27021KT 9999 FEW010 BKN025 BKN040 06/01 Q1007 RMK 1ST010 5CU025 7CU040 A2975;EQDQ01+000000PRSWM2
0236475450999992000010321004+39620+140220FM-15+0096RJSK V0202601N009310060019N0112651N1+00401+00201999999ADDGA1021+001509999GA2021+004509999GA3071+006009999GF107991999999999999999999MA1101191999999MW1801REMMET094RJSK 2100Z 26018KT 9999 -SHRA FEW005 SCT015 BKN020 04/02 Q1012 RMK 1ST005 4ST015 7CU020 A2990;EQDQ01+000003PRSWM1Q02    003PRSWM1
0263475450999992000010322004+39620+140220FM-15+0096RJSK V0202801N007710075019N0112651N1+00301+00101999999ADDGA1021+001509999GA2021+004509999GA3071+007509999GF107991999999999999999999MA1101291999999MW1801MW2871OC101391REMMET107RJSK 2200Z 28015G27KT 250V310 9999 -SHRAGS FEW005 SCT015 BKN025 03/01 Q1013 RMK 1ST005 3ST015 7CU025 A2992;EQDQ01+000003PRSWM1Q02    003PRSWM1
0214475450999992000010323004+39620+140220FM-15+0096RJSK V0202801N004610060019N0112651N1+00401+00201999999ADDGA1021+001509999GA2071+006009999GA3071+012009999GF107991999999999999999999MA1101291999999MW1001REMMET088RJSK 2300Z 28009KT 9999 FEW005 BKN020 BKN040 04/02 Q1013 RMK 1ST005 5CU020 7CU040 A2993;EQDQ01+000000PRSWM2
0214475450999992000010400004+39620+140220FM-15+0096RJSK V0202701N007710060019N0112651N1+00401+00201999999ADDGA1021+001509999GA2021+004509999GA3071+006009999GF107991999999999999999999MA1101391999999MW1001REMMET088RJSK 0000Z 27015KT 9999 FEW005 SCT015 BKN020 04/02 Q1014 RMK 1ST005 4ST015 7CU020 A2996;EQDQ01+000000PRSWM2
0214475450999992000010401004+39620+140220FM-15+0096RJSK V0202801N009310060019N0112651N1+00501+00201999999ADDGA1021+001509999GA2021+004509999GA3071+006009999GF107991999999999999999999MA1101391999999MW1001REMMET088RJSK 0100Z 28018KT 9999 FEW005 SCT015 BKN020 05/02 Q1014 RMK 1ST005 4ST015 7CU020 A2996;EQDQ01+000000PRSWM2
0236475450999992000010402004+39620+140220FM-15+0096RJSK V0202601N008710060019N0112651N1+00401+00101999999ADDGA1021+001509999GA2021+004509999GA3071+006009999GF107991999999999999999999MA1101391999999MW1801REMMET094RJSK 0200Z 26017KT 9999 -SHRA FEW005 SCT015 BKN020 04/01 Q1014 RMK 1ST005 3ST015 7CU020 A2997;EQDQ01+000003PRSWM1Q02    003PRSWM1
0252475450999992000010403004+39620+140220FM-15+0096RJSK V0202601N008210045019N0112651N1+00401+00101999999ADDGA1021+001509999GA2071+004509999GA3071+006009999GF107991999999999999999999MA1101391999999MW1801OC101341REMMET102RJSK 0300Z 26016G26KT 9999 -SHRA FEW005 BKN015 BKN020 04/01 Q1014 RERA RMK 1ST005 5ST015 7CU020 A2996;EQDQ01+000003PRSWM1Q02    003PRSWM1
0249475450999992000010405004+39620+140220FM-15+0096RJSK V0202801N009810075019N0112651N1+00401+00101999999ADDGA1021+001509999GA2021+004509999GA3071+007509999GF107991999999999999999999MA1101391999999MW1801REMMET107RJSK 0500Z 28019KT 240V310 9999 -SHRA FEW005 SCT015 BKN025 04/01 Q1014 RERA RMK 1ST005 4ST015 7CU025 A2997;EQDQ01+000003PRSWM1Q02    003PRSWM1
0241475450999992000010406004+39620+140220FM-15+0096RJSK V0202601N008710075019N0112651N1+00301+00101999999ADDGA1021+001509999GA2021+004509999GA3071+007509999GF107991999999999999999999MA1101491999999MW1801REMMET099RJSK 0600Z 26017KT 9999 -SHRA FEW005 SCT015 BKN025 03/01 Q1015 RERA RMK 1ST005 4ST015 7CU025 A2999;EQDQ01+000003PRSWM1Q02    003PRSWM1
0206475450999992000010407004+39620+140220FM-15+0096RJSK V0202901N007710060019N0112651N1+00501+00101999999ADDGA1021+003009999GA2071+006009999GF107991999999999999999999MA1101591999999MW1801REMMET080RJSK 0700Z 29015KT 9999 -SHRA FEW010 BKN020 05/01 Q1016 RMK 1ST010 7CU020 A3001;EQDQ01+000003PRSWM1Q02    003PRSWM1
0184475450999992000010408004+39620+140220FM-15+0096RJSK V0202801N009310060019N0112651N1+00501+00001999999ADDGA1021+003009999GA2071+006009999GF107991999999999999999999MA1101591999999MW1001REMMET074RJSK 0800Z 28018KT 9999 FEW010 BKN020 05/00 Q1016 RMK 1ST010 5CU020 A3003;EQDQ01+000000PRSWM2
0195475450999992000010409004+39620+140220FM-15+0096RJSK V0202701N009310075019N0112651N1+00501+00001999999ADDGA1021+003009999GA2071+007509999GF107991999999999999999999MA1101691999999MW1001OC101441REMMET077RJSK 0900Z 27018G28KT 9999 FEW010 BKN025 05/00 Q1017 RMK 1ST010 7CU025 A3004;EQDQ01+000000PRSWM2
0247475450999992000010410004+39620+140220FM-15+0096RJSK V0202701N009310060019N0112651N1+00501+00201999999ADDGA1021+001509999GA2071+006009999GA3071+012009999GF107991999999999999999999MA1101591999999MW1801OC101441REMMET097RJSK 1000Z 27018G28KT 9999 -SHRA FEW005 BKN020 BKN040 05/02 Q1016 RMK 1ST005 5CU020 7CU040 A3003;EQDQ01+000003PRSWM1Q02    003PRSWM1
0245475450999992000010410104+39620+140220FM-16+0096RJSK V0203001N009310060019N0040001N1+00401+00101999999ADDGA1021+001509999GA2021+003009999GA3071+006009999GF107991999999999999999999MA1101691999999MW1811REMMET103RJSK 041010Z 30018KT 270V350 4000 SHRA FEW005 SCT010 BKN020 04/01 Q1017 RMK 1ST005 4ST010 7CU020 A3005;EQDQ01+000003PRSWM1Q02    003PRSWM1
0251475450999992000010410224+39620+140220FM-16+0096RJSK V0203101N009310030019N0060001N1+00301+00001999999ADDGA1021+001509999GA2071+003009999GA3071+004509999GF107991999999999999999999MA1101691999999MW1811REMMET109RJSK 041022Z 31018KT 280V350 6000 SHRA FEW005 BKN010 BKN015 03/M00 Q1017 RERA RMK 1ST005 5ST010 7ST015 A3005;EQDQ01+000003PRSWM1Q02    003PRSWM1
0219475450999992000010411004+39620+140220FM-15+0096RJSK V0202901N008210075019N0112651N1+00401+00201999999ADDGA1021+003009999GA2071+007509999GA3071+012009999GF107991999999999999999999MA1101691999999MW1001REMMET093RJSK 1100Z 29016KT 9999 FEW010 BKN025 BKN040 04/02 Q1017 RERA RMK 1ST010 5CU025 7CU040 A3006;EQDQ01+000000PRSWM2
0246475450999992000010411034+39620+140220FM-16+0096RJSK V0202801N008210060019N0112651N1+00401+00201999999ADDGA1021+003009999GA2071+006009999GA3071+012009999GF107991999999999999999999MA1101801999999MW1821MW2881REMMET098RJSK 041103Z 28016KT 9999 +SHRAGS FEW010 BKN020 BKN040 04/02 Q1018 RMK 1ST010 5CU020 7CU040 A3006;EQDQ01+000003PRSWM1Q02    003PRSWM1
0214475450999992000010421004+39620+140220FM-15+0096RJSK V02099999999990120019N0112651N1+00101+00001999999ADDGA1021+009009999GA2071+012009999GA3071+015009999GF107991999999999999999999MA1102301999999MW1001REMMET088RJSK 2100Z VRB03KT 9999 FEW030 BKN040 BKN050 01/00 Q1023 RMK 1CU030 5CU040 7CU050 A3023;EQDQ01+000000PRSWM2
0223475450999992000010422004+39620+140220FM-15+0096RJSK V0201101N001512200019N0112651N1+00001-00101999999ADDGA1021+000309999GA2021+015009999GF104991999999999999999999MA1102401999999MW1401REMMET097RJSK 2200Z 11003KT 9999 VCFG FEW001 SCT050 00/M01 Q1024 RMK 1ST001 3SC050 A3024 FG E-SE AND W-NW;EQDQ01+000003PRSWM1Q02    003PRSWM1
0257475450999992000010423004+39620+140220FM-15+0096RJSK V0200901N001519999999N0112651N1+00101+00001999999ADDGA1021+000309999GA2021+006009999GA3071+999999999GF107991999999999999999999MA1102511999999MW1401MW2801REMMET109RJSK 2300Z 09003KT 9999 -SHRA VCFG FEW001 SCT020 BKN/// 01/00 Q1025 RMK 1ST001 3CU020 A3028 FG E-SE AND NW-N;EQDQ01+000003PRSWM1Q02    003PRSWM1
0208475450999992000010423354+39620+140220FM-16+0096RJSK V0201601N002112200019N0112651N1+00101+00101999999ADDGA1021+000309999GF104991999999999999999999MA1102511999999MW1401REMMET098RJSK 042335Z 16004KT 110V210 9999 R28/0500VP2000U VCFG SCT001 01/01 Q1025 RMK 3ST001 A3027 FG E-S;EQDQ01+000003PRSWM1Q02    003PRSWM1
0243475450999992000010500004+39620+140220FM-15+0096RJSK V0201501N002112200019N0112651N1+00201+00101999999ADDED199U20009GA1021+000309999GA2021+012009999GF104991999999999999999999MA1102511999999MW1411REMMET106RJSK 0000Z 15004KT 100V200 9999 R28/P2000N PRFG FEW001 SCT040 02/01 Q1025 RMK 2ST001 3SC040 A3028 1000E-S;EQDQ01+000003PRSWM1Q02    003PRSWM1
0222475450999992000010500404+39620+140220FM-16+0096RJSK V0201901N002610012019N0012001N1+00201+00001999999ADDGA1021+000309999GA2071+001209999GF107991999999999999999999MA1102511999999MW1411REMMET096RJSK 050040Z 19005KT 1200 R28/0650V1800D BCFG SCT001 BKN004 02/00 Q1025 RMK 4ST001 7ST004 A3029;EQDQ01+000003PRSWM1Q02    003PRSWM1
0208475450999992000010501004+39620+140220FM-15+0096RJSK V0201501N002110015019N0020001N1+00101+00001999999ADDGA1021+000309999GA2071+001509999GF107991999999999999999999MA1102511999999MW1411MW2611MW3711REMMET086RJSK 0100Z 15004KT 110V190 2000 R28/1100VP2000U BCFG -RASN SCT001 BKN005 01/M00 Q1025;EQDQ01+000003PRSWM1
0239475450999992000010501074+39620+140220FM-16+0096RJSK V0201601N002612200019N0112651N1+00201+00101999999ADDGA1021+000309999GA2021+001509999GF104991999999999999999999MA1102511999999MW1401REMMET113RJSK 050107Z 16005KT 120V210 9999 R28/1300VP2000U VCFG FEW001 SCT005 02/01 Q1025 RMK 2ST001 4ST005 A3028 FG NE-S;EQDQ01+000003PRSWM1Q02    003PRSWM1
0184475450999992000010502004+39620+140220FM-15+0096RJSK V02099999999992200019N0112651N1+00301+00301999999ADDGA1021+001509999GA2021+012009999GF104991999999999999999999MA1102401999999MW1001REMMET074RJSK 0200Z VRB02KT 9999 FEW005 SCT040 03/03 Q1024 RMK 1ST005 3SC040 A3026;EQDQ01+000000PRSWM2
0214475450999992000010503004+39620+140220FM-15+0096RJSK V02099999999990120019N0112651N1+00501+00201999999ADDGA1021+003009999GA2021+006009999GA3071+012009999GF107991999999999999999999MA1102401999999MW1001REMMET088RJSK 0300Z VRB03KT 9999 FEW010 SCT020 BKN040 05/02 Q1024 RMK 1ST010 3CU020 5SC040 A3024;EQDQ01+000000PRSWM2
0223475450999992000010504004+39620+140220FM-15+0096RJSK V0202601N002110150019N0112651N1+00501+00001999999ADDGA1021+004509999GA2021+009009999GA3071+015009999GF107991999999999999999999MA1102401999999MW1001REMMET097RJSK 0400Z 26004KT 230V290 9999 FEW015 SCT030 BKN050 05/M00 Q1024 RMK 1ST015 3CU030 6SC050 A3024;EQDQ01+000000PRSWM2
0185475450999992000010505004+39620+140220FM-15+0096RJSK V02099999999990150019N0112651N1+00501-00101999999ADDGA1021+004509999GA2071+015009999GF107991999999999999999999MA1102401999999MW1001REMMET075RJSK 0500Z VRB03KT 9999 FEW015 BKN050 05/M01 Q1024 RMK 1ST015 7SC050 A3024;EQDQ01+000000PRSWM2
0111475450999992000010506004+39620+140220FM-15+0096RJSK V02099999999992200019N0032001N1+99999+99999999999ADDMW1001REMMET074RJSK 600Z 32004KT 9999 FEW040 BKN060 05/M01 Q1024 RMK 1CU040 7SC060 A3025;EQDQ01+000000PRSWM2
0185475450999992000010507004+39620+140220FM-15+0096RJSK V0201401N002119999999N0112651N1+00401+00101999999ADDGA1021+007509999GA2071+999999999GF107991999999999999999999MA1102401999999MW1001REMMET075RJSK 0700Z 14004KT 100V160 9999 FEW025 BKN/// 04/01 Q1024 RMK 1CU025 A3024;EQDQ01+000000PRSWM2
0177475450999992000010508004+39620+140220FM-15+0096RJSK V0201201N002119999999N0112651N1+00301+00001999999ADDGA1021+004509999GA2071+999999999GF107991999999999999999999MA1102401999999MW1001REMMET067RJSK 0800Z 12004KT 9999 FEW015 BKN/// 03/00 Q1024 RMK 1CU015 A3026;EQDQ01+000000PRSWM2
0177475450999992000010509004+39620+140220FM-15+0096RJSK V0201201N002119999999N0112651N1+00201+00001999999ADDGA1021+004509999GA2071+999999999GF107991999999999999999999MA1102511999999MW1001REMMET067RJSK 0900Z 12004KT 9999 FEW015 BKN/// 02/00 Q1025 RMK 1CU015 A3027;EQDQ01+000000PRSWM2
0208475450999992000010510004+39620+140220FM-15+0096RJSK V0201101N002119999999N0112651N1+00201+00001999999ADDGA1021+004509999GA2021+013509999GA3071+999999999GF107991999999999999999999MA1102511999999MW1001REMMET082RJSK 1000Z 11004KT 9999 FEW015 SCT045 BKN/// 02/M00 Q1025 RMK 1CU015 3SC045 A3028;EQDQ01+000000PRSWM2
0215475450999992000010511004+39620+140220FM-15+0096RJSK V0201001N002110150019N0112651N1+00201+00001999999ADDGA1021+006009999GA2021+012009999GA3071+015009999GF107991999999999999999999MA1102511999999MW1001REMMET089RJSK 1100Z 10004KT 9999 FEW020 SCT040 BKN050 02/M00 Q1025 RMK 1CU020 3SC040 7SC050 A3028;EQDQ01+000000PRSWM2
0101475450999992000010521004+39620+140220FM-15+0096RJSK V0201301N00261220001CN0099001N1-00101-00201999999ADDMA1102201999999MW1001REMMET049RJSK 2100Z 13005KT CAVOK M01/M02 Q1022 RMK A3018;EQDQ01+000000PRSWM2
0156475450999992000010522004+39620+140220FM-15+0096RJSK V0201301N004112200019N0112651N1+00001-00201999999ADDGA1021+009009999GF102991999999999999999999MA1102101999999MW1001REMMET062RJSK 2200Z 13008KT 9999 FEW030 M00/M02 Q1021 RMK 1CU030 A3017;EQDQ01+000000PRSWM2
0177475450999992000010601004+39620+140220FM-15+0096RJSK V0201301N006219999999N0112651N1+00501+00001999999ADDGA1021+012009999GA2071+999999999GF107991999999999999999999MA1101901999999MW1001REMMET067RJSK 0100Z 13012KT 9999 FEW040 BKN/// 05/00 Q1019 RMK 1SC040 A3011;EQDQ01+000000PRSWM2
0188475450999992000010602004+39620+140220FM-15+0096RJSK V0201201N006719999999N0112651N1+00601+00001999999ADDGA1021+012009999GA2071+999999999GF107991999999999999999999MA1101801999999MW1001OC101181REMMET070RJSK 0200Z 12013G23KT 9999 FEW040 BKN/// 06/00 Q1018 RMK 1SC040 A3008;EQDQ01+000000PRSWM2
0220475450999992000010603004+39620+140220FM-15+0096RJSK V0201301N007719999999N0112651N1+00701+00001999999ADDGA1021+012009999GA2021+030009999GA3071+999999999GF107991999999999999999999MA1101691999999MW1001REMMET094RJSK 0300Z 13015KT 100V160 9999 FEW040 SCT100 BKN/// 07/00 Q1017 RMK 1SC040 3AC100 A3005 P/FR;EQDQ01+000000PRSWM2
0212475450999992000010604004+39620+140220FM-15+0096RJSK V0201301N007210300019N0112651N1+00701+00101999999ADDGA1021+012009999GA2071+030009999GA3071+999999999GF107991999999999999999999MA1101591999999MW1001REMMET086RJSK 0400Z 13014KT 9999 FEW040 BKN100 BKN/// 07/01 Q1016 RMK 1SC040 6AC100 A3001 P/FR;EQDQ01+000000PRSWM2
0207475450999992000010605004+39620+140220FM-15+0096RJSK V0201201N007210300019N0112651N1+00701+00001999999ADDGA1021+012009999GA2071+030009999GA3071+999999999GF107991999999999999999999MA1101491999999MW1001REMMET081RJSK 0500Z 12014KT 9999 FEW040 BKN100 BKN/// 07/00 Q1015 RMK 1SC040 6AC100 A2998;EQDQ01+000000PRSWM2
0184475450999992000010606004+39620+140220FM-15+0096RJSK V0201301N007210300019N0112651N1+00701+00101999999ADDGA1021+012009999GA2071+030009999GF107991999999999999999999MA1101391999999MW1001REMMET074RJSK 0600Z 13014KT 9999 FEW040 BKN100 07/01 Q1014 RMK 1SC040 7AC100 A2996;EQDQ01+000000PRSWM2
0211475450999992000010607004+39620+140220FM-15+0096RJSK V0201301N007210090019N0112651N1+00601+00101999999ADDGA1021+003009999GA2071+009009999GF107991999999999999999999MA1101491999999MW1611REMMET085RJSK 0700Z 13014KT 100V160 9999 -RA FEW010 BKN030 06/01 Q1015RMK 1ST010 7NS030 A2999;EQDQ01+000003PRSWM1Q02    003PRSWM1
0234475450999992000010608004+39620+140220FM-15+0096RJSK V0201201N005710090019N0112651N1+00501+00301999999ADDGA1021+003009999GA2071+009009999GA3081+018009999GF108991999999999999999999MA1101391999999MW1611REMMET092RJSK 0800Z 12011KT 9999 -RA FEW010 BKN030 OVC060 05/03 Q1014 RMK 1ST010 5SC030 8NS060 A2996;EQDQ01+000003PRSWM1Q02    003PRSWM1
0234475450999992000010609004+39620+140220FM-15+0096RJSK V0201201N006210090019N0112651N1+00501+00301999999ADDGA1021+001809999GA2021+003609999GA3071+009009999GF107991999999999999999999MA1101391999999MW1611REMMET092RJSK 0900Z 12012KT 9999 -RA FEW006 SCT012 BKN030 05/03 Q1014 RMK 1ST006 3ST012 6SC030 A2995;EQDQ01+000003PRSWM1Q02    003PRSWM1
0234475450999992000010610004+39620+140220FM-15+0096RJSK V0201301N003610150019N0112651N1+00501+00301999999ADDGA1021+003009999GA2021+009009999GA3071+015009999GF107991999999999999999999MA1101391999999MW1611REMMET092RJSK 1000Z 13007KT 9999 -RA FEW010 SCT030 BKN050 05/03 Q1014 RMK 1ST010 3SC030 7SC050 A2994;EQDQ01+000003PRSWM1Q02    003PRSWM1
0204475450999992000010611004+39620+140220FM-15+0096RJSK V0201301N004110150019N0112651N1+00501+00401999999ADDGA1021+003009999GA2071+015009999GF107991999999999999999999MA1101291999999MW1611REMMET078RJSK 1100Z 13008KT 9999 -RA FEW010 BKN050 05/04 Q1013 RMK 1ST010 7SC050 A2993;EQDQ01+000003PRSWM1Q02    003PRSWM1
0243475450999992000010621004+39620+140220FM-15+0096RJSK V0201801N002110075019N0080001N1+00701+00601999999ADDGA1021+002109999GA2021+004509999GA3071+007509999GF107991999999999999999999MA1100611999999MW1811REMMET101RJSK 2100Z 18004KT 130V250 8000 SHRA FEW007 SCT015 BKN025 07/06 Q1006 RMK 1ST007 3ST015 7CU025 A2972;EQDQ01+000003PRSWM1Q02    003PRSWM1
0248475450999992000010622004+39620+140220FM-15+0096RJSK V0202401N002610060019N0060001N1+00701+00601999999ADDGA1021+001509999GA2021+003009999GA3071+006009999GF107991999999999999999999MA1100711999999MW1811REMMET106RJSK 2200Z 24005KT 150V290 6000 SHRA FEW005 SCT010 BKN020 07/06 Q1007 RMK 1ST005 3ST010 7CU020 A2975 P/RR;EQDQ01+000003PRSWM1Q02    003PRSWM1
0235475450999992000010623004+39620+140220FM-15+0096RJSK V02099999999990030019N0050001N1+00701+00701999999ADDGA1021+002109999GA2071+003009999GA3071+007509999GF107991999999999999999999MA1100911999999MW1811REMMET093RJSK 2300Z VRB03KT 5000 SHRA FEW007 BKN010 BKN025 07/07 Q1009 RMK 1ST007 5ST010 7CU025 A2980;EQDQ01+000003PRSWM1Q02    003PRSWM1
0241475450999992000010700004+39620+140220FM-15+0096RJSK V02099999999990030019N0060001N1+00801+00701999999ADDGA1021+001509999GA2071+003009999GA3071+006009999GF107991999999999999999999MA1100911999999MW1801REMMET099RJSK 0000Z VRB03KT 6000 -SHRA FEW005 BKN010 BKN020 08/07 Q1009 RERA RMK 1ST005 5ST010 7CU020 A2980;EQDQ01+000003PRSWM1Q02    003PRSWM1
0237475450999992000010700224+39620+140220FM-16+0096RJSK V02099999999990030019N0040001N1+00801+00701999999ADDGA1021+001509999GA2071+003009999GA3071+006009999GF107991999999999999999999MA1100911999999MW1811REMMET095RJSK 070022Z VRB02KT 4000 SHRA FEW005 BKN010 BKN020 08/07 Q1009 RMK 1ST005 5ST010 7CU020 A2981;EQDQ01+000003PRSWM1Q02    003PRSWM1
0254475450999992000010700324+39620+140220FM-16+0096RJSK V02099999999990060019N0060001N1+00701+00501999999ADDGA1021+001509999GA2021+003009999GA3071+006009999GF107991999999999999999999MA1101021999999MW1181MW2811REMMET106RJSK 070032Z VRB08G32KT 6000 SQ SHRA FEW005 SCT010 BKN020 07/05 Q1010 RMK 1ST005 4ST010 7CU020 A2984 P/RR;EQDQ01+000003PRSWM1Q02    003PRSWM1
0240475450999992000010701004+39620+140220FM-15+0096RJSK V0203101N008210030019N0080001N1+00601+00401999999ADDGA1021+002109999GA2071+003009999GA3071+006009999GF107991999999999999999999MA1101081999999MW1811REMMET098RJSK 0100Z 31016KT 8000 SHRA FEW007 BKN010 BKN020 06/04 Q1011 RMK 1ST007 6ST010 7CU020 A2986 P/RR;EQDQ01+000003PRSWM1Q02    003PRSWM1
0216475450999992000010702004+39620+140220FM-15+0096RJSK V0203101N008710060019N0112651N1+00501+00301999999ADDGA1021+003009999GA2071+006009999GF107991999999999999999999MA1101081999999MW1801REMMET090RJSK 0200Z 31017KT 9999 -SHRA SCT010 BKN020 05/03 Q1011 RERA RMK 3ST010 7CU020 A2986 P/RR;EQDQ01+000003PRSWM1Q02    003PRSWM1
0241475450999992000010703004+39620+140220FM-15+0096RJSK V0203201N005110030019N0040001N1+00401+00201999999ADDGA1021+002109999GA2071+003009999GA3071+004509999GF107991999999999999999999MA1101081999999MW1801REMMET099RJSK 0300Z 32010KT 4000 -SHRA FEW007 BKN010 BKN015 04/02 Q1011 RERA RMK 1ST007 6ST010 7CU015 A2986;EQDQ01+000003PRSWM1Q02    003PRSWM1
0242475450999992000010704004+39620+140220FM-15+0096RJSK V0203301N005110030019N0040001N1+00301+00201999999ADDGA1021+002109999GA2071+003009999GA3071+004509999GF107991999999999999999999MA1101081999999MW1811REMMET100RJSK 0400Z 33010KT 310V010 4000 SHRA FEW007 BKN010 BKN015 03/02 Q1011 RMK 1ST007 6ST010 7CU015A2986;EQDQ01+000003PRSWM1Q02    003PRSWM1
0245475450999992000010704384+39620+140220FM-16+0096RJSK V0203301N003110030019N0040001N1+00301+00101999999ADDGA1021+001509999GA2071+003009999GA3071+004509999GF107991999999999999999999MA1101081999999MW1811REMMET103RJSK 070438Z 33006KT 300V360 4000 SHRA FEW005 BKN010 BKN015 03/01 Q1011 RMK 1ST005 5ST010 7CU015 A2986;EQDQ01+000003PRSWM1Q02    003PRSWM1
0249475450999992000010705004+39620+140220FM-15+0096RJSK V0203201N004110030019N0050001N1+00301+00201999999ADDGA1021+001509999GA2071+003009999GA3071+004509999GF107991999999999999999999MA1101081999999MW1801REMMET107RJSK 0500Z 32008KT 290V360 5000 -SHRA FEW005 BKN010 BKN015 03/02 Q1011 RERA RMK 1ST005 6ST010 7CU015 A2986;EQDQ01+000003PRSWM1Q02    003PRSWM1
0243475450999992000010706004+39620+140220FM-15+0096RJSK V0203601N003610030019N0040001N1+00201+00101999999ADDGA1021+001509999GA2071+003009999GA3071+004509999GF107991999999999999999999MA1101081999999MW1811REMMET101RJSK 0600Z 36007KT 330V050 4000 SHRA FEW005 BKN010 BKN015 02/01 Q1011 RMK 1ST005 6ST010 7CU015 A2986;EQDQ01+000003PRSWM1Q02    003PRSWM1
0216475450999992000010706134+39620+140220FM-16+0096RJSK V0203501N003610030019N0030001N1+00101+00001999999ADDGA1021+001509999GA2071+003009999GF107991999999999999999999MA1101081999999MW1811MW2851REMMET084RJSK 070613Z 35007KT 3000 SHRASN FEW005 BKN010 01/M00 Q1011 RMK 1ST005 7ST010 A2987;EQDQ01+000003PRSWM1Q02    003PRSWM1
0260475450999992000010707004+39620+140220FM-15+0096RJSK V0203401N003110030019N0040001N1+00101+00001999999ADDGA1021+000909999GA2021+001509999GA3071+003009999GF107991999999999999999999MA1101081999999MW1801MW2851REMMET112RJSK 0700Z 34006KT 300V020 4000 -SHSNRA FEW003 SCT005 BKN010 01/M00 Q1011 RERASN RMK 1ST003 3ST005 7ST010 A2988;EQDQ01+000003PRSWM1Q02    003PRSWM1
0255475450999992000010707224+39620+140220FM-16+0096RJSK V0203401N002610015019N0025001N1+00101+00001999999ADDGA1021+000909999GA2071+001509999GA3071+003009999GF107991999999999999999999MA1101081999999MW1801MW2851REMMET107RJSK 070722Z 34005KT 310V010 2500 -SHSNRA FEW003 BKN005 BKN010 01/M00 Q1011 RMK 1ST003 5ST005 7ST010 A2988;EQDQ01+000003PRSWM1Q02    003PRSWM1
0247475450999992000010707314+39620+140220FM-16+0096RJSK V0203401N003610015019N0030001N1+00101-00101999999ADDGA1021+000609999GA2071+001509999GA3071+003009999GF107991999999999999999999MA1101081999999MW1851REMMET105RJSK 070731Z 34007KT 310V040 3000 -SHSN FEW002 BKN005 BKN010 01/M01 Q1011 RMK 1ST002 5ST005 7ST010 A2988;EQDQ01+000003PRSWM1Q02    003PRSWM1
0214475450999992000010708004+39620+140220FM-15+0096RJSK V0203601N003110015019N0025001N1+00101-00101999999ADDGA1021+000609999GA2071+001509999GA3071+003009999GF107991999999999999999999MA1101191999999MW1851REMMET072RJSK 0800Z 36006KT 320V020 2500 -SHSN FEW002 BKN005 BKN010 01/M01 Q1012;EQDQ01+000003PRSWM1Q02    003PRSWM1
0247475450999992000010708074+39620+140220FM-16+0096RJSK V0203301N003110030019N0040001N1+00101-00101999999ADDGA1021+000609999GA2021+001509999GA3071+003009999GF107991999999999999999999MA1101191999999MW1851REMMET105RJSK 070807Z 33006KT 300V020 4000 -SHSN FEW002 SCT005 BKN010 01/M01 Q1012 RMK 1ST002 4ST005 7ST010 A2989;EQDQ01+000003PRSWM1Q02    003PRSWM1
0247475450999992000010708144+39620+140220FM-16+0096RJSK V0203401N003110030019N0050001N1+00101+00001999999ADDGA1021+000609999GA2021+001509999GA3071+003009999GF107991999999999999999999MA1101191999999MW1851REMMET105RJSK 070814Z 34006KT 310V010 5000 -SHSN FEW002 SCT005 BKN010 01/M00 Q1012 RMK 1ST002 4ST005 7ST010 A2989;EQDQ01+000003PRSWM1Q02    003PRSWM1
0244475450999992000010709004+39620+140220FM-15+0096RJSK V0202901N006210045019N0050001N1+00201+00101999999ADDGA1021+000609999GA2021+001509999GA3071+004509999GF107991999999999999999999MA1101191999999MW1801MW2851REMMET096RJSK 0900Z 29012KT 5000 -SHRASN FEW002 SCT005 BKN015 02/01 Q1012 RMK 1ST002 4ST005 7ST015 A2991;EQDQ01+000003PRSWM1Q02    003PRSWM1
0244475450999992000010710004+39620+140220FM-15+0096RJSK V0202901N007710045019N0080001N1+00301+00101999999ADDGA1021+001509999GA2071+004509999GA3071+006009999GF107991999999999999999999MA1101291999999MW1801MW2851REMMET096RJSK 1000Z 29015KT 8000 -SHRASN FEW005 BKN015 BKN020 03/01 Q1013 RMK 1ST005 5ST015 7CU020 A2993;EQDQ01+000003PRSWM1Q02    003PRSWM1
0244475450999992000010711004+39620+140220FM-15+0096RJSK V0202901N009310045019N0112651N1+00201+00101999999ADDGA1021+001509999GA2071+004509999GA3071+006009999GF107991999999999999999999MA1101391999999MW1801MW2851REMMET096RJSK 1100Z 29018KT 9999 -SHRASN FEW005 BKN015 BKN020 02/01 Q1014 RMK 1ST005 5ST015 7CU020 A2994;EQDQ01+000003PRSWM1Q02    003PRSWM1
0252475450999992000010721004+39620+140220FM-15+0096RJSK V02099999999990015019N0014001N1+00001-00101999999ADDGA1021+000609999GA2071+001509999GA3071+003009999GF107991999999999999999999MA1101391999999MW1851REMMET110RJSK 2100Z VRB02KT 1400 R28/1400V1800D -SHSN FEW002 BKN005 BKN010 00/M01 Q1014 RMK 1ST002 5ST005 7ST010 A2997;EQDQ01+000003PRSWM1Q02    003PRSWM1
0254475450999992000010721094+39620+140220FM-16+0096RJSK V02099999999990015019N0018001N1+00001-00101999999ADDGA1021+000609999GA2071+001509999GA3071+003009999GF107991999999999999999999MA1101491999999MW1851REMMET112RJSK 072109Z VRB01KT 1800 R28/1200V1800U -SHSN FEW002 BKN005 BKN010 00/M01 Q1015 RMK 1ST002 5ST005 7ST010 A2998;EQDQ01+000003PRSWM1Q02    003PRSWM1
0239475450999992000010721194+39620+140220FM-16+0096RJSK V02099999999990030019N0040001N1+00001-00101999999ADDGA1021+000609999GA2021+001509999GA3071+003009999GF107991999999999999999999MA1101491999999MW1851REMMET097RJSK 072119Z VRB01KT 4000 -SHSN FEW002 SCT005 BKN010 00/M01 Q1015 RMK 1ST002 4ST005 7ST010 A2998;EQDQ01+000003PRSWM1Q02    003PRSWM1
0239475450999992000010721304+39620+140220FM-15+0096RJSK V0200601N002110030019N0030001N1+00001-00101999999ADDGA1021+000609999GA2021+001509999GA3071+003009999GF107991999999999999999999MA1101391999999MW1851REMMET097RJSK 072130Z 06004KT 3000 -SHSN FEW002 SCT005 BKN010 00/M01 Q1014 RMK 1ST002 4ST005 7ST010 A2997;EQDQ01+000003PRSWM1Q02    003PRSWM1
0237475450999992000010722004+39620+140220FM-15+0096RJSK V02099999999990015019N0012001N1+00001-00101999999ADDGA1021+000609999GA2071+001509999GA3071+003009999GF107991999999999999999999MA1101491999999MW1001REMMET111RJSK 2200Z VRB01KT 1200 R28/1400VP2000D -SHSN FEW002 BKN005 BKN010 00/M01 Q1015 RMK 1ST002 5ST005 7ST010 A2999;EQDQ01+000000PRSWM2
0253475450999992000010722094+39620+140220FM-16+0096RJSK V02099999999990015019N0008001N1+00001-00101999999ADDGA1021+000609999GA2071+001509999GA3071+002409999GF107991999999999999999999MA1101491999999MW1861REMMET111RJSK 072209Z VRB02KT 0800 R28/0900V1400D SHSN FEW002 BKN005 BKN008 00/M01 Q1015 RMK 1ST002 5ST005 7ST008 A2999;EQDQ01+000003PRSWM1Q02    003PRSWM1
0259475450999992000010722254+39620+140220FM-15+0096RJSK V02099999999990015019N0016001N1+00001-00101999999ADDGA1021+000609999GA2071+001509999GA3071+003009999GF107991999999999999999999MA1101491999999MW1851REMMET117RJSK 072225Z VRB02KT 1600 R28/0900V1400U -SHSN FEW002 BKN005 BKN010 00/M01 Q1015 RESN RMK 1ST002 5ST005 7ST010 A2999;EQDQ01+000003PRSWM1Q02    003PRSWM1
0259475450999992000010722354+39620+140220FM-16+0096RJSK V02099999999990015019N0020001N1+00001-00101999999ADDGA1021+000609999GA2071+001509999GA3071+003009999GF107991999999999999999999MA1101491999999MW1851REMMET117RJSK 072235Z VRB02KT 2000 R28/1100V1800U -SHSN FEW002 BKN005 BKN010 00/M01 Q1015 RESN RMK 1ST002 5ST005 7ST010 A2998;EQDQ01+000003PRSWM1Q02    003PRSWM1
0257475450999992000010723004+39620+140220FM-15+0096RJSK V0201201N002610015019N0020001N1+00001-00101999999ADDGA1021+000609999GA2071+001509999GA3071+003009999GF107991999999999999999999MA1101491999999MW1851REMMET115RJSK 2300Z 12005KT 2000 R28/1300V2000U -SHSN FEW002 BKN005 BKN010 00/M01 Q1015 RESN RMK 1ST002 5ST005 7ST010 A2998;EQDQ01+000003PRSWM1Q02    003PRSWM1
0239475450999992000010723124+39620+140220FM-16+0096RJSK V0209999C000010015019N0010001N1+00001-00101999999ADDGA1021+000609999GA2071+001509999GA3071+003009999GF107991999999999999999999MA1101491999999MW1001REMMET113RJSK 072312Z 00000KT 1000 R28/1300VP2000D -SHSN FEW002 BKN005 BKN010 00/M01 Q1015 RMK 1ST002 5ST005 7ST010 A3000;EQDQ01+000000PRSWM2
0254475450999992000010723204+39620+140220FM-15+0096RJSK V0209999C000010015019N0020001N1+00001-00101999999ADDGA1021+000609999GA2071+001509999GA3071+003009999GF107991999999999999999999MA1101491999999MW1851REMMET112RJSK 072320Z 00000KT 2000 R28/1200V1600N -SHSN FEW002 BKN005 BKN010 00/M01 Q1015 RMK 1ST002 5ST005 7ST010 A2999;EQDQ01+000003PRSWM1Q02    003PRSWM1
0258475450999992000010800004+39620+140220FM-15+0096RJSK V02099999999990015019N0020001N1+00001-00101999999ADDED199U14009GA1021+000909999GA2071+001509999GA3071+003009999GF107991999999999999999999MA1101491999999MW1851REMMET105RJSK 0000Z VRB02KT 2000 R28/1400U -SHSN FEW003 BKN005 BKN010 00/M01 Q1015 RMK 1ST003 5ST005 7ST010 A3000;EQDQ01+000003PRSWM1Q02    003PRSWM1
0254475450999992000010800144+39620+140220FM-16+0096RJSK V02099999999990015019N0030001N1+00001-00101999999ADDGA1021+000909999GA2071+001509999GA3071+003009999GF107991999999999999999999MA1101591999999MW1851REMMET112RJSK 080014Z VRB03KT 3000 R28/1400V2000U -SHSN FEW003 BKN005 BKN010 00/M01 Q1016 RMK 1ST003 5ST005 7ST010 A3000;EQDQ01+000003PRSWM1Q02    003PRSWM1
0239475450999992000010800264+39620+140220FM-16+0096RJSK V02099999999990015019N0030001N1+00001-00101999999ADDGA1021+000909999GA2071+001509999GA3071+002409999GF107991999999999999999999MA1101491999999MW1851REMMET097RJSK 080026Z VRB03KT 3000 -SHSN FEW003 BKN005 BKN008 00/M01 Q1015 RMK 1ST003 5ST005 7ST008 A2999;EQDQ01+000003PRSWM1Q02    003PRSWM1
0254475450999992000010800434+39620+140220FM-16+0096RJSK V0201001N003110012019N0020001N1+00001-00101999999ADDGA1021+000609999GA2071+001209999GA3071+003009999GF107991999999999999999999MA1101491999999MW1851REMMET112RJSK 080043Z 10006KT 2000 R28/1200V2000D -SHSN FEW002 BKN004 BKN010 00/M01 Q1015 RMK 1ST002 5ST004 7ST010 A2999;EQDQ01+000003PRSWM1Q02    003PRSWM1
0252475450999992000010801004+39620+140220FM-15+0096RJSK V02099999999990012019N0014001N1+00001-00101999999ADDGA1021+000609999GA2071+001209999GA3071+003009999GF107991999999999999999999MA1101491999999MW1851REMMET110RJSK 0100Z VRB02KT 1400 R28/0900V1200D -SHSN FEW002 BKN004 BKN010 00/M01 Q1015 RMK 1ST002 6ST004 7ST010 A3000;EQDQ01+000003PRSWM1Q02    003PRSWM1
0260475450999992000010801134+39620+140220FM-16+0096RJSK V0209999C000010015019N0020001N1+00001-00101999999ADDED199U12009GA1021+000609999GA2071+001509999GA3071+003009999GF107991999999999999999999MA1101491999999MW1851REMMET107RJSK 080113Z 00000KT 2000 R28/1200U -SHSN FEW002 BKN005 BKN010 00/M01 Q1015 RMK 1ST002 5ST005 7ST010 A3000;EQDQ01+000003PRSWM1Q02    003PRSWM1
0254475450999992000010801224+39620+140220FM-16+0096RJSK V0209999C000010051019N0035001N1+00001-00101999999ADDGA1021+000909999GA2021+001509999GA3071+005109999GF107991999999999999999999MA1101491999999MW1851REMMET112RJSK 080122Z 00000KT 3500 R28/1300V2000N -SHSN FEW003 SCT005 BKN017 00/M01 Q1015 RMK 1ST003 4ST005 7CU017 A2998;EQDQ01+000003PRSWM1Q02    003PRSWM1
0262475450999992000010801424+39620+140220FM-16+0096RJSK V0200801N002610015019N0025001N1+00001+00001999999ADDGA1021+000909999GA2071+001509999GA3071+003009999GF107991999999999999999999MA1101491999999MW1851REMMET120RJSK 080142Z 08005KT 040V140 2500 R28/1400V2000U -SHSN FEW003 BKN005 BKN010 00/M00 Q1015 RMK 1ST003 5ST005 7ST010 A2998;EQDQ01+000003PRSWM1Q02    003PRSWM1
0237475450999992000010802004+39620+140220FM-15+0096RJSK V0209999C000010015019N0050001N1+00001+00001999999ADDGA1021+000909999GA2071+001509999GA3071+004509999GF107991999999999999999999MA1101391999999MW1851REMMET095RJSK 0200Z 00000KT 5000 -SHSN FEW003 BKN005 BKN015 00/M00 Q1014 RMK 1ST003 5ST005 7ST015 A2997;EQDQ01+000003PRSWM1Q02    003PRSWM1
0239475450999992000010802094+39620+140220FM-16+0096RJSK V0200901N001510015019N0040001N1+00001-00101999999ADDGA1021+000909999GA2071+001509999GA3071+004509999GF107991999999999999999999MA1101391999999MW1851REMMET097RJSK 080209Z 09003KT 4000 -SHSN FEW003 BKN005 BKN015 00/M01 Q1014 RMK 1ST003 5ST005 7ST015 A2996;EQDQ01+000003PRSWM1Q02    003PRSWM1
0239475450999992000010802294+39620+140220FM-16+0096RJSK V02099999999990012019N0020001N1+00101+00001999999ADDGA1021+000609999GA2071+001209999GA3071+003009999GF107991999999999999999999MA1101391999999MW1851REMMET097RJSK 080229Z VRB04KT 2000 -SHSN FEW002 BKN004 BKN010 01/M00 Q1014 RMK 1ST002 6ST004 7ST010 A2995;EQDQ01+000003PRSWM1Q02    003PRSWM1
0254475450999992000010802384+39620+140220FM-16+0096RJSK V02099999999990012019N0014001N1+00001-00101999999ADDGA1021+000609999GA2071+001209999GA3071+002409999GF107991999999999999999999MA1101391999999MW1851REMMET112RJSK 080238Z VRB03KT 1400 R28/0800V1600D -SHSN FEW002 BKN004 BKN008 00/M01 Q1014 RMK 1ST002 6ST004 7ST008 A2995;EQDQ01+000003PRSWM1Q02    003PRSWM1
0252475450999992000010803004+39620+140220FM-15+0096RJSK V02099999999990012019N0010001N1+00001+00001999999ADDGA1021+000609999GA2071+001209999GA3071+002409999GF107991999999999999999999MA1101391999999MW1851REMMET110RJSK 0300Z VRB03KT 1000 R28/0800V1100N -SHSN FEW002 BKN004 BKN008 00/M00 Q1014 RMK 1ST002 6ST004 7ST008 A2995;EQDQ01+000003PRSWM1Q02    003PRSWM1
0254475450999992000010803114+39620+140220FM-16+0096RJSK V02099999999990012019N0014001N1+00001-00101999999ADDGA1021+000609999GA2071+001209999GA3071+002409999GF107991999999999999999999MA1101291999999MW1851REMMET112RJSK 080311Z VRB03KT 1400 R28/0800V1000N -SHSN FEW002 BKN004 BKN008 00/M01 Q1013 RMK 1ST002 6ST004 7ST008 A2994;EQDQ01+000003PRSWM1Q02    003PRSWM1
0223475450999992000010803154+39620+140220FM-16+0096RJSK V0201401N001510012019N0006001N1+00001-00101999999ADDGA1021+000609999GA2071+001209999GF107991999999999999999999MA1101291999999MW1861REMMET097RJSK 080315Z 14003KT 0600 R28/0800V1100U SHSN FEW002 BKN004 00/M01 Q1013 RMK 1ST002 7ST004 A2994;EQDQ01+000003PRSWM1Q02    003PRSWM1
0265475450999992000010803414+39620+140220FM-16+0096RJSK V0209999C000010015019N0016001N1+00001-00101999999ADDED199U11009GA1021+000609999GA2071+001509999GA3071+003009999GF107991999999999999999999MA1101291999999MW1851REMMET112RJSK 080341Z 00000KT 1600 R28/1100U -SHSN FEW002 BKN005 BKN010 00/M01 Q1013 RESN RMK 1ST002 6ST005 7ST010 A2993;EQDQ01+000003PRSWM1Q02    003PRSWM1
0263475450999992000010804004+39620+140220FM-15+0096RJSK V0209999C000010018019N0030001N1+00001-00101999999ADDED199U12009GA1021+000609999GA2071+001809999GA3071+003009999GF107991999999999999999999MA1101291999999MW1851REMMET110RJSK 0400Z 00000KT 3000 R28/1200U -SHSN FEW002 BKN006 BKN010 00/M01 Q1013 RESN RMK 1ST002 5ST006 7ST010 A2994;EQDQ01+000003PRSWM1Q02    003PRSWM1
0253475450999992000010804224+39620+140220FM-16+0096RJSK V02099999999990015019N0025001N1+00101+00001999999ADDGA1021+000909999GA2071+001509999GA3071+003009999GF107991999999999999999999MA1101291999999MW1851REMMET111RJSK 080422Z VRB01KT 2500 R28/1400V2000U -SHSN FEW003 BKN005 BKN010 01/00 Q1013 RMK 1ST003 5ST005 7ST010 A2994;EQDQ01+000003PRSWM1Q02    003PRSWM1
0254475450999992000010804434+39620+140220FM-16+0096RJSK V02099999999990018019N0018001N1+00001-00101999999ADDGA1021+000909999GA2071+001809999GA3071+003009999GF107991999999999999999999MA1101291999999MW1851REMMET112RJSK 080443Z VRB02KT 1800 R28/1300V1800D -SHSN FEW003 BKN006 BKN010 00/M01 Q1013 RMK 1ST003 5ST006 7ST010 A2994;EQDQ01+000003PRSWM1Q02    003PRSWM1
0252475450999992000010805004+39620+140220FM-15+0096RJSK V0209999C000010015019N0025001N1+00001-00101999999ADDGA1021+000909999GA2071+001509999GA3071+003009999GF107991999999999999999999MA1101291999999MW1851REMMET110RJSK 0500Z 00000KT 2500 R28/1200V1800U -SHSN FEW003 BKN005 BKN010 00/M01 Q1013 RMK 1ST003 5ST005 7ST010 A2994;EQDQ01+000003PRSWM1Q02    003PRSWM1
0254475450999992000010805114+39620+140220FM-16+0096RJSK V02099999999990018019N0018001N1+00001-00101999999ADDGA1021+000909999GA2071+001809999GA3071+002409999GF107991999999999999999999MA1101391999999MW1851REMMET112RJSK 080511Z VRB01KT 1800 R28/1100V1800D -SHSN FEW003 BKN006 BKN008 00/M01 Q1014 RMK 1ST003 5ST006 7ST008 A2995;EQDQ01+000003PRSWM1Q02    003PRSWM1
0254475450999992000010805264+39620+140220FM-16+0096RJSK V0209999C000010036019N0050001N1+00001-00101999999ADDGA1021+000909999GA2021+001809999GA3071+003609999GF107991999999999999999999MA1101391999999MW1851REMMET112RJSK 080526Z 00000KT 5000 R28/1200V1800U -SHSN FEW003 SCT006 BKN012 00/M01 Q1014 RMK 1ST003 4ST006 7ST012 A2995;EQDQ01+000003PRSWM1Q02    003PRSWM1
0260475450999992000010805404+39620+140220FM-16+0096RJSK V0200801N001510018019N0020001N1+00001-00101999999ADDED199U16009GA1021+000909999GA2071+001809999GA3071+003009999GF107991999999999999999999MA1101391999999MW1851REMMET107RJSK 080540Z 08003KT 2000 R28/1600D -SHSN FEW003 BKN006 BKN010 00/M01 Q1014 RMK 1ST003 5ST006 7ST010 A2995;EQDQ01+000003PRSWM1Q02    003PRSWM1
0252475450999992000010806004+39620+140220FM-15+0096RJSK V02099999999990018019N0025001N1+00001-00101999999ADDGA1021+000909999GA2071+001809999GA3071+003009999GF107991999999999999999999MA1101391999999MW1851REMMET110RJSK 0600Z VRB01KT 2500 R28/1400V1800U -SHSN FEW003 BKN006 BKN010 00/M01 Q1014 RMK 1ST003 5ST006 7ST010 A2995;EQDQ01+000003PRSWM1Q02    003PRSWM1
0260475450999992000010806044+39620+140220FM-16+0096RJSK V02099999999990018019N0030001N1+00001-00101999999ADDED199U16009GA1021+000909999GA2071+001809999GA3071+003009999GF107991999999999999999999MA1101391999999MW1851REMMET107RJSK 080604Z VRB02KT 3000 R28/1600N -SHSN FEW003 BKN006 BKN010 00/M01 Q1014 RMK 1ST003 5ST006 7ST010 A2996;EQDQ01+000003PRSWM1Q02    003PRSWM1
0254475450999992000010806274+39620+140220FM-16+0096RJSK V0209999C000010018019N0020001N1+00001-00101999999ADDGA1021+000909999GA2071+001809999GA3071+002409999GF107991999999999999999999MA1101391999999MW1851REMMET112RJSK 080627Z 00000KT 2000 R28/1400V2000U -SHSN FEW003 BKN006 BKN008 00/M01 Q1014 RMK 1ST003 5ST006 7ST008 A2996;EQDQ01+000003PRSWM1Q02    003PRSWM1
0223475450999992000010806354+39620+140220FM-16+0096RJSK V0209999C000010018019N0008001N1+00001-00101999999ADDGA1021+000909999GA2071+001809999GF107991999999999999999999MA1101391999999MW1861REMMET097RJSK 080635Z 00000KT 0800 R28/1300V2000D SHSN FEW003 BKN006 00/M01 Q1014 RMK 1ST003 7ST006 A2997;EQDQ01+000003PRSWM1Q02    003PRSWM1
0257475450999992000010807004+39620+140220FM-15+0096RJSK V0209999C000010015019N0008001N1+00001-00101999999ADDED199U14009GA1021+000909999GA2071+001509999GA3071+002409999GF107991999999999999999999MA1101391999999MW1861REMMET104RJSK 0700Z 00000KT 0800 R28/1400N SHSN FEW003 BKN005 BKN008 00/M01 Q1014 RMK 1ST003 5ST005 7ST008 A2997;EQDQ01+000003PRSWM1Q02    003PRSWM1
0270475450999992000010807114+39620+140220FM-16+0096RJSK V0201001N002110015019N0012001N1+00001-00101999999ADDGA1021+000909999GA2071+001509999GA3071+003009999GF107991999999999999999999MA1101391999999MW1851REMMET128RJSK 080711Z 10004KT 1200 R28/1400V2000N -SHSN FEW003 BKN005 BKN010 00/M01 Q1014 RMK 1ST003 5ST005 7ST010 A2997 WIND BY EQPT/10;EQDQ01+000003PRSWM1Q02    003PRSWM1
0260475450999992000010807264+39620+140220FM-16+0096RJSK V02099999999990030019N0020001N1+00001-00101999999ADDGA1021+000909999GA2021+001509999GA3071+003009999GF107991999999999999999999MA1101391999999MW1851REMMET118RJSK 080726Z VRB03KT 2000 -SHSN FEW003 SCT005 BKN010 00/M01 Q1014 RESN RMK 1ST003 4ST005 7ST010 A2997 WIND BY EQPT/10;EQDQ01+000003PRSWM1Q02    003PRSWM1
0242475450999992000010808004+39620+140220FM-15+0096RJSK V02099999999990015019N0020001N1+00001-00101999999ADDGA1021+000909999GA2071+001509999GA3071+003009999GF107991999999999999999999MA1101491999999MW1851REMMET100RJSK 0800Z VRB02KT 2000 -SHSN FEW003 BKN005 BKN010 00/M01 Q1015 RESN RMK 1ST003 5ST005 7ST010 A2999;EQDQ01+000003PRSWM1Q02    003PRSWM1
0239475450999992000010808154+39620+140220FM-16+0096RJSK V02099999999990015019N0015001N1+00001-00101999999ADDGA1021+000909999GA2071+001509999GA3071+003009999GF107991999999999999999999MA1101491999999MW1001REMMET113RJSK 080815Z VRB03KT 1500 R28/1600VP2000D -SHSN FEW003 BKN005 BKN010 00/M01 Q1015 RMK 1ST003 5ST005 7ST010 A3000;EQDQ01+000000PRSWM2
0209475450999992000010808414+39620+140220FM-16+0096RJSK V02099999999990015019N0012001N1+00001-00101999999ADDGA1021+000909999GA2071+001509999GF107991999999999999999999MA1101491999999MW1001REMMET099RJSK 080841Z VRB02KT 1200 R28/1600VP2000D -SHSN FEW003 BKN005 00/M01 Q1015 RMK 1ST003 7ST005 A3000;EQDQ01+000000PRSWM2
0228475450999992000010809004+39620+140220FM-15+0096RJSK V0209999C000010015019N0012001N1+00001-00101999999ADDED199U14009GA1021+000909999GA2071+001509999GF107991999999999999999999MA1101491999999MW1851REMMET091RJSK 0900Z 00000KT 1200 R28/1400N -SHSN FEW003 BKN005 00/M01 Q1015 RMK 1ST003 7ST005 A3000;EQDQ01+000003PRSWM1Q02    003PRSWM1
0238475450999992000010809244+39620+140220FM-16+0096RJSK V0201501N001510015019N0015001N1+00001-00101999999ADDGA1021+000909999GA2071+001509999GF107991999999999999999999MA1101591999999MW1851REMMET112RJSK 080924Z 15003KT 1500 R28/1400V1800U -SHSN FEW003 BKN005 00/M01 Q1016 RESN RMK 1ST003 7ST005 A3001 WIND EST;EQDQ01+000003PRSWM1Q02    003PRSWM1
0251475450999992000010810004+39620+140220FM-15+0096RJSK V02099999999990015019N0015001N1+00001-00101999999ADDGA1021+000909999GA2071+001509999GA3071+002409999GF107991999999999999999999MA1101591999999MW1001REMMET125RJSK 1000Z VRB03KT 1500 R28/1600VP2000D -SHSN FEW003 BKN005 BKN008 00/M01 Q1016 RESN RMK 1ST003 5ST005 7ST008 A3001 WIND EST;EQDQ01+000000PRSWM2
0269475450999992000010810254+39620+140220FM-15+0096RJSK V0201901N001510015019N0015001N1+00001-00101999999ADDED199U18009GA1021+000909999GA2071+001509999GA3071+002409999GF107991999999999999999999MA1101591999999MW1851REMMET116RJSK 081025Z 19003KT 1500 R28/1800N -SHSN FEW003 BKN005 BKN008 00/M01 Q1016 RMK 1ST003 5ST005 7ST008 A3003 WIND EST;EQDQ01+000003PRSWM1Q02    003PRSWM1
0248475450999992000010810424+39620+140220FM-16+0096RJSK V02099999999990015019N0020001N1+00001-00101999999ADDGA1021+000909999GA2071+001509999GA3071+003009999GF107991999999999999999999MA1101691999999MW1851REMMET106RJSK 081042Z VRB03KT 2000 -SHSN FEW003 BKN005 BKN010 00/M01 Q1017 RMK 1ST003 5ST005 7ST010 A3003 WIND EST;EQDQ01+000003PRSWM1Q02    003PRSWM1
0254475450999992000010811004+39620+140220FM-15+0096RJSK V0203001N002610015019N0018001N1+00001-00101999999ADDGA1021+000909999GA2071+001509999GA3071+003009999GF107991999999999999999999MA1101691999999MW1851REMMET112RJSK 1100Z 30005KT 260V350 1800 -SHSN FEW003 BKN005 BKN010 00/M01 Q1017 RMK 1ST003 5ST005 7ST010 A3004 WIND EST;EQDQ01+000003PRSWM1Q02    003PRSWM1
0277475450999992000010811044+39620+140220FM-16+0096RJSK V0203101N004110015019N0015001N1+00001-00101999999ADDED199U20009GA1021+000909999GA2071+001509999GA3071+003009999GF107991999999999999999999MA1101691999999MW1851REMMET124RJSK 081104Z 31008KT 280V350 1500 R28/2000N -SHSN FEW003 BKN005 BKN010 00/M01 Q1017 RMK 1ST003 5ST005 7ST010 A3004 WIND EST;EQDQ01+000003PRSWM1Q02    003PRSWM1
0278475450999992000010811204+39620+140220FM-15+0096RJSK V0203301N002610015019N0015001N1+00001-00101999999ADDED199U20009GA1021+000909999GA2071+001509999GA3071+003009999GF107991999999999999999999MA1101691999999MW1851REMMET125RJSK 081120Z 33005KT 290V020 1500 R28/P2000N -SHSN FEW003 BKN005 BKN010 00/M01 Q1017 RMK 1ST003 5ST005 7ST010 A3004 WIND EST;EQDQ01+000003PRSWM1Q02    003PRSWM1
0247475450999992000010821004+39620+140220FM-15+0096RJSK V0203301N002610024019N0030001N1+00001-00101999999ADDGA1021+001509999GA2071+002409999GA3071+004509999GF107991999999999999999999MA1102101999999MW1851REMMET105RJSK 2100Z 33005KT 3000 -SHSN FEW005 BKN008 BKN015 M00/M01 Q1021 RMK 1ST005 5ST008 7ST015 A3017 WIND EST;EQDQ01+000003PRSWM1Q02    003PRSWM1
0249475450999992000010821424+39620+140220FM-16+0096RJSK V0203401N002610060019N0070001N1+00001-00101999999ADDGA1021+002409999GA2071+006009999GA3071+018009999GF107991999999999999999999MA1102101999999MW1851REMMET107RJSK 082142Z 34005KT 7000 -SHSN FEW008 BKN020 BKN060 M00/M01 Q1021 RMK 2ST008 5CU020 7SC060 A3018 WIND EST;EQDQ01+000003PRSWM1Q02    003PRSWM1
0247475450999992000010822004+39620+140220FM-15+0096RJSK V0202901N001510120019N0080001N1+00001-00101999999ADDGA1021+003009999GA2021+006009999GA3071+012009999GF107991999999999999999999MA1102201999999MW1851REMMET105RJSK 2200Z 29003KT 8000 -SHSN FEW010 SCT020 BKN040 M00/M01 Q1022 RMK 1ST010 3CU020 6CU040 A3019 WIND EST;EQDQ01+000003PRSWM1Q02    003PRSWM1
0264475450999992000010823004+39620+140220FM-15+0096RJSK V0201901N001510135019N0112651N1+00001-00101999999ADDGA1021+000309999GA2021+009009999GA3071+013509999GF107991999999999999999999MA1102201999999MW1411MW2851REMMET116RJSK 2300Z 19003KT 9999 -SHSN PRFG FEW001 SCT030 BKN045 M00/M01 Q1022 RMK 1ST001 3CU030 6CU045 A3020 1500E WIND EST;EQDQ01+000003PRSWM1Q02    003PRSWM1
0268475450999992000010900004+39620+140220FM-15+0096RJSK V0201401N002110030019N0070001N1+00001-00101999999ADDGA1021+000309999GA2021+001509999GA3071+003009999GF107991999999999999999999MA1102301999999MW1411REMMET126RJSK 0000Z 14004KT 7000 R28/1800VP2000U -SHSN PRFG FEW001 SCT005 BKN010 M00/M01 Q1023 RMK 1ST001 4ST005 7ST010 A3022 1200E-SE;EQDQ01+000003PRSWM1Q02    003PRSWM1
0261475450999992000010901004+39620+140220FM-15+0096RJSK V0201401N002610090019N0112651N1+00001+00001999999ADDGA1021+001509999GA2021+004509999GA3071+009009999GF107991999999999999999999MA1102301999999MW1401MW2851REMMET113RJSK 0100Z 14005KT 120V180 9999 -SHSN VCFG FEW005 SCT015 BKN030 00/M00 Q1023 RMK 1ST005 3ST015 7CU030 A3023 FG E;EQDQ01+000003PRSWM1Q02    003PRSWM1
0245475450999992000010902004+39620+140220FM-15+0096RJSK V0201401N002610090019N0112651N1+00001+00001999999ADDGA1021+001509999GA2021+004509999GA3071+009009999GF107991999999999999999999MA1102301999999MW1851REMMET103RJSK 0200Z 14005KT 110V170 9999 -SHSN FEW005 SCT015 BKN030 00/M00 Q1023 RMK 1ST005 3ST015 7CU030 A3022;EQDQ01+000003PRSWM1Q02    003PRSWM1
0236475450999992000010903004+39620+140220FM-15+0096RJSK V0201401N002110105019N0112651N1+00101+00001999999ADDGA1021+001509999GA2021+004509999GA3071+010509999GF107991999999999999999999MA1102301999999MW1851REMMET094RJSK 0300Z 14004KT 9999 -SHSN FEW005 SCT015 BKN035 01/00 Q1023 RMK 1ST005 3ST015 7CU035 A3021;EQDQ01+000003PRSWM1Q02    003PRSWM1
0244475450999992000010904004+39620+140220FM-15+0096RJSK V0201301N002110120019N0112651N1+00101+00001999999ADDGA1021+001509999GA2021+006009999GA3071+012009999GF107991999999999999999999MA1102201999999MW1851REMMET102RJSK 0400Z 13004KT 080V160 9999 -SHSN FEW005 SCT020 BKN040 01/M00 Q1022 RMK 1ST005 3C020 7SC040 A3019;EQDQ01+000003PRSWM1Q02    003PRSWM1
0253475450999992000010905004+39620+140220FM-15+0096RJSK V0201101N002110120019N0112651N1+00201-00101999999ADDGA1021+004509999GA2021+009009999GA3071+012009999GF107991999999999999999999MA1102201999999MW1801MW2851REMMET105RJSK 0500Z 11004KT 080V140 9999 -SHRASN FEW015 SCT030 BKN040 02/M01 Q1022 RMK 2ST015 3CU030 7SC040 A3019;EQDQ01+000003PRSWM1Q02    003PRSWM1
0184475450999992000010907004+39620+140220FM-15+0096RJSK V02099999999990075019N0112651N1+00101-00101999999ADDGA1021+006009999GA2071+007509999GA3071+010509999GF107991999999999999999999MA1102201999999MW1001REMMET058RJSK 0700Z VRB03KT 9999 FEW020 BKN025 BKN035 01/M01 Q1022;EQDQ01+000000PRSWM2
0237475450999992000010908004+39620+140220FM-15+0096RJSK V02099999999990090019N0112651N1+00101-00101999999ADDGA1021+004509999GA2021+007509999GA3071+009009999GF107991999999999999999999MA1102201999999MW1851REMMET095RJSK 0800Z VRB03KT 9999 -SHSN FEW015 SCT025 BKN030 01/M01 Q1022 RMK 1ST015 3CU025 7SC030 A3020;EQDQ01+000003PRSWM1Q02    003PRSWM1
0193475450999992000010909004+39620+140220FM-15+0096RJSK V0201401N002110075019N0112651N1+00101-00101999999ADDGA1021+000609999GA2071+007509999GF107991999999999999999999MA1102201999999MW1001REMMET083RJSK 0900Z 14004KT 110V170 9999 FEW002 BKN025 01/M01 Q1022 RMK 1ST002 6SC025 A3021;EQDQ01+000000PRSWM2
0215475450999992000010910004+39620+140220FM-15+0096RJSK V0201201N002110105019N0112651N1+00101-00101999999ADDGA1021+000609999GA2021+007509999GA3071+010509999GF107991999999999999999999MA1102201999999MW1001REMMET089RJSK 1000Z 12004KT 9999 FEW002 SCT025 BKN035 01/M01 Q1022 RMK 1ST002 3SC025 7SC035 A3020;EQDQ01+000000PRSWM2
0215475450999992000010911004+39620+140220FM-15+0096RJSK V0201401N002610150019N0112651N1+00101-00101999999ADDGA1021+000609999GA2021+010509999GA3071+015009999GF107991999999999999999999MA1102201999999MW1001REMMET089RJSK 1100Z 14005KT 9999 FEW002 SCT035 BKN050 01/M01 Q1022 RMK 1ST002 3SC035 7SC050 A3019;EQDQ01+000000PRSWM2
0236475450999992000010921004+39620+140220FM-15+0096RJSK V02099999999990105019N0112651N1+00201+00001999999ADDGA1021+001509999GA2021+003009999GA3071+010509999GF107991999999999999999999MA1101081999999MW1801REMMET094RJSK 2100Z VRB01KT 9999 -SHRA FEW005 SCT010 BKN035 02/00 Q1011 RMK 1ST005 3ST010 7CU035 A2987;EQDQ01+000003PRSWM1Q02    003PRSWM1
0277475450999992000010922004+39620+140220FM-15+0096RJSK V02099999999990105019N0080001N1+00201+00101999999ADDED199U20009GA1021+000309999GA2021+003009999GA3071+010509999GF107991999999999999999999MA1101021999999MW1411MW2611REMMET118RJSK 2200Z VRB02KT 8000 R28/P2000N -RA PRFG FEW001 SCT010 BKN035 02/01 Q1010 RMK 1ST001 3ST010 7SC035 A2983 1500NE-SE;EQDQ01+000003PRSWM1Q02    003PRSWM1
0255475450999992000010923004+39620+140220FM-15+0096RJSK V0201401N001510075019N0112651N1+00201+00101999999ADDGA1021+000309999GA2021+002409999GA3071+007509999GF107991999999999999999999MA1101021999999MW1401MW2611REMMET107RJSK 2300Z 14003KT 9999 -RA VCFG FEW001 SCT008 BKN025 02/01 Q1010 RMK 1ST001 3ST008 5SC025 A2983 4000NE-SE;EQDQ01+000003PRSWM1Q02    003PRSWM1
0254475450999992000011000004+39620+140220FM-15+0096RJSK V0201301N002110090019N0112651N1+00301+00201999999ADDGA1021+000309999GA2021+002409999GA3071+009009999GF107991999999999999999999MA1100911999999MW1401MW2611REMMET106RJSK 0000Z 13004KT 9999 -RA VCFG FEW001 SCT008 BKN030 03/02 Q1009 RMK 1ST001 4ST008 7SC030 A2982 4000E-SE;EQDQ01+000003PRSWM1Q02    003PRSWM1
0254475450999992000011001004+39620+140220FM-15+0096RJSK V0201201N002610075019N0112651N1+00201+00201999999ADDGA1021+000309999GA2021+004509999GA3071+007509999GF107991999999999999999999MA1100911999999MW1401MW2611REMMET106RJSK 0100Z 12005KT 9999 -RA VCFG FEW001 SCT015 BKN025 02/02 Q1009 RMK 1ST001 3ST015 7SC025 A2982 3000E-SE;EQDQ01+000003PRSWM1Q02    003PRSWM1
0274475450999992000011002004+39620+140220FM-15+0096RJSK V0201401N002110009019N0040001N1+00301+00201999999ADDGA1021+000309999GA2071+000909999GA3071+004509999GF107991999999999999999999MA1100811999999MW1101MW2411REMMET126RJSK 0200Z 14004KT 4000 R28/1800VP2000D -RA BR PRFG FEW001 BKN003 BKN015 03/02 Q1008 RMK 1ST001 5ST003 7ST015 A2979 0800NE-SE;EQDQ01+000003PRSWM1Q02    003PRSWM1
0271475450999992000011002334+39620+140220FM-16+0096RJSK V0201301N002610009019N0010001N1+00301+00201999999ADDGA1021+000309999GA2071+000909999GA3071+004509999GF107991999999999999999999MA1100811999999MW1411REMMET129RJSK 100233Z 13005KT 1000 R28/1600VP2000N -RA BCFG FEW001 BKN003 BKN015 03/02 Q1008 RMK 1ST001 5ST003 7ST015 A2977 2000W-NW P/FR;EQDQ01+000003PRSWM1Q02    003PRSWM1
0271475450999992000011003004+39620+140220FM-15+0096RJSK V0201501N002110015019N0035001N1+00301+00201999999ADDGA1021+000309999GA2071+001509999GA3071+004509999GF107991999999999999999999MA1100611999999MW1101MW2411MW3611REMMET133RJSK 0300Z 15004KT 110V190 3500 R28/1400V2000N -RA BR PRFG FEW001 BKN005 BKN015 03/02 Q1006 RMK 1ST001 5ST005 7ST015 A2973 1000NE-SE;EQDQ01+000003PRSWM1
0273475450999992000011004004+39620+140220FM-15+0096RJSK V0201501N002110030019N0050001N1+00401+00401999999ADDGA1021+000309999GA2071+003009999GA3071+006009999GF107991999999999999999999MA1100511999999MW1101MW2411MW3801REMMET135RJSK 0400Z 15004KT 120V190 5000 R28/0900V1800U -SHRA BR PRFG FEW001 BKN010 BKN020 04/04 Q1005 RMK 1ST001 5ST010 7CU020 A2969 1000NE-SE;EQDQ01+000003PRSWM1
0296475450999992000011004134+39620+140220FM-16+0096RJSK V0201401N002610015019N0035001N1+00401+00301999999ADDGA1021+000309999GA2071+001509999GA3071+006009999GF107991999999999999999999MA1100511999999MW1101REMMET138RJSK 100413Z 14005KT 110V170 3500 R28/1400VP2000D -SHRA BR PRFG FEW001 BKN005 BKN020 04/03 Q1005 RMK 1ST001 5ST005 7CU020 A2969 1000NE-SE;EQDQ01+000410PRSWM3Q02+000003PRSWM1Q03    003PRSWM1
0296475450999992000011004194+39620+140220FM-16+0096RJSK V0201201N002610060019N0050001N1+00401+00401999999ADDGA1021+000309999GA2021+001509999GA3071+006009999GF107991999999999999999999MA1100511999999MW1101REMMET138RJSK 100419Z 12005KT 080V160 5000 R28/1400VP2000U -SHRA BR PRFG FEW001 SCT005 BKN020 04/04 Q1005 RMK 1ST001 4ST005 7CU020 A2968 2000NE-SE;EQDQ01+000410PRSWM3Q02+000003PRSWM1Q03    003PRSWM1
0308475450999992000011004404+39620+140220FM-16+0096RJSK V0201201N00211220001CN0060001N1+00401+00401999999ADDGA1021+000309999GA2071+003009999GA3021+006009099GA4071+006009999MA1100411999999MW1811MW2951REMMET154RJSK 100440Z 12004KT 060V180 6000 TSRA VCFG FEW001 BKN010 BKN020 FEW020CB 04/04 Q1004 RMK 1ST001 5ST010 7CU020 1CB020 A2967 3000E-SE FBL TS 20KM W MOV NE;EQDQ01+000022SCOTCVQ02+000400PRSWM4Q03+000003PRSWM1
0291475450999992000011005004+39620+140220FM-15+0096RJSK V0202401N00621220001CN0080001N1+00601+00501999999ADDGA1021+000909999GA2071+003009999GA3021+006009099GA4071+006009999MA1100511999999MW1811MW2951REMMET137RJSK 0500Z 24012KT 200V280 8000 TSRA FEW003 BKN010 BKN020 FEW020CB 06/05 Q1005 RMK 1ST003 5ST010 7CU020 1CB020 A2968 FBL TS 5KM N MOV NE;EQDQ01+000022SCOTCVQ02+000003PRSWM1Q03    003PRSWM1
0248475450999992000011005084+39620+140220FM-16+0096RJSK V0202801N007710030019N0112651N1+00701+00501999999ADDGA1021+001509999GA2071+003009999GA3071+006009999GF107991999999999999999999MA1100511999999MW1801REMMET106RJSK 100508Z 28015KT 9999 -SHRA FEW005 BKN010 BKN020 07/05 Q1005 RETS RERA RMK 1ST005 5ST010 7CU020 A2969;EQDQ01+000003PRSWM1Q02    003PRSWM1
0251475450999992000011006004+39620+140220FM-15+0096RJSK V0202901N008710045019N0112651N1+00501+00301999999ADDGA1021+001509999GA2021+003009999GA3071+004509999GF107991999999999999999999MA1100711999999MW1801REMMET109RJSK 0600Z 29017KT 9999 -SHRA FEW005 SCT010 BKN015 05/03 Q1007 RETS RERA RMK 1ST005 3ST010 7CU015 A2975 P/RR;EQDQ01+000003PRSWM1Q02    003PRSWM1
0236475450999992000011007004+39620+140220FM-15+0096RJSK V0203001N008210075019N0112651N1+00501+00101999999ADDGA1021+003009999GA2021+004509999GA3071+007509999GF107991999999999999999999MA1100911999999MW1801REMMET094RJSK 0700Z 30016KT 9999 -SHRA FEW010 SCT015 BKN025 05/01 Q1009 RMK 1ST010 3CU015 7CU025 A2980;EQDQ01+000003PRSWM1Q02    003PRSWM1
0205475450999992000011008004+39620+140220FM-15+0096RJSK V0202801N009810075019N0112651N1+00401+00001999999ADDGA1021+002109999GA2021+004509999GA3071+007509999GF107991999999999999999999MA1100911999999MW1801REMMET063RJSK 0800Z 28019KT 9999 -SHRA FEW07 SCT015 BKN025 04/M00 Q1009;EQDQ01+000003PRSWM1Q02    003PRSWM1
0258475450999992000011008404+39620+140220FM-16+0096RJSK V0202801N012910075019N0112651N1+00401+00001999999ADDGA1021+002109999GA2021+004509999GA3071+007509999GF107991999999999999999999MA1101021999999MW1181MW2801OC102111REMMET102RJSK 100840Z 28025G41KT 9999 SQ -SHRA FEW007 SCT015 BKN025 04/00 Q1010 RMK 1ST007 3CU015 7CU025 A2984;EQDQ01+000003PRSWM1Q02    003PRSWM1
0248475450999992000011009004+39620+140220FM-15+0096RJSK V0202901N010810060019N0112651N1+00301+00001999999ADDGA1021+003009999GA2071+006009999GA3071+010509999GF107991999999999999999999MA1101021999999MW1801OC101591REMMET098RJSK 0900Z 29021G31KT 9999 -SHRA FEW010 BKN020 BKN035 03/M00 Q1010 RMK 1ST010 5CU020 7CU035 A2985;EQDQ01+000003PRSWM1Q02    003PRSWM1
0264475450999992000011010004+39620+140220FM-15+0096RJSK V0203201N008710045019N0112651N1+00301+00001999999ADDGA1021+003009999GA2071+004509999GA3071+007509999GF107991999999999999999999MA1101081999999MW1801MW2851OC101441REMMET108RJSK 1000Z 32017G28KT 290V350 9999 -SHSNRA FEW010 BKN015 BKN025 03/M00 Q1011 RMK 1ST010 5CU015 7CU025 A2988;EQDQ01+000003PRSWM1Q02    003PRSWM1
0264475450999992000011011004+39620+140220FM-15+0096RJSK V0203201N007710090019N0112651N1+00301-00301999999ADDGA1021+003009999GA2021+006009999GA3071+009009999GF107991999999999999999999MA1101291999999MW1801MW2851OC101541REMMET108RJSK 1100Z 32015G30KT 300V360 9999 -SHRASN FEW010 SCT020 BKN030 03/M03 Q1013 RMK 1ST010 3CU020 7CU030 A2992;EQDQ01+000003PRSWM1Q02    003PRSWM1
0246475450999992000011021004+39620+140220FM-15+0096RJSK V0203201N006210045019N0040001N1+00001-00401999999ADDGA1021+001509999GA2021+003009999GA3071+004509999GF107991999999999999999999MA1101591999999MW1851REMMET104RJSK 2100Z 32012KT 290V350 4000 -SHSN FEW005 SCT010 BKN015 M00/M04 Q1016 RMK 1ST005 3CU010 7CU015 A3003;EQDQ01+000003PRSWM1Q02    003PRSWM1
0259475450999992000011021094+39620+140220FM-16+0096RJSK V0203101N010310045019N0080001N1-00101-00301999999ADDGA1021+001509999GA2021+003009999GA3071+004509999GF107991999999999999999999MA1101591999999MW1851OC101591REMMET109RJSK 102109Z 31020G31KT 290V350 8000 -SHSN FEW005 SCT010 BKN015 M01/M03 Q1016 RMK 1ST005 3ST010 7CU015 A3003;EQDQ01+000003PRSWM1Q02    003PRSWM1
0240475450999992000011021244+39620+140220FM-16+0096RJSK V0203101N006710045019N0040001N1+00001-00401999999ADDGA1021+001509999GA2071+004509999GA3071+009009999GF107991999999999999999999MA1101691999999MW1851REMMET098RJSK 102124Z 31013KT 4000 -SHSN FEW005 BKN015 BKN030 M00/M04 Q1017 RMK 1ST005 5CU015 7CU030 A3003;EQDQ01+000003PRSWM1Q02    003PRSWM1
0259475450999992000011021314+39620+140220FM-16+0096RJSK V0203101N009310045019N0112651N1+00001-00401999999ADDGA1021+001509999GA2021+003009999GA3071+004509999GF107991999999999999999999MA1101691999999MW1851OC101491REMMET109RJSK 102131Z 31018G29KT 280V340 9999 -SHSN FEW005 SCT010 BKN015 M00/M04 Q1017 RMK 1ST005 3ST010 6CU015 A3003;EQDQ01+000003PRSWM1Q02    003PRSWM1
0237475450999992000011022004+39620+140220FM-15+0096RJSK V0203101N010810090019N0112651N1+00001-00601999999ADDGA1021+003009999GA2021+004509999GA3071+009009999GF107991999999999999999999MA1101691999999MW1851REMMET095RJSK 2200Z 31021KT 9999 -SHSN FEW010 SCT015 BKN030 00/M06 Q1017 RMK 1ST010 4CU015 7CU030 A3006;EQDQ01+000003PRSWM1Q02    003PRSWM1
0216475450999992000011023004+39620+140220FM-15+0096RJSK V0203001N011310060019N0112651N1+00001-00801999999ADDGA1021+003009999GA2071+006009999GA3071+010509999GF107991999999999999999999MA1101801999999MW1001REMMET090RJSK 2300Z 30022KT 9999 FEW010 BKN020 BKN035 M00/M08 Q1018 RMK 1ST010 5CU020 7CU035 A3009;EQDQ01+000000PRSWM2
0249475450999992000011100004+39620+140220FM-15+0096RJSK V0203101N010810120019N0112651N1+00001-00801999999ADDGA1021+003009999GA2021+009009999GA3071+012009999GF107991999999999999999999MA1101901999999MW1851OC101651REMMET099RJSK 0000Z 31021G32KT 9999 -SHSN FEW010 SCT030 BKN040 M00/M08 Q1019 RMK 1ST010 3CU030 7CU040 A3011;EQDQ01+000003PRSWM1Q02    003PRSWM1
0186475450999992000011101004+39620+140220FM-15+0096RJSK V0203001N009310120019N0112651N1-00101-00901999999ADDGA1021+009009999GA2071+012009999GF107991999999999999999999MA1102001999999MW1001REMMET076RJSK 0100Z 30018KT 9999 FEW030 BKN040 M01/M09 Q1020 RMK 1CU030 7CU040 A3014;EQDQ01+000000PRSWM2
0208475450999992000011102004+39620+140220FM-15+0096RJSK V0203101N010810120019N0112651N1-00101-00801999999ADDGA1021+009009999GA2071+012009999GF107991999999999999999999MA1102101999999MW1851REMMET082RJSK 0200Z 31021KT 9999 -SHSN FEW030 BKN040 M01/M08 Q1021 RMK 1CU030 7CU040 A3015;EQDQ01+000003PRSWM1Q02    003PRSWM1
0208475450999992000011103004+39620+140220FM-15+0096RJSK V0202901N011310120019N0112651N1-00101-01001999999ADDGA1021+009009999GA2071+012009999GF107991999999999999999999MA1102101999999MW1851REMMET082RJSK 0300Z 29022KT 9999 -SHSN FEW030 BKN040 M01/M10 Q1021 RMK 1CU030 7CU040 A3015;EQDQ01+000003PRSWM1Q02    003PRSWM1
0238475450999992000011104004+39620+140220FM-15+0096RJSK V0203001N007710060019N0112651N1-00101-00601999999ADDGA1021+001509999GA2021+003009999GA3071+006009999GF107991999999999999999999MA1102101999999MW1851REMMET096RJSK 0400Z 30015KT 9999 -SHSN FEW005 SCT010 BKN020 M01/M06 Q1021 RMK 1ST005 3ST010 7CU020 A3016;EQDQ01+000003PRSWM1Q02    003PRSWM1
0238475450999992000011105004+39620+140220FM-15+0096RJSK V0203001N008710090019N0112651N1-00101-00801999999ADDGA1021+003009999GA2021+004509999GA3071+009009999GF107991999999999999999999MA1102201999999MW1851REMMET096RJSK 0500Z 30017KT 9999 -SHSN FEW010 SCT015 BKN030 M01/M08 Q1022 RMK 1ST010 3ST015 7CU030 A3018;EQDQ01+000003PRSWM1Q02    003PRSWM1
0238475450999992000011106004+39620+140220FM-15+0096RJSK V0203001N008710090019N0112651N1-00101-01001999999ADDGA1021+004509999GA2071+009009999GA3071+012009999GF107991999999999999999999MA1102201999999MW1851REMMET096RJSK 0600Z 30017KT 9999 -SHSN FEW015 BKN030 BKN040 M01/M10 Q1022 RMK 1ST015 5CU030 7CU040 A3021;EQDQ01+000003PRSWM1Q02    003PRSWM1
0238475450999992000011107004+39620+140220FM-15+0096RJSK V0203001N008210045019N0112651N1-00201-00701999999ADDGA1021+003009999GA2071+004509999GA3071+009009999GF107991999999999999999999MA1102301999999MW1851REMMET096RJSK 0700Z 30016KT 9999 -SHSN FEW010 BKN015 BKN030 M02/M07 Q1023 RMK 1ST010 5ST015 7CU030 A3023;EQDQ01+000003PRSWM1Q02    003PRSWM1
0224475450999992000011108004+39620+140220FM-15+0096RJSK V0203001N008710120019N0112651N1-00101-01001999999ADDGA1021+004509999GA2021+009009999GA3071+012009999GF107991999999999999999999MA1102401999999MW1001REMMET098RJSK 0800Z 30017KT 270V330 9999 FEW015 SCT030 BKN040 M01/M10 Q1024 RMK 1ST015 4CU030 7CU040 A3024;EQDQ01+000000PRSWM2
0238475450999992000011109004+39620+140220FM-15+0096RJSK V0203001N010310150019N0112651N1-00101-01001999999ADDGA1021+004509999GA2021+009009999GA3071+015009999GF107991999999999999999999MA1102401999999MW1851REMMET096RJSK 0900Z 30020KT 9999 -SHSN FEW015 SCT030 BKN050 M01/M10 Q1024 RMK 1ST015 4CU030 7CU050 A3026;EQDQ01+000003PRSWM1Q02    003PRSWM1
0186475450999992000011110004+39620+140220FM-15+0096RJSK V0203001N009310150019N0112651N1-00101-01101999999ADDGA1021+006009999GA2071+015009999GF107991999999999999999999MA1102511999999MW1001REMMET076RJSK 1000Z 30018KT 9999 FEW020 BKN050 M01/M11 Q1025 RMK 1CU020 7CU050 A3027;EQDQ01+000000PRSWM2
0238475450999992000011111004+39620+140220FM-15+0096RJSK V0203001N008210135019N0112651N1-00101-00901999999ADDGA1021+003009999GA2021+009009999GA3071+013509999GF107991999999999999999999MA1102511999999MW1851REMMET096RJSK 1100Z 30016KT 9999 -SHSN FEW010 SCT030 BKN045 M01/M09 Q1025 RMK 1ST010 4CU030 7CU045 A3028;EQDQ01+000003PRSWM1Q02    003PRSWM1
0186475450999992000011121004+39620+140220FM-15+0096RJSK V0203101N004110105019N0112651N1+00001-00901999999ADDGA1021+006009999GA2071+010509999GF107991999999999999999999MA1102611999999MW1001REMMET076RJSK 2100Z 31008KT 9999 FEW020 BKN035 M00/M09 Q1026 RMK 1CU020 7CU035 A3031;EQDQ01+000000PRSWM2
0186475450999992000011122004+39620+140220FM-15+0096RJSK V0203201N004110105019N0112651N1+00001-00801999999ADDGA1021+006009999GA2071+010509999GF107991999999999999999999MA1102611999999MW1001REMMET076RJSK 2200Z 32008KT 9999 FEW020 BKN035 M00/M08 Q1026 RMK 1CU020 7CU035 A3031;EQDQ01+000000PRSWM2
0179475450999992000011123004+39620+140220FM-15+0096RJSK V0203201N003119999999N0112651N1-00101-00901999999ADDGA1021+012009999GA2071+999999999GF107991999999999999999999MA1102611999999MW1001REMMET069RJSK 2300Z 32006KT 9999 SCT040 BKN/// M01/M09 Q1026 RMK 3CU040 A3032;EQDQ01+000000PRSWM2
0194475450999992000011200004+39620+140220FM-15+0096RJSK V0203301N002610120019N0112651N1+00001-00801999999ADDGA1021+009009999GA2071+012009999GF107991999999999999999999MA1102711999999MW1001REMMET084RJSK 0000Z 33005KT 290V010 9999 FEW030 BKN040 M00/M08 Q1027 RMK 1CU030 7SC040 A3034;EQDQ01+000000PRSWM2
0169475450999992000011201004+39620+140220FM-15+0096RJSK V0203201N002610120019N0112651N1+00101-00801999999ADDGA1021+009009999GA2071+012009999GF107991999999999999999999MA1102711999999MW1001REMMET059RJSK 0100Z 32005KT 290V350 9999 FEW030 BKN040 01/M08 Q1027;EQDQ01+000000PRSWM2
0169475450999992000011202004+39620+140220FM-15+0096RJSK V0203201N003110120019N0112651N1+00101-00701999999ADDGA1021+009009999GA2071+012009999GF107991999999999999999999MA1102611999999MW1001REMMET059RJSK 0200Z 32006KT 290V350 9999 FEW030 BKN040 01/M07 Q1026;EQDQ01+000000PRSWM2
0193475450999992000011203004+39620+140220FM-15+0096RJSK V0203301N002610120019N0112651N1+00101-00601999999ADDGA1021+009009999GA2071+012009999GF107991999999999999999999MA1102511999999MW1001REMMET083RJSK 0300Z 33005KT 270V040 9999 FEW030 BKN040 01/M06 Q1025 RMK 1CU030 7CU040 A3029;EQDQ01+000000PRSWM2
0155475450999992000011204004+39620+140220FM-15+0096RJSK V02099999999992200019N0112651N1+00201-00701999999ADDGA1021+012009999GF102991999999999999999999MA1102401999999MW1001REMMET061RJSK 0400Z VRB02KT 9999 FEW040 02/M07 Q1024 RMK 2SC040 A3027;EQDQ01+000000PRSWM2
0146475450999992000011205004+39620+140220FM-15+0096RJSK V0202901N002612200019N0112651N1+00201-00701999999ADDGA1021+012009999GF102991999999999999999999MA1102401999999MW1001REMMET052RJSK 0500Z 29005KT 220V340 9999 FEW040 02/M07 Q1024;EQDQ01+000000PRSWM2
0185475450999992000011206004+39620+140220FM-15+0096RJSK V02099999999992200019N0112651N1+00301-00801999999ADDGA1021+012009999GA2021+036009999GF104991999999999999999999MA1102401999999MW1001REMMET075RJSK 0600Z VRB02KT 9999 FEW040 SCT120 03/M08 Q1024 RMK 1SC040 4AC120 A3025;EQDQ01+000000PRSWM2
0161475450999992000011207004+39620+140220FM-15+0096RJSK V02099999999990300019N0112651N1+00101-00801999999ADDGA1021+012009999GA2071+030009999GF107991999999999999999999MA1102401999999MW1001REMMET051RJSK 0700Z VRB02KT 9999 FEW040 BKN100 01/M08 Q1024;EQDQ01+000000PRSWM2
0193475450999992000011208004+39620+140220FM-15+0096RJSK V0201201N002110300019N0112651N1+00001-00701999999ADDGA1021+015009999GA2071+030009999GF107991999999999999999999MA1102401999999MW1001REMMET083RJSK 0800Z 12004KT 080V140 9999 FEW050 BKN100 00/M07 Q1024 RMK 1SC050 7AC100 A3025;EQDQ01+000000PRSWM2
0186475450999992000011209004+39620+140220FM-15+0096RJSK V0200901N002610300019N0112651N1+00001-00701999999ADDGA1021+015009999GA2071+030009999GF107991999999999999999999MA1102301999999MW1001REMMET076RJSK 0900Z 09005KT 9999 FEW050 BKN100 M00/M07 Q1023 RMK 1SC050 7AC100 A3024;EQDQ01+000000PRSWM2
0186475450999992000011210004+39620+140220FM-15+0096RJSK V0201001N003110300019N0112651N1+00001-00701999999ADDGA1021+015009999GA2071+030009999GF107991999999999999999999MA1102301999999MW1001REMMET076RJSK 1000Z 10006KT 9999 FEW050 BKN100 M00/M07 Q1023 RMK 1SC050 7AC100 A3023;EQDQ01+000000PRSWM2
0185475450999992000011211004+39620+140220FM-15+0096RJSK V0201201N003610300019N0112651N1+00001-00701999999ADDGA1021+015009999GA2071+030009999GF107991999999999999999999MA1102201999999MW1001REMMET075RJSK 1100Z 12007KT 9999 FEW050 BKN100 00/M07 Q1022 RMK 1SC050 7AC100 A3020;EQDQ01+000000PRSWM2
0235475450999992000011221004+39620+140220FM-15+0096RJSK V0201401N002610030019N0112651N1+00001-00101999999ADDGA1021+001509999GA2071+003009999GA3071+009009999GF107991999999999999999999MA1101391999999MW1611REMMET093RJSK 2100Z 14005KT 9999 -RA SCT005 BKN010 BKN030 00/M01 Q1014 RMK 3ST005 5ST010 7SC030 A2997;EQDQ01+000003PRSWM1Q02    003PRSWM1
0193475450999992000011222004+39620+140220FM-15+0096RJSK V0201501N002610105019N0112651N1+00001+00001999999ADDGA1021+001509999GA2071+010509999GF107991999999999999999999MA1101391999999MW1001REMMET083RJSK 2200Z 15005KT 110V180 9999 FEW005 BKN035 00/M00 Q1014 RMK 1ST005 7SC035 A2995;EQDQ01+000000PRSWM2
0214475450999992000011223004+39620+140220FM-15+0096RJSK V0201401N003110090019N0112651N1+00101+00001999999ADDGA1021+000609999GA2071+009009999GF107991999999999999999999MA1101291999999MW1401REMMET088RJSK 2300Z 14006KT 110V170 9999 VCFG FEW002 BKN030 01/M00 Q1013 RMK 1ST002 7SC030 A2992;EQDQ01+000003PRSWM1Q02    003PRSWM1
0251475450999992000011300004+39620+140220FM-15+0096RJSK V0201501N002610120019N0112651N1+00101+00101999999ADDGA1021+000609999GA2021+009009999GA3071+012009999GF107991999999999999999999MA1101191999999MW1401REMMET109RJSK 0000Z 15005KT 120V180 9999 VCFG FEW002 SCT030 BKN040 01/01 Q1012 RMK 1ST002 4SC030 7SC040 A2991 FG E-SE;EQDQ01+000003PRSWM1Q02    003PRSWM1
0251475450999992000011301004+39620+140220FM-15+0096RJSK V0201401N002610120019N0112651N1+00101+00101999999ADDGA1021+000609999GA2021+009009999GA3071+012009999GF107991999999999999999999MA1101191999999MW1401REMMET109RJSK 0100Z 14005KT 110V180 9999 VCFG FEW002 SCT030 BKN040 01/01 Q1012 RMK 1ST002 4SC030 7SC040 A2989 FG E-SE;EQDQ01+000003PRSWM1Q02    003PRSWM1
0219475450999992000011302004+39620+140220FM-15+0096RJSK V0201101N003110120019N0112651N1+00201+00101999999ADDGA1021+003009999GA2021+010509999GA3071+012009999GF107991999999999999999999MA1101021999999MW1001REMMET093RJSK 0200Z 11006KT 9999 FEW010 SCT035 BKN040 02/01 Q1010 RMK 1ST010 3SC035 7SC040 A2983 P/FR;EQDQ01+000000PRSWM2
0214475450999992000011303004+39620+140220FM-15+0096RJSK V02099999999990105019N0112651N1+00301+00201999999ADDGA1021+003009999GA2021+009009999GA3071+010509999GF107991999999999999999999MA1100911999999MW1001REMMET088RJSK 0300Z VRB03KT 9999 FEW010 SCT030 BKN035 03/02 Q1009 RMK 1ST010 3SC030 7SC035 A2981;EQDQ01+000000PRSWM2
0234475450999992000011304004+39620+140220FM-15+0096RJSK V02099999999990120019N0112651N1+00301+00201999999ADDGA1021+002409999GA2021+006009999GA3071+012009999GF107991999999999999999999MA1100811999999MW1611REMMET092RJSK 0400Z VRB02KT 9999 -RA FEW008 SCT020 BKN040 03/02 Q1008 RMK 1ST008 3SC020 7SC040 A2979;EQDQ01+000003PRSWM1Q02    003PRSWM1
0234475450999992000011305004+39620+140220FM-15+0096RJSK V02099999999990120019N0112651N1+00301+00201999999ADDGA1021+003009999GA2021+006009999GA3071+012009999GF107991999999999999999999MA1100711999999MW1611REMMET092RJSK 0500Z VRB03KT 9999 -RA FEW010 SCT020 BKN040 03/02 Q1007 RMK 1ST010 3SC020 7SC040 A2976;EQDQ01+000003PRSWM1Q02    003PRSWM1
0272475450999992000011306004+39620+140220FM-15+0096RJSK V0201801N002110090019N0050001N1+00301+00201999999ADDGA1021+000309999GA2021+003009999GA3071+009009999GF107991999999999999999999MA1100811999999MW1101MW2411MW3611REMMET134RJSK 0600Z 18004KT 5000 R28/0750V1300U -RA BR PRFG FEW001 SCT010 BKN030 03/02 Q1008 RMK 1ST001 3ST010 7SC030 A2978 9999N AND 0700NE-S;EQDQ01+000003PRSWM1
0308475450999992000011306104+39620+140220FM-16+0096RJSK V0201801N002110090019N0040001N1+00301+00201999999ADDED199U07009GA1021+000309999GA2021+003009999GA3071+009009999GF107991999999999999999999MA1100811999999MW1611REMMET139RJSK 130610Z 18004KT 140V200 4000 R28/0700N -RA BR PRFG FEW001 SCT010 BKN030 03/02 Q1008 RMK 1ST001 3ST010 7SC030 A2978 9999N AND 0900NE-S;EQDQ01+000100PRSWM3Q02+000410PRSWM4Q03+000003PRSWM1
0255475450999992000011306424+39620+140220FM-16+0096RJSK V0201401N002110024019N0006001N1+00301+00201999999ADDED199U06509GA1021+000309999GA2071+002409999GF107991999999999999999999MA1100711999999MW1611REMMET102RJSK 130642Z 14004KT 0600 R28/0650N -RA FG SCT001 BKN008 03/02 Q1007 RMK 3ST001 7ST008 A2976 2000W-NW;EQDQ01+000440PRSWM3Q02+000003PRSWM1Q03    003PRSWM1
0218475450999992000011307004+39620+140220FM-15+0096RJSK V0201201N002610024019N0020001N1+00301+00201999999ADDGA1021+000309999GA2071+002409999GF107991999999999999999999MA1100711999999MW1101MW2411REMMET086RJSK 0700Z 12005KT 100V160 2000 R28/1200VP2000U -RA BR PRFG FEW001 BKN008 03/02 Q1007;EQDQ01+000003PRSWM1Q02    003PRSWM1
0264475450999992000011307074+39620+140220FM-16+0096RJSK V0201201N002110024019N0030001N1+00301+00201999999ADDGA1021+000309999GA2071+002409999GF107991999999999999999999MA1100711999999MW1101REMMET122RJSK 130707Z 12004KT 090V160 3000 R28/1600VP2000U -RA BR PRFG FEW001 BKN008 03/02 Q1007 RMK 1ST001 7ST008 A2975 1200NE-SE;EQDQ01+000410PRSWM3Q02+000003PRSWM1Q03    003PRSWM1
0303475450999992000011307144+39620+140220FM-16+0096RJSK V0201301N002110120019N0050001N1+00301+00201999999ADDED199U20009GA1021+000309999GA2021+003009999GA3071+012009999GF107991999999999999999999MA1100711999999MW1611REMMET134RJSK 130714Z 13004KT 5000 R28/P2000N -RA BR PRFG FEW001 SCT010 BKN040 03/02 Q1007 RMK 1ST001 4ST010 7SC040 A2975 20KM N AND 1200NE-SE;EQDQ01+000100PRSWM3Q02+000410PRSWM4Q03+000003PRSWM1
0267475450999992000011308004+39620+140220FM-15+0096RJSK V02099999999990009019N0007001N1+00301+00201999999ADDGA1021+000309999GA2071+000909999GA3071+002409999GF107991999999999999999999MA1100611999999MW1441MW2611REMMET119RJSK 0800Z VRB03KT 0700 R28/0900V1600D -RA FG FEW001 BKN003 BKN008 03/02 Q1006 RMK 2ST001 5ST003 7ST008 A2974 2000W-NW;EQDQ01+000003PRSWM1Q02    003PRSWM1
0248475450999992000011308084+39620+140220FM-16+0096RJSK V0201501N002110009019N0005001N1+00301+00201999999ADDGA1021+000309999GA2071+000909999GF107991999999999999999999MA1100711999999MW1611REMMET106RJSK 130808Z 15004KT 130V200 0500 R28/0550V0900D -RA FG FEW001 BKN003 03/02 Q1007 RMK 2ST001 7ST003 A2974;EQDQ01+000440PRSWM3Q02+000003PRSWM1Q03    003PRSWM1
0234475450999992000011309004+39620+140220FM-15+0096RJSK V02099999999990009019N0007001N1+00201+00101999999ADDED199U06009GA1021+000309999GA2071+000909999GF107991999999999999999999MA1100811999999MW1441MW2611REMMET091RJSK 0900Z VRB02KT 0700 R28/0600N -RA FG FEW001 BKN003 02/01 Q1008 RMK 2ST001 7ST003 A2977;EQDQ01+000003PRSWM1Q02    003PRSWM1
0256475450999992000011309214+39620+140220FM-16+0096RJSK V0201201N003110009019N0009001N1+00301+00201999999ADDED199U09009GA1021+000309999GA2071+000909999GA3071+004509999GF107991999999999999999999MA1100711999999MW1441REMMET103RJSK 130921Z 12006KT 0900 R28/0900U FG FEW001 BKN003 BKN015 03/02 Q1007 RMK 2ST001 5ST003 6ST015 A2975;EQDQ01+000003PRSWM1Q02    003PRSWM1
0259475450999992000011309384+39620+140220FM-16+0096RJSK V0201301N002610009019N0009001N1+00201+00101999999ADDGA1021+000309999GA2071+000909999GA3071+007509999GF107991999999999999999999MA1100711999999MW1441REMMET117RJSK 130938Z 13005KT 0900 R28/0900V1600U FG FEW001 BKN003 BKN025 02/01 Q1007 RMK 1ST001 5ST003 7SC025 A2975 2500W-NW;EQDQ01+000003PRSWM1Q02    003PRSWM1
0260475450999992000011310004+39620+140220FM-15+0096RJSK V0201101N003110006019N0008001N1+00201+00101999999ADDED199U08009GA1021+000309999GA2071+000609999GA3071+004509999GF107991999999999999999999MA1100711999999MW1441REMMET107RJSK 1000Z 11006KT 0800 R28/0800N FG FEW001 BKN002 BKN015 02/01 Q1007 RMK 1ST001 7ST002 7ST015 A2974 2000W;EQDQ01+000003PRSWM1Q02    003PRSWM1
0253475450999992000011310064+39620+140220FM-16+0096RJSK V0200901N003110006019N0025001N1+00201+00101999999ADDGA1021+000309999GA2071+000609999GA3071+004509999GF107991999999999999999999MA1100611999999MW1411REMMET111RJSK 131006Z 09006KT 2500 R28/0800VP2000U BCFG FEW001 BKN002 BKN015 02/01 Q1006 RMK 1ST001 5ST002 7ST015 A2973;EQDQ01+000003PRSWM1Q02    003PRSWM1
0255475450999992000011310264+39620+140220FM-16+0096RJSK V02099999999990045019N0030001N1+00201+00101999999ADDGA1021+000309999GA2021+001509999GA3071+004509999GF107991999999999999999999MA1100611999999MW1611REMMET097RJSK 131026Z VRB03KT 3000 -RA BR FEW001 SCT005 BKN015 02/01 Q1006 RMK 1ST001 3ST005 7ST015 A2972;EQDQ01+000100PRSWM3Q02+000003PRSWM1Q03    003PRSWM1
0258475450999992000011311004+39620+140220FM-15+0096RJSK V02099999999990009019N0007001N1+00201+00201999999ADDGA1021+000309999GA2071+000909999GA3071+002409999GF107991999999999999999999MA1100611999999MW1441MW2611REMMET110RJSK 1100Z VRB03KT 0700 R28/0450V1100D -RA FG FEW001 BKN003 BKN008 02/02 Q1006 RMK 2ST001 5ST003 7ST008 A2973;EQDQ01+000003PRSWM1Q02    003PRSWM1
0270475450999992000011311024+39620+140220FM-16+0096RJSK V0201701N002110009019N0005001N1+00201+00101999999ADDGA1021+000309999GA2071+000909999GA3071+002409999GF107991999999999999999999MA1100611999999MW1611REMMET112RJSK 131102Z 17004KT 0500 R28/0450V0550N -RA FG FEW001 BKN003 BKN008 02/01 Q1006 RMK 2ST001 6ST003 7ST008 A2973;EQDQ01+000440PRSWM3Q02+000003PRSWM1Q03    003PRSWM1
0290475450999992000011320414+39620+140220FM-16+0096RJSK V0201401N002610009019N0020001N1+00201+00101999999ADDGA1021+000309999GA2071+000909999GA3071+009009999GF107991999999999999999999MA1100201999999MW1801REMMET132RJSK 132041Z 14005KT 100V170 2000 R28/0650V1800U -SHRA PRFG FEW001 BKN003 BKN030 02/01 Q1002 RMK 1ST001 6ST003 7CU030 A2961 0900N-S;EQDQ01+000410PRSWM3Q02+000003PRSWM1Q03    003PRSWM1
0240475450999992000011321004+39620+140220FM-15+0096RJSK V0201401N002610009019N0025001N1+00201+00101999999ADDGA1021+000309999GA2071+000909999GF107991999999999999999999MA1100311999999MW1101MW2411MW3811REMMET118RJSK 2100Z 14005KT 100V200 2500 R28/1400V1800N SHRA BR PRFG FEW001 BKN003 02/01 Q1003 RMK 1ST001 7ST003 A2962 0900N-S;EQDQ01+000003PRSWM1
0292475450999992000011321134+39620+140220FM-16+0096RJSK V0201101N002610045019N0035001N1+00201+00101999999ADDGA1021+000309999GA2021+001509999GA3071+004509999GF107991999999999999999999MA1100201999999MW1101REMMET134RJSK 132113Z 11005KT 3500 R28/1600VP2000N -SHRA BR PRFG FEW001 SCT005 BKN015 02/01 Q1002 RERA RMK 1ST001 3ST005 6ST015 A2961 1000E-SE;EQDQ01+000410PRSWM3Q02+000003PRSWM1Q03    003PRSWM1
0281475450999992000011321314+39620+140220FM-16+0096RJSK V0201101N003110030019N0080001N1+00301+00201999999ADDED199U20009GA1021+000309999GA2071+003009999GA3071+007509999GF107991999999999999999999MA1100311999999MW1411REMMET128RJSK 132131Z 11006KT 080V140 8000 R28/P2000N PRFG FEW001 BKN010 BKN025 03/02 Q1003 RERA RMK 1ST001 5ST010 7CU025 A2962 1500E-SE;EQDQ01+000003PRSWM1Q02    003PRSWM1
0212475450999992000011322004+39620+140220FM-15+0096RJSK V02099999999990090019N0112651N1+00501+00401999999ADDGA1021+003009999GA2071+009009999GA3071+999999999GF107991999999999999999999MA1100311999999MW1001REMMET086RJSK 2200Z VRB03KT 9999 SCT010 BKN030 BKN/// 05/04 Q1003 RERA RMK 4ST010 6CU030 A2963;EQDQ01+000000PRSWM2
0255475450999992000011323004+39620+140220FM-15+0096RJSK V02099999999990060019N0112651N1+00601+00501999999ADDGA1021+000609999GA2021+003009999GA3071+006009999GF107991999999999999999999MA1100311999999MW1401MW2801REMMET107RJSK 2300Z VRB06KT 9999 -SHRA VCFG FEW002 SCT010 BKN020 06/05 Q1003 RMK 1ST002 4ST010 7CU020 A2965 FG E-SE;EQDQ01+000003PRSWM1Q02    003PRSWM1
0236475450999992000011400004+39620+140220FM-15+0096RJSK V02099999999990090019N0112651N1+00701+00601999999ADDGA1021+001509999GA2021+003009999GA3071+009009999GF107991999999999999999999MA1100311999999MW1801REMMET094RJSK 0000Z VRB02KT 9999 -SHRA FEW005 SCT010 BKN030 07/06 Q1003 RMK 1ST005 4ST010 7CU030 A2964;EQDQ01+000003PRSWM1Q02    003PRSWM1
0225475450999992000011401004+39620+140220FM-15+0096RJSK V0201501N003110090019N0112651N1+00701+00401999999ADDGA1021+003009999GA2071+009009999GF107991999999999999999999MA1100201999999MW1801OC100821REMMET091RJSK 0100Z 15006G16KT 100V230 9999 -SHRA FEW010 BKN030 07/04 Q1002 RMK 1ST010 7CU030 A2960;EQDQ01+000003PRSWM1Q02    003PRSWM1
0208475450999992000011402004+39620+140220FM-15+0096RJSK V0201401N005110060019N0112651N1+00801+00501999999ADDGA1021+003009999GA2071+006009999GF107991999999999999999999MA1100001999999MW1001OC101081REMMET090RJSK 0200Z 14010G21KT 110V230 9999 FEW010 BKN020 08/05 Q1000 RMK 1ST010 7CU020 A2954 P/FR;EQDQ01+000000PRSWM2
0252475450999992000011403004+39620+140220FM-15+0096RJSK V0203001N012310045019N0060001N1+00601+00401999999ADDGA1021+003009999GA2071+004509999GA3071+009009999GF107991999999999999999999MA1100311999999MW1801OC101851REMMET102RJSK 0300Z 30024G36KT 6000 -SHRA FEW010 BKN015 BKN030 06/04 Q1003 RMK 1ST010 5ST015 7CU030 A2963 P/RR;EQDQ01+000003PRSWM1Q02    003PRSWM1
0252475450999992000011404004+39620+140220FM-15+0096RJSK V0203101N009810075019N0112651N1+00601+00401999999ADDGA1021+003009999GA2021+004509999GA3071+007509999GF107991999999999999999999MA1100411999999MW1801OC101491REMMET102RJSK 0400Z 31019G29KT 9999 -SHRA FEW010 SCT015 BKN025 06/04 Q1004 RMK 1ST010 3ST015 7CU025 A2968 P/RR;EQDQ01+000003PRSWM1Q02    003PRSWM1
0255475450999992000011405004+39620+140220FM-15+0096RJSK V0203101N008210090019N0112651N1+00601+00301999999ADDGA1021+001509999GA2021+003009999GA3071+009009999GF107991999999999999999999MA1100711999999MW1801OC101441REMMET105RJSK 0500Z 31016G28KT 280V340 9999 -SHRA FEW005 SCT010 BKN030 06/03 Q1007 RMK 1ST005 4ST010 7CU030 A2975;EQDQ01+000003PRSWM1Q02    003PRSWM1
0252475450999992000011406004+39620+140220FM-15+0096RJSK V0203101N008210045019N0080001N1+00601+00301999999ADDGA1021+003009999GA2071+004509999GA3071+009009999GF107991999999999999999999MA1100911999999MW1801OC101491REMMET102RJSK 0600Z 31016G29KT 8000 -SHRA FEW010 BKN015 BKN030 06/03 Q1009 RMK 1ST010 5ST015 7CU030 A2980 P/RR;EQDQ01+000003PRSWM1Q02    003PRSWM1
0236475450999992000011407004+39620+140220FM-15+0096RJSK V0203101N008210045019N0112651N1+00501+00201999999ADDGA1021+002109999GA2071+004509999GA3071+009009999GF107991999999999999999999MA1101021999999MW1801REMMET094RJSK 0700Z 31016KT 9999 -SHRA FEW007 BKN015 BKN030 05/02 Q1010 RMK 1ST007 5CU015 7CU030 A2984;EQDQ01+000003PRSWM1Q02    003PRSWM1
0247475450999992000011408004+39620+140220FM-15+0096RJSK V0203101N006710045019N0112651N1+00401+00101999999ADDGA1021+002109999GA2071+004509999GA3071+007509999GF107991999999999999999999MA1101081999999MW1801OC101231REMMET097RJSK 0800Z 31013G24KT 9999 -SHRA FEW007 BKN015 BKN025 04/01 Q1011 RMK 1ST007 5CU015 7CU025 A2988;EQDQ01+000003PRSWM1Q02    003PRSWM1
0214475450999992000011409004+39620+140220FM-15+0096RJSK V0203201N004610105019N0112651N1+00401+00101999999ADDGA1021+003009999GA2021+006009999GA3071+010509999GF107991999999999999999999MA1101291999999MW1001REMMET088RJSK 0900Z 32009KT 9999 FEW010 SCT020 BKN035 04/01 Q1013 RMK 1ST010 3CU020 7CU035 A2992;EQDQ01+000000PRSWM2
0244475450999992000011410004+39620+140220FM-15+0096RJSK V0203001N002610075019N0112651N1+00401+00201999999ADDGA1021+002409999GA2021+004509999GA3071+007509999GF107991999999999999999999MA1101391999999MW1801REMMET102RJSK 1000Z 30005KT 270V330 9999 -SHRA FEW008 SCT015 BKN025 04/02 Q1014 RMK 1ST008 3CU015 7CU025 A2995;EQDQ01+000003PRSWM1Q02    003PRSWM1
0222475450999992000011411004+39620+140220FM-15+0096RJSK V0200101N002110090019N0112651N1+00301+00101999999ADDGA1021+006009999GA2071+009009999GA3071+015009999GF107991999999999999999999MA1101391999999MW1001REMMET096RJSK 1100Z 01004KT 340V040 9999 FEW020 BKN030 BKN050 03/01 Q1014 RMK 1CU020 5CU030 7CU050 A2997;EQDQ01+000000PRSWM2
0215475450999992000011421004+39620+140220FM-15+0096RJSK V02099999999990075019N0112651N1+00201+00001999999ADDGA1021+004509999GA2071+007509999GF107991999999999999999999MA1101801999999MW1801MW2851REMMET083RJSK 2100Z VRB03KT 9999 -SHRASN FEW015 BKN025 02/M00 Q1018 RMK 1CU015 7CU025 A3008;EQDQ01+000003PRSWM1Q02    003PRSWM1
0223475450999992000011422004+39620+140220FM-15+0096RJSK V0203501N002110090019N0112651N1+00201+00001999999ADDGA1021+004509999GA2071+009009999GF107991999999999999999999MA1101901999999MW1801MW2851REMMET091RJSK 2200Z 35004KT 330V030 9999 -SHRASN FEW015 BKN030 02/M00 Q1019 RMK 1CU015 7CU030 A3010;EQDQ01+000003PRSWM1Q02    003PRSWM1
0193475450999992000011423004+39620+140220FM-15+0096RJSK V0203301N002110105019N0112651N1+00201+00001999999ADDGA1021+006009999GA2071+010509999GF107991999999999999999999MA1101901999999MW1001REMMET083RJSK 2300Z 33004KT 310V010 9999 FEW020 BKN035 02/M00 Q1019 RMK 1CU020 7CU035 A3011;EQDQ01+000000PRSWM2
0223475450999992000011500004+39620+140220FM-15+0096RJSK V0203401N002110105019N0112651N1+00301+00001999999ADDGA1021+009009999GA2071+010509999GF107991999999999999999999MA1102001999999MW1801MW2851REMMET091RJSK 0000Z 34004KT 290V020 9999 -SHRASN FEW030 BKN035 03/M00 Q1020 RMK 1CU030 7CU035 A3012;EQDQ01+000003PRSWM1Q02    003PRSWM1
