0125477160999992000010100004+36030+140200FM-15+0029RJAK V0202701N001512200019N0112651N1+00501+00101999999ADDGF100991999999999999999999MA1102101999999MW1001REMMET066RJAK 0000Z 27003KT 9999 SKC 05/01 Q1021 RMK A3016 FCST 0009 NOSIG;
0155477160999992000010322004+36030+140200FM-15+0029RJAK V0202901N001012200019N0112651N1+00401-00401999999ADDGA1021+012009999GF102991999999999999999999MA1101491999999MW1001REMMET061RJAK 2200Z 29002KT 9999 FEW040 04/M04 Q1015 RMK 1SC040 A2999;EQDQ01+000000PRSWM2
0171477160999992000010323004+36030+140200FM-15+0029RJAK V0202501N001012200019N0112651N1+00401-00301999999ADDGA1021+012009999GF102991999999999999999999MA1101591999999MW1001REMMET077RJAK 2300Z 25002KT 9999 FEW040 04/M03 Q1016 RMK 1SC040 A3000 FCST 2308 NOSIG;EQDQ01+000000PRSWM2
0145477160999992000010400004+36030+140200FM-15+0029RJAK V0203101N001512200019N0112651N1+00801-00301999999ADDGF100991999999999999999999MA1101591999999MW1001REMMET067RJAK 0000Z 31003KT 9999 SKC 08/M03 Q1016 RMK A3002 FCST 0009 NOSIG;EQDQ01+000000PRSWM2
0129477160999992000010401004+36030+140200FM-15+0029RJAK V0203001N002612200019N0112651N1+01001-00401999999ADDGF100991999999999999999999MA1101591999999MW1001REMMET051RJAK 0100Z 30005KT 9999 SKC 10/M04 Q1016 RMK A3002;EQDQ01+000000PRSWM2
0129477160999992000010402004+36030+140200FM-15+0029RJAK V0203201N003112200019N0112651N1+01101-00401999999ADDGF100991999999999999999999MA1101591999999MW1001REMMET051RJAK 0200Z 32006KT 9999 SKC 11/M04 Q1016 RMK A3001;EQDQ01+000000PRSWM2
0145477160999992000010403004+36030+140200FM-15+0029RJAK V0202801N002112200019N0112651N1+01201-00401999999ADDGF100991999999999999999999MA1101491999999MW1001REMMET067RJAK 0300Z 28004KT 9999 SKC 12/M04 Q1015 RMK A2999 FCST 0312 NOSIG;EQDQ01+000000PRSWM2
0140477160999992000010405004+36030+140200FM-15+0029RJAK V0202901N005112200019N0112651N1+01501-00501999999ADDGF100991999999999999999999MA1101491999999MW1001OC101031REMMET054RJAK 0500Z 29010G20KT 9999 SKC 15/M05 Q1015 RMK A2998;EQDQ01+000000PRSWM2
0169477160999992000010406004+36030+140200FM-15+0029RJAK V0203001N005712200019N0112651N1+01401-00601999999ADDGF100991999999999999999999MA1101591999999MW1001OC101181REMMET083RJAK 0600Z 30011G23KT 9999 SKC 14/M06 Q1016 RMK A3000 FCST 0615 BECMG 0607 29012KT;EQDQ01+000000PRSWM2
0129477160999992000010407004+36030+140200FM-15+0029RJAK V0203401N002612200019N0112651N1+01301-00501999999ADDGF100991999999999999999999MA1101591999999MW1001REMMET051RJAK 0700Z 34005KT 9999 SKC 13/M05 Q1016 RMK A3002;EQDQ01+000000PRSWM2
0171477160999992000010408004+36030+140200FM-15+0029RJAK V0202601N001512200019N0112651N1+01201-00501999999ADDGA1021+009009999GF102991999999999999999999MA1101691999999MW1001REMMET077RJAK 0800Z 26003KT 9999 FEW030 12/M05 Q1017 RMK 1CU030 A3005 FCST 0817 NOSIG;EQDQ01+000000PRSWM2
0155477160999992000010422004+36030+140200FM-15+0029RJAK V0202701N001012200019N0112651N1+00001-00301999999ADDGA1021+030009999GF102991999999999999999999MA1102401999999MW1001REMMET061RJAK 2200Z 27002KT 9999 FEW100 00/M03 Q1024 RMK 1AC100 A3024;EQDQ01+000000PRSWM2
0172477160999992000010423004+36030+140200FM-15+0029RJAK V0209999C000012200019N0112651N1-00101-00401999999ADDGA1021+030009999GF102991999999999999999999MA1102401999999MW1001REMMET078RJAK 2300Z 00000KT 9999 FEW100 M01/M04 Q1024 RMK 1AC100 A3025 FCST 2308 NOSIG;EQDQ01+000000PRSWM2
0171477160999992000010500004+36030+140200FM-15+0029RJAK V0203001N001012200019N0112651N1+00501-00201999999ADDGA1021+030009999GF102991999999999999999999MA1102511999999MW1001REMMET077RJAK 0000Z 30002KT 9999 FEW100 05/M02 Q1025 RMK 1AC100 A3027 FCST 0009 NOSIG;EQDQ01+000000PRSWM2
0155477160999992000010501004+36030+140200FM-15+0029RJAK V0202701N001012200019N0112651N1+00701-00201999999ADDGA1021+030009999GF102991999999999999999999MA1102511999999MW1001REMMET061RJAK 0100Z 27002KT 9999 FEW100 07/M02 Q1025 RMK 1AC100 A3028;EQDQ01+000000PRSWM2
0185477160999992000010502004+36030+140200FM-15+0029RJAK V0200701N002612200019N0112651N1+00901-00201999999ADDGA1021+015009999GA2021+024009999GF104991999999999999999999MA1102401999999MW1001REMMET075RJAK 0200Z 07005KT 9999 SCT050 SCT080 09/M02 Q1024 RMK 3SC050 4AC080 A3026;EQDQ01+000000PRSWM2
0177477160999992000010502074+36030+140200FM-16+0029RJAK V0200601N00261220001CN0112651N1+00901-00201999999ADDGA1071+015009999GA2021+069009999MA1102511999999MW1001REMMET077RJAK 050207Z 06005KT 9999 BKN050 SCT230 09/M02 Q1025 RMK 5SC050 3CI230 A3026;EQDQ01+000042SCOTCVQ02+000000PRSWM2
0214477160999992000010503004+36030+140200FM-15+0029RJAK V0209999999999220001CN0112651N1+00901-00201999999ADDGA1071+015009999GA2021+069009999MA1102401999999MW1001REMMET114RJAK 0300Z VRB01KT 9999 BKN050 SCT230 09/M02 Q1024 RMK 6SC050 3CI230 A3024 FCST 0312 TEMPO 0510 SCT050SC SCT230CI;EQDQ01+000042SCOTCVQ02+000000PRSWM2
0185477160999992000010505004+36030+140200FM-15+0029RJAK V0200801N002110690019N0112651N1+01001-00201999999ADDGA1021+015009999GA2071+069009999GF107991999999999999999999MA1102301999999MW1001REMMET075RJAK 0500Z 08004KT 9999 SCT050 BKN230 10/M02 Q1023 RMK 3SC050 7CI230 A3021;EQDQ01+000000PRSWM2
0231477160999992000010506004+36030+140200FM-15+0029RJAK V0200901N003110150019N0112651N1+01101-00101999999ADDGA1021+009009999GA2071+015009999GA3071+069009999GF107991999999999999999999MA1102301999999MW1001REMMET105RJAK 0600Z 09006KT 9999 FEW030 BKN050 BKN230 11/M01 Q1023 RMK 1SC030 5SC050 7CI230 A3021 FCST 0615 NOSIG;EQDQ01+000000PRSWM2
0214477160999992000010507004+36030+140200FM-15+0029RJAK V0200901N002610090019N0112651N1+01001+00201999999ADDGA1071+009009999GA2021+030009999GA3071+069009999GF107991999999999999999999MA1102301999999MW1001REMMET088RJAK 0700Z 09005KT 9999 BKN030 SCT100 BKN230 10/02 Q1023 RMK 7SC030 4AC100 6CI230 A3022;EQDQ01+000000PRSWM2
0230477160999992000010508004+36030+140200FM-15+0029RJAK V0200601N002110150019N0112651N1+00901+00401999999ADDGA1021+006009999GA2071+015009999GA3081+030009999GF108991999999999999999999MA1102301999999MW1001REMMET104RJAK 0800Z 06004KT 9999 FEW020 BKN050 OVC100 09/04 Q1023 RMK 1CU020 7SC050 8AC100 A3023 FCST 0817 NOSIG;EQDQ01+000000PRSWM2
0184477160999992000010522004+36030+140200FM-15+0029RJAK V0203401N001510090019N0112651N1+00801+00401999999ADDGA1071+009009999GA2081+030009999GF108991999999999999999999MA1102201999999MW1001REMMET074RJAK 2200Z 34003KT 9999 BKN030 OVC100 08/04 Q1022 RMK 6SC030 8AC100 A3018;EQDQ01+000000PRSWM2
0214477160999992000010601004+36030+140200FM-15+0029RJAK V0200301N003610090019N0112651N1+01101+00701999999ADDGA1021+006009999GA2071+009009999GA3071+030009999GF107991999999999999999999MA1102201999999MW1001REMMET088RJAK 0100Z 03007KT 9999 FEW020 BKN030 BKN100 11/07 Q1022 RMK 2CU020 5SC030 7AC100 A3018;EQDQ01+000000PRSWM2
0214477160999992000010602004+36030+140200FM-15+0029RJAK V0203501N001510090019N0112651N1+01201+00701999999ADDGA1021+006009999GA2071+009009999GA3081+030009999GF108991999999999999999999MA1102101999999MW1001REMMET088RJAK 0200Z 35003KT 9999 FEW020 BKN030 OVC100 12/07 Q1021 RMK 2CU020 6SC030 8AC100 A3015;EQDQ01+000000PRSWM2
0216477160999992000010602454+36030+140200FM-15+0029RJAK V0203101N001510300019N0112651N1+01201+00601999999ADDGA1021+006009999GA2021+009009999GA3071+030009999GF107991999999999999999999MA1102001999999MW1001REMMET090RJAK 060245Z 31003KT 9999 FEW020 SCT030 BKN100 12/06 Q1020 RMK 2CU020 4SC030 6AC100 A3012;EQDQ01+000000PRSWM2
0296477160999992000010603004+36030+140200FM-15+0029RJAK V0203301N001510300019N0112651N1+01301+00701999999ADDGA1021+006009999GA2021+009009999GA3071+030009999GF107991999999999999999999MA1102001999999MW1001REMMET170RJAK 0300Z 33003KT 9999 FEW020 SCT030 BKN100 13/07 Q1020 RMK 2CU020 3SC030 6AC100 A3012 FCST 0312 BECMG 0506 FEW020CU BKN030SC BKN100AC TEMPO 0609 -SHRA BECMG 0910 -SHRA;EQDQ01+000000PRSWM2
0216477160999992000010603224+36030+140200FM-16+0029RJAK V0203201N001510690019N0112651N1+01301+00701999999ADDGA1021+006009999GA2021+030009999GA3071+069009999GF107991999999999999999999MA1101901999999MW1001REMMET090RJAK 060322Z 32003KT 9999 FEW020 SCT100 BKN230 13/07 Q1019 RMK 1CU020 3AC100 5CI230 A3010;EQDQ01+000000PRSWM2
0214477160999992000010604004+36030+140200FM-15+0029RJAK V0200201N002110690019N0112651N1+01401+00801999999ADDGA1021+006009999GA2021+030009999GA3071+069009999GF107991999999999999999999MA1101801999999MW1001REMMET088RJAK 0400Z 02004KT 9999 FEW020 SCT100 BKN230 14/08 Q1018 RMK 2CU020 3AC100 5CI230 A3008;EQDQ01+000000PRSWM2
0184477160999992000010605004+36030+140200FM-15+0029RJAK V0200701N001512200019N0112651N1+01501+00901999999ADDGA1021+006009999GA2021+030009999GF104991999999999999999999MA1101801999999MW1001REMMET074RJAK 0500Z 07003KT 9999 SCT020 SCT100 15/09 Q1018 RMK 4CU020 3AC100 A3006;EQDQ01+000000PRSWM2
0232477160999992000010606004+36030+140200FM-15+0029RJAK V0201001N001512200019N0112651N1+01501+01001999999ADDGA1021+006009999GA2021+024009999GF104991999999999999999999MA1101691999999MW1001REMMET122RJAK 0600Z 10003KT 9999 FEW020 SCT080 15/10 Q1017 RMK 2CU020 3AC080 A3003 FCST 0615 TEMPO 1015 FEW020CU BKN040SC BKN100AC;EQDQ01+000000PRSWM2
0184477160999992000010607004+36030+140200FM-15+0029RJAK V0200601N002112200019N0112651N1+01501+01001999999ADDGA1021+006009999GA2021+018009999GF104991999999999999999999MA1101691999999MW1001REMMET074RJAK 0700Z 06004KT 9999 FEW020 SCT060 15/10 Q1017 RMK 2CU020 4SC060 A3003;EQDQ01+000000PRSWM2
0232477160999992000010608004+36030+140200FM-15+0029RJAK V0203301N000512200019N0112651N1+01401+01001999999ADDGA1021+006009999GA2021+018009999GF104991999999999999999999MA1101691999999MW1001REMMET122RJAK 0800Z 33001KT 9999 FEW020 SCT060 14/10 Q1017 RMK 1CU020 4SC060 A3004 FCST 0817 TEMPO 1017 FEW020CU SCT060SC BKN080AC;EQDQ01+000000PRSWM2
0305477160999992000010700004+36030+140200FM-15+0029RJAK V0202701N002110060019N0015001N1+00901+00901999999ADDGA1021+003009999GA2071+006009999GA3081+012009999GF108991999999999999999999MA1100811999999MW1101REMMET163RJAK 0000Z 27004KT 1500 BR SCT010 BKN020 OVC040 09/09 Q1008 RMK 3ST010 7CU020 8SC040 A2978 FCST 0009 BECMG 0203 NSW FEW020CU SCT040SC TEMPO 0709 FEW020CU BKN040SC;EQDQ01+000003PRSWM1Q02    003PRSWM1
0233477160999992000010702004+36030+140200FM-15+0029RJAK V0202801N001010060019N0021001N1+01201+01101999999ADDGA1021+003009999GA2071+006009999GA3081+015009999GF108991999999999999999999MA1100711999999MW1101REMMET091RJAK 0200Z 28002KT 2100 BR FEW010 BKN020 OVC050 12/11 Q1007 RMK 2ST010 5CU020 8SC050 A2976;EQDQ01+000003PRSWM1Q02    003PRSWM1
0292477160999992000010703004+36030+140200FM-15+0029RJAK V0203001N001010075019N0035001N1+01401+01201999999ADDGA1021+003009999GA2071+007509999GA3071+015009999GF107991999999999999999999MA1100711999999MW1101REMMET150RJAK 0300Z 30002KT 3500 BR FEW010 BKN025 BKN050 14/12 Q1007 RMK 1ST010 5CU025 7SC050 A2973 FCST 0312 BECMG 0304 5000 BECMG 0405 NSW SCT025CU SCT050SC;EQDQ01+000003PRSWM1Q02    003PRSWM1
0233477160999992000010704004+36030+140200FM-15+0029RJAK V0203001N001510075019N0030001N1+01501+01201999999ADDGA1021+003009999GA2071+007509999GA3071+015009999GF107991999999999999999999MA1100611999999MW1101REMMET091RJAK 0400Z 30003KT 3000 BR FEW010 BKN025 BKN050 15/12 Q1006 RMK 2ST010 5CU025 7SC050 A2973;EQDQ01+000003PRSWM1Q02    003PRSWM1
0233477160999992000010705004+36030+140200FM-15+0029RJAK V0202601N001010060019N0030001N1+01501+01201999999ADDGA1021+003009999GA2071+006009999GA3071+012009999GF107991999999999999999999MA1100611999999MW1101REMMET091RJAK 0500Z 26002KT 3000 BR FEW010 BKN020 BKN040 15/12 Q1006 RMK 1ST010 5CU020 7SC040 A2972;EQDQ01+000003PRSWM1Q02    003PRSWM1
0205477160999992000010705294+36030+140200FM-16+0029RJAK V0202301N001512200019N0035001N1+01601+01201999999ADDGA1021+006009999GA2021+063009999GF104991999999999999999999MA1100611999999MW1101REMMET079RJAK 070529Z 23003KT 3500 BR FEW020 SCT210 16/12 Q1006 RMK 1CU020 3CI210 A2971;EQDQ01+000003PRSWM1Q02    003PRSWM1
0242477160999992000010706004+36030+140200FM-15+0029RJAK V0202101N002112200019N0040001N1+01601+01201999999ADDGA1021+007509999GA2021+063009999GF104991999999999999999999MA1100611999999MW1101REMMET116RJAK 0600Z 21004KT 4000 BR FEW025 SCT210 16/12 Q1006 RMK 1CU025 4CI210 A2971 FCST 0615 TEMPO 0709 FEW025CU BKN100AC;EQDQ01+000003PRSWM1Q02    003PRSWM1
0186477160999992000010706254+36030+140200FM-15+0029RJAK V0202801N001012200019N0060001N1+01601+01101999999ADDGA1021+007509999GA2021+063009999GF104991999999999999999999MA1100611999999MW1001REMMET076RJAK 070625Z 28002KT 6000 FEW025 SCT210 16/11 Q1006 RMK 1CU025 3CI210 A2973;EQDQ01+000000PRSWM2
0203477160999992000010707004+36030+140200FM-15+0029RJAK V0200701N002610120019N0050001N1+01501+01201999999ADDGA1021+007509999GA2071+012009999GF107991999999999999999999MA1100711999999MW1101REMMET077RJAK 0700Z 07005KT 5000 BR FEW025 BKN040 15/12 Q1007 RMK 2CU025 5SC040 A2973;EQDQ01+000003PRSWM1Q02    003PRSWM1
0251477160999992000010708004+36030+140200FM-15+0029RJAK V0200501N001512200019N0030001N1+01401+01201999999ADDGA1021+007509999GA2021+012009999GF104991999999999999999999MA1100711999999MW1101REMMET125RJAK 0800Z 05003KT 3000 BR FEW025 SCT040 14/12 Q1007 RMK 1CU025 4SC040 A2975 FCST 0817 TEMPO 0815 FEW025CU BKN040SC SCT100AC;EQDQ01+000003PRSWM1Q02    003PRSWM1
0155477160999992000011022004+36030+140200FM-15+0029RJAK V02099999999992200019N0112651N1+00301-00201999999ADDGA1021+015009999GF104991999999999999999999MA1101801999999MW1001REMMET061RJAK 2200Z VRB01KT 9999 SCT050 03/M02 Q1018 RMK 3SC050 A3008;EQDQ01+000000PRSWM2
0217477160999992000011023004+36030+140200FM-15+0029RJAK V02099999999992200019N0112651N1+00501-00301999999ADDGA1021+012009999GA2021+015009999GF104991999999999999999999MA1101901999999MW1001REMMET107RJAK 2300Z VRB03KT 9999 FEW040 SCT050 05/M03 Q1019 RMK 2SC040 3SC050 A3010 FCST 2308 TEMPO 0006 30013G25KT;EQDQ01+000000PRSWM2
0187477160999992000011100004+36030+140200FM-15+0029RJAK V0202701N002112200019N0112651N1+00801-00401999999ADDGA1021+009009999GF102991999999999999999999MA1102001999999MW1001REMMET093RJAK 0000Z 27004KT 9999 FEW030 08/M04 Q1020 RMK 1CU030 A3012 FCST 0009 TEMPO 0106 30013G25KT;EQDQ01+000000PRSWM2
0168477160999992000011100034+36030+140200FM-16+0029RJAK V0203101N004112200019N0112651N1+00801-00501999999ADDGA1021+009009999GF102991999999999999999999MA1101901999999MW1001OC101031REMMET066RJAK 110003Z 31008G20KT 9999 FEW030 08/M05 Q1019 RMK 1CU030 A3011;EQDQ01+000000PRSWM2
0166477160999992000011101004+36030+140200FM-15+0029RJAK V0203001N007212200019N0112651N1+00801-00601999999ADDGA1021+015009999GF102991999999999999999999MA1102001999999MW1001OC101541REMMET064RJAK 0100Z 30014G30KT 9999 FEW050 08/M06 Q1020 RMK 1SC050 A3012;EQDQ01+000000PRSWM2
0166477160999992000011102004+36030+140200FM-15+0029RJAK V0203001N007212200019N0112651N1+00901-00701999999ADDGA1021+007509999GF102991999999999999999999MA1102001999999MW1001OC101701REMMET064RJAK 0200Z 30014G33KT 9999 FEW025 09/M07 Q1020 RMK 1CU025 A3013;EQDQ01+000000PRSWM2
0168477160999992000011102074+36030+140200FM-16+0029RJAK V0203001N007212200019N0112651N1+00901-00701999999ADDGA1021+007509999GF102991999999999999999999MA1102001999999MW1001OC101951REMMET066RJAK 110207Z 30014G38KT 9999 FEW025 09/M07 Q1020 RMK 1CU025 A3013;EQDQ01+000000PRSWM2
0168477160999992000011102304+36030+140200FM-15+0029RJAK V0203101N006212200019N0112651N1+00901-00701999999ADDGA1021+007509999GF102991999999999999999999MA1102001999999MW1001OC101391REMMET066RJAK 110230Z 31012G27KT 9999 FEW025 09/M07 Q1020 RMK 1CU025 A3012;EQDQ01+000000PRSWM2
0195477160999992000011103004+36030+140200FM-15+0029RJAK V0203101N005112200019N0112651N1+01001-00701999999ADDGA1021+007509999GF102991999999999999999999MA1101901999999MW1001OC101131REMMET093RJAK 0300Z 31010G22KT 9999 FEW025 10/M07 Q1019 RMK 1CU025 A3011 FCST 0312 BECMG 0607 30010KT;EQDQ01+000000PRSWM2
0166477160999992000011104004+36030+140200FM-15+0029RJAK V0203101N005712200019N0112651N1+01101-00601999999ADDGA1021+007509999GF102991999999999999999999MA1101901999999MW1001OC101391REMMET064RJAK 0400Z 31011G27KT 9999 FEW025 11/M06 Q1019 RMK 1CU025 A3009;EQDQ01+000000PRSWM2
0166477160999992000011105004+36030+140200FM-15+0029RJAK V0202901N006712200019N0112651N1+01101-00701999999ADDGA1021+007509999GF102991999999999999999999MA1101801999999MW1001OC101341REMMET064RJAK 0500Z 29013G26KT 9999 FEW025 11/M07 Q1018 RMK 1CU025 A3008;EQDQ01+000000PRSWM2
0195477160999992000011106004+36030+140200FM-15+0029RJAK V0203001N007212200019N0112651N1+01101-00701999999ADDGA1021+012009999GF102991999999999999999999MA1101901999999MW1001OC101391REMMET093RJAK 0600Z 30014G27KT 9999 FEW040 11/M07 Q1019 RMK 1SC040 A3009 FCST 0615 BECMG 0708 30010KT;EQDQ01+000000PRSWM2
0166477160999992000011107004+36030+140200FM-15+0029RJAK V0202901N005112200019N0112651N1+00901-00801999999ADDGA1021+012009999GF102991999999999999999999MA1102001999999MW1001OC101031REMMET064RJAK 0700Z 29010G20KT 9999 FEW040 09/M08 Q1020 RMK 1SC040 A3013;EQDQ01+000000PRSWM2
0157477160999992000011107354+36030+140200FM-16+0029RJAK V0203001N002112200019N0112651N1+00901-00801999999ADDGA1021+012009999GF102991999999999999999999MA1102101999999MW1001REMMET063RJAK 110735Z 30004KT 9999 FEW040 09/M08 Q1021 RMK 1SC040 A3015;EQDQ01+000000PRSWM2
0171477160999992000011108004+36030+140200FM-15+0029RJAK V0203001N002112200019N0112651N1+00901-00701999999ADDGA1021+012009999GF102991999999999999999999MA1102101999999MW1001REMMET077RJAK 0800Z 30004KT 9999 FEW040 09/M07 Q1021 RMK 1SC040 A3015 FCST 0817 NOSIG;EQDQ01+000000PRSWM2
0215477160999992000011122004+36030+140200FM-15+0029RJAK V0203101N001510120019N0112651N1+00201-00401999999ADDGA1021+006009999GA2071+012009999GA3081+030009999GF108991999999999999999999MA1102511999999MW1001REMMET089RJAK 2200Z 31003KT 9999 FEW020 BKN040 OVC100 02/M04 Q1025 RMK 1SC020 5SC040 8AC100 A3029;EQDQ01+000000PRSWM2
0313477160999992000011123004+36030+140200FM-15+0029RJAK V0203201N001010120019N0112651N1+00201-00401999999ADDGA1021+006009999GA2071+012009999GA3081+030009999GF108991999999999999999999MA1102611999999MW1001REMMET187RJAK 2300Z COR 32002KT 9999 FEW020 BKN040 OVC100 02/M04 Q1026 RMK 1SC020 5SC040 8AC100 A3029 FCST 2308 TEMPO 0507 -RA FEW015SC BKN025SC OVC100AC BECMG 0708 -RA FEW015SC BKN020SC OVC100AC;EQDQ01+000000PRSWM2
0305477160999992000011200004+36030+140200FM-15+0029RJAK V0203301N001010300019N0112651N1+00301-00301999999ADDGA1021+012009999GA2021+024009999GA3081+030009999GF108991999999999999999999MA1102611999999MW1001REMMET179RJAK 0000Z 33002KT 9999 FEW040 SCT080 OVC100 03/M03 Q1026 RMK 1SC040 3AC080 8AC100 A3031 FCST 0009 BECMG 0203 FEW020SC BKN040SC OVC080AC BECMG 0506 -RA FEW015SC BKN020SC OVC080AC;EQDQ01+000000PRSWM2
0215477160999992000011201004+36030+140200FM-15+0029RJAK V0200301N002610300019N0112651N1+00501-00401999999ADDGA1021+012009999GA2021+024009999GA3081+030009999GF108991999999999999999999MA1102611999999MW1001REMMET089RJAK 0100Z 03005KT 9999 FEW040 SCT080 OVC100 05/M04 Q1026 RMK 2SC040 3AC080 8AC100 A3031;EQDQ01+000000PRSWM2
0185477160999992000011202004+36030+140200FM-15+0029RJAK V0200201N004110240019N0112651N1+00601-00301999999ADDGA1021+012009999GA2081+024009999GF108991999999999999999999MA1102511999999MW1001REMMET075RJAK 0200Z 02008KT 9999 SCT040 OVC080 06/M03 Q1025 RMK 4SC040 8AC080 A3028;EQDQ01+000000PRSWM2
0207477160999992000011202434+36030+140200FM-16+0029RJAK V0200201N003610096019N0112651N1+00601-00301999999ADDGA1071+009609999GA2081+024009999GF108991999999999999999999MA1102401999999MW1611REMMET081RJAK 120243Z 02007KT 9999 -RA BKN032 OVC080 06/M03 Q1024 RMK 5SC032 8AC080 A3026;EQDQ01+000003PRSWM1Q02    003PRSWM1
0238477160999992000011203004+36030+140200FM-15+0029RJAK V0200201N003110096019N0112651N1+00601-00201999999ADDGA1071+009609999GA2081+024009999GF108991999999999999999999MA1102401999999MW1611REMMET112RJAK 0300Z 02006KT 9999 -RA BKN032 OVC080 06/M02 Q1024 RMK 5SC032 8AC080 A3026 FCST 0312 BECMG 0708 4500 -RA BR;EQDQ01+000003PRSWM1Q02    003PRSWM1
0204477160999992000011204004+36030+140200FM-15+0029RJAK V0200101N002610090019N0070001N1+00501+00001999999ADDGA1071+009009999GA2081+015009999GF108991999999999999999999MA1102401999999MW1611REMMET078RJAK 0400Z 01005KT 7000 -RA BKN030 OVC050 05/00 Q1024 RMK 6SC030 8SC050 A3024;EQDQ01+000003PRSWM1Q02    003PRSWM1
0239477160999992000011206004+36030+140200FM-15+0029RJAK V0203601N003610090019N0060001N1+00301+00201999999ADDGA1021+006009999GA2081+009009999GF108991999999999999999999MA1102401999999MW1611REMMET113RJAK 0600Z 36007KT 6000 -RA SCT020 OVC030 03/02 Q1024 RMK 4SC020 8SC030 A3026 FCST 0615 BECMG 0708 4000 -RASN BR;EQDQ01+000003PRSWM1Q02    003PRSWM1
0234477160999992000011207004+36030+140200FM-15+0029RJAK V0203601N003110060019N0060001N1+00301+00201999999ADDGA1021+003009999GA2071+006009999GA3081+009009999GF108991999999999999999999MA1102401999999MW1611REMMET092RJAK 0700Z 36006KT 6000 -RA SCT010 BKN020 OVC030 03/02 Q1024 RMK 3ST010 5SC020 8SC030 A3025;EQDQ01+000003PRSWM1Q02    003PRSWM1
0275477160999992000011208004+36030+140200FM-15+0029RJAK V0203501N003610045019N0050001N1+00301+00201999999ADDGA1021+002409999GA2071+004509999GA3081+007509999GF108991999999999999999999MA1102401999999MW1101MW2611REMMET127RJAK 0800Z 35007KT 5000 -RA BR SCT008 BKN015 OVC025 03/02 Q1024 RMK 3ST008 5SC015 8SC025 A3025 FCST 0817 BECMG 0809 4000 -RASN;EQDQ01+000003PRSWM1Q02    003PRSWM1
0243477160999992000011222004+36030+140200FM-15+0029RJAK V0200301N002610030019N0025001N1+00401+00401999999ADDGA1021+001809999GA2071+003009999GA3081+006009999GF108991999999999999999999MA1101191999999MW1101MW2611REMMET095RJAK 2200Z 03005KT 2500 -RA BR SCT006 BKN010 OVC020 04/04 Q1012 RMK 3ST006 6ST010 8SC020 A2991;EQDQ01+000003PRSWM1Q02    003PRSWM1
0269477160999992000011300004+36030+140200FM-15+0029RJAK V0202901N003610030019N0040001N1+00401+00401999999ADDGA1021+001809999GA2081+003009999GF108991999999999999999999MA1101191999999MW1101MW2611REMMET137RJAK 0000Z 29007KT 4000 -RA BR SCT006 OVC010 04/04 Q1012 RMK 4ST006 8ST010 A2989 FCST 0009 TEMPO 0006 5000 BR SCT006ST SCT010ST BKN020SC;EQDQ01+000003PRSWM1Q02    003PRSWM1
0235477160999992000011301404+36030+140200FM-16+0029RJAK V0202801N002610036019N0040001N1+00501+00501999999ADDGA1021+001809999GA2071+003609999GA3081+006009999GF108991999999999999999999MA1101021999999MW1101REMMET093RJAK 130140Z 28005KT 4000 BR SCT006 BKN012 OVC020 05/05 Q1010 RMK 3ST006 5ST012 8SC020 A2984;EQDQ01+000003PRSWM1Q02    003PRSWM1
0243477160999992000011302004+36030+140200FM-15+0029RJAK V0202901N003110036019N0038001N1+00501+00501999999ADDGA1021+001809999GA2071+003609999GA3081+006009999GF108991999999999999999999MA1101021999999MW1101MW2611REMMET095RJAK 0200Z 29006KT 3800 -RA BR SCT006 BKN012 OVC020 05/05 Q1010 RMK 3ST006 6ST012 8SC020 A2983;EQDQ01+000003PRSWM1Q02    003PRSWM1
0243477160999992000011304004+36030+140200FM-15+0029RJAK V0202701N001010036019N0020001N1+00701+00701999999ADDGA1021+001809999GA2071+003609999GA3081+006009999GF108991999999999999999999MA1100711999999MW1101MW2611REMMET095RJAK 0400Z 27002KT 2000 -RA BR SCT006 BKN012 OVC020 07/07 Q1007 RMK 4ST006 5ST012 8SC020 A2975;EQDQ01+000003PRSWM1Q02    003PRSWM1
0233477160999992000011305004+36030+140200FM-15+0029RJAK V0202901N001510036019N0020001N1+00801+00801999999ADDGA1021+001809999GA2071+003609999GA3081+006009999GF108991999999999999999999MA1100611999999MW1101REMMET091RJAK 0500Z 29003KT 2000 BR SCT006 BKN012 OVC020 08/08 Q1006 RMK 4ST006 6ST012 8SC020 A2973;EQDQ01+000003PRSWM1Q02    003PRSWM1
0273477160999992000011306004+36030+140200FM-15+0029RJAK V0202901N001010036019N0025001N1+00801+00801999999ADDGA1021+001809999GA2071+003609999GA3081+006009999GF108991999999999999999999MA1100611999999MW1101REMMET131RJAK 0600Z 29002KT 2500 BR SCT006 BKN012 OVC020 08/08 Q1006 RMK 3ST006 5ST012 8SC020 A2973 FCST 0615 TEMPO 0810 -RA BECMG 1012 -RA;EQDQ01+000003PRSWM1Q02    003PRSWM1
0255477160999992000011306264+36030+140200FM-16+0029RJAK V0202901N000510030019N0025001N1+00901+00801999999ADDGA1021+001809999GA2071+003009999GA3081+006009999GF108991999999999999999999MA1100611999999MW1611REMMET097RJAK 130626Z 29001KT 2500 -RA BR SCT006 BKN010 OVC020 09/08 Q1006 RMK 3ST006 6ST010 8SC020 A2973;EQDQ01+000100PRSWM3Q02+000003PRSWM1Q03    003PRSWM1
0243477160999992000011307004+36030+140200FM-15+0029RJAK V0200101N001010030019N0025001N1+00801+00801999999ADDGA1021+001809999GA2071+003009999GA3081+006009999GF108991999999999999999999MA1100611999999MW1101MW2611REMMET095RJAK 0700Z 01002KT 2500 -RA BR SCT006 BKN010 OVC020 08/08 Q1006 RMK 3ST006 6ST010 8SC020 A2972;EQDQ01+000003PRSWM1Q02    003PRSWM1
0259477160999992000011308004+36030+140200FM-15+0029RJAK V0203201N001010030019N0018001N1+00801+00801999999ADDGA1021+001809999GA2071+003009999GA3081+006009999GF108991999999999999999999MA1100611999999MW1101MW2611REMMET111RJAK 0800Z 32002KT 1800 -RA BR SCT006 BKN010 OVC020 08/08 Q1006 RMK 4ST006 6ST010 8SC020 A2972 FCST 0817 NOSIG;EQDQ01+000003PRSWM1Q02    003PRSWM1
0271477160999992000011323004+36030+140200FM-15+0029RJAK V0202801N000510090019N0045001N1+00801+00801999999ADDGA1021+001809999GA2071+009009999GF107991999999999999999999MA1100611999999MW1101REMMET145RJAK 2300Z 28001KT 4500 BR SCT006 BKN030 08/08 Q1006 RMK 3ST006 5SC030 A2971 FCST 2308 BECMG 2300 6000 NSW FEW006ST SCT030CU TEMPO 0308 BKN030CU;EQDQ01+000003PRSWM1Q02    003PRSWM1
0218477160999992000011400004+36030+140200FM-15+0029RJAK V0202801N002612200019N0050001N1+00901+00901999999ADDGA1021+006009999GF102991999999999999999999MA1100711999999MW1101REMMET108RJAK 0000Z 28005KT 5000 BR FEW020 09/09 Q1007 RMK 1CU020 A2974 FCST 0009 BECMG 0001 NSW TEMPO 0308 BKN030CU;EQDQ01+000003PRSWM1Q02    003PRSWM1
0175477160999992000011400064+36030+140200FM-16+0029RJAK V0202701N003110024019N0016001N1+00901+00901999999ADDGA1071+002409999GF107991999999999999999999MA1100711999999MW1101REMMET065RJAK 140006Z 27006KT 1600 BR BKN008 09/09 Q1007 RMK 7ST008 A2975;EQDQ01+000003PRSWM1Q02    003PRSWM1
0203477160999992000011401004+36030+140200FM-15+0029RJAK V0202801N002610024019N0016001N1+00901+00901999999ADDGA1021+000909999GA2071+002409999GF107991999999999999999999MA1100811999999MW1101REMMET077RJAK 0100Z 28005KT 1600 BR SCT003 BKN008 09/09 Q1008 RMK 3ST003 6ST008 A2976;EQDQ01+000003PRSWM1Q02    003PRSWM1
0203477160999992000011402004+36030+140200FM-15+0029RJAK V0202701N003612200019N0030001N1+01101+00901999999ADDGA1021+001209999GA2021+002709999GF104991999999999999999999MA1100811999999MW1101REMMET077RJAK 0200Z 27007KT 3000 BR FEW004 SCT009 11/09 Q1008 RMK 2ST004 4ST009 A2977;EQDQ01+000003PRSWM1Q02    003PRSWM1
0205477160999992000011402234+36030+140200FM-16+0029RJAK V0202801N003112200019N0050001N1+01201+00901999999ADDGA1021+002409999GA2021+003609999GF104991999999999999999999MA1100811999999MW1101REMMET079RJAK 140223Z 28006KT 5000 BR FEW008 SCT012 12/09 Q1008 RMK 1ST008 3ST012 A2976;EQDQ01+000003PRSWM1Q02    003PRSWM1
0203477160999992000011403004+36030+140200FM-15+0029RJAK V0203101N002112200019N0050001N1+01301+01001999999ADDGA1021+004509999GF102991999999999999999999MA1100711999999MW1101REMMET093RJAK 0300Z 31004KT 5000 BR FEW015 13/10 Q1007 RMK 1CU015 A2976 FCST 0312 BECMG 0304 6000 NSW;EQDQ01+000003PRSWM1Q02    003PRSWM1
0154477160999992000011404004+36030+140200FM-15+0029RJAK V0202701N002612200019N0112651N1+01601+00501999999ADDGA1021+006009999GF102991999999999999999999MA1100711999999MW1001REMMET060RJAK 0400Z 27005KT 9999 FEW020 16/05 Q1007 RMK 1CU020 A2975;EQDQ01+000000PRSWM2
0154477160999992000011405004+36030+140200FM-15+0029RJAK V0203101N004112200019N0112651N1+01601+00201999999ADDGA1021+006009999GF102991999999999999999999MA1100811999999MW1001REMMET060RJAK 0500Z 31008KT 9999 FEW020 16/02 Q1008 RMK 1CU020 A2977;EQDQ01+000000PRSWM2
0179477160999992000011406004+36030+140200FM-15+0029RJAK V0203301N004112200019N0112651N1+01601-00101999999ADDGA1021+007509999GF102991999999999999999999MA1100811999999MW1001REMMET085RJAK 0600Z 33008KT 260V010 9999 FEW025 16/M01 Q1008 RMK 1CU025 A2977 FCST 0615 NOSIG;EQDQ01+000000PRSWM2
0155477160999992000011407004+36030+140200FM-15+0029RJAK V0203501N002612200019N0112651N1+01501-00101999999ADDGA1021+069009999GF102991999999999999999999MA1100911999999MW1001REMMET061RJAK 0700Z 35005KT 9999 FEW230 15/M01 Q1009 RMK 2CI230 A2979;EQDQ01+000000PRSWM2
0171477160999992000011408004+36030+140200FM-15+0029RJAK V0203201N002112200019N0112651N1+01401-00201999999ADDGA1021+007509999GF102991999999999999999999MA1101021999999MW1001REMMET077RJAK 0800Z 32004KT 9999 FEW025 14/M02 Q1010 RMK 1CU025 A2983 FCST 0817 NOSIG;EQDQ01+000000PRSWM2
0212477160999992000011622004+36030+140200FM-15+0029RJAK V0200101N002610030019N0040001N1+00401+00401999999ADDGA1071+003009999GA2081+006009999GF108991999999999999999999MA1101591999999MW1101MW2631REMMET080RJAK 2200Z 01005KT 4000 RA BR BKN010 OVC020 04/04 Q1016 RMK 5ST010 8SC020 A3000;EQDQ01+000003PRSWM1Q02    003PRSWM1
0239477160999992000011623004+36030+140200FM-15+0029RJAK V0200101N003610024019N0050001N1+00401+00301999999ADDGA1071+002409999GA2081+006009999GF108991999999999999999999MA1101591999999MW1101MW2611REMMET107RJAK 2300Z 01007KT 5000 -RA BR BKN008 OVC020 04/03 Q1016 RMK 5ST008 8SC020 A3000 FCST 2308 BECMG 2300 4000;EQDQ01+000003PRSWM1Q02    003PRSWM1
0335477160999992000011703004+36030+140200FM-15+0029RJAK V0200101N003110300019N0112651N1+00501+00401999999ADDGA1021+003609999GA2021+012009999GA3071+030009999GF107991999999999999999999MA1101391999999MW1611REMMET193RJAK 0300Z 01006KT 9999 -RA FEW012 SCT040 BKN100 05/04 Q1014 RMK 1CU012 3SC040 7AC100 A2995 FCST 0312 BECMG 0304 NSW TEMPO 0308 SCT012SC BKN030SC OVC100AC TEMPO 0812 SCT008ST BKN009ST OVC020SC;EQDQ01+000003PRSWM1Q02    003PRSWM1
0206477160999992000011703214+36030+140200FM-16+0029RJAK V0200201N004612200019N0112651N1+00601+00401999999ADDGA1021+003609999GA2021+030009999GF104991999999999999999999MA1101291999999MW1611REMMET080RJAK 170321Z 02009KT 9999 -RA SCT012 SCT100 06/04 Q1013 RMK 3CU012 3AC100 A2992;EQDQ01+000003PRSWM1Q02    003PRSWM1
0186477160999992000011703354+36030+140200FM-16+0029RJAK V0200201N004112200019N0112651N1+00701+00401999999ADDGA1021+004209999GA2021+030009999GF104991999999999999999999MA1101291999999MW1001REMMET076RJAK 170335Z 02008KT 9999 SCT014 SCT100 07/04 Q1013 RMK 3CU014 4AC100 A2991;EQDQ01+000000PRSWM2
0184477160999992000011704004+36030+140200FM-15+0029RJAK V0200201N003612200019N0112651N1+00701+00501999999ADDGA1021+004509999GA2021+030009999GF104991999999999999999999MA1101291999999MW1001REMMET074RJAK 0400Z 02007KT 9999 SCT015 SCT100 07/05 Q1013 RMK 4CU015 3AC100 A2991;EQDQ01+000000PRSWM2
0186477160999992000011704094+36030+140200FM-16+0029RJAK V0200301N004110060019N0112651N1+00701+00401999999ADDGA1021+004509999GA2071+006009999GF107991999999999999999999MA1101191999999MW1001REMMET076RJAK 170409Z 03008KT 9999 FEW015 BKN020 07/04 Q1012 RMK 2CU015 5CU020 A2990;EQDQ01+000000PRSWM2
0214477160999992000011705004+36030+140200FM-15+0029RJAK V0200401N004610060019N0112651N1+00801+00401999999ADDGA1021+004509999GA2071+006009999GA3081+012009999GF108991999999999999999999MA1101191999999MW1001REMMET088RJAK 0500Z 04009KT 9999 FEW015 BKN020 OVC040 08/04 Q1012 RMK 2CU015 5CU020 8SC040 A2989;EQDQ01+000000PRSWM2
0253477160999992000011706004+36030+140200FM-15+0029RJAK V0200301N003110075019N0112651N1+00801+00401999999ADDGA1021+006009999GA2071+007509999GA3081+012009999GF108991999999999999999999MA1101191999999MW1001REMMET127RJAK 0600Z 03006KT 9999 SCT020 BKN025 OVC040 08/04 Q1012 RMK 3CU020 5CU025 8SC040 A2989 FCST 0615 TEMPO 0815 BKN009ST OVC020SC;EQDQ01+000000PRSWM2
0214477160999992000011707004+36030+140200FM-15+0029RJAK V0200201N002110120019N0112651N1+00801+00401999999ADDGA1021+006009999GA2021+007509999GA3081+012009999GF108991999999999999999999MA1101291999999MW1001REMMET088RJAK 0700Z 02004KT 9999 FEW020 SCT025 OVC040 08/04 Q1013 RMK 1CU020 3CU025 8SC040 A2991;EQDQ01+000000PRSWM2
0154477160999992000011722004+36030+140200FM-15+0029RJAK V0209999C000012200019N0112651N1+00301+00001999999ADDGA1021+006009999GF102991999999999999999999MA1101191999999MW1001REMMET060RJAK 2200Z 00000KT 9999 FEW020 03/00 Q1012 RMK 1CU020 A2990;EQDQ01+000000PRSWM2
0170477160999992000011723004+36030+140200FM-15+0029RJAK V0209999C000012200019N0112651N1+00301+00101999999ADDGA1021+006009999GF102991999999999999999999MA1101291999999MW1001REMMET076RJAK 2300Z 00000KT 9999 FEW020 03/01 Q1013 RMK 1CU020 A2991 FCST 2308 NOSIG;EQDQ01+000000PRSWM2
0170477160999992000011800004+36030+140200FM-15+0029RJAK V0200401N002612200019N0112651N1+00601+00001999999ADDGA1021+006009999GF102991999999999999999999MA1101391999999MW1001REMMET076RJAK 0000Z 04005KT 9999 FEW020 06/00 Q1014 RMK 1CU020 A2994 FCST 0009 NOSIG;EQDQ01+000000PRSWM2
0154477160999992000011801004+36030+140200FM-15+0029RJAK V0200501N004612200019N0112651N1+00701+00001999999ADDGA1021+006009999GF102991999999999999999999MA1101391999999MW1001REMMET060RJAK 0100Z 05009KT 9999 FEW020 07/00 Q1014 RMK 1CU020 A2994;EQDQ01+000000PRSWM2
0154477160999992000011802004+36030+140200FM-15+0029RJAK V0200801N004612200019N0112651N1+00901+00101999999ADDGA1021+007509999GF102991999999999999999999MA1101291999999MW1001REMMET060RJAK 0200Z 08009KT 9999 FEW025 09/01 Q1013 RMK 1CU025 A2993;EQDQ01+000000PRSWM2
0170477160999992000011803004+36030+140200FM-15+0029RJAK V0200901N004612200019N0112651N1+00901+00101999999ADDGA1021+007509999GF104991999999999999999999MA1101191999999MW1001REMMET076RJAK 0300Z 09009KT 9999 SCT025 09/01 Q1012 RMK 3CU025 A2990 FCST 0312 NOSIG;EQDQ01+000000PRSWM2
0154477160999992000011804004+36030+140200FM-15+0029RJAK V0200901N003112200019N0112651N1+00901+00001999999ADDGA1021+007509999GF104991999999999999999999MA1101081999999MW1001REMMET060RJAK 0400Z 09006KT 9999 SCT025 09/00 Q1011 RMK 3CU025 A2988;EQDQ01+000000PRSWM2
0154477160999992000011805004+36030+140200FM-15+0029RJAK V0201001N002612200019N0112651N1+01001+00001999999ADDGA1021+009009999GF104991999999999999999999MA1101081999999MW1001REMMET060RJAK 0500Z 10005KT 9999 SCT030 10/00 Q1011 RMK 3CU030 A2987;EQDQ01+000000PRSWM2
0170477160999992000011806004+36030+140200FM-15+0029RJAK V0201401N002112200019N0112651N1+01001+00101999999ADDGA1021+009009999GF102991999999999999999999MA1101081999999MW1001REMMET076RJAK 0600Z 14004KT 9999 FEW030 10/01 Q1011 RMK 2CU030 A2988 FCST 0615 NOSIG;EQDQ01+000000PRSWM2
0154477160999992000011807004+36030+140200FM-15+0029RJAK V0200801N005112200019N0112651N1+00801+00101999999ADDGA1021+009009999GF102991999999999999999999MA1101191999999MW1001REMMET060RJAK 0700Z 08010KT 9999 FEW030 08/01 Q1012 RMK 1CU030 A2989;EQDQ01+000000PRSWM2
0170477160999992000011808004+36030+140200FM-15+0029RJAK V0200901N003612200019N0112651N1+00701+00201999999ADDGA1021+009009999GF102991999999999999999999MA1101191999999MW1001REMMET076RJAK 0800Z 09007KT 9999 FEW030 07/02 Q1012 RMK 1CU030 A2991 FCST 0817 NOSIG;EQDQ01+000000PRSWM2
0185477160999992000011822004+36030+140200FM-15+0029RJAK V0200301N003110135019N0112651N1+00401-00301999999ADDGA1071+013509999GA2071+030009999GF107991999999999999999999MA1101491999999MW1001REMMET075RJAK 2200Z 03006KT 9999 BKN045 BKN100 04/M03 Q1015 RMK 6SC045 5AC100 A2998;EQDQ01+000000PRSWM2
0288477160999992000011823004+36030+140200FM-15+0029RJAK V0200301N00261220001CN0112651N1+00501-00201999999ADDGA1071+013509999GA2021+030009999MA1101491999999MW1001REMMET188RJAK 2300Z 03005KT 9999 BKN045 SCT100 05/M02 Q1015 RMK 6SC045 4AC100 A2999 FCST 2308 BECMG 0304 FEW020SC BKN030SC OVC100AS TEMPO 0307 -RA TEMPO 0708 3000 -RA BR SCT008ST BKN009ST OVC020SC;EQDQ01+000042SCOTCVQ02+000000PRSWM2
0328477160999992000011900004+36030+140200FM-15+0029RJAK V0200201N002610135019N0112651N1+00501-00201999999ADDGA1021+009009999GA2071+013509999GA3071+024009999GF107991999999999999999999MA1101491999999MW1001REMMET202RJAK 0000Z 02005KT 9999 FEW030 BKN045 BKN080 05/M02 Q1015 RMK 1CU030 5SC045 5AC080 A2999 FCST 0009 BECMG 0304 FEW020SC BKN030SC OVC100AS TEMPO 0307 -RA TEMPO 0709 3000 -RA BR SCT008ST BKN009ST OVC020SC;EQDQ01+000000PRSWM2
0215477160999992000011901004+36030+140200FM-15+0029RJAK V0200201N003610090019N0112651N1+00601-00101999999ADDGA1071+009009999GA2071+024009999GA3071+060009999GF107991999999999999999999MA1101591999999MW1001REMMET089RJAK 0100Z 02007KT 9999 BKN030 BKN080 BKN200 06/M01 Q1016 RMK 6SC030 6AC080 7CS200 A3000;EQDQ01+000000PRSWM2
0215477160999992000011902004+36030+140200FM-15+0029RJAK V0200301N003110090019N0112651N1+00701-00101999999ADDGA1021+006009999GA2071+009009999GA3071+024009999GF107991999999999999999999MA1101491999999MW1001REMMET089RJAK 0200Z 03006KT 9999 FEW020 BKN030 BKN080 07/M01 Q1015 RMK 2CU020 5SC030 6AC080 A2999;EQDQ01+000000PRSWM2
0290477160999992000011903004+36030+140200FM-15+0029RJAK V0200401N002610090019N0112651N1+00701-00101999999ADDGA1021+006009999GA2071+009009999GA3071+024009999GF107991999999999999999999MA1101391999999MW1001REMMET164RJAK 0300Z 04005KT 9999 FEW020 BKN030 BKN080 07/M01 Q1014 RMK 1CU020 6SC030 7AC080 A2996 FCST 0312 BECMG 0304 -RA TEMPO 0712 3000 -RA BR SCT008ST BKN009ST OVC020SC;EQDQ01+000000PRSWM2
0237477160999992000011903274+36030+140200FM-16+0029RJAK V0200601N002110090019N0112651N1+00701-00101999999ADDGA1021+006009999GA2071+009009999GA3071+024009999GF107991999999999999999999MA1101391999999MW1611REMMET095RJAK 190327Z 06004KT 9999 -RA FEW020 BKN030 BKN080 07/M01 Q1014 RMK 1CU020 6SC030 7AC080 A2995;EQDQ01+000003PRSWM1Q02    003PRSWM1
0234477160999992000011904004+36030+140200FM-15+0029RJAK V0201401N003110090019N0112651N1+00601+00201999999ADDGA1021+006009999GA2071+009009999GA3081+024009999GF108991999999999999999999MA1101391999999MW1611REMMET092RJAK 0400Z 14006KT 9999 -RA SCT020 BKN030 OVC080 06/02 Q1014 RMK 3CU020 7SC030 8AC080 A2995;EQDQ01+000003PRSWM1Q02    003PRSWM1
0234477160999992000011905004+36030+140200FM-15+0029RJAK V0200501N002110105019N0090001N1+00501+00301999999ADDGA1021+007509999GA2071+010509999GA3081+024009999GF108991999999999999999999MA1101291999999MW1611REMMET092RJAK 0500Z 05004KT 9000 -RA FEW025 BKN035 OVC080 05/03 Q1013 RMK 2CU025 6SC035 8AC080 A2994;EQDQ01+000003PRSWM1Q02    003PRSWM1
0332477160999992000011906004+36030+140200FM-15+0029RJAK V0200401N002610105019N0080001N1+00501+00301999999ADDGA1021+007509999GA2071+010509999GA3081+018009999GF108991999999999999999999MA1101291999999MW1611REMMET190RJAK 0600Z 04005KT 8000 -RA FEW025 BKN035 OVC060 05/03 Q1013 RMK 1CU025 5SC035 8SC060 A2993 FCST 0615 BECMG 0607 SCT025CU BKN030SC OVC040SC TEMPO 0715 3000 -RA BR SCT008ST BKN009ST OVC020SC;EQDQ01+000003PRSWM1Q02    003PRSWM1
0243477160999992000011907004+36030+140200FM-15+0029RJAK V0200401N002610090019N0050001N1+00401+00401999999ADDGA1021+004509999GA2071+009009999GA3081+018009999GF108991999999999999999999MA1101291999999MW1101MW2611REMMET095RJAK 0700Z 04005KT 5000 -RA BR FEW015 BKN030 OVC060 04/04 Q1013 RMK 1ST015 5SC030 8SC060 A2993;EQDQ01+000003PRSWM1Q02    003PRSWM1
0333477160999992000011908004+36030+140200FM-15+0029RJAK V0200401N002610090019N0050001N1+00401+00401999999ADDGA1021+004509999GA2071+009009999GA3081+018009999GF108991999999999999999999MA1101291999999MW1101MW2611REMMET185RJAK 0800Z 04005KT 5000 -RA BR FEW015 BKN030 OVC060 04/04 Q1013 RMK 1ST015 5SC030 8SC060 A2992 FCST 0817 TEMPO 0815 3000 SCT008ST BKN009ST OVC020SC TEMPO 1517 2000 SN BKN005ST OVC010ST;EQDQ01+000003PRSWM1Q02    003PRSWM1
0173477160999992000011922004+36030+140200FM-15+0029RJAK V0202701N001512200019N0030001N1+00201+00101999999ADDGA1021+007509999GF102991999999999999999999MA1100811999999MW1101REMMET063RJAK 2200Z 27003KT 3000 BR FEW025 02/01 Q1008 RMK 1CU025 A2978;EQDQ01+000003PRSWM1Q02    003PRSWM1
0220477160999992000011923004+36030+140200FM-15+0029RJAK V0202901N001512200019N0045001N1+00301+00201999999ADDGA1021+007509999GF102991999999999999999999MA1100911999999MW1101REMMET110RJAK 2300Z 29003KT 4500 BR FEW025 03/02 Q1009 RMK 1CU025 A2979 FCST 2308 BECMG 2300 NSW TEMPO 0608 29015G25KT;EQDQ01+000003PRSWM1Q02    003PRSWM1
0194477160999992000012000004+36030+140200FM-15+0029RJAK V0202901N002112200019N0040001N1+00501+00201999999ADDGF100991999999999999999999MA1100911999999MW1101REMMET100RJAK 0000Z 29004KT 4000 BR SKC 05/02 Q1009 RMK A2981 FCST 0009 BECMG 0001 NSW TEMPO 0608 29015G25KT;EQDQ01+000003PRSWM1Q02    003PRSWM1
0147477160999992000012001004+36030+140200FM-15+0029RJAK V0202901N001512200019N0045001N1+00601+00201999999ADDGF100991999999999999999999MA1100911999999MW1101REMMET053RJAK 0100Z 29003KT 4500 BR SKC 06/02 Q1009 RMK A2981;EQDQ01+000003PRSWM1Q02    003PRSWM1
0146477160999992000012001154+36030+140200FM-16+0029RJAK V0202701N002112200019N9999999N1+00701+00101999999ADDGF100991999999999999999999MA1100911999999MW1001REMMET052RJAK 200115Z 27004KT 6000 SKC 07/01 Q1009 RMK A2981;EQDQ01+060002VODIS Q02+000000PRSWM2
0144477160999992000012002004+36030+140200FM-15+0029RJAK V0202601N002612200019N0112651N1+00801+00001999999ADDGF100991999999999999999999MA1100911999999MW1001REMMET050RJAK 0200Z 26005KT 7000 SKC 08/00 Q1009 RMK A2980;EQDQ01+070002VODIS Q02+000000PRSWM2
0161477160999992000012003004+36030+140200FM-15+0029RJAK V0202701N004112200019N0112651N1+00901-00201999999ADDGF100991999999999999999999MA1100811999999MW1001REMMET083RJAK 0300Z 27008KT 9999 SKC 09/M02 Q1008 RMK A2977 FCST 0312 TEMPO 0308 29015G25KT;EQDQ01+000000PRSWM2
0155477160999992000012004004+36030+140200FM-15+0029RJAK V0202701N004612200019N0112651N1+01201-00301999999ADDGA1021+009009999GF102991999999999999999999MA1100711999999MW1001REMMET061RJAK 0400Z 27009KT 9999 FEW030 12/M03 Q1007 RMK 1CU030 A2974;EQDQ01+000000PRSWM2
0155477160999992000012005004+36030+140200FM-15+0029RJAK V0202901N004612200019N0112651N1+01201-00801999999ADDGA1021+009009999GF102991999999999999999999MA1100611999999MW1001REMMET061RJAK 0500Z 29009KT 9999 FEW030 12/M08 Q1006 RMK 1CU030 A2973;EQDQ01+000000PRSWM2
0168477160999992000012005204+36030+140200FM-15+0029RJAK V0202701N005112200019N0112651N1+01201-00901999999ADDGA1021+009009999GF102991999999999999999999MA1100611999999MW1001OC101031REMMET066RJAK 200520Z 27010G20KT 9999 FEW030 12/M09 Q1006 RMK 1CU030 A2973;EQDQ01+000000PRSWM2
0195477160999992000012006004+36030+140200FM-15+0029RJAK V0202901N005712200019N0112651N1+01201-00901999999ADDGA1021+009009999GF102991999999999999999999MA1100611999999MW1001OC101081REMMET093RJAK 0600Z 29011G21KT 9999 FEW030 12/M09 Q1006 RMK 1CU030 A2973 FCST 0615 BECMG 0708 29008KT;EQDQ01+000000PRSWM2
0155477160999992000012007004+36030+140200FM-15+0029RJAK V0202901N004612200019N0112651N1+01001-00901999999ADDGA1021+009009999GF102991999999999999999999MA1100711999999MW1001REMMET061RJAK 0700Z 29009KT 9999 FEW030 10/M09 Q1007 RMK 1CU030 A2974;EQDQ01+000000PRSWM2
0187477160999992000012008004+36030+140200FM-15+0029RJAK V0202801N005112200019N0112651N1+00901-01001999999ADDGA1021+009009999GF102991999999999999999999MA1100711999999MW1001REMMET093RJAK 0800Z 28010KT 9999 FEW030 09/M10 Q1007 RMK 1CU030 A2975 FCST 0817 TEMPO 0809 29012G22KT;EQDQ01+000000PRSWM2
0166477160999992000012022004+36030+140200FM-15+0029RJAK V0202801N005112200019N0112651N1+00201-01001999999ADDGA1021+007509999GF102991999999999999999999MA1101801999999MW1001OC101081REMMET064RJAK 2200Z 28010G21KT 9999 FEW025 02/M10 Q1018 RMK 1SC025 A3007;EQDQ01+000000PRSWM2
0209477160999992000012023004+36030+140200FM-15+0029RJAK V0202601N004112200019N0112651N1+00201-01001999999ADDGA1021+007509999GF102991999999999999999999MA1101901999999MW1001REMMET115RJAK 2300Z 26008KT 9999 FEW025 02/M10 Q1019 RMK 1CU025 A3010 FCST 2308 BECMG 2300 29010G20KT TEMPO 0007 30025G35KT;EQDQ01+000000PRSWM2
0168477160999992000012023404+36030+140200FM-16+0029RJAK V0202701N005112200019N0112651N1+00301-01001999999ADDGA1021+007509999GF102991999999999999999999MA1102001999999MW1001OC101031REMMET066RJAK 202340Z 27010G20KT 9999 FEW025 03/M10 Q1020 RMK 1CU025 A3012;EQDQ01+000000PRSWM2
0198477160999992000012100004+36030+140200FM-15+0029RJAK V0202701N005712200019N0112651N1+00301-01001999999ADDGA1021+007509999GF102991999999999999999999MA1102001999999MW1001OC101181REMMET096RJAK 0000Z 27011G23KT 9999 FEW025 03/M10 Q1020 RMK 1CU025 A3013 FCST 0009 TEMPO 0007 30025G35KT;EQDQ01+000000PRSWM2
0166477160999992000012101004+36030+140200FM-15+0029RJAK V0202801N006712200019N0112651N1+00401-01101999999ADDGA1021+007509999GF102991999999999999999999MA1102001999999MW1001OC101341REMMET064RJAK 0100Z 28013G26KT 9999 FEW025 04/M11 Q1020 RMK 1CU025 A3013;EQDQ01+000000PRSWM2
0166477160999992000012102004+36030+140200FM-15+0029RJAK V0203001N007712200019N0112651N1+00401-01201999999ADDGA1021+007509999GF102991999999999999999999MA1102001999999MW1001OC101591REMMET064RJAK 0200Z 30015G31KT 9999 FEW025 04/M12 Q1020 RMK 1CU025 A3013;EQDQ01+000000PRSWM2
0198477160999992000012103004+36030+140200FM-15+0029RJAK V0202901N008212200019N0112651N1+00401-01301999999ADDGA1021+007509999GF102991999999999999999999MA1101901999999MW1001OC101441REMMET096RJAK 0300Z 29016G28KT 9999 FEW025 04/M13 Q1019 RMK 1CU025 A3011 FCST 0312 TEMPO 0307 29025G35KT;EQDQ01+000000PRSWM2
0166477160999992000012104004+36030+140200FM-15+0029RJAK V0202801N008212200019N0112651N1+00601-01301999999ADDGA1021+009009999GF102991999999999999999999MA1101901999999MW1001OC101491REMMET064RJAK 0400Z 28016G29KT 9999 FEW030 06/M13 Q1019 RMK 1CU030 A3010;EQDQ01+000000PRSWM2
0168477160999992000012104454+36030+140200FM-15+0029RJAK V0202901N009312200019N0112651N1+00601-01401999999ADDGA1021+009009999GF102991999999999999999999MA1101901999999MW1001OC101851REMMET066RJAK 210445Z 29018G36KT 9999 FEW030 06/M14 Q1019 RMK 1CU030 A3010;EQDQ01+000000PRSWM2
0166477160999992000012105004+36030+140200FM-15+0029RJAK V0202901N008712200019N0112651N1+00601-01401999999ADDGA1021+009009999GF102991999999999999999999MA1101901999999MW1001OC101851REMMET064RJAK 0500Z 29017G36KT 9999 FEW030 06/M14 Q1019 RMK 1CU030 A3010;EQDQ01+000000PRSWM2
0168477160999992000012105384+36030+140200FM-16+0029RJAK V0202901N008212200019N0112651N1+00501-01501999999ADDGA1021+009009999GF102991999999999999999999MA1102001999999MW1001OC101591REMMET066RJAK 210538Z 29016G31KT 9999 FEW030 05/M15 Q1020 RMK 1CU030 A3013;EQDQ01+000000PRSWM2
0182477160999992000012106004+36030+140200FM-15+0029RJAK V0202901N008712200019N0112651N1+00501-01401999999ADDGA1021+009009999GF102991999999999999999999MA1102001999999MW1001OC101541REMMET080RJAK 0600Z 29017G30KT 9999 FEW030 05/M14 Q1020 RMK 1CU030 A3013 FCST 0615 NOSIG;EQDQ01+000000PRSWM2
0166477160999992000012107004+36030+140200FM-15+0029RJAK V0203101N005712200019N0112651N1+00401-01301999999ADDGA1021+009009999GF102991999999999999999999MA1102101999999MW1001OC101181REMMET064RJAK 0700Z 31011G23KT 9999 FEW030 04/M13 Q1021 RMK 1CU030 A3016;EQDQ01+000000PRSWM2
0182477160999992000012108004+36030+140200FM-15+0029RJAK V0203001N005712200019N0112651N1+00301-01301999999ADDGA1021+007509999GF102991999999999999999999MA1102201999999MW1001OC101131REMMET080RJAK 0800Z 30011G22KT 9999 FEW025 03/M13 Q1022 RMK 1CU025 A3019 FCST 0817 NOSIG;EQDQ01+000000PRSWM2
0184477160999992000012322004+36030+140200FM-15+0029RJAK V0203001N001010150019N0112651N1+00201+00001999999ADDGA1071+015009999GA2081+030009999GF108991999999999999999999MA1101691999999MW1001REMMET074RJAK 2200Z 30002KT 9999 BKN050 OVC100 02/00 Q1017 RMK 6SC050 8AC100 A3004;EQDQ01+000000PRSWM2
0205477160999992000012322084+36030+140200FM-16+0029RJAK V0202901N002110135019N0040001N1+00201+00001999999ADDGA1071+013509999GA2071+030009999GF107991999999999999999999MA1101691999999MW1101REMMET079RJAK 232208Z 29004KT 4000 BR BKN045 BKN100 02/00 Q1017 RMK 6SC045 5AC100 A3004;EQDQ01+000003PRSWM1Q02    003PRSWM1
0229477160999992000012323004+36030+140200FM-15+0029RJAK V0209999C000010135019N0045001N1+00301+00001999999ADDGA1071+013509999GA2071+030009999GF107991999999999999999999MA1101691999999MW1101REMMET103RJAK 2300Z 00000KT 4500 BR BKN045 BKN100 03/00 Q1017 RMK 7SC045 5AC100 A3004 FCST 2308 BECMG 0204 5000;EQDQ01+000003PRSWM1Q02    003PRSWM1
0249477160999992000012400004+36030+140200FM-15+0029RJAK V0201501N001510135019N0030001N1+00301+00101999999ADDGA1071+013509999GA2071+030009999GF107991999999999999999999MA1101801999999MW1101REMMET123RJAK 0000Z 15003KT 3000 BR BKN045 BKN100 03/01 Q1018 RMK 6SC045 7AC100 A3006 FCST 0009 BECMG 0204 5000 TEMPO 0206 BKN030SC;EQDQ01+000003PRSWM1Q02    003PRSWM1
0205477160999992000012400324+36030+140200FM-16+0029RJAK V02099999999990135019N0050001N1+00301+00001999999ADDGA1071+013509999GA2071+030009999GF107991999999999999999999MA1101801999999MW1101REMMET079RJAK 240032Z VRB01KT 5000 BR BKN045 BKN100 03/00 Q1018 RMK 6SC045 7AC100 A3007;EQDQ01+000003PRSWM1Q02    003PRSWM1
0184477160999992000012401004+36030+140200FM-15+0029RJAK V02099999999990300019N0060001N1+00701+00301999999ADDGA1021+013509999GA2071+030009999GF107991999999999999999999MA1101801999999MW1001REMMET074RJAK 0100Z VRB01KT 6000 SCT045 BKN100 07/03 Q1018 RMK 4SC045 7AC100 A3006;EQDQ01+000000PRSWM2
0214477160999992000012402004+36030+140200FM-15+0029RJAK V0200501N005110300019N0090001N1+01001+00601999999ADDGA1021+007509999GA2021+013509999GA3071+030009999GF107991999999999999999999MA1101801999999MW1001REMMET088RJAK 0200Z 05010KT 9000 FEW025 SCT045 BKN100 10/06 Q1018 RMK 1CU025 3SC045 7AC100 A3006;EQDQ01+000000PRSWM2
0190477160999992000012403004+36030+140200FM-15+0029RJAK V0200701N00511220001CN0112651N1+01001+00601999999ADDGA1071+007509999GA2021+013509999MA1101691999999MW1001REMMET090RJAK 0300Z 07010KT 9999 BKN025 SCT045 10/06 Q1017 RMK 5CU025 3SC045 A3005 FCST 0312 NOSIG;EQDQ01+000042SCOTCVQ02+000000PRSWM2
0214477160999992000012404004+36030+140200FM-15+0029RJAK V0200801N004610300019N0112651N1+01101+00501999999ADDGA1021+007509999GA2021+013509999GA3071+030009999GF107991999999999999999999MA1101591999999MW1001REMMET088RJAK 0400Z 08009KT 9999 SCT025 SCT045 BKN100 11/05 Q1016 RMK 4CU025 3SC045 5AC100 A3001;EQDQ01+000000PRSWM2
0214477160999992000012405004+36030+140200FM-15+0029RJAK V0201001N004610630019N0112651N1+01101+00501999999ADDGA1021+009009999GA2021+030009999GA3071+063009999GF107991999999999999999999MA1101491999999MW1001REMMET088RJAK 0500Z 10009KT 9999 FEW030 SCT100 BKN210 11/05 Q1015 RMK 1CU030 3AC100 7CI210 A2999;EQDQ01+000000PRSWM2
0216477160999992000012405334+36030+140200FM-16+0029RJAK V0201001N004110300019N0112651N1+01001+00501999999ADDGA1021+012009999GA2071+030009999GA3071+063009999GF107991999999999999999999MA1101491999999MW1001REMMET090RJAK 240533Z 10008KT 9999 FEW040 BKN100 BKN210 10/05 Q1015 RMK 2SC040 5AC100 7CI210 A2999;EQDQ01+000000PRSWM2
0230477160999992000012406004+36030+140200FM-15+0029RJAK V0201001N004110300019N0112651N1+01001+00501999999ADDGA1021+012009999GA2071+030009999GA3071+063009999GF107991999999999999999999MA1101491999999MW1001REMMET104RJAK 0600Z 10008KT 9999 FEW040 BKN100 BKN210 10/05 Q1015 RMK 2SC040 6AC100 7CI210 A2999 FCST 0615 NOSIG;EQDQ01+000000PRSWM2
0214477160999992000012407004+36030+140200FM-15+0029RJAK V0200801N003610300019N0112651N1+00901+00501999999ADDGA1021+012009999GA2071+030009999GA3071+063009999GF107991999999999999999999MA1101591999999MW1001REMMET088RJAK 0700Z 08007KT 9999 FEW040 BKN100 BKN210 09/05 Q1016 RMK 2SC040 6AC100 7CI210 A3000;EQDQ01+000000PRSWM2
0230477160999992000012408004+36030+140200FM-15+0029RJAK V0200701N002610300019N0112651N1+00801+00501999999ADDGA1021+012009999GA2071+030009999GA3071+063009999GF107991999999999999999999MA1101591999999MW1001REMMET104RJAK 0800Z 07005KT 9999 FEW040 BKN100 BKN210 08/05 Q1016 RMK 2SC040 5AC100 6CI210 A3000 FCST 0817 NOSIG;EQDQ01+000000PRSWM2
0235477160999992000012422004+36030+140200FM-15+0029RJAK V0201101N001510135019N0112651N1+00301-00101999999ADDGA1021+009009999GA2071+013509999GA3081+030009999GF108991999999999999999999MA1101591999999MW1611REMMET093RJAK 2200Z 11003KT 9999 -RA SCT030 BKN045 OVC100 03/M01 Q1016 RMK 3SC030 5SC045 8AC100 A3002;EQDQ01+000003PRSWM1Q02    003PRSWM1
0268477160999992000012423004+36030+140200FM-15+0029RJAK V0201001N001510135019N0112651N1+00301+00001999999ADDGA1021+009009999GA2071+013509999GA3081+030009999GF108991999999999999999999MA1101691999999MW1001REMMET142RJAK 2300Z 10003KT 9999 FEW030 BKN045 OVC100 03/M00 Q1017 RMK 2SC030 5SC045 8AC100 A3004 FCST 2308 TEMPO 0206 BR BECMG 0608 BKN100AC BKN200CI;EQDQ01+000000PRSWM2
0254477160999992000012500004+36030+140200FM-15+0029RJAK V0200801N001510300019N0112651N1+00401-00201999999ADDGA1021+009009999GA2021+013509999GA3081+030009999GF108991999999999999999999MA1101691999999MW1001REMMET128RJAK 0000Z 08003KT 9999 FEW030 SCT045 OVC100 04/M02 Q1017 RMK 1SC030 4SC045 8AC100 A3003 FCST 0009 TEMPO 0106 BKN045SC OVC100AC;EQDQ01+000000PRSWM2
0215477160999992000012501004+36030+140200FM-15+0029RJAK V0200401N003110135019N0112651N1+00401-00501999999ADDGA1021+009009999GA2071+013509999GA3081+030009999GF108991999999999999999999MA1101691999999MW1001REMMET089RJAK 0100Z 04006KT 9999 FEW030 BKN045 OVC100 04/M05 Q1017 RMK 1SC030 5SC045 8AC100 A3003;EQDQ01+000000PRSWM2
0215477160999992000012502004+36030+140200FM-15+0029RJAK V0200101N001510135019N0112651N1+00401-00501999999ADDGA1021+009009999GA2071+013509999GA3081+030009999GF108991999999999999999999MA1101591999999MW1001REMMET089RJAK 0200Z 01003KT 9999 FEW030 BKN045 OVC100 04/M05 Q1016 RMK 1SC030 5SC045 8AC100 A3002;EQDQ01+000000PRSWM2
0266477160999992000012502104+36030+140200FM-16+0029RJAK V0200501N001010135019N0112651N1+00401-00301999999ADDGA1021+009009999GA2071+013509999GA3081+030009999GF108991999999999999999999MA1101591999999MW1711REMMET124RJAK 250210Z 05002KT 9999 -SN FEW030 BKN045 OVC100 04/M03 Q1016 RMK 1SC030 5SC045 8AC100 A3000 FCST AMD 0209 BECMG 0608 NSW;EQDQ01+000003PRSWM1Q02    003PRSWM1
0269477160999992000012503004+36030+140200FM-15+0029RJAK V0202301N002110135019N0112651N1+00401-00201999999ADDGA1021+009009999GA2071+013509999GA3081+030009999GF108991999999999999999999MA1101491999999MW1001REMMET143RJAK 0300Z 23004KT 9999 FEW030 BKN045 OVC100 04/M02 Q1015 RMK 1SC030 5SC045 8AC100 A2998 FCST 0312 TEMPO 0306 -SN BECMG 0608 SCT045SC BKN100AC;EQDQ01+000000PRSWM2
0215477160999992000012504004+36030+140200FM-15+0029RJAK V0200901N002610135019N0112651N1+00401-00401999999ADDGA1021+009009999GA2071+013509999GA3081+030009999GF108991999999999999999999MA1101391999999MW1001REMMET089RJAK 0400Z 09005KT 9999 FEW030 BKN045 OVC100 04/M04 Q1014 RMK 1CU030 5SC045 8AC100 A2996;EQDQ01+000000PRSWM2
0215477160999992000012505004+36030+140200FM-15+0029RJAK V0201601N002110135019N0112651N1+00401-00301999999ADDGA1021+009009999GA2071+013509999GA3081+030009999GF108991999999999999999999MA1101391999999MW1001REMMET089RJAK 0500Z 16004KT 9999 FEW030 BKN045 OVC100 04/M03 Q1014 RMK 1SC030 5SC045 8AC100 A2996;EQDQ01+000000PRSWM2
0254477160999992000012506004+36030+140200FM-15+0029RJAK V0201401N001510135019N0112651N1+00401-00401999999ADDGA1021+009009999GA2071+013509999GA3071+030009999GF107991999999999999999999MA1101391999999MW1001REMMET128RJAK 0600Z 14003KT 9999 FEW030 BKN045 BKN100 04/M04 Q1014 RMK 1SC030 5SC045 7AC100 A2997 FCST 0615 BECMG 1012 SCT045SC BKN100AC;EQDQ01+000000PRSWM2
0215477160999992000012507004+36030+140200FM-15+0029RJAK V0201701N002110135019N0112651N1+00401-00201999999ADDGA1021+009009999GA2071+013509999GA3071+030009999GF107991999999999999999999MA1101491999999MW1001REMMET089RJAK 0700Z 17004KT 9999 FEW030 BKN045 BKN100 04/M02 Q1015 RMK 1SC030 5SC045 7AC100 A2997;EQDQ01+000000PRSWM2
0231477160999992000012508004+36030+140200FM-15+0029RJAK V0201701N001510135019N0112651N1+00301-00201999999ADDGA1021+009009999GA2071+013509999GA3071+030009999GF107991999999999999999999MA1101491999999MW1001REMMET105RJAK 0800Z 17003KT 9999 FEW030 BKN045 BKN100 03/M02 Q1015 RMK 1SC030 5SC045 6AC100 A2999 FCST 0817 NOSIG;EQDQ01+000000PRSWM2
0156477160999992000012522004+36030+140200FM-15+0029RJAK V0203101N002112200019N0112651N1+00001-01001999999ADDGA1021+012009999GF102991999999999999999999MA1101691999999MW1001REMMET062RJAK 2200Z 31004KT 9999 FEW040 M00/M10 Q1017 RMK 1SC040 A3005;EQDQ01+000000PRSWM2
0172477160999992000012523004+36030+140200FM-15+0029RJAK V0202701N001512200019N0112651N1+00001-01001999999ADDGA1021+024009999GF102991999999999999999999MA1101801999999MW1001REMMET078RJAK 2300Z 27003KT 9999 FEW080 M00/M10 Q1018 RMK 1AC080 A3006 FCST 2308 NOSIG;EQDQ01+000000PRSWM2
0179477160999992000012600004+36030+140200FM-15+0029RJAK V0203101N003112200019N0112651N1+00201-01001999999ADDGA1021+012009999GF102991999999999999999999MA1101801999999MW1001REMMET085RJAK 0000Z 31006KT 260V020 9999 FEW040 02/M10 Q1018 RMK 1SC040 A3007 FCST 0009 NOSIG;EQDQ01+000000PRSWM2
0168477160999992000012600334+36030+140200FM-16+0029RJAK V0203101N004112200019N0112651N1+00401-01201999999ADDGA1021+010509999GF102991999999999999999999MA1101801999999MW1001OC100981REMMET066RJAK 260033Z 31008G19KT 9999 FEW035 04/M12 Q1018 RMK 1CU035 A3007;EQDQ01+000000PRSWM2
0163477160999992000012601004+36030+140200FM-15+0029RJAK V0203101N004112200019N0112651N1+00401-01101999999ADDGA1021+009009999GF102991999999999999999999MA1101801999999MW1001REMMET069RJAK 0100Z 31008KT 240V330 9999 FEW030 04/M11 Q1018 RMK 1CU030 A3007;EQDQ01+000000PRSWM2
0176477160999992000012601054+36030+140200FM-16+0029RJAK V0203101N004112200019N0112651N1+00401-01101999999ADDGA1021+009009999GF102991999999999999999999MA1101801999999MW1001OC101031REMMET074RJAK 260105Z 31008G20KT 240V330 9999 FEW030 04/M11 Q1018 RMK 1CU030 A3007;EQDQ01+000000PRSWM2
0166477160999992000012602004+36030+140200FM-15+0029RJAK V0203201N005712200019N0112651N1+00501-01201999999ADDGA1021+009009999GF102991999999999999999999MA1101691999999MW1001OC101081REMMET064RJAK 0200Z 32011G21KT 9999 FEW030 05/M12 Q1017 RMK 1CU030 A3005;EQDQ01+000000PRSWM2
0166477160999992000012604004+36030+140200FM-15+0029RJAK V0202901N007712200019N0112651N1+00701-01501999999ADDGA1021+009009999GF102991999999999999999999MA1101491999999MW1001OC101441REMMET064RJAK 0400Z 29015G28KT 9999 FEW030 07/M15 Q1015 RMK 1CU030 A2999;EQDQ01+000000PRSWM2
0155477160999992000012605004+36030+140200FM-15+0029RJAK V0202901N004612200019N0112651N1+00701-01401999999ADDGA1021+009009999GF102991999999999999999999MA1101491999999MW1001REMMET061RJAK 0500Z 29009KT 9999 FEW030 07/M14 Q1015 RMK 1CU030 A2998;EQDQ01+000000PRSWM2
0168477160999992000012605254+36030+140200FM-15+0029RJAK V0203201N004112200019N0112651N1+00701-01301999999ADDGA1021+009009999GF102991999999999999999999MA1101491999999MW1001OC100931REMMET066RJAK 260525Z 32008G18KT 9999 FEW030 07/M13 Q1015 RMK 1CU030 A2998;EQDQ01+000000PRSWM2
0201477160999992000012606004+36030+140200FM-15+0029RJAK V0203001N003112200019N0112651N1+00701-01301999999ADDGA1021+009009999GA2021+075009999GF104991999999999999999999MA1101491999999MW1001REMMET091RJAK 0600Z 30006KT 9999 FEW030 SCT250 07/M13 Q1015 RMK 1CU030 3CI250 A2997 FCST 0615 NOSIG;EQDQ01+000000PRSWM2
0155477160999992000012607004+36030+140200FM-15+0029RJAK V0203201N004112200019N0112651N1+00601-01301999999ADDGA1021+009009999GF102991999999999999999999MA1101491999999MW1001REMMET061RJAK 0700Z 32008KT 9999 FEW030 06/M13 Q1015 RMK 1CU030 A2998;EQDQ01+000000PRSWM2
0168477160999992000012607204+36030+140200FM-15+0029RJAK V0203201N005112200019N0112651N1+00601-01501999999ADDGA1021+009009999GF102991999999999999999999MA1101491999999MW1001OC101131REMMET066RJAK 260720Z 32010G22KT 9999 FEW030 06/M15 Q1015 RMK 1CU030 A2999;EQDQ01+000000PRSWM2
0171477160999992000012608004+36030+140200FM-15+0029RJAK V0203201N003612200019N0112651N1+00501-01501999999ADDGA1021+009009999GF102991999999999999999999MA1101591999999MW1001REMMET077RJAK 0800Z 32007KT 9999 FEW030 05/M15 Q1016 RMK 1CU030 A3000 FCST 0817 NOSIG;EQDQ01+000000PRSWM2
0186477160999992000012622004+36030+140200FM-15+0029RJAK V0203101N001012200019N0112651N1-00301-00801999999ADDGA1021+007509999GA2021+030009999GF104991999999999999999999MA1101901999999MW1001REMMET076RJAK 2200Z 31002KT 9999 FEW025 SCT100 M03/M08 Q1019 RMK 1CU025 3AC100 A3011;EQDQ01+000000PRSWM2
0202477160999992000012623004+36030+140200FM-15+0029RJAK V0203101N001512200019N0112651N1-00301-00801999999ADDGA1021+007509999GA2021+069009999GF104991999999999999999999MA1102001999999MW1001REMMET092RJAK 2300Z 31003KT 9999 FEW025 SCT230 M03/M08 Q1020 RMK 1CU025 3CI230 A3012 FCST 2308 NOSIG;EQDQ01+000000PRSWM2
0202477160999992000012700004+36030+140200FM-15+0029RJAK V0203301N001012200019N0112651N1-00101-00701999999ADDGA1021+007509999GA2021+030009999GF104991999999999999999999MA1102001999999MW1001REMMET092RJAK 0000Z 33002KT 9999 FEW025 SCT100 M01/M07 Q1020 RMK 1CU025 3AC100 A3013 FCST 0009 NOSIG;EQDQ01+000000PRSWM2
0215477160999992000012701004+36030+140200FM-15+0029RJAK V0200301N002110690019N0112651N1+00201-00801999999ADDGA1021+007509999GA2021+030009999GA3071+069009999GF107991999999999999999999MA1102001999999MW1001REMMET089RJAK 0100Z 03004KT 9999 FEW025 SCT100 BKN230 02/M08 Q1020 RMK 1CU025 3AC100 5CI230 A3014;EQDQ01+000000PRSWM2
0185477160999992000012702004+36030+140200FM-15+0029RJAK V0200501N003112200019N0112651N1+00301-00901999999ADDGA1021+007509999GA2021+069009999GF104991999999999999999999MA1102001999999MW1001REMMET075RJAK 0200Z 05006KT 9999 FEW025 SCT230 03/M09 Q1020 RMK 1CU025 4CI230 A3013;EQDQ01+000000PRSWM2
0201477160999992000012703004+36030+140200FM-15+0029RJAK V0200501N001510690019N0112651N1+00401-01001999999ADDGA1021+007509999GA2071+069009999GF107991999999999999999999MA1101901999999MW1001REMMET091RJAK 0300Z 05003KT 9999 FEW025 BKN230 04/M10 Q1019 RMK 1CU025 6CI230 A3010 FCST 0312 NOSIG;EQDQ01+000000PRSWM2
0185477160999992000012704004+36030+140200FM-15+0029RJAK V0200601N002610690019N0112651N1+00401-01001999999ADDGA1021+007509999GA2071+069009999GF107991999999999999999999MA1101801999999MW1001REMMET075RJAK 0400Z 06005KT 9999 FEW025 BKN230 04/M10 Q1018 RMK 1CU025 6CI230 A3008;EQDQ01+000000PRSWM2
0215477160999992000012705004+36030+140200FM-15+0029RJAK V0200801N003110690019N0112651N1+00401-00901999999ADDGA1021+007509999GA2021+036009999GA3071+069009999GF107991999999999999999999MA1101801999999MW1001REMMET089RJAK 0500Z 08006KT 9999 FEW025 SCT120 BKN230 04/M09 Q1018 RMK 1CU025 3AC120 6CI230 A3007;EQDQ01+000000PRSWM2
0155477160999992000012707004+36030+140200FM-15+0029RJAK V0200901N005112200019N0112651N1+00401-00601999999ADDGA1021+007509999GF102991999999999999999999MA1101901999999MW1001REMMET061RJAK 0700Z 09010KT 9999 FEW025 04/M06 Q1019 RMK 1CU025 A3009;EQDQ01+000000PRSWM2
0171477160999992000012708004+36030+140200FM-15+0029RJAK V0200801N003612200019N0112651N1+00301-00601999999ADDGA1021+007509999GF102991999999999999999999MA1102001999999MW1001REMMET077RJAK 0800Z 08007KT 9999 FEW025 03/M06 Q1020 RMK 1CU025 A3012 FCST 0817 NOSIG;EQDQ01+000000PRSWM2
0156477160999992000012715004+36030+140200FM-15+0029RJAK V0200301N001512200019N0112651N1-00101-00601999999ADDGA1021+009009999GF102991999999999999999999MA1102301999999MW1001REMMET062RJAK 1500Z 03003KT 9999 FEW030 M01/M06 Q1023 RMK 1CU030 A3020;EQDQ01+000000PRSWM2
0156477160999992000012722004+36030+140200FM-15+0029RJAK V0202501N001012200019N0112651N1-00401-00801999999ADDGA1021+009009999GF102991999999999999999999MA1102401999999MW1001REMMET062RJAK 2200Z 25002KT 9999 FEW030 M04/M08 Q1024 RMK 1CU030 A3026;EQDQ01+000000PRSWM2
0172477160999992000012723004+36030+140200FM-15+0029RJAK V0202601N001512200019N0112651N1-00201-00801999999ADDGA1021+009009999GF102991999999999999999999MA1102511999999MW1001REMMET078RJAK 2300Z 26003KT 9999 FEW030 M02/M08 Q1025 RMK 1CU030 A3027 FCST 2308 NOSIG;EQDQ01+000000PRSWM2
0145477160999992000012800004+36030+140200FM-15+0029RJAK V0202901N002112200019N0112651N1+00101-00701999999ADDGF100991999999999999999999MA1102511999999MW1001REMMET067RJAK 0000Z 29004KT 9999 SKC 01/M07 Q1025 RMK A3029 FCST 0009 NOSIG;EQDQ01+000000PRSWM2
0129477160999992000012801004+36030+140200FM-15+0029RJAK V0203301N001012200019N0112651N1+00301-00701999999ADDGF100991999999999999999999MA1102611999999MW1001REMMET051RJAK 0100Z 33002KT 9999 SKC 03/M07 Q1026 RMK A3030;EQDQ01+000000PRSWM2
0129477160999992000012802004+36030+140200FM-15+0029RJAK V0203101N002112200019N0112651N1+00401-00701999999ADDGF100991999999999999999999MA1102611999999MW1001REMMET051RJAK 0200Z 31004KT 9999 SKC 04/M07 Q1026 RMK A3029;EQDQ01+000000PRSWM2
0145477160999992000012803004+36030+140200FM-15+0029RJAK V0202901N001512200019N0112651N1+00501-00801999999ADDGF100991999999999999999999MA1102511999999MW1001REMMET067RJAK 0300Z 29003KT 9999 SKC 05/M08 Q1025 RMK A3027 FCST 0312 NOSIG;EQDQ01+000000PRSWM2
0129477160999992000012804004+36030+140200FM-15+0029RJAK V0203001N001512200019N0112651N1+00701-00901999999ADDGF100991999999999999999999MA1102401999999MW1001REMMET051RJAK 0400Z 30003KT 9999 SKC 07/M09 Q1024 RMK A3024;EQDQ01+000000PRSWM2
0129477160999992000012805004+36030+140200FM-15+0029RJAK V0203101N001512200019N0112651N1+00701-01001999999ADDGF100991999999999999999999MA1102401999999MW1001REMMET051RJAK 0500Z 31003KT 9999 SKC 07/M10 Q1024 RMK A3024;EQDQ01+000000PRSWM2
0145477160999992000012806004+36030+140200FM-15+0029RJAK V0202801N002112200019N0112651N1+00801-00901999999ADDGF100991999999999999999999MA1102401999999MW1001REMMET067RJAK 0600Z 28004KT 9999 SKC 08/M09 Q1024 RMK A3026 FCST 0615 NOSIG;EQDQ01+000000PRSWM2
0129477160999992000012807004+36030+140200FM-15+0029RJAK V0202901N002112200019N0112651N1+00801-01001999999ADDGF100991999999999999999999MA1102511999999MW1001REMMET051RJAK 0700Z 29004KT 9999 SKC 08/M10 Q1025 RMK A3027;EQDQ01+000000PRSWM2
0145477160999992000012808004+36030+140200FM-15+0029RJAK V0203001N001512200019N0112651N1+00701-01001999999ADDGF100991999999999999999999MA1102611999999MW1001REMMET067RJAK 0800Z 30003KT 9999 SKC 07/M10 Q1026 RMK A3029 FCST 0817 NOSIG;EQDQ01+000000PRSWM2
0156477160999992000013022004+36030+140200FM-15+0029RJAK V0201101N001512200019N0112651N1+00001-00401999999ADDGA1021+015009999GF102991999999999999999999MA1101801999999MW1001REMMET062RJAK 2200Z 11003KT 9999 FEW050 M00/M04 Q1018 RMK 1SC050 A3006;EQDQ01+000000PRSWM2
0187477160999992000013023004+36030+140200FM-15+0029RJAK V0202301N001512200019N0112651N1+00101-00301999999ADDGA1021+012009999GF102991999999999999999999MA1101801999999MW1001REMMET093RJAK 2300Z 23003KT 9999 FEW040 01/M03 Q1018 RMK 1SC040 A3007 FCST 2308 TEMPO 0307 33012G22KT;EQDQ01+000000PRSWM2
0187477160999992000013100004+36030+140200FM-15+0029RJAK V0200201N002112200019N0112651N1+00601-00501999999ADDGA1021+012009999GF102991999999999999999999MA1101901999999MW1001REMMET093RJAK 0000Z 02004KT 9999 FEW040 06/M05 Q1019 RMK 1SC040 A3009 FCST 0009 TEMPO 0307 33012G22KT;EQDQ01+000000PRSWM2
0155477160999992000013101004+36030+140200FM-15+0029RJAK V0203501N001512200019N0112651N1+00701-00501999999ADDGA1021+007509999GF102991999999999999999999MA1101901999999MW1001REMMET061RJAK 0100Z 35003KT 9999 FEW025 07/M05 Q1019 RMK 1CU025 A3009;EQDQ01+000000PRSWM2
0155477160999992000013102004+36030+140200FM-15+0029RJAK V0203501N002612200019N0112651N1+00801-00601999999ADDGA1021+009009999GF102991999999999999999999MA1101801999999MW1001REMMET061RJAK 0200Z 35005KT 9999 FEW030 08/M06 Q1018 RMK 1CU030 A3008;EQDQ01+000000PRSWM2
0168477160999992000013102224+36030+140200FM-16+0029RJAK V0203001N004112200019N0112651N1+00801-00701999999ADDGA1021+009009999GF102991999999999999999999MA1101801999999MW1001OC100981REMMET066RJAK 310222Z 30008G19KT 9999 FEW030 08/M07 Q1018 RMK 1CU030 A3007;EQDQ01+000000PRSWM2
0195477160999992000013103004+36030+140200FM-15+0029RJAK V0203001N004612200019N0112651N1+00901-00701999999ADDGA1021+009009999GF102991999999999999999999MA1101691999999MW1001OC100981REMMET093RJAK 0300Z 30009G19KT 9999 FEW030 09/M07 Q1017 RMK 1CU030 A3005 FCST 0312 BECMG 0709 30008KT;EQDQ01+000000PRSWM2
0166477160999992000013104004+36030+140200FM-15+0029RJAK V0203101N005112200019N0112651N1+01001-00701999999ADDGA1021+009009999GF102991999999999999999999MA1101691999999MW1001OC101031REMMET064RJAK 0400Z 31010G20KT 9999 FEW030 10/M07 Q1017 RMK 2CU030 A3004;EQDQ01+000000PRSWM2
0166477160999992000013105004+36030+140200FM-15+0029RJAK V0203301N005712200019N0112651N1+00901-00801999999ADDGA1021+009009999GF102991999999999999999999MA1101691999999MW1001OC101081REMMET064RJAK 0500Z 33011G21KT 9999 FEW030 09/M08 Q1017 RMK 1CU030 A3005;EQDQ01+000000PRSWM2
0217477160999992000013106004+36030+140200FM-15+0029RJAK V0203301N003612200019N0112651N1+00801-00901999999ADDGA1021+009009999GA2021+015009999GF104991999999999999999999MA1101801999999MW1001REMMET107RJAK 0600Z 33007KT 9999 FEW030 SCT050 08/M09 Q1018 RMK 1CU030 3SC050 A3006 FCST 0615 TEMPO 0608 33010G20KT;EQDQ01+000000PRSWM2
0198477160999992000013106294+36030+140200FM-16+0029RJAK V0203201N005110150019N0112651N1+00801-01101999999ADDGA1021+009009999GA2071+015009999GF107991999999999999999999MA1101801999999MW1001OC101181REMMET080RJAK 310629Z 32010G23KT 9999 FEW030 BKN050 08/M11 Q1018 RMK 1CU030 5SC050 A3008;EQDQ01+000000PRSWM2
0185477160999992000013107004+36030+140200FM-15+0029RJAK V0203301N004610150019N0112651N1+00801-01101999999ADDGA1021+009009999GA2071+015009999GF107991999999999999999999MA1101901999999MW1001REMMET075RJAK 0700Z 33009KT 9999 FEW030 BKN050 08/M11 Q1019 RMK 1CU030 5SC050 A3010;EQDQ01+000000PRSWM2
0198477160999992000013107024+36030+140200FM-16+0029RJAK V0203301N005110150019N0112651N1+00801-01101999999ADDGA1021+009009999GA2071+015009999GF107991999999999999999999MA1101901999999MW1001OC101031REMMET080RJAK 310702Z 33010G20KT 9999 FEW030 BKN050 08/M11 Q1019 RMK 1CU030 5SC050 A3010;EQDQ01+000000PRSWM2
0225477160999992000013108004+36030+140200FM-15+0029RJAK V0203201N006212200019N0112651N1+00601-01201999999ADDGA1021+009009999GA2021+015009999GF104991999999999999999999MA1102001999999MW1001OC101291REMMET107RJAK 0800Z 32012G25KT 9999 FEW030 SCT050 06/M12 Q1020 RMK 1CU030 4SC050 A3013 FCST 0817 BECMG 0810 33008KT;EQDQ01+000000PRSWM2
0156477160999992000013122004+36030+140200FM-15+0029RJAK V0203101N001512200019N0112651N1-00101-00901999999ADDGA1021+015009999GF102991999999999999999999MA1102401999999MW1001REMMET062RJAK 2200Z 31003KT 9999 FEW050 M01/M09 Q1024 RMK 1SC050 A3025;EQDQ01+000000PRSWM2
0171477160999992000013123004+36030+140200FM-15+0029RJAK V0202901N001512200019N0112651N1+00101-00901999999ADDGA1021+009009999GF102991999999999999999999MA1102401999999MW1001REMMET077RJAK 2300Z 29003KT 9999 FEW030 01/M09 Q1024 RMK 1CU030 A3026 FCST 2308 NOSIG;EQDQ01+000000PRSWM2
0171477160999992000020100004+36030+140200FM-15+0029RJAK V0203001N002612200019N0112651N1+00301-00901999999ADDGA1021+009009999GF102991999999999999999999MA1102401999999MW1001REMMET077RJAK 0000Z 30005KT 9999 FEW030 03/M09 Q1024 RMK 1CU030 A3026 FCST 0009 NOSIG;EQDQ01+000000PRSWM2
0163477160999992000020101004+36030+140200FM-15+0029RJAK V0202901N004612200019N0112651N1+00401-00901999999ADDGA1021+015009999GF102991999999999999999999MA1102401999999MW1001REMMET069RJAK 0100Z 29009KT 240V360 9999 FEW050 04/M09 Q1024 RMK 1SC050 A3025;EQDQ01+000000PRSWM2
0168477160999992000020101374+36030+140200FM-16+0029RJAK V0203201N004612200019N0112651N1+00501-00801999999ADDGA1021+015009999GF102991999999999999999999MA1102301999999MW1001OC101031REMMET066RJAK 010137Z 32009G20KT 9999 FEW050 05/M08 Q1023 RMK 1SC050 A3022;EQDQ01+000000PRSWM2
0155477160999992000020102004+36030+140200FM-15+0029RJAK V0203201N004612200019N0112651N1+00501-00801999999ADDGA1021+015009999GF102991999999999999999999MA1102301999999MW1001REMMET061RJAK 0200Z 32009KT 9999 FEW050 05/M08 Q1023 RMK 1SC050 A3022;EQDQ01+000000PRSWM2
0171477160999992000020103004+36030+140200FM-15+0029RJAK V0203301N003612200019N0112651N1+00601-00801999999ADDGA1021+015009999GF102991999999999999999999MA1102201999999MW1001REMMET077RJAK 0300Z 33007KT 9999 FEW050 06/M08 Q1022 RMK 1SC050 A3019 FCST 0312 NOSIG;EQDQ01+000000PRSWM2
0155477160999992000020104004+36030+140200FM-15+0029RJAK V0203101N003112200019N0112651N1+00701-01001999999ADDGA1021+015009999GF102991999999999999999999MA1102101999999MW1001REMMET061RJAK 0400Z 31006KT 9999 FEW050 07/M10 Q1021 RMK 1SC050 A3015;EQDQ01+000000PRSWM2
0155477160999992000020105004+36030+140200FM-15+0029RJAK V0203201N002112200019N0112651N1+00901-00901999999ADDGA1021+036009999GF102991999999999999999999MA1102101999999MW1001REMMET061RJAK 0500Z 32004KT 9999 FEW120 09/M09 Q1021 RMK 1AC120 A3015;EQDQ01+000000PRSWM2
0171477160999992000020106004+36030+140200FM-15+0029RJAK V02099999999992200019N0112651N1+00901-00801999999ADDGA1021+036009999GF102991999999999999999999MA1102101999999MW1001REMMET077RJAK 0600Z VRB02KT 9999 FEW120 09/M08 Q1021 RMK 1AC120 A3015 FCST 0615 NOSIG;EQDQ01+000000PRSWM2
0155477160999992000020107004+36030+140200FM-15+0029RJAK V0203301N002112200019N0112651N1+00801-00901999999ADDGA1021+063009999GF102991999999999999999999MA1102001999999MW1001REMMET061RJAK 0700Z 33004KT 9999 FEW210 08/M09 Q1020 RMK 1CI210 A3014;EQDQ01+000000PRSWM2
0171477160999992000020108004+36030+140200FM-15+0029RJAK V0203601N001512200019N0112651N1+00701-00901999999ADDGA1021+036009999GF102991999999999999999999MA1102101999999MW1001REMMET077RJAK 0800Z 36003KT 9999 FEW120 07/M09 Q1021 RMK 1AC120 A3015 FCST 0817 NOSIG;EQDQ01+000000PRSWM2
0215477160999992000020122004+36030+140200FM-15+0029RJAK V0202901N002610120019N0112651N1+00101-00601999999ADDGA1071+012009999GA2021+015009999GA3071+030009999GF107991999999999999999999MA1102001999999MW1001REMMET089RJAK 2200Z 29005KT 9999 BKN040 SCT050 BKN100 01/M06 Q1020 RMK 5SC040 4SC050 6AC100 A3013;EQDQ01+000000PRSWM2
0254477160999992000020123004+36030+140200FM-15+0029RJAK V0203101N002610690019N0112651N1+00201-00701999999ADDGA1021+012009999GA2021+015009999GA3071+069009999GF107991999999999999999999MA1102001999999MW1001REMMET128RJAK 2300Z 31005KT 9999 SCT040 SCT050 BKN230 02/M07 Q1020 RMK 3SC040 3SC050 6CI230 A3013 FCST 2308 TEMPO 2301 SCT030CU BKN040CU;EQDQ01+000000PRSWM2
0201477160999992000020200004+36030+140200FM-15+0029RJAK V0202901N002610690019N0112651N1+00401-00601999999ADDGA1021+015009999GA2071+069009999GF107991999999999999999999MA1102101999999MW1001REMMET091RJAK 0000Z 29005KT 9999 FEW050 BKN230 04/M06 Q1021 RMK 1SC050 6CI230 A3015 FCST 0009 NOSIG;EQDQ01+000000PRSWM2
0185477160999992000020201004+36030+140200FM-15+0029RJAK V0202701N003610690019N0112651N1+00601-00601999999ADDGA1021+015009999GA2071+069009999GF107991999999999999999999MA1102101999999MW1001REMMET075RJAK 0100Z 27007KT 9999 FEW050 BKN230 06/M06 Q1021 RMK 1SC050 6CI230 A3015;EQDQ01+000000PRSWM2
0185477160999992000020202004+36030+140200FM-15+0029RJAK V0202901N003610690019N0112651N1+00801-00501999999ADDGA1021+030009999GA2071+069009999GF107991999999999999999999MA1102001999999MW1001REMMET075RJAK 0200Z 29007KT 9999 FEW100 BKN230 08/M05 Q1020 RMK 1AC100 5CI230 A3014;EQDQ01+000000PRSWM2
0171477160999992000020203004+36030+140200FM-15+0029RJAK V0202901N004112200019N0112651N1+00801-00601999999ADDGA1021+007509999GF102991999999999999999999MA1101901999999MW1001REMMET077RJAK 0300Z 29008KT 9999 FEW025 08/M06 Q1019 RMK 1CU025 A3011 FCST 0312 NOSIG;EQDQ01+000000PRSWM2
0155477160999992000020204004+36030+140200FM-15+0029RJAK V0203201N004112200019N0112651N1+01001-00601999999ADDGA1021+007509999GF102991999999999999999999MA1101901999999MW1001REMMET061RJAK 0400Z 32008KT 9999 FEW025 10/M06 Q1019 RMK 1CU025 A3009;EQDQ01+000000PRSWM2
0155477160999992000020205004+36030+140200FM-15+0029RJAK V0203201N002612200019N0112651N1+01101-00801999999ADDGA1021+007509999GF102991999999999999999999MA1101901999999MW1001REMMET061RJAK 0500Z 32005KT 9999 FEW025 11/M08 Q1019 RMK 1CU025 A3009;EQDQ01+000000PRSWM2
0171477160999992000020206004+36030+140200FM-15+0029RJAK V0200201N003112200019N0112651N1+01001-00901999999ADDGA1021+007509999GF102991999999999999999999MA1101901999999MW1001REMMET077RJAK 0600Z 02006KT 9999 FEW025 10/M09 Q1019 RMK 1CU025 A3010 FCST 0615 NOSIG;EQDQ01+000000PRSWM2
0155477160999992000020207004+36030+140200FM-15+0029RJAK V0203501N002612200019N0112651N1+01001-00901999999ADDGA1021+007509999GF102991999999999999999999MA1101901999999MW1001REMMET061RJAK 0700Z 35005KT 9999 FEW025 10/M09 Q1019 RMK 1CU025 A3010;EQDQ01+000000PRSWM2
0171477160999992000020208004+36030+140200FM-15+0029RJAK V0203601N001512200019N0112651N1+01001-00801999999ADDGA1021+007509999GF102991999999999999999999MA1101901999999MW1001REMMET077RJAK 0800Z 36003KT 9999 FEW025 10/M08 Q1019 RMK 1CU025 A3011 FCST 0817 NOSIG;EQDQ01+000000PRSWM2
0156477160999992000020222004+36030+140200FM-15+0029RJAK V0202901N001012200019N0112651N1-00101-00501999999ADDGA1021+009009999GF104991999999999999999999MA1102201999999MW1001REMMET062RJAK 2200Z 29002KT 9999 SCT030 M01/M05 Q1022 RMK 3SC030 A3019;EQDQ01+000000PRSWM2
0202477160999992000020223004+36030+140200FM-15+0029RJAK V0202801N001012200019N0112651N1+00001-00401999999ADDGA1021+006009999GA2021+009009999GF104991999999999999999999MA1102201999999MW1001REMMET092RJAK 2300Z 28002KT 9999 FEW020 SCT030 M00/M04 Q1022 RMK 2CU020 4SC030 A3020 FCST 2308 NOSIG;EQDQ01+000000PRSWM2
0254477160999992000020300004+36030+140200FM-15+0029RJAK V0203201N001010150019N0112651N1+00201-00201999999ADDGA1021+007509999GA2021+009009999GA3071+015009999GF107991999999999999999999MA1102201999999MW1001REMMET128RJAK 0000Z 32002KT 9999 SCT025 SCT030 BKN050 02/M02 Q1022 RMK 3CU025 3SC030 5SC050 A3019 FCST 0009 BECMG 0001 SCT030SC FEW080AC;EQDQ01+000000PRSWM2
0185477160999992000020301004+36030+140200FM-15+0029RJAK V0202801N002110150019N0112651N1+00501-00201999999ADDGA1021+007509999GA2071+015009999GF107991999999999999999999MA1102201999999MW1001REMMET075RJAK 0100Z 28004KT 9999 FEW025 BKN050 05/M02 Q1022 RMK 1CU025 5SC050 A3019;EQDQ01+000000PRSWM2
0155477160999992000020302004+36030+140200FM-15+0029RJAK V0203401N001510135019N0112651N1+00701-00101999999ADDGA1071+013509999GF107991999999999999999999MA1102101999999MW1001REMMET061RJAK 0200Z 34003KT 9999 BKN045 07/M01 Q1021 RMK 5SC045 A3017;EQDQ01+000000PRSWM2
0223477160999992000020303004+36030+140200FM-15+0029RJAK V0203601N000512200019N0112651N1+00801+00001999999ADDGA1021+009009999GA2021+013509999GF104991999999999999999999MA1102001999999MW1001REMMET113RJAK 0300Z 36001KT 9999 FEW030 SCT045 08/00 Q1020 RMK 2CU030 4SC045 A3014 FCST 0312 BECMG 0709 BKN045SC SCT100AC;EQDQ01+000000PRSWM2
0185477160999992000020304004+36030+140200FM-15+0029RJAK V0200301N001512200019N0112651N1+00901-00101999999ADDGA1021+009009999GA2021+013509999GF104991999999999999999999MA1101901999999MW1001REMMET075RJAK 0400Z 03003KT 9999 FEW030 SCT045 09/M01 Q1019 RMK 2CU030 4SC045 A3010;EQDQ01+000000PRSWM2
0185477160999992000020305004+36030+140200FM-15+0029RJAK V0200501N001512200019N0112651N1+01101-00201999999ADDGA1021+009009999GA2021+013509999GF104991999999999999999999MA1101801999999MW1001REMMET075RJAK 0500Z 05003KT 9999 FEW030 SCT045 11/M02 Q1018 RMK 1CU030 3SC045 A3008;EQDQ01+000000PRSWM2
0224477160999992000020306004+36030+140200FM-15+0029RJAK V0201301N002112200019N0112651N1+01001-00201999999ADDGA1021+009009999GA2021+013509999GF104991999999999999999999MA1101801999999MW1001REMMET114RJAK 0600Z 13004KT 9999 FEW030 SCT045 10/M02 Q1018 RMK 1CU030 3SC045 A3007 FCST 0615 BECMG 0911 FEW030CU BKN045SC;EQDQ01+000000PRSWM2
0154477160999992000020307004+36030+140200FM-15+0029RJAK V0201301N003112200019N0112651N1+01001+00001999999ADDGA1021+009009999GF102991999999999999999999MA1101691999999MW1001REMMET060RJAK 0700Z 13006KT 9999 FEW030 10/00 Q1017 RMK 1CU030 A3005;EQDQ01+000000PRSWM2
0200477160999992000020308004+36030+140200FM-15+0029RJAK V0201201N003112200019N0112651N1+00901+00001999999ADDGA1021+009009999GA2021+036009999GF104991999999999999999999MA1101691999999MW1001REMMET090RJAK 0800Z 12006KT 9999 FEW030 SCT120 09/00 Q1017 RMK 1SC030 3AC120 A3005 FCST 0817 NOSIG;EQDQ01+000000PRSWM2
0185477160999992000020322004+36030+140200FM-15+0029RJAK V0203501N001512200019N0112651N1+00401-00101999999ADDGA1021+007509999GA2021+012009999GF104991999999999999999999MA1101491999999MW1001REMMET075RJAK 2200Z 35003KT 9999 FEW025 SCT040 04/M01 Q1015 RMK 1CU025 3SC040 A2998;EQDQ01+000000PRSWM2
0201477160999992000020323004+36030+140200FM-15+0029RJAK V0202901N001512200019N0112651N1+00201-00101999999ADDGA1021+007509999GA2021+012009999GF104991999999999999999999MA1101591999999MW1001REMMET091RJAK 2300Z 29003KT 9999 FEW025 SCT040 02/M01 Q1016 RMK 1CU025 3SC040 A3000 FCST 2308 NOSIG;EQDQ01+000000PRSWM2
0171477160999992000020400004+36030+140200FM-15+0029RJAK V0203001N001512200019N0112651N1+00601+00001999999ADDGA1021+009009999GF102991999999999999999999MA1101591999999MW1001REMMET077RJAK 0000Z 30003KT 9999 FEW030 06/M00 Q1016 RMK 1CU030 A3002 FCST 0009 NOSIG;EQDQ01+000000PRSWM2
0184477160999992000020401004+36030+140200FM-15+0029RJAK V0203301N002112200019N0112651N1+00701+00001999999ADDGA1021+007509999GA2021+009009999GF104991999999999999999999MA1101691999999MW1001REMMET074RJAK 0100Z 33004KT 9999 FEW025 SCT030 07/00 Q1017 RMK 1CU025 4CU030 A3004;EQDQ01+000000PRSWM2
0184477160999992000020402004+36030+140200FM-15+0029RJAK V0203001N001512200019N0112651N1+00801+00001999999ADDGA1021+007509999GA2021+009009999GF104991999999999999999999MA1101691999999MW1001REMMET074RJAK 0200Z 30003KT 9999 FEW025 SCT030 08/00 Q1017 RMK 1CU025 3CU030 A3004;EQDQ01+000000PRSWM2
0198477160999992000020402264+36030+140200FM-16+0029RJAK V0203101N002610090019N0112651N1+00901-00101999999ADDGA1021+007509999GA2071+009009999GF107991999999999999999999MA1101691999999MW1001OC100931REMMET080RJAK 040226Z 31005G18KT 9999 FEW025 BKN030 09/M01 Q1017 RMK 2CU025 5CU030 A3004;EQDQ01+000000PRSWM2
0224477160999992000020403004+36030+140200FM-15+0029RJAK V0202901N004110105019N0112651N1+00901-00101999999ADDGA1021+007509999GA2071+010509999GF107991999999999999999999MA1101691999999MW1001REMMET114RJAK 0300Z 29008KT 9999 SCT025 BKN035 09/M01 Q1017 RMK 4CU025 6CU035 A3003 FCST 0312 TEMPO 0306 BKN025CU BKN035CU;EQDQ01+000000PRSWM2
0154477160999992000020404004+36030+140200FM-15+0029RJAK V0203501N003612200019N0112651N1+01001+00001999999ADDGA1021+009009999GF102991999999999999999999MA1101691999999MW1001REMMET060RJAK 0400Z 35007KT 9999 FEW030 10/00 Q1017 RMK 1CU030 A3004;EQDQ01+000000PRSWM2
0155477160999992000020405004+36030+140200FM-15+0029RJAK V0203501N003612200019N0112651N1+01001-00401999999ADDGA1021+009009999GF102991999999999999999999MA1101691999999MW1001REMMET061RJAK 0500Z 35007KT 9999 FEW030 10/M04 Q1017 RMK 1CU030 A3003;EQDQ01+000000PRSWM2
0201477160999992000020406004+36030+140200FM-15+0029RJAK V0203001N004112200019N0112651N1+01001-00401999999ADDGA1021+009009999GA2021+010509999GF104991999999999999999999MA1101691999999MW1001REMMET091RJAK 0600Z 30008KT 9999 FEW030 SCT035 10/M04 Q1017 RMK 1CU030 3CU035 A3005 FCST 0615 NOSIG;EQDQ01+000000PRSWM2
0179477160999992000020406504+36030+140200FM-15+0029RJAK V0203601N005112200019N0112651N1+01001-00401999999ADDGA1021+009009999GF104991999999999999999999MA1101801999999MW1801REMMET069RJAK 040650Z 36010KT 9999 -SHRA SCT030 10/M04 Q1018 RMK 4CU030 A3007;EQDQ01+000003PRSWM1Q02    003PRSWM1
0177477160999992000020407004+36030+140200FM-15+0029RJAK V0200101N003610090019N0112651N1+01001-00401999999ADDGA1071+009009999GF107991999999999999999999MA1101801999999MW1801REMMET067RJAK 0700Z 01007KT 9999 -SHRA BKN030 10/M04 Q1018 RMK 5CU030 A3007;EQDQ01+000003PRSWM1Q02    003PRSWM1
0157477160999992000020407304+36030+140200FM-15+0029RJAK V0200501N001512200019N0112651N1+00801-00201999999ADDGA1021+004509999GF102991999999999999999999MA1101901999999MW1001REMMET063RJAK 040730Z 05003KT 9999 FEW015 08/M02 Q1019 RMK 1CU015 A3009;EQDQ01+000000PRSWM2
0171477160999992000020408004+36030+140200FM-15+0029RJAK V0200501N001512200019N0112651N1+00801-00301999999ADDGA1021+004509999GF102991999999999999999999MA1101901999999MW1001REMMET077RJAK 0800Z 05003KT 9999 FEW015 08/M03 Q1019 RMK 1CU015 A3010 FCST 0817 NOSIG;EQDQ01+000000PRSWM2
0147477160999992000020622004+36030+140200FM-15+0029RJAK V0202301N000512200019N0030001N1+00101+00001999999ADDGF100991999999999999999999MA1100411999999MW1101REMMET053RJAK 2200Z 23001KT 3000 BR SKC 01/00 Q1004 RMK A2965;EQDQ01+000003PRSWM1Q02    003PRSWM1
0192477160999992000020623004+36030+140200FM-15+0029RJAK V0202601N001012200019N0050001N1+00301+00201999999ADDGF100991999999999999999999MA1100411999999MW1101REMMET098RJAK 2300Z 26002KT 5000 BR SKC 03/02 Q1004 RMK A2967 FCST 2308 BECMG 2300 NSW TEMPO 0508 BKN025CU;EQDQ01+000003PRSWM1Q02    003PRSWM1
0158477160999992000020700004+36030+140200FM-15+0029RJAK V0202601N001512200019N0070001N1+00701+00201999999ADDGF100991999999999999999999MA1100511999999MW1001REMMET080RJAK 0000Z 26003KT 7000 SKC 07/02 Q1005 RMK A2968 FCST 0009 TEMPO 0508 BKN025CU;EQDQ01+000000PRSWM2
0155477160999992000020701004+36030+140200FM-15+0029RJAK V0202801N004612200019N0112651N1+01101-00401999999ADDGA1021+009009999GF102991999999999999999999MA1100511999999MW1001REMMET061RJAK 0100Z 28009KT 9999 FEW030 11/M04 Q1005 RMK 1CU030 A2968;EQDQ01+000000PRSWM2
0168477160999992000020701024+36030+140200FM-16+0029RJAK V0203001N004612200019N0112651N1+01101-00401999999ADDGA1021+009009999GF102991999999999999999999MA1100511999999MW1001OC100981REMMET066RJAK 070102Z 30009G19KT 9999 FEW030 11/M04 Q1005 RMK 1CU030 A2968;EQDQ01+000000PRSWM2
0166477160999992000020702004+36030+140200FM-15+0029RJAK V0202801N006212200019N0112651N1+01201-00601999999ADDGA1021+009009999GF102991999999999999999999MA1100511999999MW1001OC101341REMMET064RJAK 0200Z 28012G26KT 9999 FEW030 12/M06 Q1005 RMK 1CU030 A2968;EQDQ01+000000PRSWM2
0195477160999992000020703004+36030+140200FM-15+0029RJAK V0202801N007712200019N0112651N1+01201-00801999999ADDGA1021+009009999GF102991999999999999999999MA1100511999999MW1001OC101491REMMET093RJAK 0300Z 28015G29KT 9999 FEW030 12/M08 Q1005 RMK 1CU030 A2968 FCST 0312 BECMG 0709 30010KT;EQDQ01+000000PRSWM2
0166477160999992000020704004+36030+140200FM-15+0029RJAK V0203001N007212200019N0112651N1+01301-00801999999ADDGA1021+030009999GF102991999999999999999999MA1100411999999MW1001OC101291REMMET064RJAK 0400Z 30014G25KT 9999 FEW100 13/M08 Q1004 RMK 1AC100 A2965;EQDQ01+000000PRSWM2
0166477160999992000020705004+36030+140200FM-15+0029RJAK V0202801N005112200019N0112651N1+01401-00801999999ADDGA1021+009009999GF102991999999999999999999MA1100411999999MW1001OC101031REMMET064RJAK 0500Z 28010G20KT 9999 FEW030 14/M08 Q1004 RMK 1CU030 A2965;EQDQ01+000000PRSWM2
0195477160999992000020706004+36030+140200FM-15+0029RJAK V0202901N005112200019N0112651N1+01401-00901999999ADDGA1021+009009999GF102991999999999999999999MA1100411999999MW1001OC101131REMMET093RJAK 0600Z 29010G22KT 9999 FEW030 14/M09 Q1004 RMK 1CU030 A2967 FCST 0615 BECMG 0608 30010KT;EQDQ01+000000PRSWM2
0155477160999992000020707004+36030+140200FM-15+0029RJAK V0202901N004612200019N0112651N1+01301-00901999999ADDGA1021+030009999GF102991999999999999999999MA1100511999999MW1001REMMET061RJAK 0700Z 29009KT 9999 FEW100 13/M09 Q1005 RMK 1AC100 A2968;EQDQ01+000000PRSWM2
0171477160999992000020708004+36030+140200FM-15+0029RJAK V0202801N004112200019N0112651N1+01201-00801999999ADDGA1021+030009999GF102991999999999999999999MA1100511999999MW1001REMMET077RJAK 0800Z 28008KT 9999 FEW100 12/M08 Q1005 RMK 1AC100 A2969 FCST 0817 NOSIG;EQDQ01+000000PRSWM2
0185477160999992000020722004+36030+140200FM-15+0029RJAK V0202901N001512200019N0112651N1+00501-00101999999ADDGA1021+007509999GA2021+012009999GF104991999999999999999999MA1099901999999MW1001REMMET075RJAK 2200Z 29003KT 9999 SCT025 SCT040 05/M01 Q0999 RMK 3CU025 4SC040 A2952;EQDQ01+000000PRSWM2
0280477160999992000020723004+36030+140200FM-15+0029RJAK V0202901N001510300019N0112651N1+00501-00201999999ADDGA1021+007509999GA2021+012009999GA3071+030009999GF107991999999999999999999MA1099901999999MW1001REMMET154RJAK 2300Z 29003KT 9999 FEW025 SCT040 BKN100 05/M02 Q0999 RMK 1CU025 3SC040 5AC100 A2951 FCST 2308 BECMG 0002 FEW025CU BKN040SC OVC100AC TEMPO 0508 -SHRA;EQDQ01+000000PRSWM2
0280477160999992000020800004+36030+140200FM-15+0029RJAK V0202801N000510300019N0112651N1+00501-00101999999ADDGA1021+007509999GA2021+012009999GA3071+030009999GF107991999999999999999999MA1099801999999MW1001REMMET154RJAK 0000Z 28001KT 9999 FEW025 SCT040 BKN100 05/M01 Q0998 RMK 2CU025 3SC040 5AC100 A2949 FCST 0009 BECMG 0204 FEW025CU BKN040SC OVC100AC TEMPO 0509 -SHRA;EQDQ01+000000PRSWM2
0185477160999992000020801004+36030+140200FM-15+0029RJAK V0201001N001510300019N0112651N1+00701-00101999999ADDGA1021+007509999GA2071+030009999GF107991999999999999999999MA1099701999999MW1001REMMET075RJAK 0100Z 10003KT 9999 FEW025 BKN100 07/M01 Q0997 RMK 1CU025 5AC100 A2946;EQDQ01+000000PRSWM2
0154477160999992000020802004+36030+140200FM-15+0029RJAK V0200501N002112200019N0112651N1+00801+00001999999ADDGA1021+007509999GF102991999999999999999999MA1099591999999MW1001REMMET060RJAK 0200Z 05004KT 9999 FEW025 08/00 Q0996 RMK 1CU025 A2943;EQDQ01+000000PRSWM2
0198477160999992000020803004+36030+140200FM-15+0029RJAK V0200501N002612200019N0112651N1+00901+00301999999ADDGA1021+007509999GF102991999999999999999999MA1099491999999MW1001REMMET104RJAK 0300Z 05005KT 9999 FEW025 09/03 Q0995 RMK 1CU025 A2938 P/FR FCST 0312 BECMG 1012 BKN025CU BKN080AC;EQDQ01+000000PRSWM2
0159477160999992000020804004+36030+140200FM-15+0029RJAK V0200601N003112200019N0112651N1+01001+00201999999ADDGA1021+007509999GF102991999999999999999999MA1099291999999MW1001REMMET065RJAK 0400Z 06006KT 9999 FEW025 10/02 Q0993 RMK 1CU025 A2933 P/FR;EQDQ01+000000PRSWM2
0154477160999992000020805004+36030+140200FM-15+0029RJAK V0200701N003112200019N0112651N1+01101+00201999999ADDGA1021+007509999GF102991999999999999999999MA1099191999999MW1001REMMET060RJAK 0500Z 07006KT 9999 FEW025 11/02 Q0992 RMK 1CU025 A2930;EQDQ01+000000PRSWM2
0201477160999992000020806004+36030+140200FM-15+0029RJAK V0200901N001512200019N0112651N1+01201+00101999999ADDGA1021+009009999GF102991999999999999999999MA1099091999999MW1001REMMET107RJAK 0600Z 09003KT 9999 FEW030 12/01 Q0991 RMK 1CU030 A2927 FCST 0615 BECMG 1113 BKN030CU TEMPO 1315 -SHRA;EQDQ01+000000PRSWM2
0154477160999992000020807004+36030+140200FM-15+0029RJAK V0200901N003112200019N0112651N1+01001+00201999999ADDGA1021+009009999GF102991999999999999999999MA1098921999999MW1001REMMET060RJAK 0700Z 09006KT 9999 FEW030 10/02 Q0989 RMK 1CU030 A2923;EQDQ01+000000PRSWM2
0190477160999992000020808004+36030+140200FM-15+0029RJAK V0200801N005112200019N0112651N1+00901+00501999999ADDGA1021+009009999GF102991999999999999999999MA1098921999999MW1001REMMET096RJAK 0800Z 08010KT 9999 FEW030 09/05 Q0989 RMK 1CU030 A2920 FCST 0817 TEMPO 1315 -SHRA BKN025CU;EQDQ01+000000PRSWM2
0195477160999992000020822004+36030+140200FM-15+0029RJAK V0202901N009812200019N0112651N1+00201+00001999999ADDGA1021+003609999GA2021+030009999GF104991999999999999999999MA1099701999999MW1001OC102011REMMET077RJAK 2200Z 29019G39KT 9999 FEW012 SCT100 02/00 Q0997 RMK 1CU012 3AC100 A2944;EQDQ01+000000PRSWM2
0228477160999992000020822384+36030+140200FM-16+0029RJAK V0202901N008710120019N0112651N1+00201+00001999999ADDGA1021+003009999GA2071+012009999GA3071+030009999GF107991999999999999999999MA1099801999999MW1001OC102111REMMET094RJAK 082238Z 29017G41KT 9999 FEW010 BKN040 BKN100 02/M00 Q0998 RMK 1CU010 5SC040 5AC100 A2949;EQDQ01+000000PRSWM2
0336477160999992000020823004+36030+140200FM-15+0029RJAK V0203001N010310120019N0112651N1+00201+00001999999ADDGA1021+003009999GA2071+012009999GA3071+030009999GF107991999999999999999999MA1099801999999MW1001OC101851REMMET202RJAK 2300Z 30020G36KT 9999 FEW010 BKN040 BKN100 02/M00 Q0998 RMK 1CU010 5SC040 5AC100 A2949 P/RR FCST 2308 BECMG 2300 FEW010CU SCT040SC SCT100AC TEMPO 0005 FEW010CU BKN040SC BKN100AC BECMG 0708 29014KT;EQDQ01+000000PRSWM2
0173477160999992000020823214+36030+140200FM-16+0029RJAK V0203001N007212200019N0112651N1+00301+00001999999ADDGA1021+003009999GF102991999999999999999999MA1099901999999MW1001OC101591REMMET071RJAK 082321Z 30014G31KT 9999 FEW010 03/M00 Q0999 RMK 1CU010 A2952 P/RR;EQDQ01+000000PRSWM2
0214477160999992000020900004+36030+140200FM-15+0029RJAK V0203001N007212200019N0112651N1+00401-00101999999ADDGA1021+003609999GF102991999999999999999999MA1100001999999MW1001OC101341REMMET112RJAK 0000Z 30014G26KT 9999 FEW012 04/M01 Q1000 RMK 1CU012 A2953 FCST 0009 TEMPO 0206 29015KT BECMG 0607 29008KT;EQDQ01+000000PRSWM2
0166477160999992000020901004+36030+140200FM-15+0029RJAK V0203101N004112200019N0112651N1+00501-00101999999ADDGA1021+007509999GF102991999999999999999999MA1100101999999MW1001OC101081REMMET064RJAK 0100Z 31008G21KT 9999 FEW025 05/M01 Q1001 RMK 1CU025 A2957;EQDQ01+000000PRSWM2
0166477160999992000020902004+36030+140200FM-15+0029RJAK V0203001N006212200019N0112651N1+00701-00401999999ADDGA1021+007509999GF102991999999999999999999MA1100101999999MW1001OC101341REMMET064RJAK 0200Z 30012G26KT 9999 FEW025 07/M04 Q1001 RMK 1CU025 A2957;EQDQ01+000000PRSWM2
0217477160999992000020903004+36030+140200FM-15+0029RJAK V0203001N005112200019N0112651N1+00801-00401999999ADDGA1021+006009999GA2021+009009999GF104991999999999999999999MA1100201999999MW1001REMMET107RJAK 0300Z 30010KT 9999 FEW020 SCT030 08/M04 Q1002 RMK 1CU020 3CU030 A2959 FCST 0312 TEMPO 0306 30012G22KT;EQDQ01+000000PRSWM2
0168477160999992000020903214+36030+140200FM-16+0029RJAK V0203001N004612200019N0112651N1+00801-00601999999ADDGA1021+009009999GF104991999999999999999999MA1100101999999MW1001OC101131REMMET066RJAK 090321Z 30009G22KT 9999 SCT030 08/M06 Q1001 RMK 3CU030 A2958;EQDQ01+000000PRSWM2
0166477160999992000020904004+36030+140200FM-15+0029RJAK V0202901N007212200019N0112651N1+00901-00801999999ADDGA1021+009009999GF102991999999999999999999MA1100101999999MW1001OC101441REMMET064RJAK 0400Z 29014G28KT 9999 FEW030 09/M08 Q1001 RMK 2CU030 A2957;EQDQ01+000000PRSWM2
0166477160999992000020905004+36030+140200FM-15+0029RJAK V0203001N007212200019N0112651N1+00801-00701999999ADDGA1021+009009999GF102991999999999999999999MA1100101999999MW1001OC101491REMMET064RJAK 0500Z 30014G29KT 9999 FEW030 08/M07 Q1001 RMK 1CU030 A2958;EQDQ01+000000PRSWM2
0198477160999992000020905434+36030+140200FM-16+0029RJAK V0202901N009312200019N0112651N1+00801-00901999999ADDGA1021+009009999GA2021+015009999GF104991999999999999999999MA1100201999999MW1001OC101801REMMET080RJAK 090543Z 29018G35KT 9999 FEW030 SCT050 08/M09 Q1002 RMK 1CU030 4SC050 A2960;EQDQ01+000000PRSWM2
0171477160999992000020907004+36030+140200FM-15+0029RJAK V0203001N007712200019N0112651N1+00701-00901999999ADDGA1021+009009999GF102991999999999999999999MA1100411999999MW1001OC101491REMMET069RJAK 0700Z 30015G29KT 9999 FEW030 07/M09 Q1004 RMK 1CU030 A2965 P/RR;EQDQ01+000000PRSWM2
0195477160999992000020908004+36030+140200FM-15+0029RJAK V0203001N006212200019N0112651N1+00601-01101999999ADDGA1021+009009999GF102991999999999999999999MA1100511999999MW1001OC101541REMMET093RJAK 0800Z 30012G30KT 9999 FEW030 06/M11 Q1005 RMK 1CU030 A2969 FCST 0817 BECMG 1214 30005KT;EQDQ01+000000PRSWM2
0166477160999992000020922004+36030+140200FM-15+0029RJAK V0202701N004112200019N0112651N1+00101-01001999999ADDGA1021+009009999GF102991999999999999999999MA1101191999999MW1001OC100931REMMET064RJAK 2200Z 27008G18KT 9999 FEW030 01/M10 Q1012 RMK 1CU030 A2989;EQDQ01+000000PRSWM2
0195477160999992000020923004+36030+140200FM-15+0029RJAK V0202701N005112200019N0112651N1+00201-01001999999ADDGA1021+009009999GF102991999999999999999999MA1101291999999MW1001OC101181REMMET093RJAK 2300Z 27010G23KT 9999 FEW030 02/M10 Q1013 RMK 1CU030 A2991 FCST 2308 BECMG 0507 33010KT;EQDQ01+000000PRSWM2
0157477160999992000020923154+36030+140200FM-16+0029RJAK V0202701N004112200019N0112651N1+00301-01001999999ADDGA1021+009009999GF102991999999999999999999MA1101291999999MW1001REMMET063RJAK 092315Z 27008KT 9999 FEW030 03/M10 Q1013 RMK 1CU030 A2992;EQDQ01+000000PRSWM2
0168477160999992000020923194+36030+140200FM-16+0029RJAK V0202701N004112200019N0112651N1+00301-00901999999ADDGA1021+009009999GF102991999999999999999999MA1101291999999MW1001OC101081REMMET066RJAK 092319Z 27008G21KT 9999 FEW030 03/M09 Q1013 RMK 1CU030 A2992;EQDQ01+000000PRSWM2
0195477160999992000021000004+36030+140200FM-15+0029RJAK V0202701N005112200019N0112651N1+00401-01001999999ADDGA1021+009009999GF102991999999999999999999MA1101291999999MW1001OC101081REMMET093RJAK 0000Z 27010G21KT 9999 FEW030 04/M10 Q1013 RMK 1CU030 A2993 FCST 0009 BECMG 0507 33010KT;EQDQ01+000000PRSWM2
0166477160999992000021001004+36030+140200FM-15+0029RJAK V0202801N006712200019N0112651N1+00501-01001999999ADDGA1021+009009999GF102991999999999999999999MA1101291999999MW1001OC101231REMMET064RJAK 0100Z 28013G24KT 9999 FEW030 05/M10 Q1013 RMK 1CU030 A2994;EQDQ01+000000PRSWM2
0166477160999992000021002004+36030+140200FM-15+0029RJAK V0202801N005712200019N0112651N1+00601-00901999999ADDGA1021+009009999GF102991999999999999999999MA1101391999999MW1001OC101181REMMET064RJAK 0200Z 28011G23KT 9999 FEW030 06/M09 Q1014 RMK 1CU030 A2994;EQDQ01+000000PRSWM2
0195477160999992000021003004+36030+140200FM-15+0029RJAK V0202901N006712200019N0112651N1+00701-00901999999ADDGA1021+009009999GF102991999999999999999999MA1101291999999MW1001OC101291REMMET093RJAK 0300Z 29013G25KT 9999 FEW030 07/M09 Q1013 RMK 1CU030 A2992 FCST 0312 BECMG 0810 33010KT;EQDQ01+000000PRSWM2
0166477160999992000021004004+36030+140200FM-15+0029RJAK V0202901N006212200019N0112651N1+00901-00901999999ADDGA1021+009009999GF102991999999999999999999MA1101191999999MW1001OC101181REMMET064RJAK 0400Z 29012G23KT 9999 FEW030 09/M09 Q1012 RMK 1CU030 A2990;EQDQ01+000000PRSWM2
0166477160999992000021005004+36030+140200FM-15+0029RJAK V0202801N007212200019N0112651N1+00901-00901999999ADDGA1021+009009999GF102991999999999999999999MA1101191999999MW1001OC101391REMMET064RJAK 0500Z 28014G27KT 9999 FEW030 09/M09 Q1012 RMK 1CU030 A2990;EQDQ01+000000PRSWM2
0195477160999992000021006004+36030+140200FM-15+0029RJAK V0202901N005712200019N0112651N1+00901-01001999999ADDGA1021+009009999GF102991999999999999999999MA1101191999999MW1001OC101291REMMET093RJAK 0600Z 29011G25KT 9999 FEW030 09/M10 Q1012 RMK 1CU030 A2991 FCST 0615 BECMG 0810 30013KT;EQDQ01+000000PRSWM2
0166477160999992000021007004+36030+140200FM-15+0029RJAK V0202901N006212200019N0112651N1+00901-01001999999ADDGA1021+009009999GF102991999999999999999999MA1101291999999MW1001OC101181REMMET064RJAK 0700Z 29012G23KT 9999 FEW030 09/M10 Q1013 RMK 1CU030 A2991;EQDQ01+000000PRSWM2
0171477160999992000021008004+36030+140200FM-15+0029RJAK V0203301N002112200019N0112651N1+00801-00901999999ADDGA1021+009009999GF102991999999999999999999MA1101291999999MW1001REMMET077RJAK 0800Z 33004KT 9999 FEW030 08/M09 Q1013 RMK 1CU030 A2993 FCST 0817 NOSIG;EQDQ01+000000PRSWM2
0185477160999992000021322004+36030+140200FM-15+0029RJAK V0200801N002110120019N0112651N1+00301-00301999999ADDGA1021+006009999GA2071+012009999GF107991999999999999999999MA1101291999999MW1001REMMET075RJAK 2200Z 08004KT 9999 SCT020 BKN040 03/M03 Q1013 RMK 3CU020 7SC040 A2993;EQDQ01+000000PRSWM2
0260477160999992000021323004+36030+140200FM-15+0029RJAK V0200501N002110120019N0112651N1+00401-00301999999ADDGA1021+006009999GA2071+012009999GA3081+024009999GF108991999999999999999999MA1101291999999MW1001REMMET134RJAK 2300Z 05004KT 9999 FEW020 BKN040 OVC080 04/M03 Q1013 RMK 2CU020 6SC040 8AC080 A2992 FCST 2308 BECMG 0204 BKN030SC TEMPO 0608 -SN;EQDQ01+000000PRSWM2
0260477160999992000021400004+36030+140200FM-15+0029RJAK V0200401N002610105019N0112651N1+00401-00401999999ADDGA1021+006009999GA2071+010509999GA3081+024009999GF108991999999999999999999MA1101291999999MW1001REMMET134RJAK 0000Z 04005KT 9999 FEW020 BKN035 OVC080 04/M04 Q1013 RMK 1CU020 7SC035 8AC080 A2991 FCST 0009 BECMG 0204 BKN030SC TEMPO 0609 -SN;EQDQ01+000000PRSWM2
0215477160999992000021401004+36030+140200FM-15+0029RJAK V0200101N001010105019N0112651N1+00501-00301999999ADDGA1021+006009999GA2071+010509999GA3081+024009999GF108991999999999999999999MA1101191999999MW1001REMMET089RJAK 0100Z 01002KT 9999 FEW020 BKN035 OVC080 05/M03 Q1012 RMK 2CU020 7SC035 8AC080 A2990;EQDQ01+000000PRSWM2
0185477160999992000021402004+36030+140200FM-15+0029RJAK V0200701N002610105019N0112651N1+00601-00101999999ADDGA1071+010509999GA2081+024009999GF108991999999999999999999MA1101081999999MW1001REMMET075RJAK 0200Z 07005KT 9999 BKN035 OVC080 06/M01 Q1011 RMK 7SC035 8AC080 A2986;EQDQ01+000000PRSWM2
0234477160999992000021403004+36030+140200FM-15+0029RJAK V0200701N002610105019N0112651N1+00601+00201999999ADDGA1071+010509999GA2081+024009999GF108991999999999999999999MA1100911999999MW1001REMMET124RJAK 0300Z 07005KT 9999 BKN035 OVC080 06/02 Q1009 RMK 7SC035 8AC080 A2982 P/FR FCST 0312 BECMG 0305 BKN030SC TEMPO 0612 -SN;EQDQ01+000000PRSWM2
0219477160999992000021404004+36030+140200FM-15+0029RJAK V0200601N003610105019N0112651N1+00501+00201999999ADDGA1021+007509999GA2071+010509999GA3081+024009999GF108991999999999999999999MA1100811999999MW1001REMMET093RJAK 0400Z 06007KT 9999 FEW025 BKN035 OVC080 05/02 Q1008 RMK 2CU025 7SC035 8AC080 A2977 P/FR;EQDQ01+000000PRSWM2
0214477160999992000021405004+36030+140200FM-15+0029RJAK V0200601N002110090019N0112651N1+00701+00201999999ADDGA1021+006009999GA2071+009009999GA3071+024009999GF107991999999999999999999MA1100711999999MW1001REMMET088RJAK 0500Z 06004KT 9999 SCT020 BKN030 BKN080 07/02 Q1007 RMK 3CU020 7SC030 7AC080 A2975;EQDQ01+000000PRSWM2
0261477160999992000021406004+36030+140200FM-15+0029RJAK V0200901N003610105019N0112651N1+00701+00101999999ADDGA1021+007509999GA2071+010509999GA3071+024009999GF107991999999999999999999MA1100611999999MW1001REMMET135RJAK 0600Z 09007KT 9999 FEW025 BKN035 BKN080 07/01 Q1006 RMK 2CU025 7SC035 7AC080 A2972 FCST 0615 BECMG 0709 BKN030SC TEMPO 1015 -RASN;EQDQ01+000000PRSWM2
