0135477380999992000010100004+33120+139780FM-15+0095RJTH V0200401N004610105019N0112651N1+01301+00601999999ADDGA1071+010509999GF107991999999999999999999MA1101901999999MW1001REMMET060RJTH 0000Z 04009KT 9999 BKN035 13/06 Q1019 RMK 5CU035 A3010;
0135477380999992000010101004+33120+139780FM-15+0095RJTH V0200401N004612200019N0112651N1+01401+00501999999ADDGA1021+010509999GF104991999999999999999999MA1101901999999MW1001REMMET060RJTH 0100Z 04009KT 9999 SCT035 14/05 Q1019 RMK 4CU035 A3010;
0135477380999992000010102004+33120+139780FM-15+0095RJTH V0200401N005712200019N0112651N1+01501+00401999999ADDGA1021+010509999GF104991999999999999999999MA1101801999999MW1001REMMET060RJTH 0200Z 04011KT 9999 SCT035 15/04 Q1018 RMK 3CU035 A3008;
0135477380999992000010103004+33120+139780FM-15+0095RJTH V0200501N005712200019N0112651N1+01501+00401999999ADDGA1021+010509999GF104991999999999999999999MA1101691999999MW1001REMMET060RJTH 0300Z 05011KT 9999 SCT035 15/04 Q1017 RMK 3CU035 A3005;
0143477380999992000010104004+33120+139780FM-15+0095RJTH V0200301N004112200019N0112651N1+01401+00401999999ADDGA1021+010509999GF102991999999999999999999MA1101691999999MW1001REMMET068RJTH 0400Z 03008KT 360V070 9999 FEW035 14/04 Q1017 RMK 2CU035 A3005;
0143477380999992000010105004+33120+139780FM-15+0095RJTH V0200501N003612200019N0112651N1+01401+00401999999ADDGA1021+010509999GF102991999999999999999999MA1101691999999MW1001REMMET068RJTH 0500Z 05007KT 020V090 9999 FEW035 14/04 Q1017 RMK 2CU035 A3004;
0172477380999992000010106004+33120+139780FM-15+0095RJTH V0200501N003112200019N0112651N1+01401+00401999999ADDGA1021+010509999GA2021+013509999GF104991999999999999999999MA1101691999999MW1001REMMET081RJTH 0600Z 05006KT 010V080 9999 FEW035 SCT045 14/04 Q1017 RMK 2CU035 4SC045A3006;
0158477380999992000010107004+33120+139780FM-15+0095RJTH V0200401N002119999999N0112651N1+01301+00501999999ADDGA1021+010509999GA2071+999999999GF107991999999999999999999MA1101801999999MW1001REMMET067RJTH 0700Z 04004KT 9999 SCT035 BKN/// 13/05 Q1018 RMK 4CU035 A3006;
0158477380999992000010108004+33120+139780FM-15+0095RJTH V0200201N002610105019N0112651N1+01201+00501999999ADDGA1071+010509999GA2071+999999999GF107991999999999999999999MA1101801999999MW1001REMMET067RJTH 0800Z 02005KT 9999 BKN035 BKN/// 12/05 Q1018 RMK 5CU035 A3007;
0158477380999992000010109004+33120+139780FM-15+0095RJTH V0200101N002619999999N0112651N1+01201+00501999999ADDGA1021+010509999GA2071+999999999GF107991999999999999999999MA1101801999999MW1001REMMET067RJTH 0900Z 01005KT 9999 SCT035 BKN/// 12/05 Q1018 RMK 4CU035 A3008;
0158477380999992000010122004+33120+139780FM-15+0095RJTH V0200601N002612200019N0112651N1+00901+00501999999ADDGA1021+009009999GA2021+999999999GF104991999999999999999999MA1101801999999MW1001REMMET067RJTH 2200Z 06005KT 9999 FEW030 SCT/// 09/05 Q1018 RMK 1CU030 A3007;
0188477380999992000010123004+33120+139780FM-15+0095RJTH V0200801N002619999999N0112651N1+01001+00601999999ADDGA1021+009009999GA2021+013509999GA3071+999999999GF107991999999999999999999MA1101801999999MW1001REMMET081RJTH 2300Z 08005KT 9999 FEW030 SCT045 BKN/// 10/06 Q1018 RMK 1CU030 3SC045 A3007;
0185477380999992000010200004+33120+139780FM-15+0095RJTH V0200701N003119999999N0112651N1+01401+00601999999ADDGA1021+009009999GA2071+999999999GF107991999999999999999999MA1101801999999MW1001REMMET075RJTH 0000Z 07006KT 030V090 9999 FEW030 BKN/// 14/06 Q1018 RMK 1CU030 A3008;EQDQ01+000000PRSWM2
0185477380999992000010201004+33120+139780FM-15+0095RJTH V0200601N004119999999N0112651N1+01401+00501999999ADDGA1021+009009999GA2071+999999999GF107991999999999999999999MA1101801999999MW1001REMMET075RJTH 0100Z 06008KT 020V090 9999 FEW030 BKN/// 14/05 Q1018 RMK 1CU030 A3007;EQDQ01+000000PRSWM2
0177477380999992000010202004+33120+139780FM-15+0095RJTH V0200601N004119999999N0112651N1+01501+00401999999ADDGA1021+010509999GA2071+999999999GF107991999999999999999999MA1101691999999MW1001REMMET067RJTH 0200Z 06008KT 9999 FEW035 BKN/// 15/04 Q1017 RMK 1CU035 A3005;EQDQ01+000000PRSWM2
0177477380999992000010203004+33120+139780FM-15+0095RJTH V0200601N006219999999N0112651N1+01501+00501999999ADDGA1021+010509999GA2071+999999999GF107991999999999999999999MA1101591999999MW1001REMMET067RJTH 0300Z 06012KT 9999 FEW035 BKN/// 15/05 Q1016 RMK 1CU035 A3000;EQDQ01+000000PRSWM2
0214477380999992000010204004+33120+139780FM-15+0095RJTH V0200601N005710300019N0112651N1+01401+00501999999ADDGA1021+010509999GA2021+018009999GA3071+030009999GF107991999999999999999999MA1101491999999MW1001REMMET088RJTH 0400Z 06011KT 9999 FEW035 SCT060 BKN100 14/05 Q1015 RMK 1CU035 4SC060 6AC100 A2998;EQDQ01+000000PRSWM2
0206477380999992000010205004+33120+139780FM-15+0095RJTH V0200601N004610105019N0112651N1+01401+00701999999ADDGA1071+010509999GA2071+030009999GF107991999999999999999999MA1101491999999MW1801REMMET080RJTH 0500Z 06009KT 9999 -SHRA BKN035 BKN100 14/07 Q1015 RMK 5CU035 7AC100 A2998;EQDQ01+000003PRSWM1Q02    003PRSWM1
0206477380999992000010206004+33120+139780FM-15+0095RJTH V0200801N002610090019N0112651N1+01301+00801999999ADDGA1071+009009999GA2071+030009999GF107991999999999999999999MA1101491999999MW1801REMMET080RJTH 0600Z 08005KT 9999 -SHRA BKN030 BKN100 13/08 Q1015 RMK 5CU030 7AC100 A2999;EQDQ01+000003PRSWM1Q02    003PRSWM1
0214477380999992000010207004+33120+139780FM-15+0095RJTH V0200401N003610300019N0112651N1+01201+00901999999ADDGA1021+006009999GA2021+013509999GA3071+030009999GF107991999999999999999999MA1101491999999MW1001REMMET088RJTH 0700Z 04007KT 9999 FEW020 SCT045 BKN100 12/09 Q1015 RMK 1CU020 4SC045 6AC100 A2999;EQDQ01+000000PRSWM2
0207477380999992000010208004+33120+139780FM-15+0095RJTH V0200401N004119999999N0112651N1+01201+00901999999ADDGA1021+005409999GA2021+012009999GA3071+999999999GF107991999999999999999999MA1101491999999MW1001REMMET081RJTH 0800Z 04008KT 9999 FEW018 SCT040 BKN/// 12/09 Q1015 RMK 1CU018 3SC040 A2999;EQDQ01+000000PRSWM2
0177477380999992000010209004+33120+139780FM-15+0095RJTH V0200401N003110090019N0112651N1+01301+01001999999ADDGA1071+009009999GA2071+999999999GF107991999999999999999999MA1101491999999MW1001REMMET067RJTH 0900Z 04006KT 9999 BKN030 BKN/// 13/10 Q1015 RMK 5CU030 A2999;EQDQ01+000000PRSWM2
0154477380999992000010222004+33120+139780FM-15+0095RJTH V0202901N002612200019N0112651N1+01201+00901999999ADDGA1021+007509999GF102991999999999999999999MA1101291999999MW1001REMMET060RJTH 2200Z 29005KT 9999 FEW025 12/09 Q1013 RMK 2CU025 A2992;EQDQ01+000000PRSWM2
0154477380999992000010223004+33120+139780FM-15+0095RJTH V02099999999992200019N0112651N1+01301+01101999999ADDGA1021+007509999GF102991999999999999999999MA1101291999999MW1001REMMET060RJTH 2300Z VRB02KT 9999 FEW025 13/11 Q1013 RMK 1CU025 A2992;EQDQ01+000000PRSWM2
0162477380999992000010300004+33120+139780FM-15+0095RJTH V0202301N002612200019N0112651N1+01501+01001999999ADDGA1021+007509999GF102991999999999999999999MA1101291999999MW1001REMMET068RJTH 0000Z 23005KT 200V260 9999 FEW025 15/10 Q1013 RMK 1CU025 A2992;EQDQ01+000000PRSWM2
0162477380999992000010301004+33120+139780FM-15+0095RJTH V0202301N003612200019N0112651N1+01601+00701999999ADDGA1021+009009999GF102991999999999999999999MA1101291999999MW1001REMMET068RJTH 0100Z 23007KT 190V270 9999 FEW030 16/07 Q1013 RMK 1CU030 A2992;EQDQ01+000000PRSWM2
0107477380999992000010302004+33120+139780FM-15+0095RJTH V0202401N00461220001CN0099001N1+01701+00701999999ADDMA1101191999999MW1001REMMET055RJTH 0200Z 24009KT 190V280 CAVOK 17/07 Q1012 RMK A2990;EQDQ01+000000PRSWM2
0162477380999992000010303004+33120+139780FM-15+0095RJTH V0202401N005112200019N0112651N1+01701+00901999999ADDGA1021+009009999GF102991999999999999999999MA1101081999999MW1001REMMET068RJTH 0300Z 24010KT 200V270 9999 FEW030 17/09 Q1011 RMK 1CU030 A2987;EQDQ01+000000PRSWM2
0154477380999992000010304004+33120+139780FM-15+0095RJTH V0202301N006212200019N0112651N1+01701+00801999999ADDGA1021+009009999GF102991999999999999999999MA1101021999999MW1001REMMET060RJTH 0400Z 23012KT 9999 FEW030 17/08 Q1010 RMK 1CU030 A2984;EQDQ01+000000PRSWM2
0154477380999992000010305004+33120+139780FM-15+0095RJTH V0202401N006212200019N0112651N1+01701+00901999999ADDGA1021+009009999GF102991999999999999999999MA1101021999999MW1001REMMET060RJTH 0500Z 24012KT 9999 FEW030 17/09 Q1010 RMK 1CU030 A2983;EQDQ01+000000PRSWM2
0165477380999992000010306004+33120+139780FM-15+0095RJTH V0202301N006212200019N0112651N1+01701+00901999999ADDGA1021+009909999GF102991999999999999999999MA1101021999999MW1001OC101131REMMET063RJTH 0600Z 23012G22KT 9999 FEW033 17/09 Q1010 RMK 2CU033 A2983;EQDQ01+000000PRSWM2
0162477380999992000010307004+33120+139780FM-15+0095RJTH V0202501N007212200019N0112651N1+01701+01101999999ADDGA1021+007509999GF104991999999999999999999MA1101021999999MW1001REMMET068RJTH 0700Z 25014KT 230V290 9999 SCT025 17/11 Q1010 RMK 3CU025 A2985;EQDQ01+000000PRSWM2
0173477380999992000010308004+33120+139780FM-15+0095RJTH V0202601N006212200019N0112651N1+01601+00901999999ADDGA1021+009009999GF104991999999999999999999MA1101021999999MW1001OC101291REMMET071RJTH 0800Z 26012G25KT 230V300 9999 SCT030 16/09 Q1010 RMK 3CU030 A2985;EQDQ01+000000PRSWM2
0173477380999992000010309004+33120+139780FM-15+0095RJTH V0202901N005712200019N0112651N1+01501+01001999999ADDGA1021+009009999GF104991999999999999999999MA1101081999999MW1001OC101181REMMET071RJTH 0900Z 29011G23KT 230V310 9999 SCT030 15/10 Q1011 RMK 3CU030 A2988;EQDQ01+000000PRSWM2
0107477380999992000010322004+33120+139780FM-15+0095RJTH V0203001N00721220001CN0099001N1+01201+00401999999ADDMA1101591999999MW1001REMMET055RJTH 2200Z 30014KT 260V320 CAVOK 12/04 Q1016 RMK A3001;EQDQ01+000000PRSWM2
0162477380999992000010323004+33120+139780FM-15+0095RJTH V0202901N008712200019N0112651N1+01201+00401999999ADDGA1021+009009999GF102991999999999999999999MA1101591999999MW1001REMMET068RJTH 2300Z 29017KT 250V320 9999 FEW030 12/04 Q1016 RMK 1CU030 A3003;EQDQ01+000000PRSWM2
0173477380999992000010400004+33120+139780FM-15+0095RJTH V0203101N008712200019N0112651N1+01301+00501999999ADDGA1021+009009999GF102991999999999999999999MA1101591999999MW1001OC101391REMMET071RJTH 0000Z 31017G27KT 270V330 9999 FEW030 13/05 Q1016 RMK 1CU030 A3003;EQDQ01+000000PRSWM2
0173477380999992000010401004+33120+139780FM-15+0095RJTH V0203001N009312200019N0112651N1+01401+00501999999ADDGA1021+009009999GF102991999999999999999999MA1101691999999MW1001OC101591REMMET071RJTH 0100Z 30018G31KT 260V320 9999 FEW030 14/05 Q1017 RMK 2CU030 A3005;EQDQ01+000000PRSWM2
0173477380999992000010402004+33120+139780FM-15+0095RJTH V0203001N008212200019N0112651N1+01401+00501999999ADDGA1021+009009999GF102991999999999999999999MA1101691999999MW1001OC101341REMMET071RJTH 0200Z 30016G26KT 250V340 9999 FEW030 14/05 Q1017 RMK 1CU030 A3004;EQDQ01+000000PRSWM2
0162477380999992000010403004+33120+139780FM-15+0095RJTH V0202801N006712200019N0112651N1+01401+00501999999ADDGA1021+010509999GF102991999999999999999999MA1101591999999MW1001REMMET068RJTH 0300Z 28013KT 250V320 9999 FEW035 14/05 Q1016 RMK 1CU035 A3002;EQDQ01+000000PRSWM2
0162477380999992000010405004+33120+139780FM-15+0095RJTH V0202901N007212200019N0112651N1+01401+00501999999ADDGA1021+010509999GF102991999999999999999999MA1101591999999MW1001REMMET068RJTH 0500Z 29014KT 250V310 9999 FEW035 14/05 Q1016 RMK 1CU035 A3002;EQDQ01+000000PRSWM2
0154477380999992000010406004+33120+139780FM-15+0095RJTH V0202901N008212200019N0112651N1+01401+00501999999ADDGA1021+010509999GF102991999999999999999999MA1101691999999MW1001REMMET060RJTH 0600Z 29016KT 9999 FEW035 14/05 Q1017 RMK 1CU035 A3004;EQDQ01+000000PRSWM2
0162477380999992000010407004+33120+139780FM-15+0095RJTH V0202901N006712200019N0112651N1+01301+00601999999ADDGA1021+010509999GF102991999999999999999999MA1101691999999MW1001REMMET068RJTH 0700Z 29013KT 240V330 9999 FEW035 13/06 Q1017 RMK 1CU035 A3004;EQDQ01+000000PRSWM2
0154477380999992000010408004+33120+139780FM-15+0095RJTH V0203001N006712200019N0112651N1+01201+00601999999ADDGA1021+010509999GF102991999999999999999999MA1101691999999MW1001REMMET060RJTH 0800Z 30013KT 9999 FEW035 12/06 Q1017 RMK 1CU035 A3006;EQDQ01+000000PRSWM2
0154477380999992000010409004+33120+139780FM-15+0095RJTH V0203001N007712200019N0112651N1+01301+00601999999ADDGA1021+010509999GF102991999999999999999999MA1101801999999MW1001REMMET060RJTH 0900Z 30015KT 9999 FEW035 13/06 Q1018 RMK 1CU035 A3009;EQDQ01+000000PRSWM2
0154477380999992000010422004+33120+139780FM-15+0095RJTH V02099999999992200019N0112651N1+00801+00601999999ADDGA1021+009009999GF102991999999999999999999MA1102201999999MW1001REMMET060RJTH 2200Z VRB02KT 9999 FEW030 08/06 Q1022 RMK 1CU030 A3020;EQDQ01+000000PRSWM2
0154477380999992000010423004+33120+139780FM-15+0095RJTH V02099999999992200019N0112651N1+01001+01001999999ADDGA1021+009009999GF102991999999999999999999MA1102201999999MW1001REMMET060RJTH 2300Z VRB03KT 9999 FEW030 10/10 Q1022 RMK 1CU030 A3021;EQDQ01+000000PRSWM2
0177477380999992000010500004+33120+139780FM-15+0095RJTH V02099999999992200019N0112651N1+01401+00901999999ADDGA1021+009009999GA2021+999999999GF104991999999999999999999MA1102301999999MW1001REMMET067RJTH 0000Z VRB03KT 9999 FEW030 SCT/// 14/09 Q1023 RMK 1CU030 A3023;EQDQ01+000000PRSWM2
0185477380999992000010501004+33120+139780FM-15+0095RJTH V0201701N002112200019N0112651N1+01501+00801999999ADDGA1021+009009999GA2021+999999999GF104991999999999999999999MA1102301999999MW1001REMMET075RJTH 0100Z 17004KT 130V250 9999 FEW030 SCT/// 15/08 Q1023 RMK 1CU030 A3021;EQDQ01+000000PRSWM2
0177477380999992000010502004+33120+139780FM-15+0095RJTH V02099999999992200019N0112651N1+01501+00701999999ADDGA1021+009009999GA2021+999999999GF104991999999999999999999MA1102201999999MW1001REMMET067RJTH 0200Z VRB03KT 9999 FEW030 SCT/// 15/07 Q1022 RMK 1CU030 A3019;EQDQ01+000000PRSWM2
0162477380999992000010503004+33120+139780FM-15+0095RJTH V0202401N002112200019N0112651N1+01501+00701999999ADDGA1021+009009999GF102991999999999999999999MA1102101999999MW1001REMMET068RJTH 0300Z 24004KT 170V300 9999 FEW030 15/07 Q1021 RMK 1CU030 A3017;EQDQ01+000000PRSWM2
0162477380999992000010504004+33120+139780FM-15+0095RJTH V0202601N003112200019N0112651N1+01501+00601999999ADDGA1021+009009999GF102991999999999999999999MA1102101999999MW1001REMMET068RJTH 0400Z 26006KT 220V300 9999 FEW030 15/06 Q1021 RMK 1CU030 A3017;EQDQ01+000000PRSWM2
0185477380999992000010505004+33120+139780FM-15+0095RJTH V0202601N002612200019N0112651N1+01501+00601999999ADDGA1021+009009999GA2021+999999999GF104991999999999999999999MA1102101999999MW1001REMMET075RJTH 0500Z 26005KT 190V320 9999 FEW030 SCT/// 15/06 Q1021 RMK 1CU030 A3016;EQDQ01+000000PRSWM2
0107477380999992000010506004+33120+139780FM-15+0095RJTH V0202701N00311220001CN0099001N1+01501+00601999999ADDMA1102001999999MW1001REMMET055RJTH 0600Z 27006KT 220V320 CAVOK 15/06 Q1020 RMK A3015;EQDQ01+000000PRSWM2
0162477380999992000010507004+33120+139780FM-15+0095RJTH V0202801N002112200019N0112651N1+01401+00701999999ADDGA1021+009009999GF102991999999999999999999MA1102101999999MW1001REMMET068RJTH 0700Z 28004KT 240V310 9999 FEW030 14/07 Q1021 RMK 1CU030 A3016;EQDQ01+000000PRSWM2
0099477380999992000010508004+33120+139780FM-15+0095RJTH V0203001N00211220001CN0099001N1+01301+00701999999ADDMA1102201999999MW1001REMMET047RJTH 0800Z 30004KT CAVOK 13/07 Q1022 RMK A3018;EQDQ01+000000PRSWM2
0099477380999992000010509004+33120+139780FM-15+0095RJTH V0209999999999220001CN0099001N1+01101+00701999999ADDMA1102201999999MW1001REMMET047RJTH 0900Z VRB02KT CAVOK 11/07 Q1022 RMK A3020;EQDQ01+000000PRSWM2
0099477380999992000010522004+33120+139780FM-15+0095RJTH V0209999999999220001CN0099001N1+01201+00801999999ADDMA1102001999999MW1001REMMET047RJTH 2200Z VRB02KT CAVOK 12/08 Q1020 RMK A3015;EQDQ01+000000PRSWM2
0107477380999992000010601004+33120+139780FM-15+0095RJTH V0201901N00361220001CN0099001N1+01601+00901999999ADDMA1102001999999MW1001REMMET055RJTH 0100Z 19007KT 140V220 CAVOK 16/09 Q1020 RMK A3014;EQDQ01+000000PRSWM2
0192477380999992000010602004+33120+139780FM-15+0095RJTH V0201901N003610300019N0112651N1+01701+01001999999ADDGA1021+012009999GA2071+030009999GF107991999999999999999999MA1101901999999MW1001REMMET082RJTH 0200Z 19007KT 150V220 9999 FEW040 BKN100 17/10 Q1019 RMK 1SC040 7AC100 A3011;EQDQ01+000000PRSWM2
0112477380999992000010603004+33120+139780FM-15+0095RJTH V0201401N00261220001CN0099001N1+01801+01001999999ADDMA1101691999999MW1001REMMET060RJTH 0300Z 14005KT 090V210 CAVOK 18/10 Q1017 RMK A3005 P/FR;EQDQ01+000000PRSWM2
0226477380999992000010604004+33120+139780FM-15+0095RJTH V0201901N004619999999N0112651N1+01901+01001999999ADDGA1021+010509999GA2021+030009999GA3071+999999999GF107991999999999999999999MA1101591999999MW1001OC100981REMMET092RJTH 0400Z 19009G19KT 120V230 9999 FEW035 SCT100 BKN/// 19/10 Q1016 RMK 1CU035 4AC100 A3003;EQDQ01+000000PRSWM2
0118477380999992000010605004+33120+139780FM-15+0095RJTH V0202001N00461220001CN0099001N1+01901+00901999999ADDMA1101591999999MW1001OC100981REMMET058RJTH 0500Z 20009G19KT 150V250 CAVOK 19/09 Q1016 RMK A3001;EQDQ01+000000PRSWM2
0192477380999992000010606004+33120+139780FM-15+0095RJTH V0201901N004610300019N0112651N1+01801+01201999999ADDGA1021+009009999GA2071+030009999GF107991999999999999999999MA1101491999999MW1001REMMET082RJTH 0600Z 19009KT 140V220 9999 FEW030 BKN100 18/12 Q1015 RMK 1CU030 5AC100 A3000;EQDQ01+000000PRSWM2
0184477380999992000010607004+33120+139780FM-15+0095RJTH V02099999999990240019N0112651N1+01801+01201999999ADDGA1021+009009999GA2071+024009999GF107991999999999999999999MA1101591999999MW1001REMMET074RJTH 0700Z VRB05KT 9999 FEW030 BKN080 18/12 Q1016 RMK 1CU030 7AC080 A3000;EQDQ01+000000PRSWM2
0192477380999992000010608004+33120+139780FM-15+0095RJTH V0201801N002610240019N0112651N1+01801+01201999999ADDGA1021+007509999GA2071+024009999GF107991999999999999999999MA1101591999999MW1001REMMET082RJTH 0800Z 18005KT 100V260 9999 FEW025 BKN080 18/12 Q1016 RMK 2CU025 7AC080 A3000;EQDQ01+000000PRSWM2
0215477380999992000010609004+33120+139780FM-15+0095RJTH V0201901N004619999999N0112651N1+01801+01301999999ADDGA1021+007509999GA2021+030009999GA3071+999999999GF107991999999999999999999MA1101491999999MW1001REMMET089RJTH 0900Z 19009KT 130V250 9999 FEW025 SCT100 BKN/// 18/13 Q1015 RMK 2CU025 3AC100 A2999;EQDQ01+000000PRSWM2
0252477380999992000010622004+33120+139780FM-15+0095RJTH V0202201N00511012001CN0112651N1+01801+01601999999ADDGA1021+003009999GA2021+006009099GA3021+012009999GA4071+999999999GF107991999999999999999999MA1101081999999MW1001REMMET110RJTH 2200Z 22010KT 190V260 9999 FEW010 FEW020CB SCT040 BKN/// 18/16 Q1011 RMK 2CU010 1CB020 3SC040 A2986 CB W;EQDQ01+000000PRSWM2
0215477380999992000010623004+33120+139780FM-15+0095RJTH V0202201N005119999999N0112651N1+01801+01601999999ADDGA1021+003009999GA2021+005109999GA3071+999999999GF107991999999999999999999MA1101081999999MW1001REMMET089RJTH 2300Z 22010KT 180V250 9999 FEW010 SCT017 BKN/// 18/16 Q1011 RMK 1CU010 4CU017 A2987;EQDQ01+000000PRSWM2
0244477380999992000010700004+33120+139780FM-15+0095RJTH V0202301N005710090019N0112651N1+01801+01601999999ADDGA1021+004509999GA2071+009009999GA3071+030009999GF107991999999999999999999MA1101081999999MW1801REMMET102RJTH 0000Z 23011KT 200V260 9999 -SHRA FEW015 BKN030 BKN100 18/16 Q1011 RMK 1CU015 5CU030 6AC100 A2988;EQDQ01+000003PRSWM1Q02    003PRSWM1
0215477380999992000010701004+33120+139780FM-15+0095RJTH V0202101N004619999999N0112651N1+01801+01301999999ADDGA1021+009009999GA2021+030009999GA3071+999999999GF107991999999999999999999MA1101081999999MW1001REMMET089RJTH 0100Z 21009KT 180V240 9999 SCT030 SCT100 BKN/// 18/13 Q1011 RMK 3CU030 4AC100 A2986;EQDQ01+000000PRSWM2
0214477380999992000010702004+33120+139780FM-15+0095RJTH V0202201N004110300019N0112651N1+01801+01501999999ADDGA1021+004509999GA2021+015009999GA3071+030009999GF107991999999999999999999MA1101021999999MW1001REMMET088RJTH 0200Z 22008KT 9999 FEW015 SCT050 BKN100 18/15 Q1010 RMK 2CU015 4SC050 6AC100 A2985;EQDQ01+000000PRSWM2
0192477380999992000010703004+33120+139780FM-15+0095RJTH V0202801N004612200019N0112651N1+01801+01301999999ADDGA1021+005409999GA2021+036009999GF104991999999999999999999MA1101021999999MW1001REMMET082RJTH 0300Z 28009KT 250V320 9999 SCT018 SCT120 18/13 Q1010 RMK 3CU018 3AC120 A2984;EQDQ01+000000PRSWM2
0192477380999992000010704004+33120+139780FM-15+0095RJTH V0202901N004612200019N0112651N1+01801+01201999999ADDGA1021+006009999GA2021+036009999GF104991999999999999999999MA1100911999999MW1001REMMET082RJTH 0400Z 29009KT 240V330 9999 FEW020 SCT120 18/12 Q1009 RMK 1CU020 3AC120 A2982;EQDQ01+000000PRSWM2
0162477380999992000010705004+33120+139780FM-15+0095RJTH V0202801N005112200019N0112651N1+01801+01301999999ADDGA1021+005109999GF102991999999999999999999MA1101021999999MW1001REMMET068RJTH 0500Z 28010KT 230V340 9999 FEW017 18/13 Q1010 RMK 2CU017 A2983;EQDQ01+000000PRSWM2
0185477380999992000010706004+33120+139780FM-15+0095RJTH V0202901N005112200019N0112651N1+01701+01101999999ADDGA1021+007509999GA2021+999999999GF104991999999999999999999MA1101021999999MW1001REMMET075RJTH 0600Z 29010KT 230V320 9999 FEW025 SCT/// 17/11 Q1010 RMK 1CU025 A2985;EQDQ01+000000PRSWM2
0185477380999992000010707004+33120+139780FM-15+0095RJTH V0202901N004112200019N0112651N1+01601+01101999999ADDGA1021+007509999GA2021+999999999GF104991999999999999999999MA1101081999999MW1001REMMET075RJTH 0700Z 29008KT 230V350 9999 FEW025 SCT/// 16/11 Q1011 RMK 1CU025 A2986;EQDQ01+000000PRSWM2
0145477380999992000010708004+33120+139780FM-15+0095RJTH V0202801N002612200019N0112651N1+01501+01001999999ADDGA1021+007509999GF102991999999999999999999MA1101081999999MW1001REMMET051RJTH 0800Z 28005KT 230V320 9999 FEW025 15/10 Q1011;EQDQ01+000000PRSWM2
0162477380999992000010709004+33120+139780FM-15+0095RJTH V0202801N003612200019N0112651N1+01401+00901999999ADDGA1021+007509999GF102991999999999999999999MA1101191999999MW1001REMMET068RJTH 0900Z 28007KT 220V360 9999 FEW025 14/09 Q1012 RMK 1CU025 A2990;EQDQ01+000000PRSWM2
0183477380999992000010718004+33120+139780FM-12+0095RJTH V0201801N003612200019N0180001N1-00371-01041102301ADDAA106000091GA1001+999999999GF100991001001999999001001MA1999999102261MD1010021+9999REMSYN070AAXX  07184 47738 32968 01807 11037 21104 30226 40230 50002 333 92023;EQDQ01  00002PRCP06
0185477380999992000010722004+33120+139780FM-15+0095RJTH V0202901N006712200019N0112651N1+01101+00501999999ADDGA1021+007509999GA2021+999999999GF104991999999999999999999MA1101691999999MW1001REMMET075RJTH 2200Z 29013KT 260V320 9999 FEW025 SCT/// 11/05 Q1017 RMK 1CU025 A3004;EQDQ01+000000PRSWM2
0154477380999992000010723004+33120+139780FM-15+0095RJTH V0202901N006212200019N0112651N1+01201+00601999999ADDGA1021+007509999GF102991999999999999999999MA1101691999999MW1001REMMET060RJTH 2300Z 29012KT 9999 FEW025 12/06 Q1017 RMK 1CU025 A3006;EQDQ01+000000PRSWM2
0162477380999992000010800004+33120+139780FM-15+0095RJTH V0202901N006212200019N0112651N1+01301+00401999999ADDGA1021+007509999GF102991999999999999999999MA1101691999999MW1001REMMET068RJTH 0000Z 29012KT 240V320 9999 FEW025 13/04 Q1017 RMK 1CU025 A3005;EQDQ01+000000PRSWM2
0173477380999992000010801004+33120+139780FM-15+0095RJTH V0202901N005712200019N0112651N1+01401+00501999999ADDGA1021+009009999GF102991999999999999999999MA1101691999999MW1001OC101081REMMET071RJTH 0100Z 29011G21KT 250V340 9999 FEW030 14/05 Q1017 RMK 1CU030 A3006;EQDQ01+000000PRSWM2
0185477380999992000010802004+33120+139780FM-15+0095RJTH V0202801N006212200019N0112651N1+01401+00601999999ADDGA1021+009009999GA2021+999999999GF104991999999999999999999MA1101691999999MW1001REMMET075RJTH 0200Z 28012KT 230V310 9999 FEW030 SCT/// 14/06 Q1017 RMK 1CU030 A3006;EQDQ01+000000PRSWM2
0154477380999992000010803004+33120+139780FM-15+0095RJTH V0202801N006712200019N0112651N1+01401+00701999999ADDGA1021+007509999GF102991999999999999999999MA1101691999999MW1001REMMET060RJTH 0300Z 28013KT 9999 FEW025 14/07 Q1017 RMK 2CU025 A3005;EQDQ01+000000PRSWM2
0162477380999992000010804004+33120+139780FM-15+0095RJTH V0202701N006712200019N0112651N1+01301+00601999999ADDGA1021+007509999GF102991999999999999999999MA1101691999999MW1001REMMET068RJTH 0400Z 27013KT 220V300 9999 FEW025 13/06 Q1017 RMK 2CU025 A3004;EQDQ01+000000PRSWM2
0162477380999992000010805004+33120+139780FM-15+0095RJTH V0203001N007712200019N0112651N1+01401+00601999999ADDGA1021+007509999GF102991999999999999999999MA1101691999999MW1001REMMET068RJTH 0500Z 30015KT 250V330 9999 FEW025 14/06 Q1017 RMK 1CU025 A3004;EQDQ01+000000PRSWM2
0173477380999992000010806004+33120+139780FM-15+0095RJTH V0202901N005712200019N0112651N1+01301+00601999999ADDGA1021+007509999GF102991999999999999999999MA1101801999999MW1001OC101181REMMET071RJTH 0600Z 29011G23KT 250V330 9999 FEW025 13/06 Q1018 RMK 1CU025 A3007;EQDQ01+000000PRSWM2
0177477380999992000010807004+33120+139780FM-15+0095RJTH V02099999999992200019N0112651N1+01201+00501999999ADDGA1021+007509999GA2021+999999999GF104991999999999999999999MA1101801999999MW1001REMMET067RJTH 0700Z VRB03KT 9999 FEW025 SCT/// 12/05 Q1018 RMK 1CU025 A3007;EQDQ01+000000PRSWM2
0177477380999992000010808004+33120+139780FM-15+0095RJTH V02099999999992200019N0112651N1+01101+00501999999ADDGA1021+007509999GA2021+999999999GF104991999999999999999999MA1101801999999MW1001REMMET067RJTH 0800Z VRB03KT 9999 FEW025 SCT/// 11/05 Q1018 RMK 1CU025 A3008;EQDQ01+000000PRSWM2
0177477380999992000010809004+33120+139780FM-15+0095RJTH V02099999999992200019N0112651N1+00901+00501999999ADDGA1021+007509999GA2021+999999999GF104991999999999999999999MA1101801999999MW1001REMMET067RJTH 0900Z VRB03KT 9999 FEW025 SCT/// 09/05 Q1018 RMK 1CU025 A3009;EQDQ01+000000PRSWM2
0177477380999992000010822004+33120+139780FM-15+0095RJTH V02099999999999999999N0112651N1+00901+00601999999ADDGA1021+007509999GA2071+999999999GF107991999999999999999999MA1102101999999MW1001REMMET067RJTH 2200Z VRB03KT 9999 FEW025 BKN/// 09/06 Q1021 RMK 2CU025 A3016;EQDQ01+000000PRSWM2
0177477380999992000010823004+33120+139780FM-15+0095RJTH V02099999999999999999N0112651N1+01201+00701999999ADDGA1021+007509999GA2071+999999999GF107991999999999999999999MA1102101999999MW1001REMMET067RJTH 2300Z VRB02KT 9999 SCT025 BKN/// 12/07 Q1021 RMK 3CU025 A3018;EQDQ01+000000PRSWM2
0185477380999992000010900004+33120+139780FM-15+0095RJTH V0202801N003119999999N0112651N1+01301+00701999999ADDGA1021+007509999GA2071+999999999GF107991999999999999999999MA1102201999999MW1001REMMET075RJTH 0000Z 28006KT 230V330 9999 FEW025 BKN/// 13/07 Q1022 RMK 1CU025 A3020;EQDQ01+000000PRSWM2
0215477380999992000010901004+33120+139780FM-15+0095RJTH V0202801N004119999999N0112651N1+01301+00701999999ADDGA1021+007509999GA2021+036009999GA3071+999999999GF107991999999999999999999MA1102201999999MW1001REMMET089RJTH 0100Z 28008KT 240V330 9999 FEW025 SCT120 BKN/// 13/07 Q1022 RMK 1CU025 3AC120 A3020;EQDQ01+000000PRSWM2
0215477380999992000010902004+33120+139780FM-15+0095RJTH V0202801N003619999999N0112651N1+01301+00601999999ADDGA1021+007509999GA2021+036009999GA3071+999999999GF107991999999999999999999MA1102101999999MW1001REMMET089RJTH 0200Z 28007KT 220V320 9999 FEW025 SCT120 BKN/// 13/06 Q1021 RMK 1CU025 3AC120 A3016;EQDQ01+000000PRSWM2
0107477380999992000010903004+33120+139780FM-15+0095RJTH V0202901N00361220001CN0099001N1+01401+00601999999ADDMA1102001999999MW1001REMMET055RJTH 0300Z 29007KT 240V330 CAVOK 14/06 Q1020 RMK A3014;EQDQ01+000000PRSWM2
0107477380999992000010904004+33120+139780FM-15+0095RJTH V0202601N00261220001CN0099001N1+01301+00601999999ADDMA1101901999999MW1001REMMET055RJTH 0400Z 26005KT 210V320 CAVOK 13/06 Q1019 RMK A3011;EQDQ01+000000PRSWM2
0099477380999992000010905004+33120+139780FM-15+0095RJTH V0209999999999220001CN0099001N1+01401+00601999999ADDMA1101901999999MW1001REMMET047RJTH 0500Z VRB03KT CAVOK 14/06 Q1019 RMK A3011;EQDQ01+000000PRSWM2
0089477380999992000010907004+33120+139780FM-15+0095RJTH V0209999999999220001CN0099001N1+01301+00701999999ADDMA1102001999999MW1001REMMET037RJTH 0700Z VRB03KT CAVOK 13/07 Q1020;EQDQ01+000000PRSWM2
0107477380999992000010908004+33120+139780FM-15+0095RJTH V0201101N00211220001CN0099001N1+01201+00601999999ADDMA1102101999999MW1001REMMET055RJTH 0800Z 11004KT 070V180 CAVOK 12/06 Q1021 RMK A3016;EQDQ01+000000PRSWM2
0099477380999992000010909004+33120+139780FM-15+0095RJTH V0209999999999220001CN0099001N1+01201+00601999999ADDMA1102101999999MW1001REMMET047RJTH 0900Z VRB03KT CAVOK 12/06 Q1021 RMK A3017;EQDQ01+000000PRSWM2
0246477380999992000010922004+33120+139780FM-15+0095RJTH V0201901N006710180019N0112651N1+01701+01401999999ADDGA1021+004209999GA2071+018009999GA3071+030009999GF107991999999999999999999MA1101081999999MW1161OC101291REMMET096RJTH 2200Z 19013G25KT 9999 VCSH SCT014 BKN060 BKN100 17/14 Q1011 RMK 3CU014 5SC060 6AC100 A2986;EQDQ01+000003PRSWM1Q02    003PRSWM1
0243477380999992000010923004+33120+139780FM-15+0095RJTH V0201901N007710060019N0112651N1+01701+01401999999ADDGA1021+004509999GA2071+006009999GA3071+030009999GF107991999999999999999999MA1101021999999MW1811REMMET101RJTH 2300Z 19015KT 160V220 9999 SHRA SCT015 BKN020 BKN100 17/14 Q1010 RMK 3CU015 5CU020 7AC100 A2985;EQDQ01+000003PRSWM1Q02    003PRSWM1
0262477380999992000010923174+33120+139780FM-16+0095RJTH V0201901N008210060019N0112651N1+01701+01401999999ADDGA1021+003009999GA2071+006009999GA3071+030009999GF107991999999999999999999MA1101021999999MW1801OC101491REMMET112RJTH 092317Z 19016G29KT 150V220 9999 -SHRA FEW010 BKN020 BKN100 17/14 Q1010 RERA RMK 2CU010 5CU020 7AC100 A2984;EQDQ01+000003PRSWM1Q02    003PRSWM1
0260477380999992000011000004+33120+139780FM-15+0095RJTH V0201901N007210060019N0112651N1+01701+01501999999ADDGA1021+002109999GA2071+006009999GA3071+030009999GF107991999999999999999999MA1100911999999MW1801OC101291REMMET110RJTH 0000Z 19014G25KT 150V220 9999 -SHRA SCT007 BKN020 BKN100 17/15 Q1009 RERA RMK 4CU007 5CU020 7AC100 A2982;EQDQ01+000003PRSWM1Q02    003PRSWM1
0257477380999992000011000144+33120+139780FM-16+0095RJTH V0201901N007710024019N0112651N1+01701+01601999999ADDGA1021+001209999GA2071+002409999GA3071+006009999GF107991999999999999999999MA1101021999999MW1801OC101341REMMET107RJTH 100014Z 19015G26KT 140V220 9999 -SHRA FEW004 BKN008 BKN020 17/16 Q1010 RMK 1ST004 6CU008 7CU020 A2983;EQDQ01+000003PRSWM1Q02    003PRSWM1
0257477380999992000011000404+33120+139780FM-16+0095RJTH V0201901N006710018019N0112651N1+01701+01601999999ADDGA1021+000909999GA2071+001809999GA3071+006009999GF107991999999999999999999MA1100911999999MW1801OC101291REMMET107RJTH 100040Z 19013G25KT 150V230 9999 -SHRA FEW003 BKN006 BKN020 17/16 Q1009 RMK 1ST003 6CU006 7CU020 A2982;EQDQ01+000003PRSWM1Q02    003PRSWM1
0255477380999992000011001004+33120+139780FM-15+0095RJTH V0202001N007210018019N0112651N1+01701+01601999999ADDGA1021+001209999GA2071+001809999GA3071+006009999GF107991999999999999999999MA1100911999999MW1801OC101341REMMET105RJTH 0100Z 20014G26KT 160V230 9999 -SHRA FEW004 BKN006 BKN020 17/16 Q1009 RMK 1ST004 5CU006 7CU020 A2981;EQDQ01+000003PRSWM1Q02    003PRSWM1
0233477380999992000011002004+33120+139780FM-15+0095RJTH V0202101N007210024019N0112651N1+01801+01701999999ADDGA1021+001809999GA2071+002409999GA3071+030009999GF107991999999999999999999MA1100711999999MW1001OC101291REMMET099RJTH 0200Z 21014G25KT 160V230 9999 FEW006 BKN008 BKN100 18/17 Q1007 RMK 1ST006 5CU008 7AC100 A2975;EQDQ01+000000PRSWM2
0232477380999992000011002274+33120+139780FM-16+0095RJTH V0202501N005710030019N0030001N1+01701+01601999999ADDGA1021+001809999GA2071+003009999GF107991999999999999999999MA1100811999999MW1821REMMET090RJTH 100227Z 25011KT 3000 +SHRA BR SCT006 BKN010 17/16 Q1008 RMK 3ST006 7CU010 A2978 RI++;EQDQ01+000100PRSWM3Q02+000003PRSWM1Q03    003PRSWM1
0239477380999992000011002424+33120+139780FM-16+0095RJTH V0202501N005710009019N0020001N1+01701+01601999999ADDGA1071+000909999GA2071+003009999GF107991999999999999999999MA1100811999999MW1811REMMET097RJTH 100242Z 25011KT 210V290 2000 SHRA BR BKN003 BKN010 17/16 Q1008 RERA RMK 5ST003 7CU010 A2977;EQDQ01+000100PRSWM3Q02+000003PRSWM1Q03    003PRSWM1
0219477380999992000011003004+33120+139780FM-15+0095RJTH V0202201N003110090019N0112651N1+01701+01601999999ADDGA1021+000609999GA2071+009009999GF107991999999999999999999MA1100711999999MW1801REMMET093RJTH 0300Z 22006KT 170V270 9999 -SHRA SCT002 BKN030 17/16 Q1007 RERA RMK 4ST002 6CU030 A2976;EQDQ01+000003PRSWM1Q02    003PRSWM1
0203477380999992000011004004+33120+139780FM-15+0095RJTH V0202901N007210024019N0112651N1+01601+01501999999ADDGA1021+001209999GA2071+002409999GF107991999999999999999999MA1100711999999MW1001OC101291REMMET085RJTH 0400Z 29014G25KT 260V320 9999 FEW004 BKN008 16/15 Q1007 RMK 1ST004 5CU008 A2974;EQDQ01+000000PRSWM2
0175477380999992000011004314+33120+139780FM-16+0095RJTH V0202901N008212200019N0112651N1+01501+01201999999ADDGA1021+002709999GF104991999999999999999999MA1100711999999MW1001OC101491REMMET073RJTH 100431Z 29016G29KT 240V320 9999 SCT009 15/12 Q1007 RMK 3CU009 A2974;EQDQ01+000000PRSWM2
0173477380999992000011005004+33120+139780FM-15+0095RJTH V0203001N010312200019N0112651N1+01501+01201999999ADDGA1021+004509999GF102991999999999999999999MA1100711999999MW1001OC101651REMMET071RJTH 0500Z 30020G32KT 260V330 9999 FEW015 15/12 Q1007 RMK 2CU015 A2975;EQDQ01+000000PRSWM2
0165477380999992000011006004+33120+139780FM-15+0095RJTH V0203001N010812200019N0112651N1+01501+00901999999ADDGA1021+007509999GF102991999999999999999999MA1100811999999MW1001OC101591REMMET063RJTH 0600Z 30021G31KT 9999 FEW025 15/09 Q1008 RMK 1CU025 A2977;EQDQ01+000000PRSWM2
0188477380999992000011007004+33120+139780FM-15+0095RJTH V0202901N010812200019N0112651N1+01501+00801999999ADDGA1021+009009999GA2021+999999999GF104991999999999999999999MA1100811999999MW1001OC101801REMMET070RJTH 0700Z 29021G35KT 9999 FEW030 SCT/// 15/08 Q1008 RMK 1CU030 A2979;EQDQ01+000000PRSWM2
0171477380999992000011008004+33120+139780FM-15+0095RJTH V0202901N009312200019N0112651N1+01401+00701999999ADDGA1021+009009999GA2021+999999999GF104991999999999999999999MA1101021999999MW1001OC101541REMMET053RJTH 0800Z 29018G30KT 9999 FEW030 SCT/// 14/07 Q1010;EQDQ01+000000PRSWM2
0165477380999992000011009004+33120+139780FM-15+0095RJTH V0202901N009312200019N0112651N1+01401+00801999999ADDGA1021+009009999GF102991999999999999999999MA1101081999999MW1001OC101491REMMET063RJTH 0900Z 29018G29KT 9999 FEW030 14/08 Q1011 RMK 1CU030 A2987;EQDQ01+000000PRSWM2
0154477380999992000011022004+33120+139780FM-15+0095RJTH V0200501N004110090019N0112651N1+01301+00701999999ADDGA1071+009009999GF107991999999999999999999MA1101691999999MW1001REMMET060RJTH 2200Z 05008KT 9999 BKN030 13/07 Q1017 RMK 7CU030 A3004;EQDQ01+000000PRSWM2
0184477380999992000011023004+33120+139780FM-15+0095RJTH V0200501N006212200019N0112651N1+01301+00701999999ADDGA1021+009009999GA2021+012009999GF104991999999999999999999MA1101691999999MW1001REMMET074RJTH 2300Z 05012KT 9999 FEW030 SCT040 13/07 Q1017 RMK 1CU030 4SC040 A3006;EQDQ01+000000PRSWM2
0184477380999992000011100004+33120+139780FM-15+0095RJTH V0200501N006212200019N0112651N1+01401+00701999999ADDGA1021+009009999GA2021+012009999GF104991999999999999999999MA1101801999999MW1001REMMET074RJTH 0000Z 05012KT 9999 FEW030 SCT040 14/07 Q1018 RMK 1CU030 3SC040 A3008;EQDQ01+000000PRSWM2
0154477380999992000011101004+33120+139780FM-15+0095RJTH V0200501N006712200019N0112651N1+01401+00701999999ADDGA1021+009009999GF104991999999999999999999MA1101901999999MW1001REMMET060RJTH 0100Z 05013KT 9999 SCT030 14/07 Q1019 RMK 4CU030 A3009;EQDQ01+000000PRSWM2
0184477380999992000011102004+33120+139780FM-15+0095RJTH V0200501N008212200019N0112651N1+01301+00701999999ADDGA1021+007509999GA2021+009009999GF104991999999999999999999MA1101801999999MW1001REMMET074RJTH 0200Z 05016KT 9999 SCT025 SCT030 13/07 Q1018 RMK 4CU025 3CU030 A3008;EQDQ01+000000PRSWM2
0184477380999992000011103004+33120+139780FM-15+0095RJTH V0200501N007712200019N0112651N1+01401+00701999999ADDGA1021+007509999GA2021+009009999GF104991999999999999999999MA1101801999999MW1001REMMET074RJTH 0300Z 05015KT 9999 SCT025 SCT030 14/07 Q1018 RMK 4CU025 3CU030 A3006;EQDQ01+000000PRSWM2
0184477380999992000011104004+33120+139780FM-15+0095RJTH V0200501N007712200019N0112651N1+01301+00701999999ADDGA1021+007509999GA2021+009009999GF104991999999999999999999MA1101691999999MW1001REMMET074RJTH 0400Z 05015KT 9999 SCT025 SCT030 13/07 Q1017 RMK 4SC025 3CU030 A3005;EQDQ01+000000PRSWM2
0184477380999992000011105004+33120+139780FM-15+0095RJTH V0200501N008712200019N0112651N1+01401+00701999999ADDGA1021+007509999GA2021+010509999GF104991999999999999999999MA1101691999999MW1001REMMET074RJTH 0500Z 05017KT 9999 SCT025 SCT035 14/07 Q1017 RMK 3CU025 3CU035 A3005;EQDQ01+000000PRSWM2
0154477380999992000011106004+33120+139780FM-15+0095RJTH V0200501N008212200019N0112651N1+01401+00801999999ADDGA1021+007509999GF104991999999999999999999MA1101691999999MW1001REMMET060RJTH 0600Z 05016KT 9999 SCT025 14/08 Q1017 RMK 4SC025 A3006;EQDQ01+000000PRSWM2
0154477380999992000011107004+33120+139780FM-15+0095RJTH V0200501N006710066019N0112651N1+01401+00801999999ADDGA1071+006609999GF107991999999999999999999MA1101801999999MW1001REMMET060RJTH 0700Z 05013KT 9999 BKN022 14/08 Q1018 RMK 5SC022 A3007;EQDQ01+000000PRSWM2
0154477380999992000011108004+33120+139780FM-15+0095RJTH V0200401N006710066019N0112651N1+01401+00901999999ADDGA1071+006609999GF107991999999999999999999MA1101801999999MW1001REMMET060RJTH 0800Z 04013KT 9999 BKN022 14/09 Q1018 RMK 6CU022 A3008;EQDQ01+000000PRSWM2
0154477380999992000011109004+33120+139780FM-15+0095RJTH V0200601N006710066019N0112651N1+01401+00901999999ADDGA1071+006609999GF107991999999999999999999MA1101901999999MW1001REMMET060RJTH 0900Z 06013KT 9999 BKN022 14/09 Q1019 RMK 5CU022 A3010;EQDQ01+000000PRSWM2
0225477380999992000011122004+33120+139780FM-15+0095RJTH V0201001N005110240019N0112651N1+01301+01001999999ADDGA1021+005409999GA2071+024009999GF107991999999999999999999MA1101901999999MW1801OC101031REMMET091RJTH 2200Z 10010G20KT 060V150 9999 -SHRA SCT018 BKN080 13/10 Q1019 RMK 4CU018 7AC080 A3011;EQDQ01+000003PRSWM1Q02    003PRSWM1
0225477380999992000011123004+33120+139780FM-15+0095RJTH V0201201N005710240019N0112651N1+01301+01001999999ADDGA1021+005409999GA2071+024009999GF107991999999999999999999MA1101901999999MW1801OC101131REMMET091RJTH 2300Z 12011G22KT 060V160 9999 -SHRA SCT018 BKN080 13/10 Q1019 RMK 3CU018 7AC080 A3012;EQDQ01+000003PRSWM1Q02    003PRSWM1
0214477380999992000011200004+33120+139780FM-15+0095RJTH V0200901N004110240019N0112651N1+01301+01101999999ADDGA1021+005409999GA2071+024009999GF107991999999999999999999MA1102001999999MW1801REMMET088RJTH 0000Z 09008KT 060V130 9999 -SHRA SCT018 BKN080 13/11 Q1020 RMK 3CU018 7AC080 A3014;EQDQ01+000003PRSWM1Q02    003PRSWM1
0215477380999992000011200264+33120+139780FM-16+0095RJTH V0200901N004110240019N0112651N1+01301+01001999999ADDGA1021+005409999GA2071+024009999GF107991999999999999999999MA1102001999999MW1811REMMET089RJTH 120026Z 09008KT 040V120 9999 SHRA SCT018 BKN080 13/10 Q1020 RMK 4CU018 7AC080 A3015;EQDQ01+000003PRSWM1Q02    003PRSWM1
0213477380999992000011201004+33120+139780FM-15+0095RJTH V0200901N004610240019N0112651N1+01301+01101999999ADDGA1021+005409999GA2071+024009999GF107991999999999999999999MA1102001999999MW1811REMMET087RJTH 0100Z 09009KT 050V120 9999 SHRA SCT018 BKN080 13/11 Q1020 RMK 4CU018 7AC080 A3015;EQDQ01+000003PRSWM1Q02    003PRSWM1
0181477380999992000011202004+33120+139780FM-15+0095RJTH V0200801N004610045019N0112651N1+01301+01101999999ADDGA1071+004509999GA2071+024009999GF107991999999999999999999MA1102001999999MW1811REMMET055RJTH 0200Z 08009KT 9999 SHRA BKN015 BKN080 13/11 Q1020;EQDQ01+000003PRSWM1Q02    003PRSWM1
0235477380999992000011203004+33120+139780FM-15+0095RJTH V0200801N007710030019N0080001N1+01201+01101999999ADDGA1021+002109999GA2071+003009999GA3071+024009999GF107991999999999999999999MA1101901999999MW1811REMMET093RJTH 0300Z 08015KT 8000 SHRA FEW007 BKN010 BKN080 12/11 Q1019 RMK 1ST007 5CU010 7AC080 A3010;EQDQ01+000003PRSWM1Q02    003PRSWM1
0211477380999992000011204004+33120+139780FM-15+0095RJTH V0200801N009810036019N0112651N1+01301+01101999999ADDGA1071+003609999GA2071+024009999GF107991999999999999999999MA1101801999999MW1801REMMET085RJTH 0400Z 08019KT 9999 -SHRA BKN012 BKN080 13/11 Q1018 RERA RMK 5CU012 7AC080 A3007;EQDQ01+000003PRSWM1Q02    003PRSWM1
0207477380999992000011204274+33120+139780FM-16+0095RJTH V0200801N008710030019N0112651N1+01301+01101999999ADDGA1071+003009999GA2071+024009999GF107991999999999999999999MA1101801999999MW1811REMMET081RJTH 120427Z 08017KT 9999 SHRA BKN010 BKN080 13/11 Q1018 RMK 6CU010 7AC080 A3007;EQDQ01+000003PRSWM1Q02    003PRSWM1
0181477380999992000011205004+33120+139780FM-15+0095RJTH V0200801N008710030019N0112651N1+01301+01101999999ADDGA1071+003009999GA2071+024009999GF107991999999999999999999MA1101801999999MW1811REMMET055RJTH 0500Z 08017KT 9999 SHRA BKN010 BKN080 13/11 Q1018;EQDQ01+000003PRSWM1Q02    003PRSWM1
0232477380999992000011205414+33120+139780FM-16+0095RJTH V0200801N008210030019N0112651N1+01301+01201999999ADDGA1071+003009999GA2071+024009999GF107991999999999999999999MA1101691999999MW1801OC101541REMMET098RJTH 120541Z 08016G30KT 050V110 9999 -SHRA BKN010 BKN080 13/12 Q1017 RERA RMK 5CU010 7AC080 A3004;EQDQ01+000003PRSWM1Q02    003PRSWM1
0230477380999992000011206004+33120+139780FM-15+0095RJTH V0200801N009310030019N0112651N1+01301+01201999999ADDGA1071+003009999GA2071+024009999GF107991999999999999999999MA1101691999999MW1801OC101441REMMET096RJTH 0600Z 08018G28KT 050V130 9999 -SHRA BKN010 BKN080 13/12 Q1017 RERA RMK 6CU010 7AC080 A3005;EQDQ01+000003PRSWM1Q02    003PRSWM1
0225477380999992000011207004+33120+139780FM-15+0095RJTH V0200801N008210030019N0080001N1+01401+01201999999ADDGA1071+003009999GA2071+024009999GF107991999999999999999999MA1101801999999MW1801OC101441REMMET091RJTH 0700Z 08016G28KT 060V120 8000 -SHRA BKN010 BKN080 14/12 Q1018 RMK 6CU010 7AC080 A3006;EQDQ01+000003PRSWM1Q02    003PRSWM1
0226477380999992000011207084+33120+139780FM-16+0095RJTH V0200801N007710030019N0080001N1+01401+01201999999ADDGA1071+003009999GA2071+024009999GF107991999999999999999999MA1101801999999MW1811OC101391REMMET092RJTH 120708Z 08015G27KT 050V120 8000 SHRA BKN010 BKN080 14/12 Q1018 RMK 6CU010 7AC080 A3006;EQDQ01+000003PRSWM1Q02    003PRSWM1
0224477380999992000011207344+33120+139780FM-16+0095RJTH V0200801N008710030019N0112651N1+01401+01201999999ADDGA1071+003009999GA2071+024009999GF107991999999999999999999MA1101691999999MW1801OC101441REMMET090RJTH 120734Z 08017G28KT 9999 -SHRA BKN010 BKN080 14/12 Q1017 RERA RMK 6CU010 7AC080 A3006;EQDQ01+000003PRSWM1Q02    003PRSWM1
0206477380999992000011208004+33120+139780FM-15+0095RJTH V0200801N008710030019N0080001N1+01401+01301999999ADDGA1071+003009999GA2071+024009999GF107991999999999999999999MA1101801999999MW1821REMMET080RJTH 0800Z 08017KT 8000 +SHRA BKN010 BKN080 14/13 Q1018 RMK 6CU010 7AC080 A3007;EQDQ01+000003PRSWM1Q02    003PRSWM1
0220477380999992000011208094+33120+139780FM-16+0095RJTH V0200901N006710030019N0112651N1+01401+01301999999ADDGA1071+003009999GA2071+024009999GF107991999999999999999999MA1101801999999MW1811REMMET094RJTH 120809Z 09013KT 050V130 9999 SHRA BKN010 BKN080 14/13 Q1018 RERA RMK 6CU010 7AC080 A3007;EQDQ01+000003PRSWM1Q02    003PRSWM1
0232477380999992000011208304+33120+139780FM-15+0095RJTH V0201101N006210036019N0112651N1+01401+01201999999ADDGA1071+003609999GA2071+024009999GF107991999999999999999999MA1101801999999MW1801OC101181REMMET098RJTH 120830Z 11012G23KT 080V140 9999 -SHRA BKN012 BKN080 14/12 Q1018 RERA RMK 6CU012 7AC080 A3007;EQDQ01+000003PRSWM1Q02    003PRSWM1
0208477380999992000011209004+33120+139780FM-15+0095RJTH V0201001N006710045019N0112651N1+01501+01201999999ADDGA1071+004509999GA2071+024009999GF107991999999999999999999MA1101691999999MW1001OC101231REMMET090RJTH 0900Z 10013G24KT 060V140 9999 BKN015 BKN080 15/12 Q1017 RERA RMK 6CU015 7AC080 A3006;EQDQ01+000000PRSWM2
0192477380999992000011222004+33120+139780FM-15+0095RJTH V0202201N002110240019N0112651N1+01601+01501999999ADDGA1021+002409999GA2071+024009999GF107991999999999999999999MA1101021999999MW1001REMMET082RJTH 2200Z 22004KT 180V250 9999 FEW008 BKN080 16/15 Q1010 RMK 1CU008 6AC080 A2984;EQDQ01+000000PRSWM2
0184477380999992000011223004+33120+139780FM-15+0095RJTH V0202401N001010240019N0112651N1+01601+01501999999ADDGA1021+003609999GA2071+024009999GF107991999999999999999999MA1101021999999MW1001REMMET074RJTH 2300Z 24002KT 9999 FEW012 BKN080 16/15 Q1010 RMK 1ST012 7AC080 A2985;EQDQ01+000000PRSWM2
0184477380999992000011300004+33120+139780FM-15+0095RJTH V02099999999990300019N0112651N1+01701+01501999999ADDGA1021+003609999GA2071+030009999GF107991999999999999999999MA1101021999999MW1001REMMET074RJTH 0000Z VRB02KT 9999 FEW012 BKN100 17/15 Q1010 RMK 1ST012 7AC100 A2985;EQDQ01+000000PRSWM2
0184477380999992000011301004+33120+139780FM-15+0095RJTH V02099999999990300019N0112651N1+01701+01601999999ADDGA1021+006609999GA2071+030009999GF107991999999999999999999MA1101021999999MW1001REMMET074RJTH 0100Z VRB02KT 9999 FEW022 BKN100 17/16 Q1010 RMK 1CU022 7AC100 A2985;EQDQ01+000000PRSWM2
0222477380999992000011302004+33120+139780FM-15+0095RJTH V0202501N002110300019N0112651N1+01701+01501999999ADDGA1021+001209999GA2021+004509999GA3071+030009999GF107991999999999999999999MA1100911999999MW1001REMMET096RJTH 0200Z 25004KT 190V290 9999 FEW004 SCT015 BKN100 17/15 Q1009 RMK 1ST004 3CU015 7AC100 A2982;EQDQ01+000000PRSWM2
0197477380999992000011303004+33120+139780FM-15+0095RJTH V0202101N003110075019N0112651N1+01901+01501999999ADDGA1021+004509999GA2071+007509999GF107991999999999999999999MA1100711999999MW1001REMMET087RJTH 0300Z 21006KT 140V260 9999 SCT015 BKN025 19/15 Q1007 RMK 4CU015 6CU025 A2976 P/FR;EQDQ01+000000PRSWM2
0244477380999992000011304004+33120+139780FM-15+0095RJTH V0202001N003610075019N0112651N1+01801+01501999999ADDGA1021+004509999GA2071+007509999GA3071+030009999GF107991999999999999999999MA1100611999999MW1801REMMET102RJTH 0400Z 20007KT 150V240 9999 -SHRA FEW015 BKN025 BKN100 18/15 Q1006 RMK 2CU015 5CU025 7AC100 A2973;EQDQ01+000003PRSWM1Q02    003PRSWM1
0244477380999992000011305004+33120+139780FM-15+0095RJTH V0202001N006210060019N0070001N1+01801+01601999999ADDGA1021+003009999GA2071+006009999GA3071+030009999GF107991999999999999999999MA1100511999999MW1801REMMET102RJTH 0500Z 20012KT 150V240 7000 -SHRA SCT010 BKN020 BKN100 18/16 Q1005 RMK 3CU010 5CU020 7AC100 A2970;EQDQ01+000003PRSWM1Q02    003PRSWM1
0233477380999992000011306004+33120+139780FM-15+0095RJTH V0202101N008210300019N0112651N1+01901+01701999999ADDGA1021+003009999GA2021+006009999GA3071+030009999GF107991999999999999999999MA1100411999999MW1001OC101651REMMET099RJTH 0600Z 21016G32KT 160V240 9999 FEW010 SCT020 BKN100 19/17 Q1004 RMK 2CU010 4CU020 7AC100 A2967;EQDQ01+000000PRSWM2
0225477380999992000011307004+33120+139780FM-15+0095RJTH V0202101N008710300019N0112651N1+01901+01701999999ADDGA1021+003609999GA2021+006009999GA3071+030009999GF107991999999999999999999MA1100411999999MW1001OC101441REMMET091RJTH 0700Z 21017G28KT 9999 FEW012 SCT020 BKN100 19/17 Q1004 RMK 2CU012 3CU020 7AC100 A2966;EQDQ01+000000PRSWM2
0233477380999992000011308004+33120+139780FM-15+0095RJTH V0202201N008210300019N0112651N1+01901+01701999999ADDGA1021+003009999GA2021+006009999GA3071+030009999GF107991999999999999999999MA1100411999999MW1001OC101341REMMET099RJTH 0800Z 22016G26KT 180V250 9999 FEW010 SCT020 BKN100 19/17 Q1004 RMK 2CU010 3CU020 5AC100 A2967;EQDQ01+000000PRSWM2
0214477380999992000011309004+33120+139780FM-15+0095RJTH V0202201N006710300019N0112651N1+01801+01701999999ADDGA1021+003009999GA2021+005409999GA3071+030009999GF107991999999999999999999MA1100511999999MW1001REMMET088RJTH 0900Z 22013KT 9999 FEW010 SCT018 BKN100 18/17 Q1005 RMK 2CU010 3CU018 5AC100 A2968;EQDQ01+000000PRSWM2
0185477380999992000011322004+33120+139780FM-15+0095RJTH V0202901N005112200019N0112651N1+01401+01001999999ADDGA1021+008409999GA2021+999999999GF104991999999999999999999MA1100911999999MW1001REMMET075RJTH 2200Z 29010KT 250V320 9999 FEW028 SCT/// 14/10 Q1009 RMK 1CU028 A2982;EQDQ01+000000PRSWM2
0185477380999992000011323004+33120+139780FM-15+0095RJTH V0202901N006212200019N0112651N1+01401+01001999999ADDGA1021+007509999GA2021+999999999GF104991999999999999999999MA1101021999999MW1001REMMET075RJTH 2300Z 29012KT 260V320 9999 FEW025 SCT/// 14/10 Q1010 RMK 1CU025 A2984;EQDQ01+000000PRSWM2
0185477380999992000011400004+33120+139780FM-15+0095RJTH V0202901N006212200019N0112651N1+01501+00901999999ADDGA1021+007509999GA2021+999999999GF104991999999999999999999MA1101081999999MW1001REMMET075RJTH 0000Z 29012KT 230V340 9999 FEW025 SCT/// 15/09 Q1011 RMK 1CU025 A2986;EQDQ01+000000PRSWM2
0196477380999992000011401004+33120+139780FM-15+0095RJTH V0202901N006712200019N0112651N1+01601+00901999999ADDGA1021+008409999GA2021+999999999GF104991999999999999999999MA1101081999999MW1001OC101231REMMET078RJTH 0100Z 29013G24KT 250V320 9999 FEW028 SCT/// 16/09 Q1011 RMK 1CU028 A2987;EQDQ01+000000PRSWM2
0185477380999992000011402004+33120+139780FM-15+0095RJTH V0202901N006719999999N0112651N1+01601+00801999999ADDGA1021+008409999GA2071+999999999GF107991999999999999999999MA1101081999999MW1001REMMET075RJTH 0200Z 29013KT 230V340 9999 FEW028 BKN/// 16/08 Q1011 RMK 1CU028 A2987;EQDQ01+000000PRSWM2
0196477380999992000011403004+33120+139780FM-15+0095RJTH V0202901N007219999999N0112651N1+01501+00801999999ADDGA1021+008409999GA2071+999999999GF107991999999999999999999MA1101081999999MW1001OC101391REMMET078RJTH 0300Z 29014G27KT 250V320 9999 FEW028 BKN/// 15/08 Q1011 RMK 1CU028 A2986;EQDQ01+000000PRSWM2
0185477380999992000011404004+33120+139780FM-15+0095RJTH V0202901N007719999999N0112651N1+01501+00701999999ADDGA1021+009009999GA2071+999999999GF107991999999999999999999MA1101021999999MW1001REMMET075RJTH 0400Z 29015KT 220V330 9999 FEW030 BKN/// 15/07 Q1010 RMK 1CU030 A2984;EQDQ01+000000PRSWM2
0177477380999992000011405004+33120+139780FM-15+0095RJTH V0202801N006219999999N0112651N1+01501+00601999999ADDGA1021+009009999GA2071+999999999GF107991999999999999999999MA1101021999999MW1001REMMET067RJTH 0500Z 28012KT 9999 FEW030 BKN/// 15/06 Q1010 RMK 1CU030 A2985;EQDQ01+000000PRSWM2
0226477380999992000011406004+33120+139780FM-15+0095RJTH V0202801N005710360019N0112651N1+01401+00601999999ADDGA1021+009009999GA2071+036009999GA3071+999999999GF107991999999999999999999MA1101081999999MW1001OC101181REMMET092RJTH 0600Z 28011G23KT 250V310 9999 FEW030 BKN120 BKN/// 14/06 Q1011 RMK 1CU030 5AC120 A2987;EQDQ01+000000PRSWM2
0214477380999992000011407004+33120+139780FM-15+0095RJTH V0202701N004610360019N0112651N1+01301+00601999999ADDGA1021+009009999GA2071+036009999GA3071+999999999GF107991999999999999999999MA1101081999999MW1001REMMET088RJTH 0700Z 27009KT 230V310 9999 FEW030 BKN120 BKN/// 13/06 Q1011 RMK 1CU03 6AC120 A2988;EQDQ01+000000PRSWM2
0107477380999992000011408004+33120+139780FM-15+0095RJTH V0202601N00411220001CN0099001N1+01301+00601999999ADDMA1101191999999MW1001REMMET055RJTH 0800Z 26008KT 200V310 CAVOK 13/06 Q1012 RMK A2990;EQDQ01+000000PRSWM2
0107477380999992000011409004+33120+139780FM-15+0095RJTH V0202701N00511220001CN0099001N1+01301+00601999999ADDMA1101291999999MW1001REMMET055RJTH 0900Z 27010KT 220V300 CAVOK 13/06 Q1013 RMK A2992;EQDQ01+000000PRSWM2
0154477380999992000011422004+33120+139780FM-15+0095RJTH V02099999999992200019N0112651N1+01201+00501999999ADDGA1021+009009999GF102991999999999999999999MA1101591999999MW1001REMMET060RJTH 2200Z VRB03KT 9999 FEW030 12/05 Q1016 RMK 1CU030 A3000;EQDQ01+000000PRSWM2
0162477380999992000011423004+33120+139780FM-15+0095RJTH V0203101N004612200019N0112651N1+01301+00401999999ADDGA1021+009009999GF102991999999999999999999MA1101591999999MW1001REMMET068RJTH 2300Z 31009KT 250V360 9999 FEW030 13/04 Q1016 RMK 1CU030 A3003;EQDQ01+000000PRSWM2
0162477380999992000011500004+33120+139780FM-15+0095RJTH V0203001N005112200019N0112651N1+01401+00401999999ADDGA1021+009009999GF102991999999999999999999MA1101691999999MW1001REMMET068RJTH 0000Z 30010KT 260V350 9999 FEW030 14/04 Q1017 RMK 2CU030 A3004;EQDQ01+000000PRSWM2
0162477380999992000011501004+33120+139780FM-15+0095RJTH V0202901N006212200019N0112651N1+01401+00401999999ADDGA1021+009009999GF104991999999999999999999MA1101691999999MW1001REMMET068RJTH 0100Z 29012KT 260V320 9999 SCT030 14/04 Q1017 RMK 4CU030 A3005;EQDQ01+000000PRSWM2
0162477380999992000011502004+33120+139780FM-15+0095RJTH V0203001N005712200019N0112651N1+01401+00401999999ADDGA1021+009009999GF104991999999999999999999MA1101691999999MW1001REMMET068RJTH 0200Z 30011KT 250V340 9999 SCT030 14/04 Q1017 RMK 3CU030 A3004;EQDQ01+000000PRSWM2
0162477380999992000011503004+33120+139780FM-15+0095RJTH V0203201N004612200019N0112651N1+01401+00501999999ADDGA1021+010509999GF104991999999999999999999MA1101591999999MW1001REMMET068RJTH 0300Z 32009KT 260V030 9999 SCT035 14/05 Q1016 RMK 4CU035 A3002;EQDQ01+000000PRSWM2
0162477380999992000011504004+33120+139780FM-15+0095RJTH V0202901N005112200019N0112651N1+01401+00301999999ADDGA1021+010509999GF102991999999999999999999MA1101591999999MW1001REMMET068RJTH 0400Z 29010KT 240V330 9999 FEW035 14/03 Q1016 RMK 1CU035 A3001;EQDQ01+000000PRSWM2
0185477380999992000011505004+33120+139780FM-15+0095RJTH V0202901N004612200019N0112651N1+01401+00301999999ADDGA1021+010509999GA2021+999999999GF104991999999999999999999MA1101591999999MW1001REMMET075RJTH 0500Z 29009KT 240V360 9999 FEW035 SCT/// 14/03 Q1016 RMK 1CU035 A3000;EQDQ01+000000PRSWM2
0145477380999992000011506004+33120+139780FM-15+0095RJTH V0203501N003612200019N0112651N1+01401+00501999999ADDGA1021+010509999GF102991999999999999999999MA1101591999999MW1001REMMET051RJTH 0600Z 35007KT 300V040 9999 FEW035 14/05 Q1016;EQDQ01+000000PRSWM2
0185477380999992000011507004+33120+139780FM-15+0095RJTH V0203301N002619999999N0112651N1+01301+00601999999ADDGA1021+010509999GA2071+999999999GF107991999999999999999999MA1101591999999MW1001REMMET075RJTH 0700Z 33005KT 300V010 9999 SCT035 BKN/// 13/06 Q1016 RMK 4CU035 A3002;EQDQ01+000000PRSWM2
0199477380999992000011508004+33120+139780FM-15+0095RJTH V0200401N005110075019N0112651N1+01201+00801999999ADDGA1071+007509999GA2071+999999999GF107991999999999999999999MA1101691999999MW1801REMMET073RJTH 0800Z 04010KT 9999 -SHRA BKN025 BKN/// 12/08 Q1017 RMK 6CU025 A3004;EQDQ01+000003PRSWM1Q02    003PRSWM1
0154477380999992000011509004+33120+139780FM-15+0095RJTH V0200401N009810075019N0112651N1+01201+00701999999ADDGA1071+007509999GF107991999999999999999999MA1101801999999MW1001REMMET060RJTH 0900Z 04019KT 9999 BKN025 12/07 Q1018 RMK 6CU025 A3007;EQDQ01+000000PRSWM2
0214477380999992000011522004+33120+139780FM-15+0095RJTH V0200601N006210300019N0112651N1+01301+00601999999ADDGA1021+009009999GA2021+018009999GA3071+030009999GF107991999999999999999999MA1101901999999MW1001REMMET088RJTH 2200Z 06012KT 9999 SCT030 SCT060 BKN100 13/06 Q1019 RMK 3CU030 3SC060 5AC100 A3010;EQDQ01+000000PRSWM2
0184477380999992000011523004+33120+139780FM-15+0095RJTH V0200701N005110150019N0112651N1+01401+00501999999ADDGA1021+009009999GA2071+015009999GF107991999999999999999999MA1101901999999MW1001REMMET074RJTH 2300Z 07010KT 9999 SCT030 BKN050 14/05 Q1019 RMK 3CU030 5CU050 A3010;EQDQ01+000000PRSWM2
0184477380999992000011600004+33120+139780FM-15+0095RJTH V0200701N006210240019N0112651N1+01501+00601999999ADDGA1021+009009999GA2071+024009999GF107991999999999999999999MA1101901999999MW1001REMMET074RJTH 0000Z 07012KT 9999 SCT030 BKN080 15/06 Q1019 RMK 3CU030 6AC080 A3010;EQDQ01+000000PRSWM2
0184477380999992000011601004+33120+139780FM-15+0095RJTH V0200701N007210240019N0112651N1+01501+00701999999ADDGA1021+009009999GA2071+024009999GF107991999999999999999999MA1101901999999MW1001REMMET074RJTH 0100Z 07014KT 9999 SCT030 BKN080 15/07 Q1019 RMK 3CU030 6AC080 A3010;EQDQ01+000000PRSWM2
0215477380999992000011602004+33120+139780FM-15+0095RJTH V0200701N005719999999N0112651N1+01601+00701999999ADDGA1021+009009999GA2021+015009999GA3071+999999999GF107991999999999999999999MA1101801999999MW1001REMMET089RJTH 0200Z 07011KT 050V110 9999 SCT030 SCT050 BKN/// 16/07 Q1018 RMK 3CU030 3CU050 A3009;EQDQ01+000000PRSWM2
0152477380999992000011603004+33120+139780FM-15+0095RJTH V0200701N006712200019N0112651N1+99999+99999999999ADDGA1021+009009999GF102991999999999999999999MW1001REMMET073RJTH 0300Z 07013KT 9999 FEW030 BK100 15/07 Q1017 RMK 2CU030 7AC100 A3005;EQDQ01+000000PRSWM2
0222477380999992000011604004+33120+139780FM-15+0095RJTH V0200701N006210300019N0112651N1+01601+00801999999ADDGA1021+006009999GA2021+009009999GA3071+030009999GF107991999999999999999999MA1101591999999MW1001REMMET096RJTH 0400Z 07012KT 050V110 9999 FEW020 SCT030 BKN100 16/08 Q1016 RMK 1CU020 3CU030 7AC100 A3002;EQDQ01+000000PRSWM2
0214477380999992000011605004+33120+139780FM-15+0095RJTH V0200601N006710300019N0112651N1+01401+01001999999ADDGA1021+005409999GA2021+007509999GA3071+030009999GF107991999999999999999999MA1101491999999MW1001REMMET088RJTH 0500Z 06013KT 9999 FEW018 SCT025 BKN100 14/10 Q1015 RMK 1CU018 3CU025 7AC100 A2999;EQDQ01+000000PRSWM2
0214477380999992000011606004+33120+139780FM-15+0095RJTH V0200701N007210075019N0112651N1+01401+00901999999ADDGA1021+005409999GA2071+007509999GA3071+030009999GF107991999999999999999999MA1101591999999MW1001REMMET088RJTH 0600Z 07014KT 9999 FEW018 BKN025 BKN100 14/09 Q1016 RMK 1CU018 5CU025 7AC100 A3000;EQDQ01+000000PRSWM2
0207477380999992000011607004+33120+139780FM-15+0095RJTH V0200701N007710300019N0112651N1+01401+00901999999ADDGA1021+007509999GA2071+030009999GA3071+999999999GF107991999999999999999999MA1101491999999MW1001REMMET081RJTH 0700Z 07015KT 9999 SCT025 BKN100 BKN/// 14/09 Q1015 RMK 3CU025 6AC100 A2999;EQDQ01+000000PRSWM2
0184477380999992000011608004+33120+139780FM-15+0095RJTH V0200701N007710300019N0112651N1+01401+00801999999ADDGA1021+007509999GA2071+030009999GF107991999999999999999999MA1101491999999MW1001REMMET074RJTH 0800Z 07015KT 9999 SCT025 BKN100 14/08 Q1015 RMK 3CU025 7AC100 A2998;EQDQ01+000000PRSWM2
0207477380999992000011609004+33120+139780FM-15+0095RJTH V0200801N005710300019N0112651N1+01401+00801999999ADDGA1021+007509999GA2071+030009999GA3071+999999999GF107991999999999999999999MA1101491999999MW1001REMMET081RJTH 0900Z 08011KT 9999 FEW025 BKN100 BKN/// 14/08 Q1015 RMK 2CU025 6AC100 A2998;EQDQ01+000000PRSWM2
0235477380999992000011622004+33120+139780FM-15+0095RJTH V02099999999990075019N0112651N1+01501+01401999999ADDGA1021+003009999GA2071+007509999GA3071+030009999GF107991999999999999999999MA1100711999999MW1811REMMET093RJTH 2200Z VRB03KT 9999 SHRA SCT010 BKN025 BKN100 15/14 Q1007 RMK 4CU010 5CU025 7AC100 A2976;EQDQ01+000003PRSWM1Q02    003PRSWM1
0243477380999992000011622284+33120+139780FM-16+0095RJTH V02099999999990075019N0112651N1+01501+01301999999ADDGA1021+003609999GA2071+007509999GA3071+024009999GF107991999999999999999999MA1100711999999MW1801REMMET101RJTH 162228Z VRB02KT 9999 -SHRA SCT012 BKN025 BKN080 15/13 Q1007 RERA RMK 4CU012 5CU025 6AC080 A2975;EQDQ01+000003PRSWM1Q02    003PRSWM1
0227477380999992000011623004+33120+139780FM-15+0095RJTH V0202401N002110060019N0112651N1+01501+01401999999ADDGA1021+003009999GA2071+006009999GA3071+030009999GF107991999999999999999999MA1100711999999MW1001REMMET101RJTH 2300Z 24004KT 190V270 9999 FEW010 BKN020 BKN100 15/14 Q1007 RERA RMK 2CU010 5CU020 6AC100 A2975;EQDQ01+000000PRSWM2
0222477380999992000011700004+33120+139780FM-15+0095RJTH V0202301N003110060019N0112651N1+01601+01501999999ADDGA1021+003609999GA2071+006009999GA3071+030009999GF107991999999999999999999MA1100711999999MW1001REMMET096RJTH 0000Z 23006KT 190V260 9999 FEW012 BKN020 BKN100 16/15 Q1007 RMK 2CU012 5CU020 6AC100 A2974;EQDQ01+000000PRSWM2
0162477380999992000011701004+33120+139780FM-15+0095RJTH V0202501N004112200019N0112651N1+01701+01401999999ADDGA1021+004809999GF102991999999999999999999MA1100611999999MW1001REMMET068RJTH 0100Z 25008KT 200V300 9999 FEW016 17/14 Q1006 RMK 2CU016 A2973;EQDQ01+000000PRSWM2
0192477380999992000011702004+33120+139780FM-15+0095RJTH V0200101N005110060019N0112651N1+01501+01301999999ADDGA1021+002409999GA2071+006009999GF107991999999999999999999MA1100611999999MW1001REMMET082RJTH 0200Z 01010KT 300V040 9999 FEW008 BKN020 15/13 Q1006 RMK 2CU008 5CU020 A2972;EQDQ01+000000PRSWM2
0192477380999992000011703004+33120+139780FM-15+0095RJTH V0200401N007710060019N0112651N1+01501+01301999999ADDGA1021+003009999GA2071+006009999GF107991999999999999999999MA1100511999999MW1001REMMET082RJTH 0300Z 04015KT 350V060 9999 SCT010 BKN020 15/13 Q1005 RMK 4CU010 5CU020 A2970;EQDQ01+000000PRSWM2
0194477380999992000011703164+33120+139780FM-16+0095RJTH V0200301N010810024019N0112651N1+01401+01201999999ADDGA1071+002409999GA2071+006009999GF107991999999999999999999MA1100511999999MW1001REMMET084RJTH 170316Z 03021KT 360V060 9999 BKN008 BKN020 14/12 Q1005 RMK 5CU008 6CU020 A2971;EQDQ01+000000PRSWM2
0206477380999992000011704004+33120+139780FM-15+0095RJTH V0200401N012310024019N0112651N1+01301+01201999999ADDGA1071+002409999GA2071+006009999GF107991999999999999999999MA1100611999999MW1801REMMET080RJTH 0400Z 04024KT 9999 -SHRA BKN008 BKN020 13/12 Q1006 RMK 5CU008 6CU020 A2971;EQDQ01+000003PRSWM1Q02    003PRSWM1
0178477380999992000011704294+33120+139780FM-16+0095RJTH V0200401N012910021019N0112651N1+01301+01101999999ADDGA1071+002109999GF107991999999999999999999MA1100611999999MW1801REMMET068RJTH 170429Z 04025KT 9999 -SHRA BKN007 13/11 Q1006 RMK 7CU007 A2972;EQDQ01+000003PRSWM1Q02    003PRSWM1
0217477380999992000011705004+33120+139780FM-15+0095RJTH V0200401N012310021019N0112651N1+01201+01101999999ADDGA1021+001209999GA2071+002109999GF107991999999999999999999MA1100611999999MW1801OC101801REMMET083RJTH 0500Z 04024G35KT 9999 -SHRA FEW004 BKN007 12/11 Q1006 RMK 2ST004 7CU007 A2972;EQDQ01+000003PRSWM1Q02    003PRSWM1
0184477380999992000011706004+33120+139780FM-15+0095RJTH V0200401N011310030019N0112651N1+01301+01101999999ADDGA1021+002109999GA2071+003009999GF107991999999999999999999MA1100611999999MW1001REMMET074RJTH 0600Z 04022KT 9999 SCT007 BKN010 13/11 Q1006 RMK 4CU007 7CU010 A2971;EQDQ01+000000PRSWM2
0192477380999992000011707004+33120+139780FM-15+0095RJTH V0200401N010310060019N0112651N1+01301+01001999999ADDGA1021+003009999GA2071+006009999GF107991999999999999999999MA1100611999999MW1001REMMET082RJTH 0700Z 04020KT 010V070 9999 FEW010 BKN020 13/10 Q1006 RMK 1CU010 6CU020 A2972;EQDQ01+000000PRSWM2
0192477380999992000011708004+33120+139780FM-15+0095RJTH V0200401N007710060019N0112651N1+01401+01001999999ADDGA1021+003609999GA2071+006009999GF107991999999999999999999MA1100711999999MW1001REMMET082RJTH 0800Z 04015KT 010V070 9999 FEW012 BKN020 14/10 Q1007 RMK 2CU012 7CU020 A2975;EQDQ01+000000PRSWM2
0192477380999992000011709004+33120+139780FM-15+0095RJTH V0200301N008210045019N0112651N1+01301+01101999999ADDGA1021+003009999GA2071+004509999GF107991999999999999999999MA1100811999999MW1001REMMET082RJTH 0900Z 03016KT 360V070 9999 SCT010 BKN015 13/11 Q1008 RMK 3CU010 7CU015 A2977;EQDQ01+000000PRSWM2
0154477380999992000011722004+33120+139780FM-15+0095RJTH V0200401N008710060019N0112651N1+01201+00801999999ADDGA1071+006009999GF107991999999999999999999MA1100911999999MW1001REMMET060RJTH 2200Z 04017KT 9999 BKN020 12/08 Q1009 RMK 6CU020 A2982;EQDQ01+000000PRSWM2
0154477380999992000011723004+33120+139780FM-15+0095RJTH V0200501N009810069019N0112651N1+01201+00801999999ADDGA1071+006909999GF107991999999999999999999MA1100911999999MW1001REMMET060RJTH 2300Z 05019KT 9999 BKN023 12/08 Q1009 RMK 5CU023 A2982;EQDQ01+000000PRSWM2
0154477380999992000011800004+33120+139780FM-15+0095RJTH V0200401N009312200019N0112651N1+01201+00601999999ADDGA1021+007509999GF104991999999999999999999MA1101021999999MW1001REMMET060RJTH 0000Z 04018KT 9999 SCT025 12/06 Q1010 RMK 4CU025 A2984;EQDQ01+000000PRSWM2
0184477380999992000011801004+33120+139780FM-15+0095RJTH V0200501N010810300019N0112651N1+01301+00701999999ADDGA1021+007509999GA2071+030009999GF107991999999999999999999MA1101021999999MW1001REMMET074RJTH 0100Z 05021KT 9999 SCT025 BKN100 13/07 Q1010 RMK 4CU025 5AC100 A2984;EQDQ01+000000PRSWM2
0184477380999992000011802004+33120+139780FM-15+0095RJTH V0200501N010310300019N0112651N1+01301+00601999999ADDGA1021+007509999GA2071+030009999GF107991999999999999999999MA1101021999999MW1001REMMET074RJTH 0200Z 05020KT 9999 SCT025 BKN100 13/06 Q1010 RMK 3CU025 7AC100 A2983;EQDQ01+000000PRSWM2
0184477380999992000011803004+33120+139780FM-15+0095RJTH V0200501N009310240019N0112651N1+01301+00501999999ADDGA1021+009009999GA2071+024009999GF107991999999999999999999MA1100911999999MW1001REMMET074RJTH 0300Z 05018KT 9999 FEW030 BKN080 13/05 Q1009 RMK 2CU030 6AC080 A2981;EQDQ01+000000PRSWM2
0184477380999992000011804004+33120+139780FM-15+0095RJTH V0200501N009810300019N0112651N1+01301+00501999999ADDGA1021+009009999GA2071+030009999GF107991999999999999999999MA1100811999999MW1001REMMET074RJTH 0400Z 05019KT 9999 FEW030 BKN100 13/05 Q1008 RMK 2CU030 6AC100 A2979;EQDQ01+000000PRSWM2
0184477380999992000011805004+33120+139780FM-15+0095RJTH V0200501N008710300019N0112651N1+01301+00601999999ADDGA1021+009009999GA2071+030009999GF107991999999999999999999MA1100911999999MW1001REMMET074RJTH 0500Z 05017KT 9999 FEW030 BKN100 13/06 Q1009 RMK 2CU030 7AC100 A2980;EQDQ01+000000PRSWM2
0184477380999992000011806004+33120+139780FM-15+0095RJTH V0200501N007710240019N0112651N1+01301+00501999999ADDGA1021+009009999GA2071+024009999GF107991999999999999999999MA1100911999999MW1001REMMET074RJTH 0600Z 05015KT 9999 FEW030 BKN080 13/05 Q1009 RMK 2CU030 7AC080 A2981;EQDQ01+000000PRSWM2
0184477380999992000011807004+33120+139780FM-15+0095RJTH V0200501N007710240019N0112651N1+01201+00501999999ADDGA1021+009009999GA2071+024009999GF107991999999999999999999MA1100911999999MW1001REMMET074RJTH 0700Z 05015KT 9999 FEW030 BKN080 12/05 Q1009 RMK 1CU030 7AC080 A2981;EQDQ01+000000PRSWM2
0184477380999992000011808004+33120+139780FM-15+0095RJTH V0200501N008210300019N0112651N1+01201+00501999999ADDGA1021+009009999GA2071+030009999GF107991999999999999999999MA1100911999999MW1001REMMET074RJTH 0800Z 05016KT 9999 FEW030 BKN100 12/05 Q1009 RMK 1CU030 7AC100 A2982;EQDQ01+000000PRSWM2
0184477380999992000011809004+33120+139780FM-15+0095RJTH V0200501N007710300019N0112651N1+01201+00501999999ADDGA1021+009009999GA2071+030009999GF107991999999999999999999MA1101021999999MW1001REMMET074RJTH 0900Z 05015KT 9999 FEW030 BKN100 12/05 Q1010 RMK 2CU030 7AC100 A2984;EQDQ01+000000PRSWM2
0214477380999992000011822004+33120+139780FM-15+0095RJTH V0200501N003110300019N0112651N1+01101+00801999999ADDGA1021+006609999GA2021+015009999GA3071+030009999GF107991999999999999999999MA1101191999999MW1001REMMET088RJTH 2200Z 05006KT 9999 SCT022 SCT050 BKN100 11/08 Q1012 RMK 3CU022 3SC050 7AC100 A2989;EQDQ01+000000PRSWM2
0207477380999992000011823004+33120+139780FM-15+0095RJTH V0200601N003110300019N0112651N1+01201+00801999999ADDGA1021+006909999GA2071+030009999GA3071+999999999GF107991999999999999999999MA1101191999999MW1001REMMET081RJTH 2300Z 06006KT 9999 SCT023 BKN100 BKN/// 12/08 Q1012 RMK 3CU023 5AC100 A2990;EQDQ01+000000PRSWM2
0192477380999992000011900004+33120+139780FM-15+0095RJTH V0200801N003110300019N0112651N1+01301+00801999999ADDGA1021+006009999GA2071+030009999GF107991999999999999999999MA1101291999999MW1001REMMET082RJTH 0000Z 08006KT 050V110 9999 FEW020 BKN100 13/08 Q1013 RMK 2CU020 7AC100 A2992;EQDQ01+000000PRSWM2
0207477380999992000011901004+33120+139780FM-15+0095RJTH V02099999999999999999N0112651N1+01301+00901999999ADDGA1021+006009999GA2021+030009999GA3071+999999999GF107991999999999999999999MA1101291999999MW1001REMMET081RJTH 0100Z VRB04KT 9999 FEW020 SCT100 BKN/// 13/09 Q1013 RMK 2CU020 3AC100 A2992;EQDQ01+000000PRSWM2
0215477380999992000011902004+33120+139780FM-15+0095RJTH V0201601N002119999999N0112651N1+01401+00801999999ADDGA1021+009009999GA2021+015009999GA3071+999999999GF107991999999999999999999MA1101191999999MW1001REMMET089RJTH 0200Z 16004KT 100V230 9999 FEW030 SCT050 BKN/// 14/08 Q1012 RMK 1CU030 4SC050 A2990;EQDQ01+000000PRSWM2
0185477380999992000011903004+33120+139780FM-15+0095RJTH V0202201N002119999999N0112651N1+01601+00901999999ADDGA1021+009009999GA2071+999999999GF107991999999999999999999MA1101081999999MW1001REMMET075RJTH 0300Z 22004KT 170V280 9999 FEW030 BKN/// 16/09 Q1011 RMK 2CU030 A2987;EQDQ01+000000PRSWM2
0215477380999992000011904004+33120+139780FM-15+0095RJTH V0202001N003119999999N0112651N1+01501+00701999999ADDGA1021+009009999GA2021+024009999GA3071+999999999GF107991999999999999999999MA1101021999999MW1001REMMET089RJTH 0400Z 20006KT 150V230 9999 FEW030 SCT080 BKN/// 15/07 Q1010 RMK 1CU030 3AC080 A2985;EQDQ01+000000PRSWM2
0192477380999992000011905004+33120+139780FM-15+0095RJTH V0202101N002110210019N0112651N1+01501+00801999999ADDGA1021+009009999GA2071+021009999GF107991999999999999999999MA1101021999999MW1001REMMET082RJTH 0500Z 21004KT 140V270 9999 FEW030 BKN070 15/08 Q1010 RMK 1CU030 7AC070 A2985;EQDQ01+000000PRSWM2
0192477380999992000011906004+33120+139780FM-15+0095RJTH V0202301N002110210019N0112651N1+01401+00701999999ADDGA1021+009009999GA2071+021009999GF107991999999999999999999MA1101081999999MW1001REMMET082RJTH 0600Z 23004KT 170V280 9999 FEW030 BKN070 14/07 Q1011 RMK 1CU030 7AC070 A2986;EQDQ01+000000PRSWM2
0184477380999992000011907004+33120+139780FM-15+0095RJTH V02099999999990240019N0112651N1+01401+00801999999ADDGA1021+009009999GA2071+024009999GF107991999999999999999999MA1101081999999MW1001REMMET074RJTH 0700Z VRB03KT 9999 FEW030 BKN080 14/08 Q1011 RMK 1CU030 7AC080 A2987;EQDQ01+000000PRSWM2
0184477380999992000011908004+33120+139780FM-15+0095RJTH V02099999999990240019N0112651N1+01301+00701999999ADDGA1021+009009999GA2071+024009999GF107991999999999999999999MA1101081999999MW1001REMMET074RJTH 0800Z VRB03KT 9999 FEW030 BKN080 13/07 Q1011 RMK 1CU030 6AC080 A2988;EQDQ01+000000PRSWM2
0184477380999992000011909004+33120+139780FM-15+0095RJTH V02099999999990240019N0112651N1+01201+00801999999ADDGA1021+009009999GA2071+024009999GF107991999999999999999999MA1101191999999MW1001REMMET074RJTH 0900Z VRB02KT 9999 FEW030 BKN080 12/08 Q1012 RMK 1CU030 7AC080 A2989;EQDQ01+000000PRSWM2
0222477380999992000011922004+33120+139780FM-15+0095RJTH V0203201N004610240019N0112651N1+01101+00801999999ADDGA1021+005409999GA2021+007509999GA3071+024009999GF107991999999999999999999MA1101191999999MW1001REMMET096RJTH 2200Z 32009KT 280V350 9999 FEW018 SCT025 BKN080 11/08 Q1012 RMK 1CU018 4CU025 7AC080 A2990;EQDQ01+000000PRSWM2
0219477380999992000011923004+33120+139780FM-15+0095RJTH V0203001N003610075019N0112651N1+01001+00701999999ADDGA1021+004509999GA2071+007509999GF107991999999999999999999MA1101191999999MW1801REMMET093RJTH 2300Z 30007KT 220V360 9999 -SHRA FEW015 BKN025 10/07 Q1012 RERA RMK 1CU015 7CU025 A2991;EQDQ01+000003PRSWM1Q02    003PRSWM1
0214477380999992000012000004+33120+139780FM-15+0095RJTH V0202801N005710075019N0112651N1+01001+00601999999ADDGA1021+005409999GA2071+007509999GF107991999999999999999999MA1101291999999MW1801REMMET088RJTH 0000Z 28011KT 250V330 9999 -SHRA FEW018 BKN025 10/06 Q1013 RMK 1CU018 6CU025 A2993;EQDQ01+000003PRSWM1Q02    003PRSWM1
0192477380999992000012001004+33120+139780FM-15+0095RJTH V0202901N007210240019N0112651N1+01001+00501999999ADDGA1021+007509999GA2071+024009999GF107991999999999999999999MA1101291999999MW1001REMMET082RJTH 0100Z 29014KT 250V320 9999 SCT025 BKN080 10/05 Q1013 RMK 3CU025 7AC080 A2994;EQDQ01+000000PRSWM2
0192477380999992000012002004+33120+139780FM-15+0095RJTH V0202801N007710240019N0112651N1+01101+00401999999ADDGA1021+009009999GA2071+024009999GF107991999999999999999999MA1101291999999MW1001REMMET082RJTH 0200Z 28015KT 250V310 9999 SCT030 BKN080 11/04 Q1013 RMK 3CU030 6AC080 A2993;EQDQ01+000000PRSWM2
0172477380999992000012003004+33120+139780FM-15+0095RJTH V0202801N008710105019N0112651N1+01101+00001999999ADDGA1071+010509999GF107991999999999999999999MA1101191999999MW1001OC101541REMMET070RJTH 0300Z 28017G30KT 230V310 9999 BKN035 11/0 Q1012 RMK 6CU035 A2990;EQDQ01+000000PRSWM2
0168477380999992000012004004+33120+139780FM-15+0095RJTH V0202901N009310105019N0112651N1+01001+00301999999ADDGA1021+007509999GA2071+010509999GF107991999999999999999999MA1101191999999MW1001REMMET058RJTH 0400Z 29018KT 260V330 9999 FEW025 BKN035 10/03 Q1012;EQDQ01+000000PRSWM2
0165477380999992000012005004+33120+139780FM-15+0095RJTH V0202801N008710090019N0112651N1+00901+00101999999ADDGA1071+009009999GF107991999999999999999999MA1101191999999MW1001OC101541REMMET063RJTH 0500Z 28017G30KT 9999 BKN030 09/01 Q1012 RMK 6CU030 A2991;EQDQ01+000000PRSWM2
0173477380999992000012006004+33120+139780FM-15+0095RJTH V0202801N008210105019N0112651N1+00901+00001999999ADDGA1071+010509999GF107991999999999999999999MA1101291999999MW1001OC101491REMMET071RJTH 0600Z 28016G29KT 250V310 9999 BKN035 09/00 Q1013 RMK 5CU035 A2992;EQDQ01+000000PRSWM2
0162477380999992000012007004+33120+139780FM-15+0095RJTH V0202701N007210105019N0112651N1+00901+00001999999ADDGA1071+010509999GF107991999999999999999999MA1101291999999MW1001REMMET068RJTH 0700Z 27014KT 210V300 9999 BKN035 09/00 Q1013 RMK 6CU035 A2992;EQDQ01+000000PRSWM2
0174477380999992000012008004+33120+139780FM-15+0095RJTH V0202701N007712200019N0112651N1+00901-00301999999ADDGA1021+010509999GF104991999999999999999999MA1101391999999MW1001OC101291REMMET072RJTH 0800Z 27015G25KT 230V320 9999 SCT035 09/M03 Q1014 RMK 3CU035 A2995;EQDQ01+000000PRSWM2
0174477380999992000012009004+33120+139780FM-15+0095RJTH V0202701N008210105019N0112651N1+00901-00301999999ADDGA1071+010509999GF107991999999999999999999MA1101391999999MW1001OC101491REMMET072RJTH 0900Z 27016G29KT 230V300 9999 BKN035 09/M03 Q1014 RMK 5CU035 A2996;EQDQ01+000000PRSWM2
0174477380999992000012022004+33120+139780FM-15+0095RJTH V0203101N007210105019N0112651N1+00701-00701999999ADDGA1071+010509999GF107991999999999999999999MA1101901999999MW1001OC101391REMMET072RJTH 2200Z 31014G27KT 250V350 9999 BKN035 07/M07 Q1019 RMK 6CU035 A3010;EQDQ01+000000PRSWM2
0174477380999992000012023004+33120+139780FM-15+0095RJTH V0203201N006710105019N0112651N1+00601-00801999999ADDGA1071+010509999GF107991999999999999999999MA1102001999999MW1001OC101391REMMET072RJTH 2300Z 32013G27KT 260V020 9999 BKN035 06/M08 Q1020 RMK 5CU035 A3013;EQDQ01+000000PRSWM2
0189477380999992000012100004+33120+139780FM-15+0095RJTH V0203101N007210090019N0112651N1+00601+99999999999ADDGA1071+009009999GF107991999999999999999999MA1102101999999MW1001OC101341REMMET071RJTH 0000Z 31014G26KT 250V350 9999 BKN030 06/05 Q1021 RMK 6CU030 A3018;EQDQ01+000503ATOD  Q02+000000PRSWM2
0174477380999992000012101004+33120+139780FM-15+0095RJTH V0203201N008210105019N0112651N1+00601-00601999999ADDGA1071+010509999GF107991999999999999999999MA1102101999999MW1001OC101341REMMET072RJTH 0100Z 32016G26KT 260V360 9999 BKN035 06/M06 Q1021 RMK 6CU035 A3018;EQDQ01+000000PRSWM2
0174477380999992000012102004+33120+139780FM-15+0095RJTH V0203101N008210105019N0112651N1+00601-00601999999ADDGA1071+010509999GF107991999999999999999999MA1102201999999MW1001OC101341REMMET072RJTH 0200Z 31016G26KT 250V010 9999 BKN035 06/M06 Q1022 RMK 6CU035 A3019;EQDQ01+000000PRSWM2
0174477380999992000012103004+33120+139780FM-15+0095RJTH V0203201N008710105019N0112651N1+00601-00601999999ADDGA1071+010509999GF107991999999999999999999MA1102101999999MW1001OC101541REMMET072RJTH 0300Z 32017G30KT 280V360 9999 BKN035 06/M06 Q1021 RMK 7CU035 A3017;EQDQ01+000000PRSWM2
0174477380999992000012104004+33120+139780FM-15+0095RJTH V0203101N008710105019N0112651N1+00601-00501999999ADDGA1071+010509999GF107991999999999999999999MA1102101999999MW1001OC101491REMMET072RJTH 0400Z 31017G29KT 260V350 9999 BKN035 06/M05 Q1021 RMK 7CU035 A3016;EQDQ01+000000PRSWM2
0174477380999992000012105004+33120+139780FM-15+0095RJTH V0203101N008210105019N0112651N1+00701-00601999999ADDGA1071+010509999GF107991999999999999999999MA1102101999999MW1001OC102011REMMET072RJTH 0500Z 31016G39KT 260V030 9999 BKN035 07/M06 Q1021 RMK 5CU035 A3017;EQDQ01+000000PRSWM2
0174477380999992000012106004+33120+139780FM-15+0095RJTH V0203101N010812200019N0112651N1+00701-00701999999ADDGA1021+010509999GF104991999999999999999999MA1102201999999MW1001OC101701REMMET072RJTH 0600Z 31021G33KT 260V340 9999 SCT035 07/M07 Q1022 RMK 4CU035 A3019;EQDQ01+000000PRSWM2
0174477380999992000012107004+33120+139780FM-15+0095RJTH V0203101N010310105019N0112651N1+00601-00801999999ADDGA1071+010509999GF107991999999999999999999MA1102201999999MW1001OC101951REMMET072RJTH 0700Z 31020G38KT 230V340 9999 BKN035 06/M08 Q1022 RMK 7CU035 A3020;EQDQ01+000000PRSWM2
0180477380999992000012108004+33120+139780FM-15+0095RJTH V02099999999990105019N0112651N1+00501-00401999999ADDGA1071+010509999GF107991999999999999999999MA1102301999999MW1801REMMET070RJTH 0800Z VRB16G37KT 9999 -SHRA BKN035 05/M04 Q1023 RMK 7CU035 A3023;EQDQ01+000003PRSWM1Q02    003PRSWM1
0174477380999992000012109004+33120+139780FM-15+0095RJTH V0202901N010312200019N0112651N1+00601-00701999999ADDGA1021+010509999GF104991999999999999999999MA1102401999999MW1001OC101801REMMET072RJTH 0900Z 29020G35KT 250V320 9999 SCT035 06/M07 Q1024 RMK 4CU035 A3024;EQDQ01+000000PRSWM2
0185477380999992000012122004+33120+139780FM-15+0095RJTH V02099999999992200019N0112651N1+00301-00301999999ADDGA1021+009009999GA2021+015009999GF104991999999999999999999MA1102911999999MW1001REMMET075RJTH 2200Z VRB03KT 9999 FEW030 SCT050 03/M03 Q1029 RMK 1CU030 4SC050 A3040;EQDQ01+000000PRSWM2
0155477380999992000012123004+33120+139780FM-15+0095RJTH V02099999999992200019N0112651N1+00601-00301999999ADDGA1021+009009999GF102991999999999999999999MA1103011999999MW1001REMMET061RJTH 2300Z VRB02KT 9999 FEW030 06/M03 Q1030 RMK 1CU030 A3043;EQDQ01+000000PRSWM2
0163477380999992000012200004+33120+139780FM-15+0095RJTH V0200701N002112200019N0112651N1+00801-00501999999ADDGA1021+010509999GF102991999999999999999999MA1103011999999MW1001REMMET069RJTH 0000Z 07004KT 020V140 9999 FEW035 08/M05 Q1030 RMK 1CU035 A3044;EQDQ01+000000PRSWM2
0155477380999992000012201004+33120+139780FM-15+0095RJTH V02099999999992200019N0112651N1+00901-00501999999ADDGA1021+010509999GF102991999999999999999999MA1103011999999MW1001REMMET061RJTH 0100Z VRB03KT 9999 FEW035 09/M05 Q1030 RMK 1CU035 A3044;EQDQ01+000000PRSWM2
0163477380999992000012202004+33120+139780FM-15+0095RJTH V0200901N002612200019N0112651N1+00901-00401999999ADDGA1021+010509999GF102991999999999999999999MA1103011999999MW1001REMMET069RJTH 0200Z 09005KT 030V160 9999 FEW035 09/M04 Q1030 RMK 1CU035 A3044;EQDQ01+000000PRSWM2
0155477380999992000012203004+33120+139780FM-15+0095RJTH V0200501N004112200019N0112651N1+00901-00401999999ADDGA1021+010509999GF102991999999999999999999MA1103011999999MW1001REMMET061RJTH 0300Z 05008KT 9999 FEW035 09/M04 Q1030 RMK 1CU035 A3042;EQDQ01+000000PRSWM2
0163477380999992000012204004+33120+139780FM-15+0095RJTH V0200801N003612200019N0112651N1+00901-00301999999ADDGA1021+010509999GF102991999999999999999999MA1102911999999MW1001REMMET069RJTH 0400Z 08007KT 050V140 9999 FEW035 09/M03 Q1029 RMK 1CU035 A3040;EQDQ01+000000PRSWM2
0163477380999992000012205004+33120+139780FM-15+0095RJTH V0200801N003612200019N0112651N1+00801-00301999999ADDGA1021+010509999GF104991999999999999999999MA1102911999999MW1001REMMET069RJTH 0500Z 08007KT 020V170 9999 SCT035 08/M03 Q1029 RMK 3CU035 A3040;EQDQ01+000000PRSWM2
0163477380999992000012206004+33120+139780FM-15+0095RJTH V0200701N003612200019N0112651N1+00801-00301999999ADDGA1021+010509999GF104991999999999999999999MA1102911999999MW1001REMMET069RJTH 0600Z 07007KT 040V100 9999 SCT035 08/M03 Q1029 RMK 3CU035 A3041;EQDQ01+000000PRSWM2
0193477380999992000012207004+33120+139780FM-15+0095RJTH V0201001N002112200019N0112651N1+00801-00301999999ADDGA1021+010509999GA2021+013509999GF104991999999999999999999MA1103011999999MW1001REMMET083RJTH 0700Z 10004KT 060V160 9999 SCT035 SCT045 08/M03 Q1030 RMK 3CU035 4SC045 A3042;EQDQ01+000000PRSWM2
0155477380999992000012208004+33120+139780FM-15+0095RJTH V02099999999992200019N0112651N1+00601-00201999999ADDGA1021+010509999GF104991999999999999999999MA1103011999999MW1001REMMET061RJTH 0800Z VRB03KT 9999 SCT035 06/M02 Q1030 RMK 3CU035 A3043;EQDQ01+000000PRSWM2
0155477380999992000012209004+33120+139780FM-15+0095RJTH V02099999999992200019N0112651N1+00501-00201999999ADDGA1021+010509999GF102991999999999999999999MA1103011999999MW1001REMMET061RJTH 0900Z VRB03KT 9999 FEW035 05/M02 Q1030 RMK 1CU035 A3044;EQDQ01+000000PRSWM2
0162477380999992000012222004+33120+139780FM-15+0095RJTH V0202401N002612200019N0112651N1+01001+00401999999ADDGA1021+010509999GF102991999999999999999999MA1102711999999MW1001REMMET068RJTH 2200Z 24005KT 210V280 9999 FEW035 10/04 Q1027 RMK 1CU035 A3034;EQDQ01+000000PRSWM2
0192477380999992000012223004+33120+139780FM-15+0095RJTH V0202301N004112200019N0112651N1+01201+00501999999ADDGA1021+010509999GA2021+030009999GF104991999999999999999999MA1102711999999MW1001REMMET082RJTH 2300Z 23008KT 210V270 9999 FEW035 SCT100 12/05 Q1027 RMK 1CU035 3AC100 A3034;EQDQ01+000000PRSWM2
0192477380999992000012300004+33120+139780FM-15+0095RJTH V0202201N005110150019N0112651N1+01301+00501999999ADDGA1021+010509999GA2071+015009999GF107991999999999999999999MA1102711999999MW1001REMMET082RJTH 0000Z 22010KT 180V250 9999 FEW035 BKN050 13/05 Q1027 RMK 1CU035 7SC050 A3034;EQDQ01+000000PRSWM2
0192477380999992000012301004+33120+139780FM-15+0095RJTH V0202101N006212200019N0112651N1+01401+00601999999ADDGA1021+010509999GA2021+030009999GF104991999999999999999999MA1102611999999MW1001REMMET082RJTH 0100Z 21012KT 180V240 9999 FEW035 SCT100 14/06 Q1026 RMK 2CU035 3AC100 A3032;EQDQ01+000000PRSWM2
0160477380999992000012302004+33120+139780FM-15+0095RJTH V0202101N006710120019N0112651N1+01401+00701999999ADDGA1021+009009999GA2071+012009999GF107991999999999999999999MA1102511999999MW1001REMMET050RJTH 0200Z 21013KT 9999 FEW030 BKN040 14/07 Q1025;EQDQ01+000000PRSWM2
0192477380999992000012303004+33120+139780FM-15+0095RJTH V0202201N007210120019N0112651N1+01401+00601999999ADDGA1021+009009999GA2071+012009999GF107991999999999999999999MA1102401999999MW1001REMMET082RJTH 0300Z 22014KT 200V260 9999 SCT030 BKN040 14/06 Q1024 RMK 3CU030 7SC040 A3025;EQDQ01+000000PRSWM2
0203477380999992000012304004+33120+139780FM-15+0095RJTH V0202201N008212200019N0112651N1+01501+00701999999ADDGA1021+009009999GA2021+012009999GF104991999999999999999999MA1102301999999MW1001OC101491REMMET085RJTH 0400Z 22016G29KT 190V250 9999 SCT030 SCT040 15/07 Q1023 RMK 3CU030 4SC040 A3022;EQDQ01+000000PRSWM2
0184477380999992000012305004+33120+139780FM-15+0095RJTH V0202301N007710120019N0112651N1+01401+00701999999ADDGA1021+009009999GA2071+012009999GF107991999999999999999999MA1102201999999MW1001REMMET074RJTH 0500Z 23015KT 9999 SCT030 BKN040 14/07 Q1022 RMK 3CU030 7SC040 A3020;EQDQ01+000000PRSWM2
0195477380999992000012306004+33120+139780FM-15+0095RJTH V0202201N007210120019N0112651N1+01401+00801999999ADDGA1021+009009999GA2071+012009999GF107991999999999999999999MA1102201999999MW1001OC101231REMMET077RJTH 0600Z 22014G24KT 9999 SCT030 BKN040 14/08 Q1022 RMK 3CU030 7SC040 A3019;EQDQ01+000000PRSWM2
0195477380999992000012307004+33120+139780FM-15+0095RJTH V0202301N007210120019N0112651N1+01501+00801999999ADDGA1021+009009999GA2071+012009999GF107991999999999999999999MA1102201999999MW1001OC101291REMMET077RJTH 0700Z 23014G25KT 9999 FEW030 BKN040 15/08 Q1022 RMK 2CU030 7SC040 A3019;EQDQ01+000000PRSWM2
0184477380999992000012308004+33120+139780FM-15+0095RJTH V0202301N007710120019N0112651N1+01501+00801999999ADDGA1021+009009999GA2071+012009999GF107991999999999999999999MA1102201999999MW1001REMMET074RJTH 0800Z 23015KT 9999 FEW030 BKN040 15/08 Q1022 RMK 1CU030 7SC040 A3018;EQDQ01+000000PRSWM2
0184477380999992000012309004+33120+139780FM-15+0095RJTH V0202301N007710120019N0112651N1+01501+00901999999ADDGA1021+009009999GA2071+012009999GF107991999999999999999999MA1102201999999MW1001REMMET074RJTH 0900Z 23015KT 9999 FEW030 BKN040 15/09 Q1022 RMK 1CU030 7SC040 A3018;EQDQ01+000000PRSWM2
0184477380999992000012322004+33120+139780FM-15+0095RJTH V02099999999990075019N0112651N1+01401+01301999999ADDGA1021+005409999GA2071+007509999GF107991999999999999999999MA1101901999999MW1001REMMET074RJTH 2200Z VRB01KT 9999 FEW018 BKN025 14/13 Q1019 RMK 1ST018 7CU025 A3010;EQDQ01+000000PRSWM2
0192477380999992000012323004+33120+139780FM-15+0095RJTH V0202701N002610240019N0112651N1+01401+01201999999ADDGA1021+006009999GA2071+024009999GF107991999999999999999999MA1101901999999MW1001REMMET082RJTH 2300Z 27005KT 240V310 9999 FEW020 BKN080 14/12 Q1019 RMK 1CU020 7AC080 A3009;EQDQ01+000000PRSWM2
0214477380999992000012400004+33120+139780FM-15+0095RJTH V02099999999990240019N0112651N1+01501+01201999999ADDGA1021+007509999GA2021+018009999GA3071+024009999GF107991999999999999999999MA1101901999999MW1001REMMET088RJTH 0000Z VRB02KT 9999 FEW025 SCT060 BKN080 15/12 Q1019 RMK 1ST025 3SC060 7AC080 A3011;EQDQ01+000000PRSWM2
0192477380999992000012401004+33120+139780FM-15+0095RJTH V0202501N002610240019N0112651N1+01501+01101999999ADDGA1021+007509999GA2071+024009999GF107991999999999999999999MA1101901999999MW1001REMMET082RJTH 0100Z 25005KT 210V290 9999 FEW025 BKN080 15/11 Q1019 RMK 1CU025 5AC080 A3010;EQDQ01+000000PRSWM2
0192477380999992000012402004+33120+139780FM-15+0095RJTH V0202801N004112200019N0112651N1+01601+01101999999ADDGA1021+007509999GA2021+024009999GF104991999999999999999999MA1101901999999MW1001REMMET082RJTH 0200Z 28008KT 240V320 9999 FEW025 SCT080 16/11 Q1019 RMK 1CU025 3AC080 A3010;EQDQ01+000000PRSWM2
0162477380999992000012403004+33120+139780FM-15+0095RJTH V0202601N003612200019N0112651N1+01701+01101999999ADDGA1021+007509999GF102991999999999999999999MA1101801999999MW1001REMMET068RJTH 0300Z 26007KT 220V310 9999 FEW025 17/11 Q1018 RMK 1CU025 A3006;EQDQ01+000000PRSWM2
0192477380999992000012404004+33120+139780FM-15+0095RJTH V0202501N003110120019N0112651N1+01701+01101999999ADDGA1021+006009999GA2071+012009999GF107991999999999999999999MA1101691999999MW1001REMMET082RJTH 0400Z 25006KT 200V300 9999 SCT020 BKN040 17/11 Q1017 RMK 3CU020 6SC040 A3004;EQDQ01+000000PRSWM2
0192477380999992000012405004+33120+139780FM-15+0095RJTH V0202501N003610135019N0112651N1+01701+01201999999ADDGA1021+006009999GA2071+013509999GF107991999999999999999999MA1101591999999MW1001REMMET082RJTH 0500Z 25007KT 200V310 9999 FEW020 BKN045 17/12 Q1016 RMK 2CU020 6SC045 A3002;EQDQ01+000000PRSWM2
0192477380999992000012406004+33120+139780FM-15+0095RJTH V0202601N003610135019N0112651N1+01601+01201999999ADDGA1021+005409999GA2071+013509999GF107991999999999999999999MA1101591999999MW1001REMMET082RJTH 0600Z 26007KT 210V290 9999 SCT018 BKN045 16/12 Q1016 RMK 3CU018 7SC045 A3002;EQDQ01+000000PRSWM2
0214477380999992000012407004+33120+139780FM-15+0095RJTH V0202801N003610054019N0112651N1+01501+01101999999ADDGA1071+005409999GA2071+012009999GF107991999999999999999999MA1101691999999MW1801REMMET088RJTH 0700Z 28007KT 240V320 9999 -SHRA BKN018 BKN040 15/11 Q1017 RMK 5CU018 7SC040 A3004;EQDQ01+000003PRSWM1Q02    003PRSWM1
0235477380999992000012408004+33120+139780FM-15+0095RJTH V0202901N003610060019N0112651N1+01401+01101999999ADDGA1021+003009999GA2071+006009999GA3071+012009999GF107991999999999999999999MA1101691999999MW1611REMMET093RJTH 0800Z 29007KT 240V320 9999 -RA FEW010 BKN020 BKN040 14/11 Q1017 RMK 2ST010 6CU020 A3006;EQDQ01+000003PRSWM1Q02    003PRSWM1
0222477380999992000012409004+33120+139780FM-15+0095RJTH V0202501N002610120019N0112651N1+01301+01101999999ADDGA1021+002709999GA2021+006009999GA3071+012009999GF107991999999999999999999MA1101691999999MW1001REMMET096RJTH 0900Z 25005KT 220V290 9999 FEW009 SCT020 BKN040 13/11 Q1017 RMK 2ST009 4CU020 7SC040 A3004;EQDQ01+000000PRSWM2
0234477380999992000012422004+33120+139780FM-15+0095RJTH V02099999999990066019N0112651N1+01101+00801999999ADDGA1021+005109999GA2071+006609999GA3071+015009999GF107991999999999999999999MA1101391999999MW1611REMMET092RJTH 2200Z VRB03KT 9999 -RA FEW017 BKN022 BKN050 11/08 Q1014 RMK 1ST017 5CU022 7SC050 A2996;EQDQ01+000003PRSWM1Q02    003PRSWM1
0242477380999992000012423004+33120+139780FM-15+0095RJTH V0200301N007210060019N0112651N1+01001+00801999999ADDGA1021+004509999GA2071+006009999GA3081+030009999GF108991999999999999999999MA1101491999999MW1611REMMET100RJTH 2300Z 03014KT 350V080 9999 -RA FEW015 BKN020 OVC100 10/08 Q1015 RMK 1ST015 5CU020 8AS100 A2997;EQDQ01+000003PRSWM1Q02    003PRSWM1
0238477380999992000012423084+33120+139780FM-16+0095RJTH V02099999999990060019N0090001N1+01001+00701999999ADDGA1021+004509999GA2071+006009999GA3081+030009999GF108991999999999999999999MA1101391999999MW1631REMMET096RJTH 242308Z VRB07G18KT 9000 RA FEW015 BKN020 OVC100 10/07 Q1014 RMK 2ST015 5CU020 8AS100 A2997;EQDQ01+000003PRSWM1Q02    003PRSWM1
0239477380999992000012500004+33120+139780FM-15+0095RJTH V02099999999990300019N0112651N1+00901+00701999999ADDGA1021+003009999GA2021+006009999GA3081+030009999GF108991999999999999999999MA1101391999999MW1611REMMET097RJTH 0000Z VRB09KT 9999 -RA FEW010 SCT020 OVC100 09/07 Q1014 RERA RMK 1ST010 4CU020 8AS100 A2996;EQDQ01+000003PRSWM1Q02    003PRSWM1
0242477380999992000012501004+33120+139780FM-15+0095RJTH V0200401N004110300019N0112651N1+01101+00801999999ADDGA1021+005409999GA2021+010509999GA3081+030009999GF108991999999999999999999MA1101391999999MW1611REMMET100RJTH 0100Z 04008KT 300V090 9999 -RA FEW018 SCT035 OVC100 11/08 Q1014 RMK 1ST018 4SC035 8AS100 A2996;EQDQ01+000003PRSWM1Q02    003PRSWM1
0222477380999992000012502004+33120+139780FM-15+0095RJTH V0200801N003110111019N0112651N1+01101+00601999999ADDGA1021+007509999GA2071+011109999GA3081+030009999GF108991999999999999999999MA1101291999999MW1001REMMET096RJTH 0200Z 08006KT 030V120 9999 FEW025 BKN037 OVC100 11/06 Q1013 RMK 1CU025 5SC037 8AS100 A2994;EQDQ01+000000PRSWM2
0214477380999992000012503004+33120+139780FM-15+0095RJTH V02099999999990117019N0112651N1+01101+00701999999ADDGA1021+009009999GA2071+011709999GA3081+030009999GF108991999999999999999999MA1101291999999MW1001REMMET088RJTH 0300Z VRB04KT 9999 FEW030 BKN039 OVC100 11/07 Q1013 RMK 2CU030 5SC039 8AS100 A2992;EQDQ01+000000PRSWM2
0234477380999992000012504004+33120+139780FM-15+0095RJTH V02099999999990300019N0112651N1+01201+00601999999ADDGA1021+009009999GA2021+011409999GA3081+030009999GF108991999999999999999999MA1101191999999MW1611REMMET092RJTH 0400Z VRB04KT 9999 -RA FEW030 SCT038 OVC100 12/06 Q1012 RMK 1CU030 3SC038 8AS100 A2989;EQDQ01+000003PRSWM1Q02    003PRSWM1
0222477380999992000012505004+33120+139780FM-15+0095RJTH V0203401N002610120019N0112651N1+01201+00601999999ADDGA1021+009009999GA2071+012009999GA3081+030009999GF108991999999999999999999MA1101191999999MW1001REMMET096RJTH 0500Z 34005KT 250V040 9999 FEW030 BKN040 OVC100 12/06 Q1012 RMK 1CU030 5SC040 8AS100 A2989;EQDQ01+000000PRSWM2
0222477380999992000012506004+33120+139780FM-15+0095RJTH V0203501N002110120019N0112651N1+01101+00601999999ADDGA1021+009009999GA2071+012009999GA3081+030009999GF108991999999999999999999MA1101081999999MW1001REMMET096RJTH 0600Z 35004KT 290V070 9999 FEW030 BKN040 OVC100 11/06 Q1011 RMK 1CU030 5SC040 8AS100 A2988;EQDQ01+000000PRSWM2
0175477380999992000012507004+33120+139780FM-15+0095RJTH V0200301N008210018019N0070001N1+01001+00801999999ADDGA1071+001809999GF107991999999999999999999MA1101191999999MW1811REMMET065RJTH 0700Z 03016KT 7000 SHRA BKN006 10/08 Q1012 RMK 7CU006 A2990;EQDQ01+000003PRSWM1Q02    003PRSWM1
0178477380999992000012507204+33120+139780FM-15+0095RJTH V0200301N007210018019N0070001N1+01001+00801999999ADDGA1071+001809999GF107991999999999999999999MA1101291999999MW1801REMMET068RJTH 250720Z 03014KT 7000 -SHRA BKN006 10/08 Q1013 RMK 7CU006 A2992;EQDQ01+000003PRSWM1Q02    003PRSWM1
0208477380999992000012507404+33120+139780FM-16+0095RJTH V0200201N005710039019N0112651N1+01001+00801999999ADDGA1021+002409999GA2071+003909999GF107991999999999999999999MA1101291999999MW1801REMMET082RJTH 250740Z 02011KT 9999 -SHRA FEW008 BKN013 10/08 Q1013 RMK 1CU008 7CU013 A2992;EQDQ01+000003PRSWM1Q02    003PRSWM1
0244477380999992000012508004+33120+139780FM-15+0095RJTH V0200101N004110039019N0112651N1+01001+00801999999ADDGA1021+002409999GA2071+003909999GA3081+030009999GF108991999999999999999999MA1101291999999MW1801REMMET102RJTH 0800Z 01008KT 310V030 9999 -SHRA FEW008 BKN013 OVC100 10/08 Q1013 RMK 1CU008 5CU013 8AS100 A2993;EQDQ01+000003PRSWM1Q02    003PRSWM1
0244477380999992000012509004+33120+139780FM-15+0095RJTH V0200101N003110300019N0112651N1+01001+00801999999ADDGA1021+003009999GA2021+004509999GA3081+030009999GF108991999999999999999999MA1101391999999MW1801REMMET102RJTH 0900Z 01006KT 340V040 9999 -SHRA FEW010 SCT015 OVC100 10/08 Q1014 RMK 1CU010 4CU015 8AS100 A2996;EQDQ01+000003PRSWM1Q02    003PRSWM1
0193477380999992000012522004+33120+139780FM-15+0095RJTH V0200101N006212200019N0112651N1+00801-00301999999ADDGA1021+009009999GA2021+015009999GF104991999999999999999999MA1101491999999MW1001REMMET083RJTH 2200Z 01012KT 330V040 9999 FEW030 SCT050 08/M03 Q1015 RMK 1CU030 3SC050 A2999;EQDQ01+000000PRSWM2
0185477380999992000012523004+33120+139780FM-15+0095RJTH V0203501N005110300019N0112651N1+00801-00301999999ADDGA1021+010509999GA2071+030009999GF107991999999999999999999MA1101591999999MW1001REMMET075RJTH 2300Z 35010KT 9999 FEW035 BKN100 08/M03 Q1016 RMK 1CU035 5AC100 A3001;EQDQ01+000000PRSWM2
0193477380999992000012600004+33120+139780FM-15+0095RJTH V0203601N004110300019N0112651N1+00901-00301999999ADDGA1021+009009999GA2071+030009999GF107991999999999999999999MA1101591999999MW1001REMMET083RJTH 0000Z 36008KT 260V030 9999 FEW030 BKN100 09/M03 Q1016 RMK 1CU030 7AC100 A3000;EQDQ01+000000PRSWM2
0193477380999992000012601004+33120+139780FM-15+0095RJTH V0200301N004110240019N0112651N1+01001-00201999999ADDGA1021+009009999GA2071+024009999GF107991999999999999999999MA1101491999999MW1001REMMET083RJTH 0100Z 03008KT 360V070 9999 FEW030 BKN080 10/M02 Q1015 RMK 2CU030 7AC080 A2999;EQDQ01+000000PRSWM2
0206477380999992000012602004+33120+139780FM-15+0095RJTH V0200401N007710075019N0112651N1+00901+00201999999ADDGA1071+007509999GA2071+015009999GF107991999999999999999999MA1101491999999MW1801REMMET080RJTH 0200Z 04015KT 9999 -SHRA BKN025 BKN050 09/02 Q1015 RMK 5CU025 7SC050 A2998;EQDQ01+000003PRSWM1Q02    003PRSWM1
0192477380999992000012603004+33120+139780FM-15+0095RJTH V0200301N006210150019N0112651N1+00901+00101999999ADDGA1021+009009999GA2071+015009999GF107991999999999999999999MA1101391999999MW1001REMMET082RJTH 0300Z 03012KT 360V070 9999 SCT030 BKN050 09/01 Q1014 RMK 3CU030 7SC050 A2995;EQDQ01+000000PRSWM2
0185477380999992000012604004+33120+139780FM-15+0095RJTH V0200401N005710150019N0112651N1+00901-00101999999ADDGA1021+009009999GA2071+015009999GF107991999999999999999999MA1101291999999MW1001REMMET075RJTH 0400Z 04011KT 9999 SCT030 BKN050 09/M01 Q1013 RMK 3CU030 7SC050 A2993;EQDQ01+000000PRSWM2
0122477380999992000012605004+33120+139780FM-15+0095RJTH V02099999999992200019N0112651N1+99999+99999999999ADDMW1001REMMET085RJTH 0500Z (260500Z) 02009KT 9999 FEW030 BKN050 09/M02 Q1013 RMK 2CU030 7SC050 A2993;EQDQ01+000000PRSWM2
0193477380999992000012606004+33120+139780FM-15+0095RJTH V0200101N004610150019N0112651N1+00801-00101999999ADDGA1021+009009999GA2071+015009999GF107991999999999999999999MA1101291999999MW1001REMMET083RJTH 0600Z 01009KT 350V050 9999 SCT030 BKN050 08/M01 Q1013 RMK 4CU030 7SC050 A2993;EQDQ01+000000PRSWM2
0213477380999992000012607004+33120+139780FM-15+0095RJTH V0200101N005710135019N0112651N1+00801+00001999999ADDGA1021+009009999GA2071+013509999GF107991999999999999999999MA1101291999999MW1611REMMET087RJTH 0700Z 01011KT 340V050 9999 -RA SCT030 BKN045 08/M00 Q1013 RMK 4CU030 7SC045 A2994;EQDQ01+000003PRSWM1Q02    003PRSWM1
0205477380999992000012608004+33120+139780FM-15+0095RJTH V0200101N005110150019N0112651N1+00701-00101999999ADDGA1021+009009999GA2071+015009999GF107991999999999999999999MA1101391999999MW1611REMMET079RJTH 0800Z 01010KT 9999 -RA FEW030 BKN050 07/M01 Q1014 RMK 1CU030 7SC050 A2995;EQDQ01+000003PRSWM1Q02    003PRSWM1
0193477380999992000012609004+33120+139780FM-15+0095RJTH V0200301N003110150019N0112651N1+00701-00101999999ADDGA1021+009009999GA2071+015009999GF107991999999999999999999MA1101391999999MW1001REMMET083RJTH 0900Z 03006KT 330V070 9999 FEW030 BKN050 07/M01 Q1014 RMK 1CU030 7SC050 A2996;EQDQ01+000000PRSWM2
0236477380999992000012622004+33120+139780FM-15+0095RJTH V02099999999990066019N0112651N1+00601+00401999999ADDGA1021+003009999GA2071+006609999GA3071+030009999GF107991999999999999999999MA1101491999999MW1801REMMET094RJTH 2200Z VRB02KT 9999 -SHRA FEW010 BKN022 BKN100 06/04 Q1015 RMK 1CU010 6CU022 7AC100 A2998;EQDQ01+000003PRSWM1Q02    003PRSWM1
0245477380999992000012622134+33120+139780FM-16+0095RJTH V0201001N002610045019N0112651N1+00601+00401999999ADDGA1021+003009999GA2071+004509999GA3071+030009999GF107991999999999999999999MA1101491999999MW1811REMMET103RJTH 262213Z 10005KT 060V150 9999 SHRA FEW010 BKN015 BKN100 06/04 Q1015 RMK 1CU010 6CU015 7AC100 A2998;EQDQ01+000003PRSWM1Q02    003PRSWM1
0205477380999992000012623004+33120+139780FM-15+0095RJTH V0200501N006710045019N0080001N1+00601+00401999999ADDGA1021+003009999GA2071+004509999GF107991999999999999999999MA1101491999999MW1811REMMET079RJTH 2300Z 05013KT 8000 SHRA FEW010 BKN015 06/04 Q1015 RMK 1CU010 7CU015 A3000;EQDQ01+000003PRSWM1Q02    003PRSWM1
0194477380999992000012700004+33120+139780FM-15+0095RJTH V0200501N007710045019N0080001N1+99999+99999999999ADDGA1021+003009999GA2071+004509999GF107991999999999999999999MA1101591999999MW1001MW2811REMMET078RJTH 0000Z 05015KT 8000 SHRA FEW010 BKN015 0/03 Q1016 RMK 1CU010 7CU015 A3002;EQDQ01+000003PRSWM1
0211477380999992000012701004+33120+139780FM-15+0095RJTH V0200401N008710045019N0112651N1+00601+00401999999ADDGA1021+003009999GA2071+004509999GF107991999999999999999999MA1101591999999MW1801REMMET085RJTH 0100Z 04017KT 9999 -SHRA FEW010 BKN015 06/04 Q1016 RERA RMK 1CU010 7CU015 A3002;EQDQ01+000003PRSWM1Q02    003PRSWM1
0206477380999992000012702004+33120+139780FM-15+0095RJTH V0200401N009810060019N0112651N1+00601+00301999999ADDGA1021+004509999GA2071+006009999GF107991999999999999999999MA1101591999999MW1801REMMET080RJTH 0200Z 04019KT 9999 -SHRA FEW015 BKN020 06/03 Q1016 RMK 1CU015 7CU020 A3000;EQDQ01+000003PRSWM1Q02    003PRSWM1
0217477380999992000012703004+33120+139780FM-15+0095RJTH V0200301N010310060019N0112651N1+00601+00301999999ADDGA1021+004509999GA2071+006009999GF107991999999999999999999MA1101491999999MW1801OC101541REMMET083RJTH 0300Z 03020G30KT 9999 -SHRA FEW015 BKN020 06/03 Q1015 RMK 1CU015 7CU020 A2999;EQDQ01+000003PRSWM1Q02    003PRSWM1
0217477380999992000012704004+33120+139780FM-15+0095RJTH V0200401N011310054019N0112651N1+00501+00201999999ADDGA1021+003609999GA2071+005409999GF107991999999999999999999MA1101491999999MW1801OC101701REMMET083RJTH 0400Z 04022G33KT 9999 -SHRA FEW012 BKN018 05/02 Q1015 RMK 1CU012 7CU018 A2999;EQDQ01+000003PRSWM1Q02    003PRSWM1
0182477380999992000012705004+33120+139780FM-15+0095RJTH V0200301N007710060019N0080001N1+00501+00101999999ADDGA1021+004209999GA2071+006009999GF107991999999999999999999MA1101591999999MW1801REMMET056RJTH 0500Z 03015KT 8000 -SHRA FEW014 BKN020 05/01 Q1016;EQDQ01+000003PRSWM1Q02    003PRSWM1
0181477380999992000012706004+33120+139780FM-15+0095RJTH V0200201N007210036019N0070001N1+00401+00201999999ADDGA1071+003609999GF107991999999999999999999MA1101591999999MW1801REMMET071RJTH 0600Z 02014KT 7000 -SHRA BKN012 04/02 Q1016 RERA RMK 7CU012 A3003;EQDQ01+000003PRSWM1Q02    003PRSWM1
0177477380999992000012706074+33120+139780FM-16+0095RJTH V0200301N007710036019N0070001N1+00301+00201999999ADDGA1071+003609999GF107991999999999999999999MA1101691999999MW1811REMMET067RJTH 270607Z 03015KT 7000 SHRA BKN012 03/02 Q1017 RMK 7CU012 A3003;EQDQ01+000003PRSWM1Q02    003PRSWM1
0211477380999992000012707004+33120+139780FM-15+0095RJTH V0200401N007710060019N0112651N1+00401+00201999999ADDGA1021+003609999GA2071+006009999GF107991999999999999999999MA1101691999999MW1801REMMET085RJTH 0700Z 04015KT 9999 -SHRA FEW012 BKN020 04/02 Q1017 RERA RMK 1CU012 7CU020 A3005;EQDQ01+000003PRSWM1Q02    003PRSWM1
0215477380999992000012708004+33120+139780FM-15+0095RJTH V0200501N007210150019N0112651N1+00401+00001999999ADDGA1021+007509999GA2071+015009999GA3071+030009999GF107991999999999999999999MA1101691999999MW1001REMMET089RJTH 0800Z 05014KT 9999 FEW025 BKN050 BKN100 04/M00 Q1017 RMK 2CU025 5SC050 5AC100 A3006;EQDQ01+000000PRSWM2
0208477380999992000012709004+33120+139780FM-15+0095RJTH V0200501N007219999999N0112651N1+00501-00101999999ADDGA1021+006009999GA2021+018009999GA3071+999999999GF107991999999999999999999MA1101801999999MW1001REMMET082RJTH 0900Z 05014KT 9999 FEW020 SCT060 BKN/// 05/M01 Q1018 RMK 1CU020 3SC060 A3007;EQDQ01+000000PRSWM2
0163477380999992000012722004+33120+139780FM-15+0095RJTH V0203401N003612200019N0112651N1+00501-00201999999ADDGA1021+009009999GF104991999999999999999999MA1102101999999MW1001REMMET069RJTH 2200Z 34007KT 300V020 9999 SCT030 05/M02 Q1021 RMK 3CU030 A3018;EQDQ01+000000PRSWM2
0154477380999992000012723004+33120+139780FM-15+0095RJTH V0200201N006212200019N0112651N1+00601+00101999999ADDGA1021+006009999GF104991999999999999999999MA1102201999999MW1001REMMET060RJTH 2300Z 02012KT 9999 SCT020 06/01 Q1022 RMK 3CU020 A3019;EQDQ01+000000PRSWM2
