0201479190999992000012100004+99999+999999FM-12+999999999V0203401N006019999999N0250001N1+01191+00531103261ADDAA112001091AY181061AY221061GF106991061021999999001001KA1999N+01011MA1999999103171MD1119999+9999MW1251REMSYN088AAXX  2100  47919 /1/75 63406 10119 20053 30317 40326 51/12 60012 72582 86200 333 20101;
0133479190999992000012209004+99999+999999FM-12+999999999V0201301N001019999999N0250001N1+99999+99999102751ADDGF105991051021999999001001MA1999999102661MD1310041+9999REMSYN066AAXX  2209  47919 42/75 51301 1/254 20084 30266 40275 53004 85200;
0133479190999992000022621004+99999+999999FM-12+999999999V0203401N006019999999N0200001N1+01281+00241102161ADDGF106991061021999999001001MA1999999102071MD1310111+9999REMSYN066AAXX  2621  47919 42/70 63406 10128 20024 30207 40216 53011 86200;
