0214484500999992000010100004+14020+099530FM-12+0029VTBG V0209999C000012200019N0060001N1+02001+01841101131ADDAA106000091AY101061AY201061GF102991001001999999001051KA1120N+01991MA1999999100801MD1999999+0031MW1101REMSYN082AAXX  01004 48450 31956 20000 10200 20184 30080 40113 71000 80005 333 20199 58003;EQDQ01  00002PRCP06
0195484500999992000010103004+14020+099530FM-12+0029VTBG V0209999C000012200019N0060001N1+02641+01981101271ADDAA106000091AY101031AY201031GF102991001001999999001051MA1999999100941MD1999999-0011MW1101REMSYN076AAXX  01034 48450 31956 20000 10264 20198 30094 40127 71000 80005 333 59001;EQDQ01  00002PRCP06
0195484500999992000010106004+14020+099530FM-12+0029VTBG V0200401N001012200019N0070001N1+03251+01811100971ADDAA106000091AY101061AY201061GF102991011051008001001051MA1999999100651MD1999999-0111MW1051REMSYN076AAXX  01064 48450 31557 20402 10325 20181 30065 40097 70500 81505 333 59011;EQDQ01  00002PRCP06
0195484500999992000010109004+14020+099530FM-12+0029VTBG V0209999C000012200019N0060001N1+03261+01851100791ADDAA106000091AY101031AY201031GF102991001001999999001051MA1999999100461MD1999999-0041MW1051REMSYN076AAXX  01094 48450 31556 20000 10326 20185 30046 40079 70500 80005 333 59004;EQDQ01  00002PRCP06
0214484500999992000010112004+14020+099530FM-12+0029VTBG V0209999C000012200019N0060001N1+02801+02041100951ADDAA106000091AY101061AY201061GF102991001001999999001051KA1120M+03361MA1999999100621MD1999999-0031MW1051REMSYN082AAXX  01124 48450 31956 20000 10280 20204 30062 40095 70500 80005 333 10336 59003;EQDQ01  00002PRCP06
0195484500999992000010115004+14020+099530FM-12+0029VTBG V0209999C000012200019N0070001N1+02441+01941101111ADDAA106000091AY101031AY201031GF102991001001999999001051MA1999999100771MD1999999-0021MW1101REMSYN076AAXX  01154 48450 31957 20000 10244 20194 30077 40111 71000 80005 333 59002;EQDQ01  00002PRCP06
0195484500999992000010118004+14020+099530FM-12+0029VTBG V0209999C000012200019N0060001N1+02251+01971101111ADDAA106000091AY101061AY201061GF102991001001999999001051MA1999999100781MD1999999-0061MW1101REMSYN076AAXX  01184 48450 31956 20000 10225 20197 30078 40111 71000 80005 333 59006;EQDQ01  00002PRCP06
0195484500999992000010121004+14020+099530FM-12+0029VTBG V0209999C000012200019N0060001N1+02101+01891100981ADDAA106000091AY101031AY201031GF102991001001999999001051MA1999999100641MD1999999-0061MW1101REMSYN076AAXX  01214 48450 31956 20000 10210 20189 30064 40098 71000 80005 333 59006;EQDQ01  00002PRCP06
0214484500999992000010200004+14020+099530FM-12+0029VTBG V0209999C000012200019N0050001N1+02051+01861101051ADDAA106000091AY101061AY201061GF103991001001999999001061KA1120N+02051MA1999999100711MD1999999-0081MW1101REMSYN082AAXX  02004 48450 31950 30000 10205 20186 30071 40105 71000 80006 333 20205 59008;EQDQ01  00002PRCP06
0195484500999992000010203004+14020+099530FM-12+0029VTBG V0209999C000012200019N0060001N1+02751+01881101291ADDAA106000091AY101031AY201031GF102991001001999999001051MA1999999100961MD1999999+0021MW1051REMSYN076AAXX  02034 48450 31956 20000 10275 20188 30096 40129 70500 80005 333 58002;EQDQ01  00002PRCP06
0195484500999992000010206004+14020+099530FM-12+0029VTBG V0200601N001512200019N0060001N1+03201+01861101021ADDAA106000091AY101061AY201061GF102991011011008001001051MA1999999100691MD1999999+0051MW1051REMSYN076AAXX  02064 48450 31556 20603 10320 20186 30069 40102 70500 81105 333 58005;EQDQ01  00002PRCP06
0195484500999992000010209004+14020+099530FM-12+0029VTBG V0200301N002612200019N0060001N1+03201+01901100781ADDAA106000091AY111031AY201031GF105991011011008001001061MA1999999100451MD1999999-0011MW1051REMSYN076AAXX  02094 48450 31556 50305 10320 20190 30045 40078 70510 81106 333 59001;EQDQ01  00002PRCP06
0214484500999992000010212004+14020+099530FM-12+0029VTBG V0209999C000012200019N0060001N1+02801+02041100881ADDAA106000091AY111061AY211061GF104991011011008001001061KA1120M+03361MA1999999100551MD1999999-0071MW1051REMSYN082AAXX  02124 48450 31556 40000 10280 20204 30055 40088 70511 81106 333 10336 59007;EQDQ01  00002PRCP06
0195484500999992000010215004+14020+099530FM-12+0029VTBG V0209999C000012200019N0060001N1+02571+02041101081ADDAA106000091AY101031AY201031GF102991011011008001001051MA1999999100751MD1999999-0031MW1101REMSYN076AAXX  02154 48450 31556 20000 10257 20204 30075 40108 71000 81105 333 59003;EQDQ01  00002PRCP06
0195484500999992000010218004+14020+099530FM-12+0029VTBG V0209999C000019999999N0060001N1+02321+01991101091ADDAA106000091AY111061AY201061GF105991001001999999001061MA1999999100761MD1999999-0021MW1101REMSYN076AAXX  02184 48450 31956 50000 10232 20199 30076 40109 71010 80006 333 59002;EQDQ01  00002PRCP06
0195484500999992000010221004+14020+099530FM-12+0029VTBG V0209999C000012200019N0060001N1+02251+01951100951ADDAA106000091AY111031AY201031GF102991001001999999001051MA1999999100621MD1999999-0031MW1101REMSYN076AAXX  02214 48450 31956 20000 10225 20195 30062 40095 71010 80005 333 59003;EQDQ01  00002PRCP06
0214484500999992000010300004+14020+099530FM-12+0029VTBG V0209999C000019999999N0060001N1+02211+01911101061ADDAA106000091AY121061AY211061GF106991051001999999051051KA1120N+02181MA1999999100721MD1999999+0011MW1101REMSYN082AAXX  03004 48450 31956 60000 10221 20191 30072 40106 71021 85055 333 20218 58001;EQDQ01  00002PRCP06
0195484500999992000010303004+14020+099530FM-12+0029VTBG V0200101N001019999999N0070001N1+02881+01931101231ADDAA106000091AY121031AY221031GF106991021001999999041061MA1999999100911MD1999999-0061MW1051REMSYN076AAXX  03034 48450 31957 60102 10288 20193 30091 40123 70522 82046 333 59006;EQDQ01  00002PRCP06
0195484500999992000010306004+14020+099530FM-12+0029VTBG V0200401N001511050019N0070001N1+03181+01971100951ADDAA106000091AY121061AY221061GF106991021011008001041061MA1999999100621MD1999999-0051MW1051REMSYN076AAXX  03064 48450 31557 60403 10318 20197 30062 40095 70522 82146 333 59005;EQDQ01  00002PRCP06
0195484500999992000010309004+14020+099530FM-12+0029VTBG V0201201N001010450019N0070001N1+03121+01911100751ADDAA106000091AY121031AY221031GF107991021011008001031061MA1999999100421MD1999999-0031MW1051REMSYN076AAXX  03094 48450 31557 71202 10312 20191 30042 40075 70522 82136 333 59003;EQDQ01  00002PRCP06
0214484500999992000010312004+14020+099530FM-12+0029VTBG V0209999C000012200019N0070001N1+02821+02151100841ADDAA106000091AY121061AY221061GF106991011011008001001061KA1120M+03251MA1999999100511MD1999999-0041MW1101REMSYN082AAXX  03124 48450 31557 60000 10282 20215 30051 40084 71022 81106 333 10325 59004;EQDQ01  00002PRCP06
0195484500999992000010315004+14020+099530FM-12+0029VTBG V0209999C000011050019N0070001N1+02531+02151101051ADDAA106000091AY121031AY221031GF105991011011008001001051MA1999999100721MD1999999-0031MW1101REMSYN076AAXX  03154 48450 31557 50000 10253 20215 30072 40105 71022 81105 333 59003;EQDQ01  00002PRCP06
0143484500999992000010318004+14020+099530FM-12+0029VTBG V0209999C000019999999N0060001N1+02371+02061999999ADDAA106000091GF105991999999008001999999REMSYN075AAXX  03184 48450 31556 50000 10237 20206 3063 40096 71022 81146 333 59013;EQDQ01  00002PRCP06
0195484500999992000010321004+14020+099530FM-12+0029VTBG V0209999C000012200019N0060001N1+02251+01971100891ADDAA106000091AY111031AY201031GF102991001001999999001051MA1999999100551MD1999999-0061MW1101REMSYN076AAXX  03214 48450 31956 20000 10225 20197 30055 40089 71010 80005 333 59006;EQDQ01  00002PRCP06
0214484500999992000010400004+14020+099530FM-12+0029VTBG V0209999C000012200019N0060001N1+02151+01961101001ADDAA106000091AY111061AY201061GF102991001001999999001061KA1120N+02141MA1999999100661MD1999999-0061MW1101REMSYN082AAXX  04004 48450 31956 20000 10215 20196 30066 40100 71010 80006 333 20214 59006;EQDQ01  00002PRCP06
0195484500999992000010403004+14020+099530FM-12+0029VTBG V0209999C000012200019N0060001N1+02741+02071101201ADDAA106000091AY101031AY201031GF101991001001999999001051MA1999999100871MD1999999-0031MW1101REMSYN076AAXX  04034 48450 31956 10000 10274 20207 30087 40120 71000 80005 333 59003;EQDQ01  00002PRCP06
0195484500999992000010406004+14020+099530FM-12+0029VTBG V0209999C000012200019N0060001N1+03161+02091100951ADDAA106000091AY101061AY201061GF102991021021008001001051MA1999999100621MD1999999+0001MW1051REMSYN076AAXX  04064 48450 31556 20000 10316 20209 30062 40095 70500 82205 333 58000;EQDQ01  00002PRCP06
0195484500999992000010409004+14020+099530FM-12+0029VTBG V0209999C000012200019N0060001N1+03291+01921100751ADDAA106000091AY101031AY201031GF102991011051008001001051MA1999999100431MD1999999+0001MW1051REMSYN076AAXX  04094 48450 31556 20000 10329 20192 30043 40075 70500 81505 333 58000;EQDQ01  00002PRCP06
0214484500999992000010412004+14020+099530FM-12+0029VTBG V0209999C000012200019N0060001N1+02901+02111100881ADDAA106000091AY101061AY201061GF102991001001999999001051KA1120M+03341MA1999999100551MD1999999+0041MW1051REMSYN082AAXX  04124 48450 31956 20000 10290 20211 30055 40088 70500 80005 333 10334 58004;EQDQ01  00002PRCP06
0195484500999992000010415004+14020+099530FM-12+0029VTBG V0209999C000012200019N0060001N1+02581+02111101091ADDAA106000091AY101031AY201031GF102991001001999999001051MA1999999100761MD1999999+0041MW1101REMSYN076AAXX  04154 48450 31956 20000 10258 20211 30076 40109 71000 80005 333 58004;EQDQ01  00002PRCP06
0195484500999992000010418004+14020+099530FM-12+0029VTBG V0209999C000012200019N0060001N1+02431+02061101091ADDAA106000091AY101061AY201061GF102991011001999999051051MA1999999100761MD1999999+0131MW1101REMSYN076AAXX  04184 48450 31956 20000 10243 20206 30076 40109 71000 81055 333 58013;EQDQ01  00002PRCP06
0195484500999992000010421004+14020+099530FM-12+0029VTBG V0209999C000012200019N0060001N1+02271+02021100981ADDAA106000091AY101031AY201031GF102991001001999999001051MA1999999100651MD1999999+0091MW1101REMSYN076AAXX  04214 48450 31956 20000 10227 20202 30065 40098 71000 80005 333 58009;EQDQ01  00002PRCP06
0214484500999992000010500004+14020+099530FM-12+0029VTBG V0209999C000012200019N0050001N1+02121+01961101041ADDAA106000091AY101061AY201061GF102991001001999999001051KA1120N+02121MA1999999100701MD1999999+0041MW1101REMSYN082AAXX  05004 48450 31950 20000 10212 20196 30070 40104 71000 80005 333 20212 58004;EQDQ01  00002PRCP06
0195484500999992000010503004+14020+099530FM-12+0029VTBG V0209999C000012200019N0060001N1+02711+02071101231ADDAA106000091AY101031AY201031GF102991001001999999001051MA1999999100901MD1999999+0031MW1101REMSYN076AAXX  05034 48450 31956 20000 10271 20207 30090 40123 71000 80005 333 58003;EQDQ01  00002PRCP06
0195484500999992000010506004+14020+099530FM-12+0029VTBG V0209999C000012200019N0060001N1+03351+02091100951ADDAA106000091AY101061AY201061GF103991021011008001001051MA1999999100631MD1999999+0001MW1051REMSYN076AAXX  05064 48450 31556 30000 10335 20209 30063 40095 70500 82105 333 58000;EQDQ01  00002PRCP06
0214484500999992000010512004+14020+099530FM-12+0029VTBG V0209999C000012200019N0060001N1+02971+02151100801ADDAA106000091AY101061AY201061GF102991011011008001001051KA1120M+03531MA1999999100471MD1999999-0081MW1051REMSYN082AAXX  05124 48450 31556 20000 10297 20215 30047 40080 70500 81105 333 10353 59008;EQDQ01  00002PRCP06
0195484500999992000010515004+14020+099530FM-12+0029VTBG V0209999C000012200019N0060001N1+02621+02141101021ADDAA106000091AY101031AY201031GF102991001001999999001051MA1999999100691MD1999999-0071MW1101REMSYN076AAXX  05154 48450 31956 20000 10262 20214 30069 40102 71000 80005 333 59007;EQDQ01  00002PRCP06
0195484500999992000010518004+14020+099530FM-12+0029VTBG V0209999C000012200019N0060001N1+02501+02061101021ADDAA106000091AY101061AY201061GF102991001001999999001051MA1999999100691MD1999999-0071MW1101REMSYN076AAXX  05184 48450 31956 20000 10250 20206 30069 40102 71000 80005 333 59007;EQDQ01  00002PRCP06
0195484500999992000010521004+14020+099530FM-12+0029VTBG V0209999C000012200019N0060001N1+02311+02001100851ADDAA106000091AY101031AY201031GF102991001001999999001051MA1999999100511MD1999999-0131MW1101REMSYN076AAXX  05214 48450 31956 20000 10231 20200 30051 40085 71000 80005 333 59013;EQDQ01  00002PRCP06
0195484500999992000010603004+14020+099530FM-12+0029VTBG V0209999C000012200019N0060001N1+02801+02211101191ADDAA106000091AY101031AY201031GF102991001001999999001051MA1999999100861MD1999999-0041MW1101REMSYN076AAXX  06034 48450 31956 20000 10280 20221 30086 40119 71000 80005 333 59004;EQDQ01  00002PRCP06
0195484500999992000010606004+14020+099530FM-12+0029VTBG V0200601N001012200019N0060001N1+03261+02081100931ADDAA106000091AY101061AY201061GF102991011011999999001051MA1999999100611MD1999999-0021MW1051REMSYN076AAXX  06064 48450 31956 20602 10326 20208 30061 40093 70500 81105 333 59002;EQDQ01  00002PRCP06
0195484500999992000010609004+14020+099530FM-12+0029VTBG V0209999C000012200019N0060001N1+03441+02001100701ADDAA106000091AY101031AY201031GF102991001001999999001051MA1999999100381MD1999999+0001MW1051REMSYN076AAXX  06094 48450 31956 20000 10344 20200 30038 40070 70500 80005 333 58000;EQDQ01  00002PRCP06
0214484500999992000010612004+14020+099530FM-12+0029VTBG V0209999C000012200019N0060001N1+03001+02271100801ADDAA106000091AY101061AY201061GF102991001001999999001051KA1120M+03481MA1999999100471MD1999999+0001MW1051REMSYN082AAXX  06124 48450 31956 20000 10300 20227 30047 40080 70500 80005 333 10348 58000;EQDQ01  00002PRCP06
0195484500999992000010615004+14020+099530FM-12+0029VTBG V0209999C000012200019N0060001N1+02611+02131101131ADDAA106000091AY101031AY201031GF102991001001999999001051MA1999999100781MD1999999+0111MW1101REMSYN076AAXX  06154 48450 31956 20000 10261 20213 30078 40113 71000 80005 333 58011;EQDQ01  00002PRCP06
0195484500999992000010621004+14020+099530FM-12+0029VTBG V0209999C000012200019N0060001N1+02361+02071100921ADDAA106000091AY101031AY201031GF102991001001999999001051MA1999999100591MD1999999+0071MW1101REMSYN076AAXX  06214 48450 31956 20000 10236 20207 30059 40092 71000 80005 333 58007;EQDQ01  00002PRCP06
0214484500999992000010700004+14020+099530FM-12+0029VTBG V0209999C000012200019N0060001N1+02261+02061100991ADDAA106000091AY101061AY201061GF102991011001999999051051KA1120N+02251MA1999999100661MD1999999+0041MW1101REMSYN082AAXX  07004 48450 31956 20000 10226 20206 30066 40099 71000 81055 333 20225 58004;EQDQ01  00002PRCP06
0195484500999992000010703004+14020+099530FM-12+0029VTBG V0209999C000012200019N0060001N1+02651+02161101211ADDAA106000091AY101031AY201031GF102991001001999999001061MA1999999100881MD1999999+0021MW1101REMSYN076AAXX  07034 48450 31956 20000 10265 20216 30088 40121 71000 80006 333 58002;EQDQ01  00002PRCP06
0195484500999992000010706004+14020+099530FM-12+0029VTBG V0209999C000012200019N0070001N1+03301+01931100951ADDAA106000091AY101061AY201061GF103991011011008001041061MA1999999100621MD1999999+0021MW1051REMSYN076AAXX  07064 48450 31557 30000 10330 20193 30062 40095 70500 81146 333 58002;EQDQ01  00002PRCP06
0195484500999992000010709004+14020+099530FM-12+0029VTBG V0209999C000012200019N0070001N1+03411+02111100751ADDAA106000091AY101031AY201031GF103991011011008001041061MA1999999100431MD1999999+0051MW1051REMSYN076AAXX  07094 48450 31557 30000 10341 20211 30043 40075 70500 81146 333 58005;EQDQ01  00002PRCP06
0214484500999992000010712004+14020+099530FM-12+0029VTBG V0209999C000012200019N0060001N1+03001+02221100871ADDAA106000091AY101061AY201061GF102991001001999999001061KA1120M+03511MA1999999100541MD1999999+0071MW1051REMSYN082AAXX  07124 48450 31956 20000 10300 20222 30054 40087 70500 80006 333 10351 58007;EQDQ01  00002PRCP06
0195484500999992000010715004+14020+099530FM-12+0029VTBG V0209999C000012200019N0060001N1+02721+02201101111ADDAA106000091AY101031AY201031GF102991001001999999001051MA1999999100781MD1999999-0021MW1101REMSYN076AAXX  07154 48450 31956 20000 10272 20220 30078 40111 71000 80005 333 59002;EQDQ01  00002PRCP06
0195484500999992000010718004+14020+099530FM-12+0029VTBG V0209999C000012200019N0060001N1+02531+02151101111ADDAA106000091AY101061AY201061GF102991001001999999001051MA1999999100781MD1999999+0031MW1101REMSYN076AAXX  07184 48450 31956 20000 10253 20215 30078 40111 71000 80005 333 58003;EQDQ01  00002PRCP06
0195484500999992000010721004+14020+099530FM-12+0029VTBG V0209999C000012200019N0060001N1+02351+02091101011ADDAA106000091AY101031AY201031GF102991001001999999001051MA1999999100681MD1999999+0091MW1101REMSYN076AAXX  07214 48450 31956 20000 10235 20209 30068 40101 71000 80005 333 58009;EQDQ01  00002PRCP06
0214484500999992000010800004+14020+099530FM-12+0029VTBG V0209999C000019999999N0060001N1+02221+02031101061ADDAA106000091AY111061AY201061GF105991011001999999041061KA1120N+02171MA1999999100721MD1999999+0071MW1101REMSYN082AAXX  08004 48450 31956 50000 10222 20203 30072 40106 71010 81046 333 20217 58007;EQDQ01  00002PRCP06
0195484500999992000010803004+14020+099530FM-12+0029VTBG V0209999C000012200019N0060001N1+02721+02181101231ADDAA106000091AY111031AY201031GF102991001001999999001051MA1999999100901MD1999999+0021MW1101REMSYN076AAXX  08034 48450 31956 20000 10272 20218 30090 40123 71010 80005 333 58002;EQDQ01  00002PRCP06
0195484500999992000010806004+14020+099530FM-12+0029VTBG V0209999C000012200019N0060001N1+03321+02101100991ADDAA106000091AY111061AY201061GF103991021011008001001051MA1999999100671MD1999999+0041MW1051REMSYN076AAXX  08064 48450 31556 30000 10332 20210 30067 40099 70510 82105 333 58004;EQDQ01  00002PRCP06
0195484500999992000010809004+14020+099530FM-12+0029VTBG V0201601N001012200019N0060001N1+03491+02101100721ADDAA106000091AY101031AY201031GF103991021021008001001051MA1999999100391MD1999999-0031MW1051REMSYN076AAXX  08094 48450 31556 31602 10349 20210 30039 40072 70500 82205 333 59003;EQDQ01  00002PRCP06
0214484500999992000010812004+14020+099530FM-12+0029VTBG V0209999C000012200019N0060001N1+02971+02241100861ADDAA106000091AY101061AY201061GF103991011011008001041051KA1120M+03521MA1999999100531MD1999999-0011MW1101REMSYN082AAXX  08124 48450 31556 30000 10297 20224 30053 40086 71000 81145 333 10352 59001;EQDQ01  00002PRCP06
0195484500999992000010815004+14020+099530FM-12+0029VTBG V0209999C000012200019N0060001N1+02701+02191101071ADDAA106000091AY101031AY201031GF102991001001999999001051MA1999999100731MD1999999-0041MW1101REMSYN076AAXX  08154 48450 31956 20000 10270 20219 30073 40107 71000 80005 333 59004;EQDQ01  00002PRCP06
0195484500999992000010818004+14020+099530FM-12+0029VTBG V0209999C000012200019N0060001N1+02571+02201101061ADDAA106000091AY101061AY201061GF103991011001999999041051MA1999999100731MD1999999-0051MW1101REMSYN076AAXX  08184 48450 31956 30000 10257 20220 30073 40106 71000 81045 333 59005;EQDQ01  00002PRCP06
0195484500999992000010821004+14020+099530FM-12+0029VTBG V0209999C000010450019N0060001N1+02481+02161100991ADDAA106000091AY121031AY201031GF107991021051012501071061MA1999999100651MD1999999-0021MW1101REMSYN076AAXX  08214 48450 31656 70000 10248 20216 30065 40099 71020 82576 333 59002;EQDQ01  00002PRCP06
0195484500999992000010903004+14020+099530FM-12+0029VTBG V0209999C000010450019N0060001N1+02701+02211101261ADDAA106000091AY121031AY221031GF108991021051012501071061MA1999999100931MD1999999+0031MW1101REMSYN076AAXX  09034 48450 31656 80000 10270 20221 30093 40126 71022 82576 333 58003;EQDQ01  00002PRCP06
0195484500999992000010909004+14020+099530FM-12+0029VTBG V0209999C000010120019N0060001N1+03431+02151100741ADDAA106000091AY121031AY221031GF106991051081008001051061MA1999999100421MD1999999+0021MW1051REMSYN076AAXX  09094 48450 31556 60000 10343 20215 30042 40074 70522 85856 333 58002;EQDQ01  00002PRCP06
0214484500999992000010912004+14020+099530FM-12+0029VTBG V0209999C000010450019N0060001N1+03061+02241100841ADDAA106000091AY121061AY221061GF105991031081008001041061KA1120M+03511MA1999999100511MD1999999-0021MW1051REMSYN082AAXX  09124 48450 31556 50000 10306 20224 30051 40084 70522 83846 333 10351 59002;EQDQ01  00002PRCP06
0195484500999992000010915004+14020+099530FM-12+0029VTBG V0209999C000012200019N0060001N1+02781+02141101021ADDAA106000091AY111031AY201031GF103991021051012501001051MA1999999100691MD1999999-0051MW1101REMSYN076AAXX  09154 48450 31656 30000 10278 20214 30069 40102 71010 82505 333 59005;EQDQ01  00002PRCP06
0195484500999992000010918004+14020+099530FM-12+0029VTBG V0209999C000012200019N0060001N1+02511+02151100951ADDAA106000091AY101061AY201061GF102991001001999999001051MA1999999100621MD1999999-0111MW1101REMSYN076AAXX  09184 48450 31956 20000 10251 20215 30062 40095 71000 80005 333 59011;EQDQ01  00002PRCP06
0195484500999992000010921004+14020+099530FM-12+0029VTBG V0209999C000012200019N0060001N1+02421+02161100831ADDAA106000091AY101031AY201031GF102991001001999999001051MA1999999100491MD1999999-0161MW1101REMSYN076AAXX  09214 48450 31956 20000 10242 20216 30049 40083 71000 80005 333 59016;EQDQ01  00002PRCP06
0214484500999992000011000004+14020+099530FM-12+0029VTBG V0209999C000012200019N0060001N1+02371+02141100961ADDAA106000091AY111061AY201061GF104991031001999999051051KA1120N+02351MA1999999100631MD1999999-0081MW1101REMSYN082AAXX  10004 48450 31956 40000 10237 20214 30063 40096 71010 83055 333 20235 59008;EQDQ01  00002PRCP06
0195484500999992000011003004+14020+099530FM-12+0029VTBG V0209999C000019999999N0060001N1+02701+02231101171ADDAA106000091AY121031AY211031GF105991031001999999051061MA1999999100841MD1999999-0091MW1101REMSYN076AAXX  10034 48450 31956 50000 10270 20223 30084 40117 71021 83056 333 59009;EQDQ01  00002PRCP06
0195484500999992000011006004+14020+099530FM-12+0029VTBG V0209999C000011050019N0060001N1+03281+02301100971ADDAA106000091AY121061AY211061GF105991011021008001051061MA1999999100651MD1999999+0021MW1051REMSYN076AAXX  10064 48450 31556 50000 10328 20230 30065 40097 70521 81256 333 58002;EQDQ01  00002PRCP06
0195484500999992000011009004+14020+099530FM-12+0029VTBG V0209999C000011050019N0060001N1+03471+02201100731ADDAA106000091AY121031AY221031GF105991011021008001041061MA1999999100401MD1999999-0011MW1051REMSYN076AAXX  10094 48450 31556 50000 10347 20220 30040 40073 70522 81246 333 59001;EQDQ01  00002PRCP06
0214484500999992000011012004+14020+099530FM-12+0029VTBG V0209999C000012200019N0060001N1+03061+02341100791ADDAA106000091AY121061AY211061GF102991001001999999001061KA1120M+03521MA1999999100461MD1999999-0051MW1051REMSYN082AAXX  10124 48450 31956 20000 10306 20234 30046 40079 70521 80006 333 10352 59005;EQDQ01  00002PRCP06
0195484500999992000011015004+14020+099530FM-12+0029VTBG V0209999C000012200019N0060001N1+02801+02291101001ADDAA106000091AY101031AY201031GF102991001001999999001051MA1999999100671MD1999999-0021MW1101REMSYN076AAXX  10154 48450 31956 20000 10280 20229 30067 40100 71000 80005 333 59002;EQDQ01  00002PRCP06
0195484500999992000011018004+14020+099530FM-12+0029VTBG V0209999C000012200019N0060001N1+02561+02221100981ADDAA106000091AY101061AY201061GF102991001001999999001051MA1999999100641MD1999999+0031MW1101REMSYN076AAXX  10184 48450 31956 20000 10256 20222 30064 40098 71000 80005 333 58003;EQDQ01  00002PRCP06
0195484500999992000011103004+14020+099530FM-12+0029VTBG V0209999C000012200019N0050001N1+02701+02211101211ADDAA106000091AY111031AY201031GF105991021011008001001061MA1999999100881MD1999999+0041MW1101REMSYN076AAXX  11034 48450 31550 50000 10270 20221 30088 40121 71010 82106 333 58004;EQDQ01  00002PRCP06
0195484500999992000011106004+14020+099530FM-12+0029VTBG V0209999C000012200019N0050001N1+03301+02171100951ADDAA106000091AY111061AY201061GF103991011011008001001051MA1999999100631MD1999999-0021MW1051REMSYN076AAXX  11064 48450 31550 30000 10330 20217 30063 40095 70510 81105 333 59002;EQDQ01  00002PRCP06
0195484500999992000011109004+14020+099530FM-12+0029VTBG V0201601N001012200019N0060001N1+03521+02281100671ADDAA106000091AY101031AY201031GF104991021021008001001051MA1999999100351MD1999999-0061MW1051REMSYN076AAXX  11094 48450 31556 41602 10352 20228 30035 40067 70500 82205 333 59006;EQDQ01  00002PRCP06
0214484500999992000011112004+14020+099530FM-12+0029VTBG V0209999C000012200019N0050001N1+03111+02381100781ADDAA106000091AY101061AY201061GF104991011011008001001061KA1120M+03541MA1999999100451MD1999999-0011MW1101REMSYN082AAXX  11124 48450 31550 40000 10311 20238 30045 40078 71000 81106 333 10354 59001;EQDQ01  00002PRCP06
0195484500999992000011115004+14020+099530FM-12+0029VTBG V0209999C000012200019N0050001N1+02791+02241100991ADDAA106000091AY101031AY201031GF104991011011008001001061MA1999999100661MD1999999-0011MW1101REMSYN076AAXX  11154 48450 31550 40000 10279 20224 30066 40099 71000 81106 333 59001;EQDQ01  00002PRCP06
0195484500999992000011118004+14020+099530FM-12+0029VTBG V0209999C000012200019N0050001N1+02711+02201100931ADDAA106000091AY101061AY201061GF104991001001999999001061MA1999999100601MD1999999-0051MW1101REMSYN076AAXX  11184 48450 31950 40000 10271 20220 30060 40093 71000 80006 333 59005;EQDQ01  00002PRCP06
0195484500999992000011121004+14020+099530FM-12+0029VTBG V0209999C000012200019N0050001N1+02571+02201100831ADDAA106000091AY111031AY211031GF105991021011008001001061MA1999999100501MD1999999-0081MW1101REMSYN076AAXX  11214 48450 31550 50000 10257 20220 30050 40083 71011 82106 333 59008;EQDQ01  00002PRCP06
0214484500999992000011200004+14020+099530FM-12+0029VTBG V0209999C000012200019N0040001N1+02511+02211100971ADDAA106000091AY121061AY221061GF106991021051008001001061KA1120N+02491MA1999999100641MD1999999-0041MW1101REMSYN082AAXX  12004 48450 31540 60000 10251 20221 30064 40097 71022 82506 333 20249 59004;EQDQ01  00002PRCP06
0195484500999992000011203004+14020+099530FM-12+0029VTBG V0209999C000012200019N0050001N1+02921+02361101191ADDAA106000091AY121031AY221031GF105991021051008001001061MA1999999100861MD1999999-0021MW1101REMSYN076AAXX  12034 48450 31550 50000 10292 20236 30086 40119 71022 82506 333 59002;EQDQ01  00002PRCP06
0195484500999992000011206004+14020+099530FM-12+0029VTBG V0201501N001012200019N0060001N1+03401+02271100941ADDAA106000091AY121061AY221061GF106991041081008001001061MA1999999100621MD1999999-0011MW1051REMSYN076AAXX  12064 48450 31556 61502 10340 20227 30062 40094 70522 84806 333 59001;EQDQ01  00002PRCP06
0195484500999992000011209004+14020+099530FM-12+0029VTBG V0209999C000012200019N0060001N1+03551+02251100601ADDAA106000091AY121031AY221031GF106991041081008001001061MA1999999100281MD1999999-0071MW1051REMSYN076AAXX  12094 48450 31556 60000 10355 20225 30028 40060 70522 84806 333 59007;EQDQ01  00002PRCP06
0214484500999992000011212004+14020+099530FM-12+0029VTBG V0209999C000012200019N0060001N1+03031+02141100771ADDAA106000091AY121061AY221061GF106991041081008001001061KA1120M+03611MA1999999100451MD1999999-0011MW1051REMSYN082AAXX  12124 48450 31556 60000 10303 20214 30045 40077 70522 84806 333 10361 59001;EQDQ01  00002PRCP06
0195484500999992000011215004+14020+099530FM-12+0029VTBG V0209999C000012200019N0050001N1+02811+02221100971ADDAA106000091AY121031AY211031GF104991021051008001001061MA1999999100651MD1999999-0021MW1101REMSYN076AAXX  12154 48450 31550 40000 10281 20222 30065 40097 71021 82506 333 59002;EQDQ01  00002PRCP06
0195484500999992000011218004+14020+099530FM-12+0029VTBG V0209999C000012200019N0050001N1+02641+02241100951ADDAA106000091AY111061AY201061GF103991001001999999001051MA1999999100621MD1999999+0021MW1101REMSYN076AAXX  12184 48450 31950 30000 10264 20224 30062 40095 71010 80005 333 58002;EQDQ01  00002PRCP06
0195484500999992000011221004+14020+099530FM-12+0029VTBG V0209999C000012200019N0050001N1+02461+02191100811ADDAA106000091AY101031AY201031GF103991001001999999001051MA1999999100481MD1999999-0021MW1101REMSYN076AAXX  12214 48450 31950 30000 10246 20219 30048 40081 71000 80005 333 59002;EQDQ01  00002PRCP06
0214484500999992000011300004+14020+099530FM-12+0029VTBG V0209999C000010450019N0050001N1+02371+02211100951ADDAA106000091AY121061AY211061GF108991011051008001021061KA1120N+02361MA1999999100611MD1999999-0021MW1101REMSYN082AAXX  13004 48450 31550 80000 10237 20221 30061 40095 71021 81526 333 20236 59002;EQDQ01  00002PRCP06
0195484500999992000011303004+14020+099530FM-12+0029VTBG V0209999C000012200019N0050001N1+02791+02311101111ADDAA106000091AY121031AY211031GF102991001001999999001051MA1999999100781MD1999999-0081MW1101REMSYN076AAXX  13034 48450 31950 20000 10279 20231 30078 40111 71021 80005 333 59008;EQDQ01  00002PRCP06
0195484500999992000011306004+14020+099530FM-12+0029VTBG V0209999C000012200019N0050001N1+03401+02371100821ADDAA106000091AY111061AY201061GF103991021021008001001051MA1999999100501MD1999999-0121MW1051REMSYN076AAXX  13064 48450 31550 30000 10340 20237 30050 40082 70510 82205 333 59012;EQDQ01  00002PRCP06
0195484500999992000011309004+14020+099530FM-12+0029VTBG V0209999C000012200019N0050001N1+03481+02211100571ADDAA106000091AY101031AY201031GF102991011021008001001051MA1999999100251MD1999999-0031MW1051REMSYN076AAXX  13094 48450 31550 20000 10348 20221 30025 40057 70500 81205 333 59003;EQDQ01  00002PRCP06
0214484500999992000011312004+14020+099530FM-12+0029VTBG V0201201N002612200019N0050001N1+03001+02321100681ADDAA106000091AY101061AY201061GF102991001001999999001051KA1120M+03551MA1999999100351MD1999999-0091MW1101REMSYN082AAXX  13124 48450 31950 21205 10300 20232 30035 40068 71000 80005 333 10355 59009;EQDQ01  00002PRCP06
0195484500999992000011315004+14020+099530FM-12+0029VTBG V0209999C000012200019N0050001N1+02701+02291100911ADDAA106000091AY101031AY201031GF102991001001999999001051MA1999999100581MD1999999-0061MW1101REMSYN076AAXX  13154 48450 31950 20000 10270 20229 30058 40091 71000 80005 333 59006;EQDQ01  00002PRCP06
0195484500999992000011318004+14020+099530FM-12+0029VTBG V0209999C000012200019N0050001N1+02551+02251100921ADDAA106000091AY101061AY201061GF102991001001999999001051MA1999999100591MD1999999-0031MW1101REMSYN076AAXX  13184 48450 31950 20000 10255 20225 30059 40092 71000 80005 333 59003;EQDQ01  00002PRCP06
0199484500999992000011321004+14020+099530FM-12+002999999V0209999C00001220001BN0050001N1+02521+02241100751ADDAA199000091AY101031AY201031GF102991001001999999001051MA1999999100411MD1999999-0061MW1101REMSYN080    AAXX  13214 48450 31950 20000 10252 20224 30041 40075 71000 80005 333 59006;EQDQ01  00002PRCP99
0218484500999992000011400004+14020+099530FM-12+002999999V0209999C00001220001BN0050001N1+02371+02211100861ADDAA199000091AY101061AY201061GF103991011001999999041051KA1120N+02371MA1999999100531MD1999999-0091MW1101REMSYN086    AAXX  14004 48450 31950 30000 10237 20221 30053 40086 71000 81045 333 20237 59009;EQDQ01  00002PRCP99
0199484500999992000011403004+14020+099530FM-12+002999999V0209999C00001220001BN0050001N1+02841+02271101061ADDAA199000091AY101031AY201031GF102991001001999999001051MA1999999100731MD1999999-0051MW1101REMSYN080    AAXX  14034 48450 31950 20000 10284 20227 30073 40106 71000 80005 333 59005;EQDQ01  00002PRCP99
0199484500999992000011406004+14020+099530FM-12+002999999V0200101N00101220001BN0060001N1+03341+02271100831ADDAA199000091AY101061AY201061GF103991021011008001001051MA1999999100511MD1999999+0011MW1051REMSYN080    AAXX  14064 48450 31556 30102 10334 20227 30051 40083 70500 82105 333 58001;EQDQ01  00002PRCP99
0199484500999992000011409004+14020+099530FM-12+002999999V0200301N00101220001BN0060001N1+03461+02061100541ADDAA199000091AY101031AY201031GF103991021021008001001051MA1999999100221MD1999999-0031MW1051REMSYN080    AAXX  14094 48450 31556 30302 10346 20206 30022 40054 70500 82205 333 59003;EQDQ01  00002PRCP99
0218484500999992000011412004+14020+099530FM-12+002999999V0209999C00001220001BN0060001N1+03051+02111100631ADDAA199000091AY101061AY201061GF102991011011008001001051KA1120M+03571MA1999999100311MD1999999-0051MW1051REMSYN086    AAXX  14124 48450 31556 20000 10305 20211 30031 40063 70500 81105 333 10357 59005;EQDQ01  00002PRCP99
0199484500999992000011415004+14020+099530FM-12+002999999V0209999C00001220001BN0060001N1+02621+02041100891ADDAA199000091AY101031AY201031GF102991001001999999001051MA1999999100561MD1999999-0021MW1101REMSYN080    AAXX  14154 48450 31956 20000 10262 20204 30056 40089 71000 80005 333 59002;EQDQ01  00002PRCP99
0199484500999992000011418004+14020+099530FM-12+002999999V0209999C00001220001BN0060001N1+02311+02001100871ADDAA199000091AY101061AY201061GF102991001001999999001051MA1999999100531MD1999999-0051MW1101REMSYN080    AAXX  14184 48450 31956 20000 10231 20200 30053 40087 71000 80005 333 59005;EQDQ01  00002PRCP99
0199484500999992000011421004+14020+099530FM-12+002999999V0209999C00001220001BN0060001N1+02051+01741100811ADDAA199000091AY101031AY201031GF102991001001999999001051MA1999999100471MD1999999+0061MW1101REMSYN080    AAXX  14214 48450 31956 20000 10205 20174 30047 40081 71000 80005 333 58006;EQDQ01  00002PRCP99
0199484500999992000011503004+14020+099530FM-12+002999999V0209999C00001220001BN0060001N1+02701+01691101181ADDAA199000091AY101031AY201031GF102991001001999999001051MA1999999100851MD1999999+0121MW1051REMSYN080    AAXX  15034 48450 31956 20000 10270 20169 30085 40118 70500 80005 333 58012;EQDQ01  00002PRCP99
0215484500999992000011506004+14020+099530FM-12+002999999V0209999C00001220001BN0060001N1+03401+01681100911ADDAA199000091AY101061AY201061GA1001+999999999GF100991001001999999001001MA1999999100591MD1999999+0081MW1051REMSYN080    AAXX  15064 48450 31956 00000 10340 20168 30059 40091 70500 8//// 333 58008;EQDQ01  00002PRCP99
0209484500999992000011509004+14020+099530FM-12+002999999V0209999C00001220001BN0060001N1+03581+01441100671ADDAA199000091AY101031AY201031GA1001+999999999GF100991001001999999001001MA1999999100351MD1999999+0131MW1051REMSYN074    AAXX  15094 48450 31956 00000 10358 20144 30035 40067 70500 333 58013;EQDQ01  00002PRCP99
0228484500999992000011512004+14020+099530FM-12+002999999V0209999C00001220001BN0060001N1+03001+01871100811ADDAA199000091AY101061AY201061GA1001+999999999GF100991001001999999001001KA1120M+03631MA1999999100481MD1999999+0181MW1051REMSYN080    AAXX  15124 48450 31956 00000 10300 20187 30048 40081 70500 333 10363 58018;EQDQ01  00002PRCP99
0209484500999992000011515004+14020+099530FM-12+002999999V0209999C00001220001BN0060001N1+02611+01821101031ADDAA199000091AY101031AY201031GA1001+999999999GF100991001001999999001001MA1999999100701MD1999999+0141MW1051REMSYN074    AAXX  15154 48450 31956 00000 10261 20182 30070 40103 70500 333 58014;EQDQ01  00002PRCP99
0209484500999992000011518004+14020+099530FM-12+002999999V0209999C00001220001BN0060001N1+02321+01721101031ADDAA199000091AY101061AY201061GA1001+999999999GF100991001001999999001001MA1999999100691MD1999999+0161MW1101REMSYN074    AAXX  15184 48450 31956 00000 10232 20172 30069 40103 71000 333 58016;EQDQ01  00002PRCP99
0199484500999992000011603004+14020+099530FM-12+002999999V0209999C00001220001BN0060001N1+02541+01611101321ADDAA199000091AY101031AY201031GF102991001001999999001051MA1999999100991MD1999999+0141MW1051REMSYN080    AAXX  16034 48450 31956 20000 10254 20161 30099 40132 70500 80005 333 58014;EQDQ01  00002PRCP99
0199484500999992000011606004+14020+099530FM-12+002999999V0201201N00101220001BN0060001N1+03381+01091101021ADDAA199000091AY101061AY201061GF102991001001999999001051MA1999999100701MD1999999+0111MW1051REMSYN080    AAXX  16064 48450 31956 21202 10338 20109 30070 40102 70500 80005 333 58011;EQDQ01  00002PRCP99
0199484500999992000011612004+14020+099530FM-12+002999999V0209999C00001220001BN0060001N1+02741+01681100931ADDAA199000091AY101061AY201061GF102991001001999999001051MA1999999100601MD1999999+0121MW1051REMSYN080    AAXX  16124 48450 31956 20000 10274 20168 30060 40093 70500 80005 333 58012;EQDQ01  00002PRCP99
0199484500999992000011615004+14020+099530FM-12+002999999V0209999C00001220001BN0060001N1+02351+01741101071ADDAA199000091AY101031AY201031GF102991001001999999001051MA1999999100741MD1999999+0041MW1101REMSYN080    AAXX  16154 48450 31956 20000 10235 20174 30074 40107 71000 80005 333 58004;EQDQ01  00002PRCP99
0199484500999992000011618004+14020+099530FM-12+002999999V0209999C00001220001BN0060001N1+02071+01691101061ADDAA199000091AY101061AY201061GF102991001001999999001051MA1999999100721MD1999999+0031MW1101REMSYN080    AAXX  16184 48450 31956 20000 10207 20169 30072 40106 71000 80005 333 58003;EQDQ01  00002PRCP99
0199484500999992000011621004+14020+099530FM-12+002999999V0209999C00001220001BN0060001N1+02041+01571100931ADDAA199000091AY101031AY201031GF102991001001999999001051MA1999999100591MD1999999+0001MW1101REMSYN080    AAXX  16214 48450 31956 20000 10204 20157 30059 40093 71000 80005 333 58000;EQDQ01  00002PRCP99
0218484500999992000011700004+14020+099530FM-12+002999999V0209999C00001220001BN0060001N1+01941+01571101071ADDAA199000091AY101061AY201061GF103991011001999999041061KA1120N+01941MA1999999100731MD1999999-0061MW1101REMSYN086    AAXX  17004 48450 31956 30000 10194 20157 30073 40107 71000 81046 333 20194 59006;EQDQ01  00002PRCP99
0199484500999992000011703004+14020+099530FM-12+002999999V0209999C00001220001BN0060001N1+02541+01611101321ADDAA199000091AY101031AY201031GF102991001001999999001051MA1999999100991MD1999999+0141MW1051REMSYN080    AAXX  17034 48450 31956 20000 10254 20161 30099 40132 70500 80005 333 58014;EQDQ01  00002PRCP99
0199484500999992000011706004+14020+099530FM-12+002999999V0209999C00001220001BN0060001N1+03271+01581101081ADDAA199000091AY101061AY201061GF102991011011008001001051MA1999999100751MD1999999+0061MW1051REMSYN080    AAXX  17064 48450 31556 20000 10327 20158 30075 40108 70500 81105 333 58006;EQDQ01  00002PRCP99
0199484500999992000011709004+14020+099530FM-12+002999999V0209999C00001220001BN0060001N1+03431+01411100811ADDAA199000091AY101031AY201031GF104991021011008001001051MA1999999100491MD1999999+0041MW1051REMSYN080    AAXX  17094 48450 31556 40000 10343 20141 30049 40081 70500 82105 333 58004;EQDQ01  00002PRCP99
0218484500999992000011712004+14020+099530FM-12+002999999V0209999C00001220001BN0060001N1+02881+01671100941ADDAA199000091AY101061AY201061GF103991011011008001001051KA1120M+03481MA1999999100621MD1999999+0011MW1051REMSYN086    AAXX  17124 48450 31556 30000 10288 20167 30062 40094 70500 81105 333 10348 58001;EQDQ01  00002PRCP99
0199484500999992000011715004+14020+099530FM-12+002999999V0209999C00001220001BN0060001N1+02411+01941101121ADDAA199000091AY101031AY201031GF102991001001999999001051MA1999999100791MD1999999+0051MW1101REMSYN080    AAXX  17154 48450 31956 20000 10241 20194 30079 40112 71000 80005 333 58005;EQDQ01  00002PRCP99
0199484500999992000011718004+14020+099530FM-12+002999999V0209999C00001220001BN0060001N1+02251+01731101101ADDAA199000091AY101061AY201061GF102991001001999999001051MA1999999100761MD1999999+0041MW1101REMSYN080    AAXX  17184 48450 31956 20000 10225 20173 30076 40110 71000 80005 333 58004;EQDQ01  00002PRCP99
0199484500999992000011721004+14020+099530FM-12+002999999V0209999C00001220001BN0060001N1+02201+01661101011ADDAA199000091AY101031AY201031GF102991001001999999001051MA1999999100671MD1999999+0081MW1101REMSYN080    AAXX  17214 48450 31956 20000 10220 20166 30067 40101 71000 80005 333 58008;EQDQ01  00002PRCP99
0218484500999992000011800004+14020+099530FM-12+002999999V0209999C00001220001BN0060001N1+02101+01691101131ADDAA199000091AY101061AY201061GF102991001001999999001051KA1120N+02061MA1999999100801MD1999999+0061MW1101REMSYN086    AAXX  18004 48450 31956 20000 10210 20169 30080 40113 71000 80005 333 20206 58006;EQDQ01  00002PRCP99
0199484500999992000011803004+14020+099530FM-12+002999999V0209999C00001220001BN0060001N1+02601+01811101361ADDAA199000091AY101031AY201031GF102991001001999999001051MA1999999101031MD1999999+0091MW1051REMSYN080    AAXX  18034 48450 31956 20000 10260 20181 30103 40136 70500 80005 333 58009;EQDQ01  00002PRCP99
0199484500999992000011806004+14020+099530FM-12+002999999V0202501N00101220001BN0060001N1+03311+01851101101ADDAA199000091AY101061AY201061GF102991001001999999001051MA1999999100781MD1999999+0021MW1051REMSYN080    AAXX  18064 48450 31956 22502 10331 20185 30078 40110 70500 80005 333 58002;EQDQ01  00002PRCP99
0199484500999992000011809004+14020+099530FM-12+002999999V0209999C00001220001BN0060001N1+03501+01831100851ADDAA199000091AY101031AY201031GF102991001001999999001051MA1999999100531MD1999999+0041MW1051REMSYN080    AAXX  18094 48450 31956 20000 10350 20183 30053 40085 70500 80005 333 58004;EQDQ01  00002PRCP99
0234484500999992000011812004+14020+099530FM-12+002999999V0209999C00001220001BN0060001N1+03031+02101100931ADDAA199000091AY101061AY201061GF102991001001999999001051KA1120M+03561MA1999999100611MD1999999-0011MW1051REMSYN086    AAXX  18124 48450 31556 20000 10303 20210 30061 40093 70500 80005 333 10356 59001;EQDQ01+008002SCOLCBQ02  00002PRCP99
0215484500999992000011815004+14020+099530FM-12+002999999V0209999C00001220001BN0060001N1+02661+02231101171ADDAA199000091AY101031AY201031GF102991001001999999001051MA1999999100831MD1999999+0051MW1101REMSYN080    AAXX  18154 48450 31556 20000 10266 20223 30083 40117 71000 80005 333 58005;EQDQ01+008002SCOLCBQ02  00002PRCP99
0199484500999992000011903004+14020+099530FM-12+002999999V0209999C00001045001BN0030001N1+02531+02151101371ADDAA199000091AY121031AY221031GF108991031051008001071999MA1999999101041MD1999999+0011MW1101REMSYN080    AAXX  19034 48450 31530 80000 10253 20215 30104 40137 71022 8357/ 333 58001;EQDQ01  00002PRCP99
0199484500999992000011906004+14020+099530FM-12+002999999V0209999C00001045001BN0050001N1+03011+02301101131ADDAA199000091AY121061AY221061GF106991031021008001041061MA1999999100801MD1999999+0031MW1101REMSYN080    AAXX  19064 48450 31550 60000 10301 20230 30080 40113 71022 83246 333 58003;EQDQ01  00002PRCP99
0199484500999992000011909004+14020+099530FM-12+002999999V0200401N00151045001BN0050001N1+03151+02191100891ADDAA199000091AY121031AY221031GF106991031031008001041061MA1999999100571MD1999999+0041MW1051REMSYN080    AAXX  19094 48450 31550 60403 10315 20219 30057 40089 70522 83346 333 58004;EQDQ01  00002PRCP99
0218484500999992000011912004+14020+099530FM-12+002999999V0200701N00101105001BN0050001N1+02771+02121100991ADDAA199000091AY121061AY221061GF105991021021008001041061KA1120M+03221MA1999999100661MD1999999+0061MW1101REMSYN086    AAXX  19124 48450 31550 50702 10277 20212 30066 40099 71022 82246 333 10322 58006;EQDQ01  00002PRCP99
0199484500999992000011915004+14020+099530FM-12+002999999V0200601N00101105001BN0050001N1+02601+02071101251ADDAA199000091AY121031AY221031GF106991021051008001071061MA1999999100921MD1999999+0081MW1101REMSYN080    AAXX  19154 48450 31550 60602 10260 20207 30092 40125 71022 82576 333 58008;EQDQ01  00002PRCP99
0195484500999992000011918004+14020+099530FM-12+0029VTBG V0200401N001010450019N0050001N1+02481+02001101291ADDAA199000091AY121061AY221061GF108991021051008001071999MA1999999100961MD1999999+0171MW1101REMSYN076AAXX  19184 48450 31550 80402 10248 20200 30096 40129 71022 8257/ 333 58017;EQDQ01  00002PRCP99
0195484500999992000011921004+14020+099530FM-12+0029VTBG V0209999C000010450019N0050001N1+02371+01871101191ADDAA199000091AY121031AY221031GF108991021051008001021999MA1999999100861MD1999999+0151MW1101REMSYN076AAXX  19214 48450 31550 80000 10237 20187 30086 40119 71022 8252/ 333 58015;EQDQ01  00002PRCP99
0213484500999992000012000004+14020+099530FM-12+0029VTBG V0209999C000010120019N0060001N1+02181+01981101331ADDAA103002091AY161061AY221061GF108991051081008001071999KA1120N+02151MA1999999100991MD1999999+0141MW1101REMSYN100AAXX  20004 48450 /1556 80000 10218 20198 30099 40133 60024 71062 8587/ 333 20215 58014 60027 70021;
0182484500999992000012003004+14020+099530FM-12+0029VTBG V0209999C000010120019N0070001N1+02211+01941101531ADDAA102001091AY161031AY221031GF108991061081008001021999MA1999999101191MD1999999+0161MW1211REMSYN082AAXX  20034 48450 21557 80000 10221 20194 30119 40153 72162 8682/ 333 58016 60016;
0188484500999992000012006004+14020+099530FM-12+0029VTBG V0209999C000010450019N0070001N1+02471+01921101341ADDAA106001091AY161061AY221061GF108991041081008001071999MA1999999101001MD1999999+0211MW1101REMSYN088AAXX  20064 48450 11557 80000 10247 20192 30100 40134 60011 71062 8487/ 333 58021 70033;
0195484500999992000012100004+14020+099530FM-12+0029VTBG V0200401N002610450019N0060001N1+02561+01651101731ADDAA199000091AY121061AY221061GF107991011051008001051061MA1999999101401MD1999999+0201MW1051REMSYN076AAXX  21004 48450 31556 70405 10256 20165 30140 40173 70522 81556 333 58020;EQDQ01  00002PRCP99
0195484500999992000012106004+14020+099530FM-12+0029VTBG V0200401N001012200019N0060001N1+02901+01711101501ADDAA199000091AY121061AY211061GF104991011051008001041061MA1999999101171MD1999999+0161MW1051REMSYN076AAXX  21064 48450 31556 40402 10290 20171 30117 40150 70521 81546 333 58016;EQDQ01  00002PRCP99
0195484500999992000012109004+14020+099530FM-12+0029VTBG V0200201N001011050019N0060001N1+02961+01861101231ADDAA199000091AY121031AY211031GF105991021051008001041061MA1999999100901MD1999999+0121MW1051REMSYN076AAXX  21094 48450 31556 50202 10296 20186 30090 40123 70521 82546 333 58012;EQDQ01  00002PRCP99
0214484500999992000012112004+14020+099530FM-12+0029VTBG V0200301N001012200019N0060001N1+02721+01861101311ADDAA199000091AY121061AY211061GF104991011051008001041051KA1120M+03071MA1999999100981MD1999999+0101MW1051REMSYN082AAXX  21124 48450 31556 40302 10272 20186 30098 40131 70521 81545 333 10307 58010;EQDQ01  00002PRCP99
0195484500999992000012115004+14020+099530FM-12+0029VTBG V0209999C000012200019N0060001N1+02451+01951101481ADDAA199000091AY111031AY201031GF103991011001999999051051MA1999999101151MD1999999+0091MW1101REMSYN076AAXX  21154 48450 31956 30000 10245 20195 30115 40148 71010 81055 333 58009;EQDQ01  00002PRCP99
0214484500999992000012300004+14020+099530FM-12+0029VTBG V0209999C000011050019N0050001N1+02011+01781101621ADDAA199000091AY121061AY211061GF105991021051008001041061KA1120N+02011MA1999999101281MD1999999+0081MW1101REMSYN082AAXX  23004 48450 31550 50000 10201 20178 30128 40162 71021 82546 333 20201 58008;EQDQ01  00002PRCP99
0195484500999992000012315004+14020+099530FM-12+0029VTBG V0209999C000012200019N0060001N1+02341+01761101191ADDAA199000091AY101031AY201031GF102991001001999999001051MA1999999100861MD1999999-0291MW1101REMSYN076AAXX  23154 48450 31956 20000 10234 20176 30086 40119 71000 80005 333 59029;EQDQ01  00002PRCP99
0195484500999992000012318004+14020+099530FM-12+0029VTBG V0209999C000012200019N0060001N1+02121+01711101201ADDAA199000091AY101061AY201061GF102991001001999999001051MA1999999100861MD1999999-0111MW1101REMSYN076AAXX  23184 48450 31956 20000 10212 20171 30086 40120 71000 80005 333 59011;EQDQ01  00002PRCP99
0195484500999992000012321004+14020+099530FM-12+0029VTBG V0209999C000012200019N0060001N1+01941+01661101121ADDAA199000091AY101031AY201031GF102991001001999999001051MA1999999100781MD1999999-0081MW1101REMSYN076AAXX  23214 48450 31956 20000 10194 20166 30078 40112 71000 80005 333 59008;EQDQ01  00002PRCP99
0214484500999992000012400004+14020+099530FM-12+0029VTBG V0209999C000012200019N0060001N1+01861+01641101301ADDAA199000091AY101061AY201061GF102991001001999999001051KA1120N+01861MA1999999100961MD1999999+0011MW1101REMSYN082AAXX  24004 48450 31956 20000 10186 20164 30096 40130 71000 80005 333 20186 58001;EQDQ01  00002PRCP99
0195484500999992000012403004+14020+099530FM-12+0029VTBG V0209999C000012200019N0060001N1+02601+01761101451ADDAA199000091AY101031AY201031GF102991001001999999001051MA1999999101111MD1999999-0031MW1051REMSYN076AAXX  24034 48450 31956 20000 10260 20176 30111 40145 70500 80005 333 59003;EQDQ01  00002PRCP99
0195484500999992000012406004+14020+099530FM-12+0029VTBG V0209999C000012200019N0060001N1+03351+01271101171ADDAA199000091AY101061AY201061GF102991001001999999001051MA1999999100851MD1999999-0041MW1051REMSYN076AAXX  24064 48450 31956 20000 10335 20127 30085 40117 70500 80005 333 59004;EQDQ01  00002PRCP99
0214484500999992000012500004+14020+099530FM-12+0029VTBG V0209999C000011050019N0060001N1+02171+01731101281ADDAA199000091AY121061AY211061GF106991021051008001031061KA1120N+02151MA1999999100951MD1999999-0021MW1101REMSYN082AAXX  25004 48450 31556 60000 10217 20173 30095 40128 71021 82536 333 20215 59002;EQDQ01  00002PRCP99
0195484500999992000012503004+14020+099530FM-12+0029VTBG V0209999C000012200019N0060001N1+02511+01871101511ADDAA199000091AY121031AY211031GF104991021051008001031061MA1999999101171MD1999999+0061MW1101REMSYN076AAXX  25034 48450 31556 40000 10251 20187 30117 40151 71021 82536 333 58006;EQDQ01  00002PRCP99
0195484500999992000012506004+14020+099530FM-12+0029VTBG V0200301N001512200019N0060001N1+03251+01711101231ADDAA199000091AY111061AY201061GF103991021051008001001061MA1999999100901MD1999999+0061MW1051REMSYN076AAXX  25064 48450 31556 30303 10325 20171 30090 40123 70510 82506 333 58006;EQDQ01  00002PRCP99
0195484500999992000012509004+14020+099530FM-12+0029VTBG V0200401N001510450019N0060001N1+03251+01911101031ADDAA199000091AY121031AY211031GF106991031081008001051061MA1999999100701MD1999999+0101MW1051REMSYN076AAXX  25094 48450 31556 60403 10325 20191 30070 40103 70521 83856 333 58010;EQDQ01  00002PRCP99
0207484500999992000012600004+14020+099530FM-12+0029VTBG V0209999C000010120019N0070001N1+02441+02181101431ADDAA124000791AY161061AY221061GF108991061081008001071999KA1120N+02421MA1999999101111MD1999999+0151MW1101REMSYN094AAXX  26004 48450 11557 80000 10244 20218 30111 40143 69904 71062 8687/ 333 20242 58015 79999;
0195484500999992000012603004+14020+099530FM-12+0029VTBG V0200501N002612200019N0080001N1+02801+01941101611ADDAA199000091AY121031AY201031GF103991011001999999041051MA1999999101281MD1999999+0101MW1051REMSYN076AAXX  26034 48450 31958 30505 10280 20194 30128 40161 70520 81045 333 58010;EQDQ01  00002PRCP99
0182484500999992000012606004+14020+099530FM-12+0029VTBG V0200401N003612200019N0080001N1+02981+01851101401ADDAA124000791AY111061AY201061GF104991021011008001041051MA1999999101081MD1999999+0171MW1051REMSYN082AAXX  26064 48450 31558 40407 10298 20185 30108 40140 70510 82145 333 58017 79999;
0195484500999992000012609004+14020+099530FM-12+0029VTBG V0200501N003112200019N0080001N1+03071+01891101121ADDAA199000091AY101031AY201031GF104991011011008001041051MA1999999100801MD1999999+0091MW1051REMSYN076AAXX  26094 48450 31558 40506 10307 20189 30080 40112 70500 81145 333 58009;EQDQ01  00002PRCP99
0201484500999992000012612004+14020+099530FM-12+0029VTBG V0209999C000012200019N0080001N1+02761+01801101221ADDAA124000791AY101061AY201061GF102991011001999999041051KA1120M+03171MA1999999100891MD1999999+0091MW1051REMSYN088AAXX  26124 48450 31958 20000 10276 20180 30089 40122 70500 81045 333 10317 58009 79999;
0195484500999992000012615004+14020+099530FM-12+0029VTBG V0209999C000012200019N0070001N1+02481+01921101411ADDAA199000091AY101031AY201031GF102991001001999999001051MA1999999101081MD1999999+0061MW1101REMSYN076AAXX  26154 48450 31957 20000 10248 20192 30108 40141 71000 80005 333 58006;EQDQ01  00002PRCP99
0182484500999992000012618004+14020+099530FM-12+0029VTBG V0209999C000012200019N0070001N1+02321+01931101401ADDAA124000791AY101061AY201061GF102991011001999999041051MA1999999101071MD1999999+0061MW1101REMSYN082AAXX  26184 48450 31957 20000 10232 20193 30107 40140 71000 81045 333 58006 79999;
0195484500999992000012621004+14020+099530FM-12+0029VTBG V0209999C000012200019N0070001N1+02161+01861101351ADDAA199000091AY101031AY201031GF102991011001999999041051MA1999999101021MD1999999+0071MW1101REMSYN076AAXX  26214 48450 31957 20000 10216 20186 30102 40135 71000 81045 333 58007;EQDQ01  00002PRCP99
0195484500999992000012706004+14020+099530FM-12+0029VTBG V0200301N003612200019N0070001N1+02741+01401101581ADDAA199000091AY101061AY201061GF103991021001999999041051MA1999999101251MD1999999+0181MW1051REMSYN076AAXX  27064 48450 31957 30307 10274 20140 30125 40158 70500 82045 333 58018;EQDQ01  00002PRCP99
0195484500999992000012709004+14020+099530FM-12+0029VTBG V0200301N002612200019N0070001N1+02911+01481101301ADDAA199000091AY101031AY201031GF103991021001999999041051MA1999999100971MD1999999+0181MW1051REMSYN076AAXX  27094 48450 31957 30305 10291 20148 30097 40130 70500 82045 333 58018;EQDQ01  00002PRCP99
0214484500999992000012712004+14020+099530FM-12+0029VTBG V0209999C000012200019N0070001N1+02571+01511101411ADDAA199000091AY101061AY201061GF103991021001999999041051KA1120M+02941MA1999999101081MD1999999+0191MW1051REMSYN082AAXX  27124 48450 31957 30000 10257 20151 30108 40141 70500 82045 333 10294 58019;EQDQ01  00002PRCP99
0195484500999992000012715004+14020+099530FM-12+0029VTBG V0209999C000012200019N0070001N1+02201+01711101611ADDAA199000091AY101031AY201031GF102991001001999999001051MA1999999101271MD1999999+0201MW1101REMSYN076AAXX  27154 48450 31957 20000 10220 20171 30127 40161 71000 80005 333 58020;EQDQ01  00002PRCP99
0195484500999992000012718004+14020+099530FM-12+0029VTBG V0209999C000012200019N0070001N1+02001+01871101581ADDAA199000091AY101061AY201061GF102991001001999999001051MA1999999101241MD1999999+0181MW1101REMSYN076AAXX  27184 48450 31957 20000 10200 20187 30124 40158 71000 80005 333 58018;EQDQ01  00002PRCP99
0195484500999992000012721004+14020+099530FM-12+0029VTBG V0209999C000012200019N0070001N1+01921+01551101531ADDAA199000091AY101031AY201031GF102991001001999999001051MA1999999101191MD1999999+0181MW1101REMSYN076AAXX  27214 48450 31957 20000 10192 20155 30119 40153 71000 80005 333 58018;EQDQ01  00002PRCP99
0214484500999992000012800004+14020+099530FM-12+0029VTBG V0209999C000012200019N0070001N1+01861+01501101701ADDAA199000091AY101061AY201061GF102991011001999999041051KA1120N+01861MA1999999101361MD1999999+0071MW1101REMSYN082AAXX  28004 48450 31957 20000 10186 20150 30136 40170 71000 81045 333 20186 58007;EQDQ01  00002PRCP99
0195484500999992000012803004+14020+099530FM-12+0029VTBG V0200401N003112200019N0070001N1+02331+01181101911ADDAA199000091AY101031AY201031GF102991001001999999001051MA1999999101571MD1999999+0091MW1051REMSYN076AAXX  28034 48450 31957 20406 10233 20118 30157 40191 70500 80005 333 58009;EQDQ01  00002PRCP99
0195484500999992000012806004+14020+099530FM-12+0029VTBG V0200201N001012200019N0070001N1+02761+01251101611ADDAA199000091AY101061AY201061GF103991001001999999001021MA1999999101281MD1999999+0031MW1051REMSYN076AAXX  28064 48450 31957 30202 10276 20125 30128 40161 70500 80002 333 58003;EQDQ01  00002PRCP99
0195484500999992000012809004+14020+099530FM-12+0029VTBG V0200301N001012200019N0070001N1+02861+01301101271ADDAA199000091AY101031AY201031GF103991001001999999001011MA1999999100941MD1999999-0031MW1051REMSYN076AAXX  28094 48450 31957 30302 10286 20130 30094 40127 70500 80001 333 59003;EQDQ01  00002PRCP99
0214484500999992000012812004+14020+099530FM-12+0029VTBG V0209999C000012200019N0070001N1+02471+01421101431ADDAA199000091AY101061AY201061GF103991001001999999001051KA1120M+02951MA1999999101101MD1999999+0021MW1051REMSYN082AAXX  28124 48450 31957 30000 10247 20142 30110 40143 70500 80005 333 10295 58002;EQDQ01  00002PRCP99
0195484500999992000012815004+14020+099530FM-12+0029VTBG V0209999C000012200019N0060001N1+02161+01611101541ADDAA199000091AY101031AY201031GF102991001001999999001051MA1999999101201MD1999999-0071MW1101REMSYN076AAXX  28154 48450 31956 20000 10216 20161 30120 40154 71000 80005 333 59007;EQDQ01  00002PRCP99
0195484500999992000012818004+14020+099530FM-12+0029VTBG V0209999C000012200019N0060001N1+01931+01581101531ADDAA199000091AY101061AY201061GF102991001001999999001051MA1999999101191MD1999999-0051MW1101REMSYN076AAXX  28184 48450 31956 20000 10193 20158 30119 40153 71000 80005 333 59005;EQDQ01  00002PRCP99
0195484500999992000012821004+14020+099530FM-12+0029VTBG V0209999C000012200019N0060001N1+01811+01451101541ADDAA199000091AY101031AY201031GF102991001001999999001051MA1999999101201MD1999999+0011MW1101REMSYN076AAXX  28214 48450 31956 20000 10181 20145 30120 40154 71000 80005 333 58001;EQDQ01  00002PRCP99
0214484500999992000012900004+14020+099530FM-12+0029VTBG V0209999C000012200019N0060001N1+01721+01401101671ADDAA199000091AY101061AY201061GF102991001001999999001051KA1120N+01721MA1999999101321MD1999999-0031MW1101REMSYN082AAXX  29004 48450 31956 20000 10172 20140 30132 40167 71000 80005 333 20172 59003;EQDQ01  00002PRCP99
0195484500999992000012903004+14020+099530FM-12+0029VTBG V0200301N002112200019N0060001N1+02471+01281101821ADDAA199000091AY101031AY201031GF102991001001999999001051MA1999999101491MD1999999-0091MW1051REMSYN076AAXX  29034 48450 31956 20304 10247 20128 30149 40182 70500 80005 333 59009;EQDQ01  00002PRCP99
0195484500999992000012906004+14020+099530FM-12+0029VTBG V0200201N002612200019N0060001N1+02831+01351101591ADDAA199000091AY101061AY201061GF102991011011008001001051MA1999999101261MD1999999-0021MW1051REMSYN076AAXX  29064 48450 31556 20205 10283 20135 30126 40159 70500 81105 333 59002;EQDQ01  00002PRCP99
0195484500999992000012909004+14020+099530FM-12+0029VTBG V0200601N002112200019N0070001N1+02971+01391101321ADDAA199000091AY101031AY201031GF104991021011008001001061MA1999999100991MD1999999+0051MW1051REMSYN076AAXX  29094 48450 31557 40604 10297 20139 30099 40132 70500 82106 333 58005;EQDQ01  00002PRCP99
0214484500999992000012912004+14020+099530FM-12+0029VTBG V0209999C000012200019N0070001N1+02581+01701101421ADDAA199000091AY101061AY201061GF102991011011008001001051KA1120M+03021MA1999999101091MD1999999-0011MW1051REMSYN082AAXX  29124 48450 31557 20000 10258 20170 30109 40142 70500 81105 333 10302 59001;EQDQ01  00002PRCP99
0195484500999992000012915004+14020+099530FM-12+0029VTBG V0209999C000012200019N0060001N1+02221+01641101611ADDAA199000091AY101031AY201031GF102991001001999999001051MA1999999101271MD1999999+0071MW1101REMSYN076AAXX  29154 48450 31956 20000 10222 20164 30127 40161 71000 80005 333 58007;EQDQ01  00002PRCP99
0195484500999992000012918004+14020+099530FM-12+0029VTBG V0209999C000012200019N0060001N1+01981+01701101641ADDAA199000091AY101061AY201061GF102991001001999999001051MA1999999101301MD1999999+0111MW1101REMSYN076AAXX  29184 48450 31956 20000 10198 20170 30130 40164 71000 80005 333 58011;EQDQ01  00002PRCP99
0195484500999992000012921004+14020+099530FM-12+0029VTBG V0209999C000012200019N0060001N1+01961+01541101581ADDAA199000091AY101031AY201031GF102991011001999999041051MA1999999101241MD1999999+0041MW1101REMSYN076AAXX  29214 48450 31956 20000 10196 20154 30124 40158 71000 81045 333 58004;EQDQ01  00002PRCP99
0214484500999992000013000004+14020+099530FM-12+0029VTBG V0209999C000012200019N0060001N1+02001+01351101721ADDAA199000091AY101061AY201061GF103991021001999999031051KA1120N+01831MA1999999101381MD1999999+0051MW1101REMSYN082AAXX  30004 48450 31956 30000 10200 20135 30138 40172 71000 82035 333 20183 58005;EQDQ01  00002PRCP99
0195484500999992000013003004+14020+099530FM-12+0029VTBG V0200301N004112200019N0060001N1+02441+01341101921ADDAA199000091AY101031AY201031GF102991001001999999001051MA1999999101591MD1999999+0101MW1051REMSYN076AAXX  30034 48450 31956 20308 10244 20134 30159 40192 70500 80005 333 58010;EQDQ01  00002PRCP99
0195484500999992000013006004+14020+099530FM-12+0029VTBG V0200301N002612200019N0060001N1+02781+01371101711ADDAA199000091AY101061AY201061GF102991001001999999001051MA1999999101381MD1999999+0121MW1051REMSYN076AAXX  30064 48450 31956 20305 10278 20137 30138 40171 70500 80005 333 58012;EQDQ01  00002PRCP99
0195484500999992000013009004+14020+099530FM-12+0029VTBG V0209999C000012200019N0060001N1+02931+01341101421ADDAA199000091AY101031AY201031GF103991021001999999051061MA1999999101091MD1999999+0101MW1051REMSYN076AAXX  30094 48450 31956 30000 10293 20134 30109 40142 70500 82056 333 58010;EQDQ01  00002PRCP99
0214484500999992000013012004+14020+099530FM-12+0029VTBG V0209999C000012200019N0060001N1+02561+01461101561ADDAA199000091AY101061AY201061GF103991021001999999051061KA1120M+03021MA1999999101231MD1999999+0141MW1051REMSYN082AAXX  30124 48450 31956 30000 10256 20146 30123 40156 70500 82056 333 10302 58014;EQDQ01  00002PRCP99
0195484500999992000013015004+14020+099530FM-12+0029VTBG V0209999C000012200019N0060001N1+02301+01681101721ADDAA199000091AY101031AY201031GF102991001001999999001051MA1999999101391MD1999999+0111MW1101REMSYN076AAXX  30154 48450 31956 20000 10230 20168 30139 40172 71000 80005 333 58011;EQDQ01  00002PRCP99
0195484500999992000013018004+14020+099530FM-12+0029VTBG V0209999C000012200019N0060001N1+02121+01551101741ADDAA199000091AY101061AY201061GF102991001001999999001051MA1999999101401MD1999999+0101MW1101REMSYN076AAXX  30184 48450 31956 20000 10212 20155 30140 40174 71000 80005 333 58010;EQDQ01  00002PRCP99
0195484500999992000013021004+14020+099530FM-12+0029VTBG V0209999C000019999999N0060001N1+02121+01551101601ADDAA199000091AY111031AY201031GF106991041001999999051061MA1999999101261MD1999999+0021MW1101REMSYN076AAXX  30214 48450 31956 60000 10212 20155 30126 40160 71010 84056 333 58002;EQDQ01  00002PRCP99
0214484500999992000013100004+14020+099530FM-12+0029VTBG V0209999C000010450019N0060001N1+02111+01591101741ADDAA199000091AY121061AY211061GF107991031051008001051061KA1120N+02071MA1999999101401MD1999999+0021MW1101REMSYN082AAXX  31004 48450 31556 70000 10211 20159 30140 40174 71021 83556 333 20207 58002;EQDQ01  00002PRCP99
0195484500999992000013103004+14020+099530FM-12+0029VTBG V0200101N002611050019N0060001N1+02421+01341101981ADDAA199000091AY121031AY221031GF106991021051008001051061MA1999999101641MD1999999+0061MW1051REMSYN076AAXX  31034 48450 31556 60105 10242 20134 30164 40198 70522 82556 333 58006;EQDQ01  00002PRCP99
0195484500999992000013106004+14020+099530FM-12+0029VTBG V0200301N004112200019N0070001N1+02791+01401101711ADDAA199000091AY121061AY211061GF104991021001999999041051MA1999999101381MD1999999+0001MW1051REMSYN076AAXX  31064 48450 31957 40308 10279 20140 30138 40171 70521 82045 333 58000;EQDQ01  00002PRCP99
0195484500999992000013109004+14020+099530FM-12+0029VTBG V0200601N002612200019N0070001N1+02961+01471101271ADDAA199000091AY111031AY201031GF102991001001999999001051MA1999999100941MD1999999-0151MW1051REMSYN076AAXX  31094 48450 31957 20605 10296 20147 30094 40127 70510 80005 333 59015;EQDQ01  00002PRCP99
0214484500999992000013112004+14020+099530FM-12+0029VTBG V0209999C000012200019N0060001N1+02591+01651101471ADDAA199000091AY101061AY201061GF102991001001999999001051KA1120M+02991MA1999999101141MD1999999-0091MW1051REMSYN082AAXX  31124 48450 31956 20000 10259 20165 30114 40147 70500 80005 333 10299 59009;EQDQ01  00002PRCP99
0195484500999992000013115004+14020+099530FM-12+0029VTBG V0209999C000012200019N0060001N1+02231+01691101661ADDAA199000091AY101031AY201031GF102991001001999999001051MA1999999101321MD1999999-0061MW1051REMSYN076AAXX  31154 48450 31956 20000 10223 20169 30132 40166 70500 80005 333 59006;EQDQ01  00002PRCP99
0195484500999992000013118004+14020+099530FM-12+0029VTBG V0209999C000012200019N0060001N1+02101+01691101691ADDAA199000091AY101061AY201061GF102991001001999999001051MA1999999101351MD1999999-0051MW1051REMSYN076AAXX  31184 48450 31956 20000 10210 20169 30135 40169 70500 80005 333 59005;EQDQ01  00002PRCP99
0195484500999992000013121004+14020+099530FM-12+0029VTBG V0209999C000012200019N0060001N1+01941+01571101601ADDAA199000091AY101031AY201031GF102991001001999999001051MA1999999101261MD1999999+0001MW1101REMSYN076AAXX  31214 48450 31956 20000 10194 20157 30126 40160 71000 80005 333 58000;EQDQ01  00002PRCP99
0214484500999992000020100004+14020+099530FM-12+0029VTBG V0209999C000012200019N0060001N1+01811+01481101661ADDAA199000091AY101061AY201061GF102991001001999999001051KA1120N+01811MA1999999101311MD1999999-0081MW1101REMSYN082AAXX  01004 48450 31956 20000 10181 20148 30131 40166 71000 80005 333 20181 59008;EQDQ01  00002PRCP99
0195484500999992000020103004+14020+099530FM-12+0029VTBG V0200501N003112200019N0060001N1+02251+01251101931ADDAA199000091AY101031AY201031GF102991001001999999001051MA1999999101591MD1999999-0051MW1051REMSYN076AAXX  01034 48450 31956 20506 10225 20125 30159 40193 70500 80005 333 59005;EQDQ01  00002PRCP99
0195484500999992000020106004+14020+099530FM-12+0029VTBG V0200501N004112200019N0060001N1+02701+01281101631ADDAA199000091AY101061AY201061GF102991001001999999001051MA1999999101291MD1999999-0081MW1051REMSYN076AAXX  01064 48450 31956 20508 10270 20128 30129 40163 70500 80005 333 59008;EQDQ01  00002PRCP99
0195484500999992000020109004+14020+099530FM-12+0029VTBG V0200401N004112200019N0070001N1+02851+01131101351ADDAA199000091AY101031AY201031GF102991001001999999001051MA1999999101021MD1999999-0051MW1051REMSYN076AAXX  01094 48450 31957 20408 10285 20113 30102 40135 70500 80005 333 59005;EQDQ01  00002PRCP99
0214484500999992000020112004+14020+099530FM-12+0029VTBG V0209999C000012200019N0070001N1+02451+01381101401ADDAA199000091AY101061AY201061GF102991001001999999001051KA1120M+02911MA1999999101071MD1999999-0071MW1051REMSYN082AAXX  01124 48450 31957 20000 10245 20138 30107 40140 70500 80005 333 10291 59007;EQDQ01  00002PRCP99
0195484500999992000020115004+14020+099530FM-12+0029VTBG V0209999C000012200019N0060001N1+02041+01501101621ADDAA199000091AY101031AY201031GF102991001001999999001051MA1999999101281MD1999999-0041MW1101REMSYN076AAXX  01154 48450 31956 20000 10204 20150 30128 40162 71000 80005 333 59004;EQDQ01  00002PRCP99
0195484500999992000020118004+14020+099530FM-12+0029VTBG V0209999C000012200019N0060001N1+01871+01461101681ADDAA199000091AY101061AY201061GF102991001001999999001051MA1999999101341MD1999999-0011MW1101REMSYN076AAXX  01184 48450 31956 20000 10187 20146 30134 40168 71000 80005 333 59001;EQDQ01  00002PRCP99
0195484500999992000020121004+14020+099530FM-12+0029VTBG V0209999C000012200019N0060001N1+01691+01391101661ADDAA199000091AY101031AY201031GF102991001001999999001051MA1999999101311MD1999999+0061MW1101REMSYN076AAXX  01214 48450 31956 20000 10169 20139 30131 40166 71000 80005 333 58006;EQDQ01  00002PRCP99
0214484500999992000020200004+14020+099530FM-12+0029VTBG V0209999C000012200019N0060001N1+01571+01281101791ADDAA199000091AY101061AY201061GF102991011001999999041051KA1120N+01561MA1999999101441MD1999999+0121MW1101REMSYN082AAXX  02004 48450 31956 20000 10157 20128 30144 40179 71000 81045 333 20156 58012;EQDQ01  00002PRCP99
0195484500999992000020203004+14020+099530FM-12+0029VTBG V0209999C000012200019N0060001N1+02291+00961101961ADDAA199000091AY101031AY201031GF102991001001999999001051MA1999999101631MD1999999+0031MW1051REMSYN076AAXX  02034 48450 31956 20000 10229 20096 30163 40196 70500 80005 333 58003;EQDQ01  00002PRCP99
0195484500999992000020206004+14020+099530FM-12+0029VTBG V0200301N003612200019N0060001N1+02661+00911101701ADDAA199000091AY101061AY201061GF102991001001999999001051MA1999999101371MD1999999+0071MW1051REMSYN076AAXX  02064 48450 31956 20307 10266 20091 30137 40170 70500 80005 333 58007;EQDQ01  00002PRCP99
0195484500999992000020209004+14020+099530FM-12+0029VTBG V0200201N001512200019N0070001N1+02841+00711101341ADDAA199000091AY101031AY201031GF102991001001999999001051MA1999999101011MD1999999-0011MW1051REMSYN076AAXX  02094 48450 31957 20203 10284 20071 30101 40134 70500 80005 333 59001;EQDQ01  00002PRCP99
0214484500999992000020212004+14020+099530FM-12+0029VTBG V0209999C000012200019N0070001N1+02431+01161101401ADDAA199000091AY101061AY201061GF102991001001999999001051KA1120M+02901MA1999999101071MD1999999+0001MW1051REMSYN082AAXX  02124 48450 31957 20000 10243 20116 30107 40140 70500 80005 333 10290 58000;EQDQ01  00002PRCP99
0195484500999992000020215004+14020+099530FM-12+0029VTBG V0209999C000012200019N0060001N1+02011+01371101611ADDAA199000091AY101031AY201031GF102991001001999999001051MA1999999101271MD1999999-0011MW1101REMSYN076AAXX  02154 48450 31956 20000 10201 20137 30127 40161 71000 80005 333 59001;EQDQ01  00002PRCP99
0195484500999992000020218004+14020+099530FM-12+0029VTBG V0209999C000012200019N0060001N1+01761+01281101591ADDAA199000091AY101061AY201061GF102991001001999999001051MA1999999101251MD1999999-0091MW1101REMSYN076AAXX  02184 48450 31956 20000 10176 20128 30125 40159 71000 80005 333 59009;EQDQ01  00002PRCP99
0195484500999992000020221004+14020+099530FM-12+0029VTBG V0209999C000012200019N0060001N1+01601+01241101571ADDAA199000091AY101031AY201031GF102991001001999999001051MA1999999101231MD1999999-0091MW1101REMSYN076AAXX  02214 48450 31956 20000 10160 20124 30123 40157 71000 80005 333 59009;EQDQ01  00002PRCP99
0214484500999992000020300004+14020+099530FM-12+0029VTBG V0209999C000012200019N0060001N1+01531+01221101701ADDAA199000091AY101061AY201061GF102991001001999999001051KA1120N+01531MA1999999101351MD1999999-0091MW1101REMSYN082AAXX  03004 48450 31956 20000 10153 20122 30135 40170 71000 80005 333 20153 59009;EQDQ01  00002PRCP99
0195484500999992000020303004+14020+099530FM-12+0029VTBG V0209999C000012200019N0060001N1+02301+01351101891ADDAA199000091AY101031AY201031GF102991001001999999001051MA1999999101551MD1999999-0071MW1051REMSYN076AAXX  03034 48450 31956 20000 10230 20135 30155 40189 70500 80005 333 59007;EQDQ01  00002PRCP99
0195484500999992000020306004+14020+099530FM-12+0029VTBG V0200501N002612200019N0060001N1+02951+01001101611ADDAA199000091AY101061AY201061GF102991001001999999001051MA1999999101281MD1999999-0091MW1051REMSYN076AAXX  03064 48450 31956 20505 10295 20100 30128 40161 70500 80005 333 59009;EQDQ01  00002PRCP99
0195484500999992000020309004+14020+099530FM-12+0029VTBG V0200601N001012200019N0060001N1+03061+01031101251ADDAA199000091AY101031AY201031GF102991001001999999001051MA1999999100921MD1999999-0091MW1051REMSYN076AAXX  03094 48450 31956 20602 10306 20103 30092 40125 70500 80005 333 59009;EQDQ01  00002PRCP99
0214484500999992000020312004+14020+099530FM-12+0029VTBG V0209999C000012200019N0060001N1+02581+01291101321ADDAA199000091AY101061AY201061GF102991001001999999001051KA1120M+03141MA1999999100991MD1999999-0081MW1051REMSYN082AAXX  03124 48450 31956 20000 10258 20129 30099 40132 70500 80005 333 10314 59008;EQDQ01  00002PRCP99
0195484500999992000020315004+14020+099530FM-12+0029VTBG V0209999C000012200019N0060001N1+02051+01391101471ADDAA199000091AY101031AY201031GF102991001001999999001051MA1999999101141MD1999999-0141MW1101REMSYN076AAXX  03154 48450 31956 20000 10205 20139 30114 40147 71000 80005 333 59014;EQDQ01  00002PRCP99
0195484500999992000020318004+14020+099530FM-12+0029VTBG V0209999C000012200019N0060001N1+01831+01361101431ADDAA199000091AY101061AY201061GF102991001001999999001051MA1999999101091MD1999999-0161MW1101REMSYN076AAXX  03184 48450 31956 20000 10183 20136 30109 40143 71000 80005 333 59016;EQDQ01  00002PRCP99
0195484500999992000020321004+14020+099530FM-12+0029VTBG V0209999C000012200019N0060001N1+01631+01291101351ADDAA199000091AY101031AY201031GF102991001001999999001051MA1999999101011MD1999999-0221MW1101REMSYN076AAXX  03214 48450 31956 20000 10163 20129 30101 40135 71000 80005 333 59022;EQDQ01  00002PRCP99
0214484500999992000020400004+14020+099530FM-12+0029VTBG V0209999C000012200019N0060001N1+01511+01251101411ADDAA199000091AY101061AY201061GF102991021001999999041051KA1120N+01501MA1999999101061MD1999999-0291MW1101REMSYN082AAXX  04004 48450 31956 20000 10151 20125 30106 40141 71000 82045 333 20150 59029;EQDQ01  00002PRCP99
0195484500999992000020403004+14020+099530FM-12+0029VTBG V0209999C000012200019N0060001N1+02171+01421101571ADDAA199000091AY101031AY201031GF102991001001999999001051MA1999999101231MD1999999-0321MW1051REMSYN076AAXX  04034 48450 31956 20000 10217 20142 30123 40157 70500 80005 333 59032;EQDQ01  00002PRCP99
0195484500999992000020406004+14020+099530FM-12+0029VTBG V0200101N001512200019N0060001N1+03071+01041101231ADDAA199000091AY101061AY201061GF102991001001999999001051MA1999999100911MD1999999-0381MW1051REMSYN076AAXX  04064 48450 31956 20103 10307 20104 30091 40123 70500 80005 333 59038;EQDQ01  00002PRCP99
0195484500999992000020409004+14020+099530FM-12+0029VTBG V0200601N001012200019N0060001N1+03201+00831100871ADDAA199000091AY101031AY201031GF103991001001999999001061MA1999999100551MD1999999-0381MW1051REMSYN076AAXX  04094 48450 31956 30602 10320 20083 30055 40087 70500 80006 333 59038;EQDQ01  00002PRCP99
0214484500999992000020412004+14020+099530FM-12+0029VTBG V0209999C000012200019N0060001N1+02661+01361100971ADDAA199000091AY101061AY201061GF103991021001999999041061KA1120M+03221MA1999999100641MD1999999-0351MW1051REMSYN082AAXX  04124 48450 31956 30000 10266 20136 30064 40097 70500 82046 333 10322 59035;EQDQ01  00002PRCP99
0195484500999992000020415004+14020+099530FM-12+0029VTBG V0209999C000012200019N0060001N1+02061+01421101191ADDAA199000091AY101031AY201031GF102991001001999999001051MA1999999100861MD1999999-0281MW1101REMSYN076AAXX  04154 48450 31956 20000 10206 20142 30086 40119 71000 80005 333 59028;EQDQ01  00002PRCP99
0195484500999992000020418004+14020+099530FM-12+0029VTBG V0209999C000012200019N0060001N1+01931+01291101161ADDAA199000091AY101061AY201061GF102991001001999999001051MA1999999100821MD1999999-0271MW1101REMSYN076AAXX  04184 48450 31956 20000 10193 20129 30082 40116 71000 80005 333 59027;EQDQ01  00002PRCP99
0195484500999992000020421004+14020+099530FM-12+0029VTBG V0209999C000012200019N0060001N1+01691+01261101091ADDAA199000091AY101031AY201031GF102991001001999999001051MA1999999100751MD1999999-0261MW1101REMSYN076AAXX  04214 48450 31956 20000 10169 20126 30075 40109 71000 80005 333 59026;EQDQ01  00002PRCP99
0214484500999992000020500004+14020+099530FM-12+0029VTBG V0209999C000012200019N0060001N1+01591+01241101251ADDAA199000091AY101061AY201061GF102991001001999999001051KA1120N+01541MA1999999100911MD1999999-0161MW1101REMSYN082AAXX  05004 48450 31956 20000 10159 20124 30091 40125 71000 80005 333 20154 59016;EQDQ01  00002PRCP99
0195484500999992000020503004+14020+099530FM-12+0029VTBG V0209999C000012200019N0050001N1+02301+01391101411ADDAA199000091AY101031AY201031GF102991001001999999001051MA1999999101081MD1999999-0161MW1051REMSYN076AAXX  05034 48450 31950 20000 10230 20139 30108 40141 70500 80005 333 59016;EQDQ01  00002PRCP99
0195484500999992000020506004+14020+099530FM-12+0029VTBG V0200601N001012200019N0060001N1+03161+01141101141ADDAA199000091AY101061AY201061GF102991001001999999001051MA1999999100821MD1999999-0091MW1051REMSYN076AAXX  05064 48450 31956 20602 10316 20114 30082 40114 70500 80005 333 59009;EQDQ01  00002PRCP99
0195484500999992000020509004+14020+099530FM-12+0029VTBG V0209999C000012200019N0060001N1+03371+00871100801ADDAA199000091AY101031AY201031GF102991001001999999001051MA1999999100471MD1999999-0071MW1051REMSYN076AAXX  05094 48450 31956 20000 10337 20087 30047 40080 70500 80005 333 59007;EQDQ01  00002PRCP99
0214484500999992000020512004+14020+099530FM-12+0029VTBG V0209999C000012200019N0060001N1+02771+00901100871ADDAA199000091AY101061AY201061GF103991001001999999001061KA1120M+03431MA1999999100541MD1999999-0101MW1051REMSYN082AAXX  05124 48450 31956 30000 10277 20090 30054 40087 70500 80006 333 10343 59010;EQDQ01  00002PRCP99
0195484500999992000020515004+14020+099530FM-12+0029VTBG V0209999C000012200019N0060001N1+02121+01381101081ADDAA199000091AY101031AY201031GF102991001001999999001051MA1999999100741MD1999999-0111MW1051REMSYN076AAXX  05154 48450 31956 20000 10212 20138 30074 40108 70500 80005 333 59011;EQDQ01  00002PRCP99
0195484500999992000020518004+14020+099530FM-12+0029VTBG V0209999C000012200019N0060001N1+02021+01151101111ADDAA199000091AY101061AY201061GF102991001001999999001051MA1999999100771MD1999999-0051MW1051REMSYN076AAXX  05184 48450 31956 20000 10202 20115 30077 40111 70500 80005 333 59005;EQDQ01  00002PRCP99
0195484500999992000020521004+14020+099530FM-12+0029VTBG V0209999C000012200019N0060001N1+01801+01201101011ADDAA199000091AY101031AY201031GF102991001001999999001051MA1999999100671MD1999999-0081MW1101REMSYN076AAXX  05214 48450 31956 20000 10180 20120 30067 40101 71000 80005 333 59008;EQDQ01  00002PRCP99
0214484500999992000020600004+14020+099530FM-12+0029VTBG V0209999C000012200019N0060001N1+01711+01221101151ADDAA199000091AY101061AY201061GF102991001001999999001051KA1120N+01661MA1999999100801MD1999999-0101MW1101REMSYN082AAXX  06004 48450 31956 20000 10171 20122 30080 40115 71000 80005 333 20166 59010;EQDQ01  00002PRCP99
0195484500999992000020603004+14020+099530FM-12+0029VTBG V0209999C000012200019N0060001N1+02351+01461101321ADDAA199000091AY101031AY201031GF102991001001999999001051MA1999999100991MD1999999-0091MW1051REMSYN076AAXX  06034 48450 31956 20000 10235 20146 30099 40132 70500 80005 333 59009;EQDQ01  00002PRCP99
0195484500999992000020606004+14020+099530FM-12+0029VTBG V0201501N001012200019N0060001N1+03201+01101101061ADDAA199000091AY101061AY201061GF102991001001999999001051MA1999999100741MD1999999-0081MW1051REMSYN076AAXX  06064 48450 31956 21502 10320 20110 30074 40106 70500 80005 333 59008;EQDQ01  00002PRCP99
0195484500999992000020609004+14020+099530FM-12+0029VTBG V0209999C000012200019N0060001N1+03241+01111100791ADDAA199000091AY101031AY201031GF102991001001999999001011MA1999999100471MD1999999-0011MW1051REMSYN076AAXX  06094 48450 31956 20000 10324 20111 30047 40079 70500 80001 333 59001;EQDQ01  00002PRCP99
0214484500999992000020612004+14020+099530FM-12+0029VTBG V0209999C000012200019N0060001N1+02831+01621100921ADDAA199000091AY101061AY201061GF102991001001999999001051KA1120M+03371MA1999999100591MD1999999+0051MW1051REMSYN082AAXX  06124 48450 31956 20000 10283 20162 30059 40092 70500 80005 333 10337 58005;EQDQ01  00002PRCP99
0195484500999992000020615004+14020+099530FM-12+0029VTBG V0209999C000012200019N0060001N1+02231+01661101111ADDAA199000091AY101031AY201031GF102991001001999999001051MA1999999100781MD1999999+0031MW1101REMSYN076AAXX  06154 48450 31956 20000 10223 20166 30078 40111 71000 80005 333 58003;EQDQ01  00002PRCP99
0195484500999992000020618004+14020+099530FM-12+0029VTBG V0209999C000012200019N0060001N1+01941+01481101101ADDAA199000091AY101061AY201061GF102991001001999999001051MA1999999100761MD1999999-0011MW1101REMSYN076AAXX  06184 48450 31956 20000 10194 20148 30076 40110 71000 80005 333 59001;EQDQ01  00002PRCP99
0214484500999992000020700004+14020+099530FM-12+0029VTBG V0209999C000012200019N0060001N1+01701+01381101101ADDAA199000091AY101061AY201061GF102991001001999999001051KA1120N+01701MA1999999100761MD1999999-0051MW1101REMSYN082AAXX  07004 48450 31956 20000 10170 20138 30076 40110 71000 80005 333 20170 59005;EQDQ01  00002PRCP99
0195484500999992000020703004+14020+099530FM-12+0029VTBG V0209999C000012200019N0060001N1+02321+01481101311ADDAA199000091AY101031AY201031GF103991001001999999001061MA1999999100981MD1999999-0011MW1051REMSYN076AAXX  07034 48450 31956 30000 10232 20148 30098 40131 70500 80006 333 59001;EQDQ01  00002PRCP99
0195484500999992000020706004+14020+099530FM-12+0029VTBG V0200301N001512200019N0060001N1+03261+01151101001ADDAA199000091AY101061AY201061GF103991001001999999001061MA1999999100671MD1999999-0061MW1051REMSYN076AAXX  07064 48450 31956 30303 10326 20115 30067 40100 70500 80006 333 59006;EQDQ01  00002PRCP99
0195484500999992000020709004+14020+099530FM-12+0029VTBG V0200601N001012200019N0070001N1+03401+01071100711ADDAA199000091AY101031AY201031GF103991001001999999001061MA1999999100391MD1999999-0081MW1051REMSYN076AAXX  07094 48450 31957 30602 10340 20107 30039 40071 70500 80006 333 59008;EQDQ01  00002PRCP99
0214484500999992000020712004+14020+099530FM-12+0029VTBG V0209999C000012200019N0070001N1+02931+01271100791ADDAA199000091AY101061AY201061GF104991001001999999001061KA1120M+03441MA1999999100461MD1999999-0131MW1051REMSYN082AAXX  07124 48450 31957 40000 10293 20127 30046 40079 70500 80006 333 10344 59013;EQDQ01  00002PRCP99
0195484500999992000020718004+14020+099530FM-12+0029VTBG V0209999C000012200019N0060001N1+02051+01581101031ADDAA199000091AY101061AY201061GF103991001001999999001061MA1999999100691MD1999999-0071MW1101REMSYN076AAXX  07184 48450 31956 30000 10205 20158 30069 40103 71000 80006 333 59007;EQDQ01  00002PRCP99
0195484500999992000020721004+14020+099530FM-12+0029VTBG V0209999C000012200019N0060001N1+01871+01471100941ADDAA199000091AY101031AY201031GF102991001001999999001051MA1999999100601MD1999999-0061MW1101REMSYN076AAXX  07214 48450 31956 20000 10187 20147 30060 40094 71000 80005 333 59006;EQDQ01  00002PRCP99
0214484500999992000020800004+14020+099530FM-12+0029VTBG V0209999C000012200019N0060001N1+01801+01441101051ADDAA199000091AY101061AY201061GF102991001001999999001051KA1120N+01781MA1999999100711MD1999999-0051MW1101REMSYN082AAXX  08004 48450 31956 20000 10180 20144 30071 40105 71000 80005 333 20178 59005;EQDQ01  00002PRCP99
0195484500999992000020803004+14020+099530FM-12+0029VTBG V0209999C000012200019N0060001N1+02501+01461101281ADDAA199000091AY101031AY201031GF102991001001999999001051MA1999999100951MD1999999-0031MW1051REMSYN076AAXX  08034 48450 31956 20000 10250 20146 30095 40128 70500 80005 333 59003;EQDQ01  00002PRCP99
0195484500999992000020806004+14020+099530FM-12+0029VTBG V0200401N001512200019N0060001N1+03101+01361101061ADDAA199000091AY101061AY201061GF102991001001999999001051MA1999999100731MD1999999+0061MW1051REMSYN076AAXX  08064 48450 31956 20403 10310 20136 30073 40106 70500 80005 333 58006;EQDQ01  00002PRCP99
0195484500999992000020809004+14020+099530FM-12+0029VTBG V0209999C000012200019N0060001N1+03311+01231100811ADDAA199000091AY101031AY201031GF102991001001999999001051MA1999999100481MD1999999+0101MW1051REMSYN076AAXX  08094 48450 31956 20000 10331 20123 30048 40081 70500 80005 333 58010;EQDQ01  00002PRCP99
0214484500999992000020812004+14020+099530FM-12+0029VTBG V0209999C000012200019N0060001N1+02711+01551100851ADDAA199000091AY101061AY201061GF103991001001999999001061KA1120M+03331MA1999999100521MD1999999+0061MW1051REMSYN082AAXX  08124 48450 31956 30000 10271 20155 30052 40085 70500 80006 333 10333 58006;EQDQ01  00002PRCP99
0195484500999992000020815004+14020+099530FM-12+0029VTBG V0209999C000012200019N0060001N1+02381+01551101061ADDAA199000091AY101031AY201031GF103991001001999999001061MA1999999100721MD1999999+0031MW1051REMSYN076AAXX  08154 48450 31956 30000 10238 20155 30072 40106 70500 80006 333 58003;EQDQ01  00002PRCP99
0195484500999992000020818004+14020+099530FM-12+0029VTBG V0209999C000012200019N0060001N1+02051+01561101051ADDAA199000091AY101061AY201061GF103991001001999999001061MA1999999100711MD1999999+0021MW1101REMSYN076AAXX  08184 48450 31956 30000 10205 20156 30071 40105 71000 80006 333 58002;EQDQ01  00002PRCP99
0195484500999992000020821004+14020+099530FM-12+0029VTBG V0209999C000012200019N0060001N1+01951+01491100991ADDAA199000091AY101031AY201031GF103991001001999999001061MA1999999100651MD1999999+0051MW1101REMSYN076AAXX  08214 48450 31956 30000 10195 20149 30065 40099 71000 80006 333 58005;EQDQ01  00002PRCP99
0214484500999992000020900004+14020+099530FM-12+0029VTBG V0209999C000012200019N0060001N1+01771+01481101091ADDAA199000091AY101061AY201061GF102991001001999999001051KA1120N+01751MA1999999100751MD1999999+0041MW1101REMSYN082AAXX  09004 48450 31956 20000 10177 20148 30075 40109 71000 80005 333 20175 58004;EQDQ01  00002PRCP99
0195484500999992000020903004+14020+099530FM-12+0029VTBG V0209999C000012200019N0060001N1+02501+01581101281ADDAA199000091AY101031AY201031GF102991001001999999001051MA1999999100951MD1999999+0001MW1051REMSYN076AAXX  09034 48450 31956 20000 10250 20158 30095 40128 70500 80005 333 58000;EQDQ01  00002PRCP99
0195484500999992000020909004+14020+099530FM-12+0029VTBG V0209999C000012200019N0060001N1+03401+01411100671ADDAA199000091AY101031AY201031GF102991001001999999001051MA1999999100351MD1999999-0141MW1051REMSYN076AAXX  09094 48450 31956 20000 10340 20141 30035 40067 70500 80005 333 59014;EQDQ01  00002PRCP99
0214484500999992000020912004+14020+099530FM-12+0029VTBG V0209999C000012200019N0060001N1+02871+01651100771ADDAA199000091AY101061AY201061GF102991001001999999001051KA1120M+03471MA1999999100441MD1999999-0081MW1051REMSYN082AAXX  09124 48450 31956 20000 10287 20165 30044 40077 70500 80005 333 10347 59008;EQDQ01  00002PRCP99
0195484500999992000020915004+14020+099530FM-12+0029VTBG V0209999C000012200019N0060001N1+02521+01531101041ADDAA199000091AY101031AY201031GF102991001001999999001051MA1999999100711MD1999999-0021MW1051REMSYN076AAXX  09154 48450 31956 20000 10252 20153 30071 40104 70500 80005 333 59002;EQDQ01  00002PRCP99
0195484500999992000020918004+14020+099530FM-12+0029VTBG V0209999C000012200019N0060001N1+02251+01551101091ADDAA199000091AY101061AY201061GF102991001001999999001051MA1999999100751MD1999999+0041MW1051REMSYN076AAXX  09184 48450 31956 20000 10225 20155 30075 40109 70500 80005 333 58004;EQDQ01  00002PRCP99
0195484500999992000020921004+14020+099530FM-12+0029VTBG V0209999C000012200019N0060001N1+02101+01511100971ADDAA199000091AY101031AY201031GF102991001001999999001051MA1999999100641MD1999999-0021MW1101REMSYN076AAXX  09214 48450 31956 20000 10210 20151 30064 40097 71000 80005 333 59002;EQDQ01  00002PRCP99
0214484500999992000021000004+14020+099530FM-12+0029VTBG V0209999C000012200019N0060001N1+01921+01531101051ADDAA199000091AY101061AY201061GF102991001001999999001051KA1120N+01921MA1999999100711MD1999999-0041MW1101REMSYN082AAXX  10004 48450 31956 20000 10192 20153 30071 40105 71000 80005 333 20192 59004;EQDQ01  00002PRCP99
0195484500999992000021003004+14020+099530FM-12+0029VTBG V0209999C000012200019N0050001N1+02471+01691101291ADDAA199000091AY101031AY201031GF102991001001999999001051MA1999999100961MD1999999+0011MW1051REMSYN076AAXX  10034 48450 31950 20000 10247 20169 30096 40129 70500 80005 333 58001;EQDQ01  00002PRCP99
0195484500999992000021006004+14020+099530FM-12+0029VTBG V0200301N001012200019N0060001N1+03331+01581101011ADDAA199000091AY101061AY201061GF102991001001999999001051MA1999999100691MD1999999+0021MW1051REMSYN076AAXX  10064 48450 31956 20302 10333 20158 30069 40101 70500 80005 333 58002;EQDQ01  00002PRCP99
0195484500999992000021009004+14020+099530FM-12+0029VTBG V0209999C000012200019N0060001N1+03561+01361100701ADDAA199000091AY101031AY201031GF102991001001999999001051MA1999999100381MD1999999+0031MW1051REMSYN076AAXX  10094 48450 31956 20000 10356 20136 30038 40070 70500 80005 333 58003;EQDQ01  00002PRCP99
0214484500999992000021012004+14020+099530FM-12+0029VTBG V0200501N002112200019N0070001N1+03071+01491100821ADDAA199000091AY101061AY201061GF104991021001999999031061KA1120M+03621MA1999999100491MD1999999+0051MW1051REMSYN082AAXX  10124 48450 31957 40504 10307 20149 30049 40082 70500 82036 333 10362 58005;EQDQ01  00002PRCP99
0195484500999992000021015004+14020+099530FM-12+0029VTBG V0209999C000012200019N0070001N1+02651+01821101061ADDAA199000091AY101031AY201031GF104991011001999999031061MA1999999100731MD1999999+0021MW1051REMSYN076AAXX  10154 48450 31957 40000 10265 20182 30073 40106 70500 81036 333 58002;EQDQ01  00002PRCP99
0195484500999992000021018004+14020+099530FM-12+0029VTBG V0209999C000012200019N0060001N1+02361+01751101051ADDAA199000091AY101061AY201061GF104991001001999999001061MA1999999100721MD1999999-0041MW1101REMSYN076AAXX  10184 48450 31956 40000 10236 20175 30072 40105 71000 80006 333 59004;EQDQ01  00002PRCP99
0195484500999992000021021004+14020+099530FM-12+0029VTBG V0209999C000012200019N0060001N1+02181+01561100921ADDAA199000091AY101031AY201031GF103991001001999999001061MA1999999100591MD1999999-0051MW1101REMSYN076AAXX  10214 48450 31956 30000 10218 20156 30059 40092 71000 80006 333 59005;EQDQ01  00002PRCP99
0214484500999992000021100004+14020+099530FM-12+0029VTBG V0209999C000012200019N0060001N1+01921+01491101071ADDAA199000091AY101061AY201061GF103991001001999999001061KA1120N+01911MA1999999100731MD1999999+0021MW1101REMSYN082AAXX  11004 48450 31956 30000 10192 20149 30073 40107 71000 80006 333 20191 58002;EQDQ01  00002PRCP99
0195484500999992000021103004+14020+099530FM-12+0029VTBG V0209999C000012200019N0060001N1+02701+01591101211ADDAA199000091AY101031AY201031GF103991001001999999001061MA1999999100881MD1999999-0081MW1051REMSYN076AAXX  11034 48450 31956 30000 10270 20159 30088 40121 70500 80006 333 59008;EQDQ01  00002PRCP99
0195484500999992000021106004+14020+099530FM-12+0029VTBG V0200801N001012200019N0060001N1+03351+01471100931ADDAA199000091AY101061AY201061GF102991001001999999001051MA1999999100611MD1999999-0081MW1051REMSYN076AAXX  11064 48450 31956 20802 10335 20147 30061 40093 70500 80005 333 59008;EQDQ01  00002PRCP99
0195484500999992000021109004+14020+099530FM-12+0029VTBG V0200801N001012200019N0060001N1+03581+01341100681ADDAA199000091AY101031AY201031GF103991001001999999001061MA1999999100361MD1999999-0021MW1051REMSYN076AAXX  11094 48450 31956 30802 10358 20134 30036 40068 70500 80006 333 59002;EQDQ01  00002PRCP99
0214484500999992000021112004+14020+099530FM-12+0029VTBG V0209999C000012200019N0060001N1+03061+01781100751ADDAA199000091AY101061AY201061GF103991001001999999001061KA1120M+03651MA1999999100421MD1999999-0071MW1051REMSYN082AAXX  11124 48450 31956 30000 10306 20178 30042 40075 70500 80006 333 10365 59007;EQDQ01  00002PRCP99
0195484500999992000021115004+14020+099530FM-12+0029VTBG V0209999C000012200019N0060001N1+02701+01781100981ADDAA199000091AY101031AY201031GF103991001001999999001061MA1999999100651MD1999999-0081MW1051REMSYN076AAXX  11154 48450 31956 30000 10270 20178 30065 40098 70500 80006 333 59008;EQDQ01  00002PRCP99
0195484500999992000021118004+14020+099530FM-12+0029VTBG V0209999C000012200019N0060001N1+02451+01691101001ADDAA199000091AY101061AY201061GF103991001001999999001061MA1999999100671MD1999999-0051MW1051REMSYN076AAXX  11184 48450 31956 30000 10245 20169 30067 40100 70500 80006 333 59005;EQDQ01  00002PRCP99
0195484500999992000021121004+14020+099530FM-12+0029VTBG V0209999C000012200019N0060001N1+02211+01671100861ADDAA199000091AY101031AY201031GF103991001001999999001061MA1999999100521MD1999999-0061MW1101REMSYN076AAXX  11214 48450 31956 30000 10221 20167 30052 40086 71000 80006 333 59006;EQDQ01  00002PRCP99
0214484500999992000021200004+14020+099530FM-12+0029VTBG V0209999C000012200019N0030001N1+02081+01691101031ADDAA199000091AY101061AY201061GF103991001001999999001061KA1120N+02081MA1999999100691MD1999999-0041MW1101REMSYN082AAXX  12004 48450 31930 30000 10208 20169 30069 40103 71000 80006 333 20208 59004;EQDQ01  00002PRCP99
0195484500999992000021203004+14020+099530FM-12+0029VTBG V0209999C000012200019N0040001N1+02651+01741101181ADDAA199000091AY101031AY201031GF102991001001999999001051MA1999999100851MD1999999-0031MW1051REMSYN076AAXX  12034 48450 31940 20000 10265 20174 30085 40118 70500 80005 333 59003;EQDQ01  00002PRCP99
0195484500999992000021206004+14020+099530FM-12+0029VTBG V0209999C000012200019N0050001N1+03421+01581100891ADDAA199000091AY101061AY201061GF102991001001999999001051MA1999999100561MD1999999-0041MW1051REMSYN076AAXX  12064 48450 31950 20000 10342 20158 30056 40089 70500 80005 333 59004;EQDQ01  00002PRCP99
0195484500999992000021209004+14020+099530FM-12+0029VTBG V0209999C000012200019N0060001N1+03651+01401100611ADDAA199000091AY101031AY201031GF102991001001999999001051MA1999999100291MD1999999-0071MW1051REMSYN076AAXX  12094 48450 31956 20000 10365 20140 30029 40061 70500 80005 333 59007;EQDQ01  00002PRCP99
0214484500999992000021212004+14020+099530FM-12+0029VTBG V0209999C000012200019N0060001N1+03131+01891100681ADDAA199000091AY101061AY201061GF102991001001999999001051KA1120M+03711MA1999999100351MD1999999-0071MW1051REMSYN082AAXX  12124 48450 31956 20000 10313 20189 30035 40068 70500 80005 333 10371 59007;EQDQ01  00002PRCP99
0195484500999992000021215004+14020+099530FM-12+0029VTBG V0209999C000012200019N0060001N1+02751+02101100951ADDAA199000091AY101031AY201031GF102991001001999999001051MA1999999100621MD1999999-0031MW1101REMSYN076AAXX  12154 48450 31956 20000 10275 20210 30062 40095 71000 80005 333 59003;EQDQ01  00002PRCP99
0195484500999992000021218004+14020+099530FM-12+0029VTBG V0209999C000012200019N0060001N1+02461+02061100861ADDAA199000091AY101061AY201061GF103991001001999999001061MA1999999100531MD1999999-0141MW1101REMSYN076AAXX  12184 48450 31956 30000 10246 20206 30053 40086 71000 80006 333 59014;EQDQ01  00002PRCP99
0195484500999992000021221004+14020+099530FM-12+0029VTBG V0209999C000012200019N0060001N1+02311+01851100731ADDAA199000091AY101031AY201031GF103991001001999999001061MA1999999100391MD1999999-0131MW1101REMSYN076AAXX  12214 48450 31956 30000 10231 20185 30039 40073 71000 80006 333 59013;EQDQ01  00002PRCP99
0214484500999992000021300004+14020+099530FM-12+0029VTBG V0209999C000012200019N0020001N1+02111+01821100841ADDAA199000091AY101061AY201061GF102991001001999999001051KA1120N+02101MA1999999100511MD1999999-0191MW1101REMSYN082AAXX  13004 48450 31920 20000 10211 20182 30051 40084 71000 80005 333 20210 59019;EQDQ01  00002PRCP99
0195484500999992000021303004+14020+099530FM-12+0029VTBG V0209999C000012200019N0030001N1+02611+01861101061ADDAA199000091AY101031AY201031GF102991001001999999001051MA1999999100721MD1999999-0121MW1051REMSYN076AAXX  13034 48450 31930 20000 10261 20186 30072 40106 70500 80005 333 59012;EQDQ01  00002PRCP99
0195484500999992000021306004+14020+099530FM-12+0029VTBG V0209999C000012200019N0030001N1+03321+01921100841ADDAA199000091AY101061AY201061GF102991001001999999001051MA1999999100521MD1999999-0051MW1051REMSYN076AAXX  13064 48450 31930 20000 10332 20192 30052 40084 70500 80005 333 59005;EQDQ01  00002PRCP99
0195484500999992000021309004+14020+099530FM-12+0029VTBG V0201501N001512200019N0050001N1+03491+01921100531ADDAA199000091AY101031AY201031GF102991001001999999001051MA1999999100211MD1999999-0081MW1051REMSYN076AAXX  13094 48450 31950 21503 10349 20192 30021 40053 70500 80005 333 59008;EQDQ01  00002PRCP99
0214484500999992000021312004+14020+099530FM-12+0029VTBG V0209999C000012200019N0060001N1+03111+02161100601ADDAA199000091AY101061AY201061GF103991001001999999001061KA1120M+03591MA1999999100281MD1999999-0081MW1051REMSYN082AAXX  13124 48450 31956 30000 10311 20216 30028 40060 70500 80006 333 10359 59008;EQDQ01  00002PRCP99
0195484500999992000021315004+14020+099530FM-12+0029VTBG V0209999C000012200019N0060001N1+02801+02221100811ADDAA199000091AY101031AY201031GF103991001001999999001061MA1999999100481MD1999999-0141MW1101REMSYN076AAXX  13154 48450 31956 30000 10280 20222 30048 40081 71000 80006 333 59014;EQDQ01  00002PRCP99
0195484500999992000021318004+14020+099530FM-12+0029VTBG V0209999C000012200019N0050001N1+02501+02111100871ADDAA199000091AY101061AY201061GF103991001001999999001061MA1999999100541MD1999999+0011MW1101REMSYN076AAXX  13184 48450 31950 30000 10250 20211 30054 40087 71000 80006 333 58001;EQDQ01  00002PRCP99
0195484500999992000021321004+14020+099530FM-12+0029VTBG V0209999C000012200019N0050001N1+02361+02001100731ADDAA199000091AY101031AY201031GF104991001001999999001061MA1999999100391MD1999999+0001MW1101REMSYN076AAXX  13214 48450 31950 40000 10236 20200 30039 40073 71000 80006 333 58000;EQDQ01  00002PRCP99
0214484500999992000021400004+14020+099530FM-12+0029VTBG V0209999C000012200019N0040001N1+02241+01991100941ADDAA199000091AY111061AY201061GF104991001001999999001061KA1120N+02221MA1999999100611MD1999999+0101MW1101REMSYN082AAXX  14004 48450 31940 40000 10224 20199 30061 40094 71010 80006 333 20222 58010;EQDQ01  00002PRCP99
0195484500999992000021403004+14020+099530FM-12+0029VTBG V0209999C000012200019N0030001N1+02611+01861101061ADDAA199000091AY101031AY201031GF102991001001999999001051MA1999999100721MD1999999-0121MW1051REMSYN076AAXX  14034 48450 31930 20000 10261 20186 30072 40106 70500 80005 333 59012;EQDQ01  00002PRCP99
0195484500999992000021406004+14020+099530FM-12+0029VTBG V0209999C000012200019N0040001N1+03441+02081100831ADDAA199000091AY101061AY201061GF103991001001999999001061MA1999999100501MD1999999-0011MW1051REMSYN076AAXX  14064 48450 31940 30000 10344 20208 30050 40083 70500 80006 333 59001;EQDQ01  00002PRCP99
0195484500999992000021415004+14020+099530FM-12+0029VTBG V0209999C000012200019N0050001N1+02841+02251100841ADDAA199000091AY101031AY201031GF103991001001999999001061MA1999999100511MD1999999+0031MW1101REMSYN076AAXX  14154 48450 31950 30000 10284 20225 30051 40084 71000 80006 333 58003;EQDQ01  00002PRCP99
0195484500999992000021418004+14020+099530FM-12+0029VTBG V0209999C000012200019N0050001N1+02581+02191100871ADDAA199000091AY101061AY201061GF103991001001999999001061MA1999999100541MD1999999+0001MW1101REMSYN076AAXX  14184 48450 31950 30000 10258 20219 30054 40087 71000 80006 333 58000;EQDQ01  00002PRCP99
0195484500999992000021421004+14020+099530FM-12+0029VTBG V0209999C000012200019N0050001N1+02461+02161100811ADDAA199000091AY101031AY201031GF103991001001999999001061MA1999999100481MD1999999+0081MW1101REMSYN076AAXX  14214 48450 31950 30000 10246 20216 30048 40081 71000 80006 333 58008;EQDQ01  00002PRCP99
0214484500999992000021500004+14020+099530FM-12+0029VTBG V0209999C000012200019N0020001N1+02341+02141100941ADDAA199000091AY101061AY201061GF103991001001999999001061KA1120N+02231MA1999999100611MD1999999+0001MW1101REMSYN082AAXX  15004 48450 31920 30000 10234 20214 30061 40094 71000 80006 333 20223 58000;EQDQ01  00002PRCP99
0195484500999992000021503004+14020+099530FM-12+0029VTBG V0209999C000012200019N0030001N1+02801+02291101141ADDAA199000091AY101031AY201031GF102991001001999999001051MA1999999100811MD1999999+0041MW1101REMSYN076AAXX  15034 48450 31930 20000 10280 20229 30081 40114 71000 80005 333 58004;EQDQ01  00002PRCP99
0195484500999992000021506004+14020+099530FM-12+0029VTBG V0209999C000012200019N0050001N1+03371+02291100891ADDAA199000091AY101061AY201061GF102991001001999999001051MA1999999100561MD1999999+0061MW1051REMSYN076AAXX  15064 48450 31950 20000 10337 20229 30056 40089 70500 80005 333 58006;EQDQ01  00002PRCP99
0195484500999992000021509004+14020+099530FM-12+0029VTBG V0201201N001510450019N0050001N1+03351+02331100621ADDAA199000091AY111031AY201031GF108991021021008001041061MA1999999100301MD1999999+0051MW1051REMSYN076AAXX  15094 48450 31550 81203 10335 20233 30030 40062 70510 82246 333 58005;EQDQ01  00002PRCP99
0214484500999992000021512004+14020+099530FM-12+0029VTBG V0209999C000019999999N0050001N1+02971+02251100771ADDAA199000091AY121061AY211061GF106991021001999999041061KA1120M+03561MA1999999100451MD1999999+0131MW1051REMSYN082AAXX  15124 48450 31950 60000 10297 20225 30045 40077 70521 82046 333 10356 58013;EQDQ01  00002PRCP99
0195484500999992000021515004+14020+099530FM-12+0029VTBG V0209999C000019999999N0050001N1+02751+02311100951ADDAA199000091AY121031AY221031GF106991021001999999041061MA1999999100621MD1999999+0111MW1101REMSYN076AAXX  15154 48450 31950 60000 10275 20231 30062 40095 71022 82046 333 58011;EQDQ01  00002PRCP99
0195484500999992000021518004+14020+099530FM-12+0029VTBG V0209999C000019999999N0050001N1+02601+02311101001ADDAA199000091AY121061AY221061GF106991021001999999041061MA1999999100671MD1999999+0131MW1101REMSYN076AAXX  15184 48450 31950 60000 10260 20231 30067 40100 71022 82046 333 58013;EQDQ01  00002PRCP99
0195484500999992000021521004+14020+099530FM-12+0029VTBG V0209999C000019999999N0050001N1+02541+02301100881ADDAA199000091AY121031AY221031GF106991031001999999051061MA1999999100551MD1999999+0071MW1101REMSYN076AAXX  15214 48450 31950 60000 10254 20230 30055 40088 71022 83056 333 58007;EQDQ01  00002PRCP99
0214484500999992000021600004+14020+099530FM-12+0029VTBG V0209999C000012200019N0050001N1+02461+02271100961ADDAA199000091AY121061AY221061GF106991031021008001001061KA1120N+02441MA1999999100631MD1999999+0021MW1101REMSYN082AAXX  16004 48450 31550 60000 10246 20227 30063 40096 71022 83206 333 20244 58002;EQDQ01  00002PRCP99
0195484500999992000021603004+14020+099530FM-12+0029VTBG V0209999C000012200019N0050001N1+02881+02371101111ADDAA199000091AY121031AY211031GF103991011011008001001061MA1999999100781MD1999999-0031MW1101REMSYN076AAXX  16034 48450 31550 30000 10288 20237 30078 40111 71021 81106 333 59003;EQDQ01  00002PRCP99
0195484500999992000021606004+14020+099530FM-12+0029VTBG V0201501N002612200019N0060001N1+03451+02211100931ADDAA199000091AY111061AY211061GF105991021011008001001061MA1999999100611MD1999999+0041MW1051REMSYN076AAXX  16064 48450 31556 51505 10345 20221 30061 40093 70511 82106 333 58004;EQDQ01  00002PRCP99
0195484500999992000021609004+14020+099530FM-12+0029VTBG V0200601N005112200019N0060001N1+03201+02201100671ADDAA199000091AY121031AY211031GF106991031021008001001061MA1999999100341MD1999999+0051MW1051REMSYN076AAXX  16094 48450 31556 60610 10320 20220 30034 40067 70521 83206 333 58005;EQDQ01  00002PRCP99
0214484500999992000021612004+14020+099530FM-12+0029VTBG V0203301N002610450019N0060001N1+02901+02121100901ADDAA199000091AY121061AY221061GF108991041081008001071061KA1120M+03581MA1999999100581MD1999999+0131MW1051REMSYN082AAXX  16124 48450 31556 83305 10290 20212 30058 40090 70522 84876 333 10358 58013;EQDQ01  00002PRCP99
0182484500999992000021615004+14020+099530FM-12+0029VTBG V0209999C000010120019N0070001N1+02271+02151101101ADDAA103023191AY191031AY261031GF108991051081008001021999MA1999999100771MD1999999+0151MW1101REMSYN082AAXX  16154 48450 21557 80000 10227 20215 30077 40110 71096 8582/ 333 58015 60237;
0188484500999992000021618004+14020+099530FM-12+0029VTBG V0209999C000010450019N0070001N1+02281+02161101011ADDAA118023191AY191061AY261061GF108991041081008001021999MA1999999100671MD1999999+0011MW1101REMSYN088AAXX  16184 48450 11557 80000 10228 20216 30067 40101 60233 71096 8482/ 333 58001 70231;
0195484500999992000021621004+14020+099530FM-12+0029VTBG V0209999C000010450019N0070001N1+02291+02121100881ADDAA199000091AY121031AY221031GF108991041051008001071999MA1999999100551MD1999999+0001MW1101REMSYN076AAXX  16214 48450 31557 80000 10229 20212 30055 40088 71022 8457/ 333 58000;EQDQ01  00002PRCP99
