0222489200999992000010103004+08650+111920FM-12+000399999V0200201N00701012501CN0200001N1+02661+02491100811ADDAA106000091GA1021+008009089GA2041+012509069GF107991051081008001001081MA1999999100811MD1110121+0101REMSYN093AAXX  01031 48920 32598 7020710266 20249 30081 40081 51012 85808 333 58010 82895 84696 86299;EQDQ01  00002PRCP06
0262489200999992000010106004+08650+111920FM-12+000399999V0203601N00701008001CN0200001N1+02641+02481100651ADDAA106000091GA1021+008009099GA2031+008009089GF107991071091008001999999MA1999999100651MD1710201+0101SA1+2659UA1M990109999REMSYN112AAXX  01061 48920 32598 73607 10264 20248 30065 40065 57020 879// 222// 00265 20302 333 58010 83895 82995 87697;EQDQ01  00002PRCP06
0223489200999992000010109004+08650+111920FM-12+000399999V0209999V00401008001CN0200001N1+02471+02301100671ADDAA106000091GA1051+008009099GA2031+008009089GF108991081091008001999999MA1999999100671MD1310021+0241REMSYN094AAXX  01091 48920 32598 89904 10247 20230 30067 40067 53002 889// 333 58024 83895 85995 88696;EQDQ01  00002PRCP06
0302489200999992000010112004+08650+111920FM-12+000399999V0202301N00201007501CN0200001N1+02391+02221100711ADDAA112008991AY181061AY261061GA1021+008009099GA2021+008009089GF107991071091008001999999KA1120M+02671MA1999999100711MD1010041+0161MW1031SA1+2639UA1M990109999REMSYN136AAXX  01121 48920 11598 72302 10239 20222 30071 40071 50004 60092 70386 879// 222// 00263 20302 333 10267 58016 70019 82895 82995 87696;
0223489200999992000010115004+08650+111920FM-12+000399999V0200201N00401105001CN0200001N1+02481+02341100731ADDAA106000091GA1011+008009089GA2041+012509069GF107991041081008001001081MA1999999100731MD1110021+0041REMSYN094AAXX  01151 48920 32598 70204 10248 20234 30073 40073 51002 84808 333 58004 81895 84696 87299;EQDQ01  00002PRCP06
0223489200999992000010118004+08650+111920FM-12+000399999V0200201N00701012501CN0200001N1+02581+02481100611ADDAA106000091GA1021+008009089GA2051+012509069GF107991051081008001001081MA1999999100611MD1710121+0041REMSYN094AAXX  01181 48920 32598 70207 10258 20248 30061 40061 57012 85808 333 58004 82895 85696 87299;EQDQ01  00002PRCP06
0201489200999992000010121004+08650+111920FM-12+000399999V0200201N00701105001CN0200001N1+02591+02461100591ADDAA106000091GA1021+008009089GF106991021021008001001081MA1999999100591MD1510021+0101REMSYN088AAXX  01211 48920 32598 60207 10259 20246 30059 40059 55002 82208 333 58010 82895 86299;EQDQ01  00002PRCP06
0259489200999992000010200004+08650+111920FM-12+000399999V0200201N00701105001CN0200001N1+02591+02451100691ADDAA106000091GA1021+008009089GF107991021021008001001081KA1120N+02571MA1999999100691MD1210101+0001SA1+2629UA1M990159999REMSYN112AAXX  02001 48920 32598 70207 10259 20245 30069 40069 52010 82208 222// 00262 20403 333 20257 58000 82895 87299;EQDQ01  00002PRCP06
0201489200999992000010203004+08650+111920FM-12+000399999V0200201N00701105001CN0200001N1+02741+02551100791ADDAA106000091GA1021+008009089GF106991021021008001001081MA1999999100791MD1010101-0021REMSYN088AAXX  02031 48920 32598 60207 10274 20255 30079 40079 50010 82208 333 59002 82895 86299;EQDQ01  00002PRCP06
0240489200999992000010206004+08650+111920FM-12+000399999V0200201N00601105001CN0200001N1+02781+02551100571ADDAA106000091GA1031+008009089GF107991031021008001001081MA1999999100571MD1710221-0081SA1+2709UA1M990159999REMSYN106AAXX  02061 48920 32598 70206 10278 20255 30057 40057 57022 83208 222// 00270 20403 333 59008 83895 87299;EQDQ01  00002PRCP06
0201489200999992000010209004+08650+111920FM-12+000399999V0200201N00701105001CN0200001N1+02671+02501100401ADDAA106000091GA1031+008009089GF107991031021008001001081MA1999999100401MD1710171-0271REMSYN088AAXX  02091 48920 32598 70207 10267 20250 30040 40040 57017 83208 333 59027 83895 87299;EQDQ01  00002PRCP06
0265489200999992000010212004+08650+111920FM-12+000399999V0200201N00701105001CN0200001N1+02651+02481100571ADDAA106000091GA1031+008009089GF107991031021008001001081KA1120M+02801MA1999999100571MD1210171-0141SA1+2659UA1M990159999REMSYN118AAXX  02121 48920 32598 70207 10265 20248 30057 40057 52017 83208 222// 00265 20403 333 10280 59014 70000 83895 87299;EQDQ01  00002PRCP06
0201489200999992000010215004+08650+111920FM-12+000399999V0200201N00901105001CN0200001N1+02631+02471100611ADDAA106000091GA1041+008009089GF107991041021008001001081MA1999999100611MD1010041-0121REMSYN088AAXX  02151 48920 32598 70209 10263 20247 30061 40061 50004 84208 333 59012 84895 87299;EQDQ01  00002PRCP06
0201489200999992000010218004+08650+111920FM-12+000399999V0200201N00901105001CN0200001N1+02601+02471100601ADDAA106000091GA1031+008009089GF106991031021008001001081MA1999999100601MD1610011-0011REMSYN088AAXX  02181 48920 32598 60209 10260 20247 30060 40060 56001 83208 333 59001 83895 86299;EQDQ01  00002PRCP06
0296489200999992000010300004+08650+111920FM-12+000399999V0200201N00801105001CN0100001N1+02621+02511100691ADDAA112000191AY121061AY221061GA1011+008009099GA2021+008009089GF107991031091004501001081KA1120N+02601MA1999999100691MD1210181+0001MW1801SA1+2619UA1M990109999REMSYN130AAXX  03001 48920 11497 70208 10262 20251 30069 40069 52018 69922 78022 83908 222// 00261 20302 333 20260 58000 82895 81995 87299;
0227489200999992000010303004+08650+111920FM-12+000399999V0200501N00701012501CN0200001N1+02541+02411100771ADDAY181031AY221031GA1031+008009089GA2071+012509069GF107991071081008001999999MA1999999100771MD1010081-0021MW1251REMSYN106AAXX  03031 48920 41598 70507 10254 20241 30077 40077 50008 72582 878// 333 59002 83895 87696 91119 91505;
0315489200999992000010306004+08650+111920FM-12+000399999V0200201N00601012501CN0200001N1+02631+02501100601ADDAA106003091AY181061AY221061GA1011+008009099GA2031+008009089GA3071+012509069GF107991071091008001999999MA1999999100601MD1710171+0031MW1031SA1+2669UA1M990109999REMSYN146AAXX  03061 48920 11598 70206 10263 20250 30060 40060 57017 60031 70382 879// 222// 00266 20302 333 58003 83895 81995 87696 91119 91505 555 20247;
0199489200999992000010309004+08650+111920FM-12+000399999V0200201N00701012001CN0200001N1+02631+02521100471ADDAY181031AY221031GA1041+008009089GF107991071081008001999999MA1999999100471MD1510131+0071MW1031REMSYN094AAXX  03091 48920 41598 70207 10263 20252 30047 40047 55013 70382 878// 333 58007 84895 87696;
0302489200999992000010312004+08650+111920FM-12+000399999V0200201N00701008001CN0100001N1+02611+02521100571ADDAA112006191AY181061AY221061GA1041+004509089GA2021+008009099GF108991081091004501999999KA1120M+02681MA1999999100571MD1210101+0001MW1801SA1+2639UA1M990109999REMSYN136AAXX  03121 48920 11497 80207 10261 20252 30057 40057 52010 60062 78082 889// 222// 00263 20302 333 10268 58000 70080 84894 82995 88696;
0199489200999992000010315004+08650+111920FM-12+000399999V0200201N00801012001CN0200001N1+02631+02501100651ADDAY181031AY221031GA1031+008009089GF108991061081008001999999MA1999999100651MD1110081+0041MW1031REMSYN094AAXX  03151 48920 41598 80208 10263 20250 30065 40065 51008 70382 868// 333 58004 83895 86696;
0238489200999992000010318004+08650+111920FM-12+000399999V0200201N00701105001CN0200001N1+02601+02491100551ADDAA106000591AY181061AY221061GA1011+008009099GA2021+008009089GF106991021091008001001081MA1999999100551MD1810151-0051MW1031REMSYN106AAXX  03181 48920 11598 60207 10260 20249 30055 40055 58015 69961 70382 82908 333 59005 82895 81995 86299;
0296489200999992000010400004+08650+111920FM-12+000399999V0200201N00501105001CN0200001N1+02631+02491100721ADDAA112003091AY181061AY221061GA1021+008009099GA2021+008009089GF107991031091008001001081KA1120N+02581MA1999999100721MD1210231+0031MW1031SA1+2609UA1M990209999REMSYN130AAXX  04001 48920 11598 70205 10263 20249 30072 40072 52023 60032 70382 83908 222// 00260 20504 333 20258 58003 82895 82995 87299;
0201489200999992000010403004+08650+111920FM-12+000399999V0200201N00401105001CN0200001N1+02721+02581100831ADDAA106000091GA1021+008009089GF106991021021008001001081MA1999999100831MD1010111+0061REMSYN088AAXX  04031 48920 32598 60204 10272 20258 30083 40083 50011 82208 333 58006 82895 86299;EQDQ01  00002PRCP06
0240489200999992000010406004+08650+111920FM-12+000399999V0200201N00501105001CN0200001N1+02771+02571100631ADDAA106000091GA1021+008009089GF106991021021008001001081MA1999999100631MD1710201+0031SA1+2709UA1M990159999REMSYN106AAXX  04061 48920 32598 60205 10277 20257 30063 40063 57020 82208 222// 00270 20403 333 58003 82895 86299;EQDQ01  00002PRCP06
0201489200999992000010409004+08650+111920FM-12+000399999V0200201N00401105001CN0200001N1+02711+02551100491ADDAA106000091GA1011+008009089GF106991011011008001001081MA1999999100491MD1610141+0021REMSYN088AAXX  04091 48920 32598 60204 10271 20255 30049 40049 56014 81108 333 58002 81895 86299;EQDQ01  00002PRCP06
0265489200999992000010412004+08650+111920FM-12+000399999V0200201N00501105001CN0200001N1+02661+02501100601ADDAA106000091GA1011+008009089GF106991011011008001001081KA1120M+02811MA1999999100601MD1210111+0031SA1+2659UA1M990159999REMSYN118AAXX  04121 48920 32598 60205 10266 20250 30060 40060 52011 81108 222// 00265 20403 333 10281 58003 70029 81895 86299;EQDQ01  00002PRCP06
0201489200999992000010415004+08650+111920FM-12+000399999V0200501N00401220001CN0200001N1+02631+02531100721ADDAA106000091GA1011+008009089GF105991011021008001001081MA1999999100721MD1210121+0071REMSYN088AAXX  04151 48920 32598 50504 10263 20253 30072 40072 52012 81208 333 58007 81895 85299;EQDQ01  00002PRCP06
0201489200999992000010418004+08650+111920FM-12+000399999V0200201N00501220001CN0200001N1+02601+02511100691ADDAA106000091GA1011+008009089GF105991011011008001001081MA1999999100691MD1810031+0141REMSYN088AAXX  04181 48920 32598 50205 10260 20251 30069 40069 58003 81108 333 58014 81895 85299;EQDQ01  00002PRCP06
0201489200999992000010421004+08650+111920FM-12+000399999V0200201N00501105001CN0200001N1+02601+02491100631ADDAA106000091GA1011+008009089GF106991011011008001001081MA1999999100631MD1510061+0141REMSYN088AAXX  04211 48920 32598 60205 10260 20249 30063 40063 55006 81108 333 58014 81895 86299;EQDQ01  00002PRCP06
0281489200999992000010500004+08650+111920FM-12+000399999V0200201N00601007501CN0200001N1+02621+02511100811ADDAA106000091GA1011+008009099GA2041+008009089GF107991071091008001999999KA1120N+02581MA1999999100811MD1210181+0091SA1+2629UA1M990109999REMSYN118AAXX  05001 48920 32598 70206 10262 20251 30081 40081 52018 879// 222// 00262 20302 333 20258 58009 84895 81995 87696;EQDQ01  00002PRCP06
0223489200999992000010503004+08650+111920FM-12+000399999V0200201N00501105001CN0200001N1+02741+02571100921ADDAA106000091GA1011+008009089GA2031+012509069GF106991031081008001001081MA1999999100921MD1110111+0091REMSYN094AAXX  05031 48920 32598 60205 10274 20257 30092 40092 51011 83808 333 58009 81895 83696 86299;EQDQ01  00002PRCP06
0262489200999992000010506004+08650+111920FM-12+000399999V0200201N00401007501CN0200001N1+02811+02581100691ADDAA106000091GA1011+008009099GA2031+008009089GF107991071031008001999999MA1999999100691MD1710231+0061SA1+2039UA1M990059999REMSYN112AAXX  05061 48920 32598 70204 10281 20258 30069 40069 57023 873// 222// 00203 20201 333 58006 83895 81995 87697;EQDQ01  00002PRCP06
0223489200999992000010509004+08650+111920FM-12+000399999V0200201N00401105001CN0200001N1+02721+02581100521ADDAA106000091GA1011+008009099GA2011+008009089GF106991021091008001001081MA1999999100521MD1610171+0031REMSYN094AAXX  05091 48920 32598 60204 10272 20258 30052 40052 56017 82908 333 58003 81895 81995 86299;EQDQ01  00002PRCP06
0287489200999992000010512004+08650+111920FM-12+000399999V0200201N00501105001CN0200001N1+02631+02521100641ADDAA106000091GA1011+008009099GA2011+008009089GF106991021091008001001081KA1120M+02831MA1999999100641MD1210121+0031SA1+2639UA1M990109999REMSYN124AAXX  05121 48920 32598 60205 10263 20252 30064 40064 52012 82908 222// 00263 20302 333 10283 58003 70000 81895 81995 87299;EQDQ01  00002PRCP06
0201489200999992000010515004+08650+111920FM-12+000399999V0200201N00601105001CN0200001N1+02621+02521100771ADDAA106000091GA1021+008009089GF106991021021008001001081MA1999999100771MD1110131+0051REMSYN088AAXX  05151 48920 32598 60206 10262 20252 30077 40077 51013 82208 333 58005 82895 86299;EQDQ01  00002PRCP06
0201489200999992000010518004+08650+111920FM-12+000399999V0200201N00401105001CN0200001N1+02601+02501100651ADDAA106000091GA1021+008009089GF106991021021008001001081MA1999999100651MD1710121-0041REMSYN088AAXX  05181 48920 32598 60204 10260 20250 30065 40065 57012 82208 333 59004 82895 86299;EQDQ01  00002PRCP06
0201489200999992000010521004+08650+111920FM-12+000399999V0200501N00501105001CN0200001N1+02581+02501100601ADDAA106000091GA1021+008009089GF106991021021008001001081MA1999999100601MD1510051-0031REMSYN088AAXX  05211 48920 32598 60505 10258 20250 30060 40060 55005 82208 333 59003 82895 86299;EQDQ01  00002PRCP06
0201489200999992000010603004+08650+111920FM-12+000399999V0200201N00401105001CN0200001N1+02761+02551100951ADDAA106000091GA1031+008009089GF107991031021008001001081MA1999999100951MD1010151+0031REMSYN088AAXX  06031 48920 32598 70204 10276 20255 30095 40095 50015 83208 333 58003 83895 87299;EQDQ01  00002PRCP06
0240489200999992000010606004+08650+111920FM-12+000399999V0200201N00401105001CN0200001N1+02731+02531100711ADDAA106000091GA1041+008009089GF107991041021008001001081MA1999999100711MD1710241+0021SA1+2709UA1M990109999REMSYN106AAXX  06061 48920 32598 70204 10273 20253 30071 40071 57024 84208 222// 00270 20302 333 58002 84895 87299;EQDQ01  00002PRCP06
0201489200999992000010609004+08650+111920FM-12+000399999V0200201N00201012001CN0200001N1+02731+02531100601ADDAA106000091GA1021+008009089GF107991071081008001999999MA1999999100601MD1710111+0081REMSYN088AAXX  06091 48920 32598 70202 10273 20253 30060 40060 57011 878// 333 58008 82895 87696;EQDQ01  00002PRCP06
0246489200999992000010612004+08650+111920FM-12+000399999V0200201N00101105001CN0200001N1+02631+02491100711ADDAA106000091GA1021+008009089GF106991021021008001001081MA1999999100711MD1210111+0071SA1+2659UA1M990009999REMSYN112AAXX  06121 48920 32598 60201 10263 20249 30071 40071 52011 82208 222// 00265 20000 333 58007 70000 82895 86299;EQDQ01  00002PRCP06
0201489200999992000010615004+08650+111920FM-12+000399999V0200201N00401105001CN0200001N1+02601+02491100801ADDAA106000091GA1021+008009089GF106991021021008001001081MA1999999100801MD1110091+0031REMSYN088AAXX  06151 48920 32598 60204 10260 20249 30080 40080 51009 82208 333 58003 82895 86299;EQDQ01  00002PRCP06
0201489200999992000010621004+08650+111920FM-12+000399999V0200201N00701105001CN0200001N1+02571+02431100611ADDAA106000091GA1021+008009089GF106991021021008001001081MA1999999100611MD1610101+0011REMSYN088AAXX  06211 48920 32598 60207 10257 20243 30061 40061 56010 82208 333 58001 82895 86299;EQDQ01  00002PRCP06
0259489200999992000010700004+08650+111920FM-12+000399999V0203601N00601012001CN0200001N1+02591+02451100801ADDAA106000091GA1031+008009089GF107991071081008001999999KA1120N+02561MA1999999100801MD1210191+0001SA1+2619UA1M990059999REMSYN112AAXX  07001 48920 32598 73606 10259 20245 30080 40080 52019 878// 222// 00261 20201 333 20256 58000 83895 87696;EQDQ01  00002PRCP06
0223489200999992000010703004+08650+111920FM-12+000399999V0200201N00601017501CN0200001N1+02701+02571100921ADDAA106000091GA1021+008009089GA2031+017509069GF107991041081008001001081MA1999999100921MD1110121-0031REMSYN094AAXX  07031 48920 32598 70206 10270 20257 30092 40092 51012 84808 333 59003 82895 83697 86299;EQDQ01  00002PRCP06
0240489200999992000010706004+08650+111920FM-12+000399999V0200201N00601105001CN0200001N1+02741+02441100691ADDAA106000091GA1021+008009089GF107991021021008001001081MA1999999100691MD1710231-0021SA1+2689UA1M990059999REMSYN106AAXX  07061 48920 32598 70206 10274 20244 30069 40069 57023 82208 222// 00268 20201 333 59002 82895 87299;EQDQ01  00002PRCP06
0201489200999992000010709004+08650+111920FM-12+000399999V0200201N00601012001CN0200001N1+02691+02451100551ADDAA106000091GA1031+008009089GF107991061081008001041999MA1999999100551MD1510141-0051REMSYN088AAXX  07091 48920 32598 70206 10269 20245 30055 40055 55014 8684/ 333 59005 83895 85696;EQDQ01  00002PRCP06
0265489200999992000010712004+08650+111920FM-12+000399999V0200201N00701105001CN0200001N1+02631+02471100691ADDAA106000091GA1021+008009089GF106991021021008001001081KA1120M+02801MA1999999100691MD1210141-0021SA1+2649UA1M990109999REMSYN118AAXX  07121 48920 32598 60207 10263 20247 30069 40069 52014 82208 222// 00264 20302 333 10280 59002 70000 82895 86299;EQDQ01  00002PRCP06
0201489200999992000010715004+08650+111920FM-12+000399999V0200201N00701105001CN0200001N1+02621+02431100831ADDAA106000091GA1021+008009089GF106991021021008001001081MA1999999100831MD1210141+0031REMSYN088AAXX  07151 48920 32598 60207 10262 20243 30083 40083 52014 82208 333 58003 82895 86299;EQDQ01  00002PRCP06
0201489200999992000010718004+08650+111920FM-12+000399999V0200201N00701105001CN0200001N1+02621+02451100801ADDAA106000091GA1021+008009089GF106991021021008001001081MA1999999100801MD1810031+0091REMSYN088AAXX  07181 48920 32598 60207 10262 20245 30080 40080 58003 82208 333 58009 82895 86299;EQDQ01  00002PRCP06
0296489200999992000010800004+08650+111920FM-12+000399999V0203601N00701007501CN0200001N1+02641+02461100921ADDAA112000591AY181061AY221061GA1021+008009099GA2021+008009089GF107991071091008001999999KA1120N+02541MA1999999100921MD1310251+0121MW1031SA1+2699UA1M990109999REMSYN130AAXX  08001 48920 11598 73607 10264 20246 30092 40092 53025 69962 70382 879// 222// 00269 20302 333 20254 58012 82895 82995 87696;
0234489200999992000010806004+08650+111920FM-12+000399999V0203601N00801012001CN0200001N1+02661+02491999999ADDAA106000091GA1041+008009089GF108991081081008001999999MA1999999100811MD1710201+0121SA1+2739UA1M990259999REMSYN100AAXX  08061 48920 32598 83608 10266 20249 30081 57020 888// 222// 00273 20605 333 58012 84895 88696;EQDQ01  00002PRCP06
0199489200999992000010809004+08650+111920FM-12+000399999V0200201N00801012001CN0200001N1+02631+02441100601ADDAY181031AY221031GA1031+008009089GF107991071081008001999999MA1999999100601MD1710211+0051MW1031REMSYN094AAXX  08091 48920 41598 70208 10263 20244 30060 40060 57021 70382 878// 333 58005 83895 87696;
0280489200999992000010812004+08650+111920FM-12+000399999V0200201N00601105001CN0200001N1+02601+02411100721ADDAA112002091AY181061AY221061GA1031+008009089GF107991031021008001001081KA1120M+02701MA1999999100721MD1310121+0021MW1031SA1+2649UA1M990209999REMSYN130AAXX  08121 48920 11598 70206 10260 20241 30072 40072 53012 60022 70382 83208 222// 00264 20504 333 10270 58002 70026 83895 87299;
0201489200999992000010815004+08650+111920FM-12+000399999V0200201N00601105001CN0200001N1+02621+02461100811ADDAA106000091GA1011+008009089GF106991011021008001001081MA1999999100811MD1110091-0021REMSYN088AAXX  08151 48920 32598 60206 10262 20246 30081 40081 51009 81208 333 59002 81895 86299;EQDQ01  00002PRCP06
0281489200999992000010900004+08650+111920FM-12+000399999V0203601N00501007501CN0200001N1+02631+02521100891ADDAA106000091GA1031+008009099GA2011+008009089GF108991081091008001999999KA1120N+02561MA1999999100891MD1210221-0031SA1+2679UA1M990109999REMSYN118AAXX  09001 48920 32598 83605 10263 20252 30089 40089 52022 889// 222// 00267 20302 333 20256 59003 81895 83995 88696;EQDQ01  00002PRCP06
0199489200999992000010903004+08650+111920FM-12+000399999V0201401N00501004201CN0020001N1+02371+02301101041ADDAY191031AY281031GA1041+004509089GF108991081091004501999999MA1999999101041MD1210151+0031MW1951REMSYN094AAXX  09031 48920 41495 81405 10237 20230 30104 40104 52015 79598 889// 333 58003 84894 88995;
0221489200999992000010909004+08650+111920FM-12+000399999V0200501N00501105001CN0200001N1+02621+02511100551ADDAY161031AY221031GA1021+008009089GA2041+012509069GF107991041081008001001081MA1999999100551MD1610241-0051MW1031REMSYN100AAXX  09091 48920 41598 70505 10262 20251 30055 40055 56024 70362 84808 333 59005 82895 84696 85299;
0201489200999992000010911004+08650+111920FM-12+000399999V0200501N007012200019N0200001N1+02621+02461100721ADDAA106000091GA1021+008009089GF104991041081008001001001MA1999999100721MD1310041-0091REMSYN088AAXX  09111 48920 32598 40507 10262 20246 30072 40072 53004 84800 333 59009 82895 84696;EQDQ01  00002PRCP06
0302489200999992000010912004+08650+111920FM-12+000399999V0200201N00801007501CN0200001N1+02621+02461100681ADDAA112080091AY161061AY221061GA1011+008009099GA2021+008009089GF105991051091008001001001KA1120M+02701MA1999999100681MD1210131-0041MW1031SA1+2659UA1M990159999REMSYN136AAXX  09121 48920 11598 50208 10262 20246 30068 40068 52013 60802 70362 85900 222// 00265 20403 333 10270 59004 70796 82895 81995 85696;
0201489200999992000010915004+08650+111920FM-12+000399999V0200501N007012200019N0200001N1+02621+02461100721ADDAA106000091GA1021+008009089GF104991041081008001001001MA1999999100721MD1310041-0091REMSYN088AAXX  09151 48920 32598 40507 10262 20246 30072 40072 53004 84800 333 59009 82895 84696;EQDQ01  00002PRCP06
0223489200999992000010921004+08650+111920FM-12+000399999V0200501N00601105001CN0200001N1+02631+02491100601ADDAA106000091GA1031+008009089GA2041+012509069GF107991041081008001001081MA1999999100601MD1710091-0071REMSYN094AAXX  09211 48920 32598 70506 10263 20249 30060 40060 57009 84808 333 59007 83895 84696 85299;EQDQ01  00002PRCP06
0259489200999992000011000004+08650+111920FM-12+000399999V0200501N00801012001CN0200001N1+02631+02491100801ADDAA106000091GA1021+008009089GF107991071081008001999999KA1120N+02631MA1999999100801MD1210201-0091SA1+2659UA1M990109999REMSYN112AAXX  10001 48920 32598 70508 10263 20249 30080 40080 52020 878// 222// 00265 20302 333 20263 59009 82895 87696;EQDQ01  00002PRCP06
0201489200999992000011003004+08650+111920FM-12+000399999V0200501N00701012001CN0200001N1+02671+02501100801ADDAA106000091GA1021+008009089GF107991071081008001999999MA1999999100801MD1010001-0241REMSYN088AAXX  10031 48920 32598 70507 10267 20250 30080 40080 50000 878// 333 59024 82895 87696;EQDQ01  00002PRCP06
0240489200999992000011006004+08650+111920FM-12+000399999V0200201N00401012001CN0200001N1+02761+02571100651ADDAA106000091GA1021+008009089GF107991071081008001999999MA1999999100651MD1710151-0141SA1+2709UA1M990109999REMSYN106AAXX  10061 48920 32598 70204 10276 20257 30065 40065 57015 878// 222// 00270 20302 333 59014 82895 87696;EQDQ01  00002PRCP06
0201489200999992000011009004+08650+111920FM-12+000399999V0200501N00501105001CN0200001N1+02751+02571100551ADDAA106000091GA1031+008009089GF106991031021008001001081MA1999999100551MD1710101+0001REMSYN088AAXX  10091 48920 32598 60505 10275 20257 30055 40055 57010 83208 333 58000 83895 86299;EQDQ01  00002PRCP06
0265489200999992000011012004+08650+111920FM-12+000399999V0200501N00401105001CN0200001N1+02651+02531100681ADDAA106000091GA1031+008009089GF106991031021008001001081KA1120M+02801MA1999999100681MD1210131+0001SA1+2649UA1M990059999REMSYN118AAXX  10121 48920 32598 60504 10265 20253 30068 40068 52013 83208 222// 00264 20201 333 10280 58000 70000 83895 86299;EQDQ01  00002PRCP06
0201489200999992000011015004+08650+111920FM-12+000399999V0200201N00401105001CN0200001N1+02671+02561100801ADDAA106000091GA1021+008009089GF106991021021008001001081MA1999999100801MD1110121+0081REMSYN088AAXX  10151 48920 32598 60204 10267 20256 30080 40080 51012 82208 333 58008 82895 86299;EQDQ01  00002PRCP06
0201489200999992000011018004+08650+111920FM-12+000399999V0200201N00601220001CN0200001N1+02631+02531100711ADDAA106000091GA1021+008009089GF105991021011008001001081MA1999999100711MD1810091+0021REMSYN088AAXX  10181 48920 32598 50206 10263 20253 30071 40071 58009 82108 333 58002 82895 85299;EQDQ01  00002PRCP06
0201489200999992000011021004+08650+111920FM-12+000399999V0200501N00701105001CN0200001N1+02621+02481100811ADDAA106000091GA1021+008009089GF106991021021008001001081MA1999999100811MD1510101+0011REMSYN088AAXX  10211 48920 32598 60507 10262 20248 30081 40081 55010 82208 333 58001 82895 86299;EQDQ01  00002PRCP06
0259489200999992000011100004+08650+111920FM-12+000399999V0200501N00801105001CN0200001N1+02621+02461100831ADDAA106000091GA1021+008009089GF107991021021008001001081KA1120N+02601MA1999999100831MD1210221+0031SA1+2699UA1M990109999REMSYN112AAXX  11001 48920 32598 70508 10262 20246 30083 40083 52022 82208 222// 00269 20302 333 20260 58003 82895 87299;EQDQ01  00002PRCP06
0201489200999992000011103004+08650+111920FM-12+000399999V0200501N00801105001CN0200001N1+02771+02501100911ADDAA106000091GA1021+008009089GF106991021021008001001081MA1999999100911MD1010081+0111REMSYN088AAXX  11031 48920 32598 60508 10277 20250 30091 40091 50008 82208 333 58011 82895 86299;EQDQ01  00002PRCP06
0240489200999992000011106004+08650+111920FM-12+000399999V0200701N00601105001CN0200001N1+02831+02531100711ADDAA106000091GA1021+008009089GF106991021021008001001081MA1999999100711MD1710201+0071SA1+2749UA1M990059999REMSYN106AAXX  11061 48920 32598 60706 10283 20253 30071 40071 57020 82208 222// 00274 20201 333 58007 82895 86299;EQDQ01  00002PRCP06
0195489200999992000011109004+08650+111920FM-12+000399999V0200701N003012200019N0200001N1+02811+02511100551ADDAA106000091GA1021+008009029GF103991021021008001001011MA1999999100551MD1610161+0001REMSYN082AAXX  11091 48920 32598 30703 10281 20251 30055 40055 56016 82201 333 58000 82895;EQDQ01  00002PRCP06
0265489200999992000011112004+08650+111920FM-12+000399999V0200501N00401045001CN0200001N1+02701+02521100691ADDAA106000091GA1021+008009089GF106991021021008001041999KA1120M+02881MA1999999100691MD1210141+0011SA1+2729UA1M990059999REMSYN118AAXX  11121 48920 32598 60504 10270 20252 30069 40069 52014 8224/ 222// 00272 20201 333 10288 58001 70000 82895 86399;EQDQ01  00002PRCP06
0201489200999992000011115004+08650+111920FM-12+000399999V0200201N00701220001CN0200001N1+02701+02521100711ADDAA106000091GA1021+008009089GF105991021021008001001081MA1999999100711MD1110221-0091REMSYN088AAXX  11151 48920 32598 50207 10270 20252 30071 40071 51022 82208 333 59009 82895 85299;EQDQ01  00002PRCP06
0201489200999992000011118004+08650+111920FM-12+000399999V0200501N00401220001CN0200001N1+02651+02481100691ADDAA106000091GA1021+008009089GF105991021021008001001081MA1999999100691MD1810021-0021REMSYN088AAXX  11181 48920 32598 50504 10265 20248 30069 40069 58002 82208 333 59002 82895 85299;EQDQ01  00002PRCP06
0201489200999992000011121004+08650+111920FM-12+000399999V0200501N00301220001CN0200001N1+02621+02451100711ADDAA106000091GA1011+008009089GF105991011021008001001081MA1999999100711MD1310021+0101REMSYN088AAXX  11211 48920 32598 50503 10262 20245 30071 40071 53002 81208 333 58010 81895 85299;EQDQ01  00002PRCP06
0259489200999992000011200004+08650+111920FM-12+000399999V0200501N00401105001CN0200001N1+02651+02431100871ADDAA106000091GA1021+008009089GF107991021021008001001081KA1120N+02611MA1999999100871MD1210161+0041SA1+2709UA1M990109999REMSYN112AAXX  12001 48920 32598 70504 10265 20243 30087 40087 52016 82208 222// 00270 20302 333 20261 58004 82895 87299;EQDQ01  00002PRCP06
0201489200999992000011203004+08650+111920FM-12+000399999V0200501N00301105001CN0200001N1+02821+02541100931ADDAA106000091GA1021+008009089GF107991021021008001001081MA1999999100931MD1010061+0021REMSYN088AAXX  12031 48920 32598 70503 10282 20254 30093 40093 50006 82208 333 58002 82895 87299;EQDQ01  00002PRCP06
0240489200999992000011206004+08650+111920FM-12+000399999V0200501N00401105001CN0200001N1+02851+02431100631ADDAA106000091GA1021+008009089GF107991021021008001001081MA1999999100631MD1710301-0081SA1+2799UA1M990109999REMSYN106AAXX  12061 48920 32598 70504 10285 20243 30063 40063 57030 82208 222// 00279 20302 333 59008 82895 87299;EQDQ01  00002PRCP06
0201489200999992000011209004+08650+111920FM-12+000399999V0200201N00501105001CN0200001N1+02781+02481100491ADDAA106000091GA1031+008009089GF106991031021008001001081MA1999999100491MD1610111-0061REMSYN088AAXX  12091 48920 32598 60205 10278 20248 30049 40049 56011 83208 333 59006 83895 86299;EQDQ01  00002PRCP06
0265489200999992000011212004+08650+111920FM-12+000399999V0203601N00501105001CN0200001N1+02701+02501100631ADDAA106000091GA1021+008009089GF107991021021008001001081KA1120M+02911MA1999999100631MD1210141-0061SA1+2749UA1M990109999REMSYN118AAXX  12121 48920 32598 73605 10270 20250 30063 40063 52014 82208 222// 00274 20302 333 10291 59006 70000 82895 87299;EQDQ01  00002PRCP06
0201489200999992000011215004+08650+111920FM-12+000399999V0200201N00601105001CN0200001N1+02661+02481100711ADDAA106000091GA1011+008009089GF106991011021008001001081MA1999999100711MD1110081+0001REMSYN088AAXX  12151 48920 32598 60206 10266 20248 30071 40071 51008 81208 333 58000 81895 86299;EQDQ01  00002PRCP06
0201489200999992000011218004+08650+111920FM-12+000399999V0203601N00601105001CN0200001N1+02661+02481100611ADDAA106000091GA1031+008009089GF106991031021008001001081MA1999999100611MD1810101-0081REMSYN088AAXX  12181 48920 32598 63606 10266 20248 30061 40061 58010 83208 333 59008 83895 86299;EQDQ01  00002PRCP06
0259489200999992000011300004+08650+111920FM-12+000399999V0203601N00301007501CN0200001N1+02641+02471100751ADDAA106000091GA1041+008009089GF105991051091008001001001KA1120N+02601MA1999999100751MD1210291-0121SA1+2729UA1M990059999REMSYN112AAXX  13001 48920 32598 53603 10264 20247 30075 40075 52029 85900 222// 00272 20201 333 20260 59012 84895 81995;EQDQ01  00002PRCP06
0195489200999992000011303004+08650+111920FM-12+000399999V0203601N006012200019N0200001N1+02731+02461100791ADDAA106000091GA1041+008009029GF104991041021008001001001MA1999999100791MD1010041-0141REMSYN082AAXX  13031 48920 32598 43606 10273 20246 30079 40079 50004 84200 333 59014 84895;EQDQ01  00002PRCP06
0240489200999992000011306004+08650+111920FM-12+000399999V0200201N00301220001CN0200001N1+02801+02471100561ADDAA106000091GA1031+008009089GF105991031021008001001081MA1999999100561MD1710231-0071SA1+2769UA1M990059999REMSYN106AAXX  13061 48920 32598 50203 10280 20247 30056 40056 57023 83208 222// 00276 20201 333 59007 83895 85299;EQDQ01  00002PRCP06
0195489200999992000011309004+08650+111920FM-12+000399999V0200201N006012200019N0200001N1+02751+02461100401ADDAA106000091GA1031+008009029GF103991031021008001001001MA1999999100401MD1710161-0091REMSYN082AAXX  13091 48920 32598 30206 10275 20246 30040 40040 57016 83200 333 59009 83895;EQDQ01  00002PRCP06
0259489200999992000011312004+08650+111920FM-12+000399999V0200201N006010080019N0200001N1+02681+02481100511ADDAA106000091GA1051+008009029GF105991051021008001001001KA1120M+02911MA1999999100511MD1210111-0081SA1+2849UA1M990109999REMSYN112AAXX  13121 48920 32598 50206 10268 20248 30051 40051 52011 85200 222// 00284 20302 333 10291 59008 70000 85895;EQDQ01  00002PRCP06
0195489200999992000011315004+08650+111920FM-12+000399999V0200201N007012200019N0200001N1+02651+02461100611ADDAA106000091GA1021+008009029GF102991021021008001001001MA1999999100611MD1110101-0101REMSYN082AAXX  13151 48920 32598 20207 10265 20246 30061 40061 51010 82200 333 59010 82895;EQDQ01  00002PRCP06
0195489200999992000011318004+08650+111920FM-12+000399999V0203601N007012200019N0200001N1+02621+02451100591ADDAA106000091GA1021+008009029GF104991041081008001001001MA1999999100591MD1710021+0001REMSYN082AAXX  13181 48920 32598 43607 10262 20245 30059 40059 57002 84800 333 58000 82895;EQDQ01  00002PRCP06
0215489200999992000011321004+08650+111920FM-12+000399999V0200201N006012200019N0200001N1+02611+02421100531ADDAA199000091GA1041+008009029GF104991999021008001001001MA1999999100531MD1510061-0031REMSYN086    AAXX  13211 48920 32598 40206 10261 20242 30053 40053 55006 81200 333 59003 84895;EQDQ01+000012SCOTLCQ02  00002PRCP99
0257489200999992000011400004+08650+111920FM-12+000399999V0200201N006010080019N0200001N1+02631+02381100711ADDAA199000091GA1051+008009029GF105991051021008001001011KA1120N+02581MA1999999100711MD1210181-0041SA1+2719UA1M990109999REMSYN110    AAXX  14001 48920 32598 50206 10263 20238 30071 40071 52018 85201 222// 00271 20302 333 20258 59004 85895;EQDQ01  00002PRCP99
0205489200999992000011403004+08650+111920FM-12+000399999V0200201N00601220001CN0200001N1+02731+02401100751ADDAA199000091GA1021+008009089GF105991021021008001001081MA1999999100751MD1010041-0041REMSYN092    AAXX  14031 48920 32598 50206 10273 20240 30075 40075 50004 82208 333 59004 82895 85299;EQDQ01  00002PRCP99
0238489200999992000011406004+08650+111920FM-12+000399999V0200201N006010080019N0200001N1+02791+02401100491ADDAA199000091GA1051+008009029GF106991051021008001001011MA1999999100491MD1710261-0071SA1+2779UA1M990109999REMSYN104    AAXX  14061 48920 32598 60206 10279 20240 30049 40049 57026 85201 222// 00277 20302 333 59007 85895;EQDQ01  00002PRCP99
0205489200999992000011409004+08650+111920FM-12+000399999V0203601N00601007501CN0200001N1+02731+02441100391ADDAA199000091GA1041+008009089GF106991051091008001001011MA1999999100391MD1610101-0101REMSYN092    AAXX  14091 48920 32598 63606 10273 20244 30039 40039 56010 85901 333 59010 84895 81995;EQDQ01  00002PRCP99
0269489200999992000011412004+08650+111920FM-12+000399999V0200201N00701012001CN0200001N1+02651+02451100511ADDAA124000091GA1021+008009089GF106991061081008001999999KA1120M+02821MA1999999100511MD1210121+0001SA1+2759UA1M990109999REMSYN122    AAXX  14121 48920 32598 60207 10265 20245 30051 40051 52012 868// 222// 00275 20302 333 10282 58000 70000 82895 85696;EQDQ01  00002PRCP24
0205489200999992000011415004+08650+111920FM-12+000399999V0200201N00601012001CN0200001N1+02611+02481100611ADDAA199000091GA1021+008009089GF106991061081008001999999MA1999999100611MD1110101+0001REMSYN092    AAXX  14151 48920 32598 60206 10261 20248 30061 40061 51010 868// 333 58000 82895 85696;EQDQ01  00002PRCP99
0205489200999992000011418004+08650+111920FM-12+000399999V0200201N00501012001CN0200001N1+02631+02471100531ADDAA199000091GA1021+008009089GF106991061081008001999999MA1999999100531MD1810081-0081REMSYN092    AAXX  14181 48920 32598 60205 10263 20247 30053 40053 58008 868// 333 59008 82895 85696;EQDQ01  00002PRCP99
0278489200999992000011500004+08650+111920FM-12+000399999V0200201N00601220001CN0200001N1+02631+02421100751ADDAA112000191AY181061AY221061GA1021+008009089GF105991021021008001001081KA1120N+02521MA1999999100751MD1210221+0041MW1021SA1+2759UA1M990059999REMSYN128    AAXX  15001 48920 11598 50206 10263 20242 30075 40075 52022 69922 70282 82208 222// 00275 20201 333 20252 58004 82895 85299;
0205489200999992000011503004+08650+111920FM-12+000399999V0200201N00501220001CN0200001N1+02751+02541100861ADDAA199000091GA1021+008009089GF105991021021008001001081MA1999999100861MD1210111+0111REMSYN092    AAXX  15031 48920 32598 50205 10275 20254 30086 40086 52011 82208 333 58011 82895 86299;EQDQ01  00002PRCP99
0244489200999992000011506004+08650+111920FM-12+000399999V0200201N00601220001CN0200001N1+02821+02491100551ADDAA199000091GA1021+008009089GF105991021011008001001081MA1999999100551MD1710311-0061SA1+2839UA1M990109999REMSYN110    AAXX  15061 48920 32598 50206 10282 20249 30055 40055 57031 82108 222// 00283 20302 333 59006 82895 85299;EQDQ01  00002PRCP99
0205489200999992000011509004+08650+111920FM-12+000399999V0200201N00601220001CN0200001N1+02751+02521100411ADDAA199000091GA1021+008009089GF105991021021008001001081MA1999999100411MD1610141+0021REMSYN092    AAXX  15091 48920 32598 50206 10275 20252 30041 40041 56014 82208 333 58002 82895 85299;EQDQ01  00002PRCP99
0232489200999992000011512004+08650+111920FM-12+000399999V0200201N006012200019N0200001N1+02701+99999999999ADDAA199000091GA1011+008009089GF104991999999008001999999KA1120M+02851MD1999999+0091REMSYN121    AAXX  15121 48920 32598 40206 10270 2025 30060 40060 52019 81108 222// 00278 20302 333 10285 58009 70002 81895 84299;EQDQ01  00002PRCP99
0205489200999992000011515004+08650+111920FM-12+000399999V0200201N00601105001CN0200001N1+02691+02581100691ADDAA199000091GA1021+008009089GF106991031021008001001081MA1999999100691MD1210091+0081REMSYN092    AAXX  15151 48920 32598 60206 10269 20258 30069 40069 52009 83208 333 58008 82895 85299;EQDQ01  00002PRCP99
0205489200999992000011518004+08650+111920FM-12+000399999V0200201N00701105001CN0200001N1+02651+02561100611ADDAA199000091GA1031+008009089GF106991031021008001001081MA1999999100611MD1710081+0081REMSYN092    AAXX  15181 48920 32598 60207 10265 20256 30061 40061 57008 83208 333 58008 83895 86299;EQDQ01  00002PRCP99
0205489200999992000011521004+08650+111920FM-12+000399999V0200201N007019999999N0200001N1+02611+02541100601ADDAA199000091GA1031+008009089GF105991021021008001001001MA1999999100601MD1610011-0011REMSYN092    AAXX  15211 48920 32598 50207 10261 20254 30060 40060 56001 82200 333 59001 83895 85299;EQDQ01  00002PRCP99
0263489200999992000011600004+08650+111920FM-12+000399999V0200201N00601105001CN0200001N1+02611+02451100891ADDAA199000091GA1041+008009089GF106991041021008001001081KA1120N+02601MA1999999100891MD1210291+0141SA1+2759UA1M990159999REMSYN116    AAXX  16001 48920 32598 60206 10261 20245 30089 40089 52029 84208 222// 00275 20203 333 20260 58014 84895 86299;EQDQ01  00002PRCP99
0205489200999992000011603004+08650+111920FM-12+000399999V0200201N00701105001CN0200001N1+02771+02451100961ADDAA199000091GA1021+008009089GF106991021021008001001081MA1999999100961MD1010071+0101REMSYN092    AAXX  16031 48920 32598 60207 10277 20245 30096 40096 50007 82208 333 58010 82895 86299;EQDQ01  00002PRCP99
0244489200999992000011606004+08650+111920FM-12+000399999V0200201N00601220001CN0200001N1+02821+02541100671ADDAA199000091GA1021+008009089GF105991021021008001001081MA1999999100671MD1710291+0121SA1+2899UA1M990059999REMSYN110    AAXX  16061 48920 32598 50206 10282 20254 30067 40067 57029 82208 222// 00289 20201 333 58012 82895 85299;EQDQ01  00002PRCP99
0205489200999992000011609004+08650+111920FM-12+000399999V0200201N00601105001CN0200001N1+02801+02541100591ADDAA199000091GA1021+008009089GF106991021021008001001081MA1999999100591MD1610081+0181REMSYN092    AAXX  16091 48920 32598 60206 10280 20254 30059 40059 56008 82208 333 58018 82895 86299;EQDQ01  00002PRCP99
0269489200999992000011612004+08650+111920FM-12+000399999V0200501N007012200019N0200001N1+02701+02521100751ADDAA124000091GA1021+008009089GF104991021021008001001081KA1120M+02831MA1999999100751MD1210161+0151SA1+2809UA1M990109999REMSYN122    AAXX  16121 48920 32598 40507 10270 20252 30075 40075 52016 82208 222// 00280 20302 333 10283 58015 70000 82895 84299;EQDQ01  00002PRCP24
0205489200999992000011615004+08650+111920FM-12+000399999V0200501N00701105001CN0200001N1+02701+02501100791ADDAA199000091GA1021+008009089GF106991031021008001001081MA1999999100791MD1010041+0101REMSYN092    AAXX  16151 48920 32598 60507 10270 20250 30079 40079 50004 83208 333 58010 82895 85299;EQDQ01  00002PRCP99
0227489200999992000011618004+08650+111920FM-12+000399999V0200201N00601007501CN0200001N1+02651+02491100681ADDAA199000091GA1011+008009099GA2041+008009089GF107991051091008001001081MA1999999100681MD1810111+0071REMSYN098    AAXX  16181 48920 32598 70206 10265 20249 30068 40068 58011 85908 333 58007 84895 81995 87299;EQDQ01  00002PRCP99
0205489200999992000011621004+08650+111920FM-12+000399999V0200201N00601105001CN0200001N1+02631+02441100631ADDAA199000091GA1011+008009089GF106991011011008001001081MA1999999100631MD1510051+0031REMSYN092    AAXX  16211 48920 32598 60206 10263 20244 30063 40063 55005 81108 333 58003 81895 86299;EQDQ01  00002PRCP99
0263489200999992000011700004+08650+111920FM-12+000399999V0200201N00501105001CN0200001N1+02651+02461100891ADDAA199000091GA1011+008009089GF106991011021008001001081KA1120N+02621MA1999999100891MD1210261+0001SA1+2769UA1M990059999REMSYN116    AAXX  17001 48920 32598 60205 10265 20246 30089 40089 52026 81208 222// 00276 20201 333 20262 58000 81895 86299;EQDQ01  00002PRCP99
0205489200999992000011703004+08650+111920FM-12+000399999V0200201N00501105001CN0200001N1+02731+02461100971ADDAA199000091GA1021+008009089GF106991021021008001001081MA1999999100971MD1010081+0011REMSYN092    AAXX  17031 48920 32598 60205 10273 20246 30097 40097 50008 82208 333 58001 82895 86299;EQDQ01  00002PRCP99
0266489200999992000011706004+08650+111920FM-12+000399999V0200201N00601105001CN0200001N1+02781+02501100731ADDAA199000091GA1011+008009099GA2021+008009089GF107991031091008001001081MA1999999100731MD1710241+0061SA1+2839UA1M990109999REMSYN116    AAXX  17061 48920 32598 70206 10278 20250 30073 40073 57024 83908 222// 00283 20302 333 58006 82895 81995 87299;EQDQ01  00002PRCP99
0225489200999992000011709004+08650+111920FM-12+000399999V0200201N00701105001CN0200001N1+02671+02491100601ADDAY181031AY221031GA1021+008009099GA2021+008009089GF106991041091008001001081MA1999999100601MD1610131+0011MW1031REMSYN104    AAXX  17091 48920 41598 60207 10267 20249 30060 40060 56013 70382 84908 333 58001 82895 82995 86299;
0284489200999992000011712004+08650+111920FM-12+000399999V0200201N00901220001CN0200001N1+02621+02451100711ADDAA112000891AY181061AY221061GA1021+008009089GF105991021021008001001081KA1120M+02821MA1999999100711MD1210111-0041MW1031SA1+2809UA1M990109999REMSYN134    AAXX  17121 48920 11598 50209 10262 20245 30071 40071 52011 69972 70382 82208 222// 00280 20302 333 10282 59004 70007 82895 84299;
0205489200999992000011715004+08650+111920FM-12+000399999V0200201N008012200019N0200001N1+02621+02431100891ADDAA199000091GA1021+008009089GF104991021021008001001081MA1999999100891MD1210181+0101REMSYN092    AAXX  17151 48920 32598 40208 10262 20243 30089 40089 52018 82208 333 58010 82895 84299;EQDQ01  00002PRCP99
0205489200999992000011718004+08650+111920FM-12+000399999V0200201N008012200019N0200001N1+02601+02411100771ADDAA199000091GA1021+008009089GF104991041091008001001011MA1999999100771MD1810121+0021REMSYN092    AAXX  17181 48920 32598 40208 10260 20241 30077 40077 58012 84901 333 58002 82895 82995;EQDQ01  00002PRCP99
0205489200999992000011721004+08650+111920FM-12+000399999V0200201N00701105001CN0200001N1+02631+02441100711ADDAA199000091GA1031+008009089GF106991031021008001001081MA1999999100711MD1510061+0081REMSYN092    AAXX  17211 48920 32598 60207 10263 20244 30071 40071 55006 83208 333 58008 83895 86299;EQDQ01  00002PRCP99
0263489200999992000011800004+08650+111920FM-12+000399999V0200201N01001105001CN0200001N1+02631+02371100951ADDAA199000091GA1021+008009089GF106991021021008001001081KA1120M+02621MA1999999100951MD1210241+0061SA1+2739UA1M990209999REMSYN116    AAXX  18001 48920 32598 60210 10263 20237 30095 40095 52024 82208 222// 00273 20504 333 10262 58006 82895 86299;EQDQ01  00002PRCP99
0205489200999992000011803004+08650+111920FM-12+000399999V0200201N01101105001CN0200001N1+02731+02361101031ADDAA199000091GA1031+008009089GF107991031021008001001081MA1999999101031MD1010081+0061REMSYN092    AAXX  18031 48920 32598 70211 10273 20236 30103 40103 50008 83208 333 58006 83895 87299;EQDQ01  00002PRCP99
0244489200999992000011806004+08650+111920FM-12+000399999V0203601N00901105001CN0200001N1+02741+02381100841ADDAA199000091GA1041+008009089GF107991041021008001001081MA1999999100841MD1710191+0111SA1+2809UA1M990159999REMSYN110    AAXX  18061 48920 32598 73609 10274 20238 30084 40084 57019 84208 222// 00280 20403 333 58011 84895 87299;EQDQ01  00002PRCP99
0205489200999992000011809004+08650+111920FM-12+000399999V0203601N00901105001CN0200001N1+02681+02331100791ADDAA199000091GA1031+008009089GF107991031021008001001081MA1999999100791MD1510051+0191REMSYN092    AAXX  18091 48920 32598 73609 10268 20233 30079 40079 55005 83208 333 58019 83895 87299;EQDQ01  00002PRCP99
0269489200999992000011812004+08650+111920FM-12+000399999V0203601N00901105001CN0200001N1+02631+02311100911ADDAA124000091GA1031+008009089GF107991031021008001001081KA1120M+02771MA1999999100911MD1210121+0141SA1+2769UA1M990209999REMSYN122    AAXX  18121 48920 32598 73609 10263 20231 30091 40091 52012 83208 222// 00276 20504 333 10277 58014 70000 83895 86299;EQDQ01  00002PRCP24
0205489200999992000011815004+08650+111920FM-12+000399999V0203601N00901105001CN0200001N1+02651+02401101051ADDAA199000091GA1021+008009089GF107991021021008001001081MA1999999101051MD1210141+0161REMSYN092    AAXX  18151 48920 32598 73609 10265 20240 30105 40105 52014 82208 333 58016 82895 87299;EQDQ01  00002PRCP99
0205489200999992000011818004+08650+111920FM-12+000399999V0203601N00101105001CN0200001N1+02621+02531100971ADDAA199000091GA1011+008009089GF107991041081008001001081MA1999999100971MD1810181+0201REMSYN092    AAXX  18181 48920 32598 73601 10262 20253 30097 40097 58018 84808 333 58020 81895 87299;EQDQ01  00002PRCP99
0263489200999992000011900004+08650+111920FM-12+000399999V0200201N00901012001CN0200001N1+02581+02351101101ADDAA199000091GA1031+008009089GF108991081081008001999999KA1120N+02571MA1999999101101MD1210311+0151SA1+2689UA1M990159999REMSYN116    AAXX  19001 48920 32598 80209 10258 20235 30110 40110 52031 888// 222// 00268 20403 333 20257 58015 83895 88696;EQDQ01  00002PRCP99
0205489200999992000011903004+08650+111920FM-12+000399999V0200201N00901012001CN0200001N1+02461+02111101131ADDAA199000091GA1041+008009089GF108991081081008001999999MA1999999101131MD1110041+0101REMSYN092    AAXX  19031 48920 32598 80209 10246 20211 30113 40113 51004 888// 333 58010 84895 88696;EQDQ01  00002PRCP99
0270489200999992000011906004+08650+111920FM-12+000399999V0200201N01001012501CN0200001N1+02511+02211100911ADDAA199000091GA1031+008009089GA2081+012509069GF108991081081008001999999MA1999999100911MD1710221+0071SA1+2659UA1M990159999REMSYN120    AAXX  19061 48920 32598 80210 10251 20221 30091 40091 57022 888// 222// 00265 20403 333 58007 83895 88696 555 20250;EQDQ01  00002PRCP99
0205489200999992000011909004+08650+111920FM-12+000399999V0200201N01101012001CN0200001N1+02501+02251100751ADDAA199000091GA1031+008009089GF108991081081008001999999MA1999999100751MD1610161-0041REMSYN092    AAXX  19091 48920 32598 80211 10250 20225 30075 40075 56016 888// 333 59004 83895 88696;EQDQ01  00002PRCP99
0307489200999992000011912004+08650+111920FM-12+000399999V0200201N01401012501CN0200001N1+02501+02301100691ADDAA124000091GA1031+008009089GA2081+012509069GF108991081081008001999999KA1120M+02591MA1999999100691MD1610061-0221SA1+2659UA1M990359999REMSYN144    AAXX  19121 48920 32598 80214 10250 20230 30069 40069 56006 888// 222// 00265 20807 333 10259 59022 70000 83895 88696 91120 91502 555 20248;EQDQ01  00002PRCP24
0245489200999992000011915004+08650+111920FM-12+000399999V0200201N99999012501CN0200001N1+02501+02221100791ADDAA199000091GA1041+008009089GA2081+012509069GF108991081081008001999999MA1999999100791MD1210101-0261REMSYN100AAXX  19151 48920 32598 85213 10250 20222 30079 40079 52010 888// 333 59026 84895 88696 91119 91502;EQDQ01+011301WOSPD Q02  00002PRCP99
0229489200999992000011918004+08650+111920FM-12+000399999V0200201N01201012501CN0200001N1+02481+02341100841ADDAA199000091GA1031+008009089GA2061+012509069GF106991061081008001999999MA1999999100841MD1210051-0131REMSYN100AAXX  19181 48920 32598 60212 10248 20234 30084 40084 52005 868// 333 59013 83895 86696 91119 91502;EQDQ01  00002PRCP99
0201489200999992000011921004+08650+111920FM-12+000399999V0200201N01301105001CN0200001N1+02521+02131100791ADDAA199000091GA1021+008009089GF107991021011008001001081MA1999999100791MD1510051+0001REMSYN088AAXX  19211 48920 32598 70213 10252 20213 30079 40079 55005 82108 333 58000 82895 87299;EQDQ01  00002PRCP99
0287489200999992000012000004+08650+111920FM-12+000399999V0200201N01301999999CN0200001N1+02521+02131101011ADDAA199000091GA1011+008009089GA2071+025009029GF107991021081008001001081KA1120N+02481MA1999999101011MD1210221-0081SA1+2629UA1M990359999REMSYN124AAXX  20001 48920 32598 70213 10252 20213 30101 40101 52022 82808 222// 00262 20807 333 20248 59008 81895 87299 91118 91502;EQDQ01  00002PRCP99
0229489200999992000012003004+08650+111920FM-12+000399999V0200201N01201999999CN0200001N1+02601+02181101091ADDAA199000091GA1021+012509069GA2071+025009029GF107991021051008001001081MA1999999101091MD1010081-0041REMSYN100AAXX  20031 48920 32598 70212 10260 20218 30109 40109 50008 82508 333 59004 82696 87299 91118 91502;EQDQ01  00002PRCP99
0290489200999992000012006004+08650+111920FM-12+000399999V0200201N01201012501CN0200001N1+02591+02201100911ADDAA199000091GA1021+008009089GA2051+012509069GA3071+025009029GF107991051081008001001081MA1999999100911MD1710181+0001SA1+2659UA1M990309999REMSYN124AAXX  20061 48920 32598 70212 10259 20220 30091 40091 57018 85808 222// 00265 20706 333 58000 82895 85696 87299 91117 91502;EQDQ01  00002PRCP99
0245489200999992000012009004+08650+111920FM-12+000399999V0200201N99999012501CN0200001N1+02571+02121100711ADDAA199000091GA1031+008009089GA2071+012509069GF107991071081008001999999MA1999999100711MD1710201-0041REMSYN100AAXX  20091 48920 32598 75212 10257 20212 30071 40071 57020 878// 333 59004 83895 87696 91117 91502;EQDQ01+011201WOSPD Q02  00002PRCP99
0254489200999992000012012004+08650+111920FM-12+000399999V0200201N01201999999CN0200001N1+02531+02111100931ADDAA124000091GA1031+008009089GA2041+025009039GF105991031021008001041999KA1120M+02621MA1999999100931MD1210221+0241REMSYN112AAXX  20121 48920 32598 50212 10253 20211 30093 40093 52022 8324/ 333 10262 58024 70000 83895 84399 91117 91502;EQDQ01  00002PRCP24
0229489200999992000012015004+08650+111920FM-12+000399999V0200201N01101999999CN0200001N1+02521+02171101031ADDAA199000091GA1011+012509069GA2061+025009029GF106991011051012501001081MA1999999101031MD1110101+0241REMSYN100AAXX  20151 48920 32698 60211 10252 20217 30103 40103 51010 81508 333 58024 81696 86299 91116 91502;EQDQ01  00002PRCP99
0229489200999992000012018004+08650+111920FM-12+000399999V0200201N01101012501CN0200001N1+02501+02171100961ADDAA199000091GA1041+008009089GA2071+012509069GF108991081081008001999999MA1999999100961MD1810071+0121REMSYN100AAXX  20181 48920 32598 80211 10250 20217 30096 40096 58007 888// 333 58012 84895 87696 91116 91502;EQDQ01  00002PRCP99
0229489200999992000012021004+08650+111920FM-12+000399999V0200201N01201999999CN0200001N1+02501+02191100911ADDAA199000091GA1041+008009089GA2071+025009029GF107991041021008001001081MA1999999100911MD1710051+0121REMSYN100AAXX  20211 48920 32598 70212 10250 20219 30091 40091 57005 84208 333 58012 84895 87299 91116 91505;EQDQ01  00002PRCP99
0287489200999992000012100004+08650+111920FM-12+000399999V0203601N00901999999CN0200001N1+02451+02211101091ADDAA199000091GA1031+008009089GA2061+025009029GF106991031021008001001081KA1120N+02401MA1999999101091MD1210181+0081SA1+2659UA1M990159999REMSYN124AAXX  21001 48920 32598 63609 10245 20221 30109 40109 52018 83208 222// 00265 20403 333 20240 58008 83895 86299 91117 91536;EQDQ01  00002PRCP99
0201489200999992000012103004+08650+111920FM-12+000399999V0203601N01101012001CN0200001N1+02531+02221101201ADDAA199000091GA1031+008009089GF107991071081008001999999MA1999999101201MD1110111+0111REMSYN088AAXX  21031 48920 32598 73611 10253 20222 30120 40120 51011 878// 333 58011 83895 87696;EQDQ01  00002PRCP99
0283489200999992000012106004+08650+111920FM-12+000399999V0203601N01001012501CN0200001N1+02501+02241101001ADDAA106000191AY161061AY221061GA1031+008009089GA2081+012509069GF108991081081008001999999MA1999999101001MD1610201+0091MW1021SA1+2679UA1M990159999REMSYN130AAXX  21061 48920 11598 83610 10250 20224 30100 40100 56020 69921 70262 888// 222// 00267 20403 333 58009 83895 88696 91116 91536;
0199489200999992000012109004+08650+111920FM-12+000399999V0200201N00801012001CN0200001N1+02501+02241100811ADDAY181031AY221031GA1031+008009089GF107991071081008001999999MA1999999100811MD1710191+0101MW1021REMSYN094AAXX  21091 48920 41598 70208 10250 20224 30081 40081 57019 70282 878// 333 58010 83895 87696;
0308489200999992000012112004+08650+111920FM-12+000399999V0200201N00801999999CN0200001N1+02511+02361100981ADDAA112001091AY181061AY221061GA1021+008009089GA2061+025009029GF106991021021008001001081KA1120M+02601MA1999999100981MD1210171+0051MW1031SA1+2049UA1M990209999REMSYN142AAXX  21121 48920 11598 60208 10251 20236 30098 40098 52017 60012 70382 82208 222// 00204 20504 333 10260 58005 70014 82895 86299 91117 91502;
0178489200999992000012115004+08650+111920FM-12+000399999V0203601N008012200019N0200001N1+02511+02391101011ADDAA199000091GF104991999999999999999999MA1999999101011MD1999999-0021REMSYN081AAXX  21151 48920 32998 43608 10251 20239 30101 40101 5100 84200 333 59002 84895;EQDQ01  00002PRCP99
0201489200999992000012118004+08650+111920FM-12+000399999V0200201N00701220001CN0200001N1+02511+02391100911ADDAA199000091GA1021+008009089GF105991021011008001001081MA1999999100911MD1710101-0051REMSYN088AAXX  21181 48920 32598 50207 10251 20239 30091 40091 57010 82108 333 59005 82895 85299;EQDQ01  00002PRCP99
0274489200999992000012200004+08650+111920FM-12+000399999V0200201N00701105001CN0200001N1+02441+02301100991ADDAA112002091AY181061AY221061GA1031+008009089GF106991031021008001001081KA1120N+02401MA1999999100991MD1210141-0101MW1031SA1+2559UA1M990109999REMSYN124AAXX  22001 48920 11598 60207 10244 20230 30099 40099 52014 60022 70382 83208 222// 00255 20302 333 20240 59010 83895 86299;
0201489200999992000012203004+08650+111920FM-12+000399999V0200201N00401220001CN0200001N1+02631+02481100991ADDAA199000091GA1021+008009089GF105991021021008001001081MA1999999100991MD1010001+0001REMSYN088AAXX  22031 48920 32598 50204 10263 20248 30099 40099 50000 82208 333 58000 82895 85299;EQDQ01  00002PRCP99
0240489200999992000012206004+08650+111920FM-12+000399999V0203601N00401105001CN0200001N1+02671+02431100771ADDAA199000091GA1021+008009089GF106991021021008001001081MA1999999100771MD1710221-0231SA1+2659UA1M990059999REMSYN106AAXX  22061 48920 32598 63604 10267 20243 30077 40077 57022 82208 222// 00265 20201 333 59023 82895 86299;EQDQ01  00002PRCP99
0201489200999992000012209004+08650+111920FM-12+000399999V0200201N00401105001CN0200001N1+02631+02441100691ADDAA199000091GA1031+008009089GF106991031021008001001081MA1999999100691MD1710081-0121REMSYN088AAXX  22091 48920 32598 60204 10263 20244 30069 40069 57008 83208 333 59012 83895 86299;EQDQ01  00002PRCP99
0246489200999992000012212004+08650+111920FM-12+000399999V0200201N00501220001CN0200001N1+02521+02451100791ADDAA124002091GA1021+008009089GF105991021021008001001081KA1120M+02681MA1999999100791MD1210101-0201SA1+2609UA1M990059999REMSYN118AAXX  22121 48920 32598 50205 10252 20245 30079 40079 52010 82208 222// 00260 20201 333 10268 59020 70021 82895 85299;
0201489200999992000012215004+08650+111920FM-12+000399999V0200201N007019999999N0200001N1+02521+02441100801ADDAA199000091GA1041+008009089GF107991041071008001999999MA1999999100801MD1210011-0211REMSYN088AAXX  22151 48920 32598 70207 10252 20244 30080 40080 52001 847// 333 59021 84895 87696;EQDQ01  00002PRCP99
0201489200999992000012218004+08650+111920FM-12+000399999V0200501N00501012001CN0200001N1+02501+02311100681ADDAA199000091GA1021+008009089GF106991061081008001999999MA1999999100681MD1810121-0231REMSYN088AAXX  22181 48920 32598 60505 10250 20231 30068 40068 58012 868// 333 59023 82895 86696;EQDQ01  00002PRCP99
0201489200999992000012221004+08650+111920FM-12+000399999V0200501N00501012001CN0200001N1+02491+02341100511ADDAA199000091GA1031+008009089GF107991071081008001999999MA1999999100511MD1610171-0341REMSYN088AAXX  22211 48920 32598 70505 10249 20234 30051 40051 56017 878// 333 59034 83895 87696;EQDQ01  00002PRCP99
0259489200999992000012300004+08650+111920FM-12+000399999V0200701N00401105001CN0200001N1+02531+02321100771ADDAA199000091GA1031+008009089GF107991031021008001001081KA1120N+02451MA1999999100771MD1210261-0221SA1+2569UA1M990109999REMSYN112AAXX  23001 48920 32598 70704 10253 20232 30077 40077 52026 83208 222// 00256 20302 333 20245 59022 83895 87299;EQDQ01  00002PRCP99
0194489200999992000012303004+08650+111920FM-12+000399999V0200701N004012200019N0200001N1+02741+02441100891ADDAA199000091GA1011+008009029GF101991011011008001001001MA1999999100891MD1110121-0101REMSYN081AAXX  23031 48920 32598 10704 10274 2024430089 40089 51012 81100 333 59010 81895;EQDQ01  00002PRCP99
0234489200999992000012306004+08650+111920FM-12+000399999V0200501N004012200019N0200001N1+02751+02421100651ADDAA199000091GA1011+008009029GF102991011011008001001011MA1999999100651MD1710241-0121SA1+2679UA1M990059999REMSYN100AAXX  23061 48920 32598 20504 10275 20242 30065 40065 57024 81101 222// 00267 20201 333 59012 81895;EQDQ01  00002PRCP99
0195489200999992000012309004+08650+111920FM-12+000399999V0200501N003012200019N0200001N1+02701+02431100591ADDAA199000091GA1021+008009029GF102991021021008001001011MA1999999100591MD1610061-0101REMSYN082AAXX  23091 48920 32598 20503 10270 20243 30059 40059 56006 82201 333 59010 82895;EQDQ01  00002PRCP99
0259489200999992000012312004+08650+111920FM-12+000399999V0200501N004012200019N0200001N1+02541+02411100731ADDAA124000091GA1011+008009029GF102991011011008001001011KA1120M+02791MA1999999100731MD1210141-0061SA1+2639UA1M990059999REMSYN112AAXX  23121 48920 32598 20504 10254 20241 30073 40073 52014 81101 222// 00263 20201 333 10279 59006 70000 81895;EQDQ01  00002PRCP24
0201489200999992000012315004+08650+111920FM-12+000399999V0200501N00501105001CN0200001N1+02521+02401100851ADDAA199000091GA1021+008009089GF107991021021008001001081MA1999999100851MD1110121+0051REMSYN088AAXX  23151 48920 32598 70505 10252 20240 30085 40085 51012 82208 333 58005 82895 84299;EQDQ01  00002PRCP99
0201489200999992000012318004+08650+111920FM-12+000399999V0200501N006012200019N0200001N1+02511+02401100711ADDAA199000091GA1011+008009089GF103991011011008001001081MA1999999100711MD1810141+0031REMSYN088AAXX  23181 48920 32598 30506 10251 20240 30071 40071 58014 81108 333 58003 81895 83299;EQDQ01  00002PRCP99
0201489200999992000012321004+08650+111920FM-12+000399999V0200501N00901220001CN0200001N1+02461+02311100771ADDAA199000091GA1011+008009089GF105991011011008001001081MA1999999100771MD1310061+0261REMSYN088AAXX  23211 48920 32598 50509 10246 20231 30077 40077 53006 81108 333 58026 81895 85299;EQDQ01  00002PRCP99
0259489200999992000012400004+08650+111920FM-12+000399999V0200501N00501105001CN0200001N1+02541+02411100831ADDAA199000091GA1021+008009089GF106991021021008001001081KA1120N+02441MA1999999100831MD1210161+0061SA1+2619UA1M990109999REMSYN112AAXX  24001 48920 32598 60505 10254 20241 30083 40083 52016 82208 222// 00261 20302 333 20244 58006 82895 86299;EQDQ01  00002PRCP99
0201489200999992000012403004+08650+111920FM-12+000399999V0200501N00501220001CN0200001N1+02731+02491100991ADDAA199000091GA1011+008009089GF106991041081008001001011MA1999999100991MD1110161+0101REMSYN088AAXX  24031 48920 32598 60505 10273 20249 30099 40099 51016 84801 333 58010 81895 84696;EQDQ01  00002PRCP99
0240489200999992000012406004+08650+111920FM-12+000399999V0200501N00501105001CN0200001N1+02781+02401100801ADDAA199000091GA1021+008009089GF106991021021008001001081MA1999999100801MD1710191+0151SA1+2679UA1M990109999REMSYN106AAXX  24061 48920 32598 60505 10278 20240 30080 40080 57019 82208 222// 00267 20302 333 58015 82895 86299;EQDQ01  00002PRCP99
0201489200999992000012409004+08650+111920FM-12+000399999V0200501N00601105001CN0200001N1+02661+02401100711ADDAA199000091GA1021+008009089GF106991021021008001001081MA1999999100711MD1610091+0121REMSYN088AAXX  24091 48920 32598 60506 10266 20240 30071 40071 56009 82208 333 58012 82895 86299;EQDQ01  00002PRCP99
0265489200999992000012412004+08650+111920FM-12+000399999V0200501N00701105001CN0200001N1+02541+02341100911ADDAA124000091GA1021+008009089GF106991021021008001001081KA1120M+02831MA1999999100911MD1210201+0181SA1+2639UA1M990159999REMSYN118AAXX  24121 48920 32598 60507 10254 20234 30091 40091 52020 82208 222// 00263 20403 333 10283 58018 70000 82895 86299;EQDQ01  00002PRCP24
0201489200999992000012415004+08650+111920FM-12+000399999V0200501N00601220001CN0200001N1+02531+02371101011ADDAA199000091GA1011+008009089GF105991011021008001001081MA1999999101011MD1110101+0161REMSYN088AAXX  24151 48920 32598 50506 10253 20237 30101 40101 51010 81208 333 58016 81895 85299;EQDQ01  00002PRCP99
0195489200999992000012418004+08650+111920FM-12+000399999V0200501N008019999999N0200001N1+02521+02331100831ADDAA199000091GA1051+999999089GF105991001001999999001081MA1999999100831MD1710181+0121REMSYN082AAXX  24181 48920 32998 50508 10252 20233 30083 40083 57018 80008 333 58012 85299;EQDQ01  00002PRCP99
0201489200999992000012421004+08650+111920FM-12+000399999V0200501N00801105001CN0200001N1+02511+02341100771ADDAA199000091GA1041+008009089GF106991041021008001001081MA1999999100771MD1610061+0101REMSYN088AAXX  24211 48920 32598 60508 10251 20234 30077 40077 56006 84208 333 58010 84895 86299;EQDQ01  00002PRCP99
0259489200999992000012500004+08650+111920FM-12+000399999V0200501N00701105001CN0200001N1+02541+02351101001ADDAA199000091GA1031+008009089GF106991031021008001001081KA1120N+02481MA1999999101001MD1210231+0171SA1+1629UA1M990109999REMSYN112AAXX  25001 48920 32598 60507 10254 20235 30100 40100 52023 83208 222// 00162 20302 333 20248 58017 83895 86299;EQDQ01  00002PRCP99
0195489200999992000012503004+08650+111920FM-12+000399999V0200501N009012200019N0200001N1+02721+02391101081ADDAA199000091GA1031+008009029GF105991031021008001001011MA1999999101081MD1110071+0091REMSYN082AAXX  25031 48920 32598 50509 10272 20239 30108 40108 51007 83201 333 58009 83895;EQDQ01  00002PRCP99
0240489200999992000012506004+08650+111920FM-12+000399999V0200501N00801220001CN0200001N1+02721+02341100801ADDAA199000091GA1011+008009089GF105991011011008001001081MA1999999100801MD1710281+0001SA1+2679UA1M990109999REMSYN106AAXX  25061 48920 32598 50508 10272 20234 30080 40080 57028 81108 222// 00267 20302 333 58000 81895 85299;EQDQ01  00002PRCP99
0201489200999992000012509004+08650+111920FM-12+000399999V0200201N00801105001CN0200001N1+02621+02531100691ADDAA199000091GA1041+008009089GF106991041011008001001081MA1999999100691MD1710111-0021REMSYN088AAXX  25091 48920 32598 60208 10262 20253 30069 40069 57011 84108 333 59002 84895 86299;EQDQ01  00002PRCP99
0265489200999992000012512004+08650+111920FM-12+000399999V0200201N00801220001CN0200001N1+02521+02341100931ADDAA124000091GA1021+008009089GF105991021011008001001081KA1120M+02751MA1999999100931MD1210241+0021SA1+2629UA1M990159999REMSYN118AAXX  25121 48920 32598 50208 10252 20234 30093 40093 52024 82108 222// 00262 20403 333 10275 58002 70000 82895 85299;EQDQ01  00002PRCP24
0201489200999992000012515004+08650+111920FM-12+000399999V0200201N00901008001CN0200001N1+02501+02221101011ADDAA199000091GA1051+008009089GF106991061091008001999999MA1999999101011MD1110081+0001REMSYN088AAXX  25151 48920 32598 60209 10250 20222 30101 40101 51008 869// 333 58000 85895 82995;EQDQ01  00002PRCP99
0216489200999992000012518004+08650+111920FM-12+000399999V0200501N00501008001CN0100001N1+02381+02261100891ADDAA106005191AY181061AY221061GA1061+008009089GF108991081091008001999999MA1999999100891MD1810121+0061MW1801REMSYN100AAXX  25181 48920 11597 80505 10238 20226 30089 40089 58012 60051 78082 889// 333 58006 86895 82995;
0199489200999992000012521004+08650+111920FM-12+000399999V0200201N01201105001CN0200001N1+02511+02321100811ADDAY181031AY221031GA1041+008009089GF106991041021008001001081MA1999999100811MD1510081+0041MW1031REMSYN094AAXX  25211 48920 41598 60212 10251 20232 30081 40081 55008 70382 84208 333 58004 84895 85299;
0296489200999992000012600004+08650+111920FM-12+000399999V0200201N00901105001CN0200001N1+02531+02341101011ADDAA112005191AY181061AY221061GA1011+008009099GA2031+008009089GF107991041031008001001081KA1120N+02301MA1999999101011MD1210201+0011MW1031SA1+2629UA1M990159999REMSYN130AAXX  26001 48920 11598 70209 10253 20234 30101 40101 52020 60052 70382 84308 222// 00262 20403 333 20230 58001 83895 81995 87299;
0204489200999992000012603004+08650+111920FM-12+000399999V0200201N00801105001CN0200001N1+02641+02351101091ADDAA199000021GA1011+008009099GA2031+008009089GF107991041091008001001081MA1999999101091MD1010081+0011REMSYN094AAXX  26031 48920 32598 70208 10264 20235 30109 40109 50008 84908 333 58001 83895 81995 87299;
0221489200999992000012606004+08650+111920FM-12+000399999V0200201N00701105001CN0200001N1+02631+02341100871ADDAA199000021GA1031+008009089GF106991021021008001001081MA1999999100871MD1710221+0071SA1+2659UA1M990109999REMSYN106AAXX  26061 48920 32598 60207 10263 20234 30087 40087 57022 82208 222// 00265 20302 333 58007 83895 86299;
0201489200999992000012609004+08650+111920FM-12+000399999V0203601N01101105001CN0200001N1+02581+02421100771ADDAA199000091GA1021+008009089GF108991021021008001001081MA1999999100771MD1710441+0081REMSYN088AAXX  26091 48920 32598 83611 10258 20242 30077 40077 57044 82208 333 58008 82895 86299;EQDQ01  00002PRCP99
0274489200999992000012612004+08650+111920FM-12+000399999V0200201N01101999999CN0200001N1+02521+02191100911ADDAA124005391GA1021+008009089GA2061+025009029GF106991021021008001001081KA1120M+02661MA1999999100911MD1210141-0021SA1+2639UA1M990209999REMSYN130AAXX  26121 48920 32598 60211 10252 20219 30091 40091 52014 82208 222// 00263 20504 333 10266 59002 70053 82895 86299 91116 91502;
0229489200999992000012615004+08650+111920FM-12+000399999V0200201N01101999999CN0200001N1+02521+02191101071ADDAA199000091GA1011+008009089GA2051+025009029GF105991011011008001001081MA1999999101071MD1110161+0061REMSYN100AAXX  26151 48920 32598 50211 10252 20219 30107 40107 51016 81108 333 58006 81895 85299 91116 91502;EQDQ01  00002PRCP99
0245489200999992000012618004+08650+111920FM-12+000399999V0200201N99999999999CN0200001N1+02531+02251100841ADDAA199000091GA1021+008009089GA2051+025009029GF105991021021008001001081MA1999999100841MD1810231-0051REMSYN100AAXX  26181 48920 32598 55212 10253 20225 30084 40084 58023 82208 333 59005 82895 85299 91117 91502;EQDQ01+011201WOSPD Q02  00002PRCP99
0229489200999992000012621004+08650+111920FM-12+000399999V0200201N01201999999CN0200001N1+02341+02281100791ADDAA199000091GA1021+008009089GA2071+025009029GF107991021021008001001081MA1999999100791MD1610051-0021REMSYN100AAXX  26211 48920 32598 70212 10234 20228 30079 40079 56005 82208 333 59002 82895 87299 91117 91502;EQDQ01  00002PRCP99
0303489200999992000012700004+08650+111920FM-12+000399999V0200201N99999999999CN0200001N1+02541+02211100911ADDAA199000091GA1031+008009089GA2071+025009029GF107991031021008001001081KA1120N+02521MA1999999100911MD1210121-0101SA1+2629UA1M990159999REMSYN124AAXX  27001 48920 32598 75213 10254 20221 30091 40091 52012 83208 222// 00262 20403 333 20252 59010 83895 87299 91117 91502;EQDQ01+011301WOSPD Q02  00002PRCP99
0245489200999992000012703004+08650+111920FM-12+000399999V0200201N99999999999CN0200001N1+02671+02241100951ADDAA199000091GA1021+008009089GA2061+025009029GF106991021021008001001081MA1999999100951MD1110041-0141REMSYN100AAXX  27031 48920 32598 65212 10267 20224 30095 40095 51004 82208 333 59014 82895 86299 91117 91502;EQDQ01+011201WOSPD Q02  00002PRCP99
0284489200999992000012706004+08650+111920FM-12+000399999V0200201N99999999999CN0200001N1+02651+02191100751ADDAA199000091GA1021+008009089GA2061+025009029GF106991021011008001001081MA1999999100751MD1710201-0121SA1+2709UA1M990159999REMSYN118AAXX  27061 48920 32598 65212 10265 20219 30075 40075 57020 82108 222// 00270 20403 333 59012 82895 86299 91117 91502;EQDQ01+011201WOSPD Q02  00002PRCP99
0229489200999992000012709004+08650+111920FM-12+000399999V0200201N01201999999CN0200001N1+02601+02231100711ADDAA199000091GA1021+008009089GA2061+025009029GF106991031011008001001081MA1999999100711MD1610041-0061REMSYN100AAXX  27091 48920 32598 60212 10260 20223 30071 40071 56004 83108 333 59006 82895 86299 91116 91502;EQDQ01  00002PRCP99
0309489200999992000012712004+08650+111920FM-12+000399999V0200201N99999999999CN0200001N1+02531+02251100871ADDAA124000091GA1021+008009089GA2061+025009029GF106991021011008001001081KA1120M+02701MA1999999100871MD1210161-0041SA1+2659UA1M990259999REMSYN130AAXX  27121 48920 32598 65212 10253 20225 30087 40087 52016 82108 222// 00265 20605 333 10270 59004 70000 82895 86299 91117 91502;EQDQ01+011201WOSPD Q02  00002PRCP24
0245489200999992000012715004+08650+111920FM-12+000399999V0200201N99999999999CN0200001N1+02501+02251100971ADDAA199000091GA1021+008009089GA2061+025009029GF106991021011008001001081MA1999999100971MD1010101-0101REMSYN100AAXX  27151 48920 32598 65212 10250 20225 30097 40097 50010 82108 333 59010 82895 86299 91117 91502;EQDQ01+011201WOSPD Q02  00002PRCP99
0245489200999992000012718004+08650+111920FM-12+000399999V0200201N99999999999CN0200001N1+02501+02301100801ADDAA199000091GA1031+008009089GA2061+025009029GF106991021021008001001081MA1999999100801MD1710171-0041REMSYN100AAXX  27181 48920 32598 65212 10250 20230 30080 40080 57017 82208 333 59004 83895 86299 91118 91502;EQDQ01+011201WOSPD Q02  00002PRCP99
0265489200999992000012800004+08650+111920FM-12+000399999V0200501N010012200019N0200001N1+02801+02311100961ADDAA199000091GA1041+008009089GF104991041021008001001001KA1120N+02521MA1999999100961MD1210171+0051SA1+2639UA1M990209999REMSYN118AAXX  28001 48920 32598 40510 10280 20231 30096 40096 52017 84200 222// 00263 20504 333 20252 58005 84895 91116 91502;EQDQ01  00002PRCP99
0207489200999992000012803004+08650+111920FM-12+000399999V0200201N011012200019N0200001N1+02621+02251101011ADDAA199000091GA1041+008009089GF104991041021008001001001MA1999999101011MD1110221+0061REMSYN094AAXX  28031 48920 32598 40211 10262 20225 30101 40101 51022 84200 333 58006 84895 91119 91502;EQDQ01  00002PRCP99
0240489200999992000012806004+08650+111920FM-12+000399999V0200201N01101105001CN0200001N1+02631+02261100891ADDAA199000091GA1041+008009089GF106991041011008001001081MA1999999100891MD1710121+0141SA1+2679UA1M990209999REMSYN106AAXX  28061 48920 32598 60211 10263 20226 30089 40089 57012 84108 222// 00267 20504 333 58014 84895 83299;EQDQ01  00002PRCP99
0229489200999992000012809004+08650+111920FM-12+000399999V0200201N010012200019N0200001N1+02531+02251100691ADDAA199000091GA1021+008009089GA2031+025009029GF104991021011008001001081MA1999999100691MD1710201-0021REMSYN100AAXX  28091 48920 32598 40210 10253 20225 30069 40069 57020 82108 333 59002 82895 83299 91116 91502;EQDQ01  00002PRCP99
0240489200999992000012812004+08650+111920FM-12+000399999V0200201N010010080019N0200001N1+02461+02241100891ADDAA124000791GA1051+008009029GF105991051021008001001001KA1120M+02641MA1999999100891MD1210201+0021SA1+2609UA1M990209999REMSYN112AAXX  28121 48920 32598 50210 10246 20224 30089 40089 52020 85200 222// 00260 20504 333 10264 58002 79999 85895;
0195489200999992000012815004+08650+111920FM-12+000399999V0200201N009012200019N0200001N1+02471+02301101041ADDAA199000091GA1041+008009029GF104991041021008001001001MA1999999101041MD1010151+0071REMSYN082AAXX  28151 48920 32598 40209 10247 20230 30104 40104 50015 84200 333 58007 84895;EQDQ01  00002PRCP99
0201489200999992000012821004+08650+111920FM-12+000399999V0200501N008012200019N0200001N1+02631+02271100811ADDAA199000091GA1031+008009089GF105991031091008001001011MA1999999100811MD1510081+0021REMSYN088AAXX  28211 48920 32598 50508 10263 20227 30081 40081 55008 83901 333 58002 83895 81995;EQDQ01  00002PRCP99
0269489200999992000012900004+08650+111920FM-12+000399999V0200501N999992200019N0200001N1+02531+02221101001ADDAA199000091GA1021+008009029GF103991021021008001001011KA1120N+02451MA1999999101001MD1210191+0041SA1+2619UA1M990209999REMSYN106AAXX  29001 48920 32598 35511 10253 20222 30100 40100 52019 82201 222// 00261 20504 333 20245 58004 82895;EQDQ01+011101WOSPD Q02  00002PRCP99
0201489200999992000012903004+08650+111920FM-12+000399999V0200201N01201105001CN0200001N1+02631+02281101051ADDAA199000091GA1011+008009089GF106991011011008001001081MA1999999101051MD1110051+0041REMSYN088AAXX  29031 48920 32598 60212 10263 20228 30105 40105 51005 81108 333 58004 81895 86299;EQDQ01  00002PRCP99
0262489200999992000012906004+08650+111920FM-12+000399999V0200201N01001045001CN0200001N1+02611+02251100531ADDAA199000091GA1021+008009089GA2031+025009039GF106991021021008001041081MA1999999100531MD1710221-0061SA1+2689UA1M990209999REMSYN112AAXX  29061 48920 32598 60210 10261 20225 30053 40053 57022 82248 222// 00268 20504 333 59006 82895 83399 85299;EQDQ01  00002PRCP99
0201489200999992000012909004+08650+111920FM-12+000399999V0200201N01101105001CN0200001N1+02561+02351100781ADDAA199000091GA1021+008009089GF106991021021008001001081MA1999999100781MD1510051+0091REMSYN088AAXX  29091 48920 32598 60211 10256 20235 30078 40078 55005 82208 333 58009 82895 85299;EQDQ01  00002PRCP99
0293489200999992000012912004+08650+111920FM-12+000399999V0200201N00101999999CN0200001N1+02511+02261100971ADDAA124000091GA1021+008009089GA2061+025009029GF106991021021008001001081KA1120M+02671MA1999999100971MD1210191+0081SA1+2629UA1M990209999REMSYN130AAXX  29121 48920 32598 60201 10251 20226 30097 40097 52019 82208 222// 00262 20504 333 10267 58008 70000 82895 86299 91116 91502;EQDQ01  00002PRCP24
0201489200999992000012915004+08650+111920FM-12+000399999V0200201N01001220001CN0200001N1+02521+02271101081ADDAA199000091GA1021+008009089GF105991021021008001001081MA1999999101081MD1110111+0041REMSYN088AAXX  29151 48920 32598 50210 10252 20227 30108 40108 51011 82208 333 58004 82895 85299;EQDQ01  00002PRCP99
0201489200999992000012918004+08650+111920FM-12+000399999V0200201N01101105001CN0200001N1+02511+02281100911ADDAA199000091GA1021+008009089GF106991021021008001001081MA1999999100911MD1810171+0021REMSYN088AAXX  29181 48920 32598 60211 10251 20228 30091 40091 58017 82208 333 58002 82895 86299;EQDQ01  00002PRCP99
0229489200999992000012921004+08650+111920FM-12+000399999V0200201N01301012501CN0200001N1+02481+02101100831ADDAA199000091GA1011+008009089GA2061+012509069GF106991061081008001999999MA1999999100831MD1510081+0021REMSYN100AAXX  29211 48920 32598 60213 10248 20210 30083 40083 55008 868// 333 58002 81895 86696 91116 91502;EQDQ01  00002PRCP99
0287489200999992000013000004+08650+111920FM-12+000399999V0200501N01001012501CN0200001N1+02501+02171101071ADDAA199000091GA1021+008009089GA2071+012509069GF107991071081008001999999KA1120N+02451MA1999999101071MD1210241+0071SA1+2629UA1M990209999REMSYN124AAXX  30001 48920 32598 70510 10250 20217 30107 40107 52024 878// 222// 00262 20504 333 20245 58007 82895 87696 91116 91502;EQDQ01  00002PRCP99
0201489200999992000013003004+08650+111920FM-12+000399999V0200501N01001012001CN0200001N1+02641+02221101191ADDAA199000091GA1021+008009089GF106991061081008001999999MA1999999101191MD1010121+0141REMSYN088AAXX  30031 48920 32598 60510 10264 20222 30119 40119 50012 868// 333 58014 82895 86696;EQDQ01  00002PRCP99
0268489200999992000013006004+08650+111920FM-12+000399999V0200201N01101017501CN0200001N1+02501+02171101031ADDAA199000091GA1031+008009089GA2071+017509069GF107991071081008001999999MA1999999101031MD1710161+0201SA1+2659UA1M990259999REMSYN118AAXX  30061 48920 32598 70211 10250 20217 30103 40103 57016 878// 222// 00265 20605 333 58020 83895 87697 91117 91502;EQDQ01  00002PRCP99
0229489200999992000013009004+08650+111920FM-12+000399999V0203601N01001012501CN0200001N1+02531+02191100911ADDAA199000091GA1021+008009089GA2081+012509069GF108991081081008001999999MA1999999100911MD1610121+0141REMSYN100AAXX  30091 48920 32598 83610 10253 20219 30091 40091 56012 888// 333 58014 82895 88696 91116 91502;EQDQ01  00002PRCP99
0337489200999992000013012004+08650+111920FM-12+000399999V0200201N99999012501CN0090001N1+02401+02141101051ADDAA112000791AY181061AY221061GA1041+008009089GA2081+012509069GF108991081081001501999999KA1120M+02641MA1999999101051MD1210141+0081MW1031SA1+2619UA1M990309999REMSYN152AAXX  30121 48920 11259 85213 10240 20214 30105 40105 52014 69902 70382 888// 222// 00261 20706 333 10264 58008 79999 84895 88696 91120 91502 555 20238;EQDQ01+011301WOSPD 
0229489200999992000013015004+08650+111920FM-12+000399999V0200201N01201012501CN0200001N1+02461+02101101171ADDAA199000091GA1031+008009089GA2081+012509069GF108991081081008001999999MA1999999101171MD1010121+0091REMSYN100AAXX  30151 48920 32598 80212 10246 20210 30117 40117 50012 888// 333 58009 83895 88696 91119 91502;EQDQ01  00002PRCP99
0229489200999992000013018004+08650+111920FM-12+000399999V0200201N01001012501CN0200001N1+02451+02101100991ADDAA199000091GA1021+008009089GA2071+012509069GF107991071081008001999999MA1999999100991MD1710181+0081REMSYN100AAXX  30181 48920 32598 70210 10245 20210 30099 40099 57018 878// 333 58008 82895 87696 91119 91502;EQDQ01  00002PRCP99
0223489200999992000013103004+08650+111920FM-12+000399999V0200201N01001999999CN0200001N1+99999+99999101191ADDAA199000091GA1031+008009089GA2071+025009029GF107991031021008001001011MA1999999101191MD1210061+0001REMSYN094AAXX  31031 48920 32598 70210 20224 30119 40119 52006 83201 333 58000 83895 87299 91116 91536;EQDQ01  00002PRCP99
0268489200999992000013106004+08650+111920FM-12+000399999V0200201N01001999999CN0200001N1+02701+02291100931ADDAA199000091GA1041+008009089GA2071+025009029GF107991041021008001001081MA1999999100931MD1710261-0101SA1+2659UA1M990209999REMSYN118AAXX  31061 48920 32598 70210 10270 20229 30093 40093 57026 84208 222// 00265 20504 333 59010 84895 87299 91119 91536;EQDQ01  00002PRCP99
0201489200999992000013109004+08650+111920FM-12+000399999V0200201N01001012001CN0200001N1+02581+02281100801ADDAA199000091GA1031+008009089GF107991071081008001999999MA1999999100801MD1610131-0111REMSYN088AAXX  31091 48920 32598 70210 10258 20228 30080 40080 56013 878// 333 59011 83895 87697;EQDQ01  00002PRCP99
0265489200999992000013112004+08650+111920FM-12+000399999V0200201N00901012001CN0200001N1+02561+02381100971ADDAA124000091GA1031+008009089GF108991081081008001999999KA1120M+02701MA1999999100971MD1210171-0081SA1+2609UA1M990159999REMSYN118AAXX  31121 48920 32598 80209 10256 20238 30097 40097 52017 888// 222// 00260 20403 333 10270 59008 70000 83895 88696;EQDQ01  00002PRCP24
0201489200999992000013115004+08650+111920FM-12+000399999V0200201N01001012001CN0200001N1+02531+02281101081ADDAA199000091GA1031+008009089GF108991081081008001999999MA1999999101081MD1210111-0091REMSYN088AAXX  31151 48920 32598 80210 10253 20228 30108 40108 52011 888// 333 59009 83895 88696;EQDQ01  00002PRCP99
0201489200999992000013118004+08650+111920FM-12+000399999V0203601N00901012001CN0200001N1+02521+02281101001ADDAA199000091GA1021+008009089GF105991051081008001001001MA1999999101001MD1710281+0011REMSYN088AAXX  31181 48920 32598 53609 10252 20228 30100 40100 57028 85800 333 58001 82895 88696;EQDQ01  00002PRCP99
0201489200999992000013121004+08650+111920FM-12+000399999V0203601N00901012001CN0200001N1+02501+02311100891ADDAA199000091GA1021+008009089GF107991071081008001999999MA1999999100891MD1510111-0081REMSYN088AAXX  31211 48920 32598 73609 10250 20231 30089 40089 55011 878// 333 59008 82895 87696;EQDQ01  00002PRCP99
0303489200999992000020100004+08650+111920FM-12+000399999V0200201N01201012501CN0200001N1+02491+02301101041ADDAA199000091GA1011+008009089GA2081+012509069GF199999061081008001999999KA1120N+02461MA1999999101041MD1210151-0031SA1+2599UA1M990309999REMSYN124AAXX  01001 48920 32598 60212 10249 20230 30104 40104 52015 868// 222// 00259 20706 333 20246 59003 81895 88696 91117 91536;EQDQ01+000062SCOTCVQ02  00002PRCP99
0229489200999992000020103004+08650+111920FM-12+000399999V0200201N01001012501CN0200001N1+02661+02321101151ADDAA199000091GA1041+008009089GA2081+012509069GF108991071081008001999999MA1999999101151MD1010111-0041REMSYN100AAXX  01031 48920 32598 80210 10266 20232 30115 40115 50011 878// 333 59004 84895 88696 91116 91502;EQDQ01  00002PRCP99
0283489200999992000020106004+08650+111920FM-12+000399999V0200201N01201012501CN0200001N1+02641+02251100891ADDAA106000191AY181061AY221061GA1021+008009089GA2071+012509069GF108991071081008001999999MA1999999100891MD1710261-0041MW1031SA1+2639UA1M990309999REMSYN130AAXX  01061 48920 11598 80212 10264 20225 30089 40089 57026 69911 70382 878// 222// 00263 20706 333 59004 82895 87696 91119 91502;
0229489200999992000020109004+08650+111920FM-12+000399999V0200201N00901008001CN0200001N1+02601+02341100771ADDAA199000091GA1051+008009089GA2081+012509069GF108991081081008001999999MA1999999100771MD1510121-0031REMSYN100AAXX  01091 48920 32598 80209 10260 20234 30077 40077 55012 888// 333 59003 85895 88696 91116 91502;EQDQ01  00002PRCP99
0343489200999992000020112004+08650+111920FM-12+000399999V0200201N99999012501CN0200001N1+02611+02271100811ADDAA106000791AY161061AY221061GA1031+008009089GA2081+012509069GF108991081081008001999999KA1120M+99999MA1999999100811MD1210041-0161MW1021SA1+2629UA1M990259999REMSYN142AAXX  01121 48920 11598 85211 10261 20227 30081 40081 52004 69901 70262 888// 222// 00262 20605 333 10219 59016 79999 83895 88696 91116 91502;EQDQ01+011101WOSPD Q02 +02192ATMX  
0201489200999992000020115004+08650+111920FM-12+000399999V0200201N01001012001CN0200001N1+02581+02271100971ADDAA199000091GA1021+008009089GF106991061081008001999999MA1999999100971MD1110161-0111REMSYN088AAXX  01151 48920 32598 60210 10258 20227 30097 40097 51016 868// 333 59011 82895 86696;EQDQ01  00002PRCP99
0201489200999992000020118004+08650+111920FM-12+000399999V0200201N01001012001CN0200001N1+02581+02251100891ADDAA199000091GA1041+008009089GF108991081081008001999999MA1999999100891MD1810081-0111REMSYN088AAXX  01181 48920 32598 80210 10258 20225 30089 40089 58008 888// 333 59011 84895 88696;EQDQ01  00002PRCP99
0259489200999992000020200004+08650+111920FM-12+000399999V0203601N00901012001CN0200001N1+02591+02271101001ADDAA199000091GA1031+008009089GF108991081081008001999999KA1120N+02581MA1999999101001MD1210231-0041SA1+2609UA1M990159999REMSYN112AAXX  02001 48920 32598 83609 10259 20227 30100 40100 52023 888// 222// 00260 20403 333 20258 59004 83895 88696;EQDQ01  00002PRCP99
0201489200999992000020203004+08650+111920FM-12+000399999V0203601N01001012001CN0200001N1+02701+02291101111ADDAA199000091GA1021+008009089GF107991071081008001999999MA1999999101111MD1210111-0041REMSYN088AAXX  02031 48920 32598 73610 10270 20229 30111 40111 52011 878// 333 59004 82895 87696;EQDQ01  00002PRCP99
0240489200999992000020206004+08650+111920FM-12+000399999V0203601N01201012001CN0200001N1+02721+02271100801ADDAA199000091GA1021+008009089GF107991071081008001999999MA1999999100801MD1710311-0091SA1+2649UA1M990159999REMSYN106AAXX  02061 48920 32598 73612 10272 20227 30080 40080 57031 878// 222// 00264 20403 333 59009 82895 87696;EQDQ01  00002PRCP99
0218489200999992000020209004+08650+111920FM-12+000399999V0203601N011019999999N0200001N1+02601+02231100671ADDAY121031AY221031GA1031+008009089GF107991999081008001999999MA1999999100671MD1610131-0101MW1251REMSYN094AAXX  02091 48920 41598 73611 10260 20223 30067 40067 56013 72522 888// 333 59010 83895 87697;EQDQ01+000082SCOTLC
0266489200999992000020212004+08650+111920FM-12+000399999V0203601N011010120019N0200001N1+02601+02291100851ADDAA112000791AY181061AY221061GA1031+008009089GF107991071081008001999999KA1120M+02751MA1999999100851MD1210181+0041MW1031SA1+2629REMSYN129AAXX  02121 48920 11598 73611 10260 20229 30085 40085 52018 69902 70382 878// 222// 00262 2043 333 10275 58004 79999 83895 87697;
0204489200999992000020218004+08650+111920FM-12+000399999V0203401N011010075019N0200001N1+02601+02361100771ADDAA199000021GA1021+008009099GA2021+087009089GF107991071091008001999999MA1999999100771MD1710141-0121REMSYN094AAXX  02181 48920 32598 73411 10260 20236 30077 40077 57014 879// 333 59012 82879 82995 87696;
0274489200999992000020300004+08650+111920FM-12+000399999V0203601N00901012001CN0200001N1+02571+02031100901ADDAA112000891AY161061AY221061GA1021+008009089GF107991071081008001999999KA1120N+02011MA1999999100901MD1310211-0101MW1031SA1+2609UA1M990159999REMSYN124AAXX  03001 48920 11598 73609 10257 20203 30090 40090 53021 69982 70362 878// 222// 00260 20403 333 20201 59010 82895 87696;
0199489200999992000020303004+08650+111920FM-12+000399999V0203601N00901012001CN0200001N1+02561+02421100981ADDAY161031AY221031GA1021+008009089GF107991071081008001999999MA1999999100981MD1110081-0131MW1031REMSYN094AAXX  03031 48920 41598 73609 10256 20242 30098 40098 51008 70362 878// 333 59013 82895 87696;
0255489200999992000020306004+08650+111920FM-12+000399999V0203601N00901012001CN0200001N1+02631+02431100731ADDAA106000191AY161061AY221061GA1021+008009089GF107991071081008001999999MA1999999100731MD1710251-0071MW1031SA1+2629UA1M990159999REMSYN118AAXX  03061 48920 11598 73609 10263 20243 30073 40073 57025 69921 70362 878// 222// 00262 20403 333 59007 82895 87696;
0201489200999992000020309004+08650+111920FM-12+000399999V0203601N01001012001CN0200001N1+02611+02391100601ADDAA199000091GA1021+008009089GF107991071081008001999999MA1999999100601MD1610131-0071REMSYN088AAXX  03091 48920 32598 73610 10261 20239 30060 40060 56013 878// 333 59007 82895 87696;EQDQ01  00002PRCP99
0199489200999992000020315004+08650+111920FM-12+000399999V0203601N00901012001CN0200001N1+02591+02401100871ADDAY181031AY221031GA1021+008009089GF108991081081008001999999MA1999999100871MD1210121-0041MW1801REMSYN094AAXX  03151 48920 41598 83609 10259 20240 30087 40087 52012 78082 888// 333 59004 82895 86697;
0227489200999992000020321004+08650+111920FM-12+000399999V0200201N00901012501CN0200001N1+02541+02441100601ADDAY181031AY221031GA1031+008009089GA2081+012509069GF108991081081008001999999MA1999999100601MD1510071-0091MW1251REMSYN106AAXX  03211 48920 41598 80209 10254 20244 30060 40060 55007 72582 888// 333 59009 83895 88696 91116 91502;
0274489200999992000020400004+08650+111920FM-12+000399999V0203601N01101012001CN0200001N1+02541+02391100691ADDAA112005191AY161061AY221061GA1021+008009089GF108991081081008001999999KA1120N+02481MA1999999100691MD1310091-0211MW1601SA1+2609UA1M990209999REMSYN124AAXX  04001 48920 11598 83611 10254 20239 30069 40069 53009 60052 76062 888// 222// 00260 20504 333 20248 59021 82895 88696;
0274489200999992000020403004+08650+111920FM-12+000399999V0203601N01101012001CN0200001N1+02541+02391100691ADDAA112005191AY161031AY221031GA1021+008009089GF108991081081008001999999KA1120N+02481MA1999999100691MD1310091-0211MW1601SA1+2609UA1M990209999REMSYN124AAXX  04031 48920 11598 83611 10254 20239 30069 40069 53009 60052 76062 888// 222// 00260 20504 333 20248 59021 82895 88696;
0293489200999992000020406004+08650+111920FM-12+000399999V0200201N00901012501CN0200001N1+02621+02451100511ADDAA112001091AY181061AY261061GA1021+008009089GA2081+012509069GF108991081081008001999999MA1999999100511MD1710291-0221MW1031SA1+2639UA1M990159999REMSYN140AAXX  04061 48920 11598 80209 10262 20245 30051 40051 57029 60012 70386 888// 222// 00263 20403 333 59022 82895 88696 91116 91502 555 20246;
0182489200999992000020409004+08650+111920FM-12+000399999V0203601N01001105001CN0200001N1+02641+02381100371ADDAA199000021GA1021+008009089GF107991031081008001001081MA1999999100371MD1610141-0231REMSYN088AAXX  04091 48920 32598 73610 10264 20238 30037 40037 56014 83808 333 59023 82895 87299;
0246489200999992000020412004+08650+111920FM-12+000399999V0203601N01001105001CN0200001N1+02601+02401100531ADDAA112005191GA1031+008009089GF106991031021008001001081KA1120M+02681MA1999999100531MD1999999-0221SA1+2619UA1M990159999REMSYN118AAXX  04121 48920 12598 63610 10260 20240 30053 40053 60052 83208 222// 00261 20403 333 10268 59022 70106 83895 86299;
0182489200999992000020415004+08650+111920FM-12+000399999V0203601N00501105001CN0200001N1+02511+02411100611ADDAA199000021GA1021+008009089GF106991021021008001001081MA1999999100611MD1110081-0261REMSYN088AAXX  04151 48920 32598 63605 10251 20241 30061 40061 51008 82208 333 59026 82895 86299;
0201489200999992000020418004+08650+111920FM-12+000399999V0203601N00901105001CN0200001N1+02601+02411100491ADDAA199000091GA1021+008009089GF106991021021008001001081MA1999999100491MD1810121-0181REMSYN088AAXX  04181 48920 32598 63609 10260 20241 30049 40049 58012 82208 333 59018 82895 86299;EQDQ01  00002PRCP99
0180489200999992000020421004+08650+111920FM-12+000399999V0203601N00901105001CN0200001N1+02591+02421100391ADDAA199000091GA1021+008009089GF106991021021008001001081MD1610101-0211REMSYN082AAXX  04211 48920 32598 63609 10259 20242 40039 56010 82208 333 59021 82895 86299;EQDQ01  00002PRCP99
0259489200999992000020500004+08650+111920FM-12+000399999V0203601N00901012001CN0200001N1+02611+02441100531ADDAA199000091GA1041+008009089GF108991081081008001999999KA1120N+02591MA1999999100531MD1210141-0161SA1+2599UA1M990259999REMSYN112AAXX  05001 48920 32598 83609 10261 20244 30053 40053 52014 888// 222// 00259 20605 333 20259 59016 84895 88696;EQDQ01  00002PRCP99
0199489200999992000020503004+08650+111920FM-12+000399999V0203601N00801012001CN0200001N1+02601+02461100611ADDAY181031AY221031GA1041+008009089GF108991081081008001999999MA1999999100611MD1110081-0191MW1031REMSYN094AAXX  05031 48920 41598 83608 10260 20246 30061 40061 51008 70382 888// 333 59019 84895 88696;
0255489200999992000020506004+08650+111920FM-12+000399999V0203601N01001012001CN0200001N1+02661+02431100401ADDAA106003091AY181061AY221061GA1041+008009089GF107991071081008001999999MA1999999100401MD1710211-0091MW1031SA1+2639UA1M990259999REMSYN118AAXX  05061 48920 11598 73610 10266 20243 30040 40040 57021 60031 70382 878// 222// 00263 20605 333 59009 84895 87696;
0223489200999992000020509004+08650+111920FM-12+000399999V0203601N00801012501CN0200001N1+02641+02451100231ADDAA199000091GA1021+008009089GA2041+012509069GF107991051081008001001081MA1999999100231MD1610171-0141REMSYN094AAXX  05091 48920 32598 73608 10264 20245 30023 40023 56017 85808 333 59014 82895 84696 86299;EQDQ01  00002PRCP99
0308489200999992000020512004+08650+111920FM-12+000399999V0203601N00801012501CN0200001N1+02591+02421100371ADDAA112003091AY181061AY221061GA1031+008009089GA2081+012509069GF108991081081008001999999KA1120M+02671MA1999999100371MD1210141-0161MW1031SA1+2609UA1M990209999REMSYN142AAXX  05121 48920 11598 83608 10259 20242 30037 40037 52014 60032 70382 888// 222// 00260 20504 333 10267 59016 70031 83895 88696 91116 91536;
0201489200999992000020515004+08650+111920FM-12+000399999V0200501N00701012001CN0200001N1+02601+02471100491ADDAA199000091GA1031+008009089GF108991081081008001999999MA1999999100491MD1110121-0121REMSYN088AAXX  05151 48920 32598 80507 10260 20247 30049 40049 51012 888// 333 59012 83895 88696;EQDQ01  00002PRCP99
0201489200999992000020518004+08650+111920FM-12+000399999V0200201N00601012001CN0200001N1+02591+02491100371ADDAA199000091GA1031+008009089GF107991071081008001999999MA1999999100371MD1710121-0121REMSYN088AAXX  05181 48920 32598 70206 10259 20249 30037 40037 57012 878// 333 59012 83895 87696;EQDQ01  00002PRCP99
0246489200999992000020600004+08650+111920FM-12+000399999V0200501N00501105001CN0200001N1+02601+02491100491ADDAA112001091GA1011+008009089GF107991011021008001001081KA1120N+02521MA1999999100491MD1210201-0041SA1+2579UA1M990109999REMSYN118AAXX  06001 48920 12598 70505 10260 20249 30049 40049 52020 69992 81208 222// 00257 20302 333 20252 59004 81895 87299;
0217489200999992000020603004+08650+111920FM-12+000399999V0200501N00401008001CN0200001N1+02631+02501100531ADDAA199000091GA1021+008009099GA2031+008009089GF107991071091008001999999MA1999999100531MD1999999-0081REMSYN088AAXX  06031 48920 32598 70504 10263 20250 30053 40053 879// 333 59008 83895 82995 87696;EQDQ01  00002PRCP99
0281489200999992000020606004+08650+111920FM-12+000399999V0200701N00501017501CN0200001N1+02541+02431100331ADDAA106007191AY161061AY221061GA1031+008009089GA2081+017509069GF108991081081008001999999MA1999999100331MD1810201-0071MW1211SA1+2569UA1M990059999REMSYN128AAXX  06061 48920 11598 80705 10254 20243 30033 40033 58020 60071 72162 888// 222// 00256 20201 333 59007 83895 88697 555 20254;
0199489200999992000020609004+08650+111920FM-12+000399999V0200501N00201012001CN0100001N1+02591+02061100201ADDAY161031AY221031GA1031+008009089GF106991061081008001999999MA1999999100201MD1710131-0031MW1601REMSYN094AAXX  06091 48920 41597 60502 10259 20206 30020 40020 57013 76062 868// 333 59003 83895 86696;
0274489200999992000020612004+08650+111920FM-12+000399999V0200201N004019999999N0100001N1+02551+02451100321ADDAA112007991AY161061AY221061GA1021+008009089GF106991999999008001999999KA1120M+02631MA1999999100321MD1110121-0051MW1601SA1+2579UA1M990059999REMSYN124AAXX  06121 48920 11597 60204 10255 20245 30032 40032 51012 60082 76062 222// 00257 20301 333 10263 59005 70085 82895 86896;
0199489200999992000020615004+08650+111920FM-12+000399999V0200501N00901012001CN0200001N1+02521+02421100431ADDAY161031AY221031GA1041+008009089GF108991081081008001999999MA1999999100431MD1110111-0061MW1601REMSYN094AAXX  06151 48920 41598 80509 10252 20242 30043 40043 51011 76062 888// 333 59006 84895 88696;
0216489200999992000020618004+08650+111920FM-12+000399999V0200201N00501012001CN0200001N1+02501+02421100401ADDAA106019191AY161061AY221061GA1041+008009089GF108991081081008001999999MA1999999100401MD1810031+0031MW1031REMSYN100AAXX  06181 48920 11598 80205 10250 20242 30040 40040 58003 60191 70362 888// 333 58003 84895 88696;
0229489200999992000020700004+08650+111920FM-12+000399999V0200501N002010075019N0200001N1+02541+02451100491ADDAA112019191AY181061AY221061GF105991051021008001001001MA1999999100491MD1310161+9999MW1031SA1+2629UA1M992309999REMSYN108AAXX  07001 48920 11598 50502 10254 20245 30049 40049 53016 60192 70382 85200 222// 00262 20246 58000 85895;
0199489200999992000020703004+08650+111920FM-12+000399999V0200901N001012200019N0200001N1+02701+02521100601ADDAY181031AY211031GA1011+008009089GF102991021091008001001001MA1999999100601MD1010111+0071MW1031REMSYN094AAXX  07031 48920 41598 20901 10270 20252 30060 40060 50011 70381 82900 333 58007 81895 82995;
0255489200999992000020706004+08650+111920FM-12+000399999V0203601N00401007501CN0200001N1+02711+02481100401ADDAA106005191AY181061AY211061GA1021+008009089GF106991061091008001999999MA1999999100401MD1710201+0071MW1031SA1+2679UA1M990059999REMSYN118AAXX  07061 48920 11598 63604 10271 20248 30040 40040 57020 60051 70381 869// 222// 00267 20201 333 58007 82895 85995;
0223489200999992000020709004+08650+111920FM-12+000399999V0203601N00501105001CN0200001N1+02641+02471100281ADDAA199000091GA1011+008009099GA2021+008009089GF106991021091008001001081MA1999999100281MD1610121+0081REMSYN094AAXX  07091 48920 32598 63605 10264 20247 30028 40028 56012 82908 333 58008 82895 81995 86299;EQDQ01  00002PRCP99
0252489200999992000020712004+08650+111920FM-12+000399999V0203601N01001105001CN0200001N1+02541+02411100391ADDAA112005191GA1011+008009089GF106991021091008001001081KA1120M+02781MA1999999100391MD1710111+0071SA1+2669UA1M990159999REMSYN124AAXX  07121 48920 12598 63610 10254 20241 30039 40039 57011 60052 82908 222// 00266 20403 333 10278 58007 70287 81895 86299;
0221489200999992000020715004+08650+111920FM-12+000399999V0200201N010010075019N0200001N1+02551+02451100981ADDAY181031AY221031GA1021+008009099GA2011+008009089GF106991061091008001999999MA1999999100981MD1010091+0051MW1031REMSYN100AAXX  07151 48920 41598 60210 10255 20245 30098 40098 50009 70382 869// 333 58005 81895 82995 96696;
0216489200999992000020718004+08650+111920FM-12+000399999V0200201N00601012001CN0200001N1+02581+02461100411ADDAA106003091AY181061AY221061GA1031+008009089GF107991071081008001999999MA1999999100411MD1710071+0011MW1031REMSYN100AAXX  07181 48920 11598 70206 10258 20246 30041 40041 57007 60031 70382 878// 333 58001 83895 87696;
0223489200999992000020721004+08650+111920FM-12+000399999V0200201N00701008001CN0200001N1+02561+02481100321ADDAA199000091GA1021+008009099GA2031+008009089GF108991081091008001999999MA1999999100321MD1510091-0011REMSYN094AAXX  07211 48920 32598 80207 10256 20248 30032 40032 55009 889// 333 59001 83895 82995 88696;EQDQ01  00002PRCP99
0274489200999992000020800004+08650+111920FM-12+000399999V0203601N00801105001CN0200001N1+02551+02461100511ADDAA112004191AY191061AY281061GA1041+008009089GF106991041021008001001081KA1120N+02531MA1999999100511MD1210191+0021MW1211SA1+2639UA1M990159999REMSYN124AAXX  08001 48920 11598 63608 10255 20246 30051 40051 52019 60042 72198 84208 222// 00263 20403 333 20253 58002 84895 86299;
0182489200999992000020803004+08650+111920FM-12+000399999V0203601N01101012001CN0200001N1+02601+02431100601ADDAA199000021GA1031+008009089GF107991071081008001999999MA1999999100601MD1210091+0001REMSYN088AAXX  08031 48920 32598 73611 10260 20243 30060 40060 52009 878// 333 58000 83895 87696;
0221489200999992000020806004+08650+111920FM-12+000399999V0203601N01201012001CN0200001N1+02601+02381100401ADDAA199000021GA1031+008009089GF107991071081008001999999MA1999999100401MD1710201+0001SA1+2659UA1M990159999REMSYN106AAXX  08061 48920 32598 73612 10260 20238 30040 40040 57020 878// 222// 00265 20403 333 58000 83895 87696;
0210489200999992000020809004+08650+111920FM-12+000399999V0203601N01401999999CN0200001N1+02601+02381100321ADDAA199000021GA1021+008009089GA2071+025009029GF107991071081008001999999MA1999999100321MD1710081+0041REMSYN100AAXX  08091 48920 32598 73614 10260 20238 30032 40032 57008 878// 333 58004 82895 87299 91119 91502;
0308489200999992000020812004+08650+111920FM-12+000399999V0203601N01401012501CN0200001N1+02601+02441100491ADDAA112000591AY181061AY221061GA1021+008009089GA2081+012509069GF108991081081008001999999KA1120M+02651MA1999999100491MD1210171+0101MW1021SA1+2659UA1M990209999REMSYN142AAXX  08121 48920 11598 83614 10260 20244 30049 40049 52017 69952 70282 888// 222// 00265 20504 333 10265 58010 70048 82895 88696 91119 91502;
0229489200999992000020815004+08650+111920FM-12+000399999V0203601N01201012501CN0200001N1+02601+02461100631ADDAA199000091GA1031+008009089GA2071+012509069GF107991071081008001999999MA1999999100631MD1210141+0151REMSYN100AAXX  08151 48920 32598 73612 10260 20246 30063 40063 52014 878// 333 58015 83895 87696 91119 91536;EQDQ01  00002PRCP99
0266489200999992000020818004+08650+111920FM-12+000399999V0203601N01301012501CN0200001N1+02601+02501100511ADDAA106000391AY181061AY221061GA1021+008009099GA2021+008009089GA3071+012509069GF107991071091008001999999MA1999999100511MD1710121+0101MW1031REMSYN118AAXX  08181 48920 11598 73613 10260 20250 30051 40051 57012 69931 70382 879// 333 58010 82895 82995 87696 91118 91536;
0302489200999992000020900004+08650+111920FM-12+000399999V0203601N01101012501CN0200001N1+02521+02301100671ADDAA112001091AY161061AY221061GA1021+008009089GA2081+012509069GF108991081081008001999999KA1120N+02491MA1999999100671MD1210181+0161MW1601SA1+2609UA1M990209999REMSYN136AAXX  09001 48920 11598 83611 10252 20230 30067 40067 52018 69992 76062 888// 222// 00260 20504 333 20249 58016 82895 88696 91116 91536;
0227489200999992000020903004+08650+111920FM-12+000399999V0203601N01201012501CN0200001N1+02521+02281100751ADDAY161031AY221031GA1031+004509089GA2081+012509069GF108991081081008001999999MA1999999100751MD1010081+0151MW1021REMSYN106AAXX  09031 48920 41598 83612 10252 20228 30075 40075 50008 70262 888// 333 58015 83894 88696 91116 91536;
0283489200999992000020906004+08650+111920FM-12+000399999V0203601N00901012501CN0200001N1+02591+02281100601ADDAA106003091AY161061AY221061GA1041+008009089GA2081+012509069GF108991081081008001999999MA1999999100601MD1710151+0201MW1611SA1+2609UA1M990159999REMSYN130AAXX  09061 48920 11598 83609 10259 20228 30060 40060 57015 60031 76162 888// 222// 00260 20403 333 58020 84895 88696 91116 91536;
0199489200999992000020909004+08650+111920FM-12+000399999V0203601N01101012001CN0200001N1+02521+99999100401ADDAY161031AY221031GA1041+004509089GF108991081081008001999999MA1999999100401MD1710201+0081MW1031REMSYN094AAXX  09091 48920 41598 83611 10252 20258 30040 40040 57020 70362 888// 333 58008 84894 87696;
0280489200999992000020912004+08650+111920FM-12+000399999V0203601N00801012001CN0200001N1+02541+02381100491ADDAA112005191AY161061AY221061GA1031+008009089GF108991081081008001999999KA1120M+02601MA1999999100491MD1710091+0001MW1601SA1+2599UA1M990109999REMSYN130AAXX  09121 48920 11598 83608 10254 20238 30049 40049 57009 60052 76062 888// 222// 00259 20302 333 10260 58000 70053 83895 88696;
0199489200999992000020915004+08650+111920FM-12+000399999V0203601N01001012001CN0200001N1+02591+02501100611ADDAY181031AY221031GA1031+008009089GF108991081081008001999999MA1999999100611MD1210121-0021MW1021REMSYN094AAXX  09151 48920 41598 83610 10259 20250 30061 40061 52012 70282 888// 333 59002 83895 87696;
0216489200999992000020918004+08650+111920FM-12+000399999V0200201N00801012001CN0200001N1+02531+02391100551ADDAA106003091AY161061AY221061GA1041+008009089GF108991081081008001999999MA1999999100551MD1710061+0041MW1021REMSYN100AAXX  09181 48920 11598 80208 10253 20239 30055 40055 57006 60031 70262 888// 333 58004 84895 87696;
0182489200999992000020921004+08650+111920FM-12+000399999V0203601N00701012001CN0200001N1+02531+02371100511ADDAA199000021GA1031+008009089GF108991081081008001999999MA1999999100511MD1510041+0021REMSYN088AAXX  09211 48920 32598 83607 10253 20237 30051 40051 55004 888// 333 58002 83895 88696;
0262489200999992000021000004+08650+111920FM-12+000399999V0203401N00801012501CN0200001N1+02521+02401999999ADDAA112003091GA1021+008009089GA2041+012509069GF107991051081008001001081KA1120N+02501MA1999999100731MD1210221+0061SA1+2599UA1M990109999REMSYN118AAXX  10001 48920 12598 73408 10252 20240 30073 52022 60032 85808 222// 00259 20302 333 20250 58006 82895 84696 86299;
0199489200999992000021003004+08650+111920FM-12+000399999V0203601N00701012001CN0200001N1+02511+02411100891ADDAY161031AY221031GA1041+008009089GF108991081081008001999999MA1999999100891MD1110161+0141MW1031REMSYN094AAXX  10031 48920 41598 83607 10251 20241 30089 40089 51016 70362 888// 333 58014 84895 88696;
