0179531920999992000010100004+44020+114950FM-12+112899999V0209999C000019999999N0250001N1-01401-01631102421ADDAA106000091GF107991011001999999031021MA1999999088411MD1710021-0301REMSYN082AAXX  01001 53192 32975 70000 11140 21163 38841 40242 57002 81032 333 05305 79999;EQDQ01  00002PRCP06
0112531920999992000010103004+44020+114950FM-12+112899999V0202901N003019999999N0300001N1-00851-01131102291ADDGF107991001001999999001021MD1210031+9999REMSYN060AAXX  01031 53192 42980 72903 11085 21113 40229 52003 80002;
0186531920999992000010106004+44020+114950FM-12+112899999V0202501N004019999999N0300001N1-00841-01161102201ADDAA106000091GF107991001001999999001021KA1999N-01621MA1999999088341MD1710101+9999REMSYN076AAXX  01061 53192 32980 72504 11084 21116 38834 40220 57010 80002 333 21162;EQDQ01  00002PRCP06
0112531920999992000010109004+44020+114950FM-12+112899999V0209999C000019999999N0300001N1-01011-01321102331ADDGF107991001001999999001021MD1210061+9999REMSYN060AAXX  01091 53192 42980 70000 11101 21132 40233 52006 80002;
0170531920999992000010112004+44020+114950FM-12+112899999V0202901N002010900019N0300001N1-01141-01411102341ADDAA106000791AY171061GF105991021051012501001021MA1999999088401MD1410001+9999MW1701REMSYN078AAXX  01121 53192 11680 52902 11114 21141 38840 40234 54000 69901 77070 82502;
0132531920999992000010115004+44020+114950FM-12+112899999V0202501N009012200019N0250001N1-01821-02121102661ADDAY171031GF102991001001999999001021MD1210241+9999MW1001REMSYN066AAXX  01151 53192 41975 22509 11182 21212 40266 52024 70070 80002;
0216531920999992000010118004+44020+114950FM-12+112899999V0202701N002019999999N0300001N1-02091-02401103011ADDAA106000791AY171061GF106991001001999999001021KA1240M-00751MA1999999088881MD1210241+9999MW1701OA130601801REMSYN100AAXX  01181 53192 11980 62702 11209 21240 38888 40301 52024 69901 77070 80002 333 11075 91118 91527;
0133531920999992000010121004+44020+114950FM-12+112899999V0202701N004012200019N0300001N1-02111-02411103041ADDAA124000791GF102991001001999999001021MD1710021+9999REMSYN070AAXX  01211 53192 42980 22704 11211 21241 40304 57002 80002 333 79999;
0160531920999992000010200004+44020+114950FM-12+112899999V0201801N003019999999N0300001N1-02341-02651103311ADDAA106000021GF107991001001999999001021MA1999999089001MD1210141+0601REMSYN082AAXX  02001 53192 32980 71803 11234 21265 38900 40331 52014 80002 333 00659 79999;
0112531920999992000010203004+44020+114950FM-12+112899999V0202701N005012200019N0300001N1-02261-02591103481ADDGF102991001001999999001021MD1710011+9999REMSYN060AAXX  02031 53192 42980 22705 11226 21259 40348 57001 80002;
0186531920999992000010206004+44020+114950FM-12+112899999V0202501N003019999999N0300001N1-02021-02371103251ADDAA106000091GF107991001001999999001021KA1999N-02431MA1999999088781MD1710211+9999REMSYN076AAXX  02061 53192 32980 72503 11202 21237 38878 40325 57021 80002 333 21243;EQDQ01  00002PRCP06
0112531920999992000010209004+44020+114950FM-12+112899999V0202701N002012200019N0300001N1-02241-02531103401ADDGF101991001001999999001021MD1210071+9999REMSYN060AAXX  02091 53192 42980 12702 11224 21253 40340 52007 80002;
0173531920999992000010212004+44020+114950FM-12+112899999V0200201N002012200019N0300001N1-02441-02711103521ADDAA106000091GA1001+999999999GF100991001001999999001001MA1999999088841MD1710011+9999REMSYN060AAXX  02121 53192 32980 00202 11244 21271 38884 40352 57001;EQDQ01  00002PRCP06
0122531920999992000010215004+44020+114950FM-12+112899999V0200201N001012200019N0300001N1-02601-02871103561ADDGA1001+999999999GF100991001001999999001001MD1210011+9999REMSYN054AAXX  02151 53192 42980 00201 11260 21287 40356 52001;
0196531920999992000010218004+44020+114950FM-12+112899999V0200201N003012200019N0300001N1-02601-02881103271ADDAA106000091GA1001+999999999GF100991001001999999001001KA1999M-01941MA1999999088671MD1710181+9999REMSYN070AAXX  02181 53192 32980 00203 11260 21288 38867 40327 57018 333 11194;EQDQ01  00002PRCP06
0112531920999992000010221004+44020+114950FM-12+112899999V0200201N002012200019N0300001N1-02511-02801103211ADDGF104991001001999999001021MD1710091+9999REMSYN060AAXX  02211 53192 42980 40202 11251 21280 40321 57009 80002;
0172531920999992000010300004+44020+114950FM-12+112899999V0200401N002019999999N0200001N1-02111-02441102991ADDAA106000091GF107991021001999999031021MA1999999088441MD1710141+9999REMSYN075AAXX  03001 53192 32970 70402 11211 21244 38844 40299 57014 82032 33 05602;EQDQ01  00002PRCP06
0112531920999992000010303004+44020+114950FM-12+112899999V0200701N002019999999N0300001N1-01981-02351103101ADDGF106991001001999999001021MD1210091+9999REMSYN060AAXX  03031 53192 42980 60702 11198 21235 40310 52009 80002;
0186531920999992000010306004+44020+114950FM-12+112899999V0201101N002019999999N0300001N1-01711-02141102861ADDAA106000091GF107991051001999999031021KA1999N-02711MA1999999088401MD1710131+9999REMSYN076AAXX  03061 53192 32980 71102 11171 21214 38840 40286 57013 85032 333 21271;EQDQ01  00002PRCP06
0112531920999992000010309004+44020+114950FM-12+112899999V0200701N002019999999N0300001N1-01821-02241102921ADDGF107991031001999999031021MD1210041+9999REMSYN060AAXX  03091 53192 42980 70702 11182 21224 40292 52004 83032;
0170531920999992000010312004+44020+114950FM-12+112899999V0200701N002019999999N0300001N1-01881-02251102781ADDAA106000791AY171061GF107991001001999999001021MA1999999088411MD1710031+9999MW1701REMSYN078AAXX  03121 53192 11980 70702 11188 21225 38841 40278 57003 69901 77070 80002;
0140531920999992000010315004+44020+114950FM-12+112899999V0200701N002019999999N0250001N1-01871-02171102661ADDAY171031AY271031GF108991081001999999021999MD1710071+9999MW1711REMSYN066AAXX  03151 53192 41975 80702 11187 21217 40266 57007 77177 8802/;
0201531920999992000010318004+44020+114950FM-12+112899999V0200701N001019999999N0250001N1-01861-02161102611ADDAA106000591AY171061AY271061GF108991081001999999021999KA1999M-01661MA1999999088371MD1210031+9999MW1711REMSYN088AAXX  03181 53192 11975 80701 11186 21216 38837 40261 52003 69941 77177 8802/ 333 11166;
0161531920999992000010321004+44020+114950FM-12+112899999V0209999C000019999999N0250001N1-01921-02241102761ADDAA124000591AY171031AY271031GF108991081001999999021999MD1210091+9999MW1711REMSYN076AAXX  03211 53192 41975 80000 11192 21224 40276 52009 77177 8802/ 333 70005;
0186531920999992000010400004+44020+114950FM-12+112899999V0200201N002012200019N0300001N1-02351-02641102981ADDAA106000191AY171061GF101991001001999999001021MA1999999088521MD1210061+0101MW1001REMSYN094AAXX  04001 53192 11980 10202 11235 21264 38852 40298 52006 69911 70070 80002 333 00152 70005;
0112531920999992000010403004+44020+114950FM-12+112899999V0200201N003012200019N0300001N1-02211-02521103111ADDGF101991001001999999001021MD1210151+9999REMSYN060AAXX  04031 53192 42980 10203 11221 21252 40311 52015 80002;
0112531920999992000010409004+44020+114950FM-12+112899999V0200201N002012200019N0300001N1-02161-02491103071ADDGF101991001001999999001021MD1210071+9999REMSYN060AAXX  04091 53192 42980 10202 11216 21249 40307 52007 80002;
0173531920999992000010412004+44020+114950FM-12+112899999V0200401N002012200019N0300001N1-02441-02711103411ADDAA106000091GA1001+999999999GF100991001001999999001001MA1999999088741MD1210101+9999REMSYN060AAXX  04121 53192 32980 00402 11244 21271 38874 40341 52010;EQDQ01  00002PRCP06
0122531920999992000010415004+44020+114950FM-12+112899999V0200401N002012200019N0300001N1-02491-02761103371ADDGA1001+999999999GF100991001001999999001001MD1710011+9999REMSYN054AAXX  04151 53192 42980 00402 11249 21276 40337 57001;
0186531920999992000010418004+44020+114950FM-12+112899999V0209999C000019999999N0300001N1-02431-02701103241ADDAA106000091GF106991001001999999001021KA1999M-01801MA1999999088731MD1410001+9999REMSYN076AAXX  04181 53192 32980 60000 11243 21270 38873 40324 54000 80002 333 11180;EQDQ01  00002PRCP06
0133531920999992000010421004+44020+114950FM-12+112899999V0209999C000019999999N0300001N1-02261-02541103251ADDAA124000791GF107991001001999999001021MD1710031+9999REMSYN070AAXX  04211 53192 42980 70000 11226 21254 40325 57003 80002 333 79999;
0186531920999992000010500004+44020+114950FM-12+112899999V0200201N002019999999N0250001N1-02461-02731103401ADDAA106000791AY171061GF107991001001999999001021MA1999999088701MD1410001+0201MW1701REMSYN094AAXX  05001 53192 11975 70202 11246 21273 38870 40340 54000 69901 77070 80002 333 00251 79999;
0112531920999992000010503004+44020+114950FM-12+112899999V0209999C000019999999N0300001N1-02221-02501103521ADDGF107991001001999999001021MD1210161+9999REMSYN060AAXX  05031 53192 42980 70000 11222 21250 40352 52016 80002;
0167531920999992000010506004+44020+114950FM-12+112899999V0202201N004019999999N0300001N1-02181-02471103431ADDAA106000021GF105991001001999999001021KA1999N-02681MA1999999088811MD1710051+9999REMSYN076AAXX  05061 53192 32980 52204 11218 21247 38881 40343 57005 80002 333 21268;
0132531920999992000010509004+44020+114950FM-12+112899999V0202501N004012200019N0300001N1-02461-02761103571ADDAY171031GF104991001001999999001021MD1210091+9999MW1001REMSYN066AAXX  05091 53192 41980 42504 11246 21276 40357 52009 70070 80002;
0170531920999992000010512004+44020+114950FM-12+112899999V0202501N006012200019N0300001N1-02691-02991103801ADDAA106000791AY171061GF101991001001999999001021MA1999999088981MD1210081+9999MW1001REMSYN078AAXX  05121 53192 11980 12506 11269 21299 38898 40380 52008 69901 70070 80002;
0122531920999992000010515004+44020+114950FM-12+112899999V0202701N005012200019N0300001N1-02981-03301103811ADDGA1001+999999999GF100991001001999999001001MD1710011+9999REMSYN054AAXX  05151 53192 42980 02705 11298 21330 40381 57001;
0196531920999992000010518004+44020+114950FM-12+112899999V0202701N004012200019N0300001N1-03221-03521103901ADDAA106000091GA1001+999999999GF100991001001999999001001KA1999M-02081MA1999999088991MD1210021+9999REMSYN070AAXX  05181 53192 32980 02704 11322 21352 38899 40390 52002 333 11208;EQDQ01  00002PRCP06
0133531920999992000010521004+44020+114950FM-12+112899999V0202701N003012200019N0300001N1-03321-03621103971ADDAA124000791GF101991001001999999001021MD1710041+9999REMSYN070AAXX  05211 53192 42980 12703 11332 21362 40397 57004 80002 333 79999;
0112531920999992000010603004+44020+114950FM-12+112899999V0202701N007012200019N0300001N1-02951-03261103891ADDGF101991001001999999001021MD1710031+9999REMSYN060AAXX  06031 53192 42980 12707 11295 21326 40389 57003 80002;
0186531920999992000010606004+44020+114950FM-12+112899999V0202501N008012200019N0250001N1-02921-03231103831ADDAA106000091GF102991001001999999001021KA1999N-03371MA1999999088731MD1710111+9999REMSYN076AAXX  06061 53192 32975 22508 11292 21323 38873 40383 57011 80002 333 21337;EQDQ01  00002PRCP06
0112531920999992000010609004+44020+114950FM-12+112899999V0202701N006012200019N0300001N1-02901-03211104001ADDGF101991001001999999001021MD1210121+9999REMSYN060AAXX  06091 53192 42980 12706 11290 21321 40400 52012 80002;
0173531920999992000010612004+44020+114950FM-12+112899999V0202201N005012200019N0300001N1-02981-03271104101ADDAA106000091GA1001+999999999GF100991001001999999001001MA1999999088951MD1210101+9999REMSYN060AAXX  06121 53192 32980 02205 11298 21327 38895 40410 52010;EQDQ01  00002PRCP06
0122531920999992000010615004+44020+114950FM-12+112899999V0202701N006012200019N0300001N1-03041-03341104021ADDGA1001+999999999GF100991001001999999001001MD1710021+9999REMSYN054AAXX  06151 53192 42980 02706 11304 21334 40402 57002;
0133531920999992000010621004+44020+114950FM-12+112899999V0202201N002012200019N0300001N1-03111-03411103871ADDAA124000791GF102991001001999999001021MD1710041+9999REMSYN070AAXX  06211 53192 42980 22202 11311 21341 40387 57004 80002 333 79999;
0173531920999992000010700004+44020+114950FM-12+112899999V0201801N004012200019N0300001N1-03101-03401103881ADDAA106000091GF101991001001999999001021MA1999999088791MD1710011+0011REMSYN076AAXX  07001 53192 32980 11804 11310 21340 38879 40388 57001 80002 333 05101;EQDQ01  00002PRCP06
0112531920999992000010703004+44020+114950FM-12+112899999V0202501N006012200019N0300001N1-03001-03331103841ADDGF101991001001999999001021MD1710031+9999REMSYN060AAXX  07031 53192 42980 12506 11300 21333 40384 57003 80002;
0186531920999992000010706004+44020+114950FM-12+112899999V0202501N006019999999N0300001N1-02711-03071103611ADDAA106000091GF105991001001999999001021KA1999N-03231MA1999999088641MD1710121+9999REMSYN076AAXX  07061 53192 32980 52506 11271 21307 38864 40361 57012 80002 333 21323;EQDQ01  00002PRCP06
0112531920999992000010709004+44020+114950FM-12+112899999V0202501N007019999999N0300001N1-02531-02931103461ADDGF107991001001999999001021MD1710091+9999REMSYN060AAXX  07091 53192 42980 72507 11253 21293 40346 57009 80002;
0163531920999992000010712004+44020+114950FM-12+112899999V0202901N003019999999N0300001N1-02621-02981103501ADDAA106000091GF105991001001999999001021MA1999999088561MD1210011+9999REMSYN066AAXX  07121 53192 32980 52903 11262 21298 38856 40350 52001 80002;EQDQ01  00002PRCP06
0112531920999992000010715004+44020+114950FM-12+112899999V0209999C000012200019N0300001N1-02921-03241103571ADDGF101991001001999999001021MD1210011+9999REMSYN060AAXX  07151 53192 42980 10000 11292 21324 40357 52001 80002;
0196531920999992000010718004+44020+114950FM-12+112899999V0202901N001012200019N0300001N1-03051-03351103511ADDAA106000091GA1001+999999999GF100991001001999999001001KA1999M-02511MA1999999088561MD1710011+9999REMSYN070AAXX  07181 53192 32980 02901 11305 21335 38856 40351 57001 333 11251;EQDQ01  00002PRCP06
0122531920999992000010721004+44020+114950FM-12+112899999V0202701N001012200019N0300001N1-03111-03411103481ADDGA1001+999999999GF100991001001999999001001MD1210011+9999REMSYN054AAXX  07211 53192 42980 02701 11311 21341 40348 52001;
0173531920999992000010800004+44020+114950FM-12+112899999V0209999C000012200019N0300001N1-03081-03381103501ADDAA106000091GF101991001001999999001021MA1999999088571MD1410001+0021REMSYN076AAXX  08001 53192 32980 10000 11308 21338 38857 40350 54000 80002 333 05200;EQDQ01  00002PRCP06
0112531920999992000010803004+44020+114950FM-12+112899999V0209999C000012200019N0300001N1-02401-02841103511ADDGF101991001001999999001021MD1210111+9999REMSYN060AAXX  08031 53192 42980 10000 11240 21284 40351 52011 80002;
0186531920999992000010806004+44020+114950FM-12+112899999V0202501N001012200019N0300001N1-02151-02711103191ADDAA106000091GF101991001001999999001021KA1999N-03221MA1999999088441MD1710241+9999REMSYN076AAXX  08061 53192 32980 12501 11215 21271 38844 40319 57024 80002 333 21322;EQDQ01  00002PRCP06
0112531920999992000010809004+44020+114950FM-12+112899999V0201101N001019999999N0300001N1-02161-02621103121ADDGF105991001001999999001021MD1710081+9999REMSYN060AAXX  08091 53192 42980 51101 11216 21262 40312 57008 80002;
0163531920999992000010812004+44020+114950FM-12+112899999V0200201N001019999999N0300001N1-02041-02471103161ADDAA106000091GF107991001001999999001021MA1999999088441MD1210081+9999REMSYN066AAXX  08121 53192 32980 70201 11204 21247 38844 40316 52008 80002;EQDQ01  00002PRCP06
0132531920999992000010815004+44020+114950FM-12+112899999V0200201N002019999999N0300001N1-02111-02441102901ADDAY171031GF105991001001999999001021MD1710061+9999MW1701REMSYN066AAXX  08151 53192 41980 50202 11211 21244 40290 57006 77070 80002;
0193531920999992000010818004+44020+114950FM-12+112899999V0209999C000012200019N0300001N1-02451-02741102911ADDAA106000191AY171061GF101991001001999999001021KA1999M-01901MA1999999088361MD1710021+9999MW1001REMSYN088AAXX  08181 53192 11980 10000 11245 21274 38836 40291 57002 69911 70070 80002 333 11190;
0179531920999992000010900004+44020+114950FM-12+112899999V0202501N002012200019N0300001N1-02741-03021103241ADDAA106000091GF102991001001999999001021MA1999999088601MD1210181+0001REMSYN082AAXX  09001 53192 32980 22502 11274 21302 38860 40324 52018 80002 333 00003 70001;EQDQ01  00002PRCP06
0112531920999992000010903004+44020+114950FM-12+112899999V0202501N004019999999N0300001N1-02441-02731103301ADDGF107991031001999999031021MD1210111+9999REMSYN060AAXX  09031 53192 42980 72504 11244 21273 40330 52011 83032;
0112531920999992000010909004+44020+114950FM-12+112899999V0202701N004012200019N0300001N1-02321-02641103671ADDGF102991001001999999001021MD1210121+9999REMSYN060AAXX  09091 53192 42980 22704 11232 21264 40367 52012 80002;
0163531920999992000010912004+44020+114950FM-12+112899999V0209999C000012200019N0300001N1-02491-02781103931ADDAA106000091GF102991001001999999001021MA1999999089071MD1210161+9999REMSYN066AAXX  09121 53192 32980 20000 11249 21278 38907 40393 52016 80002;EQDQ01  00002PRCP06
0122531920999992000010915004+44020+114950FM-12+112899999V0209999C000012200019N0300001N1-02651-02931103921ADDGA1001+999999999GF100991001001999999001001MD1210031+9999REMSYN054AAXX  09151 53192 42980 00000 11265 21293 40392 52003;
0196531920999992000010918004+44020+114950FM-12+112899999V0209999C000012200019N0300001N1-02851-03141103911ADDAA106000091GA1001+999999999GF100991001001999999001001KA1999M-02071MA1999999089131MD1210031+9999REMSYN070AAXX  09181 53192 32980 00000 11285 21314 38913 40391 52003 333 11207;EQDQ01  00002PRCP06
0122531920999992000010921004+44020+114950FM-12+112899999V0209999C000012200019N0300001N1-02861-03151104091ADDGA1001+999999999GF100991001001999999001001MD1210091+9999REMSYN054AAXX  09211 53192 42980 00000 11286 21315 40409 52009;
0173531920999992000011000004+44020+114950FM-12+112899999V0209999C000012200019N0300001N1-02701-02981104191ADDAA106000091GF102991001001999999001021MA1999999089301MD1210081+0071REMSYN076AAXX  10001 53192 32980 20000 11270 21298 38930 40419 52008 80002 333 00700;EQDQ01  00002PRCP06
0112531920999992000011003004+44020+114950FM-12+112899999V0200201N003012200019N0300001N1-02281-02571104231ADDGF101991001001999999001021MD1210111+9999REMSYN060AAXX  10031 53192 42980 10203 11228 21257 40423 52011 80002;
0186531920999992000011006004+44020+114950FM-12+112899999V0201401N001019999999N0300001N1-01571-02021103961ADDAA106000091GF105991001001999999001021KA1999N-02991MA1999999089311MD1710101+9999REMSYN076AAXX  10061 53192 32980 51401 11157 21202 38931 40396 57010 80002 333 21299;EQDQ01  00002PRCP06
0112531920999992000011009004+44020+114950FM-12+112899999V0200201N004012200019N0300001N1-01681-02151104111ADDGF101991001001999999001021MD1210101+9999REMSYN060AAXX  10091 53192 42980 10204 11168 21215 40411 52010 80002;
0173531920999992000011012004+44020+114950FM-12+112899999V0200701N003012200019N0300001N1-01781-02391104141ADDAA106000091GA1001+999999999GF100991001001999999001001MA1999999089451MD1210041+9999REMSYN060AAXX  10121 53192 32980 00703 11178 21239 38945 40414 52004;EQDQ01  00002PRCP06
0112531920999992000011015004+44020+114950FM-12+112899999V0200201N004012200019N0300001N1-01851-02401103941ADDGF101991001001999999001021MD1710081+9999REMSYN060AAXX  10151 53192 42980 10204 11185 21240 40394 57008 80002;
0186531920999992000011018004+44020+114950FM-12+112899999V0200201N003012200019N0300001N1-01821-02431103611ADDAA106000091GF102991001001999999001021KA1999M-01331MA1999999089281MD1710091+9999REMSYN076AAXX  10181 53192 32980 20203 11182 21243 38928 40361 57009 80002 333 11133;EQDQ01  00002PRCP06
0112531920999992000011021004+44020+114950FM-12+112899999V0200701N006019999999N0300001N1-01611-02311103411ADDGF106991001001999999001021MD1710151+9999REMSYN060AAXX  10211 53192 42980 60706 11161 21231 40341 57015 80002;
0173531920999992000011100004+44020+114950FM-12+112899999V0200701N007019999999N0300001N1-01641-02281103471ADDAA106000091GF107991001001999999001021MA1999999089151MD1210021+0021REMSYN076AAXX  11001 53192 32980 70707 11164 21228 38915 40347 52002 80002 333 05211;EQDQ01  00002PRCP06
0124531920999992000011103004+44020+114950FM-12+112899999V0200701N007019999999N0300001N1-01501-02031103481ADDGF108991081001999999021999MD1210031+9999MW1701REMSYN066AAXX  11031 53192 41980 80707 11150 21203 40348 52003 77000 8802/;
0193531920999992000011106004+44020+114950FM-12+112899999V0200701N005019999999N0300001N1-01441-01821103231ADDAA106000191AY171061GF108991081001999999021999KA1999N-02071MA1999999088991MD1710191+9999MW1701REMSYN088AAXX  11061 53192 11980 80705 11144 21182 38899 40323 57019 69911 77070 8802/ 333 21207;
0140531920999992000011109004+44020+114950FM-12+112899999V0200701N003019999999N0250001N1-01561-01891103231ADDAY171031AY271031GF108991081001999999021999MD1210021+9999MW1701REMSYN066AAXX  11091 53192 41975 80703 11156 21189 40323 52002 77077 8802/;
0178531920999992000011112004+44020+114950FM-12+112899999V0200401N004019999999N0250001N1-01601-01931103331ADDAA106000891AY171061AY271061GF108991081001999999021999MA1999999089081MD1210071+9999MW1701REMSYN078AAXX  11121 53192 11975 80404 11160 21193 38908 40333 52007 69971 77077 8802/;
0140531920999992000011115004+44020+114950FM-12+112899999V0200401N004019999999N0200001N1-01681-02021103281ADDAY171031AY271031GF108991081001999999021999MD1710031+9999MW1711REMSYN066AAXX  11151 53192 41970 80404 11168 21202 40328 57003 77177 8802/;
0201531920999992000011118004+44020+114950FM-12+112899999V0200401N003019999999N0200001N1-01801-02141103291ADDAA106001091AY171061AY271061GF108991081001999999021999KA1999M-01401MA1999999089041MD1710011+9999MW1711REMSYN088AAXX  11181 53192 11970 80403 11180 21214 38904 40329 57001 60011 77177 8802/ 333 11140;
0161531920999992000011121004+44020+114950FM-12+112899999V0200401N002019999999N0300001N1-01951-02281103341ADDAA124002091AY171031AY271031GF107991001001999999001021MD1710021+9999MW1711REMSYN076AAXX  11211 53192 41980 70402 11195 21228 40334 57002 77177 80002 333 70021;
0200531920999992000011200004+44020+114950FM-12+112899999V0200401N003019999999N0300001N1-02021-02351103461ADDAA106000791AY171061AY271061GF107991001001999999001021MA1999999089091MD1210071-0101MW1711REMSYN100AAXX  12001 53192 11980 70403 11202 21235 38909 40346 52007 69901 77177 80002 333 05154 70021 92511;
0132531920999992000011203004+44020+114950FM-12+112899999V0200201N004019999999N0300001N1-01951-02301103551ADDAY171031GF107991001001999999001021MD1210081+9999MW1001REMSYN066AAXX  12031 53192 41980 70204 11195 21230 40355 52008 70070 80002;
0193531920999992000011206004+44020+114950FM-12+112899999V0200201N004019999999N0300001N1-01841-02211103461ADDAA106000191AY171061GF107991001001999999001021KA1999N-02111MA1999999089091MD1710081+9999MW1001REMSYN088AAXX  12061 53192 11980 70204 11184 21221 38909 40346 57008 69921 70070 80002 333 21211;
0132531920999992000011209004+44020+114950FM-12+112899999V0209999C000019999999N0300001N1-01841-02191103661ADDAY171031GF107991001001999999001021MD1210131+9999MW1221REMSYN066AAXX  12091 53192 41980 70000 11184 21219 40366 52013 72270 80002;
0170531920999992000011212004+44020+114950FM-12+112899999V0209999C000012200019N0300001N1-02321-02631103901ADDAA106000191AY171061GF101991001001999999001021MA1999999089281MD1210061+9999MW1001REMSYN078AAXX  12121 53192 11980 10000 11232 21263 38928 40390 52006 69911 70070 80002;
0122531920999992000011215004+44020+114950FM-12+112899999V0200401N001012200019N0300001N1-02621-02901103991ADDGA1001+999999999GF100991001001999999001001MD1210021+9999REMSYN054AAXX  12151 53192 42980 00401 11262 21290 40399 52002;
0196531920999992000011218004+44020+114950FM-12+112899999V0209999C000012200019N0300001N1-02821-03111103921ADDAA106000091GA1001+999999999GF100991001001999999001001KA1999M-01761MA1999999089211MD1710091+9999REMSYN070AAXX  12181 53192 32980 00000 11282 21311 38921 40392 57009 333 11176;EQDQ01  00002PRCP06
0143531920999992000011221004+44020+114950FM-12+112899999V0209999C000012200019N0300001N1-03101-03401103971ADDAA124000391GA1001+999999999GF100991001001999999001001MD1710031+9999REMSYN064AAXX  12211 53192 42980 00000 11310 21340 40397 57003 333 70003;
0191531920999992000011300004+44020+114950FM-12+112899999V0200401N001012200019N0090001N1-02971-03271104051ADDAA106000091GF102991001001999999001021MA1999999089151MD1710031+0101MW1101REMSYN088AAXX  13001 53192 31959 20401 11297 21327 38915 40405 57003 71000 80002 333 00160 70003;EQDQ01  00002PRCP06
0112531920999992000011303004+44020+114950FM-12+112899999V0200201N002012200019N0300001N1-02611-02911104001ADDGF101991001001999999001021MD1710021+9999REMSYN060AAXX  13031 53192 42980 10202 11261 21291 40400 57002 80002;
0186531920999992000011306004+44020+114950FM-12+112899999V0200201N003019999999N0300001N1-02371-02661103621ADDAA106000091GF106991001001999999001021KA1999N-03131MA1999999088811MD1710321+9999REMSYN076AAXX  13061 53192 32980 60203 11237 21266 38881 40362 57032 80002 333 21313;EQDQ01  00002PRCP06
0112531920999992000011309004+44020+114950FM-12+112899999V0209999C000019999999N0300001N1-02181-02471103581ADDGF106991001001999999001021MD1710061+9999REMSYN060AAXX  13091 53192 42980 60000 11218 21247 40358 57006 80002;
0170531920999992000011312004+44020+114950FM-12+112899999V0203601N002019999999N0300001N1-02271-02581103481ADDAA106000791AY171061GF106991001001999999001021MA1999999088681MD1710071+9999MW1701REMSYN078AAXX  13121 53192 11980 63602 11227 21258 38868 40348 57007 69901 77070 80002;
0193531920999992000011318004+44020+114950FM-12+112899999V0202701N004019999999N0300001N1-02341-02611103311ADDAA106000391AY171061GF106991001001999999001021KA1999M-02081MA1999999088681MD1210031+9999MW1701REMSYN088AAXX  13181 53192 11980 62704 11234 21261 38868 40331 52003 69931 77070 80002 333 11208;
0157531920999992000011321004+44020+114950FM-12+112899999V0202901N002019999999N0300001N1-02461-02751103321ADDAA124000391AY171031GF107991001001999999001021MD1210021+9999MW1001REMSYN080    AAXX  13211 53192 41980 72902 11246 21275 40332 52002 70070 80002 333 70003;
0190531920999992000011400004+44020+114950FM-12+112899999V0202501N003010120019N0300001N1-02341-02631103451ADDAA106000791AY171061GF106991051051012501001021MA1999999088821MD1210121-0301MW1001REMSYN098    AAXX  14001 53192 11680 62503 11234 21263 38882 40345 52012 69901 70070 85502 333 05306 70003;
0190531920999992000011401004+44020+114950FM-12+112899999V0202501N003010120019N0300001N1-02341-02631103451ADDAA106000791AY171999GF106991051051012501001021MA1999999088821MD1210121+9999MW1001REMSYN098    AAXX  14011 53192 11680 62503 11234 21263 38882 40345 52012 69901 70070 85502 333 0/306 70003;
0116531920999992000011403004+44020+114950FM-12+112899999V0202501N004012200019N0300001N1-02441-02761103701ADDGF103991001001999999001021MD1210191+9999REMSYN064    AAXX  14031 53192 42980 32504 11244 21276 40370 52019 80002;
0171531920999992000011406004+44020+114950FM-12+112899999V0202201N001012200019N0300001N1-02171-02511103531ADDAA199000021GF102991001001999999001021KA1999N-02511MA1999999088921MD1710091+9999REMSYN080    AAXX  14061 53192 32980 22201 11217 21251 38892 40353 57009 80002 333 21251;
0116531920999992000011409004+44020+114950FM-12+112899999V0209999C000019999999N0300001N1-02321-02631103721ADDGF106991001001999999001021MD1210091+9999REMSYN064    AAXX  14091 53192 42980 60000 11232 21263 40372 52009 80002;
0167531920999992000011412004+44020+114950FM-12+112899999V0209999C000012200019N0300001N1-02511-02801103841ADDAA199000091GF102991001001999999001021MA1999999089091MD1210081+9999REMSYN070    AAXX  14121 53192 32980 20000 11251 21280 38909 40384 52008 80002;EQDQ01  00002PRCP99
0116531920999992000011415004+44020+114950FM-12+112899999V0200701N001019999999N0300001N1-02501-02801103881ADDGF106991001001999999001011MD1210011+9999REMSYN064    AAXX  14151 53192 42980 60701 11250 21280 40388 52001 80001;
0190531920999992000011418004+44020+114950FM-12+112899999V0209999C000019999999N0300001N1-02521-02821103791ADDAA199000091GF105991001001999999001021KA1999M-02061MA1999999089091MD1710011+9999REMSYN080    AAXX  14181 53192 32980 50000 11252 21282 38909 40379 57001 80002 333 11206;EQDQ01  00002PRCP99
0137531920999992000011421004+44020+114950FM-12+112899999V0209999C000012200019N0300001N1-02671-02971103861ADDAA124000791GF101991001001999999001021MD1710021+9999REMSYN074    AAXX  14211 53192 42980 10000 11267 21297 40386 57002 80002 333 79999;
0177531920999992000011500004+44020+114950FM-12+112899999V0209999C000012200019N0250001N1-02771-03061104081ADDAA199000091GF102991001001999999001021MA1999999089181MD1210111+0041REMSYN080    AAXX  15001 53192 32975 20000 11277 21306 38918 40408 52011 80002 333 00454;EQDQ01  00002PRCP99
0126531920999992000011503004+44020+114950FM-12+112899999V0209999C000012200019N0300001N1-02241-02601104071ADDGA1001+999999999GF100991001001999999001001MD1210141+9999REMSYN058    AAXX  15031 53192 42980 00000 11224 21260 40407 52014;
0200531920999992000011506004+44020+114950FM-12+112899999V0209999C000012200019N0300001N1-02111-02511104041ADDAA199000091GA1001+999999999GF100991001001999999001001KA1999N-03001MA1999999089321MD1410001+9999REMSYN074    AAXX  15061 53192 32980 00000 11211 21251 38932 40404 54000 333 21300;EQDQ01  00002PRCP99
0126531920999992000011509004+44020+114950FM-12+112899999V0209999C000012200019N0300001N1-02261-02621104361ADDGA1001+999999999GF100991001001999999001001MD1210201+9999REMSYN058    AAXX  15091 53192 42980 00000 11226 21262 40436 52020;
0177531920999992000011512004+44020+114950FM-12+112899999V0209999C000012200019N0300001N1-02881-03141104771ADDAA199000091GA1001+999999999GF100991001001999999001001MA1999999089671MD1210151+9999REMSYN064    AAXX  15121 53192 32980 00000 11288 21314 38967 40477 52015;EQDQ01  00002PRCP99
0126531920999992000011515004+44020+114950FM-12+112899999V0209999C000012200019N0300001N1-03021-03311104761ADDGA1001+999999999GF100991001001999999001001MD1210101+9999REMSYN058    AAXX  15151 53192 42980 00000 11302 21331 40476 52010;
0200531920999992000011518004+44020+114950FM-12+112899999V0209999C000012200019N0300001N1-03151-03431104801ADDAA199000091GA1001+999999999GF100991001001999999001001KA1999M-02021MA1999999089801MD1210031+9999REMSYN074    AAXX  15181 53192 32980 00000 11315 21343 38980 40480 52003 333 11202;EQDQ01  00002PRCP99
0126531920999992000011521004+44020+114950FM-12+112899999V0209999C000012200019N0300001N1-03231-03531104771ADDGA1001+999999999GF100991001001999999001001MD1710091+9999REMSYN058    AAXX  15211 53192 42980 00000 11323 21353 40477 57009;
0189531920999992000011600004+44020+114950FM-12+112899999V0209999C000012200019N0080001N1-03261-03561104961ADDAA199000091GF101991001001999999001021MA1999999089691MD1710021+0051MW1101REMSYN086    AAXX  16001 53192 31958 10000 11326 21356 38969 40496 57002 71000 80002 333 00555;EQDQ01  00002PRCP99
0126531920999992000011603004+44020+114950FM-12+112899999V0209999C000012200019N0250001N1-02561-02841104771ADDGA1001+999999999GF100991001001999999001001MD1410001+9999REMSYN058    AAXX  16031 53192 42975 00000 11256 21284 40477 54000;
0190531920999992000011606004+44020+114950FM-12+112899999V0201801N001012200019N0300001N1-02261-02631104421ADDAA199000091GF101991001001999999001021KA1999N-03401MA1999999089441MD1710251+9999REMSYN080    AAXX  16061 53192 32980 11801 11226 21263 38944 40442 57025 80002 333 21340;EQDQ01  00002PRCP99
0116531920999992000011609004+44020+114950FM-12+112899999V0209999C000012200019N0300001N1-02321-02661104361ADDGF101991001001999999001021MD1710091+9999REMSYN064    AAXX  16091 53192 42980 10000 11232 21266 40436 57009 80002;
0177531920999992000011612004+44020+114950FM-12+112899999V0202901N001012200019N0300001N1-02801-03091104491ADDAA199000091GA1001+999999999GF100991001001999999001001MA1999999089311MD1710041+9999REMSYN064    AAXX  16121 53192 32980 02901 11280 21309 38931 40449 57004;EQDQ01  00002PRCP99
0116531920999992000011615004+44020+114950FM-12+112899999V0209999C000012200019N0300001N1-02781-03071104241ADDGF102991001001999999001021MD1710011+9999REMSYN064    AAXX  16151 53192 42980 20000 11278 21307 40424 57001 80002;
0200531920999992000011618004+44020+114950FM-12+112899999V0202701N001012200019N0300001N1-02901-03191104101ADDAA199000091GA1001+999999999GF100991001001999999001001KA1999M-02041MA1999999089231MD1710071+9999REMSYN074    AAXX  16181 53192 32980 02701 11290 21319 38923 40410 57007 333 11204;EQDQ01  00002PRCP99
0126531920999992000011621004+44020+114950FM-12+112899999V0202701N002012200019N0300001N1-03001-03301104101ADDGA1001+999999999GF100991001001999999001001MD1710041+9999REMSYN058    AAXX  16211 53192 42980 02702 11300 21330 40410 57004;
0177531920999992000011700004+44020+114950FM-12+112899999V0209999C000019999999N0300001N1-02881-03191104121ADDAA199000091GF106991001001999999001021MA1999999089101MD1710091+0061REMSYN080    AAXX  17001 53192 32980 60000 11288 21319 38910 40412 57009 80002 333 05604;EQDQ01  00002PRCP99
0126531920999992000011703004+44020+114950FM-12+112899999V0209999C000012200019N0300001N1-02121-02421103791ADDGA1001+999999999GF100991001001999999001001MD1710061+9999REMSYN058    AAXX  17031 53192 42980 00000 11212 21242 40379 57006;
0190531920999992000011706004+44020+114950FM-12+112899999V0209999C000012200019N0300001N1-01851-02201103481ADDAA199000091GF101991001001999999001021KA1999N-03061MA1999999088811MD1710231+9999REMSYN080    AAXX  17061 53192 32980 10000 11185 21220 38881 40348 57023 80002 333 21306;EQDQ01  00002PRCP99
0116531920999992000011709004+44020+114950FM-12+112899999V0209999C000012200019N0300001N1-02101-02451103621ADDGF101991001001999999001021MD1210031+9999REMSYN064    AAXX  17091 53192 42980 10000 11210 21245 40362 52003 80002;
0177531920999992000011712004+44020+114950FM-12+112899999V0202501N002012200019N0300001N1-02561-02841103861ADDAA199000091GA1001+999999999GF100991001001999999001001MA1999999088951MD1210111+9999REMSYN064    AAXX  17121 53192 32980 02502 11256 21284 38895 40386 52011;EQDQ01  00002PRCP99
0116531920999992000011715004+44020+114950FM-12+112899999V0209999C000012200019N0300001N1-02541-02831103761ADDGF102991001001999999001021MD1210131+9999REMSYN064    AAXX  17151 53192 42980 20000 11254 21283 40376 52013 80002;
0200531920999992000011718004+44020+114950FM-12+112899999V0209999C000012200019N0300001N1-02881-03171103781ADDAA199000091GA1001+999999999GF100991001001999999001001KA1999M-01741MA1999999089071MD1710011+9999REMSYN074    AAXX  17181 53192 32980 00000 11288 21317 38907 40378 57001 333 11174;EQDQ01  00002PRCP99
0116531920999992000011721004+44020+114950FM-12+112899999V0202201N004012200019N0300001N1-02661-02961103751ADDGF101991001001999999001021MD1710031+9999REMSYN064    AAXX  17211 53192 42980 12204 11266 21296 40375 57003 80002;
0189531920999992000011800004+44020+114950FM-12+112899999V0209999C000012200019N0090001N1-02861-03151104221ADDAA199000091GF101991001001999999001021MA1999999089261MD1210221+0021MW1101REMSYN086    AAXX  18001 53192 31959 10000 11286 21315 38926 40422 52022 71000 80002 333 00200;EQDQ01  00002PRCP99
0116531920999992000011803004+44020+114950FM-12+112899999V0202701N003012200019N0300001N1-02841-03131104391ADDGF101991001001999999001021MD1210161+9999REMSYN064    AAXX  18031 53192 42980 12703 11284 21313 40439 52016 80002;
0189531920999992000011806004+44020+114950FM-12+112899999V0202501N006019999999N0250001N1-02261-02601104281ADDAA106000791GF107991001001999999001021KA1999N-03071MA1999999089391MD1710031+9999MW1701REMSYN092    AAXX  18061 53192 11975 72506 11226 21260 38939 40428 57003 69901 77000 80002 333 21307;
0174531920999992000011812004+44020+114950FM-12+112899999V0202701N003012200019N0300001N1-02461-02761104501ADDAA106000791AY171061GF101991001001999999001021MA1999999089531MD1210041+9999MW1001REMSYN082    AAXX  18121 53192 11980 12703 11246 21276 38953 40450 52004 69901 70070 80002;
0116531920999992000011815004+44020+114950FM-12+112899999V0202701N001012200019N0300001N1-02661-02961104511ADDGF102991001001999999001021MD1710041+9999REMSYN064    AAXX  18151 53192 42980 22701 11266 21296 40451 57004 80002;
0181531920999992000011818004+44020+114950FM-12+112899999V0209999C000012200019N0300001N1-02981-03271104241ADDAA199000021GA1001+999999999GF100991001001999999001001KA1999M-02161MA1999999089331MD1710161+9999REMSYN074    AAXX  18181 53192 32980 00000 11298 21327 38933 40424 57016 333 11216;
0147531920999992000011821004+44020+114950FM-12+112899999V0209999C000012200019N0300001N1-03271-03571104181ADDAA124000791GA1001+999999999GF100991001001999999001001MD1710151+9999REMSYN068    AAXX  18211 53192 42980 00000 11327 21357 40418 57015 333 79999;
0164531920999992000011900004+44020+114950FM-12+112899999V0209999C000012200019N0300001N1-03261-03561104131ADDAA124000791GF101991001001999999001021MA1999999089101MD1710081-0201REMSYN086    AAXX  19001 53192 32980 10000 11326 21356 38910 40413 57008 80002 333 05254 79999;
0116531920999992000011903004+44020+114950FM-12+112899999V0201401N001012200019N0300001N1-02861-03151104201ADDGF102991001001999999001021MD1210121+9999REMSYN064    AAXX  19031 53192 42980 21401 11286 21315 40420 52012 80002;
0200531920999992000011906004+44020+114950FM-12+112899999V0209999C000012200019N0300001N1-02441-02811104181ADDAA199000091GA1001+999999999GF100991001001999999001001KA1999N-03421MA1999999089231MD1210011+9999REMSYN074    AAXX  19061 53192 32980 00000 11244 21281 38923 40418 52001 333 21342;EQDQ01  00002PRCP99
0126531920999992000011909004+44020+114950FM-12+112899999V0209999C000012200019N0300001N1-02621-02971104521ADDGA1001+999999999GF100991001001999999001001MD1210161+9999REMSYN058    AAXX  19091 53192 42980 00000 11262 21297 40452 52016;
0177531920999992000011912004+44020+114950FM-12+112899999V0209999C000012200019N0300001N1-03041-03341104821ADDAA199000091GA1001+999999999GF100991001001999999001001MA1999999089531MD1210141+9999REMSYN064    AAXX  19121 53192 32980 00000 11304 21334 38953 40482 52014;EQDQ01  00002PRCP99
0122531920999992000011915004+44020+114950FM-12+112899999V0209999C000012200019N0250001N1-03221-03521104881ADDGA1001+999999999GF100991001001999999001001MD1210111+9999REMSYN054AAXX  19151 53192 42975 00000 11322 21352 40488 52011;
0196531920999992000011918004+44020+114950FM-12+112899999V0209999C000012200019N0300001N1-03521-03811104861ADDAA199000091GA1001+999999999GF100991001001999999001001KA1999M-02301MA1999999089661MD1210021+9999REMSYN070AAXX  19181 53192 32980 00000 11352 21381 38966 40486 52002 333 11230;EQDQ01  00002PRCP99
0122531920999992000011921004+44020+114950FM-12+112899999V0209999C000012200019N0300001N1-03431-03721104951ADDGA1001+999999999GF100991001001999999001001MD1210051+9999REMSYN054AAXX  19211 53192 42980 00000 11343 21372 40495 52005;
0173531920999992000012000004+44020+114950FM-12+112899999V0200901N001012200019N0250001N1-03401-03691105191ADDAA199000091GF101991001001999999001021MA1999999089801MD1210091+0071REMSYN076AAXX  20001 53192 32975 10901 11340 21369 38980 40519 52009 80002 333 00751;EQDQ01  00002PRCP99
0122531920999992000012003004+44020+114950FM-12+112899999V0209999C000012200019N0300001N1-02941-03231105321ADDGA1001+999999999GF100991001001999999001001MD1210191+9999REMSYN054AAXX  20031 53192 42980 00000 11294 21323 40532 52019;
0196531920999992000012006004+44020+114950FM-12+112899999V0201101N002012200019N0300001N1-02281-02651104981ADDAA199000091GA1001+999999999GF100991001001999999001001KA1999N-03651MA1999999089811MD1710181+9999REMSYN070AAXX  20061 53192 32980 01102 11228 21265 38981 40498 57018 333 21365;EQDQ01  00002PRCP99
0112531920999992000012009004+44020+114950FM-12+112899999V0200201N003012200019N0300001N1-02281-02641104971ADDGF101991001001999999001021MD1210011+9999REMSYN060AAXX  20091 53192 42980 10203 11228 21264 40497 52001 80002;
0163531920999992000012012004+44020+114950FM-12+112899999V0200201N002012200019N0300001N1-02421-02761105081ADDAA199000091GF102991001001999999001021MA1999999089891MD1210071+9999REMSYN066AAXX  20121 53192 32980 20202 11242 21276 38989 40508 52007 80002;EQDQ01  00002PRCP99
0112531920999992000012015004+44020+114950FM-12+112899999V0200201N003019999999N0300001N1-02421-02771104801ADDGF106991001001999999001021MD1710111+9999REMSYN060AAXX  20151 53192 42980 60203 11242 21277 40480 57011 80002;
0186531920999992000012018004+44020+114950FM-12+112899999V0200201N002019999999N0300001N1-02301-02671104451ADDAA199000091GF106991001001999999001021KA1999M-02051MA1999999089691MD1710091+9999REMSYN076AAXX  20181 53192 32980 60202 11230 21267 38969 40445 57009 80002 333 11205;EQDQ01  00002PRCP99
0112531920999992000012021004+44020+114950FM-12+112899999V0200201N003012200019N0300001N1-02361-02711104331ADDGF104991001001999999001021MD1710121+9999REMSYN060AAXX  20211 53192 42980 40203 11236 21271 40433 57012 80002;
0173531920999992000012100004+44020+114950FM-12+112899999V0200201N003019999999N0300001N1-02341-02681104271ADDAA199000091GF106991001001999999001021MA1999999089491MD1710081+0031REMSYN076AAXX  21001 53192 32980 60203 11234 21268 38949 40427 57008 80002 333 05311;EQDQ01  00002PRCP99
0112531920999992000012103004+44020+114950FM-12+112899999V0200401N001019999999N0300001N1-01901-02291104121ADDGF107991001001999999001021MD1710011+9999REMSYN060AAXX  21031 53192 42980 70401 11190 21229 40412 57001 80002;
0186531920999992000012106004+44020+114950FM-12+112899999V0200201N002019999999N0300001N1-01481-01901103671ADDAA199000091GF107991001001999999001021KA1999N-02521MA1999999089231MD1710251+9999REMSYN076AAXX  21061 53192 32980 70202 11148 21190 38923 40367 57025 80002 333 21252;EQDQ01  00002PRCP99
0112531920999992000012109004+44020+114950FM-12+112899999V0200201N002019999999N0300001N1-01541-01961103601ADDGF107991001001999999001021MD1710091+9999REMSYN060AAXX  21091 53192 42980 70202 11154 21196 40360 57009 80002;
0163531920999992000012112004+44020+114950FM-12+112899999V0200201N001010900019N0300001N1-01531-01931103501ADDAA199000091GF107991031051012501001021MA1999999089061MD1710081+9999REMSYN066AAXX  21121 53192 32680 70201 11153 21193 38906 40350 57008 83502;EQDQ01  00002PRCP99
0132531920999992000012115004+44020+114950FM-12+112899999V0200401N002019999999N0250001N1-01401-01721103191ADDAY171031GF107991011001999999031021MD1710121+9999MW1701REMSYN066AAXX  21151 53192 41975 70402 11140 21172 40319 57012 77070 81032;
0193531920999992000012118004+44020+114950FM-12+112899999V0200201N002019999999N0200001N1-01361-01641102881ADDAA106000591AY171061GF108991081001999999021999KA1999M-01341MA1999999088791MD1710151+9999MW1701REMSYN088AAXX  21181 53192 11970 80202 11136 21164 38879 40288 57015 69961 77070 8802/ 333 11134;
0161531920999992000012121004+44020+114950FM-12+112899999V0209999C000019999999N0300001N1-01371-01631102871ADDAA124000891AY171031AY271031GF107991071001999999011999MD1710031+9999MW1701REMSYN076AAXX  21211 53192 41980 70000 11137 21163 40287 57003 77077 8701/ 333 70008;
0194531920999992000012200004+44020+114950FM-12+112899999V0209999C000019999999N0300001N1-01641-01921103061ADDAA106000591AY171061AY271061GF108991081001999999021999MA1999999088861MD1210101-0601MW1701REMSYN094AAXX  22001 53192 11980 80000 11164 21192 38886 40306 52010 69941 77077 8802/ 333 05607 70010;
0132531920999992000012203004+44020+114950FM-12+112899999V0202501N003012200019N0300001N1-01931-02251103301ADDAY171031GF101991001001999999001021MD1210171+9999MW1001REMSYN066AAXX  22031 53192 41980 12503 11193 21225 40330 52017 70070 80002;
0193531920999992000012206004+44020+114950FM-12+112899999V0202201N003012200019N0300001N1-01931-02281103271ADDAA106000791AY171061GF102991001001999999001021KA1999N-01961MA1999999089011MD1710021+9999MW1001REMSYN088AAXX  22061 53192 11980 22203 11193 21228 38901 40327 57002 69901 70070 80002 333 21196;
0112531920999992000012209004+44020+114950FM-12+112899999V0202501N003012200019N0300001N1-02141-02451103491ADDGF104991001001999999001021MD1210141+9999REMSYN060AAXX  22091 53192 42980 42503 11214 21245 40349 52014 80002;
0170531920999992000012212004+44020+114950FM-12+112899999V0209999C000019999999N0300001N1-02301-02581103801ADDAA106000791AY171061GF106991001001999999001021MA1999999089301MD1210151+9999MW1701REMSYN078AAXX  22121 53192 11980 60000 11230 21258 38930 40380 52015 69901 77070 80002;
0132531920999992000012215004+44020+114950FM-12+112899999V0200201N002012200019N0300001N1-02541-02811104161ADDAY171031GF102991001001999999001021MD1210171+9999MW1001REMSYN066AAXX  22151 53192 41980 20202 11254 21281 40416 52017 70070 80002;
0193531920999992000012218004+44020+114950FM-12+112899999V0200401N003012200019N0300001N1-02701-02981104291ADDAA106000791AY171061GF103991001001999999001021KA1999M-01301MA1999999089541MD1210071+9999MW1001REMSYN088AAXX  22181 53192 11980 30403 11270 21298 38954 40429 52007 69901 70070 80002 333 11130;
0133531920999992000012221004+44020+114950FM-12+112899999V0200401N002019999999N0300001N1-02391-02701104451ADDAA124000391GF106991001001999999001021MD1210161+9999REMSYN070AAXX  22211 53192 42980 60402 11239 21270 40445 52016 80002 333 70002;
0186531920999992000012300004+44020+114950FM-12+112899999V0200401N001019999999N0200001N1-02451-02791104751ADDAA106000791AY171061GF106991001001999999001021MA1999999089901MD1210201+1001MW1221REMSYN094AAXX  23001 53192 11970 60401 11245 21279 38990 40475 52020 69901 72270 80002 333 01058 79999;
0112531920999992000012303004+44020+114950FM-12+112899999V0200701N003012200019N0300001N1-02211-02571104941ADDGF104991001001999999001021MD1210161+9999REMSYN060AAXX  23031 53192 42980 40703 11221 21257 40494 52016 80002;
0193531920999992000012306004+44020+114950FM-12+112899999V0209999C000012200019N0300001N1-02131-02511105031ADDAA106000791AY171061GF101991001001999999001021KA1999N-02801MA1999999090121MD1210061+9999MW1001REMSYN088AAXX  23061 53192 11980 10000 11213 21251 39012 40503 52006 69901 70070 80002 333 21280;
0122531920999992000012309004+44020+114950FM-12+112899999V0202901N002012200019N0300001N1-02361-02711105241ADDGA1001+999999999GF100991001001999999001001MD1210201+9999REMSYN054AAXX  23091 53192 42980 02902 11236 21271 40524 52020;
0154531920999992000012312004+44020+114950FM-12+112899999V0209999C000012200019N0250001N1-02771-03051105581ADDAA199000021GA1001+999999999GF100991001001999999001001MA1999999090481MD1210161+9999REMSYN060AAXX  23121 53192 32975 00000 11277 21305 39048 40558 52016;
0122531920999992000012315004+44020+114950FM-12+112899999V0209999C000012200019N0300001N1-03191-03471105731ADDGA1001+999999999GF100991001001999999001001MD1210081+9999REMSYN054AAXX  23151 53192 42980 00000 11319 21347 40573 52008;
0196531920999992000012318004+44020+114950FM-12+112899999V0209999C000012200019N0300001N1-03361-03651105841ADDAA199000091GA1001+999999999GF100991001001999999001001KA1999M-02011MA1999999090631MD1710071+9999REMSYN070AAXX  23181 53192 32980 00000 11336 21365 39063 40584 57007 333 11201;EQDQ01  00002PRCP99
0143531920999992000012321004+44020+114950FM-12+112899999V0209999C000012200019N0300001N1-03401-03691105931ADDAA124000791GA1001+999999999GF100991001001999999001001MD1410001+9999REMSYN064AAXX  23211 53192 42980 00000 11340 21369 40593 54000 333 79999;
0160531920999992000012400004+44020+114950FM-12+112899999V0209999C000010900019N0300001N1-03501-03791106181ADDAA124000791GF107991021051012501001021MA1999999090701MD1210071+0801REMSYN082AAXX  24001 53192 32680 70000 11350 21379 39070 40618 52007 82502 333 00861 79999;
0132531920999992000012403004+44020+114950FM-12+112899999V0202501N001012200019N0300001N1-02961-03271106171ADDAY171031GF101991001001999999001021MD1210021+9999MW1001REMSYN066AAXX  24031 53192 41980 12501 11296 21327 40617 52002 70070 80002;
0203531920999992000012406004+44020+114950FM-12+112899999V0202201N002012200019N0300001N1-02681-03041105991ADDAA106000791AY171061GA1001+999999999GF100991001001999999001001KA1999N-03661MA1999999090601MD1710121+9999MW1001REMSYN082AAXX  24061 53192 11980 02202 11268 21304 39060 40599 57012 69901 70070 333 21366;
0122531920999992000012409004+44020+114950FM-12+112899999V0202701N005012200019N0300001N1-02841-03151106081ADDGA1001+999999999GF100991001001999999001001MD1210021+9999REMSYN054AAXX  24091 53192 42980 02705 11284 21315 40608 52002;
0173531920999992000012412004+44020+114950FM-12+112899999V0201401N001012200019N0300001N1-02951-03241106221ADDAA199000091GA1001+999999999GF100991001001999999001001MA1999999090681MD1210061+9999REMSYN060AAXX  24121 53192 32980 01401 11295 21324 39068 40622 52006;EQDQ01  00002PRCP99
0112531920999992000012415004+44020+114950FM-12+112899999V0202701N002019999999N0300001N1-02941-03231106001ADDGF108991001001999999001071MD1710031+9999REMSYN060AAXX  24151 53192 42980 82702 11294 21323 40600 57003 80007;
0186531920999992000012418004+44020+114950FM-12+112899999V0209999C000012200019N0300001N1-03261-03561106011ADDAA199000091GF102991001001999999001021KA1999M-02501MA1999999090651MD1410001+9999REMSYN076AAXX  24181 53192 32980 20000 11326 21356 39065 40601 54000 80002 333 11250;EQDQ01  00002PRCP99
0133531920999992000012421004+44020+114950FM-12+112899999V0209999C000012200019N0300001N1-03261-03561105991ADDAA124000791GF101991001001999999001021MD1710071+9999REMSYN070AAXX  24211 53192 42980 10000 11326 21356 40599 57007 80002 333 79999;
0160531920999992000012500004+44020+114950FM-12+112899999V0202901N002012200019N0250001N1-03171-03471105991ADDAA124000791GF103991001001999999001021MA1999999090581MD1410001-0101REMSYN082AAXX  25001 53192 32975 32902 11317 21347 39058 40599 54000 80002 333 05103 79999;
0112531920999992000012503004+44020+114950FM-12+112899999V0202701N003019999999N0250001N1-02961-03271105931ADDGF106991001001999999001021MD1210011+9999REMSYN060AAXX  25031 53192 42975 62703 11296 21327 40593 52001 80002;
0186531920999992000012506004+44020+114950FM-12+112899999V0202501N003019999999N0300001N1-02561-02891105801ADDAA199000091GF107991001001999999001021KA1999N-03381MA1999999090501MD1710091+9999REMSYN076AAXX  25061 53192 32980 72503 11256 21289 39050 40580 57009 80002 333 21338;EQDQ01  00002PRCP99
0112531920999992000012509004+44020+114950FM-12+112899999V0202701N005012200019N0300001N1-02541-02861105871ADDGF102991001001999999001021MD1210071+9999REMSYN060AAXX  25091 53192 42980 22705 11254 21286 40587 52007 80002;
0163531920999992000012512004+44020+114950FM-12+112899999V0202501N004012200019N0300001N1-02411-02711105971ADDAA199000091GF103991001001999999001021MA1999999090721MD1210151+9999REMSYN066AAXX  25121 53192 32980 32504 11241 21271 39072 40597 52015 80002;EQDQ01  00002PRCP99
0112531920999992000012515004+44020+114950FM-12+112899999V0209999C000012200019N0300001N1-02771-03031106121ADDGF101991001001999999001021MD1210081+9999REMSYN060AAXX  25151 53192 42980 10000 11277 21303 40612 52008 80002;
0196531920999992000012518004+44020+114950FM-12+112899999V0209999C000012200019N0300001N1-03141-03431106191ADDAA199000091GA1001+999999999GF100991001001999999001001KA1999M-02391MA1999999090871MD1210071+9999REMSYN070AAXX  25181 53192 32980 00000 11314 21343 39087 40619 52007 333 11239;EQDQ01  00002PRCP99
0122531920999992000012521004+44020+114950FM-12+112899999V0209999C000012200019N0300001N1-03251-03531106201ADDGA1001+999999999GF100991001001999999001001MD1710021+9999REMSYN054AAXX  25211 53192 42980 00000 11325 21353 40620 57002;
0173531920999992000012600004+44020+114950FM-12+112899999V0209999C000012200019N0200001N1-03221-03501106241ADDAA199000091GF101991001001999999001021MA1999999090931MD1210081+0041REMSYN076AAXX  26001 53192 32970 10000 11322 21350 39093 40624 52008 80002 333 00451;EQDQ01  00002PRCP99
0122531920999992000012603004+44020+114950FM-12+112899999V0202501N001012200019N0300001N1-02861-03141106311ADDGA1001+999999999GF100991001001999999001001MD1210061+9999REMSYN054AAXX  26031 53192 42980 02501 11286 21314 40631 52006;
0196531920999992000012606004+44020+114950FM-12+112899999V0202701N002012200019N0300001N1-02331-02671106061ADDAA199000091GA1001+999999999GF100991001001999999001001KA1999N-03371MA1999999090821MD1710171+9999REMSYN070AAXX  26061 53192 32980 02702 11233 21267 39082 40606 57017 333 21337;EQDQ01  00002PRCP99
0122531920999992000012609004+44020+114950FM-12+112899999V0202901N002012200019N0300001N1-02491-02791106161ADDGA1001+999999999GF100991001001999999001001MD1210011+9999REMSYN054AAXX  26091 53192 42980 02902 11249 21279 40616 52001;
0173531920999992000012612004+44020+114950FM-12+112899999V0209999C000012200019N0300001N1-02781-03041106271ADDAA199000091GA1001+999999999GF100991001001999999001001MA1999999090851MD1210021+9999REMSYN060AAXX  26121 53192 32980 00000 11278 21304 39085 40627 52002;EQDQ01  00002PRCP99
0122531920999992000012615004+44020+114950FM-12+112899999V0209999C000012200019N0300001N1-02961-03251106031ADDGA1001+999999999GF100991001001999999001001MD1710151+9999REMSYN054AAXX  26151 53192 42980 00000 11296 21325 40603 57015;
0196531920999992000012618004+44020+114950FM-12+112899999V0209999C000012200019N0300001N1-03061-03351105851ADDAA199000091GA1001+999999999GF100991001001999999001001KA1999M-02221MA1999999090671MD1710031+9999REMSYN070AAXX  26181 53192 32980 00000 11306 21335 39067 40585 57003 333 11222;EQDQ01  00002PRCP99
0122531920999992000012621004+44020+114950FM-12+112899999V0209999C000012200019N0300001N1-03241-03541105811ADDGA1001+999999999GF100991001001999999001001MD1710131+9999REMSYN054AAXX  26211 53192 42980 00000 11324 21354 40581 57013;
0183531920999992000012700004+44020+114950FM-12+112899999V0209999C000012200019N0150001N1-03371-03661105941ADDAA199000091GA1001+999999999GF100991001001999999001001MA1999999090531MD1710011+0041REMSYN070AAXX  27001 53192 32965 00000 11337 21366 39053 40594 57001 333 05452;EQDQ01  00002PRCP99
0112531920999992000012703004+44020+114950FM-12+112899999V0209999C000012200019N0300001N1-02801-03091105731ADDGF103991001001999999001021MD1710071+9999REMSYN060AAXX  27031 53192 42980 30000 11280 21309 40573 57007 80002;
0196531920999992000012706004+44020+114950FM-12+112899999V0209999C000012200019N0300001N1-02141-02451105251ADDAA199000091GA1001+999999999GF100991001001999999001001KA1999N-03431MA1999999090211MD1710251+9999REMSYN070AAXX  27061 53192 32980 00000 11214 21245 39021 40525 57025 333 21343;EQDQ01  00002PRCP99
0122531920999992000012709004+44020+114950FM-12+112899999V0209999C000012200019N0300001N1-02111-02461105181ADDGA1001+999999999GF100991001001999999001001MD1710111+9999REMSYN054AAXX  27091 53192 42980 00000 11211 21246 40518 57011;
0173531920999992000012712004+44020+114950FM-12+112899999V0209999C000012200019N0250001N1-02621-02891105251ADDAA199000091GA1001+999999999GF100991001001999999001001MA1999999089981MD1710121+9999REMSYN060AAXX  27121 53192 32975 00000 11262 21289 38998 40525 57012;EQDQ01  00002PRCP99
0122531920999992000012715004+44020+114950FM-12+112899999V0209999C000012200019N0300001N1-02931-03221105031ADDGA1001+999999999GF100991001001999999001001MD1710111+9999REMSYN054AAXX  27151 53192 42980 00000 11293 21322 40503 57011;
0196531920999992000012718004+44020+114950FM-12+112899999V0209999C000012200019N0300001N1-03131-03421104741ADDAA199000091GA1001+999999999GF100991001001999999001001KA1999M-02031MA1999999089751MD1710121+9999REMSYN070AAXX  27181 53192 32980 00000 11313 21342 38975 40474 57012 333 11203;EQDQ01  00002PRCP99
0122531920999992000012721004+44020+114950FM-12+112899999V0209999C000012200019N0300001N1-03261-03541104611ADDGA1001+999999999GF100991001001999999001001MD1710141+9999REMSYN054AAXX  27211 53192 42980 00000 11326 21354 40461 57014;
0185531920999992000012800004+44020+114950FM-12+112899999V0209999C000012200019N0090001N1-03311-03611104721ADDAA199000091GF102991001001999999001021MA1999999089551MD1710061+0101MW1101REMSYN082AAXX  28001 53192 31959 20000 11331 21361 38955 40472 57006 71000 80002 333 06001;EQDQ01  00002PRCP99
0122531920999992000012803004+44020+114950FM-12+112899999V0202201N002012200019N0300001N1-02371-02661104511ADDGA1001+999999999GF100991001001999999001001MD1710011+9999REMSYN054AAXX  28031 53192 42980 02202 11237 21266 40451 57001;
0186531920999992000012806004+44020+114950FM-12+112899999V0202501N003019999999N0300001N1-02011-02381104341ADDAA199000091GF106991001001999999001021KA1999N-03381MA1999999089441MD1710101+9999REMSYN076AAXX  28061 53192 32980 62503 11201 21238 38944 40434 57010 80002 333 21338;EQDQ01  00002PRCP99
0112531920999992000012809004+44020+114950FM-12+112899999V0202501N006012200019N0300001N1-02261-02591104521ADDGF101991001001999999001021MD1210051+9999REMSYN060AAXX  28091 53192 42980 12506 11226 21259 40452 52005 80002;
0163531920999992000012812004+44020+114950FM-12+112899999V0202501N001012200019N0300001N1-02631-02911104841ADDAA199000091GF101991001001999999001021MA1999999089651MD1210161+9999REMSYN066AAXX  28121 53192 32980 12501 11263 21291 38965 40484 52016 80002;EQDQ01  00002PRCP99
0124531920999992000012815004+44020+114950FM-12+112899999V0209999C000012200019N0300001N1-02761-03041104681ADDGF103991001001999999001021MD1210091+9999MW1701REMSYN066AAXX  28151 53192 41980 30000 11276 21304 40468 52009 77000 80002;
0193531920999992000012818004+44020+114950FM-12+112899999V0209999C000012200019N0300001N1-02901-03191104781ADDAA106000791AY171061GF104991001001999999001021KA1999M-01901MA1999999089881MD1210141+9999MW1701REMSYN088AAXX  28181 53192 11980 40000 11290 21319 38988 40478 52014 69901 77070 80002 333 11190;
0153531920999992000012821004+44020+114950FM-12+112899999V0209999C000012200019N0300001N1-03001-03291104991ADDAA124000791AY171031GF101991001001999999001021MD1210091+9999MW1001REMSYN076AAXX  28211 53192 41980 10000 11300 21329 40499 52009 70070 80002 333 79999;
0186531920999992000012900004+44020+114950FM-12+112899999V0202701N001019999999N0200001N1-02881-03171105241ADDAA106000791AY171061GF107991001001999999001021MA1999999090111MD1210141+0601MW1701REMSYN094AAXX  29001 53192 11970 72701 11288 21317 39011 40524 52014 69901 77070 80002 333 00604 79999;
0132531920999992000012903004+44020+114950FM-12+112899999V0202701N006019999999N0300001N1-02181-02521105161ADDAY171031GF106991001001999999001021MD1210091+9999MW1001REMSYN066AAXX  29031 53192 41980 62706 11218 21252 40516 52009 70070 80002;
0193531920999992000012906004+44020+114950FM-12+112899999V0202701N005019999999N0300001N1-02021-02391105151ADDAA106000791AY171061GF105991001001999999001021KA1999N-03101MA1999999090201MD1410001+9999MW1001REMSYN088AAXX  29061 53192 11980 52705 11202 21239 39020 40515 54000 69901 70070 80002 333 21310;
0122531920999992000012909004+44020+114950FM-12+112899999V0202501N004012200019N0300001N1-02211-02551105371ADDGA1001+999999999GF100991001001999999001001MD1210111+9999REMSYN054AAXX  29091 53192 42980 02504 11221 21255 40537 52011;
0154531920999992000012912004+44020+114950FM-12+112899999V0202701N001012200019N0300001N1-02471-02771105621ADDAA199000021GA1001+999999999GF100991001001999999001001MA1999999090481MD1210171+9999REMSYN060AAXX  29121 53192 32980 02701 11247 21277 39048 40562 52017;
0122531920999992000012915004+44020+114950FM-12+112899999V0203201N001012200019N0300001N1-02831-03141105521ADDGA1001+999999999GF100991001001999999001001MD1210011+9999REMSYN054AAXX  29151 53192 42980 03201 11283 21314 40552 52001;
0196531920999992000012918004+44020+114950FM-12+112899999V0209999C000012200019N0300001N1-03081-03371105511ADDAA199000091GA1001+999999999GF100991001001999999001001KA1999M-02001MA1999999090461MD1710031+9999REMSYN070AAXX  29181 53192 32980 00000 11308 21337 39046 40551 57003 333 11200;EQDQ01  00002PRCP99
0133531920999992000012921004+44020+114950FM-12+112899999V0209999C000012200019N0300001N1-03201-03481105601ADDAA124000791GF101991001001999999001021MD1710011+9999REMSYN070AAXX  29211 53192 42980 10000 11320 21348 40560 57001 80002 333 79999;
0160531920999992000013000004+44020+114950FM-12+112899999V0209999C000012200019N0250001N1-03241-03521105841ADDAA124000791GF103991001001999999001021MA1999999090571MD1210121+0501REMSYN082AAXX  30001 53192 32975 30000 11324 21352 39057 40584 52012 80002 333 00554 79999;
0122531920999992000013003004+44020+114950FM-12+112899999V0202201N001012200019N0300001N1-02801-03091106061ADDGA1001+999999999GF100991001001999999001001MD1210211+9999REMSYN054AAXX  30031 53192 42980 02201 11280 21309 40606 52021;
0196531920999992000013006004+44020+114950FM-12+112899999V0202201N002012200019N0300001N1-02431-02781106031ADDAA199000091GA1001+999999999GF100991001001999999001001KA1999N-03301MA1999999090791MD1210011+9999REMSYN070AAXX  30061 53192 32980 02202 11243 21278 39079 40603 52001 333 21330;EQDQ01  00002PRCP99
0122531920999992000013009004+44020+114950FM-12+112899999V0202701N005012200019N0300001N1-02491-02821106221ADDGA1001+999999999GF100991001001999999001001MD1210111+9999REMSYN054AAXX  30091 53192 42980 02705 11249 21282 40622 52011;
0163531920999992000013012004+44020+114950FM-12+112899999V0202901N003012200019N0300001N1-02631-02931106431ADDAA199000091GF101991001001999999001021MA1999999091031MD1210131+9999REMSYN066AAXX  30121 53192 32980 12903 11263 21293 39103 40643 52013 80002;EQDQ01  00002PRCP99
0122531920999992000013015004+44020+114950FM-12+112899999V0209999C000012200019N0300001N1-02891-03181106471ADDGA1001+999999999GF100991001001999999001001MD1210081+9999REMSYN054AAXX  30151 53192 42980 00000 11289 21318 40647 52008;
0196531920999992000013018004+44020+114950FM-12+112899999V0202901N001012200019N0300001N1-03261-03541106471ADDAA199000091GA1001+999999999GF100991001001999999001001KA1999M-02361MA1999999091111MD1410001+9999REMSYN070AAXX  30181 53192 32980 02901 11326 21354 39111 40647 54000 333 11236;EQDQ01  00002PRCP99
0122531920999992000013021004+44020+114950FM-12+112899999V0209999C000012200019N0300001N1-03341-03631106441ADDGA1001+999999999GF100991001001999999001001MD1710061+9999REMSYN054AAXX  30211 53192 42980 00000 11334 21363 40644 57006;
0185531920999992000013100004+44020+114950FM-12+112899999V0209999C000012200019N0070001N1-03551-03841106501ADDAA199000091GF101991001001999999001021MA1999999091001MD1710051+0041MW1101REMSYN082AAXX  31001 53192 31957 10000 11355 21384 39100 40650 57005 71000 80002 333 00453;EQDQ01  00002PRCP99
0122531920999992000013103004+44020+114950FM-12+112899999V0209999C000012200019N0300001N1-02861-03151106391ADDGA1001+999999999GF100991001001999999001001MD1210031+9999REMSYN054AAXX  31031 53192 42980 00000 11286 21315 40639 52003;
0196531920999992000013106004+44020+114950FM-12+112899999V0202501N002012200019N0300001N1-02601-02931106221ADDAA199000091GA1001+999999999GF100991001001999999001001KA1999N-03591MA1999999090851MD1710181+9999REMSYN070AAXX  31061 53192 32980 02502 11260 21293 39085 40622 57018 333 21359;EQDQ01  00002PRCP99
0122531920999992000013109004+44020+114950FM-12+112899999V0202201N001012200019N0300001N1-02621-02931106091ADDGA1001+999999999GF100991001001999999001001MD1710141+9999REMSYN054AAXX  31091 53192 42980 02201 11262 21293 40609 57014;
0173531920999992000013112004+44020+114950FM-12+112899999V0209999C000012200019N0300001N1-03031-03321106191ADDAA199000091GA1001+999999999GF100991001001999999001001MA1999999090611MD1710101+9999REMSYN060AAXX  31121 53192 32980 00000 11303 21332 39061 40619 57010;EQDQ01  00002PRCP99
0122531920999992000013115004+44020+114950FM-12+112899999V0209999C000012200019N0300001N1-03231-03511105941ADDGA1001+999999999GF100991001001999999001001MD1710071+9999REMSYN054AAXX  31151 53192 42980 00000 11323 21351 40594 57007;
0196531920999992000013118004+44020+114950FM-12+112899999V0209999C000012200019N0300001N1-03291-03591105681ADDAA199000091GA1001+999999999GF100991001001999999001001KA1999M-02431MA1999999090381MD1710161+9999REMSYN070AAXX  31181 53192 32980 00000 11329 21359 39038 40568 57016 333 11243;EQDQ01  00002PRCP99
0122531920999992000013121004+44020+114950FM-12+112899999V0209999C000012200019N0300001N1-03561-03851105541ADDGA1001+999999999GF100991001001999999001001MD1710201+9999REMSYN054AAXX  31211 53192 42980 00000 11356 21385 40554 57020;
0183531920999992000020100004+44020+114950FM-12+112899999V0209999C000012200019N0300001N1-03561-03851105641ADDAA199000091GA1001+999999999GF100991001001999999001001MA1999999090141MD1710041+0091REMSYN070AAXX  01001 53192 32980 00000 11356 21385 39014 40564 57004 333 05900;EQDQ01  00002PRCP99
0112531920999992000020103004+44020+114950FM-12+112899999V0202501N002012200019N0300001N1-03101-03401105421ADDGF101991001001999999001021MD1710111+9999REMSYN060AAXX  01031 53192 42980 12502 11310 21340 40542 57011 80002;
0186531920999992000020106004+44020+114950FM-12+112899999V0202501N002012200019N0300001N1-02541-02831105051ADDAA199000091GF104991001001999999001021KA1999N-03641MA1999999089861MD1710171+9999REMSYN076AAXX  01061 53192 32980 42502 11254 21283 38986 40505 57017 80002 333 21364;EQDQ01  00002PRCP99
0112531920999992000020109004+44020+114950FM-12+112899999V0202701N002012200019N0300001N1-02621-02921105101ADDGF104991001001999999001021MD1710061+9999REMSYN060AAXX  01091 53192 42980 42702 11262 21292 40510 57006 80002;
0163531920999992000020112004+44020+114950FM-12+112899999V0209999C000012200019N0300001N1-02881-03171105151ADDAA199000091GF101991001001999999001021MA1999999089771MD1710031+9999REMSYN066AAXX  01121 53192 32980 10000 11288 21317 38977 40515 57003 80002;EQDQ01  00002PRCP99
0122531920999992000020115004+44020+114950FM-12+112899999V0209999C000012200019N0300001N1-03111-03401105061ADDGA1001+999999999GF100991001001999999001001MD1710011+9999REMSYN054AAXX  01151 53192 42980 00000 11311 21340 40506 57001;
0196531920999992000020118004+44020+114950FM-12+112899999V0209999C000012200019N0300001N1-03251-03531104911ADDAA199000091GA1001+999999999GF100991001001999999001001KA1999M-02361MA1999999089751MD1710011+9999REMSYN070AAXX  01181 53192 32980 00000 11325 21353 38975 40491 57001 333 11236;EQDQ01  00002PRCP99
0122531920999992000020121004+44020+114950FM-12+112899999V0209999C000012200019N0300001N1-03281-03581104851ADDGA1001+999999999GF100991001001999999001001MD1710081+9999REMSYN054AAXX  01211 53192 42980 00000 11328 21358 40485 57008;
0173531920999992000020200004+44020+114950FM-12+112899999V0209999C000012200019N0200001N1-03221-03521104941ADDAA199000091GF101991001001999999001021MA1999999089691MD1210021+0051REMSYN076AAXX  02001 53192 32970 10000 11322 21352 38969 40494 52002 80002 333 05503;EQDQ01  00002PRCP99
0122531920999992000020203004+44020+114950FM-12+112899999V0202701N003012200019N0300001N1-02831-03121104951ADDGA1001+999999999GF100991001001999999001001MD1210051+9999REMSYN054AAXX  02031 53192 42980 02703 11283 21312 40495 52005;
0186531920999992000020206004+44020+114950FM-12+112899999V0202701N003012200019N0300001N1-02421-02741104711ADDAA199000091GF102991001001999999001021KA1999N-03371MA1999999089611MD1710131+9999REMSYN076AAXX  02061 53192 32980 22703 11242 21274 38961 40471 57013 80002 333 21337;EQDQ01  00002PRCP99
0112531920999992000020209004+44020+114950FM-12+112899999V0202701N002012200019N0300001N1-02441-02771104701ADDGF101991001001999999001021MD1710021+9999REMSYN060AAXX  02091 53192 42980 12702 11244 21277 40470 57002 80002;
0173531920999992000020212004+44020+114950FM-12+112899999V0209999C000012200019N0300001N1-02781-03071104861ADDAA199000091GA1001+999999999GF100991001001999999001001MA1999999089651MD1210061+9999REMSYN060AAXX  02121 53192 32980 00000 11278 21307 38965 40486 52006;EQDQ01  00002PRCP99
0122531920999992000020215004+44020+114950FM-12+112899999V0209999C000012200019N0300001N1-03021-03311104781ADDGA1001+999999999GF100991001001999999001001MD1710031+9999REMSYN054AAXX  02151 53192 42980 00000 11302 21331 40478 57003;
0196531920999992000020218004+44020+114950FM-12+112899999V0209999C000012200019N0300001N1-03121-03411104671ADDAA199000091GA1001+999999999GF100991001001999999001001KA1999M-02321MA1999999089611MD1710011+9999REMSYN070AAXX  02181 53192 32980 00000 11312 21341 38961 40467 57001 333 11232;EQDQ01  00002PRCP99
0122531920999992000020221004+44020+114950FM-12+112899999V0209999C000012200019N0300001N1-03061-03351104581ADDGA1001+999999999GF100991001001999999001001MD1710061+9999REMSYN054AAXX  02211 53192 42980 00000 11306 21335 40458 57006;
0183531920999992000020300004+44020+114950FM-12+112899999V0209999C000012200019N0300001N1-03071-03361104761ADDAA199000091GA1001+999999999GF100991001001999999001001MA1999999089601MD1210051+0011REMSYN070AAXX  03001 53192 32980 00000 11307 21336 38960 40476 52005 333 05102;EQDQ01  00002PRCP99
0112531920999992000020303004+44020+114950FM-12+112899999V0209999C000012200019N0300001N1-02421-02711104671ADDGF101991001001999999001021MD1210041+9999REMSYN060AAXX  03031 53192 42980 10000 11242 21271 40467 52004 80002;
0186531920999992000020306004+44020+114950FM-12+112899999V0202501N004019999999N0300001N1-02001-02381104421ADDAA199000091GF106991001001999999001021KA1999N-03211MA1999999089521MD1710121+9999REMSYN076AAXX  03061 53192 32980 62504 11200 21238 38952 40442 57012 80002 333 21321;EQDQ01  00002PRCP99
0112531920999992000020309004+44020+114950FM-12+112899999V0202201N001012200019N0300001N1-01921-02341104391ADDGF102991001001999999001021MD1210011+9999REMSYN060AAXX  03091 53192 42980 22201 11192 21234 40439 52001 80002;
0173531920999992000020312004+44020+114950FM-12+112899999V0209999C000012200019N0300001N1-02351-02671104491ADDAA199000091GA1001+999999999GF100991001001999999001001MA1999999089491MD1710041+9999REMSYN060AAXX  03121 53192 32980 00000 11235 21267 38949 40449 57004;EQDQ01  00002PRCP99
0122531920999992000020315004+44020+114950FM-12+112899999V0209999C000012200019N0250001N1-02711-03011104321ADDGA1001+999999999GF100991001001999999001001MD1710061+9999REMSYN054AAXX  03151 53192 42975 00000 11271 21301 40432 57006;
0212531920999992000020318004+44020+114950FM-12+112899999V0209999C000012200019N0300001N1-02711-03011103572ADDAA199000091GA1001+999999999GF100991001001999999001001KA1999M-01701MA1999999089421MD1710011+9999REMSYN070AAXX  03181 53192 32980 00000 11271 21301 38942 40357 57001 333 11170;EQDQ01+103573APOSLPQ02  00002PRCP99
0122531920999992000020321004+44020+114950FM-12+112899999V0209999C000012200019N0300001N1-02771-03061104071ADDGA1001+999999999GF100991001001999999001001MD1710091+9999REMSYN054AAXX  03211 53192 42980 00000 11277 21306 40407 57009;
0173531920999992000020400004+44020+114950FM-12+112899999V0209999C000012200019N0250001N1-02901-03191104261ADDAA199000091GF103991001001999999001021MA1999999089341MD1210011+0031REMSYN076AAXX  04001 53192 32975 30000 11290 21319 38934 40426 52001 80002 333 05302;EQDQ01  00002PRCP99
0112531920999992000020403004+44020+114950FM-12+112899999V0209999C000012200019N0300001N1-02181-02571104141ADDGF101991001001999999001021MD1410001+9999REMSYN060AAXX  04031 53192 42980 10000 11218 21257 40414 54000 80002;
0186531920999992000020406004+44020+114950FM-12+112899999V0209999C000012200019N0300001N1-01481-01991103741ADDAA199000091GF101991001001999999001021KA1999N-03151MA1999999089181MD1710161+9999REMSYN076AAXX  04061 53192 32980 10000 11148 21199 38918 40374 57016 80002 333 21315;EQDQ01  00002PRCP99
0112531920999992000020409004+44020+114950FM-12+112899999V0209999C000012200019N0300001N1-01581-02071103701ADDGF102991001001999999001021MD1710071+9999REMSYN060AAXX  04091 53192 42980 20000 11158 21207 40370 57007 80002;
0163531920999992000020412004+44020+114950FM-12+112899999V0209999C000012200019N0300001N1-02001-02351103891ADDAA199000091GF102991001001999999001021MA1999999089121MD1210011+9999REMSYN066AAXX  04121 53192 32980 20000 11200 21235 38912 40389 52001 80002;EQDQ01  00002PRCP99
0112531920999992000020415004+44020+114950FM-12+112899999V0200201N002012200019N0300001N1-01951-02301103531ADDGF101991001001999999001021MD1710101+9999REMSYN060AAXX  04151 53192 42980 10202 11195 21230 40353 57010 80002;
0196531920999992000020418004+44020+114950FM-12+112899999V0200401N002012200019N0300001N1-02251-02581103241ADDAA199000091GA1001+999999999GF100991001001999999001001KA1999M-01441MA1999999088871MD1710151+9999REMSYN070AAXX  04181 53192 32980 00402 11225 21258 38887 40324 57015 333 11144;EQDQ01  00002PRCP99
0122531920999992000020421004+44020+114950FM-12+112899999V0209999C000012200019N0300001N1-02301-02621103181ADDGA1001+999999999GF100991001001999999001001MD1710091+9999REMSYN054AAXX  04211 53192 42980 00000 11230 21262 40318 57009;
0185531920999992000020500004+44020+114950FM-12+112899999V0209999C000012200019N0005001N1-02081-02391103251ADDAA199000091GF103991001001999999001021MA1999999088791MD1210011+0061MW1461REMSYN082AAXX  05001 53192 31905 30000 11208 21239 38879 40325 52001 74600 80002 333 05608;EQDQ01  00002PRCP99
0132531920999992000020503004+44020+114950FM-12+112899999V0209999C000012200019N0300001N1-01531-01931103081ADDAY141031GF101991001001999999001021MD1210011+9999MW1001REMSYN066AAXX  05031 53192 41980 10000 11153 21193 40308 52001 70040 80002;
0206531920999992000020506004+44020+114950FM-12+112899999V0202501N003012200019N0300001N1-01331-01721103021ADDAA199000091AY141061GF101991001001999999001021KA1999N-02331MA1999999088721MD1710081+9999MW1001REMSYN082AAXX  05061 53192 31980 12503 11133 21172 38872 40302 57008 70040 80002 333 21233;EQDQ01  00002PRCP99
0112531920999992000020509004+44020+114950FM-12+112899999V0202501N003012200019N0300001N1-01721-02061103261ADDGF102991001001999999001021MD1210101+9999REMSYN060AAXX  05091 53192 42980 22503 11172 21206 40326 52010 80002;
0173531920999992000020512004+44020+114950FM-12+112899999V0202201N001012200019N0300001N1-02031-02311103451ADDAA199000091GA1001+999999999GF100991001001999999001001MA1999999088961MD1210141+9999REMSYN060AAXX  05121 53192 32980 02201 11203 21231 38896 40345 52014;EQDQ01  00002PRCP99
0122531920999992000020515004+44020+114950FM-12+112899999V0209999C000012200019N0300001N1-02321-02601103411ADDGA1001+999999999GF100991001001999999001001MD1210031+9999REMSYN054AAXX  05151 53192 42980 00000 11232 21260 40341 52003;
0196531920999992000020518004+44020+114950FM-12+112899999V0209999C000012200019N0300001N1-02541-02831103521ADDAA199000091GA1001+999999999GF100991001001999999001001KA1999M-01241MA1999999089081MD1210091+9999REMSYN070AAXX  05181 53192 32980 00000 11254 21283 38908 40352 52009 333 11124;EQDQ01  00002PRCP99
0122531920999992000020521004+44020+114950FM-12+112899999V0209999C000012200019N0300001N1-02871-03151103791ADDGA1001+999999999GF100991001001999999001001MD1210041+9999REMSYN054AAXX  05211 53192 42980 00000 11287 21315 40379 52004;
0173531920999992000020600004+44020+114950FM-12+112899999V0209999C000019999999N0200001N1-02901-03191103931ADDAA199000091GF106991001001999999001021MA1999999089151MD1210031+0041REMSYN076AAXX  06001 53192 32970 60000 11290 21319 38915 40393 52003 80002 333 00458;EQDQ01  00002PRCP99
0112531920999992000020603004+44020+114950FM-12+112899999V0202501N001019999999N0300001N1-02491-02781103941ADDGF105991001001999999001021MD1210041+9999REMSYN060AAXX  06031 53192 42980 52501 11249 21278 40394 52004 80002;
0186531920999992000020606004+44020+114950FM-12+112899999V0209999C000012200019N0300001N1-01871-02221103681ADDAA199000091GF102991001001999999001021KA1999N-03101MA1999999089071MD1710121+9999REMSYN076AAXX  06061 53192 32980 20000 11187 21222 38907 40368 57012 80002 333 21310;EQDQ01  00002PRCP99
0112531920999992000020609004+44020+114950FM-12+112899999V0202701N003019999999N0300001N1-02101-02411103901ADDGF107991001001999999001021MD1210041+9999REMSYN060AAXX  06091 53192 42980 72703 11210 21241 40390 52004 80002;
0163531920999992000020612004+44020+114950FM-12+112899999V0202501N001012200019N0300001N1-02531-02801104191ADDAA199000091GF102991001001999999001021MA1999999089231MD1210121+9999REMSYN066AAXX  06121 53192 32980 22501 11253 21280 38923 40419 52012 80002;EQDQ01  00002PRCP99
0122531920999992000020615004+44020+114950FM-12+112899999V0209999C000012200019N0300001N1-02501-02771104061ADDGA1001+999999999GF100991001001999999001001MD1210011+9999REMSYN054AAXX  06151 53192 42980 00000 11250 21277 40406 52001;
0196531920999992000020618004+44020+114950FM-12+112899999V0209999C000012200019N0300001N1-02821-03101103871ADDAA199000091GA1001+999999999GF100991001001999999001001KA1999M-01851MA1999999089161MD1710081+9999REMSYN070AAXX  06181 53192 32980 00000 11282 21310 38916 40387 57008 333 11185;EQDQ01  00002PRCP99
0122531920999992000020621004+44020+114950FM-12+112899999V0209999C000012200019N0300001N1-02991-03281103761ADDGA1001+999999999GF100991001001999999001001MD1710201+9999REMSYN054AAXX  06211 53192 42980 00000 11299 21328 40376 57020;
0173531920999992000020700004+44020+114950FM-12+112899999V0209999C000019999999N0200001N1-03031-03321103841ADDAA199000091GF105991021001999999031021MA1999999088901MD1710061+0031REMSYN076AAXX  07001 53192 32970 50000 11303 21332 38890 40384 57006 82032 333 05351;EQDQ01  00002PRCP99
0112531920999992000020703004+44020+114950FM-12+112899999V0202701N001012200019N0300001N1-02211-02491103621ADDGF101991001001999999001021MD1210041+9999REMSYN060AAXX  07031 53192 42980 12701 11221 21249 40362 52004 80002;
0196531920999992000020706004+44020+114950FM-12+112899999V0202901N004012200019N0300001N1-01971-02301103641ADDAA199000091GA1001+999999999GF100991001001999999001001KA1999N-03151MA1999999088941MD1410001+9999REMSYN070AAXX  07061 53192 32980 02904 11197 21230 38894 40364 54000 333 21315;EQDQ01  00002PRCP99
0112531920999992000020709004+44020+114950FM-12+112899999V0202901N001012200019N0300001N1-02081-02461103931ADDGF101991001001999999001021MD1210171+9999REMSYN060AAXX  07091 53192 42980 12901 11208 21246 40393 52017 80002;
0163531920999992000020712004+44020+114950FM-12+112899999V0202701N001012200019N0300001N1-02571-02871104381ADDAA199000091GF101991001001999999001021MA1999999089351MD1210241+9999REMSYN066AAXX  07121 53192 32980 12701 11257 21287 38935 40438 52024 80002;EQDQ01  00002PRCP99
0122531920999992000020715004+44020+114950FM-12+112899999V0202701N002012200019N0300001N1-02811-03091104361ADDGA1001+999999999GF100991001001999999001001MD1210141+9999REMSYN054AAXX  07151 53192 42980 02702 11281 21309 40436 52014;
0196531920999992000020718004+44020+114950FM-12+112899999V0209999C000012200019N0300001N1-02971-03261104491ADDAA199000091GA1001+999999999GF100991001001999999001001KA1999M-01901MA1999999089631MD1210141+9999REMSYN070AAXX  07181 53192 32980 00000 11297 21326 38963 40449 52014 333 11190;EQDQ01  00002PRCP99
0122531920999992000020721004+44020+114950FM-12+112899999V0209999C000012200019N0300001N1-03291-03591104621ADDGA1001+999999999GF100991001001999999001001MD1710011+9999REMSYN054AAXX  07211 53192 42980 00000 11329 21359 40462 57001;
0183531920999992000020800004+44020+114950FM-12+112899999V0209999C000012200019N0300001N1-03361-03651104831ADDAA199000091GA1001+999999999GF100991001001999999001001MA1999999089641MD1210021+0071REMSYN070AAXX  08001 53192 32980 00000 11336 21365 38964 40483 52002 333 00753;EQDQ01  00002PRCP99
0112531920999992000020803004+44020+114950FM-12+112899999V0202501N002012200019N0300001N1-02801-03091104661ADDGF101991001001999999001021MD1710051+9999REMSYN060AAXX  08031 53192 42980 12502 11280 21309 40466 57005 80002;
0196531920999992000020806004+44020+114950FM-12+112899999V0202201N003012200019N0300001N1-02171-02501104301ADDAA199000091GA1001+999999999GF100991001001999999001001KA1999N-03501MA1999999089411MD1710181+9999REMSYN070AAXX  08061 53192 32980 02203 11217 21250 38941 40430 57018 333 21350;EQDQ01  00002PRCP99
0112531920999992000020809004+44020+114950FM-12+112899999V0202501N002012200019N0300001N1-02021-02421104291ADDGF102991001001999999001021MD1710061+9999REMSYN060AAXX  08091 53192 42980 22502 11202 21242 40429 57006 80002;
0173531920999992000020812004+44020+114950FM-12+112899999V0209999C000012200019N0300001N1-02491-02811104371ADDAA199000091GA1001+999999999GF100991001001999999001001MA1999999089271MD1710081+9999REMSYN060AAXX  08121 53192 32980 00000 11249 21281 38927 40437 57008;EQDQ01  00002PRCP99
0122531920999992000020815004+44020+114950FM-12+112899999V0202901N001012200019N0300001N1-02841-03131104161ADDGA1001+999999999GF100991001001999999001001MD1710121+9999REMSYN054AAXX  08151 53192 42980 02901 11284 21313 40416 57012;
0196531920999992000020818004+44020+114950FM-12+112899999V0209999C000012200019N0300001N1-02871-03181103911ADDAA199000091GA1001+999999999GF100991001001999999001001KA1999M-01971MA1999999089101MD1710051+9999REMSYN070AAXX  08181 53192 32980 00000 11287 21318 38910 40391 57005 333 11197;EQDQ01  00002PRCP99
0122531920999992000020821004+44020+114950FM-12+112899999V0209999C000012200019N0300001N1-02951-03261103791ADDGA1001+999999999GF100991001001999999001001MD1710081+9999REMSYN054AAXX  08211 53192 42980 00000 11295 21326 40379 57008;
0173531920999992000020900004+44020+114950FM-12+112899999V0209999C000012200019N0300001N1-02801-03131103851ADDAA199000091GF102991001001999999001021MA1999999088981MD1710041+0071REMSYN076AAXX  09001 53192 32980 20000 11280 21313 38898 40385 57004 80002 333 05706;EQDQ01  00002PRCP99
0112531920999992000020903004+44020+114950FM-12+112899999V0209999C000012200019N0300001N1-01821-02301103601ADDGF103991001001999999001021MD1710041+9999REMSYN060AAXX  09031 53192 42980 30000 11182 21230 40360 57004 80002;
0186531920999992000020906004+44020+114950FM-12+112899999V0201601N002012200019N0300001N1-01561-02011103361ADDAA199000091GF104991001001999999001021KA1999N-03061MA1999999088791MD1710151+9999REMSYN076AAXX  09061 53192 32980 41602 11156 21201 38879 40336 57015 80002 333 21306;EQDQ01  00002PRCP99
0112531920999992000020909004+44020+114950FM-12+112899999V0201401N001012200019N0300001N1-01521-02051103231ADDGF102991001001999999001021MD1710121+9999REMSYN060AAXX  09091 53192 42980 21401 11152 21205 40323 57012 80002;
0163531920999992000020912004+44020+114950FM-12+112899999V0209999C000012200019N0250001N1-02061-02461103341ADDAA199000091GF101991001001999999001021MA1999999088661MD1710011+9999REMSYN066AAXX  09121 53192 32975 10000 11206 21246 38866 40334 57001 80002;EQDQ01  00002PRCP99
0122531920999992000020915004+44020+114950FM-12+112899999V0200401N001012200019N0300001N1-02441-02831103081ADDGA1001+999999999GF100991001001999999001001MD1710061+9999REMSYN054AAXX  09151 53192 42980 00401 11244 21283 40308 57006;
0196531920999992000020918004+44020+114950FM-12+112899999V0209999C000012200019N0300001N1-02641-02971103041ADDAA199000091GA1001+999999999GF100991001001999999001001KA1999M-01251MA1999999088581MD1710021+9999REMSYN070AAXX  09181 53192 32980 00000 11264 21297 38858 40304 57002 333 11125;EQDQ01  00002PRCP99
0122531920999992000020921004+44020+114950FM-12+112899999V0209999C000012200019N0300001N1-02761-03071102971ADDGA1001+999999999GF100991001001999999001001MD1710081+9999REMSYN054AAXX  09211 53192 42980 00000 11276 21307 40297 57008;
0173531920999992000021000004+44020+114950FM-12+112899999V0209999C000012200019N0250001N1-02871-03181103341ADDAA199000091GF101991001001999999001021MA1999999088641MD1210141+0031REMSYN076AAXX  10001 53192 32975 10000 11287 21318 38864 40334 52014 80002 333 05351;EQDQ01  00002PRCP99
0112531920999992000021003004+44020+114950FM-12+112899999V0202501N002012200019N0300001N1-02341-02701103411ADDGF101991001001999999001021MD1210101+9999REMSYN060AAXX  10031 53192 42980 12502 11234 21270 40341 52010 80002;
0196531920999992000021006004+44020+114950FM-12+112899999V0202201N004012200019N0300001N1-01771-02181103201ADDAA199000091GA1001+999999999GF100991001001999999001001KA1999N-02921MA1999999088661MD1710081+9999REMSYN070AAXX  10061 53192 32980 02204 11177 21218 38866 40320 57008 333 21292;EQDQ01  00002PRCP99
0122531920999992000021009004+44020+114950FM-12+112899999V0202701N003012200019N0300001N1-01841-02211103351ADDGA1001+999999999GF100991001001999999001001MD1210081+9999REMSYN054AAXX  10091 53192 42980 02703 11184 21221 40335 52008;
0173531920999992000021012004+44020+114950FM-12+112899999V0209999C000012200019N0300001N1-02121-02401103601ADDAA199000091GA1001+999999999GF100991001001999999001001MA1999999088851MD1210111+9999REMSYN060AAXX  10121 53192 32980 00000 11212 21240 38885 40360 52011;EQDQ01  00002PRCP99
0122531920999992000021015004+44020+114950FM-12+112899999V0209999C000012200019N0300001N1-02201-02481103481ADDGA1001+999999999GF100991001001999999001001MD1210021+9999REMSYN054AAXX  10151 53192 42980 00000 11220 21248 40348 52002;
0196531920999992000021018004+44020+114950FM-12+112899999V0209999C000012200019N0300001N1-02501-02791103361ADDAA199000091GA1001+999999999GF100991001001999999001001KA1999M-01641MA1999999088841MD1710031+9999REMSYN070AAXX  10181 53192 32980 00000 11250 21279 38884 40336 57003 333 11164;EQDQ01  00002PRCP99
0122531920999992000021021004+44020+114950FM-12+112899999V0209999C000012200019N0300001N1-02661-02941103281ADDGA1001+999999999GF100991001001999999001001MD1710131+9999REMSYN054AAXX  10211 53192 42980 00000 11266 21294 40328 57013;
0183531920999992000021100004+44020+114950FM-12+112899999V0209999C000012200019N0300001N1-02321-02611103241ADDAA199000091GA1001+999999999GF100991001001999999001001MA1999999088691MD1710021+0011REMSYN070AAXX  11001 53192 32980 00000 11232 21261 38869 40324 57002 333 00106;EQDQ01  00002PRCP99
0122531920999992000021103004+44020+114950FM-12+112899999V0202501N002012200019N0300001N1-01701-02011103101ADDGA1001+999999999GF100991001001999999001001MD1210021+9999REMSYN054AAXX  11031 53192 42980 02502 11170 21201 40310 52002;
0186531920999992000021106004+44020+114950FM-12+112899999V0202201N002012200019N0300001N1-01181-01571102921ADDAA199000091GF101991001001999999001021KA1999N-02701MA1999999088611MD1710101+9999REMSYN076AAXX  11061 53192 32980 12202 11118 21157 38861 40292 57010 80002 333 21270;EQDQ01  00002PRCP99
0112531920999992000021109004+44020+114950FM-12+112899999V0209999C000012200019N0300001N1-01021-01461102851ADDGF101991001001999999001021MD1710061+9999REMSYN060AAXX  11091 53192 42980 10000 11102 21146 40285 57006 80002;
0173531920999992000021112004+44020+114950FM-12+112899999V0209999C000012200019N0300001N1-01601-01911103051ADDAA199000091GA1001+999999999GF100991001001999999001001MA1999999088661MD1210111+9999REMSYN060AAXX  11121 53192 32980 00000 11160 21191 38866 40305 52011;EQDQ01  00002PRCP99
0122531920999992000021115004+44020+114950FM-12+112899999V0200201N003012200019N0300001N1-01741-02031102921ADDGA1001+999999999GF100991001001999999001001MD1210011+9999REMSYN054AAXX  11151 53192 42980 00203 11174 21203 40292 52001;
0196531920999992000021118004+44020+114950FM-12+112899999V0209999C000012200019N0300001N1-01901-02191102831ADDAA199000091GA1001+999999999GF100991001001999999001001KA1999M-00981MA1999999088691MD1210021+9999REMSYN070AAXX  11181 53192 32980 00000 11190 21219 38869 40283 52002 333 11098;EQDQ01  00002PRCP99
0122531920999992000021121004+44020+114950FM-12+112899999V0200401N003012200019N0300001N1-01601-01881102651ADDGA1001+999999999GF100991001001999999001001MD1710041+9999REMSYN054AAXX  11211 53192 42980 00403 11160 21188 40265 57004;
0173531920999992000021200004+44020+114950FM-12+112899999V0200401N002012200019N0300001N1-01691-01931102871ADDAA199000091GF102991001001999999001021MA1999999088671MD1210021+0001REMSYN076AAXX  12001 53192 32980 20402 11169 21193 38867 40287 52002 80002 333 00006;EQDQ01  00002PRCP99
0112531920999992000021203004+44020+114950FM-12+112899999V0200701N004019999999N0300001N1-01221-01671102791ADDGF107991001001999999001021MD1210011+9999REMSYN060AAXX  12031 53192 42980 70704 11122 21167 40279 52001 80002;
0186531920999992000021206004+44020+114950FM-12+112899999V0200701N005019999999N0300001N1-01091-01581102611ADDAA199000091GF107991001001999999001021KA1999N-01951MA1999999088521MD1710161+9999REMSYN076AAXX  12061 53192 32980 70705 11109 21158 38852 40261 57016 80002 333 21195;EQDQ01  00002PRCP99
0112531920999992000021209004+44020+114950FM-12+112899999V0200701N006019999999N0300001N1-01311-01811102661ADDGF107991001001999999001021MD1210061+9999REMSYN060AAXX  12091 53192 42980 70706 11131 21181 40266 52006 80002;
0163531920999992000021212004+44020+114950FM-12+112899999V0200401N002019999999N0300001N1-01481-01901102951ADDAA199000091GF107991001001999999001021MA1999999088771MD1210191+9999REMSYN066AAXX  12121 53192 32980 70402 11148 21190 38877 40295 52019 80002;EQDQ01  00002PRCP99
0132531920999992000021215004+44020+114950FM-12+112899999V0200201N005019999999N0300001N1-01501-01861102981ADDAY171031GF107991001001999999001021MD1210141+9999MW1701REMSYN066AAXX  12151 53192 41980 70205 11150 21186 40298 52014 77070 80002;
0193531920999992000021218004+44020+114950FM-12+112899999V0200201N003012200019N0300001N1-01861-02151103171ADDAA106000791AY171061GF104991001001999999001021KA1999M-01051MA1999999089011MD1210101+9999MW1001REMSYN088AAXX  12181 53192 11980 40203 11186 21215 38901 40317 52010 69901 70070 80002 333 11105;
0143531920999992000021221004+44020+114950FM-12+112899999V0209999C000012200019N0300001N1-02131-02461103351ADDAA124000791GA1001+999999999GF100991001001999999001001MD1210031+9999REMSYN064AAXX  12211 53192 42980 00000 11213 21246 40335 52003 333 79999;
0160531920999992000021300004+44020+114950FM-12+112899999V0209999C000012200019N0250001N1-02221-02531103471ADDAA124000791GF104991001001999999001021MA1999999089081MD1210041+0401REMSYN082AAXX  13001 53192 32975 40000 11222 21253 38908 40347 52004 80002 333 00455 79999;
0112531920999992000021303004+44020+114950FM-12+112899999V0202201N001019999999N0300001N1-01591-02021103341ADDGF106991001001999999001021MD1210041+9999REMSYN060AAXX  13031 53192 42980 62201 11159 21202 40334 52004 80002;
0193531920999992000021306004+44020+114950FM-12+112899999V0202701N002019999999N0300001N1-01441-01881103291ADDAA106000791AY171061GF107991001001999999001021KA1999N-02311MA1999999089031MD1710091+9999MW1001REMSYN088AAXX  13061 53192 11980 72702 11144 21188 38903 40329 57009 69901 70070 80002 333 21231;
0132531920999992000021309004+44020+114950FM-12+112899999V0202501N004012200019N0300001N1-01511-01871103341ADDAY171031GF102991001001999999001021MD1710051+9999MW1001REMSYN066AAXX  13091 53192 41980 22504 11151 21187 40334 57005 70070 80002;
0170531920999992000021312004+44020+114950FM-12+112899999V0202501N003019999999N0300001N1-02001-02281103621ADDAA106000191AY171061GF106991001001999999001021MA1999999089071MD1210091+9999MW1701REMSYN078AAXX  13121 53192 11980 62503 11200 21228 38907 40362 52009 69911 77070 80002;
0132531920999992000021315004+44020+114950FM-12+112899999V0202701N004012200019N0300001N1-01901-02201103481ADDAY171031GF102991001001999999001021MD1210071+9999MW1001REMSYN066AAXX  13151 53192 41980 22704 11190 21220 40348 52007 70070 80002;
0203531920999992000021318004+44020+114950FM-12+112899999V0202501N001012200019N0300001N1-02331-02601103441ADDAA106000191AY171061GA1001+999999999GF100991001001999999001001KA1999M-01291MA1999999089041MD1710101+9999MW1001REMSYN082AAXX  13181 53192 11980 02501 11233 21260 38904 40344 57010 69911 70070 333 11129;
0143531920999992000021321004+44020+114950FM-12+112899999V0209999C000012200019N0300001N1-02561-02811103471ADDAA124000391GA1001+999999999GF100991001001999999001001MD1710061+9999REMSYN064AAXX  13211 53192 42980 00000 11256 21281 40347 57006 333 70002;
0170531920999992000021400004+44020+114950FM-12+112899999V0202501N003012200019N0300001N1-02541-02831103621ADDAA124000391GA1001+999999999GF100991001001999999001001MA1999999088991MD1210011-0101REMSYN076AAXX  14001 53192 32980 02503 11254 21283 38899 40362 52001 333 05153 70002;
0112531920999992000021403004+44020+114950FM-12+112899999V0202501N003019999999N0300001N1-02151-02461103591ADDGF105991001001999999001021MD1210101+9999REMSYN060AAXX  14031 53192 42980 52503 11215 21246 40359 52010 80002;
0186531920999992000021406004+44020+114950FM-12+112899999V0202701N006012200019N0300001N1-02001-02371103701ADDAA199000091GF102991001001999999001021KA1999N-02631MA1999999089111MD1210021+9999REMSYN076AAXX  14061 53192 32980 22706 11200 21237 38911 40370 52002 80002 333 21263;EQDQ01  00002PRCP99
0122531920999992000021409004+44020+114950FM-12+112899999V0202701N005012200019N0300001N1-01981-02331103771ADDGA1001+999999999GF100991001001999999001001MD1210011+9999REMSYN054AAXX  14091 53192 42980 02705 11198 21233 40377 52001;
0122531920999992000021415004+44020+114950FM-12+112899999V0202901N002012200019N0300001N1-02481-02781103931ADDGA1001+999999999GF100991001001999999001001MD1210011+9999REMSYN054AAXX  14151 53192 42980 02902 11248 21278 40393 52001;
0196531920999992000021418004+44020+114950FM-12+112899999V0209999C000012200019N0300001N1-02641-02941103831ADDAA199000091GA1001+999999999GF100991001001999999001001KA1999M-01861MA1999999089141MD1710091+9999REMSYN070AAXX  14181 53192 32980 00000 11264 21294 38914 40383 57009 333 11186;EQDQ01  00002PRCP99
0122531920999992000021421004+44020+114950FM-12+112899999V0202701N003012200019N0300001N1-02721-03021103671ADDGA1001+999999999GF100991001001999999001001MD1710151+9999REMSYN054AAXX  14211 53192 42980 02703 11272 21302 40367 57015;
0173531920999992000021500004+44020+114950FM-12+112899999V0202701N003012200019N0300001N1-02901-03191103871ADDAA199000091GF101991001001999999001021MA1999999089021MD1210031+0001REMSYN076AAXX  15001 53192 32980 12703 11290 21319 38902 40387 52003 80002 333 00054;EQDQ01  00002PRCP99
0122531920999992000021503004+44020+114950FM-12+112899999V0202701N007012200019N0300001N1-02301-02611103801ADDGA1001+999999999GF100991001001999999001001MD1210061+9999REMSYN054AAXX  15031 53192 42980 02707 11230 21261 40380 52006;
0196531920999992000021506004+44020+114950FM-12+112899999V0202701N005012200019N0300001N1-01981-02351103711ADDAA199000091GA1001+999999999GF100991001001999999001001KA1999N-03021MA1999999089041MD1710041+9999REMSYN070AAXX  15061 53192 32980 02705 11198 21235 38904 40371 57004 333 21302;EQDQ01  00002PRCP99
0122531920999992000021509004+44020+114950FM-12+112899999V0202701N004012200019N0300001N1-02041-02401103741ADDGA1001+999999999GF100991001001999999001001MD1710011+9999REMSYN054AAXX  15091 53192 42980 02704 11204 21240 40374 57001;
0173531920999992000021512004+44020+114950FM-12+112899999V0209999C000012200019N0300001N1-02401-02701103981ADDAA199000091GA1001+999999999GF100991001001999999001001MA1999999089091MD1210061+9999REMSYN060AAXX  15121 53192 32980 00000 11240 21270 38909 40398 52006;EQDQ01  00002PRCP99
0122531920999992000021515004+44020+114950FM-12+112899999V0209999C000012200019N0300001N1-02681-02961103881ADDGA1001+999999999GF100991001001999999001001MD1410001+9999REMSYN054AAXX  15151 53192 42980 00000 11268 21296 40388 54000;
0196531920999992000021518004+44020+114950FM-12+112899999V0202701N001012200019N0300001N1-03031-03321103841ADDAA199000091GA1001+999999999GF100991001001999999001001KA1999M-01791MA1999999089051MD1710041+9999REMSYN070AAXX  15181 53192 32980 02701 11303 21332 38905 40384 57004 333 11179;EQDQ01  00002PRCP99
0122531920999992000021521004+44020+114950FM-12+112899999V0209999C000012200019N0300001N1-02901-03191103751ADDGA1001+999999999GF100991001001999999001001MD1710061+9999REMSYN054AAXX  15211 53192 42980 00000 11290 21319 40375 57006;
0173531920999992000021600004+44020+114950FM-12+112899999V0202901N001012200019N0200001N1-03131-03431103971ADDAA199000091GF101991001001999999001021MA1999999089021MD1210031+0001REMSYN076AAXX  16001 53192 32970 12901 11313 21343 38902 40397 52003 80002 333 00052;EQDQ01  00002PRCP99
0122531920999992000021603004+44020+114950FM-12+112899999V0202501N002012200019N0300001N1-02361-02651103891ADDGA1001+999999999GF100991001001999999001001MD1210061+9999REMSYN054AAXX  16031 53192 42980 02502 11236 21265 40389 52006;
0196531920999992000021606004+44020+114950FM-12+112899999V0202001N002012200019N0300001N1-01941-02241103791ADDAA199000091GA1001+999999999GF100991001001999999001001KA1999N-03301MA1999999089021MD1710061+9999REMSYN070AAXX  16061 53192 32980 02002 11194 21224 38902 40379 57006 333 21330;EQDQ01  00002PRCP99
0122531920999992000021609004+44020+114950FM-12+112899999V0202701N002012200019N0300001N1-01861-02211103691ADDGA1001+999999999GF100991001001999999001001MD1710031+9999REMSYN054AAXX  16091 53192 42980 02702 11186 21221 40369 57003;
0173531920999992000021612004+44020+114950FM-12+112899999V0209999C000012200019N0300001N1-02421-02691104041ADDAA199000091GA1001+999999999GF100991001001999999001001MA1999999089071MD1210081+9999REMSYN060AAXX  16121 53192 32980 00000 11242 21269 38907 40404 52008;EQDQ01  00002PRCP99
0122531920999992000021615004+44020+114950FM-12+112899999V0209999C000012200019N0300001N1-02721-03021103931ADDGA1001+999999999GF100991001001999999001001MD1210041+9999REMSYN054AAXX  16151 53192 42980 00000 11272 21302 40393 52004;
0186531920999992000021618004+44020+114950FM-12+112899999V0209999C000012200019N0300001N1-02961-03251103891ADDAA199000091GF102991001001999999001021KA1999M-01751MA1999999089121MD1210011+9999REMSYN076AAXX  16181 53192 32980 20000 11296 21325 38912 40389 52001 80002 333 11175;EQDQ01  00002PRCP99
0112531920999992000021621004+44020+114950FM-12+112899999V0209999C000012200019N0300001N1-02991-03281103861ADDGF101991001001999999001021MD1710011+9999REMSYN060AAXX  16211 53192 42980 10000 11299 21328 40386 57001 80002;
0173531920999992000021700004+44020+114950FM-12+112899999V0209999C000019999999N0200001N1-03001-03301104121ADDAA199000091GF105991001001999999001021MA1999999089181MD1210071+0021REMSYN076AAXX  17001 53192 32970 50000 11300 21330 38918 40412 52007 80002 333 00201;EQDQ01  00002PRCP99
0112531920999992000021703004+44020+114950FM-12+112899999V0201801N001012200019N0250001N1-02161-02461103931ADDGF101991001001999999001021MD1710021+9999REMSYN060AAXX  17031 53192 42975 11801 11216 21246 40393 57002 80002;
0196531920999992000021706004+44020+114950FM-12+112899999V0202501N003012200019N0300001N1-01541-01971103691ADDAA199000091GA1001+999999999GF100991001001999999001001KA1999N-03221MA1999999089061MD1710101+9999REMSYN070AAXX  17061 53192 32980 02503 11154 21197 38906 40369 57010 333 21322;EQDQ01  00002PRCP99
0122531920999992000021709004+44020+114950FM-12+112899999V0201801N001012200019N0300001N1-01311-01851103611ADDGA1001+999999999GF100991001001999999001001MD1710021+9999REMSYN054AAXX  17091 53192 42980 01801 11131 21185 40361 57002;
0173531920999992000021712004+44020+114950FM-12+112899999V0200401N002012200019N0300001N1-01821-02211103841ADDAA199000091GA1001+999999999GF100991001001999999001001MA1999999089101MD1210061+9999REMSYN060AAXX  17121 53192 32980 00402 11182 21221 38910 40384 52006;EQDQ01  00002PRCP99
0122531920999992000021715004+44020+114950FM-12+112899999V0200201N002012200019N0300001N1-01961-02311103571ADDGA1001+999999999GF100991001001999999001001MD1710041+9999REMSYN054AAXX  17151 53192 42980 00202 11196 21231 40357 57004;
0186531920999992000021718004+44020+114950FM-12+112899999V0200201N003012200019N0300001N1-01901-02271103351ADDAA199000091GF102991001001999999001021KA1999M-01251MA1999999089041MD1710021+9999REMSYN076AAXX  17181 53192 32980 20203 11190 21227 38904 40335 57002 80002 333 11125;EQDQ01  00002PRCP99
0112531920999992000021721004+44020+114950FM-12+112899999V0200201N002019999999N0300001N1-01901-02241103051ADDGF105991001001999999001021MD1710201+9999REMSYN060AAXX  17211 53192 42980 50202 11190 21224 40305 57020 80002;
0173531920999992000021800004+44020+114950FM-12+112899999V0200201N001019999999N0300001N1-01881-02231103171ADDAA199000091GF106991001001999999001021MA1999999088821MD1710021+0041REMSYN076AAXX  18001 53192 32980 60201 11188 21223 38882 40317 57002 80002 333 05411;EQDQ01  00002PRCP99
0112531920999992000021803004+44020+114950FM-12+112899999V0209999C000019999999N0300001N1-01281-01781102971ADDGF107991001001999999001021MD1710051+9999REMSYN060AAXX  18031 53192 42980 70000 11128 21178 40297 57005 80002;
0186531920999992000021806004+44020+114950FM-12+112899999V0202001N003019999999N0300001N1-01121-01531102761ADDAA199000091GF107991001001999999001021KA1999N-02051MA1999999088641MD1710131+9999REMSYN076AAXX  18061 53192 32980 72003 11112 21153 38864 40276 57013 80002 333 21205;EQDQ01  00002PRCP99
0163531920999992000021812004+44020+114950FM-12+112899999V0209999C000012200019N0300001N1-01771-02061103301ADDAA199000091GF102991001001999999001021MA1999999088951MD1210241+9999REMSYN066AAXX  18121 53192 32980 20000 11177 21206 38895 40330 52024 80002;EQDQ01  00002PRCP99
0122531920999992000021815004+44020+114950FM-12+112899999V0202901N002012200019N0300001N1-02041-02311103331ADDGA1001+999999999GF100991001001999999001001MD1210111+9999REMSYN054AAXX  18151 53192 42980 02902 11204 21231 40333 52011;
0190531920999992000021818004+44020+114950FM-12+112899999V0202701N001012200019N9999999N1-02081-02361999999ADDAA199000091GA1001+999999999GF100991001001999999001001KA1999M-00941MA1999999089161MD1210101+9999REMSYN064AAXX  18181 53192 3298/ 02701 11208 21236 38916 52010 333 11094;EQDQ01  00002PRCP99
0173531920999992000021900004+44020+114950FM-12+112899999V0209999C000012200019N0250001N1-02441-02711103831ADDAA199000091GF101991001001999999001021MA1999999089261MD1210101+0041REMSYN076AAXX  19001 53192 32975 10000 11244 21271 38926 40383 52010 80002 333 00456;EQDQ01  00002PRCP99
0186531920999992000021906004+44020+114950FM-12+112899999V0202201N001012200019N0300001N1-01441-01791103531ADDAA199000091GF101991001001999999001021KA1999N-02541MA1999999089181MD1710121+9999REMSYN076AAXX  19061 53192 32980 12201 11144 21179 38918 40353 57012 80002 333 21254;EQDQ01  00002PRCP99
0173531920999992000021912004+44020+114950FM-12+112899999V0209999C000012200019N0300001N1-02061-02331103761ADDAA199000091GA1001+999999999GF100991001001999999001001MA1999999089121MD1210011+9999REMSYN060AAXX  19121 53192 32980 00000 11206 21233 38912 40376 52001;EQDQ01  00002PRCP99
0112531920999992000021915004+44020+114950FM-12+112899999V0209999C000019999999N0300001N1-02371-02641103721ADDGF105991001001999999001021MD1710011+9999REMSYN060AAXX  19151 53192 42980 50000 11237 21264 40372 57001 80002;
