0173532760999992000010100004+42400+112900FM-12+115299999V0202501N005019999999N0300001N1-00471-01141101951ADDAA106000091GF107991001001999999001021MA1999999088251MD1210031+0001REMSYN076AAXX  01001 53276 32980 72505 11047 21114 38825 40195 52003 80002 333 00000;EQDQ01  00002PRCP06
0112532760999992000010103004+42400+112900FM-12+115299999V0202701N009010150019N0300001N1-00261-01201102001ADDGF107991051051017501001021MD1210091+9999REMSYN060AAXX  01031 53276 42780 72709 11026 21120 40200 52009 85502;
0209532760999992000010106004+42400+112900FM-12+115299999V0202701N013010900019N0200001N1-00131-01241101811ADDAA106000091GF107991041051017501001021KA1240N-00581MA1999999088171MD1710171+9999OA130601801REMSYN088AAXX  01061 53276 32770 72713 11013 21124 38817 40181 57017 84502 333 21058 91118 91525;EQDQ01  00002PRCP06
0124532760999992000010109004+42400+112900FM-12+115299999V0202901N011010150019N0080001N1-00621-01371102161ADDGF107991071051017501001021MD1210141+9999MW1701REMSYN066AAXX  01091 53276 41758 72911 11062 21137 40216 52014 77000 87502;
0207532760999992000010112004+42400+112900FM-12+115299999V0202901N013012200019N0150001N1-01271-01631102711ADDAA106000791AY171061GA1001+999999999GF100991001001999999001001MA1999999088641MD1210331+9999MW1001OA130602201REMSYN088AAXX  01121 53276 11965 02913 11127 21163 38864 40271 52033 69901 70070 333 91122 91529;
0132532760999992000010115004+42400+112900FM-12+115299999V0202701N013019999999N0150001N1-01401-01681102861ADDAY171031GF107991001001999999001021MD1210151+9999MW1221REMSYN066AAXX  01151 53276 41965 72713 11140 21168 40286 52015 72270 80002;
0226532760999992000010118004+42400+112900FM-12+115299999V0202501N007012200019N0300001N1-01641-01941102931ADDAA106000791AY171061GA1001+999999999GF100991001001999999001001KA1240M-00111MA1999999088831MD1210041+9999MW1001OA130602201REMSYN094AAXX  01181 53276 11980 02507 11164 21194 38883 40293 52004 69901 70070 333 11011 91122 91529;
0143532760999992000010121004+42400+112900FM-12+115299999V0202501N004012200019N0300001N1-01791-02131103181ADDAA124000791GA1001+999999999GF100991001001999999001001MD1210051+9999REMSYN064AAXX  01211 53276 42980 02504 11179 21213 40318 52005 333 79999;
0179532760999992000010200004+42400+112900FM-12+115299999V0202501N005019999999N0300001N1-01741-02201103201ADDAA106000091GF107991011001999999031021MA1999999088751MD1710131+0501REMSYN082AAXX  02001 53276 32980 72505 11174 21220 38875 40320 57013 81032 333 00563 79999;EQDQ01  00002PRCP06
0112532760999992000010203004+42400+112900FM-12+115299999V0202701N005019999999N0300001N1-01291-02011103051ADDGF107991021001999999031021MD1710051+9999REMSYN060AAXX  02031 53276 42980 72705 11129 21201 40305 57005 82032;
0193532760999992000010206004+42400+112900FM-12+115299999V0200701N003019999999N0200001N1-01251-01631102811ADDAA106000791AY171061GF107991011001999999031021KA1999N-01791MA1999999088441MD1710261+9999MW1701REMSYN088AAXX  02061 53276 11970 70703 11125 21163 38844 40281 57026 69901 77070 81032 333 21179;
0132532760999992000010209004+42400+112900FM-12+115299999V0200701N005012200019N0300001N1-01361-01701102801ADDAY171031GF102991001001999999001021MD1710071+9999MW1001REMSYN066AAXX  02091 53276 41980 20705 11136 21170 40280 57007 70070 80002;
0180532760999992000010212004+42400+112900FM-12+115299999V0203601N001012200019N0300001N1-01641-01851102851ADDAA106000791AY171061GA1001+999999999GF100991001001999999001001MA1999999088351MD1710021+9999MW1001REMSYN072AAXX  02121 53276 11980 03601 11164 21185 38835 40285 57002 69901 70070;
0122532760999992000010215004+42400+112900FM-12+115299999V0201601N002012200019N0300001N1-01811-01991102691ADDGA1001+999999999GF100991001001999999001001MD1710061+9999REMSYN054AAXX  02151 53276 42980 01602 11181 21199 40269 57006;
0186532760999992000010218004+42400+112900FM-12+115299999V0200701N002012200019N0300001N1-01741-01931102491ADDAA106000091GF101991001001999999001021KA1999M-01111MA1999999088141MD1710161+9999REMSYN076AAXX  02181 53276 32980 10702 11174 21193 38814 40249 57016 80002 333 11111;EQDQ01  00002PRCP06
0133532760999992000010221004+42400+112900FM-12+115299999V0201401N001019999999N0300001N1-01511-01751102281ADDAA124000791GF106991001001999999001021MD1710151+9999REMSYN070AAXX  02211 53276 42980 61401 11151 21175 40228 57015 80002 333 79999;
0192532760999992000010300004+42400+112900FM-12+115299999V0209999C000019999999N0120001N1-01571-01741102291ADDAA106000191AY171061GF108991081001999999021999MA1999999087911MD1710081-0801MW1701REMSYN100AAXX  03001 53276 11962 80000 11157 21174 38791 40229 57008 69921 77070 8802/ 333 05802 70002 92501;
0140532760999992000010303004+42400+112900FM-12+115299999V0202201N002019999999N0030001N1-00811-00991102191ADDAY171031AY271031GF107991071001999999031999MD1210071+9999MW1711REMSYN066AAXX  03031 53276 41930 72202 11081 21099 40219 52007 77177 8703/;
0193532760999992000010306004+42400+112900FM-12+115299999V0203201N002019999999N0110001N1-00751-01101102071ADDAA106000891AY171061GF106991061001999999031001KA1999N-01811MA1999999087911MD1710071+9999MW1001REMSYN088AAXX  03061 53276 11961 63202 11075 21110 38791 40207 57007 69981 70070 86030 333 21181;
0112532760999992000010309004+42400+112900FM-12+115299999V0201601N004019999999N0110001N1-01021-01261102121ADDGF107991031001999999031021MD1210031+9999REMSYN060AAXX  03091 53276 42961 71604 11102 21126 40212 52003 83032;
0163532760999992000010312004+42400+112900FM-12+115299999V0201801N002019999999N0200001N1-01051-01291102091ADDAA106000091GF107991021001999999031021MA1999999087891MD1710051+9999REMSYN066AAXX  03121 53276 32970 71802 11105 21129 38789 40209 57005 82032;EQDQ01  00002PRCP06
0112532760999992000010315004+42400+112900FM-12+115299999V0202501N004019999999N0200001N1-00821-01191101961ADDGF108991001001999999001071MD1210131+9999REMSYN060AAXX  03151 53276 42970 82504 11082 21119 40196 52013 80007;
0186532760999992000010318004+42400+112900FM-12+115299999V0202201N004019999999N0250001N1-00751-01141101981ADDAA106000091GF107991001001999999001021KA1999M-00611MA1999999088071MD1210051+9999REMSYN076AAXX  03181 53276 32975 72204 11075 21114 38807 40198 52005 80002 333 11061;EQDQ01  00002PRCP06
0133532760999992000010321004+42400+112900FM-12+115299999V0202501N006012200019N0300001N1-01251-01591102251ADDAA124001091GF102991001001999999001021MD1210051+9999REMSYN070AAXX  03211 53276 42980 22506 11125 21159 40225 52005 80002 333 70010;
0179532760999992000010400004+42400+112900FM-12+115299999V0209999C000010360019N0200001N1-01211-01511102371ADDAA106000091GF107991041051017501031021MA1999999088221MD1210101+0301REMSYN082AAXX  04001 53276 32770 70000 11121 21151 38822 40237 52010 84532 333 00304 70008;EQDQ01  00002PRCP06
0112532760999992000010403004+42400+112900FM-12+115299999V0202501N006012200019N0300001N1-00741-01631102201ADDGF101991001001999999001021MD1210031+9999REMSYN060AAXX  04031 53276 42980 12506 11074 21163 40220 52003 80002;
0186532760999992000010406004+42400+112900FM-12+115299999V0202501N005012200019N0300001N1-00651-01361102091ADDAA106000091GF101991001001999999001021KA1999N-01311MA1999999088191MD1710061+9999REMSYN076AAXX  04061 53276 32980 12505 11065 21136 38819 40209 57006 80002 333 21131;EQDQ01  00002PRCP06
0112532760999992000010409004+42400+112900FM-12+115299999V0209999C000012200019N0300001N1-00901-01571102421ADDGF101991001001999999001021MD1210101+9999REMSYN060AAXX  04091 53276 42980 10000 11090 21157 40242 52010 80002;
0173532760999992000010412004+42400+112900FM-12+115299999V0201801N003012200019N0300001N1-01331-01731102581ADDAA106000091GA1001+999999999GF100991001001999999001001MA1999999088331MD1210041+9999REMSYN060AAXX  04121 53276 32980 01803 11133 21173 38833 40258 52004;EQDQ01  00002PRCP06
0122532760999992000010415004+42400+112900FM-12+115299999V0202501N004012200019N0300001N1-01231-01831102441ADDGA1001+999999999GF100991001001999999001001MD1210021+9999REMSYN054AAXX  04151 53276 42980 02504 11123 21183 40244 52002;
0186532760999992000010418004+42400+112900FM-12+115299999V0202201N003019999999N0300001N1-01071-01621102381ADDAA106000091GF107991001001999999001021KA1999M-00511MA1999999088361MD1210011+9999REMSYN076AAXX  04181 53276 32980 72203 11107 21162 38836 40238 52001 80002 333 11051;EQDQ01  00002PRCP06
0112532760999992000010421004+42400+112900FM-12+115299999V0202501N009019999999N0300001N1-00881-01421102341ADDGF107991001001999999001021MD1710051+9999REMSYN060AAXX  04211 53276 42980 72509 11088 21142 40234 57005 80002;
0173532760999992000010500004+42400+112900FM-12+115299999V0203401N004012200019N0300001N1-01851-02161103011ADDAA106000091GF103991011001999999031021MA1999999088541MD1210231+0031REMSYN076AAXX  05001 53276 32980 33404 11185 21216 38854 40301 52023 81032 333 00356;EQDQ01  00002PRCP06
0132532760999992000010503004+42400+112900FM-12+115299999V0203201N003012200019N0300001N1-01801-02051103151ADDAY171031GF103991021051012501001021MD1210161+9999MW1701REMSYN066AAXX  05031 53276 41680 33203 11180 21205 40315 52016 77070 82502;
0193532760999992000010506004+42400+112900FM-12+115299999V0203201N005012200019N0300001N1-01621-01921102991ADDAA106000791AY171061GF104991011051017501001021KA1999N-01911MA1999999088651MD1710051+9999MW1701REMSYN088AAXX  05061 53276 11780 43205 11162 21192 38865 40299 57005 69901 77070 81502 333 21191;
0132532760999992000010509004+42400+112900FM-12+115299999V0203201N006012200019N0300001N1-01911-02201103081ADDAY171031GF101991001001999999001021MD1210051+9999MW1001REMSYN066AAXX  05091 53276 41980 13206 11191 21220 40308 52005 70070 80002;
0180532760999992000010512004+42400+112900FM-12+115299999V0202501N005012200019N0300001N1-02171-02431103691ADDAA106000791AY171061GA1001+999999999GF100991001001999999001001MA1999999088901MD1210201+9999MW1001REMSYN072AAXX  05121 53276 11980 02505 11217 21243 38890 40369 52020 69901 70070;
0132532760999992000010515004+42400+112900FM-12+115299999V0202901N007012200019N0300001N1-02271-02551103781ADDAY171031GF101991001001999999001021MD1210071+9999MW1701REMSYN066AAXX  05151 53276 41980 12907 11227 21255 40378 52007 77070 80002;
0203532760999992000010518004+42400+112900FM-12+115299999V0202501N001012200019N0300001N1-02571-02951103791ADDAA106000791AY171061GA1001+999999999GF100991001001999999001001KA1999M-00841MA1999999088941MD1710031+9999MW1001REMSYN082AAXX  05181 53276 11980 02501 11257 21295 38894 40379 57003 69901 70070 333 11084;
0143532760999992000010521004+42400+112900FM-12+115299999V0202901N010012200019N0300001N1-02541-02891103751ADDAA124000791GA1001+999999999GF100991001001999999001001MD1710101+9999REMSYN064AAXX  05211 53276 42980 02910 11254 21289 40375 57010 333 79999;
0112532760999992000010603004+42400+112900FM-12+115299999V0202901N010010120019N0150001N1-02521-02901104021ADDGF107991061051012501001021MD1210091+9999REMSYN060AAXX  06031 53276 42665 72910 11252 21290 40402 52009 86502;
0209532760999992000010606004+42400+112900FM-12+115299999V0202901N012010900019N0150001N1-02291-02711103811ADDAA106000091GF106991021051012501001021KA1240N-02601MA1999999088781MD1710201+9999OA130601801REMSYN088AAXX  06061 53276 32665 62912 11229 21271 38878 40381 57020 82502 333 21260 91118 91529;EQDQ01  00002PRCP06
0112532760999992000010609004+42400+112900FM-12+115299999V0202901N012010900019N0200001N1-02271-02771103951ADDGF106991021051012501001021MD1210131+9999REMSYN060AAXX  06091 53276 42670 62912 11227 21277 40395 52013 82502;
0200532760999992000010612004+42400+112900FM-12+115299999V0202901N007012200019N0200001N1-02471-02941104181ADDAA106000091GA1001+999999999GF100991001001999999001001MA1999999089041MD1210131+9999OA130601801REMSYN076AAXX  06121 53276 32970 02907 11247 21294 38904 40418 52013 333 91118 91529;EQDQ01  00002PRCP06
0122532760999992000010621004+42400+112900FM-12+115299999V0202501N007012200019N0300001N1-02631-03111103861ADDGA1001+999999999GF100991001001999999001001MD1710111+9999REMSYN054AAXX  06211 53276 42980 02507 11263 21311 40386 57011;
0173532760999992000010700004+42400+112900FM-12+115299999V0202501N006012200019N0300001N1-02601-03081103751ADDAA106000091GF101991001001999999001021MA1999999088671MD1710141+0021REMSYN076AAXX  07001 53276 32980 12506 11260 21308 38867 40375 57014 80002 333 05200;EQDQ01  00002PRCP06
0112532760999992000010703004+42400+112900FM-12+115299999V0202701N004012200019N0300001N1-02091-02691103611ADDGF102991001001999999001021MD1710021+9999REMSYN060AAXX  07031 53276 42980 22704 11209 21269 40361 57002 80002;
0186532760999992000010706004+42400+112900FM-12+115299999V0202501N004019999999N0300001N1-01691-02631103141ADDAA106000091GF105991001001999999001021KA1999N-02671MA1999999088341MD1710311+9999REMSYN076AAXX  07061 53276 32980 52504 11169 21263 38834 40314 57031 80002 333 21267;EQDQ01  00002PRCP06
0112532760999992000010709004+42400+112900FM-12+115299999V0200401N003019999999N0300001N1-01711-02561103051ADDGF107991001001999999001021MD1710071+9999REMSYN060AAXX  07091 53276 42980 70403 11171 21256 40305 57007 80002;
0163532760999992000010712004+42400+112900FM-12+115299999V0200701N001012200019N0300001N1-02071-02591103191ADDAA106000091GF102991001001999999001021MA1999999088301MD1210031+9999REMSYN066AAXX  07121 53276 32980 20701 11207 21259 38830 40319 52003 80002;EQDQ01  00002PRCP06
0122532760999992000010715004+42400+112900FM-12+115299999V0202501N004012200019N0300001N1-02091-02601103041ADDGA1001+999999999GF100991001001999999001001MD1410001+9999REMSYN054AAXX  07151 53276 42980 02504 11209 21260 40304 54000;
0196532760999992000010718004+42400+112900FM-12+115299999V0202501N004012200019N0300001N1-02211-02751102941ADDAA106000091GA1001+999999999GF100991001001999999001001KA1999M-01531MA1999999088291MD1710011+9999REMSYN070AAXX  07181 53276 32980 02504 11221 21275 38829 40294 57001 333 11153;EQDQ01  00002PRCP06
0122532760999992000010721004+42400+112900FM-12+115299999V0202501N005012200019N0300001N1-02001-02581102831ADDGA1001+999999999GF100991001001999999001001MD1710041+9999REMSYN054AAXX  07211 53276 42980 02505 11200 21258 40283 57004;
0173532760999992000010800004+42400+112900FM-12+115299999V0202201N007012200019N0300001N1-01821-02391102841ADDAA106000091GF101991001001999999001021MA1999999088211MD1710041+0051REMSYN076AAXX  08001 53276 32980 12207 11182 21239 38821 40284 57004 80002 333 05508;EQDQ01  00002PRCP06
0112532760999992000010803004+42400+112900FM-12+115299999V0202001N004019999999N0300001N1-01271-01931102741ADDGF106991021001999999031021MD1210051+9999REMSYN060AAXX  08031 53276 42980 62004 11127 21193 40274 52005 82032;
0186532760999992000010806004+42400+112900FM-12+115299999V0202501N003012200019N0300001N1-00741-01841102261ADDAA106000091GF101991011001999999031021KA1999N-02231MA1999999087951MD1710311+9999REMSYN076AAXX  08061 53276 32980 12503 11074 21184 38795 40226 57031 81032 333 21223;EQDQ01  00002PRCP06
0112532760999992000010809004+42400+112900FM-12+115299999V0202901N002019999999N0300001N1-00831-01651102201ADDGF107991031001999999031021MD1710021+9999REMSYN060AAXX  08091 53276 42980 72902 11083 21165 40220 57002 83032;
0163532760999992000010812004+42400+112900FM-12+115299999V0202201N003019999999N0300001N1-00991-01411102191ADDAA106000091GF107991001001999999001021MA1999999087931MD1410001+9999REMSYN066AAXX  08121 53276 32980 72203 11099 21141 38793 40219 54000 80002;EQDQ01  00002PRCP06
0122532760999992000010815004+42400+112900FM-12+115299999V0202501N005012200019N0300001N1-01321-01771102311ADDGA1001+999999999GF100991001001999999001001MD1210161+9999REMSYN054AAXX  08151 53276 42980 02505 11132 21177 40231 52016;
0196532760999992000010818004+42400+112900FM-12+115299999V0202501N006012200019N0300001N1-01691-02291102451ADDAA106000091GA1001+999999999GF100991001001999999001001KA1999M-00621MA1999999088251MD1210161+9999REMSYN070AAXX  08181 53276 32980 02506 11169 21229 38825 40245 52016 333 11062;EQDQ01  00002PRCP06
0122532760999992000010821004+42400+112900FM-12+115299999V0202901N005012200019N0300001N1-01771-02421102561ADDGA1001+999999999GF100991001001999999001001MD1210051+9999REMSYN054AAXX  08211 53276 42980 02905 11177 21242 40256 52005;
0183532760999992000010900004+42400+112900FM-12+115299999V0202501N004012200019N0300001N1-01951-02521102851ADDAA106000091GA1001+999999999GF100991001001999999001001MA1999999088461MD1210161+0031REMSYN070AAXX  09001 53276 32980 02504 11195 21252 38846 40285 52016 333 00351;EQDQ01  00002PRCP06
0112532760999992000010903004+42400+112900FM-12+115299999V0202501N008012200019N0300001N1-01511-02161102991ADDGF102991001001999999001021MD1210151+9999REMSYN060AAXX  09031 53276 42980 22508 11151 21216 40299 52015 80002;
0122532760999992000010909004+42400+112900FM-12+115299999V0202901N004012200019N0300001N1-01031-01751103011ADDGA1001+999999999GF100991001001999999001001MD1210071+9999REMSYN054AAXX  09091 53276 42980 02904 11103 21175 40301 52007;
0163532760999992000010912004+42400+112900FM-12+115299999V0201601N001012200019N0300001N1-01631-02161103351ADDAA106000091GF102991001001999999001021MA1999999088731MD1210091+9999REMSYN066AAXX  09121 53276 32980 21601 11163 21216 38873 40335 52009 80002;EQDQ01  00002PRCP06
0112532760999992000010915004+42400+112900FM-12+115299999V0201801N003012200019N0300001N1-01721-02141103221ADDGF101991001001999999001021MD1710021+9999REMSYN060AAXX  09151 53276 42980 11803 11172 21214 40322 57002 80002;
0196532760999992000010918004+42400+112900FM-12+115299999V0202001N003012200019N0300001N1-01781-02181103041ADDAA106000091GA1001+999999999GF100991001001999999001001KA1999M-00811MA1999999088691MD1710021+9999REMSYN070AAXX  09181 53276 32980 02003 11178 21218 38869 40304 57002 333 11081;EQDQ01  00002PRCP06
0122532760999992000010921004+42400+112900FM-12+115299999V0201801N004012200019N0300001N1-01841-02191103141ADDGA1001+999999999GF100991001001999999001001MD1210041+9999REMSYN054AAXX  09211 53276 42980 01804 11184 21219 40314 52004;
0173532760999992000011000004+42400+112900FM-12+115299999V0209999C000012200019N0300001N1-01591-02101103291ADDAA106000091GF102991001001999999001021MA1999999088771MD1210041+0031REMSYN076AAXX  10001 53276 32980 20000 11159 21210 38877 40329 52004 80002 333 00304;EQDQ01  00002PRCP06
0112532760999992000011003004+42400+112900FM-12+115299999V0202001N003012200019N0300001N1-00751-01591103141ADDGF101991001001999999001021MD1210061+9999REMSYN060AAXX  10031 53276 42980 12003 11075 21159 40314 52006 80002;
0186532760999992000011006004+42400+112900FM-12+115299999V0200401N004019999999N0300001N1-00721-01471102911ADDAA106000091GF105991001001999999001021KA1999N-01941MA1999999088631MD1710201+9999REMSYN076AAXX  10061 53276 32980 50404 11072 21147 38863 40291 57020 80002 333 21194;EQDQ01  00002PRCP06
0112532760999992000011009004+42400+112900FM-12+115299999V0200201N004019999999N0300001N1-00901-01401103061ADDGF107991031001999999031021MD1210071+9999REMSYN060AAXX  10091 53276 42980 70204 11090 21140 40306 52007 83032;
0163532760999992000011012004+42400+112900FM-12+115299999V0200701N002012200019N0300001N1-01331-01621103141ADDAA106000091GF103991011001999999031021MA1999999088721MD1210021+9999REMSYN066AAXX  10121 53276 32980 30702 11133 21162 38872 40314 52002 81032;EQDQ01  00002PRCP06
0112532760999992000011015004+42400+112900FM-12+115299999V0209999C000012200019N0300001N1-01461-01711102881ADDGF103991001001999999001021MD1710051+9999REMSYN060AAXX  10151 53276 42980 30000 11146 21171 40288 57005 80002;
0186532760999992000011018004+42400+112900FM-12+115299999V0202701N001019999999N0300001N1-01361-01651102761ADDAA106000091GF107991001001999999001021KA1999M-00191MA1999999088601MD1710071+9999REMSYN076AAXX  10181 53276 32980 72701 11136 21165 38860 40276 57007 80002 333 11019;EQDQ01  00002PRCP06
0112532760999992000011021004+42400+112900FM-12+115299999V0209999C000019999999N0300001N1-00771-01221102571ADDGF107991001001999999001021MD1710061+9999REMSYN060AAXX  10211 53276 42980 70000 11077 21122 40257 57006 80002;
0186532760999992000011100004+42400+112900FM-12+115299999V0201801N004019999999N0120001N1-00871-01021102771ADDAA106000391AY171061GF108991081001999999021999MA1999999088581MD1210041-0201MW1701REMSYN094AAXX  11001 53276 11962 81804 11087 21102 38858 40277 52004 69931 77070 8802/ 333 05207 70003;
0140532760999992000011103004+42400+112900FM-12+115299999V0203201N006019999999N0080001N1-00971-01181102921ADDAY171031AY271031GF108991081001999999021999MD1210071+9999MW1711REMSYN066AAXX  11031 53276 41958 83206 11097 21118 40292 52007 77177 8802/;
0201532760999992000011106004+42400+112900FM-12+115299999V0203201N006019999999N0080001N1-01111-01361102831ADDAA106002091AY171061AY271061GF108991081001999999021999KA1999N-01471MA1999999088571MD1710081+9999MW1701REMSYN088AAXX  11061 53276 11958 83206 11111 21136 38857 40283 57008 60021 77077 8802/ 333 21147;
0140532760999992000011109004+42400+112900FM-12+115299999V0202901N006019999999N0080001N1-01211-01431102821ADDAY171031AY271031GF108991081001999999021999MD1210111+9999MW1711REMSYN066AAXX  11091 53276 41958 82906 11121 21143 40282 52011 77177 8802/;
0170532760999992000011112004+42400+112900FM-12+115299999V0202501N006019999999N0080001N1-01391-01611103051ADDAA106000391AY171061GF107991001001999999001081MA1999999088811MD1210131+9999MW1701REMSYN078AAXX  11121 53276 11958 72506 11139 21161 38881 40305 52013 69931 77070 80008;
0140532760999992000011115004+42400+112900FM-12+115299999V0202501N006019999999N0300001N1-01471-01681103121ADDAY171031AY271031GF105991001001999999001021MD1210011+9999MW1701REMSYN066AAXX  11151 53276 41980 52506 11147 21168 40312 52001 77077 80002;
0201532760999992000011118004+42400+112900FM-12+115299999V0202701N006019999999N0080001N1-01591-01791103181ADDAA106000191AY171061AY271061GF108991001001999999001071KA1999M-00541MA1999999088811MD1710011+9999MW1701REMSYN088AAXX  11181 53276 11958 82706 11159 21179 38881 40318 57001 69911 77077 80007 333 11054;
0161532760999992000011121004+42400+112900FM-12+115299999V0202701N005019999999N0120001N1-01701-01891103161ADDAA124002591AY171031AY271031GF107991001001999999001081MD1710071+9999MW1701REMSYN076AAXX  11211 53276 41962 72705 11170 21189 40316 57007 77077 80008 333 70026;
0200532760999992000011200004+42400+112900FM-12+115299999V0202701N006010150019N0200001N1-01651-01871103311ADDAA106000791AY171061AY271061GF107991051051017501001021MA1999999088831MD1210091+0301MW1701REMSYN100AAXX  12001 53276 11770 72706 11165 21187 38883 40331 52009 69901 77077 85502 333 00358 70023 92504;
0132532760999992000011203004+42400+112900FM-12+115299999V0202901N007019999999N0150001N1-01621-01861103401ADDAY171031GF107991001001999999001081MD1210071+9999MW1701REMSYN066AAXX  12031 53276 41965 72907 11162 21186 40340 52007 77070 80008;
0193532760999992000011206004+42400+112900FM-12+115299999V0202901N006019999999N0200001N1-01581-01881103331ADDAA106000791AY171061GF107991001001999999001021KA1999N-01721MA1999999088821MD1710081+9999MW1701REMSYN088AAXX  12061 53276 11970 72906 11158 21188 38882 40333 57008 69901 77070 80002 333 21172;
0132532760999992000011209004+42400+112900FM-12+115299999V0202901N004012200019N0300001N1-01801-02071103581ADDAY171031GF104991021051017501001021MD1210131+9999MW1701REMSYN066AAXX  12091 53276 41780 42904 11180 21207 40358 52013 77070 82502;
0170532760999992000011212004+42400+112900FM-12+115299999V0202001N002012200019N0300001N1-02221-02441103801ADDAA106000791AY171061GF101991001001999999001021MA1999999089041MD1210091+9999MW1001REMSYN078AAXX  12121 53276 11980 12002 11222 21244 38904 40380 52009 69901 70070 80002;
0132532760999992000011215004+42400+112900FM-12+115299999V0202201N003012200019N0300001N1-02071-02291103691ADDAY171031GF101991001001999999001021MD1710051+9999MW1001REMSYN066AAXX  12151 53276 41980 12203 11207 21229 40369 57005 70070 80002;
0203532760999992000011218004+42400+112900FM-12+115299999V0202001N004012200019N0300001N1-02311-02541103541ADDAA106000791AY171061GA1001+999999999GF100991001001999999001001KA1999M-01551MA1999999088811MD1710181+9999MW1001REMSYN082AAXX  12181 53276 11980 02004 11231 21254 38881 40354 57018 69901 70070 333 11155;
0143532760999992000011221004+42400+112900FM-12+115299999V0202201N002012200019N0300001N1-02391-02631103541ADDAA124000791GA1001+999999999GF100991001001999999001001MD1710081+9999REMSYN064AAXX  12211 53276 42980 02202 11239 21263 40354 57008 333 79999;
0179532760999992000011300004+42400+112900FM-12+115299999V0202001N003012200019N0300001N1-02231-02471103561ADDAA106000091GF102991001001999999001021MA1999999088681MD1710051-0201REMSYN082AAXX  13001 53276 32980 22003 11223 21247 38868 40356 57005 80002 333 05256 79999;EQDQ01  00002PRCP06
0112532760999992000011303004+42400+112900FM-12+115299999V0201801N004019999999N0300001N1-01551-01851103151ADDGF107991001001999999001021MD1710121+9999REMSYN060AAXX  13031 53276 42980 71804 11155 21185 40315 57012 80002;
0186532760999992000011306004+42400+112900FM-12+115299999V0202201N005019999999N0300001N1-01031-01461102781ADDAA106000091GF106991001001999999001021KA1999N-02431MA1999999088301MD1710251+9999REMSYN076AAXX  13061 53276 32980 62205 11103 21146 38830 40278 57025 80002 333 21243;EQDQ01  00002PRCP06
0112532760999992000011309004+42400+112900FM-12+115299999V0202201N003019999999N0300001N1-00961-01321102801ADDGF106991001001999999001021MD1210021+9999REMSYN060AAXX  13091 53276 42980 62203 11096 21132 40280 52002 80002;
0170532760999992000011312004+42400+112900FM-12+115299999V0202501N006019999999N0200001N1-01231-01501102921ADDAA106000791AY171061GF107991001001999999001021MA1999999088391MD1210071+9999MW1221REMSYN078AAXX  13121 53276 11970 72506 11123 21150 38839 40292 52007 69901 72270 80002;
0103532760999992000011315004+42400+112900FM-12+115299999V0202501N006019999999N0250001N1-01551+99999999999ADDGF105991999999999999999999REMSYN065AAXX  13151 53276 41975 52506 11155 2175 40293 52010 72270 80002;
0193532760999992000011318004+42400+112900FM-12+115299999V0202501N003012200019N0300001N1-01771-02001102861ADDAA106000791AY171061GF101991001001999999001021KA1999M-00901MA1999999088511MD1210021+9999MW1001REMSYN088AAXX  13181 53276 11980 12503 11177 21200 38851 40286 52002 69901 70070 80002 333 11090;
0167532760999992000011321004+42400+112900FM-12+115299999V0202501N004012200019N0300001N1-01761-01991102811ADDAA124000791AY171031GA1001+999999999GF100991001001999999001001MD1710021+9999MW1001REMSYN074    AAXX  13211 53276 41980 02504 11176 21199 40281 57002 70070 333 79999;
0190532760999992000011400004+42400+112900FM-12+115299999V0202501N006012200019N0300001N1-02111-02341103101ADDAA106000791AY171061GF101991011001999999031001MA1999999088581MD1210091-0101MW1001REMSYN098    AAXX  14001 53276 11980 12506 11211 21234 38858 40310 52009 69901 70070 81030 333 05101 79999;
0190532760999992000011401004+42400+112900FM-12+115299999V0202501N006012200019N0300001N1-02111-02341103101ADDAA106000791AY171999GF101991011001999999031001MA1999999088581MD1210091-0101MW1001REMSYN098    AAXX  14011 53276 11980 12506 11211 21234 38858 40310 52009 69901 70070 81030 333 05101 79999;
0126532760999992000011403004+42400+112900FM-12+115299999V0202501N006012200019N0300001N1-01491-01851103141ADDGA1001+999999999GF100991001001999999001001MD1210111+9999REMSYN058    AAXX  14031 53276 42980 02506 11149 21185 40314 52011;
0190532760999992000011406004+42400+112900FM-12+115299999V0202001N003012200019N0300001N1-00961-01731102901ADDAA199000091GF101991011001999999031021KA1999N-02151MA1999999088561MD1710131+9999REMSYN080    AAXX  14061 53276 32980 12003 11096 21173 38856 40290 57013 81032 333 21215;EQDQ01  00002PRCP99
0116532760999992000011409004+42400+112900FM-12+115299999V0201801N002019999999N0300001N1-01181-01671102951ADDGF106991011001999999031021MD1710011+9999REMSYN064    AAXX  14091 53276 42980 61802 11118 21167 40295 57001 81032;
0167532760999992000011412004+42400+112900FM-12+115299999V0202501N005012200019N0300001N1-01531-01941103221ADDAA199000091GF104991001001999999001021MA1999999088601MD1210051+9999REMSYN070    AAXX  14121 53276 32980 42505 11153 21194 38860 40322 52005 80002;EQDQ01  00002PRCP99
0116532760999992000011415004+42400+112900FM-12+115299999V0202501N004019999999N0300001N1-01321-01721103071ADDGF107991001001999999001021MD1210091+9999REMSYN064    AAXX  14151 53276 42980 72504 11132 21172 40307 52009 80002;
0190532760999992000011418004+42400+112900FM-12+115299999V0202701N005019999999N0300001N1-01171-01561102891ADDAA199000091GF107991001001999999001021KA1999M-00741MA1999999088701MD1210011+9999REMSYN080    AAXX  14181 53276 32980 72705 11117 21156 38870 40289 52001 80002 333 11074;EQDQ01  00002PRCP99
0116532760999992000011421004+42400+112900FM-12+115299999V0202901N004019999999N0300001N1-01331-01651103111ADDGF107991001001999999001021MD1210101+9999REMSYN064    AAXX  14211 53276 42980 72904 11133 21165 40311 52010 80002;
0177532760999992000011500004+42400+112900FM-12+115299999V0203201N004019999999N0300001N1-01701-02011103501ADDAA199000091GF107991001001999999001021MA1999999088951MD1210151+0041REMSYN080    AAXX  15001 53276 32980 73204 11170 21201 38895 40350 52015 80002 333 00404;EQDQ01  00002PRCP99
0116532760999992000011503004+42400+112900FM-12+115299999V0202501N005012200019N0300001N1-01691-02001103621ADDGF101991001001999999001021MD1210161+9999REMSYN064    AAXX  15031 53276 42980 12505 11169 21200 40362 52016 80002;
0190532760999992000011506004+42400+112900FM-12+115299999V0202901N006012200019N0300001N1-01471-01801103511ADDAA199000091GF101991001001999999001021KA1999N-01851MA1999999089111MD1410001+9999REMSYN080    AAXX  15061 53276 32980 12906 11147 21180 38911 40351 54000 80002 333 21185;EQDQ01  00002PRCP99
0116532760999992000011509004+42400+112900FM-12+115299999V0202501N001012200019N0300001N1-01611-01991103761ADDGF101991001001999999001021MD1210141+9999REMSYN064    AAXX  15091 53276 42980 12501 11161 21199 40376 52014 80002;
0177532760999992000011512004+42400+112900FM-12+115299999V0202501N003012200019N0300001N1-02051-02311104131ADDAA199000091GA1001+999999999GF100991001001999999001001MA1999999089351MD1210101+9999REMSYN064    AAXX  15121 53276 32980 02503 11205 21231 38935 40413 52010;EQDQ01  00002PRCP99
0126532760999992000011515004+42400+112900FM-12+115299999V0202501N002012200019N0300001N1-02401-02651104331ADDGA1001+999999999GF100991001001999999001001MD1210081+9999REMSYN058    AAXX  15151 53276 42980 02502 11240 21265 40433 52008;
0200532760999992000011518004+42400+112900FM-12+115299999V0202201N002012200019N0300001N1-02511-02771104231ADDAA199000091GA1001+999999999GF100991001001999999001001KA1999M-01161MA1999999089381MD1710051+9999REMSYN074    AAXX  15181 53276 32980 02202 11251 21277 38938 40423 57005 333 11116;EQDQ01  00002PRCP99
0126532760999992000011521004+42400+112900FM-12+115299999V0202201N003012200019N0300001N1-02451-02701104181ADDGA1001+999999999GF100991001001999999001001MD1710071+9999REMSYN058    AAXX  15211 53276 42980 02203 11245 21270 40418 57007;
0187532760999992000011600004+42400+112900FM-12+115299999V0202201N003012200019N0300001N1-02221-02461104181ADDAA199000091GA1001+999999999GF100991001001999999001001MA1999999089261MD1710051+0031REMSYN074    AAXX  16001 53276 32980 02203 11222 21246 38926 40418 57005 333 00355;EQDQ01  00002PRCP99
0116532760999992000011603004+42400+112900FM-12+115299999V0202201N003012200019N0300001N1-01731-02101104161ADDGF103991011001999999031021MD1210021+9999REMSYN064    AAXX  16031 53276 42980 32203 11173 21210 40416 52002 81032;
0190532760999992000011606004+42400+112900FM-12+115299999V0202501N005012200019N0300001N1-01091-01591103711ADDAA199000091GF104991001001999999001021KA1999N-02531MA1999999089031MD1710251+9999REMSYN080    AAXX  16061 53276 32980 42505 11109 21159 38903 40371 57025 80002 333 21253;EQDQ01  00002PRCP99
0116532760999992000011609004+42400+112900FM-12+115299999V0202701N005012200019N0300001N1-01221-01731103741ADDGF101991011001999999031001MD1210011+9999REMSYN064    AAXX  16091 53276 42980 12705 11122 21173 40374 52001 81030;
0177532760999992000011612004+42400+112900FM-12+115299999V0202201N005012200019N0300001N1-01651-01981103841ADDAA199000091GA1001+999999999GF100991001001999999001001MA1999999089071MD1210031+9999REMSYN064    AAXX  16121 53276 32980 02205 11165 21198 38907 40384 52003;EQDQ01  00002PRCP99
0126532760999992000011615004+42400+112900FM-12+115299999V0202501N005012200019N0300001N1-01621-01971103701ADDGA1001+999999999GF100991001001999999001001MD1210021+9999REMSYN058    AAXX  16151 53276 42980 02505 11162 21197 40370 52002;
0200532760999992000011618004+42400+112900FM-12+115299999V0202201N006012200019N0300001N1-01661-02031103431ADDAA199000091GA1001+999999999GF100991001001999999001001KA1999M-00961MA1999999089011MD1710081+9999REMSYN074    AAXX  16181 53276 32980 02206 11166 21203 38901 40343 57008 333 11096;EQDQ01  00002PRCP99
0126532760999992000011621004+42400+112900FM-12+115299999V0202201N007012200019N0300001N1-01571-02031103341ADDGA1001+999999999GF100991001001999999001001MD1710091+9999REMSYN058    AAXX  16211 53276 42980 02207 11157 21203 40334 57009;
0177532760999992000011700004+42400+112900FM-12+115299999V0202501N008012200019N0300001N1-01431-01971103281ADDAA199000091GF101991001001999999001021MA1999999088801MD1710121+0051REMSYN080    AAXX  17001 53276 32980 12508 11143 21197 38880 40328 57012 80002 333 05508;EQDQ01  00002PRCP99
0126532760999992000011703004+42400+112900FM-12+115299999V0202501N005012200019N0300001N1-01051-01641103131ADDGA1001+999999999GF100991001001999999001001MD1710031+9999REMSYN058    AAXX  17031 53276 42980 02505 11105 21164 40313 57003;
0186532760999992000011706004+42400+112900FM-12+115299999V0202501N008012200019N0300001N1-00801-01421102871ADDAA199000091GA1001+999999999GF100991001001999999001001MA1999999088601MD1710171+9999REMSYN073    AAXX  17061 53276 32980 02508 11080 21142 38860 40287 57017 333 1195;EQDQ01  00002PRCP99
0126532760999992000011709004+42400+112900FM-12+115299999V0202901N008012200019N0300001N1-01041-01451102991ADDGA1001+999999999GF100991001001999999001001MD1210071+9999REMSYN058    AAXX  17091 53276 42980 02908 11104 21145 40299 52007;
0177532760999992000011712004+42400+112900FM-12+115299999V0202701N007012200019N0300001N1-01431-01811103301ADDAA199000091GA1001+999999999GF100991001001999999001001MA1999999088871MD1210201+9999REMSYN064    AAXX  17121 53276 32980 02707 11143 21181 38887 40330 52020;EQDQ01  00002PRCP99
0126532760999992000011715004+42400+112900FM-12+115299999V0202501N004012200019N0300001N1-01751-02091103411ADDGA1001+999999999GF100991001001999999001001MD1210111+9999REMSYN058    AAXX  17151 53276 42980 02504 11175 21209 40341 52011;
0200532760999992000011718004+42400+112900FM-12+115299999V0202701N008012200019N0300001N1-01781-02171103351ADDAA199000091GA1001+999999999GF100991001001999999001001KA1999M-00751MA1999999088991MD1210011+9999REMSYN074    AAXX  17181 53276 32980 02708 11178 21217 38899 40335 52001 333 11075;EQDQ01  00002PRCP99
0126532760999992000011721004+42400+112900FM-12+115299999V0202701N008012200019N0300001N1-01951-02331103461ADDGA1001+999999999GF100991001001999999001001MD1710011+9999REMSYN058    AAXX  17211 53276 42980 02708 11195 21233 40346 57001;
0177532760999992000011800004+42400+112900FM-12+115299999V0202901N009012200019N0300001N1-02091-02411103781ADDAA199000091GF101991011001999999031001MA1999999089111MD1210131+0031REMSYN080    AAXX  18001 53276 32980 12909 11209 21241 38911 40378 52013 81030 333 00357;EQDQ01  00002PRCP99
0116532760999992000011803004+42400+112900FM-12+115299999V0202901N008019999999N0300001N1-01941-02291104131ADDGF107991021001999999031021MD1210261+9999REMSYN064    AAXX  18031 53276 42980 72908 11194 21229 40413 52026 82032;
0190532760999992000011806004+42400+112900FM-12+115299999V0202901N008019999999N0300001N1-01721-02091104011ADDAA199000091GF107991001001999999001021KA1999N-02111MA1999999089321MD1710051+9999REMSYN080    AAXX  18061 53276 32980 72908 11172 21209 38932 40401 57005 80002 333 21211;EQDQ01  00002PRCP99
0116532760999992000011809004+42400+112900FM-12+115299999V0202901N008012200019N0300001N1-01771-02131104191ADDGF101991011001999999031021MD1210091+9999REMSYN064    AAXX  18091 53276 42980 12908 11177 21213 40419 52009 81032;
0177532760999992000011812004+42400+112900FM-12+115299999V0202701N007012200019N0300001N1-02001-02281104281ADDAA199000091GA1001+999999999GF100991001001999999001001MA1999999089391MD1710021+9999REMSYN064    AAXX  18121 53276 32980 02707 11200 21228 38939 40428 57002;EQDQ01  00002PRCP99
0126532760999992000011815004+42400+112900FM-12+115299999V0202501N007012200019N0300001N1-02281-02561104241ADDGA1001+999999999GF100991001001999999001001MD1710071+9999REMSYN058    AAXX  18151 53276 42980 02507 11228 21256 40424 57007;
0200532760999992000011818004+42400+112900FM-12+115299999V0202501N005012200019N0300001N1-02151-02541103931ADDAA199000091GA1001+999999999GF100991001001999999001001KA1999M-01441MA1999999089151MD1710171+9999REMSYN074    AAXX  18181 53276 32980 02505 11215 21254 38915 40393 57017 333 11144;EQDQ01  00002PRCP99
0126532760999992000011821004+42400+112900FM-12+115299999V0202501N005012200019N0300001N1-02271-02701103761ADDGA1001+999999999GF100991001001999999001001MD1710191+9999REMSYN058    AAXX  18211 53276 42980 02505 11227 21270 40376 57019;
0187532760999992000011900004+42400+112900FM-12+115299999V0202701N007012200019N0300001N1-02041-02501103701ADDAA199000091GA1001+999999999GF100991001001999999001001MA1999999088911MD1710051+0021REMSYN074    AAXX  19001 53276 32980 02707 11204 21250 38891 40370 57005 333 05201;EQDQ01  00002PRCP99
0116532760999992000011903004+42400+112900FM-12+115299999V0202501N008012200019N0300001N1-01771-02241103861ADDGF101991001001999999001021MD1210131+9999REMSYN064    AAXX  19031 53276 42980 12508 11177 21224 40386 52013 80002;
0190532760999992000011906004+42400+112900FM-12+115299999V0202901N005012200019N0300001N1-01491-02081103651ADDAA199000091GF101991001001999999001021KA1999N-02301MA1999999088971MD1710071+9999REMSYN080    AAXX  19061 53276 32980 12905 11149 21208 38897 40365 57007 80002 333 21230;EQDQ01  00002PRCP99
0116532760999992000011909004+42400+112900FM-12+115299999V0200201N003012200019N0300001N1-01761-02231103911ADDGF101991001001999999001021MD1210121+9999REMSYN064    AAXX  19091 53276 42980 10203 11176 21223 40391 52012 80002;
0177532760999992000011912004+42400+112900FM-12+115299999V0201801N003012200019N0300001N1-02151-02491104041ADDAA199000091GA1001+999999999GF100991001001999999001001MA1999999089161MD1210071+9999REMSYN064    AAXX  19121 53276 32980 01803 11215 21249 38916 40404 52007;EQDQ01  00002PRCP99
0122532760999992000011915004+42400+112900FM-12+115299999V0202201N002012200019N0300001N1-02291-02641104111ADDGA1001+999999999GF100991001001999999001001MD1210091+9999REMSYN054AAXX  19151 53276 42980 02202 11229 21264 40411 52009;
0196532760999992000011918004+42400+112900FM-12+115299999V0201801N003012200019N0300001N1-02331-02761104101ADDAA199000091GA1001+999999999GF100991001001999999001001KA1999M-01451MA1999999089311MD1210061+9999REMSYN070AAXX  19181 53276 32980 01803 11233 21276 38931 40410 52006 333 11145;EQDQ01  00002PRCP99
0122532760999992000011921004+42400+112900FM-12+115299999V0202201N002012200019N0300001N1-02221-02721104091ADDGA1001+999999999GF100991001001999999001001MD1710051+9999REMSYN054AAXX  19211 53276 42980 02202 11222 21272 40409 57005;
0183532760999992000012000004+42400+112900FM-12+115299999V0202201N002012200019N0300001N1-02251-02731104301ADDAA199000091GA1001+999999999GF100991001001999999001001MA1999999089321MD1210061+0041REMSYN070AAXX  20001 53276 32980 02202 11225 21273 38932 40430 52006 333 00452;EQDQ01  00002PRCP99
0122532760999992000012003004+42400+112900FM-12+115299999V0202201N003012200019N0300001N1-01611-02191104351ADDGA1001+999999999GF100991001001999999001001MD1210181+9999REMSYN054AAXX  20031 53276 42980 02203 11161 21219 40435 52018;
0196532760999992000012006004+42400+112900FM-12+115299999V0201801N002012200019N0300001N1-00901-01781103901ADDAA199000091GA1001+999999999GF100991001001999999001001KA1999N-02401MA1999999089291MD1710211+9999REMSYN070AAXX  20061 53276 32980 01802 11090 21178 38929 40390 57021 333 21240;EQDQ01  00002PRCP99
0112532760999992000012009004+42400+112900FM-12+115299999V0209999C000012200019N0300001N1-01271-01761103991ADDGF102991001001999999001021MD1210011+9999REMSYN060AAXX  20091 53276 42980 20000 11127 21176 40399 52001 80002;
0163532760999992000012012004+42400+112900FM-12+115299999V0209999C000012200019N0300001N1-01451-02001104101ADDAA199000091GF101991001001999999001021MA1999999089341MD1210041+9999REMSYN066AAXX  20121 53276 32980 10000 11145 21200 38934 40410 52004 80002;EQDQ01  00002PRCP99
0112532760999992000012015004+42400+112900FM-12+115299999V0202001N002019999999N0300001N1-01411-02081103831ADDGF106991001001999999001021MD1710051+9999REMSYN060AAXX  20151 53276 42980 62002 11141 21208 40383 57005 80002;
0186532760999992000012018004+42400+112900FM-12+115299999V0201601N003012200019N0300001N1-01571-02291103571ADDAA199000091GF101991011001999999031021KA1999M-00861MA1999999089201MD1710091+9999REMSYN076AAXX  20181 53276 32980 11603 11157 21229 38920 40357 57009 81032 333 11086;EQDQ01  00002PRCP99
0112532760999992000012021004+42400+112900FM-12+115299999V0202201N002012200019N0300001N1-01501-02191103641ADDGF102991001001999999001021MD1710011+9999REMSYN060AAXX  20211 53276 42980 22202 11150 21219 40364 57001 80002;
0173532760999992000012100004+42400+112900FM-12+115299999V0202001N006019999999N0300001N1-01221-01731103451ADDAA199000091GF107991011001999999031021MA1999999089051MD1710141+0031REMSYN076AAXX  21001 53276 32980 72006 11122 21173 38905 40345 57014 81032 333 05310;EQDQ01  00002PRCP99
0112532760999992000012103004+42400+112900FM-12+115299999V0202201N006019999999N0300001N1-00531-01341103221ADDGF107991011001999999031021MD1710021+9999REMSYN060AAXX  21031 53276 42980 72206 11053 21134 40322 57002 81032;
0186532760999992000012106004+42400+112900FM-12+115299999V0202001N006019999999N0300001N1-00301-01021102881ADDAA199000091GF107991021001999999031081KA1999N-01771MA1999999088761MD1710271+9999REMSYN076AAXX  21061 53276 32980 72006 11030 21102 38876 40288 57027 82038 333 21177;EQDQ01  00002PRCP99
0112532760999992000012109004+42400+112900FM-12+115299999V0201801N006019999999N0300001N1-00581-01151102861ADDGF108991001001999999001071MD1710071+9999REMSYN060AAXX  21091 53276 42980 81806 11058 21115 40286 57007 80007;
0170532760999992000012112004+42400+112900FM-12+115299999V0202201N007019999999N0060001N1-00701-00911102801ADDAA106000391AY171061GF108991081001999999021999MA1999999088681MD1710011+9999MW1711REMSYN078AAXX  21121 53276 11956 82207 11070 21091 38868 40280 57001 69931 77170 8802/;
0140532760999992000012115004+42400+112900FM-12+115299999V0202501N005019999999N0060001N1-00731-00861102581ADDAY171031AY271031GF108991081001999999021999MD1710031+9999MW1711REMSYN066AAXX  21151 53276 41956 82505 11073 21086 40258 57003 77177 8802/;
0201532760999992000012118004+42400+112900FM-12+115299999V0202701N006019999999N0090001N1-01071-01231102631ADDAA106000391AY171061AY271061GF108991081001999999011999KA1999M-00241MA1999999088661MD1210011+9999MW1701REMSYN088AAXX  21181 53276 11959 82706 11107 21123 38866 40263 52001 69931 77077 8801/ 333 11024;
0161532760999992000012121004+42400+112900FM-12+115299999V0202901N005019999999N0150001N1-01211-01381102731ADDAA124000891AY171031AY271031GF108991001001999999001071MD1710011+9999MW1701REMSYN076AAXX  21211 53276 41965 82905 11121 21138 40273 57001 77077 80007 333 70008;
0186532760999992000012200004+42400+112900FM-12+115299999V0202501N004012200019N0300001N1-01911-02061103061ADDAA106000191AY171061GF103991001001999999001021MA1999999088731MD1210081-0301MW1001REMSYN094AAXX  22001 53276 11980 32504 11191 21206 38873 40306 52008 69921 70070 80002 333 05357 70008;
0112532760999992000012203004+42400+112900FM-12+115299999V0202901N004012200019N0300001N1-01481-01801103071ADDGF102991001001999999001021MD1210111+9999REMSYN060AAXX  22031 53276 42980 22904 11148 21180 40307 52011 80002;
0167532760999992000012206004+42400+112900FM-12+115299999V0203201N003019999999N0300001N1-01491-01821103091ADDAA199000021GF107991001001999999001021KA1999N-01941MA1999999088771MD1710071+9999REMSYN076AAXX  22061 53276 32980 73203 11149 21182 38877 40309 57007 80002 333 21194;
0112532760999992000012209004+42400+112900FM-12+115299999V0202701N003019999999N0300001N1-01651-01991103331ADDGF105991001001999999001021MD1210131+9999REMSYN060AAXX  22091 53276 42980 52703 11165 21199 40333 52013 80002;
0163532760999992000012212004+42400+112900FM-12+115299999V0202701N004012200019N0300001N1-02011-02291103791ADDAA199000091GF101991001001999999001021MA1999999089021MD1210121+9999REMSYN066AAXX  22121 53276 32980 12704 11201 21229 38902 40379 52012 80002;EQDQ01  00002PRCP99
0112532760999992000012215004+42400+112900FM-12+115299999V0202501N003019999999N0300001N1-01991-02271103771ADDGF107991001001999999001021MD1210101+9999REMSYN060AAXX  22151 53276 42980 72503 11199 21227 40377 52010 80002;
0186532760999992000012218004+42400+112900FM-12+115299999V0202501N004012200019N0300001N1-02261-02501103951ADDAA199000091GF101991001001999999001021KA1999M-01071MA1999999089201MD1210081+9999REMSYN076AAXX  22181 53276 32980 12504 11226 21250 38920 40395 52008 80002 333 11107;EQDQ01  00002PRCP99
0153532760999992000012221004+42400+112900FM-12+115299999V0202901N002010900019N0300001N1-02191-02421104191ADDAA124000191AY171031GF106991021051012501001021MD1210181+9999MW1701REMSYN076AAXX  22211 53276 41680 62902 11219 21242 40419 52018 77070 82502 333 70001;
0186532760999992000012300004+42400+112900FM-12+115299999V0202501N005010900019N0300001N1-02441-02681104571ADDAA106000391AY171061GF107991021051017501001021MA1999999089541MD1210161+0801MW1221REMSYN094AAXX  23001 53276 11780 72505 11244 21268 38954 40457 52016 69931 72270 82502 333 00855 70003;
0132532760999992000012303004+42400+112900FM-12+115299999V0202901N004019999999N0300001N1-02201-02491104731ADDAY171031GF107991001001999999001021MD1210211+9999MW1001REMSYN066AAXX  23031 53276 41980 72904 11220 21249 40473 52021 70070 80002;
0193532760999992000012306004+42400+112900FM-12+115299999V0203401N005019999999N0200001N1-02271-02551104931ADDAA106000791AY171061GF106991001001999999001021KA1999N-02451MA1999999089831MD1210081+9999MW1001REMSYN088AAXX  23061 53276 11970 63405 11227 21255 38983 40493 52008 69901 70070 80002 333 21245;
0122532760999992000012309004+42400+112900FM-12+115299999V0203401N002012200019N0300001N1-02301-02581105201ADDGA1001+999999999GF100991001001999999001001MD1210241+9999REMSYN054AAXX  23091 53276 42980 03402 11230 21258 40520 52024;
0154532760999992000012312004+42400+112900FM-12+115299999V0202901N002012200019N0300001N1-02701-02921105621ADDAA199000021GA1001+999999999GF100991001001999999001001MA1999999090251MD1210181+9999REMSYN060AAXX  23121 53276 32980 02902 11270 21292 39025 40562 52018;
0122532760999992000012315004+42400+112900FM-12+115299999V0202501N005012200019N0300001N1-02701-02921105631ADDGA1001+999999999GF100991001001999999001001MD1210071+9999REMSYN054AAXX  23151 53276 42980 02505 11270 21292 40563 52007;
0196532760999992000012318004+42400+112900FM-12+115299999V0202501N004012200019N0300001N1-02801-03021105781ADDAA199000091GA1001+999999999GF100991001001999999001001KA1999M-02151MA1999999090401MD1210081+9999REMSYN070AAXX  23181 53276 32980 02504 11280 21302 39040 40578 52008 333 11215;EQDQ01  00002PRCP99
0143532760999992000012321004+42400+112900FM-12+115299999V0202501N005012200019N0300001N1-02881-03111105851ADDAA124000391GA1001+999999999GF100991001001999999001001MD1210031+9999REMSYN064AAXX  23211 53276 42980 02505 11288 21311 40585 52003 333 70002;
0170532760999992000012400004+42400+112900FM-12+115299999V0202501N004012200019N0300001N1-02811-03031105961ADDAA124000791GA1001+999999999GF100991001001999999001001MA1999999090431MD1410001+0901REMSYN076AAXX  24001 53276 32980 02504 11281 21303 39043 40596 54000 333 00954 79999;
0122532760999992000012403004+42400+112900FM-12+115299999V0202201N004012200019N0300001N1-02391-02601105861ADDGA1001+999999999GF100991001001999999001001MD1210041+9999REMSYN054AAXX  24031 53276 42980 02204 11239 21260 40586 52004;
0196532760999992000012406004+42400+112900FM-12+115299999V0202501N004012200019N0300001N1-02091-02441105721ADDAA199000091GA1001+999999999GF100991001001999999001001KA1999N-02961MA1999999090401MD1710071+9999REMSYN070AAXX  24061 53276 32980 02504 11209 21244 39040 40572 57007 333 21296;EQDQ01  00002PRCP99
0112532760999992000012409004+42400+112900FM-12+115299999V0202701N002012200019N0300001N1-02031-02421105701ADDGF101991001001999999001021MD1710021+9999REMSYN060AAXX  24091 53276 42980 12702 11203 21242 40570 57002 80002;
0173532760999992000012412004+42400+112900FM-12+115299999V0202501N005012200019N0300001N1-02531-02791105921ADDAA199000091GA1001+999999999GF100991001001999999001001MA1999999090451MD1210071+9999REMSYN060AAXX  24121 53276 32980 02505 11253 21279 39045 40592 52007;EQDQ01  00002PRCP99
0122532760999992000012415004+42400+112900FM-12+115299999V0202501N005012200019N0300001N1-02471-02801105771ADDGA1001+999999999GF100991001001999999001001MD1410001+9999REMSYN054AAXX  24151 53276 42980 02505 11247 21280 40577 54000;
0186532760999992000012418004+42400+112900FM-12+115299999V0202501N005019999999N0300001N1-02531-02831105671ADDAA199000091GF106991001001999999001021KA1999M-01941MA1999999090441MD1710011+9999REMSYN076AAXX  24181 53276 32980 62505 11253 21283 39044 40567 57001 80002 333 11194;EQDQ01  00002PRCP99
0112532760999992000012421004+42400+112900FM-12+115299999V0202501N006012200019N0300001N1-02871-03181105721ADDGF101991001001999999001021MD1710041+9999REMSYN060AAXX  24211 53276 42980 12506 11287 21318 40572 57004 80002;
0189532760999992000012500004+42400+112900FM-12+115299999V0202501N005012200019N0300001N1-02931-03201105991ADDAA199000091GA1001+999999999GF100991001001999999001001MA1999999090471MD1210071+0001REMSYN076AAXX  25001 53276 32980 02505 11293 21320 39047 40599 52007 333 00051 92504;EQDQ01  00002PRCP99
0122532760999992000012503004+42400+112900FM-12+115299999V0202901N006012200019N0300001N1-02321-02641105791ADDGA1001+999999999GF100991001001999999001001MD1210021+9999REMSYN054AAXX  25031 53276 42980 02906 11232 21264 40579 52002;
0196532760999992000012506004+42400+112900FM-12+115299999V0202901N009012200019N0300001N1-02021-02351105641ADDAA199000091GA1001+999999999GF100991001001999999001001KA1999N-02931MA1999999090431MD1710061+9999REMSYN070AAXX  25061 53276 32980 02909 11202 21235 39043 40564 57006 333 21293;EQDQ01  00002PRCP99
0122532760999992000012509004+42400+112900FM-12+115299999V0202701N008012200019N0300001N1-02071-02401105831ADDGA1001+999999999GF100991001001999999001001MD1210051+9999REMSYN054AAXX  25091 53276 42980 02708 11207 21240 40583 52005;
0173532760999992000012512004+42400+112900FM-12+115299999V0202501N007012200019N0300001N1-02311-02581106011ADDAA199000091GA1001+999999999GF100991001001999999001001MA1999999090551MD1210071+9999REMSYN060AAXX  25121 53276 32980 02507 11231 21258 39055 40601 52007;EQDQ01  00002PRCP99
0122532760999992000012515004+42400+112900FM-12+115299999V0202701N007012200019N0300001N1-02321-02631105871ADDGA1001+999999999GF100991001001999999001001MD1210051+9999REMSYN054AAXX  25151 53276 42980 02707 11232 21263 40587 52005;
0196532760999992000012518004+42400+112900FM-12+115299999V0202701N007012200019N0300001N1-02411-02721105841ADDAA199000091GA1001+999999999GF100991001001999999001001KA1999M-02001MA1999999090631MD1210031+9999REMSYN070AAXX  25181 53276 32980 02707 11241 21272 39063 40584 52003 333 11200;EQDQ01  00002PRCP99
0122532760999992000012521004+42400+112900FM-12+115299999V0202501N005012200019N0300001N1-02521-02841105831ADDGA1001+999999999GF100991001001999999001001MD1710051+9999REMSYN054AAXX  25211 53276 42980 02505 11252 21284 40583 57005;
0183532760999992000012600004+42400+112900FM-12+115299999V0202501N006012200019N0300001N1-02451-02771105951ADDAA199000091GA1001+999999999GF100991001001999999001001MA1999999090641MD1210061+0021REMSYN070AAXX  26001 53276 32980 02506 11245 21277 39064 40595 52006 333 00205;EQDQ01  00002PRCP99
0122532760999992000012603004+42400+112900FM-12+115299999V0202501N005012200019N0300001N1-02031-02421105871ADDGA1001+999999999GF100991001001999999001001MD1210041+9999REMSYN054AAXX  26031 53276 42980 02505 11203 21242 40587 52004;
0196532760999992000012606004+42400+112900FM-12+115299999V0202901N004012200019N0300001N1-01561-02051105621ADDAA199000091GA1001+999999999GF100991001001999999001001KA1999N-02541MA1999999090571MD1710111+9999REMSYN070AAXX  26061 53276 32980 02904 11156 21205 39057 40562 57011 333 21254;EQDQ01  00002PRCP99
0122532760999992000012609004+42400+112900FM-12+115299999V0200201N002012200019N0300001N1-01741-02111105711ADDGA1001+999999999GF100991001001999999001001MD1410001+9999REMSYN054AAXX  26091 53276 42980 00202 11174 21211 40571 54000;
0173532760999992000012612004+42400+112900FM-12+115299999V0201601N001012200019N0300001N1-02231-02491105811ADDAA199000091GA1001+999999999GF100991001001999999001001MA1999999090541MD1710031+9999REMSYN060AAXX  26121 53276 32980 01601 11223 21249 39054 40581 57003;EQDQ01  00002PRCP99
0122532760999992000012615004+42400+112900FM-12+115299999V0202001N003012200019N0300001N1-02261-02521105581ADDGA1001+999999999GF100991001001999999001001MD1710091+9999REMSYN054AAXX  26151 53276 42980 02003 11226 21252 40558 57009;
0196532760999992000012618004+42400+112900FM-12+115299999V0202501N003012200019N0300001N1-02431-02701105381ADDAA199000091GA1001+999999999GF100991001001999999001001KA1999M-01521MA1999999090361MD1710091+9999REMSYN070AAXX  26181 53276 32980 02503 11243 21270 39036 40538 57009 333 11152;EQDQ01  00002PRCP99
0122532760999992000012621004+42400+112900FM-12+115299999V0202501N005012200019N0300001N1-02691-02991105341ADDGA1001+999999999GF100991001001999999001001MD1710151+9999REMSYN054AAXX  26211 53276 42980 02505 11269 21299 40534 57015;
0183532760999992000012700004+42400+112900FM-12+115299999V0202201N003012200019N0300001N1-02671-02971105381ADDAA199000091GA1001+999999999GF100991001001999999001001MA1999999090111MD1710101+0051REMSYN070AAXX  27001 53276 32980 02203 11267 21297 39011 40538 57010 333 05552;EQDQ01  00002PRCP99
0122532760999992000012703004+42400+112900FM-12+115299999V0202201N003012200019N0300001N1-01931-02391105091ADDGA1001+999999999GF100991001001999999001001MD1710051+9999REMSYN054AAXX  27031 53276 42980 02203 11193 21239 40509 57005;
0196532760999992000012706004+42400+112900FM-12+115299999V0201801N001012200019N0300001N1-01191-01811104591ADDAA199000091GA1001+999999999GF100991001001999999001001KA1999N-02771MA1999999089781MD1710281+9999REMSYN070AAXX  27061 53276 32980 01801 11119 21181 38978 40459 57028 333 21277;EQDQ01  00002PRCP99
0122532760999992000012709004+42400+112900FM-12+115299999V0209999C000012200019N0300001N1-01211-01911104551ADDGA1001+999999999GF100991001001999999001001MD1710111+9999REMSYN054AAXX  27091 53276 42980 00000 11121 21191 40455 57011;
0173532760999992000012712004+42400+112900FM-12+115299999V0202201N002012200019N0300001N1-01841-02181104661ADDAA199000091GA1001+999999999GF100991001001999999001001MA1999999089601MD1710071+9999REMSYN060AAXX  27121 53276 32980 02202 11184 21218 38960 40466 57007;EQDQ01  00002PRCP99
0122532760999992000012715004+42400+112900FM-12+115299999V0202201N004012200019N0300001N1-01741-02261104281ADDGA1001+999999999GF100991001001999999001001MD1710101+9999REMSYN054AAXX  27151 53276 42980 02204 11174 21226 40428 57010;
0196532760999992000012718004+42400+112900FM-12+115299999V0202501N007012200019N0300001N1-01921-02401104001ADDAA199000091GA1001+999999999GF100991001001999999001001KA1999M-00851MA1999999089411MD1710091+9999REMSYN070AAXX  27181 53276 32980 02507 11192 21240 38941 40400 57009 333 11085;EQDQ01  00002PRCP99
0122532760999992000012721004+42400+112900FM-12+115299999V0202501N006012200019N0300001N1-01841-02341103831ADDGA1001+999999999GF100991001001999999001001MD1710131+9999REMSYN054AAXX  27211 53276 42980 02506 11184 21234 40383 57013;
0173532760999992000012800004+42400+112900FM-12+115299999V0202501N006012200019N0300001N1-01671-02271103981ADDAA199000091GF101991001001999999001021MA1999999089291MD1210011+0081REMSYN076AAXX  28001 53276 32980 12506 11167 21227 38929 40398 52001 80002 333 05810;EQDQ01  00002PRCP99
0112532760999992000012803004+42400+112900FM-12+115299999V0202501N009012200019N0300001N1-01491-02041103961ADDGF101991001001999999001021MD1210051+9999REMSYN060AAXX  28031 53276 42980 12509 11149 21204 40396 52005 80002;
0153532760999992000012806004+42400+112900FM-12+115299999V0202901N009012200019N0200001N1-01491+99999999999ADDAA199000091GA1001+999999999GF100991001001999999001001REMSYN069AAXX  28061 53276 32970 02909 11149 2102 38926 40392 57008 333 21216;EQDQ01  00002PRCP99
0124532760999992000012809004+42400+112900FM-12+115299999V0202701N008010120019N0200001N1-01551-01941104031ADDGF107991051051012501001021MD1210101+9999MW1701REMSYN066AAXX  28091 53276 41670 72708 11155 21194 40403 52010 77000 85502;
0180532760999992000012812004+42400+112900FM-12+115299999V0202901N009012200019N0300001N1-01951-02321104251ADDAA106000791AY171061GA1001+999999999GF100991001001999999001001MA1999999089491MD1210131+9999MW1001REMSYN072AAXX  28121 53276 11980 02909 11195 21232 38949 40425 52013 69901 70070;
0122532760999992000012815004+42400+112900FM-12+115299999V0202501N004012200019N0300001N1-02171-02531104521ADDGA1001+999999999GF100991001001999999001001MD1210221+9999REMSYN054AAXX  28151 53276 42980 02504 11217 21253 40452 52022;
0167532760999992000012818004+42400+112900FM-12+115299999V0202501N005012200019N0300001N1-02331-02641104611ADDAA199000021GF102991001001999999001021KA1999M-01331MA1999999089751MD1210041+9999REMSYN076AAXX  28181 53276 32980 22505 11233 21264 38975 40461 52004 80002 333 11133;
0153532760999992000012821004+42400+112900FM-12+115299999V0202501N006010900019N0200001N1-02231-02511104661ADDAA124000191AY171031GF107991021051012501001081MD1210051+9999MW1701REMSYN076AAXX  28211 53276 41670 72506 11223 21251 40466 52005 77070 82508 333 70001;
0186532760999992000012900004+42400+112900FM-12+115299999V0202501N007010900019N0200001N1-02241-02521104911ADDAA106000191AY171061GF107991021051012501001021MA1999999089901MD1210101+0601MW1001REMSYN094AAXX  29001 53276 11670 72507 11224 21252 38990 40491 52010 69911 70070 82502 333 00656 70001;
0132532760999992000012903004+42400+112900FM-12+115299999V0202701N008019999999N0150001N1-02091-02391105191ADDAY171031GF107991021001999999031021MD1210221+9999MW1001REMSYN066AAXX  29031 53276 41965 72708 11209 21239 40519 52022 70070 82032;
0193532760999992000012906004+42400+112900FM-12+115299999V0202901N008019999999N0180001N1-01901-02221105131ADDAA106000791AY171061GF107991001001999999001021KA1999N-02391MA1999999090081MD1710041+9999MW1001REMSYN088AAXX  29061 53276 11968 72908 11190 21222 39008 40513 57004 69901 70070 80002 333 21239;
0112532760999992000012909004+42400+112900FM-12+115299999V0202901N005010900019N0180001N1-01951-02241105221ADDGF107991011051012501001021MD1210091+9999REMSYN060AAXX  29091 53276 42668 72905 11195 21224 40522 52009 81502;
0163532760999992000012912004+42400+112900FM-12+115299999V0202501N005012200019N0200001N1-02131-02451105411ADDAA199000091GF103991001001999999001021MA1999999090281MD1210111+9999REMSYN066AAXX  29121 53276 32970 32505 11213 21245 39028 40541 52011 80002;EQDQ01  00002PRCP99
0112532760999992000012915004+42400+112900FM-12+115299999V0202501N004012200019N0300001N1-02451-02701105451ADDGF101991001001999999001021MD1710011+9999REMSYN060AAXX  29151 53276 42980 12504 11245 21270 40545 57001 80002;
0186532760999992000012918004+42400+112900FM-12+115299999V0202201N006012200019N0300001N1-02331-02631105251ADDAA199000091GF101991001001999999001021KA1999M-01841MA1999999090181MD1710091+9999REMSYN076AAXX  29181 53276 32980 12206 11233 21263 39018 40525 57009 80002 333 11184;EQDQ01  00002PRCP99
0143532760999992000012921004+42400+112900FM-12+115299999V0202901N004012200019N0300001N1-02471-02821105331ADDAA124000791GA1001+999999999GF100991001001999999001001MD1210021+9999REMSYN064AAXX  29211 53276 42980 02904 11247 21282 40533 52002 333 79999;
0170532760999992000013000004+42400+112900FM-12+115299999V0202501N004012200019N0300001N1-02641-02941105611ADDAA124000791GA1001+999999999GF100991001001999999001001MA1999999090341MD1210141+0401REMSYN076AAXX  30001 53276 32980 02504 11264 21294 39034 40561 52014 333 00454 79999;
0112532760999992000013003004+42400+112900FM-12+115299999V0202701N005012200019N0300001N1-02241-02571105841ADDGF102991001001999999001021MD1210221+9999REMSYN060AAXX  30031 53276 42980 22705 11224 21257 40584 52022 80002;
0186532760999992000013006004+42400+112900FM-12+115299999V0203401N007019999999N0300001N1-01981-02331105691ADDAA199000091GF107991001001999999001021KA1999N-02721MA1999999090541MD1710021+9999REMSYN076AAXX  30061 53276 32980 73407 11198 21233 39054 40569 57002 80002 333 21272;EQDQ01  00002PRCP99
0112532760999992000013009004+42400+112900FM-12+115299999V0203201N004012200019N0300001N1-02021-02351105911ADDGF102991001001999999001021MD1210141+9999REMSYN060AAXX  30091 53276 42980 23204 11202 21235 40591 52014 80002;
0163532760999992000013012004+42400+112900FM-12+115299999V0202901N004012200019N0300001N1-02461-02731106281ADDAA199000091GF101991001001999999001021MA1999999090821MD1210141+9999REMSYN066AAXX  30121 53276 32980 12904 11246 21273 39082 40628 52014 80002;EQDQ01  00002PRCP99
0122532760999992000013015004+42400+112900FM-12+115299999V0202501N003012200019N0300001N1-02681-02941106291ADDGA1001+999999999GF100991001001999999001001MD1210061+9999REMSYN054AAXX  30151 53276 42980 02503 11268 21294 40629 52006;
0196532760999992000013018004+42400+112900FM-12+115299999V0201801N002012200019N0300001N1-02551-02811106111ADDAA199000091GA1001+999999999GF100991001001999999001001KA1999M-01921MA1999999090841MD1710041+9999REMSYN070AAXX  30181 53276 32980 01802 11255 21281 39084 40611 57004 333 11192;EQDQ01  00002PRCP99
0122532760999992000013021004+42400+112900FM-12+115299999V0209999C000012200019N0300001N1-02891-03161106131ADDGA1001+999999999GF100991001001999999001001MD1710091+9999REMSYN054AAXX  30211 53276 42980 00000 11289 21316 40613 57009;
0183532760999992000013100004+42400+112900FM-12+115299999V0201801N002012200019N0300001N1-02911-03181106261ADDAA199000091GA1001+999999999GF100991001001999999001001MA1999999090731MD1710021+0041REMSYN070AAXX  31001 53276 32980 01802 11291 21318 39073 40626 57002 333 00453;EQDQ01  00002PRCP99
0122532760999992000013103004+42400+112900FM-12+115299999V0201801N004012200019N0300001N1-02321-02581106101ADDGA1001+999999999GF100991001001999999001001MD1710031+9999REMSYN054AAXX  31031 53276 42980 01804 11232 21258 40610 57003;
0196532760999992000013106004+42400+112900FM-12+115299999V0200901N002012200019N0300001N1-01871-02331105621ADDAA199000091GA1001+999999999GF100991001001999999001001KA1999N-03031MA1999999090451MD1710251+9999REMSYN070AAXX  31061 53276 32980 00902 11187 21233 39045 40562 57025 333 21303;EQDQ01  00002PRCP99
0122532760999992000013109004+42400+112900FM-12+115299999V0200701N003012200019N0300001N1-02051-02441105621ADDGA1001+999999999GF100991001001999999001001MD1710151+9999REMSYN054AAXX  31091 53276 42980 00703 11205 21244 40562 57015;
0173532760999992000013112004+42400+112900FM-12+115299999V0202001N001012200019N0300001N1-02481-02801105771ADDAA199000091GA1001+999999999GF100991001001999999001001MA1999999090301MD1410001+9999REMSYN060AAXX  31121 53276 32980 02001 11248 21280 39030 40577 54000;EQDQ01  00002PRCP99
0122532760999992000013115004+42400+112900FM-12+115299999V0202001N003012200019N0300001N1-02691-03001105451ADDGA1001+999999999GF100991001001999999001001MD1710161+9999REMSYN054AAXX  31151 53276 42980 02003 11269 21300 40545 57016;
0196532760999992000013118004+42400+112900FM-12+115299999V0202201N001012200019N0300001N1-02801-03101105171ADDAA199000091GA1001+999999999GF100991001001999999001001KA1999M-01761MA1999999089991MD1710151+9999REMSYN070AAXX  31181 53276 32980 02201 11280 21310 38999 40517 57015 333 11176;EQDQ01  00002PRCP99
0122532760999992000013121004+42400+112900FM-12+115299999V0202501N002012200019N0300001N1-02931-03201105081ADDGA1001+999999999GF100991001001999999001001MD1710161+9999REMSYN054AAXX  31211 53276 42980 02502 11293 21320 40508 57016;
0173532760999992000020100004+42400+112900FM-12+115299999V0202201N001012200019N0300001N1-03001-03281105171ADDAA199000091GF101991001001999999001021MA1999999089771MD1710061+0101REMSYN076AAXX  01001 53276 32980 12201 11300 21328 38977 40517 57006 80002 333 06051;EQDQ01  00002PRCP99
0112532760999992000020103004+42400+112900FM-12+115299999V0202501N002012200019N0300001N1-02291-02721104901ADDGF101991001001999999001021MD1710091+9999REMSYN060AAXX  01031 53276 42980 12502 11229 21272 40490 57009 80002;
0186532760999992000020106004+42400+112900FM-12+115299999V0200701N002012200019N0300001N1-01801-02361104581ADDAA199000091GF101991001001999999001021KA1999N-03011MA1999999089511MD1710171+9999REMSYN076AAXX  01061 53276 32980 10702 11180 21236 38951 40458 57017 80002 333 21301;EQDQ01  00002PRCP99
0122532760999992000020109004+42400+112900FM-12+115299999V0200401N002012200019N0300001N1-02121-02441104691ADDGA1001+999999999GF100991001001999999001001MD1710031+9999REMSYN054AAXX  01091 53276 42980 00402 11212 21244 40469 57003;
0173532760999992000020112004+42400+112900FM-12+115299999V0209999C000012200019N0300001N1-02581-02821104941ADDAA199000091GA1001+999999999GF100991001001999999001001MA1999999089541MD1210061+9999REMSYN060AAXX  01121 53276 32980 00000 11258 21282 38954 40494 52006;EQDQ01  00002PRCP99
0122532760999992000020115004+42400+112900FM-12+115299999V0209999C000012200019N0300001N1-02751-03011104761ADDGA1001+999999999GF100991001001999999001001MD1410001+9999REMSYN054AAXX  01151 53276 42980 00000 11275 21301 40476 54000;
0196532760999992000020118004+42400+112900FM-12+115299999V0202201N004012200019N0300001N1-02631-02871104491ADDAA199000091GA1001+999999999GF100991001001999999001001KA1999M-01461MA1999999089481MD1710061+9999REMSYN070AAXX  01181 53276 32980 02204 11263 21287 38948 40449 57006 333 11146;EQDQ01  00002PRCP99
0122532760999992000020121004+42400+112900FM-12+115299999V0202201N003012200019N0300001N1-02861-03161104611ADDGA1001+999999999GF100991001001999999001001MD1710051+9999REMSYN054AAXX  01211 53276 42980 02203 11286 21316 40461 57005;
0183532760999992000020200004+42400+112900FM-12+115299999V0202501N005012200019N0300001N1-02561-02891104701ADDAA199000091GA1001+999999999GF100991001001999999001001MA1999999089461MD1210031+0031REMSYN070AAXX  02001 53276 32980 02505 11256 21289 38946 40470 52003 333 05304;EQDQ01  00002PRCP99
0122532760999992000020203004+42400+112900FM-12+115299999V0202501N004012200019N0300001N1-02151-02601104711ADDGA1001+999999999GF100991001001999999001001MD1210081+9999REMSYN054AAXX  02031 53276 42980 02504 11215 21260 40471 52008;
0196532760999992000020206004+42400+112900FM-12+115299999V0202901N004012200019N0300001N1-01611-02121104361ADDAA199000091GA1001+999999999GF100991001001999999001001KA1999N-02861MA1999999089421MD1710121+9999REMSYN070AAXX  02061 53276 32980 02904 11161 21212 38942 40436 57012 333 21286;EQDQ01  00002PRCP99
0122532760999992000020209004+42400+112900FM-12+115299999V0202501N004012200019N0300001N1-01631-02181104381ADDGA1001+999999999GF100991001001999999001001MD1710051+9999REMSYN054AAXX  02091 53276 42980 02504 11163 21218 40438 57005;
0173532760999992000020212004+42400+112900FM-12+115299999V0202501N004012200019N0300001N1-02091-02511104461ADDAA199000091GA1001+999999999GF100991001001999999001001MA1999999089391MD1210021+9999REMSYN060AAXX  02121 53276 32980 02504 11209 21251 38939 40446 52002;EQDQ01  00002PRCP99
0122532760999992000020215004+42400+112900FM-12+115299999V0202501N006012200019N0300001N1-02071-02611104261ADDGA1001+999999999GF100991001001999999001001MD1710051+9999REMSYN054AAXX  02151 53276 42980 02506 11207 21261 40426 57005;
0196532760999992000020218004+42400+112900FM-12+115299999V0202501N006012200019N0300001N1-02441-02931104221ADDAA199000091GA1001+999999999GF100991001001999999001001KA1999M-01531MA1999999089351MD1210011+9999REMSYN070AAXX  02181 53276 32980 02506 11244 21293 38935 40422 52001 333 11153;EQDQ01  00002PRCP99
0122532760999992000020221004+42400+112900FM-12+115299999V0202501N007012200019N0300001N1-02261-02791104071ADDGA1001+999999999GF100991001001999999001001MD1710091+9999REMSYN054AAXX  02211 53276 42980 02507 11226 21279 40407 57009;
0183532760999992000020300004+42400+112900FM-12+115299999V0202501N007012200019N0300001N1-02521-03011104351ADDAA199000091GA1001+999999999GF100991001001999999001001MA1999999089311MD1210051+0021REMSYN070AAXX  03001 53276 32980 02507 11252 21301 38931 40435 52005 333 05200;EQDQ01  00002PRCP99
0112532760999992000020303004+42400+112900FM-12+115299999V0202501N003012200019N0300001N1-01661-02321104101ADDGF101991001001999999001021MD1210021+9999REMSYN060AAXX  03031 53276 42980 12503 11166 21232 40410 52002 80002;
0186532760999992000020306004+42400+112900FM-12+115299999V0201801N003012200019N0300001N1-00931-01831103781ADDAA199000091GF104991001001999999001021KA1999N-02521MA1999999089151MD1710181+9999REMSYN076AAXX  03061 53276 32980 41803 11093 21183 38915 40378 57018 80002 333 21252;EQDQ01  00002PRCP99
0112532760999992000020309004+42400+112900FM-12+115299999V0202501N001012200019N0300001N1-00721-01671103611ADDGF101991001001999999001021MD1710041+9999REMSYN060AAXX  03091 53276 42980 12501 11072 21167 40361 57004 80002;
0173532760999992000020312004+42400+112900FM-12+115299999V0202001N002012200019N0300001N1-01551-02141103991ADDAA199000091GA1001+999999999GF100991001001999999001001MA1999999089151MD1210041+9999REMSYN060AAXX  03121 53276 32980 02002 11155 21214 38915 40399 52004;EQDQ01  00002PRCP99
0122532760999992000020315004+42400+112900FM-12+115299999V0202201N008012200019N0300001N1-01531-02241103721ADDGA1001+999999999GF100991001001999999001001MD1410001+9999REMSYN054AAXX  03151 53276 42980 02208 11153 21224 40372 54000;
0196532760999992000020318004+42400+112900FM-12+115299999V0202201N006012200019N0300001N1-01411-02191103401ADDAA199000091GA1001+999999999GF100991001001999999001001KA1999M-00681MA1999999089091MD1710061+9999REMSYN070AAXX  03181 53276 32980 02206 11141 21219 38909 40340 57006 333 11068;EQDQ01  00002PRCP99
0122532760999992000020321004+42400+112900FM-12+115299999V0202201N004012200019N0300001N1-01711-02531103311ADDGA1001+999999999GF100991001001999999001001MD1710101+9999REMSYN054AAXX  03211 53276 42980 02204 11171 21253 40331 57010;
0173532760999992000020400004+42400+112900FM-12+115299999V0202201N004012200019N0300001N1-01751-02381103581ADDAA199000091GF101991001001999999001021MA1999999089001MD1210011+0031REMSYN076AAXX  04001 53276 32980 12204 11175 21238 38900 40358 52001 80002 333 05308;EQDQ01  00002PRCP99
0122532760999992000020403004+42400+112900FM-12+115299999V0202201N006012200019N0300001N1-00901-01461103321ADDGA1001+999999999GF100991001001999999001001MD1410001+9999REMSYN054AAXX  04031 53276 42980 02206 11090 21146 40332 54000;
0186532760999992000020406004+42400+112900FM-12+115299999V0202501N002012200019N0300001N1-00441-01481102851ADDAA199000091GF101991001001999999001021KA1999N-02051MA1999999088741MD1710261+9999REMSYN076AAXX  04061 53276 32980 12502 11044 21148 38874 40285 57026 80002 333 21205;EQDQ01  00002PRCP99
0122532760999992000020409004+42400+112900FM-12+115299999V0201601N002012200019N0300001N1-00671-01401102921ADDGA1001+999999999GF100991001001999999001001MD1710071+9999REMSYN054AAXX  04091 53276 42980 01602 11067 21140 40292 57007;
0173532760999992000020412004+42400+112900FM-12+115299999V0202001N002012200019N0300001N1-01031-01661103111ADDAA199000091GA1001+999999999GF100991001001999999001001MA1999999088731MD1210061+9999REMSYN060AAXX  04121 53276 32980 02002 11103 21166 38873 40311 52006;EQDQ01  00002PRCP99
0122532760999992000020415004+42400+112900FM-12+115299999V0202001N006012200019N0300001N1-00871-01651102731ADDGA1001+999999999GF100991001001999999001001MD1710081+9999REMSYN054AAXX  04151 53276 42980 02006 11087 21165 40273 57008;
0196532760999992000020418004+42400+112900FM-12+115299999V0202501N004012200019N0300001N1-00981-01511102561ADDAA199000091GA1001+999999999GF100991001001999999001001KA1999M-00361MA1999999088591MD1710061+9999REMSYN070AAXX  04181 53276 32980 02504 11098 21151 38859 40256 57006 333 11036;EQDQ01  00002PRCP99
0112532760999992000020421004+42400+112900FM-12+115299999V0202501N006012200019N0300001N1-01091-01721102531ADDGF102991001001999999001021MD1710111+9999REMSYN060AAXX  04211 53276 42980 22506 11109 21172 40253 57011 80002;
0173532760999992000020500004+42400+112900FM-12+115299999V0202501N006019999999N0300001N1-01381-01921102761ADDAA199000091GF107991021001999999031021MA1999999088521MD1210041+0051REMSYN076AAXX  05001 53276 32980 72506 11138 21192 38852 40276 52004 82032 333 05504;EQDQ01  00002PRCP99
0112532760999992000020503004+42400+112900FM-12+115299999V0202701N009012200019N0300001N1-01131-01781102711ADDGF101991011001999999031021MD1210061+9999REMSYN060AAXX  05031 53276 42980 12709 11113 21178 40271 52006 81032;
0186532760999992000020506004+42400+112900FM-12+115299999V0202901N008019999999N0300001N1-01031-01681102731ADDAA199000091GF105991011001999999031021KA1999N-01381MA1999999088591MD1210011+9999REMSYN076AAXX  05061 53276 32980 52908 11103 21168 38859 40273 52001 81032 333 21138;EQDQ01  00002PRCP99
0112532760999992000020509004+42400+112900FM-12+115299999V0202901N004012200019N0300001N1-01031-01661102861ADDGF101991001001999999001021MD1210091+9999REMSYN060AAXX  05091 53276 42980 12904 11103 21166 40286 52009 80002;
0173532760999992000020512004+42400+112900FM-12+115299999V0202501N003012200019N0300001N1-01491-01901103141ADDAA199000091GA1001+999999999GF100991001001999999001001MA1999999088731MD1210051+9999REMSYN060AAXX  05121 53276 32980 02503 11149 21190 38873 40314 52005;EQDQ01  00002PRCP99
0122532760999992000020515004+42400+112900FM-12+115299999V0202501N004012200019N0300001N1-01791-02121103251ADDGA1001+999999999GF100991001001999999001001MD1210081+9999REMSYN054AAXX  05151 53276 42980 02504 11179 21212 40325 52008;
0196532760999992000020518004+42400+112900FM-12+115299999V0202501N005012200019N0300001N1-01991-02351103281ADDAA199000091GA1001+999999999GF100991001001999999001001KA1999M-00871MA1999999088811MD1410001+9999REMSYN070AAXX  05181 53276 32980 02505 11199 21235 38881 40328 54000 333 11087;EQDQ01  00002PRCP99
0122532760999992000020521004+42400+112900FM-12+115299999V0202001N002012200019N0300001N1-02011-02401103281ADDGA1001+999999999GF100991001001999999001001MD1410001+9999REMSYN054AAXX  05211 53276 42980 02002 11201 21240 40328 54000;
0173532760999992000020600004+42400+112900FM-12+115299999V0209999C000012200019N0300001N1-02111-02491103461ADDAA199000091GF101991011001999999031001MA1999999088821MD1210011+0031REMSYN076AAXX  06001 53276 32980 10000 11211 21249 38882 40346 52001 81030 333 00357;EQDQ01  00002PRCP99
0112532760999992000020603004+42400+112900FM-12+115299999V0202501N002019999999N0300001N1-01401-02071103361ADDGF106991011001999999031021MD1210021+9999REMSYN060AAXX  06031 53276 42980 62502 11140 21207 40336 52002 81032;
0193532760999992000020606004+42400+112900FM-12+115299999V0200201N003010120019N0150001N1-01461-01841103371ADDAA106000791AY171061GF108991061051012501001071KA1999N-02181MA1999999088781MD1710061+9999MW1701REMSYN088AAXX  06061 53276 11665 80203 11146 21184 38878 40337 57006 69901 77070 86507 333 21218;
0140532760999992000020609004+42400+112900FM-12+115299999V0200201N003010900019N0110001N1-01621-01881103601ADDAY171031AY271031GF108991041051012501001071MD1210151+9999MW1701REMSYN066AAXX  06091 53276 41661 80203 11162 21188 40360 52015 77077 84507;
0170532760999992000020612004+42400+112900FM-12+115299999V0202501N005012200019N0300001N1-01941-02181103981ADDAA106000191AY171061GF101991001001999999001021MA1999999089141MD1210211+9999MW1001REMSYN078AAXX  06121 53276 11980 12505 11194 21218 38914 40398 52021 69921 70070 80002;
0122532760999992000020615004+42400+112900FM-12+115299999V0202501N006012200019N0300001N1-02191-02451103871ADDGA1001+999999999GF100991001001999999001001MD1210031+9999REMSYN054AAXX  06151 53276 42980 02506 11219 21245 40387 52003;
0177532760999992000020618004+42400+112900FM-12+115299999V0202701N009012200019N0300001N1-01811-02081103631ADDAA199000021GA1001+999999999GF100991001001999999001001KA1999M-01191MA1999999089051MD1710121+9999REMSYN070AAXX  06181 53276 32980 02709 11181 21208 38905 40363 57012 333 11119;
0143532760999992000020621004+42400+112900FM-12+115299999V0202501N009012200019N0300001N1-01901-02151103551ADDAA124000391GA1001+999999999GF100991001001999999001001MD1710131+9999REMSYN064AAXX  06211 53276 42980 02509 11190 21215 40355 57013 333 70002;
0160532760999992000020700004+42400+112900FM-12+115299999V0202701N009012200019N0300001N1-01881-02121103481ADDAA124000391GF101991011051012501001021MA1999999088781MD1710141+0001REMSYN082AAXX  07001 53276 32680 12709 11188 21212 38878 40348 57014 81502 333 00002 70002;
0122532760999992000020703004+42400+112900FM-12+115299999V0202901N009012200019N0300001N1-01541-01871103461ADDGA1001+999999999GF100991001001999999001001MD1410001+9999REMSYN054AAXX  07031 53276 42980 02909 11154 21187 40346 54000;
0196532760999992000020706004+42400+112900FM-12+115299999V0203201N007012200019N0300001N1-01101-01611103131ADDAA199000091GA1001+999999999GF100991001001999999001001KA1999N-02201MA1999999088711MD1710071+9999REMSYN070AAXX  07061 53276 32980 03207 11110 21161 38871 40313 57007 333 21220;EQDQ01  00002PRCP99
0112532760999992000020709004+42400+112900FM-12+115299999V0203401N005012200019N0300001N1-01261-01711103281ADDGF101991011001999999031021MD1210071+9999REMSYN060AAXX  07091 53276 42980 13405 11126 21171 40328 52007 81032;
0173532760999992000020712004+42400+112900FM-12+115299999V0200401N003012200019N0300001N1-01991-02281103781ADDAA199000091GA1001+999999999GF100991001001999999001001MA1999999089021MD1210241+9999REMSYN060AAXX  07121 53276 32980 00403 11199 21228 38902 40378 52024;EQDQ01  00002PRCP99
0122532760999992000020715004+42400+112900FM-12+115299999V0203401N002012200019N0300001N1-02191-02421104041ADDGA1001+999999999GF100991001001999999001001MD1210261+9999REMSYN054AAXX  07151 53276 42980 03402 11219 21242 40404 52026;
0196532760999992000020718004+42400+112900FM-12+115299999V0202001N002012200019N0300001N1-02361-02611103961ADDAA199000091GA1001+999999999GF100991001001999999001001KA1999M-01081MA1999999089281MD1410001+9999REMSYN070AAXX  07181 53276 32980 02002 11236 21261 38928 40396 54000 333 11108;EQDQ01  00002PRCP99
0122532760999992000020721004+42400+112900FM-12+115299999V0201801N004012200019N0300001N1-02611-02891104061ADDGA1001+999999999GF100991001001999999001001MD1710021+9999REMSYN054AAXX  07211 53276 42980 01804 11261 21289 40406 57002;
0183532760999992000020800004+42400+112900FM-12+115299999V0201801N006012200019N0300001N1-02501-02831104251ADDAA199000091GA1001+999999999GF100991001001999999001001MA1999999089261MD1410001+0051REMSYN070AAXX  08001 53276 32980 01806 11250 21283 38926 40425 54000 333 00556;EQDQ01  00002PRCP99
0122532760999992000020803004+42400+112900FM-12+115299999V0201801N004012200019N0300001N1-01651-02231103991ADDGA1001+999999999GF100991001001999999001001MD1710051+9999REMSYN054AAXX  08031 53276 42980 01804 11165 21223 40399 57005;
0196532760999992000020806004+42400+112900FM-12+115299999V0200701N003012200019N0300001N1-01291-01871103661ADDAA199000091GA1001+999999999GF100991001001999999001001KA1999N-02691MA1999999088981MD1710231+9999REMSYN070AAXX  08061 53276 32980 00703 11129 21187 38898 40366 57023 333 21269;EQDQ01  00002PRCP99
0122532760999992000020809004+42400+112900FM-12+115299999V0200701N004012200019N0300001N1-01391-01841103631ADDGA1001+999999999GF100991001001999999001001MD1710121+9999REMSYN054AAXX  08091 53276 42980 00704 11139 21184 40363 57012;
0173532760999992000020812004+42400+112900FM-12+115299999V0209999C000012200019N0300001N1-01831-02141103671ADDAA199000091GA1001+999999999GF100991001001999999001001MA1999999088801MD1710061+9999REMSYN060AAXX  08121 53276 32980 00000 11183 21214 38880 40367 57006;EQDQ01  00002PRCP99
0122532760999992000020815004+42400+112900FM-12+115299999V0202201N004012200019N0300001N1-01671-02061103271ADDGA1001+999999999GF100991001001999999001001MD1710071+9999REMSYN054AAXX  08151 53276 42980 02204 11167 21206 40327 57007;
0196532760999992000020818004+42400+112900FM-12+115299999V0202501N003012200019N0300001N1-01991-02371103191ADDAA199000091GA1001+999999999GF100991001001999999001001KA1999M-01181MA1999999088671MD1710061+9999REMSYN070AAXX  08181 53276 32980 02503 11199 21237 38867 40319 57006 333 11118;EQDQ01  00002PRCP99
0122532760999992000020821004+42400+112900FM-12+115299999V0202201N002012200019N0300001N1-02031-02381103131ADDGA1001+999999999GF100991001001999999001001MD1710091+9999REMSYN054AAXX  08211 53276 42980 02202 11203 21238 40313 57009;
0173532760999992000020900004+42400+112900FM-12+115299999V0202001N004012200019N0300001N1-01941-02281103211ADDAA199000091GF102991001001999999001021MA1999999088561MD1710021+0071REMSYN076AAXX  09001 53276 32980 22004 11194 21228 38856 40321 57002 80002 333 05706;EQDQ01  00002PRCP99
0112532760999992000020903004+42400+112900FM-12+115299999V0202201N003019999999N0300001N1-01161-01711102861ADDGF106991001001999999001021MD1710061+9999REMSYN060AAXX  09031 53276 42980 62203 11116 21171 40286 57006 80002;
0186532760999992000020906004+42400+112900FM-12+115299999V0200701N001012200019N0300001N1-00321-01491102461ADDAA199000091GF103991001001999999001021KA1999N-02121MA1999999088291MD1710211+9999REMSYN076AAXX  09061 53276 32980 30701 11032 21149 38829 40246 57021 80002 333 21212;EQDQ01  00002PRCP99
0122532760999992000020909004+42400+112900FM-12+115299999V0200701N002012200019N0300001N1-00881-01371102571ADDGA1001+999999999GF100991001001999999001001MD1710061+9999REMSYN054AAXX  09091 53276 42980 00702 11088 21137 40257 57006;
0173532760999992000020912004+42400+112900FM-12+115299999V0209999C000012200019N0300001N1-01451-01731102741ADDAA199000091GA1001+999999999GF100991001001999999001001MA1999999088251MD1210021+9999REMSYN060AAXX  09121 53276 32980 00000 11145 21173 38825 40274 52002;EQDQ01  00002PRCP99
0122532760999992000020915004+42400+112900FM-12+115299999V0202201N005012200019N0300001N1-01031-01461102321ADDGA1001+999999999GF100991001001999999001001MD1710051+9999REMSYN054AAXX  09151 53276 42980 02205 11103 21146 40232 57005;
0196532760999992000020918004+42400+112900FM-12+115299999V0202501N003012200019N0300001N1-01661-01971102371ADDAA199000091GA1001+999999999GF100991001001999999001001KA1999M-00281MA1999999088291MD1210091+9999REMSYN070AAXX  09181 53276 32980 02503 11166 21197 38829 40237 52009 333 11028;EQDQ01  00002PRCP99
0122532760999992000020921004+42400+112900FM-12+115299999V0202501N005012200019N0300001N1-01851-02121102621ADDGA1001+999999999GF100991001001999999001001MD1210031+9999REMSYN054AAXX  09211 53276 42980 02505 11185 21212 40262 52003;
0173532760999992000021000004+42400+112900FM-12+115299999V0202501N005012200019N0300001N1-01971-02231102991ADDAA199000091GF103991001001999999001021MA1999999088461MD1210141+0011REMSYN076AAXX  10001 53276 32980 32505 11197 21223 38846 40299 52014 80002 333 05100;EQDQ01  00002PRCP99
0122532760999992000021003004+42400+112900FM-12+115299999V0202701N005012200019N0300001N1-01381-01831102791ADDGA1001+999999999GF100991001001999999001001MD1210091+9999REMSYN054AAXX  10031 53276 42980 02705 11138 21183 40279 52009;
0196532760999992000021006004+42400+112900FM-12+115299999V0202701N006012200019N0300001N1-00901-01851102761ADDAA199000091GA1001+999999999GF100991001001999999001001KA1999N-02041MA1999999088481MD1710071+9999REMSYN070AAXX  10061 53276 32980 02706 11090 21185 38848 40276 57007 333 21204;EQDQ01  00002PRCP99
0122532760999992000021009004+42400+112900FM-12+115299999V0202901N005012200019N0300001N1-00831-01651102811ADDGA1001+999999999GF100991001001999999001001MD1210021+9999REMSYN054AAXX  10091 53276 42980 02905 11083 21165 40281 52002;
0173532760999992000021012004+42400+112900FM-12+115299999V0202501N006012200019N0300001N1-01421-01871103141ADDAA199000091GA1001+999999999GF100991001001999999001001MA1999999088601MD1210101+9999REMSYN060AAXX  10121 53276 32980 02506 11142 21187 38860 40314 52010;EQDQ01  00002PRCP99
0122532760999992000021015004+42400+112900FM-12+115299999V0202501N006012200019N0300001N1-01191-01761102921ADDGA1001+999999999GF100991001001999999001001MD1210021+9999REMSYN054AAXX  10151 53276 42980 02506 11119 21176 40292 52002;
0196532760999992000021018004+42400+112900FM-12+115299999V0202201N008012200019N0300001N1-01141-01671102721ADDAA199000091GA1001+999999999GF100991001001999999001001KA1999M-00781MA1999999088581MD1710041+9999REMSYN070AAXX  10181 53276 32980 02208 11114 21167 38858 40272 57004 333 11078;EQDQ01  00002PRCP99
0122532760999992000021021004+42400+112900FM-12+115299999V0202201N008012200019N0300001N1-01091-01601102601ADDGA1001+999999999GF100991001001999999001001MD1710081+9999REMSYN054AAXX  10211 53276 42980 02208 11109 21160 40260 57008;
0183532760999992000021100004+42400+112900FM-12+115299999V0202201N009012200019N0300001N1-01061-01631102741ADDAA199000091GA1001+999999999GF100991001001999999001001MA1999999088491MD1710011+0001REMSYN070AAXX  11001 53276 32980 02209 11106 21163 38849 40274 57001 333 00009;EQDQ01  00002PRCP99
0122532760999992000021103004+42400+112900FM-12+115299999V0202201N007012200019N0300001N1-00431-01461102531ADDGA1001+999999999GF100991001001999999001001MD1210031+9999REMSYN054AAXX  11031 53276 42980 02207 11043 21146 40253 52003;
0196532760999992000021106004+42400+112900FM-12+115299999V0202901N005012200019N0300001N1+00061-00991102221ADDAA199000091GA1001+999999999GF100991001001999999001001KA1999N-01441MA1999999088381MD1710141+9999REMSYN070AAXX  11061 53276 32980 02905 10006 21099 38838 40222 57014 333 21144;EQDQ01  00002PRCP99
0122532760999992000021109004+42400+112900FM-12+115299999V0202701N006012200019N0300001N1-00091-01011102171ADDGA1001+999999999GF100991001001999999001001MD1710071+9999REMSYN054AAXX  11091 53276 42980 02706 11009 21101 40217 57007;
0173532760999992000021112004+42400+112900FM-12+115299999V0202201N007012200019N0300001N1-00521-01271102241ADDAA199000091GA1001+999999999GF100991001001999999001001MA1999999088281MD1710031+9999REMSYN060AAXX  11121 53276 32980 02207 11052 21127 38828 40224 57003;EQDQ01  00002PRCP99
0122532760999992000021115004+42400+112900FM-12+115299999V0202201N006012200019N0300001N1-00661-01381102151ADDGA1001+999999999GF100991001001999999001001MD1210041+9999REMSYN054AAXX  11151 53276 42980 02206 11066 21138 40215 52004;
0196532760999992000021118004+42400+112900FM-12+115299999V0202201N007012200019N0300001N1-00621-01491101951ADDAA199000091GA1001+999999999GF100991001001999999001001KA1999M+00131MA1999999088271MD1710051+9999REMSYN070AAXX  11181 53276 32980 02207 11062 21149 38827 40195 57005 333 10013;EQDQ01  00002PRCP99
0122532760999992000021121004+42400+112900FM-12+115299999V0202201N006012200019N0300001N1-00621-01681101841ADDGA1001+999999999GF100991001001999999001001MD1710131+9999REMSYN054AAXX  11211 53276 42980 02206 11062 21168 40184 57013;
0173532760999992000021200004+42400+112900FM-12+115299999V0202201N008012200019N0300001N1-00771-01681102041ADDAA199000091GF101991001001999999001021MA1999999088171MD1210031+0031REMSYN076AAXX  12001 53276 32980 12208 11077 21168 38817 40204 52003 80002 333 05303;EQDQ01  00002PRCP99
0112532760999992000021203004+42400+112900FM-12+115299999V0202501N006012200019N0300001N1-00251-01351102051ADDGF102991001001999999001021MD1210101+9999REMSYN060AAXX  12031 53276 42980 22506 11025 21135 40205 52010 80002;
0186532760999992000021206004+42400+112900FM-12+115299999V0202701N008019999999N0300001N1-00111-01041101891ADDAA199000091GF105991001001999999001021KA1999N-00961MA1999999088181MD1710091+9999REMSYN076AAXX  12061 53276 32980 52708 11011 21104 38818 40189 57009 80002 333 21096;EQDQ01  00002PRCP99
0112532760999992000021209004+42400+112900FM-12+115299999V0202901N005019999999N0300001N1-00271-01171101981ADDGF106991001001999999001021MD1210041+9999REMSYN060AAXX  12091 53276 42980 62905 11027 21117 40198 52004 80002;
0163532760999992000021212004+42400+112900FM-12+115299999V0203401N004019999999N0300001N1-00871-01361102491ADDAA199000091GF107991001001999999001081MA1999999088481MD1210261+9999REMSYN066AAXX  12121 53276 32980 73404 11087 21136 38848 40249 52026 80008;EQDQ01  00002PRCP99
0112532760999992000021215004+42400+112900FM-12+115299999V0202501N004019999999N0300001N1-01201-01591102621ADDGF108991001001999999001071MD1210161+9999REMSYN060AAXX  12151 53276 42980 82504 11120 21159 40262 52016 80007;
0193532760999992000021218004+42400+112900FM-12+115299999V0202701N004019999999N0150001N1-01181-01461102611ADDAA106000791AY171061GF108991081001999999021999KA1999M-00061MA1999999088671MD1210031+9999MW1701REMSYN088AAXX  12181 53276 11965 82704 11118 21146 38867 40261 52003 69901 77070 8802/ 333 11006;
0161532760999992000021221004+42400+112900FM-12+115299999V0203401N002019999999N0110001N1-01381-01591102791ADDAA124000391AY171031AY271031GF108991081001999999021999MD1210061+9999MW1711REMSYN076AAXX  12211 53276 41961 83402 11138 21159 40279 52006 77177 8802/ 333 70002;
0194532760999992000021300004+42400+112900FM-12+115299999V0202201N002010150019N0200001N1-01411-01601103011ADDAA106000591AY171061AY271061GF107991071051017501999999MA1999999088771MD1210041+0601MW1701REMSYN094AAXX  13001 53276 11770 72202 11141 21160 38877 40301 52004 69951 77077 875// 333 00656 70005;
0140532760999992000021303004+42400+112900FM-12+115299999V0202901N004010900019N0250001N1-01211-01461103131ADDAY171031AY271031GF106991011051017501001021MD1210071+9999MW1221REMSYN066AAXX  13031 53276 41775 62904 11121 21146 40313 52007 72277 81502;
0193532760999992000021306004+42400+112900FM-12+115299999V0203201N007010900019N0250001N1-01071-01351103011ADDAA106000191AY171061GF106991021051017501001021KA1999N-01481MA1999999088781MD1710061+9999MW1221REMSYN088AAXX  13061 53276 11775 63207 11107 21135 38878 40301 57006 69911 72270 82502 333 21148;
0132532760999992000021309004+42400+112900FM-12+115299999V0203201N006010900019N0200001N1-01181-01451103121ADDAY171031GF107991021051017501001021MD1210011+9999MW1221REMSYN066AAXX  13091 53276 41770 73206 11118 21145 40312 52001 72270 82502;
0170532760999992000021312004+42400+112900FM-12+115299999V0202501N004012200019N0300001N1-01541-01731103411ADDAA106000791AY171061GF102991021051017501001021MA1999999088941MD1210151+9999MW1701REMSYN078AAXX  13121 53276 11780 22504 11154 21173 38894 40341 52015 69901 77070 82502;
0140532760999992000021315004+42400+112900FM-12+115299999V0202501N005010900019N0250001N1-01441-01651103401ADDAY171031AY271031GF106991041051017501001021MD1210071+9999MW1701REMSYN066AAXX  13151 53276 41775 62505 11144 21165 40340 52007 77077 84502;
0201532760999992000021318004+42400+112900FM-12+115299999V0202501N006012200019N0300001N1-01631-01811103321ADDAA106000791AY171061AY271061GF102991011051017501001021KA1999M-01031MA1999999088931MD1710081+9999MW1701REMSYN088AAXX  13181 53276 11780 22506 11163 21181 38893 40332 57008 69901 77077 81502 333 11103;
0153532760999992000021321004+42400+112900FM-12+115299999V0202701N007010150019N0300001N1-01731-01941103351ADDAA124000591AY171031GF107991071051017501999999MD1710031+9999MW1701REMSYN076AAXX  13211 53276 41780 72707 11173 21194 40335 57003 77070 875// 333 70004;
0186532760999992000021400004+42400+112900FM-12+115299999V0202701N007012200019N0300001N1-01951-02171103601ADDAA106000791AY171061GF101991011051017501001001MA1999999088971MD1210071+0201MW1001REMSYN094AAXX  14001 53276 11780 12707 11195 21217 38897 40360 52007 69901 70070 81500 333 00255 70001;
0122532760999992000021403004+42400+112900FM-12+115299999V0202901N008012200019N0300001N1-01751-02051103691ADDGA1001+999999999GF100991001001999999001001MD1210151+9999REMSYN054AAXX  14031 53276 42980 02908 11175 21205 40369 52015;
0167532760999992000021406004+42400+112900FM-12+115299999V0202901N008012200019N0300001N1-01491-01891103671ADDAA199000021GF101991011051012501001021KA1999N-02011MA1999999089121MD1410001+9999REMSYN076AAXX  14061 53276 32680 12908 11149 21189 38912 40367 54000 81502 333 21201;
0173532760999992000021412004+42400+112900FM-12+115299999V0202901N007012200019N0300001N1-01821-02241103881ADDAA199000091GA1001+999999999GF100991001001999999001001MA1999999089131MD1210021+9999REMSYN060AAXX  14121 53276 32980 02907 11182 21224 38913 40388 52002;EQDQ01  00002PRCP99
0122532760999992000021415004+42400+112900FM-12+115299999V0202501N006012200019N0300001N1-02051-02441103901ADDGA1001+999999999GF100991001001999999001001MD1210011+9999REMSYN054AAXX  14151 53276 42980 02506 11205 21244 40390 52001;
0196532760999992000021418004+42400+112900FM-12+115299999V0202501N005012200019N0300001N1-02061-02481103701ADDAA199000091GA1001+999999999GF100991001001999999001001KA1999M-01381MA1999999089041MD1710101+9999REMSYN070AAXX  14181 53276 32980 02505 11206 21248 38904 40370 57010 333 11138;EQDQ01  00002PRCP99
0143532760999992000021421004+42400+112900FM-12+115299999V0202501N006012200019N0300001N1-02111-02501103511ADDAA124000791GA1001+999999999GF100991001001999999001001MD1710161+9999REMSYN064AAXX  14211 53276 42980 02506 11211 21250 40351 57016 333 79999;
0183532760999992000021500004+42400+112900FM-12+115299999V0202501N005012200019N0300001N1-02311-02681103741ADDAA199000091GA1001+999999999GF100991001001999999001001MA1999999088921MD1210041+0011REMSYN070AAXX  15001 53276 32980 02505 11231 21268 38892 40374 52004 333 05154;EQDQ01  00002PRCP99
0122532760999992000021503004+42400+112900FM-12+115299999V0202501N007012200019N0300001N1-01421-01941103621ADDGA1001+999999999GF100991001001999999001001MD1210071+9999REMSYN054AAXX  15031 53276 42980 02507 11142 21194 40362 52007;
0196532760999992000021506004+42400+112900FM-12+115299999V0202901N009012200019N0300001N1-01011-01861103341ADDAA199000091GA1001+999999999GF100991001001999999001001KA1999N-02311MA1999999088851MD1710141+9999REMSYN070AAXX  15061 53276 32980 02909 11101 21186 38885 40334 57014 333 21231;EQDQ01  00002PRCP99
0122532760999992000021509004+42400+112900FM-12+115299999V0202901N005012200019N0300001N1-01071-01921103301ADDGA1001+999999999GF100991001001999999001001MD1710061+9999REMSYN054AAXX  15091 53276 42980 02905 11107 21192 40330 57006;
0173532760999992000021512004+42400+112900FM-12+115299999V0202501N004012200019N0300001N1-01701-02151103551ADDAA199000091GA1001+999999999GF100991001001999999001001MA1999999088791MD1410001+9999REMSYN060AAXX  15121 53276 32980 02504 11170 21215 38879 40355 54000;EQDQ01  00002PRCP99
0122532760999992000021515004+42400+112900FM-12+115299999V0202501N004012200019N0300001N1-01731-02201103291ADDGA1001+999999999GF100991001001999999001001MD1410001+9999REMSYN054AAXX  15151 53276 42980 02504 11173 21220 40329 54000;
0196532760999992000021518004+42400+112900FM-12+115299999V0202501N004012200019N0300001N1-01911-02371103141ADDAA199000091GA1001+999999999GF100991001001999999001001KA1999M-00941MA1999999088721MD1710071+9999REMSYN070AAXX  15181 53276 32980 02504 11191 21237 38872 40314 57007 333 11094;EQDQ01  00002PRCP99
0122532760999992000021521004+42400+112900FM-12+115299999V0202501N004012200019N0300001N1-01851-02321103081ADDGA1001+999999999GF100991001001999999001001MD1710051+9999REMSYN054AAXX  15211 53276 42980 02504 11185 21232 40308 57005;
0183532760999992000021600004+42400+112900FM-12+115299999V0202501N002012200019N0300001N1-02191-02611103391ADDAA199000091GA1001+999999999GF100991001001999999001001MA1999999088681MD1210011+0021REMSYN070AAXX  16001 53276 32980 02502 11219 21261 38868 40339 52001 333 05201;EQDQ01  00002PRCP99
0112532760999992000021603004+42400+112900FM-12+115299999V0202501N004012200019N0300001N1-01291-01951103211ADDGF101991001001999999001021MD1210071+9999REMSYN060AAXX  16031 53276 42980 12504 11129 21195 40321 52007 80002;
0196532760999992000021606004+42400+112900FM-12+115299999V0202501N003012200019N0300001N1-00811-02281103001ADDAA199000091GA1001+999999999GF100991001001999999001001KA1999N-02251MA1999999088651MD1710101+9999REMSYN070AAXX  16061 53276 32980 02503 11081 21228 38865 40300 57010 333 21225;EQDQ01  00002PRCP99
0112532760999992000021609004+42400+112900FM-12+115299999V0200401N004012200019N0300001N1-01011-01811103071ADDGF101991001001999999001021MD1210021+9999REMSYN060AAXX  16091 53276 42980 10404 11101 21181 40307 52002 80002;
0173532760999992000021612004+42400+112900FM-12+115299999V0209999C000012200019N0300001N1-01561-01991103431ADDAA199000091GA1001+999999999GF100991001001999999001001MA1999999088751MD1210081+9999REMSYN060AAXX  16121 53276 32980 00000 11156 21199 38875 40343 52008;EQDQ01  00002PRCP99
0122532760999992000021615004+42400+112900FM-12+115299999V0201801N003012200019N0300001N1-01751-02121103201ADDGA1001+999999999GF100991001001999999001001MD1710011+9999REMSYN054AAXX  16151 53276 42980 01803 11175 21212 40320 57001;
0186532760999992000021618004+42400+112900FM-12+115299999V0201801N002012200019N0300001N1-01731-02121103081ADDAA199000091GF101991001001999999001021KA1999M-00681MA1999999088761MD1210021+9999REMSYN076AAXX  16181 53276 32980 11802 11173 21212 38876 40308 52002 80002 333 11068;EQDQ01  00002PRCP99
0122532760999992000021621004+42400+112900FM-12+115299999V0202001N002012200019N0300001N1-01771-02191103121ADDGA1001+999999999GF100991001001999999001001MD1710021+9999REMSYN054AAXX  16211 53276 42980 02002 11177 21219 40312 57002;
0173532760999992000021700004+42400+112900FM-12+115299999V0202001N003012200019N0300001N1-01571-02051103241ADDAA199000091GF102991001001999999001021MA1999999088751MD1210011+0011REMSYN076AAXX  17001 53276 32980 22003 11157 21205 38875 40324 52001 80002 333 00106;EQDQ01  00002PRCP99
0112532760999992000021703004+42400+112900FM-12+115299999V0202001N004019999999N0300001N1-00641-01411102991ADDGF106991001001999999001021MD1710031+9999REMSYN060AAXX  17031 53276 42980 62004 11064 21141 40299 57003 80002;
0196532760999992000021706004+42400+112900FM-12+115299999V0209999C000012200019N0300001N1-00011-01481102591ADDAA199000091GA1001+999999999GF100991001001999999001001KA1999N-01961MA1999999088541MD1710181+9999REMSYN070AAXX  17061 53276 32980 00000 11001 21148 38854 40259 57018 333 21196;EQDQ01  00002PRCP99
0122532760999992000021709004+42400+112900FM-12+115299999V0200401N003012200019N0300001N1-00271-01071102641ADDGA1001+999999999GF100991001001999999001001MD1710031+9999REMSYN054AAXX  17091 53276 42980 00403 11027 21107 40264 57003;
0173532760999992000021712004+42400+112900FM-12+115299999V0209999C000012200019N0300001N1-00751-01291102801ADDAA199000091GA1001+999999999GF100991001001999999001001MA1999999088581MD1210071+9999REMSYN060AAXX  17121 53276 32980 00000 11075 21129 38858 40280 52007;EQDQ01  00002PRCP99
0122532760999992000021715004+42400+112900FM-12+115299999V0201801N003012200019N0300001N1-00981-01511102601ADDGA1001+999999999GF100991001001999999001001MD1410001+9999REMSYN054AAXX  17151 53276 42980 01803 11098 21151 40260 54000;
0186532760999992000021718004+42400+112900FM-12+115299999V0202201N003012200019N0300001N1-01211-01621102441ADDAA199000091GF101991001001999999001021KA1999M+00101MA1999999088541MD1710041+9999REMSYN076AAXX  17181 53276 32980 12203 11121 21162 38854 40244 57004 80002 333 10010;EQDQ01  00002PRCP99
0112532760999992000021721004+42400+112900FM-12+115299999V0209999C000012200019N0300001N1-01091-01601102441ADDGF102991001001999999001021MD1710041+9999REMSYN060AAXX  17211 53276 42980 20000 11109 21160 40244 57004 80002;
0173532760999992000021800004+42400+112900FM-12+115299999V0202501N002010360019N0300001N1-01141-01581102611ADDAA199000091GF107991011051012501031021MA1999999088521MD1210021+0021REMSYN076AAXX  18001 53276 32680 72502 11114 21158 38852 40261 52002 81532 333 05204;EQDQ01  00002PRCP99
0112532760999992000021803004+42400+112900FM-12+115299999V0202701N004019999999N0300001N1-00521-01321102521ADDGF107991021001999999031021MD1210021+9999REMSYN060AAXX  18031 53276 42980 72704 11052 21132 40252 52002 82032;
0186532760999992000021806004+42400+112900FM-12+115299999V0202901N003019999999N0300001N1-00321-01261102461ADDAA199000091GF107991001001999999001021KA1999N-01351MA1999999088481MD1710061+9999REMSYN076AAXX  18061 53276 32980 72903 11032 21126 38848 40246 57006 80002 333 21135;EQDQ01  00002PRCP99
0112532760999992000021809004+42400+112900FM-12+115299999V0203601N005019999999N0300001N1-00611-01151102661ADDGF107991001001999999001081MD1210131+9999REMSYN060AAXX  18091 53276 42980 73605 11061 21115 40266 52013 80008;
0163532760999992000021812004+42400+112900FM-12+115299999V0203601N002019999999N0300001N1-00961-01321102981ADDAA199000091GF106991011001999999031021MA1999999088791MD1210181+9999REMSYN066AAXX  18121 53276 32980 63602 11096 21132 38879 40298 52018 81032;EQDQ01  00002PRCP99
