0149549360999992000010100004+35550+118750FM-12+010999999V0200201N003010120019N0040001N1+00431+00361102311ADDAA106002091AY161061GF108991081051012501999999MD1710031+9999MW1601REMSYN072AAXX  01001 54936 11640 80203 10043 20036 40231 57003 60021 76060 885//;
0149549360999992000010106004+35550+118750FM-12+010999999V0200901N002010120019N0100001N1+00831+00091102041ADDAA106000191AY161061GF108991081051012501999999MD1710181+9999MW1001REMSYN072AAXX  01061 54936 11660 80902 10083 20009 40204 57018 69921 70060 885//;
0112549360999992000010109004+35550+118750FM-12+010999999V0209999C000010120019N0100001N1+00851+00681102001ADDGF107991071051012501999999MD1710041+9999REMSYN060AAXX  01091 54936 42660 70000 10085 20068 40200 57004 875//;
0172549360999992000010200004+35550+118750FM-12+010999999V0200201N001012200019N0090001N1+00121-00171102361ADDAA106000091AY141061GA1001+999999999GF100991001001999999001001MD1210191+9999MW1101REMSYN060AAXX  02001 54936 31959 00201 10012 21017 40236 52019 71040;EQDQ01  00002PRCP06
0122549360999992000010209004+35550+118750FM-12+010999999V0200701N002012200019N0150001N1+00391-00491102261ADDGA1001+999999999GF100991001001999999001001MD1710051+9999REMSYN054AAXX  02091 54936 42965 00702 10039 21049 40226 57005;
0122549360999992000010221004+35550+118750FM-12+010999999V0209999C000012200019N0150001N1-00281-00611102361ADDGA1001+999999999GF100991001001999999001001MD1710031+9999REMSYN054AAXX  02211 54936 42965 00000 11028 21061 40236 57003;
0142549360999992000010300004+35550+118750FM-12+010999999V0203601N002019999999N0120001N1-00161-00571102371ADDAA106000091GF107991001001999999001021MD1410001+9999REMSYN060AAXX  03001 54936 32962 73602 11016 21057 40237 54000 80002;EQDQ01  00002PRCP06
0152549360999992000010306004+35550+118750FM-12+010999999V0201401N006012200019N0120001N1+00741-00071102041ADDAA106000091GA1001+999999999GF100991001001999999001001MD1710291+9999REMSYN054AAXX  03061 54936 32962 01406 10074 21007 40204 57029;EQDQ01  00002PRCP06
0122549360999992000010309004+35550+118750FM-12+010999999V0201101N004012200019N0120001N1+00521-00041102071ADDGA1001+999999999GF100991001001999999001001MD1210021+9999REMSYN054AAXX  03091 54936 42962 01104 10052 21004 40207 52002;
0112549360999992000010321004+35550+118750FM-12+010999999V0201101N002019999999N0100001N1+00411+00311102071ADDGF108991081001999999071999MD1710081+9999REMSYN060AAXX  03211 54936 42960 81102 10041 20031 40207 57008 8807/;
0142549360999992000010400004+35550+118750FM-12+010999999V0201401N001010075019N0100001N1+00571+00411102081ADDAA106000091GF108991081051008001999999MD1210011+9999REMSYN060AAXX  04001 54936 32560 81401 10057 20041 40208 52001 885//;EQDQ01  00002PRCP06
0142549360999992000010406004+35550+118750FM-12+010999999V0202101N006010075019N0100001N1+00751+00501101831ADDAA106000091GF108991081051008001999999MD1710281+9999REMSYN060AAXX  04061 54936 32560 82106 10075 20050 40183 57028 885//;EQDQ01  00002PRCP06
0161549360999992000010421004+35550+118750FM-12+010999999V0200401N003010120019N0100001N1+00421+00371101631ADDAA124022191AY161031AY261031GF108991081051012501999999MD1710061+9999MW1211REMSYN076AAXX  04211 54936 41660 80403 10042 20037 40163 57006 72166 885// 333 70221;
0149549360999992000010500004+35550+118750FM-12+010999999V0200201N004010120019N0040001N1+00291+00261101751ADDAA106000191AY161061GF108991081051012501999999MD1210121+9999MW1101REMSYN072AAXX  05001 54936 11640 80204 10029 20026 40175 52012 69911 71060 885//;
0149549360999992000010506004+35550+118750FM-12+010999999V0200401N006010120019N0080001N1+00301+00251101551ADDAA106000191AY161061GF108991081051012501999999MD1710241+9999MW1601REMSYN072AAXX  05061 54936 11658 80406 10030 20025 40155 57024 69911 76060 885//;
0140549360999992000010509004+35550+118750FM-12+010999999V0200201N003010120019N0080001N1+00311+00261101681ADDAY161031AY261031GF108991081051012501999999MD1210121+9999MW1601REMSYN066AAXX  05091 54936 41658 80203 10031 20026 40168 52012 76066 885//;
0145549360999992000010521004+35550+118750FM-12+010999999V0200401N003010120019N0090001N1+00071-00041102211ADDAA124001891GF108991081051012501999999MD1210061+9999MW1101REMSYN076AAXX  05211 54936 41659 80403 10007 21004 40221 52006 71000 885// 333 70018;
0158549360999992000010600004+35550+118750FM-12+010999999V0200201N003019999999N0100001N1+00011-00201102481ADDAA106000091GF107991999051012501999999MD1210261+9999REMSYN060AAXX  06001 54936 32660 70203 10001 21020 40248 52026 885//;EQDQ01+000082SCOTLCQ02  00002PRCP06
0142549360999992000010606004+35550+118750FM-12+010999999V0203601N005010075019N0120001N1+00011-00471102501ADDAA106000091GF107991071051008001999999MD1710151+9999REMSYN060AAXX  06061 54936 32562 73605 10001 21047 40250 57015 875//;EQDQ01  00002PRCP06
0112549360999992000010609004+35550+118750FM-12+010999999V02099999999992200019N0120001N1-00211-00861102651ADDGF103991031051008001001001MD1210141+9999REMSYN060AAXX  06091 54936 42562 3//04 11021 21086 40265 52014 83500;
0122549360999992000010621004+35550+118750FM-12+010999999V0200401N003012200019N0150001N1-00781-01921103171ADDGA1001+999999999GF100991001001999999001001MD1210011+9999REMSYN054AAXX  06211 54936 42965 00403 11078 21192 40317 52001;
0152549360999992000010700004+35550+118750FM-12+010999999V0200401N001012200019N0200001N1-00831-01941103241ADDAA106000091GA1001+999999999GF100991001001999999001001MD1210061+9999REMSYN054AAXX  07001 54936 32970 00401 11083 21194 40324 52006;EQDQ01  00002PRCP06
0142549360999992000010706004+35550+118750FM-12+010999999V0209999C000012200019N0200001N1-00461-02031102861ADDAA106000091GF104991001001999999001021MD1710351+9999REMSYN060AAXX  07061 54936 32970 40000 11046 21203 40286 57035 80002;EQDQ01  00002PRCP06
0112549360999992000010709004+35550+118750FM-12+010999999V0209999C000012200019N0170001N1-00411-01991102731ADDGF102991001001999999001021MD1710131+9999REMSYN060AAXX  07091 54936 42967 20000 11041 21199 40273 57013 80002;
0112549360999992000010721004+35550+118750FM-12+010999999V0209999C000010075019N0150001N1-00321-01191102531ADDGF108991081051008001999999MD1710111+9999REMSYN060AAXX  07211 54936 42565 80000 11032 21119 40253 57011 885//;
0142549360999992000010800004+35550+118750FM-12+010999999V0209999C000019999999N0150001N1-00291-01031102571ADDAA106000091GF108991081001999999071999MD1210041+9999REMSYN060AAXX  08001 54936 32965 80000 11029 21103 40257 52004 8807/;EQDQ01  00002PRCP06
0142549360999992000010806004+35550+118750FM-12+010999999V0201401N001019999999N0150001N1+00111-00531102371ADDAA106000091GF108991081001999999999999MD1710211+9999REMSYN060AAXX  08061 54936 32965 81401 10011 21053 40237 57021 880//;EQDQ01  00002PRCP06
0112549360999992000010809004+35550+118750FM-12+010999999V0209999C000010075019N0150001N1+00091-00301102331ADDGF108991081051008001999999MD1710041+9999REMSYN060AAXX  08091 54936 42565 80000 10009 21030 40233 57004 885//;
0161549360999992000010821004+35550+118750FM-12+010999999V0200201N004010075019N0070001N1-00011-00071102151ADDAA124000791AY161031AY261031GF108991081051008001999999MD1710111+9999MW1601REMSYN076AAXX  08211 54936 41557 80204 11001 21007 40215 57011 76066 885// 333 79999;
0157549360999992000010900004+35550+118750FM-12+010999999V0203601N002010075019N0020001N1+00001-00091102151ADDAA106000191AY161061AY261061GF108991081051008001999999MD1410001+9999MW1661REMSYN072AAXX  09001 54936 11520 83602 10000 21009 40215 54000 69911 76666 885//;
0157549360999992000010906004+35550+118750FM-12+010999999V0209999C000019999999N0050001N1+00191+00111102061ADDAA106001091AY171061AY261061GF108991081001999999071999MD1710141+9999MW1211REMSYN072AAXX  09061 54936 11950 80000 10019 20011 40206 57014 60011 72176 8807/;
0143549360999992000010909004+35550+118750FM-12+010999999V0209999C000010120019N0040001N1+00241+00191102161ADDGF108991081051012501999999MD1010101+9999MW1601REMSYN066AAXX  09091 54936 41640 80000 10024 20019 40216 5010/ 76000 885//;EQDQ01+001002APC3  
0133549360999992000010921004+35550+118750FM-12+010999999V0200401N007010075019N0100001N1-00041-00161102671ADDAA124001591GF108991081051008001999999MD1710011+9999REMSYN070AAXX  09211 54936 42560 80407 11004 21016 40267 57001 885// 333 70014;
0142549360999992000011000004+35550+118750FM-12+010999999V0200201N003010075019N0120001N1-00121-00271102881ADDAA106000091GF107991071051008001001001MD1210201+9999REMSYN060AAXX  10001 54936 32562 70203 11012 21027 40288 52020 87500;EQDQ01  00002PRCP06
0112549360999992000011009004+35550+118750FM-12+010999999V0200401N004019999999N0120001N1+00201-00341102941ADDGF107991001001999999001021MD1210121+9999REMSYN060AAXX  10091 54936 42962 70404 10020 21034 40294 52012 80002;
0112549360999992000011021004+35550+118750FM-12+010999999V0200401N004010120019N0120001N1-00211-00601102801ADDGF108991081051012501999999MD1710151+9999REMSYN060AAXX  10211 54936 42662 80404 11021 21060 40280 57015 885//;
0132549360999992000011109004+35550+118750FM-12+010999999V0200401N005010120019N0120001N1-00121-00401102511ADDAY171031GF108991081051012501999999MD1410001+9999MW1701REMSYN066AAXX  11091 54936 41662 80405 11012 21040 40251 54000 77070 885//;
0161549360999992000011121004+35550+118750FM-12+010999999V0200401N004019999999N0080001N1-00221-00321102361ADDAA124002891AY171031AY271031GF108991081001999999021999MD1710121+9999MW1711REMSYN076AAXX  11211 54936 41958 80404 11022 21032 40236 57012 77177 8802/ 333 70027;
0149549360999992000011206004+35550+118750FM-12+010999999V0200401N004010360019N0100001N1-00041-00411102241ADDAA106000191AY171061GF108991011051012501021999MD1710181+9999MW1001REMSYN072AAXX  12061 54936 11660 80404 11004 21041 40224 57018 69911 70070 8152/;
0112549360999992000011209004+35550+118750FM-12+010999999V0200401N003010120019N0100001N1-00101-00421102281ADDGF108991081051012501999999MD1210041+9999REMSYN060AAXX  12091 54936 42660 80403 11010 21042 40228 52004 885//;
0133549360999992000011221004+35550+118750FM-12+010999999V0200201N003010120019N0100001N1-00341-00731102471ADDAA124000591GF108991081051012501999999MD1710031+9999REMSYN070AAXX  12211 54936 42660 80203 11034 21073 40247 57003 885// 333 70005;
0112549360999992000011309004+35550+118750FM-12+010999999V0200401N004019999999N0120001N1-00221-00871102551ADDGF107991001001999999001021MD1210051+9999REMSYN060AAXX  13091 54936 42962 70404 11022 21087 40255 52005 80002;
0126549360999992000011321004+35550+118750FM-12+010999999V0200201N002012200019N0100001N1-00571-00901102731ADDGA1001+999999999GF100991001001999999001001MD1210011+9999REMSYN058    AAXX  13211 54936 42960 00202 11057 21090 40273 52001;
0156549360999992000011400004+35550+118750FM-12+010999999V0200401N001012200019N0150001N1-00731-00911102851ADDAA199000091GA1001+999999999GF100991001001999999001001MD1210111+9999REMSYN058    AAXX  14001 54936 32965 00401 11073 21091 40285 52011;EQDQ01  00002PRCP99
0116549360999992000011409004+35550+118750FM-12+010999999V0200201N002012200019N0150001N1-00181-00861102731ADDGF104991001001999999001021MD1210071+9999REMSYN064    AAXX  14091 54936 42965 40202 11018 21086 40273 52007 80002;
0116549360999992000011421004+35550+118750FM-12+010999999V0203601N003019999999N0120001N1-00401-00771102841ADDGF107991071001999999031999MD1710021+9999REMSYN064    AAXX  14211 54936 42962 73603 11040 21077 40284 57002 8703/;
0146549360999992000011506004+35550+118750FM-12+010999999V0200401N004019999999N0120001N1-00091-00561103691ADDAA199000091GF108991081001999999071999MD1710241+9999REMSYN064    AAXX  15061 54936 32962 80404 11009 21056 40369 57024 8807/;EQDQ01  00002PRCP99
0155549360999992000011509004+35550+118750FM-12+010999999V0200201N004019999999N0100001N1-00101-00531102762ADDAY171031GF107991071001999999031999MD1210071+9999MW1221REMSYN070    AAXX  15091 54936 41960 70204 11010 21053 40276 52007 72270 8703/;EQDQ01+102763APOSLP
0137549360999992000011521004+35550+118750FM-12+010999999V0203601N004019999999N0100001N1-00271-00441103041ADDAA124001091GF108991081001999999071999MD1710011+9999REMSYN074    AAXX  15211 54936 42960 83604 11027 21044 40304 57001 8807/ 333 70011;
0146549360999992000011600004+35550+118750FM-12+010999999V02099999999990120019N0120001N1+99999+99999103161ADDAA199000091GF107991071051012501999999MD1210111+9999REMSYN064    AAXX  16001 54936 32662 7360/ 110// 21064 40316 52011 875//;EQDQ01  00002PRCP99
0162549360999992000011606004+35550+118750FM-12+010999999V0200201N005019999999N0120001N1-00101-00571103051ADDAA199000091GF107991999051012501999999MD1710221+9999REMSYN064    AAXX  16061 54936 32662 70205 11010 21057 40305 57022 885//;EQDQ01+000082SCOTLCQ02  00002PRCP99
0116549360999992000011609004+35550+118750FM-12+010999999V0200201N003010120019N0120001N1-00211-00681103021ADDGF107991071051012501999999MD1710031+9999REMSYN064    AAXX  16091 54936 42662 70203 11021 21068 40302 57003 875//;
0126549360999992000011621004+35550+118750FM-12+010999999V0200401N003012200019N0120001N1-00481-00871103021ADDGA1001+999999999GF100991001001999999001001MD1710071+9999REMSYN058    AAXX  16211 54936 42962 00403 11048 21087 40302 57007;
0142549360999992000011700004+35550+118750FM-12+010999999V02099999999992200019N0120001N1-00511-00911103161ADDAA199000091GA1001+999999999GF100991001001999999001001REMSYN058    AAXX  17001 54936 32962 0360/ 11051 21091 40316 5////;EQDQ01  00002PRCP99
0116549360999992000011709004+35550+118750FM-12+010999999V0209999C000019999999N0120001N1+00001-00861102801ADDGF105991001001999999001021MD1710041+9999REMSYN064    AAXX  17091 54936 42962 50000 10000 21086 40280 57004 80002;
0128549360999992000011721004+35550+118750FM-12+010999999V0209999C000019999999N0020001N1-00721-00811102761ADDGF107991001001999999001021MD1710121+9999MW1101REMSYN070    AAXX  17211 54936 41920 70000 11072 21081 40276 57012 71000 80002;
0160549360999992000011800004+35550+118750FM-12+010999999V0202201N002019999999N0000001N1-00651-00731102831ADDAA199000091AY141061GF108991999999999999999999MD1210061+9999MW1491REMSYN064    AAXX  18001 54936 31/00 82202 11065 21073 40283 52006 74940;EQDQ01  00002PRCP99
0138549360999992000011809004+35550+118750FM-12+010999999V0200701N002012200019N0080001N1+00021-00351102561ADDGA1001+999999999GF100991001001999999001001MD1210021+9999MW1101REMSYN064    AAXX  18091 54936 41958 00702 10002 21035 40256 52002 71000;
0126549360999992000011821004+35550+118750FM-12+010999999V0202901N003012200019N0150001N1-00581-01531103061ADDGA1001+999999999GF100991001001999999001001MD1210011+9999REMSYN058    AAXX  18211 54936 42965 02903 11058 21153 40306 52001;
0156549360999992000011900004+35550+118750FM-12+010999999V0203401N002012200019N0250001N1-00701-01531103271ADDAA199000091GA1001+999999999GF100991001001999999001001MD1210201+9999REMSYN058    AAXX  19001 54936 32975 03402 11070 21153 40327 52020;EQDQ01  00002PRCP99
0126549360999992000011909004+35550+118750FM-12+010999999V0202701N003012200019N0300001N1-00111-01841103091ADDGA1001+999999999GF100991001001999999001001MD1710061+9999REMSYN058    AAXX  19091 54936 42980 02703 11011 21184 40309 57006;
0122549360999992000011921004+35550+118750FM-12+010999999V0209999C000012200019N0150001N1-00941-01161103491ADDGA1001+999999999GF100991001001999999001001MD1210081+9999REMSYN054AAXX  19211 54936 42965 00000 11094 21116 40349 52008;
0152549360999992000012000004+35550+118750FM-12+010999999V0209999C000012200019N0120001N1-00961-01181103621ADDAA199000091GA1001+999999999GF100991001001999999001001MD1210121+9999REMSYN054AAXX  20001 54936 32962 00000 11096 21118 40362 52012;EQDQ01  00002PRCP99
0152549360999992000012006004+35550+118750FM-12+010999999V0209999C000012200019N0150001N1+00061-01401103781ADDAA199000091GA1001+999999999GF100991001001999999001001MD1710091+9999REMSYN054AAXX  20061 54936 32965 00000 10006 21140 40378 57009;EQDQ01  00002PRCP99
0122549360999992000012009004+35550+118750FM-12+010999999V0200701N002012200019N0120001N1-00011-01151103801ADDGA1001+999999999GF100991001001999999001001MD1210021+9999REMSYN054AAXX  20091 54936 42962 00702 11001 21115 40380 52002;
0122549360999992000012021004+35550+118750FM-12+010999999V0200201N003012200019N0120001N1-00731-01001104111ADDGA1001+999999999GF100991001001999999001001MD1710021+9999REMSYN054AAXX  20211 54936 42962 00203 11073 21100 40411 57002;
0142549360999992000012106004+35550+118750FM-12+010999999V0201401N005019999999N0100001N1+00061-00531103851ADDAA199000091GF107991001001999999001021MD1710301+9999REMSYN060AAXX  21061 54936 32960 71405 10006 21053 40385 57030 80002;EQDQ01  00002PRCP99
0112549360999992000012109004+35550+118750FM-12+010999999V0201401N004010120019N0100001N1+00011-00481103741ADDGF108991081051012501999999MD1710111+9999REMSYN060AAXX  21091 54936 42660 81404 10001 21048 40374 57011 885//;
0161549360999992000012121004+35550+118750FM-12+010999999V0200201N002019999999N0100001N1-00131-00211102981ADDAA124003091AY171031AY271031GF108991081001999999021999MD1710271+9999MW1711REMSYN076AAXX  21211 54936 41960 80202 11013 21021 40298 57027 77177 8802/ 333 70030;
0157549360999992000012200004+35550+118750FM-12+010999999V0200201N002019999999N0100001N1-00121-00201102821ADDAA106002091AY171061AY271061GF108991081001999999021999MD1710161+9999MW1701REMSYN072AAXX  22001 54936 11960 80202 11012 21020 40282 57016 60021 77077 8802/;
0149549360999992000012206004+35550+118750FM-12+010999999V0200201N002019999999N0100001N1+00101-00011102431ADDAA106000591AY171061GF108991081001999999021999MD1710281+9999MW1001REMSYN072AAXX  22061 54936 11960 80202 10010 21001 40243 57028 69951 70070 8802/;
0112549360999992000012209004+35550+118750FM-12+010999999V0209999C000010120019N0100001N1+00131-00011102511ADDGF107991071051012501999999MD1210081+9999REMSYN060AAXX  22091 54936 42660 70000 10013 21001 40251 52008 875//;
0133549360999992000012221004+35550+118750FM-12+010999999V0203601N002019999999N0100001N1-00101-00351102801ADDAA124001091GF108991081001999999071999MD1210061+9999REMSYN070AAXX  22211 54936 42960 83602 11010 21035 40280 52006 8807/ 333 70009;
0142549360999992000012300004+35550+118750FM-12+010999999V0200201N004019999999N0100001N1-00131-00531103001ADDAA199000091GF108991081051999999999999MD1210191+9999REMSYN060AAXX  23001 54936 32960 80204 11013 21053 40300 52019 885//;EQDQ01  00002PRCP99
0149549360999992000012306004+35550+118750FM-12+010999999V0200201N004019999999N0100001N1-00181-00601103051ADDAA106000791AY171061GF108991081001999999021999MD1710041+9999MW1001REMSYN072AAXX  23061 54936 11960 80204 11018 21060 40305 57004 69901 70070 8802/;
0080549360999992000012309004+35550+118750FM-12+010999999V0200401N004019999999N0100001N1-00121-00481999999ADDGF108991999999999999999999REMSYN042AAXX  23091 54936 42960 80404 11012 21048;
0133549360999992000012321004+35550+118750FM-12+010999999V0200201N008019999999N0120001N1-00601-01081103811ADDAA124000791GF107991071001999999031999MD1210091+9999REMSYN070AAXX  23211 54936 42962 70208 11060 21108 40381 52009 8703/ 333 79999;
0162549360999992000012406004+35550+118750FM-12+010999999V0200401N006010120019N0100001N1-00571-00991104081ADDAA106000791AY171061GF108991061051012501011999MD1710071+9999REMSYN072AAXX  24061 54936 11660 80406 11057 21099 40408 57007 69901 76070 8651/;EQDQ01+000602PRSWM1
0132549360999992000012409004+35550+118750FM-12+010999999V0200401N005010900019N0120001N1-00681-01201999999ADDAY171031GF107991031051008001001021MD1210101+9999MW1001REMSYN066AAXX  24091 54936 41562 70405 11068 21120 40/19 52010 70070 83502;
0152549360999992000012500004+35550+118750FM-12+010999999V0203201N003012200019N0170001N1-01061-01691104421ADDAA199000091GA1001+999999999GF100991001001999999001001MD1210011+9999REMSYN054AAXX  25001 54936 32967 03203 11106 21169 40442 52001;EQDQ01  00002PRCP99
0168549360999992000012506004+35550+118750FM-12+010999999V0203401N003012200019N0170001N1-00491-01841999999ADDAA199000091GA1001+999999999GF100991001001999999001001MD1710211+9999REMSYN054AAXX  25061 54936 32967 03403 11049 21184 40318 57021;EQDQ01  00002PRCP99Q02 103183APOSLP
0141549360999992000012509004+35550+118750FM-12+010999999V0200201N003012200019N0170001N1-00501-01951104122ADDGA1001+999999999GF100991001001999999001001MD1710061+9999REMSYN054AAXX  25091 54936 42967 00203 11050 21195 40412 57006;EQDQ01+104123APOSLP
0122549360999992000012521004+35550+118750FM-12+010999999V0209999C000012200019N0120001N1-01271-01761104171ADDGA1001+999999999GF100991001001999999001001MD1710031+9999REMSYN054AAXX  25211 54936 42962 00000 11127 21176 40417 57003;
0152549360999992000012600004+35550+118750FM-12+010999999V0202001N001012200019N0120001N1-01101-01601104211ADDAA199000091GA1001+999999999GF100991001001999999001001MD1210041+9999REMSYN054AAXX  26001 54936 32962 02001 11110 21160 40421 52004;EQDQ01  00002PRCP99
0122549360999992000012609004+35550+118750FM-12+010999999V0200401N004012200019N0150001N1-00341-01371104051ADDGA1001+999999999GF100991001001999999001001MD1710021+9999REMSYN054AAXX  26091 54936 42965 00404 11034 21137 40405 57002;
0122549360999992000012621004+35550+118750FM-12+010999999V0209999C000012200019N0120001N1-01171-03701104141ADDGA1001+999999999GF100991001001999999001001MD1710021+9999REMSYN054AAXX  26211 54936 42962 00000 11117 2137/ 40414 57002;
0122549360999992000012709004+35550+118750FM-12+010999999V0200701N001012200019N0150001N1-00111-01271103851ADDGA1001+999999999GF100991001001999999001001MD1710061+9999REMSYN054AAXX  27091 54936 42965 00701 11011 21127 40385 57006;
0122549360999992000012721004+35550+118750FM-12+010999999V0209999C000012200019N0100001N1-01061-01191103681ADDGA1001+999999999GF100991001001999999001001MD1710141+9999REMSYN054AAXX  27211 54936 42960 00000 11106 21119 40368 57014;
0112549360999992000012809004+35550+118750FM-12+010999999V0202001N003019999999N0100001N1+00071-01061103351ADDGF107991001001999999001021MD1710071+9999REMSYN060AAXX  28091 54936 42960 72003 10007 21106 40335 57007 80002;
0131549360999992000012821004+35550+118750FM-12+010999999V0209999C000012200019N0100001N1-00501-00761103371ADDGF101991001001999999001999MD1111012+9999REMSYN060AAXX  28211 54936 42960 10000 11050 21076 40337 51101 8000/;EQDQ01+001012APC3  
0154549360999992000012900004+35550+118750FM-12+010999999V0209999C000019999999N0070001N1-00371-00651103391ADDAA199000091GF107991001001999999001021MD1210101+9999MW1101REMSYN066AAXX  29001 54936 31957 70000 11037 21065 40339 52010 71000 80002;EQDQ01  00002PRCP99
0122549360999992000012909004+35550+118750FM-12+010999999V0200401N006012200019N0100001N1+00131-00551103471ADDGA1001+999999999GF100991001001999999001001MD1210071+9999REMSYN054AAXX  29091 54936 42960 00406 10013 21055 40347 52007;
0122549360999992000012921004+35550+118750FM-12+010999999V0200201N002012200019N0150001N1-00681-01511104261ADDGA1001+999999999GF100991001001999999001001MD1210091+9999REMSYN054AAXX  29211 54936 42965 00202 11068 21151 40426 52009;
0152549360999992000013000004+35550+118750FM-12+010999999V0202901N002012200019N0150001N1-00751-01711104541ADDAA199000091GA1001+999999999GF100991001001999999001001MD1210271+9999REMSYN054AAXX  30001 54936 32965 02902 11075 21171 40454 52027;EQDQ01  00002PRCP99
0152549360999992000013006004+35550+118750FM-12+010999999V0203401N004012200019N0300001N1-00241-01951104441ADDAA199000091GA1001+999999999GF100991001001999999001001MD1710161+9999REMSYN054AAXX  30061 54936 32980 03404 11024 21195 40444 57016;EQDQ01  00002PRCP99
0122549360999992000013009004+35550+118750FM-12+010999999V0203601N004012200019N0250001N1-00241-01851104431ADDGA1001+999999999GF100991001001999999001001MD1710011+9999REMSYN054AAXX  30091 54936 42975 03604 11024 21185 40443 57001;
0142549360999992000013100004+35550+118750FM-12+010999999V0200401N002019999999N0150001N1-00921-01621104791ADDAA199000091GF107991001001999999001021MD1210041+9999REMSYN060AAXX  31001 54936 32965 70402 11092 21162 40479 52004 80002;EQDQ01  00002PRCP99
0142549360999992000013106004+35550+118750FM-12+010999999V0200401N004019999999N0200001N1-00511-01981104451ADDAA199000091GF107991001001999999001021MD1710301+9999REMSYN060AAXX  31061 54936 32970 70404 11051 21198 40445 57030 80002;EQDQ01  00002PRCP99
0112549360999992000013109004+35550+118750FM-12+010999999V0200401N003019999999N0200001N1-00511-01801104391ADDGF107991001001999999001021MD1710061+9999REMSYN060AAXX  31091 54936 42970 70403 11051 21180 40439 57006 80002;
0122549360999992000013121004+35550+118750FM-12+010999999V0209999C000012200019N0170001N1-01131-01641104101ADDGA1001+999999999GF100991001001999999001001MD1710131+9999REMSYN054AAXX  31211 54936 42967 00000 11113 21164 40410 57013;
0112549360999992000020109004+35550+118750FM-12+010999999V0202501N002019999999N0120001N1-00231-01631103511ADDGF107991001001999999001021MD1710151+9999REMSYN060AAXX  01091 54936 42962 72502 11023 21163 40351 57015 80002;
0122549360999992000020121004+35550+118750FM-12+010999999V0209999C000012200019N0120001N1-01021-01361103411ADDGA1001+999999999GF100991001001999999001001MD1710061+9999REMSYN054AAXX  01211 54936 42962 00000 11102 21136 40341 57006;
0152549360999992000020206004+35550+118750FM-12+010999999V0202201N002012200019N0100001N1+00181-00971103151ADDAA199000091GA1001+999999999GF100991001001999999001001MD1710321+9999REMSYN054AAXX  02061 54936 32960 02202 10018 21097 40315 57032;EQDQ01  00002PRCP99
0122549360999992000020209004+35550+118750FM-12+010999999V0202201N002012200019N0100001N1+00111-01151103101ADDGA1001+999999999GF100991001001999999001001MD1710051+9999REMSYN054AAXX  02091 54936 42960 02202 10011 21115 40310 57005;
0134549360999992000020221004+35550+118750FM-12+010999999V0209999C000012200019N0080001N1-00821-00921103121ADDGA1001+999999999GF100991001001999999001001MD1710031+9999MW1101REMSYN060AAXX  02211 54936 41958 00000 11082 21092 40312 57003 71000;
0112549360999992000020309004+35550+118750FM-12+010999999V0200701N003012200019N0100001N1+00221-01181103141ADDGF103991001001999999001021MD1710021+9999REMSYN060AAXX  03091 54936 42960 30703 10022 21118 40314 57002 80002;
0122549360999992000020321004+35550+118750FM-12+010999999V0200201N002012200019N0100001N1-00781-01121103281ADDGA1001+999999999GF100991001001999999001001MD1710061+9999REMSYN054AAXX  03211 54936 42960 00202 11078 21112 40328 57006;
0112549360999992000020409004+35550+118750FM-12+010999999V0201401N002019999999N0100001N1+00331-01071102921ADDGF106991061001999999031001MD1710111+9999REMSYN060AAXX  04091 54936 42960 61402 10033 21107 40292 57011 86030;
0153549360999992000020421004+35550+118750FM-12+010999999V0209999C000019999999N0030001N1-00221-00321102751ADDAA124001591AY171031GF108991081001999999021999MD1710111+9999MW1711REMSYN076AAXX  04211 54936 41930 80000 11022 21032 40275 57011 77170 8802/ 333 70014;
0112549360999992000020509004+35550+118750FM-12+010999999V0202501N002019999999N0100001N1+00051-00391102461ADDGF107991071001999999031999MD1710071+9999REMSYN060AAXX  05091 54936 42960 72502 10005 21039 40246 57007 8703/;
0145549360999992000020521004+35550+118750FM-12+010999999V0209999C000019999999N0030001N1-00621-00701102521ADDAA124002591GF107991001001999999001021MD1710101+9999MW1101REMSYN076AAXX  05211 54936 41930 70000 11062 21070 40252 57010 71000 80002 333 70026;
0134549360999992000020609004+35550+118750FM-12+010999999V0202201N004010001519N0000001N1-00061-00121102311ADDGA1091+999999999GF109991091999999999999999MD1710081+9999MW1471REMSYN060AAXX  06091 54936 41/00 92204 11006 21012 40231 57008 74700;
0140549360999992000020621004+35550+118750FM-12+010999999V0200201N001019999999N0015001N1-00011-00041102001ADDAY141031AY241031GF108991081001999999021999MD1710201+9999MW1281REMSYN066AAXX  06211 54936 41915 80201 11001 21004 40200 57020 72844 8802/;
0157549360999992000020700004+35550+118750FM-12+010999999V0200201N004019999999N0012001N1-00321-00361102171ADDAA106004191AY171061AY241061GF108991081001999999021999MD1210151+9999MW1711REMSYN072AAXX  07001 54936 11912 80204 11032 21036 40217 52015 60041 77174 8802/;
0122549360999992000020709004+35550+118750FM-12+010999999V0200401N001012200019N0100001N1+00001-01131102411ADDGA1001+999999999GF100991001001999999001001MD1710011+9999REMSYN054AAXX  07091 54936 42960 00401 10000 21113 40241 57001;
0143549360999992000020721004+35550+118750FM-12+010999999V0203601N002012200019N0120001N1-00511-01221102681ADDAA124004391GA1001+999999999GF100991001001999999001001MD1210281+9999REMSYN064AAXX  07211 54936 42962 03602 11051 21122 40268 52028 333 70044;
0152549360999992000020800004+35550+118750FM-12+010999999V0203601N004012200019N0200001N1-00591-01551102971ADDAA199000091GA1001+999999999GF100991001001999999001001MD1210271+9999REMSYN054AAXX  08001 54936 32970 03604 11059 21155 40297 52027;EQDQ01  00002PRCP99
0152549360999992000020806004+35550+118750FM-12+010999999V0203601N005012200019N0300001N1-00411-01361103051ADDAA199000091GA1001+999999999GF100991001001999999001001MD1710101+9999REMSYN054AAXX  08061 54936 32980 03605 11041 21136 40305 57010;EQDQ01  00002PRCP99
0122549360999992000020809004+35550+118750FM-12+010999999V0200401N002012200019N0300001N1-00361-01391103001ADDGA1001+999999999GF100991001001999999001001MD1710041+9999REMSYN054AAXX  08091 54936 42980 00402 11036 21139 40300 57004;
0122549360999992000020821004+35550+118750FM-12+010999999V0209999C000012200019N0120001N1-01241-01391102901ADDGA1001+999999999GF100991001001999999001001MD1710141+9999REMSYN054AAXX  08211 54936 42962 00000 11124 21139 40290 57014;
0142549360999992000020906004+35550+118750FM-12+010999999V0202201N003019999999N0170001N1-00031-01071102561ADDAA199000091GF106991001001999999001021MD1710281+9999REMSYN060AAXX  09061 54936 32967 62203 11003 21107 40256 57028 80002;EQDQ01  00002PRCP99
0112549360999992000020909004+35550+118750FM-12+010999999V0202001N002019999999N0170001N1+00071-01051102451ADDGF106991001001999999001021MD1710111+9999REMSYN060AAXX  09091 54936 42967 62002 10007 21105 40245 57011 80002;
0122549360999992000020921004+35550+118750FM-12+010999999V0209999C000012200019N0120001N1-00581-00691102261ADDGA1001+999999999GF100991001001999999001001MD1710121+9999REMSYN054AAXX  09211 54936 42962 00000 11058 21069 40226 57012;
0122549360999992000021009004+35550+118750FM-12+010999999V0202201N002012200019N0100001N1+00431-00391101861ADDGA1001+999999999GF100991001001999999001001MD1710051+9999REMSYN054AAXX  10091 54936 42960 02202 10043 21039 40186 57005;
0134549360999992000021021004+35550+118750FM-12+010999999V0209999C000012200019N0080001N1-00371-00491102161ADDGA1001+999999999GF100991001001999999001001MD1710011+9999MW1101REMSYN060AAXX  10211 54936 41958 00000 11037 21049 40216 57001 71000;
0152549360999992000021106004+35550+118750FM-12+010999999V0200901N001012200019N0120001N1+00671-00541102241ADDAA199000091GA1001+999999999GF100991001001999999001001MD1710131+9999REMSYN054AAXX  11061 54936 32962 00901 10067 21054 40224 57013;EQDQ01  00002PRCP99
0122549360999992000021109004+35550+118750FM-12+010999999V0209999C000012200019N0120001N1+00811-00521102201ADDGA1001+999999999GF100991001001999999001001MD1710041+9999REMSYN054AAXX  11091 54936 42962 00000 10081 21052 40220 57004;
0122549360999992000021121004+35550+118750FM-12+010999999V0209999C000012200019N0100001N1-00251-00381102121ADDGA1001+999999999GF100991001001999999001001MD1710121+9999REMSYN054AAXX  11211 54936 42960 00000 11025 21038 40212 57012;
0154549360999992000021200004+35550+118750FM-12+010999999V0209999C000019999999N0030001N1-00221-00301102191ADDAA199000091GF105991001001999999001021MD1210051+9999MW1101REMSYN066AAXX  12001 54936 31930 50000 11022 2103/ 40219 52005 71000 80002;EQDQ01  00002PRCP99
0152549360999992000021206004+35550+118750FM-12+010999999V0202201N004012200019N0100001N1+00851+00021101951ADDAA199000091GA1001+999999999GF100991001001999999001001MD1710221+9999REMSYN054AAXX  12061 54936 32960 02204 10085 20002 40195 57022;EQDQ01  00002PRCP99
0112549360999992000021209004+35550+118750FM-12+010999999V0202001N002012200019N0100001N1+00891+00111101891ADDGF102991001001999999001021MD1710061+9999REMSYN060AAXX  12091 54936 42960 22002 10089 20011 40189 57006 80002;
0134549360999992000021221004+35550+118750FM-12+010999999V0209999C000012200019N0080001N1-00131-00191101991ADDGA1001+999999999GF100991001001999999001001MD1710091+9999MW1101REMSYN060AAXX  12211 54936 41958 00000 11013 21019 40199 57009 71000;
0154549360999992000021300004+35550+118750FM-12+010999999V0200401N001012200019N0090001N1-00131-00221102071ADDAA199000091GF102991001001999999001021MD1210061+9999MW1101REMSYN066AAXX  13001 54936 31959 20401 11013 21022 40207 52006 71000 80002;EQDQ01  00002PRCP99
0112549360999992000021309004+35550+118750FM-12+010999999V0209999C000019999999N0120001N1+00681+00161101781ADDGF108991081001999999021999MD1710061+9999REMSYN060AAXX  13091 54936 42962 80000 10068 20016 40178 57006 8802/;
0143549360999992000021321004+35550+118750FM-12+010999999V0200201N004012200019N0100001N1-00201-00431102341ADDAA124000791GA1001+999999999GF100991001001999999001001MD1210041+9999REMSYN064AAXX  13211 54936 42960 00204 11020 21043 40234 52004 333 79999;
0142549360999992000021400004+35550+118750FM-12+010999999V0200201N003012200019N0120001N1-00251-00531102571ADDAA199000091GF104991001001999999001021MD1210211+9999REMSYN060AAXX  14001 54936 32962 40203 11025 21053 40257 52021 80002;EQDQ01  00002PRCP99
0112549360999992000021409004+35550+118750FM-12+010999999V0200701N002012200019N0150001N1+00311-00571102411ADDGF101991001001999999001021MD1210041+9999REMSYN060AAXX  14091 54936 42965 10702 10031 21057 40241 52004 80002;
0122549360999992000021509004+35550+118750FM-12+010999999V0202901N003012200019N0250001N1+00251-01961102551ADDGA1001+999999999GF100991001001999999001001MD1710101+9999REMSYN054AAXX  15091 54936 42975 02903 10025 21196 40255 57010;
0122549360999992000021521004+35550+118750FM-12+010999999V0209999C000012200019N0150001N1-00571-01041102711ADDGA1001+999999999GF100991001001999999001001MD1710041+9999REMSYN054AAXX  15211 54936 42965 00000 11057 21104 40271 57004;
0152549360999992000021600004+35550+118750FM-12+010999999V0209999C000012200019N0120001N1-00511-00861102721ADDAA199000091GA1001+999999999GF100991001001999999001001MD1210011+9999REMSYN054AAXX  16001 54936 32962 00000 11051 21086 40272 52001;EQDQ01  00002PRCP99
0142549360999992000021606004+35550+118750FM-12+010999999V0202001N003019999999N0170001N1+00401-01221102581ADDAA199000091GF106991001001999999001021MD1710221+9999REMSYN060AAXX  16061 54936 32967 62003 10040 21122 40258 57022 80002;EQDQ01  00002PRCP99
0112549360999992000021609004+35550+118750FM-12+010999999V0201801N003012200019N0150001N1+00421-01121102451ADDGF101991001001999999001021MD1710131+9999REMSYN060AAXX  16091 54936 42965 11803 10042 21112 40245 57013 80002;
0112549360999992000021709004+35550+118750FM-12+010999999V0201401N002019999999N0100001N1+00651-00301102471ADDGF107991071001999999031999MD1710111+9999REMSYN060AAXX  17091 54936 42960 71402 10065 21030 40247 57011 8703/;
0154549360999992000021800004+35550+118750FM-12+010999999V0209999C000019999999N0050001N1-00101-00291102471ADDAA199000091GF107991001001999999001021MD1710051+9999MW1101REMSYN066AAXX  18001 54936 31950 70000 11010 21029 40247 57005 71000 80002;EQDQ01  00002PRCP99
0142549360999992000021806004+35550+118750FM-12+010999999V0201101N006010360019N0180001N1+00581-00021103181ADDAA199000091GF108991011051012501011999MD1710311+9999REMSYN060AAXX  18061 54936 32668 81106 10058 21002 40318 57031 8151/;EQDQ01  00002PRCP99
0149549360999992000021900004+35550+118750FM-12+010999999V0203601N001019999999N0006001N1+00171+00121102031ADDAA106000191AY161061GF108991081001999999021999MD1210051+9999MW1461REMSYN072AAXX  19001 54936 11906 83601 10017 20012 40203 52005 69921 74660 8802/;
0162549360999992000021906004+35550+118750FM-12+010999999V0203601N002010075019N0100001N1+00551+00201101931ADDAA199000091AY141061GF107991071051008001999999MD1710091+9999MW1001REMSYN066AAXX  19061 54936 31560 73602 10055 20020 40193 57009 70040 875//;EQDQ01  00002PRCP99
0124549360999992000021909004+35550+118750FM-12+010999999V0200401N005010120019N0090001N1+00281+00041101891ADDGF108991081051012501999999MD1710051+9999MW1101REMSYN066AAXX  19091 54936 41659 80405 10028 20004 40189 57005 71000 885//;
0143549360999992000021921004+35550+118750FM-12+010999999V0209999C000012200019N0100001N1-00301-00701102331ADDAA124000791GA1001+999999999GF100991001001999999001001MD1210011+9999REMSYN064AAXX  19211 54936 42960 00000 11030 21070 40233 52001 333 79999;
0142549360999992000022006004+35550+118750FM-12+010999999V0200401N004012200019N0200001N1+00401-00971102321ADDAA199000091GF104991001001999999001021MD1710201+9999REMSYN060AAXX  20061 54936 32970 40404 10040 21097 40232 57020 80002;EQDQ01  00002PRCP99
0122549360999992000022009004+35550+118750FM-12+010999999V0200201N001012200019N0200001N1+00511-01101102231ADDGA1001+999999999GF100991001001999999001001MD1710101+9999REMSYN054AAXX  20091 54936 42970 00201 10051 21110 40223 57010;
0122549360999992000022021004+35550+118750FM-12+010999999V0200201N002012200019N0150001N1-00321-00751102671ADDGA1001+999999999GF100991001001999999001001MD1710021+9999REMSYN054AAXX  20211 54936 42965 00202 11032 21075 40267 57002;
0142549360999992000022100004+35550+118750FM-12+010999999V0200201N002012200019N0120001N1-00361-00711102751ADDAA199000091GF101991001001999999001021MD1210071+9999REMSYN060AAXX  21001 54936 32962 10202 11036 21071 40275 52007 80002;EQDQ01  00002PRCP99
0142549360999992000022106004+35550+118750FM-12+010999999V0201601N003012200019N0300001N1+00531-01461102551ADDAA199000091GF102991001001999999001021MD1710201+9999REMSYN060AAXX  21061 54936 32980 21603 10053 21146 40255 57020 80002;EQDQ01  00002PRCP99
0112549360999992000022121004+35550+118750FM-12+010999999V0209999C000019999999N0120001N1-00111-00261102621ADDGF107991001001999999001021MD1410001+9999REMSYN060AAXX  21211 54936 42962 70000 11011 21026 40262 54000 80002;
0152549360999992000022206004+35550+118750FM-12+010999999V0201601N004012200019N0200001N1+00741-00641102451ADDAA199000091GA1001+999999999GF100991001001999999001001MD1710221+9999REMSYN054AAXX  22061 54936 32970 01604 10074 21064 40245 57022;EQDQ01  00002PRCP99
0122549360999992000022221004+35550+118750FM-12+010999999V0201801N002012200019N0120001N1+00001-00181102551ADDGA1001+999999999GF100991001001999999001001MD1710031+9999REMSYN054AAXX  22211 54936 42962 01802 10000 21018 40255 57003;
0142549360999992000022306004+35550+118750FM-12+010999999V0200201N003012200019N0100001N1+00871-00341102531ADDAA199000091GF104991041051012501001001MD1710211+9999REMSYN060AAXX  23061 54936 32660 40203 10087 21034 40253 57021 84500;EQDQ01  00002PRCP99
0147549360999992000022309004+35550+118750FM-12+010999999V0200401N004010120019N0100001N1+99999-00161102691ADDGF107991071051012501999999MD1210141+9999REMSYN060AAXX  23091 54936 42660 70404 1045/ 21016 40269 52014 875//;EQDQ01+004503ATOT  Q02 +04503ATOT  
0122549360999992000022321004+35550+118750FM-12+010999999V0209999C000012200019N0150001N1-00291-00811103251ADDGA1001+999999999GF100991001001999999001001MD1210031+9999REMSYN054AAXX  23211 54936 42965 00000 11029 21081 40325 52003;
0142549360999992000022400004+35550+118750FM-12+010999999V0200701N002019999999N0200001N1-00251-00741103381ADDAA199000091GF106991001001999999001021MD1210121+9999REMSYN060AAXX  24001 54936 32970 60702 11025 21074 40338 52012 80002;EQDQ01  00002PRCP99
0142549360999992000022406004+35550+118750FM-12+010999999V0200901N003019999999N0250001N1+00551-01421103241ADDAA199000091GF107991001001999999001021MD1710241+9999REMSYN060AAXX  24061 54936 32975 70903 10055 21142 40324 57024 80002;EQDQ01  00002PRCP99
0112549360999992000022409004+35550+118750FM-12+010999999V0200401N004019999999N0300001N1+00461-01231103101ADDGF107991001001999999001021MD1710141+9999REMSYN060AAXX  24091 54936 42980 70404 10046 21123 40310 57014 80002;
0112549360999992000022421004+35550+118750FM-12+010999999V0209999C000019999999N0120001N1-00151-00441103001ADDGF107991001001999999001021MD1710171+9999REMSYN060AAXX  24211 54936 42962 70000 11015 21044 40300 57017 80002;
0116549360999992000022506004+35550+118750FM-12+010999999V02099999999999999999N9999999N1+00451-00891102261ADDAA199000091MD1710451+9999REMSYN060AAXX  25061 54936 32/// ///// 10045 21089 40226 57045 80002;EQDQ01  00002PRCP99
0132549360999992000022509004+35550+118750FM-12+010999999V0202701N007019999999N0050001N1+00021-00091102121ADDAY171031GF108991081001999999021999MD1710161+9999MW1701REMSYN066AAXX  25091 54936 41950 82707 10002 21009 40212 57016 77070 8802/;
0143549360999992000022521004+35550+118750FM-12+010999999V0202701N002012200019N0100001N1-00231-00541102351ADDAA124000591GA1001+999999999GF100991001001999999001001MD1210011+9999REMSYN064AAXX  25211 54936 42960 02702 11023 21054 40235 52001 333 70004;
0152549360999992000022600004+35550+118750FM-12+010999999V0202701N001012200019N0100001N1-00181-00561102521ADDAA199000091GA1001+999999999GF100991001001999999001001MD1210171+9999REMSYN054AAXX  26001 54936 32960 02701 11018 21056 40252 52017;EQDQ01  00002PRCP99
0152549360999992000022606004+35550+118750FM-12+010999999V0202701N004012200019N0150001N1+00811-01021102411ADDAA199000091GA1001+999999999GF100991001001999999001001MD1710191+9999REMSYN054AAXX  26061 54936 32965 02704 10081 21102 40241 57019;EQDQ01  00002PRCP99
0122549360999992000022609004+35550+118750FM-12+010999999V0202901N005012200019N0200001N1+00821-01121102321ADDGA1001+999999999GF100991001001999999001001MD1710091+9999REMSYN054AAXX  26091 54936 42970 02905 10082 21112 40232 57009;
0152549360999992000022700004+35550+118750FM-12+010999999V0202501N001012200019N0120001N1-00111-00451102501ADDAA199000091GA1001+999999999GF100991001001999999001001MD1210061+9999REMSYN054AAXX  27001 54936 32962 02501 11011 21045 40250 52006;EQDQ01  00002PRCP99
0152549360999992000022706004+35550+118750FM-12+010999999V0202701N005012200019N0150001N1+01231-00471102191ADDAA199000091GA1001+999999999GF100991001001999999001001MD1710221+9999REMSYN054AAXX  27061 54936 32965 02705 10123 21047 40219 57022;EQDQ01  00002PRCP99
0122549360999992000022709004+35550+118750FM-12+010999999V0203201N004012200019N0150001N1+01291-01021102151ADDGA1001+999999999GF100991001001999999001001MD1710041+9999REMSYN054AAXX  27091 54936 42965 03204 10129 21102 40215 57004;
0122549360999992000022721004+35550+118750FM-12+010999999V0200401N005012200019N0150001N1-00161-00651103141ADDGA1001+999999999GF100991001001999999001001MD1210291+9999REMSYN054AAXX  27211 54936 42965 00405 11016 21065 40314 52029;
0136549360999992000022800004+35550+118750FM-12+010999999V0200401N006012200019N0150001N1-00241+99999103521ADDAA199000091GF102991001001999999001021MD1210361+9999REMSYN054AAXX  28001 54936 32965 20406 11024 40352 52036 80002;EQDQ01  00002PRCP99
0152549360999992000022806004+35550+118750FM-12+010999999V0200201N005012200019N0300001N1+00331-00971103501ADDAA199000091GA1001+999999999GF100991001001999999001001MD1710101+9999REMSYN054AAXX  28061 54936 32980 00205 10033 21097 40350 57010;EQDQ01  00002PRCP99
0112549360999992000022809004+35550+118750FM-12+010999999V0200401N006012200019N0200001N1+00351-01161103471ADDGF102991001999999999001021MD1710041+9999REMSYN060AAXX  28091 54936 42970 20406 10035 21116 40347 57004 80/02;
0122549360999992000022821004+35550+118750FM-12+010999999V0209999C000012200019N0150001N1-00531-00891103491ADDGA1001+999999999GF100991001001999999001001MD1710111+9999REMSYN054AAXX  28211 54936 42565 00000 11053 21089 40349 57011;
0152549360999992000022900004+35550+118750FM-12+010999999V0209999C000012200019N0120001N1-00441-00691103521ADDAA199000091GA1001+999999999GF100991001001999999001001MD1210031+9999REMSYN054AAXX  29001 54936 32962 00000 11044 21069 40352 52003;EQDQ01  00002PRCP99
0157549360999992000022909004+35550+118750FM-12+010999999V0202001N999992200019N0120001N1+00871-00641102911ADDGA1001+999999999GF100991001001999999001001MD1710161+9999REMSYN054AAXX  29091 54936 42962 02053 10087 21064 40291 57016;EQDQ01+005303WOSPD Q020005303WOSPD 
0096549360999992000022920004+35550+118750FM-12+010999999V0201801N002012200019N0120001N1+99999+99999102911ADDGA1001+999999999GF100991001001999999001001REMSYN042AAXX  29201 54936 42/62 01802 21031 40291;
0152549360999992000030100004+35550+118750FM-12+010999999V0202001N001012200019N0120001N1+00031-00331103021ADDAA199000091GA1001+999999999GF100991001001999999001001MD1210101+9999REMSYN054AAXX  01001 54936 32962 02001 10003 21033 40302 52010;EQDQ01  00002PRCP99
0152549360999992000030106004+35550+118750FM-12+010999999V0202201N004012200019N0120001N1+01231-00781102681ADDAA199000091GA1001+999999999GF100991001001999999001001MD1710321+9999REMSYN054AAXX  01061 54936 32962 02204 10123 21078 40268 57032;EQDQ01  00002PRCP99
0131549360999992000030109004+35550+118750FM-12+010999999V0201001N083022200019N0220001N1+01211-00431102551ADDGF102991001001999999001021MD1710131+9999REMSYN060AAXX  01091 54936 42972 21083 10121 21043 40255 57013 80002;EQDQ01+008303WOSPD 
0152549360999992000030200004+35550+118750FM-12+010999999V0209999C000012200019N0100001N1+00011-00141102741ADDAA199000091GA1001+999999999GF100991001001999999001001MD1210101+9999REMSYN054AAXX  02001 54936 32960 00000 10001 21014 40274 52010;EQDQ01  00002PRCP99
0142549360999992000030300004+35550+118750FM-12+010999999V0201601N002019999999N0100001N1+00501+00331102071ADDAA199000091GF108991081001999999021999MD1210061+9999REMSYN060AAXX  03001 54936 32960 81602 10050 20033 40207 52006 8802/;EQDQ01  00002PRCP99
0152549360999992000030306004+35550+118750FM-12+010999999V0201801N003012200019N0100001N1+01241+00431101761ADDAA199000091GA1001+999999999GF100991001001999999001001MD1710301+9999REMSYN054AAXX  03061 54936 32960 01803 10124 20043 40176 57030;EQDQ01  00002PRCP99
0152549360999992000030506004+35550+118750FM-12+010999999V0202201N005012200019N0150001N1+01091-00661101701ADDAA199000091GA1001+999999999GF100991001001999999001001MD1810381+9999REMSYN054AAXX  05061 54936 32965 02205 10109 21066 40170 58038;EQDQ01  00002PRCP99
0142549360999992000030600004+35550+118750FM-12+010999999V0203601N005010120019N0100001N1+00591-00311101991ADDAA199000091GF107991071051012501999999MD1210331+9999REMSYN060AAXX  06001 54936 32660 73605 10059 21031 40199 52033 875//;EQDQ01  00002PRCP99
0142549360999992000030606004+35550+118750FM-12+010999999V0203601N007012200019N0170001N1+00911-01351102151ADDAA199000091GF101991001001999999001021MD1710051+9999REMSYN060AAXX  06061 54936 32967 13607 10091 21135 40215 57005 80002;EQDQ01  00002PRCP99
0142549360999992000030700004+35550+118750FM-12+010999999V0209999C000019999999N0170001N1-00331-00761102781ADDAA199000091GF106991001001999999001021MD1210101+9999REMSYN060AAXX  07001 54936 32967 60000 11033 21076 40278 52010 80002;EQDQ01  00002PRCP99
0142549360999992000031000004+35550+118750FM-12+010999999V0201801N001019999999N0100001N1+00461+00181102751ADDAA199000091GF107991001001999999001021MD1210071+9999REMSYN060AAXX  10001 54936 32960 71801 10046 20018 40275 52007 80002;EQDQ01  00002PRCP99
0142549360999992000031006004+35550+118750FM-12+010999999V0202001N004019999999N0120001N1+01261-00101102331ADDAA199000091GF107991001001999999001021MD1710311+9999REMSYN060AAXX  10061 54936 32962 72004 10126 21010 40233 57031 80002;EQDQ01  00002PRCP99
0142549360999992000031100004+35550+118750FM-12+010999999V0209999C000019999999N0120001N1+00421+00271102151ADDAA199000091GF107991001001999999001021MD1210011+9999REMSYN060AAXX  11001 54936 32962 70000 10042 20027 40215 52001 80002;EQDQ01  00002PRCP99
0142549360999992000031106004+35550+118750FM-12+010999999V0201801N001012200019N0300001N1+01131+00011101801ADDAA199000091GF104991011011012501001021MD1710291+9999REMSYN060AAXX  11061 54936 32680 41801 10113 20001 40180 57029 81102;EQDQ01  00002PRCP99
0172549360999992000031206004+35550+118750FM-12+010999999V0202901N003012200019N0150001N1+01371-00091101761ADDAA199000091AY141061GA1001+999999999GF100991001001999999001001MD1710171+9999MW1001REMSYN060AAXX  12061 54936 31965 02903 10137 21009 40176 57017 70040;EQDQ01  00002PRCP99
0142549360999992000031306004+35550+118750FM-12+010999999V0202001N005012200019N0100001N1+01241+00321102091ADDAA199000091GF102991021051012501001001MD1710211+9999REMSYN060AAXX  13061 54936 32660 22005 10124 20032 40209 57021 82500;EQDQ01  00002PRCP99
0154549360999992000031400004+35550+118750FM-12+010999999V0209999C000019999999N0030001N1+00481+00311102561ADDAA199000091GF107991001001999999001021MD1210131+9999MW1101REMSYN066AAXX  14001 54936 31930 70000 10048 20031 40256 52013 71000 80002;EQDQ01  00002PRCP99
0142549360999992000031406004+35550+118750FM-12+010999999V0201401N005012200019N0100001N1+01571+00351102171ADDAA199000091GF102991021051999999001001MD1710311+9999REMSYN060AAXX  14061 54936 32960 21405 10157 20035 40217 57031 82500;EQDQ01  00002PRCP99
0122549360999992000031409004+35550+118750FM-12+010999999V0201401N007012200019N0120001N1+01171+00031102111ADDGA1001+999999999GF100991001001999999001001MD1710071+9999REMSYN054AAXX  14091 54936 42962 01407 10117 20003 40211 57007;
0141549360999992000031500004+35550+118750FM-12+010999999V0209999C000010360019N0100001N1+00491+00161101681ADDAA106000791GF108991021071008001021999MD1710071+9999MW1601REMSYN072AAXX  15001 54936 11560 80000 10049 20016 40168 57007 69901 76000 8272/;
0157549360999992000031506004+35550+118750FM-12+010999999V0201401N002010360019N0120001N1+00731+00551101371ADDAA106000891AY161061AY261061GF108991021071012501011999MD1710231+9999MW1601REMSYN072AAXX  15061 54936 11662 81402 10073 20055 40137 57023 69971 76066 8271/;
0132549360999992000031509004+35550+118750FM-12+010999999V0203601N004010120019N0100001N1+00911+00581101301ADDAY161031GF108991081051012501999999MD1710071+9999MW1001REMSYN066AAXX  15091 54936 41660 83604 10091 20058 40130 57007 70060 885//;
0171549360999992000031521004+35550+118750FM-12+010999999V0209999C000012200019N0003001N1-00211-00211101731ADDAA124000891AY141031AY241031GA1001+999999999GF100991001001999999001001MD1210061+9999MW1441REMSYN070AAXX  15211 54936 41903 00000 11021 21021 40173 52006 74444 333 70007;
0172549360999992000031600004+35550+118750FM-12+010999999V0209999C000012200019N0070001N1+00051+00051101851ADDAA199000091AY141061GA1001+999999999GF100991001001999999001001MD1210221+9999MW1101REMSYN060AAXX  16001 54936 31957 00000 10005 20005 40185 52022 71040;EQDQ01  00002PRCP99
0142549360999992000031606004+35550+118750FM-12+010999999V0203201N004012200019N0200001N1+01531-00901101641ADDAA199000091GF101991011011012501001001MD1710241+9999REMSYN060AAXX  16061 54936 32670 13204 10153 21090 40164 57024 81100;EQDQ01  00002PRCP99
0112549360999992000031609004+35550+118750FM-12+010999999V0202701N003012200019N0200001N1+01551-00841101531ADDGF101991011011012501001001MD1710111+9999REMSYN060AAXX  16091 54936 42670 12703 10155 21084 40153 57011 81100;
0142549360999992000031706004+35550+118750FM-12+010999999V0202501N005012200019N0120001N1+01781+00201101351ADDAA199000091GF103991001001999999001021MD1710261+9999REMSYN060AAXX  17061 54936 32962 32505 10178 20020 40135 57026 80002;EQDQ01  00002PRCP99
0098549360999992000031709004+35550+118750FM-12+010999999V0202701N003019999999N0120001N1+01821-00081101311ADDGF106991999999999999999999REMSYN060AAXX  17091 54936 42962 62703 10182 21008 40131 5700= 80002;
0152549360999992000031800004+35550+118750FM-12+010999999V0202201N002012200019N0120001N1+00891+00231101461ADDAA199000091GA1001+999999999GF100991001001999999001001MD1210021+9999REMSYN054AAXX  18001 54936 32962 02202 10089 20023 40146 52002;EQDQ01  00002PRCP99
0142549360999992000031806004+35550+118750FM-12+010999999V0203201N009019999999N0120001N1+02011-00091101081ADDAA199000091GF106991001001999999001021MD1710311+9999REMSYN060AAXX  18061 54936 32962 63209 10201 21009 40108 57031 80002;EQDQ01  00002PRCP99
0112549360999992000031809004+35550+118750FM-12+010999999V0202201N004019999999N0120001N1+02001+00121101041ADDGF107991001001999999001021MD1710051+9999REMSYN060AAXX  18091 54936 42962 72204 10200 20012 40104 57005 80002;
0119549360999992000031821004+35550+118750FM-12+010999999V0200201N003012200019N0150001N1+00111-00791102361ADDAA106200991GA1001+999999999GF100991001001999999001001REMSYN054AAXX  18211 54936 42965 00203 10011 21079 40236 62011;
0152549360999992000031900004+35550+118750FM-12+010999999V0200201N004012200019N0170001N1+00221-00661999999ADDAA199000091GA1001+999999999GF100991001001999999001001MD1210191+9999REMSYN054AAXX  19001 54936 32967 00204 10022 21066 40/// 52019;EQDQ01  00002PRCP99
0152549360999992000031906004+35550+118750FM-12+010999999V0200401N004012200019N0300001N1+01031-01161102411ADDAA199000091GA1001+999999999GF100991001001999999001001MD1710191+9999REMSYN054AAXX  19061 54936 32980 00404 10103 21116 40241 57019;EQDQ01  00002PRCP99
0100549360999992000031921004+35550+118750FM-12+010999999V0209999C000012200019N0150001N1-00261+99999102281ADDGF101991999999999999999999MD1710101+9999REMSYN048AAXX  19211 54936 42965 10000 11026 40228 57010;
0152549360999992000032000004+35550+118750FM-12+010999999V0209999C000012200019N0160001N1+00191-00321102331ADDAA199000091GA1001+999999999GF100991001001999999001001MD1210041+9999REMSYN054AAXX  20001 54936 32966 00000 10019 21032 40233 52004;EQDQ01  00002PRCP99
0142549360999992000032006004+35550+118750FM-12+010999999V0201601N005012200019N0250001N1+01301-00811101821ADDAA199000091GF103991001001999999001021MD1710351+9999REMSYN060AAXX  20061 54936 32975 31605 10130 21081 40182 57035 80002;EQDQ01  00002PRCP99
0112549360999992000032009004+35550+118750FM-12+010999999V0201401N005019999999N0250001N1+01061-00771999999ADDGF106991061001999999031001MD1710071+9999REMSYN060AAXX  20091 54936 42975 61405 10106 21077 4/176 57007 86030;
0142549360999992000032100004+35550+118750FM-12+010999999V0209999C000019999999N0120001N1+00651+00291101901ADDAA199000091GF107991001001999999001021MD1210081+9999REMSYN060AAXX  21001 54936 32962 70000 10065 20029 40190 52008 80002;EQDQ01  00002PRCP99
0142549360999992000032106004+35550+118750FM-12+010999999V0200701N005012200019N0120001N1+01411+00011101871ADDAA199000091GF103991001001999999001021MD1810161+9999REMSYN060AAXX  21061 54936 32962 30705 10141 20001 40187 58016 80002;EQDQ01  00002PRCP99
0112549360999992000032109004+35550+118750FM-12+010999999V0201101N005019999999N0150001N1+01321-00141101931ADDGF106991001001999999001021MD1210061+9999REMSYN060AAXX  21091 54936 42965 61105 10132 21014 40193 52006 80002;
0152549360999992000032206004+35550+118750FM-12+010999999V0202001N003012200019N0120001N1+01471+00141102021ADDAA199000091GA1001+999999999GF100991001001999999001001MD1710321+9999REMSYN054AAXX  22061 54936 32962 02003 10147 20014 40202 57032;EQDQ01  00002PRCP99
0112549360999992000032209004+35550+118750FM-12+010999999V0202201N004012200019N0120001N1+01441+00221101901ADDGF102991001001999999001021MD1710131+9999REMSYN060AAXX  22091 54936 42962 22204 10144 20022 40190 57013 80002;
0145549360999992000032221004+35550+118750FM-12+010999999V0203601N001019999999N0100001N1+00851+00311102111ADDAA124000791GF107991071999999999031999MD1710061+9999MW1041REMSYN076AAXX  22211 54936 41960 73601 10085 20031 40211 57006 7040/ 87/3/ 333 79999;
0149549360999992000032300004+35550+118750FM-12+010999999V0203401N003019999999N0100001N1+00931+00071102201ADDAA106000791AY161061GF107991001001999999001021MD1210091+9999MW1001REMSYN072AAXX  23001 54936 11960 73403 10093 20007 40220 52009 69901 70060 80002;
0142549360999992000032306004+35550+118750FM-12+010999999V0203401N002019999999N0100001N1+01251-01521101981ADDAA199000091GF107991001001999999001021MD1710261+9999REMSYN060AAXX  23061 54936 32960 73402 10125 21152 40198 57026 80002;EQDQ01  00002PRCP99
0122549360999992000032309004+35550+118750FM-12+010999999V0202901N007012200019N0120001N1+01301-02181101941ADDGA1001+999999999GF100991001001999999001001MD1710051+9999REMSYN054AAXX  23091 54936 42962 02907 10130 21218 40194 57005;
0170549360999992000032400004+35550+118750FM-12+010999999V0203601N001012200019N0120001N1+00591-00601102411ADDAA199000091GA1001+999999999GF100991001001999999001001REMSYN054AAXX  24001 54936 32962 03601 10059 21060 40241 5200/;EQDQ01+000022APCTENQ02+000002APC3  Q03  00002PRCP99
0152549360999992000032406004+35550+118750FM-12+010999999V0202001N004012200019N0200001N1+01351-01341102281ADDAA199000091GA1001+999999999GF100991001001999999001001MD1710281+9999REMSYN054AAXX  24061 54936 32970 02004 10135 21134 40228 57028;EQDQ01  00002PRCP99
0122549360999992000032409004+35550+118750FM-12+010999999V0202701N004012200019N0150001N1+01461-01261102111ADDGA1001+999999999GF100991001001999999001001MD1710171+9999REMSYN054AAXX  24091 54936 42965 02704 10146 21126 40211 57017;
0142549360999992000032500004+35550+118750FM-12+010999999V0202001N002019999999N0100001N1+00611-00051102371ADDAA199000091GF107991001001999999001021MD1210061+9999REMSYN060AAXX  25001 54936 32960 72002 10061 21005 40237 52006 80002;EQDQ01  00002PRCP99
0142549360999992000032506004+35550+118750FM-12+010999999V0202501N006019999999N0100001N1+01841-00431101981ADDAA199000091GF106991001001999999001021MD1810321+9999REMSYN060AAXX  25061 54936 32960 62506 10184 21043 40198 58032 80002;EQDQ01  00002PRCP99
0112549360999992000032509004+35550+118750FM-12+010999999V0202701N004019999999N0100001N1+01851-00901101861ADDGF105991001001999999001021MD1710131+9999REMSYN060AAXX  25091 54936 42960 52704 10185 21090 40186 57013 80002;
0152549360999992000032606004+35550+118750FM-12+010999999V0202201N007012200019N0120001N1+02071-00771101451ADDAA199000091GA1001+999999999GF100991001001999999001001MD1710311+9999REMSYN054AAXX  26061 54936 32962 02207 10207 21077 40145 57031;EQDQ01  00002PRCP99
0122549360999992000032609004+35550+118750FM-12+010999999V0202201N005012200019N0120001N1+02051-00951101171ADDGA1001+999999999GF100991001001999999001001MD1710281+9999REMSYN054AAXX  26091 54936 42962 02205 10205 21095 40117 57028;
0122549360999992000032621004+35550+118750FM-12+010999999V0202001N006012200019N0120001N1+01101+00161100591ADDGA1001+999999999GF100991001001999999001001MD1710291+9999REMSYN054AAXX  26211 54936 42962 02006 10110 20016 40059 57029;
0142549360999992000032700004+35550+118750FM-12+010999999V0202201N005019999999N0120001N1+01151+00401100431ADDAA199000091GF107991001001999999001021MD1710171+9999REMSYN060AAXX  27001 54936 32962 72205 10115 20040 40043 57017 80002;EQDQ01  00002PRCP99
0142549360999992000032706004+35550+118750FM-12+010999999V0202501N006012200019N0150001N1+02021+00141099971ADDAA199000091GF104991001001999999001021MD1710231+9999REMSYN060AAXX  27061 54936 32965 42506 10202 20014 49997 57023 80002;EQDQ01  00002PRCP99
0112549360999992000032709004+35550+118750FM-12+010999999V0202901N008019999999N0100001N1+02071-00841099961ADDGF106991001001999999001021MD1710011+9999REMSYN060AAXX  27091 54936 42960 62908 10207 21084 49996 57001 80002;
0142549360999992000032806004+35550+118750FM-12+010999999V0202901N007012200019N0200001N1+01431-01191101491ADDAA199000091GF102991021051012501001001MD1410001+9999REMSYN060AAXX  28061 54936 32670 22907 10143 21119 40149 54000 82500;EQDQ01  00002PRCP99
0112549360999992000032809004+35550+118750FM-12+010999999V0203201N005012200019N0200001N1+01371-01411101671ADDGF101991011011008001001001MD1210171+9999REMSYN060AAXX  28091 54936 42570 13205 10137 21141 40167 52017 81100;
0152549360999992000032906004+35550+118750FM-12+010999999V0202701N004012200019N0200001N1+01711-00761101981ADDAA199000091GA1001+999999999GF100991001001999999001001MD1710351+9999REMSYN054AAXX  29061 54936 32970 02704 10171 21076 40198 57035;EQDQ01  00002PRCP99
0122549360999992000032909004+35550+118750FM-12+010999999V0202501N003012200019N0200001N1+01781-00631101721ADDGA1001+999999999GF100991001001999999001001MD1710261+9999REMSYN054AAXX  29091 54936 42970 02503 10178 21063 40172 57026;
0122549360999992000032921004+35550+118750FM-12+010999999V0209999C000012200019N0150001N1+00551-00261101341ADDGA1001+999999999GF100991001001999999001001MD1710161+9999REMSYN054AAXX  29211 54936 42965 00000 10055 21026 40134 57016;
0152549360999992000033006004+35550+118750FM-12+010999999V0201801N005012200019N0150001N1+02081+00061100721ADDAA199000091GA1001+999999999GF100991001001999999001001MD1710391+9999REMSYN054AAXX  30061 54936 32965 01805 10208 20006 40072 57039;EQDQ01  00002PRCP99
0122549360999992000033009004+35550+118750FM-12+010999999V0201601N004012200019N0120001N1+01971+00341100501ADDGA1001+999999999GF100991001001999999001001MD1710231+9999REMSYN054AAXX  30091 54936 42962 01604 10197 20034 40050 57023;
0152549360999992000033100004+35550+118750FM-12+010999999V0203401N002012200019N0100001N1+00961+00621101151ADDAA199000091GA1001+999999999GF100991001001999999001001MD1210371+9999REMSYN054AAXX  31001 54936 32960 03402 10096 20062 40115 52037;EQDQ01  00002PRCP99
0142549360999992000033106004+35550+118750FM-12+010999999V0200401N003012200019N0120001N1+01921+00371101361ADDAA199000091GF103991001001999999001021MD1210011+9999REMSYN060AAXX  31061 54936 32962 30403 10192 20037 40136 52001 80002;EQDQ01  00002PRCP99
0112549360999992000033109004+35550+118750FM-12+010999999V0201101N005012200019N0120001N1+01691+00331101481ADDGF102991001001999999001021MD1210111+9999REMSYN060AAXX  31091 54936 42962 21105 10169 20033 40148 52011 80002;
0112549360999992000040103004+35550+118750FM-12+010999999V0200701N002019999999N0120001N1+00391-00381102021ADDGF107991001001999999001021MD1710021+9999REMSYN060AAXX  01031 54936 42962 70702 10039 21038 40202 57002 80002;
0112549360999992000040109004+35550+118750FM-12+010999999V0201101N004019999999N0300001N1+01251-00761101761ADDGF108991081001999999071999MD1710141+9999REMSYN060AAXX  01091 54936 42980 81104 10125 21076 40176 57014 8807/;
0149549360999992000040206004+35550+118750FM-12+010999999V0201101N007019999999N0300001N1+01411-00421101981ADDAA106000191AY161061GF107991001001999999001021MD1710111+9999MW1001REMSYN072AAXX  02061 54936 11980 71107 10141 21042 40198 57011 69911 70060 80002;
0112549360999992000040209004+35550+118750FM-12+010999999V0201101N004019999999N0300001N1+01381-00231102051ADDGF107991001001999999001021MD1210061+9999REMSYN060AAXX  02091 54936 42980 71104 10138 21023 40205 52006 80002;
0142549360999992000040300004+35550+118750FM-12+010999999V0209999C000019999999N0150001N1+00631-00021102191ADDAA199000091GF105991001001999999001021MD1210091+9999REMSYN060AAXX  03001 54936 32965 50000 10063 21002 40219 52009 80002;EQDQ01  00002PRCP99
0142549360999992000040306004+35550+118750FM-12+010999999V0201401N003019999999N0200001N1+01851+00521101771ADDAA199000091GF106991001001999999001021MD1710321+9999REMSYN060AAXX  03061 54936 32970 61403 10185 20052 40177 57032 80002;EQDQ01  00002PRCP99
0112549360999992000040309004+35550+118750FM-12+010999999V0201801N004019999999N0170001N1+01631+00831101601ADDGF106991001001999999001021MD1710181+9999REMSYN060AAXX  03091 54936 42967 61804 10163 20083 40160 57018 80002;
0100549360999992000040321004+35550+118750FM-12+010999999V0209999C000019999999N9999999N1+00981+99999999999ADDGF107991001001999999001021MD1710121+9999REMSYN048AAXX  03211 54936 429/5 70000 10098 57012 80002;
0142549360999992000040400004+35550+118750FM-12+010999999V0202201N003019999999N0100001N1+01081+00921101491ADDAA199000091GF107991001001999999001021MD1210031+9999REMSYN060AAXX  04001 54936 32960 72203 10108 20092 40149 52003 80002;EQDQ01  00002PRCP99
0142549360999992000040406004+35550+118750FM-12+010999999V0202001N002012200019N0120001N1+01901+01101101341ADDAA199000091GF102991021051008001001001MD1710181+9999REMSYN060AAXX  04061 54936 32562 22002 10190 20110 40134 57018 82500;EQDQ01  00002PRCP99
0124549360999992000040409004+35550+118750FM-12+010999999V0203601N007010075019N0120001N1+01701+00781101381ADDGF107991071041008001001001MD1210031+9999MW1251REMSYN066AAXX  04091 54936 41562 73607 10170 20078 40138 52003 72500 87400;
0152549360999992000040500004+35550+118750FM-12+010999999V0203401N005012200019N0170001N1+00761-00461102351ADDAA199000091GA1001+999999999GF100991001001999999001001MD1210161+9999REMSYN054AAXX  05001 54936 32967 03405 10076 21046 40235 52016;EQDQ01  00002PRCP99
0122549360999992000040509004+35550+118750FM-12+010999999V0200201N002012200019N0300001N1+01391-01271102011ADDGA1001+999999999GF100991001001999999001001MD1710141+9999REMSYN054AAXX  05091 54936 42980 00202 10139 21127 40201 57014;
