0177563120999992000010100004+29570+094470FM-12+300199999V0203201N002012200019N0300001N1-00641-01121999999ADDAA106000091GA1001+999999999GF100991001001999999001001MA1999999071241MD1210101+0021REMSYN064AAXX  01001 56312 32980 03202 11064 21112 37124 52010 333 00251;EQDQ01  00002PRCP06
0147563120999992000010103004+29570+094470FM-12+300199999V0200701N001012200019N0300001N1-00181-01011999999ADDGA1001+999999999GF100991001001999999001001MA1999999071411MD1210171+0021REMSYN064AAXX  01031 56312 42980 00701 11018 21101 37141 52017 333 00251;
0186563120999992000010106004+29570+094470FM-12+300199999V0209999C000012200019N0300001N1+00521-00411999999ADDAA106000091GF101991011011012501001001KA1999N-00691MA1999999071091MD1710321+0201REMSYN076AAXX  01061 56312 32680 10000 10052 21041 37109 57032 81100 333 00200 21069;EQDQ01  00002PRCP06
0137563120999992000010109004+29570+094470FM-12+300199999V0201801N002012200019N0300001N1+00891-00871999999ADDGF102991021011012501001021MA1999999070801MD1710291+0021REMSYN070AAXX  01091 56312 42680 21802 10089 21087 37080 57029 82102 333 00251;
0167563120999992000010112004+29570+094470FM-12+300199999V0209999C000010900019N0300001N1+00151-00971999999ADDAA106000091GF106991021041012501001021MA1999999070981MD1210161+0021REMSYN070AAXX  01121 56312 32680 60000 10015 21097 37098 52016 82402 333 00201;EQDQ01  00002PRCP06
0115563120999992000010115004+29570+094470FM-12+300199999V0201001N009012200019N0300001N1+99999+99999999999ADDGF101991999999999999999999MA1999999071181MD1210221+9999REMSYN048AAXX  01151 56312 42980 11009 21098 37118 52022;
0196563120999992000010118004+29570+094470FM-12+300199999V0203401N003012200019N0300001N1-00291-00831999999ADDAA106000091GA1001+999999999GF100991001001999999001001KA1999M+01031MA1999999071261MD1210081+0101REMSYN070AAXX  01181 56312 32980 03403 11029 21083 37126 52008 333 00101 10103;EQDQ01  00002PRCP06
0147563120999992000010203004+29570+094470FM-12+300199999V0203601N003012200019N0300001N1-00101-00821999999ADDGA1001+999999999GF100991001001999999001001MA1999999071471MD1210141+0011REMSYN064AAXX  02031 56312 42980 03603 11010 21082 37147 52014 333 00101;
0186563120999992000010206004+29570+094470FM-12+300199999V0201801N003012200019N0300001N1+00741-01201999999ADDAA106000091GF101991011011012501001001KA1999N-00711MA1999999071101MD1710371+0001REMSYN076AAXX  02061 56312 32680 11803 10074 21120 37110 57037 81100 333 00002 21071;EQDQ01  00002PRCP06
0137563120999992000010209004+29570+094470FM-12+300199999V0202201N004012200019N0300001N1+01091-01351999999ADDGF101991011011012501001001MA1999999070791MD1710311+0001REMSYN070AAXX  02091 56312 42680 12204 10109 21135 37079 57031 81100 333 00002;
0177563120999992000010212004+29570+094470FM-12+300199999V0209999C000012200019N0300001N1+00211-00921999999ADDAA106000091GA1001+999999999GF100991001001999999001001MA1999999070901MD1210111+0011REMSYN064AAXX  02121 56312 32980 00000 10021 21092 37090 52011 333 05101;EQDQ01  00002PRCP06
0137563120999992000010215004+29570+094470FM-12+300199999V0200201N001012200019N0300001N1-00191-00941999999ADDGA1001+999999999GF100991001001999999001001MA1999999071071MD1210171+9999REMSYN054AAXX  02151 56312 42980 00201 11019 21094 37107 52017;
0196563120999992000010218004+29570+094470FM-12+300199999V0203401N003012200019N0300001N1-00271-00981999999ADDAA106000091GA1001+999999999GF100991001001999999001001KA1999M+01161MA1999999071121MD1210051-0101REMSYN070AAXX  02181 56312 32980 03403 11027 21098 37112 52005 333 05100 10116;EQDQ01  00002PRCP06
0177563120999992000010300004+29570+094470FM-12+300199999V0202701N002012200019N0300001N1-00591-01211999999ADDAA106000091GA1001+999999999GF100991001001999999001001MA1999999071131MD1210021+0021REMSYN064AAXX  03001 56312 32980 02702 11059 21121 37113 52002 333 05251;EQDQ01  00002PRCP06
0147563120999992000010303004+29570+094470FM-12+300199999V0203201N001012200019N0300001N1-00151-00881999999ADDGA1001+999999999GF100991001001999999001001MA1999999071231MD1210101+0021REMSYN064AAXX  03031 56312 42980 03201 11015 21088 37123 52010 333 05251;
0196563120999992000010306004+29570+094470FM-12+300199999V0201801N003012200019N0300001N1+00651-01151999999ADDAA106000091GA1001+999999999GF100991001001999999001001KA1999N-00641MA1999999070861MD1710371-0201REMSYN070AAXX  03061 56312 32980 01803 10065 21115 37086 57037 333 05251 21064;EQDQ01  00002PRCP06
0137563120999992000010309004+29570+094470FM-12+300199999V0201801N004012200019N0300001N1+00991-01111999999ADDGF101991011041012501001001MA1999999070501MD1710361+0031REMSYN070AAXX  03091 56312 42680 11804 10099 21111 37050 57036 81400 333 05351;
0167563120999992000010312004+29570+094470FM-12+300199999V0201801N003012200019N0300001N1+00341-00851999999ADDAA106000091GF101991011011012501001001MA1999999070621MD1210121+0031REMSYN070AAXX  03121 56312 32680 11803 10034 21085 37062 52012 81100 333 05301;EQDQ01  00002PRCP06
0196563120999992000010318004+29570+094470FM-12+300199999V0209999C000012200019N0300001N1-00321-00901999999ADDAA106000091GA1001+999999999GF100991001001999999001001KA1999M+01051MA1999999070971MD1210081-0201REMSYN070AAXX  03181 56312 32980 00000 11032 21090 37097 52008 333 05251 10105;EQDQ01  00002PRCP06
0147563120999992000010321004+29570+094470FM-12+300199999V0209999C000012200019N0300001N1-00601-00871999999ADDGA1001+999999999GF100991001001999999001001MA1999999071001MD1210031+0011REMSYN064AAXX  03211 56312 42980 00000 11060 21087 37100 52003 333 05152;
0177563120999992000010400004+29570+094470FM-12+300199999V0209999C000012200019N0300001N1-00601-00811999999ADDAA106000091GA1001+999999999GF100991001001999999001001MA1999999071091MD1210091+0001REMSYN064AAXX  04001 56312 32980 00000 11060 21081 37109 52009 333 00000;EQDQ01  00002PRCP06
0147563120999992000010403004+29570+094470FM-12+300199999V0200401N002012200019N0300001N1-00171-00761999999ADDGA1001+999999999GF100991001001999999001001MA1999999071251MD1210161+0001REMSYN064AAXX  04031 56312 42980 00402 11017 21076 37125 52016 333 00000;
0186563120999992000010406004+29570+094470FM-12+300199999V0201801N003012200019N0300001N1+00641-01121999999ADDAA106000091GF101991011011012501001001KA1999N-00671MA1999999070911MD1710341+0101REMSYN076AAXX  04061 56312 32680 11803 10064 21112 37091 57034 81100 333 00100 21067;EQDQ01  00002PRCP06
0137563120999992000010409004+29570+094470FM-12+300199999V0202001N004012200019N0300001N1+01091-00931999999ADDGF101991011011012501001001MA1999999070591MD1710321+0011REMSYN070AAXX  04091 56312 42680 12004 10109 21093 37059 57032 81100 333 00101;
0167563120999992000010412004+29570+094470FM-12+300199999V0200901N001012200019N0300001N1+00231-00881999999ADDAA106000091GF101991011041017501001001MA1999999070721MD1210131+0011REMSYN070AAXX  04121 56312 32780 10901 10023 21088 37072 52013 81400 333 00151;EQDQ01  00002PRCP06
0137563120999992000010415004+29570+094470FM-12+300199999V0209999C000012200019N0300001N1-00131-00971999999ADDGA1001+999999999GF100991001001999999001001MA1999999070951MD1210231+9999REMSYN054AAXX  04151 56312 42980 00000 11013 21097 37095 52023;
0196563120999992000010418004+29570+094470FM-12+300199999V0203201N002012200019N0300001N1-00291-01021999999ADDAA106000091GA1001+999999999GF100991001001999999001001KA1999M+01111MA1999999071061MD1210111+0101REMSYN070AAXX  04181 56312 32980 03202 11029 21102 37106 52011 333 00100 10111;EQDQ01  00002PRCP06
0147563120999992000010421004+29570+094470FM-12+300199999V0202901N002012200019N0300001N1-00431-01151999999ADDGA1001+999999999GF100991001001999999001001MA1999999071041MD1710021+0001REMSYN064AAXX  04211 56312 42980 02902 11043 21115 37104 57002 333 00002;
0177563120999992000010500004+29570+094470FM-12+300199999V0203201N002012200019N0300001N1-00621-01171999999ADDAA106000091GA1001+999999999GF100991001001999999001001MA1999999071101MD1210061+0001REMSYN064AAXX  05001 56312 32980 03202 11062 21117 37110 52006 333 00000;EQDQ01  00002PRCP06
0147563120999992000010503004+29570+094470FM-12+300199999V0200201N003012200019N0300001N1-00201-01471999999ADDGA1001+999999999GF100991001001999999001001MA1999999071221MD1210121+0001REMSYN064AAXX  05031 56312 42980 00203 11020 21147 37122 52012 333 00000;
0196563120999992000010506004+29570+094470FM-12+300199999V0201401N002012200019N0300001N1+00641-01171999999ADDAA106000091GA1001+999999999GF100991001001999999001001KA1999N-00671MA1999999070891MD1710331+0001REMSYN070AAXX  05061 56312 32980 01402 10064 21117 37089 57033 333 00000 21067;EQDQ01  00002PRCP06
0137563120999992000010509004+29570+094470FM-12+300199999V0201801N004012200019N0300001N1+01021-00991999999ADDGF101991001001999999001021MA1999999070531MD1710361+0011REMSYN070AAXX  05091 56312 42980 11804 10102 21099 37053 57036 80002 333 05151;
0167563120999992000010512004+29570+094470FM-12+300199999V0209999C000019999999N0300001N1+00281-00761999999ADDAA106000091GF107991001001999999001021MA1999999070611MD1210081+0011REMSYN070AAXX  05121 56312 32980 70000 10028 21076 37061 52008 80002 333 05101;EQDQ01  00002PRCP06
0137563120999992000010515004+29570+094470FM-12+300199999V0209999C000012200019N0300001N1+00131-00641999999ADDGA1001+999999999GF100991001001999999001001MA1999999070851MD1210241+9999REMSYN054AAXX  05151 56312 42980 00000 10013 21064 37085 52024;
0196563120999992000010518004+29570+094470FM-12+300199999V0209999C000012200019N0300001N1-00231-00811999999ADDAA106000091GA1001+999999999GF100991001001999999001001KA1999M+01051MA1999999070941MD1210091-0101REMSYN070AAXX  05181 56312 32980 00000 11023 21081 37094 52009 333 05101 10105;EQDQ01  00002PRCP06
0147563120999992000010521004+29570+094470FM-12+300199999V0209999C000012200019N0300001N1-00491-00771999999ADDGA1001+999999999GF100991001001999999001001MA1999999070871MD1710071+0021REMSYN064AAXX  05211 56312 42980 00000 11049 21077 37087 57007 333 05251;
0137563120999992000010603004+29570+094470FM-12+300199999V0209999C000012200019N0300001N1-00181-00781999999ADDGF101991011011012501001001MA1999999071081MD1210171+0011REMSYN070AAXX  06031 56312 42680 10000 11018 21078 37108 52017 81100 333 05100;
0186563120999992000010606004+29570+094470FM-12+300199999V0201401N004012200019N0300001N1+00621-00891999999ADDAA106000091GF101991011011012501001001KA1999N-00761MA1999999070711MD1710371-0201REMSYN076AAXX  06061 56312 32680 11404 10062 21089 37071 57037 81100 333 05200 21076;EQDQ01  00002PRCP06
0137563120999992000010609004+29570+094470FM-12+300199999V0201101N008012200019N0300001N1+01011-01111999999ADDGF102991021011012501001001MA1999999070351MD1710361+0021REMSYN070AAXX  06091 56312 42680 21108 10101 21111 37035 57036 82100 333 05200;
0167563120999992000010612004+29570+094470FM-12+300199999V0201101N003010150019N0300001N1+00531-01021999999ADDAA106000091GF107991071041017501999999MA1999999070791MD1210441+0021REMSYN070AAXX  06121 56312 32780 71103 10053 21102 37079 52044 874// 333 00203;EQDQ01  00002PRCP06
0127563120999992000010615004+29570+094470FM-12+300199999V0201101N002010150019N0300001N1+00361-00941999999ADDGF108991081041017501999999MA1999999070721MD1710071+9999REMSYN060AAXX  06151 56312 42780 81102 10036 21094 37072 57007 884//;
0186563120999992000010618004+29570+094470FM-12+300199999V0200901N005010150019N0300001N1+00291-01211999999ADDAA106000091GF108991081041017501999999KA1999M+01051MA1999999070741MD1210021-0201REMSYN076AAXX  06181 56312 32780 80905 10029 21121 37074 52002 884// 333 05205 10105;EQDQ01  00002PRCP06
0137563120999992000010621004+29570+094470FM-12+300199999V0200901N004010120019N0300001N1+00141-01031999999ADDGF108991081041012501999999MA1999999070741MD1410001+0011REMSYN070AAXX  06211 56312 42680 80904 10014 21103 37074 54000 884// 333 05106;
0185563120999992000010700004+29570+094470FM-12+300199999V0209999C000010120019N0300001N1-00101-01001999999ADDAA106000091GF108991081041012501999999IA2999-00209MA1999999070821MD1210081-0101REMSYN076AAXX  07001 56312 32680 80000 11010 21100 37082 52008 884// 333 05106 31022;EQDQ01  00002PRCP06
0137563120999992000010703004+29570+094470FM-12+300199999V0201401N002012200019N0300001N1+00291-00831999999ADDGF103991021011012501001021MA1999999070991MD1210171+0011REMSYN070AAXX  07031 56312 42680 31402 10029 21083 37099 52017 82102 333 05105;
0186563120999992000010706004+29570+094470FM-12+300199999V0201801N004010120019N0300001N1+00461-00771999999ADDAA106000091GF107991071041012501001001KA1999N-00191MA1999999070751MD1710241+0001REMSYN076AAXX  07061 56312 32680 71804 10046 21077 37075 57024 87400 333 00052 21019;EQDQ01  00002PRCP06
0137563120999992000010709004+29570+094470FM-12+300199999V0201401N006010900019N0300001N1+00841-00711999999ADDGF106991021011012501001021MA1999999070451MD1710301+0011REMSYN070AAXX  07091 56312 42680 61406 10084 21071 37045 57030 82102 333 00152;
0167563120999992000010712004+29570+094470FM-12+300199999V0201101N003010900019N0300001N1+00441-01101999999ADDAA106000091GF107991021041012501001021MA1999999070611MD1210161+0011REMSYN070AAXX  07121 56312 32680 71103 10044 21110 37061 52016 82402 333 00151;EQDQ01  00002PRCP06
0127563120999992000010715004+29570+094470FM-12+300199999V0209999C000012200019N0300001N1+99999+99999999999ADDGF101991011041012501001001MA1999999070871MD1210261+9999REMSYN060AAXX  07151 56312 42680 10000 10007 21803 37087 52026 81400;
0186563120999992000010718004+29570+094470FM-12+300199999V0209999C000012200019N0300001N1-00021-00771999999ADDAA106000091GF102991021041012501001001KA1999M+00861MA1999999070911MD1210041+0201REMSYN076AAXX  07181 56312 32680 20000 11002 21077 37091 52004 82400 333 00254 10086;EQDQ01  00002PRCP06
0137563120999992000010721004+29570+094470FM-12+300199999V0209999C000012200019N0300001N1-00441-01811999999ADDGF101991011041017501001001MA1999999070891MD1710021+0021REMSYN070AAXX  07211 56312 42780 10000 11044 21181 37089 57002 81400 333 00256;
0177563120999992000010800004+29570+094470FM-12+300199999V0209999C000012200019N0300001N1-00701-00941999999ADDAA106000091GA1001+999999999GF100991001001999999001001MA1999999070901MD1210011+0011REMSYN064AAXX  08001 56312 32980 00000 11070 21094 37090 52001 333 00156;EQDQ01  00002PRCP06
0137563120999992000010803004+29570+094470FM-12+300199999V0209999C000012200019N0300001N1-00041-00901999999ADDGF101991011011012501001021MA1999999071101MD1210201+0011REMSYN070AAXX  08031 56312 42680 10000 11004 21090 37110 52020 81102 333 00153;
0160563120999992000010806004+29570+094470FM-12+300199999V0201401N002012200019N0300001N1+00481-00471999999ADDGF102991011011012501001021KA1999N-00791MD1710351+0001REMSYN076AAXX  08061 56312 42680 21402 10048 21047 36075 57035 81102 333 00000 21079;EQDQ01+060753APOSP 
0137563120999992000010809004+29570+094470FM-12+300199999V0201401N003010900019N0300001N1+00781-01191999999ADDGF107991011011012501001021MA1999999070421MD1710331+0001REMSYN070AAXX  08091 56312 42680 71403 10078 21119 37042 57033 81102 333 00051;
0167563120999992000010812004+29570+094470FM-12+300199999V0200901N005012200019N0300001N1+00431-01261999999ADDAA106000091GF102991011041017501001021MA1999999070491MD1210071+0011REMSYN070AAXX  08121 56312 32780 20905 10043 21126 37049 52007 81402 333 05100;EQDQ01  00002PRCP06
0127563120999992000010815004+29570+094470FM-12+300199999V0201401N004010900019N0300001N1+00191-01031999999ADDGF106991021041012501001021MA1999999070651MD1210161+9999REMSYN060AAXX  08151 56312 42680 61404 10019 21103 37065 52016 82402;
0186563120999992000010818004+29570+094470FM-12+300199999V0201801N004010120019N0300001N1+00131-00921999999ADDAA106000091GF107991071041012501999999KA1999M+00941MA1999999070721MD1210071-0201REMSYN076AAXX  08181 56312 32680 71804 10013 21092 37072 52007 874// 333 05202 10094;EQDQ01  00002PRCP06
0137563120999992000010821004+29570+094470FM-12+300199999V0201801N003010120019N0300001N1-00121-01071999999ADDGF106991061041012501001001MA1999999070731MD1210011+0021REMSYN070AAXX  08211 56312 42680 61803 11012 21107 37073 52001 86400 333 05203;
0167563120999992000010900004+29570+094470FM-12+300199999V0209999C000010120019N0300001N1-00351-01941999999ADDAA106000091GF106991061041012501001001MA1999999070661MD1710071+0021REMSYN070AAXX  09001 56312 32680 60000 11035 21194 37066 57007 86400 333 05204;EQDQ01  00002PRCP06
0137563120999992000010903004+29570+094470FM-12+300199999V0201401N002010120019N0300001N1-00041-01021999999ADDGF107991071041012501999999MA1999999070811MD1210151+0031REMSYN070AAXX  09031 56312 42680 71402 11004 21102 37081 52015 874// 333 05300;
0137563120999992000010909004+29570+094470FM-12+300199999V0200901N006010900019N0300001N1+00521-01301999999ADDGF107991031041012501001021MA1999999070391MD1710221+0001REMSYN070AAXX  09091 56312 42680 70906 10052 21130 37039 57022 83402 333 00053;
0167563120999992000010912004+29570+094470FM-12+300199999V0201101N007010900019N0300001N1+00251-01141999999ADDAA106000091GF106991041041012501001021MA1999999070481MD1210091+0001REMSYN070AAXX  09121 56312 32680 61107 10025 21114 37048 52009 84402 333 00052;EQDQ01  00002PRCP06
0127563120999992000010915004+29570+094470FM-12+300199999V0202101N004012200019N0300001N1+00111-01011999999ADDGF102991021041012501001001MA1999999070631MD1210151+9999REMSYN060AAXX  09151 56312 42680 22104 10011 21101 37063 52015 82400;
0186563120999992000010918004+29570+094470FM-12+300199999V0201801N002010120019N0300001N1-00011-01071999999ADDAA106000091GF107991071041012501999999KA1999M+00601MA1999999070631MD1410001-0101REMSYN076AAXX  09181 56312 32680 71802 11001 21107 37063 54000 874// 333 05151 10060;EQDQ01  00002PRCP06
0137563120999992000010921004+29570+094470FM-12+300199999V0209999C000019999999N0300001N1-00191-01061999999ADDGF105991001001999999001021MA1999999070541MD1710091+0021REMSYN070AAXX  09211 56312 42980 50000 11019 21106 37054 57009 80002 333 05251;
0167563120999992000011000004+29570+094470FM-12+300199999V0209999C000019999999N0300001N1-00401-00941999999ADDAA106000091GF105991011041999999001021MA1999999070561MD1210021+0011REMSYN070AAXX  10001 56312 32980 50000 11040 21094 37056 52002 81402 333 05151;EQDQ01  00002PRCP06
0137563120999992000011003004+29570+094470FM-12+300199999V0200901N001010900019N0300001N1+00071-01181999999ADDGF106991041091012501001021MA1999999070751MD1210191+0011REMSYN070AAXX  10031 56312 42680 60901 10007 21118 37075 52019 84902 333 05101;
0186563120999992000011006004+29570+094470FM-12+300199999V0202001N003010900019N0300001N1+00461-01061999999ADDAA106000091GF107991021011012501001021KA1999N-00461MA1999999070481MD1710271-0101REMSYN076AAXX  10061 56312 32680 72003 10046 21106 37048 57027 82102 333 05100 21046;EQDQ01  00002PRCP06
0137563120999992000011009004+29570+094470FM-12+300199999V0200401N002010120019N0300001N1+00741-01131999999ADDGF106991051091012501001021MA1999999070291MD1710191+0011REMSYN070AAXX  10091 56312 42680 60402 10074 21113 37029 57019 85902 333 05102;
0202563120999992000011010004+29570+094470FM-12+300199999V0202801N999990900019N0300001N1+00091-00761999999ADDAA106000091GF107991031041017501001021KA1999M+00811MA1999999070601MD1210031+0001REMSYN076AAXX  10101 56312 32780 77802 10009 21076 37060 52003 83402 333 00011 10081;EQDQ01+010201WOSPD Q02  00002PRCP06
0167563120999992000011012004+29570+094470FM-12+300199999V0201101N006010900019N0300001N1+00321-01051999999ADDAA106000091GF107991021041017501001021MA1999999070391MD1210101+0011REMSYN070AAXX  10121 56312 32780 71106 10032 21105 37039 52010 82402 333 05101;EQDQ01  00002PRCP06
0127563120999992000011015004+29570+094470FM-12+300199999V0202001N003010150019N0300001N1+00191-00901999999ADDGF108991081041017501999999MA1999999070571MD1210181+9999REMSYN060AAXX  10151 56312 42780 82003 10019 21090 37057 52018 884//;
0186563120999992000011018004+29570+094470FM-12+300199999V0201801N002010900019N0300001N1+00091-00761999999ADDAA106000091GF107991031041017501001021KA1999M+00811MA1999999070601MD1210031+0001REMSYN076AAXX  10181 56312 32780 71802 10009 21076 37060 52003 83402 333 00001 10081;EQDQ01  00002PRCP06
0137563120999992000011021004+29570+094470FM-12+300199999V0209999C000010150019N0300001N1+00001-00431999999ADDGF108991081041017501999999MA1999999070651MD1210051+0011REMSYN070AAXX  10211 56312 42780 80000 10000 21043 37065 52005 884// 333 00102;
0167563120999992000011100004+29570+094470FM-12+300199999V0209999C000010075019N0300001N1-00181-00611999999ADDAA106000091GF106991061041008001001001MA1999999070741MD1210091+0021REMSYN070AAXX  11001 56312 32580 60000 11018 21061 37074 52009 86400 333 00202;EQDQ01  00002PRCP06
0137563120999992000011103004+29570+094470FM-12+300199999V0201601N003012200019N0300001N1+00241-00601999999ADDGF102991021041012501001001MA1999999070871MD1210131+0011REMSYN070AAXX  11031 56312 42680 21603 10024 21060 37087 52013 82400 333 00102;
0186563120999992000011106004+29570+094470FM-12+300199999V0201601N003010900019N0300001N1+00651-00791999999ADDAA106000091GF107991021011012501001021KA1999N-00321MA1999999070641MD1710231+0201REMSYN076AAXX  11061 56312 32680 71603 10065 21079 37064 57023 82102 333 00202 21032;EQDQ01  00002PRCP06
0137563120999992000011109004+29570+094470FM-12+300199999V0200901N002010120019N0300001N1+00741-00951999999ADDGF107991071041012501999999MA1999999070411MD1710231+0011REMSYN070AAXX  11091 56312 42680 70902 10074 21095 37041 57023 874// 333 00100;
0167563120999992000011112004+29570+094470FM-12+300199999V0200901N006010120019N0300001N1+00471-00751999999ADDAA106000091GF107991071091012501999999MA1999999070451MD1210041+0011REMSYN070AAXX  11121 56312 32680 70906 10047 21075 37045 52004 879// 333 00102;EQDQ01  00002PRCP06
0127563120999992000011115004+29570+094470FM-12+300199999V0201101N004010120019N0300001N1+00341-00781999999ADDGF107991071091012501999999MA1999999070771MD1210321+9999REMSYN060AAXX  11151 56312 42680 71104 10034 21078 37077 52032 879//;
0186563120999992000011118004+29570+094470FM-12+300199999V0201801N002010120019N0300001N1+00191-00651999999ADDAA106000091GF107991071041012501999999KA1999M+00861MA1999999070751MD1710021+0201REMSYN076AAXX  11181 56312 32680 71802 10019 21065 37075 57002 874// 333 00201 10086;EQDQ01  00002PRCP06
0137563120999992000011121004+29570+094470FM-12+300199999V0201601N003010120019N0300001N1+00031-00581999999ADDGF107991071041012501999999MA1999999070751MD1410001+0011REMSYN070AAXX  11211 56312 42680 71603 10003 21058 37075 54000 874// 333 00100;
0198563120999992000011200004+29570+094470FM-12+300199999V0201801N003010075019N0300001N1-00131-00331999999ADDAA106000791AY181061GF108991081041008001999999IA2999-00209MA1999999070791MD1210041+0101MW1851REMSYN094AAXX  12001 56312 11580 81803 11013 21033 37079 52004 69901 78580 884// 333 00101 31020 79999;
0165563120999992000011203004+29570+094470FM-12+300199999V0201801N002010042019N0300001N1+00001-00371999999ADDAY181031AY281031GF107991071041004501999999MA1999999071001MD1210211+0011MW1851REMSYN076AAXX  12031 56312 41480 71802 10000 21037 37100 52021 78588 874// 333 00152;
0193563120999992000011206004+29570+094470FM-12+300199999V0200901N003012200019N0300001N1+00531-00521999999ADDAA106000191AY181061GF103991031011012501001021KA1999N-00181MA1999999070781MD1710221+0101MW1001REMSYN088AAXX  12061 56312 11680 30903 10053 21052 37078 57022 69911 70080 83102 333 00151 21018;
0137563120999992000011209004+29570+094470FM-12+300199999V0201401N004012200019N0300001N1+00801-00571999999ADDGF103991031011012501001021MA1999999070591MD1710191+0021REMSYN070AAXX  12091 56312 42680 31404 10080 21057 37059 57019 83102 333 00201;
0167563120999992000011212004+29570+094470FM-12+300199999V0201401N001012200019N0300001N1+00291-00711999999ADDAA106000091GF101991001001999999001021MA1999999070661MD1210071+0021REMSYN070AAXX  12121 56312 32980 11401 10029 21071 37066 52007 80002 333 00252;EQDQ01  00002PRCP06
0137563120999992000011215004+29570+094470FM-12+300199999V0209999C000012200019N0300001N1-00111-00661999999ADDGA1001+999999999GF100991001001999999001001MA1999999070891MD1210231+9999REMSYN054AAXX  12151 56312 42980 00000 11011 21066 37089 52023;
0196563120999992000011218004+29570+094470FM-12+300199999V0209999C000012200019N0300001N1-00411-00771999999ADDAA106000091GA1001+999999999GF100991001001999999001001KA1999M+00901MA1999999070951MD1210061+0201REMSYN070AAXX  12181 56312 32980 00000 11041 21077 37095 52006 333 00256 10090;EQDQ01  00002PRCP06
0137563120999992000011221004+29570+094470FM-12+300199999V0203201N001010075019N0300001N1-00121-00721999999ADDGF108991081041008001999999MA1999999070801MD1710151+0011REMSYN070AAXX  12211 56312 42580 83201 11012 21072 37080 57015 884// 333 00152;
0173563120999992000011300004+29570+094470FM-12+300199999V0203401N003010075019N0300001N1-00111-00821999999ADDAA106000091GF108991081041008001999999MA1999999070801MD1410001+0001REMSYN076AAXX  13001 56312 32580 83403 11011 21082 37080 54000 884// 333 00000 70001;EQDQ01  00002PRCP06
0137563120999992000011303004+29570+094470FM-12+300199999V0203401N002010075019N0300001N1+00061-00891999999ADDGF107991071041008001999999MA1999999070851MD1210051+0021REMSYN070AAXX  13031 56312 42580 73402 10006 21089 37085 52005 874// 333 05201;
0186563120999992000011306004+29570+094470FM-12+300199999V0201401N005010075019N0300001N1+00431-00781999999ADDAA106000091GF106991061041008001001001KA1999N-00461MA1999999070631MD1710221-0201REMSYN076AAXX  13061 56312 32580 61405 10043 21078 37063 57022 86400 333 05251 21046;EQDQ01  00002PRCP06
0137563120999992000011309004+29570+094470FM-12+300199999V0201101N007010075019N0300001N1+00561-00831999999ADDGF107991071041008001001001MA1999999070331MD1710301+0031REMSYN070AAXX  13091 56312 42580 71107 10056 21083 37033 57030 87400 333 05352;
0167563120999992000011312004+29570+094470FM-12+300199999V0200901N004010150019N0300001N1+00401-00721999999ADDAA106000091GF108991081041017501999999MA1999999070411MD1210081+0031REMSYN070AAXX  13121 56312 32780 80904 10040 21072 37041 52008 884// 333 05301;EQDQ01  00002PRCP06
0186563120999992000011318004+29570+094470FM-12+300199999V0201801N002010150019N0300001N1+00181-00391999999ADDAA106000091GF108991081041017501999999KA1999M+00621MA1999999070421MD1710061-0501REMSYN076AAXX  13181 56312 32780 81802 10018 21039 37042 57006 884// 333 05506 10062;EQDQ01  00002PRCP06
0141563120999992000011321004+29570+094470FM-12+300199999V0201601N003010120019N0300001N1+00091-00341999999ADDGF108991081041012501999999MA1999999070281MD1710141+0051REMSYN074    AAXX  13211 56312 42680 81603 10009 21034 37028 57014 884// 333 05502;
0189563120999992000011400004+29570+094470FM-12+300199999V0201601N003010075019N0300001N1+00051-00511999999ADDAA199000091GF108991081041008001999999IA2999+00009MA1999999070331MD1210051-0501REMSYN080    AAXX  14001 56312 32580 81603 10005 21051 37033 52005 884// 333 05502 31007;EQDQ01  00002PRCP99
0141563120999992000011403004+29570+094470FM-12+300199999V0201401N003010075019N0300001N1+00171-00471999999ADDGF106991061041008001001001MA1999999070481MD1210151+0041REMSYN074    AAXX  14031 56312 42580 61403 10017 21047 37048 52015 86400 333 05401;
0190563120999992000011406004+29570+094470FM-12+300199999V0201101N005010120019N0300001N1+00591-00591999999ADDAA199000091GF106991061041012501001001KA1999N+00001MA1999999070291MD1710191-0301REMSYN080    AAXX  14061 56312 32680 61105 10059 21059 37029 57019 86400 333 05302 20000;EQDQ01  00002PRCP99
0141563120999992000011409004+29570+094470FM-12+300199999V0201101N006010120019N0300001N1+00591-00491999999ADDGF105991051041012501001001MA1999999070121MD1710171+0021REMSYN074    AAXX  14091 56312 42680 51106 10059 21049 37012 57017 85400 333 05200;
0171563120999992000011412004+29570+094470FM-12+300199999V0200901N004010120019N0300001N1+00381-00541999999ADDAA199000091GF107991071091012501999999MA1999999070271MD1210151+0011REMSYN074    AAXX  14121 56312 32680 70904 10038 21054 37027 52015 879// 333 05100;EQDQ01  00002PRCP99
0131563120999992000011415004+29570+094470FM-12+300199999V0200901N003010120019N0300001N1+00271-00441999999ADDGF108991081091012501999999MA1999999070401MD1210131+9999REMSYN064    AAXX  14151 56312 42680 80903 10027 21044 37040 52013 889//;
0190563120999992000011418004+29570+094470FM-12+300199999V0201601N003010120019N0300001N1+00111-00361999999ADDAA199000091GF108991081041012501999999KA1999M+00891MA1999999070421MD1210021+0001REMSYN080    AAXX  14181 56312 32680 81603 10011 21036 37042 52002 884// 333 00051 10089;EQDQ01  00002PRCP99
0170563120999992000011421004+29570+094470FM-12+300199999V0201401N002010120019N0300001N1+00031-00301999999ADDAA124000791GF108991081041012501999999MA1999999070381MD1710041+0101MW1851REMSYN086    AAXX  14211 56312 41680 81402 10003 21030 37038 57004 78500 884// 333 00151 79999;
0202563120999992000011500004+29570+094470FM-12+300199999V0209999C000010075019N0300001N1-00081-00301999999ADDAA106000791AY181061GF108991081041008001999999IA2999-00099MA1999999070401MD1210021+0101MW1851REMSYN098    AAXX  15001 56312 11580 80000 11008 21030 37040 52002 69901 78580 884// 333 00151 31009 79999;
0169563120999992000011503004+29570+094470FM-12+300199999V0201801N003010075019N0300001N1+00081-00271999999ADDAY181031AY281031GF107991071041008001999999MA1999999070591MD1210191+0011MW1851REMSYN080    AAXX  15031 56312 41580 71803 10008 21027 37059 52019 78588 874// 333 00151;
0197563120999992000011506004+29570+094470FM-12+300199999V0201401N006010075019N0300001N1+00491-00681999999ADDAA106000791AY181061GF107991071041008001999999KA1999N-00091MA1999999070421MD1710171+0101MW1001REMSYN092    AAXX  15061 56312 11580 71406 10049 21068 37042 57017 69901 70080 874// 333 00151 21009;
0161563120999992000011509004+29570+094470FM-12+300199999V0201401N008010075019N0300001N1+00531-00691999999ADDAY181031GF107991071091008001999999MA1999999070261MD1710161+0011MW1851REMSYN080    AAXX  15091 56312 41580 71408 10053 21069 37026 57016 78580 879// 333 00151;
0178563120999992000011512004+29570+094470FM-12+300199999V0200901N005010075019N0300001N1+00331-00721999999ADDAA106000791AY181061GF108991081091008001999999MA1999999070301MD1210041+0001MW1141REMSYN086    AAXX  15121 56312 11580 80905 10033 21072 37030 52004 69901 71480 889// 333 00051;
0143563120999992000011515004+29570+094470FM-12+300199999V0200901N004010075019N0300001N1+00211-00621999999ADDGF108991081091008001999999MA1999999070471MD1210171+9999MW1141REMSYN070    AAXX  15151 56312 41580 80904 10021 21062 37047 52017 71400 889//;
0189563120999992000011518004+29570+094470FM-12+300199999V0201601N003010075019N0300001N1+00051-00511999999ADDAA106000791GF108991081091008001999999KA1999M+00591MA1999999070541MD1210071+0101MW1851REMSYN092    AAXX  15181 56312 11580 81603 10005 21051 37054 52007 69901 78500 889// 333 00151 10059;
0186563120999992000011521004+29570+094470FM-12+300199999V0201401N002010120019N0300001N1-00131-00451999999ADDAA124000791AY181031AY281031GF106991061041012501001001MA1999999070571MD1210031+0201MW1851REMSYN086    AAXX  15211 56312 41680 61402 11013 21045 37057 52003 78588 86400 333 00252 79999;
0184563120999992000011600004+29570+094470FM-12+300199999V0209999C000010075019N0300001N1-00161-00431999999ADDAA106000791AY181061GF107991071041008001999999MA1999999070591MD1210021+0201MW1851REMSYN092    AAXX  16001 56312 11580 70000 11016 21043 37059 52002 69901 78580 874// 333 00251 79999;
0169563120999992000011603004+29570+094470FM-12+300199999V0209999C000010075019N0300001N1+00191-00351999999ADDAY181031AY281031GF107991071041008001999999MA1999999070781MD1210191+0021MW1851REMSYN080    AAXX  16031 56312 41580 70000 10019 21035 37078 52019 78588 874// 333 00201;
0197563120999992000011606004+29570+094470FM-12+300199999V0201101N004010075019N0300001N1+00641-00731999999ADDAA106000791AY181061GF107991071041008001001001KA1999N-00221MA1999999070571MD1710211+0201MW1001REMSYN092    AAXX  16061 56312 11580 71104 10064 21073 37057 57021 69901 70080 87400 333 00202 21022;
0141563120999992000011609004+29570+094470FM-12+300199999V0201101N006010120019N0300001N1+00611-00821999999ADDGF107991071041012501001001MA1999999070391MD1710181+0011REMSYN074    AAXX  16091 56312 42680 71106 10061 21082 37039 57018 87400 333 00101;
0152563120999992000011612004+29570+094470FM-12+300199999V0200701N005010075019N0300001N1+00231-00921999999ADDAA199000021GF108991081091008001999999MA1999999070561MD1210171+0031REMSYN074    AAXX  16121 56312 32580 80705 10023 21092 37056 52017 889// 333 00351;
0131563120999992000011615004+29570+094470FM-12+300199999V0200901N002010075019N0300001N1+00111-00921999999ADDGF108991081091008001999999MA1999999070731MD1210171+9999REMSYN064    AAXX  16151 56312 42580 80902 10011 21092 37073 52017 889//;
0190563120999992000011618004+29570+094470FM-12+300199999V0201401N002010075019N0300001N1-00021-00791999999ADDAA199000091GF108991081091008001999999KA1999M+00741MA1999999070781MD1210051+0201REMSYN080    AAXX  16181 56312 32580 81402 11002 21079 37078 52005 889// 333 00251 10074;EQDQ01  00002PRCP99
0176563120999992000011700004+29570+094470FM-12+300199999V0209999C000010075019N0300001N1-00191-00721999999ADDAA124000791GF108991081041008001999999IA2999-00489MA1999999070761MD1210031+0201REMSYN086    AAXX  17001 56312 32580 80000 11019 21072 37076 52003 884// 333 00200 31048 79999;
0141563120999992000011703004+29570+094470FM-12+300199999V0203601N002010075019N0300001N1+00031-00681999999ADDGF107991071041008001999999MA1999999070981MD1210221+0021REMSYN074    AAXX  17031 56312 42580 73602 10003 21068 37098 52022 874// 333 00252;
0190563120999992000011706004+29570+094470FM-12+300199999V0201601N004010120019N0300001N1+00581-00761999999ADDAA199000091GF105991051091012501001001KA1999N-00281MA1999999070741MD1710241+0201REMSYN080    AAXX  17061 56312 32680 51604 10058 21076 37074 57024 85900 333 00251 21028;EQDQ01  00002PRCP99
0141563120999992000011709004+29570+094470FM-12+300199999V0201401N005010120019N0300001N1+00871-00991999999ADDGF106991061091012501001001MA1999999070521MD1710221+0011REMSYN074    AAXX  17091 56312 42680 61405 10087 21099 37052 57022 86900 333 00103;
0171563120999992000011712004+29570+094470FM-12+300199999V0201101N006010900019N0300001N1+00371-00841999999ADDAA199000091GF107991011041017501001021MA1999999070661MD1210141+0011REMSYN074    AAXX  17121 56312 32780 71106 10037 21084 37066 52014 81402 333 00101;EQDQ01  00002PRCP99
0150563120999992000011715004+29570+094470FM-12+300199999V0200901N002012200019N0300001N1+00101-00751999999ADDGF102991999041017501001001MA1999999070931MD1210271+9999REMSYN064    AAXX  17151 56312 42780 20902 10010 21075 37093 52027 87400;EQDQ01+000072SCOTLC
0190563120999992000011718004+29570+094470FM-12+300199999V0209999C000010150019N0300001N1-00041-00701999999ADDAA199000091GF107991071041017501999999KA1999M+00901MA1999999071011MD1210081+0201REMSYN080    AAXX  17181 56312 32780 70000 11004 21070 37101 52008 874// 333 00200 10090;EQDQ01  00002PRCP99
0145563120999992000011721004+29570+094470FM-12+300199999V0209999C000010150019N0300001N1-00091-00681999999ADDGF107991071041017501999999MD1410001+0031REMSYN074    AAXX  17211 56312 42780 70000 11009 21068 37010 54000 874// 333 00301;EQDQ01+070103APOSP 
0181563120999992000011800004+29570+094470FM-12+300199999V0209999C000012200019N0300001N1-00321-00941999999ADDAA199000091GA1001+999999999GF100991001001999999001001MA1999999071091MD1210081+0031REMSYN068    AAXX  18001 56312 32980 00000 11032 21094 37109 52008 333 00351;EQDQ01  00002PRCP99
0141563120999992000011803004+29570+094470FM-12+300199999V0203401N003019999999N0300001N1-00041-00861999999ADDGF106991001001999999001021MA1999999071281MD1210191+0031REMSYN074    AAXX  18031 56312 42980 63403 11004 21086 37128 52019 80002 333 00351;
0190563120999992000011806004+29570+094470FM-12+300199999V0201801N003012200019N0300001N1+00761-00641999999ADDAA199000091GF104991011011012501001021KA1999N-00501MA1999999070931MD1710351+0201REMSYN080    AAXX  18061 56312 32680 41803 10076 21064 37093 57035 81102 333 00202 21050;EQDQ01  00002PRCP99
0141563120999992000011809004+29570+094470FM-12+300199999V0203401N002010120019N0300001N1+01191-01491999999ADDGF106991051091012501001021MA1999999070621MD1710311+0011REMSYN074    AAXX  18091 56312 42680 63402 10119 21149 37062 57031 85902 333 00103;
0171563120999992000011812004+29570+094470FM-12+300199999V0203601N002012200019N0300001N1+00721-01471999999ADDAA199000091GF101991001001999999001021MA1999999070771MD1210151+0011REMSYN074    AAXX  18121 56312 32980 13602 10072 21147 37077 52015 80002 333 00104;EQDQ01  00002PRCP99
0141563120999992000011815004+29570+094470FM-12+300199999V0209999C000012200019N0300001N1-00061-01401999999ADDGA1001+999999999GF100991001001999999001001MA1999999071081MD1210311+9999REMSYN058    AAXX  18151 56312 42980 00000 11006 21140 37108 52031;
0200563120999992000011818004+29570+094470FM-12+300199999V0203401N001012200019N0300001N1-00261-01231999999ADDAA199000091GA1001+999999999GF100991001001999999001001KA1999M+01231MA1999999071151MD1210071+0101REMSYN074    AAXX  18181 56312 32980 03401 11026 21123 37115 52007 333 00152 10123;EQDQ01  00002PRCP99
0151563120999992000011821004+29570+094470FM-12+300199999V0209999C000012200019N0300001N1-00091-01331999999ADDGA1001+999999999GF100991001001999999001001MA1999999071091MD1710061+0011REMSYN068    AAXX  18211 56312 42980 00000 11009 21133 37109 57006 333 00154;
0171563120999992000011900004+29570+094470FM-12+300199999V0209999C000012200019N0300001N1-00661-01321999999ADDAA199000091GF103991031041017501001001MA1999999071061MD1710031+0001REMSYN074    AAXX  19001 56312 32780 30000 11066 21132 37106 57003 83400 333 00053;EQDQ01  00002PRCP99
0141563120999992000011903004+29570+094470FM-12+300199999V0203201N001012200019N0300001N1-00291-01431999999ADDGF101991011041012501001011MA1999999071111MD1210051+0021REMSYN074    AAXX  19031 56312 42680 13201 11029 21143 37111 52005 81401 333 05253;
0190563120999992000011906004+29570+094470FM-12+300199999V0201401N003010900019N0300001N1+00631-01401999999ADDAA199000091GF107991011011012501001021KA1999N-00711MA1999999070691MD1710421-0201REMSYN080    AAXX  19061 56312 32680 71403 10063 21140 37069 57042 81102 333 05251 21071;EQDQ01  00002PRCP99
0151563120999992000011909004+29570+094470FM-12+300199999V0201101N011012200019N0300001N1+01101-01641999999ADDGA1001+999999999GF100991001001999999001001MA1999999070331MD1710361+0031REMSYN068    AAXX  19091 56312 42980 01111 10110 21164 37033 57036 333 05351;
0171563120999992000011912004+29570+094470FM-12+300199999V0201401N002012200019N0300001N1+00401-01321999999ADDAA199000091GF102991001001999999001021MA1999999070331MD1410001+0041REMSYN074    AAXX  19121 56312 32980 21402 10040 21132 37033 54000 80002 333 05453;EQDQ01  00002PRCP99
0127563120999992000011915004+29570+094470FM-12+300199999V0201801N002019999999N0300001N1+00021-01191999999ADDGF107991001001999999001021MA1999999070451MD1210121+9999REMSYN060AAXX  19151 56312 42980 71802 10002 21119 37045 52012 80002;
0186563120999992000011918004+29570+094470FM-12+300199999V0201101N007010120019N0300001N1+00231-01001999999ADDAA199000091GF107991071041012501999999KA1999M+01121MA1999999070411MD1710041-0201REMSYN076AAXX  19181 56312 32680 71107 10023 21100 37041 57004 874// 333 05205 10112;EQDQ01  00002PRCP99
0180563120999992000011921004+29570+094470FM-12+300199999V0201401N001010042019N0300001N1-00211-00371999999ADDAA106000791AY181031GF108991081091004501999999MA1999999070191MD1710101-0901MW1851REMSYN088AAXX  19211 56312 11480 81401 11021 21037 37019 57010 69901 78580 889// 333 05905 79999;
0165563120999992000012003004+29570+094470FM-12+300199999V0201101N001010042019N0300001N1-00121-00381999999ADDAY181031AY281031GF108991081041004501999999MA1999999070301MD1210111+0081MW1261REMSYN076AAXX  20031 56312 41480 81101 11012 21038 37030 52011 72688 884// 333 05802;
0193563120999992000012006004+29570+094470FM-12+300199999V0202201N001010075019N0300001N1+00081-00351999999ADDAA106000191AY181061GF107991071041008001999999KA1999N-00251MA1999999070181MD1710121-0501MW1261REMSYN088AAXX  20061 56312 11580 72201 10008 21035 37018 57012 69911 72680 874// 333 05556 21025;
0149563120999992000012009004+29570+094470FM-12+300199999V0201601N002010075019N0300001N1+00321-00501999999ADDGF107991061091008001001021MA1999999069971MD1710211+0041MW1141REMSYN076AAXX  20091 56312 41580 71602 10032 21050 36997 57021 71400 86902 333 05458;
0148563120999992000012012004+29570+094470FM-12+300199999V0201401N003010075019N0300001N1+00261-00651999999ADDAA199000021GF107991071041008001999999MA1999999070111MD1210141+0021REMSYN070AAXX  20121 56312 32580 71403 10026 21065 37011 52014 874// 333 05251;
0127563120999992000012015004+29570+094470FM-12+300199999V0201601N002010900019N0300001N1+00091-00591999999ADDGF107991011011012501001021MA1999999070411MD1210301+9999REMSYN060AAXX  20151 56312 42680 71602 10009 21059 37041 52030 81102;
0179563120999992000012018004+29570+094470FM-12+300199999V0209999C000010075019N0300001N1-00161-00461999999ADDAA199000021GF107991061041008001001021KA1999M+00431MA1999999070511MD1210101+0101MW1141REMSYN082AAXX  20181 56312 31580 70000 11016 21046 37051 52010 71400 86402 333 00154 10043;
0154563120999992000012021004+29570+094470FM-12+300199999V0209999C000010120019N0300001N1-00211-00821999999ADDAA124000191GF108991081041012501999999MA1999999070501MD1710011+0201REMSYN076AAXX  20211 56312 42680 80000 11021 21082 37050 57001 884// 333 00252 70001;
0180563120999992000012100004+29570+094470FM-12+300199999V0209999C000010075019N0300001N1-00301-00521999999ADDAA106000791AY181061GF108991081091008001999999MA1999999070621MD1410001+0401MW1851REMSYN088AAXX  21001 56312 11580 80000 11030 21052 37062 54000 69901 78580 889// 333 00451 70001;
0157563120999992000012103004+29570+094470FM-12+300199999V0201401N001010900019N0300001N1+00031-00451999999ADDAY181031GF107991021011008001001021MA1999999070791MD1210171+0051MW1261REMSYN076AAXX  21031 56312 41580 71401 10003 21045 37079 52017 72680 82102 333 00502;
0193563120999992000012106004+29570+094470FM-12+300199999V0201401N004010900019N0300001N1+00451-00381999999ADDAA106000791AY181061GF107991021011008001001021KA1999N-00361MA1999999070581MD1710211+0401MW1141REMSYN088AAXX  21061 56312 11580 71404 10045 21038 37058 57021 69901 71480 82102 333 00404 21036;
0149563120999992000012109004+29570+094470FM-12+300199999V0201101N007010900019N0300001N1+00481-00461999999ADDGF107991031091012501001021MA1999999070461MD1710121+0051MW1141REMSYN076AAXX  21091 56312 41680 71107 10048 21046 37046 57012 71400 83902 333 00502;
0148563120999992000012112004+29570+094470FM-12+300199999V0201401N002010075019N0300001N1+00201-00331999999ADDAA199000021GF108991081091008001999999MA1999999070591MD1210131+0051REMSYN070AAXX  21121 56312 32580 81402 10020 21033 37059 52013 889// 333 00551;
0127563120999992000012115004+29570+094470FM-12+300199999V0201101N003019999999N0300001N1+00121-00521999999ADDGF107991021041012501999999MA1999999070761MD1210171+9999REMSYN060AAXX  21151 56312 42680 71103 10012 21052 37076 52017 824//;
0186563120999992000012118004+29570+094470FM-12+300199999V0201601N002010075019N0300001N1+00001-00461999999ADDAA199000091GF107991071041008001999999KA1999M+00661MA1999999070741MD1710021+0201REMSYN076AAXX  21181 56312 32580 71602 10000 21046 37074 57002 874// 333 00202 10066;EQDQ01  00002PRCP99
0166563120999992000012121004+29570+094470FM-12+300199999V0201801N001010120019N0300001N1-00151-00411999999ADDAA124000791GF107991071041012501999999MA1999999070701MD1710041+0201MW1141REMSYN082AAXX  21211 56312 41680 71801 11015 21041 37070 57004 71400 874// 333 00201 79999;
0180563120999992000012200004+29570+094470FM-12+300199999V0209999C000010042019N0300001N1-00241-00411999999ADDAA106000791AY181061GF108991081041004501999999MA1999999070691MD1710011+0101MW1851REMSYN088AAXX  22001 56312 11480 80000 11024 21041 37069 57001 69901 78580 884// 333 00101 79999;
0165563120999992000012203004+29570+094470FM-12+300199999V0201601N003010075019N0300001N1-00051-00401999999ADDAY181031AY281031GF107991071041008001999999MA1999999070771MD1210081+0001MW1851REMSYN076AAXX  22031 56312 41580 71603 11005 21040 37077 52008 78588 874// 333 00051;
0193563120999992000012206004+29570+094470FM-12+300199999V0200901N008010075019N0300001N1+00361-00781999999ADDAA106000791AY181061GF107991071091008001999999KA1999N-00261MA1999999070541MD1710231+0001MW1141REMSYN088AAXX  22061 56312 11580 70908 10036 21078 37054 57023 69901 71480 879// 333 00051 21026;
0137563120999992000012209004+29570+094470FM-12+300199999V0201401N007010075019N0300001N1+00411-01061999999ADDGF107991071041008001999999MA1999999070361MD1710181+0011REMSYN070AAXX  22091 56312 42580 71407 10041 21106 37036 57018 874// 333 05151;
0148563120999992000012212004+29570+094470FM-12+300199999V0201401N003010120019N0300001N1+00191-01161999999ADDAA199000021GF107991071091012501999999MA1999999070441MD1210081+0021REMSYN070AAXX  22121 56312 32680 71403 10019 21116 37044 52008 879// 333 05200;
0127563120999992000012215004+29570+094470FM-12+300199999V0200901N004010360019N0300001N1+00011-00891999999ADDGF108991011061008001011999MA1999999070601MD1210161+9999REMSYN060AAXX  22151 56312 42580 80904 10001 21089 37060 52016 8161/;
0186563120999992000012218004+29570+094470FM-12+300199999V0201801N002010360019N0300001N1-00171-00471999999ADDAA199000091GF108991011061008001011999KA1999M+00661MA1999999070621MD1210021-0101REMSYN076AAXX  22181 56312 32580 81802 11017 21047 37062 52002 8161/ 333 05152 10066;EQDQ01  00002PRCP99
0174563120999992000012221004+29570+094470FM-12+300199999V0209999C000010075019N0300001N1-00251-00421999999ADDAA124000791AY181031GF108991081041008001999999MA1999999070611MD1710011-0101MW1851REMSYN082AAXX  22211 56312 41580 80000 11025 21042 37061 57001 78580 884// 333 05151 79999;
0204563120999992000012300004+29570+094470FM-12+300199999V0209999C000010075019N0300001N1-00321-00451999999ADDAA106000391AY181061GF108991081041008001999999IA2999-00469MA1999999070631MD1210021-0101MW1851REMSYN100AAXX  23001 56312 11580 80000 11032 21045 37063 52002 69931 78580 884// 333 05151 31046 70003 92500;
0165563120999992000012303004+29570+094470FM-12+300199999V0201401N002010900019N0300001N1-00121-00441999999ADDAY181031AY281031GF107991041011004501001021MA1999999070791MD1210161+0001MW1261REMSYN076AAXX  23031 56312 41480 71402 11012 21044 37079 52016 72688 84102 333 00051;
0148563120999992000012312004+29570+094470FM-12+300199999V0202001N002010120019N0300001N1+00121-00831999999ADDAA199000021GF108991081091012501999999MA1999999070531MD1210151+0011REMSYN070AAXX  23121 56312 32680 82002 10012 21083 37053 52015 889// 333 00151;
0127563120999992000012315004+29570+094470FM-12+300199999V0209999C000010075019N0300001N1+00011-00271999999ADDGF108991081091008001999999MA1999999070231MD1210201+9999REMSYN060AAXX  23151 56312 42580 80000 10001 21027 37023 52020 889//;
0202563120999992000012318004+29570+094470FM-12+300199999V0201801N002010120019N0300001N1-00131-00541999999ADDAA199000091GF108991081041012501999999KA1999M+99999MA1999999070291MD1210061+0201REMSYN076AAXX  23181 56312 32680 81802 11013 21054 37029 52006 884// 333 00200 11070;EQDQ01  00002PRCP99Q02 -00702ATMX  
0158563120999992000012321004+29570+094470FM-12+300199999V0203201N002010075019N0300001N1-00361-00811999999ADDAA124000791GF107991071041008001999999MD1210051+0201REMSYN076AAXX  23211 56312 32580 73202 11036 21081 32708 52005 874// 333 00200 79999;EQDQ01+027081APOSP 
0149563120999992000012403004+29570+094470FM-12+300199999V0209999C000010075019N0300001N1-00161-00591999999ADDGF108991081041008001999999MA1999999071011MD1210201+0021MW1141REMSYN076AAXX  24031 56312 41580 80000 11016 21059 37101 52020 71400 884// 333 00200;
0186563120999992000012406004+29570+094470FM-12+300199999V0201801N005010075019N0300001N1+00251-00931999999ADDAA199000091GF107991071091008001999999KA1999N-00401MA1999999070891MD1710121+0301REMSYN076AAXX  24061 56312 32580 71805 10025 21093 37089 57012 879// 333 00352 21040;EQDQ01  00002PRCP99
0157563120999992000012409004+29570+094470FM-12+300199999V0201601N003010120019N0300001N1+00391-01151999999ADDAY181031GF107991061041012501001021MA1999999070731MD1710161+0041MW1001REMSYN076AAXX  24091 56312 41680 71603 10039 21115 37073 57016 70080 86402 333 00451;
0174563120999992000012412004+29570+094470FM-12+300199999V0209999C000012200019N0300001N1-00041-00731999999ADDAA106000791AY181061GF102991011041012501001021MA1999999070811MD1210081+0031MW1001REMSYN082AAXX  24121 56312 11680 20000 11004 21073 37081 52008 69901 70080 81402 333 00352;
0127563120999992000012415004+29570+094470FM-12+300199999V0202001N003010120019N0300001N1-00031-00981999999ADDGF107991071041012501999999MA1999999071011MD1210201+9999REMSYN060AAXX  24151 56312 42680 72003 11003 21098 37101 52020 874//;
0186563120999992000012418004+29570+094470FM-12+300199999V0201801N001010150019N0300001N1-00111-00371999999ADDAA199000091GF107991071041017501999999KA1999M+00651MA1999999071011MD1410001+0201REMSYN076AAXX  24181 56312 32780 71801 11011 21037 37101 54000 874// 333 00200 10065;EQDQ01  00002PRCP99
0154563120999992000012421004+29570+094470FM-12+300199999V0201801N001010150019N0300001N1-00261-00751999999ADDAA124000791GF107991071041017501999999MA1999999070981MD1710031+0201REMSYN076AAXX  24211 56312 42780 71801 11026 21075 37098 57003 874// 333 00200 79999;
0154563120999992000012500004+29570+094470FM-12+300199999V0209999C000012200019N0300001N1-00441-00781999999ADDAA124000791GF102991021041017501001001MA1999999071101MD1210121+0301REMSYN076AAXX  25001 56312 32780 20000 11044 21078 37110 52012 82400 333 00351 79999;
0137563120999992000012503004+29570+094470FM-12+300199999V0209999C000012200019N0300001N1+00061-00841999999ADDGF101991011011012501001001MA1999999071241MD1210141+0021REMSYN070AAXX  25031 56312 42680 10000 10006 21084 37124 52014 81100 333 00202;
0186563120999992000012506004+29570+094470FM-12+300199999V0201401N003010120019N0300001N1+00541-01091999999ADDAA199000091GF106991051011012501001021KA1999N-00571MA1999999071051MD1710191+0201REMSYN076AAXX  25061 56312 32680 61403 10054 21109 37105 57019 85102 333 00203 21057;EQDQ01  00002PRCP99
0137563120999992000012509004+29570+094470FM-12+300199999V0201601N003012200019N0300001N1+00841-01271999999ADDGF104991041021012501001021MA1999999070791MD1710261+0011REMSYN070AAXX  25091 56312 42680 41603 10084 21127 37079 57026 84202 333 00105;
0167563120999992000012511004+29570+094470FM-12+300199999V0209999C000012200019N0300001N1+00161-00801999999ADDAA199000091GF101991011041012501001001MA1999999070911MD1210121+0011REMSYN070AAXX  25111 56312 32680 10000 10016 21080 37091 52012 81400 333 00102;EQDQ01  00002PRCP99
0167563120999992000012512004+29570+094470FM-12+300199999V0209999C000012200019N0300001N1+00161-00801999999ADDAA199000091GF101991011041012501001001MA1999999070911MD1210121+0011REMSYN070AAXX  25121 56312 32680 10000 10016 21080 37091 52012 81400 333 00102;EQDQ01  00002PRCP99
0137563120999992000012515004+29570+094470FM-12+300199999V0209999C000012200019N0300001N1-00101-00891999999ADDGA1001+999999999GF100991001001999999001001MA1999999071231MD1210321+9999REMSYN054AAXX  25151 56312 42980 00000 11010 21089 37123 52032;
0186563120999992000012518004+29570+094470FM-12+300199999V0209999C000012200019N0300001N1-00411-00991999999ADDAA199000091GF101991011041017501001001KA1999M+00851MA1999999071291MD1210061+0301REMSYN076AAXX  25181 56312 32780 10000 11041 21099 37129 52006 81400 333 00353 10085;EQDQ01  00002PRCP99
0137563120999992000012521004+29570+094470FM-12+300199999V0209999C000010150019N0300001N1-00351-00701999999ADDGF107991071041017501999999MA1999999071251MD1710041+0031REMSYN070AAXX  25211 56312 42780 70000 11035 21070 37125 57004 874// 333 00351;
0167563120999992000012600004+29570+094470FM-12+300199999V0202701N003010150019N0300001N1-00351-00951999999ADDAA199000091GF107991071041017501999999MA1999999071291MD1210041+0021REMSYN070AAXX  26001 56312 32780 72703 11035 21095 37129 52004 874// 333 00201;EQDQ01  00002PRCP99
0137563120999992000012603004+29570+094470FM-12+300199999V0203401N002010075019N0300001N1-00131-01011999999ADDGF107991071041008001999999MA1999999071441MD1210151+0021REMSYN070AAXX  26031 56312 42580 73402 11013 21101 37144 52015 874// 333 00252;
0186563120999992000012606004+29570+094470FM-12+300199999V0201801N003012200019N0300001N1+00561-01151999999ADDAA199000091GF101991011011012501001001KA1999N-00551MA1999999071091MD1710351+0001REMSYN076AAXX  26061 56312 32680 11803 10056 21115 37109 57035 81100 333 00000 21055;EQDQ01  00002PRCP99
0137563120999992000012609004+29570+094470FM-12+300199999V0201401N003012200019N0300001N1+00951-00921999999ADDGF101991011011012501001001MA1999999070751MD1710341+0001REMSYN070AAXX  26091 56312 42680 11403 10095 21092 37075 57034 81100 333 00001;
0167563120999992000012612004+29570+094470FM-12+300199999V0200901N008012200019N0300001N1+00411-01111999999ADDAA199000091GF102991021041012501001001MA1999999070781MD1210031+0011REMSYN070AAXX  26121 56312 32680 20908 10041 21111 37078 52003 82400 333 05103;EQDQ01  00002PRCP99
0127563120999992000012615004+29570+094470FM-12+300199999V0201101N004010120019N0300001N1+00321-01021999999ADDGF107991071041012501001001MA1999999070981MD1210201+9999REMSYN060AAXX  26151 56312 42680 71104 10032 21102 37098 52020 87400;
0186563120999992000012618004+29570+094470FM-12+300199999V0201401N003010120019N0300001N1+00191-00991999999ADDAA199000091GF107991071041012501999999KA1999M+00981MA1999999070971MD1710011+0001REMSYN076AAXX  26181 56312 32680 71403 10019 21099 37097 57001 874// 333 05006 10098;EQDQ01  00002PRCP99
0137563120999992000012621004+29570+094470FM-12+300199999V0201801N003010150019N0300001N1+00051-00821999999ADDGF107991071051017501999999MA1999999070911MD1710061+0031REMSYN070AAXX  26211 56312 42780 71803 10005 21082 37091 57006 875// 333 05304;
0185563120999992000012700004+29570+094470FM-12+300199999V0209999C000010150019N0300001N1-00091-00671999999ADDAA199000091GF107991071051017501999999IA2999-00209MA1999999070891MD1710021-0401REMSYN076AAXX  27001 56312 32780 70000 11009 21067 37089 57002 875// 333 05403 31026;EQDQ01  00002PRCP99
0137563120999992000012703004+29570+094470FM-12+300199999V0201401N003010150019N0300001N1+00321-00781999999ADDGF106991061051017501001001MA1999999070991MD1210101+0051REMSYN070AAXX  27031 56312 42780 61403 10032 21078 37099 52010 86500 333 05505;
0198563120999992000012706004+29570+094470FM-12+300199999V0201101N005010150019N0300001N1+00521-01041999999ADDAA199000091GF107991071051017501999999KA1999N-00191MA1999999070791MD1710201-0301MW1141REMSYN082AAXX  27061 56312 31780 71105 10052 21104 37079 57020 71400 875// 333 05300 21019;EQDQ01  00002PRCP99
0149563120999992000012709004+29570+094470FM-12+300199999V0200901N007010120019N0300001N1+00561-01141999999ADDGF107991071091012501999999MA1999999070561MD1710231+0021MW1141REMSYN076AAXX  27091 56312 41680 70907 10056 21114 37056 57023 71400 879// 333 05254;
0179563120999992000012712004+29570+094470FM-12+300199999V0200901N006010120019N0300001N1+00321-00971999999ADDAA199000091GF107991071091012501999999MA1999999070611MD1210051+0021MW1141REMSYN076AAXX  27121 56312 31680 70906 10032 21097 37061 52005 7140/ 879// 333 05251;EQDQ01  00002PRCP99
0127563120999992000012715004+29570+094470FM-12+300199999V0200901N002010150019N0300001N1+00201-01101999999ADDGF108991081041017501999999MA1999999070791MD1210181+9999REMSYN060AAXX  27151 56312 42780 80902 10020 21110 37079 52018 884//;
0186563120999992000012718004+29570+094470FM-12+300199999V0201401N003010075019N0300001N1-00021-00491999999ADDAA199000091GF108991081041008001999999KA1999M+00601MA1999999070781MD1710011-0201REMSYN076AAXX  27181 56312 32580 81403 11002 21049 37078 57001 884// 333 05252 10060;EQDQ01  00002PRCP99
0149563120999992000012721004+29570+094470FM-12+300199999V0202001N003010120019N0300001N1-00131-00421999999ADDGF108991081041012501999999MA1999999070661MD1710121+0031MW1141REMSYN076AAXX  27211 56312 41680 82003 11013 21042 37066 57012 71400 884// 333 05352;
0198563120999992000012800004+29570+094470FM-12+300199999V0209999C000010075019N0300001N1-00271-00391999999ADDAA106000791AY181061GF108991081041008001999999IA2999-00269MA1999999070681MD1210021-0201MW1851REMSYN094AAXX  28001 56312 11580 80000 11027 21039 37068 52002 69901 78580 884// 333 05252 31026 79999;
0157563120999992000012803004+29570+094470FM-12+300199999V0201401N001010042019N0300001N1-00081-00381999999ADDAY181031GF107991071041004501999999MA1999999070781MD1210101+0021MW1001REMSYN076AAXX  28031 56312 41480 71401 11008 21038 37078 52010 70080 874// 333 05254;
0193563120999992000012806004+29570+094470FM-12+300199999V0201401N003010075019N0300001N1+00551-00591999999ADDAA106000791AY181061GF107991071041008001001001KA1999N-00321MA1999999070501MD1710281-0301MW1141REMSYN088AAXX  28061 56312 11580 71403 10055 21059 37050 57028 69901 71480 87400 333 05300 21032;
0137563120999992000012809004+29570+094470FM-12+300199999V0201801N007010900019N0300001N1+00761-00781999999ADDGF105991041041008001001021MA1999999070201MD1710301+0041REMSYN070AAXX  28091 56312 42580 51807 10076 21078 37020 57030 84402 333 05402;
0127563120999992000012815004+29570+094470FM-12+300199999V0200701N005010120019N0300001N1+00211-00871999999ADDGF108991081041012501999999MA1999999070541MD1210181+9999REMSYN060AAXX  28151 56312 42680 80705 10021 21087 37054 52018 884//;
0186563120999992000012818004+29570+094470FM-12+300199999V0209999C000010120019N0300001N1-00011-00601999999ADDAA199000091GF108991081041012501999999KA1999M+00851MA1999999070521MD1710021-0301REMSYN076AAXX  28181 56312 32680 80000 11001 21060 37052 57002 884// 333 05300 10085;EQDQ01  00002PRCP99
0204563120999992000012821004+29570+094470FM-12+300199999V0201801N001010042019N0300001N1-00211-00551999999ADDAA106000591AY181031GF107991071041004501999999IA2999-00069MA1999999070491MD1210011-0201MW1851REMSYN100AAXX  28211 56312 11480 71801 11021 21055 37049 52001 69961 78580 874// 333 05201 31006 70006 92502;
0165563120999992000012903004+29570+094470FM-12+300199999V0209999C000010042019N0300001N1-00081-00531999999ADDAY181031AY281031GF108991081041004501999999MA1999999070621MD1210131+0021MW1851REMSYN076AAXX  29031 56312 41480 80000 11008 21053 37062 52013 78588 884// 333 05200;
0193563120999992000012906004+29570+094470FM-12+300199999V0200901N006010075019N0300001N1+00321-00851999999ADDAA106000591AY181061GF107991071091008001999999KA1999N-00251MA1999999070471MD1710151+0001MW1141REMSYN088AAXX  29061 56312 11580 70906 10032 21085 37047 57015 69941 71480 879// 333 00052 21025;
0157563120999992000012909004+29570+094470FM-12+300199999V0200901N006010075019N0300001N1+00261-01071999999ADDAY181031GF107991071091008001999999MA1999999070411MD1710061+0021MW1001REMSYN076AAXX  29091 56312 41580 70906 10026 21107 37041 57006 70080 879// 333 00255;
0174563120999992000012912004+29570+094470FM-12+300199999V0201801N002010150019N0300001N1-00011-01141999999ADDAA106000791AY181061GF107991071041017501999999MA1999999070571MD1210161+0021MW1001REMSYN082AAXX  29121 56312 11780 71802 11001 21114 37057 52016 69901 70080 874// 333 00254;
0127563120999992000012915004+29570+094470FM-12+300199999V0209999C000010150019N0300001N1-00041-00941999999ADDGF107991071041017501999999MA1999999070781MD1210211+9999REMSYN060AAXX  29151 56312 42780 70000 11004 21094 37078 52021 874//;
0193563120999992000012918004+29570+094470FM-12+300199999V0209999C000010075019N0300001N1-00241-00791999999ADDAA106000391AY181061GF108991081091008001999999KA1999M+00451MA1999999070841MD1210061+0301MW1851REMSYN088AAXX  29181 56312 11580 80000 11024 21079 37084 52006 69931 78580 889// 333 00352 10045;
0182563120999992000012921004+29570+094470FM-12+300199999V0209999C000010075019N0300001N1-00311-00751999999ADDAA124001591AY181031AY281031GF107991071041008001999999MA1999999070791MD1710051+0301MW1261REMSYN082AAXX  29211 56312 41580 70000 11031 21075 37079 57005 72688 874// 333 00351 70014;
0186563120999992000013000004+29570+094470FM-12+300199999V0203401N001010900019N0300001N1-00581-00921999999ADDAA106000591AY181061GF106991011041012501001021MA1999999070861MD1210071+0401MW1001REMSYN094AAXX  30001 56312 11680 63401 11058 21092 37086 52007 69941 70080 81402 333 00454 70011 92501;
0137563120999992000013003004+29570+094470FM-12+300199999V0200401N002012200019N0300001N1-00301-01161999999ADDGF102991011011012501001021MA1999999071061MD1210201+0041REMSYN070AAXX  30031 56312 42680 20402 11030 21116 37106 52020 81102 333 00452;
0167563120999992000013006004+29570+094470FM-12+300199999V0203201N003010120019N0300001N1+00321-00881999999ADDAA199000021GF107991071041012501001001KA1999N-00611MA1999999070811MD1710251+0301REMSYN076AAXX  30061 56312 32680 73203 10032 21088 37081 57025 87400 333 00300 21061;
0137563120999992000013009004+29570+094470FM-12+300199999V0203201N003010120019N0300001N1+00281-01231999999ADDGF107991071041012501001001MA1999999070761MD1710051+0041REMSYN070AAXX  30091 56312 42680 73203 10028 21123 37076 57005 87400 333 00400;
0167563120999992000013012004+29570+094470FM-12+300199999V0203201N005012200019N0300001N1+00021-01831999999ADDAA199000091GF102991021011012501001001MA1999999070991MD1210231+0041REMSYN070AAXX  30121 56312 32680 23205 10002 21183 37099 52023 82100 333 00400;EQDQ01  00002PRCP99
0137563120999992000013015004+29570+094470FM-12+300199999V0202901N002012200019N0300001N1-00451-01701999999ADDGA1001+999999999GF100991001001999999001001MA1999999071181MD1210191+9999REMSYN054AAXX  30151 56312 42980 02902 11045 21170 37118 52019;
0126563120999992000013020004+29570+094470FM-12+300199999V0203601N003012200019N0300001N1-00951-01771999999ADDGA1001+999999999GF100991001001999999001001MD1710041+0041REMSYN058AAXX  30201 56312 42980 03603 11095 21177 57004 333 00456;
0177563120999992000013100004+29570+094470FM-12+300199999V0209999C000012200019N0300001N1-01121-01801999999ADDAA199000091GA1001+999999999GF100991001001999999001001MA1999999071291MD1210111+0041REMSYN064AAXX  31001 56312 32980 00000 11112 21180 37129 52011 333 00455;EQDQ01  00002PRCP99
0147563120999992000013103004+29570+094470FM-12+300199999V0209999C000012200019N0300001N1-00631-01821999999ADDGA1001+999999999GF100991001001999999001001MA1999999071461MD1210171+0041REMSYN064AAXX  31031 56312 42980 00000 11063 21182 37146 52017 333 00453;
0186563120999992000013106004+29570+094470FM-12+300199999V0209999C000012200019N0300001N1+00141-01781999999ADDAA199000091GF104991001001999999001021KA1999N-01191MA1999999071121MD1710341+0301REMSYN076AAXX  31061 56312 32980 40000 10014 21178 37112 57034 80002 333 00352 21119;EQDQ01  00002PRCP99
0137563120999992000013109004+29570+094470FM-12+300199999V0201401N002019999999N0300001N1+00571-00941999999ADDGF107991001001999999001021MA1999999070711MD1710411+0011REMSYN070AAXX  31091 56312 42980 71402 10057 21094 37071 57041 80002 333 05103;
0167563120999992000013112004+29570+094470FM-12+300199999V0202001N003010150019N0300001N1+00271-01351999999ADDAA199000091GF108991081041017501999999MA1999999070751MD1210041+0021REMSYN070AAXX  31121 56312 32780 82003 10027 21135 37075 52004 884// 333 05203;EQDQ01  00002PRCP99
0127563120999992000013115004+29570+094470FM-12+300199999V0200901N005012200019N0300001N1+00091-01411999999ADDGF102991021041017501001001MA1999999070831MD1210081+9999REMSYN060AAXX  31151 56312 42780 20905 10009 21141 37083 52008 82400;
0186563120999992000013118004+29570+094470FM-12+300199999V0201601N003010150019N0300001N1-00051-01321999999ADDAA199000091GF107991071041017501999999KA1999M+00601MA1999999070881MD1210051-0301REMSYN076AAXX  31181 56312 32780 71603 11005 21132 37088 52005 874// 333 05307 10060;EQDQ01  00002PRCP99
0137563120999992000013121004+29570+094470FM-12+300199999V0201401N002010150019N0300001N1-00101-00661999999ADDGF108991081041017501999999MA1999999070861MD1710021+0031REMSYN070AAXX  31211 56312 42780 81402 11010 21066 37086 57002 884// 333 05309;
0167563120999992000020100004+29570+094470FM-12+300199999V0209999C000010900019N0300001N1-00221-01251999999ADDAA199000091GF107991031041017501001021MA1999999070851MD1710011+0041REMSYN070AAXX  01001 56312 32780 70000 11022 21125 37085 57001 83402 333 05409;EQDQ01  00002PRCP99
0137563120999992000020103004+29570+094470FM-12+300199999V0201401N002010075019N0300001N1-00111-01241999999ADDGF108991081041008001999999MA1999999070971MD1210121+0051REMSYN070AAXX  01031 56312 42580 81402 11011 21124 37097 52012 884// 333 05505;
0186563120999992000020106004+29570+094470FM-12+300199999V0201401N004010120019N0300001N1+00051-01611999999ADDAA199000091GF108991081041012501999999KA1999N-00311MA1999999070791MD1710181-0301REMSYN076AAXX  01061 56312 32680 81404 10005 21161 37079 57018 884// 333 05351 21031;EQDQ01  00002PRCP99
0137563120999992000020109004+29570+094470FM-12+300199999V0201101N005010120019N0300001N1+00091-01631999999ADDGF108991081041012501999999MA1999999070561MD1710231+0021REMSYN070AAXX  01091 56312 42680 81105 10009 21163 37056 57023 884// 333 05255;
0179563120999992000020112004+29570+094470FM-12+300199999V0201101N003010075019N0300001N1-00061-01391999999ADDAA199000091GF108991081091008001999999MA1999999070631MD1210071+0011MW1141REMSYN076AAXX  01121 56312 31580 81103 11006 21139 37063 52007 71400 889// 333 05153;EQDQ01  00002PRCP99
0127563120999992000020115004+29570+094470FM-12+300199999V0200901N003010120019N0300001N1-00201-01211999999ADDGF107991071041012501999999MA1999999070761MD1210131+9999REMSYN060AAXX  01151 56312 42680 70903 11020 21121 37076 52013 874//;
0193563120999992000020118004+29570+094470FM-12+300199999V0201401N001010075019N0300001N1-00401-00731999999ADDAA106000191AY181061GF108991081041008001999999KA1999M+00181MA1999999070801MD1210041-0101MW1851REMSYN088AAXX  01181 56312 11580 81401 11040 21073 37080 52004 69921 78580 884// 333 05154 10018;
0212563120999992000020121004+29570+094470FM-12+300199999V0209999C000010075019N0300001N1-00451-00661999999ADDAA106000591AY181031AY281031GF108991081041008001999999IA2999-00479MA1999999070811MD1210081+0001MW1851REMSYN100AAXX  01211 56312 11580 80000 11045 21066 37081 52008 69961 78588 884// 333 00052 31047 70008 92510;
0165563120999992000020203004+29570+094470FM-12+300199999V0209999C000010075019N0300001N1-00301-00631999999ADDAY181031AY281031GF108991081041008001999999MA1999999070941MD1210131+0001MW1851REMSYN076AAXX  02031 56312 41580 80000 11030 21063 37094 52013 78588 884// 333 00052;
0193563120999992000020206004+29570+094470FM-12+300199999V0200701N003010120019N0300001N1-00011-00601999999ADDAA106000191AY181061GF108991081041012501999999KA1999N-00501MA1999999070801MD1710141+0001MW1001REMSYN088AAXX  02061 56312 11680 80703 11001 21060 37080 57014 69911 70080 884// 333 00051 21050;
0137563120999992000020209004+29570+094470FM-12+300199999V0201101N008010075019N0300001N1+00341-00751999999ADDGF108991081091008001999999MA1999999070401MD1710401+0021REMSYN070AAXX  02091 56312 42580 81108 10034 21075 37040 57040 889// 333 05203;
0160563120999992000020212004+29570+094470FM-12+300199999V0201101N006010075019N0300001N1+00121-00901999999ADDAA199000021GF108991081091008001999999MA1999999070381MD1710021+0031MW1141REMSYN076AAXX  02121 56312 31580 81106 10012 21090 37038 57002 71400 889// 333 05302;
0127563120999992000020215004+29570+094470FM-12+300199999V0209999C000010075019N0300001N1-00021-00821999999ADDGF108991081091008001999999MA1999999070491MD1210111+9999REMSYN060AAXX  02151 56312 42580 80000 11002 21082 37049 52011 889//;
0186563120999992000020218004+29570+094470FM-12+300199999V0201601N003010075019N0300001N1-00081-00771999999ADDAA199000091GF107991071091008001999999KA1999M+00471MA1999999070541MD1210051-0301REMSYN076AAXX  02181 56312 32580 71603 11008 21077 37054 52005 879// 333 05303 10047;EQDQ01  00002PRCP99
0154563120999992000020221004+29570+094470FM-12+300199999V0209999C000012200019N0300001N1-00271-00791999999ADDAA124000391GF101991011061008001001001MA1999999070541MD1410001-0201REMSYN076AAXX  02211 56312 42580 10000 11027 21079 37054 54000 81600 333 05201 70003;
0154563120999992000020300004+29570+094470FM-12+300199999V0209999C000010075019N0300001N1-00311-00741999999ADDAA124000191GF107991071051008001999999MA1999999070651MD1210111-0201REMSYN076AAXX  03001 56312 32580 70000 11031 21074 37065 52011 875// 333 05201 70001;
0157563120999992000020303004+29570+094470FM-12+300199999V0209999C000010360019N0300001N1-00211-00581999999ADDAY171031GF108991021071004501021999MA1999999070851MD1210201+0011MW1701REMSYN076AAXX  03031 56312 41480 80000 11021 21058 37085 52020 77070 8272/ 333 05101;
0193563120999992000020306004+29570+094470FM-12+300199999V0203201N001010360019N0300001N1+00181-00551999999ADDAA106000591AY171061GF108991021071008001021999KA1999N-00411MA1999999070711MD1710141-0101MW1701REMSYN088AAXX  03061 56312 11580 83201 10018 21055 37071 57014 69951 77070 8272/ 333 05102 21041;
0157563120999992000020309004+29570+094470FM-12+300199999V0200901N001010360019N0300001N1+00321-00561999999ADDAY171031GF107991021011008001011021MA1999999070431MD1710281+0001MW1001REMSYN076AAXX  03091 56312 41580 70901 10032 21056 37043 57028 70070 82112 333 00000;
0174563120999992000020312004+29570+094470FM-12+300199999V0201601N002010120019N0300001N1+00201-00771999999ADDAA106000191AY171061GF108991081041012501999999MA1999999070641MD1210211+0031MW1141REMSYN082AAXX  03121 56312 11680 81602 10020 21077 37064 52021 69911 71470 884// 333 00301;
0167563120999992000020318004+29570+094470FM-12+300199999V0201801N001010150019N0300001N1-00081-00811999999ADDAA199000021GF108991081041017501999999KA1999M+00471MA1999999070811MD1710031+0301REMSYN076AAXX  03181 56312 32780 81801 11008 21081 37081 57003 884// 333 00300 10047;
0154563120999992000020321004+29570+094470FM-12+300199999V0209999C000010075019N0300001N1-00191-00861999999ADDAA124000591GF108991081041008001999999MA1999999070681MD1710131+0101REMSYN076AAXX  03211 56312 42580 80000 11019 21086 37068 57013 884// 333 00101 70006;
0154563120999992000020400004+29570+094470FM-12+300199999V0209999C000010075019N0300001N1-00281-00881999999ADDAA124000591GF108991081041008001999999MA1999999070701MD1210021+0101REMSYN076AAXX  04001 56312 32580 80000 11028 21088 37070 52002 884// 333 00100 70006;
0137563120999992000020403004+29570+094470FM-12+300199999V0209999C000010075019N0300001N1-00101-00731999999ADDGF107991071041008001999999MA1999999070851MD1210151+0001REMSYN070AAXX  04031 56312 42580 70000 11010 21073 37085 52015 874// 333 00001;
0186563120999992000020406004+29570+094470FM-12+300199999V0202001N003010075019N0300001N1+00391-00701999999ADDAA199000091GF107991071041008001999999KA1999N-00401MA1999999070611MD1710241-0101REMSYN076AAXX  04061 56312 32580 72003 10039 21070 37061 57024 874// 333 05102 21040;EQDQ01  00002PRCP99
0137563120999992000020409004+29570+094470FM-12+300199999V0201601N004010120019N0300001N1+00651-00951999999ADDGF107991061041012501001021MA1999999070331MD1710281+0011REMSYN070AAXX  04091 56312 42680 71604 10065 21095 37033 57028 86402 333 05103;
0179563120999992000020412004+29570+094470FM-12+300199999V0200901N005010120019N0300001N1+00311-00981999999ADDAA199000091GF108991081091012501999999MA1999999070471MD1210141+0021MW1141REMSYN076AAXX  04121 56312 31680 80905 10031 21098 37047 52014 71400 889// 333 05201;EQDQ01  00002PRCP99
0127563120999992000020415004+29570+094470FM-12+300199999V0209999C000010120019N0300001N1+00141-00831999999ADDGF108991081041012501999999MA1999999070661MD1210191+9999REMSYN060AAXX  04151 56312 42680 80000 10014 21083 37066 52019 884//;
0186563120999992000020418004+29570+094470FM-12+300199999V0201801N002010120019N0300001N1-00041-00641999999ADDAA199000091GF108991081041012501999999KA1999M+00821MA1999999070711MD1210051-0101REMSYN076AAXX  04181 56312 32680 81802 11004 21064 37071 52005 884// 333 05100 10082;EQDQ01  00002PRCP99
0137563120999992000020421004+29570+094470FM-12+300199999V0209999C000010120019N0300001N1-00151-00701999999ADDGF107991061041012501001021MA1999999070651MD1710061+0001REMSYN070AAXX  04211 56312 42680 70000 11015 21070 37065 57006 86402 333 00000;
0185563120999992000020500004+29570+094470FM-12+300199999V0209999C000010075019N0300001N1-00241-00751999999ADDAA199000091GF107991071041008001999999IA2999-00409MA1999999070781MD1210131+0101REMSYN076AAXX  05001 56312 32580 70000 11024 21075 37078 52013 874// 333 00100 31044;EQDQ01  00002PRCP99
0157563120999992000020503004+29570+094470FM-12+300199999V0200401N002012200019N0300001N1+00121-00751999999ADDAY181031GF103991031041008001001001MA1999999070951MD1210171+0011MW1001REMSYN076AAXX  05031 56312 41580 30402 10012 21075 37095 52017 70080 83400 333 00102;
0193563120999992000020506004+29570+094470FM-12+300199999V0201601N004012200019N0300001N1+00601-01201999999ADDAA106000791AY181061GF102991021011008001001001KA1999N-00281MA1999999070701MD1710251+0101MW1001REMSYN088AAXX  05061 56312 11580 21604 10060 21120 37070 57025 69901 70080 82100 333 00102 21028;
0137563120999992000020509004+29570+094470FM-12+300199999V0202001N003012200019N0300001N1+00921-01281999999ADDGF102991021011012501001001MA1999999070381MD1710321+0011REMSYN070AAXX  05091 56312 42680 22003 10092 21128 37038 57032 82100 333 00103;
0152563120999992000020512004+29570+094470FM-12+300199999V0201101N008010120019N0300001N1+00431-01121999999ADDAA199000091GF107991071091012501999999MD1210111+0001REMSYN070AAXX  05121 56312 32680 71108 10043 21112 3/049 52011 879// 333 00001;EQDQ01  00002PRCP99
0186563120999992000020518004+29570+094470FM-12+300199999V0201101N005010120019N0300001N1+00191-01231999999ADDAA199000091GF107991071091012501999999KA1999M+01011MA1999999070741MD1210021+0001REMSYN076AAXX  05181 56312 32680 71105 10019 21123 37074 52002 879// 333 00002 10101;EQDQ01  00002PRCP99
0154563120999992000020521004+29570+094470FM-12+300199999V0201601N003010120019N0300001N1+00061-01101999999ADDAA124000791GF108991081041012501999999MA1999999070701MD1710041+0101REMSYN076AAXX  05211 56312 42680 81603 10006 21110 37070 57004 884// 333 00102 79999;
0154563120999992000020600004+29570+094470FM-12+300199999V0203601N002012200019N0300001N1-00161-01051999999ADDAA124000791GF103991031041012501001001MA1999999070751MD1210051+0001REMSYN076AAXX  06001 56312 32680 33602 11016 21105 37075 52005 83400 333 00001 79999;
0137563120999992000020603004+29570+094470FM-12+300199999V0200701N002012200019N0300001N1+00201-00771999999ADDGF103991031041012501001001MA1999999070921MD1210171+0001REMSYN070AAXX  06031 56312 42680 30702 10020 21077 37092 52017 83400 333 00001;
0186563120999992000020606004+29570+094470FM-12+300199999V0201101N003010120019N0300001N1+00761-01051999999ADDAA199000091GF106991061011012501001001KA1999N-00371MA1999999070681MD1710241+0001REMSYN076AAXX  06061 56312 32680 61103 10076 21105 37068 57024 86100 333 00002 21037;EQDQ01  00002PRCP99
0137563120999992000020609004+29570+094470FM-12+300199999V0201601N003012200019N0300001N1+00941-01171999999ADDGF104991031011012501001021MA1999999070371MD1710311+0001REMSYN070AAXX  06091 56312 42680 41603 10094 21117 37037 57031 83102 333 00000;
0167563120999992000020612004+29570+094470FM-12+300199999V0200701N005010120019N0300001N1+00401-01081999999ADDAA199000091GF107991071091012501999999MA1999999070451MD1210081+0001REMSYN070AAXX  06121 56312 32680 70705 10040 21108 37045 52008 879// 333 00000;EQDQ01  00002PRCP99
0127563120999992000020615004+29570+094470FM-12+300199999V0201101N004010120019N0300001N1+00291-01211999999ADDGF108991081091012501999999MA1999999070621MD1210171+9999REMSYN060AAXX  06151 56312 42680 81104 10029 21121 37062 52017 889//;
0186563120999992000020618004+29570+094470FM-12+300199999V0209999C000010120019N0300001N1+00041-01141999999ADDAA199000091GF108991081041012501999999KA1999M+00951MA1999999070671MD1210051-0101REMSYN076AAXX  06181 56312 32680 80000 10004 21114 37067 52005 884// 333 05152 10095;EQDQ01  00002PRCP99
0185563120999992000020621004+29570+094470FM-12+300199999V0201401N002010075019N0300001N1-00181-00851999999ADDAA199000091GF107991071041008001999999IA2999-00409MA1999999070581MD1410001-0201REMSYN076AAXX  06211 56312 32580 71402 11018 21085 37058 54000 874// 333 05200 31044;EQDQ01  00002PRCP99
0185563120999992000020700004+29570+094470FM-12+300199999V0201401N002010075019N0300001N1-00181-00851999999ADDAA199000091GF107991071041008001999999IA2999-00409MA1999999070581MD1410001-0201REMSYN076AAXX  07001 56312 32580 71402 11018 21085 37058 54000 874// 333 05200 31044;EQDQ01  00002PRCP99
0137563120999992000020703004+29570+094470FM-12+300199999V0201601N002010075019N0300001N1+00241-00861999999ADDGF107991071041008001999999MA1999999070681MD1210101+0021REMSYN070AAXX  07031 56312 42580 71602 10024 21086 37068 52010 874// 333 05201;
0156563120999992000020706004+29570+094470FM-12+300199999V0200901N006010120019N0300001N1+00571-01071999999ADDGF107991071041012501999999KA1999N-00241MA1999999070471MD1710211-0201REMSYN076AAXX  07061 56312 42680 70906 10057 21107 37047 57021 874// 333 05252 21024;
0137563120999992000020709004+29570+094470FM-12+300199999V0201601N003010120019N0300001N1+00601-00871999999ADDGF107991071091012501999999MA1999999070271MD1710201+0011REMSYN070AAXX  07091 56312 42680 71603 10060 21087 37027 57020 879// 333 05153;
0167563120999992000020712004+29570+094470FM-12+300199999V0201101N005010120019N0300001N1+00341-00891999999ADDAA199000091GF107991061041012501001021MA1999999070381MD1210111+0011REMSYN070AAXX  07121 56312 32680 71105 10034 21089 37038 52011 86402 333 05151;EQDQ01  00002PRCP99
0127563120999992000020715004+29570+094470FM-12+300199999V0201601N003010150019N0300001N1+00101-00671999999ADDGF107991071041017501001001MA1999999070551MD1210171+9999REMSYN060AAXX  07151 56312 42780 71603 10010 21067 37055 52017 87400;
0196563120999992000020718004+29570+094470FM-12+300199999V0201801N001012200019N0300001N1-00111-00971999999ADDAA199000091GA1001+999999999GF100991001001999999001001KA1999M+00841MA1999999070581MD1210031-0101REMSYN070AAXX  07181 56312 32980 01801 11011 21097 37058 52003 333 05152 10084;EQDQ01  00002PRCP99
0167563120999992000020800004+29570+094470FM-12+300199999V0209999C000010120019N0300001N1-00321-01021999999ADDAA199000091GF107991071041012501999999MA1999999070651MD1210051+0011REMSYN070AAXX  08001 56312 32680 70000 11032 21102 37065 52005 874// 333 00151;EQDQ01  00002PRCP99
0137563120999992000020803004+29570+094470FM-12+300199999V0209999C000010120019N0300001N1-00061-01011999999ADDGF107991071051012501001001MA1999999070761MD1210111+0011REMSYN070AAXX  08031 56312 42680 70000 11006 21101 37076 52011 87500 333 00153;
0186563120999992000020806004+29570+094470FM-12+300199999V0201401N004012200019N0300001N1+00581-01301999999ADDAA199000091GF103991031011012501001001KA1999N-00471MA1999999070571MD1710191+0101REMSYN076AAXX  08061 56312 32680 31404 10058 21130 37057 57019 83100 333 00100 21047;EQDQ01  00002PRCP99
0137563120999992000020809004+29570+094470FM-12+300199999V0201101N007012200019N0300001N1+00821-01151999999ADDGF102991021041012501001001MA1999999070231MD1710341+0001REMSYN070AAXX  08091 56312 42680 21107 10082 21115 37023 57034 82400 333 00002;
0167563120999992000020812004+29570+094470FM-12+300199999V0200901N007010120019N0300001N1+00371-01141999999ADDAA199000091GF107991071041012501001001MA1999999070331MD1210101+0011REMSYN070AAXX  08121 56312 32680 70907 10037 21114 37033 52010 87400 333 05100;EQDQ01  00002PRCP99
0127563120999992000020815004+29570+094470FM-12+300199999V0201101N004010120019N0300001N1+00311-01071999999ADDGF107991071041012501999999MA1999999070471MD1210141+9999REMSYN060AAXX  08151 56312 42680 71104 10031 21107 37047 52014 874//;
0186563120999992000020818004+29570+094470FM-12+300199999V0201401N002010120019N0300001N1+00131-00771999999ADDAA199000091GF108991081041012501999999KA1999M+00881MA1999999070461MD1710011-0101REMSYN076AAXX  08181 56312 32680 81402 10013 21077 37046 57001 884// 333 05102 10088;EQDQ01  00002PRCP99
0148563120999992000020821004+29570+094470FM-12+300199999V0201101N003019999999N0300001N1-00011-00601999999ADDAA124849992GF108991999999012501999999MA1999999070421MD1710041+9999REMSYN070AAXX  08211 56312 41680 81103 11001 21060 37042 57004 333 78500 884//;
0198563120999992000020900004+29570+094470FM-12+300199999V0209999C000010075019N0300001N1-00161-00491999999ADDAA106000191AY181061GF108991081041008001999999IA2999-00089MA1999999070441MD1210021-0201MW1851REMSYN094AAXX  09001 56312 11580 80000 11016 21049 37044 52002 69921 78580 884// 333 05202 31008 70002;
0165563120999992000020903004+29570+094470FM-12+300199999V0201401N002010042019N0300001N1-00011-00501999999ADDAY181031AY281031GF107991071041004501999999MA1999999070511MD1210071+0031MW1851REMSYN076AAXX  09031 56312 41480 71402 11001 21050 37051 52007 78588 874// 333 05301;
0193563120999992000020906004+29570+094470FM-12+300199999V0201601N004010075019N0300001N1+00561-00541999999ADDAA106000791AY181061GF107991071091008001001001KA1999N-00211MA1999999070311MD1710201-0301MW1851REMSYN088AAXX  09061 56312 11580 71604 10056 21054 37031 57020 69901 78580 87900 333 05300 21021;
0157563120999992000020909004+29570+094470FM-12+300199999V0201801N005012200019N0300001N1+00821-01001999999ADDAY181031GF104991041091012501001001MA1999999070061MD1710251+0021MW1001REMSYN076AAXX  09091 56312 41680 41805 10082 21100 37006 57025 70080 84900 333 05200;
0174563120999992000020912004+29570+094470FM-12+300199999V0201601N005010120019N0300001N1+00341-01061999999ADDAA106000791AY181061GF107991071041012501001001MA1999999070171MD1210111+0021MW1001REMSYN082AAXX  09121 56312 11680 71605 10034 21106 37017 52011 69901 70080 87400 333 05200;
0127563120999992000020915004+29570+094470FM-12+300199999V0201101N003010120019N0300001N1+00171-00891999999ADDGF106991061041012501001001MA1999999070371MD1210201+9999REMSYN060AAXX  09151 56312 42680 61103 10017 21089 37037 52020 86400;
0167563120999992000020918004+29570+094470FM-12+300199999V0201401N003010120019N0300001N1+00071-00791999999ADDAA199000021GF107991071091012501999999KA1999M+00961MA1999999070421MD1210051+0001REMSYN076AAXX  09181 56312 32680 71403 10007 21079 37042 52005 879// 333 00051 10096;
0154563120999992000020921004+29570+094470FM-12+300199999V0201401N003012200019N0300001N1-00071-00791999999ADDAA124000391GF102991021041008001001001MA1999999070431MD1210011+0001REMSYN076AAXX  09211 56312 42580 21403 11007 21079 37043 52001 82400 333 00051 70002;
0154563120999992000021000004+29570+094470FM-12+300199999V0209999C000012200019N0300001N1-00371-00931999999ADDAA124000791GF101991011041008001001001MA1999999070561MD1210131+0101REMSYN076AAXX  10001 56312 32580 10000 11037 21093 37056 52013 81400 333 00152 79999;
0137563120999992000021003004+29570+094470FM-12+300199999V0201401N003012200019N0300001N1+00231-00721999999ADDGF102991021011012501001001MA1999999070721MD1210161+0021REMSYN070AAXX  10031 56312 42680 21403 10023 21072 37072 52016 82100 333 00202;
0186563120999992000021006004+29570+094470FM-12+300199999V0201101N003012200019N0300001N1+00661-00621999999ADDAA199000091GF103991031041012501001001KA1999N-00531MA1999999070501MD1710221+0201REMSYN076AAXX  10061 56312 32680 31103 10066 21062 37050 57022 83400 333 00201 21053;EQDQ01  00002PRCP99
0137563120999992000021009004+29570+094470FM-12+300199999V0201401N006012200019N0300001N1+00901-00791999999ADDGF103991031041012501001001MA1999999070211MD1710291+0021REMSYN070AAXX  10091 56312 42680 31406 10090 21079 37021 57029 83400 333 00201;
0167563120999992000021012004+29570+094470FM-12+300199999V0200901N005010120019N0300001N1+00351-01001999999ADDAA199000091GF107991071041012501001001MA1999999070371MD1210161+0021REMSYN070AAXX  10121 56312 32680 70905 10035 21100 37037 52016 87400 333 00200;EQDQ01  00002PRCP99
0127563120999992000021015004+29570+094470FM-12+300199999V0200701N005010150019N0300001N1+00191-01031999999ADDGF107991071041017501001001MA1999999070601MD1210231+9999REMSYN060AAXX  10151 56312 42780 70705 10019 21103 37060 52023 87400;
0196563120999992000021018004+29570+094470FM-12+300199999V0201401N003010150019N0300001N1+00111-01051999999ADDAA199000091GF108991081041017501999999KA1999M+99999MA1999999070611MD1210011+9999REMSYN070AAXX  10181 56312 32780 81403 10011 21105 37061 52001 884// 333 11033;EQDQ01  00002PRCP99Q02 -00332ATMX  
0137563120999992000021021004+29570+094470FM-12+300199999V0201801N002010120019N0300001N1-00031-01001999999ADDGF108991081041012501999999MA1999999070531MD1710081+0011REMSYN070AAXX  10211 56312 42680 81802 11003 21100 37053 57008 884// 333 00100;
0185563120999992000021100004+29570+094470FM-12+300199999V0209999C000010075019N0300001N1-00111-01051999999ADDAA199000091GF108991081041008001999999IA2999-00209MA1999999070611MD1210081+0101REMSYN076AAXX  11001 56312 32580 80000 11011 21105 37061 52008 884// 333 00103 31023;EQDQ01  00002PRCP99
0137563120999992000021103004+29570+094470FM-12+300199999V0200701N002012200019N0300001N1+00311-00771999999ADDGF102991021041012501001001MA1999999070731MD1210121+0001REMSYN070AAXX  11031 56312 42680 20702 10031 21077 37073 52012 82400 333 00001;
0186563120999992000021106004+29570+094470FM-12+300199999V0201101N003012200019N0300001N1+00731-00841999999ADDAA199000091GF103991031041012501001001KA1999N-00191MA1999999070481MD1710251+0001REMSYN076AAXX  11061 56312 32680 31103 10073 21084 37048 57025 83400 333 00001 21019;EQDQ01  00002PRCP99
0137563120999992000021109004+29570+094470FM-12+300199999V0201101N005012200019N0300001N1+00821-00711999999ADDGF102991021041012501001001MA1999999070251MD1710231+0001REMSYN070AAXX  11091 56312 42680 21105 10082 21071 37025 57023 82400 333 00051;
0167563120999992000021112004+29570+094470FM-12+300199999V0200901N007010120019N0300001N1+00331-00831999999ADDAA199000091GF108991081091012501999999MA1999999070451MD1210201+0011REMSYN070AAXX  11121 56312 32680 80907 10033 21083 37045 52020 889// 333 00100;EQDQ01  00002PRCP99
0127563120999992000021115004+29570+094470FM-12+300199999V0200901N004010120019N0300001N1+00171-00941999999ADDGF107991071041012501999999MA1999999070631MD1210181+9999REMSYN060AAXX  11151 56312 42680 70904 10017 21094 37063 52018 874//;
0186563120999992000021118004+29570+094470FM-12+300199999V0200701N002010120019N0300001N1+00091-00921999999ADDAA199000091GF108991081041012501999999KA1999M+00991MA1999999070681MD1210051+0101REMSYN076AAXX  11181 56312 32680 80702 10009 21092 37068 52005 884// 333 00100 10099;EQDQ01  00002PRCP99
0185563120999992000021200004+29570+094470FM-12+300199999V0201601N003010120019N0300001N1-00081-00921999999ADDAA199000091GF107991071041012501999999IA2999-00109MA1999999070651MD1210071+0001REMSYN076AAXX  12001 56312 32680 71603 11008 21092 37065 52007 874// 333 00000 31014;EQDQ01  00002PRCP99
0137563120999992000021203004+29570+094470FM-12+300199999V0201601N004010075019N0300001N1+00101-00851999999ADDGF107991071041008001999999MA1999999070791MD1210141+0011REMSYN070AAXX  12031 56312 42580 71604 10010 21085 37079 52014 874// 333 00152;
0186563120999992000021206004+29570+094470FM-12+300199999V0201401N006010075019N0300001N1+00481-00981999999ADDAA199000091GF107991071091008001999999KA1999N-00111MA1999999070631MD1710161+0201REMSYN076AAXX  12061 56312 32580 71406 10048 21098 37063 57016 879// 333 00253 21011;EQDQ01  00002PRCP99
0137563120999992000021209004+29570+094470FM-12+300199999V0201401N008010120019N0300001N1+00571-01111999999ADDGF107991071041012501999999MA1999999070411MD1710221+0021REMSYN070AAXX  12091 56312 42680 71408 10057 21111 37041 57022 874// 333 00253;
0179563120999992000021212004+29570+094470FM-12+300199999V0200401N005010120019N0300001N1+00301-01101999999ADDAA199000091GF108991081091012501999999MA1999999070481MD1210071+0001MW1141REMSYN076AAXX  12121 56312 31680 80405 10030 21110 37048 52007 71400 889// 333 00000;EQDQ01  00002PRCP99
0127563120999992000021215004+29570+094470FM-12+300199999V0201401N004010120019N0300001N1+00151-01111999999ADDGF108991081091012501999999MA1999999070681MD1210201+9999REMSYN060AAXX  12151 56312 42680 81404 10015 21111 37068 52020 889//;
0186563120999992000021218004+29570+094470FM-12+300199999V0201401N002010075019N0300001N1+00071-00911999999ADDAA199000091GF108991081091008001999999KA1999M+00651MA1999999070731MD1210051+0101REMSYN076AAXX  12181 56312 32580 81402 10007 21091 37073 52005 889// 333 00100 10065;EQDQ01  00002PRCP99
0137563120999992000021221004+29570+094470FM-12+300199999V0201601N003010075019N0300001N1-00021-00721999999ADDGF108991081041008001999999MA1999999070741MD1210011+0021REMSYN070AAXX  12211 56312 42580 81603 11002 21072 37074 52001 884// 333 00200;
0185563120999992000021300004+29570+094470FM-12+300199999V0209999C000010120019N0300001N1-00101-00731999999ADDAA199000091GF108991081041012501999999IA2999-00109MA1999999070801MD1210061+0201REMSYN076AAXX  13001 56312 32680 80000 11010 21073 37080 52006 884// 333 00200 31013;EQDQ01  00002PRCP99
0137563120999992000021303004+29570+094470FM-12+300199999V0209999C000010120019N0300001N1+00091-00621999999ADDGF107991071081008001999999MA1999999070961MD1210161+0021REMSYN070AAXX  13031 56312 42580 70000 10009 21062 37096 52016 878// 333 00200;
0186563120999992000021306004+29570+094470FM-12+300199999V0201401N003010120019N0300001N1+00481-00741999999ADDAA199000091GF107991071041012501001001KA1999N-00141MA1999999070771MD1710191+0101REMSYN076AAXX  13061 56312 32680 71403 10048 21074 37077 57019 87400 333 00100 21014;EQDQ01  00002PRCP99
0137563120999992000021309004+29570+094470FM-12+300199999V0201101N004010120019N0300001N1+00601-00801999999ADDGF107991071041012501999999MA1999999070541MD1710231+0011REMSYN070AAXX  13091 56312 42680 71104 10060 21080 37054 57023 874// 333 00100;
0179563120999992000021312004+29570+094470FM-12+300199999V0200901N003010075019N0300001N1+00431-00711999999ADDAA199000091GF108991081091008001999999MA1999999070601MD1210061+0011MW1141REMSYN076AAXX  13121 56312 31580 80903 10043 21071 37060 52006 71400 889// 333 00101;EQDQ01  00002PRCP99
0127563120999992000021315004+29570+094470FM-12+300199999V0201101N004010120019N0300001N1+00311-00581999999ADDGF108991081091012501999999MA1999999070791MD1210191+9999REMSYN060AAXX  13151 56312 42680 81104 10031 21058 37079 52019 889//;
0198563120999992000021318004+29570+094470FM-12+300199999V0201101N007010075019N0300001N1+00191-00691999999ADDAA199000091GF108991081091008001999999KA1999M+00691MA1999999070861MD1210071+0101MW1141REMSYN082AAXX  13181 56312 31580 81107 10019 21069 37086 52007 71400 889// 333 00101 10069;EQDQ01  00002PRCP99
0137563120999992000021321004+29570+094470FM-12+300199999V0201601N003010075019N0300001N1+00141-00721999999ADDGF107991071041008001999999MA1999999070701MD1710101+0001REMSYN070AAXX  13211 56312 42580 71603 10014 21072 37070 57010 874// 333 00002;
0185563120999992000021400004+29570+094470FM-12+300199999V0201801N003010075019N0300001N1+00041-00811999999ADDAA199000091GF107991071041008001999999IA2999-00109MA1999999070761MD1410001+0001REMSYN076AAXX  14001 56312 32580 71803 10004 21081 37076 54000 874// 333 00001 31012;EQDQ01  00002PRCP99
0137563120999992000021403004+29570+094470FM-12+300199999V0201401N003010075019N0300001N1+00251-00651999999ADDGF107991071041008001999999MA1999999070911MD1210151+0011REMSYN070AAXX  14031 56312 42580 71403 10025 21065 37091 52015 874// 333 05102;
0186563120999992000021406004+29570+094470FM-12+300199999V0201101N006010120019N0300001N1+00721-00911999999ADDAA199000091GF107991071041012501999999KA1999N+00001MA1999999070691MD1710221-0101REMSYN076AAXX  14061 56312 32680 71106 10072 21091 37069 57022 874// 333 05102 20000;EQDQ01  00002PRCP99
0137563120999992000021409004+29570+094470FM-12+300199999V0200901N007010120019N0300001N1+00761-00951999999ADDGF107991071091012501999999MA1999999070481MD1710211+0011REMSYN070AAXX  14091 56312 42680 70907 10076 21095 37048 57021 879// 333 05102;
0167563120999992000021412004+29570+094470FM-12+300199999V0201401N005010120019N0300001N1+00441-00881999999ADDAA199000091GF107991071041012501999999MA1999999070541MD1210061+0011REMSYN070AAXX  14121 56312 32680 71405 10044 21088 37054 52006 874// 333 05100;EQDQ01  00002PRCP99
0186563120999992000021418004+29570+094470FM-12+300199999V0201101N006010150019N0300001N1+00241-00751999999ADDAA199000091GF107991071041017501999999KA1999M+00921MA1999999070651MD1210031-0201REMSYN076AAXX  14181 56312 32780 71106 10024 21075 37065 52003 874// 333 05201 10092;EQDQ01  00002PRCP99
0137563120999992000021421004+29570+094470FM-12+300199999V0200901N004010150019N0300001N1+00141-00831999999ADDGF107991071041017501999999MA1999999070701MD1210051+0011REMSYN070AAXX  14211 56312 42780 70904 10014 21083 37070 52005 874// 333 05100;
0185563120999992000021500004+29570+094470FM-12+300199999V0201601N002010075019N0300001N1+00001-00991999999ADDAA199000091GF108991081041008001999999IA2999-00109MA1999999070781MD1210081+0001REMSYN076AAXX  15001 56312 32580 81602 10000 21099 37078 52008 884// 333 00000 31017;EQDQ01  00002PRCP99
0137563120999992000021503004+29570+094470FM-12+300199999V0201601N004010075019N0300001N1+00191-01181999999ADDGF107991071051008001999999MA1999999070871MD1210091+0001REMSYN070AAXX  15031 56312 42580 71604 10019 21118 37087 52009 875// 333 00051;
0186563120999992000021506004+29570+094470FM-12+300199999V0200901N005010900019N0300001N1+00731-01221999999ADDAA199000091GF107991031011012501001021KA1999N-00061MA1999999070741MD1710131+0101REMSYN076AAXX  15061 56312 32680 70905 10073 21122 37074 57013 83102 333 00100 21006;EQDQ01  00002PRCP99
0157563120999992000021509004+29570+094470FM-12+300199999V0209999C000010900019N0300001N1+00431-01121999999ADDAY181031GF107991031041008001001021MA1999999070701MD1710041+0021MW1001REMSYN076AAXX  15091 56312 41580 70000 10043 21112 37070 57004 70080 83402 333 00253;
0174563120999992000021512004+29570+094470FM-12+300199999V0201101N002012200019N0300001N1+00241-00871999999ADDAA106000791AY181061GF102991021041012501001001MA1999999070821MD1210121+0031MW1001REMSYN082AAXX  15121 56312 11680 21102 10024 21087 37082 52012 69901 70080 82400 333 00352;
0137563120999992000021515004+29570+094470FM-12+300199999V0209999C000012200019N0300001N1-00281-00811999999ADDGA1001+999999999GF100991001001999999001001MA1999999071121MD1210301+9999REMSYN054AAXX  15151 56312 42980 00000 11028 21081 37112 52030;
0186563120999992000021518004+29570+094470FM-12+300199999V0209999C000012200019N0300001N1-00381-00881999999ADDAA199000091GF101991011041012501001001KA1999M+00871MA1999999071211MD1210091+0601REMSYN076AAXX  15181 56312 32680 10000 11038 21088 37121 52009 81400 333 00656 10087;EQDQ01  00002PRCP99
0154563120999992000021521004+29570+094470FM-12+300199999V0203201N002012200019N0300001N1-00521-00991999999ADDAA124000791GF101991011041017501001001MA1999999071171MD1710041+0501REMSYN076AAXX  15211 56312 42780 13202 11052 21099 37117 57004 81400 333 00557 79999;
0164563120999992000021600004+29570+094470FM-12+300199999V0209999C000012200019N0300001N1-00691-01271999999ADDAA124000791GA1001+999999999GF100991001001999999001001MA1999999071131MD1710041+0401REMSYN070AAXX  16001 56312 32980 00000 11069 21127 37113 57004 333 00457 79999;
0137563120999992000021603004+29570+094470FM-12+300199999V0200401N003012200019N0300001N1-00131-01501999999ADDGF101991011041008001001011MA1999999071251MD1210121+0041REMSYN070AAXX  16031 56312 42580 10403 11013 21150 37125 52012 81401 333 00453;
0186563120999992000021606004+29570+094470FM-12+300199999V0201801N004010900019N0300001N1+00571-01511999999ADDAA199000091GF106991021041012501001021KA1999N-00751MA1999999070891MD1710361+0201REMSYN076AAXX  16061 56312 32680 61804 10057 21151 37089 57036 82402 333 00252 21075;EQDQ01  00002PRCP99
0137563120999992000021609004+29570+094470FM-12+300199999V0201401N009010120019N0300001N1+00871-01481999999ADDGF107991071041012501999999MA1999999070461MD1710431+0021REMSYN070AAXX  16091 56312 42680 71409 10087 21148 37046 57043 874// 333 05204;
0167563120999992000021612004+29570+094470FM-12+300199999V0201401N007010120019N0300001N1+00521-01221999999ADDAA199000091GF107991071041012501999999MA1999999070471MD1210011+0041REMSYN070AAXX  16121 56312 32680 71407 10052 21122 37047 52001 874// 333 05403;EQDQ01  00002PRCP99
0127563120999992000021615004+29570+094470FM-12+300199999V0201801N004010120019N0300001N1+00271-01061999999ADDGF107991071041012501999999MA1999999070671MD1210201+9999REMSYN060AAXX  16151 56312 42680 71804 10027 21106 37067 52020 874//;
0186563120999992000021618004+29570+094470FM-12+300199999V0201601N003010120019N0300001N1+00131-00921999999ADDAA199000091GF107991071091012501999999KA1999M+01051MA1999999070721MD1210051-0501REMSYN076AAXX  16181 56312 32680 71603 10013 21092 37072 52005 879// 333 05505 10105;EQDQ01  00002PRCP99
0137563120999992000021621004+29570+094470FM-12+300199999V0201801N003010150019N0300001N1+00071-00911999999ADDGF107991071041017501999999MA1999999070591MD1710131+0061REMSYN070AAXX  16211 56312 42780 71803 10007 21091 37059 57013 874// 333 05606;
0185563120999992000021700004+29570+094470FM-12+300199999V0201401N003010075019N0300001N1+00041-00921999999ADDAA199000091GF107991071041008001999999IA2999+00009MA1999999070491MD1710101-0601REMSYN076AAXX  17001 56312 32580 71403 10004 21092 37049 57010 874// 333 05607 31008;EQDQ01  00002PRCP99
0149563120999992000021703004+29570+094470FM-12+300199999V0201601N003010075019N0300001N1+00221-00781999999ADDGF107991071041008001999999MA1999999070531MD1210041+0071MW1141REMSYN076AAXX  17031 56312 41580 71603 10022 21078 37053 52004 71400 874// 333 05704;
0193563120999992000021706004+29570+094470FM-12+300199999V0201101N005010120019N0300001N1+00541-01031999999ADDAA106000791AY181061GF107991071041012501999999KA1999N-00031MA1999999070321MD1710211-0601MW1261REMSYN088AAXX  17061 56312 11680 71105 10054 21103 37032 57021 69901 72680 874// 333 05600 21003;
0137563120999992000021709004+29570+094470FM-12+300199999V0201401N005010120019N0300001N1+00701-00891999999ADDGF107991051041012501001021MA1999999070081MD1710241+0041REMSYN070AAXX  17091 56312 42680 71405 10070 21089 37008 57024 85402 333 05452;
0183563120999992000021712004+29570+094470FM-12+300199999V0201401N004010075019N0300001N1+00171-00821999999ADDAA199000021GF108991081041008001999999MA1999999070201MD1210121-0301MW1141OA130601801REMSYN088AAXX  17121 56312 31580 81404 10017 21082 37020 52012 71400 884// 333 05354 91118 91509;
0193563120999992000021718004+29570+094470FM-12+300199999V0201601N004010075019N0300001N1-00161-00741999999ADDAA106000791AY181061GF107991071041008001999999KA1999M+00881MA1999999070401MD1210011-0301MW1261REMSYN088AAXX  17181 56312 11580 71604 11016 21074 37040 52001 69901 72680 874// 333 05353 10088;
0154563120999992000021721004+29570+094470FM-12+300199999V0201601N002010120019N0300001N1-00201-00841999999ADDAA124000791GF108991081041012501999999MA1999999070331MD1710071-0301REMSYN076AAXX  17211 56312 42680 81602 11020 21084 37033 57007 884// 333 05353 79999;
0198563120999992000021800004+29570+094470FM-12+300199999V0201401N002010075019N0300001N1-00241-01101999999ADDAA106000191AY181061GF108991081041008001999999IA2999-00439MA1999999070391MD1210061-0101MW1001REMSYN094AAXX  18001 56312 11580 81402 11024 21110 37039 52006 69911 70080 884// 333 05153 31043 70001;
0157563120999992000021803004+29570+094470FM-12+300199999V0201601N002010075019N0300001N1-00181-00741999999ADDAY181031GF108991081041008001999999MA1999999070511MD1210121+0001MW1851REMSYN076AAXX  18031 56312 42580 81602 11018 21074 37051 52012 78580 884// 333 00054;
0193563120999992000021806004+29570+094470FM-12+300199999V0201101N006010075019N0300001N1+00291-00691999999ADDAA106000791AY181061GF108991081041008001999999KA1999N-00281MA1999999070341MD1710171+0001MW1141REMSYN088AAXX  18061 56312 11580 81106 10029 21069 37034 57017 69901 71480 884// 333 00053 21028;
0149563120999992000021809004+29570+094470FM-12+300199999V0201101N006010075019N0300001N1+00391-01081999999ADDGF108991081091008001999999MA1999999070091MD1710251+0001MW1141REMSYN076AAXX  18091 56312 41580 81106 10039 21108 37009 57025 71400 889// 333 00053;
0166563120999992000021812004+29570+094470FM-12+300199999V0201101N007010075019N0300001N1+00091-00831999999ADDAA106000791GF108991081091008001999999MA1999999070191MD1210101+0001MW1851REMSYN082AAXX  18121 56312 11580 81107 10009 21083 37019 52010 69901 78500 889// 333 00051;
0147563120999992000021815004+29570+094470FM-12+300199999V0201101N004010075019N0300001N1-00121-00621999999ADDAY181031GF107991071091008001999999MA1999999070311MD1210121+9999MW1851REMSYN066AAXX  18151 56312 41580 71104 11012 21062 37031 52012 78580 879//;
0193563120999992000021818004+29570+094470FM-12+300199999V0201801N003010075019N0300001N1-00151-00761999999ADDAA106000791AY181061GF108991081041008001999999KA1999M+00481MA1999999070361MD1210051+0001MW1851REMSYN088AAXX  18181 56312 11580 81803 11015 21076 37036 52005 69901 78580 884// 333 00000 10048;
0174563120999992000021821004+29570+094470FM-12+300199999V0201601N004010075019N0300001N1-00201-00991999999ADDAA124000191AY181031GF108991081041008001999999MA1999999070311MD1710051+0001MW1141REMSYN082AAXX  18211 56312 41580 81604 11020 21099 37031 57005 71480 884// 333 00000 70001;
0198563120999992000021900004+29570+094470FM-12+300199999V0200901N002010075019N0300001N1-00281-01161999999ADDAA106000791AY181061GF107991061041008001001021IA2999-00459MA1999999070381MD1210071+0001MW1001REMSYN094AAXX  19001 56312 11580 70902 11028 21116 37038 52007 69901 70080 86402 333 00000 31045 79999;
