0124570910999992000010109004+34750+114420FM-12+006799999V0202501N002019999999N0060001N1+00241-00161102211ADDGF108991081001999999021999MD1210021+9999MW1101REMSYN066AAXX  01091 57091 41956 82502 10024 21016 40221 52002 71000 8802/;
0134570910999992000010209004+34750+114420FM-12+006799999V0201401N002012200019N0080001N1+00731-00531102061ADDGA1001+999999999GF100991001001999999001001MD1710141+9999MW1051REMSYN060AAXX  02091 57091 41958 01402 10073 21053 40206 57014 70500;
0142570910999992000010221004+34750+114420FM-12+006799999V0200701N003012200019N0008001N1+00061+00001101961ADDAY141031GA1001+999999999GF100991001001999999001001MD1410001+9999MW1441REMSYN060AAXX  02211 57091 41908 00703 10006 20000 40196 54000 74440;
0140570910999992000010309004+34750+114420FM-12+006799999V0200401N004019999999N0008001N1+00081-00121101911ADDAY141031AY241031GF108991081001999999021999MD1210051+9999MW1421REMSYN066AAXX  03091 57091 41908 80404 10008 21012 40191 52005 74244 8802/;
0124570910999992000010321004+34750+114420FM-12+006799999V0200201N004019999999N0060001N1-00081-00891102071ADDGF107991001001999999001021MD1710051+9999MW1051REMSYN066AAXX  03211 57091 41956 70204 11008 21089 40207 57005 70500 80002;
0112570910999992000010421004+34750+114420FM-12+006799999V0200201N005019999999N0100001N1-00011-00461101941ADDGF108991081001999999021999MD1710041+9999REMSYN060AAXX  04211 57091 42960 80205 11001 21046 40194 57004 8802/;
0140570910999992000010509004+34750+114420FM-12+006799999V0200201N005010075019N0050001N1-00061-00131102201ADDAY171031AY261031GF108991071071008001021999MD1210131+9999MW1711REMSYN066AAXX  05091 57091 41550 80205 11006 21013 40220 52013 77176 8772/;
0145570910999992000010521004+34750+114420FM-12+006799999V0200901N001019999999N0060001N1-00051-00201102511ADDAA124000391GF108991081001999999021999MD1710041+9999MW1101REMSYN076AAXX  05211 57091 41956 80901 11005 21020 40251 57004 71000 8802/ 333 70002;
0122570910999992000010609004+34750+114420FM-12+006799999V0200701N003012200019N0100001N1+00351-00691102541ADDGA1001+999999999GF100991001001999999001001MD1710011+9999REMSYN054AAXX  06091 57091 42960 00703 10035 21069 40254 57001;
0112570910999992000010621004+34750+114420FM-12+006799999V0200701N003012200019N0110001N1-00471-01341103101ADDGF102991021001999999041001MD1210021+9999REMSYN060AAXX  06211 57091 42961 20703 11047 21134 40310 52002 82040;
0140570910999992000010709004+34750+114420FM-12+006799999V0200701N001019999999N0120001N1-00281-00691102571ADDAY171031AY271031GF108991081001999999021999MD1710101+9999MW1701REMSYN066AAXX  07091 57091 41962 80701 11028 21069 40257 57010 77077 8802/;
0145570910999992000010721004+34750+114420FM-12+006799999V0209999C000019999999N0500001N1-00171-00291102311ADDAA124000791GF108991081001999999021999MD1710021+9999MW1001REMSYN076AAXX  07211 57091 41999 80000 11017 21029 40231 57002 70000 8802/ 333 79999;
0140570910999992000010809004+34750+114420FM-12+006799999V0200401N003019999999N0080001N1-00061-00381102151ADDAY171031AY271031GF108991081001999999021999MD1710051+9999MW1221REMSYN066AAXX  08091 57091 41958 80403 11006 21038 40215 57005 72277 8802/;
0161570910999992000010821004+34750+114420FM-12+006799999V0209999C000019999999N0020001N1-00111-00161102131ADDAA124000391AY171031AY271031GF108991081001999999021999MD1710091+9999MW1701REMSYN076AAXX  08211 57091 41920 80000 11011 21016 40213 57009 77077 8802/ 333 70002;
0124570910999992000010909004+34750+114420FM-12+006799999V0201401N002012200019N0060001N1+00381-00091102101ADDGF102991001001999999001021MD1710021+9999MW1051REMSYN066AAXX  09091 57091 41956 21402 10038 21009 40210 57002 70500 80002;
0145570910999992000010921004+34750+114420FM-12+006799999V0200201N003019999999N0040001N1-00101-00291102571ADDAA124000191GF108991081001999999021999MD1710061+9999MW1101REMSYN076AAXX  09211 57091 41940 80203 11010 21029 40257 57006 71000 8802/ 333 70001;
0140570910999992000011009004+34750+114420FM-12+006799999V0200401N006019999999N0020001N1-00061-00071102591ADDAY161031AY261031GF108991081001999999021999MD1710011+9999MW1791REMSYN066AAXX  10091 57091 41920 80406 11006 21007 40259 57001 77966 8802/;
0161570910999992000011021004+34750+114420FM-12+006799999V0200401N008019999999N0015001N1-00181-00241102561ADDAA124009491AY171031AY271031GF108991081001999999021999MD1710051+9999MW1171REMSYN076AAXX  10211 57091 41915 80408 11018 21024 40256 57005 71777 8802/ 333 70093;
0140570910999992000011109004+34750+114420FM-12+006799999V0200201N007019999999N0020001N1-00281-00461102651ADDAY171031AY271031GF108991081001999999021999MD1210081+9999MW1711REMSYN066AAXX  11091 57091 41920 80207 11028 21046 40265 52008 77177 8802/;
0145570910999992000011121004+34750+114420FM-12+006799999V0200401N004019999999N0090001N1-00371-00531102601ADDAA124002591GF108991081001999999021999MD1710171+9999MW1101REMSYN076AAXX  11211 57091 41959 80404 11037 21053 40260 57017 71000 8802/ 333 70025;
0140570910999992000011209004+34750+114420FM-12+006799999V0200901N002019999999N0060001N1-00261-00461102461ADDAY171031AY271031GF108991081001999999021999MD1710031+9999MW1701REMSYN066AAXX  12091 57091 41956 80902 11026 21046 40246 57003 77077 8802/;
0145570910999992000011221004+34750+114420FM-12+006799999V0200901N004019999999N0030001N1-00601-00681102621ADDAA124000791GF108991081001999999021999MD1210031+9999MW1101REMSYN076AAXX  12211 57091 41930 80904 11060 21068 40262 52003 71000 8802/ 333 79999;
0112570910999992000011309004+34750+114420FM-12+006799999V0200701N004019999999N0100001N1-00271-00721102611ADDGF108991081001999999021999MD1710051+9999REMSYN060AAXX  13091 57091 42960 80704 11027 21072 40261 57005 8802/;
0137570910999992000011321004+34750+114420FM-12+006799999V0200401N001019999999N0110001N1-00471-00781102721ADDAA124000791GF108991081001999999021999MD1710041+9999REMSYN074    AAXX  13211 57091 42961 80401 11047 21078 40272 57004 8802/ 333 79999;
0116570910999992000011409004+34750+114420FM-12+006799999V0200401N002019999999N0100001N1-00201-00801102661ADDGF108991081001999999021999MD1210041+9999REMSYN064    AAXX  14091 57091 42960 80402 11020 21080 40266 52004 8802/;
0165570910999992000011421004+34750+114420FM-12+006799999V0200401N003019999999N0060001N1-00381-00471102781ADDAA124002391AY171031AY271031GF108991081001999999021999MD1710071+9999MW1701REMSYN080    AAXX  14211 57091 41956 80403 11038 21047 40278 57007 77077 8802/ 333 70023;
0144570910999992000011509004+34750+114420FM-12+006799999V0200401N002019999999N0030001N1-00261-00401102761ADDAY171031AY271031GF108991081001999999021999MD1210011+9999MW1711REMSYN070    AAXX  15091 57091 41930 80402 11026 21040 40276 52001 77177 8802/;
0165570910999992000011521004+34750+114420FM-12+006799999V0200201N003019999999N0040001N1-00381-00541103181ADDAA124003891AY171031AY271031GF108991081001999999021999MD1210031+9999MW1701REMSYN080    AAXX  15211 57091 41940 80203 11038 21054 40318 52003 77077 8802/ 333 70038;
0128570910999992000011609004+34750+114420FM-12+006799999V0200201N004019999999N0030001N1-00151-00521103161ADDGF108991081001999999021999MD1710011+9999MW1101REMSYN070    AAXX  16091 57091 41930 80204 11015 21052 40316 57001 71000 8802/;
0149570910999992000011621004+34750+114420FM-12+006799999V0209999C000019999999N0030001N1-00341-00461103751ADDAA124000391GF108991081001999999021999MD1710051+9999MW1101REMSYN080    AAXX  16211 57091 41930 80000 11034 21046 40375 57005 71000 8802/ 333 70003;
0128570910999992000011709004+34750+114420FM-12+006799999V0201801N002012200019N0060001N1-00101-00391102891ADDGF102991001001999999001021MD1710061+9999MW1101REMSYN070    AAXX  17091 57091 41956 21802 11010 21039 40289 57006 71000 80002;
0175570910999992000011721004+34750+114420FM-12+006799999V0202701N001010001519N0001001N1+99999+99999102751ADDAA124000791AY141031AY241031GA1091+999999999GF109991091999999999999999MD1710161+9999MW1451REMSYN074    AAXX  17211 57091 41/01 92701 110/8 21065 40275 57016 74544 333 79999;
0126570910999992000011809004+34750+114420FM-12+006799999V0203601N001012200019N0100001N1+00371-00371102811ADDGA1001+999999999GF100991001001999999001001MD1210081+9999REMSYN058    AAXX  18091 57091 42960 03601 10037 21037 40281 52008;
0126570910999992000011821004+34750+114420FM-12+006799999V0200201N004012200019N0110001N1-00521-01571103431ADDGA1001+999999999GF100991001001999999001001MD1210041+9999REMSYN058    AAXX  18211 57091 42961 00204 11052 21157 40343 52004;
0126570910999992000011909004+34750+114420FM-12+006799999V0201801N003012200019N0200001N1-00081-01161103221ADDGA1001+999999999GF100991001001999999001001MD1710071+9999REMSYN058    AAXX  19091 57091 42970 01803 11008 21116 40322 57007;
0122570910999992000011921004+34750+114420FM-12+006799999V0201801N002012200019N0150001N1-00901-01111103311ADDGA1001+999999999GF100991001001999999001001MD1710011+9999REMSYN054AAXX  19211 57091 42965 01802 11090 21111 40331 57001;
0134570910999992000012009004+34750+114420FM-12+006799999V0200401N005012200019N0080001N1-00311-00921103711ADDGA1001+999999999GF100991001001999999001001MD1210031+9999MW1051REMSYN060AAXX  20091 57091 41958 00405 11031 21092 40371 52003 70500;
0112570910999992000012021004+34750+114420FM-12+006799999V0200401N004012200019N0100001N1-00761-01251103871ADDGF101991001001999999001021MD1710051+9999REMSYN060AAXX  20211 57091 42960 10404 11076 21125 40387 57005 80002;
0124570910999992000012109004+34750+114420FM-12+006799999V0200401N004019999999N0080001N1-00271-00681103401ADDGF108991081001999999021999MD1710071+9999MW1101REMSYN066AAXX  21091 57091 41958 80404 11027 21068 40340 57007 71000 8802/;
0145570910999992000012121004+34750+114420FM-12+006799999V0200201N002019999999N0040001N1-00421-00631102961ADDAA124000591GF108991081001999999021999MD1710191+9999MW1101REMSYN076AAXX  21211 57091 41940 80202 11042 21063 40296 57019 71000 8802/ 333 70006;
0134570910999992000012209004+34750+114420FM-12+006799999V0201401N002012200019N0030001N1-00061-00381102651ADDGA1001+999999999GF100991001001999999001001MD1210041+9999MW1101REMSYN060AAXX  22091 57091 41930 01402 11006 21038 40265 52004 71000;
0150570910999992000012221004+34750+114420FM-12+006799999V0200701N001010001519N0001001N1-00671-00801102901ADDAY141031AY241031GA1091+999999999GF109991091999999999999999MD1710011+9999MW1451REMSYN060AAXX  22211 57091 41/01 90701 11067 21080 40290 57001 74544;
0133570910999992000012321004+34750+114420FM-12+006799999V0200201N007019999999N0100001N1-00481-00661103921ADDAA124000791GF108991081001999999021999MD1210151+9999REMSYN070AAXX  23211 57091 42960 80207 11048 21066 40392 52015 8802/ 333 79999;
0112570910999992000012409004+34750+114420FM-12+006799999V0200201N004019999999N0150001N1-00461-01331104391ADDGF105991001001999999001021MD1210121+9999REMSYN060AAXX  24091 57091 42965 50204 11046 21133 40439 52012 80002;
0112570910999992000012509004+34750+114420FM-12+006799999V0200901N002012200019N0160001N1-00441-01361104251ADDGF102991021001999999041021MD1710081+9999REMSYN060AAXX  25091 57091 42966 20902 11044 21136 40425 57008 82042;
0122570910999992000012521004+34750+114420FM-12+006799999V0203401N001012200019N0130001N1-01041-01221104361ADDGA1001+999999999GF100991001001999999001001MD1710071+9999REMSYN054AAXX  25211 57091 42963 03401 11104 21122 40436 57007;
0122570910999992000012609004+34750+114420FM-12+006799999V0200401N003012200019N0120001N1-00151-01431104281ADDGA1001+999999999GF100991001001999999001001MD1410001+9999REMSYN054AAXX  26091 57091 42962 00403 11015 21143 40428 54000;
0134570910999992000012621004+34750+114420FM-12+006799999V0209999C000012200019N0080001N1-00981-01201104221ADDGA1001+999999999GF100991001001999999001001MD1710021+9999MW1101REMSYN060AAXX  26211 57091 41958 00000 11098 21120 40422 57002 71000;
0122570910999992000012709004+34750+114420FM-12+006799999V0201801N003012200019N0120001N1+00011-01011103881ADDGA1001+999999999GF100991001001999999001001MD1710081+9999REMSYN054AAXX  27091 57091 42962 01803 10001 21101 40388 57008;
0134570910999992000012721004+34750+114420FM-12+006799999V0201801N002012200019N0080001N1-00601+99999103531ADDGA1001+999999999GF100991001001999999001001MD1710161+9999MW1101REMSYN060AAXX  27211 57091 41958 01802 11060 2/103 40353 57016 71000;
0112570910999992000012809004+34750+114420FM-12+006799999V0201801N003019999999N0160001N1+00041-00811103231ADDGF108991081001999999011999MD1710061+9999REMSYN060AAXX  28091 57091 42966 81803 10004 21081 40323 57006 8801/;
0119570910999992000012821004+34750+114420FM-12+006799999V0201801N999992200019N0100001N1+99999+99999999999ADDGA1001+999999999GF100991001001999999001001REMSYN030AAXX  28211 57091 42960 01882;EQDQ01+008203WOSPD Q020008203WOSPD 
0124570910999992000012909004+34750+114420FM-12+006799999V0200701N003012200019N0070001N1+00161-00441103861ADDGF103991001001999999001021MD1210061+9999MW1051REMSYN066AAXX  29091 57091 41957 30703 10016 21044 40386 52006 70500 80002;
0122570910999992000012921004+34750+114420FM-12+006799999V0200401N004012200019N0120001N1-00561-01311104621ADDGA1001+999999999GF100991001001999999001001MD1210121+9999REMSYN054AAXX  29211 57091 42962 00404 11056 21131 40462 52012;
0112570910999992000013009004+34750+114420FM-12+006799999V0200901N003019999999N0200001N1-00181-01421104611ADDGF106991001001999999001021MD1710061+9999REMSYN060AAXX  30091 57091 42970 60903 11018 21142 40461 57006 80002;
0112570910999992000013109004+34750+114420FM-12+006799999V0200901N003019999999N0180001N1-00401-01561104461ADDGF107991001001999999001021MD1710111+9999REMSYN060AAXX  31091 57091 42968 70903 11040 21156 40446 57011 80002;
0122570910999992000013121004+34750+114420FM-12+006799999V0200901N001012200019N0120001N1-00961-01351104091ADDGA1001+999999999GF100991001001999999001001MD1710141+9999REMSYN054AAXX  31211 57091 42962 00901 11096 21135 40409 57014;
0122570910999992000020109004+34750+114420FM-12+006799999V0202001N004012200019N0180001N1-00161-01021103441ADDGA1001+999999999GF100991001001999999001001MD1710211+9999REMSYN054AAXX  01091 57091 42968 02004 11016 21102 40344 57021;
0142570910999992000020121004+34750+114420FM-12+006799999V0201801N002012200019N9999999N1-00641-00991103361ADDAW1101AZ101031GA1001+999999999GF100991001001999999001001MD1210011+9999REMSYN060AAXX  01211 57091 4558/ 01802 11064 21099 40336 52001 71000;
0122570910999992000020209004+34750+114420FM-12+006799999V0201801N003012200019N0120001N1+00161-00631103061ADDGA1001+999999999GF100991001001999999001001MD1710071+9999REMSYN054AAXX  02091 57091 42962 01803 10016 21063 40306 57007;
0134570910999992000020221004+34750+114420FM-12+006799999V0200701N002012200019N0070001N1-00401-00501103111ADDGA1001+999999999GF100991001001999999001001MD1710021+9999MW1101REMSYN060AAXX  02211 57091 41957 00702 11040 21050 40311 57002 71000;
0112570910999992000020309004+34750+114420FM-12+006799999V0200701N003012200019N0120001N1+00221-00551103131ADDGF102991001001999999001021MD1710041+9999REMSYN060AAXX  03091 57091 42962 20703 10022 21055 40313 57004 80002;
0124570910999992000020321004+34750+114420FM-12+006799999V0200701N002019999999N0050001N1-00221-00491103201ADDGF108991081001999999021999MD1710101+9999MW1101REMSYN066AAXX  03211 57091 41950 80702 11022 21049 40320 57010 71000 8802/;
0124570910999992000020409004+34750+114420FM-12+006799999V0201801N002019999999N0060001N1+00071-00331102881ADDGF108991081001999999021999MD1710021+9999MW1701REMSYN066AAXX  04091 57091 41956 81802 10007 21033 40288 57002 77000 8802/;
0153570910999992000020421004+34750+114420FM-12+006799999V0202001N002019999999N0040001N1-00181-00271102631ADDAA124000591AY171031GF108991081001999999021999MD1710171+9999MW1101REMSYN076AAXX  04211 57091 41940 82002 11018 21027 40263 57017 71070 8802/ 333 70006;
0134570910999992000020509004+34750+114420FM-12+006799999V0201801N002012200019N0030001N1+00401+00031102341ADDGA1001+999999999GF100991001001999999001001MD1710121+9999MW1101REMSYN060AAXX  05091 57091 41930 01802 10040 20003 40234 57012 71000;
0134570910999992000020521004+34750+114420FM-12+006799999V0202201N002012200019N0040001N1-00331-00401102361ADDGA1001+999999999GF100991001001999999001001MD1710081+9999MW1101REMSYN060AAXX  05211 57091 41940 02202 11033 21040 40236 57008 71000;
0112570910999992000020609004+34750+114420FM-12+006799999V0200701N002012200019N0120001N1+00901-00211102071ADDGF103991001001999999001021MD1710061+9999REMSYN060AAXX  06091 57091 42962 30702 10090 21021 40207 57006 80002;
0122570910999992000020621004+34750+114420FM-12+006799999V0202901N009012200019N0120001N1+00261-01161102521ADDGA1001+999999999GF100991001001999999001001MD1210151+9999REMSYN054AAXX  06211 57091 42962 02909 10026 21116 40252 52015;
0122570910999992000020709004+34750+114420FM-12+006799999V0202901N006012200019N0280001N1+00551-01351102651ADDGA1001+999999999GF100991001001999999001001MD1710161+9999REMSYN054AAXX  07091 57091 42978 02906 10055 21135 40265 57016;
0122570910999992000020721004+34750+114420FM-12+006799999V0203401N003012200019N0180001N1-00151-01001102561ADDGA1001+999999999GF100991001001999999001001MD1210171+9999REMSYN054AAXX  07211 57091 42968 03403 11015 21100 40256 52017;
0122570910999992000020809004+34750+114420FM-12+006799999V0200701N003012200019N0250001N1+00001-01201103061ADDGA1001+999999999GF100991001001999999001001MD1710071+9999REMSYN054AAXX  08091 57091 42975 00703 10000 21120 40306 57007;
0122570910999992000020821004+34750+114420FM-12+006799999V0209999C000012200019N0160001N1-00461-00811102691ADDGA1001+999999999GF100991001001999999001001MD1710141+9999REMSYN054AAXX  08211 57091 42966 00000 11046 21081 40269 57014;
0112570910999992000020909004+34750+114420FM-12+006799999V0201801N004012200019N0140001N1+00491-00501102141ADDGF102991001001999999001021MD1710151+9999REMSYN060AAXX  09091 57091 42964 21804 10049 21050 40214 57015 80002;
0122570910999992000020921004+34750+114420FM-12+006799999V0201801N002012200019N0120001N1-00261-00501101981ADDGA1001+999999999GF100991001001999999001001MD1710111+9999REMSYN054AAXX  09211 57091 42962 01802 11026 21050 40198 57011;
0112570910999992000021009004+34750+114420FM-12+006799999V0201401N002012200019N0120001N1+00881+00001101681ADDGF102991001001999999001021MD1710031+9999REMSYN060AAXX  10091 57091 42962 21402 10088 20000 40168 57003 80002;
0134570910999992000021021004+34750+114420FM-12+006799999V0200401N004012200019N0060001N1+00061-00111102151ADDGA1001+999999999GF100991001001999999001001MD1210041+9999MW1101REMSYN060AAXX  10211 57091 41956 00404 10006 21011 40215 52004 71000;
0112570910999992000021109004+34750+114420FM-12+006799999V0200901N003019999999N0100001N1+00821+00131102011ADDGF107991001001999999001021MD1710201+9999REMSYN060AAXX  11091 57091 42960 70903 10082 20013 40201 57020 80002;
0134570910999992000021121004+34750+114420FM-12+006799999V0200901N001012200019N0030001N1-00171-00201101891ADDGA1001+999999999GF100991001001999999001001MD1710071+9999MW1101REMSYN060AAXX  11211 57091 41930 00901 11017 21020 40189 57007 71000;
0122570910999992000021209004+34750+114420FM-12+006799999V0201401N002012200019N0160001N1+01271+00471101551ADDGA1001+999999999GF100991001001999999001001MD1710111+9999REMSYN054AAXX  12091 57091 42966 01402 10127 20047 40155 57011;
0124570910999992000021221004+34750+114420FM-12+006799999V0200401N004012200019N0090001N1+00231+00011101791ADDGF104991041001999999041001MD1210041+9999MW1101REMSYN066AAXX  12211 57091 41959 40404 10023 20001 40179 52004 71000 84040;
0132570910999992000021309004+34750+114420FM-12+006799999V0200401N003019999999N0030001N1+00411+00151101861ADDAY161031GF108991081001999999011999MD1710131+9999MW1101REMSYN066AAXX  13091 57091 41930 80403 10041 20015 40186 57013 71060 8801/;
0113570910999992000021321004+34750+114420FM-12+006799999V0209999C020019999999N0030001N1+00001-00221102611ADDAA124001391MD1210041+9999MW1101REMSYN070AAXX  13211 57091 41930 /0020 1100/ 21022 40261 52004 71000 333 70012;
0112570910999992000021409004+34750+114420FM-12+006799999V0203401N003019999999N0120001N1+01061-00961102351ADDGF107991001001999999001021MD1710101+9999REMSYN060AAXX  14091 57091 42962 73403 10106 21096 40235 57010 80002;
0112570910999992000021509004+34750+114420FM-12+006799999V0202001N002012200019N0200001N1+00681-00671102521ADDGF102991001001999999001021MD1710231+9999REMSYN060AAXX  15091 57091 42970 22002 10068 21067 40252 57023 80002;
0122570910999992000021521004+34750+114420FM-12+006799999V0200901N002012200019N0120001N1-00121-00601102401ADDGA1001+999999999GF100991001001999999001001MD1710121+9999REMSYN054AAXX  15211 57091 42962 00902 11012 21060 40240 57012;
0112570910999992000021609004+34750+114420FM-12+006799999V0201401N004019999999N0150001N1+00921-00261102051ADDGF106991001001999999001021MD1710151+9999REMSYN060AAXX  16091 57091 42965 61404 10092 21026 40205 57015 80002;
0112570910999992000021709004+34750+114420FM-12+006799999V0200401N004019999999N0100001N1+00841+00271102241ADDGF108991081001999999011999MD1710081+9999REMSYN060AAXX  17091 57091 42960 80404 10084 20027 40224 57008 8801/;
0132570910999992000021909004+34750+114420FM-12+006799999V0200401N006010150019N0090001N1+00231-00081102121ADDAY161031GF108991051051017501021999MD1410001+9999MW1101REMSYN066AAXX  19091 57091 41759 80406 10023 21008 40212 54000 71060 8552/;
0133570910999992000021921004+34750+114420FM-12+006799999V0200201N004019999999N0110001N1+00061-00451102311ADDAA124000391GF107991071001999999041999MD1710091+9999REMSYN070AAXX  19211 57091 42961 70204 10006 21045 40231 57009 8704/ 333 70003;
0112570910999992000022009004+34750+114420FM-12+006799999V0201401N002012200019N0120001N1+00621-00631102221ADDGF102991001001999999001021MD1710111+9999REMSYN060AAXX  20091 57091 42962 21402 10062 21063 40222 57011 80002;
0134570910999992000022021004+34750+114420FM-12+006799999V0200901N001012200019N0060001N1-00211-00371102451ADDGA1001+999999999GF100991001001999999001001MD1710101+9999MW1101REMSYN060AAXX  20211 57091 41956 00901 11021 21037 40245 57010 71000;
0112570910999992000022121004+34750+114420FM-12+006799999V0201801N001010150019N0100001N1+00151-00141102371ADDGF108991081051017501999999MD1710051+9999REMSYN060AAXX  21211 57091 42760 81801 10015 21014 40237 57005 885//;
0134570910999992000022221004+34750+114420FM-12+006799999V0201801N002012200019N0080001N1-00071-00191102441ADDGA1001+999999999GF100991001001999999001001MD1410001+9999MW1101REMSYN060AAXX  22211 57091 41958 01802 11007 21019 40244 54000 71000;
0124570910999992000022309004+34750+114420FM-12+006799999V0200401N004019999999N0040001N1+00771+00091102641ADDGF108991081001999999021999MD1710031+9999MW1051REMSYN066AAXX  23091 57091 41940 80404 10077 20009 40264 57003 70500 8802/;
0124570910999992000022321004+34750+114420FM-12+006799999V0200401N003019999999N0080001N1+00221-00361103041ADDGF106991001001999999001021MD1210011+9999MW1051REMSYN066AAXX  23211 57091 41958 60403 10022 21036 40304 52001 70500 80002;
0124570910999992000022409004+34750+114420FM-12+006799999V0200401N002010150019N0090001N1+00541+00041102971ADDGF108991081051017501999999MD1710141+9999MW1101REMSYN066AAXX  24091 57091 41759 80402 10054 20004 40297 57014 71000 885//;
0124570910999992000022421004+34750+114420FM-12+006799999V0202001N002019999999N0060001N1+00201+00011102851ADDGF108991081001999999071999MD1710261+9999MW1101REMSYN066AAXX  24211 57091 41956 82002 10020 20001 40285 57026 71000 8807/;
0112570910999992000022509004+34750+114420FM-12+006799999V0203201N009012200019N0200001N1+00941-01081102381ADDGF101991011011008001001001MD1710091+9999REMSYN060AAXX  25091 57091 42570 13209 10094 21108 40238 57009 81100;
0143570910999992000022521004+34750+114420FM-12+006799999V0202901N006012200019N0120001N1+00421-01011102621ADDAA124000391GA1001+999999999GF100991001001999999001001MD1710031+9999REMSYN064AAXX  25211 57091 42962 02906 10042 21101 40262 57003 333 70003;
0122570910999992000022609004+34750+114420FM-12+006799999V0202701N004012200019N0180001N1+01321-00781102231ADDGA1001+999999999GF100991001001999999001001MD1710191+9999REMSYN054AAXX  26091 57091 42968 02704 10132 21078 40223 57019;
0080570910999992000022621004+34750+114420FM-12+006799999V0202501N001019999999N0160001N1+00061-00601102601ADDMD1710051+9999REMSYN054AAXX  26211 57091 42966 /2501 10006 21060 4026/ 57005;
0112570910999992000022709004+34750+114420FM-12+006799999V0201801N001012200019N0160001N1+01581-00571102111ADDGF102991001001999999001021MD1710131+9999REMSYN060AAXX  27091 57091 42966 21801 10158 21057 40211 57013 80002;
0102570910999992000022721004+34750+114420FM-12+006799999V02099999999992200019N9999999N1+00421-00531999999ADDGA1001+999999999GF100991001001999999001001REMSYN048AAXX  27211 57091 429// 004// 10042 21053 402/3;
0112570910999992000022809004+34750+114420FM-12+006799999V0200201N005019999999N0150001N1+00851-00381103231ADDGF107991001001999999001021MD1710021+9999REMSYN060AAXX  28091 57091 42965 70205 10085 21038 40323 57002 80002;
0122570910999992000022821004+34750+114420FM-12+006799999V0201801N002012200019N0110001N1-00101-00391103301ADDGA1001+999999999GF100991001001999999001001MD1710101+9999REMSYN054AAXX  28211 57091 42961 01802 11010 21039 4033/ 57010;
0112570910999992000022909004+34750+114420FM-12+006799999V0202001N004012200019N0180001N1+01251-00091102641ADDGF102991001001999999001021MD1710241+9999REMSYN060AAXX  29091 57091 42968 22004 10125 21009 40264 57024 80002;
0112570910999992000022920004+34750+114420FM-12+006799999V0202001N002012200019N0120001N1+00101+99999102621ADDGF101991001001999999001999MD1710201+9999REMSYN060AAXX  29201 57091 42962 12002 10010 22/89 40262 57020 8000/;
0112570910999992000030109004+34750+114420FM-12+006799999V0201801N005019999999N0200001N1+01401-00541102291ADDGF107991001001999999001021MD1710161+9999REMSYN060AAXX  01091 57091 42970 71805 10140 21054 40229 57016 80002;
0122570910999992000031409004+34750+114420FM-12+006799999V0201601N003012200019N0120001N1+01601+00281101781ADDGA1001+999999999GF100991001001999999001001MD1710231+9999REMSYN054AAXX  14091 57091 42962 01603 10160 20028 40178 57023;
0112570910999992000031509004+34750+114420FM-12+006799999V0200401N004012200019N0100001N1+01541+00161101411ADDGF102991001001999999001021MD1710031+9999REMSYN060AAXX  15091 57091 42960 20404 10154 20016 40141 57003 80002;
0143570910999992000031521004+34750+114420FM-12+006799999V0209999C000012200019N0100001N1+00321+00221101841ADDAA124000791GA1001+999999999GF100991001001999999001001MD1710021+9999REMSYN064AAXX  15211 57091 42960 00000 10032 20022 40184 57002 333 79999;
0122570910999992000031609004+34750+114420FM-12+006799999V0202001N006012200019N0120001N1+01881+00231101341ADDGA1001+999999999GF100991001001999999001001MD1710231+9999REMSYN054AAXX  16091 57091 42962 02006 10188 20023 40134 57023;
0112570910999992000031709004+34750+114420FM-12+006799999V0202001N004019999999N0140001N1+01991+00541101151ADDGF107991021001999999041021MD1710141+9999REMSYN060AAXX  17091 57091 42964 72004 10199 20054 40115 57014 82042;
0112570910999992000031809004+34750+114420FM-12+006799999V0202201N005012200019N0160001N1+02251+00551101061ADDGF102991001001999999001011MD1710081+9999REMSYN060AAXX  18091 57091 42966 22205 10225 20055 40106 57008 80001;
0122570910999992000031821004+34750+114420FM-12+006799999V0200201N004012200019N0150001N1+00731-00221102371ADDGA1001+999999999GF100991001001999999001001MD1210221+9999REMSYN054AAXX  18211 57091 42965 00204 10073 21022 40237 52022;
0122570910999992000032009004+34750+114420FM-12+006799999V0200901N004012200019N0160001N1+01301-00071101441ADDGA1001+999999999GF100991001001999999001001MD1710201+9999REMSYN054AAXX  20091 57091 42966 00904 10130 21007 40144 57020;
0112570910999992000032109004+34750+114420FM-12+006799999V0200401N006010120019N0120001N1+01341+00191101981ADDGF108991081051012501999999MD1210061+9999REMSYN060AAXX  21091 57091 42662 80406 10134 20019 40198 52006 885//;
0132570910999992000032209004+34750+114420FM-12+006799999V0202901N004019999999N0060001N1+01161+00371102151ADDAY161031GF108991081001999999021999MD1210061+9999MW1601REMSYN066AAXX  22091 57091 41956 82904 10116 20037 40215 52006 76060 8802/;
0133570910999992000032221004+34750+114420FM-12+006799999V0203401N004019999999N0110001N1+01061-00741102491ADDAA124000391GF108991081001999999011999MD1210061+9999REMSYN070AAXX  22211 57091 42961 83404 10106 21074 40249 52006 8801/ 333 70003;
0122570910999992000032309004+34750+114420FM-12+006799999V0202701N009012200019N0110001N1+01671-01021102091ADDGA1001+999999999GF100991001001999999001001MD1710271+9999REMSYN054AAXX  23091 57091 42961 02709 10167 21102 40209 57027;
0112570910999992000032409004+34750+114420FM-12+006799999V0202001N003019999999N0100001N1+01761-00491102061ADDGF107991001001999999001021MD1710261+9999REMSYN060AAXX  24091 57091 42960 72003 10176 21049 40206 57026 80002;
0112570910999992000032509004+34750+114420FM-12+006799999V0202701N003019999999N0160001N1+02141-00491102041ADDGF106991001001999999001021MD1710141+9999REMSYN060AAXX  25091 57091 42966 62703 10214 21049 40204 57014 80002;
0122570910999992000032609004+34750+114420FM-12+006799999V0202501N007012200019N0260001N1+02351-01021101151ADDGA1001+999999999GF100991001001999999001001MD1710351+9999REMSYN054AAXX  26091 57091 42976 02507 10235 21102 40115 57035;
0112570910999992000032621004+34750+114420FM-12+006799999V0202501N005012200019N0160001N1+01381+00291100511ADDGF102991001001999999001011MD1710171+9999REMSYN060AAXX  26211 57091 42966 22505 10138 20029 40051 57017 80001;
0124570910999992000032709004+34750+114420FM-12+006799999V0203401N006019999999N0080001N1+02201-00771100491ADDGF106991001001999999001021MD1210061+9999MW1071REMSYN066AAXX  27091 57091 41958 63406 10220 21077 40049 52006 70700 80002;
0112570910999992000032809004+34750+114420FM-12+006799999V0203601N001012200019N0200001N1+01921-00541101751ADDGF101991001001999999001021MD1710181+9999REMSYN060AAXX  28091 57091 42970 13601 10192 21054 40175 57018 80002;
0122570910999992000032909004+34750+114420FM-12+006799999V0201801N006012200019N0120001N1+01961+00031101511ADDGA1001+999999999GF100991001001999999001001MD1710371+9999REMSYN054AAXX  29091 57091 42962 01806 10196 20003 40151 57037;
0122570910999992000032921004+34750+114420FM-12+006799999V0201801N002012200019N0120001N1+00891+00251100901ADDGA1001+999999999GF100991001001999999001001MD1710211+9999REMSYN054AAXX  29211 57091 42962 01802 10089 20025 40090 57021;
0122570910999992000033009004+34750+114420FM-12+006799999V0201801N003012200019N0130001N1+02321+01051100221ADDGA1001+999999999GF100991001001999999001001MD1710191+9999REMSYN054AAXX  30091 57091 42963 01803 10232 20105 40022 57019;
0112570910999992000033109004+34750+114420FM-12+006799999V0200401N005019999999N0120001N1+02221+00101101171ADDGF107991071001999999041001MD1710051+9999REMSYN060AAXX  31091 57091 42962 70405 10222 20010 40117 57005 87040;
0133570910999992000040103004+34750+114420FM-12+006799999V0200901N002010120019N0120001N1+01321-00041101681ADDAA124000791GF108991081051012501999999MD1710041+9999REMSYN070AAXX  01031 57091 42662 80902 10132 21004 40168 57004 885// 333 79999;
0132570910999992000040109004+34750+114420FM-12+006799999V0200201N004010120019N0120001N1+01031+00081101621ADDAY161031GF108991081051012501999999MD1710051+9999MW1001REMSYN066AAXX  01091 57091 41662 80204 10103 20008 40162 57005 70060 885//;
0112570910999992000040209004+34750+114420FM-12+006799999V0200201N003019999999N0130001N1+01401+00611101981ADDGF108991081001999999021999MD1710051+9999REMSYN060AAXX  02091 57091 42963 80203 10140 20061 40198 57005 8802/;
0112570910999992000040309004+34750+114420FM-12+006799999V0202001N005019999999N0180001N1+01661+00701101471ADDGF107991051001999999041021MD1710211+9999REMSYN060AAXX  03091 57091 42968 72005 10166 20070 40147 57021 85042;
0122570910999992000040409004+34750+114420FM-12+006799999V0200401N006012200019N0100001N1+01961+00831101421ADDGA1001+999999999GF100991001001999999001001MD1210091+9999REMSYN054AAXX  04091 57091 42960 00406 10196 20083 40142 52009;
0112570910999992000040509004+34750+114420FM-12+006799999V0202201N003019999999N0160001N1+01711-00511102001ADDGF106991001001999999001021MD1710311+9999REMSYN060AAXX  05091 57091 42966 62203 10171 21051 40200 57031 80002;
