0196576080999992000011900004+28220+105430FM-12+036699999V0200701N001010001519N0000001N1+00011+00011103271ADDAA199000091GA1091+999999999GF109991091999999999999999IA2999-00209MD1210301+0301MW1471REMSYN080    AAXX  19001 57608 31/00 90701 10001 20001 40327 52030 74700 333 00353 31025;EQDQ01  00002PRCP99
0172576080999992000092806004+28220+105430FM-12+036699999V0203401N002010210019N0080001N1+02531+02121100891ADDAA106000591AY161061GF108991081051022501999999KA1999N+02081MD1710211+9999MW1101REMSYN082AAXX  28061 57608 11858 83402 10253 20212 40089 57021 69941 71060 885// 333 20208;
