0213576330999992000010100004+28830+108770FM-12+066599999V0209999C000012200019N0070001N1+00631+00501102201ADDAA106000091GA1001+999999999GF100991001001999999001001IA2999+00109MA1999999094311MD1210161+0301MW1101REMSYN082AAXX  01001 57633 31957 00000 10063 20050 39431 40220 52016 71000 333 00300 30019;EQDQ01  00002PRCP06
0122576330999992000010103004+28830+108770FM-12+066599999V0209999C000012200019N0100001N1+01111+00661102231ADDGA1001+999999999GF100991001001999999001001MD1210081+9999REMSYN054AAXX  01031 57633 42960 00000 10111 20066 40223 52008;
0202576330999992000010106004+28830+108770FM-12+066599999V0201401N003012200019N0150001N1+01751+00661101791ADDAA106000091GA1001+999999999GF100991001001999999001001KA1999N+00561MA1999999094051MD1710341+0301REMSYN076AAXX  01061 57633 32965 01403 10175 20066 39405 40179 57034 333 00304 20056;EQDQ01  00002PRCP06
0132576330999992000010109004+28830+108770FM-12+066599999V0201601N001012200019N0150001N1+01761+00721101731ADDGA1001+999999999GF100991001001999999001001MD1710061+0021REMSYN064AAXX  01091 57633 42965 01601 10176 20072 40173 57006 333 00205;
0183576330999992000010112004+28830+108770FM-12+066599999V0209999C000012200019N0120001N1+01071+00701102201ADDAA106000091GA1001+999999999GF100991001001999999001001MA1999999094311MD1210321+0031REMSYN070AAXX  01121 57633 32962 00000 10107 20070 39431 40220 52032 333 00300;EQDQ01  00002PRCP06
0122576330999992000010115004+28830+108770FM-12+066599999V0209999C000012200019N0100001N1+00741+00591102391ADDGA1001+999999999GF100991001001999999001001MD1210201+9999REMSYN054AAXX  01151 57633 42960 00000 10074 20059 40239 52020;
0214576330999992000010118004+28830+108770FM-12+066599999V0209999C000012200019N0050001N1+00571+00481102411ADDAA106000091GA1001+999999999GF100991001001999999001001KA1999M+01871MA1999999094591MD1210081+0401MW1101REMSYN082AAXX  01181 57633 31950 00000 10057 20048 39459 40241 52008 71000 333 00453 10187;EQDQ01  00002PRCP06
0144576330999992000010121004+28830+108770FM-12+066599999V0209999C000012200019N0050001N1+00511+00441102431ADDGA1001+999999999GF100991001001999999001001MD1210011+0051MW1101REMSYN070AAXX  01211 57633 41950 00000 10051 20044 40243 52001 71000 333 00553;
0203576330999992000010200004+28830+108770FM-12+066599999V0209999C000019999999N0090001N1+00371+00321102641ADDAA106000091GF107991071001999999041999IA2999-00109MA1999999094681MD1210081+0401MW1101REMSYN088AAXX  02001 57633 31959 70000 10037 20032 39468 40264 52008 71000 8704/ 333 00453 31016;EQDQ01  00002PRCP06
0134576330999992000010203004+28830+108770FM-12+066599999V0209999C000012200019N0080001N1+01021+00651102631ADDGA1001+999999999GF100991001001999999001001MD1210041+9999MW1101REMSYN060AAXX  02031 57633 41958 00000 10102 20065 40263 52004 71000;
0202576330999992000010206004+28830+108770FM-12+066599999V0201801N001012200019N0150001N1+01701+00031102021ADDAA106000091GA1001+999999999GF100991001001999999001001KA1999N+00331MA1999999094221MD1710501+0201REMSYN076AAXX  02061 57633 32965 01801 10170 20003 39422 40202 57050 333 00251 20033;EQDQ01  00002PRCP06
0132576330999992000010209004+28830+108770FM-12+066599999V0201101N002012200019N0150001N1+01561+00251101831ADDGA1001+999999999GF100991001001999999001001MD1710201+0001REMSYN064AAXX  02091 57633 42965 01102 10156 20025 40183 57020 333 00052;
0183576330999992000010212004+28830+108770FM-12+066599999V0209999C000012200019N0120001N1+00941+00371102001ADDAA106000091GA1001+999999999GF100991001001999999001001MA1999999094071MD1210051+0021REMSYN070AAXX  02121 57633 32962 00000 10094 20037 39407 40200 52005 333 05251;EQDQ01  00002PRCP06
0122576330999992000010215004+28830+108770FM-12+066599999V0209999C000012200019N0100001N1+00661+00411101921ADDGA1001+999999999GF100991001001999999001001MD1710021+9999REMSYN054AAXX  02151 57633 42960 00000 10066 20041 40192 57002;
0192576330999992000010218004+28830+108770FM-12+066599999V0209999C000010210019N0100001N1+00671+00401101751ADDAA106000091GF107991071001022501041999KA1999M+01781MA1999999093981MD1710071-0601REMSYN082AAXX  02181 57633 32860 70000 10067 20040 39398 40175 57007 8704/ 333 05601 10178;EQDQ01  00002PRCP06
0122576330999992000010221004+28830+108770FM-12+066599999V0209999C000019999999N0100001N1+00711+00491101661ADDGF106991061001999999041001MD1710091+0071REMSYN070AAXX  02211 57633 42960 60000 10071 20049 40166 57009 86040 333 05702;
0203576330999992000010300004+28830+108770FM-12+066599999V0209999C000019999999N0070001N1+00721+00521101841ADDAA106000091GF108991081001999999071999IA2999+00109MA1999999093971MD1210081-0701MW1101REMSYN088AAXX  03001 57633 31957 80000 10072 20052 39397 40184 52008 71000 8807/ 333 05704 30018;EQDQ01  00002PRCP06
0112576330999992000010303004+28830+108770FM-12+066599999V0202001N001012200019N0120001N1+01341+00491101811ADDGF102991021001999999041001MD1210021+9999REMSYN060AAXX  03031 57633 42962 22001 10134 20049 40181 52002 82040;
0192576330999992000010306004+28830+108770FM-12+066599999V0201601N003012200019N0120001N1+01831+00751101351ADDAA106000091GF101991011011008001001001KA1999N+00571MA1999999093631MD1710361-0601REMSYN082AAXX  03061 57633 32562 11603 10183 20075 39363 40135 57036 81100 333 05601 20057;EQDQ01  00002PRCP06
0132576330999992000010309004+28830+108770FM-12+066599999V0209999C000012200019N0120001N1+01881+00931101131ADDGA1001+999999999GF100991001001999999001001MD1710191+0061REMSYN064AAXX  03091 57633 42962 00000 10188 20093 40113 57019 333 05603;
0173576330999992000010312004+28830+108770FM-12+066599999V0209999C000019999999N0100001N1+02261+00771101331ADDAA106000091GF107991071001999999041999MA1999999093551MD1210111+0051REMSYN076AAXX  03121 57633 32960 70000 10226 20077 39355 40133 52011 8704/ 333 05503;EQDQ01  00002PRCP06
0124576330999992000010315004+28830+108770FM-12+066599999V0209999C000019999999N0090001N1+01161+00851101301ADDGF108991081001999999071999MD1210041+9999MW1101REMSYN066AAXX  03151 57633 41959 80000 10116 20085 40130 52004 71000 8807/;
0204576330999992000010318004+28830+108770FM-12+066599999V0209999C000019999999N0080001N1+01001+00781101221ADDAA106000091GF108991081001999999071999KA1999M+01951MA1999999093551MD1710041-0401MW1101REMSYN088AAXX  03181 57633 31958 80000 10100 20078 39355 40122 57004 71000 8807/ 333 05403 10195;EQDQ01  00002PRCP06
0134576330999992000010321004+28830+108770FM-12+066599999V0209999C000019999999N0080001N1+01051+00811101071ADDGF108991081001999999071999MD1710121+0051MW1101REMSYN076AAXX  03211 57633 41958 80000 10105 20081 40107 57012 71000 8807/ 333 05503;
0185576330999992000010400004+28830+108770FM-12+066599999V0209999C000019999999N0070001N1+01101+00851101191ADDAA106000091GF108991081001999999071999MA1999999093471MD1210041+0051MW1101REMSYN082AAXX  04001 57633 31957 80000 10110 20085 39347 40119 52004 71000 8807/ 333 05504;EQDQ01  00002PRCP06
0112576330999992000010403004+28830+108770FM-12+066599999V0203601N001019999999N0100001N1+01461+00851101211ADDGF108991081001999999071999MD1210051+9999REMSYN060AAXX  04031 57633 42960 83601 10146 20085 40121 52005 8807/;
0192576330999992000010406004+28830+108770FM-12+066599999V0209999C000012200019N0150001N1+01891+00921100851ADDAA106000091GF104991021001999999041021KA1999N+00951MA1999999093221MD1710301-0401REMSYN082AAXX  04061 57633 32965 40000 10189 20092 39322 40085 57030 82042 333 05401 20095;EQDQ01  00002PRCP06
0122576330999992000010409004+28830+108770FM-12+066599999V0203601N001019999999N0150001N1+01671+00891100901ADDGF107991071001999999041999MD1210021+0021REMSYN070AAXX  04091 57633 42965 73601 10167 20089 40090 52002 8704/ 333 05252;
0173576330999992000010412004+28830+108770FM-12+066599999V0209999C000010210019N0120001N1+01291+00871101161ADDAA106000091GF106991061001022501041001MA1999999093441MD1210201+0011REMSYN076AAXX  04121 57633 32862 60000 10129 20087 39344 40116 52020 86040 333 05100;EQDQ01  00002PRCP06
0112576330999992000010415004+28830+108770FM-12+066599999V0209999C000012200019N0100001N1+01021+00821101311ADDGF102991021001022501041001MD1210151+9999REMSYN060AAXX  04151 57633 42860 20000 10102 20082 40131 52015 82040;
0204576330999992000010418004+28830+108770FM-12+066599999V0209999C000010210019N0070001N1+00961+00841101201ADDAA106000091GF107991071001022501041999KA1999M+01931MA1999999093541MD1710051+0001MW1101REMSYN088AAXX  04181 57633 31857 70000 10096 20084 39354 40120 57005 71000 8704/ 333 00000 10193;EQDQ01  00002PRCP06
0134576330999992000010421004+28830+108770FM-12+066599999V0209999C000010210019N0070001N1+01031+00871101111ADDGF108991081001022501071999MD1710101+0001MW1101REMSYN076AAXX  04211 57633 41857 80000 10103 20087 40111 57010 71000 8807/ 333 00000;
0173576330999992000010500004+28830+108770FM-12+066599999V0209999C000019999999N0100001N1+01071+00901101231ADDAA106000091GF108991081001999999071999MA1999999093501MD1210061+0001REMSYN076AAXX  05001 57633 32960 80000 10107 20090 39350 40123 52006 8807/ 333 00000;EQDQ01  00002PRCP06
0112576330999992000010503004+28830+108770FM-12+066599999V0203601N002019999999N0100001N1+01361+00901101381ADDGF108991081001999999071999MD1210141+9999REMSYN060AAXX  05031 57633 42960 83602 10136 20090 40138 52014 8807/;
0192576330999992000010506004+28830+108770FM-12+066599999V0209999C000019999999N0100001N1+01581+00991101031ADDAA106000091GF107991071001999999041999KA1999N+00901MA1999999093341MD1710301+0101REMSYN082AAXX  05061 57633 32960 70000 10158 20099 39334 40103 57030 8704/ 333 00153 20090;EQDQ01  00002PRCP06
0144576330999992000010509004+28830+108770FM-12+066599999V0200401N002012200019N0080001N1+01501+01001100981ADDGA1001+999999999GF100991001001999999001001MD1710051+0011MW1051REMSYN070AAXX  05091 57633 41958 00402 10150 20100 40098 57005 70500 333 00152;
0185576330999992000010512004+28830+108770FM-12+066599999V0203601N001019999999N0070001N1+01321+00961101271ADDAA106000091GF108991081001999999071999MA1999999093541MD1210251+0011MW1101REMSYN082AAXX  05121 57633 31957 83601 10132 20096 39354 40127 52025 71000 8807/ 333 00100;EQDQ01  00002PRCP06
0124576330999992000010515004+28830+108770FM-12+066599999V0201801N001010210019N0070001N1+01261+01001101491ADDGF108991081001022501071999MD1210241+9999MW1101REMSYN066AAXX  05151 57633 41857 81801 10126 20100 40149 52024 71000 8807/;
0199576330999992000010518004+28830+108770FM-12+066599999V0200401N001010210019N0060001N1+01011+00811101741ADDAA106000791AY161061GF108991081001022501071999KA1999M+01711MA1999999094001MD1210221+0501MW1601REMSYN094AAXX  05181 57633 11856 80401 10101 20081 39400 40174 52022 69901 76060 8807/ 333 00501 10171;
0167576330999992000010521004+28830+108770FM-12+066599999V0201101N003010210019N0070001N1+00691+00471101921ADDAA124000791AY161031AY261031GF108991081001022501071999MD1210121+0701MW1601REMSYN082AAXX  05211 57633 41857 81103 10069 20047 40192 52012 76066 8807/ 333 00753 79999;
0132576330999992000010603004+28830+108770FM-12+066599999V0209999C000010360019N0090001N1+00621+00271102511ADDAY161031GF108991011071004501071999MD1210251+9999MW1601REMSYN066AAXX  06031 57633 41459 80000 10062 20027 40251 52025 76060 8177/;
0207576330999992000010606004+28830+108770FM-12+066599999V0209999C000010360019N0100001N1+00571+00131102391ADDAA106000591AY171061AY261061GF108991011071004501021999KA1999N+00521MA1999999094471MD1710151+1101MW1601REMSYN094AAXX  06061 57633 11460 80000 10057 20013 39447 40239 57015 69961 76076 8172/ 333 01160 20052;
0142576330999992000010609004+28830+108770FM-12+066599999V0209999C000010360019N0120001N1+00601+00061102441ADDAY161031GF108991031011008001021999MD1210011+0121MW1001REMSYN076AAXX  06091 57633 41562 80000 10060 20006 40244 52001 70060 8312/ 333 01259;
0180576330999992000010612004+28830+108770FM-12+066599999V0209999C000019999999N0100001N1+00581+00001102571ADDAA106000391AY161061GF108991081001999999021999MA1999999094581MD1210101+0101MW1001REMSYN088AAXX  06121 57633 11960 80000 10058 20000 39458 40257 52010 69931 70060 8802/ 333 01057;
0112576330999992000010615004+28830+108770FM-12+066599999V0209999C000010150019N0120001N1+00581+00091102641ADDGF108991081051017501999999MD1210071+9999REMSYN060AAXX  06151 57633 42762 80000 10058 20009 40264 52007 885//;
0163576330999992000010618004+28830+108770FM-12+066599999V0209999C000010150019N0150001N1+00531+00001102501ADDAA106000091GF107991071051017501999999MA1999999094511MD1710141+9999REMSYN066AAXX  06181 57633 32765 70000 10053 20000 39451 40250 57014 875//;EQDQ01  00002PRCP06
0139576330999992000010621004+28830+108770FM-12+066599999V0209999C000010150019N0120001N1+00531+00031102251ADDAA124001091GF108991081051017501999999MD1710231+0201REMSYN076AAXX  06211 57633 42762 80000 10053 20003 40225 57023 885// 333 00252 70009;
0197576330999992000010700004+28830+108770FM-12+066599999V0209999C000010150019N0120001N1+00521+00101102281ADDAA106000091GF108991081051017501999999IA2999+00319MA1999999094301MD1210021-0101REMSYN088AAXX  07001 57633 32762 80000 10052 20010 39430 40228 52002 885// 333 05151 30031 70009;EQDQ01  00002PRCP06
0112576330999992000010703004+28830+108770FM-12+066599999V0209999C000010150019N0150001N1+00591+00071102281ADDGF108991081051017501999999MD1210011+9999REMSYN060AAXX  07031 57633 42765 80000 10059 20007 40228 52001 885//;
0199576330999992000010706004+28830+108770FM-12+066599999V0201401N001010150019N0120001N1+00521+00101101921ADDAA106000791AY161061GF108991081051017501999999KA1999N+00461MA1999999093971MD1710341-0501MW1601REMSYN094AAXX  07061 57633 11762 81401 10052 20010 39397 40192 57034 69901 76060 885// 333 05551 20046;
0134576330999992000010709004+28830+108770FM-12+066599999V0209999C000010150019N0120001N1+00491+00251101881ADDGF108991081051017501999999MD1710051+0061MW1601REMSYN076AAXX  07091 57633 41762 80000 10049 20025 40188 57005 76000 885// 333 05651;
0180576330999992000010712004+28830+108770FM-12+066599999V0209999C000010150019N0120001N1+00451+00311101991ADDAA106000791AY161061GF108991081051017501999999MA1999999094021MD1210101+0061MW1601REMSYN088AAXX  07121 57633 11762 80000 10045 20031 39402 40199 52010 69901 76060 885// 333 05651;
0132576330999992000010715004+28830+108770FM-12+066599999V0209999C000010150019N0100001N1+00491+00281102021ADDAY161031GF108991081051017501999999MD1210041+9999MW1601REMSYN066AAXX  07151 57633 41760 80000 10049 20028 40202 52004 76060 885//;
0199576330999992000010718004+28830+108770FM-12+066599999V0209999C000010150019N0100001N1+00421+00351101921ADDAA106000791AY161061GF108991081051017501999999KA1999M+00611MA1999999093951MD1710111-0601MW1601REMSYN094AAXX  07181 57633 11760 80000 10042 20035 39395 40192 57011 69901 76060 885// 333 05651 10061;
0159576330999992000010721004+28830+108770FM-12+066599999V0209999C000010042019N0100001N1+00451+00281101811ADDAA124000791AY161031GF108991081071004501999999MD1710101-0401MW1001REMSYN082AAXX  07211 57633 41460 80000 10045 20028 40181 57010 70060 887// 333 05451 79999;
0204576330999992000010800004+28830+108770FM-12+066599999V0209999C000010042019N0120001N1+00431+00261101871ADDAA106000791AY161061GF108991081071004501999999IA2999+00429MA1999999093901MD1210051-0401MW1211REMSYN100AAXX  08001 57633 11462 80000 10043 20026 39390 40187 52005 69901 72160 887// 333 05451 30042 79999;
0112576330999992000010803004+28830+108770FM-12+066599999V0209999C000010120019N0150001N1+00521+00291101951ADDGF108991081051012501999999MD1210091+9999REMSYN060AAXX  08031 57633 42665 80000 10052 20029 40195 52009 885//;
0173576330999992000010806004+28830+108770FM-12+066599999V0209999C000010120019N0170001N1+00711+00321101601ADDAA106000021GF108991081051012501999999KA1999N+00381MA1999999093681MD1710311-0301REMSYN082AAXX  08061 57633 32667 80000 10071 20032 39368 40160 57031 885// 333 05302 20038;
0122576330999992000010809004+28830+108770FM-12+066599999V0209999C000010120019N0150001N1+00731+00351101561ADDGF108991081051012501999999MD1710031+0031REMSYN070AAXX  08091 57633 42665 80000 10073 20035 40156 57003 885// 333 05302;
0173576330999992000010812004+28830+108770FM-12+066599999V0203401N001010150019N0120001N1+00591+00341101821ADDAA106000091GF108991081051017501999999MA1999999093871MD1210221+0021REMSYN076AAXX  08121 57633 32762 83401 10059 20034 39387 40182 52022 885// 333 05201;EQDQ01  00002PRCP06
0112576330999992000010815004+28830+108770FM-12+066599999V0209999C000010150019N0120001N1+00561+00301101951ADDGF108991081051017501999999MD1210131+9999REMSYN060AAXX  08151 57633 42762 80000 10056 20030 40195 52013 885//;
0192576330999992000010818004+28830+108770FM-12+066599999V0209999C000010150019N0100001N1+00551+00291101901ADDAA106000091GF108991081051017501999999KA1999M+00731MA1999999093981MD1710021+0001REMSYN082AAXX  08181 57633 32760 80000 10055 20029 39398 40190 57002 885// 333 00001 10073;EQDQ01  00002PRCP06
0139576330999992000010821004+28830+108770FM-12+066599999V0209999C000010150019N0100001N1+00531+00351101811ADDAA124000791GF108991081051017501999999MD1710091+0001REMSYN076AAXX  08211 57633 42760 80000 10053 20035 40181 57009 885// 333 00001 79999;
0191576330999992000010900004+28830+108770FM-12+066599999V0209999C000010150019N0120001N1+00581+00331101911ADDAA106000091GF108991081051017501999999IA2999+00509MA1999999093971MD1210081+0101REMSYN082AAXX  09001 57633 32762 80000 10058 20033 39397 40191 52008 885// 333 00102 30050;EQDQ01  00002PRCP06
0124576330999992000010903004+28830+108770FM-12+066599999V0209999C000010150019N0120001N1+00651+00401102111ADDGF108991081051017501999999MD1210191+9999MW1601REMSYN066AAXX  09031 57633 41762 80000 10065 20040 40211 52019 76000 885//;
0142576330999992000010909004+28830+108770FM-12+066599999V0209999C000010042019N0120001N1+00641+00461101841ADDAY161031GF108991081071004501999999MD1410001+0031MW1211REMSYN076AAXX  09091 57633 41462 80000 10064 20046 40184 54000 72160 887// 333 00351;
0180576330999992000010912004+28830+108770FM-12+066599999V0203201N001010042019N0120001N1+00651+00451101941ADDAA106000791AY161061GF108991081071004501999999MA1999999094011MD1210101+0011MW1001REMSYN088AAXX  09121 57633 11462 83201 10065 20045 39401 40194 52010 69901 70060 887// 333 00101;
0112576330999992000010915004+28830+108770FM-12+066599999V0209999C000010150019N0120001N1+00641+00421102081ADDGF108991081051017501999999MD1210141+9999REMSYN060AAXX  09151 57633 42762 80000 10064 20042 40208 52014 885//;
0191576330999992000010918004+28830+108770FM-12+066599999V0209999C000010150019N0100001N1+00641+00391101961ADDAA106000791GF108991081051017501999999KA1999M+00691MA1999999094031MD1710121+0101MW1601REMSYN094AAXX  09181 57633 11760 80000 10064 20039 39403 40196 57012 69901 76000 885// 333 00101 10069;
0167576330999992000010921004+28830+108770FM-12+066599999V0209999C000010042019N0100001N1+00621+00491101731ADDAA124002091AY161031AY261031GF108991081071004501999999MD1710211-0101MW1601REMSYN082AAXX  09211 57633 41460 80000 10062 20049 40173 57021 76066 887// 333 05101 70020;
0194576330999992000011000004+28830+108770FM-12+066599999V0209999C000010042019N0080001N1+00601+00511101791ADDAA106006191AY161061AY261061GF108991081071004501999999MA1999999093871MD1210051-0101MW1601REMSYN094AAXX  10001 57633 11458 80000 10060 20051 39387 40179 52005 60061 76066 887// 333 05100 70062;
0140576330999992000011003004+28830+108770FM-12+066599999V0203601N001010042019N0150001N1+00661+00461101881ADDAY161031AY261031GF108991081071004501999999MD1210091+9999MW1601REMSYN066AAXX  10031 57633 41465 83601 10066 20046 40188 52009 76066 887//;
0207576330999992000011006004+28830+108770FM-12+066599999V0203401N001010042019N0170001N1+00631+00451101581ADDAA106000191AY161061AY261061GF108991081071004501999999KA1999N+00541MA1999999093681MD1710281-0201MW1601REMSYN094AAXX  10061 57633 11467 83401 10063 20045 39368 40158 57028 69911 76066 887// 333 05200 20054;
0150576330999992000011009004+28830+108770FM-12+066599999V0200201N001010042019N0150001N1+00601+00491101531ADDAY161031AY261031GF108991081071004501999999MD1710051+0031MW1601REMSYN076AAXX  10091 57633 41465 80201 10060 20049 40153 57005 76066 887// 333 05300;
0188576330999992000011012004+28830+108770FM-12+066599999V0209999C000010042019N0100001N1+00581+00451101661ADDAA106000391AY161061AY261061GF108991081071004501999999MA1999999093741MD1210111+0031MW1601REMSYN088AAXX  10121 57633 11460 80000 10058 20045 39374 40166 52011 69931 76066 887// 333 05351;
0140576330999992000011015004+28830+108770FM-12+066599999V0200201N002010042019N0100001N1+00551+00371101641ADDAY161031AY261031GF108991081071004501999999MD1710011+9999MW1601REMSYN066AAXX  10151 57633 41460 80202 10055 20037 40164 57001 76066 887//;
0207576330999992000011018004+28830+108770FM-12+066599999V0209999C000010042019N0100001N1+00511+00351101671ADDAA106001091AY191061AY281061GF108991081071004501999999KA1999M+00691MA1999999093751MD1210021-0301MW1601REMSYN094AAXX  10181 57633 11460 80000 10051 20035 39375 40167 52002 60011 76098 887// 333 05351 10069;
0167576330999992000011021004+28830+108770FM-12+066599999V0209999C000010042019N0100001N1+00491+00351101591ADDAA124006991AY181031AY261031GF108991081071004501999999MD1710081-0201MW1601REMSYN082AAXX  10211 57633 41460 80000 10049 20035 40159 57008 76086 887// 333 05251 70068;
0212576330999992000011100004+28830+108770FM-12+066599999V0209999C000010360019N0120001N1+00481+00391101791ADDAA106001091AY181061AY261061GF108991031071004501071999IA2999+00499MA1999999093851MD1210181+0001MW1211REMSYN100AAXX  11001 57633 11462 80000 10048 20039 39385 40179 52018 69991 72186 8377/ 333 00051 30049 70027;
0112576330999992000011103004+28830+108770FM-12+066599999V0200201N001010120019N0150001N1+00671+00381101931ADDGF108991061041012501071999MD1210151+9999REMSYN060AAXX  11031 57633 42665 80201 10067 20038 40193 52015 8647/;
0173576330999992000011106004+28830+108770FM-12+066599999V0200701N002010120019N0170001N1+00731+00371101661ADDAA106000021GF108991061041012501071999KA1999N+00441MA1999999093761MD1710241+0101REMSYN082AAXX  11061 57633 32667 80702 10073 20037 39376 40166 57024 8647/ 333 00101 20044;
0122576330999992000011109004+28830+108770FM-12+066599999V0200401N001010150019N0150001N1+00621+00421101781ADDGF108991081051017501999999MD1210081+0021REMSYN070AAXX  11091 57633 42765 80401 10062 20042 40178 52008 885// 333 00200;
0173576330999992000011112004+28830+108770FM-12+066599999V0203601N002010150019N0150001N1+00611+00411102031ADDAA106000091GF108991081051017501999999MA1999999094071MD1210231+0031REMSYN076AAXX  11121 57633 32765 83602 10061 20041 39407 40203 52023 885// 333 00300;EQDQ01  00002PRCP06
0132576330999992000011115004+28830+108770FM-12+066599999V0209999C000010150019N0150001N1+00551+00341102301ADDAY161031GF108991081051017501999999MD1210271+9999MW1601REMSYN066AAXX  11151 57633 41765 80000 10055 20034 40230 52027 76060 885//;
0199576330999992000011118004+28830+108770FM-12+066599999V0209999C000010150019N0120001N1+00541+00281102301ADDAA106000791AY161061GF108991081051017501999999KA1999M+00761MA1999999094351MD1210011+0601MW1601REMSYN094AAXX  11181 57633 11762 80000 10054 20028 39435 40230 52001 69901 76060 885// 333 00600 10076;
0159576330999992000011121004+28830+108770FM-12+066599999V0200201N001010150019N0120001N1+00491+00201102271ADDAA124000191AY161031GF108991081051017501999999MD1710051+0601MW1001REMSYN082AAXX  11211 57633 41762 80201 10049 20020 40227 57005 70060 885// 333 00600 70001;
0204576330999992000011200004+28830+108770FM-12+066599999V0209999C000010150019N0150001N1+00441+00251102391ADDAA106000791AY161061GF108991081051017501999999IA2999+00459MA1999999094401MD1210101+0601MW1601REMSYN100AAXX  12001 57633 11765 80000 10044 20025 39440 40239 52010 69901 76060 885// 333 00600 30045 79999;
0132576330999992000011203004+28830+108770FM-12+066599999V0209999C000010360019N0150001N1+00551+00241102501ADDAY161031GF108991031011008001071999MD1210111+9999MW1001REMSYN066AAXX  12031 57633 41565 80000 10055 20024 40250 52011 70060 8317/;
0199576330999992000011206004+28830+108770FM-12+066599999V0209999C000010120019N0170001N1+00711+00201102101ADDAA106000791AY161061GF108991061041012501071999KA1999N+00391MA1999999094171MD1710341+0401MW1001REMSYN094AAXX  12061 57633 11667 80000 10071 20020 39417 40210 57034 69901 70060 8647/ 333 00400 20039;
0122576330999992000011209004+28830+108770FM-12+066599999V0201401N001010360019N0150001N1+00601+00151102071ADDGF108991011011008001071999MD1710051+0031REMSYN070AAXX  12091 57633 42565 81401 10060 20015 40207 57005 8117/ 333 00300;
0173576330999992000011212004+28830+108770FM-12+066599999V0209999C000010210019N0150001N1+00521+00161102291ADDAA106000091GF108991081001022501071999MA1999999094291MD1210161+0021REMSYN076AAXX  12121 57633 32865 80000 10052 20016 39429 40229 52016 8807/ 333 00251;EQDQ01  00002PRCP06
0112576330999992000011215004+28830+108770FM-12+066599999V0201601N001010150019N0120001N1+00491+00201102351ADDGF107991071051017501999999MD1210071+9999REMSYN060AAXX  12151 57633 42762 71601 10049 20020 40235 52007 875//;
0192576330999992000011218004+28830+108770FM-12+066599999V0209999C000012200019N0100001N1+00461+00191102181ADDAA106000091GF104991041051017501001001KA1999M+00731MA1999999094221MD1710141-0101REMSYN082AAXX  12181 57633 32760 40000 10046 20019 39422 40218 57014 84500 333 05151 10073;EQDQ01  00002PRCP06
0139576330999992000011221004+28830+108770FM-12+066599999V0209999C000010150019N0120001N1+00431+00081102071ADDAA124000791GF108991081051017501999999MD1710121-0201REMSYN076AAXX  12211 57633 42762 80000 10043 20008 40207 57012 885// 333 05251 79999;
0197576330999992000011300004+28830+108770FM-12+066599999V0209999C000010150019N0120001N1+00411+00031102151ADDAA106000091GF108991081051017501999999IA2999+00369MA1999999094161MD1210061-0201REMSYN088AAXX  13001 57633 32762 80000 10041 20003 39416 40215 52006 885// 333 05200 30036 79999;EQDQ01  00002PRCP06
0112576330999992000011303004+28830+108770FM-12+066599999V0203601N002010150019N0150001N1+00491-00051102221ADDGF108991081051017501999999MD1210071+9999REMSYN060AAXX  13031 57633 42765 83602 10049 21005 40222 52007 885//;
0192576330999992000011306004+28830+108770FM-12+066599999V0201401N001010150019N0180001N1+00621-00191101861ADDAA106000091GF108991081051017501999999KA1999N+00371MA1999999093911MD1710321-0301REMSYN082AAXX  13061 57633 32768 81401 10062 21019 39391 40186 57032 885// 333 05351 20037;EQDQ01  00002PRCP06
0122576330999992000011309004+28830+108770FM-12+066599999V0209999C000010150019N0180001N1+00561-00271101741ADDGF108991081051017501999999MD1710121+0031REMSYN070AAXX  13091 57633 42768 80000 10056 21027 40174 57012 885// 333 05300;
0173576330999992000011312004+28830+108770FM-12+066599999V0209999C000010150019N0150001N1+00511-00211101811ADDAA106000091GF108991081051017501999999MA1999999093851MD1210061+0041REMSYN076AAXX  13121 57633 32765 80000 10051 21021 39385 40181 52006 885// 333 05400;EQDQ01  00002PRCP06
0112576330999992000011315004+28830+108770FM-12+066599999V0209999C000010150019N0120001N1+00481-00061102091ADDGF108991081051017501999999MD1210261+9999REMSYN060AAXX  13151 57633 42762 80000 10048 21006 40209 52026 885//;
0192576330999992000011318004+28830+108770FM-12+066599999V0209999C000010150019N0100001N1+00461-00051101991ADDAA106000091GF108991081051017501999999KA1999M+00661MA1999999094031MD1710081-0201REMSYN082AAXX  13181 57633 32760 80000 10046 21005 39403 40199 57008 885// 333 05200 10066;EQDQ01  00002PRCP06
0163576330999992000011321004+28830+108770FM-12+066599999V0209999C000010042019N0100001N1+00331+00081101881ADDAA124000791AY161031GF108991081071004501999999MD1710121-0201MW1601REMSYN086    AAXX  13211 57633 41460 80000 10033 20008 40188 57012 76060 887// 333 05251 79999;
0208576330999992000011400004+28830+108770FM-12+066599999V0209999C000010042019N0100001N1+00291+00171101961ADDAA106000891AY161061GF108991081071004501999999IA2999+00309MA1999999093971MD1210061-0201MW1601REMSYN104    AAXX  14001 57633 11460 80000 10029 20017 39397 40196 52006 69971 76060 887// 333 05251 30030 70007;
0144576330999992000011403004+28830+108770FM-12+066599999V0209999C000010042019N0120001N1+00281+00161102041ADDAY171031AY261031GF108991081071004501999999MD1210071+9999MW1791REMSYN070    AAXX  14031 57633 41462 80000 10028 20016 40204 52007 77976 887//;
0211576330999992000011406004+28830+108770FM-12+066599999V0209999C000010042019N0120001N1+00231+00051101801ADDAA106002091AY171061AY261061GF108991081071004501999999KA1999N+00191MA1999999093811MD1710231-0101MW1601REMSYN098    AAXX  14061 57633 11462 80000 10023 20005 39381 40180 57023 60021 76076 887// 333 05154 20019;
0146576330999992000011409004+28830+108770FM-12+066599999V0209999C000010042019N0120001N1+00221+00041101721ADDAY161031GF108991081071004501999999MD1710101+0011MW1601REMSYN080    AAXX  14091 57633 41462 80000 10022 20004 40172 57010 76060 887// 333 05153;
0184576330999992000011412004+28830+108770FM-12+066599999V0201101N002010042019N0120001N1+00211+00031101891ADDAA106000791AY161061GF108991081071004501999999MA1999999093861MD1210151+0001MW1601REMSYN092    AAXX  14121 57633 11462 81102 10021 20003 39386 40189 52015 69901 76060 887// 333 00053;
0144576330999992000011415004+28830+108770FM-12+066599999V0209999C000010042019N0120001N1+00191+00011102031ADDAY161031AY261031GF108991081071004501999999MD1210131+9999MW1601REMSYN070    AAXX  14151 57633 41462 80000 10019 20001 40203 52013 76066 887//;
0211576330999992000011418004+28830+108770FM-12+066599999V0209999C000010042019N0100001N1+00171+00041102011ADDAA106000191AY161061AY261061GF108991081071004501999999KA1999M+00471MA1999999093961MD1710031-0101MW1601REMSYN098    AAXX  14181 57633 11460 80000 10017 20004 39396 40201 57003 69921 76066 887// 333 05153 10047;
0171576330999992000011421004+28830+108770FM-12+066599999V0203601N001010042019N0120001N1+00171+00011101961ADDAA124003391AY161031AY261031GF108991081071004501999999MD1710051+0001MW1211REMSYN086    AAXX  14211 57633 41462 83601 10017 20001 40196 57005 72166 887// 333 00052 70032;
0208576330999992000011500004+28830+108770FM-12+066599999V0209999C000010042019N0150001N1+00181-00031102101ADDAA106000391AY161061GF108991081071004501999999IA2999+00209MA1999999094041MD1210131+0101MW1601REMSYN104    AAXX  15001 57633 11465 80000 10018 21003 39404 40210 52013 69931 76060 887// 333 00151 30020 70025;
0136576330999992000011503004+28830+108770FM-12+066599999V0200701N002010042019N0150001N1+00171-00011102321ADDAY161031GF108991081071004501999999MD1210201+9999MW1601REMSYN070    AAXX  15031 57633 41465 80702 10017 21001 40232 52020 76060 887//;
0203576330999992000011506004+28830+108770FM-12+066599999V0209999C000010042019N0150001N1+00211+00031102101ADDAA106000791AY161061GF108991081071004501999999KA1999N+00111MA1999999094041MD1710201+0201MW1601REMSYN098    AAXX  15061 57633 11465 80000 10021 20003 39404 40210 57020 69901 76060 887// 333 00200 20011;
0146576330999992000011509004+28830+108770FM-12+066599999V0209999C000010042019N0120001N1+00221+00041102071ADDAY161031GF108991081071004501999999MD1710031+0031MW1601REMSYN080    AAXX  15091 57633 41462 80000 10022 20004 40207 57003 76060 887// 333 00300;
0167576330999992000011512004+28830+108770FM-12+066599999V0209999C000010042019N0120001N1+00181+00021102351ADDAY161061GF108991081071004501999999MA1999999094271MD1210261+0041MW1601REMSYN086    AAXX  15121 57633 11462 80000 10018 20002 39427 40235 52026 76060 887// 333 00400;
0144576330999992000011515004+28830+108770FM-12+066599999V0209999C000010042019N0120001N1+00171-00041102651ADDAY161031AY261031GF108991081071004501999999MD1210271+9999MW1601REMSYN070    AAXX  15151 57633 41462 80000 10017 21004 40265 52027 76066 887//;
0203576330999992000011518004+28830+108770FM-12+066599999V0201601N002010150019N0100001N1+00161-00141102601ADDAA106000791AY161061GF108991081051017501999999KA1999M+00261MA1999999094501MD1710041+0501MW1001REMSYN098    AAXX  15181 57633 11760 81602 10016 21014 39450 40260 57004 69901 70060 885// 333 00500 10026;
0182576330999992000011521004+28830+108770FM-12+066599999V0209999C000019999999N0100001N1+00121-00191102571ADDAA124000791AY161031GF107991999071004501999999MD1710031+0601MW1211REMSYN086    AAXX  15211 57633 41460 70000 10012 21019 40257 57003 72160 887// 333 00651 79999;EQDQ01+000082SCOTLC
0208576330999992000011600004+28830+108770FM-12+066599999V0209999C000010042019N0120001N1+00081-00261102771ADDAA106000791AY161061GF108991081071004501999999IA2999+00099MA1999999094641MD1210171+0601MW1001REMSYN104    AAXX  16001 57633 11462 80000 10008 21026 39464 40277 52017 69901 70060 887// 333 00651 30009 79999;
0116576330999992000011603004+28830+108770FM-12+066599999V0201401N002010150019N0150001N1+00091-00351102941ADDGF108991081051017501999999MD1210161+9999REMSYN064    AAXX  16031 57633 42765 81402 10009 21035 40294 52016 885//;
0195576330999992000011606004+28830+108770FM-12+066599999V0209999C000010150019N0150001N1+00081-00231102741ADDAA106000791GF108991081051017501999999KA1999N+00031MA1999999094611MD1710191+0601MW1601REMSYN098    AAXX  16061 57633 11765 80000 10008 21023 39461 40274 57019 69901 76000 885// 333 00651 20003;
0146576330999992000011609004+28830+108770FM-12+066599999V0209999C000010150019N0120001N1+00121-00221102651ADDAY161031GF108991081051017501999999MD1710081+0051MW1001REMSYN080    AAXX  16091 57633 41762 80000 10012 21022 40265 57008 70060 885// 333 00551;
0184576330999992000011612004+28830+108770FM-12+066599999V0209999C000010150019N0120001N1+00101-00011102871ADDAA106000791AY161061GF108991081051017501999999MA1999999094721MD1210191+0051MW1001REMSYN092    AAXX  16121 57633 11762 80000 10010 21001 39472 40287 52019 69901 70060 885// 333 00551;
0116576330999992000011615004+28830+108770FM-12+066599999V0209999C000010150019N0120001N1+00071-00121103011ADDGF108991081051017501999999MD1210131+9999REMSYN064    AAXX  16151 57633 42762 80000 10007 21012 40301 52013 885//;
0177576330999992000011618004+28830+108770FM-12+066599999V0209999C000010150019N0120001N1+00111-00201102981ADDAA199000021GF108991081051017501999999KA1999M+00191MA1999999094821MD1710031+0301REMSYN086    AAXX  16181 57633 32762 80000 10011 21020 39482 40298 57003 885// 333 00351 10019;
0143576330999992000011621004+28830+108770FM-12+066599999V0209999C000010150019N0120001N1+00091-00221102931ADDAA124000791GF108991081051017501999999MD1710041+0301REMSYN080    AAXX  16211 57633 42762 80000 10009 21022 40293 57004 885// 333 00300 79999;
0193576330999992000011700004+28830+108770FM-12+066599999V0209999C000010150019N0120001N1+00081-00171103081ADDAA199000091GF108991081051017501999999IA2999+00109MA1999999094911MD1999999+0301REMSYN084    AAXX  17001 57633 32762 80000 10008 21017 39491 40308 885// 333 00300 30010 999;EQDQ01  00002PRCP99
0136576330999992000011703004+28830+108770FM-12+066599999V0209999C000010042019N0100001N1+00161-00081103211ADDAY171031GF108991071071004501021999MD1210131+9999MW1701REMSYN070    AAXX  17031 57633 41460 80000 10016 21008 40321 52013 77070 8772/;
0203576330999992000011706004+28830+108770FM-12+066599999V0209999C000010042019N0120001N1+00301-00191102851ADDAA106000791AY171061GF108991071071004501021999KA1999N+00021MA1999999094731MD1710311+0101MW1701REMSYN098    AAXX  17061 57633 11462 80000 10030 21019 39473 40285 57031 69901 77070 8772/ 333 00102 20002;
0146576330999992000011709004+28830+108770FM-12+066599999V0209999C000019999999N0150001N1+00291-00171102731ADDAY171031GF108991081001999999021999MD1710111+0011MW1001REMSYN080    AAXX  17091 57633 41965 80000 10029 21017 40273 57011 70070 8802/ 333 00102;
0184576330999992000011712004+28830+108770FM-12+066599999V0209999C000019999999N0150001N1+00261-00091102971ADDAA106000791AY171061GF108991081001999999021999MA1999999094831MD1210211+0011MW1001REMSYN092    AAXX  17121 57633 11965 80000 10026 21009 39483 40297 52021 69901 70070 8802/ 333 00102;
0116576330999992000011715004+28830+108770FM-12+066599999V0209999C000019999999N0150001N1+00251-00011103131ADDGF108991081001999999021999MD1210161+9999REMSYN064    AAXX  17151 57633 42965 80000 10025 21001 40313 52016 8802/;
0177576330999992000011718004+28830+108770FM-12+066599999V0209999C000019999999N0150001N1+00231+00021103111ADDAA199000021GF108991081001999999021999KA1999M+00331MA1999999094991MD1410001+0201REMSYN086    AAXX  17181 57633 32965 80000 10023 20002 39499 40311 54000 8802/ 333 00201 10033;
0159576330999992000011721004+28830+108770FM-12+066599999V0209999C000012200019N0150001N1+00211+00051103021ADDAA124000791GA1001+999999999GF100991001001999999001001MD1710091+0101REMSYN080    AAXX  17211 57633 42965 00000 10021 20005 40302 57009 8802/ 333 00101 79999;
0182576330999992000011800004+28830+108770FM-12+066599999V0209999C000019999999N0150001N1+00221+00071103121ADDAA124000791GF108991081001999999071999IA2999+00159MA1999999094991MD1210091+0101REMSYN092    AAXX  18001 57633 32965 80000 10022 20007 39499 40312 52009 8807/ 333 00101 30015 79999;
0116576330999992000011803004+28830+108770FM-12+066599999V0209999C000019999999N0150001N1+00461+00031103171ADDGF107991071001999999041999MD1210081+9999REMSYN064    AAXX  18031 57633 42965 70000 10046 20003 40317 52008 8704/;
0196576330999992000011806004+28830+108770FM-12+066599999V0209999C000019999999N0150001N1+00631+00121102911ADDAA199000091GF108991081001999999071999KA1999N+00161MA1999999094851MD1710221+0101REMSYN086    AAXX  18061 57633 32965 80000 10063 20012 39485 40291 57022 8807/ 333 00103 20016;EQDQ01  00002PRCP99
0126576330999992000011809004+28830+108770FM-12+066599999V0209999C000010360019N0150001N1+00671+00171102891ADDGF108991021011008001071999MD1710011+0021REMSYN074    AAXX  18091 57633 42565 80000 10067 20017 40289 57001 8217/ 333 00204;
0187576330999992000011812004+28830+108770FM-12+066599999V0209999C000012200019N0150001N1+00291+00111103021ADDAA199000091GA1001+999999999GF100991001001999999001001MA1999999094901MD1210061+0011REMSYN074    AAXX  18121 57633 32965 00000 10029 20011 39490 40302 52006 333 00100;EQDQ01  00002PRCP99
0206576330999992000011818004+28830+108770FM-12+066599999V0209999C000012200019N0120001N1+00031+00001103161ADDAA199000091GA1001+999999999GF100991001001999999001001KA1999M+00711MA1999999095051MD1710011+0101REMSYN080    AAXX  18181 57633 32962 00000 10003 20000 39505 40316 57001 333 00152 10071;EQDQ01  00002PRCP99
0138576330999992000011821004+28830+108770FM-12+066599999V0209999C000019999999N0070001N1+00001-00031103081ADDGF108991081001999999071999MD1710071+0011MW1101REMSYN080    AAXX  18211 57633 41957 80000 10000 21003 40308 57007 71000 8807/ 333 00152;
0207576330999992000011900004+28830+108770FM-12+066599999V0209999C000019999999N0020001N1-00021-00051103231ADDAA199000091GF108991081001999999071999IA2999-00209MA1999999095061MD1210081+0101MW1101REMSYN092    AAXX  19001 57633 31920 80000 11002 21005 39506 40323 52008 71000 8807/ 333 00152 31026;EQDQ01  00002PRCP99
0128576330999992000011903004+28830+108770FM-12+066599999V0209999C000010150019N0070001N1+00271+00171103351ADDGF107991071051017501999999MD1210131+9999MW1101REMSYN070    AAXX  19031 57633 41757 70000 10027 20017 40335 52013 71000 875//;
0196576330999992000011906004+28830+108770FM-12+066599999V0201601N002010075019N0180001N1+00781-00311102941ADDAA199000091GF106991061011008001001001KA1999N-00061MA1999999094871MD1710321+0001REMSYN086    AAXX  19061 57633 32568 61602 10078 21031 39487 40294 57032 86100 333 00002 21006;EQDQ01  00002PRCP99
0126576330999992000011909004+28830+108770FM-12+066599999V0201801N002010360019N0150001N1+00711-00341102721ADDGF107991011011008001031999MD1710211+0021REMSYN074    AAXX  19091 57633 42565 71802 10071 21034 40272 57021 8113/ 333 05200;
0177576330999992000011912004+28830+108770FM-12+066599999V0209999C000019999999N0150001N1+00601-00191102861ADDAA199000091GF107991071001999999031999MA1999999094771MD1210111+0011REMSYN080    AAXX  19121 57633 32965 70000 10060 21019 39477 40286 52011 8703/ 333 05103;EQDQ01  00002PRCP99
0112576330999992000011915004+28830+108770FM-12+066599999V0209999C000019999999N0150001N1+00241-00201103021ADDGF107991071001999999031999MD1210131+9999REMSYN060AAXX  19151 57633 42965 70000 10024 21020 40302 52013 8703/;
0192576330999992000011918004+28830+108770FM-12+066599999V0203401N001019999999N0150001N1+00281-00151102911ADDAA199000091GF108991081001999999071999KA1999M+00851MA1999999094881MD1710021-0201REMSYN082AAXX  19181 57633 32965 83401 10028 21015 39488 40291 57002 8807/ 333 05203 10085;EQDQ01  00002PRCP99
0122576330999992000011921004+28830+108770FM-12+066599999V0203601N001019999999N0150001N1+00291-00301102801ADDGF108991081001999999071999MD1710111+0021REMSYN070AAXX  19211 57633 42965 83601 10029 21030 40280 57011 8807/ 333 05203;
0191576330999992000012000004+28830+108770FM-12+066599999V0203601N001019999999N0150001N1+00231-00381102961ADDAA199000091GF107991071001999999071999IA2999-00109MA1999999094891MD1210121-0201REMSYN082AAXX  20001 57633 32965 73601 10023 21038 39489 40296 52012 8707/ 333 05203 31011;EQDQ01  00002PRCP99
0112576330999992000012003004+28830+108770FM-12+066599999V0209999C000019999999N0150001N1+00311-00421103181ADDGF108991081001999999071999MD1210171+9999REMSYN060AAXX  20031 57633 42965 80000 10031 21042 40318 52017 8807/;
0199576330999992000012006004+28830+108770FM-12+066599999V0203601N001010360019N0120001N1+00221-00261102971ADDAA106000791AY171061GF108991011071004501021999KA1999N+00181MA1999999094861MD1710201+0001MW1701REMSYN094AAXX  20061 57633 11462 83601 10022 21026 39486 40297 57020 69901 77070 8172/ 333 00056 20018;
0150576330999992000012009004+28830+108770FM-12+066599999V0203401N001010360019N0100001N1+00161-00051102921ADDAY171031AY271031GF108991021071004501021999MD1710061+0011MW1701REMSYN076AAXX  20091 57633 41460 83401 10016 21005 40292 57006 77077 8272/ 333 00156;
0188576330999992000012012004+28830+108770FM-12+066599999V0203601N001010042019N0060001N1+00061-00051102981ADDAA106003091AY171061AY271061GF108991061071004501021999MA1999999094841MD1210041+0011MW1701REMSYN088AAXX  20121 57633 11456 83601 10006 21005 39484 40298 52004 60031 77077 8672/ 333 00155;
0140576330999992000012015004+28830+108770FM-12+066599999V0209999C000010360019N0070001N1+00031-00051103111ADDAY171031AY271031GF108991021071004501021999MD1210121+9999MW1711REMSYN066AAXX  20151 57633 41457 80000 10003 21005 40311 52012 77177 8272/;
0207576330999992000012018004+28830+108770FM-12+066599999V0209999C000010360019N0060001N1+00011-00081103071ADDAA106005191AY171061AY271061GF108991021071004501021999KA1999M+00351MA1999999094911MD1710051+0001MW1711REMSYN094AAXX  20181 57633 11456 80000 10001 21008 39491 40307 57005 60051 77177 8272/ 333 00053 10035;
0167576330999992000012021004+28830+108770FM-12+066599999V0209999C000010360019N0050001N1-00021-00081102931ADDAA124008991AY171031AY271031GF108991031071004501021999MD1710141+0001MW1711REMSYN082AAXX  20211 57633 41450 80000 11002 21008 40293 57014 77177 8372/ 333 00053 70089;
0218576330999992000012100004+28830+108770FM-12+066599999V0209999C000010360019N0020001N1-00041-00101102991ADDAA106004191AY171061AY271061GF108991021071004501021999IA2999-00039MA1999999094811MD1210041-0101MW1711REMSYN106AAXX  21001 57633 11420 80000 11004 21010 39481 40299 52004 60041 77177 8272/ 333 05153 31003 70118 92510;
0140576330999992000012103004+28830+108770FM-12+066599999V0209999C000010042019N0100001N1+00021-00031103131ADDAY171031AY271031GF108991051071004501021999MD1210131+9999MW1711REMSYN066AAXX  21031 57633 41460 80000 10002 21003 40313 52013 77177 8572/;
0207576330999992000012106004+28830+108770FM-12+066599999V0209999C000010042019N0100001N1+00041-00041102791ADDAA106004191AY171061AY271061GF108991061071004501021999KA1999N-00081MA1999999094631MD1710311-0201MW1681REMSYN094AAXX  21061 57633 11460 80000 10004 21004 39463 40279 57031 60041 76877 8672/ 333 05252 21008;
0150576330999992000012109004+28830+108770FM-12+066599999V0209999C000010360019N0100001N1+00051-00091102681ADDAY171031AY261031GF108991041071004501021999MD1710111+0031MW1601REMSYN076AAXX  21091 57633 41460 80000 10005 21009 40268 57011 76076 8472/ 333 05351;
0188576330999992000012112004+28830+108770FM-12+066599999V0209999C000010042019N0100001N1+00051-00091102801ADDAA106000591AY171061AY261061GF108991051071004501021999MA1999999094631MD1210111+0021MW1601REMSYN088AAXX  21121 57633 11460 80000 10005 21009 39463 40280 52011 69951 76076 8572/ 333 05200;
0132576330999992000012115004+28830+108770FM-12+066599999V0209999C000010360019N0100001N1+00081-00111102861ADDAY161031GF108991011071004501021999MD1210071+9999MW1001REMSYN066AAXX  21151 57633 41460 80000 10008 21011 40286 52007 70060 8172/;
0199576330999992000012118004+28830+108770FM-12+066599999V0209999C000010360019N0100001N1+00061-00051102831ADDAA106000791AY161061GF108991031071004501021999KA1999M+00101MA1999999094671MD1710031-0201MW1601REMSYN094AAXX  21181 57633 11460 80000 10006 21005 39467 40283 57003 69901 76060 8372/ 333 05201 10010;
0167576330999992000012121004+28830+108770FM-12+066599999V0209999C000010360019N0100001N1+00041-00011102751ADDAA124007191AY161031AY261031GF108991021071004501021999MD1710071-0201MW1601REMSYN082AAXX  21211 57633 41460 80000 10004 21001 40275 57007 76066 8272/ 333 05201 70070;
0218576330999992000012200004+28830+108770FM-12+066599999V0209999C000010360019N0060001N1+00051+00021102801ADDAA106000591AY161061AY261061GF108991011071004501021999IA2999-00019MA1999999094641MD1210041-0201MW1601REMSYN106AAXX  22001 57633 11456 80000 10005 20002 39464 40280 52004 69951 76066 8172/ 333 05201 31001 70046 92506;
0132576330999992000012203004+28830+108770FM-12+066599999V0209999C000010360019N0150001N1+00121+00011102851ADDAY161031GF108991021071004501021999MD1210061+9999MW1001REMSYN066AAXX  22031 57633 41465 80000 10012 20001 40285 52006 70060 8272/;
0199576330999992000012206004+28830+108770FM-12+066599999V0209999C000010360019N0150001N1+00221+00011102541ADDAA106000591AY161061GF108991021011008001021999KA1999N-00011MA1999999094431MD1710271-0201MW1001REMSYN094AAXX  22061 57633 11565 80000 10022 20001 39443 40254 57027 69941 70060 8212/ 333 05202 21001;
0122576330999992000012209004+28830+108770FM-12+066599999V0209999C000019999999N0150001N1+00241+00061102431ADDGF108991081001999999021999MD1710101+0021REMSYN070AAXX  22091 57633 42965 80000 10024 20006 40243 57010 8802/ 333 05202;
0154576330999992000012212004+28830+108770FM-12+066599999V0209999C000010150019N0120001N1+00211+00001102461ADDAA199000021GF108991081051017501999999MA1999999094351MD1210021+0031REMSYN076AAXX  22121 57633 32762 80000 10021 20000 39435 40246 52002 885// 333 05302;
0132576330999992000012215004+28830+108770FM-12+066599999V0209999C000010042019N0120001N1+00171+00051102461ADDAY161031GF108991081051004501999999MD1210021+9999MW1601REMSYN066AAXX  22151 57633 41462 80000 10017 20005 40246 52002 76060 885//;
0199576330999992000012218004+28830+108770FM-12+066599999V0209999C000010042019N0120001N1+00171+00071102401ADDAA106002091AY161061GF108991081091004501999999KA1999M+00301MA1999999094321MD1710051-0401MW1911REMSYN094AAXX  22181 57633 11462 80000 10017 20007 39432 40240 57005 60021 79160 889// 333 05401 10030;
0167576330999992000012221004+28830+108770FM-12+066599999V0209999C000010150019N0120001N1+00171+00121102341ADDAA124002891AY181031AY261031GF108991081051017501999999MD1710051-0301MW1001REMSYN082AAXX  22211 57633 41762 80000 10017 20012 40234 57005 70086 885// 333 05301 70028;
0218576330999992000012300004+28830+108770FM-12+066599999V0209999C000010042019N0120001N1+00171+00151102441ADDAA106000191AY181061AY261061GF108991081071004501999999IA2999+00149MA1999999094361MD1210091-0301MW1001REMSYN106AAXX  23001 57633 11462 80000 10017 20015 39436 40244 52009 69921 70086 887// 333 05301 30014 70023 92503;
0112576330999992000012303004+28830+108770FM-12+066599999V0209999C000010042019N0120001N1+00281+00161102601ADDGF108991081051004501999999MD1210151+9999REMSYN060AAXX  23031 57633 42462 80000 10028 20016 40260 52015 885//;
0173576330999992000012312004+28830+108770FM-12+066599999V0209999C000010075019N0120001N1+00261+00111102571ADDAA199000091GF108991081051008001999999MA1999999094481MD1210151+0011REMSYN076AAXX  23121 57633 32562 80000 10026 20011 39448 40257 52015 885// 333 00101;EQDQ01  00002PRCP99
0132576330999992000012315004+28830+108770FM-12+066599999V0201401N003010042019N0120001N1+00231+00081102731ADDAY161031GF108991081051004501999999MD1210161+9999MW1601REMSYN066AAXX  23151 57633 41462 81403 10023 20008 40273 52016 76060 885//;
0207576330999992000012318004+28830+108770FM-12+066599999V0209999C000010042019N0150001N1+00171+00091102761ADDAA106002091AY191061AY281061GF108991081071004501999999KA1999M+00321MA1999999094661MD1210021+0301MW1601REMSYN094AAXX  23181 57633 11465 80000 10017 20009 39466 40276 52002 60021 76098 887// 333 00300 10032;
0167576330999992000012321004+28830+108770FM-12+066599999V0209999C000010042019N0100001N1+00181+00021102771ADDAA124002391AY181031AY261031GF108991081091004501999999MD1210011+0401MW1931REMSYN082AAXX  23211 57633 41460 80000 10018 20002 40277 52001 79386 889// 333 00400 70024;
0218576330999992000012400004+28830+108770FM-12+066599999V0209999C000010042019N0100001N1+00091+00041103121ADDAA106005191AY191061AY281061GF108991081051004501999999IA2999+00009MA1999999094971MD1210301+0601MW1701REMSYN106AAXX  24001 57633 11460 80000 10009 20004 39497 40312 52030 60051 77098 885// 333 00651 30000 70069 92502;
0140576330999992000012403004+28830+108770FM-12+066599999V0209999C000010042019N0120001N1+00191+00061103401ADDAY171031AY271031GF108991081071004501999999MD1210271+9999MW1701REMSYN066AAXX  24031 57633 41462 80000 10019 20006 40340 52027 77077 887//;
0207576330999992000012406004+28830+108770FM-12+066599999V0209999C000010042019N0170001N1+00291-00111103321ADDAA106000191AY171061AY261061GF107991051071004501041999KA1999N+00031MA1999999095171MD1710071+0901MW1001REMSYN094AAXX  24061 57633 11467 70000 10029 21011 39517 40332 57007 69921 70076 8574/ 333 00900 20003;
0157576330999992000012409004+28830+108770FM-12+066599999V0201601N002010360019N0170001N1+00191-00111999999ADDGF108991021011008001071999MD1210081+0091REMSYN070AAXX  24091 57633 42567 81602 10019 21011 49342 52008 8217/ 333 00951;EQDQ01+093423APOSLPQ02 093423APOSLP
0173576330999992000012412004+28830+108770FM-12+066599999V0209999C000019999999N0150001N1+00131-00151103702ADDAA199000021GF108991081001999999071999MA1999999095491MD1210241+0101REMSYN076AAXX  24121 57633 32965 80000 10013 21015 39549 40370 52024 8807/ 333 01051;EQDQ01+103703APOSLP
0112576330999992000012415004+28830+108770FM-12+066599999V0200201N001019999999N0150001N1+00091-00161103861ADDGF108991081001999999071999MD1210161+9999REMSYN060AAXX  24151 57633 42965 80201 10009 21016 40386 52016 8807/;
0192576330999992000012418004+28830+108770FM-12+066599999V0200901N002019999999N0150001N1+00021-00211103851ADDAA199000091GF108991081001999999071999KA1999M+00321MA1999999095641MD1710011+1001REMSYN082AAXX  24181 57633 32965 80902 10002 21021 39564 40385 57001 8807/ 333 01052 10032;EQDQ01  00002PRCP99
0159576330999992000012421004+28830+108770FM-12+066599999V0201101N001010360019N0150001N1-00041-00261103841ADDAA124005191AY171031GF108991031071004501021999MD1710031+0901MW1701REMSYN082AAXX  24211 57633 41465 81101 11004 21026 40384 57003 77070 8372/ 333 00952 70051;
0210576330999992000012500004+28830+108770FM-12+066599999V0209999C000010360019N0070001N1-00151+99999103911ADDAA106001091AY171061GF108991021071004501021999IA2999-00069MA1999999095651MD1210041+0701MW1701REMSYN106AAXX  25001 57633 11457 80000 11015 21003 39565 40391 52004 60011 77070 8272/ 333 00752 31006 70012 92502;
0140576330999992000012503004+28830+108770FM-12+066599999V0209999C000010042019N0150001N1-00011-00341104091ADDAY171031AY271031GF108991051071004501021999MD1210181+9999MW1221REMSYN066AAXX  25031 57633 41465 80000 11001 21034 40409 52018 72277 8572/;
0160576330999992000012506004+28830+108770FM-12+066599999V0209999C000019999999N0150001N1+00021-00371103801ADDGF108991999999008001999999MA1999999095561MD1710271+0401REMSYN093AAXX  25061 57633 11565 80000 10002 21037 39556 40380 57027 6931 70070 8412/ 333 00453 21021;
0142576330999992000012509004+28830+108770FM-12+066599999V0209999C000010360019N0120001N1-00031-00451103811ADDAY171031GF108991021071004501021999MD1710011+0031MW1701REMSYN076AAXX  25091 57633 41462 80000 11003 21045 40381 57001 77070 8272/ 333 00352;
0180576330999992000012512004+28830+108770FM-12+066599999V0209999C000010042019N0060001N1-00091-00321104011ADDAA106000191AY171061GF108991061071004501021999MA1999999095711MD1210161+0021MW1701REMSYN088AAXX  25121 57633 11456 80000 11009 21032 39571 40401 52016 69911 77070 8672/ 333 00252;
0140576330999992000012515004+28830+108770FM-12+066599999V0201601N001010360019N0070001N1-00111-00561104141ADDAY171031AY271031GF108991031071004501021999MD1210141+9999MW1701REMSYN066AAXX  25151 57633 41457 81601 11011 21056 40414 52014 77077 8372/;
0199576330999992000012518004+28830+108770FM-12+066599999V0209999C000010360019N0100001N1-00161-00481104151ADDAA106000591AY171061GF108991011071004501021999KA1999M+00061MA1999999095851MD1410001+0201MW1701REMSYN094AAXX  25181 57633 11460 80000 11016 21048 39585 40415 54000 69961 77070 8172/ 333 00252 10006;
0167576330999992000012521004+28830+108770FM-12+066599999V0209999C000010360019N0100001N1-00191-00521104131ADDAA124001591AY171031AY271031GF108991011071004501021999MD1710031+0201MW1701REMSYN082AAXX  25211 57633 41460 80000 11019 21052 40413 57003 77077 8172/ 333 00252 70016;
0210576330999992000012600004+28830+108770FM-12+066599999V0209999C000019999999N0120001N1-00191-00451104221ADDAA106000791AY171061GF108991081001999999071999IA2999-00099MA1999999095901MD1210081+0301MW1001REMSYN106AAXX  26001 57633 11962 80000 11019 21045 39590 40422 52008 69901 70070 8807/ 333 00300 31009 70010 92502;
0112576330999992000012603004+28830+108770FM-12+066599999V0209999C000019999999N0120001N1+00001-00491104321ADDGF108991081001999999071999MD1210111+9999REMSYN060AAXX  26031 57633 42962 80000 10000 21049 40432 52011 8807/;
0173576330999992000012606004+28830+108770FM-12+066599999V0201601N002019999999N0120001N1+00091-00551104041ADDAA199000021GF108991081001999999071999KA1999N-00241MA1999999095761MD1710251+0201REMSYN082AAXX  26061 57633 32962 81602 10009 21055 39576 40404 57025 8807/ 333 00201 21024;
0122576330999992000012609004+28830+108770FM-12+066599999V0209999C000010360019N0120001N1+00061-00401103941ADDGF108991031041012501071999MD1710101+0011REMSYN070AAXX  26091 57633 42662 80000 10006 21040 40394 57010 8347/ 333 00101;
0173576330999992000012612004+28830+108770FM-12+066599999V0209999C000010360019N0100001N1+00031-00361104041ADDAA199000091GF108991021041012501071999MA1999999095751MD1210091+0001REMSYN076AAXX  26121 57633 32660 80000 10003 21036 39575 40404 52009 8247/ 333 00001;EQDQ01  00002PRCP99
0179576330999992000012615004+28830+108770FM-12+066599999V0209999C000010360019N0100001N1+00031-00361999999ADDAA199000091GF108991021041012501071999MA1999999095751MD1210091+9999REMSYN066AAXX  26151 57633 32660 80000 10003 21036 39575 40304 52009 8247/;EQDQ01+103043APOSLPQ02  00002PRCP99
0192576330999992000012618004+28830+108770FM-12+066599999V0209999C000019999999N0120001N1+00001-00501104021ADDAA199000091GF107991071001999999041999KA1999M+00161MA1999999095771MD1710101-0101REMSYN082AAXX  26181 57633 32962 70000 10000 21050 39577 40402 57010 8704/ 333 05102 10016;EQDQ01  00002PRCP99
0139576330999992000012621004+28830+108770FM-12+066599999V0209999C000012200019N0100001N1-00091-00401103931ADDAA124000791GF102991021001999999041001MD1710101-0201REMSYN076AAXX  26211 57633 42960 20000 11009 21040 40393 57010 82040 333 05201 79999;
0191576330999992000012700004+28830+108770FM-12+066599999V0209999C000019999999N0100001N1-00151-00431103941ADDAA199000091GF107991071001999999031999IA2999-00109MA1999999095661MD1710011-0201REMSYN082AAXX  27001 57633 32960 70000 11015 21043 39566 40394 57001 8703/ 333 05200 31016;EQDQ01  00002PRCP99
0112576330999992000012703004+28830+108770FM-12+066599999V0200401N001010360019N0120001N1+00031-00571103971ADDGF108991031011008001071999MD1210061+9999REMSYN060AAXX  27031 57633 42562 80401 10003 21057 40397 52006 8317/;
0199576330999992000012706004+28830+108770FM-12+066599999V0209999C000010360019N0120001N1+00101-00461103641ADDAA106000791AY171061GF108991011071004501021999KA1999N-00231MA1999999095421MD1710301-0301MW1001REMSYN094AAXX  27061 57633 11462 80000 10010 21046 39542 40364 57030 69901 70070 8172/ 333 05300 21023;
0142576330999992000012709004+28830+108770FM-12+066599999V0209999C000010360019N0100001N1-00021-00371103521ADDAY171031GF108991021071004501071999MD1710141+0041MW1701REMSYN076AAXX  27091 57633 41460 80000 11002 21037 40352 57014 77070 8277/ 333 05451;
0180576330999992000012712004+28830+108770FM-12+066599999V0209999C000010360019N0100001N1-00051-00411103641ADDAA106000791AY171061GF108991031071004501071999MA1999999095371MD1210091+0041MW1701REMSYN088AAXX  27121 57633 11460 80000 11005 21041 39537 40364 52009 69901 77070 8377/ 333 05451;
0140576330999992000012715004+28830+108770FM-12+066599999V0203601N001010042019N0100001N1-00061-00421103571ADDAY171031AY271031GF108991051071004501021999MD1710041+9999MW1701REMSYN066AAXX  27151 57633 41460 83601 11006 21042 40357 57004 77077 8572/;
0207576330999992000012718004+28830+108770FM-12+066599999V0203601N001010042019N0100001N1-00091-00501103521ADDAA106000191AY171061AY271061GF108991061071004501021999KA1999M+00121MA1999999095291MD1710041-0501MW1701REMSYN094AAXX  27181 57633 11460 83601 11009 21050 39529 40352 57004 69911 77077 8672/ 333 05551 10012;
0167576330999992000012721004+28830+108770FM-12+066599999V0209999C000010042019N0100001N1-00161-00441103381ADDAA124000191AY171031AY271031GF108991051071004501021999MD1710151-0501MW1711REMSYN082AAXX  27211 57633 41460 80000 11016 21044 40338 57015 77177 8572/ 333 05551 70001;
0212576330999992000012800004+28830+108770FM-12+066599999V0209999C000010042019N0120001N1-00151-00651103411ADDAA106000791AY171061AY271061GF108991051071004501021999IA2999-00089MA1999999095161MD1210021-0501MW1711REMSYN100AAXX  28001 57633 11462 80000 11015 21065 39516 40341 52002 69901 77177 8572/ 333 05500 31008 72500;
0140576330999992000012803004+28830+108770FM-12+066599999V0209999C000010360019N0150001N1-00091-00651103491ADDAY171031AY271031GF108991031071004501021999MD1210081+9999MW1711REMSYN066AAXX  28031 57633 41465 80000 11009 21065 40349 52008 77177 8372/;
0207576330999992000012806004+28830+108770FM-12+066599999V0209999C000010360019N0150001N1-00021-00561103211ADDAA106000191AY171061AY271061GF108991011071004501021999KA1999N-00201MA1999999094991MD1710251-0401MW1711REMSYN094AAXX  28061 57633 11465 80000 11002 21056 39499 40321 57025 69921 77177 8172/ 333 05451 21020;
0150576330999992000012809004+28830+108770FM-12+066599999V0209999C000010360019N0100001N1-00031-00451103071ADDAY171031AY271031GF108991011071004501021999MD1710141+0041MW1711REMSYN076AAXX  28091 57633 41460 80000 11003 21045 40307 57014 77177 8172/ 333 05400;
0140576330999992000012815004+28830+108770FM-12+066599999V0209999C000010360019N0100001N1-00041-00471103391ADDAY171031AY271031GF108991011071004501021999MD1210131+9999MW1711REMSYN066AAXX  28151 57633 41460 80000 11004 21047 40339 52013 77177 8172/;
0199576330999992000012818004+28830+108770FM-12+066599999V0209999C000019999999N0100001N1-00111-00281103431ADDAA106000791AY171061GF108991081001999999021999KA1999M+00051MA1999999095191MD1210041-0101MW1001REMSYN094AAXX  28181 57633 11960 80000 11011 21028 39519 40343 52004 69901 70070 8802/ 333 05100 10005;
0139576330999992000012821004+28830+108770FM-12+066599999V0209999C000019999999N0100001N1-00171-00291103491ADDAA124000391GF107991071001999999031999MD1210051+0101REMSYN076AAXX  28211 57633 42960 70000 11017 21029 40349 52005 8703/ 333 00100 70002;
0210576330999992000012900004+28830+108770FM-12+066599999V0209999C000019999999N0100001N1-00141-00281103721ADDAA106000791AY171061GF107991071001999999031999IA2999-00179MA1999999095451MD1210211+0301MW1001REMSYN106AAXX  29001 57633 11960 70000 11014 21028 39545 40372 52021 69901 70070 8703/ 333 00300 31017 70002 92500;
0132576330999992000012903004+28830+108770FM-12+066599999V0209999C000019999999N0100001N1+00161-00271103881ADDAY171031GF107991071001999999041999MD1210191+9999MW1001REMSYN066AAXX  29031 57633 41960 70000 10016 21027 40388 52019 70070 8704/;
0199576330999992000012906004+28830+108770FM-12+066599999V0203401N001010360019N0150001N1+00551-00411103601ADDAA106000791AY171061GF107991021011008001031999KA1999N-00191MA1999999095431MD1710211+0401MW1001REMSYN094AAXX  29061 57633 11565 73401 10055 21041 39543 40360 57021 69901 70070 8213/ 333 00406 21019;
0122576330999992000012909004+28830+108770FM-12+066599999V0209999C000010360019N0150001N1+00511-00281103541ADDGF107991011011008001031999MD1710071+0051REMSYN070AAXX  29091 57633 42565 70000 10051 21028 40354 57007 8113/ 333 00505;
0183576330999992000012912004+28830+108770FM-12+066599999V0209999C000012200019N0120001N1+00191-00141103921ADDAA199000091GA1001+999999999GF100991001001999999001001MA1999999095671MD1210311+0071REMSYN070AAXX  29121 57633 32962 00000 10019 21014 39567 40392 52031 333 00702;EQDQ01  00002PRCP99
0112576330999992000012915004+28830+108770FM-12+066599999V0209999C000019999999N0100001N1+00231-00011104111ADDGF108991081001999999071999MD1210221+9999REMSYN060AAXX  29151 57633 42960 80000 10023 21001 40411 52022 8807/;
0192576330999992000012918004+28830+108770FM-12+066599999V0209999C000019999999N0100001N1+00221+00011104051ADDAA199000091GF108991081001999999071999KA1999M+00661MA1999999095891MD1410001+0701REMSYN082AAXX  29181 57633 32960 80000 10022 20001 39589 40405 54000 8807/ 333 00703 10066;EQDQ01  00002PRCP99
0133576330999992000012921004+28830+108770FM-12+066599999V0209999C000019999999N0100001N1+99999+99999103971ADDAA124000791GF108991081001999999071999MD1719999+0601REMSYN070AAXX  29211 57633 42960 80000 21040 40397 570/8 8807/ 333 00604 79999;
0178576330999992000013000004+28830+108770FM-12+066599999V0209999C000019999999N0150001N1+00131-00571104151ADDAA124000791GF107991071001999999031999IA2999-00019MA1999999095921MD1210111+0501REMSYN088AAXX  30001 57633 32965 70000 10013 21057 39592 40415 52011 8703/ 333 00503 31001 79999;
0124576330999992000013003004+28830+108770FM-12+066599999V0209999C000010360019N0150001N1+00181-00731104341ADDGF108991011071004501021999MD1210191+9999MW1701REMSYN066AAXX  30031 57633 41465 80000 10018 21073 40434 52019 77000 8172/;
0199576330999992000013006004+28830+108770FM-12+066599999V0201401N001010360019N0150001N1+00191-00551104041ADDAA106000791AY171061GF108991031011008001071999KA1999N+00091MA1999999095831MD1710281+0401MW1001REMSYN094AAXX  30061 57633 11565 81401 10019 21055 39583 40404 57028 69901 70070 8317/ 333 00454 20009;
0134576330999992000013009004+28830+108770FM-12+066599999V0201101N001019999999N0150001N1+00111-00691104061ADDGF108991081001999999071999MD1410001+0051MW1701REMSYN076AAXX  30091 57633 41965 81101 10011 21069 40406 54000 77000 8807/ 333 00554;
0180576330999992000013012004+28830+108770FM-12+066599999V0209999C000019999999N0120001N1-00191-00451104301ADDAA106000191AY171061GF108991081001999999021999MA1999999096001MD1210171+0031MW1701REMSYN088AAXX  30121 57633 11962 80000 11019 21045 39600 40430 52017 69911 77070 8802/ 333 00354;
0140576330999992000013015004+28830+108770FM-12+066599999V0209999C000019999999N0080001N1-00251-00381104391ADDAY171031AY271031GF108991081001999999021999MD1210081+9999MW1711REMSYN066AAXX  30151 57633 41958 80000 11025 21038 40439 52008 77177 8802/;
0207576330999992000013018004+28830+108770FM-12+066599999V0209999C000019999999N0070001N1-00281-00451104311ADDAA106004191AY171061AY271061GF108991081001999999021999KA1999M+00261MA1999999096011MD1710071+0101MW1711REMSYN094AAXX  30181 57633 11957 80000 11028 21045 39601 40431 57007 60041 77177 8802/ 333 00155 10026;
0167576330999992000013021004+28830+108770FM-12+066599999V0209999C000010360019N0060001N1-00321-00501104171ADDAA124005691AY171031AY271031GF108991021071004501021999MD1710151+0101MW1711REMSYN082AAXX  30211 57633 41456 80000 11032 21050 40417 57015 77177 8272/ 333 00155 70055;
0218576330999992000013100004+28830+108770FM-12+066599999V0209999C000010360019N0120001N1-00291-00541104281ADDAA106002091AY171061AY271061GF108991021071004501021999IA2999-00379MA1999999095921MD1210061+0001MW1711REMSYN106AAXX  31001 57633 11462 80000 11029 21054 39592 40428 52006 60021 77177 8272/ 333 00054 31037 70061 92509;
0140576330999992000013103004+28830+108770FM-12+066599999V0209999C000010360019N0100001N1-00211-00551104341ADDAY171031AY271031GF108991031071004501021999MD1210061+9999MW1711REMSYN066AAXX  31031 57633 41460 80000 11021 21055 40434 52006 77177 8372/;
0199576330999992000013106004+28830+108770FM-12+066599999V0200401N002010042019N0150001N1-00131-00761104021ADDAA106000391AY171061GF108991081071004501999999KA1999N-00371MA1999999095691MD1710291-0101MW1701REMSYN094AAXX  31061 57633 11465 80402 11013 21076 39569 40402 57029 69931 77070 887// 333 05153 21037;
0142576330999992000013109004+28830+108770FM-12+066599999V0209999C000010360019N0100001N1-00191-00591103871ADDAY171031GF108991011071004501021999MD1710151+0031MW1701REMSYN076AAXX  31091 57633 41460 80000 11019 21059 40387 57015 77070 8172/ 333 05353;
0180576330999992000013112004+28830+108770FM-12+066599999V0209999C000010150019N0150001N1-00281-00761103991ADDAA106000791AY171061GF108991081051017501999999MA1999999095641MD1210101+0041MW1001REMSYN088AAXX  31121 57633 11765 80000 11028 21076 39564 40399 52010 69901 70070 885// 333 05451;
0132576330999992000013115004+28830+108770FM-12+066599999V0209999C000010360019N0120001N1-00311-00601104041ADDAY171031GF108991021071004501021999MD1210061+9999MW1701REMSYN066AAXX  31151 57633 41462 80000 11031 21060 40404 52006 77070 8272/;
0199576330999992000013118004+28830+108770FM-12+066599999V0209999C000010042019N0120001N1-00341-00671103931ADDAA106000791AY171061GF108991061071004501021999KA1999M-00071MA1999999095601MD1710101-0401MW1701REMSYN094AAXX  31181 57633 11462 80000 11034 21067 39560 40393 57010 69901 77070 8672/ 333 05451 11007;
0167576330999992000013121004+28830+108770FM-12+066599999V0209999C000010042019N0120001N1-00351-00811103821ADDAA124001091AY171031AY271031GF108991051071004501021999MD1710111-0401MW1701REMSYN082AAXX  31211 57633 41462 80000 11035 21081 40382 57011 77077 8572/ 333 05400 70009;
0218576330999992000020100004+28830+108770FM-12+066599999V0209999C000010360019N0120001N1-00391-00621103881ADDAA106000791AY171061AY271061GF108991021071004501021999IA2999-00299MA1999999095531MD1210041-0401MW1701REMSYN106AAXX  01001 57633 11462 80000 11039 21062 39553 40388 52004 69901 77077 8272/ 333 05451 31029 70003 92507;
0140576330999992000020103004+28830+108770FM-12+066599999V0209999C000010360019N0150001N1-00241-00661103851ADDAY171031AY271031GF108991031071004501021999MD1710011+9999MW1221REMSYN066AAXX  01031 57633 41465 80000 11024 21066 40385 57001 72277 8372/;
0199576330999992000020106004+28830+108770FM-12+066599999V0203601N001010360019N0180001N1-00121-00661103441ADDAA106000591AY171061GF108991021071004501071999KA1999N-00421MA1999999095151MD1710371-0501MW1001REMSYN094AAXX  01061 57633 11468 83601 11012 21066 39515 40344 57037 69951 70070 8277/ 333 05500 21042;
0134576330999992000020109004+28830+108770FM-12+066599999V0209999C000010360019N0150001N1-00161-00511103281ADDGF108991011071004501071999MD1710151+0051MW1701REMSYN076AAXX  01091 57633 41465 80000 11016 21051 40328 57015 77000 8177/ 333 05500;
0180576330999992000020112004+28830+108770FM-12+066599999V0200401N001019999999N0120001N1-00221-00711103231ADDAA106000791AY171061GF108991081001999999071999MA1999999094941MD1710061+0071MW1001REMSYN088AAXX  01121 57633 11962 80401 11022 21071 39494 40323 57006 69901 70070 8807/ 333 05701;
0112576330999992000020115004+28830+108770FM-12+066599999V0209999C000019999999N0120001N1-00231-00651103231ADDGF108991081001999999071999MD1210021+9999REMSYN060AAXX  01151 57633 42962 80000 11023 21065 40323 52002 8807/;
0199576330999992000020118004+28830+108770FM-12+066599999V0209999C000010042019N0100001N1-00291-00431103181ADDAA106000791AY161061GF108991061071004501071999KA1999M-00041MA1999999094921MD1710041-0701MW1601REMSYN094AAXX  01181 57633 11460 80000 11029 21043 39492 40318 57004 69901 76060 8677/ 333 05701 11004;
0167576330999992000020121004+28830+108770FM-12+066599999V0209999C000010042019N0120001N1-00251-00481103051ADDAA124000591AY161031AY261031GF108991081071004501999999MD1710201-0701MW1661REMSYN082AAXX  01211 57633 41462 80000 11025 21048 40305 5702/ 76666 887// 333 05701 70006;
0224576330999992000020200004+28830+108770FM-12+066599999V0209999C000010042019N0120001N1-00251-00411103201ADDAA106000191AY171061AY261061GF108991081071004501999999IA2999-00209MA1999999094931MD1210131-0601MW1681REMSYN112AAXX  02001 57633 11462 80000 11025 21041 39493 40320 52013 69911 76876 887// 333 05601 31020 70006 92500 93404;
0140576330999992000020203004+28830+108770FM-12+066599999V0209999C000010042019N0120001N1-00151-00401103291ADDAY171031AY271031GF108991081071004501999999MD1210101+9999MW1701REMSYN066AAXX  02031 57633 41462 80000 11015 21040 40329 52010 77077 887//;
0207576330999992000020206004+28830+108770FM-12+066599999V0209999C000010360019N0150001N1-00021-00481103031ADDAA106000391AY171061AY271061GF108991031071004501071999KA1999N-00331MA1999999094801MD1710231-0401MW1221REMSYN094AAXX  02061 57633 11465 80000 11002 21048 39480 40303 57023 69931 72277 8377/ 333 05401 21033;
0122576330999992000020209004+28830+108770FM-12+066599999V0209999C000019999999N0150001N1+00031-00341102891ADDGF108991081001999999071999MD1710121+0031REMSYN070AAXX  02091 57633 42965 80000 10003 21034 40289 57012 8807/ 333 05302;
0154576330999992000020212004+28830+108770FM-12+066599999V0209999C000010360019N0120001N1-00031-00311102991ADDAA199000021GF108991011011004501071999MA1999999094761MD1210081+0021REMSYN076AAXX  02121 57633 32462 80000 11003 21031 39476 40299 52008 8117/ 333 05202;
0112576330999992000020215004+28830+108770FM-12+066599999V0209999C000019999999N0120001N1-00031-00351103091ADDGF108991081001999999071999MD1210111+9999REMSYN060AAXX  02151 57633 42962 80000 11003 21035 40309 52011 8807/;
0173576330999992000020218004+28830+108770FM-12+066599999V0209999C000019999999N0120001N1-00021-00301103001ADDAA199000021GF108991081001999999071999KA1999M+00061MA1999999094811MD1710061-0101REMSYN082AAXX  02181 57633 32962 80000 11002 21030 39481 40300 57006 8807/ 333 05103 10006;
0126576330999992000020221004+28830+108770FM-12+066599999V0209999C000019999999N0100001N1-00031-00391102921ADDAY131031GF108991999999999999999999MD1710071+9999MW1001REMSYN060AAXX  02211 57633 42960 80000 11003 21039 40292 57007 70003;
0202576330999992000020300004+28830+108770FM-12+066599999V0209999C000010150019N0100001N1-00071-00311103031ADDAA106000791GF108991081051017501999999IA2999-00049MA1999999094831MD1210091-0101MW1601REMSYN106AAXX  03001 57633 11760 80000 11007 21031 39483 40303 52009 69901 76000 885// 333 05102 31004 70003 92500;
0132576330999992000020303004+28830+108770FM-12+066599999V0200201N001010042019N0120001N1+00001-00331103081ADDAY161031GF108991081071004501999999MD1210051+9999MW1001REMSYN066AAXX  03031 57633 41462 80201 10000 21033 40308 52005 70060 887//;
0185576330999992000020306004+28830+108770FM-12+066599999V0209999C000010150019N0120001N1+00011-00351102781ADDAA106000791AY161061GF108991081051017501999999MA1999999094611MD1710271+9999MW1001REMSYN093AAXX  03061 57633 11762 80000 10001 21035 39461 40278 57027 69901 70060 885// 33 05200 21011;
0142576330999992000020309004+28830+108770FM-12+066599999V0209999C000010042019N0120001N1-00031-00261102661ADDAY161031GF108991081071004501999999MD1710121+0021MW1601REMSYN076AAXX  03091 57633 41462 80000 11003 21026 40266 57012 76060 887// 333 05251;
0180576330999992000020312004+28830+108770FM-12+066599999V0203601N001010042019N0120001N1-00031-00231102871ADDAA106000791AY161061GF108991081071004501999999MA1999999094681MD1210191+0011MW1601REMSYN088AAXX  03121 57633 11462 83601 11003 21023 39468 40287 52019 69901 76060 887// 333 05100;
0140576330999992000020315004+28830+108770FM-12+066599999V0209999C000010042019N0100001N1-00051-00191102951ADDAY161031AY261031GF108991081071004501999999MD1210081+9999MW1601REMSYN066AAXX  03151 57633 41460 80000 11005 21019 40295 52008 76066 887//;
0207576330999992000020318004+28830+108770FM-12+066599999V0209999C000010042019N0100001N1-00051-00191102881ADDAA106000791AY161061AY261061GF108991081071004501999999KA1999M+00041MA1999999094701MD1710061-0101MW1601REMSYN094AAXX  03181 57633 11460 80000 11005 21019 39470 40288 57006 69901 76066 887// 333 05100 10004;
0167576330999992000020321004+28830+108770FM-12+066599999V0209999C000010042019N0100001N1-00071-00211102831ADDAA124000791AY161031AY261031GF108991081071004501999999MD1710061-0101MW1601REMSYN082AAXX  03211 57633 41460 80000 11007 21021 40283 57006 76066 887// 333 05100 79999;
0212576330999992000020400004+28830+108770FM-12+066599999V0209999C000010042019N0100001N1-00071-00161102871ADDAA106000791AY161061AY261061GF108991081071004501999999IA2999-00029MA1999999094681MD1210041-0201MW1601REMSYN100AAXX  04001 57633 11460 80000 11007 21016 39468 40287 52004 69901 76066 887// 333 05200 31002 79999;
0140576330999992000020403004+28830+108770FM-12+066599999V0209999C000010042019N0150001N1+00031-00171102961ADDAY161031AY261031GF108991081071004501999999MD1210091+9999MW1601REMSYN066AAXX  04031 57633 41465 80000 10003 21017 40296 52009 76066 887//;
0207576330999992000020406004+28830+108770FM-12+066599999V0209999C000010042019N0180001N1+00141-00131102741ADDAA106000791AY171061AY261061GF108991081071004501999999KA1999N-00111MA1999999094591MD1710181+0001MW1701REMSYN094AAXX  04061 57633 11468 80000 10014 21013 39459 40274 57018 69901 77076 887// 333 00001 21011;
0142576330999992000020409004+28830+108770FM-12+066599999V0209999C000010150019N0120001N1+00181-00091102641ADDAY171031GF108991081051017501999999MD1710091+0001MW1001REMSYN076AAXX  04091 57633 41762 80000 10018 21009 40264 57009 70070 885// 333 00002;
0180576330999992000020412004+28830+108770FM-12+066599999V0209999C000010150019N0100001N1+00131-00061102821ADDAA106000791AY171061GF108991081051017501999999MA1999999094661MD1210161+0001MW1001REMSYN088AAXX  04121 57633 11760 80000 10013 21006 39466 40282 52016 69901 70070 885// 333 00002;
0112576330999992000020415004+28830+108770FM-12+066599999V0209999C000010150019N0100001N1+00111-00111102951ADDGF108991081051017501999999MD1210131+9999REMSYN060AAXX  04151 57633 42760 80000 10011 21011 40295 52013 885//;
0173576330999992000020418004+28830+108770FM-12+066599999V0209999C000010150019N0100001N1+00081-00081102931ADDAA199000021GF108991081051017501999999KA1999M+00211MA1999999094781MD1710011+0101REMSYN082AAXX  04181 57633 32760 80000 10008 21008 39478 40293 57001 885// 333 00101 10021;
0139576330999992000020421004+28830+108770FM-12+066599999V0209999C000010150019N0100001N1+00091-00101102901ADDAA124000791GF108991081051017501999999MD1710021+0101REMSYN076AAXX  04211 57633 42760 80000 10009 21010 40290 57002 885// 333 00102 79999;
0178576330999992000020500004+28830+108770FM-12+066599999V0209999C000010150019N0100001N1+00111-00081103001ADDAA124000791GF108991081051017501999999IA2999+00129MA1999999094851MD1210091+0201REMSYN088AAXX  05001 57633 32760 80000 10011 21008 39485 40300 52009 885// 333 00202 30012 79999;
0112576330999992000020503004+28830+108770FM-12+066599999V0209999C000010150019N0100001N1+00291-00021103061ADDGF108991081051017501999999MD1210081+9999REMSYN060AAXX  05031 57633 42760 80000 10029 21002 40306 52008 885//;
0192576330999992000020506004+28830+108770FM-12+066599999V0209999C000010360019N0120001N1+00591+00101102671ADDAA199000091GF108991011011008001071999KA1999N+00041MA1999999094601MD1710331+0001REMSYN082AAXX  05061 57633 32562 80000 10059 20010 39460 40267 57033 8117/ 333 00005 20004;EQDQ01  00002PRCP99
0122576330999992000020509004+28830+108770FM-12+066599999V0209999C000019999999N0150001N1+00541-00051102581ADDGF108991081001999999071999MD1710081+0001REMSYN070AAXX  05091 57633 42965 80000 10054 21005 40258 57008 8807/ 333 00004;
0173576330999992000020512004+28830+108770FM-12+066599999V0209999C000019999999N0120001N1+00361+00191102681ADDAA199000091GF108991081001999999071999MA1999999094591MD1210071+0011REMSYN076AAXX  05121 57633 32962 80000 10036 20019 39459 40268 52007 8807/ 333 05102;EQDQ01  00002PRCP99
0208576330999992000020518004+28830+108770FM-12+066599999V0209999C000012200019N9999999N1-00041-00101102821ADDAA199000091GA1001+999999999GF100991001001999999001001KA1999M+00671MA1999999094731MD1210011-0101REMSYN082AAXX  05181 57633 3/6// 00000 11004 21010 39473 40282 52001 71000 333 05151 10067;EQDQ01  00002PRCP99
0134576330999992000020521004+28830+108770FM-12+066599999V0209999C000019999999N0030001N1-00091-00121102701ADDGF108991081001999999071999MD1710131+0021MW1101REMSYN076AAXX  05211 57633 41930 80000 11009 21012 40270 57013 71000 8807/ 333 05252;
0221576330999992000020600004+28830+108770FM-12+066599999V0209999C000010003019N0004001N1-00171-00171102771ADDAA199000091AY141061GA1091+999999999GF109991091999999999999999IA2999-00309MA1999999094631MD1210031-0201MW1451REMSYN082AAXX  06001 57633 31/04 90000 11017 21017 39463 40277 52003 74540 333 05253 31033;EQDQ01  00002PRCP99
0150576330999992000020603004+28830+108770FM-12+066599999V0209999C000012200019N0040001N1+00091+00061102751ADDAY141031AY241031GA1001+999999999GF100991001001999999001001MD1710021+9999MW1281REMSYN060AAXX  06031 57633 41940 00000 10009 20006 40275 57002 72844;
0222576330999992000020606004+28830+108770FM-12+066599999V0209999C000012200019N0150001N1+01001-00431102161ADDAA199000091AY141061GA1001+999999999GF100991001001999999001001KA1999N-00211MA1999999094171MD1710441-0401MW1001REMSYN082AAXX  06061 57633 31965 00000 10100 21043 39417 40216 57044 70040 333 05404 21021;EQDQ01  00002PRCP99
0132576330999992000020609004+28830+108770FM-12+066599999V0203601N001012200019N0150001N1+01041-00251102051ADDGA1001+999999999GF100991001001999999001001MD1710101+0051REMSYN064AAXX  06091 57633 42965 03601 10104 21025 40205 57010 333 05505;
0183576330999992000020612004+28830+108770FM-12+066599999V0209999C000012200019N0150001N1+00421-00051102371ADDAA199000091GA1001+999999999GF100991001001999999001001MA1999999094271MD1210201+0031REMSYN070AAXX  06121 57633 32965 00000 10042 21005 39427 40237 52020 333 05301;EQDQ01  00002PRCP99
0122576330999992000020615004+28830+108770FM-12+066599999V0209999C000012200019N0100001N1+00171-00041102551ADDGA1001+999999999GF100991001001999999001001MD1210171+9999REMSYN054AAXX  06151 57633 42960 00000 10017 21004 40255 52017;
0202576330999992000020618004+28830+108770FM-12+066599999V0209999C000012200019N0100001N1+00031-00051102641ADDAA199000091GA1001+999999999GF100991001001999999001001KA1999M+01151MA1999999094631MD1210191-0101REMSYN076AAXX  06181 57633 32960 00000 10003 21005 39463 40264 52019 333 05101 10115;EQDQ01  00002PRCP99
0122576330999992000020621004+28830+108770FM-12+066599999V0209999C000019999999N0100001N1+00071-00041102701ADDGF108991081001999999071999MD1210061+0011REMSYN070AAXX  06211 57633 42960 80000 10007 21004 40270 52006 8807/ 333 00102;
0191576330999992000020700004+28830+108770FM-12+066599999V0209999C000019999999N0120001N1+00131+00001102871ADDAA199000091GF108991081001999999071999IA2999-00109MA1999999094771MD1210081+0101REMSYN082AAXX  07001 57633 32962 80000 10013 20000 39477 40287 52008 8807/ 333 00103 31011;EQDQ01  00002PRCP99
0112576330999992000020703004+28830+108770FM-12+066599999V0209999C000019999999N0120001N1+00401+00041103011ADDGF108991081001999999071999MD1210131+9999REMSYN060AAXX  07031 57633 42962 80000 10040 20004 40301 52013 8807/;
0192576330999992000020706004+28830+108770FM-12+066599999V0209999C000019999999N0150001N1+01021-00011102661ADDAA199000091GF107991071001999999041999KA1999N-00031MA1999999094651MD1710251+0501REMSYN082AAXX  07061 57633 32965 70000 10102 21001 39465 40266 57025 8704/ 333 00500 21003;EQDQ01  00002PRCP99
0122576330999992000020709004+28830+108770FM-12+066599999V0201601N001019999999N0150001N1+01001-00111102501ADDGF107991071001999999031999MD1710151+0041REMSYN070AAXX  07091 57633 42965 71601 10100 21011 40250 57015 8703/ 333 00400;
0183576330999992000020712004+28830+108770FM-12+066599999V0209999C000012200019N0120001N1+00611-00021102651ADDAA199000091GA1001+999999999GF100991001001999999001001MA1999999094601MD1210101+0031REMSYN070AAXX  07121 57633 32962 00000 10061 21002 39460 40265 52010 333 00302;EQDQ01  00002PRCP99
0112576330999992000020715004+28830+108770FM-12+066599999V0209999C000019999999N0120001N1+00281+00021102701ADDGF107991071001999999041999MD1210031+9999REMSYN060AAXX  07151 57633 42962 70000 10028 20002 40270 52003 8704/;
0192576330999992000020718004+28830+108770FM-12+066599999V0209999C000019999999N0100001N1+00231+00101102561ADDAA199000091GF108991081001999999071999KA1999M+01111MA1999999094581MD1710051-0101REMSYN082AAXX  07181 57633 32960 80000 10023 20010 39458 40256 57005 8807/ 333 05102 10111;EQDQ01  00002PRCP99
0134576330999992000020721004+28830+108770FM-12+066599999V0209999C000012200019N0090001N1+00231+00051102411ADDGF104991041001999999041001MD1710141+0031MW1101REMSYN076AAXX  07211 57633 41959 40000 10023 20005 40241 57014 71000 84040 333 05302;
0191576330999992000020800004+28830+108770FM-12+066599999V0209999C000019999999N0100001N1+00221+00091102471ADDAA199000091GF108991081001999999071999IA2999+00009MA1999999094441MD1410001-0301REMSYN082AAXX  08001 57633 32960 80000 10022 20009 39444 40247 54000 8807/ 333 05301 31002;EQDQ01  00002PRCP99
0112576330999992000020803004+28830+108770FM-12+066599999V0209999C000019999999N0120001N1+00401+00071102651ADDGF108991081001999999071999MD1210151+9999REMSYN060AAXX  08031 57633 42962 80000 10040 20007 40265 52015 8807/;
0192576330999992000020806004+28830+108770FM-12+066599999V0203401N001010360019N0120001N1+00631-00351102431ADDAA199000091GF107991011011008001041999KA1999N+00151MA1999999094411MD1710181-0201REMSYN082AAXX  08061 57633 32562 73401 10063 21035 39441 40243 57018 8114/ 333 05254 20015;EQDQ01  00002PRCP99
0122576330999992000020809004+28830+108770FM-12+066599999V0200701N001019999999N0120001N1+00631-00241102281ADDGF108991081001999999071999MD1710141+0021REMSYN070AAXX  08091 57633 42962 80701 10063 21024 40228 57014 8807/ 333 05254;
0173576330999992000020812004+28830+108770FM-12+066599999V0209999C000019999999N0120001N1+00471-00261102471ADDAA199000091GF108991081001999999071999MA1999999094421MD1210151+0021REMSYN076AAXX  08121 57633 32962 80000 10047 21026 39442 40247 52015 8807/ 333 05251;EQDQ01  00002PRCP99
0112576330999992000020815004+28830+108770FM-12+066599999V0209999C000019999999N0120001N1+00421-00151102461ADDGF108991081001999999071999MD1210011+9999REMSYN060AAXX  08151 57633 42962 80000 10042 21015 40246 52001 8807/;
0192576330999992000020818004+28830+108770FM-12+066599999V0209999C000019999999N0120001N1+00401-00101102391ADDAA199000091GF108991081001999999071999KA1999M+00681MA1999999094401MD1710031-0201REMSYN082AAXX  08181 57633 32962 80000 10040 21010 39440 40239 57003 8807/ 333 05202 10068;EQDQ01  00002PRCP99
0122576330999992000020821004+28830+108770FM-12+066599999V0209999C000019999999N0100001N1+00381-00091102231ADDGF108991081001999999071999MD1710151+0021REMSYN070AAXX  08211 57633 42960 80000 10038 21009 40223 57015 8807/ 333 05202;
0191576330999992000020900004+28830+108770FM-12+066599999V0209999C000019999999N0150001N1+00371-00201102321ADDAA199000091GF108991081001999999071999IA2999+00209MA1999999094311MD1210061-0101REMSYN082AAXX  09001 57633 32965 80000 10037 21020 39431 40232 52006 8807/ 333 05102 30024;EQDQ01  00002PRCP99
0112576330999992000020903004+28830+108770FM-12+066599999V0209999C000019999999N0150001N1+00471-00561102391ADDGF108991081001999999071999MD1210071+9999REMSYN060AAXX  09031 57633 42965 80000 10047 21056 40239 52007 8807/;
0199576330999992000020906004+28830+108770FM-12+066599999V0209999C000019999999N0150001N1+00431-00321102121ADDAA106000791AY171061GF108991081001999999071999KA1999N+00311MA1999999094121MD1710261-0301MW1001REMSYN094AAXX  09061 57633 11965 80000 10043 21032 39412 40212 57026 69901 70070 8807/ 333 05352 20031;
0122576330999992000020909004+28830+108770FM-12+066599999V0209999C000019999999N0150001N1+00421-00301101941ADDGF108991081001999999071999MD1710171+0031REMSYN070AAXX  09091 57633 42965 80000 10042 21030 40194 57017 8807/ 333 05352;
0180576330999992000020912004+28830+108770FM-12+066599999V0209999C000019999999N0120001N1+00341-00411102181ADDAA106000791AY171061GF108991081001999999071999MA1999999094161MD1210211+0031MW1221REMSYN088AAXX  09121 57633 11962 80000 10034 21041 39416 40218 52021 69901 72270 8807/ 333 05351;
0112576330999992000020915004+28830+108770FM-12+066599999V0209999C000019999999N0120001N1+00331-00251102231ADDGF108991081001999999071999MD1210061+9999REMSYN060AAXX  09151 57633 42962 80000 10033 21025 40223 52006 8807/;
0173576330999992000020918004+28830+108770FM-12+066599999V0209999C000019999999N0100001N1+00291-00081102181ADDAA199000021GF108991081001999999071999KA1999M+00511MA1999999094161MD1710061-0201REMSYN082AAXX  09181 57633 32960 80000 10029 21008 39416 40218 57006 8807/ 333 05251 10051;
0139576330999992000020921004+28830+108770FM-12+066599999V0209999C000019999999N0100001N1+00271-00071102081ADDAA124000791GF108991081001999999071999MD1710101-0201REMSYN076AAXX  09211 57633 42960 80000 10027 21007 40208 57010 8807/ 333 05251 79999;
0178576330999992000021000004+28830+108770FM-12+066599999V0209999C000019999999N0120001N1+00281-00031102161ADDAA124000791GF107991071001999999071999IA2999+00239MA1999999094131MD1210071-0201REMSYN088AAXX  10001 57633 32962 70000 10028 21003 39413 40216 52007 8707/ 333 05251 30023 79999;
0112576330999992000021003004+28830+108770FM-12+066599999V0209999C000019999999N0120001N1+00431-00091102191ADDGF108991081001999999071999MD1210041+9999REMSYN060AAXX  10031 57633 42962 80000 10043 21009 40219 52004 8807/;
0192576330999992000021006004+28830+108770FM-12+066599999V0201401N001019999999N0120001N1+00711-00101101781ADDAA199000091GF108991081001999999071999KA1999N+00221MA1999999093831MD1710341-0301REMSYN082AAXX  10061 57633 32962 81401 10071 21010 39383 40178 57034 8807/ 333 05303 20022;EQDQ01  00002PRCP99
0122576330999992000021009004+28830+108770FM-12+066599999V0209999C000019999999N0150001N1+00861-00021101651ADDGF108991081001999999071999MD1710101+0021REMSYN070AAXX  10091 57633 42965 80000 10086 21002 40165 57010 8807/ 333 05204;
0173576330999992000021012004+28830+108770FM-12+066599999V0209999C000019999999N0120001N1+00621+00141101851ADDAA199000091GF107991071001999999031999MA1999999093881MD1210151+0031REMSYN076AAXX  10121 57633 32962 70000 10062 20014 39388 40185 52015 8703/ 333 05303;EQDQ01  00002PRCP99
0112576330999992000021015004+28830+108770FM-12+066599999V0209999C000012200019N0120001N1+00411+00141102111ADDGF104991041001999999041001MD1210231+9999REMSYN060AAXX  10151 57633 42962 40000 10041 20014 40211 52023 84040;
0192576330999992000021018004+28830+108770FM-12+066599999V0209999C000019999999N0100001N1+00151+00071102101ADDAA199000091GF107991071001999999041001KA1999M+00891MA1999999094111MD1410001-0101REMSYN082AAXX  10181 57633 32960 70000 10015 20007 39411 40210 54000 87040 333 05151 10089;EQDQ01  00002PRCP99
0144576330999992000021021004+28830+108770FM-12+066599999V0209999C000012200019N0090001N1+00021-00031101971ADDGA1001+999999999GF100991001001999999001001MD1710121+0011MW1101REMSYN070AAXX  10211 57633 41959 00000 10002 21003 40197 57012 71000 333 05153;
0213576330999992000021100004+28830+108770FM-12+066599999V0209999C000012200019N0090001N1-00021-00071102151ADDAA199000091GA1001+999999999GF100991001001999999001001IA2999-00209MA1999999094121MD1210131+0001MW1101REMSYN082AAXX  11001 57633 31959 00000 11002 21007 39412 40215 52013 71000 333 00053 31029;EQDQ01  00002PRCP99
0112576330999992000021103004+28830+108770FM-12+066599999V0209999C000019999999N0150001N1+00711+00191102111ADDGF105991051001999999041001MD1210031+9999REMSYN060AAXX  11031 57633 42965 50000 10071 20019 40211 52003 85040;
0192576330999992000021106004+28830+108770FM-12+066599999V0209999C000019999999N0170001N1+01211+00201101771ADDAA199000091GF108991081001999999071999KA1999N-00081MA1999999093871MD1710281+0001REMSYN082AAXX  11061 57633 32967 80000 10121 20020 39387 40177 57028 8807/ 333 00005 21008;EQDQ01  00002PRCP99
0122576330999992000021109004+28830+108770FM-12+066599999V0201401N001019999999N0150001N1+01081+00201101731ADDGF108991081001999999071999MD1710071+0011REMSYN070AAXX  11091 57633 42965 81401 10108 20020 40173 57007 8807/ 333 00102;
0158576330999992000021112004+28830+108770FM-12+066599999V0209999C000019999999N0120001N1+00891+00281999999ADDAA199000091GF108991999999999999999999MA1999999093921REMSYN075AAXX  11121 57633 32962 80000 10089 20028 39392 0190 52012 8807/ 333 00003;EQDQ01  00002PRCP99
0112576330999992000021115004+28830+108770FM-12+066599999V0209999C000019999999N0120001N1+00801+00351101981ADDGF108991081001999999071999MD1210161+9999REMSYN060AAXX  11151 57633 42962 80000 10080 20035 40198 52016 8807/;
0192576330999992000021118004+28830+108770FM-12+066599999V0209999C000019999999N0120001N1+00751+00291101821ADDAA199000091GF108991081001999999071999KA1999M+01281MA1999999094001MD1819999-0101REMSYN082AAXX  11181 57633 32962 80000 10075 20029 39400 40182 58/08 8807/ 333 05106 10128;EQDQ01  00002PRCP99
0122576330999992000021121004+28830+108770FM-12+066599999V0209999C000019999999N0120001N1+00681+00311101691ADDGF108991081001999999071999MD1710151+0011REMSYN070AAXX  11211 57633 42962 80000 10068 20031 40169 57015 8807/ 333 05107;
0191576330999992000021200004+28830+108770FM-12+066599999V0209999C000019999999N0150001N1+00631+00361101781ADDAA199000091GF108991081001999999071999IA2999+00409MA1999999093901MD1210051-0201REMSYN082AAXX  12001 57633 32965 80000 10063 20036 39390 40178 52005 8807/ 333 05207 30048;EQDQ01  00002PRCP99
0112576330999992000021203004+28830+108770FM-12+066599999V0209999C000019999999N0150001N1+00851+00381101801ADDGF108991081001999999071999MD1210041+9999REMSYN060AAXX  12031 57633 42965 80000 10085 20038 40180 52004 8807/;
0192576330999992000021206004+28830+108770FM-12+066599999V0209999C000019999999N0150001N1+01031+00271101491ADDAA199000091GF108991081001999999071999KA1999N+00561MA1999999093671MD1710271-0201REMSYN082AAXX  12061 57633 32965 80000 10103 20027 39367 40149 57027 8807/ 333 05252 20056;EQDQ01  00002PRCP99
0122576330999992000021209004+28830+108770FM-12+066599999V0203601N001019999999N0150001N1+01031+00271101341ADDGF108991081001999999071999MD1710151+0031REMSYN070AAXX  12091 57633 42965 83601 10103 20027 40134 57015 8807/ 333 05351;
0173576330999992000021212004+28830+108770FM-12+066599999V0200201N001019999999N0150001N1+00941+00291101481ADDAA199000091GF108991081001999999071999MA1999999093631MD1210111+0031REMSYN076AAXX  12121 57633 32965 80201 10094 20029 39363 40148 52011 8807/ 333 05301;EQDQ01  00002PRCP99
0112576330999992000021215004+28830+108770FM-12+066599999V0209999C000019999999N0100001N1+00871+00381101561ADDGF108991081001999999071999MD1210091+9999REMSYN060AAXX  12151 57633 42960 80000 10087 20038 40156 52009 8807/;
0199576330999992000021218004+28830+108770FM-12+066599999V0209999C000019999999N0100001N1+00821+00521101461ADDAA106000791AY161061GF108991081001999999071999KA1999M+01111MA1999999093651MD1710071-0401MW1601REMSYN094AAXX  12181 57633 11960 80000 10082 20052 39365 40146 57007 69901 76060 8807/ 333 05401 10111;
0167576330999992000021221004+28830+108770FM-12+066599999V0209999C000010042019N0100001N1+00741+00611101351ADDAA124000191AY161031AY261031GF108991051071004501071999MD1710111-0301MW1601REMSYN082AAXX  12211 57633 41460 80000 10074 20061 40135 57011 76066 8577/ 333 05301 70001;
0194576330999992000021300004+28830+108770FM-12+066599999V0209999C000010042019N0080001N1+00721+00641101581ADDAA106000191AY161061AY261061GF108991061071004501071999MA1999999093731MD1210191-0201MW1601REMSYN094AAXX  13001 57633 11458 80000 10072 20064 39373 40158 52019 69921 76066 8677/ 333 05201 70002;
0140576330999992000021303004+28830+108770FM-12+066599999V0209999C000010042019N0070001N1+00831+00731101741ADDAY161031AY261031GF108991081071004501999999MD1210161+9999MW1601REMSYN066AAXX  13031 57633 41457 80000 10083 20073 40174 52016 76066 887//;
0199576330999992000021306004+28830+108770FM-12+066599999V0209999C000010042019N0150001N1+01031+00791101561ADDAA106000591AY161061GF108991081071004501999999KA1999N+00681MA1999999093741MD1710151+0101MW1001REMSYN094AAXX  13061 57633 11465 80000 10103 20079 39374 40156 57015 69941 70060 887// 333 00100 20068;
0122576330999992000021309004+28830+108770FM-12+066599999V0201601N001010150019N0120001N1+01021+00761101561ADDGF108991081051017501999999MD1710011+0021REMSYN070AAXX  13091 57633 42762 81601 10102 20076 40156 57001 885// 333 00200;
0172576330999992000021312004+28830+108770FM-12+066599999V0209999C000010150019N0120001N1+00911+00771101871ADDAA106000791GF108991081051017501999999MA1999999094001MD1210271+0041MW1601REMSYN088AAXX  13121 57633 11762 80000 10091 20077 39400 40187 52027 69901 76000 885// 333 00400;
0132576330999992000021315004+28830+108770FM-12+066599999V0209999C000010150019N0120001N1+00871+00571102171ADDAY161031GF108991081051017501999999MD1210281+9999MW1211REMSYN066AAXX  13151 57633 41762 80000 10087 20057 40217 52028 72160 885//;
0199576330999992000021318004+28830+108770FM-12+066599999V0209999C000010042019N0120001N1+00821+00561102221ADDAA106000791AY161061GF108991081051004501999999KA1999M+01091MA1999999094351MD1210071+0701MW1601REMSYN094AAXX  13181 57633 11462 80000 10082 20056 39435 40222 52007 69901 76060 885// 333 00700 10109;
0167576330999992000021321004+28830+108770FM-12+066599999V0209999C000010042019N0080001N1+00701+00591102241ADDAA124001091AY161031AY261031GF108991081071004501999999MD1410001+0801MW1601REMSYN082AAXX  13211 57633 41458 80000 10070 20059 40224 54000 76066 887// 333 00800 70010;
0186576330999992000021400004+28830+108770FM-12+066599999V0209999C000010042019N0100001N1+00671+00471102511ADDAA106000591AY161061GF108991081051004501999999MA1999999094581MD1210231+0901MW1001REMSYN094AAXX  14001 57633 11460 80000 10067 20047 39458 40251 52023 69961 70060 885// 333 00951 70010;
0132576330999992000021403004+28830+108770FM-12+066599999V0209999C000010042019N0120001N1+00751+00371102701ADDAY161031GF108991081051004501999999MD1210181+9999MW1601REMSYN066AAXX  14031 57633 41462 80000 10075 20037 40270 52018 76060 885//;
0199576330999992000021406004+28830+108770FM-12+066599999V0201601N001010360019N0150001N1+00801+00111102491ADDAA106000791AY161061GF108991021011008001071999KA1999N+00621MA1999999094571MD1710191+0801MW1001REMSYN094AAXX  14061 57633 11565 81601 10080 20011 39457 40249 57019 69901 70060 8217/ 333 00852 20062;
0122576330999992000021409004+28830+108770FM-12+066599999V0201101N001010360019N0150001N1+00821-00051102391ADDGF108991011011008001071999MD1710111+0071REMSYN070AAXX  14091 57633 42565 81101 10082 21005 40239 57011 8117/ 333 00752;
0154576330999992000021412004+28830+108770FM-12+066599999V0209999C000019999999N0150001N1+00731-00041102641ADDAA199000021GF107991071001999999071999MA1999999094681MD1210221+0071REMSYN076AAXX  14121 57633 32965 70000 10073 21004 39468 40264 52022 8707/ 333 00752;
0186576330999992000021418004+28830+108770FM-12+066599999V0209999C000019999999N0120001N1+00601+99999999999ADDAA199000091GF108991081001999999071999KA1999M+00831MA1999999094751MD1710051+0401REMSYN076AAXX  14181 57633 32962 80000 10060 2/022 39475 57005 8807/ 333 00452 10083;EQDQ01  00002PRCP99
0139576330999992000021421004+28830+108770FM-12+066599999V0209999C000019999999N0100001N1+00541+00281102561ADDAA124000191GF108991081001999999071999MD1710151+0301REMSYN076AAXX  14211 57633 42960 80000 10054 20028 40256 57015 8807/ 333 00352 70001;
0178576330999992000021500004+28830+108770FM-12+066599999V0209999C000019999999N0120001N1+00531+00241102641ADDAA124000791GF108991081001999999071999IA2999+00439MA1999999094661MD1210061+0101REMSYN088AAXX  15001 57633 32962 80000 10053 20024 39466 40264 52006 8807/ 333 00151 30043 79999;
0112576330999992000021503004+28830+108770FM-12+066599999V0209999C000019999999N0120001N1+00671+00271102791ADDGF108991081001999999071999MD1210151+9999REMSYN060AAXX  15031 57633 42962 80000 10067 20027 40279 52015 8807/;
0192576330999992000021506004+28830+108770FM-12+066599999V0202201N002019999999N0200001N1+01011-00271102421ADDAA199000091GF107991071001999999031999KA1999N+00471MA1999999094501MD1710311-0101REMSYN082AAXX  15061 57633 32970 72202 10101 21027 39450 40242 57031 8703/ 333 05102 20047;EQDQ01  00002PRCP99
0122576330999992000021509004+28830+108770FM-12+066599999V0201101N002010150019N0180001N1+00911-00281102261ADDGF108991081051017501999999MD1710171+0011REMSYN070AAXX  15091 57633 42768 81102 10091 21028 40226 57017 885// 333 05101;
0173576330999992000021512004+28830+108770FM-12+066599999V0209999C000019999999N0150001N1+00811-00221102361ADDAA199000091GF108991081001999999071999MA1999999094411MD1210081+0031REMSYN076AAXX  15121 57633 32965 80000 10081 21022 39441 40236 52008 8807/ 333 05301;EQDQ01  00002PRCP99
0112576330999992000021515004+28830+108770FM-12+066599999V0209999C000019999999N0150001N1+00811-00411102471ADDGF108991081001999999071999MD1210121+9999REMSYN060AAXX  15151 57633 42965 80000 10081 21041 40247 52012 8807/;
0218576330999992000021518004+28830+108770FM-12+066599999V0201401N003019999999N0150001N1+00701-00431102331ADDAA106999999AY171061GF108991081001999999021999KA1999M+01071MA1999999094431MD1710101-0301MW1601REMSYN094AAXX  15181 57633 11965 81403 10070 21043 39443 40233 57010 69001 76070 8802/ 333 05301 10107;EQDQ01  89992PRCP06
0167576330999992000021521004+28830+108770FM-12+066599999V0209999C000019999999N0150001N1+00411+00081102281ADDAA124000791AY161031AY261031GF108991081001999999071999MD1710101-0301MW1211REMSYN082AAXX  15211 57633 41965 80000 10041 20008 40228 57010 72166 8807/ 333 05351 79999;
0204576330999992000021600004+28830+108770FM-12+066599999V0209999C000019999999N0150001N1+00391+00121102361ADDAA106000791AY161061GF108991081001999999071999IA2999+00329MA1999999094391MD1210061-0301MW1001REMSYN100AAXX  16001 57633 11965 80000 10039 20012 39439 40236 52006 69901 70060 8807/ 333 05351 30032 79999;
0112576330999992000021603004+28830+108770FM-12+066599999V0209999C000019999999N0150001N1+00571-00011102421ADDGF108991081001999999071999MD1210081+9999REMSYN060AAXX  16031 57633 42965 80000 10057 21001 40242 52008 8807/;
0173576330999992000021606004+28830+108770FM-12+066599999V0201601N001010360019N0150001N1+00951-00181102121ADDAA199000021GF107991011011008001041999KA1999N+00341MA1999999094231MD1710241-0301REMSYN082AAXX  16061 57633 32565 71601 10095 21018 39423 40212 57024 8114/ 333 05351 20034;
0122576330999992000021609004+28830+108770FM-12+066599999V0201601N002012200019N0180001N1+01051+00071101891ADDGF101991011011008001001001MD1710241+0031REMSYN070AAXX  16091 57633 42568 11602 10105 20007 40189 57024 81100 333 05301;
0173576330999992000021612004+28830+108770FM-12+066599999V0209999C000019999999N0150001N1+00661+00191102161ADDAA199000091GF107991071001999999041001MA1999999094191MD1210201+0021REMSYN076AAXX  16121 57633 32965 70000 10066 20019 39419 40216 52020 87040 333 05252;EQDQ01  00002PRCP99
0122576330999992000021615004+28830+108770FM-12+066599999V0209999C000012200019N0150001N1+00411+00161102371ADDGA1001+999999999GF100991001001999999001001MD1210181+9999REMSYN054AAXX  16151 57633 42965 00000 10041 20016 40237 52018;
0202576330999992000021618004+28830+108770FM-12+066599999V0209999C000012200019N0150001N1+00221+00121102191ADDAA199000091GA1001+999999999GF100991001001999999001001KA1999M+01151MA1999999094231MD1710141-0201REMSYN076AAXX  16181 57633 32965 00000 10022 20012 39423 40219 57014 333 05255 10115;EQDQ01  00002PRCP99
0122576330999992000021621004+28830+108770FM-12+066599999V0209999C000010150019N0120001N1+00161+00081102121ADDGF108991081051017501999999MD1710061+0021REMSYN070AAXX  16211 57633 42762 80000 10016 20008 40212 57006 885// 333 05253;
0191576330999992000021700004+28830+108770FM-12+066599999V0203601N001010150019N0120001N1+00271+00151102081ADDAA199000091GF107991071051017501999999IA2999-00109MA1999999094101MD1710071-0301REMSYN082AAXX  17001 57633 32762 73601 10027 20015 39410 40208 57007 875// 333 05351 31013;EQDQ01  00002PRCP99
0112576330999992000021703004+28830+108770FM-12+066599999V0203601N003010150019N0150001N1+00521+00131102191ADDGF108991081051017501999999MD1210101+9999REMSYN060AAXX  17031 57633 42765 83603 10052 20013 40219 52010 885//;
0192576330999992000021706004+28830+108770FM-12+066599999V0209999C000010150019N0150001N1+00521+00101101881ADDAA199000091GF108991081051017501999999KA1999N+00071MA1999999093891MD1710311-0301REMSYN082AAXX  17061 57633 32765 80000 10052 20010 39389 40188 57031 885// 333 05354 20007;EQDQ01  00002PRCP99
0142576330999992000021709004+28830+108770FM-12+066599999V0209999C000010042019N0120001N1+00421+00231101651ADDAY161031GF108991081071004501999999MD1710241+0031MW1601REMSYN076AAXX  17091 57633 41462 80000 10042 20023 40165 57024 76060 887// 333 05356;
