0221600100999992000010106004+28300-016500FM-12+236899999V0201001N018012200019N0750001N1+00001-00141999999ADDAA124004191GA1001+999999999GF100991001001999999001001GG1029000009019029GG2059007009009999MA1999999076741MD1410001+9999ME1431029REMSYN082AAXX  01064 60010 12989 01035 10000 21014 37674 47102 54000 60044 444 21002 55007;
0216600100999992000010112004+28300-016500FM-12+236899999V0201001N011812200019N0750001N1+00501-00821999999ADDAA106000091GA1001+999999999GF100991001001999999001001GG1029018009069069MA1999999076971MD1210121+9999ME1431409REMSYN076AAXX  01124 60010 32989 01023 10050 21082 37697 47140 52012 444 26186 16197;EQDQ01  00002PRCP06
0257600100999992000010118004+28300-016500FM-12+236899999V0200701N007212200019N0600001N1+00321-00671999999ADDAA106000091GA1001+999999999GF100991001001999999001001GG1029018009069049GG2069006009029999KA1120M+00651MA1999999076881MD1410001+9999ME1431269REMSYN086AAXX  01184 60010 32986 00714 10032 21067 37688 47126 54000 333 10065 444 26184 16206;EQDQ01  00002PRCP06
0211600100999992000010206004+28300-016500FM-12+236899999V0201001N007212200019N0750001N1+00201-01031999999ADDAA106000091GA1001+999999999GF100991001001999999001001KA1120N+00201MA1999999077061MD1010351+9999ME1431419REMSYN076AAXX  02064 60010 32989 01014 10020 21103 37706 47141 50035 333 20020 55084;EQDQ01  00002PRCP06
0215600100999992000010218004+28300-016500FM-12+236899999V0201301N008712200019N0750001N1+00531-02151999999ADDAA106000091GA1001+999999999GF100991001001999999001001KA1120M+00881MA1999999077031MD1410001+9999ME1431479REMSYN080AAXX  02184 60010 32989 01317 10053 21215 37703 47147 54000 333 10088 444 26182;EQDQ01  00002PRCP06
0211600100999992000010306004+28300-016500FM-12+236899999V0201101N006212200019N0750001N1+00361-00781999999ADDAA106000091GA1001+999999999GF100991001001999999001001KA1120N+00251MA1999999077011MD1410001+9999ME1431419REMSYN076AAXX  03064 60010 32989 01112 10036 21078 37701 47141 54000 333 20025 55095;EQDQ01  00002PRCP06
0210600100999992000010312004+28300-016500FM-12+236899999V0201101N003112200019N0750001N1+00631-01451999999ADDAA106000091GA1001+999999999GF100991001001999999001001GG1069063009019999MA1999999077171MD1110081+9999ME1431659REMSYN070AAXX  03124 60010 32989 01106 10063 21145 37717 47165 51008 444 16163;EQDQ01  00002PRCP06
0215600100999992000010318004+28300-016500FM-12+236899999V0200801N007212200019N0750001N1+00391-00901999999ADDAA106000091GA1001+999999999GF100991001001999999001001KA1120M+00761MA1999999076991MD1610041+9999ME1431399REMSYN080AAXX  03184 60010 32989 00814 10039 21090 37699 47139 56004 333 10076 444 16143;EQDQ01  00002PRCP06
0211600100999992000010406004+28300-016500FM-12+236899999V0201501N005712200019N0750001N1+00241-00571999999ADDAA106000091GA1001+999999999GF100991001001999999001001KA1120N+00151MA1999999076941MD1710031+9999ME1431309REMSYN076AAXX  04064 60010 32989 01511 10024 21057 37694 47130 57003 333 20015 55090;EQDQ01  00002PRCP06
0210600100999992000010412004+28300-016500FM-12+236899999V0201401N003612200019N0750001N1+00801-02051999999ADDAA106000091GA1001+999999999GF100991001001999999001001GG1069084009019999MA1999999077071MD1210051+9999ME1431599REMSYN070AAXX  04124 60010 32989 01407 10080 21205 37707 47159 52005 444 26184;EQDQ01  00002PRCP06
0215600100999992000010418004+28300-016500FM-12+236899999V0209999C000012200019N0750001N1+00621-01171999999ADDAA106000091GA1001+999999999GF100991001001999999001001KA1120M+00981MA1999999076951MD1610011+9999ME1431419REMSYN080AAXX  04184 60010 32989 00000 10062 21117 37695 47141 56001 333 10098 444 46184;EQDQ01  00002PRCP06
0211600100999992000010506004+28300-016500FM-12+236899999V0202601N002612200019N0750001N1+00341-01031999999ADDAA106000091GA1001+999999999GF100991001001999999001001KA1120N+00201MA1999999076911MD1610051+9999ME1431299REMSYN076AAXX  05064 60010 32989 02605 10034 21103 37691 47129 56005 333 20020 55090;EQDQ01  00002PRCP06
0210600100999992000010512004+28300-016500FM-12+236899999V0202701N008212200019N0750001N1+00421-00741999999ADDAA106000091GA1001+999999999GF100991001001999999001001GG1069084009019999MA1999999076951MD1210041+9999ME1431369REMSYN070AAXX  05124 60010 32989 02716 10042 21074 37695 47136 52004 444 36184;EQDQ01  00002PRCP06
0215600100999992000010518004+28300-016500FM-12+236899999V0202701N007712200019N0750001N1+00281-00441999999ADDAA106000091GA1001+999999999GF100991001001999999001001KA1120M+00481MA1999999076841MD1410001+9999ME1431209REMSYN080AAXX  05184 60010 32989 02715 10028 21044 37684 47120 54000 333 10048 444 66194;EQDQ01  00002PRCP06
0239600100999992000010606004+28300-016500FM-12+236899999V0202601N010310001519N0000001N1-00161-00161999999ADDAA106000091AY141061AY241061GA1091+999999999GF109991091999999999999999KA1120N-00161MA1999999076611MD1610121+9999ME1430859MW1491REMSYN082AAXX  06064 60010 31/00 92620 11016 21016 37661 47085 56012 74944 333 21016 55088;EQDQ01  00002PRCP06
0182600100999992000010612004+28300-016500FM-12+236899999V0202801N007210120019N0750001N1+00101+00001999999ADDAA106000091GF106991051001012501071041MA1999999076561MD1810021+9999ME1430869REMSYN076AAXX  06124 60010 32689 62814 10010 20000 37656 47086 58002 85074 444 48204;EQDQ01  00002PRCP06
0191600100999992000010712004+28300-016500FM-12+236899999V02099999999990001519N0000001N1-00201-00201999999ADDAA106000021AY141061AY241061GA1091+999999999GF109991091999999999999999MA1999999075991MD1310031+9999ME1430199MW1711REMSYN066AAXX  07124 60010 31/00 9//// 11020 21020 37599 47019 53003 77144;
0220600100999992000010718004+28300-016500FM-12+236899999V02099999999990001519N0000001N1-00241-00241999999ADDAA112008991AY171061AY241061GA1091+999999999GF109991091999999999999999KA1999M-00161MA1999999076071MD1310041+9999ME1430269MW1491REMSYN082AAXX  07184 60010 11/00 9//// 11024 21024 37607 47026 53004 60092 74974 333 11016;
0220600100999992000010806004+28300-016500FM-12+236899999V02099999999990001519N0000001N1-00561-00561999999ADDAA124014091AY171061AY241061GA1091+999999999GF109991091999999999999999KA1999N-00681MA1999999076231MD1410001+9999ME1430429MW1491REMSYN082AAXX  08064 60010 11/00 9//// 11056 21056 37623 47042 54000 60144 74974 333 21068;
0213600100999992000010812004+28300-016500FM-12+236899999V02099999999990001519N0000001N1-00301-00301999999ADDAA106038191AY171061AY241061GA1091+000159999GF109991091999999999999999MA1999999076641MD1310241+9999ME1430849MW1491REMSYN088AAXX  08124 60010 11/00 9//// 11030 21030 37664 47084 53024 60381 74974 333 89/00 96004;
0220600100999992000010818004+28300-016500FM-12+236899999V02099999999990001519N0000001N1-00261-00261999999ADDAA112039991AY171061AY241061GA1091+999999999GF109991091999999999999999KA1999M-00161MA1999999076651MD1310011+9999ME1430869MW1701REMSYN082AAXX  08184 60010 11/00 9//// 11026 21026 37665 47086 53001 60402 77074 333 11016;
0220600100999992000010918004+28300-016500FM-12+236899999V02099999999990001519N0000001N1-00021-00021999999ADDAA112000191AY141061AY241061GA1091+999999999GF109991091999999999999999KA1999M+00051MA1999999076931MD1410001+9999ME1431229MW1431REMSYN082AAXX  09184 60010 11/00 9//// 11002 21002 37693 47122 54000 69922 74344 333 10005;
0226600100999992000011006004+28300-016500FM-12+236899999V02099999999990001519N0000001N1-00301-00301999999ADDAA124000191AY141061AY241061GA1091+999999999GF109991091999999999999999KA1120N-00301MA1999999076911MD1510021+9999ME1431919MW1491REMSYN088AAXX  10064 60010 11/00 9//// 11030 21030 37691 47191 55002 69924 74944 333 21030 55000;
0210600100999992000011012004+28300-016500FM-12+236899999V02099999999990001519N0000001N1+00001-00021999999ADDAA106000091AY101061AY241061GA1091+999999999GF109991091999999999999999MA1999999077051MD1010051+9999ME1431349MW1471REMSYN066AAXX  10124 60010 32/00 9//// 10000 21002 37705 47134 50005 74704;EQDQ01  00002PRCP06
0220600100999992000011018004+28300-016500FM-12+236899999V02099999999990003019N0005001N1-00051-00051999999ADDAA112001091AY141061AY241061GA1091+999999999GF109991091999999999999999KA1999M+00041MA1999999076901MD1610021+9999ME1431789MW1491REMSYN082AAXX  10184 60010 11905 9//// 11005 21005 37690 47178 56002 69992 74944 333 10004;
0154600100999992000011106004+28300-016500FM-12+236899999V0203201N009812200019N0750001N1+99999+99999999999ADDGA1001+999999999GF100991001001999999001001KA1120N-00201REMSYN087AAXX  11064 60010 11989 03219 1102 21033 37689 47113 58002 69994 74140 333 21020 55052;
0228600100999992000011112004+28300-016500FM-12+236899999V0200301N010312200019N0750001N1+00301-00641999999ADDAA106000091AY141061AY201061GF101991001001999999001011GG1069082009019999MA1999999076991MD1110041+9999ME1431379MW1031REMSYN082AAXX  11124 60010 31989 10320 10030 21064 37699 47137 51004 70340 80001 444 36182;EQDQ01  00002PRCP06
0223600100999992000011118004+28300-016500FM-12+236899999V0203601N005712200019N0750001N1+00281-00071999999ADDAA106000091GF101991001001999999001011GG1069085009019999KA1120M+00511MA1999999076871MD1610011+9999ME1431249REMSYN086AAXX  11184 60010 32989 13611 10028 21007 37687 47124 56001 80001 333 10051 444 66185;EQDQ01  00002PRCP06
0239600100999992000011206004+28300-016500FM-12+236899999V0200901N005710001519N0001001N1-00061-00061999999ADDAA106000091AY141061AY241061GA1091+999999999GF109991091999999999999999KA1120N-00301MA1999999076871MD1410001+9999ME1431149MW1491REMSYN082AAXX  12064 60010 31/01 90911 11006 21006 37687 47114 54000 74944 333 21030 55088;EQDQ01  00002PRCP06
0210600100999992000011212004+28300-016500FM-12+236899999V0203101N001510003019N0002001N1+00021-00071999999ADDAA106000091AY141061AY241061GA1091+999999999GF109991091999999999999999MA1999999077021MD1110071+9999ME1431329MW1491REMSYN066AAXX  12124 60010 31/02 93103 10002 21007 37702 47132 51007 74944;EQDQ01  00002PRCP06
0233600100999992000011218004+28300-016500FM-12+236899999V0203001N008210003019N0002001N1-00041-00041999999ADDAA106000091AY141061AY241061GA1091+999999999GF109991091999999999999999KA1999M+00051MA1999999076861MD1610011+9999ME1431149MW1451REMSYN076AAXX  12184 60010 31/02 93016 11004 21004 37686 47114 56001 74544 333 10005;EQDQ01  00002PRCP06
0239600100999992000011306004+28300-016500FM-12+236899999V0200801N004110001519N0000001N1-00101-00101999999ADDAA106000091AY141061AY241061GA1091+999999999GF109991091999999999999999KA1120N-00201MA1999999076691MD1610031+9999ME1431099MW1491REMSYN082AAXX  13064 60010 31/00 90808 11010 21010 37669 47109 56003 74944 333 21020 55000;EQDQ01  00002PRCP06
0210600100999992000011312004+28300-016500FM-12+236899999V0203101N002110001519N0000001N1-00021-00021999999ADDAA106000091AY141061AY241061GA1091+999999999GF109991091999999999999999MA1999999076871MD1210161+9999ME1431159MW1491REMSYN066AAXX  13124 60010 31/00 93104 11002 21002 37687 47115 52016 74944;EQDQ01  00002PRCP06
0233600100999992000011318004+28300-016500FM-12+236899999V0203101N004610001519N0000001N1-00201-00201999999ADDAA106000091AY141061AY241061GA1091+999999999GF109991091999999999999999KA1999M+00021MA1999999076721MD1610081+9999ME1430959MW1491REMSYN076AAXX  13184 60010 31/00 93109 11020 21020 37672 47095 56008 74944 333 10002;EQDQ01  00002PRCP06
0243600100999992000011406004+28300-016500FM-12+236899999V0203001N003610001519N0000001N1-00161-00161999999ADDAA199000091AY141061AY241061GA1091+999999999GF109991091999999999999999KA1120N-00301MA1999999076701MD1610051+9999ME1430949MW1491REMSYN086    AAXX  14064 60010 31/00 93007 11016 21016 37670 47094 56005 74944 333 21030 55000;EQDQ01  00002PRCP99
0214600100999992000011412004+28300-016500FM-12+236899999V0203001N007210001519N0000001N1-00101-00101999999ADDAA199000091AY141061AY241061GA1091+999999999GF109991091999999999999999MA1999999076681MD1610021+9999ME1430939MW1491REMSYN070    AAXX  14124 60010 31/00 93014 11010 21010 37668 47093 56002 74944;EQDQ01  00002PRCP99
0237600100999992000011418004+28300-016500FM-12+236899999V0202701N005110001519N0000001N1-00081-00081999999ADDAA199000091AY141061AY241061GA1091+999999999GF109991091999999999999999KA1999M+00021MA1999999076461MD1610101+9999ME1430719MW1491REMSYN080    AAXX  14184 60010 31/00 92710 11008 21008 37646 47071 56010 74944 333 10002;EQDQ01  00002PRCP99
0215600100999992000011506004+28300-016500FM-12+236899999V0209999C000012200019N0750001N1-00301-00301999999ADDAA199000091GA1001+999999999GF100991001001999999001001KA1120N-00301MA1999999076301MD1610081+9999ME1430499REMSYN080    AAXX  15064 60010 32989 00000 11030 21030 37630 47049 56008 333 21030 55020;EQDQ01  00002PRCP99
0214600100999992000011512004+28300-016500FM-12+236899999V02099999999990001519N0000001N1-00161-00161999999ADDAA199000091AY141061AY241061GA1091+999999999GF109991091999999999999999MA1999999076281MD1210041+9999ME1430509MW1491REMSYN070    AAXX  15124 60010 31/00 9//// 11016 21016 37628 47050 52004 74944;EQDQ01  00002PRCP99
0237600100999992000011518004+28300-016500FM-12+236899999V02099999999990006019N0010001N1-00161-00161999999ADDAA199000091AY141061AY241061GA1091+999999999GF109991091999999999999999KA1999M-00021MA1999999076031MD1610061+9999ME1430249MW1401REMSYN080    AAXX  15184 60010 31/10 9//// 11016 21016 37603 47024 56006 74044 333 11002;EQDQ01  00002PRCP99
0202600100999992000011606004+28300-016500FM-12+236899999V02099999999992200019N0750001N1-00561-00671999999ADDAA124000791GA1001+999999999GF100991001001999999001001KA1120N-00561MA1999999075951MD1710091+9999ME1430069REMSYN086    AAXX  16064 60010 12989 0//// 11056 21067 37595 47006 57009 69904 333 21056 55055;
0237600100999992000011618004+28300-016500FM-12+236899999V02099999999990001519N0000001N1+00001+00001999999ADDAA199000091AY141061AY241061GA1091+999999999GF109991091999999999999999KA1999M+00001MA1999999076031MD1310031+9999ME1430289MW1451REMSYN080    AAXX  16184 60010 31/00 9//// 10000 20000 37603 47028 53003 74544 333 10000;EQDQ01  00002PRCP99
0198600100999992000011712004+28300-016500FM-12+236899999V02099999999999999999N0750001N1-00101-00191999999ADDAA199000091GF106991999999999999999999GG1089004009029999MA1999999076561MD1310251+9999ME1430819REMSYN074    AAXX  17124 60010 32989 6//// 11010 21019 37656 47081 53025 444 48204;EQDQ01  00002PRCP99
0237600100999992000011718004+28300-016500FM-12+236899999V0202801N003112200019N0010001N1+00101-00051999999ADDAA199000091AY141061AY201061GA1001+999999999GF100991001001999999001001KA1999M+00181MA1999999076551MD1410001+9999ME1430859MW1401REMSYN080    AAXX  17184 60010 31910 02806 10010 21005 37655 47085 54000 74040 333 10018;EQDQ01  00002PRCP99
0215600100999992000011806004+28300-016500FM-12+236899999V0202701N008212200019N0750001N1-00301-00421999999ADDAA199000091GA1001+999999999GF100991001001999999001001KA1120N-00301MA1999999076611MD1410001+9999ME1430809REMSYN080    AAXX  18064 60010 32989 02716 11030 21042 37661 47080 54000 333 21030 55058;EQDQ01  00002PRCP99
0204600100999992000011812004+28300-016500FM-12+236899999V0209999C000012200019N0006001N1+00021-00051999999ADDAA199000091AY141061AY201061GF102991001001999999001021MA1999999076871MD1110231+9999ME1431179MW1411REMSYN076    AAXX  18124 60010 32906 20000 10002 21005 37687 47117 51023 74140 80002;EQDQ01  00002PRCP99
0199600100999992000011818004+28300-016500FM-12+236899999V0202701N009812200019N0750001N1+00121-00141999999ADDAA199000091GF103991001001999999001021KA1999M+00251MA1999999076701MD1610031+9999ME1431019REMSYN080    AAXX  18184 60010 32989 32719 10012 21014 37670 47101 56003 80002 333 10025;EQDQ01  00002PRCP99
0199600100999992000011906004+28300-016500FM-12+236899999V0202701N009812200019N0750001N1+00061-00021999999ADDAA199000091GF103991999999999999999999KA1120N-00021MA1999999076601MD1710121+9999ME1430599REMSYN080    AAXX  19064 60010 32989 32719 10006 21002 37660 47059 57012 333 21002 55065;EQDQ01  00002PRCP99
0186600100999992000011912004+28300-016500FM-12+236899999V0202701N003612200019N0750001N1+00521-00901999999ADDAA199000091GF102991011001999999041021MA1999999076761MD1110071+9999ME1431189REMSYN080    AAXX  19124 60010 32989 22707 10052 21090 37676 47118 51007 81042 444 26176;EQDQ01  00002PRCP99
0195600100999992000011918004+28300-016500FM-12+236899999V0202701N008210360019N0750001N1+00361-01071999999ADDAA199000091GF105991011071004501081051KA1999M+00601MA1999999076561MD1610021+9999ME1430929REMSYN076AAXX  19184 60010 32489 52716 10036 21107 37656 47092 56002 81785 333 10060;EQDQ01  00002PRCP99
0219600100999992000012006004+28300-016500FM-12+236899999V0201101N012312200019N0750001N1+00021-00021999999ADDAA199000091GF102991001001999999001021GJ105169KA1120N-00011MA1999999076521MD1710081+9999ME1430799REMSYN092AAXX  20064 60010 31989 21124 10002 21002 37652 47079 57008 80002 333 21001 55086 444 46207;EQDQ01  00002PRCP99
0210600100999992000012012004+28300-016500FM-12+236899999V0201701N002110003019N0002001N1+00021+00021999999ADDAA199000091AY141061AY241061GA1091+999999999GF109991091999999999999999MA1999999076681MD1110081+9999ME1430989MW1451REMSYN066AAXX  20124 60010 31902 91704 10002 20002 37668 47098 51008 74544;EQDQ01  00002PRCP99
0197600100999992000012018004+28300-016500FM-12+236899999V0209999C000010001519N0000001N1+00301+00301999999ADDAA112001091AY151061AY241061GA1091+999999999GF109991091999999999999999MA1999999076641MD1310031+9999ME1431009MW1511REMSYN072AAXX  20184 60010 11900 90000 10030 20030 37664 47100 53003 60012 75154;
0198600100999992000012106004+28300-016500FM-12+236899999V0209999C000012200019N0750001N1-00041-00141999999ADDAA124001091GA1001+999999999GF100991001001999999001001KA1120N-00101MA1999999076661MD1810041+9999ME1430939REMSYN082AAXX  21064 60010 12989 00000 11004 21014 37666 47093 58004 60014 333 21010 55010;
0200600100999992000012112004+28300-016500FM-12+236899999V0209999C000019999999N0005001N1+00321+00041999999ADDAA199000091AY101061AY201061GF107991071001999999061001MA1999999076781MD1210081+9999ME1431159MW1401REMSYN072AAXX  21124 60010 32905 70000 10032 20004 37678 47115 52008 74000 87060;EQDQ01  00002PRCP99
0223600100999992000012118004+28300-016500FM-12+236899999V0202101N002612200019N0750001N1+00301+00021999999ADDAA199000091GF102991021001999999061001GG1069008009029999KA1120M+00421MA1999999076691MD1410001+9999ME1431059REMSYN086AAXX  21184 60010 32989 22105 10030 20002 37669 47105 54000 82060 333 10042 444 36208;EQDQ01  00002PRCP99
0211600100999992000012206004+28300-016500FM-12+236899999V0202001N008712200019N0750001N1+00041+00001999999ADDAA199000091GA1001+999999999GF100991001001999999001001KA1120N+00001MA1999999076701MD1410001+9999ME1430999REMSYN076AAXX  22064 60010 32989 02017 10004 20000 37670 47099 54000 333 20000 55052;EQDQ01  00002PRCP99
0182600100999992000012212004+28300-016500FM-12+236899999V0201701N002112200019N0750001N1+00361-00271999999ADDAA199000091GA1001+999999999GF100991001001999999001001MA1999999076831MD1210071+9999ME1431229REMSYN060AAXX  22124 60010 32989 01704 10036 21027 37683 47122 52007;EQDQ01  00002PRCP99
0205600100999992000012218004+28300-016500FM-12+236899999V0201901N002612200019N0750001N1+00301-00361999999ADDAA199000091GA1001+999999999GF100991001001999999001001KA1999M+00501MA1999999076691MD1610051+9999ME1431059REMSYN070AAXX  22184 60010 32989 01905 10030 21036 37669 47105 56005 333 10050;EQDQ01  00002PRCP99
0211600100999992000012306004+28300-016500FM-12+236899999V0201801N010312200019N0750001N1-00081-00081999999ADDAA199000091GA1001+999999999GF100991001001999999001001KA1120N-00101MA1999999076571MD1610061+9999ME1430839REMSYN076AAXX  23064 60010 32989 01820 11008 21008 37657 47083 56006 333 21010 55070;EQDQ01  00002PRCP99
0182600100999992000012312004+28300-016500FM-12+236899999V0201601N008219999999N0750001N1+00281+00191999999ADDAA199000091GF105991021001999999061051MA1999999076621MD1210051+9999ME1430979REMSYN076AAXX  23124 60010 32989 51616 10028 20019 37662 47097 52005 82065 444 26188;EQDQ01  00002PRCP99
0223600100999992000012318004+28300-016500FM-12+236899999V0209999C000019999999N0750001N1+00181-00331999999ADDAA199000091GF105991021001999999041051GG1069067009019999KA1120M+00401MA1999999076491MD1610061+9999ME1430819REMSYN086AAXX  23184 60010 32989 50000 10018 21033 37649 47081 56006 82045 333 10040 444 26167;EQDQ01  00002PRCP99
0198600100999992000012412004+28300-016500FM-12+236899999V0201001N050422200019N0750001N1+00401+00091999999ADDAA199000091GF102991011011001501001011MA1999999076421MD1210071+9999ME1430799REMSYN076AAXX  24124 60010 32289 21098 10040 20009 37642 47079 52007 81101 444 16206;EQDQ01+005043WOSPD Q02  00002PRCP99
0233600100999992000012418004+28300-016500FM-12+236899999V0201901N002610006019N0010001N1+00211-00121999999ADDAA199000091AY141061AY201061GA1091+999999999GF109991091999999999999999KA1999M+00451MA1999999076261MD1410001+9999ME1430579MW1401REMSYN076AAXX  24184 60010 31/10 91905 10021 21012 37626 47057 54000 74040 333 10045;EQDQ01  00002PRCP99
0211600100999992000012506004+28300-016500FM-12+236899999V0202501N009312200019N0750001N1-00201-00741999999ADDAA199000091GA1001+999999999GF100991001001999999001001KA1120N-00321MA1999999076161MD1810141+9999ME1430379REMSYN076AAXX  25064 60010 32989 02518 11020 21074 37616 47037 58014 333 21032 55070;EQDQ01  00002PRCP99
0210600100999992000012512004+28300-016500FM-12+236899999V0202701N003112200019N0750001N1+00001-00091999999ADDAA199000091GA1001+999999999GF100991001001999999001001GG1089024009029999MA1999999076121MD1610061+9999ME1430389REMSYN070AAXX  25124 60010 32989 02706 10000 21009 37612 47038 56006 444 68224;EQDQ01  00002PRCP99
0215600100999992000012518004+28300-016500FM-12+236899999V0202701N007212200019N0750001N1+00101-00041999999ADDAA199000091GA1001+999999999GF100991001001999999001001KA1120M+00201MA1999999076061MD1610031+9999ME1430279REMSYN080AAXX  25184 60010 32989 02714 10010 21004 37606 47027 56003 333 10020 444 58224;EQDQ01  00002PRCP99
0211600100999992000012606004+28300-016500FM-12+236899999V0202901N004112200019N0750001N1-00201-00681999999ADDAA199000091GA1001+999999999GF100991001001999999001001KA1120N-00361MA1999999076151MD1610031+9999ME1430369REMSYN076AAXX  26064 60010 32989 02908 11020 21068 37615 47036 56003 333 21036 55097;EQDQ01  00002PRCP99
0233600100999992000012618004+28300-016500FM-12+236899999V0201801N004110001519N0000001N1+00081+00081999999ADDAA199000091AY111061AY201061GA1091+999999999GF109991091999999999999999KA1999M+00301MA1999999076241MD1410001+9999ME1430529MW1451REMSYN076AAXX  26184 60010 31/00 91808 10008 20008 37624 47052 54000 74510 333 10030;EQDQ01  00002PRCP99
0211600100999992000012706004+28300-016500FM-12+236899999V0201201N002612200019N0750001N1+00001-00701999999ADDAA199000091GA1001+999999999GF100991001001999999001001KA1120N-00181MA1999999076261MD1610011+9999ME1430489REMSYN076AAXX  27064 60010 32989 01205 10000 21070 37626 47048 56001 333 21018 55077;EQDQ01  00002PRCP99
0182600100999992000012712004+28300-016500FM-12+236899999V0201701N003112200019N0750001N1+00621-00501999999ADDAA199000091GF102991001001999999001051MA1999999076971MD1110371+9999ME1431069REMSYN076AAXX  27124 60010 32989 21706 10062 21050 37697 47106 51037 80005 444 16172;EQDQ01  00002PRCP99
0229600100999992000012718004+28300-016500FM-12+236899999V0201701N009810900019N0750001N1+00241-00441999999ADDAA199000091GF105991031001022501071051GG1049021009069079KA1120M+00721MA1999999076501MD1510021+9999ME1430849REMSYN092AAXX  27184 60010 32889 51719 10024 21044 37650 47084 55002 83075 333 10072 444 46217 26205;EQDQ01  00002PRCP99
0211600100999992000012806004+28300-016500FM-12+236899999V0202201N008712200019N0750001N1+00401-00861999999ADDAA199000091GA1001+999999999GF100991001001999999001001KA1120N+00301MA1999999076541MD1410001+9999ME1430929REMSYN076AAXX  28064 60010 32989 02217 10040 21086 37654 47092 54000 333 20030 55063;EQDQ01  00002PRCP99
0224600100999992000012812004+28300-016500FM-12+236899999V0202301N004612200019N0750001N1+00901-00601999999ADDAA199000091GF102991001001999999001051GG1019020009069079GG2069086009019999MA1999999076811MD1210201+9999ME1431349REMSYN082AAXX  28124 60010 32989 22309 10090 21060 37681 47134 52020 80005 444 16207 16186;EQDQ01  00002PRCP99
0229600100999992000012818004+28300-016500FM-12+236899999V0202201N009812200019N0750001N1+00801-01571999999ADDAA199000091GF103991011001999999041081GG1029017009069069KA1120M+01151MA1999999076851MD1310031+9999ME1431369REMSYN092AAXX  28184 60010 32989 32219 10080 21157 37685 47136 53003 81048 333 10115 444 26176 16185;EQDQ01  00002PRCP99
0201600100999992000012906004+28300-016500FM-12+236899999V0201301N003119999999N0750001N1+00521-00901999999ADDAA199000091GF108991001001999999001071KA1120N+00301MA1999999077221MD1410001+9999ME1431679REMSYN082AAXX  29064 60010 32989 81306 10052 21090 37722 47167 54000 80007 333 20030 55100;EQDQ01  00002PRCP99
0182600100999992000012912004+28300-016500FM-12+236899999V0201501N004119999999N0750001N1+00801-00671999999ADDAA199000091GF108991001001999999001071MA1999999077361MD1110101+9999ME1431909REMSYN076AAXX  29124 60010 32989 81508 10080 21067 37736 47190 51010 80007 444 26146;EQDQ01  00002PRCP99
0223600100999992000012918004+28300-016500FM-12+236899999V0201601N003610210019N0750001N1+00311-01171999999ADDAA199000091GF108991061001022501071071GG1069046009019999KA1120M+00901MA1999999077241MD1310011+9999ME1431759REMSYN086AAXX  29184 60010 32889 81607 10031 21117 37724 47175 53001 86077 333 10090 444 26146;EQDQ01  00002PRCP99
0224600100999992000013006004+28300-016500FM-12+236899999V0201601N001519999999N0750001N1+00861+00231999999ADDAA199000091GF108991061001999999071071GG1029006009009029GG2059000009009999MA1999999077321MD1410001+9999ME1431889REMSYN082AAXX  30064 60010 32989 81603 10086 20023 37732 47188 54000 86077 444 20062 55000;EQDQ01  00002PRCP99
0159600100999992000013012004+28300-016500FM-12+236899999V0201701N005710900019N0750001N1+01021+00511999999ADDAA106000191GF106991041051008001001021MA1999999077371MD1210061+9999ME1431989REMSYN072AAXX  30124 60010 12589 61711 10102 20051 37737 47198 52006 69921 84502;
0182600100999992000013018004+28300-016500FM-12+236899999V0201701N009810060019N0750001N1+00641+00581999999ADDAA112000191GF107991061081000251001021KA1999M+01121MA1999999077271MD1510011+9999ME1431769REMSYN082AAXX  30184 60010 12089 71719 10064 20058 37727 47176 55001 69922 86802 333 10112;
0210600100999992000013112004+28300-016500FM-12+236899999V0201601N011310003019N0002001N1+00701+00551999999ADDAA199000091AY141061AY241061GA1091+999999999GF109991091999999999999999MA1999999077601MD1210161+9999ME1432109MW1411REMSYN066AAXX  31124 60010 31/02 91622 10070 20055 37760 47210 52016 74144;EQDQ01  00002PRCP99
0195600100999992000013118004+28300-016500FM-12+236899999V0201601N009312200019N0200001N1+00901+00151999999ADDAA199000091GF103991011001999999041051KA1999M+01001MA1999999077511MD1210021+9999ME1432099REMSYN076AAXX  31184 60010 32970 31618 10090 20015 37751 47209 52002 81045 333 10100;EQDQ01  00002PRCP99
0239600100999992000020106004+28300-016500FM-12+236899999V0201801N004112200019N0200001N1+00661+00231999999ADDAA199000091AY141061AY241061GA1001+999999999GF100991001001999999001001KA1120N+00601MA1999999077591MD1610021+9999ME1432109MW1061REMSYN082AAXX  01064 60010 31970 01808 10066 20023 37759 47210 56002 70644 333 20060 55052;EQDQ01  00002PRCP99
0210600100999992000020112004+28300-016500FM-12+236899999V0201501N004612200019N0200001N1+01261+00041999999ADDAA199000091AY141061AY241061GA1001+999999999GF100991001001999999001001MA1999999077751MD1210091+9999ME1432469MW1061REMSYN066AAXX  01124 60010 32970 01509 10126 20004 37775 47246 52009 70644;EQDQ01  00002PRCP99
0233600100999992000020118004+28300-016500FM-12+236899999V0201401N006212200019N0200001N1+01021-00021999999ADDAA199000091AY141061AY241061GA1001+999999999GF100991001001999999001001KA1999M+01301MA1999999077641MD1610011+9999ME1432279MW1061REMSYN076AAXX  01184 60010 32970 01412 10102 21002 37764 47227 56001 70644 333 10130;EQDQ01  00002PRCP99
0239600100999992000020206004+28300-016500FM-12+236899999V0201401N010312200019N0200001N1+00721-00821999999ADDAA199000091AY141061AY241061GA1001+999999999GF100991001001999999001001KA1120N+00601MA1999999077561MD1610051+9999ME1432099MW1061REMSYN082AAXX  02064 60010 32970 01420 10072 21082 37756 47209 56005 70644 333 20060 55090;EQDQ01  00002PRCP99
0210600100999992000020212004+28300-016500FM-12+236899999V0201201N010312200019N0200001N1+01161+00501999999ADDAA199000091AY141061AY241061GA1001+999999999GF100991001001999999001001MA1999999077581MD1310041+9999ME1432199MW1061REMSYN066AAXX  02124 60010 31970 01220 10116 20050 37758 47219 53004 70644;EQDQ01  00002PRCP99
0233600100999992000020218004+28300-016500FM-12+236899999V0201301N011312200019N0200001N1+00801+00101999999ADDAA199000091AY141061AY241061GA1001+999999999GF100991001001999999001001KA1999M+01161MA1999999077441MD1610091+9999ME1431989MW1061REMSYN076AAXX  02184 60010 31970 01322 10080 20010 37744 47198 56009 70644 333 10116;EQDQ01  00002PRCP99
0239600100999992000020306004+28300-016500FM-12+236899999V0201601N015412200019N0200001N1+00701+00001999999ADDAA199000091AY141061AY241061GA1001+999999999GF100991001001999999001001KA1120N+00661MA1999999077301MD1610041+9999ME1431939MW1061REMSYN082AAXX  03064 60010 31970 01630 10070 20000 37730 47193 56004 70644 333 20066 55092;EQDQ01  00002PRCP99
0210600100999992000020312004+28300-016500FM-12+236899999V0201601N008212200019N0200001N1+00781-00401999999ADDAA199000091AY141061AY241061GA1001+999999999GF100991001001999999001001MA1999999077301MD1410001+9999ME1431939MW1061REMSYN066AAXX  03124 60010 31970 01616 10078 21040 37730 47193 54000 70644;EQDQ01  00002PRCP99
0233600100999992000020318004+28300-016500FM-12+236899999V0209999C000012200019N0200001N1+00681-00421999999ADDAA199000091AY141061AY241061GA1001+999999999GF100991001001999999001001KA1999M+01081MA1999999077251MD1610031+9999ME1431869MW1061REMSYN076AAXX  03184 60010 31970 00000 10068 21042 37725 47186 56003 70644 333 10108;EQDQ01  00002PRCP99
0239600100999992000020406004+28300-016500FM-12+236899999V0209999C000012200019N0200001N1+00461-01621999999ADDAA199000091AY141061AY241061GA1001+999999999GF100991001001999999001001KA1120N+00461MA1999999077201MD1410001+9999ME1431649MW1061REMSYN082AAXX  04064 60010 31970 00000 10046 21162 37720 47164 54000 70644 333 20046 55090;EQDQ01  00002PRCP99
0172600100999992000020412004+28300-016500FM-12+236899999V0209999C000012200019N0500001N1+01201-00821999999ADDAA199000091GF101991001001999999001081MA1999999077631MD1210431+9999ME1432319REMSYN066AAXX  04124 60010 32984 10000 10120 21082 37763 47231 52043 80008;EQDQ01  00002PRCP99
0205600100999992000020418004+28300-016500FM-12+236899999V0203001N001512200019N0500001N1+01001-00071999999ADDAA199000091GA1001+999999999GF100991001001999999001001KA1999M+01351MA1999999077501MD1410001+9999ME1432119REMSYN070AAXX  04184 60010 32984 03003 10100 21007 37750 47211 54001 333 10135;EQDQ01  00002PRCP99
0211600100999992000020506004+28300-016500FM-12+236899999V0201601N006212200019N0500001N1+00501-01571999999ADDAA199000091GA1001+999999999GF100991001001999999001001KA1120N+00501MA1999999077471MD1810121+9999ME1431939REMSYN076AAXX  05064 60010 32984 01612 10050 21157 37747 47193 58012 333 20050 55101;EQDQ01  00002PRCP99
0210600100999992000020512004+28300-016500FM-12+236899999V0201601N009312200019N0650001N1+00951-00901999999ADDAA199000091GA1001+999999999GF100991001001999999001001GG1069003009019999MA1999999077661MD1110101+9999ME1432269REMSYN070AAXX  05124 60010 32987 01618 10095 21090 37766 47226 51010 444 16103;EQDQ01  00002PRCP99
0223600100999992000020518004+28300-016500FM-12+236899999V0201601N003112200019N0600001N1+00701-00361999999ADDAA199000091GF102991001001999999001051GG1069003009019999KA1120M+01021MA1999999077671MD1510011+9999ME1432109REMSYN086AAXX  05184 60010 32986 21606 10070 21036 37767 47210 55001 80005 333 10102 444 26103;EQDQ01  00002PRCP99
0211600100999992000020606004+28300-016500FM-12+236899999V0201201N005712200019N0600001N1+00201-00571999999ADDAA199000091GA1001+999999999GF100991001001999999001001KA1120N+00201MA1999999077621MD1610031+9999ME1432009REMSYN076AAXX  06064 60010 32986 01211 10020 21057 37762 47200 56003 333 20020 55100;EQDQ01  00002PRCP99
0195600100999992000020618004+28300-016500FM-12+236899999V0200901N007719999999N0600001N1+00421-00641999999ADDAA199000091GF105991021001999999011081KA1999M+00801MA1999999077661MD1410001+9999ME1432109REMSYN076AAXX  06184 60010 32986 50915 10042 21064 37766 47210 54001 82018 333 10080;EQDQ01  00002PRCP99
0201600100999992000020706004+28300-016500FM-12+236899999V0201101N011312200019N0650001N1+00101-00711999999ADDAA199000091GF104991041001999999041001KA1120N+00101MA1999999077641MD1410001+9999ME1431989REMSYN082AAXX  07064 60010 32987 41122 10010 21071 37764 47198 54000 84040 333 20010 55085;EQDQ01  00002PRCP99
0182600100999992000020712004+28300-016500FM-12+236899999V0201001N011312200019N0750001N1+00521-00441999999ADDAA199000091GA1001+999999999GF100991001001999999001001MA1999999077761MD1210081+9999ME1432249REMSYN060AAXX  07124 60010 32989 01022 10052 21044 37776 47224 52008;EQDQ01  00002PRCP99
0172600100999992000020718004+28300-016500FM-12+236899999V0201001N018512200019N0750001N1+00341-00501999999ADDAA199000091GF102991001001999999001051MA1999999077621MD1610011+9999ME1432049REMSYN066AAXX  07184 60010 32989 21036 10034 21050 37762 47204 56001 80005;EQDQ01  00002PRCP99
0211600100999992000020806004+28300-016500FM-12+236899999V0201201N011312200019N0750001N1+00361-01031999999ADDAA199000091GA1001+999999999GF100991001001999999001001KA1120N+00201MA1999999077591MD1610051+9999ME1432019REMSYN076AAXX  08064 60010 32989 01222 10036 21103 37759 47201 56005 333 20020 55092;EQDQ01  00002PRCP99
0210600100999992000020812004+28300-016500FM-12+236899999V0201301N010312200019N0750001N1+01021-02151999999ADDAA199000091GA1001+999999999GF100991001001999999001001GG1069062009019999MA1999999077901MD1110161+9999ME1432549REMSYN070AAXX  08124 60010 32989 01320 10102 21215 37790 47254 51016 444 26162;EQDQ01  00002PRCP99
0211600100999992000020818004+28300-016500FM-12+236899999V0201201N006212200019N0750001N1+00761-02261999999ADDAA199000091GA1001+999999999GF100991001001999999001001KA1120M+01161MA1999999077811MD1610011+9999ME1432359REMSYN076AAXX  08184 60010 32989 01212 10076 21226 37781 47235 56001 333 10116 36162;EQDQ01  00002PRCP99
0211600100999992000020906004+28300-016500FM-12+236899999V0200901N007212200019N0750001N1+00491-00901999999ADDAA199000091GA1001+999999999GF100991001001999999001001KA1120N+00391MA1999999077721MD1710071+9999ME1432199REMSYN076AAXX  09064 60010 32989 00914 10049 21090 37772 47219 57007 333 20039 55105;EQDQ01  00002PRCP99
0210600100999992000020912004+28300-016500FM-12+236899999V0201101N006712200019N0750001N1+01091-01451999999ADDAA199000091GA1001+999999999GF100991001001999999001001GG1069062009019999MA1999999077821MD1110061+9999ME1432489REMSYN070AAXX  09124 60010 32989 01113 10109 21145 37782 47248 51006 444 46162;EQDQ01  00002PRCP99
0215600100999992000020918004+28300-016500FM-12+236899999V0209999C000012200019N0750001N1+01221-00981999999ADDAA199000091GA1001+999999999GF100991001001999999001001KA1120M+01501MA1999999077721MD1410001+9999ME1432419REMSYN080AAXX  09184 60010 32989 00000 10122 21098 37772 47241 54000 333 10150 444 46162;EQDQ01  00002PRCP99
0162600100999992000021003004+28300-016500FM-12+236899999V0201001N004112200019N0050001N1+00501+00261103021ADDGA1001+999999999GF100991001001999999001001MA1999999999999MD1710081+9999REMSYN060AAXX  10034 60010 /2950 01008 10050 20026 39625 40302 57008;EQDQ01 096253APOSP 
0248600100999992000021006004+28300-016500FM-12+236899999V0209999C000012200019N0750001N1+00891+99999999999ADDAA199000091GA1001+999999999GF100991001001999999001001GG1029006009009059MA1999999077542MD1710131+9999ME1432129REMSYN076AAXX  10064 60010 32989 00000 10089 21151 37754 47212 57013 444 20065 55102;EQDQ01-001513ATOD  Q02+077543APOSP Q03  00002PRCP99
0182600100999992000021012004+28300-016500FM-12+236899999V0209999C000012200019N0750001N1+00961+00341999999ADDAA199000091GF101991001001999999001021MA1999999077661MD1210061+9999ME1432279REMSYN076AAXX  10124 60010 32989 10000 10096 20034 37766 47227 52006 80002 444 26162;EQDQ01  00002PRCP99
0201600100999992000021106004+28300-016500FM-12+236899999V0201801N003112200019N0750001N1+00721-00641999999ADDAA199000091GF101991001001999999001021KA1120N+00721MA1999999077381MD1710091+9999ME1431909REMSYN082AAXX  11064 60010 32989 11806 10072 21064 37738 47190 57009 80002 333 20072 55103;EQDQ01  00002PRCP99
0210600100999992000021112004+28300-016500FM-12+236899999V0201701N003112200019N0750001N1+01321-00301999999ADDAA199000091GA1001+999999999GF100991001001999999001001GG1069021009019999MA1999999077441MD1310051+9999ME1432149REMSYN070AAXX  11124 60010 32989 01706 10132 21030 37744 47214 53005 444 36121;EQDQ01  00002PRCP99
0215600100999992000021118004+28300-016500FM-12+236899999V0209999C000012200019N0750001N1+01011-00121999999ADDAA199000091GA1001+999999999GF100991001001999999001001KA1120M+01401MA1999999077251MD1610031+9999ME1431849REMSYN080AAXX  11184 60010 32989 00000 10101 21012 37725 47184 56003 333 10140 444 46121;EQDQ01  00002PRCP99
0211600100999992000021206004+28300-016500FM-12+236899999V0201701N006212200019N0750001N1+00351-00861999999ADDAA199000091GA1001+999999999GF100991001001999999001001KA1120N+00351MA1999999077171MD1810071+9999ME1431579REMSYN076AAXX  12064 60010 32989 01712 10035 21086 37717 47157 58007 333 20035 55102;EQDQ01  00002PRCP99
0210600100999992000021212004+28300-016500FM-12+236899999V0201601N015412200019N0750001N1+01061-00501999999ADDAA199000091GA1001+999999999GF100991001001999999001001GG1069052009019999MA1999999077231MD1310031+9999ME1431719REMSYN070AAXX  12124 60010 32989 01630 10106 21050 37723 47171 53003 444 36152;EQDQ01  00002PRCP99
0215600100999992000021218004+28300-016500FM-12+236899999V0201501N004112200019N0750001N1+01001-00331999999ADDAA199000091GA1001+999999999GF100991001001999999001001KA1120M+01141MA1999999077171MD1610021+9999ME1431619REMSYN080AAXX  12184 60010 32989 01508 10100 21033 37717 47161 56002 333 10114 444 36152;EQDQ01  00002PRCP99
0211600100999992000021306004+28300-016500FM-12+236899999V0201201N010312200019N0750001N1+00201-00401999999ADDAA199000091GA1001+999999999GF100991001001999999001001KA1120N+00201MA1999999077001MD1610041+9999ME1431409REMSYN076AAXX  13064 60010 32989 01220 10020 21040 37700 47140 56004 333 20020 55104;EQDQ01  00002PRCP99
0194600100999992000021312004+28300-016500FM-12+236899999V0201101N009312200019N0750001N1+00741+00041999999ADDAA199000091GF102991999999999999999999GG1069062009019999MA1999999077101MD1310071+9999ME1431519REMSYN070AAXX  13124 60010 32989 21118 10074 20004 37710 47151 53007 444 36162;EQDQ01  00002PRCP99
0223600100999992000021318004+28300-016500FM-12+236899999V0201001N008219999999N0750001N1+00801-00571999999ADDAA199000091GF105991001001999999001061GG1069062009019999KA1120M+01081MA1999999077091MD1410001+9999ME1431539REMSYN086AAXX  13184 60010 32989 51016 10080 21057 37709 47153 54000 80006 333 10108 444 36162;EQDQ01  00002PRCP99
0201600100999992000021406004+28300-016500FM-12+236899999V0201101N008212200019N0750001N1+00321-00401999999ADDAA199000091GF103991001001999999001061KA1120N+00301MA1999999077201MD1410001+9999ME1431609REMSYN082AAXX  14064 60010 32989 31116 10032 21040 37720 47160 54000 80006 333 20030 55097;EQDQ01  00002PRCP99
0210600100999992000021412004+28300-016500FM-12+236899999V0201101N014912200019N0750001N1+01101-00781999999ADDAA199000091GA1001+999999999GF100991001001999999001001GG1069072009019999MA1999999077451MD1210251+9999ME1432099REMSYN070AAXX  14124 60010 32989 01129 10110 21078 37745 47209 52025 444 36172;EQDQ01  00002PRCP99
0215600100999992000021418004+28300-016500FM-12+236899999V0201401N006212200019N0750001N1+00781-00901999999ADDAA199000091GA1001+999999999GF100991001001999999001001KA1120M+01201MA1999999077351MD1610021+9999ME1431889REMSYN080AAXX  14184 60010 32989 01412 10078 21090 37735 47188 56002 333 10120 444 36162;EQDQ01  00002PRCP99
0210600100999992000021512004+28300-016500FM-12+236899999V0201101N003112200019N0750001N1+01221-00781999999ADDAA199000091GA1001+999999999GF100991001001999999001001GG1069042009019999MA1999999077501MD1110091+9999ME1432189REMSYN070AAXX  15124 60010 32989 01106 10122 21078 37750 47218 51009 444 56142;EQDQ01  00002PRCP99
0215600100999992000021518004+28300-016500FM-12+236899999V0201401N003612200019N0750001N1+00901-00941999999ADDAA199000091GA1001+999999999GF100991001001999999001001KA1120M+01321MA1999999077411MD1610011+9999ME1431989REMSYN080AAXX  15184 60010 32989 01407 10090 21094 37741 47198 56001 333 10132 444 36142;EQDQ01  00002PRCP99
0211600100999992000021606004+28300-016500FM-12+236899999V0209999C000012200019N0750001N1+00501-01171999999ADDAA199000091GA1001+999999999GF100991001001999999001001KA1120N+00451MA1999999077451MD1410001+9999ME1431919REMSYN076AAXX  16064 60010 32989 00000 10050 21117 37745 47191 54000 333 20045 55098;EQDQ01  00002PRCP99
0182600100999992000021612004+28300-016500FM-12+236899999V0201501N001512200019N0750001N1+01111-00741999999ADDAA199000091GF101991001001999999001021MA1999999077591MD1110101+9999ME1432249REMSYN076AAXX  16124 60010 32989 11503 10111 21074 37759 47224 51010 80002 444 46162;EQDQ01  00002PRCP99
0223600100999992000021618004+28300-016500FM-12+236899999V0203401N002112200019N0750001N1+00901-00191999999ADDAA199000091GF101991001001999999001021GG1069062009019999KA1120M+01181MA1999999077471MD1610031+9999ME1432059REMSYN086AAXX  16184 60010 32989 13404 10090 21019 37747 47205 56003 80002 333 10118 444 36162;EQDQ01  00002PRCP99
0211600100999992000021706004+28300-016500FM-12+236899999V0201601N002112200019N0750001N1+00651-01171999999ADDAA199000091GA1001+999999999GF100991001001999999001001KA1120N+00501MA1999999077411MD1610041+9999ME1431919REMSYN076AAXX  17064 60010 32989 01604 10065 21117 37741 47191 56004 333 20050 55104;EQDQ01  00002PRCP99
0210600100999992000021712004+28300-016500FM-12+236899999V0209999C000012200019N0750001N1+01181-00571999999ADDAA199000091GA1001+999999999GF100991001001999999001001GG1069042009019999MA1999999077331MD1610101+9999ME1431989REMSYN070AAXX  17124 60010 32989 00000 10118 21057 37733 47198 56010 444 36142;EQDQ01  00002PRCP99
0215600100999992000021718004+28300-016500FM-12+236899999V0201701N001012200019N0750001N1+01041-00221999999ADDAA199000091GA1001+999999999GF100991001001999999001001KA1120M+01281MA1999999077091MD1810241+9999ME1431689REMSYN080AAXX  17184 60010 32989 01702 10104 21022 37709 47168 58024 333 10128 444 36152;EQDQ01  00002PRCP99
0211600100999992000021806004+28300-016500FM-12+236899999V0209999C000012200019N0750001N1+00701-01431999999ADDAA199000091GA1001+999999999GF100991001001999999001001KA1120N+00701MA1999999077201MD1610061+9999ME1431709REMSYN076AAXX  18064 60010 32989 00000 10070 21143 37720 47170 56006 333 20070 55105;EQDQ01  00002PRCP99
0223600100999992000021818004+28300-016500FM-12+236899999V0202701N006219999999N0750001N1+01001-00901999999ADDAA199000091GF106991001001999999001061GG1069041009019999KA1120M+01181MA1999999076911MD1610021+9999ME1431489REMSYN086AAXX  18184 60010 32989 62712 10100 21090 37691 47148 56002 80006 333 10118 444 36141;EQDQ01  00002PRCP99
0211600100999992000021906004+28300-016500FM-12+236899999V0209999C000012200019N0750001N1+00601-01571999999ADDAA199000091GA1001+999999999GF100991001001999999001001KA1120N+00601MA1999999077191MD1610021+9999ME1431669REMSYN076AAXX  19064 60010 32989 00000 10060 21157 37719 47166 56002 333 20060 55097;EQDQ01  00002PRCP99
0182600100999992000021912004+28300-016500FM-12+236899999V0201001N002612200019N0750001N1+01041-00671999999ADDAA199000091GF102991011001999999031051MA1999999077221MD1310051+9999ME1431829REMSYN076AAXX  19124 60010 32989 21005 10104 21067 37722 47182 53005 81035 444 26143;EQDQ01  00002PRCP99
0223600100999992000021918004+28300-016500FM-12+236899999V0203001N002119999999N0750001N1+00801-00671999999ADDAA199000091GF107991061001999999071041GG1069080009009999KA1120M+01121MA1999999077031MD1610041+9999ME1431559REMSYN086AAXX  19184 60010 32989 73004 10080 21067 37703 47155 56004 86074 333 10112 444 36080;EQDQ01  00002PRCP99
0182600100999992000022012004+28300-016500FM-12+236899999V0201001N003119999999N0750001N1+00701-00171999999ADDAA199000091GF107991051001999999071061MA1999999077031MD1210061+9999ME1431529REMSYN076AAXX  20124 60010 32989 71006 10070 21017 37703 47152 52006 85076 444 46167;EQDQ01  00002PRCP99
0192600100999992000022018004+28300-016500FM-12+236899999V0209999C000019999999N0750001N1+00481-00121999999ADDAA112000791GF107991051001999999071061KA1120M+00841MA1999999076941MD1410001+9999ME1431369REMSYN092AAXX  20184 60010 12989 70000 10048 21012 37694 47136 54000 69902 85076 333 10084 444 46164;
0198600100999992000022106004+28300-016500FM-12+236899999V0200801N003612200019N0750001N1+00201-00411999999ADDAA124000791GA1001+999999999GF100991001001999999001001KA1120N+00201MA1999999076901MD1610041+9999ME1431249REMSYN082AAXX  21064 60010 12989 00807 10020 21041 37690 47124 56004 69904 333 20020 55006;
0223600100999992000022118004+28300-016500FM-12+236899999V0209999C000012200019N0750001N1+00621-00471999999ADDAA199000091GF102991011001999999071051GG1069064009019999KA1120M+00901MA1999999076981MD1410001+9999ME1431459REMSYN086AAXX  21184 60010 32989 20000 10062 21047 37698 47145 54000 81075 333 10090 444 46164;EQDQ01  00002PRCP99
0211600100999992000022206004+28300-016500FM-12+236899999V0201001N010312200019N0750001N1+00221-00741999999ADDAA199000091GA1001+999999999GF100991001001999999001001KA1120N+00221MA1999999076991MD1610051+9999ME1431349REMSYN076AAXX  22064 60010 32989 01020 10022 21074 37699 47134 56005 333 20022 55102;EQDQ01  00002PRCP99
0210600100999992000022212004+28300-016500FM-12+236899999V0200901N017012200019N0750001N1+00561-00331999999ADDAA199000091GA1001+999999999GF100991001001999999001001GG1069066009019999MA1999999077111MD1210091+9999ME1431579REMSYN070AAXX  22124 60010 32989 00933 10056 21033 37711 47157 52009 444 26166;EQDQ01  00002PRCP99
0223600100999992000022218004+28300-016500FM-12+236899999V0201001N010812200019N0750001N1+00411-00601999999ADDAA199000091GF101991011011002501001001GG1069065009019999KA1120M+00651MA1999999077001MD1610071+9999ME1431419REMSYN086AAXX  22184 60010 32389 11021 10041 21060 37700 47141 56007 81100 333 10065 444 36165;EQDQ01  00002PRCP99
0226600100999992000022306004+28300-016500FM-12+236899999V0201101N018510001519N0001001N1+00031+00001999999ADDAA124000791AY171061AY241061GA1091+999999999GF109991091999999999999999KA1120N+00031MA1999999076841MD1710151+9999ME1431149MW1771REMSYN088AAXX  23064 60010 11/01 91136 10003 20000 37684 47114 57015 69904 77774 333 20003 55107;
0220600100999992000022318004+28300-016500FM-12+236899999V0201001N015410001519N0000001N1+00181+00181999999ADDAA112072991AY181061AY281061GA1091+999999999GF109991091999999999999999KA1999M+00321MA1999999076401MD1610041+9999ME1430729MW1841REMSYN082AAXX  23184 60010 11/00 91030 10018 20018 37640 47072 56004 60732 78488 333 10032;
0226600100999992000022406004+28300-016500FM-12+236899999V0200801N008210001519N0000001N1+00101+00101999999ADDAA124109091AY141061AY241061GA1091+999999999GF109991091999999999999999KA1120N+00101MA1999999076451MD1610021+9999ME1430749MW1451REMSYN088AAXX  24064 60010 11/00 90816 10010 20010 37645 47074 56002 61094 74544 333 20010 55000;
0210600100999992000022412004+28300-016500FM-12+236899999V0201001N018010003019N0002001N1+00261+00251999999ADDAA199000091AY141061AY241061GA1091+999999999GF109991091999999999999999MA1999999076491MD1110021+9999ME1430839MW1451REMSYN066AAXX  24124 60010 31/02 91035 10026 20025 37649 47083 51002 74544;EQDQ01  00002PRCP99
0195600100999992000022418004+28300-016500FM-12+236899999V0201301N009310120019N0200001N1+00371+00061999999ADDAA199000091GF108991061001012501071071KA1999M+00551MA1999999076361MD1610021+9999ME1430729REMSYN076AAXX  24184 60010 31670 81318 10037 20006 37636 47072 56002 86077 333 10055;EQDQ01  00002PRCP99
0198600100999992000022506004+28300-016500FM-12+236899999V0201701N038012200019N0000001N1+00081+00081999999ADDAA124002091GA1001+999999999GF100991001001999999001001KA1120N+00051MA1999999076261MD1410001+9999ME1430549REMSYN082AAXX  25064 60010 11/00 01774 10008 20008 37626 47054 54000 60024 333 20005 55045;
0197600100999992000022512004+28300-016500FM-12+236899999V0201401N004110001519N0000001N1+00301+00301999999ADDAA106005191AY161061AY241061GA1091+999999999GF109991091999999999999999MA1999999076461MD1110131+9999ME1430819MW1631REMSYN072AAXX  25124 60010 11/00 91408 10030 20030 37646 47081 51013 60051 76364;
0220600100999992000022518004+28300-016500FM-12+236899999V0201701N004112200019N0020001N1+00351+00251999999ADDAA112007191AY141061AY261061GA1001+999999999GF100991001001999999001001KA1999M+00351MA1999999076441MD1610021+9999ME1430809MW1401REMSYN082AAXX  25184 60010 11920 01708 10035 20025 37644 47080 56002 60072 74046 333 10035;
0192600100999992000022606004+28300-016500FM-12+236899999V0201601N013912200019N0750001N1+00041-00171999999ADDAA124005191GA1001+999999999GF100991001001999999001001KA1999N+00041MA1999999076501MD1610041+9999ME1430789REMSYN076AAXX  26064 60010 12989 01627 10004 21017 37650 47078 56004 60054 333 20004;
0223600100999992000022618004+28300-016500FM-12+236899999V0201401N007212200019N0150001N1+00361-00981999999ADDAA199000091AY141061AY221061GF101991001001999999001081KA1999M+00591MA1999999076701MD1310031+9999ME1431079MW1061REMSYN082AAXX  26184 60010 31965 11414 10036 21098 37670 47107 53003 70642 80008 333 10059;EQDQ01  00002PRCP99
0255600100999992000022706004+28300-016500FM-12+236899999V0201201N012312200019N0050001N1+00201-00361999999ADDAA199000091AY141061AY241061GA1001+999999999GF100991001001999999001001KA1120M+99999MA1999999076791MD1410001+9999ME1431139MW1061REMSYN082AAXX  27064 60010 31950 01224 10020 21036 37679 47113 54001 70644 333 10008 55105;EQDQ01  00002PRCP99Q02 +00082ATMX  
0210600100999992000022712004+28300-016500FM-12+236899999V0201001N009312200019N0050001N1+00481-00381999999ADDAA199000091AY141061AY241061GA1001+999999999GF100991001001999999001001MA1999999076991MD1110101+9999ME1431429MW1061REMSYN066AAXX  27124 60010 31950 01018 10048 21038 37699 47142 51010 70644;EQDQ01  00002PRCP99
0233600100999992000022718004+28300-016500FM-12+236899999V0200801N006212200019N0050001N1+00221-00271999999ADDAA199000091AY141061AY241061GA1001+999999999GF100991001001999999001001KA1999M+00561MA1999999076951MD1210041+9999ME1431309MW1061REMSYN076AAXX  27184 60010 31950 00812 10022 21027 37695 47130 52004 70644 333 10056;EQDQ01  00002PRCP99
0210600100999992000022812004+28300-016500FM-12+236899999V0200801N008212200019N0750001N1+00561-00141999999ADDAA199000091GA1001+999999999GF100991001001999999001001GG1069062009019999MA1999999077071MD1610051+9999ME1431539REMSYN070AAXX  28124 60010 32989 00816 10056 21014 37707 47153 56005 444 36162;EQDQ01  00002PRCP99
0215600100999992000022818004+28300-016500FM-12+236899999V0200801N005112200019N0750001N1+00481-00041999999ADDAA199000091GA1001+999999999GF100991001001999999001001KA1120M+00641MA1999999077041MD1610021+9999ME1431519REMSYN080AAXX  28184 60010 32989 00810 10048 21004 37704 47151 56002 333 10064 444 36162;EQDQ01  00002PRCP99
0211600100999992000022906004+28300-016500FM-12+236899999V0200801N007212200019N0750001N1+00061-00141999999ADDAA199000091GA1001+999999999GF100991001001999999001001KA1120N+00001MA1999999077061MD1610021+9999ME1431429REMSYN076AAXX  29064 60010 32989 00814 10006 21014 37706 47142 56002 333 20000 55100;EQDQ01  00002PRCP99
0210600100999992000022912004+28300-016500FM-12+236899999V0200801N007212200019N0750001N1+00581+00101999999ADDAA199000091GA1001+999999999GF100991001001999999001001GG1069062009019999MA1999999077141MD1310071+9999ME1431619REMSYN070AAXX  29124 60010 32989 00814 10058 20010 37714 47161 53007 444 26162;EQDQ01  00002PRCP99
0215600100999992000022918004+28300-016500FM-12+236899999V0200701N003112200019N0600001N1+00461-00381999999ADDAA199000091GA1001+999999999GF100991001001999999001001KA1120M+00801MA1999999077041MD1610011+9999ME1431469REMSYN080AAXX  29184 60010 32986 00706 10046 21038 37704 47146 56001 333 10080 444 16162;EQDQ01  00002PRCP99
0211600100999992000030106004+28300-016500FM-12+236899999V0200701N005112200019N0400001N1+00101-00461999999ADDAA199000091GA1001+999999999GF100991001001999999001001KA1120N+00101MA1999999077071MD1610021+9999ME1431469REMSYN076AAXX  01064 60010 32982 00710 10010 21046 37707 47146 56002 333 20010 55103;EQDQ01  00002PRCP99
0210600100999992000030112004+28300-016500FM-12+236899999V0201001N008212200019N0400001N1+00861-00251999999ADDAA199000091GA1001+999999999GF100991001001999999001001GG1069062009019999MA1999999077271MD1110181+9999ME1431829REMSYN070AAXX  01124 60010 32982 01016 10086 21025 37727 47182 51018 444 26162;EQDQ01  00002PRCP99
0223600100999992000030118004+28300-016500FM-12+236899999V0200801N006212200019N0400001N1+00581-00411999999ADDAA199000091GF101991011011001501001001GG1069062009019999KA1120M+00941MA1999999077121MD1710031+9999ME1431589REMSYN086AAXX  01184 60010 32282 10812 10058 21041 37712 47158 57003 81100 333 10094 444 26162;EQDQ01  00002PRCP99
0211600100999992000030206004+28300-016500FM-12+236899999V0201001N007712200019N0400001N1+00261-00471999999ADDAA199000091GA1001+999999999GF100991001001999999001001KA1120N+00221MA1999999077101MD1610031+9999ME1431479REMSYN076AAXX  02064 60010 32982 01015 10026 21047 37710 47147 56003 333 20022 55107;EQDQ01  00002PRCP99
0210600100999992000030212004+28300-016500FM-12+236899999V0200801N006712200019N0300001N1+00971-00381999999ADDAA199000091AY141061AY241061GA1001+999999999GF100991001001999999001001MA1999999077211MD1110041+9999ME1431779MW1061REMSYN066AAXX  02124 60010 31980 00813 10097 21038 37721 47177 51004 70644;EQDQ01  00002PRCP99
0210600100999992000030218004+28300-016500FM-12+236899999V0201101N011312200019N0070001N1+00641-00641999999ADDAA199000091AY141061AY241061GA1001+999999999GF100991001001999999001001MA1999999077141MD1310071+9999ME1431629MW1061REMSYN066AAXX  02184 60010 31957 01122 10064 21064 37714 47162 53007 70644;EQDQ01  00002PRCP99
0240600100999992000030306004+28300-016500FM-12+236899999V0201001N009812200019N0100001N1+00401-00671999999ADDAA199000091AY141061AY241061GA1001+999999999GF100991001001999999001001KA1120N+00401MD1410001+9999ME1431389MW1061REMSYN082AAXX  03064 60010 31960 01019 10040 21067 31698 47138 54000 70644 333 20040 55091;EQDQ01+016981APOSP Q02  00002PRCP99
0216600100999992000030312004+28300-016500FM-12+236899999V0201101N015912200019N0070001N1+00951-00641999999ADDAA199000091AY101061AY201061GA1001+999999999GF100991001001999999001001MA1999999077031MD1110021+9999ME1431599MW1061REMSYN072AAXX  03124 60010 31957 01131 10095 21064 37703 47159 51002 70600 82611;EQDQ01  00002PRCP99
0233600100999992000030318004+28300-016500FM-12+236899999V0201201N012912200019N0070001N1+00921-00901999999ADDAA199000091AY101061AY201061GA1001+999999999GF100991001001999999001001KA1999M+01251MA1999999076891MD1610101+9999ME1431439MW1061REMSYN076AAXX  03184 60010 31957 01225 10092 21090 37689 47143 56010 70600 333 10125;EQDQ01  00002PRCP99
0239600100999992000030406004+28300-016500FM-12+236899999V0201301N016412200019N0070001N1+00901-00411999999ADDAA199000091AY141061AY241061GA1001+999999999GF100991001001999999001001KA1120N+00601MA1999999076861MD1610051+9999ME1431409MW1061REMSYN082AAXX  04064 60010 31957 01332 10090 21041 37686 47140 56005 70644 333 20060 55045;EQDQ01  00002PRCP99
0200600100999992000030412004+28300-016500FM-12+236899999V0201601N015412200019N0060001N1+01201-00441999999ADDAA199000091AY141061AY241061GF102991021001999999031001MA1999999076981MD1210091+9999ME1431619MW1061REMSYN072AAXX  04124 60010 31956 21630 10120 21044 37698 47161 52009 70644 82030;EQDQ01  00002PRCP99
0233600100999992000030418004+28300-016500FM-12+236899999V0201501N023112200019N0060001N1+00921-00411999999ADDAA199000091AY141061AY241061GA1001+999999999GF100991001001999999001001KA1999M+01281MA1999999076701MD1610071+9999ME1431239MW1061REMSYN076AAXX  04184 60010 31956 01545 10092 21041 37670 47123 56007 70644 333 10128;EQDQ01  00002PRCP99
0239600100999992000030506004+28300-016500FM-12+236899999V0201401N023112200019N0060001N1+00741-00471999999ADDAA199000091AY141061AY241061GA1001+999999999GF100991001001999999001001KA1120N+00681MA1999999076521MD1810181+9999ME1430999MW1061REMSYN082AAXX  05064 60010 31956 01445 10074 21047 37652 47099 58018 70644 333 20068 55064;EQDQ01  00002PRCP99
0210600100999992000030512004+28300-016500FM-12+236899999V0201601N020612200019N0060001N1+01101-00331999999ADDAA199000091AY141061AY241061GA1001+999999999GF100991001001999999001001MA1999999076681MD1210041+9999ME1431259MW1061REMSYN066AAXX  05124 60010 31956 01640 10110 21033 37668 47125 52004 70644;EQDQ01  00002PRCP99
0233600100999992000030518004+28300-016500FM-12+236899999V0201601N015412200019N0060001N1+00921-01331999999ADDAA199000091AY141061AY241061GA1001+999999999GF100991001001999999001001KA1999M+01161MA1999999076551MD1410001+9999ME1431079MW1061REMSYN076AAXX  05184 60010 31956 01630 10092 21133 37655 47107 54000 70644 333 10116;EQDQ01  00002PRCP99
0182600100999992000030612004+28300-016500FM-12+236899999V0201701N009312200019N0750001N1+01241-01271999999ADDAA199000091GA1001+999999999GF100991001001999999001001MA1999999076641MD1210081+9999ME1431259REMSYN060AAXX  06124 60010 32989 01718 10124 21127 37664 47125 52008;EQDQ01  00002PRCP99
0215600100999992000030618004+28300-016500FM-12+236899999V0202001N010312200019N0750001N1+01041-02511999999ADDAA199000091GA1001+999999999GF100991001001999999001001KA1120M+01401MA1999999076571MD1610031+9999ME1431129REMSYN080AAXX  06184 60010 32989 02020 10104 21251 37657 47112 56003 333 10140 444 26156;EQDQ01  00002PRCP99
0211600100999992000030706004+28300-016500FM-12+236899999V0201801N015412200019N0750001N1+00661-00571999999ADDAA199000091GA1001+999999999GF100991001001999999001001KA1120N+00601MA1999999076621MD1610021+9999ME1431079REMSYN076AAXX  07064 60010 32989 01830 10066 21057 37662 47107 56002 333 20060 55100;EQDQ01  00002PRCP99
0182600100999992000030712004+28300-016500FM-12+236899999V0201801N011812200019N0750001N1+01301-01571999999ADDAA199000091GF101991001001999999001021MA1999999076801MD1110121+9999ME1431449REMSYN076AAXX  07124 60010 32989 11823 10130 21157 37680 47144 51012 80002 444 26132;EQDQ01  00002PRCP99
0223600100999992000030718004+28300-016500FM-12+236899999V0202101N014912200019N0750001N1+01151-01961999999ADDAA199000091GF102991001001999999001021GG1069032009019999KA1120M+01371MA1999999076801MD1410001+9999ME1431409REMSYN086AAXX  07184 60010 32989 22129 10115 21196 37680 47140 54000 80002 333 10137 444 26132;EQDQ01  00002PRCP99
0211600100999992000030806004+28300-016500FM-12+236899999V0201801N013412200019N0750001N1+00901-02511999999ADDAA199000091GA1001+999999999GF100991001001999999001001KA1120N+00701MA1999999076891MD1410001+9999ME1431439REMSYN076AAXX  08064 60010 32989 01826 10090 21251 37689 47143 54000 333 20070 55102;EQDQ01  00002PRCP99
0172600100999992000030812004+28300-016500FM-12+236899999V0201701N008712200019N0750001N1+01501-00901999999ADDAA199000091GF101991001001999999001081MA1999999077131MD1210141+9999ME1431869REMSYN066AAXX  08124 60010 32989 11717 10150 21090 37713 47186 52014 80008;EQDQ01  00002PRCP99
0195600100999992000030818004+28300-016500FM-12+236899999V0202201N008212200019N0500001N1+01451-00981999999ADDAA199000091GF101991001001999999001081KA1999M+01581MA1999999077141MD1210021+9999ME1431859REMSYN076AAXX  08184 60010 32984 12216 10145 21098 37714 47185 52002 80008 333 10158;EQDQ01  00002PRCP99
0211600100999992000030906004+28300-016500FM-12+236899999V0201801N012912200019N0500001N1+01031-00671999999ADDAA199000091GA1001+999999999GF100991001001999999001001KA1120N+01031MA1999999077291MD1610021+9999ME1431899REMSYN076AAXX  09064 60010 32984 01825 10103 21067 37729 47189 56002 333 20103 55093;EQDQ01  00002PRCP99
0210600100999992000030912004+28300-016500FM-12+236899999V0201701N005112200019N0150001N1+01701-00441999999ADDAA199000091AY141061AY201061GA1001+999999999GF100991001001999999001001MA1999999077551MD1210131+9999ME1432379MW1061REMSYN066AAXX  09124 60010 31965 01710 10170 21044 37755 47237 52013 70640;EQDQ01  00002PRCP99
0239600100999992000031006004+28300-016500FM-12+236899999V0202301N007712200019N0250001N1+01151-00741999999ADDAA199000091AY141061AY241061GA1001+999999999GF100991001001999999001001KA1120N+01101MA1999999077421MD1810191+9999ME1432079MW1061REMSYN082AAXX  10064 60010 31975 02315 10115 21074 37742 47207 58019 70644 333 20110 55070;EQDQ01  00002PRCP99
0233600100999992000031018004+28300-016500FM-12+236899999V0202101N012312200019N0050001N1+01421-00641999999ADDAA199000091AY141061AY241061GA1001+999999999GF100991001001999999001001KA1999M+01701MA1999999077401MD1610111+9999ME1432139MW1061REMSYN076AAXX  10184 60010 31950 02124 10142 21064 37740 47213 56011 70644 333 10170;EQDQ01  00002PRCP99
0239600100999992000031106004+28300-016500FM-12+236899999V0202101N010312200019N0050001N1+01101-00661999999ADDAA199000091AY141061AY241061GA1001+999999999GF100991001001999999001001KA1120N+01101MA1999999077521MD1610021+9999ME1432129MW1061REMSYN082AAXX  11064 60010 31950 02120 10110 21066 37752 47212 56002 70644 333 20110 55060;EQDQ01  00002PRCP99
0210600100999992000031112004+28300-016500FM-12+236899999V0201701N010312200019N0050001N1+01501-00471999999ADDAA199000091AY141061AY241061GA1001+999999999GF100991001001999999001001MA1999999077521MD1410001+9999ME1432289MW1061REMSYN066AAXX  11124 60010 31950 01720 10150 21047 37752 47228 54000 70644;EQDQ01  00002PRCP99
0233600100999992000031118004+28300-016500FM-12+236899999V0202001N006212200019N0060001N1+01421-00401999999ADDAA199000091AY141061AY241061GA1001+999999999GF100991001001999999001001KA1999M+01601MA1999999077441MD1610031+9999ME1432159MW1061REMSYN076AAXX  11184 60010 31956 02012 10142 21040 37744 47215 56003 70644 333 10160;EQDQ01  00002PRCP99
0239600100999992000031206004+28300-016500FM-12+236899999V0201801N010312200019N0060001N1+01001-00721999999ADDAA199000091AY141061AY241061GA1001+999999999GF100991001001999999001001KA1120N+01001MA1999999077361MD1610041+9999ME1432069MW1061REMSYN082AAXX  12064 60010 31956 01820 10100 21072 37736 47206 56004 70644 333 20100 55068;EQDQ01  00002PRCP99
0200600100999992000031212004+28300-016500FM-12+236899999V0201501N005712200019N0090001N1+01411-00361999999ADDAA199000091AY141061AY201061GF101991001001999999001011MA1999999077491MD1110031+9999ME1432159MW1061REMSYN072AAXX  12124 60010 31959 11511 10141 21036 37749 47215 51003 70640 80001;EQDQ01  00002PRCP99
0223600100999992000031218004+28300-016500FM-12+236899999V0201301N004610900019N0090001N1+01221-00411999999ADDAA199000091AY141061AY221061GF107991011001022501061061KA1999M+01561MA1999999077331MD1610021+9999ME1431999MW1061REMSYN082AAXX  12184 60010 31859 71309 10122 21041 37733 47199 56002 70642 81066 333 10156;EQDQ01  00002PRCP99
0211600100999992000031306004+28300-016500FM-12+236899999V0201201N015912200019N0100001N1+00801-00671999999ADDAA199000091GA1001+999999999GF100991001001999999001001KA1120N+00771MA1999999077251MD1810071+9999ME1431789REMSYN076AAXX  13064 60010 32960 01231 10080 21067 37725 47178 58007 333 20077 55093;EQDQ01  00002PRCP99
0182600100999992000031312004+28300-016500FM-12+236899999V0201301N014412200019N0100001N1+01391-00641999999ADDAA199000091GA1001+999999999GF100991001001999999001001MA1999999077351MD1010031+9999ME1432069REMSYN060AAXX  13124 60010 32960 01328 10139 21064 37735 47206 50003;EQDQ01  00002PRCP99
0205600100999992000031318004+28300-016500FM-12+236899999V0201401N008712200019N0100001N1+01101-00671999999ADDAA199000091GA1001+999999999GF100991001001999999001001KA1999M+01431MA1999999077301MD1410001+9999ME1431929REMSYN070AAXX  13184 60010 32960 01417 10110 21067 37730 47192 54000 333 10143;EQDQ01  00002PRCP99
0211600100999992000031406004+28300-016500FM-12+236899999V0201301N010312200019N0100001N1+00801-00671999999ADDAA199000091GA1001+999999999GF100991001001999999001001KA1120N+00751MA1999999077301MD1510001+9999ME1431849REMSYN076AAXX  14064 60010 32960 01320 10080 21067 37730 47184 55000 333 20075 55102;EQDQ01  00002PRCP99
0182600100999992000031412004+28300-016500FM-12+236899999V0201101N009312200019N0150001N1+01321-00381999999ADDAA199000091GA1001+999999999GF100991001001999999001001MA1999999077421MD1110021+9999ME1432129REMSYN060AAXX  14124 60010 32965 01118 10132 21038 37742 47212 51002;EQDQ01  00002PRCP99
0195600100999992000031418004+28300-016500FM-12+236899999V0201201N002612200019N0150001N1+01101-00501999999ADDAA199000091GF102991021041012501001001KA1999M+01461MA1999999077291MD1610021+9999ME1431919REMSYN076AAXX  14184 60010 32665 21205 10110 21050 37729 47191 56002 82400 333 10146;EQDQ01  00002PRCP99
0211600100999992000031506004+28300-016500FM-12+236899999V0202601N002612200019N0200001N1+00691-00861999999ADDAA199000091GA1001+999999999GF100991001001999999001001KA1120N+00691MA1999999077221MD1610061+9999ME1431729REMSYN076AAXX  15064 60010 32970 02605 10069 21086 37722 47172 56006 333 20069 55095;EQDQ01  00002PRCP99
0210600100999992000031512004+28300-016500FM-12+236899999V0202901N008712200019N0200001N1+01181-00331999999ADDAA199000091GA1001+999999999GF100991001001999999001001GG1069081009009999MA1999999077131MD1810011+9999ME1431769REMSYN070AAXX  15124 60010 32970 02917 10118 21033 37713 47176 58001 444 36081;EQDQ01  00002PRCP99
0233600100999992000031518004+28300-016500FM-12+236899999V0202801N010312200019N0100001N1+00921-00471999999ADDAA199000091AY141061AY241061GA1001+999999999GF100991001001999999001001KA1999M+01251MA1999999076971MD1610101+9999ME1431529MW1061REMSYN076AAXX  15184 60010 31960 02820 10092 21047 37697 47152 56010 70644 333 10125;EQDQ01  00002PRCP99
0211600100999992000031606004+28300-016500FM-12+236899999V0201501N012312200019N0200001N1+00481-01121999999ADDAA199000091GA1001+999999999GF100991001001999999001001KA1120N+00481MA1999999076781MD1610091+9999ME1431209REMSYN076AAXX  16064 60010 32970 01524 10048 21112 37678 47120 56009 333 20048 55104;EQDQ01  00002PRCP99
0172600100999992000031612004+28300-016500FM-12+236899999V0202001N013412200019N0300001N1+01001-00821999999ADDAA199000091GF101991001001999999001051MA1999999076821MD1210041+9999ME1431389REMSYN066AAXX  16124 60010 32980 12026 10100 21082 37682 47138 52004 80005;EQDQ01  00002PRCP99
0205600100999992000031618004+28300-016500FM-12+236899999V0201801N015412200019N0550001N1+00841-00981999999ADDAA199000091GA1001+999999999GF100991001001999999001001KA1999M+01121MA1999999076731MD1610041+9999ME1431249REMSYN070AAXX  16184 60010 32985 01830 10084 21098 37673 47124 56004 333 10112;EQDQ01  00002PRCP99
0182600100999992000031712004+28300-016500FM-12+236899999V0202601N005112200019N0750001N1+00901-01031999999ADDAA199000091GA1001+999999999GF100991001001999999001001MA1999999076801MD1210061+9999ME1431339REMSYN060AAXX  17124 60010 32989 02610 10090 21103 37680 47133 52006;EQDQ01  00002PRCP99
0220600100999992000031812004+28300-016500FM-12+236899999V0201001N006212200019N0300001N1+00921-00221999999ADDAA199000091AY101061AY201061GA1001+999999999GF100991001001999999001001MA1999999076981MD1210091+9999ME1431539MW1061REMSYN076AAXX  18124 60010 31980 01012 10092 21022 37698 47153 52009 70600 444 26101;EQDQ01  00002PRCP99
0261600100999992000031818004+28300-016500FM-12+236899999V0201001N002112200019N0300001N1+00861-00541999999ADDAA199000091AY141061AY241061GA1001+999999999GF100991001001999999001001GG1069011009019999KA1120M+01011MA1999999076911MD1410001+9999ME1431449MW1061REMSYN086AAXX  18184 60010 31980 01004 10086 21054 37691 47144 54000 70644 333 10101 444 26111;EQDQ01  00002PRCP99
0211600100999992000031906004+28300-016500FM-12+236899999V0202001N007712200019N0500001N1+00501-00821999999ADDAA199000091GA1001+999999999GF100991001001999999001001KA1120N+00401MA1999999076801MD1710171+9999ME1431229REMSYN076AAXX  19064 60010 32984 02015 10050 21082 37680 47122 57017 333 20040 55109;EQDQ01  00002PRCP99
0182600100999992000031912004+28300-016500FM-12+236899999V0202701N006212200019N0500001N1+00921-00361999999ADDAA199000091GA1001+999999999GF100991001001999999001001MA1999999076851MD1410001+9999ME1431399REMSYN060AAXX  19124 60010 32984 02712 10092 21036 37685 47139 54000;EQDQ01  00002PRCP99
0205600100999992000031918004+28300-016500FM-12+236899999V0202501N014412200019N0500001N1+00801-00471999999ADDAA199000091GA1001+999999999GF100991001001999999001001KA1999M+01061MA1999999076471MD1610131+9999ME1430959REMSYN070AAXX  19184 60010 32984 02528 10080 21047 37647 47095 56013 333 10106;EQDQ01  00002PRCP99
0211600100999992000032006004+28300-016500FM-12+236899999V0201201N005112200019N0500001N1+00441-00601999999ADDAA199000091GA1001+999999999GF100991001001999999001001KA1120N+00401MA1999999076401MD1610051+9999ME1430869REMSYN076AAXX  20064 60010 32984 01210 10044 21060 37640 47086 56005 333 20040 55110;EQDQ01  00002PRCP99
0182600100999992000032012004+28300-016500FM-12+236899999V0202501N009312200019N0500001N1+00801-01071999999ADDAA199000091GA1001+999999999GF100991001001999999001001MA1999999076401MD1310071+9999ME1430879REMSYN060AAXX  20124 60010 32984 02518 10080 21107 37640 47087 53007;EQDQ01  00002PRCP99
0215600100999992000032018004+28300-016500FM-12+236899999V0202301N017512200019N0750001N1+00681+00021999999ADDAA199000091GA1001+999999999GF100991001001999999001001KA1120M+00901MA1999999076031MD1610171+9999ME1430449REMSYN080AAXX  20184 60010 32989 02334 10068 20002 37603 47044 56017 333 10090 444 46181;EQDQ01  00002PRCP99
0257600100999992000032118004+28300-016500FM-12+236899999V0201601N017012200019N0300001N1+00421-00671999999ADDAA199000091GA1001+999999999GF100991001001999999001001GG1019018009069059GG2069072009019999KA1120M+00641MA1999999076151MD1610021+9999ME1430519REMSYN086AAXX  21184 60010 32980 01633 10042 21067 37615 47051 56002 333 10064 444 16185 26172;EQDQ01  00002PRCP99
0211600100999992000032206004+28300-016500FM-12+236899999V02099999999992200019N0600001N1+00161-00361999999ADDAA199000091GA1001+999999999GF100991001001999999001001KA1120N+00081MA1999999076151MD1710041+9999ME1430459REMSYN076AAXX  22064 60010 32986 0//// 10016 21036 37615 47045 57004 333 20008 55103;EQDQ01  00002PRCP99
0198600100999992000032212004+28300-016500FM-12+236899999V02099999999992200019N0550001N1+00641-00361999999ADDAA199000091GF101991999001999999041001MA1999999076461MD1110101+9999ME1430909REMSYN076AAXX  22124 60010 32985 1//// 10064 21036 37646 47090 51010 84040 444 36193;EQDQ01+000042SCOTLCQ02  00002PRCP99
0229600100999992000032218004+28300-016500FM-12+236899999V02099999999992200019N0550001N1+00581-00361999999ADDAA199000091GF102991021061999999041001GG1029018009069029KA1120M+00901MA1999999076421MD1610031+9999ME1430849REMSYN092AAXX  22184 60010 32985 2//// 10058 21036 37642 47084 56003 82640 333 10090 444 26182 26192;EQDQ01  00002PRCP99
0210600100999992000032312004+28300-016500FM-12+236899999V02099999999992200019N0750001N1+00601-00141999999ADDAA199000091GA1001+999999999GF100991001001999999001001GG1069064009019999MA1999999076561MD1210111+9999ME1430999REMSYN070AAXX  23124 60010 32989 0//// 10060 21014 37656 47099 52011 444 56164;EQDQ01  00002PRCP99
0231600100999992000032318004+28300-016500FM-12+236899999V02099999999992200019N0750001N1+00501-00271999999ADDAA199000091GA1001+999999999GF100991001001999999001001KA1120N+99999MA1999999076521MD1410001+9999ME1430929REMSYN080AAXX  23184 60010 32989 0//// 10050 21027 37652 47092 54000 333 20070 444 66164;EQDQ01  00002PRCP99Q02 +00702ATMN  
0211600100999992000032406004+28300-016500FM-12+236899999V02099999999992200019N0750001N1+00101-01391999999ADDAA199000091GA1001+999999999GF100991001001999999001001KA1120N+00101MA1999999076521MD1610041+9999ME1430829REMSYN076AAXX  24064 60010 32989 0//// 10010 21139 37652 47082 56004 333 20010 55114;EQDQ01  00002PRCP99
0210600100999992000032412004+28300-016500FM-12+236899999V02099999999992200019N0750001N1+00801-00981999999ADDAA199000091GA1001+999999999GF100991001001999999001001GG1069084009019999MA1999999076701MD1210081+9999ME1431209REMSYN070AAXX  24124 60010 32989 0//// 10080 21098 37670 47120 52008 444 66184;EQDQ01  00002PRCP99
0215600100999992000032418004+28300-016500FM-12+236899999V02099999999992200019N0750001N1+00621-01071999999ADDAA199000091GA1001+999999999GF100991001001999999001001KA1120M+00861MA1999999076621MD1610031+9999ME1431069REMSYN080AAXX  24184 60010 32989 0//// 10062 21107 37662 47106 56003 333 10086 444 46164;EQDQ01  00002PRCP99
0182600100999992000032512004+28300-016500FM-12+236899999V02099999999992200019N0750001N1+00311-00381999999ADDAA199000091GF102991011011000251001051MA1999999076741MD1110051+9999ME1431119REMSYN076AAXX  25124 60010 32089 2//// 10031 21038 37674 47111 51005 81105 444 46224;EQDQ01  00002PRCP99
0215600100999992000032518004+28300-016500FM-12+236899999V02099999999992200019N0750001N1+00331-00541999999ADDAA199000091GA1001+999999999GF100991001001999999001001KA1120M+00541MA1999999076661MD1610021+9999ME1431039REMSYN080AAXX  25184 60010 32989 0//// 10033 21054 37666 47103 56002 333 10054 444 46224;EQDQ01  00002PRCP99
0239600100999992000032606004+28300-016500FM-12+236899999V02099999999990003019N0004001N1+00021-00021999999ADDAA199000091AY141061AY241061GA1091+999999999GF109991091999999999999999KA1120N-00351MA1999999076621MD1610031+9999ME1430909MW1451REMSYN082AAXX  26064 60010 31/04 9//// 10002 21002 37662 47090 56003 74544 333 21035 55110;EQDQ01  00002PRCP99
0182600100999992000032612004+28300-016500FM-12+236899999V02099999999992200019N0750001N1+00401-00051999999ADDAA199000091GF101991011011000251001001MA1999999076721MD1110051+9999ME1431119REMSYN076AAXX  26124 60010 32089 1//// 10040 21005 37672 47111 51005 81100 444 46224;EQDQ01  00002PRCP99
0215600100999992000032618004+28300-016500FM-12+236899999V02099999999992200019N0750001N1+00481-00781999999ADDAA199000091GA1001+999999999GF100991001001999999001001KA1120M+00821MA1999999076601MD1710051+9999ME1431009REMSYN080AAXX  26184 60010 32989 0//// 10048 21078 37660 47100 57005 333 10082 444 46224;EQDQ01  00002PRCP99
0247600100999992000032706004+28300-016500FM-12+236899999V02099999999992200019N0750001N1+00201+00061999999ADDAA199000091GA1001+999999999GF100991001001999999001001GG1069014009029999GJ106669KA1120N-00021MA1999999076511MD1710061+9999ME1430849REMSYN086AAXX  27064 60010 32989 0//// 10020 20006 37651 47084 57006 333 21002 55111 444 46214;EQDQ01  00002PRCP99
0182600100999992000032712004+28300-016500FM-12+236899999V02099999999992200019N0750001N1+00821-00221999999ADDAA199000091GF101991001001999999001081MA1999999076621MD1210091+9999ME1431129REMSYN076AAXX  27124 60010 32989 1//// 10082 21022 37662 47112 52009 80008 444 26183;EQDQ01  00002PRCP99
0239600100999992000032718004+28300-016500FM-12+236899999V02099999999992200019N0750001N1+00761-02262999999ADDAA199000091GF102991001001999999001051GG1069001009029999KA1120M+01011MA1999999076521MD1610021+9999ME1430999REMSYN086AAXX  27184 60010 32989 2//// 10076 21226 37652 47099 56002 80005 333 10101 444 26201;EQDQ01-002263ATOD  Q02  00002PRCP99
0201600100999992000032806004+28300-016500FM-12+236899999V02099999999999999999N0750001N1+00601-01331999999ADDAA199000091GF105991001001999999001051KA1120N+00421MA1999999076501MD1810141+9999ME1430939REMSYN082AAXX  28064 60010 32989 5//// 10060 21133 37650 47093 58014 80005 333 20042 55110;EQDQ01  00002PRCP99
0182600100999992000032812004+28300-016500FM-12+236899999V0201701N006219999999N0750001N1+01041-00941999999ADDAA199000091GF108991001001999999001061MA1999999076571MD1410001+9999ME1431609REMSYN076AAXX  28124 60010 32989 81712 10104 21094 37657 47160 54000 80006 444 36181;EQDQ01  00002PRCP99
0223600100999992000032818004+28300-016500FM-12+236899999V0202901N002119999999N0750001N1+00821-00441999999ADDAA199000091GF108991001001999999001061GG1069081009019999KA1120M+01121MA1999999076501MD1610071+9999ME1431519REMSYN086AAXX  28184 60010 32989 82904 10082 21044 37650 47151 56007 80006 333 10112 444 36181;EQDQ01  00002PRCP99
0201600100999992000032906004+28300-016500FM-12+236899999V0201701N005119999999N0750001N1+00501-01101999999ADDAA199000091GF105991001001999999001061KA1120N+00501MA1999999076491MD1610011+9999ME1431409REMSYN082AAXX  29064 60010 32989 51710 10050 21110 37649 47140 56001 80006 333 20050 55076;EQDQ01  00002PRCP99
0182600100999992000032912004+28300-016500FM-12+236899999V0209999C000019999999N0750001N1+01001-00411999999ADDAA199000091GF106991001001999999001061MA1999999076601MD1310161+9999ME1431149REMSYN076AAXX  29124 60010 32989 60000 10100 21041 37660 47114 53016 80006 444 36161;EQDQ01  00002PRCP99
0223600100999992000032918004+28300-016500FM-12+236899999V0209999C000019999999N0750001N1+00921-01071999999ADDAA199000091GF107991001001999999001061GG1069061009019999KA1120M+01121MA1999999076371MD1610031+9999ME1430879REMSYN086AAXX  29184 60010 32989 70000 10092 21107 37637 47087 56003 80006 333 10112 444 36161;EQDQ01  00002PRCP99
0201600100999992000033006004+28300-016500FM-12+236899999V0201501N004119999999N0750001N1+00501-00641999999ADDAA199000091GF105991001001999999001061KA1120N+00501MA1999999076351MD1610031+9999ME1430739REMSYN082AAXX  30064 60010 32989 51508 10050 21064 37635 47073 56003 80006 333 20050 55092;EQDQ01  00002PRCP99
0200600100999992000033012004+28300-016500FM-12+236899999V0209999C000010900019N0200001N1+00641+00301999999ADDAA199000091AY111061AY201061GF107991041061000251001061MA1999999076501MD1110131+9999ME1430949MW1401REMSYN072AAXX  30124 60010 31070 70000 10064 20030 37650 47094 51013 74010 84606;EQDQ01  00002PRCP99
0233600100999992000033018004+28300-016500FM-12+236899999V0209999C000010003019N0005001N1+00541+00461999999ADDAA199000091AY141061AY241061GA1091+999999999GF109991091999999999999999KA1999M+01001MA1999999076441MD1610031+9999ME1430859MW1451REMSYN076AAXX  30184 60010 31/05 90000 10054 20046 37644 47085 56003 74544 333 10100;EQDQ01  00002PRCP99
0211600100999992000033106004+28300-016500FM-12+236899999V0201801N007719999999N0750001N1+00401-00121999999ADDAA199000091GA1091+999999999GF109991091999999999999999KA1120N+00301MA1999999076401MD1610091+9999ME1430779REMSYN076AAXX  31064 60010 32/89 91815 10040 21012 37640 47077 56009 333 20030 55040;EQDQ01  00002PRCP99
0228600100999992000033112004+28300-016500FM-12+236899999V0202901N003112200019N0750001N1+00051-00441999999ADDAA199000091AY101061AY201061GF101991011061001501001001GG1069023009029999MA1999999076491MD1110041+9999ME1426499MW1401REMSYN082AAXX  31124 60010 31289 12906 10005 21044 37649 47649 51004 74000 81600 444 26223;EQDQ01  00002PRCP99
0239600100999992000040106004+28300-016500FM-12+236899999V02099999999999999999N0750001N1+00301+00021999999ADDAA199000091AY141061AY201061GA1091+999999999GF109991091999999999999999KA1120N+00291MA1999999076171MD1610091+9999ME1430509MW1281REMSYN082AAXX  01064 60010 31/89 9//14 10030 20002 37617 47050 56009 72840 333 20029 55120;EQDQ01  00002PRCP99
0182600100999992000040112004+28300-016500FM-12+236899999V02099999999990012019N0750001N1+00731+00001999999ADDAA199000091GF105991051021001501001001MA1999999076221MD1110011+9999ME1430669REMSYN076AAXX  01124 60010 32289 5//21 10073 20000 37622 47066 51001 85200 444 36228;EQDQ01  00002PRCP99
0233600100999992000040118004+28300-016500FM-12+236899999V02099999999992200019N0100001N1+00501+00001999999ADDAA199000091AY141061AY211061GF102991021081000251001001KA1120M+01031MA1999999075931MD1610141+9999ME1430309MW1281REMSYN092AAXX  01184 60010 31060 2//07 10050 20000 37593 47030 56014 72841 82800 333 10103 444 36238;EQDQ01  00002PRCP99
0219600100999992000040212004+28300-016500FM-12+236899999V02099999999990009019N0003001N1+00321+00301999999ADDAA106005191AY161061AY251061GA1091+000909999GF109991091999999999999999MA1999999077541MD1210221+9999ME1430059MW1601REMSYN094AAXX  02124 60010 11/03 9//45 10032 20030 37754 47005 52022 60051 76065 333 89/03 96050 96145;
0249600100999992000040218004+28300-016500FM-12+236899999V02099999999992200019N0100001N1+00201+00061999999ADDAA112007991AY161061AY241061GA1001+999999999GF100991001001999999001001KA1120M+00401MA1999999075902MD1110051+9999ME1430199MW1281REMSYN092AAXX  02184 60010 11960 0//12 10020 20006 37590 47019 51005 60082 72864 333 10040 444 68237;EQDQ01+075903APOSP 
0234600100999992000040306004+28300-016500FM-12+236899999V02099999999990009019N0002001N1-00101+99999999999ADDAA124007991AY141061AY241061GA1091+000909999GF109991091999999999999999GJ100909KA1120N-00281MA1999999075831MD1610021+9999ME1430959MW1491REMSYN088AAXX  03064 60010 11/02 9//12 11010 37583 47095 56002 60084 74944 333 21028 55015 89/03;
0197600100999992000040312004+28300-016500FM-12+236899999V02099999999990001519N0000001N1+00021+00021999999ADDAA106000791AY141061AY241061GA1091+999999999GF109991091999999999999999MA1999999076011MD1310091+9999ME1430439MW1051REMSYN072AAXX  03124 60010 11/00 9//// 10002 20002 37601 47043 53009 69901 70544;
0220600100999992000040318004+28300-016500FM-12+236899999V02099999999990001519N0000001N1-00041-00041999999ADDAA112000591AY151061AY241061GA1091+999999999GF109991091999999999999999KA1999M+00081MA1999999076121MD1310041+9999ME1430379MW1451REMSYN082AAXX  03184 60010 11/00 9//// 11004 21004 37612 47037 53004 69942 74554 333 10008;
0198600100999992000040406004+28300-016500FM-12+236899999V02099999999992200019N0750001N1+00141-00441999999ADDAA124000591GA1001+999999999GF100991001001999999001001KA1120N-00251MA1999999076421MD1810021+9999ME1430739REMSYN082AAXX  04064 60010 12989 0//// 10014 21044 37642 47073 58002 69944 333 21025 55000;
0210600100999992000040412004+28300-016500FM-12+236899999V02099999999992200019N0750001N1+00821-01331999999ADDAA199000091GA1001+999999999GF100991001001999999001001GG1069004009029999MA1999999076721MD1210141+9999ME1431229REMSYN070AAXX  04124 60010 31989 0//20 10082 21133 37672 47122 52014 444 66204;EQDQ01  00002PRCP99
0215600100999992000040418004+28300-016500FM-12+236899999V02099999999992200019N0750001N1+00881-01331999999ADDAA199000091GA1001+999999999GF100991001001999999001001KA1120M+00921MA1999999076681MD1610041+9999ME1431209REMSYN080AAXX  04184 60010 32989 0//14 10088 21133 37668 47120 56004 333 10092 444 66184;EQDQ01  00002PRCP99
0211600100999992000040506004+28300-016500FM-12+236899999V02099999999992200019N0750001N1+00481-01961999999ADDAA199000091GA1001+999999999GF100991001001999999001001KA1120N+00281MA1999999076641MD1610041+9999ME1431059REMSYN076AAXX  05064 60010 32989 0//05 10048 21196 37664 47105 56004 333 20028 55120;EQDQ01  00002PRCP99
0182600100999992000040512004+28300-016500FM-12+236899999V02099999999992200019N0750001N1+00921-00361999999ADDAA199000091GF104991001001999999001051MA1999999076731MD1210051+9999ME1431269REMSYN076AAXX  05124 60010 32989 4//04 10092 21036 37673 47126 52005 80005 444 66184;EQDQ01  00002PRCP99
0223600100999992000040518004+28300-016500FM-12+236899999V02099999999992200019N0750001N1+01001-01961999999ADDAA199000091GF102991001001999999001051GG1069084009019999KA1120M+01281MA1999999076531MD1610091+9999ME1431079REMSYN086AAXX  05184 60010 32989 2//14 10100 21196 37653 47107 56009 80005 333 10128 444 66184;EQDQ01  00002PRCP99
0220600100999992000040618004+28300-016500FM-12+236899999V02099999999990001519N0000001N1+00361+00361999999ADDAA112000791AY141061AY241061GA1091+999999999GF109991091999999999999999KA1999M+00981MA1999999075921MD1610151+9999ME1430259MW1511REMSYN082AAXX  06184 60010 11/00 9//24 10036 20036 37592 47025 56015 69902 75144 333 10098;
0216600100999992000040706004+28300-016500FM-12+236899999V02099999999999999999N0010001N1+00081+00001999999ADDAA124001091AY141061AY251061GF106991021001999999041061KA1120N+00081MA1999999075841MD1610081+9999ME1430119MW1401REMSYN094AAXX  07064 60010 11910 6//16 10008 20000 37584 47011 56008 60014 74045 82046 333 20008 55049;
0197600100999992000040712004+28300-016500FM-12+236899999V02099999999990001519N0000001N1+00101+00101999999ADDAA106006191AY141061AY271061GA1091+999999999GF109991091999999999999999MA1999999075811MD1310091+9999ME1430079MW1451REMSYN072AAXX  07124 60010 11/00 9//02 10010 20010 37581 47007 53009 60061 74547;
0225600100999992000040718004+28300-016500FM-12+236899999V02099999999990001519N0000001N1+00061+00061999999ADDAA112005191AY141061AY241061GA1091+999999999GF109991091999999999999999GG1009020009009999MA1999999075841MD1310031+9999ME1430099MW1451REMSYN082AAXX  07184 60010 11/00 9//12 10006 20006 37584 47009 53003 60052 74544 444 10020;
0188600100999992000040806004+28300-016500FM-12+236899999V02099999999992200019N0750001N1-00301-00681999999ADDAA124005191GF104991041041001501001001KA1120N-00301MA1999999076011MD1410001+9999ME1430159REMSYN088AAXX  08064 60010 11289 4//14 11030 21068 37601 47015 54000 60054 84400 333 21030 55056;
0210600100999992000040812004+28300-016500FM-12+236899999V02099999999992200019N0750001N1+00741-00541999999ADDAA199000091GA1001+999999999GF100991001001999999001001GG1069003009029999MA1999999076211MD1210201+9999ME1430659REMSYN070AAXX  08124 60010 32989 0//18 10074 21054 37621 47065 52020 444 26203;EQDQ01  00002PRCP99
0267600100999992000040818004+28300-016500FM-12+236899999V02099999999992200019N0750001N1+00801-00441999999ADDAA199000091AY141061AY201061GA1001+999999999GF100991001001999999001001GG1019022009069079KA1120M+01001MA1999999076211MD1610011+9999ME1430679MW1281REMSYN092AAXX  08184 60010 31989 0//22 10080 21044 37621 47067 56001 72840 333 10100 444 16227 16203;EQDQ01  00002PRCP99
0211600100999992000040906004+28300-016500FM-12+236899999V02099999999992200019N0750001N1+00441-01511999999ADDAA199000091GA1001+999999999GF100991001001999999001001KA1120N+00401MA1999999076161MD1610051+9999ME1427629REMSYN076AAXX  09064 60010 32989 0//34 10044 21151 37616 47762 56005 333 20040 55110;EQDQ01  00002PRCP99
0216600100999992000040912004+28300-016500FM-12+236899999V02099999999992200019N0750001N1+00821+00292999999ADDAA199000091GA1001+999999999GF100991001001999999001001GG1039019009069029MA1999999076441MD1110121+9999ME1430929REMSYN076AAXX  09124 60010 32989 0//12 10082 20029 37644 47092 51012 444 36192 16205;EQDQ01  00002PRCP99
0257600100999992000040918004+28300-016500FM-12+236899999V02099999999992200019N0750001N1+00741-00051999999ADDAA199000091GA1001+999999999GF100991001001999999001001GG1049018009069029GG2069005009029999KA1120M+01201MA1999999076361MD1410001+9999ME1430829REMSYN086AAXX  09184 60010 32989 0//20 10074 21005 37636 47082 54001 333 10120 444 46182 16205;EQDQ01  00002PRCP99
0211600100999992000041006004+28300-016500FM-12+236899999V02099999999992200019N0750001N1+00321-01391999999ADDAA199000091GA1001+999999999GF100991001001999999001001KA1120N+00301MA1999999076451MD1410001+9999ME1430809REMSYN076AAXX  10064 60010 32989 0//22 10032 21139 37645 47080 54000 333 20030 55120;EQDQ01  00002PRCP99
0210600100999992000041012004+28300-016500FM-12+236899999V02099999999992200019N0750001N1+01021-01271999999ADDAA199000091GA1001+999999999GF100991001001999999001001GG1069061009019999MA1999999076721MD1110141+9999ME1431289REMSYN070AAXX  10124 60010 32989 0//// 10102 21127 37672 47128 51014 444 26161;EQDQ01  00002PRCP99
0215600100999992000041018004+28300-016500FM-12+236899999V02099999999992200019N0750001N1+01081-01121999999ADDAA199000091GA1001+999999999GF100991001001999999001001KA1120M+01221MA1999999076761MD1310061+9999ME1431349REMSYN080AAXX  10184 60010 32989 0//// 10108 21112 37676 47134 53006 333 10122 444 56161;EQDQ01  00002PRCP99
0247600100999992000041106004+28300-016500FM-12+236899999V02099999999992200019N0750001N1+00821-01331999999ADDAA199000091GA1001+999999999GF100991001001999999001001GG1069061009019999GJ107389KA1120N+00781MA1999999076811MD1710031+9999ME1431329REMSYN086AAXX  11064 60010 32989 0//// 10082 21133 37681 47132 57003 333 20078 55123 444 66161;EQDQ01  00002PRCP99
0182600100999992000041112004+28300-016500FM-12+236899999V02099999999992200019N0750001N1+01221-01791999999ADDAA199000091GF101991001001999999001021MA1999999076911MD1110041+9999ME1431549REMSYN076AAXX  11124 60010 32989 1//// 10122 21179 37691 47154 51004 80002 444 26161;EQDQ01  00002PRCP99
0247600100999992000041206004+28300-016500FM-12+236899999V02099999999992200019N0750001N1+00651-01961999999ADDAA199000091GA1001+999999999GF100991001001999999001001GG1069061009019999GJ107209KA1120N+00551MA1999999076561MD1610081+9999ME1431019REMSYN086AAXX  12064 60010 32989 0//// 10065 21196 37656 47101 56008 333 20055 55120 444 66161;EQDQ01  00002PRCP99
0210600100999992000041212004+28300-016500FM-12+236899999V02099999999992200019N0750001N1+01181-00471999999ADDAA199000091GA1001+999999999GF100991001001999999001001GG1069064009019999MA1999999076561MD1210021+9999ME1431149REMSYN070AAXX  12124 60010 32989 0//// 10118 21047 37656 47114 52002 444 56164;EQDQ01  00002PRCP99
0215600100999992000041218004+28300-016500FM-12+236899999V02099999999992200019N0750001N1+00581-00711999999ADDAA199000091GA1001+999999999GF100991001001999999001001KA1120M+01221MA1999999076341MD1610111+9999ME1430759REMSYN080AAXX  12184 60010 32989 0//// 10058 21071 37634 47075 56011 333 10122 444 56164;EQDQ01  00002PRCP99
0199600100999992000041312004+28300-016500FM-12+236899999V02099999999999999999N0750001N1+00501+00151999999ADDAA199000091GF107991071001999999041001GG1069027009029999MA1999999076441MD1210101+9999ME1430849REMSYN075AAXX  13124 60010 32989 7//// 10050 2001537644 47084 52010 87040 444 46227;EQDQ01  00002PRCP99
0233600100999992000041318004+28300-016500FM-12+236899999V02099999999990001519N0000001N1+00421+00341999999ADDAA199000091AY101061AY201061GA1091+999999999GF109991091999999999999999KA1999M+00801MA1999999076331MD1610081+9999ME1430709MW1411REMSYN076AAXX  13184 60010 31/00 9//// 10042 20034 37633 47070 56008 74100 333 10080;EQDQ01  00002PRCP99
0211600100999992000041406004+28300-016500FM-12+236899999V02099999999992200019N0750001N1+00081-00071999999ADDAA199000091GA1001+999999999GF100991001001999999001001KA1120N+00001MA1999999076341MD1410001+9999ME1430639REMSYN076AAXX  14064 60010 32989 0//// 10008 21007 37634 47063 54000 333 20000 55097;EQDQ01  00002PRCP99
0210600100999992000041418004+28300-016500FM-12+236899999V02099999999990001519N0000001N1+00501+00501999999ADDAA199000091AY101061AY201061GA1091+999999999GF109991091999999999999999MA1999999076481MD1310041+9999ME1430889MW1451REMSYN066AAXX  14184 60010 31/00 9//// 10050 20050 37648 47088 53004 74500;EQDQ01  00002PRCP99
0195600100999992000041506004+28300-016500FM-12+236899999V02099999999992200019N0750001N1+00041-00341999999ADDAA199000091GF104991999999999999999999KA1120N+00041MA1999999076251MD1610021+9999ME1430569REMSYN076AAXX  15064 60010 32989 4//// 10004 21034 37625 47056 56002 333 20004 55036;EQDQ01  00002PRCP99
0200600100999992000041512004+28300-016500FM-12+236899999V02099999999990900019N0040001N1+00721+00391999999ADDAA199000091AY101061AY211061GF105991021041001501041061MA1999999076181MD1310011+9999ME1430629MW1401REMSYN072AAXX  15124 60010 31240 5//// 10072 20039 37618 47062 53001 74001 82446;EQDQ01  00002PRCP99
0201600100999992000041606004+28300-016500FM-12+236899999V02099999999992200019N0020001N1+00301-00021999999ADDAA199000091GF104991031041001501001061KA1120N+00301MA1999999075991MD1610041+9999ME1430319REMSYN082AAXX  16064 60010 31220 4//// 10030 21002 37599 47031 56004 83406 333 20030 55112;EQDQ01  00002PRCP99
0200600100999992000041612004+28300-016500FM-12+236899999V02099999999992200019N0020001N1+00371-00571999999ADDAA199000091AY141061AY241061GF102991021021000751001001MA1999999076621MD1210341+9999ME1431009MW1401REMSYN072AAXX  16124 60010 31120 2//// 10037 21057 37662 47100 52034 74044 82200;EQDQ01  00002PRCP99
0215600100999992000041618004+28300-016500FM-12+236899999V02099999999992200019N0750001N1+00821-01571999999ADDAA199000091GA1001+999999999GF100991001001999999001001KA1120M+00851MA1999999076651MD1310031+9999ME1431159REMSYN080AAXX  16184 60010 32989 0//// 10082 21157 37665 47115 53003 333 10085 444 56181;EQDQ01  00002PRCP99
0182600100999992000041712004+28300-016500FM-12+236899999V02099999999992200019N0750001N1+01021-01171999999ADDAA199000091GF102991001001999999001051MA1999999076971MD1310061+9999ME1431559REMSYN076AAXX  17124 60010 32989 2//// 10102 21117 37697 47155 53006 80005 444 36152;EQDQ01  00002PRCP99
0201600100999992000041806004+28300-016500FM-12+236899999V02099999999992200019N0750001N1+00651-02511999999ADDAA199000091GF104991001001999999001061KA1120N+00561MA1999999077021MD1310041+9999ME1431509REMSYN082AAXX  18064 60010 32989 4//// 10065 21251 37702 47150 53004 80006 333 20056 55115;EQDQ01  00002PRCP99
0182600100999992000041812004+28300-016500FM-12+236899999V02099999999999999999N0750001N1+01241-01331999999ADDAA199000091GF106991001001999999001061MA1999999077221MD1110111+9999ME1431889REMSYN076AAXX  18124 60010 32989 6//// 10124 21133 37722 47188 51011 80006 444 36153;EQDQ01  00002PRCP99
0200600100999992000041906004+28300-016500FM-12+236899999V02099999999990900019N0750001N1+00841-01121999999ADDAA199000091GF108991031001022501041071KA1120N+00701MA1999999077091MD1610041+9999ME1431639REMSYN081AAXX  19064 60010 32889 8//// 10084 2111237709 47163 56004 83047 333 20070 55100;EQDQ01  00002PRCP99
0215600100999992000041918004+28300-016500FM-12+236899999V02099999999992200019N0750001N1+01101-01641999999ADDAA199000091GA1001+999999999GF100991001001999999001001KA1120M+01291MA1999999077091MD1610051+9999ME1431709REMSYN080AAXX  19184 60010 32989 0//// 10110 21164 37709 47170 56005 333 10129 444 26162;EQDQ01  00002PRCP99
0247600100999992000042006004+28300-016500FM-12+236899999V02099999999992200019N0750001N1+00871-02051999999ADDAA199000091GA1001+999999999GF100991001001999999001001GG1069061009019999GJ107149KA1120N+00751MA1999999077091MD1610061+9999ME1431639REMSYN086AAXX  20064 60010 32989 0//// 10087 21205 37709 47163 56006 333 20075 55119 444 46161;EQDQ01  00002PRCP99
0210600100999992000042012004+28300-016500FM-12+236899999V02099999999992200019N0750001N1+01431-00741999999ADDAA199000091GA1001+999999999GF100991001001999999001001GG1069063009019999MA1999999077221MD1110081+9999ME1431939REMSYN070AAXX  20124 60010 32989 0//// 10143 21074 37722 47193 51008 444 26163;EQDQ01  00002PRCP99
0205600100999992000042018004+28300-016500FM-12+236899999V02099999999992200019N0750001N1+01351-01271999999ADDAA199000091GA1001+999999999GF100991001001999999001001KA1999M+01551MA1999999077111MD1710061+9999ME1431799REMSYN070AAXX  20184 60010 32989 0//// 10135 21127 37711 47179 57006 333 10155;EQDQ01  00002PRCP99
0216600100999992000042112004+28300-016500FM-12+236899999V02099999999992200019N0750001N1+01451-00671999999ADDAA199000091GA1001+999999999GF100991001001999999001001GG1029015009069029MA1999999077191MD1310051+9999ME1431919REMSYN076AAXX  21124 60010 32989 0//// 10145 21067 37719 47191 53005 444 26152 16083;EQDQ01  00002PRCP99
0195600100999992000042118004+28300-016500FM-12+236899999V02099999999992200019N0750001N1+01361-00981999999ADDAA199000091GF103991001001999999001051KA1999M+01581MA1999999077121MD1810041+9999ME1431809REMSYN076AAXX  21184 60010 32989 3//// 10136 21098 37712 47180 58004 80005 333 10158;EQDQ01  00002PRCP99
0211600100999992000042206004+28300-016500FM-12+236899999V02099999999992200019N0750001N1+00741-02381999999ADDAA199000091GA1001+999999999GF100991001001999999001001KA1120N+00601MA1999999077071MD1710081+9999ME1431589REMSYN076AAXX  22064 60010 32989 0//// 10074 21238 37707 47158 57008 333 20060 55114;EQDQ01  00002PRCP99
0215600100999992000042218004+28300-016500FM-12+236899999V02099999999992200019N0750001N1+01121-00671999999ADDAA199000091GA1001+999999999GF100991001001999999001001KA1120M+01381MA1999999077151MD1610041+9999ME1431779REMSYN080AAXX  22184 60010 32989 0//// 10112 21067 37715 47177 56004 333 10138 444 56184;EQDQ01  00002PRCP99
0211600100999992000042306004+28300-016500FM-12+236899999V02099999999992200019N0750001N1+99999+99999999999ADDAA199000091GA1001+999999999GF100991001001999999001001KA1120N+00701MA1999999077151MD1610041+9999ME1431619REMSYN076AAXX  23064 60010 32989 0//// 10082 21677 37715 47161 56004 333 20070 55104;EQDQ01  00002PRCP99
0210600100999992000042312004+28300-016500FM-12+236899999V02099999999992200019N0750001N1+01221-01871999999ADDAA199000091GA1001+999999999GF100991001001999999001001GG1069064009019999MA1999999077221MD1210031+9999ME1431879REMSYN070AAXX  23124 60010 32989 0//// 10122 21187 37722 47187 52003 444 36164;EQDQ01  00002PRCP99
0215600100999992000042318004+28300-016500FM-12+236899999V02099999999992200019N0750001N1+01061+00152999999ADDAA199000091GA1001+999999999GF100991001001999999001001KA1120M+01341MA1999999077131MD1610051+9999ME1431739REMSYN080AAXX  23184 60010 32989 0//// 10106 20015 37713 47173 56005 333 10134 444 36164;EQDQ01  00002PRCP99
0211600100999992000042406004+28300-016500FM-12+236899999V02099999999992200019N0750001N1+00841-00821999999ADDAA199000091GA1001+999999999GF100991001001999999001001KA1120N+00781MA1999999077031MD1610041+9999ME1431569REMSYN076AAXX  24064 60010 32989 0//// 10084 21082 37703 47156 56004 333 20078 55105;EQDQ01  00002PRCP99
0215600100999992000042418004+28300-016500FM-12+236899999V02099999999992200019N0750001N1+01251-01641999999ADDAA199000091GA1001+999999999GF100991001001999999001001KA1120M+01641MA1999999076971MD1710051+9999ME1431619REMSYN080AAXX  24184 60010 32989 0//// 10125 21164 37697 47161 57005 333 10164 444 36161;EQDQ01  00002PRCP99
0182600100999992000042512004+28300-016500FM-12+236899999V02099999999992200019N0750001N1+01441-00501999999ADDAA199000091GF101991001001999999001021MA1999999076911MD1110051+9999ME1431609REMSYN076AAXX  25124 60010 32989 1//// 10144 21050 37691 47160 51005 80002 444 36163;EQDQ01  00002PRCP99
0223600100999992000042518004+28300-016500FM-12+236899999V02099999999992200019N0750001N1+01281-00821999999ADDAA199000091GF101991001001999999001021GG1069063009019999KA1120M+01531MA1999999076841MD1710031+9999ME1431489REMSYN086AAXX  25184 60010 32989 1//// 10128 21082 37684 47148 57003 80002 333 10153 444 16163;EQDQ01  00002PRCP99
0210600100999992000042612004+28300-016500FM-12+236899999V02099999999992200019N0750001N1+01041-01121999999ADDAA199000091GA1001+999999999GF100991001001999999001001GG1089004009029999MA1999999076761MD1310041+9999ME1431329REMSYN070AAXX  26124 60010 32989 0//// 10104 21112 37676 47132 53004 444 58204;EQDQ01  00002PRCP99
0215600100999992000042618004+28300-016500FM-12+236899999V02099999999992200019N0750001N1+00861-01301999999ADDAA199000091GA1001+999999999GF100991001001999999001001KA1120M+01141MA1999999076761MD1410001+9999ME1431309REMSYN080AAXX  26184 60010 32989 0//// 10086 21130 37676 47130 54000 333 10114 444 38184;EQDQ01  00002PRCP99
0211600100999992000042706004+28300-016500FM-12+236899999V02099999999992200019N0750001N1+00401-01501999999ADDAA199000091GA1001+999999999GF100991001001999999001001KA1120N+00401MA1999999076801MD1610031+9999ME1431439REMSYN076AAXX  27064 60010 32989 0//// 10040 21150 37680 47143 56003 333 20040 55132;EQDQ01  00002PRCP99
0210600100999992000042712004+28300-016500FM-12+236899999V02099999999992200019N0750001N1+01101-00471999999ADDAA199000091GA1001+999999999GF100991001001999999001001GG1069071009019999MA1999999076831MD1310131+9999ME1431539REMSYN070AAXX  27124 60010 32989 0//// 10110 21047 37683 47153 53013 444 36171;EQDQ01  00002PRCP99
0215600100999992000042718004+28300-016500FM-12+236899999V02099999999992200019N0750001N1+00941-01071999999ADDAA199000091GA1001+999999999GF100991001001999999001001KA1120M+01241MA1999999076861MD1610071+9999ME1431409REMSYN080AAXX  27184 60010 32989 0//// 10094 21107 37686 47140 56007 333 10124 444 36161;EQDQ01  00002PRCP99
0211600100999992000042806004+28300-016500FM-12+236899999V02099999999992200019N0750001N1+00361-01871999999ADDAA199000091GA1001+999999999GF100991001001999999001001KA1120N+00361MA1999999076861MD1610041+9999ME1431259REMSYN076AAXX  28064 60010 32989 0//// 10036 21187 37686 47125 56004 333 20036 55132;EQDQ01  00002PRCP99
0210600100999992000042812004+28300-016500FM-12+236899999V02099999999992200019N0750001N1+01061-00471999999ADDAA199000091GA1001+999999999GF100991001001999999001001GG1069065009019999MA1999999076781MD1610031+9999ME1431359REMSYN070AAXX  28124 60010 32989 0//// 10106 21047 37678 47135 56003 444 56165;EQDQ01  00002PRCP99
0215600100999992000042818004+28300-016500FM-12+236899999V02099999999992200019N0750001N1+00901-00601999999ADDAA199000091GA1001+999999999GF100991001001999999001001KA1120M+01141MA1999999076661MD1610061+9999ME1431189REMSYN080AAXX  28184 60010 32989 0//// 10090 21060 37666 47118 56006 333 10114 444 56144;EQDQ01  00002PRCP99
0211600100999992000042906004+28300-016500FM-12+236899999V02099999999992200019N0750001N1+00361-00981999999ADDAA199000091GA1001+999999999GF100991001001999999001001KA1120N+00301MA1999999076521MD1610101+9999ME1430889REMSYN076AAXX  29064 60010 32989 0//// 10036 21098 37652 47088 56010 333 20030 55130;EQDQ01  00002PRCP99
0210600100999992000042912004+28300-016500FM-12+236899999V02099999999990001519N0000001N1+00681+00391999999ADDAA199000091AY101061AY201061GA1091+999999999GF109991091999999999999999MA1999999076491MD1610031+9999ME1430949MW1451REMSYN066AAXX  29124 60010 31/00 9//// 10068 20039 37649 47094 56003 74500;EQDQ01  00002PRCP99
