0060618560999992000022200004+08620-013200FM-15+0027GFLL V02099999999992200019N0099001N1+99999+99999999999ADDMW1001REMMET023GFLL 0000 220000ZMNILV;EQDQ01+000000PRSWM2
0060618560999992000031105004+08620-013200FM-15+0027GFLL V02099999999992200019N0099001N1+99999+99999999999ADDMW1001REMMET023GFLL 0500Z 110500ZSNIL;EQDQ01+000000PRSWM2
0053618560999992000031407004+08620-013200FM-16+0027GFLL V02099999999992200019N0112651N1+99999+99999999999ADDMW1001REMMET016GFLL 140700Z NL;EQDQ01+000000PRSWM2
0053618560999992000031714004+08620-013200FM-16+0027GFLL V02099999999992200019N0016091N1+99999+99999999999ADDMW1001REMMET016GFLL 171400Z NL;EQDQ01+000000PRSWM2
0053618560999992000032805004+08620-013200FM-16+0027GFLL V02099999999992200019N0060001N1+99999+99999999999ADDMW1001REMMET016GFLL 280500Z NT;EQDQ01+000000PRSWM2
0053618560999992000041515004+08620-013200FM-16+0027GFLL V02099999999992200019N0321861N1+99999+99999999999ADDMW1001REMMET016GFLL 151500Z NL;EQDQ01+000000PRSWM2
