0171619700999992000010106004-17050+042700FM-12+001099999V0200501N002119999999N9999999N1+03081+02401100961ADDAA106000091KA1120N+02691MA1999999100851MD1999999-0111OA150600571REMSYN076AAXX  01064 61970 36/// /0504 10308 20240 30085 40096 333 20269 55114 59011;EQDQ01  00002PRCP06
0135619700999992000010109004-17050+042700FM-12+001099999V0200401N003119999999N9999999N1+03151+02331100871ADDAA106000091MA1999999100761MD1999999-0121REMSYN064AAXX  01094 61970 36/// /0406 10315 20233 30076 40087 333 59012;EQDQ01  00002PRCP06
0135619700999992000010115004-17050+042700FM-12+001099999V0202201N001019999999N9999999N1+03041+02431100791ADDAA106000091MA1999999100681MD1999999-0031REMSYN064AAXX  01154 61970 36/// /2202 10304 20243 30068 40079 333 59003;EQDQ01  00002PRCP06
0154619700999992000010118004-17050+042700FM-12+001099999V0209999C000019999999N9999999N1+02641+02391100911ADDAA106000091KA1120M+03201MA1999999100801MD1999999-0021REMSYN070AAXX  01184 61970 36/// /0000 10264 20239 30080 40091 333 10320 59002;EQDQ01  00002PRCP06
0135619700999992000010121004-17050+042700FM-12+001099999V0201201N001019999999N9999999N1+02601+02421100901ADDAA106000091MA1999999100791MD1999999-0031REMSYN064AAXX  01214 61970 36/// /1202 10260 20242 30079 40090 333 59003;EQDQ01  00002PRCP06
0135619700999992000010200004-17050+042700FM-12+001099999V0201201N002119999999N9999999N1+02641+02371100781ADDAA106000091MA1999999100671MD1999999+0071REMSYN064AAXX  02004 61970 36/// /1204 10264 20237 30067 40078 333 58007;EQDQ01  00002PRCP06
0135619700999992000010203004-17050+042700FM-12+001099999V0201101N002119999999N9999999N1+02681+02431100861ADDAA106000091MA1999999100751MD1999999+0011REMSYN064AAXX  02034 61970 36/// /1104 10268 20243 30075 40086 333 58001;EQDQ01  00002PRCP06
0171619700999992000010206004-17050+042700FM-12+001099999V0200501N003119999999N9999999N1+03091+02591101001ADDAA106000091KA1120N+02581MA1999999100891MD1999999+0041OA150600361REMSYN076AAXX  02064 61970 36/// /0506 10309 20259 30089 40100 333 20258 55073 58004;EQDQ01  00002PRCP06
0135619700999992000010209004-17050+042700FM-12+001099999V0200501N005119999999N9999999N1+03151+02561100931ADDAA106000091MA1999999100821MD1999999+0061REMSYN064AAXX  02094 61970 36/// /0510 10315 20256 30082 40093 333 58006;EQDQ01  00002PRCP06
0135619700999992000010212004-17050+042700FM-12+001099999V0200301N005119999999N9999999N1+03201+02301100791ADDAA106000091MA1999999100681MD1999999+0001REMSYN064AAXX  02124 61970 36/// /0310 10320 20230 30068 40079 333 58000;EQDQ01  00002PRCP06
0135619700999992000010215004-17050+042700FM-12+001099999V0200401N004119999999N9999999N1+02991+02281100841ADDAA106000091MA1999999100731MD1999999+0051REMSYN064AAXX  02154 61970 36/// /0408 10299 20228 30073 40084 333 58005;EQDQ01  00002PRCP06
0154619700999992000010218004-17050+042700FM-12+001099999V0200301N003119999999N9999999N1+02831+02341101041ADDAA106000091KA1120M+03261MA1999999100931MD1999999+0131REMSYN070AAXX  02184 61970 36/// /0306 10283 20234 30093 40104 333 10326 58013;EQDQ01  00002PRCP06
0135619700999992000010221004-17050+042700FM-12+001099999V0200401N003119999999N9999999N1+02811+02451101001ADDAA106000091MA1999999100891MD1999999+0101REMSYN064AAXX  02214 61970 3//// /0406 10281 20245 30089 40100 333 58010;EQDQ01  00002PRCP06
0135619700999992000010312004-17050+042700FM-12+001099999V0200301N004119999999N9999999N1+03081+02541100861ADDAA106000091MA1999999100751MD1999999+0071REMSYN064AAXX  03124 61970 36/// /0308 10308 20254 30075 40086 333 58007;EQDQ01  00002PRCP06
0135619700999992000010315004-17050+042700FM-12+001099999V0200101N002119999999N9999999N1+02971+02461100831ADDAA106000091MA1999999100721MD1999999-0011REMSYN064AAXX  03154 61970 36/// /0104 10297 20246 30072 40083 333 59001;EQDQ01  00002PRCP06
0135619700999992000010321004-17050+042700FM-12+001099999V0209999C000019999999N9999999N1+02611+02411100991ADDAA106000091MA1999999100881MD1999999-0011REMSYN064AAXX  03214 61970 36/// /0000 10261 20241 30088 40099 333 59001;EQDQ01  00002PRCP06
0078619700999992000010323004-17050+042700FM-12+001099999V02099999999999999999N9999999N1+02801+99999999999ADDAA106000091REMSYN036AAXX  03234 61970 36/// ///29 1028/;EQDQ01  00002PRCP06
0135619700999992000010400004-17050+042700FM-12+001099999V0202701N003119999999N9999999N1+02771+02491100861ADDAA106000091MA1999999100751MD1999999-0051REMSYN064AAXX  04004 61970 36/// /2706 10277 20249 30075 40086 333 59005;EQDQ01  00002PRCP06
0135619700999992000010403004-17050+042700FM-12+001099999V0202501N005119999999N9999999N1+02781+02501100831ADDAA106000091MA1999999100721MD1999999-0171REMSYN064AAXX  04034 61970 36/// /2510 10278 20250 30072 40083 333 59017;EQDQ01  00002PRCP06
0187619700999992000010406004-17050+042700FM-12+001099999V0202501N005119999999N9999999N1+02911+02531101011ADDAA106000091KA1120N+02591MA1999999100901MD1999999-0161OA150699999REMSYN076AAXX  04064 61970 36/// /2510 10291 20253 30090 40101 333 20259 55075 59016;EQDQ01  00002PRCP06Q02  00362WGOSPD
0135619700999992000010412004-17050+042700FM-12+001099999V0202401N005119999999N9999999N1+03071+02391100861ADDAA106000091MA1999999100751MD1999999+0001REMSYN064AAXX  04124 61970 36/// /2410 10307 20239 30075 40086 333 58000;EQDQ01  00002PRCP06
0111619700999992000010417004-17050+042700FM-12+001099999V0202401N003119999999N9999999N1+02821+02441100901ADDAA106000091MA1999999100791REMSYN054AAXX  04174 61970 36/// /2406 10282 20244 30079 40090;EQDQ01  00002PRCP06
0154619700999992000010418004-17050+042700FM-12+001099999V0202501N005119999999N9999999N1+02831+02511100971ADDAA106000091KA1120M+03181MA1999999100861MD1999999-0061REMSYN070AAXX  04184 61970 36/// /2510 10283 20251 30086 40097 333 10318 59006;EQDQ01  00002PRCP06
0135619700999992000010421004-17050+042700FM-12+001099999V0202501N004119999999N9999999N1+02791+02531100921ADDAA106000091MA1999999100811MD1999999-0071REMSYN064AAXX  04214 61970 36/// /2508 10279 20253 30081 40092 333 59007;EQDQ01  00002PRCP06
0135619700999992000010500004-17050+042700FM-12+001099999V0202601N003119999999N9999999N1+02791+02571100811ADDAA106000091MA1999999100701MD1999999-0051REMSYN064AAXX  05004 61970 36/// /2606 10279 20257 30070 40081 333 59005;EQDQ01  00002PRCP06
0122619700999992000010503004-17050+042700FM-12+001099999V0202601N001019999999N9999999N1+02681+02441100851ADDAA103000191MA1999999100741MD1999999+0021REMSYN070AAXX  05034 61970 26/// /2602 10268 20244 30074 40085 333 58002 69927;
0177619700999992000010506004-17050+042700FM-12+001099999V0202701N005119999999N9999999N1+03001+02571101011ADDAA124000191KA1120N+02671MA1999999100901MD1999999+0001OA150699999REMSYN082AAXX  05064 61970 16/// /2710 10300 20257 30090 40101 69924 333 20267 55041 58000;EQDQ01  00212WGOSPD
0135619700999992000010509004-17050+042700FM-12+001099999V0202701N006219999999N9999999N1+02981+02641100971ADDAA106000091MA1999999100861MD1999999+0051REMSYN064AAXX  05094 61970 36/// /2712 10298 20264 30086 40097 333 58005;EQDQ01  00002PRCP06
0135619700999992000010512004-17050+042700FM-12+001099999V0202501N006219999999N9999999N1+03121+02511100761ADDAA106000091MA1999999100651MD1999999-0101REMSYN064AAXX  05124 61970 36/// /2512 10312 20251 30065 40076 333 59010;EQDQ01  00002PRCP06
0111619700999992000010517004-17050+042700FM-12+001099999V0202201N004119999999N9999999N1+02841+02521100921ADDAA106000091MA1999999100811REMSYN054AAXX  05174 61970 36/// /2208 10284 20252 30081 40092;EQDQ01  00002PRCP06
0154619700999992000010518004-17050+042700FM-12+001099999V0202201N003119999999N9999999N1+02821+02521100911ADDAA106000091KA1120M+03201MA1999999100801MD1999999-0061REMSYN070AAXX  05184 61970 36/// /2206 10282 20252 30080 40091 333 10320 59006;EQDQ01  00002PRCP06
0135619700999992000010521004-17050+042700FM-12+001099999V0202201N002119999999N9999999N1+02771+02511100891ADDAA106000091MA1999999100781MD1999999-0031REMSYN064AAXX  05214 61970 36/// /2204 10277 20251 30078 40089 333 59003;EQDQ01  00002PRCP06
0135619700999992000010603004-17050+042700FM-12+001099999V0209999C000019999999N9999999N1+02651+02581100821ADDAA106000091MA1999999100711MD1999999-0031REMSYN064AAXX  06034 61970 36/// /0000 10265 20258 30071 40082 333 59003;EQDQ01  00002PRCP06
0158619700999992000010606004-17050+042700FM-12+001099999V0201201N002119999999N9999999N1+02721+02541100871ADDAA124000191KA1120N+02631MA1999999100761MD1999999-0141OA150600511REMSYN082AAXX  06064 61970 16/// /1204 10272 20254 30076 40087 69924 333 20263 55106 59014;
0122619700999992000010609004-17050+042700FM-12+001099999V0203001N005119999999N9999999N1+03171+02551100821ADDAA103000191MA1999999100711MD1999999-0151REMSYN070AAXX  06094 61970 26/// /3010 10317 20255 30071 40082 333 59015 69927;
0122619700999992000010612004-17050+042700FM-12+001099999V0202801N005119999999N9999999N1+03231+02591100631ADDAA106000191MA1999999100521MD1999999-0131REMSYN070AAXX  06124 61970 16/// /2810 10323 20259 30052 40063 69921 333 59013;
0135619700999992000010621004-17050+042700FM-12+001099999V0200301N002119999999N9999999N1+02621+02441100731ADDAA106000091MA1999999100621MD1999999-0161REMSYN064AAXX  06214 61970 36/// /0304 10262 20244 30062 40073 333 59016;EQDQ01  00002PRCP06
0135619700999992000010700004-17050+042700FM-12+001099999V0200201N001019999999N9999999N1+02661+02441100631ADDAA106000091MA1999999100521MD1999999-0161REMSYN064AAXX  07004 61970 36/// /0202 10266 20244 30052 40063 333 59016;EQDQ01  00002PRCP06
0135619700999992000010703004-17050+042700FM-12+001099999V0203601N002119999999N9999999N1+02741+02441100731ADDAA106000091MA1999999100621MD1999999-0091REMSYN064AAXX  07034 61970 36/// /3604 10274 20244 30062 40073 333 59009;EQDQ01  00002PRCP06
0177619700999992000010706004-17050+042700FM-12+001099999V0203301N005119999999N9999999N1+02981+02371100771ADDAA124000591KA1120N+02601MA1999999100661MD1999999-0101OA150699999REMSYN082AAXX  07064 61970 16/// /3310 10298 20237 30066 40077 69944 333 20260 55089 59010;EQDQ01  00412WGOSPD
0135619700999992000010709004-17050+042700FM-12+001099999V0203301N006219999999N9999999N1+03051+02491100711ADDAA106000091MA1999999100601MD1999999-0111REMSYN064AAXX  07094 61970 36/// /3312 10305 20249 30060 40071 333 59011;EQDQ01  00002PRCP06
0122619700999992000010712004-17050+042700FM-12+001099999V0203601N003119999999N9999999N1+03001+02551100531ADDAA106000191MA1999999100421MD1999999-0101REMSYN070AAXX  07124 61970 16/// /3606 10300 20255 30042 40053 69921 333 59010;
0135619700999992000010715004-17050+042700FM-12+001099999V0200601N003119999999N9999999N1+02781+02481100541ADDAA106000091MA1999999100431MD1999999-0111REMSYN064AAXX  07154 61970 36/// /0606 10278 20248 30043 40054 333 59011;EQDQ01  00002PRCP06
0111619700999992000010716004-17050+042700FM-12+001099999V0200501N003119999999N9999999N1+02681+02441100611ADDAA106000091MA1999999100501REMSYN054AAXX  07164 61970 36/// /0506 10268 20244 30050 40061;EQDQ01  00002PRCP06
0141619700999992000010718004-17050+042700FM-12+001099999V0200201N002119999999N9999999N1+02751+02471100651ADDAA112000191KA1120M+03221MA1999999100541MD1999999-0101REMSYN076AAXX  07184 61970 16/// /0204 10275 20247 30054 40065 69922 333 10322 59010;
0135619700999992000010721004-17050+042700FM-12+001099999V0200601N003119999999N9999999N1+02741+02561100651ADDAA106000091MA1999999100541MD1999999-0081REMSYN064AAXX  07214 61970 36/// /0606 10274 20256 30054 40065 333 59008;EQDQ01  00002PRCP06
0122619700999992000010800004-17050+042700FM-12+001099999V0200901N004119999999N9999999N1+02711+02421100501ADDAA106001091MA1999999100391MD1999999-0131REMSYN070AAXX  08004 61970 16/// /0908 10271 20242 30039 40050 60011 333 59013;
0135619700999992000010803004-17050+042700FM-12+001099999V0203401N004119999999N9999999N1+02791+02451100581ADDAA106000091MA1999999100471MD1999999-0151REMSYN064AAXX  08034 61970 36/// /3408 10279 20245 30047 40058 333 59015;EQDQ01  00002PRCP06
0158619700999992000010806004-17050+042700FM-12+001099999V0203601N003119999999N9999999N1+03021+02571100641ADDAA124001091KA1120N+02611MA1999999100531MD1999999-0131OA150600311REMSYN082AAXX  08064 61970 16/// /3606 10302 20257 30053 40064 60014 333 20261 55067 59013;
0135619700999992000010809004-17050+042700FM-12+001099999V0203301N007219999999N9999999N1+03181+02611100541ADDAA106000091MA1999999100431MD1999999-0171REMSYN064AAXX  08094 61970 36/// /3314 10318 20261 30043 40054 333 59017;EQDQ01  00002PRCP06
0135619700999992000010812004-17050+042700FM-12+001099999V0203501N005119999999N9999999N1+02981+02511100461ADDAA106000091MA1999999100351MD1999999-0071REMSYN064AAXX  08124 61970 32/// /3510 10298 20251 30035 40046 333 59007;EQDQ01  00002PRCP06
0122619700999992000010815004-17050+042700FM-12+001099999V0200401N004119999999N9999999N1+02731+02531100421ADDAA103000591MA1999999100311MD1999999-0121REMSYN070AAXX  08154 61970 26/// /0408 10273 20253 30031 40042 333 59012 69947;
0111619700999992000010817004-17050+042700FM-12+001099999V0200101N005119999999N9999999N1+02851+02531100541ADDAA106000091MA1999999100431REMSYN054AAXX  08174 61970 36/// /0110 10285 20253 30043 40054;EQDQ01  00002PRCP06
0141619700999992000010818004-17050+042700FM-12+001099999V0200101N005119999999N9999999N1+02851+02551100591ADDAA112000591KA1120M+03301MA1999999100481MD1999999-0061REMSYN076AAXX  08184 61970 16/// /0110 10285 20255 30048 40059 69942 333 10330 59006;
0135619700999992000010821004-17050+042700FM-12+001099999V0200101N005119999999N9999999N1+02831+02531100611ADDAA106000091MA1999999100501MD1999999-0041REMSYN064AAXX  08214 61970 36/// /0110 10283 20253 30050 40061 333 59004;EQDQ01  00002PRCP06
0135619700999992000010900004-17050+042700FM-12+001099999V0203601N005119999999N9999999N1+02831+02511100511ADDAA106000091MA1999999100401MD1999999+0011REMSYN064AAXX  09004 61970 36/// /3610 10283 20251 30040 40051 333 58001;EQDQ01  00002PRCP06
0135619700999992000010903004-17050+042700FM-12+001099999V0200101N006219999999N9999999N1+02821+02541100491ADDAA106000091MA1999999100381MD1999999-0091REMSYN064AAXX  09034 61970 36/// /0112 10282 20254 30038 40049 333 59009;EQDQ01  00002PRCP06
0097619700999992000010909004-17050+042700FM-12+001099999V0203401N008219999999N9999999N1+02731+02511100671ADDIA1179MA1999999100561REMSYN064AAXX  09094 61970 26/// /3416 10273 20251 30056 40067 333 40017;
0122619700999992000010912004-17050+042700FM-12+001099999V0203401N007219999999N9999999N1+02881+02541100591ADDAA106001091MA1999999100481MD1999999+0131REMSYN070AAXX  09124 61970 16/// /3414 10288 20254 30048 40059 60011 333 58013;
0135619700999992000010915004-17050+042700FM-12+001099999V0203501N007219999999N9999999N1+02861+02501100531ADDAA106000091MA1999999100421MD1999999+0111REMSYN064AAXX  09154 61970 36/// /3514 10286 20250 30042 40053 333 58011;EQDQ01  00002PRCP06
0075619700999992000010916004-17050+042700FM-12+001099999V0203401N007219999999N9999999N1+02821+02481999999ADDMA1999999100451REMSYN048AAXX  09164 61970 26/// /3414 10282 20248 30045;
0135619700999992000010921004-17050+042700FM-12+001099999V0203501N005119999999N9999999N1+02811+02511100641ADDAA106000091MA1999999100531MD1999999+0031REMSYN064AAXX  09214 61970 36/// /3510 10281 20251 30053 40064 333 58003;EQDQ01  00002PRCP06
0135619700999992000011000004-17050+042700FM-12+001099999V0203501N007219999999N9999999N1+02791+02491100531ADDAA106000091MA1999999100421MD1999999+0021REMSYN064AAXX  10004 61970 36/// /3514 10279 20249 30042 40053 333 58002;EQDQ01  00002PRCP06
0135619700999992000011003004-17050+042700FM-12+001099999V0203401N007219999999N9999999N1+02811+02491100591ADDAA106000091MA1999999100481MD1999999+0101REMSYN064AAXX  10034 61970 36/// /3414 10281 20249 30048 40059 333 58010;EQDQ01  00002PRCP06
0177619700999992000011006004-17050+042700FM-12+001099999V0200101N006219999999N9999999N1+02641+02521100641ADDAA124004191KA1120N+02521MA1999999100531MD1999999-0091OA150699999REMSYN082AAXX  10064 61970 16/// /0112 10264 20252 30053 40064 60044 333 20252 55000 59009;EQDQ01  00002WGOSPD
0122619700999992000011009004-17050+042700FM-12+001099999V0203401N007219999999N9999999N1+02841+02521100581ADDAA103000891MA1999999100471MD1999999-0091REMSYN070AAXX  10094 61970 26/// /3414 10284 20252 30047 40058 333 59009 69987;
0122619700999992000011012004-17050+042700FM-12+001099999V0203401N008219999999N9999999N1+02951+02571100471ADDAA106000891MA1999999100361MD1999999-0121REMSYN070AAXX  10124 61970 16/// /3416 10295 20257 30036 40047 69981 333 59012;
0135619700999992000011015004-17050+042700FM-12+001099999V0203501N007219999999N9999999N1+02841+02501100391ADDAA106000091MA1999999100281MD1999999-0141REMSYN064AAXX  10154 61970 36/// /3514 10284 20250 30028 40039 333 59014;EQDQ01  00002PRCP06
0141619700999992000011018004-17050+042700FM-12+001099999V0203601N004119999999N9999999N1+02821+02601100621ADDAA112000891KA1120M+02981MA1999999100511MD1999999-0041REMSYN076AAXX  10184 61970 16/// /3608 10282 20260 30051 40062 69982 333 10298 59004;
0135619700999992000011021004-17050+042700FM-12+001099999V0203501N007219999999N9999999N1+02811+02551100541ADDAA106000091MA1999999100431MD1999999-0101REMSYN064AAXX  10214 61970 36/// /3514 10281 20255 30043 40054 333 59010;EQDQ01  00002PRCP06
0122619700999992000011103004-17050+042700FM-12+001099999V0203001N014419999999N9999999N1+02561+02351100551ADDAA103001091MA1999999100441MD1999999-0041REMSYN070AAXX  11034 61970 26/// /3028 10256 20235 30044 40055 333 59004 60017;
0177619700999992000011106004-17050+042700FM-12+001099999V0203401N007219999999N9999999N1+02541+02471100671ADDAA124010991KA1120N+02421MA1999999100561MD1999999+0431OA150699999REMSYN082AAXX  11064 61970 16/// /3414 10254 20247 30056 40067 60114 333 20242 55000 58043;EQDQ01  00002WGOSPD
0122619700999992000011112004-17050+042700FM-12+001099999V0203301N008219999999N9999999N1+02931+02551100321ADDAA106001091MA1999999100211MD1999999-0151REMSYN070AAXX  11124 61970 16/// /3316 10293 20255 30021 40032 60011 333 59015;
0141619700999992000011118004-17050+042700FM-12+001099999V0203301N008219999999N9999999N1+02761+02501100481ADDAA112001091KA1120M+02981MA1999999100371MD1999999-0141REMSYN076AAXX  11184 61970 16/// /3316 10276 20250 30037 40048 60012 333 10298 59014;
0122619700999992000011200004-17050+042700FM-12+001099999V0203101N010319999999N9999999N1+02631+02401100261ADDAA106007191MA1999999100151MD1999999-0161REMSYN070AAXX  12004 61970 16/// /3120 10263 20240 30015 40026 60071 333 59016;
0122619700999992000011203004-17050+042700FM-12+001099999V0203201N009319999999N9999999N1+02711+02381100271ADDAA103000591MA1999999100161MD1999999-0281REMSYN070AAXX  12034 61970 26/// /3218 10271 20238 30016 40027 333 59028 69947;
0177619700999992000011206004-17050+042700FM-12+001099999V0203301N009319999999N9999999N1+02941+02491100361ADDAA124008991KA1120N+02371MA1999999100251MD1999999-0311OA150699999REMSYN082AAXX  12064 61970 16/// /3318 10294 20249 30025 40036 60094 333 20237 55006 59031;EQDQ01  00002WGOSPD
0122619700999992000011209004-17050+042700FM-12+001099999V0203201N011319999999N9999999N1+02721+02481100201ADDAA103006191MA1999999100091MD1999999-0341REMSYN070AAXX  12094 61970 26/// /3222 10272 20248 30009 40020 333 59034 60067;
0122619700999992000011212004-17050+042700FM-12+001099999V0203101N015419999999N9999999N1+02581+02421100071ADDAA106009991MA1999999099961MD1999999-0251REMSYN070AAXX  12124 61970 16/// /3130 10258 20242 39996 40007 60101 333 59025;
0122619700999992000011215004-17050+042700FM-12+001099999V0203101N013419999999N9999999N1+02691+02451100201ADDAA103000191MA1999999100091MD1999999-0151REMSYN070AAXX  12154 61970 26/// /3126 10269 20245 30009 40020 333 59015 69927;
0141619700999992000011218004-17050+042700FM-12+001099999V0203001N013419999999N9999999N1+02671+02441100361ADDAA112010991KA1120M+02971MA1999999100251MD1999999-0121REMSYN076AAXX  12184 61970 16/// /3026 10267 20244 30025 40036 60112 333 10297 59012;
0135619700999992000011221004-17050+042700FM-12+001099999V0203101N009319999999N9999999N1+02671+02361100371ADDAA106000091MA1999999100261MD1999999+0001REMSYN064AAXX  12214 61970 36/// /3118 10267 20236 30026 40037 333 58000;EQDQ01  00002PRCP06
0135619700999992000011300004-17050+042700FM-12+001099999V0203101N009319999999N9999999N1+02651+02381100421ADDAA106000091MA1999999100311MD1999999+0161REMSYN064AAXX  13004 61970 36/// /3118 10265 20238 30031 40042 333 58016;EQDQ01  00002PRCP06
0135619700999992000011303004-17050+042700FM-12+001099999V0203101N011319999999N9999999N1+02691+02341100481ADDAA106000091MA1999999100371MD1999999+0211REMSYN064AAXX  13034 61970 36/// /3122 10269 20234 30037 40048 333 58021;EQDQ01  00002PRCP06
0114619700999992000011309004-17050+042700FM-12+001099999V0203201N010319999999N9999999N1+02951+02481100581ADDAA106000091MD1999999+0381REMSYN058AAXX  13094 61970 36/// /3220 10295 20248 40058 333 58038;EQDQ01  00002PRCP06
0135619700999992000011312004-17050+042700FM-12+001099999V0203101N009319999999N9999999N1+02901+02391100441ADDAA106000091MA1999999100331MD1999999+0371REMSYN064AAXX  13124 61970 36/// /3118 10290 20239 30033 40044 333 58037;EQDQ01  00002PRCP06
0135619700999992000011315004-17050+042700FM-12+001099999V0203101N008219999999N9999999N1+02811+02491100431ADDAA106000091MA1999999100321MD1999999+0231REMSYN064AAXX  13154 61970 36/// /3116 10281 20249 30032 40043 333 58023;EQDQ01  00002PRCP06
0154619700999992000011318004-17050+042700FM-12+001099999V0203301N005119999999N9999999N1+02741+02581100551ADDAA106000091KA1120M+02981MA1999999100441MD1999999+0191REMSYN070AAXX  13184 61970 36/// /3310 10274 20258 30044 40055 333 10298 58019;EQDQ01  00002PRCP06
0139619700999992000011400004-17050+042700FM-12+001099999V0203201N008219999999N9999999N1+02731+02571100391ADDAA199000091MA1999999100281MD1999999-0031REMSYN068    AAXX  14004 61970 36/// /3216 10273 20257 30028 40039 333 59003;EQDQ01  00002PRCP99
0139619700999992000011403004-17050+042700FM-12+001099999V0203101N009319999999N9999999N1+02721+02501100451ADDAA199000091MA1999999100341MD1999999-0031REMSYN068    AAXX  14034 61970 36/// /3118 10272 20250 30034 40045 333 59003;EQDQ01  00002PRCP99
0181619700999992000011406004-17050+042700FM-12+001099999V0203201N008219999999N9999999N1+02791+02591100611ADDAA124002091KA1120N+02661MA1999999100501MD1999999+0061OA150699999REMSYN086    AAXX  14064 61970 16/// /3216 10279 20259 30050 40061 60024 333 20266 55000 58006;EQDQ01  00002WGOSPD
0126619700999992000011412004-17050+042700FM-12+001099999V0202701N011319999999N9999999N1+02751+02551100501ADDAA106000891MA1999999100391MD1999999+0061REMSYN074    AAXX  14124 61970 16/// /2722 10275 20255 30039 40050 69981 333 58006;
0139619700999992000011415004-17050+042700FM-12+001099999V0202801N010319999999N9999999N1+02791+02411100541ADDAA199000091MA1999999100431MD1999999+0111REMSYN068    AAXX  14154 61970 36/// /2820 10279 20241 30043 40054 333 58011;EQDQ01  00002PRCP99
0145619700999992000011418004-17050+042700FM-12+001099999V0202901N010319999999N9999999N1+02731+02511100711ADDAA112000891KA1120M+02961MA1999999100601MD1999999+0161REMSYN080    AAXX  14184 61970 16/// /2920 10273 20251 30060 40071 69982 333 10296 58016;
0126619700999992000011421004-17050+042700FM-12+001099999V0202901N008219999999N9999999N1+02701+02521100681ADDAA103003091MA1999999100571MD1999999+0161REMSYN074    AAXX  14214 61970 26/// /2916 10270 20252 30057 40068 333 58016 60037;
0126619700999992000011500004-17050+042700FM-12+001099999V0202701N010319999999N9999999N1+02711+02441100671ADDAA106003091MA1999999100561MD1999999+0281REMSYN074    AAXX  15004 61970 16/// /2720 10271 20244 30056 40067 60031 333 58028;
0139619700999992000011503004-17050+042700FM-12+001099999V0202901N009319999999N9999999N1+02691+02381100711ADDAA199000091MA1999999100601MD1999999+0261REMSYN068    AAXX  15034 61970 36/// /2918 10269 20238 30060 40071 333 58026;EQDQ01  00002PRCP99
0126619700999992000011509004-17050+042700FM-12+001099999V0202901N008219999999N9999999N1+02871+02531100891ADDAA103000191MA1999999100781MD1999999+0301REMSYN074    AAXX  15094 61970 26/// /2916 10287 20253 30078 40089 333 58030 69927;
0126619700999992000011512004-17050+042700FM-12+001099999V0202901N009319999999N9999999N1+02901+02481100761ADDAA106000191MA1999999100651MD1999999+0261REMSYN074    AAXX  15124 61970 16/// /2918 10290 20248 30065 40076 69921 333 58026;
0139619700999992000011515004-17050+042700FM-12+001099999V0202901N008219999999N9999999N1+02771+02471100771ADDAA199000091MA1999999100661MD1999999+0231REMSYN068    AAXX  15154 61970 36/// /2916 10277 20247 30066 40077 333 58023;EQDQ01  00002PRCP99
0139619700999992000011521004-17050+042700FM-12+001099999V0202901N005119999999N9999999N1+02701+02451100931ADDAA199000091MA1999999100821MD1999999+0251REMSYN068    AAXX  15214 61970 36/// /2910 10270 20245 30082 40093 333 58025;EQDQ01  00002PRCP99
0139619700999992000011600004-17050+042700FM-12+001099999V0203101N005119999999N9999999N1+02671+02401100791ADDAA199000091MA1999999100681MD1999999+0121REMSYN068    AAXX  16004 61970 36/// /3110 10267 20240 30068 40079 333 58012;EQDQ01  00002PRCP99
0139619700999992000011603004-17050+042700FM-12+001099999V0203301N004119999999N9999999N1+02641+02391100871ADDAA199000091MA1999999100761MD1999999+0161REMSYN068    AAXX  16034 61970 36/// /3308 10264 20239 30076 40087 333 58016;EQDQ01  00002PRCP99
0139619700999992000011612004-17050+042700FM-12+001099999V0203001N005119999999N9999999N1+03021+02531100771ADDAA199000091MA1999999100661MD1999999+0011REMSYN068    AAXX  16124 61970 36/// /3010 10302 20253 30066 40077 333 58001;EQDQ01  00002PRCP99
0139619700999992000011621004-17050+042700FM-12+001099999V0203601N002119999999N9999999N1+02691+02531100821ADDAA199000091MA1999999100711MD1999999-0111REMSYN068    AAXX  16214 61970 36/// /3604 10269 20253 30071 40082 333 59011;EQDQ01  00002PRCP99
0139619700999992000011703004-17050+042700FM-12+001099999V0203201N007219999999N9999999N1+02711+02401100831ADDAA199000091MA1999999100721MD1999999-0041REMSYN068    AAXX  17034 61970 36/// /3214 10271 20240 30072 40083 333 59004;EQDQ01  00002PRCP99
0191619700999992000011706004-17050+042700FM-12+001099999V0203301N005119999999N9999999N1+02881+02561100951ADDAA199000091KA1120N+02641MA1999999100841MD1999999-0051OA150699999REMSYN080    AAXX  17064 61970 36/// /3310 10288 20256 30084 40095 333 20264 55000 59005;EQDQ01  00002PRCP99Q02  00002WGOSPD
0126619700999992000011709004-17050+042700FM-12+001099999V0203201N007219999999N9999999N1+02771+02471100891ADDAA103001091MA1999999100781MD1999999+0021REMSYN074    AAXX  17094 61970 26/// /3214 10277 20247 30078 40089 333 58002 60017;
0126619700999992000011712004-17050+042700FM-12+001099999V0203401N006219999999N9999999N1+02941+02561100681ADDAA106001091MA1999999100571MD1999999-0091REMSYN074    AAXX  17124 61970 16/// /3412 10294 20256 30057 40068 60011 333 59009;
0145619700999992000011718004-17050+042700FM-12+001099999V0203601N004119999999N9999999N1+02761+02521100871ADDAA112001091KA1120M+03071MA1999999100761MD1999999-0011REMSYN080    AAXX  17184 61970 16/// /3608 10276 20252 30076 40087 60012 333 10307 59001;
0118619700999992000011721004-17050+042700FM-12+001099999V0203501N005119999999N9999999N1+02741+02481100891ADDAA199000091MD1999999+0071REMSYN062    AAXX  17214 61970 36/// /3510 10274 20248 40089 333 58007;EQDQ01  00002PRCP99
0139619700999992000011800004-17050+042700FM-12+001099999V0200101N004119999999N9999999N1+02711+02471100741ADDAA199000091MA1999999100631MD1999999-0031REMSYN068    AAXX  18004 61970 36/// /0108 10271 20247 30063 40074 333 59003;EQDQ01  00002PRCP99
0139619700999992000011803004-17050+042700FM-12+001099999V0200201N004119999999N9999999N1+02711+02451100841ADDAA199000091MA1999999100731MD1999999+0011REMSYN068    AAXX  18034 61970 36/// /0208 10271 20245 30073 40084 333 58001;EQDQ01  00002PRCP99
0181619700999992000011806004-17050+042700FM-12+001099999V0203201N006219999999N9999999N1+02721+02341101051ADDAA124001091KA1120N+02701MA1999999100941MD1999999+0101OA150699999REMSYN086    AAXX  18064 61970 16/// /3212 10272 20234 30094 40105 60014 333 20270 55000 58010;EQDQ01  00002WGOSPD
0139619700999992000011812004-17050+042700FM-12+001099999V0203401N005119999999N9999999N1+03071+02551100881ADDAA199000091MA1999999100771MD1999999+0051REMSYN068    AAXX  18124 61970 36/// /3410 10307 20255 30077 40088 333 58005;EQDQ01  00002PRCP99
0139619700999992000011815004-17050+042700FM-12+001099999V0203501N004119999999N9999999N1+02901+02501100831ADDAA199000091MA1999999100721MD1999999+0221REMSYN068    AAXX  18154 61970 36/// /3508 10290 20250 30072 40083 333 58022;EQDQ01  00002PRCP99
0158619700999992000011818004-17050+042700FM-12+001099999V0203401N004119999999N9999999N1+02761+02501101131ADDAA199000091KA1120M+03131MA1999999101021MD1999999+0261REMSYN074    AAXX  18184 61970 36/// /3408 10276 20250 30102 40113 333 10313 58026;EQDQ01  00002PRCP99
0139619700999992000011821004-17050+042700FM-12+001099999V0203401N004119999999N9999999N1+02751+02471101141ADDAA199000091MA1999999101031MD1999999+0251REMSYN068    AAXX  18214 61970 36/// /3408 10275 20247 30103 40114 333 58025;EQDQ01  00002PRCP99
0139619700999992000011900004-17050+042700FM-12+001099999V0203301N004119999999N9999999N1+02741+02501101071ADDAA199000091MA1999999100961MD1999999+0331REMSYN068    AAXX  19004 61970 36/// /3308 10274 20250 30096 40107 333 58033;EQDQ01  00002PRCP99
0139619700999992000011903004-17050+042700FM-12+001099999V0203301N006219999999N9999999N1+02761+02461101181ADDAA199000091MA1999999101071MD1999999+0341REMSYN068    AAXX  19034 61970 36/// /3312 10276 20246 30107 40118 333 58034;EQDQ01  00002PRCP99
0191619700999992000011906004-17050+042700FM-12+001099999V0203401N004119999999N9999999N1+02981+02511101311ADDAA199000091KA1120N+02731MA1999999101201MD1999999+0261OA150699999REMSYN080    AAXX  19064 61970 36/// /3408 10298 20251 30120 40131 333 20273 55000 58026;EQDQ01  00002PRCP99Q02  00002WGOSPD
0136619700999992000011915004-17050+042700FM-12+001099999V0203101N003119999999N9999999N1+02921+02501101141ADDAA199000091MD1999999+0311REMSYN064AAXX  19154 61970 36/// /3106 10292 20250 32103 40114 333 58031;EQDQ01+021031APOSP Q02  00002PRCP99
0154619700999992000011918004-17050+042700FM-12+001099999V0200201N001019999999N9999999N1+02721+02461101341ADDAA199000091KA1120M+03171MA1999999101231MD1999999+0211REMSYN070AAXX  19184 61970 36/// /0202 10272 20246 30123 40134 333 10317 58021;EQDQ01  00002PRCP99
0135619700999992000011921004-17050+042700FM-12+001099999V0203601N001019999999N9999999N1+02651+02451101301ADDAA199000091MA1999999101191MD1999999+0161REMSYN064AAXX  19214 61970 36/// /3602 10265 20245 30119 40130 333 58016;EQDQ01  00002PRCP99
0135619700999992000012000004-17050+042700FM-12+001099999V0203601N001019999999N9999999N1+02621+02441101191ADDAA199000091MA1999999101081MD1999999+0121REMSYN064AAXX  20004 61970 36/// /3602 10262 20244 30108 40119 333 58012;EQDQ01  00002PRCP99
0135619700999992000012003004-17050+042700FM-12+001099999V0203101N002119999999N9999999N1+02651+02421101281ADDAA199000091MA1999999101171MD1999999+0101REMSYN064AAXX  20034 61970 36/// /3104 10265 20242 30117 40128 333 58010;EQDQ01  00002PRCP99
0187619700999992000012006004-17050+042700FM-12+001099999V0203501N003119999999N9999999N1+02951+02481101391ADDAA199000091KA1120N+02611MA1999999101281MD1999999+0081OA150699999REMSYN076AAXX  20064 61970 36/// /3506 10295 20248 30128 40139 333 20261 55000 58008;EQDQ01  00002PRCP99Q02  00002WGOSPD
0135619700999992000012009004-17050+042700FM-12+001099999V0202901N004119999999N9999999N1+03081+02471101321ADDAA199000091MA1999999101211MD1999999+0011REMSYN064AAXX  20094 61970 36/// /2908 10308 20247 30121 40132 333 58001;EQDQ01  00002PRCP99
0135619700999992000012015004-17050+042700FM-12+001099999V0202801N003119999999N9999999N1+02981+02511101111ADDAA199000091MA1999999101001MD1999999-0031REMSYN064AAXX  20154 61970 36/// /2806 10298 20251 30100 40111 333 59003;EQDQ01  00002PRCP99
0154619700999992000012018004-17050+042700FM-12+001099999V0202601N004119999999N9999999N1+02811+02511101291ADDAA199000091KA1120M+03171MA1999999101181MD1999999-0051REMSYN070AAXX  20184 61970 36/// /2608 10281 20251 30118 40129 333 10317 59005;EQDQ01  00002PRCP99
0135619700999992000012021004-17050+042700FM-12+001099999V0202301N003119999999N9999999N1+02731+02511101231ADDAA199000091MA1999999101121MD1999999-0071REMSYN064AAXX  20214 61970 36/// /2306 10273 20251 30112 40123 333 59007;EQDQ01  00002PRCP99
0135619700999992000012100004-17050+042700FM-12+001099999V0202601N002119999999N9999999N1+02691+02441101101ADDAA199000091MA1999999100991MD1999999-0091REMSYN064AAXX  21004 61970 36/// /2604 10269 20244 30099 40110 333 59009;EQDQ01  00002PRCP99
0135619700999992000012103004-17050+042700FM-12+001099999V0203101N002119999999N9999999N1+02541+02311101181ADDAA199000091MA1999999101071MD1999999-0101REMSYN064AAXX  21034 61970 36/// /3104 10254 20231 30107 40118 333 59010;EQDQ01  00002PRCP99
0187619700999992000012106004-17050+042700FM-12+001099999V0202901N003119999999N9999999N1+02981+02421101251ADDAA199000091KA1120N+02521MA1999999101141MD1999999-0141OA150699999REMSYN076AAXX  21064 61970 36/// /2906 10298 20242 30114 40125 333 20252 55000 59014;EQDQ01  00002PRCP99Q02  00002WGOSPD
0135619700999992000012112004-17050+042700FM-12+001099999V0203001N007219999999N9999999N1+02971+02461100971ADDAA199000091MA1999999100861MD1999999-0201REMSYN064AAXX  21124 61970 36/// /3014 10297 20246 30086 40097 333 59020;EQDQ01  00002PRCP99
0135619700999992000012115004-17050+042700FM-12+001099999V0202801N008219999999N9999999N1+02821+02481100991ADDAA199000091MA1999999100881MD1999999-0121REMSYN064AAXX  21154 61970 36/// /2816 10282 20248 30088 40099 333 59012;EQDQ01  00002PRCP99
0154619700999992000012118004-17050+042700FM-12+001099999V0202601N004119999999N9999999N1+02751+02371101151ADDAA199000091KA1120M+03101MA1999999101041MD1999999-0141REMSYN070AAXX  21184 61970 36/// /2608 10275 20237 30104 40115 333 10310 59014;EQDQ01  00002PRCP99
0135619700999992000012121004-17050+042700FM-12+001099999V0209999C000019999999N9999999N1+02601+02351101111ADDAA199000091MA1999999101001MD1999999-0121REMSYN064AAXX  21214 61970 36/// /0000 10260 20235 30100 40111 333 59012;EQDQ01  00002PRCP99
0135619700999992000012200004-17050+042700FM-12+001099999V0203101N003119999999N9999999N1+02651+02321101021ADDAA199000091MA1999999100911MD1999999-0081REMSYN064AAXX  22004 61970 36/// /3106 10265 20232 30091 40102 333 59008;EQDQ01  00002PRCP99
0111619700999992000012201004-17050+042700FM-12+001099999V0209999C000019999999N9999999N1+99999+99999101011ADDAA199000091MA1999999100901REMSYN054AAXX  22014 61970 36/// /0000 1//53 20230 30090 40101;EQDQ01  00002PRCP99
0135619700999992000012203004-17050+042700FM-12+001099999V0200401N002119999999N9999999N1+02561+02291101101ADDAA199000091MA1999999100991MD1999999-0081REMSYN064AAXX  22034 61970 36/// /0404 10256 20229 30099 40110 333 59008;EQDQ01  00002PRCP99
0171619700999992000012206004-17050+042700FM-12+001099999V0200201N004119999999N9999999N1+02991+02381101231ADDAA199000091KA1120N+02491MA1999999101121MD1999999-0021OA150600461REMSYN076AAXX  22064 61970 36/// /0208 10299 20238 30112 40123 333 20249 55099 59002;EQDQ01  00002PRCP99
0114619700999992000012209004-17050+042700FM-12+001099999V0203201N006219999999N9999999N1+02911+02441101161ADDAA199000091MD1999999+0011REMSYN058AAXX  22094 61970 36/// /3212 10291 20244 40116 333 58001;EQDQ01  00002PRCP99
0135619700999992000012212004-17050+042700FM-12+001099999V0203301N005119999999N9999999N1+03041+02411101081ADDAA199000091MA1999999100971MD1999999+0111REMSYN064AAXX  22124 61970 36/// /3310 10304 20241 30097 40108 333 58011;EQDQ01  00002PRCP99
0135619700999992000012215004-17050+042700FM-12+001099999V0203101N004119999999N9999999N1+02891+02471101081ADDAA199000091MA1999999100971MD1999999+0091REMSYN064AAXX  22154 61970 36/// /3108 10289 20247 30097 40108 333 58009;EQDQ01  00002PRCP99
0154619700999992000012218004-17050+042700FM-12+001099999V0203301N002119999999N9999999N1+02691+02381101261ADDAA199000091KA1120M+03191MA1999999101151MD1999999+0111REMSYN070AAXX  22184 61970 36/// /3304 10269 20238 30115 40126 333 10319 58011;EQDQ01  00002PRCP99
0135619700999992000012221004-17050+042700FM-12+001099999V0209999C000019999999N9999999N1+02581+02381101241ADDAA199000091MA1999999101131MD1999999+0131REMSYN064AAXX  22214 61970 36/// /0000 10258 20238 30113 40124 333 58013;EQDQ01  00002PRCP99
0135619700999992000012300004-17050+042700FM-12+001099999V0209999C000019999999N9999999N1+02541+02361101151ADDAA199000091MA1999999101041MD1999999+0131REMSYN064AAXX  23004 61970 36/// /0000 10254 20236 30104 40115 333 58013;EQDQ01  00002PRCP99
0135619700999992000012303004-17050+042700FM-12+001099999V0209999C000019999999N9999999N1+02501+02381101191ADDAA199000091MA1999999101081MD1999999+0091REMSYN064AAXX  23034 61970 36/// /0000 10250 20238 30108 40119 333 58009;EQDQ01  00002PRCP99
0171619700999992000012306004-17050+042700FM-12+001099999V0200201N002119999999N9999999N1+02991+02411101271ADDAA199000091KA1120N+02471MA1999999101161MD1999999+0041OA150600511REMSYN076AAXX  23064 61970 36/// /0204 10299 20241 30116 40127 333 20247 55103 58004;EQDQ01  00002PRCP99
0135619700999992000012309004-17050+042700FM-12+001099999V0202901N003119999999N9999999N1+03011+02431101201ADDAA199000091MA1999999101091MD1999999+0041REMSYN064AAXX  23094 61970 36/// /2906 10301 20243 30109 40120 333 58004;EQDQ01  00002PRCP99
0135619700999992000012312004-17050+042700FM-12+001099999V0202801N003119999999N9999999N1+03191+02451101031ADDAA199000091MA1999999100921MD1999999-0051REMSYN064AAXX  23124 61970 36/// /2806 10319 20245 30092 40103 333 59005;EQDQ01  00002PRCP99
0135619700999992000012315004-17050+042700FM-12+001099999V0202501N002119999999N9999999N1+03041+02311101001ADDAA199000091MA1999999100891MD1999999-0081REMSYN064AAXX  23154 61970 36/// /2504 10304 20231 30089 40100 333 59008;EQDQ01  00002PRCP99
0154619700999992000012318004-17050+042700FM-12+001099999V0201701N002119999999N9999999N1+02741+02361101221ADDAA199000091KA1120M+03221MA1999999101111MD1999999-0041REMSYN070AAXX  23184 61970 36/// /1704 10274 20236 30111 40122 333 10322 59004;EQDQ01  00002PRCP99
0135619700999992000012403004-17050+042700FM-12+001099999V0201101N002119999999N9999999N1+02601+02421101201ADDAA199000091MA1999999101091MD1999999+0011REMSYN064AAXX  24034 61970 36/// /1104 10260 20242 30109 40120 333 58001;EQDQ01  00002PRCP99
0171619700999992000012406004-17050+042700FM-12+001099999V0201301N003119999999N9999999N1+03091+02451101231ADDAA199000091KA1120N+02591MA1999999101121MD1999999-0041OA150600571REMSYN076AAXX  24064 61970 36/// /1306 10309 20245 30112 40123 333 20259 55114 59004;EQDQ01  00002PRCP99
0135619700999992000012412004-17050+042700FM-12+001099999V0202001N003119999999N9999999N1+03221+02451101021ADDAA199000091MA1999999100911MD1999999-0011REMSYN064AAXX  24124 61970 36/// /2006 10322 20245 30091 40102 333 59001;EQDQ01  00002PRCP99
0135619700999992000012415004-17050+042700FM-12+001099999V0202101N002119999999N9999999N1+02961+02381101061ADDAA199000091MA1999999100951MD1999999+0061REMSYN064AAXX  24154 61970 36/// /2104 10296 20238 30095 40106 333 58006;EQDQ01  00002PRCP99
0154619700999992000012418004-17050+042700FM-12+001099999V0202001N002119999999N9999999N1+02791+02391101201ADDAA199000091KA1120M+03241MA1999999101091MD1999999-0021REMSYN070AAXX  24184 61970 36/// /2004 10279 20239 30109 40120 333 10324 59002;EQDQ01  00002PRCP99
0135619700999992000012421004-17050+042700FM-12+001099999V0201901N003119999999N9999999N1+02751+02391101221ADDAA199000091MA1999999101111MD1999999-0031REMSYN064AAXX  24214 61970 36/// /1906 10275 20239 30111 40122 333 59003;EQDQ01  00002PRCP99
0135619700999992000012503004-17050+042700FM-12+001099999V0201901N003119999999N9999999N1+02691+02441101211ADDAA199000091MA1999999101101MD1999999+0011REMSYN064AAXX  25034 61970 36/// /1906 10269 20244 30110 40121 333 58001;EQDQ01  00002PRCP99
0135619700999992000012509004-17050+042700FM-12+001099999V0202701N003119999999N9999999N1+03141+02501101221ADDAA199000091MA1999999101111MD1999999+0041REMSYN064AAXX  25094 61970 36/// /2706 10314 20250 30111 40122 333 58004;EQDQ01  00002PRCP99
0135619700999992000012515004-17050+042700FM-12+001099999V0202501N004119999999N9999999N1+03001+02391101051ADDAA199000091MA1999999100941MD1999999-0011REMSYN064AAXX  25154 61970 36/// /2508 10300 20239 30094 40105 333 59001;EQDQ01  00002PRCP99
0154619700999992000012518004-17050+042700FM-12+001099999V0202101N002119999999N9999999N1+02781+02401101161ADDAA199000091KA1120M+03211MA1999999101051MD1999999-0041REMSYN070AAXX  25184 61970 36/// /2104 10278 20240 30105 40116 333 10321 59004;EQDQ01  00002PRCP99
0135619700999992000012521004-17050+042700FM-12+001099999V0201501N001019999999N9999999N1+02721+02451101111ADDAA199000091MA1999999101001MD1999999-0111REMSYN064AAXX  25214 61970 36/// /1502 10272 20245 30100 40111 333 59011;EQDQ01  00002PRCP99
0135619700999992000012600004-17050+042700FM-12+001099999V0201401N001019999999N9999999N1+02621+02391101061ADDAA199000091MA1999999100951MD1999999-0051REMSYN064AAXX  26004 61970 36/// /1402 10262 20239 30095 40106 333 59005;EQDQ01  00002PRCP99
0135619700999992000012603004-17050+042700FM-12+001099999V0201801N002119999999N9999999N1+02671+02451101111ADDAA199000091MA1999999101001MD1999999-0101REMSYN064AAXX  26034 61970 36/// /1804 10267 20245 30100 40111 333 59010;EQDQ01  00002PRCP99
0171619700999992000012606004-17050+042700FM-12+001099999V0200501N003119999999N9999999N1+03031+02421101191ADDAA199000091KA1120N+00591MA1999999101081MD1999999-0111OA150600511REMSYN076AAXX  26064 61970 36/// /0506 10303 20242 30108 40119 333 20059 55101 59011;EQDQ01  00002PRCP99
0135619700999992000012609004-17050+042700FM-12+001099999V0202701N002119999999N9999999N1+03031+02491101081ADDAA199000091MA1999999100971MD1999999-0141REMSYN064AAXX  26094 61970 36/// /2704 10303 20249 30097 40108 333 59014;EQDQ01  00002PRCP99
0135619700999992000012612004-17050+042700FM-12+001099999V0202601N003119999999N9999999N1+03191+02551100891ADDAA199000091MA1999999100781MD1999999-0151REMSYN064AAXX  26124 61970 36/// /2606 10319 20255 30078 40089 333 59015;EQDQ01  00002PRCP99
0135619700999992000012615004-17050+042700FM-12+001099999V0202301N002119999999N9999999N1+03051+02441100821ADDAA199000091MA1999999100711MD1999999-0231REMSYN064AAXX  26154 61970 36/// /2304 10305 20244 30071 40082 333 59023;EQDQ01  00002PRCP99
0154619700999992000012618004-17050+042700FM-12+001099999V0202101N003119999999N9999999N1+02831+02451101021ADDAA199000091KA1120M+03231MA1999999100911MD1999999-0141REMSYN070AAXX  26184 61970 36/// /2106 10283 20245 30091 40102 333 10323 59014;EQDQ01  00002PRCP99
0135619700999992000012621004-17050+042700FM-12+001099999V0202401N001019999999N9999999N1+02721+02391101041ADDAA199000091MA1999999100931MD1999999-0071REMSYN064AAXX  26214 61970 36/// /2402 10272 20239 30093 40104 333 59007;EQDQ01  00002PRCP99
0135619700999992000012700004-17050+042700FM-12+001099999V0201001N001019999999N9999999N1+02641+02411100911ADDAA199000091MA1999999100801MD1999999-0151REMSYN064AAXX  27004 61970 36/// /1002 10264 20241 30080 40091 333 59015;EQDQ01  00002PRCP99
0171619700999992000012706004-17050+042700FM-12+001099999V0200201N002119999999N9999999N1+03011+02431101101ADDAA199000091KA1120N+02611MA1999999100991MD1999999-0091OA150600511REMSYN076AAXX  27064 61970 36/// /0204 10301 20243 30099 40110 333 20261 55102 59009;EQDQ01  00002PRCP99
0135619700999992000012712004-17050+042700FM-12+001099999V0200101N004119999999N9999999N1+03171+02511100821ADDAA199000091MA1999999100711MD1999999-0071REMSYN064AAXX  27124 61970 36/// /0108 10317 20251 30071 40082 333 59007;EQDQ01  00002PRCP99
0135619700999992000012715004-17050+042700FM-12+001099999V0200101N003119999999N9999999N1+02981+02421100771ADDAA199000091MA1999999100661MD1999999-0051REMSYN064AAXX  27154 61970 36/// /0106 10298 20242 30066 40077 333 59005;EQDQ01  00002PRCP99
0154619700999992000012718004-17050+042700FM-12+001099999V0200501N002119999999N9999999N1+02811+02431100911ADDAA199000091KA1120M+03211MA1999999100801MD1999999-0111REMSYN070AAXX  27184 61970 36/// /0504 10281 20243 30080 40091 333 10321 59011;EQDQ01  00002PRCP99
0135619700999992000012721004-17050+042700FM-12+001099999V0200601N002119999999N9999999N1+02731+02401100941ADDAA199000091MA1999999100831MD1999999-0101REMSYN064AAXX  27214 61970 36/// /0604 10273 20240 30083 40094 333 59010;EQDQ01  00002PRCP99
0135619700999992000012800004-17050+042700FM-12+001099999V0200401N002119999999N9999999N1+02741+02421100831ADDAA199000091MA1999999100721MD1999999-0081REMSYN064AAXX  28004 61970 36/// /0404 10274 20242 30072 40083 333 59008;EQDQ01  00002PRCP99
0090619700999992000012801004-17050+042700FM-12+001099999V0200301N002119999999N9999999N1+02741+02401100811ADDAA199000091REMSYN048AAXX  28014 61970 36/// /0304 10274 20240 40081;EQDQ01  00002PRCP99
0135619700999992000012803004-17050+042700FM-12+001099999V0200201N002119999999N9999999N1+02751+02411100901ADDAA199000091MA1999999100791MD1999999-0051REMSYN064AAXX  28034 61970 36/// /0204 10275 20241 30079 40090 333 59005;EQDQ01  00002PRCP99
0171619700999992000012806004-17050+042700FM-12+001099999V0200201N003119999999N9999999N1+03061+02451100971ADDAA199000091KA1120N+02681MA1999999100861MD1999999-0131OA150600571REMSYN076AAXX  28064 61970 36/// /0206 10306 20245 30086 40097 333 20268 55111 59013;EQDQ01  00002PRCP99
0135619700999992000012812004-17050+042700FM-12+001099999V0200101N003119999999N9999999N1+03231+02511100691ADDAA199000091MA1999999100581MD1999999-0131REMSYN064AAXX  28124 61970 36/// /0106 10323 20251 30058 40069 333 59013;EQDQ01  00002PRCP99
0135619700999992000012815004-17050+042700FM-12+001099999V0200201N003119999999N9999999N1+03021+02501100611ADDAA199000091MA1999999100501MD1999999-0161REMSYN064AAXX  28154 61970 36/// /0206 10302 20250 30050 40061 333 59016;EQDQ01  00002PRCP99
0154619700999992000012818004-17050+042700FM-12+001099999V0200301N004119999999N9999999N1+02881+02541100771ADDAA199000091KA1120M+03261MA1999999100661MD1999999-0141REMSYN070AAXX  28184 61970 36/// /0308 10288 20254 30066 40077 333 10326 59014;EQDQ01  00002PRCP99
0135619700999992000012821004-17050+042700FM-12+001099999V0200201N003119999999N9999999N1+02831+02571100791ADDAA199000091MA1999999100781MD1999999-0151REMSYN064AAXX  28214 61970 36/// /0206 10283 20257 30078 40079 333 59015;EQDQ01  00002PRCP99
0135619700999992000012900004-17050+042700FM-12+001099999V0203601N003119999999N9999999N1+02791+02491100741ADDAA199000091MA1999999100631MD1999999-0091REMSYN064AAXX  29004 61970 36/// /3606 10279 20249 30063 40074 333 59009;EQDQ01  00002PRCP99
0135619700999992000012903004-17050+042700FM-12+001099999V0203501N003119999999N9999999N1+02801+02521100801ADDAA199000091MA1999999100691MD1999999-0101REMSYN064AAXX  29034 61970 36/// /3506 10280 20252 30069 40080 333 59010;EQDQ01  00002PRCP99
0135619700999992000012909004-17050+042700FM-12+001099999V0200101N004119999999N9999999N1+03221+02601100791ADDAA199000091MA1999999100681MD1999999+0011REMSYN064AAXX  29094 61970 36/// /0108 10322 20260 30068 40079 333 58001;EQDQ01  00002PRCP99
0135619700999992000012912004-17050+042700FM-12+001099999V0203601N004119999999N9999999N1+03201+02581100621ADDAA199000091MA1999999100511MD1999999-0071REMSYN064AAXX  29124 61970 36/// /3608 10320 20258 30051 40062 333 59007;EQDQ01  00002PRCP99
0135619700999992000012915004-17050+042700FM-12+001099999V0200101N003119999999N9999999N1+03021+02571100601ADDAA199000091MA1999999100491MD1999999-0011REMSYN064AAXX  29154 61970 36/// /0106 10302 20257 30049 40060 333 59001;EQDQ01  00002PRCP99
0154619700999992000012918004-17050+042700FM-12+001099999V0203601N003119999999N9999999N1+02891+02551100811ADDAA199000091KA1120M+03311MA1999999100701MD1999999+0041REMSYN070AAXX  29184 61970 36/// /3606 10289 20255 30070 40081 333 10331 58004;EQDQ01  00002PRCP99
0168619700999992000012919004-17050+042700FM-12+001099999V0203501N003119999999N9999999N1+02881+02581999999ADDAA199000091MA1999999100801REMSYN111AAXX  29194 61970 36/// /3506 10288 20258 3008/ 555 OX LFMEE 291.M AAXBWO QOR QQMINO XXVPHV QPQBMP NV BKMEJT M;EQDQ01  00002PRCP99
0135619700999992000012921004-17050+042700FM-12+001099999V0203301N005119999999N9999999N1+02881+02581100911ADDAA199000091MA1999999100801MD1999999+0121REMSYN064AAXX  29214 61970 36/// /3310 10288 20258 30080 40091 333 58012;EQDQ01  00002PRCP99
0135619700999992000013000004-17050+042700FM-12+001099999V0203501N003119999999N9999999N1+02831+02551100741ADDAA199000091MA1999999100631MD1999999+0001REMSYN064AAXX  30004 61970 36/// /3506 10283 20255 30063 40074 333 58000;EQDQ01  00002PRCP99
0135619700999992000013003004-17050+042700FM-12+001099999V0203401N004119999999N9999999N1+02811+02531100801ADDAA199000091MA1999999100691MD1999999+0001REMSYN064AAXX  30034 61970 36/// /3408 10281 20253 30069 40080 333 58000;EQDQ01  00002PRCP99
0171619700999992000013006004-17050+042700FM-12+001099999V0203501N005119999999N9999999N1+03091+02571100871ADDAA199000091KA1120N+02791MA1999999100761MD1999999-0041OA150600571REMSYN076AAXX  30064 61970 36/// /3510 10309 20257 30076 40087 333 20279 55113 59004;EQDQ01  00002PRCP99
0135619700999992000013009004-17050+042700FM-12+001099999V0203501N005119999999N9999999N1+03301+02651100881ADDAA199000091MA1999999100771MD1999999+0091REMSYN064AAXX  30094 61970 36/// /3510 10330 20265 30077 40088 333 58009;EQDQ01  00002PRCP99
0135619700999992000013012004-17050+042700FM-12+001099999V0203301N007219999999N9999999N1+03251+02681100721ADDAA199000091MA1999999100611MD1999999+0101REMSYN064AAXX  30124 61970 36/// /3314 10325 20268 30061 40072 333 58010;EQDQ01  00002PRCP99
0135619700999992000013015004-17050+042700FM-12+001099999V0203401N004119999999N9999999N1+03001+02591100701ADDAA199000091MA1999999100591MD1999999+0101REMSYN064AAXX  30154 61970 36/// /3408 10300 20259 30059 40070 333 58010;EQDQ01  00002PRCP99
0154619700999992000013018004-17050+042700FM-12+001099999V0203401N006219999999N9999999N1+02891+02591100971ADDAA199000091KA1120M+03311MA1999999100861MD1999999+0161REMSYN070AAXX  30184 61970 36/// /3412 10289 20259 30086 40097 333 10331 58016;EQDQ01  00002PRCP99
0135619700999992000013100004-17050+042700FM-12+001099999V0203201N006219999999N9999999N1+02711+02401100871ADDAA199000091MA1999999100761MD1999999+0131REMSYN064AAXX  31004 61970 36/// /3212 10271 20240 30076 40087 333 58013;EQDQ01  00002PRCP99
0135619700999992000013103004-17050+042700FM-12+001099999V0203301N006219999999N9999999N1+02771+02491101011ADDAA199000091MA1999999100901MD1999999+0211REMSYN064AAXX  31034 61970 36/// /3312 10277 20249 30090 40101 333 58021;EQDQ01  00002PRCP99
0187619700999992000013106004-17050+042700FM-12+001099999V0203201N007219999999N9999999N1+02951+02501101151ADDAA199000091KA1120N+02651MA1999999101041MD1999999+0281OA150699999REMSYN076AAXX  31064 61970 36/// /3214 10295 20250 30104 40115 333 20265 55108 58028;EQDQ01  00002PRCP99Q02  00512WGOSPD
0135619700999992000013112004-17050+042700FM-12+001099999V0203301N007219999999N9999999N1+03091+02501101021ADDAA199000091MA1999999100911MD1999999+0301REMSYN064AAXX  31124 61970 36/// /3314 10309 20250 30091 40102 333 58030;EQDQ01  00002PRCP99
0122619700999992000013115004-17050+042700FM-12+001099999V0203401N007219999999N9999999N1+02831+02571101021ADDAA103001091MA1999999100911MD1999999+0321REMSYN070AAXX  31154 61970 26/// /3414 10283 20257 30091 40102 333 58032 60017;
0141619700999992000013118004-17050+042700FM-12+001099999V0203501N006219999999N9999999N1+02791+02551101141ADDAA112002091KA1120M+03251MA1999999101031MD1999999+0171REMSYN076AAXX  31184 61970 16/// /3512 10279 20255 30103 40114 60022 333 10325 58017;
0135619700999992000013121004-17050+042700FM-12+001099999V0203501N005119999999N9999999N1+02841+02541101131ADDAA199000091MA1999999101021MD1999999+0171REMSYN064AAXX  31214 61970 36/// /3510 10284 20254 30102 40113 333 58017;EQDQ01  00002PRCP99
0135619700999992000020100004-17050+042700FM-12+001099999V0203501N006219999999N9999999N1+02831+02531100971ADDAA199000091MA1999999100861MD1999999+0101REMSYN064AAXX  01004 61970 36/// /3512 10283 20253 30086 40097 333 58010;EQDQ01  00002PRCP99
0135619700999992000020103004-17050+042700FM-12+001099999V0203401N007219999999N9999999N1+02811+02491101041ADDAA199000091MA1999999100931MD1999999+0031REMSYN064AAXX  01034 61970 36/// /3414 10281 20249 30093 40104 333 58003;EQDQ01  00002PRCP99
0177619700999992000020106004-17050+042700FM-12+001099999V0203401N008219999999N9999999N1+02921+02541101151ADDAA124002091KA1120N+02761MA1999999101041MD1999999+0001OA150699999REMSYN082AAXX  01064 61970 16/// /3416 10292 20254 30104 40115 60024 333 20276 55082 58000;EQDQ01  00412WGOSPD
0122619700999992000020109004-17050+042700FM-12+001099999V0203501N004119999999N9999999N1+02681+02541101141ADDAA103005191MA1999999101031MD1999999+0001REMSYN070AAXX  01094 61970 26/// /3508 10268 20254 30103 40114 333 58000 60057;
0140619700999992000020112004-17050+042700FM-12+001099999V0203301N005119999999N9999999N1+02691+02581100981ADDAA106006191KA1999M+99999MA1999999100851REMSYN070AAXX  01124 61970 16/// /3310 10269 20258 30085 40098 60061 333 19004;EQDQ01 +00042ATMX  
0122619700999992000020115004-17050+042700FM-12+001099999V0200301N004119999999N9999999N1+02611+02491101051ADDAA103002091MA1999999100941MD1999999+0031REMSYN070AAXX  01154 61970 26/// /0308 10261 20249 30094 40105 333 58003 60027;
0073619700999992000020116004-17050+042700FM-12+001099999V0200401N001019999999N9999999N1+99999+99999999999REMSYN064AAXX  01164 61970 26/// /0402 1029= 20247 30093 40104 333 69985;
0115619700999992000020118004-17050+042700FM-12+001099999V0200201N004119999999N9999999N1+02711+02551999999ADDKA1120M+03001MA1999999101051REMSYN075AAXX  01184 61970 16/// /0208 10271 20255 30105 4016 60092 333 10300 58002;
0135619700999992000020121004-17050+042700FM-12+001099999V0203501N004119999999N9999999N1+02781+02501101201ADDAA199000091MA1999999101091MD1999999+0071REMSYN064AAXX  01214 61970 36/// /3508 10278 20250 30109 40120 333 58007;EQDQ01  00002PRCP99
0135619700999992000020200004-17050+042700FM-12+001099999V0203501N005119999999N9999999N1+02781+02461101021ADDAA199000091MA1999999100911MD1999999+0051REMSYN064AAXX  02004 61970 36/// /3510 10278 20246 30091 40102 333 58005;EQDQ01  00002PRCP99
0135619700999992000020203004-17050+042700FM-12+001099999V0203401N005119999999N9999999N1+02801+02521101111ADDAA199000091MA1999999101001MD1999999+0071REMSYN064AAXX  02034 61970 36/// /3410 10280 20252 30100 40111 333 58007;EQDQ01  00002PRCP99
0177619700999992000020206004-17050+042700FM-12+001099999V0203601N003119999999N9999999N1+02891+02571101151ADDAA124008991KA1120N+02691MA1999999101041MD1999999+0001OA150699999REMSYN082AAXX  02064 61970 16/// /3606 10289 20257 30104 40115 60094 333 20269 55000 58000;EQDQ01  00002WGOSPD
0135619700999992000020212004-17050+042700FM-12+001099999V0203301N006219999999N9999999N1+03091+02551100881ADDAA199000091MA1999999100771MD1999999-0101REMSYN064AAXX  02124 61970 36/// /3312 10309 20255 30077 40088 333 59010;EQDQ01  00002PRCP99
0122619700999992000020215004-17050+042700FM-12+001099999V0203301N005119999999N9999999N1+02961+02581100881ADDAA103000191MA1999999100771MD1999999-0171REMSYN070AAXX  02154 61970 26/// /3310 10296 20258 30077 40088 333 59017 69927;
0141619700999992000020218004-17050+042700FM-12+001099999V0203401N003119999999N9999999N1+02821+02561101141ADDAA112000191KA1120M+03211MA1999999101031MD1999999-0021REMSYN076AAXX  02184 61970 16/// /3406 10282 20256 30103 40114 69922 333 10321 59002;
0135619700999992000020221004-17050+042700FM-12+001099999V0203401N003119999999N9999999N1+02791+02571101151ADDAA199000091MA1999999101041MD1999999-0051REMSYN064AAXX  02214 61970 36/// /3406 10279 20257 30104 40115 333 59005;EQDQ01  00002PRCP99
0135619700999992000020300004-17050+042700FM-12+001099999V0203301N004119999999N9999999N1+02771+02531100911ADDAA199000091MA1999999100801MD1999999-0111REMSYN064AAXX  03004 61970 36/// /3308 10277 20253 30080 40091 333 59011;EQDQ01  00002PRCP99
0177619700999992000020306004-17050+042700FM-12+001099999V0200701N003119999999N9999999N1+02881+02561101191ADDAA124000591KA1120N+02671MA1999999101081MD1999999+0041OA150699999REMSYN082AAXX  03064 61970 16/// /0706 10288 20256 30108 40119 69944 333 20267 55000 58004;EQDQ01  00002WGOSPD
0135619700999992000020309004-17050+042700FM-12+001099999V0203501N004119999999N9999999N1+02731+02471101151ADDAA199000091MA1999999101041MD1999999+0081REMSYN064AAXX  03094 61970 36/// /3508 10273 20247 30104 40115 333 58008;EQDQ01  00002PRCP99
0135619700999992000020312004-17050+042700FM-12+001099999V0203401N005119999999N9999999N1+02931+02371100911ADDAA199000091MA1999999100801MD1999999+0031REMSYN064AAXX  03124 61970 36/// /3410 10293 20237 30080 40091 333 58003;EQDQ01  00002PRCP99
0154619700999992000020318004-17050+042700FM-12+001099999V0200101N003119999999N9999999N1+02771+02551101171ADDAA199000091KA1120M+02981MA1999999101061MD1999999+0031REMSYN070AAXX  03184 61970 36/// /0106 10277 20255 30106 40117 333 10298 58003;EQDQ01  00002PRCP99
0135619700999992000020321004-17050+042700FM-12+001099999V0200601N001019999999N9999999N1+02681+02521101081ADDAA199000091MA1999999100971MD1999999-0071REMSYN064AAXX  03214 61970 36/// /0602 10268 20252 30097 40108 333 59007;EQDQ01  00002PRCP99
0135619700999992000020400004-17050+042700FM-12+001099999V0200701N002119999999N9999999N1+02741+02501101051ADDAA199000091MA1999999100941MD1999999+0141REMSYN064AAXX  04004 61970 36/// /0704 10274 20250 30094 40105 333 58014;EQDQ01  00002PRCP99
0135619700999992000020403004-17050+042700FM-12+001099999V0200201N002119999999N9999999N1+02671+02381101101ADDAA199000091MA1999999100991MD1999999+0121REMSYN064AAXX  04034 61970 36/// /0204 10267 20238 30099 40110 333 58012;EQDQ01  00002PRCP99
0177619700999992000020406004-17050+042700FM-12+001099999V0200401N004119999999N9999999N1+02631+02431101251ADDAA124002091KA1120N+02501MA1999999101141MD1999999+0061OA150699999REMSYN082AAXX  04064 61970 ///// /0408 10263 20243 30114 40125 60024 333 20250 55000 58006;EQDQ01  00002WGOSPD
0135619700999992000020409004-17050+042700FM-12+001099999V0200201N004119999999N9999999N1+02901+02561101221ADDAA199000091MA1999999101111MD1999999+0071REMSYN064AAXX  04094 61970 36/// /0208 10290 20256 30111 40122 333 58007;EQDQ01  00002PRCP99
0135619700999992000020412004-17050+042700FM-12+001099999V0203501N006219999999N9999999N1+02651+02381101141ADDAA199000091MA1999999101031MD1999999+0231REMSYN064AAXX  04124 61970 36/// /3512 10265 20238 30103 40114 333 58023;EQDQ01  00002PRCP99
0141619700999992000020418004-17050+042700FM-12+001099999V0200301N005119999999N9999999N1+02691+02381101251ADDAA112008991KA1120M+03061MA1999999101141MD1999999+0081REMSYN076AAXX  04184 61970 16/// /0310 10269 20238 30114 40125 60092 333 10306 58008;
0135619700999992000020421004-17050+042700FM-12+001099999V0200101N003119999999N9999999N1+02671+02471101311ADDAA199000091MA1999999101201MD1999999+0231REMSYN064AAXX  04214 61970 36/// /0106 10267 20247 30120 40131 333 58023;EQDQ01  00002PRCP99
0135619700999992000020500004-17050+042700FM-12+001099999V0200401N003119999999N9999999N1+02671+02451101111ADDAA199000091MA1999999101001MD1999999+0061REMSYN064AAXX  05004 61970 36/// /0406 10267 20245 30100 40111 333 58006;EQDQ01  00002PRCP99
0135619700999992000020503004-17050+042700FM-12+001099999V0200501N004119999999N9999999N1+02721+02411101231ADDAA199000091MA1999999101121MD1999999+0131REMSYN064AAXX  05034 61970 36/// /0508 10272 20241 30112 40123 333 58013;EQDQ01  00002PRCP99
0135619700999992000020509004-17050+042700FM-12+001099999V0200301N004119999999N9999999N1+03091+02571101291ADDAA199000091MA1999999101181MD1999999+0071REMSYN064AAXX  05094 61970 36/// /0308 10309 20257 30118 40129 333 58007;EQDQ01  00002PRCP99
0135619700999992000020515004-17050+042700FM-12+001099999V0200401N004119999999N9999999N1+02891+02401101091ADDAA199000091MA1999999100981MD1999999-0041REMSYN064AAXX  05154 61970 36/// /0408 10289 20240 30098 40109 333 59004;EQDQ01  00002PRCP99
0154619700999992000020518004-17050+042700FM-12+001099999V0200201N004119999999N9999999N1+02781+02441101311ADDAA199000091KA1120M+03111MA1999999101201MD1999999+0061REMSYN070AAXX  05184 61970 36/// /0208 10278 20244 30120 40131 333 10311 58006;EQDQ01  00002PRCP99
0135619700999992000020600004-17050+042700FM-12+001099999V0203301N001019999999N9999999N1+02621+02441101231ADDAA199000091MA1999999101121MD1999999+0121REMSYN064AAXX  06004 61970 36/// /3302 10262 20244 30112 40123 333 58012;EQDQ01  00002PRCP99
0187619700999992000020606004-17050+042700FM-12+001099999V0201201N003119999999N9999999N1+03031+02511101491ADDAA199000091KA1120N+02531MA1999999101381MD1999999+0151OA150699999REMSYN076AAXX  06064 61970 36/// /1206 10303 20251 30138 40149 333 20253 55000 58015;EQDQ01  00002PRCP99Q02  00002WGOSPD
0135619700999992000020612004-17050+042700FM-12+001099999V0200601N002119999999N9999999N1+03021+02481101221ADDAA199000091MA1999999101111MD1999999+0041REMSYN064AAXX  06124 61970 36/// /0604 10302 20248 30111 40122 333 58004;EQDQ01  00002PRCP99
0135619700999992000020615004-17050+042700FM-12+001099999V0201501N003119999999N9999999N1+03011+02401101201ADDAA199000091MA1999999101091MD1999999+0111REMSYN064AAXX  06154 61970 36/// /1506 10301 20240 30109 40120 333 58011;EQDQ01  00002PRCP99
0154619700999992000020618004-17050+042700FM-12+001099999V0209999C000019999999N9999999N1+02691+02451101311ADDAA199000091KA1120M+03221MA1999999101201MD1999999+0001REMSYN070AAXX  06184 61970 36/// /0000 10269 20245 30120 40131 333 10322 58000;EQDQ01  00002PRCP99
0135619700999992000020621004-17050+042700FM-12+001099999V0209999C000019999999N9999999N1+02671+02451101381ADDAA199000091MA1999999101271MD1999999+0091REMSYN064AAXX  06214 61970 36/// /0000 10267 20245 30127 40138 333 58009;EQDQ01  00002PRCP99
0135619700999992000020700004-17050+042700FM-12+001099999V0202101N003119999999N9999999N1+02741+02501101241ADDAA199000091MA1999999101131MD1999999+0011REMSYN064AAXX  07004 61970 36/// /2106 10274 20250 30113 40124 333 58001;EQDQ01  00002PRCP99
0135619700999992000020703004-17050+042700FM-12+001099999V0201901N002119999999N9999999N1+02651+02531101311ADDAA199000091MA1999999101201MD1999999-0051REMSYN064AAXX  07034 61970 36/// /1904 10265 20253 30120 40131 333 59005;EQDQ01  00002PRCP99
0187619700999992000020706004-17050+042700FM-12+001099999V0201701N004119999999N9999999N1+02911+02571101361ADDAA199000091KA1120N+02621MA1999999101251MD1999999-0131OA150699999REMSYN076AAXX  07064 61970 36/// /1708 10291 20257 30125 40136 333 20262 55000 59013;EQDQ01  00002PRCP99Q02  00002WGOSPD
0135619700999992000020709004-17050+042700FM-12+001099999V0201401N004119999999N9999999N1+02951+02321101261ADDAA199000091MA1999999101151MD1999999-0101REMSYN064AAXX  07094 61970 36/// /1408 10295 20232 30115 40126 333 59010;EQDQ01  00002PRCP99
0135619700999992000020712004-17050+042700FM-12+001099999V0202001N004119999999N9999999N1+03071+02461101071ADDAA199000091MA1999999100961MD1999999-0151REMSYN064AAXX  07124 61970 36/// /2008 10307 20246 30096 40107 333 59015;EQDQ01  00002PRCP99
0135619700999992000020715004-17050+042700FM-12+001099999V0201801N003119999999N9999999N1+02961+02451101031ADDAA199000091MA1999999100921MD1999999-0171REMSYN064AAXX  07154 61970 36/// /1806 10296 20245 30092 40103 333 59017;EQDQ01  00002PRCP99
0154619700999992000020718004-17050+042700FM-12+001099999V0201701N002119999999N9999999N1+02811+02491101111ADDAA199000091KA1120M+03231MA1999999101001MD1999999-0201REMSYN070AAXX  07184 61970 36/// /1704 10281 20249 30100 40111 333 10323 59020;EQDQ01  00002PRCP99
0135619700999992000020721004-17050+042700FM-12+001099999V0201901N003119999999N9999999N1+02781+02541101141ADDAA199000091MA1999999101031MD1999999-0241REMSYN064AAXX  07214 61970 36/// /1906 10278 20254 30103 40114 333 59024;EQDQ01  00002PRCP99
0135619700999992000020800004-17050+042700FM-12+001099999V0201501N003119999999N9999999N1+02811+02651101061ADDAA199000091MA1999999100951MD1999999-0181REMSYN064AAXX  08004 61970 36/// /1506 10281 20265 30095 40106 333 59018;EQDQ01  00002PRCP99
0135619700999992000020803004-17050+042700FM-12+001099999V0200501N001019999999N9999999N1+02581+02381101071ADDAA199000091MA1999999100961MD1999999-0241REMSYN064AAXX  08034 61970 36/// /0502 10258 20238 30096 40107 333 59024;EQDQ01  00002PRCP99
0187619700999992000020806004-17050+042700FM-12+001099999V0200401N003119999999N9999999N1+02911+02491101081ADDAA199000091KA1120N+02581MA1999999100971MD1999999-0281OA150699999REMSYN076AAXX  08064 61970 36/// /0406 10291 20249 30097 40108 333 20258 55000 59028;EQDQ01  00002PRCP99Q02  00002WGOSPD
0135619700999992000020809004-17050+042700FM-12+001099999V0203401N002119999999N9999999N1+03201+02241101051ADDAA199000091MA1999999100941MD1999999-0211REMSYN064AAXX  08094 61970 36/// /3404 10320 20224 30094 40105 333 59021;EQDQ01  00002PRCP99
0135619700999992000020812004-17050+042700FM-12+001099999V0200201N002119999999N9999999N1+03201+02371100951ADDAA199000091MA1999999100841MD1999999-0121REMSYN064AAXX  08124 61970 36/// /0204 10320 20237 30084 40095 333 59012;EQDQ01  00002PRCP99
0135619700999992000020815004-17050+042700FM-12+001099999V0203501N002119999999N9999999N1+03061+02381100901ADDAA199000091MA1999999100791MD1999999-0131REMSYN064AAXX  08154 61970 36/// /3504 10306 20238 30079 40090 333 59013;EQDQ01  00002PRCP99
0135619700999992000020821004-17050+042700FM-12+001099999V0203301N001019999999N9999999N1+02661+02331101031ADDAA199000091MA1999999100921MD1999999-0111REMSYN064AAXX  08214 61970 36/// /3302 10266 20233 30092 40103 333 59011;EQDQ01  00002PRCP99
0135619700999992000020900004-17050+042700FM-12+001099999V0209999C000019999999N9999999N1+02581+02351100951ADDAA199000091MA1999999100841MD1999999-0111REMSYN064AAXX  09004 61970 36/// /0000 10258 20235 30084 40095 333 59011;EQDQ01  00002PRCP99
0135619700999992000020903004-17050+042700FM-12+001099999V0209999C000019999999N9999999N1+02551+02301101051ADDAA199000091MA1999999100941MD1999999-0021REMSYN064AAXX  09034 61970 36/// /0000 10255 20230 30094 40105 333 59002;EQDQ01  00002PRCP99
0187619700999992000020906004-17050+042700FM-12+001099999V0200601N005119999999N9999999N1+02831+02531101211ADDAA199000091KA1120N+02551MA1999999101101MD1999999+0131OA150699999REMSYN076AAXX  09064 61970 36/// /0610 10283 20253 30110 40121 333 20255 55000 58013;EQDQ01  00002PRCP99Q02  00002WGOSPD
0135619700999992000020915004-17050+042700FM-12+001099999V0200301N001019999999N9999999N1+02851+02431100861ADDAA199000091MA1999999100751MD1999999-0041REMSYN064AAXX  09154 61970 36/// /0302 10285 20243 30075 40086 333 59004;EQDQ01  00002PRCP99
0154619700999992000020918004-17050+042700FM-12+001099999V0200501N001019999999N9999999N1+02651+02421101081ADDAA199000091KA1120M+02951MA1999999100971MD1999999+0001REMSYN070AAXX  09184 61970 36/// /0502 10265 20242 30097 40108 333 10295 58000;EQDQ01  00002PRCP99
0135619700999992000020921004-17050+042700FM-12+001099999V0203501N002119999999N9999999N1+02651+02381101041ADDAA199000091MA1999999100931MD1999999+0011REMSYN064AAXX  09214 61970 36/// /3504 10265 20238 30093 40104 333 58001;EQDQ01  00002PRCP99
0135619700999992000021000004-17050+042700FM-12+001099999V0209999C000019999999N9999999N1+02551+02371100991ADDAA199000091MA1999999100881MD1999999+0041REMSYN064AAXX  10004 61970 36/// /0000 10255 20237 30088 40099 333 58004;EQDQ01  00002PRCP99
0135619700999992000021003004-17050+042700FM-12+001099999V0209999C000019999999N9999999N1+02551+02371101081ADDAA199000091MA1999999100971MD1999999+0031REMSYN064AAXX  10034 61970 36/// /0000 10255 20237 30097 40108 333 58003;EQDQ01  00002PRCP99
0187619700999992000021006004-17050+042700FM-12+001099999V0203001N002119999999N9999999N1+02941+02431101201ADDAA199000091KA1120N+02521MA1999999101091MD1999999-0011OA150699999REMSYN076AAXX  10064 61970 36/// /3004 10294 20243 30109 40120 333 20252 55000 59001;EQDQ01  00002PRCP99Q02  00002WGOSPD
0135619700999992000021012004-17050+042700FM-12+001099999V0203301N004119999999N9999999N1+03131+02391100921ADDAA199000091MA1999999100811MD1999999+0011REMSYN064AAXX  10124 61970 36/// /3308 10313 20239 30081 40092 333 58001;EQDQ01  00002PRCP99
0120619700999992000021015004-17050+042700FM-12+001099999V0203101N002119999999N9999999N1+02961+02351999999ADDAA199000091MA1999999100801REMSYN063AAXX  10154 61970 36/// /3104 10296 20235 30080 4091 333 58005;EQDQ01  00002PRCP99
0135619700999992000021021004-17050+042700FM-12+001099999V0209999C000019999999N9999999N1+02651+02361101181ADDAA199000091MA1999999101071MD1999999+0141REMSYN064AAXX  10214 61970 36/// /0000 10265 20236 30107 40118 333 58014;EQDQ01  00002PRCP99
0135619700999992000021100004-17050+042700FM-12+001099999V0203501N001019999999N9999999N1+02631+02381101061ADDAA199000091MA1999999100951MD1999999+0071REMSYN064AAXX  11004 61970 36/// /3502 10263 20238 30095 40106 333 58007;EQDQ01  00002PRCP99
0135619700999992000021103004-17050+042700FM-12+001099999V0209999C000019999999N9999999N1+02581+02421101071ADDAA199000091MA1999999100961MD1999999-0011REMSYN064AAXX  11034 61970 36/// /0000 10258 20242 30096 40107 333 59001;EQDQ01  00002PRCP99
0187619700999992000021106004-17050+042700FM-12+001099999V0200201N003119999999N9999999N1+03031+02511101201ADDAA199000091KA1120N+02531MA1999999101091MD1999999+0001OA150699999REMSYN076AAXX  11064 61970 36/// /0206 10303 20251 30109 40120 333 20253 55000 58000;EQDQ01  00002PRCP99Q02  00002WGOSPD
0135619700999992000021115004-17050+042700FM-12+001099999V0203601N003119999999N9999999N1+02941+02491100911ADDAA199000091MA1999999100801MD1999999+0001REMSYN064AAXX  11154 61970 36/// /3606 10294 20249 30080 40091 333 58000;EQDQ01  00002PRCP99
0154619700999992000021118004-17050+042700FM-12+001099999V0203401N003119999999N9999999N1+02831+02411101111ADDAA199000091KA1120M+03231MA1999999101001MD1999999-0081REMSYN070AAXX  11184 61970 36/// /3406 10283 20241 30100 40111 333 10323 59008;EQDQ01  00002PRCP99
0135619700999992000021121004-17050+042700FM-12+001099999V0203401N004119999999N9999999N1+02831+02321101151ADDAA199000091MA1999999101041MD1999999-0031REMSYN064AAXX  11214 61970 36/// /3408 10283 20232 30104 40115 333 59003;EQDQ01  00002PRCP99
0135619700999992000021203004-17050+042700FM-12+001099999V0203501N003119999999N9999999N1+02791+02471101071ADDAA199000091MA1999999100961MD1999999+0001REMSYN064AAXX  12034 61970 36/// /3506 10279 20247 30096 40107 333 58000;EQDQ01  00002PRCP99
0187619700999992000021206004-17050+042700FM-12+001099999V0200401N002119999999N9999999N1+02861+02511101191ADDAA199000091KA1120N+02761MA1999999101081MD1999999-0011OA150699999REMSYN076AAXX  12064 61970 36/// /0404 10286 20251 30108 40119 333 20276 55000 59001;EQDQ01  00002PRCP99Q02  00002WGOSPD
0114619700999992000021209004-17050+042700FM-12+001099999V0203401N005119999999N9999999N1+03051+02441101151ADDAA199000091MD1999999-0021REMSYN058AAXX  12094 61970 36/// /3410 10305 20244 40115 333 59002;EQDQ01  00002PRCP99
0135619700999992000021212004-17050+042700FM-12+001099999V0203301N004119999999N9999999N1+03101+02511100981ADDAA199000091MA1999999100871MD1999999+0001REMSYN064AAXX  12124 61970 36/// /3308 10310 20251 30087 40098 333 58000;EQDQ01  00002PRCP99
0135619700999992000021215004-17050+042700FM-12+001099999V0203601N002119999999N9999999N1+02961+02471100961ADDAA199000091MA1999999100851MD1999999+0051REMSYN064AAXX  12154 61970 36/// /3604 10296 20247 30085 40096 333 58005;EQDQ01  00002PRCP99
0154619700999992000021218004-17050+042700FM-12+001099999V0200301N002119999999N9999999N1+02771+02451101131ADDAA199000091KA1120M+03221MA1999999101021MD1999999+0021REMSYN070AAXX  12184 61970 36/// /0304 10277 20245 30102 40113 333 10322 58002;EQDQ01  00002PRCP99
0135619700999992000021221004-17050+042700FM-12+001099999V0200501N001019999999N9999999N1+02711+02471101071ADDAA199000091MA1999999100961MD1999999-0081REMSYN064AAXX  12214 61970 36/// /0502 10271 20247 30096 40107 333 59008;EQDQ01  00002PRCP99
0135619700999992000021300004-17050+042700FM-12+001099999V0200301N001019999999N9999999N1+02741+02461100971ADDAA199000091MA1999999100861MD1999999-0041REMSYN064AAXX  13004 61970 36/// /0302 10274 20246 30086 40097 333 59004;EQDQ01  00002PRCP99
0135619700999992000021303004-17050+042700FM-12+001099999V0209999C000019999999N9999999N1+02691+02471101041ADDAA199000091MA1999999100931MD1999999-0031REMSYN064AAXX  13034 61970 36/// /0000 10269 20247 30093 40104 333 59003;EQDQ01  00002PRCP99
0135619700999992000021309004-17050+042700FM-12+001099999V0200401N003119999999N9999999N1+03561+02521101041ADDAA199000091MA1999999100931MD1999999-0111REMSYN064AAXX  13094 61970 36/// /0406 10356 20252 30093 40104 333 59011;EQDQ01  00002PRCP99
0135619700999992000021312004-17050+042700FM-12+001099999V0200601N003119999999N9999999N1+03031+02421100961ADDAA199000091MA1999999100811MD1999999-0061REMSYN064AAXX  13124 61970 36/// /0606 10303 20242 30081 40096 333 59006;EQDQ01  00002PRCP99
0135619700999992000021315004-17050+042700FM-12+001099999V0200401N001019999999N9999999N1+02941+02451100921ADDAA199000091MA1999999100811MD1999999-0041REMSYN064AAXX  13154 61970 36/// /0402 10294 20245 30081 40092 333 59004;EQDQ01  00002PRCP99
0154619700999992000021318004-17050+042700FM-12+001099999V0209999C000019999999N9999999N1+02691+02421101061ADDAA199000091KA1120M+03191MA1999999100951MD1999999-0071REMSYN070AAXX  13184 61970 36/// /0000 10269 20242 30095 40106 333 10319 59007;EQDQ01  00002PRCP99
0136619700999992000021321004-17050+042700FM-12+001099999V0209999C000019999999N9999999N1+02601+02371101021ADDAA199000091MD1999999-0051REMSYN064AAXX  13214 61970 36/// /0000 10260 20237 31091 40102 333 59005;EQDQ01+010911APOSP Q02  00002PRCP99
0135619700999992000021400004-17050+042700FM-12+001099999V0201401N002119999999N9999999N1+02691+02451100861ADDAA199000091MA1999999100751MD1999999-0111REMSYN064AAXX  14004 61970 36/// /1404 10269 20245 30075 40086 333 59011;EQDQ01  00002PRCP99
0135619700999992000021403004-17050+042700FM-12+001099999V0201101N001019999999N9999999N1+02541+02331100871ADDAA199000091MA1999999100761MD1999999-0171REMSYN064AAXX  14034 61970 36/// /1102 10254 20233 30076 40087 333 59017;EQDQ01  00002PRCP99
0187619700999992000021406004-17050+042700FM-12+001099999V0201201N003119999999N9999999N1+03091+02401101031ADDAA199000091KA1120N+02521MA1999999100921MD1999999-0111OA150699999REMSYN076AAXX  14064 61970 36/// /1206 10309 20240 30092 40103 333 20252 55000 59011;EQDQ01  00002PRCP99Q02  00002WGOSPD
0135619700999992000021409004-17050+042700FM-12+001099999V0200601N003119999999N9999999N1+03241+02421100961ADDAA199000091MA1999999100851MD1999999-0081REMSYN064AAXX  14094 61970 36/// /0606 10324 20242 30085 40096 333 59008;EQDQ01  00002PRCP99
0135619700999992000021412004-17050+042700FM-12+001099999V0203301N002119999999N9999999N1+03081+02521100761ADDAA199000091MA1999999100651MD1999999-0161REMSYN064AAXX  14124 61970 36/// /3304 10308 20252 30065 40076 333 59016;EQDQ01  00002PRCP99
0135619700999992000021415004-17050+042700FM-12+001099999V0201701N002119999999N9999999N1+03091+02451100681ADDAA199000091MA1999999100571MD1999999-0241REMSYN064AAXX  14154 61970 36/// /1704 10309 20245 30057 40068 333 59024;EQDQ01  00002PRCP99
0154619700999992000021418004-17050+042700FM-12+001099999V0209999C000019999999N9999999N1+02731+02251100911ADDAA199000091KA1120M+03281MA1999999100801MD1999999-0151REMSYN070AAXX  14184 61970 36/// /0000 10273 20225 30080 40091 333 10328 59015;EQDQ01  00002PRCP99
0135619700999992000021421004-17050+042700FM-12+001099999V0209999C000019999999N9999999N1+02701+02411100981ADDAA199000091MA1999999100871MD1999999-0041REMSYN064AAXX  14214 61970 36/// /0000 10270 20241 30087 40098 333 59004;EQDQ01  00002PRCP99
0135619700999992000021500004-17050+042700FM-12+001099999V0203401N002119999999N9999999N1+02751+02491100821ADDAA199000091MA1999999100711MD1999999-0041REMSYN064AAXX  15004 61970 36/// /3404 10275 20249 30071 40082 333 59004;EQDQ01  00002PRCP99
0135619700999992000021503004-17050+042700FM-12+001099999V0209999C000019999999N9999999N1+02571+02371100881ADDAA199000091MA1999999100771MD1999999+0011REMSYN064AAXX  15034 61970 36/// /0000 10257 20237 30077 40088 333 58001;EQDQ01  00002PRCP99
0171619700999992000021506004-17050+042700FM-12+001099999V0200901N003119999999N9999999N1+02861+02481101101ADDAA199000091KA1120N+02551MA1999999100991MD1999999+0071OA150600411REMSYN076AAXX  15064 61970 36/// /0906 10286 20248 30099 40110 333 20255 55081 58007;EQDQ01  00002PRCP99
0135619700999992000021509004-17050+042700FM-12+001099999V0200201N004119999999N9999999N1+03131+02541100961ADDAA199000091MA1999999100851MD1999999+0001REMSYN064AAXX  15094 61970 36/// /0208 10313 20254 30085 40096 333 58000;EQDQ01  00002PRCP99
0135619700999992000021512004-17050+042700FM-12+001099999V0200301N003119999999N9999999N1+03101+02531100781ADDAA199000091MA1999999100671MD1999999+0021REMSYN064AAXX  15124 61970 36/// /0306 10310 20253 30067 40078 333 58002;EQDQ01  00002PRCP99
0135619700999992000021515004-17050+042700FM-12+001099999V0200201N002119999999N9999999N1+02941+02381100741ADDAA199000091MA1999999100631MD1999999+0061REMSYN064AAXX  15154 61970 36/// /0204 10294 20238 30063 40074 333 58006;EQDQ01  00002PRCP99
0154619700999992000021518004-17050+042700FM-12+001099999V0200101N001019999999N9999999N1+02731+02471101021ADDAA199000091KA1120M+03171MA1999999100911MD1999999+0111REMSYN070AAXX  15184 61970 36/// /0102 10273 20247 30091 40102 333 10317 58011;EQDQ01  00002PRCP99
0135619700999992000021521004-17050+042700FM-12+001099999V0200201N001019999999N9999999N1+02641+02481100981ADDAA199000091MA1999999100871MD1999999+0001REMSYN064AAXX  15214 61970 36/// /0202 10264 20248 30087 40098 333 58000;EQDQ01  00002PRCP99
0135619700999992000021603004-17050+042700FM-12+001099999V0209999C000019999999N9999999N1+02601+02531101001ADDAA199000091MA1999999100891MD1999999+0121REMSYN064AAXX  16034 61970 36/// /0000 10260 20253 30089 40100 333 58012;EQDQ01  00002PRCP99
0171619700999992000021606004-17050+042700FM-12+001099999V0200501N003119999999N9999999N1+02951+02551101131ADDAA199000091KA1120N+02581MA1999999101021MD1999999+0031OA150600361REMSYN076AAXX  16064 61970 36/// /0506 10295 20255 30102 40113 333 20258 55074 58003;EQDQ01  00002PRCP99
0122619700999992000021609004-17050+042700FM-12+001099999V0201101N001019999999N9999999N1+02741+02621101151ADDAA103007991MA1999999101041MD1999999+0191REMSYN070AAXX  16094 61970 26/// /1102 10274 20262 30104 40115 333 58019 60087;
0135619700999992000021615004-17050+042700FM-12+001099999V0203301N003119999999N9999999N1+02891+02451999999ADDAA199000091MA1999999100751MD1999999+0121REMSYN064AAXX  16154 61970 36/// /3306 10289 20245 30075 400/6 333 58012;EQDQ01  00002PRCP99
0141619700999992000021618004-17050+042700FM-12+001099999V0209999C000019999999N9999999N1+02601+02481101011ADDAA112007991KA1120M+03061MA1999999100901MD1999999-0011REMSYN076AAXX  16184 61970 16/// /0000 10260 20248 30090 40101 60082 333 10306 59001;
0135619700999992000021621004-17050+042700FM-12+001099999V0203101N004119999999N9999999N1+02701+02561101041ADDAA199000091MA1999999100931MD1999999+0061REMSYN064AAXX  16214 61970 36/// /3108 10270 20256 30093 40104 333 58006;EQDQ01  00002PRCP99
0135619700999992000021700004-17050+042700FM-12+001099999V0202501N006219999999N9999999N1+02761+02541100791ADDAA199000091MA1999999100681MD1999999-0081REMSYN064AAXX  17004 61970 36/// /2512 10276 20254 30068 40079 333 59008;EQDQ01  00002PRCP99
0135619700999992000021703004-17050+042700FM-12+001099999V0201901N005119999999N9999999N1+02741+02461100751ADDAA199000091MA1999999100641MD1999999-0251REMSYN064AAXX  17034 61970 36/// /1910 10274 20246 30064 40075 333 59025;EQDQ01  00002PRCP99
0177619700999992000021706004-17050+042700FM-12+001099999V0201601N006219999999N9999999N1+02971+02501100861ADDAA124007991KA1120N+02581MA1999999100751MD1999999-0271OA150699999REMSYN082AAXX  17064 61970 16/// /1612 10297 20250 30075 40086 60084 333 20258 55018 59027;EQDQ01  00052WGOSPD
0135619700999992000021709004-17050+042700FM-12+001099999V0209999C000019999999N9999999N1+03161+02421100721ADDAA199000091MA1999999100611MD1999999-0431REMSYN064AAXX  17094 61970 36/// /1800 10316 20242 30061 40072 333 59043;EQDQ01  00002PRCP99
0135619700999992000021712004-17050+042700FM-12+001099999V0202301N006219999999N9999999N1+03131+02591100531ADDAA199000091MA1999999100421MD1999999-0341REMSYN064AAXX  17124 61970 36/// /2312 10313 20259 30042 40053 333 59034;EQDQ01  00002PRCP99
0135619700999992000021715004-17050+042700FM-12+001099999V0202401N007219999999N9999999N1+03031+02491100431ADDAA199000091MA1999999100321MD1999999-0431REMSYN064AAXX  17154 61970 36/// /2414 10303 20249 30032 40043 333 59043;EQDQ01  00002PRCP99
0154619700999992000021718004-17050+042700FM-12+001099999V0202301N006219999999N9999999N1+02901+02581100641ADDAA199000091KA1120M+03281MA1999999100531MD1999999-0371REMSYN070AAXX  17184 61970 36/// /2312 10290 20258 30053 40064 333 10328 59037;EQDQ01  00002PRCP99
0122619700999992000021721004-17050+042700FM-12+001099999V0202501N003119999999N9999999N1+02611+02381100611ADDAA103002091MA1999999100501MD1999999-0431REMSYN070AAXX  17214 61970 26/// /2506 10261 20238 30050 40061 333 59043 60027;
0122619700999992000021800004-17050+042700FM-12+001099999V0202701N005119999999N9999999N1+02811+02551100361ADDAA106002091MA1999999100251MD1999999-0431REMSYN070AAXX  18004 61970 16/// /2710 10281 20255 30025 40036 60021 333 59043;
0154619700999992000022018004-17050+042700FM-12+001099999V0203601N003119999999N9999999N1+02771+02571100761ADDAA199000091KA1120M+03101MA1999999100651MD1999999+0091REMSYN070AAXX  20184 61970 36/// /3606 10277 20257 30065 40076 333 10310 58009;EQDQ01  00002PRCP99
0122619700999992000022021004-17050+042700FM-12+001099999V0200101N004119999999N9999999N1+02391+02231100791ADDAA103007191MA1999999100681MD1999999+0081REMSYN070AAXX  20214 61970 26/// /0108 10239 20223 30068 40079 333 58008 60077;
0122619700999992000022100004-17050+042700FM-12+001099999V0203601N004119999999N9999999N1+02641+02441100601ADDAA106007191MA1999999100491MD1999999+0101REMSYN070AAXX  21004 61970 16/// /3608 10264 20244 30049 40060 60071 333 58010;
0122619700999992000022103004-17050+042700FM-12+001099999V0200301N004119999999N9999999N1+02491+02371100601ADDAA103001091MA1999999100491MD1999999+0031REMSYN070AAXX  21034 61970 26/// /0308 10249 20237 30049 40060 333 58003 60017;
0177619700999992000022106004-17050+042700FM-12+001099999V0203001N006219999999N9999999N1+02421+02351100851ADDAA124020191KA1120N+02301MA1999999100741MD1999999+0111OA150699999REMSYN082AAXX  21064 61970 16/// /3012 10242 20235 30074 40085 60204 333 20230 55000 58011;EQDQ01  00002WGOSPD
0122619700999992000022109004-17050+042700FM-12+001099999V0201601N004119999999N9999999N1+02351+02261100831ADDAA103014091MA1999999100721MD1999999+0151REMSYN070AAXX  21094 61970 26/// /1608 10235 20226 30072 40083 333 58015 60147;
0122619700999992000022115004-17050+042700FM-12+001099999V0200701N004119999999N9999999N1+02631+02411999999ADDAA103000191MA1999999100491MD1999999+0051REMSYN070AAXX  21154 61970 26/// /0708 10263 20241 30049 44060 333 58005 69927;
0141619700999992000022118004-17050+042700FM-12+001099999V0200601N005119999999N9999999N1+02631+02471100711ADDAA112015091KA1120M+02721MA1999999100601MD1999999-0051REMSYN076AAXX  21184 61970 16/// /0610 10263 20247 30060 40071 60152 333 10272 59005;
0135619700999992000022121004-17050+042700FM-12+001099999V0200601N005119999999N9999999N1+02641+02441100761ADDAA199000091MA1999999100651MD1999999-0031REMSYN064AAXX  21214 61970 36/// /0610 10264 20244 30065 40076 333 59003;EQDQ01  00002PRCP99
0135619700999992000022203004-17050+042700FM-12+001099999V0200101N004119999999N9999999N1+02731+02531100681ADDAA199000091MA1999999100571MD1999999+0081REMSYN064AAXX  22034 61970 36/// /0108 10273 20253 30057 40068 333 58008;EQDQ01  00002PRCP99
0182619700999992000022206004-17050+042700FM-12+001099999V0200201N004119999999N9999999N1+02921+02641100811ADDAA124015091AC12C9IA2240+02009MA1999999100701MD1999999-0041OA150699999REMSYN082AAXX  22064 61970 16/// /0208 10292 20264 30070 40081 60154 333 02022 55000 59004;EQDQ01  00002WGOSPD
0135619700999992000022209004-17050+042700FM-12+001099999V0200101N005119999999N9999999N1+03041+02631100771ADDAA199000091MA1999999100661MD1999999-0061REMSYN064AAXX  22094 61970 36/// /0110 10304 20263 30066 40077 333 59006;EQDQ01  00002PRCP99
0154619700999992000022218004-17050+042700FM-12+001099999V0200201N006219999999N9999999N1+02811+02491100671ADDAA199000091KA1120M+03081MA1999999100561MD1999999-0041REMSYN070AAXX  22184 61970 36/// /0212 10281 20249 30056 40067 333 10308 59004;EQDQ01  00002PRCP99
0135619700999992000022221004-17050+042700FM-12+001099999V0200301N005119999999N9999999N1+02811+02511100811ADDAA199000091MA1999999100701MD1999999+0051REMSYN064AAXX  22214 61970 36/// /0310 10281 20251 30070 40081 333 58005;EQDQ01  00002PRCP99
0135619700999992000022303004-17050+042700FM-12+001099999V0200301N005119999999N9999999N1+02781+02521100751ADDAA199000091MA1999999100641MD1999999+0071REMSYN064AAXX  23034 61970 36/// /0310 10278 20252 30064 40075 333 58007;EQDQ01  00002PRCP99
0111619700999992000022306004-17050+042700FM-12+001099999V0200401N005119999999N9999999N1+02841+02561100881ADDAA199000091MA1999999100771REMSYN054AAXX  23064 61970 36/// /0410 10284 20256 30077 40088;EQDQ01  00002PRCP99
0081619700999992000022315004-17050+042700FM-12+001099999V0200401N005119999999N9999999N1+02611+02451100761ADDMA1999999100651REMSYN054AAXX  23154 61970 26/// /0410 10261 20245 30065 40076;
0098619700999992000022318004-17050+042700FM-12+001099999V0200401N006219999999N9999999N1+02661+02311100881ADDAA112002091MA1999999100771REMSYN060AAXX  23184 61970 16/// /0412 10266 20231 30077 40088 60022;
0111619700999992000022321004-17050+042700FM-12+001099999V0200401N007219999999N9999999N1+02701+02431100911ADDAA199000091MA1999999100801REMSYN054AAXX  23214 61970 36/// /0414 10270 20243 30080 40091;EQDQ01  00002PRCP99
0111619700999992000022400004-17050+042700FM-12+001099999V0200401N005119999999N9999999N1+02711+02361100851ADDAA199000091MA1999999100741REMSYN054AAXX  24004 61970 36/// /0410 10271 20236 30074 40085;EQDQ01  00002PRCP99
0111619700999992000022403004-17050+042700FM-12+001099999V0200601N005119999999N9999999N1+02701+02431100901ADDAA199000091MA1999999100791REMSYN054AAXX  24034 61970 36/// /0610 10270 20243 30079 40090;EQDQ01  00002PRCP99
0098619700999992000022406004-17050+042700FM-12+001099999V0200601N005119999999N9999999N1+02541+02491101131ADDAA124021191MA1999999101021REMSYN060AAXX  24064 61970 16/// /0610 10254 20249 30102 40113 60214;
0081619700999992000022409004-17050+042700FM-12+001099999V0200501N005119999999N9999999N1+02311+02281101121ADDMA1999999101001REMSYN054AAXX  24094 61970 26/// /0510 10231 20228 30100 40112;
0098619700999992000022412004-17050+042700FM-12+001099999V0203101N009319999999N9999999N1+02311+02281100951ADDAA106068191MA1999999100841REMSYN060AAXX  24124 61970 16/// /3118 10231 20228 30084 40095 60681;
0081619700999992000022415004-17050+042700FM-12+001099999V0201801N004119999999N9999999N1+02311+02281100901ADDMA1999999100791REMSYN054AAXX  24154 61970 26/// /1808 10231 20228 30079 40090;
0098619700999992000022418004-17050+042700FM-12+001099999V0203401N002119999999N9999999N1+02231+02161100981ADDAA112102191MA1999999100861REMSYN060AAXX  24184 61970 16/// /3404 10223 20216 30086 40098 61022;
0081619700999992000022421004-17050+042700FM-12+001099999V0203501N002119999999N9999999N1+02411+02271101121ADDMA1999999101011REMSYN054AAXX  24214 61970 26/// /3504 10241 20227 30101 40112;
0098619700999992000022500004-17050+042700FM-12+001099999V0203001N007219999999N9999999N1+02481+02291101011ADDAA106007191MA1999999100901REMSYN060AAXX  25004 61970 16/// /3014 10248 20229 30090 40101 60071;
0111619700999992000022503004-17050+042700FM-12+001099999V0202701N007219999999N9999999N1+02531+02301101041ADDAA199000091MA1999999100931REMSYN054AAXX  25034 61970 36/// /2714 10253 20230 30093 40104;EQDQ01  00002PRCP99
0098619700999992000022506004-17050+042700FM-12+001099999V0203201N002119999999N9999999N1+02791+02351101191ADDAA124109091MA1999999101081REMSYN060AAXX  25064 61970 16/// /3204 10279 20235 30108 40119 61094;
0135619700999992000022515004-17050+042700FM-12+001099999V0202901N007219999999N9999999N1+02831+99999101061ADDAA199000091MA1999999100951MD1999999+0161REMSYN064AAXX  25154 61970 36/// /2914 10283 28243 30095 40106 333 58016;EQDQ01  00002PRCP99
0111619700999992000022518004-17050+042700FM-12+001099999V0203001N004119999999N9999999N1+02761+02461101221ADDAA199000091MA1999999101111REMSYN054AAXX  25184 61970 36/// /3008 10276 20246 30111 40122;EQDQ01  00002PRCP99
0111619700999992000022521004-17050+042700FM-12+001099999V0200301N001019999999N9999999N1+02611+02431101131ADDAA199000091MA1999999101021REMSYN054AAXX  25214 61970 36/// /0302 10261 20243 30102 40113;EQDQ01  00002PRCP99
0111619700999992000022603004-17050+042700FM-12+001099999V0200401N002119999999N9999999N1+02641+02481101031ADDAA199000091MA1999999100921REMSYN054AAXX  26034 61970 36/// /0404 10264 20248 30092 40103;EQDQ01  00002PRCP99
0111619700999992000022606004-17050+042700FM-12+001099999V0203401N003119999999N9999999N1+02841+02501101141ADDAA199000091MA1999999101031REMSYN054AAXX  26064 61970 36/// /3406 10284 20250 30103 40114;EQDQ01  00002PRCP99
0111619700999992000022612004-17050+042700FM-12+001099999V0202901N005119999999N9999999N1+03071+02551100871ADDAA199000091MA1999999100761REMSYN054AAXX  26124 61970 36/// /2910 10307 20255 30076 40087;EQDQ01  00002PRCP99
0111619700999992000022618004-17050+042700FM-12+001099999V0209999C000019999999N9999999N1+02631+02531100961ADDAA199000091MA1999999100851REMSYN054AAXX  26184 61970 36/// /0000 10263 20253 30085 40096;EQDQ01  00002PRCP99
0111619700999992000022621004-17050+042700FM-12+001099999V0209999C000019999999N9999999N1+02611+02521101001ADDAA199000091MA1999999100891REMSYN054AAXX  26214 61970 36/// /0000 10261 20252 30089 40100;EQDQ01  00002PRCP99
0111619700999992000022700004-17050+042700FM-12+001099999V0200901N001019999999N9999999N1+02581+02531100871ADDAA199000091MA1999999100761REMSYN054AAXX  27004 61970 36/// /0902 10258 20253 30076 40087;EQDQ01  00002PRCP99
0111619700999992000022703004-17050+042700FM-12+001099999V0203101N003119999999N9999999N1+02631+02491100931ADDAA199000091MA1999999100821REMSYN054AAXX  27034 61970 36/// /3106 10263 20249 30082 40093;EQDQ01  00002PRCP99
0111619700999992000022706004-17050+042700FM-12+001099999V0203101N002119999999N9999999N1+02881+02481101031ADDAA199000091MA1999999100921REMSYN054AAXX  27064 61970 36/// /3104 10288 20248 30092 40103;EQDQ01  00002PRCP99
0111619700999992000022709004-17050+042700FM-12+001099999V0202501N002119999999N9999999N1+03071+02461100901ADDAA199000091MA1999999100791REMSYN054AAXX  27094 61970 36/// /2504 10307 20246 30079 40090;EQDQ01  00002PRCP99
0111619700999992000022712004-17050+042700FM-12+001099999V0202801N003119999999N9999999N1+03061+02451100771ADDAA199000091MA1999999100661REMSYN054AAXX  27124 61970 36/// /2806 10306 20245 30066 40077;EQDQ01  00002PRCP99
0111619700999992000022718004-17050+042700FM-12+001099999V0209999C000019999999N9999999N1+02571+02391100961ADDAA199000091MA1999999100851REMSYN054AAXX  27184 61970 36/// /0000 10257 20239 30085 40096;EQDQ01  00002PRCP99
0111619700999992000022721004-17050+042700FM-12+001099999V0209999C000019999999N9999999N1+02521+02361100941ADDAA199000091MA1999999100831REMSYN054AAXX  27214 61970 36/// /0000 10252 20236 30083 40094;EQDQ01  00002PRCP99
0111619700999992000022800004-17050+042700FM-12+001099999V0203101N002119999999N9999999N1+02611+02411100861ADDAA199000091MA1999999100751REMSYN054AAXX  28004 61970 36/// /3104 10261 20241 30075 40086;EQDQ01  00002PRCP99
0111619700999992000022803004-17050+042700FM-12+001099999V0202401N002119999999N9999999N1+02671+02361100971ADDAA199000091MA1999999100861REMSYN054AAXX  28034 61970 36/// /2404 10267 20236 30086 40097;EQDQ01  00002PRCP99
0111619700999992000022806004-17050+042700FM-12+001099999V0202001N001019999999N9999999N1+02931+02391101161ADDAA199000091MA1999999101051REMSYN054AAXX  28064 61970 36/// /2002 10293 20239 30105 40116;EQDQ01  00002PRCP99
0112619700999992000022809004-17050+042700FM-12+001099999V0200301N002119999999N9999999N1+03061+02401101081ADDAA199000091REMSYN054AAXX  28094 61970 36/// /0304 10306 20240 30897 40108;EQDQ01+098973APOSP Q02  00002PRCP99
0111619700999992000022812004-17050+042700FM-12+001099999V0201401N001019999999N9999999N1+02971+02431100911ADDAA199000091MA1999999100801REMSYN054AAXX  28124 61970 36/// /1402 10297 20243 30080 40091;EQDQ01  00002PRCP99
0111619700999992000022815004-17050+042700FM-12+001099999V0202201N001019999999N9999999N1+02981+02421100891ADDAA199000091MA1999999100781REMSYN054AAXX  28154 61970 36/// /2202 10298 20242 30078 40089;EQDQ01  00002PRCP99
0111619700999992000022818004-17050+042700FM-12+001099999V0209999C000019999999N9999999N1+02621+02391101001ADDAA199000091MA1999999100891REMSYN054AAXX  28184 61970 36/// /0000 10262 20239 30089 40100;EQDQ01  00002PRCP99
0111619700999992000022821004-17050+042700FM-12+001099999V0202101N003119999999N9999999N1+02701+02431100991ADDAA199000091MA1999999100881REMSYN054AAXX  28214 61970 36/// /2106 10270 20243 30088 40099;EQDQ01  00002PRCP99
0111619700999992000022900004-17050+042700FM-12+001099999V0201701N003119999999N9999999N1+02721+02431100871ADDAA199000091MA1999999100761REMSYN054AAXX  29004 61970 36/// /1706 10272 20243 30076 40087;EQDQ01  00002PRCP99
0111619700999992000022903004-17050+042700FM-12+001099999V0201401N002119999999N9999999N1+02671+02451100911ADDAA199000091MA1999999100801REMSYN054AAXX  29034 61970 36/// /1404 10267 20245 30080 40091;EQDQ01  00002PRCP99
0111619700999992000022906004-17050+042700FM-12+001099999V0201501N003119999999N9999999N1+03001+02551101121ADDAA199000091MA1999999101011REMSYN054AAXX  29064 61970 36/// /1506 10300 20255 30101 40112;EQDQ01  00002PRCP99
0111619700999992000022915004-17050+042700FM-12+001099999V0202401N001019999999N9999999N1+03061+02541100891ADDAA199000091MA1999999100781REMSYN054AAXX  29154 61970 36/// /2402 10306 20254 30078 40089;EQDQ01  00002PRCP99
0111619700999992000022921004-17050+042700FM-12+001099999V0202001N003119999999N9999999N1+02741+02521100991ADDAA199000091MA1999999100881REMSYN054AAXX  29214 61970 36/// /2006 10274 20252 30088 40099;EQDQ01  00002PRCP99
0111619700999992000030100004-17050+042700FM-12+001099999V0202001N003119999999N9999999N1+02741+02481100891ADDAA199000091MA1999999100781REMSYN054AAXX  01004 61970 36/// /2006 10274 20248 30078 40089;EQDQ01  00002PRCP99
0111619700999992000030103004-17050+042700FM-12+001099999V0201301N001019999999N9999999N1+02681+02541100971ADDAA199000091MA1999999100861REMSYN054AAXX  01034 61970 36/// /1302 10268 20254 30086 40097;EQDQ01  00002PRCP99
0111619700999992000030106004-17050+042700FM-12+001099999V0201901N003119999999N9999999N1+03021+02591101081ADDAA199000091MA1999999100971REMSYN054AAXX  01064 61970 36/// /1906 10302 20259 30097 40108;EQDQ01  00002PRCP99
0111619700999992000030109004-17050+042700FM-12+001099999V0201901N004119999999N9999999N1+03151+02581100951ADDAA199000091MA1999999100841REMSYN054AAXX  01094 61970 36/// /1908 10315 20258 30084 40095;EQDQ01  00002PRCP99
0111619700999992000030118004-17050+042700FM-12+001099999V0202101N006219999999N9999999N1+02831+02571100821ADDAA199000091MA1999999100711REMSYN054AAXX  01184 61970 36/// /2112 10283 20257 30071 40082;EQDQ01  00002PRCP99
0111619700999992000030121004-17050+042700FM-12+001099999V0202101N005119999999N9999999N1+02801+02561100841ADDAA199000091MA1999999100731REMSYN054AAXX  01214 61970 36/// /2110 10280 20256 30073 40084;EQDQ01  00002PRCP99
0111619700999992000030200004-17050+042700FM-12+001099999V0201601N004119999999N9999999N1+02791+02571100711ADDAA199000091MA1999999100601REMSYN054AAXX  02004 61970 36/// /1608 10279 20257 30060 40071;EQDQ01  00002PRCP99
0111619700999992000030206004-17050+042700FM-12+001099999V0202301N006219999999N9999999N1+02981+02531100971ADDAA199000091MA1999999100861REMSYN054AAXX  02064 61970 36/// /2312 10298 20253 30086 40097;EQDQ01  00002PRCP99
0111619700999992000030212004-17050+042700FM-12+001099999V0202201N006219999999N9999999N1+03161+02621100691ADDAA199000091MA1999999100581REMSYN054AAXX  02124 61970 36/// /2212 10316 20262 30058 40069;EQDQ01  00002PRCP99
0111619700999992000030215004-17050+042700FM-12+001099999V0202001N007219999999N9999999N1+02951+02611100691ADDAA199000091MA1999999100581REMSYN054AAXX  02154 61970 36/// /2014 10295 20261 30058 40069;EQDQ01  00002PRCP99
0111619700999992000030218004-17050+042700FM-12+001099999V0202101N005119999999N9999999N1+02861+02641100801ADDAA199000091MA1999999100691REMSYN054AAXX  02184 61970 36/// /2110 10286 20264 30069 40080;EQDQ01  00002PRCP99
0111619700999992000030221004-17050+042700FM-12+001099999V0202201N006219999999N9999999N1+02821+02601100731ADDAA199000091MA1999999100621REMSYN054AAXX  02214 61970 36/// /2212 10282 20260 30062 40073;EQDQ01  00002PRCP99
0111619700999992000030300004-17050+042700FM-12+001099999V0202201N007219999999N9999999N1+02811+02531100661ADDAA199000091MA1999999100551REMSYN054AAXX  03004 61970 36/// /2214 10281 20253 30055 40066;EQDQ01  00002PRCP99
0111619700999992000030309004-17050+042700FM-12+001099999V0202401N008219999999N9999999N1+03131+02621100721ADDAA199000091MA1999999100611REMSYN054AAXX  03094 61970 36/// /2416 10313 20262 30061 40072;EQDQ01  00002PRCP99
0111619700999992000030312004-17050+042700FM-12+001099999V0202401N008219999999N9999999N1+03121+02691100571ADDAA199000091MA1999999100461REMSYN054AAXX  03124 61970 36/// /2416 10312 20269 30046 40057;EQDQ01  00002PRCP99
0154619700999992000030318004-17050+042700FM-12+001099999V0202001N005119999999N9999999N1+02861+02541100791ADDAA199000091KA1120M+03161MA1999999100681MD1999999-0011REMSYN070AAXX  03184 61970 36/// /2010 10286 20254 30068 40079 333 10316 59001;EQDQ01  00002PRCP99
0135619700999992000030321004-17050+042700FM-12+001099999V0202101N004119999999N9999999N1+02811+02531100851ADDAA199000091MA1999999100741MD1999999+0121REMSYN064AAXX  03214 61970 36/// /2108 10281 20253 30074 40085 333 58012;EQDQ01  00002PRCP99
0135619700999992000030403004-17050+042700FM-12+001099999V0202301N004119999999N9999999N1+02771+02551100801ADDAA199000091MA1999999100691MD1999999+0111REMSYN064AAXX  04034 61970 36/// /2308 10277 20255 30069 40080 333 58011;EQDQ01  00002PRCP99
0122619700999992000030412004-17050+042700FM-12+001099999V0202301N002119999999N9999999N1+03101+02531100801ADDAA106014091MA1999999100691MD1999999+0231REMSYN070AAXX  04124 61970 16/// /2304 10310 20253 30069 40080 60141 333 58023;
0105619700999992000030415004-17050+042700FM-12+001099999V0202301N003119999999N9999999N1+02881+02461999999ADDAA199000091REMSYN063AAXX  04154 61970 36/// /2306 10288 20246 3068 40079 333 58011;EQDQ01  00002PRCP99
0141619700999992000030418004-17050+042700FM-12+001099999V0203301N002119999999N9999999N1+02701+02481101011ADDAA112014091KA1120M+03161MA1999999100901MD1999999+0221REMSYN076AAXX  04184 61970 16/// /3304 10270 20248 30090 40101 60142 333 10316 58022;
0135619700999992000030421004-17050+042700FM-12+001099999V0203201N002119999999N9999999N1+02671+02511101051ADDAA199000091MA1999999100941MD1999999+0201REMSYN064AAXX  04214 61970 36/// /3204 10267 20251 30094 40105 333 58020;EQDQ01  00002PRCP99
0193619700999992000030506004-17050+042700FM-12+001099999V0202601N003119999999N9999999N1+02921+02621101181ADDAA124014091KA1120N+02651MA1999999999999MD1999999+0201OA150699999REMSYN082AAXX  05064 61970 16/// /2606 10292 20262 38107 40118 60144 333 20265 55000 58020;EQDQ01  00002WGOSPDQ02 081073APOSP 
0151619700999992000030509004-17050+042700FM-12+001099999V0202601N004119999999N9999999N1+03121+02651101091ADDAA199000091MA1999999100982MD1999999+0141REMSYN064AAXX  05094 61970 36/// /2608 10312 20265 30098 40109 333 58014;EQDQ01+100983APOSP Q02  00002PRCP99
0151619700999992000030512004-17050+042700FM-12+001099999V0202701N004119999999N9999999N1+03121+02601999999ADDAA199000091MA1999999100781MD1010001+0091REMSYN064AAXX  05124 61970 36/// /2708 10312 20260 30078 50089 333 58009;EQDQ01+000892APC3  Q02  00002PRCP99
0135619700999992000030515004-17050+042700FM-12+001099999V0202501N003119999999N9999999N1+02591+02531100861ADDAA199000091MA1999999100751MD1999999+0071REMSYN064AAXX  05154 61970 36/// /2506 10259 20253 30075 40086 333 58007;EQDQ01  00002PRCP99
0154619700999992000030518004-17050+042700FM-12+001099999V0202801N003119999999N9999999N1+02801+02501101051ADDAA199000091KA1120M+03171MA1999999100941MD1999999+0041REMSYN070AAXX  05184 61970 36/// /2806 10280 20250 30094 40105 333 10317 58004;EQDQ01  00002PRCP99
0135619700999992000030600004-17050+042700FM-12+001099999V0202901N004119999999N9999999N1+02751+02531100881ADDAA199000091MA1999999100771MD1999999-0041REMSYN064AAXX  06004 61970 36/// /2908 10275 20253 30077 40088 333 59004;EQDQ01  00002PRCP99
0135619700999992000030603004-17050+042700FM-12+001099999V0203001N003119999999N9999999N1+02751+02531100861ADDAA199000091MA1999999100751MD1999999-0141REMSYN064AAXX  06034 61970 36/// /3006 10275 20253 30075 40086 333 59014;EQDQ01  00002PRCP99
