0316645030999992000010206004-03420+010650FM-12+0034FOOY V0209999999999004801CN0100001N1+02501+02471100821ADDAA106000091AY191061AY221061GA1041+003009069GA2011+004809099GA3081+030009049GF108991041091004501021999IA2240+02309KA1120N+02431MA1999999100421MD1999999+0031MW1171REMSYN124AAXX  02064 64503 31460 8//// 10250 20247 30042 40082 71792 8492/ 333 02300 20243 50104 58003 84610 81916 88460 94946 95836;EQDQ01  00002PRCP06
0103645030999992000010207004-03420+010650FM-15+0034FOOY V02099999999992200019N0099001N1+99999+99999999999ADDMW1001REMMET066FOOY 0700Z ///// 9999 TS SCT013 FEW020 CB BKN110 25/24 Q1008 CB W;EQDQ01+000000PRSWM2
0105645030999992000010208004-03420+010650FM-15+0034FOOY V02099999999992200019N0080001N1+99999+99999999999ADDMW1001REMMET068FOOY 0800Z ///// 9999 SCT013 FEW020 CB BKN110 26/25 Q1008 RETS CB W;EQDQ01+000000PRSWM2
0193645030999992000010209004-03420+010650FM-12+0034FOOY V02099999999990078019N0150001N1+02801+02521100861ADDGA1031+003909089GA2071+007809069GF107991071081004501999999MA1999999100461MD1999999-0041REMSYN094AAXX  02094 64503 42465 7//// 10280 20252 30046 40086 878// 333 59004 83813 87626 94919 95839;
0102645030999992000010211004-03420+010650FM-15+0034FOOY V02099999999992200019N0112651N1+99999+99999999999ADDMW1001REMMET065FOOY 1100Z ///// 9999 SCT013 FEW020 CB BKN110 31/26 Q1006 CB N W;EQDQ01+000000PRSWM2
0251645030999992000010212004-03420+010650FM-12+0034FOOY V02099999999990060019N0200001N1+03001+02581100711ADDAA106000091GA1041+003909089GA2011+006009099GA3071+033009039GF107991061091004501031999MA1999999100311MD1999999-0011REMSYN106AAXX  02124 64503 32470 7//// 10300 20258 30031 40071 8693/ 333 0//00 59001 84813 81920 87361 94948 95838;EQDQ01  00002PRCP06
0243645030999992000010309004-03420+010650FM-12+0034FOOY V02099999999990033019N0150001N1+02551+02491100921ADDAY191031AY261031GA1051+003309069GA2011+006009099GA3081+030009049GF108991061091004501021999MA1999999100511MD1999999+0051MW1291REMSYN106AAXX  03094 64503 41465 8//// 10255 20249 30051 40092 72996 8692/ 333 58005 85611 81920 88460 94943 95833;
0091645030999992000010311004-03420+010650FM-15+0034FOOY V02099999999992200019N0005001N1+99999+99999999999ADDMW1001REMMET054FOOY 1100Z ///// 9999 SCT013 FEW016CB 29/26 Q1008 CBN;EQDQ01+000000PRSWM2
0272645030999992000010312004-03420+010650FM-12+0034FOOY V02099999999990078019N0200001N1+03051+02591100781ADDAA106008991AC10I9AY191061AY261061GA1041+003909089GA2011+007809099GA3071+033009039GF107991051091004501031999MA1999999100381MD1999999+0071MW1021REMSYN118AAXX  03124 64503 11470 7//// 10305 20259 30038 40078 60091 70296 8593/ 333 0//24 58007 84813 81926 87361 94948 95838;
0103645030999992000010314004-03420+010650FM-15+0034FOOY V02099999999992200019N0025001N1+99999+99999999999ADDMW1001REMMET066FOOY 1400Z ///// 1000 +TSRA SCT003 SCT013CB OVC020 25/24 Q1007 CB;EQDQ01+000000PRSWM2
0265645030999992000010315004-03420+010650FM-12+0034FOOY V02099999999990039019N0020001N1+02481+02461100631ADDAY191031AY261031GA1031+000909079GA2021+003909099GA3051+006009069GA4081+030009049GF108991061091001501021999MA1999999100231MD1999999+0141MW1951REMSYN112AAXX  03154 64503 41220 8//// 10248 20246 30023 40063 79596 8692/ 333 58014 83703 82913 85620 88460 94959 95839;
0298645030999992000010318004-03420+010650FM-12+0034FOOY V0209999999999006901CN0100001N1+02401+02381100651ADDAA112039191AY191061AY261061GA1041+003309069GA2011+006909099GA3071+030009049GF199999041091004501021999KA1120M+03201MA1999999100251MD1999999+0151MW1171REMSYN118AAXX  03184 64503 11460 5//// 10240 20238 30025 40065 60392 71796 8492/ 333 10320 58015 84611 81923 87460 94943 95833;EQDQ01+000052SCOTCV
0204645030999992000010321004-03420+010650FM-12+0034FOOY V0209999999999004201CN0100001N1+02381+02381100951ADDAY191031AY221031GA1041+003309069GF106991051091004501001001MA1999999100451MD1999999-0051MW1171REMSYN099AAXX  03214 64503 41460 6//// 10238 20238 30045 40095 71792 85900 333 59005 84611 8190 94948 95838;
0277645030999992000010400004-03420+010650FM-12+0034FOOY V02099999999999999999N0100001N1+02341+02311099812ADDAA106000091AY191061AY221061GA1031+003309069GF105991999051004501001001MA1999999101412MD1999999+0111MW1011REMSYN094AAXX  04004 64503 31460 5//// 10234 20231 30141 49981 70192 86500 333 0//00 58011 83611 85620;EQDQ01+000062SCOTLCQ02+101413APOSP Q03+099813APOSLPQ04  00002PRCP06
0245645030999992000010403004-03420+010650FM-12+0034FOOY V02099999999999999999N0100001N1+02341+02311099811ADDAA106000091AY191031AY221031GA1031+003309069GF105991999051004501001001MA1999999101411MD1999999+0111MW1011REMSYN094AAXX  04034 64503 31460 5//// 10234 20231 30141 49981 70192 86500 333 0//00 58011 83611 85620;EQDQ01+000062SCOTLCQ02  00002PRCP06
0244645030999992000010406004-03420+010650FM-12+0034FOOY V0209999999999045001CN0100001N1+02371+02371100801ADDAA124039191GA1041+003009069GF108991041051004501021999IA2240+02309KA1120N+02311MA1999999100402MD1999999+0061REMSYN106AAXX  04064 64503 12460 8//// 10237 20237 30040 40080 60394 8452/ 333 02369 20231 50104 58006 84610 88460;EQDQ01+100403APOSP 
0085645030999992000010407004-03420+010650FM-15+0034FOOY V02099999999992200019N0112651N1+99999+99999999999ADDMW1001REMMET048FOOY 0700Z ///// 9999 SCT011 OVC100 24/24 Q1008;EQDQ01+000000PRSWM2
0085645030999992000010408004-03420+010650FM-15+0034FOOY V02099999999992200019N0112651N1+99999+99999999999ADDMW1001REMMET048FOOY 0800Z ///// 9999 SCT013 BKN110 26/24 Q1008;EQDQ01+000000PRSWM2
0193645030999992000010409004-03420+010650FM-12+0034FOOY V02099999999990300019N0150001N1+02751+02551100871ADDGA1031+003909089GA2071+030009049GF107991031021004501071999MA1999999100471MD1999999-0041REMSYN094AAXX  04094 64503 42465 7//// 10275 20255 30047 40087 8327/ 333 59004 83813 87460 94919 95839;
0201645030999992000010412004-03420+010650FM-12+0034FOOY V0209999999999045001CN0150001N1+02851+02491100701ADDAA106000091GA1031+003309069GF108991031051004501021999MA1999999100301MD1999999-0081REMSYN088AAXX  04124 64503 32465 8//// 10285 20249 30030 40070 8352/ 333 0//00 59008 83611 88460;EQDQ01  00002PRCP06
0085645030999992000010413004-03420+010650FM-15+0034FOOY V02099999999992200019N0019001N1+99999+99999999999ADDMW1001REMMET048FOOY 1300Z ///// 9999 SCT013 OVC110 28/25 Q1006;EQDQ01+000000PRSWM2
0215645030999992000010415004-03420+010650FM-12+0034FOOY V02099999999990300019N0150001N1+02711+02511100451ADDGA1031+003309069GA2011+007809099GA3081+030009049GF108991041091004501021999MA1999999100051MD1999999-0181REMSYN100AAXX  04154 64503 42465 8//// 10271 20251 30005 40045 8492/ 333 59018 83611 81926 88460 94943 95833;
0208645030999992000010418004-03420+010650FM-12+0034FOOY V02099999999990033019N0100001N1+02601+02461100551ADDAA106000091GA1061+003309059GF106991061051004501001001KA1120M+02801MA1999999100151MD1999999-0101REMSYN082AAXX  04184 64503 32460 6//// 10260 20246 30015 40055 86500 333 10280 59010 86611;EQDQ01  00002PRCP06
0165645030999992000010421004-03420+010650FM-12+0034FOOY V0209999999999004201CN0100001N1+02401+02231100731ADDGA1031+003309069GF107991071051004501999999MA1999999100331MD1999999-0141REMSYN082AAXX  04214 64503 42460 7//// 10240 20223 30033 40073 875// 333 59014 83611 87623;
0201645030999992000010500004-03420+010650FM-12+0034FOOY V0209999999999004201CN0100001N1+02351+02311100661ADDAA106000091GA1041+003009069GF108991081051004501999999MA1999999100261MD1999999-0151REMSYN088AAXX  05004 64503 32460 8//// 10235 20231 30026 40066 885// 333 0//00 59015 84610 88630;EQDQ01  00002PRCP06
0165645030999992000010503004-03420+010650FM-12+0034FOOY V0209999999999004201CN0100001N1+02341+02301100651ADDGA1041+003009069GF108991081051004501999999MA1999999100251MD1999999-0161REMSYN082AAXX  05034 64503 42460 8//// 10234 20230 30025 40065 885// 333 59016 84610 88620;
0238645030999992000010506004-03420+010650FM-12+0034FOOY V0209999999999045001CN0100001N1+02461+02421100671ADDAA106000091GA1031+003309069GF107991031051004501031999IA2240+02309KA1120N+02451MA1999999100271MD1999999-0131REMSYN100AAXX  05064 64503 32460 7//// 10246 20242 30027 40067 8353/ 333 02300 20245 50054 59013 83611 87360;EQDQ01  00002PRCP06
0085645030999992000010507004-03420+010650FM-15+0034FOOY V02099999999992200019N0000001N1+99999+99999999999ADDMW1001REMMET048FOOY 0700Z ///// 9999 SCT013 BKN100 26/25 Q1006;EQDQ01+000000PRSWM2
0199645030999992000010509004-03420+010650FM-12+0034FOOY V0209999999999030001CN0200001N1+02821+02581100791ADDGA1031+003909089GA2061+030009039GF106991031021004501031001MA1999999100391MD1999999-0041REMSYN100AAXX  05094 64503 42470 6//// 10282 20258 30039 40079 83230 333 59004 59008 83813 86360 94919 95839;
0229645030999992000010512004-03420+010650FM-12+0034FOOY V02099999999990330019N0200001N1+02911+02551100721ADDAA106000091GA1041+003909089GA2061+033009039GF106991041021004501031001MA1999999100321MD1999999+0021REMSYN100AAXX  05124 64503 32470 6//// 10291 20255 30032 40072 84230 333 0//00 58002 84813 86361 94919 95839;EQDQ01  00002PRCP06
0193645030999992000010515004-03420+010650FM-12+0034FOOY V02099999999990300019N0200001N1+02991+02491100651ADDGA1031+004809089GA2061+030009039GF106991031021004501031001MA1999999100251MD1999999+0201REMSYN094AAXX  05154 64503 42470 6//// 10299 20249 30025 40065 83230 333 58020 83816 86360 94919 95839;
0264645030999992000010518004-03420+010650FM-12+0034FOOY V02099999999990069019N0100001N1+02701+02491100651ADDAA106000091GA1041+003309069GA2011+006909099GA3071+030009049GF107991051091004501071999KA1120M+03101MA1999999100271MD1999999+0121REMSYN106AAXX  05184 64503 32460 7//// 10270 20249 30027 40065 8597/ 333 10310 58012 84611 81923 87460 94942 95832;EQDQ01  00002PRCP06
0243645030999992000010521004-03420+010650FM-12+0034FOOY V02099999999990069019N0100001N1+02501+02381100761ADDAY121031AY221031GA1041+003309069GA2011+006909099GA3081+030009049GF108991051091004501071999MA1999999100361MD1999999+0031MW1131REMSYN106AAXX  05214 64503 41460 8//// 10250 20238 30036 40076 71322 8597/ 333 58003 84611 81923 88460 94941 95831;
0238645030999992000010606004-03420+010650FM-12+0034FOOY V0209999999999004201CN0100001N1+02471+02371100371ADDAA106000091GA1041+003309069GF108991081051004501999999IA2240+02409KA1120N+02421MA1999999100371MD1999999+0101REMSYN100AAXX  06064 64503 32460 8//// 10247 20237 30037 40037 885// 333 02400 20242 50114 58010 84611 88626;EQDQ01  00002PRCP06
0085645030999992000010607004-03420+010650FM-15+0034FOOY V02099999999992200019N0099001N1+99999+99999999999ADDMW1001REMMET048FOOY 0700Z ///// 9999 SCT013 BKN110 26/25 Q1008;EQDQ01+000000PRSWM2
0085645030999992000010608004-03420+010650FM-15+0034FOOY V02099999999992200019N0030001N1+99999+99999999999ADDMW1001REMMET048FOOY 0800Z ///// 9999 SCT013 BKN120 28/25 Q1008;EQDQ01+000000PRSWM2
0193645030999992000010609004-03420+010650FM-12+0034FOOY V02099999999990360019N0200001N1+03001+02551100831ADDGA1021+003909089GA2061+036009039GF106991021021004501031001MA1999999100431MD1999999+0041REMSYN094AAXX  06094 64503 42470 6//// 10300 20255 30043 40083 82230 333 58004 82813 86362 94919 95839;
0279645030999992000010612004-03420+010650FM-12+0034FOOY V02099999999990060019N0050001N1+03001+02611100681ADDAA106000091AY191061AY221061GA1031+004509089GA2051+006009089GA3061+036009039GF108991041091004501031001MA1999999100281MD1999999-0041MW1171REMSYN112AAXX  06124 64503 31450 8//// 10300 20261 30028 40068 71792 84930 333 0//00 59004 83815 85820 86362 94941 95871;EQDQ01  00002PRCP06
0102645030999992000010613004-03420+010650FM-15+0034FOOY V02099999999992200019N0112651N1+99999+99999999999ADDMW1001REMMET065FOOY 1300Z ///// 9999 TS SCT013 FEW020CB BKN120 31/26 Q1006 CBNE;EQDQ01+000000PRSWM2
0106645030999992000010614004-03420+010650FM-15+0034FOOY V02099999999992200019N0099001N1+99999+99999999999ADDMW1001REMMET069FOOY 1400Z ///// 9999 TS SCT015 TCU FEW020CB BKN120 30/26 Q1005 CBNE;EQDQ01+000000PRSWM2
0262645030999992000010615004-03420+010650FM-12+0034FOOY V02099999999992200019N0150001N1+02911+02551100501ADDAY191031AY291031GA1031+003309069GA2051+004509089GA3011+006909099GF199999061091004501071999MA1999999100101MD1999999+0121MW1171REMSYN106AAXX  06154 64503 41465 4//// 10291 20255 30010 40050 71799 8697/ 333 58012 83611 85815 81923 94942 95872;EQDQ01+000042SCOTCV
0309645030999992000010706004-03420+010650FM-12+0034FOOY V02099999999990069019N0100001N1+02251+02251100921ADDAA101025991AC11C9AY191061AY261061GA1041+003309069GA2011+006909099GA3081+030009049GF108991051091004501021999IA2240+02209KA1120N+02241MA1999999100511MD1999999+0141MW1291REMSYN130AAXX  07064 64503 11460 8//// 10225 20225 30051 40092 60265 72996 8592/ 333 02261 20224 50134 58014 84611 81923 88460 94944 95834;
0085645030999992000010708004-03420+010650FM-15+0034FOOY V02099999999992200019N0032001N1+99999+99999999999ADDMW1001REMMET048FOOY 0800Z ///// 9999 SCT011 OVC100 23/23 Q1009;EQDQ01+000000PRSWM2
0095645030999992000010710004-03420+010650FM-15+0034FOOY V02099999999992200019N0112651N1+99999+99999999999ADDMW1001REMMET058FOOY 1000Z ///// 9999 TS SCT013 FEW020CB 26/25 Q1009 CBNE;EQDQ01+000000PRSWM2
0193645030999992000010715004-03420+010650FM-12+0034FOOY V02099999999990300019N9999999N1+02751+02471100601ADDGA1031+003909089GA2081+030009049GF108991031021012501071999MA1999999100201MD1999999+0101REMSYN094AAXX  07154 64503 2460/ 8//// 10275 20247 30020 40060 8327/ 333 58010 83813 88460 94939 95839;
0085645030999992000010807004-03420+010650FM-15+0034FOOY V02099999999992200019N0112651N1+99999+99999999999ADDMW1001REMMET048FOOY 0700Z ///// 9999 SCT011 BKN110 24/24 Q1010;EQDQ01+000000PRSWM2
0165645030999992000010809004-03420+010650FM-12+0034FOOY V0209999999999045001CN0150001N1+02511+02421101171ADDGA1041+003309069GF107991041051004501071999MA1999999100761MD1999999+0081REMSYN082AAXX  08094 64503 42465 7//// 10251 20242 30076 40117 8457/ 333 58008 84611 87361;
0085645030999992000010907004-03420+010650FM-15+0034FOOY V02099999999992200019N0020001N1+99999+99999999999ADDMW1001REMMET048FOOY 0700Z ///// 9999 FEW006 BKN100 22/22 Q////;EQDQ01+000000PRSWM2
0085645030999992000010908004-03420+010650FM-15+0034FOOY V02099999999992200019N0112651N1+99999+99999999999ADDMW1001REMMET048FOOY 0800Z ///// 9999 SCT011 BKN100 25/25 Q1010;EQDQ01+000000PRSWM2
0193645030999992000010915004-03420+010650FM-12+0034FOOY V02099999999990300019N0150001N1+03001+02581100801ADDGA1031+003909089GA2051+030009039GF105991031021004501031001MA1999999100401MD1999999-0061REMSYN094AAXX  09154 64503 42465 5//// 10300 20258 30040 40080 83230 333 59006 83813 85360 94917 95839;
0214645030999992000010918004-03420+010650FM-12+0034FOOY V0209999999999045001CN0100001N1+02601+02461100831ADDAA106000091GA1041+003009069GF108991041051004501021999KA1120M+03101MA1999999100431MD1999999-0041REMSYN088AAXX  09184 64503 32460 8//// 10260 20246 30043 40083 8452/ 333 10310 59004 84610 88460;EQDQ01  00002PRCP06
0238645030999992000011006004-03420+010650FM-12+0034FOOY V0209999999999045001CN0100001N1+02401+02351100891ADDAA106000091GA1031+003009069GF108991031051004501071999IA2240+02309KA1120N+02351MA1999999100491MD1999999-0101REMSYN100AAXX  10064 64503 32460 8//// 10240 20235 30049 40089 8357/ 333 02300 20235 50064 59010 83610 88461;EQDQ01  00002PRCP06
0085645030999992000011007004-03420+010650FM-15+0034FOOY V02099999999992200019N0015001N1+99999+99999999999ADDMW1001REMMET048FOOY 0700Z ///// 9999 SCT011 BKN110 25/25 Q1009;EQDQ01+000000PRSWM2
0085645030999992000011008004-03420+010650FM-15+0034FOOY V02099999999992200019N0060001N1+99999+99999999999ADDMW1001REMMET048FOOY 0800Z ///// 9999 SCT013 BKN230 27/26 Q1010;EQDQ01+000000PRSWM2
0193645030999992000011009004-03420+010650FM-12+0034FOOY V02099999999990690019N0200001N1+02731+02511101011ADDGA1031+003909089GA2051+069009009GF105991031021004501001021MA1999999100601MD1999999-0081REMSYN094AAXX  10094 64503 42470 5//// 10273 20251 30060 40101 83202 333 59008 83813 85073 94939 95839;
0085645030999992000011013004-03420+010650FM-15+0034FOOY V02099999999992200019N0241401N1+99999+99999999999ADDMW1001REMMET048FOOY 1300Z ///// 9999 SCT016 BKN260 32/27 Q1006;EQDQ01+000000PRSWM2
0193645030999992000011015004-03420+010650FM-12+0034FOOY V02099999999990780019N0200001N1+03101+02691100621ADDGA1031+004509089GA2031+078009009GF108991031021004501001021MA1999999100221MD1999999-0181REMSYN094AAXX  10154 64503 42470 8//// 10310 20269 30022 40062 83202 333 59018 83815 83076 94919 95839;
0159645030999992000011021004-03420+010650FM-12+0034FOOY V02099999999992200019N0100001N1+02601+02451100851ADDGA1031+003909059GF103991031051004501001001MA1999999100451MD1999999-0151REMSYN076AAXX  10214 64503 42460 3//// 10260 20245 30045 40085 83500 333 59015 83613;
0165645030999992000011103004-03420+010650FM-12+0034FOOY V0209999999999045001CN0100001N1+02421+02381100871ADDGA1041+003009069GF108991041051004501021999MA1999999100471MD1999999+0051REMSYN082AAXX  11034 64503 42460 8//// 10242 20238 30047 40087 8452/ 333 58005 84610 88460;
0238645030999992000011106004-03420+010650FM-12+0034FOOY V0209999999999045001CN0100001N1+02501+02471100931ADDAA106000091GA1041+003009069GF105991041051004501071999IA2240+02309KA1120N+02401MA1999999100521MD1999999+0031REMSYN100AAXX  11064 64503 32460 5//// 10250 20247 30052 40093 8457/ 333 02300 20240 50094 58003 84610 87460;EQDQ01  00002PRCP06
0098645030999992000011107004-03420+010650FM-15+0034FOOY V02099999999992200019N0112651N1+99999+99999999999ADDMW1001REMMET061FOOY 0700Z ///// 9999 SCT011 FEW016CB BKN110 26/25 Q1009 CBW;EQDQ01+000000PRSWM2
0098645030999992000011108004-03420+010650FM-15+0034FOOY V02099999999992200019N0112651N1+99999+99999999999ADDMW1001REMMET061FOOY 0800Z ///// 9999 SCT011 FEW020CB BKN110 27/25 Q1010 CBW;EQDQ01+000000PRSWM2
0215645030999992000011109004-03420+010650FM-12+0034FOOY V02099999999990360019N0200001N1+02921+02621101071ADDGA1031+003909069GA2011+006009099GA3051+036009039GF106991031091004501031001MA1999999100661MD1999999+0061REMSYN100AAXX  11094 64503 42470 6//// 10292 20262 30066 40107 83930 333 58006 83613 81920 85362 94946 95836;
0089645030999992000011110004-03420+010650FM-15+0034FOOY V02099999999992200019N0060001N1+99999+99999999999ADDMW1001REMMET052FOOY 1000Z ///// 9999 SCT015 TCU BKN120 30/26 Q1010;EQDQ01+000000PRSWM2
0099645030999992000011111004-03420+010650FM-15+0034FOOY V02099999999992200019N0080001N1+99999+99999999999ADDMW1001REMMET062FOOY 1100Z ///// 9999 SCT015 FEW020CB BKN120 31/26 Q1009 CBNE;EQDQ01+000000PRSWM2
0263645030999992000011112004-03420+010650FM-12+0034FOOY V02099999999990360019N0200001N1+03101+02631100941ADDAA106000091GA1031+003909089GA2011+006009099GA3061+036009039GF106991031051004501031001IA2240+02309MA1999999100531MD1999999+0091REMSYN106AAXX  11124 64503 32470 6//// 10310 20263 30053 40094 83530 333 02300 58009 83813 81920 86362 94948 95838;EQDQ01  00002PRCP06
0099645030999992000011114004-03420+010650FM-15+0034FOOY V02099999999992200019N0112651N1+99999+99999999999ADDMW1001REMMET062FOOY 1400Z ///// 9999 SCT013 FEW023CB BKN030 31/26 Q1007 CBNE;EQDQ01+000000PRSWM2
0215645030999992000011115004-03420+010650FM-12+0034FOOY V02099999999990099019N0200001N1+03101+02621100651ADDGA1031+003909089GA2011+006909099GA3051+009909069GF105991051091004501001001MA1999999100251MD1999999+0031REMSYN100AAXX  11154 64503 42470 5//// 10310 20262 30025 40065 85900 333 58003 83813 81923 85633 94941 95831;
0159645030999992000011121004-03420+010650FM-12+0034FOOY V02099999999992200019N0100001N1+02611+02451100941ADDGA1041+003309029GF104991041051004501001001MA1999999100531MD1999999+0101REMSYN076AAXX  11214 64503 42460 4//// 10261 20245 30053 40094 84500 333 58010 84811;
0288645030999992000011206004-03420+010650FM-12+0034FOOY V02099999999990300019N0100001N1+02501+02471100871ADDAA106000091GA1031+003009069GA2011+004809099GA3071+030009049GF107991031091004501071999IA2240+02309KA1120N+02381MA1999999100471MD1999999-0051REMSYN118AAXX  12064 64503 32460 7//// 10250 20247 30047 40087 8397/ 333 02300 20238 50134 59005 83610 81916 87460 94946 95836;EQDQ01  00002PRCP06
0098645030999992000011208004-03420+010650FM-15+0034FOOY V02099999999992200019N0112651N1+99999+99999999999ADDMW1001REMMET061FOOY 0800Z ///// 9999 SCT011 FEW020CB BKN110 28/25 Q1009 CBW;EQDQ01+000000PRSWM2
0215645030999992000011209004-03420+010650FM-12+0034FOOY V0209999999999004801CN0100001N1+02761+02511101021ADDGA1041+003009069GA2011+004809099GA3081+030009049GF108991041091004501021999MA1999999100611MD1999999-0051REMSYN100AAXX  12094 64503 42460 8//// 10276 20251 30061 40102 8492/ 333 59005 84610 81916 88460 94942 95832;
0272645030999992000011212004-03420+010650FM-12+0034FOOY V02099999999990060019N0100001N1+02461+99999100851ADDAA106100191AC11C9AY191061AY261061GA1041+003309069GA2011+006009099GA3081+030009049GF108991051091004501021999MA1999999100451MD1999999-0081MW1171REMSYN118AAXX  12124 64503 11460 8//// 10246 20248 30045 40085 61001 71796 8592/ 333 0//61 59008 84611 81920 88460 94943 95833;
0104645030999992000011213004-03420+010650FM-15+0034FOOY V02099999999992200019N0050001N1+99999+99999999999ADDMW1001REMMET067FOOY 1300Z ///// 9999 -TS SCT011 FEW020CB OVC100 25/25 Q1008 CB SE;EQDQ01+000000PRSWM2
0279645030999992000011218004-03420+010650FM-12+0034FOOY V02099999999990069019N0080001N1+02501+02461100751ADDAA112101191AY191061AY261061GA1041+003309069GA2011+006909099GA3081+030009049GF108991051091002501021999KA1120M+02851MA1999999100351MD1999999-0021MW1211REMSYN118AAXX  12184 64503 11358 8//// 10250 20246 30035 40075 61012 72196 8592/ 333 10285 59002 84611 81923 88460 94941 95831;
0165645030999992000011221004-03420+010650FM-12+0034FOOY V0209999999999004201CN0100001N1+02401+02341100981ADDGA1031+003309069GF106991061051004501001001MA1999999100571MD1999999+0041REMSYN082AAXX  12214 64503 42460 6//// 10240 20234 30057 40098 86500 333 58004 83611 86620;
0182645030999992000011300004-03420+010650FM-12+0034FOOY V0209999999999004201CN0100001N1+02451+02381100871ADDAA106000021GA1041+003009069GF108991081051004501999999MA1999999100471MD1999999+0051REMSYN088AAXX  13004 64503 32460 8//// 10245 20238 30047 40087 885// 333 0//00 58005 84610 88620;
0303645030999992000011306004-03420+010650FM-12+0034FOOY V02099999999990300019N0100001N1+02401+02381100831ADDAA124001091AY111061AY241061GA1031+003909069GA2011+006909099GA3061+030009039GF106991041091004501031001IA2240+02209KA1120N+02401MA1999999100431MD1999999-0041MW1101REMSYN130AAXX  13064 64503 11460 6//// 10240 20238 30043 40083 60014 71014 84930 333 02269 20240 50054 59004 83613 81923 86360 94944 95834;
0098645030999992000011307004-03420+010650FM-15+0034FOOY V02099999999992200019N0112651N1+99999+99999999999ADDMW1001REMMET061FOOY 0700Z ///// 9999 SCT013 FEW023CB BKN100 25/24 Q1008 CBS;EQDQ01+000000PRSWM2
0165645030999992000011309004-03420+010650FM-12+0034FOOY V0209999999999045001CN0200001N1+02531+99999100851ADDGA1041+003909089GF106991041021004501031001MA1999999100571MD1999999-0061REMSYN082AAXX  13094 64503 42470 6//// 10253 20257 30057 40085 84230 333 59006 84813 86360;
0100645030999992000011311004-03420+010650FM-15+0034FOOY V02099999999992200019N0099001N1+99999+99999999999ADDMW1001REMMET063FOOY 1100Z ///// 9000 SCT008 FEW020CB OVC100 27/25 Q1008 CB TS;EQDQ01+000000PRSWM2
0272645030999992000011312004-03420+010650FM-12+0034FOOY V02099999999990033019N0100001N1+02651+02501100801ADDAA106004191AC11C9AY161061AY221061GA1051+003309069GA2011+006909099GA3081+030009049GF108991061091004501021999MA1999999100401MD1999999-0051MW1211REMSYN118AAXX  13124 64503 11460 8//// 10265 20250 30040 40080 60041 72162 8692/ 333 0//41 59005 85611 81923 88460 94948 95838;
0243645030999992000011315004-03420+010650FM-12+0034FOOY V02099999999990069019N0080001N1+02581+02441100751ADDAY191031AY261031GA1041+003309069GA2011+006909099GA3081+030009049GF108991051091004501021999MA1999999100351MD1999999-0131MW1951REMSYN106AAXX  13154 64503 41458 8//// 10258 20244 30035 40075 79596 8592/ 333 59013 84611 81923 88460 94941 95831;
0291645030999992000011318004-03420+010650FM-12+0034FOOY V02099999999990048019N0080001N1+02301+02281100921ADDAA112024991AY191061AY261061GA1031+001809089GA2021+004809099GA3081+030009049GF108991061091002501021999KA1120M+03001MA1999999100511MD1999999+0161MW1951REMSYN130AAXX  13184 64503 11358 8//// 10230 20228 30051 40092 60252 79596 8692/ 333 10300 58016 83806 82916 88460 94948 94942 95838 95872;
0226645030999992000011400004-03420+010650FM-12+003499999V0209999999999045001CN0100001N1+02251+02251100991ADDAA106007991AC12C9AY191061AY261061GA1041+003009069GF108991041051004501021999MA1999999100581MD1999999+0111MW1211REMSYN104    AAXX  14004 64503 11460 8//// 10225 20225 30058 40099 60081 72196 8452/ 333 0//62 58011 84610 88460;
0263645030999992000011406004-03420+010650FM-12+003499999V0209999999999045001CN0150001N1+02221+02221100861ADDAA124033091AC12I9AY161061AY221061GA1031+003309069GF107991031051004501031999IA2240+02109KA1120N+02201MA1999999100461MD1999999+0031MW1011REMSYN116    AAXX  14064 64503 11465 7//// 10222 20222 30046 40086 60334 70162 8353/ 333 02166 20220 50034 58003 83611 87661;
0169645030999992000011409004-03420+010650FM-12+003499999V0209999999999105001CN0200001N1+02601+02461100931ADDGA1021+003909069GF107991021051004501001021MA1999999100521MD1999999-0031REMSYN086    AAXX  14094 64503 42470 7//// 10260 20246 30052 40093 82502 333 59003 82613 87075;
0214645030999992000011412004-03420+010650FM-12+003499999V02099999999992200019N0200001N1+02951+02451100851ADDAA199000021GA1031+004809089GA2041+075009009GF104991031021004501001021MA1999999100451MD1999999+0051REMSYN104    AAXX  14124 64503 32470 4//// 10295 20245 30045 40085 83202 333 0//00 58005 83816 84075 94919 95839;
0219645030999992000011415004-03420+010650FM-12+003499999V0209999999999006901CN0200001N1+02951+02481100621ADDGA1041+003909069GA2011+006909099GA3071+033009039GF107991041091004501071999MA1999999100221MD1999999-0131REMSYN104    AAXX  14154 64503 42470 7//// 10295 20248 30022 40062 8497/ 333 59013 84613 81923 87361 94948 95838;
0205645030999992000011418004-03420+010650FM-12+003499999V0209999999999045001CN0150001N1+02701+02591100651ADDAA112007991GA1031+003909069GF106991031051004501031001KA1120M+03101MA1999999100251MD1999999-0061REMSYN098    AAXX  14184 64503 12465 6//// 10270 20259 30025 40065 60082 83530 333 10310 59006 83613 86361;
0169645030999992000011421004-03420+010650FM-12+003499999V0209999999999004201CN0100001N1+02401+02351100871ADDGA1041+003309069GF107991071051004501999999MA1999999100471MD1999999-0161REMSYN086    AAXX  14214 64503 42460 7//// 10240 20235 30047 40087 875// 333 59016 84611 87626;
0242645030999992000011506004-03420+010650FM-12+003499999V02099999999992200019N0150001N1+02301+02271100811ADDAA199000091GA1021+003909069GF104991021051004501031001IA2240+02209KA1120N+02251MA1999999100411MD1999999-0051REMSYN104    AAXX  15064 64503 32465 4//// 10230 20227 30041 40081 82530 333 02200 20225 50094 59005 82613 84360;EQDQ01  00002PRCP99
0182645030999992000011509004-03420+010650FM-12+003499999V02099999999992200019N0200001N1+02901+02451100901ADDGA1031+036009029GF103991031021999999031999MA1999999100581MD1999999+0011REMSYN080    AAXX  15094 64503 42970 3//// 10290 20245 30058 40090 83230 333 58001 83862;EQDQ01+000002SCOHCG
0249645030999992000011512004-03420+010650FM-12+003499999V02099999999992200019N0200001N1+03051+02561100851ADDAA199000091GA1021+003909089GA2031+075009009GF103991021999004501021999MA1999999100451MD1999999+0001REMSYN104    AAXX  15124 64503 32470 3//// 10305 20256 30045 40085 8202/ 333 0//00 58000 82813 83075 94912 95832;EQDQ01+000002SCOLCGQ02  00002PRCP99
0213645030999992000011515004-03420+010650FM-12+003499999V02099999999990750019N0200001N1+03001+02551100621ADDGA1031+004809089GA2041+005709099GA3051+075009009GF105991031021004501001021MA1999999100221MD1999999+0001REMSYN098    AAXX  15154 64503 42470 5//// 10300 20255 30022 40062 83202 333 58000 83816 85075 84919 95839;
0268645030999992000011518004-03420+010650FM-12+003499999V02099999999990330019N0150001N1+02671+02431100721ADDAA199000091GA1031+003909069GA2011+007809099GA3051+033009039GF105991041091004501031001KA1120M+03141MA1999999100321MD1999999+0071REMSYN110    AAXX  15184 64503 32465 5//// 10267 20243 30032 40072 84930 333 10314 58007 83613 81926 85361 94941 95831;EQDQ01  00002PRCP99
0313645030999992000011606004-03420+010650FM-12+003499999V02099999999990024019N0090001N1+02481+02481100911ADDAA124016091AC11C9AY191061AY261061GA1051+002409069GA2031+006009099GA3081+030009049GF108991061091002501021999IA2240+02209KA1120N+02381MA1999999100501MD1999999+0091MW1171REMSYN134    AAXX  16064 64503 11359 8//// 10248 20248 30050 40091 60164 71796 8692/ 333 02231 20238 50174 58009 85608 83920 88460 94959 95839;
0247645030999992000011609004-03420+010650FM-12+003499999V02099999999990060019N0080001N1+02181+02161101121ADDAY191031AY261031GA1041+002409069GA2011+006009099GA3081+030009049GF108991051091002501021999MA1999999100121MD1999999+0131MW1951REMSYN110    AAXX  16094 64503 41358 8//// 10218 20216 30012 40112 79596 8592/ 333 58013 84608 81920 88460 94945 95835;
0226645030999992000011612004-03420+010650FM-12+003499999V02099999999990033019N0100001N1+02751+02511100941ADDAA106008991AC13C9AY191061AY261061GA1051+003309069GF108991051051004501021999MA1999999100531MD1999999+0081MW1011REMSYN104    AAXX  16124 64503 11460 8//// 10275 20251 30053 40094 60091 70196 8552/ 333 0//33 58008 85611 88460;
0219645030999992000011615004-03420+010650FM-12+003499999V02099999999990300019N0150001N1+02671+02451100861ADDGA1031+003309069GA2011+006909099GA3081+030009049GF108991041091004501021999MA1999999100461MD1999999+0241REMSYN104    AAXX  16154 64503 42465 8//// 10267 20245 30046 40086 8492/ 333 58024 83611 81923 88460 94942 95832;
0255645030999992000011618004-03420+010650FM-12+003499999V02099999999990099019N0150001N1+02551+02481100781ADDAA112024991GA1031+003309069GA2011+006909099GA3061+009909069GF106991061091004501001001KA1120M+02851MA1999999100381MD1999999+0061REMSYN116    AAXX  16184 64503 12465 6//// 10255 20248 30038 40078 60252 86900 333 10285 58006 83611 81923 86633 94943 95833;
0335645030999992000011806004-03420+010650FM-12+003499999V02099999999990090019N0100001N1+02311+02311101001ADDAA124016091AC11C9AY191061AY261061GA1031+003309069GA2011+006009099GA3041+009009069GA4081+030009049GF108991061091004501021999IA2240+02109KA1120N+02311MA1999999100591MD1999999+0081MW1171REMSYN140    AAXX  18064 64503 11460 8//// 10231 20231 30059 40100 60164 71796 8692/ 333 02161 20231 50104 58008 83611 81920 84630 88460 94948 95838;
0169645030999992000011815004-03420+010650FM-12+003499999V0209999999999045001CN0150001N1+02801+02591100881ADDGA1041+003909069GF108991041051004501021999MA1999999100481MD1999999+0091REMSYN086    AAXX  18154 64503 42465 8//// 10280 20259 30048 40088 8452/ 333 58009 84613 88460;
0246645030999992000011818004-03420+010650FM-12+003499999V02099999999990450019N0100001N1+02581+02461100911ADDAA199000091GA1031+003009069GA2011+004809099GF105991031091004501021999KA1120M+03051MA1999999100501MD1999999+0041REMSYN104    AAXX  18184 64503 32460 5//// 10258 20246 30050 40091 8392/ 333 10305 58004 83610 81916 94944 95834;EQDQ01  00002PRCP99
0169645030999992000011903004-03420+010650FM-12+003499999V0209999999999045001CN0100001N1+02381+02351101021ADDGA1041+003009069GF108991041051004501021999MA1999999100611MD1999999+0101REMSYN086    AAXX  19034 64503 42460 8//// 10238 20235 30061 40102 8452/ 333 58010 84610 88460;
0242645030999992000011906004-03420+010650FM-12+003499999V0209999999999045001CN0100001N1+02401+02331101061ADDAA199000091GA1041+003009069GF108991041051004501021999IA2240+02209KA1120N+02381MA1999999100651MD1999999+0061REMSYN104    AAXX  19064 64503 32460 8//// 10240 20233 30065 40106 8452/ 333 02200 20238 50044 58006 84610 88460;EQDQ01  00002PRCP99
0238645030999992000012006004-03420+010650FM-12+0034FOOY V0209999999999105001CN0150001N1+02371+02341101071ADDAA199000091GA1031+003309069GF106991031051004501001021IA2240+02309KA1120N+02351MA1999999100661MD1999999+0011REMSYN100AAXX  20064 64503 32465 6//// 10237 20234 30066 40107 83502 333 02300 20235 50074 58001 83611 86073;EQDQ01  00002PRCP99
0171645030999992000012009004-03420+010650FM-12+0034FOOY V02099999999992200019N0200001N1+02771+02531101211ADDGA1031+004509089GF103991031021004501001001MA1999999100801MD1999999+0031REMSYN088AAXX  20094 64503 42470 3//// 10277 20253 30080 40121 83200 333 58003 83815 94919 95839;
0232645030999992000012106004-03420+010650FM-12+0034FOOY V02099999999992200019N0100001N1+02401+02371101081ADDAA199000091GA1031+003309059GF103991031051004501001001IA2240+02309KA1120N+02371MA1999999100671MD1999999+0011REMSYN094AAXX  21064 64503 32460 3//// 10240 20237 30067 40108 83500 333 02300 20237 50114 58001 83611;EQDQ01  00002PRCP99
0193645030999992000012109004-03420+010650FM-12+0034FOOY V02099999999990078019N0200001N1+02881+02511101131ADDGA1031+004509089GA2051+007809069GF105991051081004501001001MA1999999100721MD1999999-0081REMSYN094AAXX  21094 64503 42470 5//// 10288 20251 30072 40113 85800 333 59008 83815 85626 94919 95839;
0177645030999992000012115004-03420+010650FM-12+0034FOOY V02099999999992200019N0250001N1+02881+02591100701ADDGA1031+004509089GF103991031021004501001001MA1999999100301MD1999999-0111REMSYN094AAXX  21154 64503 42475 3//// 10288 20259 30030 40070 83200 915// 333 59011 83815 94939 95839;
0188645030999992000012118004-03420+010650FM-12+0034FOOY V02099999999990078019N0100001N1+02651+02461999999ADDAA199000091GA1061+007809059GF106991061001004501001999KA1120M+03101MA1999999100381REMSYN076AAXX  21184 64503 32460 6//// 10265 20246 30038 8600/ 333 10310 5953/ 86626;EQDQ01  00002PRCP99
0328645030999992000012206004-03420+010650FM-12+0034FOOY V0209999999999004801CN0100001N1+02501+02471101031ADDAA124018091AC13C9AY191061AY261061GA1041+003009069GA2011+004809099GA3071+030009049GF199999041091004501071999IA2240+02409KA1120N+02501MA1999999100621MD1999999-0051MW1011REMSYN130AAXX  22064 64503 11460 5//// 10250 20247 30062 40103 60184 70196 8497/ 333 02493 20250 50124 59005 84610 81916 87460 94945 95835;EQDQ01+000052SCOTCV
0193645030999992000012209004-03420+010650FM-12+0034FOOY V02099999999990039019N0150001N1+02751+02641101061ADDGA1051+003909089GA2061+030009039GF106991051021004501031001MA1999999100651MD1999999-0071REMSYN094AAXX  22094 64503 42465 6//// 10275 20264 30065 40106 85230 333 59007 85813 86360 94919 95839;
0207645030999992000012212004-03420+010650FM-12+0034FOOY V02099999999992200019N0200001N1+03001+02611100911ADDAA199000091GA1031+003909089GF103991031021004501001001MA1999999100501MD1999999-0041REMSYN094AAXX  22124 64503 32470 3//// 10300 20261 30050 40091 83200 333 0//00 59004 83813 94919 95839;EQDQ01  00002PRCP99
0221645030999992000012215004-03420+010650FM-12+0034FOOY V0209999999999006001CN0200001N1+03101+02621100591ADDGA1041+003909069GA2011+006009099GA3061+063009039GF106991031091004501031001MA1999999100891MD1999999-0111REMSYN106AAXX  22154 64503 42470 6//// 10310 20262 30089 40059 83930 913// 333 59011 84613 81920 86371 94941 95831;
0327645030999992000012306004-03420+010650FM-12+0034FOOY V02099999999990300019N0100001N1+02401+02331100941ADDAC12C9AY181061AY201061GA1031+003009069GA2011+004809099GA3081+030009049GF199999031091004501031001IA2240+02309KA1120N+02301MA1999999100531MD1999999-0051MW1171REMSYN124AAXX  23064 64503 11460 6//// 10240 20233 30053 40094 71787 83930 333 02352 20230 50104 59005 83610 81916 88460 94945 95835;EQDQ01+000062SCOTCVQ02+000072PSTWM2
0225645030999992000012406004-03420+010650FM-12+0034FOOY V02099999999990039019N0100001N1+02211+99999101101ADDAA124023991GA1051+003909069GF108991051051004501021999IA2240+02209KA1120N+02201MA1999999100691MD1999999+0161REMSYN106AAXX  24064 64503 12460 8//// 10221 20/19 30069 40110 60244 8552/ 333 02269 20220 50054 58016 85613 88460;
0165645030999992000012409004-03420+010650FM-12+0034FOOY V0209999999999045001CN0150001N1+02431+02271101231ADDGA1041+003909069GF107991041051004501071999MA1999999100821MD1999999+0191REMSYN082AAXX  24094 64503 42465 7//// 10243 20227 30082 40123 8457/ 333 58019 84613 87460;
0279645030999992000012418004-03420+010650FM-12+0034FOOY V02099999999990078019N0100001N1+02301+02171101011ADDAA112000191AY161061AY221061GA1041+003309069GA2011+007809099GA3081+030009049GF108991051091004501021999KA1120M+02651MA1999999100601MD1999999-0081MW1211REMSYN118AAXX  24184 64503 11460 8//// 10230 20217 30060 40101 69912 72162 8592/ 333 10265 59008 84611 81926 88460 94942 95832;
0182645030999992000012500004-03420+010650FM-12+0034FOOY V0209999999999004201CN0100001N1+02281+02261101051ADDAA199000021GA1031+003309069GF107991071051004501999999MA1999999100641MD1999999-0111REMSYN088AAXX  25004 64503 32460 7//// 10228 20226 30064 40105 875// 333 0//00 59011 83611 87626;
0213645030999992000012506004-03420+010650FM-12+0034FOOY V02099999999992200019N0150001N1+02271+02241101171ADDAA199000021GA1041+004509059GF104991041051004501001001IA2240+02209KA1120N+02211MA1999999100761MD1999999+0071REMSYN094AAXX  25064 64503 32465 4//// 10227 20224 30076 40117 84500 333 02200 20221 50054 58007 84615;
0165645030999992000012509004-03420+010650FM-12+0034FOOY V0209999999999045001CN0150001N1+02811+02381101251ADDGA1031+003909069GF107991031051004501031999MA1999999100841MD1999999+0021REMSYN082AAXX  25094 64503 42465 7//// 10281 20238 30084 40125 8353/ 333 58002 83613 87361;
0193645030999992000012515004-03420+010650FM-12+0034FOOY V02099999999992200019N0200001N1+03001+02521100821ADDGA1021+004509089GA2031+030009039GF103991021021004501031001MA1999999100421MD1999999-0151REMSYN094AAXX  25154 64503 42470 3//// 10300 20252 30042 40082 82230 333 59015 82815 83360 94912 95832;
0214645030999992000012518004-03420+010650FM-12+0034FOOY V0209999999999045001CN0150001N1+02621+02421100941ADDAA199000091GA1031+003909069GF105991031051004501031001KA1120M+03151MA1999999100531MD1999999-0071REMSYN088AAXX  25184 64503 32465 5//// 10262 20242 30053 40094 83530 333 10315 59007 83613 85360;EQDQ01  00002PRCP99
0238645030999992000012606004-03420+010650FM-12+0034FOOY V02099999999992200019N0150001N1+02401+02371101181ADDAA199000091GA1011+003909069GF103991011051004501031001IA2240+02309KA1120N+02281MA1999999100771MD1999999+0011REMSYN100AAXX  26064 64503 32465 3//// 10240 20237 30077 40118 81530 333 02300 20228 50034 58001 81613 83360;EQDQ01  00002PRCP99
0165645030999992000012703004-03420+010650FM-12+0034FOOY V0209999999999004201CN0100001N1+02351+02301101091ADDGA1041+003009069GF108991081051004501999999MA1999999100681MD1999999-0021REMSYN082AAXX  27034 64503 42460 8//// 10235 20230 30068 40109 885// 333 59002 84610 88623;
0228645030999992000012709004-03420+010650FM-12+0034FOOY V02099999999990330019N0200001N1+02731+02621100222ADDGA1031+003909089GA2061+033009039GF108991031021004501999001MA1999999100821MD1999999-0081REMSYN094AAXX  27094 64503 42470 8//// 10273 20262 30082 40022 83200 333 59008 83813 86361 94939 95839;EQDQ01+000002SCOMCGQ02+100223APOSLP
0171645030999992000012915004-03420+010650FM-12+0034FOOY V02099999999992200019N0250001N1+03001+02551100751ADDGA1031+004509089GF103991031021004501001001MA1999999100351MD1999999-0051REMSYN088AAXX  29154 64503 42475 3//// 10300 20255 30035 40075 83200 333 59005 83815 94939 95839;
0238645030999992000013006004-03420+010650FM-12+0034FOOY V0209999999999004201CN0100001N1+02431+02361101101ADDAA199000091GA1031+003009069GF106991061051004501001001IA2240+02209KA1120N+02201MA1999999100691MD1999999+0081REMSYN100AAXX  30064 64503 32460 6//// 10243 20236 30069 40110 86500 333 02200 20220 50124 58008 83610 86623;EQDQ01  00002PRCP99
0171645030999992000013009004-03420+010650FM-12+0034FOOY V02099999999992200019N0200001N1+02901+02591101191ADDGA1041+004509089GF104991041021004501001001MA1999999100781MD1999999+0051REMSYN088AAXX  30094 64503 42470 4//// 10290 20259 30078 40119 84200 333 58005 84815 94919 95839;
0229645030999992000013012004-03420+010650FM-12+0034FOOY V02099999999990300019N0200001N1+03101+02691101101ADDAA199000091GA1031+003909089GA2061+030009039GF106991031021004501031001MA1999999100691MD1999999+0031REMSYN100AAXX  30124 64503 32470 6//// 10310 20269 30069 40110 83230 333 0//00 58003 83813 86360 94919 95839;EQDQ01  00002PRCP99
0237645030999992000013015004-03420+010650FM-12+0034FOOY V02099999999990330019N0200001N1+03101+02691100841ADDGA1031+003909089GA2011+006009099GA3011+006009099GA4051+033009039GF105991031091004501031001MA1999999100441MD1999999+0021REMSYN106AAXX  30154 64503 42470 5//// 10310 20269 30044 40084 83930 333 58002 83813 81920 85361 81920 94941 95831;
0287645030999992000013106004-03420+010650FM-12+0034FOOY V0209999999999006001CN0100001N1+02381+02381101251ADDAA124011991AC13C9AY191061AY261061GA1041+003009069GA2011+006009099GF108991041091004501021999IA2240+02109KA1120N+02151MA1999999100841MD1999999+0151MW1171REMSYN124AAXX  31064 64503 11460 8//// 10238 20238 30084 40125 60124 71796 8492/ 333 02153 20215 50134 58015 84610 81920 94945 95835;
0165645030999992000013121004-03420+010650FM-12+0034FOOY V0209999999999004201CN0100001N1+02421+02411101391ADDGA1031+003309069GF107991071051004501999999MA1999999100981MD1999999+0101REMSYN082AAXX  31214 64503 42460 7//// 10242 20241 30098 40139 875// 333 58010 83611 87626;
0243645030999992000020115004-03420+010650FM-12+0034FOOY V02099999999990033019N0150001N1+02501+02371101181ADDAY191031AY221031GA1051+003309069GA2011+006009099GA3081+030009049GF108991051091004501071999MA1999999100771MD1999999+0061MW1171REMSYN106AAXX  01154 64503 41465 8//// 10250 20237 30077 40118 71792 8597/ 333 58006 85611 81920 88460 94948 95838;
0165645030999992000020209004-03420+010650FM-12+0034FOOY V02099999999990039019N0150001N1+02481+02291101291ADDGA1051+003909069GF108991051051004501071999MA1999999100881MD1999999-0131REMSYN082AAXX  02094 64503 42465 8//// 10248 20229 30088 40129 8557/ 333 59013 85613 88460;
0214645030999992000020218004-03420+010650FM-12+0034FOOY V0209999999999045001CN0150001N1+02581+02411100951ADDAA199000091GA1031+003309069GF105991031051004501031001KA1120M+03151MA1999999100541MD1999999-0051REMSYN088AAXX  02184 64503 32465 5//// 10258 20241 30054 40095 83530 333 10315 59005 83611 85361;EQDQ01  00002PRCP99
0165645030999992000020221004-03420+010650FM-12+0034FOOY V02099999999992200019N0150001N1+02451+02381101141ADDGA1031+003309069GF104991041051004501001001MA1999999100731MD1999999-0041REMSYN082AAXX  02214 64503 42465 4//// 10245 20238 30073 40114 84500 333 59004 83611 84620;
0165645030999992000020303004-03420+010650FM-12+0034FOOY V0209999999999004201CN0100001N1+02301+02271101081ADDGA1031+003309069GF105991051051004501001001MA1999999100871MD1999999-0031REMSYN082AAXX  03034 64503 42460 5//// 10230 20227 30087 40108 85500 333 59003 83611 85620;
0238645030999992000020306004-03420+010650FM-12+0034FOOY V0209999999999004201CN0100001N1+02451+02291101181ADDAA199000091GA1031+003309069GF107991061051004501031999IA2240+02309KA1120N+02381MA1999999100771MD1999999-0031REMSYN100AAXX  03064 64503 32460 7//// 10245 20229 30077 40118 8653/ 333 02300 20238 50114 59003 83611 87361;EQDQ01  00002PRCP99
0238645030999992000020406004-03420+010650FM-12+0034FOOY V0209999999999045001CN0100001N1+02481+02391101201ADDAA199000091GA1041+003909089GF105991041051004501031999IA2240+02209KA1120N+02401MA1999999100791MD1999999+0021REMSYN100AAXX  04064 64503 32460 5//// 10248 20239 30079 40120 8453/ 333 02200 20240 50124 58002 84813 87360;EQDQ01  00002PRCP99
0165645030999992000020409004-03420+010650FM-12+0034FOOY V0209999999999045001CN0200001N1+03001+02551101281ADDGA1031+003909069GF106991031021004501031001MA1999999100871MD1999999-0011REMSYN082AAXX  04094 64503 42470 6//// 10300 20255 30087 40128 83230 333 59001 83613 86361;
0316645030999992000020506004-03420+010650FM-12+0034FOOY V02099999999990069019N0100001N1+02421+02251101111ADDAA199000091AY191061AY221061GA1031+003009069GA2011+004809099GA3071+006909069GF107991071091004501999999IA2240+02209KA1120N+02231MA1999999100701MD1999999-0091MW1171REMSYN124AAXX  05064 64503 31460 7//// 10242 20225 30070 40111 71792 879// 333 02200 20223 50104 59009 83610 81916 87623 94945 95835;EQDQ01  00002PRCP99
0266645030999992000020606004-03420+010650FM-12+0034FOOY V0209999999999003001CN0080001N1+02401+02371101081ADDAA124006191GA1021+001509079GA2031+003009069GF107991031051001501071999IA2240+02309KA1120N+99999MA1999999100671MD1999999-0031REMSYN112AAXX  06064 64503 12258 7//// 10240 20237 30067 40108 60064 8357/ 333 02359 20262 50054 59003 82705 83610 87460;EQDQ01 +02622ATMN  
0288645030999992000020706004-03420+010650FM-12+0034FOOY V0209999999999003301CN0030001N1+02351+99999101231ADDAA199000091AY121061AY221061GA1021+001509079GA2031+003309069GF106991031051001501031001IA2240+02109KA1120N+02151MA1999999100821MD1999999+0151MW1101REMSYN112AAXX  07064 64503 31230 6//// 10235 20237 30082 40123 71022 83530 333 02100 20215 50064 58015 82705 83611 86360;EQDQ01  00002PRCP99
0287645030999992000020806004-03420+010650FM-12+0034FOOY V02099999999990780019N0060001N1+02201+02201101401ADDAA124005191AC11C9AY191061AY261061GA1041+002409069GA2051+078009069GF108991041091002501021999IA2240+02109KA1120N+02201MA1999999100891MD1999999+0101MW1951REMSYN124AAXX  08064 64503 11356 8//// 10220 20220 30089 40140 60054 79596 8492/ 333 02151 20220 50094 58010 84608 85676 94941 95831;
0243645030999992000020809004-03420+010650FM-12+0034FOOY V02099999999990330019N0080001N1+02221+02191101511ADDAY191031AY261031GA1031+002409069GA2011+006909099GA3081+033009049GF108991031091002501021999MA1999999101101MD1999999+0171MW1911REMSYN106AAXX  08094 64503 41358 8//// 10222 20219 30110 40151 79196 8392/ 333 58017 83608 81923 88461 94946 95836;
0165645030999992000020815004-03420+010650FM-12+0034FOOY V0209999999999045001CN0200001N1+02701+02411100941ADDGA1031+003309069GF107991031051004501031999MA1999999100531MD1999999+0021REMSYN082AAXX  08154 64503 42470 7//// 10270 20241 30053 40094 8353/ 333 58002 83611 87361;
0201645030999992000020818004-03420+010650FM-12+0034FOOY V0209999999999045001CN0100001N1+02401+02301100941ADDAA112027991GA1041+003909069GF107991041051004501031999KA1120M+02801MA1999999100531MD1999999-0151REMSYN094AAXX  08184 64503 12460 7//// 10240 20230 30053 40094 60282 8453/ 333 10280 59015 84613 87360;
0152645030999992000020914004-03420+010650FM-12+0034FOOY V02099999999992200019N9999999N1+02551+02401999999ADDAW1011AZ121999GA1031+003309059GF103991031051999999001001MD1999999-0701REMSYN070AAXX  09144 64503 24//0 3//// 10255 2024/ 70123 83500 333 59070 83611;
0159645030999992000020921004-03420+010650FM-12+0034FOOY V02099999999992200019N0100001N1+02551+02411101231ADDGA1031+003309059GF103991031051004501001001MA1999999100821MD1999999-0101REMSYN076AAXX  09214 64503 42460 3//// 10255 20241 30082 40123 83500 333 59010 83611;
0165645030999992000021003004-03420+010650FM-12+0034FOOY V0209999999999004201CN0100001N1+02381+02351101111ADDGA1041+003009069GF108991081051004501999999MA1999999100701MD1999999-0041REMSYN082AAXX  10034 64503 42460 8//// 10238 20235 30070 40111 885// 333 59004 84610 88626;
0238645030999992000021006004-03420+010650FM-12+0034FOOY V0209999999999045001CN0100001N1+02411+02371101131ADDAA199000091GA1031+003309069GF107991031051004501031999IA2240+02209KA1120N+02381MA1999999100721MD1999999-0051REMSYN100AAXX  10064 64503 32460 7///9 10241 20237 30072 40113 8353/ 333 02200 20238 50104 59005 83611 87361;EQDQ01  00002PRCP99
0193645030999992000021009004-03420+010650FM-12+0034FOOY V02099999999990360019N0200001N1+03001+02581101161ADDGA1031+004509089GA2051+036009039GF105991031021004501031001MA1999999100751MD1999999-0061REMSYN094AAXX  10094 64503 42470 5//// 10300 20258 30075 40116 83230 333 59006 83815 85362 94919 95839;
0229645030999992000021012004-03420+010650FM-12+0034FOOY V02099999999990360019N0200001N1+03101+02631101101ADDAA199000091GA1031+003909089GA2051+036009039GF105991031021004501031001MA1999999100691MD1999999-0041REMSYN100AAXX  10124 64503 32470 5//// 10310 20263 30069 40110 83230 333 0//00 59004 83813 85362 94919 95839;EQDQ01  00002PRCP99
0243645030999992000021015004-03420+010650FM-12+0034FOOY V02099999999990360019N0200001N1+03201+02651100831ADDAY191031AY221031GA1021+003909089GA2011+006009099GA3061+036009039GF106991031071004501031001MA1999999100431MD1999999-0021MW1171REMSYN106AAXX  10154 64503 41470 6//// 10320 20265 30043 40083 71792 83730 333 59002 82813 81920 86362 94941 95871;
0292645030999992000021018004-03420+010650FM-12+0034FOOY V02099999999990330019N0150001N1+02711+02531100821ADDAA199000091AY191061AY221061GA1031+003909029GA2011+007809099GA3051+033009039GF105991041091004501031001KA1120M+03381MA1999999100421MD1999999-0081MW1021REMSYN112AAXX  10184 64503 31465 5//// 10271 20253 30042 40082 70292 84930 333 10338 59008 83213 81926 85361 94944 95834;EQDQ01  00002PRCP99
0316645030999992000021106004-03420+010650FM-12+0034FOOY V02099999999990033019N0036001N1+02451+02381101211ADDAA199000091AY191061AY221061GA1081+003309049GA2011+003909099GA3081+030009049GF108991051091004501021999IA2240+02309KA1120N+02311MA1999999100841MD1999999+0111MW1171REMSYN124AAXX  11064 64503 31436 8//// 10245 20238 30084 40121 71792 8592/ 333 02300 20231 50114 58011 88411 81913 88460 94941 95871;EQDQ01  00002PRCP99
0273645030999992000021109004-03420+010650FM-12+0034FOOY V0209999999999007501CN0150001N1+02701+02631101191ADDAA199000091AY191031AY261031GA1041+003309069GA2011+007509099GA3071+030009049GF107991041091004501071999MA1999999100781MD1999999+0031MW1291REMSYN106AAXX  11094 64503 31465 7//// 10270 20263 30078 40119 72996 8497/ 333 58003 84611 81925 87460 94944 95834;EQDQ01  00002PRCP99
0193645030999992000021115004-03420+010650FM-12+0034FOOY V02099999999990360019N0200001N1+03011+02681100941ADDGA1031+003909089GA2061+036009039GF108991031021004501031001MA1999999100341MD1999999-0091REMSYN094AAXX  11154 64503 42470 8//// 10301 20268 30034 40094 83230 333 59009 83813 86362 94919 95839;
0279645030999992000021118004-03420+010650FM-12+0034FOOY V02099999999990048019N0200001N1+02701+02431100841ADDAA112000191AY191061AY281061GA1021+002109069GA2041+003009069GA3071+004809069GF107991041091002501071999KA1120M+03101MA1999999100441MD1999999+0041MW1171REMSYN118AAXX  11184 64503 11370 7//// 10270 20243 30044 40084 69912 71798 8497/ 333 10310 58004 82607 84610 87616 94919 95833;
0165645030999992000021209004-03420+010650FM-12+0034FOOY V0209999999999045001CN0150001N1+02551+02451101191ADDGA1031+003309069GF108991031051004501071999MA1999999100781MD1999999+0001REMSYN082AAXX  12094 64503 42465 8//// 10255 20245 30078 40119 8357/ 333 58000 83611 88460;
0201645030999992000021212004-03420+010650FM-12+0034FOOY V0209999999999045001CN0200001N1+02851+02501101251ADDAA199000091GA1031+003909089GF107991031051004501071999MA1999999100891MD1999999+0121REMSYN088AAXX  12124 64503 32470 7//// 10285 20250 30089 40125 8357/ 333 0//00 58012 83813 87461;EQDQ01  00002PRCP99
0193645030999992000021215004-03420+010650FM-12+0034FOOY V02099999999990360019N0200001N1+02901+02551100851ADDGA1031+003909089GA2051+036009039GF105991031021004501031001MA1999999100451MD1999999+0111REMSYN094AAXX  12154 64503 42470 5//// 10290 20255 30045 40085 83230 333 58011 83813 85362 94919 95839;
0316645030999992000021306004-03420+010650FM-12+0034FOOY V02099999999990330019N0100001N1+02421+02391101111ADDAA199000091AY191061AY221061GA1031+003009069GA2011+004809099GA3061+033009039GF106991031091004501031001IA2240+02209KA1120N+02251MA1999999100701MD1999999-0111MW1171REMSYN124AAXX  13064 64503 31460 6//// 10242 20239 30070 40111 71792 83930 333 02200 20225 50054 59011 83610 81916 86361 94945 95835;EQDQ01  00002PRCP99
0221645030999992000021309004-03420+010650FM-12+0034FOOY V02099999999990300019N0150001N1+02611+02431101201ADDAY191031AY221031GA1031+003909089GA2061+030009039GF106991041081004501031001MA1999999100791MD1999999+0011MW1011REMSYN100AAXX  13094 64503 41465 6//// 10261 20243 30079 40120 70192 84830 333 58001 83813 86360 94919 95839;
0238645030999992000021406004-03420+010650FM-12+0034FOOY V0209999999999045001CN0100001N1+02451+02351101081ADDAA199000091GA1041+003009069GF108991041051004501071999IA2240+02309KA1120N+02411MA1999999100671MD1999999-0031REMSYN100AAXX  14064 64503 32460 8//// 10245 20235 30067 40108 8457/ 333 02300 20241 50094 59003 84610 88460;EQDQ01  00002PRCP99
0207645030999992000021412004-03420+010650FM-12+0034FOOY V02099999999992200019N0200001N1+03201+02551101011ADDAA199000091GA1041+004509089GF104991041021004501001001MA1999999100601MD1999999-0071REMSYN094AAXX  14124 64503 32470 4//// 10320 20255 30060 40101 84200 333 0//00 59007 84815 94939 95839;EQDQ01  00002PRCP99
0243645030999992000021415004-03420+010650FM-12+0034FOOY V0209999999999006001CN0100001N1+02821+02541100851ADDAY191031AY211031GA1041+003309069GA2011+006009099GA3081+030009049GF108991041091004501021999MA1999999100451MD1999999-0131MW1171REMSYN106AAXX  14154 64503 41460 8//// 10282 20254 30045 40085 71791 8492/ 333 59013 84611 81920 88460 94942 95832;
0292645030999992000021418004-03420+010650FM-12+0034FOOY V02099999999990033019N0100001N1+02531+02461100921ADDAA199000091AY191061AY221061GA1051+003309069GA2011+006909099GA3081+030009049GF108991051091004501071999KA1120M+03321MA1999999100511MD1999999-0101MW1021REMSYN112AAXX  14184 64503 31460 8//// 10253 20246 30051 40092 70292 8597/ 333 10332 59010 85611 81923 88460 94944 95834;EQDQ01  00002PRCP99
0288645030999992000021506004-03420+010650FM-12+0034FOOY V02099999999990300019N0100001N1+02451+02411101131ADDAA199000091GA1031+003009059GA2011+004809099GA3081+030009049GF108991031091004501021999IA2240+02309KA1120N+02451MA1999999100721MD1999999+0051REMSYN118AAXX  15064 64503 32460 8//// 10245 20241 30072 40113 8392/ 333 02300 20245 50104 58005 83510 81916 88460 94946 95836;EQDQ01  00002PRCP99
0243645030999992000021509004-03420+010650FM-12+0034FOOY V02099999999990060019N0100001N1+02501+02501101211ADDAY191031AY261031GA1041+002409089GA2011+006009099GA3081+030009049GF108991051091002501021999MA1999999100801MD1999999+0051MW1171REMSYN106AAXX  15094 64503 41360 8//// 10250 20250 30080 40121 71796 8592/ 333 58005 84808 81920 88460 94945 95835;
0243645030999992000021515004-03420+010650FM-12+0034FOOY V02099999999990300019N0150001N1+02721+02421100881ADDAY191031AY291031GA1031+003909029GA2011+006909099GA3081+030009049GF108991041091004501071999MA1999999100481MD1999999+0031MW1171REMSYN106AAXX  15154 64503 41465 8//// 10272 20242 30048 40088 71799 8497/ 333 58003 83213 81923 88460 94944 95834;
0165645030999992000021600004-03420+010650FM-12+0034FOOY V0209999999999045001CN0100001N1+02331+02291101031ADDGA1041+003009069GF108991041051004501021999MA1999999100121MD1999999-0051REMSYN082AAXX  16004 64503 42460 8//// 10233 20229 30012 40103 8452/ 333 59005 84610 88460;
0165645030999992000021603004-03420+010650FM-12+0034FOOY V0209999999999045001CN0100001N1+02331+02291101031ADDGA1041+003009069GF108991041051004501021999MA1999999100621MD1999999-0051REMSYN082AAXX  16034 64503 42460 8//// 10233 20229 30062 40103 8452/ 333 59005 84610 88460;
0225645030999992000021606004-03420+010650FM-12+0034FOOY V0209999999999045001CN0100001N1+02331+02291101101ADDAA124000591GA1031+003009069GF108991031051004501071999IA2240+02209KA1120N+02331MA1999999100691MD1999999-0031REMSYN106AAXX  16064 64503 12460 8//// 10233 20229 30069 40110 69964 8357/ 333 02229 20233 50054 59003 83610 88460;
0193645030999992000021615004-03420+010650FM-12+0034FOOY V02099999999990450019N0200001N1+03131+02651100891ADDGA1031+004509089GA2061+045009039GF106991031021004501031001MA1999999100491MD1999999+0011REMSYN094AAXX  16154 64503 42470 6//// 10313 20265 30049 40089 83230 333 58001 83815 86365 94919 95839;
0214645030999992000021618004-03420+010650FM-12+0034FOOY V0209999999999105001CN0150001N1+02681+02481100951ADDAA199000091GA1031+003309069GF105991031041004501001021KA1120M+03411MA1999999100541MD1999999-0031REMSYN088AAXX  16184 64503 32465 5//// 10268 20248 30054 40095 83402 333 10341 59003 83611 85073;EQDQ01  00002PRCP99
0316645030999992000021706004-03420+010650FM-12+0034FOOY V02099999999990330019N0100001N1+02461+02401101091ADDAA199000091AY191061AY221061GA1031+003009069GA2011+004809099GA3051+033009039GF105991031091004501061001IA2240+02309KA1120N+02461MA1999999100681MD1999999-0011MW1171REMSYN124AAXX  17064 64503 31460 5//// 10246 20240 30068 40109 71792 83960 333 02300 20246 50104 59001 83610 81916 85361 94946 95836;EQDQ01  00002PRCP99
0316645030999992000021709004-03420+010650FM-12+0034FOOY V02099999999990330019N0100001N1+02461+02401101091ADDAA199000091AY191031AY221031GA1031+003009069GA2011+004809099GA3051+033009039GF105991031091004501061001IA2240+02309KA1120N+02461MA1999999100681MD1999999-0011MW1171REMSYN124AAXX  17094 64503 31460 5//// 10246 20240 30068 40109 71792 83960 333 02300 20246 50104 59001 83610 81916 85361 94946 95836;EQDQ01  00002PRCP99
0214645030999992000021718004-03420+010650FM-12+0034FOOY V02099999999992200019N0100001N1+02701+02531100931ADDAA199000091GA1021+003309069GF103991031051004501031001KA1120M+03281MA1999999100521MD1999999-0021REMSYN088AAXX  17184 64503 32460 3//// 10270 20253 30052 40093 83530 333 10328 59002 82611 83360;EQDQ01  00002PRCP99
0309645030999992000021806004-03420+010650FM-12+0034FOOY V0209999999999003901CN0080001N1+02401+02401101051ADDAA124007991AC11C9AY191061AY261061GA1041+002409069GA2011+003909099GA3081+030009049GF108991041091002501021999IA2240+02309KA1120N+02401MA1999999100641MD1999999-0041MW1951REMSYN130AAXX  18064 64503 11358 8//// 10240 20240 30064 40105 60084 79596 8492/ 333 02321 20240 50104 59004 84608 81913 88460 94945 95815;
0243645030999992000021809004-03420+010650FM-12+0034FOOY V02099999999990360019N0150001N1+02601+02531101211ADDAY191031AY261031GA1031+003909069GA2011+007509099GA3061+036009039GF106991031091004501031001MA1999999100801MD1999999-0041MW1291REMSYN106AAXX  18094 64503 41465 6//// 10260 20253 30080 40121 72996 83930 333 59004 83613 81925 86362 94945 95835;
0201645030999992000021818004-03420+010650FM-12+0034FOOY V0209999999999045001CN0150001N1+02601+02431100851ADDAA112000891GA1031+003909069GF105991031051004501031001KA1120M+03171MA1999999100451MD1999999-0071REMSYN094AAXX  18184 64503 12465 5//// 10260 20243 30045 40085 69972 83530 333 10317 59007 83613 85360;
0225645030999992000021906004-03420+010650FM-12+0034FOOY V0209999999999045001CN0150001N1+02381+02351101031ADDAA124000891GA1031+003309069GF107991031051004501071999IA2240+02309KA1120N+02381MA1999999100621MD1999999-0021REMSYN106AAXX  19064 64503 12465 7//// 10238 20235 30062 40103 69974 8357/ 333 02329 20238 50074 59002 83611 87461;
0171645030999992000021909004-03420+010650FM-12+0034FOOY V02099999999992200019N0200001N1+02901+02661101181ADDGA1041+004509089GF104991041021008001001001MA1999999100771MD1999999-0031REMSYN088AAXX  19094 64503 42570 4//// 10290 20266 30077 40118 84200 333 59003 84815 94919 95839;
0229645030999992000021912004-03420+010650FM-12+0034FOOY V02099999999990750019N0200001N1+03301+02761101061ADDAA199000091GA1031+004809089GA2051+075009009GF105991031021004501001021MA1999999100651MD1999999-0021REMSYN100AAXX  19124 64503 32470 5//// 10330 20276 30065 40106 83202 333 0//00 59002 83816 85075 94919 95839;EQDQ01  00002PRCP99
0242645030999992000021918004-03420+010650FM-12+0034FOOY V0209999999999045001CN0150001N1+02701+02561100821ADDAA199000091AY191061AY221061GA1041+003909069GF107991041061004501071999KA1120M+03401MA1999999100421MD1999999-0031MW1171REMSYN094AAXX  19184 64503 31465 7//// 10270 20256 30042 40082 71792 8467/ 333 10340 59003 84613 87460;EQDQ01  00002PRCP99
0331645030999992000022006004-03420+010650FM-12+0034FOOY V02099999999990030019N0040001N1+02321+02321101131ADDAA124050091AC11C9AY191061AY251061GA1021+001509059GA2051+003009089GA3011+004809099GA4081+030009049GF108991051011001501021999IA2240+02309KA1120N+02251MA1999999100721MD1999999+0101MW1951REMSYN136AAXX  20064 64503 11240 8//// 10232 20232 30072 40113 60504 79595 8512/ 333 02351 20225 50134 58010 82505 85810 81916 88460 94934 95835;
0243645030999992000022009004-03420+010650FM-12+0034FOOY V02099999999990060019N0100001N1+02401+02301101221ADDAY191031AY261031GA1041+004809069GA2051+006009069GA3081+030009049GF108991081051004501999999MA1999999100421MD1999999+0061MW1171REMSYN106AAXX  20094 64503 41460 8//// 10240 20230 30042 40122 71796 885// 333 58006 84616 85620 88460 94948 95876;
0165645030999992000022015004-03420+010650FM-12+0034FOOY V02099999999990039019N0250001N1+02601+02381100961ADDGA1051+003909069GF108991051051004501071999MA1999999100551MD1999999+0091REMSYN082AAXX  20154 64503 42475 8//// 10260 20238 30055 40096 8557/ 333 58009 85613 88461;
0201645030999992000022018004-03420+010650FM-12+0034FOOY V0209999999999045001CN0100001N1+02421+02321101041ADDAA112070191GA1041+003309069GF107991041051004501071999KA1120M+02651MA1999999100631MD1999999+0211REMSYN094AAXX  20184 64503 12460 7//// 10242 20232 30063 40104 60702 8457/ 333 10265 58021 84611 87460;
0238645030999992000022106004-03420+010650FM-12+0034FOOY V0209999999999045001CN0100001N1+02301+02231101091ADDAA199000091GA1021+003909069GF107991021051004501031999IA2240+02209KA1120N+02251MA1999999100681MD1999999-0041REMSYN100AAXX  21064 64503 32460 7//// 10230 20223 30068 40109 8253/ 333 02200 20225 50054 59004 82613 87360;EQDQ01  00002PRCP99
0165645030999992000022109004-03420+010650FM-12+0034FOOY V02099999999992200019N0200001N1+02881+02351101241ADDGA1021+003909069GF104991021051004501031001MA1999999100831MD1999999-0021REMSYN082AAXX  21094 64503 42470 4//// 10288 20235 30083 40124 82530 333 59002 82613 84362;
0215645030999992000022115004-03420+010650FM-12+0034FOOY V02099999999990360019N0200001N1+03101+02501100831ADDGA1021+004809089GA2011+007809099GA3061+036009039GF106991031091004501031001MA1999999100431MD1999999-0121REMSYN100AAXX  21154 64503 42470 6//// 10310 20250 30043 40083 83930 333 59012 82816 81926 86362 94942 95832;
0264645030999992000022118004-03420+010650FM-12+0034FOOY V02099999999990330019N0150001N1+02701+02411100881ADDAA199000091GA1031+003309069GA2011+007809099GA3051+033009039GF105991041091004501031001KA1120M+03301MA1999999100481MD1999999-0151REMSYN106AAXX  21184 64503 32465 5//// 10270 20241 30048 40088 84930 333 10330 59015 83611 81926 85361 94942 95832;EQDQ01  00002PRCP99
0165645030999992000022121004-03420+010650FM-12+0034FOOY V0209999999999004201CN0100001N1+02451+02301101141ADDGA1031+003309069GF106991061051004501001001MA1999999100731MD1999999-0111REMSYN082AAXX  21214 64503 42460 6//// 10245 20230 30073 40114 86500 333 59011 83611 85623;
0238645030999992000022206004-03420+010650FM-12+0034FOOY V0209999999999045001CN0100001N1+02421+02321101141ADDAA199000091GA1031+003909069GF107991031051004501031999IA2240+02209KA1120N+02401MA1999999100731MD1999999+0051REMSYN100AAXX  22064 64503 32460 7//// 10242 20232 30073 40114 8353/ 333 02200 20240 50094 58005 83613 87361;EQDQ01  00002PRCP99
0251645030999992000022212004-03420+010650FM-12+0034FOOY V02099999999990360019N0200001N1+03181+02541101081ADDAA199000091GA1021+004809089GA2011+007809099GA3051+036009039GF105991031091004501031001MA1999999100671MD1999999+0031REMSYN106AAXX  22124 64503 32470 5//// 10318 20254 30067 40108 83930 333 0//00 58003 82816 81926 85362 94942 95832;EQDQ01  00002PRCP99
0243645030999992000022215004-03420+010650FM-12+0034FOOY V02099999999990330019N0150001N1+03001+02551100841ADDAY191031AY221031GA1031+003909089GA2011+006009099GA3071+033009039GF107991031091004501071999MA1999999100441MD1999999+0011MW1171REMSYN106AAXX  22154 64503 41465 7//// 10300 20255 30044 40084 71792 8397/ 333 58001 83813 81920 87361 94941 95871;
0292645030999992000022218004-03420+010650FM-12+0034FOOY V02099999999990300019N0150001N1+02701+02531100911ADDAA199000091AY191061AY221061GA1031+003909069GA2011+007809099GA3071+030009039GF107991041091004501071999KA1120M+03371MA1999999100501MD1999999+0021MW1291REMSYN112AAXX  22184 64503 31465 7//// 10270 20253 30050 40091 72992 8497/ 333 10337 58002 83613 81926 87360 94945 95835;EQDQ01  00002PRCP99
0165645030999992000022221004-03420+010650FM-12+0034FOOY V02099999999990033019N0100001N1+02651+02511101031ADDGA1051+003309069GF108991051051004501071999MA1999999100621MD1999999-0111REMSYN082AAXX  22214 64503 42460 8//// 10265 20251 30062 40103 8557/ 333 59011 85611 88460;
0238645030999992000022306004-03420+010650FM-12+0034FOOY V0209999999999045001CN0150001N1+02551+02481101051ADDAA199000091GA1031+003309069GF106991031051004501031001IA2240+02309KA1120N+02421MA1999999100641MD1999999-0091REMSYN100AAXX  23064 64503 32465 6//// 10255 20248 30064 40105 83530 333 02300 20242 50114 59009 83611 86361;EQDQ01  00002PRCP99
0250645030999992000022312004-03420+010650FM-12+0034FOOY V02099999999990330019N0100001N1+02801+02471101051ADDAA106005191AC12C9AY191061AY261061GA1031+003909089GA2061+033009039GF106991031021004501031001MA1999999100641MD1999999-0131MW1011REMSYN112AAXX  23124 64503 11460 6//// 10280 20247 30064 40105 60051 70196 83230 333 0//52 59013 83813 86361 94919 95839;
0215645030999992000022315004-03420+010650FM-12+0034FOOY V02099999999990690019N0200001N1+03081+02481100811ADDGA1031+004509089GA2011+006009099GA3051+069009009GF105991031091004501001021MA1999999100411MD1999999-0031REMSYN100AAXX  23154 64503 42470 5//// 10308 20248 30041 40081 83902 333 59003 83815 81920 85073 94942 95832;
0201645030999992000022318004-03420+010650FM-12+0034FOOY V0209999999999004201CN0100001N1+02701+02491100821ADDAA112005191GA1031+003309069GF105991051051004501001001KA1120M+03301MA1999999100421MD1999999+0081REMSYN094AAXX  23184 64503 12460 5//// 10270 20249 30042 40082 60052 85500 333 10330 58008 83611 85626;
0215645030999992000022403004-03420+010650FM-12+0034FOOY V0209999999999004801CN0100001N1+02531+02491100931ADDGA1041+003009069GA2011+004809099GA3081+030009049GF108991041091004501021999MA1999999100521MD1999999-0061REMSYN100AAXX  24034 64503 42460 8//// 10253 20249 30052 40093 8492/ 333 59006 84610 81916 88460 94946 95836;
0275645030999992000022406004-03420+010650FM-12+0034FOOY V0209999999999004801CN0100001N1+02531+02491100961ADDAA124005191GA1041+003009069GA2011+004809099GA3081+030009049GF108991041091004501021999IA2240+02409KA1120N+02531MA1999999100551MD1999999-0091REMSYN124AAXX  24064 64503 12460 8//// 10253 20249 30055 40096 60054 8492/ 333 02459 20253 50124 59009 84610 81916 88460 94946 95836;
0243645030999992000022409004-03420+010650FM-12+0034FOOY V02099999999990078019N0150001N1+02701+02561101071ADDAY161031AY221031GA1041+003309069GA2011+007809099GA3081+030009049GF108991051091004501021999MA1999999100661MD1999999-0131MW1021REMSYN106AAXX  24094 64503 41465 8//// 10270 20256 30066 40107 70262 8592/ 333 59013 84611 81926 88460 94943 95833;
0201645030999992000022418004-03420+010650FM-12+0034FOOY V0209999999999045001CN0100001N1+02681+02551100811ADDAA112002091GA1031+003309079GF105991031051004501031001KA1120M+03041MA1999999100411MD1999999-0011REMSYN094AAXX  24184 64503 12460 5//// 10268 20255 30041 40081 60022 83530 333 10304 59001 83711 85360;
0243645030999992000022515004-03420+010650FM-12+0034FOOY V02099999999992200019N0200001N1+03141+02531100751ADDAY191031AY211031GA1021+004509089GA2011+006009099GA3031+069009009GF104991021091004501001031MA1999999100351MD1999999+0021MW1171REMSYN106AAXX  25154 64503 41470 4//// 10314 20253 30035 40075 71791 82903 333 58002 82815 81920 83073 94941 95831;
0242645030999992000022518004-03420+010650FM-12+0034FOOY V0209999999999105001CN0100001N1+02731+02311100801ADDAA199000091AY191061AY211061GA1031+003909069GF105991031051004501001021KA1120M+03331MA1999999100401MD1999999-0011MW1031REMSYN094AAXX  25184 64503 31460 5//// 10273 20231 30040 40080 70391 83502 333 10333 59001 83613 85075;EQDQ01  00002PRCP99
0288645030999992000022606004-03420+010650FM-12+0034FOOY V02099999999990300019N0100001N1+02601+02501101041ADDAA199000091GA1031+003009069GA2011+004809099GA3071+030009049GF107991031091004501071999IA2240+02409KA1120N+02571MA1999999100631MD1999999+0001REMSYN118AAXX  26064 64503 32460 7//// 10260 20250 30063 40104 8397/ 333 02400 20257 50154 58000 83610 81916 87460 94947 95837;EQDQ01  00002PRCP99
0243645030999992000022609004-03420+010650FM-12+0034FOOY V02099999999990330019N0150001N1+02981+02591101121ADDAY191031AY221031GA1031+003909089GA2011+006009099GA3061+033009039GF106991031091004501031001MA1999999100711MD1999999+0001MW1171REMSYN106AAXX  26094 64503 41465 6//// 10298 20259 30071 40112 71792 83930 333 58000 83813 81920 86361 94946 95836;
0243645030999992000022615004-03420+010650FM-12+0034FOOY V02099999999990300019N0090001N1+02401+02401100711ADDAY191031AY261031GA1031+002409069GA2011+006009099GA3081+030009049GF108991041091002501021999MA1999999100311MD1999999-0041MW1951REMSYN106AAXX  26154 64503 41359 8//// 10240 20240 30031 40071 79596 8492/ 333 59004 83608 81920 88460 94944 95834;
0165645030999992000022703004-03420+010650FM-12+0034FOOY V0209999999999004201CN0100001N1+02331+02301100891ADDGA1041+003009069GF108991081051004501999999MA1999999100491MD1999999-0101REMSYN082AAXX  27034 64503 42460 8//// 10233 20230 30049 40089 885// 333 59010 84610 88626;
0236645030999992000022706004-03420+010650FM-12+0034FOOY V0209999999999045001CN0100001N1+02351+02331100931ADDAY151061AY241061GA1041+003309069GF107991041051004501071999IA2240+02109KA1120N+02341MA1999999100521MD1999999-0111MW1031REMSYN106AAXX  27064 64503 12460 7//// 10235 20233 30052 40093 70354 8457/ 333 02169 20234 50044 59011 84611 87460;
0193645030999992000022709004-03420+010650FM-12+0034FOOY V02099999999990300019N0150001N1+02611+02441101051ADDGA1011+003309089GA2071+030009039GF107991011011004501031999MA1999999100641MD1999999-0051REMSYN094AAXX  27094 64503 42465 7//// 10261 20244 30064 40105 8113/ 333 59005 81811 87360 94901 95831;
0243645030999992000022715004-03420+010650FM-12+0034FOOY V0209999999999006001CN0100001N1+02781+02381100761ADDAY191031AY291031GA1041+003309069GA2011+006009099GA3081+999999039GF108991041091004501071999MA1999999100361MD1999999+0051MW1171REMSYN106AAXX  27154 64503 41460 8//// 10278 20238 30036 40076 71799 8497/ 333 58005 84611 81920 8830/ 94948 95878;
0225645030999992000022806004-03420+010650FM-12+0034FOOY V02099999999990450019N0150001N1+02401+02331100901ADDAA199000091GA1031+003309069GF106991031051004501031001IA2240+02209MA1999999100581MD1999999+0061REMSYN100AAXX  28064 64503 32465 6//// 10240 20233 30058 40090 83530 333 02200 50234 50074 58006 83611 86361;EQDQ01  00002PRCP99
0074645030999992000022809004-03420+010650FM-12+0034FOOY V02099999999999999999N0200001N1+02881+99999999999ADDGF105991999999004501999999REMSYN036AAXX  28094 64503 41470 5//// 10288;
0257645030999992000022812004-03420+010650FM-12+0034FOOY V02099999999990360019N0200001N1+02891+02691101051ADDAA199000091AY191061AY221061GA1031+004509089GA2071+036009039GF107991031021004501031999MA1999999100641MD1999999+0281MW1021REMSYN106AAXX  28124 64503 31470 7//// 10289 20269 30064 40105 70292 8323/ 333 0//00 58028 83815 87362 94919 95839;EQDQ01  00002PRCP99
0243645030999992000022815004-03420+010650FM-12+0034FOOY V02099999999990330019N0150001N1+02901+02591100801ADDAY191031AY221031GA1031+003909089GA2011+004809099GA3061+033009039GF106991031091004501031001MA1999999100401MD1999999+0041MW1171REMSYN106AAXX  28154 64503 41465 6//// 10290 20259 30040 40080 71792 83930 333 58004 83813 81916 86361 94942 95832;
0292645030999992000022818004-03420+010650FM-12+0034FOOY V02099999999990330019N0150001N1+02701+02581100941ADDAA199000091AY191061AY221061GA1031+003909069GA2011+007809099GA3061+033009039GF106991031091004501031001KA1120M+03001MA1999999100531MD1999999+0021MW1131REMSYN112AAXX  28184 64503 31465 6//// 10270 20258 30053 40094 71392 83930 333 10300 58002 83613 81926 86361 94943 95833;EQDQ01  00002PRCP99
0288645030999992000022906004-03420+010650FM-12+0034FOOY V02099999999990300019N0100001N1+02471+02381101171ADDAA199000091GA1031+003009069GA2011+004809099GA3071+030009049GF107991031091004501071999IA2240+02309KA1120N+02451MA1999999100761MD1999999+0181REMSYN118AAXX  29064 64503 32460 7//// 10247 20238 30076 40117 8397/ 333 02300 20245 50084 58018 83610 81916 87460 94942 95832;EQDQ01  00002PRCP99
0193645030999992000022909004-03420+010650FM-12+0034FOOY V02099999999990330019N0200001N1+03001+02611101251ADDGA1031+003909089GA2051+033009039GF105991031021004501031001MA1999999100841MD1999999+0061REMSYN094AAXX  29094 64503 42470 5//// 10300 20261 30084 40125 83230 333 58006 83813 85361 94919 95819;
0243645030999992000022915004-03420+010650FM-12+0034FOOY V02099999999990300019N0150001N1+02801+02521100931ADDAY191031AY261031GA1031+003309069GA2011+004809099GA3071+030009049GF107991041091004501071999MA1999999100521MD1999999+0121MW1171REMSYN106AAXX  29154 64503 41465 7//// 10280 20252 30052 40093 71796 8497/ 333 58012 83611 81916 87460 94942 95872;
0242645030999992000022918004-03420+010650FM-12+0034FOOY V0209999999999045001CN0100001N1+02701+02561100991ADDAA199000091AY191061AY221061GA1031+003909069GF105991031051004501031001KA1120M+03271MA1999999100581MD1999999+0051MW1011REMSYN094AAXX  29184 64503 31460 5//// 10270 20256 30058 40099 70192 83530 333 10327 58005 83613 85361;EQDQ01  00002PRCP99
0221645030999992000030109004-03420+010650FM-12+0034FOOY V02099999999992200019N0200001N1+03051+02231101161ADDAY191031AY221031GA1031+003909089GA2041+033009039GF104991031021004501031001MA1999999100751MD1999999-0091MW1291REMSYN100AAXX  01094 64503 41470 4//// 10305 20223 30075 40116 72992 83230 333 59009 83813 84361 94919 95839;
0238645030999992000030206004-03420+010650FM-12+0034FOOY V0209999999999045001CN0150001N1+02511+02481101081ADDAA199000091GA1031+003309069GF107991031051004501031999IA2240+02309KA1120N+02451MA1999999100671MD1999999-0081REMSYN100AAXX  02064 64503 32465 7//// 10251 20248 30067 40108 8353/ 333 02300 20245 50094 59008 83611 87361;EQDQ01  00002PRCP99
0193645030999992000030209004-03420+010650FM-12+0034FOOY V02099999999990360019N0200001N1+02901+02621101231ADDGA1041+004509089GA2061+036009039GF106991041021004501031001MA1999999100821MD1999999+0071REMSYN094AAXX  02094 64503 42470 6//// 10290 20262 30082 40123 84230 333 58007 84815 86362 94919 95839;
0229645030999992000030212004-03420+010650FM-12+0034FOOY V02099999999990750019N0200001N1+03181+02691101061ADDAA199000091GA1031+004809089GA2061+075009009GF106991031021004501001021MA1999999100651MD1999999+0011REMSYN100AAXX  02124 64503 32470 6//// 10318 20269 30065 40106 83202 333 0//00 58001 83816 86075 94919 95839;EQDQ01  00002PRCP99
0243645030999992000030215004-03420+010650FM-12+0034FOOY V02099999999990360019N0200001N1+03101+02691100781ADDAY191031AY221031GA1031+003909089GA2011+006909099GA3051+036009039GF105991031091004501031001MA1999999100681MD1999999-0031MW1171REMSYN106AAXX  02154 64503 41470 5//// 10310 20269 30068 40078 71792 83930 333 59003 83813 81923 85362 94936 95836;
0292645030999992000030218004-03420+010650FM-12+0034FOOY V0209999999999007801CN0150001N1+02781+02601100811ADDAA199000091AY191061AY221061GA1041+003309069GA2011+007809099GA3071+033009039GF107991041091004501071999KA1120M+03351MA1999999100411MD1999999-0041MW1291REMSYN112AAXX  02184 64503 31465 7//// 10278 20260 30041 40081 72992 8497/ 333 10335 59004 84611 81926 87361 94942 95832;EQDQ01  00002PRCP99
0243645030999992000030303004-03420+010650FM-12+0034FOOY V0209999999999004801CN0100001N1+02511+02421101031ADDAY191031AY261031GA1041+003309069GA2011+004809099GA3071+033009049GF107991041091004501071999MA1999999100881MD1999999-0061MW1131REMSYN106AAXX  03034 64503 41460 7//// 10251 20242 30088 40103 71396 8497/ 333 59006 84611 81916 87461 94942 95832;
0309645030999992000030306004-03420+010650FM-12+0034FOOY V02099999999990300019N0100001N1+02521+02501100921ADDAA124005191AC11C9AY191061AY281061GA1031+003309069GA2011+004809099GA3081+030009049GF108991041091004501071999IA2240+02309KA1120N+02481MA1999999100511MD1999999-0161MW1171REMSYN130AAXX  03064 64503 11460 8//// 10252 20250 30051 40092 60054 71798 8497/ 333 02361 20248 50094 59016 83611 81916 88460 94948 95838;
0243645030999992000030309004-03420+010650FM-12+0034FOOY V02099999999990300019N0200001N1+02831+02651101151ADDAY191031AY291031GA1031+004809089GA2011+006009099GA3081+030009049GF108991051091004501071999MA1999999100741MD1999999-0081MW1171REMSYN106AAXX  03094 64503 41470 8//// 10283 20265 30074 40115 71799 8597/ 333 59008 83816 81920 88460 94944 95834;
0167645030999992000030315004-03420+010650FM-12+0034FOOY V02099999999999999999N0150001N1+02681+02541100831ADDAY191031AY221031GA1041+003909089MA1999999100431MD1999999+0051MW1291REMSYN088AAXX  03154 64503 41465 ///// 10268 20254 30043 40083 72992 8457/ 333 58005 84813 88460;
0225645030999992000030406004-03420+010650FM-12+0034FOOY V0209999999999045001CN0100001N1+02501+02481101061ADDAA124006191GA1031+003909069GF107991031051004501031999IA2240+02309KA1120N+02451MA1999999100651MD1999999+0141REMSYN106AAXX  04064 64503 12460 7//// 10250 20248 30065 40106 60064 8353/ 333 02369 20245 50074 58014 83613 87361;
0225645030999992000030409004-03420+010650FM-12+0034FOOY V0209999999999045001CN0100001N1+02501+02481101061ADDAA124006191GA1031+003909069GF107991031051004501031999IA2240+02309KA1120N+02451MA1999999100651MD1999999+0141REMSYN106AAXX  04094 64503 12460 7//// 10250 20248 30065 40106 60064 8353/ 333 02369 20245 50074 58014 83613 87361;
0193645030999992000030615004-03420+010650FM-12+0034FOOY V02099999999990093019N0200001N1+02701+02421100811ADDGA1031+003909089GA2071+009309069GF107991031021004501031999MA1999999100491MD1999999+0081REMSYN094AAXX  06154 64503 42470 7//// 10270 20242 30049 40081 8323/ 333 58008 83813 87631 94919 95839;
0165645030999992000030703004-03420+010650FM-12+0034FOOY V0209999999999004201CN0100001N1+02301+02221100961ADDGA1041+003009069GF107991071051004501999999MA1999999100551MD1999999-0031REMSYN082AAXX  07034 64503 42460 7//// 10230 20222 30055 40096 875// 333 59003 84610 87320;
0165645030999992000030709004-03420+010650FM-12+0034FOOY V0209999999999045001CN0200001N1+02771+02551101171ADDGA1031+003909069GF107991031051004501031999MA1999999100761MD1999999-0071REMSYN082AAXX  07094 64503 42470 7//// 10277 20255 30076 40117 8353/ 333 59007 83613 87362;
0193645030999992000030715004-03420+010650FM-12+0034FOOY V02099999999990330019N0200001N1+02851+02641100871ADDGA1031+003909089GA2071+033009039GF107991031021004501071999MA1999999100471MD1999999+0061REMSYN094AAXX  07154 64503 42470 7//// 10285 20264 30047 40087 8327/ 333 58006 83813 87361 94919 95839;
0159645030999992000030721004-03420+010650FM-12+0034FOOY V02099999999992200019N0100001N1+02551+02481101061ADDGA1031+003909059GF103991031051004501001001MA1999999100651MD1999999+0021REMSYN076AAXX  07214 64503 42460 3//// 10255 20248 30065 40106 83500 333 58002 83613;
0244645030999992000030806004-03420+010650FM-12+0034FOOY V02099999999992200019N0100001N1+02421+02401100981ADDAA199000091GA1021+003309089GF102991011011004501031001IA2240+02209KA1120N+02261MA1999999100571MD1999999-0031REMSYN106AAXX  08064 64503 32460 2//// 10242 20240 30057 40098 81130 333 02200 20226 50094 59003 82811 94908 95818;EQDQ01  00002PRCP99
0171645030999992000030809004-03420+010650FM-12+0034FOOY V02099999999992200019N0200001N1+02951+02621101061ADDGA1031+003909089GF103991031021004501001001MA1999999100651MD1999999-0111REMSYN088AAXX  08094 64503 42470 3//// 10295 20262 30065 40106 83200 333 59011 83813 94919 95839;
0193645030999992000030815004-03420+010650FM-12+0034FOOY V02099999999992200019N0200001N1+03181+02661100841ADDGA1021+004809089GA2011+006909099GF103991031091004501001001MA1999999100441MD1999999-0031REMSYN094AAXX  08154 64503 42470 3//// 10318 20266 30044 40084 83900 333 59003 82816 81923 94941 95831;
0208645030999992000030818004-03420+010650FM-12+0034FOOY V0202201N004112200019N0200001N1+02851+02451100921ADDAA199000091GA1021+006009029GF103991021051008001001021KA1120M+03151MA1999999100821MD1999999+0011REMSYN082AAXX  08184 64503 32570 32208 10285 20245 30082 40092 82502 333 10315 58001 82820;EQDQ01  00002PRCP99
0232645030999992000030906004-03420+010650FM-12+0034FOOY V02099999999990300019N0100001N1+02521+02491101081ADDAA199000091GA1071+030009019GF107991041051004501071999IA2240+02309KA1120N+02521MA1999999100671MD1999999+0101REMSYN094AAXX  09064 64503 32460 7//// 10252 20249 30067 40108 8457/ 333 02300 20252 50054 58010 87460;EQDQ01  00002PRCP99
0215645030999992000030909004-03420+010650FM-12+0034FOOY V02099999999990300019N0150001N1+02671+02591101211ADDGA1031+003309089GA2041+004509069GA3081+030009049GF108991041081004501051999MA1999999100801MD1999999+0151REMSYN100AAXX  09094 64503 42465 8//// 10267 20259 30080 40121 8485/ 333 58015 83811 84615 88460 94919 95839;
0309645030999992000031006004-03420+010650FM-12+0034FOOY V02099999999990300019N0100001N1+02251+02251100941ADDAA124052191AC10I9AY191061AY261061GA1031+003009069GA2011+006009099GA3061+030009039GF106991031091004501031001IA2240+02209KA1120N+02251MA1999999100531MD1999999-0141MW1011REMSYN130AAXX  10064 64503 11460 6//// 10225 20225 30053 40094 60524 70196 83930 333 02274 20225 50084 59014 83610 81920 86360 94945 95835;
0193645030999992000031009004-03420+010650FM-12+0034FOOY V02099999999990480019N0150001N1+02621+02331101061ADDGA1011+003909089GA2071+048009039GF107991011011004501031999MA1999999100651MD1999999-0151REMSYN094AAXX  10094 64503 42465 7//// 10262 20233 30065 40106 8113/ 333 59015 81813 87366 94908 95818;
0229645030999992000031012004-03420+010650FM-12+0034FOOY V02099999999990360019N0150001N1+02921+02391100951ADDAA199000091GA1031+003909089GA2061+036009039GF106991031021004501031001MA1999999100541MD1999999-0141REMSYN100AAXX  10124 64503 32465 6//// 10292 20239 30054 40095 83230 333 0//00 59014 83813 86362 94919 95839;EQDQ01  00002PRCP99
0221645030999992000031015004-03420+010650FM-12+0034FOOY V02099999999990033019N0150001N1+02931+02561100741ADDAY191031AY221031GA1051+003309069GA2041+999999069GF105991031091004501071999MA1999999100641MD1999999-0081MW1171REMSYN100AAXX  10154 64503 41465 5//// 10293 20256 30064 40074 71792 8397/ 333 59008 85611 8462/ 94942 95832;
0292645030999992000031018004-03420+010650FM-12+0034FOOY V0209999999999006901CN0100001N1+02551+02431100831ADDAA199000091AY191061AY221061GA1041+003009069GA2011+006909099GA3081+030009049GF108991041091004501021999KA1120M+03071MA1999999100431MD1999999-0051MW1031REMSYN112AAXX  10184 64503 31460 8//// 10255 20243 30043 40083 70392 8492/ 333 10307 59005 84610 81923 88460 94942 95832;EQDQ01  00002PRCP99
0243645030999992000031103004-03420+010650FM-12+0034FOOY V0209999999999004501CN0080001N1+02411+02371100921ADDAY191031AY221031GA1041+002409069GA2011+004509099GA3081+030009049GF108991041091002501021999MA1999999100511MD1999999+0011MW1171REMSYN106AAXX  11034 64503 41358 8//// 10241 20237 30051 40092 71792 8492/ 333 58001 84608 81915 88460 94946 95836;
0266645030999992000031106004-03420+010650FM-12+0034FOOY V0209999999999045001CN0100001N1+02431+02391100981ADDAA199000091AY191061AY221061GA1031+003009069GF108991031051004501021999IA2240+02209KA1120N+02411MA1999999100571MD1999999+0041MW1011REMSYN106AAXX  11064 64503 31460 8//// 10243 20239 30057 40098 70192 8352/ 333 02200 20241 50184 58004 83610 88460;EQDQ01  00002PRCP99
0316645030999992000031206004-03420+010650FM-12+0034FOOY V0209999999999006001CN0100001N1+02501+02441100871ADDAA199000091AY191061AY221061GA1041+003009069GA2011+006009099GA3081+030009049GF108991041091004501071999IA2240+02309KA1120N+02501MA1999999100551MD1999999-0021MW1011REMSYN124AAXX  12064 64503 31460 8//// 10250 20244 30055 40087 70192 8497/ 333 02300 20250 50114 59002 84610 81920 88460 94948 95838;EQDQ01  00002PRCP99
0243645030999992000031209004-03420+010650FM-12+0034FOOY V02099999999990300019N0080001N1+02351+02311101221ADDAY191031AY261031GA1031+002409069GA2011+004809099GA3081+030009049GF108991041091002501021999MA1999999100811MD1999999+0101MW1951REMSYN106AAXX  12094 64503 41358 8//// 10235 20231 30081 40122 79596 8492/ 333 58010 83608 81916 88460 94941 95871;
0165645030999992000031215004-03420+010650FM-12+0034FOOY V0209999999999045001CN0150001N1+02681+02421100731ADDGA1031+003909069GF106991031051004501031001MA1999999100331MD1999999-0051REMSYN082AAXX  12154 64503 42465 6//// 10268 20242 30033 40073 83530 333 59005 83613 86361;
0201645030999992000031218004-03420+010650FM-12+0034FOOY V0209999999999004201CN0100001N1+02551+02411100771ADDAA112003091GA1031+003009069GF105991051051004501001001KA1120M+02931MA1999999100371MD1999999+0041REMSYN094AAXX  12184 64503 12460 5//// 10255 20241 30037 40077 60032 85500 333 10293 58004 83610 85623;
0225645030999992000031306004-03420+010650FM-12+0034FOOY V0209999999999045001CN0150001N1+02401+02371100981ADDAA124003091GA1031+003309069GF107991031051004501071999IA2240+02409KA1120N+02401MA1999999100571MD1999999+0021REMSYN106AAXX  13064 64503 12465 7//// 10240 20237 30057 40098 60034 8357/ 333 02459 20240 50044 58002 83611 87460;
0172645030999992000031309004-03420+010650FM-12+0034FOOY V02099999999990330019N0150001N1+02701+02571101121ADDGA1021+003909089GA2061+033009039GF106991021021004501031001MD1999999-0101REMSYN088AAXX  13094 64503 42465 6//// 10270 20257 40112 82230 333 59010 82813 86361 94939 95839;
0208645030999992000031318004-03420+010650FM-12+0034FOOY V02099999999992200019N0150001N1+02651+02451100821ADDAA199000091GA1031+003909059GF103991031051004501001001KA1120M+03281MA1999999100421MD1999999+0051REMSYN082AAXX  13184 64503 32465 3//// 10265 20245 30042 40082 83500 333 10328 58005 83613;EQDQ01  00002PRCP99
0257645030999992000031412004-03420+010650FM-12+0034FOOY V02099999999992200019N0200001N1+03201+02651100821ADDAA199000091AY191061AY221061GA1031+004509089GA2041+036009039GF104991031021004501031001MA1999999100421MD1999999-0131MW1011REMSYN106AAXX  14124 64503 31470 4//// 10320 20265 30042 40082 70192 83230 333 0//00 59013 83815 84362 94919 95839;EQDQ01  00002PRCP99
0221645030999992000031415004-03420+010650FM-12+0034FOOY V02099999999990330019N0200001N1+02701+02541100631ADDAY191031AY221031GA1011+006009099GA2071+033009039GF107991031081004501031999MA1999999100231MD1999999-0361MW1171REMSYN100AAXX  14154 64503 41470 7//// 10270 20254 30023 40063 71792 8383/ 333 59036 81920 87361 94948 95838;
0279645030999992000031418004-03420+010650FM-12+0034FOOY V0209999999999003901CN0070001N1+02671+02311100851ADDAA112000891AY191061AY261061GA1041+002409069GA2011+003909099GA3081+030009049GF108991041091002501021999KA1120M+03401MA1999999100451MD1999999+0031MW1951REMSYN118AAXX  14184 64503 11357 8//// 10267 20231 30045 40085 69972 79596 8492/ 333 10340 58003 84608 81913 88460 94943 95813;
0243645030999992000031503004-03420+010650FM-12+0034FOOY V0209999999999004801CN0080001N1+02401+02361100911ADDAY191031AY221031GA1041+002409069GA2011+004809099GA3081+030009049GF108991041091002501021999MA1999999100531MD1999999+0081MW1171REMSYN106AAXX  15034 64503 41358 8//// 10240 20236 30053 40091 71792 8492/ 333 58008 84608 81916 88460 94944 95834;
0303645030999992000031506004-03420+010650FM-12+0034FOOY V02099999999990330019N0100001N1+02431+02341100941ADDAA124002091AY191061AY221061GA1031+003009069GA2011+004809099GA3051+033009039GF105991031091004501031001IA2240+02409KA1120N+02401MA1999999100511MD1999999+0031MW1171REMSYN130AAXX  15064 64503 11460 5//// 10243 20234 30051 40094 60024 71792 83930 333 02459 20240 50104 58003 83610 81916 85361 94944 95834;
0107645030999992000031509004-03420+010650FM-12+0034FOOY V02099999999999999999N0150001N1+02611+02451101121ADDGF107991999999004501999999MA1999999100711REMSYN054AAXX  15094 64503 41465 7//// 10261 20245 30071 40112;
0279645030999992000031512004-03420+010650FM-12+0034FOOY V02099999999990330019N0200001N1+02901+02551100921ADDAA199000091AY191061AY221061GA1031+003909089GA2041+006909099GA3071+033009039GF107991031091004501031011MA1999999100511MD1999999+0091MW1291REMSYN112AAXX  15124 64503 31470 7//// 10290 20255 30051 40092 72992 83931 333 0//00 58009 83813 84923 87361 94945 95835;EQDQ01  00002PRCP99
0193645030999992000031515004-03420+010650FM-12+0034FOOY V02099999999990330019N0200001N1+02711+02501100661ADDGA1031+004509089GA2051+033009039GF105991031021004501031001MA1999999100261MD1999999+0031REMSYN094AAXX  15154 64503 42470 5//// 10271 20250 30026 40066 83230 333 58003 83815 85361 94919 95839;
0238645030999992000031606004-03420+010650FM-12+0034FOOY V0209999999999045001CN0150001N1+02401+02351100981ADDAA199000091GA1031+003309069GF106991031051004501031001IA2240+02409KA1120N+02401MA1999999100571MD1999999+0041REMSYN100AAXX  16064 64503 32465 6//// 10240 20235 30057 40098 83530 333 02400 20240 50084 58004 83611 86360;EQDQ01  00002PRCP99
0165645030999992000031609004-03420+010650FM-12+0034FOOY V0209999999999045001CN0150001N1+02801+02491101091ADDGA1031+003909069GF106991031051004501031001MA1999999100681MD1999999-0031REMSYN082AAXX  16094 64503 42465 6//// 10280 20249 30068 40109 83530 333 59003 83613 86361;
0147645030999992000031612004-03420+010650FM-12+0034FOOY V02099999999992200019N0200001N1+03201+02651100891ADDAA199000091GF104991031021004501031001MA1999999100491REMSYN064AAXX  16124 64503 32470 4//// 10320 20265 30049 40089 83230 333;EQDQ01  00002PRCP99
0243645030999992000031615004-03420+010650FM-12+0034FOOY V02099999999990360019N0200001N1+02861+02571100611ADDAY191031AY221031GA1021+004509089GA2011+006009099GA3051+036009039GF105991031091004501031001MA1999999100211MD1999999-0051MW1171REMSYN106AAXX  16154 64503 41470 5//// 10286 20257 30021 40061 71792 83930 333 59005 82815 81920 85362 94942 95832;
0292645030999992000031618004-03420+010650FM-12+0034FOOY V02099999999990330019N0150001N1+02751+02571100741ADDAA199000091AY191061AY221061GA1021+003309069GA2011+007809099GA3061+033009039GF106991031031004501031001KA1120M+03351MA1999999100341MD1999999-0051MW1131REMSYN112AAXX  16184 64503 31465 6//// 10275 20257 30034 40074 71392 83330 333 10335 59005 82611 81926 86361 94943 95833;EQDQ01  00002PRCP99
0238645030999992000031706004-03420+010650FM-12+0034FOOY V0209999999999045001CN0100001N1+02481+02391100911ADDAA199000091GA1031+003009089GF107991031051004501071999IA2240+02409KA1120N+02411MA1999999100501MD1999999-0071REMSYN100AAXX  17064 64503 32460 7//// 10248 20239 30050 40091 8357/ 333 02400 20241 50104 59007 83810 87460;EQDQ01  00002PRCP99
0272645030999992000031712004-03420+010650FM-12+0034FOOY V0209999999999004801CN0060001N1+02821+02481100911ADDAA106000391AC11C9AY191061AY261061GA1041+002409069GA2011+004809099GA3081+030009049GF108991041091002501021999MA1999999100501MD1999999+0011MW1951REMSYN118AAXX  17124 64503 11356 8//// 10282 20248 30050 40091 69931 79596 8492/ 333 0//51 58001 84608 81916 88460 94938 95838;
0272645030999992000031715004-03420+010650FM-12+0034FOOY V0209999999999004801CN0060001N1+02821+02481100911ADDAA106000391AC11C9AY191031AY261031GA1041+002409069GA2011+004809099GA3081+030009049GF108991041091002501021999MA1999999100501MD1999999+0011MW1951REMSYN118AAXX  17154 64503 11356 8//// 10282 20248 30050 40091 69931 79596 8492/ 333 0//51 58001 84608 81916 88460 94938 95838;
0243645030999992000031721004-03420+010650FM-12+0034FOOY V02099999999990300019N0100001N1+02481+02441100961ADDAY191031AY261031GA1031+003309069GA2011+006909099GA3071+030009049GF107991041091004501071999MA1999999100551MD1999999+0101MW1911REMSYN106AAXX  17214 64503 41460 7//// 10248 20244 30055 40096 79196 8497/ 333 58010 83611 81923 87460 94944 95834;
0225645030999992000031806004-03420+010650FM-12+0034FOOY V0209999999999004201CN0100001N1+02371+02341100921ADDAA124017091GA1031+003009069GF106991061051004501001001IA2240+02309KA1120N+02351MA1999999100521MD1999999+0011REMSYN106AAXX  18064 64503 12460 6//// 10237 20234 30052 40092 60174 86500 333 02369 20235 50064 58001 83610 86623;
0193645030999992000031809004-03420+010650FM-12+0034FOOY V02099999999992200019N0200001N1+02701+02531101001ADDGA1031+004509089GA2031+036009039GF104991031021004501031001MA1999999100591MD1999999-0051REMSYN094AAXX  18094 64503 42470 4//// 10270 20253 30059 40100 83230 333 59005 83815 83362 94919 95839;
0238645030999992000031906004-03420+010650FM-12+0034FOOY V0209999999999045001CN0100001N1+02411+02351100921ADDAA199000091GA1031+003009069GF105991031051004501021999IA2240+02309KA1120N+02401MA1999999100501MD1999999+0001REMSYN100AAXX  19064 64503 32460 5//// 10241 20235 3005/ 40092 8352/ 333 02300 20240 50100 58000 83610 87468;EQDQ01  00002PRCP99
0165645030999992000031909004-03420+010650FM-12+0034FOOY V0209999999999045001CN0150001N1+02901+02551101011ADDGA1031+003909069GF106991031051004501031001MA1999999100601MD1999999+0011REMSYN082AAXX  19094 64503 42465 6//// 10290 20255 30060 40101 83530 333 58001 83613 86362;
0214645030999992000031918004-03420+010650FM-12+0034FOOY V0209999999999105001CN0100001N1+02731+02521100581ADDAA199000091GA1031+003309069GF106991031051004501001021KA1120M+03121MA1999999100181MD1999999-0051REMSYN088AAXX  19184 64503 32460 6//// 10273 20252 30018 40058 83502 333 10312 59005 83611 86073;EQDQ01  00002PRCP99
0159645030999992000031921004-03420+010650FM-12+0034FOOY V02099999999999999999N0100001N1+02581+02541100561ADDGA1021+003309059GF108991021051004501001001MA1999999100261MD1999999-0041REMSYN076AAXX  19214 64503 42460 8//// 10258 20254 30026 40056 82500 333 59004 82611;
0183645030999992000032000004-03420+010650FM-12+0034FOOY V02099999999992200019N0100001N1+02451+02451100731ADDAA199000091GA1001+999999999GF100991001001999999001001MA1999999100271MD1999999-0171REMSYN070AAXX  20004 64503 32960 0//// 10245 20245 30027 40073 333 0//00 59017;EQDQ01  00002PRCP99
0165645030999992000032003004-03420+010650FM-12+0034FOOY V02099999999992200019N0100001N1+02461+02441100651ADDGA1021+003309069GF103991021051004501031001MA1999999100251MD1999999-0021REMSYN082AAXX  20034 64503 42460 3//// 10246 20244 30025 40065 82530 333 59002 82611 83361;
0238645030999992000032006004-03420+010650FM-12+0034FOOY V0209999999999105001CN0150001N1+02461+02401100811ADDAA199000091GA1031+003309069GF105991031051004501001021IA2240+02309KA1120N+02461MA1999999100411MD1999999-0101REMSYN100AAXX  20064 64503 32465 5//// 10246 20240 30041 40081 83502 333 02300 20246 50104 59010 83611 85073;EQDQ01  00002PRCP99
0193645030999992000032009004-03420+010650FM-12+0034FOOY V02099999999990360019N0200001N1+02921+02631100921ADDGA1031+003909089GA2061+036009039GF106991031021004501031001MA1999999100511MD1999999-0091REMSYN094AAXX  20094 64503 42470 6//// 10292 20263 30051 40092 83230 333 59009 83813 86362 94919 95839;
0279645030999992000032018004-03420+010650FM-12+0034FOOY V02099999999990300019N0100001N1+02631+02581100651ADDAA112000191AY191061AY261061GA1031+003309069GA2011+006909099GA3081+030009049GF108991041091004501021999KA1120M+03251MA1999999100251MD1999999+0051MW1951REMSYN118AAXX  20184 64503 11460 8//// 10263 20258 30025 40065 69922 79596 8492/ 333 10325 58005 83611 81923 88460 94947 95837;
0243645030999992000032021004-03420+010650FM-12+0034FOOY V02099999999990300019N0100001N1+02471+02401100801ADDAY191031AY261031GA1031+003309069GA2011+007809099GA3071+030009049GF107991041091004501071999MA1999999100401MD1999999+0141MW1131REMSYN106AAXX  20214 64503 41460 7//// 10247 20240 30040 40080 71396 8497/ 333 58014 83611 81926 87460 94945 95835;
0303645030999992000032106004-03420+010650FM-12+0034FOOY V02099999999990690019N0100001N1+02421+02391100811ADDAA124000391AY191061AY221061GA1031+003309089GA2011+004809099GA3051+069009009GF105991031091004501001091IA2240+02309KA1120N+02421MA1999999100411MD1999999+0001MW1171REMSYN130AAXX  21064 64503 11460 5//// 10242 20239 30041 40081 69934 71792 83909 333 02359 20242 50064 58000 83811 81916 85073 94965 95835;
0262645030999992000032109004-03420+010650FM-12+0034FOOY V02099999999992200019N0150001N1+02861+02601100951ADDAY191031AY221031GA1031+003909089GA2011+004809099GA3051+007809069GF199999051091004501001001MA1999999100541MD1999999+0031MW1171REMSYN106AAXX  21094 64503 41465 4//// 10286 20260 30054 40095 71792 85900 333 58003 83813 81916 85626 94961 95831;EQDQ01+000042SCOTCV
0272645030999992000032112004-03420+010650FM-12+0034FOOY V02099999999990090019N0100001N1+02801+02591100771ADDAA106000191AC11C9AY191061AY231061GA1031+003909089GA2011+006009099GA3061+009009069GF106991031091004501001001MA1999999100371MD1999999+0011MW1171REMSYN118AAXX  21124 64503 11460 6//// 10280 20259 30037 40077 69911 71793 83900 333 0//51 58001 83813 81920 86630 94968 95838;
0281645030999992000032114004-03420+010650FM-12+0034FOOY V02099999999990045019N9999999N1+02631+02591999999ADDAY191999AY261999GA1031+002409069GA2031+004509099GA3081+030009999GF108991051091999999021999KA1120N+99999MA1999999100241MD1999999-0011MW1171REMSYN112AAXX  21144 64503 11/// 8//// 10263 20259 30024 400/4 71796 8592/ 333 20321 59001 83608 83915 88=60 94949 95839;EQDQ01 +03212ATMN  
0243645030999992000032115004-03420+010650FM-12+0034FOOY V02099999999990090019N0100001N1+03101+02761100551ADDAY191031AY221031GA1031+003309089GA2011+004809099GA3071+009009069GF107991071091004501999999MA1999999100151MD1999999+0051MW1171REMSYN106AAXX  21154 64503 11460 7//// 10310 20276 30015 40055 71792 879// 333 58005 83811 81916 87630 94962 95832;
0279645030999992000032118004-03420+010650FM-12+0034FOOY V02099999999990045019N0070001N1+02631+02591100641ADDAA112000591AY191061AY261061GA1031+002409069GA2031+004509099GA3081+030009049GF108991051091002501021999KA1120M+03211MA1999999100241MD1999999-0011MW1171REMSYN118AAXX  21184 64503 11357 8//// 10263 20259 30024 40064 69952 71796 8592/ 333 10321 59001 83608 83915 88460 94949 95839;
0272645030999992000032200004-03420+010650FM-12+0034FOOY V02099999999990060019N0100001N1+02451+02431100961ADDAA106003091AC11C9AY191061AY261061GA1041+003309069GA2011+006009099GA3081+030009049GF108991051091004501021999MA1999999100451MD1999999+0051MW1911REMSYN118AAXX  22004 64503 11460 8//// 10245 20243 30045 40096 60031 79196 8592/ 333 0//51 58005 84611 81920 88460 94944 95834;
0193645030999992000032203004-03420+010650FM-12+0034FOOY V02099999999990024019N0080001N1+02451+02451100771ADDAY161031AY261031GA1051+002409069GF108991051051002501021999MA1999999100371MD1999999+0061MW1611REMSYN088AAXX  22034 64503 41358 8//// 10245 20245 30037 40077 76166 8552/ 333 58006 85608 88460;
0328645030999992000032206004-03420+010650FM-12+0034FOOY V0209999999999004801CN0100001N1+02481+02481100821ADDAA124005191AC13C9AY161061AY221061GA1041+003009069GA2011+004809099GA3081+030009049GF199999041091004501021999IA2240+02409KA1120N+02401MA1999999100421MD1999999+0011MW1011REMSYN130AAXX  22064 64503 11460 7//// 10248 20248 30042 40082 60054 70162 8492/ 333 02453 20240 50074 58001 84610 81916 88460 94943 95833;EQDQ01+000072SCOTCV
0215645030999992000032209004-03420+010650FM-12+0034FOOY V0209999999999004801CN0150001N1+02721+02481100971ADDGA1021+003309069GA2031+004809089GA3061+033009039GF106991031081004501031001MA1999999100561MD1999999+0021REMSYN100AAXX  22094 64503 42465 6//// 10272 20248 30056 40097 83830 333 58002 82611 83816 86361 94919 95839;
0272645030999992000032212004-03420+010650FM-12+0034FOOY V02099999999990099019N0200001N1+02961+02631100921ADDAA106011991AC13C9AY161061AY221061GA1031+003909089GA2011+006009099GA3061+009909069GF106991061091004501001001MA1999999100511MD1999999+0141MW1011REMSYN118AAXX  22124 64503 11470 6//// 10296 20263 30051 40092 60121 70162 86900 333 0//53 58014 83813 81920 86633 94961 95831;
0311645030999992000032306004-03420+010650FM-12+0034FOOY V02099999999990300019N0100001N1+02281+02241100911ADDAC13I9AY191061AY221061GA1031+003309069GA2011+006009099GA3061+030009039GF106991999091004501031001IA2240+02209KA1120N+02251MA1999999100501MD1999999+0081MW1011REMSYN124AAXX  23064 64503 11460 6//// 10228 20224 30050 40091 70192 88930 333 02257 20225 50084 58008 83611 81920 86360 94944 95834;EQDQ01+000082SCOTLC
0221645030999992000032309004-03420+010650FM-12+0034FOOY V02099999999990330019N0200001N1+02621+02451101061ADDAY191031AY221031GA1021+003909089GA2051+033009039GF105991031081004501031001MA1999999100651MD1999999+0091MW1021REMSYN100AAXX  23094 64503 41470 5//// 10262 20245 30065 40106 70292 83830 333 58009 82813 85361 94901 95811;
0257645030999992000032312004-03420+010650FM-12+0034FOOY V02099999999990690019N0250001N1+03001+02541100921ADDAA199000091AY191061AY221061GA1031+004509089GA2051+069009009GF105991031021004501001021MA1999999100511MD1999999+0001MW1021REMSYN106AAXX  23124 64503 31475 5//// 10300 20254 30051 40092 70292 83202 333 0//00 58000 83815 85073 94939 95839;EQDQ01  00002PRCP99
0264645030999992000032318004-03420+010650FM-12+0034FOOY V02099999999990300019N0100001N1+02701+02411100791ADDAA199000091GA1031+003309069GA2011+006009099GA3071+030009049GF107991031091004501071999KA1120M+03151MA1999999100391MD1999999-0021REMSYN106AAXX  23184 64503 32460 7//// 10270 20241 30039 40079 8397/ 333 10315 59002 83611 81920 87460 94942 95832;EQDQ01  00002PRCP99
0266645030999992000032406004-03420+010650FM-12+0034FOOY V02099999999992200019N0150001N1+02401+02401100891ADDAA199000091GA1021+003909089GA2031+069009009GF104991021021004501001021IA2240+02309KA1120N+02351MA1999999100491MD1999999-0011REMSYN112AAXX  24064 64503 32465 4//// 10240 20240 30049 40089 82202 333 02300 20235 50114 59001 82813 83073 94937 95817;EQDQ01  00002PRCP99
