0172652500999992000010109004+04850+007020FM-12+0018DNPO V0202301N00261045001CN0050001N1+02601+02461101031ADDAY121031AY221031GA1041+003309069GF107991041051004501071999MD1999999+0071MW1101REMSYN082AAXX  01094 65250 41450 72305 10260 20246 40103 71022 8457/ 333 58007 84611 87460;
0202652500999992000010112004+04850+007020FM-12+0018DNPO V0203301N00151105001CN0080001N1+02951+02481100771ADDAA106000091AY121061AY221061GA1041+003909089GF107991041021004501001081MD1999999+0071MW1051REMSYN082AAXX  01124 65250 31458 73303 10295 20248 40077 70522 84208 333 58007 84813 87280;EQDQ01  00002PRCP06
0202652500999992000010212004+04850+007020FM-12+0018DNPO V0203501N00311105001CN0100001N1+03221+02371100601ADDAA106000091AY121061AY221061GA1041+004209089GF107991041021004501001081MD1999999-0171MW1051REMSYN082AAXX  02124 65250 31460 73506 10322 20237 40060 70522 84208 333 59017 84814 86280;EQDQ01  00002PRCP06
0172652500999992000010215004+04850+007020FM-12+0018DNPO V0202201N00211105001CN0080001N1+03241+02321100441ADDAY121031AY221031GA1021+005109069GF107991021051004501001081MD1999999-0201MW1051REMSYN082AAXX  02154 65250 41458 72204 10324 20232 40044 70522 82508 333 59020 82617 87280;
0138652500999992000010309004+04850+007020FM-12+0018DNPO V0209999C000010024019N0100001N1+02751+02541100841ADDGA1061+002409059GF107991061051002501001081MD1999999-0041REMSYN070AAXX  03094 65250 42360 70000 10275 20254 40084 86508 333 59004 86608;
0202652500999992000010312004+04850+007020FM-12+0018DNPO V0203501N00311105001CN0120001N1+03151+02441100771ADDAA106000091AY121061AY221061GA1041+004509069GF107991041051004501001081MD1999999+0071MW1051REMSYN082AAXX  03124 65250 31462 73506 10315 20244 40077 70522 84508 333 58007 84615 86280;EQDQ01  00002PRCP06
0138652500999992000010409004+04850+007020FM-12+0018DNPO V0202401N003110036019N0150001N1+02841+02571100881ADDGA1061+003609059GF107991061081004501001081MD1999999+0041REMSYN070AAXX  04094 65250 42465 72406 10284 20257 40088 86808 333 58004 86612;
0166652500999992000010509004+04850+007020FM-12+0018DNPO V0203601N001510900019N9999999N1+02631+01711100571ADDAY121031AY221031GA1071+090009089GF107991001001999999001081MD1999999-0091MW1051REMSYN076AAXX  05094 65250 41952 73603 10263 20171 40057 70522 80008 333 59009 87280;
0166652500999992000010515004+04850+007020FM-12+0018DNPO V0209999C000010900019N0070001N1+03221+01401100521ADDAY121031AY221031GA1071+090009089GF107991001001999999001081MD1999999+0091MW1051REMSYN076AAXX  05154 65250 41957 70000 10322 20140 40052 70522 80008 333 58009 87280;
0166652500999992000010709004+04850+007020FM-12+0018DNPO V0200501N005110900019N0080001N1+02661+02131100961ADDAY121031AY221031GA1071+090009089GF107991001001999999001081MD1999999+0031MW1051REMSYN076AAXX  07094 65250 41958 70510 10266 20213 40096 70522 80008 333 58003 87280;
0166652500999992000010715004+04850+007020FM-12+0018DNPO V0202801N002610900019N0020001N1+03001+01581100551ADDAY121031AY221031GA1071+090009089GF107991001001999999001081MD1999999+0041MW1051REMSYN076AAXX  07154 65250 41920 72805 10300 20158 40055 70522 80008 333 58004 87280;
0166652500999992000010809004+04850+007020FM-12+0018DNPO V0202601N003610900019N0030001N1+02501+02121101101ADDAY121031AY221031GA1071+090009089GF107991001001999999001081MD1999999+0141MW1051REMSYN076AAXX  08094 65250 41930 72607 10250 20212 40110 70522 80008 333 58014 87280;
0202652500999992000010812004+04850+007020FM-12+0018DNPO V0202901N00621105001CN0060001N1+03001+02361100881ADDAA106000091AY121061AY221061GA1031+004209069GF107991031051004501001081MD1999999+0141MW1051REMSYN082AAXX  08124 65250 31456 72912 10300 20236 40088 70522 83508 333 58014 83614 87280;EQDQ01  00002PRCP06
0166652500999992000010815004+04850+007020FM-12+0018DNPO V0203601N005110900019N0060001N1+03071+02191100701ADDAY121031AY221031GA1071+090009089GF107991001001999999001081MD1999999+0151MW1051REMSYN076AAXX  08154 65250 41956 73610 10307 20219 40070 70522 80008 333 58015 87280;
0166652500999992000010909004+04850+007020FM-12+0018DNPO V0203601N002110900019N0040001N1+02601+01901101061ADDAY121031AY221031GA1071+090009089GF107991001001999999001081MD1999999-0041MW1051REMSYN076AAXX  09094 65250 41940 73604 10260 20190 40106 70522 80008 333 59004 87280;
0137652500999992000010915004+04850+007020FM-12+0018DNPO V0202801N003119999999N0050001N1+03021+01641100621ADDAY121031AY221031GF107991001001999999001081REMSYN064AAXX  09154 65250 41950 72806 10302 20164 40062 78522 80008 333;EQDQ01+000852PRSWM1
0172652500999992000011209004+04850+007020FM-12+0018DNPO V0200401N00511105001CN0040001N1+02841+02541100971ADDAY121031AY221031GA1041+002409089GF107991041051002501001081MD1999999-0031MW1101REMSYN082AAXX  12094 65250 41340 70410 10284 20254 40097 71022 84508 333 59003 84808 86280;
0172652500999992000011215004+04850+007020FM-12+0018DNPO V0203501N00511105001CN0080001N1+03231+02041100521ADDAY121031AY221031GA1021+005709069GF107991021051004501001081MD1999999+0041MW1051REMSYN082AAXX  12154 65250 41458 73510 10323 20204 40052 70522 82508 333 58004 82619 87280;
0215652500999992000011218004+04850+007020FM-12+0018DNPO V0209999C000010900019N0090001N1+03051+02251100681ADDAA106000091AY121061AY221061GA1071+090009089GF107991001001999999001081KA1120M+03401MD1999999+0041MW1051REMSYN082AAXX  12184 65250 31959 70000 10305 20225 40068 70522 80008 333 10340 58004 87280;EQDQ01  00002PRCP06
0166652500999992000011309004+04850+007020FM-12+0018DNPO V0203501N002610018019N0025001N1+02531+02421100961ADDAY141031AY221031GA1071+001809059GF107991071051001501999999MD1999999-0011MW1101REMSYN076AAXX  13094 65250 41225 73505 10253 20242 40096 71042 875// 333 59001 87606;
0170652500999992000011409004+04850+007020FM-12+001899999V0209999C000010900019N0100001N1+02761+02461100951ADDAY121031AY221031GA1071+090009089GF107991001001999999001081MD1999999-0011MW1101REMSYN080    AAXX  14094 65250 41960 70000 10276 20246 40095 71022 80008 333 59001 87280;
0243652500999992000011418004+04850+007020FM-12+001899999V0202901N00051090001CN0090001N1+02921+99999100551ADDAA199000091AY121061AY221061GA1041+003009069GA2061+090009029GA3091+999999029GF107991041091004501001081KA1120M+03351MW1051REMSYN092    AAXX  14184 65250 31459 72901 10292 40055 70522 84908 333 10335 84610 8923/ 86280 94615;EQDQ01  00002PRCP99
0148652500999992000011509004+04850+007020FM-12+001899999V0209999C00001105001CN0100001N1+02881+99999100941ADDGA1031+003909089GF107991031021004501001081MD1999999-0011REMSYN080    AAXX  15094 65250 42460 70000 10288 2/258 40094 83208 333 59001 83813 87280;
0148652500999992000011609004+04850+007020FM-12+001899999V0209999C00001045001CN0100001N1+02801+02591101021ADDGA1031+003309089GF107991031021004501031081MD1999999+0081REMSYN080    AAXX  16094 65250 42460 70000 10280 20259 40102 83238 333 58008 83811 87280;
0142652500999992000011809004+04850+007020FM-12+001899999V0202701N006710036019N0100001N1+02901+02491101121ADDGA1061+003609029GF107991061021004501001081MD1999999+0091REMSYN074    AAXX  18094 65250 42460 72713 10290 20249 40112 86208 333 58009 86812;
0172652500999992000011912004+04850+007020FM-12+001899999V0209999C000010042019N0100001N1+02941+02561100931ADDAA199000091GA1061+004209029GF107991061021004501001081MD1999999+0031REMSYN074    AAXX  19124 65250 32460 70000 10294 20256 40093 86208 333 58003 86814;EQDQ01  00002PRCP99
0187652500999992000011918004+04850+007020FM-12+0018DNPO V0202101N001010300019N0120001N1+02781+02581100811ADDAA199000091GA1071+030009019GF107991001001999999021999KA1120M+03001MD1999999+0011REMSYN076AAXX  19184 65250 32962 72102 10278 20258 40081 8002/ 333 10300 58001 87460;EQDQ01  00002PRCP99
0135652500999992000011921004+04850+007020FM-12+0018DNPO V0202101N002619999999N9999999N1+99999+99999101021ADDGF108991999081008001999999MD1999999-0031REMSYN064AAXX  19214 65250 4/5/0 82105 20248 40102 808// 333 59003 8820/;EQDQ01+000002SCOTLC
0144652500999992000012015004+04850+007020FM-12+0018DNPO V0209999C00001045001CN0150001N1+03171+02451100711ADDGA1011+004509089GF107991011021004501031081MD1999999+0071REMSYN076AAXX  20154 65250 42465 70000 10317 20245 40071 81238 333 58007 81815 87280;
0215652500999992000012018004+04850+007020FM-12+0018DNPO V0202401N003610030019N0200001N1+02831+02431100861ADDAA199000091GA1051+003009069GA2011+006909099GF107991051091004501031081KA1120M+03241MD1999999+0051REMSYN088AAXX  20184 65250 32470 72407 10283 20243 40086 85938 333 10324 58005 85610 81923 94613;EQDQ01  00002PRCP99
0144652500999992000012109004+04850+007020FM-12+0018DNPO V0202601N00261105001CN0120001N1+02731+02541101101ADDGA1041+003609089GF107991041021004501001081MD1999999-0041REMSYN076AAXX  21094 65250 42462 72605 10273 20254 40110 84208 333 59004 84812 87280;
0168652500999992000012112004+04850+007020FM-12+0018DNPO V0202801N004110042019N0150001N1+03101+02471100921ADDAA199000091GA1061+004209059GF107991061021004501001081MD1999999-0031REMSYN070AAXX  21124 65250 32465 72808 10310 20247 40092 86208 333 59003 86614;EQDQ01  00002PRCP99
0144652500999992000012115004+04850+007020FM-12+0018DNPO V0203301N00411105001CN0150001N1+03341+02281100541ADDGA1041+004809089GF107991041021004501001081MD1999999-0151REMSYN076AAXX  21154 65250 42465 73308 10334 20228 40054 84208 333 59015 84816 86280;
0196652500999992000012312004+04850+007020FM-12+0018DNPO V0203201N004110048019N0150001N1+03131+02321100791ADDAA199000091GA1061+004809089GA2011+007509099GF107991061091004501001081MD1999999+0011REMSYN082AAXX  23124 65250 32465 73208 10313 20232 40079 86908 333 58001 86816 81925 94699;EQDQ01  00002PRCP99
0144652500999992000012509004+04850+007020FM-12+0018DNPO V0201801N00151105001CN0150001N1+02901+02551101221ADDGA1031+003009089GF107991031021004501001081MD1999999+0121REMSYN076AAXX  25094 65250 42465 71803 10290 20255 40122 83208 333 58012 83810 87280;
0168652500999992000012512004+04850+007020FM-12+0018DNPO V0201801N003610042019N0200001N1+03161+02441100991ADDAA199000091GA1051+004209029GF107991051021004501001081MD1999999+0041REMSYN070AAXX  25124 65250 32470 71807 10316 20244 40099 85208 333 58004 85814;EQDQ01  00002PRCP99
0188652500999992000012515004+04850+007020FM-12+0018DNPO V0202401N004610900019N0200001N1+03301+02381100711ADDGA1031+004509089GA2011+007209099GA3071+090009029GF107991031091004501001081MD1999999+0001REMSYN088AAXX  25154 65250 42470 72409 10330 20238 40071 83908 333 58000 83815 81924 87280 94699;
0144652500999992000012521004+04850+007020FM-12+0018DNPO V0202201N00211045001CN0150001N1+02731+02471101071ADDGA1041+003309069GF107991041051004501031081MD1999999+0051REMSYN076AAXX  25214 65250 42465 72204 10273 20247 40107 84538 333 58005 84611 86360;
0144652500999992000012609004+04850+007020FM-12+0018DNPO V0202401N00361045001CN0100001N1+02801+02461101211ADDGA1021+003909089GF107991021021004501071081MD1999999-0011REMSYN076AAXX  26094 65250 42460 72407 10280 20246 40121 82278 333 59001 82813 87280;
0196652500999992000012612004+04850+007020FM-12+0018DNPO V0202601N005110048019N0130001N1+03231+02441101091ADDAA199000091GA1061+004809089GA2011+007209099GF107991061091004501001081MD1999999+0011REMSYN082AAXX  26124 65250 32463 72610 10323 20244 40109 86908 333 58001 86816 81924 94699;EQDQ01  00002PRCP99
0196652500999992000012712004+04850+007020FM-12+0018DNPO V0202401N004110048019N0200001N1+03221+02371100911ADDAA199000091GA1061+004809089GA2011+006009099GF107991061091004501001081MD1999999-0091REMSYN082AAXX  27124 65250 32470 72408 10322 20237 40091 86908 333 59009 86816 81920 94699;EQDQ01  00002PRCP99
0166652500999992000012715004+04850+007020FM-12+0018DNPO V0203001N001510057019N0250001N1+03461+02381100671ADDGA1061+005709089GA2011+007509099GF107991061091004501001081MD1999999-0051REMSYN082AAXX  27154 65250 42475 73003 10346 20238 40067 86908 333 59005 86819 81925 94625;
0221652500999992000012806004+04850+007020FM-12+0018DNPO V0209999C00001105001CN0030001N1+02541+02511100911ADDAA199000091AY121061AY221061GA1021+001809069GF107991021051002501001081KA1120N+02501MD1999999-0181MW1101REMSYN088AAXX  28064 65250 31330 70000 10254 20251 40091 71022 82508 333 20250 59018 82606 87280;EQDQ01  00002PRCP99
0237652500999992000022418004+04850+007020FM-12+0018DNPO V0201801N005110900019N0120001N1+03061+02491100651ADDAA199000091GA1031+003009069GA2011+006909099GA3061+090009029GF107991031091004501001081KA1120M+03621MD1999999-0061REMSYN094AAXX  24184 65250 32462 71810 10306 20249 40065 83908 333 10362 59006 83610 81923 86280 94668;EQDQ01  00002PRCP99
0265652500999992000022506004+04850+007020FM-12+0018DNPO V0203601N002610900019N0050001N1+02521+02431100971ADDAA199000091AY121061AY221061GA1031+002709069GA2011+006309099GA3071+090009029GF107991031091002501071081KA1120N+02451MD1999999+0051MW1101REMSYN100AAXX  25064 65250 31350 73605 10252 20243 40097 71022 83978 333 20245 58005 83609 81921 87280 94582;EQDQ01  00002PRCP99
0092652500999992000022609004+04850+007020FM-12+0018DNPO V0202801N003110042019N0120001N1+02981+02531101201ADDGF107991061021004501001081REMSYN054AAXX  26094 65250 42462 72806 10298 20253 40120 86208;
0215652500999992000022618004+04850+007020FM-12+0018DNPO V0209999C000010900019N0150001N1+03301+01941100641ADDAA199000091AY121061AY221061GA1071+090009089GF107991001001999999001081KA1120M+03701MD1999999-0021MW1051REMSYN082AAXX  26184 65250 31965 70000 10330 20194 40064 70522 80008 333 10370 59002 87280;EQDQ01  00002PRCP99
0166652500999992000030209004+04850+007020FM-12+0018DNPO V0203001N001510900019N0016001N1+02861+02261101211ADDAY121031AY221031GA1071+090009089GF107991001001999999001081MD1999999-0011MW1051REMSYN076AAXX  02094 65250 41916 73003 10286 20226 40121 70522 80008 333 59001 87280;
0196652500999992000030212004+04850+007020FM-12+0018DNPO V0200301N002610900019N0015001N1+03411+01891100941ADDAA199000091AY121061AY221061GA1071+090009089GF107991001001999999001081MD1999999-0061MW1051REMSYN076AAXX  02124 65250 31915 70305 10341 20189 40094 70522 80008 333 59006 87280;EQDQ01  00002PRCP99
0166652500999992000030309004+04850+007020FM-12+0018DNPO V0203001N003110900019N0035001N1+02901+02471101221ADDAY121031AY221031GA1071+090009089GF107991001001999999001081MD1999999-0011MW1101REMSYN076AAXX  03094 65250 41935 73006 10290 20247 40122 71022 80008 333 59001 87280;
0202652500999992000030312004+04850+007020FM-12+0018DNPO V0200301N00261105001CN0045001N1+03351+02181100991ADDAA199000091AY121061AY221061GA1041+004509089GF107991041021004501001081MD1999999+0041MW1051REMSYN082AAXX  03124 65250 31445 70305 10335 20218 40099 70522 84208 333 58004 84815 86280;EQDQ01  00002PRCP99
0216652500999992000030315004+04850+007020FM-12+0018DNPO V0202501N00411007501CN0060001N1+03431+02081100801ADDAY121031AY221031GA1041+005109089GA2011+007509099GA3071+090009029GF107991041091004501001081MD1999999+0191MW1051REMSYN094AAXX  03154 65250 41456 72508 10343 20208 40080 70522 84908 333 58019 84817 81925 87280 94699;
0209652500999992000030406004+04850+007020FM-12+0018DNPO V0209999C000010900019N0028001N1+02381+02291100951ADDAA199000091AY121061AY221061GA1071+090009089GF107991999999999999999999KA1120N+02351MD1999999-0041MW1101REMSYN076AAXX  04064 65250 31928 70000 10238 20229 40095 71022 333 20235 59004 87280;EQDQ01  00002PRCP99
0172652500999992000030409004+04850+007020FM-12+0018DNPO V0209999C00001105001CN0050001N1+02921+02471101181ADDAY121031AY221031GA1041+003609089GF107991041021004501001081MD1999999-0041MW1051REMSYN082AAXX  04094 65250 41450 70000 10292 20247 40118 70522 84208 333 59004 84812 87280;
0172652500999992000030415004+04850+007020FM-12+0018DNPO V0203501N00511105001CN0080001N1+03561+02061100571ADDAY121031AY221031GA1021+005409089GF107991021021004501001081MD1999999-0221MW1051REMSYN082AAXX  04154 65250 41458 73510 10356 20206 40057 70522 82208 333 59022 82818 87280;
0192652500999992000030418004+04850+007020FM-12+0018DNPO V0201801N005119999999N0280001N1+03251+02061100651ADDAA199000091AY121061AY221061GF107991001001999999001081KA1120M+03621KA2999N+02801MW1051REMSYN076AAXX  04184 65250 31978 71810 10325 20206 40065 70522 80008 333 10362 27280;EQDQ01  00002PRCP99
0166652500999992000030509004+04850+007020FM-12+0018DNPO V0202701N005710024019N0100001N1+03001+02521101191ADDAY121031AY221031GA1061+002409029GF107991061081002501001081MD1999999+0011MW1051REMSYN076AAXX  05094 65250 41360 72711 10300 20252 40119 70522 86808 333 58001 86808;
0166652500999992000030609004+04850+007020FM-12+0018DNPO V0201301N001510027019N0080001N1+02981+02511101161ADDAY121031AY221031GA1061+002709029GF107991061021002501001081MD1999999-0031MW1051REMSYN076AAXX  06094 65250 41358 71303 10298 20251 40116 70522 86208 333 59003 86809;
0196652500999992000030612004+04850+007020FM-12+0018DNPO V0200301N001510036019N0100001N1+03031+01961100931ADDAA199000091AY121061AY221061GA1061+003609029GF107991051021004501001081MD1999999+0031MW1051REMSYN076AAXX  06124 65250 31460 70303 10303 20196 40093 70522 85208 333 58003 86812;EQDQ01  00002PRCP99
0166652500999992000030615004+04850+007020FM-12+0018DNPO V0200101N005710900019N0100001N1+03681+02011100661ADDAY121031AY221031GA1071+090009089GF107991031021004501001081MD1999999+0071MW1051REMSYN076AAXX  06154 65250 41460 70111 10368 20201 40066 70522 83208 333 58007 87280;
0166652500999992000031009004+04850+007020FM-12+0018DNPO V0203501N001010027019N0120001N1+02901+02451101101ADDAY121031AY221031GA1061+002709059GF107991061081002501001081MD1999999-0061MW1101REMSYN076AAXX  10094 65250 41362 73502 10290 20245 40110 71022 86808 333 59006 86609;
0202652500999992000031012004+04850+007020FM-12+0018DNPO V0203501N00511105001CN0100001N1+03401+01901100821ADDAA199000091AY121061AY221061GA1021+005409089GF107991021021004501001081MD1999999-0171MW1051REMSYN082AAXX  10124 65250 31460 73510 10340 20190 40082 70522 82208 333 59017 82818 87280;EQDQ01  00002PRCP99
0215652500999992000031206004+04850+007020FM-12+0018DNPO V0203601N003610900019N0050001N1+02441+02351100861ADDAA199000091AY121061AY221061GA1071+090009089GF107991001001999999001081KA1120N+02361MD1999999-0111MW1101REMSYN082AAXX  12064 65250 31950 73607 10244 20235 40086 71022 80008 333 20236 59011 87280;EQDQ01  00002PRCP99
0172652500999992000031209004+04850+007020FM-12+0018DNPO V0203001N00411105001CN0080001N1+02921+02271101051ADDAY121031AY221031GA1021+003009089GF107991031021004501001081MD1999999-0031MW1051REMSYN082AAXX  12094 65250 41458 73008 10292 20227 40105 70522 83208 333 59003 82810 87280;
0202652500999992000031312004+04850+007020FM-12+0018DNPO V0202601N00411105001CN0100001N1+03461+01971100771ADDAA199000091AY121061AY221061GA1041+004809089GF107991041021004501001081MD1999999+0001MW1051REMSYN082AAXX  13124 65250 31460 72608 10346 20197 40077 70522 84208 333 58000 84816 86280;EQDQ01  00002PRCP99
0166652500999992000031409004+04850+007020FM-12+0018DNPO V0202101N004610042019N0100001N1+03071+02431101051ADDAY121031AY221031GA1061+004209029GF107991061021004501001081MD1999999+0031MW1051REMSYN076AAXX  14094 65250 41460 72109 10307 20243 40105 70522 86208 333 58003 86814;
0120652500999992000031410004+04850+007020FM-12+0018DNPO V0202101N004610042019N0100001N1+03071+02431101051ADDAY121999AY221999GF107991061021004501001081MW1051REMSYN060AAXX  14104 65250 41460 72109 10307 20243 40105 70522 86208;
0185652500999992000031415004+04850+007020FM-12+0018DNPO V0201001N001010900019N0120001N1+03601+01871100551ADDAY121031AY221031GA1071+090009089GF107991001001999999001081MD1999999-0051MW1051REMSYN076AAXX  14154 65250 41462 71002 10360 20187 40055 70522 80008 333 59005 87280;EQDQ01+004502SCOLCB
0166652500999992000031509004+04850+007020FM-12+0018DNPO V0202401N005110045019N0100001N1+03061+02411101001ADDAY121031AY221031GA1051+004509029GF107991051081004501001081MD1999999-0051MW1051REMSYN076AAXX  15094 65250 41460 72410 10306 20241 40100 70522 85808 333 59005 85815;
0200652500999992000031515004+04850+007020FM-12+0018DNPO V0202101N007210039019N0100001N1+03221+02411100451ADDAY191031AY221031GA1061+003909089GA2011+006909099GF107991061091004501001081MD1999999-0111MW1171REMSYN094AAXX  15154 65250 41460 72114 10322 20241 40045 71792 86908 333 59011 86813 81923 94699 95707;
0144652500999992000031609004+04850+007020FM-12+0018DNPO V0203001N00101105001CN0110001N1+02851+02361101011ADDGA1021+003309069GF107991021051004501001081MD1999999+0011REMSYN076AAXX  16094 65250 42461 73002 10285 20236 40101 82508 333 58001 82611 87280;
0138652500999992000031615004+04850+007020FM-12+0018DNPO V0202001N004110900019N0150001N1+03201+02421100541ADDGA1071+090009089GF107991001001999999001999MD1999999+0091REMSYN070AAXX  16154 65250 42965 72008 10320 20242 40054 8000/ 333 58009 87280;
0166652500999992000031709004+04850+007020FM-12+0018DNPO V0202701N001510300019N0080001N1+02761+02481100871ADDAY121031AY221031GA1071+030009019GF107991071001999999021999MD1999999-0141MW1101REMSYN076AAXX  17094 65250 41958 72703 10276 20248 40087 71022 8702/ 333 59014 87460;
0138652500999992000031809004+04850+007020FM-12+0018DNPO V0202201N002110036019N0150001N1+02901+02471100971ADDGA1061+003609029GF107991061021004501031081MD1999999+0101REMSYN070AAXX  18094 65250 42465 72204 10290 20247 40097 86238 333 58010 86812;
0138652500999992000031909004+04850+007020FM-12+0018DNPO V0202201N004610036019N0180001N1+03041+02421100981ADDGA1051+003609029GF107991051021004501001081MD1999999+0071REMSYN070AAXX  19094 65250 42468 72209 10304 20242 40098 85208 333 58007 85812;
0202652500999992000032006004+04850+007020FM-12+0018DNPO V0209999C000010300019N0020001N1+02211+02151100721ADDAA112003091AY121061AY221061GA1071+030009019GF107991071001999999071081KA1120N+02151MD1999999-0071MW1101REMSYN088AAXX  20064 65250 11920 70000 10221 20215 40072 60032 71022 87078 333 20215 59007 87460;
0138652500999992000032009004+04850+007020FM-12+0018DNPO V0209999C000010900019N0200001N1+02761+02311100921ADDGA1071+090009089GF107991001001999999001081MD1999999+0061REMSYN070AAXX  20094 65250 42970 70000 10276 20231 40092 80008 333 58006 87280;
0144652500999992000032109004+04850+007020FM-12+0018DNPO V0209999C00001045001CN0150001N1+02601+02251100921ADDGA1031+003009069GF107991031051004501031081MD1999999-0021REMSYN076AAXX  21094 65250 42465 70000 10260 20225 40092 83538 333 59002 83610 87280;
0157652500999992000032118004+04850+007020FM-12+0018DNPO V02099999999990900019N0150001N1+03151+02221100461ADDGA1071+090009089GF107991001001999999081999KA1120M+03441MD1999999-0341REMSYN076AAXX  21184 65250 /2965 7/0/0 10315 20222 40046 8008/ 333 10344 59034 87280;
0174652500999992000032211004+04850+007020FM-15+0018DNPO V0201501N00461220001CN0112651N1+02501+02201999999ADDGA1071+002709999GA2021+006009099MA1101021999999MW1001REMMET074DNPO 221100Z 15009KT 9999 BKN009 FEW020CB 25/22 Q1010 RMK CB(N-NE) NOSIG ;EQDQ01+000022SCOTCVQ02+000000PRSWM2
0215652500999992000033006004+04850+007020FM-12+0018DNPO V0209999C000010027019N0060001N1+02461+02401100841ADDAA199000091AY121061AY221061GA1061+002709059GF107991061051002501001081KA1120N+02401MD1999999+0161MW1101REMSYN082AAXX  30064 65250 31356 70000 10246 20240 40084 71022 86508 333 20240 58016 86609;EQDQ01  00002PRCP99
0138652500999992000033009004+04850+007020FM-12+0018DNPO V0201201N005710045019N0200001N1+02961+02521100971ADDGA1061+004509029GF107991061021004501001081MD1999999+0171REMSYN070AAXX  30094 65250 42470 71211 10296 20252 40097 86208 333 58017 86815;
0144652500999992000033115004+04850+007020FM-12+0018DNPO V0201801N00311105001CN0200001N1+03301+02521100471ADDGA1021+005409089GF107991021021004501001081MD1999999-0091REMSYN076AAXX  31154 65250 42470 71806 10330 20252 40047 82208 333 59009 82818 87280;
0188652500999992000040109004+04850+007020FM-12+0018DNPO V0209999C000010300019N0150001N1+02431+02241100781ADDGA1021+002709069GA2011+006009099GA3071+030009049GF107991021091002501071999MD1999999-0081REMSYN088AAXX  01094 65250 42365 70000 10243 20224 40078 8297/ 333 59008 82609 81920 87460 94699;
0166652500999992000040415004+04850+007020FM-12+0018DNPO V0201601N007210039019N0150001N1+03051+02341100931ADDGA1061+003909089GA2011+007209099GF108991061091004501071081MD1999999+0231REMSYN082AAXX  04154 65250 42465 81614 10305 20234 40093 86978 333 58023 86813 81924 94699;
0173652500999992000040514004+04850+007020FM-15+0018DNPO V0201401N00411220001CN0112651N1+03301+02301999999ADDGA1071+004809999GA2021+006609099MA1100711999999MW1001REMMET073DNPO 051400Z 14008KT 9999 BKN016 SCT022CB 33/23 Q1007 RMK CB(A-R) NOSIG ;EQDQ01+000042SCOTCVQ02+000000PRSWM2
0154652500999992000050411004+04850+007020FM-15+0018DNPO V0202101N00311220001CN0112651N1+99999+99999999999ADDGA1071+003009999GA2021+006909099MA1101191999999MW1001REMMET054DNPO 041100Z 21006KT 9999 BKN010 FEW023CB 23/24 Q1012;EQDQ01+000022SCOTCVQ02+000000PRSWM2
0168652500999992000081412004+04850+007010FM-12+0018DNPO V0202001N007210042019N0200001N1+02781+02451101371ADDAA199000091GA1061+004209029GF107991061021004501001081MD1999999+0061REMSYN070AAXX  14124 65250 32470 72014 10278 20245 40137 86208 333 58006 86814;EQDQ01  00002PRCP99
0208652500999992000081806004+04850+007010FM-12+0018DNPO V0201801N00261045001CN0070001N1+02351+02271101431ADDAA112000791AY121061AY221061GA1021+002109069GF107991021051002501071999KA1120N+02261MD1999999+0051MW1101REMSYN094AAXX  18064 65250 11357 71805 10235 20227 40143 69902 71022 8257/ 333 20226 58005 82607 87460;
0183652500999992000082107004+04850+007010FM-15+0018DNPO V0202401N003110300019N0080001N1+02401+02301999999ADDGA1021+003009999GA2071+030009999GF107991999999999999999999MA1101391999999MW1101REMMET057DNPO 210700Z 24006KT 8000 -BR SCT010 BKN100 24/23 Q1014 ;EQDQ01+000003PRSWM1Q02    003PRSWM1
0183652500999992000082108004+04850+007010FM-15+0018DNPO V0202401N004110300019N0080001N1+02501+02301999999ADDGA1021+003309999GA2071+030009999GF107991999999999999999999MA1101491999999MW1101REMMET057DNPO 210800Z 24008KT 8000 -BR SCT011 BKN100 25/23 Q1015 ;EQDQ01+000003PRSWM1Q02    003PRSWM1
0196652500999992000082112004+04850+007010FM-12+0018DNPO V0202101N006210042019N0250001N1+02851+02301101381ADDAA199000091GA1061+004209089GA2011+007209099GF107991061091004501071081MD1999999-0041REMSYN082AAXX  21124 65250 32475 72112 10285 20230 40138 86978 333 59004 86814 81924 94699;EQDQ01  00002PRCP99
0160652500999992000082307004+04850+007010FM-15+0018DNPO V0209999C000010018019N0080001N1+02501+02301999999ADDGA1071+001809999GF107991999999999999999999MA1101391999999MW1101REMMET050DNPO 230700Z 00000KT 8000 -BR BKN006 25/23 Q1014 ;EQDQ01+000003PRSWM1Q02    003PRSWM1
0160652500999992000082308004+04850+007010FM-15+0018DNPO V0202001N001510021019N0060001N1+02501+02301999999ADDGA1071+002109999GF107991999999999999999999MA1101491999999MW1511REMMET050DNPO 230800Z 20003KT 6000 -DZ BKN007 25/23 Q1015 ;EQDQ01+000003PRSWM1Q02    003PRSWM1
0189652500999992000082408004+04850+007010FM-15+0018DNPO V0202201N003110300019N0112651N1+02501+02301999999ADDGA1021+002409999GA2071+030009999GF107991999999999999999999MA1101491999999MW1101REMMET063DNPO 240800Z 22006KT 9999 -BR SCT008 BKN100 25/23 Q1015 NOSIG ;EQDQ01+000003PRSWM1Q02    003PRSWM1
0172652500999992000082410004+04850+007010FM-15+0018DNPO V0202101N00411220001CN0112651N1+02701+02401999999ADDGA1071+003609999GA2021+006609099MA1101591999999MW1001REMMET072DNPO 241000Z 21008KT 9999 BKN012 SCT022CB 27/24 Q1016 RMK CB(SD) NOSIG ;EQDQ01+000042SCOTCVQ02+000000PRSWM2
0183652500999992000082512004+04850+007010FM-12+0018DNPO V0202101N004610039019N0200001N1+02811+02331101281ADDAA106000791GA1061+003909089GA2011+007209099GF107991061091004501071999MD1999999-0151REMSYN088AAXX  25124 65250 12470 72109 10281 20233 40128 69901 8697/ 333 59015 86813 81924 94699;
0159652500999992000082608004+04850+007010FM-15+0018DNPO V0209999C000010024019N0090001N1+02501+02401999999ADDGA1071+002409999GF107991999999999999999999MA1101291999999MW1101REMMET049DNPO 260800Z 00000KT 9000 -BR BKN008 25/24 Q1013;EQDQ01+000003PRSWM1Q02    003PRSWM1
0183652500999992000082713004+04850+007010FM-15+0018DNPO V0202601N003110300019N0060001N1+02501+02401999999ADDGA1021+001809999GA2071+030009999GF107991999999999999999999MA1101021999999MW1611REMMET057DNPO 271300Z 26006KT 6000 -RA SCT006 BKN100 25/24 Q1010 ;EQDQ01+000003PRSWM1Q02    003PRSWM1
0150652500999992000082716004+04850+007010FM-15+0018DNPO V0202701N00211220001CN0112651N1+99999+99999999999ADDGA1071+002409999GA2021+006909999MW1001REMMET065DNPO 271600Z 27004KT 9999 BKN008 FEW023(SD)CB 23/23 Q1010 NOSIG ;EQDQ01+000022SCOTCVQ02+000000PRSWM2
0155652500999992000082912004+04850+007010FM-12+0018DNPO V0202701N003110042019N0200001N1+02701+02411101151ADDAA118000591GA1061+004209029GF107991061021004501071081MD1999999+0001REMSYN076AAXX  29124 65250 12470 72706 10270 20241 40115 69963 86278 333 58000 86814;
0168652500999992000083012004+04850+007010FM-12+0018DNPO V0201901N003110045019N0250001N1+02901+02441101081ADDAA199000091GA1061+004509029GF107991061021004501071081MD1999999-0071REMSYN070AAXX  30124 65250 32475 71906 10290 20244 40108 86278 333 59007 86815;EQDQ01  00002PRCP99
0168652500999992000090412004+04850+007010FM-12+0018DNPO V0201601N001010042019N0200001N1+02881+02361101131ADDAA199000091GA1061+004209029GF107991061021004501031081MD1999999+0121REMSYN070AAXX  04124 65250 32470 71602 10288 20236 40113 86238 333 58012 86814;EQDQ01  00002PRCP99
0252652500999992000090418004+04850+007010FM-12+0018DNPO V0201801N00461006601CN0150001N1+02471+02401100951ADDAA106002091AY161061AY221061GA1041+003309069GA2011+006609099GA3061+030009049GF107991041091004501071081KA1120M+02921MD1999999-0031MW1211REMSYN106AAXX  04184 65250 11465 71809 10247 20240 40095 60021 72162 84978 333 10292 59003 84611 81922 86460 94699;
0202652500999992000090606004+04850+007010FM-12+0018DNPO V0209999C000010015019N0050001N1+02381+02331101181ADDAA124005191AY161061AY251061GA1071+001509059GF107991071051001501999999KA1120N+02301MD1999999+0011MW1601REMSYN088AAXX  06064 65250 11250 70000 10238 20233 40118 60054 76065 875// 333 20230 58001 87605;
0211652500999992000091012004+04850+007010FM-12+0018DNPO V0201801N003110036019N0150001N1+02551+02411101101ADDAA106002091AY191061AY261061GA1061+003609069GA2011+006609099GF107991041091004501071999MD1999999+0011MW1951REMSYN094AAXX  10124 65250 11465 71806 10255 20241 40110 60021 79596 8497/ 333 58001 86612 81922 87460;
0167652500999992000091407004+04850+007010FM-15+0018DNPO V0209999C000012200019N0112651N1+99999+99999999999ADDGA1021+002709999GA2021+006909099GF104991999999999999999999MW1001REMMET072DNPO 140700Z 00000KT 9999 SCT009 SCT023CB(SD) BKN100 24/24 Q1013 NOSIG ;EQDQ01+000000PRSWM2
0211652500999992000091512004+04850+007010FM-12+0018DNPO V0201901N006710036019N0250001N1+02941+01951999999ADDAA199000091GA1061+003609089GA2011+006909099GF107991061091004501031021MA1999999087201MD1999999+0021REMSYN082AAXX  15124 65250 32475 71913 10294 20195 38720 86932 333 58002 86812 81923 94684;EQDQ01  00002PRCP99
0168652500999992000092012004+04850+007010FM-12+0018DNPO V0203301N002110054019N0300001N1+03041+02381101061ADDAA199000091GA1061+005409029GF107991061021004501001081MD1999999-0151REMSYN070AAXX  20124 65250 32480 73304 10304 20238 40106 86208 333 59015 86818;EQDQ01  00002PRCP99
0211652500999992000093012004+04850+007010FM-12+0018DNPO V0201501N003610036019N0180001N1+02581+02331101331ADDAA106000791AY151061AY221061GA1061+003609069GA2011+006909099GF108991061091004501071999MD1999999+0181MW1501REMSYN094AAXX  30124 65250 11468 81507 10258 20233 40133 69901 75052 8697/ 333 58018 86612 81923 94699;
0155652500999992000100100004+04850+007010FM-12+0018DNPO V0209999C00001045001CN0100001N1+02411+02321101311ADDAA199000021GA1031+002109069GF107991021051002501071081MD1999999+0021REMSYN076AAXX  01004 65250 32360 70000 10241 20232 40131 82578 333 58002 83607 87460;
0208652500999992000100106004+04850+007010FM-12+0018DNPO V0209999C00001045001CN0060001N1+02371+02321101321ADDAA118001091AY121061AY221061GA1031+002109069GF107991031051002501071081KA1120N+02291MD1999999+0021MW1101REMSYN094AAXX  01064 65250 11356 70000 10237 20232 40132 60013 71022 83578 333 20229 58002 83607 87460;
0196652500999992000100112004+04850+007010FM-12+0018DNPO V0202101N005110045019N0200001N1+03051+02251101241ADDAA199000091GA1061+004509089GA2011+006909099GF107991061091004501071081MD1999999-0091REMSYN082AAXX  01124 65250 32470 72110 10305 20225 40124 86978 333 59009 86815 81923 94699;EQDQ01  00002PRCP99
0224652500999992000100118004+04850+007010FM-12+0018DNPO V0202401N007210300019N0120001N1+02621+02391101111ADDAA106000591GA1021+002709069GA2011+006609099GA3061+030009059GF107991021091002501071081KA1120M+03051MD1999999+0041REMSYN100AAXX  01184 65250 12362 72414 10262 20239 40111 69941 82978 333 10305 58004 82609 81922 86560 94699;
0224652500999992000100318004+04850+007010FM-12+0018DNPO V0201501N00671006901CN0150001N1+02601+02381100981ADDAA106001091GA1041+003009069GA2011+006909099GA3061+030009049GF107991041091004501071999KA1120M+03071MD1999999-0121REMSYN100AAXX  03184 65250 12465 71513 10260 20238 40098 60011 8497/ 333 10307 59012 84610 81923 86460 94699;
0208652500999992000100406004+04850+007010FM-12+0018DNPO V0202401N00511045001CN0050001N1+02281+02241101181ADDAA118002091AY161061AY221061GA1041+002109069GF108991041051002501071081KA1120N+02261MD1999999+0091MW1601REMSYN094AAXX  04064 65250 11350 82410 10228 20224 40118 60023 76062 84578 333 20226 58009 84607 86460;
0211652500999992000100412004+04850+007010FM-12+0018DNPO V0201601N009310045019N0200001N1+02551+02331101121ADDAA106000791AY161061AY221061GA1061+004509089GA2011+006909099GF107991061091004501071999MD1999999+0011MW1601REMSYN094AAXX  04124 65250 11470 71618 10255 20233 40112 69901 76062 8697/ 333 58001 86815 81923 94699;
0224652500999992000100418004+04850+007010FM-12+0018DNPO V0202001N005110300019N0180001N1+02521+02301100961ADDAA112003091GA1031+003909069GA2011+006609099GA3071+030009049GF107991031091004501071999KA1120M+02831MD1999999-0021REMSYN100AAXX  04184 65250 12468 72010 10252 20230 40096 60032 8397/ 333 10283 59002 83613 81922 87460 94699;
0218652500999992000100512004+04850+007010FM-12+0018DNPO V0203001N003110048019N0300001N1+02941+02351101051ADDAA199000091GA1051+004809089GA2011+007209099GA3071+090009029GF107991051091004501001081MD1999999-0071REMSYN088AAXX  05124 65250 32480 73006 10294 20235 40105 85908 333 59007 85816 81924 87280 94699;EQDQ01  00002PRCP99
0174652500999992000100618004+04850+007010FM-12+0018DNPO V0209999C000010300019N0120001N1+02401+02301101011ADDAA106000791GA1071+030009019GF107991001001999999071999KA1120M+02871MD1999999+0061REMSYN082AAXX  06184 65250 12962 70000 10240 20230 40101 69901 8007/ 333 10287 58006 87460;
0161652500999992000100708004+04850+007010FM-15+0018DNPO V0209999C000010300019N0050001N1+02401+02301999999ADDGA1021+002709999GA2071+030009999GF107991999999999999999999MA1101291999999MW1001REMMET051DNPO 070800Z 00000KT -BR SCT009 BKN100 24/23 Q1013;EQDQ01+000000PRSWM2
0168652500999992000100712004+04850+007010FM-12+0018DNPO V0202001N001510045019N0200001N1+02951+02461101161ADDAA199000091GA1061+004509029GF107991061021004501001081MD1999999+0031REMSYN070AAXX  07124 65250 32470 72003 10295 20246 40116 86208 333 58003 86815;EQDQ01  00002PRCP99
0224652500999992000100818004+04850+007010FM-12+0018DNPO V0201901N002110300019N0150001N1+02401+02281101041ADDAA112005191GA1031+002409069GA2011+006009099GA3071+030009049GF107991031091002501071999KA1120M+02811MD1999999-0031REMSYN100AAXX  08184 65250 12365 71904 10240 20228 40104 60052 8397/ 333 10281 59003 83608 81920 87460 94699;
0211652500999992000100912004+04850+007010FM-12+0018DNPO V0201201N002610015019N0090001N1+02441+02311101301ADDAA106002091AY191061AY261061GA1071+001509069GA2011+006009099GF108991071091001501999999MD1999999+0071MW1951REMSYN094AAXX  09124 65250 11259 81205 10244 20231 40130 60021 79596 879// 333 58007 87605 81920 94699;
0202652500999992000101006004+04850+007010FM-12+0018DNPO V0209999C000010018019N0030001N1+02241+02211101251ADDAA124011991AY161061AY251061GA1061+001809059GF107991061051001501071081KA1120N+02081MD1999999+0031MW1501REMSYN088AAXX  10064 65250 11230 70000 10224 20221 40125 60124 75065 86578 333 20208 58003 86606;
0177652500999992000101012004+04850+007010FM-12+0018DNPO V0209999C000010045019N0250001N1+02901+02401101161ADDAA199000021GA1061+004509089GA2011+007209099GF107991061091004501031081MD1999999-0121REMSYN082AAXX  10124 65250 32475 70000 10290 20240 40116 86938 333 59012 86815 81924 94699;
0196652500999992000101112004+04850+007010FM-12+0018DNPO V0209999C000010045019N0300001N1+02901+02381101101ADDAA199000091GA1051+004509089GA2011+007209099GF107991051091004501031081MD1999999-0081REMSYN082AAXX  11124 65250 32480 70000 10290 20238 40110 85938 333 59008 85815 81924 94699;EQDQ01  00002PRCP99
0168652500999992000101312004+04850+007010FM-12+0018DNPO V0209999C000010045019N0200001N1+02761+02471101051ADDAA199000091GA1061+004509029GF107991061021004501071081MD1999999-0091REMSYN070AAXX  13124 65250 32470 70000 10276 20247 40105 86278 333 59009 86815;EQDQ01  00002PRCP99
0168652500999992000110312004+04850+007010FM-12+0018DNPO V0202901N001510051019N0300001N1+03001+02511100781ADDAA199000091GA1061+005109029GF107991061021004501031081MD1999999-0051REMSYN070AAXX  03124 65250 32480 72903 10300 20251 40078 86238 333 59005 86817;EQDQ01  00002PRCP99
0230652500999992000110506004+04850+007010FM-12+0018DNPO V0200301N003610024019N0025001N1+02201+02121101051ADDAA106013091AY191061AY261061GA1061+002409069GA2011+006009099GF108991061091001501999999KA1120N+02151MD1999999+0161MW1951REMSYN100AAXX  05064 65250 11225 80307 10220 20212 40105 60131 79596 869// 333 20215 58016 86608 81920 94699;
0237652500999992000110718004+04850+007010FM-12+0018DNPO V0201701N003110300019N0200001N1+02801+02561100651ADDAA199000091GA1031+003009069GA2011+007509099GA3061+030009049GF107991031091004501071081KA1120M+03071MD1999999-0101REMSYN094AAXX  07184 65250 32470 71706 10280 20256 40065 83978 333 10307 59010 83610 81925 86460 94699;EQDQ01  00002PRCP99
0145652500999992000110808004+04850+007010FM-15+0018DNPO V0202701N002110024019N0112651N1+02701+02501999999ADDGA1071+002409999GF107991999999999999999999MA1100811999999MW1001REMMET051DNPO 080800Z 27004KT 9999 BKN008 27/25 Q1008 NOSIG;EQDQ01+000000PRSWM2
0168652500999992000110912004+04850+007010FM-12+0018DNPO V0202701N003610045019N0300001N1+03101+02521100681ADDAA199000091GA1061+004509029GF107991061021004501001081MD1999999+0051REMSYN070AAXX  09124 65250 32480 72707 10310 20252 40068 86208 333 58005 86815;EQDQ01  00002PRCP99
0215652500999992000111006004+04850+007010FM-12+0018DNPO V0209999C000010018019N0020001N1+02361+02331100771ADDAA199000091AY121061AY221061GA1061+001809059GF107991061051001501999999KA1120N+02241MD1999999+0021MW1101REMSYN082AAXX  10064 65250 31220 70000 10236 20233 40077 71022 865// 333 20224 58002 86606;EQDQ01  00002PRCP99
0168652500999992000111112004+04850+007010FM-12+0018DNPO V0202101N004110048019N0250001N1+03071+02461100911ADDAA199000091GA1061+004809029GF107991061021004501001081MD1999999+0131REMSYN070AAXX  11124 65250 32475 72108 10307 20246 40091 86208 333 58013 86816;EQDQ01  00002PRCP99
0265652500999992000111506004+04850+007010FM-12+0018DNPO V0209999C000010300019N0060001N1+02521+02461101061ADDAA199000091AY121061AY221061GA1021+003009069GA2011+006009099GA3071+030009039GF107991021091004501031081KA1120N+02451MD1999999+0261MW1101REMSYN100AAXX  15064 65250 31456 70000 10252 20246 40106 71022 82938 333 20245 58026 82610 81920 87360 94647;EQDQ01  00002PRCP99
0168652500999992000111512004+04850+007010FM-12+0018DNPO V0202001N003110048019N0300001N1+03051+02411101031ADDAA199000091GA1051+004809029GF107991051021004501071081MD1999999+0201REMSYN070AAXX  15124 65250 32480 72006 10305 20241 40103 85278 333 58020 85816;EQDQ01  00002PRCP99
0168652500999992000111712004+04850+007010FM-12+0018DNPO V0202701N003110045019N0200001N1+03001+02511100971ADDAA199000091GA1051+004509029GF107991051021004501001081MD1999999-0051REMSYN070AAXX  17124 65250 32470 72706 10300 20251 40097 85208 333 59005 85815;EQDQ01  00002PRCP99
0237652500999992000111818004+04850+007010FM-12+0018DNPO V0202001N004610330019N0250001N1+02681+02381100921ADDAA199000091GA1021+003309069GA2011+006609099GA3061+033009049GF107991021091004501071081KA1120M+03071MD1999999-0051REMSYN094AAXX  18184 65250 32475 72009 10268 20238 40092 82978 333 10307 59005 82611 81922 86461 94624;EQDQ01  00002PRCP99
0202652500999992000112006004+04850+007010FM-12+0018DNPO V0209999C000010012019N0001001N1+02331+02311101181ADDAA118016091AY141061AY241061GA1061+001209069GF107991061061001501999999KA1120N+02251MD1999999+0121MW1441REMSYN088AAXX  20064 65250 11201 70000 10233 20231 40118 60163 74444 866// 333 20225 58012 86704;
0139652500999992000112011004+04850+007010FM-15+0018DNPO V0209999C000010039019N0112651N1+02901+02401999999ADDGA1071+003909999GF107991999999999999999999MA1101081999999MW1001REMMET045DNPO 201100Z 00000KT 9999 BKN013 29/24 Q1011;EQDQ01+000000PRSWM2
0168652500999992000112012004+04850+007010FM-12+0018DNPO V0209999C000010045019N0250001N1+03111+02491101031ADDAA199000091GA1061+004509029GF107991061021004501071081MD1999999-0061REMSYN070AAXX  20124 65250 32475 70000 10311 20249 40103 86278 333 59006 86815;EQDQ01  00002PRCP99
0237652500999992000112118004+04850+007010FM-12+0018DNPO V0202001N00311006901CN0150001N1+02651+02351101071ADDAA199000091GA1041+003309069GA2011+006909099GA3061+090009029GF107991041091004501031081KA1120M+03291MD1999999+0071REMSYN094AAXX  21184 65250 32465 72006 10265 20235 40107 84938 333 10329 58007 84611 81923 86280 94699;EQDQ01  00002PRCP99
0168652500999992000112312004+04850+007010FM-12+0018DNPO V0202401N001010048019N0250001N1+03201+02341101121ADDAA199000091GA1061+004809029GF107991061021004501001081MD1999999+0021REMSYN070AAXX  23124 65250 32475 72402 10320 20234 40112 86208 333 58002 86816;EQDQ01  00002PRCP99
0174652500999992000112912004+04850+007010FM-12+0018DNPO V0201501N00311045001CN0160001N1+02871+02471101161ADDAA199000091GA1041+003909069GF107991041051004501071081MD1999999+0061REMSYN076AAXX  29124 65250 32466 71506 10287 20247 40116 84578 333 58006 84613 86461;EQDQ01  00002PRCP99
0202652500999992000120612004+04850+007010FM-12+0018DNPO V0200401N00211105001CN0180001N1+03121+01861101041ADDAA199000091AY121061AY221061GA1021+004509089GF107991021021004501001081MD1999999+0071MW1051REMSYN082AAXX  06124 65250 31468 70404 10312 20186 40104 70522 82208 333 58007 82815 87280;EQDQ01  00002PRCP99
0215652500999992000120706004+04850+007010FM-12+0018DNPO V0209999C000010900019N0060001N1+01901+01741101201ADDAA199000091AY121061AY221061GA1071+090009089GF107991001001999999001081KA1120N+01841MD1999999+0051MW1101REMSYN082AAXX  07064 65250 31956 70000 10190 20174 40120 71022 80008 333 20184 58005 87280;EQDQ01  00002PRCP99
0221652500999992000121118004+04850+007010FM-12+0018DNPO V0209999C00001105001CN0030001N1+02681+02011101061ADDAA199000091AY121061AY221061GA1021+003009069GF107991021051004501001081KA1120M+03241MD1999999+0091MW1051REMSYN088AAXX  11184 65250 31430 70000 10268 20201 40106 70522 82508 333 10324 58009 82610 87280;EQDQ01  00002PRCP99
0159652500999992000121208004+04850+007010FM-15+0018DNPO V0203301N003110900019N0050001N1+02501+01901999999ADDGA1071+090009999GF107991999999999999999999MA1101291999999MW1051REMMET049DNPO 120800Z 33006KT 5000 -HZ BKN300 25/19 Q1013;EQDQ01+000003PRSWM1Q02    003PRSWM1
0202652500999992000121212004+04850+007010FM-12+0018DNPO V0200701N00411045001CN0045001N1+03131+02391101091ADDAA199000091AY121061AY221061GA1021+004209089GF107991021021004501031081MD1999999+0051MW1051REMSYN082AAXX  12124 65250 31445 70708 10313 20239 40109 70522 82238 333 58005 82814 87280;EQDQ01  00002PRCP99
0196652500999992000121412004+04850+007010FM-12+0018DNPO V0203401N006210900019N0150001N1+03111+00801100871ADDAA199000091AY121061AY221061GA1071+090009089GF107991001001999999001081MD1999999-0081MW1051REMSYN076AAXX  14124 65250 31965 73412 10311 20080 40087 70522 80008 333 59008 87280;EQDQ01  00002PRCP99
0215652500999992000121418004+04850+007010FM-12+0018DNPO V0209999C000010900019N0150001N1+02751+02081100781ADDAA199000091AY121061AY221061GA1071+090009089GF107991001001999999001081KA1120M+03251MD1999999-0111MW1051REMSYN082AAXX  14184 65250 31965 70000 10275 20208 40078 70522 80008 333 10325 59011 87280;EQDQ01  00002PRCP99
0196652500999992000121512004+04850+007010FM-12+0018DNPO V0203301N006710900019N0180001N1+03081+00931100781ADDAA199000091AY121061AY221061GA1071+090009089GF107991001001999999001081MD1999999-0091MW1051REMSYN076AAXX  15124 65250 31968 73313 10308 20093 40078 70522 80008 333 59009 87280;EQDQ01  00002PRCP99
0215652500999992000121518004+04850+007010FM-12+0018DNPO V0209999C000010900019N0120001N1+02711+02101100811ADDAA199000091AY121061AY221061GA1071+090009089GF107991001001999999001081KA1120M+03231MD1999999+0031MW1051REMSYN082AAXX  15184 65250 31962 70000 10271 20210 40081 70522 80008 333 10323 58003 87280;EQDQ01  00002PRCP99
0196652500999992000121612004+04850+007010FM-12+0018DNPO V0200201N004110900019N0030001N1+03151+01101100781ADDAA199000091AY121061AY221061GA1071+090009089GF107991001001999999001081MD1999999+0001MW1051REMSYN076AAXX  16124 65250 31930 70208 10315 20110 40078 70522 80008 333 58000 87280;EQDQ01  00002PRCP99
0215652500999992000121618004+04850+007010FM-12+0018DNPO V0209999C000010900019N0040001N1+02761+02111100791ADDAA199000091AY121061AY221061GA1071+090009089GF107991001001999999001081KA1120M+03311MD1999999-0021MW1051REMSYN082AAXX  16184 65250 31940 70000 10276 20211 40079 70522 80008 333 10331 59002 87280;EQDQ01  00002PRCP99
0215652500999992000121706004+04850+007010FM-12+0018DNPO V0209999C000010900019N0030001N1+01921+01811101001ADDAA199000091AY121061AY221061GA1071+090009089GF107991001001999999001081KA1120N+01851MD1999999+0061MW1101REMSYN082AAXX  17064 65250 31930 70000 10192 20181 40100 71022 80008 333 20185 58006 87280;EQDQ01  00002PRCP99
0221652500999992000121806004+04850+007010FM-12+0018DNPO V0203601N003110012019N0004001N1+01901+01841101041ADDAA199000091AY141061AY241061GA1061+001209079GF107991061061001501001081KA1120N+01851MD1999999+0051MW1441REMSYN088AAXX  18064 65250 31204 73606 10190 20184 40104 74444 86608 333 20185 58005 86704 97711;EQDQ01  00002PRCP99
0202652500999992000121912004+04850+007010FM-12+0018DNPO V0203201N00621105001CN0100001N1+03081+02321100941ADDAA199000091AY121061AY221061GA1041+004509089GF107991041021004501001081MD1999999+0061MW1051REMSYN082AAXX  19124 65250 31460 73212 10308 20232 40094 70522 84208 333 58006 84815 86280;EQDQ01  00002PRCP99
0172652500999992000122012004+04850+007010FM-12+0018DNPO V0202001N00571045001CN0130001N1+03161+02381100711ADDAY121061AY221061GA1021+004809089GF107991021021004501071081MD1999999-0041MW1051REMSYN082AAXX  20124 65250 41463 72011 10316 20238 40071 70522 82278 333 59004 82816 86462;
0168652500999992000122612004+04850+007010FM-12+0018DNPO V0203001N002610045019N0200001N1+03161+02381101101ADDAA199000091GA1061+004509029GF107991061021004501001081MD1999999-0071REMSYN070AAXX  26124 65250 32470 73005 10316 20238 40110 86208 333 59007 86815;EQDQ01  00002PRCP99
0215652500999992000122918004+04850+007010FM-12+0018DNPO V0201501N006210036019N0300001N1+02931+02521100861ADDAA199000091GA1061+003609069GA2011+007509099GF107991061091004501001081KA1120M+03351MD1999999-0191REMSYN088AAXX  29184 65250 32480 71512 10293 20252 40086 86908 333 10335 59019 86612 81925 94625;EQDQ01  00002PRCP99
