0281653870999992000010100004+06170+001250SY-MT+0025DXXX V0202401N001010690019N0070001N1+02701+02561100851ADDAA106000091GA1021+003009999GA2071+069009999GF107991031021004501001021MA1100811100571MD1999999-0041MW1001REMSYN082AAXX  01004 65387 32457 72402 10270 20256 30057 40085 83202 333 59004 83810 87073;MET058DXXX 010000Z 24002KT 7000 SCT010 BKN230 27/26 Q1008 NOSIG;EQDQ01  00002PRCP06
0149653870999992000010102004+06170+001250FM-15+0025DXXX V0209999C000010690019N0060001N1+02601+02501999999ADDGA1021+003009999GA2071+069009999GF107991999999999999999999MA1100711999999MW1001REMMET058DXXX 010200Z 00000KT 6000 SCT010 BKN230 26/25 Q1007 NOSIG;
0149653870999992000010103004+06170+001250FM-15+0025DXXX V0209999C000010690019N0060001N1+02601+02501999999ADDGA1021+003009999GA2071+069009999GF107991999999999999999999MA1100711999999MW1001REMMET058DXXX 010300Z 00000KT 6000 SCT010 BKN230 26/25 Q1007 NOSIG;
0149653870999992000010104004+06170+001250FM-15+0025DXXX V0209999C000010690019N0060001N1+02501+02401999999ADDGA1021+003009999GA2071+069009999GF107991999999999999999999MA1100711999999MW1001REMMET058DXXX 010400Z 00000KT 6000 SCT010 BKN230 25/24 Q1007 NOSIG;
0149653870999992000010105004+06170+001250FM-15+0025DXXX V0209999C000010690019N0060001N1+02501+02401999999ADDGA1021+003009999GA2071+069009999GF107991999999999999999999MA1100711999999MW1001REMMET058DXXX 010500Z 00000KT 6000 SCT010 BKN230 25/24 Q1007 NOSIG;
0163653870999992000010107004+06170+001250FM-15+0025DXXX V0202801N002110690019N0040001N1+02501+99999999999ADDGA1021+003009999GA2071+069009999GF107991999999999999999999MW1101REMMET068DXXX 010700Z 28004KT 4000 BR FEW010 BKN230 25///// Q1008 BECMG 6000;EQDQ01    003PRSWM1
0165653870999992000010109004+06170+001250FM-12+0025DXXX V0202601N00311105001CN0070001N1+99999+99999100921ADDGA1021+003909089GF107991021021004501001021MA1999999100641MD1999999-0071REMSYN082AAXX  01094 65387 42457 72606 1/276 20253 30064 40092 82202 333 59007 82813 87073;
0195653870999992000010112004+06170+001250FM-12+0025DXXX V0202201N00411105001CN0070001N1+03151+02451100771ADDAA106000091GA1021+006009089GF107991021021008001001021MA1999999100491MD1999999+0021REMSYN082AAXX  01124 65387 32557 72208 10315 20245 30049 40077 82202 333 58002 82820 87073;EQDQ01  00002PRCP06
0149653870999992000010115004+06170+001250FM-15+0025DXXX V0202201N004110330019N9999999N1+03101+02501999999ADDGA1021+006009999GA2071+033009999GF107991999999999999999999MA1100511999999MW1001REMMET058DXXX 011500Z 22008KT 7000 FEW020 BKN110 31/25 Q1005 NOSIG;
0172653870999992000010117004+06170+001250FM-15+0025DXXX V0202201N003110690019N0070001N1+02901+02501999999ADDGA1021+004809999GA2021+033009999GA3071+069009999GF107991999999999999999999MA1100611999999MW1001REMMET065DXXX 011700Z 22006KT 7000 FEW016 SCT110 BKN230 29/25 Q1006 NOSIG;
0172653870999992000010119004+06170+001250FM-15+0025DXXX V0202201N002110690019N0070001N1+02901+02601999999ADDGA1021+003009999GA2021+030009999GA3071+069009999GF107991999999999999999999MA1100811999999MW1001REMMET065DXXX 011900Z 22004KT 7000 SCT010 SCT100 BKN230 29/26 Q1008 NOSIG;
0170653870999992000010120004+06170+001250FM-15+0025DXXX V0202201N003110690019N0070001N1+02801+02601999999ADDGA1021+003009999GA2021+030009999GA3071+069009999GF107991999999999999999999MA1100811999999MW1001REMMET063DXXX 012000Z 22006KT 7000 SCT010 SCT100 BKN230 28/26 Q1008 NSG;
0165653870999992000010121004+06170+001250FM-12+0025DXXX V0202201N00311045001CN0070001N1+02801+02591100501ADDGA1021+003009089GF107991021021004501041999MA1999999100571MD1999999+0001REMSYN082AAXX  01214 65387 42457 72206 10280 20259 30057 4005/ 8224/ 333 58000 82810 87073;
0214653870999992000010206004+06170+001250FM-12+0025DXXX V0202201N00101105001CN0070001N1+02701+02561100761ADDAA106000091GA1041+003009089GF107991041021004501001021KA1120N+02661MA1999999100481MD1999999-0031REMSYN088AAXX  02064 65387 32457 72202 10270 20256 30048 40076 84202 333 20266 59003 84810 87073;EQDQ01  00002PRCP06
0177653870999992000010207004+06170+001250FM-15+0025DXXX V0202201N001010030019N0060001N1+02701+02601999999ADDGA1071+003009999GA2071+069009999GF107991999999999999999999MA1100811999999MW1001REMMET067DXXX 020700Z 22002KT 6000 BKN010 BKN230 027/26 Q1008 TEMPO 4000 BR;EQDQ01+000000PRSWM2
0168653870999992000010208004+06170+001250FM-15+0025DXXX V0209999C000010690019N0060001N1+02701+02601999999ADDGA1021+003009999GA2071+069009999GF107991999999999999999999MA1100811999999MW1001REMMET058DXXX 020800Z 00000KT 6000 SCT010 BKN230 27/26 Q1008 NOSIG;EQDQ01+000000PRSWM2
0299653870999992000010209004+06170+001250SY-MT+0025DXXX V0202201N00211069001CN0080001N1+02761+02591100861ADDGA1021+003909999GA2021+030009999GA3071+069009999GF107991041021004501041021MA1100811100581MD1999999-0061MW1001REMSYN088AAXX  02094 65387 42452 72204 10276 20259 30058 40086 84242 333 59006 84813 83360 87073;MET065DXXX 020900Z 22004KT 8000 SCT013 SCT100 BKN230 28/26 Q1008 NOSIG;EQDQ01+000000PRSWM2
0189653870999992000010211004+06170+001250FM-15+0025DXXX V0202401N002110300019N0080001N1+02901+02601999999ADDGA1021+003909999GA2021+004809999GA3071+030009999GF107991999999999999999999MA1100811999999MW1001REMMET063DXXX 021100Z 24004KT 8000 FEW013 SCT016 BKN100 29/26 Q1008 NSG;EQDQ01+000000PRSWM2
0354653870999992000010212004+06170+001250SY-MT+0025DXXX V0202201N00311069001CN0080001N1+03011+02581100791ADDAA106000191AY161061AY221061GA1021+004809999GA2021+030009999GA3071+069009999GF107991021021004501041021MA1100811100511MD1999999+0021MW1011REMSYN100AAXX  02124 65387 11458 72206 10301 20258 30051 40079 69911 70162 82242 333 58002 82816 83360 87073;MET065DXXX 021200Z 22006KT 8000 FEW016 SCT100 BKN230 30/26 Q1008 NOSIG;EQDQ01+000000PRSWM2Q02    003PRSWM1
0301653870999992000010215004+06170+001250SY-MT+0025DXXX V0202201N00411069001CN0080001N1+03041+02541100541ADDGA1021+006009999GA2021+006909099GA3071+069009999GF107991021091008001031021MA1100511100261MD1999999-0021MW1001REMSYN082AAXX  02154 65387 42558 72208 10304 20254 30026 40054 82932 333 59002 8282/ 958/7;MET073DXXX 021500Z 22008KT 8000 FEW020 FEW023CB BKN230 30/25 Q1005 CB NW NOSIG;EQDQ01+000000PRSWM2
0168653870999992000010216004+06170+001250FM-15+0025DXXX V0202201N004110690019N0080001N1+03001+02501999999ADDGA1021+004809999GA2071+069009999GF107991999999999999999999MA1100511999999MW1001REMMET058DXXX 021600Z 22008KT 8000 FEW016 BKN230 30/25 Q1005 NOSIG;EQDQ01+000000PRSWM2
0168653870999992000010217004+06170+001250FM-15+0025DXXX V0202201N005110690019N0080001N1+02901+02501999999ADDGA1021+004809999GA2071+069009999GF107991999999999999999999MA1100611999999MW1001REMMET058DXXX 021700Z 22010KT 8000 FEW016 BKN230 29/25 Q1006 NOSIG;EQDQ01+000000PRSWM2
0191653870999992000010218004+06170+001250FM-15+0025DXXX V0202401N004110690019N0080001N1+02801+02501999999ADDGA1021+003909999GA2021+030009999GA3071+069009999GF107991999999999999999999MA1100711999999MW1001REMMET065DXXX 021800Z 24008KT 8000 FEW013 SCT100 BKN230 28/25 Q1007 NOSIG;EQDQ01+000000PRSWM2
0168653870999992000010220004+06170+001250FM-15+0025DXXX V0202401N003110690019N0080001N1+02801+02401999999ADDGA1021+003009999GA2071+069009999GF107991999999999999999999MA1100711999999MW1001REMMET058DXXX 022000Z 24006KT 8000 FEW010 BKN230 28/24 Q1007 NOSIG;EQDQ01+000000PRSWM2
0168653870999992000010221004+06170+001250FM-15+0025DXXX V0202401N003110690019N0080001N1+02801+02501999999ADDGA1021+003009999GA2071+069009999GF107991999999999999999999MA1100811999999MW1001REMMET058DXXX 022100Z 24006KT 8000 FEW010 BKN230 28/25 Q1008 NOSIG;EQDQ01+000000PRSWM2
0168653870999992000010222004+06170+001250FM-15+0025DXXX V0202401N002110690019N0080001N1+02701+02401999999ADDGA1021+003009999GA2071+069009999GF107991999999999999999999MA1100811999999MW1001REMMET058DXXX 022200Z 24004KT 8000 FEW010 BKN230 27/24 Q1008 NOSIG;EQDQ01+000000PRSWM2
0168653870999992000010223004+06170+001250FM-15+0025DXXX V0202401N002110690019N0080001N1+02801+02501999999ADDGA1021+003009999GA2071+069009999GF107991999999999999999999MA1100811999999MW1001REMMET058DXXX 022300Z 24004KT 8000 FEW010 BKN230 28/25 Q1008 NOSIG;EQDQ01+000000PRSWM2
0168653870999992000010300004+06170+001250FM-15+0025DXXX V0202401N002110690019N0080001N1+02701+02501999999ADDGA1021+003009999GA2071+069009999GF107991999999999999999999MA1100811999999MW1001REMMET058DXXX 030000Z 24004KT 8000 FEW010 BKN230 27/25 Q1008 NOSIG;EQDQ01+000000PRSWM2
0168653870999992000010301004+06170+001250FM-15+0025DXXX V02099999999990690019N0080001N1+02701+02401999999ADDGA1021+003009999GA2071+069009999GF107991999999999999999999MA1100811999999MW1001REMMET058DXXX 030100Z VRB02KT 8000 FEW010 BKN230 27/24 Q1008 NOSIG;EQDQ01+000000PRSWM2
0168653870999992000010302004+06170+001250FM-15+0025DXXX V0202401N002110690019N0080001N1+02601+02401999999ADDGA1021+003009999GA2071+069009999GF107991999999999999999999MA1100711999999MW1001REMMET058DXXX 030200Z 24004KT 8000 FEW010 BKN230 26/24 Q1007 NOSIG;EQDQ01+000000PRSWM2
0168653870999992000010303004+06170+001250FM-15+0025DXXX V0202401N002110690019N0080001N1+02601+02401999999ADDGA1021+003009999GA2071+069009999GF107991999999999999999999MA1100711999999MW1001REMMET058DXXX 030300Z 24004KT 8000 FEW010 BKN230 26/24 Q1007 NOSIG;EQDQ01+000000PRSWM2
0168653870999992000010304004+06170+001250FM-15+0025DXXX V0202601N002110690019N0080001N1+02601+02401999999ADDGA1021+003009999GA2071+069009999GF107991999999999999999999MA1100711999999MW1001REMMET058DXXX 030400Z 26004KT 8000 FEW010 BKN230 26/24 Q1007 NOSIG;EQDQ01+000000PRSWM2
0236653870999992000010306004+06170+001250FM-12+0025DXXX V0202801N00101004801CN0080001N1+02501+02411100781ADDAA106000091GA1021+003009089GA2031+004809069GF107991041081004501001021KA1120N+02471MA1999999100501MD1999999+0021REMSYN094AAXX  03064 65387 32458 72802 10250 20241 30050 40078 84802 333 20247 58002 82810 83616 87073;EQDQ01  00002PRCP06
0191653870999992000010307004+06170+001250FM-15+0025DXXX V0209999C000010690019N0070001N1+02501+02401999999ADDGA1021+003009999GA2021+004809999GA3071+069009999GF107991999999999999999999MA1100711999999MW1001REMMET065DXXX 030700Z 00000KT 7000 SCT010 SCT016 BKN230 25/24 Q1007 NOSIG;EQDQ01+000000PRSWM2
0185653870999992000010308004+06170+001250FM-16+0025DXXX V0202801N001010690019N0070001N1+99999+99999999999ADDGA1021+003009999GA2021+004809999GA3071+069009999GF107991999999999999999999MA1100811999999MW1001REMMET059DXXX 030800Z 28002KT 7000 FEW010 SCT016 BKN230 Q1008 NOSIG;EQDQ01+000000PRSWM2
0264653870999992000010309004+06170+001250SY-MT+0025DXXX V0202801N001010690019N0070001N1+02781+02421100871ADDGA1021+003909999GA2071+069009999GF107991011021004501001021MA1100811100591MD1999999+0011MW1001REMSYN082AAXX  03094 65387 42457 72802 10278 20242 30059 40087 81202 333 58001 81813 87073;MET052DXXX 030900Z 28002KT 7000 FEW013 BKN230 Q1008 NOSIG;EQDQ01+000000PRSWM2
0169653870999992000010311004+06170+001250FM-15+0025DXXX V0203201N001010750019N9999999N1+03101+02201999999ADDGA1021+004809999GA2071+075009999GF107991999999999999999999MW1001REMMET058DXXX 031100Z 32002KT 7000 SCT016 BKN250 31/22 Q10// NOSIG;EQDQ01+070002VODIS Q02+000000PRSWM2
0297653870999992000010312004+06170+001250SY-MT+0025DXXX V0201801N002110750019N0070001N1+03201+02521100611ADDAA106000091GA1021+004809999GA2071+075009999GF107991021021004501001021MA1100611999999MD1999999-0181MW1001REMSYN082AAXX  03124 65387 32457 71804 10320 20252 3033/ 40061 82202 333 59018 82816 87075;MET058DXXX 031200Z 18004KT 7000 FEW016 BKN250 32/25 Q1006 NOSIG;EQDQ01+000000PRSWM2Q02  00002PRCP06
0168653870999992000010316004+06170+001250FM-15+0025DXXX V0201801N003110690019N0080001N1+03001+02601999999ADDGA1021+004809999GA2071+069009999GF107991999999999999999999MA1100411999999MW1001REMMET058DXXX 031600Z 18006KT 8000 FEW016 BKN230 30/26 Q1004 NOSIG;EQDQ01+000000PRSWM2
0168653870999992000010317004+06170+001250FM-15+0025DXXX V0202001N003110690019N0080001N1+02901+02501999999ADDGA1021+004809999GA2071+069009999GF107991999999999999999999MA1100411999999MW1001REMMET058DXXX 031700Z 20006KT 8000 FEW016 BKN230 29/25 Q1004 NOSIG;EQDQ01+000000PRSWM2
0214653870999992000010318004+06170+001250FM-12+0025DXXX V0202001N00311105001CN0080001N1+02851+02591100511ADDAA106000091GA1011+003909089GF107991011021004501001021KA1120M+03301MA1999999100231MD1999999-0181REMSYN088AAXX  03184 65387 32458 72006 10285 20259 30023 40051 81202 333 10330 59018 81813 87073;EQDQ01  00002PRCP06
0191653870999992000010320004+06170+001250FM-15+0025DXXX V0202201N004110690019N0080001N1+02801+02601999999ADDGA1021+002409999GA2021+003009999GA3071+069009999GF107991999999999999999999MA1100711999999MW1001REMMET065DXXX 032000Z 22008KT 8000 FEW008 SCT010 BKN230 28/26 Q1007 NOSIG;EQDQ01+000000PRSWM2
0270653870999992000010321004+06170+001250SY-MT+0025DXXX V0202401N003110690019N0080001N1+02801+02591100811ADDGA1021+003009999GA2071+069009999GF107991031021004501001021MA1100811100351MD1999999-0011MW1001REMSYN082AAXX  03214 65387 42458 72406 10280 20259 30035 40081 83202 333 59001 83810 8707/;MET058DXXX 032100Z 24006KT 8000 SCT010 BKN230 28/26 Q1008 NOSIG;EQDQ01+000000PRSWM2
0168653870999992000010322004+06170+001250FM-15+0025DXXX V0202401N003110690019N0080001N1+02801+02601999999ADDGA1021+003009999GA2071+069009999GF107991999999999999999999MA1100811999999MW1001REMMET058DXXX 032200Z 24006KT 8000 SCT010 BKN230 28/26 Q1008 NOSIG;EQDQ01+000000PRSWM2
0167653870999992000010323004+06170+001250FM-15+0025DXXX V0202401N002110690019N0080001N1+02801+02601999999ADDGA1021+000159999GA2071+069009999GF107991999999999999999999MA1100811999999MW1001REMMET057DXXX 032300Z 24004KT 8000 SCT00 BKN230 28/26 Q1008 NOSIG;EQDQ01+000000PRSWM2
0168653870999992000010401004+06170+001250FM-15+0025DXXX V0202801N002110690019N0080001N1+02701+02501999999ADDGA1021+003009999GA2071+069009999GF107991999999999999999999MA1100711999999MW1001REMMET058DXXX 040100Z 28004KT 8000 SCT010 BKN230 27/25 Q1007 NOSIG;EQDQ01+000000PRSWM2
0168653870999992000010402004+06170+001250FM-15+0025DXXX V0202801N002110690019N0070001N1+02601+02501999999ADDGA1021+003009999GA2071+069009999GF107991999999999999999999MA1100711999999MW1001REMMET058DXXX 040200Z 28004KT 7000 SCT010 BKN230 26/25 Q1007 NOSIG;EQDQ01+000000PRSWM2
0168653870999992000010403004+06170+001250FM-15+0025DXXX V0209999C000010690019N0070001N1+02601+02501999999ADDGA1021+003009999GA2071+069009999GF107991999999999999999999MA1100611999999MW1001REMMET058DXXX 040300Z 00000KT 7000 SCT010 BKN230 26/25 Q1006 NOSIG;EQDQ01+000000PRSWM2
0242653870999992000010406004+06170+001250FM-12+0025DXXX V0203601N00101105001CN0045001N1+02451+02421100731ADDAA106000091AY121061AY221061GA1031+002409069GF107991041081004501001021KA1120N+02381MA1999999100451MD1999999-0051MW1101REMSYN094AAXX  04064 65387 31445 73602 10245 20242 30045 40073 71022 84802 333 20238 59005 83608 86073;EQDQ01  00002PRCP06
0251653870999992000010408004+06170+001250FM-15+0025DXXX V0203201N002110300019N0060001N1+02501+02401999999ADDGA1021+003009999GA2021+006009099GA3071+030009999GA4071+069009999GF107991999999999999999999MA1100811999999MW1171REMMET093DXXX 040800Z 32004KT 6000 TS FEW010 FEW020CB BKN100 BKN230 25/24 Q1008 CB SE/S RMK TS SE NSG;EQDQ01+000003PRSWM1Q02    003PRSWM1
0265653870999992000010409004+06170+001250FM-12+0025DXXX V0203601N002110300019N0060001N1+02561+99999100921ADDAY191031AY221031GA1021+003009089GA2011+006009099GA3071+030009039GA4071+069009999GF107991011091004501031021MA1999999100641MD1999999+0051MW1171REMSYN112AAXX  04094 65387 41456 73604 10256 28/40 30064 40092 71792 81932 333 58005 82810 81920 87360 87/73 94964 95834;
0225653870999992000010410004+06170+001250FM-15+0025DXXX V0203201N00211030001CN0080001N1+02701+02401999999ADDGA1021+003009999GA2021+006009099GA3021+030009999GA4071+069009999GF107991999999999999999999MA1100911999999MW1001REMMET083DXXX 041000Z 32004KT 8000 FEW010 FEW020CB SCT100 BKN230 27/24 Q1009 CB SE RETS NSG;EQDQ01+000000PRSWM2
0245653870999992000010412004+06170+001250FM-12+0025DXXX V0202801N00211045001CN0080001N1+02981+02211100791ADDAA106000091AY191061AY221061GA1011+004809089GA2031+030009039GF107991011021004501031021MA1999999100511MD1999999+0181MW1011REMSYN094AAXX  04124 65387 31458 72804 10298 20221 30051 40079 70192 81232 333 58018 81816 83360 87073;EQDQ01  00002PRCP06
0166653870999992000010413004+06170+001250FM-15+0025DXXX V0200601N002110690019N0080001N1+03101+02201999999ADDGA1021+006009999GA2071+069009999GF107991999999999999999999MA1100611999999MW1001REMMET056DXXX 041300Z 06004KT 8000 FEW020 BKN230 31/22 Q1006 NSG;EQDQ01+000000PRSWM2
0168653870999992000010414004+06170+001250FM-15+0025DXXX V0201401N002112200019N0080001N1+03201+02301999999ADDGA1021+030009999GA2021+069009999GF104991999999999999999999MA1100511999999MW1001REMMET058DXXX 041400Z 14004KT 8000 FEW100 SCT230 32/23 Q1005 NOSIG;EQDQ01+000000PRSWM2
0145653870999992000010416004+06170+001250FM-15+0025DXXX V0201801N003110690019N0080001N1+03101+02501999999ADDGA1071+069009999GF107991999999999999999999MA1100411999999MW1001REMMET051DXXX 041600Z 18006KT 8000 BKN230 31/25 Q1004 NOSIG;EQDQ01+000000PRSWM2
0145653870999992000010417004+06170+001250FM-15+0025DXXX V0201601N003110690019N0080001N1+03101+02401999999ADDGA1071+069009999GF107991999999999999999999MA1100411999999MW1001REMMET051DXXX 041700Z 16006KT 8000 BKN230 31/24 Q1004 NOSIG;EQDQ01+000000PRSWM2
0287653870999992000010418004+06170+001250SY-MT+0025DXXX V0201801N002110690019N0080001N1+02901+02481100521ADDAA106000091GA1071+069009999GF107991001001999999001021KA1120M+03301MA1100511100241MD1999999+0011MW1001REMSYN082AAXX  04184 65387 32958 71804 10290 20248 30024 40052 80002 333 10330 58001 87073;MET051DXXX 041800Z 18004KT 8000 BKN230 29/25 Q1005 NOSIG;EQDQ01+000000PRSWM2Q02  00002PRCP06
0145653870999992000010420004+06170+001250FM-15+0025DXXX V0202001N002110690019N0080001N1+02801+02501999999ADDGA1071+069009999GF107991999999999999999999MA1100711999999MW1001REMMET051DXXX 042000Z 20004KT 8000 BKN230 28/25 Q1007 NOSIG;EQDQ01+000000PRSWM2
0241653870999992000010421004+06170+001250SY-MT+0025DXXX V0202201N002110690019N0080001N1+02801+02471100791ADDGA1071+069009999GF107991001001999999001021MA1100811100511MD1999999-0021MW1001REMSYN076AAXX  04214 65387 42958 72204 10280 20247 30051 40079 80002 333 59002 81073;MET051DXXX 042100Z 22004KT 8000 BKN230 28/25 Q1008 NOSIG;EQDQ01+000000PRSWM2
0143653870999992000010503004+06170+001250FM-15+0025DXXX V0209999C000010690019N0080001N1+02501+02301999999ADDGA1071+069009999GF107991999999999999999999MA1100711999999MW1001REMMET049DXXX 050300Z 00000KT 8000 BKN230 25/23 Q1007 NSG;EQDQ01+000000PRSWM2
0145653870999992000010504004+06170+001250FM-15+0025DXXX V0209999C000010690019N0080001N1+02501+02301999999ADDGA1071+069009999GF107991999999999999999999MA1100611999999MW1001REMMET051DXXX 050400Z 00000KT 8000 BKN230 25/23 Q1006 NOSIG;EQDQ01+000000PRSWM2
0153653870999992000010505004+06170+001250FM-15+0025DXXX V0209999C000010690019N0060001N1+02501+02301999999ADDGA1071+069009999GF107991999999999999999999MA1100611999999MW1001REMMET059DXXX 050500Z 00000KT 6000 BKN230 25/23 Q1006 TEMPO 4000 BR;EQDQ01+000000PRSWM2
0164653870999992000010507004+06170+001250FM-15+0025DXXX V0209999C000010690019N0040001N1+02501+02401999999ADDGA1071+069009999GF107991999999999999999999MA1100711999999MW1101REMMET054DXXX 050700Z 00000KT 4000 BR BKN230 25/24 Q1007 NOSIG;EQDQ01+000003PRSWM1Q02    003PRSWM1
0145653870999992000010508004+06170+001250FM-15+0025DXXX V0203001N002110690019N0060001N1+02601+02501999999ADDGA1071+069009999GF107991999999999999999999MA1100711999999MW1001REMMET051DXXX 050800Z 30004KT 6000 BKN230 26/25 Q1007 NOSIG;EQDQ01+000000PRSWM2
0241653870999992000010509004+06170+001250SY-MT+0025DXXX V0203001N002110690019N0080001N1+02771+02411100831ADDGA1071+069009999GF107991001001999999001021MA1100811100551MD1999999-0091MW1001REMSYN076AAXX  05094 65387 42958 73004 10277 20241 30055 40083 80002 333 59009 87073;MET051DXXX 050900Z 30004KT 8000 BKN230 28/25 Q1008 NOSIG;EQDQ01+000000PRSWM2
0168653870999992000010511004+06170+001250FM-15+0025DXXX V0201801N001010750019N0080001N1+03101+02501999999ADDGA1021+004809999GA2071+075009999GF107991999999999999999999MA1100811999999MW1001REMMET058DXXX 051100Z 18002KT 8000 SCT016 BKN250 31/25 Q1008 NOSIG;EQDQ01+000000PRSWM2
0297653870999992000010512004+06170+001250SY-MT+0025DXXX V0202001N002110750019N0080001N1+03151+02461100741ADDAA106000091GA1021+006009999GA2071+075009999GF107991021021008001001021MA1100611100461MD1999999+0051MW1001REMSYN082AAXX  05124 65387 32558 72004 10315 20246 30046 40074 82202 333 58005 82820 86075;MET058DXXX 051300Z 18006KT 8000 FEW020 BKN250 32/26 Q1006 NOSIG;EQDQ01+000000PRSWM2Q02  00002PRCP06
0168653870999992000010513004+06170+001250FM-15+0025DXXX V0201801N003110750019N0080001N1+03201+02601999999ADDGA1021+006009999GA2071+075009999GF107991999999999999999999MA1100611999999MW1001REMMET058DXXX 051300Z 18006KT 8000 FEW020 BKN250 32/26 Q1006 NOSIG;EQDQ01+000000PRSWM2
0168653870999992000010514004+06170+001250FM-15+0025DXXX V0201801N003110750019N0080001N1+03201+02601999999ADDGA1021+006009999GA2071+075009999GF107991999999999999999999MA1100511999999MW1001REMMET058DXXX 051400Z 18006KT 8000 FEW020 BKN250 32/26 Q1005 NOSIG;EQDQ01+000000PRSWM2
0268653870999992000010515004+06170+001250SY-MT+0025DXXX V0202001N003110750019N0080001N1+03151+02521100451ADDGA1021+006009999GA2071+075009999GF107991021021008001001021MA1100411100171MD1999999-0061MW1001REMSYN082AAXX  05154 65387 42558 72006 10315 20252 30017 40045 82202 333 59006 82820 87075;MET056DXXX 051500Z 20006KT 8000 FEW020 BKN250 32/25 Q1004 NSG;EQDQ01+000000PRSWM2
0145653870999992000010517004+06170+001250FM-15+0025DXXX V0202001N002112200019N0080001N1+03001+02401999999ADDGA1021+069009999GF102991999999999999999999MA1100411999999MW1001REMMET051DXXX 051700Z 20004KT 8000 FEW230 30/24 Q1004 NOSIG;EQDQ01+000000PRSWM2
0113653870999992000010521004+06170+001250FM-12+0025DXXX V0202201N003111050019N0080001N1+02831+02261100791ADDGF107991011071004501001021MA1999999100511REMSYN060AAXX  05214 65387 42458 72206 10283 20226 30051 40079 81702;
0214653870999992000010606004+06170+001250FM-12+0025DXXX V0203601N00211105001CN0060001N1+02361+02301100791ADDAA106000091GA1031+002409089GF107991031021004501001021KA1120N+02301MA1999999100511MD1999999+0111REMSYN088AAXX  06064 65387 32456 73604 10236 20230 30051 40079 83202 333 20230 58011 83808 87073;EQDQ01  00002PRCP06
0165653870999992000010615004+06170+001250FM-12+0025DXXX V0201201N00311045001CN0070001N1+03141+01991100591ADDGA1021+004809089GF107991021021004501041021MA1999999100311MD1999999+0141REMSYN082AAXX  06154 65387 42457 71206 10314 20199 30031 40059 82242 333 58014 82816 87073;
0184653870999992000010616004+06170+001250FM-15+0025DXXX V0201001N002110690019N9999999N1+03001+01901999999ADDGA1021+004809999GA2071+069009999GF107991999999999999999999MA1100611999999MW1001REMMET058DXXX 061600Z 10004KT 7000 FEW016 BKN230 30/19 Q1006 NOSIG;EQDQ01+070002VODIS Q02+000000PRSWM2
0195653870999992000010700004+06170+001250FM-12+0025DXXX V0209999C00001105001CN0060001N1+02641+02481100961ADDAA106000091GA1011+003009089GF107991011021004501001021MA1999999100681MD1999999+0171REMSYN082AAXX  07004 65387 32456 70000 10264 20248 30068 40096 81202 333 58017 81810 87073;EQDQ01  00002PRCP06
0187653870999992000010709004+06170+001250FM-12+0025DXXX V0203601N001010690019N0050001N1+02601+02191100951ADDAY121031AY221031GA1071+069009019GF107991001001999999001021MA1999999100671MD1999999+0031MW1051REMSYN082AAXX  07094 65387 41950 73602 10260 20219 30067 40095 70522 80002 333 58003 87073;
0217653870999992000010712004+06170+001250FM-12+0025DXXX V0209999C000010780019N0060001N1+03101+02231100821ADDAA106000091AY121061AY221061GA1071+078009019GF107991001001999999001021MA1999999100541MD1999999-0061MW1051REMSYN082AAXX  07124 65387 31956 70000 10310 20223 30054 40082 70522 80002 333 59006 87076;EQDQ01  00002PRCP06
0164653870999992000010714004+06170+001250FM-15+0025DXXX V0201601N003110750019N0050001N1+03201+02301999999ADDGA1071+075009999GF107991999999999999999999MA1100511999999MW1051REMMET054DXXX 071400Z 16006KT 5000 HZ BKN250 32/23 Q1005 NOSIG;EQDQ01+000003PRSWM1Q02    003PRSWM1
0266653870999992000010715004+06170+001250SY-MT+0025DXXX V0202001N003110750019N0050001N1+03121+02381100551ADDAY121031AY221031GA1071+075009999GF107991001001999999001021MA1100511100271MD1999999-0041MW1051REMSYN082AAXX  07154 65387 41950 72006 10312 20238 30027 40055 70522 80002 333 59004 87075;MET054DXXX 071500Z 20006KT 5000 HZ BKN250 31/24 Q1005 NOSIG;EQDQ01    003PRSWM1
0164653870999992000010716004+06170+001250FM-15+0025DXXX V0202001N003110750019N0050001N1+03001+02401999999ADDGA1071+075009999GF107991999999999999999999MA1100511999999MW1051REMMET054DXXX 071600Z 20006KT 5000 HZ BKN250 30/24 Q1005 NOSIG;EQDQ01+000003PRSWM1Q02    003PRSWM1
0164653870999992000010717004+06170+001250FM-15+0025DXXX V0202001N003110690019N0050001N1+02901+02501999999ADDGA1071+069009999GF107991999999999999999999MA1100611999999MW1051REMMET054DXXX 071700Z 20006KT 5000 HZ BKN230 29/25 Q1006 NOSIG;EQDQ01+000003PRSWM1Q02    003PRSWM1
0312653870999992000010718004+06170+001250SY-MT+0025DXXX V0202201N002110690019N0040001N1+02851+02541100661ADDAA106000091AY121061AY221061GA1071+069009999GF107991001001999999001021KA1120M+03301MA1100611100381MD1999999-0011MW1051REMSYN088AAXX  07184 65387 31940 72204 10285 20254 30038 40066 70522 80002 333 10330 59001 87073;MET054DXXX 071800Z 22006KT 4000 HZ BKN230 29/25 Q1006 NOSIG;EQDQ01  00002PRCP06Q02    003PRSWM1
0169653870999992000010719004+06170+001250FM-15+0025DXXX V0202201N002110690019N0040001N1+02801+02501999999ADDGA1071+069009999GF107991999999999999999999MA1100711999999MW1051REMMET059DXXX 071900Z 22004KT 4000 HZ BKN230 28/25 Q1007 TEMPO 3000;EQDQ01+000003PRSWM1Q02    003PRSWM1
0145653870999992000010720004+06170+001250FM-15+0025DXXX V0202201N003110690019N0060001N1+02801+02501999999ADDGA1071+069009999GF107991999999999999999999MA1100911999999MW1001REMMET051DXXX 072000Z 22006KT 6000 BKN230 28/25 Q1009 NOSIG;EQDQ01+000000PRSWM2
0145653870999992000010721004+06170+001250FM-15+0025DXXX V0202201N003110690019N0060001N1+02801+02501999999ADDGA1071+069009999GF107991999999999999999999MA1101021999999MW1001REMMET051DXXX 072100Z 22006KT 6000 BKN230 28/25 Q1010 NOSIG;EQDQ01+000000PRSWM2
0145653870999992000010722004+06170+001250FM-15+0025DXXX V0202401N003110690019N0060001N1+02701+02401999999ADDGA1071+069009999GF107991999999999999999999MA1101021999999MW1001REMMET051DXXX 072200Z 24006KT 6000 BKN230 27/24 Q1010 NOSIG;EQDQ01+000000PRSWM2
0145653870999992000010723004+06170+001250FM-15+0025DXXX V0202401N002110690019N0060001N1+02701+02401999999ADDGA1071+069009999GF107991999999999999999999MA1101021999999MW1001REMMET051DXXX 072300Z 24004KT 6000 BKN230 27/24 Q1010 NOSIG;EQDQ01+000000PRSWM2
0284653870999992000010800004+06170+001250SY-MT+0025DXXX V0202401N002110690019N0060001N1+02661+02431101021ADDAA106000091GA1071+069009999GF199999001001999999001021MA1101021100741MD1999999+0061MW1001REMSYN076AAXX  08004 65387 32956 52404 10266 20243 30074 40102 80002 333 58006 85073;MET051DXXX 080000Z 24004KT 6000 BKN230 27/24 Q1010 NOSIG;EQDQ01+000052SCOTCVQ02+000000PRSWM2Q03  00002PRCP06
0145653870999992000010801004+06170+001250FM-15+0025DXXX V0202401N002110690019N0060001N1+02601+02401999999ADDGA1071+069009999GF107991999999999999999999MA1101021999999MW1001REMMET051DXXX 080100Z 24004KT 6000 BKN230 26/24 Q1010 NOSIG;EQDQ01+000000PRSWM2
0145653870999992000010803004+06170+001250FM-15+0025DXXX V0202201N001010690019N0060001N1+02501+02401999999ADDGA1071+069009999GF107991999999999999999999MA1100911999999MW1001REMMET051DXXX 080300Z 22002KT 6000 BKN230 25/24 Q1009 NOSIG;EQDQ01+000000PRSWM2
0145653870999992000010805004+06170+001250FM-15+0025DXXX V0209999C000010690019N0060001N1+02501+02301999999ADDGA1071+069009999GF107991999999999999999999MA1100811999999MW1001REMMET051DXXX 080500Z 00000KT 6000 BKN230 25/23 Q1008 NOSIG;EQDQ01+000000PRSWM2
0102653870999992000010808004+06170+001250FM-15+0025DXXX V0209999C000012200019N0250001N1+99999+99999999999ADDMW1001REMMET065DXXX 080800Z 00000KT 250 BR FEW010 BKN230 24/23 Q1010 TEMPO 1500;EQDQ01+000000PRSWM2
0193653870999992000010809004+06170+001250FM-12+0025DXXX V0209999C00001105001CN0040001N1+02601+02231101081ADDAY121031AY221031GA1031+003009089GF107991031021004501001021MA1999999100801MD1999999+0131MW1101REMSYN088AAXX  08094 65387 41440 70000 10260 20223 30080 40108 71022 83202 333 58013 83810 87073;
0184653870999992000010811004+06170+001250FM-15+0025DXXX V0202601N002110750019N9999999N1+03001+02201999999ADDGA1021+004809999GA2071+075009999GF107991999999999999999999MA1101021999999MW1001REMMET058DXXX 081100Z 26004KT 6000 SCT016 BKN250 30/22 Q1010 NOSIG;EQDQ01+060002VODIS Q02+000000PRSWM2
0223653870999992000010812004+06170+001250FM-12+0025DXXX V0202201N00311105001CN0045001N1+03101+02341100951ADDAA106000091AY121061AY221061GA1031+004809089GF107991031021004501001021MA1999999100671MD1999999+0131MW1051REMSYN088AAXX  08124 65387 31445 72206 10310 20234 30067 40095 70522 83202 333 58013 83816 87075;EQDQ01  00002PRCP06
0273653870999992000010815004+06170+001250SY-MT+0025DXXX V0202201N003110750019N0070001N1+03071+02551100711ADDAY121031AY221031GA1071+075009999GF107991999999004501999999MA1100711100431MD1999999+0051MW1051REMSYN076AAXX  08154 65387 41457 72206 10307 20255 30043 40071 70522 333 58005 87075;MET051DXXX 081500Z 22006KT 7000 BKN250 31/26 Q1007 NOSIG;EQDQ01+000000PRSWM2Q02    003PRSWM1
0145653870999992000010816004+06170+001250FM-15+0025DXXX V0202201N004110750019N0080001N1+03001+02501999999ADDGA1071+075009999GF107991999999999999999999MA1100711999999MW1001REMMET051DXXX 081600Z 22008KT 8000 BKN250 30/25 Q1007 NOSIG;EQDQ01+000000PRSWM2
0208653870999992000010818004+06170+001250FM-12+0025DXXX V0202201N004110690019N0080001N1+02851+02501100761ADDAA106000091GA1071+069009019GF107991001001999999001021KA1120M+03151MA1999999100481MD1999999+0101REMSYN082AAXX  08184 65387 32958 72208 10285 20250 30048 40076 80002 333 10315 58010 87073;EQDQ01  00002PRCP06
0145653870999992000010822004+06170+001250FM-15+0025DXXX V0209999C000010690019N0080001N1+02701+02501999999ADDGA1071+069009999GF107991999999999999999999MA1101021999999MW1001REMMET051DXXX 082200Z 00000KT 8000 BKN230 27/25 Q1010 NOSIG;EQDQ01+000000PRSWM2
0145653870999992000010823004+06170+001250FM-15+0025DXXX V0209999C000010690019N0080001N1+02601+02501999999ADDGA1071+069009999GF107991999999999999999999MA1101021999999MW1001REMMET051DXXX 082300Z 00000KT 8000 BKN230 26/25 Q1010 NOSIG;EQDQ01+000000PRSWM2
0189653870999992000010900004+06170+001250FM-12+0025DXXX V0209999C000010690019N0080001N1+02561+02431101031ADDAA106000091GA1071+069009019GF107991001001999999001021MA1999999100741MD1999999+0001REMSYN076AAXX  09004 65387 32958 70000 10256 20243 30074 40103 80002 333 58000 87073;EQDQ01  00002PRCP06
0168653870999992000010902004+06170+001250FM-15+0025DXXX V0209999C000010690019N0080001N1+02501+02401999999ADDGA1021+002409999GA2071+069009999GF107991999999999999999999MA1100811999999MW1001REMMET058DXXX 090200Z 00000KT 8000 FEW008 BKN230 25/24 Q1008 NOSIG;EQDQ01+000000PRSWM2
0168653870999992000010904004+06170+001250FM-15+0025DXXX V0209999C000010690019N0060001N1+02401+02301999999ADDGA1021+002409999GA2071+069009999GF107991999999999999999999MA1100811999999MW1001REMMET058DXXX 090400Z 00000KT 6000 FEW008 BKN230 24/23 Q1008 NOSIG;EQDQ01+000000PRSWM2
0192653870999992000010908004+06170+001250FM-15+0025DXXX V0209999C000010690019N0030001N1+02501+02401999999ADDGA1021+003009999GA2071+069009999GF107991999999999999999999MA1101021999999MW1101REMMET066DXXX 090800Z 00000KT 3000 BR FEW010 BKN230 25/24 Q1010 BECMG 6000;EQDQ01+000003PRSWM1Q02    003PRSWM1
0187653870999992000010909004+06170+001250FM-12+0025DXXX V0209999C000010690019N9999999N1+02681+02501101031ADDAY121031AY221031GA1071+069009019GF107991001001999999001021MA1999999100751MD1999999-0051MW1051REMSYN082AAXX  09094 65387 4195/ 70000 10268 20250 30075 40103 70522 80002 333 59005 87073;
0168653870999992000010911004+06170+001250FM-15+0025DXXX V0202001N002110690019N0080001N1+03101+02501999999ADDGA1021+004809999GA2071+069009999GF107991999999999999999999MA1100911999999MW1001REMMET058DXXX 091100Z 20004KT 8000 FEW016 BKN230 31/25 Q1009 NOSIG;EQDQ01+000000PRSWM2
0159653870999992000010912004+06170+001250FM-12+0025DXXX V0201601N002119999999N0080001N1+03151+99999100891ADDGA1011+006009029GF107991011001008001021999MA1999999100611MD1999999-0061REMSYN076AAXX  09124 65387 42558 71604 10315 28237 30061 40089 8102/ 333 59006 81820;
0168653870999992000010913004+06170+001250FM-15+0025DXXX V0201601N003110750019N0080001N1+03201+02501999999ADDGA1021+006009999GA2071+075009999GF107991999999999999999999MA1100811999999MW1001REMMET058DXXX 091300Z 16006KT 8000 FEW020 BKN250 32/25 Q1008 NOSIG;EQDQ01+000000PRSWM2
0168653870999992000010914004+06170+001250FM-15+0025DXXX V0202001N004110750019N0080001N1+03101+02501999999ADDGA1021+006009999GA2071+075009999GF107991999999999999999999MA1100711999999MW1001REMMET058DXXX 091400Z 20008KT 8000 FEW020 BKN250 31/25 Q1007 NOSIG;EQDQ01+000000PRSWM2
0270653870999992000010915004+06170+001250SY-MT+0025DXXX V0201801N003110750019N0080001N1+03101+02401100631ADDGA1021+006009999GA2071+075009999GF107991999999999999999999MA1100611999999MD1999999-0081MW1001REMSYN082AAXX  09154 65387 42558 ///06 10//5 20244 40063 82252 333 59008 82820 84360 87085;MET058DXXX 091500Z 18006KT 8000 FEW020 BKN250 31/24 Q1006 NOSIG;EQDQ01+000000PRSWM2
0145653870999992000010920004+06170+001250FM-15+0025DXXX V0202001N002110690019N0080001N1+02801+02501999999ADDGA1071+069009999GF107991999999999999999999MA1100811999999MW1001REMMET051DXXX 092000Z 20004KT 8000 BKN230 28/25 Q1008 NOSIG;EQDQ01+000000PRSWM2
0145653870999992000010921004+06170+001250FM-15+0025DXXX V0202001N001010690019N0080001N1+02701+02601999999ADDGA1071+069009999GF107991999999999999999999MA1100911999999MW1001REMMET051DXXX 092100Z 20002KT 8000 BKN230 27/26 Q1009 NOSIG;EQDQ01+000000PRSWM2
0145653870999992000010922004+06170+001250FM-15+0025DXXX V0202001N001010690019N0080001N1+02701+02601999999ADDGA1071+069009999GF107991999999999999999999MA1100911999999MW1001REMMET051DXXX 092200Z 20002KT 8000 BKN230 27/26 Q1009 NOSIG;EQDQ01+000000PRSWM2
0145653870999992000010923004+06170+001250FM-15+0025DXXX V0202001N002110690019N0070001N1+02701+02501999999ADDGA1071+069009999GF107991999999999999999999MA1100911999999MW1001REMMET051DXXX 092300Z 20004KT 7000 BKN230 27/25 Q1009 NOSIG;EQDQ01+000000PRSWM2
0195653870999992000011000004+06170+001250FM-12+0025DXXX V0202201N00311105001CN0070001N1+02671+02561100971ADDAA106000091GA1031+003009069GF107991031051004501001021MA1999999100691MD1999999-0051REMSYN082AAXX  10004 65387 32457 72206 10267 20256 30069 40097 83502 333 59005 83610 87073;EQDQ01  00002PRCP06
0168653870999992000011001004+06170+001250FM-15+0025DXXX V0202401N002110690019N0070001N1+02701+02601999999ADDGA1021+003009999GA2071+069009999GF107991999999999999999999MA1100911999999MW1001REMMET058DXXX 100100Z 24004KT 7000 SCT010 BKN230 27/26 Q1009 NOSIG;EQDQ01+000000PRSWM2
0270653870999992000011003004+06170+001250SY-MT+0025DXXX V0209999C000010690019N0070001N1+02581+02491100821ADDGA1021+003009999GA2071+069009999GF107991041081004501001021MA1100811100541MD1999999+0001MW1001REMSYN082AAXX  10034 65387 42457 70000 10258 20249 30054 40082 84802 333 58000 83610 87073;MET058DXXX 100300Z 00000KT 7000 SCT010 BKN230 26/25 Q1008 NOSIG;EQDQ01+000000PRSWM2
0242653870999992000011006004+06170+001250FM-12+0025DXXX V0209999C00001105001CN0040001N1+02451+02441100791ADDAA106000091AY121061AY221061GA1011+003009069GF107991011051004501001021KA1120N+02381MA1999999100511MD1999999-0061MW1101REMSYN094AAXX  10064 65387 31440 70000 10245 20244 30051 40079 71022 81502 333 20238 59006 81610 87073;EQDQ01  00002PRCP06
0169653870999992000011007004+06170+001250FM-16+0025DXXX V0209999C000010690019N0020001N1+99999+99999999999ADDGA1021+003009999GA2071+069009999GF107991999999999999999999MW1001MW2101REMMET068DXXX 0700Z 00000KT 2000 BR FEW010 BKN230 24.5/24.4 Q1008 BECMG 4000;EQDQ01+000003PRSWM1
0274653870999992000011009004+06170+001250SY-MT+0025DXXX V0203601N00211069001CN0080001N1+02661+02451100991ADDGA1021+003909999GA2071+069009999GF107991061081004501001021MA1101021100711MD1999999-0041MW1001REMSYN088AAXX  10094 65387 42458 73604 10266 20245 30071 40099 86802 333 59004 83610 83813 85073;MET056DXXX 100900Z 36004KT 8000 SCT013 BKN230 27/25 Q1010 NSG;EQDQ01+000000PRSWM2
0189653870999992000011012004+06170+001250FM-12+0025DXXX V0201001N003111050019N0080001N1+03201+02451100781ADDAA106000091GA1041+006009029GF107991041021008001001021MA1999999100501MD1999999-0111REMSYN076AAXX  10124 65387 32558 71006 10320 20245 30050 40078 84202 333 59011 84820;EQDQ01  00002PRCP06
0165653870999992000011015004+06170+001250FM-12+0025DXXX V0202001N00411105001CN0080001N1+03101+02311100611ADDGA1011+006009089GF107991011021008001001021MA1999999100331MD1999999-0021REMSYN082AAXX  10154 65387 42558 72008 10310 20231 30033 40061 81202 333 59002 81820 87075;
0168653870999992000011023004+06170+001250FM-15+0025DXXX V02099999999990690019N0080001N1+02701+02501999999ADDGA1021+003009999GA2071+069009999GF107991999999999999999999MA1100911999999MW1001REMMET058DXXX 102300Z VRB02KT 8000 FEW010 BKN230 27/25 Q1009 NOSIG;EQDQ01+000000PRSWM2
0297653870999992000011100004+06170+001250SY-MT+0025DXXX V0209999C000010690019N0080001N1+02621+02451100951ADDAA106000091GA1021+003009999GA2071+069009999GF106991021021004501001021MA1100911100671MD1999999-0021MW1001REMSYN082AAXX  11004 65387 32458 60000 10262 20245 30067 40095 82202 333 59002 82810 85073;MET058DXXX 110000Z 00000KT 8000 FEW010 BKN230 26/25 Q1009 NOSIG;EQDQ01+000000PRSWM2Q02  00002PRCP06
0168653870999992000011101004+06170+001250FM-15+0025DXXX V0209999C000010690019N0080001N1+02601+02501999999ADDGA1021+003009999GA2071+069009999GF107991999999999999999999MA1100911999999MW1001REMMET058DXXX 110100Z 00000KT 8000 FEW010 BKN230 26/25 Q1009 NOSIG;EQDQ01+000000PRSWM2
0165653870999992000011103004+06170+001250FM-12+0025DXXX V0202601N00101105001CN0080001N1+02501+02401100781ADDGA1011+003009089GF106991011021004501001021MA1999999100501MD1999999-0041REMSYN082AAXX  11034 65387 42458 62602 10250 20240 30050 40078 81202 333 59004 81810 86073;
0168653870999992000011104004+06170+001250FM-15+0025DXXX V0202601N002110690019N0080001N1+02501+02401999999ADDGA1021+003009999GA2071+069009999GF107991999999999999999999MA1100711999999MW1001REMMET058DXXX 110400Z 26004KT 8000 FEW010 BKN230 25/24 Q1007 NOSIG;EQDQ01+000000PRSWM2
0176653870999992000011105004+06170+001250FM-15+0025DXXX V0202601N002110690019N0060001N1+02501+02401999999ADDGA1021+003009999GA2071+069009999GF107991999999999999999999MA1100811999999MW1001REMMET066DXXX 110500Z 26004KT 6000 SCT010 BKN230 25/24 Q1008 TEMPO 4000 BR;EQDQ01+000000PRSWM2
0242653870999992000011106004+06170+001250FM-12+0025DXXX V0209999C00001105001CN0030001N1+02471+02371100821ADDAA106000091AY121061AY221061GA1031+003009069GF107991031051004501001021KA1120N+02421MA1999999100541MD1999999+0031MW1101REMSYN094AAXX  11064 65387 31430 70000 10247 20237 30054 40082 71022 83502 333 20242 58003 83610 87073;EQDQ01  00002PRCP06
0192653870999992000011107004+06170+001250FM-15+0025DXXX V0209999C000010690019N0009001N1+02401+02301999999ADDGA1021+002409999GA2071+069009999GF107991999999999999999999MA1100911999999MW1441REMMET066DXXX 110700Z 00000KT 0900 FG SCT008 BKN230 24/23 Q1009 TEMPO 1500;EQDQ01+000003PRSWM1Q02    003PRSWM1
0192653870999992000011108004+06170+001250FM-15+0025DXXX V0209999C000010690019N0025001N1+02501+02301999999ADDGA1021+003009999GA2071+069009999GF107991999999999999999999MA1100911999999MW1101REMMET066DXXX 110800Z 00000KT 2500 BR FEW010 BKN230 25/23 Q1009 BECMG 5000;EQDQ01+000003PRSWM1Q02    003PRSWM1
0193653870999992000011109004+06170+001250FM-12+0025DXXX V0202801N00101105001CN0040001N1+02671+02461999999ADDAY121031AY221031GA1041+003009089GF107991041021004501001021MA1999999100711MD1999999+0001MW1101REMSYN088AAXX  11094 65387 41440 72802 10267 20246 30071 40/99 71022 84202 333 58000 84810 87073;
0168653870999992000011110004+06170+001250FM-15+0025DXXX V0203201N001010690019N0070001N1+02801+02401999999ADDGA1021+003909999GA2071+069009999GF107991999999999999999999MA1101021999999MW1001REMMET058DXXX 111000Z 32002KT 7000 SCT013 BKN230 28/24 Q1010 NOSIG;EQDQ01+000000PRSWM2
0335653870999992000011112004+06170+001250SY-MT+0025DXXX V0202201N003110750019N0100001N1+03161+02301100861ADDAA106000091AY141061AY221061GA1021+004809999GA2071+075009999GF107991021021004501001021MA1100811100581MD1999999+0061MW1011REMSYN088AAXX  11124 65387 31460 72206 10316 20230 30058 40086 70142 82202 333 58006 82816 86075;MET058DXXX 111200Z 22006KT 9999 FEW016 BKN250 32/22 Q1008 NOSIG;EQDQ01+000000PRSWM2Q02  00002PRCP06Q03    003PRSWM1
0168653870999992000011113004+06170+001250FM-15+0025DXXX V0202001N003110750019N0112651N1+03201+02301999999ADDGA1021+006009999GA2071+075009999GF107991999999999999999999MA1100711999999MW1001REMMET058DXXX 111300Z 20006KT 9999 FEW020 BKN250 32/23 Q1007 NOSIG;EQDQ01+000000PRSWM2
0168653870999992000011114004+06170+001250FM-15+0025DXXX V0202001N003110750019N0112651N1+03201+02301999999ADDGA1021+006009999GA2071+075009999GF107991999999999999999999MA1100611999999MW1001REMMET058DXXX 111400Z 20006KT 9999 FEW020 BKN250 32/23 Q1006 NOSIG;EQDQ01+000000PRSWM2
0270653870999992000011115004+06170+001250SY-MT+0025DXXX V0202001N004110750019N0100001N1+03201+02401100621ADDGA1021+006009999GA2071+075009999GF106991011021008001001021MA1100611100341MD1999999+0011MW1001REMSYN082AAXX  11154 65387 42560 62008 10315 2/243 30034 40062 81202 333 58001 81820 86075;MET058DXXX 111500Z 20008KT 9999 FEW020 BKN250 32/24 Q1006 NOSIG;EQDQ01+000000PRSWM2
0137653870999992000011116004+06170+001250FM-15+0025DXXX V0202001N004112200019N0112651N1+99999+99999999999ADDGA1021+006009999GF102991999999999999999999MW1001REMMET058DXXX 111600Z 20008KT 9999 FEW020 RKM250 31/24 Q1006 NOSIG;EQDQ01+000000PRSWM2
0168653870999992000011117004+06170+001250FM-15+0025DXXX V0202001N003110750019N0112651N1+03001+02401999999ADDGA1021+006009999GA2071+075009999GF107991999999999999999999MA1100611999999MW1001REMMET058DXXX 111700Z 20006KT 9999 FEW020 BKN250 30/24 Q1006 NOSIG;EQDQ01+000000PRSWM2
0316653870999992000011118004+06170+001250SY-MT+0025DXXX V0202201N003110690019N0100001N1+02851+02421100631ADDAA106000091GA1021+004809999GA2071+069009999GF107991011021004501001021KA1120M+03251MA1100611100351MD1999999-0141MW1001REMSYN088AAXX  11184 65387 32460 72206 10285 20242 30035 40063 81202 333 10325 59014 81816 87073;MET058DXXX 111800Z 22006KT 9999 FEW016 BKN230 29/24 Q1006 NOSIG;EQDQ01+000000PRSWM2Q02  00002PRCP06
0168653870999992000011119004+06170+001250FM-15+0025DXXX V0202201N003110690019N0112651N1+02801+02501999999ADDGA1021+003909999GA2071+069009999GF107991999999999999999999MA1100711999999MW1001REMMET058DXXX 111900Z 22006KT 9999 FEW013 BKN230 28/25 Q1007 NOSIG;EQDQ01+000000PRSWM2
0168653870999992000011120004+06170+001250FM-15+0025DXXX V0202201N003110690019N0112651N1+02801+02501999999ADDGA1021+003909999GA2071+069009999GF107991999999999999999999MA1100811999999MW1001REMMET058DXXX 112000Z 22006KT 9999 FEW013 BKN230 28/25 Q1008 NOSIG;EQDQ01+000000PRSWM2
0270653870999992000011121004+06170+001250SY-MT+0025DXXX V0202201N002110690019N0100001N1+02741+02471100881ADDGA1021+003009999GA2071+069009999GF107991011021004501999021MA1100811100601MD1999999-0071MW1001REMSYN082AAXX  11214 65387 42460 72204 10274 20247 30060 40088 812/2 333 59007 81810 87073;MET058DXXX 112100Z 22004KT 9999 FEW010 BKN230 27/25 Q1008 NOSIG;EQDQ01+000000PRSWM2
0168653870999992000011122004+06170+001250FM-15+0025DXXX V0202201N002110690019N0112651N1+02701+02501999999ADDGA1021+003009999GA2071+069009999GF107991999999999999999999MA1100911999999MW1001REMMET058DXXX 112200Z 22004KT 9999 FEW010 BKN230 27/25 Q1009 NOSIG;EQDQ01+000000PRSWM2
0168653870999992000011123004+06170+001250FM-15+0025DXXX V0202401N002110690019N0112651N1+02701+02501999999ADDGA1021+003009999GA2071+069009999GF107991999999999999999999MA1100911999999MW1001REMMET058DXXX 112300Z 24004KT 9999 SCT010 BKN230 27/25 Q1009 NOSIG;EQDQ01+000000PRSWM2
0168653870999992000011200004+06170+001250FM-15+0025DXXX V0202401N002110690019N0080001N1+02701+02501999999ADDGA1021+003009999GA2071+069009999GF107991999999999999999999MA1100911999999MW1001REMMET058DXXX 120000Z 24004KT 8000 SCT010 BKN230 27/25 Q1009 NOSIG;EQDQ01+000000PRSWM2
0168653870999992000011201004+06170+001250FM-15+0025DXXX V0202401N002110690019N0080001N1+02601+02501999999ADDGA1021+003009999GA2071+069009999GF107991999999999999999999MA1100811999999MW1001REMMET058DXXX 120100Z 24004KT 8000 FEW010 BKN230 26/25 Q1008 NOSIG;EQDQ01+000000PRSWM2
0168653870999992000011202004+06170+001250FM-15+0025DXXX V0202401N001010690019N0080001N1+02601+02501999999ADDGA1021+003009999GA2071+069009999GF107991999999999999999999MA1100811999999MW1001REMMET058DXXX 120200Z 24002KT 8000 FEW010 BKN230 26/25 Q1008 NOSIG;EQDQ01+000000PRSWM2
0168653870999992000011203004+06170+001250FM-15+0025DXXX V0202401N002110690019N0080001N1+02601+02401999999ADDGA1021+003009999GA2071+069009999GF107991999999999999999999MA1100711999999MW1001REMMET058DXXX 120300Z 24004KT 8000 FEW010 BKN230 26/24 Q1007 NOSIG;EQDQ01+000000PRSWM2
0176653870999992000011204004+06170+001250FM-15+0025DXXX V0202401N001010690019N0080001N1+02501+02401999999ADDGA1021+003009999GA2071+069009999GF107991999999999999999999MA1100711999999MW1001REMMET066DXXX 120400Z 24002KT 8000 SCT010 BKN230 25/24 Q1007 BECMG 4000 BR;EQDQ01+000000PRSWM2
0173653870999992000011206004+06170+001250FM-15+0025DXXX V0209999C000010690019N0060001N1+02501+02401999999ADDGA1021+003009999GA2071+069009999GF107991999999999999999999MA1100811999999MW1001REMMET063DXXX 120600Z 00000KT 6000 SCT010 BKN230 25/24 Q1008 TEMPO 3000;EQDQ01+000000PRSWM2
0187653870999992000011207004+06170+001250FM-15+0025DXXX V0209999C000010690019N0030001N1+02501+02501999999ADDGA1021+003009999GA2071+069009999GF107991999999999999999999MA1100811999999MW1101REMMET061DXXX 120700Z 00000KT 3000 BR SCT010 BKN230 25/25 Q1008 NOSIG;EQDQ01+000003PRSWM1Q02    003PRSWM1
0168653870999992000011208004+06170+001250FM-15+0025DXXX V0202601N002110690019N0060001N1+02601+02501999999ADDGA1021+003909999GA2071+069009999GF107991999999999999999999MA1100911999999MW1001REMMET058DXXX 120800Z 26004KT 6000 SCT013 BKN230 26/25 Q1009 NOSIG;EQDQ01+000000PRSWM2
0264653870999992000011209004+06170+001250SY-MT+0025DXXX V0202601N00311069001CN0080001N1+02751+02501101021ADDGA1021+004809999GA2071+069009999GF107991041021004501001021MA1101021100741MD1999999+0031MW1001REMSYN076AAXX  12094 65387 42458 72606 10275 20250 30074 40102 84202 333 58003 84810;MET058DXXX 120900Z 26006KT 8000 SCT016 BKN230 28/25 Q1010 NOSIG;EQDQ01+000000PRSWM2
0168653870999992000011210004+06170+001250FM-15+0025DXXX V0202601N002110690019N0112651N1+03001+02501999999ADDGA1021+004809999GA2071+069009999GF107991999999999999999999MA1101021999999MW1001REMMET058DXXX 121000Z 26004KT 9999 SCT016 BKN230 30/25 Q1010 NOSIG;EQDQ01+000000PRSWM2
0168653870999992000011211004+06170+001250FM-15+0025DXXX V0202401N003110690019N0112651N1+03101+02401999999ADDGA1021+004809999GA2071+069009999GF107991999999999999999999MA1101021999999MW1001REMMET058DXXX 121100Z 24006KT 9999 SCT016 BKN230 31/24 Q1010 NOSIG;EQDQ01+000000PRSWM2
0195653870999992000011212004+06170+001250FM-12+0025DXXX V0202201N00411105001CN0100001N1+03161+02391100941ADDAA106000091GA1021+006009089GF107991021021004501001021MA1999999100661MD1999999+0081REMSYN082AAXX  12124 65387 32460 72208 10316 20239 30066 40094 82202 333 58008 82820 87075;EQDQ01  00002PRCP06
0168653870999992000011213004+06170+001250FM-15+0025DXXX V0202201N004110750019N0112651N1+03201+02401999999ADDGA1021+006009999GA2071+075009999GF107991999999999999999999MA1100911999999MW1001REMMET058DXXX 121300Z 22008KT 9999 FEW020 BKN250 32/24 Q1009 NOSIG;EQDQ01+000000PRSWM2
0194653870999992000011214004+06170+001250FM-15+0025DXXX V0202201N004110780019N0112651N1+03201+02501999999ADDGA1021+006009999GA2021+006909029GA3071+078009999GF107991999999999999999999MA1100711999999MW1001REMMET068DXXX 121400Z 22008KT 9999 FEW020 FEW023TCU BKN260 32/25 Q1007 NOSIG;EQDQ01+000000PRSWM2
0215653870999992000011215004+06170+001250FM-12+0025DXXX V0202201N004110780019N0100001N1+03141+02321100651ADDGA1011+006009089GA2011+006909099GA3071+078009009GF107991011091008001001021MA1999999100371MD1999999+0031REMSYN100AAXX  12154 65387 42560 72208 10314 20232 30037 40065 81902 333 58003 81820 81923 87076 94966 95836;
0168653870999992000011217004+06170+001250FM-15+0025DXXX V0202201N004110780019N0112651N1+03001+02501999999ADDGA1021+004809999GA2071+078009999GF107991999999999999999999MA1100711999999MW1001REMMET058DXXX 121700Z 22008KT 9999 FEW016 BKN260 30/25 Q1007 NOSIG;EQDQ01+000000PRSWM2
0316653870999992000011218004+06170+001250SY-MT+0025DXXX V0202401N004110750019N0100001N1+02851+02511100721ADDAA106000091GA1021+003909999GA2071+075009999GF107991011021004501031021KA1120M+03271MA1100711100441MD1999999+0041MW1001REMSYN088AAXX  12184 65387 32460 72408 10285 20251 30044 40072 81232 333 10327 58004 81813 87075;MET058DXXX 121800Z 24008KT 9999 FEW013 BKN250 29/25 Q1007 NOSIG;EQDQ01+000000PRSWM2Q02  00002PRCP06
0168653870999992000011220004+06170+001250FM-15+0025DXXX V0202201N003110690019N0112651N1+02801+02501999999ADDGA1021+003009999GA2071+069009999GF107991999999999999999999MA1100911999999MW1001REMMET058DXXX 122000Z 22006KT 9999 FEW010 BKN230 28/25 Q1009 NOSIG;EQDQ01+000000PRSWM2
0168653870999992000011222004+06170+001250FM-15+0025DXXX V0202401N003110690019N0112651N1+02701+02501999999ADDGA1021+003009999GA2071+069009999GF107991999999999999999999MA1101021999999MW1001REMMET058DXXX 122200Z 24006KT 9999 FEW010 BKN230 27/25 Q1010 NOSIG;EQDQ01+000000PRSWM2
0297653870999992000011300004+06170+001250SY-MT+0025DXXX V0202401N002110690019N0100001N1+02691+02491100961ADDAA106000091GA1021+003009999GA2071+069009999GF107991031021004501041021MA1100911100681MD1999999+0041MW1001REMSYN082AAXX  13004 65387 32460 72404 10269 20249 30068 40096 83242 333 58004 83810 87073;MET058DXXX 130000Z 24004KT 9999 SCT010 BKN230 27/25 Q1009 NOSIG;EQDQ01+000000PRSWM2Q02  00002PRCP06
0168653870999992000011305004+06170+001250FM-15+0025DXXX V0202601N003110690019N0080001N1+02601+02501999999ADDGA1021+002409999GA2071+069009999GF107991999999999999999999MA1100711999999MW1001REMMET058DXXX 130500Z 26006KT 8000 FEW008 BKN230 26/25 Q1007 NOSIG;EQDQ01+000000PRSWM2
0173653870999992000011306004+06170+001250FM-15+0025DXXX V0202601N003110690019N0080001N1+02601+02501999999ADDGA1021+002409999GA2071+069009999GF107991999999999999999999MA1100811999999MW1001REMMET063DXXX 130600Z 26006KT 8000 FEW008 BKN230 26/25 Q1008 TEMPO 5000;EQDQ01+000000PRSWM2
0168653870999992000011307004+06170+001250FM-15+0025DXXX V0202601N003110690019N0080001N1+02601+02501999999ADDGA1021+003009999GA2071+069009999GF107991999999999999999999MA1100811999999MW1001REMMET058DXXX 130700Z 26006KT 8000 FEW010 BKN230 26/25 Q1008 NOSIG;EQDQ01+000000PRSWM2
0168653870999992000011308004+06170+001250FM-15+0025DXXX V0202601N003110690019N0080001N1+02601+02501999999ADDGA1021+003009999GA2071+069009999GF107991999999999999999999MA1100911999999MW1001REMMET058DXXX 130800Z 26006KT 8000 FEW010 BKN230 26/25 Q1009 NOSIG;EQDQ01+000000PRSWM2
0165653870999992000011309004+06170+001250FM-12+0025DXXX V0202601N00411105001CN0100001N1+02801+02431100961ADDGA1021+003909089GF107991021021004501001021MA1999999100681MD1999999-0061REMSYN082AAXX  13094 65387 42460 72608 10280 20243 30068 40096 82202 333 59006 82813 87073;
0189653870999992000011312004+06170+001250FM-12+0025DXXX V0202201N00511105001CN0100001N1+99999+99999100801ADDAA106000091GA1031+006009089GF107991031021008001001021MA1999999100521MD1999999-0141REMSYN076AAXX  13124 65387 32560 72210 20245 30052 40080 83202 333 59014 83820 87075;EQDQ01  00002PRCP06
0168653870999992000011313004+06170+001250FM-15+0025DXXX V0202201N005110780019N0112651N1+03201+02501999999ADDGA1021+006009999GA2071+078009999GF107991999999999999999999MA1100711999999MW1001REMMET058DXXX 131300Z 22010KT 9999 FEW020 BKN260 32/25 Q1007 NOSIG;EQDQ01+000000PRSWM2
0168653870999992000011314004+06170+001250FM-15+0025DXXX V0202201N004110780019N0112651N1+03101+02501999999ADDGA1021+006009999GA2071+078009999GF107991999999999999999999MA1100611999999MW1001REMMET058DXXX 131400Z 22008KT 9999 FEW020 BKN260 31/25 Q1006 NOSIG;EQDQ01+000000PRSWM2
0165653870999992000011315004+06170+001250FM-12+0025DXXX V0202201N00511105001CN0100001N1+03071+02431100551ADDGA1011+006009089GF107991011021008001001021MA1999999100271MD1999999-0101REMSYN082AAXX  13154 65387 42560 72210 10307 20243 30027 40055 81202 333 59010 81820 87076;
0168653870999992000011316004+06170+001250FM-15+0025DXXX V0202201N005110780019N0112651N1+03001+02401999999ADDGA1021+006009999GA2071+078009999GF107991999999999999999999MA1100511999999MW1001REMMET058DXXX 131600Z 22010KT 9999 FEW020 BKN260 30/24 Q1005 NOSIG;EQDQ01+000000PRSWM2
0264653870999992000011318004+06170+001250FM-12+0025DXXX V0202201N004110690019N0100001N1+02831+02461100561ADDAA106000091GA1011+004809089GA2011+006009099GA3071+069009009GF107991011091004501001021KA1120M+03231MA1999999100281MD1999999-0161REMSYN106AAXX  13184 65387 32460 72208 10283 20246 30028 40056 81902 333 10323 59016 81816 81920 87073 94948 95838;EQDQ01  00002PRCP06
0168653870999992000011320004+06170+001250FM-15+0025DXXX V0202401N003110690019N0112651N1+02801+02501999999ADDGA1021+003009999GA2071+069009999GF107991999999999999999999MA1100811999999MW1001REMMET058DXXX 132000Z 24006KT 9999 SCT010 BKN230 28/25 Q1008 NOSIG;EQDQ01+000000PRSWM2
0168653870999992000011322004+06170+001250FM-15+0025DXXX V0202401N003110690019N0112651N1+02701+02501999999ADDGA1021+003009999GA2071+069009999GF107991999999999999999999MA1100911999999MW1001REMMET058DXXX 132200Z 24006KT 9999 FEW010 BKN230 27/25 Q1009 NOSIG;EQDQ01+000000PRSWM2
0168653870999992000011323004+06170+001250FM-15+0025DXXX V0202401N003110690019N0112651N1+02701+02501999999ADDGA1021+003009999GA2071+069009999GF107991999999999999999999MA1100911999999MW1001REMMET058DXXX 132300Z 24006KT 9999 FEW010 BKN230 27/25 Q1009 NOSIG;EQDQ01+000000PRSWM2
0301653870999992000011400004+06170+001250SY-MT+002599999V0202401N003110690019N0080001N1+02701+02531100911ADDAA199000091GA1021+003009999GA2071+069009999GF107991021021004501001021MA1100911100631MD1999999-0051MW1001REMSYN086    AAXX  14004 65387 32458 72406 10270 20253 30063 40091 82202 333 59005 82810 87073;MET058DXXX 140000Z 24006KT 8000 FEW010 BKN230 27/25 Q1009 NOSIG;EQDQ01+000000PRSWM2Q02  00002PRCP99
0168653870999992000011401004+06170+001250FM-15+0025DXXX V0202401N003110690019N0080001N1+02701+02501999999ADDGA1021+003009999GA2071+069009999GF107991999999999999999999MA1100811999999MW1001REMMET058DXXX 140100Z 24006KT 8000 SCT010 BKN230 27/25 Q1008 NOSIG;EQDQ01+000000PRSWM2
0168653870999992000011402004+06170+001250FM-15+0025DXXX V0202401N002110690019N0080001N1+02701+02501999999ADDGA1021+003009999GA2071+069009999GF107991999999999999999999MA1100811999999MW1001REMMET058DXXX 140200Z 24004KT 8000 SCT010 BKN230 27/25 Q1008 NOSIG;EQDQ01+000000PRSWM2
0168653870999992000011403004+06170+001250FM-15+0025DXXX V0202401N003110690019N0080001N1+02701+02501999999ADDGA1021+003009999GA2071+069009999GF107991999999999999999999MA1100711999999MW1001REMMET058DXXX 140300Z 24006KT 8000 SCT010 BKN230 27/25 Q1007 NOSIG;EQDQ01+000000PRSWM2
0168653870999992000011405004+06170+001250FM-15+0025DXXX V0202601N001010690019N0070001N1+02601+02501999999ADDGA1021+003009999GA2071+069009999GF107991999999999999999999MA1100711999999MW1001REMMET058DXXX 140500Z 26002KT 7000 FEW010 BKN230 26/25 Q1007 NOSIG;EQDQ01+000000PRSWM2
0320653870999992000011406004+06170+001250SY-MT+0025DXXX V0202601N002110690019N0070001N1+02601+02491100721ADDAA199000091GA1021+003009999GA2071+069009999GF107991031021004501001021KA1120N+02551MA1100711100441MD1999999-0091MW1001REMSYN092    AAXX  14064 65387 32457 72604 10260 20249 30044 40072 83202 333 20255 59009 83810 87073;MET058DXXX 140600Z 26004KT 7000 SCT010 BKN230 26/25 Q1007 NOSIG;EQDQ01+000000PRSWM2Q02  00002PRCP99
0168653870999992000011407004+06170+001250FM-15+0025DXXX V0202601N002110690019N0070001N1+02601+02501999999ADDGA1021+003009999GA2071+069009999GF107991999999999999999999MA1100711999999MW1001REMMET058DXXX 140700Z 26004KT 7000 SCT010 BKN230 26/25 Q1007 NOSIG;EQDQ01+000000PRSWM2
0168653870999992000011408004+06170+001250FM-15+0025DXXX V0202601N003110690019N0070001N1+02701+02501999999ADDGA1021+003009999GA2071+069009999GF107991999999999999999999MA1100811999999MW1001REMMET058DXXX 140800Z 26006KT 7000 SCT010 BKN230 27/25 Q1008 NOSIG;EQDQ01+000000PRSWM2
0275653870999992000011409004+06170+001250SY-MT+002599999V0202601N00311072001CN0100001N1+02801+02471100911ADDGA1021+003909999GA2071+072009999GF107991041021004501041021MA1100911100631MD1999999-0051MW1001REMSYN086    AAXX  14094 65387 42460 72606 10280 20247 30063 40091 84242 333 59005 84813 87073;MET059DXXX 140900Z 26006KT 9999 SCT013 BKN2430 28/25 Q1009 NOSIG;EQDQ01+000000PRSWM2
0176653870999992000011412004+06170+001250FM-15+0025DXXX V0202201N003110750019N0112651N1+03201+02501999999ADDGA1021+006009029GA2071+075009999GF107991999999999999999999MA1100711999999MW1001REMMET066DXXX 141200Z 22006KT 9999 SCT020TCU BKN250 32/25 Q1007 TCU NW NSG;EQDQ01+000000PRSWM2
0168653870999992000011413004+06170+001250FM-15+0025DXXX V0202201N004110750019N0112651N1+03201+02501999999ADDGA1021+006009999GA2071+075009999GF107991999999999999999999MA1100611999999MW1001REMMET058DXXX 141300Z 22008KT 9999 FEW020 BKN250 32/25 Q1006 NOSIG;EQDQ01+000000PRSWM2
0168653870999992000011414004+06170+001250FM-15+0025DXXX V0202201N004110750019N0112651N1+03101+02401999999ADDGA1021+006009999GA2071+075009999GF107991999999999999999999MA1100611999999MW1001REMMET058DXXX 141400Z 22008KT 9999 FEW020 BKN250 31/24 Q1006 NOSIG;EQDQ01+000000PRSWM2
0193653870999992000011416004+06170+001250FM-15+0025DXXX V0202401N004110690019N0112651N1+02901+02401999999ADDGA1021+006009999GA2021+006909099GA3071+069009999GF107991999999999999999999MA1100411999999MW1001REMMET067DXXX 141600Z 24008KT 9999 FEW020 FEW023CB BKN230 29/24 Q1004 NOSIG;EQDQ01+000000PRSWM2
0320653870999992000011418004+06170+001250SY-MT+002599999V0202401N003110690019N0100001N1+02841+02441100571ADDAA199000091GA1021+004809999GA2071+069009999GF107991011021004501001021KA1120M+03251MA1100511100291MD1999999-0091MW1001REMSYN092    AAXX  14184 65387 32460 72406 10284 20244 30029 40057 81202 333 10325 59009 81816 87073;MET058DXXX 141800Z 24006KT 9999 FEW016 BKN230 28/24 Q1005 NOSIG;EQDQ01+000000PRSWM2Q02  00002PRCP99
0196653870999992000011419004+06170+001250FM-15+0025DXXX V0202401N001010690019N0112651N1+02801+02501999999ADDGA1021+004809999GA2021+006009099GA3071+069009999GF107991999999999999999999MA1100711999999MW1001REMMET070DXXX 141900Z 24002KT 9999 FEW016 FEW020CB BKN230 28/25 Q1007 TEMPO TS;EQDQ01+000000PRSWM2
0198653870999992000011420004+06170+001250FM-15+0025DXXX V0203001N002110690019N0112651N1+02701+02301999999ADDGA1021+003909999GA2021+006009099GA3071+069009999GF107991999999999999999999MA1100711999999MW1001REMMET072DXXX 142000Z 30004KT 9999 FEW013 FEW020CB BKN230 27/23 Q1007 CB N NOSIG;EQDQ01+000000PRSWM2
0191653870999992000011423004+06170+001250FM-15+0025DXXX V0209999C000010690019N0112651N1+02601+02401999999ADDGA1021+003009999GA2021+030009999GA3071+069009999GF107991999999999999999999MA1100811999999MW1001REMMET065DXXX 142300Z 00000KT 9999 FEW010 SCT100 BKN230 26/24 Q1008 NOSIG;EQDQ01+000000PRSWM2
0330653870999992000011500004+06170+001250SY-MT+002599999V0209999C00001069001CN0100001N1+02651+02391100791ADDAA199000091GA1021+003009999GA2021+030009999GA3071+069009999GF107991021021004501041021MA1100811100511MD1999999-0121MW1001REMSYN092    AAXX  15004 65387 32460 70000 10265 20239 30051 40079 82242 333 59012 82810 84360 87073;MET065DXXX 150000Z 00000KT 9999 FEW010 SCT100 BKN230 27/24 Q1008 NOSIG;EQDQ01+000000PRSWM2Q02  00002PRCP99
0191653870999992000011501004+06170+001250FM-15+0025DXXX V0209999C000010690019N0112651N1+02701+02401999999ADDGA1021+003009999GA2021+030009999GA3071+069009999GF107991999999999999999999MA1100911999999MW1001REMMET065DXXX 150100Z 00000KT 9999 FEW010 SCT100 BKN230 27/24 Q1009 NOSIG;EQDQ01+000000PRSWM2
0168653870999992000011502004+06170+001250FM-15+0025DXXX V0209999C000010690019N0112651N1+02601+02401999999ADDGA1021+003009999GA2071+069009999GF107991999999999999999999MA1100711999999MW1001REMMET058DXXX 150200Z 00000KT 9999 FEW010 BKN230 26/24 Q1007 NOSIG;EQDQ01+000000PRSWM2
0168653870999992000011503004+06170+001250FM-15+0025DXXX V0209999C000010690019N0112651N1+02601+02501999999ADDGA1021+003009999GA2071+069009999GF107991999999999999999999MA1100711999999MW1001REMMET058DXXX 150300Z 00000KT 9999 FEW010 BKN230 26/25 Q1007 NOSIG;EQDQ01+000000PRSWM2
0168653870999992000011504004+06170+001250FM-15+0025DXXX V0209999C000010690019N0112651N1+02601+02501999999ADDGA1021+003009999GA2071+069009999GF107991999999999999999999MA1100711999999MW1001REMMET058DXXX 150400Z 00000KT 9999 FEW010 BKN230 26/25 Q1007 NOSIG;EQDQ01+000000PRSWM2
0168653870999992000011505004+06170+001250FM-15+0025DXXX V0209999C000010690019N0112651N1+02601+02401999999ADDGA1021+003009999GA2071+069009999GF107991999999999999999999MA1100711999999MW1001REMMET058DXXX 150500Z 00000KT 9999 FEW010 BKN230 26/24 Q1007 NOSIG;EQDQ01+000000PRSWM2
0320653870999992000011506004+06170+001250SY-MT+002599999V0209999C000010690019N0080001N1+02501+02361100731ADDAA199000091GA1021+003009999GA2071+069009999GF107991011021004501031021KA1120N+02451MA1100711100451MD1999999+0011MW1001REMSYN092    AAXX  15064 65387 32458 70000 10250 20236 30045 40073 81232 333 20245 58001 81810 87073;MET058DXXX 150600Z 00000KT 8000 FEW010 BKN230 25/24 Q1007 NOSIG;EQDQ01+000000PRSWM2Q02  00002PRCP99
0168653870999992000011508004+06170+001250FM-15+0025DXXX V0209999C000010690019N0080001N1+02601+02401999999ADDGA1021+003009999GA2071+069009999GF107991999999999999999999MA1100911999999MW1001REMMET058DXXX 150800Z 00000KT 8000 FEW010 BKN230 26/24 Q1009 NOSIG;EQDQ01+000000PRSWM2
0303653870999992000011509004+06170+001250SY-MT+002599999V0202601N002110690019N0100001N1+02781+02441100941ADDGA1021+003909999GA2021+006009999GA3071+069009999GF107991041081004501041021MA1100911100661MD1999999+0031MW1001REMSYN092    AAXX  15094 65387 42460 72604 10278 20244 30066 40094 84842 333 58003 82813 83620 87073;MET065DXXX 150900Z 26004KT 9999 FEW013 SCT020 BKN230 28/24 Q1009 NOSIG;EQDQ01+000000PRSWM2
0168653870999992000011510004+06170+001250FM-15+0025DXXX V0202401N002110690019N0112651N1+02901+02501999999ADDGA1021+004809999GA2071+069009999GF107991999999999999999999MA1101021999999MW1001REMMET058DXXX 151000Z 24004KT 9999 SCT016 BKN230 29/25 Q1010 NOSIG;EQDQ01+000000PRSWM2
0168653870999992000011511004+06170+001250FM-15+0025DXXX V0202201N003110690019N0112651N1+03101+02401999999ADDGA1021+004809999GA2071+069009999GF107991999999999999999999MA1100911999999MW1001REMMET058DXXX 151100Z 22006KT 9999 FEW016 BKN230 31/24 Q1009 NOSIG;EQDQ01+000000PRSWM2
0301653870999992000011512004+06170+001250SY-MT+002599999V0202201N003110750019N0100001N1+03171+02471100881ADDAA199000091GA1021+004809999GA2071+075009999GF107991021021004501041021MA1100811100601MD1999999+0101MW1001REMSYN086    AAXX  15124 65387 32460 72206 10317 20247 30060 40088 82242 333 58010 82816 87075;MET058DXXX 151200Z 22006KT 9999 FEW016 BKN250 32/25 Q1008 NOSIG;EQDQ01+000000PRSWM2Q02  00002PRCP99
0211653870999992000011514004+06170+001250FM-15+0025DXXX V0202201N003110750019N0112651N1+03201+02501999999ADDGA1021+006009999GA2021+006909099GA3071+075009999GF107991999999999999999999MA1100511999999MW1171REMMET069DXXX 151400Z 22006KT 9999 TS FEW020 FEW023CB BKN250 32/25 Q1005 TS N;EQDQ01+000003PRSWM1Q02    003PRSWM1
0217653870999992000011515004+06170+001250FM-15+0025DXXX V0202201N004110750019N0112651N1+03201+02401999999ADDGA1021+006009999GA2021+006909099GA3071+075009999GF107991999999999999999999MA1100611999999MW1171REMMET075DXXX 151500Z 22008KT 9999 TS FEW020 FEW023CB BKN250 32/24 Q1006 TS N NOSIG;EQDQ01+000003PRSWM1Q02    003PRSWM1
0217653870999992000011516004+06170+001250FM-15+0025DXXX V0202201N003110750019N0112651N1+03101+02401999999ADDGA1021+006009999GA2021+006909099GA3071+075009999GF107991999999999999999999MA1100511999999MW1171REMMET075DXXX 151600Z 22006KT 9999 TS FEW020 FEW023CB BKN250 31/24 Q1005 TS N NOSIG;EQDQ01+000003PRSWM1Q02    003PRSWM1
0198653870999992000011517004+06170+001250FM-15+0025DXXX V0202001N002110690019N0112651N1+03001+02401999999ADDGA1021+004809999GA2021+006009099GA3071+069009999GF107991999999999999999999MA1100611999999MW1001REMMET072DXXX 151700Z 20004KT 9999 FEW016 FEW020CB BKN230 30/24 Q1006 CB N NOSIG;EQDQ01+000000PRSWM2
0327653870999992000011518004+06170+001250SY-MT+0025DXXX V0201801N002110690019N0100001N1+02901+02461100671ADDAA199000091AY191061AY221061GA1021+004809999GA2021+006009099GA3071+069009999GF107991999999004501999999MA1100611100391MW1021REMSYN064    AAXX  15184 65387 31460 71804 10290 20246 30039 40067 70292;MET072DXXX 151800Z 18004KT 9999 FEW016 FEW020CB BKN230 29/25 Q1006 CB N NOSIG;EQDQ01+000000PRSWM2Q02  00002PRCP99Q03    003PRSWM1
0168653870999992000011521004+06170+001250FM-15+0025DXXX V0202401N002110690019N0112651N1+02801+02501999999ADDGA1021+004809999GA2071+069009999GF107991999999999999999999MA1100911999999MW1001REMMET058DXXX 152100Z 24004KT 9999 FEW016 BKN230 28/25 Q1009 NOSIG;EQDQ01+000000PRSWM2
0168653870999992000011522004+06170+001250FM-15+0025DXXX V0202401N002110690019N0112651N1+02701+02501999999ADDGA1021+004809999GA2071+069009999GF107991999999999999999999MA1100911999999MW1001REMMET058DXXX 152200Z 24004KT 9999 FEW016 BKN230 27/25 Q1009 NOSIG;EQDQ01+000000PRSWM2
0168653870999992000011523004+06170+001250FM-15+0025DXXX V0202401N002110690019N0112651N1+02701+02501999999ADDGA1021+004809999GA2071+069009999GF107991999999999999999999MA1100911999999MW1001REMMET058DXXX 152300Z 24004KT 9999 FEW016 BKN230 27/25 Q1009 NOSIG;EQDQ01+000000PRSWM2
0301653870999992000011600004+06170+001250SY-MT+002599999V0202401N003110690019N0100001N1+02701+02521100891ADDAA199000091GA1021+004809999GA2071+069009999GF107991011011004501001021MA1100911100611MD1999999+0101MW1001REMSYN086    AAXX  16004 65387 32460 72406 10270 20252 30061 40089 81102 333 58010 81816 87073;MET058DXXX 160000Z 24006KT 9999 FEW016 BKN230 27/25 Q1009 NOSIG;EQDQ01+000000PRSWM2Q02  00002PRCP99
0168653870999992000011601004+06170+001250FM-15+0025DXXX V0202601N002110690019N0112651N1+02701+02601999999ADDGA1021+003909999GA2071+069009999GF107991999999999999999999MA1100811999999MW1001REMMET058DXXX 160100Z 26004KT 9999 SCT013 BKN230 27/26 Q1008 NOSIG;EQDQ01+000000PRSWM2
0168653870999992000011602004+06170+001250FM-15+0025DXXX V0202601N001010690019N0112651N1+02701+02601999999ADDGA1021+003909999GA2071+069009999GF107991999999999999999999MA1100811999999MW1001REMMET058DXXX 160200Z 26002KT 9999 SCT013 BKN230 27/26 Q1008 NOSIG;EQDQ01+000000PRSWM2
0168653870999992000011603004+06170+001250FM-15+0025DXXX V0202601N001010690019N0112651N1+02601+02501999999ADDGA1021+003009999GA2071+069009999GF107991999999999999999999MA1100711999999MW1001REMMET058DXXX 160300Z 26002KT 9999 SCT010 BKN230 26/25 Q1007 NOSIG;EQDQ01+000000PRSWM2
0168653870999992000011605004+06170+001250FM-15+0025DXXX V0202601N001010690019N0112651N1+02601+02501999999ADDGA1021+003009999GA2071+069009999GF107991999999999999999999MA1100811999999MW1001REMMET058DXXX 160500Z 26002KT 9999 SCT010 BKN230 26/25 Q1008 NOSIG;EQDQ01+000000PRSWM2
0320653870999992000011606004+06170+001250SY-MT+002599999V0202601N002110690019N0080001N1+02571+02511100851ADDAA199000091GA1021+003009999GA2071+069009999GF107991031021004501041021KA1120N+02511MA1100811100571MD1999999+0121MW1001REMSYN092    AAXX  16064 65387 32458 72604 10257 20251 30057 40085 83242 333 20251 58012 83810 87073;MET058DXXX 160600Z 26004KT 8000 SCT010 BKN230 26/25 Q1008 NOSIG;EQDQ01+000000PRSWM2Q02  00002PRCP99
0168653870999992000011607004+06170+001250FM-15+0025DXXX V0209999C000010690019N0080001N1+02601+02501999999ADDGA1021+003009999GA2071+069009999GF107991999999999999999999MA1100811999999MW1001REMMET058DXXX 160700Z 00000KT 8000 SCT010 BKN230 26/25 Q1008 NOSIG;EQDQ01+000000PRSWM2
0168653870999992000011608004+06170+001250FM-15+0025DXXX V0202601N002110690019N0080001N1+02601+02501999999ADDGA1021+003009999GA2071+069009999GF107991999999999999999999MA1100911999999MW1001REMMET058DXXX 160800Z 26004KT 8000 SCT010 BKN230 26/25 Q1009 NOSIG;EQDQ01+000000PRSWM2
0168653870999992000011609004+06170+001250FM-15+0025DXXX V0202801N002110690019N0112651N1+02801+02501999999ADDGA1021+003909999GA2071+069009999GF107991999999999999999999MA1101021999999MW1001REMMET058DXXX 160900Z 28004KT 9999 SCT013 BKN230 28/25 Q1010 NOSIG;EQDQ01+000000PRSWM2
0249653870999992000011612004+06170+001250FM-12+002599999V0202201N003110750019N0100001N1+03141+02461100981ADDAA199000091GA1031+006009089GA2011+006909099GA3071+075009009GF107991031091008001001021MA1999999100701MD1999999+0101REMSYN104    AAXX  16124 65387 32560 72206 10314 20246 30070 40098 83902 333 58010 83820 81923 87075 94968 95838;EQDQ01  00002PRCP99
0162653870999992000011613004+06170+001250FM-16+0025DXXX V0202201N003110750019N0112651N1+99999+99999999999ADDGA1021+006009999GA2071+075009999GF107991999999999999999999MA1100811999999MW1001REMMET052DXXX 161300Z 22006KT 9999 SCT020 BKN250 Q1008 NOSIG;EQDQ01+000000PRSWM2
0168653870999992000011614004+06170+001250FM-15+0025DXXX V0202201N003110750019N0112651N1+03201+02601999999ADDGA1021+006009999GA2071+075009999GF107991999999999999999999MA1100811999999MW1001REMMET058DXXX 161400Z 22006KT 9999 FEW020 BKN250 32/26 Q1008 NOSIG;EQDQ01+000000PRSWM2
0168653870999992000011615004+06170+001250FM-15+0025DXXX V0202201N004110750019N0112651N1+03201+02501999999ADDGA1021+006009999GA2071+075009999GF107991999999999999999999MA1100711999999MW1001REMMET058DXXX 161500Z 22008KT 9999 FEW020 BKN250 32/25 Q1007 NOSIG;EQDQ01+000000PRSWM2
0168653870999992000011616004+06170+001250FM-15+0025DXXX V0202201N004110750019N0112651N1+03101+02501999999ADDGA1021+006009999GA2071+075009999GF107991999999999999999999MA1100711999999MW1001REMMET058DXXX 161600Z 22008KT 9999 FEW020 BKN250 31/25 Q1007 NOSIG;EQDQ01+000000PRSWM2
0168653870999992000011617004+06170+001250FM-15+0025DXXX V0202201N004110750019N0112651N1+03001+02501999999ADDGA1021+004809999GA2071+075009999GF107991999999999999999999MA1100711999999MW1001REMMET058DXXX 161700Z 22008KT 9999 FEW016 BKN250 30/25 Q1007 NOSIG;EQDQ01+000000PRSWM2
0320653870999992000011618004+06170+001250SY-MT+0025DXXX V0202401N004110690019N0100001N1+02851+02501100841ADDAA199000091GA1021+003909999GA2071+069009999GF107991011021004501001021KA1120M+03251MA1100811100561MD1999999+0171MW1001REMSYN092    AAXX  16184 65387 32460 72408 10285 20250 30056 40084 81202 333 10325 58017 81813 87073;MET058DXXX 161800Z 24008KT 9999 FEW013 BKN230 29/25 Q1008 NOSIG;EQDQ01+000000PRSWM2Q02  00002PRCP99
0168653870999992000011702004+06170+001250FM-15+0025DXXX V0202401N002110690019N0112651N1+02601+02501999999ADDGA1021+003009999GA2071+069009999GF107991999999999999999999MA1100911999999MW1001REMMET058DXXX 170200Z 24004KT 9999 FEW010 BKN230 26/25 Q1009 NOSIG;EQDQ01+000000PRSWM2
0169653870999992000011703004+06170+001250FM-12+002599999V0202601N00211105001CN0100001N1+02601+02531100851ADDGA1011+003009089GF107991011021004501001021MA1999999100571MD1999999+0071REMSYN086    AAXX  17034 65387 42460 72604 10260 20253 30057 40085 81202 333 58007 81810 87073;
0168653870999992000011704004+06170+001250FM-15+0025DXXX V0202601N003110690019N0112651N1+02601+02501999999ADDGA1021+003009999GA2071+069009999GF107991999999999999999999MA1100811999999MW1001REMMET058DXXX 170400Z 26006KT 9999 SCT010 BKN230 26/25 Q1008 NOSIG;EQDQ01+000000PRSWM2
0167653870999992000011705004+06170+001250FM-15+0025DXXX V0202601N003110690019N0112651N1+02601+02501999999ADDGA1021+003009999GA2071+069009999GF107991999999999999999999MA1100811999999MW1001REMMET057DXXX 170500Z 26006KT 9999 SCT010 BKN230 26/25 Q1008 NSIG;EQDQ01+000000PRSWM2
0218653870999992000011706004+06170+001250FM-12+002599999V0202601N00211105001CN0080001N1+02571+02541100891ADDAA199000091GA1041+003009089GF107991041021004501001021KA1120N+02501MA1999999100611MD1999999+0041REMSYN092    AAXX  17064 65387 32458 72604 10257 20254 30061 40089 84202 333 20250 58004 84810 87073;EQDQ01  00002PRCP99
0168653870999992000011707004+06170+001250FM-15+0025DXXX V0202601N002110690019N0060001N1+02601+02501999999ADDGA1021+003009999GA2071+069009999GF107991999999999999999999MA1100911999999MW1001REMMET058DXXX 170700Z 26004KT 6000 SCT010 BKN230 26/25 Q1009 NOSIG;EQDQ01+000000PRSWM2
0168653870999992000011708004+06170+001250FM-15+0025DXXX V0202601N002110690019N0080001N1+02701+02601999999ADDGA1021+003909999GA2071+069009999GF107991999999999999999999MA1100911999999MW1001REMMET058DXXX 170800Z 26004KT 8000 SCT013 BKN230 27/26 Q1009 NOSIG;EQDQ01+000000PRSWM2
0169653870999992000011709004+06170+001250FM-12+002599999V0202601N00211105001CN0080001N1+02851+02581101011ADDGA1031+004809089GF107991031021004501001021MA1999999100731MD1999999-0021REMSYN086    AAXX  17094 65387 42458 72604 10285 20258 30073 40101 83202 333 59002 83816 87073;
0168653870999992000011801004+06170+001250FM-15+0025DXXX V0202601N004110690019N0112651N1+02701+02601999999ADDGA1021+003009999GA2071+069009999GF107991999999999999999999MA1101021999999MW1001REMMET058DXXX 180100Z 26008KT 9999 SCT010 BKN230 27/26 Q1010 NOSIG;EQDQ01+000000PRSWM2
0191653870999992000011809004+06170+001250FM-12+002599999V0202601N004110048019N0100001N1+02841+02551101211ADDGA1031+003909069GA2051+004809089GF107991061081004501001021MA1999999100931MD1999999+0201REMSYN092    AAXX  18094 65387 42460 72608 10284 20255 30093 40121 86802 333 58020 83613 85816 87073;
0191653870999992000011810004+06170+001250FM-15+0025DXXX V0202801N004110690019N0112651N1+03001+02501999999ADDGA1021+003909999GA2021+004809999GA3071+069009999GF107991999999999999999999MA1101191999999MW1001REMMET065DXXX 181000Z 28008KT 9999 SCT013 SCT016 BKN230 30/25 Q1012 NOSIG;EQDQ01+000000PRSWM2
0096653870999992000011811004+06170+001250FM-15+0025DXXX V0202801N004112200019N0112651N1+99999+99999999999ADDMW1001REMMET059DXXX 181100Z 28008KT 9999 0SCT016 BKN250 31/25 Q1011 NOSIG;EQDQ01+000000PRSWM2
0301653870999992000011812004+06170+001250SY-MT+002599999V0202801N004110780019N0100001N1+03201+02481101001ADDAA199000091GA1021+006009999GA2071+078009999GF107991031021008001001021MA1101021100721MD1999999+0161MW1001REMSYN086    AAXX  18124 65387 32560 72808 10320 20248 30072 40100 83202 333 58016 83820 87076;MET058DXXX 181200Z 28008KT 9999 SCT020 BKN260 32/25 Q1010 NOSIG;EQDQ01+000000PRSWM2Q02  00002PRCP99
0168653870999992000011814004+06170+001250FM-15+0025DXXX V0202201N005110780019N0112651N1+03301+02601999999ADDGA1021+006009999GA2071+078009999GF107991999999999999999999MA1100711999999MW1001REMMET058DXXX 181400Z 22010KT 9999 FEW020 BKN260 33/26 Q1007 NOSIG;EQDQ01+000000PRSWM2
0274653870999992000011815004+06170+001250SY-MT+002599999V0202201N004110780019N0100001N1+03161+02521100711ADDGA1021+006009999GA2071+078009999GF107991021021008001001021MA1100711100431MD1999999+0091MW1001REMSYN086    AAXX  18154 65387 42560 72208 10316 20252 30043 40071 82202 333 58009 82820 87076;MET058DXXX 181500Z 22008KT 9999 FEW020 BKN260 32/25 Q1007 NOSIG;EQDQ01+000000PRSWM2
0168653870999992000011816004+06170+001250FM-15+0025DXXX V0202201N005110750019N0112651N1+03001+02501999999ADDGA1021+004809999GA2071+075009999GF107991999999999999999999MA1100611999999MW1001REMMET058DXXX 181600Z 22010KT 9999 FEW016 BKN250 30/25 Q1006 NOSIG;EQDQ01+000000PRSWM2
0168653870999992000011817004+06170+001250FM-15+0025DXXX V0202201N005110690019N0112651N1+02901+02501999999ADDGA1021+003909999GA2071+069009999GF107991999999999999999999MA1100611999999MW1001REMMET058DXXX 181700Z 22010KT 9999 FEW013 BKN230 29/25 Q1006 NOSIG;EQDQ01+000000PRSWM2
0320653870999992000011818004+06170+001250SY-MT+002599999V0202401N004110690019N0100001N1+02811+02541100721ADDAA199000091GA1021+003909999GA2071+069009999GF107991021021004501001021KA1120M+03311MA1100711100441MD1999999-0081MW1001REMSYN092    AAXX  18184 65387 32460 72408 10281 20254 30044 40072 82202 333 10331 59008 82813 87073;MET058DXXX 181800Z 22008KT 9999 FEW013 BKN230 28/25 Q1007 NOSIG;EQDQ01+000000PRSWM2Q02  00002PRCP99
0168653870999992000011820004+06170+001250FM-15+0025DXXX V0202201N004110690019N0112651N1+02801+02501999999ADDGA1021+003009999GA2071+069009999GF107991999999999999999999MA1100911999999MW1001REMMET058DXXX 182000Z 22008KT 9999 FEW010 BKN230 28/25 Q1009 NOSIG;EQDQ01+000000PRSWM2
0166653870999992000011821004+06170+001250FM-15+0025DXXX V0202401N004110690019N0112651N1+02701+02601999999ADDGA1021+003009999GA2071+069009999GF107991999999999999999999MA1101021999999MW1001REMMET056DXXX 182100Z 24008KT 9999 FEW010 BKN230 27/26 Q1010 NSG;EQDQ01+000000PRSWM2
0168653870999992000011822004+06170+001250FM-15+0025DXXX V0202401N003110690019N0112651N1+02701+02601999999ADDGA1021+003009999GA2071+069009999GF107991999999999999999999MA1101021999999MW1001REMMET058DXXX 182200Z 24006KT 9999 SCT010 BKN230 27/26 Q1010 NOSIG;EQDQ01+000000PRSWM2
0221653870999992000011900004+06170+001250FM-12+002599999V0202401N004110039019N0080001N1+02701+02561101071ADDAA199000091GA1031+003009089GA2031+003909069GF107991051081004501041071MA1999999100791MD1999999+0021REMSYN092    AAXX  19004 65387 32458 72408 10270 20256 30079 40107 85847 333 58002 83810 83613 85273;EQDQ01  00002PRCP99
0189653870999992000011902004+06170+001250FM-15+0025DXXX V0202601N003110690019N0080001N1+02701+02601999999ADDGA1021+002409999GA2021+003009999GA3071+069009999GF107991999999999999999999MA1100811999999MW1001REMMET063DXXX 190200Z 26006KT 8000 FEW008 SCT010 BKN230 27/26 Q1008 NSG;EQDQ01+000000PRSWM2
0191653870999992000011903004+06170+001250FM-15+0025DXXX V0202601N003110690019N0080001N1+02701+02501999999ADDGA1021+002409999GA2021+003009999GA3071+069009999GF107991999999999999999999MA1100811999999MW1001REMMET065DXXX 190300Z 26006KT 8000 FEW008 SCT010 BKN230 27/25 Q1008 NOSIG;EQDQ01+000000PRSWM2
0191653870999992000011904004+06170+001250FM-15+0025DXXX V0202601N003110690019N0080001N1+02601+02501999999ADDGA1021+002409999GA2021+003009999GA3071+069009999GF107991999999999999999999MA1100711999999MW1001REMMET065DXXX 190400Z 26006KT 8000 FEW008 SCT010 BKN230 26/25 Q1007 NOSIG;EQDQ01+000000PRSWM2
0191653870999992000011905004+06170+001250FM-15+0025DXXX V0202601N003110690019N0080001N1+02601+02501999999ADDGA1021+002409999GA2021+003009999GA3071+069009999GF107991999999999999999999MA1100711999999MW1001REMMET065DXXX 190500Z 26006KT 8000 FEW008 SCT010 BKN230 26/25 Q1007 NOSIG;EQDQ01+000000PRSWM2
0349653870999992000011906004+06170+001250SY-MT+002599999V0202601N002110030019N0080001N1+02621+02521100861ADDAA199000091GA1021+002409999GA2071+003009999GA3071+069009999GF107991061081002501001021KA1120N+02561MA1100811100581MD1999999+0001MW1001REMSYN098    AAXX  19064 65387 32358 72604 10262 20252 30058 40086 86802 333 20256 58000 84608 85/10 87073;MET065DXXX 190600Z 26004KT 8000 SCT008 BKN010 BKN230 26/25 Q1008 NOSIG;EQDQ01+000000PRSWM2Q02  00002PRCP99
0191653870999992000011907004+06170+001250FM-15+0025DXXX V0202401N003110030019N0080001N1+02601+02501999999ADDGA1021+002409999GA2071+003009999GA3071+069009999GF107991999999999999999999MA1100911999999MW1001REMMET065DXXX 190700Z 24006KT 8000 SCT008 BKN010 BKN230 26/25 Q1009 NOSIG;EQDQ01+000000PRSWM2
0168653870999992000011908004+06170+001250FM-15+0025DXXX V0202401N004110690019N0112651N1+02701+02501999999ADDGA1021+003909999GA2071+069009999GF107991999999999999999999MA1101021999999MW1001REMMET058DXXX 190800Z 24008KT 9999 FEW013 BKN230 27/25 Q1010 NOSIG;EQDQ01+000000PRSWM2
0274653870999992000011909004+06170+001250SY-MT+002599999V0202401N004110690019N0100001N1+02851+02531101101ADDGA1021+003909999GA2071+069009999GF107991031021004501001021MA1101081100821MD1999999-0111MW1001REMSYN086    AAXX  19094 65387 42460 72408 10285 20253 30082 40110 83202 333 59011 83813 87073;MET058DXXX 190900Z 24008KT 9999 SCT013 BKN230 29/25 Q1011 NOSIG;EQDQ01+000000PRSWM2
0168653870999992000011910004+06170+001250FM-15+0025DXXX V0202401N005110690019N0112651N1+03001+02601999999ADDGA1021+003909999GA2071+069009999GF107991999999999999999999MA1101081999999MW1001REMMET058DXXX 191000Z 24010KT 9999 SCT013 BKN230 30/26 Q1011 NOSIG;EQDQ01+000000PRSWM2
0301653870999992000011912004+06170+001250SY-MT+002599999V0202201N005110750019N0100001N1+03141+02591100981ADDAA199000091GA1021+006009999GA2071+075009999GF107991021021008001001021MA1100911100701MD1999999-0021MW1001REMSYN086    AAXX  19124 65387 32560 72210 10314 20259 30070 40098 82202 333 59002 82820 86075;MET058DXXX 191200Z 22010KT 9999 FEW020 BKN250 31/26 Q1009 NOSIG;EQDQ01+000000PRSWM2Q02  00002PRCP99
0215653870999992000011915004+06170+001250FM-12+0025DXXX V0202201N004110750019N0100001N1+03051+02521100721ADDGA1021+006009089GA2011+006909099GA3071+075009009GF107991021091008001001021MA1999999100441MD1999999+0011REMSYN100AAXX  19154 65387 42560 72208 10305 20252 30044 40072 82902 333 58001 82820 81923 87075 94947 95837;
0199653870999992000011916004+06170+001250FM-15+0025DXXX V0202201N004110750019N0112651N1+03001+02601999999ADDGA1021+006009999GA2021+006909099GA3071+075009999GF107991999999999999999999MA1100711999999MW1001REMMET073DXXX 191600Z 22008KT 9999 FEW020 FEW023CB BKN250 30/26 Q1007 CB NW NOSIG;EQDQ01+000000PRSWM2
0193653870999992000011917004+06170+001250FM-15+0025DXXX V0202201N003110690019N0112651N1+02901+02501999999ADDGA1021+004809999GA2021+006009099GA3071+069009999GF107991999999999999999999MA1100711999999MW1001REMMET067DXXX 191700Z 22006KT 9999 FEW016 FEW020CB BKN230 29/25 Q1007 NOSIG;EQDQ01+000000PRSWM2
0365653870999992000011918004+06170+001250SY-MT+0025DXXX V0202201N003110690019N0100001N1+02821+02501100841ADDAA199000091GA1021+003909999GA2021+006009099GA3071+069009999GF107991021091004501001021KA1120M+03171MA1100811100561MD1999999+0121MW1001REMSYN106AAXX  19184 65387 32460 72206 10282 20250 30056 40084 82902 333 10317 58012 82813 81920 87073 94947 95837;MET073DXXX 191800Z 22006KT 9999 FEW013 FEW020CB BKN230 28/25 Q1008 CB NW NOSIG;EQDQ01+000000PRSWM2Q02  00002PRCP99
0214653870999992000012006004+06170+001250FM-12+0025DXXX V0209999C00001105001CN0060001N1+02551+02481100901ADDAA199000091GA1031+003009089GF107991031021004501001021KA1120N+02501MA1999999100621MD1999999+0041REMSYN088AAXX  20064 65387 32456 70000 10255 20248 30062 40090 83202 333 20250 58004 83810 87073;EQDQ01  00002PRCP99
0187653870999992000012009004+06170+001250FM-12+0025DXXX V0203601N001010060019N0080001N1+02701+02501101211ADDGA1041+003909089GA2031+006009069GF107991061081004501001021MA1999999100931MD1999999+0111REMSYN088AAXX  20094 65387 42458 73602 10270 20250 30093 40121 86802 333 58011 84813 83620 86073;
0297653870999992000012012004+06170+001250SY-MT+0025DXXX V0202201N003110750019N0100001N1+03101+02471101091ADDAA199000091GA1021+006009999GA2071+075009999GF107991031021008001041021MA1101081100811MD1999999+0111MW1001REMSYN082AAXX  20124 65387 32560 72206 10310 20247 30081 40109 83242 333 58011 83820 87075;MET058DXXX 201200Z 22006KT 9999 SCT020 BKN250 31/25 Q1011 NOSIG;EQDQ01+000000PRSWM2Q02  00002PRCP99
0168653870999992000012013004+06170+001250FM-15+0025DXXX V0202201N002110750019N0112651N1+03201+02501999999ADDGA1021+006009999GA2071+075009999GF107991999999999999999999MA1100911999999MW1001REMMET058DXXX 201300Z 22004KT 9999 FEW020 BKN250 32/25 Q1009 NOSIG;EQDQ01+000000PRSWM2
0168653870999992000012014004+06170+001250FM-15+0025DXXX V0202201N004110750019N0112651N1+03201+02501999999ADDGA1021+006009999GA2071+075009999GF107991999999999999999999MA1100811999999MW1001REMMET058DXXX 201400Z 22008KT 9999 FEW020 BKN250 32/25 Q1008 NOSIG;EQDQ01+000000PRSWM2
0270653870999992000012015004+06170+001250SY-MT+0025DXXX V0202001N004110750019N0100001N1+03101+02511100831ADDGA1021+006009999GA2071+075009999GF107991011021008001001021MA1100811100551MD1999999+0111MW1001REMSYN082AAXX  20154 65387 42560 72008 10310 20251 30055 40083 81202 333 58011 81820 87075;MET058DXXX 201500Z 20008KT 9999 FEW020 BKN250 31/25 Q1008 NOSIG;EQDQ01+000000PRSWM2
0299653870999992000012018004+06170+001250SY-MT+0025DXXX V0202201N00311045001CN0100001N1+02831+02511100901ADDAA199000091GA1021+003609999GF107991011021004501031021KA1120M+03251MA1100811100621MD1999999+0061MW1001REMSYN094AAXX  20184 65387 32460 72206 10283 20251 30062 40090 81232 333 10325 58006 81816 83360 87073;MET051DXXX 201800Z 22008KT 9999 SCT012 28/26 Q1008 NOSIG;EQDQ01+000000PRSWM2Q02  00002PRCP99
0191653870999992000012019004+06170+001250FM-15+0025DXXX V0202201N002110300019N0112651N1+02701+02501999999ADDGA1021+004809999GA2071+030009999GA3071+069009999GF107991999999999999999999MA1101021999999MW1001REMMET065DXXX 201900Z 22004KT 9999 FEW016 BKN100 BKN230 27/25 Q1010 NOSIG;EQDQ01+000000PRSWM2
0168653870999992000012020004+06170+001250FM-15+0025DXXX V0202201N002110690019N0112651N1+02701+02601999999ADDGA1021+003909999GA2071+069009999GF107991999999999999999999MA1101021999999MW1001REMMET058DXXX 202000Z 22004KT 9999 FEW013 BKN230 27/26 Q1010 NOSIG;EQDQ01+000000PRSWM2
0270653870999992000012021004+06170+001250SY-MT+0025DXXX V0202201N00211069001CN0100001N1+02701+02561101081ADDGA1021+003009999GA2071+069009999GF107991021021004501041021MA1101021100801MD1999999-0011MW1001REMSYN082AAXX  20214 65387 42460 72204 10270 20256 30080 40108 82242 333 59001 8210/ 87073;MET058DXXX 202100Z 22004KT 9999 FEW010 BKN230 27/26 Q1010 NOSIG;EQDQ01+000000PRSWM2
0168653870999992000012022004+06170+001250FM-15+0025DXXX V0202201N002110690019N0112651N1+02701+02601999999ADDGA1021+003009999GA2071+069009999GF107991999999999999999999MA1101081999999MW1001REMMET058DXXX 202200Z 22004KT 9999 FEW010 BKN230 27/26 Q1011 NOSIG;EQDQ01+000000PRSWM2
0168653870999992000012023004+06170+001250FM-15+0025DXXX V0202401N002110690019N0112651N1+02601+02501999999ADDGA1021+003009999GA2071+069009999GF107991999999999999999999MA1101021999999MW1001REMMET058DXXX 202300Z 24004KT 9999 FEW010 BKN230 26/25 Q1010 NOSIG;EQDQ01+000000PRSWM2
0297653870999992000012100004+06170+001250SY-MT+0025DXXX V0202401N002110690019N0100001N1+02651+02511101101ADDAA199000091GA1021+003009999GA2071+069009999GF107991021021004501001021MA1101081100821MD1999999+0001MW1001REMSYN082AAXX  21004 65387 32460 72404 10265 20251 30082 40110 82202 333 58000 82810 87073;MET058DXXX 210000Z 24004KT 9999 FEW010 BKN230 26/25 Q1011 NOSIG;EQDQ01+000000PRSWM2Q02  00002PRCP99
0168653870999992000012101004+06170+001250FM-15+0025DXXX V0202401N002110690019N0112651N1+02601+02501999999ADDGA1021+003009999GA2071+069009999GF107991999999999999999999MA1101021999999MW1001REMMET058DXXX 210100Z 24004KT 9999 SCT010 BKN230 26/25 Q1010 NOSIG;EQDQ01+000000PRSWM2
0168653870999992000012102004+06170+001250FM-15+0025DXXX V0202401N002110690019N0112651N1+02601+02501999999ADDGA1021+003009999GA2071+069009999GF107991999999999999999999MA1101021999999MW1001REMMET058DXXX 210200Z 24004KT 9999 SCT010 BKN230 26/25 Q1010 NOSIG;EQDQ01+000000PRSWM2
0191653870999992000012103004+06170+001250FM-15+0025DXXX V0209999C000010690019N0112651N1+02601+02501999999ADDGA1021+003009999GA2021+006009999GA3071+069009999GF107991999999999999999999MA1100911999999MW1001REMMET065DXXX 210300Z 00000KT 9999 SCT010 SCT020 BKN230 26/25 Q1009 NOSIG;EQDQ01+000000PRSWM2
0168653870999992000012105004+06170+001250FM-15+0025DXXX V0209999C000010690019N0060001N1+02601+02501999999ADDGA1021+003009999GA2071+069009999GF107991999999999999999999MA1101021999999MW1001REMMET058DXXX 210500Z 00000KT 6000 SCT010 BKN230 26/25 Q1010 NOSIG;EQDQ01+000000PRSWM2
0345653870999992000012106004+06170+001250SY-MT+0025DXXX V0202601N002110690019N0060001N1+02551+02481100941ADDAA199000091GA1021+003009999GA2021+006009999GA3071+069009999GF107991061081999999001021KA1120N+02481MA1100911100661MD1999999+0041MW1001REMSYN094AAXX  21064 65387 32956 72604 10255 20248 30066 40094 86802 333 20248 58004 83810 83620 87073;MET065DXXX 210600Z 26004KT 6000 SCT010 SCT020 BKN230 26/25 Q1009 NOSIG;EQDQ01+000000PRSWM2Q02  00002PRCP99
0168653870999992000012108004+06170+001250FM-15+0025DXXX V0202601N002110690019N0080001N1+02601+02501999999ADDGA1021+003909999GA2071+069009999GF107991999999999999999999MA1101081999999MW1001REMMET058DXXX 210800Z 26004KT 8000 SCT013 BKN230 26/25 Q1011 NOSIG;EQDQ01+000000PRSWM2
0165653870999992000012109004+06170+001250FM-12+0025DXXX V0202601N003110450019N0080001N1+02741+02471101191ADDGA1041+003909089GF107991041021004501031021MA1999999100911MD1999999-0021REMSYN082AAXX  21094 65387 42458 72606 10274 20247 30091 40119 84232 333 59002 84813 8073/;
0195653870999992000012112004+06170+001250FM-12+0025DXXX V0202001N00311105001CN0100001N1+03161+02391101041ADDAA199000091GA1021+004809089GF107991021021004501001021MA1999999100761MD1999999-0051REMSYN082AAXX  21124 65387 32460 72006 10316 20239 30076 40104 82202 333 59005 82816 87075;EQDQ01  00002PRCP99
0270653870999992000012115004+06170+001250SY-MT+0025DXXX V0202201N003110750019N0100001N1+03171+02441100761ADDGA1021+006009999GA2071+075009999GF107991021021008001001021MA1100711100481MD1999999-0071MW1001REMSYN082AAXX  21154 65387 42560 72206 10317 20244 30048 40076 82202 333 59007 82820 87075;MET058DXXX 211500Z 22006KT 9999 FEW020 BKN250 32/24 Q1007 NOSIG;EQDQ01+000000PRSWM2
0168653870999992000012117004+06170+001250FM-15+0025DXXX V0202201N003110690019N0112651N1+03001+02401999999ADDGA1021+004809999GA2071+069009999GF107991999999999999999999MA1100711999999MW1001REMMET058DXXX 211700Z 22006KT 9999 FEW016 BKN230 30/24 Q1007 NOSIG;EQDQ01+000000PRSWM2
0316653870999992000012118004+06170+001250SY-MT+0025DXXX V0202201N003110690019N0100001N1+02851+02501100801ADDAA199000091GA1021+003909999GA2071+069009999GF107991011021004501001021KA1120M+03301MA1100811100521MD1999999-0101MW1001REMSYN088AAXX  21184 65387 32460 72206 10285 20250 30052 40080 81202 333 10330 59010 81813 87073;MET058DXXX 211800Z 22006KT 9999 FEW013 BKN230 29/25 Q1008 NOSIG;EQDQ01+000000PRSWM2Q02  00002PRCP99
0168653870999992000012119004+06170+001250FM-15+0025DXXX V0202201N003110690019N0112651N1+02801+02501999999ADDGA1021+003909999GA2071+069009999GF107991999999999999999999MA1101021999999MW1001REMMET058DXXX 212000Z 22006KT 9999 FEW013 BKN230 28/25 Q1010 NOSIG;EQDQ01+000000PRSWM2
0168653870999992000012120004+06170+001250FM-15+0025DXXX V0202201N003110690019N0112651N1+02801+02501999999ADDGA1021+003909999GA2071+069009999GF107991999999999999999999MA1101021999999MW1001REMMET058DXXX 212000Z 22006KT 9999 FEW013 BKN230 28/25 Q1010 NOSIG;EQDQ01+000000PRSWM2
0166653870999992000012208004+06170+001250FM-15+0025DXXX V0202401N003110690019N0080001N1+02601+02401999999ADDGA1021+003009999GA2071+069009999GF107991999999999999999999MA1101021999999MW1001REMMET056DXXX 220800Z 24006KT 8000 FEW010 BKN230 26/24 Q1010 NSG;EQDQ01+000000PRSWM2
0165653870999992000012209004+06170+001250FM-12+0025DXXX V0202401N00311105001CN0100001N1+02781+02411101061ADDGA1011+003909089GF107991011021004501001021MA1999999100781MD1999999-0131REMSYN082AAXX  22094 65387 42460 72406 10278 20241 30078 40106 81202 333 59013 81813 87073;
0166653870999992000012210004+06170+001250FM-15+0025DXXX V0202401N003110690019N0112651N1+03001+02501999999ADDGA1021+004809999GA2071+069009999GF107991999999999999999999MA1101021999999MW1001REMMET056DXXX 221000Z 24006KT 9999 FEW016 BKN230 30/25 Q1010 NSG;EQDQ01+000000PRSWM2
0166653870999992000012211004+06170+001250FM-15+0025DXXX V0202201N003110750019N0112651N1+03201+02501999999ADDGA1021+004809999GA2071+075009999GF107991999999999999999999MA1101021999999MW1001REMMET056DXXX 221100Z 22006KT 9999 FEW016 BKN250 32/25 Q1010 NSG;EQDQ01+000000PRSWM2
0297653870999992000012212004+06170+001250SY-MT+0025DXXX V0202201N00411075001CN0100001N1+03251+02511100921ADDAA199000091GA1021+006009999GA2071+075009999GF107991021021008001001021MA1100911100641MD1999999-0121MW1001REMSYN082AAXX  22124 65387 32560 72208 10325 20251 30064 40092 82202 333 59012 8820/ 87075;MET058DXXX 221200Z 22008KT 9999 FEW020 BKN250 33/25 Q1009 NOSIG;EQDQ01+000000PRSWM2Q02  00002PRCP99
0165653870999992000012215004+06170+001250FM-12+0025DXXX V0202201N00511105001CN0100001N1+02961+02531100631ADDGA1021+004809089GF107991021021004501001021MA1999999100351MD1999999-0131REMSYN082AAXX  22154 65387 42460 72210 10296 20253 30035 40063 82202 333 59013 82816 87073;
0169653870999992000012216004+06170+001250FM-15+0025DXXX V0202201N004110690019N0112651N1+02901+02501999999ADDGA1021+003909999GA2071+069009999GF107991999999999999999999MA1100711999999MW1001REMMET059DXXX 221700Z 22008KT 9999 FEW013 BKN230 29/25 Q1007 NOSIG ;EQDQ01+000000PRSWM2
0169653870999992000012217004+06170+001250FM-15+0025DXXX V0202201N004110690019N0112651N1+02901+02501999999ADDGA1021+003909999GA2071+069009999GF107991999999999999999999MA1100711999999MW1001REMMET059DXXX 221700Z 22008KT 9999 FEW013 BKN230 29/25 Q1007 NOSIG ;EQDQ01+000000PRSWM2
0143653870999992000012218004+06170+001250FM-12+0025DXXX V0202401N00311105001CN0100001N1+02801+02491100721ADDGA1021+003009089GF107991021021004501001021KA1120M+03271REMSYN076AAXX  22184 65387 /2460 72406 10280 20249 40072 82202 333 10327 82810 87073;
0326653870999992000012300004+06170+001250SY-MT+0025DXXX V0202401N00311069001CN0100001N1+02701+02501100911ADDAA199000091GA1021+003009999GA2021+033009999GA3071+069009999GF107991041051004501031021MA1100911100631MD1999999-0191MW1001REMSYN088AAXX  23004 65387 32460 72406 10265 2/251 30063 40091 84532 333 59019 84610 83361 87073;MET065DXXX 230000Z 24006KT 9999 SCT010 SCT110 BKN230 27/25 Q1009 NOSIG;EQDQ01+000000PRSWM2Q02  00002PRCP99
0166653870999992000012301004+06170+001250FM-15+0025DXXX V0202401N004110690019N0112651N1+02601+02501999999ADDGA1021+003009999GA2071+069009999GF107991999999999999999999MA1100811999999MW1001REMMET056DXXX 230100Z 24008KT 9999 SCT010 BKN230 26/25 Q1008 NSG;EQDQ01+000000PRSWM2
0167653870999992000012302004+06170+001250FM-15+0025DXXX V0202401N003110690019N0112651N1+02601+02501999999ADDGA1021+003009999GA2071+069009999GF107991999999999999999999MA1100811999999MW1001REMMET057DXXX 0200Z 24006KT 9999 SCT010 BKN230 26/25 Q1008 NOSIG ;EQDQ01+000000PRSWM2
0166653870999992000012303004+06170+001250FM-15+0025DXXX V0202401N004110690019N0112651N1+02601+02401999999ADDGA1021+003009999GA2071+069009999GF107991999999999999999999MA1100811999999MW1001REMMET056DXXX 230300Z 24008KT 9999 FEW010 BKN230 26/24 Q1008 NSG;EQDQ01+000000PRSWM2
0166653870999992000012304004+06170+001250FM-15+0025DXXX V0202401N004110690019N0112651N1+02601+02401999999ADDGA1021+003009999GA2071+069009999GF107991999999999999999999MA1100811999999MW1001REMMET056DXXX 230400Z 24008KT 9999 FEW010 BKN230 26/24 Q1008 NSG;EQDQ01+000000PRSWM2
0166653870999992000012305004+06170+001250FM-15+0025DXXX V0202401N004110690019N0112651N1+02601+02401999999ADDGA1021+003009999GA2071+069009999GF107991999999999999999999MA1100811999999MW1001REMMET056DXXX 230500Z 24008KT 9999 FEW010 BKN230 26/24 Q1008 NSG;EQDQ01+000000PRSWM2
0236653870999992000012306004+06170+001250FM-12+0025DXXX V0202601N003110300019N0100001N1+02561+02421100831ADDAA199000091GA1031+003009069GA2031+030009039GF107991031051004501031021KA1120N+02491MA1999999100521MD1999999-0121REMSYN094AAXX  23064 65387 32460 72606 10256 20242 30052 40083 83532 333 20249 59012 83610 83360 87073;EQDQ01  00002PRCP99
0187653870999992000012309004+06170+001250FM-12+0025DXXX V0202401N005110030019N0070001N1+02741+02471101041ADDGA1031+002409069GA2041+003009089GF107991051081004501001021MA1999999100761MD1999999-0021REMSYN088AAXX  23094 65387 42457 72410 10274 20247 30076 40104 85802 333 59002 83608 84810 85073;
0326653870999992000012312004+06170+001250SY-MT+0025DXXX V0202401N006210750019N0070001N1+03001+02481100931ADDAA199000091GA1021+004809999GA2021+006009999GA3071+075009999GF107991041081004501001021MA1100911100651MD1999999+0011MW1001REMSYN088AAXX  23124 65387 32457 72412 10300 20248 30065 40093 84802 333 58001 82616 83820 86075;MET065DXXX 231200Z 24012KT 7000 FEW016 SCT020 BKN250 30/25 Q1009 NOSIG;EQDQ01+000000PRSWM2Q02  00002PRCP99
0168653870999992000012313004+06170+001250FM-15+0025DXXX V0202401N006210750019N0112651N1+03101+02501999999ADDGA1021+006009999GA2071+075009999GF107991999999999999999999MA1100811999999MW1001REMMET058DXXX 231300Z 24012KT 9999 FEW020 BKN250 31/25 Q1008 NOSIG;EQDQ01+000000PRSWM2
0184653870999992000012315004+06170+001250FM-12+0025DXXX V0202201N00721105001CN0100001N1+02981+02521100661ADDGA1011+006009089GF107991011021008001001021MA1999999095302MD1999999+0031REMSYN082AAXX  23154 65387 42560 72214 10298 20252 30530 40066 81202 333 58003 81820 87075;EQDQ01+095303APOSP 
0168653870999992000012321004+06170+001250FM-15+0025DXXX V0202201N004110690019N0112651N1+02701+02501999999ADDGA1021+003009999GA2071+069009999GF107991999999999999999999MA1101021999999MW1001REMMET058DXXX 232100Z 22008KT 9999 FEW010 BKN230 27/25 Q1010 NOSIG;EQDQ01+000000PRSWM2
0195653870999992000012412004+06170+001250FM-12+0025DXXX V0202201N00511105001CN0150001N1+03081+02411100991ADDAA199000091GA1011+004809089GF107991011021004501001021MA1999999100711MD1999999+0061REMSYN082AAXX  24124 65387 32465 72210 10308 20241 30071 40099 81202 333 58006 81816 87075;EQDQ01  00002PRCP99
0165653870999992000012415004+06170+001250FM-12+0025DXXX V0202201N00511105001CN0150001N1+03051+02491100811ADDGA1011+006009089GF107991011021008001001021MA1999999100531MD1999999+0121REMSYN082AAXX  24154 65387 42565 72210 10305 20249 30053 40081 81202 333 58012 81820 87075;
0165653870999992000012421004+06170+001250FM-12+0025DXXX V0202401N002119999999N0100001N1+02651+02511101111ADDGA1011+003909089GF107991011999004501001021MA1999999100831MD1999999+0061REMSYN082AAXX  24214 65387 42460 72404 10265 20251 30083 40111 81/02 333 58006 81813 87073;
0195653870999992000012500004+06170+001250FM-12+0025DXXX V0202501N00101105001CN0100001N1+02561+02431101131ADDAA199000091GA1011+003909089GF107991011021004501001021MA1999999100841MD1999999+0111REMSYN082AAXX  25004 65387 32460 72502 10256 20243 30084 40113 81202 333 58011 81813 87073;EQDQ01  00002PRCP99
0214653870999992000012506004+06170+001250FM-12+0025DXXX V0202601N00211105001CN0080001N1+02471+02371101061ADDAA199000091GA1041+003009089GF107991041021004501001021KA1120N+02401MA1999999100781MD1999999+0211REMSYN088AAXX  25064 65387 32458 72604 10247 20237 30078 40106 84202 333 20240 58021 84810 87073;EQDQ01  00002PRCP99
0298653870999992000012509004+06170+001250SY-MT+0025DXXX V0202201N004110690019N0100001N1+02771+02471101261ADDGA1021+003909999GA2071+069009999GF107991041081004501001021MA1101191999999MD1999999+0231MW1001REMSYN082AAXX  25094 65387 42460 72208 10277 20247 38098 40126 84802 333 58023 84813 86073;MET070DXXX 250900Z 21010KT 180V240 9999 SCT013 BKN233 29/19 Q1012 RMK NOSIG;EQDQ01+080983APOSP Q02+000000PRSWM2
0168653870999992000012510004+06170+001250FM-15+0025DXXX V0202001N005110690019N0112651N1+02901+01801999999ADDGA1021+004809999GA2071+069009999GF107991999999999999999999MA1101191999999MW1001REMMET058DXXX 251000Z 20010KT 9999 SCT016 BKN233 29/18 Q1012 NOSIG;EQDQ01+000000PRSWM2
0168653870999992000012511004+06170+001250FM-15+0025DXXX V0202201N003110690019N0112651N1+03101+02501999999ADDGA1021+004809999GA2071+069009999GF107991999999999999999999MA1101191999999MW1001REMMET058DXXX 251100Z 22006KT 9999 FEW016 BKN230 31/25 Q1012 NOSIG;EQDQ01+000000PRSWM2
0195653870999992000012512004+06170+001250FM-12+0025DXXX V0202201N00411105001CN0150001N1+03051+02441101161ADDAA199000091GA1021+006009089GF107991021021008001001021MA1999999100881MD1999999+0171REMSYN082AAXX  25124 65387 32565 72208 10305 20244 30088 40116 82202 333 58017 82820 86075;EQDQ01  00002PRCP99
0270653870999992000012514004+06170+001250SY-MT+0025DXXX V0202201N002110750019N0100001N1+02631+02471101141ADDGA1021+006009999GA2071+075009999GF107991011021004501001021MA1100911100861MD1999999+0031MW1001REMSYN082AAXX  25144 65387 42460 72204 10263 20247 30086 40114 81202 333 58003 81810 87073;MET058DXXX 251400Z 20008KT 9999 FEW020 BKN250 31/24 Q1009 NOSIG;EQDQ01+000000PRSWM2
0270653870999992000012515004+06170+001250SY-MT+0025DXXX V0202001N00411075001CN0150001N1+03021+02421100881ADDGA1021+006009999GA2071+075009999GF107991021021008001001021MA1100911100621MD1999999+0071MW1001REMSYN082AAXX  25154 65387 42565 72008 10302 20242 30062 40088 82202 333 58007 82820 87073;MET058DXXX 251500Z 19012KT 9999 FEW020 BKN250 30/19 Q1009 NOSIG;EQDQ01+000000PRSWM2
0145653870999992000012516004+06170+001250FM-15+0025DXXX V0201901N006712200019N0112651N1+02901+02001999999ADDGA1021+006009999GF102991999999999999999999MA1100911999999MW1001REMMET051DXXX 251600Z 19013KT 9999 FEW020 29/20 Q1009 NOSIG;EQDQ01+000000PRSWM2
0168653870999992000012517004+06170+001250FM-15+0025DXXX V0202001N005110690019N0112651N1+02901+02501999999ADDGA1021+004809999GA2071+069009999GF107991999999999999999999MA1100911999999MW1001REMMET058DXXX 251700Z 20010KT 9999 FEW016 BKN230 29/25 Q1009 NOSIG;EQDQ01+000000PRSWM2
