0195655180999992000010100004+11150-001150FM-12+0322DFCP V0209999C000010780019N0150001N1+02271+00641100721ADDAA106000091GA1071+078009019GF107991001001999999001021MA1999999097141MD1999999-0081REMSYN082AAXX  01004 65518 32965 70000 10227 20064 39714 40072 80002 333 0//00 59008 87076;EQDQ01  00002PRCP06
0232655180999992000010106004+11150-001150FM-12+0322DFCP V0209999C000010780019N0200001N1+02141+00761100711ADDAA106000091GA1071+078009019GF107991001001999999001021IA2240+01509KA1120N+02081MA1999999097101MD1999999+0021REMSYN094AAXX  01064 65518 32970 70000 10214 20076 39710 40071 80002 333 01500 20208 50614 58002 87076;EQDQ01  00002PRCP06
0223655180999992000010112004+11150-001150FM-12+0322DFCP V0200801N001010780019N0080001N1+03251+00741100661ADDAA106000091AY121061AY221061GA1071+078009019GF107991001001999999001021MA1999999097081MD1999999-0011MW1061REMSYN088AAXX  01124 65518 31958 70802 10325 20074 39708 40066 70622 80002 333 0//00 59001 87076;EQDQ01  00002PRCP06
0230655180999992000010118004+11150-001150FM-12+0322DFCP V0209999C000010780019N0060001N1+02961+99999100511ADDAA106000091AY121061AY221061GA1071+078009019GF107991001001999999001021KA1120M+03501MA1999999096911MD1999999-0011MW1061REMSYN082AAXX  01184 65518 31956 70000 10296 39691 40051 70622 80002 333 10350 59001 87076;EQDQ01  00002PRCP06
0266655180999992000010206004+11150-001150FM-12+0322DFCP V0209999C000019999999N0060001N1+02251+01061100691ADDAA106000091AY121061AY221061GA1011+039009039GF107991011001999999031021IA2240+01809KA1120N+02221MA1999999097101MD1999999+0001MW1061REMSYN106AAXX  02064 65518 31956 70000 10225 20106 39710 40069 70622 81032 333 01800 20222 50544 58000 81363 87076;EQDQ01  00002PRCP06
0216655180999992000010212004+11150-001150FM-12+0322DFCP V0200801N002119999999N0060001N1+02871+01471100811ADDAA106001091AY161061AY261061GA1031+039009039GF107991031001999999031021MA1999999097221MD1999999+0141MW1061REMSYN100AAXX  02124 65518 11956 70804 10287 20147 39722 40081 69991 70666 83032 333 0//00 58014 83363 86076;
0195655180999992000010218004+11150-001150FM-12+0322DFCP V0203601N003110390019N0150001N1+02811+00581100691ADDAA112000191GA1071+039009079GF107991071001999999071999KA1120M+03281MA1999999097091MD1999999+0181REMSYN088AAXX  02184 65518 12965 73606 10281 20058 39709 40069 69912 8707/ 333 10328 58018 87363;
0195655180999992000010300004+11150-001150FM-12+0322DFCP V0203601N002110390019N0150001N1+02411+00871100981ADDAA106000091GA1071+039009079GF107991071001999999071999MA1999999097311MD1999999+0241REMSYN082AAXX  03004 65518 32965 73604 10241 20087 39731 40098 8707/ 333 0//00 58024 87363;EQDQ01  00002PRCP06
0260655180999992000010306004+11150-001150FM-12+0322DFCP V0203601N004110780019N0040001N1+02181+00671100881ADDAA106000091AY121061AY221061GA1071+078009019GF107991001001999999001021IA2240+02009KA1120N+02151MA1999999097271MD1999999+0171MW1061REMSYN100AAXX  03064 65518 31940 73608 10218 20067 39727 40088 70622 80002 333 02000 20215 50844 58017 87076;EQDQ01  00002PRCP06
0223655180999992000010312004+11150-001150FM-12+0322DFCP V0200401N005110780019N0020001N1+02901+00991100891ADDAA106000091AY121061AY221061GA1071+078009019GF107991001001999999001021MA1999999097301MD1999999+0081MW1061REMSYN088AAXX  03124 65518 31920 70410 10290 20099 39730 40089 70622 80002 333 0//00 58008 87076;EQDQ01  00002PRCP06
0208655180999992000010318004+11150-001150FM-12+0322DFCP V0200401N001010390019N0100001N1+02841+00811100731ADDAA106000091GA1081+039009079GF108991081001999999071999KA1120M+03101MA1999999097121MD1999999+0031REMSYN082AAXX  03184 65518 32960 80402 10284 20081 39712 40073 8807/ 333 10310 58003 88363;EQDQ01  00002PRCP06
0195655180999992000010403004+11150-001150FM-12+0322DFCP V0200201N002110780019N0150001N1+02321+00801100881ADDAA106000091GA1071+078009019GF107991001001999999001021MA1999999097281MD1999999-0031REMSYN082AAXX  04034 65518 32965 70204 10232 20080 39728 40088 80002 333 0//00 59003 87076;EQDQ01  00002PRCP06
0232655180999992000010406004+11150-001150FM-12+0322DFCP V0203601N001010780019N0150001N1+01911+00741100811ADDAA106000091GA1071+078009019GF107991001001999999001021IA2240+02109KA1120N+01861MA1999999097181MD1999999-0091REMSYN094AAXX  04064 65518 32965 73602 10191 20074 39718 40081 80002 333 02100 20186 50924 59009 87076;EQDQ01  00002PRCP06
0195655180999992000010412004+11150-001150FM-12+0322DFCP V0200401N004110780019N0150001N1+03001+01091100771ADDAA106000091GA1071+078009019GF107991001001999999001021MA1999999097191MD1999999-0111REMSYN082AAXX  04124 65518 32965 70408 10300 20109 39719 40077 80002 333 0//00 59011 87076;EQDQ01  00002PRCP06
0208655180999992000010418004+11150-001150FM-12+0322DFCP V0209999C000010780019N0100001N1+02931+00681100601ADDAA106000091GA1071+078009019GF107991001001999999001021KA1120M+03271MA1999999096991MD1999999-0131REMSYN082AAXX  04184 65518 32960 70000 10293 20068 39699 40060 80002 333 10327 59013 87076;EQDQ01  00002PRCP06
0143655180999992000010506004+11150-001150FM-12+0322DFCP V0200201N002119999999N0150001N1+02071+00501100741ADDAA106000091GF107991001001999999001021MA1999999097131REMSYN060AAXX  05064 65518 32965 70204 10207 20050 39713 40074 80002;EQDQ01  00002PRCP06
0195655180999992000010512004+11150-001150FM-12+0322DFCP V0200201N005110780019N0150001N1+02921+00481100821ADDAA106000091GA1071+078009019GF107991001001999999001021MA1999999097241MD1999999+0051REMSYN082AAXX  05124 65518 32965 70210 10292 20048 39724 40082 80002 333 0//00 58005 87076;EQDQ01  00002PRCP06
0232655180999992000010606004+11150-001150FM-12+0322DFCP V0209999C000010780019N0150001N1+01801+00881100791ADDAA106000091GA1071+078009019GF107991001001999999001021IA2240+01909KA1120N+01801MA1999999097171MD1999999+0041REMSYN094AAXX  06064 65518 32965 70000 10180 20088 39717 40079 80002 333 01900 20180 51024 58004 87076;EQDQ01  00002PRCP06
0195655180999992000010612004+11150-001150FM-12+0322DFCP V0200601N004110780019N0150001N1+02951+00411100801ADDAA106000091GA1071+078009019GF107991001001999999001021MA1999999097211MD1999999-0031REMSYN082AAXX  06124 65518 32965 70608 10295 20041 39721 40080 80002 333 0//00 59003 87076;EQDQ01  00002PRCP06
0232655180999992000010706004+11150-001150FM-12+0322DFCP V0209999C000010780019N0150001N1+01941+00631100881ADDAA106000091GA1071+078009019GF107991001001999999001021IA2240+01609KA1120N+01851MA1999999097261MD1999999+0091REMSYN094AAXX  07064 65518 32965 70000 10194 20063 39726 40088 80002 333 01600 20185 50684 58009 87076;EQDQ01  00002PRCP06
0195655180999992000010712004+11150-001150FM-12+0322DFCP V0200601N003110780019N0150001N1+03091+00591100821ADDAA106000091GA1071+078009019GF107991001001999999001021MA1999999097231MD1999999+0021REMSYN082AAXX  07124 65518 32965 70606 10309 20059 39723 40082 80002 333 0//00 58002 87076;EQDQ01  00002PRCP06
0208655180999992000010718004+11150-001150FM-12+0322DFCP V0200201N001010780019N0150001N1+03061+00771100631ADDAA106000091GA1071+078009019GF107991001001999999001021KA1120M+03331MA1999999097031MD1999999-0061REMSYN082AAXX  07184 65518 32965 70202 10306 20077 39703 40063 80002 333 10333 59006 87076;EQDQ01  00002PRCP06
0195655180999992000010800004+11150-001150FM-12+0322DFCP V0209999C000010780019N0150001N1+02311+01051100981ADDAA106000091GA1071+078009019GF107991001001999999001021MA1999999097391MD1999999+0001REMSYN082AAXX  08004 65518 32965 70000 10231 20105 39739 40098 80002 333 0//00 58000 87076;EQDQ01  00002PRCP06
0232655180999992000010806004+11150-001150FM-12+0322DFCP V0200801N002110780019N0150001N1+02191+00601101011ADDAA106000091GA1071+078009019GF107991001001999999001021IA2240+01609KA1120N+02151MA1999999097411MD1999999-0011REMSYN094AAXX  08064 65518 32965 70804 10219 20060 39741 40101 80002 333 01600 20215 50894 59001 87076;EQDQ01  00002PRCP06
0195655180999992000010812004+11150-001150FM-12+0322DFCP V0200801N004110780019N0150001N1+03151+00791100911ADDAA106000091GA1071+078009019GF107991001001999999001021MA1999999097321MD1999999+0091REMSYN082AAXX  08124 65518 32965 70808 10315 20079 39732 40091 80002 333 0//00 58009 87076;EQDQ01  00002PRCP06
0208655180999992000010818004+11150-001150FM-12+0322DFCP V0209999C000010780019N0150001N1+02941+01421100711ADDAA106000091GA1071+078009019GF107991001001999999001021KA1120M+03371MA1999999097111MD1999999+0081REMSYN082AAXX  08184 65518 32965 70000 10294 20142 39711 40071 80002 333 10337 58008 87076;EQDQ01  00002PRCP06
0195655180999992000010900004+11150-001150FM-12+0322DFCP V0209999C000010780019N0150001N1+02241+01051100901ADDAA106000091GA1071+078009019GF107991001001999999001021MA1999999097311MD1999999-0081REMSYN082AAXX  09004 65518 32965 70000 10224 20105 39731 40090 80002 333 0//00 59008 87076;EQDQ01  00002PRCP06
0232655180999992000010906004+11150-001150FM-12+0322DFCP V0209999C000010780019N0150001N1+02081+00751100791ADDAA106000091GA1071+078009019GF107991001001999999001021IA2240+01909KA1120N+01971MA1999999097191MD1999999-0061REMSYN094AAXX  09064 65518 32965 70000 10208 20075 39719 40079 80002 333 01900 20197 50734 59006 87076;EQDQ01  00002PRCP06
0174655180999992000010912004+11150-001150FM-12+0322DFCP V0200801N003110780019N0150001N1+03101+00841100901ADDAA106000091GA1071+078009019GF107991001001999999001021MD1999999-0021REMSYN076AAXX  09124 65518 32965 70806 10310 20084 40090 80002 333 0/900 59002 87076;EQDQ01  00002PRCP06
0159655180999992000010915004+11150-001150FM-12+0322DFCP V0209999C000010780019N0150001N1+03331+00941100561ADDGA1071+078009019GF107991001001999999001021MA1999999096991MD1999999-0071REMSYN076AAXX  09154 65518 42965 70000 10333 20094 39699 40056 80002 333 59007 87076;
0194655180999992000010918004+11150-001150FM-12+0322DFCP V0209999C000010780019N0150001N1+03011+01471100691ADDAA106000091GA1071+078009019GF107991001001999999001021KA1120M+03341MA1999999097091REMSYN082AAXX  09184 65518 32965 70000 10301 20147 39709 40069 80002 333 10334 39002 87076;EQDQ01  00002PRCP06
0195655180999992000011000004+11150-001150FM-12+0322DFCP V0209999C000010780019N0150001N1+02401+00971100861ADDAA106000091GA1071+078009019GF107991001001999999001021MA1999999097281MD1999999-0031REMSYN082AAXX  10004 65518 32965 70000 10240 20097 39728 40086 80002 333 0//00 59003 87076;EQDQ01  00002PRCP06
0159655180999992000011003004+11150-001150FM-12+0322DFCP V0209999C000010780019N0150001N1+02151+00921100721ADDGA1071+078009019GF107991001001999999001999MA1999999097101MD1999999-0091REMSYN076AAXX  10034 65518 42965 70000 10215 20092 3971/ 40072 8000/ 333 59009 87076;
0232655180999992000011006004+11150-001150FM-12+0322DFCP V0200401N001010780019N0150001N1+02101+00781100771ADDAA106000091GA1071+078009019GF107991001001999999001021IA2240+01709KA1120N+02021MA1999999097171MD1999999-0021REMSYN094AAXX  10064 65518 32965 70402 10210 20078 39717 40077 80002 333 01700 20202 50794 59002 87076;EQDQ01  00002PRCP06
0159655180999992000011009004+11150-001150FM-12+0322DFCP V0200601N002110780019N0150001N1+02611+00641100921ADDGA1071+078009019GF107991001001999999001021MA1999999097321MD1999999-0061REMSYN076AAXX  10094 65518 42965 70604 10261 20064 39732 40092 80002 333 59006 87076;
0195655180999992000011012004+11150-001150FM-12+0322DFCP V0200801N002110780019N0150001N1+03161+00971100791ADDAA106000091GA1071+078009019GF107991001001999999001021MA1999999097221MD1999999-0081REMSYN082AAXX  10124 65518 32965 70804 10316 20097 39722 40079 80002 333 0//00 59008 87076;EQDQ01  00002PRCP06
0159655180999992000011015004+11150-001150FM-12+0322DFCP V0203601N001010780019N0150001N1+03401+01141100501ADDGA1071+078009019GF107991001001999999001021MA1999999096931MD1999999-0061REMSYN076AAXX  10154 65518 42965 73602 10340 20114 39693 40050 80002 333 59006 87076;
0169655180999992000011018004+11150-001150FM-12+0322DFCP V0209999C00001078001CN0150001N1+03011+01511100581ADDAA106000091GA1071+078009019MA1999999096981MD1999999-0111REMSYN082AAXX  10184 65518 32965 /0000 10301 20151 39698 40058 80002 333 10/45 59011 87076;EQDQ01  00002PRCP06
0195655180999992000011100004+11150-001150FM-12+0322DFCP V0209999C000010780019N0150001N1+02401+01171100811ADDAA106000091GA1071+078009019GF107991001001999999001021MA1999999097241MD1999999-0041REMSYN082AAXX  11004 65518 32965 70000 10240 20117 39724 40081 80002 333 0//00 59004 87076;EQDQ01  00002PRCP06
0159655180999992000011103004+11150-001150FM-12+0322DFCP V0200201N002110780019N0150001N1+02201+00971100711ADDGA1071+078009019GF107991001001999999001021MA1999999097141MD1999999+0001REMSYN076AAXX  11034 65518 42965 70204 10220 20097 39714 40071 80002 333 58000 87076;
0232655180999992000011106004+11150-001150FM-12+0322DFCP V0209999C000010780019N0150001N1+02081+00801100751ADDAA106000091GA1071+078009019GF107991001001999999001021IA2240+01809KA1120N+02051MA1999999097151MD1999999-0021REMSYN094AAXX  11064 65518 32965 70000 10208 20080 39715 40075 80002 333 01800 20205 50714 59002 87076;EQDQ01  00002PRCP06
0159655180999992000011109004+11150-001150FM-12+0322DFCP V0200801N003110780019N0150001N1+02901+00771100971ADDGA1071+078009019GF107991001001999999001021MA1999999097361MD1999999+0041REMSYN076AAXX  11094 65518 42965 70806 10290 20077 39736 40097 80002 333 58004 87076;
0195655180999992000011112004+11150-001150FM-12+0322DFCP V0200801N005110780019N0100001N1+03121+01041100821ADDAA106000091GA1071+078009019GF107991001001999999001021MA1999999097241MD1999999+0021REMSYN082AAXX  11124 65518 32960 70810 10312 20104 39724 40082 80002 333 0//00 58002 87076;EQDQ01  00002PRCP06
0159655180999992000011115004+11150-001150FM-12+0322DFCP V0200801N001010780019N0100001N1+03321+01061100541ADDGA1071+078009019GF107991001001999999001021MA1999999096971MD1999999+0041REMSYN076AAXX  11154 65518 42960 70802 10332 20106 39697 40054 80002 333 58004 87076;
0236655180999992000011118004+11150-001150FM-12+0322DFCP V0209999C000010780019N0080001N1+03031+01461100621ADDAA106000091AY121061AY221061GA1071+078009019GF107991001001999999001021KA1120M+03371MA1999999097021MD1999999+0041MW1061REMSYN088AAXX  11184 65518 31958 70000 10303 20146 39702 40062 70622 80002 333 10337 58004 87076;EQDQ01  00002PRCP06
0113655180999992000011121004+11150-001150FM-12+0322DFCP V0209999C000019999999N0100001N1+02621+01101100831ADDGF107991001001999999001021MA1999999097231REMSYN060AAXX  11214 65518 42960 70000 10262 2011/ 39723 40083 80002;
0195655180999992000011200004+11150-001150FM-12+0322DFCP V0209999C000010780019N0100001N1+02521+00901100811ADDAA106000091GA1071+078009019GF107991001001999999001021MA1999999097231MD1999999-0011REMSYN082AAXX  12004 65518 32960 70000 10252 20090 39723 40081 80002 333 0//00 59001 87076;EQDQ01  00002PRCP06
0260655180999992000011206004+11150-001150FM-12+0322DFCP V0209999C000010780019N0060001N1+02141+00981100701ADDAA106000091AY121061AY221061GA1071+078009019GF107991001001999999001021IA2240+01909KA1120N+02111MA1999999097111MD1999999-0041MW1061REMSYN100AAXX  12064 65518 31956 70000 10214 20098 39711 40070 70622 80002 333 01900 20211 50924 59004 87076;EQDQ01  00002PRCP06
0181655180999992000011209004+11150-001150FM-12+0322DFCP V0200801N002110780019N0060001N1+99999+99999100931ADDAY121031AY221031GA1071+078009019GF107991001001999999001021MA1999999097331MD1999999-0031MW1061REMSYN076AAXX  12094 65518 41956 70804 20087 39733 40093 70622 80002 333 59003 87076;
0223655180999992000011212004+11150-001150FM-12+0322DFCP V0200401N002110780019N0060001N1+03401+01171100821ADDAA106000091AY121061AY221061GA1071+078009019GF107991001001999999001021MA1999999097261MD1999999+0021MW1061REMSYN088AAXX  12124 65518 31956 70404 10340 20117 39726 40082 70622 80002 333 0//00 58002 87076;EQDQ01  00002PRCP06
0153655180999992000011215004+11150-001150FM-12+0322DFCP V0209999C000010780019N0100001N1+03541+01071100521ADDGA1071+078009019GF107991999999999999999999MA1999999096971MD1999999+0001REMSYN070AAXX  12154 65518 42960 70000 10354 20107 39697 40052 333 58000 87076;
0208655180999992000011218004+11150-001150FM-12+0322DFCP V0209999C000010780019N0100001N1+03181+01431100631ADDAA106000091GA1071+078009019GF107991001001999999001021KA1120M+03541MA1999999097041MD1999999+0021REMSYN082AAXX  12184 65518 32960 70000 10318 20143 39704 40063 80002 333 10354 58002 87076;EQDQ01  00002PRCP06
0195655180999992000011300004+11150-001150FM-12+0322DFCP V0209999C000010780019N0100001N1+02501+01221100741ADDAA106000091GA1071+078009019GF107991001001999999001021MA1999999097191MD1999999-0041REMSYN082AAXX  13004 65518 32960 70000 10250 20122 39719 40074 80002 333 0//00 59004 87076;EQDQ01  00002PRCP06
0153655180999992000011303004+11150-001150FM-12+0322DFCP V0209999C000010780019N0150001N1+02321+01091100571ADDGA1071+078009019GF107991999999999999999999MA1999999097021MD1999999-0131REMSYN070AAXX  13034 65518 42965 70000 10232 20109 39702 40057 333 59013 87076;
0232655180999992000011306004+11150-001150FM-12+0322DFCP V0209999C000010780019N0150001N1+02121+01041100711ADDAA106000091GA1071+078009019GF107991001001999999001021IA2240+02009KA1120N+02101MA1999999097131MD1999999+0021REMSYN094AAXX  13064 65518 32965 70000 10212 20104 39713 40071 80002 333 02000 20210 50694 58002 87076;EQDQ01  00002PRCP06
0165655180999992000011309004+11150-001150FM-12+0322DFCP V0209999C000010390019N0100001N1+02751+00931100881ADDGA1051+039009039GF107991051001999999031021MA1999999097281MD1999999-0051REMSYN082AAXX  13094 65518 42960 70000 10275 20093 39728 40088 85032 333 59005 85363 85076;
0195655180999992000011312004+11150-001150FM-12+0322DFCP V0200801N002110780019N0100001N1+03321+01141100721ADDAA106000091GA1071+078009019GF107991001001999999001021MA1999999097171MD1999999-0091REMSYN082AAXX  13124 65518 32960 70804 10332 20114 39717 40072 80002 333 0//00 59009 87076;EQDQ01  00002PRCP06
0159655180999992000011315004+11150-001150FM-12+0322DFCP V0209999C000010780019N0150001N1+03581+01361100431ADDGA1071+078009019GF107991001001999999001021MA1999999096891MD1999999-0081REMSYN076AAXX  13154 65518 42965 70000 10358 20136 39689 40043 80002 333 59008 87076;
0208655180999992000011318004+11150-001150FM-12+0322DFCP V0209999C000010780019N0150001N1+03201+01651100491ADDAA106000091GA1071+078009019GF107991001001999999001021KA1120M+03601MA1999999096911MD1999999-0131REMSYN082AAXX  13184 65518 32965 70000 10320 20165 39691 40049 80002 333 10360 59013 87076;EQDQ01  00002PRCP06
0157655180999992000011321004+11150-001150FM-12+032299999V0209999C00001078001CN0150001N1+02681+01291100711ADDGA1071+078009019GF107991999999999999999999MA1999999097131MD1999999-0061REMSYN074    AAXX  13214 65518 42965 70000 10268 20129 39713 40071 333 59006 87076;
0199655180999992000011400004+11150-001150FM-12+032299999V0203601N00211078001CN0150001N1+02611+01061100691ADDAA199000091GA1071+078009019GF107991001001999999001021MA1999999097141MD1999999-0051REMSYN086    AAXX  14004 65518 32965 73604 10261 20106 39714 40069 80002 333 0//00 59005 87076;EQDQ01  00002PRCP99
0157655180999992000011403004+11150-001150FM-12+032299999V0200201N00211078001CN0150001N1+02361+99999100611ADDGA1071+078009019GF107991001001999999001021MA1999999097061MD1999999+0041REMSYN074    AAXX  14034 65518 42965 70204 10236 39706 40061 80002 333 58004 87076;
0236655180999992000011406004+11150-001150FM-12+032299999V0203601N00211078001CN0150001N1+02131+00751100671ADDAA199000091GA1071+078009019GF107991001001999999001021IA2240+01909KA1120N+02101MA1999999097091MD1999999-0041REMSYN098    AAXX  14064 65518 32965 73604 10213 20075 39709 40067 80002 333 01900 20210 50944 59004 87076;EQDQ01  00002PRCP99
0163655180999992000011409004+11150-001150FM-12+032299999V0203601N00311078001CN0150001N1+02421+00801100871ADDGA1071+078009019GF107991001001999999001021MA1999999097261MD1999999-0061REMSYN080    AAXX  14094 65518 42965 73606 10242 20080 39726 40087 80002 333 59006 87076;
0199655180999992000011412004+11150-001150FM-12+032299999V0200601N00311078001CN0150001N1+03001+01071100701ADDAA199000091GA1071+078009019GF107991001001999999001021MA1999999097131MD1999999-0041REMSYN086    AAXX  14124 65518 32965 70606 10300 20107 39713 40070 80002 333 0//00 59004 87076;EQDQ01  00002PRCP99
0212655180999992000011418004+11150-001150FM-12+032299999V0209999C00001078001CN0150001N1+02971+01331100481ADDAA199000091GA1071+078009019GF107991001001999999001021KA1120M+03341MA1999999096891MD1999999-0021REMSYN086    AAXX  14184 65518 32965 70000 10297 20133 39689 40048 80002 333 10334 59002 87076;EQDQ01  00002PRCP99
0199655180999992000011500004+11150-001150FM-12+032299999V0203601N00101078001CN0150001N1+02381+01101100741ADDAA199000091GA1071+078009019GF107991001001999999001021MA1999999097161MD1999999+0021REMSYN086    AAXX  15004 65518 32965 73602 10238 20110 39716 40074 80002 333 0//00 58002 87076;EQDQ01  00002PRCP99
0236655180999992000011506004+11150-001150FM-12+032299999V0203601N00101078001CN0100001N1+02181+00941100651ADDAA199000091GA1071+078009019GF107991001001999999001021IA2240+02009KA1120N+01231MA1999999097071MD1999999-0021REMSYN098    AAXX  15064 65518 32960 73602 10218 20094 39707 40065 80002 333 02000 20123 51114 59002 87076;EQDQ01  00002PRCP99
0163655180999992000011509004+11150-001150FM-12+032299999V0203601N00211078001CN0150001N1+02641+00981100911ADDGA1071+078009019GF107991001001999999001021MA1999999097311MD1999999+0051REMSYN080    AAXX  15094 65518 42965 73604 10264 20098 39731 40091 80002 333 58005 87076;
0199655180999992000011512004+11150-001150FM-12+032299999V0200801N00411078001CN0150001N1+03261+01231100821ADDAA199000091GA1071+078009019GF107991001001999999001021MA1999999097251MD1999999+0121REMSYN086    AAXX  15124 65518 32965 70808 10326 20123 39725 40082 80002 333 0//00 58012 87076;EQDQ01  00002PRCP99
0212655180999992000011518004+11150-001150FM-12+032299999V0209999C00001078001CN0150001N1+03181+01481100581ADDAA199000091GA1071+078009019GF107991001001999999001021KA1120M+03591MA1999999097011MD1999999+0121REMSYN086    AAXX  15184 65518 32965 70000 10318 20148 39701 40058 80002 333 10359 58012 87076;EQDQ01  00002PRCP99
0167655180999992000011521004+11150-001150FM-12+032299999V0209999C00001078001CN0150001N1+99999+99999999999ADDGA1071+078009019GF107991001001999999001021MD1999999+0041REMSYN080    AAXX  15214 65518 42965 70000 102/8 20140 3919/ 40//7 80002 333 58004 87076;EQDQ01+091903APOSP 
0199655180999992000011600004+11150-001150FM-12+032299999V0209999C00001078001CN0150001N1+02521+01311100821ADDAA199000091GA1071+078009019GF107991001001999999001021MA1999999097261MD1999999+0101REMSYN086    AAXX  16004 65518 32965 70000 10252 20131 39726 40082 80002 333 0//00 58010 87076;EQDQ01  00002PRCP99
0236655180999992000011606004+11150-001150FM-12+032299999V0209999C00001078001CN0150001N1+02261+01181100721ADDAA199000091GA1071+078009019GF107991001001999999001021IA2240+01909KA1120N+02231MA1999999097141MD1999999+0071REMSYN098    AAXX  16064 65518 32965 70000 10226 20118 39714 40072 80002 333 01900 20223 50854 58007 87076;EQDQ01  00002PRCP99
0163655180999992000011609004+11150-001150FM-12+032299999V0200401N00311078001CN0150001N1+02781+01261101011ADDGA1071+078009019GF107991001001999999001021MA1999999097421MD1999999+0111REMSYN080    AAXX  16094 65518 42965 70406 10278 20126 39742 40101 80002 333 58011 87076;
0199655180999992000011612004+11150-001150FM-12+032299999V0200801N00411078001CN0150001N1+03371+01491100921ADDAA199000091GA1071+078009019GF107991001001999999001021MA1999999097361MD1999999+0111REMSYN086    AAXX  16124 65518 32965 70808 10337 20149 39736 40092 80002 333 0//00 58011 87076;EQDQ01  00002PRCP99
0163655180999992000011615004+11150-001150FM-12+032299999V0200401N00311078001CN0150001N1+03561+01531999999ADDGA1071+078009019GF107991001001999999001021MA1999999097091MD1999999+0121REMSYN080    AAXX  16154 65518 42965 70406 10356 20153 39709 4/064 80002 333 58012 87076;
0212655180999992000011618004+11150-001150FM-12+032299999V0209999C00001078001CN0150001N1+03341+01541100751ADDAA199000091GA1071+078009019GF107991001001999999001021KA1120M+03571MA1999999097181MD1999999+0171REMSYN086    AAXX  16184 65518 32965 70000 10334 20154 39718 40075 80002 333 10357 58017 87076;EQDQ01  00002PRCP99
0163655180999992000011621004+11150-001150FM-12+032299999V0209999C00001078001CN0150001N1+02751+01491100961ADDGA1071+078009019GF108991001001999999001021MA1999999097381MD1999999+0191REMSYN080    AAXX  16214 65518 42965 80000 10275 20149 39738 40096 80002 333 58019 87076;
0199655180999992000011700004+11150-001150FM-12+032299999V0209999C00001078001CN0150001N1+02601+01461100951ADDAA199000091GA1071+078009019GF107991001001999999001021MA1999999097401MD1999999+0141REMSYN086    AAXX  17004 65518 32965 70000 10260 20146 39740 40095 80002 333 0//00 58014 87076;EQDQ01  00002PRCP99
0163655180999992000011709004+11150-001150FM-12+032299999V0200601N00211078001CN0150001N1+02851+00691100991ADDGA1071+078009019GF107991001001999999999021MA1999999097411MD1999999-0011REMSYN080    AAXX  17094 65518 42965 70604 10285 20069 39741 40099 800/2 333 59001 87076;
0215655180999992000011712004+11150-001150FM-12+032299999V0200801N00511078001CN0150001N1+03461+00421100831ADDAA199000091GA1071+078009019GF199999001001999999001021MA1999999097291MD1999999-0071REMSYN086    AAXX  17124 65518 32965 50810 10346 20042 39729 40083 80002 333 0//00 59007 87076;EQDQ01+000052SCOTCVQ02  00002PRCP99
0163655180999992000011715004+11150-001150FM-12+032299999V0200601N00311999999CN0150001N1+03561+00891100561ADDGA1011+078009019GF105991001001999999001021MA1999999097021MD1999999-0071REMSYN080    AAXX  17154 65518 42965 50606 10356 20089 39702 40056 80002 333 59007 81076;
0212655180999992000011718004+11150-001150FM-12+032299999V0209999C00001078001CN0150001N1+02372+00921100641ADDAA199000091GA1071+078009019GF107991001001999999001021KA1120M+03611MA1999999097061MD1999999-0121REMSYN086    AAXX  17184 65518 32965 70000 10237 20092 39706 40064 80002 333 10361 59012 87076;EQDQ01  00002PRCP99
0199655180999992000011800004+11150-001150FM-12+032299999V0209999C00001078001CN0150001N1+02651+00941100891ADDAA199000091GA1071+078009019GF107991001001999999001021MA1999999097341MD1999999-0061REMSYN086    AAXX  18004 65518 32965 70000 10265 20094 39734 40089 80002 333 0//00 59006 87076;EQDQ01  00002PRCP99
0236655180999992000011803004+11150-001150FM-12+032299999V0209999C00001078001CN0150001N1+02191+01001100771ADDAA199000091GA1071+078009019GF107991001001999999001021IA2240+01909KA1120N+02191MA1999999097191MD1999999-0071REMSYN098    AAXX  18034 65518 32965 70000 10219 20100 39719 40077 80002 333 01900 20219 50974 59007 87076;EQDQ01  00002PRCP99
0163655180999992000011809004+11150-001150FM-12+032299999V0200201N00211078001CN0150001N1+02841+00781101031ADDGA1071+078009019GF107991001001999999001021MA1999999097421MD1999999+0041REMSYN080    AAXX  18094 65518 42965 70204 10284 20078 39742 40103 80002 333 58004 87076;
0199655180999992000011812004+11150-001150FM-12+032299999V0200601N00311078001CN0150001N1+03551+00481100841ADDAA199000091GA1071+078009019GF107991001001999999001021MA1999999097301MD1999999+0011REMSYN086    AAXX  18124 65518 32965 70606 10355 20048 39730 40084 80002 333 0//00 58001 87076;EQDQ01  00002PRCP99
0163655180999992000011815004+11150-001150FM-12+032299999V0209999C00001078001CN0150001N1+03701+00981100581ADDGA1071+078009019GF107991001001999999001021MA1999999097041MD1999999+0021REMSYN080    AAXX  18154 65518 42965 70000 10370 20098 39704 40058 80002 333 58002 87076;
0212655180999992000011818004+11150-001150FM-12+032299999V0209999C00001078001CN0150001N1+03401+00701100631ADDAA199000091GA1071+078009019GF107991001001999999001021KA1120M+03701MA1999999097061MD1999999+0001REMSYN086    AAXX  18184 65518 32965 70000 10340 20070 39706 40063 80002 333 10370 58000 87076;EQDQ01  00002PRCP99
0236655180999992000011906004+11150-001150FM-12+032299999V0209999C00001078001CN0150001N1+02151+00731100701ADDAA199000091GA1071+078009019GF107991001001999999001021IA2240+01909KA1120N+02121MA1999999097121MD1999999-0071REMSYN098    AAXX  19064 65518 32965 70000 10215 20073 39712 40070 80002 333 01900 20212 50804 59007 87076;EQDQ01  00002PRCP99
0163655180999992000011909004+11150-001150FM-12+032299999V0200801N00411078001CN0150001N1+02901+00501100981ADDGA1051+078009019GF105991001001999999001021MA1999999097401MD1999999-0051REMSYN080    AAXX  19094 65518 42965 50808 10290 20050 39740 40098 80002 333 59005 85076;
0199655180999992000011912004+11150-001150FM-12+032299999V0201201N00511220001CN0150001N1+03451+00171100811ADDAA199000091GA1031+078009019GF103991001001999999001021MA1999999097261MD1999999-0041REMSYN086    AAXX  19124 65518 32965 31210 10345 20017 39726 40081 80002 333 0//00 59004 83076;EQDQ01  00002PRCP99
0163655180999992000011915004+11150-001150FM-12+032299999V0200801N00311220001CN0150001N1+03671+00861100461ADDGA1031+078009019GF103991001001999999001021MA1999999096921MD1999999-0121REMSYN080    AAXX  19154 65518 42965 30806 10367 20086 39692 40046 80002 333 59012 83076;
0208655180999992000011918004+11150-001150FM-12+0322DFCP V0209999C000010780019N0150001N1+03301+01131100561ADDAA199000091GA1051+078009019GF105991001001999999001021KA1120M+03751MA1999999096991MD1999999-0071REMSYN082AAXX  19184 65518 32965 50000 10330 20113 39699 40056 80002 333 10375 59007 85076;EQDQ01  00002PRCP99
0201655180999992000012000004+11150-001150FM-12+0322DFCP V02099999999999999999N0150001N1+02541+00931100791ADDAA199000091GA1011+039009039GF107991011001999999031021MA1999999097241MD1999999+0001REMSYN088AAXX  20004 65518 32965 7000/ 10254 20093 39724 40079 81032 333 0//00 58000 81363 87076;EQDQ01  00002PRCP99
0151655180999992000012009004+11150-001150FM-12+0322DFCP V0201801N002119999999N0150001N1+02841+01761101011ADDGA1021+039009039GF107991021001999999031021MA1999999097401REMSYN082AAXX  20094 65518 42965 71804 10284 20176 3974/ 40101 82032 333 51003 82363 87076;
0201655180999992000012100004+11150-001150FM-12+0322DFCP V0209999C000019999999N0150001N1+02781+01721100811ADDAA199000091GA1031+039009039GF107991031001999999031021MA1999999097261MD1999999+0021REMSYN088AAXX  21004 65518 32965 70000 10278 20172 39726 40081 83032 333 0//00 58002 83363 86076;EQDQ01  00002PRCP99
0201655180999992000012112004+11150-001150FM-12+0322DFCP V0209999C000010390019N0150001N1+03141+01721100891ADDAA199000091GA1051+039009039GF107991051001999999031021MA1999999097331MD1999999+0041REMSYN088AAXX  21124 65518 32965 70000 10314 20172 39733 40089 85032 333 0//00 58004 85363 83076;EQDQ01  00002PRCP99
0159655180999992000012115004+11150-001150FM-12+0322DFCP V02099999999990390019N0150001N1+99999+99999100671ADDGA1081+039009079GF108991081001999999071999MA1999999097111MD1999999+0071REMSYN076AAXX  21154 65518 42965 800/0 10/20 20165 39711 40067 8807/ 333 58007 88363;
0208655180999992000012118004+11150-001150FM-12+0322DFCP V0209999C000010390019N0150001N1+03041+01821100761ADDAA199000091GA1081+039009079GF108991081001999999071999KA1120M+03341MA1999999097181MD1999999+0091REMSYN082AAXX  21184 65518 32965 80000 10304 20182 39718 40076 8807/ 333 10334 58009 88363;EQDQ01  00002PRCP99
0165655180999992000012209004+11150-001150FM-12+0322DFCP V0203201N002119999999N0150001N1+02891+01691100951ADDGA1011+039009039GF105991011001999999031021MA1999999097381MD1999999-0091REMSYN082AAXX  22094 65518 42965 53204 10289 20169 39738 40095 81032 333 59009 81363 85076;
0195655180999992000012212004+11150-001150FM-12+0322DFCP V0200201N002112200019N0150001N1+03531+00671100731ADDAA199000091GA1031+078009019GF103991001001999999001021MA1999999097191MD1999999-0141REMSYN082AAXX  22124 65518 32965 30204 10353 20067 39719 40073 80002 333 0//00 59014 83076;EQDQ01  00002PRCP99
0159655180999992000012215004+11150-001150FM-12+0322DFCP V0200401N002112200019N0150001N1+03731+01001100471ADDGA1031+078009019GF103991001001999999001021MA1999999096951MD1999999-0161REMSYN076AAXX  22154 65518 42965 30404 10373 20100 39695 40047 80002 333 59016 83076;
0137655180999992000012218004+11150-001150FM-12+0322DFCP V0209999C000019999999N0150001N1+03321+99999100541ADDAA199000091GF107991001001999999001021MA1999999096981REMSYN054AAXX  22184 65518 32965 70000 10332 39698 40054 80002;EQDQ01  00002PRCP99
0195655180999992000012300004+11150-001150FM-12+0322DFCP V0203401N001010780019N0150001N1+02631+00791100681ADDAA199000091GA1071+078009019GF107991001001999999001021MA1999999097151MD1999999-0181REMSYN082AAXX  23004 65518 32965 73402 10263 20079 39715 40068 80002 333 0//00 59018 87076;EQDQ01  00002PRCP99
0232655180999992000012306004+11150-001150FM-12+0322DFCP V0203601N001010780019N0150001N1+02301+00431100631ADDAA199000091GA1071+078009019GF107991001001999999001021IA2240+02009KA1120N+02271MA1999999097071MD1999999-0141REMSYN094AAXX  23064 65518 32965 73602 10230 20043 39707 40063 80002 333 02000 20227 50894 59014 87076;EQDQ01  00002PRCP99
0159655180999992000012309004+11150-001150FM-12+0322DFCP V0203601N002110780019N0150001N1+02941-00031100851ADDGA1071+078009019GF107991001001999999001021MA1999999097291MD1999999-0091REMSYN076AAXX  23094 65518 42965 73604 10294 21003 39729 40085 80002 333 59009 87076;
0195655180999992000012312004+11150-001150FM-12+0322DFCP V0200601N003110780019N0150001N1+03601-00081100691ADDAA199000091GA1071+078009019GF107991001001999999001021MA1999999097151MD1999999-0041REMSYN082AAXX  23124 65518 32965 70606 10360 21008 39715 40069 80002 333 0//00 59004 87076;EQDQ01  00002PRCP99
0208655180999992000012318004+11150-001150FM-12+0322DFCP V0209999C000010780019N0150001N1+03451+00881100491ADDAA199000091GA1071+078009019GF107991001001999999001021KA1120M+03781MA1999999096941MD1999999-0041REMSYN082AAXX  23184 65518 32965 70000 10345 20088 39694 40049 80002 333 10378 59004 87076;EQDQ01  00002PRCP99
0232655180999992000012406004+11150-001150FM-12+0322DFCP V0209999C000010780019N0150001N1+02171+00421100651ADDAA199000091GA1071+078009019GF107991001001999999001021IA2240+02109KA1120N+02161MA1999999097091MD1999999+0021REMSYN094AAXX  24064 65518 32965 70000 10217 20042 39709 40065 80002 333 02100 20216 51034 58002 87076;EQDQ01  00002PRCP99
0159655180999992000012409004+11150-001150FM-12+0322DFCP V0209999C000010780019N0150001N1+02701+00471100901ADDGA1071+078009019GF107991001001999999001021MA1999999097321MD1999999+0031REMSYN076AAXX  24094 65518 42965 70000 10270 20047 39732 40090 80002 333 58003 87076;
0181655180999992000012412004+11150-001150FM-12+0322DFCP V0209999C000010780019N0150001N1+03431+99999100741ADDAA199000091GA1071+078009019GF107991001001999999001021MA1999999097191REMSYN082AAXX  24124 65518 32965 70000 10343 200/4 39719 40074 80002 333 0//00 5800/ 87076;EQDQ01  00002PRCP99
0159655180999992000012415004+11150-001150FM-12+0322DFCP V0209999C000010780019N0150001N1+03601+01441100511ADDGA1071+078009019GF107991001001999999001021MA1999999096971MD1999999+0041REMSYN076AAXX  24154 65518 42965 70000 10360 20144 39697 40051 80002 333 58004 87076;
0165655180999992000012418004+11150-001150FM-12+0322DFCP V0209999C000019999999N0150001N1+99999+99999999999ADDAA199000091GF107991001001999999061011KA1120M+03711MD1999999+0101REMSYN070AAXX  24184 65518 32965 70000 10/01 80061 80002 333 10371 58010 87076;EQDQ01  00002PRCP99
0195655180999992000012500004+11150-001150FM-12+0322DFCP V0201801N001010780019N0150001N1+02711+01481100901ADDAA199000091GA1071+078009019GF107991001001999999001021MA1999999097351MD1999999+0191REMSYN082AAXX  25004 65518 32965 71802 10271 20148 39735 40090 80002 333 0//00 58019 87076;EQDQ01  00002PRCP99
0159655180999992000012503004+11150-001150FM-12+0322DFCP V0201801N001010780019N0150001N1+02611+01621100821ADDGA1071+078009019GF107991001001999999001021MA1999999097281MD1999999+0191REMSYN076AAXX  25034 65518 42965 71802 10261 20162 39728 40082 80002 333 58019 87076;
0221655180999992000012506004+11150-001150FM-12+0322DFCP V0209999C000010780019N0150001N1+02231+01941100841ADDGA1071+078009019GF199999001001999999001021IA2240+01809KA1120N+02201MA1999999097261MD1999999+0171REMSYN094AAXX  25064 65518 43965 50000 10223 20194 39726 40084 80002 333 01800 20220 50654 58017 87076;EQDQ01+000052SCOTCV
0159655180999992000012509004+11150-001150FM-12+0322DFCP V0202601N002112200019N0150001N1+02811+02021101051ADDGA1031+078009019GF103991001001999999001021MA1999999097461MD1999999+0141REMSYN076AAXX  25094 65518 42965 32604 10281 20202 39746 40105 80002 333 58014 83076;
0195655180999992000012512004+11150-001150FM-12+0322DFCP V0203401N001010780019N0150001N1+03451+01791100901ADDAA199000091GA1051+078009019GF105991001001999999001021MA1999999097361MD1999999+0171REMSYN082AAXX  25124 65518 32965 53402 10345 20179 39736 40090 80002 333 0//00 58017 85076;EQDQ01  00002PRCP99
0159655180999992000012515004+11150-001150FM-12+0322DFCP V0200401N003110780019N0150001N1+03651+01281100571ADDGA1071+078009019GF107991001001999999001021MA1999999097051MD1999999+0081REMSYN076AAXX  25154 65518 42965 70406 10365 20128 39705 40057 80002 333 58008 87076;
0208655180999992000012518004+11150-001150FM-12+0322DFCP V0209999C000010780019N0150001N1+03401+01331100681ADDAA199000091GA1071+078009019GF107991001001999999001021KA1120M+03701MA1999999097111MD1999999+0071REMSYN082AAXX  25184 65518 32965 70000 10340 20133 39711 40068 80002 333 10370 58007 87076;EQDQ01  00002PRCP99
0159655180999992000012521004+11150-001150FM-12+0322DFCP V0209999C000010780019N0150001N1+02901+01491100881ADDGA1071+078009019GF107991001001999999021999MA1999999097311MD1999999+0051REMSYN076AAXX  25214 65518 4/965 70000 10290 20149 39731 40088 8002/ 333 58005 87076;
0201655180999992000012600004+11150-001150FM-12+0322DFCP V0209999C000019999999N0150001N1+02731+01321100861ADDAA199000091GA1011+039009039GF107991011001999999031021MA1999999097321MD1999999-0031REMSYN088AAXX  26004 65518 32965 70000 10273 20132 39732 40086 81032 333 0//00 59003 81363 87076;EQDQ01  00002PRCP99
0159655180999992000012603004+11150-001150FM-12+0322DFCP V0209999C000010780019N0150001N1+02511+00981100781ADDGA1071+078009019GF107991001001999999001021MA1999999097241MD1999999-0041REMSYN076AAXX  26034 65518 42965 70000 10251 20098 39724 40078 80002 333 59004 87076;
0232655180999992000012606004+11150-001150FM-12+0322DFCP V0209999C000010780019N0150001N1+02271+00881100831ADDAA199000091GA1071+078009019GF107991001001999999001021IA2240+02009KA1120N+02271MA1999999097261MD1999999+0001REMSYN094AAXX  26064 65518 32965 70000 10227 20088 39726 40083 80002 333 02000 20227 50864 58000 87076;EQDQ01  00002PRCP99
0159655180999992000012609004+11150-001150FM-12+0322DFCP V0200801N002110780019N0150001N1+03061+00321101051ADDGA1071+078009019GF107991001001999999001021MA1999999097501MD1999999+0041REMSYN076AAXX  26094 65518 42965 70804 10306 20032 39750 40105 80002 333 58004 87076;
0195655180999992000012612004+11150-001150FM-12+0322DFCP V0200801N003110780019N0150001N1+03651-00461100921ADDAA199000091GA1071+078009019GF107991001001999999001021MA1999999097391MD1999999+0031REMSYN082AAXX  26124 65518 32965 70806 10365 21046 39739 40092 80002 333 0//00 58003 87076;EQDQ01  00002PRCP99
0178655180999992000012615004+11150-001150FM-12+0322DFCP V0200801N003110780019N0150001N1+03861+01342100671ADDGA1071+078009019GF107991001001999999001021MA1999999097141MD1999999+0091REMSYN076AAXX  26154 65518 42965 70806 10386 20134 39714 40067 80002 333 58009 87076;EQDQ01+001343ATOD  
0208655180999992000012618004+11150-001150FM-12+0322DFCP V0209999C000010780019N0150001N1+03521+00341100731ADDAA199000091GA1071+078009019GF107991001001999999001021KA1120M+03871MA1999999097171MD1999999+0061REMSYN082AAXX  26184 65518 32965 70000 10352 20034 39717 40073 80002 333 10387 58006 87076;EQDQ01  00002PRCP99
0195655180999992000012700004+11150-001150FM-12+0322DFCP V0209999C000010780019N0150001N1+02561+00591100901ADDAA199000091GA1071+078009019GF107991001001999999001021MA1999999097731MD1999999+0041REMSYN082AAXX  27004 65518 32965 70000 10256 20059 39773 40090 80002 333 0//00 58004 87076;EQDQ01  00002PRCP99
0153655180999992000012703004+11150-001150FM-12+0322DFCP V0200601N001010780019N0150001N1+02351+00461999999ADDGA1071+078009019GF107991001001999999001021MA1999999097291MD1999999+0051REMSYN070AAXX  27034 65518 42965 70602 10235 20046 39729 80002 333 58005 87076;
0159655180999992000012709004+11150-001150FM-12+0322DFCP V0200801N005110780019N0150001N1+02881-00011101141ADDGA1071+078009019GF107991001001999999001021MA1999999097561MD1999999+0061REMSYN076AAXX  27094 65518 42965 70810 10288 21001 39756 40114 80002 333 58006 87076;
0159655180999992000012721004+11150-001150FM-12+0322DFCP V0209999C000010780019N0150001N1+02781+00561100861ADDGA1071+078009019GF107991001001999999001021MA1999999097291MD1999999-0021REMSYN076AAXX  27214 65518 42965 70000 10278 20056 39729 40086 80002 333 59002 87076;
0195655180999992000012800004+11150-001150FM-12+0322DFCP V0209999C000010780019N0150001N1+02551+00541100761ADDAA199000091GA1071+078009019GF107991001001999999001021MA1999999097231MD1999999-0131REMSYN082AAXX  28004 65518 32965 70000 10255 20054 39723 40076 80002 333 0//00 59013 87076;EQDQ01  00002PRCP99
0208655180999992000012818004+11150-001150FM-12+0322DFCP V0209999C000010780019N0150001N1+03451+00541100631ADDAA199000091GA1071+078009019GF107991001001999999001021KA1120M+03781MA1999999097071MD1999999-0101REMSYN082AAXX  28184 65518 32965 70000 10345 20054 39707 40063 80002 333 10378 59010 87076;EQDQ01  00002PRCP99
0223655180999992000013112004+11150-001150FM-12+0322DFCP V0200801N006210780019N0040001N1+03201-00251101311ADDAA199000091AY121061AY221061GA1051+078009019GF105991001001999999001021MA1999999097721MD1999999+0021MW1061REMSYN088AAXX  31124 65518 31940 50812 10320 21025 39772 40131 70622 80002 333 0//00 58002 85076;EQDQ01  00002PRCP99
0223655180999992000020112004+11150-001150FM-12+0322DFCP V0200401N005110780019N0060001N1+02761-00661101591ADDAA199000091AY121061AY221061GA1071+078009019GF107991001001999999001021MA1999999097971MD1999999+0251MW1061REMSYN088AAXX  01124 65518 31956 70410 10276 21066 39797 40159 70622 80002 333 0//00 58025 87076;EQDQ01  00002PRCP99
0159655180999992000020115004+11150-001150FM-12+0322DFCP V0200401N003110780019N0100001N1+02921-00791101301ADDGA1071+078009019GF107991001001999999001021MA1999999097681MD1999999+0201REMSYN076AAXX  01154 65518 42960 70406 10292 21079 39768 40130 80002 333 58020 87076;
0208655180999992000020118004+11150-001150FM-12+0322DFCP V0200401N003110780019N0100001N1+02721-00501101341ADDAA199000091GA1071+078009019GF107991001001999999001021KA1120M+02931MA1999999097711MD1999999+0211REMSYN082AAXX  01184 65518 32960 70406 10272 21050 39771 40134 80002 333 10293 58021 87076;EQDQ01  00002PRCP99
0195655180999992000020200004+11150-001150FM-12+0322DFCP V0209999C000010780019N0150001N1+02061-00251101631ADDAA199000091GA1071+078009019GF107991001001999999001021MA1999999097981MD1999999+0181REMSYN082AAXX  02004 65518 32965 70000 10206 21025 39798 40163 80002 333 0//00 58018 87076;EQDQ01  00002PRCP99
0159655180999992000020203004+11150-001150FM-12+0322DFCP V0200201N002110780019N0100001N1+01901-00271101481ADDGA1071+078009019GF107991001001999999001021MA1999999097841MD1999999+0121REMSYN076AAXX  02034 65518 42960 70204 10190 21027 39784 40148 80002 333 58012 87076;
0232655180999992000020206004+11150-001150FM-12+0322DFCP V0203601N002110780019N0100001N1+01761-00361101501ADDAA199000091GA1071+078009019GF107991001001999999001021IA2240+02009KA1120N+01741MA1999999097831MD1999999+0081REMSYN094AAXX  02064 65518 32960 73604 10176 21036 39783 40150 80002 333 02000 20174 51484 58008 87076;EQDQ01  00002PRCP99
0159655180999992000020209004+11150-001150FM-12+0322DFCP V0200801N007210780019N0100001N1+02251-00951101631ADDGA1071+078009019GF107991001001999999001021MA1999999097971MD1999999-0031REMSYN076AAXX  02094 65518 42960 70814 10225 21095 39797 40163 80002 333 59003 87076;
0195655180999992000020212004+11150-001150FM-12+0322DFCP V0200401N005110780019N0100001N1+02741-00861101511ADDAA199000091GA1071+078009019GF107991001001999999001021MA1999999097861MD1999999-0111REMSYN082AAXX  02124 65518 32960 70410 10274 21086 39786 40151 80002 333 0//00 59011 87076;EQDQ01  00002PRCP99
0159655180999992000020215004+11150-001150FM-12+0322DFCP V0200201N003110780019N0100001N1+02941-00531101151ADDGA1071+078009019GF107991001001999999001021MA1999999097521MD1999999-0161REMSYN076AAXX  02154 65518 42960 70206 10294 21053 39752 40115 80002 333 59016 87076;
0208655180999992000020218004+11150-001150FM-12+0322DFCP V0200401N003110780019N0100001N1+02751-00411101211ADDAA199000091GA1071+078009019GF107991001001999999001021KA1120M+02951MA1999999097561MD1999999-0151REMSYN082AAXX  02184 65518 32960 70406 10275 21041 39756 40121 80002 333 10295 59015 87076;EQDQ01  00002PRCP99
0195655180999992000020300004+11150-001150FM-12+0322DFCP V0200401N002110780019N0100001N1+02171-00831101471ADDAA199000091GA1071+078009019GF107991001001999999001021MA1999999097831MD1999999-0151REMSYN082AAXX  03004 65518 32960 70404 10217 21083 39783 40147 80002 333 0//00 59015 87076;EQDQ01  00002PRCP99
0232655180999992000020306004+11150-001150FM-12+0322DFCP V0203601N002110780019N0100001N1+01701-00751101321ADDAA199000091GA1071+078009019GF107991001001999999001021IA2240+01609KA1120N+01681MA1999999097661MD1999999-0171REMSYN094AAXX  03064 65518 32960 73604 10170 21075 39766 40132 80002 333 01600 20168 51214 59017 87076;EQDQ01  00002PRCP99
0159655180999992000020309004+11150-001150FM-12+0322DFCP V0200801N005110780019N0100001N1+02181-00571101511ADDGA1071+078009019GF107991001001999999001021MA1999999097841MD1999999-0071REMSYN076AAXX  03094 65518 42960 70810 10218 21057 39784 40151 80002 333 59007 87076;
0195655180999992000020312004+11150-001150FM-12+0322DFCP V0200801N005110780019N0100001N1+02721-00871101381ADDAA199000091GA1071+078009019GF107991001001999999001021MA1999999097751MD1999999-0111REMSYN082AAXX  03124 65518 32960 70810 10272 21087 39775 40138 80002 333 0//00 59011 87076;EQDQ01  00002PRCP99
0187655180999992000020409004+11150-001150FM-12+0322DFCP V0200201N003110780019N0080001N1+02241-00561101481ADDAY121031AY221031GA1071+078009019GF107991001001999999001021MA1999999097821MD1999999-0021MW1061REMSYN082AAXX  04094 65518 41958 70206 10224 21056 39782 40148 70622 80002 333 59002 87076;
0208655180999992000020418004+11150-001150FM-12+0322DFCP V0200601N002110780019N0100001N1+02831-00441101121ADDAA199000091GA1071+078009019GF107991001001999999001021KA1120M+03081MA1999999097471MD1999999+0011REMSYN082AAXX  04184 65518 32960 70604 10283 21044 39747 40112 80002 333 10308 58001 87076;EQDQ01  00002PRCP99
0159655180999992000020715004+11150-001150FM-12+0322DFCP V0200801N003110780019N0150001N1+03191-00901101061ADDGA1071+078009019GF107991001001999999001021MA1999999097451MD1999999+0061REMSYN076AAXX  07154 65518 42965 70806 10319 21090 39745 40106 80002 333 58006 87076;
0110655180999992000020718004+11150-001150FM-12+0322DFCP V0200401N004119999999N0150001N1+02931-00751999999ADDAA199000091GF107991999999999999999999REMSYN042AAXX  07184 65518 32965 70408 10293 21075;EQDQ01  00002PRCP99
0195655180999992000020800004+11150-001150FM-12+0322DFCP V0200401N001010780019N0150001N1+02141-00531101381ADDAA199000091GA1071+078009019GF107991001001999999001021MA1999999097761MD1999999+0051REMSYN082AAXX  08004 65518 32965 70402 10214 21053 39776 40138 80002 333 0//00 58005 87076;EQDQ01  00002PRCP99
0232655180999992000020806004+11150-001150FM-12+0322DFCP V0200201N004110780019N0150001N1+01851-00521101371ADDAA199000091GA1071+078009019GF107991001001999999001021IA2240+01309KA1120N+01851MA1999999097731MD1999999+0121REMSYN094AAXX  08064 65518 32965 70208 10185 21052 39773 40137 80002 333 01300 20185 51164 58012 87076;EQDQ01  00002PRCP99
0154655180999992000020809004+11150-001150FM-12+0322DFCP V0200401N005119999999N0150001N1+02251-00391101521ADDAA124999999GF107991001001999999001021MA1999999097871MD1999999+0091REMSYN076AAXX  08094 65518 42965 70410 10225 21039 39787 40152 80002 333 58009 7076/;
0195655180999992000020900004+11150-001150FM-12+0322DFCP V0200401N002110780019N0150001N1+02181-00331101471ADDAA199000091GA1071+078009019GF107991001001999999001021MA1999999097831MD1999999+0071REMSYN082AAXX  09004 65518 32965 70404 10218 21033 39783 40147 80002 333 0//00 58007 87076;EQDQ01  00002PRCP99
0195655180999992000021000004+11150-001150FM-12+0322DFCP V0200201N002110780019N0150001N1+02141-00331101361ADDAA199000091GA1071+078009019GF107991001001999999001021MA1999999097761MD1999999-0101REMSYN082AAXX  10004 65518 32965 70204 10214 21033 39776 40136 80002 333 0//00 59010 87076;EQDQ01  00002PRCP99
0159655180999992000021003004+11150-001150FM-12+0322DFCP V0200401N003110780019N0150001N1+01901-00351101241ADDGA1071+078009019GF107991001001999999001021MA1999999097621MD1999999-0131REMSYN076AAXX  10034 65518 42965 70406 10190 21035 39762 40124 80002 333 59013 87076;
0232655180999992000021006004+11150-001150FM-12+0322DFCP V0200201N002110780019N0150001N1+01651-00211101211ADDAA199000091GA1071+078009019GF107991001001999999001021IA2240+01609KA1120N+01631MA1999999097561MD1999999-0181REMSYN094AAXX  10064 65518 32965 70204 10165 21021 39756 40121 80002 333 01600 20163 51084 59018 87076;EQDQ01  00002PRCP99
0159655180999992000021009004+11150-001150FM-12+0322DFCP V0200401N003112200019N0150001N1+02381-00591101291ADDGA1031+078009019GF103991001001999999001021MA1999999097641MD1999999-0191REMSYN076AAXX  10094 65518 42965 30406 10238 21059 39764 40129 80002 333 59019 83076;
0195655180999992000021012004+11150-001150FM-12+0322DFCP V0200401N004112200019N0150001N1+02901-00441101191ADDAA199000091GA1031+078009019GF103991001001999999001021MA1999999097571MD1999999-0131REMSYN082AAXX  10124 65518 32965 30408 10290 21044 39757 40119 80002 333 0//00 59013 83076;EQDQ01  00002PRCP99
0159655180999992000021015004+11150-001150FM-12+0322DFCP V0200201N003112200019N0150001N1+03131-00421100911ADDGA1031+078009019GF103991001001999999001021MA1999999097301MD1999999-0121REMSYN076AAXX  10154 65518 42965 30206 10313 21042 39730 40091 80002 333 59012 83076;
0208655180999992000021018004+11150-001150FM-12+0322DFCP V0200201N001010780019N0150001N1+02901-00551101011ADDAA199000091GA1051+078009019GF105991001001999999001021KA1120M+03131MA1999999097361MD1999999-0091REMSYN082AAXX  10184 65518 32965 50202 10290 21055 39736 40101 80002 333 10313 59009 85076;EQDQ01  00002PRCP99
0195655180999992000021100004+11150-001150FM-12+0322DFCP V0209999C000010780019N0150001N1+02011-00241101261ADDAA199000091GA1051+078009019GF105991001001999999001021MA1999999097631MD1999999-0101REMSYN082AAXX  11004 65518 32965 50000 10201 21024 39763 40126 80002 333 0//00 59010 85076;EQDQ01  00002PRCP99
0232655180999992000021106004+11150-001150FM-12+0322DFCP V0200201N001010780019N0100001N1+01651-00421101231ADDAA199000091GA1051+078009019GF105991001001999999001021IA2240+01409KA1120N+01651MA1999999097581MD1999999+0021REMSYN094AAXX  11064 65518 32960 50202 10165 21042 39758 40123 80002 333 01400 20165 51064 58002 85076;EQDQ01  00002PRCP99
0159655180999992000021109004+11150-001150FM-12+0322DFCP V0200401N004110780019N0150001N1+02301-00611101361ADDGA1051+078009019GF105991001001999999001021MA1999999097721MD1999999+0081REMSYN076AAXX  11094 65518 42965 50408 10230 21061 39772 40136 80002 333 58008 85076;
0195655180999992000021112004+11150-001150FM-12+0322DFCP V0200801N005110780019N0150001N1+02971-01021101231ADDAA199000091GA1051+078009019GF105991001001999999001021MA1999999097611MD1999999+0041REMSYN082AAXX  11124 65518 32965 50810 10297 21102 39761 40123 80002 333 0//00 58004 85076;EQDQ01  00002PRCP99
0159655180999992000021115004+11150-001150FM-12+0322DFCP V0203601N003110780019N0150001N1+03181-00421100911ADDGA1051+078009019GF105991001001999999001021MA1999999097301MD1999999+0001REMSYN076AAXX  11154 65518 42965 53606 10318 21042 39730 40091 80002 333 58000 85076;
0208655180999992000021118004+11150-001150FM-12+0322DFCP V0200401N002110780019N0150001N1+02911-00701100961ADDAA199000091GA1051+078009019GF105991001001999999001021KA1120M+03191MA1999999097321MD1999999-0041REMSYN082AAXX  11184 65518 32965 50404 10291 21070 39732 40096 80002 333 10319 59004 85076;EQDQ01  00002PRCP99
0195655180999992000021200004+11150-001150FM-12+0322DFCP V0200201N002110780019N0150001N1+02161-00521101221ADDAA199000091GA1071+078009019GF107991001001999999001021MA1999999097601MD1999999-0031REMSYN082AAXX  12004 65518 32965 70204 10216 21052 39760 40122 80002 333 0//00 59003 87076;EQDQ01  00002PRCP99
0159655180999992000021209004+11150-001150FM-12+0322DFCP V0200401N002110780019N0150001N1+02261-00791101271ADDGA1071+078009019GF107991001001999999001021MA1999999097631MD1999999-0091REMSYN076AAXX  12094 65518 42965 70404 10226 21079 39763 40127 80002 333 59009 87076;
0195655180999992000021212004+11150-001150FM-12+0322DFCP V0200801N004110780019N0150001N1+02931-00751101161ADDAA199000091GA1071+078009019GF107991001001999999001021MA1999999097541MD1999999-0071REMSYN082AAXX  12124 65518 32965 70808 10293 21075 39754 40116 80002 333 0//00 59007 87076;EQDQ01  00002PRCP99
0159655180999992000021215004+11150-001150FM-12+0322DFCP V0200801N002110780019N0150001N1+03141-00441100881ADDGA1071+078009019GF107991001001999999001021MA1999999097271MD1999999-0271REMSYN076AAXX  12154 65518 42965 70804 10314 21044 39727 40088 80002 333 59027 87076;
0224655180999992000021218004+11150-001150FM-12+0322DFCP V0209999C000010780019N0150001N1+02901-00381100951ADDAA199000091GA1071+078009019GF107991001999999999001021KA1120M+03151MA1999999097301MD1999999-0021REMSYN082AAXX  12184 65518 32965 70000 10290 21038 39730 40095 80802 333 10315 59002 87076;EQDQ01+000082SCOLCGQ02  00002PRCP99
0159655180999992000021221004+11150-001150FM-12+0322DFCP V0209999C000010780019N0150001N1+02371-00141101171ADDGA1071+078009019GF107991001001999999001021MA1999999097521MD1999999-0011REMSYN076AAXX  12214 65518 42965 70000 10237 21014 39752 40117 80002 333 59001 87076;
0195655180999992000021300004+11150-001150FM-12+0322DFCP V0200401N001010780019N0150001N1+02201-00521101151ADDAA199000091GA1071+078009019GF107991001001999999001021MA1999999097531MD1999999-0071REMSYN082AAXX  13004 65518 32965 70402 10220 21052 39753 40115 80002 333 0//00 59007 87076;EQDQ01  00002PRCP99
0232655180999992000021306004+11150-001150FM-12+0322DFCP V0209999C000010780019N0150001N1+01761-00451101111ADDAA199000091GA1071+078009019GF107991001001999999001021IA2240+01409KA1120N+01671MA1999999097481MD1999999-0051REMSYN094AAXX  13064 65518 32965 70000 10176 21045 39748 40111 80002 333 01400 20167 51234 59005 87076;EQDQ01  00002PRCP99
0159655180999992000021309004+11150-001150FM-12+0322DFCP V0200801N003110780019N0150001N1+02341-00551101281ADDGA1051+078009019GF105991001001999999001021MA1999999097641MD1999999+0011REMSYN076AAXX  13094 65518 42965 50806 10234 21055 39764 40128 80002 333 58001 85076;
0195655180999992000021312004+11150-001150FM-12+0322DFCP V0200401N004110780019N0150001N1+02921-00791101161ADDAA199000091GA1051+078009019GF105991001001999999001021MA1999999097541MD1999999+0001REMSYN082AAXX  13124 65518 32965 50408 10292 21079 39754 40116 80002 333 0//00 58000 85076;EQDQ01  00002PRCP99
0208655180999992000021318004+11150-001150FM-12+0322DFCP V0200401N002110780019N0150001N1+02971-00621100921ADDAA199000091GA1071+078009019GF107991001001999999001021KA1120M+03231MA1999999097291MD1999999-0011REMSYN082AAXX  13184 65518 32965 70404 10297 21062 39729 40092 80002 333 10323 59001 87076;EQDQ01  00002PRCP99
0159655180999992000021409004+11150-001150FM-12+0322DFCP V0200801N004110780019N0150001N1+02341-01381101291ADDGA1071+078009019GF107991001001999999001021MA1999999097651MD1999999+0011REMSYN076AAXX  14094 65518 42965 70808 10234 21138 39765 40129 80002 333 58001 87076;
0195655180999992000021412004+11150-001150FM-12+0322DFCP V0200401N004110780019N0150001N1+02921-01171101291ADDAA199000091GA1071+078009019GF107991001001999999001021MA1999999097581MD1999999+0041REMSYN082AAXX  14124 65518 32965 70408 10292 21117 39758 40129 80002 333 0//00 58004 87076;EQDQ01  00002PRCP99
0194655180999992000021415004+11150-001150FM-12+0322DFCP V0200601N004110780019N0150001N1+03191-01671999999ADDGA1071+078009029GF107991001001999999001021MA1999999097281MD1999999+0011REMSYN076AAXX  14154 65518 42965 70608 10319 21167 39728 4088/ 80002 333 58001 87576;EQDQ01+108803APOSLPQ02 108803APOSLP
0224655180999992000021418004+11150-001150FM-12+0322DFCP V0200401N003110780019N0150001N1+02981-01231100902ADDAA199000091GA1071+078009019GF107991001001999999001021KA1120M+03241MA1999999097291MD1999999+0001REMSYN082AAXX  14184 65518 32965 70406 10298 21123 39729 40090 80002 333 10324 58000 87076;EQDQ01+100903APOSLPQ02  00002PRCP99
0195655180999992000021500004+11150-001150FM-12+0322DFCP V0203601N002110780019N0150001N1+02201-00931101201ADDAA199000091GA1071+078009019GF107991001001999999001021MA1999999097581MD1999999+0021REMSYN082AAXX  15004 65518 32965 73604 10220 21093 39758 40120 80002 333 0//00 58002 87076;EQDQ01  00002PRCP99
0232655180999992000021506004+11150-001150FM-12+0322DFCP V0203601N002110780019N0150001N1+01801-00931101121ADDAA199000091GA1071+078009019GF107991001001999999001021IA2240+01709KA1120N+01801MA1999999097491MD1999999+0001REMSYN094AAXX  15064 65518 32965 73604 10180 21093 39749 40112 80002 333 01700 20180 51034 58000 87076;EQDQ01  00002PRCP99
0159655180999992000021509004+11150-001150FM-12+0322DFCP V0200201N003110780019N0150001N1+02471-00911101221ADDGA1071+078009019GF107991001001999999001021MA1999999097591MD1999999-0061REMSYN076AAXX  15094 65518 42965 70206 10247 21091 39759 40122 80002 333 59006 87076;
0208655180999992000021518004+11150-001150FM-12+0322DFCP V0209999C000010780019N0150001N1+03141-00751100831ADDAA199000091GA1071+078009019GF107991001001999999001021KA1120M+03371MA1999999097211MD1999999-0081REMSYN082AAXX  15184 65518 32965 70000 10314 21075 39721 40083 80002 333 10337 59008 87076;EQDQ01  00002PRCP99
0195655180999992000021600004+11150-001150FM-12+0322DFCP V0200401N001010780019N0150001N1+02341-00721101091ADDAA199000091GA1051+078009019GF105991001001999999001021MA1999999097491MD1999999-0091REMSYN082AAXX  16004 65518 32965 50402 10234 21072 39749 40109 80002 333 0//00 59009 85076;EQDQ01  00002PRCP99
0159655180999992000021603004+11150-001150FM-12+0322DFCP V0209999C000010780019N0150001N1+02061-00531101011ADDGA1051+078009019GF105991001001999999001021MA1999999097421MD1999999-0101REMSYN076AAXX  16034 65518 42965 50000 10206 21053 39742 40101 80002 333 59010 85076;
0232655180999992000021606004+11150-001150FM-12+0322DFCP V0200201N002110780019N0150001N1+01901-00651101101ADDAA199000091GA1071+078009019GF107991001001999999001021IA2240+01509KA1120N+01891MA1999999097481MD1999999-0011REMSYN094AAXX  16064 65518 32965 70204 10190 21065 39748 40110 80002 333 01500 20189 51304 59001 87076;EQDQ01  00002PRCP99
0195655180999992000021612004+11150-001150FM-12+0322DFCP V0200801N005112200019N0150001N1+03071-01321101181ADDAA199000091GA1031+078009019GF103991001001999999001021MA1999999097581MD1999999-0071REMSYN082AAXX  16124 65518 32965 30810 10307 21132 39758 40118 80002 333 0//00 59007 83076;EQDQ01  00002PRCP99
0159655180999992000021615004+11150-001150FM-12+0322DFCP V0200801N002112200019N0150001N1+03351-00531100851ADDGA1031+078009019GF103991001001999999001021MA1999999097261MD1999999+0041REMSYN076AAXX  16154 65518 42965 30804 10335 21053 39726 40085 80002 333 58004 83076;
0189655180999992000021618004+11150-001150FM-12+0322DFCP V0209999C000010780019N0150001N1+03101-00521100901ADDAA199000091GA1051+078009019GF105991001001999999001021MA1999999097291MD1999999+0081REMSYN076AAXX  16184 65518 32965 50000 10310 21052 39729 40090 80002 333 58008 85076;EQDQ01  00002PRCP99
0153655180999992000021621004+11150-001150FM-12+0322DFCP V0200401N001010780019N0150001N1+02521-00131101281ADDGA1071+078009019GF107991999999999999999999MA1999999097811MD1999999+0071REMSYN070AAXX  16214 65518 42965 70402 10252 21013 39781 40128 333 58007 87076;
0232655180999992000021706004+11150-001150FM-12+0322DFCP V0200201N001010780019N0150001N1+01951-00911101051ADDAA199000091GA1071+078009019GF107991001001999999001021IA2240+01609KA1120N+01951MA1999999097441MD1999999-0041REMSYN094AAXX  17064 65518 32965 70202 10195 21091 39744 40105 80002 333 01600 20195 51154 59004 87076;EQDQ01  00002PRCP99
0113655180999992000021709004+11150-001150FM-12+0322DFCP V0200401N005119999999N0100001N1+02551-01371101211ADDGF107991001001999999001021MA1999999097501REMSYN060AAXX  17094 65518 42960 70410 10255 21137 39750 40121 80002;
0208655180999992000021718004+11150-001150FM-12+0322DFCP V0209999C000010108019N0150001N1+03141-00751100901ADDAA199000091GA1071+010809019GF107991001001999999001021KA1120M+03401MA1999999097291MD1999999+0001REMSYN082AAXX  17184 65518 32965 70000 10314 21075 39729 40090 80002 333 10340 58000 87036;EQDQ01  00002PRCP99
0195655180999992000021800004+11150-001150FM-12+0322DFCP V0209999C000010780019N0150001N1+02321-00661101111ADDAA199000091GA1071+078009019GF107991001001999999001021MA1999999097521MD1999999-0031REMSYN082AAXX  18004 65518 32965 70000 10232 21066 39752 40111 80002 333 0//00 59003 87076;EQDQ01  00002PRCP99
0159655180999992000021809004+11150-001150FM-12+0322DFCP V0200401N003110780019N0150001N1+02601-00841101161ADDGA1071+078009019GF107991001001999999001021MA1999999097541MD1999999-0051REMSYN076AAXX  18094 65518 42965 70406 10260 21084 39754 40116 80002 333 59005 87076;
0208655180999992000021818004+11150-001150FM-12+0322DFCP V0209999C000010780019N0150001N1+03201-00471100871ADDAA199000091GA1071+078009019GF107991001001999999001021KA1120M+03451MA1999999097261MD1999999-0031REMSYN082AAXX  18184 65518 32965 70000 10320 21047 39726 40087 80002 333 10345 59003 87076;EQDQ01  00002PRCP99
0232655180999992000021906004+11150-001150FM-12+0322DFCP V0200401N002110780019N0150001N1+02071-00561101051ADDAA199000091GA1071+078009019GF107991001001999999001021IA2240+01509KA1120N+02041MA1999999097461MD1999999+0081REMSYN094AAXX  19064 65518 32965 70404 10207 21056 39746 40105 80002 333 01500 20204 51034 58008 87076;EQDQ01  00002PRCP99
0145655180999992000021909004+11150-001150FM-12+0322DFCP V0200401N003112200019N0150001N1+02601-00841101241ADDGA1031+078009019GF103991001001999999001021MA1999999097621REMSYN076AAXX  19094 65518 42965 30406 10260 21084 39762 40124 80002 333 57008 83076;
0195655180999992000021912004+11150-001150FM-12+0322DFCP V0200601N004112200019N0150001N1+03251-00941101091ADDAA199000091GA1031+078009019GF103991001001999999001021MA1999999097511MD1999999+0041REMSYN082AAXX  19124 65518 32965 30608 10325 21094 39751 40109 80002 333 0//00 58004 83076;EQDQ01  00002PRCP99
0159655180999992000021915004+11150-001150FM-12+0322DFCP V0209999C000012200019N0150001N1+03501-00661100761ADDGA1031+078009019GF103991001001999999001021MA1999999097191MD1999999-0041REMSYN076AAXX  19154 65518 42965 30000 10350 21066 39719 40076 80002 333 59004 83076;
0208655180999992000021918004+11150-001150FM-12+0322DFCP V0209999C000010780019N0150001N1+03251-00411100771ADDAA199000091GA1051+078009019GF105991001001999999001021KA1120M+03551MA1999999097181MD1999999-0081REMSYN082AAXX  19184 65518 32965 50000 10325 21041 39718 40077 80002 333 10355 59008 85076;EQDQ01  00002PRCP99
0195655180999992000022000004+11150-001150FM-12+0322DFCP V0209999C000010780019N0150001N1+02491-00291101011ADDAA199000091GA1051+078009019GF105991001001999999001021MA1999999097431MD1999999-0111REMSYN082AAXX  20004 65518 32965 50000 10249 21029 39743 40101 80002 333 0//00 59011 85076;EQDQ01  00002PRCP99
0232655180999992000022006004+11150-001150FM-12+0322DFCP V0209999C000010780019N0150001N1+01981-00181100911ADDAA199000091GA1051+078009019GF105991001001999999001021IA2240+01709KA1120N+01981MA1999999097311MD1999999-0141REMSYN094AAXX  20064 65518 32965 50000 10198 21018 39731 40091 80002 333 01700 20198 51034 59014 85076;EQDQ01  00002PRCP99
0178655180999992000022009004+11150-001150FM-12+0322DFCP V0200401N002110780019N0150001N1+02701-00511999999ADDGA1071+078009019GF107991001001999999001021MA1999999097491MD1999999-0131REMSYN076AAXX  20094 65518 42965 70404 10270 21051 39749 40189 80002 333 59013 87076;EQDQ01+101893APOSLP
0195655180999992000022012004+11150-001150FM-12+0322DFCP V0200401N004110780019N0150001N1+03441-00571100981ADDAA199000091GA1071+078009019GF107991001001999999001021MA1999999097411MD1999999-0101REMSYN082AAXX  20124 65518 32965 70408 10344 21057 39741 40098 80002 333 0//00 59010 87076;EQDQ01  00002PRCP99
0159655180999992000022015004+11150-001150FM-12+0322DFCP V0200801N001010780019N0150001N1+03691-00261100661ADDGA1071+078009019GF107991001001999999001021MA1999999097111MD1999999-0081REMSYN076AAXX  20154 65518 42965 70802 10369 21026 39711 40066 80002 333 59008 87076;
0208655180999992000022018004+11150-001150FM-12+0322DFCP V0209999C000010780019N0150001N1+03401-00201100701ADDAA199000091GA1071+078009019GF107991001001999999001021KA1120M+03691MA1999999097121MD1999999-0061REMSYN082AAXX  20184 65518 32965 70000 10340 21020 39712 40070 80002 333 10369 59006 87076;EQDQ01  00002PRCP99
0195655180999992000022100004+11150-001150FM-12+0322DFCP V0200201N001010780019N9999999N1+02601-00491100941ADDAA199000091GA1071+078009019GF107991001001999999001021MA1999999097391MD1999999-0041REMSYN082AAXX  21004 65518 3296/ 70202 10260 21049 39739 40094 80002 333 0//00 59004 87076;EQDQ01  00002PRCP99
0232655180999992000022106004+11150-001150FM-12+0322DFCP V0203601N001010780019N0150001N1+02021-00261100911ADDAA199000091GA1071+078009019GF107991001001999999001021IA2240+01809KA1120N+02011MA1999999097321MD1999999+0011REMSYN094AAXX  21064 65518 32965 73602 10202 21026 39732 40091 80002 333 01800 20201 51044 58001 87076;EQDQ01  00002PRCP99
0159655180999992000022109004+11150-001150FM-12+0322DFCP V0200801N003112200019N0150001N1+02861-00821101061ADDGA1031+078009019GF103991001001999999001021MA1999999097491MD1999999+0001REMSYN076AAXX  21094 65518 42965 30806 10286 21082 39749 40106 80002 333 58000 83076;
0159655180999992000022115004+11150-001150FM-12+0322DFCP V0200801N002110780019N0150001N1+03651-00131100711ADDGA1051+078009019GF105991001001999999001021MA1999999097151MD1999999+0041REMSYN076AAXX  21154 65518 42965 50804 10365 21013 39715 40071 80002 333 58004 85076;
0208655180999992000022118004+11150-001150FM-12+0322DFCP V0209999C000010780019N0150001N1+03401+00501100761ADDAA199000091GA1071+078009019GF107991001001999999001021KA1120M+03701MA1999999097171MD1999999+0051REMSYN082AAXX  21184 65518 32965 70000 10340 20050 39717 40076 80002 333 10370 58005 87076;EQDQ01  00002PRCP99
0195655180999992000022200004+11150-001150FM-12+0322DFCP V0209999C000010780019N0150001N1+02481+00441101041ADDAA199000091GA1071+078009019GF107991001001999999001021MA1999999097481MD1999999+0091REMSYN082AAXX  22004 65518 32965 70000 10248 20044 39748 40104 80002 333 0//00 58009 87076;EQDQ01  00002PRCP99
0232655180999992000022206004+11150-001150FM-12+0322DFCP V0209999C000010780019N0150001N1+02231+00281100931ADDAA199000091GA1071+078009019GF107991001001999999001021IA2240+01709KA1120N+02201MA1999999097351MD1999999+0031REMSYN094AAXX  22064 65518 32965 70000 10223 20028 39735 40093 80002 333 01700 20220 50974 58003 87076;EQDQ01  00002PRCP99
0195655180999992000022212004+11150-001150FM-12+0322DFCP V0200801N002110780019N0100001N1+03821-00391101011ADDAA199000091GA1071+078009019GF107991001001999999001011MA1999999097461MD1999999+0811REMSYN082AAXX  22124 65518 32960 70804 10382 21039 39746 40101 80001 333 0//0/ 58081 87076;EQDQ01  00002PRCP99
0208655180999992000022218004+11150-001150FM-12+0322DFCP V0209999C000010780019N0100001N1+03601+00841100661ADDAA199000091GA1071+078009019GF107991001001999999001021KA1120M+03871MA1999999097101MD1999999-0071REMSYN082AAXX  22184 65518 32960 70000 10360 20084 39710 40066 80002 333 10387 59007 87076;EQDQ01  00002PRCP99
0159655180999992000022306004+11150-001150FM-12+0322DFCP V0200801N003110780019N0150001N1+02951-00101101001ADDGA1071+078009019GF107991001001999999001021MA1999999097441MD1999999-0101REMSYN076AAXX  23064 65518 42965 70806 10295 21010 39744 40100 80002 333 59010 87076;
0195655180999992000022312004+11150-001150FM-12+0322DFCP V0200801N005110780019N0150001N1+03621-00121100841ADDAA199000091GA1071+078009019GF107991001001999999001021MA1999999097301MD1999999-0161REMSYN082AAXX  23124 65518 32965 70810 10362 21012 39730 40084 80002 333 0//00 59016 87076;EQDQ01  00002PRCP99
0159655180999992000022315004+11150-001150FM-12+0322DFCP V0200801N002110780019N0150001N1+03861-00021100491ADDGA1071+078009019GF107991001001999999001021MA1999999096971MD1999999-0131REMSYN076AAXX  23154 65518 42965 70804 10386 21002 39697 40049 80002 333 59013 87076;
0208655180999992000022318004+11150-001150FM-12+0322DFCP V0209999C000010780019N0150001N1+03551+00481100541ADDAA199000091GA1071+078009019GF107991001001999999001021KA1120M+03901MA1999999096991MD1999999-0111REMSYN082AAXX  23184 65518 32965 70000 10355 20048 39699 40054 80002 333 10390 59011 87076;EQDQ01  00002PRCP99
0159655180999992000022321004+11150-001150FM-12+0322DFCP V0209999C000010780019N0150001N1+02961+00431100741ADDGA1071+078009019GF107991001001999999001021MA1999999097191MD1999999-0081REMSYN076AAXX  23214 65518 42965 70000 10296 20043 39719 40074 80002 333 59008 87076;
0195655180999992000022400004+11150-001150FM-12+0322DFCP V0209999C000010780019N0150001N1+02731+00301100771ADDAA199000091GA1071+078009019GF107991001001999999001021MA1999999097231MD1999999-0101REMSYN082AAXX  24004 65518 32965 70000 10273 20030 39723 40077 80002 333 0//00 59010 87076;EQDQ01  00002PRCP99
0159655180999992000022409004+11150-001150FM-12+0322DFCP V0200801N003110780019N0150001N1+02921-00371101001ADDGA1051+078009019GF105991001001999999001021MA1999999097441MD1999999+0001REMSYN076AAXX  24094 65518 42965 50806 10292 21037 39744 40100 80002 333 58000 85076;
0159655180999992000022415004+11150-001150FM-12+0322DFCP V0200601N002110780019N0150001N1+03751+00031100521ADDGA1051+078009019GF105991001001999999001021MA1999999097001MD1999999+0031REMSYN076AAXX  24154 65518 42965 50604 10375 20003 39700 40052 80002 333 58003 85076;
0208655180999992000022418004+11150-001150FM-12+0322DFCP V0200601N002110780019N0150001N1+03501-00411100571ADDAA199000091GA1071+078009019GF107991001001999999001021KA1120M+03801MA1999999097031MD1999999+0041REMSYN082AAXX  24184 65518 32965 70604 10350 21041 39703 40057 80002 333 10380 58004 87076;EQDQ01  00002PRCP99
0195655180999992000022500004+11150-001150FM-12+0322DFCP V0209999C000010780019N0150001N1+02631+00091100811ADDAA199000091GA1071+078009019GF107991001001999999001021MA1999999097271MD1999999+0041REMSYN082AAXX  25004 65518 31965 70000 10263 20009 39727 40081 80002 333 0//00 58004 87076;EQDQ01  00002PRCP99
0232655180999992000022506004+11150-001150FM-12+0322DFCP V0209999C000010780019N0150001N1+02151+00131100731ADDAA199000091GA1071+078009019GF107991001001999999001021IA2240+01909KA1120N+02151MA1999999097171MD1999999+0071REMSYN094AAXX  25064 65518 32965 70000 10215 20013 39717 40073 80002 333 01900 20215 51014 58007 87076;EQDQ01  00002PRCP99
0159655180999992000022509004+11150-001150FM-12+0322DFCP V0200801N002110780019N0150001N1+02941-00371101001ADDGA1051+078009019GF105991001001999999001021MA1999999097431MD1999999-0011REMSYN076AAXX  25094 65518 42965 50804 10294 21037 39743 40100 80002 333 59001 85076;
0195655180999992000022512004+11150-001150FM-12+0322DFCP V0200801N004110780019N0150001N1+03631-00971100811ADDAA199000091GA1071+078009019GF107991001001999999001021MA1999999097271MD1999999-0021REMSYN082AAXX  25124 65518 32965 70808 10363 21097 39727 40081 80002 333 0//00 59002 87076;EQDQ01  00002PRCP99
0159655180999992000022515004+11150-001150FM-12+0322DFCP V0200801N002110780019N0150001N1+03881-00571100561ADDGA1071+078009019GF107991001001999999001021MA1999999097031MD1999999+0031REMSYN076AAXX  25154 65518 42965 70804 10388 21057 39703 40056 80002 333 58003 87076;
0208655180999992000022518004+11150-001150FM-12+0322DFCP V0200601N002110780019N0150001N1+03571-00451100621ADDAA199000091GA1071+078009019GF107991001001999999001021KA1120M+03901MA1999999097061MD1999999+0031REMSYN082AAXX  25184 65518 32965 70604 10357 21045 39706 40062 80002 333 10390 58003 87076;EQDQ01  00002PRCP99
0195655180999992000022600004+11150-001150FM-12+0322DFCP V0209999C000010780019N0150001N1+02601-00061100861ADDAA199000091GA1071+078009019GF107991001001999999001021MA1999999097321MD1999999+0051REMSYN082AAXX  26004 65518 32965 70000 10260 21006 39732 40086 80002 333 0//00 58005 87076;EQDQ01  00002PRCP99
0159655180999992000022609004+11150-001150FM-12+0322DFCP V0200801N007210780019N0150001N1+02901-00611101061ADDGA1051+078009019GF105991001001999999001021MA1999999097491MD1999999+0061REMSYN076AAXX  26094 65518 42965 50814 10290 21061 39749 40106 80002 333 58006 85076;
0195655180999992000022612004+11150-001150FM-12+0322DFCP V0200801N005110780019N0100001N1+03381-00741101051ADDAA199000091GA1051+078009019GF105991001001999999001021MA1999999097491MD1999999+0221REMSYN082AAXX  26124 65518 32960 50810 10338 21074 39749 40105 80002 333 0//00 58022 85076;EQDQ01  00002PRCP99
0143655180999992000022615004+11150-001150FM-12+0322DFCP V0209999C000019999999N0150001N1+03581-00741100761ADDGF105991001001999999001021MA1999999097201MD1999999+0171REMSYN076AAXX  26154 65518 42965 50000 10358 21074 39720 40076 80002 333 58017 8506/;
0208655180999992000022618004+11150-001150FM-12+0322DFCP V0200601N002110780019N0100001N1+03351-00661100791ADDAA199000091GA1071+078009019GF107991001001999999001021KA1120M+03651MA1999999097211MD1999999+0151REMSYN082AAXX  26184 65518 32960 70604 10335 21066 39721 40079 80002 333 10365 58015 87076;EQDQ01  00002PRCP99
0195655180999992000022700004+11150-001150FM-12+0322DFCP V0200401N003110780019N0100001N1+02701-00251100971ADDAA199000091GA1071+078009019GF107991001001999999001021MA1999999097421MD1999999+0101REMSYN082AAXX  27004 65518 32960 70406 10270 21025 39742 40097 80002 333 0//00 58010 87076;EQDQ01  00002PRCP99
0159655180999992000022703004+11150-001150FM-12+0322DFCP V0200401N002110780019N0100001N1+02531-00381100891ADDGA1071+078009019GF107991001001999999001021MA1999999097341MD1999999+0111REMSYN076AAXX  27034 65518 42960 70404 10253 21038 39734 40089 80002 333 58011 87076;
0260655180999992000022706004+11150-001150FM-12+0322DFCP V0200801N002110780019N0060001N1+02271-00291100941ADDAA199000091AY121061AY221061GA1071+078009019GF107991001001999999001021IA2240+01709KA1120N+02271MA1999999097371MD1999999+0111MW1061REMSYN100AAXX  27064 65518 31956 70804 10227 21029 39737 40094 70622 80002 333 01700 20227 51604 58011 87076;EQDQ01  00002PRCP99
0187655180999992000022709004+11150-001150FM-12+0322DFCP V0200801N005110780019N0040001N1+02531-00641101141ADDAY121031AY221031GA1071+078009019GF107991001001999999001021MA1999999097541MD1999999+0051MW1061REMSYN082AAXX  27094 65518 41940 70810 10253 21064 39754 40114 70622 80002 333 58005 87076;
0223655180999992000022712004+11150-001150FM-12+0322DFCP V0200401N006210780019N0040001N1+03081-00711101061ADDAA199000091AY121061AY221061GA1071+078009019GF107991001001999999001021MA1999999097491MD1999999+0001MW1061REMSYN088AAXX  27124 65518 31940 70412 10308 21071 39749 40106 70622 80002 333 0//00 58000 87076;EQDQ01  00002PRCP99
0187655180999992000022715004+11150-001150FM-12+0322DFCP V0200801N003110780019N0040001N1+03311-00681100761ADDAY121031AY221031GA1071+078009019GF107991001001999999001021MA1999999097201MD1999999+0001MW1061REMSYN082AAXX  27154 65518 41940 70806 10331 21068 39720 40076 70622 80002 333 58000 87076;
0236655180999992000022718004+11150-001150FM-12+0322DFCP V0200401N002110780019N0040001N1+03051-00691100831ADDAA199000091AY121061AY221061GA1071+078009019GF107991001001999999001021KA1120M+03331MA1999999097241MD1999999+0031MW1061REMSYN088AAXX  27184 65518 31940 70404 10305 21069 39724 40083 70622 80002 333 10333 58003 87076;EQDQ01  00002PRCP99
0187655180999992000022809004+11150-001150FM-12+0322DFCP V0200601N006210780019N0004001N1+02351-00231101151ADDAY141031AY221031GA1071+078009019GF107991001001999999001021MA1999999097531MD1999999-0011MW1061REMSYN082AAXX  28094 65518 41904 70612 10235 21023 39753 40115 70642 80002 333 59001 87076;
0223655180999992000022812004+11150-001150FM-12+0322DFCP V0200401N004110780019N0004001N1+02901-00091101061ADDAA199000091AY141061AY221061GA1071+078009019GF107991001001999999001021MA1999999097471MD1999999-0021MW1061REMSYN088AAXX  28124 65518 31904 70408 10290 21009 39747 40106 70642 80002 333 0//00 59002 87076;EQDQ01  00002PRCP99
0187655180999992000022815004+11150-001150FM-12+0322DFCP V0200801N002110780019N0004001N1+03221+00301100801ADDAY141031AY241031GA1071+078009019GF107991001001999999001021MA1999999097211MD1999999+0011MW1061REMSYN082AAXX  28154 65518 41904 70804 10322 2003/ 39721 40080 70644 80002 333 58001 87076;
0236655180999992000022818004+11150-001150FM-12+0322DFCP V0209999C000010780019N0004001N1+03051+00071100871ADDAA199000091AY141061AY241061GA1071+078009019GF107991001001999999001021KA1120M+03221MA1999999097271MD1999999+0031MW1061REMSYN088AAXX  28184 65518 31904 70000 10305 20007 39727 40087 70644 80002 333 10322 58003 87076;EQDQ01  00002PRCP99
0187655180999992000022909004+11150-001150FM-12+0322DFCP V0200601N004110780019N0004001N1+02451-00661101331ADDAY141031AY241031GA1071+078009019GF107991001001999999001021MA1999999097711MD1999999+0181MW1061REMSYN082AAXX  29094 65518 41904 70608 10245 21066 39771 40133 70644 80002 333 58018 87076;
0187655180999992000022915004+11150-001150FM-12+0322DFCP V0209999C000010780019N0003001N1+03351+00201100921ADDAY121031AY221031GA1071+078009019GF107991001001999999001021MA1999999097341MD1999999+0131MW1061REMSYN082AAXX  29154 65518 41903 70000 10335 20020 39734 40092 70622 80002 333 58013 87076;
0236655180999992000022918004+11150-001150FM-12+0322DFCP V0209999C000010780019N0003001N1+03181+00151100951ADDAA199000091AY121061AY221061GA1071+078009019GF107991001001999999001021KA1120M+03371MA1999999097361MD1999999+0091MW1061REMSYN088AAXX  29184 65518 31903 70000 10318 20015 39736 40095 70622 80002 333 10337 58009 87076;EQDQ01  00002PRCP99
0217655180999992000030109004+11150-001150FM-12+0322DFCP V0200601N004110780019N0003001N1+02561-00201101321ADDAA199000091AY141031AY241031GA1071+078009019GF107991001001999999001021MA1999999097721MD1999999+0011MW1061REMSYN082AAXX  01094 65518 31903 70608 10256 21020 39772 40132 70644 80002 333 58001 87076;EQDQ01  00002PRCP99
0223655180999992000030112004+11150-001150FM-12+0322DFCP V0200801N001010780019N0006001N1+03161+00011101181ADDAA199000091AY141061AY241061GA1071+078009019GF107991001001999999001021MA1999999097601MD1999999-0061MW1061REMSYN088AAXX  01124 65518 31906 70802 10316 20001 39760 40118 70644 80002 333 0//00 59006 87076;EQDQ01  00002PRCP99
0236655180999992000030118004+11150-001150FM-12+0322DFCP V0200401N001010780019N0012001N1+03251-00061100861ADDAA199000091AY121061AY221061GA1071+078009019GF107991001001999999001021KA1120M+03471MA1999999097281MD1999999-0081MW1061REMSYN088AAXX  01184 65518 31912 70402 10325 21006 39728 40086 70622 80002 333 10347 59008 87076;EQDQ01  00002PRCP99
0223655180999992000030200004+11150-001150FM-12+0322DFCP V0209999C000010780019N0040001N1+02571+00111101191ADDAA199000091AY121061AY221061GA1071+078009019GF107991001001999999001021MA1999999097581MD1999999-0091MW1061REMSYN088AAXX  02004 65518 31940 70000 10257 20011 39758 40119 70622 80002 333 0//00 59009 87076;EQDQ01  00002PRCP99
0261655180999992000030206004+11150-001150FM-12+0322DFCP V0209999C000019999999N0040001N1+02231-00341101031ADDAA199000091AY121061AY221061GF107991001001999999001021IA2240+02109KA1120N+02211MA1999999097441MD1999999-0131MW1061OA150600151REMSYN106AAXX  02064 65518 31940 70000 10223 21034 39744 40103 70622 80002 333 02100 20221 51004 55036 59013 87076;EQDQ01  00002PRCP99
0187655180999992000030209004+11150-001150FM-12+0322DFCP V0200401N004110780019N0040001N1+02721-00401101191ADDAY121031AY221031GA1071+078009019GF107991001001999999001021MA1999999097591MD1999999-0131MW1061REMSYN082AAXX  02094 65518 41940 70408 10272 21040 39759 40119 70622 80002 333 59013 87076;
0223655180999992000030212004+11150-001150FM-12+0322DFCP V0200801N004110780019N0040001N1+03311-00551101031ADDAA199000091AY121061AY221061GA1071+078009019GF107991001001999999001021MA1999999097471MD1999999-0131MW1061REMSYN088AAXX  02124 65518 31940 70808 10331 21055 39747 40103 70622 80002 333 0//00 59013 87076;EQDQ01  00002PRCP99
0187655180999992000030215004+11150-001150FM-12+0322DFCP V0200601N004110780019N0040001N1+03611-00101100661ADDAY121031AY221031GA1071+078009019GF107991001001999999001021MA1999999097101MD1999999-0191MW1061REMSYN082AAXX  02154 65518 41940 70608 10361 21010 39710 40066 70622 80002 333 59019 87076;
0236655180999992000030218004+11150-001150FM-12+0322DFCP V0200801N002110780019N0040001N1+03351-00661100731ADDAA199000091AY121061AY221061GA1071+078009019GF107991001001999999001021KA1120M+03611MA1999999097161MD1999999-0121MW1061REMSYN088AAXX  02184 65518 31940 70804 10335 21066 39716 40073 70622 80002 333 10361 59012 87076;EQDQ01  00002PRCP99
0223655180999992000030300004+11150-001150FM-12+0322DFCP V0209999C000010780019N0060001N1+02581+00051100971ADDAA199000091AY121061AY221061GA1071+078009019GF107991001001999999001021MA1999999097411MD1999999-0171MW1061REMSYN088AAXX  03004 65518 31956 70000 10258 20005 39741 40097 70622 80002 333 0//00 59017 87076;EQDQ01  00002PRCP99
0261655180999992000030306004+11150-001150FM-12+0322DFCP V0200401N003119999999N0060001N1+02281-00361100881ADDAA199000091AY121061AY221061GF107991001001999999001021IA2240+01909KA1120N+02221MA1999999097301MD1999999-0141MW1061OA150600361REMSYN106AAXX  03064 65518 31956 70406 10228 21036 39730 40088 70622 80002 333 01900 20222 51204 55076 59014 87076;EQDQ01  00002PRCP99
0187655180999992000030309004+11150-001150FM-12+0322DFCP V0200801N004110780019N0010001N1+02801-00771101141ADDAY121031AY221031GA1071+078009019GF107991001001999999001021MA1999999097551MD1999999-0041MW1061REMSYN082AAXX  03094 65518 41910 70808 10280 21077 39755 40114 70622 80002 333 59004 87076;
0223655180999992000030312004+11150-001150FM-12+0322DFCP V0200401N003110780019N0037001N1+03361-00171101021ADDAA199000091AY121061AY221061GA1071+078009019GF107991001001999999001021MA1999999097461MD1999999-0011MW1061REMSYN088AAXX  03124 65518 31937 70406 10336 21017 39746 40102 70622 80002 333 0//00 59001 87076;EQDQ01  00002PRCP99
0187655180999992000030315004+11150-001150FM-12+0322DFCP V0200801N002110780019N0025001N1+03651+99999100701ADDAY121031AY221031GA1071+078009019GF107991001001999999001021MA1999999097161MD1999999+0061MW1061REMSYN082AAXX  03154 65518 41925 70804 10365 28027 39716 40070 70622 80002 333 58006 87076;
0236655180999992000030318004+11150-001150FM-12+0322DFCP V0209999C000010780019N0025001N1+03401+00761100751ADDAA199000091AY121061AY221061GA1071+078009019GF107991001001999999001021KA1120M+03701MA1999999097181MD1999999+0021MW1061REMSYN088AAXX  03184 65518 31925 70000 10340 20076 39718 40075 70622 80002 333 10370 58002 87076;EQDQ01  00002PRCP99
0223655180999992000030400004+11150-001150FM-12+0322DFCP V0209999C000010780019N0060001N1+02651+00281101011ADDAA199000091AY121061AY221061GA1071+078009019GF107991001001999999001021MA1999999097451MD1999999+0041MW1061REMSYN088AAXX  04004 65518 31956 70000 10265 20028 39745 40101 70622 80002 333 0//00 58004 87076;EQDQ01  00002PRCP99
0187655180999992000030409004+11150-001150FM-12+0322DFCP V0200401N003110780019N0060001N1+02841-00411101071ADDAY121031AY221031GA1071+078009019GF107991001001999999001021MA1999999097491MD1999999-0061MW1061REMSYN082AAXX  04094 65518 41956 70406 10284 21041 39749 40107 70622 80002 333 59006 87076;
0187655180999992000030415004+11150-001150FM-12+0322DFCP V0200401N002110780019N0060001N1+03811-00231100621ADDAY121031AY221031GA1071+078009019GF107991001001999999001021MA1999999097091MD1999999-0071MW1061REMSYN082AAXX  04154 65518 41956 70404 10381 21023 39709 40062 70622 80002 333 59007 87076;
0236655180999992000030418004+11150-001150FM-12+0322DFCP V0209999C000010780019N0060001N1+03501+00091100681ADDAA199000091AY121061AY221061GA1071+078009019GF107991001001999999001021KA1120M+03911MA1999999097131MD1999999-0051MW1061REMSYN088AAXX  04184 65518 31956 70000 10350 20009 39713 40068 70622 80002 333 10391 59005 87076;EQDQ01  00002PRCP99
0223655180999992000030500004+11150-001150FM-12+0322DFCP V0209999C000010780019N0060001N1+02661+00551100891ADDAA199000091AY121061AY221061GA1071+078009019GF107991001001999999001021MA1999999097351MD1999999-0101MW1061REMSYN088AAXX  05004 65518 31956 70000 10266 20055 39735 40089 70622 80002 333 0//00 59010 87076;EQDQ01  00002PRCP99
0187655180999992000030503004+11150-001150FM-12+0322DFCP V0209999C000010780019N0060001N1+02451+00511100781ADDAY121031AY221031GA1071+078009019GF107991001001999999001021MA1999999097251MD1999999-0091MW1061REMSYN082AAXX  05034 65518 41956 70000 10245 20051 39725 40078 70622 80002 333 59009 87076;
0261655180999992000030506004+11150-001150FM-12+0322DFCP V0200401N001019999999N0060001N1+02341-00041100851ADDAA199000091AY121061AY221061GF107991001001999999001021IA2240+01909KA1120N+02301MA1999999097291MD1999999-0031MW1061OA150600361REMSYN106AAXX  05064 65518 31956 70402 10234 21004 39729 40085 70622 80002 333 01900 20230 51064 55076 59003 87076;EQDQ01  00002PRCP99
0187655180999992000030509004+11150-001150FM-12+0322DFCP V0200801N003110780019N0060001N1+03151-00781101041ADDAY121031AY221031GA1071+078009019GF107991001001999999001021MA1999999097491MD1999999+0001MW1061REMSYN082AAXX  05094 65518 41956 70806 10315 21078 39749 40104 70622 80002 333 58000 87076;
0223655180999992000030512004+11150-001150FM-12+0322DFCP V0200801N004110780019N0060001N1+03731-00341100921ADDAA199000091AY121061AY221061GA1071+078009019GF107991001001999999001021MA1999999097391MD1999999+0001MW1061REMSYN088AAXX  05124 65518 31956 70808 10373 21034 39739 40092 70622 80002 333 0//00 58000 87076;EQDQ01  00002PRCP99
0195655180999992000030600004+11150-001150FM-12+0322DFCP V0200401N002110780019N0100001N1+02901-00561100981ADDAA199000091GA1071+078009019GF107991001001999999001021MA1999999097461MD1999999+0011REMSYN082AAXX  06004 65518 32960 70404 10290 21056 39746 40098 80002 333 0//00 58001 87076;EQDQ01  00002PRCP99
0187655180999992000030609004+11150-001150FM-12+0322DFCP V0200801N004110780019N0060001N1+02991-01011101121ADDAY121031AY221031GA1071+078009019GF107991001001999999001021MA1999999097561MD1999999+0071MW1061REMSYN082AAXX  06094 65518 41956 70808 10299 21101 39756 40112 70622 80002 333 58007 87076;
0223655180999992000030612004+11150-001150FM-12+0322DFCP V0200801N005110780019N0060001N1+03541-00841101031ADDAA199000091AY121061AY221061GA1071+078009019GF107991001001999999001021MA1999999097491MD1999999+0101MW1061REMSYN088AAXX  06124 65518 31956 70810 10354 21084 39749 40103 70622 80002 333 0//00 58010 87076;EQDQ01  00002PRCP99
0208655180999992000030618004+11150-001150FM-12+0322DFCP V0209999C000010780019N0100001N1+03481+00671100671ADDAA199000091GA1071+078009019GF107991001001999999001021KA1120M+03821MA1999999097121MD1999999-0031REMSYN082AAXX  06184 65518 32/60 70000 10348 20067 39712 40067 80002 333 10382 59003 87076;EQDQ01  00002PRCP99
0195655180999992000030700004+11150-001150FM-12+0322DFCP V0209999C000010780019N0100001N1+02601-00241100921ADDAA199000091GA1071+078009019GF107991001001999999001021MA1999999097371MD1999999-0091REMSYN082AAXX  07004 65518 32960 70000 10260 21024 39737 40092 80002 333 0//00 59009 87076;EQDQ01  00002PRCP99
0233655180999992000030706004+11150-001150FM-12+0322DFCP V0200401N003119999999N0100001N1+02411-00511100861ADDAA199000091GF107991001001999999001021IA2240+02309KA1120N+02301MA1999999097311MD1999999-0031OA150600411REMSYN100AAXX  07064 65518 32960 70406 10241 21051 39731 40086 80002 333 02300 20230 51374 55088 59003 87076;EQDQ01  00002PRCP99
0223655180999992000030712004+11150-001150FM-12+0322DFCP V0200801N004110780019N0080001N1+03581-00891100971ADDAA199000091AY121061AY221061GA1071+078009019GF107991001001999999001021MA1999999097431MD1999999-0061MW1061REMSYN088AAXX  07124 65518 31958 70808 10358 21089 39743 40097 70622 80002 333 0//00 59006 87076;EQDQ01  00002PRCP99
0208655180999992000030718004+11150-001150FM-12+0322DFCP V0200801N002110780019N0100001N1+03551-00661100701ADDAA199000091GA1071+078009019GF107991001001999999001021KA1120M+03801MA1999999097151MD1999999+0031REMSYN082AAXX  07184 65518 32960 70804 10355 21066 39715 40070 80002 333 10380 58003 87076;EQDQ01  00002PRCP99
0195655180999992000030800004+11150-001150FM-12+0322DFCP V0200401N002110780019N0100001N1+02691-00331100901ADDAA199000091GA1071+078009019GF107991001001999999001021MA1999999097361MD1999999-0011REMSYN082AAXX  08004 65518 32960 70404 10269 21033 39736 40090 80002 333 0//00 59001 87076;EQDQ01  00002PRCP99
0233655180999992000030806004+11150-001150FM-12+0322DFCP V0209999C000019999999N0100001N1+02401-00291100861ADDAA199000091GF107991001001999999001021IA2240+01909KA1120N+02401MA1999999097301MD1999999-0011OA150600411REMSYN100AAXX  08064 65518 32960 70000 10240 21029 39730 40086 80002 333 01900 20240 51364 55081 59001 87076;EQDQ01  00002PRCP99
0159655180999992000030809004+11150-001150FM-12+0322DFCP V0200801N005110780019N0100001N1+03031-00771101081ADDGA1071+078009019GF107991001001999999001021MA1999999097511MD1999999-0011REMSYN076AAXX  08094 65518 42960 70810 10303 21077 39751 40108 80002 333 59001 87076;
0195655180999992000030812004+11150-001150FM-12+0322DFCP V0200801N006210780019N0100001N1+03591-00921101041ADDAA199000091GA1071+078009019GF107991001001999999001021MA1999999097501MD1999999+0071REMSYN082AAXX  08124 65518 32960 70812 10359 21092 39750 40104 80002 333 0//00 58007 87076;EQDQ01  00002PRCP99
0159655180999992000030815004+11150-001150FM-12+0322DFCP V0200801N002110780019N0100001N1+03801-00211100721ADDGA1071+078009019GF107991001001999999001021MA1999999097201MD1999999+0071REMSYN076AAXX  08154 65518 42960 70804 10380 21021 39720 40072 80002 333 58007 87076;
0208655180999992000030818004+11150-001150FM-12+0322DFCP V0200401N003110780019N0100001N1+03501-00731100801ADDAA199000091GA1071+078009019GF107991001001999999001021KA1120M+03801MA1999999097251MD1999999+0101REMSYN082AAXX  08184 65518 32960 70406 10350 21073 39725 40080 80002 333 10380 58010 87076;EQDQ01  00002PRCP99
0195655180999992000030900004+11150-001150FM-12+0322DFCP V0200401N004110780019N0100001N1+02801-00371101091ADDAA199000091GA1071+078009019GF107991001001999999001021MA1999999097561MD1999999+0201REMSYN082AAXX  09004 65518 32960 70408 10280 21037 39756 40109 80002 333 0//00 58020 87076;EQDQ01  00002PRCP99
0181655180999992000030909004+11150-001150FM-12+0322DFCP V02099999999990780019N0006001N1+02911-00571101241ADDAY141031AY241031GA1071+078009019GF107991999999999999999999MA1999999097661MD1999999+0151MW1061REMSYN076AAXX  09094 65518 41906 70/00 10291 21057 39766 40124 70644 333 58015 87076;
0223655180999992000030912004+11150-001150FM-12+0322DFCP V0200801N006210780019N0006001N1+03371-00521101151ADDAA199000091AY141061AY241061GA1071+078009019GF107991001001999999001021MA1999999097601MD1999999+0101MW1061REMSYN088AAXX  09124 65518 31906 70812 10337 21052 39760 40115 70644 80002 333 0//00 58010 87076;EQDQ01  00002PRCP99
0181655180999992000030915004+11150-001150FM-12+0322DFCP V0203601N002110780019N0060001N1+03621-00281999999ADDAY141031AY221031GA1071+078009019GF107991001001999999001021MA1999999097261MD1999999+0061MW1061REMSYN076AAXX  09154 65518 41956 73604 10362 21028 39726 70642 80002 333 58006 87076;
0236655180999992000030918004+11150-001150FM-12+0322DFCP V0200401N001010780019N0060001N1+03361-00491100791ADDAA199000091AY121061AY221061GA1071+078009019GF107991001001999999001021KA1120M+03641MA1999999097231MD1999999-0021MW1061REMSYN088AAXX  09184 65518 31956 70402 10336 21049 39723 40079 70622 80002 333 10364 59002 87076;EQDQ01  00002PRCP99
0187655180999992000031009004+11150-001150FM-12+0322DFCP V0200401N005110780019N0040001N1+02801-00471101111ADDAY121031AY221031GA1071+078009019GF107991001001999999001021MA1999999097531MD1999999-0131MW1061REMSYN082AAXX  10094 65518 41940 70410 10280 21047 39753 40111 70622 80002 333 59013 87076;
0223655180999992000031012004+11150-001150FM-12+0322DFCP V0200601N007210780019N0040001N1+03311-00551101011ADDAA199000091AY121061AY221061GA1071+078009019GF107991001001999999001021MA1999999097451MD1999999-0151MW1061REMSYN088AAXX  10124 65518 31940 70614 10331 21055 39745 40101 70622 80002 333 0//00 59015 87076;EQDQ01  00002PRCP99
0208655180999992000031018004+11150-001150FM-12+0322DFCP V0200401N002110780019N0100001N1+03381-00421100731ADDAA199000091GA1071+078009019GF107991001001999999001021KA1120M+03601MA1999999097161MD1999999-0071REMSYN082AAXX  10184 65518 32960 70404 10338 21042 39716 40073 80002 333 10360 59007 87076;EQDQ01  00002PRCP99
0144655180999992000031021004+11150-001150FM-12+0322DFCP V02099999999990780019N9999999N1+02751-00121100951ADDGA1071+078009019GF107991001001999999001021MD1999999-0181REMSYN076AAXX  10214 65518 429/0 7/080 10275 21012 39/// 40095 80002 333 59018 87076;
0195655180999992000031100004+11150-001150FM-12+0322DFCP V0200201N002110780019N0100001N1+02451-00211100981ADDAA199000091GA1071+078009019GF107991001001999999001021MA1999999097411MD1999999-0101REMSYN082AAXX  11004 65518 32960 70204 10245 21021 39741 40098 80002 333 0//00 59010 87076;EQDQ01  00002PRCP99
0187655180999992000031109004+11150-001150FM-12+0322DFCP V0200401N002110780019N0060001N1+02831-00731100991ADDAY121031AY221031GA1071+078009019GF107991001001999999001021MA1999999097411MD1999999-0121MW1071REMSYN082AAXX  11094 65518 41956 70404 10283 21073 39741 40099 70722 80002 333 59012 87076;
0223655180999992000031112004+11150-001150FM-12+0322DFCP V0200401N004110780019N0080001N1+03351-00471100971ADDAA199000091AY121061AY221061GA1071+078009019GF107991001001999999001021MA1999999097401MD1999999-0051MW1061REMSYN088AAXX  11124 65518 31958 70408 10335 21047 39740 40097 70622 80002 333 0//00 59005 87076;EQDQ01  00002PRCP99
0159655180999992000031215004+11150-001150FM-12+0322DFCP V0200801N001010780019N0100001N1+03631-00141100561ADDGA1071+078009019GF107991001001999999001021MA1999999097091MD1999999-0051REMSYN076AAXX  12154 65518 42960 70802 10363 21014 39709 40056 80002 333 59005 87076;
0195655180999992000031300004+11150-001150FM-12+0322DFCP V0209999C000010780019N0100001N1+02641-00471100891ADDAA199000091GA1071+078009019GF107991001001999999001021MA1999999097341MD1999999-0041REMSYN082AAXX  13004 65518 32960 70000 10264 21047 39734 40089 80002 333 0//00 59004 87076;EQDQ01  00002PRCP99
0233655180999992000031306004+11150-001150FM-12+0322DFCP V0203601N001019999999N0100001N1+02201-00371100861ADDAA199000091GF107991001001999999001021IA2240+01809KA1120N+02181MA1999999097291MD1999999+0011OA150600411REMSYN100AAXX  13064 65518 32960 73602 10220 21037 39729 40086 80002 333 01800 20218 51154 55089 58001 87076;EQDQ01  00002PRCP99
0159655180999992000031309004+11150-001150FM-12+0322DFCP V0200401N004110780019N0100001N1+02771-00961101071ADDGA1071+078009019GF107991001001999999001021MA1999999097491MD1999999+0051REMSYN076AAXX  13094 65518 42960 70408 10277 21096 39749 40107 80002 333 58005 87076;
0195655180999992000031312004+11150-001150FM-12+0322DFCP V0200401N003110780019N0100001N1+03421-00941100961ADDAA199000091GA1071+078009019GF107991001001999999001021MA1999999097411MD1999999+0061REMSYN082AAXX  13124 65518 32960 70406 10342 21094 39741 40096 80002 333 0//00 58006 87076;EQDQ01  00002PRCP99
0153655180999992000031315004+11150-001150FM-12+0322DFCP V0203601N003110780019N0100001N1+03701-00581100641ADDGA1071+078009019GF107991999999999999999999MA1999999097101MD1999999+0011REMSYN070AAXX  13154 65518 42960 73606 10370 21058 39710 40064 333 58001 87076;
0208655180999992000031318004+11150-001150FM-12+0322DFCP V0200401N002110780019N0100001N1+03441-00921100731ADDAA199000091GA1071+078009019GF107991001001999999001021KA1120M+03701MA1999999097161MD1999999+0051REMSYN082AAXX  13184 65518 32960 70404 10344 21092 39716 40073 80002 333 10370 58005 87076;EQDQ01  00002PRCP99
0195655180999992000031400004+11150-001150FM-12+0322DFCP V0203601N001010780019N0100001N1+02681+00081100921ADDAA199000091GA1071+078009019GF107991001001999999001021MA1999999097371MD1999999+0031REMSYN082AAXX  14004 65518 32960 73602 10268 20008 39737 40092 80002 333 0//00 58003 87076;EQDQ01  00002PRCP99
0137655180999992000031406004+11150-001150FM-12+0322DFCP V0203601N002119999999N0100001N1+02301-00911100851ADDAA199000091GF107991999999999999999999MA1999999097281REMSYN054AAXX  14064 65518 32960 73604 10230 21091 39728 40085;EQDQ01  00002PRCP99
0159655180999992000031409004+11150-001150FM-12+0322DFCP V0200401N004110780019N0100001N1+02881-01381101051ADDGA1071+078009019GF107991001001999999001021MA1999999097471MD1999999-0021REMSYN076AAXX  14094 65518 42960 70408 10288 21138 39747 40105 80002 333 59002 87076;
0195655180999992000031412004+11150-001150FM-12+0322DFCP V0200801N004110780019N0100001N1+03521-01021100861ADDAA199000091GA1071+078009019GF107991001001999999001021MA1999999097311MD1999999-0101REMSYN082AAXX  14124 65518 32960 70808 10352 21102 39731 40086 80002 333 0//00 59010 87076;EQDQ01  00002PRCP99
0159655180999992000031415004+11150-001150FM-12+0322DFCP V0200401N003110780019N0100001N1+03791-01391100521ADDGA1071+078009019GF107991001001999999001021MA1999999097001MD1999999-0101REMSYN076AAXX  14154 65518 42960 70406 10379 21139 39700 40052 80002 333 59010 87076;
0208655180999992000031418004+11150-001150FM-12+0322DFCP V0209999C000010780019N0100001N1+03411-00491100621ADDAA199000091GA1071+078009019GF107991001001999999001021KA1120M+03791MA1999999097061MD1999999-0101REMSYN082AAXX  14184 65518 32960 70000 10341 21049 39706 40062 80002 333 10379 59010 87076;EQDQ01  00002PRCP99
0195655180999992000031500004+11150-001150FM-12+0322DFCP V0203601N001010780019N0100001N1+02621+00001100801ADDAA199000091GA1071+078009019GF107991001001999999001021MA1999999097261MD1999999-0111REMSYN082AAXX  15004 65518 32960 73602 10262 2100/ 39726 40080 80002 333 0//00 59011 87076;EQDQ01  00002PRCP99
0227655180999992000031506004+11150-001150FM-12+0322DFCP V0200601N002119999999N0100001N1+02281-00181100801ADDAA199000091GF107991999999999999999999IA2240+01909KA1120N+02261MA1999999097181MD1999999-0101OA150600461REMSYN094AAXX  15064 65518 32960 70604 10228 21018 39718 40080 333 01900 20226 51444 55096 59010 87076;EQDQ01  00002PRCP99
0159655180999992000031509004+11150-001150FM-12+0322DFCP V0200401N003110780019N0100001N1+03031-00771100831ADDGA1071+078009019GF107991001001999999001021MA1999999097271MD1999999-0201REMSYN076AAXX  15094 65518 42960 70406 10303 21077 39727 40083 80002 333 59020 87076;
0195655180999992000031512004+11150-001150FM-12+0322DFCP V0200801N002110780019N0100001N1+03601-00801100711ADDAA199000091GA1071+078009019GF107991001001999999001021MA1999999097181MD1999999-0131REMSYN082AAXX  15124 65518 32960 70804 10360 21080 39718 40071 80002 333 0//00 59013 87076;EQDQ01  00002PRCP99
0159655180999992000031515004+11150-001150FM-12+0322DFCP V0200401N001010780019N0100001N1+03861-00121100391ADDGA1071+078009019GF107991001001999999001021MA1999999096871MD1999999-0131REMSYN076AAXX  15154 65518 42960 70402 10386 21012 39687 40039 80002 333 59013 87076;
0208655180999992000031518004+11150-001150FM-12+0322DFCP V0209999C000010780019N0100001N1+03601-00351100451ADDAA199000091GA1071+078009019GF107991001001999999001021KA1120M+03901MA1999999096901MD1999999-0161REMSYN082AAXX  15184 65518 32960 70000 10360 21035 39690 40045 80002 333 10390 59016 87076;EQDQ01  00002PRCP99
0195655180999992000031600004+11150-001150FM-12+0322DFCP V0209999C000010780019N0150001N1+02681+00231100701ADDAA199000091GA1071+078009019GF107991001001999999001021MA1999999097171MD1999999-0091REMSYN082AAXX  16004 65518 32965 70000 10268 20023 39717 40070 80002 333 0//00 59009 87076;EQDQ01  00002PRCP99
0153655180999992000031603004+11150-001150FM-12+0322DFCP V0209999C000019999999N0150001N1+02681+00231999999ADDAA199000091GF107991001001999999001021MA1999999097171REMSYN070AAXX  16034 65518 32965 70000 10268 20023 39717 80002 333 0//00 00870;EQDQ01  00002PRCP99
0187655180999992000031609004+11150-001150FM-12+0322DFCP V0200801N002110780019N0080001N1+03111-00371100811ADDAY121031AY221031GA1071+078009019GF107991001001999999001021MA1999999097261MD1999999-0011MW1061REMSYN082AAXX  16094 65518 41958 70804 10311 21037 39726 40081 70622 80002 333 59001 87076;
0223655180999992000031612004+11150-001150FM-12+0322DFCP V0200801N002110780019N0040001N1+03741-00421100631ADDAA199000091AY121061AY221061GA1071+078009019GF107991001001999999001021MA1999999097111MD1999999-0071MW1061REMSYN088AAXX  16124 65518 31940 70804 10374 21042 39711 40063 70622 80002 333 0//00 59007 87076;EQDQ01  00002PRCP99
0187655180999992000031615004+11150-001150FM-12+0322DFCP V0200801N002110780019N0040001N1+03951+00061100311ADDAY121031AY221031GA1071+078009019GF107991001001999999001021MA1999999096801MD1999999-0071MW1061REMSYN082AAXX  16154 65518 41940 70804 10395 20006 39680 40031 70622 80002 333 59007 87076;
0208655180999992000031618004+11150-001150FM-12+0322DFCP V0209999C000010780019N0100001N1+03651-00281100371ADDAA199000091GA1071+078009019GF107991001001999999001021KA1120M+03961MA1999999096831MD1999999-0071REMSYN082AAXX  16184 65518 32960 70000 10365 21028 39683 40037 80002 333 10396 59007 87076;EQDQ01  00002PRCP99
