0187673230999992000010206004-23870+035380FM-12+0015FQIN V0203601N004110075019N0300001N1+02981+02491100891ADDAA106000091GF106991051091008001031001KA1120N+02571MD1010021+9999REMSYN092AAXX  02064 67323 32580 63608 10298 20249 40089 50002 85930 333 20257 50/// 55/// 94398 555;EQDQ01  00002PRCP06
0142673230999992000010207004-23870+035380FM-15+0015FQIN V0200401N007210060019N0112651N1+03101+02401999999ADDGA1071+006009029GF107991999999999999999999MA1100911999999MW1001REMMET048FQIN 020700Z 04014KT 9999 BKN020TCU 31/24 Q1009;EQDQ01+000000PRSWM2
0283673230999992000010212004-23870+035380SY-MT+0015FQIN V0200701N006712200019N0300001N1+03201+02531100751ADDAA106000091AY191061AY211061GA1021+007509099GF104991031091008001001031MA1100711999999MD1710141+9999MW1171REMSYN076AAXX  02124 67323 31580 40713 10320 20253 40075 57014 71791 83903 333 94390;MET050FQIN 021200Z 07013KT 9999 TS FEW025CB 32/25 Q1007;EQDQ01  00002PRCP06Q02    003PRSWM1
0173673230999992000010214004-23870+035380FM-15+0015FQIN V0200701N00411220001CN0112651N1+03101+02401999999ADDGA1021+007509099GA2071+007509999MA1100811999999MW1171REMMET057FQIN 021400Z 07008KT 9999 TS BKN025 FEW025CB 31/24 Q1008;EQDQ01+000022SCOTCVQ02+000003PRSWM1Q03    003PRSWM1
0302673230999992000010215004-23870+035380SY-MT+0015FQIN V0200801N00461006001CN0300001N1+03001+02461100721ADDAY191031AY291031GA1071+006009999GA2021+007509099GA3071+999999999GF107991051091008001001031MA1100711999999MD1810031+9999MW1171REMSYN076AAXX  02154 67323 41580 70809 10300 20246 40072 58003 71799 85903 333 94392;MET064FQIN 021500Z 08009KT 9999 TS BKN020 FEW025CB BKN/// 30/25 Q1007;EQDQ01    003PRSWM1
0367673230999992000010306004-23870+035380SY-MT+0015FQIN V0209999C00001009001CN0080001N1+02861+02531101301ADDAA106000021AY111061AY211061GA1021+006009999GA2021+007509099GA3071+009009999GF107991071091008001999999KA1120N+02501MA1101291999999MD1810171+9999MW1801REMSYN104AAXX  03064 67323 31558 70000 10286 20253 40130 58017 78011 879// 333 20250 50/// 55/// 555 94394 10000;MET061FQIN 030600Z 00000KT RASH SCT020 FEW025CB BKN030 29/25 Q1013;EQDQ01+000000PRSWM2Q02    003PRSWM1
0177673230999992000010307004-23870+035380FM-15+0015FQIN V0209999C00001220001CN0112651N1+02901+02601999999ADDGA1021+006009999GA2071+007509999GA3021+009009099MA1101291999999MW1001REMMET061FQIN 030700Z 00000KT 9999 SCT020 BKN025 FEW030CB 29/26 Q1013;EQDQ01+000022SCOTCVQ02+000000PRSWM2
0292673230999992000010309004-23870+035380SY-MT+0015FQIN V0201801N00211006001CN0200001N1+03121+02431101251ADDAY181031AY221031GA1071+006009999GA2021+007509099GF108991051091008001001001MA1101191999999MD1710051+9999MW1021REMSYN076AAXX  03094 67323 41570 81804 10312 20243 40125 57005 70282 85900 333 94390;MET054FQIN 030900Z 18004KT 9999 BKN020 FEW025CB 31/24 Q1012;EQDQ01+000000PRSWM2Q02    003PRSWM1
0167673230999992000010312004-23870+035380FM-12+0015FQIN V0201101N002610075019N0200001N1+03181+02531101051ADDAA106003091AY181061AY221061GF106991061091008001001001MD1710201+9999MW1251REMSYN082AAXX  03124 67323 11570 61105 10318 20253 40105 57020 60031 72582 86900 333 94392;
0154673230999992000010314004-23870+035380FM-15+0015FQIN V0201601N00411220001CN0112651N1+03101+02501999999ADDGA1071+006009999GA2021+007509099MA1101021999999MW1001REMMET054FQIN 031400Z 16008KT 9999 BKN020 FEW025CB 31/25 Q1010;EQDQ01+000022SCOTCVQ02+000000PRSWM2
0122673230999992000010315004-23870+035380FM-12+0015FQIN V0201601N005110075019N0200001N1+03031+02451100981ADDGF105991051091008001001001MD1610071+9999REMSYN070AAXX  03154 67323 42570 51610 10303 20245 40098 56007 85900 333 94390;
0152673230999992000010412004-23870+035380FM-12+0015FQIN V0201801N002610075019N0300001N1+03241+02251101101ADDAA106000091GF105991051021008001031001MD1710091+9999REMSYN070AAXX  04124 67323 32580 51805 10324 20225 40110 57009 85230 333 94320;EQDQ01  00002PRCP06
0139673230999992000010413004-23870+035380FM-15+0015FQIN V0201501N003110060019N0112651N1+03101+02301999999ADDGA1071+006009999GF107991999999999999999999MA1101081999999MW1001REMMET045FQIN 041300Z 15006KT 9999 BKN020 31/23 Q1011;EQDQ01+000000PRSWM2
0297673230999992000010506004-23870+035380SY-MT+0015FQIN V0209999C000012200019N0300001N1+02881+02501101151ADDAA106000091GA1021+006009999GF103991031021008001001001KA1120N+02351MA1101081999999MD1010061+9999MW1001REMSYN098AAXX  05064 67323 32580 30000 10288 20250 40115 50006 83200 333 20235 50/// 55/// 94320 555 10032;MET045FQIN 050600Z 00000KT 9999 SCT020 29/25 Q1011;EQDQ01+000000PRSWM2Q02  00002PRCP06
0162673230999992000010508004-23870+035380FM-15+0015FQIN V0209999C000010060019N0112651N1+02901+02401999999ADDGA1071+006009999GA2071+007509999GF107991999999999999999999MA1101191999999MW1001REMMET052FQIN 050800Z 00000KT 9999 BKN020 BKN025 29/24 Q1012;EQDQ01+000000PRSWM2
0162673230999992000010509004-23870+035380FM-15+0015FQIN V0209999C000010060019N0112651N1+03001+02301999999ADDGA1071+006009999GA2071+007509999GF107991999999999999999999MA1101191999999MW1001REMMET052FQIN 050900Z 00000KT 9999 BKN020 BKN025 30/23 Q1012;EQDQ01+000000PRSWM2
0307673230999992000010512004-23870+035380SY-MT+0015FQIN V0200501N00261006001CN0300001N1+03081+02311101051ADDAA106000191AY181061AY221061GA1071+006009999GA2071+007509999GF107991071081008001999999MA1101021999999MD1710141+9999MW1031REMSYN082AAXX  05124 67323 11580 70505 10308 20231 40105 57014 69911 70382 878// 333 94321;MET052FQIN 051200Z 05005KT 9999 BKN020 BKN025 31/23 Q1010;EQDQ01+000000PRSWM2Q02    003PRSWM1
0139673230999992000010513004-23870+035380FM-15+0015FQIN V0200901N003610060019N0112651N1+03001+02301999999ADDGA1071+006009999GF107991999999999999999999MA1101021999999MW1001REMMET045FQIN 051300Z 09007KT 9999 BKN020 30/23 Q1010;EQDQ01+000000PRSWM2
0122673230999992000010515004-23870+035380FM-12+0015FQIN V0200901N003610075019N0300001N1+02981+02201100981ADDGF106991061021008001001001MD1510071+9999REMSYN070AAXX  05154 67323 42580 60907 10298 20220 40098 55007 86200 333 94322;
0139673230999992000010608004-23870+035380FM-15+0015FQIN V0201001N004110060019N0112651N1+03101+02301999999ADDGA1071+006009999GF107991999999999999999999MA1101021999999MW1001REMMET045FQIN 060800Z 10008KT 9999 BKN020 31/23 Q1010;EQDQ01+000000PRSWM2
0245673230999992000010609004-23870+035380SY-MT+0015FQIN V0201001N00461006001CN0300001N1+03141+02121101001ADDGA1071+006009999GF199999051021008001001001MA1101021999999MD1610061+9999MW1001REMSYN070AAXX  06094 67323 42580 51009 10314 20212 40100 56006 85200 333 94322;MET045FQIN 060900Z 10009KT 9999 BKN020 31/21 Q1010;EQDQ01+000052SCOTCVQ02+000000PRSWM2
0139673230999992000010610004-23870+035380FM-15+0015FQIN V0201001N004610060019N0112651N1+03101+02301999999ADDGA1071+006009999GF107991999999999999999999MA1101021999999MW1001REMMET045FQIN 061000Z 10009KT 9999 BKN020 31/23 Q1010;EQDQ01+000000PRSWM2
0152673230999992000010612004-23870+035380FM-12+0015FQIN V0201001N005110075019N0300001N1+03221+02231100871ADDAA106000091GF106991061021008001001001MD1710131+9999REMSYN070AAXX  06124 67323 32580 61010 10322 20223 40087 57013 86200 333 94322;EQDQ01  00002PRCP06
0139673230999992000010613004-23870+035380FM-15+0015FQIN V0201001N004610060019N0112651N1+03101+02301999999ADDGA1071+006009999GF107991999999999999999999MA1100811999999MW1001REMMET045FQIN 061300Z 10009KT 9999 BKN020 31/23 Q1008;EQDQ01+000000PRSWM2
0122673230999992000010615004-23870+035380FM-12+0015FQIN V0200901N004110075019N0300001N1+03021+02311100751ADDGF105991051021008001001001MD1610121+9999REMSYN070AAXX  06154 67323 42580 50908 10302 20231 40075 56012 85200 333 94322;
0174673230999992000010706004-23870+035380FM-12+0015FQIN V0209999C000010075019N0300001N1+02941+02331100791ADDAA106000091GF105991051021008001001011MD1210091+9999REMSYN092AAXX  07064 67323 32580 50000 10294 20233 40079 52009 85201 333 50/// 55/// 94320 555 10001;EQDQ01  00002PRCP06
0139673230999992000010707004-23870+035380FM-15+0015FQIN V0209999C000010060019N0112651N1+03101+02301999999ADDGA1071+006009999GF107991999999999999999999MA1100711999999MW1001REMMET045FQIN 070700Z 00000KT 9999 BKN020 31/23 Q1007;EQDQ01+000000PRSWM2
0154673230999992000010708004-23870+035380FM-15+0015FQIN V0200701N00151220001CN0112651N1+03101+02301999999ADDGA1071+006009999GA2021+007509099MA1100711999999MW1001REMMET054FQIN 070800Z 07003KT 9999 BKN020 FEW025CB 31/23 Q1007;EQDQ01+000022SCOTCVQ02+000000PRSWM2
0141673230999992000010709004-23870+035380FM-12+0015FQIN V0203601N001519999999N0300001N1+03121+02291100721ADDGF106991999091008001999999MD1710071+9999REMSYN070AAXX  07094 67323 42580 63603 10312 20229 40072 57007 879// 333 94398;EQDQ01+000072SCOTLC
0309673230999992000010806004-23870+035380SY-MT+0015FQIN V0200601N00261006001CN0300001N1+03001+02481100481ADDAA124007191GA1071+006009999GF199999061021008001001091KA1120N+02331MA1100511999999MD1210091+9999MW1001REMSYN110AAXX  08064 67323 12580 60605 10300 20248 40048 52009 60074 86209 333 20233 50/// 55/// 94320 555 00073 10000;MET045FQIN 080600Z 05005KT 9999 BKN020 30/25 Q1005;EQDQ01+000062SCOTCVQ02+000000PRSWM2
0139673230999992000010807004-23870+035380FM-15+0015FQIN V0200601N001510060019N0112651N1+03101+02501999999ADDGA1071+006009999GF107991999999999999999999MA1100411999999MW1001REMMET045FQIN 080700Z 06003KT 9999 BKN020 31/25 Q1004;EQDQ01+000000PRSWM2
0177673230999992000010809004-23870+035380FM-15+0015FQIN V0209999C00001220001CN0112651N1+03201+02601999999ADDGA1071+006009999GA2071+007509999GA3021+009009099MA1100411999999MW1001REMMET061FQIN 080900Z 00000KT 9999 BKN020 BKN025 FEW030CB 32/26 Q1004;EQDQ01+000022SCOTCVQ02+000000PRSWM2
0214673230999992000010812004-23870+035380FM-15+0015FQIN V0203201N003110060019N0070001N1+02601+02501999999ADDGA1071+006009999GA2021+007509099GA3081+027009999GF108991999999999999999999MA1100411999999MW1811MW2951REMMET066FQIN 081200Z 32006KT 7000 TSRA BKN020 FEW025CB OVC090 26/25 Q1004;EQDQ01+000003PRSWM1Q02    003PRSWM1
0216673230999992000010813004-23870+035380FM-15+0015FQIN V0209999C000010060019N0070001N1+02601+02501999999ADDGA1071+006009999GA2021+007509099GA3081+027009999GF108991999999999999999999MA1100411999999MW1811MW2951REMMET068FQIN 081300Z 00000KT 7000 TSRA V BKN020 FEW025CB OVC090 26/25 Q1004;EQDQ01+000003PRSWM1Q02    003PRSWM1
0186673230999992000010907004-23870+035380FM-12+0015FQIN V0202501N001010075019N0300001N1+02601+02471100541ADDAA124035191GF106991051021008001031001KA1120N+02201MD1310031+9999REMSYN110AAXX  09074 67323 12580 62502 10260 20247 40054 53003 60354 85230 333 20220 50/// 55/// 94320 555 00347 10073;
0308673230999992000010909004-23870+035380SY-MT+0015FQIN V0201701N00101006001CN0200001N1+02721+02551100491ADDAY181031AY221031GA1071+006009999GA2021+009009099GF199999061091008001001001MA1100511999999MD1710051+9999MW1251REMSYN076AAXX  09094 67323 41570 61702 10272 20255 40049 57005 72582 86900 333 94390;MET054FQIN 090900Z 17002KT 9999 BKN020 FEW030CB 27/26 Q1005;EQDQ01+000062SCOTCVQ02+000000PRSWM2Q03    003PRSWM1
0167673230999992000010912004-23870+035380FM-12+0015FQIN V0202101N004110075019N0200001N1+02841+02511100401ADDAA106000891AY181061AY221061GF106991061091008001001001MD1710091+9999MW1021REMSYN082AAXX  09124 67323 11570 62108 10284 20251 40040 57009 69971 70282 86900 333 94390;
0154673230999992000010913004-23870+035380FM-15+0015FQIN V0201701N00261220001CN0112651N1+02901+02501999999ADDGA1071+006009999GA2021+009009099MA1100311999999MW1001REMMET054FQIN 091300Z 17005KT 9999 BKN020 FEW030CB 29/25 Q1003;EQDQ01+000022SCOTCVQ02+000000PRSWM2
0342673230999992000011006004-23870+035380SY-MT+0015FQIN V0202101N00101220001CN0070001N1+02521+02361100531ADDAA124015091AY191061AY291061GA1071+006009999GA2021+007509099GF107991061091008001071999KA1120N+02241MD1310081+9999MW1811MW2951REMSYN116AAXX  10064 67323 11557 72102 10252 20236 40053 53008 60154 79599 8697/ 333 20224 50/// 55/// 94395 555 00150 10347;MET065FQIN 100600Z 21002KT 7000 TSRA BKN020 FEW025CB BK100 25/24 Q1005;EQDQ01    003PRSWM1
0162673230999992000011008004-23870+035380FM-15+0015FQIN V0209999C000010060019N0112651N1+02701+02601999999ADDGA1071+006009999GA2071+030009999GF107991999999999999999999MA1100511999999MW1001REMMET052FQIN 100800Z 00000KT 9999 BKN020 BKN100 27/26 Q1005;EQDQ01+000000PRSWM2
0268673230999992000011009004-23870+035380SY-MT+0015FQIN V0201001N002610030019N0090001N1+02791+02551100481ADDAY191031AY221031GA1071+003009999GA2071+006009999GF108991081081004501999999MD1610051+9999MW1501MW2511REMSYN076AAXX  10094 67323 41459 81005 10279 20255 40048 56005 75092 888// 333 94322;MET055FQIN 100900Z 10005KT 9000 -DZ BKN010 BKN020 28/26 Q105;EQDQ01    003PRSWM1
0300673230999992000011012004-23870+035380SY-MT+0015FQIN V0200901N00311006001CN0300001N1+02981+02491100391ADDAA106001091AY191061AY251061GA1071+006009999GF199999061021008001001001MA1100311999999MD1710121+9999MW1021REMSYN082AAXX  10124 67323 11580 60906 10298 20249 40039 57012 60011 70295 86200 333 94322;MET045FQIN 101200Z 09006KT 9999 BKN020 30/25 Q1003;EQDQ01+000062SCOTCVQ02+000000PRSWM2Q03    003PRSWM1
0122673230999992000011015004-23870+035380FM-12+0015FQIN V0200901N003610075019N0300001N1+02821+02401100351ADDGF106991051021008001001021MD1510011+9999REMSYN070AAXX  10154 67323 42580 60907 10282 20240 40035 55001 85202 333 94322;
0256673230999992000011112004-23870+035380SY-MT+0015FQIN V0201201N005712200019N0300001N1+03091+02301100571ADDAA106000091GA1021+006009999GF104991041021008001001001MA1100511999999MD1710101+9999MW1001REMSYN070AAXX  11124 67323 32580 41211 10309 20230 40057 57010 84200 333 94322;MET045FQIN 111200Z 12011KT 9999 SCT020 31/23 Q1005;EQDQ01+000000PRSWM2Q02  00002PRCP06
0108673230999992000011203004-23870+035380FM-12+0015FQIN V0201701N004110075019N0090001N1+02581+02341100591ADDGF105991051021008001001001REMSYN070AAXX  12034 67323 41559 51708 10258 20234 40059 5//// 85200 333 94324;
0311673230999992000011206004-23870+035380SY-MT+0015FQIN V0201801N003612200019N0300001N1+02801+02381100601ADDAA124000191AY181061GA1021+006009999GF103991999999008001999999KA1120N+02401MA1100611999999MD1010011+9999MW1011REMSYN104AAXX  12064 67323 11580 31807 10280 20238 40060 50001 69914 7018/ 333 20240 50/// 55/// 94324 555 10020;MET045FQIN 120600Z 18007KT 9999 SCT020 28/24 Q1006;EQDQ01+000000PRSWM2Q02    003PRSWM1
0152673230999992000011207004-23870+035380FM-15+0015FQIN V0200801N00311220001CN0112651N1+02801+02301999999ADDGA1071+006009999GA2021+007509999MA1100611999999MW1001REMMET052FQIN 120700Z 08006KT 9999 BKN020 FEW025 28/23 Q1006;EQDQ01+000022SCOTCVQ02+000000PRSWM2
0245673230999992000011209004-23870+035380SY-MT+0015FQIN V0202001N00511006001CN0300001N1+02991+02461100541ADDGA1071+006009999GF199999061021008001001001MA1100511999999MD1810061+9999MW1001REMSYN070AAXX  12094 67323 42580 62010 10299 20246 40054 58006 86200 333 94324;MET045FQIN 120900Z 20010KT 9999 BKN020 30/25 Q1005;EQDQ01+000062SCOTCVQ02+000000PRSWM2
0256673230999992000011212004-23870+035380SY-MT+0015FQIN V0201801N005112200019N0300001N1+03201+02401100401ADDAA106000091GA1021+006009999GF102991021021008001001001MA1100411999999MD1710141+9999MW1001REMSYN070AAXX  12124 67323 32580 21810 10320 20240 40040 57014 82200 333 94324;MET045FQIN 121200Z 18010KT 9999 FEW020 32/24 Q1004;EQDQ01+000000PRSWM2Q02  00002PRCP06
0122673230999992000011215004-23870+035380FM-12+0015FQIN V0201801N004612200019N0300001N1+02981+02331100371ADDGF103991031021008001001001MD1610031+9999REMSYN070AAXX  12154 67323 42580 31809 10298 20233 40037 56003 83200 333 94324;
0186673230999992000011306004-23870+035380FM-12+0015FQIN V0201701N004610075019N0090001N1+02891+02211100791ADDAA106000021GF106991061021008001001001KA1120N+02381MD1210131+9999MW1801REMSYN104AAXX  13064 67323 31559 61709 10289 20221 40079 52013 780// 86200 333 20238 50/// 55/// 94324 555 10001;
0245673230999992000011309004-23870+035380SY-MT+0015FQIN V0201701N00721006001CN0300001N1+03101+02281100801ADDGA1071+006009999GF199999051021008001001001MA1100811999999MD1110011+9999MW1001REMSYN070AAXX  13094 67323 42580 51714 10310 20228 40080 51001 85200 333 94324;MET045FQIN 130900Z 17014KT 9999 BKN020 31/23 Q1008;EQDQ01+000052SCOTCVQ02+000000PRSWM2
0133673230999992000011312004-23870+035380FM-12+0015FQIN V0201801N007212200019N0300001N1+03201+02231100701ADDAA106000021GF104991041021008001001001MD1710101+9999REMSYN070AAXX  13124 67323 32580 41814 10320 20223 40070 57010 84200 333 94324;
0122673230999992000011315004-23870+035380FM-12+0015FQIN V0201801N006212200019N0300001N1+02921+02221100731ADDGF104991041021008001001001MD1210031+9999REMSYN070AAXX  13154 67323 42580 41812 10292 20222 40073 52003 84200 333 94324;
0338673230999992000011406004-23870+035380SY-MT+001599999V0202301N002110060019N0090001N1+02541+02351101001ADDAA124007191AY181061GA1071+006009999GA2081+030009999GF108991999999008001999999KA1120N+02201MA1101021999999MD1210101+9999MW1601MW2611REMSYN114    AAXX  14064 67323 11559 82304 10254 20235 40100 52010 60074 7608/ 333 20220 50/// 55/// 94325 555 00069 10000;MET056FQIN 140600Z 23004KT 9000 -RA BKN020 OVC100 25/24 Q1010;EQDQ01    003PRSWM1
0294673230999992000011409004-23870+035380SY-MT+001599999V0201801N00411006001CN0150001N1+02701+02311100981ADDAY161031AY261031GA1071+006009999GA2071+030009999GF107991051021008001071999MA1101021999999MD1810021+9999MW1211REMSYN080    AAXX  14094 67323 41565 71808 10270 20231 40098 58002 72166 8527/ 333 94324;MET052FQIN 140900Z 18008KT 9999 BKN020 BKN100 27/23 Q1010;EQDQ01+000000PRSWM2Q02    003PRSWM1
0304673230999992000011412004-23870+035380SY-MT+001599999V0201701N00411006001CN0150001N1+02581+02461100871ADDAA106011991AY161061AY261061GA1071+006009999GF199999061021008001001001MA1100811999999MD1710111+9999MW1211REMSYN086    AAXX  14124 67323 11565 61708 10258 20246 40087 57011 60121 72166 86200 333 94324;MET045FQIN 141200Z 17008KT 9999 BKN020 26/25 Q1008;EQDQ01+000062SCOTCVQ02+000000PRSWM2Q03    003PRSWM1
0271673230999992000011415004-23870+035380SY-MT+0015FQIN V0201801N002610060019N0150001N1+02481+02231100861ADDAY121031AY221031GA1071+006009999GF106991061021008001001001MA1100811999999MD1510011+9999MW1211REMSYN080    AAXX  14154 67323 41565 61805 10248 20223 40086 55001 72122 86200 333 94324;MET045FQIN 141500Z 18005KT 9999 BKN020 25/22 Q1008;EQDQ01+000000PRSWM2Q02    003PRSWM1
0297673230999992000011506004-23870+035380SY-MT+001599999V0201701N002612200019N0300001N1+02641+02311101091ADDAA124018091GA1021+006009999GF104991041021008001001001KA1120N+02171MA1101081999999MD1210061+9999MW1001REMSYN114    AAXX  15064 67323 12580 41705 10264 20231 40109 52006 60184 84200 333 20217 50/// 55/// 94324 555 00176 10069;MET045FQIN 150600Z 17005KT 9999 SCT020 26/23 Q1011;EQDQ01+000000PRSWM2
0237673230999992000011512004-23870+035380SY-MT+001599999V0201701N007710120019N0300001N1+02951+02341100951ADDAA199000091GF107991071081008001999999MD1710121+9999MW1001REMSYN074    AAXX  15124 67323 32580 71715 10295 20234 40095 57012 878// 333 94324;MET053FQIN 151200Z 17015KT 99999 BKN020 BKN025 EPXWE Q1009;EQDQ01+000000PRSWM2Q02  00002PRCP99
0112673230999992000011603004-23870+035380FM-12+001599999V0209999C000012200019N0300001N1+02381+02111100891ADDGF104991021021008001001021REMSYN074    AAXX  16034 67323 42580 40000 10238 20211 40089 5//// 82202 333 94320;
0197673230999992000011606004-23870+035380FM-12+001599999V0200901N002112200019N0300001N1+02801+02091100971ADDAA199000091GF104991041021008001001001KA1120N+02111MD1210081+9999REMSYN102    AAXX  16064 67323 32580 40904 10280 20209 40097 52008 84200 333 20211 50/// 55/// 94322 555 10176;EQDQ01  00002PRCP99
0126673230999992000011609004-23870+035380FM-12+001599999V0200901N002610075019N0300001N1+02961+02181100971ADDGF105991051021008001001001MD1010001+9999REMSYN074    AAXX  16094 67323 42580 50905 10296 20218 40097 50000 85200 333 94322;
0156673230999992000011612004-23870+035380FM-12+001599999V0200901N003610075019N0300001N1+02961+02051100841ADDAA199000091GF105991051021008001001001MD1710131+9999REMSYN074    AAXX  16124 67323 32580 50907 10296 20205 40084 57013 85200 333 94322;EQDQ01  00002PRCP99
0197673230999992000011706004-23870+035380FM-12+001599999V0201901N002610120019N0200001N1+02681+02301100921ADDAA199000091GF107991071081008001999999KA1120N+02301MD1210101+9999REMSYN102    AAXX  17064 67323 32570 71905 10268 20230 40092 52010 878// 333 20230 50/// 55/// 94324 555 10000;EQDQ01  00002PRCP99
0154673230999992000011709004-23870+035380FM-12+001599999V0201701N002610120019N0090001N1+02681+02441100901ADDAY121031AY221031GF107991071081008001999999MD1810021+9999MW1601REMSYN080    AAXX  17094 67323 41559 71705 10268 20244 40090 58002 76022 878// 333 94324;
0311673230999992000011712004-23870+035380SY-MT+0015FQIN V0201701N005110060019N0200001N1+02751+02421100731ADDAA106003091AY161061AY221061GA1071+006009999GA2071+007509999GF107991071081008001999999MA1100711999999MD1710171+9999MW1021REMSYN086    AAXX  17124 67323 11570 71710 10275 20242 40073 57017 60031 70262 878// 333 94324;MET052FQIN 171200Z 17010KT 9999 BKN020 BKN025 28/24 Q1007;EQDQ01+000000PRSWM2Q02    003PRSWM1
0256673230999992000011715004-23870+035380SY-MT+0015FQIN V0201201N005110060019N0200001N1+02731+02421100721ADDGA1071+006009999GA2071+007509999GF107991071081008001999999MA1100711999999MD1510011+9999MW1001REMSYN074    AAXX  17154 67323 42570 71210 10273 20242 40072 55001 878// 333 94324;MET052FQIN 171500Z 17010KT 9999 BKN020 BKN025 27/24 Q1007;EQDQ01+000000PRSWM2
0350673230999992000011806004-23870+035380SY-MT+001599999V0201801N00621006001CN0200001N1+02521+02211101181ADDAA124011991AY161061GA1071+006009999GA2081+030009999GF108991061021008001071999KA1120N+02001MA1101191999999MD1210141+9999MW1021REMSYN120    AAXX  18064 67323 11570 81812 10252 20221 40118 52014 60124 7026/ 8627/ 333 20200 50/// 55/// 94324 555 00120 10000;MET052FQIN 180600Z 18012KT 9999 BKN020 OVC100 25/22 Q1012;EQDQ01+000000PRSWM2Q02    003PRSWM1
0241673230999992000011809004-23870+035380SY-MT+001599999V0201801N00771030001CN0200001N1+02621+02041101231ADDGA1081+030009999GF108991061021008001071999MA1101191999999MD1010051+9999MW1001REMSYN074    AAXX  18094 67323 42570 81815 10262 20204 40123 50005 8627/ 333 94324;MET053FQIN 180900Z 18015KT 9999 BKJN020 OVC100 26/24 Q1012;EQDQ01+000000PRSWM2
0283673230999992000011812004-23870+035380SY-MT+001599999V0201801N00771006001CN0200001N1+02751+01981101211ADDAA199000091GA1071+006009999GA2081+030009999GF108991061021008001071999MA1101191999999MD1810021+9999MW1001REMSYN074    AAXX  18124 67323 32570 81815 10275 20198 40121 58002 8627/ 333 94324;MET052FQIN 181200Z 18015KT 9999 BKN020 OVC100 29/20 Q1012;EQDQ01+000000PRSWM2Q02  00002PRCP99
0112673230999992000011903004-23870+035380FM-12+001599999V0201901N004112200019N0300001N1+02301+02141101521ADDGF103991031021008001001001REMSYN074    AAXX  19034 67323 42580 31908 10230 20214 40152 5//// 83200 333 94324;
0307673230999992000011906004-23870+035380SY-MT+001599999V0201801N00571006001CN0300001N1+02641+01871101631ADDAA124002091GA1071+006009999GF199999051021008001001001KA1120N+02021MA1101591999999MD1210111+9999MW1001REMSYN108    AAXX  19064 67323 12580 51811 10264 20187 40163 52011 60024 85200 333 20202 50/// 94324 555 00023 10120;MET045FQIN 190700Z 19010KT 9999 BKN020 27/20 Q1016;EQDQ01+000052SCOTCVQ02+000000PRSWM2
0139673230999992000011907004-23870+035380FM-15+0015FQIN V0201901N005110060019N0112651N1+02701+02001999999ADDGA1071+006009999GF107991999999999999999999MA1101591999999MW1001REMMET045FQIN 190700Z 19010KT 9999 BKN020 27/20 Q1016;EQDQ01+000000PRSWM2
0139673230999992000011908004-23870+035380FM-15+0015FQIN V0201901N006710060019N0112651N1+02801+02001999999ADDGA1071+006009999GF107991999999999999999999MA1101591999999MW1001REMMET045FQIN 190800Z 19013KT 9999 BKN020 28/20 Q1016;EQDQ01+000000PRSWM2
0249673230999992000011909004-23870+035380SY-MT+001599999V0202001N00721006001CN0300001N1+02781+01951101681ADDGA1071+006009999GF199999051021008001001001MA1101691999999MD1310051+9999MW1001REMSYN074    AAXX  19094 67323 42580 52014 10278 20195 40168 53005 85200 333 94320;MET045FQIN 190900Z 20014KT 9999 BKN020 28/20 Q1017;EQDQ01+000052SCOTCVQ02+000000PRSWM2
0139673230999992000011910004-23870+035380FM-15+0015FQIN V0201901N006210060019N0112651N1+02901+01801999999ADDGA1071+006009999GF107991999999999999999999MA1101691999999MW1001REMMET045FQIN 191000Z 19012KT 9999 BKN020 29/18 Q1017;EQDQ01+000000PRSWM2
0156673230999992000011912004-23870+035380FM-12+001599999V0202301N007210075019N0300001N1+02701+01831101611ADDAA199000091GF105991051091008001001001MD1810071+9999REMSYN074    AAXX  19124 67323 32580 52314 10270 20183 40161 58007 85900 333 94327;EQDQ01  00002PRCP99
0150673230999992000011915004-23870+035380FM-12+0015FQIN V0201901N005710075019N0150001N1+02521+02181101601ADDAY181031AY221031GF105991051021008001001001MD1510011+9999MW1251REMSYN076AAXX  19154 67323 41565 51911 10252 20218 40160 55001 72582 85200 333 94324;
0316673230999992000012006004-23870+035380SY-MT+0015FQIN V0202401N00101006001CN0300001N1+02401+02111101891ADDAA124009991GA1071+006009999GA2071+007509999GF107991071081008001999999KA1120N+01991MA1101901999999MD1210121+9999MW1001REMSYN110AAXX  20064 67323 12580 72402 10240 20211 40189 52012 60104 878// 333 20199 50/// 55/// 94386 555 00098 10023;MET052FQIN 200600Z 24002KT 9999 BKN020 BKN025 24/21 Q1019;EQDQ01+000000PRSWM2
0162673230999992000012008004-23870+035380FM-15+0015FQIN V0201801N005110060019N0112651N1+02601+02001999999ADDGA1071+006009999GA2071+007509999GF107991999999999999999999MA1101801999999MW1001REMMET052FQIN 200800Z 18010KT 9999 BKN020 BKN025 26/20 Q1018;EQDQ01+000000PRSWM2
0122673230999992000012009004-23870+035380FM-12+0015FQIN V0201601N005110075019N0300001N1+02801+01951101821ADDGF105991051021008001001001MD1710071+9999REMSYN070AAXX  20094 67323 42580 51610 10280 20195 40182 57007 85200 333 94320;
0139673230999992000012013004-23870+035380FM-15+0015FQIN V0201801N005110060019N0112651N1+02801+02101999999ADDGA1071+006009999GF107991999999999999999999MA1101591999999MW1001REMMET045FQIN 201300Z 18010KT 9999 BKN020 28/21 Q1016;EQDQ01+000000PRSWM2
0139673230999992000012014004-23870+035380FM-15+0015FQIN V0201801N006210060019N0112651N1+02801+02001999999ADDGA1071+006009999GF107991999999999999999999MA1101591999999MW1001REMMET045FQIN 201400Z 18012KT 9999 BKN020 28/20 Q1016;EQDQ01+000000PRSWM2
0245673230999992000012015004-23870+035380SY-MT+0015FQIN V0201801N00411006001CN0300001N1+02701+01981101661ADDGA1071+006009999GF199999061021008001001001MA1101591999999MD1510041+9999MW1001REMSYN070AAXX  20154 67323 42580 61808 10270 20198 40166 55004 86200 333 94324;MET045FQIN 201500Z 18008KT 9999 BKN020 27/20 Q1016;EQDQ01+000062SCOTCVQ02+000000PRSWM2
0313673230999992000012106004-23870+035380SY-MT+0015FQIN V0201601N00511006001CN0300001N1+02511+01951101751ADDAA199000091GA1071+006009999GF199999051021008001001001KA1120N+02091MA1101691999999MD1210111+9999MW1001REMSYN098AAXX  21064 67323 32580 51610 10251 20195 40175 52011 85200 333 20209 50/// 55/// 94320 555 10098;MET045FQIN 210600Z 16010KT 9999 BKN020 25/20 Q1017;EQDQ01+000052SCOTCVQ02+000000PRSWM2Q03  00002PRCP99
0139673230999992000012107004-23870+035380FM-15+0015FQIN V0201601N005110060019N0112651N1+02801+01801999999ADDGA1071+006009999GF107991999999999999999999MA1101691999999MW1001REMMET045FQIN 210700Z 16010KT 9999 BKN020 28/18 Q1017;EQDQ01+000000PRSWM2
0204673230999992000012109004-23870+035380SY-MT+0015FQIN V0201601N005110075019N0300001N1+02801+01941101691ADDGF105991051021008001001001MD1710061+9999MW1001REMSYN070AAXX  21094 67323 42580 51610 10280 20194 40169 57006 85200 333 94324;MET051FQIN 0900Z 20900Z 16010KT 99999 BKN020 28/19 Q1017;EQDQ01+000000PRSWM2
0139673230999992000012112004-23870+035380FM-15+0015FQIN V0201001N004612200019N0112651N1+02901+01901999999ADDGA1021+006009999GF104991999999999999999999MA1101491999999MW1001REMMET045FQIN 211200Z 10009KT 9999 SCT020 29/19 Q1015;EQDQ01+000000PRSWM2
0139673230999992000012113004-23870+035380FM-15+0015FQIN V0201201N005112200019N0112651N1+02901+01901999999ADDGA1021+006009999GF104991999999999999999999MA1101391999999MW1001REMMET045FQIN 211300Z 12010KT 9999 SCT020 29/19 Q1014;EQDQ01+000000PRSWM2
0229673230999992000012115004-23870+035380SY-MT+0015FQIN V0201301N004112200019N0300001N1+02781+01971101461ADDGA1021+006009999GF102991021021008001001001MA1101391999999MD1510031+9999MW1001REMSYN070AAXX  21154 67323 42580 21308 10278 20197 40146 55003 82200 333 94320;MET045FQIN 211500Z 13008KT 9999 FEW020 28/20 Q1014;EQDQ01+000000PRSWM2
0284673230999992000012206004-23870+035380SY-MT+0015FQIN V0201201N004112200019N0300001N1+02761+02101101461ADDAA199000091GA1021+006009999GF102991021021008001001001MA1101391999999MD1210031+9999MW1001REMSYN098AAXX  22064 67323 32580 21208 10276 20210 40146 52003 82200 333 20/// 50/// 55/// 94320 555 10000;MET045FQIN 220600Z 12008KT 9999 FEW020 28/21 Q1014;EQDQ01+000000PRSWM2Q02  00002PRCP99
0140673230999992000012207004-23870+035380FM-15+0015FQIN V0200901N004112200019N0112651N1+02101+01701999999ADDGA1021+004509999GF104991999999999999999999MW1001REMMET045FQIN 220700Z 09008KT 9999 SCT015 21/17 Q1021;EQDQ01+102103APOA  Q02+000000PRSWM2
0139673230999992000012208004-23870+035380FM-15+0015FQIN V0201601N005112200019N0112651N1+03002+01901999999ADDGA1021+006009999GF104991999999999999999999MA1101391999999MW1001REMMET045FQIN 220800Z 16010KT 9999 SCT020 30/19 Q1014;EQDQ01+000000PRSWM2
0256673230999992000012212004-23870+035380SY-MT+0015FQIN V0201201N005112200019N0300001N1+02881+01901101321ADDAA199000091GA1021+006009999GF103991031021008001001001MA1101291999999MD1710101+9999MW1001REMSYN070AAXX  22124 67323 32580 31210 10288 20190 40132 57010 83200 333 94323;MET045FQIN 221200Z 12010KT 9999 SCT020 29/19 Q1013;EQDQ01+000000PRSWM2Q02  00002PRCP99
0139673230999992000012213004-23870+035380FM-15+0015FQIN V0201201N003112200019N0112651N1+02901+01901999999ADDGA1021+006009999GF104991999999999999999999MA1101291999999MW1001REMMET045FQIN 221300Z 12006KT 9999 SCT020 29/19 Q1013;EQDQ01+000000PRSWM2
0256673230999992000012312004-23870+035380SY-MT+0015FQIN V0201701N005112200019N0300001N1+03001+01861101331ADDAA199000091GA1021+006009999GF102991021011008001001001MA1101291999999MD1710101+9999MW1001REMSYN070AAXX  23124 67323 32580 21710 10300 20186 40133 57010 82100 333 94330;MET045FQIN 231300Z 17010KT 9999 FEW020 30/17 Q1013;EQDQ01+000000PRSWM2Q02  00002PRCP99
0139673230999992000012313004-23870+035380FM-15+0015FQIN V0201701N005112200019N0112651N1+03001+01701999999ADDGA1021+006009999GF102991999999999999999999MA1101291999999MW1001REMMET045FQIN 231300Z 17010KT 9999 FEW020 30/17 Q1013;EQDQ01+000000PRSWM2
0229673230999992000012315004-23870+035380SY-MT+0015FQIN V0201601N005112200019N0300001N1+02841+01911101301ADDGA1021+006009999GF102991021011008001001001MA1101291999999MD1510031+9999MW1001REMSYN070AAXX  23154 67323 42580 21610 10284 20191 40130 55003 82100 333 94310;MET045FQIN 231500Z 16010KT 9999 FEW020 28/19 Q1013;EQDQ01+000000PRSWM2
0193673230999992000012406004-23870+035380FM-12+0015FQIN V0201701N002610120019N0300001N1+02621+02031101461ADDAA199000091GF106991061081008001001001KA1120N+02001MD1210041+9999REMSYN098AAXX  24064 67323 32580 61705 10262 20203 40146 52004 86800 333 20200 50/// 55/// 94320 555 10000;EQDQ01  00002PRCP99
0268673230999992000012409004-23870+035380SY-MT+0015FQIN V0202001N00511007501CN0300001N1+02951+02201101391ADDGA1021+006009999GA2071+007509999GF199999061081008001001001MA1101391999999MD1810071+9999MW1001REMSYN070AAXX  24094 67323 42580 62010 10295 20220 40139 58007 86800 555 94324;MET052FQIN 240900Z 20010KT 9999 SCT020 BKN025 30/22 Q1014;EQDQ01+000062SCOTCVQ02+000000PRSWM2
0152673230999992000012412004-23870+035380FM-12+0015FQIN V0201701N005110075019N0300001N1+03001+02171101221ADDAA199000091GF105991051021008001001001MD1710171+9999REMSYN070AAXX  24124 67323 32580 51710 10300 20217 40122 57017 85200 333 94320;EQDQ01  00002PRCP99
0139673230999992000012413004-23870+035380FM-15+0015FQIN V0201901N006210060019N0112651N1+03001+02201999999ADDGA1071+006009999GF107991999999999999999999MA1101081999999MW1001REMMET045FQIN 241300Z 19012KT 9999 BKN020 30/22 Q1011;EQDQ01+000000PRSWM2
0139673230999992000012414004-23870+035380FM-15+0015FQIN V0201901N004112200019N0112651N1+03001+02301999999ADDGA1021+006009999GF104991999999999999999999MA1101081999999MW1001REMMET045FQIN 241400Z 19008KT 9999 SCT020 30/23 Q1011;EQDQ01+000000PRSWM2
0102673230999992000012415004-23870+035380FM-12+0015FQIN V0201801N005112200019N0300001N1+03001+02191101171ADDGF104991041021008001001001REMSYN064AAXX  24154 67323 42580 41810 10300 20219 40117 84200 333 94324;
0293673230999992000012506004-23870+035380SY-MT+0015FQIN V0209999C000012200019N0300001N1+02701+02461101311ADDAA124002091GA1021+006009999GF102991021011008001001001KA1120N+02251MA1101291999999MD1010051+9999MW1001REMSYN110AAXX  25064 67323 12580 20000 10270 20246 40131 50005 60024 82100 333 20225 50/// 55/// 94310 555 00010 10000;MET045FQIN 250600Z 00000KT 9999 FEW020 27/25 Q1013;EQDQ01+000000PRSWM2
0161673230999992000012508004-23870+035380FM-15+0015FQIN V0202601N002610060019N0090001N1+02801+02501999999ADDGA1071+006009999GF107991999999999999999999MA1101291999999MW1611REMMET051FQIN 250800Z 26005KT 9000 -RASH BKN020 28/25 Q1013;EQDQ01+000003PRSWM1Q02    003PRSWM1
0267673230999992000012509004-23870+035380SY-MT+0015FQIN V0209999C000010060019N0200001N1+02901+02491101251ADDAY181031AY211031GA1071+006009999GF106991061021008001001001MA1101191999999MD1810061+9999MW1251REMSYN076AAXX  25094 67323 41570 60000 10290 20249 40125 58006 72581 86200 333 94320;MET045FQIN 250900Z 00000KT 9999 BKN020 29/25 Q1012;EQDQ01+000000PRSWM2Q02    003PRSWM1
0278673230999992000012512004-23870+035380SY-MT+0015FQIN V0200401N004112200019N0300001N1+03161+02401101041ADDAA199000021AY181061AY211061GA1021+006009999GF104991041021008001001001MA1101021999999MD1710211+9999MW1011REMSYN076AAXX  25124 67323 31580 40408 10316 20240 40104 57021 70181 84200 333 94320;MET045FQIN 251200Z 04008KT 9999 SCT020 32/24 Q1010;EQDQ01+000000PRSWM2Q02    003PRSWM1
0139673230999992000012514004-23870+035380FM-15+0015FQIN V0201501N005110060019N0112651N1+03001+02301999999ADDGA1071+006009999GF107991999999999999999999MA1101021999999MW1001REMMET045FQIN 251400Z 15010KT 9999 BKN020 30/23 Q1010;EQDQ01+000000PRSWM2
0134673230999992000012515004-23870+035380FM-12+0015FQIN V0201501N005110075019N0300001N1+02921+02361101021ADDGF105991051021008001001001IA2999+04309MD1710021+9999REMSYN070AAXX  25154 67323 42580 51510 10292 20236 40102 57002 85200 333 04323;
0297673230999992000012606004-23870+035380SY-MT+0015FQIN V0201901N002112200019N0300001N1+02841+02531101091ADDAA199000091GA1021+006009999GF104991041021008001001001KA1120N+02221MA1101081999999MD1210041+9999MW1001REMSYN098AAXX  26064 67323 32580 41904 10284 20253 40109 52004 84200 333 20222 50/// 55/// 94320 555 10015;MET045FQIN 260600Z 19004KT 9999 SCT020 28/25 Q1011;EQDQ01+000000PRSWM2Q02  00002PRCP99
0245673230999992000012609004-23870+035380SY-MT+0015FQIN V0200901N00411006001CN0300001N1+03051+02581101071ADDGA1071+006009999GF199999061021008001001011MA1101021999999MD1810021+9999MW1001REMSYN070AAXX  26094 67323 42580 60908 10305 20258 40107 58002 86201 333 94320;MET045FQIN 260900Z 09008KT 9999 BKN020 31/26 Q1010;EQDQ01+000062SCOTCVQ02+000000PRSWM2
0297673230999992000012706004-23870+035380SY-MT+0015FQIN V0201601N003610060019N0300001N1+02901+02371101031ADDAA199000091GA1071+006009999GF106991061021008001001001KA1120N+02231MA1101021999999MD1210111+9999MW1001REMSYN098AAXX  27064 67323 32580 61607 10290 20237 40103 52011 86200 333 20223 50/// 55/// 94320 555 10000;MET045FQIN 270600Z 16007KT 9999 BKN020 29/24 Q1010;EQDQ01+000000PRSWM2Q02  00002PRCP99
0139673230999992000012708004-23870+035380FM-15+0015FQIN V0202701N001512200019N0112651N1+03001+02501999999ADDGA1021+006009999GF104991999999999999999999MA1100911999999MW1001REMMET045FQIN 270800Z 27003KT 9999 SCT020 30/25 Q1009;EQDQ01+000000PRSWM2
0245673230999992000012709004-23870+035380SY-MT+0015FQIN V0203101N00311006001CN0300001N1+03161+02541100941ADDGA1071+006009999GF199999051021008001001001MA1100911999999MD1710091+9999MW1001REMSYN070AAXX  27094 67323 42580 53106 10316 20254 40094 57009 85200 333 94320;MET045FQIN 270900Z 31006KT 9999 BKN020 32/25 Q1009;EQDQ01+000052SCOTCVQ02+000000PRSWM2
0279673230999992000012712004-23870+035380SY-MT+0015FQIN V0201601N00411030001CN0300001N1+03161+02421100781ADDAA199000091GA1021+006009999GA2071+030009999GF107991041021008001071999MA1100811999999MD1710161+9999MW1001REMSYN070AAXX  27124 67323 32580 71608 10316 20242 40078 57016 8427/ 333 94320;MET052FQIN 271200Z 16008KT 9999 SCT020 BKN100 32/24 Q1008;EQDQ01+000000PRSWM2Q02  00002PRCP99
0162673230999992000012713004-23870+035380FM-15+0015FQIN V0201601N004110300019N0112651N1+03101+02401999999ADDGA1021+006009999GA2071+030009999GF107991999999999999999999MA1100711999999MW1001REMMET052FQIN 271300Z 16008KT 9999 SCT020 BKN100 31/24 Q1007;EQDQ01+000000PRSWM2
0320673230999992000012806004-23870+035380SY-MT+0015FQIN V0203601N00261006001CN0300001N1+02901+02511100661ADDAA199000091GA1071+006009999GA2071+007509999GF107991071081008001999999KA1120N+02361MA1100611999999MD1110031+9999MW1001REMSYN098AAXX  28064 67323 32580 73605 10290 20251 40066 51003 878// 333 20236 50/// 55/// 94320 555 10000;MET052FQIN 280600Z 36005KT 9999 BKN020 BKN025 29/29 Q1006;EQDQ01+000000PRSWM2Q02  00002PRCP99
0162673230999992000012807004-23870+035380FM-15+0015FQIN V0209999C000010060019N0112651N1+03001+02501999999ADDGA1071+006009999GA2071+007509999GF107991999999999999999999MA1100611999999MW1001REMMET052FQIN 280700Z 00000KT 9999 BKN020 BKN025 30/25 Q1006;EQDQ01+000000PRSWM2
0252673230999992000012809004-23870+035380SY-MT+0015FQIN V0203601N00211006001CN0300001N1+03161+02541100571ADDGA1071+006009999GA2071+007509999GF107991071081008001999999MA1100511999999MD1710091+9999MW1001REMSYN070AAXX  28094 67323 42580 73604 10316 20254 40057 57009 878// 333 94380;MET052FQIN 280900Z 36004KT 9999 BKN020 BKN025 32/25 Q1005;EQDQ01+000000PRSWM2
0317673230999992000012812004-23870+035380SY-MT+0015FQIN V0200701N004110060019N0150001N1+03061+02591100341ADDAA199000091AY121061AY221061GA1071+006009999GA2071+007509999GF107991071081008001999999MA1100311999999MD1710231+9999MW1151REMSYN076AAXX  28124 67323 31565 70708 10306 20259 40034 57023 71522 878// 333 94380;MET052FQIN 281200Z 07003KT 9999 BKN020 BKN025 31/22 Q1003;EQDQ01+000000PRSWM2Q02  00002PRCP99Q03    003PRSWM1
0204673230999992000012813004-23870+035380FM-15+0015FQIN V0201601N00311220001CN0080001N1+03001+01602999999ADDGA1071+006009999GA2071+007509999GA3021+009009099MA1100311999999MW1811MW2951REMMET066FQIN 281300Z 16006KT 8000 TSRA BKN020 BKN025 FEW030CB 30/16 Q1003;EQDQ01+000022SCOTCVQ02+000003PRSWM1Q03    003PRSWM1
0214673230999992000012814004-23870+035380FM-15+0015FQIN V0200701N003110060019N0060001N1+02801+01701999999ADDGA1071+006009999GA2021+007509099GA3071+030009999GF107991999999999999999999MA1100201999999MW1811MW2951REMMET066FQIN 281400Z 07006KT 6000 TSRA BKN020 FEW025CB BKN100 28/17 Q1002;EQDQ01+000003PRSWM1Q02    003PRSWM1
0304673230999992000012815004-23870+035380SY-MT+0015FQIN V0200701N00511030001CN0060001N1+02601+02471100261ADDAY191031AY221031GA1021+007509099GA2071+007509999GA3071+030009999GF108991061091008001071999MA1100201999999MD1710161+9999MW1951REMSYN076AAXX  28154 67323 41556 80710 10260 20247 40026 57016 79592 8697/ 333 94392;MET066FQIN 281500Z 07010KT 6000 TSRA BKN025 FEW025CB BKN100 26/25 Q1002;EQDQ01    003PRSWM1
0150673230999992000012909004-23870+035380FM-12+0015FQIN V0202401N003110075019N0200001N1+02861+02501100561ADDAY181031AY221031GF108991061091008001071999MD1110061+9999MW1251REMSYN076AAXX  29094 67323 41570 82406 10286 20250 40056 51006 72582 8697/ 333 94390;
0167673230999992000012912004-23870+035380FM-12+0015FQIN V0202501N001510075019N0300001N1+03081+99999100481ADDAA106000191AY181061AY221061GF107991071091008001999999MD1710081+9999MW1021REMSYN082AAXX  29124 67323 11580 72503 10308 20363 40048 57008 69921 70282 879// 333 94390;
0177673230999992000012915004-23870+035380FM-15+0015FQIN V0202001N00211220001CN0112651N1+03101+02401999999ADDGA1021+006009999GA2071+007509999GA3021+009009099MA1100411999999MW1001REMMET061FQIN 291500Z 20004KT 9999 FEW020 BKN025 FEW030CB 31/24 Q1004;EQDQ01+000022SCOTCVQ02+000000PRSWM2
0180673230999992000013006004-23870+035380FM-12+0015FQIN V0202201N003112200019N0300001N1+02761+02421100991ADDAA124000191GF104991031021008001001011KA1120N+02331MD1210191+9999REMSYN104AAXX  30064 67323 12580 42206 10276 20242 40099 52019 69924 83201 333 20233 50/// 55/// 94320 555 10377;
0139673230999992000013007004-23870+035380FM-15+0015FQIN V0202101N005112200019N0112651N1+03001+02301999999ADDGA1021+006009999GF104991999999999999999999MA1101021999999MW1001REMMET045FQIN 300700Z 21010KT 9999 SCT020 30/23 Q1010;EQDQ01+000000PRSWM2
0245673230999992000013009004-23870+035380SY-MT+0015FQIN V0201901N00361006001CN0300001N1+03061+02291100991ADDGA1071+006009999GF199999051021008001001011MA1101021999999MD1010001+9999MW1001REMSYN070AAXX  30094 67323 42580 61907 10306 20229 40099 50000 85201 333 94320;MET045FQIN 300900Z 19007KT 9999 BKN020 31/23 Q1010;EQDQ01+000062SCOTCVQ02+000000PRSWM2
0323673230999992000013112004-23870+035380SY-MT+0015FQIN V0201501N005112200019N0300001N1+03061+02291101061ADDAA199000091GA1021+006009999GA2021+007509099GA3071+999999999GF199999031021008001001001MA1101021999999MD1810071+9999MW1001REMSYN070AAXX  31124 67323 32580 31510 10306 20229 40106 58007 83200 333 94320;MET064FQIN 311200Z 35006KT 9999 TS SCT020 SCT025CB BKN/// 27/23 Q1010;EQDQ01+000032SCOTCVQ02+000000PRSWM2Q03  00002PRCP99
0139673230999992000013113004-23870+035380FM-15+0015FQIN V0201601N005112200019N0112651N1+03101+02301999999ADDGA1021+006009999GF104991999999999999999999MA1101081999999MW1001REMMET045FQIN 311300Z 16010KT 9999 SCT020 31/23 Q1011;EQDQ01+000000PRSWM2
0139673230999992000013114004-23870+035380FM-15+0015FQIN V0201501N005112200019N0112651N1+03001+02301999999ADDGA1021+006009999GF102991999999999999999999MA1101021999999MW1001REMMET045FQIN 311400Z 15010KT 9999 FEW020 30/23 Q1010;EQDQ01+000000PRSWM2
0217673230999992000020206004-23870+035380FM-12+0015FQIN V0201701N004610120019N0200001N1+02831+02531101031ADDAA124006191AY191061GF106991061081008001001001KA1120N+02381MD1210061+9999MW1021OA150601201REMSYN116AAXX  02064 67323 11570 61709 10283 20253 40103 52006 60064 7029/ 86800 333 20238 50/// 55120 94320 555 00059 10000;
0150673230999992000020215004-23870+035380FM-12+0015FQIN V0201601N002610075019N0080001N1+02701+02571100931ADDAY191031AY261031GF108991061091008001071999MD1710011+9999MW1951REMSYN076AAXX  02154 67323 41558 81605 10270 20257 40093 57001 79596 8697/ 333 94321;
0213673230999992000020406004-23870+035380FM-15+0015FQIN V0201701N005110060019N0090001N1+02701+02501999999ADDGA1021+003009999GA2071+006009999GA3071+030009999GF107991999999999999999999MA1101191999999MW1511MW2611REMMET065FQIN 040600Z 17010KT 9000 -RADZ SCT010 BKN020 BKN100 27/25 Q1012;EQDQ01+000003PRSWM1Q02    003PRSWM1
0167673230999992000020412004-23870+035380FM-12+0015FQIN V0201501N006210042019N0090001N1+02581+02331101121ADDAA106004191AY191061AY261061GF108991051071004501071999MD1710131+9999MW1501REMSYN082AAXX  04124 67323 11459 81512 10258 20233 40112 57013 60041 75096 8577/ 333 94374;
0150673230999992000020415004-23870+035380FM-12+0015FQIN V0201301N009310075019N0040001N1+02361+02271101151ADDAY161031AY261031GF108991061021008001071999MD1310031+9999MW1631REMSYN076AAXX  04154 67323 41540 81318 10236 20227 40115 53003 76366 8627/ 333 94324;
0174673230999992000020506004-23870+035380FM-12+0015FQIN V0201301N004110075019N0300001N1+02781+02541101181ADDAA124063091GF106991051021008001031001KA1120N+02101MD1210101+9999REMSYN098AAXX  05064 67323 12580 61308 10278 20254 40118 52010 60634 85230 333 20210 94322 555 00625 10443;
0162673230999992000020513004-23870+035380FM-15+0015FQIN V0201301N003110060019N0112651N1+02701+02501999999ADDGA1071+006009999GA2071+030009999GF107991999999999999999999MA1101081999999MW1001REMMET052FQIN 051300Z 13006KT 9999 BKN020 BKN100 27/25 Q1011;EQDQ01+000000PRSWM2
0252673230999992000020515004-23870+035380SY-MT+0015FQIN V0200901N00511006001CN0200001N1+02721+02561101051ADDGA1071+006009999GA2071+030009999GF108991061021008001071999MA1101021999999MD1610061+9999MW1001REMSYN070AAXX  05154 67323 42570 80910 10272 20256 40105 56006 8627/ 333 94320;MET052FQIN 051500Z 09010KT 9999 BKN020 BKN100 27/26 Q1010;EQDQ01+000000PRSWM2
0216673230999992000020606004-23870+035380FM-12+0015FQIN V0200901N004110360019N0200001N1+02861+02641101241ADDAA124025991GF107991021051008001071999KA1120N+02251MD1210051+9999OA150699999REMSYN110AAXX  06064 67323 12570 70908 10286 20264 40124 52005 60264 8257/ 333 20225 50/// 55019 94320 555 00260 10625;EQDQ01  00102WGOSPD
0215673230999992000020609004-23870+035380FM-15+0015FQIN V0200901N002610060019N0090001N1+02701+02601999999ADDGA1071+006009999GA2021+007509099GA3071+030009999GF107991999999999999999999MA1101291999999MW1171MW2611REMMET067FQIN 060900Z 09005KT 9000 -RATS BKN020 SCT025CB BKN100 27/26 Q1013;EQDQ01+000003PRSWM1Q02    003PRSWM1
0157673230999992000020612004-23870+035380FM-12+0015FQIN V0200901N002110075019N0090001N1+02801+02541101211ADDAA106000891AY191061AY291061GF108991061021008001071999MD1710101+9999MW1601REMSYN072AAXX  06124 67323 11559 80904 10280 20254 40121 57010 69971 76099 8627/;
0162673230999992000020614004-23870+035380FM-15+0015FQIN V0200901N002610060019N0112651N1+02701+02601999999ADDGA1071+006009999GA2081+030009999GF108991999999999999999999MA1101191999999MW1001REMMET052FQIN 061400Z 09005KT 9999 BKN020 OVC100 27/26 Q1012;EQDQ01+000000PRSWM2
0256673230999992000020712004-23870+035380SY-MT+0015FQIN V0200501N003612200019N0300001N1+03141+02421101361ADDAA199000091GA1021+006009999GF104991041021008001001001MA1101291999999MD1510111+9999MW1001REMSYN070AAXX  07124 67323 32580 40507 10314 20242 40136 55011 84200 333 94320;MET045FQIN 071200Z 05005KT 9999 SCT020 31/24 Q1013;EQDQ01+000000PRSWM2Q02  00002PRCP99
0139673230999992000020713004-23870+035380FM-15+0015FQIN V0200901N002612200019N0112651N1+03101+02401999999ADDGA1021+006009999GF104991999999999999999999MA1101291999999MW1001REMMET045FQIN 071300Z 09005KT 9999 SCT020 31/24 Q1013;EQDQ01+000000PRSWM2
0229673230999992000020715004-23870+035380SY-MT+0015FQIN V0201301N005112200019N0300001N1+03021+02451101301ADDGA1021+006009999GF103991031021008001001011MA1101291999999MD1610061+9999MW1001REMSYN070AAXX  07154 67323 42580 31310 10302 20245 40130 56006 83201 333 94320;MET045FQIN 071500Z 13010KT 9999 SCT020 30/25 Q1013;EQDQ01+000000PRSWM2
0198673230999992000020806004-23870+035380FM-12+0015FQIN V0209999C000010075019N0300001N1+02791+02531101271ADDAA199000091GF107991051021008001051999KA1120N+02261MD1510001+9999OA150601101REMSYN092AAXX  08064 67323 32580 70000 10279 20253 40127 55000 8525/ 333 20226 50/// 55118 555 10044;EQDQ01  00002PRCP99
0122673230999992000020809004-23870+035380FM-12+0015FQIN V0203601N002110075019N0300001N1+02921+02501101241ADDGF106991061021008001001001MD1810031+9999REMSYN070AAXX  08094 67323 42580 63604 10292 20250 40124 58003 86200 333 94320;
0139673230999992000020810004-23870+035380FM-15+0015FQIN V0200301N002110060019N0112651N1+03001+02501999999ADDGA1071+006009999GF107991999999999999999999MA1101191999999MW1001REMMET045FQIN 081000Z 03004KT 9999 BKN020 30/25 Q1012;EQDQ01+000000PRSWM2
0152673230999992000020812004-23870+035380FM-12+0015FQIN V0200801N003610075019N0300001N1+03131+02551101101ADDAA199000091GF105991051021008001001001MD1710141+9999REMSYN070AAXX  08124 67323 32580 50807 10313 20255 40110 57014 85200 333 94320;EQDQ01  00002PRCP99
0139673230999992000020813004-23870+035380FM-15+0015FQIN V0201801N004612200019N0112651N1+03101+02601999999ADDGA1021+006009999GF104991999999999999999999MA1101021999999MW1001REMMET045FQIN 081300Z 18009KT 9999 SCT020 31/26 Q1010;EQDQ01+000000PRSWM2
0229673230999992000020815004-23870+035380SY-MT+0015FQIN V0201701N004612200019N0300001N1+02991+02461101021ADDGA1021+006009999GF102991021011008001001011MA1101021999999MD1710081+9999MW1001REMSYN070AAXX  08154 67323 42580 21709 10299 20246 40102 57008 82101 333 94310;MET045FQIN 081500Z 17009KT 9999 FEW020 30/25 Q1010;EQDQ01+000000PRSWM2
0302673230999992000020906004-23870+035380SY-MT+0015FQIN V0201801N002110060019N0300001N1+02781+02531101221ADDAA199000091GA1071+006009999GF105991051021008001001001KA1120N+02261MA1101191999999MD1210111+9999MW1001OA150600901REMSYN092AAXX  09064 67323 32580 51804 10278 20253 40122 52011 85200 333 20226 50/// 55098 555 10000;MET045FQIN 090600Z 18004KT 9999 BKN020 28/25 Q1012;EQDQ01+000000PRSWM2Q02  00002PRCP99
0139673230999992000020907004-23870+035380FM-15+0015FQIN V0202601N001510060019N0112651N1+02901+02501999999ADDGA1071+006009999GF107991999999999999999999MA1101191999999MW1001REMMET045FQIN 090700Z 26003KT 9999 BKN020 29/25 Q1012;EQDQ01+000000PRSWM2
0139673230999992000020908004-23870+035380FM-15+0015FQIN V0202801N001012200019N0112651N1+03001+02401999999ADDGA1021+006009999GF104991999999999999999999MA1101191999999MW1001REMMET045FQIN 090800Z 28002KT 9999 SCT020 30/24 Q1012;EQDQ01+000000PRSWM2
0139673230999992000020910004-23870+035380FM-15+0015FQIN V0200401N001012200019N0112651N1+03101+02601999999ADDGA1021+006009999GF104991999999999999999999MA1101081999999MW1001REMMET045FQIN 091000Z 04002KT 9999 SCT020 31/26 Q1011;EQDQ01+000000PRSWM2
0108673230999992000021003004-23870+035380FM-12+0015FQIN V0209999C000010360019N0300001N1+02561+02361101131ADDGF105991021021008001031001REMSYN070AAXX  10034 67323 42580 50000 10256 20236 40113 5//// 82230 333 94320;
0204673230999992000021006004-23870+035380FM-12+0015FQIN V0201201N001510075019N0300001N1+02921+02371101231ADDAA199000091GF105991051021008001001011KA1120N+02341MD1010101+9999OA150601001REMSYN098AAXX  10064 67323 32580 51203 10292 20237 40123 50010 85201 333 20234 50/// 55109 94320 555 10000;EQDQ01  00002PRCP99
0268673230999992000021009004-23870+035380SY-MT+0015FQIN V0200901N00211006001CN0300001N1+03061+02451101231ADDGA1071+006009999GA2071+007509999GF199999061081008001001001MA1101191999999MD1010001+9999MW1001REMSYN070AAXX  10094 67323 42580 60904 10306 20245 40123 50000 86800 333 94382;MET052FQIN 100900Z 09004KT 9999 BKN020 BKN025 31/25 Q1012;EQDQ01+000062SCOTCVQ02+000000PRSWM2
0272673230999992000021212004-23870+035380SY-MT+0015FQIN V0201201N00411006001CN0300001N1+03181+02531100841ADDAA199000091GA1071+006009999GF199999051021008001001011MA1100811999999MD1710231+9999MW1001REMSYN070AAXX  12124 67323 32580 51208 10318 20253 40084 57023 85201 333 94320;MET045FQIN 121200Z 12008KT 9999 BKN020 32/25 Q1008;EQDQ01+000052SCOTCVQ02+000000PRSWM2Q03  00002PRCP99
0139673230999992000021213004-23870+035380FM-15+0015FQIN V0201201N004610060019N0112651N1+03101+02401999999ADDGA1071+006009999GF107991999999999999999999MA1100811999999MW1001REMMET045FQIN 121300Z 12009KT 9999 BKN020 31/24 Q1008;EQDQ01+000000PRSWM2
0307673230999992000021312004-23870+035380SY-MT+0015FQIN V0201801N00151220001CN0300001N1+02941+02491100961ADDAA199000091AY191061AY221061GA1071+006009999GA2021+007509099GF106991061091008001001001MA1100811999999MD1710081+9999MW1171REMSYN076AAXX  13124 67323 31580 61803 10294 20249 40096 57008 71792 86900 333 94320;MET058FQIN 131200Z 18003KT 9999 -TS BKN020 SCT025CB 29/25 Q1008;EQDQ01  00002PRCP99Q02    003PRSWM1
0308673230999992000021406004-23870+035380SY-MT+0015FQIN V0209999C000012200019N0300001N1+02821+02531101041ADDAA199000091GA1021+006009999GF102991021021008001001011KA1120N+02301MA1101021999999MD1210071+9999MW1001OA150600401REMSYN098AAXX  14064 67323 32580 20000 10282 20253 40104 52007 82201 333 20230 50/// 55047 94320 555 10005;MET045FQIN 140600Z 00000KT 9999 FEW020 28/25 Q1010;EQDQ01+000000PRSWM2Q02  00002PRCP99
0139673230999992000021408004-23870+035380FM-15+0015FQIN V0202701N002112200019N0112651N1+03101+02601999999ADDGA1021+006009999GF104991999999999999999999MA1101021999999MW1001REMMET045FQIN 140800Z 27004KT 9999 SCT020 31/26 Q1010;EQDQ01+000000PRSWM2
0139673230999992000021412004-23870+035380FM-15+0015FQIN V0203601N004612200019N0112651N1+03301+02501999999ADDGA1021+006009999GF104991999999999999999999MA1100811999999MW1001REMMET045FQIN 141200Z 36009KT 9999 SCT020 33/25 Q1008;EQDQ01+000000PRSWM2
0184673230999992000021415004-23870+035380FM-15+0015FQIN V0200301N004612200019N0112651N1+03101+02401999999ADDGA1021+006009999GA2021+007509099GF104991999999999999999999MA1100711999999MW1171REMMET058FQIN 141500Z 03009KT 9999 -TS SCT020 SCT025CB 31/24 Q1007;EQDQ01+000003PRSWM1Q02    003PRSWM1
0308673230999992000021506004-23870+035380SY-MT+0015FQIN V0203601N001512200019N0300001N1+02921+02621100871ADDAA199000091GA1021+006009999GF103991031021008001001001KA1120N+02451MA1100811999999MD1210101+9999MW1001OA150601101REMSYN098AAXX  15064 67323 32580 33603 10292 20262 40087 52010 83200 333 20245 50/// 55110 94320 555 10000;MET045FQIN 150600Z 36003KT 9999 SCT020 29/26 Q1008;EQDQ01+000000PRSWM2Q02  00002PRCP99
0139673230999992000021509004-23870+035380FM-15+0015FQIN V0200601N005112200019N0112651N1+03201+02501999999ADDGA1021+006009999GF104991999999999999999999MA1100811999999MW1001REMMET045FQIN 150900Z 06010KT 9999 SCT020 32/25 Q1008;EQDQ01+000000PRSWM2
0302673230999992000021512004-23870+035380SY-MT+0015FQIN V0200601N00671006001CN0300001N1+03191+02551100691ADDAA199000091AY111061AY211061GA1071+006009999GA2021+007509099GF199999061091008001001001MA1100711999999MW1171REMSYN070AAXX  15124 67323 31580 60613 10319 20255 40069 71711 86900 333 94390;MET057FQIN 151200Z 06013KT 9999 TS BKN020 FEW025CB 32/26 Q1007;EQDQ01+000062SCOTCVQ02  00002PRCP99Q03    003PRSWM1
0154673230999992000021513004-23870+035380FM-15+0015FQIN V0200601N00771220001CN0112651N1+03201+02501999999ADDGA1071+006009999GA2021+007509099MA1100611999999MW1001REMMET054FQIN 151300Z 06015KT 9999 BKN020 FEW025CB 32/25 Q1006;EQDQ01+000022SCOTCVQ02+000000PRSWM2
0222673230999992000021515004-23870+035380SY-MT+0015FQIN V0200601N004112200019N0300001N1+03081+02451999999ADDGA1021+006009999GF103991031021008001001011MD1710241+9999MW1001REMSYN070AAXX  15154 67323 42580 30608 10308 20245 47/33 57024 83201 333 94320;MET053FQIN 151500Z 06008KT 9999 SCT020 31/1EEE 31/25 Q1004;EQDQ01+000000PRSWM2
0150673230999992000021615004-23870+035380FM-12+0015FQIN V0201601N005110360019N0300001N1+02731+02401101121ADDAY191031AY221031GF106991031021008001031041MD1510021+9999MW1011REMSYN076AAXX  16154 67323 41580 61610 10273 20240 40112 55002 70192 83234 333 94320;
0150673230999992000021709004-23870+035380FM-12+0015FQIN V0201801N007710075019N0200001N1+02801+02371101331ADDAY181031AY221031GF108991061021008001071999MD1810031+9999MW1021REMSYN076AAXX  17094 67323 41570 81815 10280 20237 40133 58003 70282 8627/ 333 94323;
0167673230999992000021712004-23870+035380FM-12+0015FQIN V0201801N005110075019N0090001N1+02561+02351101221ADDAA106002091AY161061AY281061GF108991061091008001071999MD1810051+9999MW1611REMSYN082AAXX  17124 67323 11559 81810 10256 20235 40122 58005 60021 76168 8697/ 333 94394;
0150673230999992000021715004-23870+035380FM-12+0015FQIN V0201801N006210075019N0080001N1+02541+02461101171ADDAY161031AY261031GF108991061091008001071999MD1710111+9999MW1611REMSYN076AAXX  17154 67323 41558 81812 10254 20246 40117 57011 76166 8697/ 333 94394;
0108673230999992000021803004-23870+035380FM-12+0015FQIN V0202101N002610120019N0300001N1+02481+02361101121ADDGF106991061081008001001001REMSYN070AAXX  18034 67323 42580 62105 10248 20236 40112 5//// 86800 333 94320;
0336673230999992000021806004-23870+035380SY-MT+0015FQIN V0201801N00511006001CN0300001N1+02761+02431101221ADDAA124020191GA1071+006009999GF199999051021008001031001KA1120N+02161MA1101191999999MD1210101+9999MW1001OA150699999REMSYN110AAXX  18064 67323 12580 61810 10276 20243 40122 52010 60204 85230 333 20216 50/// 55030 94320 555 00198 10219;MET045FQIN 180600Z 18010KT 9999 BKN020 28/24 Q1012;EQDQ01+000062SCOTCVQ02+000000PRSWM2Q03  00302WGOSPD
0152673230999992000021809004-23870+035380FM-15+0015FQIN V0201501N00461220001CN0112651N1+02801+02501999999ADDGA1071+006009999GA2021+030009999MA1101081999999MW1001REMMET052FQIN 180900Z 15009KT 9999 BKN020 SCT100 28/25 Q1011;EQDQ01+000042SCOTCVQ02+000000PRSWM2
0300673230999992000021812004-23870+035380SY-MT+0015FQIN V0201601N00671006001CN0200001N1+02951+02351101091ADDAA106001091AY161061AY221061GA1071+006009999GF199999061021008001001011MA1101081999999MD1710071+9999MW1021REMSYN082AAXX  18124 67323 11570 61613 10295 20235 40109 57007 60011 70262 86201 333 94324;MET045FQIN 181200Z 16013KT 9999 BKN020 30/24 Q1011;EQDQ01+000062SCOTCVQ02+000000PRSWM2Q03    003PRSWM1
0139673230999992000021813004-23870+035380FM-15+0015FQIN V0201601N006710060019N0112651N1+03001+02401999999ADDGA1071+006009999GF107991999999999999999999MA1101021999999MW1001REMMET045FQIN 181300Z 16013KT 9999 BKN020 30/24 Q1010;EQDQ01+000000PRSWM2
0245673230999992000021815004-23870+035380SY-MT+0015FQIN V0201701N00511006001CN0300001N1+02871+02371101051ADDGA1071+006009999GF199999051021008001001001MA1101021999999MD1510041+9999MW1001REMSYN070AAXX  18154 67323 42580 51710 10287 20237 40105 55004 85200 333 94320;MET045FQIN 181500Z 17010KT 9999 BKN020 29/24 Q1010;EQDQ01+000052SCOTCVQ02+000000PRSWM2
0351673230999992000021906004-23870+035380SY-MT+0015FQIN V0201701N00511006001CN0090001N1+02731+02551101051ADDAA124010991AY161061GA1071+006009999GA2071+007509999GF107991071081008001999999KA1120N+02241MA1101021999999MD1210051+9999MW1601MW2611OA150600801REMSYN116AAXX  19064 67323 11559 71710 10273 20255 40105 52005 60114 7606/ 878// 333 20224 50/// 55085 94320 555 00107 10198;MET056FQIN 190600Z 17010KT 9000 -RA BKN020 BKN025 27/26 Q1010;EQDQ01    003PRSWM1
0162673230999992000021907004-23870+035380FM-15+0015FQIN V0201801N006210060019N0112651N1+02801+02401999999ADDGA1071+006009999GA2071+007509999GF107991999999999999999999MA1101021999999MW1001REMMET052FQIN 190700Z 18012KT 9999 BKN020 BKN025 28/24 Q1010;EQDQ01+000000PRSWM2
0162673230999992000021908004-23870+035380FM-15+0015FQIN V0201801N005710060019N0112651N1+02901+02501999999ADDGA1071+006009999GA2071+007509999GF107991999999999999999999MA1101021999999MW1001REMMET052FQIN 190800Z 18011KT 9999 BKN020 BKN025 29/25 Q1010;EQDQ01+000000PRSWM2
0326673230999992000021912004-23870+035380SY-MT+0015FQIN V0201801N00511006001CN0090001N1+02801+02531100841ADDAA106016091AY191061AY261061GA1071+006009999GA2021+007509099GA3071+027009999GF107991061091008001071999MA1100811999999MD1710211+9999MW1601MW2611REMSYN082AAXX  19124 67323 11559 71810 10280 20253 40084 57021 60161 76096 8697/ 333 94394;MET065FQIN 191200Z 18010KT 9000 -RA BKN020 FEW025CB BKN090 28/25 Q1008;EQDQ01    003PRSWM1
0115673230999992000021913004-23870+035380FM-15+0015FQIN V0201701N006212200019N0112651N1+99999+99999999999ADDMW1001MW2631REMMET072FQIN 191300Z 17012KT 9999 RAEEE RERA BKN020 FEW025CB BKN090 28/25 Q1008;EQDQ01+000003PRSWM1
0336673230999992000022006004-23870+035380SY-MT+0015FQIN V0201801N00621006001CN0300001N1+02821+02401100771ADDAA124018091GA1071+006009999GF199999061021008001001001KA1120N+02231MA1100811999999MD1210051+9999MW1001OA150699999REMSYN110AAXX  20064 67323 12580 61812 10282 20240 40077 52005 60184 86200 333 20223 50/// 55049 94322 555 00180 10107;MET045FQIN 200700Z 18010KT 9999 BKN020 29/24 Q1008;EQDQ01+000062SCOTCVQ02+000000PRSWM2Q03  00402WGOSPD
0139673230999992000022007004-23870+035380FM-15+0015FQIN V0201801N005110060019N0112651N1+02901+02401999999ADDGA1071+006009999GF107991999999999999999999MA1100811999999MW1001REMMET045FQIN 200700Z 18010KT 9999 BKN020 29/24 Q1008;EQDQ01+000000PRSWM2
0139673230999992000022008004-23870+035380FM-15+0015FQIN V0201801N005710060019N0112651N1+03001+02301999999ADDGA1071+006009999GF107991999999999999999999MA1100811999999MW1001REMMET045FQIN 200800Z 18011KT 9999 BKN020 30/23 Q1008;EQDQ01+000000PRSWM2
0245673230999992000022009004-23870+035380SY-MT+0015FQIN V0201801N00621006001CN0300001N1+03021+02441100721ADDGA1071+006009999GF199999061021008001001001MA1100711999999MD1810051+9999MW1001REMSYN070AAXX  20094 67323 42580 61812 10302 20244 40072 58005 86200 333 94324;MET045FQIN 200900Z 18012KT 9999 BKN020 30/24 Q1007;EQDQ01+000062SCOTCVQ02+000000PRSWM2
0139673230999992000022010004-23870+035380FM-15+0015FQIN V0201801N007210060019N0112651N1+02901+02501999999ADDGA1071+006009999GF107991999999999999999999MA1100711999999MW1001REMMET045FQIN 201000Z 18014KT 9999 BKN020 29/25 Q1007;EQDQ01+000000PRSWM2
0287673230999992000022012004-23870+035380SY-MT+0015FQIN V0201801N00931006001CN0200001N1+02921+02481100551ADDAA106008991AY181061AY221061GA1071+006009999GA2071+007509999GF107991071081008001999999MA1100511999999MW1251REMSYN076AAXX  20124 67323 11570 71818 10292 20248 40055 60091 72582 878// 333 94324;MET052FQIN 201200Z 18018KT 9999 BKN020 BKN025 29/25 Q1005;EQDQ01+000000PRSWM2Q02    003PRSWM1
0101673230999992000022013004-23870+035380FM-15+0015FQIN V0201801N009312200019N0090001N1+99999+99999999999ADDMW1001REMMET064FQIN 201300Z 18018KT 9000 -T 9000 -RA BKN020 OVC025 29/24 Q1005;EQDQ01+000000PRSWM2
0290673230999992000022015004-23870+035380SY-MT+0015FQIN V0201801N00771006001CN0150001N1+02701+02421100471ADDAY161031AY261031GA1071+006009999GA2021+030009999GF107991051021008001031021MA1100411999999MD1710081+9999MW1211REMSYN076AAXX  20154 67323 41565 71815 10270 20242 40047 57008 72166 85232 333 94324;MET052FQIN 201500Z 18015KT 9999 BKN020 SCT100 27/24 Q1004;EQDQ01+000000PRSWM2Q02    003PRSWM1
0381673230999992000022106004-23870+035380SY-MT+0015FQIN V0201801N01031006001CN0200001N1+02821+02531100411ADDAA124029091AY161061AY261061GA1071+006009999GA2071+030009999GF107991051021008001071999KA1120N+02261MA1100411999999MD1210101+9999MW1021OA150699999REMSYN116AAXX  21064 67323 11570 71820 10282 20253 40041 52010 60294 70266 8527/ 333 20226 50/// 55069 94324 555 00287 10180;MET052FQIN 210600Z 18020KT 9999 BKN020 BKN100 28/25 Q1004;EQDQ01+000000PRSWM2Q02  00602WGOSPDQ03    003PRSWM1
0162673230999992000022107004-23870+035380FM-15+0015FQIN V0201801N010310060019N0112651N1+02801+02501999999ADDGA1071+006009999GA2071+030009999GF107991999999999999999999MA1100411999999MW1001REMMET052FQIN 210700Z 18020KT 9999 BKN020 BKN100 28/25 Q1004;EQDQ01+000000PRSWM2
0162673230999992000022108004-23870+035380FM-15+0015FQIN V0201801N008710060019N0112651N1+02901+02501999999ADDGA1071+006009999GA2071+030009999GF107991999999999999999999MA1100411999999MW1001REMMET052FQIN 210800Z 18017KT 9999 BKN020 BKN100 29/25 Q1004;EQDQ01+000000PRSWM2
0252673230999992000022109004-23870+035380SY-MT+0015FQIN V0201801N01031006001CN0200001N1+02921+02491100401ADDGA1071+006009999GA2071+030009999GF107991051021008001071999MA1100411999999MD1810011+9999MW1001REMSYN070AAXX  21094 67323 42570 71820 10292 20249 40040 58001 8527/ 333 94322;MET052FQIN 210900Z 18020KT 9999 BKN020 BKN100 29/25 Q1004;EQDQ01+000000PRSWM2
0208673230999992000022114004-23870+035380FM-15+0015FQIN V0201601N010310045019N0090001N1+02601+02501999999ADDGA1071+004509999GA2021+006009099GA3081+027009999GF108991999999999999999999MA1100201999999MW1811REMMET066FQIN 211400Z 16020KT 9000 SHRA BKN015 FEW020CB OVC090 26/25 Q1002;EQDQ01+000003PRSWM1Q02    003PRSWM1
0331673230999992000022115004-23870+035380SY-MT+0015FQIN V0201701N01031004501CN0200001N1+02691+02501100251ADDAY191031AY281031GA1071+004509999GA2021+007509099GA3081+027009999GF108991999091004501071999MA1100201999999MD1710061+9999MW1151REMSYN076AAXX  21154 67323 41470 81720 10269 20250 40025 57006 71598 8897/ 333 94392;MET061FQIN 211500Z 17020KT 9999 BKN015 FEW025CB OVC090 27/26 Q1002;EQDQ01+000082SCOTLCQ02+000000PRSWM2Q03    003PRSWM1
0208673230999992000022206004-23870+035380FM-12+0015FQIN V0201401N010310042019N0090001N1+02751+02431100541ADDAA124034091AY161061AY221061GF108991061091004501071999KA1120N+02271MD1210121+9999MW1601REMSYN110AAXX  22064 67323 11459 81420 10275 20243 40054 52012 60344 76062 8697/ 333 20227 50/// 94393 555 00337 10287;
0393673230999992000022208004-23870+035380SY-MT+0015FQIN V0201401N010310054019N0090001N1+02751+02431100541ADDAA124034091AY161021AY221021GA1071+005409999GA2021+007509099GA3081+027009999GF108991061091004501071999KA1120N+02271MA1100711999999MD1210121+9999MW1601MW2631OA159999999REMSYN110AAXX  22084 67323 11459 81420 10275 20243 40054 52012 60344 76062 8697/ 333 20227 55011 94393 555 00337 10287;MET064FQIN 220800Z 13015KT 5000 RA BKN018 SCT025CB OVC090 25/24 Q1007;EQDQ01  00102WGOSPDQ02    003PRSWM1
0307673230999992000022212004-23870+035380SY-MT+0015FQIN V0201001N005110060019N0100001N1+02421+02381100531ADDAA106116191AY161061AY261061GA1071+006009999GA2081+027009999GF108991061021008001071999MA1100511999999MD1710071+9999MW1211REMSYN082AAXX  22124 67323 11560 81010 10242 20238 40053 57007 61161 72166 8627/ 333 94320;MET052FQIN 221200Z 10010KT 9999 BKN020 OVC090 24/24 Q1005;EQDQ01+000000PRSWM2Q02    003PRSWM1
0162673230999992000022213004-23870+035380FM-15+0015FQIN V0201001N004610060019N0112651N1+02501+02401999999ADDGA1071+006009999GA2081+030009999GF108991999999999999999999MA1100511999999MW1001REMMET052FQIN 221300Z 10009KT 9999 BKN020 OVC100 25/24 Q1005;EQDQ01+000000PRSWM2
0290673230999992000022215004-23870+035380SY-MT+0015FQIN V0201001N00411006001CN0300001N1+02441+02391100471ADDAY161031AY261031GA1071+006009999GA2081+030009999GF108991061021008001071999MA1100411999999MD1610061+9999MW1211REMSYN076AAXX  22154 67323 41580 81008 10244 20239 40047 56006 72166 8627/ 333 94320;MET052FQIN 221500Z 10008KT 9999 BKN020 OVC100 24/24 Q1004;EQDQ01+000000PRSWM2Q02    003PRSWM1
0330673230999992000022306004-23870+035380SY-MT+0015FQIN V0200901N00671006001CN0200001N1+02781+02521100791ADDAA106119191GA1071+006009999GF199999061021008001001001KA1120N+02141MA1100811999999MD1210161+9999MW1001OA150699999REMSYN104AAXX  23064 67323 12570 60913 10278 20252 40079 52016 61191 86200 333 20214 50/// 55000 94322 555 10337;MET045FQIN 230600Z 09013KT 9999 BKN020 28/25 Q1008;EQDQ01+000062SCOTCVQ02+000000PRSWM2Q03  00002WGOSPD
0150673230999992000022309004-23870+035380FM-12+0015FQIN V0201201N007210075019N0090001N1+02821+02521100791ADDAY121031AY221031GF107991051091008001071999MD1010001+9999MW1601REMSYN076AAXX  23094 67323 41559 71214 10282 20252 40079 50000 76022 8597/ 333 94392;
0332673230999992000022312004-23870+035380SY-MT+0015FQIN V0201201N00821006001CN0200001N1+02861+02501100651ADDAA106002091AY181061AY261061GA1071+006009999GA2021+007509099GA3071+030009999GF107991061091008001051999MA1100611999999MD1710141+9999MW1031REMSYN082AAXX  23124 67323 12570 71216 10286 20250 40065 57014 60021 70386 8695/ 333 94393;MET061FQIN 231200Z 12016KT 9999 BKN020 FEW025CB BKN100 29/25 Q1006;EQDQ01+000000PRSWM2Q02    003PRSWM1
0154673230999992000022313004-23870+035380FM-15+0015FQIN V0201301N00821220001CN0112651N1+02901+02501999999ADDGA1071+006009999GA2021+007509099MA1100611999999MW1001REMMET054FQIN 231300Z 13016KT 9999 BKN020 FEW025CB 29/25 Q1006;EQDQ01+000022SCOTCVQ02+000000PRSWM2
0239673230999992000022315004-23870+035380SY-MT+0015FQIN V0201301N007712200019N0200001N1+02821+02401100701ADDGA1021+007509099GF107991061091008001051999MA1100711999999MD1310051+9999MW1001REMSYN070AAXX  23154 67323 42570 71315 10282 20240 40070 53005 8695/ 333 94390;MET055FQIN 231500Z 13015KT 9999 NBKN020 FEW025CB 28/24 Q1007;EQDQ01+000000PRSWM2
0320673230999992000022406004-23870+035380SY-MT+0015FQIN V0201201N008210900019N0300001N1+02821+02261101051ADDAA124002091GA1021+006009999GF105991031021008001001021KA1120N+02411MA1101021999999MD1210091+9999MW1001OA150699999REMSYN110AAXX  24064 67323 12580 51216 10282 20226 40105 52009 60024 83202 333 20241 50/// 55061 94322 555 00024 11188;MET045FQIN 240600Z 12016KT 9999 SCT020 28/23 Q1010;EQDQ01+000000PRSWM2Q02  00602WGOSPD
0245673230999992000022409004-23870+035380SY-MT+0015FQIN V0201101N00721006001CN0300001N1+02961+02341101081ADDGA1071+006009999GF199999061021008001001001MA1101081999999MD1010031+9999MW1001REMSYN070AAXX  24094 67323 42580 61114 10296 20234 40108 50003 86200 333 94320;MET045FQIN 240900Z 11014KT 9999 BKN020 30/23 Q1011;EQDQ01+000062SCOTCVQ02+000000PRSWM2
0298673230999992000022506004-23870+035380SY-MT+0015FQIN V0201001N004112200019N0300001N1+02781+02401101301ADDAA124000891GA1021+006009999GF104991041021008001001011KA1120N+02351MA1101291999999MD1210091+9999MW1001OA150600801REMSYN104AAXX  25064 67323 12580 41008 10278 20240 40130 52009 69984 84201 333 20235 50/// 55082 94320 555 10024;MET045FQIN 250600Z 10008KT 9999 SCT020 28/24 Q1013;EQDQ01+000000PRSWM2
0139673230999992000022508004-23870+035380FM-15+0015FQIN V0201201N006210060019N0112651N1+03001+02301999999ADDGA1071+006009999GF107991999999999999999999MA1101291999999MW1001REMMET045FQIN 250800Z 12012KT 9999 BKN020 30/23 Q1013;EQDQ01+000000PRSWM2
0229673230999992000022509004-23870+035380SY-MT+0015FQIN V0201101N005110060019N0300001N1+02981+02331101381ADDGA1071+006009999GF105991051021008001001001MA1101391999999MD1210081+9999MW1001REMSYN070AAXX  25094 67323 42580 51110 10298 20233 40138 52008 85200 333 94322;MET045FQIN 250900Z 11010KT 9999 BKN020 30/23 Q1014;EQDQ01+000000PRSWM2
0152673230999992000022512004-23870+035380FM-12+0015FQIN V0201001N005110075019N0300001N1+03091+02421101221ADDAA199000091GF106991061021008001001001MD1710161+9999REMSYN070AAXX  25124 67323 32580 61010 10309 20242 40122 57016 86200 333 94320;EQDQ01  00002PRCP99
0139673230999992000022513004-23870+035380FM-15+0015FQIN V0201101N004110060019N0112651N1+03001+02301999999ADDGA1071+006009999GF107991999999999999999999MA1101081999999MW1001REMMET045FQIN 251300Z 11008KT 9999 BKN020 30/23 Q1011;EQDQ01+000000PRSWM2
0139673230999992000022514004-23870+035380FM-15+0015FQIN V0201001N004110060019N0112651N1+03001+02401999999ADDGA1071+006009999GF107991999999999999999999MA1101191999999MW1001REMMET045FQIN 251400Z 10008KT 9999 BKN020 30/24 Q1012;EQDQ01+000000PRSWM2
0304673230999992000022606004-23870+035380SY-MT+0015FQIN V0201601N005112200019N0300001N1+02851+02371101331ADDAA124007191GA1021+006009999GF103991031021008001001011KA1120N+02271MA1101291999999MD1210081+9999MW1001OA150600901REMSYN110AAXX  26064 67323 12580 31610 10285 20237 40133 52008 60074 83201 333 20227 50/// 55096 94320 555 00070 10008;MET045FQIN 260600Z 16010KT 9999 SCT020 28/24 Q1013;EQDQ01+000000PRSWM2
0272673230999992000022612004-23870+035380SY-MT+0015FQIN V0201601N00721006001CN0300001N1+02961+02331101121ADDAA199000091GA1071+006009999GF199999051021008001001001MA1101081999999MD1710191+9999MW1001REMSYN070AAXX  26124 67323 32580 51614 10296 20233 40112 57019 85200 333 94320;MET045FQIN 261200Z 16014KT 9999 BKN020 30/23 Q1011;EQDQ01+000052SCOTCVQ02+000000PRSWM2Q03  00002PRCP99
0098673230999992000022613004-23870+035380FM-15+0015FQIN V0201601N008212200019N0112651N1+03001+02201999999ADDMA1101021999999MW1001REMMET046FQIN 261300Z 16016KT 9999 SBKN020 30/22 Q1010;EQDQ01+000000PRSWM2
0308673230999992000022706004-23870+035380SY-MT+0015FQIN V0201801N002112200019N0300001N1+02821+02251101171ADDAA199000091GA1021+006009999GF102991021021008001001001KA1120N+02201MA1101081999999MD1210071+9999MW1001OA150601101REMSYN098AAXX  27064 67323 32580 21804 10282 20225 40117 52007 82200 333 20220 50/// 55113 94320 555 10070;MET045FQIN 270600Z 18004KT 9999 FEW020 28/23 Q1011;EQDQ01+000000PRSWM2Q02  00002PRCP99
0139673230999992000022707004-23870+035380FM-15+0015FQIN V0201601N005112200019N0112651N1+02901+02201999999ADDGA1021+006009999GF104991999999999999999999MA1101081999999MW1001REMMET045FQIN 270700Z 16010KT 9999 SCT020 29/22 Q1011;EQDQ01+000000PRSWM2
0139673230999992000022708004-23870+035380FM-15+0015FQIN V0201701N003612200019N0112651N1+03001+02301999999ADDGA1021+006009999GF104991999999999999999999MA1101191999999MW1001REMMET045FQIN 270800Z 17007KT 9999 SCT020 30/23 Q1012;EQDQ01+000000PRSWM2
0256673230999992000022712004-23870+035380SY-MT+0015FQIN V0201801N006712200019N0300001N1+03131+02291101091ADDAA199000091GA1021+006009999GF103991031021008001001001MA1101081999999MD1710091+9999MW1001REMSYN070AAXX  27124 67323 32580 31813 10313 20229 40109 57009 83200 333 94320;MET045FQIN 271200Z 18013KT 9999 SCT020 31/23 Q1011;EQDQ01+000000PRSWM2Q02  00002PRCP99
0139673230999992000022713004-23870+035380FM-15+0015FQIN V0201801N001512200019N0112651N1+03101+02301999999ADDGA1021+007509999GF102991999999999999999999MA1101021999999MW1001REMMET045FQIN 271300Z 18003KT 9999 FEW025 31/23 Q1010;EQDQ01+000000PRSWM2
0139673230999992000022714004-23870+035380FM-15+0015FQIN V0201801N007212200019N0112651N1+03001+02201999999ADDGA1021+006009999GF102991999999999999999999MA1101021999999MW1001REMMET045FQIN 271400Z 18014KT 9999 FEW020 30/22 Q1010;EQDQ01+000000PRSWM2
0229673230999992000022715004-23870+035380SY-MT+0015FQIN V0201801N007212200019N0300001N1+02911+02081101071ADDGA1021+006009999GF102991021021008001001001MA1101021999999MD1510021+9999MW1001REMSYN070AAXX  27154 67323 42580 21814 10291 20208 40107 55002 82200 333 94320;MET045FQIN 271500Z 18014KT 9999 FEW020 29/21 Q1010;EQDQ01+000000PRSWM2
0139673230999992000022808004-23870+035380FM-15+0015FQIN V0201601N005110060019N0112651N1+02901+02401999999ADDGA1071+006009999GF107991999999999999999999MA1101391999999MW1001REMMET045FQIN 280800Z 16010KT 9999 BKN020 29/24 Q1014;EQDQ01+000000PRSWM2
0245673230999992000022809004-23870+035380SY-MT+0015FQIN V0201801N00621006001CN0300001N1+02981+02331101391ADDGA1071+006009999GF199999051021008001001001MA1101391999999MD1010011+9999MW1001REMSYN070AAXX  28094 67323 42580 51812 10298 20233 40139 50001 85200 333 94320;MET045FQIN 280900Z 18012KT 9999 BKN020 30/23 Q1014;EQDQ01+000052SCOTCVQ02+000000PRSWM2
0152673230999992000022812004-23870+035380FM-12+0015FQIN V0201601N005710075019N0300001N1+02981+02201101311ADDAA199000091GF105991051021008001001001MD1710081+9999REMSYN070AAXX  28124 67323 32580 51611 10298 20220 40131 57008 85200 333 94320;EQDQ01  00002PRCP99
0229673230999992000022815004-23870+035380SY-MT+0015FQIN V0201001N005112200019N0300001N1+02901+02231101271ADDGA1021+006009999GF102991021011008001001001MA1101191999999MD1510041+9999MW1001REMSYN070AAXX  28154 67323 42580 21010 10290 20223 40127 55004 82100 333 94310;MET045FQIN 281500Z 10010KT 9999 FEW020 29/22 Q1012;EQDQ01+000000PRSWM2
0318673230999992000022906004-23870+035380SY-MT+0015FQIN V0201801N00261006001CN0300001N1+02781+02401101441ADDAA199000091GA1071+006009999GF199999061021008001001001KA1120N+02291MA1101391999999MD1210111+9999MW1001OA150601101REMSYN092AAXX  29064 67323 32580 61805 10278 20240 40144 52011 86200 333 20229 50/// 55115 555 10039;MET045FQIN 290600Z 18005KT 9999 BKN020 28/24 Q1014;EQDQ01+000062SCOTCVQ02+000000PRSWM2Q03  00002PRCP99
0182673230999992000022907004-23870+035380FM-15+0015FQIN V0201501N005110060019N0080001N1+02801+02401999999ADDGA1021+003009999GA2071+006009999GF107991999999999999999999MA1101491999999MW1511REMMET056FQIN 290700Z 15010KT 8000 -DZ SCT010 BKN020 28/24 Q1015;EQDQ01+000003PRSWM1Q02    003PRSWM1
0306673230999992000022909004-23870+035380SY-MT+0015FQIN V0201301N00511007501CN0200001N1+02931+02361101471ADDAY151031AY221031GA1021+006009999GA2071+007509999GF199999061081008001001001MA1101391999999MD1010031+9999MW1021REMSYN076AAXX  29094 67323 41570 61310 10293 20236 40147 50003 70252 86800 333 94320;MET052FQIN 290900Z 13010KT 9999 SCT020 BKN025 29/24 Q1014;EQDQ01+000062SCOTCVQ02+000000PRSWM2Q03    003PRSWM1
0298673230999992000030106004-23870+035380SY-MT+0015FQIN V0200901N002610360019N0300001N1+02811+02371101261ADDAA124000191GA1021+006009999GF105991031021008001031001KA1120N+02301MA1101191999999MD1010081+9999MW1001OA150600701REMSYN104AAXX  01064 67323 12580 50905 10281 20237 40126 50008 69914 83230 333 20230 50/// 55073 94320 555 10000;MET045FQIN 010600Z 09005KT 9999 SCT020 28/24 Q1012;EQDQ01+000000PRSWM2
0252673230999992000030109004-23870+035380SY-MT+0015FQIN V0201801N002110360019N0200001N1+03121+02271101211ADDGA1021+006009999GA2021+030009999GF105991041021008001031001MA1101191999999MD1810051+9999MW1001REMSYN070AAXX  01094 67323 42570 51804 10312 20227 40121 58005 84230 333 94320;MET052FQIN 010900Z 18004KT 9999 SCT020 SCT100 31/23 Q1012;EQDQ01+000000PRSWM2
0256673230999992000030112004-23870+035380SY-MT+0015FQIN V0200901N002112200019N0300001N1+03101+02281100981ADDAA199000091GA1021+006009999GF104991041021008001001001MA1101021999999MD1710231+9999MW1001REMSYN070AAXX  01124 67323 32580 40904 10310 20228 40098 57023 84200 333 94320;MET045FQIN 011200Z 09004KT 9999 SCT020 31/23 Q1010;EQDQ01+000000PRSWM2Q02  00002PRCP99
0139673230999992000030113004-23870+035380FM-15+0015FQIN V0201601N002612200019N0112651N1+03101+02301999999ADDGA1021+006009999GF104991999999999999999999MA1100911999999MW1001REMMET045FQIN 011300Z 16005KT 9999 SCT020 31/23 Q1009;EQDQ01+000000PRSWM2
0308673230999992000030206004-23870+035380SY-MT+0015FQIN V0201901N001512200019N0300001N1+02751+02321101171ADDAA199000091GA1021+006009999GF104991041021008001001001KA1120N+02251MA1101081999999MD1210121+9999MW1001OA150601001REMSYN098AAXX  02064 67323 32580 41903 10275 20232 40117 52012 84200 333 20225 50/// 55107 94320 555 10001;MET045FQIN 020600Z 19003KT 9999 SCT020 28/23 Q1011;EQDQ01+000000PRSWM2Q02  00002PRCP99
0139673230999992000030207004-23870+035380FM-15+0015FQIN V0202201N001010060019N0112651N1+02901+02501999999ADDGA1071+006009999GF107991999999999999999999MA1101081999999MW1001REMMET045FQIN 020700Z 22002KT 9999 BKN020 29/25 Q1011;EQDQ01+000000PRSWM2
0139673230999992000030208004-23870+035380FM-15+0015FQIN V0209999C000010060019N0112651N1+02901+02501999999ADDGA1071+006009999GF107991999999999999999999MA1101191999999MW1001REMMET045FQIN 020800Z 00000KT 9999 BKN020 29/25 Q1012;EQDQ01+000000PRSWM2
0229673230999992000030209004-23870+035380SY-MT+0015FQIN V0209999C000010060019N0300001N1+02941+02551101171ADDGA1071+006009999GF105991051021008001001001MA1101081999999MD1010001+9999MW1001REMSYN070AAXX  02094 67323 42580 50000 10294 20255 40117 50000 85200 333 94320;MET045FQIN 020900Z 00000KT 9999 BKN020 29/26 Q1011;EQDQ01+000000PRSWM2
0139673230999992000030212004-23870+035380FM-15+0015FQIN V0201601N005112200019N0112651N1+03001+02301999999ADDGA1021+006009999GF104991999999999999999999MA1101021999999MW1001REMMET045FQIN 021200Z 16010KT 9999 SCT020 30/23 Q1010;EQDQ01+000000PRSWM2
0191673230999992000030306004-23870+035380FM-12+0015FQIN V0202201N001012200019N0300001N1+02741+02431101241ADDAA124000891GF104991041021008001001001KA1120N+02281MD1210141+9999OA150600901REMSYN104AAXX  03064 67323 12580 42202 10274 20243 40124 52014 69974 84200 333 20228 50/// 55099 94320 555 10000;
0139673230999992000030307004-23870+035380FM-15+0015FQIN V0201201N001012200019N0112651N1+02901+02401999999ADDGA1021+006009999GF104991999999999999999999MA1101191999999MW1001REMMET045FQIN 030700Z 12002KT 9999 SCT020 29/24 Q1012;EQDQ01+000000PRSWM2
0229673230999992000030309004-23870+035380SY-MT+0015FQIN V0201801N002112200019N0300001N1+03091+02291101251ADDGA1021+006009999GF104991041021008001001001MA1101191999999MD1010011+9999MW1001REMSYN070AAXX  03094 67323 42580 41804 10309 20229 40125 50001 84200 333 94320;MET045FQIN 030900Z 18004KT 9999 SCT020 31/23 Q1012;EQDQ01+000000PRSWM2
0308673230999992000030506004-23870+035380SY-MT+0015FQIN V0202201N002612200019N0300001N1+02741+02431101381ADDAA199000091GA1021+006009999GF103991031021008001001001KA1120N+02331MA1101391999999MD1210161+9999MW1001OA150601001REMSYN098AAXX  05064 67323 32580 32205 10274 20243 40138 52016 83200 333 20233 50/// 55108 94320 555 10000;MET045FQIN 050600Z 22005KT 9999 SCT020 27/24 Q1014;EQDQ01+000000PRSWM2Q02  00002PRCP99
0245673230999992000030509004-23870+035380SY-MT+0015FQIN V0209999C00001006001CN0300001N1+03131+02281101311ADDGA1071+006009999GF199999051021008001001001MA1101291999999MD1810071+9999MW1001REMSYN070AAXX  05094 67323 42580 50000 10313 20228 40131 58007 85200 333 94320;MET045FQIN 050900Z 00000KT 9999 BKN020 31/23 Q1013;EQDQ01+000052SCOTCVQ02+000000PRSWM2
0256673230999992000030512004-23870+035380SY-MT+0015FQIN V0200801N002612200019N0300001N1+03231+02381101071ADDAA199000091GA1021+006009999GF104991041021008001001001MA1101021999999MD1710241+9999MW1001REMSYN070AAXX  05124 67323 32580 40805 10323 20238 40107 57024 84200 333 94320;MET045FQIN 051200Z 08005KT 9999 SCT020 32/24 Q1010;EQDQ01+000000PRSWM2Q02  00002PRCP99
0139673230999992000030513004-23870+035380FM-15+0015FQIN V0200801N002612200019N0112651N1+03101+02301999999ADDGA1021+006009999GF102991999999999999999999MA1101021999999MW1001REMMET045FQIN 051300Z 08005KT 9999 FEW020 31/23 Q1010;EQDQ01+000000PRSWM2
0308673230999992000030606004-23870+035380SY-MT+0015FQIN V0201801N002112200019N0300001N1+02771+02421101181ADDAA199000091GA1021+006009999GF104991041021008001001001KA1120N+02301MA1101191999999MD1210121+9999MW1001OA150600901REMSYN098AAXX  06064 67323 32580 41804 10277 20242 40118 52012 84200 333 20230 50/// 55091 94320 555 10000;MET045FQIN 060600Z 18004KT 9999 SCT020 28/24 Q1012;EQDQ01+000000PRSWM2Q02  00002PRCP99
0254673230999992000030609004-23870+035380SY-MT+0015FQIN V0200901N00101220001CN0300001N1+02921+02351101141ADDGA1071+006009999GA2021+007509099GF106991061091008001001001MA1101081999999MD1810041+9999MW1001REMSYN070AAXX  06094 67323 42580 60902 10292 20235 40114 58004 86900 333 94390;MET054FQIN 060900Z 09002KT 9999 BKN020 FEW025CB 29/24 Q1011;EQDQ01+000000PRSWM2
0326673230999992000030612004-23870+035380SY-MT+0015FQIN V0202701N005110060019N0080001N1+02671+02451101061ADDAA106004191AY181061AY261061GA1071+006009999GA2021+007509099GA3071+030009999GF107991061091008001071999MA1101021999999MD1710081+9999MW1601MW2611REMSYN082AAXX  06124 67323 11558 72710 10267 20245 40106 57008 60041 76086 8697/ 333 94390;MET065FQIN 061200Z 27010KT 8000 -RA BKN020 FEW025CB BKN100 27/25 Q1010;EQDQ01    003PRSWM1
0187673230999992000030613004-23870+035380FM-15+0015FQIN V0200901N003110060019N0112651N1+02701+02501999999ADDGA1071+006009999GA2021+007509099GA3071+030009999GF107991999999999999999999MA1100911999999MW1001REMMET061FQIN 061300Z 09006KT 9999 BKN020 FEW025CB BKN100 27/25 Q1009;EQDQ01+000000PRSWM2
0139673230999992000030615004-23870+035380FM-15+0015FQIN V0201601N005112200019N0112651N1+02901+02501999999ADDGA1021+006009999GF104991999999999999999999MA1100911999999MW1001REMMET045FQIN 061500Z 16010KT 9999 SCT020 29/25 Q1009;EQDQ01+000000PRSWM2
0108673230999992000030703004-23870+035380FM-12+0015FQIN V0201801N004110075019N0300001N1+02381+02261101021ADDGF105991051051008001001001REMSYN070AAXX  07034 67323 42580 51808 10238 20226 40102 5//// 85500 333 94350;
0197673230999992000030706004-23870+035380FM-12+0015FQIN V0202301N002610075019N0300001N1+02581+02331101101ADDAA124004191GF106991061051008001001001KA1120N+02171MD1210081+9999OA150600501REMSYN110AAXX  07064 67323 12580 62305 10258 20233 40110 52008 60044 86500 333 20217 50/// 55056 94380 555 00038 10000;
0139673230999992000030708004-23870+035380FM-15+0015FQIN V0202701N002110075019N0112651N1+02901+02401999999ADDGA1071+007509999GF107991999999999999999999MA1101081999999MW1001REMMET045FQIN 070800Z 27004KT 9999 BKN025 29/24 Q1011;EQDQ01+000000PRSWM2
0245673230999992000030709004-23870+035380SY-MT+0015FQIN V0202401N00311006001CN0300001N1+03001+02471101131ADDGA1071+006009999GF199999061081008001001001MA1101081999999MD1010031+9999MW1001REMSYN070AAXX  07094 67323 42580 62406 10300 20247 40113 50003 86800 333 94380;MET045FQIN 070900Z 24006KT 9999 BKN020 30/25 Q1011;EQDQ01+000062SCOTCVQ02+000000PRSWM2
0161673230999992000030712004-23870+035380FM-12+0015FQIN V0201801N005110120019N0150001N1+02641+02161101041ADDAA106006191AY161061AY221061GF107991071081008001999999MD1710091+9999MW1211REMSYN076AAXX  07124 67323 11565 71810 10264 20216 40104 57009 60061 72162 878// 333;
0284673230999992000030713004-23870+035380SY-MT+0015FQIN V0201801N005110120019N0150001N1+02641+02161101041ADDAA106006191AY161011AY221011GA1021+006009999GF107991071081008001999999MA1101021999999MD1710091+9999MW1211REMSYN082AAXX  07134 67323 11565 71810 10264 20216 40104 57009 60061 72162 878// 333 94320;MET045FQIN 071300Z 18010KT 9999 SCT020 28/24 Q1010;EQDQ01+000000PRSWM2Q02    003PRSWM1
0122673230999992000030715004-23870+035380FM-12+0015FQIN V0201801N005110120019N0300001N1+02661+02301101001ADDGF107991071081008001999999MD1510041+9999REMSYN070AAXX  07154 67323 42580 71810 10266 20230 40100 55004 878// 333 94320;
0315673230999992000030815004-23870+035380SY-MT+0015FQIN V0201801N005110300019N0200001N1+02701+02311100911ADDAY161031AY211031GA1021+006009999GA2021+007509099GA3071+030009999GF106991031091008001051001MA1100911999999MD1710061+9999MW1021REMSYN076AAXX  08154 67323 41570 61810 10270 20231 40091 57006 70261 83950 333 94392;MET061FQIN 081500Z 18010KT 9999 SCT020 FEW025CB BKN100 27/23 Q1009;EQDQ01+000000PRSWM2Q02    003PRSWM1
0150673230999992000030821004-23870+035380FM-12+0015FQIN V0201801N005110360019N0200001N1+02701+02311100911ADDAY161031AY211031GF106991031091008001051001MD1710061+9999MW1021REMSYN076AAXX  08214 67323 41570 61810 10270 20231 40091 57006 70261 83950 333 94392;
0231673230999992000030906004-23870+035380SY-MT+0015FQIN V0203601N002610120019N0300001N1+02581+02341101011ADDAA124005191GF107991071081008001999999KA1120N+02151MD1310171+9999MW1001REMSYN098AAXX  09064 67323 12580 73605 10258 20234 40101 53017 60054 878// 333 20215 94384 555 00050 10057;MET026FQIN 090700Z 00000KT QTA/;EQDQ01+000000PRSWM2
0139673230999992000030907004-23870+035380FM-15+0015FQIN V0203601N002610060019N0112651N1+02701+02401999999ADDGA1071+006009999GF107991999999999999999999MA1101021999999MW1001REMMET045FQIN 090700Z 36005KT 9999 BKN020 27/24 Q1010;EQDQ01+000000PRSWM2
0063673230999992000030907004-23870+035380FM-16+0015FQIN V0209999C000012200019N0040001N1+99999+99999999999ADDMW1001REMMET026FQIN 090700Z 00000KT QTA/;EQDQ01+000000PRSWM2
0268673230999992000030909004-23870+035380SY-MT+0015FQIN V0200201N00511006001CN0300001N1+02821+02381101011ADDGA1071+006009999GA2021+030009999GF199999051021008001031001MA1101021999999MD1010001+9999MW1001REMSYN070AAXX  09094 67323 42580 60210 10282 20238 40101 50000 85230 333 94320;MET052FQIN 090900Z 02010KT 9999 BKN020 SCT100 28/24 Q1010;EQDQ01+000062SCOTCVQ02+000000PRSWM2
0279673230999992000030912004-23870+035380SY-MT+0015FQIN V0200301N006212200019N0300001N1+02981+02361100801ADDAA199000091GA1021+006009999GA2021+009009999GF105991051081008001001001MA1100811999999MD1710211+9999MW1001REMSYN070AAXX  09124 67323 32580 50312 10298 20236 40080 57021 85800 333 94320;MET052FQIN 091200Z 03012KT 9999 SCT020 SCT030 30/24 Q1008;EQDQ01+000000PRSWM2Q02  00002PRCP99
0193673230999992000030915004-23870+035380FM-15+0015FQIN V0200801N005110060019N0090001N1+02701+02401999999ADDGA1071+006009999GA2071+007509999GF107991999999999999999999MA1100811999999MW1171MW2611REMMET061FQIN 091500Z 08010KT 9000 -RATS BKN020 BKN025CNB 27/24 Q1008;EQDQ01+000003PRSWM1Q02    003PRSWM1
0217673230999992000031006004-23870+035380FM-12+0015FQIN V0203601N002110075019N0200001N1+02501+02361101001ADDAA124023191AY161061GF107991051021008001071999KA1120N+02201MD1210111+9999MW1021OA150600401REMSYN116AAXX  10064 67323 11570 73604 10250 20236 40100 52011 60234 7026/ 8527/ 333 20220 50/// 55049 94320 555 00227 10050;
0252673230999992000031009004-23870+035380SY-MT+0015FQIN V0200601N00411006001CN0200001N1+02781+02411101071ADDGA1071+006009999GA2071+027009999GF107991051021008001071999MA1101021999999MD1310071+9999MW1001REMSYN070AAXX  10094 67323 42570 70608 10278 20241 40107 53007 8527/ 333 94320;MET052FQIN 100900Z 06008KT 9999 BKN020 BKN090 28/24 Q1010;EQDQ01+000000PRSWM2
0320673230999992000031012004-23870+035380SY-MT+0015FQIN V0203601N00311006001CN0080001N1+02711+02421100851ADDAA106003091AY161061AY221061GA1071+006009999GA2021+007509099GA3071+027009999GF107991051091008001071999MA1100811999999MD1710221+9999MW1611REMSYN082AAXX  10124 67323 11558 73606 10271 20242 40085 57022 60031 76162 8597/ 333 94390;MET065FQIN 101200Z 36006KT 8000 -RA BKN020 FEW025CB BKN090 27/24 Q1008;EQDQ01    003PRSWM1
0187673230999992000031013004-23870+035380FM-15+0015FQIN V0200601N005110060019N0112651N1+02701+02401999999ADDGA1071+006009999GA2021+007509099GA3071+027009999GF107991999999999999999999MA1100811999999MW1001REMMET061FQIN 101300Z 06010KT 9999 BKN020 FEW025CB BKN090 27/24 Q1008;EQDQ01+000000PRSWM2
0167673230999992000031112004-23870+035380FM-12+0015FQIN V0201801N002610075019N0150001N1+02621+02451101161ADDAA106006191AY161061AY261061GF108991061021008001071999MD1710211+9999MW1211REMSYN082AAXX  11124 67323 11565 81805 10262 20245 40116 57021 60061 72166 8627/ 333 94320;
0343673230999992000031206004-23870+035380SY-MT+0015FQIN V0201701N00361006001CN0200001N1+02741+02681101461ADDAA124015091GA1071+006009999GA2071+030009999GF107991051021008001031011KA1120N+02151MA1101391999999MD1210091+9999MW1001OA150699999REMSYN110AAXX  12064 67323 12570 71707 10274 20268 40146 52009 60154 85231 333 20215 50/// 55000 94320 555 00153 10346;MET052FQIN 120600Z 17007KT 9999 BKN020 BKN100 27/27 Q1014;EQDQ01+000000PRSWM2Q02  00002WGOSPD
0162673230999992000031208004-23870+035380FM-15+0015FQIN V0201101N005110060019N0112651N1+02901+02501999999ADDGA1071+006009999GA2071+030009999GF107991999999999999999999MA1101491999999MW1001REMMET052FQIN 120800Z 11010KT 9999 BKN020 BKN100 29/25 Q1015;EQDQ01+000000PRSWM2
0139673230999992000031306004-23870+035380FM-15+0015FQIN V0201701N003110060019N0112651N1+02801+02401999999ADDGA1071+006009999GF107991999999999999999999MA1101291999999MW1001REMMET045FQIN 130600Z 17006KT 9999 BKN020 28/24 Q1013;EQDQ01+000000PRSWM2
0152673230999992000031312004-23870+035380FM-12+0015FQIN V0201601N005110075019N0300001N1+03031+02461101101ADDAA199000091GF106991061021008001001001MD1710151+9999REMSYN070AAXX  13124 67323 32580 61610 10303 20246 40110 57015 86200 333 94320;EQDQ01  00002PRCP99
0139673230999992000031313004-23870+035380FM-15+0015FQIN V0201601N004110060019N0112651N1+03001+02401999999ADDGA1071+006009999GF107991999999999999999999MA1101081999999MW1001REMMET045FQIN 131300Z 16008KT 9999 BKN020 30/24 Q1011;EQDQ01+000000PRSWM2
0361673230999992000031406004-23870+035380SY-MT+0015FQIN V0209999C000010060019N0090001N1+02501+02461101151ADDAA124001091AY191061AY211061GA1071+006009999GA2071+030009999GF107991051021008001031999KA1120N+02301MA1101081999999MD1210071+9999MW1611MW2801OA150600901REMSYN116AAXX  14064 67323 11559 70000 10250 20246 40115 52007 60014 78091 8523/ 333 20230 50/// 55099 94320 555 00010 10000;MET058FQIN 140600Z 00000KT 9000 -RASH BKN020 BKN100 25/25 Q1011;EQDQ01    003PRSWM1
0183673230999992000031407004-23870+035380FM-15+0015FQIN V0209999C000010060019N0090001N1+02601+02401999999ADDGA1071+006009999GA2071+030009999GF107991999999999999999999MA1101081999999MW1811REMMET057FQIN 140700Z 00000KT 9000 SHRA BKN020 BKN100 26/24 Q1011;EQDQ01+000003PRSWM1Q02    003PRSWM1
0315673230999992000031409004-23870+035380SY-MT+0015FQIN V0209999C00001006001CN0200001N1+02721+02421101071ADDAY181031AY211031GA1071+006009999GA2021+007509099GA3071+030009999GF107991051091008001051999MA1101021999999MD1710081+9999MW1021REMSYN076AAXX  14094 67323 41570 70000 10272 20242 40107 57008 70281 8595/ 333 94390;MET061FQIN 140900Z 00000KT 9999 BKN020 FEW025CB BKN100 27/24 Q1010;EQDQ01+000000PRSWM2Q02    003PRSWM1
0162673230999992000031412004-23870+035380FM-15+0015FQIN V0200801N002610060019N0112651N1+02801+02501999999ADDGA1021+003009999GA2071+006009999GF107991999999999999999999MA1100911999999MW1001REMMET052FQIN 141300Z 08005KT 9999 SCT010 BKN020 28/25 Q1009;EQDQ01+000000PRSWM2
0162673230999992000031413004-23870+035380FM-15+0015FQIN V0200801N002610060019N0112651N1+02801+02501999999ADDGA1021+003009999GA2071+006009999GF107991999999999999999999MA1100911999999MW1001REMMET052FQIN 141300Z 08005KT 9999 SCT010 BKN020 28/25 Q1009;EQDQ01+000000PRSWM2
0308673230999992000031415004-23870+035380SY-MT+0015FQIN V0200201N005110030019N0060001N1+02401+02261101011ADDAY151031AY221031GA1071+003009999GA2021+007509099GA3081+027009999GF108991061091004501071999MA1101021999999MD1310101+9999MW1611MW2631REMSYN076AAXX  14154 67323 41456 80210 10240 20226 40101 53010 76152 8697/ 333 94398;MET064FQIN 141500Z 02010KT 6000 RA BKN010 SCT025CB OVC090 24/23 Q1010;EQDQ01    003PRSWM1
0184673230999992000031506004-23870+035380FM-12+0015FQIN V0209999C000010075019N0300001N1+02701+02421101091ADDAA124014091GF107991051021008001071999MD1210051+9999OA150600001REMSYN110AAXX  15064 67323 12580 70000 10270 20242 40109 52005 60144 8527/ 333 20/// 50/// 55000 94320 555 00140 10010;
0328673230999992000031512004-23870+035380SY-MT+0015FQIN V0200601N00511220001CN0090001N1+02421+02391100991ADDAA106009991AY181061AY281061GA1071+003009999GA2081+006009999GA3021+007509099GF108991081091004501999999MA1101021999999MD1710131+9999MW1821MW2951REMSYN082AAXX  15124 67323 11459 80610 10242 20239 40099 57013 60101 79588 889// 333 94398;MET067FQIN 151200Z 36010KT 9000 +SHRA BKN010 OVC020 FEW025CB 24/24 Q1010;EQDQ01    003PRSWM1
0187673230999992000031513004-23870+035380FM-15+0015FQIN V0203601N00411007501CN0112651N1+02501+02401999999ADDGA1021+006009099GA2071+006009999GA3081+007509999GF108991999999999999999999MA1100911999999MW1001REMMET061FQIN 151300Z 36008KT 9999 BKN020 FEW020CB OVC025 25/24 Q1009;EQDQ01+000000PRSWM2
0252673230999992000031515004-23870+035380SY-MT+0015FQIN V0209999C00001006001CN0200001N1+02501+02371100971ADDGA1071+006009999GA2081+007509999GF108991081081008001999999MA1100911999999MD1510021+9999MW1001REMSYN070AAXX  15154 67323 42570 80000 10250 20237 40097 55002 888// 333 94380;MET052FQIN 151500Z 00000KT 9999 BKN020 OVC025 25/24 Q1009;EQDQ01+000000PRSWM2
0122673230999992000032009004-23870+035380FM-12+0015FQIN V0200301N000510075019N0300001N1+03141+02571101451ADDGF105991051021008001001001MD1010111+9999REMSYN070AAXX  20094 67323 42580 50301 10314 20257 40145 50011 85200 333 94382;
0197673230999992000032106004-23870+035380FM-12+0015FQIN V0201901N001512200019N0300001N1+02611+02331101621ADDAA124006191GF103991021011008001001011KA1120N+02191MD1210121+9999OA150600701REMSYN110AAXX  21064 67323 12580 31903 10261 20233 40162 52012 60064 82101 333 20219 50/// 55077 94310 555 00060 10000;
0139673230999992000032107004-23870+035380FM-15+0015FQIN V0201901N002112200019N0112651N1+02801+02401999999ADDGA1021+006009999GF104991999999999999999999MA1101591999999MW1001REMMET045FQIN 210700Z 19004KT 9999 SCT020 28/24 Q1016;EQDQ01+000000PRSWM2
0229673230999992000032109004-23870+035380SY-MT+0015FQIN V0202701N001512200019N0300001N1+02961+02481101581ADDGA1021+006009999GF103991031021008001001001MA1101591999999MD1710041+9999MW1001REMSYN070AAXX  21094 67323 42580 32703 10296 20248 40158 57004 83200 333 94320;MET045FQIN 210900Z 27008KT 9999 SCT020 32/25 Q1016;EQDQ01+000000PRSWM2
0256673230999992000032112004-23870+035380SY-MT+0015FQIN V0201801N002112200019N0300001N1+03091+02461101401ADDAA199000091GA1021+006009999GF104991041021008001001001MA1101391999999MD1710181+9999MW1001REMSYN070AAXX  21124 67323 32580 41804 10309 20246 40140 57018 84200 333 94320;MET045FQIN 211200Z 18004KT 9999 SCT020 31/25 Q1014;EQDQ01+000000PRSWM2Q02  00002PRCP99
0245673230999992000032115004-23870+035380SY-MT+0015FQIN V0201701N00261006001CN0300001N1+02841+02351101391ADDGA1071+006009999GF199999061021008001001011MA1101391999999MD1510011+9999MW1001REMSYN070AAXX  21154 67323 42580 61705 10284 20235 40139 55001 86201 333 94320;MET045FQIN 211500Z 17005KT 9999 BKN020 28/24 Q1014;EQDQ01+000062SCOTCVQ02+000000PRSWM2
0308673230999992000032206004-23870+035380SY-MT+0015FQIN V0201801N001512200019N0300001N1+02681+02441101661ADDAA199000091GA1021+006009999GF103991011011008001001021KA1120N+02301MA1101591999999MD1210141+9999MW1001OA150600801REMSYN098AAXX  22064 67323 32580 31803 10268 20244 40166 52014 81102 333 20230 50/// 55087 94310 555 10060;MET045FQIN 220600Z 18003KT 9999 FEW020 27/24 Q1016;EQDQ01+000000PRSWM2Q02  00002PRCP99
0162673230999992000032207004-23870+035380FM-15+0015FQIN V0201901N001519999999N0112651N1+02801+02501999999ADDGA1021+006009999GA2071+999999999GF107991999999999999999999MA1101591999999MW1001REMMET052FQIN 220700Z 19003KT 9999 FEW020 BKN/// 28/25 Q1016;EQDQ01+000000PRSWM2
0255673230999992000032209004-23870+035380SY-MT+0015FQIN V0209999C00001220001CN0300001N1+03021+02471101601ADDGA1071+006009999GA2021+007509029GF106991051031008001001021MA1101591999999MD1710061+9999MW1001REMSYN070AAXX  22094 67323 42580 60000 10302 20247 40160 57006 85302 333 94320;MET055FQIN 220900Z 00000KT 9999 BKN020 FEW025TCU 30/25 Q1016;EQDQ01+000000PRSWM2
0167673230999992000032212004-23870+035380FM-12+0015FQIN V0200801N002610075019N0300001N1+03061+02331101451ADDAA106000391AY181061AY211061GF106991051021008001001021MD1810151+9999MW1021REMSYN082AAXX  22124 67323 12580 60805 10306 20233 40145 58015 69931 70281 85202 333 94320;
0141673230999992000032215004-23870+035380FM-12+0015FQIN V0201601N003612200019N0300001N1+02261+02251101511ADDGF104991999021008001001001MD1210061+9999REMSYN070AAXX  22154 67323 42580 41607 10226 20225 40151 52006 82200 333 94320;EQDQ01+000022SCOTLC
0122673230999992000032309004-23870+035380FM-12+0015FQIN V0209999C000012200019N0300001N1+02911+02381101561ADDGF104991041021008001001011MD1810021+9999REMSYN070AAXX  23094 67323 42580 40000 10291 20238 40156 58002 84201 333 94320;
0152673230999992000032312004-23870+035380FM-12+0015FQIN V0201801N003610900019N0300001N1+03081+02311101381ADDAA199000091GF105991041021008001001021MD1710181+9999REMSYN070AAXX  23124 67323 32580 51807 10308 20231 40138 57018 84202 333 94320;EQDQ01  00002PRCP99
0122673230999992000032409004-23870+035380FM-12+0015FQIN V0201801N002610075019N0300001N1+03101+02311101431ADDGF105991051021008001001001MD1010001+9999REMSYN070AAXX  24094 67323 42580 51805 10310 20231 40143 50000 85200 333 94320;
0152673230999992000032412004-23870+035380FM-12+0015FQIN V0201601N002612200019N0300001N1+03091+02311101261ADDAA199000091GF104991041021008001001001MD1710171+9999REMSYN070AAXX  24124 67323 32580 41605 10309 20231 40126 57017 84200 333 94320;EQDQ01  00002PRCP99
0139673230999992000032413004-23870+035380FM-15+0015FQIN V0201701N002612200019N0112651N1+03001+02201999999ADDGA1021+006009999GF104991999999999999999999MA1101191999999MW1001REMMET045FQIN 241300Z 17005KT 9999 SCT020 30/22 Q1012;EQDQ01+000000PRSWM2
0318673230999992000032506004-23870+035380SY-MT+0015FQIN V0209999C000012200019N0300001N1+02661+02331101421ADDAA199000091GA1021+006009999GF199999011011008001001001KA1120N+02201MA1101391999999MD1110091+9999MW1001OA150601101REMSYN092AAXX  25064 67323 32580 10000 10266 20233 40142 51009 81100 333 20220 55111 94314 555 10000;MET045FQIN 250600Z 00000KT 9999 FEW020 27/23 Q1014;EQDQ01+000012SCOTCVQ02+000000PRSWM2Q03  00002PRCP99
0272673230999992000032512004-23870+035380SY-MT+0015FQIN V0201801N00261006001CN0300001N1+03261+02401101211ADDAA199000091GA1071+006009999GF199999051021008001001001MA1101191999999MD1710171+9999MW1001REMSYN070AAXX  25124 67323 32580 51805 10326 20240 40121 57017 85200 333 94320;MET045FQIN 251200Z 18005KT 9999 BKN020 33/24 Q1012;EQDQ01+000052SCOTCVQ02+000000PRSWM2Q03  00002PRCP99
0139673230999992000032513004-23870+035380FM-15+0015FQIN V0201001N002112200019N0112651N1+03101+02301999999ADDGA1021+006009999GF104991999999999999999999MA1101081999999MW1001REMMET045FQIN 251300Z 10004KT 9999 SCT020 31/23 Q1011;EQDQ01+000000PRSWM2
0149673230999992000032515004-23870+035380FM-12+0015FQIN V0201501N002610075019N0090001N1+02661+02461101281ADDAY121031AY211031GF106991061091008001001001MD1210071+9999MW1951REMSYN075AAXX  25154 67323 42559 61505 10266 20246 40128 52007 79521 86900 333 4320;
0197673230999992000032606004-23870+035380FM-12+0015FQIN V0209999C000012200019N0300001N1+02701+02441101301ADDAA124006191GF103991031021008001001001KA1120N+02241MD1210051+9999OA150600901REMSYN110AAXX  26064 67323 12580 30000 10270 20244 40130 52005 60064 83200 333 20224 50/// 55091 94320 555 00061 10000;
0139673230999992000032607004-23870+035380FM-15+0015FQIN V0203401N001512200019N0112651N1+02801+02501999999ADDGA1021+007509999GF104991999999999999999999MA1101291999999MW1001REMMET045FQIN 260700Z 34003KT 9999 SCT025 28/25 Q1013;EQDQ01+000000PRSWM2
0139673230999992000032608004-23870+035380FM-15+0015FQIN V0203401N001510075019N0112651N1+02901+02501999999ADDGA1071+007509999GF107991999999999999999999MA1101291999999MW1001REMMET045FQIN 260800Z 34003KT 9999 BKN025 29/25 Q1013;EQDQ01+000000PRSWM2
0152673230999992000032612004-23870+035380FM-12+0015FQIN V0203601N001510075019N0300001N1+03131+02441101121ADDAA199000091GF105991051091008001001001MD1710121+9999REMSYN070AAXX  26124 67323 32580 53603 10313 20244 40112 57012 85900 333 94390;EQDQ01  00002PRCP99
0308673230999992000032706004-23870+035380SY-MT+0015FQIN V0202201N001512200019N0300001N1+02561+02351101411ADDAA199000091GA1021+006009999GF103991031021008001001011KA1120N+02241MA1101391999999MD1210111+9999MW1001OA150600901REMSYN098AAXX  27064 67323 32580 32203 10256 20235 40141 52011 83201 333 20224 50/// 55094 94320 555 10061;MET045FQIN 270600Z 02003KT 9999 SCT020 26/24 Q1014;EQDQ01+000000PRSWM2Q02  00002PRCP99
0204673230999992000032709004-23870+035380FM-12+0015FQIN V0202201N001512200019N0300001N1+02561+02351101411ADDAA199000091GF103991031021008001001011KA1120N+02241MD1210111+9999OA150300901REMSYN098AAXX  27094 67323 32580 32203 10256 20235 40141 52011 83201 333 20224 50/// 55094 94320 555 10061;EQDQ01  00002PRCP99
