0148676890999992000011012004-14320+034270FM-12+1632FWDZ V0202901N00201045001CN0300001N1+01891+01751999999ADDAA106000091GA1031+007509069GF106991031051008001031999REMSYN064AAXX  10121 67689 32580 62902 10189 20175 8353/ 333 83625 87359;EQDQ01  00002PRCP06
0148676890999992000011112004-14320+034270FM-12+1632FWDZ V0200601N00301045001CN0300001N1+01891+01631999999ADDAA106000091GA1041+007509069GF106991041051008001031999REMSYN064AAXX  11121 67689 32580 60603 10189 20163 8453/ 333 84625 83360;EQDQ01  00002PRCP06
0224676890999992000011206004-14320+034270FM-12+1632FWDZ V0202901N001010060019N0300001N1+01711+01691999999ADDAA124005191GA1031+002109079GA2051+006009069GF107991051071002501071999KA1120N+01181OA150699999REMSYN100AAXX  12061 67689 12380 72901 10171 20169 60054 8577/ 333 20118 50661 55002 70046 83707 85620 87459;EQDQ01  00002WGOSPD
0202676890999992000011306004-14320+034270FM-12+1632FWDZ V0203201N00301045001CN0300001N1+01891+01611999999ADDAA124001091GA1041+007509069GF106991041051008001031999KA1120N+01181OA150699999REMSYN094AAXX  13061 67689 12580 63203 10189 20161 60014 8453/ 333 20118 50421 55000 70011 84625 86359;EQDQ01  00002WGOSPD
0198676890999992000011406004-14320+034270FM-12+163299999V0202001N001010270019N0300001N1+01961+01661999999ADDAA124006191GA1011+006009069GA2051+027009039GF106991011051008001031081KA1120N+01081REMSYN104    AAXX  14061 67689 12580 62001 10196 20166 60064 81538 333 20108 50531 55/// 70063 81620 85359 86275;
0194676890999992000011706004-14320+034270FM-12+163299999V0200101N00301105001CN0250001N1+02081+01771999999ADDAA199000091GA1041+009009089GF106991041011012501001081KA1120N+01231OA150600901REMSYN086    AAXX  17061 67689 32675 60103 10208 20177 84108 333 20123 50461 55091 84830 86270;EQDQ01  00002PRCP99
0138676890999992000012006004-14320+034270FM-12+1632FWDZ V0200301N00101045001CN0250001N1+01491+01461999999ADDAA124001091GF106991021051008001031999KA1120N+01031REMSYN076AAXX  20061 67689 12575 60301 10149 20146 60014 8253/ 333 20103 50501 55014;
0148676890999992000012112004-14320+034270FM-12+1632FWDZ V0201401N00401045001CN0300001N1+02191+01541999999ADDAA199000091GA1041+009009089GF107991041021012501031999REMSYN064AAXX  21121 67689 32680 71404 10219 20154 8423/ 333 84830 87360;EQDQ01  00002PRCP99
0190676890999992000012606004-14320+034270FM-12+1632FWDZ V0202801N002012200019N0300001N1+02171+01771999999ADDAA199000091GA1031+009009089GF104991031021012501001051KA1120N+01641OA150600701REMSYN082AAXX  26061 67689 32680 42802 10217 20177 83205 333 20164 50661 55077 83830 84275;EQDQ01  00002PRCP99
0220676890999992000012612004-14320+034270FM-12+1632FWDZ V0201501N001010300019N0200001N1+01991+01841999999ADDAA199000091AY191061AY291061GA1011+009009099GA2041+010509089GA3041+030009039GF106991041091012501031051MW1171REMSYN082AAXX  26121 67689 31670 61501 10199 20184 71799 84935 333 81930 84835 84360 86280;EQDQ01  00002PRCP99
0170676890999992000012912004-14320+034270FM-12+1632FWDZ V0202301N003010300019N0300001N1+02331+01731999999ADDAA199000091GA1041+009009089GA2031+030009039GF106991041011012501031081REMSYN070AAXX  29121 67689 32680 62303 10233 20173 84138 333 84830 83360 86280;EQDQ01  00002PRCP99
0172676890999992000013106004-14320+034270FM-12+1632FWDZ V0202901N00101045001CN0300001N1+02131+01661999999ADDAA124001091GA1041+009009089GF105991041011012501031001KA1120N+01231REMSYN094AAXX  31061 67689 12680 52901 10213 20166 60014 84130 333 20123 50471 55/// 70006 84830 85359;
0170676890999992000020309004-14320+034270FM-12+1632FWDZ V0203101N003010105019N0300001N1+02101+01661999999ADDAA199000091GA1041+009009089GA2051+010509069GF106991051081012501031061REMSYN070AAXX  03091 67689 32680 63103 10210 20166 85836 333 84830 85635 86275;EQDQ01  00002PRCP99
0144676890999992000020312004-14320+034270FM-12+1632FWDZ V0202001N003010120019N0200001N1+02081+01671999999ADDAA199000091AY191061AY221061GF106991051021012501001081MW1171REMSYN054AAXX  03121 67689 31670 62003 10208 20167 71792 85208;EQDQ01  00002PRCP99
0168676890999992000020412004-14320+034270FM-12+1632FWDZ V0201701N004010027019N0300001N1+01861+01701999999ADDAY161061AY241061GA1051+002709079GA2061+009009069GF107991061071008001071999MW1611REMSYN076AAXX  04121 67689 /1580 71704 10186 20170 76164 8677/ 333 85709 86630 87460;
0269676890999992000020506004-14320+034270FM-12+1632FWDZ V0200301N003010060019N0300001N1+01831+01651999999ADDAA124005191GA1031+002709079GA2061+006009069GA3071+030009049GF107991061061008001071999KA1240M+02111KA2120N+01231OA150699999REMSYN116AAXX  05061 67689 12580 70303 10183 20165 60054 8667/ 333 20123 50621 55013 70047 83709 86620 87460 555 10211 7//61;EQDQ01  00102WGOSPD
0148676890999992000020512004-14320+034270FM-12+1632FWDZ V0202701N002010075019N0300001N1+01991+01681999999ADDAA199000091GA1061+007509069GF107991061051008001071999REMSYN064AAXX  05121 67689 32580 72702 10199 20168 8657/ 333 86625 87460;EQDQ01  00002PRCP99
0233676890999992000020706004-14320+034270FM-12+1632FWDZ V0202201N001010075019N0070001N1+01731+01661999999ADDAA124005191AY161061AY241061GA1041+002709079GA2061+007509069GF107991061071002501071999KA1120N+01271MW1611OA150600501REMSYN106AAXX  07061 67689 11357 72201 10173 20166 60054 76164 8677/ 333 20127 50591 55056 70049 84709 86625 87458;
0177676890999992000020806004-14320+034270FM-12+1632FWDZ V0201501N004012200019N0300001N1+01981+01681999999ADDAA124002091GA1031+009009029GF103991031021012501001001KA1120N+01271OA150600501REMSYN088AAXX  08061 67689 12680 31504 10198 20168 60024 83200 333 20127 50561 55050 70020 83830;
0148676890999992000020812004-14320+034270FM-12+1632FWDZ V0201601N00401220001CN0300001N1+02361+01641999999ADDAA199000091GA1041+012009089GF105991041011012501001011REMSYN064AAXX  08121 67689 32680 51604 10236 20164 84101 333 84840 85680;EQDQ01  00002PRCP99
0212676890999992000020906004-14320+034270FM-12+1632FWDZ V0202901N00401105001CN0300001N1+01991+01731999999ADDAA199000091GA1041+009009089GA2051+009009089GF105991041021012501001051KA1120N+01401OA150601101REMSYN088AAXX  09061 67689 32680 52904 10199 20173 84205 333 20140 50511 55117 84830 85830 85280;EQDQ01  00002PRCP99
0198676890999992000020912004-14320+034270FM-12+1632FWDZ V0201601N002010450019N0100001N1+02341+01671999999ADDAA199000091AY191061AY221061GA1031+030009039GA2011+999999099GF106991041091012501031051MW1171REMSYN076AAXX  09121 67689 31660 61602 10234 20167 71792 84935 333 819// 83360 86280;EQDQ01  00002PRCP99
0228676890999992000021106004-14320+034270FM-12+1632FWDZ V0200901N002010900019N0300001N1+02121+01521999999ADDAA124003091GA1011+007509089GA2051+090009029GF105991011011008001001061KA1240M+02341KA2120N+01321OA150600201REMSYN110AAXX  11061 67689 12580 50902 10212 20152 60034 81106 333 20132 50341 55022 70034 81825 85280 555 10234 7//98;
0148676890999992000021109004-14320+034270FM-12+1632FWDZ V0203001N001010090019N0300001N1+02551+01531999999ADDAA199000091GA1061+009009089GF106991061021012501001061REMSYN064AAXX  11091 67689 32680 63001 10255 20153 86206 333 86830 86280;EQDQ01  00002PRCP99
0170676890999992000021212004-14320+034270FM-12+1632FWDZ V0202901N001010300019N0300001N1+02331+01641999999ADDAA199000091GA1031+009009089GA2051+030009039GF106991031021012501031051REMSYN070AAXX  12121 67689 32680 62901 10233 20164 83235 333 83830 85360 86280;EQDQ01  00002PRCP99
0183676890999992000021606004-14320+034270FM-12+1632FWDZ V0202301N002010060019N0300001N1+01461+01431999999ADDAA124041991GA1051+006009069GF107991051051008001071999KA1120N+01071OA150600501REMSYN094AAXX  16061 67689 32580 72302 10146 20143 60424 8557/ 333 20107 50151 55055 70423 85620 87458;
0179676890999992000021609004-14320+034270FM-12+1632FWDZ V0202701N003010075019N0090001N1+01621+01571999999ADDAA199000021AY191031AY261031GA1041+002109079GA2061+007509069GF107991061071002501071999MW1911REMSYN076AAXX  16091 67689 31359 72703 10162 20157 79196 8677/ 333 84707 86625 87459;
0246676890999992000021706004-14320+034270FM-12+1632FWDZ V0202201N004010018019N0250001N1+01571+01531999999ADDAA124006191AY161061AY221061GA1051+001809079GF107991999071002501999999KA1120N+01101MW1211OA150699999REMSYN100AAXX  17061 67689 11375 72204 10157 20153 60064 72162 887// 333 20110 50031 55022 70059 85706 88610;EQDQ01+000082SCOTLCQ02  00202WGOSPD
0174676890999992000021712004-14320+034270FM-12+1632FWDZ V0202301N003010060019N0300001N1+01691+01661999999ADDAA199000021GA1041+002709079GA2071+006009069GF107991071071002501999999KA1240M+01801REMSYN080AAXX  17121 67689 32380 72303 10169 20166 877// 333 84709 87620 555 10180 29100;
0172676890999992000021806004-14320+034270FM-12+1632FWDZ V0202401N002010060019N0300001N1+01801+01611999999ADDAA124003091GA1051+006009069GF106991051051008001061999KA1120N+01691REMSYN094AAXX  18061 67689 12580 62402 10180 20161 60034 8556/ 333 20169 50521 55/// 70027 85620 86359;
0236676890999992000021812004-14320+034270FM-12+1632FWDZ V0203001N001010075019N0100001N1+01851+01731999999ADDAA106000191AY191061AY261061GA1031+001809079GA2051+007509099GA3071+027009039GF107991051091002501071999KA1240M+02131MW1171REMSYN104AAXX  18121 67689 11360 73001 10185 20173 69921 71796 8597/ 333 70002 83706 85925 87359 555 10213 29088;
0228676890999992000022106004-14320+034270FM-12+1632FWDZ V0202801N004010024019N0300001N1+01881+01761999999ADDAA199000091GA1071+002409079GA2061+006009069GF199999061061002501001081KA1120N+01341OA150600801REMSYN088AAXX  21061 67689 32380 62804 10188 20176 86608 333 20134 50361 55083 87708 86620 86270;EQDQ01+000062SCOTCVQ02  00002PRCP99
0190676890999992000022206004-14320+034270FM-12+1632FWDZ V0202901N00301045001CN0300001N1+01821+01661999999ADDAA199000091GA1031+007509069GF106991031051008001031999KA1120N+01331OA150600501REMSYN082AAXX  22061 67689 32580 62903 10182 20166 8353/ 333 20133 50561 55054 83625 86359;EQDQ01  00002PRCP99
0232676890999992000022312004-14320+034270FM-12+1632FWDZ V0203101N00501045001CN0100001N1+02851+01561999999ADDAA199000091AY121061AY221061GA1011+013509089GF107991011011012501031081MA1999999087081MD1999999-0051ME1314639MW1051REMSYN088AAXX  23121 67689 31660 73105 10285 20156 38708 48463 70522 81138 333 59005 81845 87280;EQDQ01  00002PRCP99
0198676890999992000030212004-14320+034270FM-12+1632FWDZ V0201001N004010105019N0100001N1+01941+01741999999ADDAA199000091AY191061AY221061GA1011+009009099GA2061+010509089GF107991061051012501031999MW1171REMSYN076AAXX  02121 67689 31660 71004 10194 20174 71792 8653/ 333 81930 86835 87360;EQDQ01  00002PRCP99
0205676890999992000030906004-14320+034270FM-12+1632FWDZ V0200901N001010270019N0300001N1+01961+01551999999ADDAA124032091GA1031+009009069GA2051+027009039GF107991031051012501031061KA1120N+01241OA150600301REMSYN100AAXX  09061 67689 12680 70901 10196 20155 60324 83536 333 20124 50561 55032 70322 83630 85359 87280;
0192676890999992000031012004-14320+034270FM-12+1632FWDZ V0203101N001010300019N0750001N1+02101+01661999999ADDAA199000091GA1031+009009089GA2041+010509069GA3061+030009039GF107991041081012501031051REMSYN076AAXX  10121 67689 32689 73101 10210 20166 84835 333 83830 84635 86360 87280;EQDQ01  00002PRCP99
0246676890999992000031406004-14320+034270FM-12+1632FWDZ V0203601N001010045019N0060001N1+01701+01651999999ADDAA124017091AY161061AY221061GA1011+001809079GA2061+004509069GF108991061071002501071999KA1120N+01331MW1631OA150699999REMSYN100AAXX  14061 67689 11356 83601 10170 20165 60174 76362 8677/ 333 20133 55002 70173 81706 86615 88459;EQDQ01  00002WGOSPD
0173676890999992000031412004-14320+034270FM-12+1632FWDZ V0202301N004010105019N0300001N1+02131+01621999999ADDAA199000021GA1011+009009099GA2051+010509089GA3051+030009039GF107991051091012501031081REMSYN076AAXX  14121 67689 32680 72304 10213 20162 85938 333 81930 85835 85360 87280;
0190676890999992000031506004-14320+034270FM-12+1632FWDZ V0203401N00401045001CN0300001N1+01931+01771999999ADDAA199000091GA1041+009009069GF107991041051012501031999KA1120N+01341OA150600401REMSYN082AAXX  15061 67689 32680 73404 10193 20177 8453/ 333 20134 50411 55044 84630 87359;EQDQ01  00002PRCP99
0183676890999992000031606004-14320+034270FM-12+1632FWDZ V0200801N00301045001CN0300001N1+02051+01751999999ADDAA124021191GA1011+006009089GF107991011011008001031081KA1120N+01361OA150600601REMSYN094AAXX  16061 67689 12580 70803 10205 20175 60214 81138 333 20136 50021 55063 70211 81820 87270;
0148676890999992000031709004-14320+034270FM-12+1632FWDZ V0202301N00201105001CN0300001N1+02281+01551999999ADDAA199000091GA1041+009009089GF107991041011012501001081REMSYN064AAXX  17091 67689 32680 72302 10228 20155 84108 333 84830 87280;EQDQ01  00002PRCP99
0148676890999992000032212004-14320+034270FM-12+1632FWDZ V0202101N00201015001CN0300001N1+01981+01671999999ADDAA199000091GA1041+009009089GF105991051081012501001001REMSYN064AAXX  22121 67689 32680 52102 10198 20167 85800 333 84830 85635;EQDQ01  00002PRCP99
0228676890999992000032306004-14320+034270FM-12+1632FWDZ V0201901N005010240019N0300001N1+01731+01651999999ADDAA124003091GA1041+006009069GA2071+024009039GF107991041051008001031999KA1240M+02311KA2120N+01311OA150600701REMSYN110AAXX  23061 67689 12580 71905 10173 20165 60034 8453/ 333 20131 50441 55073 70034 84620 87358 555 10231 7//61;
0178676890999992000032806004-14320+034270FM-12+1632FWDZ V0201101N002012200019N0300001N1+01921+01581999999ADDAA199000091GA1041+006009059GF104991041051008001001001KA1120N+01241OA150600201REMSYN070AAXX  28061 67689 32580 41102 10192 20158 84500 333 20124 55027 84620;EQDQ01  00002PRCP99
0171676890999992000032812004-14320+034270FM-12+1632FWDZ V0200601N005012200019N0300001N1+02171+01591999999ADDAA199000091GA1041+012009089GF104991041011012501001001KA1240M+02201REMSYN074AAXX  28121 67689 32680 40605 10217 20159 84100 333 84840 555 10220 29069;EQDQ01  00002PRCP99
0190676890999992000032906004-14320+034270FM-12+1632FWDZ V0203301N00401045001CN0300001N1+01971+01591999999ADDAA199000091GA1041+009009089GF105991041011012501031001KA1120N+01291OA150600901REMSYN082AAXX  29061 67689 32680 53304 10197 20159 84130 333 20129 50561 55097 84830 85359;EQDQ01  00002PRCP99
0190676890999992000033006004-14320+034270FM-12+1632FWDZ V0201101N00301045001CN0300001N1+01941+01641999999ADDAA199000091GA1041+006009069GF106991041051008001031081KA1120N+01291OA150600901REMSYN082AAXX  30061 67689 32580 61103 10194 20164 84538 333 20129 50461 55092 84620 86270;EQDQ01  00002PRCP99
0173676890999992000033106004-14320+034270FM-12+1632FWDZ V0201701N00301105001CN0300001N1+01891+01621999999ADDAA199000091GA1041+009009089GF107991041011012501001071KA1120N+01261REMSYN076AAXX  31061 67689 32680 71703 10189 20162 84107 333 20126 50581 84830 87280;EQDQ01  00002PRCP99
0184676890999992000040406004-14320+034270FM-12+1632FWDZ V0202601N002010900019N0750001N1+01931+01661999999ADDAA199000091GA1071+090009089GF107991001001999999001071KA1120N+01021OA150601001REMSYN076AAXX  04061 67689 32989 72602 10193 20166 80007 333 20102 50611 55103 87280;EQDQ01  00002PRCP99
0148676890999992000040712004-14320+034270FM-12+1632FWDZ V0201901N003010090019N0300001N1+02111+01631999999ADDAA199000091GA1061+009009089GF107991061011012501001071REMSYN064AAXX  07121 67689 32680 71903 10211 20163 86107 333 86830 87280;EQDQ01  00002PRCP99
0224676890999992000041106004-14320+034270FM-12+1632FWDZ V0201001N002010060019N0300001N1+01221+99999999999ADDAA124013091AY161061AY221061GA1071+006009059GF107991071051008001999999KA1120N+99999MW1031OA150600301REMSYN094AAXX  11061 67689 11580 71002 10122 20131 60134 70362 875// 333 20129 50131 55039 70130 87620;EQDQ01 +01292ATMN  
0184676890999992000041206004-14320+034270FM-12+1632FWDZ V0201101N002012200019N0300001N1+01861+01461999999ADDAA199000091GA1041+007509029GF104991041011008001001001KA1120N+01091OA150600601REMSYN076AAXX  12061 67689 32580 41102 10186 20146 84100 333 20109 50411 55062 84825;EQDQ01  00002PRCP99
0213676890999992000041306004-14320+034270FM-12+1632FWDZ V0201101N003012200019N0750001N1+01901+01511999999ADDAA199000091GA1031+007509069GF103991031051008001031001KA1240M+02281KA2120N+01161OA150600901REMSYN092AAXX  13061 67689 32589 31103 10190 20151 83530 333 20116 50411 55099 83625 555 10228 7//11;EQDQ01  00002PRCP99
0200676890999992000041406004-14320+034270FM-12+1632FWDZ V0201301N002012200019N0300001N1+01971+01561999999ADDAA199000091GA1031+007509029GF103991999031012501001001KA1120N+01181OA150601001REMSYN076AAXX  14061 67689 32680 31302 10197 20156 81300 333 20118 50561 55109 83825;EQDQ01+000012SCOTLCQ02  00002PRCP99
0213676890999992000041906004-14320+034270FM-12+1632FWDZ V0202001N002010060019N0750001N1+01971+01601999999ADDAA199000091GA1051+006009069GF105991051051008001001001KA1240M+02461KA2120N+01881OA150600601REMSYN092AAXX  19061 67689 32589 52002 10197 20160 85500 333 20188 50511 55065 85620 555 10246 7//91;EQDQ01  00002PRCP99
0142676890999992000041909004-14320+034270FM-12+1632FWDZ V0201301N004010090019N0300001N1+02171+01501999999ADDAA199000091GA1051+009009029GF105991051021012501001001REMSYN058AAXX  19091 67689 32680 51304 10217 20150 85200 333 85830;EQDQ01  00002PRCP99
0193676890999992000042212004-14320+034270FM-12+1632FWDZ V0202501N001010300019N0300001N1+02131+01601999999ADDAA199000091GA1041+010509089GA2061+030009039GF106991041021012501031999KA1240M+02461REMSYN080AAXX  22121 67689 32680 62501 10213 20160 8423/ 333 84835 86360 555 10246 29073;EQDQ01  00002PRCP99
0148676890999992000042609004-14320+034270FM-12+1632FWDZ V0200701N004012200019N0750001N1+02161+01141999999ADDAA199000091GA1011+009009099GF104991041091012501001001REMSYN064AAXX  26091 67689 32689 40704 10216 20114 84900 333 81930 84835;EQDQ01  00002PRCP99
0184676890999992000042806004-14320+034270FM-12+1632FWDZ V0201901N004012200019N0750001N1+01891+01431999999ADDAA199000091GA1041+007509029GF104991041011008001001001KA1120N+01241OA150601101REMSYN076AAXX  28061 67689 32589 41904 10189 20143 84100 333 20124 50561 55112 84825;EQDQ01  00002PRCP99
0235676890999992000050106004-14320+034270FM-12+1632FWDZ V0201201N004010045019N0300001N1+01341+01241999999ADDAA199000091GA1031+002409079GA2061+004509069GF106991061071002501001001KA1240M+02141KA2120N+00881OA150600901REMSYN098AAXX  01061 67689 32380 61204 10134 20124 86700 333 20088 50411 55095 83708 86615 555 10214 7//11;EQDQ01  00002PRCP99
0171676890999992000050312004-14320+034270FM-12+1632FWDZ V0202101N001012200019N0750001N1+02301+01371999999ADDAA199000091GA1011+012009089GF101991011011012501001001KA1240M+02371REMSYN074AAXX  03121 67689 32689 12101 10230 20137 81100 333 81840 555 10237 29051;EQDQ01  00002PRCP99
0171676890999992000050412004-14320+034270FM-12+1632FWDZ V0200701N002012200019N0750001N1+02221+01501999999ADDAA199000091GA1041+012009089GF104991041021012501001001KA1240M+02351REMSYN074AAXX  04121 67689 32689 40702 10222 20150 84200 333 84840 555 10235 29064;EQDQ01  00002PRCP99
0158676890999992000050509004-14320+034270FM-12+1632FWDZ V0200601N003012200019N0750001N1+02611+01791999999ADDAA199000091GA1061+007509029GF199999061021008001001001REMSYN058AAXX  05091 67689 32589 40603 10261 20179 86200 333 86825;EQDQ01+000042SCOTCVQ02  00002PRCP99
0212676890999992000050806004-14320+034270FM-12+1632FWDZ V0201701N006010060019N0300001N1+01511+01341999999ADDAA199000091GA1021+002709079GA2061+006009069GF107991061061002501031999KA1120N+00931OA150600901REMSYN088AAXX  08061 67689 32380 71706 10151 20134 8663/ 333 20093 50461 55092 82709 86620 87357;EQDQ01  00002PRCP99
0190676890999992000050906004-14320+034270FM-12+1632FWDZ V0200901N002010060019N0750001N1+01601+01391999999ADDAA199000091GA1061+006009069GF106991061051008001001081KA1120N+00981OA150600601REMSYN082AAXX  09061 67689 32589 60902 10160 20139 86508 333 20098 50411 55060 86620 86270;EQDQ01  00002PRCP99
0142676890999992000050909004-14320+034270FM-12+1632FWDZ V0201201N002010090019N0300001N1+01851+01381999999ADDAA199000091GA1061+009009029GF106991061021012501001021REMSYN058AAXX  09091 67689 32680 61202 10185 20138 86202 333 86830;EQDQ01  00002PRCP99
0215676890999992000050912004-14320+034270FM-12+1632FWDZ V0202501N003010090019N0300001N1+02061+01361999999ADDAA199000091GA1011+002709079GA2061+009009069GA3071+090009029GF107991061061002501001081KA1240M+02121REMSYN086AAXX  09121 67689 32380 72503 10206 20136 86608 333 81709 86630 87280 555 10212 29064;EQDQ01  00002PRCP99
0240676890999992000051006004-14320+034270FM-12+1632FWDZ V0202801N001010075019N0200001N1+01671+01261999999ADDAA199000091AY121061AY221061GA1011+002709079GA2051+007509089GF106991051061008001001081KA1120N+00961MW1051OA150600601REMSYN094AAXX  10061 67689 31570 62801 10167 20126 70522 85608 333 20096 50361 55062 81709 85825 86270;EQDQ01  00002PRCP99
0182676890999992000051506004-14320+034270FM-12+1632FWDZ V0200901N001012200019N0750001N1+01571+01121999999ADDAA199000091GF101991011011008001001001KA1120N+00681MD1999999+3111OA150600701REMSYN076AAXX  15061 67689 32589 10901 10157 20112 81100 333 20068 58311 55074 81825;EQDQ01  00002PRCP99
0171676890999992000051512004-14320+034270FM-12+1632FWDZ V02099999999990105019N0300001N1+01941+01541999999ADDAA199000091GA1061+010509069GF106991061051012501001001KA1240M+02181REMSYN074AAXX  15121 67689 32680 6230/ 10194 20154 86500 333 86635 555 10218 29078;EQDQ01  00002PRCP99
0241676890999992000051606004-14320+034270FM-12+1632FWDZ V0201701N001010210019N0200001N1+01401+00861999999ADDAA199000091AY121061AY221061GA1061+021009039GF106991061001999999031999KA1240M+02191KA2120N+00741MW1051OA150600701REMSYN098AAXX  16061 67689 31970 61701 10140 20086 70522 8603/ 333 20074 50411 55070 86357 555 10219 7//22;EQDQ01  00002PRCP99
0184676890999992000051706004-14320+034270FM-12+1632FWDZ V0200401N001012200019N0750001N1+01501+00781999999ADDAA199000091GA1011+007509059GF101991011051008001001001KA1120N+00571OA150600801REMSYN076AAXX  17061 67689 32589 10401 10150 20078 81500 333 20057 50411 55086 81625;EQDQ01  00002PRCP99
0212676890999992000051906004-14320+034270FM-12+1632FWDZ V0201101N002012200019N0200001N1+01651+01221999999ADDAA199000091AY101061AY201061GA1031+006009059GF103991031051008001001001KA1120N+00661MW1051OA150600701REMSYN082AAXX  19061 67689 31570 31102 10165 20122 70500 83500 333 20066 50411 55076 83620;EQDQ01  00002PRCP99
0212676890999992000060606004-14320+034270FM-12+1632FWDZ V0201001N003012200019N0080001N1+01471+01111999999ADDAA199000091AY101061AY201061GA1041+006009059GF104991041051008001001001KA1120N+00691MW1051OA150601001REMSYN082AAXX  06061 67689 31558 41003 10147 20111 70500 84500 333 20069 50561 55104 84620;EQDQ01  00002PRCP99
0176676890999992000060712004-14320+034270FM-12+1632FWDZ V0200901N003010105019N0200001N1+01531+00981999999ADDAA199000091AY121061AY221061GA1051+010509089GF106991051021012501031001MW1051REMSYN070AAXX  07121 67689 31670 60903 10153 20098 70522 85230 333 85835 85360;EQDQ01  00002PRCP99
0212676890999992000060906004-14320+034270FM-12+1632FWDZ V0200801N003012200019N0100001N1+01831+01071999999ADDAA199000091AY101061AY201061GA1011+006009059GF101991011051008001001001KA1120N+00871MW1051OA150600701REMSYN082AAXX  09061 67689 31560 10803 10183 20107 70500 81500 333 20087 50411 55073 81620;EQDQ01  00002PRCP99
0199676890999992000060912004-14320+034270FM-12+1632FWDZ V0201001N004012200019N0150001N1+01751+01101999999ADDAA199000091AY101061AY201061GA1041+010509089GF104991041021012501001001KA1240M+02071MW1051REMSYN080AAXX  09121 67689 31665 41004 10175 20110 70500 84200 333 84835 555 10207 29068;EQDQ01  00002PRCP99
0142676890999992000062812004-14320+034260FM-12+1632FWDZ V0201701N006010075019N0300001N1+01631+00681999999ADDAA199000091GA1051+007509029GF105991051021008001001001REMSYN058AAXX  28121 67689 32580 51706 10163 20068 85200 333 85825;EQDQ01  00002PRCP99
0196676890999992000070706004-14320+034260FM-12+1632FWDZ V0202401N006010018019N0300001N1+00991+00991999999ADDAA199000091GA1061+001809079GF107991071061002501999999KA1120N+00511OA150600801REMSYN088AAXX  07061 67689 32380 72406 10099 20099 876// 333 004// 20051 50311 55084 86706 87620;EQDQ01  00002PRCP99
0195676890999992000072006004-14320+034260FM-12+1632FWDZ V0200801N002012200019N0100001N1+01461+00831999999ADDAA199000091AY101061AY201061GA1001+999999999GF100991001001999999001001KA1120N+00591MW1051REMSYN076AAXX  20061 67689 31960 00802 10146 20083 70500 333 003// 20059 50411 55107;EQDQ01  00002PRCP99
0170676890999992000072512004-14320+034260FM-12+1632FWDZ V0201401N002012200019N0200001N1+01801+00641999999ADDAA199000091AY111061AY211061GA1041+010509029GF104991041011012501001001MW1051REMSYN064AAXX  25121 67689 31670 41402 10180 20064 70511 84100 333 84835;EQDQ01  00002PRCP99
0170676890999992000080312004-14320+034260FM-12+1632FWDZ V0200901N003012200019N0100001N1+01951+01131999999ADDAA199000091AY101061AY201061GA1041+012009029GF104991041011012501001001MW1051REMSYN064AAXX  03121 67689 31660 40903 10195 20113 70500 84100 333 84840;EQDQ01  00002PRCP99
0218676890999992000080506004-14320+034260FM-12+1632FWDZ V0201001N004012200019N0100001N1+01641+01111999999ADDAA199000091AY101061AY201061GA1011+006009059GF101991011051008001001001KA1120N+00911MW1051OA150600701REMSYN088AAXX  05061 67689 31560 11004 10164 20111 70500 81500 333 007// 20091 50411 55078 81620;EQDQ01  00002PRCP99
0170676890999992000081512004-14320+034260FM-12+1632FWDZ V0201201N003010060019N0300001N1+01401+00881999999ADDAA199000091AY141061AY221061GA1061+006009059GF106991061051008001001001MW1011REMSYN064AAXX  15121 67689 31580 61203 10140 20088 70142 86500 333 86620;EQDQ01  00002PRCP99
0142676890999992000081712004-14320+034260FM-12+1632FWDZ V0201201N001010105019N0300001N1+01781+00821999999ADDAA199000091GA1061+010509029GF106991061021012501001001REMSYN058AAXX  17121 67689 32680 61201 10178 20082 86200 333 86835;EQDQ01  00002PRCP99
0195676890999992000082106004-14320+034260FM-12+1632FWDZ V0201101N003012200019N0090001N1+01601+01061999999ADDAA199000091AY101061AY201061GA1001+999999999GF100991001001999999001001KA1120N+00761MW1051REMSYN076AAXX  21061 67689 31959 01103 10160 20106 70500 333 007// 20076 50461 55098;EQDQ01  00002PRCP99
0224676890999992000082906004-14320+034260FM-12+1632FWDZ V0203401N00201045001CN0070001N1+01431+00971999999ADDAA199000091AY121061AY221061GA1041+006009069GF106991041051008001031001KA1120N+00661MW1051OA150600501REMSYN094AAXX  29061 67689 31557 63402 10143 20097 70522 84530 333 004// 20066 50361 55051 84620 83659;EQDQ01  00002PRCP99
0176676890999992000090612004-14320+034260FM-12+1632FWDZ V0201101N002010120019N0070001N1+02201+01141999999ADDAA199000091AY111061AY211061GA1051+012009089GF107991051011012501001081MW1051REMSYN070AAXX  06121 67689 31657 71102 10220 20114 70511 85108 333 85840 87280;EQDQ01  00002PRCP99
0234676890999992000090706004-14320+034260FM-12+1632FWDZ V0200901N003010600019N0060001N1+01901+01051999999ADDAA199000091AY101061AY201061GA1071+060009089GF107991999001999999001081KA1120N+01111MW1051OA150600801REMSYN088AAXX  07061 67689 31956 70903 10190 20105 70500 80008 333 009// 20111 50511 55086 87270;EQDQ01+000002SCOTLCQ02  00002PRCP99
0154676890999992000090712004-14320+034260FM-12+1632FWDZ V0201701N002012200019N0060001N1+02491+01201999999ADDAA199000091AY101061AY201061GA1001+999999999GF100991001001999999001001MW1051REMSYN048AAXX  07121 67689 31956 01702 10249 20120 70500;EQDQ01  00002PRCP99
0170676890999992000091112004-14320+034260FM-12+1632FWDZ V0201201N006012200019N0080001N1+02311+00661999999ADDAA199000091AY101061AY201061GA1011+012009029GF101991011011012501001001MW1051REMSYN064AAXX  11121 67689 31658 11206 10231 20066 70500 81100 333 81840;EQDQ01  00002PRCP99
0218676890999992000091206004-14320+034260FM-12+1632FWDZ V0201401N006010060019N0150001N1+01491+01181999999ADDAA199000091AY121061AY221061GA1061+006009059GF106991061051008001001001KA1120N+01091MW1051OA150601101REMSYN088AAXX  12061 67689 31565 61406 10149 20118 70522 86500 333 008// 20109 50911 55110 86620;EQDQ01  00002PRCP99
0176676890999992000091212004-14320+034260FM-12+1632FWDZ V0200901N00401045001CN0090001N1+01961+00911999999ADDAA199000091AY121061AY221061GA1011+010509089GF107991011011012501031081MW1051REMSYN070AAXX  12121 67689 31659 70904 10196 20091 70522 81138 333 81835 86360;EQDQ01  00002PRCP99
0250676890999992000091306004-14320+034260FM-12+1632FWDZ V0200901N004019999999N0060001N1+01751+01081999999ADDAA199000091AY111061AY211061GA1031+010509029GF107991999011008001001001KA1120N+00941MW1051OA150699999REMSYN088AAXX  13061 67689 31556 70904 10175 20108 70511 83100 333 009// 20094 50361 55032 83835;EQDQ01+000032SCOTLCQ02  00002PRCP99Q03  00302WGOSPD
0170676890999992000091512004-14320+034260FM-12+1632FWDZ V0201001N002012200019N0070001N1+02601+00841999999ADDAA199000091AY101061AY201061GA1041+013509029GF104991041011012501001001MW1051REMSYN064AAXX  15121 67689 31657 41002 10260 20084 70500 84100 333 84845;EQDQ01  00002PRCP99
0218676890999992000091806004-14320+034260FM-12+1632FWDZ V0200401N001012200019N0200001N1+01631+01081999999ADDAA199000091AY101061AY201061GA1041+027009079GF104991041001999999031001KA1120N+01091MW1051OA150601001REMSYN088AAXX  18061 67689 31970 40401 10163 20108 70500 84030 333 008// 20109 50561 55103 84359;EQDQ01  00002PRCP99
0195676890999992000092106004-14320+034260FM-12+1632FWDZ V0201201N004012200019N0060001N1+01501+00881999999ADDAA199000091AY101061AY201061GA1001+999999999GF100991001001999999001001KA1120N+00691MW1051REMSYN076AAXX  21061 67689 31956 01204 10150 20088 70500 333 005// 20069 50561 55086;EQDQ01  00002PRCP99
0195676890999992000092206004-14320+034260FM-12+1632FWDZ V0201401N001012200019N0070001N1+01571+00981999999ADDAA199000091AY101061AY201061GA1001+999999999GF100991001001999999001001KA1120N+01131MW1051REMSYN076AAXX  22061 67689 31957 01401 10157 20098 70500 333 009// 20113 50511 55098;EQDQ01  00002PRCP99
0176676890999992000092612004-14320+034260FM-12+1632FWDZ V0201001N00301045001CN0090001N1+02151+00971999999ADDAA199000091AY111061AY211061GA1011+012009089GF106991011011012501031001MW1051REMSYN070AAXX  26121 67689 31659 61003 10215 20097 70511 81130 333 81840 86360;EQDQ01  00002PRCP99
0218676890999992000092806004-14320+034260FM-12+1632FWDZ V0201301N001012200019N0090001N1+01661+01211999999ADDAA199000091AY101061AY201061GA1041+007509059GF104991041051008001001001KA1120N+00971MW1051OA150601001REMSYN088AAXX  28061 67689 31559 41301 10166 20121 70500 84500 333 007// 20097 50561 55101 84625;EQDQ01  00002PRCP99
0176676890999992000092812004-14320+034260FM-12+1632FWDZ V0201101N00201045001CN0090001N1+02191+00661999999ADDAA199000091AY111061AY211061GA1041+012009089GF106991041011012501031061MW1051REMSYN070AAXX  28121 67689 31659 61102 10219 20066 70511 84136 333 84840 86280;EQDQ01  00002PRCP99
0170676890999992000102512004-14320+034260FM-12+1632FWDZ V0201701N005010900019N0100001N1+02641+00841999999ADDAA199000091AY121061AY221061GA1071+090009089GF107991001001999999001081MW1051REMSYN064AAXX  25121 67689 31960 71705 10264 20084 70522 80008 333 87280;EQDQ01  00002PRCP99
0148676890999992000110109004-14320+034260FM-12+1632FWDZ V0201601N001010075019N0300001N1+01791+01541999999ADDAA199000091GA1061+007509069GF107991061051008001031011REMSYN064AAXX  01091 67689 32580 71601 10179 20154 86531 333 86625 87359;EQDQ01  00002PRCP99
0190676890999992000110306004-14320+034260FM-12+1632FWDZ V0202201N00301045001CN0300001N1+01991+01371999999ADDAA199000091GA1011+006009089GF107991011051008001031999KA1120N+01291OA150600801REMSYN082AAXX  03061 67689 32580 72203 10199 20137 8153/ 333 20129 50461 55080 81820 87359;EQDQ01  00002PRCP99
0190676890999992000110906004-14320+034260FM-12+1632FWDZ V0201601N004012200019N0250001N1+01931+01441999999ADDAA199000091GA1041+009009089GF104991041011012501031001KA1120N+01201OA150600401REMSYN082AAXX  09061 67689 32675 41604 10193 20144 84130 333 20120 50411 55044 84830 84359;EQDQ01  00002PRCP99
0202676890999992000111606004-14320+034260FM-12+1632FWDZ V0200901N00301045001CN0300001N1+01901+01511999999ADDAA124027991GA1021+006009069GF106991021051008001031001KA1120N+01081OA150699999REMSYN094AAXX  16061 67689 12580 60903 10190 20151 60284 82530 333 20108 50211 55023 70278 82620 86359;EQDQ01  00202WGOSPD
0246676890999992000120506004-14320+034260FM-12+1632FWDZ V0201601N003010300019N0300001N1+01961+01591999999ADDAA106003091GA1041+009009089GA2051+009009069GA3061+030009039GF106991051081012501031071KA1120N+01241OA150699999REMSYN106AAXX  05061 67689 12680 61603 10196 20159 60031 85837 333 20124 50641 55023 70033 84830 85630 86360 86275;EQDQ01  00202WGOSPD
0220676890999992000120712004-14320+034260FM-12+1632FWDZ V0201301N006010135019N0090001N1+02331+01371999999ADDAA199000091AY191061AY221061GA1011+012009099GA2051+013509089GA3031+030009039GF107991051091012501031081MW1171REMSYN082AAXX  07121 67689 31659 71306 10233 20137 71792 85938 333 81940 85845 83360 87280;EQDQ01  00002PRCP99
0142676890999992000121812004-14320+034260FM-12+1632FWDZ V0203101N002012200019N0300001N1+02351+01601999999ADDAA199000091GA1031+012009029GF103991031011012501001001REMSYN058AAXX  18121 67689 32680 33102 10235 20160 83100 333 83840;EQDQ01  00002PRCP99
0220676890999992000122012004-14320+034260FM-12+1632FWDZ V0201301N001010300019N0300001N1+02311+01651999999ADDAA199000091AY191061AY221061GA1011+009009099GA2041+009009089GA3061+030009039GF106991041091012501031081MW1031REMSYN082AAXX  20121 67689 31680 61301 10231 20165 70392 84938 333 81930 84830 86360 86280;EQDQ01  00002PRCP99
0202676890999992000122106004-14320+034260FM-12+1632FWDZ V0200901N00401045001CN0300001N1+02011+01771999999ADDAA124008991GA1031+006009089GF107991031021008001031081KA1120N+01171OA150699999REMSYN094AAXX  21061 67689 12580 70904 10201 20177 60094 83238 333 20117 50511 55021 70092 83820 87270;EQDQ01  00202WGOSPD
0176676890999992000122112004-14320+034260FM-12+1632FWDZ V0203301N00101012001CN0250001N1+01991+01511999999ADDAA199000091AY191061AY221061GA1021+009009099GF107991051091012501031061MW1171REMSYN070AAXX  21121 67689 31675 73301 10199 20151 71792 85936 333 82930 85835;EQDQ01  00002PRCP99
0190676890999992000122806004-14320+034260FM-12+1632FWDZ V0201601N002010075019N0300001N1+01871+01591999999ADDAA199000091GA1051+007509069GF107991051051008001001061KA1120N+01131OA150601001REMSYN082AAXX  28061 67689 32580 71602 10187 20159 85506 333 20113 50461 55102 85625 87275;EQDQ01  00002PRCP99
