0263682420999992000010100004-25780+025530SY-MT+1277FAMM V0200201N003119999999N9999999N1+01951+01731999999ADDAA106000091KA1120M+02901KA2120N+01951MA1101391086951MD1710311+9999ME1314799MW1001REMSYN092AAXX  01004 68242 36/// /0206 10195 20173 38695 48479 57031 333 10290 20195 91007 555 91014;MET053FAMM 010000Z AUTO 03008KT //// // ////// 20/17 Q1014;EQDQ01  00002PRCP06
0086682420999992000010101004-25780+025530FM-15+1277FAMM V0200201N002612200019N9999999N1+01901+01701999999ADDMA1101391999999MW1001REMMET053FAMM 010100Z AUTO 02005KT //// // ////// 19/17 Q1014;
0086682420999992000010102004-25780+025530FM-15+1277FAMM V0200301N001512200019N9999999N1+01901+01701999999ADDMA1101391999999MW1001REMMET053FAMM 010200Z AUTO 03003KT //// // ////// 19/17 Q1014;
0296682420999992000010103004-25780+025530SY-MT+1277FAMM V0200701N00211030001CN0280001N1+01911+01691999999ADDGA1021+006009999GA2071+030009999GF107991021051008001071999KA1120M+02901KA2120N+01901MA1101391086941MD1710011+9999ME1314779MW1001REMSYN098AAXX  01034 68242 42578 70704 10191 20169 38694 48477 57001 8257/ 333 10290 20190 91005 555 91014;MET052FAMM 010300Z 05004KT 9999 FEW020 BKN100 19/16 Q1014;
0143682420999992000010105004-25780+025530FM-15+1277FAMM V0200501N003612200019N0112651N1+02001+01601999999ADDGA1021+006009999GA2021+030009999GF104991999999999999999999MA1101491999999MW1001REMMET052FAMM 010500Z 05007KT 9999 SCT020 SCT100 20/16 Q1015;
0326682420999992000010106004-25780+025530SY-MT+1277FAMM V0200401N006710360019N0280001N1+02151+01581999999ADDAA106000091GA1021+007509999GA2021+030009999GF107991041051008001071999KA1240M+02901KA2120N+01881MA1101491087081MD1210141+9999ME1314929MW1001REMSYN098AAXX  01064 68242 32578 70413 10215 20158 38708 48492 52014 8457/ 333 20188 91019 555 10290 91015;MET052FAMM 010600Z 04014KT 9999 SCT025 SCT100 22/16 Q1015;EQDQ01  00002PRCP06
0146682420999992000010107004-25780+025530FM-15+1277FAMM V0200301N008712200019N0112651N1+02301+01701999999ADDGA1021+007509999GA2021+009009029GF104991999999999999999999MA1101491999999MW1001REMMET055FAMM 010700Z 03017KT 9999 FEW030TCU SCT025 23/17 Q1015;
0146682420999992000010108004-25780+025530FM-15+1277FAMM V0209999C000012200019N0112651N1+02901+02201999999ADDGA1021+007509999GA2021+009009029GF104991999999999999999999MA1101491999999MW1001REMMET055FAMM 010800Z 00000KT 9999 FEW030TCU SCT025 29/22 Q1015;
0299682420999992000010109004-25780+025530SY-MT+1277FAMM V0203601N005119999999N0280001N1+02491+01711999999ADDGA1021+007509999GA2021+009009029GF105991999051008001001001KA1120M+02511KA2120N+00001MA1101491087041MD1710041+9999ME1314899MW1001REMSYN098AAXX  01094 68242 42578 53610 10249 20171 38704 48489 57004 83500 333 10251 20000 91020 555 91015;MET055FAMM 010900Z 01012KT 9999 FEW030TCU SCT025 25/17 Q1015;
0146682420999992000010110004-25780+025530FM-15+1277FAMM V0200201N005112200019N0112651N1+02601+01701999999ADDGA1021+006009999GA2021+007509029GF104991999999999999999999MA1101391999999MW1001REMMET055FAMM 011000Z 02010KT 9999 FEW025TCU SCT020 26/17 Q1014;
0146682420999992000010111004-25780+025530FM-15+1277FAMM V0200201N005112200019N0112651N1+02601+01701999999ADDGA1021+006009999GA2021+007509029GF104991999999999999999999MA1101391999999MW1001REMMET055FAMM 011100Z 02010KT 9999 FEW025TCU SCT020 26/17 Q1014;
0329682420999992000010112004-25780+025530SY-MT+1277FAMM V0203601N006210360019N0280001N1+02741+01581999999ADDAA106000091GA1021+006009999GA2021+007509029GF107991031051008001071001KA1120M+02761KA2120N+00001MA1101291086851MD1710191+9999ME1314709MW1001REMSYN098AAXX  01124 68242 32578 73612 10274 20158 38685 48470 57019 83570 333 10276 20000 91017 555 91013;MET055FAMM 011200Z 02012KT 9999 FEW025TCU SCT020 27/16 Q1013;EQDQ01  00002PRCP06
0146682420999992000010113004-25780+025530FM-15+1277FAMM V0200401N004612200019N0112651N1+02601+01601999999ADDGA1021+006009999GA2021+007509029GF104991999999999999999999MA1101291999999MW1001REMMET055FAMM 011300Z 04009KT 9999 FEW025TCU SCT020 26/16 Q1013;
0180682420999992000010114004-25780+025530FM-15+1277FAMM V0200401N003112200019N0112651N1+02301+01801999999ADDGA1021+006009999GA2021+007509029GF104991999999999999999999MA1101191999999MW1611OC100821REMMET062FAMM 011400Z 04006G16KT 9999 -RA FEW025TCU SCT020 23/18 Q1012;EQDQ01    003PRSWM1
0384682420999992000010115004-25780+025530SY-MT+1277FAMM V0200601N004110360019N0280001N1+02221+02011999999ADDAA101000591AA224001091AY121031AY221031GA1021+006009999GA2021+007509029GF108991031051008001071999KA1120M+02761KA2120N+02191MA1101191086771MD1710081+9999ME1314619MW1601MW2611REMSYN116AAXX  01154 68242 41578 80608 10222 20201 38677 48461 57008 76022 8357/ 333 10276 20219 69965 91014 555 20010 91012;MET059FAMM 011500Z 05008KT 9999 -RA FEW025TCU SCT020 22/20 Q1012;EQDQ01    003PRSWM1
0146682420999992000010116004-25780+025530FM-15+1277FAMM V0200501N004112200019N0112651N1+02201+01901999999ADDGA1021+006009999GA2021+007509029GF104991999999999999999999MA1101191999999MW1001REMMET055FAMM 011600Z 05008KT 9999 FEW025TCU SCT020 22/19 Q1012;
0146682420999992000010117004-25780+025530FM-15+1277FAMM V0200101N002612200019N0112651N1+02201+01801999999ADDGA1021+007509029GA2021+009009999GF102991999999999999999999MA1101291999999MW1001REMMET055FAMM 011700Z 01005KT 9999 FEW025TCU FEW030 22/18 Q1013;
0374682420999992000010118004-25780+025530SY-MT+1277FAMM V0200101N003112200019N0280001N1+02141+01821999999ADDAA112001091AA224001091AY161061AY221061GA1021+007509029GA2021+009009999GF105991011041008001071041KA1120M+02761KA2120N+02091MA1101391086981MD1210211+9999ME1314829MW1021REMSYN116AAXX  01184 68242 11578 50106 10214 20182 38698 48482 52021 60012 70262 81474 333 10276 20209 91006 555 20010 91014;MET055FAMM 011800Z 01006KT 9999 FEW025TCU FEW030 21/18 Q1014;EQDQ01    003PRSWM1
0086682420999992000010119004-25780+025530FM-15+1277FAMM V0200101N003612200019N9999999N1+02101+01801999999ADDMA1101391999999MW1001REMMET053FAMM 011900Z AUTO 01007KT //// // ////// 21/18 Q1014;
0086682420999992000010120004-25780+025530FM-15+1277FAMM V0200101N003112200019N9999999N1+02001+01801999999ADDMA1101491999999MW1001REMMET053FAMM 012000Z AUTO 01006KT //// // ////// 20/18 Q1015;
0086682420999992000010121004-25780+025530FM-15+1277FAMM V0200201N002612200019N9999999N1+02001+01801999999ADDMA1101491999999MW1001REMMET053FAMM 012100Z AUTO 02005KT //// // ////// 20/18 Q1015;
0091682420999992000010122004-25780+025530FM-15+1277FAMM V0200101N002112200019N9999999N1+02001+01801999999ADDMA1101491999999MW1001REMMET058FAMM 012200Z AUTO 01004KT //// // ////// 20/18 Q1015 RERA;
0091682420999992000010123004-25780+025530FM-15+1277FAMM V0200201N002112200019N9999999N1+02001+01801999999ADDMA1101491999999MW1001REMMET058FAMM 012300Z AUTO 02004KT //// // ////// 20/18 Q1015 RERA;
0286682420999992000010200004-25780+025530SY-MT+1277FAMM V0200101N002119999999N9999999N1+01961+01831999999ADDAA106003091AA224003291KA1120M+02761KA2120N+01941MA1101491087001MD1710261+9999ME1314839MW1001REMSYN104AAXX  02004 68242 16/// /0104 10196 20183 38700 48483 57026 60031 333 10276 20194 91005 555 20032 91014;MET053FAMM 020000Z AUTO 01002KT //// // ////// 20/18 Q1015;EQDQ01+000000PRSWM2
0105682420999992000010201004-25780+025530FM-15+1277FAMM V0200301N002612200019N9999999N1+01901+01801999999ADDMA1101391999999MW1001REMMET053FAMM 020100Z AUTO 03005KT //// // ////// 19/18 Q1014;EQDQ01+000000PRSWM2
0105682420999992000010202004-25780+025530FM-15+1277FAMM V0200201N002612200019N9999999N1+01901+01801999999ADDMA1101391999999MW1001REMMET053FAMM 020200Z AUTO 02005KT //// // ////// 19/18 Q1014;EQDQ01+000000PRSWM2
0335682420999992000010203004-25780+025530SY-MT+1277FAMM V0209999C000010360019N0280001N1+01911+01761999999ADDAA124003291GA1021+006009999GA2021+007509029GF106991021051008001071001KA1120M+02761KA2120N+01881MA1101391087011MD1210011+9999ME1314849MW1001REMSYN104AAXX  02034 68242 42578 60000 10191 20176 38701 48484 52001 82570 333 10276 20188 91003 555 20032 91015;MET055FAMM 020300Z 01003KT 9999 FEW025TCU FEW020 19/18 Q1014;EQDQ01+000000PRSWM2
0162682420999992000010204004-25780+025530FM-15+1277FAMM V0203601N002112200019N0112651N1+02001+01801999999ADDGA1021+009009999GA2021+030009999GF104991999999999999999999MA1101491999999MW1001REMMET052FAMM 020400Z 36004KT 9999 FEW030 SCT100 20/18 Q1015;EQDQ01+000000PRSWM2
0139682420999992000010205004-25780+025530FM-15+1277FAMM V0200101N002612200019N0112651N1+02101+01801999999ADDGA1021+009009999GF102991999999999999999999MA1101491999999MW1001REMMET045FAMM 020500Z 01005KT 9999 FEW030 21/18 Q1015;EQDQ01+000000PRSWM2
0315682420999992000010206004-25780+025530SY-MT+1277FAMM V0203601N003112200019N0280001N1+02301+01701999999ADDAA124003391GA1021+009009999GF102991011041008001071001KA1240M+02761KA2120N+01881MA1101591087111MD1210101+9999ME1314959MW1001REMSYN110AAXX  02064 68242 12578 23606 10230 20170 38711 48495 52010 60034 81470 333 20188 91007 555 10276 20033 91016;MET045FAMM 020600Z 02005KT 9999 FEW030 23/18 Q1016;EQDQ01+000000PRSWM2
0139682420999992000010207004-25780+025530FM-15+1277FAMM V0200201N002112200019N0112651N1+02401+01801999999ADDGA1021+009009999GF102991999999999999999999MA1101591999999MW1001REMMET045FAMM 020700Z 02004KT 9999 FEW030 24/18 Q1016;EQDQ01+000000PRSWM2
0139682420999992000010208004-25780+025530FM-15+1277FAMM V0200201N003112200019N0112651N1+02601+01801999999ADDGA1021+009009999GF102991999999999999999999MA1101491999999MW1001REMMET045FAMM 020800Z 02006KT 9999 FEW030 26/18 Q1015;EQDQ01+000000PRSWM2
0318682420999992000010209004-25780+025530SY-MT+1277FAMM V0203601N004110360019N0280001N1+02731+01661999999ADDGA1021+009009029GA2021+030009999GF105991021021008001071001KA1120M+02731KA2120N+01881MA1101591087121MD1210011+9999ME1314989MW1001REMSYN098AAXX  02094 68242 42578 53608 10273 20166 38712 48498 52001 82270 333 10273 20188 91009 555 91016;MET055FAMM 020900Z 04005KT 9999 FEW030TCU SCT100 27/17 Q1016;EQDQ01+000000PRSWM2
0165682420999992000010210004-25780+025530FM-15+1277FAMM V0200201N002612200019N0112651N1+02701+01701999999ADDGA1021+009009999GA2021+010509029GF104991999999999999999999MA1101591999999MW1001REMMET055FAMM 021000Z 02005KT 9999 FEW030 SCT035TCU 27/17 Q1016;EQDQ01+000000PRSWM2
0196682420999992000010211004-25780+025530FM-15+1277FAMM V0200301N002612200019N0112651N1+02301+01801999999ADDGA1021+009009999GA2021+010509029GF104991999999999999999999MA1101491999999MW1611OC100871REMMET062FAMM 021100Z 03005G17KT 9999 -RA FEW030 SCT035TCU 23/18 Q1015;EQDQ01+000003PRSWM1Q02    003PRSWM1
0385682420999992000010212004-25780+025530SY-MT+1277FAMM V0200201N005110360019N0280001N1+02261+01861999999ADDAA101000191AA224002891AY121061AY221061GA1021+004509999GA2021+007509099GF108991031091008001071999KA1120M+02751KA2120N+01881MA1101491087041MD1710091+9999ME1314889MW1951REMSYN122AAXX  02124 68242 11578 80210 10226 20186 38704 48488 57009 60031 79522 8397/ 333 10275 20188 69925 91016 555 20028 91015;MET060FAMM 021200Z 02012KT 9999 -TSRA SCT025CB SCT015 21/18 Q1015;EQDQ01    003PRSWM1
0184682420999992000010213004-25780+025530FM-15+1277FAMM V0209999C000012200019N0112651N1+02201+01801999999ADDGA1021+006009999GA2021+007509099GF104991999999999999999999MA1101491999999MW1511REMMET058FAMM 021300Z 00000KT 9999 -DZ SCT020 SCT025CB 22/18 Q1015;EQDQ01+000003PRSWM1Q02    003PRSWM1
0146682420999992000010214004-25780+025530FM-15+1277FAMM V0200201N004612200019N0112651N1+02401+01701999999ADDGA1021+009009099GF104991999999999999999999MA1101391999999MW1001REMMET052FAMM 021400Z 02009KT 9999 SCT030CB 24/17 Q1014 REDZ;EQDQ01+000000PRSWM2
0373682420999992000010215004-25780+025530SY-MT+1277FAMM V0200201N005110360019N0280001N1+02481+01541999999ADDAA124002891AY191031AY251031GA1021+006009999GA2021+007509029GF106991021051008001071001KA1120M+02751KA2120N+02031MA1101391086951MD1710081+9999ME1314829MW1021REMSYN110AAXX  02154 68242 41578 60210 10248 20154 38695 48482 57008 70295 82570 333 10275 20203 91011 555 20028 91014;MET055FAMM 021500Z 02009KT 9999 FEW025TCU FEW020 25/16 Q1014;EQDQ01+000000PRSWM2Q02    003PRSWM1
0165682420999992000010216004-25780+025530FM-15+1277FAMM V0200201N004112200019N0112651N1+02601+01501999999ADDGA1021+007509999GA2021+009009029GF102991999999999999999999MA1101391999999MW1001REMMET055FAMM 021600Z 02008KT 9999 FEW030TCU FEW025 26/15 Q1014;EQDQ01+000000PRSWM2
0162682420999992000010217004-25780+025530FM-15+1277FAMM V0200201N004112200019N0112651N1+02401+01401999999ADDGA1021+009009999GA2021+030009999GF104991999999999999999999MA1101491999999MW1001REMMET052FAMM 021700Z 02008KT 9999 FEW030 SCT100 24/14 Q1015;EQDQ01+000000PRSWM2
0389682420999992000010218004-25780+025530SY-MT+1277FAMM V0200101N003112200019N0280001N1+02321+01581999999ADDAA112003092AA224002892AY121061AY221061GA1021+009009099GA2021+009009999GF106991021091008001071001KA1120M+02751KA2120N+02031MA1101591087161MD1210211+9999ME1315029MW1131REMSYN116AAXX  02184 68242 11578 60106 10232 20158 38716 48502 52021 60032 71322 82970 333 10275 20203 91007 555 20028 91016;MET054FAMM 021800Z 01007KT 9999 FEW030CB FEW030 24/15 Q1016;EQDQ01+000000PRSWM2Q02    003PRSWM1
0105682420999992000010219004-25780+025530FM-15+1277FAMM V0200101N003112200019N9999999N1+02201+01601999999ADDMA1101691999999MW1001REMMET053FAMM 021900Z AUTO 01006KT //// // ////// 22/16 Q1017;EQDQ01+000000PRSWM2
0105682420999992000010220004-25780+025530FM-15+1277FAMM V0200201N003112200019N9999999N1+02101+01601999999ADDMA1101691999999MW1001REMMET053FAMM 022000Z AUTO 02006KT //// // ////// 21/16 Q1017;EQDQ01+000000PRSWM2
0105682420999992000010221004-25780+025530FM-15+1277FAMM V0200101N003112200019N9999999N1+02101+01701999999ADDMA1101801999999MW1001REMMET053FAMM 022100Z AUTO 01006KT //// // ////// 21/17 Q1018;EQDQ01+000000PRSWM2
0105682420999992000010222004-25780+025530FM-15+1277FAMM V0200301N002112200019N9999999N1+01901+01601999999ADDMA1101801999999MW1001REMMET053FAMM 022200Z AUTO 03004KT //// // ////// 19/16 Q1018;EQDQ01+000000PRSWM2
0105682420999992000010223004-25780+025530FM-15+1277FAMM V0200101N002612200019N9999999N1+01901+01501999999ADDMA1101801999999MW1001REMMET053FAMM 022300Z AUTO 01005KT //// // ////// 19/15 Q1018;EQDQ01+000000PRSWM2
0286682420999992000010300004-25780+025530SY-MT+1277FAMM V0200101N003119999999N9999999N1+01891+01541999999ADDAA106003092AA224002892KA1120M+02751KA2120N+01851MA1101801087281MD1210021+9999ME1315139MW1001REMSYN104AAXX  03004 68242 16/// /0106 10189 20154 38728 48513 52002 60031 333 10275 20185 91007 555 20028 91018;MET053FAMM 030000Z AUTO 01004KT //// // ////// 19/15 Q1018;EQDQ01+000000PRSWM2
0105682420999992000010301004-25780+025530FM-15+1277FAMM V0200101N003112200019N9999999N1+01901+01601999999ADDMA1101691999999MW1001REMMET053FAMM 030100Z AUTO 01006KT //// // ////// 19/16 Q1017;EQDQ01+000000PRSWM2
0105682420999992000010302004-25780+025530FM-15+1277FAMM V0203601N003112200019N9999999N1+01901+01601999999ADDMA1101691999999MW1001REMMET053FAMM 030200Z AUTO 36006KT //// // ////// 19/16 Q1017;EQDQ01+000000PRSWM2
0332682420999992000010303004-25780+025530SY-MT+1277FAMM V0200201N002112200019N0280001N1+01771+01591999999ADDAA124002891GA1021+009009999GA2021+030009999GF104991011041008001071001KA1120M+02751KA2120N+01771MA1101691087281MD1410001+9999ME1315129MW1001REMSYN104AAXX  03034 68242 42578 40204 10177 20159 38728 48512 54000 81470 333 10275 20177 91004 555 20028 91018;MET052FAMM 030300Z 02003KT 9999 FEW030 SCT100 18/16 Q1017;EQDQ01+000000PRSWM2
0139682420999992000010304004-25780+025530FM-15+1277FAMM V0200301N001012200019N0112651N1+01801+01601999999ADDGA1021+009009999GF102991999999999999999999MA1101801999999MW1001REMMET045FAMM 030400Z 03002KT 9999 FEW030 18/16 Q1018;EQDQ01+000000PRSWM2
0162682420999992000010305004-25780+025530FM-15+1277FAMM V0200101N001512200019N0112651N1+02101+01701999999ADDGA1021+009009999GA2021+030009999GF104991999999999999999999MA1101901999999MW1001REMMET052FAMM 030500Z 01003KT 9999 FEW030 SCT100 21/17 Q1019;EQDQ01+000000PRSWM2
0315682420999992000010306004-25780+025530SY-MT+1277FAMM V0200101N007712200019N0280001N1+02191+01731999999ADDAA124003091GA1021+009009999GF105991021051008001071021KA1240M+02751KA2120N+01771MA1102001087461MD1210181+9999ME1315319MW1001REMSYN110AAXX  03064 68242 12578 50115 10219 20173 38746 48531 52018 60034 82572 333 20177 91019 555 10275 20030 91020;MET045FAMM 030600Z 01012KT 9999 FEW030 22/17 Q1020;EQDQ01+000000PRSWM2
0139682420999992000010307004-25780+025530FM-15+1277FAMM V0200101N007710090019N0112651N1+02301+01801999999ADDGA1071+009009999GF107991999999999999999999MA1102001999999MW1001REMMET045FAMM 030700Z 01015KT 9999 BKN030 23/18 Q1020;EQDQ01+000000PRSWM2
0165682420999992000010308004-25780+025530FM-15+1277FAMM V0200101N006712200019N0112651N1+02501+01801999999ADDGA1021+009009999GA2021+010509029GF102991999999999999999999MA1102001999999MW1001REMMET055FAMM 030800Z 01013KT 9999 FEW030 FEW035TCU 25/18 Q1020;EQDQ01+000000PRSWM2
0356682420999992000010309004-25780+025530SY-MT+1277FAMM V0200101N006710900019N0260001N1+02521+01721999999ADDAY121031AY221031GA1021+009009999GA2021+010509029GF106991021051008001001021KA1120M+02611KA2120N+01771MA1102001087481MD1210021+9999ME1315359MW1051REMSYN104AAXX  03094 68242 41576 60113 10252 20172 38748 48535 52002 70522 82502 333 10261 20177 91019 555 91020;MET055FAMM 030900Z 01014KT 9999 FEW030 FEW035TCU 26/18 Q1020;EQDQ01+000000PRSWM2Q02    003PRSWM1
0165682420999992000010310004-25780+025530FM-15+1277FAMM V0200101N004612200019N0112651N1+02601+01701999999ADDGA1021+009009999GA2021+010509029GF102991999999999999999999MA1102001999999MW1001REMMET055FAMM 031000Z 01009KT 9999 FEW030 FEW035TCU 26/17 Q1020;EQDQ01+000000PRSWM2
0165682420999992000010311004-25780+025530FM-15+1277FAMM V0200101N005112200019N0112651N1+02801+01701999999ADDGA1021+009009999GA2021+010509029GF102991999999999999999999MA1101901999999MW1001REMMET055FAMM 031100Z 01010KT 9999 FEW030 FEW035TCU 28/17 Q1019;EQDQ01+000000PRSWM2
0383682420999992000010312004-25780+025530SY-MT+1277FAMM V0203601N006210900019N0260001N1+02801+01661999999ADDAA106000091AY121061AY221061GA1021+009009999GA2021+010509029GF106991021051008001001021KA1120M+02821KA2120N+01771MA1101801087311MD1710171+9999ME1315199MW1051REMSYN104AAXX  03124 68242 31576 63612 10280 20166 38731 48519 57017 70522 82502 333 10282 20177 91016 555 91018;MET055FAMM 031200Z 36008KT 9999 FEW030 FEW035TCU 28/17 Q1018;EQDQ01+000000PRSWM2Q02  00002PRCP06Q03    003PRSWM1
0165682420999992000010313004-25780+025530FM-15+1277FAMM V0200101N003612200019N0112651N1+02901+01701999999ADDGA1021+009009999GA2021+010509029GF102991999999999999999999MA1101691999999MW1001REMMET055FAMM 031300Z 01007KT 9999 FEW030 FEW035TCU 29/17 Q1017;EQDQ01+000000PRSWM2
0141682420999992000010314004-25780+025530FM-15+1277FAMM V0200101N004112200019N0112651N1+02801+01601999999ADDGA1021+010509099GF104991999999999999999999MA1101691999999MW1001REMMET047FAMM 031400Z 01008KT 9999 SCT035CB 28/16 Q1017;EQDQ01+000000PRSWM2
0332682420999992000010315004-25780+025530SY-MT+1277FAMM V0200101N005110900019N0260001N1+02721+01651999999ADDAY121031AY221031GA1021+010509099GF106991021091008001001031KA1120M+02891KA2120N+02701MA1101591087171MD1710141+9999ME1315059MW1051REMSYN104AAXX  03154 68242 41576 60110 10272 20165 38717 48505 57014 70522 82903 333 10289 20270 91015 555 91016;MET047FAMM 031500Z 01011KT 9999 SCT035CB 27/15 Q1016;EQDQ01+000000PRSWM2Q02    003PRSWM1
0141682420999992000010316004-25780+025530FM-15+1277FAMM V0200101N006712200019N0112651N1+02701+01601999999ADDGA1021+010509099GF104991999999999999999999MA1101691999999MW1001REMMET047FAMM 031600Z 01013KT 9999 SCT035CB 27/16 Q1017;EQDQ01+000000PRSWM2
0164682420999992000010317004-25780+025530FM-15+1277FAMM V0200101N007712200019N0112651N1+02401+01801999999ADDGA1021+009009099GA2021+009009999GF102991999999999999999999MA1101691999999MW1001REMMET054FAMM 031700Z 01015KT 9999 FEW030CB FEW030 24/18 Q1017;EQDQ01+000000PRSWM2
0382682420999992000010318004-25780+025530SY-MT+1277FAMM V0200101N006212200019N0260001N1+02241+01761999999ADDAA106000091AY121061AY221061GA1021+009009099GA2021+009009999GF105991011091008001061031KA1120M+02891KA2120N+02201MA1101801087381MD1210211+9999ME1315249MW1131REMSYN104AAXX  03184 68242 31576 50112 10224 20176 38738 48524 52021 71322 81963 333 10289 20220 91018 555 91019;MET054FAMM 031800Z 01013KT 9999 FEW030CB FEW030 23/18 Q1018;EQDQ01+000000PRSWM2Q02  00002PRCP06Q03    003PRSWM1
0105682420999992000010319004-25780+025530FM-15+1277FAMM V0200101N006212200019N9999999N1+02201+01701999999ADDMA1102001999999MW1001REMMET053FAMM 031900Z AUTO 01012KT //// // ////// 22/17 Q1020;EQDQ01+000000PRSWM2
0105682420999992000010320004-25780+025530FM-15+1277FAMM V0200101N005112200019N9999999N1+02101+01701999999ADDMA1102001999999MW1001REMMET053FAMM 032000Z AUTO 01010KT //// // ////// 21/17 Q1020;EQDQ01+000000PRSWM2
0105682420999992000010321004-25780+025530FM-15+1277FAMM V0200101N005112200019N9999999N1+02001+01701999999ADDMA1102001999999MW1001REMMET053FAMM 032100Z AUTO 01010KT //// // ////// 20/17 Q1020;EQDQ01+000000PRSWM2
0105682420999992000010322004-25780+025530FM-15+1277FAMM V0200101N003112200019N9999999N1+02001+01701999999ADDMA1102001999999MW1001REMMET053FAMM 032200Z AUTO 01006KT //// // ////// 20/17 Q1020;EQDQ01+000000PRSWM2
0105682420999992000010323004-25780+025530FM-15+1277FAMM V0200101N003612200019N9999999N1+02001+01701999999ADDMA1102001999999MW1001REMMET053FAMM 032300Z AUTO 01007KT //// // ////// 20/17 Q1020;EQDQ01+000000PRSWM2
0279682420999992000010400004-25780+025530SY-MT+1277FAMM V0200101N006219999999N9999999N1+02031+01711999999ADDAA106000091KA1120M+02891KA2120N+01941MA1101901087431MD1210171+9999ME1315299MW1001REMSYN092AAXX  04004 68242 36/// /0112 10203 20171 38743 48529 52017 333 10289 20194 91017 555 91019;MET053FAMM 040000Z AUTO 01012KT //// // ////// 21/17 Q1019;EQDQ01+000000PRSWM2Q02  00002PRCP06
0105682420999992000010401004-25780+025530FM-15+1277FAMM V0200101N005712200019N9999999N1+02001+01701999999ADDMA1101901999999MW1001REMMET053FAMM 040100Z AUTO 01011KT //// // ////// 20/17 Q1019;EQDQ01+000000PRSWM2
0105682420999992000010402004-25780+025530FM-15+1277FAMM V0200101N005112200019N9999999N1+02001+01701999999ADDMA1101901999999MW1001REMMET053FAMM 040200Z AUTO 01010KT //// // ////// 20/17 Q1019;EQDQ01+000000PRSWM2
0315682420999992000010403004-25780+025530SY-MT+1277FAMM V0200101N00311004501CN0280001N1+02001+01721999999ADDGA1071+004509999GA2021+030009999GF108991051051004501071999KA1120M+02891KA2120N+01941MA1101901087441MD1410001+9999ME1315299MW1001REMSYN098AAXX  04034 68242 42478 80106 10200 20172 38744 48529 54000 8557/ 333 10289 20194 91013 555 91019;MET052FAMM 040300Z 01011KT 9999 BKN015 SCT100 20/17 Q1019;EQDQ01+000000PRSWM2
0139682420999992000010405004-25780+025530FM-15+1277FAMM V0200101N006210045019N0112651N1+02001+01701999999ADDGA1071+004509999GF107991999999999999999999MA1102001999999MW1001REMMET045FAMM 040500Z 01012KT 9999 BKN015 20/17 Q1020;EQDQ01+000000PRSWM2
0319682420999992000010406004-25780+025530SY-MT+1277FAMM V0200101N006710045019N0280001N1+02131+01691999999ADDAA106000091GA1071+004509999GF108991071051004501071999KA1240M+02891KA2120N+01941MA1102101087551MD1210121+9999ME1315419MW1001REMSYN098AAXX  04064 68242 32478 80113 10213 20169 38755 48541 52012 8757/ 333 20194 91017 555 10289 91021;MET045FAMM 040600Z 01011KT 9999 BKN015 22/17 Q1021;EQDQ01+000000PRSWM2Q02  00002PRCP06
0139682420999992000010407004-25780+025530FM-15+1277FAMM V0200101N005710060019N0112651N1+02201+01701999999ADDGA1071+006009999GF107991999999999999999999MA1102101999999MW1001REMMET045FAMM 040700Z 01011KT 9999 BKN020 22/17 Q1021;EQDQ01+000000PRSWM2
0152682420999992000010408004-25780+025530FM-15+1277FAMM V0200101N00511220001CN0112651N1+02301+01701999999ADDGA1071+006009999GA2021+030009999MA1102101999999MW1001REMMET052FAMM 040800Z 01010KT 9999 BKN020 SCT100 23/17 Q1021;EQDQ01+000042SCOTCVQ02+000000PRSWM2
0152682420999992000010409004-25780+025530FM-15+1277FAMM V0200101N00461220001CN0112651N1+02401+01701999999ADDGA1071+006009999GA2021+030009999MA1102001999999MW1001REMMET052FAMM 040900Z 01009KT 9999 BKN020 SCT100 24/17 Q1020;EQDQ01+000042SCOTCVQ02+000000PRSWM2
0200682420999992000010415004-25780+025530FM-12+1277FAMM V0203601N007710360019N0300001N1+02381+01681999999ADDGF106991031091008001071001KA1120M+02701KA2120N+02341MA1999999087201MD1710161+9999ME1315069REMSYN098AAXX  04154 68242 42580 63615 10238 20168 38720 48506 57016 83970 333 10270 20234 91019 555 91017;
0164682420999992000010416004-25780+025530FM-15+1277FAMM V0200101N006212200019N0112651N1+02401+01701999999ADDGA1021+007509099GA2021+030009999GF104991999999999999999999MA1101591999999MW1001REMMET054FAMM 041600Z 01012KT 9999 SCT025CB SCT100 24/17 Q1016;EQDQ01+000000PRSWM2
0164682420999992000010417004-25780+025530FM-15+1277FAMM V0209999C000010300019N0112651N1+02401+01601999999ADDGA1021+007509099GA2071+030009999GF107991999999999999999999MA1101691999999MW1001REMMET054FAMM 041700Z 00000KT 9999 SCT025CB BKN100 24/16 Q1017;EQDQ01+000000PRSWM2
0377682420999992000010418004-25780+025530SY-MT+1277FAMM V0200101N005110300019N0300001N1+02301+01661999999ADDAA106000091AY121061AY221061GA1021+007509099GA2071+030009999GF107991031091008001071999KA1120M+02701KA2120N+02281MA1101691087271MD1210071+9999ME1315129MW1131MW2171REMSYN104AAXX  04184 68242 31580 70110 10230 20166 38727 48512 52007 71322 8397/ 333 10270 20228 91012 555 91017;MET059FAMM 041800Z 01010KT 9999 VCTS SCT025CB BKN100 23/17 Q1017;EQDQ01  00002PRCP06Q02    003PRSWM1
0105682420999992000010419004-25780+025530FM-15+1277FAMM V0209999C000012200019N9999999N1+02201+01701999999ADDMA1101801999999MW1001REMMET053FAMM 041900Z AUTO 00000KT //// // ////// 22/17 Q1018;EQDQ01+000000PRSWM2
0105682420999992000010420004-25780+025530FM-15+1277FAMM V0200101N004112200019N9999999N1+02201+01701999999ADDMA1101801999999MW1001REMMET053FAMM 042000Z AUTO 01008KT //// // ////// 22/17 Q1018;EQDQ01+000000PRSWM2
0105682420999992000010421004-25780+025530FM-15+1277FAMM V0209999C000012200019N9999999N1+02201+01701999999ADDMA1101901999999MW1001REMMET053FAMM 042100Z AUTO 00000KT //// // ////// 22/17 Q1019;EQDQ01+000000PRSWM2
0105682420999992000010422004-25780+025530FM-15+1277FAMM V0209999C000012200019N9999999N1+02201+01701999999ADDMA1101901999999MW1001REMMET053FAMM 042200Z AUTO 00000KT //// // ////// 22/17 Q1019;EQDQ01+000000PRSWM2
0122682420999992000010423004-25780+025530FM-15+1277FAMM V0209999C000012200019N9999999N1+99999+99999999999ADDMW1001REMMET053FAMM 042300Z AUTO 00000KT //// // ////// 00/// Q0935;EQDQ01+000003ATOT  Q02+093503APOA  Q03+000000PRSWM2
0366682420999992000010500004-25780+025530SY-MT+1277FAMM V0203601N003112200019N0280001N1+01971+01801999999ADDAA106000091AA224001491AY191061AY201061GF104991041021008001001001KA1120M+02601KA2120N+01951MA1101801087171MD1710051+9999ME1314999MW1011REMSYN110AAXX  06034 68242 41578 43606 10197 20180 38717 48499 57005 70190 84200 333 10260 20195 91007 555 20014 91016;MET053FAMM 050000Z AUTO 00000KT //// // ////// 20/18 Q1018;EQDQ01+000000PRSWM2Q02  00002PRCP06Q03    003PRSWM1
0122682420999992000010501004-25780+025530FM-15+1277FAMM V0209999C000012200019N9999999N1+99999+99999999999ADDMW1001REMMET053FAMM 050100Z AUTO 00000KT //// // ////// 00/// Q0935;EQDQ01+000003ATOT  Q02+093503APOA  Q03+000000PRSWM2
0105682420999992000010502004-25780+025530FM-15+1277FAMM V0209999C000012200019N9999999N1+02101+01701999999ADDMA1101801999999MW1001REMMET053FAMM 050200Z AUTO 00000KT //// // ////// 21/17 Q1018;EQDQ01+000000PRSWM2
0284682420999992000010503004-25780+025530SY-MT+1277FAMM V0203601N006210075019N0300001N1+02061+01741999999ADDGF107991051051008001071999KA1120M+02701KA2120N+02011MA1101801087321MD1210031+9999ME1315169MW1001REMSYN098AAXX  05034 68242 42580 73612 10206 20174 38732 48516 52003 8557/ 333 10270 20201 91014 555 91018;MET053FAMM 050300Z AUTO 36012KT //// // ////// 21/17 Q1018;EQDQ01+000000PRSWM2
0139682420999992000010504004-25780+025530FM-15+1277FAMM V0209999C000010045019N0112651N1+02101+01701999999ADDGA1071+004509999GF107991999999999999999999MA1101801999999MW1001REMMET045FAMM 050400Z 00000KT 9999 BKN015 21/17 Q1018;EQDQ01+000000PRSWM2
0139682420999992000010505004-25780+025530FM-15+1277FAMM V0209999C000010045019N0112651N1+02101+01701999999ADDGA1071+004509999GF107991999999999999999999MA1101901999999MW1001REMMET045FAMM 050500Z 00000KT 9999 BKN015 21/17 Q1019;EQDQ01+000000PRSWM2
0319682420999992000010506004-25780+025530SY-MT+1277FAMM V0203601N006210045019N0300001N1+02111+01691999999ADDAA106000091GA1071+004509999GF107991071051004501999999KA1240M+02701KA2120N+01951MA1101901087441MD1210121+9999ME1315289MW1001REMSYN098AAXX  05064 68242 32480 73612 10211 20169 38744 48528 52012 875// 333 20195 91016 555 10270 91019;MET045FAMM 050600Z 00000KT 9999 BKN015 21/17 Q1019;EQDQ01+000000PRSWM2Q02  00002PRCP06
0139682420999992000010507004-25780+025530FM-15+1277FAMM V0209999C000010045019N0112651N1+02201+01701999999ADDGA1081+004509999GF108991999999999999999999MA1102001999999MW1001REMMET045FAMM 050700Z 00000KT 9999 OVC015 22/17 Q1020;EQDQ01+000000PRSWM2
0139682420999992000010508004-25780+025530FM-15+1277FAMM V0203601N005110045019N0112651N1+02201+01701999999ADDGA1081+004509999GF108991999999999999999999MA1102001999999MW1001REMMET045FAMM 050800Z 36010KT 9999 OVC015 22/17 Q1020;EQDQ01+000000PRSWM2
0292682420999992000010509004-25780+025530SY-MT+1277FAMM V0203601N00671004501CN0300001N1+02281+01711999999ADDGA1081+004509999GF108991081051004501999999KA1120M+02341KA2120N+01951MA1102001087441MD1410001+9999ME1315299MW1001REMSYN098AAXX  05094 68242 42480 83613 10228 20171 38744 48529 54000 885// 333 10234 20195 91015 555 91019;MET045FAMM 050900Z 00000KT 9999 OVC015 23/17 Q1020;EQDQ01+000000PRSWM2
0139682420999992000010510004-25780+025530FM-15+1277FAMM V0200101N005710045019N0112651N1+02401+01701999999ADDGA1081+004509999GF108991999999999999999999MA1101901999999MW1001REMMET045FAMM 051000Z 01011KT 9999 OVC015 24/17 Q1019;EQDQ01+000000PRSWM2
0139682420999992000010511004-25780+025530FM-15+1277FAMM V0209999C000010045019N0112651N1+02401+01701999999ADDGA1081+004509999GF108991999999999999999999MA1101901999999MW1001REMMET045FAMM 051100Z 00000KT 9999 OVC015 24/17 Q1019;EQDQ01+000000PRSWM2
0165682420999992000010512004-25780+025530FM-15+1277FAMM V0200301N005112200019N0112651N1+02501+01701999999ADDGA1021+004509999GA2021+007509029GF104991999999999999999999MA1101801999999MW1001REMMET055FAMM 051200Z 03010KT 9999 SCT015 SCT025TCU 25/17 Q1018;EQDQ01+000000PRSWM2
0165682420999992000010513004-25780+025530FM-15+1277FAMM V0209999C000012200019N0112651N1+02501+01601999999ADDGA1021+004509999GA2021+007509029GF104991999999999999999999MA1101691999999MW1001REMMET055FAMM 051300Z 00000KT 9999 SCT015 SCT025TCU 25/16 Q1017;EQDQ01+000000PRSWM2
0165682420999992000010514004-25780+025530FM-15+1277FAMM V0209999C000012200019N0112651N1+02501+01701999999ADDGA1021+004509999GA2021+007509029GF104991999999999999999999MA1101691999999MW1001REMMET055FAMM 051400Z 00000KT 9999 SCT015 SCT025TCU 25/17 Q1017;EQDQ01+000000PRSWM2
0310682420999992000010515004-25780+025530SY-MT+1277FAMM V0200101N004110075019N0300001N1+02501+01721999999ADDGA1071+007509099GF199999031091008001001001KA1120M+02601KA2120N+02421MA1101591087161MD1710121+9999ME1315019MW1001REMSYN098AAXX  05154 68242 42580 60108 10250 20172 38716 48501 57012 83900 333 10260 20242 91008 555 91016;MET047FAMM 051500Z 00000KT 9999 BKN025CB 25/17 Q1016;EQDQ01+000062SCOTCVQ02+000000PRSWM2
0169682420999992000010516004-25780+025530FM-15+1277FAMM V0200301N002610075019N0112651N1+02301+01901999999ADDGA1071+007509099GF107991999999999999999999MA1101691999999MW1801MW2951REMMET053FAMM 051600Z 03005KT 9999 -TSRA BKN025CB 23/19 Q1017;EQDQ01+000003PRSWM1Q02    003PRSWM1
0141682420999992000010517004-25780+025530FM-15+1277FAMM V0209999C000010075019N0112651N1+02101+01901999999ADDGA1071+007509099GF107991999999999999999999MA1101691999999MW1001REMMET047FAMM 051700Z 00000KT 9999 BKN025CB 21/19 Q1017;EQDQ01+000000PRSWM2
0259682420999992000010518004-25780+025530FM-12+1277FAMM V0209999C000019999999N0260001N1+02121+01931999999ADDAA101000191AA224001291GF107991999091008001001001KA1120M+02601KA2120N+02101MA1999999087251MD1210081+9999ME1315079REMSYN116AAXX  05184 68242 12576 70000 10212 20193 38725 48507 52008 60012 84900 333 10260 20210 69925 91003 555 20012 91017;EQDQ01+000042SCOTLC
0110682420999992000010519004-25780+025530FM-15+1277FAMM V0209999C000012200019N9999999N1+02101+02001999999ADDMA1101801999999MW1001REMMET058FAMM 051900Z AUTO 00000KT //// // ////// 21/20 Q1018 RERA;EQDQ01+000000PRSWM2
0105682420999992000010521004-25780+025530FM-15+1277FAMM V0209999C000012200019N9999999N1+02101+01901999999ADDMA1101801999999MW1001REMMET053FAMM 052100Z AUTO 00000KT //// // ////// 21/19 Q1018;EQDQ01+000000PRSWM2
0110682420999992000010522004-25780+025530FM-15+1277FAMM V0200101N002612200019N9999999N1+02101+01901999999ADDMA1101801999999MW1001REMMET058FAMM 052200Z AUTO 01005KT //// // ////// 21/19 Q1018 RERA;EQDQ01+000000PRSWM2
0105682420999992000010601004-25780+025530FM-15+1277FAMM V0209999C000012200019N9999999N1+02001+01801999999ADDMA1101591999999MW1001REMMET053FAMM 060100Z AUTO 00000KT //// // ////// 20/18 Q1016;EQDQ01+000000PRSWM2
0105682420999992000010602004-25780+025530FM-15+1277FAMM V0203601N003612200019N9999999N1+02001+01801999999ADDMA1101591999999MW1001REMMET053FAMM 060200Z AUTO 36007KT //// // ////// 20/18 Q1016;EQDQ01+000000PRSWM2
0142682420999992000010603004-25780+025530FM-15+1277FAMM V0203601N002612200019N0112651N1+02001+01801999999ADDGA1021+007509029GF104991999999999999999999MA1101591999999MW1001REMMET048FAMM 060300Z 36005KT 9999 SCT025TCU 20/18 Q1016;EQDQ01+000000PRSWM2
0142682420999992000010604004-25780+025530FM-15+1277FAMM V0200101N002112200019N0112651N1+01901+01801999999ADDGA1021+007509029GF104991999999999999999999MA1101691999999MW1001REMMET048FAMM 060400Z 01004KT 9999 SCT025TCU 19/18 Q1017;EQDQ01+000000PRSWM2
0141682420999992000010605004-25780+025530FM-15+1277FAMM V0203601N004112200019N0112651N1+02101+01901999999ADDGA1021+007509099GF104991999999999999999999MA1101691999999MW1001REMMET047FAMM 060500Z 36008KT 9999 SCT025CB 21/19 Q1017;EQDQ01+000000PRSWM2
0318682420999992000010606004-25780+025530SY-MT+1277FAMM V0200401N005110360019N0280001N1+02351+01901999999ADDAA124001591GA1021+007509029GF106991021021008001061021KA1240M+02601KA2120N+01901MA1101691087241MD1210071+9999ME1315069MW1001REMSYN110AAXX  06064 68242 12578 60410 10235 20190 38724 48506 52007 60024 82262 333 20190 91014 555 10260 20015 91017;MET048FAMM 060600Z 01009KT 9999 FEW025TCU 23/19 Q1017;EQDQ01+000000PRSWM2
0142682420999992000010607004-25780+025530FM-15+1277FAMM V0200201N005712200019N0112651N1+02501+01901999999ADDGA1021+007509029GF102991999999999999999999MA1101691999999MW1001REMMET048FAMM 060700Z 02011KT 9999 FEW025TCU 25/19 Q1017;EQDQ01+000000PRSWM2
0142682420999992000010608004-25780+025530FM-15+1277FAMM V0200401N005112200019N0112651N1+02601+01901999999ADDGA1021+007509029GF102991999999999999999999MA1101691999999MW1001REMMET048FAMM 060800Z 04010KT 9999 FEW025TCU 26/19 Q1017;EQDQ01+000000PRSWM2
0200682420999992000010609004-25780+025530FM-12+1277FAMM V0200401N007710900019N0280001N1+02641+01861999999ADDGF106991021051008001001021KA1120M+02671KA2120N+01901MA1999999087211MD1710031+9999ME1315059REMSYN098AAXX  06094 68242 42578 60415 10264 20186 38721 48505 57003 82502 333 10267 20190 91017 555 91017;
0165682420999992000010610004-25780+025530FM-15+1277FAMM V0200401N004612200019N0112651N1+02701+01801999999ADDGA1021+006009999GA2021+007509029GF104991999999999999999999MA1101591999999MW1001REMMET055FAMM 061000Z 04009KT 9999 FEW025TCU SCT020 27/18 Q1016;EQDQ01+000000PRSWM2
0165682420999992000010611004-25780+025530FM-15+1277FAMM V0200401N004112200019N0112651N1+02801+01801999999ADDGA1021+006009999GA2021+007509029GF102991999999999999999999MA1101491999999MW1001REMMET055FAMM 061100Z 04008KT 9999 SCT025TCU FEW020 28/18 Q1015;EQDQ01+000000PRSWM2
0365682420999992000010612004-25780+025530SY-MT+1277FAMM V0200401N005110360019N0280001N1+02541+02051999999ADDAA101000191AA224000291AY121061AY221061GA1021+009009099GF107991021091008001071031KA1120M+02901KA2120N+01901MA1101391087001MD1710211+9999ME1314839MW1171REMSYN122AAXX  06124 68242 11578 70410 10254 20205 38700 48483 57021 69921 71722 82973 333 10290 20190 69925 91018 555 20002 91014;MET056FAMM 061200Z 04007KT 9999 -TS SCT030CB 25/21 Q1014 RERA;EQDQ01    003PRSWM1
0166682420999992000010613004-25780+025530FM-15+1277FAMM V0200401N003112200019N0112651N1+02801+01801999999ADDGA1021+009009099GF104991999999999999999999MA1101391999999MW1171REMMET056FAMM 061300Z 04006KT 9999 -TS SCT030CB 28/18 Q1014 RERA;EQDQ01+000003PRSWM1Q02    003PRSWM1
0192682420999992000010614004-25780+025530FM-15+1277FAMM V0200401N002612200019N0112651N1+02301+01901999999ADDGA1021+004509999GA2021+007509099GF104991999999999999999999MA1101491999999MW1801MW2951REMMET060FAMM 061400Z 04005KT 9999 -TSRA FEW025CB SCT015 23/19 Q1015;EQDQ01+000003PRSWM1Q02    003PRSWM1
0386682420999992000010615004-25780+025530SY-MT+1277FAMM V0200201N003110360019N0060001N1+01991+01841999999ADDAA101007991AA224008491AY121031AY221031GA1021+003009999GA2021+006009099GF108991041091008001021999KA1120M+02901KA2120N+01991MA1101491087141MD1210141+9999ME1314989MW1951REMSYN116AAXX  06154 68242 41556 80206 10199 20184 38714 48498 52014 79522 8492/ 333 10290 20199 60085 91009 555 20084 91016;MET067FAMM 061500Z 04007KT 6000 TSRA SCT020CB FEW010 21/19 Q1015 RETS RA;EQDQ01    003PRSWM1
0191682420999992000010616004-25780+025530FM-15+1277FAMM V0200301N005712200019N0080001N1+01901+01801999999ADDGA1021+003009999GA2021+006009099GF104991999999999999999999MA1101591999999MW1811MW2951REMMET059FAMM 061600Z 03011KT 8000 TSRA FEW020CB SCT010 19/18 Q1016;EQDQ01+000003PRSWM1Q02    003PRSWM1
0192682420999992000010617004-25780+025530FM-15+1277FAMM V0200301N004112200019N0112651N1+01901+01801999999ADDGA1021+003009999GA2021+006009099GF102991999999999999999999MA1101591999999MW1801MW2951REMMET060FAMM 061700Z 03008KT 9999 -TSRA FEW020CB FEW010 19/18 Q1016;EQDQ01+000003PRSWM1Q02    003PRSWM1
0192682420999992000010618004-25780+025530FM-15+1277FAMM V0200101N003612200019N0112651N1+01901+01801999999ADDGA1021+004509999GA2021+009009099GF104991999999999999999999MA1101491999999MW1171REMMET066FAMM 061800Z 01007KT 9999 VCTS FEW030CB SCT015 19/18 Q1015 RETSRA;EQDQ01+000003PRSWM1Q02    003PRSWM1
0105682420999992000010620004-25780+025530FM-15+1277FAMM V0209999C000012200019N9999999N1+02001+01801999999ADDMA1101491999999MW1001REMMET053FAMM 062000Z AUTO 00000KT //// // ////// 20/18 Q1015;EQDQ01+000000PRSWM2
0105682420999992000010622004-25780+025530FM-15+1277FAMM V0209999C000012200019N9999999N1+02001+01801999999ADDMA1101491999999MW1001REMMET053FAMM 062200Z AUTO 00000KT //// // ////// 20/18 Q1015;EQDQ01+000000PRSWM2
0122682420999992000010623004-25780+025530FM-15+1277FAMM V0209999C000012200019N9999999N1+99999+99999999999ADDMW1001REMMET053FAMM 062300Z AUTO 00000KT //// // ////// 00/// Q0935;EQDQ01+000003ATOT  Q02+093503APOA  Q03+000000PRSWM2
0286682420999992000010700004-25780+025530SY-MT+1277FAMM V0200501N003119999999N9999999N1+01861+01731999999ADDAA106015091AA224015091KA1120M+02901KA2120N+01851MA1101391086971MD1710291+9999ME1314799MW1001REMSYN104AAXX  07004 68242 16/// /0506 10186 20173 38697 48479 57029 60151 333 10290 20185 91007 555 20150 91014;MET053FAMM 070000Z AUTO 00000KT //// // ////// 19/17 Q1014;EQDQ01+000000PRSWM2
0105682420999992000010702004-25780+025530FM-15+1277FAMM V0209999C000012200019N9999999N1+01901+01701999999ADDMA1101391999999MW1001REMMET053FAMM 070200Z AUTO 00000KT //// // ////// 19/17 Q1014;EQDQ01+000000PRSWM2
0269682420999992000010703004-25780+025530SY-MT+1277FAMM V0200201N002119999999N9999999N1+01841+01741999999ADDAA124015091KA1120M+02901KA2120N+01831MA1101391086961MD1710021+9999ME1314789MW1001REMSYN098AAXX  07034 68242 46/// /0204 10184 20174 38696 48478 57002 333 10290 20183 91004 555 20150 91014;MET053FAMM 070300Z AUTO 02002KT //// // ////// 18/18 Q1014;EQDQ01+000000PRSWM2
0162682420999992000010704004-25780+025530FM-15+1277FAMM V0200101N002112200019N0112651N1+01801+01701999999ADDGA1021+010509999GA2021+030009999GF104991999999999999999999MA1101391999999MW1001REMMET052FAMM 070400Z 01004KT 9999 FEW035 SCT100 18/17 Q1014;EQDQ01+000000PRSWM2
0162682420999992000010705004-25780+025530FM-15+1277FAMM V0200101N000512200019N0112651N1+02001+01801999999ADDGA1021+009009999GA2021+030009999GF104991999999999999999999MA1101491999999MW1001REMMET052FAMM 070500Z 01001KT 9999 FEW030 SCT100 20/18 Q1015;EQDQ01+000000PRSWM2
0315682420999992000010706004-25780+025530SY-MT+1277FAMM V0200501N002112200019N0280001N1+02201+01821999999ADDAA124014691GA1021+010509999GF104991011041012501071051KA1240M+02901KA2120N+01831MA1101491087081MD1210131+9999ME1314919MW1001REMSYN110AAXX  07064 68242 12678 40504 10220 20182 38708 48491 52013 60154 81475 333 20183 91005 555 10290 20146 91015;MET045FAMM 070600Z 04004KT 9999 FEW035 22/18 Q1015;EQDQ01+000000PRSWM2
0142682420999992000010707004-25780+025530FM-15+1277FAMM V0200401N002612200019N0112651N1+02401+01801999999ADDGA1021+010509029GF102991999999999999999999MA1101491999999MW1001REMMET048FAMM 070700Z 04005KT 9999 FEW035TCU 24/18 Q1015;EQDQ01+000000PRSWM2
0142682420999992000010708004-25780+025530FM-15+1277FAMM V0200401N002112200019N0112651N1+02501+01801999999ADDGA1021+009009029GF102991999999999999999999MA1101491999999MW1001REMMET048FAMM 070800Z 04004KT 9999 FEW030TCU 25/18 Q1015;EQDQ01+000000PRSWM2
0318682420999992000010709004-25780+025530SY-MT+1277FAMM V0200401N003110360019N0300001N1+02441+01721999999ADDGA1021+007509999GA2021+009009029GF106991041051008001061001KA1120M+02521KA2120N+01831MA1101591087081MD1410001+9999ME1314929MW1001REMSYN098AAXX  07094 68242 42580 60406 10244 20172 38708 48492 54000 84560 333 10252 20183 91009 555 91015;MET055FAMM 070900Z 04006KT 9999 FEW025 SCT030TCU 25/16 Q1016;EQDQ01+000000PRSWM2
0141682420999992000010710004-25780+025530FM-15+1277FAMM V0200301N001512200019N0112651N1+02601+01801999999ADDGA1021+009009099GF104991999999999999999999MA1101491999999MW1001REMMET047FAMM 071000Z 03003KT 9999 SCT030CB 26/18 Q1015;EQDQ01+000000PRSWM2
0141682420999992000010711004-25780+025530FM-15+1277FAMM V0200401N004112200019N0112651N1+02501+01801999999ADDGA1021+009009099GF104991999999999999999999MA1101491999999MW1001REMMET047FAMM 071100Z 04008KT 9999 SCT030CB 25/18 Q1015;EQDQ01+000000PRSWM2
0321682420999992000010712004-25780+025530SY-MT+1277FAMM V0200401N003110360019N0300001N1+02621+01701999999ADDAA106000091GA1021+009009099GF106991031091008001071001KA1120M+02691KA2120N+01831MA1101391086971MD1710111+9999ME1314819MW1001REMSYN098AAXX  07124 68242 32580 60406 10262 20170 38697 48481 57011 83970 333 10269 20183 91010 555 91014;MET047FAMM 071200Z 00000KT 9999 SCT030CB 26/17 Q1014;EQDQ01+000000PRSWM2Q02  00002PRCP06
0192682420999992000010713004-25780+025530FM-15+1277FAMM V0200301N004112200019N0112651N1+02001+01901999999ADDGA1021+009009099GA2021+024009999GF104991999999999999999999MA1101391999999MW1801MW2951REMMET060FAMM 071300Z 03008KT 9999 -TSRA SCT030CB SCT080 20/19 Q1014;EQDQ01+000003PRSWM1Q02    003PRSWM1
0192682420999992000010714004-25780+025530FM-15+1277FAMM V0200301N003112200019N0112651N1+01901+01801999999ADDGA1021+009009099GA2021+024009999GF104991999999999999999999MA1101391999999MW1801MW2951REMMET060FAMM 071400Z 03006KT 9999 -TSRA SCT030CB SCT080 19/18 Q1014;EQDQ01+000003PRSWM1Q02    003PRSWM1
0383682420999992000010715004-25780+025530SY-MT+1277FAMM V0209999C000010360019N0300001N1+01981+01811999999ADDAA101003091AA224006091AY121031AY291031GA1021+009009099GA2021+024009999GF107991031091008001021999KA1120M+02691KA2120N+01921MA1101391086931MD1710041+9999ME1314759MW1601MW2611REMSYN116AAXX  07154 68242 41580 70000 10198 20181 38693 48475 57004 76029 8392/ 333 10269 20192 60035 91003 555 20060 91014;MET058FAMM 071500Z 03002KT 9999 -RA SCT030CB SCT080 20/18 Q1014;EQDQ01    003PRSWM1
0164682420999992000010716004-25780+025530FM-15+1277FAMM V0200201N002110300019N0112651N1+02001+01801999999ADDGA1021+009009099GA2071+030009999GF107991999999999999999999MA1101391999999MW1001REMMET054FAMM 071600Z 02004KT 9999 FEW030CB BKN100 20/18 Q1014;EQDQ01+000000PRSWM2
0162682420999992000010717004-25780+025530FM-15+1277FAMM V0209999C000012200019N0112651N1+02101+01901999999ADDGA1021+009009999GA2021+030009999GF104991999999999999999999MA1101291999999MW1001REMMET052FAMM 071700Z 00000KT 9999 FEW030 SCT100 21/19 Q1013;EQDQ01+000000PRSWM2
0384682420999992000010718004-25780+025530SY-MT+1277FAMM V0200101N002112200019N0300001N1+02001+01851999999ADDAA112006192AA224006092AY161061AY221061GA1021+009009099GA2021+030009999GF105991011091008001071001KA1120M+02691KA2120N+01921MA1101391086931MD1410001+9999ME1314759MW1131MW2171REMSYN116AAXX  07184 68242 11580 50104 10200 20185 38693 48475 54000 60062 71362 81970 333 10269 20192 91005 555 20060 91014;MET059FAMM 071800Z 00000KT 9999 VCTS FEW030CB SCT100 20/19 Q1014;EQDQ01    003PRSWM1
0105682420999992000010719004-25780+025530FM-15+1277FAMM V0200101N001512200019N9999999N1+02001+01801999999ADDMA1101391999999MW1001REMMET053FAMM 071900Z AUTO 01003KT //// // ////// 20/18 Q1014;EQDQ01+000000PRSWM2
0105682420999992000010720004-25780+025530FM-15+1277FAMM V0209999C000012200019N9999999N1+02001+01801999999ADDMA1101391999999MW1001REMMET053FAMM 072000Z AUTO 00000KT //// // ////// 20/18 Q1014;EQDQ01+000000PRSWM2
0105682420999992000010721004-25780+025530FM-15+1277FAMM V0209999C000012200019N9999999N1+02001+01901999999ADDMA1101391999999MW1001REMMET053FAMM 072100Z AUTO 00000KT //// // ////// 20/19 Q1014;EQDQ01+000000PRSWM2
0105682420999992000010722004-25780+025530FM-15+1277FAMM V0200301N001512200019N9999999N1+02001+01801999999ADDMA1101391999999MW1001REMMET053FAMM 072200Z AUTO 03003KT //// // ////// 20/18 Q1014;EQDQ01+000000PRSWM2
0105682420999992000010723004-25780+025530FM-15+1277FAMM V0209999C000012200019N9999999N1+02001+01801999999ADDMA1101391999999MW1001REMMET053FAMM 072300Z AUTO 00000KT //// // ////// 20/18 Q1014;EQDQ01+000000PRSWM2
0286682420999992000010800004-25780+025530SY-MT+1277FAMM V0209999C000019999999N9999999N1+01901+01801999999ADDAA106006192AA224006092KA1120M+02691KA2120N+01901MA1101391086921MD1710341+9999ME1314739MW1001REMSYN104AAXX  08004 68242 16/// /0000 10190 20180 38692 48473 57034 60061 333 10269 20190 91000 555 20060 91014;MET053FAMM 080000Z AUTO 00000KT //// // ////// 19/18 Q1014;EQDQ01+000000PRSWM2
0105682420999992000010801004-25780+025530FM-15+1277FAMM V0200201N001012200019N9999999N1+01901+01801999999ADDMA1101291999999MW1001REMMET053FAMM 080100Z AUTO 02002KT //// // ////// 19/18 Q1013;EQDQ01+000000PRSWM2
0105682420999992000010802004-25780+025530FM-15+1277FAMM V0200201N001512200019N9999999N1+01801+01801999999ADDMA1101291999999MW1001REMMET053FAMM 080200Z AUTO 02003KT //// // ////// 18/18 Q1013;EQDQ01+000000PRSWM2
0347682420999992000010803004-25780+025530SY-MT+1277FAMM V0209999C000012200019N0060001N1+01821+01761999999ADDAA124006091AY101031AY201031GA1021+009009999GF103991011041008001071001KA1120M+02691KA2120N+01811MA1101291086861MD1710061+9999ME1314679MW1101REMSYN110AAXX  08034 68242 41556 30000 10182 20176 38686 48467 57006 71000 81470 333 10269 20181 91002 555 20060 91013;MET045FAMM 080300Z 02002KT 6000 FEW030 18/18 Q1013;EQDQ01+000000PRSWM2Q02    003PRSWM1
0139682420999992000010804004-25780+025530FM-15+1277FAMM V0209999C000012200019N0060001N1+01801+01801999999ADDGA1021+009009999GF102991999999999999999999MA1101291999999MW1001REMMET045FAMM 080400Z 00000KT 6000 FEW030 18/18 Q1013;EQDQ01+000000PRSWM2
0315682420999992000010806004-25780+025530SY-MT+1277FAMM V0200201N003112200019N0300001N1+02191+01831999999ADDAA124006091GA1021+009009999GF101991011041008001001001KA1240M+02691KA2120N+01811MA1101391086951MD1210091+9999ME1314769MW1001REMSYN110AAXX  08064 68242 12580 10206 10219 20183 38695 48476 52009 60064 81400 333 20181 91006 555 10269 20060 91014;MET045FAMM 080600Z 03003KT 9999 FEW030 22/18 Q1014;EQDQ01+000000PRSWM2
0139682420999992000010807004-25780+025530FM-15+1277FAMM V0200201N005112200019N0112651N1+02401+01801999999ADDGA1021+009009999GF102991999999999999999999MA1101391999999MW1001REMMET045FAMM 080700Z 02010KT 9999 FEW030 24/18 Q1014;EQDQ01+000000PRSWM2
0139682420999992000010808004-25780+025530FM-15+1277FAMM V0209999C000012200019N0112651N1+02601+01401999999ADDGA1021+009009999GF102991999999999999999999MA1101391999999MW1001REMMET045FAMM 080800Z 00000KT 9999 FEW030 26/14 Q1014;EQDQ01+000000PRSWM2
0292682420999992000010809004-25780+025530SY-MT+1277FAMM V0200201N005112200019N0300001N1+02701+01371999999ADDGA1021+009009999GF102991011011008001001011KA1120M+02741KA2120N+01811MA1101391086941MD1710011+9999ME1314799MW1001REMSYN098AAXX  08094 68242 42580 20210 10270 20137 38694 48479 57001 81101 333 10274 20181 91012 555 91014;MET045FAMM 080900Z 02009KT 9999 FEW030 27/13 Q1014;EQDQ01+000000PRSWM2
0139682420999992000010810004-25780+025530FM-15+1277FAMM V0203601N002112200019N0112651N1+02801+01301999999ADDGA1021+009009999GF102991999999999999999999MA1101391999999MW1001REMMET045FAMM 081000Z 36004KT 9999 FEW030 28/13 Q1014;EQDQ01+000000PRSWM2
0142682420999992000010811004-25780+025530FM-15+1277FAMM V0200201N002612200019N0112651N1+02901+01301999999ADDGA1021+009009029GF102991999999999999999999MA1101291999999MW1001REMMET048FAMM 081100Z 02005KT 9999 FEW030TCU 29/13 Q1013;EQDQ01+000000PRSWM2
0322682420999992000010812004-25780+025530SY-MT+1277FAMM V0200201N004112200019N0300001N1+02971+01391999999ADDAA106000091GA1021+009009029GF103991021021008001001011KA1120M+02991KA2120N+01811MA1101291086821MD1710121+9999ME1314699MW1001REMSYN098AAXX  08124 68242 32580 30208 10297 20139 38682 48469 57012 82201 333 10299 20181 91012 555 91012;MET048FAMM 081200Z 02005KT 9999 FEW030TCU 29/13 Q1013;EQDQ01+000000PRSWM2Q02  00002PRCP06
0141682420999992000010813004-25780+025530FM-15+1277FAMM V0200201N003612200019N0112651N1+03001+01301999999ADDGA1021+009009099GF102991999999999999999999MA1101081999999MW1001REMMET047FAMM 081300Z 02007KT 9999 FEW030CB 30/13 Q1011;EQDQ01+000000PRSWM2
0141682420999992000010814004-25780+025530FM-15+1277FAMM V0200201N004112200019N0112651N1+03001+01301999999ADDGA1021+009009099GF102991999999999999999999MA1101081999999MW1001REMMET047FAMM 081400Z 02008KT 9999 FEW030CB 30/13 Q1011;EQDQ01+000000PRSWM2
0294682420999992000010815004-25780+025530SY-MT+1277FAMM V0200201N004112200019N0300001N1+03001+01291999999ADDGA1021+009009099GF103991021091008001001031KA1120M+03051KA2120N+02941MA1101021086641MD1710181+9999ME1314509MW1001REMSYN098AAXX  08154 68242 42580 30208 10300 20129 38664 48450 57018 82903 333 10305 20294 91015 555 91010;MET047FAMM 081500Z 02009KT 9999 FEW030CB 30/13 Q1010;EQDQ01+000000PRSWM2
0141682420999992000010816004-25780+025530FM-15+1277FAMM V0200201N004612200019N0112651N1+03001+01301999999ADDGA1021+009009099GF102991999999999999999999MA1101021999999MW1001REMMET047FAMM 081600Z 02009KT 9999 FEW030CB 30/13 Q1010;EQDQ01+000000PRSWM2
0141682420999992000010817004-25780+025530FM-15+1277FAMM V0200201N003612200019N0112651N1+02801+01401999999ADDGA1021+009009099GF102991999999999999999999MA1101021999999MW1001REMMET047FAMM 081700Z 02007KT 9999 FEW030CB 28/14 Q1010;EQDQ01+000000PRSWM2
0321682420999992000010818004-25780+025530SY-MT+1277FAMM V0200201N002112200019N0300001N1+02421+01621999999ADDAA106000091GA1021+009009099GF102991021091008001001001KA1120M+03051KA2120N+02421MA1101081086761MD1210121+9999ME1314609MW1001REMSYN098AAXX  08184 68242 32580 20204 10242 20162 38676 48460 52012 82900 333 10305 20242 91005 555 91012;MET047FAMM 081800Z 02005KT 9999 FEW030CB 25/16 Q1011;EQDQ01+000000PRSWM2Q02  00002PRCP06
0105682420999992000010819004-25780+025530FM-15+1277FAMM V0200101N002612200019N9999999N1+02401+01701999999ADDMA1101191999999MW1001REMMET053FAMM 081900Z AUTO 01005KT //// // ////// 24/17 Q1012;EQDQ01+000000PRSWM2
0091682420999992000010903004-25780+025530FM-15+1277FAMM V0203601N00571220001CN0099001N1+01901+01701999999ADDMA1101291999999MW1001REMMET039FAMM 090300Z 36011KT CAVOK 19/17 Q1013;EQDQ01+000000PRSWM2
0139682420999992000010904004-25780+025530FM-15+1277FAMM V0203601N004112200019N0112651N1+01901+01701999999ADDGA1021+004509999GF102991999999999999999999MA1101291999999MW1001REMMET045FAMM 090400Z 36008KT 9999 FEW015 19/17 Q1013;EQDQ01+000000PRSWM2
0139682420999992000010905004-25780+025530FM-15+1277FAMM V0203601N005112200019N0112651N1+02101+01801999999ADDGA1021+004509999GF102991999999999999999999MA1101391999999MW1001REMMET045FAMM 090500Z 36010KT 9999 FEW015 21/18 Q1014;EQDQ01+000000PRSWM2
0139682420999992000010907004-25780+025530FM-15+1277FAMM V0203601N006212200019N0112651N1+02201+01801999999ADDGA1021+004509999GF104991999999999999999999MA1101391999999MW1001REMMET045FAMM 090700Z 36012KT 9999 SCT015 22/18 Q1014;EQDQ01+000000PRSWM2
0139682420999992000010908004-25780+025530FM-15+1277FAMM V0200101N007212200019N0112651N1+02501+01701999999ADDGA1021+004509999GF104991999999999999999999MA1101391999999MW1001REMMET045FAMM 090800Z 01014KT 9999 SCT015 25/17 Q1014;EQDQ01+000000PRSWM2
0292682420999992000010909004-25780+025530SY-MT+1277FAMM V0203601N005112200019N0300001N1+02431+01661999999ADDGA1021+004509999GF105991041051004501001041KA1120M+02541KA2120N+01901MA1101391086941MD1710021+9999ME1314789MW1001REMSYN098AAXX  09094 68242 42480 53610 10243 20166 38694 48478 57002 84504 333 10254 20190 91013 555 91014;MET045FAMM 090900Z 01009KT 9999 SCT015 24/17 Q1014;EQDQ01+000000PRSWM2
0165682420999992000010910004-25780+025530FM-15+1277FAMM V0200101N004612200019N0112651N1+02501+01701999999ADDGA1021+004509999GA2021+006009029GF102991999999999999999999MA1101291999999MW1001REMMET055FAMM 091000Z 01009KT 9999 FEW015 FEW020TCU 25/17 Q1013;EQDQ01+000000PRSWM2
0165682420999992000010911004-25780+025530FM-15+1277FAMM V0209999C000012200019N0112651N1+02601+01701999999ADDGA1021+004509999GA2021+006009029GF104991999999999999999999MA1101291999999MW1001REMMET055FAMM 091100Z 00000KT 9999 FEW015 SCT020TCU 26/17 Q1013;EQDQ01+000000PRSWM2
0361682420999992000010912004-25780+025530SY-MT+1277FAMM V0203601N00211006001CN0300001N1+02611+01581999999ADDAA106000091GA1021+004509999GA2071+006009029GF199999051051004501001001KA1120M+02711KA2120N+01901MA1101191086801MD1710141+9999ME1314649MW1001REMSYN098AAXX  09124 68242 32480 63604 10261 20158 38680 48464 57014 85500 333 10271 20190 91011 555 91012;MET055FAMM 091200Z 00000KT 9999 FEW015 BKN020TCU 27/16 Q1012;EQDQ01+000062SCOTCVQ02+000000PRSWM2Q03  00002PRCP06
0165682420999992000010913004-25780+025530FM-15+1277FAMM V0200101N003112200019N0112651N1+02701+01601999999ADDGA1021+007509999GA2021+007509029GF104991999999999999999999MA1101191999999MW1001REMMET055FAMM 091300Z 01006KT 9999 FEW025 SCT025TCU 27/16 Q1012;EQDQ01+000000PRSWM2
0142682420999992000010914004-25780+025530FM-15+1277FAMM V0200201N002112200019N0112651N1+02701+01601999999ADDGA1021+007509029GF104991999999999999999999MA1101081999999MW1001REMMET048FAMM 091400Z 02004KT 9999 SCT025TCU 27/16 Q1011;EQDQ01+000000PRSWM2
0318682420999992000010915004-25780+025530SY-MT+1277FAMM V0203601N004110900019N0300001N1+02751+01591999999ADDGA1021+009009999GA2021+009009029GF105991031041008001001031KA1120M+02771KA2120N+02611MA1101081086661MD1710141+9999ME1314509MW1001REMSYN098AAXX  09154 68242 42580 53608 10275 20159 38666 48450 57014 83403 333 10277 20261 91008 555 91011;MET055FAMM 091500Z 01007KT 9999 FEW030 SCT030TCU 28/16 Q1011;EQDQ01+000000PRSWM2
0165682420999992000010916004-25780+025530FM-15+1277FAMM V0200101N003612200019N0112651N1+02701+01601999999ADDGA1021+009009999GA2021+009009029GF104991999999999999999999MA1101021999999MW1001REMMET055FAMM 091600Z 01007KT 9999 FEW030 SCT030TCU 27/16 Q1010;EQDQ01+000000PRSWM2
0168682420999992000010917004-25780+025530FM-15+1277FAMM V0209999C000012200019N0112651N1+02601+01701999999ADDGA1021+009009029GA2021+009009029GF102991999999999999999999MA1101081999999MW1001REMMET058FAMM 091700Z 00000KT 9999 FEW030TCU FEW030TCU 26/17 Q1011;EQDQ01+000000PRSWM2
0354682420999992000010918004-25780+025530SY-MT+1277FAMM V0200401N003112200019N0300001N1+02371+01821999999ADDAA106000091AY101061AY201061GA1021+009009099GF103991021091008001001031KA1120M+02791KA2120N+02371MA1101081086761MD1210101+9999ME1314589MW1131MW2171REMSYN104AAXX  09184 68242 31580 30406 10237 20182 38676 48458 52010 71300 82903 333 10279 20237 91007 555 91012;MET052FAMM 091800Z 00000KT 9999 VCTS FEW030CB 24/18 Q1011;EQDQ01  00002PRCP06Q02    003PRSWM1
0105682420999992000010919004-25780+025530FM-15+1277FAMM V0200101N002612200019N9999999N1+02301+01801999999ADDMA1101291999999MW1001REMMET053FAMM 091900Z AUTO 01005KT //// // ////// 23/18 Q1013;EQDQ01+000000PRSWM2
0105682420999992000010920004-25780+025530FM-15+1277FAMM V0200101N002112200019N9999999N1+02101+01801999999ADDMA1101291999999MW1001REMMET053FAMM 092000Z AUTO 01004KT //// // ////// 21/18 Q1013;EQDQ01+000000PRSWM2
0105682420999992000010921004-25780+025530FM-15+1277FAMM V0203601N002612200019N9999999N1+02101+01801999999ADDMA1101291999999MW1001REMMET053FAMM 092100Z AUTO 36005KT //// // ////// 21/18 Q1013;EQDQ01+000000PRSWM2
0105682420999992000010922004-25780+025530FM-15+1277FAMM V0200101N002112200019N9999999N1+02001+01801999999ADDMA1101391999999MW1001REMMET053FAMM 092200Z AUTO 01004KT //// // ////// 20/18 Q1014;EQDQ01+000000PRSWM2
0105682420999992000010923004-25780+025530FM-15+1277FAMM V0203601N002612200019N9999999N1+02001+01801999999ADDMA1101391999999MW1001REMMET053FAMM 092300Z AUTO 36005KT //// // ////// 20/18 Q1014;EQDQ01+000000PRSWM2
0279682420999992000011000004-25780+025530SY-MT+1277FAMM V0203601N003119999999N9999999N1+01941+01771999999ADDAA106000091KA1120M+02791KA2120N+01941MA1101291086881MD1710381+9999ME1314709MW1001REMSYN092AAXX  10004 68242 36/// /3606 10194 20177 38688 48470 57038 333 10279 20194 91007 555 91013;MET053FAMM 100000Z AUTO 36006KT //// // ////// 20/18 Q1013;EQDQ01+000000PRSWM2Q02  00002PRCP06
0105682420999992000011001004-25780+025530FM-15+1277FAMM V0200101N002612200019N9999999N1+01901+01701999999ADDMA1101291999999MW1001REMMET053FAMM 100100Z AUTO 01005KT //// // ////// 19/17 Q1013;EQDQ01+000000PRSWM2
0105682420999992000011002004-25780+025530FM-15+1277FAMM V0200101N002112200019N9999999N1+01901+01701999999ADDMA1101291999999MW1001REMMET053FAMM 100200Z AUTO 01004KT //// // ////// 19/17 Q1013;EQDQ01+000000PRSWM2
0327682420999992000011003004-25780+025530SY-MT+1277FAMM V0203601N004112200019N0300001N1+01821+01691999999ADDAY101031AY201031GA1021+009009099GF102991011091008001001031KA1120M+02791KA2120N+01821MA1101291086851MD1710031+9999ME1314679MW1131MW2171REMSYN104AAXX  10034 68242 41580 23608 10182 20169 38685 48467 57003 71300 81903 333 10279 20182 91008 555 91013;MET052FAMM 100300Z 01007KT 9999 VCTS FEW030CB 18/17 Q1013;EQDQ01    003PRSWM1
0139682420999992000011004004-25780+025530FM-15+1277FAMM V0209999C000012200019N0112651N1+01801+01701999999ADDGA1021+009009999GF102991999999999999999999MA1101291999999MW1001REMMET045FAMM 100400Z 00000KT 9999 FEW030 18/17 Q1013;EQDQ01+000000PRSWM2
0139682420999992000011005004-25780+025530FM-15+1277FAMM V0200101N002612200019N0112651N1+02001+01801999999ADDGA1021+009009999GF102991999999999999999999MA1101391999999MW1001REMMET045FAMM 100500Z 01005KT 9999 FEW030 20/18 Q1014;EQDQ01+000000PRSWM2
0319682420999992000011006004-25780+025530SY-MT+1277FAMM V0203601N002112200019N0300001N1+02161+01801999999ADDAA106000091GA1021+006009999GF103991031051008001001001KA1240M+02791KA2120N+01801MA1101391086971MD1210121+9999ME1314799MW1001REMSYN098AAXX  10064 68242 32580 33604 10216 20180 38697 48479 52012 83500 333 20180 91010 555 10279 91014;MET045FAMM 100600Z 01006KT 9999 SCT020 22/18 Q1014;EQDQ01+000000PRSWM2Q02  00002PRCP06
0139682420999992000011007004-25780+025530FM-15+1277FAMM V0209999C000010054019N0112651N1+02201+01801999999ADDGA1071+005409999GF107991999999999999999999MA1101391999999MW1001REMMET045FAMM 100700Z 00000KT 9999 BKN018 22/18 Q1014;EQDQ01+000000PRSWM2
0139682420999992000011008004-25780+025530FM-15+1277FAMM V0200401N001512200019N0112651N1+02401+01801999999ADDGA1021+007509999GF102991999999999999999999MA1101391999999MW1001REMMET045FAMM 100800Z 04003KT 9999 FEW025 24/18 Q1014;EQDQ01+000000PRSWM2
0292682420999992000011009004-25780+025530SY-MT+1277FAMM V0200401N002112200019N0300001N1+02581+01751999999ADDGA1021+009009999GF102991021011008001001001KA1120M+02581KA2120N+01801MA1101391086951MD1710021+9999ME1314799MW1001REMSYN098AAXX  10094 68242 42580 20404 10258 20175 38695 48479 57002 82100 333 10258 20180 91006 555 91014;MET045FAMM 100900Z 00000KT 9999 FEW030 25/18 Q1014;EQDQ01+000000PRSWM2
0139682420999992000011010004-25780+025530FM-15+1277FAMM V0200401N001512200019N0112651N1+02701+01701999999ADDGA1021+009009999GF102991999999999999999999MA1101291999999MW1001REMMET045FAMM 101000Z 04003KT 9999 FEW030 27/17 Q1013;EQDQ01+000000PRSWM2
0139682420999992000011011004-25780+025530FM-15+1277FAMM V0200201N002112200019N0112651N1+02801+01701999999ADDGA1021+009009999GF104991999999999999999999MA1101291999999MW1001REMMET045FAMM 101100Z 02004KT 9999 SCT030 28/17 Q1013;EQDQ01+000000PRSWM2
0361682420999992000011012004-25780+025530SY-MT+1277FAMM V0209999C000012200019N0300001N1+02911+01631999999ADDAA106000091GA1021+009009999GA2021+009009029GF104991999021008001001001KA1120M+02931KA2120N+01801MA1101191086781MD1710171+9999ME1314639MW1001REMSYN098AAXX  10124 68242 32580 40000 10291 20163 38678 48463 57017 82200 333 10293 20180 91008 555 91012;MET055FAMM 101200Z 03003KT 9999 FEW030 FEW030TCU 29/17 Q1012;EQDQ01+000022SCOTLCQ02+000000PRSWM2Q03  00002PRCP06
0165682420999992000011013004-25780+025530FM-15+1277FAMM V0200301N003112200019N0112651N1+03001+01601999999ADDGA1021+009009999GA2021+009009029GF102991999999999999999999MA1101081999999MW1001REMMET055FAMM 101300Z 03006KT 9999 FEW030 FEW030TCU 30/16 Q1011;EQDQ01+000000PRSWM2
0141682420999992000011014004-25780+025530FM-15+1277FAMM V0200101N006712200019N0112651N1+02801+01601999999ADDGA1021+009009099GF104991999999999999999999MA1101081999999MW1001REMMET047FAMM 101400Z 01013KT 9999 SCT030CB 28/16 Q1011;EQDQ01+000000PRSWM2
0294682420999992000011015004-25780+025530SY-MT+1277FAMM V0203601N002112200019N0300001N1+02911+01451999999ADDGA1021+009009099GF104991021091008001001001KA1120M+03051KA2120N+02631MA1101081086671MD1710111+9999ME1314539MW1001REMSYN098AAXX  10154 68242 42580 43604 10291 20145 38667 48453 57011 82900 333 10305 20263 91011 555 91011;MET047FAMM 101500Z 01006KT 9999 SCT030CB 29/15 Q1011;EQDQ01+000000PRSWM2
0141682420999992000011016004-25780+025530FM-15+1277FAMM V0200101N002112200019N0112651N1+02801+01401999999ADDGA1021+009009099GF104991999999999999999999MA1101021999999MW1001REMMET047FAMM 101600Z 01004KT 9999 SCT030CB 28/14 Q1010;EQDQ01+000000PRSWM2
0141682420999992000011017004-25780+025530FM-15+1277FAMM V0203601N003112200019N0112651N1+02701+01501999999ADDGA1021+009009099GF104991999999999999999999MA1101081999999MW1001REMMET047FAMM 101700Z 36006KT 9999 SCT030CB 27/15 Q1011;EQDQ01+000000PRSWM2
0321682420999992000011018004-25780+025530SY-MT+1277FAMM V0203601N002112200019N0300001N1+02561+01731999999ADDAA106000091GA1021+009009099GF105991021091008001061001KA1120M+03051KA2120N+02561MA1101191086791MD1210121+9999ME1314639MW1001REMSYN098AAXX  10184 68242 32580 53604 10256 20173 38679 48463 52012 82960 333 10305 20256 91006 555 91012;MET047FAMM 101800Z 36005KT 9999 SCT030CB 26/17 Q1012;EQDQ01+000000PRSWM2Q02  00002PRCP06
0105682420999992000011019004-25780+025530FM-15+1277FAMM V0203601N003112200019N9999999N1+02501+01901999999ADDMA1101291999999MW1001REMMET053FAMM 101900Z AUTO 36006KT //// // ////// 25/19 Q1013;EQDQ01+000000PRSWM2
0105682420999992000011020004-25780+025530FM-15+1277FAMM V0203601N002112200019N9999999N1+02501+01901999999ADDMA1101291999999MW1001REMMET053FAMM 102000Z AUTO 36004KT //// // ////// 25/19 Q1013;EQDQ01+000000PRSWM2
0105682420999992000011021004-25780+025530FM-15+1277FAMM V0200101N001012200019N9999999N1+02301+01901999999ADDMA1101391999999MW1001REMMET053FAMM 102100Z AUTO 01002KT //// // ////// 23/19 Q1014;EQDQ01+000000PRSWM2
0105682420999992000011022004-25780+025530FM-15+1277FAMM V0200101N002112200019N9999999N1+02301+01801999999ADDMA1101391999999MW1001REMMET053FAMM 102200Z AUTO 01004KT //// // ////// 23/18 Q1014;EQDQ01+000000PRSWM2
0105682420999992000011023004-25780+025530FM-15+1277FAMM V0203601N001012200019N9999999N1+02201+01601999999ADDMA1101391999999MW1001REMMET053FAMM 102300Z AUTO 36002KT //// // ////// 22/16 Q1014;EQDQ01+000000PRSWM2
0279682420999992000011100004-25780+025530SY-MT+1277FAMM V0209999C000019999999N9999999N1+02141+01801999999ADDAA106000091KA1120M+03051KA2120N+02111MA1101391086911MD1710351+9999ME1314749MW1001REMSYN092AAXX  11004 68242 36/// /0000 10214 20180 38691 48474 57035 333 10305 20211 91004 555 91013;MET053FAMM 110000Z AUTO 02001KT //// // ////// 21/18 Q1014;EQDQ01+000000PRSWM2Q02  00002PRCP06
0105682420999992000011101004-25780+025530FM-15+1277FAMM V0200101N001512200019N9999999N1+02101+01701999999ADDMA1101291999999MW1001REMMET053FAMM 110100Z AUTO 01003KT //// // ////// 21/17 Q1013;EQDQ01+000000PRSWM2
0105682420999992000011102004-25780+025530FM-15+1277FAMM V0200101N002112200019N9999999N1+02001+01701999999ADDMA1101291999999MW1001REMMET053FAMM 110200Z AUTO 01004KT //// // ////// 20/17 Q1013;EQDQ01+000000PRSWM2
0270682420999992000011103004-25780+025530SY-MT+1277FAMM V0200101N003112200019N0300001N1+02041+01711999999ADDGF103991031001999999071001KA1120M+03051KA2120N+02001MA1101391086931MD1210021+9999ME1314769MW1001REMSYN098AAXX  11034 68242 42980 30106 10204 20171 38693 48476 52002 83070 333 10305 20200 91009 555 91014;MET039FAMM 110300Z 01008KT CAVOK 21/17 Q1014;EQDQ01+000000PRSWM2
0091682420999992000011104004-25780+025530FM-15+1277FAMM V0200101N00361220001CN0099001N1+02001+01701999999ADDMA1101391999999MW1001REMMET039FAMM 110400Z 01007KT CAVOK 20/17 Q1014;EQDQ01+000000PRSWM2
0091682420999992000011105004-25780+025530FM-15+1277FAMM V0200101N00511220001CN0099001N1+02101+01801999999ADDMA1101491999999MW1001REMMET039FAMM 110500Z 01010KT CAVOK 21/18 Q1015;EQDQ01+000000PRSWM2
0357682420999992000011106004-25780+025530SY-MT+1277FAMM V0203601N006712200019N0300001N1+02351+01821999999ADDAA106000091AY101061AY201061GA1021+009009999GF102991011011008001071001KA1240M+03051KA2120N+01951MA1101491087061MD1210131+9999ME1314909MW1051REMSYN104AAXX  11064 68242 31580 23613 10235 20182 38706 48490 52013 70500 81170 333 20195 91017 555 10305 91015;MET045FAMM 110600Z 36012KT 9999 FEW030 24/19 Q1015;EQDQ01+000000PRSWM2Q02  00002PRCP06Q03    003PRSWM1
0139682420999992000011107004-25780+025530FM-15+1277FAMM V0200101N006712200019N0112651N1+02401+01901999999ADDGA1021+009009999GF102991999999999999999999MA1101491999999MW1001REMMET045FAMM 110700Z 01013KT 9999 FEW030 24/19 Q1015;EQDQ01+000000PRSWM2
0139682420999992000011108004-25780+025530FM-15+1277FAMM V0200101N005112200019N0112651N1+02601+01901999999ADDGA1021+009009999GF102991999999999999999999MA1101491999999MW1001REMMET045FAMM 110800Z 01010KT 9999 FEW030 26/19 Q1015;EQDQ01+000000PRSWM2
0356682420999992000011109004-25780+025530SY-MT+1277FAMM V0200501N004112200019N0300001N1+02691+01821999999ADDAY101031AY201031GA1021+007509999GA2021+009009029GF104991021051008001071001KA1120M+02711KA2120N+01951MA1101491087081MD1210021+9999ME1314939MW1051REMSYN104AAXX  11094 68242 41580 40508 10269 20182 38708 48493 52002 70500 82570 333 10271 20195 91014 555 91015;MET055FAMM 110900Z 03007KT 9999 FEW030TCU FEW025 26/18 Q1015;EQDQ01+000000PRSWM2Q02    003PRSWM1
0165682420999992000011110004-25780+025530FM-15+1277FAMM V0200301N002612200019N0112651N1+02701+01901999999ADDGA1021+006009999GA2021+007509029GF102991999999999999999999MA1101491999999MW1001REMMET055FAMM 111000Z 03005KT 9999 SCT025TCU FEW020 27/19 Q1015;EQDQ01+000000PRSWM2
0165682420999992000011111004-25780+025530FM-15+1277FAMM V0200301N002112200019N0112651N1+02801+01701999999ADDGA1021+007509029GA2021+007509999GF102991999999999999999999MA1101391999999MW1001REMMET055FAMM 111100Z 03004KT 9999 SCT025TCU FEW025 28/17 Q1014;EQDQ01+000000PRSWM2
0364682420999992000011112004-25780+025530SY-MT+1277FAMM V0200401N00311009001CN0180001N1+02871+01761999999ADDAA106000091AY121061AY221061GA1071+009009099GF108991041091008001071031KA1120M+02881KA2120N+01951MA1101391086911MD1710171+9999ME1314769MW1051REMSYN104AAXX  11124 68242 31568 80406 10287 20176 38691 48476 57017 70522 84973 333 10288 20195 91013 555 91013;MET052FAMM 111200Z 03009KT 9999 BKN030CB 29/18 Q1014 RETS;EQDQ01+000000PRSWM2Q02  00002PRCP06Q03    003PRSWM1
0165682420999992000011113004-25780+025530FM-15+1277FAMM V0200101N002112200019N0112651N1+02901+01701999999ADDGA1021+007509999GA2021+007509029GF102991999999999999999999MA1101291999999MW1001REMMET055FAMM 111300Z 01004KT 9999 FEW025 FEW025TCU 29/17 Q1013;EQDQ01+000000PRSWM2
0356682420999992000011115004-25780+025530SY-MT+1277FAMM V0209999C000010360019N0180001N1+02881+01701999999ADDAY121031AY221031GA1021+006009999GA2021+009009029GF108991031051008001071051KA1120M+02951KA2120N+02791MA1101081086731MD1710181+9999ME1314589MW1051REMSYN104AAXX  11154 68242 41568 80000 10288 20170 38673 48458 57018 70522 83575 333 10295 20279 91007 555 91011;MET055FAMM 111500Z 03003KT 9999 FEW020 SCT030TCU 29/17 Q1011;EQDQ01+000000PRSWM2Q02    003PRSWM1
0162682420999992000011116004-25780+025530FM-15+1277FAMM V0200301N003610300019N0112651N1+02501+01801999999ADDGA1021+006009999GA2071+030009999GF107991999999999999999999MA1101191999999MW1001REMMET052FAMM 111600Z 03007KT 9999 SCT020 BKN100 25/18 Q1012;EQDQ01+000000PRSWM2
0208682420999992000011117004-25780+025530FM-15+1277FAMM V0200201N001510300019N0112651N1+02401+01801999999ADDGA1021+006009999GA2021+009009099GA3071+030009999GF107991999999999999999999MA1101191999999MW1171REMMET066FAMM 111700Z 02003KT 9999 VCTS FEW030CB FEW020 BKN100 24/18 Q1012;EQDQ01+000003PRSWM1Q02    003PRSWM1
0400682420999992000011118004-25780+025530SY-MT+1277FAMM V0209999C000010300019N0280001N1+02451+01751999999ADDAA106000091AY121061AY221061GA1021+006009999GA2021+009009099GA3071+030009999GF108991021091008001021999KA1120M+02951KA2120N+02421MA1101291086871MD1210141+9999ME1314719MW1131MW2171REMSYN104AAXX  11184 68242 31578 80000 10245 20175 38687 48471 52014 71322 8292/ 333 10295 20242 91004 555 91013;MET066FAMM 111800Z 00000KT 9999 VCTS FEW030CB FEW020 BKN100 25/17 Q1013;EQDQ01  00002PRCP06Q02    003PRSWM1
0105682420999992000011119004-25780+025530FM-15+1277FAMM V0200301N000512200019N9999999N1+02401+01901999999ADDMA1101291999999MW1001REMMET053FAMM 111900Z AUTO 03001KT //// // ////// 24/19 Q1013;EQDQ01+000000PRSWM2
0105682420999992000011120004-25780+025530FM-15+1277FAMM V0200101N001512200019N9999999N1+02301+01801999999ADDMA1101391999999MW1001REMMET053FAMM 112100Z AUTO 01003KT //// // ////// 23/18 Q1014;EQDQ01+000000PRSWM2
0105682420999992000011121004-25780+025530FM-15+1277FAMM V0200101N001512200019N9999999N1+02301+01801999999ADDMA1101391999999MW1001REMMET053FAMM 112100Z AUTO 01003KT //// // ////// 23/18 Q1014;EQDQ01+000000PRSWM2
0105682420999992000011122004-25780+025530FM-15+1277FAMM V0203601N001512200019N9999999N1+02201+01701999999ADDMA1101391999999MW1001REMMET053FAMM 112200Z AUTO 36003KT //// // ////// 22/17 Q1014;EQDQ01+000000PRSWM2
0105682420999992000011123004-25780+025530FM-15+1277FAMM V0200201N001012200019N9999999N1+02201+01901999999ADDMA1101391999999MW1001REMMET053FAMM 112300Z AUTO 02002KT //// // ////// 22/19 Q1014;EQDQ01+000000PRSWM2
0279682420999992000011200004-25780+025530SY-MT+1277FAMM V0200101N002119999999N9999999N1+02071+01851999999ADDAA106000091KA1120M+02951KA2120N+02061MA1101391086971MD1710291+9999ME1314809MW1001REMSYN092AAXX  12004 68242 36/// /0104 10207 20185 38697 48480 57029 333 10295 20206 91006 555 91014;MET053FAMM 120000Z AUTO 02004KT //// // ////// 21/19 Q1014;EQDQ01+000000PRSWM2Q02  00002PRCP06
0105682420999992000011201004-25780+025530FM-15+1277FAMM V0200201N002112200019N9999999N1+02001+01801999999ADDMA1101391999999MW1001REMMET053FAMM 120100Z AUTO 02004KT //// // ////// 20/18 Q1014;EQDQ01+000000PRSWM2
0105682420999992000011202004-25780+025530FM-15+1277FAMM V0200201N001512200019N9999999N1+02001+01801999999ADDMA1101291999999MW1001REMMET053FAMM 120200Z AUTO 02003KT //// // ////// 20/18 Q1013;EQDQ01+000000PRSWM2
0353682420999992000011203004-25780+025530SY-MT+1277FAMM V0200101N002112200019N0180001N1+01981+01741999999ADDAY121031AY221031GA1021+006009999GA2021+030009999GF105991021041008001071001KA1120M+02951KA2120N+01971MA1101391086931MD1710041+9999ME1314769MW1041REMSYN104AAXX  12034 68242 41568 50104 10198 20174 38693 48476 57004 70422 82470 333 10295 20197 91007 555 91014;MET052FAMM 120300Z 01006KT 9999 FEW020 SCT100 20/17 Q1014;EQDQ01+000000PRSWM2Q02    003PRSWM1
0139682420999992000011204004-25780+025530FM-15+1277FAMM V0200101N003112200019N0112651N1+02001+01801999999ADDGA1021+006009999GF102991999999999999999999MA1101391999999MW1001REMMET045FAMM 120400Z 01006KT 9999 FEW020 20/18 Q1014;EQDQ01+000000PRSWM2
0139682420999992000011205004-25780+025530FM-15+1277FAMM V0203601N004112200019N0112651N1+02201+01701999999ADDGA1021+009009999GF102991999999999999999999MA1101491999999MW1001REMMET045FAMM 120500Z 36008KT 9999 FEW030 22/17 Q1015;EQDQ01+000000PRSWM2
0319682420999992000011206004-25780+025530SY-MT+1277FAMM V0203601N006712200019N0280001N1+02361+01641999999ADDAA106000091GA1021+009009999GF101991011041008001001001KA1240M+02951KA2120N+01971MA1101491087051MD1210121+9999ME1314909MW1001REMSYN098AAXX  12064 68242 32578 13613 10236 20164 38705 48490 52012 81400 333 20197 91019 555 10295 91015;MET045FAMM 120600Z 01010KT 9999 FEW030 23/16 Q1015;EQDQ01+000000PRSWM2Q02  00002PRCP06
0139682420999992000011207004-25780+025530FM-15+1277FAMM V0200301N004612200019N0112651N1+02501+01601999999ADDGA1021+009009999GF102991999999999999999999MA1101491999999MW1001REMMET045FAMM 120700Z 03009KT 9999 FEW030 25/16 Q1015;EQDQ01+000000PRSWM2
0165682420999992000011208004-25780+025530FM-15+1277FAMM V0200301N003612200019N0112651N1+02501+01601999999ADDGA1021+009009999GA2021+009009029GF102991999999999999999999MA1101491999999MW1001REMMET055FAMM 120800Z 03007KT 9999 FEW030 FEW030TCU 25/16 Q1015;EQDQ01+000000PRSWM2
0334682420999992000011209004-25780+025530SY-MT+1277FAMM V0200501N003119999999N0300001N1+02641+01611999999ADDGA1021+009009999GA2021+009009029GF105991999021008001001001KA1120M+02701KA2120N+01971MA1101491087011MD1710041+9999ME1314879MW1001REMSYN098AAXX  12094 68242 42580 50506 10264 20161 38701 48487 57004 83200 333 10270 20197 91012 555 91015;MET055FAMM 120900Z 05006KT 9999 FEW030 SCT030TCU 27/16 Q1015;EQDQ01+000032SCOTLCQ02+000000PRSWM2
0182682420999992000011210004-25780+025530FM-15+1277FAMM V0209999C000012200019N0112651N1+99999+99999999999ADDGA1021+009009999GA2021+009009029GF104991999999999999999999MW1001REMMET055FAMM 121000Z 00000KT 9999 FEW030 SCT030TCU 00/// Q0935;EQDQ01+000003ATOT  Q02+093503APOA  Q03+000000PRSWM2
0165682420999992000011211004-25780+025530FM-15+1277FAMM V0200401N002612200019N0112651N1+02801+01601999999ADDGA1021+009009999GA2021+009009029GF104991999999999999999999MA1101391999999MW1001REMMET055FAMM 121100Z 04005KT 9999 FEW030 SCT030TCU 28/16 Q1014;EQDQ01+000000PRSWM2
0361682420999992000011212004-25780+025530SY-MT+1277FAMM V0200401N003119999999N0300001N1+02951+01491999999ADDAA106000091GA1021+009009999GA2021+009009029GF105991999021008001001001KA1120M+02971KA2120N+01971MA1101291086851MD1710161+9999ME1314729MW1001REMSYN098AAXX  12124 68242 32580 50406 10295 20149 38685 48472 57016 83200 333 10297 20197 91013 555 91013;MET055FAMM 121200Z 04006KT 9999 FEW030 SCT030TCU 30/14 Q1013;EQDQ01+000032SCOTLCQ02+000000PRSWM2Q03  00002PRCP06
0165682420999992000011213004-25780+025530FM-15+1277FAMM V0200501N002112200019N0112651N1+02901+01501999999ADDGA1021+009009999GA2021+009009029GF104991999999999999999999MA1101191999999MW1001REMMET055FAMM 121300Z 05004KT 9999 FEW030 SCT030TCU 29/15 Q1012;EQDQ01+000000PRSWM2
0165682420999992000011214004-25780+025530FM-15+1277FAMM V0200401N001512200019N0112651N1+02901+01301999999ADDGA1021+009009999GA2021+009009029GF104991999999999999999999MA1101081999999MW1001REMMET055FAMM 121400Z 04003KT 9999 FEW030 SCT030TCU 29/13 Q1011;EQDQ01+000000PRSWM2
0294682420999992000011215004-25780+025530SY-MT+1277FAMM V0200401N003110360019N0300001N1+02911+01381999999ADDGA1021+009009099GF106991021031008001071001KA1120M+03021KA2120N+02841MA1101081086691MD1710161+9999ME1314559MW1001REMSYN098AAXX  12154 68242 42580 60406 10291 20138 38669 48455 57016 82370 333 10302 20284 91008 555 91011;MET047FAMM 121500Z 04005KT 9999 SCT030CB 29/13 Q1011;EQDQ01+000000PRSWM2
0164682420999992000011216004-25780+025530FM-15+1277FAMM V0200401N001512200019N0112651N1+02801+01301999999ADDGA1021+009009099GA2021+009009999GF102991999999999999999999MA1101081999999MW1001REMMET054FAMM 121600Z 04003KT 9999 FEW030CB FEW030 28/13 Q1011;EQDQ01+000000PRSWM2
0164682420999992000011217004-25780+025530FM-15+1277FAMM V0200301N000512200019N0112651N1+02801+01201999999ADDGA1021+009009099GA2021+009009999GF102991999999999999999999MA1101191999999MW1001REMMET054FAMM 121700Z 03001KT 9999 SCT030CB FEW030 28/12 Q1012;EQDQ01+000000PRSWM2
0377682420999992000011218004-25780+025530SY-MT+1277FAMM V0200301N005110360019N0300001N1+02411+01641999999ADDAA106000091AY121061AY221061GA1021+009009099GA2021+009009999GF105991031091008001071001KA1120M+03021KA2120N+02411MA1101291086861MD1210171+9999ME1314719MW1131MW2171REMSYN104AAXX  12184 68242 31580 50310 10241 20164 38686 48471 52017 71322 83970 333 10302 20241 91012 555 91013;MET059FAMM 121800Z 00000KT 9999 VCTS SCT030CB FEW030 25/17 Q1013;EQDQ01  00002PRCP06Q02    003PRSWM1
0105682420999992000011219004-25780+025530FM-15+1277FAMM V0200301N003112200019N9999999N1+02301+01601999999ADDMA1101391999999MW1001REMMET053FAMM 121900Z AUTO 03006KT //// // ////// 23/16 Q1014;EQDQ01+000000PRSWM2
0105682420999992000011220004-25780+025530FM-15+1277FAMM V0200201N003112200019N9999999N1+02301+01601999999ADDMA1101391999999MW1001REMMET053FAMM 122000Z AUTO 02006KT //// // ////// 23/16 Q1014;EQDQ01+000000PRSWM2
0105682420999992000011221004-25780+025530FM-15+1277FAMM V0200201N002112200019N9999999N1+02301+01701999999ADDMA1101491999999MW1001REMMET053FAMM 122100Z AUTO 02004KT //// // ////// 23/17 Q1015;EQDQ01+000000PRSWM2
0105682420999992000011222004-25780+025530FM-15+1277FAMM V0200101N001012200019N9999999N1+02201+01701999999ADDMA1101491999999MW1001REMMET053FAMM 122200Z AUTO 01002KT //// // ////// 22/17 Q1015;EQDQ01+000000PRSWM2
0105682420999992000011223004-25780+025530FM-15+1277FAMM V0200301N002612200019N9999999N1+02201+01701999999ADDMA1101391999999MW1001REMMET053FAMM 122300Z AUTO 03005KT //// // ////// 22/17 Q1014;EQDQ01+000000PRSWM2
0279682420999992000011300004-25780+025530SY-MT+1277FAMM V0200201N003119999999N9999999N1+02121+01721999999ADDAA106000091KA1120M+03021KA2120N+02121MA1101391086951MD1710311+9999ME1314799MW1001REMSYN092AAXX  13004 68242 36/// /0206 10212 20172 38695 48479 57031 333 10302 20212 91007 555 91014;MET053FAMM 130000Z AUTO 02003KT //// // ////// 21/17 Q1014;EQDQ01+000000PRSWM2Q02  00002PRCP06
0105682420999992000011301004-25780+025530FM-15+1277FAMM V0200201N003612200019N9999999N1+02101+01601999999ADDMA1101291999999MW1001REMMET053FAMM 130100Z AUTO 02007KT //// // ////// 21/16 Q1013;EQDQ01+000000PRSWM2
0105682420999992000011302004-25780+025530FM-15+1277FAMM V0200301N001512200019N9999999N1+02101+01601999999ADDMA1101291999999MW1001REMMET053FAMM 130200Z AUTO 03003KT //// // ////// 21/16 Q1013;EQDQ01+000000PRSWM2
0292682420999992000011303004-25780+025530SY-MT+1277FAMM V0200101N005110360019N0300001N1+02081+01641999999ADDGA1021+006009999GF106991041051008001071001KA1120M+03021KA2120N+02031MA1101291086911MD1710041+9999ME1314759MW1001REMSYN098AAXX  13034 68242 42580 60110 10208 20164 38691 48475 57004 84570 333 10302 20203 91012 555 91013;MET045FAMM 130300Z 01006KT 9999 SCT020 21/16 Q1013;EQDQ01+000000PRSWM2
0152682420999992000011304004-25780+025530FM-15+1277FAMM V0200201N00101220001CN0112651N1+02101+01701999999ADDGA1071+006009999GA2021+030009999MA1101391999999MW1001REMMET052FAMM 130400Z 02002KT 9999 BKN020 SCT100 21/17 Q1014;EQDQ01+000042SCOTCVQ02+000000PRSWM2
0162682420999992000011305004-25780+025530FM-15+1277FAMM V0200101N003112200019N0112651N1+02101+01701999999ADDGA1021+006009999GA2021+030009999GF104991999999999999999999MA1101491999999MW1001REMMET052FAMM 130500Z 01006KT 9999 SCT020 SCT100 21/17 Q1015;EQDQ01+000000PRSWM2
0342682420999992000011306004-25780+025530SY-MT+1277FAMM V0200501N005110300019N0300001N1+02181+01611999999ADDAA106000091GA1021+006009999GA2071+030009999GF108991031051008001071999KA1240M+03021KA2120N+02031MA1101591087171MD1210261+9999ME1315039MW1001REMSYN098AAXX  13064 68242 32580 80510 10218 20161 38717 48503 52026 8357/ 333 20203 91014 555 10302 91016;MET052FAMM 130600Z 36006KT 9999 SCT020 BKN100 22/17 Q1016;EQDQ01+000000PRSWM2Q02  00002PRCP06
0105682420999992000011307004-25780+025530FM-15+1277FAMM V0201301N005112200019N9999999N1+02301+02101999999ADDMA1101491999999MW1001REMMET053FAMM 130700Z AUTO 13010KT //// // ////// 23/21 Q1015;EQDQ01+000000PRSWM2
0162682420999992000011308004-25780+025530FM-15+1277FAMM V0200101N005712200019N0112651N1+02101+01701999999ADDGA1021+006009999GA2021+007509999GF104991999999999999999999MA1101591999999MW1001REMMET052FAMM 130800Z 01011KT 9999 FEW020 SCT025 21/17 Q1016;EQDQ01+000000PRSWM2
0165682420999992000011309004-25780+025530FM-15+1277FAMM V0209999C000012200019N0112651N1+02301+01601999999ADDGA1021+007509999GA2021+007509029GF102991999999999999999999MA1101591999999MW1001REMMET055FAMM 130900Z 00000KT 9999 FEW025 FEW025TCU 23/16 Q1016;EQDQ01+000000PRSWM2
0165682420999992000011310004-25780+025530FM-15+1277FAMM V0209999C000012200019N0112651N1+02501+01701999999ADDGA1021+007509999GA2021+007509029GF102991999999999999999999MA1101591999999MW1001REMMET055FAMM 131000Z 00000KT 9999 FEW025 FEW025TCU 25/17 Q1016;EQDQ01+000000PRSWM2
0165682420999992000011311004-25780+025530FM-15+1277FAMM V0200101N005112200019N0112651N1+02701+01601999999ADDGA1021+007509999GA2021+007509029GF102991999999999999999999MA1101491999999MW1001REMMET055FAMM 131100Z 01010KT 9999 FEW025 FEW025TCU 27/16 Q1015;EQDQ01+000000PRSWM2
0345682420999992000011312004-25780+025530SY-MT+1277FAMM V0200501N004110360019N0300001N1+02631+01541999999ADDAA106000091GA1021+007509999GA2021+007509029GF107991031021008001071001KA1120M+02741KA2120N+01961MA1101491087001MD1710151+9999ME1314869MW1001REMSYN098AAXX  13124 68242 32580 70508 10263 20154 38700 48486 57015 83270 333 10274 20196 91014 555 91014;MET055FAMM 131200Z 02008KT 9999 FEW025 SCT025TCU 27/16 Q1015;EQDQ01+000000PRSWM2Q02  00002PRCP06
0161682420999992000011313004-25780+025530FM-15+1277FAMM V0200101N008210075019N0112651N1+02301+01701999999ADDGA1071+007509099GF107991999999999999999999MA1101391999999MW1611REMMET051FAMM 131300Z 01016KT 9999 -RA BKN025CB 23/17 Q1014;EQDQ01+000003PRSWM1Q02    003PRSWM1
0161682420999992000011314004-25780+025530FM-15+1277FAMM V0203601N007710075019N0112651N1+02201+02001999999ADDGA1071+007509099GF107991999999999999999999MA1101391999999MW1611REMMET051FAMM 131400Z 36015KT 9999 -RA BKN025CB 22/20 Q1014;EQDQ01+000003PRSWM1Q02    003PRSWM1
0334682420999992000011315004-25780+025530SY-MT+1277FAMM V0203601N006710900019N0280001N1+02191+01791999999ADDAA124004491GA1021+007509099GA2021+030009999GF106991021091008001071031KA1120M+02741KA2120N+02001MA1101391086981MD1710021+9999ME1314829MW1001REMSYN104AAXX  13154 68242 42578 63613 10219 20179 38698 48482 57002 82973 333 10274 20200 91018 555 20044 91014;MET054FAMM 131500Z 01017KT 9999 FEW025CB SCT100 21/17 Q1014;EQDQ01+000000PRSWM2
0185682420999992000011317004-25780+025530FM-15+1277FAMM V0200201N004112200019N0112651N1+02001+01701999999ADDGA1021+007509099GA2021+030009999GF104991999999999999999999MA1101591999999MW1171REMMET059FAMM 131700Z 02008KT 9999 VCTS SCT025CB SCT100 20/17 Q1016;EQDQ01+000003PRSWM1Q02    003PRSWM1
0378682420999992000011318004-25780+025530SY-MT+1277FAMM V0200101N006212200019N0280001N1+01791+01401999999ADDAA112004191AA224004491AY121061AY221061GA1021+007509099GA2021+030009999GF108991031091008001071031KA1120M+02741KA2120N+01761MA1101591087171MD1210191+9999ME1315039MW1171REMSYN116AAXX  13184 68242 11578 80112 10179 20140 38717 48503 52019 60042 71722 83973 333 10274 20176 91013 555 20044 91016;MET059FAMM 131800Z 01012KT 9999 VCTS SCT025CB SCT100 18/14 Q1016;EQDQ01    003PRSWM1
0105682420999992000011319004-25780+025530FM-15+1277FAMM V0200101N004612200019N9999999N1+01801+01401999999ADDMA1101691999999MW1001REMMET053FAMM 131900Z AUTO 01009KT //// // ////// 18/14 Q1017;EQDQ01+000000PRSWM2
0105682420999992000011320004-25780+025530FM-15+1277FAMM V0200201N004112200019N9999999N1+01801+01401999999ADDMA1101691999999MW1001REMMET053FAMM 132000Z AUTO 02008KT //// // ////// 18/14 Q1017;EQDQ01+000000PRSWM2
0105682420999992000011321004-25780+025530FM-15+1277FAMM V0200101N002612200019N9999999N1+01801+01501999999ADDMA1101801999999MW1001REMMET053FAMM 132100Z AUTO 01005KT //// // ////// 18/15 Q1018;EQDQ01+000000PRSWM2
0105682420999992000011322004-25780+025530FM-15+1277FAMM V0200101N002112200019N9999999N1+01801+01501999999ADDMA1101801999999MW1001REMMET053FAMM 132200Z AUTO 01004KT //// // ////// 18/15 Q1018;EQDQ01+000000PRSWM2
0110682420999992000011323004-25780+025530FM-15+1277FAMM V0200301N001012200019N9999999N1+01601+01501999999ADDMA1101691999999MW1001REMMET058FAMM 132300Z AUTO 03002KT //// // ////// 16/15 Q1017 RERA;EQDQ01+000000PRSWM2
0311682420999992000011400004-25780+025530SY-MT+127799999V0200201N00211999999MN9999999N1+01641+01551999999ADDAA101008991AA224018891KA1120M+02741KA2120N+01641MA1101691087231MD1710031+9999ME1315089MW1001REMSYN120    AAXX  14004 68242 1//// /0204 10164 20155 38723 48508 57003 60191 7606/ 333 10274 20164 60095 91005 555 20188 91017;MET062FAMM 140000Z AUTO 03002KT //// // -RA ////// 17/16 Q1017 RERA;EQDQ01+000000PRSWM2
0114682420999992000011401004-25780+025530FM-15+1277FAMM V0200301N000512200019N9999999N1+01701+01601999999ADDMA1101691999999MW1001REMMET062FAMM 140100Z AUTO 03001KT //// // -RA ////// 17/16 Q1017 RERA;EQDQ01+000000PRSWM2
0110682420999992000011402004-25780+025530FM-15+1277FAMM V0200201N003612200019N9999999N1+01701+01501999999ADDMA1101691999999MW1001REMMET058FAMM 140200Z AUTO 02007KT //// // ////// 17/15 Q1017 RERA;EQDQ01+000000PRSWM2
0343682420999992000011403004-25780+025530SY-MT+127799999V0200201N00511030001MN0280001N1+01621+01491999999ADDAA124022691GA1021+006009999GA2071+030009999GF108991999999008001999999KA1120M+02741KA2120N+01611MA1101691087221MW1631REMSYN119    AAXX  14034 68242 41578 80210 10162 20149 38722 4850 57001 76022 8352/ 333 10274 20161 69965 91010 555 20226 91017;MET055FAMM 140300Z 02008KT 9999 RA SCT020 BKN100 16/15 Q1017;EQDQ01+000003PRSWM1Q02    003PRSWM1
0181682420999992000011404004-25780+025530FM-15+1277FAMM V0200101N002610300019N0112651N1+01701+01601999999ADDGA1021+006009999GA2071+030009999GF107991999999999999999999MA1101691999999MW1631REMMET055FAMM 140400Z 01005KT 9999 RA SCT020 BKN100 17/16 Q1017;EQDQ01+000003PRSWM1Q02    003PRSWM1
0181682420999992000011405004-25780+025530FM-15+1277FAMM V0200201N003610300019N0112651N1+01601+01501999999ADDGA1021+006009999GA2071+030009999GF107991999999999999999999MA1101801999999MW1631REMMET055FAMM 140500Z 02007KT 9999 RA SCT020 BKN100 16/15 Q1018;EQDQ01+000003PRSWM1Q02    003PRSWM1
0390682420999992000011406004-25780+025530SY-MT+1277FAMM V0200201N003110300019N0280001N1+01551+01471999999ADDAA101006191AA224034991AY161061AY261061GA1021+006009999GA2071+030009999GF108991031051008001021999KA1240M+02741KA2120N+01521MA1101901087381MD1210161+9999ME1315249MW1601MW2631REMSYN126    AAXX  14064 68242 11578 80206 10155 20147 38738 48524 52016 60354 76066 8352/ 333 20152 60065 91010 555 10274 20349 91019;MET055FAMM 140600Z 02007KT 9999 RA SCT020 BKN100 15/14 Q1019;EQDQ01    003PRSWM1
0181682420999992000011407004-25780+025530FM-15+1277FAMM V0200201N003110300019N0112651N1+01601+01501999999ADDGA1021+006009999GA2071+030009999GF107991999999999999999999MA1101901999999MW1631REMMET055FAMM 140700Z 02006KT 9999 RA SCT020 BKN100 16/15 Q1019;EQDQ01+000003PRSWM1Q02    003PRSWM1
0181682420999992000011408004-25780+025530FM-15+1277FAMM V0200101N004110300019N0112651N1+01701+01601999999ADDGA1021+006009999GA2071+030009999GF107991999999999999999999MA1101901999999MW1631REMMET055FAMM 140800Z 01008KT 9999 RA SCT020 BKN100 17/16 Q1019;EQDQ01+000003PRSWM1Q02    003PRSWM1
0184682420999992000011409004-25780+025530FM-15+1277FAMM V0200101N003612200019N0112651N1+01801+01601999999ADDGA1021+006009999GA2021+007509029GF102991999999999999999999MA1101901999999MW1631REMMET058FAMM 140900Z 01007KT 9999 RA SCT020 FEW025TCU 18/16 Q1019;EQDQ01+000003PRSWM1Q02    003PRSWM1
0184682420999992000011410004-25780+025530FM-15+1277FAMM V0200101N004112200019N0112651N1+01801+01601999999ADDGA1021+006009999GA2021+007509029GF102991999999999999999999MA1101901999999MW1631REMMET058FAMM 141000Z 01008KT 9999 RA SCT020 FEW025TCU 18/16 Q1019;EQDQ01+000003PRSWM1Q02    003PRSWM1
0170682420999992000011411004-25780+025530FM-15+1277FAMM V0200101N004612200019N0112651N1+01901+01601999999ADDGA1021+004509999GA2021+006009029GF102991999999999999999999MA1101801999999MW1001REMMET060FAMM 141100Z 01009KT 9999 SCT015 FEW020TCU 19/16 Q1018 RERA;EQDQ01+000000PRSWM2
0393682420999992000011412004-25780+025530SY-MT+127799999V0200101N00311003001CN0280001N1+01961+01571999999ADDAA106001091AA224001291AY161061AY261061GA1071+003009999GA2021+004509029GF108991051051004501021999KA1120M+01971KA2120N+01521MA1101801087281MD1710121+9999ME1315119MW1501MW2511REMSYN120    AAXX  14124 68242 11478 80106 10196 20157 38728 48511 57012 60011 75066 8552/ 333 10197 20152 91010 555 20012 91018;MET064FAMM 141200Z 01008KT 9999 -DZ BKN010 FEW015TCU 20/16 Q1018 RERA;EQDQ01    003PRSWM1
0175682420999992000011413004-25780+025530FM-15+1277FAMM V0200101N00311220001CN0112651N1+01901+01601999999ADDGA1071+003009999GA2021+004509029MA1101691999999MW1511REMMET059FAMM 141300Z 01006KT 9999 -DZ BKN010 FEW015TCU 19/16 Q1017;EQDQ01+000022SCOTCVQ02+000003PRSWM1Q03    003PRSWM1
0186682420999992000011414004-25780+025530FM-15+1277FAMM V0200101N00101220001CN0060001N1+01801+01601999999ADDGA1071+003009999GA2021+006009099MA1101691999999MW1811MW2951REMMET064FAMM 141400Z 01002KT 6000 TSRA BKN010 FEW020CB 18/16 Q1017 REDZ;EQDQ01+000022SCOTCVQ02+000003PRSWM1Q03    003PRSWM1
0383682420999992000011415004-25780+025530SY-MT+1277FAMM V0200101N004112200019N0180001N1+01841+01681999999ADDAA124005691AY151031AY291031GA1021+004509999GA2021+006009099GF108991031091008001071999KA1120M+01991KA2120N+01741MA1101591087101MD1710181+9999ME1314929MW1021REMSYN114    AAXX  14154 68242 41568 80108 10184 20168 38710 48492 57018 70259 8397/ 333 10199 20174 91010 555 20056 91016;MET061FAMM 141500Z 01005KT 9999 FEW020CB SCT015 18/16 Q1016 RETSRA;EQDQ01+000000PRSWM2Q02    003PRSWM1
0172682420999992000011416004-25780+025530FM-15+1277FAMM V0200201N003612200019N0112651N1+01801+01601999999ADDGA1021+004509999GA2021+006009029GF104991999999999999999999MA1101491999999MW1001REMMET062FAMM 141600Z 02007KT 9999 FEW020TCU SCT015 18/16 Q1015 RETSRA;EQDQ01+000000PRSWM2
0162682420999992000011417004-25780+025530FM-15+1277FAMM V0200201N004110300019N0112651N1+01801+01601999999ADDGA1021+004509999GA2071+030009999GF107991999999999999999999MA1101491999999MW1001REMMET052FAMM 141700Z 02008KT 9999 FEW015 BKN100 18/16 Q1015;EQDQ01+000000PRSWM2
0353682420999992000011418004-25780+025530SY-MT+127799999V0200201N00311030001CN0280001N1+01761+01631999999ADDAA112006192AA224005692GA1021+006009999GA2071+030009999GF108991021051008001071999KA1120M+01991KA2120N+01741MA1101591087101MD1410001+9999ME1314919MW1001REMSYN114    AAXX  14184 68242 12578 80206 10176 20163 38710 48491 54000 60062 8257/ 333 10199 20174 91010 555 20056 91016;MET052FAMM 141800Z 01009KT 9999 FEW020 BKN100 17/16 Q1016;EQDQ01+000000PRSWM2
0105682420999992000011419004-25780+025530FM-15+1277FAMM V0200201N002612200019N9999999N1+01801+01601999999ADDMA1101591999999MW1001REMMET053FAMM 141900Z AUTO 02005KT //// // ////// 18/16 Q1016;EQDQ01+000000PRSWM2
0105682420999992000011420004-25780+025530FM-15+1277FAMM V0200101N001512200019N9999999N1+01801+01601999999ADDMA1101691999999MW1001REMMET053FAMM 142000Z AUTO 01003KT //// // ////// 18/16 Q1017;EQDQ01+000000PRSWM2
0105682420999992000011421004-25780+025530FM-15+1277FAMM V0200101N002112200019N9999999N1+01701+01601999999ADDMA1101691999999MW1001REMMET053FAMM 142100Z AUTO 01004KT //// // ////// 17/16 Q1017;EQDQ01+000000PRSWM2
0105682420999992000011422004-25780+025530FM-15+1277FAMM V0200101N002612200019N9999999N1+01701+01601999999ADDMA1101591999999MW1001REMMET053FAMM 142200Z AUTO 01005KT //// // ////// 17/16 Q1016;EQDQ01+000000PRSWM2
0105682420999992000011423004-25780+025530FM-15+1277FAMM V0200101N002612200019N9999999N1+01701+01601999999ADDMA1101591999999MW1001REMMET053FAMM 142300Z AUTO 01005KT //// // ////// 17/16 Q1016;EQDQ01+000000PRSWM2
0290682420999992000011500004-25780+025530SY-MT+127799999V0200101N00411999999MN9999999N1+01711+01531999999ADDAA106006192AA224005692KA1120M+01991KA2120N+01681MA1101491086991MD1710271+9999ME1314809MW1001REMSYN108    AAXX  15004 68242 16/// /0108 10171 20153 38699 48480 57027 60061 333 10199 20168 91011 555 20056 91014;MET053FAMM 150000Z AUTO 01008KT //// // ////// 17/15 Q1015;EQDQ01+000000PRSWM2
0105682420999992000011501004-25780+025530FM-15+1277FAMM V0200101N004612200019N9999999N1+01801+01601999999ADDMA1101391999999MW1001REMMET053FAMM 150100Z AUTO 01009KT //// // ////// 18/16 Q1014;EQDQ01+000000PRSWM2
0105682420999992000011502004-25780+025530FM-15+1277FAMM V0200101N006712200019N9999999N1+01801+01601999999ADDMA1101391999999MW1001REMMET053FAMM 150200Z AUTO 01013KT //// // ////// 18/16 Q1014;EQDQ01+000000PRSWM2
0336682420999992000011503004-25780+025530SY-MT+1277FAMM V0203601N007712200019N0280001N1+01761+01521999999ADDAA124005691GA1021+004509999GA2021+030009999GF108991041051004501021999KA1120M+01991KA2120N+01681MA1101391086951MD1710041+9999ME1314769MW1001REMSYN108    AAXX  15034 68242 42478 83615 10176 20152 38695 48476 57004 8452/ 333 10199 20168 91018 555 20056 91014;MET052FAMM 150300Z 36013KT 9999 SCT015 SCT100 18/15 Q1014;EQDQ01+000000PRSWM2
0139682420999992000011504004-25780+025530FM-15+1277FAMM V0203601N006210030019N0112651N1+01801+01501999999ADDGA1071+003009999GF107991999999999999999999MA1101491999999MW1001REMMET045FAMM 150400Z 36012KT 9999 BKN010 18/15 Q1015;EQDQ01+000000PRSWM2
0139682420999992000011505004-25780+025530FM-15+1277FAMM V0203601N007210030019N0112651N1+01801+01501999999ADDGA1071+003009999GF107991999999999999999999MA1101491999999MW1001REMMET045FAMM 150500Z 36014KT 9999 BKN010 18/15 Q1015;EQDQ01+000000PRSWM2
0319682420999992000011506004-25780+025530SY-MT+1277FAMM V0203601N007710030019N0280001N1+01751+01531999999ADDAA124006291GA1071+003009999GF108991061051004501021999KA1240M+01991KA2120N+01631MA1101591087081MD1210131+9999ME1314899MW1001REMSYN114    AAXX  15064 68242 12478 83615 10175 20153 38708 48489 52013 60064 8652/ 333 20163 91022 555 10199 20062 91015;MET045FAMM 150600Z 36014KT 9999 BKN010 19/16 Q1016;EQDQ01+000000PRSWM2
0159682420999992000011507004-25780+025530FM-15+1277FAMM V0203601N007210030019N0112651N1+01801+01501999999ADDGA1071+003009999GF107991999999999999999999MA1101591999999MW1511REMMET049FAMM 150700Z 36014KT 9999 -DZ BKN010 18/15 Q1016;EQDQ01+000003PRSWM1Q02    003PRSWM1
0164682420999992000011508004-25780+025530FM-15+1277FAMM V0200301N004610024019N0090001N1+01801+01501999999ADDGA1071+002409999GF107991999999999999999999MA1101691999999MW1611REMMET054FAMM 150800Z 03009KT 9000 -RA BKN008 18/15 Q1017 REDZ;EQDQ01+000003PRSWM1Q02    003PRSWM1
0361682420999992000011509004-25780+025530SY-MT+127799999V0209999C00001003001CN0060001N1+01371+01291999999ADDAA101007992AA224007892AY121031AY251031GA1071+003009999GF108991061051004501021999KA1120M+01891KA2120N+01291MA1101801087281MD1210201+9999ME1315119MW1601MW2631REMSYN120    AAXX  15094 68242 41456 80000 10137 20129 38728 48511 52020 76025 8652/ 333 10189 20129 60085 91010 555 20078 91018;MET048FAMM 150900Z 03009KT 6000 RA BKN010 13/12 Q1018;EQDQ01    003PRSWM1
0192682420999992000011510004-25780+025530FM-15+1277FAMM V0200301N000512200019N0060001N1+01501+01301999999ADDGA1021+003009999GA2021+024009999GF104991999999999999999999MA1101801999999MW1631OC100571REMMET058FAMM 151000Z 03001G11KT 6000 RA SCT010 SCT080 15/13 Q1018;EQDQ01+000003PRSWM1Q02    003PRSWM1
0192682420999992000011511004-25780+025530FM-15+1277FAMM V0200301N000512200019N0060001N1+01401+01301999999ADDGA1021+003009999GA2021+024009999GF104991999999999999999999MA1101801999999MW1631OC100571REMMET058FAMM 151100Z 03001G11KT 6000 RA SCT010 SCT080 14/13 Q1018;EQDQ01+000003PRSWM1Q02    003PRSWM1
0401682420999992000011512004-25780+025530SY-MT+127799999V0209999C00001036001MN0060001N1+01401+01221999999ADDAA101002091AA224014291AY161061AY261061GA1021+003009999GA2021+024009999GF108991041051004501021999KA1120M+01891KA2120N+01291MA1101801087271MD1710011+9999ME1315119MW1601MW2631OC100771REMSYN126    AAXX  15124 68242 11456 80000 10140 20122 38727 48511 57001 60141 76066 8452/ 333 10189 20129 60025 91016 555 20142 91017;MET058FAMM 151200Z 03003G15KT 6000 RA SCT010 SCT080 14/12 Q1018;EQDQ01    003PRSWM1
0182682420999992000011513004-25780+025530FM-15+1277FAMM V0200201N006210240019N0060001N1+01401+01201999999ADDGA1021+003009999GA2071+024009999GF107991999999999999999999MA1101691999999MW1611REMMET056FAMM 151300Z 02012KT 6000 -RA FEW010 BKN080 14/12 Q1017;EQDQ01+000003PRSWM1Q02    003PRSWM1
0182682420999992000011514004-25780+025530FM-15+1277FAMM V0200101N007710240019N0060001N1+01501+01301999999ADDGA1021+004509999GA2071+024009999GF107991999999999999999999MA1101491999999MW1611REMMET056FAMM 151400Z 01015KT 6000 -RA FEW015 BKN080 15/13 Q1015;EQDQ01+000003PRSWM1Q02    003PRSWM1
0374682420999992000011515004-25780+025530SY-MT+127799999V0200101N00871030001CN0280001N1+01431+01221999999ADDAA124016891AY161031AY261031GA1021+004509999GA2071+030009999GF107991011051004501071999KA1120M+01891KA2120N+01271MA1101491087041MD1710231+9999ME1314879MW1011REMSYN114    AAXX  15154 68242 41478 70117 10143 20122 38704 48487 57023 70166 8157/ 333 10189 20127 91022 555 20168 91015;MET052FAMM 151500Z 01017KT 9999 FEW015 BKN100 15/12 Q1015;EQDQ01+000000PRSWM2Q02    003PRSWM1
0162682420999992000011516004-25780+025530FM-15+1277FAMM V0200101N007210300019N0112651N1+01401+01201999999ADDGA1021+006009999GA2071+030009999GF107991999999999999999999MA1101491999999MW1001REMMET052FAMM 151600Z 01014KT 9999 FEW020 BKN100 14/12 Q1015;EQDQ01+000000PRSWM2
0355682420999992000011518004-25780+025530SY-MT+127799999V0200101N00411036001MN0300001N1+01421+01211999999ADDAA112017092AA224016892GA1021+007509099GA2021+030009999GF106991021031008001071001KA1120M+01891KA2120N+01271MA1101491087091MD1210051+9999ME1314929MW1001REMSYN114    AAXX  15184 68242 12580 60108 10142 20121 38709 48492 52005 60172 82370 333 10189 20127 91008 555 20168 91015;MET054FAMM 151800Z 01008KT 9999 FEW025CB SCT100 14/12 Q1015;EQDQ01+000000PRSWM2
0105682420999992000011519004-25780+025530FM-15+1277FAMM V0200101N002612200019N9999999N1+01401+01201999999ADDMA1101491999999MW1001REMMET053FAMM 151900Z AUTO 01005KT //// // ////// 14/12 Q1015;EQDQ01+000000PRSWM2
0105682420999992000011521004-25780+025530FM-15+1277FAMM V0200301N001512200019N9999999N1+01301+01201999999ADDMA1101691999999MW1001REMMET053FAMM 152100Z AUTO 03003KT //// // ////// 13/12 Q1017;EQDQ01+000000PRSWM2
0105682420999992000011522004-25780+025530FM-15+1277FAMM V0200301N003112200019N9999999N1+01301+01201999999ADDMA1101691999999MW1001REMMET053FAMM 152200Z AUTO 03006KT //// // ////// 13/12 Q1017;EQDQ01+000000PRSWM2
0105682420999992000011523004-25780+025530FM-15+1277FAMM V0200201N003112200019N9999999N1+01301+01201999999ADDMA1101691999999MW1001REMMET053FAMM 152300Z AUTO 02006KT //// // ////// 13/12 Q1017;EQDQ01+000000PRSWM2
0290682420999992000011600004-25780+025530SY-MT+127799999V0200201N00311999999MN9999999N1+01271+01161999999ADDAA106017092AA224016892KA1120M+01891KA2120N+01241MA1101591087121MD1710141+9999ME1314949MW1001REMSYN108    AAXX  16004 68242 16/// /0206 10127 20116 38712 48494 57014 60171 333 10189 20124 91007 555 20168 91016;MET053FAMM 160000Z AUTO 02005KT //// // ////// 13/12 Q1016;EQDQ01+000000PRSWM2
0105682420999992000011601004-25780+025530FM-15+1277FAMM V0200101N003612200019N9999999N1+01201+01101999999ADDMA1101491999999MW1001REMMET053FAMM 160100Z AUTO 01007KT //// // ////// 12/11 Q1015;EQDQ01+000000PRSWM2
0105682420999992000011602004-25780+025530FM-15+1277FAMM V0200201N001512200019N9999999N1+01201+01101999999ADDMA1101491999999MW1001REMMET053FAMM 160200Z AUTO 02003KT //// // ////// 12/11 Q1015;EQDQ01+000000PRSWM2
