0201010980999992000010100004+70370+031100FM-12+001599999V0202301N002110240019N0550001N1-00471+99999102001ADDAA106000091AY121061AY221061GF107991041051004501071001MA1999999101811MD1210131+9999MW1021REMSYN082AAXX  01004 01098 31485 72304 11047 21046 30181 40200 52013 70222 84570 333 91108;EQDQ01  00002PRCP06
0255010980999992000010106004+70370+031100FM-12+001599999V0201701N002610042019N9999999N1-00341-00391101841ADDAA112000791AJ199991999999999AY171061AY221061GF108991081051004501999999IA1299KA1120N-00511MA1999999101651MD1710081+9999MW1431REMSYN100AAXX  01064 01098 11480 81705 11034 21039 30165 40184 57008 69902 74372 885// 333 21051 49999 91107;EQDQ01  09962SNDP  
0161010980999992000010109004+70370+031100FM-12+001599999V0202001N003610042019N0300001N1-00491-00521101811ADDAY171031AY221031GF108991081051004501999999MA1999999101621MD1710031+9999MW1021REMSYN072AAXX  01094 01098 41480 82007 11049 21052 30162 40181 57003 70272 885//;
0188010980999992000010112004+70370+031100FM-12+001599999V0202201N004610042019N0050001N1-00621-00681101751ADDAA106000791AY171061AY231061GF107991061051004501071001MA1999999101561MD1710061+9999MW1381REMSYN088AAXX  01124 01098 11450 72209 11062 21068 30156 40175 57006 69901 73873 86570 333 91113;
0161010980999992000010115004+70370+031100FM-12+001599999V0202101N007210042019N0100001N1-00601-00671101531ADDAY121031AY221031GF108991081051004501999999MA1999999101341MD1710211+9999MW1021REMSYN072AAXX  01154 01098 41460 82114 11060 21067 30134 40153 57021 70222 885//;
0220010980999992000010118004+70370+031100FM-12+001599999V0202101N005710042019N0300001N1-00581-00761101501ADDAA106000091AY121061AY221061GF108991081051004501999999KA1120M-00351MA1999999101311MD1710041+9999MW1021REMSYN088AAXX  01184 01098 31480 82111 11058 21076 30131 40150 57004 70222 885// 333 11035 91119;EQDQ01  00002PRCP06
0161010980999992000010121004+70370+031100FM-12+001599999V0202001N007210042019N0100001N1-00681-00791101301ADDAY181031AY221031GF108991081051004501999999MA1999999101111MD1710201+9999MW1361REMSYN072AAXX  01214 01098 41460 82014 11068 21079 30111 40130 57020 73682 885//;
0188010980999992000010200004+70370+031100FM-12+001599999V0202101N008710042019N0100001N1-00631-00691101061ADDAA106000791AY131061AY221061GF108991081051004501999999MA1999999100861MD1710241+9999MW1361REMSYN088AAXX  02004 01098 11460 82117 11063 21069 30086 40106 57024 69901 73632 885// 333 91123;
0161010980999992000010203004+70370+031100FM-12+001599999V0202101N010810042019N0050001N1-00521-00571100681ADDAY131031AY221031GF108991081051004501999999MA1999999100491MD1710371+9999MW1381REMSYN072AAXX  02034 01098 41450 82121 11052 21057 30049 40068 57037 73832 885//;
0255010980999992000010206004+70370+031100FM-12+001599999V0202201N009310042019N0050001N1-00531-00621100431ADDAA112000791AJ199991999999999AY131061AY221061GF108991081051004501999999IA1299KA1120N-00681MA1999999100241MD1710251+9999MW1381REMSYN100AAXX  02064 01098 11450 82218 11053 21062 30024 40043 57025 69902 73832 885// 333 21068 49999 91128;EQDQ01  09962SNDP  
0161010980999992000010209004+70370+031100FM-12+001599999V0202201N009810042019N0030001N1-00471-00571100281ADDAY131031AY221031GF108991081051004501999999MA1999999100191MD1710151+9999MW1381REMSYN072AAXX  02094 01098 41430 82219 11047 21057 30019 40028 57015 73832 885//;
0201010980999992000010212004+70370+031100FM-12+001599999V0202101N010310042019N0050001N1-00491-00561100181ADDAA106000091AY121061AY221061GF106991061051004501999999MA1999999099991MD1710101+9999MW1011REMSYN082AAXX  02124 01098 31450 62120 11049 21056 39999 40018 57010 70122 865// 333 91126;EQDQ01  00002PRCP06
0161010980999992000010215004+70370+031100FM-12+001599999V0202101N008210042019N0300001N1-00471-00551100241ADDAY121031AY221031GF108991081051004501999999MA1999999100051MD1310061+9999MW1031REMSYN072AAXX  02154 01098 41480 82116 11047 21055 30005 40024 53006 70322 885//;
0220010980999992000010218004+70370+031100FM-12+001599999V0202101N008210042019N0300001N1-00371-00461100101ADDAA106000091AY121061AY221061GF108991081051004501999999KA1120M-00351MA1999999099811MD1810141+9999MW1021REMSYN088AAXX  02184 01098 31480 82116 11037 21046 39981 40010 58014 70222 885// 333 11035 91124;EQDQ01  00002PRCP06
0161010980999992000010221004+70370+031100FM-12+001599999V0202001N007210042019N0300001N1-00271-00361100091ADDAY121031AY221031GF108991081051004501999999MA1999999099901MD1610011+9999MW1021REMSYN072AAXX  02214 01098 41480 82014 11027 21036 39990 40009 56001 70222 885//;
0201010980999992000010300004+70370+031100FM-12+001599999V0202001N005710042019N0300001N1-00291-00371100061ADDAA106000091AY121061AY221061GF108991081051004501999999MA1999999099871MD1710031+9999MW1021REMSYN082AAXX  03004 01098 31480 82011 11029 21037 39987 40006 57003 70222 885// 333 91123;EQDQ01  00002PRCP06
0161010980999992000010303004+70370+031100FM-12+001599999V0202001N005110021019N0030001N1-00201-00291099971ADDAY181031AY221031GF108991081051002501999999MA1999999099781MD1710091+9999MW1361REMSYN072AAXX  03034 01098 41330 82010 11020 21029 39978 49997 57009 73682 885//;
0255010980999992000010306004+70370+031100FM-12+001599999V0202001N006710042019N0050001N1-00121-00271099731ADDAA112000191AJ199991999999999AY121061AY221061GF108991081051004501999999IA1299KA1120N-00291MA1999999099541MD1710241+9999MW1021REMSYN100AAXX  03064 01098 11450 82013 11012 21027 39954 49973 57024 69912 70222 885// 333 21029 49999 91117;EQDQ01  09962SNDP  
0161010980999992000010309004+70370+031100FM-12+001599999V0202001N007210042019N0020001N1-00201-00301099641ADDAY171031AY231031GF108991071071004501021999MA1999999099451MD1710091+9999MW1711REMSYN072AAXX  03094 01098 41420 82014 11020 21030 39945 49964 57009 77173 8772/;
0188010980999992000010312004+70370+031100FM-12+001599999V0202101N007210042019N0100001N1-00201-00271099531ADDAA106000191AY171061AY231061GF108991061071004501021999MA1999999099341MD1710111+9999MW1381REMSYN088AAXX  03124 01098 11460 82114 11020 21027 39934 49953 57011 69921 73873 8672/ 333 91121;
0161010980999992000010315004+70370+031100FM-12+001599999V0202101N007710042019N0100001N1-00151-00221099501ADDAY171031AY231031GF108991061071004501021999MA1999999099311MD1710031+9999MW1361REMSYN072AAXX  03154 01098 41460 82115 11015 21022 39931 49950 57003 73673 8672/;
0207010980999992000010318004+70370+031100FM-12+001599999V0202101N007710042019N0200001N1-00131-00201099371ADDAA112000191AY171061AY231061GF108991081071004501999999KA1120M-00101MA1999999099181MD1710131+9999MW1361REMSYN094AAXX  03184 01098 11470 82115 11013 21020 39918 49937 57013 69922 73673 887// 333 11010 91122;
0161010980999992000010321004+70370+031100FM-12+001599999V0202201N005710042019N0200001N1-00171-00231099461ADDAY131031AY221031GF108991081071004501999999MA1999999099271MD1310091+9999MW1361REMSYN072AAXX  03214 01098 41470 82211 11017 21023 39927 49946 53009 73632 887//;
0201010980999992000010400004+70370+031100FM-12+001599999V0202101N006710042019N0550001N1-00241-00341099391ADDAA106000091AY121061AY221061GF108991081071004501999999MA1999999099201MD1710071+9999MW1021REMSYN082AAXX  04004 01098 31485 82113 11024 21034 39920 49939 57007 70222 887// 333 91119;EQDQ01  00002PRCP06
0161010980999992000010403004+70370+031100FM-12+001599999V0202101N005710042019N0550001N1-00251-00361099391ADDAY121031AY221031GF108991081071004501999999MA1999999099201MD1410001+9999MW1021REMSYN072AAXX  04034 01098 41485 82111 11025 21036 39920 49939 54000 70222 887//;
0265010980999992000010406004+70370+031100FM-12+001599999V0202001N005110075019N0550001N1-00421-00471099321ADDAA106000091AJ199991999999999AY121061AY221061GF108991081071008001999999IA1299KA1120N-00421MA1999999099131MD1810071+9999MW1021REMSYN094AAXX  04064 01098 31585 82010 11042 21047 39913 49932 58007 70222 887// 333 21042 49999 91117;EQDQ01  00002PRCP06Q02  09962SNDP  
0161010980999992000010409004+70370+031100FM-12+001599999V0202101N003610240019N0550001N1-00461-00531099261ADDAY121031AY221031GF107991031071004501071081MA1999999099071MD1710061+9999MW1021REMSYN072AAXX  04094 01098 41485 72107 11046 21053 39907 49926 57006 70222 83778;
0201010980999992000010412004+70370+031100FM-12+001599999V0202101N004110042019N0550001N1-00421-00531099211ADDAA106000091AY121061AY221061GF108991051071004501071999MA1999999099021MD1710051+9999MW1021REMSYN082AAXX  04124 01098 31485 82108 11042 21053 39902 49921 57005 70222 8577/ 333 91114;EQDQ01  00002PRCP06
0161010980999992000010415004+70370+031100FM-12+001599999V0201701N004110042019N0550001N1-00351-00481099111ADDAY121031AY221031GF108991071071004501071999MA1999999098931MD1710091+9999MW1021REMSYN072AAXX  04154 01098 41485 81708 11035 21048 39893 49911 57009 70222 8777/;
0220010980999992000010418004+70370+031100FM-12+001599999V0201701N003110042019N0550001N1-00351-00601099111ADDAA106000091AY121061AY221061GF108991051071004501071999KA1120M-00311MA1999999098931MD1010001+9999MW1021REMSYN088AAXX  04184 01098 31485 81706 11035 21060 39893 49911 50000 70222 8577/ 333 11031 91111;EQDQ01  00002PRCP06
0161010980999992000010421004+70370+031100FM-12+001599999V0202001N004110042019N0550001N1-00431-00601099131ADDAY171031AY221031GF108991071071004501021999MA1999999098951MD1310021+9999MW1711REMSYN072AAXX  04214 01098 41485 82008 11043 21060 39895 49913 53002 77172 8772/;
0188010980999992000010500004+70370+031100FM-12+001599999V0201601N003610090019N0100001N1-00391-00461099151ADDAA106000191AY181061AY271061GF108991081081004501999999MA1999999098971MD1210021+9999MW1851REMSYN088AAXX  05004 01098 11460 81607 11039 21046 39897 49915 52002 69921 78587 888// 333 91110;
0161010980999992000010503004+70370+031100FM-12+001599999V0202001N004610090019N0300001N1-00371-00441099191ADDAY181031AY221031GF108991081081004501999999MA1999999099001MD1210031+9999MW1021REMSYN072AAXX  05034 01098 41480 82009 11037 21044 39900 49919 52003 70282 888//;
0255010980999992000010506004+70370+031100FM-12+001599999V0202101N004110090019N0300001N1-00501-00671099321ADDAA112000391AJ199991999999999AY181061AY221061GF107991071081004501001001IA1299KA1120N-00531MA1999999099131MD1210131+9999MW1021REMSYN100AAXX  05064 01098 11480 72108 11050 21067 39913 49932 52013 69932 70282 87800 333 21053 49999 91111;EQDQ01  09962SNDP  
0161010980999992000010509004+70370+031100FM-12+001599999V0202001N004110042019N0550001N1-00541-00711099341ADDAY121031AY221031GF108991081071004501999999MA1999999099251MD1210121+9999MW1021REMSYN072AAXX  05094 01098 41485 82008 11054 21071 39925 49934 52012 70222 887//;
0201010980999992000010512004+70370+031100FM-12+001599999V0202201N003610042019N0550001N1-00541-00611099591ADDAA106000091AY121061AY221061GF108991081071004501999999MA1999999099401MD1210151+9999MW1021REMSYN082AAXX  05124 01098 31485 82207 11054 21061 39940 49959 52015 70222 887// 333 91111;EQDQ01  00002PRCP06
0161010980999992000010515004+70370+031100FM-12+001599999V0202101N003610240019N0750001N1-00521-00611099781ADDAY121031AY221031GF108991031051004501051999MA1999999099591MD1210191+9999MW1021REMSYN072AAXX  05154 01098 41489 82107 11052 21061 39959 49978 52019 70222 8355/;
0161010980999992000010521004+70370+031100FM-12+001599999V0202001N003610042019N0750001N1-00461-00501100011ADDAY121031AY221031GF108991051051004501051999MA1999999099821MD1210141+9999MW1021REMSYN072AAXX  05214 01098 41489 82007 11046 21050 39982 40001 52014 70222 8555/;
0161010980999992000010603004+70370+031100FM-12+001599999V0202201N003110090019N0550001N1-00391-00431100251ADDAY181031AY221031GF108991081081004501999999MA1999999100061MD1210071+9999MW1021REMSYN072AAXX  06034 01098 41485 82206 11039 21043 30006 40025 52007 70282 888//;
0255010980999992000010606004+70370+031100FM-12+001599999V0201901N003110090019N0550001N1-00351-00381100261ADDAA112000591AJ199991999999999AY181061AY221061GF108991081081004501999999IA1249KA1120N-00551MA1999999100071MD1110011+9999MW1021REMSYN100AAXX  06064 01098 11485 81906 11035 21038 30007 40026 51001 69942 70282 888// 333 21055 48999 91110;EQDQ01  09962SNDP  
0161010980999992000010609004+70370+031100FM-12+001599999V0202001N003610042019N0550001N1-00231-00271100271ADDAY121031AY221031GF108991081051004501999999MA1999999100081MD1210011+9999MW1021REMSYN072AAXX  06094 01098 41485 82007 11023 21027 30008 40027 52001 70222 885//;
0201010980999992000010612004+70370+031100FM-12+001599999V0201901N003110042019N0550001N1-00351-00401100201ADDAA106000091AY121061AY221061GF108991081051004501999999MA1999999100011MD1810071+9999MW1021REMSYN082AAXX  06124 01098 31485 81906 11035 21040 30001 40020 58007 70222 885// 333 91111;EQDQ01  00002PRCP06
0161010980999992000010615004+70370+031100FM-12+001599999V0201601N004110042019N0550001N1-00381-00421099951ADDAY131031AY221031GF108991081051004501999999MA1999999099761MD1710251+9999MW1361REMSYN072AAXX  06154 01098 41485 81608 11038 21042 39976 49995 57025 73632 885//;
0161010980999992000010621004+70370+031100FM-12+001599999V0201801N007710021019N0004001N1-00391-00401099281ADDAY171031AY231031GF108991081071002501999999MA1999999099091MD1710311+9999MW1721REMSYN072AAXX  06214 01098 41304 81815 11039 21040 39909 49928 57031 77273 887//;
0188010980999992000010700004+70370+031100FM-12+001599999V0201701N006710240019N0002001N1-00361-00391098991ADDAA106008991AY171061AY231061GF108991031071002501021999MA1999999098811MD1710291+9999MW1751REMSYN088AAXX  07004 01098 11302 81713 11036 21039 39881 49899 57029 60091 77573 8372/ 333 91119;
0161010980999992000010703004+70370+031100FM-12+001599999V0201701N005110240019N0032001N1-00311-00341098761ADDAY171031AY231031GF108991031071004501021999MA1999999098581MD1710231+9999MW1731REMSYN072AAXX  07034 01098 41432 81710 11031 21034 39858 49876 57023 77373 8372/;
0255010980999992000010706004+70370+031100FM-12+001599999V0201801N004610042019N0750001N1-00241-00271098571ADDAA112005191AJ199991999999999AY171061AY231061GF108991051071004501021999IA1299KA1120N-00401MA1999999098391MD1710191+9999MW1021REMSYN100AAXX  07064 01098 11489 81809 11024 21027 39839 49857 57019 60052 70273 8572/ 333 21040 49999 91117;EQDQ01  09962SNDP  
0161010980999992000010709004+70370+031100FM-12+001599999V0201801N004610042019N0080001N1-00121-00151098481ADDAY171031AY231031GF108991071071004501021999MA1999999098301MD1610091+9999MW1701REMSYN072AAXX  07094 01098 41458 81809 11012 21015 39830 49848 56009 77073 8772/;
0188010980999992000010712004+70370+031100FM-12+001599999V0201901N003110042019N0050001N1-00061-00091098441ADDAA106000191AY171061AY231061GF108991071071004501021999MA1999999098261MD1610041+9999MW1161REMSYN088AAXX  07124 01098 11450 81906 11006 21009 39826 49844 56004 69911 71673 8772/ 333 91111;
0161010980999992000010715004+70370+031100FM-12+001599999V0201901N002610042019N0750001N1+00011+00001098441ADDAY121031AY221031GF108991081051004501999999MA1999999098261MD1410001+9999MW1011REMSYN072AAXX  07154 01098 41489 81905 10001 20000 39826 49844 54000 70122 885//;
0207010980999992000010718004+70370+031100FM-12+001599999V0202101N003110042019N0750001N1+00071+00051098441ADDAA112000391AY181061AY221061GF108991081051004501999999KA1120M+00111MA1999999098261MD1410001+9999MW1011REMSYN094AAXX  07184 01098 11489 82106 10007 20005 39826 49844 54000 69932 70182 885// 333 10011 91108;
0161010980999992000010721004+70370+031100FM-12+001599999V0202101N003610075019N0750001N1+00111+00091098481ADDAY121031AY211031GF106991061011008001001001MA1999999098301MD1310041+9999MW1011REMSYN072AAXX  07214 01098 41589 62107 10011 20009 39830 49848 53004 70121 86100;
0201010980999992000010800004+70370+031100FM-12+001599999V0201901N004110042019N0550001N1+00191+00161098441ADDAA106000091AY121061AY221061GF108991081051004501999999MA1999999098261MD1710041+9999MW1021REMSYN082AAXX  08004 01098 31485 81908 10019 20016 39826 49844 57004 70222 885// 333 91110;EQDQ01  00002PRCP06
0161010980999992000010803004+70370+031100FM-12+001599999V0202001N004610042019N0550001N1+00171+99999098331ADDAY121031AY221031GF108991081051004501999999MA1999999098151MD1710111+9999MW1021REMSYN072AAXX  08034 01098 41485 82009 10017 20020 39815 49833 57011 70222 885//;
0265010980999992000010806004+70370+031100FM-12+001599999V0201901N004610042019N0550001N1+00201+00021098131ADDAA106000091AJ199991999999999AY121061AY221061GF108991081051004501999999IA1299KA1120N+00041MA1999999097951MD1710201+9999MW1021REMSYN094AAXX  08064 01098 31485 81909 10020 20002 39795 49813 57020 70222 885// 333 20004 49999 91112;EQDQ01  00002PRCP06Q02  09962SNDP  
0161010980999992000010809004+70370+031100FM-12+001599999V0201901N005110042019N0750001N1+00121-00041098021ADDAY121031AY221031GF106991061031004501001001MA1999999097841MD1710111+9999MW1011REMSYN072AAXX  08094 01098 41489 61910 10012 21004 39784 49802 57011 70122 86300;
0198010980999992000010812004+70370+031100FM-12+001599999V0201601N004610003019N0002001N1+00041+00001097631ADDAA106000891AY181061AY221061GA1091+999999999GF109991091999999999999999MA1999999097461MD1810391+9999MW1841REMSYN082AAXX  08124 01098 11/02 91609 10004 20000 39746 49763 58039 69971 78482 333 91114;
0161010980999992000010815004+70370+031100FM-12+001599999V0201601N004610042019N0007001N1-00011-00041097171ADDAY171031AY231031GF108991081051004501999999MA1999999096991MD1710461+9999MW1731REMSYN072AAXX  08154 01098 41407 81609 11001 21004 39699 49717 57046 77373 885//;
0207010980999992000010818004+70370+031100FM-12+001599999V0201801N004110042019N0025001N1+00041+00011096801ADDAA112006191AY171061AY231061GF108991081071004501999999KA1120M+00211MA1999999096631MD1710371+9999MW1711REMSYN094AAXX  08184 01098 11425 81808 10004 20001 39663 49680 57037 60062 77173 887// 333 10021 91114;
0161010980999992000010821004+70370+031100FM-12+001599999V0202301N002610042019N0550001N1+00081+00031096701ADDAY171031AY221031GF108991081071004501999999MA1999999096531MD1110101+9999MW1021REMSYN072AAXX  08214 01098 41485 82305 10008 20003 39653 49670 51010 70272 887//;
0188010980999992000010900004+70370+031100FM-12+001599999V0202201N004610042019N0750001N1+00031-00041096721ADDAA106001091AY181061AY231061GF106991061051004501001001MA1999999096541MD1110021+9999MW1011REMSYN088AAXX  09004 01098 11489 62209 10003 21004 39654 49672 51002 60011 70183 86500 333 91111;
0171010980999992000010903004+70370+031100FM-12+001599999V0202201N005712200019N0750001N1-00131-00261096761ADDAY101031AY201031GA1001+999999999GF100991001001999999001001MA1999999096581MD1210041+9999MW1011REMSYN066AAXX  09034 01098 41989 02211 11013 21026 39658 49676 52004 70100;
0161010980999992000010909004+70370+031100FM-12+001599999V0202301N005110240019N0750001N1-00181-00281097061ADDAY121031AY221031GF106991011081004501051001MA1999999096881MD1210151+9999MW1021REMSYN072AAXX  09094 01098 41489 62310 11018 21028 39688 49706 52015 70222 81850;
0201010980999992000010912004+70370+031100FM-12+001599999V0202301N004610210019N0750001N1-00121-00251097271ADDAA106000091AY121061AY221061GF106991051001022501071091MA1999999097091MD1210211+9999MW1021REMSYN082AAXX  09124 01098 31889 62309 11012 21025 39709 49727 52021 70222 85079 333 91113;EQDQ01  00002PRCP06
0161010980999992000010915004+70370+031100FM-12+001599999V0202801N002610240019N0750001N1+00211-00031097581ADDAY121031AY221031GF106991031051004501071001MA1999999097411MD1310321+9999MW1021REMSYN072AAXX  09154 01098 41489 62805 10021 21003 39741 49758 53032 70222 83570;
0220010980999992000010918004+70370+031100FM-12+001599999V0202701N004610240019N0750001N1+00181+00031097771ADDAA106000091AY121061AY221061GF106991031051004501071001KA1120M+00301MA1999999097601MD1110191+9999MW1021REMSYN088AAXX  09184 01098 31489 62709 10018 20003 39760 49777 51019 70222 83570 333 10030 91113;EQDQ01  00002PRCP06
0161010980999992000010921004+70370+031100FM-12+001599999V0202401N004610240019N0750001N1+00231+00161098021ADDAY121031AY221031GF106991031051004501071001MA1999999097851MD1210251+9999MW1021REMSYN072AAXX  09214 01098 41489 62409 10023 20016 39785 49802 52025 70222 83570;
0201010980999992000011000004+70370+031100FM-12+001599999V0202401N005110240019N0750001N1-00211+99999098301ADDAA106000091AY121061AY221061GF106991031051004501071001MA1999999098121MD1210281+9999MW1021REMSYN082AAXX  10004 01098 31489 62410 11021 21005 39812 49830 52028 70222 83570 333 91114;EQDQ01  00002PRCP06
0161010980999992000011003004+70370+031100FM-12+001599999V0202801N004112200019N0750001N1-00091+99999098561ADDAY101031AY201031GF104991021051004501071001MA1999999098381MD1210261+9999MW1021REMSYN072AAXX  10034 01098 41489 42808 11009 20015 39838 49856 52026 70200 82570;
0246010980999992000011006004+70370+031100FM-12+001599999V0202901N005710042019N0750001N1+00121-00091098721ADDAA106000091AJ199991999999999AY121061AY221061GF107991071051004501999999IA1299MA1999999098541MD1110161+9999MW1021REMSYN088AAXX  10064 01098 31489 72911 10012 21009 39854 49872 51016 70222 875// 333 49999 91114;EQDQ01  00002PRCP06Q02  09962SNDP  
0161010980999992000011009004+70370+031100FM-12+001599999V0203001N006710042019N0550001N1+00131-00051099091ADDAY121031AY221031GF107991071051004501001001MA1999999098911MD1310371+9999MW1021REMSYN072AAXX  10094 01098 41485 73013 10013 21005 39891 49909 53037 70222 87500;
0188010980999992000011012004+70370+031100FM-12+001599999V0203101N006710042019N0550001N1+00101+00031099481ADDAA106000191AY181061AY221061GF107991071051004501001001MA1999999099301MD1210391+9999MW1021REMSYN088AAXX  10124 01098 11485 73113 10010 20003 39930 49948 52039 69921 70282 87500 333 91122;
0161010980999992000011015004+70370+031100FM-12+001599999V0203301N005110240019N0750001N1+00121-00331099851ADDAY121031AY221031GF107991031081004501051001MA1999999099671MD1210371+9999MW1021REMSYN072AAXX  10154 01098 41489 73310 10012 21033 39967 49985 52037 70222 83850;
0207010980999992000011018004+70370+031100FM-12+001599999V0203601N001510042019N0750001N1+00071-00391100151ADDAA112000191AY121061AY221061GF107991071051004501001001KA1120M+00221MA1999999099971MD1210301+9999MW1021REMSYN094AAXX  10184 01098 11489 73603 10007 21039 39997 40015 52030 69922 70222 87500 333 10022 91116;
0161010980999992000011021004+70370+031100FM-12+001599999V0202601N000510240019N0750001N1+00001-00301100291ADDAY121031AY221031GF107991021051004501051001MA1999999100111MD1210141+9999MW1021REMSYN072AAXX  10214 01098 41489 72601 10000 21030 30011 40029 52014 70222 82550;
0201010980999992000011100004+70370+031100FM-12+001599999V0201701N002110042019N0750001N1+00071-00251100291ADDAA106000091AY121061AY221061GF107991071051004501001001MA1999999100111MD1410001+9999MW1021REMSYN082AAXX  11004 01098 31489 71704 10007 21025 30011 40029 54000 70222 87500 333 91106;EQDQ01  00002PRCP06
0161010980999992000011103004+70370+031100FM-12+001599999V0202201N003112200019N0750001N1-00261-00311100271ADDAY121031AY201031GF104991041051004501001001MA1999999100081MD1710031+9999MW1011REMSYN072AAXX  11034 01098 41489 42206 11026 21031 30008 40027 57003 70120 84500;
0246010980999992000011106004+70370+031100FM-12+001599999V0201701N003110240019N0750001N1-00041-00181100091ADDAA106000091AJ199991999999999AY121061AY201061GF106991041051002501071001IA1299MA1999999099901MD1810181+9999MW1031REMSYN088AAXX  11064 01098 31389 61706 11004 21018 39990 40009 58018 70320 84570 333 49999 91109;EQDQ01  00002PRCP06Q02  09962SNDP  
0161010980999992000011109004+70370+031100FM-12+001599999V0201801N005110090019N0020001N1-00081-00141099881ADDAY181031AY221031GF108991081081004501999999MA1999999099691MD1710211+9999MW1851REMSYN072AAXX  11094 01098 41420 81810 11008 21014 39969 49988 57021 78582 888//;
0188010980999992000011112004+70370+031100FM-12+001599999V0202101N003110090019N0300001N1-00221-00271099771ADDAA106001091AY181061AY231061GF108991081081004501999999MA1999999099581MD1610111+9999MW1021REMSYN088AAXX  11124 01098 11480 82106 11022 21027 39958 49977 56011 60011 70283 888// 333 91112;
0161010980999992000011115004+70370+031100FM-12+001599999V0202201N002610090019N0200001N1-00291-00331099761ADDAY181031AY221031GF108991081081004501999999MA1999999099571MD1610011+9999MW1851REMSYN072AAXX  11154 01098 41470 82205 11029 21033 39957 49976 56001 78582 888//;
0207010980999992000011118004+70370+031100FM-12+001599999V0202501N000510042019N0750001N1-00091-00161099771ADDAA112001091AY181061AY221061GF106991061051004501001001KA1120M-00011MA1999999099581MD1310011+9999MW1011REMSYN094AAXX  11184 01098 11489 62501 11009 21016 39958 49977 53001 60012 70182 86500 333 11001 91111;
0171010980999992000011121004+70370+031100FM-12+001599999V0202401N004112200019N0750001N1-00181-00241099761ADDAY111031AY201031GA1001+999999999GF100991001001999999001001MA1999999099571MD1810011+9999MW1011REMSYN066AAXX  11214 01098 41989 02408 11018 21024 39957 49976 58001 70110;
0201010980999992000011200004+70370+031100FM-12+001599999V0202401N004110240019N0750001N1-00161-00201099761ADDAA106000091AY121061AY221061GF108991031051004501051999MA1999999099571MD1410001+9999MW1021REMSYN082AAXX  12004 01098 31489 82408 11016 21020 39957 49976 54000 70222 8355/ 333 91114;EQDQ01  00002PRCP06
0161010980999992000011203004+70370+031100FM-12+001599999V0202301N004610240019N0750001N1-00261-00311099701ADDAY121031AY221031GF108991011051004501071999MA1999999099511MD1710061+9999MW1021REMSYN072AAXX  12034 01098 41489 82309 11026 21031 39951 49970 57006 70222 8157/;
0246010980999992000011206004+70370+031100FM-12+001599999V0202301N004610240019N0750001N1-00421-00561099721ADDAA106000091AJ199991999999999AY121061AY221061GF106991011081004501071001IA1299MA1999999099531MD1310021+9999MW1021REMSYN088AAXX  12064 01098 31489 62309 11042 21056 39953 49972 53002 70222 81870 333 49999 91115;EQDQ01  00002PRCP06Q02  09962SNDP  
0161010980999992000011209004+70370+031100FM-12+001599999V0202201N003612200019N0550001N1-00361-00511099751ADDAY121031AY221031GF103991011081004501041051MA1999999099561MD1210031+9999MW1021REMSYN072AAXX  12094 01098 41485 32207 11036 21051 39956 49975 52003 70222 81845;
0201010980999992000011212004+70370+031100FM-12+001599999V0202501N003110240019N0550001N1-00181-00281099801ADDAA106000091AY121061AY221061GF106991031081004501041051MA1999999099611MD1210051+9999MW1021REMSYN082AAXX  12124 01098 31485 62506 11018 21028 39961 49980 52005 70222 83845 333 91116;EQDQ01  00002PRCP06
0161010980999992000011215004+70370+031100FM-12+001599999V0202401N004110600019N0300001N1-00281-00321099771ADDAY181031AY221031GF106991041081004501001051MA1999999099581MD1810031+9999MW1261REMSYN072AAXX  12154 01098 41480 62408 11028 21032 39958 49977 58003 72682 84805;
0207010980999992000011218004+70370+031100FM-12+001599999V0202201N003612200019N0550001N1-00441-00541099701ADDAA112000191AY181061AY221061GF104991041081004501001001KA1120M-00041MA1999999099511MD1710071+9999MW1011REMSYN094AAXX  12184 01098 11485 42207 11044 21054 39951 49970 57007 69912 70182 84800 333 11004 91114;
0161010980999992000011221004+70370+031100FM-12+001599999V0202401N003112200019N0550001N1-00251-00511099701ADDAY121031AY221031GF104991041081004501001001MA1999999099511MD1410001+9999MW1021REMSYN072AAXX  12214 01098 41485 42406 11025 21051 39951 49970 54000 70222 84800;
0201010980999992000011300004+70370+031100FM-12+001599999V0202101N001019999999N0750001N1-00201-00361099701ADDAA106000091AY121061AY221061GF106991061001012501051001MA1999999099511MD1410001+9999MW1021REMSYN082AAXX  13004 01098 31689 62102 11020 21036 39951 49970 54000 70222 86050 333 91107;EQDQ01  00002PRCP06
0161010980999992000011303004+70370+031100FM-12+001599999V0202801N000512200019N0750001N1-00201-00431099701ADDAY121031AY221031GF104991041001012501051001MA1999999099511MD1410001+9999MW1021REMSYN072AAXX  13034 01098 41689 42801 11020 21043 39951 49970 54000 70222 84050;
0246010980999992000011306004+70370+031100FM-12+001599999V0202401N004112200019N0750001N1-00381-00671099761ADDAA106000091AJ199991999999999AY121061AY221061GF104991041001012501051001IA1299MA1999999099571MD1310061+9999MW1021REMSYN088AAXX  13064 01098 31689 42408 11038 21067 39957 49976 53006 70222 84050 333 49999 91110;EQDQ01  00002PRCP06Q02  09962SNDP  
0161010980999992000011309004+70370+031100FM-12+001599999V0202901N004610240019N0300001N1+00011-00061099851ADDAY181031AY221031GF106991041081004501041081MA1999999099671MD1210101+9999MW1261REMSYN072AAXX  13094 01098 41480 62909 10001 21006 39967 49985 52010 72682 84848;
0188010980999992000011312004+70370+031100FM-12+001599999V0202801N004610240019N0300001N1-00041-00181100031ADDAA106000391AY181061AY221061GF106991021081004501041081MA1999999099841MD1210171+9999MW1261REMSYN088AAXX  13124 01098 11480 62809 11004 21018 39984 40003 52017 69931 72682 82848 333 91111;
0161010980999992000011315004+70370+031100FM-12+001599999V0202901N004610240019N0550001N1-00121-00221100121ADDAY121031AY221031GF106991011081004501051001MA1999999099931MD1210091+9999MW1011REMSYN072AAXX  13154 01098 41485 62909 11012 21022 39993 40012 52009 70122 81850;
0207010980999992000011318004+70370+031100FM-12+001599999V0202701N003112200019N0750001N1-00181-00281100301ADDAA112000591AY181061AY201061GF102991021001012501051001KA1120M+00101MA1999999100111MD1310181+9999MW1011REMSYN094AAXX  13184 01098 11689 22706 11018 21028 30011 40030 53018 69942 70180 82050 333 10010 91113;
0165010980999992000011321004+70370+031100FM-12+001599999V0202701N004112200019N0750001N1-00201-00301100431ADDAY111031AY201031GF104991041001012501051001MA1999999100261MD1110131+9999MW1021REMSYN076    AAXX  13214 01098 41689 42708 11020 21030 30026 40043 51013 70210 84050;
0186010980999992000011400004+70370+031100FM-12+001599999V0202701N002119999999N0750001N1-00191-00321100561ADDAA199000021AY121061AY211061GF108991081001012501051001MA1999999100371MD1210131+9999MW1031REMSYN086    AAXX  14004 01098 31689 82704 11019 21032 30037 40056 52013 70321 88050 333 91110;
0165010980999992000011403004+70370+031100FM-12+001599999V0202801N003619999999N0750001N1-00121-00351100641ADDAY121031AY221031GF108991081001012501051001MA1999999100451MD1210081+9999MW1021REMSYN076    AAXX  14034 01098 41689 82807 11012 21035 30045 40064 52008 70222 88050;
0250010980999992000011406004+70370+031100FM-12+001599999V0202601N002612200019N0750001N1-00411-00581100711ADDAA199000091AJ199991999999999AY121061AY221061GF104991041001012501051001IA1299MA1999999100521MD1210071+9999MW1011REMSYN092    AAXX  14064 01098 31689 42605 11041 21058 30052 40071 52007 70122 84050 333 49999 91110;EQDQ01  00002PRCP99Q02  09962SNDP  
0165010980999992000011409004+70370+031100FM-12+001599999V0202801N004112200019N0750001N1-00411-00521100681ADDAY121031AY211031GF104991011081004501041081MA1999999100491MD1810031+9999MW1021REMSYN076    AAXX  14094 01098 41489 42808 11041 21052 30049 40068 58003 70221 81848;
0205010980999992000011412004+70370+031100FM-12+001599999V0202401N005110240019N0750001N1-00481-00631100651ADDAA199000091AY131061AY211061GF106991031081004501041081MA1999999100461MD1710031+9999MW1361REMSYN086    AAXX  14124 01098 31489 62410 11048 21063 30046 40065 57003 73631 83848 333 91112;EQDQ01  00002PRCP99
0165010980999992000011415004+70370+031100FM-12+001599999V0202301N005710240019N0750001N1-00401-00581100541ADDAY131031AY221031GF107991011081004501071001MA1999999100351MD1810111+9999MW1361REMSYN076    AAXX  14154 01098 41489 72311 11040 21058 30035 40054 58011 73632 81870;
0224010980999992000011418004+70370+031100FM-12+001599999V0202201N005710210019N0750001N1-00481-00531100301ADDAA199000091AY131061AY221061GF107991071001022501071001KA1120M-00271MA1999999100111MD1710241+9999MW1361REMSYN092    AAXX  14184 01098 31889 72211 11048 21053 30011 40030 57024 73632 87070 333 11027 91114;EQDQ01  00002PRCP99
0165010980999992000011421004+70370+031100FM-12+001599999V0202301N004610210019N0750001N1-00491-00541100091ADDAY131031AY221031GF108991081001022501071999MA1999999099901MD1710211+9999MW1031REMSYN076    AAXX  14214 01098 41889 82309 11049 21054 39990 40009 57021 70332 8807/;
0215010980999992000011500004+70370+031100FM-12+001599999V0202501N003612200019N0750001N1-00381-00421099971ADDAA199000091AY101061AY201061GA1001+999999999GF100991001001999999001001MA1999999099781MD1710121+9999MW1011REMSYN080    AAXX  15004 01098 31989 02507 11038 21042 39978 49997 57012 70100 333 91114;EQDQ01  00002PRCP99
0175010980999992000011503004+70370+031100FM-12+001599999V0202901N004112200019N0750001N1-00081-00151099951ADDAY101031AY201031GA1001+999999999GF100991001001999999001001MA1999999099761MD1610021+9999MW1011REMSYN070    AAXX  15034 01098 41989 02908 11008 21015 39976 49995 56002 70100;
0260010980999992000011506004+70370+031100FM-12+001599999V0202901N004612200019N0750001N1-00151-00221099991ADDAA199000091AJ199991999999999AY101061AY201061GA1001+999999999GF100991001001999999001001IA1299MA1999999099801MD1310041+9999MW1011REMSYN086    AAXX  15064 01098 31989 02909 11015 21022 39980 49999 53004 70100 333 49999 91113;EQDQ01  00002PRCP99Q02  09962SNDP  
0165010980999992000011509004+70370+031100FM-12+001599999V0203101N004612200019N0750001N1-00081-00221100071ADDAY181031AY231031GF103991021091004501071001MA1999999099881MD1110081+9999MW1031REMSYN076    AAXX  15094 01098 41489 33109 11008 21022 39988 40007 51008 70383 82970;
0192010980999992000011512004+70370+031100FM-12+001599999V0203401N004110090019N0600001N1+00071-00251100161ADDAA106002091AY181061AY231061GF107991061081004501071001MA1999999099981MD1210101+9999MW1851REMSYN092    AAXX  15124 01098 11486 73408 10007 21025 39998 40016 52010 60021 78583 86870 333 91117;
0165010980999992000011515004+70370+031100FM-12+001599999V0203301N005710090019N0600001N1+00031-00161100261ADDAY181031AY231031GF105991051081004501001001MA1999999100081MD1210101+9999MW1361REMSYN076    AAXX  15154 01098 41486 53311 10003 21016 30008 40026 52010 73683 85800;
0211010980999992000011518004+70370+031100FM-12+001599999V0203401N004110090019N0600001N1+00101-00241100421ADDAA112003091AY181061AY231061GF105991051081004501001001KA1120M+00101MA1999999100241MD1210161+9999MW1361REMSYN098    AAXX  15184 01098 11486 53408 10010 21024 30024 40042 52016 60032 73683 85800 333 10010 91115;
0165010980999992000011521004+70370+031100FM-12+001599999V0203401N003610090019N0600001N1+00051-00201100591ADDAY131031AY221031GF106991061081004501001001MA1999999100411MD1210171+9999MW1031REMSYN076    AAXX  15214 01098 41486 63407 10005 21020 30041 40059 52017 70332 86800;
0192010980999992000011600004+70370+031100FM-12+001599999V0203101N001512200019N0750001N1-00131-00261100501ADDAA106000191AY181061AY231061GF102991021081004501001001MA1999999100311MD1810101+9999MW1011REMSYN092    AAXX  16004 01098 11489 23103 11013 21026 30031 40050 58010 69911 70183 82800 333 91116;
0175010980999992000011603004+70370+031100FM-12+001599999V0202501N002612200019N0750001N1-00401-00581100291ADDAY101031AY201031GA1001+999999999GF100991001001999999001001MA1999999100101MD1710211+9999MW1011REMSYN070    AAXX  16034 01098 41989 02505 11040 21058 30010 40029 57021 70100;
0240010980999992000011606004+70370+031100FM-12+001599999V0202301N002612200019N0750001N1-00421-00471099841ADDAA112000191AJ199991999999999AY101061AY201061GF103991031081004501001001IA1299MA1999999099651MD1710451+9999MW1031REMSYN098    AAXX  16064 01098 11489 32305 11042 21047 39965 49984 57045 69912 70300 83800 333 49999 91109;EQDQ01  09962SNDP  
0165010980999992000011609004+70370+031100FM-12+001599999V0201901N004610240019N0750001N1-00201-00271099151ADDAY121031AY201031GF106991031081004501021001MA1999999098961MD1710691+9999MW1031REMSYN076    AAXX  16094 01098 41489 61909 11020 21027 39896 49915 57069 70320 83820;
0205010980999992000011612004+70370+031100FM-12+001599999V0201801N005710240019N0100001N1-00301-00371098551ADDAA199000091AY181061AY231061GF108991031081004501021999MA1999999098371MD1710591+9999MW1361REMSYN086    AAXX  16124 01098 31460 81811 11030 21037 39837 49855 57059 73683 8382/ 333 91115;EQDQ01  00002PRCP99
0165010980999992000011615004+70370+031100FM-12+001599999V0201601N006210042019N0035001N1-00221-00261098011ADDAY171031AY231031GF108991051071004501021999MA1999999097831MD1710541+9999MW1731REMSYN076    AAXX  16154 01098 41435 81612 11022 21026 39783 49801 57054 77373 8572/;
0211010980999992000011618004+70370+031100FM-12+001599999V0201701N005110042019N0035001N1-00301-00341097851ADDAA112001091AY171061AY231061GF108991071071004501021999KA1120M-00161MA1999999097671MD1710161+9999MW1731REMSYN098    AAXX  16184 01098 11435 81710 11030 21034 39767 49785 57016 60012 77373 8772/ 333 11016 91116;
0165010980999992000011621004+70370+031100FM-12+001599999V0201701N004110240019N0035001N1-00341-00391097751ADDAY171031AY221031GF108991041071004501021999MA1999999097571MD1710101+9999MW1711REMSYN076    AAXX  16214 01098 41435 81708 11034 21039 39757 49775 57010 77172 8472/;
0192010980999992000011700004+70370+031100FM-12+001599999V0201401N003110240019N0600001N1-00301-00371097861ADDAA106000891AY171061AY221061GF108991041081004501021999MA1999999097691MD1310121+9999MW1021REMSYN092    AAXX  17004 01098 11486 81406 11030 21037 39769 49786 53012 69981 70272 8482/ 333 91112;
0165010980999992000011703004+70370+031100FM-12+001599999V0201401N003110240019N0100001N1-00201-00271097991ADDAY171031AY221031GF108991041071004501021999MA1999999097821MD1210131+9999MW1701REMSYN076    AAXX  17034 01098 41460 81406 11020 21027 39782 49799 52013 77072 8472/;
0240010980999992000011706004+70370+031100FM-12+001599999V0201201N004110240019N0600001N1-00051-00111098251ADDAA112001091AJ199991999999999AY171061AY221061GF108991041081004501021999IA1299MA1999999098081MD1210261+9999MW1021REMSYN098    AAXX  17064 01098 11486 81208 11005 21011 39808 49825 52026 60012 70272 8482/ 333 49999 91113;EQDQ01  09962SNDP  
0165010980999992000011709004+70370+031100FM-12+001599999V0201201N003110042019N0300001N1-00051-00121098581ADDAY171031AY221031GF108991071071004501021999MA1999999098401MD1210321+9999MW1221REMSYN076    AAXX  17094 01098 41480 81206 11005 21012 39840 49858 52032 72272 8772/;
0192010980999992000011712004+70370+031100FM-12+001599999V0201201N002610090019N0550001N1-00061-00221098901ADDAA106000191AY171061AY221061GF105991051081004501001001MA1999999098721MD1210321+9999MW1021REMSYN092    AAXX  17124 01098 11485 51205 11006 21022 39872 49890 52032 69911 70272 85800 333 91112;
0165010980999992000011715004+70370+031100FM-12+001599999V0200901N003610090019N0300001N1-00041-00311099271ADDAY181031AY221031GF106991061081004501001001MA1999999099081MD1210371+9999MW1871REMSYN076    AAXX  17154 01098 41480 60907 11004 21031 39908 49927 52037 78782 86800;
0211010980999992000011718004+70370+031100FM-12+001599999V0200701N003610240019N0750001N1-00081-00691099521ADDAA112001091AY181061AY221061GF105991021081004501051001KA1120M+00031MA1999999099331MD1210251+9999MW1861REMSYN098    AAXX  17184 01098 11489 50707 11008 21069 39933 49952 52025 60012 78682 82850 333 10003 91114;
0165010980999992000011721004+70370+031100FM-12+001599999V0200601N003610240019N0100001N1-00251-00441099781ADDAY171031AY221031GF106991031091001501051001MA1999999099591MD1210261+9999MW1861REMSYN076    AAXX  17214 01098 41260 60607 11025 21044 39959 49978 52026 78672 83950;
0192010980999992000011800004+70370+031100FM-12+001599999V0200301N001510240019N0300001N1-00241-00401099911ADDAA106000191AY181061AY231061GF106991041091004501061001MA1999999099721MD1210131+9999MW1261REMSYN092    AAXX  18004 01098 11480 60303 11024 21040 39972 49991 52013 69911 72683 84960 333 91109;
0174010980999992000011803004+70370+031100FM-12+001599999V0200501N001512200019N0750001N1-00181-00561999999ADDAY181031AY211031GF102991021021004501001001MA1999999099891MD1210171+9999ME1100089MW1011REMSYN076    AAXX  18034 01098 41489 20503 11018 21056 39989 41008 52017 70181 82200;
0259010980999992000011806004+70370+031100FM-12+001599999V0200601N001012200019N0750001N1-00241-00641100211ADDAA112000391AJ199991999999999AY181061AY211061GF103991021091004501061001IA1249KA1120N-00291MA1999999100021MD1210131+9999MW1021REMSYN104    AAXX  18064 01098 11489 30602 11024 21064 30002 40021 52013 69932 70281 82960 333 21029 48999 91109;EQDQ01  09962SNDP  
0165010980999992000011809004+70370+031100FM-12+001599999V0203501N001010090019N0300001N1-00221-00621100331ADDAY181031AY221031GF107991051081004501061081MA1999999100141MD1210121+9999MW1151REMSYN076    AAXX  18094 01098 41480 73502 11022 21062 30014 40033 52012 71582 85868;
0192010980999992000011812004+70370+031100FM-12+001599999V0202901N002110090019N0550001N1-00271-00381100341ADDAA106000191AY181061AY221061GF107991071081004501061001MA1999999100151MD1110011+9999MW1021REMSYN092    AAXX  18124 01098 11485 72904 11027 21038 30015 40034 51001 69911 70282 87860 333 91109;
0165010980999992000011815004+70370+031100FM-12+001599999V0202501N001510090019N0550001N1-00321-00391100341ADDAY121031AY221031GF106991051081004501071001MA1999999100151MD1410001+9999MW1021REMSYN076    AAXX  18154 01098 41485 62503 11032 21039 30015 40034 54000 70222 85870;
0211010980999992000011818004+70370+031100FM-12+001599999V0202301N002610240019N0550001N1-00381-00551100301ADDAA112000191AY121061AY221061GF105991031081004501071001KA1120M-00191MA1999999100111MD1810041+9999MW1021REMSYN098    AAXX  18184 01098 11485 52305 11038 21055 30011 40030 58004 69912 70222 83870 333 11019 91105;
0165010980999992000011821004+70370+031100FM-12+001599999V0202701N003110090019N0300001N1-00241-00281100171ADDAY181031AY221031GF108991081081004501999999MA1999999099981MD1710131+9999MW1851REMSYN076    AAXX  18214 01098 41480 82706 11024 21028 39998 40017 57013 78582 888//;
0192010980999992000011900004+70370+031100FM-12+001599999V0203501N003610240019N0300001N1-00151-00481100141ADDAA106000591AY181061AY221061GF107991031081004501051001MA1999999099951MD1710031+9999MW1361REMSYN092    AAXX  19004 01098 11480 73507 11015 21048 39995 40014 57003 69951 73682 83850 333 91112;
0165010980999992000011903004+70370+031100FM-12+001599999V0203301N004110060019N0050001N1-00261-00511100161ADDAY181031AY221031GF108991081081001501999999MA1999999099971MD1310021+9999MW1861REMSYN076    AAXX  19034 01098 41250 83308 11026 21051 39997 40016 53002 78682 888//;
0259010980999992000011906004+70370+031100FM-12+001599999V0203301N003112200019N0300001N1-00381-00811100151ADDAA112001091AJ199991999999999AY181061AY221061GF104991041081004501001001IA1299KA1120N-00441MA1999999099961MD1810011+9999MW1011REMSYN104    AAXX  19064 01098 11480 43306 11038 21081 39996 40015 58001 60012 70182 84800 333 21044 49999 91113;EQDQ01  09962SNDP  
0165010980999992000011909004+70370+031100FM-12+001599999V0202901N003110600019N0550001N1-00551-00611100141ADDAY181031AY221031GF105991021081004501061081MA1999999099951MD1710011+9999MW1021REMSYN076    AAXX  19094 01098 41485 52906 11055 21061 39995 40014 57001 70282 82868;
0192010980999992000011912004+70370+031100FM-12+001599999V0202901N003112200019N0750001N1-00591-00791100101ADDAA106000391AY181061AY221061GF104991031081004501061091MA1999999099911MD1710041+9999MW1021REMSYN092    AAXX  19124 01098 11489 42906 11059 21079 39991 40010 57004 69931 70282 83869 333 91113;
0165010980999992000011915004+70370+031100FM-12+001599999V0202701N002112200019N0750001N1-00481-00661100031ADDAY121031AY211031GF104991031081004501061091MA1999999099841MD1710071+9999MW1021REMSYN076    AAXX  19154 01098 41489 42704 11048 21066 39984 40003 57007 70221 83869;
0207010980999992000011918004+70370+031100FM-12+001599999V0202701N002112200019N0750001N1-00491-00721099911ADDAA112000391AY121061AY211061GF103991021081004501061091KA1120M-00331MA1999999099721MD1710121+9999MW1021REMSYN094AAXX  19184 01098 11489 32704 11049 21072 39972 49991 57012 69932 70221 82869 333 11033 91108;
0161010980999992000011921004+70370+031100FM-12+001599999V0202401N003112200019N0750001N1-00641-00981099781ADDAY111031AY211031GF103991011081004501061091MA1999999099591MD1710131+9999MW1011REMSYN072AAXX  19214 01098 41489 32406 11064 21098 39959 49978 57013 70111 81869;
0201010980999992000012000004+70370+031100FM-12+001599999V0202201N001512200019N0750001N1-00771-00861099761ADDAA199000091AY111061AY211061GF103991011081004501071001MA1999999099571MD1710021+9999MW1021REMSYN082AAXX  20004 01098 31489 32203 11077 21086 39957 49976 57002 70211 81870 333 91107;EQDQ01  00002PRCP99
0161010980999992000012003004+70370+031100FM-12+001599999V0202801N001012200019N0750001N1-00841-00971099701ADDAY111031AY201031GF103991011081004501071081MA1999999099511MD1710061+9999MW1021REMSYN072AAXX  20034 01098 41489 32802 11084 21097 39951 49970 57006 70210 81878;
0255010980999992000012006004+70370+031100FM-12+001599999V0200301N003110090019N0300001N1-00441-00871099701ADDAA112000891AJ199991999999999AY181061AY221061GF108991081081004501999999IA1299KA1120N-00981MA1999999099511MD1410001+9999MW1851REMSYN100AAXX  20064 01098 11480 80306 11044 21087 39951 49970 54000 69982 78582 888// 333 21098 49999 91112;EQDQ01  09962SNDP  
0161010980999992000012009004+70370+031100FM-12+001599999V0203601N003110090019N0300001N1-00431-01051099741ADDAY181031AY221031GF107991061081004501001081MA1999999099551MD1310041+9999MW1261REMSYN072AAXX  20094 01098 41480 73606 11043 21105 39955 49974 53004 72682 86808;
0188010980999992000012012004+70370+031100FM-12+001599999V0203301N003110090019N0550001N1-00481-01071099771ADDAA106000791AY181061AY221061GF107991061081004501001091MA1999999099581MD1210031+9999MW1021REMSYN088AAXX  20124 01098 11485 73306 11048 21107 39958 49977 52003 69901 70282 86809 333 91111;
0161010980999992000012015004+70370+031100FM-12+001599999V0202901N003610240019N0750001N1-00721-00941099811ADDAY121031AY221031GF106991041081004501071001MA1999999099621MD1210041+9999MW1011REMSYN072AAXX  20154 01098 41489 62907 11072 21094 39962 49981 52004 70122 84870;
0207010980999992000012018004+70370+031100FM-12+001599999V0202701N004110240019N0550001N1-00751-00811099881ADDAA112000191AY181061AY231061GF107991041081004501071041KA1120M-00401MA1999999099691MD1210071+9999MW1851REMSYN094AAXX  20184 01098 11485 72708 11075 21081 39969 49988 52007 69912 78583 84874 333 11040 91112;
0161010980999992000012021004+70370+031100FM-12+001599999V0202801N004110042019N0003001N1-00721-00751099871ADDAY181031AY231031GF108991081091004501999999MA1999999099681MD1610011+9999MW1861REMSYN072AAXX  20214 01098 41403 82808 11072 21075 39968 49987 56001 78683 889//;
0198010980999992000012100004+70370+031100FM-12+001599999V0203601N005710003019N0005001N1-00481-00491100091ADDAA106003091AY171061AY231061GA1091+999999999GF109991091999999999999999MA1999999099901MD1210221+9999MW1391REMSYN082AAXX  21004 01098 11/05 93611 11048 21049 39990 40009 52022 60031 73973 333 91120;
0161010980999992000012103004+70370+031100FM-12+001599999V0203501N004610021019N0100001N1-00531-01051100301ADDAY171031AY231031GF107991071071002501001001MA1999999100111MD1210211+9999MW1361REMSYN072AAXX  21034 01098 41360 73509 11053 21105 30011 40030 52021 73673 87700;
0255010980999992000012106004+70370+031100FM-12+001599999V0203601N003610021019N0200001N1-00461-01121100451ADDAA112004191AJ199991999999999AY171061AY221061GF108991081071002501999999IA1299KA1120N-00781MA1999999100261MD1210151+9999MW1361REMSYN100AAXX  21064 01098 31370 83607 11046 21112 30026 40045 52015 60042 73672 887// 333 21078 49999 91119;EQDQ01  09962SNDP  
0161010980999992000012109004+70370+031100FM-12+001599999V0203601N003110060019N0045001N1-00501-00701100541ADDAY181031AY231031GF107991071081002501001001MA1999999100351MD1210091+9999MW1851REMSYN072AAXX  21094 01098 41345 73606 11050 21070 30035 40054 52009 78583 87800;
0188010980999992000012112004+70370+031100FM-12+001599999V0200101N003110060019N0300001N1-00451-00711100541ADDAA106000591AY181061AY231061GF107991071081002501001001MA1999999100351MD1410001+9999MW1021REMSYN088AAXX  21124 01098 11380 70106 11045 21071 30035 40054 54000 69951 70283 87800 333 91116;
0161010980999992000012115004+70370+031100FM-12+001599999V0200401N002612200019N0750001N1-00481-00661100541ADDAY181031AY231031GF103991031031004501001001MA1999999100351MD1410001+9999MW1011REMSYN072AAXX  21154 01098 41489 30405 11048 21066 30035 40054 54000 70183 83300;
0207010980999992000012118004+70370+031100FM-12+001599999V0200301N004610042019N0550001N1-00501-00571100441ADDAA112001091AY181061AY231061GF106991061031004501001001KA1120M-00371MA1999999100251MD1810101+9999MW1361REMSYN094AAXX  21184 01098 11485 60309 11050 21057 30025 40044 58010 60012 73683 86300 333 11037 91115;
0161010980999992000012121004+70370+031100FM-12+001599999V0203401N002610042019N0060001N1-00521-00721100331ADDAY181031AY231031GF107991071091004501001001MA1999999100141MD1710111+9999MW1881REMSYN072AAXX  21214 01098 41456 73405 11052 21072 30014 40033 57011 78883 87900;
0188010980999992000012200004+70370+031100FM-12+001599999V0203001N005710042019N0100001N1-00601-00631100221ADDAA106000591AY181061AY231061GF106991061031004501001001MA1999999100031MD1710111+9999MW1391REMSYN088AAXX  22004 01098 11460 63011 11060 21063 30003 40022 57011 69951 73983 86300 333 91114;
0161010980999992000012203004+70370+031100FM-12+001599999V0203001N005710042019N0030001N1-00591-00631100041ADDAY181031AY231031GF108991081091004501999999MA1999999099851MD1710181+9999MW1861REMSYN072AAXX  22034 01098 41430 83011 11059 21063 39985 40004 57018 78683 889//;
0255010980999992000012206004+70370+031100FM-12+001599999V0202801N005110042019N0100001N1-00541-00601099841ADDAA112002091AJ199991999999999AY181061AY231061GF108991081091004501999999IA1299KA1120N-00651MA1999999099651MD1610201+9999MW1871REMSYN100AAXX  22064 01098 11460 82810 11054 21060 39965 49984 56020 60022 78783 889// 333 21065 49999 91115;EQDQ01  09962SNDP  
0161010980999992000012209004+70370+031100FM-12+001599999V0202501N004610042019N0750001N1-00601-00661099551ADDAY181031AY271031GF108991051071004501071071MA1999999099361MD1710291+9999MW1221REMSYN072AAXX  22094 01098 41489 82509 11060 21066 39936 49955 57029 72287 85777;
0188010980999992000012212004+70370+031100FM-12+001599999V0200801N002610240019N0100001N1-00481-00521099631ADDAA106000891AY181061AY271061GF107991031071002501021071MA1999999099441MD1310081+9999MW1221REMSYN088AAXX  22124 01098 11360 70805 11048 21052 39944 49963 53008 69981 72287 83727 333 91114;
0180010980999992000012215004+70370+031100FM-12+001599999V0200301N004112200019N0700001N1-00251-00981099761ADDAY181031AY221031GF103991999081004501001001MA1999999099571MD1210131+9999MW1021REMSYN072AAXX  22154 01098 41488 30308 11025 21098 39957 49976 52013 70282 86800;EQDQ01+000062SCOTLC
0207010980999992000012218004+70370+031100FM-12+001599999V0200401N005710090019N0750001N1-00151-00841099871ADDAA112001091AY181061AY231061GF106991061081004501001001KA1120M-00131MA1999999099681MD1210111+9999MW1381REMSYN094AAXX  22184 01098 11489 60411 11015 21084 39968 49987 52011 69992 73883 86800 333 11013 91118;
0161010980999992000012221004+70370+031100FM-12+001599999V0200401N005112200019N0750001N1-00201-01051100171ADDAY131031AY221031GF104991041081004501001001MA1999999099981MD1210301+9999MW1021REMSYN072AAXX  22214 01098 41489 40410 11020 21105 39998 40017 52030 70232 84800;
0188010980999992000012300004+70370+031100FM-12+001599999V0200301N005112200019N0750001N1-00241-01091100381ADDAA106000191AY181061AY231061GF103991031031004501001001MA1999999100191MD1210211+9999MW1381REMSYN088AAXX  23004 01098 11489 30310 11024 21109 30019 40038 52021 69911 73883 83300 333 91119;
0161010980999992000012303004+70370+031100FM-12+001599999V0200301N003612200019N0750001N1-00261-01081100551ADDAY181031AY231031GF103991031031004501001001MA1999999100361MD1110171+9999MW1361REMSYN072AAXX  23034 01098 41489 30307 11026 21108 30036 40055 51017 73683 83300;
0255010980999992000012306004+70370+031100FM-12+001599999V0200401N001512200019N0750001N1-00301-01141100621ADDAA112000191AJ199991999999999AY181061AY231061GF103991021031004501061001IA1249KA1120N-00311MA1999999100431MD1210071+9999MW1021REMSYN100AAXX  23064 01098 11489 30403 11030 21114 30043 40062 52007 69912 70283 82360 333 21031 48999 91114;EQDQ01  09962SNDP  
0161010980999992000012309004+70370+031100FM-12+001599999V0202601N002612200019N0750001N1-00561-00741100731ADDAY101031AY201031GF103991011031004501071061MA1999999100541MD1210111+9999MW1021REMSYN072AAXX  23094 01098 41489 32605 11056 21074 30054 40073 52011 70200 81376;
0161010980999992000012315004+70370+031100FM-12+001599999V0200201N003610240019N0300001N1-00251-00601100791ADDAY181031AY221031GF108991041081004501071999MA1999999100601MD1210111+9999MW1261REMSYN072AAXX  23154 01098 41480 80207 11025 21060 30060 40079 52011 72682 8487/;
0207010980999992000012318004+70370+031100FM-12+001599999V0200101N001510240019N0750001N1-00261-00591100981ADDAA112000591AY181061AY221061GF106991031081004501071001KA1120M-00201MA1999999100791MD1210191+9999MW1011REMSYN094AAXX  23184 01098 11489 60103 11026 21059 30079 40098 52019 69962 70182 83870 333 11020 91110;
0161010980999992000012321004+70370+031100FM-12+001599999V0202501N002112200019N0750001N1-00441-00551101051ADDAY121031AY211031GF103991011081004501071001MA1999999100861MD1210071+9999MW1011REMSYN072AAXX  23214 01098 41489 32504 11044 21055 30086 40105 52007 70121 81870;
0182010980999992000012400004+70370+031100FM-12+001599999V0202501N002612200019N0750001N1-00641-00821101111ADDAA199000021AY101061AY201061GF102991021001017501001061MA1999999100921MD1210061+9999MW1021REMSYN082AAXX  24004 01098 31789 22505 11064 21082 30092 40111 52006 70200 82006 333 91108;
0161010980999992000012403004+70370+031100FM-12+001599999V0202501N002612200019N0750001N1-00701-00811101171ADDAY101031AY201031GF102991011031004501001061MA1999999100981MD1210061+9999MW1021REMSYN072AAXX  24034 01098 41489 22505 11070 21081 30098 40117 52006 70200 81306;
0265010980999992000012406004+70370+031100FM-12+001599999V0202201N005112200019N0004001N1-00741-00771101201ADDAA199000091AJ199991999999999AY141061AY201061GF103991021061000251001061IA1299KA1120N-00771MA1999999101011MD1210031+9999MW1461REMSYN094AAXX  24064 01098 31004 32210 11074 21077 30101 40120 52003 74640 82606 333 21077 49999 91111;EQDQ01  00002PRCP99Q02  09962SNDP  
0161010980999992000012409004+70370+031100FM-12+001599999V0202301N003612200019N0750001N1-00731-00751101351ADDAY141031AY211031GF105991011021004501001061MA1999999101161MD1210151+9999MW1111REMSYN072AAXX  24094 01098 41489 52307 11073 21075 30116 40135 52015 71141 81206;
0201010980999992000012412004+70370+031100FM-12+001599999V0202301N003612200019N0040001N1-00791-00811101311ADDAA199000091AY141061AY211061GF104991031031004501001061MA1999999101121MD1810041+9999MW1461REMSYN082AAXX  24124 01098 31440 42307 11079 21081 30112 40131 58004 74641 83306 333 91111;EQDQ01  00002PRCP99
0161010980999992000012415004+70370+031100FM-12+001599999V0202301N003110600019N0040001N1-00831-00851101161ADDAY141031AY211031GF107991041031004501001061MA1999999100971MD1710151+9999MW1441REMSYN072AAXX  24154 01098 41440 72306 11083 21085 30097 40116 57015 74441 84306;
0220010980999992000012418004+70370+031100FM-12+001599999V0202101N005110042019N0040001N1-00801-00821100831ADDAA199000091AY141061AY221061GF108991061031004501001061KA1120M-00671MA1999999100641MD1810331+9999MW1441REMSYN088AAXX  24184 01098 31440 82110 11080 21082 30064 40083 58033 74442 86306 333 11067 91113;EQDQ01  00002PRCP99
0177010980999992000012421004+70370+031100FM-12+001599999V0202101N008710003019N0005001N1-00781-00801100181ADDAY131031AY221031GA1091+999999999GF109991091999999999999999MA1999999099991MD1810651+9999MW1391REMSYN072AAXX  24214 01098 41/05 92117 11078 21080 39999 40018 58065 73932 89///;
0204010980999992000012500004+70370+031100FM-12+001599999V0202201N008710006019N0010001N1-00701-00731099591ADDAA106001091AY181061AY231061GA1091+999999999GF109991091999999999999999MA1999999099401MD1710591+9999MW1391REMSYN088AAXX  25004 01098 31/10 92217 11070 21073 39940 49959 57059 60011 73983 89/// 333 91125;
0161010980999992000012503004+70370+031100FM-12+001599999V0202201N008210090019N0010001N1-00641-00681098771ADDAY181031AY231031GF108991081081004501999999MA1999999098591MD1710811+9999MW1391REMSYN072AAXX  25034 01098 41410 82216 11064 21068 39859 49877 57081 73983 888//;
0255010980999992000012506004+70370+031100FM-12+001599999V0202301N007710042019N0002001N1-00601-00631098391ADDAA112001091AJ199991999999999AY181061AY231061GF108991081091004501999999IA1299KA1120N-00801MA1999999098211MD1610381+9999MW1861REMSYN100AAXX  25064 01098 11402 82315 11060 21063 39821 49839 56038 60012 78683 889// 333 21080 49999 91124;EQDQ01  09962SNDP  
0161010980999992000012509004+70370+031100FM-12+001599999V0202401N004610042019N0050001N1-00471-00511098461ADDAY181031AY271031GF108991061071004501021999MA1999999098281MD1310071+9999MW1701REMSYN072AAXX  25094 01098 41450 82409 11047 21051 39828 49846 53007 77087 8672/;
0188010980999992000012512004+70370+031100FM-12+001599999V0202501N004110240019N0750001N1-00321-00391098601ADDAA106000791AY181061AY271061GF106991041081004501041001MA1999999098421MD1210141+9999MW1011REMSYN088AAXX  25124 01098 11489 62508 11032 21039 39842 49860 52014 69901 70187 84840 333 91117;
0161010980999992000012515004+70370+031100FM-12+001599999V0203101N005710240019N0750001N1+00081+00041098621ADDAY121031AY221031GF106991041081004501041001MA1999999098441MD1810021+9999MW1021REMSYN072AAXX  25154 01098 41489 63111 10008 20004 39844 49862 58002 70222 84840;
0207010980999992000012518004+70370+031100FM-12+001599999V0202701N004610240019N0750001N1+00101+00041098841ADDAA112000591AY121061AY221061GF106991041081004501041001KA1120M+00151MA1999999098661MD1310221+9999MW1021REMSYN094AAXX  25184 01098 11489 62709 10010 20004 39866 49884 53022 69962 70222 84840 333 10015 91117;
0161010980999992000012521004+70370+031100FM-12+001599999V0202301N003610240019N0600001N1-00031-00141098841ADDAY121031AY221031GF105991031081004501041001MA1999999098661MD1010001+9999MW1011REMSYN072AAXX  25214 01098 41486 52307 11003 21014 39866 49884 50000 70122 83840;
0188010980999992000012600004+70370+031100FM-12+001599999V0202301N005710060019N0030001N1-00011-00041098471ADDAA106000391AY171061AY231061GF108991081081002501999999MA1999999098291MD1810371+9999MW1731REMSYN088AAXX  26004 01098 11330 82311 11001 21004 39829 49847 58037 69931 77373 888// 333 91114;
0180010980999992000012603004+70370+031100FM-12+001599999V0202201N005710060019N0550001N1+00021-00011097951ADDAY171031AY221031GF108991081081002501999999MA1999999097781MD1710522+9999MW1851REMSYN072AAXX  26034 01098 41385 82211 10002 21001 39778 49795 57052 78572 888//;EQDQ01+000522APC3  
0255010980999992000012606004+70370+031100FM-12+001599999V0202401N004610060019N0550001N1+00091+00061097641ADDAA112000891AJ199991999999999AY171061AY221061GF108991081081002501999999IA1299KA1120N-00101MA1999999097471MD1710311+9999MW1021REMSYN100AAXX  26064 01098 11385 82409 10009 20006 39747 49764 57031 69982 70272 888// 333 21010 49999 91117;EQDQ01  09962SNDP  
0161010980999992000012609004+70370+031100FM-12+001599999V0202301N004610090019N0550001N1+00101+00041097421ADDAY121031AY221031GF106991061081004501001081MA1999999097251MD1710221+9999MW1011REMSYN072AAXX  26094 01098 41485 62309 10010 20004 39725 49742 57022 70122 86808;
0182010980999992000012612004+70370+031100FM-12+001599999V0202201N003110090019N0750001N1-00011-00171097201ADDAA199000021AY121061AY221061GF106991051081004501001081MA1999999097031MD1710221+9999MW1021REMSYN082AAXX  26124 01098 31489 62206 11001 21017 39703 49720 57022 70222 85808 333 91112;
0161010980999992000012615004+70370+031100FM-12+001599999V0202301N003610090019N0300001N1-00021-00181097091ADDAY121031AY221031GF107991071081004501001001MA1999999096911MD1610111+9999MW1021REMSYN072AAXX  26154 01098 41480 72307 11002 21018 39691 49709 56011 70222 87800;
0220010980999992000012618004+70370+031100FM-12+001599999V0202901N003110042019N0550001N1+00011-00091097061ADDAA199000091AY121061AY221061GF108991081071004501999999KA1120M+00181MA1999999096891MD1610031+9999MW1031REMSYN088AAXX  26184 01098 31485 82906 10001 21009 39689 49706 56003 70322 887// 333 10018 91110;EQDQ01  00002PRCP99
0161010980999992000012621004+70370+031100FM-12+001599999V0203301N007710042019N0100001N1-00031-00271097321ADDAY171031AY221031GF108991071071004501021999MA1999999097141MD1310261+9999MW1701REMSYN072AAXX  26214 01098 41460 83315 11003 21027 39714 49732 53026 77072 8772/;
0188010980999992000012700004+70370+031100FM-12+001599999V0203301N006710090019N0040001N1-00041-00381097521ADDAA106002091AY181061AY271061GF108991081081004501999999MA1999999097341MD1210201+9999MW1861REMSYN088AAXX  27004 01098 11440 83313 11004 21038 39734 49752 52020 60021 78687 888// 333 91124;
0161010980999992000012703004+70370+031100FM-12+001599999V0203201N004110090019N0300001N1+00011-00451097691ADDAY181031AY231031GF108991081081004501999999MA1999999097521MD1210181+9999MW1021REMSYN072AAXX  27034 01098 41480 83208 10001 21045 39752 49769 52018 70283 888//;
0255010980999992000012706004+70370+031100FM-12+001599999V0202701N004610090019N0300001N1-00301-00371097731ADDAA112003091AJ199991999999999AY181061AY231061GF107991071081004501001001IA1299KA1120N-00311MA1999999097551MD1110031+9999MW1011REMSYN100AAXX  27064 01098 11480 72709 11030 21037 39755 49773 51003 60032 70183 87800 333 21031 49999 91121;EQDQ01  09962SNDP  
0161010980999992000012709004+70370+031100FM-12+001599999V0202701N004110090019N0550001N1-00371-00481097701ADDAY121031AY221031GF106991061081004501001001MA1999999097521MD1810031+9999MW1011REMSYN072AAXX  27094 01098 41485 62708 11037 21048 39752 49770 58003 70122 86800;
0171010980999992000012712004+70370+031100FM-12+001599999V0202601N004110090019N0750001N1-00361-00501097631ADDAY121061AY221061GF105991051081004501001081MA1999999097451MD1710071+9999MW1011REMSYN082AAXX  27124 01098 41489 52608 11036 21050 39745 49763 57007 70122 85808 333 91112;
0161010980999992000012715004+70370+031100FM-12+001599999V0202601N003112200019N0750001N1-00461-00531097471ADDAY121031AY221031GF104991011031004501031001MA1999999097291MD1710161+9999MW1021REMSYN072AAXX  27154 01098 41489 42606 11046 21053 39729 49747 57016 70222 81330;
0220010980999992000012718004+70370+031100FM-12+001599999V0202901N005112200019N0750001N1-00471-00621097391ADDAA199000091AY131061AY211061GF101991011031004501001001KA1120M-00251MA1999999097211MD1710081+9999MW1381REMSYN088AAXX  27184 01098 31489 12910 11047 21062 39721 49739 57008 73831 81300 333 11025 91114;EQDQ01  00002PRCP99
0161010980999992000012721004+70370+031100FM-12+001599999V0202601N005110042019N0750001N1-00461-00611097331ADDAY131031AY211031GF108991081091004501999999MA1999999097151MD1710061+9999MW1031REMSYN072AAXX  27214 01098 41489 82610 11046 21061 39715 49733 57006 70331 889//;
0201010980999992000012800004+70370+031100FM-12+001599999V0202701N006210042019N0550001N1-00451-00571097101ADDAA199000091AY121061AY221061GF108991081071004501999999MA1999999096921MD1810231+9999MW1021REMSYN082AAXX  28004 01098 31485 82712 11045 21057 39692 49710 58023 70222 887// 333 91115;EQDQ01  00002PRCP99
0161010980999992000012803004+70370+031100FM-12+001599999V0202701N005710042019N0550001N1-00451-00571096991ADDAY121031AY211031GF106991061071004501001001MA1999999096811MD1610111+9999MW1011REMSYN072AAXX  28034 01098 41485 62711 11045 21057 39681 49699 56011 70121 86700;
0265010980999992000012806004+70370+031100FM-12+001599999V0202701N007710042019N0300001N1-00431-00481096931ADDAA199000091AJ199991999999999AY131061AY221061GF108991081071004501999999IA1299KA1120N-00501MA1999999096751MD1610061+9999MW1031REMSYN094AAXX  28064 01098 31480 82715 11043 21048 39675 49693 56006 70332 887// 333 21050 49999 91120;EQDQ01  00002PRCP99Q02  09962SNDP  
0161010980999992000012809004+70370+031100FM-12+001599999V0202901N005710090019N0040001N1-00321-00351097081ADDAY181031AY231031GF108991081081004501999999MA1999999096901MD1310151+9999MW1261REMSYN072AAXX  28094 01098 41440 82911 11032 21035 39690 49708 53015 72683 888//;
0188010980999992000012812004+70370+031100FM-12+001599999V0202801N005710090019N0005001N1-00351-00381097301ADDAA106002091AY121061AY221061GF108991081081004501999999MA1999999097121MD1210221+9999MW1281REMSYN088AAXX  28124 01098 11405 82811 11035 21038 39712 49730 52022 60021 72822 888// 333 91119;
0180010980999992000012815004+70370+031100FM-12+001599999V0202701N004619999999N0550001N1-00421-00651097471ADDAY181031AY231031GF107991999081004501999999MA1999999097291MD1210171+9999MW1021REMSYN072AAXX  28154 01098 41485 72709 11042 21065 39729 49747 52017 70283 888//;EQDQ01+000082SCOTLC
0207010980999992000012818004+70370+031100FM-12+001599999V0202601N005710090019N0300001N1-00511-00691097651ADDAA112002091AY181061AY231061GF105991051081004501001001KA1120M-00271MA1999999097471MD1210181+9999MW1381REMSYN094AAXX  28184 01098 11480 52611 11051 21069 39747 49765 52018 60022 73883 85800 333 11027 91114;
0161010980999992000012821004+70370+031100FM-12+001599999V0202501N004112200019N0550001N1-00691-00851097771ADDAY131031AY221031GF103991031081004501001001MA1999999097591MD1210121+9999MW1021REMSYN072AAXX  28214 01098 41485 32508 11069 21085 39759 49777 52012 70232 83800;
0211010980999992000012900004+70370+031100FM-12+001599999V0202601N004612200019N0750001N1-00591-00831097811ADDAA199000091AY131061AY211061GA1001+999999999GF100991001001999999001001MA1999999097631MD1210041+9999MW1361REMSYN076AAXX  29004 01098 31989 02609 11059 21083 39763 49781 52004 73631 333 91113;EQDQ01  00002PRCP99
0171010980999992000012903004+70370+031100FM-12+001599999V0202801N003612200019N0750001N1-00721-00941097881ADDAY131031AY201031GA1001+999999999GF100991001001999999001001MA1999999097701MD1210071+9999MW1021REMSYN066AAXX  29034 01098 41989 02807 11072 21094 39770 49788 52007 70230;
0265010980999992000012906004+70370+031100FM-12+001599999V0202301N004112200019N0750001N1-00681-00941097921ADDAA199000091AJ199991999999999AY131061AY201061GF101991011031002501031011IA1249KA1120N-00851MA1999999097741MD1110041+9999MW1021REMSYN094AAXX  29064 01098 31389 12308 11068 21094 39774 49792 51004 70230 81331 333 21085 48999 91113;EQDQ01  00002PRCP99Q02  09962SNDP  
0161010980999992000012909004+70370+031100FM-12+001599999V0202401N004610600019N0550001N1-00821-00861097931ADDAY131031AY211031GF105991011041004501001091MA1999999097751MD1110011+9999MW1361REMSYN072AAXX  29094 01098 41485 52409 11082 21086 39775 49793 51001 73631 81409;
0201010980999992000012912004+70370+031100FM-12+001599999V0202301N004110600019N0300001N1-00941-00981097991ADDAA199000091AY131061AY211061GF107991041081002501001091MA1999999097811MD1210061+9999MW1031REMSYN082AAXX  29124 01098 31380 72308 11094 21098 39781 49799 52006 70331 84809 333 91113;EQDQ01  00002PRCP99
0161010980999992000012915004+70370+031100FM-12+001599999V0202301N005712200019N0300001N1-01101-01131097931ADDAY131031AY211031GF103991021081004501001091MA1999999097751MD1810061+9999MW1011REMSYN072AAXX  29154 01098 41480 32311 11110 21113 39775 49793 58006 70131 82809;
0207010980999992000012918004+70370+031100FM-12+001599999V0202301N004610600019N0060001N1-01161-01201097921ADDAA112000191AY131061AY211061GF106991041081002501001091KA1120M-00701MA1999999097741MD1710011+9999MW1381REMSYN094AAXX  29184 01098 11356 62309 11116 21120 39774 49792 57001 69912 73831 84809 333 11070 91112;
0196010980999992000012921004+70370+031100FM-12+001599999V0202201N003110090019N9999999N1-01061-01101097881ADDAY141031AY221031GF106991999081004501001001MA1999999097701MD1710041+9999MW1481REMSYN072AAXX  29214 01098 41480 62206 11106 21110 39770 49788 57004 74842 85800;EQDQ01+000052SCOTLCQ02+300002VODIS 
0201010980999992000013000004+70370+031100FM-12+001599999V0201401N003110021019N0100001N1-00641-00671097681ADDAA199000091AY141061AY221061GF108991081061002501999999MA1999999097501MD1810201+9999MW1481REMSYN082AAXX  30004 01098 31360 81406 11064 21067 39750 49768 58020 74842 886// 333 91109;EQDQ01  00002PRCP99
0161010980999992000013003004+70370+031100FM-12+001599999V0201501N003110021019N0100001N1-00591-00651097361ADDAY141031AY221031GF108991081061002501999999MA1999999097181MD1810321+9999MW1491REMSYN072AAXX  30034 01098 41360 81506 11059 21065 39718 49736 58032 74942 886//;
0255010980999992000013006004+70370+031100FM-12+001599999V0201401N003610021019N0020001N1-00531-00571097051ADDAA112001091AJ199991999999999AY171061AY231061GF108991071071002501021999IA1299KA1120N-01121MA1999999096871MD1710311+9999MW1711REMSYN100AAXX  30064 01098 11320 81407 11053 21057 39687 49705 57031 60012 77173 8772/ 333 21112 49999 91114;EQDQ01  09962SNDP  
0161010980999992000013009004+70370+031100FM-12+001599999V0201601N005110021019N0025001N1-00461-00501096791ADDAY171031AY231031GF108991071071002501021999MA1999999096611MD1710261+9999MW1711REMSYN072AAXX  30094 01098 41325 81610 11046 21050 39661 49679 57026 77173 8772/;
0188010980999992000013012004+70370+031100FM-12+001599999V0201701N005110012019N0010001N1-00341-00391096631ADDAA106003091AY171061AY231061GF108991081071001501999999MA1999999096451MD1710161+9999MW1731REMSYN088AAXX  30124 01098 11210 81710 11034 21039 39645 49663 57016 60031 77373 887// 333 91115;
0161010980999992000013015004+70370+031100FM-12+001599999V0201801N005710060019N0020001N1-00191-00251096471ADDAY181031AY231031GF108991081081002501999999MA1999999096281MD1710171+9999MW1851REMSYN072AAXX  30154 01098 41320 81811 11019 21025 39628 49647 57017 78583 888//;
0207010980999992000013018004+70370+031100FM-12+001599999V0201901N006210060019N0030001N1-00071-00111096351ADDAA112005191AY181061AY231061GF107991071081002501001001KA1120M-00051MA1999999096171MD1710111+9999MW1391REMSYN094AAXX  30184 01098 11330 71912 11007 21011 39617 49635 57011 60052 73983 87800 333 11005 91117;
0161010980999992000013021004+70370+031100FM-12+001599999V0201901N004610060019N0050001N1+00061+00021096381ADDAY181031AY231031GF108991081081002501999999MA1999999096211MD1510031+9999MW1831REMSYN072AAXX  30214 01098 41350 81909 10006 20002 39621 49638 55003 78383 888//;
0188010980999992000013100004+70370+031100FM-12+001599999V0201801N005110090019N0300001N1+00371+00271096241ADDAA106000191AY181061AY231061GF108991081081004501999999MA1999999096271MD1210061+9999MW1221REMSYN088AAXX  31004 01098 11480 81810 10037 20027 39627 49624 52006 69911 72283 888// 333 91115;
0161010980999992000013103004+70370+031100FM-12+001599999V0203301N003110060019N0010001N1-00161-00201096541ADDAY121031AY221031GF108991081081002501999999MA1999999096361MD1210101+9999MW1721REMSYN072AAXX  31034 01098 41310 83306 11016 21020 39636 49654 52010 77222 888//;
0255010980999992000013106004+70370+031100FM-12+001599999V0203401N003610060019N0050001N1-00121-00191096561ADDAA112003091AJ199991999999999AY171061AY231061GF108991081081002501999999IA1299KA1120N-00161MA1999999096381MD1210021+9999MW1361REMSYN100AAXX  31064 01098 11350 83407 11012 21019 39638 49656 52002 60032 73673 888// 333 21016 49999 91110;EQDQ01  09962SNDP  
0161010980999992000013109004+70370+031100FM-12+001599999V0203501N005110060019N0050001N1-00121-00221096551ADDAY181031AY231031GF107991071081002501001001MA1999999096371MD1510011+9999MW1361REMSYN072AAXX  31094 01098 41350 73510 11012 21022 39637 49655 55001 73683 87800;
0188010980999992000013112004+70370+031100FM-12+001599999V0203501N005110060019N0030001N1-00141-00251096431ADDAA106000191AY121061AY201061GF108991081081002501999999MA1999999096251MD1810121+9999MW1351REMSYN088AAXX  31124 01098 11330 83510 11014 21025 39625 49643 58012 69911 73520 888// 333 91115;
0161010980999992000013115004+70370+031100FM-12+001599999V0203401N005110021019N0040001N1-00131-00161096381ADDAY121031AY221031GF108991081071002501999999MA1999999096201MD1710051+9999MW1011REMSYN072AAXX  31154 01098 41340 83410 11013 21016 39620 49638 57005 70122 887//;
0207010980999992000013118004+70370+031100FM-12+001599999V0203201N005710060019N0030001N1-00121-00151096321ADDAA112002091AY181061AY231061GF108991081081002501999999KA1120M-00061MA1999999096141MD1710061+9999MW1371REMSYN094AAXX  31184 01098 11330 83211 11012 21015 39614 49632 57006 60022 73783 888// 333 11006 91117;
0161010980999992000013121004+70370+031100FM-12+001599999V0203101N002610042019N0550001N1-00011-00041096341ADDAY121031AY221031GF108991081071004501999999MA1999999096161MD1310021+9999MW1011REMSYN072AAXX  31214 01098 41485 83105 11001 21004 39616 49634 53002 70122 887//;
0188010980999992000020100004+70370+031100FM-12+001599999V0203201N001510090019N0550001N1-00041-00111096411ADDAA106000891AY181061AY231061GF107991071081004501001001MA1999999096231MD1210071+9999MW1021REMSYN088AAXX  01004 01098 11485 73203 11004 21011 39623 49641 52007 69981 70283 87800 333 91117;
0161010980999992000020103004+70370+031100FM-12+001599999V0203301N002110090019N0550001N1+00041-00031096481ADDAY121031AY221031GF107991071081004501001001MA1999999096311MD1210071+9999MW1021REMSYN072AAXX  01034 01098 41485 73304 10004 21003 39631 49648 52007 70222 87800;
0255010980999992000020106004+70370+031100FM-12+001599999V0200301N003110090019N0550001N1+00081-00051096611ADDAA112000891AJ199991999999999AY121061AY221061GF107991071081004501001001IA1299KA1120N-00141MA1999999096441MD1210131+9999MW1021REMSYN100AAXX  01064 01098 11485 70306 10008 21005 39644 49661 52013 69982 70222 87800 333 21014 49999 91110;EQDQ01  09962SNDP  
0161010980999992000020109004+70370+031100FM-12+001599999V0203501N003610090019N0300001N1+00111-00071096721ADDAY181031AY221031GF107991071081004501001001MA1999999096551MD1210111+9999MW1161REMSYN072AAXX  01094 01098 41480 73507 10011 21007 39655 49672 52011 71682 87800;
0188010980999992000020112004+70370+031100FM-12+001599999V0200301N002610090019N0300001N1+00001-00271096981ADDAA106000891AY181061AY221061GF107991071081004501001001MA1999999096811MD1210261+9999MW1021REMSYN088AAXX  01124 01098 11480 70305 10000 21027 39681 49698 52026 69971 70282 87800 333 91113;
0161010980999992000020115004+70370+031100FM-12+001599999V0200201N003110090019N0300001N1+00061-00371097161ADDAY121031AY221031GF107991071081004501001001MA1999999096991MD1210181+9999MW1021REMSYN072AAXX  01154 01098 41480 70206 10006 21037 39699 49716 52018 70222 87800;
0207010980999992000020118004+70370+031100FM-12+001599999V0200301N003110090019N0300001N1+00011-00421097301ADDAA112000891AY121061AY221061GF107991071081004501001001KA1120M+00191MA1999999097131MD1210141+9999MW1021REMSYN094AAXX  01184 01098 11480 70306 10001 21042 39713 49730 52014 69972 70222 87800 333 10019 91110;
0161010980999992000020121004+70370+031100FM-12+001599999V0200301N003110090019N0300001N1+00011-00531097471ADDAY121031AY221031GF107991071081004501001001MA1999999097301MD1210171+9999MW1021REMSYN072AAXX  01214 01098 41480 70306 10001 21053 39730 49747 52017 70222 87800;
0201010980999992000020200004+70370+031100FM-12+001599999V0202701N002110042019N0750001N1-00151-00431097571ADDAA199000091AY121061AY211061GF106991061051004501001001MA1999999097391MD1210101+9999MW1011REMSYN082AAXX  02004 01098 31489 62704 11015 21043 39739 49757 52010 70121 86500 333 91109;EQDQ01  00002PRCP99
0171010980999992000020203004+70370+031100FM-12+001599999V0202501N001010024019N0030001N1-00181-00241097491ADDAY171031AY221031GA1091+999999999GF109991091999999999999999MA1999999097311MD1810081+9999MW1711REMSYN066AAXX  02034 01098 41/30 92502 11018 21024 39731 49749 58008 77172;
0236010980999992000020206004+70370+031100FM-12+001599999V0203101N005710042019N0010001N1-00051-00191097271ADDAA112005191AJ199991999999999AY171061AY231061GF108991081071004501999999IA1299MA1999999097091MD1810221+9999MW1361REMSYN094AAXX  02064 01098 11410 83111 11005 21019 39709 49727 58022 60052 73673 887// 333 49999 91115;EQDQ01  09962SNDP  
0161010980999992000020209004+70370+031100FM-12+001599999V0202801N004610090019N0550001N1-00041-00231097251ADDAY181031AY231031GF107991051081004501041081MA1999999097071MD1610021+9999MW1011REMSYN072AAXX  02094 01098 41485 72809 11004 21023 39707 49725 56002 70183 85848;
0188010980999992000020212004+70370+031100FM-12+001599999V0202701N005110240019N0550001N1-00211-00541097211ADDAA106000591AY181061AY231061GF105991031081004501041081MA1999999097031MD1710041+9999MW1011REMSYN088AAXX  02124 01098 11485 52710 11021 21054 39703 49721 57004 69951 70183 83848 333 91115;
0161010980999992000020215004+70370+031100FM-12+001599999V0202901N003110240019N0750001N1-00111-00271097211ADDAY121031AY221031GF105991031081004501071081MA1999999097031MD1410001+9999MW1021REMSYN072AAXX  02154 01098 41489 52906 11011 21027 39703 49721 54000 70222 83878;
0207010980999992000020218004+70370+031100FM-12+001599999V0203001N003610042019N0060001N1-00061-00201097251ADDAA112000591AY181061AY221061GF108991081091004501999999KA1120M+00021MA1999999097071MD1310041+9999MW1881REMSYN094AAXX  02184 01098 11456 83007 11006 21020 39707 49725 53004 69962 78882 889// 333 10002 91112;
0161010980999992000020221004+70370+031100FM-12+001599999V0203201N004110090019N0550001N1-00041-00081097311ADDAY181031AY231031GF106991061081004501001001MA1999999097131MD1310061+9999MW1851REMSYN072AAXX  02214 01098 41485 63208 11004 21008 39713 49731 53006 78583 86800;
0188010980999992000020300004+70370+031100FM-12+001599999V0203401N005110090019N0300001N1+00021-00151097451ADDAA106001091AY181061AY231061GF106991061081004501001001MA1999999097281MD1210141+9999MW1361REMSYN088AAXX  03004 01098 11480 63410 10002 21015 39728 49745 52014 60011 73683 86800 333 91114;
0161010980999992000020303004+70370+031100FM-12+001599999V0203101N005110090019N0300001N1-00031-00191097611ADDAY121031AY221031GF106991061081004501001001MA1999999097431MD1210161+9999MW1361REMSYN072AAXX  03034 01098 41480 63110 11003 21019 39743 49761 52016 73622 86800;
0255010980999992000020306004+70370+031100FM-12+001599999V0203301N006210090019N0200001N1-00021-00181097801ADDAA112002091AJ199991999999999AY181061AY231061GF106991061081004501001001IA1299KA1120N-00111MA1999999097621MD1210191+9999MW1361REMSYN100AAXX  03064 01098 11470 63312 11002 21018 39762 49780 52019 60022 73683 86800 333 21011 49999 91118;EQDQ01  09962SNDP  
0161010980999992000020309004+70370+031100FM-12+001599999V0203501N006210090019N0300001N1-00091-00331098091ADDAY181031AY231031GF108991061081004501001081MA1999999097911MD1210291+9999MW1361REMSYN072AAXX  03094 01098 41480 83512 11009 21033 39791 49809 52029 73683 86808;
0188010980999992000020312004+70370+031100FM-12+001599999V0203401N005110090019N0300001N1-00161-00331098501ADDAA106000591AY181061AY231061GF106991051081004501001081MA1999999098321MD1210411+9999MW1361REMSYN088AAXX  03124 01098 11480 63410 11016 21033 39832 49850 52041 69951 73683 85808 333 91119;
0161010980999992000020315004+70370+031100FM-12+001599999V0203301N004610090019N0300001N1-00131-00551098841ADDAY181031AY231031GF106991061081004501001001MA1999999098661MD1210341+9999MW1361REMSYN072AAXX  03154 01098 41480 63309 11013 21055 39866 49884 52034 73683 86800;
0207010980999992000020318004+70370+031100FM-12+001599999V0203301N003610090019N0300001N1-00261-00421099071ADDAA112000891AY181061AY231061GF106991061081004501001001KA1120M+00011MA1999999098891MD1210231+9999MW1361REMSYN094AAXX  03184 01098 11480 63307 11026 21042 39889 49907 52023 69972 73683 86800 333 10001 91118;
0161010980999992000020321004+70370+031100FM-12+001599999V0202901N003110090019N0300001N1-00501-00761099191ADDAY121031AY221031GF106991061081004501001001MA1999999099001MD1210121+9999MW1021REMSYN072AAXX  03214 01098 41480 62906 11050 21076 39900 49919 52012 70222 86800;
0188010980999992000020400004+70370+031100FM-12+001599999V0202801N004112200019N0750001N1-00431-00661099111ADDAA106001091AY181061AY231061GF102991021051002501001001MA1999999098931MD1810071+9999MW1011REMSYN088AAXX  04004 01098 11389 22808 11043 21066 39893 49911 58007 60011 70183 82500 333 91112;
0171010980999992000020403004+70370+031100FM-12+001599999V0202401N003612200019N0750001N1-00681-00811099001ADDAY101031AY201031GA1001+999999999GF100991001001999999001001MA1999999098821MD1710111+9999MW1011REMSYN066AAXX  04034 01098 41/89 02407 11068 21081 39882 49900 57011 70100;
0230010980999992000020406004+70370+031100FM-12+001599999V0202301N003610600019N0750001N1-00561-00741098841ADDAA112001091AJ100009199999999AY121061AY201061GF105991021081004501071081IA1299KA1120N-00701MA1999999098661MD1710161+9999MW1031REMSYN094AAXX  04064 01098 11489 52307 11056 21074 39866 49884 57016 60012 70320 82878 333 21070 49999;
0161010980999992000020409004+70370+031100FM-12+001599999V0202001N005110240019N0750001N1-00531-00641098681ADDAY121031AY211031GF107991011081004501071081MA1999999098501MD1710161+9999MW1031REMSYN072AAXX  04094 01098 41489 72010 11053 21064 39850 49868 57016 70321 81878;
0201010980999992000020412004+70370+031100FM-12+001599999V0202001N004610240019N0750001N1-00371-00541098541ADDAA199000091AY121061AY211061GF107991021021002501051081MA1999999098361MD1710141+9999MW1021REMSYN082AAXX  04124 01098 31389 72009 11037 21054 39836 49854 57014 70221 82258 333 91112;EQDQ01  00002PRCP99
0161010980999992000020415004+70370+031100FM-12+001599999V0201901N003110240019N0750001N1-00361-00751098471ADDAY121031AY221031GF107991031021004501071001MA1999999098291MD1710071+9999MW1021REMSYN072AAXX  04154 01098 41489 71906 11036 21075 39829 49847 57007 70222 83270;
0220010980999992000020418004+70370+031100FM-12+001599999V0201901N004610240019N0750001N1-00291-00691098431ADDAA199000091AY121061AY221061GF107991031021004501071001KA1120M-00271MA1999999098251MD1710041+9999MW1021REMSYN088AAXX  04184 01098 31489 71909 11029 21069 39825 49843 57004 70222 83270 333 11027 91112;EQDQ01  00002PRCP99
0161010980999992000020421004+70370+031100FM-12+001599999V0202201N004110240019N0750001N1-00361-00691098451ADDAY121031AY221031GF107991031021004501071001MA1999999098271MD1310021+9999MW1021REMSYN072AAXX  04214 01098 41489 72208 11036 21069 39827 49845 53002 70222 83270;
0188010980999992000020500004+70370+031100FM-12+001599999V0202201N003610090019N0060001N1-00551-00621098561ADDAA106000191AY121061AY221061GF108991081081004501999999MA1999999098381MD1310111+9999MW1851REMSYN088AAXX  05004 01098 11456 82207 11055 21062 39838 49856 53011 69911 78522 888// 333 91112;
0249010980999992000020501004+70370+031100FM-12+001599999V0202101N003119999999N0750001N1-00521-00591098811ADDAA112000191AJ199991999999999AY181999AY231999GF107991999999004501999999IA1299KA1120N-00601MA1999999098631MD1210141+9999MW1021REMSYN094AAXX  05014 01098 11489 72106 11052 21059 39863 49881 52014 69922 70283 333 21060 49999 91113;EQDQ01  09962SNDP  
0161010980999992000020503004+70370+031100FM-12+001599999V0202201N004110090019N0750001N1-00481-00551098671ADDAY181031AY231031GF108991081081004501999999MA1999999098491MD1110111+9999MW1021REMSYN072AAXX  05034 01098 41489 82208 11048 21055 39849 49867 51011 70283 888//;
0255010980999992000020506004+70370+031100FM-12+001599999V0202101N003110090019N0750001N1-00521-00591098811ADDAA112000191AJ199991999999999AY181061AY231061GF107991051081004501041001IA1299KA1120N-00601MA1999999098631MD1210141+9999MW1021REMSYN100AAXX  05064 01098 11489 72106 11052 21059 39863 49881 52014 69922 70283 85840 333 21060 49999 91113;EQDQ01  09962SNDP  
0161010980999992000020509004+70370+031100FM-12+001599999V0202001N003610240019N0750001N1-00581-00621099011ADDAY121031AY211031GF105991031081004501051001MA1999999098831MD1210201+9999MW1011REMSYN072AAXX  05094 01098 41489 52007 11058 21062 39883 49901 52020 70121 83850;
0188010980999992000020512004+70370+031100FM-12+001599999V0202701N003110090019N0550001N1-00331-00481099121ADDAA106000791AY181061AY221061GF107991071081004501001001MA1999999098941MD1210111+9999MW1851REMSYN088AAXX  05124 01098 11485 72706 11033 21048 39894 49912 52011 69901 78582 87800 333 91112;
0161010980999992000020515004+70370+031100FM-12+001599999V0203001N006210600019N0550001N1-00111-00211099221ADDAY181031AY231031GF106991041081004501001051MA1999999099041MD1210101+9999MW1361REMSYN072AAXX  05154 01098 41485 63012 11011 21021 39904 49922 52010 73683 84805;
0207010980999992000020518004+70370+031100FM-12+001599999V0202901N004610090019N0550001N1-00321-00571099441ADDAA112003091AY181061AY231061GF106991061081004501001001KA1120M-00071MA1999999099251MD1210221+9999MW1361REMSYN094AAXX  05184 01098 11485 62909 11032 21057 39925 49944 52022 60032 73683 86800 333 11007 91115;
0161010980999992000020521004+70370+031100FM-12+001599999V0202801N004110090019N0550001N1-00401-00761099511ADDAY131031AY221031GF106991061081004501001001MA1999999099321MD1210071+9999MW1021REMSYN072AAXX  05214 01098 41485 62808 11040 21076 39932 49951 52007 70232 86800;
0182010980999992000020600004+70370+031100FM-12+001599999V0202701N004610090019N0550001N1-00411-00791099481ADDAA199000021AY131061AY221061GF108991081081004501999999MA1999999099291MD1810031+9999MW1021REMSYN082AAXX  06004 01098 31485 82709 11041 21079 39929 49948 58003 70232 888// 333 91113;
0161010980999992000020603004+70370+031100FM-12+001599999V0202401N003610090019N0550001N1-00501-00821099411ADDAY121031AY221031GF105991051081004501001001MA1999999099221MD1710071+9999MW1011REMSYN072AAXX  06034 01098 41485 52407 11050 21082 39922 49941 57007 70122 85800;
0265010980999992000020606004+70370+031100FM-12+001599999V0202401N003612200019N0750001N1-00641-00801099271ADDAA199000091AJ199991999999999AY121061AY221061GF103991011081004501071001IA1299KA1120N-00641MA1999999099081MD1710141+9999MW1011REMSYN094AAXX  06064 01098 31489 32407 11064 21080 39908 49927 57014 70122 81870 333 21064 49999 91111;EQDQ01  00002PRCP99Q02  09962SNDP  
0161010980999992000020609004+70370+031100FM-12+001599999V0202201N003612200019N0750001N1-00481-00621099081ADDAY111031AY201031GF103991011081004501071051MA1999999098901MD1710191+9999MW1021REMSYN072AAXX  06094 01098 41489 32207 11048 21062 39890 49908 57019 70210 81875;
0201010980999992000020612004+70370+031100FM-12+001599999V0202101N005710090019N0750001N1-00471-00541098671ADDAA199000091AY131061AY221061GF107991071081004501001001MA1999999098491MD1810411+9999MW1361REMSYN082AAXX  06124 01098 31489 72111 11047 21054 39849 49867 58041 73632 87800 333 91113;EQDQ01  00002PRCP99
0161010980999992000020615004+70370+031100FM-12+001599999V0201801N004110090019N0550001N1-00261-00331098441ADDAY131031AY221031GF107991071081004501001001MA1999999098261MD1710231+9999MW1021REMSYN072AAXX  06154 01098 41485 71808 11026 21033 39826 49844 57023 70232 87800;
0207010980999992000020618004+70370+031100FM-12+001599999V0201901N004610090019N0050001N1-00181-00221098181ADDAA112000191AY181061AY231061GF108991081081004501999999KA1120M-00181MA1999999098001MD1710261+9999MW1861REMSYN094AAXX  06184 01098 11450 81909 11018 21022 39800 49818 57026 69912 78683 888// 333 11018 91113;
0161010980999992000020621004+70370+031100FM-12+001599999V0202101N002610090019N0030001N1-00281-00321098021ADDAY181031AY231031GF108991081081004501999999MA1999999097841MD1610161+9999MW1861REMSYN072AAXX  06214 01098 41430 82105 11028 21032 39784 49802 56016 78683 888//;
0188010980999992000020700004+70370+031100FM-12+001599999V0202401N002610060019N0030001N1-00361-00411097971ADDAA106002091AY171061AY231061GF108991081081002501999999MA1999999097791MD1710211+9999MW1731REMSYN088AAXX  07004 01098 11330 82405 11036 21041 39779 49797 57021 60021 77373 888// 333 91111;
0161010980999992000020703004+70370+031100FM-12+001599999V0202201N003610060019N0550001N1-00261-00421097891ADDAY171031AY231031GF108991081081002501999999MA1999999097711MD1610081+9999MW1361REMSYN072AAXX  07034 01098 41385 82207 11026 21042 39771 49789 56008 73673 888//;
0255010980999992000020706004+70370+031100FM-12+001599999V0202401N002110090019N0550001N1-00131-00331097911ADDAA112002091AJ199991999999999AY171061AY231061GF108991051081004501051999IA1299KA1120N-00361MA1999999097731MD1310021+9999MW1021REMSYN100AAXX  07064 01098 11485 82404 11013 21033 39773 49791 53002 60022 70273 8585/ 333 21036 49999 91110;EQDQ01  09962SNDP  
0161010980999992000020709004+70370+031100FM-12+001599999V0202301N003612200019N0750001N1-00091-00371097931ADDAY121031AY221031GF105991031051004501001081MA1999999097751MD1210021+9999MW1011REMSYN072AAXX  07094 01098 41489 52307 11009 21037 39775 49793 52002 70122 83508;
0182010980999992000020712004+70370+031100FM-12+001599999V0202401N003112200019N0750001N1-00111-00411098031ADDAA199000021AY121061AY211061GF104991041051004501001001MA1999999097851MD1210101+9999MW1011REMSYN082AAXX  07124 01098 31489 42406 11011 21041 39785 49803 52010 70121 84500 333 91110;
0161010980999992000020715004+70370+031100FM-12+001599999V0202301N002612200019N0750001N1-00141-00441098081ADDAY101031AY201031GF101991011041012501041001MA1999999097901MD1110051+9999MW1011REMSYN072AAXX  07154 01098 41689 12305 11014 21044 39790 49808 51005 70100 81440;
0230010980999992000020718004+70370+031100FM-12+001599999V0202201N005112200019N0550001N1-00281-00331098051ADDAA199000091AY131061AY201061GA1001+999999999GF100991001001999999001001KA1120M+00081MA1999999097871MD1710031+9999MW1361REMSYN082AAXX  07184 01098 31/85 02210 11028 21033 39787 49805 57003 73630 333 10008 91113;EQDQ01  00002PRCP99
0171010980999992000020721004+70370+031100FM-12+001599999V0201901N003112200019N0750001N1-00361-00411098031ADDAY131031AY201031GA1001+999999999GF100991001001999999001001MA1999999097851MD1710021+9999MW1021REMSYN066AAXX  07214 01098 41/89 01906 11036 21041 39785 49803 57002 70230;
0171010980999992000020800004+70370+031100FM-12+001599999V0202101N003110042019N0550001N1-00241-00291097941ADDAY131061AY211061GF107991071051004501001001MA1999999097761MD1710091+9999MW1031REMSYN082AAXX  08004 01098 11485 72106 11024 21029 39776 49794 57009 70331 87500 333 91112;
0161010980999992000020803004+70370+031100FM-12+001599999V0201701N002610042019N0550001N1-00201-00261097781ADDAY121031AY221031GF107991071051004501001001MA1999999097601MD1710161+9999MW1021REMSYN072AAXX  08034 01098 41485 71705 11020 21026 39760 49778 57016 70222 87500;
0265010980999992000020806004+70370+031100FM-12+001599999V0201501N002610042019N0550001N1+00121-00041097541ADDAA199000091AJ199991999999999AY121061AY221061GF107991071051004501001001IA1299KA1120N-00401MA1999999097371MD1710231+9999MW1021REMSYN094AAXX  08064 01098 31485 71505 10012 21004 39737 49754 57023 70222 87500 333 21040 49999 91110;EQDQ01  00002PRCP99Q02  09962SNDP  
0161010980999992000020809004+70370+031100FM-12+001599999V0201801N003610090019N0030001N1-00041-00081097371ADDAY181031AY221031GF108991081081004501999999MA1999999097191MD1710181+9999MW1851REMSYN072AAXX  08094 01098 41430 81807 11004 21008 39719 49737 57018 78582 888//;
0188010980999992000020812004+70370+031100FM-12+001599999V0202201N003110090019N0030001N1-00091-00131097251ADDAA106001091AY181061AY221061GF108991081081004501999999MA1999999097071MD1710121+9999MW1861REMSYN088AAXX  08124 01098 11430 82206 11009 21013 39707 49725 57012 60011 78682 888// 333 91111;
0161010980999992000020815004+70370+031100FM-12+001599999V0202201N002110090019N0300001N1-00101-00141097211ADDAY181031AY221031GF108991081081004501999999MA1999999097031MD1610041+9999MW1021REMSYN072AAXX  08154 01098 41480 82204 11010 21014 39703 49721 56004 70282 888//;
0207010980999992000020818004+70370+031100FM-12+001599999V0202201N002610090019N0550001N1-00181-00251097121ADDAA112002091AY121061AY221061GF108991081081004501999999KA1120M+00151MA1999999096971MD1710091+9999MW1021REMSYN094AAXX  08184 01098 11485 82205 11018 21025 39697 49712 57009 60022 70222 888// 333 10015 91108;
0161010980999992000020821004+70370+031100FM-12+001599999V0202301N003610090019N0750001N1-00261-00331097161ADDAY121031AY221031GF105991051081004501001001MA1999999096981MD1710021+9999MW1011REMSYN072AAXX  08214 01098 41489 52307 11026 21033 39698 49716 57002 70122 85800;
0182010980999992000020900004+70370+031100FM-12+001599999V0202501N003612200019N0750001N1-00221-00261097171ADDAA199000021AY121061AY201061GF101991011081004501001001MA1999999096991MD1310011+9999MW1011REMSYN082AAXX  09004 01098 31489 12507 11022 21026 39699 49717 53001 70120 81800 333 91109;
0161010980999992000020903004+70370+031100FM-12+001599999V0202501N002612200019N0750001N1-00221-00381097211ADDAY101031AY201031GF102991021081004501001001MA1999999097031MD1210041+9999MW1021REMSYN072AAXX  09034 01098 41489 22505 11022 21038 39703 49721 52004 70200 82800;
0265010980999992000020906004+70370+031100FM-12+001599999V0202301N004110240019N0750001N1-00191-00391097241ADDAA199000091AJ199991999999999AY121061AY201061GF106991041081004501041081IA1299KA1120N-00281MA1999999097061MD1210031+9999MW1031REMSYN094AAXX  09064 01098 31489 62308 11019 21039 39706 49724 52003 70320 84848 333 21028 49999 91110;EQDQ01  00002PRCP99Q02  09962SNDP  
0161010980999992000020909004+70370+031100FM-12+001599999V0202201N005112200019N0750001N1-00311-00381097311ADDAY111031AY201031GF102991011041004501041011MA1999999097131MD1210071+9999MW1021REMSYN072AAXX  09094 01098 41489 22210 11031 21038 39713 49731 52007 70210 81441;
0201010980999992000020912004+70370+031100FM-12+001599999V0202201N002612200019N0750001N1-00361-00421097461ADDAA199000091AY111061AY201061GF101991011021004501041011MA1999999097281MD1210131+9999MW1021REMSYN082AAXX  09124 01098 31489 12205 11036 21042 39728 49746 52013 70210 81241 333 91113;EQDQ01  00002PRCP99
0161010980999992000020915004+70370+031100FM-12+001599999V0202401N004610240019N0750001N1-00461-00511097471ADDAY121031AY211031GF106991031051004501041001MA1999999097291MD1110011+9999MW1031REMSYN072AAXX  09154 01098 41489 62409 11046 21051 39729 49747 51001 70321 83540;
0220010980999992000020918004+70370+031100FM-12+001599999V0202201N004112200019N0750001N1-00351-00401097531ADDAA199000091AY131061AY221061GF102991011051004501041001KA1120M-00181MA1999999097351MD1310061+9999MW1011REMSYN088AAXX  09184 01098 31489 22208 11035 21040 39735 49753 53006 70132 81540 333 11018 91114;EQDQ01  00002PRCP99
0161010980999992000020921004+70370+031100FM-12+001599999V0202301N005110090019N0150001N1-00171-00231097521ADDAY181031AY231031GF107991061081004501041001MA1999999097341MD1810011+9999MW1851REMSYN072AAXX  09214 01098 41465 72310 11017 21023 39734 49752 58001 78583 86840;
0188010980999992000021000004+70370+031100FM-12+001599999V0202401N006710090019N0750001N1+00181+00001097511ADDAA106000791AY181061AY221061GF108991081081004501999999MA1999999097351MD1710011+9999MW1021REMSYN088AAXX  10004 01098 11489 82413 10018 20000 39735 49751 57001 69901 70282 888// 333 91116;
0161010980999992000021003004+70370+031100FM-12+001599999V0202701N007710090019N0750001N1+00081-00021097531ADDAY181031AY221031GF108991081081004501999999MA1999999097361MD1310011+9999MW1021REMSYN072AAXX  10034 01098 41489 82715 10008 21002 39736 49753 53001 70282 888//;
0207010980999992000021006004+70370+031100FM-12+001599999V0202801N007210240019N0750001N1+00081-00061097771ADDAA112000791AY181061AY221061GF106991021081004501041001KA1120N-00351MA1999999097601MD1210241+9999MW1021REMSYN094AAXX  10064 01098 11489 62814 10008 21006 39760 49777 52024 69902 70282 82840 333 21035 91120;
0161010980999992000021009004+70370+031100FM-12+001599999V0202801N006210090019N0750001N1+00121-00121098081ADDAY121031AY221031GF106991051081004501041001MA1999999097911MD1210311+9999MW1021REMSYN072AAXX  10094 01098 41489 62812 10012 21012 39791 49808 52031 70222 85840;
0163010980999992000021012004+70370+031100FM-12+001599999V0202401N005112200019N0049001N1-00111-00381098381ADDAW1011AZ121061GF101991011081000751041001MA1999999098201MD1210301+9999REMSYN082AAXX  10124 01098 /4149 12410 11011 21038 39820 49838 52030 70121 81840 333 91118;
0161010980999992000021015004+70370+031100FM-12+001599999V0202201N003112200019N0750001N1-00411-00511098461ADDAY111031AY201031GF102991011081004501071001MA1999999098281MD1210081+9999MW1021REMSYN072AAXX  10154 01098 41489 22206 11041 21051 39828 49846 52008 70210 81870;
0220010980999992000021018004+70370+031100FM-12+001599999V0202101N003610240019N0750001N1-00281-00441098241ADDAA199000091AY121061AY211061GF105991031081004501071001KA1120M+00121MA1999999098061MD1810221+9999MW1031REMSYN088AAXX  10184 01098 31489 52107 11028 21044 39806 49824 58022 70321 83870 333 10012 91116;EQDQ01  00002PRCP99
0161010980999992000021021004+70370+031100FM-12+001599999V0202001N006710090019N0100001N1-00341-00471097921ADDAY131031AY221031GF106991061081004501001001MA1999999097741MD1710321+9999MW1381REMSYN072AAXX  10214 01098 41460 62013 11034 21047 39774 49792 57032 73832 86800;
0188010980999992000021100004+70370+031100FM-12+001599999V0202001N006210240019N0100001N1-00121-00191097561ADDAA106000191AY171061AY231061GF108991041071004501021999MA1999999097381MD1710361+9999MW1381REMSYN088AAXX  11004 01098 11460 82012 11012 21019 39738 49756 57036 69911 73873 8472/ 333 91117;
0161010980999992000021103004+70370+031100FM-12+001599999V0201901N006710021019N0025001N1-00081-00111097141ADDAY171031AY231031GF108991051071002501021999MA1999999096961MD1710421+9999MW1711REMSYN072AAXX  11034 01098 41325 81913 11008 21011 39696 49714 57042 77173 8572/;
0255010980999992000021106004+70370+031100FM-12+001599999V0201901N006210021019N0250001N1+00061+00031096721ADDAA112001091AJ199991999999999AY171061AY231061GF108991071071002501021999IA1289KA1120N-00391MA1999999096551MD1710411+9999MW1711REMSYN100AAXX  11064 01098 11375 81912 10006 20003 39655 49672 57041 60012 77173 8772/ 333 21039 44999 91117;EQDQ01  09962SNDP  
0161010980999992000021109004+70370+031100FM-12+001599999V0201901N007710042019N0300001N1+00211+00061096391ADDAY171031AY221031GF107991071071004501021001MA1999999096221MD1710331+9999MW1021REMSYN072AAXX  11094 01098 41480 71915 10021 20006 39622 49639 57033 70272 87720;
0188010980999992000021112004+70370+031100FM-12+001599999V0202001N008710042019N0300001N1+00241+00121096121ADDAA106000191AY171061AY231061GF105991051071004501001001MA1999999095951MD1710271+9999MW1021REMSYN088AAXX  11124 01098 11480 52017 10024 20012 39595 49612 57027 69911 70273 85700 333 91122;
0161010980999992000021115004+70370+031100FM-12+001599999V0202301N008710090019N0250001N1+00251-00041096231ADDAY181031AY221031GF107991071081004501001001MA1999999096061MD1310111+9999MW1031REMSYN072AAXX  11154 01098 41475 72317 10025 21004 39606 49623 53011 70382 87800;
0207010980999992000021118004+70370+031100FM-12+001599999V0202301N008210090019N0300001N1+00101-00221096451ADDAA112000591AY181061AY221061GF107991071081004501001001KA1120M+00261MA1999999096281MD1210221+9999MW1021REMSYN094AAXX  11184 01098 11480 72316 10010 21022 39628 49645 52022 69942 70282 87800 333 10026 91125;
0161010980999992000021121004+70370+031100FM-12+001599999V0202301N008210090019N0200001N1-00031-00101096631ADDAY181031AY221031GF107991071081004501001001MA1999999096451MD1210171+9999MW1851REMSYN072AAXX  11214 01098 41470 72316 11003 21010 39645 49663 52017 78582 87800;
0188010980999992000021200004+70370+031100FM-12+001599999V0202301N007210090019N0200001N1-00041-00101096771ADDAA106000791AY181061AY221061GF108991081081004501999999MA1999999096591MD1210141+9999MW1831REMSYN088AAXX  12004 01098 11470 82314 11004 21010 39659 49677 52014 69901 78382 888// 333 91123;
0161010980999992000021203004+70370+031100FM-12+001599999V0202901N005110090019N0550001N1+00201+00141097131ADDAY181031AY221031GF108991081081004501999999MA1999999096961MD1210361+9999MW1021REMSYN072AAXX  12034 01098 41485 82910 10020 20014 39696 49713 52036 70282 888//;
0255010980999992000021206004+70370+031100FM-12+001599999V0203001N006710090019N0550001N1+00171+00011097851ADDAA112000191AJ199991999999999AY181061AY221061GF106991051081004501071001IA1289KA1120N-00061MA1999999097681MD1210721+9999MW1021REMSYN100AAXX  12064 01098 11485 63013 10017 20001 39768 49785 52072 69922 70282 85870 333 21006 44999 91117;EQDQ01  09962SNDP  
0161010980999992000021209004+70370+031100FM-12+001599999V0203001N004610090019N0550001N1+00181-00091098431ADDAY181031AY221031GF107991051081004501071001MA1999999098261MD1210581+9999MW1031REMSYN072AAXX  12094 01098 41485 73009 10018 21009 39826 49843 52058 70382 85870;
0188010980999992000021212004+70370+031100FM-12+001599999V0202601N004110240019N0550001N1+00081-00311098941ADDAA106000591AY181061AY221061GF107991041081004501071001MA1999999098761MD1210501+9999MW1021REMSYN088AAXX  12124 01098 11485 72608 10008 21031 39876 49894 52050 69941 70282 84870 333 91117;
0161010980999992000021215004+70370+031100FM-12+001599999V0202601N005112200019N0750001N1+00031-00131099311ADDAY111031AY201031GF101991011011008001001001MA1999999099131MD1110371+9999MW1011REMSYN072AAXX  12154 01098 41589 12610 10003 21013 39913 49931 51037 70110 81100;
0207010980999992000021218004+70370+031100FM-12+001599999V0202201N003112200019N0750001N1-00181-00411099351ADDAA112000591AY181061AY201061GF103991031011008001001001KA1120M+00191MA1999999099171MD1110041+9999MW1011REMSYN094AAXX  12184 01098 11589 32206 11018 21041 39917 49935 51004 69942 70180 83100 333 10019 91113;
0161010980999992000021221004+70370+031100FM-12+001599999V0201901N003610075019N0750001N1-00041-00111099401ADDAY121031AY211031GF108991081051008001999999MA1999999099221MD1210051+9999MW1031REMSYN072AAXX  12214 01098 41589 81907 11004 21011 39922 49940 52005 70321 885//;
0171010980999992000021300004+70370+031100FM-12+001599999V0202101N005110075019N0550001N1-00011-00171099311ADDAY121061AY211061GF107991071051008001001001MA1999999099121MD1810101+9999MW1011REMSYN082AAXX  13004 01098 11585 72110 11001 21017 39912 49931 58010 70121 87500 333 91115;
