0171013670999992000010100004+60980+009230FM-12+036599999V0201201N000510150019N0200001N1-00951-01121101401ADDAY121061AY221061GF108991081051017501999999MA1999999096871MD1810101+9999MW1021REMSYN082AAXX  01004 01367 41770 81201 11095 21112 39687 40140 58010 70222 885// 333 91103;
0161013670999992000010103004+60980+009230FM-12+036599999V0203201N000510075019N0040001N1-00821-00981101221ADDAY171031AY221031GF108991081061008001999999MA1999999096701MD1810171+9999MW1711REMSYN072AAXX  01034 01367 41540 83201 11082 21098 39670 40122 58017 77172 886//;
0161013670999992000010109004+60980+009230FM-12+036599999V0201201N000510120019N0550001N1-00781-00901101241ADDAY121031AY221031GF108991081051012501999999MA1999999096721MD1211501+9999MW1021REMSYN072AAXX  01094 01367 41685 81201 11078 21090 39672 40124 52150 70222 885//;
0171013670999992000010112004+60980+009230FM-12+036599999V0202701N001012200019N0550001N1-00781-00941101381ADDAY111061AY201061GF103991031021017501001001MA1999999096861MD1210141+9999MW1011REMSYN082AAXX  01124 01367 41785 32702 11078 21094 39686 40138 52140 70110 83200 333 91103;
0171013670999992000010115004+60980+009230FM-12+036599999V0203301N001012200019N0550001N1-00961-01091101601ADDAY101031AY201031GA1001+999999999GF100991001001999999001001MA1999999097061MD1210221+9999MW1021REMSYN066AAXX  01154 01367 41985 03302 11096 21109 39706 40160 52200 70200;
0230013670999992000010118004+60980+009230FM-12+036599999V0200301N000512200019N0550001N1-01101-01231101521ADDAA106000091AY101061AY201061GA1001+999999999GF100991001001999999001001KA1120M-00751MA1999999096981MD1810081+9999MW1021REMSYN082AAXX  01184 01367 31985 00301 11110 21123 39698 40152 58090 70200 333 11075 91106;EQDQ01  00002PRCP06
0200013670999992000010200004+60980+009230FM-12+036599999V0203301N001012200019N0300001N1-01311-01441101391ADDAY101061AY201061GA1001+999999999GF100991001001999999001001MA1999999096851MD1711302+9999MW1021REMSYN076AAXX  02004 01367 41980 03302 11131 21144 39685 40139 57130 70200 333 91105;EQDQ01+001302APC3  
0190013670999992000010203004+60980+009230FM-12+036599999V0203001N000512200019N0300001N1-01241-01371101181ADDAY101031AY201031GA1001+999999999GF100991001001999999001001MA1999999096651MD1710211+9999MW1021REMSYN066AAXX  02034 01367 41980 03001 11124 21137 39665 40118 57190 70200;EQDQ01+001902APC3  
0209013670999992000010206004+60980+009230FM-12+036599999V0203101N000510075019N0100001N1-01011-01141100861ADDAY171061AY221061GF108991081061008001999999KA1120N-01361MA1999999096351MD1710321+9999MW1701REMSYN088AAXX  02064 01367 41560 83101 11101 21114 39635 40086 57300 77072 886// 333 21136 91105;EQDQ01+003002APC3  
0180013670999992000010209004+60980+009230FM-12+036599999V0203401N000510075019N0100001N1-00901-00991100451ADDAY171031AY221031GF108991081051008001999999MA1999999095961MD1710411+9999MW1021REMSYN072AAXX  02094 01367 41560 83401 11090 21099 39596 40045 57061 70272 885//;EQDQ01+000612APC3  
0171013670999992000010212004+60980+009230FM-12+036599999V0203301N001010075019N0100001N1-00641-00741100251ADDAY121061AY221061GF108991081051008001999999MA1999999095791MD1710191+9999MW1021REMSYN082AAXX  02124 01367 41560 83302 11064 21074 39579 40025 57019 70222 885// 333 91106;
0161013670999992000010215004+60980+009230FM-12+036599999V0201001N000512200019N0300001N1-00801-00871100461ADDAY121031AY201031GF104991041041008001031001MA1999999095981MD1510211+9999MW1011REMSYN072AAXX  02154 01367 41580 41001 11080 21087 39598 40046 55021 70120 84430;
0171013670999992000010300004+60980+009230FM-12+036599999V0200701N000512200019N0200001N1-00861-00921101211ADDAY101061AY201061GF101991011041012501001001MA1999999096691MD1110081+9999MW1021REMSYN082AAXX  03004 01367 41670 10701 11086 21092 39669 40121 51008 70200 81400 333 91106;
0249013670999992000010306004+60980+009230FM-12+036599999V0202901N000519999999N0200001N1-00301-00461100631ADDAA106000091AJ100249199999999AY121061AY201061GF108991081001012501071999IA1239KA1120N-00931MA1999999096171MD1710441+9999MW1031REMSYN094AAXX  03064 01367 31670 82901 11030 21046 39617 40063 57044 70320 8807/ 333 21093 47024 91126;EQDQ01  00002PRCP06
0180013670999992000010309004+60980+009230FM-12+036599999V0201201N001010021019N0030001N1-00211-00311100151ADDAY171031AY221031GF108991999071002501021999MA1999999095711MD1710461+9999MW1721REMSYN072AAXX  03094 01367 41330 81202 11021 21031 39571 40015 57046 77272 8872/;EQDQ01+000082SCOTLC
0171013670999992000010312004+60980+009230FM-12+036599999V0200801N000510042019N0200001N1-00081-00251099711ADDAY171061AY221061GF107991071061004501001001MA1999999095301MD1710411+9999MW1011REMSYN082AAXX  03124 01367 41470 70801 11008 21025 39530 49971 57041 70172 87600 333 91105;
0161013670999992000010315004+60980+009230FM-12+036599999V0201801N001510075019N0300001N1+00281-00331099171ADDAY181031AY221031GF106991061051008001001001MA1999999094821MD1710491+9999MW1021REMSYN072AAXX  03154 01367 41580 61803 10028 21033 39482 49917 57049 70282 86500;
0207013670999992000010318004+60980+009230FM-12+036599999V0201901N001012200019N0300001N1+00331-00261099131ADDAA112000591AY181061AY221061GF104991041051012501001001KA1120M+00421MA1999999094791MD1810301+9999MW1021REMSYN094AAXX  03184 01367 11680 41902 10033 21026 39479 49913 58030 69942 70282 84500 333 10042 91108;
0171013670999992000010400004+60980+009230FM-12+036599999V0200901N001010075019N0100001N1+00261-00171099031ADDAY181061AY221061GF108991081051008001999999MA1999999094681MD1810051+9999MW1031REMSYN082AAXX  04004 01367 41560 80902 10026 21017 39468 49903 58005 70382 885// 333 91105;
0161013670999992000010403004+60980+009230FM-12+036599999V0201001N001012200019N0300001N1+00181-00531098601ADDAY121031AY221031GF104991041051012501001001MA1999999094251MD1710431+9999MW1011REMSYN072AAXX  04034 01367 41680 41002 10018 21053 39425 49860 57043 70122 84500;
0219013670999992000010406004+60980+009230FM-12+036599999V0203001N001012200019N0300001N1-00021-00271098931ADDAJ100259199999999AY121061AY201061GF104991041051012501001001IA1239KA1120N-00231MA1999999094551MD1510301+9999MW1021REMSYN094AAXX  04064 01367 41680 43002 11002 21027 39455 49893 55030 70220 84500 333 21023 47025 91102;
0180013670999992000010409004+60980+009230FM-12+036599999V0202601N001012200019N0550001N1+00101-00351099351ADDAY121031AY201031GF104991041051012501001001MA1999999094971MD1210421+9999MW1021REMSYN072AAXX  04094 01367 41685 42602 10010 21035 39497 49935 52350 70220 84500;EQDQ01+003502APC3  
0190013670999992000010412004+60980+009230FM-12+036599999V0202401N000512200019N0550001N1+00081-00501099821ADDAY111061AY201061GF102991021021012501001001MA1999999095411MD1210471+9999MW1011REMSYN082AAXX  04124 01367 41685 22401 10008 21050 39541 49982 52350 70110 82200 333 91108;EQDQ01+003502APC3  
0180013670999992000010415004+60980+009230FM-12+036599999V0203001N002112200019N0550001N1+00161-00721100061ADDAY101031AY201031GF101991011021017501001001MA1999999095651MD1210241+9999MW1021REMSYN072AAXX  04154 01367 41785 13004 10016 21072 39565 40006 52240 70200 81200;EQDQ01+002402APC3  
0230013670999992000010418004+60980+009230FM-12+036599999V0201301N000512200019N0550001N1-00391-00741100161ADDAA106000091AY101061AY201061GA1001+999999999GF100991001001999999001001KA1120M+00251MA1999999095721MD1310071+9999MW1021REMSYN082AAXX  04184 01367 31985 01301 11039 21074 39572 40016 53007 70200 333 10025 91108;EQDQ01  00002PRCP06
0171013670999992000010500004+60980+009230FM-12+036599999V0203301N001010075019N0200001N1-00651-00851100071ADDAY121061AY221061GF108991081051008001999999MA1999999095621MD1810111+9999MW1031REMSYN082AAXX  05004 01367 41570 83302 11065 21085 39562 40007 58011 70322 885// 333 91102;
0249013670999992000010506004+60980+009230FM-12+036599999V0200901N000510075019N0200001N1-00661-00821100131ADDAA106000091AJ100259199999999AY121061AY221061GF108991081051008001999999IA1239KA1120N-00781MA1999999095671MD1410001+9999MW1021REMSYN094AAXX  05064 01367 31570 80901 11066 21082 39567 40013 54002 70222 885// 333 21078 47025 91101;EQDQ01  00002PRCP06
0180013670999992000010509004+60980+009230FM-12+036599999V0203301N001012200019N0550001N1-00811-00901100391ADDAY121031AY201031GF101991011041017501001001MA1999999095911MD1210261+9999MW1011REMSYN072AAXX  05094 01367 41785 13302 11081 21090 39591 40039 52240 70120 81400;EQDQ01+002402APC3  
0171013670999992000010512004+60980+009230FM-12+036599999V0203201N001012200019N0550001N1-00861-00991100571ADDAY101061AY201061GF104991041001017501031001MA1999999096081MD1210171+9999MW1031REMSYN082AAXX  05124 01367 41785 43202 11086 21099 39608 40057 52017 70300 84030 333 91106;
0161013670999992000010515004+60980+009230FM-12+036599999V0203501N001010075019N0300001N1-00891-00981100591ADDAY121031AY201031GF108991081051008001999999MA1999999096101MD1310011+9999MW1021REMSYN072AAXX  05154 01367 41580 83502 11089 21098 39610 40059 53001 70220 885//;
0161013670999992000010603004+60980+009230FM-12+036599999V0203601N000510042019N0150001N1+00201-00041099641ADDAY121031AY221031GF108991081061004501999999MA1999999095251MD1810291+9999MW1021REMSYN072AAXX  06034 01367 41465 83601 10020 21004 39525 49964 58029 70222 886//;
0236013670999992000010606004+60980+009230FM-12+036599999V0201401N002610021019N0050001N1+00411+00151099171ADDAA112000791AJ100239199999999AY161061AY221061GF108991061061002501021999IA1239KA1120N-00711MA1999999094841MD1710411+9999MW1601REMSYN100AAXX  06064 01367 11350 81405 10041 20015 39484 49917 57041 69902 76062 8662/ 333 21071 47023 91109;
0161013670999992000010609004+60980+009230FM-12+036599999V0201101N001010300019N0100001N1+00341+00221099101ADDAY161031AY221031GF108991041071004501021999MA1999999094761MD1610081+9999MW1211REMSYN072AAXX  06094 01367 41460 81102 10034 20022 39476 49910 56008 72162 8472/;
0171013670999992000010612004+60980+009230FM-12+036599999V0201301N002110300019N0250001N1+00401+00051098841ADDAY161061AY221061GF106991041021008001091001MA1999999094521MD1810241+9999MW1011REMSYN082AAXX  06124 01367 41575 61304 10040 20005 39452 49884 58024 70162 84290 333 91109;
0161013670999992000010615004+60980+009230FM-12+036599999V0201301N002610300019N0100001N1+00611+00051098531ADDAY181031AY221031GF108991031071012501011999MA1999999094251MD1710271+9999MW1031REMSYN072AAXX  06154 01367 41660 81305 10061 20005 39425 49853 57027 70382 8371/;
0181013670999992000010700004+60980+009230FM-12+036599999V0201201N000512200019N0200001N1-00101-00541099921ADDAY111061AY201061GA1001+999999999GF100991001001999999001001MA1999999095501MD1110151+9999MW1011REMSYN076AAXX  07004 01367 41970 01201 11010 21054 39550 49992 51015 70110 333 91106;
0171013670999992000010703004+60980+009230FM-12+036599999V0203201N001012200019N0200001N1-00061-00611100151ADDAY101031AY201031GA1001+999999999GF100991001001999999001001MA1999999095721MD1110321+9999MW1021REMSYN066AAXX  07034 01367 41970 03202 11006 21061 39572 40015 51032 70200;
0161013670999992000010709004+60980+009230FM-12+036599999V0201301N001010120019N0300001N1+00081-00561100181ADDAY121031AY221031GF106991061051012501071001MA1999999095761MD1310061+9999MW1031REMSYN072AAXX  07094 01367 41680 61302 10008 21056 39576 40018 53006 70322 86570;
0171013670999992000010712004+60980+009230FM-12+036599999V0201301N001510075019N0300001N1+00311-00461099761ADDAY121061AY221061GF105991051051008001071001MA1999999095381MD1810311+9999MW1021REMSYN082AAXX  07124 01367 41580 51303 10031 21046 39538 49976 58031 70222 85570 333 91106;
0161013670999992000010715004+60980+009230FM-12+036599999V0201201N001510120019N0300001N1+00341-00381099571ADDAY121031AY221031GF105991051051012501061001MA1999999095211MD1710171+9999MW1021REMSYN072AAXX  07154 01367 41680 51203 10034 21038 39521 49957 57017 70222 85560;
0220013670999992000010718004+60980+009230FM-12+036599999V0201101N001010075019N0200001N1+00401-00111099251ADDAA106000091AY121061AY221061GF108991081061008001999999KA1120M+00481MA1999999094911MD1610311+9999MW1031REMSYN088AAXX  07184 01367 31570 81102 10040 21011 39491 49925 56031 70322 886// 333 10048 91107;EQDQ01  00002PRCP06
0171013670999992000010800004+60980+009230FM-12+036599999V0201101N001512200019N0250001N1+00491+00141098741ADDAY121061AY201061GF103991031011008001001001MA1999999094441MD1710201+9999MW1031REMSYN082AAXX  08004 01367 41575 31103 10049 20014 39444 49874 57020 70320 83100 333 91108;
0161013670999992000010803004+60980+009230FM-12+036599999V0201301N002112200019N0250001N1+00751-00021098501ADDAY101031AY201031GF101991011011004501001001MA1999999094251MD1710191+9999MW1011REMSYN072AAXX  08034 01367 41475 11304 10075 21002 39425 49850 57019 70100 81100;
0236013670999992000010806004+60980+009230FM-12+036599999V0200401N001010042019N0050001N1+00631+00021098521ADDAA112000191AJ100189199999999AY161061AY201061GF108991081001004501021999IA1239KA1120N+00331MA1999999094251MD1410001+9999MW1611REMSYN100AAXX  08064 01367 11450 80402 10063 20002 39425 49852 54000 69922 76160 8802/ 333 20033 47018 91111;
0161013670999992000010809004+60980+009230FM-12+036599999V0200901N001012200019N0300001N1+00321-00451098761ADDAY101031AY201031GF102991021011999999001001MA1999999094431MD1310191+9999MW1011REMSYN072AAXX  08094 01367 41980 20902 10032 21045 39443 49876 53019 70100 82100;
0171013670999992000010812004+60980+009230FM-12+036599999V0201301N002112200019N0300001N1+00411-00251098821ADDAY111061AY201061GF104991041021022501001001MA1999999094501MD1310071+9999MW1031REMSYN082AAXX  08124 01367 41880 41304 10041 21025 39450 49882 53007 70310 84200 333 91113;
0161013670999992000010815004+60980+009230FM-12+036599999V0201001N000510075019N0100001N1+00381-00081098851ADDAY181031AY221031GF107991071061008001001001MA1999999094531MD1310021+9999MW1031REMSYN072AAXX  08154 01367 41560 71001 10038 21008 39453 49885 53002 70382 87600;
0207013670999992000010818004+60980+009230FM-12+036599999V0201101N001510075019N0100001N1+00331-00051099141ADDAA112000591AY181061AY221061GF107991071051008001001001KA1120M+00631MA1999999094801MD1210281+9999MW1021REMSYN094AAXX  08184 01367 11560 71103 10033 21005 39480 49914 52028 69942 70282 87500 333 10063 91111;
0190013670999992000010900004+60980+009230FM-12+036599999V0201101N001010075019N0100001N1+00321-00171099521ADDAY181061AY221061GF105991051051008001001001MA1999999095161MD1210552+9999MW1021REMSYN082AAXX  09004 01367 41560 51102 10032 21017 39516 49952 52055 70282 85500 333 91114;EQDQ01+000552APC3  
0161013670999992000010903004+60980+009230FM-12+036599999V0200901N000512200019N0250001N1+00101-00201099951ADDAY121031AY201031GF102991021041022501001001MA1999999095531MD1210181+9999MW1011REMSYN072AAXX  09034 01367 41875 20901 10010 21020 39553 49995 52018 70120 82400;
0180013670999992000010909004+60980+009230FM-12+036599999V0203501N000512200019N0750001N1+00041-00261100441ADDAY101031AY201031GF101991011011022501001001MA1999999096001MD1213002+9999MW1011REMSYN072AAXX  09094 01367 41889 13501 10004 21026 39600 40044 52300 70100 81100;EQDQ01+003002APC3  
0190013670999992000010912004+60980+009230FM-12+036599999V0202501N000512200019N0750001N1+00071-00431100741ADDAY101061AY201061GF101991011011022501001001MA1999999096291MD1210301+9999MW1021REMSYN082AAXX  09124 01367 41889 12501 10007 21043 39629 40074 52280 70200 81100 333 91104;EQDQ01+002802APC3  
0180013670999992000010915004+60980+009230FM-12+036599999V0203201N001512200019N0750001N1-00241-00451100981ADDAY101031AY201031GF101991011011022501001001MA1999999096501MD1210241+9999MW1021REMSYN072AAXX  09154 01367 41889 13203 11024 21045 39650 40098 52220 70200 81100;EQDQ01+002202APC3  
0230013670999992000010918004+60980+009230FM-12+036599999V0203301N001012200019N0300001N1-00321-00501101241ADDAA106000091AY101061AY201061GA1001+999999999GF100991001001999999001001KA1120M+00161MA1999999096751MD1210251+9999MW1011REMSYN082AAXX  09184 01367 31980 03302 11032 21050 39675 40124 52025 70100 333 10016 91106;EQDQ01  00002PRCP06
0200013670999992000011000004+60980+009230FM-12+036599999V0203401N000512200019N0300001N1-00551-00591101841ADDAY101061AY201061GA1001+999999999GF100991001001999999001001MA1999999097311MD1212502+9999MW1021REMSYN076AAXX  10004 01367 41980 03401 11055 21059 39731 40184 52250 70200 333 91106;EQDQ01+002502APC3  
0190013670999992000011003004+60980+009230FM-12+036599999V0202801N000512200019N0300001N1-00551-00591102021ADDAY101031AY201031GA1001+999999999GF100991001001999999001001MA1999999097491MD1210181+9999MW1021REMSYN066AAXX  10034 01367 41980 02801 11055 21059 39749 40202 52180 70200;EQDQ01+001802APC3  
0230013670999992000011006004+60980+009230FM-12+036599999V0201601N000512200019N0300001N1-00421-00561102061ADDAA106000091AY101061AY201061GA1001+999999999GF100991001001999999001001KA1120N-00641MA1999999097531MD1210401+9999MW1021REMSYN082AAXX  10064 01367 31980 01601 11042 21056 39753 40206 52040 70200 333 21064 91104;EQDQ01  00002PRCP06
0161013670999992000011009004+60980+009230FM-12+036599999V0202601N000510120019N0300001N1-00311-00521102071ADDAY111031AY201031GF106991061051012501031001MA1999999097541MD1110021+9999MW1031REMSYN072AAXX  10094 01367 41680 62601 11031 21052 39754 40207 51002 70310 86530;
0171013670999992000011012004+60980+009230FM-12+036599999V0202601N000510120019N0300001N1-00111-00471101901ADDAY121061AY221061GF108991081051012501999999MA1999999097391MD1210161+9999MW1031REMSYN082AAXX  10124 01367 41680 82601 11011 21047 39739 40190 52016 70322 885// 333 91104;
0161013670999992000011015004+60980+009230FM-12+036599999V0201501N001010120019N0300001N1+00281-00481101691ADDAY121031AY221031GF108991081051012501999999MA1999999097221MD1810161+9999MW1021REMSYN072AAXX  10154 01367 41680 81502 10028 21048 39722 40169 58016 70222 885//;
0161013670999992000011103004+60980+009230FM-12+036599999V0203401N000512200019N0300001N1+00021-00141101451ADDAY101031AY201031GF102991021061008001001001MA1999999096971MD1410001+9999MW1021REMSYN072AAXX  11034 01367 41580 23401 10002 21014 39697 40145 54000 70200 82600;
0246013670999992000011106004+60980+009230FM-12+036599999V0200101N001012200019N0300001N1-00171-00271101581ADDAA106000091AY101061AY201061GA1001+999999999GF100991001001999999001001KA1120N-00201MA1999999097081MD1310131+9999MW1021REMSYN082AAXX  11064 01367 31980 00102 11017 21027 39708 40158 53120 70200 333 21020 91105;EQDQ01+001202APC3  Q02  00002PRCP06
0161013670999992000011109004+60980+009230FM-12+036599999V0200101N000512200019N0550001N1-00361-00461101671ADDAY101031AY201031GF102991021001999999041001MA1999999097161MD1310061+9999MW1031REMSYN072AAXX  11094 01367 41985 20101 11036 21046 39716 40167 53006 70300 82040;
0171013670999992000011112004+60980+009230FM-12+036599999V0203201N001012200019N0550001N1+00011-00401101711ADDAY101061AY201061GF102991021011999999001001MA1999999097211MD1310061+9999MW1021REMSYN082AAXX  11124 01367 41985 23202 10001 21040 39721 40171 53006 70200 82100 333 91106;
0161013670999992000011115004+60980+009230FM-12+036599999V0202001N000512200019N0300001N1+00051-00361101721ADDAY111031AY201031GF104991041021022501001001MA1999999097231MD1310021+9999MW1031REMSYN072AAXX  11154 01367 41880 42001 10005 21036 39723 40172 53002 70310 84200;
0236013670999992000011118004+60980+009230FM-12+036599999V0202501N000512200019N0750001N1+00031-00341101681ADDAA106000091AY121061AY201061GF104991041041022501001001KA1120M+00331MA1999999097191MD1810041+9999MW1021REMSYN088AAXX  11184 01367 31889 42501 10003 21034 39719 40168 58050 70220 84400 333 10033 91104;EQDQ01+000502APC3  Q02  00002PRCP06
0171013670999992000011200004+60980+009230FM-12+036599999V0200901N000510300019N0200001N1+00111-00301101011ADDAY121061AY211061GF108991031011004501011999MA1999999096551MD1710221+9999MW1031REMSYN082AAXX  12004 01367 41470 80901 10011 21030 39655 40101 57022 70321 8311/ 333 91106;
0161013670999992000011203004+60980+009230FM-12+036599999V0203501N000510150019N0200001N1+00181-00181100801ADDAY101031AY201031GF108991081001017501011999MA1999999096361MD1710201+9999MW1021REMSYN072AAXX  12034 01367 41770 83501 10018 21018 39636 40080 57020 70200 8801/;
0249013670999992000011206004+60980+009230FM-12+036599999V0203201N000510120019N0200001N1-00041-00081100821ADDAA106000091AJ100179199999999AY121061AY221061GF108991081051012501999999IA1239KA1120N-00061MA1999999096361MD1410001+9999MW1021REMSYN094AAXX  12064 01367 31670 83201 11004 21008 39636 40082 54000 70222 885// 333 21006 47017 91104;EQDQ01  00002PRCP06
0161013670999992000011209004+60980+009230FM-12+036599999V0201001N000510120019N0200001N1-00181-00221100911ADDAY121031AY221031GF106991061051012501999999MA1999999096441MD1310101+9999MW1011REMSYN072AAXX  12094 01367 41670 61001 11018 21022 39644 40091 53010 70122 865//;
0171013670999992000011212004+60980+009230FM-12+036599999V0200701N000510300019N0300001N1-00161-00291101161ADDAY121061AY221061GF106991041021012501031001MA1999999096681MD1310241+9999MW1021REMSYN082AAXX  12124 01367 41680 60701 11016 21029 39668 40116 53024 70222 84230 333 91105;
0161013670999992000011215004+60980+009230FM-12+036599999V0203301N000510120019N0200001N1-00291-00361101171ADDAY121031AY221031GF105991051051012501001001MA1999999096681MD1410001+9999MW1021REMSYN072AAXX  12154 01367 41670 53301 11029 21036 39668 40117 54000 70222 85500;
0220013670999992000011218004+60980+009230FM-12+036599999V0203301N002110150019N0200001N1-00551-00611101151ADDAA106000091AY121061AY221061GF108991081001017501011999KA1120M+00001MA1999999096651MD1810041+9999MW1031REMSYN088AAXX  12184 01367 31770 83304 11055 21061 39665 40115 58004 70322 8801/ 333 10000 91106;EQDQ01  00002PRCP06
0171013670999992000011300004+60980+009230FM-12+036599999V0203001N001010300019N0200001N1-00351-00421100891ADDAY121061AY221061GF105991021011002501091001MA1999999096411MD1610041+9999MW1011REMSYN082AAXX  13004 01367 41370 53002 11035 21042 39641 40089 56004 70122 82190 333 91106;
0161013670999992000011303004+60980+009230FM-12+036599999V0203101N001010150019N0200001N1-00641-00711101021ADDAY121031AY221031GF108991081001017501011999MA1999999096531MD1310111+9999MW1031REMSYN072AAXX  13034 01367 41770 83102 11064 21071 39653 40102 53011 70322 8801/;
0249013670999992000011306004+60980+009230FM-12+036599999V0203101N000510150019N0200001N1-00691-00761101131ADDAA106000091AJ100179199999999AY121061AY221061GF108991081001017501021999IA1239KA1120N-00741MA1999999096631MD1210101+9999MW1021REMSYN094AAXX  13064 01367 31770 83101 11069 21076 39663 40113 52010 70222 8802/ 333 21074 47017 91105;EQDQ01  00002PRCP06
0180013670999992000011309004+60980+009230FM-12+036599999V0203301N002110150019N0550001N1-00741-00861101481ADDAY121031AY221031GF108991081001017501021999MA1999999096961MD1210351+9999MW1021REMSYN072AAXX  13094 01367 41785 83304 11074 21086 39696 40148 52340 70222 8802/;EQDQ01+003402APC3  
0190013670999992000011312004+60980+009230FM-12+036599999V0203301N002112200019N0550001N1-00711-00871101691ADDAY111061AY201061GF103991031051017501001001MA1999999097161MD1210211+9999MW1011REMSYN082AAXX  13124 01367 41785 33304 11071 21087 39716 40169 52200 70110 83500 333 91107;EQDQ01+002002APC3  
0180013670999992000011315004+60980+009230FM-12+036599999V0203401N001512200019N0550001N1-00741-00911101961ADDAY101031AY201031GF103991031051017501001001MA1999999097421MD1210271+9999MW1021REMSYN072AAXX  13154 01367 41785 33403 11074 21091 39742 40196 52260 70200 83500;EQDQ01+002602APC3  
0220013670999992000011318004+60980+009230FM-12+036599999V0203201N002112200019N0550001N1-01031-01191102211ADDAA106000091AY101061AY201061GF101991011011022501001001KA1120M-00451MA1999999097641MD1210211+9999MW1011REMSYN088AAXX  13184 01367 31885 13204 11103 21119 39764 40221 52021 70100 81100 333 11045 91107;EQDQ01  00002PRCP06
0185013670999992000011400004+60980+009230FM-12+036599999V0203201N002112200019N0300001N1-01311-01471102561ADDAY101061AY201061GA1001+999999999GF100991001001999999001001MA1999999097961MD1210321+9999MW1021REMSYN080    AAXX  14004 01367 41980 03204 11131 21147 39796 40256 52032 70200 333 91106;
0160013670999992000011403004+60980+009230FM-12+036599999V0203201N002112200019N0300001N1-01401-01561999999ADDAY101031AY201031GA1001+999999999GF100991001001999999001001MD1310101+9999MW1021REMSYN070    AAXX  14034 01367 41980 03204 11140 21156 3//// 4//// 53010 70200;
0263013670999992000011406004+60980+009230FM-12+036599999V0203301N002112200019N0300001N1-01471-01631102941ADDAA199000091AJ100179199999999AY101061AY201061GA1001+999999999GF100991001001999999001001IA1239KA1120N-01481MA1999999098321MD1210261+9999MW1021REMSYN092    AAXX  14064 01367 31980 03304 11147 21163 39832 40294 52026 70200 333 21148 47017 91106;EQDQ01  00002PRCP99
0175013670999992000011409004+60980+009230FM-12+036599999V0203301N001512200019N0550001N1-01481-01641103061ADDAY101031AY201031GA1001+999999999GF100991001001999999001001MA1999999098431MD1210111+9999MW1021REMSYN070    AAXX  14094 01367 41985 03303 11148 21164 39843 40306 52011 70200;
0175013670999992000011412004+60980+009230FM-12+036599999V0203201N001512200019N0550001N1-01291-01521103111ADDAY101061AY201061GF101991011011022501001001MA1999999098491MD1110071+9999MW1031REMSYN086    AAXX  14124 01367 41885 13203 11129 21152 39849 40311 51007 70300 81100 333 91106;
0175013670999992000011415004+60980+009230FM-12+036599999V0203301N002112200019N0550001N1-01321-01511103011ADDAY101031AY201031GA1001+999999999GF100991001001999999001001MA1999999098391MD1010111+9999MW1011REMSYN070    AAXX  14154 01367 41985 03304 11132 21151 39839 40301 50011 70100;
0250013670999992000011418004+60980+009230FM-12+036599999V0203301N001512200019N0750001N1-01441-01631103221ADDAA199000091AY101061AY201061GA1001+999999999GF100991001001999999001001KA1120M-01141MA1999999098591MD1210211+9999MW1021REMSYN086    AAXX  14184 01367 31989 03303 11144 21163 39859 40322 52200 70200 333 11114 91106;EQDQ01+002002APC3  Q02  00002PRCP99
0204013670999992000011500004+60980+009230FM-12+036599999V0203101N002112200019N0550001N1-01521-01711103301ADDAY101061AY201061GA1001+999999999GF100991001001999999001001MA1999999098651MD1210702+9999MW1021REMSYN080    AAXX  15004 01367 41985 03104 11152 21171 39865 40330 52070 70200 333 91106;EQDQ01+000702APC3  
0210013670999992000011503004+60980+009230FM-12+036599999V0203201N001512200019N0550001N1-01341-01531102152ADDAY101031AY201031GA1001+999999999GF100991001001999999001001MA1999999999999MD1810902+9999MW1021REMSYN070    AAXX  15034 01367 41985 03203 11134 21153 39757 40215 58090 70200;EQDQ01+000902APC3  Q02 097573APOSP 
0343013670999992000011506004+60980+009230FM-12+036599999V0203301N001512200019N0550001N1+99999+99999102821ADDAA199000091AJ100179199999999AY101061AY201061GA1001+999999999GF100991001001999999001001IA1239KA1120N-01601MA1999999098442MD1210671+9999MW1021REMSYN092    AAXX  15064 01367 31985 03303 10112 20086 39844 40282 57130 70200 333 21160 47017 91107;EQDQ01+001123ATOT  Q02+000863ATOD  Q03+098443APOSP Q04+000072APCTENQ05+001302APC3  Q06  00002PRCP99
0200013670999992000011509004+60980+009230FM-12+036599999V0203501N001012200019N0750001N1-00971-01131102881ADDAY101031AY201031GF102991021041017501001001MA1999999098281MD1210061+9999MW1021REMSYN076    AAXX  15094 01367 41789 23502 11097 21113 39828 40288 57150 70200 82400;EQDQ01+000072APCTENQ02+001502APC3  
0175013670999992000011512004+60980+009230FM-12+036599999V0201301N000512200019N0750001N1-00441-00701102811ADDAY101061AY201061GF101991011011017501001001MA1999999098251MD1810401+9999MW1021REMSYN086    AAXX  15124 01367 41789 11301 11044 21070 39825 40281 58040 70200 81100 333 91107;
0184013670999992000011515004+60980+009230FM-12+036599999V0203201N000512200019N0750001N1-00421-00541102631ADDAY121031AY201031GF104991041041017501001001MA1999999098071MD1710181+9999MW1021REMSYN076    AAXX  15154 01367 41789 43201 11042 21054 39807 40263 57180 70220 84400;EQDQ01+001802APC3  
0224013670999992000011518004+60980+009230FM-12+036599999V0203201N001010075019N0300001N1-00101-00241102491ADDAA199000091AY121061AY221061GF108991081051008001999999KA1120M+00041MA1999999097961MD1610111+9999MW1031REMSYN092    AAXX  15184 01367 31580 83202 11010 21024 39796 40249 56011 70322 885// 333 10004 91102;EQDQ01  00002PRCP99
0185013670999992000011600004+60980+009230FM-12+036599999V0201101N000512200019N0300001N1-00291-00391102631ADDAY101061AY201061GA1001+999999999GF100991001001999999001001MA1999999098081MD1610301+9999MW1011REMSYN080    AAXX  16004 01367 41980 01101 11029 21039 39808 40263 56030 70100 333 91104;
0194013670999992000011603004+60980+009230FM-12+036599999V0203501N000512200019N0300001N1-00031-00281102401ADDAY101031AY201031GA1001+999999999GF100991001001999999001001MA1999999097871MD1710231+9999MW1021REMSYN070    AAXX  16034 01367 41980 03501 11003 21028 39787 40240 57210 70200;EQDQ01+002102APC3  
0279013670999992000011606004+60980+009230FM-12+036599999V0200201N001012200019N0300001N1+00561-00201102131ADDAA199000091AJ100179199999999AY101061AY201061GA1001+999999999GF100991001001999999001001IA1239KA1120N-00341MA1999999097691MD1710271+9999MW1021REMSYN092    AAXX  16064 01367 31980 00202 10056 21020 39769 40213 57170 70200 333 21034 47017 91109;EQDQ01+001702APC3  Q02  00002PRCP99
0165013670999992000011609004+60980+009230FM-12+036599999V0201301N000510120019N0550001N1+00531-00111101631ADDAY121031AY201031GF105991051041012501011001MA1999999097211MD1710491+9999MW1031REMSYN076    AAXX  16094 01367 41685 51301 10053 21011 39721 40163 57049 70320 85410;
0175013670999992000011612004+60980+009230FM-12+036599999V0202701N001512200019N0300001N1+00841-00091101471ADDAY121061AY211061GF104991041011012501031001MA1999999097101MD1710201+9999MW1011REMSYN086    AAXX  16124 01367 41680 42703 10084 21009 39710 40147 57020 70121 84130 333 91116;
0165013670999992000011615004+60980+009230FM-12+036599999V0202901N002112200019N0300001N1+00811-00041101211ADDAY101031AY201031GF101991011011999999001001MA1999999096851MD1710321+9999MW1011REMSYN076    AAXX  16154 01367 41980 12904 10081 21004 39685 40121 57032 70100 81100;
0224013670999992000011618004+60980+009230FM-12+036599999V0203501N002112200019N0300001N1+00791-00031101121ADDAA199000091AY101061AY201061GF101991011001017501071001KA1120M+00901MA1999999096761MD1610131+9999MW1021REMSYN092    AAXX  16184 01367 31780 13504 10079 21003 39676 40112 56013 70200 81070 333 10090 91114;EQDQ01  00002PRCP99
0175013670999992000011700004+60980+009230FM-12+036599999V0203201N001512200019N0300001N1+00661-00151100801ADDAY101061AY201061GF101991011001017501071001MA1999999096431MD1810161+9999MW1021REMSYN086    AAXX  17004 01367 41780 13203 10066 21015 39643 40080 58016 70200 81070 333 91116;
0175013670999992000011703004+60980+009230FM-12+036599999V0202801N001512200019N0300001N1+00651-00111100691ADDAY101031AY201031GA1001+999999999GF100991001001999999001001MA1999999096331MD1710101+9999MW1011REMSYN070    AAXX  17034 01367 41980 02803 10065 21011 39633 40069 57010 70100;
0253013670999992000011706004+60980+009230FM-12+036599999V0202801N001512200019N0300001N1+00661-00101100721ADDAA199000091AJ100159199999999AY101061AY201061GF101991011001017501071001IA1239KA1120N+00531MA1999999096361MD1310021+9999MW1031REMSYN098    AAXX  17064 01367 31780 12803 10066 21010 39636 40072 53002 70300 81070 333 20053 47015 91111;EQDQ01  00002PRCP99
0165013670999992000011709004+60980+009230FM-12+036599999V0202701N002112200019N0300001N1+00571-00211100631ADDAY121031AY201031GF105991031011008001001011MA1999999096261MD1810101+9999MW1031REMSYN076    AAXX  17094 01367 41580 52704 10057 21021 39626 40063 58010 70320 83101;
0175013670999992000011712004+60980+009230FM-12+036599999V0203001N001512200019N0300001N1+00631-00201100601ADDAY121061AY221061GF103991031021012501001001MA1999999096241MD1710021+9999MW1011REMSYN086    AAXX  17124 01367 41680 33003 10063 21020 39624 40060 57002 70122 83200 333 91113;
0165013670999992000011715004+60980+009230FM-12+036599999V0202401N001512200019N0300001N1+00531-00301100781ADDAY111031AY201031GF104991021041012501001011MA1999999096391MD1310161+9999MW1031REMSYN076    AAXX  17154 01367 41680 42403 10053 21030 39639 40078 53016 70310 82401;
0250013670999992000011718004+60980+009230FM-12+036599999V0203601N002112200019N0300001N1+00401-00541100901ADDAA199000091AY101061AY201061GA1001+999999999GF100991001001999999001001KA1120M+00661MA1999999096491MD1210121+9999MW1011REMSYN086    AAXX  17184 01367 31980 03604 10040 21054 39649 40090 52100 70100 333 10066 91111;EQDQ01+001002APC3  Q02  00002PRCP99
0194013670999992000011800004+60980+009230FM-12+036599999V0202701N001512200019N0750001N1+00301-00471100781ADDAY101061AY201061GF101991011011017501001001MA1999999096361MD1810802+9999MW1021REMSYN086    AAXX  18004 01367 41789 12703 10030 21047 39636 40078 58080 70200 81100 333 91109;EQDQ01+000802APC3  
0184013670999992000011803004+60980+009230FM-12+036599999V0202901N001012200019N0750001N1+00121-00831100981ADDAY101031AY201031GF101991011011017501001001MA1999999096521MD1210201+9999MW1021REMSYN076    AAXX  18034 01367 41789 12902 10012 21083 39652 40098 52170 70200 81100;EQDQ01+001702APC3  
0279013670999992000011806004+60980+009230FM-12+036599999V0203301N001012200019N0750001N1+00011-00851101341ADDAA199000091AJ100109199999999AY101061AY201061GA1001+999999999GF100991001001999999001001IA1239KA1120N+00001MA1999999096861MD1210361+9999MW1021REMSYN092    AAXX  18064 01367 31989 03302 10001 21085 39686 40134 52350 70200 333 20000 47010 91110;EQDQ01+003502APC3  Q02  00002PRCP99
0175013670999992000011809004+60980+009230FM-12+036599999V0200301N000512200019N0750001N1-00231-00771101571ADDAY101031AY201031GA1001+999999999GF100991001001999999001001MA1999999097071MD1210121+9999MW1021REMSYN070    AAXX  18094 01367 41989 00301 11023 21077 39707 40157 52012 70200;
0165013670999992000011815004+60980+009230FM-12+036599999V0202501N001012200019N0300001N1+00101-00981101911ADDAY101031AY201031GF101991011011999999001001MA1999999097411MD1410001+9999MW1011REMSYN076    AAXX  18154 01367 41980 12502 10010 21098 39741 40191 54001 70100 81100;
0224013670999992000011818004+60980+009230FM-12+036599999V0202501N001512200019N0300001N1+00081-00971102091ADDAA199000091AY121061AY201061GF106991011011012501001011KA1120M+00231MA1999999097581MD1110181+9999MW1031REMSYN092    AAXX  18184 01367 31680 62503 10008 21097 39758 40209 51018 70320 81101 333 10023 91107;EQDQ01  00002PRCP99
0175013670999992000011900004+60980+009230FM-12+036599999V0203401N001512200019N0300001N1-00521-00951102251ADDAY101061AY201061GF101991011011999999001001MA1999999097711MD1410001+9999MW1011REMSYN086    AAXX  19004 01367 41980 13403 11052 21095 39771 40225 54005 70100 81100 333 91103;
0175013670999992000011903004+60980+009230FM-12+036599999V0202501N000512200019N0300001N1-00641-00901102191ADDAY101031AY201031GA1001+999999999GF100991001001999999001001MA1999999097641MD1010051+9999MW1011REMSYN070    AAXX  19034 01367 41980 02501 11064 21090 39764 40219 50005 70100;
0165013670999992000011909004+60980+009230FM-12+036599999V0203201N000512200019N0300001N1-00651-00821102191ADDAY101031AY201031GF102991001001999999001081MA1999999097641MD1310101+9999MW1031REMSYN076    AAXX  19094 01367 41980 23201 11065 21082 39764 40219 53010 70300 80008;
0175013670999992000011912004+60980+009230FM-12+036599999V0202501N000512200019N0300001N1-00291-00661102101ADDAY101061AY201061GF103991021001022501031051MA1999999097581MD1010071+9999MW1031REMSYN086    AAXX  19124 01367 41880 32501 11029 21066 39758 40210 50007 70300 82035 333 91105;
0165013670999992000011915004+60980+009230FM-12+036599999V0203001N001012200019N0300001N1-00201-00561102001ADDAY121031AY201031GF105991021001022501031061MA1999999097491MD1710091+9999MW1031REMSYN076    AAXX  19154 01367 41880 53002 11020 21056 39749 40200 57009 70320 82036;
0220013670999992000011918004+60980+009230FM-12+036599999V0202901N000512200019N0300001N1+00011-00491101861ADDAA199000091AY121061AY201061GF104991021001022501031051KA1120M+00191MA1999999097361MD1610121+9999MW1011REMSYN088AAXX  19184 01367 31880 42901 10001 21049 39736 40186 56012 70120 82035 333 10019 91107;EQDQ01  00002PRCP99
0181013670999992000012000004+60980+009230FM-12+036599999V0203101N001512200019N0300001N1+00461-00321101311ADDAY101061AY201061GA1001+999999999GF100991001001999999001001MA1999999096891MD1810481+9999MW1011REMSYN076AAXX  20004 01367 41980 03103 10046 21032 39689 40131 58048 70100 333 91105;
0214013670999992000012006004+60980+009230FM-12+036599999V0202601N002612200019N0300001N1+00491-00411100641ADDAA199000091AY101061AY201061GF101991999999999999999999KA1120N-00021MA1999999096251MD1710101+9999MW1021REMSYN082AAXX  20064 01367 31980 12605 10049 21041 39625 40064 57010 70200 333 21002 91106;EQDQ01  00002PRCP99
0180013670999992000012009004+60980+009230FM-12+036599999V0200801N000512200019N0300001N1+00231-00381100821ADDAY111031AY201031GF103991031011022501001001MA1999999096391MD1310181+9999MW1031REMSYN072AAXX  20094 01367 41880 30801 10023 21038 39639 40082 53130 70310 83100;EQDQ01+001302APC3  
0190013670999992000012012004+60980+009230FM-12+036599999V0202601N001512200019N0550001N1+00481-00501100831ADDAY101061AY201061GF103991031021022501001001MA1999999096431MD1210011+9999MW1021REMSYN082AAXX  20124 01367 41885 32603 10048 21050 39643 40083 52050 70200 83200 333 91109;EQDQ01+000502APC3  
0161013670999992000012015004+60980+009230FM-12+036599999V0203001N001512200019N0550001N1+00281-00631100861ADDAY101031AY201031GF103991031021022501001001MA1999999096431MD1410001+9999MW1021REMSYN072AAXX  20154 01367 41885 33003 10028 21063 39643 40086 54000 70200 83200;
0220013670999992000012018004+60980+009230FM-12+036599999V0202501N000512200019N0300001N1+00001-00671100891ADDAA199000091AY121061AY201061GF106991021011008001001011KA1120M+00531MA1999999096431MD1410001+9999MW1031REMSYN088AAXX  20184 01367 31580 62501 10000 21067 39643 40089 54000 70320 82101 333 10053 91111;EQDQ01  00002PRCP99
0171013670999992000012100004+60980+009230FM-12+036599999V0202501N000512200019N0300001N1-00251-00831101231ADDAY181061AY251061GF103991031021017501001001MA1999999096741MD1310131+9999MW1011REMSYN082AAXX  21004 01367 41780 32501 11025 21083 39674 40123 53013 70185 83200 333 91107;
0161013670999992000012103004+60980+009230FM-12+036599999V0203501N000510120019N0300001N1-00481-00981101471ADDAY121031AY211031GF107991071051012501001001MA1999999096961MD1110211+9999MW1031REMSYN072AAXX  21034 01367 41680 73501 11048 21098 39696 40147 51021 70321 87500;
0190013670999992000012112004+60980+009230FM-12+036599999V0203001N000512200019N0750001N1-00481-01251102161ADDAY101061AY201061GF101991011011017501001011MA1999999097621MD1111202+9999MW1021REMSYN082AAXX  21124 01367 41789 13001 11048 21125 39762 40216 51120 70200 81101 333 91103;EQDQ01+001202APC3  
0180013670999992000012115004+60980+009230FM-12+036599999V0201201N000510150019N0750001N1-00531-01171101981ADDAY121031AY201031GF106991061041017501001001MA1999999097451MD1710181+9999MW1021REMSYN072AAXX  21154 01367 41789 61201 11053 21117 39745 40198 57180 70220 86400;EQDQ01+001802APC3  
0220013670999992000012118004+60980+009230FM-12+036599999V0209999C000010210019N0250001N1-00681-01131101651ADDAA199000091AY121061AY201061GF108991081001022501021999KA1120M-00371MA1999999097121MD1710321+9999MW1031REMSYN088AAXX  21184 01367 31875 80000 11068 21113 39712 40165 57032 70320 8802/ 333 11037 91103;EQDQ01  00002PRCP99
0171013670999992000012200004+60980+009230FM-12+036599999V0203201N001010042019N0100001N1-00771-00831101021ADDAY171061AY221061GF108991081071004501999999MA1999999096521MD1710301+9999MW1711REMSYN082AAXX  22004 01367 41460 83202 11077 21083 39652 40102 57030 77172 887// 333 91103;
0161013670999992000012203004+60980+009230FM-12+036599999V0203001N000510210019N0150001N1-00791-00891100901ADDAY171031AY221031GF108991081001022501021999MA1999999096401MD1610111+9999MW1021REMSYN072AAXX  22034 01367 41865 83001 11079 21089 39640 40090 56011 70272 8802/;
0236013670999992000012206004+60980+009230FM-12+036599999V0203301N000512200019N0250001N1-00931-01001100981ADDAA112001091AJ100119199999999AY171061AY221061GF104991041001022501011001IA1239KA1120N-00931MA1999999096471MD1310071+9999MW1011REMSYN100AAXX  22064 01367 11875 43301 11093 21100 39647 40098 53007 60012 70172 84010 333 21093 47011 91104;
0161013670999992000012209004+60980+009230FM-12+036599999V0203301N001510300019N0250001N1-01151-01271101191ADDAY121031AY211031GF107991031071012501091001MA1999999096661MD1210191+9999MW1031REMSYN072AAXX  22094 01367 41675 73303 11115 21127 39666 40119 52019 70321 83790;
0171013670999992000012212004+60980+009230FM-12+036599999V0203001N000510300019N0250001N1-00951-01151101291ADDAY121061AY211061GF108991031051012501091999MA1999999096771MD1210121+9999MW1031REMSYN082AAXX  22124 01367 41675 83001 11095 21115 39677 40129 52012 70321 8359/ 333 91104;
0161013670999992000012215004+60980+009230FM-12+036599999V0203101N001010210019N0250001N1-00911-01111101291ADDAY121031AY221031GF107991071001022501091001MA1999999096771MD1410001+9999MW1011REMSYN072AAXX  22154 01367 41875 73102 11091 21111 39677 40129 54000 70122 87090;
0236013670999992000012218004+60980+009230FM-12+036599999V0203101N001010210019N0300001N1-00941-01101101361ADDAA199000091AY121061AY221061GF108991081051022501999999KA1120M-00881MA1999999096831MD1110071+9999MW1021REMSYN088AAXX  22184 01367 31880 83102 11094 21110 39683 40136 51050 70222 885// 333 11088 91104;EQDQ01+000502APC3  Q02  00002PRCP99
0171013670999992000012300004+60980+009230FM-12+036599999V0203201N001012200019N0250001N1-01021-01141101771ADDAY121061AY201061GF102991001001999999001011MA1999999097221MD1210151+9999MW1011REMSYN082AAXX  23004 01367 41975 23202 11102 21114 39722 40177 52015 70120 80001 333 91104;
0171013670999992000012303004+60980+009230FM-12+036599999V0202301N001012200019N0250001N1-01291-01381102001ADDAY101031AY201031GA1001+999999999GF100991001001999999001001MA1999999097421MD1210201+9999MW1011REMSYN066AAXX  23034 01367 41975 02302 11129 21138 39742 40200 52020 70100;
0249013670999992000012306004+60980+009230FM-12+036599999V0203201N001512200019N0250001N1-01311-01431102101ADDAA199000091AJ100119199999999AY101061AY201061GF101991001001999999001031IA1239KA1120N-01421MA1999999097521MD1210101+9999MW1031REMSYN094AAXX  23064 01367 31975 13203 11131 21143 39752 40210 52010 70300 80003 333 21142 47011 91106;EQDQ01  00002PRCP99
0180013670999992000012309004+60980+009230FM-12+036599999V0203201N002112200019N0750001N1-01361-01491102281ADDAY101031AY201031GF101991011041022501001001MA1999999097691MD1210181+9999MW1021REMSYN072AAXX  23094 01367 41889 13204 11136 21149 39769 40228 52170 70200 81400;EQDQ01+001702APC3  
0190013670999992000012312004+60980+009230FM-12+036599999V0203301N001510210019N0750001N1-01141-01331102201ADDAY121061AY201061GF106991061041022501001001MA1999999097631MD1810081+9999MW1031REMSYN082AAXX  23124 01367 41889 63303 11114 21133 39763 40220 58060 70320 86400 333 91105;EQDQ01+000602APC3  
0161013670999992000012315004+60980+009230FM-12+036599999V0203201N001010210019N0750001N1-01031-01261102171ADDAY121031AY221031GF106991061041022501001001MA1999999097601MD1810301+9999MW1021REMSYN072AAXX  23154 01367 41889 63202 11103 21126 39760 40217 58030 70222 86400;
0230013670999992000012318004+60980+009230FM-12+036599999V0203301N002112200019N0750001N1-01291-01421102141ADDAA199000091AY121061AY201061GA1001+999999999GF100991001001999999001001KA1120M-01021MA1999999097571MD1810401+9999MW1011REMSYN082AAXX  23184 01367 31989 03304 11129 21142 39757 40214 58040 70120 333 11102 91106;EQDQ01  00002PRCP99
0181013670999992000012400004+60980+009230FM-12+036599999V0203001N001012200019N0300001N1-01421-01571102181ADDAY101061AY201061GA1001+999999999GF100991001001999999001001MA1999999097591MD1410001+9999MW1021REMSYN076AAXX  24004 01367 41980 03002 11142 21157 39759 40218 54000 70200 333 91106;
0190013670999992000012403004+60980+009230FM-12+036599999V0203101N001512200019N0300001N1-01371-01531101981ADDAY101031AY201031GA1001+999999999GF100991001001999999001001MA1999999097401MD1810201+9999MW1021REMSYN066AAXX  24034 01367 41980 03103 11137 21153 39740 40198 58190 70200;EQDQ01+001902APC3  
0275013670999992000012406004+60980+009230FM-12+036599999V0203301N001512200019N0300001N1-01251-01421101871ADDAA199000091AJ100119199999999AY101061AY201061GA1001+999999999GF100991001001999999001001IA1239KA1120N-01501MA1999999097311MD1710111+9999MW1021REMSYN088AAXX  24064 01367 31980 03303 11125 21142 39731 40187 57100 70200 333 21150 47011 91106;EQDQ01+001002APC3  Q02  00002PRCP99
0161013670999992000012409004+60980+009230FM-12+036599999V0203301N002112200019N0300001N1-01351-01501101921ADDAY101031AY201031GF102991021011022501031011MA1999999097341MD1410001+9999MW1031REMSYN072AAXX  24094 01367 41880 23304 11135 21150 39734 40192 54004 70300 82131;
0171013670999992000012412004+60980+009230FM-12+036599999V0203201N001512200019N0300001N1-00951-01191101911ADDAY111061AY201061GF104991041021022501021011MA1999999097361MD1410001+9999MW1031REMSYN082AAXX  24124 01367 41880 43203 11095 21119 39736 40191 54002 70310 84221 333 91107;
0161013670999992000012415004+60980+009230FM-12+036599999V0203301N001512200019N0300001N1-00911-01081101891ADDAY101031AY201031GF101991011011999999001001MA1999999097341MD1410001+9999MW1011REMSYN072AAXX  24154 01367 41980 13303 11091 21108 39734 40189 54003 70100 81100;
0220013670999992000012418004+60980+009230FM-12+036599999V0203201N001012200019N0300001N1-01001-01131102131ADDAA199000091AY101061AY201061GF103991011011022501031001KA1120M-00751MA1999999097561MD1310221+9999MW1031REMSYN088AAXX  24184 01367 31880 33202 11100 21113 39756 40213 53022 70300 81130 333 11075 91106;EQDQ01  00002PRCP99
0190013670999992000012500004+60980+009230FM-12+036599999V0203301N002110150019N0250001N1-01201-01291102271ADDAY121061AY211061GF106991061001017501031001MA1999999097691MD1210602+9999MW1031REMSYN082AAXX  25004 01367 41775 63304 11120 21129 39769 40227 52060 70321 86030 333 91106;EQDQ01+000602APC3  
0196013670999992000012503004+60980+009230FM-12+036599999V0203301N002119999999N0250001N1-01141-01261102121ADDAY121031AY201031GF106991001001999999001081MA1999999097551MD1710151+9999MW1011REMSYN072AAXX  25034 01367 41975 63304 11114 21126 39755 40212 50130 70120 80008;EQDQ01+000002APCTENQ02+001302APC3  
0246013670999992000012506004+60980+009230FM-12+036599999V0203301N001012200019N0300001N1-01181-01301101971ADDAA199000091AY101061AY201061GA1001+999999999GF100991001001999999001001KA1120N-01231MA1999999097401MD1710151+9999MW1021REMSYN082AAXX  25064 01367 31980 03302 11118 21130 39740 40197 57150 70200 333 21123 91106;EQDQ01+001502APC3  Q02  00002PRCP99
0161013670999992000012509004+60980+009230FM-12+036599999V0203301N001519999999N0300001N1-01161-01291102011ADDAY121031AY201031GF106991001001999999001011MA1999999097451MD1410001+9999MW1031REMSYN072AAXX  25094 01367 41980 63303 11116 21129 39745 40201 54000 70320 80001;
0171013670999992000012512004+60980+009230FM-12+036599999V0203101N001519999999N0300001N1-00841-01051101951ADDAY121061AY201061GF108991001001999999001011MA1999999097411MD1410001+9999MW1021REMSYN082AAXX  25124 01367 41980 83103 11084 21105 39741 40195 54000 70220 80001 333 911//;
0161013670999992000012515004+60980+009230FM-12+036599999V0203301N001519999999N0300001N1-00731-00931101951ADDAY121031AY221031GF108991001001999999001011MA1999999097411MD1410001+9999MW1021REMSYN072AAXX  25154 01367 41980 83303 11073 21093 39741 40195 54000 70222 80001;
0246013670999992000012518004+60980+009230FM-12+036599999V0203301N001512200019N0300001N1-00751-00871102111ADDAA199000091AY101061AY201061GA1001+999999999GF100991001001999999001001KA1120M-00591MA1999999097561MD1210161+9999MW1021REMSYN082AAXX  25184 01367 31980 03303 11075 21087 39756 40211 52160 70200 333 11059 91107;EQDQ01+001602APC3  Q02  00002PRCP99
0171013670999992000012600004+60980+009230FM-12+036599999V0200101N001012200019N0300001N1-00481-00581101701ADDAY101061AY201061GF103991031001022501031001MA1999999097181MD1010381+9999MW1031REMSYN082AAXX  26004 01367 41880 30102 11048 21058 39718 40170 50038 70300 83030 333 91109;
0161013670999992000012603004+60980+009230FM-12+036599999V0202801N000512200019N0300001N1-00091-00191101511ADDAY101031AY201031GF104991041001022501031001MA1999999097021MD1810171+9999MW1021REMSYN072AAXX  26034 01367 41880 42801 11009 21019 39702 40151 58017 70200 84030;
0220013670999992000012606004+60980+009230FM-12+036599999V0203101N000512200019N0300001N1+00231+00041101311ADDAA199000091AY101061AY201061GF104991021011022501031001KA1120N-00801MA1999999096861MD1710161+9999MW1021REMSYN088AAXX  26064 01367 31880 43101 10023 20004 39686 40131 57016 70200 82130 333 21080 91106;EQDQ01  00002PRCP99
0161013670999992000012609004+60980+009230FM-12+036599999V0202901N001512200019N0300001N1+00531-00401101261ADDAY111031AY201031GF102991021001999999071001MA1999999096861MD1410001+9999MW1011REMSYN072AAXX  26094 01367 41980 22903 10053 21040 39686 40126 54000 70110 82070;
0171013670999992000012612004+60980+009230FM-12+036599999V0202901N001519999999N0300001N1+00611-00381101251ADDAY121061AY211061GF105991031001999999041091MA1999999096851MD1410001+9999MW1031REMSYN082AAXX  26124 01367 41980 52903 10061 21038 39685 40125 54000 70321 83049 333 91111;
0161013670999992000012615004+60980+009230FM-12+036599999V0202101N000512200019N0300001N1+00431-00371101141ADDAY121031AY201031GF103991011021012501071001MA1999999096731MD1710131+9999MW1011REMSYN072AAXX  26154 01367 41680 32101 10043 21037 39673 40114 57013 70120 81270;
0230013670999992000012618004+60980+009230FM-12+036599999V0202601N001012200019N0300001N1+00461-00321101121ADDAA199000091AY121061AY201061GA1001+999999999GF100991001001999999001001KA1120M+00661MA1999999096711MD1610011+9999MW1011REMSYN082AAXX  26184 01367 31980 02602 10046 21032 39671 40112 56001 70120 333 10066 91109;EQDQ01  00002PRCP99
0181013670999992000012700004+60980+009230FM-12+036599999V0202901N000512200019N0300001N1+00351-00421101091ADDAY101061AY201061GA1001+999999999GF100991001001999999001001MA1999999096671MD1610051+9999MW1021REMSYN076AAXX  27004 01367 41980 02901 10035 21042 39667 40109 56005 70200 333 91110;
0161013670999992000012703004+60980+009230FM-12+036599999V0202801N001012200019N0300001N1+00271-00521101011ADDAY111031AY201031GF104991021041022501001081MA1999999096571MD1610091+9999MW1031REMSYN072AAXX  27034 01367 41880 42802 10027 21052 39657 40101 56009 70310 82408;
0249013670999992000012706004+60980+009230FM-12+036599999V0201701N000512200019N0300001N1+00151-00351100791ADDAA199000091AJ100119199999999AY111061AY201061GF104991021041022501001081IA1239KA1120N-00121MA1999999096351MD1710231+9999MW1021REMSYN094AAXX  27064 01367 31880 41701 10015 21035 39635 40079 57023 70210 82408 333 21012 47011 91111;EQDQ01  00002PRCP99
0161013670999992000012709004+60980+009230FM-12+036599999V0200801N000512200019N0300001N1-00281-00541100361ADDAY111031AY201031GF104991041041022501031021MA1999999095911MD1710431+9999MW1021REMSYN072AAXX  27094 01367 41880 40801 11028 21054 39591 40036 57043 70210 84432;
0171013670999992000012712004+60980+009230FM-12+036599999V0203301N001012200019N0300001N1+00221-00391099721ADDAY181061AY211061GF103991021041022501031001MA1999999095331MD1710581+9999MW1011REMSYN082AAXX  27124 01367 41880 33302 10022 21039 39533 49972 57058 70181 82430 333 91104;
0161013670999992000012715004+60980+009230FM-12+036599999V0203101N001512200019N0300001N1+00331-00441099631ADDAY101031AY201031GF102991021011022501021001MA1999999095261MD1610071+9999MW1021REMSYN072AAXX  27154 01367 41880 23103 10033 21044 39526 49963 56007 70200 82120;
0226013670999992000012718004+60980+009230FM-12+036599999V0202001N000512200019N0750001N1-00201-00511099541ADDAA112000791AY101061AY201061GF101991011011022501001001KA1120M+00391MA1999999095131MD1610091+9999MW1021REMSYN094AAXX  27184 01367 11889 12001 11020 21051 39513 49954 56130 69902 70200 81100 333 10039 91105;EQDQ01+001302APC3  
0181013670999992000012800004+60980+009230FM-12+036599999V0202501N001012200019N0300001N1+00001-00591099451ADDAY101061AY201061GA1001+999999999GF100991001001999999001001MA1999999095061MD1710061+9999MW1011REMSYN076AAXX  28004 01367 41980 02502 10000 21059 39506 49945 57006 70100 333 91109;
0171013670999992000012803004+60980+009230FM-12+036599999V0202901N000512200019N0300001N1-00231-00541099691ADDAY101031AY201031GA1001+999999999GF100991001001999999001001MA1999999095271MD1310221+9999MW1021REMSYN066AAXX  28034 01367 41980 02901 11023 21054 39527 49969 53022 70200;
0249013670999992000012806004+60980+009230FM-12+036599999V0209999C000019999999N0300001N1-00401-00651099701ADDAA199000091AJ100119199999999AY121061AY201061GF107991071001999999091001IA1239KA1120N-00411MA1999999095271MD1410001+9999MW1031REMSYN094AAXX  28064 01367 31980 70000 11040 21065 39527 49970 54000 70320 87090 333 21041 47011 91103;EQDQ01  00002PRCP99
0180013670999992000012809004+60980+009230FM-12+036599999V0203301N001010150019N0550001N1-00441-00691099611ADDAY121031AY201031GF107991071061017501001001MA1999999095181MD1810091+9999MW1021REMSYN072AAXX  28094 01367 41785 73302 11044 21069 39518 49961 58090 70220 87600;EQDQ01+000902APC3  
0190013670999992000012812004+60980+009230FM-12+036599999V0201201N000510150019N0550001N1-00251-00601099411ADDAY121061AY201061GF107991071061017501001001MA1999999095001MD1710201+9999MW1021REMSYN082AAXX  28124 01367 41785 71201 11025 21060 39500 49941 57180 70220 87600 333 91104;EQDQ01+001802APC3  
0180013670999992000012815004+60980+009230FM-12+036599999V0201501N000512200019N0750001N1-00171-00611099141ADDAY121031AY201031GF104991041041017501001001MA1999999094751MD1710271+9999MW1011REMSYN072AAXX  28154 01367 41789 41501 11017 21061 39475 49914 57260 70120 84400;EQDQ01+002602APC3  
0246013670999992000012818004+60980+009230FM-12+036599999V0200301N000512200019N0300001N1-00261-00581098951ADDAA199000091AY101061AY201061GA1001+999999999GF100991001001999999001001KA1120M+00031MA1999999094571MD1710191+9999MW1011REMSYN082AAXX  28184 01367 31980 00301 11026 21058 39457 49895 57180 70100 333 10003 91102;EQDQ01+001802APC3  Q02  00002PRCP99
0190013670999992000012900004+60980+009230FM-12+036599999V0201301N001010075019N0100001N1-00331-00531098311ADDAY121061AY201061GF108991081061008001999999MA1999999093951MD1810612+9999MW1031REMSYN082AAXX  29004 01367 41560 81302 11033 21053 39395 49831 58061 70320 886// 333 91104;EQDQ01+000612APC3  
0161013670999992000012903004+60980+009230FM-12+036599999V0201501N000510042019N0100001N1-00231-00331097501ADDAY171031AY221031GF108991081061004501999999MA1999999093181MD1810781+9999MW1711REMSYN072AAXX  29034 01367 41460 81501 11023 21033 39318 49750 58078 77172 886//;
0236013670999992000012906004+60980+009230FM-12+036599999V0203101N000510021019N0050001N1-00161-00201096671ADDAA112000591AJ100099199999999AY171061AY221061GF108991081061002501999999IA1239KA1120N-00421MA1999999092391MD1810781+9999MW1711REMSYN100AAXX  29064 01367 11350 83101 11016 21020 39239 49667 58078 69952 77172 886// 333 21042 47009 91104;
0180013670999992000012909004+60980+009230FM-12+036599999V0201301N002610021019N0200001N1+00121+00051095871ADDAY171031AY221031GF108991081061002501999999MA1999999091641MD1710801+9999MW1701REMSYN072AAXX  29094 01367 41370 81305 10012 20005 39164 49587 57350 77072 886//;EQDQ01+003502APC3  
0190013670999992000012912004+60980+009230FM-12+036599999V0201201N001010042019N0250001N1+00361+00121095251ADDAY171061AY221061GF108991081051004501999999MA1999999091081MD1710621+9999MW1021REMSYN082AAXX  29124 01367 41475 81202 10036 20012 39108 49525 57350 70272 885// 333 91108;EQDQ01+003502APC3  
0180013670999992000012915004+60980+009230FM-12+036599999V0203601N001012200019N0300001N1+00271-00491095181ADDAY111031AY201031GF103991031021012501001001MA1999999091001MD1710071+9999MW1011REMSYN072AAXX  29154 01367 41680 33602 10027 21049 39100 49518 57080 70110 83200;EQDQ01+000802APC3  
0201013670999992000012918004+60980+009230FM-12+036599999V0203201N000510075019N0200001N1-00071-00371095031ADDAA199000021AY121061AY221061GF108991081051008001999999KA1120M+00431MA1999999090831MD1710171+9999MW1031REMSYN088AAXX  29184 01367 31570 83201 11007 21037 39083 49503 57017 70322 885// 333 10043 91101;
0200013670999992000013000004+60980+009230FM-12+036599999V0203301N000512200019N0300001N1-00251-00391095391ADDAY101061AY201061GA1001+999999999GF100991001001999999001001MA1999999091161MD1513402+9999MW1011REMSYN076AAXX  30004 01367 41980 03301 11025 21039 39116 49539 55340 70100 333 91104;EQDQ01+003402APC3  
0222013670999992000013003004+60980+009230FM-12+036599999V0202701N002112200019N0300001N1+00111-00411096132ADDAY101031AY201031GA1001+999999999GF100991001001999999001001MA1999999091892MD1213502+9999MW1021REMSYN066AAXX  30034 01367 41980 02704 10011 21041 39189 49613 52350 70200;EQDQ01+091893APOSP Q02+096133APOSLPQ03+003502APC3  
0246013670999992000013006004+60980+009230FM-12+036599999V0202801N003112200019N0300001N1+00001-00731097321ADDAA199000091AY101061AY201061GA1001+999999999GF100991001001999999001001KA1120N-00481MA1999999093021MD1211191+9999MW1021REMSYN082AAXX  30064 01367 31980 02806 10000 21073 39302 49732 52350 70200 333 21048 91113;EQDQ01+003502APC3  Q02  00002PRCP99
0161013670999992000013009004+60980+009230FM-12+036599999V0203101N002112200019N0300001N1-00251-00941098291ADDAY101031AY201031GF101991011011999999001001MA1999999093931MD1210911+9999MW1031REMSYN072AAXX  30094 01367 41980 13104 11025 21094 39393 49829 52091 70300 81100;
0171013670999992000013012004+60980+009230FM-12+036599999V0203101N001012200019N0300001N1-00251-01121098901ADDAY111061AY201061GF104991041021022501091001MA1999999094521MD1210771+9999MW1031REMSYN082AAXX  30124 01367 41880 43102 11025 21112 39452 49890 52077 70310 84290 333 91111;
0161013670999992000013015004+60980+009230FM-12+036599999V0202601N000512200019N0300001N1-00441-01231099361ADDAY101031AY201031GF102991021021022501001001MA1999999094951MD1210251+9999MW1011REMSYN072AAXX  30154 01367 41880 22601 11044 21123 39495 49936 52025 70100 82200;
0230013670999992000013018004+60980+009230FM-12+036599999V0201401N001012200019N0550001N1-00501-01331099621ADDAA199000091AY101061AY201061GA1001+999999999GF100991001001999999001001KA1120M-00011MA1999999095191MD1210251+9999MW1011REMSYN082AAXX  30184 01367 31985 01402 11050 21133 39519 49962 52025 70100 333 11001 91108;EQDQ01  00002PRCP99
0171013670999992000013100004+60980+009230FM-12+036599999V0203301N000510120019N0300001N1-00801-01351099261ADDAY121061AY221061GF108991081051012501999999MA1999999094831MD1110261+9999MW1031REMSYN082AAXX  31004 01367 41680 83301 11080 21135 39483 49926 51026 70322 885// 333 91101;
0161013670999992000013103004+60980+009230FM-12+036599999V0203101N000510120019N0300001N1-00891-01391099161ADDAY121031AY221031GF108991081051012501999999MA1999999094731MD1010101+9999MW1021REMSYN072AAXX  31034 01367 41680 83101 11089 21139 39473 49916 50010 70222 885//;
0249013670999992000013106004+60980+009230FM-12+036599999V0202801N000510120019N0300001N1-00881-01311099431ADDAA199000091AJ100119199999999AY121061AY221061GF108991081051012501999999IA1239KA1120N-00961MA1999999094991MD1310231+9999MW1021REMSYN094AAXX  31064 01367 31680 82801 11088 21131 39499 49943 53023 70222 885// 333 21096 47011 91100;EQDQ01  00002PRCP99
0171013670999992000013109004+60980+009230FM-12+036599999V0203301N000512200019N0550001N1-01121-01331099661ADDAY121031AY201031GA1001+999999999GF100991001001999999001001MA1999999095201MD1310261+9999MW1011REMSYN066AAXX  31094 01367 41985 03301 11112 21133 39520 49966 53026 70120;
0171013670999992000013112004+60980+009230FM-12+036599999V0203001N001512200019N0550001N1-00761-01131099751ADDAY111061AY201061GF103991011011017501001051MA1999999095301MD1110101+9999MW1031REMSYN082AAXX  31124 01367 41785 33003 11076 21113 39530 49975 51010 70310 81105 333 91106;
0161013670999992000013115004+60980+009230FM-12+036599999V0203301N002110300019N0550001N1-00901-01241099831ADDAY121031AY201031GF105991011011017501021001MA1999999095371MD1210071+9999MW1031REMSYN072AAXX  31154 01367 41785 53304 11090 21124 39537 49983 52007 70320 81120;
0236013670999992000013118004+60980+009230FM-12+036599999V0203301N001012200019N0550001N1-00081-00781100111ADDAA199000091AY121061AY201061GF103991031011017501001001KA1120M-00081MA1999999095681MD1210281+9999MW1021REMSYN088AAXX  31184 01367 31785 33302 11008 21078 39568 40011 52310 70220 83100 333 11008 91106;EQDQ01+003102APC3  Q02  00002PRCP99
0171013670999992000020100004+60980+009230FM-12+036599999V0203201N001012200019N0300001N1-00641-01051100541ADDAY111061AY201061GF102991021041022501001001MA1999999096061MD1110381+9999MW1011REMSYN082AAXX  01004 01367 41880 23202 11064 21105 39606 40054 51038 70110 82400 333 91105;
0249013670999992000020106004+60980+009230FM-12+036599999V0203301N001512200019N0300001N1-01121-01271100851ADDAA199000091AJ100119199999999AY101061AY201061GF101991011041999999001001IA1239KA1120N-01201MA1999999096341MD1310261+9999MW1021REMSYN094AAXX  01064 01367 31980 13303 11112 21127 39634 40085 53026 70200 81400 333 21120 47011 91105;EQDQ01  00002PRCP99
0196013670999992000020109004+60980+009230FM-12+036599999V0203501N001512200019N0550001N1-01191-01341100711ADDAY111031AY201031GF102991021011999999001001MA1999999096201MD1710141+9999MW1021REMSYN072AAXX  01094 01367 41985 23503 11119 21134 39620 40071 50140 70210 82100;EQDQ01+000002APCTENQ02+001402APC3  
0200013670999992000020112004+60980+009230FM-12+036599999V0203201N001512200019N0550001N1-01011-01291100391ADDAY101061AY201061GA1001+999999999GF100991001001999999001001MA1999999095901MD1710321+9999MW1011REMSYN076AAXX  01124 01367 41985 03203 11101 21129 39590 40039 57290 70100 333 91107;EQDQ01+002902APC3  
0180013670999992000020115004+60980+009230FM-12+036599999V0203301N001010021019N0200001N1-00861-01201100001ADDAY171031AY221031GF108991081061002501999999MA1999999095541MD1710391+9999MW1701REMSYN072AAXX  01154 01367 41370 83302 11086 21120 39554 40000 57350 77072 886//;EQDQ01+003502APC3  
0209013670999992000020118004+60980+009230FM-12+036599999V0203401N000510012019N0010001N1-00901-00961099561ADDAY171061AY221061GF108991999061001501021999KA1120M-00851MA1999999095121MD1710431+9999MW1751REMSYN088AAXX  01184 01367 41210 83401 11090 21096 39512 49956 57043 77572 8862/ 333 11085 91107;EQDQ01+000082SCOTLC
0181013670999992000020200004+60980+009230FM-12+036599999V0203501N000512200019N0300001N1-01071-01131099001ADDAY171061AY211061GA1001+999999999GF100991001001999999001001MA1999999094571MD1610381+9999MW1011REMSYN076AAXX  02004 01367 41980 03501 11107 21113 39457 49900 56038 70171 333 91102;
0171013670999992000020203004+60980+009230FM-12+036599999V0201201N000512200019N0300001N1-01321-01391099101ADDAY101031AY201031GA1001+999999999GF100991001001999999001001MA1999999094661MD1610081+9999MW1021REMSYN066AAXX  02034 01367 41980 01201 11132 21139 39466 49910 56008 70200;
0246013670999992000020206004+60980+009230FM-12+036599999V0202801N000512200019N0300001N1-01281-01341098971ADDAA112002091AJ100199199999999AY101061AY201061GA1001+999999999GF100991001001999999001001IA1239KA1120N-01501MA1999999094531MD1710121+9999MW1021REMSYN094AAXX  02064 01367 11980 02801 11128 21134 39453 49897 57012 60022 70200 333 21150 47019 91106;
0161013670999992000020209004+60980+009230FM-12+036599999V0202001N000512200019N0550001N1-01231-01321099011ADDAY111031AY201031GF102991021021017501001001MA1999999094581MD1310401+9999MW1021REMSYN072AAXX  02094 01367 41785 22001 11123 21132 39458 49901 53040 70210 82200;
0190013670999992000020212004+60980+009230FM-12+036599999V0203301N001512200019N0550001N1+00152-00012098831ADDAY121061AY201061GF103991031041017501001001MA1999999094481MD1810181+9999MW1021REMSYN082AAXX  02124 01367 41785 33303 10015 21001 39448 49883 58090 70220 83400 333 91106;EQDQ01+000902APC3  
0161013670999992000020215004+60980+009230FM-12+036599999V0202701N000512200019N0550001N1-00681-00811098851ADDAY121031AY201031GF104991041041017501001001MA1999999094451MD1610301+9999MW1021REMSYN072AAXX  02154 01367 41785 42701 11068 21081 39445 49885 56030 70220 84400;
0220013670999992000020218004+60980+009230FM-12+036599999V0203001N000510120019N0200001N1-00681-00721099121ADDAA199000091AY121061AY201061GF108991081051012501999999KA1120M-00581MA1999999094701MD1310251+9999MW1031REMSYN088AAXX  02184 01367 31670 83001 11068 21072 39470 49912 53025 70320 885// 333 11058 91106;EQDQ01  00002PRCP99
0222013670999992000020300004+60980+009230FM-12+036599999V0201701N000510120019N0200001N1-00851-00921100182ADDAY121061AY221061GF108991081051012501999999MA1999999095712MD1211002+9999MW1021REMSYN082AAXX  03004 01367 41670 81701 11085 21092 39571 40018 52100 70222 885// 333 91100;EQDQ01+095713APOSP Q02+100183APOSLPQ03+001002APC3  
0161013670999992000020303004+60980+009230FM-12+036599999V0203301N001010120019N0200001N1-00861-00981100541ADDAY121031AY221031GF108991081051012501999999MA1999999096051MD1210341+9999MW1021REMSYN072AAXX  03034 01367 41670 83302 11086 21098 39605 40054 52034 70222 885//;
0249013670999992000020306004+60980+009230FM-12+036599999V0200201N000510120019N0200001N1-01181-01251101141ADDAA199000091AJ100199199999999AY121061AY221061GF108991081051012501999999IA1239KA1120N-01241MA1999999096611MD1210561+9999MW1021REMSYN094AAXX  03064 01367 31670 80201 11118 21125 39661 40114 52056 70222 885// 333 21124 47019 91102;EQDQ01  00002PRCP99
0171013670999992000020309004+60980+009230FM-12+036599999V0201001N000512200019N0550001N1-01051-01171101511ADDAY101031AY201031GA1001+999999999GF100991001001999999001001MA1999999096971MD1210361+9999MW1011REMSYN066AAXX  03094 01367 41985 01001 11105 21117 39697 40151 52036 70100;
0171013670999992000020312004+60980+009230FM-12+036599999V0202101N000512200019N0550001N1-00571-00871101731ADDAY101061AY201061GF102991001001999999001011MA1999999097211MD1310231+9999MW1031REMSYN082AAXX  03124 01367 41985 22101 11057 21087 39721 40173 53023 70300 80001 333 91107;
0161013670999992000020315004+60980+009230FM-12+036599999V0203001N001010150019N0300001N1-00071-00731101851ADDAY121031AY201031GF106991061001017501011001MA1999999097341MD1310141+9999MW1031REMSYN072AAXX  03154 01367 41780 63002 11007 21073 39734 40185 53014 70320 86010;
0220013670999992000020318004+60980+009230FM-12+036599999V0203301N000510120019N0300001N1-00531-00791101731ADDAA199000091AY121061AY221061GF108991081051012501999999KA1120M+00001MA1999999097211MD1110141+9999MW1021REMSYN088AAXX  03184 01367 31680 83301 11053 21079 39721 40173 51014 70222 885// 333 10000 91106;EQDQ01  00002PRCP99
0180013670999992000020403004+60980+009230FM-12+036599999V0200801N000510075019N0200001N1+00221-00191100321ADDAY121031AY211031GF107991071051008001021001MA1999999095911MD1713502+9999MW1011REMSYN072AAXX  04034 01367 41570 70801 10022 21019 39591 40032 57350 70121 87520;EQDQ01+003502APC3  
0220013670999992000020406004+60980+009230FM-12+036599999V0200301N001010120019N0250001N1+00561+00131100061ADDAA199000091AY121061AY221061GF108991081051012501999999KA1120N-01231MA1999999095711MD1710191+9999MW1031REMSYN088AAXX  04064 01367 31675 80302 10056 20013 39571 40006 57019 70322 885// 333 21123 91108;EQDQ01  00002PRCP99
0161013670999992000020409004+60980+009230FM-12+036599999V0203301N001510120019N0300001N1+00181+00111100111ADDAY121031AY201031GF106991061021012501061001MA1999999095701MD1110021+9999MW1011REMSYN072AAXX  04094 01367 41680 63303 10018 20011 39570 40011 51002 70120 86260;
0171013670999992000020412004+60980+009230FM-12+036599999V0202701N001012200019N0300001N1+00481+00131100061ADDAY111061AY201061GF104991041011022501031011MA1999999095701MD1410001+9999MW1011REMSYN082AAXX  04124 01367 41880 42702 10048 20013 39570 40006 54000 70110 84131 333 91105;
0161013670999992000020415004+60980+009230FM-12+036599999V0200901N000510120019N0300001N1+00431+00011099981ADDAY121031AY211031GF108991081051012501999999MA1999999095611MD1810081+9999MW1031REMSYN072AAXX  04154 01367 41680 80901 10043 20001 39561 49998 58008 70321 885//;
0220013670999992000020418004+60980+009230FM-12+036599999V0201101N000510120019N0300001N1+00141-00021100051ADDAA199000091AY121061AY221061GF106991061051012501001001KA1120M+00581MA1999999095641MD1610021+9999MW1011REMSYN088AAXX  04184 01367 31680 61101 10014 21002 39564 40005 56002 70122 86500 333 10058 91102;EQDQ01  00002PRCP99
0181013670999992000020500004+60980+009230FM-12+036599999V0202701N000512200019N0300001N1-00091-00131100561ADDAY121061AY201061GA1001+999999999GF100991001001999999001001MA1999999096111MD1210201+9999MW1011REMSYN076AAXX  05004 01367 41980 02701 11009 21013 39611 40056 52020 70120 333 91106;
0196013670999992000020503004+60980+009230FM-12+036599999V0202401N000512200019N0300001N1+00011-00181101212ADDAY101031AY201031GF102991021011002501001001MA1999999096742MD1210121+9999MW1031REMSYN072AAXX  05034 01367 41380 22401 10001 21018 39674 40121 52012 70300 82100;EQDQ01+096743APOSP Q02+101213APOSLP
0249013670999992000020506004+60980+009230FM-12+036599999V0202501N000510150019N0300001N1+00111-00131100791ADDAA199000091AJ100199199999999AY121061AY201061GF108991081001017501021999IA1239KA1120N-00211MA1999999096341MD1110101+9999MW1031REMSYN094AAXX  05064 01367 31780 82501 10011 21013 39634 40079 51010 70320 8802/ 333 21021 47019 91104;EQDQ01  00002PRCP99
0161013670999992000020509004+60980+009230FM-12+036599999V0203101N000510150019N0300001N1+00121-00091100771ADDAY161031AY201031GF106991061051017501001001MA1999999096321MD1310021+9999MW1011REMSYN072AAXX  05094 01367 41780 63101 10012 21009 39632 40077 53002 70160 86500;
0171013670999992000020512004+60980+009230FM-12+036599999V0202901N000510120019N0300001N1+00221-00071100761ADDAY161061AY201061GF108991081051012501999999MA1999999096321MD1310011+9999MW1031REMSYN082AAXX  05124 01367 41680 82901 10022 21007 39632 40076 53001 70360 885// 333 91105;
0161013670999992000020515004+60980+009230FM-12+036599999V0202301N000512200019N0300001N1+00161-00131100671ADDAY121031AY221031GF104991041021022501001001MA1999999096231MD1010101+9999MW1011REMSYN072AAXX  05154 01367 41880 42301 10016 21013 39623 40067 50010 70122 84200;
0207013670999992000020518004+60980+009230FM-12+036599999V0200701N000510120019N0300001N1+00021-00091100631ADDAA112000191AY121061AY221061GF108991081051012501999999KA1120M+00251MA1999999096181MD1810041+9999MW1031REMSYN094AAXX  05184 01367 11680 80701 10002 21009 39618 40063 58004 69912 70322 885// 333 10025 91103;
0171013670999992000020600004+60980+009230FM-12+036599999V0202001N000510120019N0300001N1+00191+00071100121ADDAY121061AY221061GF108991081051012501999999MA1999999095711MD1610481+9999MW1021REMSYN082AAXX  06004 01367 41680 82001 10019 20007 39571 40012 56048 70222 885// 333 91104;
0161013670999992000020603004+60980+009230FM-12+036599999V0200801N000510120019N0300001N1+00341+00101099741ADDAY121031AY221031GF108991081051012501999999MA1999999095371MD1710341+9999MW1021REMSYN072AAXX  06034 01367 41680 80801 10034 20010 39537 49974 57034 70222 885//;
0249013670999992000020606004+60980+009230FM-12+036599999V0203001N000510300019N0300001N1+00691-00151099541ADDAA199000091AJ100189199999999AY121061AY221061GF105991021041017501031001IA1239KA1120N-00061MA1999999095231MD1710131+9999MW1011REMSYN094AAXX  06064 01367 31780 53001 10069 21015 39523 49954 57013 70122 82430 333 21006 47018 91107;EQDQ01  00002PRCP99
0196013670999992000020609004+60980+009230FM-12+036599999V0200901N000512200019N0550001N1+00581-00281099831ADDAY111031AY201031GF103991031021017501001001MA1999999095491MD1210291+9999MW1011REMSYN072AAXX  06094 01367 41785 30901 10058 21028 39549 49983 55260 70110 83200;EQDQ01+000052APCTENQ02+002602APC3  
0190013670999992000020612004+60980+009230FM-12+036599999V0201001N001012200019N0550001N1+00561-00221100161ADDAY111061AY201061GF103991031021017501001001MA1999999095811MD1210331+9999MW1021REMSYN082AAXX  06124 01367 41785 31002 10056 21022 39581 40016 52320 70210 83200 333 91109;EQDQ01+003202APC3  
0161013670999992000020615004+60980+009230FM-12+036599999V0203001N000512200019N0550001N1+00371-00291100011ADDAY121031AY201031GF104991041021017501001001MA1999999095631MD1110201+9999MW1031REMSYN072AAXX  06154 01367 41785 43001 10037 21029 39563 40001 51020 70320 84200;
0220013670999992000020618004+60980+009230FM-12+036599999V0203201N000510120019N0300001N1+00141-00461100211ADDAA199000091AY121061AY201061GF106991061051012501001001KA1120M+00711MA1999999095791MD1410001+9999MW1031REMSYN088AAXX  06184 01367 31680 63201 10014 21046 39579 40021 54000 70320 86500 333 10071 91109;EQDQ01  00002PRCP99
0171013670999992000020700004+60980+009230FM-12+036599999V0201901N000510120019N0250001N1+00081-00331099841ADDAY121061AY221061GF108991081051012501999999MA1999999095431MD1710201+9999MW1031REMSYN082AAXX  07004 01367 41675 81901 10008 21033 39543 49984 57020 70322 885// 333 91106;
0212013670999992000020703004+60980+009230FM-12+036599999V0201201N001010120019N0250001N1+00211-00201099202ADDAY121031AY221031GF108991081051012501999999MA1999999094841MD1410001+9999MW1021REMSYN072AAXX  07034 01367 41675 81202 10021 21020 39484 49920 58060 70222 885//;EQDQ01+099203APOSLPQ02+000082APCTENQ03+000602APC3  
0249013670999992000020706004+60980+009230FM-12+036599999V0201301N002110120019N0200001N1+00131+00101098531ADDAA199000091AJ100189199999999AY121061AY221061GF108991081051012501999999IA1239KA1120N-00071MA1999999094191MD1710651+9999MW1021REMSYN094AAXX  07064 01367 31670 81304 10013 20010 39419 49853 57065 70222 885// 333 21007 47018 91108;EQDQ01  00002PRCP99
0180013670999992000020709004+60980+009230FM-12+036599999V0201201N002110120019N0100001N1+00351+00141098041ADDAY161031AY201031GF106991061061012501001001MA1999999093751MD1710491+9999MW1011REMSYN072AAXX  07094 01367 41660 61204 10035 20014 39375 49804 57099 70160 86600;EQDQ01+000992APC3  
0190013670999992000020712004+60980+009230FM-12+036599999V0201301N000510150019N0300001N1+00611-00151097871ADDAY161061AY201061GF105991051051017501001001MA1999999093621MD1610171+9999MW1021REMSYN082AAXX  07124 01367 41780 51301 10061 21015 39362 49787 56068 70260 85500 333 91108;EQDQ01+000682APC3  
0161013670999992000020715004+60980+009230FM-12+036599999V0202901N000510150019N0300001N1+00621-00171097931ADDAY121031AY221031GF105991051021017501001001MA1999999093681MD1310261+9999MW1021REMSYN072AAXX  07154 01367 41780 52901 10062 21017 39368 49793 53026 70222 85200;
0217013670999992000020718004+60980+009230FM-12+036599999V0202501N000512200019N0300001N1+00351-00421098371ADDAA112000191AY121061AY201061GA1001+999999999GF100991001001999999001001KA1120M+00781MA1999999094061MD1210171+9999MW1011REMSYN088AAXX  07184 01367 11980 02501 10035 21042 39406 49837 52017 69912 70120 333 10078 91110;
0171013670999992000020800004+60980+009230FM-12+036599999V0201901N000510120019N0300001N1-00051-00351098681ADDAY121061AY221061GF108991081051012501999999MA1999999094321MD1210261+9999MW1011REMSYN082AAXX  08004 01367 41680 81901 11005 21035 39432 49868 52026 70122 885// 333 91100;
0161013670999992000020803004+60980+009230FM-12+036599999V0200401N001010120019N0300001N1-00141-00441098721ADDAY121031AY221031GF108991081051012501999999MA1999999094351MD1410001+9999MW1021REMSYN072AAXX  08034 01367 41680 80402 11014 21044 39435 49872 54003 70222 885//;
0249013670999992000020806004+60980+009230FM-12+036599999V0203201N000510120019N0300001N1-00221-00431098721ADDAA199000091AJ100189199999999AY121061AY221061GF107991071061012501999999IA1239KA1120N-00241MA1999999094351MD1410001+9999MW1011REMSYN094AAXX  08064 01367 31680 73201 11022 21043 39435 49872 54000 70122 876// 333 21024 47018 91101;EQDQ01  00002PRCP99
0171013670999992000020809004+60980+009230FM-12+036599999V0203301N001512200019N0550001N1-00351-00551098791ADDAY101031AY201031GA1001+999999999GF100991001001999999001001MA1999999094411MD1310061+9999MW1021REMSYN066AAXX  08094 01367 41985 03303 11035 21055 39441 49879 53006 70200;
0181013670999992000020812004+60980+009230FM-12+036599999V0203001N001012200019N0550001N1-00081-00611098781ADDAY101061AY201061GA1001+999999999GF100991001001999999001001MA1999999094411MD1110011+9999MW1021REMSYN076AAXX  08124 01367 41985 03002 11008 21061 39441 49878 51001 70200 333 91105;
0171013670999992000020815004+60980+009230FM-12+036599999V0203101N001012200019N0550001N1-00191-00661098691ADDAY101031AY201031GA1001+999999999GF100991001001999999001001MA1999999094321MD1010091+9999MW1021REMSYN066AAXX  08154 01367 41985 03102 11019 21066 39432 49869 50009 70200;
0220013670999992000020818004+60980+009230FM-12+036599999V0203301N001512200019N0300001N1-00501-00801098811ADDAA199000091AY111061AY201061GF101991011011999999001001KA1120M+00071MA1999999094421MD1110091+9999MW1031REMSYN088AAXX  08184 01367 31980 13303 11050 21080 39442 49881 51009 70310 81100 333 10007 91103;EQDQ01  00002PRCP99
0171013670999992000020900004+60980+009230FM-12+036599999V0203001N001019999999N0250001N1-00391-00891098541ADDAY121061AY201061GF108991081001999999021999MA1999999094161MD1710111+9999MW1031REMSYN082AAXX  09004 01367 41975 83002 11039 21089 39416 49854 57011 70320 8802/ 333 91105;
0171013670999992000020903004+60980+009230FM-12+036599999V0203201N000510003019N0005001N1-00421-00681098541ADDAY171031AY221031GA1091+999999999GF109991091999999999999999MA1999999094161MD1410001+9999MW1711REMSYN066AAXX  09034 01367 41/05 93201 11042 21068 39416 49854 54000 77172;
0236013670999992000020906004+60980+009230FM-12+036599999V0203201N001010150019N0200001N1-00461-00521098851ADDAA112000591AJ100209199999999AY171061AY221061GF108991081001017501021999IA1239KA1120N-00521MA1999999094461MD1310291+9999MW1021REMSYN100AAXX  09064 01367 11770 83202 11046 21052 39446 49885 53029 69942 70272 8802/ 333 21052 47020 91103;
0161013670999992000020909004+60980+009230FM-12+036599999V0203201N001010300019N0200001N1-00471-00571099261ADDAY121031AY221031GF105991031021017501031001MA1999999094851MD1210401+9999MW1011REMSYN072AAXX  09094 01367 41770 53202 11047 21057 39485 49926 52040 70122 83230;
0171013670999992000020912004+60980+009230FM-12+036599999V0202901N001012200019N0550001N1-00161-00551099731ADDAY121061AY201061GF102991001001999999001081MA1999999095321MD1210461+9999MW1011REMSYN082AAXX  09124 01367 41985 22902 11016 21055 39532 49973 52046 70120 80008 333 91104;
0171013670999992000020915004+60980+009230FM-12+036599999V0202701N000512200019N0550001N1-00211-00571100071ADDAY101031AY201031GA1001+999999999GF100991001001999999001001MA1999999095641MD1210321+9999MW1011REMSYN066AAXX  09154 01367 41985 02701 11021 21057 39564 40007 52032 70100;
0230013670999992000020918004+60980+009230FM-12+036599999V0203201N000512200019N0550001N1-00691-00821100291ADDAA199000091AY101061AY201061GA1001+999999999GF100991001001999999001001KA1120M+00011MA1999999095821MD1110181+9999MW1021REMSYN082AAXX  09184 01367 31985 03201 11069 21082 39582 40029 51018 70200 333 10001 91101;EQDQ01  00002PRCP99
0171013670999992000021000004+60980+009230FM-12+036599999V0203001N000519999999N0250001N1-00551-00751100381ADDAY121061AY201061GF108991081001999999091999MA1999999095911MD1810051+9999MW1031REMSYN082AAXX  10004 01367 41975 83001 11055 21075 39591 40038 58005 70320 8809/ 333 91105;
0161013670999992000021003004+60980+009230FM-12+036599999V0203201N001019999999N0250001N1-00341-00771099881ADDAY121031AY221031GF108991081001999999091999MA1999999095451MD1710461+9999MW1021REMSYN072AAXX  10034 01367 41975 83202 11034 21077 39545 49988 57046 70222 8809/;
0249013670999992000021006004+60980+009230FM-12+036599999V0201301N000510300019N0250001N1-00111-00571099471ADDAA199000091AJ100209199999999AY121061AY221061GF106991031011008001091001IA1239KA1120N-00811MA1999999095071MD1710381+9999MW1011REMSYN094AAXX  10064 01367 31575 61301 11011 21057 39507 49947 57038 70122 83190 333 21081 47020 91108;EQDQ01  00002PRCP99
0180013670999992000021009004+60980+009230FM-12+036599999V0201101N001010120019N0550001N1+00061-00371099321ADDAY121031AY221031GF106991061051012501001001MA1999999094941MD1710151+9999MW1031REMSYN072AAXX  10094 01367 41685 61102 10006 21037 39494 49932 57140 70322 86500;EQDQ01+001402APC3  
0190013670999992000021012004+60980+009230FM-12+036599999V0201201N001510120019N0550001N1+00311-00051098681ADDAY121061AY221061GF106991061051012501001001MA1999999094351MD1710641+9999MW1021REMSYN082AAXX  10124 01367 41685 61203 10031 21005 39435 49868 57350 70222 86500 333 91109;EQDQ01+003502APC3  
0180013670999992000021015004+60980+009230FM-12+036599999V0201301N002610075019N0250001N1+00381+00071098091ADDAY161031AY221031GF108991081061008001999999MA1999999093801MD1710591+9999MW1601REMSYN072AAXX  10154 01367 41575 81305 10038 20007 39380 49809 57350 76062 886//;EQDQ01+003502APC3  
0217013670999992000021018004+60980+009230FM-12+036599999V0201801N001012200019N0550001N1+00411-00431098031ADDAA112000191AY161061AY211061GA1001+999999999GF100991001001999999001001KA1120M+00571MA1999999093751MD1510051+9999MW1011REMSYN088AAXX  10184 01367 11985 01802 10041 21043 39375 49803 55005 69922 70161 333 10057 91112;
0190013670999992000021100004+60980+009230FM-12+036599999V0200901N000512200019N0300001N1+00131-00371099101ADDAY101061AY201061GF103991031041022501001001MA1999999094721MD1210992+9999MW1031REMSYN082AAXX  11004 01367 41880 30901 10013 21037 39472 49910 52099 70300 83400 333 91112;EQDQ01+000992APC3  
0161013670999992000021103004+60980+009230FM-12+036599999V0200801N000512200019N0300001N1-00221-00401099291ADDAY101031AY201031GF103991031041022501001001MA1999999094891MD1210161+9999MW1021REMSYN072AAXX  11034 01367 41880 30801 11022 21040 39489 49929 52016 70200 83400;
0249013670999992000021106004+60980+009230FM-12+036599999V0200601N000510300019N0250001N1+00061-00291099331ADDAA199000091AJ100199199999999AY111061AY201061GF105991031041017501041001IA1239KA1120N-00271MA1999999094941MD1310051+9999MW1031REMSYN094AAXX  11064 01367 31775 50601 10006 21029 39494 49933 53005 70310 83440 333 21027 47019 91112;EQDQ01  00002PRCP99
0161013670999992000021109004+60980+009230FM-12+036599999V0201501N000512200019N0550001N1+00081-00331099801ADDAY101031AY201031GF102991021011999999001011MA1999999095391MD1210461+9999MW1011REMSYN072AAXX  11094 01367 41985 21501 10008 21033 39539 49980 52046 70100 82101;
0190013670999992000021112004+60980+009230FM-12+036599999V0200101N001512200019N0550001N1+00501-00401099871ADDAY101061AY201061GF102991999001999999011001MA1999999095521MD1210121+9999MW1021REMSYN082AAXX  11124 01367 41985 20103 10050 21040 39552 49987 52012 70200 81010 333 91104;EQDQ01+000012SCOTLC
0161013670999992000021115004+60980+009230FM-12+036599999V0202601N000512200019N0550001N1+00321-00421100261ADDAY101031AY201031GF101991011011999999001001MA1999999095861MD1210341+9999MW1011REMSYN072AAXX  11154 01367 41985 12601 10032 21042 39586 40026 52034 70100 81100;
0246013670999992000021118004+60980+009230FM-12+036599999V0202001N000512200019N0750001N1+00021-00351100481ADDAA199000091AY111061AY201061GA1001+999999999GF100991001001999999001001KA1120M+00561MA1999999096041MD1210221+9999MW1011REMSYN082AAXX  11184 01367 31989 02001 10002 21035 39604 40048 52190 70110 333 10056 91102;EQDQ01+001902APC3  Q02  00002PRCP99
0171013670999992000021200004+60980+009230FM-12+036599999V0203601N000512200019N0250001N1+00041-00261100501ADDAY101061AY201061GF103991031021012501001001MA1999999096061MD1410001+9999MW1031REMSYN082AAXX  12004 01367 41675 33601 10004 21026 39606 40050 54000 70300 83200 333 91106;
0171013670999992000021203004+60980+009230FM-12+036599999V0201201N000512200019N0300001N1+00181-00251100311ADDAY101031AY201031GA1001+999999999GF100991001001999999001001MA1999999095891MD1810161+9999MW1011REMSYN066AAXX  12034 01367 41980 01201 10018 21025 39589 40031 58016 70100;
0249013670999992000021206004+60980+009230FM-12+036599999V0203401N000510120019N0300001N1+00111-00261099991ADDAA199000091AJ100199199999999AY121061AY201061GF105991051051012501001001IA1239KA1120N-00311MA1999999095571MD1710321+9999MW1031REMSYN094AAXX  12064 01367 31680 53401 10011 21026 39557 49999 57032 70320 85500 333 21031 47019 91105;EQDQ01  00002PRCP99
0161013670999992000021209004+60980+009230FM-12+036599999V0201301N002110120019N0300001N1+00231-00131099661ADDAY121031AY211031GF108991081051012501999999MA1999999095281MD1710291+9999MW1031REMSYN072AAXX  12094 01367 41680 81304 10023 21013 39528 49966 57029 70321 885//;
0171013670999992000021212004+60980+009230FM-12+036599999V0201401N003610300019N0300001N1+00471-00091099271ADDAY121061AY221061GF106991031071012501071001MA1999999094941MD1710351+9999MW1011REMSYN082AAXX  12124 01367 41680 61407 10047 21009 39494 49927 57035 70122 83770 333 91113;
0161013670999992000021215004+60980+009230FM-12+036599999V0201301N002110120019N0250001N1+00391+00101099051ADDAY161031AY221031GF108991081051012501999999MA1999999094721MD1610221+9999MW1031REMSYN072AAXX  12154 01367 41675 81304 10039 20010 39472 49905 56022 70362 885//;
0207013670999992000021218004+60980+009230FM-12+036599999V0203301N000510120019N0250001N1+00291-00261098991ADDAA112000391AY161061AY221061GF108991081051012501999999KA1120M+00521MA1999999094651MD1710071+9999MW1021REMSYN094AAXX  12184 01367 11675 83301 10029 21026 39465 49899 57007 69932 70262 885// 333 10052 91111;
0171013670999992000021300004+60980+009230FM-12+036599999V0200501N000512200019N0250001N1-00211-00521099021ADDAY121061AY201061GF102991021021012501001001MA1999999094641MD1410001+9999MW1011REMSYN082AAXX  13004 01367 41675 20501 11021 21052 39464 49902 54000 70120 82200 333 91104;
0171013670999992000021303004+60980+009230FM-12+036599999V0202501N000512200019N0300001N1-00361-00651099001ADDAY101031AY201031GA1001+999999999GF100991001001999999001001MA1999999094611MD1810031+9999MW1011REMSYN066AAXX  13034 01367 41980 02501 11036 21065 39461 49900 58003 70100;
0249013670999992000021306004+60980+009230FM-12+036599999V0200701N001010120019N0300001N1+00001-00531098851ADDAA199000091AJ100189199999999AY121061AY201061GF108991081051012501999999IA1239KA1120N-00391MA1999999094481MD1710121+9999MW1031REMSYN094AAXX  13064 01367 31680 80702 10000 21053 39448 49885 57012 70320 885// 333 21039 47018 91107;EQDQ01  00002PRCP99
0161013670999992000021309004+60980+009230FM-12+036599999V0201101N000512200019N0550001N1+00031-00471098871ADDAY101031AY201031GF102991021011999999001011MA1999999094501MD1510021+9999MW1011REMSYN072AAXX  13094 01367 41985 21101 10003 21047 39450 49887 55002 70100 82101;
0171013670999992000021312004+60980+009230FM-12+036599999V0203001N001012200019N0550001N1+00281-00731099321ADDAY101061AY201061GF101991011011999999001001MA1999999094961MD1210451+9999MW1011REMSYN082AAXX  13124 01367 41985 13002 10028 21073 39496 49932 52045 70100 81100 333 91103;
0161013670999992000021315004+60980+009230FM-12+036599999V0202701N000512200019N0550001N1+00171-00711099451ADDAY101031AY201031GF101991011011999999001001MA1999999095061MD1210171+9999MW1021REMSYN072AAXX  13154 01367 41985 12701 10017 21071 39506 49945 52017 70200 81100;
0220013670999992000021318004+60980+009230FM-12+036599999V0202801N000512200019N0550001N1-00041-00701099641ADDAA199000091AY101061AY201061GF101991011011012501001001KA1120M+00311MA1999999095231MD1210171+9999MW1021REMSYN088AAXX  13184 01367 31685 12801 11004 21070 39523 49964 52017 70200 81100 333 10031 91107;EQDQ01  00002PRCP99
0200013670999992000021400004+60980+009230FM-12+036599999V0202701N001512200019N0300001N1-00121-00841100261ADDAY101061AY201061GA1001+999999999GF100991001001999999001001MA1999999095821MD1211502+9999MW1011REMSYN076AAXX  14004 01367 41980 02703 11012 21084 39582 40026 52150 70100 333 91108;EQDQ01+001502APC3  
0190013670999992000021403004+60980+009230FM-12+036599999V0202401N001012200019N0300001N1-00191-00971100521ADDAY101031AY201031GA1001+999999999GF100991001001999999001001MA1999999096071MD1210261+9999MW1021REMSYN066AAXX  14034 01367 41980 02402 11019 21097 39607 40052 52250 70200;EQDQ01+002502APC3  
0275013670999992000021406004+60980+009230FM-12+036599999V0200701N000512200019N0300001N1-00351-00981100771ADDAA199000091AJ100189199999999AY101061AY201061GA1001+999999999GF100991001001999999001001IA1239KA1120N-00361MA1999999096301MD1210251+9999MW1021REMSYN088AAXX  14064 01367 31980 00701 11035 21098 39630 40077 52230 70200 333 21036 47018 91108;EQDQ01+002302APC3  Q02  00002PRCP99
0171013670999992000021409004+60980+009230FM-12+036599999V0202401N000512200019N0550001N1-00131-00831100871ADDAY101031AY201031GA1001+999999999GF100991001001999999001001MA1999999096411MD1210121+9999MW1021REMSYN066AAXX  14094 01367 41985 02401 11013 21083 39641 40087 52012 70200;
0171013670999992000021412004+60980+009230FM-12+036599999V0202801N001012200019N0550001N1+00051-00951100921ADDAY101061AY201061GF102991021011012501001001MA1999999096461MD1110051+9999MW1031REMSYN082AAXX  14124 01367 41685 22802 10005 21095 39646 40092 51005 70300 82100 333 91114;
0161013670999992000021415004+60980+009230FM-12+036599999V0202601N000512200019N0550001N1+00001-00791100821ADDAY101031AY201031GF102991011011012501001011MA1999999096361MD1810101+9999MW1021REMSYN072AAXX  14154 01367 41685 22601 10000 21079 39636 40082 58010 70200 81101;
0246013670999992000021418004+60980+009230FM-12+036599999V0201101N000512200019N0250001N1-00441-00891100771ADDAA199000091AY101061AY201061GA1001+999999999GF100991001001999999001001KA1120M+00111MA1999999096291MD1710051+9999MW1011REMSYN082AAXX  14184 01367 31975 01101 11044 21089 39629 40077 57070 70100 333 10011 91105;EQDQ01+000702APC3  Q02  00002PRCP99
0190013670999992000021500004+60980+009230FM-12+036599999V0202401N000510075019N0150001N1-00521-00621100211ADDAY171061AY221061GF108991081051008001999999MA1999999095761MD1713002+9999MW1731REMSYN082AAXX  15004 01367 41565 82401 11052 21062 39576 40021 57300 77372 885// 333 91103;EQDQ01+003002APC3  
0180013670999992000021503004+60980+009230FM-12+036599999V0202401N000510120019N0250001N1-00501-00641099901ADDAY171031AY221031GF108991081051012501999999MA1999999095461MD1713102+9999MW1021REMSYN072AAXX  15034 01367 41675 82401 11050 21064 39546 49990 57310 70272 885//;EQDQ01+003102APC3  
0255013670999992000021506004+60980+009230FM-12+036599999V0203001N000510120019N0300001N1-00561-00681099751ADDAA112000591AJ100199199999999AY171061AY221061GF106991061041012501001001IA1239KA1120N-00561MA1999999095321MD1710151+9999MW1021REMSYN100AAXX  15064 01367 11680 63001 11056 21068 39532 49975 57140 69942 70272 86400 333 21056 47019 91103;EQDQ01+001402APC3  
0161013670999992000021509004+60980+009230FM-12+036599999V0203101N001010120019N0300001N1-00601-00661099701ADDAY121031AY221031GF108991081051012501999999MA1999999095261MD1610051+9999MW1031REMSYN072AAXX  15094 01367 41680 83102 11060 21066 39526 49970 56005 70322 885//;
0171013670999992000021512004+60980+009230FM-12+036599999V0202801N001010300019N0300001N1-00221-00531099641ADDAY121061AY221061GF105991011051012501031001MA1999999095221MD1810041+9999MW1011REMSYN082AAXX  15124 01367 41680 52802 11022 21053 39522 49964 58004 70122 81530 333 91105;
0161013670999992000021515004+60980+009230FM-12+036599999V0203001N000510300019N0300001N1-00091-00451099571ADDAY121031AY221031GF105991031051012501031001MA1999999095161MD1710061+9999MW1021REMSYN072AAXX  15154 01367 41680 53001 11009 21045 39516 49957 57006 70222 83530;
0220013670999992000021518004+60980+009230FM-12+036599999V0209999C000010210019N0200001N1-00411-00591099571ADDAA199000091AY121061AY221061GF105991051001022501051001KA1120M-00081MA1999999095151MD1710031+9999MW1021REMSYN088AAXX  15184 01367 31870 50000 11041 21059 39515 49957 57003 70222 85050 333 11008 91103;EQDQ01  00002PRCP99
0171013670999992000021600004+60980+009230FM-12+036599999V0203401N000510210019N0200001N1-00711-00771099581ADDAY121061AY221061GF105991051041022501031001MA1999999095151MD1410001+9999MW1021REMSYN082AAXX  16004 01367 41870 53401 11071 21077 39515 49958 54001 70222 85430 333 91102;
0249013670999992000021606004+60980+009230FM-12+036599999V0203301N002112200019N0300001N1-01161-01221099621ADDAA199000091AJ100199199999999AY121061AY201061GF101991011011999999001001IA1239KA1120N-01171MA1999999095161MD1410001+9999MW1011REMSYN094AAXX  16064 01367 31980 13304 11116 21122 39516 49962 54002 70120 81100 333 21117 47019 91104;EQDQ01  00002PRCP99
0180013670999992000021609004+60980+009230FM-12+036599999V0203201N001512200019N0550001N1-01151-01241099691ADDAY121031AY201031GF101991011011017501001001MA1999999095231MD1310071+9999MW1011REMSYN072AAXX  16094 01367 41785 13203 11115 21124 39523 49969 53070 70120 81100;EQDQ01+000702APC3  
0171013670999992000021612004+60980+009230FM-12+036599999V0203201N001512200019N0750001N1-00701-00951099671ADDAY121061AY201061GF101991011011017501001011MA1999999095231MD1410001+9999MW1021REMSYN082AAXX  16124 01367 41789 13203 11070 21095 39523 49967 54000 70220 81101 333 91105;
0180013670999992000021615004+60980+009230FM-12+036599999V0203001N000512200019N0750001N1-00501-00851099581ADDAY111031AY201031GF101991011011017501001011MA1999999095161MD1810091+9999MW1021REMSYN072AAXX  16154 01367 41789 13001 11050 21085 39516 49958 58080 70210 81101;EQDQ01+000802APC3  
0230013670999992000021618004+60980+009230FM-12+036599999V0203301N001512200019N0750001N1-00831-01001099661ADDAA199000091AY101061AY201061GA1001+999999999GF100991001001999999001001KA1120M-00391MA1999999095211MD1310061+9999MW1021REMSYN082AAXX  16184 01367 31989 03303 11083 21100 39521 49966 53006 70200 333 11039 91105;EQDQ01  00002PRCP99
0181013670999992000021700004+60980+009230FM-12+036599999V0203301N001512200019N0550001N1-01331-01421099931ADDAY101061AY201061GA1001+999999999GF100991001001999999001001MA1999999095451MD1310241+9999MW1011REMSYN076AAXX  17004 01367 41985 03303 11133 21142 39545 49993 53024 70100 333 91103;
0171013670999992000021703004+60980+009230FM-12+036599999V0203301N001512200019N0550001N1-01481-01571099991ADDAY101031AY201031GA1001+999999999GF100991001001999999001001MA1999999095501MD1110051+9999MW1021REMSYN066AAXX  17034 01367 41985 03303 11148 21157 39550 49999 51005 70200;
0259013670999992000021706004+60980+009230FM-12+036599999V0203301N001512200019N0550001N1-01641-01731100221ADDAA199000091AJ100199199999999AY101061AY201061GA1001+999999999GF100991001001999999001001IA1239KA1120N-01651MA1999999095711MD1210211+9999MW1021REMSYN088AAXX  17064 01367 31985 03303 11164 21173 39571 40022 52021 70200 333 21165 47019 91104;EQDQ01  00002PRCP99
0161013670999992000021709004+60980+009230FM-12+036599999V0203201N002112200019N0550001N1-01571-01721100311ADDAY101031AY201031GF103991001001999999001011MA1999999095801MD1310091+9999MW1031REMSYN072AAXX  17094 01367 41985 33204 11157 21172 39580 40031 53009 70300 80001;
0171013670999992000021712004+60980+009230FM-12+036599999V0203001N001012200019N0550001N1-00811-01231100331ADDAY111061AY201061GF104991041001022501031001MA1999999095851MD1310051+9999MW1031REMSYN082AAXX  17124 01367 41885 43002 11081 21123 39585 40033 53005 70310 84030 333 91106;
0161013670999992000021715004+60980+009230FM-12+036599999V0200901N000512200019N0550001N1-00721-01031100321ADDAY111031AY201031GF104991041001022501031001MA1999999095851MD1410001+9999MW1021REMSYN072AAXX  17154 01367 41885 40901 11072 21103 39585 40032 54000 70210 84030;
0220013670999992000021718004+60980+009230FM-12+036599999V0203201N001510210019N0300001N1-00881-01161100491ADDAA199000091AY121061AY201061GF106991061001022501011001KA1120M-00561MA1999999096011MD1210151+9999MW1031REMSYN088AAXX  17184 01367 31880 63203 11088 21116 39601 40049 52015 70320 86010 333 11056 91110;EQDQ01  00002PRCP99
0181013670999992000021800004+60980+009230FM-12+036599999V0203301N001512200019N0300001N1-01311-01551100651ADDAY121061AY201061GA1001+999999999GF100991001001999999001001MA1999999096141MD1210131+9999MW1011REMSYN076AAXX  18004 01367 41980 03303 11131 21155 39614 40065 52013 70120 333 91106;
0171013670999992000021803004+60980+009230FM-12+036599999V0203101N001512200019N0300001N1-01521-01711100641ADDAY101031AY201031GA1001+999999999GF100991001001999999001001MA1999999096121MD1010021+9999MW1021REMSYN066AAXX  18034 01367 41980 03103 11152 21171 39612 40064 50002 70200;
0259013670999992000021806004+60980+009230FM-12+036599999V0203201N001512200019N0300001N1-01661-01821100641ADDAA199000091AJ100199199999999AY101061AY201061GA1001+999999999GF100991001001999999001001IA1239KA1120N-01661MA1999999096111MD1610011+9999MW1021REMSYN088AAXX  18064 01367 31980 03203 11166 21182 39611 40064 56001 70200 333 21166 47019 91106;EQDQ01  00002PRCP99
0171013670999992000021809004+60980+009230FM-12+036599999V0203201N002112200019N0550001N1-01561-01801100651ADDAY101031AY201031GA1001+999999999GF100991001001999999001001MA1999999096121MD1310201+9999MW1021REMSYN066AAXX  18094 01367 41985 03204 11156 21180 39612 40065 53020 70200;
0200013670999992000021812004+60980+009230FM-12+036599999V0201801N000512200019N0750001N1-01031-01381100571ADDAY101061AY201061GA1001+999999999GF100991001001999999001001MA1999999096071MD1810081+9999MW1021REMSYN076AAXX  18124 01367 41989 01801 11103 21138 39607 40057 58050 70200 333 91106;EQDQ01+000502APC3  
0190013670999992000021815004+60980+009230FM-12+036599999V0201801N000512200019N0750001N1-00631-01121100451ADDAY101031AY201031GA1001+999999999GF100991001001999999001001MA1999999095981MD1810121+9999MW1021REMSYN066AAXX  18154 01367 41989 01801 11063 21112 39598 40045 58090 70200;EQDQ01+000902APC3  
0230013670999992000021818004+60980+009230FM-12+036599999V0209999C000012200019N0750001N1-01151-01401100611ADDAA199000091AY101061AY201061GA1001+999999999GF100991001001999999001001KA1120M-00601MA1999999096111MD1310121+9999MW1021REMSYN082AAXX  18184 01367 31989 00000 11115 21140 39611 40061 53012 70200 333 11060 91103;EQDQ01  00002PRCP99
0181013670999992000021900004+60980+009230FM-12+036599999V0203201N001512200019N0550001N1-01581-01771100851ADDAY101061AY201061GA1001+999999999GF100991001001999999001001MA1999999096311MD1210211+9999MW1021REMSYN076AAXX  19004 01367 41985 03203 11158 21177 39631 40085 52021 70200 333 91105;
0238013670999992000021903004+60980+009230FM-12+036599999V0203201N002112200019N0550001N1+99999+99999100791ADDAY101031AY201031GA1001+999999999GF100991001001999999001001MA1999999096341MD1310031+9999MW1021REMSYN066AAXX  19034 01367 41985 03204 10002 21019 39634 40079 53003 70200;EQDQ01+000023ATOT  Q02-000193ATOD  Q03 +00023ATOT  Q04 -00193ATOD  
0291013670999992000021906004+60980+009230FM-12+036599999V0203201N002112200019N0550001N1-01852-02002101061ADDAA199000091AJ100199199999999AY101061AY201061GA1001+999999999GF100991001001999999001001IA1239KA1120N-01851MA1999999096501MD1310151+9999MW1021REMSYN088AAXX  19064 01367 31985 03204 11185 21200 39650 40106 53015 70200 333 21185 47019 91106;EQDQ01-001853ATOT  Q02-002003ATOD  Q03  00002PRCP99
0171013670999992000021909004+60980+009230FM-12+036599999V0203301N001512200019N0550001N1-01671-01871101311ADDAY101031AY201031GA1001+999999999GF100991001001999999001001MA1999999096751MD1210161+9999MW1021REMSYN066AAXX  19094 01367 41985 03303 11167 21187 39675 40131 52016 70200;
0171013670999992000021912004+60980+009230FM-12+036599999V0203001N000512200019N0550001N1-00951-01451101331ADDAY101061AY201061GF101991001001999999001011MA1999999096811MD1210151+9999MW1031REMSYN082AAXX  19124 01367 41985 13001 11095 21145 39681 40133 52015 70300 80001 333 91106;
0161013670999992000021915004+60980+009230FM-12+036599999V0201401N000512200019N0550001N1-00701-01241101361ADDAY101031AY201031GF102991021001999999031001MA1999999096841MD1210041+9999MW1031REMSYN072AAXX  19154 01367 41985 21401 11070 21124 39684 40136 52004 70300 82030;
0230013670999992000021918004+60980+009230FM-12+036599999V0203201N001012200019N0550001N1-00941-01351101511ADDAA199000091AY101061AY201061GA1001+999999999GF100991001001999999001001KA1120M-00591MA1999999096981MD1210131+9999MW1011REMSYN082AAXX  19184 01367 31985 03202 11094 21135 39698 40151 52013 70100 333 11059 91105;EQDQ01  00002PRCP99
0181013670999992000022000004+60980+009230FM-12+036599999V0203201N002112200019N0550001N1-01381-01571102181ADDAY101061AY201061GA1001+999999999GF100991001001999999001001MA1999999097591MD1210151+9999MW1021REMSYN076AAXX  20004 01367 41985 03204 11138 21157 39759 40218 52015 70200 333 91107;
0171013670999992000022003004+60980+009230FM-12+036599999V0203201N002612200019N0550001N1-01531-01681102321ADDAY101031AY201031GA1001+999999999GF100991001001999999001001MA1999999097721MD1210181+9999MW1021REMSYN066AAXX  20034 01367 41985 03205 11153 21168 39772 40232 52018 70200;
0259013670999992000022006004+60980+009230FM-12+036599999V0203201N002612200019N0550001N1-01631-01781102451ADDAA199000091AJ100159199999999AY101061AY201061GA1001+999999999GF100991001001999999001001IA1239KA1120N-01921MA1999999097841MD1210071+9999MW1021REMSYN088AAXX  20064 01367 31985 03205 11163 21178 39784 40245 52007 70200 333 21192 47015 91107;EQDQ01  00002PRCP99
0180013670999992000022009004+60980+009230FM-12+036599999V0203301N002112200019N0750001N1-01481-01671102651ADDAY101031AY201031GF101991011011017501001001MA1999999098041MD1210201+9999MW1021REMSYN072AAXX  20094 01367 41789 13304 11148 21167 39804 40265 52200 70200 81100;EQDQ01+002002APC3  
0190013670999992000022012004+60980+009230FM-12+036599999V0202501N000512200019N0750001N1-00961-01311102681ADDAY101061AY201061GF101991011011017501001001MA1999999098091MD1110031+9999MW1021REMSYN082AAXX  20124 01367 41789 12501 11096 21131 39809 40268 51050 70200 81100 333 91107;EQDQ01+000502APC3  
