0189026800999992000010100004+56920+018150FM-12+003999999V0203101N002110054019N0400001N1-00141-00441102081ADDAA106000091GA1061+005409059GF107991061051004501071999MA1999999101591MD1610061+9999REMSYN076AAXX  01004 02680 32482 73104 11014 21044 30159 40208 56006 8657/ 333 86618;EQDQ01  00002PRCP06
0252026800999992000010106004+56920+018150FM-12+003999999V0202501N003110012019N0110001N1+00101+00071101941ADDAA112000591AJ100019199999999AY121061AY221061GA1081+001209069GF108991081071001501999999IA1289KA1120N-00241MA1999999101451MD1710081+9999MW1681REMSYN100AAXX  01064 02680 11261 82506 10010 20007 30145 40194 57008 69962 76822 887// 333 21024 44001 88704;
0198026800999992000010109004+56920+018150FM-12+003999999V0202401N003110012019N0150001N1+00191+00181101941ADDAA106000021AY161031AY261031GA1081+001209069GF108991081071002501999999MA1999999101461MD1210011+9999MW1231REMSYN082AAXX  01094 02680 31365 82406 10019 20018 30146 40194 52001 72366 887// 333 88704;
0210026800999992000010112004+56920+018150FM-12+003999999V0202401N00261004501CN0300001N1+00221+00161101891ADDAA106001091AY161061AY261061GA1071+004509069GF108991071051004501021999MA1999999101411MD1710051+9999MW1021REMSYN094AAXX  01124 02680 11480 82405 10022 20016 30141 40189 57005 60011 70266 8752/ 333 87694 88499;
0159026800999992000010115004+56920+018150FM-12+003999999V0202301N003110300019N0300001N1+00191+00161101891ADDGA1011+004509059GF108991011051004501021999MA1999999101411MD1410001+9999REMSYN076AAXX  01154 02680 42480 82306 10019 20016 30141 40189 54000 8152/ 333 81694;
0223026800999992000010118004+56920+018150FM-12+003999999V0202201N003110039019N0120001N1+00201+00191101931ADDAA112001091AY121061AY221061GA1081+003909059GF108991081051004501999999KA1120M+00231MA1999999101451MD1110041+9999MW1221REMSYN094AAXX  01184 02680 11462 82206 10020 20019 30145 40193 51004 60012 72222 885// 333 10023 88613;
0193026800999992000010121004+56920+018150FM-12+003999999V0202101N003610021019N0150001N1+00221+00191101981ADDAY161031AY261031GA1061+002109069GF108991081051002501999999MA1999999101501MD1310051+9999MW1021REMSYN088AAXX  01214 02680 41365 82107 10022 20019 30150 40198 53005 70266 885// 333 86607 88619;
0204026800999992000010200004+56920+018150FM-12+003999999V0202001N003110018019N0150001N1+00231+00221101991ADDAA106000191AY161061AY261061GA1081+001809069GF108991081061001501999999MA1999999101511MD1110011+9999MW1021REMSYN088AAXX  02004 02680 11265 82006 10023 20022 30151 40199 51001 69911 70266 886// 333 88706;
0159026800999992000010203004+56920+018150FM-12+003999999V0202101N003610012019N0110001N1+00261+00251101981ADDGA1081+001209069GF108991081061001501999999MA1999999101501MD1710011+9999REMSYN076AAXX  02034 02680 42261 82107 10026 20025 30150 40198 57001 886// 333 88704;
0254026800999992000010206004+56920+018150FM-12+003999999V0202001N002610003019N0020001N1+00301+00291101941ADDAA112000191AY121061AY221061GA1081+000309069GF108991081061000251999999IA1099KA1120N+99999MA1999999101461MD1710041+9999MW1101REMSYN100AAXX  02064 02680 11020 82005 10030 20029 30146 40194 57004 69912 71022 886// 333 20200 31/// 88701;EQDQ01 +02002ATMN  
0171026800999992000010209004+56920+018150FM-12+003999999V0202001N003110003019N0002001N1+00331+00321101881ADDAY121031AY221031GA1091+999999999GF109991091999999999999999MA1999999101401MD1810061+9999MW1471REMSYN066AAXX  02094 02680 41/02 92006 10033 20032 30140 40188 58006 74722;
0223026800999992000010212004+56920+018150FM-12+003999999V0202301N00411000601CN0300001N1+00191+00181101711ADDAA106000091AY141061AY221061GA1021+000909079GF108991081061000751999999MA1999999101231MD1810171+9999MW1021REMSYN088AAXX  02124 02680 31180 82308 10019 20018 30123 40171 58017 70242 886// 333 82703 88793;EQDQ01  00002PRCP06
0159026800999992000010215004+56920+018150FM-12+003999999V0202401N005110033019N0300001N1+00251+00241101491ADDGA1081+003309059GF108991081051004501999999MA1999999101011MD1510221+9999REMSYN076AAXX  02154 02680 42480 82410 10025 20024 30101 40149 55022 885// 333 88611;
0251026800999992000010218004+56920+018150FM-12+003999999V0202501N00571002101CN0100001N1+00361+00321101261ADDAA112000191AY161061AY221061GA1011+002709079GA2031+003609069GF108991081051002501999999KA1120M+00391MA1999999100781MD1610231+9999MW1021REMSYN106AAXX  02184 02680 11360 82511 10036 20032 30078 40126 56023 69912 70262 885// 333 10039 81709 83612 88618;
0143026800999992000010221004+56920+018150FM-12+003999999V0202501N005112200019N0150001N1+00381+00351101201ADDGA1001+999999999GF100991001001999999001001MA1999999100721MD1610061+9999REMSYN060AAXX  02214 02680 42965 02510 10038 20035 30072 40120 56006;
0173026800999992000010300004+56920+018150FM-12+003999999V0202701N005712200019N0400001N1+00341+00301101241ADDAA106000091GA1001+999999999GF100991001001999999001001MA1999999100761MD1210041+9999REMSYN060AAXX  03004 02680 32982 02711 10034 20030 30076 40124 52004;EQDQ01  00002PRCP06
0159026800999992000010303004+56920+018150FM-12+003999999V0202901N004112200019N0400001N1+00291+00221101371ADDGA1011+999999079GF101991011001999999031001MA1999999100891MD1210131+9999REMSYN076AAXX  03034 02680 42982 12908 10029 20022 30089 40137 52013 81030 333 81399;
0220026800999992000010306004+56920+018150FM-12+003999999V0202901N004112200019N0400001N1+00221+00161101431ADDAA106000091GA1011+999999079GF101991011001999999031001IA1099KA1120N+00221MA1999999100951MD1110061+9999REMSYN088AAXX  03064 02680 32982 12908 10022 20016 30095 40143 51006 81030 333 20022 31/// 81399;EQDQ01  00002PRCP06
0185026800999992000010309004+56920+018150FM-12+003999999V0202801N002619999999N0350001N1+00231+00191101441ADDGA1011+025009039GF106991061001999999071001MA1999999100961MD1010011+9999SA1+0349REMSYN094AAXX  03094 02680 42981 62805 10023 20019 30096 40144 50001 86070 222// 00034 333 81399 83499;
0195026800999992000010312004+56920+018150FM-12+003999999V0202401N00261030001CN0300001N1+00281+00241101271ADDAA106000091GA1011+002509089GF107991011011002501071999MA1999999100791MD1810171+9999REMSYN082AAXX  03124 02680 32380 72405 10028 20024 30079 40127 58017 8117/ 333 81893 86399;EQDQ01  00002PRCP06
0187026800999992000010315004+56920+018150FM-12+003999999V0202001N003110009019N0050001N1+00321+00291100971ADDAY141031AY221031GA1081+000909069GF108991081061000751999999MA1999999100491MD1810301+9999MW1101REMSYN082AAXX  03154 02680 41150 82006 10032 20029 30049 40097 58030 71042 886// 333 88703;
0224026800999992000010318004+56920+018150FM-12+003999999V0202401N004110001519N0001001N1+00441+00431100741ADDAA106000091AY141061AY221061GA1091+999999999GF109991091999999999999999KA1999M+00451MA1999999100271MD1710221+9999MW1451REMSYN076AAXX  03184 02680 31/01 92408 10044 20043 30027 40074 57022 74542 333 10045;EQDQ01  00002PRCP06
0187026800999992000010321004+56920+018150FM-12+003999999V0202601N004112200019N0049001N1+00441+00411100671ADDAY141031AY241031GA1011+000609069GF101991011061000751001001MA1999999100201MD1610071+9999MW1101REMSYN082AAXX  03214 02680 41149 12608 10044 20041 30020 40067 56007 71044 81600 333 81702;
0217026800999992000010400004+56920+018150FM-12+003999999V0202401N004110450019N0350001N1+00431+00421100631ADDAA106000091AY141061AY241061GA1081+045009079GF108991081001999999071999MA1999999100161MD1710041+9999MW1021REMSYN082AAXX  04004 02680 31981 82408 10043 20042 30016 40063 57004 70244 8807/ 333 88365;EQDQ01  00002PRCP06
0159026800999992000010403004+56920+018150FM-12+003999999V0202301N004610360019N0300001N1+00411+00401100471ADDGA1081+036009079GF108991081001999999071999MA1999999100001MD1810161+9999REMSYN076AAXX  04034 02680 42980 82309 10041 20040 30000 40047 58016 8807/ 333 88362;
0236026800999992000010406004+56920+018150FM-12+003999999V0202401N005110210019N0170001N1+00401+00391100371ADDAA106000091GA1061+021009079GF106991061999022501071001IA1099KA1120N+00361MA1999999099901MD1710101+9999REMSYN088AAXX  04064 02680 32867 62410 10040 20039 39990 40037 57010 86070 333 20036 31/// 86357;EQDQ01+000002SCOLCGQ02  00002PRCP06
0143026800999992000010409004+56920+018150FM-12+003999999V0202401N005112200019N0300001N1+00401+00361100371ADDGA1001+999999999GF100991001001999999001001MA1999999099901MD1510001+9999REMSYN060AAXX  04094 02680 42980 02410 10040 20036 39990 40037 55000;
0201026800999992000010412004+56920+018150FM-12+003999999V0202701N006712200019N0290001N1+00471-00051100281ADDAA106000091AY121061AY201061GA1001+999999999GF100991001001999999001001MA1999999099811MD1810091+9999MW1051REMSYN066AAXX  04124 02680 31979 02713 10047 21005 39981 40028 58009 70520;EQDQ01  00002PRCP06
0159026800999992000010415004+56920+018150FM-12+003999999V0202701N006712200019N0300001N1+00411-00101100481ADDGA1011+999999019GF101991001001999999001011MA1999999100011MD1310201+9999REMSYN076AAXX  04154 02680 42980 12713 10041 21010 30001 40048 53020 80001 333 81099;
0196026800999992000010418004+56920+018150FM-12+003999999V0202601N006212200019N0300001N1+00351-00081100511ADDAA106000091GA1001+999999999GF100991001001999999001001KA1999M+00481MA1999999100041MD1110031+9999REMSYN070AAXX  04184 02680 32980 02612 10035 21008 30004 40051 51003 333 10048;EQDQ01  00002PRCP06
0162026800999992000010421004+56920+018150FM-12+003999999V0202601N005112200019N0300001N1+00311+00091999999ADDGA1001+999999999GF100991001001999999001001MA1999999100161MD1310121+9999REMSYN060AAXX  04214 02680 42980 02610 10031 20009 30016 40663 53012;EQDQ01+106633APOSLP
0189026800999992000010500004+56920+018150FM-12+003999999V0202501N005112200019N0300001N1+00241+00131100681ADDAA106000091GA1011+999999019GF101991001001999999001011MA1999999100211MD1110051+9999REMSYN076AAXX  05004 02680 32980 12510 10024 20013 30021 40068 51005 80001 333 81099;EQDQ01  00002PRCP06
0159026800999992000010503004+56920+018150FM-12+003999999V0202501N002619999999N0300001N1+00191+00111100571ADDGA1081+999999089GF108991001001999999001071MA1999999100101MD1810111+9999REMSYN076AAXX  05034 02680 42980 82505 10019 20011 30010 40057 58011 80007 333 88299;
0220026800999992000010506004+56920+018150FM-12+003999999V0202601N001019999999N0300001N1+00161+00081100541ADDAA106000091GA1081+999999089GF108991001001999999001071IA1099KA1120N+00161MA1999999100071MD1610031+9999REMSYN088AAXX  05064 02680 32980 82602 10016 20008 30007 40054 56003 80007 333 20016 31/// 88299;EQDQ01  00002PRCP06
0185026800999992000010509004+56920+018150FM-12+003999999V0203301N00051075001CN0250001N1+00191+00111100661ADDGA1031+022509039GF108991031001022501071071MA1999999100191MD1310121+9999SA1+0349REMSYN094AAXX  05094 02680 42875 83301 10019 20011 30019 40066 53012 83077 222// 00034 333 83398 88299;
0189026800999992000010512004+56920+018150FM-12+003999999V0203301N002112200019N0290001N1+00251+00171100941ADDAA106000091GA1011+008009059GF103991011051008001071011MA1999999100461MD1210271+9999REMSYN076AAXX  05124 02680 32579 33304 10025 20017 30046 40094 52027 81571 333 81695;EQDQ01  00002PRCP06
0165026800999992000010515004+56920+018150FM-12+003999999V0203101N00261030001CN0300001N1+00161+00101101281ADDGA1021+004509069GF108991021051004501031071MA1999999100801MD1210341+9999REMSYN082AAXX  05154 02680 42480 83105 10016 20010 30080 40128 52034 82537 333 82694 88299;
0143026800999992000010521004+56920+018150FM-12+003999999V0202501N002112200019N0300001N1+00191+00111101691ADDGA1001+999999999GF100991001001999999001001MA1999999101211MD1210161+9999REMSYN060AAXX  05214 02680 42980 02504 10019 20011 30121 40169 52016;
0159026800999992000010603004+56920+018150FM-12+003999999V0202301N003110180019N0200001N1+00291+00231101761ADDGA1081+018009059GF108991081051017501999999MA1999999101281MD1410001+9999REMSYN076AAXX  06034 02680 42770 82306 10029 20023 30128 40176 54000 885// 333 88656;
0236026800999992000010606004+56920+018150FM-12+003999999V0202101N004112200019N0290001N1+00291+00241101651ADDAA106000091GA1031+022509079GF103991031999022501071001IA1099KA1120N+00131MA1999999101171MD1810111+9999REMSYN088AAXX  06064 02680 32879 32108 10029 20024 30117 40165 58011 83070 333 20013 31/// 83398;EQDQ01+000002SCOLCGQ02  00002PRCP06
0159026800999992000010609004+56920+018150FM-12+003999999V0202001N005112200019N0280001N1+00331+00291101571ADDGA1011+002509069GF102991011061002501001081MA1999999101091MD1810081+9999REMSYN076AAXX  06094 02680 42378 22010 10033 20029 30109 40157 58008 81608 333 81793;
0189026800999992000010612004+56920+018150FM-12+003999999V0202101N005712200019N0300001N1+00401+00181101491ADDAA106000091GA1011+999999079GF101991011001999999071011MA1999999101011MD1710081+9999REMSYN076AAXX  06124 02680 32980 12111 10040 20018 30101 40149 57008 81071 333 81399;EQDQ01  00002PRCP06
0159026800999992000010615004+56920+018150FM-12+003999999V0202001N006212200019N0290001N1+00321+00211101231ADDGA1011+999999079GF101991011001999999071011MA1999999100751MD1810261+9999REMSYN076AAXX  06154 02680 42979 12012 10032 20021 30075 40123 58026 81071 333 81399;
0159026800999992000010621004+56920+018150FM-12+003999999V0202101N006210036019N0200001N1+00391+00271100951ADDGA1081+003609059GF108991081051004501999999MA1999999100471MD1710101+9999REMSYN076AAXX  06214 02680 42470 82112 10039 20027 30047 40095 57010 885// 333 88612;
0204026800999992000010700004+56920+018150FM-12+003999999V0202201N006210015019N0030001N1+00371+00291100831ADDAA106000591AY121061AY221061GA1081+001509069GF108991081071001501999999MA1999999100361MD1710111+9999MW1611REMSYN088AAXX  07004 02680 11230 82212 10037 20029 30036 40083 57011 69941 76122 887// 333 88705;
0193026800999992000010703004+56920+018150FM-12+003999999V0202301N00511001201CN0030001N1+00431+00371100831ADDAY161031AY261031GA1041+001509079GF108991081071001501999999MA1999999100361MD1010001+9999MW1101REMSYN088AAXX  07034 02680 41230 82310 10043 20037 30036 40083 50000 71066 887// 333 84705 88708;
0235026800999992000010706004+56920+018150FM-12+003999999V0202701N004112200019N0350001N1+00331+00111101141ADDAA112000591AY161061AY221061GA1011+008009059GF101991011051008001999999IA1099KA1120N+00331MA1999999100661MD1310301+9999MW1021REMSYN100AAXX  07064 02680 11581 12708 10033 20011 30066 40114 53030 69962 70262 815// 333 20033 31/// 81695;
0179026800999992000010709004+56920+018150FM-12+003999999V0202601N004112200019N0400001N1+00291+00111101441ADDGA1011+004509059GF101991011061004501001081MA1999999100961MD1110301+9999SA1+0329REMSYN088AAXX  07094 02680 42482 12608 10029 20011 30096 40144 51030 81608 222// 00032 333 81694;
0189026800999992000010712004+56920+018150FM-12+003999999V0202501N003619999999N0400001N1+00301+00091101511ADDAA106000091GA1051+999999089GF105991001001999999001061MA1999999101031MD1110071+9999REMSYN076AAXX  07124 02680 32982 52507 10030 20009 30103 40151 51007 80006 333 85299;EQDQ01  00002PRCP06
0165026800999992000010715004+56920+018150FM-12+003999999V0202301N003119999999N0300001N1+00271+00121101551ADDGA1011+025009039GF106991061001999999071001MA1999999101071MD1110041+9999REMSYN082AAXX  07154 02680 42980 62306 10027 20012 30107 40155 51004 86070 333 81399 87499;
0208026800999992000010718004+56920+018150FM-12+003999999V0202301N004619999999N0300001N1+00321+00201101471ADDAA106000091GA1081+999999089GF108991001001999999001071KA1120M+00341MA1999999100991MD1810081+9999REMSYN082AAXX  07184 02680 32980 82309 10032 20020 30099 40147 58008 80007 333 10034 88299;EQDQ01  00002PRCP06
0119026800999992000010721004+56920+018150FM-12+003999999V0202301N005719999999N0170001N1+00391+00291999999ADDGF108991999999001501999999REMSYN081AAXX  07214 02680 42267 82311 10039 20029 3093 40141 57006 885// 333 81706 88619;
0189026800999992000010800004+56920+018150FM-12+003999999V0202101N006210024019N0120001N1+00421+00321101211ADDAA106000091GA1081+002409069GF108991081061002501999999MA1999999100731MD1810201+9999REMSYN076AAXX  08004 02680 32362 82112 10042 20032 30073 40121 58020 886// 333 88708;EQDQ01  00002PRCP06
0159026800999992000010803004+56920+018150FM-12+003999999V0202101N005710021019N0120001N1+00421+00321101091ADDGA1081+002109069GF108991081061002501999999MA1999999100611MD1710121+9999REMSYN076AAXX  08034 02680 42362 82111 10042 20032 30061 40109 57012 886// 333 88707;
0220026800999992000010806004+56920+018150FM-12+003999999V0202301N006710015019N0120001N1+00421+00321100941ADDAA106000091GA1081+001509069GF108991081061001501999999IA1099KA1120N+00321MA1999999100461MD1710151+9999REMSYN088AAXX  08064 02680 32262 82313 10042 20032 30046 40094 57015 886// 333 20032 31/// 88705;EQDQ01  00002PRCP06
0159026800999992000010809004+56920+018150FM-12+003999999V0202201N006210025019N0150001N1+00411+00311101001ADDGA1081+002509069GF108991081061002501999999MA1999999100521MD1110061+9999REMSYN076AAXX  08094 02680 42365 82212 10041 20031 30052 40100 51006 886// 333 88793;
0217026800999992000010812004+56920+018150FM-12+003999999V0202301N006210045019N0090001N1+00431+00341100901ADDAA106000091AY121061AY221061GA1081+004509069GF108991081061002501999999MA1999999100421MD1610101+9999MW1101REMSYN082AAXX  08124 02680 31359 82312 10043 20034 30042 40090 56010 71022 886// 333 88794;EQDQ01  00002PRCP06
0187026800999992000010815004+56920+018150FM-12+003999999V0202301N005710015019N0045001N1+00411+00321100961ADDAY121031AY221031GA1081+001509069GF108991081061001501999999MA1999999100481MD1110061+9999MW1101REMSYN082AAXX  08154 02680 41245 82311 10041 20032 30048 40096 51006 71022 886// 333 88792;
0236026800999992000010818004+56920+018150FM-12+003999999V0202401N005110006019N0040001N1+00411+00321101041ADDAA106000091AY121061AY221061GA1081+000609069GF108991081061000751999999KA1120M+00451MA1999999100561MD1010081+9999MW1101REMSYN088AAXX  08184 02680 31140 82410 10041 20032 30056 40104 50008 71022 886// 333 10045 88702;EQDQ01  00002PRCP06
0143026800999992000010821004+56920+018150FM-12+003999999V0202401N005112200019N0120001N1+00361+00271101191ADDGA1001+999999999GF100991001001999999001001MA1999999100711MD1310151+9999REMSYN060AAXX  08214 02680 42962 02410 10036 20027 30071 40119 53015;
0173026800999992000010900004+56920+018150FM-12+003999999V0202401N004112200019N0300001N1+00371+00301101301ADDAA106000091GA1001+999999999GF100991001001999999001001MA1999999100821MD1110111+9999REMSYN060AAXX  09004 02680 32980 02408 10037 20030 30082 40130 51011;EQDQ01  00002PRCP06
0143026800999992000010903004+56920+018150FM-12+003999999V0202301N003112200019N0350001N1+00321+00201101401ADDGA1001+999999999GF100991001001999999001001MA1999999100921MD1210101+9999REMSYN060AAXX  09034 02680 42981 02306 10032 20020 30092 40140 52010;
0165026800999992000010909004+56920+018150FM-12+003999999V0202301N003119999999N0230001N1+00361+00291101661ADDGA1011+025009039GF107991071001999999071999MA1999999101181MD1110151+9999REMSYN082AAXX  09094 02680 42973 72306 10036 20029 30118 40166 51015 8707/ 333 81399 86399;
0195026800999992000010912004+56920+018150FM-12+003999999V0202301N003112200019N0220001N1+00391+00301101721ADDAA106000091GA1011+025009039GF103991011001999999031021MA1999999101241MD1110061+9999REMSYN082AAXX  09124 02680 32972 32306 10039 20030 30124 40172 51006 81032 333 81399 83099;EQDQ01  00002PRCP06
0165026800999992000010915004+56920+018150FM-12+003999999V0202501N003119999999N0230001N1+00301+00211101811ADDGA1011+025009039GF108991011001999999071071MA1999999101331MD1310091+9999REMSYN082AAXX  09154 02680 42973 82506 10030 20021 30133 40181 53009 81077 333 81399 88299;
0196026800999992000010918004+56920+018150FM-12+003999999V0202401N003112200019N0230001N1+00291+00201101921ADDAA106000091GA1001+999999999GF100991001001999999001001KA1999M+00401MA1999999101441MD1210111+9999REMSYN070AAXX  09184 02680 32973 02406 10029 20020 30144 40192 52011 333 10040;EQDQ01  00002PRCP06
0143026800999992000010921004+56920+018150FM-12+003999999V0202401N004112200019N0160001N1+00271+00181102041ADDGA1001+999999999GF100991001001999999001001MA1999999101561MD1210121+9999REMSYN060AAXX  09214 02680 42966 02408 10027 20018 30156 40204 52012;
0173026800999992000011000004+56920+018150FM-12+003999999V0202301N003112200019N0300001N1+00251+00161102151ADDAA106000091GA1001+999999999GF100991001001999999001001MA1999999101671MD1110111+9999REMSYN060AAXX  10004 02680 32980 02306 10025 20016 30167 40215 51011;EQDQ01  00002PRCP06
0143026800999992000011003004+56920+018150FM-12+003999999V0202601N003612200019N0300001N1+00271+00181102291ADDGA1001+999999999GF100991001001999999001001MA1999999101811MD1210141+9999REMSYN060AAXX  10034 02680 42980 02607 10027 20018 30181 40229 52014;
0208026800999992000011006004+56920+018150FM-12+003999999V0202601N003112200019N0400001N1+00251+00161102421ADDAA106000091GA1001+999999999GF100991001001999999001001IA1099KA1120N+00251MA1999999101941MD1210131+9999REMSYN076AAXX  10064 02680 32982 02606 10025 20016 30194 40242 52013 333 20025 31///;EQDQ01  00002PRCP06
0179026800999992000011009004+56920+018150FM-12+003999999V0202701N003112200019N0400001N1+00301+00201102561ADDGA1011+999999079GF101991011001999999051001MA1999999102081MD1210141+9999SA1+0249REMSYN088AAXX  10094 02680 42982 12706 10030 20020 30208 40256 52014 81050 222// 00024 333 81399;
0189026800999992000011012004+56920+018150FM-12+003999999V0202801N003612200019N0450001N1+00341+00171102681ADDAA106000091GA1011+999999019GF101991001001999999001011MA1999999102201MD1210121+9999REMSYN076AAXX  10124 02680 32983 12807 10034 20017 30220 40268 52012 80001 333 81099;EQDQ01  00002PRCP06
0159026800999992000011015004+56920+018150FM-12+003999999V0202701N003112200019N0450001N1+00211+00071102791ADDGA1011+999999079GF101991011001999999031011MA1999999102311MD1310111+9999REMSYN076AAXX  10154 02680 42983 12706 10021 20007 30231 40279 53011 81031 333 81399;
0208026800999992000011018004+56920+018150FM-12+003999999V0202701N004112200019N0400001N1+00251+00101102881ADDAA106000091GA1011+999999019GF101991001001999999001011KA1120M+00351MA1999999102401MD1310091+9999REMSYN082AAXX  10184 02680 32982 12708 10025 20010 30240 40288 53009 80001 333 10035 81099;EQDQ01  00002PRCP06
0143026800999992000011021004+56920+018150FM-12+003999999V0202401N003112200019N0350001N1+00241+00111102961ADDGA1001+999999999GF100991001001999999001001MA1999999102481MD1210081+9999REMSYN060AAXX  10214 02680 42981 02406 10024 20011 30248 40296 52008;
0173026800999992000011100004+56920+018150FM-12+003999999V0202401N004112200019N0300001N1+00171+00061102941ADDAA106000091GA1001+999999999GF100991001001999999001001MA1999999102461MD1610021+9999REMSYN060AAXX  11004 02680 32980 02408 10017 20006 30246 40294 56002;EQDQ01  00002PRCP06
0159026800999992000011103004+56920+018150FM-12+003999999V0202401N005712200019N0200001N1+00201+00091102841ADDGA1011+002409069GF101991011061002501001001MA1999999102361MD1710101+9999REMSYN076AAXX  11034 02680 42370 12411 10020 20009 30236 40284 57010 81600 333 81708;
0226026800999992000011106004+56920+018150FM-12+003999999V0202401N006210030019N0250001N1+00251+00101102791ADDAA106000091GA1061+003009069GF107991071051004501999999IA1099KA1120N+00171MA1999999102311MD1810051+9999REMSYN094AAXX  11064 02680 32475 72412 10025 20010 30231 40279 58005 875// 333 20017 31/// 86610 87656;EQDQ01  00002PRCP06
0189026800999992000011109004+56920+018150FM-12+003999999V0202401N005710045019N0250001N1+00301+00161102801ADDAA106000091GA1071+004509059GF108991071051004501999999MA1999999102321MD1010011+9999REMSYN076AAXX  11094 02680 32475 82411 10030 20016 30232 40280 50001 875// 333 87694;EQDQ01  00002PRCP06
0204026800999992000011112004+56920+018150FM-12+003999999V0202401N005710045019N0250001N1+00331+00211102781ADDAA106000391AY121061AY221061GA1071+004509059GF108991071051004501999999MA1999999102301MD1710021+9999MW1601REMSYN088AAXX  11124 02680 11475 82411 10033 20021 30230 40278 57002 69931 76022 875// 333 87694;
0187026800999992000011115004+56920+018150FM-12+003999999V0202401N005110015019N0030001N1+00311+00231102811ADDAY161031AY261031GA1081+001509069GF108991081071001501999999MA1999999102331MD1110031+9999MW1601REMSYN082AAXX  11154 02680 41230 82410 10031 20023 30233 40281 51003 76066 887// 333 88792;
0223026800999992000011118004+56920+018150FM-12+003999999V0202401N004610015019N0100001N1+00331+00251102821ADDAA112000391AY161061AY261061GA1081+001509069GF108991081071001501999999KA1120M+00341MA1999999102341MD1310011+9999MW1021REMSYN094AAXX  11184 02680 11260 82409 10033 20025 30234 40282 53001 69932 70266 887// 333 10034 88705;
0187026800999992000011121004+56920+018150FM-12+003999999V0202401N004610015019N0045001N1+00331+00271102771ADDAY121031AY221031GA1081+001509069GF108991081071001501999999MA1999999102291MD1710051+9999MW1501REMSYN082AAXX  11214 02680 41245 82409 10033 20027 30229 40277 57005 75022 887// 333 88705;
0204026800999992000011200004+56920+018150FM-12+003999999V0202301N004610012019N0045001N1+00331+00271102651ADDAA106000791AY151061AY221061GA1081+001209069GF108991081061001501999999MA1999999102171MD1810121+9999MW1101REMSYN088AAXX  12004 02680 11245 82309 10033 20027 30217 40265 58012 69901 71052 886// 333 88704;
0187026800999992000011203004+56920+018150FM-12+003999999V0202201N005710009019N0030001N1+00361+00301102511ADDAY121031AY221031GA1081+000909069GF108991081061000751999999MA1999999102031MD1710141+9999MW1101REMSYN082AAXX  12034 02680 41130 82211 10036 20030 30203 40251 57014 71022 886// 333 88703;
0213026800999992000011206004+56920+018150FM-12+003999999V0202101N006219999999N0002001N1+00351+00301102321ADDAA112000591AY121061AY221061GF108991081999999999999999IA1099KA1120N+00331MA1999999101841MD1810191+9999MW1611REMSYN094AAXX  12064 02680 11/02 82112 10035 20030 30184 40232 58019 69952 76122 88/// 333 20033 31///;
0176026800999992000011209004+56920+018150FM-12+003999999V0202301N00671002501CN0100001N1+00381+00341999999ADDGA1061+002509079GF108991999999002501999999MA1999999101731SA1+0369REMSYN099AAXX  12094 02680 41360 82313 10038 20034 30173 4021 57011 70264 8667/ 222// 00036 333 86793 88399;
0204026800999992000011212004+56920+018150FM-12+003999999V0202301N006710025019N0048001N1+00381+00331102121ADDAA106000791AY161061AY241061GA1081+002509069GF108991081061002501999999MA1999999101641MD1610091+9999MW1101REMSYN088AAXX  12124 02680 11348 82313 10038 20033 30164 40212 56009 69901 71064 886// 333 88793;
0193026800999992000011215004+56920+018150FM-12+003999999V0202301N00621030001CN0048001N1+00371+00311102081ADDAY121031AY221031GA1011+004509069GF108991011051004501071999MA1999999101601MD1710041+9999MW1101REMSYN088AAXX  12154 02680 41448 82312 10037 20031 30160 40208 57004 71022 8157/ 333 81694 88398;
0201026800999992000011218004+56920+018150FM-12+003999999V0202301N00621004201CN0200001N1+00361+00301102071ADDAA112000791GA1011+005709069GF108991081051004501999999KA1120M+00381MA1999999101591MD1610011+9999REMSYN094AAXX  12184 02680 12470 82312 10036 20030 30159 40207 56001 69902 885// 333 10038 81619 88656;
0159026800999992000011221004+56920+018150FM-12+003999999V0202201N006210150019N0200001N1+00331+00241101991ADDGA1081+015009059GF108991081051012501999999MA1999999101511MD1810081+9999REMSYN076AAXX  12214 02680 42670 82212 10033 20024 30151 40199 58008 885// 333 88650;
0189026800999992000011300004+56920+018150FM-12+003999999V0202301N006210036019N0200001N1+00331+00241101941ADDAA106000091GA1081+003609059GF108991081051004501999999MA1999999101461MD1710051+9999REMSYN076AAXX  13004 02680 32470 82312 10033 20024 30146 40194 57005 885// 333 88612;EQDQ01  00002PRCP06
0159026800999992000011303004+56920+018150FM-12+003999999V0202301N006210024019N0200001N1+00331+00241101821ADDGA1081+002409069GF108991081061002501999999MA1999999101341MD1710121+9999REMSYN076AAXX  13034 02680 42370 82312 10033 20024 30134 40182 57012 886// 333 88708;
0248026800999992000011306004+56920+018150FM-12+003999999V0202301N006210018019N0090001N1+00331+00251101791ADDAA106000091AY121061AY221061GA1081+001809069GF108991081061001501999999IA1099KA1120N+00331MA1999999101311MD1610031+9999MW1101REMSYN094AAXX  13064 02680 31259 82312 10033 20025 30131 40179 56003 71022 886// 333 20033 31/// 88706;EQDQ01  00002PRCP06
0187026800999992000011309004+56920+018150FM-12+003999999V0202301N005110015019N0049001N1+00321+00251101881ADDAY121031AY221031GA1081+001509069GF108991081061001501999999MA1999999101401MD1210091+9999MW1101REMSYN082AAXX  13094 02680 41249 82310 10032 20025 30140 40188 52009 71022 886// 333 88792;
0217026800999992000011312004+56920+018150FM-12+003999999V0202301N004610015019N0045001N1+00291+00231101861ADDAA106000091AY121061AY221061GA1081+001509069GF108991081061001501999999MA1999999101381MD1710021+9999MW1101REMSYN082AAXX  13124 02680 31245 82309 10029 20023 30138 40186 57002 71022 886// 333 88792;EQDQ01  00002PRCP06
0187026800999992000011315004+56920+018150FM-12+003999999V0202301N004610015019N0045001N1+00241+00161101861ADDAY121031AY221031GA1071+001509069GF107991071061001501999999MA1999999101381MD1410001+9999MW1101REMSYN082AAXX  13154 02680 41245 72309 10024 20016 30138 40186 54000 71022 876// 333 87792;
0236026800999992000011318004+56920+018150FM-12+003999999V0202301N004110018019N0045001N1+00261+00181101931ADDAA106000091AY121061AY221061GA1081+001809069GF108991081061001501999999KA1120M+00331MA1999999101451MD1310071+9999MW1101REMSYN088AAXX  13184 02680 31245 82308 10026 20018 30145 40193 53007 71022 886// 333 10033 88706;EQDQ01  00002PRCP06
0163026800999992000011321004+56920+018150FM-12+003999999V0202401N003110033019N0100001N1+00191+00101102041ADDGA1081+003309059GF108991081051004501999999MA1999999101561MD1210111+9999REMSYN080    AAXX  13214 02680 42460 82406 10019 20010 30156 40204 52011 885// 333 88611;
0193026800999992000011400004+56920+018150FM-12+003999999V0202501N002110045019N0200001N1+00151-00101102121ADDAA199000091GA1081+004509059GF108991081051004501999999MA1999999101641MD1210081+9999REMSYN080    AAXX  14004 02680 32470 82504 10015 21010 30164 40212 52008 885// 333 88615;EQDQ01  00002PRCP99
0163026800999992000011403004+56920+018150FM-12+003999999V0202401N001010051019N0300001N1+00101-00221102201ADDGA1081+005109059GF108991081051004501999999MA1999999101711MD1210071+9999REMSYN080    AAXX  14034 02680 42480 82402 10010 21022 30171 40220 52007 885// 333 88617;
0224026800999992000011406004+56920+018150FM-12+003999999V0202001N000510045019N0300001N1+00141-00161102281ADDAA199000091GA1081+004509059GF108991081051004501999999IA1099KA1120N+00101MA1999999101791MD1210081+9999REMSYN092    AAXX  14064 02680 32480 82001 10014 21016 30179 40228 52008 885// 333 20010 31/// 88615;EQDQ01  00002PRCP99
0183026800999992000011409004+56920+018150FM-12+003999999V0201901N001010045019N0160001N1+00161-00181102401ADDGA1081+004509059GF108991081051004501999999MA1999999101921MD1110131+9999SA1+0309REMSYN092    AAXX  14094 02680 42466 81902 10016 21018 30192 40240 51013 885// 222// 00030 333 88694;
0193026800999992000011412004+56920+018150FM-12+003999999V0201801N000510045019N0150001N1+00161-00401102431ADDAA199000091GA1081+004509059GF108991081051004501999999MA1999999101951MD1210031+9999REMSYN080    AAXX  14124 02680 32465 81801 10016 21040 30195 40243 52003 885// 333 88694;EQDQ01  00002PRCP99
0163026800999992000011415004+56920+018150FM-12+003999999V0201301N001010045019N0150001N1+00101-00481102491ADDGA1081+004509059GF108991081051004501999999MA1999999102001MD1310051+9999REMSYN080    AAXX  14154 02680 42465 81302 10010 21048 30200 40249 53005 885// 333 88694;
0212026800999992000011418004+56920+018150FM-12+003999999V0201501N001010063019N0150001N1+00041-00581102581ADDAA199000091GA1081+006309059GF108991081051008001999999KA1120M+00171MA1999999102091MD1110091+9999REMSYN086    AAXX  14184 02680 32565 81502 10004 21058 30209 40258 51009 885// 333 10017 88621;EQDQ01  00002PRCP99
0163026800999992000011421004+56920+018150FM-12+003999999V0201801N000510066019N0150001N1+00031-00571102651ADDGA1081+006609059GF108991081051008001999999MA1999999102161MD1210071+9999REMSYN080    AAXX  14214 02680 42565 81801 10003 21057 30216 40265 52007 885// 333 88622;
0193026800999992000011500004+56920+018150FM-12+003999999V0209999C000010081019N0200001N1+00001-00641102641ADDAA199000091GA1081+008109059GF108991081051008001999999MA1999999102151MD1510011+9999REMSYN080    AAXX  15004 02680 32570 80000 10000 21064 30215 40264 55001 885// 333 88627;EQDQ01  00002PRCP99
0163026800999992000011503004+56920+018150FM-12+003999999V0209999C000010087019N0210001N1+00001-00661102641ADDGA1081+008709059GF108991081051008001999999MA1999999102151MD1410001+9999REMSYN080    AAXX  15034 02680 42571 80000 10000 21066 30215 40264 54000 885// 333 88629;
0230026800999992000011506004+56920+018150FM-12+003999999V0203201N00101002101CN0170001N1+00121-00251102611ADDAA199000091GA1021+002409079GF108991081051002501999999IA1019KA1120N+00001MA1999999102121MD1710031+9999REMSYN098    AAXX  15064 02680 32367 83202 10012 21025 30212 40261 57003 885// 333 20000 30/// 82708 88614;EQDQ01  00002PRCP99
0191026800999992000011509004+56920+018150FM-12+003999999V0203601N002110045019N0650001N1+00081+00001102661ADDAY151031AY221031GA1081+004509059GF108991081051004501999999MA1999999102171MD1210051+9999MW1021REMSYN086    AAXX  15094 02680 41487 83604 10008 20000 30217 40266 52005 70252 885// 333 88694;
0208026800999992000011512004+56920+018150FM-12+003999999V0203201N002112200019N0700001N1+00101-00291102571ADDAA106000791AY151061AY221061GA1011+004509029GF102991011011004501071011MA1999999102081MD1810091+9999MW1011REMSYN092    AAXX  15124 02680 11488 23204 10010 21029 30208 40257 58009 69901 70152 81171 333 81894;
0163026800999992000011515004+56920+018150FM-12+003999999V0203001N003112200019N0700001N1+00061-00421102491ADDGA1011+999999079GF101991011001999999071001MA1999999102001MD1610081+9999REMSYN080    AAXX  15154 02680 42988 13006 10006 21042 30200 40249 56008 81070 333 81399;
0199026800999992000011518004+56920+018150FM-12+003999999V0203101N003112200019N0750001N1+00101-00421102411ADDAA112000791GA1011+999999079GF101991011001999999031011KA1120M+00151MA1999999101921MD1810081+9999REMSYN092    AAXX  15184 02680 12989 13106 10010 21042 30192 40241 58008 69902 81031 333 10015 81399;
0163026800999992000011521004+56920+018150FM-12+003999999V0203001N003119999999N0700001N1+00101-00291102371ADDGA1051+999999079GF105991051001999999071001MA1999999101881MD1610041+9999REMSYN080    AAXX  15214 02680 42988 53006 10010 21029 30188 40237 56004 85070 333 85399;
0193026800999992000011600004+56920+018150FM-12+003999999V0203201N003112200019N0750001N1+00151-00201102301ADDAA199000091GA1011+999999079GF101991011001999999071001MA1999999101821MD1810061+9999REMSYN080    AAXX  16004 02680 32989 13206 10015 21020 30182 40230 58006 81070 333 81399;EQDQ01  00002PRCP99
0163026800999992000011603004+56920+018150FM-12+003999999V0203001N002612200019N0700001N1+00121-00171102261ADDGA1011+999999079GF101991011001999999071001MA1999999101771MD1710051+9999REMSYN080    AAXX  16034 02680 42988 13005 10012 21017 30177 40226 57005 81070 333 81399;
0224026800999992000011606004+56920+018150FM-12+003999999V0202901N003112200019N0700001N1+00111-00061102221ADDAA199000091GA1011+012509059GF101991011051012501031001IA1019KA1120N+00101MA1999999101731MD1810041+9999REMSYN092    AAXX  16064 02680 32688 12906 10011 21006 30173 40222 58004 81530 333 20010 30/// 81696;EQDQ01  00002PRCP99
0169026800999992000011609004+56920+018150FM-12+003999999V0202701N002612200019N0650001N1+00201+00071102111ADDGA1011+025009039GF104991011001999999071061MA1999999101631MD1710101+9999REMSYN086    AAXX  16094 02680 42987 42705 10020 20007 30163 40211 57010 81076 333 81399 84299;
0176026800999992000011612004+56920+018150FM-12+003999999V0202701N004119999999N0550001N1+00191+00091101811ADDAA199000091GF107991071001999999071999MA1999999101331MD1810301+9999REMSYN079    AAXX  16124 02680 32985 72708 10019 20009 30133 40181 58030 8707/ 33 87399;EQDQ01  00002PRCP99
0193026800999992000011615004+56920+018150FM-12+003999999V0202501N004619999999N0450001N1+00201+00121101341ADDAA199000091GA1071+999999079GF107991071001999999071999MA1999999100861MD1810471+9999REMSYN080    AAXX  16154 02680 32983 72509 10020 20012 30086 40134 58047 8707/ 333 87399;EQDQ01  00002PRCP99
0218026800999992000011618004+56920+018150FM-12+003999999V0202601N005719999999N0450001N1+00221+00141100841ADDAA199000091GA1011+025009039GF108991011001999999071071KA1120M+00241MA1999999100361MD1710501+9999REMSYN092    AAXX  16184 02680 32983 82611 10022 20014 30036 40084 57050 81077 333 10024 81399 88299;EQDQ01  00002PRCP99
0147026800999992000011621004+56920+018150FM-12+003999999V0202701N003112200019N0450001N1+00261+00131100441ADDGA1001+999999999GF100991001001999999001001MA1999999099961MD1810461+9999REMSYN064    AAXX  16214 02680 42983 02706 10026 20013 30996 40044 58046;
0177026800999992000011700004+56920+018150FM-12+003999999V0203001N005712200019N0450001N1+00431+00131100211ADDAA199000091GA1001+999999999GF100991001001999999001001MA1999999099741MD1610221+9999REMSYN064    AAXX  17004 02680 32983 03011 10043 20013 39974 40021 56022;EQDQ01  00002PRCP99
0163026800999992000011703004+56920+018150FM-12+003999999V0202301N005112200019N0450001N1+00461+00141100001ADDGA1011+004509029GF101991011011004501001001MA1999999099531MD1710211+9999REMSYN080    AAXX  17034 02680 42483 12310 10046 20014 39953 40000 57021 81100 333 81894;
0224026800999992000011706004+56920+018150FM-12+003999999V0203101N005112200019N0550001N1+00431+00111099841ADDAA199000091GA1011+999999079GF101991011001999999071001IA1019KA1120N+00221MA1999999099371MD1610161+9999REMSYN092    AAXX  17064 02680 32985 13110 10043 20011 39937 49984 56016 81070 333 20022 30/// 81399;EQDQ01  00002PRCP99
0183026800999992000011709004+56920+018150FM-12+003999999V0203201N005112200019N0700001N1+00501-00171099751ADDGA1011+008009059GF101991011021008001001001MA1999999099281MD1810091+9999SA1+0289REMSYN092    AAXX  17094 02680 42588 13210 10050 21017 39928 49975 58009 81200 222// 00028 333 81695;
0227026800999992000011712004+56920+018150FM-12+003999999V0203201N006212200019N0700001N1+00501-00571099591ADDAA199000091AY101061AY201061GA1011+012509089GF101991011091012501001001MA1999999099121MD1710161+9999MW1151REMSYN092    AAXX  17124 02680 31688 13212 10050 21057 39912 49959 57016 71500 81900 333 81896 81996;EQDQ01  00002PRCP99
0216026800999992000011715004+56920+018150FM-12+003999999V0203301N006712200019N0700001N1+00441-00671099571ADDAY111031AY201031GA1011+012509089GF101991999091012501001001MA1999999099101MD1510021+9999MW1161REMSYN092    AAXX  17154 02680 41688 13313 10044 21067 39910 49957 55002 71610 86900 333 81896 85996;EQDQ01+000062SCOTLC
0163026800999992000011721004+56920+018150FM-12+003999999V0203301N006210180019N0650001N1+00331-00721099631ADDGA1071+018009059GF107991071051017501999999MA1999999099161MD1010011+9999REMSYN080    AAXX  17214 02680 42787 73312 10033 21072 39916 49963 50001 875// 333 87656;
0193026800999992000011800004+56920+018150FM-12+003999999V0203201N007210180019N0650001N1+00281-00711099481ADDAA199000091GA1071+018009059GF107991071051017501999999MA1999999099011MD1710151+9999REMSYN080    AAXX  18004 02680 32787 73214 10028 21071 39901 49948 57015 875// 333 87656;EQDQ01  00002PRCP99
0163026800999992000011803004+56920+018150FM-12+003999999V0203301N007210138019N0650001N1+00241-00691099331ADDGA1071+013809059GF107991071051012501999999MA1999999098861MD1710151+9999REMSYN080    AAXX  18034 02680 42687 73314 10024 21069 39886 49933 57015 875// 333 87646;
0224026800999992000011806004+56920+018150FM-12+003999999V0203601N006710099019N0700001N1+00231-00631099351ADDAA199000091GA1071+009909059GF107991071051008001999999IA1019KA1120N+00201MA1999999098881MD1310021+9999REMSYN092    AAXX  18064 02680 32588 73613 10023 21063 39888 49935 53002 875// 333 20020 30/// 87633;EQDQ01  00002PRCP99
0163026800999992000011809004+56920+018150FM-12+003999999V0203401N006210080019N0650001N1+00271-00421099461ADDGA1071+008009059GF107991071051008001999999MA1999999098991MD1210111+9999REMSYN080    AAXX  18094 02680 42587 73412 10027 21042 39899 49946 52011 875// 333 87695;
0227026800999992000011812004+56920+018150FM-12+003999999V0203401N00671004201CN0550001N1+00271+00071099631ADDAA199000091AY121061AY221061GA1031+004509099GF107991071091004501999999MA1999999099161MD1210171+9999MW1151REMSYN092    AAXX  18124 02680 31485 73413 10027 20007 39916 49963 52017 71522 879// 333 83994 87695;EQDQ01  00002PRCP99
0219026800999992000011815004+56920+018150FM-12+003999999V0203501N006212200019N0550001N1+00061-00691100031ADDAY121031AY221031GA1011+004509099GA2011+004509089GF104991041091004501001001MA1999999099551MD1310391+9999MW1151REMSYN098    AAXX  18154 02680 41485 43512 10006 21069 39955 40003 53039 71522 84900 333 81994 81894 83695;
0212026800999992000011818004+56920+018150FM-12+003999999V0203601N006210111019N0550001N1-00031-00971100431ADDAA199000091GA1051+011109059GF105991051051012501001001KA1120M+00301MA1999999099951MD1210401+9999REMSYN086    AAXX  18184 02680 32685 53612 11003 21097 39995 40043 52040 85500 333 10030 85637;EQDQ01  00002PRCP99
0163026800999992000011821004+56920+018150FM-12+003999999V0203601N004610111019N0550001N1-00081-00821100671ADDGA1051+011109059GF105991051051012501001001MA1999999100181MD1310241+9999REMSYN080    AAXX  18214 02680 42685 53609 11008 21082 30018 40067 53024 85500 333 85637;
0208026800999992000011900004+56920+018150FM-12+003999999V0203501N006210099019N0200001N1-00151-00661100881ADDAA106000791AY121061AY221061GA1071+009909099GF107991071091008001999999MA1999999100401MD1210221+9999MW1851REMSYN092    AAXX  19004 02680 11570 73512 11015 21066 30040 40088 52022 69901 78522 879// 333 87933;
0191026800999992000011903004+56920+018150FM-12+003999999V0200101N006210111019N0550001N1-00161-00941101021ADDAY181031AY281031GA1071+011109059GF107991071051012501999999MA1999999100531MD1210131+9999MW1021REMSYN086    AAXX  19034 02680 41685 70112 11016 21094 30053 40102 52013 70288 875// 333 87637;
0239026800999992000011909004+56920+018150FM-12+003999999V0203601N00511004201CN0550001N1-00021-00451101261ADDAY111031AY201031GA1021+004509099GA2011+004509089GF107991071091004501999999MA1999999100771MD1210141+9999MW1871SA1+0129REMSYN110    AAXX  19094 02680 41485 73610 11002 21045 30077 40126 52014 78710 879// 222// 00012 333 81894 82994 84695;
0208026800999992000011912004+56920+018150FM-12+003999999V0203501N006210080019N0750001N1+00031-00811101341ADDAA106000591AY181061AY211061GA1061+008009059GF106991061051008001001011MA1999999100851MD1110081+9999MW1021REMSYN092    AAXX  19124 02680 11589 63512 10003 21081 30085 40134 51008 69951 70281 86501 333 86695;
0163026800999992000011915004+56920+018150FM-12+003999999V0203401N006212200019N0750001N1+00011-01041101511ADDGA1021+008009059GF102991021051008001001011MA1999999101021MD1210171+9999REMSYN080    AAXX  19154 02680 42589 23412 10001 21104 30102 40151 52017 82501 333 82695;
0195026800999992000011918004+56920+018150FM-12+003999999V0203401N005112200019N0750001N1+00081-00891101561ADDAA112000591GA1021+008009029GF102991021021008001001001KA1120M+00101MA1999999101071MD1110051+9999REMSYN088AAXX  19184 02680 12589 23410 10008 21089 30107 40156 51005 69952 82200 333 10010 82895;
0159026800999992000011921004+56920+018150FM-12+003999999V0203301N004110080019N0750001N1+00151-00581101541ADDGA1071+008009059GF107991071021008001999999MA1999999101051MD1010021+9999REMSYN076AAXX  19214 02680 42589 73308 10015 21058 30105 40154 50002 872// 333 87695;
0189026800999992000012000004+56920+018150FM-12+003999999V0203201N004112200019N0750001N1+00071-00531101371ADDAA199000091GA1021+999999079GF102991021001999999031001MA1999999100881MD1710171+9999REMSYN076AAXX  20004 02680 32989 23208 10007 21053 30088 40137 57017 82030 333 82399;EQDQ01  00002PRCP99
0236026800999992000012006004+56920+018150FM-12+003999999V0202801N004110300019N0550001N1+00231-00141100501ADDAA199000091GA1081+030009079GF108991081001999999071999IA1099KA1120N+00071MA1999999100011MD1710512+9999REMSYN088AAXX  20064 02680 32985 82808 10023 21014 30001 40050 57051 8807/ 333 20007 31/// 88360;EQDQ01+000512APC3  Q02  00002PRCP99
0165026800999992000012009004+56920+018150FM-12+003999999V0202901N00571021001CN0550001N1+00271-00111100231ADDGA1031+022509039GF108991081001022501071999MA1999999099761MD1610251+9999REMSYN082AAXX  20094 02680 42885 82911 10027 21011 39976 40023 56025 8807/ 333 83398 88399;
0195026800999992000012012004+56920+018150FM-12+003999999V0203101N00461999999CN0550001N1+00341-00071100051ADDAA199000091GA1051+025009039GF107991071001022501071999MA1999999099581MD1710181+9999REMSYN082AAXX  20124 02680 32885 73109 10034 21007 39958 40005 57018 8707/ 333 85399 85499;EQDQ01  00002PRCP99
0165026800999992000012015004+56920+018150FM-12+003999999V0203501N00571030001CN0650001N1+00241-00831100051ADDGA1021+008009069GF107991021051008001071011MA1999999099581MD1510001+9999REMSYN082AAXX  20154 02680 42587 73511 10024 21083 39958 40005 55000 82571 333 82695 86399;
0214026800999992000012018004+56920+018150FM-12+003999999V0203601N004112200019N0700001N1+00071-01261100041ADDAA199000091GA1021+008009089GF104991021021008001091001KA1120M+00401MA1999999099571MD1710011+9999REMSYN088AAXX  20184 02680 32588 43608 10007 21126 39957 40004 57001 82290 333 10040 82895 83399;EQDQ01  00002PRCP99
0187026800999992000012021004+56920+018150FM-12+003999999V0203601N005112200019N0750001N1-00081-01401099961ADDAY181031AY211031GA1011+008009029GF101991011011008001001001MA1999999099481MD1610091+9999MW1021REMSYN082AAXX  20214 02680 41589 13610 11008 21140 39948 49996 56009 70281 81100 333 81895;
0204026800999992000012100004+56920+018150FM-12+003999999V0203601N006212200019N0750001N1-00101-01321099931ADDAA106000791AY181061AY211061GA1041+008009029GF104991041021008001001001MA1999999099451MD1710031+9999MW1021REMSYN088AAXX  21004 02680 11589 43612 11010 21132 39945 49993 57003 69901 70281 84200 333 84895;
0241026800999992000012106004+56920+018150FM-12+003999999V0203501N00621007501CN0300001N1-00271-01271100051ADDAA112000791AY181061AY221061GA1031+009909099GF105991051091008001001001IA1149KA1120N-00271MA1999999099571MD1310101+9999MW1871REMSYN106AAXX  21064 02680 11580 53512 11027 21127 39957 40005 53010 69902 78782 85900 333 21027 34/// 83933 82633;
0207026800999992000012109004+56920+018150FM-12+003999999V0200201N006210045019N0020001N1-00391-00521100411ADDAY181031AY231031GA1071+004509099GF107991071091004501999999MA1999999099931MD1310361+9999MW1861SA1+0029REMSYN094AAXX  21094 02680 41420 70212 11039 21052 39993 40041 53036 78683 879// 222// 00002 333 87994;
0204026800999992000012112004+56920+018150FM-12+003999999V0200201N005710080019N0002001N1-00231-00921100811ADDAA106000191AY181061AY231061GA1071+008009099GF107991071091008001999999MA1999999100331MD1210401+9999MW1861REMSYN088AAXX  21124 02680 11502 70211 11023 21092 30033 40081 52040 69911 78683 879// 333 87995;
0193026800999992000012115004+56920+018150FM-12+003999999V0203601N005112200019N0450001N1-00321-00891101061ADDAY181031AY231031GA1011+008009089GF103991031091008001001001MA1999999100581MD1110251+9999MW1161REMSYN088AAXX  21154 02680 41583 33610 11032 21089 30058 40106 51025 71683 83900 333 81895 82995;
0229026800999992000012118004+56920+018150FM-12+003999999V0203601N00461012001CN0350001N1-00331-01201101281ADDAA112001091AY181061AY231061GA1011+011109089GF105991051091012501001001KA1120M-00231MA1999999100791MD1110211+9999MW1851REMSYN100AAXX  21184 02680 11681 53609 11033 21120 30079 40128 51021 69992 78583 85900 333 11023 81837 84937;
0119026800999992000012121004+56920+018150FM-12+003999999V0203601N004112200019N0650001N1+99999+99999999999ADDGF102991999999012501999999REMSYN081AAXX  21214 02680 41687 23608 1103 21125 30085 40134 51006 70181 82200 333 82896;
0210026800999992000012200004+56920+018150FM-12+003999999V0203301N004112200019N0750001N1-00401-01331101341ADDAA106000791AY181061AY211061GA1011+012509089GF104991011021012501001061MA1999999100851MD1010001+9999MW1031REMSYN094AAXX  22004 02680 11689 43308 11040 21133 30085 40134 50000 69901 70381 81206 333 81896 84299;
0165026800999992000012203004+56920+018150FM-12+003999999V0203601N003119999999N0750001N1-00411-01731101201ADDGA1011+025009039GF108991011001999999031071MA1999999100711MD1810141+9999REMSYN082AAXX  22034 02680 42989 83606 11041 21173 30071 40120 58014 81037 333 81399 88299;
0243026800999992000012206004+56920+018150FM-12+003999999V0203301N002612200019N0750001N1-00451-01791101121ADDAA112000791AJ199992999999999GA1011+017509029GF101991011011017501031001IA1219KA1120N-00451MA1999999100631MD1610081+9999REMSYN094AAXX  22064 02680 12789 13305 11045 21179 30063 40112 56008 69902 81130 333 21045 45998 81897;EQDQ01  09972SNDP  
0159026800999992000012209004+56920+018150FM-12+003999999V0200401N001012200019N0750001N1-00501-01541101121ADDGA1011+012509029GF101991011021012501001011MA1999999100631MD1410001+9999REMSYN076AAXX  22094 02680 42689 10402 11050 21154 30063 40112 54000 81201 333 81896;
0189026800999992000012212004+56920+018150FM-12+003999999V0200301N001012200019N0750001N1-00331-01651101151ADDAA199000091GA1011+012509029GF102991011021012501001011MA1999999100661MD1010031+9999REMSYN076AAXX  22124 02680 32689 20302 11033 21165 30066 40115 50003 81201 333 81896;EQDQ01  00002PRCP99
0165026800999992000012215004+56920+018150FM-12+003999999V0200301N00211075001CN0750001N1-00471-01811101211ADDGA1011+012509069GF108991011051012501001071MA1999999100721MD1310061+9999REMSYN082AAXX  22154 02680 42689 80304 11047 21181 30072 40121 53006 81507 333 81696 88299;
0208026800999992000012218004+56920+018150FM-12+003999999V0200301N001512200019N0750001N1-00611-01721101241ADDAA199000091GA1011+012509059GF101991011051012501001011KA1120M-00301MA1999999100751MD1110031+9999REMSYN082AAXX  22184 02680 32689 10303 11061 21172 30075 40124 51003 81501 333 11030 81696;EQDQ01  00002PRCP99
0159026800999992000012221004+56920+018150FM-12+003999999V0200301N001519999999N0750001N1-00521-01581101311ADDGA1081+999999089GF108991001001999999001071MA1999999100821MD1210071+9999REMSYN076AAXX  22214 02680 42989 80303 11052 21158 30082 40131 52007 80007 333 88299;
0189026800999992000012300004+56920+018150FM-12+003999999V0200201N001519999999N0600001N1-00481-01541101401ADDAA199000091GA1081+999999089GF108991001001999999001071MA1999999100911MD1210091+9999REMSYN076AAXX  23004 02680 32986 80203 11048 21154 30091 40140 52009 80007 333 88299;EQDQ01  00002PRCP99
0165026800999992000012303004+56920+018150FM-12+003999999V0200301N00151030001CN0550001N1-00611-01341101451ADDGA1011+008009089GF108991011021008001031999MA1999999100961MD1110051+9999REMSYN082AAXX  23034 02680 42585 80303 11061 21134 30096 40145 51005 8123/ 333 81895 87399;
0259026800999992000012306004+56920+018150FM-12+003999999V0203501N00211030001CN0550001N1-00301-01411101491ADDAA199000091AJ199992999999999GA1011+008009069GF108991011051008001031999IA1219KA1120N-00701MA1999999101001MD1210041+9999REMSYN094AAXX  23064 02680 32585 83504 11030 21141 30100 40149 52004 8153/ 333 21070 45998 81695 88399;EQDQ01  00002PRCP99Q02  09972SNDP  
0215026800999992000012309004+56920+018150FM-12+003999999V0203501N00151030001CN0300001N1-00311-00781101581ADDAY121031AY221031GA1011+004509099GA2011+004509089GF108991021091004501071999MA1999999101091MD1210091+9999MW1851REMSYN094AAXX  23094 02680 41480 83503 11031 21078 30109 40158 52009 78522 8297/ 333 81894 81994 88499;
0210026800999992000012312004+56920+018150FM-12+003999999V0203201N00261004201CN0300001N1-00301-00401101521ADDAA106000191AY121061AY221061GA1041+004509089GF107991061021004501071999MA1999999101031MD1810061+9999MW1261REMSYN094AAXX  23124 02680 11480 73205 11030 21040 30103 40152 58006 69921 72622 8627/ 333 84894 87399;
0193026800999992000012315004+56920+018150FM-12+003999999V0200201N002112200019N0700001N1-00521-00691101651ADDAY181031AY221031GA1011+002509089GF102991021091002501061001MA1999999101161MD1310131+9999MW1011REMSYN088AAXX  23154 02680 41388 20204 11052 21069 30116 40165 53013 70182 82960 333 81893 81994;
0169026800999992000012317004+56920+018150FM-12+003999999V0200201N002112200019N0700001N1+99999+99999101791ADDAA112002091GA1001+999999999GF100991001001999999001001KA1999M-00271MA1999999101301REMSYN076AAXX  23174 02680 11988 00204 188/8 21129 30130 40179 60022 70/82 333 11027;
0211026800999992000012318004+56920+018150FM-12+003999999V0200201N002112200019N0700001N1-00601-01291101791ADDAA112002091AY181061AY221061GA1001+999999999GF100991001001999999001001KA1999M-00271MA1999999101301MD1310141+9999MW1021REMSYN082AAXX  23184 02680 11988 00204 11060 21129 30130 40179 53014 60022 70282 333 11027;
0159026800999992000012321004+56920+018150FM-12+003999999V0200201N002112200019N0700001N1-00631-01211101881ADDGA1011+008009029GF101991011021008001001001MA1999999101391MD1110091+9999REMSYN076AAXX  23214 02680 42588 10204 11063 21121 30139 40188 51009 81200 333 81895;
0170026800999992000012400004+56920+018150FM-12+003999999V0200201N002112200019N0700001N1-00541-01111101931ADDAA199000021GA1011+004509029GF101991011011004501001001MA1999999101441MD1110051+9999REMSYN076AAXX  24004 02680 32488 10204 11054 21111 30144 40193 51005 81100 333 81894;
0159026800999992000012403004+56920+018150FM-12+003999999V0200201N002112200019N0700001N1-00541-01041101951ADDGA1021+007209059GF102991021051008001001001MA1999999101461MD1210021+9999REMSYN076AAXX  24034 02680 42588 20204 11054 21104 30146 40195 52002 82500 333 82624;
0237026800999992000012406004+56920+018150FM-12+003999999V0203601N002112200019N0700001N1-00391-01181101951ADDAA199000091AJ100019199999999GA1011+006309059GF101991011051008001001011IA1229KA1120N-00751MA1999999101461MD1410001+9999REMSYN088AAXX  24064 02680 32588 13604 11039 21118 30146 40195 54000 81501 333 21075 46001 81621;EQDQ01  00002PRCP99
0185026800999992000012409004+56920+018150FM-12+003999999V0203201N00211075001CN0650001N1-00291-01431101991ADDGA1011+012509089GF108991011011012501001071MA1999999101501MD1110041+9999SA1-0029REMSYN094AAXX  24094 02680 42687 83204 11029 21143 30150 40199 51004 81107 222// 01002 333 81896 88299;
0195026800999992000012412004+56920+018150FM-12+003999999V0203001N002119999999N0650001N1-00241-01471101981ADDAA199000091GA1011+025009039GF107991011001999999051081MA1999999101491MD1810011+9999REMSYN082AAXX  24124 02680 32987 73004 11024 21147 30149 40198 58001 81058 333 81399 87299;EQDQ01  00002PRCP99
0187026800999992000012415004+56920+018150FM-12+003999999V0202601N002119999999N0700001N1-00301-01411101941ADDGA1011+025009039GA2031+025009049GF108991031001999999071071MA1999999101451MD1710041+9999REMSYN088AAXX  24154 02680 42988 82604 11030 21141 30145 40194 57004 83077 333 81399 83499 88299;
0214026800999992000012418004+56920+018150FM-12+003999999V0202601N002119999999N0650001N1-00261-00601101941ADDAA199000091GA1011+025009049GF108991011001999999011071KA1120M-00241MA1999999101451MD1010001+9999REMSYN088AAXX  24184 02680 32987 82604 11026 21060 30145 40194 50000 81017 333 11024 81499 88299;EQDQ01  00002PRCP99
0189026800999992000012500004+56920+018150FM-12+003999999V0202901N003110027019N0600001N1-00121-00211101801ADDAA199000091GA1081+002709069GF108991081061002501999999MA1999999101311MD1710081+9999REMSYN076AAXX  25004 02680 32386 82906 11012 21021 30131 40180 57008 886// 333 88709;EQDQ01  00002PRCP99
0239026800999992000012506004+56920+018150FM-12+003999999V0203201N003110039019N0250001N1-00031-00171101651ADDAA112000791AJ100019199999999AY121061AY221061GA1071+003909099GF107991071091004501999999IA1229MA1999999101161MD1610081+9999MW1851REMSYN100AAXX  25064 02680 11475 73206 11003 21017 30116 40165 56008 69902 78522 879// 333 279// 46001 87913;
0187026800999992000012509004+56920+018150FM-12+003999999V0203201N002610045019N0200001N1-00081-00201101671ADDAY181031AY221031GA1081+004509059GF108991081051004501999999MA1999999101181MD1010021+9999MW1711REMSYN082AAXX  25094 02680 41470 83205 11008 21020 30118 40167 50002 77182 885// 333 88694;
0204026800999992000012512004+56920+018150FM-12+003999999V0203101N003110045019N0350001N1-00101-00241101571ADDAA106000591AY181061AY271061GA1081+004509059GF108991081051004501999999MA1999999101081MD1810101+9999MW1021REMSYN088AAXX  25124 02680 11481 83106 11010 21024 30108 40157 58010 69941 70287 885// 333 88694;
0165026800999992000012515004+56920+018150FM-12+003999999V0202901N00361030001CN0300001N1+00051-00111101431ADDGA1011+004509069GF107991011051004501071011MA1999999100941MD1710141+9999REMSYN082AAXX  25154 02680 42480 72907 10005 21011 30094 40143 57014 81571 333 81694 87399;
0214026800999992000012518004+56920+018150FM-12+003999999V0202901N004110180019N0500001N1+00181-00211101321ADDAA112000591GA1081+018009079GF108991081999017501071999KA1120M+00201MA1999999100841MD1710101+9999REMSYN088AAXX  25184 02680 12784 82908 10018 21021 30084 40132 57010 69942 8807/ 333 10020 88356;EQDQ01+000002SCOLCG
0143026800999992000012521004+56920+018150FM-12+003999999V0203201N004112200019N0500001N1+00151-00151101391ADDGA1001+999999999GF100991001001999999001001MA1999999100901MD1310061+9999REMSYN060AAXX  25214 02680 42984 03208 10015 21015 30090 40139 53006;
0189026800999992000012600004+56920+018150FM-12+003999999V0203201N003619999999N0450001N1+00111+00001101401ADDAA199000091GA1081+999999089GF108991001001999999001071MA1999999100911MD1210011+9999REMSYN076AAXX  26004 02680 32983 83207 10011 20000 30091 40140 52001 80007 333 88299;EQDQ01  00002PRCP99
0159026800999992000012603004+56920+018150FM-12+003999999V0203101N003112200019N0450001N1+00041-00041101381ADDGA1011+999999019GF101991001001999999001011MA1999999100891MD1610021+9999REMSYN076AAXX  26034 02680 42983 13106 10004 21004 30089 40138 56002 80001 333 81099;
0243026800999992000012606004+56920+018150FM-12+003999999V0202901N003112200019N0450001N1+00041-00031101311ADDAA199000091AJ100019199999999GA1011+022509039GF103991031001022501071001IA1309KA1120N+00041MA1999999100821MD1610071+9999REMSYN094AAXX  26064 02680 32883 32906 10004 21003 30082 40131 56007 83070 333 20004 42001 81398 83399;EQDQ01  00002PRCP99
0179026800999992000012609004+56920+018150FM-12+003999999V0202701N003612200019N0550001N1+00131+00051101191ADDGA1011+999999079GF101991011001999999081011MA1999999100701MD1810121+9999SA1+0109REMSYN088AAXX  26094 02680 42985 12707 10013 20005 30070 40119 58012 81081 222// 00010 333 81399;
0189026800999992000012612004+56920+018150FM-12+003999999V0202701N004112200019N0550001N1+00321-00041101001ADDAA199000091GA1011+999999079GF101991011001999999031011MA1999999100521MD1710181+9999REMSYN076AAXX  26124 02680 32985 12708 10032 21004 30052 40100 57018 81031 333 81399;EQDQ01  00002PRCP99
0159026800999992000012615004+56920+018150FM-12+003999999V0202901N003112200019N0600001N1+00301+00001100891ADDGA1011+999999079GF101991011001999999081001MA1999999100421MD1610101+9999REMSYN076AAXX  26154 02680 42986 12906 10030 20000 30042 40089 56010 81080 333 81399;
0208026800999992000012618004+56920+018150FM-12+003999999V0202901N003112200019N0450001N1+00251+00131100871ADDAA199000091GA1011+999999079GF101991011001999999031001KA1120M+00381MA1999999100401MD1810021+9999REMSYN082AAXX  26184 02680 32983 12906 10025 20013 30040 40087 58002 81030 333 10038 81399;EQDQ01  00002PRCP99
0159026800999992000012621004+56920+018150FM-12+003999999V0203101N003612200019N0400001N1+00151+00081100861ADDGA1011+008009059GF101991011051008001001001MA1999999100391MD1710011+9999REMSYN076AAXX  26214 02680 42582 13107 10015 20008 30039 40086 57001 81500 333 81695;
0189026800999992000012700004+56920+018150FM-12+003999999V0203001N002612200019N0400001N1+00131+00071100971ADDAA199000091GA1031+001509069GF103991031061008001001001MA1999999100471MD1210081+9999REMSYN076AAXX  27004 02680 32582 33005 10013 20007 30047 40097 52008 83600 333 83705;EQDQ01  00002PRCP99
0194026800999992000012703004+56920+018150FM-12+003999999V0203201N002112200019N0450001N1+00121+00061999999ADDGA1011+999999079GF101991011001999999031011MA1999999100541MD1110071+9999REMSYN076AAXX  27034 02680 42983 13204 10012 20006 30054 40203 51007 81031 333 81399;EQDQ01+102033APOSLPQ02 102033APOSLP
0259026800999992000012706004+56920+018150FM-12+003999999V0203001N002619999999N0500001N1+00121+00061101071ADDAA199000091AJ199992999999999GA1011+025009039GF107991071001999999071999IA1259KA1120N+00121MA1999999100581MD1110041+9999REMSYN094AAXX  27064 02680 32984 73005 10012 20006 30058 40107 51004 8707/ 333 20012 41998 81399 88499;EQDQ01  00002PRCP99Q02  09972SNDP  
0159026800999992000012709004+56920+018150FM-12+003999999V0203001N00261075001CN0550001N1+00161+00121100981ADDGA1081+999999019GF108991081001999999011999MA1999999100501MD1810081+9999REMSYN076AAXX  27094 02680 42985 83005 10016 20012 30050 40098 58008 8801/ 333 88499;
0195026800999992000012712004+56920+018150FM-12+003999999V0202501N00261030001CN0500001N1+00181+00141100751ADDAA199000091GA1011+002509079GF108991011061002501071071MA1999999100271MD1710231+9999REMSYN082AAXX  27124 02680 32384 82505 10018 20014 30027 40075 57023 81677 333 81793 88299;EQDQ01  00002PRCP99
0187026800999992000012715004+56920+018150FM-12+003999999V0202501N003119999999N0450001N1+00161+00101100401ADDGA1031+025009039GA2061+025009049GF108991061001999999071071MA1999999099931MD1710341+9999REMSYN088AAXX  27154 02680 42983 82506 10016 20010 39993 40040 57034 86077 333 83399 86499 88299;
0208026800999992000012718004+56920+018150FM-12+003999999V0202501N005110066019N0450001N1+00271+00211100111ADDAA199000091GA1081+006609059GF108991081051008001999999KA1120M+00321MA1999999099641MD1710291+9999REMSYN082AAXX  27184 02680 32583 82510 10027 20021 39964 40011 57029 885// 333 10032 88622;EQDQ01  00002PRCP99
0165026800999992000012721004+56920+018150FM-12+003999999V0202601N00621075001CN0400001N1+00271+00211099821ADDGA1021+008009069GF108991021051008001001071MA1999999099351MD1710291+9999REMSYN082AAXX  27214 02680 42582 82612 10027 20021 39935 49982 57029 82507 333 82695 88299;
0189026800999992000012800004+56920+018150FM-12+003999999V0202901N006219999999N0450001N1+00321+00041099701ADDAA199000091GA1011+999999079GF108991011001999999031001MA1999999099231MD1710121+9999REMSYN076AAXX  28004 02680 32983 82912 10032 20004 39923 49970 57012 81030 333 81399;EQDQ01  00002PRCP99
0165026800999992000012803004+56920+018150FM-12+003999999V0202701N005119999999N0450001N1+00301-00211099671ADDGA1011+025009039GF106991011001999999071081MA1999999099201MD1710031+9999REMSYN082AAXX  28034 02680 42983 62710 10030 21021 39920 49967 57003 81078 333 81399 86299;
0226026800999992000012806004+56920+018150FM-12+003999999V0202701N005119999999N0350001N1+00261-00121099741ADDAA199000091GA1011+025009039GF107991071001999999071999IA1099KA1120N+00261MA1999999099271MD1310071+9999REMSYN094AAXX  28064 02680 32981 72710 10026 21012 39927 49974 53007 8707/ 333 20026 31/// 81399 87499;EQDQ01  00002PRCP99
0179026800999992000012809004+56920+018150FM-12+003999999V0202701N004112200019N0400001N1+00321-00121099851ADDGA1011+999999079GF101991011001999999031011MA1999999099381MD1110111+9999SA1+0209REMSYN088AAXX  28094 02680 42982 12708 10032 21012 39938 49985 51011 81031 222// 00020 333 81399;
0195026800999992000012812004+56920+018150FM-12+003999999V0202701N004119999999N0400001N1+00441-00021099891ADDAA199000091GA1011+025009039GF108991011001999999031071MA1999999099421MD1110041+9999REMSYN082AAXX  28124 02680 32982 82708 10044 21002 39942 49989 51004 81037 333 81399 88299;EQDQ01  00002PRCP99
0159026800999992000012815004+56920+018150FM-12+003999999V0202701N002619999999N0300001N1+00231-00091099901ADDGA1081+999999079GF108991081001999999071999MA1999999099431MD1210011+9999REMSYN076AAXX  28154 02680 42980 82705 10023 21009 39943 49990 52001 8807/ 333 88399;
0208026800999992000012818004+56920+018150FM-12+003999999V0202201N002119999999N0300001N1+00131+00071099881ADDAA199000091GA1081+999999089GF109991091999999999999999KA1120M+00451MA1999999099401MD1810031+9999REMSYN082AAXX  28184 02680 32980 92204 10013 20007 39940 49988 58003 80007 333 10045 88299;EQDQ01  00002PRCP99
0159026800999992000012821004+56920+018150FM-12+003999999V0202201N002610021019N0150001N1+00171+00121099731ADDGA1081+002109069GF108991081061002501999999MA1999999099261MD1810141+9999REMSYN076AAXX  28214 02680 42365 82205 10017 20012 39926 49973 58014 886// 333 88707;
0204026800999992000012900004+56920+018150FM-12+003999999V0202401N003110018019N0045001N1+00231+00181099511ADDAA106000191AY151061AY221061GA1081+001809069GF108991081061001501999999MA1999999099041MD1210221+9999MW1101REMSYN088AAXX  29004 02680 11245 82406 10023 20018 39904 49951 52022 69921 71052 886// 333 88706;
0187026800999992000012903004+56920+018150FM-12+003999999V0202301N004110039019N0048001N1+00221+00171099311ADDAY121031AY221031GA1081+003909059GF108991081051004501999999MA1999999098841MD1710201+9999MW1101REMSYN082AAXX  29034 02680 41448 82308 10022 20017 39884 49931 57020 71022 885// 333 88613;
0235026800999992000012906004+56920+018150FM-12+003999999V0202201N005710012019N0025001N1+00231+00181099071ADDAA112000591AY161061AY221061GA1081+001209069GF108991081061001501999999IA1099KA1120N+00131MA1999999098601MD1810241+9999MW1101REMSYN100AAXX  29064 02680 11225 82211 10023 20018 39860 49907 58024 69952 71062 886// 333 20013 31/// 88704;
0187026800999992000012909004+56920+018150FM-12+003999999V0202001N007210025019N0060001N1+00221+00191098591ADDAY121031AY221031GA1081+002509069GF108991081061002501999999MA1999999098131MD1710471+9999MW1101REMSYN082AAXX  29094 02680 41356 82014 10022 20019 39813 49859 57047 71022 886// 333 88793;
0204026800999992000012912004+56920+018150FM-12+003999999V0202001N007210015019N0028001N1+00211+00171098011ADDAA106000191AY121061AY221061GA1081+001509069GF108991081061001501999999MA1999999097551MD1810581+9999MW1531REMSYN088AAXX  29124 02680 11228 82014 10021 20017 39755 49801 58058 69911 75322 886// 333 88792;
0187026800999992000012915004+56920+018150FM-12+003999999V0202001N008210015019N0060001N1+00201+00161097301ADDAY151031AY251031GA1081+001509069GF108991081071001501999999MA1999999096841MD1710711+9999MW1691REMSYN082AAXX  29154 02680 41256 82016 10020 20016 39684 49730 57071 76955 887// 333 88792;
0223026800999992000012918004+56920+018150FM-12+003999999V0202201N006210009019N0060001N1+00361+00321096891ADDAA112002091AY161061AY251061GA1081+000909069GF108991081061000751999999KA1120M+00381MA1999999096431MD1610411+9999MW1101REMSYN094AAXX  29184 02680 11156 82212 10036 20032 39643 49689 56041 60022 71065 886// 333 10038 88703;
0159026800999992000012921004+56920+018150FM-12+003999999V0202301N004610111019N0220001N1+00321+00281097021ADDGA1061+011109059GF106991061051012501001001MA1999999096561MD1310131+9999REMSYN076AAXX  29214 02680 42672 62309 10032 20028 39656 49702 53013 86500 333 86637;
0170026800999992000013000004+56920+018150FM-12+003999999V0202301N006712200019N0200001N1+00301+00241096791ADDAA199000021GA1011+008009059GF101991011051008001001001MA1999999096341MD1810221+9999REMSYN076AAXX  30004 02680 32570 12313 10030 20024 39634 49679 58022 81500 333 81695;
0159026800999992000013003004+56920+018150FM-12+003999999V0202301N008210300019N0300001N1+00321+00071096441ADDGA1081+030009079GF108991081001999999071999MA1999999095991MD1710351+9999REMSYN076AAXX  30034 02680 42980 82316 10032 20007 39599 49644 57035 8807/ 333 88360;
0220026800999992000013006004+56920+018150FM-12+003999999V0202401N007219999999N0250001N1+00291+00151096411ADDAA199000091GA1041+999999079GF105991051001999999071001IA1019KA1120N+00291MA1999999095961MD1510031+9999REMSYN088AAXX  30064 02680 32975 52414 10029 20015 39596 49641 55003 85070 333 20029 30/// 84399;EQDQ01  00002PRCP99
0193026800999992000013009004+56920+018150FM-12+003999999V0202701N00571021001CN0290001N1+00381+00031096901ADDAY161031AY221031GA1021+022509039GF107991071001022501071999MA1999999096441MD1310481+9999MW1601REMSYN088AAXX  30094 02680 41879 72711 10038 20003 39644 49690 53048 76062 8707/ 333 82398 87399;
0208026800999992000013012004+56920+018150FM-12+003999999V0203101N006219999999N0400001N1+00371-00421097801ADDAA106000791AY161061AY221061GA1071+999999079GF107991071001999999071999MD1210901+9999MW1021REMSYN088AAXX  30124 02680 11982 73112 10037 21042 39734 49780 52090 69901 70262 8707/ 333 87399;EQDQ01+097343APOSP 
0163026800999992000013015004+56920+018150FM-12+003999999V0203101N007212200019N0500001N1+00301-00991098661ADDGA1011+999999079GF101991011001999999071001MD1210861+9999REMSYN076AAXX  30154 02680 42984 13114 10030 21099 33982 49866 52086 81070 333 81399;EQDQ01+039821APOSP 
0183026800999992000013018004+56920+018150FM-12+003999999V0203101N006712200019N0500001N1+00191-01261099381ADDAA112000791GA1001+999999999GF100991001001999999001001KA1999M+00401MA1999999098911MD1210711+9999REMSYN076AAXX  30184 02680 12984 03113 10019 21126 39891 49938 52071 69902 333 10040;
0143026800999992000013021004+56920+018150FM-12+003999999V0203301N005112200019N0500001N1+00071-01491099861ADDGA1001+999999999GF100991001001999999001001MA1999999099381MD1210471+9999REMSYN060AAXX  30214 02680 42984 03310 10007 21149 39938 49986 52047;
0173026800999992000013100004+56920+018150FM-12+003999999V0202901N003112200019N0500001N1-00011-01601099951ADDAA199000091GA1001+999999999GF100991001001999999001001MA1999999099471MD1110091+9999REMSYN060AAXX  31004 02680 32984 02906 11001 21160 39947 49995 51009;EQDQ01  00002PRCP99
0178026800999992000013103004+56920+018150FM-12+003999999V0202101N000510210019N0500001N1-00101-01681099741ADDGA1081+021009079GF108991081999022501071999MA1999999099261MD1810211+9999REMSYN076AAXX  31034 02680 42884 82101 11010 21168 39926 49974 58021 8807/ 333 88357;EQDQ01+000002SCOLCG
0271026800999992000013106004+56920+018150FM-12+003999999V0201501N002110225019N0030001N1-00241-01801099241ADDAA112000191AJ199993999999999AY121061AY201061GA1081+022509029GF108991081001022501021999IA1239KA1120N-00241MA1999999098761MD1710501+9999MW1731REMSYN100AAXX  31064 02680 11830 81504 11024 21180 39876 49924 57050 69922 77320 8802/ 333 21024 47997 88598;EQDQ01  09982SNDP  
0207026800999992000013109004+56920+018150FM-12+003999999V0200701N003610015019N0016001N1-00201-00231099001ADDAY171031AY231031GA1081+001509069GF108991081071001501999999MA1999999098521MD1610241+9999MW1731SA1+0169REMSYN094AAXX  31094 02680 41216 80707 11020 21023 39852 49900 56024 77373 887// 222// 00016 333 88792;
0210026800999992000013112004+56920+018150FM-12+003999999V0200701N00411001501CN0300001N1-00041-00081099411ADDAA106004191AY171061AY231061GA1061+001509079GF107991071091001501999999MA1999999098931MD1210411+9999MW1861REMSYN094AAXX  31124 02680 11280 70708 11004 21008 39893 49941 52041 60041 78673 879// 333 86792 81993;
0193026800999992000013115004+56920+018150FM-12+003999999V0203201N001010300019N0750001N1-00081-00351100321ADDAY181031AY231031GA1011+004509089GF105991041091004501031001MA1999999099841MD1210911+9999MW1021REMSYN088AAXX  31154 02680 41489 53202 11008 21035 39984 40032 52091 70283 84930 333 81894 81994;
0223026800999992000013118004+56920+018150FM-12+003999999V0202501N002610081019N0750001N1+00001-00301100701ADDAA112004191AY181061AY231061GA1081+008109059GF108991081051008001999999KA1120M+00201MA1999999100221MD1110381+9999MW1021REMSYN094AAXX  31184 02680 11589 82505 10000 21030 30022 40070 51038 60042 70283 885// 333 10020 88627;
0159026800999992000013121004+56920+018150FM-12+003999999V0202701N005110042019N0700001N1-00081-00301100821ADDGA1081+004209059GF108991081051004501999999MA1999999100341MD1210121+9999REMSYN076AAXX  31214 02680 42488 82710 11008 21030 30034 40082 52012 885// 333 88614;
0176026800999992000020100004+56920+018150FM-12+003999999V0202701N00461002101CN0650001N1+00021-00091100801ADDAA199000021GA1021+002409079GF108991081051002501999999MA1999999100321MD1810021+9999REMSYN082AAXX  01004 02680 32387 82709 10002 21009 30032 40080 58002 885// 333 82708 88656;
0193026800999992000020103004+56920+018150FM-12+003999999V0202701N00411001201CN0100001N1+00051+00021100761ADDAY121031AY221031GA1041+001209079GF108991081071001501999999MA1999999100281MD1710041+9999MW1711REMSYN088AAXX  01034 02680 41260 82708 10005 20002 30028 40076 57004 77122 887// 333 84704 88708;
0252026800999992000020106004+56920+018150FM-12+003999999V0202901N003110030019N0300001N1+00141+00111100791ADDAA112003091AJ100029199999999AY171061AY221061GA1081+003009059GF108991081051004501999999IA1309KA1120N-00091MA1999999100311MD1010031+9999MW1021REMSYN100AAXX  01064 02680 11480 82906 10014 20011 30031 40079 50003 60032 70272 885// 333 21009 42002 88610;
0165026800999992000020109004+56920+018150FM-12+003999999V0203201N00101004201CN0750001N1+00111+00081100881ADDGA1021+004509069GF106991061051004501071001MA1999999100401MD1110091+9999REMSYN082AAXX  01094 02680 42489 63202 10011 20008 30040 40088 51009 86570 333 82694 86695;
0176026800999992000020112004+56920+018150FM-12+003999999V0202401N001012200019N0500001N1+00241-00081100771ADDAA199000021GA1011+004509089GF104991011011004501051011MA1999999100301MD1810101+9999REMSYN082AAXX  01124 02680 32484 42402 10024 21008 30030 40077 58010 81151 333 81894 83399;
0178026800999992000020115004+56920+018150FM-12+003999999V0202001N001510225019N0400001N1+00131+00041100561ADDGA1081+022509079GF108991081999022501071999MA1999999100081MD1710221+9999REMSYN076AAXX  01154 02680 42882 82003 10013 20004 30008 40056 57022 8807/ 333 88398;EQDQ01+000002SCOLCG
0223026800999992000020118004+56920+018150FM-12+003999999V0201501N002610027019N0030001N1+00041-00011100241ADDAA112001091AY161061AY221061GA1081+002709069GF108991081071002501999999KA1120M+00251MA1999999099761MD1710321+9999MW1731REMSYN094AAXX  01184 02680 11330 81505 10004 21001 39976 40024 57032 60012 77362 887// 333 10025 88709;
0187026800999992000020121004+56920+018150FM-12+003999999V0202401N005110009019N0030001N1+00331+00271099781ADDAY171031AY261031GA1081+000909069GF108991081061000751999999MA1999999099311MD1710451+9999MW1631REMSYN082AAXX  01214 02680 41130 82410 10033 20027 39931 49978 57045 76376 886// 333 88703;
0210026800999992000020200004+56920+018150FM-12+003999999V0202401N00511000601CN0045001N1+00361+00311099531ADDAA106005191AY171061AY261061GA1031+000909079GF108991081051000751999999MA1999999099061MD1710251+9999MW1101REMSYN094AAXX  02004 02680 11145 82410 10036 20031 39906 49953 57025 60051 71076 885// 333 83703 88614;
0159026800999992000020203004+56920+018150FM-12+003999999V0202601N006210081019N0100001N1+00411+00361099381ADDGA1081+008109059GF108991081051008001999999MA1999999098911MD1510151+9999REMSYN076AAXX  02034 02680 42560 82612 10041 20036 39891 49938 55015 885// 333 88627;
0207026800999992000020206004+56920+018150FM-12+003999999V0202601N005112200019N0300001N1+00361+00301099481ADDAA112005191GA1041+999999019GF104991001001999999001021IA1119KA1120N+00041MA1999999099011MD1110101+9999REMSYN094AAXX  02064 02680 12980 42610 10036 20030 39901 49948 51010 60052 80002 333 20004 32/// 84099;
0185026800999992000020209004+56920+018150FM-12+003999999V0202701N005112200019N0300001N1+00301+00231099561ADDGA1011+025009049GF103991011001999999011091MA1999999099091MD1110081+9999SA1+0269REMSYN094AAXX  02094 02680 42980 32710 10030 20023 39909 49956 51008 81019 222// 00026 333 81499 83199;
0189026800999992000020212004+56920+018150FM-12+003999999V0202501N005112200019N0300001N1+00411+00141099571ADDAA199000091GA1021+999999019GF102991001001999999001011MA1999999099101MD1010011+9999REMSYN076AAXX  02124 02680 32980 22510 10041 20014 39910 49957 50001 80001 333 82099;EQDQ01  00002PRCP99
0159026800999992000020215004+56920+018150FM-12+003999999V0202401N005112200019N0290001N1+00321+00171099441ADDGA1031+999999079GF103991031001999999071011MA1999999098971MD1810131+9999REMSYN076AAXX  02154 02680 42979 32410 10032 20017 39897 49944 58013 83071 333 83399;
0196026800999992000020218004+56920+018150FM-12+003999999V0202301N004612200019N0250001N1+00281+00161099291ADDAA199000091GA1001+999999999GF100991001001999999001001KA1999M+00411MA1999999098821MD1810151+9999REMSYN070AAXX  02184 02680 32975 02309 10028 20016 39882 49929 58015 333 10041;EQDQ01  00002PRCP99
0143026800999992000020221004+56920+018150FM-12+003999999V0202701N005712200019N0450001N1+00211+00071099131ADDGA1001+999999999GF100991001001999999001001MA1999999098661MD1610161+9999REMSYN060AAXX  02214 02680 42983 02711 10021 20007 39866 49913 56016;
0189026800999992000020300004+56920+018150FM-12+003999999V0202701N006212200019N0300001N1+00241+00011099091ADDAA199000091GA1021+007209059GF102991021051008001001001MA1999999098621MD1710041+9999REMSYN076AAXX  03004 02680 32580 22712 10024 20001 39862 49909 57004 82500 333 82624;EQDQ01  00002PRCP99
0206026800999992000020303004+56920+018150FM-12+003999999V0203301N005110111019N0200001N1+00101+00011099621ADDAY181031AY221031GA1081+011109059GF108991081051012501999999MA1999999099141MD1810522+9999MW1021REMSYN082AAXX  03034 02680 41670 83310 10010 20001 39914 49962 58052 70282 885// 333 88637;EQDQ01+000522APC3  
0235026800999992000020306004+56920+018150FM-12+003999999V0203601N004110099019N0500001N1-00051-00471100191ADDAA112001091AY181061AY221061GA1071+009909059GF107991071051008001999999IA1099KA1120N-00051MA1999999099711MD1210571+9999MW1021REMSYN100AAXX  03064 02680 11584 73608 11005 21047 39971 40019 52057 60012 70282 875// 333 21005 31/// 87633;
0187026800999992000020309004+56920+018150FM-12+003999999V0203401N005112200019N0600001N1-00071-00661100751ADDAY171031AY221031GA1021+008009029GF102991021021008001001001MA1999999100271MD1210561+9999MW1021REMSYN082AAXX  03094 02680 41586 23410 11007 21066 30027 40075 52056 70272 82200 333 82895;
0204026800999992000020312004+56920+018150FM-12+003999999V0203301N005112200019N0700001N1+00001-01051101221ADDAA106000191AY171061AY221061GA1011+008009029GF101991011011008001001001MA1999999100731MD1210461+9999MW1021REMSYN088AAXX  03124 02680 11588 13310 10000 21105 30073 40122 52046 69911 70272 81100 333 81895;
0159026800999992000020315004+56920+018150FM-12+003999999V0203001N006212200019N0700001N1+00021-00871101541ADDGA1011+008009029GF101991011011008001001001MA1999999101051MD1210321+9999REMSYN076AAXX  03154 02680 42588 13012 10002 21087 30105 40154 52032 81100 333 81895;
0183026800999992000020318004+56920+018150FM-12+003999999V0203201N005712200019N0700001N1+00031-00761101851ADDAA112000191GA1001+999999999GF100991001001999999001001KA1999M+00061MA1999999101361MD1210311+9999REMSYN076AAXX  03184 02680 12988 03211 10003 21076 30136 40185 52031 69912 333 10006;
0143026800999992000020321004+56920+018150FM-12+003999999V0203201N005112200019N0700001N1+00051-00591102151ADDGA1001+999999999GF100991001001999999001001MA1999999101661MD1110301+9999REMSYN060AAXX  03214 02680 42988 03210 10005 21059 30166 40215 51030;
0173026800999992000020400004+56920+018150FM-12+003999999V0202801N003112200019N0750001N1+00021-00601102271ADDAA199000091GA1001+999999999GF100991001001999999001001MA1999999101781MD1110121+9999REMSYN060AAXX  04004 02680 32989 02806 10002 21060 30178 40227 51012;EQDQ01  00002PRCP99
0159026800999992000020403004+56920+018150FM-12+003999999V0202401N00411075001CN0550001N1+00031-00271102161ADDGA1081+999999019GF108991081001999999011999MA1999999101671MD1810111+9999REMSYN076AAXX  04034 02680 42985 82408 10003 21027 30167 40216 58011 8801/ 333 88499;
0220026800999992000020406004+56920+018150FM-12+003999999V0202401N00511075001CN0400001N1+00151-00051101731ADDAA199000091GA1081+999999019GF108991081001999999011999IA1099KA1120N+00011MA1999999101251MD1710421+9999REMSYN088AAXX  04064 02680 32982 82410 10015 21005 30125 40173 57042 8801/ 333 20001 31/// 88499;EQDQ01  00002PRCP99
0213026800999992000020409004+56920+018150FM-12+003999999V0202401N00621030001CN0300001N1+00231+00101101341ADDAY121031AY221031GA1031+002509079GF108991031061002501021999MA1999999100861MD1710391+9999MW1211SA1+0189REMSYN100AAXX  04094 02680 41380 82412 10023 20010 30086 40134 57039 72122 8362/ 222// 00018 333 83793 88499;
0210026800999992000020412004+56920+018150FM-12+003999999V0202401N00621002501CN0200001N1+00301+00181100871ADDAA106000791AY161061AY221061GA1071+002509079GF108991071061002501021999MA1999999100401MD1810461+9999MW1021REMSYN094AAXX  04124 02680 11370 82412 10030 20018 30040 40087 58046 69901 70262 8762/ 333 87793 88499;
0165026800999992000020415004+56920+018150FM-12+003999999V0202401N00571002501CN0200001N1+00301+00201100491ADDGA1071+002509079GF108991071061002501021999MA1999999100021MD1710381+9999REMSYN082AAXX  04154 02680 42370 82411 10030 20020 30002 40049 57038 8762/ 333 87793 88499;
0201026800999992000020418004+56920+018150FM-12+003999999V0202501N00361000601CN0150001N1+00331+00231100361ADDAA112000791GA1031+000609079GF108991081051000751999999KA1120M+00351MA1999999099891MD1610131+9999REMSYN094AAXX  04184 02680 12165 82507 10033 20023 39989 40036 56013 69902 885// 333 10035 83702 88612;
0165026800999992000020421004+56920+018150FM-12+003999999V0202601N00311000601CN0200001N1+00431+00341100311ADDGA1021+000309079GF108991081051000751999999MA1999999099841MD1610051+9999REMSYN082AAXX  04214 02680 42170 82606 10043 20034 39984 40031 56005 885// 333 82701 88611;
0201026800999992000020500004+56920+018150FM-12+003999999V0202801N002610001519N0001001N1+00401+00331100391ADDAA199000091AY121061AY221061GA1091+999999999GF109991091999999999999999MA1999999099921MD1110081+9999MW1451REMSYN066AAXX  05004 02680 31/01 92805 10040 20033 39992 40039 51008 74522;EQDQ01  00002PRCP99
0187026800999992000020503004+56920+018150FM-12+003999999V0203401N002110006019N0012001N1+00461+00391100621ADDAY141031AY241031GA1081+000609069GF108991081061000751999999MA1999999100151MD1310231+9999MW1511REMSYN082AAXX  05034 02680 41112 83404 10046 20039 30015 40062 53023 75144 886// 333 88702;
0235026800999992000020506004+56920+018150FM-12+003999999V0203401N001512200019N0270001N1+00271+00181101041ADDAA112000891AY151061AY241061GA1011+999999079GF101991011001999999071001IA1099KA1120N+00271MA1999999100561MD1210411+9999MW1011REMSYN100AAXX  05064 02680 11977 13403 10027 20018 30056 40104 52041 69972 70154 81070 333 20027 31/// 81399;
0159026800999992000020509004+56920+018150FM-12+003999999V0203401N001012200019N0500001N1+00341+00271101361ADDGA1011+999999079GF102991011001999999031081MA1999999100881MD1110321+9999REMSYN076AAXX  05094 02680 42984 23402 10034 20027 30088 40136 51032 81038 333 81399;
0176026800999992000020512004+56920+018150FM-12+003999999V0202601N000519999999N0650001N1+00421-00121101471ADDAA199000021GA1011+025009039GF107991071001999999051999MA1999999100991MD1210111+9999REMSYN082AAXX  05124 02680 32987 72601 10042 21012 30099 40147 52011 8705/ 333 81399 87399;
0165026800999992000020515004+56920+018150FM-12+003999999V0201601N001019999999N0700001N1+00291+00141101421ADDGA1011+025009039GF108991081001999999071999MA1999999100941MD1610051+9999REMSYN082AAXX  05154 02680 42988 81602 10029 20014 30094 40142 56005 8807/ 333 81399 88499;
0223026800999992000020518004+56920+018150FM-12+003999999V0202401N002110045019N0050001N1+00441+00401101311ADDAA112000591AY161061AY251061GA1081+004509059GF108991081051004501999999KA1120M+00491MA1999999100831MD1810111+9999MW1281REMSYN094AAXX  05184 02680 11450 82404 10044 20040 30083 40131 58011 69962 72865 885// 333 10049 88615;
0159026800999992000020521004+56920+018150FM-12+003999999V0202501N003610021019N0300001N1+00481+00411101291ADDGA1081+002109069GF108991081061002501999999MA1999999100811MD1510021+9999REMSYN076AAXX  05214 02680 42380 82507 10048 20041 30081 40129 55002 886// 333 88707;
0189026800999992000020600004+56920+018150FM-12+003999999V0202501N002610036019N0200001N1+00401+00331101261ADDAA199000091GA1081+003609059GF108991081051004501999999MA1999999100781MD1710031+9999REMSYN076AAXX  06004 02680 32470 82505 10040 20033 30078 40126 57003 885// 333 88612;EQDQ01  00002PRCP99
0206026800999992000020603004+56920+018150FM-12+003999999V0202301N003110210019N0060001N1+00381+00311101051ADDAY121031AY221031GA1081+021009079GF108991081999022501071999MA1999999100571MD1810211+9999MW1101REMSYN082AAXX  06034 02680 41856 82306 10038 20031 30057 40105 58021 71022 8807/ 333 88357;EQDQ01+000002SCOLCG
0248026800999992000020606004+56920+018150FM-12+003999999V0202301N004110006019N0027001N1+00371+00301100821ADDAA199000091AY121061AY221061GA1081+000609069GF108991081061000751999999IA1099KA1120N+00331MA1999999100351MD1710221+9999MW1101REMSYN094AAXX  06064 02680 31127 82308 10037 20030 30035 40082 57022 71022 886// 333 20033 31/// 88702;EQDQ01  00002PRCP99
0187026800999992000020609004+56920+018150FM-12+003999999V0202401N003110025019N0050001N1+00361+00301100791ADDAY141031AY221031GA1081+002509069GF108991081061002501999999MA1999999100321MD1810031+9999MW1101REMSYN082AAXX  06094 02680 41350 82406 10036 20030 30032 40079 58003 71042 886// 333 88793;
0223026800999992000020612004+56920+018150FM-12+003999999V0202501N004119999999N0080001N1+00481+00421100791ADDAA199000091AY141061AY221061GA1011+025009039GF108991021001999999071071MA1999999100321MD1010001+9999MW1101REMSYN088AAXX  06124 02680 31958 82508 10048 20042 30032 40079 50000 71042 82077 333 81399 88299;EQDQ01  00002PRCP99
0187026800999992000020615004+56920+018150FM-12+003999999V0202501N005110045019N0080001N1+00441+00381100951ADDAY121031AY221031GA1071+004509059GF107991071051004501999999MA1999999100471MD1210151+9999MW1101REMSYN082AAXX  06154 02680 41458 72510 10044 20038 30047 40095 52015 71022 875// 333 87694;
0236026800999992000020618004+56920+018150FM-12+003999999V0202401N004112200019N0050001N1+00371+00311101081ADDAA199000091AY121061AY211061GA1011+999999079GF102991021001999999071001KA1120M+00551MA1999999100601MD1110131+9999MW1101REMSYN088AAXX  06184 02680 31950 22408 10037 20031 30060 40108 51013 71021 82070 333 10055 81399;EQDQ01  00002PRCP99
0171026800999992000020621004+56920+018150FM-12+003999999V0202401N003112200019N0035001N1+00311+00251101101ADDAY101031AY201031GA1001+999999999GF100991001001999999001001MA1999999100621MD1110021+9999MW1101REMSYN066AAXX  06214 02680 41935 02406 10031 20025 30062 40110 51002 71000;
0201026800999992000020700004+56920+018150FM-12+003999999V0202401N002612200019N0050001N1+00301+00241101021ADDAA199000091AY101061AY201061GA1001+999999999GF100991001001999999001001MA1999999100541MD1710081+9999MW1101REMSYN066AAXX  07004 02680 31950 02405 10030 20024 30054 40102 57008 71000;EQDQ01  00002PRCP99
0171026800999992000020703004+56920+018150FM-12+003999999V0201901N002110003019N0002001N1+00291+00251100821ADDAY101031AY201031GA1091+999999999GF109991091999999999999999MA1999999100351MD1810191+9999MW1471REMSYN066AAXX  07034 02680 41/02 91904 10029 20025 30035 40082 58019 74700;
0213026800999992000020706004+56920+018150FM-12+003999999V0202101N003619999999N0002001N1+00361+00321100521ADDAA112000591AY111061AY201061GF108991081999999999999999IA1099KA1120N+00241MA1999999100051MD1710301+9999MW1631REMSYN094AAXX  07064 02680 11/02 82107 10036 20032 30005 40052 57030 69942 76310 88/// 333 20024 31///;
0207026800999992000020709004+56920+018150FM-12+003999999V0202001N004110015019N0031001N1+00361+00321100261ADDAY161031AY251031GA1081+001509069GF108991081061001501999999MA1999999099791MD1710261+9999MW1101SA1+0289REMSYN094AAXX  07094 02680 41231 82008 10036 20032 39979 40026 57026 71065 886// 222// 00028 333 88792;
0204026800999992000020712004+56920+018150FM-12+003999999V0202201N005710001519N0010001N1+00431+00391099981ADDAA106000391AY161061AY251061GA1081+000159069GF108991081061000251999999MA1999999099511MD1710281+9999MW1101REMSYN088AAXX  07124 02680 11010 82211 10043 20039 39951 49998 57028 69931 71065 886// 333 88700;
0193026800999992000020715004+56920+018150FM-12+003999999V0202301N00571001501CN0030001N1+00421+00381099791ADDAY161031AY241031GA1071+001509079GF107991071061001501071999MA1999999099321MD1610191+9999MW1101REMSYN088AAXX  07154 02680 41230 72311 10042 20038 39932 49979 56019 71064 8767/ 333 87792 83399;
0163026800999992000020717004+56920+018150FM-12+003999999V0200201N021119999999N0300001N1+00341+99999099851ADDAA112000591AY181999AY261999KA1999M+00461MA1999999099381MD1010061+9999MW1011REMSYN076AAXX  07174 02680 11980 /0241 10034 39938 49985 50006 69952 70186 333 10046;
0211026800999992000020718004+56920+018150FM-12+003999999V0202401N005112200019N0300001N1+00341+00281099851ADDAA112000591AY181061AY261061GA1001+999999999GF100991001001999999001001KA1999M+00461MA1999999099381MD1010061+9999MW1011REMSYN082AAXX  07184 02680 11980 02410 10034 20028 39938 49985 50006 69952 70186 333 10046;
0159026800999992000020721004+56920+018150FM-12+003999999V0202301N006219999999N0300001N1+00351+00221099811ADDGA1061+999999079GF106991061001999999071001MA1999999099341MD1510041+9999REMSYN076AAXX  07214 02680 42980 62312 10035 20022 39934 49981 55004 86070 333 86399;
0189026800999992000020800004+56920+018150FM-12+003999999V0202301N006219999999N0250001N1+00331+00211099741ADDAA199000091GA1081+999999079GF108991081001999999071999MA1999999099271MD1710071+9999REMSYN076AAXX  08004 02680 32975 82312 10033 20021 39927 49974 57007 8807/ 333 88399;EQDQ01  00002PRCP99
0187026800999992000020803004+56920+018150FM-12+003999999V0202001N005110066019N0150001N1+00301+00201099501ADDAY121031AY221031GA1081+006609059GF108991081051008001999999MA1999999099031MD1810241+9999MW1601REMSYN082AAXX  08034 02680 41565 82010 10030 20020 39903 49950 58024 76022 885// 333 88622;
0235026800999992000020806004+56920+018150FM-12+003999999V0202001N005110009019N0060001N1+00311+00241099071ADDAA112000591AY161061AY221061GA1081+000909069GF108991081071000751999999IA1099KA1120N+00301MA1999999098601MD1710431+9999MW1611REMSYN100AAXX  08064 02680 11156 82010 10031 20024 39860 49907 57043 69952 76162 887// 333 20030 31/// 88703;
0187026800999992000020809004+56920+018150FM-12+003999999V0202301N005110007519N0060001N1+00391+00331098821ADDAY161031AY261031GA1081+000759069GF108991081071000751999999MA1999999098351MD1710251+9999MW1601REMSYN082AAXX  08094 02680 41156 82310 10039 20033 39835 49882 57025 76066 887// 333 88791;
0210026800999992000020812004+56920+018150FM-12+003999999V0202201N00411030001CN0200001N1+00411+00351098751ADDAA106001091AY161061AY261061GA1021+008009069GF107991021051004501071999MA1999999098291MD1610061+9999MW1601REMSYN094AAXX  08124 02680 11470 72208 10041 20035 39829 49875 56006 60011 76066 8257/ 333 82695 87399;
0193026800999992000020815004+56920+018150FM-12+003999999V0202401N00411021001CN0200001N1+00391+00341098801ADDAY161031AY261031GA1011+022509039GF108991081001022501071999MA1999999098331MD1310041+9999MW1601REMSYN088AAXX  08154 02680 41870 82408 10039 20034 39833 49880 53004 76066 8807/ 333 81398 88399;
0223026800999992000020818004+56920+018150FM-12+003999999V0202401N004110099019N0100001N1+00351+00301098781ADDAA112002091AY161061AY261061GA1081+009909059GF108991081051008001999999KA1120M+00441MA1999999098311MD1810021+9999MW1021REMSYN094AAXX  08184 02680 11560 82408 10035 20030 39831 49878 58002 60022 70266 885// 333 10044 88633;
0171026800999992000020821004+56920+018150FM-12+003999999V0202401N004110003019N0002001N1+00341+00291098741ADDAY121031AY221031GA1091+999999999GF109991091999999999999999MA1999999098281MD1610031+9999MW1451REMSYN066AAXX  08214 02680 41/02 92408 10034 20029 39828 49874 56003 74522;
0204026800999992000020900004+56920+018150FM-12+003999999V0202401N003110009019N0030001N1+00311+00281098631ADDAA106000591AY161061AY261061GA1081+000909069GF108991081061000751999999MA1999999098171MD1810111+9999MW1101REMSYN088AAXX  09004 02680 11130 82406 10031 20028 39817 49863 58011 69961 71066 886// 333 88703;
0193026800999992000020903004+56920+018150FM-12+003999999V0202401N00361000601CN0030001N1+00321+00291098581ADDAY121031AY221031GA1011+000909079GF108991081051000751999999MA1999999098121MD1610051+9999MW1611REMSYN088AAXX  09034 02680 41130 82407 10032 20029 39812 49858 56005 76122 885// 333 81703 88629;
0235026800999992000020906004+56920+018150FM-12+003999999V0202401N004110066019N0090001N1+00331+00301098661ADDAA112001091AY161061AY261061GA1081+006609059GF108991081051008001999999IA1099KA1120N+00311MA1999999098201MD1310081+9999MW1601REMSYN100AAXX  09064 02680 11559 82408 10033 20030 39820 49866 53008 60012 76066 885// 333 20031 31/// 88622;
0207026800999992000020909004+56920+018150FM-12+003999999V0202401N00461075001CN0300001N1+00361+00331098941ADDAY161031AY261031GA1071+999999029GF107991071001999999071999MA1999999098471MD1210271+9999MW1211SA1+0289REMSYN094AAXX  09094 02680 41980 72409 10036 20033 39847 49894 52027 72166 8707/ 222// 00028 333 87599;
0210026800999992000020912004+56920+018150FM-12+003999999V0202501N00311030001CN0500001N1+00441+00311099261ADDAA106000591AY161061AY261061GA1021+004509069GF107991021051004501071999MA1999999098791MD1210391+9999MW1021REMSYN094AAXX  09124 02680 11484 72506 10044 20031 39879 49926 52039 69951 70266 8257/ 333 82694 87399;
0165026800999992000020915004+56920+018150FM-12+003999999V0202601N00261021001CN0500001N1+00351+00251099611ADDGA1011+022509039GF107991071001022501071999MA1999999099141MD1210351+9999REMSYN082AAXX  09154 02680 42884 72605 10035 20025 39914 49961 52035 8707/ 333 81398 86399;
0223026800999992000020918004+56920+018150FM-12+003999999V0203301N002110012019N0300001N1+00261+00171100071ADDAA112000891AY121061AY221061GA1081+001209069GF108991081071001501999999KA1120M+00481MA1999999099601MD1110461+9999MW1211REMSYN094AAXX  09184 02680 11280 83304 10026 20017 39960 40007 51046 69972 72122 887// 333 10048 88704;
0159026800999992000020921004+56920+018150FM-12+003999999V0203301N003110027019N0500001N1+00201+00131100571ADDGA1081+002709069GF108991081061002501999999MA1999999100101MD1210501+9999REMSYN076AAXX  09214 02680 42384 83306 10020 20013 30010 40057 52050 886// 333 88709;
0170026800999992000021000004+56920+018150FM-12+003999999V0203201N002612200019N0550001N1+00131-00121100961ADDAA199000021GA1021+004509059GF102991021051004501001001MA1999999100481MD1210381+9999REMSYN076AAXX  10004 02680 32485 23205 10013 21012 30048 40096 52038 82500 333 82694;
0159026800999992000021003004+56920+018150FM-12+003999999V0202801N002612200019N0450001N1+00041-00071101171ADDGA1011+004509059GF101991011051004501001001MA1999999100681MD1110201+9999REMSYN076AAXX  10034 02680 42483 12805 10004 21007 30068 40117 51020 81500 333 81694;
0201026800999992000021006004+56920+018150FM-12+003999999V0203401N002112200019N0450001N1+00061-00011101301ADDAA199000021GA1011+004509059GF102991011051004501031001IA1149KA1120N+00021MA1999999100811MD1210131+9999REMSYN088AAXX  10064 02680 32483 23404 10006 21001 30081 40130 52013 81530 333 20002 34/// 81694;
0190026800999992000021009004+56920+018150FM-12+003999999V0202201N00411220001CN0550001N1+00231+00131101321ADDGA1061+999999089GF199999011051004501001081MA1999999100841MD1010031+9999REMSYN088AAXX  10094 02680 42485 52208 10023 20013 30084 40132 50003 81508 222// 01694 333 86299;EQDQ01+000052SCOTCV
0189026800999992000021012004+56920+018150FM-12+003999999V0202001N004110080019N0300001N1+00301+00211101191ADDAA199000091GA1081+008009059GF108991081051008001999999MA1999999100711MD1810131+9999REMSYN076AAXX  10124 02680 32580 82008 10030 20021 30071 40119 58013 885// 333 88695;EQDQ01  00002PRCP99
0212026800999992000021015004+56920+018150FM-12+003999999V0202001N00461002501CN0050001N1+00331+00271100841ADDAY121031AY221031GA1071+002509079GF107991999061002501999999MA1999999100371MD1710341+9999MW1101REMSYN088AAXX  10154 02680 41350 72009 10033 20027 30037 40084 57034 71022 886// 333 87793 86399;EQDQ01+000082SCOTLC
0208026800999992000021018004+56920+018150FM-12+003999999V0202001N005719999999N0130001N1+00341+00281100641ADDAA199000091GA1081+999999079GF108991081001999999071999KA1120M+00371MA1999999100171MD1810201+9999REMSYN082AAXX  10184 02680 32963 82011 10034 20028 30017 40064 58020 8807/ 333 10037 88399;EQDQ01  00002PRCP99
0187026800999992000021021004+56920+018150FM-12+003999999V0202001N006210096019N0150001N1+00361+00211100401ADDAY121031AY221031GA1081+009609059GF108991081051008001999999MA1999999099931MD1710241+9999MW1601REMSYN082AAXX  10214 02680 41565 82012 10036 20021 39993 40040 57024 76022 885// 333 88632;
0204026800999992000021100004+56920+018150FM-12+003999999V0202201N006210018019N0150001N1+00311+00241100221ADDAA106000391AY161061AY221061GA1081+001809069GF108991081061001501999999MA1999999099751MD1710181+9999MW1211REMSYN088AAXX  11004 02680 11265 82212 10031 20024 39975 40022 57018 69931 72162 886// 333 88706;
0159026800999992000021103004+56920+018150FM-12+003999999V0202401N004612200019N0300001N1+00291+00221100371ADDGA1011+999999079GF101991011001999999071001MA1999999099901MD1310151+9999REMSYN076AAXX  11034 02680 42980 12409 10029 20022 39990 40037 53015 81070 333 81399;
0207026800999992000021106004+56920+018150FM-12+003999999V0202701N004112200019N0400001N1+00301+00201100661ADDAA112000391GA1011+999999079GF101991011001999999071001IA1099KA1120N+00291MA1999999100191MD1210291+9999REMSYN094AAXX  11064 02680 12982 12708 10030 20020 30019 40066 52029 69932 81070 333 20029 31/// 81399;
0163026800999992000021109004+56920+018150FM-12+003999999V0202601N005112200019N0350001N1+00401+00061100991ADDGA1001+999999999GF100991001001999999001001MA1999999100511MD1210321+9999SA1+2809REMSYN072AAXX  11094 02680 42981 02610 10040 20006 30051 40099 52032 222// 00028;
0154026800999992000021112004+56920+018150FM-12+003999999V0202401N004112200019N0300001N1+00481+00071101231ADDAA199000021GA1001+999999999GF100991001001999999001001MA1999999100751MD1110241+9999REMSYN060AAXX  11124 02680 32980 02408 10048 20007 30075 40123 51024;
0113026800999992000021115004+56920+018150FM-12+003999999V0202401N005112200019N0300001N1+00431+99999999999ADDGF101991999999999999999999REMSYN075AAXX  11154 02680 42980 12410 10043 2004 30085 40133 51010 81070 333 81399;
0196026800999992000021118004+56920+018150FM-12+003999999V0202401N005112200019N0300001N1+00341+00191101481ADDAA199000091GA1001+999999999GF100991001001999999001001KA1999M+00501MA1999999101001MD1210151+9999REMSYN070AAXX  11184 02680 32980 02410 10034 20019 30100 40148 52015 333 10050;EQDQ01  00002PRCP99
0143026800999992000021121004+56920+018150FM-12+003999999V0202401N005712200019N0300001N1+00331+00221101581ADDGA1001+999999999GF100991001001999999001001MA1999999101101MD1210101+9999REMSYN060AAXX  11214 02680 42980 02411 10033 20022 30110 40158 52010;
0173026800999992000021200004+56920+018150FM-12+003999999V0202401N004112200019N0300001N1+00301+00211101751ADDAA199000091GA1001+999999999GF100991001001999999001001MA1999999101271MD1210171+9999REMSYN060AAXX  12004 02680 32980 02408 10030 20021 30127 40175 52017;EQDQ01  00002PRCP99
0159026800999992000021203004+56920+018150FM-12+003999999V0202401N004112200019N0300001N1+00291+00201101801ADDGA1011+999999079GF101991011001999999071001MA1999999101321MD1110051+9999REMSYN076AAXX  12034 02680 42980 12408 10029 20020 30132 40180 51005 81070 333 81399;
0220026800999992000021206004+56920+018150FM-12+003999999V0202401N003610066019N0300001N1+00331+00251101811ADDAA199000091GA1071+006609059GF107991071051008001999999IA1099KA1120N+00291MA1999999101331MD1110011+9999REMSYN088AAXX  12064 02680 32580 72407 10033 20025 30133 40181 51001 875// 333 20029 31/// 87622;EQDQ01  00002PRCP99
0159026800999992000021209004+56920+018150FM-12+003999999V0202301N004110080019N0300001N1+00361+00291101761ADDGA1081+008009059GF108991081051008001999999MA1999999101281MD1810051+9999REMSYN076AAXX  12094 02680 42580 82308 10036 20029 30128 40176 58005 885// 333 88695;
0189026800999992000021212004+56920+018150FM-12+003999999V0202201N005710080019N0290001N1+00351+00241101621ADDAA199000091GA1081+008009059GF108991081051008001999999MA1999999101141MD1710141+9999REMSYN076AAXX  12124 02680 32579 82211 10035 20024 30114 40162 57014 885// 333 88695;EQDQ01  00002PRCP99
0187026800999992000021215004+56920+018150FM-12+003999999V0202101N005110025019N0045001N1+00271+00181101411ADDAY121031AY221031GA1081+002509069GF108991081061002501999999MA1999999100931MD1710211+9999MW1101REMSYN082AAXX  12154 02680 41345 82110 10027 20018 30093 40141 57021 71022 886// 333 88793;
0196026800999992000021218004+56920+018150FM-12+003999999V0202101N005112200019N0300001N1+00281+00161101161ADDAA199000091GA1001+999999999GF100991001001999999001001KA1999M+00401MA1999999100681MD1710251+9999REMSYN070AAXX  12184 02680 32980 02110 10028 20016 30068 40116 57025 333 10040;EQDQ01  00002PRCP99
0159026800999992000021221004+56920+018150FM-12+003999999V0201901N005712200019N0300001N1+00291+00061100891ADDGA1011+999999019GF101991001001999999001011MA1999999100411MD1710271+9999REMSYN076AAXX  12214 02680 42980 11911 10029 20006 30041 40089 57027 80001 333 81099;
0204026800999992000021300004+56920+018150FM-12+003999999V0202101N006210039019N0100001N1+00281+00111100501ADDAA106000791AY121061AY201061GA1081+003909059GF108991081051004501999999MA1999999100031MD1710381+9999MW1611REMSYN088AAXX  13004 02680 11460 82112 10028 20011 30003 40050 57038 69901 76120 885// 333 88613;
0187026800999992000021303004+56920+018150FM-12+003999999V0202301N005110009019N0100001N1+00151+00071100211ADDAY161031AY261031GA1081+000909069GF108991081071000751999999MA1999999099741MD1710291+9999MW1611REMSYN082AAXX  13034 02680 41160 82310 10015 20007 39974 40021 57029 76166 887// 333 88703;
