0123029650999992000010100004+60970+025630FM-12+008499999V0203501N000519999999N9999999N1-01401-01571101911ADDMA1999999100851MD1210161+9999REMSYN082AAXX  01004 02965 46/// /3501 11140 21157 30085 40191 52016 92339 555 787// 0/601;
0181029650999992000010103004+60970+025630FM-12+008499999V0209999C000012200019N0100001N1-01771-01991102051ADDAY101031AY201031GA1001+999999999GF100991001001999999001001MA1999999100971MD1210111+9999MW1021REMSYN076AAXX  01034 02965 42960 00000 11177 21199 30097 40205 52011 70200 555 783//;
0287029650999992000010106004+60970+025630FM-12+008499999V0209999C000012200019N0100001N1-01911-02121102101ADDAA112000791AJ100279199999999AY171061AY211061GA1001+999999999GF100991001001999999001001IA1239IA2999-02509KA1120M-00881KA2120N-01921MA1999999101011MD1210051+9999MW1021REMSYN110AAXX  01064 02965 11960 00000 11191 21212 30101 40210 52005 69902 70271 333 11088 21192 3/125 47027 555 78360;
0171029650999992000010109004+60970+025630FM-12+008499999V0209999C000010042019N0030001N1-01561-01691102181ADDAY171031AY221031GF108991051071004501021999MA1999999101111MD1210101+9999MW1711REMSYN082AAXX  01094 02965 41430 80000 11156 21169 30111 40218 52010 77172 8572/ 555 790//;
0171029650999992000010112004+60970+025630FM-12+008499999V0209999C000010042019N0035001N1-01291-01471102191ADDAY171061AY221061GF108991051071004501021999MA1999999101131MD1410001+9999MW1701REMSYN082AAXX  01124 02965 41435 80000 11129 21147 30113 40219 54002 77072 8572/ 555 786//;
0123029650999992000010115004+60970+025630FM-12+008499999V0201401N000519999999N9999999N1-01151-01301102231ADDMA1999999101171MD1210041+9999REMSYN082AAXX  01154 02965 46/// /1401 11115 21130 30117 40223 52004 91439 555 789// 0/001;
0259029650999992000010118004+60970+025630FM-12+008499999V0201301N000510042019N0030001N1-00951-01071102231ADDAA112000191AJ100269199999999AY171061AY221061GF108991051071004501021999IA1239KA1120M-00931KA2120N-01981MA1999999101181MD1410001+9999MW1701REMSYN110AAXX  01184 02965 11430 81301 11095 21107 30118 40223 54001 69922 77072 8572/ 333 11093 21198 47026 555 791/2;
0123029650999992000010121004+60970+025630FM-12+008499999V0201301N000519999999N9999999N1-00811-00931102241ADDMA1999999101201MD1410001+9999REMSYN082AAXX  01214 02965 46/// /1301 11081 21093 30120 40224 54002 92039 555 791// 0/201;
0123029650999992000010200004+60970+025630FM-12+008499999V0209999C000019999999N9999999N1-00671-00771102251ADDMA1999999101211MD1410001+9999REMSYN082AAXX  02004 02965 46/// /0000 11067 21077 30121 40225 54002 92339 555 792// 0/301;
0171029650999992000010203004+60970+025630FM-12+008499999V0201601N000510300019N0070001N1-00621-00691102211ADDAY121031AY221031GF107991041071008001081001MA1999999101181MD1710041+9999MW1101REMSYN082AAXX  02034 02965 41557 71601 11062 21069 30118 40221 57004 71022 84780 555 795//;
0277029650999992000010206004+60970+025630FM-12+008499999V0201501N001010300019N0030001N1-00441-00521102131ADDAA112000191AJ100269199999999AY171061AY221061GF106991031051008001081001IA1239IA2999-01209KA1120M-00421KA2120N-00941MA1999999101101MD1710081+9999MW1711REMSYN116AAXX  02064 02965 11530 61502 11044 21052 30110 40213 57008 69922 77172 83580 333 11042 21094 3/112 47026 555 79452;
0171029650999992000010209004+60970+025630FM-12+008499999V0201601N001010042019N0010001N1-00371-00481102111ADDAY171031AY221031GF108991051071004501021999MA1999999101081MD1410001+9999MW1731REMSYN082AAXX  02094 02965 41410 81602 11037 21048 30108 40211 54001 77372 8572/ 555 792//;
0171029650999992000010212004+60970+025630FM-12+008499999V0201601N001510042019N0030001N1-00351-00501101881ADDAY171061AY221061GF108991051071004501021999MA1999999100861MD1710221+9999MW1701REMSYN082AAXX  02124 02965 41430 81603 11035 21050 30086 40188 57022 77072 8572/ 555 789//;
0123029650999992000010215004+60970+025630FM-12+008499999V0201601N001519999999N9999999N1-00321-00441101631ADDMA1999999100611MD1710251+9999REMSYN082AAXX  02154 02965 46/// /1603 11032 21044 30061 40163 57025 91439 555 792// 0/204;
0259029650999992000010218004+60970+025630FM-12+008499999V0201501N001510075019N0030001N1-00231-00271101301ADDAA112001091AJ100269199999999AY171061AY221061GF108991051071008001021999IA1239KA1120M-00221KA2120N-00441MA1999999100291MD1710321+9999MW1701REMSYN110AAXX  02184 02965 11530 81503 11023 21027 30029 40130 57032 60012 77072 8572/ 333 11022 21044 47026 555 797/0;
0123029650999992000010221004+60970+025630FM-12+008499999V0201501N001519999999N9999999N1-00201-00281100951ADDMA1999999099941MD1710351+9999REMSYN082AAXX  02214 02965 46/// /1503 11020 21028 39994 40095 57035 92039 555 795// 0/205;
0123029650999992000010300004+60970+025630FM-12+008499999V0201501N001519999999N9999999N1-00211-00301100771ADDMA1999999099771MD1710171+9999REMSYN082AAXX  03004 02965 46/// /1503 11021 21030 39977 40077 57017 92339 555 793// 0/504;
0171029650999992000010303004+60970+025630FM-12+008499999V0201401N001010042019N0010001N1-00271-00351100731ADDAY171031AY221031GF108991051071004501021999MA1999999099721MD1710051+9999MW1731REMSYN082AAXX  03034 02965 41410 81402 11027 21035 39972 40073 57005 77372 8572/ 555 794//;
0277029650999992000010306004+60970+025630FM-12+008499999V0201501N000510042019N0015001N1-00251-00351100771ADDAA112006191AJ100319199999999AY171061AY221061GF108991051071004501021999IA1239IA2999-00309KA1120M-00151KA2120N-00251MA1999999099771MD1210041+9999MW1731REMSYN116AAXX  03064 02965 11415 81501 11025 21035 39977 40077 52004 60062 77372 8572/ 333 11015 21025 3/103 47031 555 79357;
0171029650999992000010309004+60970+025630FM-12+008499999V0201501N001010042019N0035001N1-00281-00361100881ADDAY171031AY221031GF108991051071004501021999MA1999999099881MD1210111+9999MW1701REMSYN082AAXX  03094 02965 41435 81502 11028 21036 39988 40088 52011 77072 8572/ 555 794//;
0171029650999992000010312004+60970+025630FM-12+008499999V0201501N000510075019N0060001N1-00251-00331100881ADDAY171061AY221061GF108991051071008001021999MA1999999099881MD1410001+9999MW1221REMSYN082AAXX  03124 02965 41556 81501 11025 21033 39988 40088 54000 72272 8572/ 555 794//;
0123029650999992000010315004+60970+025630FM-12+008499999V0201601N000519999999N9999999N1-00251-00321100841ADDMA1999999099841MD1710041+9999REMSYN082AAXX  03154 02965 46/// /1601 11025 21032 39984 40084 57004 91439 555 795// 0/101;
0259029650999992000010318004+60970+025630FM-12+008499999V0201601N001010042019N0035001N1-00201-00241100751ADDAA112000591AJ100319199999999AY171061AY221061GF108991051071004501021999IA1239KA1120M-00181KA2120N-00271MA1999999099751MD1710091+9999MW1701REMSYN110AAXX  03184 02965 11435 81602 11020 21024 39975 40075 57009 69952 77072 8572/ 333 11018 21027 47031 555 797/5;
0123029650999992000010321004+60970+025630FM-12+008499999V0201601N001519999999N9999999N1-00181-00241100481ADDMA1999999099481MD1710271+9999REMSYN082AAXX  03214 02965 46/// /1603 11018 21024 39948 40048 57027 92039 555 795// 0/003;
0123029650999992000010400004+60970+025630FM-12+008499999V0201601N001519999999N9999999N1-00071-00161100091ADDMA1999999099101MD1710381+9999REMSYN082AAXX  04004 02965 46/// /1603 11007 21016 39910 40009 57038 92339 555 794// 0/204;
0181029650999992000010403004+60970+025630FM-12+008499999V0201701N001510006019N0010001N1-00031-00071099721ADDAY171031AY221031GA1091+999999999GF109991091999999999999999MA1999999098731MD1710361+9999MW1731REMSYN076AAXX  04034 02965 41410 91703 11003 21007 39873 49972 57036 77372 555 797//;
0277029650999992000010406004+60970+025630FM-12+008499999V0201701N001010042019N0015001N1+00081+00071099391ADDAA112000891AJ100309199999999AY171061AY221061GF108991051071004501021999IA1279IA2999-00209KA1120M+00081KA2120N-00211MA1999999098411MD1710331+9999MW1681REMSYN116AAXX  04064 02965 11415 81702 10008 20007 39841 49939 57033 69972 76872 8572/ 333 10008 21021 3/102 43030 555 79947;
0171029650999992000010409004+60970+025630FM-12+008499999V0201901N001510042019N0025001N1+00131+00071099161ADDAY151031AY221031GF108991051071004501021999MA1999999098181MD1710231+9999MW1511REMSYN082AAXX  04094 02965 41425 81903 10013 20007 39818 49916 57023 75152 8572/ 555 796//;
0171029650999992000010412004+60970+025630FM-12+008499999V0201901N001010300019N0025001N1+00171+00071098881ADDAY161061AY251061GF107991041071004501021001MA1999999097901MD1710281+9999MW1601REMSYN082AAXX  04124 02965 41425 71902 10017 20007 39790 49888 57028 76065 84720 555 793//;
0123029650999992000010415004+60970+025630FM-12+008499999V0202101N001519999999N9999999N1+00141+00031098771ADDMA1999999097801MD1710101+9999REMSYN082AAXX  04154 02965 46/// /2103 10014 20003 39780 49877 57010 91439 555 792// 0/103;
0259029650999992000010418004+60970+025630FM-12+008499999V0202301N001510042019N0010001N1+00101+00011098711ADDAA112001091AJ100269199999999AY171061AY261061GF108991051071004501021999IA1279KA1120M+00231KA2120N+00061MA1999999097731MD1710071+9999MW1691REMSYN110AAXX  04184 02965 11410 82303 10010 20001 39773 49871 57007 69992 76976 8572/ 333 10023 20006 43026 555 794/9;
0123029650999992000010421004+60970+025630FM-12+008499999V0202301N001019999999N9999999N1+00101+00011098851ADDMA1999999097881MD1210151+9999REMSYN082AAXX  04214 02965 46/// /2302 10010 20001 39788 49885 52015 92039 555 793// 0/403;
0123029650999992000010500004+60970+025630FM-12+008499999V0202101N001019999999N9999999N1+00071-00081098881ADDMA1999999097911MD1210031+9999REMSYN082AAXX  05004 02965 46/// /2102 10007 21008 39791 49888 52003 92339 555 789// 0/403;
0171029650999992000010503004+60970+025630FM-12+008499999V0202801N001010075019N0060001N1+00041-00031098961ADDAY121031AY221031GF108991051071008001021999MA1999999097981MD1210071+9999MW1101REMSYN082AAXX  05034 02965 41556 82802 10004 21003 39798 49896 52007 71022 8572/ 555 795//;
0277029650999992000010506004+60970+025630FM-12+008499999V0203201N001510300019N0080001N1+00121-00011099401ADDAA112001091AJ100259199999999AY121061AY221061GF106991031071008001071001IA1279IA2999+00009KA1120M+00141KA2120N+00021MA1999999098421MD1210431+9999MW1101REMSYN116AAXX  05064 02965 11558 63203 10012 21001 39842 49940 52043 60012 71022 83770 333 10014 20002 3/100 43025 555 79142;
0171029650999992000010509004+60970+025630FM-12+008499999V0202901N001510300019N0035001N1+00071-00121099841ADDAY171031AY221031GF107991041051008001021001MA1999999098851MD1210431+9999MW1681REMSYN082AAXX  05094 02965 41535 72903 10007 21012 39885 49984 52043 76872 84520 555 787//;
0171029650999992000010512004+60970+025630FM-12+008499999V0202901N001010300019N0100001N1+00001-00221100191ADDAY171061AY221061GF107991041071008001021001MA1999999099201MD1210341+9999MW1021REMSYN082AAXX  05124 02965 41560 72902 10000 21022 39920 40019 52034 70272 84720 555 785//;
0123029650999992000010515004+60970+025630FM-12+008499999V0202701N000519999999N9999999N1-00071-00241100501ADDMA1999999099501MD1210311+9999REMSYN082AAXX  05154 02965 46/// /2701 11007 21024 39950 40050 52031 91439 555 788// 0/404;
0123029650999992000010521004+60970+025630FM-12+008499999V0202701N000519999999N9999999N1-00061-00251101071ADDMA1999999100061MD1210261+9999REMSYN082AAXX  05214 02965 46/// /2701 11006 21025 30006 40107 52026 92039 555 787// 0/502;
0171029650999992000010603004+60970+025630FM-12+008499999V0202201N001010075019N0070001N1-00351-00431101341ADDAY121031AY221031GF108991051071008001021999MA1999999100331MD1210101+9999MW1101REMSYN082AAXX  06034 02965 41557 82202 11035 21043 30033 40134 52010 71022 8572/ 555 794//;
0290029650999992000010606004+60970+025630FM-12+008499999V0201701N001010075019N0070001N1-00231-00271101251ADDAA106000091AJ100249199999999AY121061AY221061GF108991051071008001021999IA1279IA2999-00409KA1120M+00021KA2120N-00351MA1999999100231MD1710091+9999MW1101REMSYN110AAXX  06064 02965 31557 81702 11023 21027 30023 40125 57009 71022 8572/ 333 10002 21035 3/104 43024 555 7973/;EQDQ01  00002PRCP06
0171029650999992000010609004+60970+025630FM-12+008499999V0201901N001010075019N0080001N1-00041-00101101211ADDAY121031AY221031GF108991051071008001021999MA1999999100201MD1710031+9999MW1101REMSYN082AAXX  06094 02965 41558 81902 11004 21010 30020 40121 57003 71022 8572/ 555 796//;
0171029650999992000010612004+60970+025630FM-12+008499999V0201901N001510075019N0100001N1+00181-00031101071ADDAY121061AY221061GF108991051071008001021999MA1999999100081MD1710121+9999MW1021REMSYN082AAXX  06124 02965 42560 81903 10018 21003 30008 40107 57012 70222 8572/ 555 786//;
0123029650999992000010615004+60970+025630FM-12+008499999V0201801N002119999999N9999999N1+00171+00001100841ADDMA1999999099841MD1710241+9999REMSYN082AAXX  06154 02965 46/// /1804 10017 21000 39984 40084 57024 91439 555 788// 0/104;
0123029650999992000010621004+60970+025630FM-12+008499999V0201901N002119999999N9999999N1+00151+00011100481ADDMA1999999099491MD1710181+9999REMSYN082AAXX  06214 02965 46/// /1904 10015 20001 39949 40048 57018 92039 555 790// 0/105;
0123029650999992000010700004+60970+025630FM-12+008499999V0202001N002119999999N9999999N1+00151+00061100271ADDMA1999999099281MD1710211+9999REMSYN082AAXX  07004 02965 46/// /2004 10015 20006 39928 40027 57021 92339 555 794// 0/505;
0171029650999992000010703004+60970+025630FM-12+008499999V0201901N002110042019N0025001N1+00121+00021100061ADDAY161031AY221031GF108991051071004501021999MA1999999099071MD1710211+9999MW1611REMSYN082AAXX  07034 02965 41425 81904 10012 20002 39907 40006 57021 76162 8572/ 555 793//;
0277029650999992000010706004+60970+025630FM-12+008499999V0202101N001510042019N0025001N1+00161+00061099931ADDAA112002091AJ100229199999999AY161061AY221061GF108991051071004501021999IA1279IA2999+00009KA1120M+00261KA2120N+00131MA1999999098951MD1710121+9999MW1611REMSYN116AAXX  07064 02965 11425 82103 10016 20006 39895 49993 57012 60022 76162 8572/ 333 10026 20013 3/000 43022 555 79320;
0171029650999992000010709004+60970+025630FM-12+008499999V0202301N001512200019N0100001N1+00201+00081100011ADDAY161031AY211031GF104991031051008001081001MA1999999099031MD1210081+9999MW1011REMSYN082AAXX  07094 02965 41560 42303 10020 20008 39903 40001 52008 70161 83580 555 792//;
0171029650999992000010712004+60970+025630FM-12+008499999V0202401N001510300019N0100001N1+00171-00091100211ADDAY161061AY211061GF107991041051008001021001MA1999999099231MD1210191+9999MW1031REMSYN082AAXX  07124 02965 41560 72403 10017 21009 39923 40021 52019 70361 84520 555 783//;
0123029650999992000010715004+60970+025630FM-12+008499999V0202601N001519999999N9999999N1+00031-00181100421ADDMA1999999099431MD1210201+9999REMSYN082AAXX  07154 02965 46/// /2603 10003 21018 39943 40042 52020 91439 555 786// 0/004;
0269029650999992000010718004+60970+025630FM-12+008499999V0202301N001512200019N0100001N1-00011-00281100471ADDAA112000191AJ100219199999999AY111061AY211061GA1001+999999999GF100991001001999999001001IA1279KA1120M+00261KA2120N-00091MA1999999099481MD1210051+9999MW1011REMSYN104AAXX  07184 02965 12960 02303 11001 21028 39948 40047 52005 69922 70111 333 10026 21009 43021 555 782/2;
0123029650999992000010721004+60970+025630FM-12+008499999V0202001N001519999999N9999999N1+00051-00161100391ADDMA1999999099401MD1710081+9999REMSYN082AAXX  07214 02965 46/// /2003 10005 21016 39940 40039 57008 92039 555 786// 0/603;
0123029650999992000010800004+60970+025630FM-12+008499999V0202201N002119999999N9999999N1+00241+00011100261ADDMA1999999099281MD1710121+9999REMSYN082AAXX  08004 02965 46/// /2204 10024 20001 39928 40026 57012 92339 555 785// 0/204;
0171029650999992000010803004+60970+025630FM-12+008499999V0202201N001510042019N0080001N1+00221+00101100171ADDAY121031AY221031GF108991051071004501021999MA1999999099181MD1710091+9999MW1101REMSYN082AAXX  08034 02965 41458 82203 10022 20010 39918 40017 57009 71022 8572/ 555 792//;
0290029650999992000010806004+60970+025630FM-12+008499999V0202101N002110075019N0080001N1+00331+00171099971ADDAA106000091AJ100209199999999AY121061AY221061GF107991051071008001021001IA1279IA2999-00109KA1120M+00331KA2120N-00021MA1999999098991MD1710191+9999MW1101REMSYN110AAXX  08064 02965 31558 72104 10033 20017 39899 49997 57019 71022 85720 333 10033 21002 3/101 43020 555 7890/;EQDQ01  00002PRCP06
0171029650999992000010809004+60970+025630FM-12+008499999V0202001N002110075019N0080001N1+00331+00041099941ADDAY121031AY221031GF108991051071008001021999MA1999999098961MD1710031+9999MW1101REMSYN082AAXX  08094 02965 41558 82004 10033 20004 39896 49994 57003 71022 8572/ 555 781//;
0169029650999992000010812004+60970+025630FM-12+008499999V0202201N002610300019N0100001N1+00411+00041099831ADDAY121061AY221061GF107991041071008001021001MA1999999098861MD1710101+9999MW1011REMSYN080AAXX  08124 02965 42560 72205 10041 20004 39886 49983 57010 70122 84720 555 777;
0123029650999992000010815004+60970+025630FM-12+008499999V0202201N002119999999N9999999N1+00381+00221099791ADDMA1999999098811MD1710051+9999REMSYN082AAXX  08154 02965 46/// /2204 10038 20022 39881 49979 57005 91439 555 789// 0/606;
0272029650999992000010818004+60970+025630FM-12+008499999V0202201N002610300019N0100001N1+00461+00041099801ADDAA106000091AJ100189199999999AY121061AY221061GF107991041071008001021001IA1279KA1120M+00481KA2120N+00321MA1999999098831MD1410001+9999MW1021REMSYN104AAXX  08184 02965 32560 72205 10046 20004 39883 49980 54002 70222 84720 333 10048 20032 43018 555 774//;EQDQ01  00002PRCP06
0123029650999992000010821004+60970+025630FM-12+008499999V0202301N002119999999N9999999N1+00411+00021099951ADDMA1999999098971MD1210141+9999REMSYN082AAXX  08214 02965 46/// /2304 10041 20002 39897 49995 52014 92039 555 775// 0/105;
0121029650999992000010900004+60970+025630FM-12+008499999V0202301N002119999999N9999999N1+00391+00021100091ADDMA1999999099111MD1210141+9999REMSYN080AAXX  09004 02965 46/// /2304 10039 20002 39911 40009 52014 92339 555 777 0/605;
0171029650999992000010903004+60970+025630FM-12+008499999V0202301N001510300019N0100001N1+00361-00131100211ADDAY121031AY221031GF107991041071004501021999MA1999999099231MD1210121+9999MW1021REMSYN082AAXX  09034 02965 42460 72303 10036 21013 39923 40021 52012 70222 8472/ 555 770//;
0171029650999992000010909004+60970+025630FM-12+008499999V0202401N002110300019N0150001N1+00311-00091100621ADDAY121031AY221031GF107991041071008001091001MA1999999099641MD1210271+9999MW1031REMSYN082AAXX  09094 02965 42565 72404 10031 21009 39964 40062 52027 70322 84790 555 775//;
0171029650999992000010912004+60970+025630FM-12+008499999V0202301N002110075019N0150001N1+00321-00081100771ADDAY121061AY221061GF108991051071008001021999MA1999999099791MD1210151+9999MW1031REMSYN082AAXX  09124 02965 42565 82304 10032 21008 39979 40077 52015 70322 8572/ 555 775//;
0123029650999992000010915004+60970+025630FM-12+008499999V0202501N001519999999N9999999N1+00301-00011100911ADDMA1999999099921MD1210141+9999REMSYN082AAXX  09154 02965 46/// /2503 10030 21001 39992 40091 52014 91439 555 780// 0/604;
0272029650999992000010918004+60970+025630FM-12+008499999V0202301N001510075019N0100001N1+00311-00071101051ADDAA106000091AJ100129199999999AY121061AY221061GF108991051071008001021999IA1279KA1120M+00361KA2120N+00281MA1999999100051MD1210131+9999MW1021REMSYN104AAXX  09184 02965 32560 82303 10031 21007 30005 40105 52013 70222 8572/ 333 10036 20028 43012 555 776//;EQDQ01  00002PRCP06
0123029650999992000010921004+60970+025630FM-12+008499999V0202301N001019999999N9999999N1+00241-00021101171ADDMA1999999100181MD1210131+9999REMSYN082AAXX  09214 02965 46/// /2302 10024 21002 30018 40117 52013 92039 555 783// 0/304;
0123029650999992000011000004+60970+025630FM-12+008499999V0202601N002119999999N9999999N1+00191-00081101301ADDMA1999999100301MD1210121+9999REMSYN082AAXX  10004 02965 46/// /2604 10019 21008 30030 40130 52012 92339 555 782// 0/004;
0171029650999992000011003004+60970+025630FM-12+008499999V0202601N001510300019N0100001N1+00111-00181101431ADDAY121031AY221031GF107991041071008001021001MA1999999100431MD1210121+9999MW1021REMSYN082AAXX  10034 02965 42560 72603 10011 21018 30043 40143 52012 70222 84720 555 781//;
0290029650999992000011006004+60970+025630FM-12+008499999V0202501N000510300019N0100001N1+00021-00221101611ADDAA106000091AJ100119199999999AY121061AY221061GF106991031071008001091001IA1279IA2999-00109KA1120M+00331KA2120N+00021MA1999999100601MD1210181+9999MW1011REMSYN110AAXX  10064 02965 32560 62501 10002 21022 30060 40161 52018 70122 83790 333 10033 20002 3/101 43011 555 7840/;EQDQ01  00002PRCP06
0171029650999992000011009004+60970+025630FM-12+008499999V0202501N001010300019N0100001N1-00061-00251101801ADDAY121031AY221031GF107991041071008001021001MA1999999100791MD1210191+9999MW1031REMSYN082AAXX  10094 02965 42560 72502 11006 21025 30079 40180 52019 70322 84720 555 787//;
0171029650999992000011012004+60970+025630FM-12+008499999V0202501N001012200019N0200001N1-00061-00261101911ADDAY121061AY221061GF104991021051008001081001MA1999999100901MD1210111+9999MW1011REMSYN082AAXX  10124 02965 42570 42502 11006 21026 30090 40191 52011 70122 82580 555 786//;
0123029650999992000011015004+60970+025630FM-12+008499999V0201901N000519999999N9999999N1-00301-00391102041ADDMA1999999101021MD1210131+9999REMSYN082AAXX  10154 02965 46/// /1901 11030 21039 30102 40204 52013 91439 555 793// 0/602;
0272029650999992000011018004+60970+025630FM-12+008499999V0202401N001010300019N0070001N1-00161-00241102111ADDAA106000091AJ100119199999999AY111061AY211061GF106991031071008001021001IA1279KA1120M+00031KA2120N-00331MA1999999101091MD1210071+9999MW1101REMSYN104AAXX  10184 02965 31557 62402 11016 21024 30109 40211 52007 71011 83720 333 10003 21033 43011 555 794//;EQDQ01  00002PRCP06
0123029650999992000011021004+60970+025630FM-12+008499999V0202401N000519999999N9999999N1-00341-00421102191ADDMA1999999101171MD1210081+9999REMSYN082AAXX  10214 02965 46/// /2401 11034 21042 30117 40219 52008 92039 555 795// 0/602;
0123029650999992000011100004+60970+025630FM-12+008499999V0201401N000519999999N9999999N1-00421-00511102131ADDMA1999999101101MD1710071+9999REMSYN082AAXX  11004 02965 46/// /1401 11042 21051 30110 40213 57007 92339 555 793// 0/501;
0171029650999992000011103004+60970+025630FM-12+008499999V0202101N001010075019N0080001N1-00021-00121101931ADDAY121031AY221031GF108991051071008001021999MA1999999100921MD1710181+9999MW1101REMSYN082AAXX  11034 02965 41558 82102 11002 21012 30092 40193 57018 71022 8572/ 555 793//;
0290029650999992000011106004+60970+025630FM-12+008499999V0202101N001510075019N0080001N1+00151+00031101791ADDAA106000091AJ100119199999999AY121061AY221061GF108991051071008001021999IA1279IA2999-00609KA1120M+00161KA2120N-00421MA1999999100781MD1710141+9999MW1101REMSYN110AAXX  11064 02965 31558 82103 10015 20003 30078 40179 57014 71022 8572/ 333 10016 21042 3/106 43011 555 7920/;EQDQ01  00002PRCP06
0171029650999992000011109004+60970+025630FM-12+008499999V0202001N001510075019N0080001N1+00141+00041101721ADDAY161031AY221031GF108991051071008001021999MA1999999100721MD1710061+9999MW1101REMSYN082AAXX  11094 02965 41558 82003 10014 20004 30072 40172 57006 71062 8572/ 555 793//;
0171029650999992000011112004+60970+025630FM-12+008499999V0202201N001510075019N0100001N1+00201+00041101731ADDAY161061AY221061GF108991051071008001021999MA1999999100731MD1410001+9999MW1021REMSYN082AAXX  11124 02965 41560 82203 10020 20004 30073 40173 54001 70262 8572/ 555 789//;
0123029650999992000011115004+60970+025630FM-12+008499999V0202301N001019999999N9999999N1+00221+00081101761ADDMA1999999100761MD1210031+9999REMSYN082AAXX  11154 02965 46/// /2302 10022 20008 30076 40176 52003 91439 555 791// 0/503;
0259029650999992000011118004+60970+025630FM-12+008499999V0202501N001010075019N0100001N1+00281+00101101861ADDAA112000191AJ100109199999999AY121061AY221061GF108991051071008001021999IA1279KA1120M+00281KA2120N+00131MA1999999100861MD1210101+9999MW1021REMSYN110AAXX  11184 02965 12560 82502 10028 20010 30086 40186 52010 69922 70222 8572/ 333 10028 20013 43010 555 788/2;
0123029650999992000011121004+60970+025630FM-12+008499999V0202401N001019999999N9999999N1+00251+00061101961ADDMA1999999100961MD1210091+9999REMSYN082AAXX  11214 02965 46/// /2402 10025 20006 30096 40196 52009 92039 555 787// 0/503;
0123029650999992000011200004+60970+025630FM-12+008499999V0202401N001019999999N9999999N1+00241+00041102001ADDMA1999999101001MD1210041+9999REMSYN082AAXX  12004 02965 46/// /2402 10024 20004 30100 40200 52004 92339 555 787// 0/603;
0171029650999992000011203004+60970+025630FM-12+008499999V0202201N001010075019N0100001N1+00211-00101101941ADDAY121031AY221031GF108991051071008001021999MA1999999100941MD1710061+9999MW1021REMSYN082AAXX  12034 02965 42560 82202 10021 21010 30094 40194 57006 70222 8572/ 555 780//;
0290029650999992000011206004+60970+025630FM-12+008499999V0202001N001010075019N0100001N1+00241+00051101791ADDAA106000091AJ100099199999999AY121061AY221061GF108991051071008001021999IA1309IA2999+00109KA1120M+00291KA2120N+00201MA1999999100791MD1710151+9999MW1021REMSYN110AAXX  12064 02965 32560 82002 10024 20005 30079 40179 57015 70222 8572/ 333 10029 20020 3/001 42009 555 7879/;EQDQ01  00002PRCP06
0171029650999992000011209004+60970+025630FM-12+008499999V0202001N001510075019N0100001N1+00271+00091101581ADDAY121031AY221031GF108991051071008001021999MA1999999100591MD1710211+9999MW1021REMSYN082AAXX  12094 02965 42560 82003 10027 20009 30059 40158 57021 70222 8572/ 555 788//;
0171029650999992000011212004+60970+025630FM-12+008499999V0201901N001010042019N0080001N1+00201+00111101281ADDAY161061AY221061GF108991051071004501021999MA1999999100281MD1710301+9999MW1101REMSYN082AAXX  12124 02965 41458 81902 10020 20011 30028 40128 57030 71062 8572/ 555 794//;
0123029650999992000011215004+60970+025630FM-12+008499999V0202201N001019999999N9999999N1+00211+00111101101ADDMA1999999100111MD1710171+9999REMSYN082AAXX  12154 02965 46/// /2202 10021 20011 30011 40110 57017 91439 555 793// 0/403;
0165029650999992000011218004+60970+025630FM-12+008499999V0202401N001019999999N9999999N1+00241+00171101081ADDKA1120M+00281KA2120N+00191MA1999999100091MD1410001+9999REMSYN098AAXX  12184 02965 46/// /2402 10024 20017 30009 40108 54002 91739 333 10028 20019 555 795// 0/602;
0123029650999992000011221004+60970+025630FM-12+008499999V0202301N000519999999N9999999N1+00251+00191101091ADDMA1999999100091MD1410001+9999REMSYN082AAXX  12214 02965 46/// /2301 10025 20019 30009 40109 54000 92039 555 796// 0/202;
0123029650999992000011300004+60970+025630FM-12+008499999V0202401N001019999999N9999999N1+00251+00201101141ADDMA1999999100151MD1210051+9999REMSYN082AAXX  13004 02965 46/// /2402 10025 20020 30015 40114 52005 92339 555 796// 0/302;
0171029650999992000011303004+60970+025630FM-12+008499999V0202501N000510042019N0080001N1+00221+00121101211ADDAY121031AY221031GF108991051071004501021999MA1999999100211MD1210061+9999MW1101REMSYN082AAXX  13034 02965 41458 82501 10022 20012 30021 40121 52006 71022 8572/ 555 793//;
0165029650999992000011306004+60970+025630FM-12+008499999V0202401N001019999999N9999999N1+00181+00051101281ADDKA1120M+00271KA2120N+00181MA1999999100291MD1210081+9999REMSYN098AAXX  13064 02965 46/// /2402 10018 20005 30029 40128 52008 90539 333 10027 20018 555 791// 0/403;
0171029650999992000011309004+60970+025630FM-12+008499999V0201801N000510075019N0080001N1+00101+00011101351ADDAY121031AY221031GF108991051071008001021999MA1999999100351MD1210061+9999MW1101REMSYN082AAXX  13094 02965 41558 81801 10010 20001 30035 40135 52006 71022 8572/ 555 794//;
0171029650999992000011312004+60970+025630FM-12+008499999V0201701N000510042019N0010001N1+00191+00131101271ADDAY121061AY221061GF108991061061004501021999MA1999999100271MD1710081+9999MW1101REMSYN082AAXX  13124 02965 41410 81701 10019 20013 30027 40127 57008 71022 8662/ 555 796//;
0123029650999992000011315004+60970+025630FM-12+008499999V0201801N000519999999N9999999N1+00091+00031101121ADDMA1999999100131MD1710141+9999REMSYN082AAXX  13154 02965 46/// /1801 10009 20003 30013 40112 57014 91439 555 796// 0/403;
0259029650999992000011318004+60970+025630FM-12+008499999V0202301N001010042019N0025001N1+00241+00181101111ADDAA112002091AJ100079199999999AY161061AY221061GF108991051071004501021999IA1309KA1120M+00241KA2120N+00101MA1999999100121MD1410001+9999MW1611REMSYN110AAXX  13184 02965 11425 82302 10024 20018 30012 40111 54001 60022 76162 8572/ 333 10024 20010 42007 555 796/7;
0127029650999992000011400004+60970+025630FM-12+008499999V0202801N001519999999N9999999N1+00081-00061101451ADDMA1999999100451MD1210251+9999REMSYN086    AAXX  14004 02965 46/// /2803 10008 21006 30045 40145 52025 92339 555 791// 0/403;
0175029650999992000011403004+60970+025630FM-12+008499999V0203301N001010300019N0080001N1-00011-00281101811ADDAY121031AY221031GF107991041071008001021999MA1999999100801MD1210351+9999MW1101REMSYN086    AAXX  14034 02965 41558 73302 11001 21028 30080 40181 52035 71022 8472/ 555 782//;
0281029650999992000011406004+60970+025630FM-12+008499999V0203101N001010300019N0035001N1-00051-00301102041ADDAA112000791AJ100079199999999AY171061AY221061GF107991041071004501021001IA1309IA2999-00209KA1120M-00051KA2120N-00051MA1999999101031MD1210231+9999MW1701REMSYN120    AAXX  14064 02965 11435 73102 11005 21030 30103 40204 52023 69902 77072 84720 333 11005 21005 3/102 42007 555 78350;
0175029650999992000011409004+60970+025630FM-12+008499999V0202701N001010300019N0030001N1-00091-00331102261ADDAY171031AY221031GF107991041071004501021001MA1999999101251MD1210221+9999MW1711REMSYN086    AAXX  14094 02965 41430 72702 11009 21033 30125 40226 52022 77172 84720 555 784//;
0175029650999992000011412004+60970+025630FM-12+008499999V0202901N001010300019N0100001N1-00101-00471102341ADDAY171061AY221061GF107991041071008001021999MA1999999101331MD1210081+9999MW1021REMSYN086    AAXX  14124 02965 41560 72902 11010 21047 30133 40234 52008 70272 8472/ 555 776//;
0127029650999992000011415004+60970+025630FM-12+008499999V0203101N000519999999N9999999N1-00201-00411102431ADDMA1999999101401MD1210081+9999REMSYN086    AAXX  14154 02965 46/// /3101 11020 21041 30140 40243 52008 91439 555 785// 0/202;
0263029650999992000011418004+60970+025630FM-12+008499999V0202701N000512200019N0100001N1-00281-00531102461ADDAA112000391AJ100079199999999AY111061AY211061GF102991001001999999001041IA1309KA1120M-00031KA2120N-00281MA1999999101441MD1210031+9999MW1011REMSYN114    AAXX  14184 02965 12960 22701 11028 21053 30144 40246 52003 69932 70111 80004 333 11003 21028 42007 555 783/3;
0127029650999992000011421004+60970+025630FM-12+008499999V0203201N000519999999N9999999N1-00441-00581102451ADDMA1999999101421MD1410001+9999REMSYN086    AAXX  14214 02965 46/// /3201 11044 21058 30142 40245 54002 92039 555 790// 0/202;
0127029650999992000011500004+60970+025630FM-12+008499999V0202801N000519999999N9999999N1-00371-00551102391ADDMA1999999101361MD1710061+9999REMSYN086    AAXX  15004 02965 46/// /2801 11037 21055 30136 40239 57006 92339 555 788// 0/403;
0175029650999992000011503004+60970+025630FM-12+008499999V0202401N000510075019N0080001N1-00301-00501102261ADDAY121031AY221031GF108991051071008001021999MA1999999101241MD1710131+9999MW1101REMSYN086    AAXX  15034 02965 41558 82401 11030 21050 30124 40226 57013 71022 8572/ 555 786//;
0294029650999992000011506004+60970+025630FM-12+008499999V0202601N001010075019N0080001N1-00261-00511102121ADDAA199000091AJ100079199999999AY121061AY221061GF108991051071008001021999IA1309IA2999-00809KA1120M-00231KA2120N-00421MA1999999101101MD1710141+9999MW1101REMSYN114    AAXX  15064 02965 31558 82602 11026 21051 30110 40212 57014 71022 8572/ 333 11023 21042 3/108 42007 555 7835/;EQDQ01  00002PRCP99
0175029650999992000011509004+60970+025630FM-12+008499999V0202301N001012200019N0150001N1-00291-00511102011ADDAY121031AY221031GF103991011041012501081001MA1999999100991MD1710111+9999MW1011REMSYN086    AAXX  15094 02965 42665 32302 11029 21051 30099 40201 57011 70122 81480 555 785//;
0175029650999992000011512004+60970+025630FM-12+008499999V0202601N001012200019N0150001N1-00261-00541101881ADDAY121061AY221061GF103991021041017501081001MA1999999100861MD1710131+9999MW1021REMSYN086    AAXX  15124 02965 42765 32602 11026 21054 30086 40188 57013 70222 82480 555 781//;
0127029650999992000011515004+60970+025630FM-12+008499999V0202601N001019999999N9999999N1-00301-00491101791ADDMA1999999100771MD1710091+9999REMSYN086    AAXX  15154 02965 46/// /2602 11030 21049 30077 40179 57009 91439 555 787// 0/103;
0276029650999992000011518004+60970+025630FM-12+008499999V0209999C000010075019N0070001N1-00221-00361101721ADDAA199000091AJ100079199999999AY111061AY211061GF108991051071008001021999IA1309KA1120M-00221KA2120N-00271MA1999999100701MD1710081+9999MW1101REMSYN108    AAXX  15184 02965 31557 80000 11022 21036 30070 40172 57008 71011 8572/ 333 11022 21027 42007 555 790//;EQDQ01  00002PRCP99
0127029650999992000011521004+60970+025630FM-12+008499999V0202801N000519999999N9999999N1-00201-00311101671ADDMA1999999100661MD1710041+9999REMSYN086    AAXX  15214 02965 46/// /2801 11020 21031 30066 40167 57004 92039 555 792// 0/202;
0127029650999992000011600004+60970+025630FM-12+008499999V0202201N000519999999N9999999N1-00191-00291101611ADDMA1999999100601MD1710061+9999REMSYN086    AAXX  16004 02965 46/// /2201 11019 21029 30060 40161 57006 92339 555 793// 0/402;
0175029650999992000011603004+60970+025630FM-12+008499999V0202901N000510075019N0060001N1-00161-00221101541ADDAY121031AY221031GF108991051071008001021999MA1999999100531MD1710081+9999MW1101REMSYN086    AAXX  16034 02965 41556 82901 11016 21022 30053 40154 57008 71022 8572/ 555 796//;
0281029650999992000011606004+60970+025630FM-12+008499999V0209999C000010075019N0030001N1-00141-00201101401ADDAA112000391AJ100079199999999AY171061AY221061GF108991051071008001021999IA1309IA2999-00309KA1120M-00101KA2120N-00211MA1999999100391MD1710131+9999MW1711REMSYN120    AAXX  16064 02965 11530 80000 11014 21020 30039 40140 57013 69932 77172 8572/ 333 11010 21021 3/103 42007 555 79663;
0175029650999992000011609004+60970+025630FM-12+008499999V0202001N000510075019N0050001N1-00071-00111101051ADDAY171031AY221031GF108991051071008001021999MA1999999100051MD1710351+9999MW1101REMSYN086    AAXX  16094 02965 41550 82001 11007 21011 30005 40105 57035 71072 8572/ 555 797//;
0175029650999992000011612004+60970+025630FM-12+008499999V0202101N001510075019N0030001N1+00011-00061100421ADDAY171061AY221061GF108991051071008001021999MA1999999099431MD1710621+9999MW1681REMSYN086    AAXX  16124 02965 41530 82103 10001 21006 39943 40042 57062 76872 8572/ 555 795//;
0127029650999992000011615004+60970+025630FM-12+008499999V0202201N002119999999N9999999N1+00071+00001099661ADDMA1999999098681MD1710751+9999REMSYN086    AAXX  16154 02965 46/// /2204 10007 20000 39868 49966 57075 91439 555 795// 0/004;
0263029650999992000011618004+60970+025630FM-12+008499999V0202601N001510075019N0050001N1+00161+00031099101ADDAA112002091AJ100089199999999AY171061AY221061GF108991051071008001021999IA1309KA1120M+00171KA2120N-00141MA1999999098121MD1710551+9999MW1101REMSYN114    AAXX  16184 02965 11550 82603 10016 20003 39812 49910 57055 60022 71072 8572/ 333 10017 21014 42008 555 791/7;
0175029650999992000011812004+60970+025630FM-12+008499999V0203601N002110075019N0100001N1-00521-00891099181ADDAY131061AY221061GF108991051071008001021999MA1999999098181MD1210371+9999MW1021REMSYN086    AAXX  18124 02965 41560 83604 11052 21089 39818 49918 52037 70232 8572/ 555 775//;
0127029650999992000011815004+60970+025630FM-12+008499999V0203501N002119999999N9999999N1-00661-00981099551ADDMA1999999098541MD1210371+9999REMSYN086    AAXX  18154 02965 46/// /3504 11066 21098 39854 49955 52037 91439 555 778// 0/405;
0263029650999992000011818004+60970+025630FM-12+008499999V0203501N001510075019N0030001N1-00761-01181099881ADDAA112001091AJ100109199999999AY131061AY221061GF108991051071008001021999IA1239KA1120M-00461KA2120N-00761MA1999999098861MD1210311+9999MW1381REMSYN114    AAXX  18184 02965 11530 83503 11076 21118 39886 49988 52031 60012 73832 8572/ 333 11046 21076 47010 555 772/0;
0125029650999992000011821004+60970+025630FM-12+008499999V0203501N002119999999N9999999N1-00981-01301100081ADDMA1999999099061MD1210201+9999REMSYN084    AAXX  18214 02965 46/// /3504 11098 21130 39906 40008 52020 92039 555 777 0/405;
0175029650999992000011909004+60970+025630FM-12+008499999V0203401N001012200019N0200001N1-01041-01431100491ADDAY101031AY201031GF102991021041012501001001MA1999999099461MD1210081+9999MW1031REMSYN086    AAXX  19094 02965 42670 23402 11104 21143 39946 40049 52008 70300 82400 555 773//;
0175029650999992000011912004+60970+025630FM-12+008499999V0203301N001510300019N0200001N1-00761-01141100511ADDAY111061AY211061GF107991041051008001051001MA1999999099491MD1210031+9999MW1031REMSYN086    AAXX  19124 02965 42570 73303 11076 21114 39949 40051 52003 70311 84550 555 774//;
0127029650999992000011915004+60970+025630FM-12+008499999V0203201N001019999999N9999999N1-00661-00831100551ADDMA1999999099531MD1210051+9999REMSYN086    AAXX  19154 02965 46/// /3202 11066 21083 39953 40055 52005 91439 555 788// 0/504;
0259029650999992000011918004+60970+025630FM-12+008499999V0203201N000510042019N0010001N1-00561-00731100541ADDAA112000391AJ100109199999999AY171061AY221061GF108991051071004501021999IA1239KA1120M-00531KA2120N-01141MA1999999099531MD1410001+9999MW1731REMSYN110AAXX  19184 02965 11410 83201 11056 21073 39953 40054 54001 69932 77372 8572/ 333 11053 21114 47010 555 788/3;
0123029650999992000011921004+60970+025630FM-12+008499999V0203301N001519999999N9999999N1-00531-00881100491ADDMA1999999099471MD1710051+9999REMSYN082AAXX  19214 02965 46/// /3303 11053 21088 39947 40049 57005 92039 555 776// 0/205;
0123029650999992000012000004+60970+025630FM-12+008499999V0202801N000519999999N9999999N1-00831-01061100361ADDMA1999999099331MD1710141+9999REMSYN082AAXX  20004 02965 46/// /2801 11083 21106 39933 40036 57014 92339 555 784// 0/603;
0181029650999992000012003004+60970+025630FM-12+008499999V0202801N000512200019N0060001N1-00911-01041100131ADDAY101031AY201031GA1001+999999999GF100991001001999999001001MA1999999099101MD1710231+9999MW1101REMSYN076AAXX  20034 02965 41956 02801 11091 21104 39910 40013 57023 71000 555 790//;
0277029650999992000012006004+60970+025630FM-12+008499999V0209999C000012200019N0080001N1-01291-01451099761ADDAA112000391AJ100109199999999AY101061AY201061GF104991021051008001001041IA1239IA2999-01809KA1120M-00471KA2120N-01301MA1999999098731MD1710381+9999MW1101REMSYN116AAXX  20064 02965 11558 40000 11129 21145 39873 49976 57038 69932 71000 82504 333 11047 21130 3/118 47010 555 78883;
0171029650999992000012009004+60970+025630FM-12+008499999V0209999C000010075019N0030001N1-01031-01151099451ADDAY171031AY211031GF108991051071008001021999MA1999999098431MD1710301+9999MW1711REMSYN082AAXX  20094 02965 41530 80000 11103 21115 39843 49945 57030 77171 8572/ 555 791//;
0171029650999992000012012004+60970+025630FM-12+008499999V0201101N000510042019N0010001N1-00781-00901099301ADDAY171061AY211061GF108991051071004501021999MA1999999098291MD1710141+9999MW1731REMSYN082AAXX  20124 02965 41410 81101 11078 21090 39829 49930 57014 77371 8572/ 555 791//;
0123029650999992000012015004+60970+025630FM-12+008499999V0209999C000019999999N9999999N1-00801-00941099421ADDMA1999999098411MD1210121+9999REMSYN082AAXX  20154 02965 46/// /0000 11080 21094 39841 49942 52012 91439 555 790// 0/402;
0259029650999992000012018004+60970+025630FM-12+008499999V0203401N001010300019N0060001N1-00851-00971099441ADDAA112004191AJ100139199999999AY171061AY221061GF107991041051008001011001IA1239KA1120M-00721KA2120N-01291MA1999999098421MD1410001+9999MW1101REMSYN110AAXX  20184 02965 11556 73402 11085 21097 39842 49944 54001 60042 71072 84510 333 11072 21129 47013 555 791/4;
0123029650999992000012021004+60970+025630FM-12+008499999V0203301N000519999999N9999999N1-01101-01261099411ADDMA1999999098381MD1710041+9999REMSYN082AAXX  20214 02965 46/// /3301 11110 21126 39838 49941 57004 92039 555 788// 0/503;
0123029650999992000012100004+60970+025630FM-12+008499999V0203401N001019999999N9999999N1-01261-01421099441ADDMA1999999098401MD1210021+9999REMSYN082AAXX  21004 02965 46/// /3402 11126 21142 39840 49944 52002 92339 555 787// 0/002;
0171029650999992000012103004+60970+025630FM-12+008499999V0203401N001012200019N0070001N1-01351-01521099501ADDAY101031AY201031GF102991001001999999001091MA1999999098471MD1210061+9999MW1101REMSYN082AAXX  21034 02965 41957 23402 11135 21152 39847 49950 52006 71000 80009 555 787//;
0277029650999992000012106004+60970+025630FM-12+008499999V0203501N002112200019N0100001N1-01401-01621099631ADDAA112000191AJ100149199999999AY101061AY201061GF103991021051008001081001IA1239IA2999-01609KA1120M-00821KA2120N-01401MA1999999098591MD1210121+9999MW1031REMSYN116AAXX  21064 02965 12560 33504 11140 21162 39859 49963 52012 69922 70300 82580 333 11082 21140 3/116 47014 555 78302;
0171029650999992000012109004+60970+025630FM-12+008499999V0203301N001510300019N0030001N1-01551-01771099931ADDAY171031AY211031GF106991031071008001011001MA1999999098881MD1210301+9999MW1711REMSYN082AAXX  21094 02965 41530 63303 11155 21177 39888 49993 52030 77171 83710 555 783//;
0123029650999992000012115004+60970+025630FM-12+008499999V0203301N002619999999N9999999N1-01081-01321100181ADDMA1999999099141MD1210111+9999REMSYN082AAXX  21154 02965 46/// /3305 11108 21132 39914 40018 52011 91439 555 782// 0/205;
0269029650999992000012118004+60970+025630FM-12+008499999V0203301N002612200019N0100001N1-01111-01601100251ADDAA112000591AJ100149199999999AY171061AY211061GA1001+999999999GF100991001001999999001001IA1239KA1120M-01031KA2120N-01521MA1999999099221MD1210071+9999MW1011REMSYN104AAXX  21184 02965 11960 03305 11111 21160 39922 40025 52007 69942 70171 333 11103 21152 47014 555 767/4;
0123029650999992000012121004+60970+025630FM-12+008499999V0203301N002119999999N9999999N1-01171-01521100261ADDMA1999999099231MD1410001+9999REMSYN082AAXX  21214 02965 46/// /3304 11117 21152 39923 40026 54001 92039 555 775// 0/506;
0121029650999992000012200004+60970+025630FM-12+008499999V0203301N002619999999N9999999N1-01181-01501100291ADDMA1999999099261MD1210031+9999REMSYN080AAXX  22004 02965 46/// /3305 11118 21150 39926 40029 52003 92339 555 777 0/405;
0169029650999992000012203004+60970+025630FM-12+008499999V0203401N002112200019N0100001N1-01241-01561100271ADDAY101031AY201031GF102991021051008001001001MA1999999099231MD1710031+9999MW1021REMSYN080AAXX  22034 02965 42560 23404 11124 21156 39923 40027 57003 70200 82500 555 777;
0277029650999992000012206004+60970+025630FM-12+008499999V0203401N002110300019N0030001N1-01201-01491100341ADDAA112000191AJ100149199999999AY171061AY211061GF105991021051008001021001IA1239IA2999-01409KA1120M-01081KA2120N-01221MA1999999099301MD1210071+9999MW1711REMSYN116AAXX  22064 02965 11530 53404 11120 21149 39930 40034 52007 69922 77171 82520 333 11108 21122 3/114 47014 555 77992;
0171029650999992000012209004+60970+025630FM-12+008499999V0203401N002110300019N0150001N1-01151-01421100451ADDAY171031AY221031GF106991031051008001011051MA1999999099421MD1210111+9999MW1031REMSYN082AAXX  22094 02965 41565 63404 11115 21142 39942 40045 52011 70372 83515 555 780//;
0181029650999992000012212004+60970+025630FM-12+008499999V0203401N001512200019N0200001N1-01001-01411100571ADDAY171061AY211061GA1001+999999999GF100991001001999999001001MA1999999099541MD1210121+9999MW1011REMSYN076AAXX  22124 02965 41970 03403 11100 21141 39954 40057 52012 70171 555 772//;
0123029650999992000012215004+60970+025630FM-12+008499999V0203501N001019999999N9999999N1-01101-01451100731ADDMA1999999099691MD1210151+9999REMSYN082AAXX  22154 02965 46/// /3502 11110 21145 39969 40073 52015 91439 555 775// 0/604;
0268029650999992000012218004+60970+025630FM-12+008499999V0203401N001512200019N0100001N1-01241-01531100841ADDAA112000791AJ100149199999999AY101061AY201061GA1001+999999999GF100991001001999999001001IA1239KA1120M-00961KA2120N-01251MA1999999099791MD1210101+9999MW1021REMSYN103AAXX  22184 02965 12960 03403 11124 21153 39979 40084 52010 6990270200 333 11096 21125 47014 555 779/0;
0123029650999992000012221004+60970+025630FM-12+008499999V0203401N001019999999N9999999N1-01391-01581100961ADDMA1999999099911MD1210121+9999REMSYN082AAXX  22214 02965 46/// /3402 11139 21158 39991 40096 52012 92039 555 786// 0/603;
0123029650999992000012300004+60970+025630FM-12+008499999V0209999C000019999999N9999999N1-01731-01951101071ADDMA1999999100001MD1210091+9999REMSYN082AAXX  23004 02965 46/// /0000 11173 21195 30000 40107 52009 92339 555 783// 0/602;
0181029650999992000012303004+60970+025630FM-12+008499999V0209999C000012200019N0100001N1-01951-02141101021ADDAY101031AY201031GA1001+999999999GF100991001001999999001001MA1999999099951MD1710051+9999MW1021REMSYN076AAXX  23034 02965 42960 00000 11195 21214 39995 40102 57005 70200 555 785//;
0277029650999992000012306004+60970+025630FM-12+008499999V0202801N000510300019N0030001N1-01591-01761101001ADDAA112000191AJ100149199999999AY171061AY211061GF106991031071004501081001IA1239IA2999-02509KA1120M-01191KA2120N-01931MA1999999099931MD1410001+9999MW1711REMSYN116AAXX  23064 02965 11430 62801 11159 21176 39993 40100 54001 69912 77171 83780 333 11119 21193 3/125 47014 555 78711;
0171029650999992000012309004+60970+025630FM-12+008499999V0203301N001510300019N0030001N1-01301-01501101031ADDAY171031AY221031GF106991031071004501081001MA1999999099981MD1210041+9999MW1711REMSYN082AAXX  23094 02965 41430 63303 11130 21150 39998 40103 52004 77172 83780 555 785//;
0123029650999992000012315004+60970+025630FM-12+008499999V0203301N000519999999N9999999N1-01071-01261101221ADDMA1999999100181MD1210111+9999REMSYN082AAXX  23154 02965 46/// /3301 11107 21126 30018 40122 52011 91439 555 786// 0/503;
0259029650999992000012318004+60970+025630FM-12+008499999V0203601N000510300019N0015001N1-01081-01241101361ADDAA112000191AJ100159199999999AY171061AY221061GF107991041071004501021001IA1239KA1120M-00971KA2120N-01581MA1999999100311MD1210131+9999MW1731REMSYN110AAXX  23184 02965 11415 73601 11108 21124 30031 40136 52013 69922 77372 84720 333 11097 21158 47015 555 788/2;
0123029650999992000012321004+60970+025630FM-12+008499999V0203401N001019999999N9999999N1-01081-01281101431ADDMA1999999100381MD1210071+9999REMSYN082AAXX  23214 02965 46/// /3402 11108 21128 30038 40143 52007 92039 555 785// 0/003;
0123029650999992000012400004+60970+025630FM-12+008499999V0203201N000519999999N9999999N1-01391-01571101561ADDMA1999999100501MD1210121+9999REMSYN082AAXX  24004 02965 46/// /3201 11139 21157 30050 40156 52012 92339 555 786// 0/403;
0181029650999992000012403004+60970+025630FM-12+008499999V0209999C000012200019N0100001N1-01641-01851101611ADDAY101031AY201031GA1001+999999999GF100991001001999999001001MA1999999100541MD1210041+9999MW1021REMSYN076AAXX  24034 02965 42960 00000 11164 21185 30054 40161 52004 70200 555 784//;
0287029650999992000012406004+60970+025630FM-12+008499999V0203301N000512200019N0100001N1-01541-01731101601ADDAA112000191AJ100159199999999AY101061AY201061GA1001+999999999GF100991001001999999001001IA1239IA2999-02409KA1120M-01001KA2120N-01701MA1999999100531MD1410001+9999MW1021REMSYN110AAXX  24064 02965 12960 03301 11154 21173 30053 40160 54001 69912 70200 333 11100 21170 3/124 47015 555 78591;
0171029650999992000012409004+60970+025630FM-12+008499999V0200101N000512200019N0150001N1-01531-01771101681ADDAY101031AY201031GF102991001001999999001061MA1999999100621MD1210091+9999MW1031REMSYN082AAXX  24094 02965 42965 20101 11153 21177 30062 40168 52009 70300 80006 555 782//;
0171029650999992000012412004+60970+025630FM-12+008499999V0203501N000512200019N0200001N1-01371-01671101761ADDAY101061AY201061GF101991001001999999001051MA1999999100701MD1210081+9999MW1011REMSYN082AAXX  24124 02965 42970 13501 11137 21167 30070 40176 52008 70100 80005 555 778//;
0123029650999992000012415004+60970+025630FM-12+008499999V0209999C000019999999N9999999N1-01571-01771101861ADDMA1999999100791MD1210091+9999REMSYN082AAXX  24154 02965 46/// /0000 11157 21177 30079 40186 52009 91439 555 784// 0/501;
0282029650999992000012418004+60970+025630FM-12+008499999V0209999C000012200019N0100001N1-01671-01901101981ADDAA199000091AJ100159199999999AY101061AY201061GA1001+999999999GF100991001001999999001001IA1239KA1120M-01321KA2120N-01691MA1999999100911MD1210121+9999MW1011REMSYN098AAXX  24184 02965 32960 00000 11167 21190 30091 40198 52012 70100 333 11132 21169 47015 555 782//;EQDQ01  00002PRCP99
0123029650999992000012421004+60970+025630FM-12+008499999V0203601N000519999999N9999999N1-01841-02031102091ADDMA1999999101011MD1210101+9999REMSYN082AAXX  24214 02965 46/// /3601 11184 21203 30101 40209 52010 92039 555 785// 0/201;
0123029650999992000012500004+60970+025630FM-12+008499999V0209999C000019999999N9999999N1-02121-02361102091ADDMA1999999101001MD1410001+9999REMSYN082AAXX  25004 02965 46/// /0000 11212 21236 30100 40209 54001 92339 555 781// 0/501;
0171029650999992000012503004+60970+025630FM-12+008499999V0209999C000010300019N0080001N1-02291-02511101991ADDAY121031AY221031GF107991041071004501011001MA1999999100891MD1710111+9999MW1101REMSYN082AAXX  25034 02965 41458 70000 11229 21251 30089 40199 57011 71022 84710 555 782//;
0290029650999992000012506004+60970+025630FM-12+008499999V0209999C000010300019N0080001N1-02111-02281101741ADDAA199000091AJ100159199999999AY121061AY221061GF107991041071008001071001IA1239IA2999-02709KA1120M-01661KA2120N-02271MA1999999100641MD1710241+9999MW1101REMSYN110AAXX  25064 02965 31558 70000 11211 21228 30064 40174 57024 71022 84770 333 11166 21227 3/127 47015 555 7861/;EQDQ01  00002PRCP99
0171029650999992000012509004+60970+025630FM-12+008499999V0201901N000510300019N0100001N1-01911-02111101591ADDAY121031AY221031GF107991041051008001031001MA1999999100511MD1710131+9999MW1021REMSYN082AAXX  25094 02965 42560 71901 11191 21211 30051 40159 57013 70222 84530 555 784//;
0171029650999992000012512004+60970+025630FM-12+008499999V0201601N000510042019N0030001N1-01541-01721101271ADDAY171061AY221061GF108991051071004501021999MA1999999100211MD1710301+9999MW1711REMSYN082AAXX  25124 02965 41430 81601 11154 21172 30021 40127 57030 77172 8572/ 555 786//;
0123029650999992000012515004+60970+025630FM-12+008499999V0201601N001019999999N9999999N1-01271-01431101061ADDMA1999999100011MD1710201+9999REMSYN082AAXX  25154 02965 46/// /1602 11127 21143 30001 40106 57020 91439 555 788// 0/002;
0259029650999992000012518004+60970+025630FM-12+008499999V0201701N000510042019N0060001N1-00891-01001100961ADDAA112003091AJ100199199999999AY171061AY221061GF108991051071004501021999IA1239KA1120M+00861KA2120N-02071MA1999999099921MD1710091+9999MW1101REMSYN110AAXX  25184 02965 11456 81701 11089 21100 39992 40096 57009 60032 71072 8572/ 333 10086 21207 47019 555 792/6;
0123029650999992000012521004+60970+025630FM-12+008499999V0201701N000519999999N9999999N1-00821-00921101011ADDMA1999999099981MD1210061+9999REMSYN082AAXX  25214 02965 46/// /1701 11082 21092 39998 40101 52006 92039 555 792// 0/302;
0123029650999992000012600004+60970+025630FM-12+008499999V0209999C000019999999N9999999N1-00771-00861101001ADDMA1999999099971MD1410001+9999REMSYN082AAXX  26004 02965 46/// /0000 11077 21086 39997 40100 54001 92339 555 793// 0/602;
0171029650999992000012603004+60970+025630FM-12+008499999V0201801N001010042019N0050001N1-00651-00721100851ADDAY121031AY221031GF108991051071004501021999MA1999999099821MD1710151+9999MW1101REMSYN082AAXX  26034 02965 41450 81802 11065 21072 39982 40085 57015 71022 8572/ 555 795//;
0277029650999992000012606004+60970+025630FM-12+008499999V0201601N000510042019N0030001N1-00551-00601100571ADDAA112000191AJ100199199999999AY171061AY221061GF108991051071004501021999IA1239IA2999-00909KA1120M-00541KA2120N-00861MA1999999099551MD1710271+9999MW1711REMSYN116AAXX  26064 02965 11430 81601 11055 21060 39955 40057 57027 69922 77172 8572/ 333 11054 21086 3/109 47019 555 79602;
0171029650999992000012609004+60970+025630FM-12+008499999V0201801N000510042019N0030001N1-00411-00451100291ADDAY171031AY221031GF108991051071004501021999MA1999999099281MD1710271+9999MW1771REMSYN082AAXX  26094 02965 41430 81801 11041 21045 39928 40029 57027 77772 8572/ 555 797//;
0171029650999992000012612004+60970+025630FM-12+008499999V0202301N001010075019N0050001N1-00241-00281099941ADDAY171061AY221061GF108991051071008001021999MA1999999098941MD1710341+9999MW1101REMSYN082AAXX  26124 02965 41550 82302 11024 21028 39894 49994 57034 71072 8572/ 555 797//;
0123029650999992000012615004+60970+025630FM-12+008499999V0209999C000019999999N9999999N1-00101-00151099721ADDMA1999999098731MD1710211+9999REMSYN082AAXX  26154 02965 46/// /0000 11010 21015 39873 49972 57021 91439 555 796// 0/602;
0123029650999992000012621004+60970+025630FM-12+008499999V0202901N001519999999N9999999N1+00011-00121099471ADDMA1999999098491MD1710131+9999REMSYN082AAXX  26214 02965 46/// /2903 10001 21012 39849 49947 57013 92039 555 791// 0/604;
0123029650999992000012700004+60970+025630FM-12+008499999V0203001N001019999999N9999999N1-00141-00271099451ADDMA1999999098461MD1710031+9999REMSYN082AAXX  27004 02965 46/// /3002 11014 21027 39846 49945 57003 92339 555 791// 0/403;
0171029650999992000012703004+60970+025630FM-12+008499999V0203201N000510300019N0070001N1-00331-00461099551ADDAY121031AY221031GF106991031071008001081001MA1999999098561MD1210091+9999MW1101REMSYN082AAXX  27034 02965 41557 63201 11033 21046 39856 49955 52009 71022 83780 555 791//;
0300029650999992000012706004+60970+025630FM-12+008499999V0203001N002112200019N0100001N1-00211-00461099701ADDAA199000091AJ100199199999999AY111061AY211061GA1001+999999999GF100991001001999999001001IA1239IA2999-01209KA1120M+00101KA2120N-00361MA1999999098701MD1210151+9999MW1011REMSYN104AAXX  27064 02965 32960 03004 11021 21046 39870 49970 52015 70111 333 10010 21036 3/112 47019 555 7837/;EQDQ01  00002PRCP99
0171029650999992000012709004+60970+025630FM-12+008499999V0202801N001012200019N0150001N1-00281-00581099811ADDAY101031AY201031GF101991001001999999001081MA1999999098821MD1210111+9999MW1031REMSYN082AAXX  27094 02965 42965 12802 11028 21058 39882 49981 52011 70300 80008 555 780//;
0171029650999992000012712004+60970+025630FM-12+008499999V0202701N001510300019N0150001N1-00181-00481099811ADDAY111061AY211061GF106991031051008001031041MA1999999098821MD1410001+9999MW1031REMSYN082AAXX  27124 02965 42565 62703 11018 21048 39882 49981 54000 70311 83534 555 780//;
0123029650999992000012715004+60970+025630FM-12+008499999V0209999C000019999999N9999999N1-00481-00681099701ADDMA1999999098701MD1710121+9999REMSYN082AAXX  27154 02965 46/// /0000 11048 21068 39870 49970 57012 91439 555 786// 0/603;
0230029650999992000012718004+60970+025630FM-12+008499999V0209999C000012200019N0080001N1-00891+99999999999ADDAA199000091AJ100199199999999GA1001+999999999GF100991001001999999001001IA1239KA1120M-00121KA2120N-00931REMSYN097AAXX  27184 02965 31958 00000 11089 2102 39860 49962 57010 71011 333 11012 21093 47019 555 790//;EQDQ01  00002PRCP99
0123029650999992000012800004+60970+025630FM-12+008499999V0209999C000019999999N9999999N1-00611-00691099011ADDMA1999999098011MD1710291+9999REMSYN082AAXX  28004 02965 46/// /0000 11061 21069 39801 49901 57029 92339 555 794// 0/400;
0171029650999992000012803004+60970+025630FM-12+008499999V0209999C000010042019N0010001N1-00511-00561098861ADDAY171031AY221031GF108991051071004501021999MA1999999097861MD1710151+9999MW1731REMSYN082AAXX  28034 02965 41410 80000 11051 21056 39786 49886 57015 77372 8572/ 555 796//;
0277029650999992000012806004+60970+025630FM-12+008499999V0209999C000010300019N0060001N1-00531-00621098801ADDAA112000591AJ100199199999999AY171061AY221061GF106991031071008001021001IA1239IA2999-01309KA1120M-00421KA2120N-00931MA1999999097801MD1710051+9999MW1101REMSYN116AAXX  28064 02965 11556 60000 11053 21062 39780 49880 57005 69952 71072 83720 333 11042 21093 3/113 47019 555 79395;
0171029650999992000012809004+60970+025630FM-12+008499999V0209999C000010300019N0080001N1-00551-00621098951ADDAY121031AY221031GF107991041071008001021001MA1999999097951MD1210151+9999MW1101REMSYN082AAXX  28094 02965 41558 70000 11055 21062 39795 49895 52015 71022 84720 555 795//;
0171029650999992000012812004+60970+025630FM-12+008499999V0203101N001010750019N0150001N1-00291-00461099001ADDAY121061AY221061GF106991021051008001031041MA1999999098011MD1210051+9999MW1011REMSYN082AAXX  28124 02965 42565 63102 11029 21046 39801 49900 52005 70122 82534 555 788//;
0123029650999992000012815004+60970+025630FM-12+008499999V0203001N000519999999N9999999N1-00471-00681099261ADDMA1999999098261MD1210251+9999REMSYN082AAXX  28154 02965 46/// /3001 11047 21068 39826 49926 52025 91439 555 785// 0/403;
0282029650999992000012818004+60970+025630FM-12+008499999V0209999C000012200019N0070001N1-00841-00971099501ADDAA199000091AJ100189199999999AY111061AY211061GA1001+999999999GF100991001001999999001001IA1239KA1120M-00261KA2120N-00851MA1999999098481MD1210221+9999MW1101REMSYN098AAXX  28184 02965 31957 00000 11084 21097 39848 49950 52022 71011 333 11026 21085 47018 555 790//;EQDQ01  00002PRCP99
0123029650999992000012821004+60970+025630FM-12+008499999V0209999C000019999999N9999999N1-01651-01861099631ADDMA1999999098581MD1210101+9999REMSYN082AAXX  28214 02965 46/// /0000 11165 21186 39858 49963 52010 92039 555 784// 0/600;
0123029650999992000012900004+60970+025630FM-12+008499999V0209999C000019999999N9999999N1-01511-01651099671ADDMA1999999098631MD1210041+9999REMSYN082AAXX  29004 02965 46/// /0000 11151 21165 39863 49967 52004 92339 555 789// 0/600;
0171029650999992000012903004+60970+025630FM-12+008499999V0209999C000010300019N0100001N1-01341-01501099521ADDAY121031AY221031GF105991021071008001031001MA1999999098481MD1710141+9999MW1021REMSYN082AAXX  29034 02965 42560 50000 11134 21150 39848 49952 57014 70222 82730 555 788//;
0290029650999992000012906004+60970+025630FM-12+008499999V0209999C000010300019N0080001N1-01021-01121099371ADDAA199000091AJ100189199999999AY121061AY221061GF106991031071008001031001IA1239IA2999-02209KA1120M-00841KA2120N-01651MA1999999098351MD1710141+9999MW1101REMSYN110AAXX  29064 02965 31558 60000 11102 21112 39835 49937 57014 71022 83730 333 11084 21165 3/122 47018 555 7926/;EQDQ01  00002PRCP99
0171029650999992000012909004+60970+025630FM-12+008499999V0201601N001010300019N0080001N1-00421-00471099031ADDAY121031AY221031GF108991041071008001021999MA1999999098031MD1710321+9999MW1101REMSYN082AAXX  29094 02965 41558 81602 11042 21047 39803 49903 57032 71022 8472/ 555 796//;
0171029650999992000012912004+60970+025630FM-12+008499999V0201501N001510300019N0035001N1-00331-00401098571ADDAY171061AY221061GF108991041071004501021999MA1999999097581MD1710451+9999MW1711REMSYN082AAXX  29124 02965 41435 81503 11033 21040 39758 49857 57045 77172 8472/ 555 795//;
0123029650999992000012915004+60970+025630FM-12+008499999V0201601N002119999999N9999999N1-00091-00151098091ADDMA1999999097121MD1710461+9999REMSYN082AAXX  29154 02965 46/// /1604 11009 21015 39712 49809 57046 91439 555 796// 0/504;
0259029650999992000012918004+60970+025630FM-12+008499999V0201601N003110300019N0025001N1+00031-00031097611ADDAA112002091AJ100209199999999AY131061AY221061GF108991041071004501021999IA1279KA1120M+00031KA2120N-01001MA1999999096641MD1710481+9999MW1381REMSYN110AAXX  29184 02965 11425 81606 10003 21003 39664 49761 57048 60022 73832 8472/ 333 10003 21100 43020 555 796/7;
0123029650999992000012921004+60970+025630FM-12+008499999V0201601N002619999999N9999999N1-00041-00081097061ADDMA1999999096101MD1710551+9999REMSYN082AAXX  29214 02965 46/// /1605 11004 21008 39610 49706 57055 92039 555 797// 0/607;
0123029650999992000013000004+60970+025630FM-12+008499999V0201601N003119999999N9999999N1-00031-00071096661ADDMA1999999095701MD1710401+9999REMSYN082AAXX  30004 02965 46/// /1606 11003 21007 39570 49666 57040 92339 555 797// 0/506;
0171029650999992000013003004+60970+025630FM-12+008499999V0201701N002110042019N0010001N1-00021-00061096551ADDAY131031AY221031GF108991051071004501021999MA1999999095591MD1710111+9999MW1381REMSYN082AAXX  30034 02965 41410 81704 11002 21006 39559 49655 57011 73832 8572/ 555 797//;
0277029650999992000013006004+60970+025630FM-12+008499999V0201701N002110042019N0025001N1+00081+00041096511ADDAA112008991AJ100269199999999AY131061AY221061GF108991051071004501021999IA1279IA2999-00109KA1120M+00081KA2120N-00021MA1999999095561MD1710031+9999MW1381REMSYN116AAXX  30064 02965 11425 81704 10008 20004 39556 49651 57003 60092 73832 8572/ 333 10008 21002 3/101 43026 555 79750;
0171029650999992000013009004+60970+025630FM-12+008499999V0201601N002110042019N0025001N1+00061+00021096511ADDAY131031AY221031GF108991051071004501021999MA1999999095551MD1410001+9999MW1381REMSYN082AAXX  30094 02965 41425 81604 10006 20002 39555 49651 54000 73832 8572/ 555 797//;
0171029650999992000013012004+60970+025630FM-12+008499999V0201601N001510042019N0010001N1+00051-00011096461ADDAY131061AY221061GF108991051071004501021999MA1999999095511MD1710051+9999MW1381REMSYN082AAXX  30124 02965 41410 81603 10005 21001 39551 49646 57005 73832 8572/ 555 796//;
0123029650999992000013015004+60970+025630FM-12+008499999V0201901N001519999999N9999999N1+00011-00041096611ADDMA1999999095651MD1210151+9999REMSYN082AAXX  30154 02965 46/// /1903 10001 21004 39565 49661 52015 91439 555 797// 0/604;
0259029650999992000013018004+60970+025630FM-12+008499999V0202901N003110042019N0010001N1-00051-00241096971ADDAA112003091AJ100249199999999AY131061AY221061GF108991051071004501021999IA1279KA1120M+00131KA2120N-00071MA1999999096011MD1210361+9999MW1381REMSYN110AAXX  30184 02965 11410 82906 11005 21024 39601 49697 52036 60032 73832 8572/ 333 10013 21007 43024 555 787/4;
0123029650999992000013021004+60970+025630FM-12+008499999V0203001N002619999999N9999999N1-00221-00481097541ADDMA1999999096571MD1210561+9999REMSYN082AAXX  30214 02965 46/// /3005 11022 21048 39657 49754 52056 92039 555 782// 0/607;
0123029650999992000013100004+60970+025630FM-12+008499999V0202901N002619999999N9999999N1-00421-00801098101ADDMA1999999097111MD1210541+9999REMSYN082AAXX  31004 02965 46/// /2905 11042 21080 39711 49810 52054 92339 555 775// 0/606;
0181029650999992000013103004+60970+025630FM-12+008499999V0202901N002112200019N0150001N1-00561-01231098471ADDAY101031AY201031GA1001+999999999GF100991001001999999001001MA1999999097481MD1210371+9999MW1021REMSYN076AAXX  31034 02965 42965 02904 11056 21123 39748 49847 52037 70200 555 759//;
0287029650999992000013106004+60970+025630FM-12+008499999V0202701N001012200019N0150001N1-00701-01191098711ADDAA112000191AJ100259199999999AY101061AY201061GA1001+999999999GF100991001001999999001001IA1279IA2999-01009KA1120M-00051KA2120N-00701MA1999999097711MD1210231+9999MW1021REMSYN110AAXX  31064 02965 12965 02702 11070 21119 39771 49871 52023 69922 70200 333 11005 21070 3/110 43025 555 76872;
0181029650999992000013109004+60970+025630FM-12+008499999V0202701N001512200019N0200001N1-00621-01191098971ADDAY101031AY201031GA1001+999999999GF100991001001999999001001MA1999999097971MD1210261+9999MW1021REMSYN076AAXX  31094 02965 42970 02703 11062 21119 39797 49897 52026 70200 555 764//;
0171029650999992000013112004+60970+025630FM-12+008499999V0202901N001512200019N0300001N1-00461-01221099201ADDAY101061AY201061GF101991011041012501001001MA1999999098201MD1210231+9999MW1031REMSYN082AAXX  31124 02965 42680 12903 11046 21122 39820 49920 52023 70300 81400 555 755//;
0123029650999992000013115004+60970+025630FM-12+008499999V0202101N000519999999N9999999N1-00701-01091099351ADDMA1999999098351MD1210151+9999REMSYN082AAXX  31154 02965 46/// /2101 11070 21109 39835 49935 52015 91439 555 774// 0/603;
0272029650999992000013118004+60970+025630FM-12+008499999V0202101N001012200019N0100001N1-00701-01081099431ADDAA199000091AJ100259199999999AY101061AY201061GF102991001001999999001061IA1279KA1120M-00431KA2120N-00811MA1999999098421MD1210071+9999MW1031REMSYN104AAXX  31184 02965 32960 22102 11070 21108 39842 49943 52007 70300 80006 333 11043 21081 43025 555 774//;EQDQ01  00002PRCP99
0123029650999992000013121004+60970+025630FM-12+008499999V0202201N002119999999N9999999N1-00561-00811099211ADDMA1999999098211MD1710201+9999REMSYN082AAXX  31214 02965 46/// /2204 11056 21081 39821 49921 57020 92039 555 782// 0/304;
0123029650999992000020100004+60970+025630FM-12+008499999V0202601N002119999999N9999999N1-00421-00831099231ADDMA1999999098231MD1410001+9999REMSYN082AAXX  01004 02965 46/// /2604 11042 21083 39823 49923 54002 92339 555 773// 0/405;
0181029650999992000020103004+60970+025630FM-12+008499999V0202601N002112200019N0150001N1-00401-00901099311ADDAY101031AY201031GA1001+999999999GF100991001001999999001001MA1999999098311MD1210091+9999MW1021REMSYN076AAXX  01034 02965 42965 02604 11040 21090 39831 49931 52009 70200 555 768//;
0300029650999992000020106004+60970+025630FM-12+008499999V0202701N001512200019N0150001N1-00341-00771099501ADDAA199000091AJ100259199999999AY101061AY201061GA1001+999999999GF100991001001999999001001IA1279IA2999-00909KA1120M-00301KA2120N-00701MA1999999098501MD1210191+9999MW1021REMSYN104AAXX  01064 02965 32965 02703 11034 21077 39850 49950 52019 70200 333 11030 21070 3/109 43025 555 7721/;EQDQ01  00002PRCP99
0171029650999992000020109004+60970+025630FM-12+008499999V0202701N002112200019N0250001N1-00191-00761099701ADDAY101031AY201031GF101991001001999999001051MA1999999098711MD1210211+9999MW1011REMSYN082AAXX  01094 02965 42975 12704 11019 21076 39871 49970 52021 70100 80005 555 765//;
0171029650999992000020112004+60970+025630FM-12+008499999V0202801N002112200019N0300001N1-00031-00591099861ADDAY101061AY201061GF103991021041012501001091MA1999999098881MD1210171+9999MW1031REMSYN082AAXX  01124 02965 42680 32804 11003 21059 39888 49986 52017 70300 82409 555 766//;
0123029650999992000020115004+60970+025630FM-12+008499999V0202401N001019999999N9999999N1-00221-00551099921ADDMA1999999098921MD1210051+9999REMSYN082AAXX  01154 02965 46/// /2402 11022 21055 39892 49992 52005 91439 555 778// 0/605;
0282029650999992000020118004+60970+025630FM-12+008499999V0202301N000512200019N0100001N1-00391-00651099881ADDAA199000091AJ100259199999999AY101061AY201061GA1001+999999999GF100991001001999999001001IA1279KA1120M+00031KA2120N-00401MA1999999098881MD1710051+9999MW1011REMSYN098AAXX  01184 02965 32960 02301 11039 21065 39888 49988 57005 70100 333 10003 21040 43025 555 782//;EQDQ01  00002PRCP99
0123029650999992000020121004+60970+025630FM-12+008499999V0209999C000019999999N9999999N1-00781-00931099771ADDMA1999999098751MD1710121+9999REMSYN082AAXX  01214 02965 46/// /0000 11078 21093 39875 49977 57012 92039 555 789// 0/601;
0123029650999992000020200004+60970+025630FM-12+008499999V0209999C000019999999N9999999N1-00601-00681099471ADDMA1999999098461MD1710291+9999REMSYN082AAXX  02004 02965 46/// /0000 11060 21068 39846 49947 57029 92339 555 794// 0/401;
0171029650999992000020203004+60970+025630FM-12+008499999V0201501N000510300019N0060001N1-00641-00691099141ADDAY121031AY221031GF108991041071004501021999MA1999999098131MD1710331+9999MW1101REMSYN082AAXX  02034 02965 41456 81501 11064 21069 39813 49914 57033 71022 8472/ 555 796//;
0277029650999992000020206004+60970+025630FM-12+008499999V0200201N000510300019N0005001N1-00591-00671098831ADDAA112000591AJ100269199999999AY171061AY221061GF108991041071004501021999IA1279IA2999-01609KA1120M-00401KA2120N-01041MA1999999097831MD1710301+9999MW1751REMSYN116AAXX  02064 02965 11405 80201 11059 21067 39783 49883 57030 69952 77572 8472/ 333 11040 21104 3/116 43026 555 79405;
0171029650999992000020209004+60970+025630FM-12+008499999V0209999C000010300019N0025001N1-00501-00571098651ADDAY171031AY221031GF108991041071004501021999MA1999999097651MD1710171+9999MW1711REMSYN082AAXX  02094 02965 41425 80000 11050 21057 39765 49865 57017 77172 8472/ 555 795//;
0171029650999992000020212004+60970+025630FM-12+008499999V0209999C000010300019N0030001N1-00461-00581098601ADDAY171061AY221061GF108991041071008001021061MA1999999097611MD1710041+9999MW1711REMSYN082AAXX  02124 02965 41530 80000 11046 21058 39761 49860 57004 77172 84726 555 791//;
0123029650999992000020215004+60970+025630FM-12+008499999V0203401N000519999999N9999999N1-00491-00631098641ADDMA1999999097641MD1210031+9999REMSYN082AAXX  02154 02965 46/// /3401 11049 21063 39764 49864 52003 91439 555 790// 0/601;
0259029650999992000020218004+60970+025630FM-12+008499999V0209999C000010300019N0060001N1-00571-00691098731ADDAA112002091AJ100289199999999AY171061AY221061GF107991041071004501071001IA1239KA1120M-00401KA2120N-00591MA1999999097731MD1210091+9999MW1101REMSYN110AAXX  02184 02965 11456 70000 11057 21069 39773 49873 52009 60022 71072 84770 333 11040 21059 47028 555 791/1;
0123029650999992000020221004+60970+025630FM-12+008499999V0209999C000019999999N9999999N1-01031-01181098901ADDMA1999999097881MD1210161+9999REMSYN082AAXX  02214 02965 46/// /0000 11103 21118 39788 49890 52016 92039 555 788// 0/501;
0123029650999992000020300004+60970+025630FM-12+008499999V0203101N000519999999N9999999N1-00821-00951099021ADDMA1999999098011MD1210121+9999REMSYN082AAXX  03004 02965 46/// /3101 11082 21095 39801 49902 52012 92339 555 790// 0/403;
0171029650999992000020303004+60970+025630FM-12+008499999V0203301N001010300019N0080001N1-00811-00961099221ADDAY121031AY221031GF107991041071008001021001MA1999999098201MD1210201+9999MW1101REMSYN082AAXX  03034 02965 41558 73302 11081 21096 39820 49922 52020 71022 84720 555 789//;
0171029650999992000020312004+60970+025630FM-12+008499999V0202901N001012200019N0250001N1-00751-01131099971ADDAY101061AY201061GF102991001001999999001041MA1999999098961MD1210231+9999MW1011REMSYN082AAXX  03124 02965 42975 22902 11075 21113 39896 49997 52023 70100 80004 555 774//;
0123029650999992000020315004+60970+025630FM-12+008499999V0202801N001019999999N9999999N1-00801-01021100311ADDMA1999999099291MD1210331+9999REMSYN082AAXX  03154 02965 46/// /2802 11080 21102 39929 40031 52033 91439 555 784// 0/603;
0282029650999992000020318004+60970+025630FM-12+008499999V0203201N001512200019N0100001N1-00711-00981100631ADDAA199000091AJ100279199999999AY101061AY201061GA1001+999999999GF100991001001999999001001IA1239KA1120M-00661KA2120N-01041MA1999999099601MD1210321+9999MW1011REMSYN098AAXX  03184 02965 32960 03203 11071 21098 39960 40063 52032 70100 333 11066 21104 47027 555 781//;EQDQ01  00002PRCP99
0123029650999992000020321004+60970+025630FM-12+008499999V0203101N000519999999N9999999N1-00901-01101100931ADDMA1999999099901MD1210291+9999REMSYN082AAXX  03214 02965 46/// /3101 11090 21110 39990 40093 52029 92039 555 785// 0/604;
0123029650999992000020400004+60970+025630FM-12+008499999V0203001N000519999999N9999999N1-01061-01221101111ADDMA1999999100071MD1210171+9999REMSYN082AAXX  04004 02965 46/// /3001 11106 21122 30007 40111 52017 92339 555 788// 0/403;
0181029650999992000020403004+60970+025630FM-12+008499999V0209999C000012200019N0100001N1-01631-01861101081ADDAY101031AY201031GA1001+999999999GF100991001001999999001001MA1999999100021MD1710051+9999MW1021REMSYN076AAXX  04034 02965 42960 00000 11163 21186 30002 40108 57005 70200 555 782//;
0290029650999992000020406004+60970+025630FM-12+008499999V0209999C000012200019N0080001N1-01641-01791100671ADDAA199000091AJ100279199999999AY101061AY201061GF102991011001999999021041IA1239IA2999-02209KA1120M-00681KA2120N-01671MA1999999099601MD1710411+9999MW1101REMSYN110AAXX  04064 02965 31958 20000 11164 21179 39960 40067 57041 71000 81024 333 11068 21167 3/122 47027 555 7883/;EQDQ01  00002PRCP99
0171029650999992000020409004+60970+025630FM-12+008499999V0201701N001010042019N0015001N1-00491-00561099981ADDAY171031AY211031GF108991051071004501021999MA1999999098971MD1710631+9999MW1731REMSYN082AAXX  04094 02965 41415 81702 11049 21056 39897 49998 57063 77371 8572/ 555 795//;
0171029650999992000020412004+60970+025630FM-12+008499999V0202201N001510042019N0035001N1-00061-00141099381ADDAY171061AY211061GF108991051071004501021999MA1999999098391MD1710581+9999MW1711REMSYN082AAXX  04124 02965 41435 82203 11006 21014 39839 49938 57058 77171 8572/ 555 794//;
0123029650999992000020415004+60970+025630FM-12+008499999V0202501N001019999999N9999999N1+00011-00121099151ADDMA1999999098171MD1710231+9999REMSYN082AAXX  04154 02965 46/// /2502 10001 21012 39817 49915 57023 91439 555 791// 0/603;
0269029650999992000020418004+60970+025630FM-12+008499999V0202601N001012200019N0070001N1+00011-00151098961ADDAA112002091AJ100289199999999AY171061AY211061GA1001+999999999GF100991001001999999001001IA1239KA1120M+00141KA2120N-01581MA1999999097981MD1710191+9999MW1101REMSYN104AAXX  04184 02965 11957 02602 10001 21015 39798 49896 57019 60022 71071 333 10014 21158 47028 555 789/2;
0123029650999992000020421004+60970+025630FM-12+008499999V0202801N001519999999N9999999N1-00051-00291098931ADDMA1999999097951MD1710031+9999REMSYN082AAXX  04214 02965 46/// /2803 11005 21029 39795 49893 57003 92039 555 784// 0/004;
0123029650999992000020500004+60970+025630FM-12+008499999V0202901N002119999999N9999999N1-00091-00351099041ADDMA1999999098051MD1210101+9999REMSYN082AAXX  05004 02965 46/// /2904 11009 21035 39805 49904 52010 92339 555 783// 0/204;
0171029650999992000020503004+60970+025630FM-12+008499999V0203201N001510300019N0150001N1-00061-00561099341ADDAY121031AY221031GF106991021051008001081001MA1999999098351MD1210301+9999MW1021REMSYN082AAXX  05034 02965 42565 63203 11006 21056 39835 49934 52030 70222 82580 555 769//;
0290029650999992000020506004+60970+025630FM-12+008499999V0203301N002112200019N0150001N1-00091-00601099801ADDAA199000091AJ100279199999999AY111061AY211061GF103991031001999999081001IA1239IA2999-00409KA1120M+00021KA2120N-00121MA1999999098801MD1210451+9999MW1011REMSYN110AAXX  05064 02965 32965 33304 11009 21060 39880 49980 52045 70111 83080 333 10002 21012 3/104 47027 555 7681/;EQDQ01  00002PRCP99
0171029650999992000020509004+60970+025630FM-12+008499999V0203201N002112200019N0200001N1-00221-00811100281ADDAY101031AY201031GF101991001001999999001011MA1999999099281MD1210471+9999MW1011REMSYN082AAXX  05094 02965 42970 13204 11022 21081 39928 40028 52047 70100 80001 555 764//;
0171029650999992000020512004+60970+025630FM-12+008499999V0203101N001012200019N0250001N1-00161-00851100611ADDAY101061AY201061GF104991001001999999001071MA1999999099611MD1210341+9999MW1031REMSYN082AAXX  05124 02965 42975 43102 11016 21085 39961 40061 52034 70300 80007 555 759//;
0123029650999992000020515004+60970+025630FM-12+008499999V0202901N000519999999N9999999N1-00351-00771100931ADDMA1999999099921MD1210311+9999REMSYN082AAXX  05154 02965 46/// /2901 11035 21077 39992 40093 52031 91439 555 773// 0/503;
0272029650999992000020518004+60970+025630FM-12+008499999V0209999C000010300019N0080001N1-00841-01061101041ADDAA199000091AJ100279199999999AY111061AY211061GF105991021051008001031001IA1239KA1120M-00091KA2120N-00881MA1999999100001MD1210081+9999MW1101REMSYN104AAXX  05184 02965 31558 50000 11084 21106 30000 40104 52008 71011 82530 333 11009 21088 47027 555 784//;EQDQ01  00002PRCP99
0123029650999992000020521004+60970+025630FM-12+008499999V0209999C000019999999N9999999N1-00761-00891101051ADDMA1999999100021MD1210021+9999REMSYN082AAXX  05214 02965 46/// /0000 11076 21089 30002 40105 52002 92039 555 791// 0/500;
0123029650999992000020600004+60970+025630FM-12+008499999V0209999C000019999999N9999999N1-00801-00921101011ADDMA1999999099981MD1710041+9999REMSYN082AAXX  06004 02965 46/// /0000 11080 21092 39998 40101 57004 92339 555 791// 0/200;
0171029650999992000020603004+60970+025630FM-12+008499999V0209999C000010300019N0060001N1-00591-00711100791ADDAY121031AY221031GF107991041071008001021999MA1999999099771MD1710211+9999MW1101REMSYN082AAXX  06034 02965 41556 70000 11059 21071 39977 40079 57021 71022 8472/ 555 791//;
0300029650999992000020606004+60970+025630FM-12+008499999V0201601N001012200019N0080001N1-00301-00401100451ADDAA199000091AJ100279199999999AY111061AY211061GA1001+999999999GF100991001001999999001001IA1239IA2999-01109KA1120M-00281KA2120N-00851MA1999999099451MD1710331+9999MW1101REMSYN104AAXX  06064 02965 31958 01602 11030 21040 39945 40045 57033 71011 333 11028 21085 3/111 47027 555 7935/;EQDQ01  00002PRCP99
0171029650999992000020609004+60970+025630FM-12+008499999V0201701N001010042019N0015001N1-00131-00171100111ADDAY151031AY221031GF108991061061004501021999MA1999999099111MD1710331+9999MW1571REMSYN082AAXX  06094 02965 41415 81702 11013 21017 39911 40011 57033 75752 8662/ 555 797//;
0171029650999992000020612004+60970+025630FM-12+008499999V0201801N001510042019N0020001N1+00001-00031099731ADDAY151061AY211061GF108991061061004501021999MA1999999098741MD1710381+9999MW1511REMSYN082AAXX  06124 02965 41420 81803 10000 21003 39874 49973 57038 75151 8662/ 555 798//;
0123029650999992000020615004+60970+025630FM-12+008499999V0202001N001019999999N9999999N1+00171+00131099401ADDMA1999999098421MD1710321+9999REMSYN082AAXX  06154 02965 46/// /2002 10017 20013 39842 49940 57032 91439 555 797// 0/603;
0259029650999992000020618004+60970+025630FM-12+008499999V0202801N002112200019N0070001N1+00301+00111099481ADDAA112001091AJ100269199999999AY151061AY211061GF103991031001999999081001IA1279KA1120M+00331KA2120N-00301MA1999999098501MD1210081+9999MW1101REMSYN110AAXX  06184 02965 11957 32804 10030 20011 39850 49948 52008 60012 71051 83080 333 10033 21030 43026 555 787/2;
0123029650999992000020621004+60970+025630FM-12+008499999V0202701N002119999999N9999999N1+00201-00011099791ADDMA1999999098811MD1210311+9999REMSYN082AAXX  06214 02965 46/// /2704 10020 21001 39881 49979 52031 92039 555 786// 0/205;
0123029650999992000020700004+60970+025630FM-12+008499999V0202801N001519999999N9999999N1+00161-00111100091ADDMA1999999099101MD1210301+9999REMSYN082AAXX  07004 02965 46/// /2803 10016 21011 39910 40009 52030 92339 555 782// 0/304;
0181029650999992000020703004+60970+025630FM-12+008499999V0202801N001012200019N0080001N1+00001-00301100221ADDAY101031AY201031GA1001+999999999GF100991001001999999001001MA1999999099221MD1210121+9999MW1101REMSYN076AAXX  07034 02965 41958 02802 10000 21030 39922 40022 52012 71000 555 780//;
0290029650999992000020706004+60970+025630FM-12+008499999V0202001N000512200019N0080001N1-00351-00451100251ADDAA199000091AJ100269199999999AY111061AY211061GF105991021051008001071091IA1279IA2999-01109KA1120M-00301KA2120N-00361MA1999999099251MD1210021+9999MW1101REMSYN110AAXX  07064 02965 31558 52001 11035 21045 39925 40025 52002 71011 82579 333 11030 21036 3/111 43026 555 7939/;EQDQ01  00002PRCP99
0171029650999992000020709004+60970+025630FM-12+008499999V0201701N000510300019N0100001N1-00181-00251100091ADDAY121031AY221031GF106991021051008001081091MA1999999099101MD1710151+9999MW1031REMSYN082AAXX  07094 02965 42560 61701 11018 21025 39910 40009 57015 70322 82589 555 795//;
0171029650999992000020712004+60970+025630FM-12+008499999V0201801N001510075019N0060001N1+00061-00011099861ADDAY121061AY221061GF108991061071008001021999MA1999999098871MD1710221+9999MW1101REMSYN082AAXX  07124 02965 41556 81803 10006 21001 39887 49986 57022 71022 8672/ 555 795//;
0123029650999992000020715004+60970+025630FM-12+008499999V0201601N001519999999N9999999N1+00071+00021099441ADDMA1999999098461MD1710411+9999REMSYN082AAXX  07154 02965 46/// /1603 10007 20002 39846 49944 57041 91439 555 797// 0/503;
0259029650999992000020718004+60970+025630FM-12+008499999V0201801N001510042019N0050001N1+00231+00191099041ADDAA112002091AJ100269199999999AY161061AY221061GF108991061071004501021999IA1279KA1120M+00231KA2120N-00571MA1999999098061MD1710401+9999MW1211REMSYN110AAXX  07184 02965 11450 81803 10023 20019 39806 49904 57040 60022 72162 8672/ 333 10023 21057 43026 555 797/7;
0123029650999992000020721004+60970+025630FM-12+008499999V0201901N001019999999N9999999N1+00161+00101098801ADDMA1999999097821MD1710241+9999REMSYN082AAXX  07214 02965 46/// /1902 10016 20010 39782 49880 57024 92039 555 795// 0/304;
0123029650999992000020800004+60970+025630FM-12+008499999V0201901N001019999999N9999999N1+00171+00091098671ADDMA1999999097701MD1710121+9999REMSYN082AAXX  08004 02965 46/// /1902 10017 20009 39770 49867 57012 92339 555 794// 0/103;
0171029650999992000020803004+60970+025630FM-12+008499999V0201901N001510042019N0050001N1+00131+00031098531ADDAY121031AY221031GF108991051071004501021999MA1999999097561MD1710141+9999MW1101REMSYN082AAXX  08034 02965 41450 81903 10013 20003 39756 49853 57014 71022 8572/ 555 793//;
0277029650999992000020806004+60970+025630FM-12+008499999V0202001N001010300019N0070001N1+00141+00051098481ADDAA112001091AJ100259199999999AY161061AY221061GF107991041071004501021001IA1279IA2999+00109KA1120M+00241KA2120N+00131MA1999999097511MD1710041+9999MW1101REMSYN116AAXX  08064 02965 11457 72002 10014 20005 39751 49848 57004 60012 71062 84720 333 10024 20013 3/001 43025 555 79461;
0171029650999992000020809004+60970+025630FM-12+008499999V0202201N001510300019N0100001N1+00131-00051098541ADDAY121031AY221031GF108991041071004501021999MA1999999097571MD1210061+9999MW1031REMSYN082AAXX  08094 02965 42460 82203 10013 21005 39757 49854 52006 70322 8472/ 555 788//;
0171029650999992000020812004+60970+025630FM-12+008499999V0202201N001010042019N0100001N1+00181-00141098511ADDAY151061AY221061GF108991051071004501021999MA1999999097551MD1710031+9999MW1021REMSYN082AAXX  08124 02965 41460 82202 10018 21014 39755 49851 57003 70252 8572/ 555 779//;
0123029650999992000020815004+60970+025630FM-12+008499999V0202001N001019999999N9999999N1+00181-00021098521ADDMA1999999097551MD1410001+9999REMSYN082AAXX  08154 02965 46/// /2002 10018 21002 39755 49852 54000 91439 555 787// 0/503;
0259029650999992000020818004+60970+025630FM-12+008499999V0201901N001010042019N0040001N1+00131+00071098461ADDAA112000191AJ100229199999999AY121061AY221061GF108991051071004501021999IA1279KA1120M+00241KA2120N+00111MA1999999097491MD1710061+9999MW1101REMSYN110AAXX  08184 02965 11440 81902 10013 20007 39749 49846 57006 69922 71022 8572/ 333 10024 20011 43022 555 796/2;
0123029650999992000020821004+60970+025630FM-12+008499999V0201701N000519999999N9999999N1+00051+00001098421ADDMA1999999097451MD1710041+9999REMSYN082AAXX  08214 02965 46/// /1701 10005 21000 39745 49842 57004 92039 555 797// 0/602;
0123029650999992000020900004+60970+025630FM-12+008499999V0209999C000019999999N9999999N1+00011-00031098431ADDMA1999999097461MD1410001+9999REMSYN082AAXX  09004 02965 46/// /0000 10001 21003 39746 49843 54001 92339 555 797// 0/501;
0171029650999992000020903004+60970+025630FM-12+008499999V0209999C000010042019N0060001N1-00051-00091098431ADDAY121031AY221031GF108991051071004501021999MA1999999097451MD1410001+9999MW1101REMSYN082AAXX  09034 02965 41456 80000 11005 21009 39745 49843 54001 71022 8572/ 555 797//;
0171029650999992000020909004+60970+025630FM-12+008499999V0209999C000010042019N0070001N1-00011-00081098721ADDAY121031AY221031GF108991051071004501021999MA1999999097741MD1210201+9999MW1101REMSYN082AAXX  09094 02965 41457 80000 11001 21008 39774 49872 52020 71022 8572/ 555 795//;
0171029650999992000020912004+60970+025630FM-12+008499999V0202301N000510042019N0080001N1+00031-00111098931ADDAY121061AY221061GF108991051071004501021999MA1999999097951MD1210211+9999MW1101REMSYN082AAXX  09124 02965 41458 82301 10003 21011 39795 49893 52021 71022 8572/ 555 790//;
0123029650999992000020915004+60970+025630FM-12+008499999V0209999C000019999999N9999999N1+00041-00061099201ADDMA1999999098221MD1210271+9999REMSYN082AAXX  09154 02965 46/// /0000 10004 21006 39822 49920 52027 91439 555 793// 0/401;
0272029650999992000020918004+60970+025630FM-12+008499999V0202801N000510042019N0080001N1+00081-00031099491ADDAA199000091AJ100209199999999AY121061AY221061GF108991051071004501021999IA1279KA1120M+00081KA2120N-00021MA1999999098511MD1210291+9999MW1101REMSYN104AAXX  09184 02965 31458 82801 10008 21003 39851 49949 52029 71022 8572/ 333 10008 21002 43020 555 792//;EQDQ01  00002PRCP99
0123029650999992000020921004+60970+025630FM-12+008499999V0203101N001019999999N9999999N1-00031-00231099841ADDMA1999999098851MD1210351+9999REMSYN082AAXX  09214 02965 46/// /3102 11003 21023 39885 49984 52035 92039 555 786// 0/202;
0123029650999992000021000004+60970+025630FM-12+008499999V0203001N001019999999N9999999N1-00321-00501100151ADDMA1999999099151MD1210301+9999REMSYN082AAXX  10004 02965 46/// /3002 11032 21050 39915 40015 52030 92339 555 787// 0/102;
0181029650999992000021003004+60970+025630FM-12+008499999V0202901N000512200019N0080001N1-00611-00721100441ADDAY101031AY201031GA1001+999999999GF100991001001999999001001MA1999999099421MD1210271+9999MW1101REMSYN076AAXX  10034 02965 41958 02901 11061 21072 39942 40044 52027 71000 555 792//;
0290029650999992000021006004+60970+025630FM-12+008499999V0202301N000512200019N0080001N1-00871-00991100601ADDAA199000091AJ100209199999999AY101061AY201061GF101991001001999999001041IA1279IA2999-01309KA1120M+00081KA2120N-00901MA1999999099601MD1210181+9999MW1101REMSYN110AAXX  10064 02965 31958 12301 11087 21099 39960 40060 52018 71000 80004 333 10008 21090 3/113 43020 555 7914/;EQDQ01  00002PRCP99
0171029650999992000021009004+60970+025630FM-12+008499999V0209999C000012200019N0150001N1-00401-00511100761ADDAY101031AY201031GF103991031001999999081001MA1999999099751MD1210151+9999MW1031REMSYN082AAXX  10094 02965 42965 30000 11040 21051 39975 40076 52015 70300 83080 555 792//;
0171029650999992000021012004+60970+025630FM-12+008499999V0201901N001512200019N0250001N1-00041-00701100731ADDAY101061AY201061GF103991021001999999081041MA1999999099731MD1410001+9999MW1021REMSYN082AAXX  10124 02965 42975 31903 11004 21070 39973 40073 54001 70200 82084 555 761//;
0123029650999992000021015004+60970+025630FM-12+008499999V0201701N001519999999N9999999N1-00081-00321100551ADDMA1999999099551MD1710181+9999REMSYN082AAXX  10154 02965 46/// /1703 11008 21032 39955 40055 57018 91439 555 784// 0/603;
0272029650999992000021018004+60970+025630FM-12+008499999V0201801N002112200019N0100001N1+00011-00291100331ADDAA199000091AJ100209199999999AY101061AY201061GF103991031001999999081001IA1279KA1120M+00031KA2120N-00931MA1999999099341MD1710211+9999MW1021REMSYN104AAXX  10184 02965 32960 31804 10001 21029 39934 40033 57021 70200 83080 333 10003 21093 43020 555 780//;EQDQ01  00002PRCP99
0123029650999992000021021004+60970+025630FM-12+008499999V0201901N002119999999N9999999N1+00031-00131100101ADDMA1999999099111MD1710231+9999REMSYN082AAXX  10214 02965 46/// /1904 10003 21013 39911 40010 57023 92039 555 789// 0/306;
0123029650999992000021100004+60970+025630FM-12+008499999V0201901N003119999999N9999999N1+00131-00031099821ADDMA1999999098841MD1710271+9999REMSYN082AAXX  11004 02965 46/// /1906 10013 21003 39884 49982 57027 92339 555 789// 0/006;
0171029650999992000021103004+60970+025630FM-12+008499999V0201901N002110042019N0025001N1+00101-00011099571ADDAY171031AY221031GF108991051071004501021999MA1999999098591MD1710251+9999MW1681REMSYN082AAXX  11034 02965 41425 81904 10010 21001 39859 49957 57025 76872 8572/ 555 792//;
0277029650999992000021106004+60970+025630FM-12+008499999V0202001N002110042019N0030001N1+00121+00021099521ADDAA112001091AJ100209199999999AY171061AY261061GF108991051071004501021999IA1279IA2999-00109KA1120M+00181KA2120N+00001MA1999999098541MD1710051+9999MW1611REMSYN116AAXX  11064 02965 11430 82004 10012 20002 39854 49952 57005 60012 76176 8572/ 333 10018 20000 3/101 43020 555 79354;
0171029650999992000021109004+60970+025630FM-12+008499999V0202101N001010042019N0070001N1+00161+00071099641ADDAY121031AY221031GF108991051071004501021999MA1999999098661MD1210121+9999MW1101REMSYN082AAXX  11094 02965 41457 82102 10016 20007 39866 49964 52012 71022 8572/ 555 794//;
0171029650999992000021112004+60970+025630FM-12+008499999V0202301N001510042019N0100001N1+00211-00191099781ADDAY121061AY221061GF108991051071004501021999MA1999999098801MD1210131+9999MW1021REMSYN082AAXX  11124 02965 42460 82303 10021 21019 39880 49978 52013 70222 8572/ 555 775//;
0123029650999992000021115004+60970+025630FM-12+008499999V0202201N001019999999N9999999N1+00191-00151099911ADDMA1999999098931MD1210131+9999REMSYN082AAXX  11154 02965 46/// /2202 10019 21015 39893 49991 52013 91439 555 778// 0/504;
0261029650999992000021118004+60970+025630FM-12+008499999V0202301N002112200019N0100001N1+00151-00211100081ADDAA199000021AJ100209199999999AY111061AY211061GA1001+999999999GF100991001001999999001001IA1279KA1120M+00311KA2120N+00101MA1999999099091MD1210161+9999MW1011REMSYN096AAXX  11184 02965 32960 02304 10015 21021 39909 40008 52016 70111 333 10031 20010 43020 555 777;
0123029650999992000021121004+60970+025630FM-12+008499999V0202401N001019999999N9999999N1-00011-00171100231ADDMA1999999099241MD1210151+9999REMSYN082AAXX  11214 02965 46/// /2402 11001 21017 39924 40023 52015 92039 555 789// 0/604;
0123029650999992000021200004+60970+025630FM-12+008499999V0202401N001519999999N9999999N1+00011-00181100361ADDMA1999999099361MD1210121+9999REMSYN082AAXX  12004 02965 46/// /2403 10001 21018 39936 40036 52012 92339 555 787// 0/003;
0181029650999992000021203004+60970+025630FM-12+008499999V0202701N001012200019N0100001N1+00011-00431100551ADDAY101031AY201031GA1001+999999999GF100991001001999999001001MA1999999099561MD1210191+9999MW1021REMSYN076AAXX  12034 02965 42960 02702 10001 21043 39956 40055 52019 70200 555 772//;
0300029650999992000021206004+60970+025630FM-12+008499999V0202701N001012200019N0150001N1-00081-00501100811ADDAA199000091AJ100209199999999AY101061AY201061GA1001+999999999GF100991001001999999001001IA1279IA2999-00409KA1120M+00141KA2120N-00101MA1999999099801MD1210251+9999MW1021REMSYN104AAXX  12064 02965 32965 02702 11008 21050 39980 40081 52025 70200 333 10014 21010 3/104 43020 555 7735/;EQDQ01  00002PRCP99
0181029650999992000021209004+60970+025630FM-12+008499999V0202301N001012200019N0250001N1+00091-00411100901ADDAY101031AY201031GA1001+999999999GF100991001001999999001001MA1999999099911MD1210101+9999MW1021REMSYN076AAXX  12094 02965 42975 02302 10009 21041 39991 40090 52010 70200 555 769//;
0171029650999992000021212004+60970+025630FM-12+008499999V0202201N001510300019N0150001N1+00191-00221101001ADDAY111061AY211061GF107991041071008001021001MA1999999100001MD1210101+9999MW1031REMSYN082AAXX  12124 02965 42565 72203 10019 21022 30000 40100 52010 70311 84720 555 774//;
0123029650999992000021215004+60970+025630FM-12+008499999V0201801N001019999999N9999999N1+00151-00011101011ADDMA1999999100021MD1410001+9999REMSYN082AAXX  12154 02965 46/// /1802 10015 21001 30002 40101 54002 91439 555 790// 0/503;
0272029650999992000021218004+60970+025630FM-12+008499999V0202001N001010300019N0060001N1+00251+00021100941ADDAA199000091AJ100209199999999AY121061AY221061GF107991041071008001021001IA1279KA1120M+00251KA2120N-00101MA1999999099951MD1710071+9999MW1101REMSYN104AAXX  12184 02965 31556 72002 10025 20002 39995 40094 57007 71022 84720 333 10025 21010 43020 555 785//;EQDQ01  00002PRCP99
0123029650999992000021221004+60970+025630FM-12+008499999V0201901N001519999999N9999999N1+00171-00021100851ADDMA1999999099861MD1710091+9999REMSYN082AAXX  12214 02965 46/// /1903 10017 21002 39986 40085 57009 92039 555 787// 0/304;
0123029650999992000021300004+60970+025630FM-12+008499999V0201801N001519999999N9999999N1+00141-00041100741ADDMA1999999099751MD1710111+9999REMSYN082AAXX  13004 02965 46/// /1803 10014 21004 39975 40074 57011 92339 555 788// 0/205;
0171029650999992000021303004+60970+025630FM-12+008499999V0201801N001510042019N0070001N1+00161-00151100521ADDAY121031AY221031GF108991051071004501021999MA1999999099531MD1710221+9999MW1101REMSYN082AAXX  13034 02965 41457 81803 10016 21015 39953 40052 57022 71022 8572/ 555 780//;
0290029650999992000021306004+60970+025630FM-12+008499999V0201701N002110042019N0100001N1+00181-00181100261ADDAA199000091AJ100199199999999AY121061AY221061GF108991051071004501021999IA1279IA2999+00109KA1120M+00251KA2120N+00161MA1999999099271MD1710261+9999MW1021REMSYN110AAXX  13064 02965 32460 81704 10018 21018 39927 40026 57026 70222 8572/ 333 10025 20016 3/001 43019 555 7770/;EQDQ01  00002PRCP99
0171029650999992000021309004+60970+025630FM-12+008499999V0201701N002110042019N0150001N1+00101-00331100061ADDAY121031AY221031GF108991051071004501021999MA1999999099071MD1710201+9999MW1021REMSYN082AAXX  13094 02965 42465 81704 10010 21033 39907 40006 57020 70222 8572/ 555 773//;
0171029650999992000021312004+60970+025630FM-12+008499999V0201701N002110021019N0010001N1-00021-00131099881ADDAY171061AY221061GF108991051061002501021999MA1999999098891MD1710181+9999MW1691REMSYN082AAXX  13124 02965 41310 81704 11002 21013 39889 49988 57018 76972 8562/ 555 792//;
0123029650999992000021315004+60970+025630FM-12+008499999V0201701N001019999999N9999999N1-00041-00111099731ADDMA1999999098741MD1710151+9999REMSYN082AAXX  13154 02965 46/// /1702 11004 21011 39874 49973 57015 91439 555 795// 0/604;
0259029650999992000021318004+60970+025630FM-12+008499999V0201801N001010042019N0020001N1+00001-00041099671ADDAA112003091AJ100239199999999AY171061AY221061GF108991051071004501021999IA1279KA1120M+00181KA2120N-00021MA1999999098681MD1710061+9999MW1681REMSYN110AAXX  13184 02965 11420 81802 10000 21004 39868 49967 57006 60032 76872 8572/ 333 10018 21002 43023 555 797/3;
0123029650999992000021321004+60970+025630FM-12+008499999V0201901N000519999999N9999999N1-00031-00101099671ADDMA1999999098681MD1410001+9999REMSYN082AAXX  13214 02965 46/// /1901 11003 21010 39868 49967 54000 92039 555 795// 0/302;
0123029650999992000021400004+60970+025630FM-12+008499999V0201901N000519999999N9999999N1-00011-00081099641ADDMA1999999098661MD1710021+9999REMSYN082AAXX  14004 02965 46/// /1901 11001 21008 39866 49964 57002 92339 555 795// 0/502;
0171029650999992000021403004+60970+025630FM-12+008499999V0201801N001010042019N0015001N1+00011-00061099611ADDAY171031AY221031GF108991051071004501021999MA1999999098631MD1710031+9999MW1691REMSYN082AAXX  14034 02965 41415 81802 10001 21006 39863 49961 57003 76972 8572/ 555 795//;
0277029650999992000021406004+60970+025630FM-12+008499999V0201701N001010042019N0030001N1+00041+00001099611ADDAA112000891AJ100259199999999AY171061AY221061GF108991051071004501021999IA1279IA2999-00109KA1120M+00061KA2120N-00041MA1999999098631MD1410001+9999MW1681REMSYN116AAXX  14064 02965 11430 81702 10004 21000 39863 49961 54000 69972 76872 8572/ 333 10006 21004 3/101 43025 555 79737;
0171029650999992000021409004+60970+025630FM-12+008499999V0202201N000510042019N0060001N1+00021-00041099651ADDAY171031AY221031GF108991051071004501021999MA1999999098671MD1210041+9999MW1231REMSYN082AAXX  14094 02965 41456 82201 10002 21004 39867 49965 52004 72372 8572/ 555 796//;
0171029650999992000021412004+60970+025630FM-12+008499999V0203001N001010300019N0100001N1+00011-00331099861ADDAY171061AY221061GF107991041071008001021999MA1999999098871MD1210211+9999MW1011REMSYN082AAXX  14124 02965 41560 73002 10001 21033 39887 49986 52021 70172 8472/ 555 778//;
0123029650999992000021415004+60970+025630FM-12+008499999V0202701N000519999999N9999999N1-00091-00311100061ADDMA1999999099061MD1210191+9999REMSYN082AAXX  14154 02965 46/// /2701 11009 21031 39906 40006 52019 91439 555 785// 0/203;
0269029650999992000021418004+60970+025630FM-12+008499999V0209999C000012200019N0100001N1-00311-00541100211ADDAA112002091AJ100279199999999AY111061AY211061GA1001+999999999GF100991001001999999001001IA1279KA1120M+00081KA2120N-00341MA1999999099211MD1210151+9999MW1011REMSYN104AAXX  14184 02965 12960 00000 11031 21054 39921 40021 52015 60022 70111 333 10008 21034 43027 555 784/2;
0123029650999992000021421004+60970+025630FM-12+008499999V0209999C000019999999N9999999N1-00481-00551100281ADDMA1999999099271MD1210061+9999REMSYN082AAXX  14214 02965 46/// /0000 11048 21055 39927 40028 52006 92039 555 795// 0/101;
0123029650999992000021500004+60970+025630FM-12+008499999V0209999C000019999999N9999999N1-00291-00381100331ADDMA1999999099331MD1210051+9999REMSYN082AAXX  15004 02965 46/// /0000 11029 21038 39933 40033 52005 92339 555 794// 0/301;
0171029650999992000021503004+60970+025630FM-12+008499999V0202601N001010075019N0080001N1-00301-00411100351ADDAY121031AY221031GF108991051071008001021999MA1999999099341MD1410001+9999MW1101REMSYN082AAXX  15034 02965 41558 82602 11030 21041 39934 40035 54002 71022 8572/ 555 792//;
0290029650999992000021506004+60970+025630FM-12+008499999V0202501N001010075019N0080001N1-00311-00391100381ADDAA199000091AJ100279199999999AY121061AY221061GF108991051071008001021999IA1279IA2999-01409KA1120M-00221KA2120N-00681MA1999999099371MD1210031+9999MW1101REMSYN110AAXX  15064 02965 31558 82502 11031 21039 39937 40038 52003 71022 8572/ 333 11022 21068 3/114 43027 555 7945/;EQDQ01  00002PRCP99
0171029650999992000021509004+60970+025630FM-12+008499999V0202301N001010075019N0100001N1-00321-00461100421ADDAY121031AY221031GF108991051071008001021999MA1999999099421MD1210051+9999MW1021REMSYN082AAXX  15094 02965 42560 82302 11032 21046 39942 40042 52005 70222 8572/ 555 790//;
0171029650999992000021512004+60970+025630FM-12+008499999V0201701N000510300019N0150001N1-00211-00461100351ADDAY121061AY221061GF106991031071008001071041MA1999999099351MD1710071+9999MW1011REMSYN082AAXX  15124 02965 42565 61701 11021 21046 39935 40035 57007 70122 83774 555 783//;
0123029650999992000021515004+60970+025630FM-12+008499999V0201301N000519999999N9999999N1-00301-00451100251ADDMA1999999099251MD1710101+9999REMSYN082AAXX  15154 02965 46/// /1301 11030 21045 39925 40025 57010 91439 555 789// 0/502;
0259029650999992000021518004+60970+025630FM-12+008499999V0201701N000510042019N0030001N1-00211-00281100101ADDAA112000191AJ100269199999999AY171061AY221061GF108991051071004501021999IA1279KA1120M-00121KA2120N-00321MA1999999099101MD1710151+9999MW1711REMSYN110AAXX  15184 02965 11430 81701 11021 21028 39910 40010 57015 69912 77172 8572/ 333 11012 21032 43026 555 795/1;
0123029650999992000021521004+60970+025630FM-12+008499999V0201501N001019999999N9999999N1-00161-00241099991ADDMA1999999099001MD1710101+9999REMSYN082AAXX  15214 02965 46/// /1502 11016 21024 39900 49999 57010 92039 555 795// 0/202;
0123029650999992000021600004+60970+025630FM-12+008499999V0201501N000519999999N9999999N1-00171-00241099861ADDMA1999999098871MD1710131+9999REMSYN082AAXX  16004 02965 46/// /1501 11017 21024 39887 49986 57013 92339 555 795// 0/602;
0171029650999992000021603004+60970+025630FM-12+008499999V0201601N001010042019N0020001N1-00091-00171099761ADDAY171031AY221031GF108991051071004501021999MA1999999098771MD1710101+9999MW1711REMSYN082AAXX  16034 02965 41420 81602 11009 21017 39877 49976 57010 77172 8572/ 555 794//;
0277029650999992000021606004+60970+025630FM-12+008499999V0201501N001010042019N0030001N1-00061-00131099711ADDAA112002091AJ100279199999999AY171061AY221061GF108991051071004501021999IA1239IA2999-00309KA1120M-00051KA2120N-00201MA1999999098721MD1710051+9999MW1711REMSYN116AAXX  16064 02965 11430 81502 11006 21013 39872 49971 57005 60022 77172 8572/ 333 11005 21020 3/103 47027 555 79567;
0171029650999992000021609004+60970+025630FM-12+008499999V0201501N001510042019N0030001N1-00121-00231099711ADDAY171031AY221031GF108991051071004501021999MA1999999098721MD1410001+9999MW1711REMSYN082AAXX  16094 02965 41430 81503 11012 21023 39872 49971 54001 77172 8572/ 555 792//;
0171029650999992000021612004+60970+025630FM-12+008499999V0201301N001010042019N0030001N1-00121-00261099711ADDAY171061AY221061GF108991051071004501021999MA1999999098721MD1410001+9999MW1711REMSYN082AAXX  16124 02965 41430 81302 11012 21026 39872 49971 54001 77172 8572/ 555 790//;
0123029650999992000021615004+60970+025630FM-12+008499999V0201301N001019999999N9999999N1-00121-00231099701ADDMA1999999098711MD1410001+9999REMSYN082AAXX  16154 02965 46/// /1302 11012 21023 39871 49970 54001 91439 555 792// 0/302;
0259029650999992000021618004+60970+025630FM-12+008499999V0201301N000510042019N0025001N1-00101-00181099721ADDAA112002091AJ100279199999999AY171061AY221061GF108991051071004501021999IA1239KA1120M-00051KA2120N-00111MA1999999098731MD1410001+9999MW1711REMSYN110AAXX  16184 02965 11425 81301 11010 21018 39873 49972 54001 60022 77172 8572/ 333 11005 21011 47027 555 794/5;
0123029650999992000021621004+60970+025630FM-12+008499999V0201501N000519999999N9999999N1-00141-00201099781ADDMA1999999098791MD1210061+9999REMSYN082AAXX  16214 02965 46/// /1501 11014 21020 39879 49978 52006 92039 555 795// 0/601;
0123029650999992000021700004+60970+025630FM-12+008499999V0201501N000519999999N9999999N1-00071-00121099831ADDMA1999999098841MD1210051+9999REMSYN082AAXX  17004 02965 46/// /1501 11007 21012 39884 49983 52005 92339 555 796// 0/302;
0171029650999992000021703004+60970+025630FM-12+008499999V0201401N000510042019N0030001N1-00061-00121099831ADDAY171031AY221031GF108991051071004501021999MA1999999098841MD1410001+9999MW1711REMSYN082AAXX  17034 02965 41430 81401 11006 21012 39884 49983 54001 77172 8572/ 555 796//;
0277029650999992000021706004+60970+025630FM-12+008499999V0201201N000510042019N0060001N1+00001-00031099861ADDAA112001091AJ100289199999999AY171061AY221061GF108991051071004501021999IA1279IA2999-00109KA1120M+00001KA2120N-00101MA1999999098871MD1210031+9999MW1101REMSYN116AAXX  17064 02965 11456 81201 10000 21003 39887 49986 52003 60012 71072 8572/ 333 10000 21010 3/101 43028 555 79842;
0171029650999992000021709004+60970+025630FM-12+008499999V0201301N000510042019N0060001N1+00001-00041099861ADDAY171031AY221031GF108991051071004501021999MA1999999098871MD1410001+9999MW1231REMSYN082AAXX  17094 02965 41456 81301 10000 21004 39887 49986 54000 72372 8572/ 555 797//;
