0102029900999992000010100004+60300+020750FM-12+000599999V0202601N002119999999N9999999N1-00211-00451101891ADDMD1210031+9999REMSYN076AAXX  01004 02990 46/// /2604 11021 21045 40189 52003 222// 555 783// 0/605;
0102029900999992000010103004+60300+020750FM-12+000599999V0202501N001019999999N9999999N1-00451-00601101931ADDMD1210041+9999REMSYN076AAXX  01034 02990 46/// /2502 11045 21060 40193 52004 222// 555 789// 0/404;
0144029900999992000010106004+60300+020750FM-12+000599999V0202201N001019999999N9999999N1-00561-00661101871ADDKA1120M-00141KA2120N-00591MD1710061+9999REMSYN092AAXX  01064 02990 46/// /2202 11056 21066 40187 57006 222// 333 11014 21059 555 792// 0/503;
0102029900999992000010109004+60300+020750FM-12+000599999V0201701N001519999999N9999999N1-00561-00681101881ADDMD1210021+9999REMSYN076AAXX  01094 02990 46/// /1703 11056 21068 40188 52002 222// 555 791// 0/305;
0102029900999992000010112004+60300+020750FM-12+000599999V0201301N003119999999N9999999N1-00131-00281101771ADDMD1710111+9999REMSYN076AAXX  01124 02990 46/// /1306 11013 21028 40177 57011 222// 555 789// 0/006;
0102029900999992000010115004+60300+020750FM-12+000599999V0201501N002619999999N9999999N1+00051-00201101761ADDMD1710011+9999REMSYN076AAXX  01154 02990 46/// /1505 10005 21020 40176 57001 222// 555 783// 0/507;
0144029900999992000010118004+60300+020750FM-12+000599999V0201601N003119999999N9999999N1+00081-00031101711ADDKA1120M+00131KA2120N-00631MD1710051+9999REMSYN092AAXX  01184 02990 46/// /1606 10008 21003 40171 57005 222// 333 10013 21063 555 792// 0/207;
0102029900999992000010121004+60300+020750FM-12+000599999V0201801N002619999999N9999999N1+00131+00041101701ADDMD1710011+9999REMSYN076AAXX  01214 02990 46/// /1805 10013 20004 40170 57001 222// 555 794// 0/606;
0102029900999992000010200004+60300+020750FM-12+000599999V0201901N003119999999N9999999N1+00141+00051101711ADDMD1410001+9999REMSYN076AAXX  02004 02990 46/// /1906 10014 20005 40171 54000 222// 555 794// 0/006;
0102029900999992000010203004+60300+020750FM-12+000599999V0202001N003119999999N9999999N1+00141+00051101701ADDMD1710011+9999REMSYN076AAXX  02034 02990 46/// /2006 10014 20005 40170 57001 222// 555 794// 0/607;
0144029900999992000010206004+60300+020750FM-12+000599999V0202001N003619999999N9999999N1+00171+00081101661ADDKA1120M+00191KA2120N+00051MD1710041+9999REMSYN092AAXX  02064 02990 46/// /2007 10017 20008 40166 57004 222// 333 10019 20005 555 794// 0/108;
0102029900999992000010209004+60300+020750FM-12+000599999V0201801N003119999999N9999999N1+00181+00071101561ADDMD1710101+9999REMSYN076AAXX  02094 02990 46/// /1806 10018 20007 40156 57010 222// 555 793// 0/507;
0102029900999992000010212004+60300+020750FM-12+000599999V0201801N004619999999N9999999N1+00251+00111101281ADDMD1710261+9999REMSYN076AAXX  02124 02990 46/// /1809 10025 20011 40128 57026 222// 555 791// 0/109;
0102029900999992000010215004+60300+020750FM-12+000599999V0201801N004619999999N9999999N1+00291+00121100901ADDMD1710371+9999REMSYN076AAXX  02154 02990 46/// /1809 10029 20012 40090 57037 222// 555 789// 0/310;
0144029900999992000010218004+60300+020750FM-12+000599999V0201901N004119999999N9999999N1+00091-00011100531ADDKA1120M+00311KA2120N+00091MD1710361+9999REMSYN092AAXX  02184 02990 46/// /1908 10009 21001 40053 57036 222// 333 10031 20009 555 793// 0/213;
0102029900999992000010221004+60300+020750FM-12+000599999V0202301N004119999999N9999999N1+00131+00051100331ADDMD1710211+9999REMSYN076AAXX  02214 02990 46/// /2308 10013 20005 40033 57021 222// 555 795// 0/609;
0102029900999992000010300004+60300+020750FM-12+000599999V0202901N006219999999N9999999N1+00201+00081100431ADDMD1210101+9999REMSYN076AAXX  03004 02990 46/// /2912 10020 20008 40043 52010 222// 555 792// 0/112;
0102029900999992000010303004+60300+020750FM-12+000599999V0202901N006219999999N9999999N1+00191+00001100701ADDMD1210261+9999REMSYN076AAXX  03034 02990 46/// /2912 10019 21000 40070 52026 222// 555 787// 0/112;
0144029900999992000010306004+60300+020750FM-12+000599999V0202901N005119999999N9999999N1+00161-00031100851ADDKA1120M+00231KA2120N-00021MD1210151+9999REMSYN092AAXX  03064 02990 46/// /2910 10016 21003 40085 52015 222// 333 10023 21002 555 787// 0/513;
0102029900999992000010309004+60300+020750FM-12+000599999V0202801N003619999999N9999999N1+00071-00071100951ADDMD1210091+9999REMSYN076AAXX  03094 02990 46/// /2807 10007 21007 40095 52009 222// 555 790// 0/610;
0102029900999992000010312004+60300+020750FM-12+000599999V0201901N001519999999N9999999N1-00011-00131100871ADDMD1710091+9999REMSYN076AAXX  03124 02990 46/// /1903 11001 21013 40087 57009 222// 555 791// 0/607;
0102029900999992000010315004+60300+020750FM-12+000599999V0201701N002619999999N9999999N1+00001-00111100611ADDMD1710261+9999REMSYN076AAXX  03154 02990 46/// /1705 10000 21011 40061 57026 222// 555 792// 0/105;
0144029900999992000010318004+60300+020750FM-12+000599999V0201701N003619999999N9999999N1+00211+00091100291ADDKA1120M+00221KA2120N-00091MD1710321+9999REMSYN092AAXX  03184 02990 46/// /1707 10021 20009 40029 57032 222// 333 10022 21009 555 792// 0/208;
0102029900999992000010321004+60300+020750FM-12+000599999V0201901N004619999999N9999999N1+00241+00151099941ADDMD1710351+9999REMSYN076AAXX  03214 02990 46/// /1909 10024 20015 49994 57035 222// 555 794// 0/111;
0102029900999992000010400004+60300+020750FM-12+000599999V0202101N005119999999N9999999N1+00171+00081099681ADDMD1710261+9999REMSYN076AAXX  04004 02990 46/// /2110 10017 20008 49968 57026 222// 555 794// 0/510;
0102029900999992000010403004+60300+020750FM-12+000599999V0202201N005119999999N9999999N1+00251+00101099451ADDMD1710231+9999REMSYN076AAXX  04034 02990 46/// /2210 10025 20010 49945 57023 222// 555 790// 0/513;
0144029900999992000010406004+60300+020750FM-12+000599999V0202201N006719999999N9999999N1+00261+00081099141ADDKA1120M+00321KA2120N+00131MD1710301+9999REMSYN092AAXX  04064 02990 46/// /2213 10026 20008 49914 57030 222// 333 10032 20013 555 788// 0/413;
0102029900999992000010409004+60300+020750FM-12+000599999V0202201N005719999999N9999999N1+00271+00051098941ADDMD1710211+9999REMSYN076AAXX  04094 02990 46/// /2211 10027 20005 49894 57021 222// 555 786// 0/614;
0102029900999992000010412004+60300+020750FM-12+000599999V0202401N006219999999N9999999N1+00211+00001098901ADDMD1710061+9999REMSYN076AAXX  04124 02990 46/// /2412 10021 20000 49890 57006 222// 555 786// 0/114;
0102029900999992000010415004+60300+020750FM-12+000599999V0202601N006719999999N9999999N1+00361-00051098931ADDMD1210031+9999REMSYN076AAXX  04154 02990 46/// /2613 10036 21005 49893 52003 222// 555 774// 0/615;
0144029900999992000010418004+60300+020750FM-12+000599999V0202601N009319999999N9999999N1+00361-00231099111ADDKA1120M+00421KA2120N+00131MD1210171+9999REMSYN092AAXX  04184 02990 46/// /2618 10036 21023 49911 52017 222// 333 10042 20013 555 765// 0/219;
0102029900999992000010421004+60300+020750FM-12+000599999V0202701N009319999999N9999999N1+00291-00261099281ADDMD1210161+9999REMSYN076AAXX  04214 02990 46/// /2718 10029 21026 49928 52016 222// 555 767// 0/420;
0102029900999992000010503004+60300+020750FM-12+000599999V0202801N007219999999N9999999N1+00191-00151099761ADDMD1210211+9999REMSYN076AAXX  05034 02990 46/// /2814 10019 21015 49976 52021 222// 555 778// 0/617;
0144029900999992000010506004+60300+020750FM-12+000599999V0202801N006219999999N9999999N1+00131-00141100011ADDKA1120M+00371KA2120N+00091MD1210251+9999REMSYN092AAXX  05064 02990 46/// /2812 10013 21014 40001 52025 222// 333 10037 20009 555 782// 0/615;
0102029900999992000010509004+60300+020750FM-12+000599999V0202701N003619999999N9999999N1+00051-00151100281ADDMD1210261+9999REMSYN076AAXX  05094 02990 46/// /2707 10005 21015 40028 52026 222// 555 786// 0/612;
0102029900999992000010512004+60300+020750FM-12+000599999V0202701N003619999999N9999999N1+00061-00141100541ADDMD1210251+9999REMSYN076AAXX  05124 02990 46/// /2707 10006 21014 40054 52025 222// 555 786// 0/609;
0102029900999992000010515004+60300+020750FM-12+000599999V0202501N002119999999N9999999N1-00161-00331100801ADDMD1210261+9999REMSYN076AAXX  05154 02990 46/// /2504 11016 21033 40080 52026 222// 555 788// 0/607;
0102029900999992000010521004+60300+020750FM-12+000599999V0202401N003619999999N9999999N1-00111-00221101141ADDMD1210171+9999REMSYN076AAXX  05214 02990 46/// /2407 11011 21022 40114 52017 222// 555 792// 0/408;
0102029900999992000010603004+60300+020750FM-12+000599999V0201901N003119999999N9999999N1+00051-00061101131ADDMD1710061+9999REMSYN076AAXX  06034 02990 46/// /1906 10005 21006 40113 57006 222// 555 792// 0/610;
0144029900999992000010606004+60300+020750FM-12+000599999V0202101N005719999999N9999999N1+00181+00031100981ADDKA1120M+00241KA2120N-00171MD1710141+9999REMSYN092AAXX  06064 02990 46/// /2111 10018 20003 40098 57014 222// 333 10024 21017 555 790// 0/011;
0102029900999992000010609004+60300+020750FM-12+000599999V0202001N005119999999N9999999N1+00241+00071100901ADDMD1710081+9999REMSYN076AAXX  06094 02990 46/// /2010 10024 20007 40090 57008 222// 555 789// 0/612;
0102029900999992000010612004+60300+020750FM-12+000599999V0202001N005719999999N9999999N1+00281+00061100711ADDMD1710181+9999REMSYN076AAXX  06124 02990 46/// /2011 10028 20006 40071 57018 222// 555 786// 0/312;
0102029900999992000010615004+60300+020750FM-12+000599999V0202001N006219999999N9999999N1+00391+00201100541ADDMD1710161+9999REMSYN076AAXX  06154 02990 46/// /2012 10039 20020 40054 57016 222// 555 788// 0/214;
0102029900999992000010621004+60300+020750FM-12+000599999V0202001N007219999999N9999999N1+00341+00221100081ADDMD1710201+9999REMSYN076AAXX  06214 02990 46/// /2014 10034 20022 40008 57020 222// 555 792// 0/515;
0102029900999992000010700004+60300+020750FM-12+000599999V0202001N007219999999N9999999N1+00361+00211099921ADDMD1710161+9999REMSYN076AAXX  07004 02990 46/// /2014 10036 20021 49992 57016 222// 555 790// 0/515;
0102029900999992000010703004+60300+020750FM-12+000599999V0202201N006719999999N9999999N1+00321+00181099821ADDMD1710091+9999REMSYN076AAXX  07034 02990 46/// /2213 10032 20018 49982 57009 222// 555 791// 0/216;
0144029900999992000010706004+60300+020750FM-12+000599999V0202501N005719999999N9999999N1+00261+00001100041ADDKA1120M+00421KA2120N+00231MD1210221+9999REMSYN092AAXX  07064 02990 46/// /2511 10026 20000 40004 52022 222// 333 10042 20023 555 783// 0/613;
0102029900999992000010709004+60300+020750FM-12+000599999V0202501N005119999999N9999999N1+00201-00171100351ADDMD1210311+9999REMSYN076AAXX  07094 02990 46/// /2510 10020 21017 40035 52031 222// 555 776// 0/412;
0102029900999992000010712004+60300+020750FM-12+000599999V0202401N004119999999N9999999N1+00171-00201100611ADDMD1210251+9999REMSYN076AAXX  07124 02990 46/// /2408 10017 21020 40061 52025 222// 555 776// 0/410;
0102029900999992000010715004+60300+020750FM-12+000599999V0202301N004619999999N9999999N1+00131-00171100651ADDMD1210041+9999REMSYN076AAXX  07154 02990 46/// /2309 10013 21017 40065 52004 222// 555 780// 0/611;
0144029900999992000010718004+60300+020750FM-12+000599999V0202001N005119999999N9999999N1+00221-00021100451ADDKA1120M+00291KA2120N+00041MD1710191+9999REMSYN092AAXX  07184 02990 46/// /2010 10022 21002 40045 57019 222// 333 10029 20004 555 784// 0/211;
0102029900999992000010721004+60300+020750FM-12+000599999V0202101N007719999999N9999999N1+00251+00001100231ADDMD1710201+9999REMSYN076AAXX  07214 02990 46/// /2115 10025 21000 40023 57020 222// 555 783// 0/416;
0102029900999992000010800004+60300+020750FM-12+000599999V0202101N008719999999N9999999N1+00281+00051100081ADDMD1710161+9999REMSYN076AAXX  08004 02990 46/// /2117 10028 20005 40008 57016 222// 555 785// 0/017;
0102029900999992000010803004+60300+020750FM-12+000599999V0202101N006719999999N9999999N1+00291+00111100011ADDMD1710081+9999REMSYN076AAXX  08034 02990 46/// /2113 10029 20011 40001 57008 222// 555 788// 0/617;
0144029900999992000010806004+60300+020750FM-12+000599999V0202101N007219999999N9999999N1+00301+00121099891ADDKA1120M+00361KA2120N+00181MD1710121+9999REMSYN092AAXX  08064 02990 46/// /2114 10030 20012 49989 57012 222// 333 10036 20018 555 788// 0/115;
0102029900999992000010809004+60300+020750FM-12+000599999V0202101N008719999999N9999999N1+00411+00161099841ADDMD1710051+9999REMSYN076AAXX  08094 02990 46/// /2117 10041 20016 49984 57005 222// 555 784// 0/118;
0102029900999992000010812004+60300+020750FM-12+000599999V0202101N008219999999N9999999N1+00461+00231099821ADDMD1710031+9999REMSYN076AAXX  08124 02990 46/// /2116 10046 20023 49982 57003 222// 555 785// 0/618;
0102029900999992000010815004+60300+020750FM-12+000599999V0202101N008219999999N9999999N1+00351+00181099801ADDMD1710061+9999REMSYN076AAXX  08154 02990 46/// /2116 10035 20018 49980 57006 222// 555 789// 0/117;
0144029900999992000010818004+60300+020750FM-12+000599999V0202201N007219999999N9999999N1+00331+00101099861ADDKA1120M+00501KA2120N+00261MD1210071+9999REMSYN092AAXX  08184 02990 46/// /2214 10033 20010 49986 52007 222// 333 10050 20026 555 785// 0/616;
0102029900999992000010821004+60300+020750FM-12+000599999V0202201N008219999999N9999999N1+00371+00051099931ADDMD1210061+9999REMSYN076AAXX  08214 02990 46/// /2216 10037 20005 49993 52006 222// 555 780// 0/116;
0102029900999992000010903004+60300+020750FM-12+000599999V0202301N006719999999N9999999N1+00321+00051100291ADDMD1210221+9999REMSYN076AAXX  09034 02990 46/// /2313 10032 20005 40029 52022 222// 555 783// 0/314;
0102029900999992000010909004+60300+020750FM-12+000599999V0202301N006219999999N9999999N1+00301+00051100691ADDMD1210191+9999REMSYN076AAXX  09094 02990 46/// /2312 10030 20005 40069 52019 222// 555 784// 0/613;
0102029900999992000010915004+60300+020750FM-12+000599999V0202201N004619999999N9999999N1+00201+00031100981ADDMD1210101+9999REMSYN076AAXX  09154 02990 46/// /2209 10020 20003 40098 52010 222// 555 789// 0/410;
0144029900999992000010918004+60300+020750FM-12+000599999V0202301N005119999999N9999999N1+00211+00011101091ADDKA1120M+00341KA2120N+00151MD1210111+9999REMSYN092AAXX  09184 02990 46/// /2310 10021 20001 40109 52011 222// 333 10034 20015 555 787// 0/411;
0102029900999992000010921004+60300+020750FM-12+000599999V0202501N004119999999N9999999N1+00171+00001101271ADDMD1210181+9999REMSYN076AAXX  09214 02990 46/// /2508 10017 21000 40127 52018 222// 555 788// 0/610;
0102029900999992000011000004+60300+020750FM-12+000599999V0202601N003619999999N9999999N1+00071-00051101491ADDMD1210211+9999REMSYN076AAXX  10004 02990 46/// /2607 10007 21005 40149 52021 222// 555 791// 0/408;
0102029900999992000011003004+60300+020750FM-12+000599999V0202701N002619999999N9999999N1+00031-00061101691ADDMD1210201+9999REMSYN076AAXX  10034 02990 46/// /2705 10003 21006 40169 52020 222// 555 793// 0/507;
0144029900999992000011006004+60300+020750FM-12+000599999V0202501N002119999999N9999999N1-00071-00151101861ADDKA1120M+00241KA2120N-00131MD1210171+9999REMSYN092AAXX  10064 02990 46/// /2504 11007 21015 40186 52017 222// 333 10024 21013 555 794// 0/506;
0102029900999992000011009004+60300+020750FM-12+000599999V0202501N001519999999N9999999N1-00141-00221102041ADDMD1210171+9999REMSYN076AAXX  10094 02990 46/// /2503 11014 21022 40204 52017 222// 555 794// 0/604;
0102029900999992000011012004+60300+020750FM-12+000599999V0202601N002619999999N9999999N1+00001-00091102181ADDMD1210131+9999REMSYN076AAXX  10124 02990 46/// /2605 10000 21009 40218 52013 222// 555 793// 0/405;
0102029900999992000011015004+60300+020750FM-12+000599999V0202401N001519999999N9999999N1-00141-00231102231ADDMD1210041+9999REMSYN076AAXX  10154 02990 46/// /2403 11014 21023 40223 52004 222// 555 793// 0/505;
0144029900999992000011018004+60300+020750FM-12+000599999V0202001N002619999999N9999999N1-00121-00201102221ADDKA1120M+00041KA2120N-00211MD1710011+9999REMSYN092AAXX  10184 02990 46/// /2005 11012 21020 40222 57001 222// 333 10004 21021 555 794// 0/205;
0102029900999992000011021004+60300+020750FM-12+000599999V0202101N004619999999N9999999N1-00011-00151102171ADDMD1710041+9999REMSYN076AAXX  10214 02990 46/// /2109 11001 21015 40217 57004 222// 555 790// 0/210;
0102029900999992000011100004+60300+020750FM-12+000599999V0202101N005719999999N9999999N1+00141-00021102031ADDMD1710141+9999REMSYN076AAXX  11004 02990 46/// /2111 10014 21002 40203 57014 222// 555 789// 0/211;
0102029900999992000011103004+60300+020750FM-12+000599999V0202201N005719999999N9999999N1+00191+00021101911ADDMD1710111+9999REMSYN076AAXX  11034 02990 46/// /2211 10019 20002 40191 57011 222// 555 789// 0/112;
0102029900999992000011109004+60300+020750FM-12+000599999V0202101N005719999999N9999999N1+00201+00061101841ADDMD1210021+9999REMSYN076AAXX  11094 02990 46/// /2111 10020 20006 40184 52002 222// 555 791// 0/111;
0102029900999992000011112004+60300+020750FM-12+000599999V0202101N004119999999N9999999N1+00251+00141101851ADDMD1210011+9999REMSYN076AAXX  11124 02990 46/// /2108 10025 20014 40185 52001 222// 555 793// 0/611;
0102029900999992000011115004+60300+020750FM-12+000599999V0202201N004119999999N9999999N1+00211+00091101941ADDMD1210091+9999REMSYN076AAXX  11154 02990 46/// /2208 10021 20009 40194 52009 222// 555 792// 0/310;
0144029900999992000011118004+60300+020750FM-12+000599999V0202301N004119999999N9999999N1+00171+00081101991ADDKA1120M+00321KA2120N+00091MD1210041+9999REMSYN092AAXX  11184 02990 46/// /2308 10017 20008 40199 52004 222// 333 10032 20009 555 794// 0/209;
0102029900999992000011121004+60300+020750FM-12+000599999V0202301N004119999999N9999999N1+00151+00061102021ADDMD1210031+9999REMSYN076AAXX  11214 02990 46/// /2308 10015 20006 40202 52003 222// 555 794// 0/608;
0102029900999992000011200004+60300+020750FM-12+000599999V0202201N004619999999N9999999N1+00171+00081102001ADDMD1710021+9999REMSYN076AAXX  12004 02990 46/// /2209 10017 20008 40200 57002 222// 555 794// 0/110;
0102029900999992000011203004+60300+020750FM-12+000599999V0202001N004119999999N9999999N1+00201+00111101831ADDMD1710171+9999REMSYN076AAXX  12034 02990 46/// /2008 10020 20011 40183 57017 222// 555 794// 0/609;
0144029900999992000011206004+60300+020750FM-12+000599999V0202101N005719999999N9999999N1+00251+00141101611ADDKA1120M+00281KA2120N+00041MD1710211+9999REMSYN092AAXX  12064 02990 46/// /2111 10025 20014 40161 57021 222// 333 10028 20004 555 793// 0/211;
0102029900999992000011209004+60300+020750FM-12+000599999V0202101N005719999999N9999999N1+00241+00151101331ADDMD1710271+9999REMSYN076AAXX  12094 02990 46/// /2111 10024 20015 40133 57027 222// 555 794// 0/512;
0102029900999992000011212004+60300+020750FM-12+000599999V0202201N005119999999N9999999N1+00281+00201101141ADDMD1710191+9999REMSYN076AAXX  12124 02990 46/// /2210 10028 20020 40114 57019 222// 555 795// 0/611;
0102029900999992000011215004+60300+020750FM-12+000599999V0202301N004119999999N9999999N1+00321+00241101181ADDMD1210041+9999REMSYN076AAXX  12154 02990 46/// /2308 10032 20024 40118 52004 222// 555 795// 0/610;
0144029900999992000011218004+60300+020750FM-12+000599999V0202201N004119999999N9999999N1+00301+00211101181ADDKA1120M+00341KA2120N+00211MD1410001+9999REMSYN092AAXX  12184 02990 46/// /2208 10030 20021 40118 54000 222// 333 10034 20021 555 794// 0/209;
0102029900999992000011221004+60300+020750FM-12+000599999V0202201N003619999999N9999999N1+00261+00181101221ADDMD1210051+9999REMSYN076AAXX  12214 02990 46/// /2207 10026 20018 40122 52005 222// 555 795// 0/108;
0102029900999992000011300004+60300+020750FM-12+000599999V0202301N002619999999N9999999N1+00181+00101101291ADDMD1210071+9999REMSYN076AAXX  13004 02990 46/// /2305 10018 20010 40129 52007 222// 555 795// 0/607;
0102029900999992000011303004+60300+020750FM-12+000599999V0202101N002619999999N9999999N1+00251+00171101281ADDMD1710011+9999REMSYN076AAXX  13034 02990 46/// /2105 10025 20017 40128 57001 222// 555 795// 0/406;
0144029900999992000011306004+60300+020750FM-12+000599999V0201901N002619999999N9999999N1+00251+00171101251ADDKA1120M+00311KA2120N+00181MD1710031+9999REMSYN092AAXX  13064 02990 46/// /1905 10025 20017 40125 57003 222// 333 10031 20018 555 795// 0/206;
0102029900999992000011309004+60300+020750FM-12+000599999V0202001N002619999999N9999999N1+00191+00111101221ADDMD1710031+9999REMSYN076AAXX  13094 02990 46/// /2005 10019 20011 40122 57003 222// 555 795// 0/105;
0102029900999992000011312004+60300+020750FM-12+000599999V0202201N004119999999N9999999N1+00281+00201101181ADDMD1710041+9999REMSYN076AAXX  13124 02990 46/// /2208 10028 20020 40118 57004 222// 555 795// 0/109;
0102029900999992000011315004+60300+020750FM-12+000599999V0202101N004119999999N9999999N1+00231+00151101211ADDMD1210031+9999REMSYN076AAXX  13154 02990 46/// /2108 10023 20015 40121 52003 222// 555 795// 0/108;
0144029900999992000011318004+60300+020750FM-12+000599999V0202901N005119999999N9999999N1+00231+00081101391ADDKA1120M+00291KA2120N+00161MD1210181+9999REMSYN092AAXX  13184 02990 46/// /2910 10023 20008 40139 52018 222// 333 10029 20016 555 790// 0/111;
0106029900999992000011321004+60300+020750FM-12+000599999V0203001N004619999999N9999999N1+00121-00041101671ADDMD1210271+9999REMSYN080    AAXX  13214 02990 46/// /3009 10012 21004 40167 52027 222// 555 789// 0/610;
0106029900999992000011400004+60300+020750FM-12+000599999V0203101N004119999999N9999999N1+00101-00101101951ADDMD1210271+9999REMSYN080    AAXX  14004 02990 46/// /3108 10010 21010 40195 52027 222// 555 786// 0/509;
0106029900999992000011403004+60300+020750FM-12+000599999V0203101N003119999999N9999999N1+00091-00101102101ADDMD1210151+9999REMSYN080    AAXX  14034 02990 46/// /3106 10009 21010 40210 52015 222// 555 787// 0/608;
0148029900999992000011406004+60300+020750FM-12+000599999V0203501N003119999999N9999999N1+00091-00131102291ADDKA1120M+00241KA2120N+00041MD1210191+9999REMSYN096    AAXX  14064 02990 46/// /3506 10009 21013 40229 52019 222// 333 10024 20004 555 785// 0/507;
0106029900999992000011409004+60300+020750FM-12+000599999V0203501N001519999999N9999999N1+00071-00181102461ADDMD1210161+9999REMSYN080    AAXX  14094 02990 46/// /3503 10007 21018 40246 52016 222// 555 783// 0/606;
0106029900999992000011412004+60300+020750FM-12+000599999V0203501N001019999999N9999999N1+00101-00131102531ADDMD1210061+9999REMSYN080    AAXX  14124 02990 46/// /3502 10010 21013 40253 52006 222// 555 784// 0/503;
0106029900999992000011415004+60300+020750FM-12+000599999V0203401N001019999999N9999999N1+00001-00221102571ADDMD1210041+9999REMSYN080    AAXX  14154 02990 46/// /3402 10000 21022 40257 52004 222// 555 785// 0/204;
0148029900999992000011418004+60300+020750FM-12+000599999V0203201N002119999999N9999999N1+00071-00131102621ADDKA1120M+00151KA2120N-00011MD1210041+9999REMSYN096    AAXX  14184 02990 46/// /3204 10007 21013 40262 52004 222// 333 10015 21001 555 786// 0/204;
0106029900999992000011421004+60300+020750FM-12+000599999V0203001N002119999999N9999999N1+00011-00191102621ADDMD1410001+9999REMSYN080    AAXX  14214 02990 46/// /3004 10001 21019 40262 54000 222// 555 786// 0/206;
0106029900999992000011500004+60300+020750FM-12+000599999V0202601N002619999999N9999999N1-00131-00241102531ADDMD1710081+9999REMSYN080    AAXX  15004 02990 46/// /2605 11013 21024 40253 57008 222// 555 792// 0/206;
0148029900999992000011506004+60300+020750FM-12+000599999V0202401N003119999999N9999999N1-00161-00361102281ADDKA1120M+00091KA2120N-00241MD1710151+9999REMSYN096    AAXX  15064 02990 46/// /2406 11016 21036 40228 57015 222// 333 10009 21024 555 786// 0/207;
0106029900999992000011509004+60300+020750FM-12+000599999V0202301N003119999999N9999999N1-00171-00411102171ADDMD1710101+9999REMSYN080    AAXX  15094 02990 46/// /2306 11017 21041 40217 57010 222// 555 783// 0/208;
0106029900999992000011512004+60300+020750FM-12+000599999V0202601N003619999999N9999999N1-00101-00331102081ADDMD1710081+9999REMSYN080    AAXX  15124 02990 46/// /2607 11010 21033 40208 57008 222// 555 784// 0/307;
0106029900999992000011515004+60300+020750FM-12+000599999V0202701N003119999999N9999999N1-00041-00191101921ADDMD1710161+9999REMSYN080    AAXX  15154 02990 46/// /2706 11004 21019 40192 57016 222// 555 789// 0/207;
0148029900999992000011518004+60300+020750FM-12+000599999V0202301N003619999999N9999999N1+00041-00131101801ADDKA1120M+00061KA2120N-00221MD1710121+9999REMSYN096    AAXX  15184 02990 46/// /2307 10004 21013 40180 57012 222// 333 10006 21022 555 788// 0/507;
0106029900999992000011521004+60300+020750FM-12+000599999V0202901N004619999999N9999999N1+00211-00031101771ADDMD1710031+9999REMSYN080    AAXX  15214 02990 46/// /2909 10021 21003 40177 57003 222// 555 784// 0/109;
0106029900999992000011600004+60300+020750FM-12+000599999V0202801N002619999999N9999999N1+00031-00091101761ADDMD1710011+9999REMSYN080    AAXX  16004 02990 46/// /2805 10003 21009 40176 57001 222// 555 791// 0/609;
0106029900999992000011603004+60300+020750FM-12+000599999V0202801N003619999999N9999999N1+00061-00051101731ADDMD1710021+9999REMSYN080    AAXX  16034 02990 46/// /2807 10006 21005 40173 57002 222// 555 792// 0/309;
0148029900999992000011606004+60300+020750FM-12+000599999V0202401N003119999999N9999999N1-00011-00121101531ADDKA1120M+00241KA2120N-00041MD1710221+9999REMSYN096    AAXX  16064 02990 46/// /2406 11001 21012 40153 57022 222// 333 10024 21004 555 792// 0/409;
0106029900999992000011609004+60300+020750FM-12+000599999V0202201N004119999999N9999999N1+00051-00071101261ADDMD1710261+9999REMSYN080    AAXX  16094 02990 46/// /2208 10005 21007 40126 57026 222// 555 791// 0/508;
0106029900999992000011612004+60300+020750FM-12+000599999V0202201N005119999999N9999999N1+00101-00061100801ADDMD1710471+9999REMSYN080    AAXX  16124 02990 46/// /2210 10010 21006 40080 57047 222// 555 789// 0/410;
0105029900999992000011615004+60300+020750FM-12+000599999V0202401N004119999999N9999999N1+00211-00031100141ADDMD1710631+9999REMSYN079    AAXX  16154 02990 46/// /2408 10021 21003 40014 57063 22// 555 784// 0/513;
0148029900999992000011618004+60300+020750FM-12+000599999V0202801N005719999999N9999999N1+00321+00001099721ADDKA1120M+00391KA2120N-00061MD1710421+9999REMSYN096    AAXX  16184 02990 46/// /2811 10032 20000 49972 57042 222// 333 10039 21006 555 780// 0/114;
0106029900999992000011812004+60300+020750FM-12+000599999V0203601N007719999999N9999999N1-00201-00591099731ADDMD1210371+9999REMSYN080    AAXX  18124 02990 46/// /3615 11020 21059 49973 52037 222// 555 774// 0/117;
0104029900999992000011815004+60300+020750FM-12+000599999V0203601N007219999999N9999999N1-00161-00501100081ADDMD1210341+9999REMSYN078    AAXX  18154 02990 46/// /3614 11016 21050 40008 52034 222// 555 777 0/318;
0148029900999992000011818004+60300+020750FM-12+000599999V0203601N007219999999N9999999N1-00251-00791100381ADDKA1120M-00081KA2120N-00271MD1210291+9999REMSYN096    AAXX  18184 02990 46/// /3614 11025 21079 40038 52029 222// 333 11008 21027 555 766// 0/217;
0106029900999992000011903004+60300+020750FM-12+000599999V0203601N005719999999N9999999N1-00291-00551100901ADDMD1210091+9999REMSYN080    AAXX  19034 02990 46/// /3611 11029 21055 40090 52009 222// 555 782// 0/515;
0106029900999992000011909004+60300+020750FM-12+000599999V0203601N003119999999N9999999N1-00131-00391100951ADDMD1210021+9999REMSYN080    AAXX  19094 02990 46/// /3606 11013 21039 40095 52002 222// 555 782// 0/608;
0106029900999992000011912004+60300+020750FM-12+000599999V0203401N007219999999N9999999N1-00021-00441101001ADDMD1210061+9999REMSYN080    AAXX  19124 02990 46/// /3414 11002 21044 40100 52006 222// 555 773// 0/114;
0106029900999992000011915004+60300+020750FM-12+000599999V0203401N006219999999N9999999N1-00041-00671101101ADDMD1210091+9999REMSYN080    AAXX  19154 02990 46/// /3412 11004 21067 40110 52009 222// 555 762// 0/516;
0144029900999992000011918004+60300+020750FM-12+000599999V0203401N006219999999N9999999N1-00041-00691101121ADDKA1120M+00001KA2120N-00231MD1210011+9999REMSYN092AAXX  19184 02990 46/// /3412 11004 21069 40112 52001 222// 333 10000 21023 555 761// 0/614;
0102029900999992000011921004+60300+020750FM-12+000599999V0203301N005719999999N9999999N1-00021-00571101001ADDMD1710131+9999REMSYN076AAXX  19214 02990 46/// /3311 11002 21057 40100 57013 222// 555 766// 0/612;
0102029900999992000012000004+60300+020750FM-12+000599999V0202701N003619999999N9999999N1-00101-00521100731ADDMD1710261+9999REMSYN076AAXX  20004 02990 46/// /2707 11010 21052 40073 57026 222// 555 773// 0/511;
0121029900999992000012003004+60300+020750FM-12+000599999V0202201N003119999999N9999999N1-00141-00431100161ADDMD1710562+9999REMSYN076AAXX  20034 02990 46/// /2206 11014 21043 40016 57056 222// 555 780// 0/608;EQDQ01+000562APC3  
0144029900999992000012006004+60300+020750FM-12+000599999V0202901N008219999999N9999999N1+00131+00021099571ADDKA1120M+00141KA2120N-00211MD1710561+9999REMSYN092AAXX  20064 02990 46/// /2916 10013 20002 49957 57056 222// 333 10014 21021 555 793// 0/016;
0102029900999992000012009004+60300+020750FM-12+000599999V0203401N009819999999N9999999N1+00011-00371099591ADDMD1210031+9999REMSYN076AAXX  20094 02990 46/// /3419 10001 21037 49959 52003 222// 555 775// 0/223;
0102029900999992000012012004+60300+020750FM-12+000599999V0203501N007719999999N9999999N1-00131-00721099751ADDMD1210151+9999REMSYN076AAXX  20124 02990 46/// /3515 11013 21072 49975 52015 222// 555 764// 0/619;
0102029900999992000012015004+60300+020750FM-12+000599999V0203501N005719999999N9999999N1-00271-00441099751ADDMD1210011+9999REMSYN076AAXX  20154 02990 46/// /3511 11027 21044 49975 52001 222// 555 788// 0/615;
0144029900999992000012018004+60300+020750FM-12+000599999V0203601N005719999999N9999999N1-00321-00501099741ADDKA1120M+00161KA2120N-00361MD1410001+9999REMSYN092AAXX  20184 02990 46/// /3611 11032 21050 49974 54000 222// 333 10016 21036 555 787// 0/216;
0102029900999992000012021004+60300+020750FM-12+000599999V0200401N002119999999N9999999N1-00511-00631099661ADDMD1710061+9999REMSYN076AAXX  20214 02990 46/// /0404 11051 21063 49966 57006 222// 555 791// 0/611;
0102029900999992000012100004+60300+020750FM-12+000599999V0200401N004119999999N9999999N1-00431-00621099731ADDMD1210061+9999REMSYN076AAXX  21004 02990 46/// /0408 11043 21062 49973 52006 222// 555 786// 0/109;
0102029900999992000012103004+60300+020750FM-12+000599999V0200201N005119999999N9999999N1-00481-00851099921ADDMD1210191+9999REMSYN076AAXX  21034 02990 46/// /0210 11048 21085 49992 52019 222// 555 775// 0/312;
0144029900999992000012106004+60300+020750FM-12+000599999V0200201N007219999999N9999999N1-00511-00811100151ADDKA1120M-00301KA2120N-00551MD1210241+9999REMSYN092AAXX  21064 02990 46/// /0214 11051 21081 40015 52024 222// 333 11030 21055 555 779// 0/114;
0102029900999992000012109004+60300+020750FM-12+000599999V0200101N006719999999N9999999N1-00481-00871100491ADDMD1210331+9999REMSYN076AAXX  21094 02990 46/// /0113 11048 21087 40049 52033 222// 555 774// 0/216;
0102029900999992000012115004+60300+020750FM-12+000599999V0203501N008219999999N9999999N1-00371-00891101001ADDMD1210241+9999REMSYN076AAXX  21154 02990 46/// /3516 11037 21089 40100 52024 222// 555 767// 0/619;
0144029900999992000012118004+60300+020750FM-12+000599999V0203601N005719999999N9999999N1-00411-01111101081ADDKA1120M-00341KA2120N-00541MD1210071+9999REMSYN092AAXX  21184 02990 46/// /3611 11041 21111 40108 52007 222// 333 11034 21054 555 758// 0/617;
0102029900999992000012121004+60300+020750FM-12+000599999V0203501N005119999999N9999999N1-00601-00821101021ADDMD1710061+9999REMSYN076AAXX  21214 02990 46/// /3510 11060 21082 40102 57006 222// 555 784// 0/313;
0102029900999992000012200004+60300+020750FM-12+000599999V0203501N004619999999N9999999N1-00511-01061100971ADDMD1710051+9999REMSYN076AAXX  22004 02990 46/// /3509 11051 21106 40097 57005 222// 555 765// 0/513;
0102029900999992000012203004+60300+020750FM-12+000599999V0200101N003119999999N9999999N1-00521-01091100931ADDMD1710041+9999REMSYN076AAXX  22034 02990 46/// /0106 11052 21109 40093 57004 222// 555 764// 0/511;
0144029900999992000012206004+60300+020750FM-12+000599999V0200101N004119999999N9999999N1-00481-01011100901ADDKA1120M-00401KA2120N-00611MD1710031+9999REMSYN092AAXX  22064 02990 46/// /0108 11048 21101 40090 57003 222// 333 11040 21061 555 766// 0/410;
0102029900999992000012209004+60300+020750FM-12+000599999V0200301N003619999999N9999999N1-00631-00801100971ADDMD1210071+9999REMSYN076AAXX  22094 02990 46/// /0307 11063 21080 40097 52007 222// 555 787// 0/611;
0102029900999992000012212004+60300+020750FM-12+000599999V0200101N004119999999N9999999N1-00461-01171101031ADDMD1210061+9999REMSYN076AAXX  22124 02990 46/// /0108 11046 21117 40103 52006 222// 555 757// 0/109;
0102029900999992000012215004+60300+020750FM-12+000599999V0200201N002619999999N9999999N1-00541-00981101101ADDMD1210081+9999REMSYN076AAXX  22154 02990 46/// /0205 11054 21098 40110 52008 222// 555 771// 0/608;
0144029900999992000012218004+60300+020750FM-12+000599999V0200501N002619999999N9999999N1-00701-01111101141ADDKA1120M-00431KA2120N-00701MD1210051+9999REMSYN092AAXX  22184 02990 46/// /0505 11070 21111 40114 52005 222// 333 11043 21070 555 772// 0/605;
0102029900999992000012221004+60300+020750FM-12+000599999V0200801N001019999999N9999999N1-00821-01231101261ADDMD1210121+9999REMSYN076AAXX  22214 02990 46/// /0802 11082 21123 40126 52012 222// 555 772// 0/605;
0102029900999992000012300004+60300+020750FM-12+000599999V0201101N000519999999N9999999N1-01071-01541101321ADDMD1210061+9999REMSYN076AAXX  23004 02990 46/// /1101 11107 21154 40132 52006 222// 555 768// 0/604;
0102029900999992000012303004+60300+020750FM-12+000599999V0202001N001519999999N9999999N1-01051-01261101291ADDMD1710041+9999REMSYN076AAXX  23034 02990 46/// /2003 11105 21126 40129 57004 222// 555 784// 0/103;
0144029900999992000012306004+60300+020750FM-12+000599999V0203501N002119999999N9999999N1-00501-00941101291ADDKA1120M-00431KA2120N-01111MD1410001+9999REMSYN092AAXX  23064 02990 46/// /3504 11050 21094 40129 54000 222// 333 11043 21111 555 771// 0/507;
0102029900999992000012309004+60300+020750FM-12+000599999V0203301N004119999999N9999999N1-00271-00971101411ADDMD1210121+9999REMSYN076AAXX  23094 02990 46/// /3308 11027 21097 40141 52012 222// 555 758// 0/511;
0102029900999992000012315004+60300+020750FM-12+000599999V0203601N001019999999N9999999N1-00381-00601101561ADDMD1210081+9999REMSYN076AAXX  23154 02990 46/// /3602 11038 21060 40156 52008 222// 555 784// 0/609;
0144029900999992000012318004+60300+020750FM-12+000599999V0203501N004619999999N9999999N1-00241-00821101621ADDKA1120M-00191KA2120N-00631MD1210061+9999REMSYN092AAXX  23184 02990 46/// /3509 11024 21082 40162 52006 222// 333 11019 21063 555 764// 0/311;
0102029900999992000012321004+60300+020750FM-12+000599999V0200301N002619999999N9999999N1-00481-00611101751ADDMD1210121+9999REMSYN076AAXX  23214 02990 46/// /0305 11048 21061 40175 52012 222// 555 790// 0/510;
0102029900999992000012400004+60300+020750FM-12+000599999V0200301N001519999999N9999999N1-00511-00661101811ADDMD1210051+9999REMSYN076AAXX  24004 02990 46/// /0303 11051 21066 40181 52005 222// 555 789// 0/606;
0102029900999992000012403004+60300+020750FM-12+000599999V0200701N001519999999N9999999N1-00571-00671101811ADDMD1410001+9999REMSYN076AAXX  24034 02990 46/// /0703 11057 21067 40181 54000 222// 555 792// 0/504;
0144029900999992000012406004+60300+020750FM-12+000599999V0201501N001019999999N9999999N1-00701-00821101751ADDKA1120M-00191KA2120N-00751MD1710061+9999REMSYN092AAXX  24064 02990 46/// /1502 11070 21082 40175 57006 222// 333 11019 21075 555 791// 0/303;
0102029900999992000012409004+60300+020750FM-12+000599999V0202501N001519999999N9999999N1-00571-00691101751ADDMD1410001+9999REMSYN076AAXX  24094 02990 46/// /2503 11057 21069 40175 54000 222// 555 791// 0/204;
0102029900999992000012412004+60300+020750FM-12+000599999V0201801N001019999999N9999999N1-00411-00821101721ADDMD1710031+9999REMSYN076AAXX  24124 02990 46/// /1802 11041 21082 40172 57003 222// 555 773// 0/605;
0102029900999992000012415004+60300+020750FM-12+000599999V0201501N002619999999N9999999N1-00711-00991101681ADDMD1710041+9999REMSYN076AAXX  24154 02990 46/// /1505 11071 21099 40168 57004 222// 555 780// 0/005;
0144029900999992000012418004+60300+020750FM-12+000599999V0201301N002619999999N9999999N1-00721-00911101791ADDKA1120M-00341KA2120N-00781MD1210111+9999REMSYN092AAXX  24184 02990 46/// /1305 11072 21091 40179 52011 222// 333 11034 21078 555 786// 0/406;
0102029900999992000012421004+60300+020750FM-12+000599999V0201001N003119999999N9999999N1-00501-00771101921ADDMD1210131+9999REMSYN076AAXX  24214 02990 46/// /1006 11050 21077 40192 52013 222// 555 781// 0/106;
0102029900999992000012500004+60300+020750FM-12+000599999V0201101N002619999999N9999999N1-00581-00821101901ADDMD1710021+9999REMSYN076AAXX  25004 02990 46/// /1105 11058 21082 40190 57002 222// 555 783// 0/508;
0102029900999992000012503004+60300+020750FM-12+000599999V0201301N002119999999N9999999N1-00731-00921101861ADDMD1710041+9999REMSYN076AAXX  25034 02990 46/// /1304 11073 21092 40186 57004 222// 555 786// 0/606;
0144029900999992000012506004+60300+020750FM-12+000599999V0201601N003119999999N9999999N1-00601-00871101571ADDKA1120M-00441KA2120N-00761MD1710281+9999REMSYN092AAXX  25064 02990 46/// /1606 11060 21087 40157 57028 222// 333 11044 21076 555 781// 0/106;
0102029900999992000012509004+60300+020750FM-12+000599999V0202001N003619999999N9999999N1-00191-00471101351ADDMD1710211+9999REMSYN076AAXX  25094 02990 46/// /2007 11019 21047 40135 57021 222// 555 781// 0/007;
0102029900999992000012512004+60300+020750FM-12+000599999V0202201N004619999999N9999999N1-00201-00371101001ADDMD1710341+9999REMSYN076AAXX  25124 02990 46/// /2209 11020 21037 40100 57034 222// 555 788// 0/109;
0102029900999992000012515004+60300+020750FM-12+000599999V0202701N003619999999N9999999N1-00141-00261100861ADDMD1710131+9999REMSYN076AAXX  25154 02990 46/// /2707 11014 21026 40086 57013 222// 555 791// 0/610;
0144029900999992000012518004+60300+020750FM-12+000599999V0203301N004119999999N9999999N1+00071-00051100871ADDKA1120M+00111KA2120N-00601MD1210031+9999REMSYN092AAXX  25184 02990 46/// /3308 10007 21005 40087 52003 222// 333 10011 21060 555 791// 0/409;
0102029900999992000012521004+60300+020750FM-12+000599999V0203301N003619999999N9999999N1+00051-00061101001ADDMD1210141+9999REMSYN076AAXX  25214 02990 46/// /3307 10005 21006 40100 52014 222// 555 792// 0/310;
0102029900999992000012600004+60300+020750FM-12+000599999V0203101N002119999999N9999999N1+00021-00071100941ADDMD1710061+9999REMSYN076AAXX  26004 02990 46/// /3104 10002 21007 40094 57006 222// 555 793// 0/607;
0102029900999992000012603004+60300+020750FM-12+000599999V0202501N002619999999N9999999N1+00001-00081100851ADDMD1710081+9999REMSYN076AAXX  26034 02990 46/// /2505 10000 21008 40085 57008 222// 555 794// 0/408;
0144029900999992000012606004+60300+020750FM-12+000599999V0202301N003119999999N9999999N1+00011-00111100621ADDKA1120M+00131KA2120N-00051MD1710221+9999REMSYN092AAXX  26064 02990 46/// /2306 10001 21011 40062 57022 222// 333 10013 21005 555 791// 0/107;
0102029900999992000012609004+60300+020750FM-12+000599999V0202601N004619999999N9999999N1+00061-00111100481ADDMD1710131+9999REMSYN076AAXX  26094 02990 46/// /2609 10006 21011 40048 57013 222// 555 788// 0/009;
0102029900999992000012612004+60300+020750FM-12+000599999V0202901N005719999999N9999999N1+00241-00051100361ADDMD1710121+9999REMSYN076AAXX  26124 02990 46/// /2911 10024 21005 40036 57012 222// 555 781// 0/213;
0102029900999992000012615004+60300+020750FM-12+000599999V0202901N006719999999N9999999N1+00241-00051100301ADDMD1710061+9999REMSYN076AAXX  26154 02990 46/// /2913 10024 21005 40030 57006 222// 555 781// 0/416;
0102029900999992000012621004+60300+020750FM-12+000599999V0202801N006719999999N9999999N1+00201-00091100131ADDMD1710101+9999REMSYN076AAXX  26214 02990 46/// /2813 10020 21009 40013 57010 222// 555 781// 0/115;
0102029900999992000012700004+60300+020750FM-12+000599999V0203001N007219999999N9999999N1+00181-00091100201ADDMD1210061+9999REMSYN076AAXX  27004 02990 46/// /3014 10018 21009 40020 52006 222// 555 782// 0/318;
0102029900999992000012703004+60300+020750FM-12+000599999V0203001N007219999999N9999999N1+00141-00131100301ADDMD1210101+9999REMSYN076AAXX  27034 02990 46/// /3014 10014 21013 40030 52010 222// 555 782// 0/416;
0144029900999992000012706004+60300+020750FM-12+000599999V0202901N008219999999N9999999N1+00101-00231100321ADDKA1120M+00281KA2120N+00081MD1210021+9999REMSYN092AAXX  27064 02990 46/// /2916 10010 21023 40032 52002 222// 333 10028 20008 555 778// 0/417;
0102029900999992000012709004+60300+020750FM-12+000599999V0202801N006719999999N9999999N1+00081-00221100351ADDMD1210031+9999REMSYN076AAXX  27094 02990 46/// /2813 10008 21022 40035 52003 222// 555 780// 0/616;
0102029900999992000012712004+60300+020750FM-12+000599999V0202701N004619999999N9999999N1+00071-00201100231ADDMD1710121+9999REMSYN076AAXX  27124 02990 46/// /2709 10007 21020 40023 57012 222// 555 782// 0/613;
0102029900999992000012715004+60300+020750FM-12+000599999V0202001N002619999999N9999999N1-00161-00371099911ADDMD1710321+9999REMSYN076AAXX  27154 02990 46/// /2005 11016 21037 49991 57032 222// 555 785// 0/609;
0144029900999992000012718004+60300+020750FM-12+000599999V0201901N003119999999N9999999N1-00011-00271099461ADDKA1120M+00161KA2120N-00181MD1710451+9999REMSYN092AAXX  27184 02990 46/// /1906 11001 21027 49946 57045 222// 333 10016 21018 555 782// 0/507;
0102029900999992000012800004+60300+020750FM-12+000599999V0202701N004619999999N9999999N1-00081-00201098741ADDMD1710151+9999REMSYN076AAXX  28004 02990 46/// /2709 11008 21020 49874 57015 222// 555 791// 0/211;
0102029900999992000012803004+60300+020750FM-12+000599999V0203401N004119999999N9999999N1-00051-00171098881ADDMD1210141+9999REMSYN076AAXX  28034 02990 46/// /3408 11005 21017 49888 52014 222// 555 791// 0/412;
0144029900999992000012806004+60300+020750FM-12+000599999V0203101N003619999999N9999999N1-00041-00181099031ADDKA1120M+00061KA2120N-00111MD1210141+9999REMSYN092AAXX  28064 02990 46/// /3107 11004 21018 49903 52014 222// 333 10006 21011 555 790// 0/609;
0102029900999992000012809004+60300+020750FM-12+000599999V0203001N003619999999N9999999N1-00031-00151099241ADDMD1210201+9999REMSYN076AAXX  28094 02990 46/// /3007 11003 21015 49924 52020 222// 555 791// 0/309;
0102029900999992000012812004+60300+020750FM-12+000599999V0203301N004119999999N9999999N1+00001-00371099411ADDMD1210161+9999REMSYN076AAXX  28124 02990 46/// /3308 10000 21037 49941 52016 222// 555 776// 0/410;
0102029900999992000012815004+60300+020750FM-12+000599999V0202901N004119999999N9999999N1-00111-00421099541ADDMD1210131+9999REMSYN076AAXX  28154 02990 46/// /2908 11011 21042 49954 52013 222// 555 779// 0/209;
0144029900999992000012818004+60300+020750FM-12+000599999V0202501N003119999999N9999999N1-00291-00461099631ADDKA1120M+00051KA2120N-00351MD1210091+9999REMSYN092AAXX  28184 02990 46/// /2506 11029 21046 49963 52009 222// 333 10005 21035 555 788// 0/608;
0102029900999992000012821004+60300+020750FM-12+000599999V0202001N003119999999N9999999N1-00251-00451099571ADDMD1710051+9999REMSYN076AAXX  28214 02990 46/// /2006 11025 21045 49957 57005 222// 555 786// 0/107;
0102029900999992000012900004+60300+020750FM-12+000599999V0201801N003619999999N9999999N1-00271-00391099401ADDMD1710161+9999REMSYN076AAXX  29004 02990 46/// /1807 11027 21039 49940 57016 222// 555 791// 0/007;
0102029900999992000012903004+60300+020750FM-12+000599999V0201801N003619999999N9999999N1-00011-00241099091ADDMD1710301+9999REMSYN076AAXX  29034 02990 46/// /1807 11001 21024 49909 57030 222// 555 784// 0/308;
0144029900999992000012906004+60300+020750FM-12+000599999V0201701N004119999999N9999999N1+00111-00061098741ADDKA1120M+00121KA2120N-00481MD1710351+9999REMSYN092AAXX  29064 02990 46/// /1708 10011 21006 49874 57035 222// 333 10012 21048 555 788// 0/309;
0102029900999992000012909004+60300+020750FM-12+000599999V0201601N005119999999N9999999N1+00151-00011098281ADDMD1710451+9999REMSYN076AAXX  29094 02990 46/// /1610 10015 21001 49828 57045 222// 555 789// 0/010;
0102029900999992000012912004+60300+020750FM-12+000599999V0201701N006219999999N9999999N1+00181+00001097711ADDMD1710561+9999REMSYN076AAXX  29124 02990 46/// /1712 10018 20000 49771 57056 222// 555 788// 0/313;
0102029900999992000012915004+60300+020750FM-12+000599999V0201701N008219999999N9999999N1+00171+00061097031ADDMD1710651+9999REMSYN076AAXX  29154 02990 46/// /1716 10017 20006 49703 57065 222// 555 793// 0/217;
0144029900999992000012918004+60300+020750FM-12+000599999V0201701N008719999999N9999999N1+00071-00021096421ADDKA1120M+00241KA2120N+00031MD1710601+9999REMSYN092AAXX  29184 02990 46/// /1717 10007 21002 49642 57060 222// 333 10024 20003 555 793// 0/219;
0102029900999992000012921004+60300+020750FM-12+000599999V0201801N005719999999N9999999N1+00041-00041096001ADDMD1710401+9999REMSYN076AAXX  29214 02990 46/// /1811 10004 21004 49600 57040 222// 555 794// 0/617;
0102029900999992000013000004+60300+020750FM-12+000599999V0202001N005719999999N9999999N1+00181+00031095941ADDMD1710061+9999REMSYN076AAXX  30004 02990 46/// /2011 10018 20003 49594 57006 222// 555 790// 0/113;
0102029900999992000013003004+60300+020750FM-12+000599999V0201801N006219999999N9999999N1+00271+00091095791ADDMD1710141+9999REMSYN076AAXX  30034 02990 46/// /1812 10027 20009 49579 57014 222// 555 788// 0/213;
0144029900999992000013006004+60300+020750FM-12+000599999V0202001N005719999999N9999999N1+00201+00051095721ADDKA1120M+00291KA2120N-00031MD1710071+9999REMSYN092AAXX  30064 02990 46/// /2011 10020 20005 49572 57007 222// 333 10029 21003 555 790// 0/412;
0102029900999992000013009004+60300+020750FM-12+000599999V0202201N003619999999N9999999N1+00111+00001095951ADDMD1210221+9999REMSYN076AAXX  30094 02990 46/// /2207 10011 20000 49595 52022 222// 555 793// 0/611;
0102029900999992000013012004+60300+020750FM-12+000599999V0203101N009319999999N9999999N1+00001-00111096511ADDMD1210551+9999REMSYN076AAXX  30124 02990 46/// /3118 10000 21011 49651 52055 222// 555 792// 0/119;
0102029900999992000013015004+60300+020750FM-12+000599999V0203101N011819999999N9999999N1+00021-00151097291ADDMD1210761+9999REMSYN076AAXX  30154 02990 46/// /3123 10002 21015 49729 52076 222// 555 788// 0/124;
0144029900999992000013018004+60300+020750FM-12+000599999V0203101N012319999999N9999999N1-00011-00691098091ADDKA1120M+00211KA2120N-00091MD1210781+9999REMSYN092AAXX  30184 02990 46/// /3124 11001 21069 49809 52078 222// 333 10021 21009 555 760// 0/128;
0102029900999992000013021004+60300+020750FM-12+000599999V0203001N011319999999N9999999N1-00161-00811098651ADDMD1210531+9999REMSYN076AAXX  30214 02990 46/// /3022 11016 21081 49865 52053 222// 555 761// 0/627;
0102029900999992000013100004+60300+020750FM-12+000599999V0202901N010319999999N9999999N1-00201-00841099041ADDMD1210381+9999REMSYN076AAXX  31004 02990 46/// /2920 11020 21084 49904 52038 222// 555 761// 0/523;
0102029900999992000013103004+60300+020750FM-12+000599999V0203001N007219999999N9999999N1-00211-00791099161ADDMD1210101+9999REMSYN076AAXX  31034 02990 46/// /3014 11021 21079 49916 52010 222// 555 764// 0/620;
0144029900999992000013106004+60300+020750FM-12+000599999V0202601N004619999999N9999999N1-00281-00691099241ADDKA1120M+00001KA2120N-00301MD1210071+9999REMSYN092AAXX  31064 02990 46/// /2609 11028 21069 49924 52007 222// 333 11000 21030 555 773// 0/614;
0102029900999992000013109004+60300+020750FM-12+000599999V0203001N002619999999N9999999N1-00281-00801099311ADDMD1210071+9999REMSYN076AAXX  31094 02990 46/// /3005 11028 21080 49931 52007 222// 555 767// 0/609;
0102029900999992000013112004+60300+020750FM-12+000599999V0202901N002119999999N9999999N1-00211-00811099481ADDMD1210171+9999REMSYN076AAXX  31124 02990 46/// /2904 11021 21081 49948 52017 222// 555 763// 0/305;
0102029900999992000013115004+60300+020750FM-12+000599999V0202301N004619999999N9999999N1-00261-00761099661ADDMD1210171+9999REMSYN076AAXX  31154 02990 46/// /2309 11026 21076 49966 52017 222// 555 768// 0/109;
0144029900999992000013118004+60300+020750FM-12+000599999V0202401N007219999999N9999999N1-00221-00951099711ADDKA1120M-00171KA2120N-00441MD1210051+9999REMSYN092AAXX  31184 02990 46/// /2414 11022 21095 49971 52005 222// 333 11017 21044 555 757// 0/014;
0102029900999992000013121004+60300+020750FM-12+000599999V0202601N008219999999N9999999N1-00191-00711099711ADDMD1210011+9999REMSYN076AAXX  31214 02990 46/// /2616 11019 21071 49971 52001 222// 555 767// 0/217;
0102029900999992000020100004+60300+020750FM-12+000599999V0202701N008719999999N9999999N1-00161-00691099831ADDMD1210121+9999REMSYN076AAXX  01004 02990 46/// /2717 11016 21069 49983 52012 222// 555 767// 0/117;
0102029900999992000020103004+60300+020750FM-12+000599999V0202801N007219999999N9999999N1-00111-00511100011ADDMD1210161+9999REMSYN076AAXX  01034 02990 46/// /2814 11011 21051 40001 52016 222// 555 774// 0/617;
0142029900999992000020106004+60300+020750FM-12+000599999V0202901N006219999999N9999999N1-00051-00401100161ADDKA1120M-00011KA2120N-00261MD1210141+9999REMSYN090AAXX  01064 02990 46/// /2912 11005 21040 40016 52014 222// 333 11001 21026 555 777 0/615;
0102029900999992000020109004+60300+020750FM-12+000599999V0202701N004119999999N9999999N1-00161-00421100341ADDMD1210171+9999REMSYN076AAXX  01094 02990 46/// /2708 11016 21042 40034 52017 222// 555 782// 0/612;
0102029900999992000020112004+60300+020750FM-12+000599999V0202501N003119999999N9999999N1-00071-00491100361ADDMD1210021+9999REMSYN076AAXX  01124 02990 46/// /2506 11007 21049 40036 52002 222// 555 773// 0/509;
0102029900999992000020115004+60300+020750FM-12+000599999V0202601N003119999999N9999999N1-00221-00611100241ADDMD1710111+9999REMSYN076AAXX  01154 02990 46/// /2606 11022 21061 40024 57011 222// 555 774// 0/507;
0144029900999992000020118004+60300+020750FM-12+000599999V0202201N002619999999N9999999N1-00291-00561100041ADDKA1120M-00021KA2120N-00341MD1710191+9999REMSYN092AAXX  01184 02990 46/// /2205 11029 21056 40004 57019 222// 333 11002 21034 555 781// 0/206;
0102029900999992000020121004+60300+020750FM-12+000599999V0202201N003119999999N9999999N1-00201-00611099721ADDMD1710311+9999REMSYN076AAXX  01214 02990 46/// /2206 11020 21061 49972 57031 222// 555 773// 0/207;
0102029900999992000020200004+60300+020750FM-12+000599999V0201801N001519999999N9999999N1-00201-00491099321ADDMD1710381+9999REMSYN076AAXX  02004 02990 46/// /1803 11020 21049 49932 57038 222// 555 780// 0/607;
0102029900999992000020203004+60300+020750FM-12+000599999V0200501N001019999999N9999999N1-00211-00351098911ADDMD1710391+9999REMSYN076AAXX  02034 02990 46/// /0502 11021 21035 49891 57039 222// 555 790// 0/603;
0100029900999992000020206004+60300+020750FM-12+000599999V0200201N002119999999N9999999N1-00211+99999999999REMSYN091AAXX  02064 02990 46/// /0204 11021 2030 49872 57018 222// 333 11013 21030 555 793// 0/105;
0102029900999992000020209004+60300+020750FM-12+000599999V0202801N003119999999N9999999N1-00211-00291098761ADDMD1210041+9999REMSYN076AAXX  02094 02990 46/// /2806 11021 21029 49876 52004 222// 555 794// 0/107;
0102029900999992000020212004+60300+020750FM-12+000599999V0202601N004619999999N9999999N1-00211-00331098791ADDMD1210011+9999REMSYN076AAXX  02124 02990 46/// /2609 11021 21033 49879 52001 222// 555 791// 0/109;
0102029900999992000020215004+60300+020750FM-12+000599999V0202901N004619999999N9999999N1-00231-00411098831ADDMD1210031+9999REMSYN076AAXX  02154 02990 46/// /2909 11023 21041 49883 52003 222// 555 787// 0/009;
0144029900999992000020218004+60300+020750FM-12+000599999V0202701N003619999999N9999999N1-00301-00481098901ADDKA1120M-00181KA2120N-00311MD1210071+9999REMSYN092AAXX  02184 02990 46/// /2707 11030 21048 49890 52007 222// 333 11018 21031 555 787// 0/610;
0102029900999992000020221004+60300+020750FM-12+000599999V0203301N002619999999N9999999N1-00171-00371098991ADDMD1210091+9999REMSYN076AAXX  02214 02990 46/// /3305 11017 21037 49899 52009 222// 555 786// 0/408;
0102029900999992000020300004+60300+020750FM-12+000599999V0200201N002619999999N9999999N1-00231-00431099201ADDMD1210211+9999REMSYN076AAXX  03004 02990 46/// /0205 11023 21043 49920 52021 222// 555 786// 0/407;
0102029900999992000020303004+60300+020750FM-12+000599999V0203501N003619999999N9999999N1-00191-00551099501ADDMD1210281+9999REMSYN076AAXX  03034 02990 46/// /3507 11019 21055 49950 52028 222// 555 776// 0/007;
0102029900999992000020312004+60300+020750FM-12+000599999V0203001N006719999999N9999999N1-00111-00441100431ADDMD1210231+9999REMSYN076AAXX  03124 02990 46/// /3013 11011 21044 40043 52023 222// 555 778// 0/414;
0100029900999992000020315004+60300+020750FM-12+000599999V0203201N006719999999N9999999N1-00031-00381100761ADDMD1210321+9999REMSYN074AAXX  03154 02990 46/// /3213 11003 21038 40076 52032 222// 555 777 0/614;
0144029900999992000020318004+60300+020750FM-12+000599999V0203201N005119999999N9999999N1+00001-00281101171ADDKA1120M+00031KA2120N-00221MD1210401+9999REMSYN092AAXX  03184 02990 46/// /3210 10000 21028 40117 52040 222// 333 10003 21022 555 781// 0/614;
0102029900999992000020321004+60300+020750FM-12+000599999V0203001N004619999999N9999999N1-00011-00241101391ADDMD1210211+9999REMSYN076AAXX  03214 02990 46/// /3009 11001 21024 40139 52021 222// 555 784// 0/611;
0102029900999992000020400004+60300+020750FM-12+000599999V0202501N003619999999N9999999N1-00171-00371101451ADDMD1210051+9999REMSYN076AAXX  04004 02990 46/// /2507 11017 21037 40145 52005 222// 555 786// 0/510;
0102029900999992000020403004+60300+020750FM-12+000599999V0202101N004619999999N9999999N1-00191-00401101161ADDMD1710301+9999REMSYN076AAXX  04034 02990 46/// /2109 11019 21040 40116 57030 222// 555 785// 0/009;
0144029900999992000020406004+60300+020750FM-12+000599999V0202101N008219999999N9999999N1+00011-00301100391ADDKA1120M+00041KA2120N-00231MD1710751+9999REMSYN092AAXX  04064 02990 46/// /2116 10001 21030 40039 57075 222// 333 10004 21023 555 779// 0/116;
0102029900999992000020409004+60300+020750FM-12+000599999V0202301N007219999999N9999999N1+00061-00021099911ADDMD1710471+9999REMSYN076AAXX  04094 02990 46/// /2314 10006 21002 49991 57047 222// 555 794// 0/616;
0102029900999992000020412004+60300+020750FM-12+000599999V0202501N006219999999N9999999N1+00241+00041099721ADDMD1710191+9999REMSYN076AAXX  04124 02990 46/// /2512 10024 20004 49972 57019 222// 555 787// 0/614;
0102029900999992000020415004+60300+020750FM-12+000599999V0202501N005119999999N9999999N1+00241+00011099591ADDMD1710121+9999REMSYN076AAXX  04154 02990 46/// /2510 10024 20001 49959 57012 222// 555 785// 0/612;
0144029900999992000020418004+60300+020750FM-12+000599999V0202801N006219999999N9999999N1+00291-00021099621ADDKA1120M+00291KA2120N-00041MD1210031+9999REMSYN092AAXX  04184 02990 46/// /2812 10029 21002 49962 52003 222// 333 10029 21004 555 780// 0/412;
0102029900999992000020421004+60300+020750FM-12+000599999V0202901N006719999999N9999999N1+00221-00121099691ADDMD1210071+9999REMSYN076AAXX  04214 02990 46/// /2913 10022 21012 49969 52007 222// 555 778// 0/614;
0102029900999992000020500004+60300+020750FM-12+000599999V0203001N008219999999N9999999N1+00131-00261099831ADDMD1210141+9999REMSYN076AAXX  05004 02990 46/// /3016 10013 21026 49983 52014 222// 555 775// 0/016;
0102029900999992000020503004+60300+020750FM-12+000599999V0203101N007719999999N9999999N1+00111-00211100171ADDMD1210331+9999REMSYN076AAXX  05034 02990 46/// /3115 10011 21021 40017 52033 222// 555 779// 0/616;
0144029900999992000020506004+60300+020750FM-12+000599999V0203101N006719999999N9999999N1+00071-00181100531ADDKA1120M+00311KA2120N+00031MD1210351+9999REMSYN092AAXX  05064 02990 46/// /3113 10007 21018 40053 52035 222// 333 10031 20003 555 783// 0/515;
0102029900999992000020509004+60300+020750FM-12+000599999V0203201N005719999999N9999999N1+00071-00251100801ADDMD1210261+9999REMSYN076AAXX  05094 02990 46/// /3211 10007 21025 40080 52026 222// 555 779// 0/514;
0102029900999992000020512004+60300+020750FM-12+000599999V0203101N003119999999N9999999N1+00051-00251101061ADDMD1210261+9999REMSYN076AAXX  05124 02990 46/// /3106 10005 21025 40106 52026 222// 555 780// 0/611;
0102029900999992000020515004+60300+020750FM-12+000599999V0202601N002119999999N9999999N1-00041-00221101121ADDMD1210061+9999REMSYN076AAXX  05154 02990 46/// /2604 11004 21022 40112 52006 222// 555 787// 0/407;
0144029900999992000020518004+60300+020750FM-12+000599999V0202001N002119999999N9999999N1+00011-00191101101ADDKA1120M+00101KA2120N-00191MD1710021+9999REMSYN092AAXX  05184 02990 46/// /2004 10001 21019 40110 57002 222// 333 10010 21019 555 786// 0/406;
0102029900999992000020521004+60300+020750FM-12+000599999V0201901N003619999999N9999999N1+00111-00221100941ADDMD1710161+9999REMSYN076AAXX  05214 02990 46/// /1907 10011 21022 40094 57016 222// 555 778// 0/107;
0102029900999992000020600004+60300+020750FM-12+000599999V0201801N004119999999N9999999N1+00151-00011100681ADDMD1710251+9999REMSYN076AAXX  06004 02990 46/// /1808 10015 21001 40068 57025 222// 555 789// 0/108;
0102029900999992000020603004+60300+020750FM-12+000599999V0201901N003119999999N9999999N1+00181+00101100381ADDMD1710291+9999REMSYN076AAXX  06034 02990 46/// /1906 10018 20010 40038 57029 222// 555 795// 0/608;
0144029900999992000020606004+60300+020750FM-12+000599999V0202001N003619999999N9999999N1+00261+00181100061ADDKA1120M+00281KA2120N-00051MD1710311+9999REMSYN092AAXX  06064 02990 46/// /2007 10026 20018 40006 57031 222// 333 10028 21005 555 795// 0/107;
0102029900999992000020609004+60300+020750FM-12+000599999V0202001N004619999999N9999999N1+00221+00141099811ADDMD1710251+9999REMSYN076AAXX  06094 02990 46/// /2009 10022 20014 49981 57025 222// 555 795// 0/109;
0102029900999992000020612004+60300+020750FM-12+000599999V0202301N005119999999N9999999N1+00311+00231099661ADDMD1710151+9999REMSYN076AAXX  06124 02990 46/// /2310 10031 20023 49966 57015 222// 555 795// 0/110;
0102029900999992000020615004+60300+020750FM-12+000599999V0202601N007219999999N9999999N1+00421+00151099761ADDMD1210111+9999REMSYN076AAXX  06154 02990 46/// /2614 10042 20015 49976 52011 222// 555 783// 0/115;
0144029900999992000020618004+60300+020750FM-12+000599999V0202601N004119999999N9999999N1+00211+00011100111ADDKA1120M+00461KA2120N+00121MD1210341+9999REMSYN092AAXX  06184 02990 46/// /2608 10021 20001 40011 52034 222// 333 10046 20012 555 787// 0/614;
0102029900999992000020621004+60300+020750FM-12+000599999V0202501N005119999999N9999999N1+00301+00041100331ADDMD1210201+9999REMSYN076AAXX  06214 02990 46/// /2510 10030 20004 40033 52020 222// 555 783// 0/212;
0102029900999992000020700004+60300+020750FM-12+000599999V0202401N002619999999N9999999N1-00011-00131100381ADDMD1210051+9999REMSYN076AAXX  07004 02990 46/// /2405 11001 21013 40038 52005 222// 555 791// 0/510;
0102029900999992000020703004+60300+020750FM-12+000599999V0202201N003619999999N9999999N1+00021-00071100331ADDMD1710061+9999REMSYN076AAXX  07034 02990 46/// /2207 10002 21007 40033 57006 222// 555 793// 0/508;
0144029900999992000020706004+60300+020750FM-12+000599999V0201801N002619999999N9999999N1+00081+00001100141ADDKA1120M+00351KA2120N-00041MD1710191+9999REMSYN092AAXX  07064 02990 46/// /1805 10008 21000 40014 57019 222// 333 10035 21004 555 794// 0/608;
0102029900999992000020709004+60300+020750FM-12+000599999V0201801N004119999999N9999999N1+00161+00081099831ADDMD1710301+9999REMSYN076AAXX  07094 02990 46/// /1808 10016 20008 49983 57030 222// 555 795// 0/308;
0102029900999992000020712004+60300+020750FM-12+000599999V0201801N005119999999N9999999N1+00261+00181099371ADDMD1710451+9999REMSYN076AAXX  07124 02990 46/// /1810 10026 20018 49937 57045 222// 555 795// 0/110;
0102029900999992000020715004+60300+020750FM-12+000599999V0202001N005119999999N9999999N1+00231+00151098951ADDMD1710411+9999REMSYN076AAXX  07154 02990 46/// /2010 10023 20015 49895 57041 222// 555 795// 0/312;
0144029900999992000020718004+60300+020750FM-12+000599999V0202001N006219999999N9999999N1+00201+00091098731ADDKA1120M+00351KA2120N+00001MD1710201+9999REMSYN092AAXX  07184 02990 46/// /2012 10020 20009 49873 57020 222// 333 10035 20000 555 793// 0/514;
0102029900999992000020721004+60300+020750FM-12+000599999V0202101N007219999999N9999999N1+00221+00021098601ADDMD1710121+9999REMSYN076AAXX  07214 02990 46/// /2114 10022 20002 49860 57012 222// 555 787// 0/114;
0102029900999992000020800004+60300+020750FM-12+000599999V0202101N005119999999N9999999N1+00231+00021098551ADDMD1710051+9999REMSYN076AAXX  08004 02990 46/// /2110 10023 20002 49855 57005 222// 555 786// 0/614;
0102029900999992000020803004+60300+020750FM-12+000599999V0202301N004619999999N9999999N1+00191-00031098551ADDMD1710011+9999REMSYN076AAXX  08034 02990 46/// /2309 10019 21003 49855 57001 222// 555 785// 0/111;
0144029900999992000020806004+60300+020750FM-12+000599999V0202201N004619999999N9999999N1+00051-00141098571ADDKA1120M+00281KA2120N+00051MD1210021+9999REMSYN092AAXX  08064 02990 46/// /2209 10005 21014 49857 52002 222// 333 10028 20005 555 787// 0/310;
0102029900999992000020809004+60300+020750FM-12+000599999V0202101N004619999999N9999999N1+00141+00001098551ADDMD1710021+9999REMSYN076AAXX  08094 02990 46/// /2109 10014 21000 49855 57002 222// 555 790// 0/009;
0102029900999992000020812004+60300+020750FM-12+000599999V0202101N003119999999N9999999N1+00231+00021098471ADDMD1710071+9999REMSYN076AAXX  08124 02990 46/// /2106 10023 20002 49847 57007 222// 555 786// 0/609;
0102029900999992000020815004+60300+020750FM-12+000599999V0202201N002619999999N9999999N1+00101-00021098371ADDMD1710101+9999REMSYN076AAXX  08154 02990 46/// /2205 10010 21002 49837 57010 222// 555 791// 0/508;
0144029900999992000020818004+60300+020750FM-12+000599999V0202201N003119999999N9999999N1-00041-00121098401ADDKA1120M+00321KA2120N-00171MD1210031+9999REMSYN092AAXX  08184 02990 46/// /2206 11004 21012 49840 52003 222// 333 10032 21017 555 794// 0/106;
0102029900999992000020821004+60300+020750FM-12+000599999V0202201N002619999999N9999999N1-00141-00201098351ADDMD1710061+9999REMSYN076AAXX  08214 02990 46/// /2205 11014 21020 49835 57006 222// 555 795// 0/606;
0102029900999992000020900004+60300+020750FM-12+000599999V0202501N001519999999N9999999N1-00051-00111098391ADDMD1210041+9999REMSYN076AAXX  09004 02990 46/// /2503 11005 21011 49839 52004 222// 555 795// 0/605;
0102029900999992000020903004+60300+020750FM-12+000599999V0202601N001519999999N9999999N1-00061-00121098391ADDMD1410001+9999REMSYN076AAXX  09034 02990 46/// /2603 11006 21012 49839 54000 222// 555 795// 0/204;
0102029900999992000020909004+60300+020750FM-12+000599999V0203201N002619999999N9999999N1-00121-00201098761ADDMD1210191+9999REMSYN076AAXX  09094 02990 46/// /3205 11012 21020 49876 52019 222// 555 794// 0/105;
0102029900999992000020912004+60300+020750FM-12+000599999V0203401N002619999999N9999999N1+00031-00141099061ADDMD1210291+9999REMSYN076AAXX  09124 02990 46/// /3405 10003 21014 49906 52029 222// 555 788// 0/407;
0101029900999992000020915004+60300+020750FM-12+000599999V0203301N003119999999N9999999N1+00071-00101099431ADDMD1210351+9999REMSYN075AAXX  09154 02990 46/// /3306 1000721010 49943 52035 222// 555 788// 0/408;
0144029900999992000020918004+60300+020750FM-12+000599999V0203201N003619999999N9999999N1+00011-00161099841ADDKA1120M+00101KA2120N-00181MD1210401+9999REMSYN092AAXX  09184 02990 46/// /3207 10001 21016 49984 52040 222// 333 10010 21018 555 788// 0/108;
0102029900999992000020921004+60300+020750FM-12+000599999V0203001N004119999999N9999999N1-00071-00241100231ADDMD1210371+9999REMSYN076AAXX  09214 02990 46/// /3008 11007 21024 40023 52037 222// 555 788// 0/108;
0102029900999992000021000004+60300+020750FM-12+000599999V0202601N003619999999N9999999N1-00161-00301100441ADDMD1210201+9999REMSYN076AAXX  10004 02990 46/// /2607 11016 21030 40044 52020 222// 555 790// 0/608;
0102029900999992000021003004+60300+020750FM-12+000599999V0202601N002619999999N9999999N1-00221-00341100651ADDMD1210201+9999REMSYN076AAXX  10034 02990 46/// /2605 11022 21034 40065 52020 222// 555 791// 0/507;
0144029900999992000021006004+60300+020750FM-12+000599999V0202101N003119999999N9999999N1-00221-00331100681ADDKA1120M+00041KA2120N-00331MD1210031+9999REMSYN092AAXX  10064 02990 46/// /2106 11022 21033 40068 52003 222// 333 10004 21033 555 792// 0/107;
0102029900999992000021009004+60300+020750FM-12+000599999V0201901N004119999999N9999999N1-00021-00251100601ADDMD1710081+9999REMSYN076AAXX  10094 02990 46/// /1908 11002 21025 40060 57008 222// 555 784// 0/008;
0102029900999992000021012004+60300+020750FM-12+000599999V0202001N005119999999N9999999N1+00221-00101100481ADDMD1710121+9999REMSYN076AAXX  10124 02990 46/// /2010 10022 21010 40048 57012 222// 555 779// 0/211;
0102029900999992000021015004+60300+020750FM-12+000599999V0201801N005719999999N9999999N1+00111-00081100111ADDMD1710361+9999REMSYN076AAXX  10154 02990 46/// /1811 10011 21008 40011 57036 222// 555 787// 0/412;
0144029900999992000021018004+60300+020750FM-12+000599999V0201901N006219999999N9999999N1+00211+00041099891ADDKA1120M+00281KA2120N-00281MD1710221+9999REMSYN092AAXX  10184 02990 46/// /1912 10021 20004 49989 57022 222// 333 10028 21028 555 789// 0/512;
0102029900999992000021021004+60300+020750FM-12+000599999V0201901N007719999999N9999999N1+00311+00091099511ADDMD1710361+9999REMSYN076AAXX  10214 02990 46/// /1915 10031 20009 49951 57036 222// 555 786// 0/115;
0102029900999992000021100004+60300+020750FM-12+000599999V0202001N007719999999N9999999N1+00231+00091099371ADDMD1710141+9999REMSYN076AAXX  11004 02990 46/// /2015 10023 20009 49937 57014 222// 555 791// 0/417;
0102029900999992000021103004+60300+020750FM-12+000599999V0202101N007219999999N9999999N1+00211+00031099281ADDMD1710081+9999REMSYN076AAXX  11034 02990 46/// /2114 10021 20003 49928 57008 222// 555 788// 0/516;
0144029900999992000021106004+60300+020750FM-12+000599999V0202301N004619999999N9999999N1+00151+00001099501ADDKA1120M+00351KA2120N+00051MD1210211+9999REMSYN092AAXX  11064 02990 46/// /2309 10015 20000 49950 52021 222// 333 10035 20005 555 790// 0/614;
0102029900999992000021109004+60300+020750FM-12+000599999V0202401N005119999999N9999999N1+00251-00091099781ADDMD1210281+9999REMSYN076AAXX  11094 02990 46/// /2410 10025 21009 49978 52028 222// 555 778// 0/413;
0102029900999992000021112004+60300+020750FM-12+000599999V0202401N005119999999N9999999N1+00321-00071099931ADDMD1210141+9999REMSYN076AAXX  11124 02990 46/// /2410 10032 21007 49993 52014 222// 555 775// 0/211;
0102029900999992000021115004+60300+020750FM-12+000599999V0202401N006219999999N9999999N1+00261-00061100031ADDMD1210111+9999REMSYN076AAXX  11154 02990 46/// /2412 10026 21006 40003 52011 222// 555 779// 0/515;
0144029900999992000021118004+60300+020750FM-12+000599999V0202401N006219999999N9999999N1+00271+00001100231ADDKA1120M+00421KA2120N+00111MD1210191+9999REMSYN092AAXX  11184 02990 46/// /2412 10027 21000 40023 52019 222// 333 10042 20011 555 782// 0/413;
0102029900999992000021121004+60300+020750FM-12+000599999V0202601N007219999999N9999999N1+00351-00051100481ADDMD1210251+9999REMSYN076AAXX  11214 02990 46/// /2614 10035 21005 40048 52025 222// 555 775// 0/114;
0102029900999992000021200004+60300+020750FM-12+000599999V0202601N005719999999N9999999N1+00191-00111100761ADDMD1210271+9999REMSYN076AAXX  12004 02990 46/// /2611 10019 21011 40076 52027 222// 555 780// 0/614;
0102029900999992000021203004+60300+020750FM-12+000599999V0202301N004119999999N9999999N1+00041-00161100931ADDMD1210151+9999REMSYN076AAXX  12034 02990 46/// /2308 10004 21016 40093 52015 222// 555 786// 0/612;
0144029900999992000021206004+60300+020750FM-12+000599999V0202301N004619999999N9999999N1+00051-00061100971ADDKA1120M+00371KA2120N-00011MD1210051+9999REMSYN092AAXX  12064 02990 46/// /2309 10005 21006 40097 52005 222// 333 10037 21001 555 792// 0/009;
0102029900999992000021209004+60300+020750FM-12+000599999V0202201N003619999999N9999999N1+00161+00021100961ADDMD1710011+9999REMSYN076AAXX  12094 02990 46/// /2207 10016 20002 40096 57001 222// 555 791// 0/609;
0102029900999992000021212004+60300+020750FM-12+000599999V0202101N005719999999N9999999N1+00261+00061100931ADDMD1710041+9999REMSYN076AAXX  12124 02990 46/// /2111 10026 20006 40093 57004 222// 555 787// 0/112;
0102029900999992000021215004+60300+020750FM-12+000599999V0202001N004619999999N9999999N1+00201+00001100811ADDMD1710101+9999REMSYN076AAXX  12154 02990 46/// /2009 10020 20000 40081 57010 222// 555 787// 0/312;
0144029900999992000021218004+60300+020750FM-12+000599999V0202001N005119999999N9999999N1+00151-00011100631ADDKA1120M+00321KA2120N+00011MD1710181+9999REMSYN092AAXX  12184 02990 46/// /2010 10015 21001 40063 57018 222// 333 10032 20001 555 789// 0/312;
0102029900999992000021221004+60300+020750FM-12+000599999V0201901N005719999999N9999999N1+00271+00101100411ADDMD1710221+9999REMSYN076AAXX  12214 02990 46/// /1911 10027 20010 40041 57022 222// 555 789// 0/311;
0102029900999992000021300004+60300+020750FM-12+000599999V0201901N006219999999N9999999N1+00271+00051100171ADDMD1710221+9999REMSYN076AAXX  13004 02990 46/// /1912 10027 20005 40017 57022 222// 555 786// 0/113;
0102029900999992000021303004+60300+020750FM-12+000599999V0201701N006219999999N9999999N1+00181+00001099821ADDMD1710341+9999REMSYN076AAXX  13034 02990 46/// /1712 10018 20000 49982 57034 222// 555 788// 0/614;
0144029900999992000021306004+60300+020750FM-12+000599999V0201801N005119999999N9999999N1+00171+00061099571ADDKA1120M+00281KA2120N+00101MD1710251+9999REMSYN092AAXX  13064 02990 46/// /1810 10017 20006 49957 57025 222// 333 10028 20010 555 793// 0/512;
0102029900999992000021309004+60300+020750FM-12+000599999V0202001N004619999999N9999999N1+00161-00031099461ADDMD1710111+9999REMSYN076AAXX  13094 02990 46/// /2009 10016 21003 49946 57011 222// 555 787// 0/411;
0102029900999992000021312004+60300+020750FM-12+000599999V0202001N004619999999N9999999N1+00201-00051099451ADDMD1710011+9999REMSYN076AAXX  13124 02990 46/// /2009 10020 21005 49945 57001 222// 555 783// 0/411;
0102029900999992000021315004+60300+020750FM-12+000599999V0202201N004119999999N9999999N1+00211-00111099521ADDMD1210061+9999REMSYN076AAXX  13154 02990 46/// /2208 10021 21011 49952 52006 222// 555 779// 0/310;
0144029900999992000021318004+60300+020750FM-12+000599999V0202001N004119999999N9999999N1+00131-00071099531ADDKA1120M+00261KA2120N+00091MD1210011+9999REMSYN092AAXX  13184 02990 46/// /2008 10013 21007 49953 52001 222// 333 10026 20009 555 786// 0/109;
0102029900999992000021321004+60300+020750FM-12+000599999V0202201N005119999999N9999999N1+00101-00091099501ADDMD1710021+9999REMSYN076AAXX  13214 02990 46/// /2210 10010 21009 49950 57002 222// 555 787// 0/010;
0102029900999992000021400004+60300+020750FM-12+000599999V0202301N002119999999N9999999N1+00011-00071099491ADDMD1710011+9999REMSYN076AAXX  14004 02990 46/// /2304 10001 21007 49949 57001 222// 555 794// 0/610;
0102029900999992000021403004+60300+020750FM-12+000599999V0202601N003119999999N9999999N1-00081-00141099591ADDMD1210111+9999REMSYN076AAXX  14034 02990 46/// /2606 11008 21014 49959 52011 222// 555 795// 0/106;
0144029900999992000021406004+60300+020750FM-12+000599999V0202701N003119999999N9999999N1-00171-00251099701ADDKA1120M+00181KA2120N-00191MD1210131+9999REMSYN092AAXX  14064 02990 46/// /2706 11017 21025 49970 52013 222// 333 10018 21019 555 794// 0/207;
0102029900999992000021409004+60300+020750FM-12+000599999V0202801N004119999999N9999999N1-00051-00201099901ADDMD1210201+9999REMSYN076AAXX  14094 02990 46/// /2808 11005 21020 49990 52020 222// 555 789// 0/109;
0102029900999992000021412004+60300+020750FM-12+000599999V0203101N003119999999N9999999N1+00041-00151100061ADDMD1210151+9999REMSYN076AAXX  14124 02990 46/// /3106 10004 21015 40006 52015 222// 555 787// 0/608;
0102029900999992000021415004+60300+020750FM-12+000599999V0203101N004619999999N9999999N1+00081-00041100331ADDMD1210281+9999REMSYN076AAXX  14154 02990 46/// /3109 10008 21004 40033 52028 222// 555 791// 0/412;
0144029900999992000021418004+60300+020750FM-12+000599999V0203001N004619999999N9999999N1+00061-00161100501ADDKA1120M+00101KA2120N-00201MD1210171+9999REMSYN092AAXX  14184 02990 46/// /3009 10006 21016 40050 52017 222// 333 10010 21020 555 785// 0/311;
0102029900999992000021421004+60300+020750FM-12+000599999V0202801N003619999999N9999999N1-00021-00221100561ADDMD1210061+9999REMSYN076AAXX  14214 02990 46/// /2807 11002 21022 40056 52006 222// 555 786// 0/310;
0102029900999992000021500004+60300+020750FM-12+000599999V0202501N003119999999N9999999N1-00171-00351100631ADDMD1210061+9999REMSYN076AAXX  15004 02990 46/// /2506 11017 21035 40063 52006 222// 555 787// 0/607;
0102029900999992000021503004+60300+020750FM-12+000599999V0202201N001519999999N9999999N1-00331-00461100461ADDMD1710161+9999REMSYN076AAXX  15034 02990 46/// /2203 11033 21046 40046 57016 222// 555 790// 0/606;
0144029900999992000021506004+60300+020750FM-12+000599999V0201801N002119999999N9999999N1-00221-00341100361ADDKA1120M+00071KA2120N-00361MD1710101+9999REMSYN092AAXX  15064 02990 46/// /1804 11022 21034 40036 57010 222// 333 10007 21036 555 791// 0/205;
0102029900999992000021509004+60300+020750FM-12+000599999V0202001N002619999999N9999999N1-00061-00281100211ADDMD1710151+9999REMSYN076AAXX  15094 02990 46/// /2005 11006 21028 40021 57015 222// 555 785// 0/105;
0102029900999992000021512004+60300+020750FM-12+000599999V0202001N003619999999N9999999N1+00051-00171100071ADDMD1710141+9999REMSYN076AAXX  15124 02990 46/// /2007 10005 21017 40007 57014 222// 555 785// 0/207;
0084029900999992000021515004+60300+020750FM-12+000599999V0201701N003119999999N9999999N1+00061-00061999999REMSYN075AAXX  15154 02990 46/// /1706 10006 21006 4988 57018 222// 555 791// 0/608;
0144029900999992000021518004+60300+020750FM-12+000599999V0201901N003119999999N9999999N1+00081-00011099671ADDKA1120M+00101KA2120N-00241MD1710211+9999REMSYN092AAXX  15184 02990 46/// /1906 10008 21001 49967 57021 222// 333 10010 21024 555 793// 0/207;
0102029900999992000021521004+60300+020750FM-12+000599999V0201901N002119999999N9999999N1+00051-00021099461ADDMD1710101+9999REMSYN076AAXX  15214 02990 46/// /1904 10005 21002 49946 57010 222// 555 795// 0/505;
0102029900999992000021603004+60300+020750FM-12+000599999V0202101N001519999999N9999999N1+00021-00051099401ADDMD1710061+9999REMSYN076AAXX  16034 02990 46/// /2103 10002 21005 49940 57006 222// 555 795// 0/504;
0144029900999992000021606004+60300+020750FM-12+000599999V0202301N001019999999N9999999N1-00011-00081099391ADDKA1120M+00091KA2120N-00031MD1710011+9999REMSYN092AAXX  16064 02990 46/// /2302 11001 21008 49939 57001 222// 333 10009 21003 555 795// 0/604;
0102029900999992000021609004+60300+020750FM-12+000599999V0202501N001519999999N9999999N1+00041-00031099441ADDMD1210051+9999REMSYN076AAXX  16094 02990 46/// /2503 10004 21003 49944 52005 222// 555 795// 0/103;
0102029900999992000021615004+60300+020750FM-12+000599999V0203201N002119999999N9999999N1-00011-00081099571ADDMD1210051+9999REMSYN076AAXX  16154 02990 46/// /3204 11001 21008 49957 52005 222// 555 795// 0/604;
0144029900999992000021618004+60300+020750FM-12+000599999V0202901N000519999999N9999999N1-00051-00141099661ADDKA1120M+00101KA2120N-00061MD1210081+9999REMSYN092AAXX  16184 02990 46/// /2901 11005 21014 49966 52008 222// 333 10010 21006 555 793// 0/504;
0102029900999992000021621004+60300+020750FM-12+000599999V0203101N001019999999N9999999N1-00091-00171099731ADDMD1210071+9999REMSYN076AAXX  16214 02990 46/// /3102 11009 21017 49973 52007 222// 555 794// 0/203;
0102029900999992000021700004+60300+020750FM-12+000599999V0203301N002619999999N9999999N1-00131-00241099761ADDMD1210031+9999REMSYN076AAXX  17004 02990 46/// /3305 11013 21024 49976 52003 222// 555 792// 0/105;
0102029900999992000021703004+60300+020750FM-12+000599999V0203501N002119999999N9999999N1-00081-00191099761ADDMD1410001+9999REMSYN076AAXX  17034 02990 46/// /3504 11008 21019 49976 54000 222// 555 792// 0/605;
0144029900999992000021706004+60300+020750FM-12+000599999V0200301N003119999999N9999999N1-00071-00191099761ADDKA1120M-00021KA2120N-00161MD1710011+9999REMSYN092AAXX  17064 02990 46/// /0306 11007 21019 49976 57001 222// 333 11002 21016 555 791// 0/106;
0102029900999992000021709004+60300+020750FM-12+000599999V0200301N004119999999N9999999N1-00131-00361099791ADDMD1210021+9999REMSYN076AAXX  17094 02990 46/// /0308 11013 21036 49979 52002 222// 555 784// 0/108;
0102029900999992000021712004+60300+020750FM-12+000599999V0200201N004619999999N9999999N1-00121-00351099811ADDMD1210021+9999REMSYN076AAXX  17124 02990 46/// /0209 11012 21035 49981 52002 222// 555 784// 0/109;
0102029900999992000021715004+60300+020750FM-12+000599999V0203501N004119999999N9999999N1-00121-00351099931ADDMD1210111+9999REMSYN076AAXX  17154 02990 46/// /3508 11012 21035 49993 52011 222// 555 784// 0/609;
0144029900999992000021718004+60300+020750FM-12+000599999V0203201N003119999999N9999999N1-00061-00341100081ADDKA1120M-00041KA2120N-00181MD1210141+9999REMSYN092AAXX  17184 02990 46/// /3206 11006 21034 40008 52014 222// 333 11004 21018 555 781// 0/609;
0102029900999992000021721004+60300+020750FM-12+000599999V0202601N002119999999N9999999N1-00251-00371100201ADDMD1210121+9999REMSYN076AAXX  17214 02990 46/// /2604 11025 21037 40020 52012 222// 555 791// 0/506;
0102029900999992000021800004+60300+020750FM-12+000599999V0202201N002619999999N9999999N1-00241-00331100241ADDMD1210031+9999REMSYN076AAXX  18004 02990 46/// /2205 11024 21033 40024 52003 222// 555 793// 0/105;
0102029900999992000021803004+60300+020750FM-12+000599999V0202501N002619999999N9999999N1-00281-00431100251ADDMD1410001+9999REMSYN076AAXX  18034 02990 46/// /2505 11028 21043 40025 54000 222// 555 789// 0/507;
0144029900999992000021806004+60300+020750FM-12+000599999V0202501N002619999999N9999999N1-00321-00441100291ADDKA1120M-00061KA2120N-00391MD1210031+9999REMSYN092AAXX  18064 02990 46/// /2505 11032 21044 40029 52003 222// 333 11006 21039 555 791// 0/105;
0102029900999992000021809004+60300+020750FM-12+000599999V0202601N002619999999N9999999N1-00141-00341100391ADDMD1210101+9999REMSYN076AAXX  18094 02990 46/// /2605 11014 21034 40039 52010 222// 555 786// 0/507;
0102029900999992000021812004+60300+020750FM-12+000599999V0202901N003619999999N9999999N1-00121-00501100551ADDMD1210151+9999REMSYN076AAXX  18124 02990 46/// /2907 11012 21050 40055 52015 222// 555 775// 0/107;
0102029900999992000021815004+60300+020750FM-12+000599999V0202901N002119999999N9999999N1-00131-00461100581ADDMD1210021+9999REMSYN076AAXX  18154 02990 46/// /2904 11013 21046 40058 52002 222// 555 778// 0/407;
0144029900999992000021818004+60300+020750FM-12+000599999V0202701N001019999999N9999999N1-00391-00581100671ADDKA1120M-00061KA2120N-00411MD1210091+9999REMSYN092AAXX  18184 02990 46/// /2702 11039 21058 40067 52009 222// 333 11006 21041 555 786// 0/506;
0102029900999992000021821004+60300+020750FM-12+000599999V0202201N001019999999N9999999N1-00521-00611100761ADDMD1210091+9999REMSYN076AAXX  18214 02990 46/// /2202 11052 21061 40076 52009 222// 555 793// 0/102;
0102029900999992000021900004+60300+020750FM-12+000599999V0202001N002119999999N9999999N1-00531-00621100871ADDMD1210111+9999REMSYN076AAXX  19004 02990 46/// /2004 11053 21062 40087 52011 222// 555 793// 0/104;
0102029900999992000021903004+60300+020750FM-12+000599999V0202101N001519999999N9999999N1-00231-00351100901ADDMD1210031+9999REMSYN076AAXX  19034 02990 46/// /2103 11023 21035 40090 52003 222// 555 791// 0/604;
0144029900999992000021906004+60300+020750FM-12+000599999V0201301N001019999999N9999999N1-00361-00491100961ADDKA1120M-00221KA2120N-00601MD1210061+9999REMSYN092AAXX  19064 02990 46/// /1302 11036 21049 40096 52006 222// 333 11022 21060 555 790// 0/503;
0102029900999992000021909004+60300+020750FM-12+000599999V0201401N002119999999N9999999N1-00081-00231101071ADDMD1210101+9999REMSYN076AAXX  19094 02990 46/// /1404 11008 21023 40107 52010 222// 555 789// 0/204;
0102029900999992000021912004+60300+020750FM-12+000599999V0202101N003119999999N9999999N1+00101-00231101151ADDMD1210071+9999REMSYN076AAXX  19124 02990 46/// /2106 10010 21023 40115 52007 222// 555 778// 0/006;
0100029900999992000021915004+60300+020750FM-12+000599999V0202301N002119999999N9999999N1-00021-00371101201ADDMD1210051+9999REMSYN074AAXX  19154 02990 46/// /2304 11002 21037 40120 52005 222// 555 777 0/609;
0144029900999992000021918004+60300+020750FM-12+000599999V0202401N002619999999N9999999N1-00301-00561101311ADDKA1120M+00161KA2120N-00381MD1210101+9999REMSYN092AAXX  19184 02990 46/// /2405 11030 21056 40131 52010 222// 333 10016 21038 555 782// 0/407;
0102029900999992000021921004+60300+020750FM-12+000599999V0202501N002119999999N9999999N1-00311-00431101451ADDMD1210131+9999REMSYN076AAXX  19214 02990 46/// /2504 11031 21043 40145 52013 222// 555 791// 0/605;
0102029900999992000022000004+60300+020750FM-12+000599999V0202701N002119999999N9999999N1-00371-00521101581ADDMD1210121+9999REMSYN076AAXX  20004 02990 46/// /2704 11037 21052 40158 52012 222// 555 789// 0/606;
0102029900999992000022003004+60300+020750FM-12+000599999V0202601N002119999999N9999999N1-00411-00571101661ADDMD1210071+9999REMSYN076AAXX  20034 02990 46/// /2604 11041 21057 40166 52007 222// 555 788// 0/506;
0144029900999992000022006004+60300+020750FM-12+000599999V0202501N002119999999N9999999N1-00481-00641101741ADDKA1120M-00211KA2120N-00501MD1210071+9999REMSYN092AAXX  20064 02990 46/// /2504 11048 21064 40174 52007 222// 333 11021 21050 555 788// 0/305;
0102029900999992000022009004+60300+020750FM-12+000599999V0202301N001019999999N9999999N1-00291-00461101861ADDMD1210111+9999REMSYN076AAXX  20094 02990 46/// /2302 11029 21046 40186 52011 222// 555 788// 0/504;
0102029900999992000022012004+60300+020750FM-12+000599999V0203001N002119999999N9999999N1-00011-00291101951ADDMD1210101+9999REMSYN076AAXX  20124 02990 46/// /3004 11001 21029 40195 52010 222// 555 781// 0/004;
0102029900999992000022015004+60300+020750FM-12+000599999V0203001N002119999999N9999999N1-00011-00261102011ADDMD1210061+9999REMSYN076AAXX  20154 02990 46/// /3004 11001 21026 40201 52006 222// 555 783// 0/605;
0144029900999992000022018004+60300+020750FM-12+000599999V0203001N002619999999N9999999N1-00061-00291102101ADDKA1120M+00061KA2120N-00501MD1210081+9999REMSYN092AAXX  20184 02990 46/// /3005 11006 21029 40210 52008 222// 333 10006 21050 555 784// 0/406;
0102029900999992000022021004+60300+020750FM-12+000599999V0203001N002619999999N9999999N1-00111-00281102161ADDMD1210061+9999REMSYN076AAXX  20214 02990 46/// /3005 11011 21028 40216 52006 222// 555 788// 0/605;
0102029900999992000022100004+60300+020750FM-12+000599999V0203601N001519999999N9999999N1-00041-00351102251ADDMD1210091+9999REMSYN076AAXX  21004 02990 46/// /3603 11004 21035 40225 52009 222// 555 779// 0/506;
0102029900999992000022103004+60300+020750FM-12+000599999V0203101N002119999999N9999999N1-00051-00381102241ADDMD1710011+9999REMSYN076AAXX  21034 02990 46/// /3104 11005 21038 40224 57001 222// 555 778// 0/105;
0144029900999992000022106004+60300+020750FM-12+000599999V0203301N002119999999N9999999N1-00071-00381102221ADDKA1120M-00011KA2120N-00171MD1710021+9999REMSYN092AAXX  21064 02990 46/// /3304 11007 21038 40222 57002 222// 333 11001 21017 555 779// 0/405;
0102029900999992000022109004+60300+020750FM-12+000599999V0203101N003119999999N9999999N1-00031-00401102261ADDMD1210041+9999REMSYN076AAXX  21094 02990 46/// /3106 11003 21040 40226 52004 222// 555 776// 0/107;
0102029900999992000022115004+60300+020750FM-12+000599999V0203001N004119999999N9999999N1-00111-00441102221ADDMD1710031+9999REMSYN076AAXX  21154 02990 46/// /3008 11011 21044 40222 57003 222// 555 778// 0/109;
0144029900999992000022118004+60300+020750FM-12+000599999V0202801N003619999999N9999999N1-00111-00391102181ADDKA1120M+00061KA2120N-00171MD1710041+9999REMSYN092AAXX  21184 02990 46/// /2807 11011 21039 40218 57004 222// 333 10006 21017 555 781// 0/608;
0102029900999992000022121004+60300+020750FM-12+000599999V0203101N003119999999N9999999N1-00111-00421102141ADDMD1710041+9999REMSYN076AAXX  21214 02990 46/// /3106 11011 21042 40214 57004 222// 555 779// 0/608;
0102029900999992000022200004+60300+020750FM-12+000599999V0202601N002619999999N9999999N1-00171-00371102111ADDMD1710031+9999REMSYN076AAXX  22004 02990 46/// /2605 11017 21037 40211 57003 222// 555 786// 0/407;
0102029900999992000022203004+60300+020750FM-12+000599999V0202901N002119999999N9999999N1-00181-00321102111ADDMD1410001+9999REMSYN076AAXX  22034 02990 46/// /2904 11018 21032 40211 54000 222// 555 790// 0/406;
0144029900999992000022206004+60300+020750FM-12+000599999V0200701N002119999999N9999999N1-00301-00541102141ADDKA1120M-00051KA2120N-00341MD1210031+9999REMSYN092AAXX  22064 02990 46/// /0704 11030 21054 40214 52003 222// 333 11005 21034 555 783// 0/305;
0102029900999992000022209004+60300+020750FM-12+000599999V0200401N002119999999N9999999N1-00351-00591102261ADDMD1210121+9999REMSYN076AAXX  22094 02990 46/// /0404 11035 21059 40226 52012 222// 555 783// 0/004;
0102029900999992000022212004+60300+020750FM-12+000599999V0200701N001019999999N9999999N1-00251-00851102321ADDMD1210061+9999REMSYN076AAXX  22124 02990 46/// /0702 11025 21085 40232 52006 222// 555 763// 0/604;
0102029900999992000022215004+60300+020750FM-12+000599999V0200401N001019999999N9999999N1-00261-00801102351ADDMD1210021+9999REMSYN076AAXX  22154 02990 46/// /0402 11026 21080 40235 52002 222// 555 766// 0/402;
0144029900999992000022218004+60300+020750FM-12+000599999V0200301N001519999999N9999999N1-00381-00671102401ADDKA1120M-00221KA2120N-00421MD1210061+9999REMSYN092AAXX  22184 02990 46/// /0303 11038 21067 40240 52006 222// 333 11022 21042 555 780// 0/304;
0102029900999992000022221004+60300+020750FM-12+000599999V0200701N002119999999N9999999N1-00401-00701102471ADDMD1210061+9999REMSYN076AAXX  22214 02990 46/// /0704 11040 21070 40247 52006 222// 555 779// 0/105;
0102029900999992000022300004+60300+020750FM-12+000599999V0200701N001519999999N9999999N1-00551-00771102541ADDMD1210061+9999REMSYN076AAXX  23004 02990 46/// /0703 11055 21077 40254 52006 222// 555 784// 0/505;
0102029900999992000022303004+60300+020750FM-12+000599999V0200701N001519999999N9999999N1-00661-00791102541ADDMD1410001+9999REMSYN076AAXX  23034 02990 46/// /0703 11066 21079 40254 54000 222// 555 790// 0/104;
0144029900999992000022306004+60300+020750FM-12+000599999V0200701N002619999999N9999999N1-00791-00911102641ADDKA1120M-00311KA2120N-00821MD1210091+9999REMSYN092AAXX  23064 02990 46/// /0705 11079 21091 40264 52009 222// 333 11031 21082 555 791// 0/005;
0102029900999992000022309004+60300+020750FM-12+000599999V0201101N001519999999N9999999N1-00871-01011102761ADDMD1210121+9999REMSYN076AAXX  23094 02990 46/// /1103 11087 21101 40276 52012 222// 555 789// 0/605;
0102029900999992000022312004+60300+020750FM-12+000599999V0201601N001019999999N9999999N1-00641-00761102741ADDMD1710021+9999REMSYN076AAXX  23124 02990 46/// /1602 11064 21076 40274 57002 222// 555 791// 0/603;
0102029900999992000022315004+60300+020750FM-12+000599999V0200801N000519999999N9999999N1-00611-00741102741ADDMD1410001+9999REMSYN076AAXX  23154 02990 46/// /0801 11061 21074 40274 54000 222// 555 790// 0/202;
0144029900999992000022318004+60300+020750FM-12+000599999V0200801N001519999999N9999999N1-00641-00811102721ADDKA1120M-00551KA2120N-00921MD1710021+9999REMSYN092AAXX  23184 02990 46/// /0803 11064 21081 40272 57002 222// 333 11055 21092 555 787// 0/103;
0102029900999992000022321004+60300+020750FM-12+000599999V0201401N002119999999N9999999N1-00721-00851102651ADDMD1710071+9999REMSYN076AAXX  23214 02990 46/// /1404 11072 21085 40265 57007 222// 555 790// 0/004;
0102029900999992000022400004+60300+020750FM-12+000599999V0201201N002119999999N9999999N1-00491-00611102601ADDMD1710041+9999REMSYN076AAXX  24004 02990 46/// /1204 11049 21061 40260 57004 222// 555 791// 0/605;
0102029900999992000022403004+60300+020750FM-12+000599999V0201401N002619999999N9999999N1-00381-00491102451ADDMD1710151+9999REMSYN076AAXX  24034 02990 46/// /1405 11038 21049 40245 57015 222// 555 792// 0/105;
0144029900999992000022406004+60300+020750FM-12+000599999V0201501N002619999999N9999999N1-00331-00451102261ADDKA1120M-00291KA2120N-00841MD1710181+9999REMSYN092AAXX  24064 02990 46/// /1505 11033 21045 40226 57018 222// 333 11029 21084 555 791// 0/105;
0102029900999992000022409004+60300+020750FM-12+000599999V0201701N003619999999N9999999N1-00261-00531102071ADDMD1710181+9999REMSYN076AAXX  24094 02990 46/// /1707 11026 21053 40207 57018 222// 555 781// 0/108;
0102029900999992000022412004+60300+020750FM-12+000599999V0201401N004619999999N9999999N1-00341-00651101851ADDMD1710201+9999REMSYN076AAXX  24124 02990 46/// /1409 11034 21065 40185 57020 222// 555 779// 0/211;
0100029900999992000022415004+60300+020750FM-12+000599999V0201401N006219999999N9999999N1-00311-00651101421ADDMD1710411+9999REMSYN074AAXX  24154 02990 46/// /1412 11031 21065 40142 57041 222// 555 777 0/012;
0144029900999992000022418004+60300+020750FM-12+000599999V0201301N006219999999N9999999N1-00331-00521100961ADDKA1120M-00231KA2120N-00411MD1710431+9999REMSYN092AAXX  24184 02990 46/// /1312 11033 21052 40096 57043 222// 333 11023 21041 555 786// 0/213;
0102029900999992000022421004+60300+020750FM-12+000599999V0201301N006219999999N9999999N1-00311-00401100601ADDMD1710361+9999REMSYN076AAXX  24214 02990 46/// /1312 11031 21040 40060 57036 222// 555 793// 0/514;
0102029900999992000022500004+60300+020750FM-12+000599999V0201301N006219999999N9999999N1-00271-00351100311ADDMD1710281+9999REMSYN076AAXX  25004 02990 46/// /1312 11027 21035 40031 57028 222// 555 794// 0/514;
0102029900999992000022503004+60300+020750FM-12+000599999V0201201N005119999999N9999999N1-00251-00331100151ADDMD1710161+9999REMSYN076AAXX  25034 02990 46/// /1210 11025 21033 40015 57016 222// 555 794// 0/613;
0144029900999992000022506004+60300+020750FM-12+000599999V0201001N005119999999N9999999N1-00231-00311100011ADDKA1120M-00201KA2120N-00391MD1710141+9999REMSYN092AAXX  25064 02990 46/// /1010 11023 21031 40001 57014 222// 333 11020 21039 555 794// 0/512;
0102029900999992000022509004+60300+020750FM-12+000599999V0200701N003119999999N9999999N1-00241-00331100151ADDMD1210141+9999REMSYN076AAXX  25094 02990 46/// /0706 11024 21033 40015 52014 222// 555 793// 0/610;
0102029900999992000022512004+60300+020750FM-12+000599999V0200701N001019999999N9999999N1-00221-00311100301ADDMD1210151+9999REMSYN076AAXX  25124 02990 46/// /0702 11022 21031 40030 52015 222// 555 793// 0/606;
0102029900999992000022515004+60300+020750FM-12+000599999V0202601N002619999999N9999999N1-00121-00231100431ADDMD1210131+9999REMSYN076AAXX  25154 02990 46/// /2605 11012 21023 40043 52013 222// 555 792// 0/205;
0117029900999992000022518004+60300+020750FM-12+000599999V0202701N002619999999N9999999N1-00171-00291100631ADDMD1210191+9999REMSYN091AAXX  25184 02990 46/// /2705 11017 21029 40063 52019 222// 333 1109 21029 555 791// 0/105;
0102029900999992000022521004+60300+020750FM-12+000599999V0202701N002619999999N9999999N1-00191-00331100781ADDMD1210151+9999REMSYN076AAXX  25214 02990 46/// /2705 11019 21033 40078 52015 222// 555 790// 0/406;
0102029900999992000022600004+60300+020750FM-12+000599999V0202801N003119999999N9999999N1-00151-00301100961ADDMD1210181+9999REMSYN076AAXX  26004 02990 46/// /2806 11015 21030 40096 52018 222// 555 789// 0/306;
0102029900999992000022603004+60300+020750FM-12+000599999V0200301N001519999999N9999999N1-00281-00461101201ADDMD1210231+9999REMSYN076AAXX  26034 02990 46/// /0303 11028 21046 40120 52023 222// 555 787// 0/606;
0144029900999992000022606004+60300+020750FM-12+000599999V0200501N001519999999N9999999N1-00341-00611101421ADDKA1120M-00111KA2120N-00371MD1210211+9999REMSYN092AAXX  26064 02990 46/// /0503 11034 21061 40142 52021 222// 333 11011 21037 555 781// 0/104;
0102029900999992000022609004+60300+020750FM-12+000599999V0201501N000519999999N9999999N1-00261-00501101581ADDMD1210151+9999REMSYN076AAXX  26094 02990 46/// /1501 11026 21050 40158 52015 222// 555 783// 0/603;
0102029900999992000022612004+60300+020750FM-12+000599999V0201501N001519999999N9999999N1-00141-00471101761ADDMD1210171+9999REMSYN076AAXX  26124 02990 46/// /1503 11014 21047 40176 52017 222// 555 778// 0/103;
0102029900999992000022615004+60300+020750FM-12+000599999V0201401N001519999999N9999999N1-00041-00341101841ADDMD1210081+9999REMSYN076AAXX  26154 02990 46/// /1403 11004 21034 40184 52008 222// 555 780// 0/303;
0144029900999992000022618004+60300+020750FM-12+000599999V0201701N002119999999N9999999N1-00141-00311101881ADDKA1120M-00021KA2120N-00391MD1210041+9999REMSYN092AAXX  26184 02990 46/// /1704 11014 21031 40188 52004 222// 333 11002 21039 555 788// 0/305;
0102029900999992000022621004+60300+020750FM-12+000599999V0201801N003619999999N9999999N1-00111-00311101881ADDMD1410001+9999REMSYN076AAXX  26214 02990 46/// /1807 11011 21031 40188 54000 222// 555 786// 0/107;
0102029900999992000022700004+60300+020750FM-12+000599999V0201701N003619999999N9999999N1-00061-00231101891ADDMD1210021+9999REMSYN076AAXX  27004 02990 46/// /1707 11006 21023 40189 52002 222// 555 788// 0/508;
0102029900999992000022703004+60300+020750FM-12+000599999V0201701N003619999999N9999999N1+00061-00051101791ADDMD1710101+9999REMSYN076AAXX  27034 02990 46/// /1707 10006 21005 40179 57010 222// 555 792// 0/108;
0144029900999992000022706004+60300+020750FM-12+000599999V0202101N003619999999N9999999N1-00061-00141101701ADDKA1120M+00111KA2120N-00161MD1710091+9999REMSYN092AAXX  27064 02990 46/// /2107 11006 21014 40170 57009 222// 333 10011 21016 555 794// 0/109;
0102029900999992000022709004+60300+020750FM-12+000599999V0202001N004619999999N9999999N1+00021-00051101511ADDMD1710181+9999REMSYN076AAXX  27094 02990 46/// /2009 10002 21005 40151 57018 222// 555 795// 0/209;
0102029900999992000022712004+60300+020750FM-12+000599999V0202101N004619999999N9999999N1+00191+00011101471ADDMD1710031+9999REMSYN076AAXX  27124 02990 46/// /2109 10019 20001 40147 57003 222// 555 788// 0/512;
0102029900999992000022715004+60300+020750FM-12+000599999V0202101N007719999999N9999999N1+00161-00031101141ADDMD1710311+9999REMSYN076AAXX  27154 02990 46/// /2115 10016 21003 40114 57031 222// 555 787// 0/015;
0144029900999992000022718004+60300+020750FM-12+000599999V0202101N007719999999N9999999N1+00201+00001100791ADDKA1120M+00251KA2120N-00151MD1710341+9999REMSYN092AAXX  27184 02990 46/// /2115 10020 21000 40079 57034 222// 333 10025 21015 555 786// 0/517;
0102029900999992000022721004+60300+020750FM-12+000599999V0202101N008719999999N9999999N1+00261-00031100481ADDMD1710291+9999REMSYN076AAXX  27214 02990 46/// /2117 10026 21003 40048 57029 222// 555 781// 0/117;
0102029900999992000022803004+60300+020750FM-12+000599999V0202101N008219999999N9999999N1+00211-00011099881ADDMD1710351+9999REMSYN076AAXX  28034 02990 46/// /2116 10021 21001 49988 57035 222// 555 785// 0/617;
0144029900999992000022806004+60300+020750FM-12+000599999V0202101N007719999999N9999999N1+00231+00031099701ADDKA1120M+00291KA2120N+00181MD1710181+9999REMSYN092AAXX  28064 02990 46/// /2115 10023 20003 49970 57018 222// 333 10029 20018 555 787// 0/616;
0102029900999992000022809004+60300+020750FM-12+000599999V0202001N007219999999N9999999N1+00271+00101099541ADDMD1710151+9999REMSYN076AAXX  28094 02990 46/// /2014 10027 20010 49954 57015 222// 555 789// 0/516;
0102029900999992000022812004+60300+020750FM-12+000599999V0202101N007219999999N9999999N1+00241+00131099341ADDMD1710201+9999REMSYN076AAXX  28124 02990 46/// /2114 10024 20013 49934 57020 222// 555 793// 0/216;
0102029900999992000022815004+60300+020750FM-12+000599999V0202101N007219999999N9999999N1+00271+00121099131ADDMD1710201+9999REMSYN076AAXX  28154 02990 46/// /2114 10027 20012 49913 57020 222// 555 790// 0/615;
0144029900999992000022818004+60300+020750FM-12+000599999V0202101N005719999999N9999999N1+00151+00061099111ADDKA1120M+00321KA2120N+00151MD1710031+9999REMSYN092AAXX  28184 02990 46/// /2111 10015 20006 49911 57003 222// 333 10032 20015 555 794// 0/514;
0102029900999992000022821004+60300+020750FM-12+000599999V0202301N005719999999N9999999N1+00211+00031099271ADDMD1210171+9999REMSYN076AAXX  28214 02990 46/// /2311 10021 20003 49927 52017 222// 555 788// 0/611;
0102029900999992000022900004+60300+020750FM-12+000599999V0202301N004619999999N9999999N1+00211+00011099251ADDMD1710021+9999REMSYN076AAXX  29004 02990 46/// /2309 10021 20001 49925 57002 222// 555 787// 0/612;
0102029900999992000022903004+60300+020750FM-12+000599999V0202201N005719999999N9999999N1+00171-00021099291ADDMD1210041+9999REMSYN076AAXX  29034 02990 46/// /2211 10017 21002 49929 52004 222// 555 787// 0/212;
0144029900999992000022906004+60300+020750FM-12+000599999V0202401N006219999999N9999999N1+00171-00081099341ADDKA1120M+00241KA2120N+00131MD1210051+9999REMSYN092AAXX  29064 02990 46/// /2412 10017 21008 49934 52005 222// 333 10024 20013 555 783// 0/313;
0102029900999992000022909004+60300+020750FM-12+000599999V0202301N006719999999N9999999N1+00291-00021099551ADDMD1210211+9999REMSYN076AAXX  29094 02990 46/// /2313 10029 21002 49955 52021 222// 555 780// 0/513;
0102029900999992000022912004+60300+020750FM-12+000599999V0202301N007219999999N9999999N1+00551-00011099711ADDMD1210151+9999REMSYN076AAXX  29124 02990 46/// /2314 10055 21001 49971 52015 222// 555 767// 0/215;
0102029900999992000022915004+60300+020750FM-12+000599999V0202101N005719999999N9999999N1+00301-00021099821ADDMD1210101+9999REMSYN076AAXX  29154 02990 46/// /2111 10030 21002 49982 52010 222// 555 779// 0/616;
0144029900999992000022918004+60300+020750FM-12+000599999V0202001N004619999999N9999999N1+00221-00031099811ADDKA1120M+00551KA2120N+00141MD1710011+9999REMSYN092AAXX  29184 02990 46/// /2009 10022 21003 49981 57001 222// 333 10055 20014 555 783// 0/313;
0102029900999992000022921004+60300+020750FM-12+000599999V0202001N004619999999N9999999N1+00171-00081099711ADDMD1710091+9999REMSYN076AAXX  29214 02990 46/// /2009 10017 21008 49971 57009 222// 555 783// 0/212;
0102029900999992000030103004+60300+020750FM-12+000599999V0201701N004119999999N9999999N1+00181+00041099271ADDMD1710301+9999REMSYN076AAXX  01034 02990 46/// /1708 10018 20004 49927 57030 222// 555 791// 0/209;
0144029900999992000030106004+60300+020750FM-12+000599999V0201701N004119999999N9999999N1+00161+00021098981ADDKA1120M+00281KA2120N+00131MD1710281+9999REMSYN092AAXX  01064 02990 46/// /1708 10016 20002 49898 57028 222// 333 10028 20013 555 791// 0/210;
0102029900999992000030109004+60300+020750FM-12+000599999V0201601N005119999999N9999999N1+00231+00121098721ADDMD1710251+9999REMSYN076AAXX  01094 02990 46/// /1610 10023 20012 49872 57025 222// 555 793// 0/310;
0102029900999992000030112004+60300+020750FM-12+000599999V0201401N004119999999N9999999N1+00211+00121098341ADDMD1710361+9999REMSYN076AAXX  01124 02990 46/// /1408 10021 20012 49834 57036 222// 555 794// 0/610;
0102029900999992000030115004+60300+020750FM-12+000599999V0201501N003619999999N9999999N1+00171+00081097901ADDMD1710431+9999REMSYN076AAXX  01154 02990 46/// /1507 10017 20008 49790 57043 222// 555 794// 0/509;
0144029900999992000030118004+60300+020750FM-12+000599999V0201801N002619999999N9999999N1+00181+00101097671ADDKA1120M+00261KA2120N+00151MD1710231+9999REMSYN092AAXX  01184 02990 46/// /1805 10018 20010 49767 57023 222// 333 10026 20015 555 795// 0/608;
0102029900999992000030121004+60300+020750FM-12+000599999V0202301N005119999999N9999999N1+00011-00061097711ADDMD1210041+9999REMSYN076AAXX  01214 02990 46/// /2310 10001 21006 49771 52004 222// 555 795// 0/010;
0102029900999992000030203004+60300+020750FM-12+000599999V0202601N005119999999N9999999N1+00071-00011098311ADDMD1210341+9999REMSYN076AAXX  02034 02990 46/// /2610 10007 21001 49831 52034 222// 555 794// 0/312;
0144029900999992000030206004+60300+020750FM-12+000599999V0202801N003619999999N9999999N1+00031-00061098651ADDKA1120M+00221KA2120N-00031MD1210331+9999REMSYN092AAXX  02064 02990 46/// /2807 10003 21006 49865 52033 222// 333 10022 21003 555 793// 0/511;
0102029900999992000030209004+60300+020750FM-12+000599999V0202701N004619999999N9999999N1+00061-00081098971ADDMD1210301+9999REMSYN076AAXX  02094 02990 46/// /2709 10006 21008 49897 52030 222// 555 790// 0/109;
0102029900999992000030212004+60300+020750FM-12+000599999V0202901N006219999999N9999999N1-00061-00311099291ADDMD1210321+9999REMSYN076AAXX  02124 02990 46/// /2912 11006 21031 49929 52032 222// 555 783// 0/412;
0102029900999992000030215004+60300+020750FM-12+000599999V0203001N006219999999N9999999N1-00041-00481099601ADDMD1210301+9999REMSYN076AAXX  02154 02990 46/// /3012 11004 21048 49960 52030 222// 555 772// 0/214;
0144029900999992000030218004+60300+020750FM-12+000599999V0202301N003119999999N9999999N1-00181-00561099821ADDKA1120M+00071KA2120N-00201MD1210221+9999REMSYN092AAXX  02184 02990 46/// /2306 11018 21056 49982 52022 222// 333 10007 21020 555 775// 0/612;
