0120031400999992000010100504+55870-004430FM-15+0008EGPF V0202701N004612200019N0090001N1+00601+00301999999ADDGA1021+009009999GF102991999999999999999999MA1101591999999MW1001REMMET045EGPF 010050Z 27009KT 9000 FEW030 06/03 Q1016;
0072031400999992000010101504+55870-004430FM-15+0008EGPF V0202501N00311220001CN0099001N1+00601+00301999999ADDMA1101691999999MW1001REMMET039EGPF 010150Z 25006KT CAVOK 06/03 Q1017;
0072031400999992000010102504+55870-004430FM-15+0008EGPF V0202401N00411220001CN0099001N1+00501+00201999999ADDMA1101801999999MW1001REMMET039EGPF 010250Z 24008KT CAVOK 05/02 Q1018;
0120031400999992000010106204+55870-004430FM-15+0008EGPF V0209999C000012200019N0080001N1+00401+00301999999ADDGA1021+007209999GF102991999999999999999999MA1101901999999MW1001REMMET045EGPF 010620Z 00000KT 8000 FEW024 04/03 Q1019;
0101031400999992000010106504+55870-004430FM-15+0008EGPF V0202301N002612200019N0070001N1+00301+00201999999ADDGF100991999999999999999999MA1101901999999MW1001REMMET042EGPF 010650Z 23005KT 7000 SKC 03/02 Q1019;
0151031400999992000010107504+55870-004430FM-15+0008EGPF V0202201N003112200019N0090001N1+00501+00301999999ADDGA1021+004209999GA2021+007809999GF102991999999999999999999MA1102001999999MW1001REMMET060EGPF 010750Z 22006KT 190V250 9000 FEW014 FEW026 05/03 Q1020;
0167031400999992000010108504+55870-004430FM-15+0008EGPF V0201901N003110036019N0070001N1+00601+00501999999ADDGA1021+002709999GA2071+003609999GF107991999999999999999999MA1102001999999MW1161REMMET057EGPF 010850Z 19006KT 7000 VCSH FEW009 BKN012 06/05 Q1020;EQDQ01    003PRSWM1
0143031400999992000010109504+55870-004430FM-15+0008EGPF V0202301N003612200019N0080001N1+00601+00401999999ADDGA1021+003009999GA2021+004809999GF104991999999999999999999MA1102001999999MW1001REMMET052EGPF 010950Z 23007KT 8000 SCT010 SCT016 06/04 Q1020;
0143031400999992000010110504+55870-004430FM-15+0008EGPF V0202201N005112200019N0112651N1+00601+00401999999ADDGA1021+003309999GA2021+007509999GF102991999999999999999999MA1102001999999MW1001REMMET052EGPF 011050Z 22010KT 9999 FEW011 FEW025 06/04 Q1020;
0120031400999992000010111504+55870-004430FM-15+0008EGPF V0202201N006210105019N0112651N1+00801+00501999999ADDGA1071+010509999GF107991999999999999999999MA1101901999999MW1001REMMET045EGPF 011150Z 22012KT 9999 BKN035 08/05 Q1019;
0120031400999992000010112504+55870-004430FM-15+0008EGPF V0202101N008710105019N0112651N1+00701+00501999999ADDGA1071+010509999GF107991999999999999999999MA1101901999999MW1001REMMET045EGPF 011250Z 21017KT 9999 BKN035 07/05 Q1019;
0143031400999992000010113504+55870-004430FM-15+0008EGPF V0202201N009312200019N0112651N1+00701+00501999999ADDGA1021+012009999GA2021+060009999GF104991999999999999999999MA1101801999999MW1001REMMET052EGPF 011350Z 22018KT 9999 SCT040 SCT200 07/05 Q1018;
0120031400999992000010114504+55870-004430FM-15+0008EGPF V0202101N009810105019N0112651N1+00701+00501999999ADDGA1071+010509999GF107991999999999999999999MA1101801999999MW1001REMMET045EGPF 011450Z 21019KT 9999 BKN035 07/05 Q1018;
0143031400999992000010115504+55870-004430FM-15+0008EGPF V0202201N009810105019N0112651N1+00801+00501999999ADDGA1021+006009999GA2071+010509999GF107991999999999999999999MA1101801999999MW1001REMMET052EGPF 011550Z 22019KT 9999 SCT020 BKN035 08/05 Q1018;
0143031400999992000010116504+55870-004430FM-15+0008EGPF V0202201N008710066019N0112651N1+00801+00501999999ADDGA1071+006609999GA2071+008409999GF107991999999999999999999MA1101801999999MW1001REMMET052EGPF 011650Z 22017KT 9999 BKN022 BKN028 08/05 Q1018;
0120031400999992000010118204+55870-004430FM-15+0008EGPF V0202001N008710105019N0112651N1+00701+00501999999ADDGA1071+010509999GF107991999999999999999999MA1101691999999MW1001REMMET045EGPF 011820Z 20017KT 9999 BKN035 07/05 Q1017;
0143031400999992000010118504+55870-004430FM-15+0008EGPF V0202001N007210090019N0112651N1+00801+00401999999ADDGA1021+007209999GA2071+009009999GF107991999999999999999999MA1101691999999MW1001REMMET052EGPF 011850Z 20014KT 9999 SCT024 BKN030 08/04 Q1017;
0120031400999992000010119504+55870-004430FM-15+0008EGPF V0202201N007210090019N0112651N1+00701+00501999999ADDGA1071+009009999GF107991999999999999999999MA1101691999999MW1001REMMET045EGPF 011950Z 22014KT 9999 BKN030 07/05 Q1017;
0120031400999992000010120504+55870-004430FM-15+0008EGPF V0202201N008210066019N0112651N1+00801+00501999999ADDGA1081+006609999GF108991999999999999999999MA1101691999999MW1001REMMET045EGPF 012050Z 22016KT 9999 OVC022 08/05 Q1017;
0120031400999992000010121504+55870-004430FM-15+0008EGPF V0202101N008210072019N0112651N1+00801+00501999999ADDGA1081+007209999GF108991999999999999999999MA1101591999999MW1001REMMET045EGPF 012150Z 21016KT 9999 OVC024 08/05 Q1016;
0131031400999992000010122504+55870-004430FM-15+0008EGPF V0202101N009310072019N0112651N1+00801+00501999999ADDGA1071+007209999GF107991999999999999999999MA1101491999999MW1001OC101491REMMET048EGPF 012250Z 21018G29KT 9999 BKN024 08/05 Q1015;
0143031400999992000010123504+55870-004430FM-15+0008EGPF V0202101N013410060019N0112651N1+00801+00501999999ADDGA1071+006009999GA2071+007809999GF107991999999999999999999MA1101391999999MW1001REMMET052EGPF 012350Z 21026KT 9999 BKN020 BKN026 08/05 Q1014;
0187031400999992000010201204+55870-004430FM-15+0008EGPF V0202201N010310054019N0040001N1+00801+00601999999ADDGA1021+003609999GA2071+005409999GF107991999999999999999999MA1101391999999MW1651REMMET061EGPF 020120Z 22020KT 4000 +RA SCT012 BKN018 08/06 Q1014 RERA;EQDQ01+000003PRSWM1Q02    003PRSWM1
0181031400999992000010203504+55870-004430FM-15+0008EGPF V0202301N006210090019N0080001N1+00801+00701999999ADDGA1021+003009999GA2081+009009999GF108991999999999999999999MA1101491999999MW1531REMMET055EGPF 020350Z 23012KT 8000 DZ FEW010 OVC030 08/07 Q1015;EQDQ01+000003PRSWM1Q02    003PRSWM1
0162031400999992000010205204+55870-004430FM-15+0008EGPF V0202301N005710135019N0112651N1+00801+00601999999ADDGA1021+009009999GA2071+013509999GF107991999999999999999999MA1101591999999MW1001REMMET052EGPF 020520Z 23011KT 9999 SCT030 BKN045 08/06 Q1016;EQDQ01+000000PRSWM2
0185031400999992000010205504+55870-004430FM-15+0008EGPF V0202401N005110135019N0112651N1+00801+00601999999ADDGA1021+007209999GA2021+009009999GA3071+013509999GF107991999999999999999999MA1101691999999MW1001REMMET059EGPF 020550Z 24010KT 9999 FEW024 SCT030 BKN045 08/06 Q1017;EQDQ01+000000PRSWM2
0139031400999992000010206504+55870-004430FM-15+0008EGPF V0202301N005712200019N0112651N1+00701+00401999999ADDGA1021+012009999GF104991999999999999999999MA1101801999999MW1001REMMET045EGPF 020650Z 23011KT 9999 SCT040 07/04 Q1018;EQDQ01+000000PRSWM2
0139031400999992000010207504+55870-004430FM-15+0008EGPF V0202501N005112200019N0112651N1+00601+00401999999ADDGA1021+012009999GF102991999999999999999999MA1101801999999MW1001REMMET045EGPF 020750Z 25010KT 9999 FEW040 06/04 Q1018;EQDQ01+000000PRSWM2
0139031400999992000010208504+55870-004430FM-15+0008EGPF V0202601N007212200019N0112651N1+00701+00401999999ADDGA1021+010509999GF104991999999999999999999MA1101901999999MW1001REMMET045EGPF 020850Z 26014KT 9999 SCT035 07/04 Q1019;EQDQ01+000000PRSWM2
0139031400999992000010209504+55870-004430FM-15+0008EGPF V0202501N004612200019N0112651N1+00701+00401999999ADDGA1021+007509999GF102991999999999999999999MA1101901999999MW1001REMMET045EGPF 020950Z 25009KT 9999 FEW025 07/04 Q1019;EQDQ01+000000PRSWM2
0139031400999992000010210504+55870-004430FM-15+0008EGPF V0202401N004112200019N0112651N1+00701+00401999999ADDGA1021+013509999GF102991999999999999999999MA1101901999999MW1001REMMET045EGPF 021050Z 24008KT 9999 FEW045 07/04 Q1019;EQDQ01+000000PRSWM2
0139031400999992000010211504+55870-004430FM-15+0008EGPF V0202201N004112200019N0112651N1+00801+00501999999ADDGA1021+006009999GF102991999999999999999999MA1101801999999MW1001REMMET045EGPF 021150Z 22008KT 9999 FEW020 08/05 Q1018;EQDQ01+000000PRSWM2
0091031400999992000010212504+55870-004430FM-15+0008EGPF V0202101N00411220001CN0099001N1+00901+00501999999ADDMA1101801999999MW1001REMMET039EGPF 021250Z 21008KT CAVOK 09/05 Q1018;EQDQ01+000000PRSWM2
0162031400999992000010213504+55870-004430FM-15+0008EGPF V0202101N004110270019N0112651N1+00801+00501999999ADDGA1021+006009999GA2071+027009999GF107991999999999999999999MA1101801999999MW1001REMMET052EGPF 021350Z 21008KT 9999 FEW020 BKN090 08/05 Q1018;EQDQ01+000000PRSWM2
0162031400999992000010214504+55870-004430FM-15+0008EGPF V0201901N004110240019N0112651N1+00801+00501999999ADDGA1021+006009999GA2071+024009999GF107991999999999999999999MA1101691999999MW1001REMMET052EGPF 021450Z 19008KT 9999 FEW020 BKN080 08/05 Q1017;EQDQ01+000000PRSWM2
0162031400999992000010215504+55870-004430FM-15+0008EGPF V0201601N003612200019N0112651N1+00801+00401999999ADDGA1021+006009999GA2021+012009999GF102991999999999999999999MA1101491999999MW1001REMMET052EGPF 021550Z 16007KT 9999 FEW020 FEW040 08/04 Q1015;EQDQ01+000000PRSWM2
0147031400999992000010216504+55870-004430FM-15+0008EGPF V0201301N003610090019N0112651N1+00801+00401999999ADDGA1071+009009999GF107991999999999999999999MA1101391999999MW1001REMMET053EGPF 021650Z 13007KT 110V170 9999 BKN030 08/04 Q1014;EQDQ01+000000PRSWM2
0161031400999992000010217504+55870-004430FM-15+0008EGPF V0201301N003612200019N0070001N1+99999+99999999999ADDGA1021+003609999GA2021+005409999GF104991999999999999999999MW1001REMMET066EGPF 021750Z 13007KT 110V180 7000 FEW012 SCT018BKN035 08/05 Q1012;EQDQ01+000000PRSWM2
0162031400999992000010218504+55870-004430FM-15+0008EGPF V0201401N004110060019N0112651N1+00801+00601999999ADDGA1021+004209999GA2081+006009999GF108991999999999999999999MA1101021999999MW1001REMMET052EGPF 021850Z 14008KT 9999 SCT014 OVC020 08/06 Q1010;EQDQ01+000000PRSWM2
0170031400999992000010219504+55870-004430FM-15+0008EGPF V0201701N003610066019N0112651N1+00901+00601999999ADDGA1021+004809999GA2071+006609999GF107991999999999999999999MA1100811999999MW1001REMMET060EGPF 021950Z 17007KT 140V200 9999 SCT016 BKN022 09/06 Q1008;EQDQ01+000000PRSWM2
0212031400999992000010220504+55870-004430FM-15+0008EGPF V0201901N006710120019N0112651N1+00801+00601999999ADDGA1021+004209999GA2021+008409999GA3071+012009999GF107991999999999999999999MA1100711999999MW1801REMMET070EGPF 022050Z 19013KT 9999 -SHRA FEW014 SCT028 BKN040 08/06 Q1007 REDZ;EQDQ01+000003PRSWM1Q02    003PRSWM1
0204031400999992000010221504+55870-004430FM-15+0008EGPF V0202001N005710090019N0112651N1+00901+00601999999ADDGA1021+005409999GA2021+007209999GA3071+009009999GF107991999999999999999999MA1100511999999MW1001OC101081REMMET070EGPF 022150Z 20011G21KT 160V230 9999 FEW018 SCT024 BKN030 09/06 Q1005;EQDQ01+000000PRSWM2
0182031400999992000010222504+55870-004430FM-15+0008EGPF V0201901N011310090019N0050001N1+01001+00701999999ADDGA1021+007209999GA2071+009009999GF107991999999999999999999MA1100201999999MW1651REMMET056EGPF 022250Z 19022KT 5000 +RA FEW024 BKN030 10/07 Q1002;EQDQ01+000003PRSWM1Q02    003PRSWM1
0204031400999992000010223504+55870-004430FM-15+0008EGPF V0202001N012910105019N0090001N1+01001+00801999999ADDGA1021+004209999GA2021+007809999GA3071+010509999GF107991999999999999999999MA1100101999999MW1631REMMET062EGPF 022350Z 20025KT 9000 RA FEW014 SCT026 BKN035 10/08 Q1001;EQDQ01+000003PRSWM1Q02    003PRSWM1
0183031400999992000010300504+55870-004430FM-15+0008EGPF V0202101N012310090019N0060001N1+01001+00801999999ADDGA1021+007209999GA2071+009009999GF107991999999999999999999MA1100101999999MW1811REMMET057EGPF 030050Z 21024KT 6000 SHRA SCT024 BKN030 10/08 Q1001;EQDQ01+000003PRSWM1Q02    003PRSWM1
0173031400999992000010303504+55870-004430FM-15+0008EGPF V0202301N009310150019N0112651N1+00801+00301999999ADDGA1021+010509999GA2081+015009999GF108991999999999999999999MA1100311999999MW1001OC101441REMMET055EGPF 030350Z 23018G28KT 9999 SCT035 OVC050 08/03 Q1003;EQDQ01+000000PRSWM2
0204031400999992000010304504+55870-004430FM-15+0008EGPF V0202301N009310120019N0112651N1+00801+00301999999ADDGA1021+008409999GA2071+012009999GA3071+018009999GF107991999999999999999999MA1100311999999MW1531REMMET062EGPF 030450Z 23018KT 9999 DZ FEW028 BKN040 BKN060 08/03 Q1003;EQDQ01+000003PRSWM1Q02    003PRSWM1
0200031400999992000010305504+55870-004430FM-15+0008EGPF V0202401N008210084019N0112651N1+00701+00401999999ADDGA1021+003009999GA2071+008409999GF107991999999999999999999MA1100511999999MW1801OC101341REMMET066EGPF 030550Z 24016G26KT 9999 -SHRA FEW010 BKN028 07/04 Q1005 RERA;EQDQ01+000003PRSWM1Q02    003PRSWM1
0218031400999992000010306504+55870-004430FM-15+0008EGPF V0202601N008710120019N0040001N1+00701+00401999999ADDGA1021+003609999GA2021+008409999GA3071+012009999GF107991999999999999999999MA1100511999999MW1821OC101441REMMET068EGPF 030650Z 26017G28KT 4000 +SHRA FEW012 SCT028 BKN040 07/04 Q1005;EQDQ01+000003PRSWM1Q02    003PRSWM1
0212031400999992000010307504+55870-004430FM-15+0008EGPF V0202301N008210090019N0112651N1+00701+00401999999ADDGA1021+005409999GA2071+009009999GA3071+013509999GF107991999999999999999999MA1100511999999MW1801REMMET070EGPF 030750Z 23016KT 9999 -SHRA FEW018 BKN030 BKN045 07/04 Q1005 RERA;EQDQ01+000003PRSWM1Q02    003PRSWM1
0178031400999992000010308504+55870-004430FM-15+0008EGPF V0202401N010310135019N0112651N1+00701+00301999999ADDGA1021+009009999GA2071+013509999GF107991999999999999999999MA1100611999999MW1001OC101591REMMET060EGPF 030850Z 24020G31KT 9999 SCT030 BKN045 07/03 Q1006 RERA;EQDQ01+000000PRSWM2
0173031400999992000010309504+55870-004430FM-15+0008EGPF V0202401N011812200019N0112651N1+00701+00301999999ADDGA1021+009009999GA2021+013509999GF104991999999999999999999MA1100711999999MW1001OC101801REMMET055EGPF 030950Z 24023G35KT 9999 FEW030 SCT045 07/03 Q1007;EQDQ01+000000PRSWM2
0207031400999992000010310504+55870-004430FM-15+0008EGPF V0202301N007210105019N0050001N1+00601+00301999999ADDGA1021+005409999GA2021+007809999GA3071+010509999GF107991999999999999999999MA1100811999999MW1801REMMET065EGPF 031050Z 23014KT 5000 -SHRA FEW018 SCT026 BKN035 06/03 Q1008;EQDQ01+000003PRSWM1Q02    003PRSWM1
0167031400999992000010311504+55870-004430FM-15+0008EGPF V0202301N008712200019N0112651N1+00601+00401999999ADDGA1021+004209999GA2021+008409999GF104991999999999999999999MA1100811999999MW1001REMMET057EGPF 031150Z 23017KT 9999 FEW014 SCT028 06/04 Q1008 RERA;EQDQ01+000000PRSWM2
0223031400999992000010312504+55870-004430FM-15+0008EGPF V0202401N009810084019N0070001N1+00501+00301999999ADDGA1021+004809999GA2021+006609999GA3071+008409999GF107991999999999999999999MA1100911999999MW1801OC101491REMMET073EGPF 031250Z 24019G29KT 7000 -SHRA FEW016 SCT022 BKN028 05/03 Q1009 RERA;EQDQ01+000003PRSWM1Q02    003PRSWM1
0212031400999992000010313504+55870-004430FM-15+0008EGPF V0202301N009310066019N0112651N1+00501+00201999999ADDGA1021+002409999GA2071+006609999GA3071+013509999GF107991999999999999999999MA1100811999999MW1801REMMET070EGPF 031350Z 23018KT 9999 -SHRA FEW008 BKN022 BKN045 05/02 Q1008 RERA;EQDQ01+000003PRSWM1Q02    003PRSWM1
0185031400999992000010314504+55870-004430FM-15+0008EGPF V0202301N005712200019N0112651N1+00501+00301999999ADDGA1021+002709999GA2021+007509999GA3021+013509999GF104991999999999999999999MA1100811999999MW1001REMMET059EGPF 031450Z 23011KT 9999 FEW009 FEW025 SCT045 05/03 Q1008;EQDQ01+000000PRSWM2
0181031400999992000010315504+55870-004430FM-15+0008EGPF V0202401N003610105019N0090001N1+00501+00201999999ADDGA1021+007809999GA2071+010509999GF107991999999999999999999MA1100811999999MW1531REMMET055EGPF 031550Z 24007KT 9000 DZ SCT026 BKN035 05/02 Q1008;EQDQ01+000003PRSWM1Q02    003PRSWM1
0167031400999992000010316504+55870-004430FM-15+0008EGPF V0202301N005712200019N0112651N1+00501+00201999999ADDGA1021+004509999GA2021+010509999GF104991999999999999999999MA1100911999999MW1001REMMET057EGPF 031650Z 23011KT 9999 FEW015 SCT035 05/02 Q1009 RERA;EQDQ01+000000PRSWM2
0207031400999992000010317504+55870-004430FM-15+0008EGPF V0202601N006212200019N0112651N1+00401+00201999999ADDGA1021+004209999GA2021+006009999GA3021+009009999GF104991999999999999999999MA1100911999999MW1801REMMET065EGPF 031750Z 26012KT 9999 -SHRA FEW014 FEW020 SCT030 04/02 Q1009;EQDQ01+000003PRSWM1Q02    003PRSWM1
0184031400999992000010318504+55870-004430FM-15+0008EGPF V0202501N003112200019N0112651N1+00501+00201999999ADDGA1021+006009999GA2021+010509999GF104991999999999999999999MA1101021999999MW1801REMMET058EGPF 031850Z 25006KT 9999 -SHRA FEW020 SCT035 05/02 Q1010;EQDQ01+000003PRSWM1Q02    003PRSWM1
0197031400999992000010319504+55870-004430FM-15+0008EGPF V0202401N002112200019N0090001N1+00401+00201999999ADDGA1021+006009999GA2021+008409999GF104991999999999999999999MA1101021999999MW1801REMMET071EGPF 031950Z 24004KT 190V330 9000 -SHRA FEW020 SCT028 04/02 Q1010 RERA;EQDQ01+000003PRSWM1Q02    003PRSWM1
0144031400999992000010320504+55870-004430FM-15+0008EGPF V0202401N005110120019N0112651N1+00401+00201999999ADDGA1071+012009999GF107991999999999999999999MA1101021999999MW1001REMMET050EGPF 032050Z 24010KT 9999 BKN040 04/02 Q1010 RERA;EQDQ01+000000PRSWM2
0215031400999992000010321504+55870-004430FM-15+0008EGPF V0202401N004110084019N0050001N1+00401+00201999999ADDGA1021+004809999GA2021+006609999GA3071+008409999GF107991999999999999999999MA1101081999999MW1821REMMET073EGPF 032150Z 24008KT 200V280 5000 +SHRA SCT016 SCT022 BKN028 04/02 Q1011;EQDQ01+000003PRSWM1Q02    003PRSWM1
0162031400999992000010322504+55870-004430FM-15+0008EGPF V0202301N003110090019N0112651N1+00401+00201999999ADDGA1021+007209999GA2071+009009999GF107991999999999999999999MA1101081999999MW1001REMMET052EGPF 032250Z 23006KT 9999 FEW024 BKN030 04/02 Q1011;EQDQ01+000000PRSWM2
0185031400999992000010323504+55870-004430FM-15+0008EGPF V0201901N003110270019N0112651N1+00301+00201999999ADDGA1021+009009999GA2021+013509999GA3071+027009999GF107991999999999999999999MA1101021999999MW1001REMMET059EGPF 032350Z 19006KT 9999 SCT030 SCT045 BKN090 03/02 Q1010;EQDQ01+000000PRSWM2
0162031400999992000010400504+55870-004430FM-15+0008EGPF V0202201N004110480019N0112651N1+00401+00201999999ADDGA1021+009009999GA2071+048009999GF107991999999999999999999MA1101021999999MW1001REMMET052EGPF 040050Z 22008KT 9999 FEW030 BKN160 04/02 Q1010;EQDQ01+000000PRSWM2
0162031400999992000010403504+55870-004430FM-15+0008EGPF V0201301N003110270019N0112651N1+00401+00201999999ADDGA1021+012009999GA2071+027009999GF107991999999999999999999MA1100711999999MW1001REMMET052EGPF 040350Z 13006KT 9999 FEW040 BKN090 04/02 Q1007;EQDQ01+000000PRSWM2
0170031400999992000010404504+55870-004430FM-15+0008EGPF V0201101N004110135019N0112651N1+00501+00201999999ADDGA1021+009009999GA2071+013509999GF107991999999999999999999MA1100611999999MW1001REMMET060EGPF 040450Z 11008KT 080V150 9999 SCT030 BKN045 05/02 Q1006;EQDQ01+000000PRSWM2
0162031400999992000010405504+55870-004430FM-15+0008EGPF V0200901N004110105019N0112651N1+00501+00301999999ADDGA1021+007809999GA2081+010509999GF108991999999999999999999MA1100411999999MW1001REMMET052EGPF 040550Z 09008KT 9999 FEW026 OVC035 05/03 Q1004;EQDQ01+000000PRSWM2
0162031400999992000010406504+55870-004430FM-15+0008EGPF V0201601N003610135019N0112651N1+00601+00401999999ADDGA1021+009009999GA2071+013509999GF107991999999999999999999MA1100311999999MW1001REMMET052EGPF 040650Z 16007KT 9999 SCT030 BKN045 06/04 Q1003;EQDQ01+000000PRSWM2
0170031400999992000010407504+55870-004430FM-15+0008EGPF V0201101N002112200019N0112651N1+00701+00401999999ADDGA1021+005409999GA2021+012009999GF104991999999999999999999MA1100101999999MW1001REMMET060EGPF 040750Z 11004KT 070V160 9999 FEW018 SCT040 07/04 Q1001;EQDQ01+000000PRSWM2
0205031400999992000010408504+55870-004430FM-15+0008EGPF V0201801N006210090019N0112651N1+00701+00501999999ADDGA1021+007209999GA2071+009009999GA3071+013509999GF107991999999999999999999MA1099901999999MW1611REMMET063EGPF 040850Z 18012KT 9999 -RA FEW024 BKN030 BKN045 07/05 Q0999;EQDQ01+000003PRSWM1Q02    003PRSWM1
0184031400999992000010409504+55870-004430FM-15+0008EGPF V0201901N010310180019N0112651N1+00801+00501999999ADDGA1021+012009999GA2071+018009999GF107991999999999999999999MA1099801999999MW1801REMMET058EGPF 040950Z 19020KT 9999 -SHRA SCT040 BKN060 08/05 Q0998;EQDQ01+000003PRSWM1Q02    003PRSWM1
0201031400999992000010410504+55870-004430FM-15+0008EGPF V0202201N010810078019N0030001N1+00801+00501999999ADDGA1021+006009999GA2071+007809999GF107991999999999999999999MA1099591999999MW1651OC101651REMMET067EGPF 041050Z 22021G32KT 180V270 3000 +RA SCT020 BKN026 08/05 Q0996;EQDQ01+000003PRSWM1Q02    003PRSWM1
0210031400999992000010411504+55870-004430FM-15+0008EGPF V0202501N005710120019N0112651N1+00401+00201999999ADDGA1021+004809999GA2021+006609999GA3071+012009999GF107991999999999999999999MA1099801999999MW1611REMMET068EGPF 041150Z 25011KT 9999 -RA SCT016 SCT022 BKN040 04/02 Q0998 RERA;EQDQ01+000003PRSWM1Q02    003PRSWM1
0207031400999992000010412504+55870-004430FM-15+0008EGPF V0202501N006210180019N0112651N1+00501+00201999999ADDGA1021+008409999GA2021+012009999GA3071+018009999GF107991999999999999999999MA1099801999999MW1801REMMET065EGPF 041250Z 25012KT 9999 -SHRA FEW028 SCT040 BKN060 05/02 Q0998;EQDQ01+000003PRSWM1Q02    003PRSWM1
0162031400999992000010414204+55870-004430FM-15+0008EGPF V0202601N007210300019N0112651N1+00501+00101999999ADDGA1021+009009999GA2071+030009999GF107991999999999999999999MA1099901999999MW1001REMMET052EGPF 041420Z 26014KT 9999 SCT030 BKN100 05/01 Q0999;EQDQ01+000000PRSWM2
0159031400999992000010414504+55870-004430FM-15+0008EGPF V0202601N005712200019N0112651N1+00401+00101999999ADDGA1021+005409999GF102991999999999999999999MA1099901999999MW1611REMMET049EGPF 041450Z 26011KT 9999 -RA FEW018 04/01 Q0999;EQDQ01+000003PRSWM1Q02    003PRSWM1
0193031400999992000010416204+55870-004430FM-15+0008EGPF V0202601N004612200019N0080001N1+00201+00001999999ADDGA1021+001509099GA2021+006009999GF104991999999999999999999MA1100101999999MW1801REMMET067EGPF 041620Z 26009KT 8000 -SHRA FEW005CB SCT020 02/00 Q1001 RERASN;EQDQ01+000003PRSWM1Q02    003PRSWM1
0189031400999992000010416504+55870-004430FM-15+0008EGPF V0202301N005712200019N0112651N1+00201+00001999999ADDGA1021+006609999GA2021+013509999GF104991999999999999999999MA1100101999999MW1801REMMET063EGPF 041650Z 23011KT 9999 -SHRA FEW022 SCT045 02/00 Q1001 RERA;EQDQ01+000003PRSWM1Q02    003PRSWM1
0216031400999992000010417504+55870-004430FM-15+0008EGPF V0202401N010310090019N0112651N1+00301+00101999999ADDGA1021+005409999GA2021+007209999GA3071+009009999GF107991999999999999999999MA1100201999999MW1611OC101701REMMET066EGPF 041750Z 24020G33KT 9999 -RA FEW018 SCT024 BKN030 03/01 Q1002;EQDQ01+000003PRSWM1Q02    003PRSWM1
0182031400999992000010418504+55870-004430FM-15+0008EGPF V0202401N004612200019N0112651N1+00201+00101999999ADDGA1021+003009999GA2021+008409999GF104991999999999999999999MA1100311999999MW1611REMMET056EGPF 041850Z 24009KT 9999 -RA FEW010 SCT028 02/01 Q1003;EQDQ01+000003PRSWM1Q02    003PRSWM1
0212031400999992000010419504+55870-004430FM-15+0008EGPF V0202401N003110042019N0112651N1+00101+00001999999ADDGA1021+001809999GA2021+002409999GA3071+004209999GF107991999999999999999999MA1100311999999MW1801REMMET070EGPF 041950Z 24006KT 9999 -SHRA FEW006 SCT008 BKN014 01/00 Q1003 RERA;EQDQ01+000003PRSWM1Q02    003PRSWM1
0185031400999992000010420504+55870-004430FM-15+0008EGPF V0202201N009312200019N0112651N1+00301+00101999999ADDGA1021+004509999GA2021+006609999GA3021+010509999GF104991999999999999999999MA1100311999999MW1001REMMET059EGPF 042050Z 22018KT 9999 FEW015 FEW022 SCT035 03/01 Q1003;EQDQ01+000000PRSWM2
0139031400999992000010421504+55870-004430FM-15+0008EGPF V0202201N008212200019N0112651N1+00301+00101999999ADDGA1021+010509999GF102991999999999999999999MA1100411999999MW1001REMMET045EGPF 042150Z 22016KT 9999 FEW035 03/01 Q1004;EQDQ01+000000PRSWM2
0139031400999992000010422504+55870-004430FM-15+0008EGPF V0202201N008712200019N0112651N1+00301+00101999999ADDGA1021+013509999GF102991999999999999999999MA1100411999999MW1001REMMET045EGPF 042250Z 22017KT 9999 FEW045 03/01 Q1004;EQDQ01+000000PRSWM2
0173031400999992000010423504+55870-004430FM-15+0008EGPF V0202301N009810630019N0112651N1+00401+00101999999ADDGA1021+007209999GA2071+063009999GF107991999999999999999999MA1100411999999MW1001OC101541REMMET055EGPF 042350Z 23019G30KT 9999 FEW024 BKN210 04/01 Q1004;EQDQ01+000000PRSWM2
0139031400999992000010500504+55870-004430FM-15+0008EGPF V0202301N011812200019N0112651N1+00501+00201999999ADDGA1021+013509999GF102991999999999999999999MA1100411999999MW1001REMMET045EGPF 050050Z 23023KT 9999 FEW045 05/02 Q1004;EQDQ01+000000PRSWM2
0163031400999992000010504204+55870-004430FM-15+0008EGPF V0202001N008210066019N0112651N1+00501+00301999999ADDGA1071+006609999GF107991999999999999999999MA1100101999999MW1631REMMET053EGPF 050420Z 20016KT 9999 RA BKN022 05/03 Q1001 REDZ;EQDQ01+000003PRSWM1Q02    003PRSWM1
0181031400999992000010504504+55870-004430FM-15+0008EGPF V0201901N007710054019N0090001N1+00501+00301999999ADDGA1071+005409999GA2071+007209999GF107991999999999999999999MA1100001999999MW1631REMMET055EGPF 050450Z 19015KT 9000 RA BKN018 BKN024 05/03 Q1000;EQDQ01+000003PRSWM1Q02    003PRSWM1
0215031400999992000010505504+55870-004430FM-15+0008EGPF V0201901N008210084019N0060001N1+00601+00401999999ADDGA1021+004809999GA2021+006609999GA3071+008409999GF107991999999999999999999MA1099901999999MW1631OC101441REMMET065EGPF 050550Z 19016G28KT 6000 RA FEW016 SCT022 BKN028 06/04 Q0999;EQDQ01+000003PRSWM1Q02    003PRSWM1
0215031400999992000010506504+55870-004430FM-15+0008EGPF V0201901N009810084019N0112651N1+00701+00501999999ADDGA1021+004809999GA2071+008409999GA3071+012009999GF107991999999999999999999MA1099801999999MW1631OC101491REMMET065EGPF 050650Z 19019G29KT 9999 RA FEW016 BKN028 BKN040 07/05 Q0998;EQDQ01+000003PRSWM1Q02    003PRSWM1
0209031400999992000010507504+55870-004430FM-15+0008EGPF V0201901N008710090019N0112651N1+00801+00601999999ADDGA1021+007209999GA2071+009009999GA3071+013509999GF107991999999999999999999MA1099701999999MW1631REMMET067EGPF 050750Z 19017KT 9999 RA SCT024 BKN030 BKN045 08/06 Q0997 RERA;EQDQ01+000003PRSWM1Q02    003PRSWM1
0178031400999992000010508504+55870-004430FM-15+0008EGPF V0201901N010810150019N0112651N1+00901+00701999999ADDGA1021+006009999GA2071+015009999GF107991999999999999999999MA1099491999999MW1001OC101701REMMET060EGPF 050850Z 19021G33KT 9999 FEW020 BKN050 09/07 Q0995 RERA;EQDQ01+000000PRSWM2
0187031400999992000010509504+55870-004430FM-15+0008EGPF V0201901N011310150019N0090001N1+01001+00701999999ADDGA1021+010509999GA2071+015009999GF107991999999999999999999MA1099491999999MW1611REMMET061EGPF 050950Z 19022KT 9000 -RA FEW035 BKN050 10/07 Q0995 REDZ;EQDQ01+000003PRSWM1Q02    003PRSWM1
0182031400999992000010510504+55870-004430FM-15+0008EGPF V0202001N011810105019N0070001N1+01001+00801999999ADDGA1021+006009999GA2071+010509999GF107991999999999999999999MA1099491999999MW1651REMMET056EGPF 051050Z 20023KT 7000 +RA FEW020 BKN035 10/08 Q0995;EQDQ01+000003PRSWM1Q02    003PRSWM1
0192031400999992000010511504+55870-004430FM-15+0008EGPF V0202001N012910084019N0080001N1+01001+00701999999ADDGA1021+006609999GA2071+008409999GF107991999999999999999999MA1099391999999MW1631OC101901REMMET058EGPF 051150Z 20025G37KT 8000 RA SCT022 BKN028 10/07 Q0994;EQDQ01+000003PRSWM1Q02    003PRSWM1
0221031400999992000010512504+55870-004430FM-15+0008EGPF V0202001N013910240019N0112651N1+01001+00701999999ADDGA1021+007809999GA2021+015009999GA3071+024009999GF107991999999999999999999MA1099291999999MW1611OC102061REMMET071EGPF 051250Z 20027G40KT 9999 -RA FEW026 SCT050 BKN080 10/07 Q0993 RERA;EQDQ01+000003PRSWM1Q02    003PRSWM1
0173031400999992000010513504+55870-004430FM-15+0008EGPF V0201901N013412200019N0112651N1+01001+00701999999ADDGA1021+007509999GA2021+024009999GF104991999999999999999999MA1099191999999MW1001OC101951REMMET055EGPF 051350Z 19026G38KT 9999 FEW025 SCT080 10/07 Q0992;EQDQ01+000000PRSWM2
0173031400999992000010514504+55870-004430FM-15+0008EGPF V0201901N012910120019N0112651N1+01001+00601999999ADDGA1021+008409999GA2071+012009999GF107991999999999999999999MA1099191999999MW1001OC102011REMMET055EGPF 051450Z 19025G39KT 9999 SCT028 BKN040 10/06 Q0992;EQDQ01+000000PRSWM2
0177031400999992000010515504+55870-004430FM-15+0008EGPF V0201901N013910105019N0112651N1+01001+00601999999ADDGA1071+010509999GF107991999999999999999999MA1099091999999MW1801OC101901REMMET059EGPF 051550Z 19027G37KT 9999 -SHRA BKN035 10/06 Q0991 REDZ;EQDQ01+000003PRSWM1Q02    003PRSWM1
0150031400999992000010516504+55870-004430FM-15+0008EGPF V0201901N012310105019N0112651N1+01001+00601999999ADDGA1071+010509999GF107991999999999999999999MA1098981999999MW1001OC101801REMMET048EGPF 051650Z 19024G35KT 9999 BKN035 10/06 Q0990;EQDQ01+000000PRSWM2
0173031400999992000010517504+55870-004430FM-15+0008EGPF V0201801N012910084019N0112651N1+01001+00701999999ADDGA1021+006609999GA2071+008409999GF107991999999999999999999MA1098921999999MW1001OC101901REMMET055EGPF 051750Z 18025G37KT 9999 SCT022 BKN028 10/07 Q0989;EQDQ01+000000PRSWM2
0217031400999992000010518504+55870-004430FM-15+0008EGPF V0201801N012310090019N0060001N1+01001+00801999999ADDGA1021+003609999GA2021+007209999GA3071+009009999GF107991999999999999999999MA1098821999999MW1811OC101901REMMET067EGPF 051850Z 18024G37KT 6000 SHRA FEW012 SCT024 BKN030 10/08 Q0988;EQDQ01+000003PRSWM1Q02    003PRSWM1
0205031400999992000010520504+55870-004430FM-15+0008EGPF V0202101N009810240019N0112651N1+00901+00601999999ADDGA1021+007209999GA2021+015009999GA3071+024009999GF107991999999999999999999MA1098821999999MW1611REMMET063EGPF 052050Z 21019KT 9999 -RA FEW024 SCT050 BKN080 09/06 Q0988;EQDQ01+000003PRSWM1Q02    003PRSWM1
0178031400999992000010521504+55870-004430FM-15+0008EGPF V0202001N011812200019N0112651N1+00901+00601999999ADDGA1021+007509999GA2021+013509999GF102991999999999999999999MA1098711999999MW1001OC101701REMMET060EGPF 052150Z 20023G33KT 9999 FEW025 FEW045 09/06 Q0987 RERA;EQDQ01+000000PRSWM2
0173031400999992000010600504+55870-004430FM-15+0008EGPF V0202201N012312200019N0112651N1+00901+00501999999ADDGA1021+004509999GA2021+010509999GF104991999999999999999999MA1098821999999MW1001OC101751REMMET055EGPF 060050Z 22024G34KT 9999 FEW015 SCT035 09/05 Q0988;EQDQ01+000000PRSWM2
0200031400999992000010602504+55870-004430FM-15+0008EGPF V0202201N013910084019N0070001N1+00801+00601999999ADDGA1021+006609999GA2071+008409999GF107991999999999999999999MA1098711999999MW1801OC101901REMMET066EGPF 060250Z 22027G37KT 7000 -SHRA SCT022 BKN028 08/06 Q0987 RERA;EQDQ01+000003PRSWM1Q02    003PRSWM1
0167031400999992000010603504+55870-004430FM-15+0008EGPF V0202301N010310090019N0112651N1+00801+00501999999ADDGA1021+007209999GA2071+009009999GF107991999999999999999999MA1098921999999MW1001REMMET057EGPF 060350Z 23020KT 9999 SCT024 BKN030 08/05 Q0989 RERA;EQDQ01+000000PRSWM2
0185031400999992000010604504+55870-004430FM-15+0008EGPF V0202301N008710078019N0112651N1+00801+00501999999ADDGA1021+006009999GA2071+007809999GA3071+010509999GF107991999999999999999999MA1098981999999MW1001REMMET059EGPF 060450Z 23017KT 9999 FEW020 BKN026 BKN035 08/05 Q0990;EQDQ01+000000PRSWM2
0207031400999992000010605504+55870-004430FM-15+0008EGPF V0202401N006210105019N0112651N1+00701+00501999999ADDGA1021+005409999GA2021+007209999GA3071+010509999GF107991999999999999999999MA1099191999999MW1801REMMET065EGPF 060550Z 24012KT 9999 -SHRA SCT018 SCT024 BKN035 07/05 Q0992;EQDQ01+000003PRSWM1Q02    003PRSWM1
0162031400999992000010606504+55870-004430FM-15+0008EGPF V0202901N007712200019N0112651N1+00701+00301999999ADDGA1021+005409999GA2021+007809999GF104991999999999999999999MA1099391999999MW1001REMMET052EGPF 060650Z 29015KT 9999 FEW018 SCT026 07/03 Q0994;EQDQ01+000000PRSWM2
0162031400999992000010607504+55870-004430FM-15+0008EGPF V0203001N008212200019N0112651N1+00601+00201999999ADDGA1021+004809999GA2021+007509999GF104991999999999999999999MA1099701999999MW1001REMMET052EGPF 060750Z 30016KT 9999 FEW016 SCT025 06/02 Q0997;EQDQ01+000000PRSWM2
0091031400999992000010608504+55870-004430FM-15+0008EGPF V0202901N00461220001CN0099001N1+00501+00101999999ADDMA1100001999999MW1001REMMET039EGPF 060850Z 29009KT CAVOK 05/01 Q1000;EQDQ01+000000PRSWM2
0091031400999992000010609504+55870-004430FM-15+0008EGPF V0202901N00461220001CN0099001N1+00501+00001999999ADDMA1100201999999MW1001REMMET039EGPF 060950Z 29009KT CAVOK 05/00 Q1002;EQDQ01+000000PRSWM2
0092031400999992000010610504+55870-004430FM-15+0008EGPF V0202701N00511220001CN0099001N1+00501+00001999999ADDMA1100411999999MW1001REMMET040EGPF 061050Z 27010KT CAVOK 05/M00 Q1004;EQDQ01+000000PRSWM2
0092031400999992000010611504+55870-004430FM-15+0008EGPF V0202701N00411220001CN0099001N1+00601-00101999999ADDMA1100611999999MW1001REMMET040EGPF 061150Z 27008KT CAVOK 06/M01 Q1006;EQDQ01+000000PRSWM2
0139031400999992000010612504+55870-004430FM-15+0008EGPF V0202601N004112200019N0112651N1+00601+00001999999ADDGA1021+007509999GF102991999999999999999999MA1100711999999MW1001REMMET045EGPF 061250Z 26008KT 9999 FEW025 06/00 Q1007;EQDQ01+000000PRSWM2
0139031400999992000010613504+55870-004430FM-15+0008EGPF V0202701N004112200019N0112651N1+00601+00001999999ADDGA1021+009009999GF102991999999999999999999MA1100811999999MW1001REMMET045EGPF 061350Z 27008KT 9999 FEW030 06/00 Q1008;EQDQ01+000000PRSWM2
0163031400999992000010614504+55870-004430FM-15+0008EGPF V0202601N004112200019N0112651N1+00501+00001999999ADDGA1021+009009999GA2021+075009999GF104991999999999999999999MA1100911999999MW1001REMMET053EGPF 061450Z 26008KT 9999 FEW030 SCT250 05/M00 Q1009;EQDQ01+000000PRSWM2
0092031400999992000010615504+55870-004430FM-15+0008EGPF V0202501N00311220001CN0099001N1+00401-00201999999ADDMA1101021999999MW1001REMMET040EGPF 061550Z 25006KT CAVOK 04/M02 Q1010;EQDQ01+000000PRSWM2
0092031400999992000010617204+55870-004430FM-15+0008EGPF V0201801N00151220001CN0099001N1+00301-00101999999ADDMA1101021999999MW1001REMMET040EGPF 061720Z 18003KT CAVOK 03/M01 Q1010;EQDQ01+000000PRSWM2
0100031400999992000010617504+55870-004430FM-15+0008EGPF V0202701N00211220001CN0099001N1+00401-00101999999ADDMA1101021999999MW1001REMMET048EGPF 061750Z 27004KT 210V290 CAVOK 04/M01 Q1010;EQDQ01+000000PRSWM2
0091031400999992000010619504+55870-004430FM-15+0008EGPF V0201901N00871220001CN0099001N1+00501+00101999999ADDMA1100911999999MW1001REMMET039EGPF 061950Z 19017KT CAVOK 05/01 Q1009;EQDQ01+000000PRSWM2
0099031400999992000010620504+55870-004430FM-15+0008EGPF V0201801N00511220001CN0099001N1+00401+00001999999ADDMA1100811999999MW1001REMMET047EGPF 062050Z 18010KT 150V220 CAVOK 04/00 Q1008;EQDQ01+000000PRSWM2
0139031400999992000010621504+55870-004430FM-15+0008EGPF V0201901N005712200019N0112651N1+00601+00101999999ADDGA1021+009009999GF104991999999999999999999MA1100811999999MW1001REMMET045EGPF 062150Z 19011KT 9999 SCT030 06/01 Q1008;EQDQ01+000000PRSWM2
0181031400999992000010622504+55870-004430FM-15+0008EGPF V0202001N008210066019N0050001N1+00601+00301999999ADDGA1021+004809999GA2071+006609999GF107991999999999999999999MA1100711999999MW1631REMMET055EGPF 062250Z 20016KT 5000 RA SCT016 BKN022 06/03 Q1007;EQDQ01+000003PRSWM1Q02    003PRSWM1
0192031400999992000010623504+55870-004430FM-15+0008EGPF V0202001N010310060019N0050001N1+00501+00401999999ADDGA1021+004209999GA2071+006009999GF107991999999999999999999MA1100611999999MW1631OC101751REMMET058EGPF 062350Z 20020G34KT 5000 RA SCT014 BKN020 05/04 Q1006;EQDQ01+000003PRSWM1Q02    003PRSWM1
0181031400999992000010700504+55870-004430FM-15+0008EGPF V0202001N010310090019N0040001N1+00601+00401999999ADDGA1021+005409999GA2071+009009999GF107991999999999999999999MA1100411999999MW1631REMMET055EGPF 070050Z 20020KT 4000 RA SCT018 BKN030 06/04 Q1004;EQDQ01+000003PRSWM1Q02    003PRSWM1
0155031400999992000010702504+55870-004430FM-15+0008EGPF V0202201N014410048019N0112651N1+00801+00601999999ADDGA1081+004809999GF108991999999999999999999MA1100201999999MW1001OC102011REMMET053EGPF 070250Z 22028G39KT 9999 OVC016 08/06 Q1002 RERA;EQDQ01+000000PRSWM2
0150031400999992000010703504+55870-004430FM-15+0008EGPF V0202201N011810042019N0112651N1+00801+00601999999ADDGA1081+004209999GF108991999999999999999999MA1100201999999MW1001OC101701REMMET048EGPF 070350Z 22023G33KT 9999 OVC014 08/06 Q1002;EQDQ01+000000PRSWM2
0173031400999992000010704504+55870-004430FM-15+0008EGPF V0202101N011810042019N0112651N1+00901+00601999999ADDGA1071+004209999GA2071+005709999GF107991999999999999999999MA1100101999999MW1001OC101751REMMET055EGPF 070450Z 21023G34KT 9999 BKN014 BKN019 09/06 Q1001;EQDQ01+000000PRSWM2
0162031400999992000010705504+55870-004430FM-15+0008EGPF V0202101N008710042019N0112651N1+00901+00601999999ADDGA1071+004209999GA2071+006009999GF107991999999999999999999MA1100101999999MW1001REMMET052EGPF 070550Z 21017KT 9999 BKN014 BKN020 09/06 Q1001;EQDQ01+000000PRSWM2
0173031400999992000010706504+55870-004430FM-15+0008EGPF V0202101N010310045019N0112651N1+00901+00601999999ADDGA1071+004509999GA2071+006009999GF107991999999999999999999MA1100001999999MW1001OC101651REMMET055EGPF 070650Z 21020G32KT 9999 BKN015 BKN020 09/06 Q1000;EQDQ01+000000PRSWM2
0218031400999992000010707504+55870-004430FM-15+0008EGPF V0202101N012910210019N0112651N1+00901+00701999999ADDGA1021+004809999GA2021+006609999GA3071+021009999GF107991999999999999999999MA1099901999999MW1801OC101801REMMET068EGPF 070750Z 21025G35KT 9999 -SHRA SCT016 SCT022 BKN070 09/07 Q0999;EQDQ01+000003PRSWM1Q02    003PRSWM1
0195031400999992000010708504+55870-004430FM-15+0008EGPF V0202101N015912200019N0112651N1+01001+00701999999ADDGA1021+003609999GA2021+009009999GF104991999999999999999999MA1099701999999MW1801OC102471REMMET061EGPF 070850Z 21031G48KT 9999 -SHRA FEW012 SCT030 10/07 Q0997;EQDQ01+000003PRSWM1Q02    003PRSWM1
0195031400999992000010709504+55870-004430FM-15+0008EGPF V0202101N017010090019N0112651N1+01001+00701999999ADDGA1021+003609999GA2071+009009999GF107991999999999999999999MA1099701999999MW1801OC102521REMMET061EGPF 070950Z 21033G49KT 9999 -SHRA FEW012 BKN030 10/07 Q0997;EQDQ01+000003PRSWM1Q02    003PRSWM1
0181031400999992000010710504+55870-004430FM-15+0008EGPF V0202001N011810048019N0050001N1+01001+00701999999ADDGA1071+004809999GA2071+006609999GF107991999999999999999999MA1099701999999MW1631REMMET055EGPF 071050Z 20023KT 5000 RA BKN016 BKN022 10/07 Q0997;EQDQ01+000003PRSWM1Q02    003PRSWM1
0182031400999992000010711504+55870-004430FM-15+0008EGPF V0202001N014410048019N0030001N1+01001+00801999999ADDGA1071+004809999GA2071+006609999GF107991999999999999999999MA1099591999999MW1651REMMET056EGPF 071150Z 20028KT 3000 +RA BKN016 BKN022 10/08 Q0996;EQDQ01+000003PRSWM1Q02    003PRSWM1
0193031400999992000010712504+55870-004430FM-15+0008EGPF V0202001N013910060019N0040001N1+01001+00701999999ADDGA1021+004209999GA2071+006009999GF107991999999999999999999MA1099491999999MW1611OC101901REMMET059EGPF 071250Z 20027G37KT 4000 -RA FEW014 BKN020 10/07 Q0995;EQDQ01+000003PRSWM1Q02    003PRSWM1
0193031400999992000010713504+55870-004430FM-15+0008EGPF V0202001N012312200019N0032001N1+00901+00801999999ADDGA1021+004209999GA2021+006009999GF104991999999999999999999MA1099391999999MW1651OC101801REMMET059EGPF 071350Z 20024G35KT 3200 +RA FEW014 SCT020 09/08 Q0994;EQDQ01+000003PRSWM1Q02    003PRSWM1
0193031400999992000010714504+55870-004430FM-15+0008EGPF V0202001N013910066019N0038001N1+01001+00801999999ADDGA1021+004809999GA2071+006609999GF107991999999999999999999MA1099191999999MW1651OC101951REMMET059EGPF 071450Z 20027G38KT 3800 +RA SCT016 BKN022 10/08 Q0992;EQDQ01+000003PRSWM1Q02    003PRSWM1
0192031400999992000010715504+55870-004430FM-15+0008EGPF V0202001N015410060019N0050001N1+01001+00801999999ADDGA1021+004209999GA2071+006009999GF107991999999999999999999MA1099091999999MW1631OC102111REMMET058EGPF 071550Z 20030G41KT 5000 RA SCT014 BKN020 10/08 Q0991;EQDQ01+000003PRSWM1Q02    003PRSWM1
0220031400999992000010716504+55870-004430FM-15+0008EGPF V0202401N008710090019N0060001N1+00801+00601999999ADDGA1021+003609999GA2021+005409999GA3071+009009999GF107991999999999999999999MA1099291999999MW1631OC101391REMMET070EGPF 071650Z 24017G27KT 6000 RA FEW012 SCT018 BKN030 08/06 Q0993 RERA;EQDQ01+000003PRSWM1Q02    003PRSWM1
0210031400999992000010717504+55870-004430FM-15+0008EGPF V0202201N009310150019N0112651N1+00801+00401999999ADDGA1021+010509999GA2071+015009999GA3071+024009999GF107991999999999999999999MA1099191999999MW1611REMMET068EGPF 071750Z 22018KT 9999 -RA SCT035 BKN050 BKN080 08/04 Q0992 RERA;EQDQ01+000003PRSWM1Q02    003PRSWM1
0162031400999992000010718504+55870-004430FM-15+0008EGPF V0202201N009810300019N0112651N1+00701+00401999999ADDGA1021+013509999GA2071+030009999GF107991999999999999999999MA1099191999999MW1001REMMET052EGPF 071850Z 22019KT 9999 SCT045 BKN100 07/04 Q0992;EQDQ01+000000PRSWM2
0215031400999992000010719504+55870-004430FM-15+0008EGPF V0202601N012910084019N0060001N1+00601+00401999999ADDGA1021+004809999GA2021+006609999GA3071+008409999GF107991999999999999999999MA1099291999999MW1631OC101851REMMET065EGPF 071950Z 26025G36KT 6000 RA FEW016 SCT022 BKN028 06/04 Q0993;EQDQ01+000003PRSWM1Q02    003PRSWM1
0091031400999992000010720504+55870-004430FM-15+0008EGPF V0202501N01031220001CN0099001N1+00701+00101999999ADDMA1099291999999MW1001REMMET039EGPF 072050Z 25020KT CAVOK 07/01 Q0993;EQDQ01+000000PRSWM2
0091031400999992000010721504+55870-004430FM-15+0008EGPF V0202301N00871220001CN0099001N1+00501+00101999999ADDMA1099491999999MW1001REMMET039EGPF 072150Z 23017KT CAVOK 05/01 Q0995;EQDQ01+000000PRSWM2
0139031400999992000010722504+55870-004430FM-15+0008EGPF V0202301N010812200019N0112651N1+00501+00101999999ADDGA1021+012009999GF102991999999999999999999MA1099491999999MW1001REMMET045EGPF 072250Z 23021KT 9999 FEW040 05/01 Q0995;EQDQ01+000000PRSWM2
0091031400999992000010723504+55870-004430FM-15+0008EGPF V0202301N01231220001CN0099001N1+00501+00101999999ADDMA1099591999999MW1001REMMET039EGPF 072350Z 23024KT CAVOK 05/01 Q0996;EQDQ01+000000PRSWM2
0091031400999992000010800504+55870-004430FM-15+0008EGPF V0202201N01031220001CN0099001N1+00501+00001999999ADDMA1099591999999MW1001REMMET039EGPF 080050Z 22020KT CAVOK 05/00 Q0996;EQDQ01+000000PRSWM2
0158031400999992000010804204+55870-004430FM-15+0008EGPF V0202201N012310090019N0112651N1+00601+00201999999ADDGA1071+009009999GF107991999999999999999999MA1099701999999MW1531REMMET048EGPF 080420Z 22024KT 9999 DZ BKN030 06/02 Q0997;EQDQ01+000003PRSWM1Q02    003PRSWM1
0175031400999992000010804504+55870-004430FM-15+0008EGPF V0202501N008210078019N0090001N1+00601+00301999999ADDGA1071+007809999GF107991999999999999999999MA1099701999999MW1611OC101391REMMET057EGPF 080450Z 25016G27KT 9000 -RA BKN026 06/03 Q0997 REDZ;EQDQ01+000003PRSWM1Q02    003PRSWM1
0185031400999992000010805504+55870-004430FM-15+0008EGPF V0202301N009310135019N0112651N1+00601+00201999999ADDGA1021+005409999GA2021+009009999GA3071+013509999GF107991999999999999999999MA1099801999999MW1001REMMET059EGPF 080550Z 23018KT 9999 FEW018 SCT030 BKN045 06/02 Q0998;EQDQ01+000000PRSWM2
0185031400999992000010806504+55870-004430FM-15+0008EGPF V0202301N009810135019N0112651N1+00601+00301999999ADDGA1021+006009999GA2021+009009999GA3071+013509999GF107991999999999999999999MA1099901999999MW1001REMMET059EGPF 080650Z 23019KT 9999 FEW020 SCT030 BKN045 06/03 Q0999;EQDQ01+000000PRSWM2
0139031400999992000010807504+55870-004430FM-15+0008EGPF V0202301N006712200019N0112651N1+00601+00301999999ADDGA1021+007809999GF102991999999999999999999MA1100001999999MW1001REMMET045EGPF 080750Z 23013KT 9999 FEW026 06/03 Q1000;EQDQ01+000000PRSWM2
0162031400999992000010808504+55870-004430FM-15+0008EGPF V0202201N009310090019N0112651N1+00601+00301999999ADDGA1071+009009999GA2071+013509999GF107991999999999999999999MA1100101999999MW1001REMMET052EGPF 080850Z 22018KT 9999 BKN030 BKN045 06/03 Q1001;EQDQ01+000000PRSWM2
0139031400999992000010809504+55870-004430FM-15+0008EGPF V0202101N007710090019N0112651N1+00601+00301999999ADDGA1071+009009999GF107991999999999999999999MA1100201999999MW1001REMMET045EGPF 080950Z 21015KT 9999 BKN030 06/03 Q1002;EQDQ01+000000PRSWM2
0184031400999992000010810504+55870-004430FM-15+0008EGPF V0202301N006712200019N0112651N1+00501+00201999999ADDGA1021+007809999GA2021+010509999GF104991999999999999999999MA1100411999999MW1801REMMET058EGPF 081050Z 23013KT 9999 -SHRA SCT026 SCT035 05/02 Q1004;EQDQ01+000003PRSWM1Q02    003PRSWM1
0173031400999992000010811504+55870-004430FM-15+0008EGPF V0202201N010312200019N0112651N1+00601+00301999999ADDGA1021+010509999GA2021+027009999GF104991999999999999999999MA1100411999999MW1001OC101541REMMET055EGPF 081150Z 22020G30KT 9999 SCT035 SCT090 06/03 Q1004;EQDQ01+000000PRSWM2
0210031400999992000010812504+55870-004430FM-15+0008EGPF V0202301N010810105019N0112651N1+00601+00301999999ADDGA1021+003609999GA2021+007809999GA3071+010509999GF107991999999999999999999MA1100411999999MW1611REMMET068EGPF 081250Z 23021KT 9999 -RA FEW012 SCT026 BKN035 06/03 Q1004 REDZ;EQDQ01+000003PRSWM1Q02    003PRSWM1
0206031400999992000010813504+55870-004430FM-15+0008EGPF V0202701N010310072019N0048001N1+00401+00101999999ADDGA1021+002709999GA2021+005409999GA3071+007209999GF107991999999999999999999MA1100511999999MW1811REMMET064EGPF 081350Z 27020KT 4800 SHRA FEW009 SCT018 BKN024 04/01 Q1005;EQDQ01+000003PRSWM1Q02    003PRSWM1
0185031400999992000010814504+55870-004430FM-15+0008EGPF V0202201N008712200019N0112651N1+00501+00201999999ADDGA1021+004509099GA2021+009009999GF104991999999999999999999MA1100511999999MW1161REMMET059EGPF 081450Z 22017KT 9999 VCSH SCT015CB SCT030 05/02 Q1005;EQDQ01+000003PRSWM1Q02    003PRSWM1
0183031400999992000010815504+55870-004430FM-15+0008EGPF V0202401N009810090019N0070001N1+00401+00201999999ADDGA1021+003009999GA2071+009009999GF107991999999999999999999MA1100611999999MW1811REMMET057EGPF 081550Z 24019KT 7000 SHRA FEW010 BKN030 04/02 Q1006;EQDQ01+000003PRSWM1Q02    003PRSWM1
0162031400999992000010816504+55870-004430FM-15+0008EGPF V0202301N007712200019N0112651N1+00301+00101999999ADDGA1021+004209999GA2021+015009999GF104991999999999999999999MA1100611999999MW1001REMMET052EGPF 081650Z 23015KT 9999 FEW014 SCT050 03/01 Q1006;EQDQ01+000000PRSWM2
0144031400999992000010817504+55870-004430FM-15+0008EGPF V0202301N007212200019N0112651N1+00301+00101999999ADDGA1021+006009999GF102991999999999999999999MA1100711999999MW1001REMMET050EGPF 081750Z 23014KT 9999 FEW020 03/01 Q1007 RERA;EQDQ01+000000PRSWM2
0210031400999992000010818504+55870-004430FM-15+0008EGPF V0202401N007210084019N0112651N1+00301+00101999999ADDGA1021+003009999GA2021+006609999GA3071+008409999GF107991999999999999999999MA1100811999999MW1611REMMET068EGPF 081850Z 24014KT 9999 -RA FEW010 SCT022 BKN028 03/01 Q1008 RERA;EQDQ01+000003PRSWM1Q02    003PRSWM1
0204031400999992000010819504+55870-004430FM-15+0008EGPF V0202401N006710135019N0112651N1+00301+00101999999ADDGA1021+007209999GA2021+009009999GA3071+013509999GF107991999999999999999999MA1100911999999MW1631REMMET062EGPF 081950Z 24013KT 9999 RA FEW024 SCT030 BKN045 03/01 Q1009;EQDQ01+000003PRSWM1Q02    003PRSWM1
0139031400999992000010820504+55870-004430FM-15+0008EGPF V0202201N002612200019N0112651N1+00101+00001999999ADDGA1021+007809999GF102991999999999999999999MA1100911999999MW1001REMMET045EGPF 082050Z 22005KT 9999 FEW026 01/00 Q1009;EQDQ01+000000PRSWM2
0139031400999992000010821504+55870-004430FM-15+0008EGPF V0202401N007212200019N0112651N1+00301+00101999999ADDGA1021+003609999GF102991999999999999999999MA1101021999999MW1001REMMET045EGPF 082150Z 24014KT 9999 FEW012 03/01 Q1010;EQDQ01+000000PRSWM2
0139031400999992000010822504+55870-004430FM-15+0008EGPF V0202401N007212200019N0112651N1+00401+00101999999ADDGA1021+012009999GF102991999999999999999999MA1101081999999MW1001REMMET045EGPF 082250Z 24014KT 9999 FEW040 04/01 Q1011;EQDQ01+000000PRSWM2
0218031400999992000010823504+55870-004430FM-15+0008EGPF V0202501N008210150019N0112651N1+00401+00101999999ADDGA1021+007809999GA2021+010509999GA3071+015009999GF107991999999999999999999MA1101191999999MW1801OC101591REMMET068EGPF 082350Z 25016G31KT 9999 -SHRA FEW026 SCT035 BKN050 04/01 Q1012;EQDQ01+000003PRSWM1Q02    003PRSWM1
0162031400999992000010900504+55870-004430FM-15+0008EGPF V0202401N005712200019N0112651N1+00201+00001999999ADDGA1021+013509999GA2021+021009999GF104991999999999999999999MA1101191999999MW1001REMMET052EGPF 090050Z 24011KT 9999 FEW045 SCT070 02/00 Q1012;EQDQ01+000000PRSWM2
0164031400999992000010901504+55870-004430FM-15+0008EGPF V0202501N002610036019N0112651N1+00201+00101999999ADDGA1071+003609999GF107991999999999999999999MA1101391999999MW1611REMMET054EGPF 090150Z 25005KT 9999 -RA BKN012 02/01 Q1014 RERA;EQDQ01+000003PRSWM1Q02    003PRSWM1
0184031400999992000010904504+55870-004430FM-15+0008EGPF V0202501N005712200019N0112651N1+00301+00101999999ADDGA1021+004809999GA2021+024009999GF104991999999999999999999MA1101591999999MW1801REMMET058EGPF 090450Z 25011KT 9999 -SHRA FEW016 SCT080 03/01 Q1016;EQDQ01+000003PRSWM1Q02    003PRSWM1
0145031400999992000010907204+55870-004430FM-15+0008EGPF V02099999999992200019N0112651N1+00001+00001999999ADDGA1021+003609999GF102991999999999999999999MA1101801999999MW1001REMMET051EGPF 090720Z VRB03KT 9999 FEW012 00/M00 Q1018 RERA;EQDQ01+000000PRSWM2
0140031400999992000010907504+55870-004430FM-15+0008EGPF V0200301N001012200019N0112651N1+00001+00001999999ADDGA1021+009009999GF102991999999999999999999MA1101901999999MW1001REMMET046EGPF 090750Z 03002KT 9999 FEW030 00/M00 Q1019;EQDQ01+000000PRSWM2
0189031400999992000010908504+55870-004430FM-15+0008EGPF V0202601N003610300019N0112651N1+00201+00001999999ADDGA1021+005409999GA2071+030009999GF107991999999999999999999MA1102101999999MW1801REMMET063EGPF 090850Z 26007KT 9999 -SHRA FEW018 BKN100 02/00 Q1021 REDZ;EQDQ01+000003PRSWM1Q02    003PRSWM1
0184031400999992000010909504+55870-004430FM-15+0008EGPF V02099999999992200019N0112651N1+00201+00001999999ADDGA1021+005409999GA2021+009009999GF104991999999999999999999MA1102201999999MW1801REMMET058EGPF 090950Z VRB02KT 9999 -SHRA FEW018 SCT030 02/00 Q1022;EQDQ01+000003PRSWM1Q02    003PRSWM1
0139031400999992000010910504+55870-004430FM-15+0008EGPF V0202501N001512200019N0112651N1+00301+00101999999ADDGA1021+007209999GF102991999999999999999999MA1102301999999MW1001REMMET045EGPF 091050Z 25003KT 9999 FEW024 03/01 Q1023;EQDQ01+000000PRSWM2
0139031400999992000010911504+55870-004430FM-15+0008EGPF V02099999999992200019N0112651N1+00401+00201999999ADDGA1021+006009999GF102991999999999999999999MA1102301999999MW1001REMMET045EGPF 091150Z VRB02KT 9999 FEW020 04/02 Q1023;EQDQ01+000000PRSWM2
0139031400999992000010912504+55870-004430FM-15+0008EGPF V02099999999992200019N0112651N1+00601+00201999999ADDGA1021+010509999GF104991999999999999999999MA1102401999999MW1001REMMET045EGPF 091250Z VRB02KT 9999 SCT035 06/02 Q1024;EQDQ01+000000PRSWM2
0139031400999992000010913504+55870-004430FM-15+0008EGPF V0202401N004112200019N0112651N1+00501+00301999999ADDGA1021+010509999GF102991999999999999999999MA1102511999999MW1001REMMET045EGPF 091350Z 24008KT 9999 FEW035 05/03 Q1025;EQDQ01+000000PRSWM2
0141031400999992000010914504+55870-004430FM-15+0008EGPF V0202401N003612200019N0112651N1+00401+00201999999ADDGA1021+009009099GF102991999999999999999999MA1102511999999MW1001REMMET047EGPF 091450Z 24007KT 9999 FEW030CB 04/02 Q1025;EQDQ01+000000PRSWM2
0187031400999992000010916204+55870-004430FM-15+0008EGPF V0202501N003110090019N0112651N1+00301+00101999999ADDGA1021+006609099GA2071+009009999GA3071+013509999GF107991999999999999999999MA1102611999999MW1001REMMET061EGPF 091620Z 25006KT 9999 FEW022CB BKN030 BKN045 03/01 Q1026;EQDQ01+000000PRSWM2
0162031400999992000010916504+55870-004430FM-15+0008EGPF V0202401N003112200019N0112651N1+00301+00101999999ADDGA1021+006009999GA2021+008409999GF104991999999999999999999MA1102611999999MW1001REMMET052EGPF 091650Z 24006KT 9999 FEW020 SCT028 03/01 Q1026;EQDQ01+000000PRSWM2
0091031400999992000010917504+55870-004430FM-15+0008EGPF V0202001N00211220001CN0099001N1+00201+00001999999ADDMA1102611999999MW1001REMMET039EGPF 091750Z 20004KT CAVOK 02/00 Q1026;EQDQ01+000000PRSWM2
0091031400999992000010918504+55870-004430FM-15+0008EGPF V0209999C00001220001CN0099001N1+00201+00001999999ADDMA1102611999999MW1001REMMET039EGPF 091850Z 00000KT CAVOK 02/00 Q1026;EQDQ01+000000PRSWM2
0139031400999992000010919504+55870-004430FM-15+0008EGPF V02099999999992200019N0112651N1+00201+00001999999ADDGA1021+004209999GF104991999999999999999999MA1102711999999MW1001REMMET045EGPF 091950Z VRB03KT 9999 SCT014 02/00 Q1027;EQDQ01+000000PRSWM2
0139031400999992000010920504+55870-004430FM-15+0008EGPF V0201901N004112200019N0112651N1+00301+00101999999ADDGA1021+008409999GF102991999999999999999999MA1102711999999MW1001REMMET045EGPF 092050Z 19008KT 9999 FEW028 03/01 Q1027;EQDQ01+000000PRSWM2
0162031400999992000010921504+55870-004430FM-15+0008EGPF V02099999999990066019N0112651N1+00201+00101999999ADDGA1021+004809999GA2071+006609999GF107991999999999999999999MA1102611999999MW1001REMMET052EGPF 092150Z VRB03KT 9999 SCT016 BKN022 02/01 Q1026;EQDQ01+000000PRSWM2
0139031400999992000010922504+55870-004430FM-15+0008EGPF V0202101N005112200019N0112651N1+00301+00101999999ADDGA1021+010509999GF104991999999999999999999MA1102611999999MW1001REMMET045EGPF 092250Z 21010KT 9999 SCT035 03/01 Q1026;EQDQ01+000000PRSWM2
0139031400999992000010923504+55870-004430FM-15+0008EGPF V0202001N005712200019N0112651N1+00301+00101999999ADDGA1021+009009999GF104991999999999999999999MA1102611999999MW1001REMMET045EGPF 092350Z 20011KT 9999 SCT030 03/01 Q1026;EQDQ01+000000PRSWM2
0185031400999992000011000504+55870-004430FM-15+0008EGPF V0201901N003610084019N0112651N1+00301+00101999999ADDGA1021+004209999GA2071+008409999GA3081+012009999GF108991999999999999999999MA1102511999999MW1001REMMET059EGPF 100050Z 19007KT 9999 SCT014 BKN028 OVC040 03/01 Q1025;EQDQ01+000000PRSWM2
0162031400999992000011001504+55870-004430FM-15+0008EGPF V0202001N009812200019N0112651N1+00501+00301999999ADDGA1021+007209999GA2021+009009999GF104991999999999999999999MA1102401999999MW1001REMMET052EGPF 100150Z 20019KT 9999 FEW024 SCT030 05/03 Q1024;EQDQ01+000000PRSWM2
0139031400999992000011004204+55870-004430FM-15+0008EGPF V0202001N008710084019N0112651N1+00601+00301999999ADDGA1081+008409999GF108991999999999999999999MA1102201999999MW1001REMMET045EGPF 100420Z 20017KT 9999 OVC028 06/03 Q1022;EQDQ01+000000PRSWM2
0139031400999992000011004504+55870-004430FM-15+0008EGPF V0202001N008210090019N0112651N1+00601+00301999999ADDGA1071+009009999GF107991999999999999999999MA1102101999999MW1001REMMET045EGPF 100450Z 20016KT 9999 BKN030 06/03 Q1021;EQDQ01+000000PRSWM2
0205031400999992000011005504+55870-004430FM-15+0008EGPF V0202101N008210084019N0112651N1+00701+00401999999ADDGA1021+006609999GA2071+008409999GA3071+012009999GF107991999999999999999999MA1102101999999MW1611REMMET063EGPF 100550Z 21016KT 9999 -RA SCT022 BKN028 BKN040 07/04 Q1021;EQDQ01+000003PRSWM1Q02    003PRSWM1
0182031400999992000011006504+55870-004430FM-15+0008EGPF V0202001N008710072019N0090001N1+00701+00501999999ADDGA1021+005409999GA2071+007209999GF107991999999999999999999MA1102001999999MW1611REMMET056EGPF 100650Z 20017KT 9000 -RA SCT018 BKN024 07/05 Q1020;EQDQ01+000003PRSWM1Q02    003PRSWM1
0181031400999992000011007504+55870-004430FM-15+0008EGPF V0202101N010310078019N0112651N1+00701+00501999999ADDGA1021+006009999GA2071+007809999GF107991999999999999999999MA1102001999999MW1631REMMET055EGPF 100750Z 21020KT 9999 RA SCT020 BKN026 07/05 Q1020;EQDQ01+000003PRSWM1Q02    003PRSWM1
0204031400999992000011008504+55870-004430FM-15+0008EGPF V0202101N010310060019N0112651N1+00801+00601999999ADDGA1021+004209999GA2071+006009999GA3071+007809999GF107991999999999999999999MA1101901999999MW1631REMMET062EGPF 100850Z 21020KT 9999 RA FEW014 BKN020 BKN026 08/06 Q1019;EQDQ01+000003PRSWM1Q02    003PRSWM1
0216031400999992000011009504+55870-004430FM-15+0008EGPF V0202201N010810072019N0050001N1+00801+00601999999ADDGA1021+003609999GA2021+005409999GA3071+007209999GF107991999999999999999999MA1101901999999MW1651OC101701REMMET066EGPF 100950Z 22021G33KT 5000 +RA FEW012 SCT018 BKN024 08/06 Q1019;EQDQ01+000003PRSWM1Q02    003PRSWM1
0181031400999992000011010504+55870-004430FM-15+0008EGPF V0202101N011310078019N0070001N1+00801+00601999999ADDGA1021+004209999GA2071+007809999GF107991999999999999999999MA1101901999999MW1631REMMET055EGPF 101050Z 21022KT 7000 RA SCT014 BKN026 08/06 Q1019;EQDQ01+000003PRSWM1Q02    003PRSWM1
0182031400999992000011011504+55870-004430FM-15+0008EGPF V0202101N011310072019N0042001N1+00801+00601999999ADDGA1021+003609999GA2071+007209999GF107991999999999999999999MA1101801999999MW1651REMMET056EGPF 101150Z 21022KT 4200 +RA FEW012 BKN024 08/06 Q1018;EQDQ01+000003PRSWM1Q02    003PRSWM1
0181031400999992000011012504+55870-004430FM-15+0008EGPF V0202201N010812200019N0050001N1+00801+00701999999ADDGA1021+003009999GA2021+004809999GF104991999999999999999999MA1101801999999MW1631REMMET055EGPF 101250Z 22021KT 5000 RA SCT010 SCT016 08/07 Q1018;EQDQ01+000003PRSWM1Q02    003PRSWM1
0187031400999992000011014204+55870-004430FM-15+0008EGPF V0202301N008710027019N0050001N1+00801+00701999999ADDGA1021+002409999GA2071+002709999GF107991999999999999999999MA1101901999999MW1611REMMET061EGPF 101420Z 23017KT 5000 -RA FEW008 BKN009 08/07 Q1019 RERA;EQDQ01+000003PRSWM1Q02    003PRSWM1
0210031400999992000011014504+55870-004430FM-15+0008EGPF V0202401N007210072019N0050001N1+00901+00701999999ADDGA1021+003609999GA2021+005409999GA3071+007209999GF107991999999999999999999MA1101901999999MW1611REMMET068EGPF 101450Z 24014KT 5000 -RA FEW012 SCT018 BKN024 09/07 Q1019 RERA;EQDQ01+000003PRSWM1Q02    003PRSWM1
0186031400999992000011015504+55870-004430FM-15+0008EGPF V0202601N004110120019N0112651N1+00701+00601999999ADDGA1021+004209999GA2071+012009999GF107991999999999999999999MA1101901999999MW1531REMMET060EGPF 101550Z 26008KT 9999 DZ FEW014 BKN040 07/06 Q1019 RERA;EQDQ01+000003PRSWM1Q02    003PRSWM1
0167031400999992000011016504+55870-004430FM-15+0008EGPF V0202401N006212200019N0112651N1+00801+00601999999ADDGA1021+005409999GA2021+009009999GF104991999999999999999999MA1102001999999MW1001REMMET057EGPF 101650Z 24012KT 9999 FEW018 SCT030 08/06 Q1020 REDZ;EQDQ01+000000PRSWM2
0139031400999992000011017504+55870-004430FM-15+0008EGPF V0202401N008212200019N0112651N1+00701+00601999999ADDGA1021+010509999GF102991999999999999999999MA1102001999999MW1001REMMET045EGPF 101750Z 24016KT 9999 FEW035 07/06 Q1020;EQDQ01+000000PRSWM2
0182031400999992000011018504+55870-004430FM-15+0008EGPF V0202501N005110105019N0112651N1+00801+00501999999ADDGA1021+007809999GA2071+010509999GF107991999999999999999999MA1102101999999MW1611REMMET056EGPF 101850Z 25010KT 9999 -RA FEW026 BKN035 08/05 Q1021;EQDQ01+000003PRSWM1Q02    003PRSWM1
0139031400999992000011019504+55870-004430FM-15+0008EGPF V0202501N007212200019N0112651N1+00801+00501999999ADDGA1021+010509999GF102991999999999999999999MA1102101999999MW1001REMMET045EGPF 101950Z 25014KT 9999 FEW035 08/05 Q1021;EQDQ01+000000PRSWM2
0139031400999992000011020504+55870-004430FM-15+0008EGPF V0202501N006712200019N0112651N1+00801+00401999999ADDGA1021+009009999GF102991999999999999999999MA1102101999999MW1001REMMET045EGPF 102050Z 25013KT 9999 FEW030 08/04 Q1021;EQDQ01+000000PRSWM2
0139031400999992000011021504+55870-004430FM-15+0008EGPF V0202101N003112200019N0112651N1+00601+00401999999ADDGA1021+012009999GF102991999999999999999999MA1102201999999MW1001REMMET045EGPF 102150Z 21006KT 9999 FEW040 06/04 Q1022;EQDQ01+000000PRSWM2
0091031400999992000011023204+55870-004430FM-15+0008EGPF V0202201N00411220001CN0099001N1+00601+00501999999ADDMA1102201999999MW1001REMMET039EGPF 102320Z 22008KT CAVOK 06/05 Q1022;EQDQ01+000000PRSWM2
0139031400999992000011100204+55870-004430FM-15+0008EGPF V0202101N004612200019N0112651N1+00601+00501999999ADDGA1021+006009999GF102991999999999999999999MA1102201999999MW1001REMMET045EGPF 110020Z 21009KT 9999 FEW020 06/05 Q1022;EQDQ01+000000PRSWM2
0162031400999992000011101204+55870-004430FM-15+0008EGPF V0202101N003610510019N0112651N1+00601+00501999999ADDGA1021+012009999GA2071+051009999GF107991999999999999999999MA1102201999999MW1001REMMET052EGPF 110120Z 21007KT 9999 SCT040 BKN170 06/05 Q1022;EQDQ01+000000PRSWM2
0162031400999992000011104204+55870-004430FM-15+0008EGPF V0202101N003110420019N0112651N1+00601+00501999999ADDGA1021+012009999GA2071+042009999GF107991999999999999999999MA1102201999999MW1001REMMET052EGPF 110420Z 21006KT 9999 FEW040 BKN140 06/05 Q1022;EQDQ01+000000PRSWM2
0162031400999992000011104504+55870-004430FM-15+0008EGPF V0202101N003110420019N0112651N1+00601+00501999999ADDGA1021+012009999GA2071+042009999GF107991999999999999999999MA1102201999999MW1001REMMET052EGPF 110450Z 21006KT 9999 FEW040 BKN140 06/05 Q1022;EQDQ01+000000PRSWM2
0162031400999992000011105504+55870-004430FM-15+0008EGPF V0202001N002610450019N0112651N1+00601+00401999999ADDGA1021+012009999GA2071+045009999GF107991999999999999999999MA1102201999999MW1001REMMET052EGPF 110550Z 20005KT 9999 FEW040 BKN150 06/04 Q1022;EQDQ01+000000PRSWM2
0162031400999992000011106504+55870-004430FM-15+0008EGPF V0202301N005110600019N0112651N1+00601+00401999999ADDGA1021+006009999GA2071+060009999GF107991999999999999999999MA1102201999999MW1001REMMET052EGPF 110650Z 23010KT 9999 FEW020 BKN200 06/04 Q1022;EQDQ01+000000PRSWM2
0162031400999992000011107504+55870-004430FM-15+0008EGPF V0202101N006712200019N0090001N1+00701+00501999999ADDGA1021+003009999GA2021+051009999GF104991999999999999999999MA1102201999999MW1001REMMET052EGPF 110750Z 21013KT 9000 SCT010 SCT170 07/05 Q1022;EQDQ01+000000PRSWM2
0139031400999992000011108504+55870-004430FM-15+0008EGPF V0202201N007210036019N0112651N1+00701+00501999999ADDGA1071+003609999GF107991999999999999999999MA1102201999999MW1001REMMET045EGPF 110850Z 22014KT 9999 BKN012 07/05 Q1022;EQDQ01+000000PRSWM2
0162031400999992000011109504+55870-004430FM-15+0008EGPF V0202101N007710420019N0112651N1+00701+00501999999ADDGA1021+004809999GA2071+042009999GF107991999999999999999999MA1102101999999MW1001REMMET052EGPF 110950Z 21015KT 9999 FEW016 BKN140 07/05 Q1021;EQDQ01+000000PRSWM2
0162031400999992000011110504+55870-004430FM-15+0008EGPF V0202101N007710390019N0112651N1+00701+00501999999ADDGA1021+004209999GA2081+039009999GF108991999999999999999999MA1102101999999MW1001REMMET052EGPF 111050Z 21015KT 9999 FEW014 OVC130 07/05 Q1021;EQDQ01+000000PRSWM2
0162031400999992000011111504+55870-004430FM-15+0008EGPF V0202201N006712200019N0080001N1+00701+00501999999ADDGA1021+003009999GA2021+036009999GF104991999999999999999999MA1102001999999MW1001REMMET052EGPF 111150Z 22013KT 8000 SCT010 SCT120 07/05 Q1020;EQDQ01+000000PRSWM2
0162031400999992000011112504+55870-004430FM-15+0008EGPF V0202101N006210210019N0112651N1+00701+00601999999ADDGA1021+002709999GA2071+021009999GF107991999999999999999999MA1101901999999MW1001REMMET052EGPF 111250Z 21012KT 9999 SCT009 BKN070 07/06 Q1019;EQDQ01+000000PRSWM2
0162031400999992000011113504+55870-004430FM-15+0008EGPF V0202101N006710240019N0112651N1+00701+00501999999ADDGA1021+003609999GA2071+024009999GF107991999999999999999999MA1101801999999MW1001REMMET052EGPF 111350Z 21013KT 9999 SCT012 BKN080 07/05 Q1018;EQDQ01+000000PRSWM2
0139031400999992000011114504+55870-004430FM-15+0008EGPF V0202301N006210030019N0112651N1+00701+00601999999ADDGA1071+003009999GF107991999999999999999999MA1101691999999MW1001REMMET045EGPF 111450Z 23012KT 9999 BKN010 07/06 Q1017;EQDQ01+000000PRSWM2
0185031400999992000011115504+55870-004430FM-15+0008EGPF V0202301N005710240019N0080001N1+00701+00601999999ADDGA1021+003009999GA2021+004809999GA3071+024009999GF107991999999999999999999MA1101591999999MW1001REMMET059EGPF 111550Z 23011KT 8000 FEW010 SCT016 BKN080 07/06 Q1016;EQDQ01+000000PRSWM2
0162031400999992000011116504+55870-004430FM-15+0008EGPF V0202301N005110135019N0080001N1+00701+00601999999ADDGA1021+002709999GA2081+013509999GF108991999999999999999999MA1101591999999MW1001REMMET052EGPF 111650Z 23010KT 8000 FEW009 OVC045 07/06 Q1016;EQDQ01+000000PRSWM2
0162031400999992000011117504+55870-004430FM-15+0008EGPF V0202301N003612200019N0070001N1+00701+00601999999ADDGA1021+002709999GA2021+006009999GF104991999999999999999999MA1101491999999MW1001REMMET052EGPF 111750Z 23007KT 7000 FEW009 SCT020 07/06 Q1015;EQDQ01+000000PRSWM2
0187031400999992000011118504+55870-004430FM-15+0008EGPF V0202601N002110030019N0050001N1+00701+00601999999ADDGA1021+002409999GA2071+003009999GF107991999999999999999999MA1101491999999MW1611REMMET061EGPF 111850Z 26004KT 5000 -RA FEW008 BKN010 07/06 Q1015 REDZ;EQDQ01+000003PRSWM1Q02    003PRSWM1
0182031400999992000011119504+55870-004430FM-15+0008EGPF V0202301N004110084019N0112651N1+00701+00501999999ADDGA1021+006609999GA2081+008409999GF108991999999999999999999MA1101491999999MW1611REMMET056EGPF 111950Z 23008KT 9999 -RA FEW022 OVC028 07/05 Q1015;EQDQ01+000003PRSWM1Q02    003PRSWM1
0182031400999992000011120504+55870-004430FM-15+0008EGPF V0201901N003610084019N0112651N1+00701+00501999999ADDGA1021+006609999GA2071+008409999GF107991999999999999999999MA1101391999999MW1611REMMET056EGPF 112050Z 19007KT 9999 -RA SCT022 BKN028 07/05 Q1014;EQDQ01+000003PRSWM1Q02    003PRSWM1
0162031400999992000011121504+55870-004430FM-15+0008EGPF V0202101N004610240019N0112651N1+00701+00501999999ADDGA1021+007509999GA2071+024009999GF107991999999999999999999MA1101391999999MW1001REMMET052EGPF 112150Z 21009KT 9999 FEW025 BKN080 07/05 Q1014;EQDQ01+000000PRSWM2
0189031400999992000011123504+55870-004430FM-15+0008EGPF V0202601N003110090019N0112651N1+00601+00501999999ADDGA1071+009009999GA2071+013509999GF107991999999999999999999MA1101491999999MW1801REMMET063EGPF 112350Z 26006KT 9999 -SHRA BKN030 BKN045 06/05 Q1015 REDZ;EQDQ01+000003PRSWM1Q02    003PRSWM1
0190031400999992000011202504+55870-004430FM-15+0008EGPF V0202101N003110090019N0112651N1+00601+00501999999ADDGA1021+003009999GA2021+007209999GA3071+009009999GF107991999999999999999999MA1101391999999MW1001REMMET064EGPF 120250Z 21006KT 9999 FEW010 SCT024 BKN030 06/05 Q1014 REDZ;EQDQ01+000000PRSWM2
0139031400999992000011203504+55870-004430FM-15+0008EGPF V0202101N004610105019N0112651N1+00601+00501999999ADDGA1071+010509999GF107991999999999999999999MA1101391999999MW1001REMMET045EGPF 120350Z 21009KT 9999 BKN035 06/05 Q1014;EQDQ01+000000PRSWM2
0162031400999992000011204504+55870-004430FM-15+0008EGPF V0202201N005710120019N0112651N1+00601+00501999999ADDGA1071+012009999GA2071+018009999GF107991999999999999999999MA1101391999999MW1001REMMET052EGPF 120450Z 22011KT 9999 BKN040 BKN060 06/05 Q1014;EQDQ01+000000PRSWM2
0185031400999992000011205504+55870-004430FM-15+0008EGPF V0202201N004610090019N0112651N1+00701+00501999999ADDGA1021+003009999GA2071+009009999GA3071+013509999GF107991999999999999999999MA1101291999999MW1001REMMET059EGPF 120550Z 22009KT 9999 FEW010 BKN030 BKN045 07/05 Q1013;EQDQ01+000000PRSWM2
0185031400999992000011206504+55870-004430FM-15+0008EGPF V0202201N004610072019N0112651N1+00701+00501999999ADDGA1021+002709999GA2021+003609999GA3071+007209999GF107991999999999999999999MA1101291999999MW1001REMMET059EGPF 120650Z 22009KT 9999 SCT009 SCT012 BKN024 07/05 Q1013;EQDQ01+000000PRSWM2
0185031400999992000011207504+55870-004430FM-15+0008EGPF V0202301N003610078019N0112651N1+00601+00501999999ADDGA1021+002709999GA2021+006009999GA3071+007809999GF107991999999999999999999MA1101291999999MW1001REMMET059EGPF 120750Z 23007KT 9999 FEW009 SCT020 BKN026 06/05 Q1013;EQDQ01+000000PRSWM2
0185031400999992000011208504+55870-004430FM-15+0008EGPF V0202301N005110090019N0112651N1+00601+00401999999ADDGA1021+003009999GA2021+007209999GA3071+009009999GF107991999999999999999999MA1101291999999MW1001REMMET059EGPF 120850Z 23010KT 9999 FEW010 SCT024 BKN030 06/04 Q1013;EQDQ01+000000PRSWM2
0187031400999992000011209504+55870-004430FM-15+0008EGPF V0202301N006212200019N0112651N1+00601+00401999999ADDGA1021+006609999GA2021+008409999GF104991999999999999999999MA1101391999999MW1611REMMET061EGPF 120950Z 23012KT 9999 -RA FEW022 SCT028 06/04 Q1014 REDZ;EQDQ01+000003PRSWM1Q02    003PRSWM1
0139031400999992000011210504+55870-004430FM-15+0008EGPF V0202201N004112200019N0112651N1+00501+00301999999ADDGA1021+013509999GF104991999999999999999999MA1101391999999MW1001REMMET045EGPF 121050Z 22008KT 9999 SCT045 05/03 Q1014;EQDQ01+000000PRSWM2
0162031400999992000011211504+55870-004430FM-15+0008EGPF V0202301N003610150019N0112651N1+00501+00301999999ADDGA1021+007809999GA2071+015009999GF107991999999999999999999MA1101391999999MW1001REMMET052EGPF 121150Z 23007KT 9999 FEW026 BKN050 05/03 Q1014;EQDQ01+000000PRSWM2
0185031400999992000011212504+55870-004430FM-15+0008EGPF V0202501N002610330019N0112651N1+00601+00301999999ADDGA1021+006009999GA2021+021009999GA3071+033009999GF107991999999999999999999MA1101291999999MW1001REMMET059EGPF 121250Z 25005KT 9999 FEW020 SCT070 BKN110 06/03 Q1013;EQDQ01+000000PRSWM2
0162031400999992000011213504+55870-004430FM-15+0008EGPF V0202401N002610330019N0112651N1+00601+00201999999ADDGA1021+007509999GA2071+033009999GF107991999999999999999999MA1101291999999MW1001REMMET052EGPF 121350Z 24005KT 9999 FEW025 BKN110 06/02 Q1013;EQDQ01+000000PRSWM2
0162031400999992000011214504+55870-004430FM-15+0008EGPF V0202201N004110270019N0112651N1+00501+00201999999ADDGA1021+007509999GA2071+027009999GF107991999999999999999999MA1101291999999MW1001REMMET052EGPF 121450Z 22008KT 9999 FEW025 BKN090 05/02 Q1013;EQDQ01+000000PRSWM2
0162031400999992000011215504+55870-004430FM-15+0008EGPF V0202201N004110150019N0112651N1+00501+00201999999ADDGA1021+006009999GA2071+015009999GF107991999999999999999999MA1101291999999MW1001REMMET052EGPF 121550Z 22008KT 9999 FEW020 BKN050 05/02 Q1013;EQDQ01+000000PRSWM2
0187031400999992000011216504+55870-004430FM-15+0008EGPF V0202401N001510078019N0112651N1+00301+00101999999ADDGA1071+007809999GA2071+010509999GF107991999999999999999999MA1101291999999MW1611REMMET061EGPF 121650Z 24003KT 9999 -RA BKN026 BKN035 03/01 Q1013 REDZ;EQDQ01+000003PRSWM1Q02    003PRSWM1
0193031400999992000011217504+55870-004430FM-15+0008EGPF V0202701N002110150019N0112651N1+00301+00101999999ADDGA1021+004209999GA2021+010509999GA3071+015009999GF107991999999999999999999MA1101291999999MW1001REMMET067EGPF 121750Z 27004KT 240V330 9999 FEW014 SCT035 BKN050 03/01 Q1013;EQDQ01+000000PRSWM2
0162031400999992000011218504+55870-004430FM-15+0008EGPF V0209999C000012200019N0112651N1+00201+00101999999ADDGA1021+010509999GA2021+018009999GF104991999999999999999999MA1101291999999MW1001REMMET052EGPF 121850Z 00000KT 9999 FEW035 SCT065 02/01 Q1013;EQDQ01+000000PRSWM2
0162031400999992000011219504+55870-004430FM-15+0008EGPF V0209999C000010510019N0112651N1+00201+00001999999ADDGA1021+012009999GA2081+051009999GF108991999999999999999999MA1101291999999MW1001REMMET052EGPF 121950Z 00000KT 9999 FEW040 OVC170 02/00 Q1013;EQDQ01+000000PRSWM2
0163031400999992000011220504+55870-004430FM-15+0008EGPF V02099999999990510019N0112651N1+00101+00001999999ADDGA1021+013509999GA2071+051009999GF107991999999999999999999MA1101291999999MW1001REMMET053EGPF 122050Z VRB02KT 9999 FEW045 BKN170 01/M00 Q1013;EQDQ01+000000PRSWM2
0092031400999992000011221504+55870-004430FM-15+0008EGPF V0209999C00001220001CN0099001N1+00101-00101999999ADDMA1101291999999MW1001REMMET040EGPF 122150Z 00000KT CAVOK 01/M01 Q1013;EQDQ01+000000PRSWM2
0092031400999992000011222504+55870-004430FM-15+0008EGPF V0209999C00001220001CN0099001N1+00101+00001999999ADDMA1101291999999MW1001REMMET040EGPF 122250Z 00000KT CAVOK 01/M00 Q1013;EQDQ01+000000PRSWM2
0122031400999992000011223504+55870-004430FM-15+0008EGPF V02099999999992200019N0070001N1-00101-00201999999ADDGF100991999999999999999999MA1101291999999MW1001REMMET044EGPF 122350Z VRB03KT 7000 SKC M01/M02 Q1013;EQDQ01+000000PRSWM2
0159031400999992000011303504+55870-004430FM-15+0008EGPF V0203101N00151000151CN0005001N1-00201-00201999999ADDGA1091+000159999GF109991999999000251999999MA1101391999999MW1451REMMET049EGPF 130350Z 31003KT 0500 FG VV/// M02/M02 Q1014;EQDQ01+000003PRSWM1Q02    003PRSWM1
0188031400999992000011304504+55870-004430FM-15+0008EGPF V0209999999999000151CN0001001N1-00201-00201999999ADDED199U02509GA1091+000159999GF109991999999000251999999MA1101391999999MW1451REMMET067EGPF 130450Z VRB02KT 0100 R23/0250 R05/0300 FG VV/// M02/M02 Q1014;EQDQ01+000003PRSWM1Q02    003PRSWM1
0191031400999992000011305504+55870-004430FM-15+0008EGPF V0209999999999000151CN0004501N1-00301-00301999999ADDED199U08009GA1091+000159999GF109991999999000251999999MA1101391999999MW1411REMMET070EGPF 130550Z VRB02KT 0450 R23/0800 R05/P1500 BCFG VV/// M03/M03 Q1014;EQDQ01+000003PRSWM1Q02    003PRSWM1
0160031400999992000011306504+55870-004430FM-15+0008EGPF V0202201N002612200019N0070001N1-00201-00201999999ADDGA1021+007209999GF104991999999999999999999MA1101391999999MW1101REMMET050EGPF 130650Z 22005KT 7000 BR SCT024 M02/M02 Q1014;EQDQ01+000003PRSWM1Q02    003PRSWM1
0163031400999992000011307504+55870-004430FM-15+0008EGPF V0202701N001510084019N0112651N1+00001+00001999999ADDGA1021+004809999GA2071+008409999GF107991999999999999999999MA1101391999999MW1001REMMET053EGPF 130750Z 27003KT 9999 SCT016 BKN028 00/M00 Q1014;EQDQ01+000000PRSWM2
0163031400999992000011308504+55870-004430FM-15+0008EGPF V02099999999992200019N0112651N1+00001+00001999999ADDGA1021+006009999GA2021+007809999GF104991999999999999999999MA1101391999999MW1001REMMET053EGPF 130850Z VRB02KT 9999 SCT020 SCT026 00/M00 Q1014;EQDQ01+000000PRSWM2
0162031400999992000011309504+55870-004430FM-15+0008EGPF V0202501N002612200019N0112651N1+00101+00001999999ADDGA1021+009009999GA2021+015009999GF102991999999999999999999MA1101391999999MW1001REMMET052EGPF 130950Z 25005KT 9999 FEW030 FEW055 01/00 Q1014;EQDQ01+000000PRSWM2
0162031400999992000011310504+55870-004430FM-15+0008EGPF V0202601N001012200019N0112651N1+00201+00101999999ADDGA1021+010509999GA2021+015009999GF102991999999999999999999MA1101391999999MW1001REMMET052EGPF 131050Z 26002KT 9999 FEW035 FEW055 02/01 Q1014;EQDQ01+000000PRSWM2
0162031400999992000011311504+55870-004430FM-15+0008EGPF V0202701N001512200019N0112651N1+00301+00101999999ADDGA1021+012009999GA2021+021009999GF104991999999999999999999MA1101391999999MW1001REMMET052EGPF 131150Z 27003KT 9999 FEW040 SCT070 03/01 Q1014;EQDQ01+000000PRSWM2
0162031400999992000011312504+55870-004430FM-15+0008EGPF V0203201N003112200019N0112651N1+00501+00201999999ADDGA1021+004509999GA2021+015009999GF104991999999999999999999MA1101491999999MW1001REMMET052EGPF 131250Z 32006KT 9999 FEW015 SCT050 05/02 Q1015;EQDQ01+000000PRSWM2
0182031400999992000011313504+55870-004430FM-15+0008EGPF V0200201N005112200019N0112651N1+00401+00101999999ADDGA1021+003609999GA2021+006609999GF104991999999999999999999MA1101591999999MW1611REMMET056EGPF 131350Z 02010KT 9999 -RA SCT012 SCT022 04/01 Q1016;EQDQ01+000003PRSWM1Q02    003PRSWM1
0140031400999992000011314504+55870-004430FM-15+0008EGPF V0200401N004612200019N0112651N1+00401-00101999999ADDGA1021+006009999GF104991999999999999999999MA1101801999999MW1001REMMET046EGPF 131450Z 04009KT 9999 SCT020 04/M01 Q1018;EQDQ01+000000PRSWM2
0140031400999992000011315504+55870-004430FM-15+0008EGPF V0200701N002612200019N0112651N1+00301-00101999999ADDGA1021+013509999GF104991999999999999999999MA1101901999999MW1001REMMET046EGPF 131550Z 07005KT 9999 SCT045 03/M01 Q1019;EQDQ01+000000PRSWM2
0140031400999992000011316504+55870-004430FM-15+0008EGPF V0209999C000012200019N0112651N1+00201-00101999999ADDGA1021+013509999GF104991999999999999999999MA1102101999999MW1001REMMET046EGPF 131650Z 00000KT 9999 SCT045 02/M01 Q1021;EQDQ01+000000PRSWM2
0140031400999992000011317504+55870-004430FM-15+0008EGPF V0203401N003112200019N0112651N1+00201-00101999999ADDGA1021+012009999GF102991999999999999999999MA1102201999999MW1001REMMET046EGPF 131750Z 34006KT 9999 FEW040 02/M01 Q1022;EQDQ01+000000PRSWM2
0092031400999992000011318504+55870-004430FM-15+0008EGPF V0203301N00361220001CN0099001N1+00101-00101999999ADDMA1102301999999MW1001REMMET040EGPF 131850Z 33007KT CAVOK 01/M01 Q1023;EQDQ01+000000PRSWM2
0092031400999992000011320204+55870-004430FM-15+0008EGPF V0202901N00211220001CN0099001N1+00101-00101999999ADDMA1102401999999MW1001REMMET040EGPF 132020Z 29004KT CAVOK 01/M01 Q1024;EQDQ01+000000PRSWM2
0092031400999992000011320504+55870-004430FM-15+0008EGPF V0209999999999220001CN0099001N1+00201-00101999999ADDMA1102401999999MW1001REMMET040EGPF 132050Z VRB03KT CAVOK 02/M01 Q1024;EQDQ01+000000PRSWM2
0100031400999992000011321504+55870-004430FM-15+0008EGPF V0203401N00211220001CN0099001N1+00201-00101999999ADDMA1102511999999MW1001REMMET048EGPF 132150Z 34004KT 290V020 CAVOK 02/M01 Q1025;EQDQ01+000000PRSWM2
0092031400999992000011322504+55870-004430FM-15+0008EGPF V0203401N00211220001CN0099001N1+00301-00101999999ADDMA1102511999999MW1001REMMET040EGPF 132250Z 34004KT CAVOK 03/M01 Q1025;EQDQ01+000000PRSWM2
0140031400999992000011323504+55870-004430FM-15+0008EGPF V0203101N002112200019N0112651N1+00201-00101999999ADDGA1021+012009999GF102991999999999999999999MA1102611999999MW1001REMMET046EGPF 132350Z 31004KT 9999 FEW040 02/M01 Q1026;EQDQ01+000000PRSWM2
0092031400999992000011400504+55870-004430FM-15+0008EGPF V0202901N00311220001CN0099001N1+00201-00101999999ADDMA1102711999999MW1001REMMET040EGPF 140050Z 29006KT CAVOK 02/M01 Q1027;EQDQ01+000000PRSWM2
0140031400999992000011401504+55870-004430FM-15+0008EGPF V0202901N003110120019N0112651N1+00301-00101999999ADDGA1071+012009999GF107991999999999999999999MA1102711999999MW1001REMMET046EGPF 140150Z 29006KT 9999 BKN040 03/M01 Q1027;EQDQ01+000000PRSWM2
0100031400999992000011404504+55870-004430FM-15+0008EGPF V0203501N00261220001CN0099001N1+00301-00301999999ADDMA1102911999999MW1001REMMET048EGPF 140450Z 35005KT 320V020 CAVOK 03/M03 Q1029;EQDQ01+000000PRSWM2
0100031400999992000011405504+55870-004430FM-15+0008EGPF V0203101N00211220001CN0099001N1+00201-00301999999ADDMA1103011999999MW1001REMMET048EGPF 140550Z 31004KT 290V350 CAVOK 02/M03 Q1030;EQDQ01+000000PRSWM2
0092031400999992000011406504+55870-004430FM-15+0008EGPF V0209999999999220001CN0099001N1+00001-00401999999ADDMA1103121999999MW1001REMMET040EGPF 140650Z VRB03KT CAVOK 00/M04 Q1031;EQDQ01+000000PRSWM2
0140031400999992000011407504+55870-004430FM-15+0008EGPF V02099999999992200019N0112651N1+00001-00401999999ADDGA1021+012009999GF102991999999999999999999MA1103181999999MW1001REMMET046EGPF 140750Z VRB02KT 9999 FEW040 00/M04 Q1032;EQDQ01+000000PRSWM2
0171031400999992000011408504+55870-004430FM-15+0008EGPF V0202801N003612200019N0112651N1+00201-00301999999ADDGA1021+010509999GA2021+015009999GF104991999999999999999999MA1103181999999MW1001REMMET061EGPF 140850Z 28007KT 250V310 9999 FEW035 SCT050 02/M03 Q1032;EQDQ01+000000PRSWM2
0163031400999992000011409504+55870-004430FM-15+0008EGPF V02099999999990150019N0112651N1+00401-00401999999ADDGA1021+010509999GA2071+015009999GF107991999999999999999999MA1103291999999MW1001REMMET053EGPF 140950Z VRB03KT 9999 FEW035 BKN050 04/M04 Q1033;EQDQ01+000000PRSWM2
0100031400999992000011410504+55870-004430FM-15+0008EGPF V0203601N00311220001CN0099001N1+00401-00401999999ADDMA1103291999999MW1001REMMET048EGPF 141050Z 36006KT 270V140 CAVOK 04/M04 Q1033;EQDQ01+000000PRSWM2
0092031400999992000011411504+55870-004430FM-15+0008EGPF V0200101N00931220001CN0099001N1+00401-00401999999ADDMA1103291999999MW1001REMMET040EGPF 141150Z 01018KT CAVOK 04/M04 Q1033;EQDQ01+000000PRSWM2
0140031400999992000011412504+55870-004430FM-15+0008EGPF V0200101N003612200019N0112651N1+00401-00301999999ADDGA1021+012009999GF102991999999999999999999MA1103391999999MW1001REMMET046EGPF 141250Z 01007KT 9999 FEW040 04/M03 Q1034;EQDQ01+000000PRSWM2
0140031400999992000011413504+55870-004430FM-15+0008EGPF V0200301N005712200019N0112651N1+00401-00401999999ADDGA1021+013509999GF102991999999999999999999MA1103391999999MW1001REMMET046EGPF 141350Z 03011KT 9999 FEW045 04/M04 Q1034;EQDQ01+000000PRSWM2
0140031400999992000011415204+55870-004430FM-15+0008EGPF V0200201N002612200019N0112651N1+00301-00301999999ADDGA1021+012009999GF104991999999999999999999MA1103491999999MW1001REMMET046EGPF 141520Z 02005KT 9999 SCT040 03/M03 Q1035;EQDQ01+000000PRSWM2
0140031400999992000011415504+55870-004430FM-15+0008EGPF V0200401N002112200019N0112651N1+00201-00201999999ADDGA1021+012009999GF102991999999999999999999MA1103491999999MW1001REMMET046EGPF 141550Z 04004KT 9999 FEW040 02/M02 Q1035;EQDQ01+000000PRSWM2
0140031400999992000011416504+55870-004430FM-15+0008EGPF V0200101N001512200019N0112651N1+00101-00301999999ADDGA1021+012009999GF104991999999999999999999MA1103591999999MW1001REMMET046EGPF 141650Z 01003KT 9999 SCT040 01/M03 Q1036;EQDQ01+000000PRSWM2
0140031400999992000011417504+55870-004430FM-15+0008EGPF V0200101N001512200019N0112651N1+00101-00401999999ADDGA1021+012009999GF102991999999999999999999MA1103691999999MW1001REMMET046EGPF 141750Z 01003KT 9999 FEW040 01/M04 Q1037;EQDQ01+000000PRSWM2
0141031400999992000011418504+55870-004430FM-15+0008EGPF V0200101N001512200019N0112651N1+00001-00301999999ADDGA1021+012009999GF102991999999999999999999MA1103691999999MW1001REMMET047EGPF 141850Z 01003KT 9999 FEW040 M00/M03 Q1037;EQDQ01+000000PRSWM2
0141031400999992000011419504+55870-004430FM-15+0008EGPF V0209999C000012200019N0112651N1-00101-00401999999ADDGA1021+012009999GF102991999999999999999999MA1103791999999MW1001REMMET047EGPF 141950Z 00000KT 9999 FEW040 M01/M04 Q1038;EQDQ01+000000PRSWM2
0093031400999992000011420504+55870-004430FM-15+0008EGPF V0209999999999220001CN0099001N1-00101-00501999999ADDMA1103791999999MW1001REMMET041EGPF 142050Z VRB02KT CAVOK M01/M05 Q1038;EQDQ01+000000PRSWM2
0141031400999992000011421504+55870-004430FM-15+0008EGPF V0202501N002612200019N0112651N1-00101-00401999999ADDGA1021+012009999GF102991999999999999999999MA1103891999999MW1001REMMET047EGPF 142150Z 25005KT 9999 FEW040 M01/M04 Q1039;EQDQ01+000000PRSWM2
0141031400999992000011422504+55870-004430FM-15+0008EGPF V0202501N002110120019N0112651N1-00101-00401999999ADDGA1071+012009999GF107991999999999999999999MA1103891999999MW1001REMMET047EGPF 142250Z 25004KT 9999 BKN040 M01/M04 Q1039;EQDQ01+000000PRSWM2
0093031400999992000011423504+55870-004430FM-15+0008EGPF V0202301N00261220001CN0099001N1-00201-00401999999ADDMA1103891999999MW1001REMMET041EGPF 142350Z 23005KT CAVOK M02/M04 Q1039;EQDQ01+000000PRSWM2
0141031400999992000011500504+55870-004430FM-15+0008EGPF V0202101N001510120019N0112651N1-00101-00301999999ADDGA1071+012009999GF107991999999999999999999MA1104001999999MW1001REMMET047EGPF 150050Z 21003KT 9999 BKN040 M01/M03 Q1040;EQDQ01+000000PRSWM2
0093031400999992000011503504+55870-004430FM-15+0008EGPF V0202701N00151220001CN0099001N1-00101-00301999999ADDMA1104001999999MW1001REMMET041EGPF 150350Z 27003KT CAVOK M01/M03 Q1040;EQDQ01+000000PRSWM2
0093031400999992000011504504+55870-004430FM-15+0008EGPF V0209999999999220001CN0099001N1-00301-00501999999ADDMA1104001999999MW1001REMMET041EGPF 150450Z VRB02KT CAVOK M03/M05 Q1040;EQDQ01+000000PRSWM2
0141031400999992000011505504+55870-004430FM-15+0008EGPF V0202201N001512200019N0112651N1-00301-00501999999ADDGA1021+010509999GF104991999999999999999999MA1104101999999MW1001REMMET047EGPF 150550Z 22003KT 9999 SCT035 M03/M05 Q1041;EQDQ01+000000PRSWM2
0141031400999992000011506504+55870-004430FM-15+0008EGPF V0202201N002112200019N0112651N1-00301-00501999999ADDGA1021+010509999GF104991999999999999999999MA1104101999999MW1001REMMET047EGPF 150650Z 22004KT 9999 SCT035 M03/M05 Q1041;EQDQ01+000000PRSWM2
0141031400999992000011507504+55870-004430FM-15+0008EGPF V0203201N001012200019N0112651N1-00301-00401999999ADDGA1021+010509999GF102991999999999999999999MA1104201999999MW1001REMMET047EGPF 150750Z 32002KT 9999 FEW035 M03/M04 Q1042;EQDQ01+000000PRSWM2
0141031400999992000011508504+55870-004430FM-15+0008EGPF V0202101N002112200019N0112651N1-00401-00501999999ADDGA1021+010509999GF102991999999999999999999MA1104201999999MW1001REMMET047EGPF 150850Z 21004KT 9999 FEW035 M04/M05 Q1042;EQDQ01+000000PRSWM2
0093031400999992000011509504+55870-004430FM-15+0008EGPF V0202401N00211220001CN0099001N1-00201-00301999999ADDMA1104301999999MW1001REMMET041EGPF 150950Z 24004KT CAVOK M02/M03 Q1043;EQDQ01+000000PRSWM2
0092031400999992000011510504+55870-004430FM-15+0008EGPF V0209999C00001220001CN0099001N1+00001-00201999999ADDMA1104301999999MW1001REMMET040EGPF 151050Z 00000KT CAVOK 00/M02 Q1043;EQDQ01+000000PRSWM2
0092031400999992000011511504+55870-004430FM-15+0008EGPF V0202401N00101220001CN0099001N1+00201-00201999999ADDMA1104301999999MW1001REMMET040EGPF 151150Z 24002KT CAVOK 02/M02 Q1043;EQDQ01+000000PRSWM2
0140031400999992000011512504+55870-004430FM-15+0008EGPF V0202401N002112200019N0112651N1+00301+00001999999ADDGA1021+013509999GF102991999999999999999999MA1104301999999MW1001REMMET046EGPF 151250Z 24004KT 9999 FEW045 03/M00 Q1043;EQDQ01+000000PRSWM2
0140031400999992000011513504+55870-004430FM-15+0008EGPF V02099999999992200019N0112651N1+00401+00001999999ADDGA1021+009009999GF102991999999999999999999MA1104301999999MW1001REMMET046EGPF 151350Z VRB02KT 9999 FEW030 04/M00 Q1043;EQDQ01+000000PRSWM2
0139031400999992000011514504+55870-004430FM-15+0008EGPF V0202601N001512200019N0112651N1+00401+00001999999ADDGA1021+009009999GF102991999999999999999999MA1104301999999MW1001REMMET045EGPF 151450Z 26003KT 9999 FEW030 04/00 Q1043;EQDQ01+000000PRSWM2
0140031400999992000011515504+55870-004430FM-15+0008EGPF V0202301N002112200019N0112651N1+00101-00101999999ADDGA1021+008409999GF104991999999999999999999MA1104201999999MW1001REMMET046EGPF 151550Z 23004KT 9999 SCT028 01/M01 Q1042;EQDQ01+000000PRSWM2
0140031400999992000011516504+55870-004430FM-15+0008EGPF V0202401N002112200019N0112651N1+00001-00101999999ADDGA1021+009009999GF102991999999999999999999MA1104201999999MW1001REMMET046EGPF 151650Z 24004KT 9999FEW030 M00/M01 Q1042;EQDQ01+000000PRSWM2
0092031400999992000011517504+55870-004430FM-15+0008EGPF V0202401N00211220001CN0099001N1+00001-00101999999ADDMA1104201999999MW1001REMMET040EGPF 151750Z 24004KT CAVOK 00/M01 Q1042;EQDQ01+000000PRSWM2
0093031400999992000011518504+55870-004430FM-15+0008EGPF V0209999999999220001CN0099001N1+00001-00101999999ADDMA1104201999999MW1001REMMET041EGPF 151850Z VRB02KT CAVOK M00/M01 Q1042;EQDQ01+000000PRSWM2
0093031400999992000011520504+55870-004430FM-15+0008EGPF V0209999999999220001CN0099001N1-00301-00301999999ADDMA1104201999999MW1001REMMET041EGPF 152050Z VRB02KT CAVOK M03/M03 Q1042;EQDQ01+000000PRSWM2
0141031400999992000011521504+55870-004430FM-15+0008EGPF V0209999C000012200019N0033001N1-00201-00301999999ADDGF100991999999999999999999MA1104201999999MW1101REMMET047EGPF 152150Z 00000KT 3300 BR SKC M02/M03 Q1042;EQDQ01+000003PRSWM1Q02    003PRSWM1
0162031400999992000011522504+55870-004430FM-15+0008EGPF V0209999C000012200019N0090001N1-00201-00301999999ADDGA1021+060009999GF102991999999999999999999MA1104201999999MW1121REMMET052EGPF 152250Z 00000KT 9000 MIFG FEW200 M02/M03 Q1042;EQDQ01+000003PRSWM1Q02    003PRSWM1
0183031400999992000011600204+55870-004430FM-15+0008EGPF V0200601N001010630019N0048001N1-00201-00201999999ADDGA1021+054009999GA2071+063009999GF107991999999999999999999MA1104201999999MW1101REMMET057EGPF 160020Z 06002KT 4800 BR FEW180 BKN210 M02/M02 Q1042;EQDQ01+000003PRSWM1Q02    003PRSWM1
0141031400999992000011605204+55870-004430FM-15+0008EGPF V0209999C000012200019N0070001N1-00301-00301999999ADDGA1021+004809999GF104991999999999999999999MA1104101999999MW1001REMMET047EGPF 160520Z 00000KT 7000 SCT016 M03/M03 Q1041;EQDQ01+000000PRSWM2
0162031400999992000011606204+55870-004430FM-15+0008EGPF V0202201N003110066019N0112651N1+00201+00101999999ADDGA1021+004809999GA2071+006609999GF107991999999999999999999MA1104101999999MW1001REMMET052EGPF 160620Z 22006KT 9999 SCT016 BKN022 02/01 Q1041;EQDQ01+000000PRSWM2
0147031400999992000011606504+55870-004430FM-15+0008EGPF V0202301N003610048019N0112651N1+00301+00201999999ADDGA1071+004809999GF107991999999999999999999MA1104101999999MW1001REMMET053EGPF 160650Z 23007KT 200V310 9999 BKN016 03/02 Q1041;EQDQ01+000000PRSWM2
0139031400999992000011607504+55870-004430FM-15+0008EGPF V0202301N003112200019N0112651N1+00301+00201999999ADDGA1021+006009999GF102991999999999999999999MA1104101999999MW1001REMMET045EGPF 160750Z 23006KT 9999 FEW020 03/02 Q1041;EQDQ01+000000PRSWM2
0147031400999992000011608504+55870-004430FM-15+0008EGPF V0202301N002612200019N0112651N1+00401+00301999999ADDGA1021+005409999GF102991999999999999999999MA1104101999999MW1001REMMET053EGPF 160850Z 23005KT 200V280 9999 FEW018 04/03 Q1041;EQDQ01+000000PRSWM2
0099031400999992000011609504+55870-004430FM-15+0008EGPF V0202501N00211220001CN0099001N1+00601+00401999999ADDMA1104101999999MW1001REMMET047EGPF 160950Z 25004KT 210V280 CAVOK 06/04 Q1041;EQDQ01+000000PRSWM2
0091031400999992000011610504+55870-004430FM-15+0008EGPF V0202901N00411220001CN0099001N1+00701+00501999999ADDMA1104101999999MW1001REMMET039EGPF 161050Z 29008KT CAVOK 07/05 Q1041;EQDQ01+000000PRSWM2
0139031400999992000011611504+55870-004430FM-15+0008EGPF V0202801N005112200019N0112651N1+00801+00501999999ADDGA1021+007509999GF102991999999999999999999MA1104001999999MW1001REMMET045EGPF 161150Z 28010KT 9999 FEW025 08/05 Q1040;EQDQ01+000000PRSWM2
0147031400999992000011612504+55870-004430FM-15+0008EGPF V0202601N003112200019N0112651N1+00801+00501999999ADDGA1021+007509999GF102991999999999999999999MA1104001999999MW1001REMMET053EGPF 161250Z 26006KT 240V300 9999 FEW025 08/05 Q1040;EQDQ01+000000PRSWM2
0139031400999992000011613504+55870-004430FM-15+0008EGPF V0202901N005112200019N0112651N1+00801+00501999999ADDGA1021+006009999GF102991999999999999999999MA1104001999999MW1001REMMET045EGPF 161350Z 29010KT 9999 FEW020 08/05 Q1040;EQDQ01+000000PRSWM2
0139031400999992000011614504+55870-004430FM-15+0008EGPF V0202501N003112200019N0112651N1+00701+00501999999ADDGA1021+007509999GF102991999999999999999999MA1104001999999MW1001REMMET045EGPF 161450Z 25006KT 9999 FEW025 07/05 Q1040;EQDQ01+000000PRSWM2
0139031400999992000011615504+55870-004430FM-15+0008EGPF V0202601N004112200019N0112651N1+00701+00401999999ADDGA1021+006009999GF102991999999999999999999MA1104001999999MW1001REMMET045EGPF 161550Z 26008KT 9999 FEW020 07/04 Q1040;EQDQ01+000000PRSWM2
0091031400999992000011617204+55870-004430FM-15+0008EGPF V0202301N00261220001CN0099001N1+00301+00201999999ADDMA1104001999999MW1001REMMET039EGPF 161720Z 23005KT CAVOK 03/02 Q1040;EQDQ01+000000PRSWM2
0091031400999992000011617504+55870-004430FM-15+0008EGPF V0202601N00361220001CN0099001N1+00501+00301999999ADDMA1104001999999MW1001REMMET039EGPF 161750Z 26007KT CAVOK 05/03 Q1040;EQDQ01+000000PRSWM2
0091031400999992000011618504+55870-004430FM-15+0008EGPF V0202901N00411220001CN0099001N1+00601+00301999999ADDMA1104001999999MW1001REMMET039EGPF 161850Z 29008KT CAVOK 06/03 Q1040;EQDQ01+000000PRSWM2
0091031400999992000011619504+55870-004430FM-15+0008EGPF V0202901N00461220001CN0099001N1+00601+00301999999ADDMA1104001999999MW1001REMMET039EGPF 161950Z 29009KT CAVOK 06/03 Q1040;EQDQ01+000000PRSWM2
0091031400999992000011620504+55870-004430FM-15+0008EGPF V0202401N00211220001CN0099001N1+00401+00201999999ADDMA1104001999999MW1001REMMET039EGPF 162050Z 24004KT CAVOK 04/02 Q1040;EQDQ01+000000PRSWM2
0091031400999992000011621504+55870-004430FM-15+0008EGPF V0202601N00361220001CN0099001N1+00501+00301999999ADDMA1104001999999MW1001REMMET039EGPF 162150Z 26007KT CAVOK 05/03 Q1040;EQDQ01+000000PRSWM2
0091031400999992000011622504+55870-004430FM-15+0008EGPF V0202501N00361220001CN0099001N1+00501+00301999999ADDMA1104001999999MW1001REMMET039EGPF 162250Z 25007KT CAVOK 05/03 Q1040;EQDQ01+000000PRSWM2
0120031400999992000011623504+55870-004430FM-15+0008EGPF V0202601N004612200019N0112651N1+00601+00401999999ADDGF100991999999999999999999MA1104001999999MW1001REMMET042EGPF 162350Z 26009KT 9999 SKC 06/04 Q1040;EQDQ01+000000PRSWM2
0091031400999992000011700504+55870-004430FM-15+0008EGPF V0202701N00461220001CN0099001N1+00601+00401999999ADDMA1103891999999MW1001REMMET039EGPF 170050Z 27009KT CAVOK 06/04 Q1039;EQDQ01+000000PRSWM2
0091031400999992000011703504+55870-004430FM-15+0008EGPF V0202501N00311220001CN0099001N1+00601+00401999999ADDMA1103891999999MW1001REMMET039EGPF 170350Z 25006KT CAVOK 06/04 Q1039;EQDQ01+000000PRSWM2
0091031400999992000011704504+55870-004430FM-15+0008EGPF V0202601N00571220001CN0099001N1+00501+00401999999ADDMA1103891999999MW1001REMMET039EGPF 170450Z 26011KT CAVOK 05/04 Q1039;EQDQ01+000000PRSWM2
0091031400999992000011706204+55870-004430FM-15+0008EGPF V0202601N00461220001CN0099001N1+00601+00301999999ADDMA1103891999999MW1001REMMET039EGPF 170620Z 26009KT CAVOK 06/03 Q1039;EQDQ01+000000PRSWM2
0091031400999992000011706504+55870-004430FM-15+0008EGPF V0202501N00361220001CN0099001N1+00501+00301999999ADDMA1103891999999MW1001REMMET039EGPF 170650Z 25007KT CAVOK 05/03 Q1039;EQDQ01+000000PRSWM2
0091031400999992000011707504+55870-004430FM-15+0008EGPF V0202501N00461220001CN0099001N1+00501+00301999999ADDMA1103791999999MW1001REMMET039EGPF 170750Z 25009KT CAVOK 05/03 Q1038;EQDQ01+000000PRSWM2
0091031400999992000011708504+55870-004430FM-15+0008EGPF V0202501N00311220001CN0099001N1+00501+00301999999ADDMA1103891999999MW1001REMMET039EGPF 170850Z 25006KT CAVOK 05/03 Q1039;EQDQ01+000000PRSWM2
0091031400999992000011709504+55870-004430FM-15+0008EGPF V0202801N00461220001CN0099001N1+00701+00501999999ADDMA1103891999999MW1001REMMET039EGPF 170950Z 28009KT CAVOK 07/05 Q1039;EQDQ01+000000PRSWM2
0091031400999992000011710504+55870-004430FM-15+0008EGPF V0202901N00411220001CN0099001N1+00801+00501999999ADDMA1103891999999MW1001REMMET039EGPF 171050Z 29008KT CAVOK 08/05 Q1039;EQDQ01+000000PRSWM2
0091031400999992000011711504+55870-004430FM-15+0008EGPF V0202901N00671220001CN0099001N1+00901+00501999999ADDMA1103891999999MW1001REMMET039EGPF 171150Z 29013KT CAVOK 09/05 Q1039;EQDQ01+000000PRSWM2
0091031400999992000011712504+55870-004430FM-15+0008EGPF V0203001N00621220001CN0099001N1+00901+00601999999ADDMA1103791999999MW1001REMMET039EGPF 171250Z 30012KT CAVOK 09/06 Q1038;EQDQ01+000000PRSWM2
0091031400999992000011713504+55870-004430FM-15+0008EGPF V0202801N00411220001CN0099001N1+01001+00601999999ADDMA1103791999999MW1001REMMET039EGPF 171350Z 28008KT CAVOK 10/06 Q1038;EQDQ01+000000PRSWM2
0091031400999992000011714504+55870-004430FM-15+0008EGPF V0202801N00411220001CN0099001N1+00901+00501999999ADDMA1103891999999MW1001REMMET039EGPF 171450Z 28008KT CAVOK 09/05 Q1039;EQDQ01+000000PRSWM2
0091031400999992000011715504+55870-004430FM-15+0008EGPF V0202801N00261220001CN0099001N1+00801+00501999999ADDMA1103891999999MW1001REMMET039EGPF 171550Z 28005KT CAVOK 08/05 Q1039;EQDQ01+000000PRSWM2
0091031400999992000011716504+55870-004430FM-15+0008EGPF V0202901N00461220001CN0099001N1+00801+00501999999ADDMA1103891999999MW1001REMMET039EGPF 171650Z 29009KT CAVOK 08/05 Q1039;EQDQ01+000000PRSWM2
0091031400999992000011717504+55870-004430FM-15+0008EGPF V0202201N00261220001CN0099001N1+00501+00401999999ADDMA1103891999999MW1001REMMET039EGPF 171750Z 22005KT CAVOK 05/04 Q1039;EQDQ01+000000PRSWM2
0091031400999992000011718504+55870-004430FM-15+0008EGPF V0202201N00361220001CN0099001N1+00601+00401999999ADDMA1103891999999MW1001REMMET039EGPF 171850Z 22007KT CAVOK 06/04 Q1039;EQDQ01+000000PRSWM2
0139031400999992000011719504+55870-004430FM-15+0008EGPF V0202501N002612200019N0112651N1+00601+00501999999ADDGA1021+003009999GF102991999999999999999999MA1103891999999MW1001REMMET045EGPF 171950Z 25005KT 9999 FEW010 06/05 Q1039;EQDQ01+000000PRSWM2
0091031400999992000011720504+55870-004430FM-15+0008EGPF V0209999999999220001CN0099001N1+00701+00501999999ADDMA1103891999999MW1001REMMET039EGPF 172050Z VRB03KT CAVOK 07/05 Q1039;EQDQ01+000000PRSWM2
0091031400999992000011721504+55870-004430FM-15+0008EGPF V0202901N00461220001CN0099001N1+00701+00601999999ADDMA1103891999999MW1001REMMET039EGPF 172150Z 29009KT CAVOK 07/06 Q1039;EQDQ01+000000PRSWM2
0091031400999992000011722504+55870-004430FM-15+0008EGPF V0202901N00621220001CN0099001N1+00701+00601999999ADDMA1103791999999MW1001REMMET039EGPF 172250Z 29012KT CAVOK 07/06 Q1038;EQDQ01+000000PRSWM2
0091031400999992000011723504+55870-004430FM-15+0008EGPF V0202901N00411220001CN0099001N1+00601+00501999999ADDMA1103791999999MW1001REMMET039EGPF 172350Z 29008KT CAVOK 06/05 Q1038;EQDQ01+000000PRSWM2
0091031400999992000011800504+55870-004430FM-15+0008EGPF V0202801N00261220001CN0099001N1+00601+00501999999ADDMA1103791999999MW1001REMMET039EGPF 180050Z 28005KT CAVOK 06/05 Q1038;EQDQ01+000000PRSWM2
0091031400999992000011801504+55870-004430FM-15+0008EGPF V0202801N00261220001CN0099001N1+00601+00501999999ADDMA1103791999999MW1001REMMET039EGPF 180150Z 28005KT CAVOK 06/05 Q1038;EQDQ01+000000PRSWM2
0091031400999992000011804504+55870-004430FM-15+0008EGPF V0202701N00261220001CN0099001N1+00601+00501999999ADDMA1103791999999MW1001REMMET039EGPF 180450Z 27005KT CAVOK 06/05 Q1038;EQDQ01+000000PRSWM2
0091031400999992000011805504+55870-004430FM-15+0008EGPF V0202601N00261220001CN0099001N1+00501+00401999999ADDMA1103691999999MW1001REMMET039EGPF 180550Z 26005KT CAVOK 05/04 Q1037;EQDQ01+000000PRSWM2
0147031400999992000011806504+55870-004430FM-15+0008EGPF V0202301N002112200019N0112651N1+00401+00301999999ADDGA1021+006009999GF102991999999999999999999MA1103691999999MW1001REMMET053EGPF 180650Z 23004KT 210V270 9999 FEW020 04/03 Q1037;EQDQ01+000000PRSWM2
0139031400999992000011807504+55870-004430FM-15+0008EGPF V0202701N002610036019N0112651N1+00601+00501999999ADDGA1071+003609999GF107991999999999999999999MA1103791999999MW1001REMMET045EGPF 180750Z 27005KT 9999 BKN012 06/05 Q1038;EQDQ01+000000PRSWM2
0139031400999992000011808504+55870-004430FM-15+0008EGPF V02099999999992200019N0112651N1+00401+00401999999ADDGA1021+003009999GF102991999999999999999999MA1103791999999MW1001REMMET045EGPF 180850Z VRB02KT 9999 FEW010 04/04 Q1038;EQDQ01+000000PRSWM2
0091031400999992000011809504+55870-004430FM-15+0008EGPF V0202701N00361220001CN0099001N1+00501+00401999999ADDMA1103791999999MW1001REMMET039EGPF 180950Z 27007KT CAVOK 05/04 Q1038;EQDQ01+000000PRSWM2
0091031400999992000011810504+55870-004430FM-15+0008EGPF V0202201N00211220001CN0099001N1+00701+00501999999ADDMA1103791999999MW1001REMMET039EGPF 181050Z 22004KT CAVOK 07/05 Q1038;EQDQ01+000000PRSWM2
0091031400999992000011811504+55870-004430FM-15+0008EGPF V0202601N00311220001CN0099001N1+00801+00601999999ADDMA1103791999999MW1001REMMET039EGPF 181150Z 26006KT CAVOK 08/06 Q1038;EQDQ01+000000PRSWM2
0091031400999992000011812504+55870-004430FM-15+0008EGPF V0202901N00311220001CN0099001N1+00901+00501999999ADDMA1103791999999MW1001REMMET039EGPF 181250Z 29006KT CAVOK 09/05 Q1038;EQDQ01+000000PRSWM2
0139031400999992000011813504+55870-004430FM-15+0008EGPF V0203001N004612200019N0112651N1+00901+00501999999ADDGA1021+006009999GF102991999999999999999999MA1103791999999MW1001REMMET045EGPF 181350Z 30009KT 9999 FEW020 09/05 Q1038;EQDQ01+000000PRSWM2
0139031400999992000011814504+55870-004430FM-15+0008EGPF V0202701N004112200019N0112651N1+00901+00501999999ADDGA1021+006009999GF102991999999999999999999MA1103791999999MW1001REMMET045EGPF 181450Z 27008KT 9999 FEW020 09/05 Q1038;EQDQ01+000000PRSWM2
0091031400999992000011815504+55870-004430FM-15+0008EGPF V0202701N00311220001CN0099001N1+00801+00501999999ADDMA1103691999999MW1001REMMET039EGPF 181550Z 27006KT CAVOK 08/05 Q1037;EQDQ01+000000PRSWM2
0139031400999992000011816504+55870-004430FM-15+0008EGPF V0202501N002112200019N0112651N1+00501+00401999999ADDGA1021+006009999GF102991999999999999999999MA1103691999999MW1001REMMET045EGPF 181650Z 25004KT 9999 FEW020 05/04 Q1037;EQDQ01+000000PRSWM2
0139031400999992000011817504+55870-004430FM-15+0008EGPF V0202401N002612200019N0112651N1+00401+00301999999ADDGA1021+006009999GF102991999999999999999999MA1103791999999MW1001REMMET045EGPF 181750Z 24005KT 9999 FEW020 04/03 Q1038;EQDQ01+000000PRSWM2
0091031400999992000011818504+55870-004430FM-15+0008EGPF V0202501N00151220001CN0099001N1+00201+00101999999ADDMA1103791999999MW1001REMMET039EGPF 181850Z 25003KT CAVOK 02/01 Q1038;EQDQ01+000000PRSWM2
0091031400999992000011819504+55870-004430FM-15+0008EGPF V0202201N00261220001CN0099001N1+00101+00101999999ADDMA1103791999999MW1001REMMET039EGPF 181950Z 22005KT CAVOK 01/01 Q1038;EQDQ01+000000PRSWM2
0139031400999992000011820504+55870-004430FM-15+0008EGPF V0202401N001010084019N0112651N1+00301+00201999999ADDGA1071+008409999GF107991999999999999999999MA1103791999999MW1001REMMET045EGPF 182050Z 24002KT 9999 BKN028 03/02 Q1038;EQDQ01+000000PRSWM2
0139031400999992000011821504+55870-004430FM-15+0008EGPF V0209999C000010078019N0112651N1+00201+00201999999ADDGA1071+007809999GF107991999999999999999999MA1103791999999MW1001REMMET045EGPF 182150Z 00000KT 9999 BKN026 02/02 Q1038;EQDQ01+000000PRSWM2
0139031400999992000011822504+55870-004430FM-15+0008EGPF V0209999C000010090019N0112651N1+00301+00201999999ADDGA1071+009009999GF107991999999999999999999MA1103791999999MW1001REMMET045EGPF 182250Z 00000KT 9999 BKN030 03/02 Q1038;EQDQ01+000000PRSWM2
0139031400999992000011823504+55870-004430FM-15+0008EGPF V0209999C000010090019N0112651N1+00201+00201999999ADDGA1071+009009999GF107991999999999999999999MA1103791999999MW1001REMMET045EGPF 182350Z 00000KT 9999 BKN030 02/02 Q1038;EQDQ01+000000PRSWM2
0139031400999992000011900504+55870-004430FM-15+0008EGPF V0209999C000010090019N0090001N1+00201+00201999999ADDGA1071+009009999GF107991999999999999999999MA1103791999999MW1001REMMET045EGPF 190050Z 00000KT 9000 BKN030 02/02 Q1038;EQDQ01+000000PRSWM2
0139031400999992000011901504+55870-004430FM-15+0008EGPF V0209999C000010090019N0112651N1+00201+00201999999ADDGA1071+009009999GF107991999999999999999999MA1103791999999MW1001REMMET045EGPF 190150Z 00000KT 9999 BKN030 02/02 Q1038;EQDQ01+000000PRSWM2
