0126036840999992000010100004+51880+000450FM-12+008799999V0202101N002619999999N0033001N1+00591+00571102061ADDAA106000091MD1310041+9999REMSYN070AAXX  01004 03684 36/33 /2105 10059 20057 40206 53004 555 7/098 88/02;EQDQ01  00002PRCP06
0096036840999992000010101004+51880+000450FM-12+008799999V0202401N004119999999N0029001N1+00651+00641102061ADDMD1210061+9999REMSYN070AAXX  01014 03684 46/29 /2408 10065 20064 40206 52006 555 7/098 88/02;
0102036840999992000010102004+51880+000450FM-12+008799999V0202401N004119999999N0025001N1+00701+00671102071ADDMD1210051+9999REMSYN076AAXX  01024 03684 46/25 /2408 10070 20067 40207 52005 555 7/098 87/03 87/21;
0096036840999992000010103004+51880+000450FM-12+008799999V0202301N003619999999N0021001N1+00711+00691102061ADDMD1210011+9999REMSYN070AAXX  01034 03684 46/21 /2307 10071 20069 40206 52001 555 7/098 88/02;
0096036840999992000010104004+51880+000450FM-12+008799999V0202401N004119999999N0020001N1+00711+00691102061ADDMD1210011+9999REMSYN070AAXX  01044 03684 46/20 /2408 10071 20069 40206 52001 555 7/098 88/02;
0102036840999992000010105004+51880+000450FM-12+008799999V0202701N003619999999N0039001N1+00751+00731102151ADDMD1310081+9999REMSYN076AAXX  01054 03684 46/39 /2707 10075 20073 40215 53008 555 7/098 84/02 88/18;
0167036840999992000010106004+51880+000450FM-12+008799999V0202901N002119999999N0060001N1+00761+00721102231ADDAA106000091IA2999+00409KA1120N+00441MD1310171+9999REMSYN086AAXX  01064 03684 36/56 /2904 10076 20072 40223 53017 333 20044 3/004 555 7/098 88/20;EQDQ01  00002PRCP06
0102036840999992000010107004+51880+000450FM-12+008799999V0203001N002619999999N0080001N1+00761+00721102291ADDMD1110231+9999REMSYN076AAXX  01074 03684 46/58 /3005 10076 20072 40229 51023 555 7/098 81/13 88/16;
0096036840999992000010108004+51880+000450FM-12+008799999V0203101N002119999999N0080001N1+00781+00721102391ADDMD1210241+9999REMSYN070AAXX  01084 03684 46/58 /3104 10078 20072 40239 52024 555 7/098 88/13;
0102036840999992000010109004+51880+000450FM-12+008799999V0203201N002619999999N0070001N1+00761+00711102461ADDMD1110221+9999REMSYN076AAXX  01094 03684 46/57 /3205 10076 20071 40246 51022 555 7/098 82/10 87/13;
0102036840999992000010110004+51880+000450FM-12+008799999V0203301N002119999999N0110001N1+00771+00661102531ADDMD1110231+9999REMSYN076AAXX  01104 03684 46/61 /3304 10077 20066 40253 51023 555 7/092 81/08 81/10;
0096036840999992000010111004+51880+000450FM-12+008799999V0203101N001519999999N0130001N1+00811+00641102551ADDMD1110151+9999REMSYN070AAXX  01114 03684 46/63 /3103 10081 20064 40255 51015 555 7/090 80/99;
0126036840999992000010112004+51880+000450FM-12+008799999V0200501N001519999999N0140001N1+00841+00641102541ADDAA106000091MD1110091+9999REMSYN070AAXX  01124 03684 36/64 /0503 10084 20064 40254 51009 555 7/091 81/08;EQDQ01  00002PRCP06
0096036840999992000010113004+51880+000450FM-12+008799999V0202901N001019999999N0140001N1+00891+00641102551ADDMD1210031+9999REMSYN070AAXX  01134 03684 46/64 /2902 10089 20064 40255 52003 555 7/091 81/09;
0108036840999992000010114004+51880+000450FM-12+008799999V0203201N001019999999N0140001N1+00821+00611102561ADDMD1210011+9999REMSYN082AAXX  01144 03684 46/64 /3202 10082 20061 40256 52001 555 7/096 82/11 82/15 84/18;
0096036840999992000010115004+51880+000450FM-12+008799999V0202901N000519999999N0150001N1+00801+00631102581ADDMD1210031+9999REMSYN070AAXX  01154 03684 46/65 /2901 10080 20063 40258 52003 555 7/098 88/12;
0096036840999992000010116004+51880+000450FM-12+008799999V0203601N001019999999N0100001N1+00721+00611102581ADDMD1210021+9999REMSYN070AAXX  01164 03684 46/60 /3602 10072 20061 40258 52002 555 7/098 88/13;
0096036840999992000010117004+51880+000450FM-12+008799999V0201701N001519999999N0070001N1+00701+00611102611ADDMD1210051+9999REMSYN070AAXX  01174 03684 46/57 /1703 10070 20061 40261 52005 555 7/098 88/13;
0149036840999992000010118004+51880+000450FM-12+008799999V0201901N002119999999N0100001N1+00771+00601102601ADDAA106000091KA1120M+00951MD1210021+9999REMSYN080AAXX  01184 03684 36/60 /1904 10077 20060 40260 52002 333 10095 555 7/098 88/11;EQDQ01  00002PRCP06
0096036840999992000010119004+51880+000450FM-12+008799999V0202101N002619999999N0080001N1+00731+00631102661ADDMD1210081+9999REMSYN070AAXX  01194 03684 46/58 /2105 10073 20063 40266 52008 555 7/098 88/07;
0102036840999992000010120004+51880+000450FM-12+008799999V0202001N002619999999N0130001N1+00751+00591102661ADDMD1210051+9999REMSYN076AAXX  01204 03684 46/63 /2005 10075 20059 40266 52005 555 7/098 87/12 87/18;
0096036840999992000010121004+51880+000450FM-12+008799999V0201901N002119999999N0090001N1+00721+00631102641ADDMD1010041+9999REMSYN070AAXX  01214 03684 46/59 /1904 10072 20063 40264 50004 555 7/097 87/17;
0096036840999992000010122004+51880+000450FM-12+008799999V0201801N002619999999N0090001N1+00741+00611102651ADDMD1710011+9999REMSYN070AAXX  01224 03684 46/59 /1805 10074 20061 40265 57001 555 7/098 88/13;
0096036840999992000010123004+51880+000450FM-12+008799999V0201901N001519999999N0120001N1+00751+00641102631ADDMD1710031+9999REMSYN070AAXX  01234 03684 46/62 /1903 10075 20064 40263 57003 555 7/098 88/10;
0126036840999992000010200004+51880+000450FM-12+008799999V0201801N001519999999N0100001N1+00761+00661102571ADDAA106000091MD1810071+9999REMSYN070AAXX  02004 03684 36/60 /1803 10076 20066 40257 58007 555 7/098 88/13;EQDQ01  00002PRCP06
0108036840999992000010201004+51880+000450FM-12+008799999V0201601N002119999999N0100001N1+00761+00671102541ADDMD1710111+9999REMSYN082AAXX  02014 03684 46/60 /1604 10076 20067 40254 57011 555 7/098 84/09 87/14 85/24;
0096036840999992000010202004+51880+000450FM-12+008799999V0201801N002619999999N0050001N1+00771+00721102541ADDMD1610091+9999REMSYN070AAXX  02024 03684 46/50 /1805 10077 20072 40254 56009 555 7/098 88/03;
0102036840999992000010203004+51880+000450FM-12+008799999V0201901N003119999999N0046001N1+00771+00751102541ADDMD1610031+9999REMSYN076AAXX  02034 03684 46/46 /1906 10077 20075 40254 56003 555 7/098 86/02 86/25;
0108036840999992000010204004+51880+000450FM-12+008799999V0202001N002619999999N0023001N1+00751+00731102501ADDMD1710041+9999REMSYN082AAXX  02044 03684 46/23 /2005 10075 20073 40250 57004 555 7/098 82/01 81/06 87/29;
0108036840999992000010205004+51880+000450FM-12+008799999V0202201N001519999999N0002001N1+00681+00671102531ADDMD1510011+9999REMSYN082AAXX  02054 03684 46/02 /2203 10068 20067 40253 55001 555 7/097 81/00 82/11 86/26;
0173036840999992000010206004+51880+000450FM-12+008799999V0202201N002619999999N0036001N1+00681+00681102521ADDAA106000091IA2999+00309KA1120N+00641MD1710021+9999REMSYN092AAXX  02064 03684 36/36 /2205 10068 20068 40252 57002 333 20064 3/003 555 7/098 81/14 87/28;EQDQ01  00002PRCP06
0096036840999992000010207004+51880+000450FM-12+008799999V0202501N003119999999N0080001N1+00681+00661102591ADDMD1210091+9999REMSYN070AAXX  02074 03684 46/58 /2506 10068 20066 40259 52009 555 7/098 88/27;
0096036840999992000010208004+51880+000450FM-12+008799999V0202601N002619999999N0150001N1+00651+00591102611ADDMD1210081+9999REMSYN070AAXX  02084 03684 46/65 /2605 10065 20059 40261 52008 555 7/098 88/24;
0096036840999992000010209004+51880+000450FM-12+008799999V0202501N002119999999N0150001N1+00641+00571102641ADDMD1110121+9999REMSYN070AAXX  02094 03684 46/65 /2504 10064 20057 40264 51012 555 7/098 88/20;
0096036840999992000010210004+51880+000450FM-12+008799999V0202601N001519999999N0300001N1+00641+00471102671ADDMD1210081+9999REMSYN070AAXX  02104 03684 46/80 /2603 10064 20047 40267 52008 555 7/098 88/18;
0096036840999992000010211004+51880+000450FM-12+008799999V0202701N003619999999N0400001N1+00671+00401102721ADDMD1210111+9999REMSYN070AAXX  02114 03684 46/82 /2707 10067 20040 40272 52011 555 7/098 88/19;
0126036840999992000010212004+51880+000450FM-12+008799999V0202501N004119999999N0400001N1+00691+00321102691ADDAA106000091MD1010051+9999REMSYN070AAXX  02124 03684 36/82 /2508 10069 20032 40269 50005 555 7/098 88/22;EQDQ01  00002PRCP06
0096036840999992000010213004+51880+000450FM-12+008799999V0202101N004619999999N0350001N1+00731+00321102621ADDMD1810051+9999REMSYN070AAXX  02134 03684 46/81 /2109 10073 20032 40262 58005 555 7/098 88/25;
0096036840999992000010214004+51880+000450FM-12+008799999V0202001N003619999999N0350001N1+00701+00331102601ADDMD1710121+9999REMSYN070AAXX  02144 03684 46/81 /2007 10070 20033 40260 57012 555 7/098 88/24;
0096036840999992000010215004+51880+000450FM-12+008799999V0201901N002619999999N0280001N1+00711+00391102561ADDMD1610131+9999REMSYN070AAXX  02154 03684 46/78 /1905 10071 20039 40256 56013 555 7/098 88/21;
0096036840999992000010216004+51880+000450FM-12+008799999V0202001N003119999999N0260001N1+00691+00411102531ADDMD1710091+9999REMSYN070AAXX  02164 03684 46/76 /2006 10069 20041 40253 57009 555 7/098 88/22;
0108036840999992000010217004+51880+000450FM-12+008799999V0201801N002619999999N0210001N1+00641+00411102511ADDMD1710091+9999REMSYN082AAXX  02174 03684 46/71 /1805 10064 20041 40251 57009 555 7/098 81/21 81/26 87/31;
0155036840999992000010218004+51880+000450FM-12+008799999V0201801N004119999999N0230001N1+00661+00441102431ADDAA106000091KA1120M+00741MD1810131+9999REMSYN086AAXX  02184 03684 36/73 /1808 10066 20044 40243 58013 333 10074 555 7/098 82/16 87/36;EQDQ01  00002PRCP06
0096036840999992000010219004+51880+000450FM-12+008799999V0201801N003619999999N0260001N1+00721+00521102371ADDMD1810161+9999REMSYN070AAXX  02194 03684 46/76 /1807 10072 20052 40237 58016 555 7/097 87/08;
0096036840999992000010220004+51880+000450FM-12+008799999V0201901N003619999999N0170001N1+00731+00591102341ADDMD1610171+9999REMSYN070AAXX  02204 03684 46/67 /1907 10073 20059 40234 56017 555 7/098 88/06;
0096036840999992000010221004+51880+000450FM-12+008799999V0201901N005119999999N0029001N1+00791+00761102271ADDMD1610151+9999REMSYN070AAXX  02214 03684 46/29 /1910 10079 20076 40227 56015 555 7/098 88/01;
0096036840999992000010222004+51880+000450FM-12+008799999V0201901N006219999999N0039001N1+00851+00841102191ADDMD1810171+9999REMSYN070AAXX  02224 03684 46/39 /1912 10085 20084 40219 58017 555 7/098 88/01;
0096036840999992000010223004+51880+000450FM-12+008799999V0202101N006719999999N0230001N1+00951+00891102161ADDMD1710171+9999REMSYN070AAXX  02234 03684 46/73 /2113 10095 20089 40216 57017 555 7/098 88/03;
0126036840999992000010300004+51880+000450FM-12+008799999V0202101N007719999999N0300001N1+01001+00901102081ADDAA106000091MD1710181+9999REMSYN070AAXX  03004 03684 36/80 /2115 10100 20090 40208 57018 555 7/098 88/06;EQDQ01  00002PRCP06
0102036840999992000010301004+51880+000450FM-12+008799999V0202101N008219999999N0400001N1+01011+00881102011ADDMD1810171+9999REMSYN076AAXX  03014 03684 46/82 /2116 10101 20088 40201 58017 555 7/098 87/07 85/14;
0123036840999992000010302004+51880+000450FM-12+008799999V0202101N009319999999N0500001N1+01001+00811101961ADDMD1710191+9999OA140101391REMSYN086AAXX  03024 03684 46/84 /2118 10100 20081 40196 57019 333 90710 91127 555 7/098 88/11;
0123036840999992000010303004+51880+000450FM-12+008799999V0202201N009319999999N0400001N1+01011+00741101911ADDMD1610171+9999OA140101601REMSYN086AAXX  03034 03684 46/82 /2218 10101 20074 40191 56017 333 90710 91131 555 7/098 88/14;
0123036840999992000010304004+51880+000450FM-12+008799999V0202201N009319999999N0350001N1+01001+00711101821ADDMD1710191+9999OA140101491REMSYN086AAXX  03044 03684 46/81 /2218 10100 20071 40182 57019 333 90710 91129 555 7/098 88/15;
0123036840999992000010305004+51880+000450FM-12+008799999V0202101N008219999999N0400001N1+00981+00731101821ADDMD1610141+9999OA140101441REMSYN086AAXX  03054 03684 46/82 /2116 10098 20073 40182 56014 333 90710 91128 555 7/097 87/14;
0167036840999992000010306004+51880+000450FM-12+008799999V0202101N008219999999N0250001N1+00941+00801101831ADDAA106000091IA2999+00509KA1120N+00661MD1610081+9999REMSYN086AAXX  03064 03684 36/75 /2116 10094 20080 40183 56008 333 20066 3/005 555 7/098 88/08;EQDQ01  00002PRCP06
0123036840999992000010307004+51880+000450FM-12+008799999V0202201N009319999999N0350001N1+00941+00821101821ADDMD1410001+9999OA140101341REMSYN086AAXX  03074 03684 46/81 /2218 10094 20082 40182 54000 333 90710 91126 555 7/098 88/07;
0096036840999992000010308004+51880+000450FM-12+008799999V0202101N008719999999N0350001N1+00971+00821101821ADDMD1410001+9999REMSYN070AAXX  03084 03684 46/81 /2117 10097 20082 40182 54000 555 7/098 88/08;
0123036840999992000010309004+51880+000450FM-12+008799999V0202101N007719999999N0130001N1+00951+00861101841ADDMD1310011+9999OA140101291REMSYN086AAXX  03094 03684 46/63 /2115 10095 20086 40184 53001 333 90710 91125 555 7/098 88/07;
0096036840999992000010310004+51880+000450FM-12+008799999V0202101N007719999999N0350001N1+00961+00861101841ADDMD1110021+9999REMSYN070AAXX  03104 03684 46/81 /2115 10096 20086 40184 51002 555 7/098 88/05;
0096036840999992000010311004+51880+000450FM-12+008799999V0202201N007719999999N0400001N1+00981+00881101831ADDMD1210011+9999REMSYN070AAXX  03114 03684 46/82 /2215 10098 20088 40183 52001 555 7/098 88/06;
0126036840999992000010312004+51880+000450FM-12+008799999V0202201N007719999999N0240001N1+01011+00901101781ADDAA106000091MD1810061+9999REMSYN070AAXX  03124 03684 36/74 /2215 10101 20090 40178 58006 555 7/098 88/07;EQDQ01  00002PRCP06
0096036840999992000010313004+51880+000450FM-12+008799999V0202201N007719999999N0060001N1+01011+00931101731ADDMD1810111+9999REMSYN070AAXX  03134 03684 46/56 /2215 10101 20093 40173 58011 555 7/098 88/06;
0096036840999992000010314004+51880+000450FM-12+008799999V0202101N005119999999N0090001N1+00981+00941101671ADDMD1710161+9999REMSYN070AAXX  03144 03684 46/59 /2110 10098 20094 40167 57016 555 7/098 88/03;
0096036840999992000010315004+51880+000450FM-12+008799999V0202201N006219999999N0036001N1+00961+00941101621ADDMD1710161+9999REMSYN070AAXX  03154 03684 46/36 /2212 10096 20094 40162 57016 555 7/097 87/02;
0108036840999992000010316004+51880+000450FM-12+008799999V0202701N004619999999N0060001N1+00851+00811101661ADDMD1510071+9999REMSYN082AAXX  03164 03684 46/56 /2709 10085 20081 40166 55007 555 7/186 84/02 81/09 84/18;
0096036840999992000010317004+51880+000450FM-12+008799999V0202701N004119999999N0400001N1+00771+00531101681ADDMD1510001+9999REMSYN070AAXX  03174 03684 46/82 /2708 10077 20053 40168 55000 555 7/097 87/23;
0142036840999992000010318004+51880+000450FM-12+008799999V0203101N003619999999N0220001N1+00621+00411101731ADDAA112002091KA1120M+01011MD1210101+9999REMSYN092AAXX  03184 03684 16/72 /3107 10062 20041 40173 52010 60022 333 10101 555 7/098 82/20 87/26;
0108036840999992000010319004+51880+000450FM-12+008799999V0203101N004619999999N0070001N1+00561+00451101771ADDMD1210091+9999REMSYN082AAXX  03194 03684 46/57 /3109 10056 20045 40177 52009 555 7/188 82/09 86/19 84/27;
0108036840999992000010320004+51880+000450FM-12+008799999V0203101N004619999999N0080001N1+00471+00421101831ADDMD1210141+9999REMSYN082AAXX  03204 03684 46/58 /3109 10047 20042 40183 52014 555 7/276 82/05 85/15 81/39;
0108036840999992000010321004+51880+000450FM-12+008799999V0202901N003119999999N0080001N1+00461+00421101851ADDMD1210111+9999REMSYN082AAXX  03214 03684 46/58 /2906 10046 20042 40185 52011 555 7/185 82/23 83/30 81/50;
0096036840999992000010322004+51880+000450FM-12+008799999V0202501N001019999999N0220001N1+00461+00401101821ADDMD1010051+9999REMSYN070AAXX  03224 03684 46/72 /2502 10046 20040 40182 50005 555 7/095 85/25;
0108036840999992000010323004+51880+000450FM-12+008799999V0201601N003119999999N0250001N1+00441+00391101691ADDMD1810141+9999REMSYN082AAXX  03234 03684 46/75 /1606 10044 20039 40169 58014 555 7/097 81/25 82/35 84/50;
0113036840999992000010400004+51880+000450FM-12+008799999V0202301N001519999999N0200001N1+00401+00371101761ADDAA106003091MD1810091+9999REMSYN076AAXX  04004 03684 16/70 /2303 10040 20037 40176 58009 60031 555 7/094 84/58;
0096036840999992000010401004+51880+000450FM-12+008799999V0203101N002119999999N0150001N1+00371+00351101801ADDMD1510021+9999REMSYN070AAXX  04014 03684 46/65 /3104 10037 20035 40180 55002 555 7/090 80/99;
0096036840999992000010402004+51880+000450FM-12+008799999V0203001N002119999999N0070001N1+00331+00331101821ADDMD1310121+9999REMSYN070AAXX  04024 03684 46/57 /3004 10033 20033 40182 53012 555 7/090 80/99;
0096036840999992000010403004+51880+000450FM-12+008799999V0203401N001519999999N0050001N1+00261+00241101791ADDMD1110021+9999REMSYN070AAXX  04034 03684 46/50 /3403 10026 20024 40179 51002 555 7/090 80/99;
0096036840999992000010404004+51880+000450FM-12+008799999V0201101N001019999999N0005001N1+00191+00181101721ADDMD1810091+9999REMSYN070AAXX  04044 03684 46/05 /1102 10019 20018 40172 58009 555 7/090 80/99;
0096036840999992000010405004+51880+000450FM-12+008799999V0201201N001519999999N0001001N1+00101+00101101651ADDMD1710171+9999REMSYN070AAXX  04054 03684 46/01 /1203 10010 20010 40165 57017 555 7/095 85/00;
0160036840999992000010406004+51880+000450FM-12+008799999V0201301N002119999999N0003001N1+00191+00171101581ADDAA112004191IA2999-00209KA1120N+00051MD1710211+9999REMSYN098AAXX  04064 03684 16/03 /1304 10019 20017 40158 57021 60042 333 20005 3/102 555 7/097 83/00 87/05;
0096036840999992000010407004+51880+000450FM-12+008799999V0201301N004119999999N0009001N1+00311+00311101521ADDMD1710191+9999REMSYN070AAXX  04074 03684 46/09 /1308 10031 20031 40152 57019 555 7/098 88/00;
0096036840999992000010408004+51880+000450FM-12+008799999V0201401N003119999999N0080001N1+00381+00361101421ADDMD1710221+9999REMSYN070AAXX  04084 03684 46/58 /1406 10038 20036 40142 57022 555 7/098 88/00;
0096036840999992000010409004+51880+000450FM-12+008799999V0201101N000519999999N0021001N1+00401+00401101381ADDMD1710191+9999REMSYN070AAXX  04094 03684 46/21 /1101 10040 20040 40138 57019 555 7/095 85/02;
0096036840999992000010410004+51880+000450FM-12+008799999V0201501N001019999999N0013001N1+00431+00431101291ADDMD1710231+9999REMSYN070AAXX  04104 03684 46/13 /1502 10043 20043 40129 57023 555 7/090 80/99;
0096036840999992000010411004+51880+000450FM-12+008799999V0202501N003619999999N0025001N1+00461+00461101291ADDMD1710131+9999REMSYN070AAXX  04114 03684 46/25 /2507 10046 20046 40129 57013 555 7/091 81/03;
0119036840999992000010412004+51880+000450FM-12+008799999V0202201N004119999999N0260001N1+00531+00501101121ADDAA106000891MD1810251+9999REMSYN082AAXX  04124 03684 16/76 /2208 10053 20050 40112 58025 69981 555 7/097 81/02 87/06;
0102036840999992000010413004+51880+000450FM-12+008799999V0202301N006719999999N0260001N1+00561+00451101061ADDMD1810221+9999REMSYN076AAXX  04134 03684 46/76 /2313 10056 20045 40106 58022 555 7/097 87/06 83/14;
0108036840999992000010414004+51880+000450FM-12+008799999V0202301N006219999999N0300001N1+00651+00451100991ADDMD1610281+9999REMSYN082AAXX  04144 03684 46/80 /2312 10065 20045 40099 56028 555 7/093 81/08 81/44 82/50;
0096036840999992000010415004+51880+000450FM-12+008799999V0202201N007219999999N0350001N1+00721+00431100961ADDMD1710151+9999REMSYN070AAXX  04154 03684 46/81 /2214 10072 20043 40096 57015 555 7/093 83/22;
0096036840999992000010417004+51880+000450FM-12+008799999V0202701N006219999999N0550001N1+00561+00231101121ADDMD1310121+9999REMSYN070AAXX  04174 03684 46/85 /2712 10056 20023 40112 53012 555 7/092 82/50;
0136036840999992000010418004+51880+000450FM-12+008799999V0202701N005719999999N0400001N1+00471+00101101241ADDAA112001091KA1120M+00751MD1310271+9999REMSYN086AAXX  04184 03684 16/82 /2711 10047 20010 40124 53027 60012 333 10075 555 7/090 80/99;
0096036840999992000010420004+51880+000450FM-12+008799999V0202501N005719999999N0400001N1+00351+00091101541ADDMD1210411+9999REMSYN070AAXX  04204 03684 46/82 /2511 10035 20009 40154 52041 555 7/090 80/99;
0096036840999992000010421004+51880+000450FM-12+008799999V0202501N005119999999N0350001N1+00281+00071101641ADDMD1110381+9999REMSYN070AAXX  04214 03684 46/81 /2510 10028 20007 40164 51038 555 7/090 80/99;
0096036840999992000010422004+51880+000450FM-12+008799999V0202301N003119999999N0300001N1+00141+00031101711ADDMD1110311+9999REMSYN070AAXX  04224 03684 46/80 /2306 10014 20003 40171 51031 555 7/090 80/99;
0096036840999992000010423004+51880+000450FM-12+008799999V0202201N003619999999N0240001N1+00111+00031101781ADDMD1210231+9999REMSYN070AAXX  04234 03684 46/74 /2207 10011 20003 40178 52023 555 7/090 80/99;
0126036840999992000010500004+51880+000450FM-12+008799999V0202301N004619999999N0270001N1+00141+00031101801ADDAA106000091MD1110161+9999REMSYN070AAXX  05004 03684 36/77 /2309 10014 20003 40180 51016 555 7/090 80/99;EQDQ01  00002PRCP06
0096036840999992000010501004+51880+000450FM-12+008799999V0201901N003119999999N0230001N1+00131+00031101811ADDMD1210101+9999REMSYN070AAXX  05014 03684 46/73 /1906 10013 20003 40181 52010 555 7/090 80/99;
0096036840999992000010502004+51880+000450FM-12+008799999V0202201N003619999999N0250001N1+00121+00031101811ADDMD1210031+9999REMSYN070AAXX  05024 03684 46/75 /2207 10012 20003 40181 52003 555 7/090 80/99;
0096036840999992000010503004+51880+000450FM-12+008799999V0202101N003119999999N0250001N1+00091+00011101871ADDMD1210061+9999REMSYN070AAXX  05034 03684 46/75 /2106 10009 20001 40187 52006 555 7/090 80/99;
0096036840999992000010504004+51880+000450FM-12+008799999V0201901N002619999999N0270001N1+00121+00011101791ADDMD1810021+9999REMSYN070AAXX  05044 03684 46/77 /1905 10012 20001 40179 58002 555 7/090 80/99;
0096036840999992000010505004+51880+000450FM-12+008799999V0201701N002619999999N0280001N1+00081-00031101781ADDMD1810041+9999REMSYN070AAXX  05054 03684 46/78 /1705 10008 21003 40178 58004 555 7/090 80/99;
0167036840999992000010506004+51880+000450FM-12+008799999V0201801N003119999999N0280001N1+00121+00011101721ADDAA106000091IA2999-00309KA1120N+00071MD1610141+9999REMSYN086AAXX  05064 03684 36/78 /1806 10012 20001 40172 56014 333 20007 3/103 555 7/090 80/99;EQDQ01  00002PRCP06
0096036840999992000010507004+51880+000450FM-12+008799999V0201901N004619999999N0300001N1+00251+00101101671ADDMD1710121+9999REMSYN070AAXX  05074 03684 46/80 /1909 10025 20010 40167 57012 555 7/090 80/99;
0096036840999992000010508004+51880+000450FM-12+008799999V0201801N004119999999N0260001N1+00261+00111101661ADDMD1710111+9999REMSYN070AAXX  05084 03684 46/76 /1808 10026 20011 40166 57011 555 7/090 80/99;
0096036840999992000010509004+51880+000450FM-12+008799999V0201801N004119999999N0250001N1+00301+00201101671ADDMD1610051+9999REMSYN070AAXX  05094 03684 46/75 /1808 10030 20020 40167 56005 555 7/094 84/42;
0096036840999992000010510004+51880+000450FM-12+008799999V0201801N004619999999N0220001N1+00431+00341101611ADDMD1810051+9999REMSYN070AAXX  05104 03684 46/72 /1809 10043 20034 40161 58005 555 7/098 88/40;
0096036840999992000010511004+51880+000450FM-12+008799999V0201901N006219999999N0240001N1+00681+00501101561ADDMD1810081+9999REMSYN070AAXX  05114 03684 46/74 /1912 10068 20050 40156 58008 555 7/090 80/99;
0126036840999992000010512004+51880+000450FM-12+008799999V0201901N005119999999N0250001N1+00771+00551101491ADDAA106000091MD1710161+9999REMSYN070AAXX  05124 03684 36/75 /1910 10077 20055 40149 57016 555 7/094 84/49;EQDQ01  00002PRCP06
0096036840999992000010513004+51880+000450FM-12+008799999V0201901N006219999999N0350001N1+00911+00431101371ADDMD1810221+9999REMSYN070AAXX  05134 03684 46/81 /1912 10091 20043 40137 58022 555 7/096 86/49;
0102036840999992000010514004+51880+000450FM-12+008799999V0201901N005719999999N0300001N1+00881+00501101311ADDMD1710241+9999REMSYN076AAXX  05144 03684 46/80 /1911 10088 20050 40131 57024 555 7/098 81/23 87/47;
0102036840999992000010515004+51880+000450FM-12+008799999V0201901N005719999999N0350001N1+00891+00581101251ADDMD1610231+9999REMSYN076AAXX  05154 03684 46/81 /1911 10089 20058 40125 56023 555 7/098 86/18 85/28;
0096036840999992000010516004+51880+000450FM-12+008799999V0201801N006219999999N0300001N1+00811+00591101151ADDMD1710221+9999REMSYN070AAXX  05164 03684 46/80 /1812 10081 20059 40115 57022 555 7/090 80/99;
0102036840999992000010517004+51880+000450FM-12+008799999V0201901N007719999999N0300001N1+00791+00561101141ADDMD1610171+9999REMSYN076AAXX  05174 03684 46/80 /1915 10079 20056 40114 56017 555 7/095 82/15 83/27;
0149036840999992000010518004+51880+000450FM-12+008799999V0201901N007219999999N0300001N1+00831+00601101121ADDAA106000091KA1120M+00921MD1610131+9999REMSYN080AAXX  05184 03684 36/80 /1914 10083 20060 40112 56013 333 10092 555 7/097 87/13;EQDQ01  00002PRCP06
0096036840999992000010519004+51880+000450FM-12+008799999V0201901N006719999999N0260001N1+00871+00631101121ADDMD1710031+9999REMSYN070AAXX  05194 03684 46/76 /1913 10087 20063 40112 57003 555 7/098 88/14;
0123036840999992000010521004+51880+000450FM-12+008799999V0201901N009319999999N0300001N1+00961+00671100951ADDMD1810161+9999OA140101391REMSYN086AAXX  05214 03684 46/80 /1918 10096 20067 40095 58016 333 90710 91127 555 7/098 88/15;
0123036840999992000010522004+51880+000450FM-12+008799999V0201901N010319999999N0250001N1+00981+00711100941ADDMD1710171+9999OA140101651REMSYN086AAXX  05224 03684 46/75 /1920 10098 20071 40094 57017 333 90710 91132 555 7/098 88/14;
0123036840999992000010601004+51880+000450FM-12+008799999V0202001N010319999999N0290001N1+01021+00751100821ADDMD1710121+9999OA140101491REMSYN086AAXX  06014 03684 46/79 /2020 10102 20075 40082 57012 333 90710 91129 555 7/098 88/14;
0123036840999992000010602004+51880+000450FM-12+008799999V0202001N010319999999N0280001N1+01011+00761100821ADDMD1610111+9999OA140101651REMSYN086AAXX  06024 03684 46/78 /2020 10101 20076 40082 56011 333 90710 91132 555 7/098 88/14;
0123036840999992000010603004+51880+000450FM-12+008799999V0202101N010819999999N0250001N1+01021+00761100831ADDMD1710031+9999OA140101701REMSYN086AAXX  06034 03684 46/75 /2121 10102 20076 40083 57003 333 90710 91133 555 7/098 88/13;
0123036840999992000010604004+51880+000450FM-12+008799999V0202101N009819999999N0220001N1+01011+00781100811ADDMD1710011+9999OA140101391REMSYN086AAXX  06044 03684 46/72 /2119 10101 20078 40081 57001 333 90710 91127 555 7/098 88/12;
0123036840999992000010605004+51880+000450FM-12+008799999V0202001N009319999999N0180001N1+01001+00801100801ADDMD1710021+9999OA140101391REMSYN086AAXX  06054 03684 46/68 /2018 10100 20080 40080 57002 333 90710 91127 555 7/098 88/11;
0177036840999992000010606004+51880+000450FM-12+008799999V0202301N007219999999N0090001N1+00931+00871100831ADDAA112000591IA2999+00709KA1120N+00831MD1510001+9999OA140101391REMSYN104AAXX  06064 03684 16/59 /2314 10093 20087 40083 55000 69962 333 20083 3/007 90710 91127 555 7/097 87/04;
0129036840999992000010607004+51880+000450FM-12+008799999V0202301N007719999999N0290001N1+00831+00711100881ADDMD1310061+9999OA140101291REMSYN092AAXX  06074 03684 46/79 /2315 10083 20071 40088 53006 333 90710 91125 555 7/098 84/19 87/23;
0102036840999992000010608004+51880+000450FM-12+008799999V0202101N005719999999N0350001N1+00841+00751100921ADDMD1210111+9999REMSYN076AAXX  06084 03684 46/81 /2111 10084 20075 40092 52011 555 7/098 83/23 86/41;
0096036840999992000010609004+51880+000450FM-12+008799999V0202201N005719999999N0400001N1+00851+00651101001ADDMD1210161+9999REMSYN070AAXX  06094 03684 46/82 /2211 10085 20065 40100 52016 555 7/097 87/50;
0108036840999992000010610004+51880+000450FM-12+008799999V0202201N006719999999N0400001N1+00871+00651101071ADDMD1210191+9999REMSYN082AAXX  06104 03684 46/82 /2213 10087 20065 40107 52019 555 7/094 81/16 81/56 82/60;
0108036840999992000010611004+51880+000450FM-12+008799999V0202301N007719999999N0300001N1+00931+00701101141ADDMD1210221+9999REMSYN082AAXX  06114 03684 46/80 /2315 10093 20070 40114 52022 555 7/095 81/15 81/21 84/61;
0125036840999992000010612004+51880+000450FM-12+008799999V0202301N006719999999N0300001N1+00951+00691101151ADDAA106000891MD1110151+9999REMSYN088AAXX  06124 03684 16/80 /2313 10095 20069 40115 51015 69981 555 7/096 84/17 81/28 83/63;
0096036840999992000010613004+51880+000450FM-12+008799999V0202401N007219999999N0300001N1+00961+00601101191ADDMD1210121+9999REMSYN070AAXX  06134 03684 46/80 /2414 10096 20060 40119 52012 555 7/095 85/23;
0096036840999992000010614004+51880+000450FM-12+008799999V0202401N007219999999N0300001N1+00981+00571101201ADDMD1310071+9999REMSYN070AAXX  06144 03684 46/80 /2414 10098 20057 40120 53007 555 7/097 87/23;
0108036840999992000010615004+51880+000450FM-12+008799999V0202401N007719999999N0350001N1+00951+00521101291ADDMD1310141+9999REMSYN082AAXX  06154 03684 46/81 /2415 10095 20052 40129 53014 555 7/097 83/27 81/31 86/37;
0108036840999992000010616004+51880+000450FM-12+008799999V0202501N006719999999N0300001N1+00901+00541101401ADDMD1310211+9999REMSYN082AAXX  06164 03684 46/80 /2513 10090 20054 40140 53021 555 7/097 83/28 85/32 83/50;
0096036840999992000010617004+51880+000450FM-12+008799999V0202601N005119999999N0400001N1+00811+00421101521ADDMD1310311+9999REMSYN070AAXX  06174 03684 46/82 /2610 10081 20042 40152 53031 555 7/092 82/47;
0102036840999992000010619004+51880+000450FM-12+008799999V0202701N002619999999N0270001N1+00681+00491101731ADDMD1310321+9999REMSYN076AAXX  06194 03684 46/77 /2705 10068 20049 40173 53032 555 7/097 86/29 84/49;
0096036840999992000010620004+51880+000450FM-12+008799999V0202701N003119999999N0300001N1+00641+00401101791ADDMD1310261+9999REMSYN070AAXX  06204 03684 46/80 /2706 10064 20040 40179 53026 555 7/095 85/35;
0096036840999992000010621004+51880+000450FM-12+008799999V0202701N002119999999N0300001N1+00511+00321101841ADDMD1110241+9999REMSYN070AAXX  06214 03684 46/80 /2704 10051 20032 40184 51024 555 7/096 86/36;
0096036840999992000010622004+51880+000450FM-12+008799999V0202001N002619999999N0240001N1+00441+00301101881ADDMD1110141+9999REMSYN070AAXX  06224 03684 46/74 /2005 10044 20030 40188 51014 555 7/090 80/99;
0096036840999992000010623004+51880+000450FM-12+008799999V0202301N002619999999N0130001N1+00321+00271101941ADDMD1110131+9999REMSYN070AAXX  06234 03684 46/63 /2305 10032 20027 40194 51013 555 7/090 80/99;
0126036840999992000010700004+51880+000450FM-12+008799999V0202301N002619999999N0090001N1+00281+00251101991ADDAA106000091MD1210141+9999REMSYN070AAXX  07004 03684 36/59 /2305 10028 20025 40199 52014 555 7/090 80/99;EQDQ01  00002PRCP06
0096036840999992000010701004+51880+000450FM-12+008799999V0202101N003119999999N0060001N1+00231+00201102011ADDMD1110121+9999REMSYN070AAXX  07014 03684 46/56 /2106 10023 20020 40201 51012 555 7/090 80/99;
0096036840999992000010702004+51880+000450FM-12+008799999V0202101N003119999999N0100001N1+00251+00221102021ADDMD1110081+9999REMSYN070AAXX  07024 03684 46/60 /2106 10025 20022 40202 51008 555 7/090 80/99;
0096036840999992000010703004+51880+000450FM-12+008799999V0202201N004119999999N0080001N1+00221+00201101991ADDMD1010001+9999REMSYN070AAXX  07034 03684 46/58 /2208 10022 20020 40199 50000 555 7/090 80/99;
0096036840999992000010704004+51880+000450FM-12+008799999V0202301N004119999999N0120001N1+00231+00231101981ADDMD1710031+9999REMSYN070AAXX  07044 03684 46/62 /2308 10023 20023 40198 57003 555 7/090 80/99;
0096036840999992000010705004+51880+000450FM-12+008799999V0202201N004619999999N0130001N1+00281+00251101931ADDMD1710091+9999REMSYN070AAXX  07054 03684 46/63 /2209 10028 20025 40193 57009 555 7/090 80/99;
0154036840999992000010706004+51880+000450FM-12+008799999V0202101N004119999999N0190001N1+00321+00261101941ADDAA112000191IA2999-00209KA1120N+00191MD1710051+9999REMSYN092AAXX  07064 03684 16/69 /2108 10032 20026 40194 57005 69922 333 20019 3/102 555 7/090 80/99;
0096036840999992000010707004+51880+000450FM-12+008799999V0201901N003119999999N0100001N1+00271+00211101981ADDMD1510001+9999REMSYN070AAXX  07074 03684 46/60 /1906 10027 20021 40198 55000 555 7/090 80/99;
0096036840999992000010708004+51880+000450FM-12+008799999V0201901N003119999999N0160001N1+00321+00261101961ADDMD1010031+9999REMSYN070AAXX  07084 03684 46/66 /1906 10032 20026 40196 50003 555 7/090 80/99;
0096036840999992000010709004+51880+000450FM-12+008799999V0202001N003619999999N0180001N1+00421+00351101931ADDMD1010001+9999REMSYN070AAXX  07094 03684 46/68 /2007 10042 20035 40193 50000 555 7/090 80/99;
0096036840999992000010710004+51880+000450FM-12+008799999V0202001N006219999999N0250001N1+00641+00501101881ADDMD1810081+9999REMSYN070AAXX  07104 03684 46/75 /2012 10064 20050 40188 58008 555 7/090 80/99;
0096036840999992000010711004+51880+000450FM-12+008799999V0202001N005119999999N0230001N1+00761+00621101811ADDMD1810131+9999REMSYN070AAXX  07114 03684 46/73 /2010 10076 20062 40181 58013 555 7/090 80/99;
0159036840999992000010712004+51880+000450FM-12+008799999V0202101N008219999999N0300001N1+00901+00641101711ADDAA106000091MD1810201+9999OA140101391REMSYN092AAXX  07124 03684 36/80 /2116 10090 20064 40171 58020 333 90710 91127 555 7/095 85/14 81/23;EQDQ01  00002PRCP06
0108036840999992000010713004+51880+000450FM-12+008799999V0202101N007719999999N0300001N1+00911+00641101641ADDMD1710231+9999REMSYN082AAXX  07134 03684 46/80 /2115 10091 20064 40164 57023 555 7/097 82/18 82/26 84/34;
0102036840999992000010714004+51880+000450FM-12+008799999V0202101N007219999999N0350001N1+00951+00591101571ADDMD1710231+9999REMSYN076AAXX  07144 03684 46/81 /2114 10095 20059 40157 57023 555 7/098 81/32 87/37;
0102036840999992000010715004+51880+000450FM-12+008799999V0202001N006719999999N0300001N1+00911+00591101491ADDMD1710221+9999REMSYN076AAXX  07154 03684 46/80 /2013 10091 20059 40149 57022 555 7/097 81/31 86/42;
0108036840999992000010716004+51880+000450FM-12+008799999V0202001N007219999999N0300001N1+00861+00501101441ADDMD1710201+9999REMSYN082AAXX  07164 03684 46/80 /2014 10086 20050 40144 57020 555 7/095 83/27 81/31 81/44;
0108036840999992000010717004+51880+000450FM-12+008799999V0202001N007219999999N0300001N1+00841+00541101391ADDMD1710181+9999REMSYN082AAXX  07174 03684 46/80 /2014 10084 20054 40139 57018 555 7/097 81/22 81/26 86/34;
0161036840999992000010718004+51880+000450FM-12+008799999V0202101N007719999999N0300001N1+00841+00501101341ADDAA106000091KA1120M+00981MD1710151+9999REMSYN092AAXX  07184 03684 36/80 /2115 10084 20050 40134 57015 333 10098 555 7/097 82/26 81/32 87/46;EQDQ01  00002PRCP06
0102036840999992000010719004+51880+000450FM-12+008799999V0202101N008719999999N0300001N1+00841+00531101301ADDMD1710141+9999REMSYN076AAXX  07194 03684 46/80 /2117 10084 20053 40130 57014 555 7/097 82/22 86/41;
0129036840999992000010720004+51880+000450FM-12+008799999V0202101N007719999999N0300001N1+00821+00501101271ADDMD1610121+9999OA140101341REMSYN092AAXX  07204 03684 46/80 /2115 10082 20050 40127 56012 333 90710 91126 555 7/093 81/23 82/44;
0108036840999992000010721004+51880+000450FM-12+008799999V0202101N008219999999N0300001N1+00861+00531101261ADDMD1610081+9999REMSYN082AAXX  07214 03684 46/80 /2116 10086 20053 40126 56008 555 7/097 81/20 86/23 83/39;
0123036840999992000010722004+51880+000450FM-12+008799999V0202101N009819999999N0300001N1+00881+00561101211ADDMD1710091+9999OA140101341REMSYN086AAXX  07224 03684 46/80 /2119 10088 20056 40121 57009 333 90710 91126 555 7/097 87/21;
0135036840999992000010723004+51880+000450FM-12+008799999V0202101N009819999999N0300001N1+00871+00571101191ADDMD1710081+9999OA140101391REMSYN098AAXX  07234 03684 46/80 /2119 10087 20057 40119 57008 333 90710 91127 555 7/096 81/23 83/30 84/50;
0153036840999992000010800004+51880+000450FM-12+008799999V0202101N008719999999N0300001N1+00891+00621101181ADDAA106000091MD1710081+9999OA140101391REMSYN086AAXX  08004 03684 36/80 /2117 10089 20062 40118 57008 333 90710 91127 555 7/097 87/15;EQDQ01  00002PRCP06
0129036840999992000010801004+51880+000450FM-12+008799999V0202101N008219999999N0160001N1+00851+00701101141ADDMD1710071+9999OA140101391REMSYN092AAXX  08014 03684 46/66 /2116 10085 20070 40114 57007 333 90710 91127 555 7/098 81/09 87/14;
0102036840999992000010802004+51880+000450FM-12+008799999V0202101N007219999999N0080001N1+00821+00761101161ADDMD1710031+9999REMSYN076AAXX  08024 03684 46/58 /2114 10082 20076 40116 57003 555 7/098 86/04 87/12;
0096036840999992000010803004+51880+000450FM-12+008799999V0202101N006719999999N0130001N1+00841+00781101161ADDMD1710021+9999REMSYN070AAXX  08034 03684 46/63 /2113 10084 20078 40116 57002 555 7/098 88/05;
0096036840999992000010804004+51880+000450FM-12+008799999V0202201N006719999999N0070001N1+00871+00811101151ADDMD1210011+9999REMSYN070AAXX  08044 03684 46/57 /2213 10087 20081 40115 52001 555 7/098 88/05;
0102036840999992000010805004+51880+000450FM-12+008799999V0202801N004619999999N0180001N1+00761+00701101251ADDMD1310091+9999REMSYN076AAXX  08054 03684 46/68 /2809 10076 20070 40125 53009 555 7/098 87/04 85/16;
0154036840999992000010806004+51880+000450FM-12+008799999V0202201N003119999999N0350001N1+00731+00671101301ADDAA112000891IA2999+00609KA1120N+00731MD1310131+9999REMSYN092AAXX  08064 03684 16/81 /2206 10073 20067 40130 53013 69982 333 20073 3/006 555 7/097 87/46;
0102036840999992000010807004+51880+000450FM-12+008799999V0202301N002619999999N0300001N1+00661+00621101391ADDMD1210231+9999REMSYN076AAXX  08074 03684 46/80 /2305 10066 20062 40139 52023 555 7/098 81/29 87/50;
0096036840999992000010808004+51880+000450FM-12+008799999V0202501N005119999999N0300001N1+00611+00501101481ADDMD1310221+9999REMSYN070AAXX  08084 03684 46/80 /2510 10061 20050 40148 53022 555 7/091 81/56;
0096036840999992000010809004+51880+000450FM-12+008799999V0202501N005119999999N0290001N1+00531+00441101591ADDMD1210281+9999REMSYN070AAXX  08094 03684 46/79 /2510 10053 20044 40159 52028 555 7/090 80/99;
0096036840999992000010810004+51880+000450FM-12+008799999V0202401N006219999999N0300001N1+00631+00371101651ADDMD1210261+9999REMSYN070AAXX  08104 03684 46/80 /2412 10063 20037 40165 52026 555 7/090 80/99;
0096036840999992000010811004+51880+000450FM-12+008799999V0202501N006219999999N0300001N1+00711+00201101701ADDMD1210221+9999REMSYN070AAXX  08114 03684 46/80 /2512 10071 20020 40170 52022 555 7/090 80/99;
0126036840999992000010812004+51880+000450FM-12+008799999V0202501N006719999999N0350001N1+00751+00201101701ADDAA106000091MD1110121+9999REMSYN070AAXX  08124 03684 36/81 /2513 10075 20020 40170 51012 555 7/090 80/99;EQDQ01  00002PRCP06
0096036840999992000010813004+51880+000450FM-12+008799999V0202401N007219999999N0300001N1+00801+00201101681ADDMD1010031+9999REMSYN070AAXX  08134 03684 46/80 /2414 10080 20020 40168 50003 555 7/090 80/99;
0096036840999992000010814004+51880+000450FM-12+008799999V0202401N006719999999N0350001N1+00811+00241101681ADDMD1710021+9999REMSYN070AAXX  08144 03684 46/81 /2413 10081 20024 40168 57002 555 7/090 80/99;
0096036840999992000010815004+51880+000450FM-12+008799999V0202401N006219999999N0350001N1+00761+00181101691ADDMD1710011+9999REMSYN070AAXX  08154 03684 46/81 /2412 10076 20018 40169 57001 555 7/090 80/99;
0096036840999992000010816004+51880+000450FM-12+008799999V0202201N004119999999N0300001N1+00631+00211101761ADDMD1310081+9999REMSYN070AAXX  08164 03684 46/80 /2208 10063 20021 40176 53008 555 7/091 81/36;
0096036840999992000010817004+51880+000450FM-12+008799999V0202201N004119999999N0300001N1+00481+00201101801ADDMD1210111+9999REMSYN070AAXX  08174 03684 46/80 /2208 10048 20020 40180 52011 555 7/090 80/99;
0149036840999992000010818004+51880+000450FM-12+008799999V0202301N003619999999N0270001N1+00381+00151101851ADDAA106000091KA1120M+00841MD1110151+9999REMSYN080AAXX  08184 03684 36/77 /2307 10038 20015 40185 51015 333 10084 555 7/090 80/99;EQDQ01  00002PRCP06
0096036840999992000010819004+51880+000450FM-12+008799999V0202101N004119999999N0290001N1+00401+00121101881ADDMD1210111+9999REMSYN070AAXX  08194 03684 46/79 /2108 10040 20012 40188 52011 555 7/090 80/99;
0096036840999992000010820004+51880+000450FM-12+008799999V0202301N003619999999N0260001N1+00331+00141101941ADDMD1210131+9999REMSYN070AAXX  08204 03684 46/76 /2307 10033 20014 40194 52013 555 7/090 80/99;
0096036840999992000010821004+51880+000450FM-12+008799999V0202301N003119999999N0240001N1+00251+00091101981ADDMD1210121+9999REMSYN070AAXX  08214 03684 46/74 /2306 10025 20009 40198 52012 555 7/090 80/99;
0096036840999992000010822004+51880+000450FM-12+008799999V0202301N004119999999N0260001N1+00231+00101102031ADDMD1210141+9999REMSYN070AAXX  08224 03684 46/76 /2308 10023 20010 40203 52014 555 7/090 80/99;
0096036840999992000010823004+51880+000450FM-12+008799999V0202201N001519999999N0220001N1+00181+00071102071ADDMD1210121+9999REMSYN070AAXX  08234 03684 46/72 /2203 10018 20007 40207 52012 555 7/090 80/99;
0126036840999992000010900004+51880+000450FM-12+008799999V0202501N002619999999N0200001N1+00111+00011102081ADDAA106000091MD1210091+9999REMSYN070AAXX  09004 03684 36/70 /2505 10011 20001 40208 52009 555 7/090 80/99;EQDQ01  00002PRCP06
0096036840999992000010901004+51880+000450FM-12+008799999V0202501N003619999999N0190001N1+00111+00021102101ADDMD1210061+9999REMSYN070AAXX  09014 03684 46/69 /2507 10011 20002 40210 52006 555 7/090 80/99;
0096036840999992000010902004+51880+000450FM-12+008799999V0202601N002619999999N0170001N1+00071+00001102161ADDMD1310091+9999REMSYN070AAXX  09024 03684 46/67 /2605 10007 20000 40216 53009 555 7/090 80/99;
0096036840999992000010903004+51880+000450FM-12+008799999V0202501N002119999999N0160001N1+00031-00021102211ADDMD1210131+9999REMSYN070AAXX  09034 03684 46/66 /2504 10003 21002 40221 52013 555 7/090 80/99;
0096036840999992000010904004+51880+000450FM-12+008799999V0202701N003619999999N0180001N1+00081+00001102231ADDMD1110131+9999REMSYN070AAXX  09044 03684 46/68 /2707 10008 20000 40223 51013 555 7/090 80/99;
0096036840999992000010905004+51880+000450FM-12+008799999V0202701N003619999999N0210001N1+00061-00031102291ADDMD1210131+9999REMSYN070AAXX  09054 03684 46/71 /2707 10006 21003 40229 52013 555 7/090 80/99;
0096036840999992000010907004+51880+000450FM-12+008799999V0202601N004619999999N0180001N1-00011-00041102411ADDMD1110171+9999REMSYN070AAXX  09074 03684 46/68 /2609 11001 21004 40241 51017 555 7/090 80/99;
0096036840999992000010908004+51880+000450FM-12+008799999V0202601N003619999999N0190001N1-00041-00091102491ADDMD1210191+9999REMSYN070AAXX  09084 03684 46/69 /2607 11004 21009 40249 52019 555 7/090 80/99;
0096036840999992000010909004+51880+000450FM-12+008799999V0202501N001519999999N0150001N1-00061-00101102591ADDMD1310211+9999REMSYN070AAXX  09094 03684 46/65 /2503 11006 21010 40259 53021 555 7/090 80/99;
0096036840999992000010910004+51880+000450FM-12+008799999V0202701N002619999999N0200001N1+00101-00021102661ADDMD1210261+9999REMSYN070AAXX  09104 03684 46/70 /2705 10010 21002 40266 52026 555 7/090 80/99;
0096036840999992000010911004+51880+000450FM-12+008799999V0202601N003619999999N0270001N1+00241+00021102701ADDMD1110221+9999REMSYN070AAXX  09114 03684 46/77 /2607 10024 20002 40270 51022 555 7/090 80/99;
0113036840999992000010912004+51880+000450FM-12+008799999V0202801N003619999999N0350001N1+00391+00061102731ADDAA106000191MD1110161+9999REMSYN076AAXX  09124 03684 16/81 /2807 10039 20006 40273 51016 69921 555 7/090 80/99;
0096036840999992000010913004+51880+000450FM-12+008799999V0202901N004119999999N0400001N1+00491+00081102751ADDMD1210101+9999REMSYN070AAXX  09134 03684 46/82 /2908 10049 20008 40275 52010 555 7/090 80/99;
0096036840999992000010914004+51880+000450FM-12+008799999V0202901N004119999999N0400001N1+00561+00081102791ADDMD1210101+9999REMSYN070AAXX  09144 03684 46/82 /2908 10056 20008 40279 52010 555 7/090 80/99;
0096036840999992000010915004+51880+000450FM-12+008799999V0203001N003119999999N0350001N1+00521+00081102861ADDMD1310131+9999REMSYN070AAXX  09154 03684 46/81 /3006 10052 20008 40286 53013 555 7/090 80/99;
0096036840999992000010916004+51880+000450FM-12+008799999V0202801N003119999999N0350001N1+00371+00071102961ADDMD1210201+9999REMSYN070AAXX  09164 03684 46/81 /2806 10037 20007 40296 52020 555 7/090 80/99;
0096036840999992000010917004+51880+000450FM-12+008799999V0202701N002619999999N0270001N1+00201-00021103021ADDMD1110221+9999REMSYN070AAXX  09174 03684 46/77 /2705 10020 21002 40302 51022 555 7/090 80/99;
0136036840999992000010918004+51880+000450FM-12+008799999V0202901N002119999999N0250001N1+00181+00021103101ADDAA112000191KA1120M+00571MD1210221+9999REMSYN086AAXX  09184 03684 16/75 /2904 10018 20002 40310 52022 69922 333 10057 555 7/090 80/99;
0096036840999992000010919004+51880+000450FM-12+008799999V0202901N003119999999N0220001N1+00161-00011103171ADDMD1210201+9999REMSYN070AAXX  09194 03684 46/72 /2906 10016 21001 40317 52020 555 7/090 80/99;
0096036840999992000010920004+51880+000450FM-12+008799999V0202701N002619999999N0170001N1+00071+00001103231ADDMD1210201+9999REMSYN070AAXX  09204 03684 46/67 /2705 10007 20000 40323 52020 555 7/090 80/99;
0096036840999992000010921004+51880+000450FM-12+008799999V0202801N002119999999N0140001N1+00051-00021103281ADDMD1110181+9999REMSYN070AAXX  09214 03684 46/64 /2804 10005 21002 40328 51018 555 7/090 80/99;
0096036840999992000010922004+51880+000450FM-12+008799999V0202901N002619999999N0170001N1+00091+00021103301ADDMD1210131+9999REMSYN070AAXX  09224 03684 46/67 /2905 10009 20002 40330 52013 555 7/090 80/99;
0096036840999992000010923004+51880+000450FM-12+008799999V0202801N003119999999N0150001N1+00071-00011103351ADDMD1210121+9999REMSYN070AAXX  09234 03684 46/65 /2806 10007 21001 40335 52012 555 7/090 80/99;
0126036840999992000011000004+51880+000450FM-12+008799999V0202801N001019999999N0130001N1+00011-00081103391ADDAA106000091MD1210101+9999REMSYN070AAXX  10004 03684 36/63 /2802 10001 21008 40339 52010 555 7/090 80/99;EQDQ01  00002PRCP06
0096036840999992000011001004+51880+000450FM-12+008799999V0202201N002119999999N0080001N1-00081+99999103401ADDMD1110091+9999REMSYN070AAXX  10014 03684 46/58 /2204 11008 2//// 40340 51009 555 7/090 80/99;
0096036840999992000011002004+51880+000450FM-12+008799999V0202501N002119999999N0060001N1-00141-00171103431ADDMD1210071+9999REMSYN070AAXX  10024 03684 46/56 /2504 11014 21017 40343 52007 555 7/090 80/99;
0096036840999992000011003004+51880+000450FM-12+008799999V0202501N002619999999N0060001N1-00151-00171103461ADDMD1310071+9999REMSYN070AAXX  10034 03684 46/56 /2505 11015 21017 40346 53007 555 7/090 80/99;
0096036840999992000011004004+51880+000450FM-12+008799999V0202301N002119999999N0047001N1-00221-00241103441ADDMD1010031+9999REMSYN070AAXX  10044 03684 46/47 /2304 11022 21024 40344 50003 555 7/090 80/99;
0096036840999992000011005004+51880+000450FM-12+008799999V0202101N002119999999N0070001N1-00141-00151103471ADDMD1210041+9999REMSYN070AAXX  10054 03684 46/57 /2104 11014 21015 40347 52004 555 7/090 80/99;
0167036840999992000011006004+51880+000450FM-12+008799999V0202101N002119999999N0060001N1-00151-00161103501ADDAA106000091IA2999-00709KA1120N-00231MD1310041+9999REMSYN086AAXX  10064 03684 36/56 /2104 11015 21016 40350 53004 333 21023 3/107 555 7/090 80/99;EQDQ01  00002PRCP06
0096036840999992000011007004+51880+000450FM-12+008799999V0202001N002619999999N0032001N1-00171-00181103521ADDMD1110081+9999REMSYN070AAXX  10074 03684 46/32 /2005 11017 21018 40352 51008 555 7/090 80/99;
0096036840999992000011008004+51880+000450FM-12+008799999V0202201N002119999999N0015001N1-00271-00281103561ADDMD1210081+9999REMSYN070AAXX  10084 03684 46/15 /2204 11027 21028 40356 52008 555 7/090 80/99;
0096036840999992000011009004+51880+000450FM-12+008799999V0202301N003119999999N0050001N1-00131-00141103611ADDMD1210111+9999REMSYN070AAXX  10094 03684 46/50 /2306 11013 21014 40361 52011 555 7/090 80/99;
0096036840999992000011010004+51880+000450FM-12+008799999V0202001N003119999999N0080001N1+00051+00041103611ADDMD1210101+9999REMSYN070AAXX  10104 03684 46/58 /2006 10005 20004 40361 52010 555 7/090 80/99;
0096036840999992000011011004+51880+000450FM-12+008799999V0201901N003619999999N0110001N1+00191-00011103601ADDMD1010061+9999REMSYN070AAXX  10114 03684 46/61 /1907 10019 21001 40360 50006 555 7/090 80/99;
0113036840999992000011012004+51880+000450FM-12+008799999V0202001N003619999999N0140001N1+00371+00121103551ADDAA106000591MD1810041+9999REMSYN076AAXX  10124 03684 16/64 /2007 10037 20012 40355 58004 69941 555 7/090 80/99;
0096036840999992000011013004+51880+000450FM-12+008799999V0202001N004119999999N0170001N1+00471+00161103481ADDMD1810111+9999REMSYN070AAXX  10134 03684 46/67 /2008 10047 20016 40348 58011 555 7/090 80/99;
0096036840999992000011014004+51880+000450FM-12+008799999V0202001N003619999999N0120001N1+00471+00191103431ADDMD1810161+9999REMSYN070AAXX  10144 03684 46/62 /2007 10047 20019 40343 58016 555 7/090 80/99;
0096036840999992000011015004+51880+000450FM-12+008799999V0201901N002119999999N0150001N1+00441+00211103431ADDMD1610121+9999REMSYN070AAXX  10154 03684 46/65 /1904 10044 20021 40343 56012 555 7/090 80/99;
0096036840999992000011016004+51880+000450FM-12+008799999V0202001N003119999999N0210001N1+00381+00171103431ADDMD1610051+9999REMSYN070AAXX  10164 03684 46/71 /2006 10038 20017 40343 56005 555 7/090 80/99;
0096036840999992000011017004+51880+000450FM-12+008799999V0201801N003119999999N0180001N1+00331+00101103421ADDMD1710011+9999REMSYN070AAXX  10174 03684 46/68 /1806 10033 20010 40342 57001 555 7/090 80/99;
0136036840999992000011018004+51880+000450FM-12+008799999V0201801N003619999999N0140001N1+00281+00131103411ADDAA112000591KA1120M+00511MD1710031+9999REMSYN086AAXX  10184 03684 16/64 /1807 10028 20013 40341 57003 69942 333 10051 555 7/090 80/99;
0096036840999992000011020004+51880+000450FM-12+008799999V0201901N004119999999N0150001N1+00321+00201103401ADDMD1710021+9999REMSYN070AAXX  10204 03684 46/65 /1908 10032 20020 40340 57002 555 7/093 83/49;
0102036840999992000011021004+51880+000450FM-12+008799999V0201901N003619999999N0140001N1+00321+00211103391ADDMD1710011+9999REMSYN076AAXX  10214 03684 46/64 /1907 10032 20021 40339 57001 555 7/091 81/47 81/66;
0096036840999992000011022004+51880+000450FM-12+008799999V0202001N004119999999N0140001N1+00301+00231103401ADDMD1210011+9999REMSYN070AAXX  10224 03684 46/64 /2008 10030 20023 40340 52001 555 7/090 80/99;
0096036840999992000011023004+51880+000450FM-12+008799999V0201801N002619999999N0130001N1+00261+00211103401ADDMD1710011+9999REMSYN070AAXX  10234 03684 46/63 /1805 10026 20021 40340 57001 555 7/091 81/45;
0126036840999992000011100004+51880+000450FM-12+008799999V0201801N003119999999N0130001N1+00301+00231103381ADDAA106000091MD1710011+9999REMSYN070AAXX  11004 03684 36/63 /1806 10030 20023 40338 57001 555 7/090 80/99;EQDQ01  00002PRCP06
0096036840999992000011101004+51880+000450FM-12+008799999V0201901N003619999999N0120001N1+00361+00321103371ADDMD1710031+9999REMSYN070AAXX  11014 03684 46/62 /1907 10036 20032 40337 57003 555 7/094 84/58;
0102036840999992000011102004+51880+000450FM-12+008799999V0201901N003619999999N0100001N1+00391+00351103371ADDMD1610021+9999REMSYN076AAXX  11024 03684 46/60 /1907 10039 20035 40337 56002 555 7/098 87/49 85/58;
0096036840999992000011103004+51880+000450FM-12+008799999V0202001N003619999999N0170001N1+00481+00421103361ADDMD1610021+9999REMSYN070AAXX  11034 03684 46/67 /2007 10048 20042 40336 56002 555 7/098 88/46;
0102036840999992000011104004+51880+000450FM-12+008799999V0202101N005119999999N0220001N1+00581+00481103331ADDMD1710031+9999REMSYN076AAXX  11044 03684 46/72 /2110 10058 20048 40333 57003 555 7/098 85/38 87/50;
0108036840999992000011105004+51880+000450FM-12+008799999V0202001N005119999999N0210001N1+00591+00481103291ADDMD1710071+9999REMSYN082AAXX  11054 03684 46/71 /2010 10059 20048 40329 57007 555 7/098 83/42 84/50 87/57;
0167036840999992000011106004+51880+000450FM-12+008799999V0202101N005119999999N0260001N1+00601+00491103281ADDAA106000091IA2999-00109KA1120N+00261MD1710071+9999REMSYN086AAXX  11064 03684 36/76 /2110 10060 20049 40328 57007 333 20026 3/101 555 7/098 88/50;EQDQ01  00002PRCP06
0102036840999992000011107004+51880+000450FM-12+008799999V0202101N005119999999N0240001N1+00621+00511103301ADDMD1510031+9999REMSYN076AAXX  11074 03684 46/74 /2110 10062 20051 40330 55003 555 7/098 81/33 88/56;
0102036840999992000011108004+51880+000450FM-12+008799999V0202101N005719999999N0190001N1+00641+00531103321ADDMD1310031+9999REMSYN076AAXX  11084 03684 46/69 /2111 10064 20053 40332 53003 555 7/098 82/32 88/50;
0102036840999992000011109004+51880+000450FM-12+008799999V0202101N004619999999N0170001N1+00671+00571103331ADDMD1210051+9999REMSYN076AAXX  11094 03684 46/67 /2109 10067 20057 40333 52005 555 7/098 81/32 87/50;
0096036840999992000011110004+51880+000450FM-12+008799999V0202101N006219999999N0200001N1+00801+00631103321ADDMD1210031+9999REMSYN070AAXX  11104 03684 46/70 /2112 10080 20063 40332 52003 555 7/097 87/56;
0108036840999992000011111004+51880+000450FM-12+008799999V0202201N006719999999N0200001N1+00851+00661103321ADDMD1210011+9999REMSYN082AAXX  11114 03684 46/70 /2213 10085 20066 40332 52001 555 7/098 82/09 81/13 87/50;
0132036840999992000011112004+51880+000450FM-12+008799999V0202201N007219999999N0300001N1+00901+00661103261ADDAA106000091MD1810061+9999REMSYN076AAXX  11124 03684 36/80 /2214 10090 20066 40326 58006 555 7/098 87/14 84/56;EQDQ01  00002PRCP06
0108036840999992000011114004+51880+000450FM-12+008799999V0202101N007219999999N0300001N1+00901+00641103151ADDMD1710171+9999REMSYN082AAXX  11144 03684 46/80 /2114 10090 20064 40315 57017 555 7/096 81/16 81/22 86/43;
0096036840999992000011115004+51880+000450FM-12+008799999V0202101N006219999999N0350001N1+00851+00631103161ADDMD1610101+9999REMSYN070AAXX  11154 03684 46/81 /2112 10085 20063 40316 56010 555 7/097 87/15;
0102036840999992000011116004+51880+000450FM-12+008799999V0202201N007219999999N0400001N1+00831+00591103131ADDMD1610071+9999REMSYN076AAXX  11164 03684 46/82 /2214 10083 20059 40313 56007 555 7/098 85/14 87/43;
0108036840999992000011117004+51880+000450FM-12+008799999V0202101N006219999999N0350001N1+00801+00581103071ADDMD1810081+9999REMSYN082AAXX  11174 03684 46/81 /2112 10080 20058 40307 58008 555 7/098 81/16 87/36 83/41;
0149036840999992000011118004+51880+000450FM-12+008799999V0202101N006219999999N0300001N1+00781+00571103071ADDAA106000091KA1120M+00971MD1710091+9999REMSYN080AAXX  11184 03684 36/80 /2112 10078 20057 40307 57009 333 10097 555 7/098 88/38;EQDQ01  00002PRCP06
0096036840999992000011119004+51880+000450FM-12+008799999V0202001N005719999999N0240001N1+00751+00581103071ADDMD1610061+9999REMSYN070AAXX  11194 03684 46/74 /2011 10075 20058 40307 56006 555 7/097 87/40;
0096036840999992000011120004+51880+000450FM-12+008799999V0202001N006719999999N0200001N1+00741+00561103011ADDMD1810061+9999REMSYN070AAXX  11204 03684 46/70 /2013 10074 20056 40301 58006 555 7/095 85/43;
0096036840999992000011121004+51880+000450FM-12+008799999V0202001N006719999999N0200001N1+00711+00501102981ADDMD1810091+9999REMSYN070AAXX  11214 03684 46/70 /2013 10071 20050 40298 58009 555 7/097 87/40;
0096036840999992000011122004+51880+000450FM-12+008799999V0202001N007219999999N0220001N1+00711+00501102961ADDMD1710111+9999REMSYN070AAXX  11224 03684 46/72 /2014 10071 20050 40296 57011 555 7/098 88/39;
0102036840999992000011123004+51880+000450FM-12+008799999V0202001N006719999999N0190001N1+00731+00501102931ADDMD1710081+9999REMSYN076AAXX  11234 03684 46/69 /2013 10073 20050 40293 57008 555 7/098 84/18 87/42;
0132036840999992000011200004+51880+000450FM-12+008799999V0202001N007719999999N0130001N1+00721+00531102861ADDAA106000091MD1810121+9999REMSYN076AAXX  12004 03684 36/63 /2015 10072 20053 40286 58012 555 7/098 85/13 87/42;EQDQ01  00002PRCP06
0108036840999992000011201004+51880+000450FM-12+008799999V0202001N006719999999N0120001N1+00711+00531102791ADDMD1710171+9999REMSYN082AAXX  12014 03684 46/62 /2013 10071 20053 40279 57017 555 7/097 85/12 83/19 82/36;
0102036840999992000011202004+51880+000450FM-12+008799999V0202101N007219999999N0120001N1+00711+00531102721ADDMD1710211+9999REMSYN076AAXX  12024 03684 46/62 /2114 10071 20053 40272 57021 555 7/098 85/27 86/35;
0096036840999992000011203004+51880+000450FM-12+008799999V0202101N006719999999N0130001N1+00711+00521102691ADDMD1610171+9999REMSYN070AAXX  12034 03684 46/63 /2113 10071 20052 40269 56017 555 7/097 87/14;
0102036840999992000011204004+51880+000450FM-12+008799999V0202101N005719999999N0170001N1+00711+00501102631ADDMD1710161+9999REMSYN076AAXX  12044 03684 46/67 /2111 10071 20050 40263 57016 555 7/098 87/14 84/39;
0102036840999992000011205004+51880+000450FM-12+008799999V0202001N006719999999N0240001N1+00731+00481102561ADDMD1710161+9999REMSYN076AAXX  12054 03684 46/74 /2013 10073 20048 40256 57016 555 7/098 87/16 86/22;
0167036840999992000011206004+51880+000450FM-12+008799999V0202101N006219999999N0180001N1+00711+00511102521ADDAA106000091IA2999+00509KA1120N+00701MD1710171+9999REMSYN086AAXX  12064 03684 36/68 /2112 10071 20051 40252 57017 333 20070 3/005 555 7/098 88/13;EQDQ01  00002PRCP06
0096036840999992000011207004+51880+000450FM-12+008799999V0202001N006219999999N0170001N1+00691+00501102511ADDMD1610121+9999REMSYN070AAXX  12074 03684 46/67 /2012 10069 20050 40251 56012 555 7/098 88/14;
0096036840999992000011208004+51880+000450FM-12+008799999V0202101N007219999999N0180001N1+00691+00471102471ADDMD1610091+9999REMSYN070AAXX  12084 03684 46/68 /2114 10069 20047 40247 56009 555 7/098 88/15;
0096036840999992000011209004+51880+000450FM-12+008799999V0202001N007719999999N0190001N1+00691+00461102451ADDMD1710071+9999REMSYN070AAXX  12094 03684 46/69 /2015 10069 20046 40245 57007 555 7/097 87/14;
0102036840999992000011210004+51880+000450FM-12+008799999V0202101N008219999999N0210001N1+00711+00441102431ADDMD1710081+9999REMSYN076AAXX  12104 03684 46/71 /2116 10071 20044 40243 57008 555 7/098 87/15 85/21;
0096036840999992000011211004+51880+000450FM-12+008799999V0202001N008719999999N0220001N1+00741+00471102431ADDMD1610041+9999REMSYN070AAXX  12114 03684 46/72 /2017 10074 20047 40243 56004 555 7/097 87/16;
0126036840999992000011212004+51880+000450FM-12+008799999V0202101N008219999999N0200001N1+00721+00461102351ADDAA106000091MD1710101+9999REMSYN070AAXX  12124 03684 36/70 /2116 10072 20046 40235 57010 555 7/097 87/35;EQDQ01  00002PRCP06
0102036840999992000011213004+51880+000450FM-12+008799999V0202101N007219999999N0190001N1+00701+00451102261ADDMD1810171+9999REMSYN076AAXX  12134 03684 46/69 /2114 10070 20045 40226 58017 555 7/098 81/16 87/35;
0096036840999992000011214004+51880+000450FM-12+008799999V0202001N006719999999N0180001N1+00701+00421102221ADDMD1610211+9999REMSYN070AAXX  12144 03684 46/68 /2013 10070 20042 40222 56021 555 7/098 88/31;
0096036840999992000011215004+51880+000450FM-12+008799999V0202001N007719999999N0200001N1+00701+00401102131ADDMD1710221+9999REMSYN070AAXX  12154 03684 46/70 /2015 10070 20040 40213 57022 555 7/097 87/38;
0096036840999992000011216004+51880+000450FM-12+008799999V0202001N006719999999N0200001N1+00671+00391102111ADDMD1710151+9999REMSYN070AAXX  12164 03684 46/70 /2013 10067 20039 40211 57015 555 7/098 88/35;
0096036840999992000011217004+51880+000450FM-12+008799999V0202001N006219999999N0150001N1+00591+00341102061ADDMD1610161+9999REMSYN070AAXX  12174 03684 46/65 /2012 10059 20034 40206 56016 555 7/097 87/39;
0149036840999992000011218004+51880+000450FM-12+008799999V0201901N005119999999N0150001N1+00501+00271102021ADDAA106000091KA1120M+00751MD1710111+9999REMSYN080AAXX  12184 03684 36/65 /1910 10050 20027 40202 57011 333 10075 555 7/090 80/99;EQDQ01  00002PRCP06
0096036840999992000011219004+51880+000450FM-12+008799999V0201901N006219999999N0180001N1+00491+00261101981ADDMD1610131+9999REMSYN070AAXX  12194 03684 46/68 /1912 10049 20026 40198 56013 555 7/097 87/14;
0096036840999992000011220004+51880+000450FM-12+008799999V0201901N006719999999N0150001N1+00501+00231101931ADDMD1710131+9999REMSYN070AAXX  12204 03684 46/65 /1913 10050 20023 40193 57013 555 7/097 87/14;
0096036840999992000011221004+51880+000450FM-12+008799999V0201901N006219999999N0150001N1+00481+00251101881ADDMD1710141+9999REMSYN070AAXX  12214 03684 46/65 /1912 10048 20025 40188 57014 555 7/097 87/15;
0096036840999992000011222004+51880+000450FM-12+008799999V0201901N007219999999N0160001N1+00471+00181101831ADDMD1710151+9999REMSYN070AAXX  12224 03684 46/66 /1914 10047 20018 40183 57015 555 7/097 87/15;
0096036840999992000011223004+51880+000450FM-12+008799999V0201901N006219999999N0140001N1+00381+00151101771ADDMD1710161+9999REMSYN070AAXX  12234 03684 46/64 /1912 10038 20015 40177 57016 555 7/095 85/14;
0126036840999992000011300004+51880+000450FM-12+008799999V0201801N007219999999N0140001N1+00341+00111101661ADDAA106000091MD1710221+9999REMSYN070AAXX  13004 03684 36/64 /1814 10034 20011 40166 57022 555 7/098 88/13;EQDQ01  00002PRCP06
0096036840999992000011301004+51880+000450FM-12+008799999V0201901N006219999999N0120001N1+00351+00151101611ADDMD1710221+9999REMSYN070AAXX  13014 03684 46/62 /1912 10035 20015 40161 57022 555 7/098 88/12;
0096036840999992000011302004+51880+000450FM-12+008799999V0201901N006219999999N0100001N1+00381+00181101531ADDMD1710241+9999REMSYN070AAXX  13024 03684 46/60 /1912 10038 20018 40153 57024 555 7/098 88/09;
0096036840999992000011303004+51880+000450FM-12+008799999V0201901N005719999999N0070001N1+00371+00241101461ADDMD1710201+9999REMSYN070AAXX  13034 03684 46/57 /1911 10037 20024 40146 57020 555 7/098 88/07;
0096036840999992000011304004+51880+000450FM-12+008799999V0201801N005119999999N0060001N1+00381+00291101391ADDMD1710221+9999REMSYN070AAXX  13044 03684 46/56 /1810 10038 20029 40139 57022 555 7/098 88/05;
0096036840999992000011305004+51880+000450FM-12+008799999V0201801N004619999999N0037001N1+00391+00341101331ADDMD1710201+9999REMSYN070AAXX  13054 03684 46/37 /1809 10039 20034 40133 57020 555 7/098 88/03;
0167036840999992000011306004+51880+000450FM-12+008799999V0201701N003619999999N0028001N1+00421+00371101301ADDAA106000091IA2999+00209KA1120N+00341MD1710161+9999REMSYN086AAXX  13064 03684 36/28 /1707 10042 20037 40130 57016 333 20034 3/002 555 7/098 88/02;EQDQ01  00002PRCP06
0096036840999992000011307004+51880+000450FM-12+008799999V0201801N004119999999N0036001N1+00441+00421101281ADDMD1710111+9999REMSYN070AAXX  13074 03684 46/36 /1808 10044 20042 40128 57011 555 7/097 87/02;
0096036840999992000011308004+51880+000450FM-12+008799999V0202001N003119999999N0038001N1+00461+00451101291ADDMD1610041+9999REMSYN070AAXX  13084 03684 46/38 /2006 10046 20045 40129 56004 555 7/097 87/02;
0102036840999992000011309004+51880+000450FM-12+008799999V0203101N004619999999N0120001N1+00321+00261101371ADDMD1310071+9999REMSYN076AAXX  13094 03684 46/62 /3109 10032 20026 40137 53007 555 7/098 87/02 83/15;
0102036840999992000011310004+51880+000450FM-12+008799999V0203101N004619999999N0110001N1+00161+00121101411ADDMD1310121+9999REMSYN076AAXX  13104 03684 46/61 /3109 10016 20012 40141 53012 555 7/098 87/02 85/21;
0096036840999992000011311004+51880+000450FM-12+008799999V0203301N004119999999N0110001N1+00221+00161101441ADDMD1110141+9999REMSYN070AAXX  13114 03684 46/61 /3308 10022 20016 40144 51014 555 7/098 88/04;
0113036840999992000011312004+51880+000450FM-12+008799999V0203301N004619999999N0160001N1+00241+00181101451ADDAA106003091MD1210071+9999REMSYN076AAXX  13124 03684 16/66 /3309 10024 20018 40145 52007 60031 555 7/098 88/04;
0096036840999992000011313004+51880+000450FM-12+008799999V0203301N004619999999N0200001N1+00261+00181101421ADDMD1210021+9999REMSYN070AAXX  13134 03684 46/70 /3309 10026 20018 40142 52002 555 7/098 88/04;
0096036840999992000011314004+51880+000450FM-12+008799999V0203301N005119999999N0200001N1+00271+00191101421ADDMD1710011+9999REMSYN070AAXX  13144 03684 46/70 /3310 10027 20019 40142 57001 555 7/098 88/04;
0096036840999992000011315004+51880+000450FM-12+008799999V0203201N005119999999N0230001N1+00291+00161101481ADDMD1310041+9999REMSYN070AAXX  13154 03684 46/73 /3210 10029 20016 40148 53004 555 7/098 88/08;
0102036840999992000011316004+51880+000450FM-12+008799999V0203201N004619999999N0090001N1+00301+00171101501ADDMD1210081+9999REMSYN076AAXX  13164 03684 46/59 /3209 10030 20017 40150 52008 555 7/098 83/08 87/17;
0102036840999992000011317004+51880+000450FM-12+008799999V0203201N004619999999N0150001N1+00281+00121101551ADDMD1210121+9999REMSYN076AAXX  13174 03684 46/65 /3209 10028 20012 40155 52012 555 7/098 82/19 87/37;
0142036840999992000011318004+51880+000450FM-12+008799999V0203201N003619999999N0150001N1+00281+00091101621ADDAA112003091KA1120M+00481MD1210131+9999REMSYN092AAXX  13184 03684 16/65 /3207 10028 20009 40162 52013 60032 333 10048 555 7/098 85/37 86/50;
0102036840999992000011319004+51880+000450FM-12+008799999V0203301N003119999999N0160001N1+00251+00061101681ADDMD1210171+9999REMSYN076AAXX  13194 03684 46/66 /3306 10025 20006 40168 52017 555 7/098 81/33 87/50;
0100036840999992000011320004+51880+000450FM-12+008799999V0203301N003119999999N0140001N1+00161+00011101701ADDMD1110151+9999REMSYN074    AAXX  13204 03684 46/64 /3306 10016 20001 40170 51015 555 7/091 81/50;
0100036840999992000011321004+51880+000450FM-12+008799999V0203201N003119999999N0110001N1+00081-00061101761ADDMD1210131+9999REMSYN074    AAXX  13214 03684 46/61 /3206 10008 21006 40176 52013 555 7/090 80/99;
0100036840999992000011322004+51880+000450FM-12+008799999V0203201N002619999999N0120001N1+00041-00031101791ADDMD1210101+9999REMSYN074    AAXX  13224 03684 46/62 /3205 10004 21003 40179 52010 555 7/090 80/99;
0100036840999992000011323004+51880+000450FM-12+008799999V0203201N002619999999N0110001N1+00031-00031101831ADDMD1210121+9999REMSYN074    AAXX  13234 03684 46/61 /3205 10003 21003 40183 52012 555 7/090 80/99;
0130036840999992000011400004+51880+000450FM-12+008799999V0203201N003119999999N0120001N1+00031-00051101861ADDAA199000091MD1210101+9999REMSYN074    AAXX  14004 03684 36/62 /3206 10003 21005 40186 52010 555 7/091 81/26;EQDQ01  00002PRCP99
0100036840999992000011401004+51880+000450FM-12+008799999V0203301N004619999999N0130001N1+00101+00011101871ADDMD1210081+9999REMSYN074    AAXX  14014 03684 46/63 /3309 10010 20001 40187 52008 555 7/097 87/22;
0100036840999992000011402004+51880+000450FM-12+008799999V0203201N004119999999N0100001N1+00101-00041101891ADDMD1210061+9999REMSYN074    AAXX  14024 03684 46/60 /3208 10010 21004 40189 52006 555 7/098 88/23;
0106036840999992000011403004+51880+000450FM-12+008799999V0203301N004119999999N0070001N1+00091-00011101941ADDMD1210081+9999REMSYN080    AAXX  14034 03684 46/57 /3308 10009 21001 40194 52008 555 7/098 84/04 88/25;
0100036840999992000011404004+51880+000450FM-12+008799999V0203301N003119999999N0029001N1+00081+00041101981ADDMD1310111+9999REMSYN074    AAXX  14044 03684 46/29 /3306 10008 20004 40198 53011 555 7/097 87/02;
0112036840999992000011405004+51880+000450FM-12+008799999V0203401N004119999999N0050001N1+00111+00071102001ADDMD1210111+9999REMSYN086    AAXX  14054 03684 46/50 /3408 10011 20007 40200 52011 555 7/098 82/02 82/17 86/36;
0158036840999992000011406004+51880+000450FM-12+008799999V0203301N004119999999N0050001N1+00111+00091102051ADDAA112000191IA2999-00309KA1120N+00021MD1210111+9999REMSYN096    AAXX  14064 03684 16/50 /3308 10011 20009 40205 52011 69922 333 20002 3/103 555 7/097 87/02;
0100036840999992000011407004+51880+000450FM-12+008799999V0203401N005119999999N0050001N1+00131+00121102121ADDMD1210141+9999REMSYN074    AAXX  14074 03684 46/50 /3410 10013 20012 40212 52014 555 7/098 88/01;
0100036840999992000011408004+51880+000450FM-12+008799999V0203401N005119999999N0070001N1+00131+00101102191ADDMD1210191+9999REMSYN074    AAXX  14084 03684 46/57 /3410 10013 20010 40219 52019 555 7/098 88/02;
0100036840999992000011409004+51880+000450FM-12+008799999V0203301N004119999999N0110001N1+00091+00031102231ADDMD1210181+9999REMSYN074    AAXX  14094 03684 46/61 /3308 10009 20003 40223 52018 555 7/091 81/02;
0100036840999992000011410004+51880+000450FM-12+008799999V0203301N004619999999N0130001N1+00171+00101102301ADDMD1210181+9999REMSYN074    AAXX  14104 03684 46/63 /3309 10017 20010 40230 52018 555 7/091 81/04;
0100036840999992000011411004+51880+000450FM-12+008799999V0203301N005119999999N0160001N1+00271+00151102291ADDMD1110111+9999REMSYN074    AAXX  14114 03684 46/66 /3310 10027 20015 40229 51011 555 7/091 81/04;
0130036840999992000011412004+51880+000450FM-12+008799999V0203301N004619999999N0220001N1+00371+00191102311ADDAA199000091MD1110091+9999REMSYN074    AAXX  14124 03684 36/72 /3309 10037 20019 40231 51009 555 7/090 80/99;EQDQ01  00002PRCP99
0100036840999992000011413004+51880+000450FM-12+008799999V0203301N004119999999N0290001N1+00441+00211102291ADDMD1010001+9999REMSYN074    AAXX  14134 03684 46/79 /3308 10044 20021 40229 50000 555 7/091 81/09;
0106036840999992000011414004+51880+000450FM-12+008799999V0203301N005119999999N0350001N1+00471+00231102311ADDMD1210021+9999REMSYN080    AAXX  14144 03684 46/81 /3310 10047 20023 40231 52002 555 7/096 81/11 86/25;
0112036840999992000011415004+51880+000450FM-12+008799999V0203201N005119999999N0350001N1+00431+00211102311ADDMD1410001+9999REMSYN086    AAXX  14154 03684 46/81 /3210 10043 20021 40231 54000 555 7/098 85/11 84/18 86/24;
0100036840999992000011416004+51880+000450FM-12+008799999V0203101N004119999999N0220001N1+00371+00231102341ADDMD1210051+9999REMSYN074    AAXX  14164 03684 46/72 /3108 10037 20023 40234 52005 555 7/097 87/09;
0100036840999992000011417004+51880+000450FM-12+008799999V0203201N004119999999N0160001N1+00401+00331102371ADDMD1210061+9999REMSYN074    AAXX  14174 03684 46/66 /3208 10040 20033 40237 52006 555 7/098 88/05;
0153036840999992000011418004+51880+000450FM-12+008799999V0203301N004619999999N0210001N1+00391+00291102421ADDAA199000091KA1120M+00501MD1210111+9999REMSYN084    AAXX  14184 03684 36/71 /3309 10039 20029 40242 52011 333 10050 555 7/096 86/05;EQDQ01  00002PRCP99
0106036840999992000011419004+51880+000450FM-12+008799999V0203301N004119999999N0180001N1+00431+00311102471ADDMD1210131+9999REMSYN080    AAXX  14194 03684 46/68 /3308 10043 20031 40247 52013 555 7/097 86/06 84/29;
0112036840999992000011420004+51880+000450FM-12+008799999V0203401N004119999999N0160001N1+00431+00341102551ADDMD1210181+9999REMSYN086    AAXX  14204 03684 46/66 /3408 10043 20034 40255 52018 555 7/098 86/06 82/20 84/32;
0112036840999992000011421004+51880+000450FM-12+008799999V0203501N003119999999N0210001N1+00381+00291102631ADDMD1310211+9999REMSYN086    AAXX  14214 03684 46/71 /3506 10038 20029 40263 53021 555 7/098 82/07 82/16 87/35;
0112036840999992000011422004+51880+000450FM-12+008799999V0203601N003119999999N0170001N1+00421+00331102691ADDMD1210221+9999REMSYN086    AAXX  14224 03684 46/67 /3606 10042 20033 40269 52022 555 7/098 86/07 82/24 83/35;
0112036840999992000011423004+51880+000450FM-12+008799999V0200101N003119999999N0160001N1+00401+00351102801ADDMD1210251+9999REMSYN086    AAXX  14234 03684 46/66 /0106 10040 20035 40280 52025 555 7/098 81/06 83/16 86/33;
0119036840999992000011500004+51880+000450FM-12+008799999V0203401N004619999999N0230001N1+00391+00131999999ADDMD1610111+9999REMSYN074    AAXX  16144 03684 46/73 /3409 10039 20013 40399 56011 555 7/097 87/29;EQDQ01+103993APOSLP
0100036840999992000011501004+51880+000450FM-12+008799999V0200301N003119999999N0120001N1+00371+00311102961ADDMD1210261+9999REMSYN074    AAXX  15014 03684 46/62 /0306 10037 20031 40296 52026 555 7/097 87/47;
0106036840999992000011502004+51880+000450FM-12+008799999V0200301N003619999999N0130001N1+00381+00311103031ADDMD1210221+9999REMSYN080    AAXX  15024 03684 46/63 /0307 10038 20031 40303 52022 555 7/098 81/27 87/45;
0112036840999992000011503004+51880+000450FM-12+008799999V0200301N003619999999N0080001N1+00381+00331103141ADDMD1210261+9999REMSYN086    AAXX  15034 03684 46/58 /0307 10038 20033 40314 52026 555 7/098 83/04 81/13 87/44;
0100036840999992000011504004+51880+000450FM-12+008799999V0200501N004119999999N0042001N1+00381+00361103211ADDMD1210251+9999REMSYN074    AAXX  15044 03684 46/42 /0508 10038 20036 40321 52025 555 7/097 87/02;
0106036840999992000011505004+51880+000450FM-12+008799999V0200501N003619999999N0070001N1+00371+00331103301ADDMD1210271+9999REMSYN080    AAXX  15054 03684 46/57 /0507 10037 20033 40330 52027 555 7/098 81/02 88/47;
0158036840999992000011506004+51880+000450FM-12+008799999V0200301N003619999999N0050001N1+00281+00241103411ADDAA112000191IA2999+00009KA1120N+00281MD1210261+9999REMSYN096    AAXX  15064 03684 16/50 /0307 10028 20024 40341 52026 69922 333 20028 3/000 555 7/093 83/46;
0100036840999992000011507004+51880+000450FM-12+008799999V0200101N003119999999N0150001N1+00301+00221103511ADDMD1210291+9999REMSYN074    AAXX  15074 03684 46/65 /0106 10030 20022 40351 52029 555 7/097 87/47;
0106036840999992000011508004+51880+000450FM-12+008799999V0200301N004119999999N0100001N1+00331+00281103581ADDMD1210271+9999REMSYN080    AAXX  15084 03684 46/60 /0308 10033 20028 40358 52027 555 7/098 82/04 87/48;
0106036840999992000011509004+51880+000450FM-12+008799999V0200301N004119999999N0100001N1+00371+00301103681ADDMD1310281+9999REMSYN080    AAXX  15094 03684 46/60 /0308 10037 20030 40368 53028 555 7/098 81/22 88/50;
0100036840999992000011510004+51880+000450FM-12+008799999V0200201N004619999999N0070001N1+00371+00291103731ADDMD1110221+9999REMSYN074    AAXX  15104 03684 46/57 /0209 10037 20029 40373 51022 555 7/092 82/50;
0100036840999992000011511004+51880+000450FM-12+008799999V0200301N005719999999N0070001N1+00461+00321103781ADDMD1110211+9999REMSYN074    AAXX  15114 03684 46/57 /0311 10046 20032 40378 51021 555 7/096 86/50;
0130036840999992000011512004+51880+000450FM-12+008799999V0200401N006219999999N0120001N1+00421+00201103831ADDAA199000091MD1210151+9999REMSYN074    AAXX  15124 03684 36/62 /0412 10042 20020 40383 52015 555 7/093 83/50;EQDQ01  00002PRCP99
0100036840999992000011513004+51880+000450FM-12+008799999V0200401N006719999999N0150001N1+00531+00181103831ADDMD1110111+9999REMSYN074    AAXX  15134 03684 46/65 /0413 10053 20018 40383 51011 555 7/092 82/17;
0100036840999992000011514004+51880+000450FM-12+008799999V0200401N005719999999N0190001N1+00531+00151103851ADDMD1210071+9999REMSYN074    AAXX  15144 03684 46/69 /0411 10053 20015 40385 52007 555 7/092 82/19;
0100036840999992000011515004+51880+000450FM-12+008799999V0200401N006219999999N0350001N1+00531+00171103891ADDMD1310061+9999REMSYN074    AAXX  15154 03684 46/81 /0412 10053 20017 40389 53006 555 7/091 81/42;
0100036840999992000011516004+51880+000450FM-12+008799999V0200201N003119999999N0300001N1+00381+00151103951ADDMD1210111+9999REMSYN074    AAXX  15164 03684 46/80 /0206 10038 20015 40395 52011 555 7/092 82/42;
0100036840999992000011517004+51880+000450FM-12+008799999V0200301N003119999999N0400001N1+00301+00031104001ADDMD1210141+9999REMSYN074    AAXX  15174 03684 46/82 /0306 10030 20003 40400 52014 555 7/091 81/35;
0153036840999992000011518004+51880+000450FM-12+008799999V0203601N002119999999N0350001N1+00171+00011104051ADDAA199000091KA1120M+00591MD1210141+9999REMSYN084    AAXX  15184 03684 36/81 /3604 10017 20001 40405 52014 333 10059 555 7/090 80/99;EQDQ01  00002PRCP99
0100036840999992000011519004+51880+000450FM-12+008799999V0203601N002619999999N0280001N1+00161-00021104081ADDMD1210121+9999REMSYN074    AAXX  15194 03684 46/78 /3605 10016 21002 40408 52012 555 7/094 84/37;
0100036840999992000011520004+51880+000450FM-12+008799999V0203501N002619999999N0300001N1+00111-00021104071ADDMD1110061+9999REMSYN074    AAXX  15204 03684 46/80 /3505 10011 21002 40407 51006 555 7/093 83/40;
0100036840999992000011521004+51880+000450FM-12+008799999V0203401N001519999999N0300001N1+00111+00001104061ADDMD1210011+9999REMSYN074    AAXX  15214 03684 46/80 /3403 10011 20000 40406 52001 555 7/093 83/34;
0100036840999992000011522004+51880+000450FM-12+008799999V0203501N002619999999N0300001N1+00101+00021104091ADDMD1210011+9999REMSYN074    AAXX  15224 03684 46/80 /3505 10010 20002 40409 52001 555 7/096 86/25;
0100036840999992000011523004+51880+000450FM-12+008799999V0203501N002619999999N0210001N1+00101+00011104101ADDMD1210031+9999REMSYN074    AAXX  15234 03684 46/71 /3505 10010 20001 40410 52003 555 7/096 86/32;
0106036840999992000011601004+51880+000450FM-12+008799999V0203501N002119999999N0110001N1+00201+00141104091ADDMD1410001+9999REMSYN080    AAXX  16014 03684 46/61 /3504 10020 20014 40409 54000 555 7/098 85/05 87/29;
0106036840999992000011602004+51880+000450FM-12+008799999V0203301N002619999999N0060001N1+00221+00171104051ADDMD1710051+9999REMSYN080    AAXX  16024 03684 46/56 /3305 10022 20017 40405 57005 555 7/098 85/03 87/24;
0112036840999992000011603004+51880+000450FM-12+008799999V0203301N003619999999N0043001N1+00251+00171104031ADDMD1810031+9999REMSYN086    AAXX  16034 03684 46/43 /3307 10025 20017 40403 58003 555 7/098 82/04 83/11 87/22;
0112036840999992000011604004+51880+000450FM-12+008799999V0203401N003619999999N0050001N1+00261+00201104041ADDMD1610041+9999REMSYN086    AAXX  16044 03684 46/50 /3407 10026 20020 40404 56004 555 7/097 82/06 84/18 82/33;
0100036840999992000011605004+51880+000450FM-12+008799999V0203401N003619999999N0080001N1+00261+00171104031ADDMD1710011+9999REMSYN074    AAXX  16054 03684 46/58 /3407 10026 20017 40403 57001 555 7/097 87/28;
0158036840999992000011606004+51880+000450FM-12+008799999V0203501N003119999999N0090001N1+00251+00151104021ADDAA112000191IA2999-00309KA1120N+00061MD1710011+9999REMSYN096    AAXX  16064 03684 16/59 /3506 10025 20015 40402 57001 69922 333 20006 3/103 555 7/098 88/29;
0100036840999992000011607004+51880+000450FM-12+008799999V0203301N003119999999N0120001N1+00241+00141103971ADDMD1710071+9999REMSYN074    AAXX  16074 03684 46/62 /3306 10024 20014 40397 57007 555 7/098 88/31;
0100036840999992000011608004+51880+000450FM-12+008799999V0203301N003119999999N0120001N1+00241+00121104051ADDMD1310021+9999REMSYN074    AAXX  16084 03684 46/62 /3306 10024 20012 40405 53002 555 7/098 88/29;
0112036840999992000011609004+51880+000450FM-12+008799999V0203201N003119999999N0130001N1+00241+00111104071ADDMD1310051+9999REMSYN086    AAXX  16094 03684 46/63 /3206 10024 20011 40407 53005 555 7/098 81/19 81/23 87/29;
0100036840999992000011610004+51880+000450FM-12+008799999V0203301N003119999999N0160001N1+00271+00091104101ADDMD1210131+9999REMSYN074    AAXX  16104 03684 46/66 /3306 10027 20009 40410 52013 555 7/098 88/29;
0100036840999992000011611004+51880+000450FM-12+008799999V0203201N004119999999N0160001N1+00281+00081104101ADDMD1110051+9999REMSYN074    AAXX  16114 03684 46/66 /3208 10028 20008 40410 51005 555 7/098 88/31;
0136036840999992000011612004+51880+000450FM-12+008799999V0203301N004619999999N0200001N1+00361+00101104041ADDAA199000091MD1810031+9999REMSYN080    AAXX  16124 03684 36/70 /3309 10036 20010 40404 58003 555 7/096 85/31 82/56;EQDQ01  00002PRCP99
0106036840999992000011613004+51880+000450FM-12+008799999V0203201N004619999999N0200001N1+00371+00121103991ADDMD1810111+9999REMSYN080    AAXX  16134 03684 46/70 /3209 10037 20012 40399 58011 555 7/094 81/33 83/50;
0100036840999992000011614004+51880+000450FM-12+008799999V0203401N004619999999N0230001N1+00391+00131103991ADDMD1610111+9999REMSYN074    AAXX  16144 03684 46/73 /3409 10039 20013 40399 56011 555 7/097 87/29;
0100036840999992000011615004+51880+000450FM-12+008799999V0203401N002619999999N0260001N1+00401+00141103991ADDMD1610051+9999REMSYN074    AAXX  16154 03684 46/76 /3405 10040 20014 40399 56005 555 7/098 88/27;
0100036840999992000011616004+51880+000450FM-12+008799999V0203301N003619999999N0230001N1+00381+00121103981ADDMD1710011+9999REMSYN074    AAXX  16164 03684 46/73 /3307 10038 20012 40398 57001 555 7/098 88/25;
0100036840999992000011617004+51880+000450FM-12+008799999V0203201N002119999999N0140001N1+00301+00111103991ADDMD1410001+9999REMSYN074    AAXX  16174 03684 46/64 /3204 10030 20011 40399 54000 555 7/097 87/25;
0153036840999992000011618004+51880+000450FM-12+008799999V0203201N002619999999N0150001N1+00251+00111104001ADDAA199000091KA1120M+00481MD1210011+9999REMSYN084    AAXX  16184 03684 36/65 /3205 10025 20011 40400 52001 333 10048 555 7/090 80/99;EQDQ01  00002PRCP99
0100036840999992000011619004+51880+000450FM-12+008799999V0203201N002119999999N0160001N1+00231+00081103981ADDMD1010001+9999REMSYN074    AAXX  16194 03684 46/66 /3204 10023 20008 40398 50000 555 7/090 80/99;
0100036840999992000011620004+51880+000450FM-12+008799999V0203101N003119999999N0150001N1+00201+00041103981ADDMD1710021+9999REMSYN074    AAXX  16204 03684 46/65 /3106 10020 20004 40398 57002 555 7/090 80/99;
0100036840999992000011621004+51880+000450FM-12+008799999V0202901N002619999999N0100001N1+00101-00021103961ADDMD1710051+9999REMSYN074    AAXX  16214 03684 46/60 /2905 10010 21002 40396 57005 555 7/090 80/99;
0100036840999992000011622004+51880+000450FM-12+008799999V0203001N002619999999N0100001N1+00081-00061103941ADDMD1810051+9999REMSYN074    AAXX  16224 03684 46/60 /3005 10008 21006 40394 58005 555 7/090 80/99;
0100036840999992000011623004+51880+000450FM-12+008799999V0202801N003119999999N0110001N1+00121-00041103931ADDMD1710051+9999REMSYN074    AAXX  16234 03684 46/61 /2806 10012 21004 40393 57005 555 7/090 80/99;
0130036840999992000011700004+51880+000450FM-12+008799999V0202801N003119999999N0070001N1+00061+00001103921ADDAA199000091MD1710041+9999REMSYN074    AAXX  17004 03684 36/57 /2806 10006 20000 40392 57004 555 7/090 80/99;EQDQ01  00002PRCP99
0100036840999992000011701004+51880+000450FM-12+008799999V0202901N003119999999N0060001N1+00071+00001103871ADDMD1710071+9999REMSYN074    AAXX  17014 03684 46/56 /2906 10007 20000 40387 57007 555 7/090 80/99;
0100036840999992000011702004+51880+000450FM-12+008799999V0202801N002619999999N0050001N1+00051+00021103841ADDMD1710091+9999REMSYN074    AAXX  17024 03684 46/50 /2805 10005 20002 40384 57009 555 7/090 80/99;
0100036840999992000011703004+51880+000450FM-12+008799999V0203001N003119999999N0050001N1+00071+00011103801ADDMD1710121+9999REMSYN074    AAXX  17034 03684 46/50 /3006 10007 20001 40380 57012 555 7/090 80/99;
0100036840999992000011704004+51880+000450FM-12+008799999V0202901N003119999999N0006001N1-00011-00031103801ADDMD1710071+9999REMSYN074    AAXX  17044 03684 46/06 /2906 11001 21003 40380 57007 555 7/094 84/00;
0100036840999992000011705004+51880+000450FM-12+008799999V0202701N004119999999N0003001N1+00021+00011103741ADDMD1710101+9999REMSYN074    AAXX  17054 03684 46/03 /2708 10002 20001 40374 57010 555 7/097 87/00;
0171036840999992000011706004+51880+000450FM-12+008799999V0202701N004619999999N0002001N1+00071+00061103741ADDAA199000091IA2999-00209KA1120N-00021MD1710061+9999REMSYN090    AAXX  17064 03684 36/02 /2709 10007 20006 40374 57006 333 21002 3/102 555 7/098 88/00;EQDQ01  00002PRCP99
0100036840999992000011707004+51880+000450FM-12+008799999V0202701N004619999999N0002001N1+00131+00131103731ADDMD1710071+9999REMSYN074    AAXX  17074 03684 46/02 /2709 10013 20013 40373 57007 555 7/098 88/00;
0100036840999992000011708004+51880+000450FM-12+008799999V0202801N005119999999N0002001N1+00171+00171103701ADDMD1710031+9999REMSYN074    AAXX  17084 03684 46/02 /2810 10017 20017 40370 57003 555 7/098 88/00;
0100036840999992000011709004+51880+000450FM-12+008799999V0202801N005119999999N0005001N1+00221+00221103701ADDMD1610031+9999REMSYN074    AAXX  17094 03684 46/05 /2810 10022 20022 40370 56003 555 7/098 88/00;
0100036840999992000011710004+51880+000450FM-12+008799999V0203001N006219999999N0036001N1+00311+00311103721ADDMD1410001+9999REMSYN074    AAXX  17104 03684 46/36 /3012 10031 20031 40372 54000 555 7/098 88/00;
0100036840999992000011711004+51880+000450FM-12+008799999V0203001N006219999999N0047001N1+00381+00331103741ADDMD1310041+9999REMSYN074    AAXX  17114 03684 46/47 /3012 10038 20033 40374 53004 555 7/098 88/02;
0117036840999992000011712004+51880+000450FM-12+008799999V0203001N004619999999N0070001N1+00521+00441103741ADDAA106000191MD1210051+9999REMSYN080    AAXX  17124 03684 16/57 /3009 10052 20044 40374 52005 69921 555 7/094 84/04;
0100036840999992000011713004+51880+000450FM-12+008799999V0203201N005119999999N0100001N1+00661+00451103651ADDMD1810051+9999REMSYN074    AAXX  17134 03684 46/60 /3210 10066 20045 40365 58005 555 7/090 80/99;
0100036840999992000011714004+51880+000450FM-12+008799999V0203201N004619999999N0160001N1+00751+00381103611ADDMD1810111+9999REMSYN074    AAXX  17144 03684 46/66 /3209 10075 20038 40361 58011 555 7/090 80/99;
0100036840999992000011715004+51880+000450FM-12+008799999V0203301N003619999999N0190001N1+00741+00331103581ADDMD1610151+9999REMSYN074    AAXX  17154 03684 46/69 /3307 10074 20033 40358 56015 555 7/090 80/99;
0100036840999992000011716004+51880+000450FM-12+008799999V0203301N002619999999N0200001N1+00651+00301103601ADDMD1710051+9999REMSYN074    AAXX  17164 03684 46/70 /3305 10065 20030 40360 57005 555 7/090 80/99;
0100036840999992000011717004+51880+000450FM-12+008799999V0203301N001519999999N0160001N1+00491+00251103611ADDMD1710011+9999REMSYN074    AAXX  17174 03684 46/66 /3303 10049 20025 40361 57001 555 7/090 80/99;
0140036840999992000011718004+51880+000450FM-12+008799999V0203301N002119999999N0140001N1+00431+00231103621ADDAA112000191KA1120M+00781MD1210031+9999REMSYN090    AAXX  17184 03684 16/64 /3304 10043 20023 40362 52003 69922 333 10078 555 7/090 80/99;
0100036840999992000011719004+51880+000450FM-12+008799999V0203001N002119999999N0090001N1+00291+00141103641ADDMD1110021+9999REMSYN074    AAXX  17194 03684 46/59 /3004 10029 20014 40364 51002 555 7/090 80/99;
0100036840999992000011720004+51880+000450FM-12+008799999V0202901N002619999999N0070001N1+00251+00141103651ADDMD1110031+9999REMSYN074    AAXX  17204 03684 46/57 /2905 10025 20014 40365 51003 555 7/090 80/99;
0100036840999992000011721004+51880+000450FM-12+008799999V0203001N002619999999N0048001N1+00241+00171103641ADDMD1210011+9999REMSYN074    AAXX  17214 03684 46/48 /3005 10024 20017 40364 52001 555 7/090 80/99;
0100036840999992000011722004+51880+000450FM-12+008799999V0203001N003119999999N0038001N1+00201+00171103621ADDMD1710021+9999REMSYN074    AAXX  17224 03684 46/38 /3006 10020 20017 40362 57002 555 7/093 83/22;
0100036840999992000011723004+51880+000450FM-12+008799999V0202901N003119999999N0037001N1+00171+00141103591ADDMD1810061+9999REMSYN074    AAXX  17234 03684 46/37 /2906 10017 20014 40359 58006 555 7/091 81/21;
0130036840999992000011800004+51880+000450FM-12+008799999V0202701N003619999999N0037001N1+00131+00101103531ADDAA199000091MD1810111+9999REMSYN074    AAXX  18004 03684 36/37 /2707 10013 20010 40353 58011 555 7/090 80/99;EQDQ01  00002PRCP99
0100036840999992000011801004+51880+000450FM-12+008799999V0202801N003619999999N0043001N1+00121+00091103511ADDMD1710111+9999REMSYN074    AAXX  18014 03684 46/43 /2807 10012 20009 40351 57011 555 7/090 80/99;
0100036840999992000011802004+51880+000450FM-12+008799999V0203101N003119999999N0060001N1+00181+00131103501ADDMD1610091+9999REMSYN074    AAXX  18024 03684 46/56 /3106 10018 20013 40350 56009 555 7/090 80/99;
0100036840999992000011803004+51880+000450FM-12+008799999V0202901N003619999999N0060001N1+00181+00101103441ADDMD1710091+9999REMSYN074    AAXX  18034 03684 46/56 /2907 10018 20010 40344 57009 555 7/093 83/21;
0100036840999992000011804004+51880+000450FM-12+008799999V0202901N005119999999N0070001N1+00241+00151103401ADDMD1710111+9999REMSYN074    AAXX  18044 03684 46/57 /2910 10024 20015 40340 57011 555 7/091 81/22;
0100036840999992000011805004+51880+000450FM-12+008799999V0203101N004619999999N0090001N1+00331+00161103371ADDMD1710121+9999REMSYN074    AAXX  18054 03684 46/59 /3109 10033 20016 40337 57012 555 7/095 85/19;
0171036840999992000011806004+51880+000450FM-12+008799999V0203101N005119999999N0100001N1+00431+00231103301ADDAA199000091IA2999-00309KA1120N+00101MD1710131+9999REMSYN090    AAXX  18064 03684 36/60 /3110 10043 20023 40330 57013 333 20010 3/103 555 7/098 88/18;EQDQ01  00002PRCP99
0100036840999992000011807004+51880+000450FM-12+008799999V0203301N004619999999N0090001N1+00471+00301103331ADDMD1710061+9999REMSYN074    AAXX  18074 03684 46/59 /3309 10047 20030 40333 57006 555 7/098 88/15;
0100036840999992000011808004+51880+000450FM-12+008799999V0203201N004619999999N0080001N1+00471+00311103361ADDMD1510011+9999REMSYN074    AAXX  18084 03684 46/58 /3209 10047 20031 40336 55001 555 7/098 88/13;
0100036840999992000011809004+51880+000450FM-12+008799999V0203301N005719999999N0130001N1+00571+00371103381ADDMD1210091+9999REMSYN074    AAXX  18094 03684 46/63 /3311 10057 20037 40338 52009 555 7/098 88/10;
0100036840999992000011810004+51880+000450FM-12+008799999V0203401N004619999999N0130001N1+00591+00421103431ADDMD1210111+9999REMSYN074    AAXX  18104 03684 46/63 /3409 10059 20042 40343 52011 555 7/098 88/10;
0100036840999992000011811004+51880+000450FM-12+008799999V0203501N007219999999N0220001N1+00641+00471103491ADDMD1210141+9999REMSYN074    AAXX  18114 03684 46/72 /3514 10064 20047 40349 52014 555 7/098 88/09;
0130036840999992000011812004+51880+000450FM-12+008799999V0203401N006719999999N0240001N1+00641+00481103441ADDAA199000091MD1010061+9999REMSYN074    AAXX  18124 03684 36/74 /3413 10064 20048 40344 50006 555 7/098 88/09;EQDQ01  00002PRCP99
0106036840999992000011813004+51880+000450FM-12+008799999V0203401N006719999999N0150001N1+00651+00531103421ADDMD1810011+9999REMSYN080    AAXX  18134 03684 46/65 /3413 10065 20053 40342 58001 555 7/098 87/07 84/13;
0127036840999992000011814004+51880+000450FM-12+008799999V0203601N007719999999N0450001N1+00721+00481103431ADDMD1610061+9999OA140101291REMSYN090    AAXX  18144 03684 46/83 /3615 10072 20048 40343 56006 333 90710 91125 555 7/097 87/12;
0100036840999992000011815004+51880+000450FM-12+008799999V0203601N006719999999N0500001N1+00701+00461103421ADDMD1710021+9999REMSYN074    AAXX  18154 03684 46/84 /3613 10070 20046 40342 57002 555 7/098 88/09;
0127036840999992000011816004+51880+000450FM-12+008799999V0203501N007219999999N0500001N1+00671+00411103431ADDMD1210011+9999OA140101291REMSYN090    AAXX  18164 03684 46/84 /3514 10067 20041 40343 52001 333 90710 91125 555 7/098 88/13;
0106036840999992000011817004+51880+000450FM-12+008799999V0203401N005719999999N0300001N1+00621+00441103421ADDMD1710011+9999REMSYN080    AAXX  18174 03684 46/80 /3411 10062 20044 40342 57001 555 7/097 87/11 82/18;
0159036840999992000011818004+51880+000450FM-12+008799999V0203501N006219999999N0300001N1+00541+00411103441ADDAA199000091KA1120M+00731MD1210011+9999REMSYN090    AAXX  18184 03684 36/80 /3512 10054 20041 40344 52001 333 10073 555 7/094 81/11 84/19;EQDQ01  00002PRCP99
0100036840999992000011819004+51880+000450FM-12+008799999V0203401N005119999999N0350001N1+00561+00371103441ADDMD1310011+9999REMSYN074    AAXX  18194 03684 46/81 /3410 10056 20037 40344 53001 555 7/096 86/18;
0100036840999992000011820004+51880+000450FM-12+008799999V0203401N005119999999N0350001N1+00591+00371103481ADDMD1310061+9999REMSYN074    AAXX  18204 03684 46/81 /3410 10059 20037 40348 53006 555 7/098 88/14;
0100036840999992000011821004+51880+000450FM-12+008799999V0203401N005119999999N0300001N1+00551+00381103541ADDMD1310101+9999REMSYN074    AAXX  18214 03684 46/80 /3410 10055 20038 40354 53010 555 7/097 87/11;
0100036840999992000011822004+51880+000450FM-12+008799999V0203401N004619999999N0300001N1+00531+00371103541ADDMD1110091+9999REMSYN074    AAXX  18224 03684 46/80 /3409 10053 20037 40354 51009 555 7/097 87/12;
0100036840999992000011823004+51880+000450FM-12+008799999V0203301N003619999999N0270001N1+00501+00351103551ADDMD1110061+9999REMSYN074    AAXX  18234 03684 46/77 /3307 10050 20035 40355 51006 555 7/097 87/22;
0142036840999992000011900004+51880+000450FM-12+008799999V0203301N003119999999N0120001N1+00511+00381103541ADDAA199000091MD1410001+9999REMSYN086    AAXX  19004 03684 36/62 /3306 10051 20038 40354 54000 555 7/098 82/07 81/17 87/22;EQDQ01  00002PRCP99
0106036840999992000011901004+51880+000450FM-12+008799999V0203301N003619999999N0190001N1+00491+00391103541ADDMD1410001+9999REMSYN080    AAXX  19014 03684 46/69 /3307 10049 20039 40354 54000 555 7/098 87/06 85/35;
0112036840999992000011902004+51880+000450FM-12+008799999V0203301N003119999999N0280001N1+00471+00351103531ADDMD1710021+9999REMSYN086    AAXX  19024 03684 46/78 /3306 10047 20035 40353 57002 555 7/098 81/08 86/21 86/37;
0106036840999992000011903004+51880+000450FM-12+008799999V0203301N003619999999N0300001N1+00481+00331103531ADDMD1710011+9999REMSYN080    AAXX  19034 03684 46/80 /3307 10048 20033 40353 57001 555 7/098 81/21 87/29;
0106036840999992000011904004+51880+000450FM-12+008799999V0203201N003619999999N0160001N1+00471+00391103531ADDMD1710011+9999REMSYN080    AAXX  19044 03684 46/66 /3207 10047 20039 40353 57001 555 7/098 81/30 87/42;
0106036840999992000011905004+51880+000450FM-12+008799999V0203301N003119999999N0130001N1+00461+00391103511ADDMD1710021+9999REMSYN080    AAXX  19054 03684 46/63 /3306 10046 20039 40351 57002 555 7/098 82/05 87/42;
0177036840999992000011906004+51880+000450FM-12+008799999V0203201N003119999999N0110001N1+00451+00381103521ADDAA199000091IA2999+00209KA1120N+00441MD1710011+9999REMSYN096    AAXX  19064 03684 36/61 /3206 10045 20038 40352 57001 333 20044 3/002 555 7/098 84/04 87/42;EQDQ01  00002PRCP99
0100036840999992000011907004+51880+000450FM-12+008799999V0203201N003119999999N0100001N1+00451+00381103551ADDMD1310021+9999REMSYN074    AAXX  19074 03684 46/60 /3206 10045 20038 40355 53002 555 7/098 88/04;
0106036840999992000011908004+51880+000450FM-12+008799999V0203201N004119999999N0060001N1+00441+00371103571ADDMD1210061+9999REMSYN080    AAXX  19084 03684 46/56 /3208 10044 20037 40357 52006 555 7/098 86/03 86/36;
0112036840999992000011909004+51880+000450FM-12+008799999V0203301N004119999999N0080001N1+00461+00391103571ADDMD1110051+9999REMSYN086    AAXX  19094 03684 46/58 /3308 10046 20039 40357 51005 555 7/098 84/05 82/23 86/34;
0100036840999992000011910004+51880+000450FM-12+008799999V0203401N004619999999N0100001N1+00511+00391103621ADDMD1210071+9999REMSYN074    AAXX  19104 03684 46/60 /3409 10051 20039 40362 52007 555 7/098 88/05;
0106036840999992000011911004+51880+000450FM-12+008799999V0203301N005119999999N0160001N1+00551+00381103641ADDMD1210071+9999REMSYN080    AAXX  19114 03684 46/66 /3310 10055 20038 40364 52007 555 7/097 81/06 86/25;
0123036840999992000011912004+51880+000450FM-12+008799999V0203401N004119999999N0160001N1+00541+00421103661ADDAA106000191MD1110091+9999REMSYN086    AAXX  19124 03684 16/66 /3408 10054 20042 40366 51009 69921 555 7/098 83/07 87/23;
0112036840999992000011913004+51880+000450FM-12+008799999V0203501N004119999999N0200001N1+00561+00391103661ADDMD1110041+9999REMSYN086    AAXX  19134 03684 46/70 /3508 10056 20039 40366 51004 555 7/098 81/09 86/11 85/41;
0112036840999992000011915004+51880+000450FM-12+008799999V0200201N004619999999N0270001N1+00511+00201103721ADDMD1210061+9999REMSYN086    AAXX  19154 03684 46/77 /0209 10051 20020 40372 52006 555 7/097 81/17 82/29 86/45;
0096036840999992000011916004+51880+000450FM-12+008799999V0200201N002619999999N0350001N1+00431+00121103751ADDMD1210091+9999REMSYN070AAXX  19164 03684 46/81 /0205 10043 20012 40375 52009 555 7/093 83/44;
0096036840999992000011917004+51880+000450FM-12+008799999V0203401N002619999999N0350001N1+00331+00111103791ADDMD1210091+9999REMSYN070AAXX  19174 03684 46/81 /3405 10033 20011 40379 52009 555 7/097 87/38;
0136036840999992000011918004+51880+000450FM-12+008799999V0203301N002619999999N0300001N1+00351+00121103821ADDAA112000591KA1120M+00581MD1210091+9999REMSYN086AAXX  19184 03684 16/80 /3305 10035 20012 40382 52009 69942 333 10058 555 7/098 88/35;
0102036840999992000011919004+51880+000450FM-12+008799999V0203401N002119999999N0300001N1+00231+00071103821ADDMD1210061+9999REMSYN076AAXX  19194 03684 46/80 /3404 10023 20007 40382 52006 555 7/093 81/25 82/31;
0096036840999992000011920004+51880+000450FM-12+008799999V0203401N002119999999N0210001N1+00221+00071103801ADDMD1010011+9999REMSYN070AAXX  19204 03684 46/71 /3404 10022 20007 40380 50001 555 7/091 81/29;
0096036840999992000011921004+51880+000450FM-12+008799999V0203401N002119999999N0150001N1+00161+00091103811ADDMD1510011+9999REMSYN070AAXX  19214 03684 46/65 /3404 10016 20009 40381 55001 555 7/090 80/99;
0096036840999992000011922004+51880+000450FM-12+008799999V0203101N002119999999N0110001N1+00091+00031103831ADDMD1010001+9999REMSYN070AAXX  19224 03684 46/61 /3104 10009 20003 40383 50000 555 7/090 80/99;
0096036840999992000011923004+51880+000450FM-12+008799999V0203201N002119999999N0140001N1+00081+00031103821ADDMD1210011+9999REMSYN070AAXX  19234 03684 46/64 /3204 10008 20003 40382 52001 555 7/090 80/99;
0126036840999992000012000004+51880+000450FM-12+008799999V0203201N002119999999N0140001N1+00071+00021103791ADDAA199000091MD1810031+9999REMSYN070AAXX  20004 03684 36/64 /3204 10007 20002 40379 58003 555 7/090 80/99;EQDQ01  00002PRCP99
0096036840999992000012001004+51880+000450FM-12+008799999V0203001N002619999999N0130001N1+00091+00001103761ADDMD1710071+9999REMSYN070AAXX  20014 03684 46/63 /3005 10009 20000 40376 57007 555 7/090 80/99;
0096036840999992000012002004+51880+000450FM-12+008799999V0203001N003119999999N0150001N1+00061-00011103721ADDMD1710101+9999REMSYN070AAXX  20024 03684 46/65 /3006 10006 21001 40372 57010 555 7/090 80/99;
0096036840999992000012003004+51880+000450FM-12+008799999V0202701N002619999999N0130001N1-00091-00121103701ADDMD1710091+9999REMSYN070AAXX  20034 03684 46/63 /2705 11009 21012 40370 57009 555 7/090 80/99;
0096036840999992000012004004+51880+000450FM-12+008799999V0202701N002619999999N0100001N1-00061-00081103641ADDMD1710121+9999REMSYN070AAXX  20044 03684 46/60 /2705 11006 21008 40364 57012 555 7/090 80/99;
0096036840999992000012005004+51880+000450FM-12+008799999V0202601N003119999999N0090001N1-00111-00131103571ADDMD1810151+9999REMSYN070AAXX  20054 03684 46/59 /2606 11011 21013 40357 58015 555 7/090 80/99;
0167036840999992000012006004+51880+000450FM-12+008799999V0202401N003119999999N0080001N1-00101-00121103511ADDAA199000091IA2999-00509KA1120N-00131MD1710191+9999REMSYN086AAXX  20064 03684 36/58 /2406 11010 21012 40351 57019 333 21013 3/105 555 7/090 80/99;EQDQ01  00002PRCP99
0096036840999992000012007004+51880+000450FM-12+008799999V0202401N003619999999N0080001N1-00111-00121103461ADDMD1710181+9999REMSYN070AAXX  20074 03684 46/58 /2407 11011 21012 40346 57018 555 7/091 81/29;
0096036840999992000012008004+51880+000450FM-12+008799999V0202501N003119999999N0090001N1+00001-00011103451ADDMD1610121+9999REMSYN070AAXX  20084 03684 46/59 /2506 10000 21001 40345 56012 555 7/097 87/28;
0096036840999992000012009004+51880+000450FM-12+008799999V0202501N003119999999N0120001N1+00071+99999103411ADDMD1710091+9999REMSYN070AAXX  20094 03684 46/62 /2506 10007 2//// 40341 57009 555 7/098 88/25;
0096036840999992000012010004+51880+000450FM-12+008799999V0202401N003119999999N0100001N1+00091+00021103381ADDMD1710071+9999REMSYN070AAXX  20104 03684 46/60 /2406 10009 20002 40338 57007 555 7/098 88/26;
0096036840999992000012011004+51880+000450FM-12+008799999V0202501N002119999999N0080001N1+00131+00051103371ADDMD1710071+9999REMSYN070AAXX  20114 03684 46/58 /2504 10013 20005 40337 57007 555 7/098 88/25;
0113036840999992000012012004+51880+000450FM-12+008799999V0202601N004119999999N0100001N1+00221+00051103301ADDAA106000191MD1810111+9999REMSYN076AAXX  20124 03684 16/60 /2608 10022 20005 40330 58011 69921 555 7/098 88/25;
0102036840999992000012013004+51880+000450FM-12+008799999V0202801N004619999999N0100001N1+00331+00101103231ADDMD1810141+9999REMSYN076AAXX  20134 03684 46/60 /2809 10033 20010 40323 58014 555 7/098 85/25 87/32;
0096036840999992000012014004+51880+000450FM-12+008799999V0202801N004119999999N0090001N1+00361+00111103211ADDMD1710151+9999REMSYN070AAXX  20144 03684 46/59 /2808 10036 20011 40321 57015 555 7/098 88/32;
0108036840999992000012015004+51880+000450FM-12+008799999V0202701N004619999999N0080001N1+00381+00161103151ADDMD1710141+9999REMSYN082AAXX  20154 03684 46/58 /2709 10038 20016 40315 57014 555 7/097 81/26 82/32 86/39;
0108036840999992000012016004+51880+000450FM-12+008799999V0202701N004119999999N0070001N1+00361+00191103181ADDMD1610051+9999REMSYN082AAXX  20164 03684 46/57 /2708 10036 20019 40318 56005 555 7/097 81/25 86/32 82/37;
0096036840999992000012017004+51880+000450FM-12+008799999V0202901N004119999999N0080001N1+00361+00191103181ADDMD1610031+9999REMSYN070AAXX  20174 03684 46/58 /2908 10036 20019 40318 56003 555 7/097 87/34;
0136036840999992000012018004+51880+000450FM-12+008799999V0202901N003619999999N0080001N1+00361+00181103211ADDAA112000191KA1120M+00391MD1110061+9999REMSYN086AAXX  20184 03684 16/58 /2907 10036 20018 40321 51006 69922 333 10039 555 7/097 87/35;
0096036840999992000012019004+51880+000450FM-12+008799999V0203001N003619999999N0080001N1+00361+00181103241ADDMD1210061+9999REMSYN070AAXX  20194 03684 46/58 /3007 10036 20018 40324 52006 555 7/098 88/37;
0102036840999992000012020004+51880+000450FM-12+008799999V0203101N003619999999N0080001N1+00361+00191103241ADDMD1110061+9999REMSYN076AAXX  20204 03684 46/58 /3107 10036 20019 40324 51006 555 7/098 87/34 83/42;
0102036840999992000012021004+51880+000450FM-12+008799999V0203101N003119999999N0080001N1+00351+00201103301ADDMD1210091+9999REMSYN076AAXX  20214 03684 46/58 /3106 10035 20020 40330 52009 555 7/098 81/24 87/28;
0096036840999992000012022004+51880+000450FM-12+008799999V0203001N003119999999N0070001N1+00341+00211103261ADDMD1010021+9999REMSYN070AAXX  20224 03684 46/57 /3006 10034 20021 40326 50002 555 7/097 87/27;
