0147042010999992000010100004+77470-069220FM-12+001999999V0202901N001519999999N0450001N1-00821-01321096391ADDMA1999999096161MD1710111+9999REMSYN106AAXX  01004 04201 4//83 /2903 11082 21132 39616 49639 57011 72470 555 60/// 71477 72500 73500 74021 75500;
0162042010999992000010103004+77470-069220FM-12+001999999V0200901N011819999999N0070001N1-00111-00971096251ADDMA1999999096021MD1710141+9999OA149901541REMSYN110AAXX  01034 04201 45/57 /0923 11011 21097 39602 49625 57014 333 91130 555 60/// 71079 72415 73199 74068 75500;
0219042010999992000010106004+77470-069220FM-12+001999999V0200901N012919999999N0500001N1-00131-01161096271ADDKA1120M+99999KA2120N-00651MA1999999096041MD1210021+9999OA149901541REMSYN122AAXX  01064 04201 45/84 /0925 11013 21116 39604 49627 52002 333 11065 21065 91130 555 60/// 71500 72500 73500 74041 75500;EQDQ01 -00652ATMX  
0168042010999992000010109004+77470-069220FM-12+001999999V0200901N009319999999N0500001N1-00151-01281096401ADDMA1999999096171MD1210131+9999OA149902011REMSYN116AAXX  01094 04201 45/84 /0918 11015 21128 39617 49640 52013 333 91139 91230 555 60/// 71500 72500 73500 74473 75500;
0162042010999992000010112004+77470-069220FM-12+001999999V0200901N011819999999N0450001N1-00331-01391096501ADDMA1999999096271MD1210101+9999OA149902011REMSYN110AAXX  01124 04201 45/83 /0923 11033 21139 39627 49650 52010 333 91139 555 60/// 71470 72500 73500 74289 75500;
0141042010999992000010115004+77470-069220FM-12+001999999V0200801N009319999999N0500001N1-00391-01341096801ADDMA1999999096571MD1210301+9999REMSYN100AAXX  01154 04201 45/84 /0818 11039 21134 39657 49680 52030 555 60/// 71500 72500 73500 74486 75500;
0208042010999992000010118004+77470-069220FM-12+001999999V0201101N006719999999N0500001N1-00631-01341097051ADDKA1120M-00131KA2120N+99999MA1999999096821MD1210251+9999REMSYN122AAXX  01184 04201 45/84 /1113 11063 21134 39682 49705 52025 333 11013 21013 91225 555 60/// 71500 72500 73500 74850 75500;EQDQ01 -00132ATMN  
0141042010999992000010121004+77470-069220FM-12+001999999V0201001N007219999999N0500001N1-00771-01441097461ADDMA1999999097221MD1210401+9999REMSYN100AAXX  01214 04201 45/84 /1014 11077 21144 39722 49746 52040 555 60/// 71500 72500 73500 74500 75500;
0141042010999992000010200004+77470-069220FM-12+001999999V0202101N006719999999N0350001N1-00801-01321097921ADDMA1999999097681MD1210461+9999REMSYN100AAXX  02004 04201 45/81 /2113 11080 21132 39768 49792 52046 555 60/// 71359 72500 73444 74359 75500;
0157042010999992000010203004+77470-069220FM-12+001999999V0202501N002619999999N0220001N1-00951-01461098401ADDMA1999999098161MD1210481+9999REMSYN116AAXX  02034 04201 4//72 /2505 11095 21146 39816 49840 52048 78570 333 91216 555 60/// 71228 72500 73303 74178 75500;
0232042010999992000010206004+77470-069220FM-12+001999999V0201801N002119999999N0018001N1-01081-01431098831ADDKA1120M-00631KA2120N+99999MA1999999098591MD1210431+9999REMSYN146AAXX  02064 04201 4//18 /1804 11108 21143 39859 49883 52043 77170 333 11063 21063 91216 555 61991 62990 63992 64990 71018 72103 73032 74013 75500;EQDQ01 -00632ATMN  
0147042010999992000010209004+77470-069220FM-12+001999999V0201901N005719999999N0300001N1-01221-01671099251ADDMA1999999099001MD1210411+9999REMSYN106AAXX  02094 04201 4//80 /1911 11122 21167 39900 49925 52041 70077 555 63991 71348 72500 73489 74022 75500;
0147042010999992000010212004+77470-069220FM-12+001999999V0203001N001519999999N0400001N1-01331-01841099511ADDMA1999999099261MD1210261+9999REMSYN106AAXX  02124 04201 4//82 /3003 11133 21184 39926 49951 52026 70077 555 63991 71418 72500 73482 74022 75500;
0141042010999992000010215004+77470-069220FM-12+001999999V0203601N001519999999N0400001N1-01431-01961099701ADDMA1999999099451MD1210191+9999REMSYN100AAXX  02154 04201 45/82 /3603 11143 21196 39945 49970 52019 555 60/// 71443 72500 73500 74367 75500;
0202042010999992000010218004+77470-069220FM-12+001999999V0200501N001519999999N0450001N1-01531-02101099751ADDKA1120M-01081KA2120N+99999MA1999999099501MD1210051+9999REMSYN116AAXX  02184 04201 45/83 /0503 11153 21210 39950 49975 52005 333 11108 21108 555 60/// 71472 72500 73500 74286 75500;EQDQ01 -01082ATMN  
0141042010999992000010221004+77470-069220FM-12+001999999V0200701N003119999999N0500001N1-01641-02131099891ADDMA1999999099641MD1210141+9999REMSYN100AAXX  02214 04201 45/84 /0706 11164 21213 39964 49989 52014 555 60/// 71500 72500 73500 74434 75500;
0141042010999992000010303004+77470-069220FM-12+001999999V0203501N001519999999N0500001N1-01761-02261099851ADDMA1999999099601MD1710071+9999REMSYN100AAXX  03034 04201 45/84 /3503 11176 21226 39960 49985 57007 555 60/// 71500 72500 73500 74435 75500;
0202042010999992000010306004+77470-069220FM-12+001999999V0200401N000519999999N0500001N1-01891-02321099761ADDKA1120M-01531KA2120N+99999MA1999999099511MD1710091+9999REMSYN116AAXX  03064 04201 45/84 /0401 11189 21232 39951 49976 57009 333 11153 21153 555 60/// 71500 72500 73500 74435 75500;EQDQ01 -01532ATMN  
0141042010999992000010309004+77470-069220FM-12+001999999V0203201N000519999999N0450001N1-01901-02351099671ADDMA1999999099421MD1710091+9999REMSYN100AAXX  03094 04201 45/83 /3201 11190 21235 39942 49967 57009 555 60/// 71491 72500 73500 74458 75500;
0141042010999992000010312004+77470-069220FM-12+001999999V0203101N000519999999N0450001N1-01901-02341099521ADDMA1999999099271MD1710151+9999REMSYN100AAXX  03124 04201 45/83 /3101 11190 21234 39927 49952 57015 555 60/// 71472 72500 73500 74458 75500;
0162042010999992000010315004+77470-069220FM-12+001999999V0201001N007219999999N0450001N1-01841-02391099401ADDMA1999999099151MD1710121+9999OA149900721REMSYN110AAXX  03154 04201 45/83 /1014 11184 21239 39915 49940 57012 333 91114 555 60/// 71491 72500 73500 74430 75500;
0235042010999992000010318004+77470-069220FM-12+001999999V0201001N010319999999N0110001N1-01771-02371099461ADDKA1120M+99999KA2120N-01891MA1999999099211MD1210061+9999OA149999999REMSYN122AAXX  03184 04201 45/61 /1020 11177 21237 39921 49946 52006 333 11189 21189 91114 555 60/// 71115 72500 73334 74115 75500;EQDQ01  00722WGOSPDQ02 -01892ATMX  
0162042010999992000010321004+77470-069220FM-12+001999999V0200901N008719999999N0500001N1-01541-02201099701ADDMA1999999099451MD1210241+9999OA149901441REMSYN110AAXX  03214 04201 45/84 /0917 11154 21220 39945 49970 52024 333 91128 555 60/// 71500 72500 73500 74047 75500;
0162042010999992000010400004+77470-069220FM-12+001999999V0200801N007719999999N0500001N1-01521-02241099931ADDMA1999999099681MD1210231+9999OA149901441REMSYN110AAXX  04004 04201 45/84 /0815 11152 21224 39968 49993 52023 333 91128 555 60/// 71500 72500 73500 74047 75500;
0141042010999992000010403004+77470-069220FM-12+001999999V0200901N006719999999N0500001N1-01541-02201100031ADDMA1999999099781MD1210101+9999REMSYN100AAXX  04034 04201 45/84 /0913 11154 21220 39978 40003 52010 555 60/// 71500 72500 73500 74497 75500;
0202042010999992000010406004+77470-069220FM-12+001999999V0200901N006219999999N0500001N1-01601-02261100101ADDKA1120M+99999KA2120N-01771MA1999999099851MD1210071+9999REMSYN116AAXX  04064 04201 45/84 /0912 11160 21226 39985 40010 52007 333 11177 21177 555 60/// 71500 72500 73500 74424 75500;EQDQ01 -01772ATMX  
0151042010999992000010409004+77470-069220FM-12+001999999V0200901N001519999999N0500001N1-01771-02371100161ADDMA1999999099911MD1210061+9999REMSYN110AAXX  04094 04201 45/84 /0903 11177 21237 39991 40016 52006 333 91215 555 60/// 71500 72500 73500 74492 75500;
0141042010999992000010412004+77470-069220FM-12+001999999V0200501N002619999999N0500001N1-01801-02411100221ADDMA1999999099971MD1210061+9999REMSYN100AAXX  04124 04201 45/84 /0505 11180 21241 39997 40022 52006 555 60/// 71500 72500 73500 74492 75500;
0141042010999992000010415004+77470-069220FM-12+001999999V0203601N001519999999N0500001N1-01831-02451100281ADDMA1999999100031MD1210061+9999REMSYN100AAXX  04154 04201 45/84 /3603 11183 21245 30003 40028 52006 555 60/// 71500 72500 73500 74478 75500;
0202042010999992000010418004+77470-069220FM-12+001999999V0200201N000519999999N0500001N1-01941-02531100341ADDKA1120M-01601KA2120N+99999MA1999999100091MD1210061+9999REMSYN116AAXX  04184 04201 45/84 /0201 11194 21253 30009 40034 52006 333 11160 21160 555 60/// 71500 72500 73500 74478 75500;EQDQ01 -01602ATMN  
0141042010999992000010421004+77470-069220FM-12+001999999V0201101N002619999999N0500001N1-02031-02581100361ADDMA1999999100101MD1210011+9999REMSYN100AAXX  04214 04201 45/84 /1105 11203 21258 30010 40036 52001 555 60/// 71500 72500 73500 74442 75500;
0141042010999992000010500004+77470-069220FM-12+001999999V0202901N001019999999N0500001N1-02221-02691100341ADDMA1999999100081MD1710021+9999REMSYN100AAXX  05004 04201 45/84 /2902 11222 21269 30008 40034 57002 555 60/// 71500 72500 73500 74442 75500;
0141042010999992000010503004+77470-069220FM-12+001999999V0201001N000519999999N0500001N1-02221-02651100221ADDMA1999999099961MD1710121+9999REMSYN100AAXX  05034 04201 45/84 /1001 11222 21265 39996 40022 57012 555 60/// 71500 72500 73500 74079 75500;
0202042010999992000010506004+77470-069220FM-12+001999999V0201701N000519999999N0500001N1-02241-02641100141ADDKA1120M-01941KA2120N+99999MA1999999099881MD1710081+9999REMSYN116AAXX  05064 04201 45/84 /1701 11224 21264 39988 40014 57008 333 11194 21194 555 60/// 71500 72500 73500 74079 75500;EQDQ01 -01942ATMN  
0141042010999992000010509004+77470-069220FM-12+001999999V0201101N000519999999N0500001N1-02301-02691100131ADDMA1999999099871MD1710011+9999REMSYN100AAXX  05094 04201 45/84 /1101 11230 21269 39987 40013 57001 555 60/// 71500 72500 73500 74500 75500;
0141042010999992000010512004+77470-069220FM-12+001999999V0202501N000519999999N0450001N1-02331-02741100121ADDMA1999999099861MD1710011+9999REMSYN100AAXX  05124 04201 45/83 /2501 11233 21274 39986 40012 57001 555 60/// 71494 72500 73500 74494 75500;
0141042010999992000010515004+77470-069220FM-12+001999999V0202501N000519999999N0500001N1-02331-02731100121ADDMA1999999099861MD1410001+9999REMSYN100AAXX  05154 04201 45/84 /2501 11233 21273 39986 40012 54000 555 60/// 71500 72500 73500 74492 75500;
0141042010999992000010521004+77470-069220FM-12+001999999V0202301N001019999999N0500001N1-02351-02751099931ADDMA1999999099671MD1710141+9999REMSYN100AAXX  05214 04201 45/84 /2302 11235 21275 39967 49993 57014 555 60/// 71500 72500 73500 74466 75500;
0141042010999992000010603004+77470-069220FM-12+001999999V0200901N003619999999N0500001N1-02121-02661099471ADDMA1999999099221MD1710251+9999REMSYN100AAXX  06034 04201 45/84 /0907 11212 21266 39922 49947 57025 555 60/// 71500 72500 73500 74500 75500;
0202042010999992000010606004+77470-069220FM-12+001999999V0203101N002119999999N0500001N1-02031-02501099191ADDKA1120M+99999KA2120N-02181MA1999999098941MD1710281+9999REMSYN116AAXX  06064 04201 45/84 /3104 11203 21250 39894 49919 57028 333 11218 21218 555 60/// 71500 72500 73500 74486 75500;EQDQ01 -02182ATMX  
0141042010999992000010609004+77470-069220FM-12+001999999V0203101N001019999999N0500001N1-02151-02661099061ADDMA1999999098811MD1710131+9999REMSYN100AAXX  06094 04201 45/84 /3102 11215 21266 39881 49906 57013 555 60/// 71500 72500 73500 74464 75500;
0141042010999992000010612004+77470-069220FM-12+001999999V0201101N003119999999N0500001N1-01961-02551098961ADDMA1999999098711MD1710101+9999REMSYN100AAXX  06124 04201 45/84 /1106 11196 21255 39871 49896 57010 555 60/// 71500 72500 73500 74464 75500;
0141042010999992000010615004+77470-069220FM-12+001999999V0201701N001019999999N0230001N1-02141-02651098841ADDMA1999999098591MD1710121+9999REMSYN100AAXX  06154 04201 45/73 /1702 11214 21265 39859 49884 57012 555 60/// 71238 72500 73359 74070 75500;
0141042010999992000010621004+77470-069220FM-12+001999999V0201401N001019999999N0500001N1-02291-02721098741ADDMA1999999098491MD1410001+9999REMSYN100AAXX  06214 04201 45/84 /1402 11229 21272 39849 49874 54000 555 60/// 71500 72500 73500 74477 75500;
0141042010999992000010700004+77470-069220FM-12+001999999V0203201N001019999999N0110001N1-02211-02701098731ADDMA1999999098481MD1710011+9999REMSYN100AAXX  07004 04201 45/61 /3202 11221 21270 39848 49873 57001 555 60/// 71110 72500 73500 74110 75500;
0141042010999992000010703004+77470-069220FM-12+001999999V0200701N000519999999N0500001N1-02121-02611098761ADDMA1999999098511MD1210031+9999REMSYN100AAXX  07034 04201 45/84 /0701 11212 21261 39851 49876 52003 555 60/// 71500 72500 73500 74057 75500;
0202042010999992000010706004+77470-069220FM-12+001999999V0202701N000519999999N0500001N1-02311-02771098761ADDKA1120M-02051KA2120N+99999MA1999999098511MD1410001+9999REMSYN116AAXX  07064 04201 45/84 /2701 11231 21277 39851 49876 54000 333 11205 21205 555 60/// 71500 72500 73500 74057 75500;EQDQ01 -02052ATMN  
0141042010999992000010709004+77470-069220FM-12+001999999V0202301N000519999999N0500001N1-02371-02821098951ADDMA1999999098691MD1210181+9999REMSYN100AAXX  07094 04201 45/84 /2301 11237 21282 39869 49895 52018 555 60/// 71500 72500 73500 74491 75500;
0141042010999992000010712004+77470-069220FM-12+001999999V0203001N000519999999N0450001N1-02271-02721099091ADDMA1999999098831MD1210141+9999REMSYN100AAXX  07124 04201 45/83 /3001 11227 21272 39883 49909 52014 555 60/// 71450 72500 73500 74363 75500;
0141042010999992000010715004+77470-069220FM-12+001999999V0202101N000519999999N0450001N1-02381-02801099311ADDMA1999999099051MD1210221+9999REMSYN100AAXX  07154 04201 45/83 /2101 11238 21280 39905 49931 52022 555 60/// 71489 72500 73500 74118 75500;
0183042010999992000010718004+77470-069220FM-12+001999999V0202401N001019999999N0500001N1-02351-02771099531ADDKA1120M-02311KA2120N-02311MA1999999099271MD1210221+9999REMSYN116AAXX  07184 04201 45/84 /2402 11235 21277 39927 49953 52022 333 11231 21231 555 60/// 71500 72500 73500 74118 75500;
0147042010999992000010721004+77470-069220FM-12+001999999V0203101N000519999999N0500001N1-02201-02661099721ADDMA1999999099461MD1210191+9999REMSYN106AAXX  07214 04201 45/84 /3101 11220 21266 39946 49972 52019 555 63996 64006 71500 72500 73500 74457 75500;
0141042010999992000010800004+77470-069220FM-12+001999999V0209999C000019999999N0500001N1-02011-02511099921ADDMA1999999099671MD1210211+9999REMSYN100AAXX  08004 04201 45/84 /0000 11201 21251 39967 49992 52021 555 63996 71500 72500 73500 74457 75500;
0147042010999992000010803004+77470-069220FM-12+001999999V0203001N002119999999N0500001N1-02071-02481099931ADDMA1999999099671MD1410001+9999REMSYN106AAXX  08034 04201 4//84 /3004 11207 21248 39967 49993 54000 70070 555 60/// 71500 72500 73500 74037 75500;
0169042010999992000010806004+77470-069220FM-12+001999999V0200701N000519999999N0160001N1-01961-02331099961ADDKA1120M-01931KA2120N-02171MA1999999099711REMSYN116AAXX  08064 04201 4//66 /0701 11196 21233 39971 49996 77770 333 11193 21217 555 63990 71162 72307 73230 74119 75500;
0165042010999992000010809004+77470-069220FM-12+001999999V0209999C000019999999N0029001N1-01851-02141099991ADDMA1999999099741MD1210031+9999REMSYN124AAXX  08094 04201 4//29 /0000 11185 21214 39974 49999 52003 77177 555 61991 62990 63991 64990 71029 72067 73049 74029 75500;
0171042010999992000010812004+77470-069220FM-12+001999999V0201001N007219999999N0045001N1-01801-02271100011ADDMA1999999099761MD1210021+9999REMSYN130AAXX  08124 04201 4//45 /1014 11180 21227 39976 40001 52002 71177 555 61990 62990 63991 64990 65001 71045 72096 73061 74029 75500;
0153042010999992000010815004+77470-069220FM-12+001999999V0201201N007719999999N0043001N1-01831-02281100021ADDMA1999999099771MD1210011+9999REMSYN112AAXX  08154 04201 4//43 /1215 11183 21228 39977 40002 52001 71177 555 63990 64990 71043 72095 73063 74038 75451;
0151042010999992000010909004+77470-069220FM-12+001999999V0202901N000519999999N0500001N1-02181-02581100451ADDMA1999999100191MD1710191+9999REMSYN110AAXX  09094 04201 45/84 /2901 11218 21258 30019 40045 57019 333 91214 555 60/// 71500 72500 73500 74500 75500;
0151042010999992000010912004+77470-069220FM-12+001999999V0203301N001519999999N0450001N1-02161-02661100081ADDMA1999999099821MD1710371+9999REMSYN110AAXX  09124 04201 45/83 /3303 11216 21266 39982 40008 57037 333 91214 555 60/// 71455 72500 73500 74302 75500;
0141042010999992000010915004+77470-069220FM-12+001999999V0201201N009819999999N0450001N1-02111-02621100021ADDMA1999999099761MD1710061+9999REMSYN100AAXX  09154 04201 45/83 /1219 11211 21262 39976 40002 57006 555 60/// 71464 72500 73500 74464 75500;
0183042010999992000010918004+77470-069220FM-12+001999999V0200801N009319999999N0500001N1-02041-02621100131ADDKA1120M-01961KA2120N-02351MA1999999099871MD1210111+9999REMSYN116AAXX  09184 04201 45/84 /0818 11204 21262 39987 40013 52011 333 11196 21235 555 60/// 71500 72500 73500 74464 75500;
0157042010999992000010921004+77470-069220FM-12+001999999V0200301N002119999999N0500001N1-02161-02721100071ADDMA1999999099811MD1710061+9999REMSYN116AAXX  09214 04201 45/84 /0304 11216 21272 39981 40007 57006 333 91218 555 63997 64007 71500 72500 73500 74485 75500;
0151042010999992000011000004+77470-069220FM-12+001999999V0202901N002119999999N0450001N1-02351-02781099821ADDMA1999999099561MD1710251+9999REMSYN110AAXX  10004 04201 45/83 /2904 11235 21278 39956 49982 57025 333 91218 555 63997 71484 72500 73500 74465 75500;
0141042010999992000011003004+77470-069220FM-12+001999999V0200501N001019999999N0500001N1-02251-02721099731ADDMA1999999099471MD1710091+9999REMSYN100AAXX  10034 04201 45/84 /0502 11225 21272 39947 49973 57009 555 60/// 71500 72500 73500 74500 75500;
0189042010999992000011006004+77470-069220FM-12+001999999V0200901N008219999999N0230001N1-02061-02551100071ADDKA1120M-02021KA2120N-02431MA1999999099811MD1210341+9999REMSYN122AAXX  10064 04201 4//73 /0916 11206 21255 39981 40007 52034 71170 333 11202 21243 555 60/// 71232 72500 73500 74038 75500;
0141042010999992000011009004+77470-069220FM-12+001999999V0201001N007219999999N0500001N1-02121-02671100501ADDMA1999999100241MD1210431+9999REMSYN100AAXX  10094 04201 45/84 /1014 11212 21267 30024 40050 52043 555 60/// 71500 72500 73500 74386 75500;
0141042010999992000011012004+77470-069220FM-12+001999999V0201001N007219999999N0450001N1-02091-02651100811ADDMA1999999100551MD1210311+9999REMSYN100AAXX  10124 04201 45/83 /1014 11209 21265 30055 40081 52031 555 60/// 71484 72500 73500 74107 75500;
0141042010999992000011015004+77470-069220FM-12+001999999V0200801N007719999999N0500001N1-02101-02661101051ADDMA1999999100791MD1210241+9999REMSYN100AAXX  10154 04201 45/84 /0815 11210 21266 30079 40105 52024 555 60/// 71500 72500 73500 74474 75500;
0183042010999992000011018004+77470-069220FM-12+001999999V0200901N007719999999N0500001N1-02151-02751101261ADDKA1120M-01981KA2120N-02401MA1999999101001MD1210211+9999REMSYN116AAXX  10184 04201 45/84 /0915 11215 21275 30100 40126 52021 333 11198 21240 555 60/// 71500 72500 73500 74474 75500;
0141042010999992000011021004+77470-069220FM-12+001999999V0200901N005719999999N0500001N1-02281-02861101401ADDMA1999999101141MD1210141+9999REMSYN100AAXX  10214 04201 45/84 /0911 11228 21286 30114 40140 52014 555 60/// 71500 72500 73500 74403 75500;
0151042010999992000011100004+77470-069220FM-12+001999999V0203401N001519999999N0500001N1-02411-02951101431ADDMA1999999101171MD1210031+9999REMSYN110AAXX  11004 04201 45/84 /3403 11241 21295 30117 40143 52003 333 91215 555 60/// 71500 72500 73500 74403 75500;
0141042010999992000011103004+77470-069220FM-12+001999999V0203601N001019999999N0500001N1-02451-02991101371ADDMA1999999101111MD1710061+9999REMSYN100AAXX  11034 04201 45/84 /3602 11245 21299 30111 40137 57006 555 60/// 71500 72500 73500 74487 75500;
0183042010999992000011106004+77470-069220FM-12+001999999V0200401N000519999999N0500001N1-02471-02951101301ADDKA1120M-02121KA2120N-02811MA1999999101041MD1710071+9999REMSYN116AAXX  11064 04201 45/84 /0401 11247 21295 30104 40130 57007 333 11212 21281 555 60/// 71500 72500 73500 74487 75500;
0141042010999992000011109004+77470-069220FM-12+001999999V0201001N006219999999N0500001N1-02351-02891101311ADDMA1999999101051MD1210011+9999REMSYN100AAXX  11094 04201 45/84 /1012 11235 21289 30105 40131 52001 555 60/// 71500 72500 73500 74500 75500;
0141042010999992000011112004+77470-069220FM-12+001999999V0200901N009319999999N0500001N1-02231-02861101401ADDMA1999999101141MD1210091+9999REMSYN100AAXX  11124 04201 45/84 /0918 11223 21286 30114 40140 52009 555 60/// 71500 72500 73500 74500 75500;
0162042010999992000011115004+77470-069220FM-12+001999999V0201001N009819999999N0500001N1-02331-02961101551ADDMA1999999101291MD1210151+9999OA149901341REMSYN110AAXX  11154 04201 45/84 /1019 11233 21296 30129 40155 52015 333 91126 555 60/// 71500 72500 73500 74500 75500;
0200042010999992000011118004+77470-069220FM-12+001999999V0200901N006219999999N0500001N1-02201-02871101681ADDKA1120M-01981KA2120N-02561MA1999999101421MD1210131+9999OA149901341REMSYN122AAXX  11184 04201 45/84 /0912 11220 21287 30142 40168 52013 333 11198 21256 91126 555 60/// 71500 72500 73500 74500 75500;
0162042010999992000011121004+77470-069220FM-12+001999999V0203201N001519999999N0500001N1-02361-02961101751ADDMA1999999101491MD1210071+9999OA149900821REMSYN110AAXX  11214 04201 45/84 /3203 11236 21296 30149 40175 52007 333 91116 555 60/// 71500 72500 73500 74455 75500;
0162042010999992000011200004+77470-069220FM-12+001999999V0200901N006219999999N0500001N1-02171-02831101641ADDMA1999999101381MD1710111+9999OA149900821REMSYN110AAXX  12004 04201 45/84 /0912 11217 21283 30138 40164 57011 333 91116 555 60/// 71500 72500 73500 74455 75500;
0162042010999992000011203004+77470-069220FM-12+001999999V0203401N001019999999N0500001N1-02401-02991101481ADDMA1999999101221MD1710161+9999OA149901031REMSYN110AAXX  12034 04201 45/84 /3402 11240 21299 30122 40148 57016 333 91120 555 60/// 71500 72500 73500 74900 75500;
0200042010999992000011206004+77470-069220FM-12+001999999V0200701N006719999999N0500001N1-02181-02811101201ADDKA1120M-02061KA2120N-02561MA1999999100941MD1710281+9999OA149901031REMSYN122AAXX  12064 04201 45/84 /0713 11218 21281 30094 40120 57028 333 11206 21256 91120 555 60/// 71500 72500 73500 74900 75500;
0141042010999992000011209004+77470-069220FM-12+001999999V0200501N003119999999N0500001N1-02111-02761100771ADDMA1999999100511MD1710431+9999REMSYN100AAXX  12094 04201 45/84 /0506 11211 21276 30051 40077 57043 555 60/// 71500 72500 73500 74500 75500;
0151042010999992000011212004+77470-069220FM-12+001999999V0202601N000519999999N0450001N1-02351-02901100221ADDMA1999999099961MD1710551+9999REMSYN110AAXX  12124 04201 45/83 /2601 11235 21290 39996 40022 57055 333 91213 555 60/// 71494 72500 73500 74494 75500;
0141042010999992000011215004+77470-069220FM-12+001999999V0201001N005719999999N0500001N1-02301-02801099651ADDMA1999999099391MD1710571+9999REMSYN100AAXX  12154 04201 45/84 /1011 11230 21280 39939 49965 57057 555 60/// 71500 72500 73500 74462 75500;
0189042010999992000011218004+77470-069220FM-12+001999999V0201301N002119999999N0270001N1-02171-02571098961ADDKA1120M-02051KA2120N-02541MA1999999098711MD1710681+9999REMSYN122AAXX  12184 04201 4//77 /1304 11217 21257 39871 49896 57068 78570 333 11205 21254 555 63990 71274 72500 73500 74037 75500;
0168042010999992000011221004+77470-069220FM-12+001999999V0201601N004119999999N0500001N1-02011-02391098741ADDMA1999999098491MD1710221+9999OA149901241REMSYN116AAXX  12214 04201 4//84 /1608 11201 21239 39849 49874 57022 70077 333 91124 555 63990 71500 72500 73500 74099 75500;
0174042010999992000011300004+77470-069220FM-12+001999999V0203101N001019999999N0500001N1-01881-02241098781ADDMA1999999098531MD1210041+9999OA149901241REMSYN122AAXX  13004 04201 4//84 /3102 11188 21224 39853 49878 52004 70077 333 91124 91217 555 63990 71500 72500 73500 74099 75500;
0141042010999992000011303004+77470-069220FM-12+001999999V0200901N006719999999N0450001N1-01301-01951098941ADDMA1999999098691MD1210161+9999REMSYN100AAXX  13034 04201 45/83 /0913 11130 21195 39869 49894 52016 555 60/// 71481 72500 73500 74850 75500;
0206042010999992000011306004+77470-069220FM-12+001999999V0201201N011819999999N0170001N1-01561-02171099231ADDKA1120M-01251KA2120N-02171MA1999999098981MD1210291+9999OA149902061REMSYN128AAXX  13064 04201 4//67 /1223 11156 21217 39898 49923 52029 72470 333 11125 21217 91140 555 63990 71170 72269 73216 74850 75500;
0180042010999992000011309004+77470-069220FM-12+001999999V0201601N011319999999N0050001N1-01741-02161099961ADDMA1999999099711MD1210731+9999OA149902011REMSYN128AAXX  13094 04201 4//50 /1622 11174 21216 39971 49996 52073 71171 333 91139 555 61990 62990 63990 71059 72088 73075 74034 75292;
0168042010999992000011312004+77470-069220FM-12+001999999V0201501N008719999999N0080001N1-01661-02081100801ADDMA1999999100551MD1210841+9999OA149902011REMSYN116AAXX  13124 04201 4//58 /1517 11166 21208 30055 40080 52084 71171 333 91139 555 63990 71082 72158 73132 74034 75292;
0168042010999992000011315004+77470-069220FM-12+001999999V0201401N010319999999N0400001N1-01701-02251101501ADDMA1999999101241MD1210691+9999OA149901651REMSYN116AAXX  13154 04201 4//82 /1420 11170 21225 30124 40150 52069 70077 333 91132 555 60/// 71409 72500 73482 74120 75500;
0206042010999992000011318004+77470-069220FM-12+001999999V0201401N007219999999N0450001N1-01731-02261101981ADDKA1120M-01521KA2120N-01871MA1999999101721MD1210481+9999OA149901651REMSYN128AAXX  13184 04201 4//83 /1414 11173 21226 30172 40198 52048 70077 333 11152 21187 91132 555 63990 71464 72500 73500 74120 75500;
0172042010999992000011321004+77470-069220FM-12+001999999V0200901N008219999999N0300001N1-01721-02341101981ADDMA1999999101721MD1410001+9999OA149901491REMSYN120    AAXX  13214 04201 45/80 /0916 11172 21234 30172 40198 54000 333 91129 91029 555 60/// 71326 72500 73467 74326 75500;
0172042010999992000011400004+77470-069220FM-12+001999999V0200901N006719999999N0500001N1-01711-02371101801ADDMA1999999101541MD1710181+9999OA149901491REMSYN120    AAXX  14004 04201 4//84 /0913 11171 21237 30154 40180 57018 72470 333 91129 555 60/// 71500 72500 73500 74240 75500;
0125042010999992000011421004+77470-069220FM-12+001999999V0203601N001019999999N0500001N1-02321-02851100801ADDMA1999999100541REMSYN098    AAXX  14214 04201 45/84 /3602 11232 21285 30054 40080 555 60/// 71500 72500 73500 74500 75500;
0145042010999992000011500004+77470-069220FM-12+001999999V0203201N000519999999N0500001N1-02531-02971100431ADDMA1999999100171MD1710371+9999REMSYN104    AAXX  15004 04201 45/84 /3201 11253 21297 30017 40043 57037 555 60/// 71500 72500 73500 74452 75500;
0145042010999992000011503004+77470-069220FM-12+001999999V0201901N000519999999N0500001N1-02431-02911099971ADDMA1999999099711MD1710461+9999REMSYN104    AAXX  15034 04201 45/84 /1901 11243 21291 39971 49997 57046 555 60/// 71500 72500 73500 74467 75500;
0187042010999992000011506004+77470-069220FM-12+001999999V0203001N000519999999N0500001N1-02521-02981099561ADDKA1120M-02251KA2120N-02631MA1999999099301MD1710411+9999REMSYN120    AAXX  15064 04201 45/84 /3001 11252 21298 39930 49956 57041 333 11225 21263 555 60/// 71500 72500 73500 74467 75500;
0145042010999992000011509004+77470-069220FM-12+001999999V0203301N000519999999N0500001N1-02561-03031099351ADDMA1999999099091MD1710211+9999REMSYN104    AAXX  15094 04201 45/84 /3301 11256 21303 39909 49935 57021 555 60/// 71500 72500 73500 74368 75500;
0145042010999992000011512004+77470-069220FM-12+001999999V0202501N001019999999N0500001N1-02491-02981099261ADDMA1999999099001MD1710091+9999REMSYN104    AAXX  15124 04201 45/84 /2502 11249 21298 39900 49926 57009 555 60/// 71500 72500 73500 74368 75500;
0145042010999992000011515004+77470-069220FM-12+001999999V0203201N001519999999N0450001N1-02431-02931099341ADDMA1999999099081MD1210081+9999REMSYN104    AAXX  15154 04201 45/83 /3203 11243 21293 39908 49934 52008 555 60/// 71484 72500 73500 74484 75500;
0187042010999992000011518004+77470-069220FM-12+001999999V0203001N001019999999N0500001N1-02531-03021099481ADDKA1120M-02371KA2120N-02561MA1999999099221MD1210141+9999REMSYN120    AAXX  15184 04201 45/84 /3002 11253 21302 39922 49948 52014 333 11237 21256 555 60/// 71500 72500 73500 74285 75500;
0145042010999992000011521004+77470-069220FM-12+001999999V0209999C000019999999N0450001N1-02501-02991099761ADDMA1999999099501MD1210281+9999REMSYN104    AAXX  15214 04201 45/83 /0000 11250 21299 39950 49976 52028 555 60/// 71498 72500 73500 74378 75500;
0145042010999992000011600004+77470-069220FM-12+001999999V0202701N000519999999N0500001N1-02561-02991100041ADDMA1999999099781MD1210281+9999REMSYN104    AAXX  16004 04201 45/84 /2701 11256 21299 39978 40004 52028 555 60/// 71500 72500 73500 74378 75500;
0125042010999992000011603004+77470-069220FM-12+001999999V0202801N000519999999N0450001N1-02421-02871100201ADDMA1999999099941REMSYN098    AAXX  16034 04201 45/83 /2801 11242 21287 39994 40020 555 60/// 71492 72500 73500 74492 75500;
0187042010999992000011606004+77470-069220FM-12+001999999V0203001N000519999999N0450001N1-02231-02711100461ADDKA1120M-02231KA2120N-02431MA1999999100201MD1210261+9999REMSYN120    AAXX  16064 04201 45/83 /3001 11223 21271 30020 40046 52026 333 11223 21243 555 60/// 71466 72500 73500 74363 75500;
0145042010999992000011609004+77470-069220FM-12+001999999V0203501N000519999999N0450001N1-02081-02591100861ADDMA1999999100601MD1210401+9999REMSYN104    AAXX  16094 04201 45/83 /3501 11208 21259 30060 40086 52040 555 60/// 71491 72500 73500 74482 75500;
0145042010999992000011612004+77470-069220FM-12+001999999V0203201N002119999999N0450001N1-01671-02181101131ADDMA1999999100881MD1210281+9999REMSYN104    AAXX  16124 04201 45/83 /3204 11167 21218 30088 40113 52028 555 60/// 71487 72500 73500 74463 75500;
0167042010999992000011615004+77470-069220FM-12+001999999V0201501N001519999999N0270001N1-01691-02071101291ADDMA1999999101041MD1210161+9999REMSYN126    AAXX  16154 04201 4//77 /1503 11169 21207 30104 40129 52016 78570 333 91214 555 63990 64990 71279 72500 73386 74082 75500;
0199042010999992000011618004+77470-069220FM-12+001999999V0203301N002119999999N0400001N1-01851-02071101411ADDKA1120M-01531KA2120N-02271MA1999999101151MD1210111+9999REMSYN132    AAXX  16184 04201 4//82 /3304 11185 21207 30115 40141 52011 72470 333 11153 21227 555 63990 64990 71441 72500 73500 74043 75500;
0145042010999992000011621004+77470-069220FM-12+001999999V0203101N004119999999N0450001N1-01761-02131101661ADDMA1999999101401MD1210251+9999REMSYN104    AAXX  16214 04201 45/83 /3108 11176 21213 30140 40166 52025 555 60/// 71499 72500 73500 74118 75500;
0169042010999992000011700004+77470-069220FM-12+001999999V0203201N003619999999N0050001N1-01781-02101101841ADDMA1999999101581MD1210181+9999REMSYN128    AAXX  17004 04201 4//50 /3207 11178 21210 30158 40184 52018 77770 555 61990 62990 63990 64990 71050 72080 73058 74961 75500;
0151042010999992000011703004+77470-069220FM-12+001999999V0203401N002119999999N0450001N1-01751-02141102011ADDMA1999999101751MD1210171+9999REMSYN110    AAXX  17034 04201 4//83 /3404 11175 21214 30175 40201 52017 70077 555 63990 71499 72500 73500 74841 75500;
0193042010999992000011706004+77470-069220FM-12+001999999V0201901N008219999999N0400001N1-01781-02281102131ADDKA1120M-01641KA2120N-01991MA1999999101871MD1210121+9999REMSYN126    AAXX  17064 04201 4//82 /1916 11178 21228 30187 40213 52012 70077 333 11164 21199 555 63990 71440 72500 73500 74841 75500;
0155042010999992000011709004+77470-069220FM-12+001999999V0200801N002619999999N0450001N1-01811-02351102231ADDMA1999999101971MD1210101+9999REMSYN114    AAXX  17094 04201 45/83 /0805 11181 21235 30197 40223 52010 333 91216 555 60/// 71489 72500 73500 74476 75500;
0166042010999992000011712004+77470-069220FM-12+001999999V0201701N005119999999N0500001N1-01821-02331102371ADDMA1999999102111MD1210141+9999OA149900881REMSYN114    AAXX  17124 04201 45/84 /1710 11182 21233 30211 40237 52014 333 91117 555 60/// 71500 72500 73500 74471 75500;
0145042010999992000011715004+77470-069220FM-12+001999999V0201601N007219999999N0500001N1-01851-02371102461ADDMA1999999102201MD1210091+9999REMSYN104    AAXX  17154 04201 45/84 /1614 11185 21237 30220 40246 52009 555 60/// 71500 72500 73500 74469 75500;
0145042010999992000011721004+77470-069220FM-12+001999999V0202601N003119999999N0450001N1-02161-02631102681ADDMA1999999102421MD1210141+9999REMSYN104    AAXX  17214 04201 45/83 /2606 11216 21263 30242 40268 52014 555 60/// 71465 72500 73500 74435 75500;
0125042010999992000011800004+77470-069220FM-12+001999999V0202901N003119999999N0280001N1-02211-02631102681ADDMA1999999102421REMSYN098    AAXX  18004 04201 45/78 /2906 11221 21263 30242 40268 555 60/// 71284 72500 73500 74284 75500;
0151042010999992000011803004+77470-069220FM-12+001999999V0200201N001019999999N0130001N1-02151-02591102691ADDMA1999999102431MD1210011+9999REMSYN110    AAXX  18034 04201 4//63 /0202 11215 21259 30243 40269 52001 77770 555 60/// 71131 72421 73166 74131 75500;
0211042010999992000011806004+77470-069220FM-12+001999999V0202401N002619999999N0070001N1-02161-02571102831ADDKA1120M-01981KA2120N-02271MA1999999102571MD1210141+9999REMSYN144    AAXX  18064 04201 4//57 /2405 11216 21257 30257 40283 52014 77770 333 11198 21227 555 61997 62990 63997 64007 71074 72147 73098 74071 75500;
0151042010999992000011809004+77470-069220FM-12+001999999V0201901N002119999999N0450001N1-02221-02641103001ADDMA1999999102741MD1210171+9999REMSYN110    AAXX  18094 04201 4//83 /1904 11222 21264 30274 40300 52017 70077 555 63990 71474 72500 73500 74070 75500;
0172042010999992000011812004+77470-069220FM-12+001999999V0201701N006719999999N0270001N1-02221-02731103071ADDMA1999999102811MD1210071+9999OA149900671REMSYN120    AAXX  18124 04201 4//77 /1713 11222 21273 30281 40307 52007 70077 333 91113 555 63990 71274 72500 73483 74070 75500;
0145042010999992000011815004+77470-069220FM-12+001999999V0203501N003119999999N0350001N1-02441-02911103011ADDMA1999999102741MD1710071+9999REMSYN104    AAXX  18154 04201 45/81 /3506 11244 21291 30274 40301 57007 555 60/// 71364 72500 73500 74101 75500;
0211042010999992000011818004+77470-069220FM-12+001999999V0203501N001019999999N0020001N1-02381-02701102881ADDKA1120M-02121KA2120N-02471MA1999999102611MD1710131+9999REMSYN144    AAXX  18184 04201 4//20 /3502 11238 21270 30261 40288 57013 77771 333 11212 21247 91213 555 61990 62990 63990 71020 72042 73025 74020 75500;
0157042010999992000011821004+77470-069220FM-12+001999999V0203601N003119999999N0000001N1-02561-02881102821ADDMA1999999102551MD1710061+9999REMSYN116    AAXX  18214 04201 4//00 /3606 11256 21288 30255 40282 57006 71177 555 63990 65001 71940 72065 73046 74940 75131;
0151042010999992000011900004+77470-069220FM-12+001999999V0200401N002619999999N0350001N1-02601-02951102781ADDMA1999999102511MD1710041+9999REMSYN110    AAXX  19004 04201 4//81 /0405 11260 21295 30251 40278 57004 72477 555 63990 71357 72500 73500 74940 75500;
0145042010999992000011903004+77470-069220FM-12+001999999V0203401N001019999999N0450001N1-02741-03081102901ADDMA1999999102631MD1210121+9999REMSYN104    AAXX  19034 04201 45/83 /3402 11274 21308 30263 40290 52012 555 60/// 71478 72500 73500 74449 75500;
0193042010999992000011906004+77470-069220FM-12+001999999V0200201N001019999999N0110001N1-02781-03111103051ADDKA1120M-02371KA2120N-02841MA1999999102781MD1210151+9999REMSYN126    AAXX  19064 04201 45/61 /0202 11278 21311 30278 40305 52015 333 11237 21284 555 63998 64001 71110 72500 73163 74110 75500;
0145042010999992000011912004+77470-069220FM-12+001999999V0201101N001019999999N0500001N1-02861-03251103361ADDMA1999999103091MD1210091+9999REMSYN104    AAXX  19124 04201 45/84 /1102 11286 21325 30309 40336 52009 555 60/// 71500 72500 73500 74120 75500;
0144042010999992000011915004+77470-069220FM-12+001999999V0202201N000519999999N0450001N1-02921-03301103431ADDMA1999999103161MD1210071+9999REMSYN103    AAXX  19154 04201 45/83 /2201 11292 21330 30316 40343 52007555 60/// 71467 72500 73500 74467 75500;
0183042010999992000011918004+77470-069220FM-12+001999999V0209999C000019999999N0500001N1-02851-03251103471ADDKA1120M-02601KA2120N-03031MA1999999103201MD1210041+9999REMSYN116AAXX  19184 04201 45/84 /0000 11285 21325 30320 40347 52004 333 11260 21303 555 60/// 71500 72500 73500 74453 75500;
0141042010999992000011921004+77470-069220FM-12+001999999V0209999C000019999999N0450001N1-03041-03361103511ADDMA1999999103241MD1210041+9999REMSYN100AAXX  19214 04201 45/83 /0000 11304 21336 30324 40351 52004 555 60/// 71483 72500 73500 74140 75500;
0141042010999992000012000004+77470-069220FM-12+001999999V0202301N000519999999N0500001N1-02961-03331103431ADDMA1999999103161MD1710081+9999REMSYN100AAXX  20004 04201 45/84 /2301 11296 21333 30316 40343 57008 555 60/// 71500 72500 73500 74140 75500;
0183042010999992000012006004+77470-069220FM-12+001999999V0202901N001019999999N0500001N1-03011-03401102721ADDKA1120M-02801KA2120N-03111MA1999999102451MD1710431+9999REMSYN116AAXX  20064 04201 45/84 /2902 11301 21340 30245 40272 57043 333 11280 21311 555 60/// 71500 72500 73500 74950 75500;
0141042010999992000012009004+77470-069220FM-12+001999999V0202801N001019999999N0500001N1-03121-03471102171ADDMA1999999101901MD1710551+9999REMSYN100AAXX  20094 04201 45/84 /2802 11312 21347 30190 40217 57055 555 60/// 71500 72500 73500 74494 75500;
0141042010999992000012012004+77470-069220FM-12+001999999V0200201N000519999999N0500001N1-02991-03371101561ADDMA1999999101291MD1710611+9999REMSYN100AAXX  20124 04201 45/84 /0201 11299 21337 30129 40156 57061 555 60/// 71500 72500 73500 74950 75500;
0141042010999992000012015004+77470-069220FM-12+001999999V0202701N000519999999N0400001N1-02961-03341101061ADDMA1999999100791MD1710501+9999REMSYN100AAXX  20154 04201 45/82 /2701 11296 21334 30079 40106 57050 555 60/// 71418 72500 73500 74412 75500;
0183042010999992000012018004+77470-069220FM-12+001999999V0203101N001019999999N0350001N1-02951-03321100671ADDKA1120M-02801KA2120N-03121MA1999999100401MD1710391+9999REMSYN116AAXX  20184 04201 45/81 /3102 11295 21332 30040 40067 57039 333 11280 21312 555 60/// 71383 72500 73500 74201 75500;
0141042010999992000012100004+77470-069220FM-12+001999999V0203101N000519999999N0450001N1-02741-03131100731ADDMA1999999100471MD1210071+9999REMSYN100AAXX  21004 04201 45/83 /3101 11274 21313 30047 40073 52007 555 60/// 71478 72500 73500 74063 75500;
0183042010999992000012106004+77470-069220FM-12+001999999V0201401N000519999999N0500001N1-02541-02941101081ADDKA1120M-02451KA2120N-03001MA1999999100821MD1210171+9999REMSYN116AAXX  21064 04201 45/84 /1401 11254 21294 30082 40108 52017 333 11245 21300 555 60/// 71500 72500 73500 74479 75500;
0141042010999992000012109004+77470-069220FM-12+001999999V0201301N001019999999N0500001N1-02451-02821101301ADDMA1999999101041MD1210221+9999REMSYN100AAXX  21094 04201 45/84 /1302 11245 21282 30104 40130 52022 555 60/// 71500 72500 73500 74465 75500;
0141042010999992000012112004+77470-069220FM-12+001999999V0202801N001519999999N0450001N1-02231-02611101371ADDMA1999999101111MD1210071+9999REMSYN100AAXX  21124 04201 45/83 /2803 11223 21261 30111 40137 52007 555 60/// 71487 72500 73500 74451 75500;
0178042010999992000012115004+77470-069220FM-12+001999999V0203201N000519999999N0021001N1-02191-02431101461ADDMA1999999101201MD1210091+9999REMSYN137AAXX  21154 04201 4//21 /3201 11219 21243 30120 40146 52009 77770 555 61991 62990 63991 65001 71021 72034 73027 74021 75 T NA181 211514 ;
0207042010999992000012118004+77470-069220FM-12+001999999V0202601N000519999999N0025001N1-01971-02161101451ADDKA1120M-01971KA2120N-02571MA1999999101191MD1710011+9999REMSYN140AAXX  21184 04201 4//25 /2601 11197 21216 30119 40145 57001 76770 333 11197 21257 555 61990 62990 63993 65001 71025 72034 73029 74015 75500;
0147042010999992000012200004+77470-069220FM-12+001999999V0202901N001519999999N0300001N1-02081-02231101251ADDMA1999999100991MD1710211+9999REMSYN106AAXX  22004 04201 4//80 /2903 11208 21223 30099 40125 57021 72277 555 63992 71315 72460 73347 74013 75500;
0159042010999992000012203004+77470-069220FM-12+001999999V0203001N003119999999N0080001N1-02041-02181100941ADDMA1999999100681MD1710311+9999REMSYN118AAXX  22034 04201 4//58 /3006 11204 21218 30068 40094 57031 71170 555 61990 62990 63990 71089 72500 73198 74089 75500;
0147042010999992000012212004+77470-069220FM-12+001999999V0201101N005719999999N0300001N1-01911-02061099991ADDMA1999999099741MD1710201+9999REMSYN106AAXX  22124 04201 4//80 /1111 11191 21206 39974 49999 57020 70077 555 63992 71319 72468 73396 74025 75500;
0151042010999992000012215004+77470-069220FM-12+001999999V0201901N000519999999N0130001N1-01811-01981099921ADDMA1999999099671MD1710071+9999REMSYN110AAXX  22154 04201 45/63 /1901 11181 21198 39967 49992 57007 333 91212 555 60/// 71134 72178 73147 74134 75500;
0207042010999992000012218004+77470-069220FM-12+001999999V0200701N001019999999N0035001N1-01741-01871100021ADDKA1120M-01701KA2120N-02271MA1999999099771MD1210101+9999REMSYN140AAXX  22184 04201 4//35 /0702 11174 21187 39977 40002 52010 77170 333 11170 21227 555 61991 62990 63993 65001 71035 72049 73042 74025 75500;
0165042010999992000012221004+77470-069220FM-12+001999999V0200701N002119999999N0032001N1-01591-01751100471ADDMA1999999100221MD1210451+9999REMSYN124AAXX  22214 04201 4//32 /0704 11159 21175 30022 40047 52045 77177 555 61991 62990 63992 65001 71032 72130 73042 74032 75143;
0186042010999992000012300004+77470-069220FM-12+001999999V0201201N007719999999N0017001N1-01191-01451100931ADDMA1999999100681MD1210461+9999OA149901441REMSYN134AAXX  23004 04201 4//17 /1215 11119 21145 30068 40093 52046 77777 333 91128 555 61990 62990 63993 65004 71017 72190 73118 74894 75190;
0157042010999992000012303004+77470-069220FM-12+001999999V0202401N002619999999N0150001N1-01381-01771101111ADDMA1999999100861MD1210181+9999REMSYN116AAXX  23034 04201 4//65 /2405 11138 21177 30086 40111 52018 70077 333 91217 555 63990 71155 72282 73206 74067 75325;
0207042010999992000012306004+77470-069220FM-12+001999999V0203201N002119999999N0024001N1-01441-01731100951ADDKA1120M-01021KA2120N-01751MA1999999100701MD1710161+9999REMSYN140AAXX  23064 04201 4//24 /3204 11144 21173 30070 40095 57016 77177 333 11102 21175 91217 555 61991 62990 63991 71024 72051 73039 74023 75448;
0165042010999992000012309004+77470-069220FM-12+001999999V0200401N001519999999N0060001N1-01581-01741100661ADDMA1999999100411MD1710291+9999REMSYN124AAXX  23094 04201 4//56 /0403 11158 21174 30041 40066 57029 77777 555 61990 62990 63992 65002 71066 72085 73073 74023 75093;
0153042010999992000012315004+77470-069220FM-12+001999999V0201101N002119999999N0100001N1-01811-01971099881ADDMA1999999099631MD1710431+9999REMSYN112AAXX  23154 04201 4//60 /1104 11181 21197 39963 49988 57043 77777 555 63992 65001 71103 72150 73123 74049 75150;
0189042010999992000012318004+77470-069220FM-12+001999999V0209999C000019999999N0280001N1-02001-02141099301ADDKA1120M-01411KA2120N-02071MA1999999099051MD1710581+9999REMSYN122AAXX  23184 04201 4//78 /0000 11200 21214 39905 49930 57058 70077 333 11141 21207 555 63992 71282 72422 73328 74049 75500;
0147042010999992000012321004+77470-069220FM-12+001999999V0201101N003619999999N0290001N1-02011-02101098821ADDMA1999999098571MD1710481+9999REMSYN106AAXX  23214 04201 4//79 /1107 11201 21210 39857 49882 57048 72470 555 60/// 71294 72430 73372 74110 75495;
0147042010999992000012400004+77470-069220FM-12+001999999V0200801N004619999999N0070001N1-01791-01921098551ADDMA1999999098301MD1710271+9999REMSYN106AAXX  24004 04201 4//57 /0809 11179 21192 39830 49855 57027 70070 555 60/// 71078 72111 73098 74069 75495;
0159042010999992000012403004+77470-069220FM-12+001999999V0201001N008219999999N0014001N1-01711-01881098421ADDMA1999999098171MD1710131+9999REMSYN118AAXX  24034 04201 4//14 /1016 11171 21188 39817 49842 57013 77171 555 61992 62990 63992 71014 72053 73020 74014 75155;
0127042010999992000012500004+77470-069220FM-12+001999999V0201701N002619999999N0160001N1-01451-01801099571ADDMA1999999099321REMSYN100AAXX  25004 04201 4//66 /1705 11145 21180 39932 49957 77770 555 63990 71161 72245 73200 74055 75335;
0171042010999992000012503004+77470-069220FM-12+001999999V0202101N003619999999N0023001N1-01531-01791099791ADDMA1999999099541MD1210221+9999REMSYN130AAXX  25034 04201 4//23 /2107 11153 21179 39954 49979 52022 77777 555 61990 62990 63992 64991 65001 71023 72074 73040 74022 75242;
0207042010999992000012506004+77470-069220FM-12+001999999V0202401N001519999999N0015001N1-01601-01761100081ADDKA1120M-01291KA2120N-01611MA1999999099831MD1210291+9999REMSYN140AAXX  25064 04201 4//15 /2403 11160 21176 39983 40008 52029 75477 333 11129 21161 555 61993 62991 63993 64990 71015 72029 73019 74015 75462;
0171042010999992000012509004+77470-069220FM-12+001999999V0201801N001519999999N0015001N1-01651-01811100471ADDMA1999999100221MD1210391+9999REMSYN130AAXX  25094 04201 4//15 /1803 11165 21181 30022 40047 52039 75476 555 61990 62990 63992 64992 65001 71015 72025 73019 74013 75115;
0159042010999992000012512004+77470-069220FM-12+001999999V0200801N003119999999N0450001N1-01751-02191100851ADDMA1999999100601MD1210381+9999REMSYN118AAXX  25124 04201 4//83 /0806 11175 21219 30060 40085 52038 70076 555 63993 64990 65001 71465 72500 73500 74010 75500;
0159042010999992000012515004+77470-069220FM-12+001999999V0201401N007719999999N0045001N1-01741-02101101031ADDMA1999999100781MD1210181+9999REMSYN118AAXX  25154 04201 4//45 /1415 11174 21210 30078 40103 52018 77774 555 61990 62990 63990 71045 72387 73123 74045 75500;
0206042010999992000012518004+77470-069220FM-12+001999999V0201701N008219999999N0050001N1-01691-02121101221ADDKA1120M-01591KA2120N-01851MA1999999100971MD1210191+9999OA149901131REMSYN128AAXX  25184 04201 4//50 /1716 11169 21212 30097 40122 52019 70074 333 11159 21185 91122 555 63990 71058 72478 73138 74015 75500;
0168042010999992000012521004+77470-069220FM-12+001999999V0201701N007219999999N0200001N1-01711-02201101441ADDMA1999999101181MD1210211+9999OA149901131REMSYN116AAXX  25214 04201 4//70 /1714 11171 21220 30118 40144 52021 70071 333 91122 555 63990 71201 72500 73500 74013 75500;
0174042010999992000012600004+77470-069220FM-12+001999999V0200601N001019999999N0500001N1-01821-02301101611ADDMA1999999101351MD1210171+9999OA149901131REMSYN122AAXX  26004 04201 4//84 /0602 11182 21230 30135 40161 52017 70071 333 91122 91219 555 63990 71500 72500 73500 74013 75500;
0141042010999992000012603004+77470-069220FM-12+001999999V0203001N001019999999N0400001N1-01971-02311101691ADDMA1999999101431MD1210081+9999REMSYN100AAXX  26034 04201 45/82 /3002 11197 21231 30143 40169 52008 555 60/// 71433 72500 73500 74399 75500;
0195042010999992000012606004+77470-069220FM-12+001999999V0203101N002119999999N0450001N1-02071-02371101801ADDKA1120M-01691KA2120N-02071MA1999999101541MD1210111+9999REMSYN128AAXX  26064 04201 45/83 /3104 11207 21237 30154 40180 52011 333 11169 21207 555 61005 62990 63005 71479 72500 73500 74397 75500;
0141042010999992000012609004+77470-069220FM-12+001999999V0202801N002619999999N0450001N1-02101-02401101901ADDMA1999999101641MD1210101+9999REMSYN100AAXX  26094 04201 45/83 /2805 11210 21240 30164 40190 52010 555 60/// 71484 72500 73500 74379 75500;
0159042010999992000012612004+77470-069220FM-12+001999999V0202501N000519999999N0070001N1-02251-02481101911ADDMA1999999101651MD1210011+9999REMSYN118AAXX  26124 04201 4//57 /2501 11225 21248 30165 40191 52001 77770 555 61990 62990 63990 71074 72150 73118 74074 75500;
0165042010999992000012615004+77470-069220FM-12+001999999V0202701N001019999999N0032001N1-02241-02421101931ADDMA1999999101671MD1210021+9999REMSYN124AAXX  26154 04201 4//32 /2702 11224 21242 30167 40193 52002 77177 555 61990 62990 63990 64990 71032 72043 73036 74027 75193;
0207042010999992000012618004+77470-069220FM-12+001999999V0202801N000519999999N0039001N1-02421-02591101991ADDKA1120M-02031KA2120N-02421MA1999999101731MD1210061+9999REMSYN140AAXX  26184 04201 4//39 /2801 11242 21259 30173 40199 52006 77177 333 11203 21242 555 61990 62990 63990 64990 71039 72076 73047 74023 75193;
0153042010999992000012621004+77470-069220FM-12+001999999V0201201N001519999999N0140001N1-02621-02811102021ADDMA1999999101751MD1210021+9999REMSYN112AAXX  26214 04201 4//64 /1203 11262 21281 30175 40202 52002 72277 555 63990 64990 71149 72500 73425 74022 75500;
0147042010999992000012700004+77470-069220FM-12+001999999V0203501N000519999999N0450001N1-02621-02821101991ADDMA1999999101721MD1710031+9999REMSYN106AAXX  27004 04201 4//83 /3501 11262 21282 30172 40199 57003 71177 555 63990 71478 72500 73500 74022 75500;
0147042010999992000012703004+77470-069220FM-12+001999999V0200501N000519999999N0300001N1-02661-02851101881ADDMA1999999101611MD1710111+9999REMSYN106AAXX  27034 04201 4//80 /0501 11266 21285 30161 40188 57011 77777 555 60/// 71335 72500 73405 74170 75500;
0189042010999992000012706004+77470-069220FM-12+001999999V0200701N000519999999N0350001N1-02711-02891101721ADDKA1120M-02391KA2120N-02811MA1999999101451MD1710161+9999REMSYN122AAXX  27064 04201 4//81 /0701 11271 21289 30145 40172 57016 77777 333 11239 21281 555 63990 71356 72500 73474 74111 75500;
0135042010999992000012709004+77470-069220FM-12+001999999V0209999C000019999999N9999999N1-02741-02911101591ADDMA1999999101321MD1710131+9999REMSYN094AAXX  27094 04201 4//// /0000 11274 21291 30132 40159 57013 70077 555 63990 73500 74297 75500;
0147042010999992000012712004+77470-069220FM-12+001999999V0200201N000519999999N0450001N1-02781-02941101461ADDMA1999999101191MD1710131+9999REMSYN106AAXX  27124 04201 4//83 /0201 11278 21294 30119 40146 57013 70077 555 63005 71487 72500 73500 74036 75500;
0183042010999992000012718004+77470-069220FM-12+001999999V0209999C000019999999N0400001N1-02841-03001101231ADDKA1120M-02651KA2120N-02941MA1999999100961MD1710101+9999REMSYN116AAXX  27184 04201 45/82 /0000 11284 21300 30096 40123 57010 333 11265 21294 555 60/// 71402 72500 73494 74091 75500;
0141042010999992000012721004+77470-069220FM-12+001999999V0201201N000519999999N0450001N1-02891-03051101211ADDMA1999999100941MD1710021+9999REMSYN100AAXX  27214 04201 45/83 /1201 11289 21305 30094 40121 57002 555 60/// 71488 72500 73500 74045 75500;
0121042010999992000012803004+77470-069220FM-12+001999999V0200801N000519999999N0500001N1-02911-03071101151ADDMA1999999100881REMSYN094AAXX  28034 04201 45/84 /0801 11291 21307 30088 40115 555 60/// 71500 72500 73500 74474 75500;
0183042010999992000012806004+77470-069220FM-12+001999999V0203101N001019999999N0500001N1-02921-03081101181ADDKA1120M-02761KA2120N-03091MA1999999100911MD1210031+9999REMSYN116AAXX  28064 04201 45/84 /3102 11292 21308 30091 40118 52003 333 11276 21309 555 60/// 71500 72500 73500 74372 75500;
0141042010999992000012809004+77470-069220FM-12+001999999V0201101N000519999999N0500001N1-02891-03061101231ADDMA1999999100961MD1210051+9999REMSYN100AAXX  28094 04201 45/84 /1101 11289 21306 30096 40123 52005 555 60/// 71500 72500 73500 74475 75500;
0141042010999992000012812004+77470-069220FM-12+001999999V0203001N001019999999N0500001N1-02831-03011101271ADDMA1999999101001MD1210041+9999REMSYN100AAXX  28124 04201 45/84 /3002 11283 21301 30100 40127 52004 555 60/// 71500 72500 73500 74421 75500;
0141042010999992000012815004+77470-069220FM-12+001999999V0203201N000519999999N0400001N1-02951-03131101291ADDMA1999999101021MD1210021+9999REMSYN100AAXX  28154 04201 45/82 /3201 11295 21313 30102 40129 52002 555 60/// 71440 72500 73500 74112 75500;
0183042010999992000012818004+77470-069220FM-12+001999999V0209999C000019999999N0500001N1-02841-03051101281ADDKA1120M-02691KA2120N-03101MA1999999101011MD1710011+9999REMSYN116AAXX  28184 04201 45/84 /0000 11284 21305 30101 40128 57001 333 11269 21310 555 60/// 71500 72500 73500 74057 75500;
0141042010999992000012821004+77470-069220FM-12+001999999V0202401N000519999999N0500001N1-02941-03151101241ADDMA1999999100971MD1710041+9999REMSYN100AAXX  28214 04201 45/84 /2401 11294 21315 30097 40124 57004 555 60/// 71500 72500 73500 74179 75500;
0141042010999992000012900004+77470-069220FM-12+001999999V0201401N000519999999N0500001N1-03121-03361101091ADDMA1999999100821MD1710151+9999REMSYN100AAXX  29004 04201 45/84 /1401 11312 21336 30082 40109 57015 555 60/// 71500 72500 73500 74179 75500;
0141042010999992000012903004+77470-069220FM-12+001999999V0202601N000519999999N0500001N1-03121-03341101001ADDMA1999999100731MD1710091+9999REMSYN100AAXX  29034 04201 45/84 /2601 11312 21334 30073 40100 57009 555 60/// 71500 72500 73500 74269 75500;
0183042010999992000012906004+77470-069220FM-12+001999999V0209999C000019999999N0500001N1-03031-03241100801ADDKA1120M-02671KA2120N-03351MA1999999100531MD1710201+9999REMSYN116AAXX  29064 04201 45/84 /0000 11303 21324 30053 40080 57020 333 11267 21335 555 60/// 71500 72500 73500 74269 75500;
0141042010999992000012909004+77470-069220FM-12+001999999V0203201N000519999999N0500001N1-02961-03181100591ADDMA1999999100321MD1710211+9999REMSYN100AAXX  29094 04201 45/84 /3201 11296 21318 30032 40059 57021 555 60/// 71500 72500 73500 74486 75500;
0141042010999992000012912004+77470-069220FM-12+001999999V0201301N000519999999N0500001N1-02891-03161100341ADDMA1999999100081MD1710241+9999REMSYN100AAXX  29124 04201 45/84 /1301 11289 21316 30008 40034 57024 555 60/// 71500 72500 73500 74486 75500;
0141042010999992000012915004+77470-069220FM-12+001999999V0201601N000519999999N0500001N1-02861-03151100141ADDMA1999999099881MD1710201+9999REMSYN100AAXX  29154 04201 45/84 /1601 11286 21315 39988 40014 57020 555 60/// 71500 72500 73500 74500 75500;
0183042010999992000012918004+77470-069220FM-12+001999999V0201401N000519999999N0500001N1-02921-03201099941ADDKA1120M-02711KA2120N-03211MA1999999099681MD1710201+9999REMSYN116AAXX  29184 04201 45/84 /1401 11292 21320 39968 49994 57020 333 11271 21321 555 60/// 71500 72500 73500 74465 75500;
0141042010999992000012921004+77470-069220FM-12+001999999V0202801N001519999999N0500001N1-03061-03301099821ADDMA1999999099551MD1710131+9999REMSYN100AAXX  29214 04201 45/84 /2803 11306 21330 39955 49982 57013 555 60/// 71500 72500 73500 74500 75500;
0141042010999992000013000004+77470-069220FM-12+001999999V0202701N000519999999N0500001N1-02861-03131099731ADDMA1999999099471MD1710081+9999REMSYN100AAXX  30004 04201 45/84 /2701 11286 21313 39947 49973 57008 555 60/// 71500 72500 73500 74500 75500;
0147042010999992000013003004+77470-069220FM-12+001999999V0203001N001019999999N0500001N1-02941-03201099591ADDMA1999999099331MD1710141+9999REMSYN106AAXX  30034 04201 4//84 /3002 11294 21320 39933 49959 57014 70010 555 60/// 71500 72500 73500 74865 75500;
0206042010999992000013006004+77470-069220FM-12+001999999V0203601N001019999999N0500001N1-02561-02921099491ADDKA1120M-02501KA2120N-03181MA1999999099231MD1710101+9999OA149900721REMSYN128AAXX  30064 04201 4//84 /3602 11256 21292 39923 49949 57010 70010 333 11250 21318 91114 555 60/// 71500 72500 73500 74865 75500;
0141042010999992000013009004+77470-069220FM-12+001999999V0202901N002119999999N0500001N1-02891-03161099471ADDMA1999999099211MD1710021+9999REMSYN100AAXX  30094 04201 45/84 /2904 11289 21316 39921 49947 57002 555 60/// 71500 72500 73500 74500 75500;
0147042010999992000013015004+77470-069220FM-12+001999999V0201001N009319999999N0037001N1-02541-02891099271ADDMA1999999099011MD1710081+9999REMSYN106AAXX  30154 04201 4//37 /1018 11254 21289 39901 49927 57008 71071 555 63990 71037 72186 73073 74017 75329;
0148042010999992000013115004+77470-069220FM-12+001999999V0201901N001019999999N0500001N1-02961-03261099611ADDMA1999999099351OA149901081REMSYN110AAXX  31154 04201 45/84 /1902 11296 21326 39935 49961 333 91121 91215 555 60/// 71500 72500 73500 74033 75500;
0230042010999992000013118004+77470-069220FM-12+001999999V0201101N007719999999N0014001N1-02671-02971099711ADDKA1120M-02341KA2120N-03101MA1999999099451MD1210101+9999OA149901441REMSYN152AAXX  31184 04201 4//14 /1115 11267 21297 39945 49971 52010 78570 333 11234 21310 91128 555 61990 62990 63001 64990 65001 71014 72426 73211 74830 75500;
0180042010999992000013121004+77470-069220FM-12+001999999V0201001N004119999999N0250001N1-02451-02821099951ADDMA1999999099691MD1210241+9999OA149901541REMSYN128AAXX  31214 04201 4//75 /1008 11245 21282 39969 49995 52024 70070 333 91130 555 63002 64991 65002 71251 72500 73500 74810 75500;
0168042010999992000020100004+77470-069220FM-12+001999999V0201101N006219999999N0400001N1-02561-02931100171ADDMA1999999099911MD1210221+9999OA149901541REMSYN116AAXX  01004 04201 4//82 /1112 11256 21293 39991 40017 52022 70070 333 91130 555 63002 71423 72500 73500 74810 75500;
0147042010999992000020103004+77470-069220FM-12+001999999V0201001N007719999999N0090001N1-02391-02771100401ADDMA1999999100141MD1210231+9999REMSYN106AAXX  01034 04201 4//59 /1015 11239 21277 30014 40040 52023 70010 555 60/// 71098 72338 73209 74050 75500;
0189042010999992000020106004+77470-069220FM-12+001999999V0200901N008219999999N0050001N1-02331-02761100671ADDKA1120M-01931KA2120N-02901MA1999999100411MD1210271+9999REMSYN122AAXX  01064 04201 4//50 /0916 11233 21276 30041 40067 52027 70010 333 11193 21290 555 60/// 71060 72232 73107 74050 75500;
0162042010999992000020109004+77470-069220FM-12+001999999V0201001N006219999999N0350001N1-02581-03001101021ADDMA1999999100761MD1210351+9999OA149900771REMSYN110AAXX  01094 04201 45/81 /1012 11258 21300 30076 40102 52035 333 91115 555 60/// 71376 72500 73500 74063 75500;
0174042010999992000020112004+77470-069220FM-12+001999999V0200101N002119999999N0450001N1-02371-02811101261ADDMA1999999101001MD1210241+9999OA149901131REMSYN122AAXX  01124 04201 45/83 /0104 11237 21281 30100 40126 52024 333 91122 91014 91218 555 60/// 71498 72500 73500 74053 75500;
0162042010999992000020115004+77470-069220FM-12+001999999V0200801N005119999999N0500001N1-02241-02721101451ADDMA1999999101191MD1210191+9999OA149900981REMSYN110AAXX  01154 04201 45/84 /0810 11224 21272 30119 40145 52019 333 91119 555 60/// 71500 72500 73500 74071 75500;
0206042010999992000020118004+77470-069220FM-12+001999999V0201001N008219999999N0060001N1-02221-02731101611ADDKA1120M-02191KA2120N-02951MA1999999101351MD1210161+9999OA149900981REMSYN128AAXX  01184 04201 4//56 /1016 11222 21273 30135 40161 52016 70010 333 11219 21295 91119 555 60/// 71061 72422 73154 74035 75500;
0180042010999992000020121004+77470-069220FM-12+001999999V0201201N004119999999N0060001N1-02321-02841101781ADDMA1999999101521MD1210171+9999OA149900981REMSYN128AAXX  01214 04201 4//56 /1208 11232 21284 30152 40178 52017 70010 333 91119 91019 91221 555 60/// 71065 72500 73500 74031 75500;
0168042010999992000020200004+77470-069220FM-12+001999999V0200901N009819999999N0050001N1-02061-02611101781ADDMA1999999101521MD1410001+9999OA149900981REMSYN116AAXX  02004 04201 4//50 /0919 11206 21261 30152 40178 54000 71010 333 91119 555 60/// 71058 72141 73093 74031 75500;
0153042010999992000020203004+77470-069220FM-12+001999999V0201101N010319999999N0047001N1-02021-02571101721ADDMA1999999101461MD1710061+9999REMSYN112AAXX  02034 04201 4//47 /1120 11202 21257 30146 40172 57006 72271 555 63990 64990 71047 72174 73087 74020 75309;
0189042010999992000020206004+77470-069220FM-12+001999999V0200901N007719999999N0120001N1-01801-02441101531ADDKA1120M-01801KA2120N-02701MA1999999101271MD1710191+9999REMSYN122AAXX  02064 04201 4//62 /0915 11180 21244 30127 40153 57019 70071 333 11180 21270 555 63990 71122 72500 73500 74020 75500;
0141042010999992000020209004+77470-069220FM-12+001999999V0201201N006719999999N0450001N1-01891-02541101371ADDMA1999999101111MD1710161+9999REMSYN100AAXX  02094 04201 45/83 /1213 11189 21254 30111 40137 57016 555 60/// 71494 72500 73500 74307 75500;
0147042010999992000020212004+77470-069220FM-12+001999999V0200801N012319999999N0032001N1-01621-02361100941ADDMA1999999100691MD1710421+9999REMSYN106AAXX  02124 04201 4//32 /0824 11162 21236 30069 40094 57042 71010 555 60/// 71032 72196 73056 74032 75500;
0171042010999992000020215004+77470-069220FM-12+001999999V0200701N012319999999N0002001N1-01521-01631100611ADDMA1999999100361MD1710331+9999REMSYN130AAXX  02154 04201 4//02 /0724 11152 21163 30036 40061 57033 77371 555 61995 62994 63996 64994 65006 71823 72851 73832 74815 75158;
0230042010999992000020218004+77470-069220FM-12+001999999V0200901N013419999999N0003001N1-01421-01501100241ADDKA1120M-01401KA2120N-02061MA1999999099991MD1710371+9999OA149901751REMSYN152AAXX  02184 04201 4//03 /0926 11142 21150 39999 40024 57037 77371 333 11140 21206 91134 555 61995 62993 63998 64001 65014 71826 72859 73838 74810 75158;
0192042010999992000020221004+77470-069220FM-12+001999999V0200901N011319999999N0012001N1-01251-01341100011ADDMA1999999099761MD1710231+9999OA149901701REMSYN140AAXX  02214 04201 4//12 /0922 11125 21134 39976 40001 57023 75477 333 91133 555 61990 62990 63997 64996 65005 71012 72034 73022 74821 75051;
0198042010999992000020300004+77470-069220FM-12+001999999V0200901N007219999999N0017001N1-01131-01271099751ADDMA1999999099501MD1710261+9999OA149901701REMSYN146AAXX  03004 04201 4//17 /0914 11113 21127 39950 49975 57026 77777 333 91133 91226 555 61991 62990 63997 64991 65001 71017 72114 73046 74821 75415;
0198042010999992000020303004+77470-069220FM-12+001999999V0201501N003619999999N0038001N1-01191-01301099621ADDMA1999999099371MD1710131+9999OA149901491REMSYN146AAXX  03034 04201 4//38 /1507 11119 21130 39937 49962 57013 76477 333 91129 91218 555 61991 62990 63998 64996 65004 71038 72153 73064 74818 75153;
0229042010999992000020306004+77470-069220FM-12+001999999V0200901N004619999999N0019001N1-01161-01311099511ADDKA1120M-01081KA2120N-01531MA1999999099261MD1710111+9999OA149901491REMSYN151AAXX  03064 04201 4//19 /0909 11116 21131 39926 49951 57011 77177 333 11108 21153 91129 555 1995 62993 63998 64993 65002 71019 72075 73027 74818 75500;
0171042010999992000020309004+77470-069220FM-12+001999999V0200901N004119999999N0012001N1-01181-01281099471ADDMA1999999099221MD1710041+9999REMSYN130AAXX  03094 04201 4//12 /0908 11118 21128 39922 49947 57004 77177 555 61001 62997 63002 64002 65021 71012 72018 73015 74010 75064;
0171042010999992000020312004+77470-069220FM-12+001999999V0200901N005119999999N0018001N1-01171-01271099461ADDMA1999999099211MD1710011+9999REMSYN130AAXX  03124 04201 4//18 /0910 11117 21127 39921 49946 57001 77177 555 61995 62993 63002 64001 65009 71018 72024 73020 74892 75064;
0171042010999992000020315004+77470-069220FM-12+001999999V0203001N001519999999N0009001N1-01411-01491099561ADDMA1999999099311MD1210101+9999REMSYN130AAXX  03154 04201 4//09 /3003 11141 21149 39931 49956 52010 76477 555 61001 62996 63002 64001 65011 71895 72017 73013 74852 75031;
0213042010999992000020318004+77470-069220FM-12+001999999V0202801N001519999999N0015001N1-01411-01481099531ADDKA1120M-01141KA2120N-01581MA1999999099281MD1710031+9999REMSYN146AAXX  03184 04201 4//15 /2803 11141 21148 39928 49953 57003 76477 333 11114 21158 555 61993 62992 63006 64001 65007 71015 72021 73018 74836 75042;
0171042010999992000020321004+77470-069220FM-12+001999999V0203101N003119999999N0031001N1-01451-01521099601ADDMA1999999099351MD1210071+9999REMSYN130AAXX  03214 04201 4//31 /3106 11145 21152 39935 49960 52007 76476 555 61991 62990 63995 64994 65002 71031 72059 73036 74016 75059;
0165042010999992000020400004+77470-069220FM-12+001999999V0203001N002619999999N0030001N1-01541-01621099601ADDMA1999999099351MD1410001+9999REMSYN124AAXX  04004 04201 4//30 /3005 11154 21162 39935 49960 54000 76476 555 61991 62990 63995 64990 71030 72046 73033 74016 75094;
0171042010999992000020403004+77470-069220FM-12+001999999V0203001N004119999999N0032001N1-01581-01661099531ADDMA1999999099281MD1710071+9999REMSYN130AAXX  04034 04201 4//32 /3008 11158 21166 39928 49953 57007 77777 555 61990 62990 63996 64992 65002 71032 72078 73039 74019 75111;
0207042010999992000020406004+77470-069220FM-12+001999999V0202901N002119999999N0120001N1-01601-01681099391ADDKA1120M-01401KA2120N-01641MA1999999099141MD1710141+9999REMSYN140AAXX  04064 04201 4//62 /2904 11160 21168 39914 49939 57014 75477 333 11140 21164 555 61990 62990 63996 64990 71129 72216 73159 74019 75216;
0153042010999992000020409004+77470-069220FM-12+001999999V0203301N002119999999N0060001N1-01641-01731099251ADDMA1999999099001MD1710141+9999REMSYN112AAXX  04094 04201 4//56 /3304 11164 21173 39900 49925 57014 75475 555 63990 64990 71068 72110 73092 74026 75201;
0165042010999992000020412004+77470-069220FM-12+001999999V0203201N002119999999N0050001N1-01671-01771099111ADDMA1999999098861MD1710141+9999REMSYN124AAXX  04124 04201 4//50 /3204 11167 21177 39886 49911 57014 75475 555 61990 62990 63990 64990 71057 72081 73071 74026 75201;
0171042010999992000020415004+77470-069220FM-12+001999999V0200701N000519999999N0080001N1-01771-01871098921ADDMA1999999098671MD1710191+9999REMSYN130AAXX  04154 04201 4//58 /0701 11177 21187 39867 49892 57019 77175 555 61990 62990 63054 64990 65001 71081 72372 73206 74028 75372;
0195042010999992000020418004+77470-069220FM-12+001999999V0209999C000019999999N0090001N1-01941-02041098701ADDKA1120M-01561KA2120N-02131MA1999999098451MD1710221+9999REMSYN128AAXX  04184 04201 4//59 /0000 11194 21204 39845 49870 57022 77775 333 11156 21213 555 63054 64990 71099 72249 73144 74028 75500;
0147042010999992000020421004+77470-069220FM-12+001999999V0200801N001019999999N0500001N1-02021-02141098531ADDMA1999999098281MD1710171+9999REMSYN106AAXX  04214 04201 4//84 /0802 11202 21214 39828 49853 57017 70077 555 60/// 71500 72500 73500 74170 75500;
0147042010999992000020500004+77470-069220FM-12+001999999V0209999C000019999999N0450001N1-02291-02401098381ADDMA1999999098131MD1710151+9999REMSYN106AAXX  05004 04201 4//83 /0000 11229 21240 39813 49838 57015 70077 555 60/// 71487 72500 73500 74170 75500;
0141042010999992000020503004+77470-069220FM-12+001999999V0200801N000519999999N0080001N1-02611-02711098251ADDMA1999999097991MD1710141+9999REMSYN100AAXX  05034 04201 45/58 /0801 11261 21271 39799 49825 57014 555 60/// 71089 72498 73211 74089 75500;
0183042010999992000020506004+77470-069220FM-12+001999999V0200801N000519999999N0450001N1-02311-02411098071ADDKA1120M-01871KA2120N-02641MA1999999097821MD1710171+9999REMSYN116AAXX  05064 04201 45/83 /0801 11231 21241 39782 49807 57017 333 11187 21264 555 60/// 71489 72500 73500 74086 75500;
0141042010999992000020509004+77470-069220FM-12+001999999V0200801N000519999999N0450001N1-02471-02571098001ADDMA1999999097751MD1710071+9999REMSYN100AAXX  05094 04201 45/83 /0801 11247 21257 39775 49800 57007 555 60/// 71488 72500 73500 74458 75500;
0141042010999992000020512004+77470-069220FM-12+001999999V0209999C000019999999N0450001N1-02431-02541097891ADDMA1999999097641MD1710111+9999REMSYN100AAXX  05124 04201 45/83 /0000 11243 21254 39764 49789 57011 555 60/// 71495 72500 73500 74456 75500;
0141042010999992000020515004+77470-069220FM-12+001999999V0200601N001019999999N0400001N1-02361-02461097871ADDMA1999999097621MD1710021+9999REMSYN100AAXX  05154 04201 45/82 /0602 11236 21246 39762 49787 57002 555 60/// 71443 72500 73500 74423 75500;
0183042010999992000020518004+77470-069220FM-12+001999999V0200501N000519999999N0500001N1-02121-02231097891ADDKA1120M-02051KA2120N-02501MA1999999097641MD1210021+9999REMSYN116AAXX  05184 04201 45/84 /0501 11212 21223 39764 49789 52002 333 11205 21250 555 60/// 71500 72500 73500 74306 75500;
0141042010999992000020521004+77470-069220FM-12+001999999V0200501N000519999999N0450001N1-02161-02271098061ADDMA1999999097811MD1210171+9999REMSYN100AAXX  05214 04201 45/83 /0501 11216 21227 39781 49806 52017 555 60/// 71485 72500 73500 74387 75500;
0141042010999992000020600004+77470-069220FM-12+001999999V0209999C000019999999N0450001N1-01991-02121098281ADDMA1999999098031MD1210221+9999REMSYN100AAXX  06004 04201 45/83 /0000 11199 21212 39803 49828 52022 555 60/// 71494 72500 73500 74387 75500;
0141042010999992000020603004+77470-069220FM-12+001999999V0201001N001019999999N0450001N1-02031-02141098431ADDMA1999999098181MD1210151+9999REMSYN100AAXX  06034 04201 45/83 /1002 11203 21214 39818 49843 52015 555 63015 71458 72500 73500 74441 75500;
0189042010999992000020606004+77470-069220FM-12+001999999V0203001N001519999999N0270001N1-01991-02111098561ADDKA1120M-01711KA2120N-02271MA1999999098311MD1210131+9999REMSYN122AAXX  06064 04201 4//77 /3003 11199 21211 39831 49856 52013 77770 333 11171 21227 555 63015 71279 72500 73500 74231 75500;
0165042010999992000020609004+77470-069220FM-12+001999999V0201101N001019999999N0033001N1-01981-02091098751ADDMA1999999098501MD1210191+9999REMSYN124AAXX  06094 04201 4//33 /1102 11198 21209 39850 49875 52019 77177 555 61990 62990 63990 64990 71033 72058 73041 74028 75500;
0165042010999992000020612004+77470-069220FM-12+001999999V0203001N001519999999N0032001N1-02031-02131098871ADDMA1999999098621MD1210121+9999REMSYN124AAXX  06124 04201 4//32 /3003 11203 21213 39862 49887 52012 77177 555 61990 62990 63993 64990 71032 72066 73043 74028 75500;
0159042010999992000020615004+77470-069220FM-12+001999999V0200501N000519999999N0300001N1-02151-02251098891ADDMA1999999098641MD1210021+9999REMSYN118AAXX  06154 04201 4//80 /0501 11215 21225 39864 49889 52002 77777 555 63994 64990 65001 71335 72500 73438 74034 75500;
0189042010999992000020618004+77470-069220FM-12+001999999V0202701N000519999999N0160001N1-02151-02251098831ADDKA1120M-01881KA2120N-02341MA1999999098581MD1710061+9999REMSYN122AAXX  06184 04201 4//66 /2701 11215 21225 39858 49883 57006 70077 333 11188 21234 555 63994 71167 72312 73212 74034 75500;
0147042010999992000020621004+77470-069220FM-12+001999999V0202701N000519999999N0190001N1-02301-02401098791ADDMA1999999098541MD1710041+9999REMSYN106AAXX  06214 04201 4//69 /2701 11230 21240 39854 49879 57004 70070 555 63990 71195 72500 73417 74082 75500;
0147042010999992000020700004+77470-069220FM-12+001999999V0202701N000519999999N0400001N1-02331-02431098651ADDMA1999999098401MD1710141+9999REMSYN106AAXX  07004 04201 4//82 /2701 11233 21243 39840 49865 57014 70070 555 63990 71435 72500 73500 74082 75500;
0141042010999992000020703004+77470-069220FM-12+001999999V0202701N000519999999N0400001N1-02621-02721098521ADDMA1999999098261MD1710141+9999REMSYN100AAXX  07034 04201 45/82 /2701 11262 21272 39826 49852 57014 555 60/// 71437 72500 73500 74020 75500;
0183042010999992000020706004+77470-069220FM-12+001999999V0203601N001019999999N0500001N1-02221-02331098301ADDKA1120M-01981KA2120N-02861MA1999999098051MD1710211+9999REMSYN116AAXX  07064 04201 45/84 /3602 11222 21233 39805 49830 57021 333 11198 21286 555 60/// 71500 72500 73500 74020 75500;
0151042010999992000020709004+77470-069220FM-12+001999999V0202901N001019999999N0500001N1-02451-02581098251ADDMA1999999098001MD1710051+9999REMSYN110AAXX  07094 04201 45/84 /2902 11245 21258 39800 49825 57005 333 91213 555 60/// 71500 72500 73500 74366 75500;
0151042010999992000020712004+77470-069220FM-12+001999999V0202201N001019999999N0500001N1-02511-02651098261ADDMA1999999098001MD1410001+9999REMSYN110AAXX  07124 04201 45/84 /2202 11251 21265 39800 49826 54000 333 91213 555 60/// 71500 72500 73500 74366 75500;
0141042010999992000020715004+77470-069220FM-12+001999999V0202601N001019999999N0450001N1-02481-02601098261ADDMA1999999098001MD1410001+9999REMSYN100AAXX  07154 04201 45/83 /2602 11248 21260 39800 49826 54000 555 60/// 71481 72500 73500 74275 75500;
0183042010999992000020718004+77470-069220FM-12+001999999V0203001N001519999999N0450001N1-02421-02541098291ADDKA1120M-01901KA2120N-02731MA1999999098041MD1210041+9999REMSYN116AAXX  07184 04201 45/83 /3003 11242 21254 39804 49829 52004 333 11190 21273 555 60/// 71468 72500 73500 74275 75500;
0141042010999992000020721004+77470-069220FM-12+001999999V0201701N000519999999N0000001N1-02711-02851098391ADDMA1999999098131MD1210091+9999REMSYN100AAXX  07214 04201 45/00 /1701 11271 21285 39813 49839 52009 555 60/// 71900 72500 73500 74900 75500;
0141042010999992000020800004+77470-069220FM-12+001999999V0202801N001019999999N0500001N1-02651-02771098451ADDMA1999999098191MD1210061+9999REMSYN100AAXX  08004 04201 45/84 /2802 11265 21277 39819 49845 52006 555 60/// 71500 72500 73500 74900 75500;
0141042010999992000020803004+77470-069220FM-12+001999999V0203001N000519999999N0450001N1-02671-02801098511ADDMA1999999098251MD1210061+9999REMSYN100AAXX  08034 04201 45/83 /3001 11267 21280 39825 49851 52006 555 60/// 71497 72500 73500 74298 75500;
0183042010999992000020806004+77470-069220FM-12+001999999V0200101N000519999999N0500001N1-02271-02431098601ADDKA1120M-02061KA2120N-03031MA1999999098351MD1210101+9999REMSYN116AAXX  08064 04201 45/84 /0101 11227 21243 39835 49860 52010 333 11206 21303 555 63015 71500 72500 73500 74298 75500;
0142042010999992000020903004+77470-069220FM-12+001999999V0202901N001519999999N0500001N1-02651-02851098591ADDMA1999999098331OA149900771REMSYN104AAXX  09034 04201 45/84 /2903 11265 21285 39833 49859 333 91115 555 60/// 71500 72500 73500 74900 75500;
0200042010999992000020906004+77470-069220FM-12+001999999V0203401N002619999999N0500001N1-02041-02251098341ADDKA1120M-01911KA2120N-03011MA1999999098091MD1710241+9999OA149900771REMSYN122AAXX  09064 04201 45/84 /3405 11204 21225 39809 49834 57024 333 11191 21301 91115 555 60/// 71500 72500 73500 74900 75500;
0141042010999992000020909004+77470-069220FM-12+001999999V0201201N001519999999N0500001N1-02461-02651098071ADDMA1999999097821MD1710271+9999REMSYN100AAXX  09094 04201 45/84 /1203 11246 21265 39782 49807 57027 555 60/// 71500 72500 73500 74500 75500;
0147042010999992000020912004+77470-069220FM-12+001999999V0200101N002119999999N0450001N1-02121-02321097781ADDMA1999999097531MD1710291+9999REMSYN106AAXX  09124 04201 4//83 /0104 11212 21232 39753 49778 57029 72470 555 63990 71476 72500 73500 74300 75500;
0147042010999992000020915004+77470-069220FM-12+001999999V0201101N006219999999N0300001N1-02181-02401097621ADDMA1999999097371MD1710161+9999REMSYN106AAXX  09154 04201 4//80 /1112 11218 21240 39737 49762 57016 71170 555 60/// 71345 72500 73490 74222 75500;
0195042010999992000020918004+77470-069220FM-12+001999999V0203101N001019999999N0450001N1-02191-02381097711ADDKA1120M-01871KA2120N-03071MA1999999097461MD1210091+9999REMSYN128AAXX  09184 04201 4//83 /3102 11219 21238 39746 49771 52009 70070 333 11187 21307 91213 555 60/// 71468 72500 73500 74083 75500;
0141042010999992000020921004+77470-069220FM-12+001999999V0203001N001519999999N0450001N1-02161-02341098061ADDMA1999999097811MD1210351+9999REMSYN100AAXX  09214 04201 45/83 /3003 11216 21234 39781 49806 52035 555 60/// 71461 72500 73500 74083 75500;
0147042010999992000021000004+77470-069220FM-12+001999999V0202901N004619999999N0400001N1-01821-02041098351ADDMA1999999098101MD1210291+9999REMSYN106AAXX  10004 04201 4//82 /2909 11182 21204 39810 49835 52029 72470 555 63990 71447 72500 73500 74073 75500;
0141042010999992000021003004+77470-069220FM-12+001999999V0202901N002619999999N0500001N1-02201-02331098521ADDMA1999999098271MD1210171+9999REMSYN100AAXX  10034 04201 45/84 /2905 11220 21233 39827 49852 52017 555 60/// 71500 72500 73500 74900 75500;
0183042010999992000021006004+77470-069220FM-12+001999999V0203201N001519999999N0500001N1-01601-01691098601ADDKA1120M-01601KA2120N-02281MA1999999098351MD1210081+9999REMSYN116AAXX  10064 04201 45/84 /3203 11160 21169 39835 49860 52008 333 11160 21228 555 60/// 71500 72500 73500 74900 75500;
0141042010999992000021009004+77470-069220FM-12+001999999V0201201N000519999999N0450001N1-02031-02121098711ADDMA1999999098461MD1210111+9999REMSYN100AAXX  10094 04201 45/83 /1201 11203 21212 39846 49871 52011 555 60/// 71474 72500 73500 74370 75500;
0141042010999992000021012004+77470-069220FM-12+001999999V0203401N001019999999N0450001N1-01871-01971098821ADDMA1999999098571MD1210111+9999REMSYN100AAXX  10124 04201 45/83 /3402 11187 21197 39857 49882 52011 555 60/// 71463 72500 73500 74302 75500;
0141042010999992000021015004+77470-069220FM-12+001999999V0203001N001019999999N0280001N1-01901-02001098891ADDMA1999999098641MD1210071+9999REMSYN100AAXX  10154 04201 45/78 /3002 11190 21200 39864 49889 52007 555 60/// 71289 72500 73435 74289 75500;
0183042010999992000021018004+77470-069220FM-12+001999999V0200701N000519999999N0260001N1-02061-02151098981ADDKA1120M-01491KA2120N-02321MA1999999098731MD1210091+9999REMSYN116AAXX  10184 04201 45/76 /0701 11206 21215 39873 49898 52009 333 11149 21232 555 60/// 71263 72500 73487 74151 75500;
0141042010999992000021021004+77470-069220FM-12+001999999V0201601N000519999999N0450001N1-02261-02361098921ADDMA1999999098671MD1710061+9999REMSYN100AAXX  10214 04201 45/83 /1601 11226 21236 39867 49892 57006 555 60/// 71489 72500 73500 74078 75500;
0141042010999992000021100004+77470-069220FM-12+001999999V0201301N000519999999N0500001N1-01851-01941098851ADDMA1999999098601MD1710071+9999REMSYN100AAXX  11004 04201 45/84 /1301 11185 21194 39860 49885 57007 555 60/// 71500 72500 73500 74078 75500;
0141042010999992000021103004+77470-069220FM-12+001999999V0203101N000519999999N0500001N1-02281-02391098791ADDMA1999999098541MD1710061+9999REMSYN100AAXX  11034 04201 45/84 /3101 11228 21239 39854 49879 57006 555 60/// 71500 72500 73500 74495 75500;
0183042010999992000021106004+77470-069220FM-12+001999999V0201101N001019999999N0500001N1-01711-01871098751ADDKA1120M-01431KA2120N-02391MA1999999098501MD1710041+9999REMSYN116AAXX  11064 04201 45/84 /1102 11171 21187 39850 49875 57004 333 11143 21239 555 60/// 71500 72500 73500 74168 75500;
0141042010999992000021109004+77470-069220FM-12+001999999V0200401N000519999999N0500001N1-02141-02261098801ADDMA1999999098551MD1210051+9999REMSYN100AAXX  11094 04201 45/84 /0401 11214 21226 39855 49880 52005 555 60/// 71500 72500 73500 74498 75500;
0141042010999992000021112004+77470-069220FM-12+001999999V0203201N001019999999N0450001N1-02191-02301098871ADDMA1999999098621MD1210071+9999REMSYN100AAXX  11124 04201 45/83 /3202 11219 21230 39862 49887 52007 555 60/// 71499 72500 73500 74443 75500;
0141042010999992000021115004+77470-069220FM-12+001999999V0203101N000519999999N0450001N1-02001-02131099011ADDMA1999999098761MD1210141+9999REMSYN100AAXX  11154 04201 45/83 /3101 11200 21213 39876 49901 52014 555 60/// 71495 72500 73500 74058 75500;
0183042010999992000021118004+77470-069220FM-12+001999999V0200701N001019999999N0500001N1-02011-02161099151ADDKA1120M-01591KA2120N-02341MA1999999098901MD1210141+9999REMSYN116AAXX  11184 04201 45/84 /0702 11201 21216 39890 49915 52014 333 11159 21234 555 60/// 71500 72500 73500 74058 75500;
0141042010999992000021121004+77470-069220FM-12+001999999V0203301N001519999999N0300001N1-01641-01841099331ADDMA1999999099081MD1210181+9999REMSYN100AAXX  11214 04201 45/80 /3303 11164 21184 39908 49933 52018 555 60/// 71348 72500 73500 74104 75500;
0141042010999992000021200004+77470-069220FM-12+001999999V0201501N000519999999N0500001N1-01831-02031099551ADDMA1999999099301MD1210221+9999REMSYN100AAXX  12004 04201 45/84 /1501 11183 21203 39930 49955 52022 555 60/// 71500 72500 73500 74104 75500;
0162042010999992000021203004+77470-069220FM-12+001999999V0200901N006219999999N0500001N1-00821-01351099741ADDMA1999999099501MD1210201+9999OA149901081REMSYN110AAXX  12034 04201 45/84 /0912 11082 21135 39950 49974 52020 333 91121 555 60/// 71500 72500 73500 74469 75500;
0200042010999992000021206004+77470-069220FM-12+001999999V0201101N008719999999N0500001N1-00911-01541099911ADDKA1120M-00691KA2120N-02391MA1999999099671MD1210171+9999OA149901081REMSYN122AAXX  12064 04201 45/84 /1117 11091 21154 39967 49991 52017 333 11069 21239 91121 555 60/// 71500 72500 73500 74236 75500;
0141042010999992000021209004+77470-069220FM-12+001999999V0201001N006719999999N0500001N1-00951-01581100211ADDMA1999999099961MD1210291+9999REMSYN100AAXX  12094 04201 45/84 /1013 11095 21158 39996 40021 52029 555 60/// 71500 72500 73500 74302 75500;
0131042010999992000021212004+77470-069220FM-12+001999999V0202801N000519999999N0500001N1-01541-01961100481ADDMA1999999100231REMSYN104AAXX  12124 04201 45/84 /2801 11154 21196 30023 40048 333 91215 555 60/// 71500 72500 73500 74490 75500;
0141042010999992000021215004+77470-069220FM-12+001999999V0202701N001019999999N0450001N1-01801-02171100691ADDMA1999999100441MD1210211+9999REMSYN100AAXX  12154 04201 45/83 /2702 11180 21217 30044 40069 52021 555 60/// 71494 72500 73500 74487 75500;
0213042010999992000021218004+77470-069220FM-12+001999999V0203101N004119999999N0012001N1-01211-01311100761ADDKA1120M-00911KA2120N-02041MA1999999100511MD1210071+9999REMSYN146AAXX  12184 04201 4//12 /3108 11121 21131 30051 40076 52007 77170 333 11091 21204 555 61998 62995 63998 64992 65002 71012 72024 73018 74012 75500;
0171042010999992000021221004+77470-069220FM-12+001999999V0201201N002119999999N0012001N1-01291-01441100851ADDMA1999999100601MD1210091+9999REMSYN130AAXX  12214 04201 4//12 /1204 11129 21144 30060 40085 52009 76777 555 61998 62993 63999 64995 65006 71012 72017 73014 74010 75158;
0171042010999992000021300004+77470-069220FM-12+001999999V0201101N003619999999N0030001N1-01451-01571100791ADDMA1999999100541MD1710061+9999REMSYN130AAXX  13004 04201 4//30 /1107 11145 21157 30054 40079 57006 77177 555 61991 62990 63002 64001 65018 71030 72048 73033 74010 75158;
0165042010999992000021303004+77470-069220FM-12+001999999V0201001N005719999999N0130001N1-01351-01571100801ADDMA1999999100551MD1210011+9999REMSYN124AAXX  13034 04201 4//63 /1011 11135 21157 30055 40080 52001 77777 555 61990 62990 63992 64990 71136 72217 73154 74027 75344;
0213042010999992000021306004+77470-069220FM-12+001999999V0201001N007219999999N0026001N1-01461-01651100781ADDKA1120M-01101KA2120N-01581MA1999999100531MD1710021+9999REMSYN146AAXX  13064 04201 4//26 /1014 11146 21165 30053 40078 57002 77777 333 11110 21158 555 61990 62990 63992 64991 65001 71026 72048 73036 74026 75344;
0121042010999992000021403004+77470-069220FM-12+001999999V0201301N000519999999N0500001N1-02131-02371099851ADDMA1999999099591REMSYN094AAXX  14034 04201 45/84 /1301 11213 21237 39959 49985 555 60/// 71500 72500 73500 74500 75500;
0183042010999992000021406004+77470-069220FM-12+001999999V0202901N001019999999N0500001N1-02291-02531099941ADDKA1120M-01941KA2120N-02671MA1999999099681MD1210091+9999REMSYN116AAXX  14064 04201 45/84 /2902 11229 21253 39968 49994 52009 333 11194 21267 555 63017 71500 72500 73500 74500 75500;
0141042010999992000021412004+77470-069220FM-12+001999999V0202701N001019999999N0500001N1-02451-02681100201ADDMA1999999099941MD1210131+9999REMSYN100AAXX  14124 04201 45/84 /2702 11245 21268 39994 40020 52013 555 60/// 71500 72500 73500 74490 75500;
0141042010999992000021415004+77470-069220FM-12+001999999V0203601N000519999999N0500001N1-02511-02701100381ADDMA1999999100121MD1210181+9999REMSYN100AAXX  14154 04201 45/84 /3601 11251 21270 30012 40038 52018 555 60/// 71500 72500 73500 74500 75500;
0183042010999992000021418004+77470-069220FM-12+001999999V0201901N001019999999N0500001N1-02551-02791100441ADDKA1120M-01831KA2120N-02721MA1999999100181MD1210061+9999REMSYN116AAXX  14184 04201 45/84 /1902 11255 21279 30018 40044 52006 333 11183 21272 555 60/// 71500 72500 73500 74482 75500;
0141042010999992000021421004+77470-069220FM-12+001999999V0201501N000519999999N0500001N1-02641-02901100631ADDMA1999999100371MD1210191+9999REMSYN100AAXX  14214 04201 45/84 /1501 11264 21290 30037 40063 52019 555 60/// 71500 72500 73500 74410 75500;
0121042010999992000021503004+77470-069220FM-12+001999999V0203301N000519999999N0500001N1-02101-02381100901ADDMA1999999100641REMSYN094AAXX  15034 04201 45/84 /3301 11210 21238 30064 40090 555 60/// 71500 72500 73500 74500 75500;
0183042010999992000021506004+77470-069220FM-12+001999999V0200101N001019999999N0500001N1-02031-02221100951ADDKA1120M-01981KA2120N-02221MA1999999100691MD1210051+9999REMSYN116AAXX  15064 04201 45/84 /0102 11203 21222 30069 40095 52005 333 11198 21222 555 60/// 71500 72500 73500 74500 75500;
0141042010999992000021509004+77470-069220FM-12+001999999V0203201N000519999999N0450001N1-02231-02371101141ADDMA1999999100881MD1210191+9999REMSYN100AAXX  15094 04201 45/83 /3201 11223 21237 30088 40114 52019 555 60/// 71497 72500 73500 74479 75500;
0141042010999992000021512004+77470-069220FM-12+001999999V0202201N000519999999N0450001N1-02091-02261101441ADDMA1999999101181MD1210301+9999REMSYN100AAXX  15124 04201 45/83 /2201 11209 21226 30118 40144 52030 555 60/// 71498 72500 73500 74474 75500;
0159042010999992000021515004+77470-069220FM-12+001999999V0200701N001519999999N0130001N1-01881-02121101801ADDMA1999999101541MD1210361+9999REMSYN118AAXX  15154 04201 4//63 /0703 11188 21212 30154 40180 52036 77770 555 61990 62990 63990 71138 72271 73224 74138 75500;
0195042010999992000021518004+77470-069220FM-12+001999999V0201001N001519999999N0300001N1-01831-02061102231ADDKA1120M-01771KA2120N-02511MA1999999101971MD1210431+9999REMSYN128AAXX  15184 04201 4//80 /1003 11183 21206 30197 40223 52043 77770 333 11177 21251 555 63990 64990 71331 72500 73424 74068 75500;
0159042010999992000021521004+77470-069220FM-12+001999999V0200501N003119999999N0170001N1-01771-02051102601ADDMA1999999102341MD1210371+9999REMSYN118AAXX  15214 04201 4//67 /0506 11177 21205 30234 40260 52037 77777 555 63990 64990 65001 71176 72263 73211 74045 75500;
0147042010999992000021600004+77470-069220FM-12+001999999V0200801N005719999999N0130001N1-01861-02131102821ADDMA1999999102561MD1210221+9999REMSYN106AAXX  16004 04201 4//63 /0811 11186 21213 30256 40282 52022 70077 555 63990 71133 72428 73308 74045 75500;
0141042010999992000021603004+77470-069220FM-12+001999999V0200701N005719999999N0500001N1-01971-02301102891ADDMA1999999102631MD1210071+9999REMSYN100AAXX  16034 04201 45/84 /0711 11197 21230 30263 40289 52007 555 60/// 71500 72500 73500 74119 75500;
0189042010999992000021606004+77470-069220FM-12+001999999V0203101N001019999999N0500001N1-02221-02441102951ADDKA1120M-01711KA2120N-02541MA1999999102691MD1210061+9999REMSYN122AAXX  16064 04201 45/84 /3102 11222 21244 30269 40295 52006 333 11171 21254 91214 555 60/// 71500 72500 73500 74114 75500;
0123042010999992000021609004+77470-069220FM-12+001999999V0201501N000519999999N9999999N1-02571-02731102951ADDMA1999999102681MD1710011+9999REMSYN082AAXX  16094 04201 45/// /1501 11257 21273 30268 40295 57001 555 73500 74500 75500;
0141042010999992000021612004+77470-069220FM-12+001999999V0201501N000519999999N0500001N1-02531-02741102741ADDMA1999999102471MD1710211+9999REMSYN100AAXX  16124 04201 45/84 /1501 11253 21274 30247 40274 57021 555 60/// 71500 72500 73500 74500 75500;
0141042010999992000021615004+77470-069220FM-12+001999999V0209999C000019999999N0270001N1-02511-02711102511ADDMA1999999102241MD1710231+9999REMSYN100AAXX  16154 04201 45/77 /0000 11251 21271 30224 40251 57023 555 60/// 71275 72500 73500 74275 75500;
0183042010999992000021618004+77470-069220FM-12+001999999V0209999C000019999999N0500001N1-02671-02871102201ADDKA1120M-02081KA2120N-02801MA1999999101931MD1710311+9999REMSYN116AAXX  16184 04201 45/84 /0000 11267 21287 30193 40220 57031 333 11208 21280 555 60/// 71500 72500 73500 74275 75500;
0151042010999992000021621004+77470-069220FM-12+001999999V0203201N001019999999N0500001N1-02391-02681101981ADDMA1999999101721MD1710211+9999REMSYN110AAXX  16214 04201 45/84 /3202 11239 21268 30172 40198 57021 333 91212 555 60/// 71500 72500 73500 74301 75500;
0151042010999992000021700004+77470-069220FM-12+001999999V0203601N002119999999N0500001N1-02261-02651101821ADDMA1999999101561MD1710161+9999REMSYN110AAXX  17004 04201 45/84 /3604 11226 21265 30156 40182 57016 333 91216 555 60/// 71500 72500 73500 74155 75500;
0121042010999992000021703004+77470-069220FM-12+001999999V0201201N001519999999N0500001N1-02411-02701101711ADDMA1999999101451REMSYN094AAXX  17034 04201 45/84 /1203 11241 21270 30145 40171 555 60/// 71500 72500 73500 74493 75500;
0183042010999992000021706004+77470-069220FM-12+001999999V0201801N000519999999N0500001N1-02461-02741101591ADDKA1120M-02411KA2120N-02701MA1999999101331MD1710121+9999REMSYN116AAXX  17064 04201 45/84 /1801 11246 21274 30133 40159 57012 333 11241 21270 555 60/// 71500 72500 73500 74490 75500;
0141042010999992000021709004+77470-069220FM-12+001999999V0202501N000519999999N0500001N1-02351-02701101501ADDMA1999999101241MD1710091+9999REMSYN100AAXX  17094 04201 45/84 /2501 11235 21270 30124 40150 57009 555 60/// 71500 72500 73500 74050 75500;
0141042010999992000021712004+77470-069220FM-12+001999999V0203101N000519999999N0500001N1-02551-02851101441ADDMA1999999101181MD1710061+9999REMSYN100AAXX  17124 04201 45/84 /3101 11255 21285 30118 40144 57006 555 60/// 71500 72500 73500 74050 75500;
0141042010999992000021715004+77470-069220FM-12+001999999V0200501N000519999999N0450001N1-02391-02671101361ADDMA1999999101101MD1710081+9999REMSYN100AAXX  17154 04201 45/83 /0501 11239 21267 30110 40136 57008 555 60/// 71465 72500 73500 74334 75500;
0183042010999992000021718004+77470-069220FM-12+001999999V0203001N001519999999N0450001N1-02531-02841101321ADDKA1120M-02241KA2120N-02871MA1999999101061MD1710041+9999REMSYN116AAXX  17184 04201 45/83 /3003 11253 21284 30106 40132 57004 333 11224 21287 555 60/// 71482 72500 73500 74334 75500;
0141042010999992000021721004+77470-069220FM-12+001999999V0202501N000519999999N0500001N1-02561-02891101411ADDMA1999999101151MD1210091+9999REMSYN100AAXX  17214 04201 45/84 /2501 11256 21289 30115 40141 52009 555 60/// 71500 72500 73500 74440 75500;
0141042010999992000021800004+77470-069220FM-12+001999999V0202501N001519999999N0500001N1-02491-02821101441ADDMA1999999101181MD1210031+9999REMSYN100AAXX  18004 04201 45/84 /2503 11249 21282 30118 40144 52003 555 60/// 71500 72500 73500 74440 75500;
0141042010999992000021803004+77470-069220FM-12+001999999V0201301N000519999999N0500001N1-02761-03041101381ADDMA1999999101111MD1710071+9999REMSYN100AAXX  18034 04201 45/84 /1301 11276 21304 30111 40138 57007 555 60/// 71500 72500 73500 74450 75500;
0183042010999992000021806004+77470-069220FM-12+001999999V0201301N002119999999N0500001N1-02351-02651101401ADDKA1120M-02221KA2120N-02891MA1999999101141MD1210031+9999REMSYN116AAXX  18064 04201 45/84 /1304 11235 21265 30114 40140 52003 333 11222 21289 555 60/// 71500 72500 73500 74450 75500;
0141042010999992000021809004+77470-069220FM-12+001999999V0203301N000519999999N0500001N1-02481-02741101481ADDMA1999999101221MD1210081+9999REMSYN100AAXX  18094 04201 45/84 /3301 11248 21274 30122 40148 52008 555 60/// 71500 72500 73500 74500 75500;
0141042010999992000021812004+77470-069220FM-12+001999999V0202801N001519999999N0450001N1-02371-02641101581ADDMA1999999101321MD1210101+9999REMSYN100AAXX  18124 04201 45/83 /2803 11237 21264 30132 40158 52010 555 60/// 71456 72500 73500 74456 75500;
0141042010999992000021815004+77470-069220FM-12+001999999V0202901N001519999999N0500001N1-02201-02491101661ADDMA1999999101401MD1210081+9999REMSYN100AAXX  18154 04201 45/84 /2903 11220 21249 30140 40166 52008 555 60/// 71500 72500 73500 74493 75500;
0183042010999992000021818004+77470-069220FM-12+001999999V0202701N002619999999N0400001N1-01941-02291101721ADDKA1120M-01431KA2120N-02661MA1999999101461MD1210061+9999REMSYN116AAXX  18184 04201 45/82 /2705 11194 21229 30146 40172 52006 333 11143 21266 555 60/// 71412 72500 73500 74257 75500;
0141042010999992000021821004+77470-069220FM-12+001999999V0203001N003119999999N0500001N1-01871-02251101731ADDMA1999999101471MD1210011+9999REMSYN100AAXX  18214 04201 45/84 /3006 11187 21225 30147 40173 52001 555 60/// 71500 72500 73500 74196 75500;
0151042010999992000021900004+77470-069220FM-12+001999999V0203401N002619999999N0500001N1-01151-01721101701ADDMA1999999101451MD1710021+9999REMSYN110AAXX  19004 04201 45/84 /3405 11115 21172 30145 40170 57002 333 91217 555 60/// 71500 72500 73500 74194 75500;
0162042010999992000021903004+77470-069220FM-12+001999999V0203601N001019999999N0500001N1-01151-01691101601ADDMA1999999101351MD1710101+9999OA149900721REMSYN110AAXX  19034 04201 45/84 /3602 11115 21169 30135 40160 57010 333 91114 555 60/// 71500 72500 73500 74483 75500;
0200042010999992000021906004+77470-069220FM-12+001999999V0201301N001519999999N0500001N1-01331-01821101391ADDKA1120M-00871KA2120N-02071MA1999999101141MD1710211+9999OA149900721REMSYN122AAXX  19064 04201 45/84 /1303 11133 21182 30114 40139 57021 333 11087 21207 91114 555 60/// 71500 72500 73500 74481 75500;
0141042010999992000021909004+77470-069220FM-12+001999999V0201801N000519999999N0500001N1-01901-02271101231ADDMA1999999100971MD1710171+9999REMSYN100AAXX  19094 04201 45/84 /1801 11190 21227 30097 40123 57017 555 60/// 71500 72500 73500 74470 75500;
0141042010999992000021912004+77470-069220FM-12+001999999V0203601N000519999999N0500001N1-01851-02181101031ADDMA1999999100771MD1710201+9999REMSYN100AAXX  19124 04201 45/84 /3601 11185 21218 30077 40103 57020 555 60/// 71500 72500 73500 74432 75500;
0141042010999992000021915004+77470-069220FM-12+001999999V0201201N000519999999N0500001N1-01971-02291100771ADDMA1999999100511MD1710261+9999REMSYN100AAXX  19154 04201 45/84 /1201 11197 21229 30051 40077 57026 555 60/// 71500 72500 73500 74500 75500;
0183042010999992000021918004+77470-069220FM-12+001999999V0202901N000519999999N0500001N1-01501-01921100521ADDKA1120M-01181KA2120N-01981MA1999999100271MD1710241+9999REMSYN116AAXX  19184 04201 45/84 /2901 11150 21192 30027 40052 57024 333 11118 21198 555 60/// 71500 72500 73500 74454 75500;
0141042010999992000021921004+77470-069220FM-12+001999999V0201701N001019999999N0500001N1-01541-01931100251ADDMA1999999100001MD1710271+9999REMSYN100AAXX  19214 04201 45/84 /1702 11154 21193 30000 40025 57027 555 60/// 71500 72500 73500 74495 75500;
0141042010999992000022000004+77470-069220FM-12+001999999V0200801N000519999999N0500001N1-01621-01981100021ADDMA1999999099771MD1710231+9999REMSYN100AAXX  20004 04201 45/84 /0801 11162 21198 39977 40002 57023 555 60/// 71500 72500 73500 74494 75500;
0141042010999992000022003004+77470-069220FM-12+001999999V0201401N002119999999N0500001N1-01831-02111099831ADDMA1999999099581MD1710191+9999REMSYN100AAXX  20034 04201 45/84 /1404 11183 21211 39958 49983 57019 555 60/// 71500 72500 73500 74498 75500;
0183042010999992000022006004+77470-069220FM-12+001999999V0202901N001019999999N0500001N1-01641-01981099621ADDKA1120M-01311KA2120N-02051MA1999999099371MD1710211+9999REMSYN116AAXX  20064 04201 45/84 /2902 11164 21198 39937 49962 57021 333 11131 21205 555 60/// 71500 72500 73500 74498 75500;
0141042010999992000022009004+77470-069220FM-12+001999999V0202001N000519999999N0500001N1-01591-01951099491ADDMA1999999099241MD1710131+9999REMSYN100AAXX  20094 04201 45/84 /2001 11159 21195 39924 49949 57013 555 60/// 71500 72500 73500 74478 75500;
0141042010999992000022012004+77470-069220FM-12+001999999V0203401N001019999999N0500001N1-01641-01981099471ADDMA1999999099221MD1710021+9999REMSYN100AAXX  20124 04201 45/84 /3402 11164 21198 39922 49947 57002 555 60/// 71500 72500 73500 74478 75500;
0141042010999992000022015004+77470-069220FM-12+001999999V0203501N000519999999N0500001N1-01221-01661099381ADDMA1999999099131MD1710091+9999REMSYN100AAXX  20154 04201 45/84 /3501 11122 21166 39913 49938 57009 555 60/// 71500 72500 73500 74460 75500;
0183042010999992000022018004+77470-069220FM-12+001999999V0203501N001019999999N0400001N1-01101-01541099281ADDKA1120M-00641KA2120N-01991MA1999999099041MD1710091+9999REMSYN116AAXX  20184 04201 45/82 /3502 11110 21154 39904 49928 57009 333 11064 21199 555 60/// 71443 72500 73500 74443 75500;
0141042010999992000022021004+77470-069220FM-12+001999999V0203001N004119999999N0450001N1-01071-01511099301ADDMA1999999099061MD1210021+9999REMSYN100AAXX  20214 04201 45/83 /3008 11107 21151 39906 49930 52002 555 60/// 71470 72500 73500 74427 75500;
0162042010999992000022100004+77470-069220FM-12+001999999V0200901N009819999999N0210001N1-00241-01081099361ADDMA1999999099121MD1210061+9999OA149901391REMSYN110AAXX  21004 04201 45/71 /0919 11024 21108 39912 49936 52006 333 91127 555 63017 71217 72500 73374 74097 75799;
0147042010999992000022103004+77470-069220FM-12+001999999V0200801N012319999999N0035001N1-00311-01131099521ADDMA1999999099281MD1210161+9999REMSYN106AAXX  21034 04201 4//35 /0824 11031 21113 39928 49952 52016 72271 555 63990 71035 72183 73086 74021 75324;
0212042010999992000022106004+77470-069220FM-12+001999999V0200901N009819999999N0270001N1-00471-01281099661ADDKA1120M-00201KA2120N-01261MA1999999099421MD1210141+9999OA149901601REMSYN134AAXX  21064 04201 4//77 /0919 11047 21128 39942 49966 52014 70071 333 11020 21126 91131 555 63990 64990 71280 72451 73367 74021 75500;
0147042010999992000022109004+77470-069220FM-12+001999999V0201101N011319999999N0080001N1-00641-01471099791ADDMA1999999099551MD1210131+9999REMSYN106AAXX  21094 04201 4//58 /1122 11064 21147 39955 49979 52013 70010 555 60/// 71085 72276 73157 74052 75499;
0168042010999992000022115004+77470-069220FM-12+001999999V0201001N004619999999N0400001N1-00931-01701100001ADDMA1999999099761MD1210081+9999OA149900821REMSYN116AAXX  21154 04201 45/82 /1009 11093 21170 39976 40000 52008 333 91116 91220 555 60/// 71446 72500 73500 74446 75500;
0206042010999992000022118004+77470-069220FM-12+001999999V0203601N000519999999N0400001N1-01311-01871100081ADDKA1120M-00431KA2120N-01451MA1999999099831MD1210071+9999OA149900821REMSYN128AAXX  21184 04201 45/82 /3601 11131 21187 39983 40008 52007 333 11043 21145 91116 91220 555 60/// 71422 72500 73500 74399 75500;
0141042010999992000022121004+77470-069220FM-12+001999999V0202901N001019999999N0500001N1-01131-01761100171ADDMA1999999099921MD1210091+9999REMSYN100AAXX  21214 04201 45/84 /2902 11113 21176 39992 40017 52009 555 60/// 71500 72500 73500 74424 75500;
0141042010999992000022200004+77470-069220FM-12+001999999V0200701N003119999999N0500001N1-01061-01671100241ADDMA1999999099991MD1210071+9999REMSYN100AAXX  22004 04201 45/84 /0706 11106 21167 39999 40024 52007 555 60/// 71500 72500 73500 74424 75500;
0171042010999992000022203004+77470-069220FM-12+001999999V0200401N001519999999N0018001N1-00971-01211100391ADDMA1999999100141MD1210151+9999REMSYN130AAXX  22034 04201 4//18 /0403 11097 21121 30014 40039 52015 77170 555 61994 62992 63994 64992 65001 71018 72025 73020 74018 75500;
0195042010999992000022206004+77470-069220FM-12+001999999V0200601N003619999999N0400001N1-00721-01061100431ADDKA1120M-00711KA2120N-01311MA1999999100191MD1210051+9999REMSYN128AAXX  22064 04201 4//82 /0607 11072 21106 30019 40043 52005 72570 333 11071 21131 555 63994 64991 71433 72500 73500 74018 75500;
0141042010999992000022209004+77470-069220FM-12+001999999V0200801N003619999999N0240001N1-01001-01181100581ADDMA1999999100331MD1210141+9999REMSYN100AAXX  22094 04201 45/74 /0807 11100 21118 30033 40058 52014 555 60/// 71249 72500 73392 74099 75500;
0159042010999992000022212004+77470-069220FM-12+001999999V0200801N005719999999N0400001N1-00851-01291100661ADDMA1999999100411MD1210081+9999REMSYN118AAXX  22124 04201 4//82 /0811 11085 21129 30041 40066 52008 72270 555 63990 64990 65001 71449 72500 73500 74035 75500;
0141042010999992000022215004+77470-069220FM-12+001999999V0200801N005119999999N0450001N1-00901-01531100671ADDMA1999999100421MD1210011+9999REMSYN100AAXX  22154 04201 45/83 /0810 11090 21153 30042 40067 52001 555 60/// 71496 72500 73500 74403 75500;
0183042010999992000022218004+77470-069220FM-12+001999999V0200901N004619999999N0500001N1-01021-01611100621ADDKA1120M-00701KA2120N-01231MA1999999100371MD1710051+9999REMSYN116AAXX  22184 04201 45/84 /0909 11102 21161 30037 40062 57005 333 11070 21123 555 60/// 71500 72500 73500 74345 75500;
0141042010999992000022221004+77470-069220FM-12+001999999V0201301N001019999999N0450001N1-01301-01721100521ADDMA1999999100271MD1710101+9999REMSYN100AAXX  22214 04201 45/83 /1302 11130 21172 30027 40052 57010 555 60/// 71478 72500 73500 74348 75500;
0141042010999992000022300004+77470-069220FM-12+001999999V0201101N006719999999N0500001N1-01521-02031100441ADDMA1999999100191MD1710081+9999REMSYN100AAXX  23004 04201 45/84 /1113 11152 21203 30019 40044 57008 555 60/// 71500 72500 73500 74348 75500;
0141042010999992000022303004+77470-069220FM-12+001999999V0201001N007719999999N0500001N1-01411-02051100441ADDMA1999999100191MD1410001+9999REMSYN100AAXX  23034 04201 45/84 /1015 11141 21205 30019 40044 54000 555 60/// 71500 72500 73500 74469 75500;
0183042010999992000022306004+77470-069220FM-12+001999999V0200901N009819999999N0090001N1-01561-02161100441ADDKA1120M-00941KA2120N-01581MA1999999100191MD1410001+9999REMSYN116AAXX  23064 04201 45/59 /0919 11156 21216 30019 40044 54000 333 11094 21158 555 60/// 71093 72249 73135 74090 75500;
0141042010999992000022309004+77470-069220FM-12+001999999V0200801N008219999999N0500001N1-01651-02281100541ADDMA1999999100291MD1210101+9999REMSYN100AAXX  23094 04201 45/84 /0816 11165 21228 30029 40054 52010 555 60/// 71500 72500 73500 74107 75500;
0141042010999992000022312004+77470-069220FM-12+001999999V0200901N008219999999N0500001N1-01701-02341100601ADDMA1999999100351MD1210061+9999REMSYN100AAXX  23124 04201 45/84 /0916 11170 21234 30035 40060 52006 555 60/// 71500 72500 73500 74107 75500;
0141042010999992000022315004+77470-069220FM-12+001999999V0200901N007719999999N0500001N1-01671-02331100611ADDMA1999999100361MD1210011+9999REMSYN100AAXX  23154 04201 45/84 /0915 11167 21233 30036 40061 52001 555 60/// 71500 72500 73500 74500 75500;
