0245061100999992000010100004+55230+009270FM-12+0040EKSP V0202001N004110015019N0030001N1+00191+00061102011ADDAA106000091AY121061AY221061GA1021+001209079GA2051+001509079GF108991081061001501999999MA1999999101421MD1710111+9999MW1101REMSYN094AAXX  01004 06110 31230 82008 10019 20006 30142 40201 57011 71022 886// 333 82704 85705 88635;EQDQ01  00002PRCP06
0188061100999992000010100504+55230+009270FM-15+0040EKSP V0202001N004110015019N0030001N1+00201+00101999999ADDGA1021+001209999GA2071+001509999GA3071+002109999GF107991999999999999999999MA1101901999999MW1101REMMET062EKSP 010050Z 20008KT 3000 BR SCT004 BKN005 BKN007 02/01 Q1019;EQDQ01    003PRSWM1
0188061100999992000010101504+55230+009270FM-15+0040EKSP V0202101N003610015019N0030001N1+00201+00101999999ADDGA1021+001209999GA2071+001509999GA3071+002109999GF107991999999999999999999MA1101901999999MW1101REMMET062EKSP 010150Z 21007KT 3000 BR SCT004 BKN005 BKN007 02/01 Q1019;EQDQ01    003PRSWM1
0188061100999992000010102504+55230+009270FM-15+0040EKSP V0202001N003610015019N0030001N1+00201+00101999999ADDGA1021+001209999GA2071+001509999GA3071+002109999GF107991999999999999999999MA1101901999999MW1101REMMET062EKSP 010250Z 20007KT 3000 BR SCT004 BKN005 BKN007 02/01 Q1019;EQDQ01    003PRSWM1
0245061100999992000010103004+55230+009270FM-12+0040EKSP V0202101N004110015019N0030001N1+00211+00081101911ADDAA106000091AY121031AY221031GA1031+001209079GA2051+001509079GF108991081061001501999999MA1999999101321MD1710101+9999MW1101REMSYN094AAXX  01034 06110 31230 82108 10021 20008 30132 40191 57010 71022 886// 333 83704 85705 87707;EQDQ01  00002PRCP06
0188061100999992000010103504+55230+009270FM-15+0040EKSP V0202001N004110015019N0025001N1+00201+00101999999ADDGA1021+000909999GA2021+001209999GA3071+001509999GF107991999999999999999999MA1101801999999MW1101REMMET062EKSP 010350Z 20008KT 2500 BR FEW003 SCT004 BKN005 02/01 Q1018;EQDQ01    003PRSWM1
0188061100999992000010104504+55230+009270FM-15+0040EKSP V0201901N004610015019N0025001N1+00301+00101999999ADDGA1021+000909999GA2021+001209999GA3071+001509999GF107991999999999999999999MA1101691999999MW1101REMMET062EKSP 010450Z 19009KT 2500 BR FEW003 SCT004 BKN005 03/01 Q1017;EQDQ01    003PRSWM1
0189061100999992000010105504+55230+009270FM-15+0040EKSP V0202001N005710015019N0025001N1+00301+00101999999ADDGA1021+000909999GA2021+001209999GA3071+001509999GF107991999999999999999999MA1101691999999MW1611REMMET063EKSP 010550Z 20011KT 2500 -RA FEW003 SCT004 BKN005 03/01 Q1017;EQDQ01    003PRSWM1
0189061100999992000010105594+55230+009270FM-16+0040EKSP V0202001N005110012019N0025001N1+00301+00101999999ADDGA1021+000909999GA2071+001209999GA3071+001509999GF107991999999999999999999MA1101691999999MW1611REMMET063EKSP 010559Z 20010KT 2500 -RA SCT003 BKN004 BKN005 03/01 Q1017;EQDQ01    003PRSWM1
0284061100999992000010106004+55230+009270FM-12+0040EKSP V0202001N00511000601CN0025001N1+00271+00141101741ADDAA103000291AY161061AY221061GA1021+003009009GF108991081061000751999999IA1099IA2999+00019KA1120M+00271KA2120N+00121MA1999999101151MD1710171+9999MW1601REMSYN124333X  01064 06110 /1125 82010 10027 20014 30115 40174 57017 69922 76062 886// 333 10027 20012 31001 69927 83703 85704 87705;
0174061100999992000010106504+55230+009270FM-15+0040EKSP V0202001N005710012019N0022001N1+00301+00201999999ADDGA1021+000909999GA2081+001209999GF108991999999999999999999MA1101591999999MW1511MW2611REMMET058EKSP 010650Z 20011KT 2200 -DZRA SCT003 OVC004 03/02 Q1016;EQDQ01    003PRSWM1
0166061100999992000010107324+55230+009270FM-16+0040EKSP V0202001N006210012019N0019001N1+00301+00201999999ADDGA1021+000909999GA2081+001209999GF108991999999999999999999MA1101591999999MW1511REMMET056EKSP 010732Z 20012KT 1900 -DZ SCT003 OVC004 03/02 Q1016;EQDQ01    003PRSWM1
0166061100999992000010107504+55230+009270FM-15+0040EKSP V0202001N005710012019N0020001N1+00301+00201999999ADDGA1021+000909999GA2071+001209999GF107991999999999999999999MA1101591999999MW1511REMMET056EKSP 010750Z 20011KT 2000 -DZ FEW003 BKN004 03/02 Q1016;EQDQ01    003PRSWM1
0197061100999992000010108504+55230+009270FM-15+0040EKSP V0202101N006710012019N0030001N1+00301+00201999999ADDGA1021+000909999GA2071+001209999GA3081+001509999GF108991999999999999999999MA1101591999999MW1511MW2611REMMET065EKSP 010850Z 21013KT 3000 -DZRA FEW003 BKN004 OVC005 03/02 Q1016;EQDQ01    003PRSWM1
0210061100999992000010109004+55230+009270FM-12+0040EKSP V0202101N00621000601CN0033001N1+00351+00221101651ADDAA103001091AY161031AY251031GA1031+000909079GF108991081071000751999999MA1999999101061MD1710091+9999MW1581REMSYN094AAXX  01094 06110 21133 82112 10035 20022 30106 40165 57009 75865 887// 333 60017 83703 88704;
0174061100999992000010109034+55230+009270FM-16+0040EKSP V0202101N006210012019N0026001N1+00401+00201999999ADDGA1021+000909999GA2081+001209999GF108991999999999999999999MA1101591999999MW1511MW2611REMMET058EKSP 010903Z 21012KT 2600 -DZRA SCT003 OVC004 04/02 Q1016;EQDQ01    003PRSWM1
0189061100999992000010109504+55230+009270FM-15+0040EKSP V0202201N006210012019N0028001N1+00401+00301999999ADDGA1021+000909999GA2071+001209999GA3081+001509999GF108991999999999999999999MA1101491999999MW1511REMMET063EKSP 010950Z 22012KT 2800 -DZ FEW003 BKN004 OVC005 04/03 Q1015;EQDQ01    003PRSWM1
0166061100999992000010110184+55230+009270FM-16+0040EKSP V0202201N005710009019N0030001N1+00401+00301999999ADDGA1071+000909999GA2081+001209999GF108991999999999999999999MA1101591999999MW1511REMMET056EKSP 011018Z 22011KT 3000 -DZ BKN003 OVC004 04/03 Q1016;EQDQ01    003PRSWM1
0188061100999992000010110344+55230+009270FM-16+0040EKSP V0202401N004110009019N0028001N1+00401+00301999999ADDGA1021+000609999GA2071+000909999GA3081+001209999GF108991999999999999999999MA1101591999999MW1101REMMET062EKSP 011034Z 24008KT 2800 BR FEW002 BKN003 OVC004 04/03 Q1016;EQDQ01    003PRSWM1
0188061100999992000010110504+55230+009270FM-15+0040EKSP V0202501N003610009019N0018001N1+00401+00301999999ADDGA1021+000609999GA2071+000909999GA3081+001209999GF108991999999999999999999MA1101591999999MW1101REMMET062EKSP 011050Z 25007KT 1800 BR FEW002 BKN003 OVC004 04/03 Q1016;EQDQ01    003PRSWM1
0165061100999992000010111124+55230+009270FM-16+0040EKSP V0202701N003110075019N0040001N1+00501+00401999999ADDGA1021+001209999GA2071+007509999GF107991999999999999999999MA1101591999999MW1101REMMET055EKSP 011112Z 27006KT 4000 BR FEW004 BKN025 05/04 Q1016;EQDQ01    003PRSWM1
0174061100999992000010111384+55230+009270FM-16+0040EKSP V0203001N003110054019N0112651N1+00501+00401999999ADDGA1021+003909999GA2071+005409999GA3071+009009999GF107991999999999999999999MA1101591999999MW1001REMMET067EKSP 011138Z 30006KT 270V330 9999 FEW013 BKN018 BKN030 05/04 Q1016;
0166061100999992000010111474+55230+009270FM-16+0040EKSP V0203101N004110030019N0112651N1+00601+00401999999ADDGA1021+002409999GA2071+003009999GA3071+009609999GF107991999999999999999999MA1101591999999MW1001REMMET059EKSP 011147Z 31008KT 9999 FEW008 BKN010 BKN032 06/04 Q1016;
0189061100999992000010111504+55230+009270FM-15+0040EKSP V0203101N004610030019N0112651N1+00601+00401999999ADDGA1021+002409999GA2071+003009999GA3071+009609999GF107991999999999999999999MA1101591999999MW1611REMMET063EKSP 011150Z 31009KT 9999 -RA FEW008 BKN010 BKN032 06/04 Q1016;EQDQ01    003PRSWM1
0238061100999992000010112004+55230+009270FM-12+0040EKSP V0203001N005110036019N0200001N1+00571+00441101681ADDAA103000491AY161061AY251061GA1011+002409079GA2051+003609079GF107991071051002501001001MA1999999101101MD1310041+9999MW1211REMSYN106AAXX  01124 06110 /1370 73010 10057 20044 30110 40168 53004 60021 72165 87500 333 69947 81708 85712 87630;
0166061100999992000010112284+55230+009270FM-16+0040EKSP V0203101N005110036019N0112651N1+00601+00501999999ADDGA1021+002709999GA2021+003309999GA3071+003609999GF107991999999999999999999MA1101691999999MW1001REMMET059EKSP 011228Z 31010KT 9999 FEW009 SCT011 BKN012 06/05 Q1017;
0151061100999992000010112504+55230+009270FM-15+0040EKSP V0203101N005110039019N0112651N1+00601+00501999999ADDGA1021+002709999GA2071+003909999GF107991999999999999999999MA1101691999999MW1001REMMET060EKSP 011250Z 31010KT 280V340 9999 FEW009 BKN013 06/05 Q1017;
0143061100999992000010113504+55230+009270FM-15+0040EKSP V0203101N005710066019N0112651N1+00601+00501999999ADDGA1021+004209999GA2071+006609999GF107991999999999999999999MA1101801999999MW1001REMMET052EKSP 011350Z 31011KT 9999 FEW014 BKN022 06/05 Q1018;
0120061100999992000010114504+55230+009270FM-15+0040EKSP V0203101N005112200019N0112651N1+00501+00401999999ADDGA1021+003009999GF102991999999999999999999MA1101801999999MW1001REMMET045EKSP 011450Z 31010KT 9999 FEW010 05/04 Q1018;
0170061100999992000010115004+55230+009270FM-12+0040EKSP V0203101N005112200019N0150001N1+00511+00381101891ADDAA106000021GA1011+002709069GF101991011061002501001011MA1999999101311MD1210211+9999REMSYN076AAXX  01154 06110 32365 13110 10051 20038 30131 40189 52021 81601 333 81709;
0120061100999992000010115504+55230+009270FM-15+0040EKSP V0202901N002612200019N0090001N1+00401+00301999999ADDGA1021+003009999GF102991999999999999999999MA1101901999999MW1001REMMET045EKSP 011550Z 29005KT 9000 FEW010 04/03 Q1019;
0120061100999992000010116504+55230+009270FM-15+0040EKSP V0202701N004112200019N0080001N1+00301+00101999999ADDGA1021+002109999GF102991999999999999999999MA1102001999999MW1001REMMET045EKSP 011650Z 27008KT 8000 FEW007 03/01 Q1020;
0120061100999992000010117134+55230+009270FM-16+0040EKSP V0202801N004112200019N0070001N1+00201+00101999999ADDGA1021+002109999GF102991999999999999999999MA1102001999999MW1001REMMET045EKSP 011713Z 28008KT 7000 FEW007 02/01 Q1020;
0142061100999992000010117274+55230+009270FM-16+0040EKSP V0202801N003612200019N0045001N1+00201+00101999999ADDGA1021+001209999GF102991999999999999999999MA1102001999999MW1101REMMET048EKSP 011727Z 28007KT 4500 BR FEW004 02/01 Q1020;EQDQ01    003PRSWM1
0123061100999992000010117504+55230+009270FM-15+0040EKSP V0202801N004112200019N0050001N1+00201+00101999999ADDGF100991999999999999999999MA1102001999999MW1101REMMET045EKSP 011750Z 28008KT 5000 BR SKC 02/01 Q1020;EQDQ01    003PRSWM1
0230061100999992000010118004+55230+009270FM-12+0040EKSP V0202701N004112200019N0050001N1+00171+00041102111ADDAA112002091AY121061AY201061GA1001+999999999GF100991001001999999001001KA1120M+00601KA2999N+00171MA1999999101521MD1210211+9999MW1101REMSYN088AAXX  01184 06110 11950 02708 10017 20004 30152 40211 52021 60022 71020 333 10060 20017;
0123061100999992000010118504+55230+009270FM-15+0040EKSP V0202901N003112200019N0050001N1+00201+00001999999ADDGF100991999999999999999999MA1102101999999MW1101REMMET045EKSP 011850Z 29006KT 5000 BR SKC 02/00 Q1021;EQDQ01    003PRSWM1
0102061100999992000010119504+55230+009270FM-15+0040EKSP V0202901N004612200019N0070001N1+00101+00001999999ADDGF100991999999999999999999MA1102101999999MW1001REMMET043EKSP 011950Z 29009KT 7000 SKC 01/M00 Q1021;
0159061100999992000010120504+55230+009270FM-15+0040EKSP V0202501N001512200019N0008001N1+00101+00001999999ADDED199U16009GF100991999999999999999999MA1102101999999MW1411REMMET070EKSP 012050Z 25003KT 0800 R11L/1600N R29R/1100N BCFG SKC 01/M00 Q1021;EQDQ01    003PRSWM1
0201061100999992000010121004+55230+009270FM-12+0040EKSP V0202201N002112200019N0008001N1+00051-00071102251ADDAA106000091AY141031AY201031GA1001+999999999GF100991001001999999001001MA1999999101651MD1210131+9999MW1411REMSYN066AAXX  01214 06110 31908 02204 10005 21007 30165 40225 52013 74140;EQDQ01  00002PRCP06
0154061100999992000010121204+55230+009270FM-15+0040EKSP V0202201N002112200019N0011001N1+00001-00101999999ADDGF100991999999999999999999MA1102201999999MW1411REMMET076EKSP 012120Z 22004KT 1100 R11L/1400VP2000U R29R/1200N BCFG SKC 00/M01 Q1022;EQDQ01    003PRSWM1
0160061100999992000010122204+55230+009270FM-15+0040EKSP V0202001N002612200019N0011001N1+00001-00101999999ADDED199U20009GF100991999999999999999999MA1102201999999MW1411REMMET071EKSP 012220Z 20005KT 1100 R11L/P2000N R29R/1500N BCFG SKC 00/M01 Q1022;EQDQ01    003PRSWM1
0167061100999992000010122504+55230+009270FM-15+0040EKSP V0202201N003112200019N0011001N1+00001-00101999999ADDED199U20009GF100991999999999999999999MA1102201999999MW1411REMMET078EKSP 012150Z 22006KT 1100 R11L/P2000N R29R/1200VP2000D BCFG SKC M00/M01 Q1022;EQDQ01    003PRSWM1
0217061100999992000010200004+55230+009270FM-12+0040EKSP V0202001N001512200019N0010001N1+00031-00091102311ADDAA106000091AY141061AY241061GA1031+000309069GF103991031061000251001001MA1999999101711MD1210061+9999MW1411REMSYN082AAXX  02004 06110 31010 32003 10003 21009 30171 40231 52006 74144 83600 333 83701;EQDQ01  00002PRCP06
0140061100999992000010200144+55230+009270FM-16+0040EKSP V0202201N003112200019N0040001N1+00001-00101999999ADDGF100991999999999999999999MA1102201999999MW1101REMMET046EKSP 020014Z 22006KT 4000 BR SKC 00/M01 Q1022;EQDQ01+000003PRSWM1Q02    003PRSWM1
0140061100999992000010200204+55230+009270FM-15+0040EKSP V0202201N003612200019N0040001N1+00001-00101999999ADDGF100991999999999999999999MA1102201999999MW1101REMMET046EKSP 020020Z 22007KT 4000 BR SKC 00/M01 Q1022;EQDQ01+000003PRSWM1Q02    003PRSWM1
0202061100999992000010200504+55230+009270FM-15+0040EKSP V0202101N001512200019N0010001N1+00001-00101999999ADDED199U20009GA1021+000309999GF104991999999999999999999MA1102201999999MW1411REMMET081EKSP 012350Z 21003KT 1000E 9000W R11L/P2000N R29R/1100D BCFG SCT001 00/M01 Q1022;EQDQ01+000003PRSWM1Q02    003PRSWM1
0140061100999992000010201504+55230+009270FM-15+0040EKSP V0202201N003612200019N0040001N1+00101-00101999999ADDGF100991999999999999999999MA1102201999999MW1101REMMET046EKSP 020150Z 22007KT 4000 BR SKC 01/M01 Q1022;EQDQ01+000003PRSWM1Q02    003PRSWM1
0139061100999992000010202504+55230+009270FM-15+0040EKSP V0202201N004112200019N0050001N1+00201+00101999999ADDGF100991999999999999999999MA1102201999999MW1101REMMET045EKSP 020250Z 22008KT 5000 BR SKC 02/01 Q1022;EQDQ01+000003PRSWM1Q02    003PRSWM1
0201061100999992000010203004+55230+009270FM-12+0040EKSP V0202101N004112200019N0050001N1+00211+00081102241ADDAA106000091AY141031AY241031GA1001+999999999GF100991001001999999001001MA1999999101651MD1810061+9999MW1101REMSYN066AAXX  02034 06110 31950 02108 10021 20008 30165 40224 58006 71044;EQDQ01  00002PRCP06
0120061100999992000010203504+55230+009270FM-15+0040EKSP V0202201N005112200019N0070001N1+00201+00001999999ADDGF100991999999999999999999MA1102101999999MW1001REMMET042EKSP 020350Z 22010KT 7000 SKC 02/00 Q1021;EQDQ01+000000PRSWM2
0158061100999992000010204504+55230+009270FM-15+0040EKSP V0202301N006710009019N0050001N1+00301+00201999999ADDGA1071+000909999GF107991999999999999999999MA1102101999999MW1101REMMET048EKSP 020450Z 23013KT 5000 BR BKN003 03/02 Q1021;EQDQ01+000003PRSWM1Q02    003PRSWM1
0162061100999992000010205504+55230+009270FM-15+0040EKSP V0202301N005710018019N0060001N1+00401+00201999999ADDGA1021+001209999GA2071+001809999GF107991999999999999999999MA1102101999999MW1001REMMET052EKSP 020550Z 23011KT 6000 SCT004 BKN006 04/02 Q1021;EQDQ01+000000PRSWM2
0285061100999992000010206004+55230+009270FM-12+0040EKSP V0202301N00671001201CN0060001N1+00351+00221102171ADDAA106000091AY141061AY221061GA1031+001209079GF105991051061001501001001IA1099IA2999-00029KA1120M+00351KA2120N-00011MA1999999101581MD1710071+9999MW1101REMSYN106AAXX  02064 06110 31256 52313 10035 20022 30158 40217 57007 71042 85600 333 10035 21001 31102 83704 85706;EQDQ01  00002PRCP06
0185061100999992000010206504+55230+009270FM-15+0040EKSP V0202401N007210039019N0070001N1+00401+00301999999ADDGA1021+001809999GA2021+002709999GA3071+003909999GF107991999999999999999999MA1102101999999MW1001REMMET059EKSP 020650Z 24014KT 7000 FEW006 SCT009 BKN013 04/03 Q1021;EQDQ01+000000PRSWM2
0185061100999992000010207384+55230+009270FM-16+0040EKSP V0202301N007210036019N0070001N1+00501+00301999999ADDGA1021+002109999GA2021+003009999GA3071+003609999GF107991999999999999999999MA1102101999999MW1001REMMET059EKSP 020738Z 23014KT 7000 FEW007 SCT010 BKN012 05/03 Q1021;EQDQ01+000000PRSWM2
0185061100999992000010207504+55230+009270FM-15+0040EKSP V0202401N007710045019N0070001N1+00501+00301999999ADDGA1021+002109999GA2021+003609999GA3071+004509999GF107991999999999999999999MA1102101999999MW1001REMMET059EKSP 020750Z 24015KT 7000 FEW007 SCT012 BKN015 05/03 Q1021;EQDQ01+000000PRSWM2
0185061100999992000010208124+55230+009270FM-16+0040EKSP V0202301N008210036019N0070001N1+00501+00401999999ADDGA1021+002109999GA2021+002709999GA3071+003609999GF107991999999999999999999MA1102101999999MW1001REMMET059EKSP 020812Z 23016KT 7000 FEW007 SCT009 BKN012 05/04 Q1021;EQDQ01+000000PRSWM2
0185061100999992000010208404+55230+009270FM-16+0040EKSP V0202401N009310021019N0070001N1+00501+00401999999ADDGA1021+001809999GA2071+002109999GA3081+003009999GF108991999999999999999999MA1102101999999MW1001REMMET059EKSP 020840Z 24018KT 7000 SCT006 BKN007 OVC010 05/04 Q1021;EQDQ01+000000PRSWM2
0185061100999992000010208504+55230+009270FM-15+0040EKSP V0202301N008210021019N0060001N1+00501+00401999999ADDGA1021+001809999GA2071+002109999GA3081+003309999GF108991999999999999999999MA1102101999999MW1001REMMET059EKSP 020850Z 23016KT 6000 FEW006 BKN007 OVC011 05/04 Q1021;EQDQ01+000000PRSWM2
0245061100999992000010209004+55230+009270FM-12+0040EKSP V0202301N008210021019N0060001N1+00501+00371102131ADDAA106000091AY121031AY221031GA1021+001809079GA2061+002109079GF108991081061001501999999MA1999999101541MD1710041+9999MW1101REMSYN094AAXX  02094 06110 31256 82316 10050 20037 30154 40213 57004 71022 886// 333 82706 86707 88710;EQDQ01  00002PRCP06
0204061100999992000010209504+55230+009270FM-15+0040EKSP V0202301N008210015019N0050001N1+00501+00401999999ADDGA1021+001209999GA2071+001509999GA3081+002109999GF108991999999999999999999MA1102101999999MW1101REMMET062EKSP 020950Z 23016KT 5000 BR FEW004 BKN005 OVC007 05/04 Q1021;EQDQ01+000003PRSWM1Q02    003PRSWM1
0204061100999992000010210334+55230+009270FM-16+0040EKSP V0202301N009810015019N0045001N1+00501+00401999999ADDGA1021+001209999GA2071+001509999GA3081+001809999GF108991999999999999999999MA1102101999999MW1101REMMET062EKSP 021033Z 23019KT 4500 BR SCT004 BKN005 OVC006 05/04 Q1021;EQDQ01+000003PRSWM1Q02    003PRSWM1
0192061100999992000010210414+55230+009270FM-16+0040EKSP V0202301N008710012019N0045001N1+00501+00401999999ADDGA1071+001209999GA2081+001809999GF108991999999999999999999MA1102101999999MW1101OC101391REMMET058EKSP 021041Z 23017G27KT 4500 BR BKN004 OVC006 05/04 Q1021;EQDQ01+000003PRSWM1Q02    003PRSWM1
0181061100999992000010210504+55230+009270FM-15+0040EKSP V0202301N008710012019N0045001N1+00501+00501999999ADDGA1071+001209999GA2081+001509999GF108991999999999999999999MA1102101999999MW1101REMMET055EKSP 021050Z 23017KT 4500 BR BKN004 OVC005 05/05 Q1021;EQDQ01+000003PRSWM1Q02    003PRSWM1
0173061100999992000010211504+55230+009270FM-15+0040EKSP V0202401N007710021019N0070001N1+00601+00501999999ADDGA1021+001809999GA2071+002109999GF107991999999999999999999MA1102001999999MW1001OC101291REMMET055EKSP 021150Z 24015G25KT 7000 SCT006 BKN007 06/05 Q1020;EQDQ01+000000PRSWM2
0267061100999992000010212004+55230+009270FM-12+0040EKSP V0202401N009310021019N0070001N1+00601+00531102111ADDAA106000091AY121061AY221061GA1021+001809079GA2051+002109079GA3081+003009079GF108991081061001501999999MA1999999101531MD1510011+9999MW1101REMSYN100AAXX  02124 06110 31257 82418 10060 20053 30153 40211 55001 71022 886// 333 82706 85707 88710 91127;EQDQ01  00002PRCP06
0185061100999992000010212364+55230+009270FM-16+0040EKSP V0202601N008210024019N0070001N1+00601+00601999999ADDGA1021+002109999GA2071+002409999GA3071+003009999GF107991999999999999999999MA1102001999999MW1001REMMET059EKSP 021236Z 26016KT 7000 SCT007 BKN008 BKN010 06/06 Q1020;EQDQ01+000000PRSWM2
0185061100999992000010212504+55230+009270FM-15+0040EKSP V0202501N008710024019N0080001N1+00601+00601999999ADDGA1021+001809999GA2021+002109999GA3071+002409999GF107991999999999999999999MA1102001999999MW1001REMMET059EKSP 021250Z 25017KT 8000 FEW006 SCT007 BKN008 06/06 Q1020;EQDQ01+000000PRSWM2
0205061100999992000010213294+55230+009270FM-16+0040EKSP V0202501N008210024019N0045001N1+00601+00501999999ADDGA1021+002109999GA2071+002409999GA3071+004509999GF107991999999999999999999MA1102001999999MW1511REMMET063EKSP 021329Z 25016KT 4500 -DZ SCT007 BKN008 BKN015 06/05 Q1020;EQDQ01+000003PRSWM1Q02    003PRSWM1
0205061100999992000010213504+55230+009270FM-15+0040EKSP V0202601N009310021019N0030001N1+00601+00501999999ADDGA1021+001209999GA2021+001809999GA3071+002109999GF107991999999999999999999MA1102001999999MW1511REMMET063EKSP 021350Z 26018KT 3000 -DZ FEW004 SCT006 BKN007 06/05 Q1020;EQDQ01+000003PRSWM1Q02    003PRSWM1
0185061100999992000010214424+55230+009270FM-16+0040EKSP V0202601N008210021019N0070001N1+00601+00501999999ADDGA1021+001509999GA2021+001809999GA3071+002109999GF107991999999999999999999MA1102001999999MW1001REMMET059EKSP 021442Z 26016KT 7000 FEW005 SCT006 BKN007 06/05 Q1020;EQDQ01+000000PRSWM2
0185061100999992000010214504+55230+009270FM-15+0040EKSP V0202601N008710021019N0070001N1+00601+00501999999ADDGA1021+001509999GA2071+002109999GA3081+003609999GF108991999999999999999999MA1102001999999MW1001REMMET059EKSP 021450Z 26017KT 7000 FEW005 BKN007 OVC012 06/05 Q1020;EQDQ01+000000PRSWM2
0254061100999992000010215004+55230+009270FM-12+0040EKSP V0202601N008210024019N0070001N1+00561+00491102101ADDAA103999929AY151031AY221031GA1011+001809079GA2031+002109079GA3071+002409079GF108991081061001501999999MA1999999101521MD1510011+9999MW1101REMSYN106AAXX  02154 06110 21257 82616 10056 20049 30152 40210 55001 71052 886// 333 69907 81706 83707 87708 91129;
0185061100999992000010215444+55230+009270FM-16+0040EKSP V0202601N006710021019N0070001N1+00601+00501999999ADDGA1021+001509999GA2021+001809999GA3071+002109999GF107991999999999999999999MA1102001999999MW1001REMMET059EKSP 021544Z 26013KT 7000 FEW005 SCT006 BKN007 06/05 Q1020;EQDQ01+000000PRSWM2
0185061100999992000010215504+55230+009270FM-15+0040EKSP V0202601N007210021019N0070001N1+00601+00501999999ADDGA1021+001509999GA2071+002109999GA3081+003009999GF108991999999999999999999MA1102001999999MW1001REMMET059EKSP 021550Z 26014KT 7000 FEW005 BKN007 OVC010 06/05 Q1020;EQDQ01+000000PRSWM2
0185061100999992000010216504+55230+009270FM-15+0040EKSP V0202601N006210018019N0070001N1+00601+00501999999ADDGA1021+001509999GA2071+001809999GA3081+002709999GF108991999999999999999999MA1102001999999MW1001REMMET059EKSP 021650Z 26012KT 7000 FEW005 BKN006 OVC009 06/05 Q1020;EQDQ01+000000PRSWM2
0162061100999992000010217504+55230+009270FM-15+0040EKSP V0202701N005710021019N0070001N1+00601+00501999999ADDGA1021+001809999GA2071+002109999GF107991999999999999999999MA1102101999999MW1001REMMET052EKSP 021750Z 27011KT 7000 SCT006 BKN007 06/05 Q1021;EQDQ01+000000PRSWM2
0295061100999992000010218004+55230+009270FM-12+0040EKSP V0202701N005710021019N0070001N1+00551+00481102121ADDAA103999999AY151061AY221061GA1031+001809079GA2071+002109079GF108991081061001501999999KA1120M+00621KA2120N+00351MA1999999101541MD1310021+9999MW1101REMSYN118AAXX  02184 06110 /1257 82711 10055 20048 30154 40212 53002 69902 71052 886// 333 10062 20035 69907 83706 87707 91129;EQDQ01  99992PRCP03
0185061100999992000010218504+55230+009270FM-15+0040EKSP V0202501N004110027019N0070001N1+00601+00501999999ADDGA1021+001509999GA2071+002709999GA3081+008409999GF108991999999999999999999MA1102101999999MW1001REMMET059EKSP 021850Z 25008KT 7000 SCT005 BKN009 OVC028 06/05 Q1021;EQDQ01+000000PRSWM2
0181061100999992000010219504+55230+009270FM-15+0040EKSP V0202601N004110015019N0050001N1+00601+00501999999ADDGA1021+001209999GA2071+001509999GF107991999999999999999999MA1102101999999MW1101REMMET055EKSP 021950Z 26008KT 5000 BR SCT004 BKN005 06/05 Q1021;EQDQ01+000003PRSWM1Q02    003PRSWM1
0181061100999992000010220504+55230+009270FM-15+0040EKSP V0202501N003110012019N0040001N1+00501+00501999999ADDGA1071+001209999GA2071+001509999GF107991999999999999999999MA1102101999999MW1101REMMET055EKSP 022050Z 25006KT 4000 BR BKN004 BKN005 05/05 Q1021;EQDQ01+000003PRSWM1Q02    003PRSWM1
0245061100999992000010221004+55230+009270FM-12+0040EKSP V0202401N002610012019N0040001N1+00521+00451102171ADDAA106000091AY121031AY221031GA1051+001209079GA2071+001509079GF108991081061001501999999MA1999999101581MD1110041+9999MW1101REMSYN094AAXX  02214 06110 31240 82405 10052 20045 30158 40217 51004 71022 886// 333 85704 87705 90000;EQDQ01  00002PRCP06
0181061100999992000010221504+55230+009270FM-15+0040EKSP V0202301N003610012019N0030001N1+00501+00401999999ADDGA1021+000609999GA2071+001209999GF107991999999999999999999MA1102101999999MW1101REMMET055EKSP 022150Z 23007KT 3000 BR SCT002 BKN004 05/04 Q1021;EQDQ01+000003PRSWM1Q02    003PRSWM1
0181061100999992000010222504+55230+009270FM-15+0040EKSP V0202401N003110006019N0020001N1+00501+00401999999ADDGA1071+000609999GA2071+001209999GF107991999999999999999999MA1102101999999MW1101REMMET055EKSP 022250Z 24006KT 2000 BR BKN002 BKN004 05/04 Q1021;EQDQ01+000003PRSWM1Q02    003PRSWM1
0193061100999992000010223004+55230+009270FM-15+0040EKSP V0202301N003110006019N0012001N1+00501+00401999999ADDED199U20009GA1071+000609999GF107991999999999999999999MA1102101999999MW1101REMMET072EKSP 022300Z 23006KT 1200 R11L/P2000N R29R/P2000N BR BKN002 05/04 Q1021;EQDQ01+000003PRSWM1Q02    003PRSWM1
0215061100999992000010223204+55230+009270FM-15+0040EKSP V0202301N003610006019N0009001N1+00501+00401999999ADDED199U20009GA1021+000309999GA2071+000609999GF107991999999999999999999MA1102101999999MW1441REMMET078EKSP 022320Z 23007KT 0900 R11L/P2000N R29R/1900D FG SCT001 BKN002 05/04 Q1021;EQDQ01+000003PRSWM1Q02    003PRSWM1
0191061100999992000010223314+55230+009270FM-16+0040EKSP V0202301N00361000151CN0005001N1+00501+00401999999ADDED199U20009GA1091+000159999GF109991999999000251999999MA1102101999999MW1451REMMET070EKSP 022331Z 23007KT 0500 R11L/P2000D R29R/1300N FG VV001 05/04 Q1021;EQDQ01+000003PRSWM1Q02    003PRSWM1
0223061100999992000010300004+55230+009270FM-12+0040EKSP V0202301N00311000301CN0007001N1+00491+00421102111ADDAA106000091AY141061AY221061GA1031+000309079GF108991081061000251999999MA1999999101521MD1810061+9999MW1421REMSYN088AAXX  03004 06110 31007 82306 10049 20042 30152 40211 58006 74242 886// 333 83701 87702;EQDQ01  00002PRCP06
0216061100999992000010300204+55230+009270FM-15+0040EKSP V0202401N004110006019N0007001N1+00501+00401999999ADDED199U20009GA1021+000309999GA2071+000609999GF107991999999999999999999MA1102001999999MW1441REMMET079EKSP 030020Z 24008KT 0700 R11L/P2000N R29R/P2000N FG SCT001 BKN002 05/04 Q1020;EQDQ01+000003PRSWM1Q02    003PRSWM1
0215061100999992000010300504+55230+009270FM-15+0040EKSP V0202401N003610006019N0007001N1+00501+00401999999ADDED199U20009GA1021+000309999GA2071+000609999GF107991999999999999999999MA1102101999999MW1441REMMET078EKSP 022350Z 24007KT 0700 R11L/P2000N R29R/1700N FG SCT001 BKN002 05/04 Q1021;EQDQ01+000003PRSWM1Q02    003PRSWM1
0181061100999992000010301504+55230+009270FM-15+0040EKSP V0202201N005110012019N0040001N1+00501+00401999999ADDGA1021+000909999GA2071+001209999GF107991999999999999999999MA1101901999999MW1101REMMET055EKSP 030150Z 22010KT 4000 BR SCT003 BKN004 05/04 Q1019;EQDQ01+000003PRSWM1Q02    003PRSWM1
0185061100999992000010302504+55230+009270FM-15+0040EKSP V0202201N004610024019N0060001N1+00501+00401999999ADDGA1021+001809999GA2071+002409999GA3081+003609999GF108991999999999999999999MA1101801999999MW1001REMMET059EKSP 030250Z 22009KT 6000 SCT006 BKN008 OVC012 05/04 Q1018;EQDQ01+000000PRSWM2
0245061100999992000010303004+55230+009270FM-12+0040EKSP V0202201N005110024019N0060001N1+00481+00411101891ADDAA106000091AY141031AY221031GA1031+001809079GA2051+002409079GF108991081061001501999999MA1999999101311MD1710211+9999MW1101REMSYN094AAXX  03034 06110 31256 82210 10048 20041 30131 40189 57021 71042 886// 333 83706 85708 88612;EQDQ01  00002PRCP06
0139061100999992000010303504+55230+009270FM-15+0040EKSP V0202201N005110075019N0112651N1+00401+00301999999ADDGA1071+007509999GF107991999999999999999999MA1101691999999MW1001REMMET045EKSP 030350Z 22010KT 9999 BKN025 04/03 Q1017;EQDQ01+000000PRSWM2
0162061100999992000010304464+55230+009270FM-16+0040EKSP V0202201N005710021019N0080001N1+00501+00401999999ADDGA1071+002109999GA2071+006609999GF107991999999999999999999MA1101591999999MW1001REMMET052EKSP 030446Z 22011KT 8000 BKN007 BKN022 05/04 Q1016;EQDQ01+000000PRSWM2
0162061100999992000010304504+55230+009270FM-15+0040EKSP V0202201N006210021019N0080001N1+00501+00401999999ADDGA1021+001809999GA2071+002109999GF107991999999999999999999MA1101591999999MW1001REMMET052EKSP 030450Z 22012KT 8000 SCT006 BKN007 05/04 Q1016;EQDQ01+000000PRSWM2
0212061100999992000010305384+55230+009270FM-16+0040EKSP V0202201N007710012019N0040001N1+00501+00501999999ADDGA1071+001209999GA2071+001809999GF107991999999999999999999MA1101491999999MW1511REMMET070EKSP 030538Z 22015KT 4000 -DZ BR BKN004 BKN006 05/05 Q1015 TEMPO 2000;EQDQ01+000100PRSWM3Q02+000003PRSWM1Q03    003PRSWM1
0209061100999992000010305504+55230+009270FM-15+0040EKSP V0202201N007710012019N0030001N1+00601+00501999999ADDGA1021+000909999GA2071+001209999GF107991999999999999999999MA1101491999999MW1101MW2511REMMET077EKSP 030550Z 22015KT 3000 -DZ BR SCT003 BKN004 06/05 Q1015 TEMPO 1500 BKN003;EQDQ01+000003PRSWM1Q02    003PRSWM1
0272061100999992000010306004+55230+009270FM-12+0040EKSP V0202201N00821000601CN0030001N1+00561+00491101581ADDAA112000791AY151061AY241061GA1021+004809029GF108991081071000751999999IA1119IA2999+00049KA1120M+00561KA2120N+00441MA1999999101001MD1710311+9999MW1501REMSYN112333X  03064 06110 11130 82216 10056 20049 30100 40158 57031 69902 75054 887// 333 10056 20044 32004 83703 87704;
0220061100999992000010306504+55230+009270FM-15+0040EKSP V0202201N009810012019N0030001N1+00601+00501999999ADDGA1021+000909999GA2071+001209999GF107991999999999999999999MA1101491999999MW1101MW2511REMMET088EKSP 030650Z 22019KT 3000 -DZ BR SCT003 BKN004 06/05 Q1015 TEMPO 22015G27KT 1500 BKN003;EQDQ01+000003PRSWM1Q02    003PRSWM1
0230061100999992000010307424+55230+009270FM-16+0040EKSP V0202301N010310012019N0030001N1+00601+00601999999ADDGA1021+000909999GA2071+001209999GF107991999999999999999999MA1101391999999MW1511OC101701REMMET080EKSP 030742Z 23020G33KT 3000 -DZ BR SCT003 BKN004 06/06 Q1014 TEMPO 1500 BKN003;EQDQ01+000100PRSWM3Q02+000003PRSWM1Q03    003PRSWM1
0220061100999992000010307504+55230+009270FM-15+0040EKSP V0202301N010310012019N0030001N1+00601+00601999999ADDGA1021+000909999GA2071+001209999GF107991999999999999999999MA1101391999999MW1101MW2511REMMET088EKSP 030750Z 23020KT 3000 -DZ BR SCT003 BKN004 06/06 Q1014 TEMPO 23018G30KT 1500 BKN003;EQDQ01+000003PRSWM1Q02    003PRSWM1
0210061100999992000010308104+55230+009270FM-16+0040EKSP V0202301N010310012019N0020001N1+00701+00601999999ADDGA1021+000909999GA2071+001209999GF107991999999999999999999MA1101291999999MW1631REMMET084EKSP 030810Z 23020KT 2000 RA SCT003 BKN004 07/06 Q1013 TEMPO 23018G30KT 1500 BKN003;EQDQ01+000003PRSWM1Q02    003PRSWM1
0222061100999992000010308504+55230+009270FM-15+0040EKSP V0202301N010310015019N0025001N1+00701+00601999999ADDGA1021+001209999GA2071+001509999GF107991999999999999999999MA1101291999999MW1611OC101541REMMET088EKSP 030850Z 23020G30KT 2500 -RA SCT004 BKN005 07/06 Q1013 TEMPO 23018G30KT 1500 BKN003;EQDQ01+000003PRSWM1Q02    003PRSWM1
0232061100999992000010309004+55230+009270FM-12+0040EKSP V0202301N011310015019N0040001N1+00701+00631101341ADDAA103000691AY161031AY251031GA1031+001209079GA2071+001509079GF108991081071001501999999MA1999999100761MD1710241+9999MW1611REMSYN100AAXX  03094 06110 21240 82322 10070 20063 30076 40134 57024 76165 887// 333 69967 83704 87705 91133;
0219061100999992000010309394+55230+009270FM-16+0040EKSP V0202401N013410015019N0025001N1+00701+00601999999ADDGA1021+001209999GA2071+001509999GF107991999999999999999999MA1101291999999MW1511MW2611OC101951REMMET079EKSP 030939Z 24026G38KT 2500 -DZRA SCT004 BKN005 07/06 Q1013 TEMPO 1500 BKN003;EQDQ01+000003PRSWM1Q02    003PRSWM1
0248061100999992000010309504+55230+009270FM-15+0040EKSP V0202401N012910015019N0025001N1+00701+00601999999ADDGA1021+001209999GA2071+001509999GF107991999999999999999999MA1101291999999MW1511MW2611OC101801REMMET108EKSP 030950Z 24025G35KT 2500 -DZRA SCT004 BKN005 07/06 Q1013 TEMPO 1500 BKN003 BECMG FM1100 8000 NSW BKN012;EQDQ01+000003PRSWM1Q02    003PRSWM1
0240061100999992000010310514+55230+009270FM-15+0040EKSP V0202401N011310015019N0045001N1+00701+00601999999ADDGA1021+001209999GA2071+001509999GF107991999999999999999999MA1101191999999MW1611OC101701REMMET106EKSP 031051Z 24022G33KT 4500 -RA SCT004 BKN005 07/06 Q1012 TEMPO 1500 BKN003 BECMG FM1130 8000 NSW BKN012;EQDQ01+000003PRSWM1Q02    003PRSWM1
0203061100999992000010311274+55230+009270FM-16+0040EKSP V0202401N011310015019N0040001N1+00701+00601999999ADDGA1021+001209999GA2071+001509999GF107991999999999999999999MA1101191999999MW1631REMMET077EKSP 031127Z 24022KT 4000 RA SCT004 BKN005 07/06 Q1012 BECMG 8000 NSW BKN012;EQDQ01+000003PRSWM1Q02    003PRSWM1
0204061100999992000010311504+55230+009270FM-15+0040EKSP V0202401N010810015019N0045001N1+00701+00601999999ADDGA1021+001209999GA2071+001509999GF107991999999999999999999MA1101191999999MW1611REMMET078EKSP 031150Z 24021KT 4500 -RA SCT004 BKN005 07/06 Q1012 BECMG 8000 NSW BKN012;EQDQ01+000003PRSWM1Q02    003PRSWM1
0238061100999992000010312004+55230+009270FM-12+0040EKSP V0202401N009810015019N0045001N1+00701+00631101251ADDAA103002091AY161061AY251061GA1041+001209079GA2071+001509079GF108991081071001501999999MA1999999100671MD1710091+9999MW1611REMSYN106AAXX  03124 06110 /1245 82419 10070 20063 30067 40125 57009 60021 76165 887// 333 60027 84704 87705 91138;
0205061100999992000010312504+55230+009270FM-15+0040EKSP V0202501N010310012019N0045001N1+00701+00701999999ADDGA1071+001209999GA2071+001509999GF107991999999999999999999MA1101191999999MW1101MW2511MW3611REMMET083EKSP 031250Z 25020KT 4500 -DZRA BR BKN004 BKN005 07/07 Q1012 BECMG 8000 NSW BKN012;EQDQ01+000003PRSWM1
0226061100999992000010313044+55230+009270FM-16+0040EKSP V0202501N010810012019N0050001N1+00701+00701999999ADDGA1071+001209999GA2071+001509999GF107991999999999999999999MA1101191999999MW1511MW2611OC101591REMMET086EKSP 031304Z 25021G31KT 5000 -DZRA BR BKN004 BKN005 07/07 Q1012 BECMG 8000 NSW BKN012;EQDQ01+000100PRSWM4Q02+000003PRSWM1
0198061100999992000010313444+55230+009270FM-16+0040EKSP V0202601N009310015019N0080001N1+00701+00701999999ADDGA1021+001209999GA2071+001509999GA3071+002109999GF107991999999999999999999MA1101191999999MW1001REMMET072EKSP 031344Z 26018KT 8000 FEW004 BKN005 BKN007 07/07 Q1012 BECMG BKN012;EQDQ01+000000PRSWM2
0198061100999992000010313504+55230+009270FM-15+0040EKSP V0202601N008710015019N0090001N1+00701+00701999999ADDGA1021+001209999GA2071+001509999GA3071+002109999GF107991999999999999999999MA1101191999999MW1001REMMET072EKSP 031350Z 26017KT 9000 FEW004 BKN005 BKN007 07/07 Q1012 BECMG BKN012;EQDQ01+000000PRSWM2
0162061100999992000010314504+55230+009270FM-15+0040EKSP V0202601N009310021019N0080001N1+00701+00601999999ADDGA1021+001809999GA2071+002109999GF107991999999999999999999MA1101191999999MW1001REMMET052EKSP 031450Z 26018KT 8000 SCT006 BKN007 07/06 Q1012;EQDQ01+000000PRSWM2
0232061100999992000010315004+55230+009270FM-12+0040EKSP V0202601N009310021019N0090001N1+00701+00631101261ADDAA103000291AY161031AY251031GA1031+001809079GA2071+002109079GF107991071061001501001001MA1999999100681MD1010011+9999MW1101REMSYN100AAXX  03154 06110 21259 72618 10070 20063 30068 40126 50001 71065 87600 333 69927 83706 87707 91131;
0185061100999992000010315504+55230+009270FM-15+0040EKSP V0202601N007210021019N0070001N1+00601+00601999999ADDGA1021+001509999GA2071+002109999GA3071+007509999GF107991999999999999999999MA1101191999999MW1001REMMET059EKSP 031550Z 26014KT 7000 FEW005 BKN007 BKN025 06/06 Q1012;EQDQ01+000000PRSWM2
0139061100999992000010316504+55230+009270FM-15+0040EKSP V0202501N005112200019N0070001N1+00601+00501999999ADDGA1021+001509999GF104991999999999999999999MA1101191999999MW1001REMMET045EKSP 031650Z 25010KT 7000 SCT005 06/05 Q1012;EQDQ01+000000PRSWM2
0162061100999992000010317164+55230+009270FM-16+0040EKSP V0202401N005710015019N0060001N1+00601+00501999999ADDGA1021+001209999GA2071+001509999GF107991999999999999999999MA1101191999999MW1001REMMET052EKSP 031716Z 24011KT 6000 FEW004 BKN005 06/05 Q1012;EQDQ01+000000PRSWM2
0162061100999992000010317504+55230+009270FM-15+0040EKSP V0202401N006210015019N0060001N1+00601+00501999999ADDGA1021+001209999GA2071+001509999GF107991999999999999999999MA1101191999999MW1001REMMET052EKSP 031750Z 24012KT 6000 SCT004 BKN005 06/05 Q1012;EQDQ01+000000PRSWM2
0270061100999992000010318004+55230+009270FM-12+0040EKSP V0202401N005710015019N0060001N1+00581+00511101221ADDAA112002091AY161061AY251061GA1031+001209079GA2071+001509079GF108991081061001501999999KA1120M+00731KA2120N+00541MA1999999100641MD1810041+9999MW1101REMSYN112AAXX  03184 06110 11256 82411 10058 20051 30064 40122 58004 60022 71065 886// 333 10073 20054 83704 87705 91131;
0162061100999992000010318504+55230+009270FM-15+0040EKSP V0202401N005710024019N0070001N1+00501+00501999999ADDGA1021+001509999GA2071+002409999GF107991999999999999999999MA1101081999999MW1001REMMET052EKSP 031850Z 24011KT 7000 SCT005 BKN008 05/05 Q1011;EQDQ01+000000PRSWM2
0162061100999992000010319504+55230+009270FM-15+0040EKSP V0202301N005710024019N0080001N1+00501+00401999999ADDGA1021+001509999GA2071+002409999GF107991999999999999999999MA1101081999999MW1001REMMET052EKSP 031950Z 23011KT 8000 FEW005 BKN008 05/04 Q1011;EQDQ01+000000PRSWM2
0185061100999992000010320504+55230+009270FM-15+0040EKSP V0202501N007210021019N0080001N1+00601+00501999999ADDGA1021+001209999GA2021+001509999GA3071+002109999GF107991999999999999999999MA1101081999999MW1001REMMET059EKSP 032050Z 25014KT 8000 FEW004 SCT005 BKN007 06/05 Q1011;EQDQ01+000000PRSWM2
0245061100999992000010321004+55230+009270FM-12+0040EKSP V0202401N006710015019N0080001N1+00581+00511101191ADDAA106000091AY121031AY221031GA1021+001209079GA2041+001509079GF108991081061001501999999MA1999999100611MD1810031+9999MW1101REMSYN094AAXX  03214 06110 31258 82413 10058 20051 30061 40119 58003 71022 886// 333 82704 84705 86707;EQDQ01  00002PRCP06
0185061100999992000010321504+55230+009270FM-15+0040EKSP V0202601N006710015019N0080001N1+00601+00501999999ADDGA1021+001209999GA2071+001509999GA3071+002109999GF107991999999999999999999MA1101081999999MW1001REMMET059EKSP 032150Z 26013KT 8000 SCT004 BKN005 BKN007 06/05 Q1011;EQDQ01+000000PRSWM2
0185061100999992000010322504+55230+009270FM-15+0040EKSP V0202501N007210030019N0080001N1+00601+00501999999ADDGA1021+001209999GA2071+003009999GA3071+013509999GF107991999999999999999999MA1101081999999MW1001REMMET059EKSP 032250Z 25014KT 8000 SCT004 BKN010 BKN045 06/05 Q1011;EQDQ01+000000PRSWM2
0185061100999992000010323504+55230+009270FM-15+0040EKSP V0202401N007710030019N0112651N1+00601+00401999999ADDGA1021+001809999GA2071+003009999GA3071+013509999GF107991999999999999999999MA1101081999999MW1001REMMET059EKSP 032350Z 24015KT 9999 SCT006 BKN010 BKN045 06/04 Q1011;EQDQ01+000000PRSWM2
0266061100999992000010400004+55230+009270FM-12+0040EKSP V0202501N007710030019N0100001N1+00541+00411101151ADDAA103000291AY161061AY221061GA1031+001809079GA2051+003009079GA3071+013509069GF108991081051001501999999MA1999999100571MD1510041+9999MW1211REMSYN118AAXX  04004 06110 /1260 82515 10054 20041 30057 40115 55004 69921 72162 885// 333 69927 83706 85710 87645 90000 90000;
0185061100999992000010400504+55230+009270FM-15+0040EKSP V0202501N006710030019N0112651N1+00501+00401999999ADDGA1021+001809999GA2071+003009999GA3071+021009999GF107991999999999999999999MA1101081999999MW1001REMMET059EKSP 040050Z 25013KT 9999 SCT006 BKN010 BKN070 05/04 Q1011;EQDQ01+000000PRSWM2
0185061100999992000010401504+55230+009270FM-15+0040EKSP V0202501N007210270019N0112651N1+00501+00401999999ADDGA1021+003009999GA2021+005409999GA3071+027009999GF107991999999999999999999MA1101081999999MW1001REMMET059EKSP 040150Z 25014KT 9999 FEW010 SCT018 BKN090 05/04 Q1011;EQDQ01+000000PRSWM2
0185061100999992000010402504+55230+009270FM-15+0040EKSP V0202501N007210600019N0112651N1+00501+00401999999ADDGA1021+003009999GA2021+005409999GA3071+060009999GF107991999999999999999999MA1101081999999MW1001REMMET059EKSP 040250Z 25014KT 9999 FEW010 SCT018 BKN200 05/04 Q1011;EQDQ01+000000PRSWM2
0198061100999992000010403004+55230+009270FM-12+0040EKSP V0202501N00671005401CN0100001N1+00441+00361101191ADDAA106000021GA1021+003009079GA2031+005409069GF106991031051004501031021MA1999999100611MD1310041+9999REMSYN088AAXX  04034 06110 32460 62513 10044 20036 30061 40119 53004 83532 333 82710 83618 85070;
0162061100999992000010403504+55230+009270FM-15+0040EKSP V0202501N006710600019N0112651N1+00501+00401999999ADDGA1021+004809999GA2071+060009999GF107991999999999999999999MA1101191999999MW1001REMMET052EKSP 040350Z 25013KT 9999 SCT016 BKN200 05/04 Q1012;EQDQ01+000000PRSWM2
0168061100999992000010405204+55230+009270FM-15+0040EKSP V0202601N006210600019N0112651N1+00401+00301999999ADDGA1021+006609999GA2071+060009999GF107991999999999999999999MA1101191999999MW1001REMMET058EKSP 040520Z 26012KT 9999 SCT022 BKN200 04/03 Q1012 NOSIG;EQDQ01+000000PRSWM2
0168061100999992000010405504+55230+009270FM-15+0040EKSP V0202601N005710600019N0112651N1+00401+00401999999ADDGA1021+007509999GA2071+060009999GF107991999999999999999999MA1101191999999MW1001REMMET058EKSP 040550Z 26011KT 9999 SCT025 BKN200 04/04 Q1012 NOSIG;EQDQ01+000000PRSWM2
0272061100999992000010406004+55230+009270FM-12+0040EKSP V0202501N00621075001CN0100001N1+00441+00361101261ADDAA112000191AY161061AY221061GA1031+000609059GF105991031051008001001021IA1099IA2999+00039KA1120M+00581KA2120N+00411MA1999999100681MD1110071+9999MW1011REMSYN112333X  04064 06110 11560 52512 10044 20036 30068 40126 51007 69922 70162 83502 333 10058 20041 31003 83625 85070;
0145061100999992000010406504+55230+009270FM-15+0040EKSP V0202401N004612200019N0112651N1+00301+00301999999ADDGA1021+006009999GF102991999999999999999999MA1101191999999MW1001REMMET051EKSP 040650Z 24009KT 9999 FEW020 03/03 Q1012 NOSIG;EQDQ01+000000PRSWM2
0108061100999992000010407504+55230+009270FM-15+0040EKSP V0202401N00461220001CN0099001N1+00301+00201999999ADDMA1101291999999MW1001REMMET056EKSP 040750Z 24009KT CAVOK 03/02 Q1013 NOSIG RMK FEW050;EQDQ01+000000PRSWM2
0145061100999992000010408504+55230+009270FM-15+0040EKSP V0202401N005110054019N0112651N1+00301+00201999999ADDGA1071+005409999GF107991999999999999999999MA1101291999999MW1001REMMET051EKSP 040850Z 24010KT 9999 BKN018 03/02 Q1013 NOSIG;EQDQ01+000000PRSWM2
0189061100999992000010409004+55230+009270FM-12+0040EKSP V0202401N004610054019N0100001N1+00321+00241101391ADDAA106000091GA1051+005409029GF105991051011004501001001MA1999999100811MD1210131+9999REMSYN076AAXX  04094 06110 32460 52409 10032 20024 30081 40139 52013 85100 333 85818;EQDQ01  00002PRCP06
0145061100999992000010409504+55230+009270FM-15+0040EKSP V0202401N005112200019N0112651N1+00401+00301999999ADDGA1021+005409999GF102991999999999999999999MA1101391999999MW1001REMMET051EKSP 040950Z 24010KT 9999 FEW018 04/03 Q1014 NOSIG;EQDQ01+000000PRSWM2
0108061100999992000010410504+55230+009270FM-15+0040EKSP V0202401N00461220001CN0099001N1+00501+00401999999ADDMA1101291999999MW1001REMMET056EKSP 041050Z 24009KT CAVOK 05/04 Q1013 NOSIG RMK FEW200;EQDQ01+000000PRSWM2
0180061100999992000010411504+55230+009270FM-15+0040EKSP V0202401N005110600019N0112651N1+00601+00401999999ADDGA1021+003009999GA2071+060009999GF107991999999999999999999MA1101291999999MW1001REMMET070EKSP 041150Z 24010KT 9999 FEW010 BKN200 06/04 Q1013 TEMPO 5000 BKN006;EQDQ01+000000PRSWM2
0195061100999992000010412004+55230+009270FM-12+0040EKSP V0202401N00511075001CN0100001N1+00541+00381101301ADDAA106000091GA1011+003009079GF105991011061004501001021MA1999999100721MD1810091+9999REMSYN082AAXX  04124 06110 32460 52410 10054 20038 30072 40130 58009 81602 333 81710 85070;EQDQ01  00002PRCP06
0183061100999992000010412504+55230+009270FM-15+0040EKSP V0202401N006210054019N0112651N1+00601+00401999999ADDGA1021+003609999GA2071+005409999GF107991999999999999999999MA1101191999999MW1001REMMET073EKSP 041250Z 24012KT 9999 FEW012 BKN018 06/04 Q1012 TEMPO 5000 BR BKN006;EQDQ01+000000PRSWM2
0198061100999992000010413504+55230+009270FM-15+0040EKSP V0202301N005110057019N0112651N1+00501+00401999999ADDGA1021+002709999GA2071+005709999GA3071+060009999GF107991999999999999999999MA1101081999999MW1001REMMET072EKSP 041350Z 23010KT 9999 FEW009 BKN019 BKN200 05/04 Q1011 TEMPO BKN010;EQDQ01+000000PRSWM2
0162061100999992000010414504+55230+009270FM-15+0040EKSP V0202201N002110600019N0112651N1+00401+00301999999ADDGA1021+005409999GA2071+060009999GF107991999999999999999999MA1101081999999MW1001REMMET052EKSP 041450Z 22004KT 9999 SCT018 BKN200 04/03 Q1011;EQDQ01+000000PRSWM2
0245061100999992000010415004+55230+009270FM-12+0040EKSP V0202001N00261005401CN0090001N1+00381+00301101111ADDAA106000091AY121031AY221031GA1021+001809079GA2031+005409069GF107991041051001501001021MA1999999100531MD1710191+9999MW1101REMSYN094AAXX  04154 06110 31259 72005 10038 20030 30053 40111 57019 71022 84502 333 82706 83618 87070;EQDQ01  00002PRCP06
0185061100999992000010415164+55230+009270FM-16+0040EKSP V0202101N003110048019N0070001N1+00401+00301999999ADDGA1021+001809999GA2071+004809999GA3071+060009999GF107991999999999999999999MA1101021999999MW1001REMMET059EKSP 041516Z 21006KT 7000 FEW006 BKN016 BKN200 04/03 Q1010;EQDQ01+000000PRSWM2
0204061100999992000010415364+55230+009270FM-16+0040EKSP V0202001N004610012019N0050001N1+00401+00301999999ADDGA1021+000909999GA2071+001209999GA3071+004809999GF107991999999999999999999MA1101021999999MW1101REMMET062EKSP 041536Z 20009KT 5000 BR SCT003 BKN004 BKN016 04/03 Q1010;EQDQ01+000003PRSWM1Q02    003PRSWM1
0181061100999992000010415504+55230+009270FM-15+0040EKSP V0202101N004110015019N0050001N1+00401+00301999999ADDGA1021+000909999GA2071+001509999GF107991999999999999999999MA1100911999999MW1101REMMET055EKSP 041550Z 21008KT 5000 BR FEW003 BKN005 04/03 Q1009;EQDQ01+000003PRSWM1Q02    003PRSWM1
0181061100999992000010416334+55230+009270FM-16+0040EKSP V0201901N005110012019N0025001N1+00301+00301999999ADDGA1021+000909999GA2071+001209999GF107991999999999999999999MA1100911999999MW1101REMMET055EKSP 041633Z 19010KT 2500 BR SCT003 BKN004 03/03 Q1009;EQDQ01+000003PRSWM1Q02    003PRSWM1
0181061100999992000010416504+55230+009270FM-15+0040EKSP V0201901N004110009019N0018001N1+00301+00301999999ADDGA1021+000309999GA2071+000909999GF107991999999999999999999MA1100911999999MW1101REMMET055EKSP 041650Z 19008KT 1800 BR SCT001 BKN003 03/03 Q1009;EQDQ01+000003PRSWM1Q02    003PRSWM1
0181061100999992000010417424+55230+009270FM-16+0040EKSP V0201601N004110009019N0035001N1+00301+00201999999ADDGA1021+000609999GA2081+000909999GF108991999999999999999999MA1100811999999MW1101REMMET055EKSP 041742Z 16008KT 3500 BR FEW002 OVC003 03/02 Q1008;EQDQ01+000003PRSWM1Q02    003PRSWM1
0181061100999992000010417504+55230+009270FM-15+0040EKSP V0201501N003610009019N0040001N1+00201+00201999999ADDGA1021+000609999GA2081+000909999GF108991999999999999999999MA1100811999999MW1101REMMET055EKSP 041750Z 15007KT 4000 BR FEW002 OVC003 02/02 Q1008;EQDQ01+000003PRSWM1Q02    003PRSWM1
0261061100999992000010418004+55230+009270FM-12+0040EKSP V0201601N00411000601CN0040001N1+00241+00201100851ADDAA106000091AY121061AY221061GA1021+000609079GF108991081061000751999999KA1120M+00611KA2120N+00231MA1999999100271MD1710261+9999MW1101REMSYN100AAXX  04184 06110 31140 81608 10024 20020 30027 40085 57026 71022 886// 333 10061 20023 82702 88703;EQDQ01  00002PRCP06
0190061100999992000010418504+55230+009270FM-15+0040EKSP V0201301N004110012019N0040001N1+00301+00201999999ADDGA1071+001209999GA2081+001509999GF108991999999999999999999MA1100711999999MW1511MW2611REMMET058EKSP 041850Z 13008KT 4000 -DZRA BKN004 OVC005 03/02 Q1007;EQDQ01+000003PRSWM1Q02    003PRSWM1
0213061100999992000010419504+55230+009270FM-15+0040EKSP V0201201N005110015019N0040001N1+00301+00201999999ADDGA1021+001209999GA2071+001509999GA3081+002109999GF108991999999999999999999MA1100511999999MW1511MW2611REMMET065EKSP 041950Z 12010KT 4000 -DZRA SCT004 BKN005 OVC007 03/02 Q1005;EQDQ01+000003PRSWM1Q02    003PRSWM1
0205061100999992000010420504+55230+009270FM-15+0040EKSP V0201401N005110012019N0045001N1+00301+00201999999ADDGA1021+000909999GA2071+001209999GA3081+001809999GF108991999999999999999999MA1100411999999MW1611REMMET063EKSP 042050Z 14010KT 4500 -RA FEW003 BKN004 OVC006 03/02 Q1004;EQDQ01+000003PRSWM1Q02    003PRSWM1
0232061100999992000010421004+55230+009270FM-12+0040EKSP V0201301N004610012019N0045001N1+00281+00241100461ADDAA103001091AY161031AY251031GA1021+000909079GA2051+001209079GF108991081071000751999999MA1999999099881MD1710391+9999MW1581REMSYN100AAXX  04214 06110 21145 81309 10028 20024 39988 40046 57039 75865 887// 333 60017 82703 85704 88706;
0221061100999992000010421504+55230+009270FM-15+0040EKSP V0201601N003610027019N0040001N1+00301+00301999999ADDGA1021+001209999GA2071+002709999GA3081+003609999GF108991999999999999999999MA1100311999999MW1511MW2611REMMET073EKSP 042150Z 16007KT 130V190 4000 -DZRA FEW004 BKN009 OVC012 03/03 Q1003;EQDQ01+000003PRSWM1Q02    003PRSWM1
0205061100999992000010422504+55230+009270FM-15+0040EKSP V0202301N005710015019N0040001N1+00401+00401999999ADDGA1021+001209999GA2071+001509999GA3081+002109999GF108991999999999999999999MA1100311999999MW1511REMMET063EKSP 042250Z 23011KT 4000 -DZ SCT004 BKN005 OVC007 04/04 Q1003;EQDQ01+000003PRSWM1Q02    003PRSWM1
0162061100999992000010423504+55230+009270FM-15+0040EKSP V0202501N007210021019N0112651N1+00501+00501999999ADDGA1021+001809999GA2071+002109999GF107991999999999999999999MA1100311999999MW1001REMMET052EKSP 042350Z 25014KT 9999 SCT006 BKN007 05/05 Q1003;EQDQ01+000000PRSWM2
0260061100999992000010500004+55230+009270FM-12+0040EKSP V0202501N008210027019N0250001N1+00501+00461100351ADDAA103002091AY161061AY251061GA1011+001509079GA2031+002109079GA3071+002709079GF108991081061001501999999MA1999999099771MD1510111+9999MW1211REMSYN112AAXX  05004 06110 /1275 82516 10050 20046 39977 40035 55011 60031 72165 886// 333 60027 81705 83707 87709 90000;
0196061100999992000010500294+55230+009270FM-16+0040EKSP V0202701N009810054019N0112651N1+00401+00401999999ADDGA1021+002409999GA2021+003009999GA3071+005409999GF107991999999999999999999MA1100311999999MW1001OC101491REMMET062EKSP 050029Z 27019G29KT 9999 FEW008 SCT010 BKN018 04/04 Q1003;EQDQ01+000000PRSWM2
0196061100999992000010500504+55230+009270FM-15+0040EKSP V0202701N010310036019N0112651N1+00401+00401999999ADDGA1021+002709999GA2021+003309999GA3071+003609999GF107991999999999999999999MA1100311999999MW1001OC101541REMMET062EKSP 050050Z 27020G30KT 9999 FEW009 SCT011 BKN012 04/04 Q1003;EQDQ01+000000PRSWM2
0213061100999992000010501244+55230+009270FM-16+0040EKSP V0202801N009810024019N0070001N1+00401+00301999999ADDGA1021+001809999GA2021+002109999GA3071+002409999GF107991999999999999999999MA1100411999999MW1511MW2611REMMET065EKSP 050124Z 28019KT 7000 -DZRA FEW006 SCT007 BKN008 04/03 Q1004;EQDQ01+000003PRSWM1Q02    003PRSWM1
0224061100999992000010501504+55230+009270FM-15+0040EKSP V0202801N010310036019N0112651N1+00401+00401999999ADDGA1021+002709999GA2021+003009999GA3071+003609999GF107991999999999999999999MA1100411999999MW1511MW2611OC101541REMMET068EKSP 050150Z 28020G30KT 9999 -DZRA FEW009 SCT010 BKN012 04/04 Q1004;EQDQ01+000003PRSWM1Q02    003PRSWM1
0185061100999992000010502014+55230+009270FM-16+0040EKSP V0202801N011810045019N0112651N1+00401+00401999999ADDGA1021+003009999GA2021+003909999GA3071+004509999GF107991999999999999999999MA1100511999999MW1001REMMET059EKSP 050201Z 28023KT 9999 FEW010 SCT013 BKN015 04/04 Q1005;EQDQ01+000000PRSWM2
0196061100999992000010502504+55230+009270FM-15+0040EKSP V0202901N009310096019N0112651N1+00401+00401999999ADDGA1021+003309999GA2021+008409999GA3071+009609999GF107991999999999999999999MA1100611999999MW1001OC101441REMMET062EKSP 050250Z 29018G28KT 9999 FEW011 SCT028 BKN032 04/04 Q1006;EQDQ01+000000PRSWM2
0254061100999992000010503004+55230+009270FM-12+0040EKSP V0202901N009310120019N0300001N1+00401+00361100711ADDAA103000291AY161031AY251031GA1011+003309079GA2031+005409089GA3051+012009069GF107991071081004501001001MA1999999100131MD1210361+9999MW1801REMSYN106AAXX  05034 06110 21480 72918 10040 20036 30013 40071 52036 78065 87800 333 69927 81711 83818 85640 91133;
0102061100999992000010503504+55230+009270FM-15+0040EKSP V0202901N00821220001CN0099001N1+00401+00201999999ADDMA1100811999999MW1001REMMET050EKSP 050350Z 29016KT CAVOK 04/02 Q1008 RMK FEW050;EQDQ01+000000PRSWM2
0199061100999992000010504164+55230+009270FM-16+0040EKSP V0202901N009310090019N0112651N1+00401+00201999999ADDGA1021+003009999GA2021+004809029GA3071+009009999GF107991999999999999999999MA1100811999999MW1001OC101651REMMET065EKSP 050416Z 29018G32KT 9999 FEW010 FEW016TCU BKN030 04/02 Q1008;EQDQ01+000000PRSWM2
0102061100999992000010504374+55230+009270FM-16+0040EKSP V0202901N00621220001CN0099001N1+00401+00201999999ADDMA1100911999999MW1001REMMET050EKSP 050437Z 29012KT CAVOK 04/02 Q1009 RMK FEW050;EQDQ01+000000PRSWM2
0139061100999992000010504504+55230+009270FM-15+0040EKSP V0202901N006712200019N0112651N1+00401+00201999999ADDGA1021+014409999GF102991999999999999999999MA1100911999999MW1001REMMET045EKSP 050450Z 29013KT 9999 FEW048 04/02 Q1009;EQDQ01+000000PRSWM2
0105061100999992000010505504+55230+009270FM-15+0040EKSP V0202901N00461220001CN0099001N1+00301+00101999999ADDMA1101021999999MW1001REMMET053EKSP 050550Z 29009KT CAVOK 03/01 Q1010 NOSIG RMK SKC;EQDQ01+000000PRSWM2
0238061100999992000010506004+55230+009270FM-12+0040EKSP V0202801N004612200019N0300001N1+00271+00121101101ADDAA103999929GA1001+999999999GF100991001001999999001001IA1119IA2999+00019KA1120M+00511KA2120N+00241MA1999999100521MD1210391+9999REMSYN100333X  05064 06110 /2980 02809 10027 20012 30052 40110 52039 60032 333 10051 20024 32001 69907 91133;
0145061100999992000010506504+55230+009270FM-15+0040EKSP V0202701N005112200019N0112651N1+00201+00101999999ADDGA1021+009009999GF102991999999999999999999MA1101191999999MW1001REMMET051EKSP 050650Z 27010KT 9999 FEW030 02/01 Q1012 NOSIG;EQDQ01+000000PRSWM2
0168061100999992000010507504+55230+009270FM-15+0040EKSP V0202601N005110105019N0112651N1+00301+00101999999ADDGA1021+008109999GA2071+010509999GF107991999999999999999999MA1101291999999MW1001REMMET058EKSP 050750Z 26010KT 9999 FEW027 BKN035 03/01 Q1013 NOSIG;EQDQ01+000000PRSWM2
0168061100999992000010508504+55230+009270FM-15+0040EKSP V0202501N005110105019N0112651N1+00401+00201999999ADDGA1021+008109999GA2071+010509999GF107991999999999999999999MA1101391999999MW1001REMMET058EKSP 050850Z 25010KT 9999 FEW027 BKN035 04/02 Q1014 NOSIG;EQDQ01+000000PRSWM2
0204061100999992000010509004+55230+009270FM-12+0040EKSP V0202501N004612200019N0150001N1+00391+00231101451ADDAA106000021GA1021+009009069GA2041+012009069GF104991041051008001001001MA1999999100871MD1210351+9999REMSYN094AAXX  05094 06110 32565 42509 10039 20023 30087 40145 52035 84500 333 82630 84640 90000 90000;
0145061100999992000010509504+55230+009270FM-15+0040EKSP V0202501N003612200019N0112651N1+00401+00201999999ADDGA1021+012009999GF104991999999999999999999MA1101491999999MW1001REMMET051EKSP 050950Z 25007KT 9999 SCT040 04/02 Q1015 NOSIG;EQDQ01+000000PRSWM2
0168061100999992000010510504+55230+009270FM-15+0040EKSP V0202401N005112200019N0112651N1+00501+00301999999ADDGA1021+006009999GA2021+010509999GF104991999999999999999999MA1101491999999MW1001REMMET058EKSP 051050Z 24010KT 9999 FEW020 SCT035 05/03 Q1015 NOSIG;EQDQ01+000000PRSWM2
0168061100999992000010511504+55230+009270FM-15+0040EKSP V0202401N005710600019N0112651N1+00501+00301999999ADDGA1021+007509999GA2071+060009999GF107991999999999999999999MA1101491999999MW1001REMMET058EKSP 051150Z 24011KT 9999 FEW025 BKN200 05/03 Q1015 NOSIG;EQDQ01+000000PRSWM2
0217061100999992000010512004+55230+009270FM-12+0040EKSP V0202401N005110600019N0200001N1+00491+00271101611ADDAA106000091GA1021+007509069GA2051+060009009GF105991021051008001001021MA1999999101031MD1210161+9999REMSYN088AAXX  05124 06110 32570 52410 10049 20027 30103 40161 52016 82502 333 82625 85070 90000;EQDQ01  00002PRCP06
0168061100999992000010512504+55230+009270FM-15+0040EKSP V0202301N005710600019N0112651N1+00501+00301999999ADDGA1021+006009999GA2071+060009999GF107991999999999999999999MA1101491999999MW1001REMMET058EKSP 051250Z 23011KT 9999 FEW020 BKN200 05/03 Q1015 NOSIG;EQDQ01+000000PRSWM2
0191061100999992000010513504+55230+009270FM-15+0040EKSP V0202301N005110600019N0112651N1+00501+00301999999ADDGA1021+006009999GA2021+036009999GA3071+060009999GF107991999999999999999999MA1101491999999MW1001REMMET065EKSP 051350Z 23010KT 9999 FEW020 SCT120 BKN200 05/03 Q1015 NOSIG;EQDQ01+000000PRSWM2
0162061100999992000010514504+55230+009270FM-15+0040EKSP V0202301N007210360019N0112651N1+00501+00301999999ADDGA1021+003309999GA2071+036009999GF107991999999999999999999MA1101591999999MW1001REMMET052EKSP 051450Z 23014KT 9999 SCT011 BKN120 05/03 Q1016;EQDQ01+000000PRSWM2
0195061100999992000010515004+55230+009270FM-12+0040EKSP V0202301N00671030001CN0200001N1+00431+00311101631ADDAA106000091GA1031+003309069GF105991031051004501031021MA1999999101051MD1310021+9999REMSYN082AAXX  05154 06110 32470 52313 10043 20031 30105 40163 53002 83532 333 83611 85362;EQDQ01  00002PRCP06
0162061100999992000010515504+55230+009270FM-15+0040EKSP V0202301N006710270019N0112651N1+00401+00301999999ADDGA1021+003309999GA2071+027009999GF107991999999999999999999MA1101591999999MW1001REMMET052EKSP 051550Z 23013KT 9999 FEW011 BKN090 04/03 Q1016;EQDQ01+000000PRSWM2
0102061100999992000010516504+55230+009270FM-15+0040EKSP V0202201N00571220001CN0099001N1+00301+00201999999ADDMA1101491999999MW1001REMMET050EKSP 051650Z 22011KT CAVOK 03/02 Q1015 RMK BKN090;EQDQ01+000000PRSWM2
0102061100999992000010517504+55230+009270FM-15+0040EKSP V0202001N00411220001CN0099001N1+00201+00201999999ADDMA1101591999999MW1001REMMET050EKSP 051750Z 20008KT CAVOK 02/02 Q1016 RMK SCT090;EQDQ01+000000PRSWM2
0139061100999992000010518504+55230+009270FM-15+0040EKSP V0201901N004112200019N0112651N1+00201+00201999999ADDGA1021+010509999GF102991999999999999999999MA1101591999999MW1001REMMET045EKSP 051850Z 19008KT 9999 FEW035 02/02 Q1016;EQDQ01+000000PRSWM2
0139061100999992000010519504+55230+009270FM-15+0040EKSP V0201901N004610120019N0112651N1+00201+00201999999ADDGA1071+012009999GF107991999999999999999999MA1101591999999MW1001REMMET045EKSP 051950Z 19009KT 9999 BKN040 02/02 Q1016;EQDQ01+000000PRSWM2
0139061100999992000010520504+55230+009270FM-15+0040EKSP V0201901N005110135019N0112651N1+00201+00101999999ADDGA1071+013509999GF107991999999999999999999MA1101491999999MW1001REMMET045EKSP 052050Z 19010KT 9999 BKN045 02/01 Q1015;EQDQ01+000000PRSWM2
0189061100999992000010521004+55230+009270FM-12+0040EKSP V0201901N005110135019N0150001N1+00201+00131101581ADDAA106000091GA1051+013509059GF105991051051012501001001MA1999999100991MD1810041+9999REMSYN076AAXX  05214 06110 32665 51910 10020 20013 30099 40158 58004 85500 333 85645;EQDQ01  00002PRCP06
0099061100999992000010521504+55230+009270FM-15+0040EKSP V0202001N00571220001CN0099001N1+00201+00101999999ADDMA1101491999999MW1001REMMET047EKSP 052150Z 20011KT CAVOK 02/01 Q1015 RMK SKC;EQDQ01+000000PRSWM2
0139061100999992000010600504+55230+009270FM-15+0040EKSP V0202001N006212200019N0112651N1+00301+00201999999ADDGA1021+010509999GF104991999999999999999999MA1101391999999MW1001REMMET045EKSP 060050Z 20012KT 9999 SCT035 03/02 Q1014;EQDQ01+000000PRSWM2
0139061100999992000010601504+55230+009270FM-15+0040EKSP V0201901N005110024019N0112651N1+00301+00201999999ADDGA1071+002409999GF107991999999999999999999MA1101291999999MW1001REMMET045EKSP 060150Z 19010KT 9999 BKN008 03/02 Q1013;EQDQ01+000000PRSWM2
0139061100999992000010602504+55230+009270FM-15+0040EKSP V0202001N006712200019N0112651N1+00301+00201999999ADDGA1021+002709999GF104991999999999999999999MA1101291999999MW1001REMMET045EKSP 060250Z 20013KT 9999 SCT009 03/02 Q1013;EQDQ01+000000PRSWM2
0189061100999992000010603004+55230+009270FM-12+0040EKSP V0201901N006212200019N0100001N1+00271+00201101311ADDAA106000091GA1041+002709069GF104991041061002501001011MA1999999100721MD1710141+9999REMSYN076AAXX  06034 06110 32360 41912 10027 20020 30072 40131 57014 84601 333 84709;EQDQ01  00002PRCP06
0139061100999992000010603504+55230+009270FM-15+0040EKSP V0202001N006712200019N0090001N1+00201+00101999999ADDGA1021+002109999GF104991999999999999999999MA1101191999999MW1001REMMET045EKSP 060350Z 20013KT 9000 SCT007 02/01 Q1012;EQDQ01+000000PRSWM2
0162061100999992000010604504+55230+009270FM-15+0040EKSP V0201901N006210150019N0070001N1+00201+00201999999ADDGA1021+002109999GA2071+015009999GF107991999999999999999999MA1101081999999MW1001REMMET052EKSP 060450Z 19012KT 7000 FEW007 BKN050 02/02 Q1011;EQDQ01+000000PRSWM2
0160061100999992000010605504+55230+009270FM-15+0040EKSP V0201901N006710021019N0070001N1+00301+00201999999ADDGA1071+002109999GF107991999999999999999999MA1101081999999MW1001REMMET066EKSP 060550Z 19013KT 7000 BKN007 03/02 Q1011 TEMPO 4000 BR SCT006;EQDQ01+000000PRSWM2
0279061100999992000010606004+55230+009270FM-12+0040EKSP V0201901N006710021019N0070001N1+00271+00201101171ADDAA106000091AY111061AY211061GA1061+002109069GF106991061061002501001011IA1019IA2999+00019KA1120M+00331KA2120N+00171MA1999999100591MD1710131+9999MW1101REMSYN100333X  06064 06110 31357 61913 10027 20020 30059 40117 57013 71011 86601 333 10033 20017 30001 86707;EQDQ01  00002PRCP06
0183061100999992000010606504+55230+009270FM-15+0040EKSP V0201901N006210027019N0070001N1+00301+00201999999ADDGA1021+002109999GA2071+002709999GF107991999999999999999999MA1101081999999MW1001REMMET073EKSP 060650Z 19012KT 7000 SCT007 BKN009 03/02 Q1011 TEMPO 4000 BR SCT006;EQDQ01+000000PRSWM2
0213061100999992000010607504+55230+009270FM-15+0040EKSP V0202001N007710027019N0070001N1+00401+00301999999ADDGA1021+002109999GA2071+002709999GA3071+003609999GF107991999999999999999999MA1101021999999MW1001REMMET087EKSP 060750Z 20015KT 7000 SCT007 BKN009 BKN012 04/03 Q1010 TEMPO 4000 BR SCT006 BKN012;EQDQ01+000000PRSWM2
0235061100999992000010608504+55230+009270FM-15+0040EKSP V0202101N008210042019N0080001N1+00501+00401999999ADDGA1021+002709999GA2071+004209999GF107991999999999999999999MA1101021999999MW1511MW2611REMMET103EKSP 060850Z 21016KT 8000 -DZRA SCT009 BKN014 05/04 Q1010 BECMG FM1000 20018G30KT TEMPO 4000 BR BKN006;EQDQ01+000003PRSWM1Q02    003PRSWM1
0210061100999992000010609004+55230+009270FM-12+0040EKSP V0202101N00821002101CN0080001N1+00481+00361101041ADDAA103999929AY161031AY221031GA1041+002709079GF108991071061002501001021MA1999999100461MD1710131+9999MW1581REMSYN094AAXX  06094 06110 21358 82116 10048 20036 30046 40104 57013 75862 87602 333 69907 84709 86614;
0194061100999992000010609514+55230+009270FM-15+0040EKSP V0202001N009310051019N0080001N1+00501+00401999999ADDGA1021+003609999GA2071+005109999GF107991999999999999999999MA1101021999999MW1001REMMET084EKSP 060951Z 20018KT 8000 SCT012 BKN017 05/04 Q1010 TEMPO 20018G30KT 4000 BR BKN006;EQDQ01+000000PRSWM2
0214061100999992000010610504+55230+009270FM-15+0040EKSP V0202001N008210054019N0080001N1+00601+00401999999ADDGA1021+003609999GA2071+005409999GF107991999999999999999999MA1100911999999MW1611REMMET088EKSP 061050Z 20016KT 8000 -RA SCT012 BKN018 06/04 Q1009 TEMPO 20018G30KT 4000 BR BKN006;EQDQ01+000003PRSWM1Q02    003PRSWM1
0211061100999992000010611344+55230+009270FM-16+0040EKSP V0202101N010810054019N0080001N1+00601+00401999999ADDGA1021+003909999GA2071+005409999GF107991999999999999999999MA1100811999999MW1611OC101591REMMET077EKSP 061134Z 21021G31KT 8000 -RA SCT013 BKN018 06/04 Q1008 BECMG 5000 BKN008;EQDQ01+000003PRSWM1Q02    003PRSWM1
0211061100999992000010611504+55230+009270FM-15+0040EKSP V0202101N010310048019N0080001N1+00601+00401999999ADDGA1021+003909999GA2071+004809999GF107991999999999999999999MA1100811999999MW1611OC101541REMMET077EKSP 061150Z 21020G30KT 8000 -RA SCT013 BKN016 06/04 Q1008 BECMG 5000 BKN008;EQDQ01+000003PRSWM1Q02    003PRSWM1
0238061100999992000010612004+55230+009270FM-12+0040EKSP V0202101N009310048019N0080001N1+00561+00431100911ADDAA103999929AY161061AY221061GA1041+003909069GA2071+004809069GF108991081071004501999999MA1999999100331MD1710131+9999MW1601REMSYN106AAXX  06124 06110 /1458 82118 10056 20043 30033 40091 57013 69901 76062 887// 333 69907 84613 87616 91131;
0211061100999992000010612084+55230+009270FM-16+0040EKSP V0202101N009810048019N0050001N1+00601+00501999999ADDGA1021+003609999GA2071+004809999GF107991999999999999999999MA1100811999999MW1611OC101851REMMET077EKSP 061208Z 21019G36KT 5000 -RA SCT012 BKN016 06/05 Q1008 TEMPO 2500 BKN005;EQDQ01+000003PRSWM1Q02    003PRSWM1
0210061100999992000010612504+55230+009270FM-15+0040EKSP V0202201N010310036019N0045001N1+00501+00501999999ADDGA1021+002409999GA2071+003609999GF107991999999999999999999MA1100911999999MW1631REMMET084EKSP 061250Z 22020KT 4500 RA SCT008 BKN012 05/05 Q1009 TEMPO 22020G32KT 2500 BKN005;EQDQ01+000003PRSWM1Q02    003PRSWM1
0211061100999992000010613504+55230+009270FM-15+0040EKSP V0202201N009310027019N0045001N1+00501+00501999999ADDGA1021+001809999GA2071+002709999GF107991999999999999999999MA1100911999999MW1611REMMET085EKSP 061350Z 22018KT 4500 -RA SCT006 BKN009 05/05 Q1009 TEMPO 22020G32KT 2500 BKN005;EQDQ01+000003PRSWM1Q02    003PRSWM1
0182061100999992000010614504+55230+009270FM-15+0040EKSP V0202201N009810027019N0045001N1+00601+00501999999ADDGA1021+001809999GA2071+002709999GF107991999999999999999999MA1100811999999MW1611REMMET056EKSP 061450Z 22019KT 4500 -RA SCT006 BKN009 06/05 Q1008;EQDQ01+000003PRSWM1Q02    003PRSWM1
0232061100999992000010615004+55230+009270FM-12+0040EKSP V0202201N009810027019N0045001N1+00591+00541100881ADDAA103002091AY161031AY261031GA1031+001809079GA2071+002709079GF108991081071001501999999MA1999999100301MD1810031+9999MW1611REMSYN100AAXX  06154 06110 21245 82219 10059 20054 30030 40088 58003 76166 887// 333 60027 83706 87709 91131;
0182061100999992000010615504+55230+009270FM-15+0040EKSP V0202201N009810027019N0045001N1+00601+00501999999ADDGA1021+001809999GA2071+002709999GF107991999999999999999999MA1100811999999MW1611REMMET056EKSP 061550Z 22019KT 4500 -RA SCT006 BKN009 06/05 Q1008;EQDQ01+000003PRSWM1Q02    003PRSWM1
0185061100999992000010616504+55230+009270FM-15+0040EKSP V0202301N009310030019N0060001N1+00601+00601999999ADDGA1021+002409999GA2071+003009999GA3071+003609999GF107991999999999999999999MA1100811999999MW1001REMMET059EKSP 061650Z 23018KT 6000 SCT008 BKN010 BKN012 06/06 Q1008;EQDQ01+000000PRSWM2
0190061100999992000010617504+55230+009270FM-15+0040EKSP V0202301N009310018019N0040001N1+00601+00601999999ADDGA1071+001809999GA2071+003009999GF107991999999999999999999MA1100911999999MW1511MW2611REMMET058EKSP 061750Z 23018KT 4000 -DZRA BKN006 BKN010 06/06 Q1009;EQDQ01+000003PRSWM1Q02    003PRSWM1
0167061100999992000010619504+55230+009270FM-15+0040EKSP V0202401N007210018019N0050001N1+00601+00601999999ADDGA1071+001809999GF107991999999999999999999MA1100911999999MW1511MW2611REMMET051EKSP 061950Z 24014KT 5000 -DZRA BKN006 06/06 Q1009;EQDQ01+000003PRSWM1Q02    003PRSWM1
0159061100999992000010620504+55230+009270FM-15+0040EKSP V0202501N007710021019N0070001N1+00601+00601999999ADDGA1071+002109999GF107991999999999999999999MA1101021999999MW1611REMMET049EKSP 062050Z 25015KT 7000 -RA BKN007 06/06 Q1010;EQDQ01+000003PRSWM1Q02    003PRSWM1
0204061100999992000010621004+55230+009270FM-12+0040EKSP V0202601N007710021019N0070001N1+00631+00581101101ADDAA103000291AY161031AY251031GA1071+002109069GF108991081071002501999999MA1999999100521MD1210181+9999MW1611REMSYN088AAXX  06214 06110 21357 82615 10063 20058 30052 40110 52018 76165 887// 333 69927 87707;
0162061100999992000010621504+55230+009270FM-15+0040EKSP V0202801N005110075019N0112651N1+00601+00501999999ADDGA1021+001809999GA2071+007509999GF107991999999999999999999MA1101081999999MW1001REMMET052EKSP 062150Z 28010KT 9999 SCT006 BKN025 06/05 Q1011;EQDQ01+000000PRSWM2
0139061100999992000010622504+55230+009270FM-15+0040EKSP V0202801N003610120019N0112651N1+00501+00401999999ADDGA1071+012009999GF107991999999999999999999MA1101291999999MW1001REMMET045EKSP 062250Z 28007KT 9999 BKN040 05/04 Q1013;EQDQ01+000000PRSWM2
0139061100999992000010623504+55230+009270FM-15+0040EKSP V0202701N002612200019N0112651N1+00301+00301999999ADDGA1021+012009999GF102991999999999999999999MA1101391999999MW1001REMMET045EKSP 062350Z 27005KT 9999 FEW040 03/03 Q1014;EQDQ01+000000PRSWM2
0216061100999992000010700004+55230+009270FM-12+0040EKSP V0202701N002612200019N0200001N1+00301+00251101481ADDAA103999929AY161061AY251061GA1011+012009069GF101991011051012501001001MA1999999100891MD1210371+9999MW1011REMSYN100AAXX  07004 06110 /1670 12705 10030 20025 30089 40148 52037 69921 70165 81500 333 69907 81640 90000;
0102061100999992000010700504+55230+009270FM-15+0040EKSP V0202401N00261220001CN0099001N1+00101+00101999999ADDMA1101391999999MW1001REMMET050EKSP 070050Z 24005KT CAVOK 01/01 Q1014 RMK FEW200;EQDQ01+000000PRSWM2
0103061100999992000010701504+55230+009270FM-15+0040EKSP V0202401N00211220001CN0099001N1+00001+00001999999ADDMA1101491999999MW1001REMMET051EKSP 070150Z 24004KT CAVOK 00/M00 Q1015 RMK FEW200;EQDQ01+000000PRSWM2
0103061100999992000010702504+55230+009270FM-15+0040EKSP V0202301N00151220001CN0099001N1+00001+00001999999ADDMA1101591999999MW1001REMMET051EKSP 070250Z 23003KT CAVOK 00/M00 Q1016 RMK FEW200;EQDQ01+000000PRSWM2
0170061100999992000010703004+55230+009270FM-12+0040EKSP V0202401N001512200019N0300001N1+00021-00031101631ADDAA106000021GA1011+060009019GF101991001001999999001011MA1999999101041MD1210151+9999REMSYN076AAXX  07034 06110 32980 12403 10002 21003 30104 40163 52015 80001 333 81070;
0161061100999992000010703504+55230+009270FM-15+0040EKSP V0202001N001012200019N0112651N1+00001+00001999999ADDGA1021+060009999GF104991999999999999999999MA1101591999999MW1121REMMET051EKSP 070350Z 20002KT 9999 MIFG SCT200 00/M00 Q1016;EQDQ01+000003PRSWM1Q02    003PRSWM1
0161061100999992000010704504+55230+009270FM-15+0040EKSP V0202301N003112200019N0112651N1+00001-00101999999ADDGA1021+060009999GF104991999999999999999999MA1101591999999MW1121REMMET051EKSP 070450Z 23006KT 9999 MIFG SCT200 00/M01 Q1016;EQDQ01+000003PRSWM1Q02    003PRSWM1
0128061100999992000010705504+55230+009270FM-15+0040EKSP V0202101N00261220001CN0099001N1+00001+00001999999ADDMA1101591999999MW1001REMMET076EKSP 070550Z 21005KT CAVOK 00/M00 Q1016 TEMPO 3000 MIFG 79390095 RMK SCT200;EQDQ01+000000PRSWM2
0238061100999992000010706004+55230+009270FM-12+0040EKSP V0202101N002612200019N0200001N1+00031-00021101721ADDAA112000191GA1031+060009019GF103991001001999999001011IA1119IA2999-00039KA1120M+00631KA2120N-00041MA1999999101131MD1210091+9999REMSYN100AAXX  07064 06110 12970 32105 10003 21002 30113 40172 52009 69922 80001 333 10063 21004 32103 83070;
0129061100999992000010706504+55230+009270FM-15+0040EKSP V0201901N00311220001CN0099001N1+00001-00101999999ADDMA1101691999999MW1001REMMET077EKSP 070650Z 19006KT CAVOK M00/M01 Q1017 TEMPO 2500 MIFG 79390095 RMK FEW200;EQDQ01+000000PRSWM2
0129061100999992000010707504+55230+009270FM-15+0040EKSP V0201901N00311220001CN0099001N1+00001-00101999999ADDMA1101691999999MW1001REMMET077EKSP 070750Z 19006KT CAVOK M00/M01 Q1017 TEMPO 2500 MIFG 79390095 RMK SCT200;EQDQ01+000000PRSWM2
0124061100999992000010708504+55230+009270FM-15+0040EKSP V0202001N00411220001CN0099001N1+00101+00001999999ADDMA1101691999999MW1001REMMET072EKSP 070850Z 20008KT CAVOK 01/00 Q1017 NOSIG 79390095 RMK FEW120 BKN200;EQDQ01+000000PRSWM2
0195061100999992000010709004+55230+009270FM-12+0040EKSP V0202001N004119999999N0200001N1+00101+00051101761ADDAA106000091GA1011+036009039GF105991011001999999031011MA1999999101171MD1210041+9999REMSYN082AAXX  07094 06110 32970 52008 10010 20005 30117 40176 52004 81031 333 81362 85070;EQDQ01  00002PRCP06
0194061100999992000010709504+55230+009270FM-15+0040EKSP V0202101N004610600019N0070001N1+00201+00201999999ADDGA1021+000609999GA2071+060009999GF107991999999999999999999MA1101691999999MW1001REMMET084EKSP 070950Z 21009KT 7000 FEW002 BKN200 02/02 Q1017 TEMPO 1200 BCFG BKN002 ////////;EQDQ01+000000PRSWM2
0213061100999992000010710154+55230+009270FM-16+0040EKSP V0202201N005710540019N0045001N1+00201+00201999999ADDGA1021+000909999GA2071+054009999GF107991999999999999999999MA1101691999999MW1101REMMET087EKSP 071015Z 22011KT 4500 BR SCT003 BKN180 02/02 Q1017 TEMPO 1200 BCFG BKN002 ////////;EQDQ01+000003PRSWM1Q02    003PRSWM1
0236061100999992000010710184+55230+009270FM-16+0040EKSP V0202201N005710012019N0040001N1+00201+00201999999ADDGA1021+000909999GA2071+001209999GA3071+054009999GF107991999999999999999999MA1101691999999MW1101REMMET094EKSP 071018Z 22011KT 4000 BR FEW003 BKN004 BKN180 02/02 Q1017 TEMPO 1200 BCFG BKN002 ////////;EQDQ01+000003PRSWM1Q02    003PRSWM1
0201061100999992000010710424+55230+009270FM-16+0040EKSP V0202101N005110006019N0028001N1+00201+00201999999ADDGA1021+000309999GA2071+000609999GF107991999999999999999999MA1101691999999MW1101REMMET075EKSP 071042Z 21010KT 2800 BR FEW001 BKN002 02/02 Q1017 BECMG 0400 FG VV001;EQDQ01+000003PRSWM1Q02    003PRSWM1
0201061100999992000010710504+55230+009270FM-15+0040EKSP V0202101N005710006019N0020001N1+00201+00201999999ADDGA1021+000309999GA2071+000609999GF107991999999999999999999MA1101691999999MW1101REMMET075EKSP 071050Z 21011KT 2000 BR FEW001 BKN002 02/02 Q1017 BECMG 0400 FG VV001;EQDQ01+000003PRSWM1Q02    003PRSWM1
0183061100999992000010711504+55230+009270FM-15+0040EKSP V0202101N006210360019N0112651N1+00301+00301999999ADDGA1021+000909999GA2071+036009999GF107991999999999999999999MA1101591999999MW1001REMMET073EKSP 071150Z 21012KT 9999 FEW003 BKN120 03/03 Q1016 TEMPO 3000 BR BKN004;EQDQ01+000000PRSWM2
0195061100999992000010712004+55230+009270FM-12+0040EKSP V0202101N00571030001CN0150001N1+00341+00291101621ADDAA106000091GA1011+000909079GF107991011061000751071021MA1999999101031MD1710141+9999REMSYN082AAXX  07124 06110 32165 72111 10034 20029 30103 40162 57014 81672 333 81703 87362;EQDQ01  00002PRCP06
0206061100999992000010712504+55230+009270FM-15+0040EKSP V0202101N007210360019N0112651N1+00401+00301999999ADDGA1021+002109999GA2071+036009999GA3071+060009999GF107991999999999999999999MA1101491999999MW1001REMMET080EKSP 071250Z 21014KT 9999 FEW007 BKN120 BKN200 04/03 Q1015 TEMPO 3000 BR BKN004;EQDQ01+000000PRSWM2
0185061100999992000010713374+55230+009270FM-16+0040EKSP V0202101N007710024019N0090001N1+00401+00301999999ADDGA1021+002109999GA2071+002409999GA3071+060009999GF107991999999999999999999MA1101491999999MW1001REMMET059EKSP 071337Z 21015KT 9000 FEW007 BKN008 BKN200 04/03 Q1015;EQDQ01+000000PRSWM2
0173061100999992000010713444+55230+009270FM-16+0040EKSP V0202201N008210027019N0090001N1+00401+00301999999ADDGA1021+002409999GA2071+002709999GF107991999999999999999999MA1101491999999MW1001OC101341REMMET055EKSP 071344Z 22016G26KT 9000 SCT008 BKN009 04/03 Q1015;EQDQ01+000000PRSWM2
0162061100999992000010713504+55230+009270FM-15+0040EKSP V0202201N008210027019N0080001N1+00401+00301999999ADDGA1021+002409999GA2071+002709999GF107991999999999999999999MA1101491999999MW1001REMMET052EKSP 071350Z 22016KT 8000 SCT008 BKN009 04/03 Q1015;EQDQ01+000000PRSWM2
0162061100999992000010714044+55230+009270FM-16+0040EKSP V0202201N009310024019N0070001N1+00401+00301999999ADDGA1021+002109999GA2071+002409999GF107991999999999999999999MA1101491999999MW1001REMMET052EKSP 071404Z 22018KT 7000 SCT007 BKN008 04/03 Q1015;EQDQ01+000000PRSWM2
0162061100999992000010714504+55230+009270FM-15+0040EKSP V0202201N009810021019N0060001N1+00401+00301999999ADDGA1021+001809999GA2071+002109999GF107991999999999999999999MA1101491999999MW1001REMMET052EKSP 071450Z 22019KT 6000 FEW006 BKN007 04/03 Q1015;EQDQ01+000000PRSWM2
0245061100999992000010715004+55230+009270FM-12+0040EKSP V0202201N008710021019N0060001N1+00421+00311101531ADDAA106000091AY121031AY221031GA1011+001809079GA2071+002109079GF108991081061001501999999MA1999999100951MD1710081+9999MW1101REMSYN094AAXX  07154 06110 31256 82217 10042 20031 30095 40153 57008 71022 886// 333 81706 87707 91130;EQDQ01  00002PRCP06
0139061100999992000010715504+55230+009270FM-15+0040EKSP V0202201N008710021019N0060001N1+00401+00301999999ADDGA1071+002109999GF107991999999999999999999MA1101391999999MW1001REMMET045EKSP 071550Z 22017KT 6000 BKN007 04/03 Q1014;EQDQ01+000000PRSWM2
0185061100999992000010716504+55230+009270FM-15+0040EKSP V0202101N009310024019N0060001N1+00501+00401999999ADDGA1021+002109999GA2071+002409999GA3071+003609999GF107991999999999999999999MA1101391999999MW1001REMMET059EKSP 071650Z 21018KT 6000 SCT007 BKN008 BKN012 05/04 Q1014;EQDQ01+000000PRSWM2
0185061100999992000010717504+55230+009270FM-15+0040EKSP V0202201N009310027019N0060001N1+00501+00401999999ADDGA1021+002409999GA2071+002709999GA3071+003609999GF107991999999999999999999MA1101291999999MW1001REMMET059EKSP 071750Z 22018KT 6000 FEW008 BKN009 BKN012 05/04 Q1013;EQDQ01+000000PRSWM2
0305061100999992000010718004+55230+009270FM-12+0040EKSP V0202201N009310027019N0060001N1+00531+00421101361ADDAA106000091AY121061AY221061GA1011+002409079GA2061+002709079GA3071+003609069GF108991081061002501999999KA1120M+00531KA2120N-00041MA1999999100781MD1710171+9999MW1101REMSYN112AAXX  07184 06110 31356 82218 10053 20042 30078 40136 57017 71022 886// 333 10053 21004 81708 86709 87612 91130;EQDQ01  00002PRCP06
0185061100999992000010718504+55230+009270FM-15+0040EKSP V0202201N010310030019N0070001N1+00501+00401999999ADDGA1021+002409999GA2071+003009999GA3071+003609999GF107991999999999999999999MA1101291999999MW1001REMMET059EKSP 071850Z 22020KT 7000 SCT008 BKN010 BKN012 05/04 Q1013;EQDQ01+000000PRSWM2
0185061100999992000010719504+55230+009270FM-15+0040EKSP V0202201N009810036019N0070001N1+00601+00401999999ADDGA1021+002409999GA2071+003609999GA3071+004209999GF107991999999999999999999MA1101291999999MW1001REMMET059EKSP 071950Z 22019KT 7000 SCT008 BKN012 BKN014 06/04 Q1013;EQDQ01+000000PRSWM2
0185061100999992000010720504+55230+009270FM-15+0040EKSP V0202201N010310036019N0070001N1+00601+00401999999ADDGA1021+002709999GA2071+003609999GA3071+004209999GF107991999999999999999999MA1101191999999MW1001REMMET059EKSP 072050Z 22020KT 7000 SCT009 BKN012 BKN014 06/04 Q1012;EQDQ01+000000PRSWM2
0267061100999992000010721004+55230+009270FM-12+0040EKSP V0202201N009810036019N0070001N1+00551+00441101281ADDAA106000091AY121031AY221031GA1031+002709079GA2051+003609069GA3071+004209069GF108991081051002501999999MA1999999100701MD1810081+9999MW1101REMSYN100AAXX  07214 06110 31357 82219 10055 20044 30070 40128 58008 71022 885// 333 83709 85612 87614 91130;EQDQ01  00002PRCP06
0196061100999992000010721504+55230+009270FM-15+0040EKSP V0202201N010810030019N0070001N1+00601+00401999999ADDGA1021+002409999GA2071+003009999GA3071+003609999GF107991999999999999999999MA1101191999999MW1001OC101651REMMET062EKSP 072150Z 22021G32KT 7000 SCT008 BKN010 BKN012 06/04 Q1012;EQDQ01+000000PRSWM2
0185061100999992000010722504+55230+009270FM-15+0040EKSP V0202201N010810036019N0070001N1+00501+00401999999ADDGA1021+002709999GA2071+003609999GA3071+004209999GF107991999999999999999999MA1101081999999MW1001REMMET059EKSP 072250Z 22021KT 7000 SCT009 BKN012 BKN014 05/04 Q1011;EQDQ01+000000PRSWM2
0185061100999992000010723504+55230+009270FM-15+0040EKSP V0202201N010810036019N0070001N1+00501+00401999999ADDGA1021+002709999GA2071+003609999GA3071+004209999GF107991999999999999999999MA1101081999999MW1001REMMET059EKSP 072350Z 22021KT 7000 SCT009 BKN012 BKN014 05/04 Q1011;EQDQ01+000000PRSWM2
0267061100999992000010800004+55230+009270FM-12+0040EKSP V0202201N011310036019N0070001N1+00521+00381101161ADDAA106000091AY121061AY221061GA1031+002709079GA2051+003609069GA3071+004209069GF108991081051002501999999MA1999999100581MD1710121+9999MW1101REMSYN100AAXX  08004 06110 31357 82222 10052 20038 30058 40116 57012 71022 885// 333 83709 85612 87614 91135;EQDQ01  00002PRCP06
0185061100999992000010800504+55230+009270FM-15+0040EKSP V0202201N010810042019N0070001N1+00501+00401999999ADDGA1021+003609999GA2071+004209999GA3071+004809999GF107991999999999999999999MA1101081999999MW1001REMMET059EKSP 080050Z 22021KT 7000 SCT012 BKN014 BKN016 05/04 Q1011;EQDQ01+000000PRSWM2
0185061100999992000010801504+55230+009270FM-15+0040EKSP V0202201N010810036019N0080001N1+00501+00401999999ADDGA1021+003009999GA2071+003609999GA3071+004209999GF107991999999999999999999MA1101021999999MW1001REMMET059EKSP 080150Z 22021KT 8000 SCT010 BKN012 BKN014 05/04 Q1010;EQDQ01+000000PRSWM2
0196061100999992000010802504+55230+009270FM-15+0040EKSP V0202201N010810036019N0080001N1+00501+00401999999ADDGA1021+003009999GA2071+003609999GA3071+004209999GF107991999999999999999999MA1100911999999MW1001OC101591REMMET062EKSP 080250Z 22021G31KT 8000 SCT010 BKN012 BKN014 05/04 Q1009;EQDQ01+000000PRSWM2
0267061100999992000010803004+55230+009270FM-12+0040EKSP V0202201N011310036019N0080001N1+00521+00381101011ADDAA106000091AY121031AY221031GA1031+003009079GA2051+003609069GA3071+004209069GF108991081051004501999999MA1999999100431MD1710151+9999MW1101REMSYN100AAXX  08034 06110 31458 82222 10052 20038 30043 40101 57015 71022 885// 333 83710 85612 87614 91135;EQDQ01  00002PRCP06
0185061100999992000010803504+55230+009270FM-15+0040EKSP V0202201N010810036019N0080001N1+00501+00401999999ADDGA1021+002709999GA2071+003609999GA3071+004209999GF107991999999999999999999MA1100911999999MW1001REMMET059EKSP 080350Z 22021KT 8000 SCT009 BKN012 BKN014 05/04 Q1009;EQDQ01+000000PRSWM2
0185061100999992000010804504+55230+009270FM-15+0040EKSP V0202201N010810030019N0060001N1+00501+00401999999ADDGA1021+002109999GA2071+003009999GA3071+004209999GF107991999999999999999999MA1100911999999MW1001REMMET059EKSP 080450Z 22021KT 6000 SCT007 BKN010 BKN014 05/04 Q1009;EQDQ01+000000PRSWM2
0215061100999992000010805024+55230+009270FM-16+0040EKSP V0202201N010310030019N0040001N1+00501+00401999999ADDGA1021+002109999GA2071+003009999GA3071+004209999GF107991999999999999999999MA1100811999999MW1101OC101651REMMET065EKSP 080502Z 22020G32KT 4000 BR SCT007 BKN010 BKN014 05/04 Q1008;EQDQ01+000003PRSWM1Q02    003PRSWM1
0193061100999992000010805504+55230+009270FM-15+0040EKSP V0202201N011310018019N0030001N1+00501+00401999999ADDGA1071+001809999GA2071+002709999GF107991999999999999999999MA1100811999999MW1511OC101651REMMET059EKSP 080550Z 22022G32KT 3000 -DZ BKN006 BKN009 05/04 Q1008;EQDQ01+000003PRSWM1Q02    003PRSWM1
0284061100999992000010806004+55230+009270FM-12+0040EKSP V0202201N01031001201CN0030001N1+00491+00431100871ADDAA103999929AY161061AY251061GA1021+006009029GF108991081071001501999999IA1119IA2999+00059KA1120M+00561KA2120N+00491MA1999999100291MD1710141+9999MW1581REMSYN124333X  08064 06110 /1230 82220 10049 20043 30029 40087 57014 69902 75865 887// 333 10056 20049 32005 69907 85706 87709 91135;
0183061100999992000010806504+55230+009270FM-15+0040EKSP V0202201N010810015019N0030001N1+00501+00401999999ADDGA1071+001509999GA2071+002109999GF107991999999999999999999MA1100811999999MW1101MW2511MW3611REMMET061EKSP 080650Z 22021KT 3000 -RADZ BR BKN005 BKN007 05/04 Q1008;EQDQ01+000003PRSWM1
0206061100999992000010807504+55230+009270FM-15+0040EKSP V0202201N010810015019N0035001N1+00501+00501999999ADDGA1021+001209999GA2071+001509999GA3071+002109999GF107991999999999999999999MA1100911999999MW1101MW2511MW3611REMMET068EKSP 080750Z 22021KT 3500 -RADZ BR SCT004 BKN005 BKN007 05/05 Q1009;EQDQ01+000003PRSWM1
0191061100999992000010808504+55230+009270FM-15+0040EKSP V0202301N010810012019N0045001N1+00601+00501999999ADDGA1071+001209999GA2071+001509999GF107991999999999999999999MA1100911999999MW1101MW2511REMMET059EKSP 080850Z 23021KT 4500 -DZ BR BKN004 BKN005 06/05 Q1009;EQDQ01+000003PRSWM1Q02    003PRSWM1
0232061100999992000010809004+55230+009270FM-12+0040EKSP V0202301N010810012019N0045001N1+00581+00521101001ADDAA103001091AY161031AY251031GA1051+001209079GA2071+001509079GF108991081071001501999999MA1999999100421MD1210131+9999MW1501REMSYN100AAXX  08094 06110 21245 82321 10058 20052 30042 40100 52013 75065 887// 333 60017 85704 87705 91133;
0181061100999992000010809504+55230+009270FM-15+0040EKSP V0202401N010810012019N0035001N1+00601+00501999999ADDGA1021+000909999GA2071+001209999GF107991999999999999999999MA1101021999999MW1101REMMET055EKSP 080950Z 24021KT 3500 BR FEW003 BKN004 06/05 Q1010;EQDQ01+000003PRSWM1Q02    003PRSWM1
0185061100999992000010810504+55230+009270FM-15+0040EKSP V0202401N008210018019N0112651N1+00601+00601999999ADDGA1021+001509999GA2071+001809999GA3081+024009999GF108991999999999999999999MA1101021999999MW1001REMMET059EKSP 081050Z 24016KT 9999 FEW005 BKN006 OVC080 06/06 Q1010;EQDQ01+000000PRSWM2
0185061100999992000010811504+55230+009270FM-15+0040EKSP V0202401N007710030019N0112651N1+00701+00601999999ADDGA1021+002409999GA2071+003009999GA3071+024009999GF107991999999999999999999MA1101021999999MW1001REMMET059EKSP 081150Z 24015KT 9999 FEW008 BKN010 BKN080 07/06 Q1010;EQDQ01+000000PRSWM2
0260061100999992000010812004+55230+009270FM-12+0040EKSP V0202501N008210240019N0120001N1+00671+00611101111ADDAA103999929AY161061AY251061GA1011+002409079GA2041+003009079GA3071+024009039GF107991041061002501071001MA1999999100531MD1210111+9999MW1021REMSYN112AAXX  08124 06110 /1362 72516 10067 20061 30053 40111 52011 60011 70265 84670 333 69907 81708 84710 87358 91133;
0162061100999992000010812504+55230+009270FM-15+0040EKSP V0202401N007712200019N0112651N1+00701+00601999999ADDGA1021+002709999GA2021+003609999GF104991999999999999999999MA1101081999999MW1001REMMET052EKSP 081250Z 24015KT 9999 FEW009 SCT012 07/06 Q1011;EQDQ01+000000PRSWM2
0139061100999992000010813504+55230+009270FM-15+0040EKSP V0202501N007712200019N0112651N1+00601+00401999999ADDGA1021+003609999GF102991999999999999999999MA1101081999999MW1001REMMET045EKSP 081350Z 25015KT 9999 FEW012 06/04 Q1011;EQDQ01+000000PRSWM2
0102061100999992000010814504+55230+009270FM-15+0040EKSP V0202401N00571220001CN0099001N1+00501+00301999999ADDMA1101191999999MW1001REMMET050EKSP 081450Z 24011KT CAVOK 05/03 Q1012 RMK FEW080;EQDQ01+000000PRSWM2
0189061100999992000010815004+55230+009270FM-12+0040EKSP V0202401N005112200019N0150001N1+00471+00271101241ADDAA106000021GA1011+024009079GF101991011999022501031011MA1999999100661MD1210131+9999REMSYN076AAXX  08154 06110 32865 12410 10047 20027 30066 40124 52013 81031 333 81358;EQDQ01    003SCOLCG
0102061100999992000010815504+55230+009270FM-15+0040EKSP V0202101N00361220001CN0099001N1+00401+00301999999ADDMA1101291999999MW1001REMMET050EKSP 081550Z 21007KT CAVOK 04/03 Q1013 RMK FEW200;EQDQ01+000000PRSWM2
0139061100999992000010816504+55230+009270FM-15+0040EKSP V0202101N004112200019N0090001N1+00301+00201999999ADDGA1021+060009999GF102991999999999999999999MA1101291999999MW1001REMMET045EKSP 081650Z 21008KT 9000 FEW200 03/02 Q1013;EQDQ01+000000PRSWM2
0202061100999992000010817124+55230+009270FM-16+0040EKSP V0202101N004612200019N0014001N1+00301+00201999999ADDED199U20009GA1021+000609999GF102991999999999999999999MA1101291999999MW1411REMMET081EKSP 081712Z 21009KT 1400E 7000W R11L/P2000N R29R/P2000D BCFG FEW002 03/02 Q1013;EQDQ01+000003PRSWM1Q02    003PRSWM1
0158061100999992000010817504+55230+009270FM-15+0040EKSP V0202201N004612200019N0050001N1+00301+00201999999ADDGA1021+000609999GF102991999999999999999999MA1101291999999MW1101REMMET048EKSP 081750Z 22009KT 5000 BR FEW002 03/02 Q1013;EQDQ01+000003PRSWM1Q02    003PRSWM1
0248061100999992000010818004+55230+009270FM-12+0040EKSP V0202201N004612200019N0050001N1+00301+00191101401ADDAA112001091AY141061AY201061GA1021+000609079GF102991021061000751001001KA1120M+00671KA2120N+00251MA1999999100811MD1210151+9999MW1101REMSYN106AAXX  08184 06110 11150 22209 10030 20019 30081 40140 52015 60012 71040 82600 333 10067 20025 82702 90000;
0139061100999992000010818504+55230+009270FM-15+0040EKSP V0202201N003612200019N0080001N1+00301+00101999999ADDGA1021+060009999GF102991999999999999999999MA1101391999999MW1001REMMET045EKSP 081850Z 22007KT 8000 FEW200 03/01 Q1014;EQDQ01+000000PRSWM2
0139061100999992000010819504+55230+009270FM-15+0040EKSP V0202201N005112200019N0070001N1+00201+00101999999ADDGA1021+060009999GF102991999999999999999999MA1101391999999MW1001REMMET045EKSP 081950Z 22010KT 7000 FEW200 02/01 Q1014;EQDQ01+000000PRSWM2
0139061100999992000010820504+55230+009270FM-15+0040EKSP V0202101N004112200019N0070001N1+00201+00101999999ADDGA1021+060009999GF102991999999999999999999MA1101391999999MW1001REMMET045EKSP 082050Z 21008KT 7000 FEW200 02/01 Q1014;EQDQ01+000000PRSWM2
0139061100999992000010821504+55230+009270FM-15+0040EKSP V0202101N003612200019N0070001N1+00201+00101999999ADDGA1021+003909999GF102991999999999999999999MA1101491999999MW1001REMMET045EKSP 082150Z 21007KT 7000 FEW013 02/01 Q1015;EQDQ01+000000PRSWM2
0162061100999992000010822504+55230+009270FM-15+0040EKSP V0202201N004610045019N0060001N1+00301+00201999999ADDGA1021+003909999GA2071+004509999GF107991999999999999999999MA1101491999999MW1001REMMET052EKSP 082250Z 22009KT 6000 FEW013 BKN015 03/02 Q1015;EQDQ01+000000PRSWM2
0162061100999992000010823504+55230+009270FM-15+0040EKSP V0202101N004610075019N0060001N1+00301+00201999999ADDGA1021+003909999GA2071+007509999GF107991999999999999999999MA1101491999999MW1001REMMET052EKSP 082350Z 21009KT 6000 FEW013 BKN025 03/02 Q1015;EQDQ01+000000PRSWM2
0162061100999992000010900504+55230+009270FM-15+0040EKSP V0202001N003112200019N0080001N1+00301+00201999999ADDGA1021+003909999GA2021+007509999GF104991999999999999999999MA1101491999999MW1001REMMET052EKSP 090050Z 20006KT 8000 FEW013 SCT025 03/02 Q1015;EQDQ01+000000PRSWM2
0139061100999992000010901504+55230+009270FM-15+0040EKSP V0202001N004112200019N0080001N1+00301+00201999999ADDGA1021+009009999GF104991999999999999999999MA1101491999999MW1001REMMET045EKSP 090150Z 20008KT 8000 SCT030 03/02 Q1015;EQDQ01+000000PRSWM2
0139061100999992000010903204+55230+009270FM-15+0040EKSP V0202101N004612200019N0080001N1+00301+00201999999ADDGA1021+009009999GF104991999999999999999999MA1101591999999MW1001REMMET045EKSP 090320Z 21009KT 8000 SCT030 03/02 Q1016;EQDQ01+000000PRSWM2
0139061100999992000010904204+55230+009270FM-15+0040EKSP V0202201N005112200019N0080001N1+00301+00201999999ADDGA1021+009009999GF104991999999999999999999MA1101491999999MW1001REMMET045EKSP 090420Z 22010KT 8000 SCT030 03/02 Q1015;EQDQ01+000000PRSWM2
0162061100999992000010904504+55230+009270FM-15+0040EKSP V0202201N005112200019N0070001N1+00301+00201999999ADDGA1021+002109999GA2021+009009999GF104991999999999999999999MA1101591999999MW1001REMMET052EKSP 090450Z 22010KT 7000 FEW007 SCT030 03/02 Q1016;EQDQ01+000000PRSWM2
0165061100999992000010907204+55230+009270FM-15+0040EKSP V0202301N003612200019N0060001N1+00301+00201999999ADDGA1021+002109999GA2021+006009029GF104991999999999999999999MA1101691999999MW1001REMMET055EKSP 090720Z 23007KT 6000 SCT007 SCT020TCU 03/02 Q1017;EQDQ01+000000PRSWM2
0165061100999992000010907504+55230+009270FM-15+0040EKSP V0202301N003612200019N0070001N1+00301+00201999999ADDGA1021+002109999GA2021+006009029GF102991999999999999999999MA1101801999999MW1001REMMET055EKSP 090750Z 23007KT 7000 FEW007 FEW020TCU 03/02 Q1018;EQDQ01+000000PRSWM2
0142061100999992000010908504+55230+009270FM-15+0040EKSP V0202201N003612200019N0080001N1+00201+00101999999ADDGA1021+006009029GF102991999999999999999999MA1101801999999MW1001REMMET048EKSP 090850Z 22007KT 8000 FEW020TCU 02/01 Q1018;EQDQ01+000000PRSWM2
0210061100999992000010909004+55230+009270FM-12+0040EKSP V0202301N003612200019N0100001N1+00211+00101101911ADDAA103001091AY181031AY211031GA1011+006009089GF101991011021008001001011MA1999999101321MD1210221+9999MW1011REMSYN094AAXX  09094 06110 21560 12307 10021 20010 30132 40191 52022 70181 81201 333 60017 81820 91121;
0142061100999992000010909504+55230+009270FM-15+0040EKSP V0202301N004612200019N0112651N1+00301+00201999999ADDGA1021+006009029GF102991999999999999999999MA1101901999999MW1001REMMET048EKSP 090950Z 23009KT 9999 FEW020TCU 03/02 Q1019;EQDQ01+000000PRSWM2
0142061100999992000010910504+55230+009270FM-15+0040EKSP V0202301N004612200019N0112651N1+00401+00301999999ADDGA1021+006009029GF102991999999999999999999MA1101901999999MW1001REMMET048EKSP 091050Z 23009KT 9999 FEW020TCU 04/03 Q1019;EQDQ01+000000PRSWM2
0142061100999992000010911504+55230+009270FM-15+0040EKSP V0202401N004612200019N0112651N1+00501+00401999999ADDGA1021+006009029GF102991999999999999999999MA1102001999999MW1001REMMET048EKSP 091150Z 24009KT 9999 FEW020TCU 05/04 Q1020;EQDQ01+000000PRSWM2
0210061100999992000010912004+55230+009270FM-12+0040EKSP V0202401N004612200019N0200001N1+00541+00421102041ADDAA106001091AY181061AY211061GA1011+006009089GF102991021081008001001001MA1999999101461MD1210141+9999MW1021REMSYN094AAXX  09124 06110 11570 22409 10054 20042 30146 40204 52014 60011 70281 82800 333 81820 91121;
0141061100999992000010912504+55230+009270FM-15+0040EKSP V0202501N004612200019N0112651N1+00601+00301999999ADDGA1021+003609099GF102991999999999999999999MA1102001999999MW1001REMMET047EKSP 091250Z 25009KT 9999 FEW012CB 06/03 Q1020;EQDQ01+000000PRSWM2
0142061100999992000010913504+55230+009270FM-15+0040EKSP V0202501N004612200019N0112651N1+00501+00301999999ADDGA1021+006009029GF102991999999999999999999MA1102101999999MW1001REMMET048EKSP 091350Z 25009KT 9999 FEW020TCU 05/03 Q1021;EQDQ01+000000PRSWM2
0142061100999992000010914504+55230+009270FM-15+0040EKSP V0202601N004612200019N0112651N1+00401+00201999999ADDGA1021+004509029GF102991999999999999999999MA1102201999999MW1001REMMET048EKSP 091450Z 26009KT 9999 FEW015TCU 04/02 Q1022;EQDQ01+000000PRSWM2
0195061100999992000010915004+55230+009270FM-12+0040EKSP V0202601N005112200019N0250001N1+00391+00261102241ADDAA106000091GA1011+004509089GF103991031081004501001011MA1999999101651MD1210191+9999REMSYN082AAXX  09154 06110 32475 32610 10039 20026 30165 40224 52019 83801 333 81815 83635;EQDQ01  00002PRCP06
0165061100999992000010915504+55230+009270FM-15+0040EKSP V0202401N003112200019N0112651N1+00301+00201999999ADDGA1021+004509029GA2021+009009999GF104991999999999999999999MA1102201999999MW1001REMMET055EKSP 091550Z 24006KT 9999 FEW015TCU SCT030 03/02 Q1022;EQDQ01+000000PRSWM2
0142061100999992000010916504+55230+009270FM-15+0040EKSP V0202401N003112200019N0112651N1+00201+00101999999ADDGA1021+004509029GF102991999999999999999999MA1102301999999MW1001REMMET048EKSP 091650Z 24006KT 9999 FEW015TCU 02/01 Q1023;EQDQ01+000000PRSWM2
0142061100999992000010917504+55230+009270FM-15+0040EKSP V0202501N002612200019N0112651N1+00201+00101999999ADDGA1021+004509029GF102991999999999999999999MA1102401999999MW1001REMMET048EKSP 091750Z 25005KT 9999 FEW015TCU 02/01 Q1024;EQDQ01+000000PRSWM2
0214061100999992000010918004+55230+009270FM-12+0040EKSP V0202501N002612200019N0250001N1+00131+00091102451ADDAA112001091GA1011+004509029GF102991021081004501001011KA1120M+00561KA2120N+00131MA1999999101851MD1210201+9999REMSYN094AAXX  09184 06110 12475 22505 10013 20009 30185 40245 52020 60012 82801 333 10056 20013 81815;
0142061100999992000010918504+55230+009270FM-15+0040EKSP V0202501N002612200019N0112651N1+00101+00001999999ADDGA1021+004509029GF102991999999999999999999MA1102401999999MW1001REMMET048EKSP 091850Z 25005KT 9999 FEW015TCU 01/00 Q1024;EQDQ01+000000PRSWM2
0144061100999992000010919504+55230+009270FM-15+0040EKSP V0202501N002112200019N0112651N1+00001-00101999999ADDGA1021+006009029GF102991999999999999999999MA1102511999999MW1001REMMET050EKSP 091950Z 25004KT 9999 FEW020TCU M00/M01 Q1025;EQDQ01+000000PRSWM2
0144061100999992000010920504+55230+009270FM-15+0040EKSP V0202601N003112200019N0112651N1-00101-00101999999ADDGA1021+006009029GF102991999999999999999999MA1102611999999MW1001REMMET050EKSP 092050Z 26006KT 9999 FEW020TCU M01/M01 Q1026;EQDQ01+000000PRSWM2
0189061100999992000010921004+55230+009270FM-12+0040EKSP V0202601N002612200019N0250001N1-00041-00081102671ADDAA106000091GA1011+006009029GF101991011021008001001011MA1999999102071MD1210221+9999REMSYN076AAXX  09214 06110 32575 12605 11004 21008 30207 40267 52022 81201 333 81820;EQDQ01  00002PRCP06
0144061100999992000010921504+55230+009270FM-15+0040EKSP V0202601N003112200019N0112651N1+00001-00101999999ADDGA1021+006009029GF102991999999999999999999MA1102611999999MW1001REMMET050EKSP 092150Z 26006KT 9999 FEW020TCU M00/M01 Q1026;EQDQ01+000000PRSWM2
0141061100999992000010922504+55230+009270FM-15+0040EKSP V0202701N003112200019N0112651N1+00001-00101999999ADDGA1021+009009999GF102991999999999999999999MA1102711999999MW1001REMMET047EKSP 092250Z 27006KT 9999 FEW030 M00/M01 Q1027;EQDQ01+000000PRSWM2
0141061100999992000010923504+55230+009270FM-15+0040EKSP V0202601N003612200019N0112651N1-00101-00101999999ADDGA1021+009009999GF102991999999999999999999MA1102711999999MW1001REMMET047EKSP 092350Z 26007KT 9999 FEW030 M01/M01 Q1027;EQDQ01+000000PRSWM2
0189061100999992000011000004+55230+009270FM-12+0040EKSP V0202601N003112200019N0150001N1-00061-00101102831ADDAA106000091GA1011+009009059GF101991011051008001001011MA1999999102231MD1210161+9999REMSYN076AAXX  10004 06110 32565 12606 11006 21010 30223 40283 52016 81501 333 81630;EQDQ01  00002PRCP06
0141061100999992000011000504+55230+009270FM-15+0040EKSP V0202601N002612200019N0112651N1-00101-00101999999ADDGA1021+006009999GF102991999999999999999999MA1102811999999MW1001REMMET047EKSP 100050Z 26005KT 9999 FEW020 M01/M01 Q1028;EQDQ01+000000PRSWM2
0141061100999992000011001504+55230+009270FM-15+0040EKSP V0202701N003112200019N0112651N1-00101-00101999999ADDGA1021+009009999GF102991999999999999999999MA1102911999999MW1001REMMET047EKSP 100150Z 27006KT 9999 FEW030 M01/M01 Q1029;EQDQ01+000000PRSWM2
0141061100999992000011002504+55230+009270FM-15+0040EKSP V0202601N003112200019N0112651N1-00101-00101999999ADDGA1021+009009999GF102991999999999999999999MA1102911999999MW1001REMMET047EKSP 100250Z 26006KT 9999 FEW030 M01/M01 Q1029;EQDQ01+000000PRSWM2
0189061100999992000011003004+55230+009270FM-12+0040EKSP V0202701N003112200019N0150001N1-00081-00121103001ADDAA106000091GA1011+009009059GF101991011051008001001011MA1999999102401MD1210171+9999REMSYN076AAXX  10034 06110 32565 12706 11008 21012 30240 40300 52017 81501 333 81630;EQDQ01  00002PRCP06
0141061100999992000011003504+55230+009270FM-15+0040EKSP V0202601N003112200019N0112651N1-00101-00101999999ADDGA1021+009009999GF102991999999999999999999MA1103011999999MW1001REMMET047EKSP 100350Z 26006KT 9999 FEW030 M01/M01 Q1030;EQDQ01+000000PRSWM2
0104061100999992000011004504+55230+009270FM-15+0040EKSP V0202501N00261220001CN0099001N1-00101-00201999999ADDMA1103011999999MW1001REMMET052EKSP 100450Z 25005KT CAVOK M01/M02 Q1030 RMK FEW200;EQDQ01+000000PRSWM2
0177061100999992000011005504+55230+009270FM-15+0040EKSP V0202601N003112200019N0112651N1-00101-00101999999ADDGA1021+003309999GF102991999999999999999999MA1103121999999MW1121REMMET067EKSP 100550Z 26006KT 9999 MIFG FEW011 M01/M01 Q1031 NOSIG 79390095;EQDQ01+000003PRSWM1Q02    003PRSWM1
0279061100999992000011006004+55230+009270FM-12+0040EKSP V0202601N002612200019N0150001N1-00111-00151103141ADDAA106000091AY111061AY201061GA1011+003309059GF101991011051004501001011IA1149IA2999-00049KA1120M+00131KA2120N-00111MA1999999102541MD1210141+9999MW1111REMSYN100AAXX  10064 06110 31465 12605 11011 21015 30254 40314 52014 71110 81501 333 10013 21011 34104 81611;EQDQ01  00002PRCP06
0220061100999992000011006104+55230+009270FM-16+0040EKSP V0202401N002112200019N0008001N1-00101-00201999999ADDGF100991999999999999999999MA1103121999999MW1411REMMET110EKSP 100610Z 24004KT 0800W 9999E R11L/1300VP2000D R29R/P2000N BCFG MIFG SKC M01/M02 Q1031 TEMPO 0800 79390095;EQDQ01+000120PRSWM3Q02+000003PRSWM1Q03    003PRSWM1
0216061100999992000011006204+55230+009270FM-15+0040EKSP V0202501N002112200019N0012001N1-00101-00201999999ADDED199U20009GF100991999999999999999999MA1103121999999MW1121MW2411REMMET105EKSP 100620Z 25004KT 1200W 9999E R11L/P2000N R29R/P2000N BCFG MIFG SKC M01/M02 Q1031 TEMPO 0800 79390095;EQDQ01+000003PRSWM1Q02    003PRSWM1
0163061100999992000011006504+55230+009270FM-15+0040EKSP V0202701N003112200019N0112651N1-00101-00201999999ADDGF100991999999999999999999MA1103121999999MW1121REMMET069EKSP 100650Z 27006KT 9999 MIFG SKC M01/M02 Q1031 TEMPO 0800 79390095;EQDQ01+000003PRSWM1Q02    003PRSWM1
0182061100999992000011007504+55230+009270FM-15+0040EKSP V0202001N002112200019N0112651N1-00201-00201999999ADDGA1021+003609999GF102991999999999999999999MA1103181999999MW1121REMMET072EKSP 100750Z 20004KT 9999 MIFG FEW012 M02/M02 Q1032 TEMPO 2500 79390095;EQDQ01+000003PRSWM1Q02    003PRSWM1
0156061100999992000011008504+55230+009270FM-15+0040EKSP V0202201N002612200019N0112651N1-00101-00101999999ADDGA1021+007509999GF102991999999999999999999MA1103181999999MW1001REMMET062EKSP 100850Z 22005KT 9999 FEW025 M01/M01 Q1032 NOSIG 29390095;EQDQ01+000000PRSWM2
0217061100999992000011009004+55230+009270FM-12+0040EKSP V0202301N002612200019N0150001N1-00071-00111103291ADDAA106000091AY141031AY201031GA1011+007509059GF101991011051008001001011MA1999999102691MD1210151+9999MW1021REMSYN082AAXX  10094 06110 31565 12305 11007 21011 30269 40329 52015 70240 81501 333 81625;EQDQ01  00002PRCP06
0154061100999992000011009504+55230+009270FM-15+0040EKSP V0202201N002612200019N0112651N1+00101+00101999999ADDGA1021+007509999GF102991999999999999999999MA1103181999999MW1001REMMET060EKSP 100950Z 22005KT 9999 FEW025 01/01 Q1032 NOSIG 29390095;EQDQ01+000000PRSWM2
