0128071680999992000010100004+48330+004020FM-12+0118LFQB V0201901N002119999999N9999999N1+00571+00541102471ADDAA103000791MA1999999101011MD1310081+9999REMSYN076AAXX  01004 07168 /6/// /1904 10057 20054 30101 40247 53008 69901 333 69907;
0122071680999992000010101004+48330+004020FM-12+0118LFQB V0201801N002119999999N9999999N1+00571+00541102471ADDAA101000791MA1999999101011MD1110061+9999REMSYN070AAXX  01014 07168 26/// /1804 10057 20054 30101 40247 51006 333 69905;
0122071680999992000010102004+48330+004020FM-12+0118LFQB V0202001N002119999999N9999999N1+00581+00551102501ADDAA101000791MA1999999101041MD1210061+9999REMSYN070AAXX  01024 07168 26/// /2004 10058 20055 30104 40250 52006 333 69905;
0122071680999992000010103004+48330+004020FM-12+0118LFQB V0201801N002119999999N9999999N1+00591+00561102491ADDAA103000791MA1999999101031MD1010021+9999REMSYN070AAXX  01034 07168 26/// /1804 10059 20056 30103 40249 50002 333 69907;
0122071680999992000010104004+48330+004020FM-12+0118LFQB V0201601N002119999999N9999999N1+00581+00551102481ADDAA101000791MA1999999101021MD1010011+9999REMSYN070AAXX  01044 07168 26/// /1604 10058 20055 30102 40248 50001 333 69905;
0306071680999992000010105004+48330+004020SY-MT+0118LFQB V0202001N001010060019N0040001N1+00611+00581102521ADDAA101999929AY121999AY221999GA1021+001509999GA2081+006009999GF108991081051001501999999MA1102401101061MD1310021+9999MW1101REMSYN094AAXX  01054 07168 21240 82002 10061 20058 30106 40252 53002 71022 885// 333 69905 83705 88620;MET055LFQB 010500Z 20003KT 4000 BR SCT005 OVC020 06/06 Q1024;EQDQ01    003PRSWM1
0399071680999992000010106004+48330+004020SY-MT+0118LFQB V0201901N002110078019N0040001N1+00591+00551102541ADDAA112000792AA224000692AY121061AY221061GA1021+001509999GA2081+007809999GF108991081051001501999999GJ100009IA1119IA2999+00509KA1999M+00611KA2999N+00541MA1102401101081MD1310051+9999MW1101REMSYN124AAXX  01064 07168 11240 81904 10059 20055 30108 40254 53005 69902 71022 885// 333 10061 20054 32005 55000 70006 83705 88626;MET055LFQB 010600Z 19004KT 4000 BR SCT005 OVC026 06/06 Q1024;EQDQ01    003PRSWM1
0316071680999992000010107004+48330+004020SY-MT+0118LFQB V0201701N001010069019N0040001N1+00631+00571102561ADDAA106000091AY121999AY221999GA1021+001509999GA2081+006909999GF108991081051001501999999MA1102511101101MD1110081+9999MW1101REMSYN088AAXX  01074 07168 31240 81702 10063 20057 30110 40256 51008 71022 885// 333 83705 88623;MET055LFQB 010700Z 17002KT 4000 BR SCT005 OVC023 06/06 Q1025;EQDQ01  00002PRCP06Q02    003PRSWM1
0316071680999992000010108004+48330+004020SY-MT+0118LFQB V0202201N003110060019N0040001N1+00651+00581102611ADDAA106000091AY121999AY221999GA1021+001509999GA2081+006009999GF108991081051001501999999MA1102511101151MD1310091+9999MW1101REMSYN088AAXX  01084 07168 31240 82206 10065 20058 30115 40261 53009 71022 885// 333 83705 88620;MET055LFQB 010800Z 22006KT 4000 BR SCT005 OVC020 07/06 Q1025;EQDQ01  00002PRCP06Q02    003PRSWM1
0316071680999992000010109004+48330+004020SY-MT+0118LFQB V0201901N002110039019N0040001N1+00641+00571102661ADDAA103999929AY151031AY221031GA1021+001509999GA2081+003909999GF108991081051001501999999MA1102611101201MD1310121+9999MW1501MW2511REMSYN094AAXX  01094 07168 21240 81904 10064 20057 30120 40266 53012 75052 885// 333 69907 83705 88613;MET059LFQB 010900Z 19004KT 4000 -DZ BR SCT005 OVC013 06/06 Q1026;EQDQ01    003PRSWM1
0310071680999992000010110004+48330+004020SY-MT+0118LFQB V0201801N001010030019N0015001N1+00671+00631102701ADDAA101000491AY151999AY251999GA1021+000909999GA2081+003009999GF108991081071001501999999MA1102611101241MD1110141+9999MW1511REMSYN094AAXX  01104 07168 21215 81802 10067 20063 30124 40270 51014 75155 887// 333 69945 83703 88710;MET059LFQB 011000Z 18003KT 1500 -DZ BR SCT003 OVC010 07/06 Q1026;EQDQ01    003PRSWM1
0281071680999992000010111004+48330+004020SY-MT+0118LFQB V0202101N002110018019N0020001N1+00731+00691102681ADDAA101000491AY151999AY251999GA1081+001809999GF108991081071002501999999MA1102611101221MD1010071+9999MW1511REMSYN088AAXX  01114 07168 21320 82104 10073 20069 30122 40268 50007 75155 887// 333 69945 88706;MET052LFQB 011100Z 21004KT 2000 -DZ BR OVC006 07/07 Q1026;EQDQ01    003PRSWM1
0309071680999992000010112004+48330+004020SY-MT+0118LFQB V0202701N004110030019N0050001N1+00821+00761102661ADDAA103001091AY151061AY221061GA1021+001209999GA2081+003009999GF108991081071001501999999MA1102611101211MD1010011+9999MW1201REMSYN100AAXX  01124 07168 /1250 82708 10082 20076 30121 40266 50001 60011 72052 887// 333 60017 83704 88710;MET052LFQB 011200Z 27008KT 5000 SCT004 OVC010 08/08 Q1026;EQDQ01    003PRSWM1
0262071680999992000010113004+48330+004020SY-MT+0118LFQB V0202901N004110093019N0050001N1+00861+00801102661ADDAA101000291GA1021+001509999GA2081+009309999GF108991081051001501999999MA1102611101211MD1610031+9999MW1001REMSYN088AAXX  01134 07168 22250 82908 10086 20080 30121 40266 56003 885// 333 69925 83705 88631;MET052LFQB 011300Z 29008KT 5000 SCT005 OVC031 09/08 Q1026;
0256071680999992000010114004+48330+004020SY-MT+0118LFQB V0203001N005110015019N0050001N1+00871+00791102661ADDAA106000021GA1071+001509999GA2081+006009999GF108991081051001501999999MA1102611101211MD1610011+9999MW1001REMSYN082AAXX  01144 07168 32250 83010 10087 20079 30121 40266 56001 885// 333 85705 88620;MET052LFQB 011400Z 30009KT 5000 BKN005 OVC020 09/08 Q1026;
0306071680999992000010115004+48330+004020SY-MT+0118LFQB V0202701N004110048019N0040001N1+00841+00761102671ADDAA103000291AY151031AY221031GA1021+001509999GA2081+004809999GF108991081051001501999999MA1102611101221MD1310011+9999MW1101REMSYN094AAXX  01154 07168 21240 82708 10084 20076 30122 40267 53001 71052 885// 333 69927 83705 88616;MET055LFQB 011500Z 27007KT 4000 BR SCT005 OVC016 08/08 Q1026;EQDQ01    003PRSWM1
0300071680999992000010116004+48330+004020SY-MT+0118LFQB V0202901N002110015019N0040001N1+00831+00771102711ADDAA106000021AY121999AY221999GA1071+001509999GA2081+004509999GF108991081051001501999999MA1102611101261MD1310051+9999MW1101REMSYN088AAXX  01164 07168 31240 82904 10083 20077 30126 40271 53005 71022 885// 333 85705 88615;MET055LFQB 011600Z 29004KT 4000 BR BKN005 OVC015 08/08 Q1026;EQDQ01    003PRSWM1
0271071680999992000010117004+48330+004020SY-MT+0118LFQB V0202801N002110018019N0040001N1+00821+00761102761ADDAA106000021AY121999AY221999GA1081+001809999GF108991081061002501999999MA1102711101311MD1310101+9999MW1101REMSYN082AAXX  01174 07168 31340 82804 10082 20076 30131 40276 53010 71022 886// 333 88706;MET048LFQB 011700Z 28004KT 4000 BR OVC006 08/08 Q1027;EQDQ01    003PRSWM1
0160071680999992000010118004+48330+004020FM-12+0118LFQB V0202801N002119999999N9999999N1+00821+00761102801ADDAA112001091KA1999M+00871KA2999N+00601MA1999999101351MD1210131+9999REMSYN082AAXX  01184 07168 16/// /2804 10082 20076 30135 40280 52013 60012 333 10087 20060;
0131071680999992000010119004+48330+004020FM-12+0118LFQB V0203401N001019999999N9999999N1+00811+00771102841ADDAA106000091MA1999999101391MD1110131+9999REMSYN060AAXX  01194 07168 36/// /3402 10081 20077 30139 40284 51013;EQDQ01  00002PRCP06
0131071680999992000010120004+48330+004020FM-12+0118LFQB V0202701N003119999999N9999999N1+00811+00771102861ADDAA106000091MA1999999101401MD1110091+9999REMSYN060AAXX  01204 07168 36/// /2706 10081 20077 30140 40286 51009;EQDQ01  00002PRCP06
0131071680999992000010121004+48330+004020FM-12+0118LFQB V0202801N003119999999N9999999N1+00801+00761102871ADDAA106000091MA1999999101411MD1110061+9999REMSYN060AAXX  01214 07168 36/// /2806 10080 20076 30141 40287 51006;EQDQ01  00002PRCP06
0131071680999992000010122004+48330+004020FM-12+0118LFQB V0202901N002119999999N9999999N1+00791+00751102911ADDAA106000091MA1999999101451MD1310061+9999REMSYN060AAXX  01224 07168 36/// /2904 10079 20075 30145 40291 53006;EQDQ01  00002PRCP06
0131071680999992000010123004+48330+004020FM-12+0118LFQB V0202701N001019999999N9999999N1+00781+00741102931ADDAA106000091MA1999999101471MD1310071+9999REMSYN060AAXX  01234 07168 36/// /2702 10078 20074 30147 40293 53007;EQDQ01  00002PRCP06
0131071680999992000010200004+48330+004020FM-12+0118LFQB V0209999C000019999999N9999999N1+00791+00751102921ADDAA106000091MA1999999101461MD1010051+9999REMSYN060AAXX  02004 07168 36/// /0000 10079 20075 30146 40292 50005;EQDQ01  00002PRCP06
0131071680999992000010202004+48330+004020FM-12+0118LFQB V0202401N002119999999N9999999N1+00771+00731102951ADDAA106000091MA1999999101491MD1310021+9999REMSYN060AAXX  02024 07168 36/// /2404 10077 20073 30149 40295 53002;EQDQ01  00002PRCP06
0131071680999992000010203004+48330+004020FM-12+0118LFQB V0201801N002119999999N9999999N1+00751+00721102941ADDAA106000091MA1999999101481MD1210021+9999REMSYN060AAXX  02034 07168 36/// /1804 10075 20072 30148 40294 52002;EQDQ01  00002PRCP06
0131071680999992000010204004+48330+004020FM-12+0118LFQB V0209999C000019999999N9999999N1+00751+00721102961ADDAA106000091MA1999999101501MD1110051+9999REMSYN060AAXX  02044 07168 36/// /0000 10075 20072 30150 40296 51005;EQDQ01  00002PRCP06
0270071680999992000010205004+48330+004020SY-MT+0118LFQB V0200901N002110001519N0001001N1+00751+00721102991ADDAA106000091AY141999AY221999GA1091+000159999GF109991091999000151999999MA1102911101531MD1310041+9999MW1451REMSYN066AAXX  02054 07168 31/01 90904 10075 20072 30153 40299 53004 74542;MET047LFQB 020500Z 09004KT 0100 FG VV/// 08/07 Q1029;EQDQ01  00002PRCP06Q02    003PRSWM1
0356071680999992000010206004+48330+004020SY-MT+0118LFQB V0201101N002110001519N0001001N1+00741+00711103011ADDAA106000091AY141061AY221061GA1091+000159999GF109991091999000151999999GJ100009IA1099IA2999+00709KA1999M+00821KA2999N+00731MA1102911101551MD1210071+9999MW1451REMSYN100AAXX  02064 07168 31/01 91104 10074 20071 30155 40301 52007 74542 333 10082 20073 31007 55000 70012;MET047LFQB 020600Z 11003KT 0100 FG VV/// 07/07 Q1029;EQDQ01  00002PRCP06Q02    003PRSWM1
0264071680999992000010207004+48330+004020SY-MT+0118LFQB V0201101N00211000151CN0002001N1+00731+00701103021ADDAA106000091GA1091+000159999GF109991999999000151999999MA1102911101561MD1110061+9999MW1451REMSYN060AAXX  02074 07168 36/// /1104 10073 20070 30156 40302 51006;MET047LFQB 020700Z 13003KT 0200 FG VV/// 07/07 Q1029;EQDQ01+000003PRSWM1Q02  00002PRCP06Q03    003PRSWM1
0270071680999992000010208004+48330+004020SY-MT+0118LFQB V0201901N00211000151CN0002001N1+00721+00691103061ADDAA106000091AY141999AY241999GA1091+000159999GF109991091999000151999999MA1103011101601MD1310071+9999MW1451REMSYN066AAXX  02084 07168 31/02 91904 10072 20069 30160 40306 53007 74544;MET047LFQB 020800Z 19004KT 0200 FG VV/// 07/07 Q1030;EQDQ01  00002PRCP06Q02    003PRSWM1
0293071680999992000010209004+48330+004020SY-MT+0118LFQB V0201201N002110009019N0005001N1+00741+00711103061ADDAA106000091AY141031AY241031GA1071+000909999GF108991081061001501999999MA1103011101601MD1110051+9999MW1421MW2441REMSYN082AAXX  02094 07168 31205 81204 10074 20071 30160 40306 51005 74244 886// 333 88703;MET048LFQB 020900Z 12005KT 0500 FG BKN003 08/07 Q1030;EQDQ01  00002PRCP06Q02    003PRSWM1
0131071680999992000010210004+48330+004020FM-12+0118LFQB V0201801N004119999999N9999999N1+00771+00741103071ADDAA106000091MA1999999101611MD1110051+9999REMSYN060AAXX  02104 07168 36/// /1808 10077 20074 30161 40307 51005;EQDQ01  00002PRCP06
0158071680999992000010210184+48330+004020FM-15+0118LFQB V0201701N003610009019N0012001N1+00801+00701999999ADDGA1081+000909999GF108991999999999999999999MA1103011999999MW1101REMMET048LFQB 021018Z 17007KT 1200 BR OVC003 08/07 Q1030;EQDQ01+000003PRSWM1Q02    003PRSWM1
0262071680999992000010211004+48330+004020SY-MT+0118LFQB V0201901N002110012019N0050001N1+00761+00731103091ADDAA106000091GA1081+001209999GF108991081061001501999999MA1103011101631MD1310031+9999MW1001REMSYN076AAXX  02114 07168 32250 81904 10076 20073 30163 40309 53003 886// 333 88704;MET045LFQB 021100Z 19004KT 5000 OVC004 08/07 Q1030;EQDQ01+000000PRSWM2Q02  00002PRCP06
0329071680999992000010212004+48330+004020SY-MT+0118LFQB V0201401N002110030019N0070001N1+00791+00751103051ADDAA106000091AY141061AY221061GA1021+001209999GA2071+003009999GF108991081051001501999999MA1103011101591MD1810011+9999MW1011REMSYN088AAXX  02124 07168 31257 81404 10079 20075 30159 40305 58001 70142 885// 333 83704 87610;MET052LFQB 021200Z 14003KT 7000 SCT004 BKN010 08/08 Q1030;EQDQ01+000000PRSWM2Q02  00002PRCP06Q03    003PRSWM1
0291071680999992000010213004+48330+004020SY-MT+0118LFQB V0200901N001010039019N0100001N1+00811+00701103041ADDAA106000091GA1021+001509999GA2071+003909999GF108991081051001501999999MA1103011101581MD1810031+9999MW1001REMSYN082AAXX  02134 07168 32260 80902 10081 20070 30158 40304 58003 885// 333 83705 87613;MET052LFQB 021300Z 09003KT 9999 SCT005 BKN013 08/07 Q1030;EQDQ01+000000PRSWM2Q02  00002PRCP06
0291071680999992000010214004+48330+004020SY-MT+0118LFQB V0201901N002110048019N0100001N1+00841+00721103001ADDAA106000091GA1021+001809999GA2071+004809999GF108991081051002501999999MA1102911101541MD1710091+9999MW1001REMSYN082AAXX  02144 07168 32360 81904 10084 20072 30154 40300 57009 885// 333 83806 87616;MET052LFQB 021400Z 19004KT 9999 SCT006 BKN016 09/07 Q1029;EQDQ01+000000PRSWM2Q02  00002PRCP06
0262071680999992000010215004+48330+004020SY-MT+0118LFQB V0202801N002110048019N0120001N1+00841+00671103011ADDAA106000091GA1071+004809999GF107991071051004501999999MA1102911101551MD1510041+9999MW1001REMSYN076AAXX  02154 07168 32462 72804 10084 20067 30155 40301 55004 875// 333 87616;MET045LFQB 021500Z 29003KT 9999 BKN016 08/07 Q1029;EQDQ01+000000PRSWM2Q02  00002PRCP06
0262071680999992000010216004+48330+004020SY-MT+0118LFQB V0200601N002110060019N0080001N1+00801+00681103031ADDAA106000091GA1071+006009999GF107991071051008001999999MA1102911101571MD1510011+9999MW1001REMSYN076AAXX  02164 07168 32558 70604 10080 20068 30157 40303 55001 875// 333 87620;MET045LFQB 021600Z 06003KT 8000 BKN020 08/07 Q1029;EQDQ01+000000PRSWM2Q02  00002PRCP06
0278071680999992000010217004+48330+004020SY-MT+0118LFQB V0201001N001010060019N0060001N1+00711+00591102991ADDAA106000091GA1071+006009999GF199999061051008001001001MA1102911101531MD1810011+9999MW1001REMSYN076AAXX  02174 07168 32556 61002 10071 20059 30153 40299 58001 86500 333 86620;MET045LFQB 021700Z 10003KT 6000 BKN020 07/06 Q1029;EQDQ01+000062SCOTCVQ02+000000PRSWM2Q03  00002PRCP06
0173071680999992000010218004+48330+004020FM-12+0118LFQB V0202001N002119999999N9999999N1+00381+00291103051ADDAA106000091KA1999M+00851KA2999N+00381MA1999999101571MD1310021+9999REMSYN076AAXX  02184 07168 36/// /2004 10038 20029 30157 40305 53002 333 10085 20038;EQDQ01  00002PRCP06
0131071680999992000010219004+48330+004020FM-12+0118LFQB V0201801N002119999999N9999999N1+00281+00221103081ADDAA106000091MA1999999101591MD1310021+9999REMSYN060AAXX  02194 07168 36/// /1804 10028 20022 30159 40308 53002;EQDQ01  00002PRCP06
0131071680999992000010220004+48330+004020FM-12+0118LFQB V0201401N001019999999N9999999N1+00281+00241103091ADDAA106000091MA1999999101601MD1110071+9999REMSYN060AAXX  02204 07168 36/// /1402 10028 20024 30160 40309 51007;EQDQ01  00002PRCP06
0131071680999992000010221004+48330+004020FM-12+0118LFQB V0201501N002119999999N9999999N1+00411+00381103051ADDAA106000091MA1999999101571MD1010001+9999REMSYN060AAXX  02214 07168 36/// /1504 10041 20038 30157 40305 50000;EQDQ01  00002PRCP06
0131071680999992000010222004+48330+004020FM-12+0118LFQB V0201501N003119999999N9999999N1+00341+00311103051ADDAA106000091MA1999999101571MD1810021+9999REMSYN060AAXX  02224 07168 36/// /1506 10034 20031 30157 40305 58002;EQDQ01  00002PRCP06
0131071680999992000010223004+48330+004020FM-12+0118LFQB V0201601N004119999999N9999999N1+00301+00271103061ADDAA106000091MA1999999101571MD1610031+9999REMSYN060AAXX  02234 07168 36/// /1608 10030 20027 30157 40306 56003;EQDQ01  00002PRCP06
0131071680999992000010300004+48330+004020FM-12+0118LFQB V0201701N004119999999N9999999N1+00311+00281103061ADDAA106000091MA1999999101571MD1410001+9999REMSYN060AAXX  03004 07168 36/// /1708 10031 20028 30157 40306 54000;EQDQ01  00002PRCP06
0131071680999992000010301004+48330+004020FM-12+0118LFQB V0201701N005119999999N9999999N1+00251+00221103011ADDAA106000091MA1999999101521MD1810051+9999REMSYN060AAXX  03014 07168 36/// /1710 10025 20022 30152 40301 58005;EQDQ01  00002PRCP06
0131071680999992000010302004+48330+004020FM-12+0118LFQB V0201701N005119999999N9999999N1+00241+00211103001ADDAA106000091MA1999999101511MD1810061+9999REMSYN060AAXX  03024 07168 36/// /1710 10024 20021 30151 40300 58006;EQDQ01  00002PRCP06
0131071680999992000010303004+48330+004020FM-12+0118LFQB V0201701N005119999999N9999999N1+00221+00191103021ADDAA106000091MA1999999101531MD1510041+9999REMSYN060AAXX  03034 07168 36/// /1710 10022 20019 30153 40302 55004;EQDQ01  00002PRCP06
0131071680999992000010304004+48330+004020FM-12+0118LFQB V0201601N005119999999N9999999N1+00241+00211103021ADDAA106000091MA1999999101531MD1310011+9999REMSYN060AAXX  03044 07168 36/// /1610 10024 20021 30153 40302 53001;EQDQ01  00002PRCP06
0287071680999992000010305004+48330+004020SY-MT+0118LFQB V0201801N005110006019N0020001N1+00291+00261103001ADDAA106000091AY121999AY221999GA1071+000609999GF107991071061000751999999MA1102911101511MD1010001+9999MW1101REMSYN082AAXX  03054 07168 31120 71810 10029 20026 30151 40300 50000 71022 876// 333 87702;MET048LFQB 030500Z 18009KT 2000 BR BKN002 03/03 Q1029;EQDQ01  00002PRCP06Q02    003PRSWM1
0380071680999992000010306004+48330+004020SY-MT+0118LFQB V0201601N003110003019N0012001N1+00311+00281102971ADDAA106000091AA224000091AY121061AY221061GA1081+000309999GF108991081061000751999999GJ100009IA1099IA2999+00009KA1999M+00411KA2999N+00211MA1102911101491MD1810041+9999MW1101REMSYN112AAXX  03064 07168 31112 81606 10031 20028 30149 40297 58004 71022 886// 333 10041 20021 31000 55000 70000 88701;MET048LFQB 030600Z 16006KT 1200 BR OVC001 03/03 Q1029;EQDQ01  00002PRCP06Q02    003PRSWM1
0287071680999992000010307004+48330+004020SY-MT+0118LFQB V0201601N005110006019N0020001N1+00371+00341102981ADDAA106000091AY121999AY221999GA1081+000609999GF108991081061000751999999MA1102911101501MD1510031+9999MW1101REMSYN082AAXX  03074 07168 31120 81610 10037 20034 30150 40298 55003 71022 886// 333 88702;MET048LFQB 030700Z 16009KT 2000 BR OVC002 04/03 Q1029;EQDQ01  00002PRCP06Q02    003PRSWM1
0287071680999992000010308004+48330+004020SY-MT+0118LFQB V0201801N003110015019N0030001N1+00381+00351103011ADDAA106000091AY121999AY221999GA1071+001509999GF107991071061001501999999MA1102911101531MD1310021+9999MW1101REMSYN082AAXX  03084 07168 31230 71806 10038 20035 30153 40301 53002 71022 876// 333 87705;MET048LFQB 030800Z 18006KT 3000 BR BKN005 04/04 Q1029;EQDQ01  00002PRCP06Q02    003PRSWM1
0287071680999992000010309004+48330+004020SY-MT+0118LFQB V0201801N003112200019N0025001N1+00431+00401102991ADDAA106000091AY111031AY211031GA1021+001509999GF103991031061001501001001MA1102911101511MD1010021+9999MW1101REMSYN082AAXX  03094 07168 31225 31806 10043 20040 30151 40299 50002 71011 83600 333 83705;MET048LFQB 030900Z 18006KT 2500 BR SCT005 04/04 Q1029;EQDQ01  00002PRCP06Q02    003PRSWM1
0287071680999992000010310004+48330+004020SY-MT+0118LFQB V0201701N005112200019N0040001N1+00561+00471102971ADDAA106000091AY101999AY201999GA1021+001509999GF102991021061001501001001MA1102911101501MD1010001+9999MW1101REMSYN082AAXX  03104 07168 31240 21710 10056 20047 30150 40297 50000 71000 82600 333 82705;MET048LFQB 031000Z 17010KT 4000 BR FEW005 06/05 Q1029;EQDQ01  00002PRCP06Q02    003PRSWM1
0262071680999992000010311004+48330+004020SY-MT+0118LFQB V0201801N005112200019N0070001N1+00711+00491102921ADDAA106000091GA1021+002409999GF102991011061002501001011MA1102811101461MD1810071+9999MW1001REMSYN076AAXX  03114 07168 32357 21810 10071 20049 30146 40292 58007 81601 333 81708;MET045LFQB 031100Z 18009KT 7000 FEW008 07/05 Q1028;EQDQ01+000000PRSWM2Q02  00002PRCP06
0262071680999992000010312004+48330+004020SY-MT+0118LFQB V0201801N004112200019N0090001N1+00801+00491102851ADDAA106000091GA1021+012009999GF103991011051004501001011MA1102711101391MD1810121+9999MW1001REMSYN076AAXX  03124 07168 32459 31808 10080 20049 30139 40285 58012 81501 333 81710;MET045LFQB 031300Z 17009KT 9999 FEW040 09/05 Q1027;EQDQ01+000000PRSWM2Q02  00002PRCP06
0262071680999992000010313004+48330+004020SY-MT+0118LFQB V0201701N005112200019N0100001N1+00851+00511102761ADDAA106000091GA1021+012009999GF102991011051012501001011MA1102711101311MD1810191+9999MW1001REMSYN076AAXX  03134 07168 32660 21710 10085 20051 30131 40276 58019 81501 333 81640;MET045LFQB 031300Z 17009KT 9999 FEW040 09/05 Q1027;EQDQ01+000000PRSWM2Q02  00002PRCP06
0245071680999992000010314004+48330+004020SY-MT+0118LFQB V0201901N005112200019N0150001N1+00891+00471102701ADDAA106000091GF102991011081004501001011MA1999999101251MD1610211+9999MW1001REMSYN076AAXX  03144 07168 32465 21910 10089 20047 30125 40270 56021 81801 333 81816;MET044LFQB 01400Z 19010KT 9999 FEW016 09/05 Q1026;EQDQ01+000000PRSWM2Q02  00002PRCP06
0291071680999992000010315004+48330+004020SY-MT+0118LFQB V0202001N007212200019N0200001N1+00781+00441102661ADDAA106000091GA1021+004809999GA2021+075009999GF103991011081004501001011MA1102611101211MD1610181+9999MW1001REMSYN082AAXX  03154 07168 32470 32014 10078 20044 30121 40266 56018 81801 333 81816 83075;MET052LFQB 031500Z 20013KT 9999 FEW016 SCT250 08/04 Q1026;EQDQ01+000000PRSWM2Q02  00002PRCP06
0269071680999992000010316004+48330+004020SY-MT+0118LFQB V0202001N004112200019N0112651N1+00551+00321102681ADDAA106000091GA1021+004809999GA2021+075009999GF104991999999999999999999MA1102611101211MD1610101+9999MW1001REMSYN060AAXX  03164 07168 36/// /2008 10055 20032 30121 40268 56010;MET052LFQB 031600Z 20007KT 9999 FEW016 SCT250 05/03 Q1026;EQDQ01+000000PRSWM2Q02  00002PRCP06
0262071680999992000010317004+48330+004020SY-MT+0118LFQB V0202001N004112200019N0150001N1+00281+00181102681ADDAA106000091GA1011+030009039GF103991011001999999031011MA1102611101201MD1610051+9999MW1001REMSYN082AAXX  03174 07168 32965 32008 10028 20018 30120 40268 56005 81031 333 81360 83075;MET039LFQB 031700Z 20008KT CAVOK 03/02 Q1026;EQDQ01+000000PRSWM2Q02  00002PRCP06
0173071680999992000010318004+48330+004020FM-12+0118LFQB V0202001N004119999999N9999999N1+00281+00181102661ADDAA106000091KA1999M+00921KA2999N+00271MA1999999101181MD1810031+9999REMSYN076AAXX  03184 07168 36/// /2008 10028 20018 30118 40266 58003 333 10092 20027;EQDQ01  00002PRCP06
0131071680999992000010319004+48330+004020FM-12+0118LFQB V0201001N001019999999N9999999N1+00471+00301102651ADDAA106000091MA1999999101181MD1610031+9999REMSYN060AAXX  03194 07168 36/// /1002 10047 20030 30118 40265 56003;EQDQ01  00002PRCP06
0131071680999992000010320004+48330+004020FM-12+0118LFQB V0202101N005119999999N9999999N1+00601+00371102611ADDAA106000091MA1999999101151MD1810051+9999REMSYN060AAXX  03204 07168 36/// /2110 10060 20037 30115 40261 58005;EQDQ01  00002PRCP06
0131071680999992000010321004+48330+004020FM-12+0118LFQB V0202001N005119999999N9999999N1+00631+00381102601ADDAA106000091MA1999999101141MD1810041+9999REMSYN060AAXX  03214 07168 36/// /2010 10063 20038 30114 40260 58004;EQDQ01  00002PRCP06
0131071680999992000010322004+48330+004020FM-12+0118LFQB V0201701N004119999999N9999999N1+00611+00391102571ADDAA106000091MA1999999101111MD1710071+9999REMSYN060AAXX  03224 07168 36/// /1708 10061 20039 30111 40257 57007;EQDQ01  00002PRCP06
0131071680999992000010323004+48330+004020FM-12+0118LFQB V0201801N004119999999N9999999N1+00621+00391102561ADDAA106000091MA1999999101101MD1710051+9999REMSYN060AAXX  03234 07168 36/// /1808 10062 20039 30110 40256 57005;EQDQ01  00002PRCP06
0131071680999992000010400004+48330+004020FM-12+0118LFQB V0201901N005119999999N9999999N1+00591+00371102531ADDAA106000091MA1999999101071MD1710071+9999REMSYN060AAXX  04004 07168 36/// /1910 10059 20037 30107 40253 57007;EQDQ01  00002PRCP06
0131071680999992000010401004+48330+004020FM-12+0118LFQB V0201801N004119999999N9999999N1+00581+00351102471ADDAA106000091MA1999999101011MD1810101+9999REMSYN060AAXX  04014 07168 36/// /1808 10058 20035 30101 40247 58010;EQDQ01  00002PRCP06
0131071680999992000010402004+48330+004020FM-12+0118LFQB V0201601N003119999999N9999999N1+00661+00411102461ADDAA106000091MA1999999101001MD1610101+9999REMSYN060AAXX  04024 07168 36/// /1606 10066 20041 30100 40246 56010;EQDQ01  00002PRCP06
0131071680999992000010403004+48330+004020FM-12+0118LFQB V0201801N003119999999N9999999N1+00651+00401102411ADDAA106000091MA1999999100951MD1610121+9999REMSYN060AAXX  04034 07168 36/// /1806 10065 20040 30095 40241 56012;EQDQ01  00002PRCP06
0131071680999992000010404004+48330+004020FM-12+0118LFQB V0201801N004119999999N9999999N1+00661+00391102391ADDAA106000091MA1999999100931MD1810081+9999REMSYN060AAXX  04044 07168 36/// /1808 10066 20039 30093 40239 58008;EQDQ01  00002PRCP06
0284071680999992000010405004+48330+004020SY-MT+0118LFQB V0201901N006210090019N0080001N1+00671+00421102351ADDAA101999929AY161999AY221999GA1081+009009999GF108991081051008001999999MA1102301100891MD1610111+9999MW1601MW2611REMSYN088AAXX  04054 07168 21558 81912 10067 20042 30089 40235 56011 76062 885// 333 69905 88630;MET049LFQB 040500Z 19011KT 8000 -RA OVC030 07/04 Q1023;EQDQ01    003PRSWM1
0412071680999992000010406004+48330+004020SY-MT+0118LFQB V0201701N003110120019N0080001N1+00671+00391102351ADDAA103999929AA224999929AY161061AY221061GA1021+008409999GA2071+012009999GF108991081051008001999999GJ104089IA1119IA2999+00209KA1999M+00671KA2999N+00281MA1102301100891MD1610061+9999MW1601MW2611REMSYN130AAXX  04064 07168 /1558 81706 10067 20039 30089 40235 56006 69902 76062 885// 333 10067 20028 32002 55068 69907 79999 84628 87640;MET056LFQB 040600Z 17006KT 8000 -RA SCT028 BKN040 07/04 Q1023;EQDQ01    003PRSWM1
0292071680999992000010407004+48330+004020SY-MT+0118LFQB V0201801N002110054019N0080001N1+00651+00401102341ADDAA101999929AY161999AY261999GA1071+005409999GF108991081051004501999999MA1102201100881MD1610051+9999MW1601MW2611REMSYN088AAXX  04074 07168 21458 81804 10065 20040 30088 40234 56005 76066 885// 333 69905 87618;MET057LFQB 040700Z 18004KT 140V220 8000 -RA BKN018 07/04 Q1022;EQDQ01    003PRSWM1
0313071680999992000010408004+48330+004020SY-MT+0118LFQB V0201801N004110150019N0100001N1+00671+00441102301ADDAA101999929AY161999AY221999GA1021+006009999GA2071+015009999GF107991071051008001999999MA1102201100841MD1810051+9999MW1211MW2611REMSYN094AAXX  04084 07168 21560 71808 10067 20044 30084 40230 58005 72162 875// 333 69905 83620 87650;MET056LFQB 040800Z 18008KT 9999 -RA SCT020 BKN050 07/04 Q1022;EQDQ01    003PRSWM1
0290071680999992000010409004+48330+004020SY-MT+0118LFQB V0201801N007210150019N0100001N1+00691+00441102261ADDAA103999929AY161031AY221031GA1051+015009069GF107991071051017501001021MA1102201100811MD1810081+9999MW1011REMSYN094AAXX  04094 07168 21760 71814 10069 20044 30081 40226 58008 70162 87502 333 69907 85650 83075;MET039LFQB 040900Z 18013KT CAVOK 07/04 Q1022;EQDQ01+000000PRSWM2Q02    003PRSWM1
0275071680999992000010410004+48330+004020SY-MT+0118LFQB V0201901N007210150019N0100001N1+00731+00441102241ADDAA106000021GA1021+009009999GA2071+015009999GF108991061051008001001021MA1102201100791MD1610091+9999MW1001REMSYN082AAXX  04104 07168 32560 81914 10073 20044 30079 40224 56009 86502 333 83630 85650;MET052LFQB 041000Z 19014KT 9999 SCT030 BKN050 07/05 Q1022;EQDQ01+000000PRSWM2
0304071680999992000010411004+48330+004020SY-MT+0118LFQB V0202001N007210150019N0100001N1+00801+00511102181ADDAA106000021GA1021+009009999GA2071+015009999GA3071+024009999GF108991051051008001021999MA1102101100731MD1810111+9999MW1001REMSYN088AAXX  04114 07168 32560 82014 10080 20051 30073 40218 58011 8552/ 333 82630 85650 85458;MET059LFQB 041100Z 20014KT 9999 FEW030 BKN050 BKN083 08/05 Q1021;EQDQ01+000000PRSWM2
0313071680999992000010412004+48330+004020SY-MT+0118LFQB V0202101N009810090019N0080001N1+00811+00571102121ADDAA103000291AY161061AY221061GA1021+004509999GA2071+009009999GF108991071051004501999999MA1102001100671MD1810141+9999MW1611REMSYN100AAXX  04124 07168 /1458 82119 10081 20057 30067 40212 58014 69921 76162 875// 333 69927 83615 87630;MET056LFQB 041200Z 21018KT 8000 -RA SCT015 BKN030 08/06 Q1020;EQDQ01    003PRSWM1
0307071680999992000010413004+48330+004020SY-MT+0118LFQB V0202101N008710108019N0060001N1+00801+00611102061ADDAA101000691AY161999AY261999GA1021+006909999GA2081+010809999GF108991081051008001999999MA1102001100621MD1610171+9999MW1611REMSYN094AAXX  04134 07168 21556 82117 10080 20061 30062 40206 56017 76166 885// 333 69965 83623 88636;MET056LFQB 041300Z 21017KT 6000 -RA SCT023 OVC036 08/06 Q1020;EQDQ01    003PRSWM1
0307071680999992000010414004+48330+004020SY-MT+0118LFQB V0202101N008210108019N0080001N1+00811+00641102031ADDAA101000291AY161999AY261999GA1021+005409999GA2081+010809999GF108991081051004501999999MA1102001100591MD1610141+9999MW1611REMSYN094AAXX  04144 07168 21458 82116 10081 20064 30059 40203 56014 76166 885// 333 69925 83618 88636;MET056LFQB 041400Z 21016KT 8000 -RA SCT018 OVC036 08/06 Q1020;EQDQ01    003PRSWM1
0319071680999992000010415004+48330+004020SY-MT+0118LFQB V0202101N008710054019N0090001N1+00821+00631102021ADDAA103001091AY161031AY221031GA1071+005409999GA2081+010809999GF108991081051004501999999MA1101901100581MD1610091+9999MW1211REMSYN094AAXX  04154 07168 21459 82117 10082 20063 30058 40202 56009 72162 885// 333 60017 85618 88636;MET052LFQB 041500Z 21017KT 9000 BKN018 OVC036 08/06 Q1019;EQDQ01+000000PRSWM2Q02    003PRSWM1
0252071680999992000010416004+48330+004020SY-MT+0118LFQB V0202101N007210048019N0070001N1+00841+00701102021ADDAA101000291GA1071+004809999GF108991081051004501999999MA1102001100581MD1610041+9999MW1001REMSYN082AAXX  04164 07168 22457 82114 10084 20070 30058 40202 56004 885// 333 69925 87616;MET045LFQB 041600Z 21014KT 7000 BKN016 08/07 Q1020;EQDQ01+000000PRSWM2
0246071680999992000010417004+48330+004020SY-MT+0118LFQB V0202101N007210048019N0070001N1+00861+00721102041ADDAA106000021GA1071+004809999GF108991081051004501999999MA1102001100601MD1310011+9999MW1001REMSYN076AAXX  04174 07168 32457 82114 10086 20072 30060 40204 53001 885// 333 87616;MET045LFQB 041700Z 21014KT 7000 BKN016 09/07 Q1020;EQDQ01+000000PRSWM2
0160071680999992000010418004+48330+004020FM-12+0118LFQB V0202101N006219999999N9999999N1+00851+00761102091ADDAA112001091KA1999M+00871KA2999N+00651MA1999999100651MD1310071+9999REMSYN082AAXX  04184 07168 16/// /2112 10085 20076 30065 40209 53007 60012 333 10087 20065;
0122071680999992000010419004+48330+004020FM-12+0118LFQB V0202201N003119999999N9999999N1+00851+00791102151ADDAA101003091MA1999999100711MD1310131+9999REMSYN070AAXX  04194 07168 26/// /2206 10085 20079 30071 40215 53013 333 60035;
0122071680999992000010420004+48330+004020FM-12+0118LFQB V0201801N001019999999N9999999N1+00841+00801102181ADDAA101003091MA1999999100741MD1110141+9999REMSYN070AAXX  04204 07168 26/// /1802 10084 20080 30074 40218 51014 333 60035;
0122071680999992000010421004+48330+004020FM-12+0118LFQB V0202201N005119999999N9999999N1+00881+00821102191ADDAA103006191MA1999999100751MD1110101+9999REMSYN070AAXX  04214 07168 26/// /2210 10088 20082 30075 40219 51010 333 60067;
0122071680999992000010422004+48330+004020FM-12+0118LFQB V0202401N006219999999N9999999N1+00891+00771102241ADDAA101000591MA1999999100801MD1310091+9999REMSYN070AAXX  04224 07168 26/// /2412 10089 20077 30080 40224 53009 333 69945;
0122071680999992000010423004+48330+004020FM-12+0118LFQB V0202301N006219999999N9999999N1+00831+00721102281ADDAA101000591MA1999999100831MD1310091+9999REMSYN070AAXX  04234 07168 26/// /2312 10083 20072 30083 40228 53009 333 69945;
0128071680999992000010500004+48330+004020FM-12+0118LFQB V0202301N005119999999N9999999N1+00801+00691102301ADDAA103000891MA1999999100851MD1110101+9999REMSYN076AAXX  05004 07168 /6/// /2310 10080 20069 30085 40230 51010 60071 333 69987;
0131071680999992000010501004+48330+004020FM-12+0118LFQB V0202301N004119999999N9999999N1+00781+00661102301ADDAA106000091MA1999999100851MD1110051+9999REMSYN060AAXX  05014 07168 36/// /2308 10078 20066 30085 40230 51005;EQDQ01  00002PRCP06
0131071680999992000010502004+48330+004020FM-12+0118LFQB V0202501N004119999999N9999999N1+00791+00651102341ADDAA106000091MA1999999100891MD1310061+9999REMSYN060AAXX  05024 07168 36/// /2508 10079 20065 30089 40234 53006;EQDQ01  00002PRCP06
0131071680999992000010503004+48330+004020FM-12+0118LFQB V0202401N004119999999N9999999N1+00801+00661102351ADDAA106000091MA1999999100901MD1310051+9999REMSYN060AAXX  05034 07168 36/// /2408 10080 20066 30090 40235 53005;EQDQ01  00002PRCP06
0131071680999992000010504004+48330+004020FM-12+0118LFQB V0202601N004119999999N9999999N1+00791+00681102331ADDAA106000091MA1999999100881MD1010031+9999REMSYN060AAXX  05044 07168 36/// /2608 10079 20068 30088 40233 50003;EQDQ01  00002PRCP06
0256071680999992000010505004+48330+004020SY-MT+0118LFQB V0202501N003110150019N0100001N1+00781+00671102341ADDAA106000091GA1071+015009059GF107991071051017501999999MA1102301100891MD1410001+9999MW1001REMSYN076AAXX  05054 07168 32760 72506 10078 20067 30089 40234 54000 875// 333 87650;MET039LFQB 050500Z 25006KT CAVOK 08/07 Q1023;EQDQ01+000000PRSWM2Q02  00002PRCP06
0345071680999992000010506004+48330+004020SY-MT+0118LFQB V0201601N002110138019N0100001N1+00701+00641102361ADDAA112007191AA224008291GA1071+013809999GF107991071051012501999999GJ100009IA1099IA2999+00609KA1999M+00941KA2999N+00681MA1102301100911MD1310011+9999MW1001REMSYN112AAXX  05064 07168 12660 71604 10070 20064 30091 40236 53001 60072 875// 333 10094 20068 31006 55000 70082 87646;MET045LFQB 050600Z 16003KT 9999 BKN046 07/06 Q1023;EQDQ01+000000PRSWM2
0291071680999992000010507004+48330+004020SY-MT+0118LFQB V0209999C000010096019N0100001N1+00731+00671102381ADDAA106000091GA1021+001809999GA2071+009609999GF107991071051001501999999MA1102301100931MD1310051+9999MW1001REMSYN082AAXX  05074 07168 32260 70000 10073 20067 30093 40238 53005 875// 333 81706 87632;MET052LFQB 050700Z 00000KT 9999 FEW006 BKN032 07/07 Q1023;EQDQ01+000000PRSWM2Q02  00002PRCP06
0320071680999992000010508004+48330+004020SY-MT+0118LFQB V0201101N002110150019N0090001N1+00711+00641102371ADDAA106000091GA1021+001809999GA2021+009609999GA3071+015009999GF107991071051001501999999MA1102301100921MD1010031+9999MW1001REMSYN088AAXX  05084 07168 32259 71104 10071 20064 30092 40237 50003 875// 333 81706 83632 87650;MET059LFQB 050800Z 11003KT 9000 FEW006 SCT032 BKN050 07/06 Q1023;EQDQ01+000000PRSWM2Q02  00002PRCP06
0291071680999992000010509004+48330+004020SY-MT+0118LFQB V0201701N004110150019N0080001N1+00791+00731102381ADDAA106000091GA1021+009009999GA2071+015009999GF107991071051008001999999MA1102301100931MD1110021+9999MW1001REMSYN082AAXX  05094 07168 32558 71708 10079 20073 30093 40238 51002 875// 333 82630 87650;MET052LFQB 050900Z 17007KT 8000 FEW030 BKN050 08/07 Q1023;EQDQ01+000000PRSWM2Q02  00002PRCP06
0307071680999992000010510004+48330+004020SY-MT+0118LFQB V0202001N004110138019N0080001N1+00921+00831102401ADDAA106000091GA1021+008409999GA2071+013809999GF199999061051008001001001MA1102301100961MD1310031+9999MW1001REMSYN082AAXX  05104 07168 32558 62008 10092 20083 30096 40240 53003 86500 333 83628 86646;MET052LFQB 051000Z 20009KT 8000 SCT028 BKN046 09/08 Q1023;EQDQ01+000062SCOTCVQ02+000000PRSWM2Q03  00002PRCP06
0162071680999992000010511004+48330+004020FM-15+0118LFQB V0202101N005712200019N0090001N1+00901+00701999999ADDGA1021+004809999GA2021+013809999GF104991999999999999999999MA1102301999999MW1001REMMET052LFQB 051100Z 21011KT 9000 SCT016 SCT046 09/07 Q1023;EQDQ01+000000PRSWM2
0291071680999992000010512004+48330+004020SY-MT+0118LFQB V0202301N00511004201CN0100001N1+01051+00761102311ADDAA106000091GA1021+004809999GA2021+013809999GF105991051051004501001001MA1102201100871MD1810061+9999MW1001REMSYN082AAXX  05124 07168 32460 52310 10105 20076 30087 40231 58006 85500 333 83616 84646;MET052LFQB 051200Z 23010KT 9999 SCT016 SCT046 11/08 Q1022;EQDQ01+000000PRSWM2Q02  00002PRCP06
0291071680999992000010513004+48330+004020SY-MT+0118LFQB V0202401N005112200019N0100001N1+01091+00761102241ADDAA106000091GA1021+004809999GA2021+013809999GF104991041051004501001001MA1102201100811MD1810151+9999MW1001REMSYN082AAXX  05134 07168 32460 42410 10109 20076 30081 40224 58015 84500 333 83616 83646;MET052LFQB 051300Z 24009KT 9999 SCT016 SCT046 11/08 Q1022;EQDQ01+000000PRSWM2Q02  00002PRCP06
0291071680999992000010514004+48330+004020SY-MT+0118LFQB V0202101N004112200019N0150001N1+01091+00721102201ADDAA106000091GA1021+006009999GA2021+013809999GF104991041081008001001011MA1102101100771MD1610161+9999MW1001REMSYN082AAXX  05144 07168 32565 42108 10109 20072 30077 40220 56016 84801 333 81820 83646;MET052LFQB 051400Z 21009KT 9999 FEW020 SCT046 11/07 Q1021;EQDQ01+000000PRSWM2Q02  00002PRCP06
0307071680999992000010515004+48330+004020SY-MT+0118LFQB V0201701N002110750019N0180001N1+01051+00741102161ADDAA106000091GA1021+006009999GA2071+075009999GF199999021081008001001011MA1102101100731MD1610141+9999MW1001REMSYN082AAXX  05154 07168 32568 51704 10105 20074 30073 40216 56014 82801 333 81820 85075;MET052LFQB 051500Z 17005KT 9999 FEW020 BKN250 11/07 Q1021;EQDQ01+000052SCOTCVQ02+000000PRSWM2Q03  00002PRCP06
0291071680999992000010516004+48330+004020SY-MT+0118LFQB V0201701N002112200019N0100001N1+00841+00641102131ADDAA106000091GA1021+012009999GA2021+075009999GF104991031051012501001011MA1102101100691MD1710121+9999MW1001REMSYN082AAXX  05164 07168 32660 41704 10084 20064 30069 40213 57012 83501 333 83640 83075;MET052LFQB 051600Z 17004KT 9999 SCT040 SCT250 08/06 Q1021;EQDQ01+000000PRSWM2Q02  00002PRCP06
0278071680999992000010517004+48330+004020SY-MT+0118LFQB V0202201N002110120019N0100001N1+00581+00511102121ADDAA106000091GA1071+012009999GF199999051051012501001001MA1102001100661MD1610111+9999MW1001REMSYN076AAXX  05174 07168 32660 52204 10058 20051 30066 40212 56011 85500 333 85640;MET045LFQB 051700Z 22003KT 9999 BKN040 06/05 Q1020;EQDQ01+000052SCOTCVQ02+000000PRSWM2Q03  00002PRCP06
0131071680999992000010519004+48330+004020FM-12+0118LFQB V0201901N002119999999N9999999N1+00651+00581102081ADDAA106000091MA1999999100631MD1610061+9999REMSYN060AAXX  05194 07168 36/// /1904 10065 20058 30063 40208 56006;EQDQ01  00002PRCP06
0131071680999992000010521004+48330+004020FM-12+0118LFQB V0201201N001019999999N9999999N1+00371+00301102061ADDAA106000091MA1999999100591MD1610061+9999REMSYN060AAXX  05214 07168 36/// /1202 10037 20030 30059 40206 56006;EQDQ01  00002PRCP06
0131071680999992000010522004+48330+004020FM-12+0118LFQB V0201801N003119999999N9999999N1+00351+00311102061ADDAA106000091MA1999999100591MD1610041+9999REMSYN060AAXX  05224 07168 36/// /1806 10035 20031 30059 40206 56004;EQDQ01  00002PRCP06
0131071680999992000010601004+48330+004020FM-12+0118LFQB V0201701N002119999999N9999999N1+00071+00031102011ADDAA106000091MA1999999100531MD1710061+9999REMSYN060AAXX  06014 07168 36/// /1704 10007 20003 30053 40201 57006;EQDQ01  00002PRCP06
0131071680999992000010602004+48330+004020FM-12+0118LFQB V0201601N005119999999N9999999N1+00361+00331101991ADDAA106000091MA1999999100521MD1610051+9999REMSYN060AAXX  06024 07168 36/// /1610 10036 20033 30052 40199 56005;EQDQ01  00002PRCP06
0131071680999992000010603004+48330+004020FM-12+0118LFQB V0201801N004119999999N9999999N1+00161+00131101961ADDAA106000091MA1999999100481MD1810071+9999REMSYN060AAXX  06034 07168 36/// /1808 10016 20013 30048 40196 58007;EQDQ01  00002PRCP06
0131071680999992000010604004+48330+004020FM-12+0118LFQB V0201601N005119999999N9999999N1+00411+00381101931ADDAA106000091MA1999999100471MD1710061+9999REMSYN060AAXX  06044 07168 36/// /1610 10041 20038 30047 40193 57006;EQDQ01  00002PRCP06
0262071680999992000010605004+48330+004020SY-MT+0118LFQB V0201301N004110690019N0050001N1+00461+00401101931ADDAA106000091GA1071+069009999GF107991001001999999001011MA1101801100471MD1610051+9999MW1001REMSYN076AAXX  06054 07168 32950 71308 10046 20040 30047 40193 56005 80001 333 87073;MET045LFQB 060500Z 14007KT 5000 BKN230 05/04 Q1018;EQDQ01+000000PRSWM2Q02  00002PRCP06
0371071680999992000010606004+48330+004020SY-MT+0118LFQB V0201601N005110690019N0060001N1+00461+00371101891ADDAA106000091AA224000091GA1071+069009999GF199999001001999999001011GJ102169IA1099IA2999-00209KA1999M+00671KA2999N+00051MA1101801100431MD1810051+9999MW1001REMSYN106AAXX  06064 07168 32956 61610 10046 20037 30043 40189 58005 80001 333 10067 20005 31102 55036 70000 86073;MET045LFQB 060600Z 16009KT 6000 BKN230 05/04 Q1018;EQDQ01+000062SCOTCVQ02+000000PRSWM2Q03  00002PRCP06
0262071680999992000010607004+48330+004020SY-MT+0118LFQB V0201701N005112200019N0070001N1+00441+00351101931ADDAA106000091GA1021+069009999GF103991001001999999001011MA1101801100471MD1510001+9999MW1001REMSYN076AAXX  06074 07168 32957 31710 10044 20035 30047 40193 55000 80001 333 83073;MET045LFQB 060700Z 17010KT 7000 SCT230 04/03 Q1018;EQDQ01+000000PRSWM2Q02  00002PRCP06
0262071680999992000010608004+48330+004020SY-MT+0118LFQB V0201001N001012200019N0080001N1+00361+00301102001ADDAA106000091GA1021+069009999GF102991001001999999001011MA1101901100531MD1310061+9999MW1001REMSYN076AAXX  06084 07168 32958 21002 10036 20030 30053 40200 53006 80001 333 82073;MET045LFQB 060800Z 10003KT 8000 FEW230 04/03 Q1019;EQDQ01+000000PRSWM2Q02  00002PRCP06
0278071680999992000010609004+48330+004020SY-MT+0118LFQB V0201801N004112200019N0080001N1+00571+00421102071ADDAA106000091GA1021+009909999GF199999011051012501001011MA1102001100611MD1310181+9999MW1001REMSYN076AAXX  06094 07168 32658 11808 10057 20042 30061 40207 53018 81501 333 81633;MET045LFQB 060900Z 18008KT 8000 FEW033 06/04 Q1020;EQDQ01+000012SCOTCVQ02+000000PRSWM2Q03  00002PRCP06
0291071680999992000010610004+48330+004020SY-MT+0118LFQB V0201501N004112200019N0090001N1+00731+00481102121ADDAA106000091GA1021+009909999GA2021+069009999GF103991011051012501001011MA1102001100671MD1210201+9999MW1001REMSYN082AAXX  06104 07168 32659 31508 10073 20048 30067 40212 52020 81501 333 81633 83073;MET052LFQB 061000Z 15008KT 9000 FEW033 SCT230 07/05 Q1020;EQDQ01+000000PRSWM2Q02  00002PRCP06
0240071680999992000010611004+48330+004020SY-MT+0118LFQB V0201801N004112200019N0100001N1+00871+00511102081ADDAA106000091GF104991001001999999001021MA1102001100641MD1010111+9999MW1001REMSYN076AAXX  06114 07168 32960 41808 10087 20051 30064 40208 50011 80002 333 84070;MET039LFQB 061100Z 18008KT CAVOK 09/05 Q1020;EQDQ01+000000PRSWM2Q02  00002PRCP06
0240071680999992000010612004+48330+004020SY-MT+0118LFQB V0202001N006212200019N0110001N1+01021+00581102061ADDAA106000091GF103991001001999999001021MA1102001100631MD1010021+9999MW1001REMSYN076AAXX  06124 07168 32961 32012 10102 20058 30063 40206 50002 80002 333 83073;MET039LFQB 061200Z 20011KT CAVOK 10/06 Q1020;EQDQ01+000000PRSWM2Q02  00002PRCP06
0240071680999992000010613004+48330+004020SY-MT+0118LFQB V0202101N005112200019N0110001N1+01101+00511102071ADDAA106000091GF103991001001999999001021MA1102001100641MD1510031+9999MW1001REMSYN076AAXX  06134 07168 32961 32110 10110 20051 30064 40207 55003 80002 333 83073;MET039LFQB 061300Z 21009KT CAVOK 11/05 Q1020;EQDQ01+000000PRSWM2Q02  00002PRCP06
0262071680999992000010614004+48330+004020SY-MT+0118LFQB V0202101N00311220001CN0150001N1+01081+00581102091ADDAA106000091GA1011+015009069GF105991011051017501001011MA1102001100661MD1310021+9999MW1001REMSYN082AAXX  06144 07168 32765 52106 10108 20058 30066 40209 53002 81501 333 81650 85075;MET039LFQB 061400Z 21005KT CAVOK 11/06 Q1020;EQDQ01+000000PRSWM2Q02  00002PRCP06
0278071680999992000010615004+48330+004020SY-MT+0118LFQB V0202301N001010690019N0180001N1+00981+00561102141ADDAA106000091GA1021+030009079GA2061+069009019GF106991021001999999031021MA1102101100701MD1310071+9999MW1001REMSYN082AAXX  06154 07168 32968 62302 10098 20056 30070 40214 53007 82032 333 82360 86073;MET039LFQB 061500Z 23002KT CAVOK 10/06 Q1021;EQDQ01+000000PRSWM2Q02  00002PRCP06
0291071680999992000010616004+48330+004020SY-MT+0118LFQB V0201801N004110690019N0180001N1+00811+00521102151ADDAA106000091GA1021+013809999GA2071+069009999GF107991041051012501031021MA1102101100701MD1110061+9999MW1001REMSYN082AAXX  06164 07168 32668 71808 10081 20052 30070 40215 51006 84532 333 84646 86073;MET052LFQB 061600Z 18008KT 9999 SCT046 BKN230 08/05 Q1021;EQDQ01+000000PRSWM2Q02  00002PRCP06
0291071680999992000010617004+48330+004020SY-MT+0118LFQB V0202101N004110690019N0150001N1+00711+00511102201ADDAA106000091GA1021+013809999GA2071+069009999GF107991021051012501031021MA1102101100751MD1310091+9999MW1001REMSYN082AAXX  06174 07168 32665 72108 10071 20051 30075 40220 53009 82532 333 82646 86073;MET052LFQB 061700Z 21007KT 9999 FEW046 BKN230 07/05 Q1021;EQDQ01+000000PRSWM2Q02  00002PRCP06
0173071680999992000010618004+48330+004020FM-12+0118LFQB V0201901N004119999999N9999999N1+00691+00511102181ADDAA106000091KA1999M+01141KA2999N+00281MA1999999100731MD1010031+9999REMSYN076AAXX  06184 07168 36/// /1908 10069 20051 30073 40218 50003 333 10114 20028;EQDQ01  00002PRCP06
0131071680999992000010620004+48330+004020FM-12+0118LFQB V0202201N001019999999N9999999N1+00811+00571102281ADDAA106000091MA1999999100831MD1310081+9999REMSYN060AAXX  06204 07168 36/// /2202 10081 20057 30083 40228 53008;EQDQ01  00002PRCP06
0131071680999992000010621004+48330+004020FM-12+0118LFQB V0202301N004119999999N9999999N1+00851+00611102331ADDAA106000091MA1999999100881MD1110151+9999REMSYN060AAXX  06214 07168 36/// /2308 10085 20061 30088 40233 51015;EQDQ01  00002PRCP06
0122071680999992000010622004+48330+004020FM-12+0118LFQB V0202901N004119999999N9999999N1+00781+00691102401ADDAA101000891MA1999999100951MD1310161+9999REMSYN070AAXX  06224 07168 26/// /2908 10078 20069 30095 40240 53016 333 69985;
0122071680999992000010623004+48330+004020FM-12+0118LFQB V0202701N002119999999N9999999N1+00741+00681102441ADDAA101000591MA1999999100991MD1110161+9999REMSYN070AAXX  06234 07168 26/// /2704 10074 20068 30099 40244 51016 333 69965;
0128071680999992000010700004+48330+004020FM-12+0118LFQB V0202601N001019999999N9999999N1+00711+00651102431ADDAA103002091MA1999999100981MD1010101+9999REMSYN076AAXX  07004 07168 /6/// /2602 10071 20065 30098 40243 50010 60021 333 60027;
0131071680999992000010701004+48330+004020FM-12+0118LFQB V0202001N003119999999N9999999N1+00661+00601102441ADDAA106000091MA1999999100981MD1110031+9999REMSYN060AAXX  07014 07168 36/// /2006 10066 20060 30098 40244 51003;EQDQ01  00002PRCP06
0131071680999992000010702004+48330+004020FM-12+0118LFQB V0202001N002119999999N9999999N1+00641+00601102501ADDAA106000091MA1999999101041MD1310051+9999REMSYN060AAXX  07024 07168 36/// /2004 10064 20060 30104 40250 53005;EQDQ01  00002PRCP06
0131071680999992000010703004+48330+004020FM-12+0118LFQB V0203501N001019999999N9999999N1+00661+00601102541ADDAA106000091MA1999999101081MD1310101+9999REMSYN060AAXX  07034 07168 36/// /3502 10066 20060 30108 40254 53010;EQDQ01  00002PRCP06
0131071680999992000010704004+48330+004020FM-12+0118LFQB V0203601N001019999999N9999999N1+00511+00471102591ADDAA106000091MA1999999101121MD1110141+9999REMSYN060AAXX  07044 07168 36/// /3602 10051 20047 30112 40259 51014;EQDQ01  00002PRCP06
0318071680999992000010705004+48330+004020SY-MT+0118LFQB V0209999C000010060019N0008001N1+00361+00321102621ADDAA106000091AY141999AY221999GA1021+000609999GA2071+006009999GF106991061051000751001001MA1102511101141MD1110101+9999MW1411REMSYN088AAXX  07054 07168 31108 60000 10036 20032 30114 40262 51010 74142 86500 333 83702 85620;MET057LFQB 070500Z 00000KT 0800 PRFG SCT002 BKN020 04/03 Q1025;EQDQ01  00002PRCP06Q02    003PRSWM1
0405071680999992000010706004+48330+004020SY-MT+0118LFQB V0201801N001010099019N0020001N1+00451+00411102651ADDAA112002091AA224002291AY141061AY221061GA1021+000909999GA2071+009909999GF108991081051000751999999GJ103549IA1119IA2999+00109KA1999M+00871KA2999N+00331MA1102611101181MD1210101+9999MW1101MW2281REMSYN124AAXX  07064 07168 11120 81802 10045 20041 30118 40265 52010 60022 72842 885// 333 10087 20033 32001 55059 70022 82703 87633;MET055LFQB 070600Z 18003KT 2000 BR FEW003 BKN033 05/04 Q1026;EQDQ01    003PRSWM1
0332071680999992000010707004+48330+004020SY-MT+0118LFQB V0201701N002110099019N0020001N1+00441+00401102651ADDAA106000091AY121011AY221011GA1021+000909999GA2071+009909999GF199999051051000751001001MA1102611101181MD1110061+9999MW1101REMSYN088AAXX  07074 07168 31120 51704 10044 20040 30118 40265 51006 71022 85500 333 82703 85633;MET055LFQB 070700Z 17003KT 2000 BR FEW003 BKN033 04/04 Q1026;EQDQ01+000052SCOTCVQ02  00002PRCP06Q03    003PRSWM1
0338071680999992000010708004+48330+004020SY-MT+0118LFQB V0200501N003110003019N0003001N1+00381+00351102701ADDAA106000091AY141999AY221999GA1071+000309999GA2021+010809999GF199999061061000751001001MA1102611101221MD1210081+9999MW1441MW2461REMSYN088AAXX  07084 07168 31103 60506 10038 20035 30122 40270 52008 74642 86600 333 85701 83636;MET055LFQB 070800Z 05005KT 0300 FG BKN001 SCT036 04/04 Q1026;EQDQ01+000062SCOTCVQ02  00002PRCP06Q03    003PRSWM1
0309071680999992000010709004+48330+004020SY-MT+0118LFQB V0201601N002110024019N0020001N1+00561+00531102741ADDAA106000091AY141031AY221031GA1071+002409999GF199999061061002501001001MA1102611101271MD1310091+9999MW1101MW2281REMSYN082AAXX  07094 07168 31320 61604 10056 20053 30127 40274 53009 72842 86600 333 86708;MET048LFQB 070900Z 16004KT 2000 BR BKN008 06/05 Q1026;EQDQ01+000062SCOTCVQ02  00002PRCP06Q03    003PRSWM1
0278071680999992000010710004+48330+004020SY-MT+0118LFQB V0202001N002110015019N0060001N1+00591+00561102741ADDAA106000091GA1071+001509999GF199999061061001501001001MA1102611101271MD1110091+9999MW1001REMSYN076AAXX  07104 07168 32256 62004 10059 20056 30127 40274 51009 86600 333 86705;MET045LFQB 071000Z 20004KT 6000 BKN005 06/06 Q1026;EQDQ01+000062SCOTCVQ02+000000PRSWM2Q03  00002PRCP06
0291071680999992000010711004+48330+004020SY-MT+0118LFQB V0202101N003110024019N0100001N1+00671+00561102691ADDAA106000091GA1071+002409999GA2021+010809999GF107991071051002501999999MA1102611101231MD1010011+9999MW1001REMSYN082AAXX  07114 07168 32360 72106 10067 20056 30123 40269 50001 875// 333 86608 83636;MET052LFQB 071100Z 21006KT 9999 BKN008 SCT036 07/06 Q1026;EQDQ01+000000PRSWM2Q02  00002PRCP06
0300071680999992000010712004+48330+004020SY-MT+0118LFQB V0202401N003110036019N0100001N1+00691+00471102651ADDAA106000091AY141061AY221061GA1071+003609999GF107991071051004501999999MA1102611101191MD1810081+9999MW1011REMSYN082AAXX  07124 07168 31460 72406 10069 20047 30119 40265 58008 70142 875// 333 87612;MET045LFQB 071200Z 24006KT 9999 BKN012 07/05 Q1026;EQDQ01+000000PRSWM2Q02  00002PRCP06Q03    003PRSWM1
0261071680999992000010713004+48330+004020SY-MT+0118LFQB V0202201N003110027019N0120001N1+00651+00481102601ADDAA106000091GA1081+002709999GF108991081051002501999999MA1102511101141MD1810131+9999MW1001REMSYN076AAXX  07134 07168 32362 82206 10065 20048 30114 40260 58013 885// 333 88609;MET044LFQB 071300Z22005KT 9999 OVC009 07/05 Q1025;EQDQ01+000000PRSWM2Q02  00002PRCP06
0262071680999992000010714004+48330+004020SY-MT+0118LFQB V0202301N004110030019N0150001N1+00641+00461102561ADDAA106000091GA1081+003009999GF108991081051004501999999MA1102511101101MD1710131+9999MW1001REMSYN076AAXX  07144 07168 32465 82308 10064 20046 30110 40256 57013 885// 333 88610;MET045LFQB 071400Z 23007KT 9999 OVC010 06/05 Q1025;EQDQ01+000000PRSWM2Q02  00002PRCP06
0262071680999992000010715004+48330+004020SY-MT+0118LFQB V0202401N004110030019N0150001N1+00611+00431102531ADDAA106000091GA1081+003009999GF108991081051004501999999MA1102401101071MD1610121+9999MW1001REMSYN076AAXX  07154 07168 32465 82408 10061 20043 30107 40253 56012 885// 333 88610;MET045LFQB 071500Z 24008KT 9999 OVC010 06/04 Q1024;EQDQ01+000000PRSWM2Q02  00002PRCP06
0262071680999992000010716004+48330+004020SY-MT+0118LFQB V0202401N003110045019N0150001N1+00621+00421102521ADDAA106000091GA1081+004509999GF108991081051004501999999MA1102401101061MD1610081+9999MW1001REMSYN076AAXX  07164 07168 32465 82406 10062 20042 30106 40252 56008 885// 333 88615;MET045LFQB 071600Z 24006KT 9999 OVC015 06/04 Q1024;EQDQ01+000000PRSWM2Q02  00002PRCP06
0262071680999992000010717004+48330+004020SY-MT+0118LFQB V0202101N002110060019N0120001N1+00611+00411102501ADDAA106000091GA1081+006009999GF108991081051008001999999MA1102401101041MD1610061+9999MW1001REMSYN076AAXX  07174 07168 32562 82104 10061 20041 30104 40250 56006 885// 333 88620;MET045LFQB 071700Z 21005KT 9999 OVC020 06/04 Q1024;EQDQ01+000000PRSWM2Q02  00002PRCP06
0173071680999992000010718004+48330+004020FM-12+0118LFQB V0202201N004119999999N9999999N1+00611+00331102501ADDAA106000091KA1999M+00701KA2999N+00291MA1999999101041MD1610031+9999REMSYN076AAXX  07184 07168 36/// /2208 10061 20033 30104 40250 56003 333 10070 20029;EQDQ01  00002PRCP06
0131071680999992000010719004+48330+004020FM-12+0118LFQB V0202101N002119999999N9999999N1+00561+00381102491ADDAA106000091MA1999999101031MD1610031+9999REMSYN060AAXX  07194 07168 36/// /2104 10056 20038 30103 40249 56003;EQDQ01  00002PRCP06
0131071680999992000010720004+48330+004020FM-12+0118LFQB V0202101N002119999999N9999999N1+00521+00371102511ADDAA106000091MA1999999101041MD1510001+9999REMSYN060AAXX  07204 07168 36/// /2104 10052 20037 30104 40251 55000;EQDQ01  00002PRCP06
0131071680999992000010721004+48330+004020FM-12+0118LFQB V0202101N002119999999N9999999N1+00511+00411102491ADDAA106000091MA1999999101021MD1810021+9999REMSYN060AAXX  07214 07168 36/// /2104 10051 20041 30102 40249 58002;EQDQ01  00002PRCP06
0131071680999992000010722004+48330+004020FM-12+0118LFQB V0201801N001019999999N9999999N1+00411+00261102451ADDAA106000091MA1999999100981MD1810051+9999REMSYN060AAXX  07224 07168 36/// /1802 10041 20026 30098 40245 58005;EQDQ01  00002PRCP06
0131071680999992000010723004+48330+004020FM-12+0118LFQB V0202301N002119999999N9999999N1+00181+00091102441ADDAA106000091MA1999999100961MD1710081+9999REMSYN060AAXX  07234 07168 36/// /2304 10018 20009 30096 40244 57008;EQDQ01  00002PRCP06
0131071680999992000010800004+48330+004020FM-12+0118LFQB V0201401N002119999999N9999999N1+00271+00181102391ADDAA106000091MA1999999100911MD1810111+9999REMSYN060AAXX  08004 07168 36/// /1404 10027 20018 30091 40239 58011;EQDQ01  00002PRCP06
0131071680999992000010801004+48330+004020FM-12+0118LFQB V0201601N003119999999N9999999N1+00181+00121102291ADDAA106000091MA1999999100811MD1810171+9999REMSYN060AAXX  08014 07168 36/// /1606 10018 20012 30081 40229 58017;EQDQ01  00002PRCP06
0131071680999992000010802004+48330+004020FM-12+0118LFQB V0201501N003119999999N9999999N1+00231+00131102291ADDAA106000091MA1999999100811MD1610151+9999REMSYN060AAXX  08024 07168 36/// /1506 10023 20013 30081 40229 56015;EQDQ01  00002PRCP06
0131071680999992000010803004+48330+004020FM-12+0118LFQB V0201601N003119999999N9999999N1+00231+00141102271ADDAA106000091MA1999999100791MD1610121+9999REMSYN060AAXX  08034 07168 36/// /1606 10023 20014 30079 40227 56012;EQDQ01  00002PRCP06
0131071680999992000010804004+48330+004020FM-12+0118LFQB V0201701N004119999999N9999999N1+00311+00241102221ADDAA106000091MA1999999100751MD1810061+9999REMSYN060AAXX  08044 07168 36/// /1708 10031 20024 30075 40222 58006;EQDQ01  00002PRCP06
0182071680999992000010805004+48330+004020FM-15+0118LFQB V0201901N005110024019N0070001N1+00401+00301999999ADDGA1071+002409999GA2071+012009999GF107991999999999999999999MA1102101999999MW1511REMMET056LFQB 080500Z 19010KT 7000 -DZ BKN008 BKN040 04/03 Q1021;EQDQ01+000003PRSWM1Q02    003PRSWM1
0383071680999992000010806004+48330+004020SY-MT+0118LFQB V0201701N004110024019N0050001N1+00471+00381102211ADDAA103999929AA224999929AY151061AY221061GA1071+002409999GF108991071071002501999999GJ100009IA1099IA2999-00209KA1999M+00631KA2999N+00061MA1102101100751MD1610041+9999MW1501MW2511REMSYN124AAXX  08064 07168 /1350 81708 10047 20038 30075 40221 56004 69902 75052 877// 333 10063 20006 31102 55000 69907 79999 87708;MET049LFQB 080600Z 17008KT 5000 -DZ BKN008 05/04 Q1021;EQDQ01    003PRSWM1
0290071680999992000010807004+48330+004020SY-MT+0118LFQB V0201701N003110018019N0050001N1+00501+00411102231ADDAA101999929AY151999AY221999GA1081+001809999GF108991081071002501999999MA1102101100771MD1310021+9999MW1201REMSYN088AAXX  08074 07168 21350 81706 10050 20041 30077 40223 53002 72052 887// 333 69905 88706;MET045LFQB 080700Z 17007KT 5000 OVC006 05/04 Q1021;EQDQ01+000000PRSWM2Q02    003PRSWM1
0300071680999992000010808004+48330+004020SY-MT+0118LFQB V0201801N005110150019N0030001N1+00511+00441102221ADDAA106000021AY121999AY221999GA1021+001809999GA2071+015009999GF107991071051002501999999MA1102101100761MD1010011+9999MW1101REMSYN088AAXX  08084 07168 31330 71810 10051 20044 30076 40222 50001 71022 875// 333 84706 87650;MET055LFQB 080800Z 18010KT 3000 BR SCT006 BKN050 05/04 Q1021;EQDQ01    003PRSWM1
0259071680999992000010809004+48330+004020SY-MT+0118LFQB V0201501N003110018019N0030001N1+00541+00451102301ADDAA103000791GA1071+001809999GF107991999999999999999999MA1102201100841MD1310091+9999MW1101REMSYN070AAXX  08094 07168 26/// /1506 10054 20045 30084 40230 53009 333 69907;MET048LFQB 080900Z 15004KT 3000 BR BKN006 05/05 Q1022;EQDQ01+000003PRSWM1Q02    003PRSWM1
0271071680999992000010810004+48330+004020SY-MT+0118LFQB V0201801N006210024019N0040001N1+00611+00511102301ADDAA106000021AY121999AY221999GA1071+002409999GF108991071071002501999999MA1102201100841MD1310071+9999MW1101REMSYN082AAXX  08104 07168 31340 81812 10061 20051 30084 40230 53007 71022 877// 333 87708;MET048LFQB 081000Z 18011KT 4000 BR BKN008 06/05 Q1022;EQDQ01    003PRSWM1
0300071680999992000010811004+48330+004020SY-MT+0118LFQB V0201801N005110024019N0030001N1+00661+00541102231ADDAA106000021AY121999AY221999GA1071+002409999GA2071+010509999GF108991071051002501999999MA1102101100781MD1010021+9999MW1101REMSYN088AAXX  08114 07168 31330 81810 10066 20054 30078 40223 50002 71022 875// 333 85708 87635;MET055LFQB 081100Z 18009KT 3000 BR BKN008 BKN035 07/05 Q1021;EQDQ01    003PRSWM1
0306071680999992000010812004+48330+004020SY-MT+0118LFQB V0201801N005110030019N0040001N1+00731+00611102181ADDAA106000791AY151061AY221061GA1071+003009999GA2071+010509999GF108991071051004501999999MA1102101100731MD1810111+9999MW1101REMSYN094AAXX  08124 07168 11440 81810 10073 20061 30073 40218 58011 69901 71052 875// 333 85710 87635;MET055LFQB 081200Z 18010KT 4000 BR BKN010 BKN035 07/06 Q1021;EQDQ01    003PRSWM1
0300071680999992000010813004+48330+004020SY-MT+0118LFQB V0202001N005110030019N0040001N1+00771+00651102151ADDAA106000021AY121999AY221999GA1071+003009999GA2071+010509999GF108991071051004501999999MA1102101100701MD1610141+9999MW1101REMSYN088AAXX  08134 07168 31440 82010 10077 20065 30070 40215 56014 71022 875// 333 85710 87635;MET055LFQB 081300Z 20009KT 4000 BR BKN010 BKN035 08/07 Q1021;EQDQ01    003PRSWM1
0287071680999992000010814004+48330+004020SY-MT+0118LFQB V0201801N005110024019N0040001N1+00761+00641102141ADDAA106000091AY121999AY221999GA1071+002409999GF108991071071002501999999MA1102101100691MD1610091+9999MW1101REMSYN082AAXX  08144 07168 31340 81810 10076 20064 30069 40214 56009 71022 877// 333 87708;MET048LFQB 081400Z 18009KT 4000 BR BKN008 08/06 Q1021;EQDQ01  00002PRCP06Q02    003PRSWM1
0287071680999992000010815004+48330+004020SY-MT+0118LFQB V0201901N005110024019N0030001N1+00781+00641102151ADDAA106000091AY121031AY221031GA1071+002409999GF108991071071002501999999MA1102101100701MD1510031+9999MW1101REMSYN082AAXX  08154 07168 31330 81910 10078 20064 30070 40215 55003 71022 877// 333 87708;MET048LFQB 081500Z 19010KT 3000 BR BKN008 08/06 Q1021;EQDQ01  00002PRCP06Q02    003PRSWM1
0287071680999992000010816004+48330+004020SY-MT+0118LFQB V0201801N004110021019N0015001N1+00711+00651102161ADDAA106000091AY121999AY221999GA1081+002109999GF108991081071002501999999MA1102101100711MD1310011+9999MW1101REMSYN082AAXX  08164 07168 31315 81808 10071 20065 30071 40216 53001 71022 887// 333 88707;MET048LFQB 081600Z 18007KT 1500 BR OVC007 07/07 Q1021;EQDQ01  00002PRCP06Q02    003PRSWM1
0276071680999992000010817004+48330+004020SY-MT+0118LFQB V0201701N005110012019N0010001N1+00711+00651102161ADDAA101000291AY161999AY261999GA1081+001209999GF108991081071001501999999MA1102101100711MD1110021+9999MW1101MW2511MW3581REMSYN088AAXX  08174 07168 21210 81710 10071 20065 30071 40216 51002 75866 887// 333 69925 88704;MET054LFQB 081700Z 17009KT 1000 -DZRA BR OVC004 07/07 Q1021;
0166071680999992000010818004+48330+004020FM-12+0118LFQB V0201701N004119999999N9999999N1+00711+00671102161ADDAA103000591KA1999M+00791KA2999N+00471MA1999999100711MD1110011+9999REMSYN088AAXX  08184 07168 /6/// /1708 10071 20067 30071 40216 51001 69942 333 10079 20047 69947;
0122071680999992000010819004+48330+004020FM-12+0118LFQB V0201701N003119999999N9999999N1+00721+00661102151ADDAA101000791MA1999999100701MD1810011+9999REMSYN070AAXX  08194 07168 26/// /1706 10072 20066 30070 40215 58001 333 69905;
0122071680999992000010820004+48330+004020FM-12+0118LFQB V0201501N002119999999N9999999N1+00721+00661102151ADDAA101000591MA1999999100701MD1710011+9999REMSYN070AAXX  08204 07168 26/// /1504 10072 20066 30070 40215 57001 333 69965;
0122071680999992000010821004+48330+004020FM-12+0118LFQB V0201501N002119999999N9999999N1+00721+00681102141ADDAA103002091MA1999999100691MD1710021+9999REMSYN070AAXX  08214 07168 26/// /1504 10072 20068 30069 40214 57002 333 60027;
0122071680999992000010822004+48330+004020FM-12+0118LFQB V0201701N002119999999N9999999N1+00741+00701102121ADDAA101000791MA1999999100671MD1810031+9999REMSYN070AAXX  08224 07168 26/// /1704 10074 20070 30067 40212 58003 333 69905;
0122071680999992000010823004+48330+004020FM-12+0118LFQB V0201801N003119999999N9999999N1+00741+00681102111ADDAA101000791MA1999999100661MD1710041+9999REMSYN070AAXX  08234 07168 26/// /1806 10074 20068 30066 40211 57004 333 69905;
0128071680999992000010900004+48330+004020FM-12+0118LFQB V0201601N001019999999N9999999N1+00741+00701102091ADDAA103000191MA1999999100641MD1710051+9999REMSYN076AAXX  09004 07168 /6/// /1602 10074 20070 30064 40209 57005 60021 333 69927;
0122071680999992000010901004+48330+004020FM-12+0118LFQB V0201801N002119999999N9999999N1+00741+00701102051ADDAA101000591MA1999999100601MD1810071+9999REMSYN070AAXX  09014 07168 26/// /1804 10074 20070 30060 40205 58007 333 69945;
0122071680999992000010902004+48330+004020FM-12+0118LFQB V0201301N001019999999N9999999N1+00741+00701102071ADDAA101000191MA1999999100621MD1510041+9999REMSYN070AAXX  09024 07168 26/// /1302 10074 20070 30062 40207 55004 333 69925;
0122071680999992000010903004+48330+004020FM-12+0118LFQB V0203201N003119999999N9999999N1+00741+00701102091ADDAA103000891MA1999999100641MD1510001+9999REMSYN070AAXX  09034 07168 26/// /3206 10074 20070 30064 40209 55000 333 69987;
0122071680999992000010904004+48330+004020FM-12+0118LFQB V0203601N006219999999N9999999N1+00621+00501102161ADDAA101000591MA1999999100701MD1310101+9999REMSYN070AAXX  09044 07168 26/// /3612 10062 20050 30070 40216 53010 333 69965;
0307071680999992000010905004+48330+004020SY-MT+0118LFQB V0203401N005110078019N0080001N1+00581+00481102181ADDAA101000291AY161999AY221999GA1021+002409999GA2071+007809999GF108991071051002501999999MA1102101100721MD1210101+9999MW1611REMSYN094AAXX  09054 07168 21358 83410 10058 20048 30072 40218 52010 76162 875// 333 69925 83708 87626;MET056LFQB 090500Z 34010KT 8000 -RA SCT008 BKN026 06/05 Q1021;EQDQ01    003PRSWM1
0319071680999992000010908004+48330+004020SY-MT+0118LFQB V0203201N003110045019N0100001N1+00541+00501102341ADDAA101000291AY161999AY221999GA1071+004509999GA2071+012009999GF107991071051004501999999MA1102201100881MD1310161+9999MW1211REMSYN094AAXX  09084 07168 21460 73206 10054 20050 30088 40234 53016 72162 875// 333 69925 85615 87640;MET052LFQB 090800Z 32006KT 9999 BKN015 BKN040 05/05 Q1022;EQDQ01+000000PRSWM2Q02    003PRSWM1
0348071680999992000010909004+48330+004020SY-MT+0118LFQB V0203301N004110135019N0120001N1+00561+00491102431ADDAA103001091AY161031AY221031GA1021+004809999GA2071+013509999GA3071+027009999GF107991051051004501031999MA1102301100971MD1310211+9999MW1011REMSYN100AAXX  09094 07168 21462 73308 10056 20049 30097 40243 53021 70162 8553/ 333 60017 82616 85645 87359;MET059LFQB 090900Z 33008KT 9999 FEW016 BKN045 BKN090 06/05 Q1023;EQDQ01+000000PRSWM2Q02    003PRSWM1
0262071680999992000010910004+48330+004020SY-MT+0118LFQB V0203501N004110150019N0150001N1+00611+00431102471ADDAA106000021GA1051+015009059GA2071+027009079GF107991051051017501031999MA1102401101011MD1110201+9999MW1001REMSYN082AAXX  09104 07168 32765 73508 10061 20043 30101 40247 51020 8553/ 333 85650 87359;MET039LFQB 091000Z 35007KT CAVOK 06/04 Q1024;EQDQ01+000000PRSWM2
0246071680999992000010911004+48330+004020SY-MT+0118LFQB V0203501N005110150019N0180001N1+00631+00381102501ADDAA106000021GA1051+015009069GF107991051051017501031999MA1102401101041MD1110161+9999MW1001REMSYN082AAXX  09114 07168 32768 73510 10063 20038 30104 40250 51016 8553/ 333 85650 87359;MET039LFQB 091100Z 35010KT CAVOK 06/04 Q1024;EQDQ01+000000PRSWM2
0348071680999992000010912004+48330+004020SY-MT+0118LFQB V0203601N005110150019N0200001N1+00651+00401102501ADDAA106001091AY161061AY221061GA1021+004509999GA2071+015009999GA3071+027009999GF107991051081004501031999MA1102401101041MD1110071+9999MW1031REMSYN100AAXX  09124 07168 11470 73610 10065 20040 30104 40250 51007 60011 70362 8583/ 333 81815 85650 86359;MET059LFQB 091200Z 36009KT 9999 FEW015 BKN050 BKN090 07/04 Q1024;EQDQ01+000000PRSWM2Q02    003PRSWM1
0304071680999992000010913004+48330+004020SY-MT+0118LFQB V0203501N006210270019N0200001N1+00651+00351102521ADDAA106000021GA1021+004509999GA2021+015009999GA3071+027009999GF107991041081004501031999MA1102401101061MD1110051+9999MW1001REMSYN088AAXX  09134 07168 32470 73512 10065 20035 30106 40252 51005 8483/ 333 82815 84650 86359;MET059LFQB 091300Z 35012KT 9999 FEW015 SCT050 BKN090 07/04 Q1024;EQDQ01+000000PRSWM2
0304071680999992000010914004+48330+004020SY-MT+0118LFQB V0203501N005110270019N0200001N1+00631+00401102551ADDAA106000021GA1021+004509999GA2021+015009999GA3071+027009999GF107991041081004501031999MA1102511101091MD1310051+9999MW1001REMSYN088AAXX  09144 07168 32470 73510 10063 20040 30109 40255 53005 8483/ 333 82815 84650 86359;MET059LFQB 091400Z 35010KT 9999 FEW015 SCT050 BKN090 06/04 Q1025;EQDQ01+000000PRSWM2
0320071680999992000010915004+48330+004020SY-MT+0118LFQB V0203501N005110270019N0200001N1+00621+00351102621ADDAA106000091GA1021+006009999GA2021+015009999GA3071+027009999GF107991041081008001031021MA1102511101161MD1310121+9999MW1001REMSYN088AAXX  09154 07168 32570 73510 10062 20035 30116 40262 53012 84832 333 82820 83650 85359;MET059LFQB 091500Z 35009KT 9999 FEW020 SCT050 BKN090 06/04 Q1025;EQDQ01+000000PRSWM2Q02  00002PRCP06
0320071680999992000010916004+48330+004020SY-MT+0118LFQB V0203601N005110300019N0150001N1+00581+00311102731ADDAA106000091GA1021+006009999GA2071+030009999GA3071+075009999GF107991041041008001031021MA1102611101261MD1310201+9999MW1001REMSYN088AAXX  09164 07168 32565 73610 10058 20031 30126 40273 53020 84432 333 84620 85360 85075;MET059LFQB 091600Z 36009KT 9999 SCT020 BKN100 BKN250 06/03 Q1026;EQDQ01+000000PRSWM2Q02  00002PRCP06
0320071680999992000010917004+48330+004020SY-MT+0118LFQB V0203501N004110300019N0120001N1+00571+00321102791ADDAA106000091GA1021+006009999GA2071+030009999GA3071+075009999GF107991041051008001031021MA1102711101321MD1110231+9999MW1001REMSYN088AAXX  09174 07168 32562 73508 10057 20032 30132 40279 51023 84532 333 84620 85360 85075;MET059LFQB 091700Z 35008KT 9999 SCT020 BKN100 BKN250 06/03 Q1027;EQDQ01+000000PRSWM2Q02  00002PRCP06
0160071680999992000010918004+48330+004020FM-12+0118LFQB V0203401N004119999999N9999999N1+00481+00281102851ADDAA112001091KA1999M+00671KA2999N+00481MA1999999101381MD1110221+9999REMSYN082AAXX  09184 07168 16/// /3408 10048 20028 30138 40285 51022 60012 333 10067 20048;
0131071680999992000010919004+48330+004020FM-12+0118LFQB V0203401N005119999999N9999999N1+00451+00271102941ADDAA106000091MA1999999101461MD1310201+9999REMSYN060AAXX  09194 07168 36/// /3410 10045 20027 30146 40294 53020;EQDQ01  00002PRCP06
0131071680999992000010920004+48330+004020FM-12+0118LFQB V0203401N005119999999N9999999N1+00411+00251102991ADDAA106000091MA1999999101511MD1110191+9999REMSYN060AAXX  09204 07168 36/// /3410 10041 20025 30151 40299 51019;EQDQ01  00002PRCP06
0131071680999992000010921004+48330+004020FM-12+0118LFQB V0203401N005119999999N9999999N1+00331+00181103091ADDAA106000091MA1999999101601MD1310221+9999REMSYN060AAXX  09214 07168 36/// /3410 10033 20018 30160 40309 53022;EQDQ01  00002PRCP06
0131071680999992000010922004+48330+004020FM-12+0118LFQB V0203101N003119999999N9999999N1+00151+00081103141ADDAA106000091MA1999999101641MD1110181+9999REMSYN060AAXX  09224 07168 36/// /3106 10015 20008 30164 40314 51018;EQDQ01  00002PRCP06
0131071680999992000010923004+48330+004020FM-12+0118LFQB V0203001N004119999999N9999999N1+00091+00031103191ADDAA106000091MA1999999101691MD1110181+9999REMSYN060AAXX  09234 07168 36/// /3008 10009 20003 30169 40319 51018;EQDQ01  00002PRCP06
0131071680999992000011000004+48330+004020FM-12+0118LFQB V0203001N004119999999N9999999N1+00021-00021103221ADDAA106000091MA1999999101721MD1110121+9999REMSYN060AAXX  10004 07168 36/// /3008 10002 21002 30172 40322 51012;EQDQ01  00002PRCP06
0131071680999992000011001004+48330+004020FM-12+0118LFQB V0203001N004119999999N9999999N1-00021-00061103271ADDAA106000091MA1999999101761MD1110121+9999REMSYN060AAXX  10014 07168 36/// /3008 11002 21006 30176 40327 51012;EQDQ01  00002PRCP06
0131071680999992000011002004+48330+004020FM-12+0118LFQB V0203001N003119999999N9999999N1-00071-00111103331ADDAA106000091MA1999999101821MD1310131+9999REMSYN060AAXX  10024 07168 36/// /3006 11007 21011 30182 40333 53013;EQDQ01  00002PRCP06
0131071680999992000011003004+48330+004020FM-12+0118LFQB V0203101N004119999999N9999999N1-00031-00071103371ADDAA106000091MA1999999101861MD1210141+9999REMSYN060AAXX  10034 07168 36/// /3108 11003 21007 30186 40337 52014;EQDQ01  00002PRCP06
0131071680999992000011004004+48330+004020FM-12+0118LFQB V0203001N003119999999N9999999N1-00091-00131103381ADDAA106000091MA1999999101871MD1110111+9999REMSYN060AAXX  10044 07168 36/// /3006 11009 21013 30187 40338 51011;EQDQ01  00002PRCP06
0229071680999992000011005004+48330+004020SY-MT+0118LFQB V0203001N004112200019N0050001N1-00091-00131103431ADDAA106000091GF100991001001999999001001MA1103291101921MD1310101+9999MW1001REMSYN060AAXX  10054 07168 32950 03008 11009 21013 30192 40343 53010;MET044LFQB 100500Z 30008KT 5000 SKC M01/M01 Q1033;EQDQ01+000000PRSWM2Q02  00002PRCP06
0315071680999992000011006004+48330+004020SY-MT+0118LFQB V0203301N004112200019N0050001N1-00091-00131103481ADDAA106000091GF100991001001999999001001GJ100009IA1149IA2999-00309KA1999M+00501KA2999N-00141MA1103291101971MD1310111+9999MW1001REMSYN094AAXX  10064 07168 32950 03308 11009 21013 30197 40348 53011 333 10050 21014 34103 55000 70010;MET044LFQB 100600Z 33008KT 5000 SKC M01/M01 Q1033;EQDQ01+000000PRSWM2Q02  00002PRCP06
0229071680999992000011007004+48330+004020SY-MT+0118LFQB V0203101N004112200019N0050001N1-00121-00161103551ADDAA106000091GF100991001001999999001001MA1103391102031MD1310161+9999MW1001REMSYN060AAXX  10074 07168 32950 03108 11012 21016 30203 40355 53016;MET044LFQB 100700Z 31007KT 5000 SKC M01/M02 Q1034;EQDQ01+000000PRSWM2Q02  00002PRCP06
0289071680999992000011008004+48330+004020SY-MT+0118LFQB V0203001N004112200019N0040001N1-00121-00161103621ADDAA106000091AY101999AY201999GA1021+000909999GF102991021051000751001001MA1103491102101MD1310181+9999MW1101REMSYN082AAXX  10084 07168 31140 23008 11012 21016 30210 40362 53018 71000 82500 333 81703;MET050LFQB 100800Z 30007KT 4000 BR FEW003 M01/M02 Q1035;EQDQ01  00002PRCP06Q02    003PRSWM1
0229071680999992000011009004+48330+004020SY-MT+0118LFQB V0203101N003112200019N0060001N1-00031-00071103651ADDAA106000091GF100991001001999999001001MA1103491102141MD1110171+9999MW1001REMSYN060AAXX  10094 07168 32956 03106 11003 21007 30214 40365 51017;MET044LFQB 100900Z 31006KT 6000 SKC M00/M01 Q1035;EQDQ01+000000PRSWM2Q02  00002PRCP06
0227071680999992000011010004+48330+004020SY-MT+0118LFQB V0202901N002112200019N0070001N1+00081+00041103681ADDAA106000091GF100991001001999999001001MA1103591102171MD1110141+9999MW1001REMSYN060AAXX  10104 07168 32957 02904 10008 20004 30217 40368 51014;MET042LFQB 101000Z 29004KT 7000 SKC 01/00 Q1036;EQDQ01+000000PRSWM2Q02  00002PRCP06
0235071680999992000011011004+48330+004020SY-MT+0118LFQB V0200301N002112200019N0080001N1+00281+00041103671ADDAA106000091GF100991001001999999001001MA1103591102171MD1110071+9999MW1001REMSYN060AAXX  10114 07168 32958 00304 10028 20004 30217 40367 51007;MET050LFQB 101100Z 03004KT 350V070 8000 SKC 03/00 Q1036;EQDQ01+000000PRSWM2Q02  00002PRCP06
0278071680999992000011012004+48330+004020SY-MT+0118LFQB V0200501N002112200019N0090001N1+00391+00041103631ADDAA106000091GA1021+003909999GF199999011011004501001001MA1103491102141MD1010001+9999MW1001REMSYN076AAXX  10124 07168 32459 10504 10039 20004 30214 40363 50000 81100 333 81813;MET045LFQB 101200Z 05005KT 9000 FEW013 04/00 Q1035;EQDQ01+000012SCOTCVQ02+000000PRSWM2Q03  00002PRCP06
0278071680999992000011013004+48330+004020SY-MT+0118LFQB V0200101N003112200019N0120001N1+00451+00011103611ADDAA106000091GA1021+004509999GF199999011011004501001001MA1103491102121MD1810051+9999MW1001REMSYN076AAXX  10134 07168 32462 10106 10045 20001 30212 40361 58005 81100 333 81815;MET045LFQB 101300Z 01006KT 9999 FEW015 05/00 Q1035;EQDQ01+000012SCOTCVQ02+000000PRSWM2Q03  00002PRCP06
0278071680999992000011014004+48330+004020SY-MT+0118LFQB V0203601N003112200019N0120001N1+00461+00061103601ADDAA106000091GA1021+004809999GF199999011011004501001001MA1103491102111MD1610061+9999MW1001REMSYN076AAXX  10144 07168 32462 13606 10046 20006 30211 40360 56006 81100 333 81816;MET045LFQB 101400Z 36006KT 9999 FEW016 05/01 Q1035;EQDQ01+000012SCOTCVQ02+000000PRSWM2Q03  00002PRCP06
0224071680999992000011015004+48330+004020SY-MT+0118LFQB V0200201N003112200019N0120001N1+00411+00041103631ADDAA106000091GF100991001001999999001001MA1103491102141MD1510001+9999MW1001REMSYN060AAXX  10154 07168 32962 00206 10041 20004 30214 40363 55000;MET039LFQB 101500Z 02006KT CAVOK 04/00 Q1035;EQDQ01+000000PRSWM2Q02  00002PRCP06
0279071680999992000011016004+48330+004020SY-MT+0118LFQB V0203501N002112200019N0090001N1+00211-00051103701ADDAA106000091GA1021+075009999GF199999001001999999001011MA1103591102201MD1310081+9999MW1001REMSYN076AAXX  10164 07168 32959 13504 10021 21005 30220 40370 53008 80001 333 81075;MET046LFQB 101600Z 35003KT 9000 FEW250 02/M00 Q1036;EQDQ01+000012SCOTCVQ02+000000PRSWM2Q03  00002PRCP06
0280071680999992000011017004+48330+004020SY-MT+0118LFQB V0203301N003112200019N0080001N1-00021-00161103731ADDAA106000091GA1021+075009999GF199999001001999999001011MA1103591102221MD1110111+9999MW1001REMSYN076AAXX  10174 07168 32958 13306 11002 21016 30222 40373 51011 80001 333 81075;MET047LFQB 101700Z 33005KT 8000 FEW250 M00/M02 Q1036;EQDQ01+000012SCOTCVQ02+000000PRSWM2Q03  00002PRCP06
0173071680999992000011018004+48330+004020FM-12+0118LFQB V0203301N002119999999N9999999N1-00031-00141103761ADDAA106000091KA1999M+00461KA2999N-00211MA1999999102241MD1110101+9999REMSYN076AAXX  10184 07168 36/// /3304 11003 21014 30224 40376 51010 333 10046 21021;EQDQ01  00002PRCP06
0131071680999992000011019004+48330+004020FM-12+0118LFQB V0203401N002119999999N9999999N1-00051-00131103761ADDAA106000091MA1999999102241MD1110041+9999REMSYN060AAXX  10194 07168 36/// /3404 11005 21013 30224 40376 51004;EQDQ01  00002PRCP06
0131071680999992000011020004+48330+004020FM-12+0118LFQB V0203201N003119999999N9999999N1-00131-00211103781ADDAA106000091MA1999999102261MD1210041+9999REMSYN060AAXX  10204 07168 36/// /3206 11013 21021 30226 40378 52004;EQDQ01  00002PRCP06
0131071680999992000011021004+48330+004020FM-12+0118LFQB V0202901N002119999999N9999999N1-00201-00301103791ADDAA106000091MA1999999102261MD1210021+9999REMSYN060AAXX  10214 07168 36/// /2904 11020 21030 30226 40379 52002;EQDQ01  00002PRCP06
0131071680999992000011022004+48330+004020FM-12+0118LFQB V0203001N004119999999N9999999N1-00181-00261103801ADDAA106000091MA1999999102281MD1210041+9999REMSYN060AAXX  10224 07168 36/// /3008 11018 21026 30228 40380 52004;EQDQ01  00002PRCP06
0131071680999992000011023004+48330+004020FM-12+0118LFQB V0202901N005119999999N9999999N1-00141-00221103831ADDAA106000091MA1999999102311MD1310051+9999REMSYN060AAXX  10234 07168 36/// /2910 11014 21022 30231 40383 53005;EQDQ01  00002PRCP06
0131071680999992000011100004+48330+004020FM-12+0118LFQB V0203001N004119999999N9999999N1-00181-00261103841ADDAA106000091MA1999999102311MD1110051+9999REMSYN060AAXX  11004 07168 36/// /3008 11018 21026 30231 40384 51005;EQDQ01  00002PRCP06
0131071680999992000011101004+48330+004020FM-12+0118LFQB V0203001N004119999999N9999999N1-00251-00321103861ADDAA106000091MA1999999102331MD1110051+9999REMSYN060AAXX  11014 07168 36/// /3008 11025 21032 30233 40386 51005;EQDQ01  00002PRCP06
0131071680999992000011102004+48330+004020FM-12+0118LFQB V0200101N002119999999N9999999N1-00291-00361103881ADDAA106000091MA1999999102351MD1310041+9999REMSYN060AAXX  11024 07168 36/// /0104 11029 21036 30235 40388 53004;EQDQ01  00002PRCP06
0131071680999992000011103004+48330+004020FM-12+0118LFQB V0203501N002119999999N9999999N1-00411-00461103911ADDAA106000091MA1999999102371MD1210061+9999REMSYN060AAXX  11034 07168 36/// /3504 11041 21046 30237 40391 52006;EQDQ01  00002PRCP06
0131071680999992000011104004+48330+004020FM-12+0118LFQB V0203401N003119999999N9999999N1-00401-00441103921ADDAA106000091MA1999999102381MD1110051+9999REMSYN060AAXX  11044 07168 36/// /3406 11040 21044 30238 40392 51005;EQDQ01  00002PRCP06
0291071680999992000011105004+48330+004020SY-MT+0118LFQB V0203401N003110003019N0002001N1-00371-00411103961ADDAA106000091AY141999AY221999GA1081+000309999GF108991081061000751999999MA1103791102421MD1310071+9999MW1481REMSYN082AAXX  11054 07168 31102 83406 11037 21041 30242 40396 53007 74842 886// 333 88701;MET052LFQB 110500Z 34006KT 0200 FZFG OVC001 M04/M04 Q1038;EQDQ01  00002PRCP06Q02    003PRSWM1
0383071680999992000011106004+48330+004020SY-MT+0118LFQB V0203301N002110003019N0002001N1-00351-00391103961ADDAA106000091AA224000091AY141061AY221061GA1081+000309999GF108991081061000751999999GJ104149IA1149IA2999-00509KA1999M-00031KA2999N-00431MA1103791102421MD1110051+9999MW1481REMSYN112AAXX  11064 07168 31102 83304 11035 21039 30242 40396 51005 74842 886// 333 11003 21043 34105 55069 70000 88701;MET051LFQB 110600Z 3303KT 0200 FZFG OVC001 M03/M04 Q1038;EQDQ01  00002PRCP06Q02    003PRSWM1
0291071680999992000011107004+48330+004020SY-MT+0118LFQB V0203001N002110003019N0002001N1-00331-00371103991ADDAA106000091AY141999AY241999GA1081+000309999GF108991081061000751999999MA1103791102451MD1110071+9999MW1481REMSYN082AAXX  11074 07168 31102 83004 11033 21037 30245 40399 51007 74844 886// 333 88701;MET052LFQB 110700Z 30003KT 0200 FZFG OVC001 M03/M04 Q1038;EQDQ01  00002PRCP06Q02    003PRSWM1
0291071680999992000011108004+48330+004020SY-MT+0118LFQB V0202301N001010003019N0001001N1-00331-00371104021ADDAA106000091AY141999AY241999GA1081+000309999GF108991081061000251999999MA1103891102481MD1310061+9999MW1481REMSYN082AAXX  11084 07168 31001 82302 11033 21037 30248 40402 53006 74844 886// 333 88701;MET052LFQB 110800Z 23002KT 0150 FZFG OVC001 M03/M04 Q1039;EQDQ01  00002PRCP06Q02    003PRSWM1
0291071680999992000011109004+48330+004020SY-MT+0118LFQB V0203301N001010003019N0001001N1-00341-00381104041ADDAA106000091AY141031AY241031GA1081+000309999GF108991081061000251999999MA1103891102501MD1110081+9999MW1481REMSYN082AAXX  11094 07168 31001 83302 11034 21038 30250 40404 51008 74844 886// 333 88701;MET052LFQB 110900Z 33003KT 0100 FZFG OVC001 M03/M04 Q1039;EQDQ01  00002PRCP06Q02    003PRSWM1
0291071680999992000011110004+48330+004020SY-MT+0118LFQB V0202701N001010003019N0001001N1-00321-00361104051ADDAA106000091AY141999AY241999GA1081+000309999GF108991081061000251999999MA1103891102511MD1110061+9999MW1481REMSYN082AAXX  11104 07168 31001 82702 11032 21036 30251 40405 51006 74844 886// 333 88701;MET052LFQB 111000Z 27001KT 0100 FZFG OVC001 M03/M04 Q1039;EQDQ01  00002PRCP06Q02    003PRSWM1
0291071680999992000011111004+48330+004020SY-MT+0118LFQB V0202601N001010003019N0001001N1-00291-00331104031ADDAA106000091AY141999AY241999GA1081+000309999GF108991081061000751999999MA1103891102501MD1010021+9999MW1481REMSYN082AAXX  11114 07168 31101 82602 11029 21033 30250 40403 50002 74844 886// 333 88701;MET052LFQB 111100Z VRB01KT 0150 FZFG OVC001 M03/M03 Q1039;EQDQ01  00002PRCP06Q02    003PRSWM1
0291071680999992000011112004+48330+004020SY-MT+0118LFQB V0209999C000010003019N0001001N1-00251-00291103971ADDAA106000091AY141061AY241061GA1081+000309999GF108991081061000251999999MA1103791102441MD1810061+9999MW1481REMSYN082AAXX  11124 07168 31001 80000 11025 21029 30244 40397 58006 74844 886// 333 88701;MET052LFQB 111200Z 00000KT 0100 FZFG OVC001 M02/M03 Q1038;EQDQ01  00002PRCP06Q02    003PRSWM1
0291071680999992000011113004+48330+004020SY-MT+0118LFQB V0201801N001010003019N0001001N1-00241-00281103911ADDAA106000091AY141999AY241999GA1081+000309999GF108991081061000251999999MA1103791102381MD1810131+9999MW1481REMSYN082AAXX  11134 07168 31001 81802 11024 21028 30238 40391 58013 74844 886// 333 88701;MET052LFQB 111300Z 18001KT 0100 FZFG OVC001 M02/M03 Q1038;EQDQ01  00002PRCP06Q02    003PRSWM1
0291071680999992000011114004+48330+004020SY-MT+0118LFQB V0202601N001010003019N0001001N1-00241-00271103901ADDAA106000091AY141999AY241999GA1081+000309999GF108991081061000251999999MA1103791102371MD1610131+9999MW1481REMSYN082AAXX  11144 07168 31001 82602 11024 21027 30237 40390 56013 74844 886// 333 88701;MET052LFQB 111400Z 27002KT 0100 FZFG OVC001 M02/M03 Q1038;EQDQ01  00002PRCP06Q02    003PRSWM1
0291071680999992000011115004+48330+004020SY-MT+0118LFQB V0203301N001010003019N0001001N1-00251-00291103921ADDAA106000091AY141031AY241031GA1081+000309999GF108991081061000251999999MA1103791102391MD1510051+9999MW1481REMSYN082AAXX  11154 07168 31001 83302 11025 21029 30239 40392 55005 74844 886// 333 88701;MET052LFQB 111500Z 33002KT 0100 FZFG OVC001 M02/M03 Q1038;EQDQ01  00002PRCP06Q02    003PRSWM1
0291071680999992000011116004+48330+004020SY-MT+0118LFQB V0209999C000010003019N0001001N1-00271-00311103901ADDAA106000091AY141999AY241999GA1081+000309999GF108991081061000251999999MA1103791102371MD1810011+9999MW1481REMSYN082AAXX  11164 07168 31001 80000 11027 21031 30237 40390 58001 74844 886// 333 88701;MET052LFQB 111600Z 00000KT 0100 FZFG OVC001 M03/M03 Q1038;EQDQ01  00002PRCP06Q02    003PRSWM1
0291071680999992000011117004+48330+004020SY-MT+0118LFQB V0203201N001010003019N0001001N1-00251-00291103901ADDAA106000091AY141999AY241999GA1081+000309999GF108991081061000251999999MA1103791102371MD1010001+9999MW1481REMSYN082AAXX  11174 07168 31001 83202 11025 21029 30237 40390 50000 74844 886// 333 88701;MET052LFQB 111700Z 32003KT 0100 FZFG OVC001 M02/M03 Q1038;EQDQ01  00002PRCP06Q02    003PRSWM1
0173071680999992000011118004+48330+004020FM-12+0118LFQB V0209999C000019999999N9999999N1-00271-00301103911ADDAA106000091KA1999M-00231KA2999N-00361MA1999999102381MD1510011+9999REMSYN076AAXX  11184 07168 36/// /0000 11027 21030 30238 40391 55001 333 11023 21036;EQDQ01  00002PRCP06
0131071680999992000011119004+48330+004020FM-12+0118LFQB V0209999C000019999999N9999999N1-00261-00301103891ADDAA106000091MA1999999102361MD1810011+9999REMSYN060AAXX  11194 07168 36/// /0000 11026 21030 30236 40389 58001;EQDQ01  00002PRCP06
0131071680999992000011120004+48330+004020FM-12+0118LFQB V0209999C000019999999N9999999N1-00271-00311103871ADDAA106000091MA1999999102341MD1810031+9999REMSYN060AAXX  11204 07168 36/// /0000 11027 21031 30234 40387 58003;EQDQ01  00002PRCP06
0131071680999992000011121004+48330+004020FM-12+0118LFQB V0203301N001019999999N9999999N1-00251-00291103851ADDAA106000091MA1999999102321MD1710061+9999REMSYN060AAXX  11214 07168 36/// /3302 11025 21029 30232 40385 57006;EQDQ01  00002PRCP06
0131071680999992000011122004+48330+004020FM-12+0118LFQB V0203301N001019999999N9999999N1-00261-00301103791ADDAA106000091MA1999999102261MD1810101+9999REMSYN060AAXX  11224 07168 36/// /3302 11026 21030 30226 40379 58010;EQDQ01  00002PRCP06
0131071680999992000011123004+48330+004020FM-12+0118LFQB V0203401N001019999999N9999999N1-00241-00281103751ADDAA106000091MA1999999102221MD1810121+9999REMSYN060AAXX  11234 07168 36/// /3402 11024 21028 30222 40375 58012;EQDQ01  00002PRCP06
0247071680999992000011200004+48330+004020SY-MT+0118LFQB V0203301N001010075019N0080001N1-00231-00261103711ADDAA106000091GA1081+007509999GF108991999999999999999999MA1102001102181MD1610141+9999MW1001REMSYN060AAXX  12004 07168 36/// /3302 11023 21026 30218 40371 56014;MET046LFQB 130600Z 22007KT 8000 OVC025 01/M02 Q1020;EQDQ01+000000PRSWM2Q02  00002PRCP06
0131071680999992000011201004+48330+004020FM-12+0118LFQB V0203401N001019999999N9999999N1-00221-00261103651ADDAA106000091MA1999999102131MD1810131+9999REMSYN060AAXX  12014 07168 36/// /3402 11022 21026 30213 40365 58013;EQDQ01  00002PRCP06
0131071680999992000011202004+48330+004020FM-12+0118LFQB V0203301N001019999999N9999999N1-00221-00261103631ADDAA106000091MA1999999102111MD1610111+9999REMSYN060AAXX  12024 07168 36/// /3302 11022 21026 30211 40363 56011;EQDQ01  00002PRCP06
0131071680999992000011203004+48330+004020FM-12+0118LFQB V0203301N001019999999N9999999N1-00191-00221103561ADDAA106000091MA1999999102041MD1810141+9999REMSYN060AAXX  12034 07168 36/// /3302 11019 21022 30204 40356 58014;EQDQ01  00002PRCP06
0131071680999992000011204004+48330+004020FM-12+0118LFQB V0203301N001019999999N9999999N1-00181-00211103511ADDAA106000091MA1999999101991MD1810141+9999REMSYN060AAXX  12044 07168 36/// /3302 11018 21021 30199 40351 58014;EQDQ01  00002PRCP06
0293071680999992000011205004+48330+004020SY-MT+0118LFQB V0209999C000010069019N0050001N1-00171-00211103461ADDAA106000091GA1021+000609999GA2071+006909999GF108991071051000751999999MA1103292101941MD1610171+9999MW1001REMSYN082AAXX  12054 07168 32150 80000 11017 21021 30194 40346 56017 875// 333 84702 87623;MET054LFQB 120500Z 00000KT 5000 SCT002 BKN023 M02/M02 Q1033;EQDQ01+000000PRSWM2Q02  00002PRCP06
0386071680999992000011206004+48330+004020SY-MT+0118LFQB V0209999C000010069019N0050001N1-00141-00181103431ADDAA106000091AA224000091GA1021+000609999GA2071+006909999GF108991071051000751999999GJ100009IA1149IA2999-00209KA1999M-00141KA2999N-00271MA1103291101911MD1610131+9999MW1001REMSYN112AAXX  12064 07168 32150 80000 11014 21018 30191 40343 56013 875// 333 11014 21027 34102 55000 70000 83702 87623;MET054LFQB 120600Z 00000KT 5000 SCT002 BKN023 M01/M02 Q1033;EQDQ01+000000PRSWM2Q02  00002PRCP06
0264071680999992000011207004+48330+004020SY-MT+0118LFQB V0209999C000010069019N0050001N1-00131-00161103441ADDAA106000091GA1071+006909999GF108991071051008001999999MA1103291101921MD1510071+9999MW1001REMSYN076AAXX  12074 07168 32550 80000 11013 21016 30192 40344 55007 875// 333 87623;MET047LFQB 120700Z 00000KT 5000 BKN023 M01/M02 Q1033;EQDQ01+000000PRSWM2Q02  00002PRCP06
0318071680999992000011208004+48330+004020SY-MT+0118LFQB V0209999C000010078019N0040001N1-00111-00141103421ADDAA106000091AY121999AY221999GA1021+001209999GA2071+007809999GF108991071051001501999999MA1103291101911MD1610031+9999MW1101REMSYN088AAXX  12084 07168 31240 80000 11011 21014 30191 40342 56003 71022 875// 333 84704 87626;MET057LFQB 120800Z 00000KT 4000 BR SCT004 BKN026 M01/M01 Q1033;EQDQ01  00002PRCP06Q02    003PRSWM1
0318071680999992000011209004+48330+004020SY-MT+0118LFQB V0209999C000010078019N0020001N1-00071-00101103411ADDAA106000091AY121031AY221031GA1021+001209999GA2081+007809999GF108991081051001501999999MA1103291101901MD1810011+9999MW1101REMSYN088AAXX  12094 07168 31220 80000 11007 21010 30190 40341 58001 71022 885// 333 84704 88626;MET057LFQB 120900Z 00000KT 2000 BR SCT004 OVC026 M01/M01 Q1033;EQDQ01  00002PRCP06Q02    003PRSWM1
0318071680999992000011210004+48330+004020SY-MT+0118LFQB V0202001N001010090019N0030001N1-00041-00071103361ADDAA106000091AY121999AY221999GA1021+001209999GA2081+009009999GF108991081051001501999999MA1103181101851MD1810071+9999MW1101REMSYN088AAXX  12104 07168 31230 82002 11004 21007 30185 40336 58007 71022 885// 333 83704 88630;MET057LFQB 121000Z 20002KT 3000 BR SCT004 OVC030 M00/M01 Q1032;EQDQ01  00002PRCP06Q02    003PRSWM1
0292071680999992000011211004+48330+004020SY-MT+0118LFQB V0209999C000010090019N0050001N1+00021-00011103281ADDAA106000091GA1021+001209999GA2081+009009999GF108991081051001501999999MA1103121101771MD1810141+9999MW1001REMSYN082AAXX  12114 07168 32250 80000 10002 21001 30177 40328 58014 885// 333 82704 88630;MET053LFQB 121100Z 00000KT 5000 FEW004 OVC030 00/M00 Q1031;EQDQ01+000000PRSWM2Q02  00002PRCP06
0291071680999992000011212004+48330+004020SY-MT+0118LFQB V0200401N001010090019N0050001N1+00071+00041103161ADDAA106000091GA1021+001209999GA2081+009009999GF108991081051001501999999MA1103011101661MD1810241+9999MW1001REMSYN082AAXX  12124 07168 32250 80402 10007 20004 30166 40316 58024 885// 333 82704 88630;MET052LFQB 121200Z 04002KT 5000 FEW004 OVC030 01/00 Q1030;EQDQ01+000000PRSWM2Q02  00002PRCP06
0291071680999992000011213004+48330+004020SY-MT+0118LFQB V0200401N001010093019N0050001N1+00121+00081103081ADDAA106000091GA1021+001809999GA2081+009309999GF108991081051001501999999MA1103011101581MD1710271+9999MW1001REMSYN082AAXX  12134 07168 32250 80402 10012 20008 30158 40308 57027 885// 333 82706 88631;MET052LFQB 121300Z 04002KT 5000 FEW006 OVC031 01/01 Q1030;EQDQ01+000000PRSWM2Q02  00002PRCP06
0316071680999992000011214004+48330+004020SY-MT+0118LFQB V0200301N001010093019N0030001N1+00151+00051103011ADDAA106000091AY121999AY221999GA1021+002109999GA2081+009309999GF108991081051002501999999MA1102911101521MD1610251+9999MW1101REMSYN088AAXX  12144 07168 31330 80302 10015 20005 30152 40301 56025 71022 885// 333 83707 88631;MET055LFQB 121400Z 03002KT 3000 BR SCT007 OVC031 02/01 Q1029;EQDQ01  00002PRCP06Q02    003PRSWM1
0316071680999992000011215004+48330+004020SY-MT+0118LFQB V0200701N001010099019N0035001N1+00131+00011102951ADDAA106000091AY121031AY221031GA1021+001809999GA2081+009909999GF108991081051001501999999MA1102811101461MD1610201+9999MW1101REMSYN088AAXX  12154 07168 31235 80702 10013 20001 30146 40295 56020 71022 885// 333 82706 88633;MET055LFQB 121500Z 07002KT 3500 BR FEW006 OVC033 01/00 Q1028;EQDQ01  00002PRCP06Q02    003PRSWM1
0316071680999992000011216004+48330+004020SY-MT+0118LFQB V0200901N001010099019N0035001N1+00131+00031102921ADDAA106000091AY121999AY221999GA1021+001809999GA2081+009909999GF108991081051001501999999MA1102811101431MD1610151+9999MW1101REMSYN088AAXX  12164 07168 31235 80902 10013 20003 30143 40292 56015 71022 885// 333 82706 88633;MET055LFQB 121600Z 09003KT 3500 BR FEW006 OVC033 01/00 Q1028;EQDQ01  00002PRCP06Q02    003PRSWM1
0316071680999992000011217004+48330+004020SY-MT+0118LFQB V0200801N001010099019N0035001N1+00111+00011102881ADDAA106000091AY121999AY221999GA1021+001809999GA2081+009909999GF108991081051001501999999MA1102811101391MD1610131+9999MW1101REMSYN088AAXX  12174 07168 31235 80802 10011 20001 30139 40288 56013 71022 885// 333 82706 88633;MET055LFQB 121700Z 08002KT 3500 BR FEW006 OVC033 01/00 Q1028;EQDQ01  00002PRCP06Q02    003PRSWM1
0173071680999992000011218004+48330+004020FM-12+0118LFQB V0201901N001019999999N9999999N1+00101+00011102831ADDAA106000091KA1999M+00151KA2999N-00151MA1999999101341MD1810121+9999REMSYN076AAXX  12184 07168 36/// /1902 10010 20001 30134 40283 58012 333 10015 21015;EQDQ01  00002PRCP06
0131071680999992000011219004+48330+004020FM-12+0118LFQB V0201601N001019999999N9999999N1+00081+00021102751ADDAA106000091MA1999999101261MD1810171+9999REMSYN060AAXX  12194 07168 36/// /1602 10008 20002 30126 40275 58017;EQDQ01  00002PRCP06
0131071680999992000011220004+48330+004020FM-12+0118LFQB V0209999C000019999999N9999999N1+00081+00041102671ADDAA106000091MA1999999101181MD1810211+9999REMSYN060AAXX  12204 07168 36/// /0000 10008 20004 30118 40267 58021;EQDQ01  00002PRCP06
0131071680999992000011221004+48330+004020FM-12+0118LFQB V0201901N002119999999N9999999N1+00071+00031102631ADDAA106000091MA1999999101141MD1610201+9999REMSYN060AAXX  12214 07168 36/// /1904 10007 20003 30114 40263 56020;EQDQ01  00002PRCP06
0131071680999992000011222004+48330+004020FM-12+0118LFQB V0201901N002119999999N9999999N1+00071+00031102571ADDAA106000091MA1999999101081MD1610181+9999REMSYN060AAXX  12224 07168 36/// /1904 10007 20003 30108 40257 56018;EQDQ01  00002PRCP06
0131071680999992000011223004+48330+004020FM-12+0118LFQB V0201901N002119999999N9999999N1+00081+00041102531ADDAA106000091MA1999999101041MD1710141+9999REMSYN060AAXX  12234 07168 36/// /1904 10008 20004 30104 40253 57014;EQDQ01  00002PRCP06
0131071680999992000011300004+48330+004020FM-12+0118LFQB V0201901N002119999999N9999999N1+00131+00071102451ADDAA106000091MA1999999100961MD1810181+9999REMSYN060AAXX  13004 07168 36/// /1904 10013 20007 30096 40245 58018;EQDQ01  00002PRCP06
0131071680999992000011301004+48330+004020FM-12+0118LFQB V0201501N002119999999N9999999N1+00181-00011102361ADDAA106000091MA1999999100881MD1810201+9999REMSYN060AAXX  13014 07168 36/// /1504 10018 21001 30088 40236 58020;EQDQ01  00002PRCP06
0131071680999992000011302004+48330+004020FM-12+0118LFQB V0202101N001019999999N9999999N1+00101-00011102331ADDAA106000091MA1999999100841MD1610201+9999REMSYN060AAXX  13024 07168 36/// /2102 10010 21001 30084 40233 56020;EQDQ01  00002PRCP06
0131071680999992000011303004+48330+004020FM-12+0118LFQB V0201901N002119999999N9999999N1+00091-00021102251ADDAA106000091MA1999999100761MD1710201+9999REMSYN060AAXX  13034 07168 36/// /1904 10009 21002 30076 40225 57020;EQDQ01  00002PRCP06
0131071680999992000011304004+48330+004020FM-12+0118LFQB V0202101N002119999999N9999999N1+00081-00051102211ADDAA106000091MA1999999100721MD1710161+9999REMSYN060AAXX  13044 07168 36/// /2104 10008 21005 30072 40221 57016;EQDQ01  00002PRCP06
0263071680999992000011305004+48330+004020SY-MT+0118LFQB V0202301N004110084019N0060001N1+00121-00201102171ADDAA106000091GA1081+008409999GF108991081051008001999999MA1102101100691MD1610151+9999MW1001REMSYN076AAXX  13054 07168 32556 82308 10012 21020 30069 40217 56015 885// 333 88628;MET046LFQB 130500Z 23007KT 6000 OVC028 01/M02 Q1021;EQDQ01+000000PRSWM2Q02  00002PRCP06
0282071680999992000011306004+48330+004020FM-12+0118LFQB V0202201N003110075019N0080001N1+00091-00201102141ADDAA106000091AA224000091GA1081+007509059GF108991081051008001999999GJ100009IA1099IA2999+00009KA1999M+00181KA2999N+00061MA1999999100651MD1710111+9999REMSYN106AAXX  13064 07168 32558 82206 10009 21020 30065 40214 57011 885// 333 10018 20006 31000 55000 70000 88625;EQDQ01  00002PRCP06
0263071680999992000011307004+48330+004020SY-MT+0118LFQB V0202101N005110069019N0080001N1+00061-00281102131ADDAA106000091GA1081+006909999GF108991081051008001999999MA1102001100641MD1610081+9999MW1001REMSYN076AAXX  13074 07168 32558 82110 10006 21028 30064 40213 56008 885// 333 88623;MET046LFQB 130700Z 21010KT 8000 OVC023 01/M03 Q1020;EQDQ01+000000PRSWM2Q02  00002PRCP06
0263071680999992000011308004+48330+004020SY-MT+0118LFQB V0202101N005110066019N0150001N1+00051-00271102121ADDAA106000091GA1071+006609999GF107991071051008001999999MA1102001100631MD1610061+9999MW1001REMSYN076AAXX  13084 07168 32565 72110 10005 21027 30063 40212 56006 875// 333 87622;MET046LFQB 130800Z 21010KT 9999 BKN022 01/M03 Q1020;EQDQ01+000000PRSWM2Q02  00002PRCP06
0263071680999992000011309004+48330+004020SY-MT+0118LFQB V0202101N004110063019N0150001N1+00081-00211102131ADDAA106000091GA1071+006309999GF107991071051008001999999MA1102001100641MD1510011+9999MW1001REMSYN076AAXX  13094 07168 32565 72108 10008 21021 30064 40213 55001 875// 333 87621;MET046LFQB 130900Z 21009KT 9999 BKN021 01/M02 Q1020;EQDQ01+000000PRSWM2Q02  00002PRCP06
0263071680999992000011310004+48330+004020SY-MT+0118LFQB V0201901N005110054019N0150001N1+00071-00251102111ADDAA106000091GA1071+005409999GF107991071051004501999999MA1102001100621MD1810021+9999MW1001REMSYN076AAXX  13104 07168 32465 71910 10007 21025 30062 40211 58002 875// 333 87618;MET046LFQB 131000Z 19009KT 9999 BKN018 01/M02 Q1020;EQDQ01+000000PRSWM2Q02  00002PRCP06
0247071680999992000011311004+48330+004020SY-MT+0118LFQB V0202101N004112200019N0070001N1+00151-00261102061ADDAA106000091GA1021+005409999GF102991999999999999999999MA1101901100581MD1810051+9999MW1001REMSYN060AAXX  13114 07168 36/// /2108 10015 21026 30058 40206 58005;MET046LFQB 131100Z 20007KT 7000 FEW018 02/M02 Q1019;EQDQ01+000000PRSWM2Q02  00002PRCP06
0292071680999992000011312004+48330+004020SY-MT+0118LFQB V0201901N00511007501CN0080001N1+00201-00141101991ADDAA106000091GA1021+007509999GA2021+012009999GF106991061051008001001001MA1101901100511MD1810131+9999MW1001REMSYN082AAXX  13124 07168 32558 61910 10020 21014 30051 40199 58013 86500 333 84625 83640;MET053LFQB 131200Z 19010KT 8000 SCT025 SCT040 02/M02 Q1019;EQDQ01+000000PRSWM2Q02  00002PRCP06
0263071680999992000011313004+48330+004020SY-MT+0118LFQB V0201801N005110054019N0070001N1+00191-00171101911ADDAA106000091GA1071+005409999GF108991071051004501999999MA1101801100431MD1810191+9999MW1001REMSYN076AAXX  13134 07168 32457 81810 10019 21017 30043 40191 58019 875// 333 87618;MET046LFQB 131300Z 18010KT 7000 BKN018 02/M02 Q1018;EQDQ01+000000PRSWM2Q02  00002PRCP06
0291071680999992000011314004+48330+004020SY-MT+0118LFQB V0201701N005110078019N0080001N1+00171-00101101881ADDAA101999929AY171999AY221999GA1071+007809999GF108991081051008001999999MA1101801100401MD1610181+9999MW1221REMSYN088AAXX  13144 07168 21558 81710 10017 21010 30040 40188 56018 72272 885// 333 69905 87626;MET046LFQB 131400Z 17010KT 8000 BKN026 02/M01 Q1018;EQDQ01+000000PRSWM2Q02    003PRSWM1
0291071680999992000011315004+48330+004020SY-MT+0118LFQB V0201701N004110033019N0050001N1+00211-00131101861ADDAA103999929AY171031AY221031GA1071+003309999GF108991071051004501999999MA1101801100391MD1610121+9999MW1031REMSYN088AAXX  13154 07168 21450 81708 10021 21013 30039 40186 56012 70372 875// 333 69907 87611;MET046LFQB 131500Z 17007KT 5000 BKN011 02/M01 Q1018;EQDQ01+000000PRSWM2Q02    003PRSWM1
0253071680999992000011316004+48330+004020SY-MT+0118LFQB V0201501N003110075019N0060001N1+00221-00071101841ADDAA101000291GA1071+007509999GF108991071051008001999999MA1101691100371MD1610061+9999MW1001REMSYN082AAXX  13164 07168 22556 81506 10022 21007 30037 40184 56006 875// 333 69925 87625;MET046LFQB 131600Z 15005KT 6000 BKN025 02/M01 Q1017;EQDQ01+000000PRSWM2
0247071680999992000011317004+48330+004020SY-MT+0118LFQB V0201601N004110063019N0070001N1+00251-00061101821ADDAA106000021GA1071+006309999GF108991071051008001999999MA1101691100351MD1810051+9999MW1001REMSYN076AAXX  13174 07168 32557 81608 10025 21006 30035 40182 58005 875// 333 87621;MET046LFQB 131700Z 16008KT 7000 BKN021 03/M01 Q1017;EQDQ01+000000PRSWM2
0166071680999992000011318004+48330+004020FM-12+0118LFQB V0201301N004119999999N9999999N1+00261+00021101811ADDAA103000191KA1999M+00261KA2999N+00031MA1999999100341MD1610051+9999REMSYN088AAXX  13184 07168 /6/// /1308 10026 20002 30034 40181 56005 69922 333 10026 20003 69927;
0112071680999992000011319004+48330+004020FM-12+0118LFQB V0201101N002119999999N9999999N1+00291+00001101811ADDAA106000021MA1999999100341MD1610031+9999REMSYN060AAXX  13194 07168 36/// /1104 10029 20000 30034 40181 56003;
0116071680999992000011320004+48330+004020FM-12+011899999V0201801N004119999999N9999999N1+00271+00011101801ADDAA199000021MA1999999100331MD1710021+9999REMSYN064    AAXX  13204 07168 36/// /1808 10027 20001 30033 40180 57002;
0116071680999992000011321004+48330+004020FM-12+011899999V0201701N004119999999N9999999N1+00361+00001101801ADDAA199000021MA1999999100331MD1710011+9999REMSYN064    AAXX  13214 07168 36/// /1708 10036 20000 30033 40180 57001;
0116071680999992000011322004+48330+004020FM-12+011899999V0201501N003119999999N9999999N1+00341+00051101791ADDAA199000021MA1999999100321MD1710021+9999REMSYN064    AAXX  13224 07168 36/// /1506 10034 20005 30032 40179 57002;
0126071680999992000011323004+48330+004020FM-12+011899999V0201601N003119999999N9999999N1+00291+00111101801ADDAA101000191MA1999999100331MD1510001+9999REMSYN074    AAXX  13234 07168 26/// /1606 10029 20011 30033 40180 55000 333 69925;
0132071680999992000011400004+48330+004020FM-12+011899999V0201501N003119999999N9999999N1+00321+00111101801ADDAA103000191MA1999999100331MD1510001+9999REMSYN080    AAXX  14004 07168 /6/// /1506 10032 20011 30033 40180 55000 69921 333 69927;
0116071680999992000011401004+48330+004020FM-12+011899999V0201401N003119999999N9999999N1+00341+00101101801ADDAA199000021MA1999999100331MD1110011+9999REMSYN064    AAXX  14014 07168 36/// /1406 10034 20010 30033 40180 51001;
0116071680999992000011402004+48330+004020FM-12+011899999V0201001N003119999999N9999999N1+00311+00101101801ADDAA199000021MA1999999100331MD1410001+9999REMSYN064    AAXX  14024 07168 36/// /1006 10031 20010 30033 40180 54000;
0135071680999992000011403004+48330+004020FM-12+011899999V0201501N002119999999N9999999N1+00261+00071101801ADDAA199000091MA1999999100331MD1410001+9999REMSYN064    AAXX  14034 07168 36/// /1504 10026 20007 30033 40180 54000;EQDQ01  00002PRCP99
