0139072553999992000010319004+47030+005430FM-15+0196LFGJ V0201801N001012200019N0080001N1+00101+00101999999ADDGA1021+069009999GF102991999999999999999999MA1102711999999MW1001REMMET045LFGJ 031900Z 18002KT 8000 FEW230 01/01 Q1027;EQDQ01+000000PRSWM2
0139072553999992000010320004+47030+005430FM-15+0196LFGJ V0201801N002112200019N0080001N1+00101+00101999999ADDGA1021+069009999GF102991999999999999999999MA1102811999999MW1001REMMET045LFGJ 032000Z 18004KT 8000 FEW230 01/01 Q1028;EQDQ01+000000PRSWM2
0139072553999992000010321004+47030+005430FM-15+0196LFGJ V0201601N003112200019N0060001N1+00101+00001999999ADDGA1021+069009999GF102991999999999999999999MA1102811999999MW1001REMMET045LFGJ 032100Z 16006KT 6000 FEW230 01/00 Q1028;EQDQ01+000000PRSWM2
0162072553999992000010322004+47030+005430FM-15+0196LFGJ V0201801N001012200019N0040001N1+00101+00101999999ADDGA1021+009009999GA2021+069009999GF104991999999999999999999MA1102811999999MW1001REMMET052LFGJ 032200Z 18002KT 4000 FEW030 SCT230 01/01 Q1028;EQDQ01+000000PRSWM2
0139072553999992000010323004+47030+005430FM-15+0196LFGJ V0201501N002110096019N0040001N1+00101+00101999999ADDGA1071+009609999GF107991999999999999999999MA1102711999999MW1001REMMET045LFGJ 032300Z 15004KT 4000 BKN032 01/01 Q1027;EQDQ01+000000PRSWM2
0162072553999992000010400004+47030+005430FM-15+0196LFGJ V0202101N001012200019N0040001N1+00101+00101999999ADDGA1021+009609999GA2021+069009999GF104991999999999999999999MA1102711999999MW1001REMMET052LFGJ 040000Z 21002KT 4000 FEW032 SCT230 01/01 Q1027;EQDQ01+000000PRSWM2
0139072553999992000010401004+47030+005430FM-15+0196LFGJ V0201901N001512200019N0040001N1+00101+00101999999ADDGA1021+010809999GF104991999999999999999999MA1102711999999MW1001REMMET045LFGJ 040100Z 19003KT 4000 SCT036 01/01 Q1027;EQDQ01+000000PRSWM2
0162072553999992000010419004+47030+005430FM-15+0196LFGJ V0201901N005110087019N0090001N1+00701+00501999999ADDGA1021+006009999GA2081+008709999GF108991999999999999999999MA1102401999999MW1001REMMET052LFGJ 041900Z 19010KT 9000 FEW020 OVC029 07/05 Q1024;EQDQ01+000000PRSWM2
0139072553999992000010420004+47030+005430FM-15+0196LFGJ V0201901N007210069019N0090001N1+00701+00601999999ADDGA1081+006909999GF108991999999999999999999MA1102401999999MW1001REMMET045LFGJ 042000Z 19014KT 9000 OVC023 07/06 Q1024;EQDQ01+000000PRSWM2
0139072553999992000010421004+47030+005430FM-15+0196LFGJ V0201901N006710069019N0112651N1+00701+00601999999ADDGA1081+006909999GF108991999999999999999999MA1102511999999MW1001REMMET045LFGJ 042100Z 19013KT 9999 OVC023 07/06 Q1025;EQDQ01+000000PRSWM2
0139072553999992000010422004+47030+005430FM-15+0196LFGJ V0201901N005710063019N0112651N1+00701+00601999999ADDGA1081+006309999GF108991999999999999999999MA1102401999999MW1001REMMET045LFGJ 042200Z 19011KT 9999 OVC021 07/06 Q1024;EQDQ01+000000PRSWM2
0162072553999992000010423004+47030+005430FM-15+0196LFGJ V0201901N006210102019N0112651N1+00801+00601999999ADDGA1021+006609999GA2081+010209999GF108991999999999999999999MA1102401999999MW1001REMMET052LFGJ 042300Z 19012KT 9999 SCT022 OVC034 08/06 Q1024;EQDQ01+000000PRSWM2
0162072553999992000010500004+47030+005430FM-15+0196LFGJ V0201901N005110066019N0112651N1+00801+00601999999ADDGA1071+006609999GA2081+009309999GF108991999999999999999999MA1102401999999MW1001REMMET052LFGJ 050000Z 19010KT 9999 BKN022 OVC031 08/06 Q1024;EQDQ01+000000PRSWM2
0139072553999992000010501004+47030+005430FM-15+0196LFGJ V0202101N004110066019N0112651N1+00701+00601999999ADDGA1081+006609999GF108991999999999999999999MA1102401999999MW1001REMMET045LFGJ 050100Z 21008KT 9999 OVC022 07/06 Q1024;EQDQ01+000000PRSWM2
0136072553999992000010519004+47030+005430FM-15+0196LFGJ V0200701N002612200019N0030001N1+00401+00401999999ADDGF100991999999999999999999MA1102101999999MW1001REMMET058LFGJ 051900Z 07005KT 3000 R06/0800VP2000U SKC 04/04 Q1021;EQDQ01+000000PRSWM2
0092072553999992000010521004+47030+005430FM-15+0196LFGJ V0200801N002112200019N0150001N1+99999+99999999999ADDMW1001REMMET055LFGJ 052100Z 08004KT 150 R06/0300 FG VV/// 02/01 Q1021;EQDQ01+000000PRSWM2
0092072553999992000010522004+47030+005430FM-15+0196LFGJ V0200701N002112200019N0150001N1+99999+99999999999ADDMW1001REMMET055LFGJ 052200Z 07004KT 150 R06/0370 FG VV/// 01/01 Q1020;EQDQ01+000000PRSWM2
0095072553999992000010601004+47030+005430FM-15+0196LFGJ V0200201N001012200019N0150001N1+99999+99999999999ADDMW1001REMMET058LFGJ 060100Z 02002KT 150 R06/1200 FG BKN001 M01/M01 Q1020;EQDQ01+000000PRSWM2
0160072553999992000010620004+47030+005430FM-15+0196LFGJ V0201601N002612200019N0060001N1+00301+00301999999ADDGA1021+069009999GF102991999999999999999999MA1102401999999MW1121REMMET050LFGJ 062000Z 16005KT 6000 MIFG FEW230 03/03 Q1024;EQDQ01+000003PRSWM1Q02    003PRSWM1
0162072553999992000010621004+47030+005430FM-15+0196LFGJ V0201401N001510690019N0050001N1+00301+00301999999ADDGA1021+030009999GA2071+069009999GF107991999999999999999999MA1102401999999MW1001REMMET052LFGJ 062100Z 14003KT 5000 FEW100 BKN230 03/03 Q1024;EQDQ01+000000PRSWM2
0185072553999992000010622004+47030+005430FM-15+0196LFGJ V0201501N001510690019N0060001N1+00301+00301999999ADDGA1021+009909999GA2021+030009999GA3071+069009999GF107991999999999999999999MA1102511999999MW1001REMMET059LFGJ 062200Z 15003KT 6000 FEW033 SCT100 BKN230 03/03 Q1025;EQDQ01+000000PRSWM2
0162072553999992000010623004+47030+005430FM-15+0196LFGJ V0200901N001010690019N0060001N1+00301+00301999999ADDGA1021+030009999GA2071+069009999GF107991999999999999999999MA1102401999999MW1001REMMET052LFGJ 062300Z 09002KT 6000 SCT100 BKN230 03/03 Q1024;EQDQ01+000000PRSWM2
0162072553999992000010700004+47030+005430FM-15+0196LFGJ V0203101N001010690019N0060001N1+00301+00301999999ADDGA1021+030009999GA2071+069009999GF107991999999999999999999MA1102511999999MW1001REMMET052LFGJ 070000Z 31002KT 6000 FEW100 BKN230 03/03 Q1025;EQDQ01+000000PRSWM2
0139072553999992000010701004+47030+005430FM-15+0196LFGJ V0201501N001010147019N0060001N1+00301+00301999999ADDGA1071+014709999GF107991999999999999999999MA1102511999999MW1001REMMET045LFGJ 070100Z 15002KT 6000 BKN049 03/03 Q1025;EQDQ01+000000PRSWM2
0204072553999992000010719004+47030+005430FM-15+0196LFGJ V0209999C000010096019N0020001N1+00501+00501999999ADDGA1021+002409999GA2021+004809999GA3081+009609999GF108991999999999999999999MA1102511999999MW1101REMMET062LFGJ 071900Z 00000KT 2000 BR FEW008 SCT016 OVC032 05/05 Q1025;EQDQ01+000003PRSWM1Q02    003PRSWM1
0215072553999992000010720004+47030+005430FM-15+0196LFGJ V0209999C000010048019N0015001N1+00501+00501999999ADDGA1021+002409999GA2071+004809999GA3081+009309999GF108991999999999999999999MA1102511999999MW1101MW2121REMMET067LFGJ 072000Z 00000KT 1500 MIFG BR FEW008 BKN016 OVC031 05/05 Q1025;EQDQ01+000003PRSWM1Q02    003PRSWM1
0184072553999992000010721004+47030+005430FM-15+0196LFGJ V0209999C000010012019N0015001N1+00501+00501999999ADDGA1071+001209999GF107991999999999999999999MA1102511999999MW1101MW2121REMMET068LFGJ 072100Z 00000KT 1500 R06/1200V2000D MIFG BR BKN004 05/05 Q1025;EQDQ01+000003PRSWM1Q02    003PRSWM1
0190072553999992000010722004+47030+005430FM-15+0196LFGJ V0209999C000010012019N0010001N1+00501+00501999999ADDED199U07009GA1081+001209999GF108991999999999999999999MA1102401999999MW1101MW2121REMMET063LFGJ 072200Z 00000KT 1000 R06/0700N MIFG BR OVC004 05/05 Q1024;EQDQ01+000003PRSWM1Q02    003PRSWM1
0178072553999992000010723004+47030+005430FM-15+0196LFGJ V0209999C000010024019N0015001N1+00501+00501999999ADDED199U12009GA1081+002409999GF108991999999999999999999MA1102401999999MW1101REMMET057LFGJ 072300Z 00000KT 1500 R06/1200 BR OVC008 05/05 Q1024;EQDQ01+000003PRSWM1Q02    003PRSWM1
0158072553999992000010800004+47030+005430FM-15+0196LFGJ V0202301N002110024019N0040001N1+00501+00501999999ADDGA1081+002409999GF108991999999999999999999MA1102401999999MW1101REMMET048LFGJ 080000Z 23004KT 4000 BR OVC008 05/05 Q1024;EQDQ01+000003PRSWM1Q02    003PRSWM1
0179072553999992000010801004+47030+005430FM-15+0196LFGJ V0202301N001510030019N0008001N1+00501+00501999999ADDED199U20009GA1081+003009999GF108991999999999999999999MA1102401999999MW1441REMMET058LFGJ 080100Z 23003KT 0800 R06/P2000 FG OVC010 05/05 Q1024;EQDQ01+000003PRSWM1Q02    003PRSWM1
0162072553999992000011019004+47030+005430FM-15+0196LFGJ V0200101N004110108019N0112651N1+00301+00201999999ADDGA1021+006909999GA2081+010809999GF108991999999999999999999MA1103391999999MW1001REMMET052LFGJ 101900Z 01008KT 9999 SCT023 OVC036 03/02 Q1034;EQDQ01+000000PRSWM2
0162072553999992000011020004+47030+005430FM-15+0196LFGJ V0200201N002110108019N0112651N1+00301+00201999999ADDGA1021+006009999GA2081+010809999GF108991999999999999999999MA1103391999999MW1001REMMET052LFGJ 102000Z 02004KT 9999 SCT020 OVC036 03/02 Q1034;EQDQ01+000000PRSWM2
0139072553999992000011021004+47030+005430FM-15+0196LFGJ V0200101N003110057019N0112651N1+00301+00101999999ADDGA1081+005709999GF108991999999999999999999MA1103491999999MW1001REMMET045LFGJ 102100Z 01006KT 9999 OVC019 03/01 Q1035;EQDQ01+000000PRSWM2
0139072553999992000011022004+47030+005430FM-15+0196LFGJ V0200301N002110036019N0112651N1+00301+00201999999ADDGA1071+003609999GF107991999999999999999999MA1103491999999MW1001REMMET045LFGJ 102200Z 03004KT 9999 BKN012 03/02 Q1035;EQDQ01+000000PRSWM2
0139072553999992000011023004+47030+005430FM-15+0196LFGJ V0200101N003110039019N0112651N1+00301+00101999999ADDGA1071+003909999GF107991999999999999999999MA1103391999999MW1001REMMET045LFGJ 102300Z 01006KT 9999 BKN013 03/01 Q1034;EQDQ01+000000PRSWM2
0139072553999992000011100004+47030+005430FM-15+0196LFGJ V0203601N003112200019N0112651N1+00201+00101999999ADDGA1021+003909999GF104991999999999999999999MA1103391999999MW1001REMMET045LFGJ 110000Z 36006KT 9999 SCT013 02/01 Q1034;EQDQ01+000000PRSWM2
0139072553999992000011101004+47030+005430FM-15+0196LFGJ V0203601N003112200019N0080001N1+00201+00101999999ADDGA1021+003609999GF104991999999999999999999MA1103491999999MW1001REMMET045LFGJ 110100Z 36006KT 8000 SCT012 02/01 Q1035;EQDQ01+000000PRSWM2
0139072553999992000011119004+47030+005430FM-15+0196LFGJ V0200101N003110054019N0112651N1+00401+00201999999ADDGA1081+005409999GF108991999999999999999999MA1103491999999MW1001REMMET045LFGJ 111900Z 01006KT 9999 OVC018 04/02 Q1035;EQDQ01+000000PRSWM2
0162072553999992000011120004+47030+005430FM-15+0196LFGJ V0200101N004110075019N0090001N1+00401+00201999999ADDGA1021+004509999GA2081+007509999GF108991999999999999999999MA1103491999999MW1001REMMET052LFGJ 112000Z 01008KT 9000 FEW015 OVC025 04/02 Q1035;EQDQ01+000000PRSWM2
0139072553999992000011121004+47030+005430FM-15+0196LFGJ V0200201N004110084019N0112651N1+00301+00201999999ADDGA1081+008409999GF108991999999999999999999MA1103491999999MW1001REMMET045LFGJ 112100Z 02008KT 9999 OVC028 03/02 Q1035;EQDQ01+000000PRSWM2
0139072553999992000011122004+47030+005430FM-15+0196LFGJ V0203601N004110069019N0112651N1+00301+00201999999ADDGA1081+006909999GF108991999999999999999999MA1103391999999MW1001REMMET045LFGJ 112200Z 36008KT 9999 OVC023 03/02 Q1034;EQDQ01+000000PRSWM2
0139072553999992000011123004+47030+005430FM-15+0196LFGJ V0200101N003610075019N0112651N1+00301+00201999999ADDGA1081+007509999GF108991999999999999999999MA1103391999999MW1001REMMET045LFGJ 112300Z 01007KT 9999 OVC025 03/02 Q1034;EQDQ01+000000PRSWM2
0139072553999992000011200004+47030+005430FM-15+0196LFGJ V0200101N003110078019N0112651N1+00301+00201999999ADDGA1081+007809999GF108991999999999999999999MA1103391999999MW1001REMMET045LFGJ 120000Z 01006KT 9999 OVC026 03/02 Q1034;EQDQ01+000000PRSWM2
0139072553999992000011201004+47030+005430FM-15+0196LFGJ V0200101N002110093019N0112651N1+00301+00201999999ADDGA1081+009309999GF108991999999999999999999MA1103291999999MW1001REMMET045LFGJ 120100Z 01004KT 9999 OVC031 03/02 Q1033;EQDQ01+000000PRSWM2
0139072553999992000011219004+47030+005430FM-15+0196LFGJ V0200901N001010081019N0112651N1+00401+00101999999ADDGA1081+008109999GF108991999999999999999999MA1102611999999MW1001REMMET045LFGJ 121900Z 09002KT 9999 OVC027 04/01 Q1026;EQDQ01+000000PRSWM2
0139072553999992000011220004+47030+005430FM-15+0196LFGJ V0209999C000010081019N0112651N1+00401+00101999999ADDGA1081+008109999GF108991999999999999999999MA1102611999999MW1001REMMET045LFGJ 122000Z 00000KT 9999 OVC027 04/01 Q1026;EQDQ01+000000PRSWM2
0139072553999992000011221004+47030+005430FM-15+0196LFGJ V0200801N001510069019N0112651N1+00201+00101999999ADDGA1081+006909999GF108991999999999999999999MA1102611999999MW1001REMMET045LFGJ 122100Z 08003KT 9999 OVC023 02/01 Q1026;EQDQ01+000000PRSWM2
0140072553999992000011222004+47030+005430FM-15+0196LFGJ V0200801N002112200019N0112651N1+00101+00001999999ADDGA1021+006909999GF102991999999999999999999MA1102511999999MW1001REMMET046LFGJ 122200Z 08004KT 9999 FEW023 01/M00 Q1025;EQDQ01+000000PRSWM2
0141072553999992000011223004+47030+005430FM-15+0196LFGJ V0201001N002112200019N0080001N1+00001-00101999999ADDGA1021+006909999GF102991999999999999999999MA1102401999999MW1001REMMET047LFGJ 122300Z 10004KT 8000 FEW023 M00/M01 Q1024;EQDQ01+000000PRSWM2
0122072553999992000011300004+47030+005430FM-15+0196LFGJ V0201001N002112200019N0070001N1-00101-00101999999ADDGF100991999999999999999999MA1102401999999MW1001REMMET044LFGJ 130000Z 10004KT 7000 SKC M01/M01 Q1024;EQDQ01+000000PRSWM2
0122072553999992000011301004+47030+005430FM-15+0196LFGJ V0200901N002112200019N0070001N1-00101-00201999999ADDGF100991999999999999999999MA1102301999999MW1001REMMET044LFGJ 130100Z 09004KT 7000 SKC M01/M02 Q1023;EQDQ01+000000PRSWM2
0139072553999992000011319004+47030+005430FM-15+0196LFGJ V0201001N002112200019N0070001N1+00001+00001999999ADDGA1021+012009999GF104991999999999999999999MA1101801999999MW1001REMMET045LFGJ 131900Z 10004KT 7000 SCT040 00/00 Q1018;EQDQ01+000000PRSWM2
0140072553999992000011320004+47030+005430FM-15+0196LFGJ V0200901N003112200019N0060001N1+00001+00001999999ADDGA1021+012009999GF102991999999999999999999MA1101801999999MW1001REMMET046LFGJ 132000Z 09006KT 6000 FEW040 00/M00 Q1018;EQDQ01+000000PRSWM2
0122072553999992000011321004+47030+005430FM-15+0196LFGJ V0200901N002112200019N0060001N1+00001-00101999999ADDGF100991999999999999999999MA1101801999999MW1001REMMET044LFGJ 132100Z 09004KT 6000 SKC M00/M01 Q1018;EQDQ01+000000PRSWM2
0122072553999992000011322004+47030+005430FM-15+0196LFGJ V0200801N002112200019N0050001N1-00101-00101999999ADDGF100991999999999999999999MA1101801999999MW1001REMMET044LFGJ 132200Z 08004KT 5000 SKC M01/M01 Q1018;EQDQ01+000000PRSWM2
0122072553999992000011323004+47030+005430FM-15+0196LFGJ V0200901N002112200019N0050001N1-00201-00201999999ADDGF100991999999999999999999MA1101801999999MW1001REMMET044LFGJ 132300Z 09004KT 5000 SKC M02/M02 Q1018;EQDQ01+000000PRSWM2
0122072553999992000011400004+47030+005430FM-15+0196LFGJ V0200501N002112200019N0070001N1-00201-00201999999ADDGF100991999999999999999999MA1101801999999MW1001REMMET044LFGJ 140000Z 05004KT 7000 SKC M02/M02 Q1018;EQDQ01+000000PRSWM2
0143072553999992000011401004+47030+005430FM-15+0196LFGJ V0200901N001012200019N0040001N1-00301-00301999999ADDGF100991999999999999999999MA1101801999999MW1101REMMET049LFGJ 140100Z 09002KT 4000SW BR SKC M03/M03 Q1018;EQDQ01+000003PRSWM1Q02    003PRSWM1
0092072553999992000011419004+47030+005430FM-15+0196LFGJ V0200401N00311220001CN0099001N1+00201-00101999999ADDMA1102001999999MW1001REMMET040LFGJ 141900Z 04006KT CAVOK 02/M01 Q1020;EQDQ01+000000PRSWM2
0121072553999992000011420004+47030+005430FM-15+0196LFGJ V0200401N004112200019N0090001N1+00201-00101999999ADDGF100991999999999999999999MA1102001999999MW1001REMMET043LFGJ 142000Z 04008KT 9000 SKC 02/M01 Q1020;EQDQ01+000000PRSWM2
0092072553999992000011421004+47030+005430FM-15+0196LFGJ V0200301N00311220001CN0099001N1+00201-00101999999ADDMA1102001999999MW1001REMMET040LFGJ 142100Z 03006KT CAVOK 02/M01 Q1020;EQDQ01+000000PRSWM2
0092072553999992000011422004+47030+005430FM-15+0196LFGJ V0200701N00211220001CN0099001N1+00101-00201999999ADDMA1102101999999MW1001REMMET040LFGJ 142200Z 07004KT CAVOK 01/M02 Q1021;EQDQ01+000000PRSWM2
0092072553999992000011423004+47030+005430FM-15+0196LFGJ V0200201N00311220001CN0099001N1+00101-00201999999ADDMA1102101999999MW1001REMMET040LFGJ 142300Z 02006KT CAVOK 01/M02 Q1021;EQDQ01+000000PRSWM2
0092072553999992000011500004+47030+005430FM-15+0196LFGJ V0200501N00211220001CN0099001N1+00101-00201999999ADDMA1102201999999MW1001REMMET040LFGJ 150000Z 05004KT CAVOK 01/M02 Q1022;EQDQ01+000000PRSWM2
0092072553999992000011501004+47030+005430FM-15+0196LFGJ V0200201N00511220001CN0099001N1+00101-00101999999ADDMA1102201999999MW1001REMMET040LFGJ 150100Z 02010KT CAVOK 01/M01 Q1022;EQDQ01+000000PRSWM2
0139072553999992000011719004+47030+005430FM-15+0196LFGJ V0201501N002110042019N0040001N1+00101+00101999999ADDGA1081+004209999GF108991999999999999999999MA1103121999999MW1001REMMET045LFGJ 171900Z 15004KT 4000 OVC014 01/01 Q1031;EQDQ01+000000PRSWM2
0181072553999992000011720004+47030+005430FM-15+0196LFGJ V0200301N001010030019N0035001N1+00101+00101999999ADDGA1071+003009999GA2071+004509999GF107991999999999999999999MA1103121999999MW1101REMMET055LFGJ 172000Z 03002KT 3500 BR BKN010 BKN015 01/01 Q1031;EQDQ01+000003PRSWM1Q02    003PRSWM1
0181072553999992000011721004+47030+005430FM-15+0196LFGJ V0202501N001010093019N0030001N1+00101+00101999999ADDGA1021+003009999GA2081+009309999GF108991999999999999999999MA1103121999999MW1101REMMET055LFGJ 172100Z 25002KT 3000 BR FEW010 OVC031 01/01 Q1031;EQDQ01+000003PRSWM1Q02    003PRSWM1
0181072553999992000011722004+47030+005430FM-15+0196LFGJ V0209999C000010096019N0030001N1+00101+00101999999ADDGA1021+004509999GA2081+009609999GF108991999999999999999999MA1103121999999MW1101REMMET055LFGJ 172200Z 00000KT 3000 BR FEW015 OVC032 01/01 Q1031;EQDQ01+000003PRSWM1Q02    003PRSWM1
0158072553999992000011723004+47030+005430FM-15+0196LFGJ V0201101N000510084019N0025001N1+00101+00101999999ADDGA1081+008409999GF108991999999999999999999MA1103011999999MW1101REMMET048LFGJ 172300Z 11001KT 2500 BR OVC028 01/01 Q1030;EQDQ01+000003PRSWM1Q02    003PRSWM1
0158072553999992000011800004+47030+005430FM-15+0196LFGJ V0201301N001010081019N0035001N1+00201+00201999999ADDGA1081+008109999GF108991999999999999999999MA1103011999999MW1101REMMET048LFGJ 180000Z 13002KT 3500 BR OVC027 02/02 Q1030;EQDQ01+000003PRSWM1Q02    003PRSWM1
0158072553999992000011801004+47030+005430FM-15+0196LFGJ V0201501N001010084019N0030001N1+00201+00101999999ADDGA1081+008409999GF108991999999999999999999MA1103011999999MW1101REMMET048LFGJ 180100Z 15002KT 3000 BR OVC028 02/01 Q1030;EQDQ01+000003PRSWM1Q02    003PRSWM1
0185072553999992000011819004+47030+005430FM-15+0196LFGJ V0203501N002110087019N0070001N1+00501+00401999999ADDGA1021+004809999GA2021+006909999GA3071+008709999GF107991999999999999999999MA1102511999999MW1001REMMET059LFGJ 181900Z 35004KT 7000 FEW016 SCT023 BKN029 05/04 Q1025;EQDQ01+000000PRSWM2
0162072553999992000011820004+47030+005430FM-15+0196LFGJ V0203501N004112200019N0112651N1+00401+00401999999ADDGA1021+007809999GA2021+030009999GF104991999999999999999999MA1102511999999MW1001REMMET052LFGJ 182000Z 35008KT 9999 FEW026 SCT100 04/04 Q1025;EQDQ01+000000PRSWM2
0091072553999992000011821004+47030+005430FM-15+0196LFGJ V0203601N00511220001CN0099001N1+00501+00401999999ADDMA1102611999999MW1001REMMET039LFGJ 182100Z 36010KT CAVOK 05/04 Q1026;EQDQ01+000000PRSWM2
0091072553999992000011822004+47030+005430FM-15+0196LFGJ V0200101N00311220001CN0099001N1+00401+00401999999ADDMA1102511999999MW1001REMMET039LFGJ 182200Z 01006KT CAVOK 04/04 Q1025;EQDQ01+000000PRSWM2
0182072553999992000011823004+47030+005430FM-15+0196LFGJ V0200101N005110180019N0112651N1+00501+00401999999ADDGA1021+003609999GA2071+018009999GF107991999999999999999999MA1102511999999MW1611REMMET056LFGJ 182300Z 01010KT 9999 -RA FEW012 BKN066 05/04 Q1025;EQDQ01+000003PRSWM1Q02    003PRSWM1
0185072553999992000011901004+47030+005430FM-15+0196LFGJ V0200101N004110180019N0112651N1+00401+00301999999ADDGA1021+004509999GA2021+014709999GA3071+018009999GF107991999999999999999999MA1102611999999MW1001REMMET059LFGJ 190100Z 01008KT 9999 FEW015 SCT049 BKN066 04/03 Q1026;EQDQ01+000000PRSWM2
0140072553999992000011919004+47030+005430FM-15+0196LFGJ V0200201N005112200019N0112651N1+00201-00101999999ADDGA1021+013809999GF102991999999999999999999MA1103121999999MW1001REMMET046LFGJ 191900Z 02010KT 9999 FEW046 02/M01 Q1031;EQDQ01+000000PRSWM2
0092072553999992000011920004+47030+005430FM-15+0196LFGJ V0200401N00411220001CN0099001N1+00101-00101999999ADDMA1103121999999MW1001REMMET040LFGJ 192000Z 04008KT CAVOK 01/M01 Q1031;EQDQ01+000000PRSWM2
0140072553999992000011921004+47030+005430FM-15+0196LFGJ V0200301N004110129019N0112651N1+00101-00101999999ADDGA1071+012909999GF107991999999999999999999MA1103121999999MW1001REMMET046LFGJ 192100Z 03008KT 9999 BKN043 01/M01 Q1031;EQDQ01+000000PRSWM2
0140072553999992000011922004+47030+005430FM-15+0196LFGJ V0200201N004110120019N0112651N1+00101-00101999999ADDGA1071+012009999GF107991999999999999999999MA1103121999999MW1001REMMET046LFGJ 192200Z 02008KT 9999 BKN040 01/M01 Q1031;EQDQ01+000000PRSWM2
0092072553999992000011923004+47030+005430FM-15+0196LFGJ V0200101N00411220001CN0099001N1+00101-00101999999ADDMA1103121999999MW1001REMMET040LFGJ 192300Z 01008KT CAVOK 01/M01 Q1031;EQDQ01+000000PRSWM2
0092072553999992000012000004+47030+005430FM-15+0196LFGJ V0200101N00411220001CN0099001N1+00101-00101999999ADDMA1103121999999MW1001REMMET040LFGJ 200000Z 01008KT CAVOK 01/M01 Q1031;EQDQ01+000000PRSWM2
0092072553999992000012001004+47030+005430FM-15+0196LFGJ V0203601N00411220001CN0099001N1+00001-00101999999ADDMA1103121999999MW1001REMMET040LFGJ 200100Z 36008KT CAVOK 00/M01 Q1031;EQDQ01+000000PRSWM2
0140072553999992000012019004+47030+005430FM-15+0196LFGJ V0202201N001010105019N0112651N1+00201-00101999999ADDGA1081+010509999GF108991999999999999999999MA1103121999999MW1001REMMET046LFGJ 201900Z 22002KT 9999 OVC035 02/M01 Q1031;EQDQ01+000000PRSWM2
0140072553999992000012020004+47030+005430FM-15+0196LFGJ V0202601N001510102019N0112651N1+00101+00001999999ADDGA1081+010209999GF108991999999999999999999MA1103121999999MW1001REMMET046LFGJ 202000Z 26003KT 9999 OVC034 01/M00 Q1031;EQDQ01+000000PRSWM2
0140072553999992000012021004+47030+005430FM-15+0196LFGJ V0202701N001010108019N0112651N1+00101+00001999999ADDGA1081+010809999GF108991999999999999999999MA1103121999999MW1001REMMET046LFGJ 202100Z 27002KT 9999 OVC036 01/M00 Q1031;EQDQ01+000000PRSWM2
0139072553999992000012022004+47030+005430FM-15+0196LFGJ V0209999C000010099019N0112651N1+00101+00001999999ADDGA1081+009909999GF108991999999999999999999MA1103121999999MW1001REMMET045LFGJ 202200Z 00000KT 9999 OVC033 01/00 Q1031;EQDQ01+000000PRSWM2
0140072553999992000012023004+47030+005430FM-15+0196LFGJ V0202801N001010105019N0112651N1+00101+00001999999ADDGA1081+010509999GF108991999999999999999999MA1103121999999MW1001REMMET046LFGJ 202300Z 28002KT 9999 OVC035 01/M00 Q1031;EQDQ01+000000PRSWM2
0140072553999992000012100004+47030+005430FM-15+0196LFGJ V0202001N001010111019N0112651N1+00101+00001999999ADDGA1081+011109999GF108991999999999999999999MA1103121999999MW1001REMMET046LFGJ 210000Z 20002KT 9999 OVC037 01/M00 Q1031;EQDQ01+000000PRSWM2
0140072553999992000012101004+47030+005430FM-15+0196LFGJ V0201701N001510120019N0112651N1+00001+00001999999ADDGA1081+012009999GF108991999999999999999999MA1103011999999MW1001REMMET046LFGJ 210100Z 17003KT 9999 OVC040 00/M00 Q1030;EQDQ01+000000PRSWM2
0139072553999992000012119004+47030+005430FM-15+0196LFGJ V0201501N000510042019N0060001N1+00201+00201999999ADDGA1081+004209999GF108991999999999999999999MA1102911999999MW1001REMMET045LFGJ 211900Z 15001KT 6000 OVC014 02/02 Q1029;EQDQ01+000000PRSWM2
0139072553999992000012120004+47030+005430FM-15+0196LFGJ V0209999C000010045019N0060001N1+00201+00201999999ADDGA1081+004509999GF108991999999999999999999MA1102911999999MW1001REMMET045LFGJ 212000Z 00000KT 6000 OVC015 02/02 Q1029;EQDQ01+000000PRSWM2
0185072553999992000012121004+47030+005430FM-15+0196LFGJ V0209999C000010180019N0070001N1+00201+00201999999ADDGA1021+004209999GA2021+012309999GA3081+018009999GF108991999999999999999999MA1102811999999MW1001REMMET059LFGJ 212100Z 00000KT 7000 SCT014 SCT041 OVC060 02/02 Q1028;EQDQ01+000000PRSWM2
0139072553999992000012122004+47030+005430FM-15+0196LFGJ V0202601N001510072019N0045001N1+00201+00201999999ADDGA1081+007209999GF108991999999999999999999MA1102711999999MW1001REMMET045LFGJ 212200Z 26003KT 4500 OVC024 02/02 Q1027;EQDQ01+000000PRSWM2
0139072553999992000012123004+47030+005430FM-15+0196LFGJ V0209999C000010051019N0045001N1+00201+00101999999ADDGA1081+005109999GF108991999999999999999999MA1102711999999MW1001REMMET045LFGJ 212300Z 00000KT 4500 OVC017 02/01 Q1027;EQDQ01+000000PRSWM2
0158072553999992000012200004+47030+005430FM-15+0196LFGJ V0201401N001010048019N0040001N1+00201+00201999999ADDGA1081+004809999GF108991999999999999999999MA1102711999999MW1101REMMET048LFGJ 220000Z 14002KT 4000 BR OVC016 02/02 Q1027;EQDQ01+000003PRSWM1Q02    003PRSWM1
0093072553999992000012419004+47030+005430FM-15+0196LFGJ V0200401N00671220001CN0099001N1-00301-00701999999ADDMA1102101999999MW1001REMMET041LFGJ 241900Z 04013KT CAVOK M03/M07 Q1021;EQDQ01+000000PRSWM2
0099072553999992000012421004+47030+005430FM-15+0196LFGJ V0200301N00621220001CN0099001N1-00401-00701999999ADDMA1102201999999MW1001REMMET047LFGJ 242100Z 03012KT CAVOK M04/M07 Q1022 NOSIG;EQDQ01+000000PRSWM2
0093072553999992000012422004+47030+005430FM-15+0196LFGJ V0200401N00511220001CN0099001N1-00501-00701999999ADDMA1102201999999MW1001REMMET041LFGJ 242200Z 04010KT CAVOK M05/M07 Q1022;EQDQ01+000000PRSWM2
0093072553999992000012423004+47030+005430FM-15+0196LFGJ V0200301N00461220001CN0099001N1-00501-00801999999ADDMA1102201999999MW1001REMMET041LFGJ 242300Z 03009KT CAVOK M05/M08 Q1022;EQDQ01+000000PRSWM2
0093072553999992000012501004+47030+005430FM-15+0196LFGJ V0200301N00571220001CN0099001N1-00501-00901999999ADDMA1102201999999MW1001REMMET041LFGJ 250100Z 03011KT CAVOK M05/M09 Q1022;EQDQ01+000000PRSWM2
0093072553999992000012520004+47030+005430FM-15+0196LFGJ V0200401N00311220001CN0099001N1-00501-00901999999ADDMA1102711999999MW1001REMMET041LFGJ 252000Z 04006KT CAVOK M05/M09 Q1027;EQDQ01+000000PRSWM2
0093072553999992000012521004+47030+005430FM-15+0196LFGJ V0200101N00211220001CN0099001N1-00601-01001999999ADDMA1102811999999MW1001REMMET041LFGJ 252100Z 01004KT CAVOK M06/M10 Q1028;EQDQ01+000000PRSWM2
0093072553999992000012522004+47030+005430FM-15+0196LFGJ V0200201N00101220001CN0099001N1-00601-01001999999ADDMA1102811999999MW1001REMMET041LFGJ 252200Z 02002KT CAVOK M06/M10 Q1028;EQDQ01+000000PRSWM2
0093072553999992000012619004+47030+005430FM-15+0196LFGJ V0200301N00101220001CN0099001N1-00401-00601999999ADDMA1103181999999MW1001REMMET041LFGJ 261900Z 03002KT CAVOK M04/M06 Q1032;EQDQ01+000000PRSWM2
0122072553999992000012620004+47030+005430FM-15+0196LFGJ V0200401N001012200019N0080001N1-00401-00601999999ADDGF100991999999999999999999MA1103291999999MW1001REMMET044LFGJ 262000Z 04002KT 8000 SKC M04/M06 Q1033;EQDQ01+000000PRSWM2
0122072553999992000012621004+47030+005430FM-15+0196LFGJ V0209999C000012200019N0080001N1-00601-00701999999ADDGF100991999999999999999999MA1103291999999MW1001REMMET044LFGJ 262100Z 00000KT 8000 SKC M06/M07 Q1033;EQDQ01+000000PRSWM2
0122072553999992000012622004+47030+005430FM-15+0196LFGJ V0202001N001012200019N0050001N1-00701-00801999999ADDGF100991999999999999999999MA1103291999999MW1001REMMET044LFGJ 262200Z 20002KT 5000 SKC M07/M08 Q1033;EQDQ01+000000PRSWM2
0122072553999992000012623004+47030+005430FM-15+0196LFGJ V0209999C000012200019N0050001N1-00801-00801999999ADDGF100991999999999999999999MA1103291999999MW1001REMMET044LFGJ 262300Z 00000KT 5000 SKC M08/M08 Q1033;EQDQ01+000000PRSWM2
0122072553999992000012700004+47030+005430FM-15+0196LFGJ V0200701N001012200019N0050001N1-00801-00901999999ADDGF100991999999999999999999MA1103291999999MW1001REMMET044LFGJ 270000Z 07002KT 5000 SKC M08/M09 Q1033;EQDQ01+000000PRSWM2
0122072553999992000012701004+47030+005430FM-15+0196LFGJ V0201101N001512200019N0050001N1-00801-00901999999ADDGF100991999999999999999999MA1103291999999MW1001REMMET044LFGJ 270100Z 11003KT 5000 SKC M08/M09 Q1033;EQDQ01+000000PRSWM2
0122072553999992000012719004+47030+005430FM-15+0196LFGJ V0201101N001512200019N0080001N1-00301-00301999999ADDGF100991999999999999999999MA1102911999999MW1001REMMET044LFGJ 271900Z 11003KT 8000 SKC M03/M03 Q1029;EQDQ01+000000PRSWM2
0122072553999992000012720004+47030+005430FM-15+0196LFGJ V0201001N001012200019N0070001N1-00301-00401999999ADDGF100991999999999999999999MA1102911999999MW1001REMMET044LFGJ 272000Z 10002KT 7000 SKC M03/M04 Q1029;EQDQ01+000000PRSWM2
0122072553999992000012721004+47030+005430FM-15+0196LFGJ V0200601N001012200019N0080001N1-00401-00401999999ADDGF100991999999999999999999MA1102911999999MW1001REMMET044LFGJ 272100Z 06002KT 8000 SKC M04/M04 Q1029;EQDQ01+000000PRSWM2
0122072553999992000012722004+47030+005430FM-15+0196LFGJ V0200801N002112200019N0080001N1-00401-00501999999ADDGF100991999999999999999999MA1102911999999MW1001REMMET044LFGJ 272200Z 08004KT 8000 SKC M04/M05 Q1029;EQDQ01+000000PRSWM2
0122072553999992000012723004+47030+005430FM-15+0196LFGJ V0201101N002112200019N0080001N1-00501-00501999999ADDGF100991999999999999999999MA1102811999999MW1001REMMET044LFGJ 272300Z 11004KT 8000 SKC M05/M05 Q1028;EQDQ01+000000PRSWM2
0122072553999992000012800004+47030+005430FM-15+0196LFGJ V0209999C000012200019N0070001N1-00501-00601999999ADDGF100991999999999999999999MA1102811999999MW1001REMMET044LFGJ 280000Z 00000KT 7000 SKC M05/M06 Q1028;EQDQ01+000000PRSWM2
0122072553999992000012801004+47030+005430FM-15+0196LFGJ V0200401N001012200019N0070001N1-00601-00601999999ADDGF100991999999999999999999MA1102811999999MW1001REMMET044LFGJ 280100Z 04002KT 7000 SKC M06/M06 Q1028;EQDQ01+000000PRSWM2
0162072553999992000012819004+47030+005430FM-15+0196LFGJ V0202101N002612200019N0112651N1+00201+00001999999ADDGA1021+012009999GA2021+075009999GF104991999999999999999999MA1102301999999MW1001REMMET052LFGJ 281900Z 21005KT 9999 FEW040 SCT250 02/00 Q1023;EQDQ01+000000PRSWM2
0153072553999992000012820004+47030+005430FM-15+0196LFGJ V0201901N00621220001CN0112651N1+00301+00001999999ADDGA1071+013809999GA2021+075009999MA1102201999999MW1001REMMET053LFGJ 282000Z 19012KT 9999 BKN046 SCT250 03/M00 Q1022;EQDQ01+000042SCOTCVQ02+000000PRSWM2
0163072553999992000012821004+47030+005430FM-15+0196LFGJ V0201901N006210750019N0112651N1+00301+00001999999ADDGA1021+012009999GA2071+075009999GF107991999999999999999999MA1102201999999MW1001REMMET053LFGJ 282100Z 19012KT 9999 FEW040 BKN250 03/M00 Q1022;EQDQ01+000000PRSWM2
0163072553999992000012822004+47030+005430FM-15+0196LFGJ V0202101N003610750019N0112651N1+00201-00101999999ADDGA1021+012909999GA2071+075009999GF107991999999999999999999MA1102201999999MW1001REMMET053LFGJ 282200Z 21007KT 9999 FEW043 BKN250 02/M01 Q1022;EQDQ01+000000PRSWM2
0140072553999992000012823004+47030+005430FM-15+0196LFGJ V0202101N003110111019N0112651N1+00201-00101999999ADDGA1071+011109999GF107991999999999999999999MA1102201999999MW1001REMMET046LFGJ 282300Z 21006KT 9999 BKN037 02/M01 Q1022;EQDQ01+000000PRSWM2
0140072553999992000012900004+47030+005430FM-15+0196LFGJ V0202001N004110099019N0112651N1+00301+00001999999ADDGA1071+009909999GF107991999999999999999999MA1102201999999MW1001REMMET046LFGJ 290000Z 20008KT 9999 BKN033 03/M00 Q1022;EQDQ01+000000PRSWM2
0162072553999992000012901004+47030+005430FM-15+0196LFGJ V0201901N004610300019N0112651N1+00301+00001999999ADDGA1021+009909999GA2081+030009999GF108991999999999999999999MA1102101999999MW1001REMMET052LFGJ 290100Z 19009KT 9999 SCT033 OVC100 03/00 Q1021;EQDQ01+000000PRSWM2
0139072553999992000013119004+47030+005430FM-15+0196LFGJ V0202101N001010057019N0112651N1+00801+00601999999ADDGA1081+005709999GF108991999999999999999999MA1102911999999MW1001REMMET045LFGJ 311900Z 21002KT 9999 OVC019 08/06 Q1029;EQDQ01+000000PRSWM2
0139072553999992000013120004+47030+005430FM-15+0196LFGJ V0201101N001010051019N0112651N1+00701+00601999999ADDGA1081+005109999GF108991999999999999999999MA1102911999999MW1001REMMET045LFGJ 312000Z 11002KT 9999 OVC017 07/06 Q1029;EQDQ01+000000PRSWM2
0139072553999992000013121004+47030+005430FM-15+0196LFGJ V0200901N002110051019N0112651N1+00601+00501999999ADDGA1081+005109999GF108991999999999999999999MA1102811999999MW1001REMMET045LFGJ 312100Z 09004KT 9999 OVC017 06/05 Q1028;EQDQ01+000000PRSWM2
0139072553999992000013122004+47030+005430FM-15+0196LFGJ V0200901N001012200019N0112651N1+00501+00501999999ADDGA1021+004809999GF102991999999999999999999MA1102811999999MW1001REMMET045LFGJ 312200Z 09002KT 9999 FEW016 05/05 Q1028;EQDQ01+000000PRSWM2
0141072553999992000013123004+47030+005430FM-15+0196LFGJ V0200701N001012200019N0112651N1+00401+00401999999ADDGF100991999999999999999999MA1102811999999MW1121REMMET047LFGJ 312300Z 07002KT 9999 MIFG SKC 04/04 Q1028;EQDQ01+000003PRSWM1Q02    003PRSWM1
0090072553999992000020100004+47030+005430FM-15+0196LFGJ V0202201N001012200019N0800001N1+99999+99999999999ADDMW1001REMMET053LFGJ 010000Z 22002KT 800 R06/0800 FG SKC 01/01 Q1027;EQDQ01+000000PRSWM2
0093072553999992000020101004+47030+005430FM-15+0196LFGJ V0209999C000012200019N0150001N1+99999+99999999999ADDMW1001REMMET056LFGJ 010100Z 00000KT 150 R06/0550 FG BKN001 01/01 Q1027;EQDQ01+000000PRSWM2
0141072553999992000020119004+47030+005430FM-15+0196LFGJ V0202101N001012200019N0060001N1+00501+00401999999ADDGF100991999999999999999999MA1102101999999MW1401REMMET047LFGJ 011900Z 21002KT 6000 VCFG SKC 05/04 Q1021;EQDQ01+000003PRSWM1Q02    003PRSWM1
0141072553999992000020120004+47030+005430FM-15+0196LFGJ V0209999C000012200019N0050001N1+00401+00401999999ADDGF100991999999999999999999MA1102101999999MW1401REMMET047LFGJ 012000Z 00000KT 5000 VCFG SKC 04/04 Q1021;EQDQ01+000003PRSWM1Q02    003PRSWM1
0120072553999992000020121004+47030+005430FM-15+0196LFGJ V0202501N001012200019N0090001N1+00401+00401999999ADDGF100991999999999999999999MA1102101999999MW1001REMMET042LFGJ 012100Z 25002KT 9000 SKC 04/04 Q1021;EQDQ01+000000PRSWM2
0091072553999992000020122004+47030+005430FM-15+0196LFGJ V0202201N00311220001CN0099001N1+00401+00301999999ADDMA1102201999999MW1001REMMET039LFGJ 012200Z 22006KT CAVOK 04/03 Q1022;EQDQ01+000000PRSWM2
0091072553999992000020123004+47030+005430FM-15+0196LFGJ V0202101N00211220001CN0099001N1+00501+00401999999ADDMA1102201999999MW1001REMMET039LFGJ 012300Z 21004KT CAVOK 05/04 Q1022;EQDQ01+000000PRSWM2
0091072553999992000020200004+47030+005430FM-15+0196LFGJ V0202101N00311220001CN0099001N1+00601+00501999999ADDMA1102101999999MW1001REMMET039LFGJ 020000Z 21006KT CAVOK 06/05 Q1021;EQDQ01+000000PRSWM2
0091072553999992000020201004+47030+005430FM-15+0196LFGJ V0202101N00211220001CN0099001N1+00601+00501999999ADDMA1102101999999MW1001REMMET039LFGJ 020100Z 21004KT CAVOK 06/05 Q1021;EQDQ01+000000PRSWM2
0162072553999992000020219004+47030+005430FM-15+0196LFGJ V0203401N004110036019N0050001N1+00901+00801999999ADDGA1071+003609999GA2081+003909999GF108991999999999999999999MA1102401999999MW1001REMMET052LFGJ 021900Z 34008KT 5000 BKN012 OVC013 09/08 Q1024;EQDQ01+000000PRSWM2
0162072553999992000020220004+47030+005430FM-15+0196LFGJ V0203401N005110030019N0090001N1+00901+00801999999ADDGA1071+003009999GA2081+004509999GF108991999999999999999999MA1102611999999MW1001REMMET052LFGJ 022000Z 34010KT 9000 BKN010 OVC015 09/08 Q1026;EQDQ01+000000PRSWM2
0139072553999992000020221004+47030+005430FM-15+0196LFGJ V0203501N005110033019N0090001N1+00801+00701999999ADDGA1081+003309999GF108991999999999999999999MA1102711999999MW1001REMMET045LFGJ 022100Z 35010KT 9000 OVC011 08/07 Q1027;EQDQ01+000000PRSWM2
0139072553999992000020222004+47030+005430FM-15+0196LFGJ V0200101N002110060019N0112651N1+00801+00701999999ADDGA1081+006009999GF108991999999999999999999MA1102811999999MW1001REMMET045LFGJ 022200Z 01004KT 9999 OVC020 08/07 Q1028;EQDQ01+000000PRSWM2
0162072553999992000020223004+47030+005430FM-15+0196LFGJ V0203501N007210048019N0112651N1+00701+00501999999ADDGA1021+003009999GA2081+004809999GF108991999999999999999999MA1102911999999MW1001REMMET052LFGJ 022300Z 35014KT 9999 FEW010 OVC016 07/05 Q1029;EQDQ01+000000PRSWM2
0139072553999992000020300004+47030+005430FM-15+0196LFGJ V0203601N006212200019N0112651N1+00601+00301999999ADDGA1021+007509999GF102991999999999999999999MA1103011999999MW1001REMMET045LFGJ 030000Z 36012KT 9999 FEW025 06/03 Q1030;EQDQ01+000000PRSWM2
0139072553999992000020301004+47030+005430FM-15+0196LFGJ V0203501N005112200019N0112651N1+00501+00201999999ADDGA1021+008109999GF104991999999999999999999MA1103121999999MW1001REMMET045LFGJ 030100Z 35010KT 9999 SCT027 05/02 Q1031;EQDQ01+000000PRSWM2
0139072553999992000020319004+47030+005430FM-15+0196LFGJ V0203501N004110108019N0112651N1+00601+00001999999ADDGA1081+010809999GF108991999999999999999999MA1103691999999MW1001REMMET045LFGJ 031900Z 35008KT 9999 OVC036 06/00 Q1037;EQDQ01+000000PRSWM2
0139072553999992000020320004+47030+005430FM-15+0196LFGJ V0203401N003110108019N0112651N1+00501+00101999999ADDGA1081+010809999GF108991999999999999999999MA1103791999999MW1001REMMET045LFGJ 032000Z 34006KT 9999 OVC036 05/01 Q1038;EQDQ01+000000PRSWM2
0139072553999992000020321004+47030+005430FM-15+0196LFGJ V0203401N003110108019N0112651N1+00501+00101999999ADDGA1081+010809999GF108991999999999999999999MA1103791999999MW1001REMMET045LFGJ 032100Z 34006KT 9999 OVC036 05/01 Q1038;EQDQ01+000000PRSWM2
0139072553999992000020322004+47030+005430FM-15+0196LFGJ V0203601N003110114019N0112651N1+00401+00101999999ADDGA1071+011409999GF107991999999999999999999MA1103791999999MW1001REMMET045LFGJ 032200Z 36006KT 9999 BKN038 04/01 Q1038;EQDQ01+000000PRSWM2
0091072553999992000020323004+47030+005430FM-15+0196LFGJ V0203601N00311220001CN0099001N1+00401+00001999999ADDMA1103791999999MW1001REMMET039LFGJ 032300Z 36006KT CAVOK 04/00 Q1038;EQDQ01+000000PRSWM2
0091072553999992000020419004+47030+005430FM-15+0196LFGJ V0209999C00001220001CN0099001N1+00201+00101999999ADDMA1103691999999MW1001REMMET039LFGJ 041900Z 00000KT CAVOK 02/01 Q1037;EQDQ01+000000PRSWM2
0091072553999992000020420004+47030+005430FM-15+0196LFGJ V0200601N00101220001CN0099001N1+00101+00101999999ADDMA1103691999999MW1001REMMET039LFGJ 042000Z 06002KT CAVOK 01/01 Q1037;EQDQ01+000000PRSWM2
0160072553999992000020421004+47030+005430FM-15+0196LFGJ V0200801N001012200019N0060001N1+00001+00001999999ADDGA1021+069009999GF104991999999999999999999MA1103691999999MW1401REMMET050LFGJ 042100Z 08002KT 6000 VCFG SCT230 00/00 Q1037;EQDQ01+000003PRSWM1Q02    003PRSWM1
0160072553999992000020422004+47030+005430FM-15+0196LFGJ V0201101N000510690019N0060001N1+00001+00001999999ADDGA1071+069009999GF107991999999999999999999MA1103691999999MW1401REMMET050LFGJ 042200Z 11001KT 6000 VCFG BKN230 00/00 Q1037;EQDQ01+000003PRSWM1Q02    003PRSWM1
0160072553999992000020423004+47030+005430FM-15+0196LFGJ V0200501N001010690019N0060001N1+00001+00001999999ADDGA1071+069009999GF107991999999999999999999MA1103691999999MW1401REMMET050LFGJ 042300Z 05002KT 6000 VCFG BKN230 00/00 Q1037;EQDQ01+000003PRSWM1Q02    003PRSWM1
0158072553999992000020500004+47030+005430FM-15+0196LFGJ V0201001N001010690019N0040001N1+00001+00001999999ADDGA1071+069009999GF107991999999999999999999MA1103691999999MW1101REMMET048LFGJ 050000Z 10002KT 4000 BR BKN230 00/00 Q1037;EQDQ01+000003PRSWM1Q02    003PRSWM1
0140072553999992000020501004+47030+005430FM-15+0196LFGJ V0200901N001510690019N0080001N1+00001+00001999999ADDGA1071+069009999GF107991999999999999999999MA1103591999999MW1001REMMET046LFGJ 050100Z 09003KT 8000 BKN230 00/M00 Q1036;EQDQ01+000000PRSWM2
0205072553999992000020719004+47030+005430FM-15+0196LFGJ V0202001N005110330019N0112651N1+00801+00501999999ADDGA1021+003609999GA2021+013509999GA3081+033009999GF108991999999999999999999MA1102301999999MW1611REMMET063LFGJ 071900Z 20010KT 9999 -RA FEW012 SCT045 OVC110 08/05 Q1023;EQDQ01+000003PRSWM1Q02    003PRSWM1
0185072553999992000020720004+47030+005430FM-15+0196LFGJ V0202101N006210330019N0112651N1+00801+00601999999ADDGA1021+008709999GA2021+012009999GA3081+033009999GF108991999999999999999999MA1102301999999MW1001REMMET059LFGJ 072000Z 21012KT 9999 FEW029 SCT040 OVC110 08/06 Q1023;EQDQ01+000000PRSWM2
0162072553999992000020721004+47030+005430FM-15+0196LFGJ V0202101N007710102019N0112651N1+00901+00501999999ADDGA1021+007809999GA2071+010209999GF107991999999999999999999MA1102301999999MW1001REMMET052LFGJ 072100Z 21015KT 9999 FEW026 BKN034 09/05 Q1023;EQDQ01+000000PRSWM2
0159072553999992000020722004+47030+005430FM-15+0196LFGJ V0202001N009310087019N0112651N1+00801+00601999999ADDGA1081+008709999GF108991999999999999999999MA1102201999999MW1611REMMET049LFGJ 072200Z 20018KT 9999 -RA OVC029 08/06 Q1022;EQDQ01+000003PRSWM1Q02    003PRSWM1
0159072553999992000020723004+47030+005430FM-15+0196LFGJ V0202001N008210075019N0112651N1+00801+00601999999ADDGA1081+007509999GF108991999999999999999999MA1102201999999MW1611REMMET049LFGJ 072300Z 20016KT 9999 -RA OVC025 08/06 Q1022;EQDQ01+000003PRSWM1Q02    003PRSWM1
0162072553999992000020800004+47030+005430FM-15+0196LFGJ V0202001N008210066019N0112651N1+00801+00601999999ADDGA1021+003309999GA2081+006609999GF108991999999999999999999MA1102201999999MW1001REMMET052LFGJ 080000Z 20016KT 9999 FEW011 OVC022 08/06 Q1022;EQDQ01+000000PRSWM2
0162072553999992000020801004+47030+005430FM-15+0196LFGJ V0202001N009810057019N0112651N1+00801+00601999999ADDGA1021+001809999GA2081+005709999GF108991999999999999999999MA1102101999999MW1001REMMET052LFGJ 080100Z 20019KT 9999 FEW006 OVC019 08/06 Q1021;EQDQ01+000000PRSWM2
0159072553999992000020819004+47030+005430FM-15+0196LFGJ V0200901N011810048019N0090001N1+01101+01001999999ADDGA1071+004809999GF107991999999999999999999MA1101691999999MW1611REMMET049LFGJ 081900Z 09023KT 9000 -RA BKN016 11/10 Q1017;EQDQ01+000003PRSWM1Q02    003PRSWM1
0139072553999992000020820004+47030+005430FM-15+0196LFGJ V0202101N008210039019N0090001N1+01101+01001999999ADDGA1071+003909999GF107991999999999999999999MA1101691999999MW1001REMMET045LFGJ 082000Z 21016KT 9000 BKN013 11/10 Q1017;EQDQ01+000000PRSWM2
0159072553999992000020821004+47030+005430FM-15+0196LFGJ V0202301N008710030019N0070001N1+01101+01001999999ADDGA1071+003009999GF107991999999999999999999MA1101901999999MW1611REMMET049LFGJ 082100Z 23017KT 7000 -RA BKN010 11/10 Q1019;EQDQ01+000003PRSWM1Q02    003PRSWM1
0162072553999992000020822004+47030+005430FM-15+0196LFGJ V0202901N003110300019N0112651N1+01001+00701999999ADDGA1021+012309999GA2081+030009999GF108991999999999999999999MA1102001999999MW1001REMMET052LFGJ 082200Z 29006KT 9999 FEW041 OVC100 10/07 Q1020;EQDQ01+000000PRSWM2
0139072553999992000020823004+47030+005430FM-15+0196LFGJ V0202701N004112200019N0112651N1+01001+00601999999ADDGA1021+009009999GF104991999999999999999999MA1102201999999MW1001REMMET045LFGJ 082300Z 27008KT 9999 SCT030 10/06 Q1022;EQDQ01+000000PRSWM2
0139072553999992000020900004+47030+005430FM-15+0196LFGJ V0203101N005112200019N0112651N1+00901+00501999999ADDGA1021+012009999GF102991999999999999999999MA1102201999999MW1001REMMET045LFGJ 090000Z 31010KT 9999 FEW040 09/05 Q1022;EQDQ01+000000PRSWM2
0139072553999992000020901004+47030+005430FM-15+0196LFGJ V0202501N003112200019N0112651N1+00801+00401999999ADDGA1021+011709999GF102991999999999999999999MA1102401999999MW1001REMMET045LFGJ 090100Z 25006KT 9999 FEW039 08/04 Q1024;EQDQ01+000000PRSWM2
0139072553999992000020919004+47030+005430FM-15+0196LFGJ V0209999C000012200019N0112651N1+00401+00301999999ADDGA1021+014709999GF102991999999999999999999MA1103181999999MW1001REMMET045LFGJ 091900Z 00000KT 9999 FEW049 04/03 Q1032;EQDQ01+000000PRSWM2
0162072553999992000020920004+47030+005430FM-15+0196LFGJ V0201501N001010690019N0112651N1+00301+00201999999ADDGA1021+014709999GA2081+069009999GF108991999999999999999999MA1103181999999MW1001REMMET052LFGJ 092000Z 15002KT 9999 FEW049 OVC230 03/02 Q1032;EQDQ01+000000PRSWM2
0091072553999992000020921004+47030+005430FM-15+0196LFGJ V0201701N00311220001CN0099001N1+00301+00201999999ADDMA1103181999999MW1001REMMET039LFGJ 092100Z 17006KT CAVOK 03/02 Q1032;EQDQ01+000000PRSWM2
0091072553999992000020922004+47030+005430FM-15+0196LFGJ V0201701N00311220001CN0099001N1+00201+00201999999ADDMA1103181999999MW1001REMMET039LFGJ 092200Z 17006KT CAVOK 02/02 Q1032;EQDQ01+000000PRSWM2
0091072553999992000020923004+47030+005430FM-15+0196LFGJ V0201401N00101220001CN0099001N1+00101+00101999999ADDMA1103181999999MW1001REMMET039LFGJ 092300Z 14002KT CAVOK 01/01 Q1032;EQDQ01+000000PRSWM2
0091072553999992000021000004+47030+005430FM-15+0196LFGJ V0201001N00211220001CN0099001N1+00101+00001999999ADDMA1103121999999MW1001REMMET039LFGJ 100000Z 10004KT CAVOK 01/00 Q1031;EQDQ01+000000PRSWM2
0092072553999992000021001004+47030+005430FM-15+0196LFGJ V0200601N00101220001CN0099001N1+00001+00001999999ADDMA1103121999999MW1001REMMET040LFGJ 100100Z 06002KT CAVOK 00/M00 Q1031;EQDQ01+000000PRSWM2
0159072553999992000021019004+47030+005430FM-15+0196LFGJ V0202201N005110111019N0112651N1+00701+00501999999ADDGA1081+011109999GF108991999999999999999999MA1102201999999MW1611REMMET049LFGJ 101900Z 22010KT 9999 -RA OVC037 07/05 Q1022;EQDQ01+000003PRSWM1Q02    003PRSWM1
0159072553999992000021020004+47030+005430FM-15+0196LFGJ V0201901N004110087019N0080001N1+00701+00601999999ADDGA1081+008709999GF108991999999999999999999MA1102201999999MW1611REMMET049LFGJ 102000Z 19008KT 8000 -RA OVC029 07/06 Q1022;EQDQ01+000003PRSWM1Q02    003PRSWM1
0159072553999992000021021004+47030+005430FM-15+0196LFGJ V0201901N006210069019N0080001N1+00801+00601999999ADDGA1081+006909999GF108991999999999999999999MA1102201999999MW1611REMMET049LFGJ 102100Z 19012KT 8000 -RA OVC023 08/06 Q1022;EQDQ01+000003PRSWM1Q02    003PRSWM1
0159072553999992000021022004+47030+005430FM-15+0196LFGJ V0201801N006210060019N0080001N1+00701+00501999999ADDGA1071+006009999GF107991999999999999999999MA1102201999999MW1611REMMET049LFGJ 102200Z 18012KT 8000 -RA BKN020 07/05 Q1022;EQDQ01+000003PRSWM1Q02    003PRSWM1
0159072553999992000021023004+47030+005430FM-15+0196LFGJ V0201801N006210063019N0080001N1+00701+00601999999ADDGA1071+006309999GF107991999999999999999999MA1102201999999MW1611REMMET049LFGJ 102300Z 18012KT 8000 -RA BKN021 07/06 Q1022;EQDQ01+000003PRSWM1Q02    003PRSWM1
0159072553999992000021100004+47030+005430FM-15+0196LFGJ V0202101N004110045019N0080001N1+00701+00701999999ADDGA1081+004509999GF108991999999999999999999MA1102201999999MW1611REMMET049LFGJ 110000Z 21008KT 8000 -RA OVC015 07/07 Q1022;EQDQ01+000003PRSWM1Q02    003PRSWM1
0159072553999992000021101004+47030+005430FM-15+0196LFGJ V0202101N005110045019N0070001N1+00701+00701999999ADDGA1081+004509999GF108991999999999999999999MA1102201999999MW1611REMMET049LFGJ 110100Z 21010KT 7000 -RA OVC015 07/07 Q1022;EQDQ01+000003PRSWM1Q02    003PRSWM1
0092072553999992000021119004+47030+005430FM-15+0196LFGJ V0200501N00311220001CN0099001N1+00301+00001999999ADDMA1102811999999MW1001REMMET040LFGJ 111900Z 05006KT CAVOK 03/M00 Q1028;EQDQ01+000000PRSWM2
0092072553999992000021120004+47030+005430FM-15+0196LFGJ V0200201N00311220001CN0099001N1+00101-00101999999ADDMA1102811999999MW1001REMMET040LFGJ 112000Z 02006KT CAVOK 01/M01 Q1028;EQDQ01+000000PRSWM2
0092072553999992000021121004+47030+005430FM-15+0196LFGJ V0200101N00311220001CN0099001N1+00101+00001999999ADDMA1102811999999MW1001REMMET040LFGJ 112100Z 01006KT CAVOK 01/M00 Q1028;EQDQ01+000000PRSWM2
0092072553999992000021122004+47030+005430FM-15+0196LFGJ V0203601N00461220001CN0099001N1+00101+00001999999ADDMA1102811999999MW1001REMMET040LFGJ 112200Z 36009KT CAVOK 01/M00 Q1028;EQDQ01+000000PRSWM2
0092072553999992000021123004+47030+005430FM-15+0196LFGJ V0203601N00361220001CN0099001N1+00101-00101999999ADDMA1102711999999MW1001REMMET040LFGJ 112300Z 36007KT CAVOK 01/M01 Q1027;EQDQ01+000000PRSWM2
0140072553999992000021200004+47030+005430FM-15+0196LFGJ V0203501N003110090019N0112651N1+00101+00001999999ADDGA1071+009009999GF107991999999999999999999MA1102711999999MW1001REMMET046LFGJ 120000Z 35006KT 9999 BKN030 01/M00 Q1027;EQDQ01+000000PRSWM2
0140072553999992000021201004+47030+005430FM-15+0196LFGJ V0203501N005110090019N0112651N1+00101-00101999999ADDGA1071+009009999GF107991999999999999999999MA1102711999999MW1001REMMET046LFGJ 120100Z 35010KT 9999 BKN030 01/M01 Q1027;EQDQ01+000000PRSWM2
0162072553999992000021419004+47030+005430FM-15+0196LFGJ V0201901N003110300019N0112651N1+00801+00601999999ADDGA1021+007809999GA2081+030009999GF108991999999999999999999MA1102301999999MW1001REMMET052LFGJ 141900Z 19006KT 9999 SCT026 OVC100 08/06 Q1023;EQDQ01+000000PRSWM2
0139072553999992000021420004+47030+005430FM-15+0196LFGJ V0201901N004110084019N0112651N1+00801+00601999999ADDGA1071+008409999GF107991999999999999999999MA1102301999999MW1001REMMET045LFGJ 142000Z 19008KT 9999 BKN028 08/06 Q1023;EQDQ01+000000PRSWM2
0139072553999992000021421004+47030+005430FM-15+0196LFGJ V0201901N004110081019N0112651N1+00701+00601999999ADDGA1071+008109999GF107991999999999999999999MA1102301999999MW1001REMMET045LFGJ 142100Z 19008KT 9999 BKN027 07/06 Q1023;EQDQ01+000000PRSWM2
0139072553999992000021422004+47030+005430FM-15+0196LFGJ V0201901N005110078019N0112651N1+00701+00601999999ADDGA1071+007809999GF107991999999999999999999MA1102301999999MW1001REMMET045LFGJ 142200Z 19010KT 9999 BKN026 07/06 Q1023;EQDQ01+000000PRSWM2
0159072553999992000021423004+47030+005430FM-15+0196LFGJ V0202001N005110066019N0112651N1+00701+00601999999ADDGA1071+006609999GF107991999999999999999999MA1102301999999MW1611REMMET049LFGJ 142300Z 20010KT 9999 -RA BKN022 07/06 Q1023;EQDQ01+000003PRSWM1Q02    003PRSWM1
0139072553999992000021500004+47030+005430FM-15+0196LFGJ V0201901N006210051019N0112651N1+00701+00601999999ADDGA1071+005109999GF107991999999999999999999MA1102201999999MW1001REMMET045LFGJ 150000Z 19012KT 9999 BKN017 07/06 Q1022;EQDQ01+000000PRSWM2
0191072553999992000021501004+47030+005430FM-15+0196LFGJ V0202001N006710033019N0030001N1+00701+00601999999ADDGA1021+001809999GA2071+003309999GF107991999999999999999999MA1102201999999MW1101MW2611REMMET059LFGJ 150100Z 20013KT 3000 -RA BR FEW006 BKN011 07/06 Q1022;EQDQ01+000003PRSWM1Q02    003PRSWM1
0139072553999992000021519004+47030+005430FM-15+0196LFGJ V0202001N006210081019N0112651N1+00901+00601999999ADDGA1071+008109999GF107991999999999999999999MA1101691999999MW1001REMMET045LFGJ 151900Z 20012KT 9999 BKN027 09/06 Q1017;EQDQ01+000000PRSWM2
0139072553999992000021520004+47030+005430FM-15+0196LFGJ V0202001N007712200019N0112651N1+00901+00701999999ADDGA1021+008109999GF102991999999999999999999MA1101591999999MW1001REMMET045LFGJ 152000Z 20015KT 9999 FEW027 09/07 Q1016;EQDQ01+000000PRSWM2
0162072553999992000021521004+47030+005430FM-15+0196LFGJ V0202101N008710105019N0112651N1+00901+00701999999ADDGA1021+006309999GA2071+010509999GF107991999999999999999999MA1101491999999MW1001REMMET052LFGJ 152100Z 21017KT 9999 FEW021 BKN035 09/07 Q1015;EQDQ01+000000PRSWM2
0139072553999992000021522004+47030+005430FM-15+0196LFGJ V0202001N008710081019N0112651N1+00901+00701999999ADDGA1071+008109999GF107991999999999999999999MA1101391999999MW1001REMMET045LFGJ 152200Z 20017KT 9999 BKN027 09/07 Q1014;EQDQ01+000000PRSWM2
0162072553999992000021523004+47030+005430FM-15+0196LFGJ V0202001N008710117019N0112651N1+00801+00701999999ADDGA1021+005709999GA2071+011709999GF107991999999999999999999MA1101291999999MW1001REMMET052LFGJ 152300Z 20017KT 9999 FEW019 BKN039 08/07 Q1013;EQDQ01+000000PRSWM2
0139072553999992000021600004+47030+005430FM-15+0196LFGJ V0202001N008710075019N0112651N1+00801+00701999999ADDGA1071+007509999GF107991999999999999999999MA1101191999999MW1001REMMET045LFGJ 160000Z 20017KT 9999 BKN025 08/07 Q1012;EQDQ01+000000PRSWM2
0159072553999992000021601004+47030+005430FM-15+0196LFGJ V0202001N008710078019N0112651N1+00901+00701999999ADDGA1071+007809999GF107991999999999999999999MA1101081999999MW1611REMMET049LFGJ 160100Z 20017KT 9999 -RA BKN026 09/07 Q1011;EQDQ01+000003PRSWM1Q02    003PRSWM1
0185072553999992000021619004+47030+005430FM-15+0196LFGJ V0203201N002110132019N0112651N1+00301+00101999999ADDGA1021+002409999GA2021+007809999GA3071+013209999GF107991999999999999999999MA1101021999999MW1001REMMET059LFGJ 161900Z 32004KT 9999 FEW008 SCT026 BKN044 03/01 Q1010;EQDQ01+000000PRSWM2
0091072553999992000021620004+47030+005430FM-15+0196LFGJ V0202701N00211220001CN0099001N1+00201+00001999999ADDMA1101081999999MW1001REMMET039LFGJ 162000Z 27004KT CAVOK 02/00 Q1011;EQDQ01+000000PRSWM2
0093072553999992000021621004+47030+005430FM-15+0196LFGJ V0202201N00411220001CN0099001N1-00101-00101999999ADDMA1101081999999MW1001REMMET041LFGJ 162100Z 22008KT CAVOK M01/M01 Q1011;EQDQ01+000000PRSWM2
0164072553999992000021622004+47030+005430FM-15+0196LFGJ V0201801N003112200019N0112651N1+00001+00001999999ADDGA1021+013209999GA2021+030009999GF104991999999999999999999MA1101291999999MW1001REMMET054LFGJ 162200Z 18006KT 9999 FEW044 SCT100 M00/M00 Q1013;EQDQ01+000000PRSWM2
0162072553999992000021623004+47030+005430FM-15+0196LFGJ V0201901N003612200019N0112651N1+00001+00001999999ADDGA1021+008109999GA2021+030009999GF104991999999999999999999MA1101291999999MW1001REMMET052LFGJ 162300Z 19007KT 9999 FEW027 SCT100 00/00 Q1013;EQDQ01+000000PRSWM2
0185072553999992000021700004+47030+005430FM-15+0196LFGJ V0201901N005110300019N0112651N1+00101+00001999999ADDGA1021+006909999GA2021+014409999GA3071+030009999GF107991999999999999999999MA1101291999999MW1001REMMET059LFGJ 170000Z 19010KT 9999 FEW023 SCT048 BKN100 01/00 Q1013;EQDQ01+000000PRSWM2
0162072553999992000021701004+47030+005430FM-15+0196LFGJ V0202101N007210150019N0112651N1+00101+00001999999ADDGA1021+007209999GA2071+015009999GF107991999999999999999999MA1101291999999MW1001REMMET052LFGJ 170100Z 21014KT 9999 SCT024 BKN050 01/00 Q1013;EQDQ01+000000PRSWM2
0139072553999992000021719004+47030+005430FM-15+0196LFGJ V0201901N002112200019N0112651N1+00101+00001999999ADDGA1021+005709999GF102991999999999999999999MA1101801999999MW1001REMMET045LFGJ 171900Z 19004KT 9999 FEW019 01/00 Q1018;EQDQ01+000000PRSWM2
0163072553999992000021720004+47030+005430FM-15+0196LFGJ V0201501N001010300019N0112651N1+00001+00001999999ADDGA1021+004509999GA2071+030009999GF107991999999999999999999MA1101901999999MW1001REMMET053LFGJ 172000Z 15002KT 9999 FEW015 BKN100 00/M00 Q1019;EQDQ01+000000PRSWM2
0093072553999992000021721004+47030+005430FM-15+0196LFGJ V0201901N00151220001CN0099001N1+00001+00001999999ADDMA1101901999999MW1001REMMET041LFGJ 172100Z 19003KT CAVOK M00/M00 Q1019;EQDQ01+000000PRSWM2
0141072553999992000021722004+47030+005430FM-15+0196LFGJ V0201901N002110300019N0090001N1+00001+00001999999ADDGA1071+030009999GF107991999999999999999999MA1102001999999MW1001REMMET047LFGJ 172200Z 19004KT 9000 BKN100 M00/M00 Q1020;EQDQ01+000000PRSWM2
0141072553999992000021723004+47030+005430FM-15+0196LFGJ V0202001N002110300019N0080001N1+00001+00001999999ADDGA1081+030009999GF108991999999999999999999MA1102001999999MW1001REMMET047LFGJ 172300Z 20004KT 8000 OVC100 M00/M00 Q1020;EQDQ01+000000PRSWM2
0141072553999992000021800004+47030+005430FM-15+0196LFGJ V0201701N003110300019N0080001N1+00001+00001999999ADDGA1071+030009999GF107991999999999999999999MA1102001999999MW1001REMMET047LFGJ 180000Z 17006KT 8000 BKN100 M00/M00 Q1020;EQDQ01+000000PRSWM2
0139072553999992000021801004+47030+005430FM-15+0196LFGJ V0201801N004110300019N0070001N1+00101+00101999999ADDGA1071+030009999GF107991999999999999999999MA1101901999999MW1001REMMET045LFGJ 180100Z 18008KT 7000 BKN100 01/01 Q1019;EQDQ01+000000PRSWM2
0182072553999992000021819004+47030+005430FM-15+0196LFGJ V0201901N008210147019N0080001N1+00701+00701999999ADDGA1021+003309999GA2071+014709999GF107991999999999999999999MA1101021999999MW1611REMMET056LFGJ 181900Z 19016KT 8000 -RA FEW011 BKN049 07/07 Q1010;EQDQ01+000003PRSWM1Q02    003PRSWM1
0184072553999992000021820004+47030+005430FM-15+0196LFGJ V0202001N006710087019N0112651N1+00801+00701999999ADDGA1021+003609999GA2071+008709999GF107991999999999999999999MA1101021999999MW1801REMMET058LFGJ 182000Z 20013KT 9999 -SHRA FEW012 BKN029 08/07 Q1010;EQDQ01+000003PRSWM1Q02    003PRSWM1
0184072553999992000021821004+47030+005430FM-15+0196LFGJ V0202001N007210141019N0112651N1+00801+00701999999ADDGA1021+004809999GA2071+014109999GF107991999999999999999999MA1101021999999MW1801REMMET058LFGJ 182100Z 20014KT 9999 -SHRA FEW016 BKN047 08/07 Q1010;EQDQ01+000003PRSWM1Q02    003PRSWM1
0184072553999992000021822004+47030+005430FM-15+0196LFGJ V0202301N003110120019N0112651N1+00801+00801999999ADDGA1021+001509999GA2071+012009999GF107991999999999999999999MA1101021999999MW1801REMMET058LFGJ 182200Z 23006KT 9999 -SHRA FEW005 BKN040 08/08 Q1010;EQDQ01+000003PRSWM1Q02    003PRSWM1
0139072553999992000021823004+47030+005430FM-15+0196LFGJ V0202301N005710105019N0112651N1+00701+00601999999ADDGA1071+010509999GF107991999999999999999999MA1101021999999MW1001REMMET045LFGJ 182300Z 23011KT 9999 BKN035 07/06 Q1010;EQDQ01+000000PRSWM2
0139072553999992000021900004+47030+005430FM-15+0196LFGJ V0202201N005110147019N0112651N1+00701+00601999999ADDGA1071+014709999GF107991999999999999999999MA1101021999999MW1001REMMET045LFGJ 190000Z 22010KT 9999 BKN049 07/06 Q1010;EQDQ01+000000PRSWM2
0162072553999992000021901004+47030+005430FM-15+0196LFGJ V0202101N005110300019N0112651N1+00701+00501999999ADDGA1021+009009999GA2071+030009999GF107991999999999999999999MA1101021999999MW1001REMMET052LFGJ 190100Z 21010KT 9999 SCT030 BKN100 07/05 Q1010;EQDQ01+000000PRSWM2
0092072553999992000022119004+47030+005430FM-15+0196LFGJ V0200101N00311220001CN0099001N1+00201-00301999999ADDMA1102811999999MW1001REMMET040LFGJ 211900Z 01006KT CAVOK 02/M03 Q1028;EQDQ01+000000PRSWM2
0092072553999992000022120004+47030+005430FM-15+0196LFGJ V0200401N00311220001CN0099001N1+00101-00301999999ADDMA1102811999999MW1001REMMET040LFGJ 212000Z 04006KT CAVOK 01/M03 Q1028;EQDQ01+000000PRSWM2
0092072553999992000022121004+47030+005430FM-15+0196LFGJ V0200501N00211220001CN0099001N1+00101-00201999999ADDMA1102711999999MW1001REMMET040LFGJ 212100Z 05004KT CAVOK 01/M02 Q1027;EQDQ01+000000PRSWM2
0093072553999992000022122004+47030+005430FM-15+0196LFGJ V0200901N00261220001CN0099001N1+00001-00301999999ADDMA1102711999999MW1001REMMET041LFGJ 212200Z 09005KT CAVOK M00/M03 Q1027;EQDQ01+000000PRSWM2
0093072553999992000022123004+47030+005430FM-15+0196LFGJ V0200301N00151220001CN0099001N1-00101-00401999999ADDMA1102611999999MW1001REMMET041LFGJ 212300Z 03003KT CAVOK M01/M04 Q1026;EQDQ01+000000PRSWM2
0093072553999992000022200004+47030+005430FM-15+0196LFGJ V0200901N00101220001CN0099001N1-00101-00301999999ADDMA1102611999999MW1001REMMET041LFGJ 220000Z 09002KT CAVOK M01/M03 Q1026;EQDQ01+000000PRSWM2
0093072553999992000022201004+47030+005430FM-15+0196LFGJ V0203401N00151220001CN0099001N1-00101-00401999999ADDMA1102711999999MW1001REMMET041LFGJ 220100Z 34003KT CAVOK M01/M04 Q1027;EQDQ01+000000PRSWM2
0092072553999992000022219004+47030+005430FM-15+0196LFGJ V0200201N00101220001CN0099001N1+00101-00301999999ADDMA1102401999999MW1001REMMET040LFGJ 221900Z 02002KT CAVOK 01/M03 Q1024;EQDQ01+000000PRSWM2
0092072553999992000022220004+47030+005430FM-15+0196LFGJ V0200201N00101220001CN0099001N1+00101-00301999999ADDMA1102401999999MW1001REMMET040LFGJ 222000Z 02002KT CAVOK 01/M03 Q1024;EQDQ01+000000PRSWM2
0093072553999992000022221004+47030+005430FM-15+0196LFGJ V0200901N00101220001CN0099001N1+00001-00201999999ADDMA1102511999999MW1001REMMET041LFGJ 222100Z 09002KT CAVOK M00/M02 Q1025;EQDQ01+000000PRSWM2
0093072553999992000022222004+47030+005430FM-15+0196LFGJ V0200401N00211220001CN0099001N1-00101-00201999999ADDMA1102511999999MW1001REMMET041LFGJ 222200Z 04004KT CAVOK M01/M02 Q1025;EQDQ01+000000PRSWM2
0093072553999992000022223004+47030+005430FM-15+0196LFGJ V0203601N00101220001CN0099001N1-00201-00301999999ADDMA1102511999999MW1001REMMET041LFGJ 222300Z 36002KT CAVOK M02/M03 Q1025;EQDQ01+000000PRSWM2
0092072553999992000022319004+47030+005430FM-15+0196LFGJ V0201201N00211220001CN0099001N1+00301-00201999999ADDMA1102811999999MW1001REMMET040LFGJ 231900Z 12004KT CAVOK 03/M02 Q1028;EQDQ01+000000PRSWM2
0092072553999992000022321004+47030+005430FM-15+0196LFGJ V0200401N00101220001CN0099001N1+00101-00201999999ADDMA1102811999999MW1001REMMET040LFGJ 232100Z 04002KT CAVOK 01/M02 Q1028;EQDQ01+000000PRSWM2
0093072553999992000022322004+47030+005430FM-15+0196LFGJ V0201001N00101220001CN0099001N1-00101-00201999999ADDMA1102811999999MW1001REMMET041LFGJ 232200Z 10002KT CAVOK M01/M02 Q1028;EQDQ01+000000PRSWM2
0093072553999992000022323004+47030+005430FM-15+0196LFGJ V0200701N00101220001CN0099001N1-00101-00201999999ADDMA1102911999999MW1001REMMET041LFGJ 232300Z 07002KT CAVOK M01/M02 Q1029;EQDQ01+000000PRSWM2
0093072553999992000022400004+47030+005430FM-15+0196LFGJ V0200901N00211220001CN0099001N1-00101-00201999999ADDMA1102911999999MW1001REMMET041LFGJ 240000Z 09004KT CAVOK M01/M02 Q1029;EQDQ01+000000PRSWM2
0093072553999992000022401004+47030+005430FM-15+0196LFGJ V0200901N00211220001CN0099001N1-00201-00301999999ADDMA1102911999999MW1001REMMET041LFGJ 240100Z 09004KT CAVOK M02/M03 Q1029;EQDQ01+000000PRSWM2
0162072553999992000022419004+47030+005430FM-15+0196LFGJ V0201901N003110300019N0112651N1+00801+00401999999ADDGA1021+004509999GA2081+030009999GF108991999999999999999999MA1102911999999MW1001REMMET052LFGJ 241900Z 19006KT 9999 SCT015 OVC100 08/04 Q1029;EQDQ01+000000PRSWM2
0162072553999992000022421004+47030+005430FM-15+0196LFGJ V0202201N002110063019N0112651N1+00701+00501999999ADDGA1021+002109999GA2071+006309999GF107991999999999999999999MA1102911999999MW1001REMMET052LFGJ 242100Z 22004KT 9999 FEW007 BKN021 07/05 Q1029;EQDQ01+000000PRSWM2
0162072553999992000022423004+47030+005430FM-15+0196LFGJ V0201901N003610117019N0112651N1+00701+00501999999ADDGA1021+006309999GA2081+011709999GF108991999999999999999999MA1102811999999MW1001REMMET052LFGJ 242300Z 19007KT 9999 FEW021 OVC039 07/05 Q1028;EQDQ01+000000PRSWM2
0162072553999992000022500004+47030+005430FM-15+0196LFGJ V0202001N003110102019N0112651N1+00801+00501999999ADDGA1021+007809999GA2081+010209999GF108991999999999999999999MA1102811999999MW1001REMMET052LFGJ 250000Z 20006KT 9999 FEW026 OVC034 08/05 Q1028;EQDQ01+000000PRSWM2
0147072553999992000022501004+47030+005430FM-15+0196LFGJ V0202201N003610099019N0112651N1+00801+00501999999ADDGA1081+009909999GF108991999999999999999999MA1102811999999MW1001REMMET053LFGJ 250100Z 22007KT 180V270 9999 OVC033 08/05 Q1028;EQDQ01+000000PRSWM2
0182072553999992000022519004+47030+005430FM-15+0196LFGJ V0200301N004110042019N0070001N1+00701+00701999999ADDGA1021+001809999GA2081+004209999GF108991999999999999999999MA1103121999999MW1611REMMET056LFGJ 251900Z 03008KT 7000 -RA FEW006 OVC014 07/07 Q1031;EQDQ01+000003PRSWM1Q02    003PRSWM1
0182072553999992000022520004+47030+005430FM-15+0196LFGJ V0200201N003110057019N0070001N1+00701+00701999999ADDGA1021+002409999GA2081+005709999GF108991999999999999999999MA1103121999999MW1611REMMET056LFGJ 252000Z 02006KT 7000 -RA FEW008 OVC019 07/07 Q1031;EQDQ01+000003PRSWM1Q02    003PRSWM1
0191072553999992000022521004+47030+005430FM-15+0196LFGJ V0200101N002110069019N0040001N1+00701+00701999999ADDGA1021+003609999GA2081+006909999GF108991999999999999999999MA1103121999999MW1101MW2611REMMET059LFGJ 252100Z 01004KT 4000 -RA BR FEW012 OVC023 07/07 Q1031;EQDQ01+000003PRSWM1Q02    003PRSWM1
0162072553999992000022522004+47030+005430FM-15+0196LFGJ V0200101N002110075019N0050001N1+00701+00701999999ADDGA1021+002709999GA2071+007509999GF107991999999999999999999MA1103121999999MW1001REMMET052LFGJ 252200Z 01004KT 5000 FEW009 BKN025 07/07 Q1031;EQDQ01+000000PRSWM2
0139072553999992000022523004+47030+005430FM-15+0196LFGJ V0200101N002110078019N0050001N1+00601+00601999999ADDGA1071+007809999GF107991999999999999999999MA1103121999999MW1001REMMET045LFGJ 252300Z 01004KT 5000 BKN026 06/06 Q1031;EQDQ01+000000PRSWM2
0139072553999992000022600004+47030+005430FM-15+0196LFGJ V0200101N003110078019N0050001N1+00601+00601999999ADDGA1071+007809999GF107991999999999999999999MA1103121999999MW1001REMMET045LFGJ 260000Z 01006KT 5000 BKN026 06/06 Q1031;EQDQ01+000000PRSWM2
0158072553999992000022601004+47030+005430FM-15+0196LFGJ V0203401N003112200019N0040001N1+00501+00501999999ADDGA1021+008109999GF102991999999999999999999MA1103121999999MW1101REMMET048LFGJ 260100Z 34006KT 4000 BR FEW027 05/05 Q1031;EQDQ01+000003PRSWM1Q02    003PRSWM1
0185072553999992000022819004+47030+005430FM-15+0196LFGJ V0202301N006210240019N0112651N1+01101+00901999999ADDGA1021+008109999GA2021+013209999GA3081+024009999GF108991999999999999999999MA1102301999999MW1001REMMET059LFGJ 281900Z 23012KT 9999 FEW027 SCT044 OVC080 11/09 Q1023;EQDQ01+000000PRSWM2
0191072553999992000022820004+47030+005430FM-15+0196LFGJ V0202201N004110108019N0040001N1+01001+00901999999ADDGA1021+007809999GA2071+010809999GF107991999999999999999999MA1102301999999MW1101MW2611REMMET059LFGJ 282000Z 22008KT 4000 -RA BR FEW026 BKN036 10/09 Q1023;EQDQ01+000003PRSWM1Q02    003PRSWM1
0222072553999992000022821004+47030+005430FM-15+0196LFGJ V0202201N003110045019N0030001N1+01001+01001999999ADDGA1021+002109999GA2071+004509999GA3071+011709999GF107991999999999999999999MA1102401999999MW1101MW2611REMMET074LFGJ 282100Z 22006KT 180V250 3000 -RA BR FEW007 BKN015 BKN039 10/10 Q1024;EQDQ01+000003PRSWM1Q02    003PRSWM1
0214072553999992000022822004+47030+005430FM-15+0196LFGJ V0202001N005110138019N0035001N1+00901+00901999999ADDGA1021+008709999GA2021+011409999GA3081+013809999GF108991999999999999999999MA1102401999999MW1101MW2611REMMET066LFGJ 282200Z 20010KT 3500 -RA BR FEW029 SCT038 OVC046 09/09 Q1024;EQDQ01+000003PRSWM1Q02    003PRSWM1
0214072553999992000022823004+47030+005430FM-15+0196LFGJ V0202001N004110132019N0035001N1+00901+00901999999ADDGA1021+008409999GA2021+010509999GA3071+013209999GF107991999999999999999999MA1102401999999MW1101MW2611REMMET066LFGJ 282300Z 20008KT 3500 -RA BR FEW028 SCT035 BKN044 09/09 Q1024;EQDQ01+000003PRSWM1Q02    003PRSWM1
0214072553999992000022900004+47030+005430FM-15+0196LFGJ V0202401N005110081019N0040001N1+00901+00801999999ADDGA1021+001809999GA2021+004809999GA3081+008109999GF108991999999999999999999MA1102401999999MW1101MW2611REMMET066LFGJ 290000Z 24010KT 4000 -RA BR FEW006 SCT016 OVC027 09/08 Q1024;EQDQ01+000003PRSWM1Q02    003PRSWM1
0159072553999992000022901004+47030+005430FM-15+0196LFGJ V0202101N004110114019N0112651N1+00801+00801999999ADDGA1071+011409999GF107991999999999999999999MA1102401999999MW1611REMMET049LFGJ 290100Z 21008KT 9999 -RA BKN038 08/08 Q1024;EQDQ01+000003PRSWM1Q02    003PRSWM1
0182072553999992000022919004+47030+005430FM-15+0196LFGJ V0202001N009810123019N0080001N1+00901+00801999999ADDGA1021+005709999GA2071+012309999GF107991999999999999999999MA1101191999999MW1611REMMET056LFGJ 291900Z 20019KT 8000 -RA FEW019 BKN041 09/08 Q1012;EQDQ01+000003PRSWM1Q02    003PRSWM1
0193072553999992000022920004+47030+005430FM-15+0196LFGJ V0202101N010810102019N0050001N1+00901+00801999999ADDGA1021+005709999GA2081+010209999GF108991999999999999999999MA1101081999999MW1611OC101701REMMET059LFGJ 292000Z 21021G33KT 5000 -RA FEW019 OVC034 09/08 Q1011;EQDQ01+000003PRSWM1Q02    003PRSWM1
0182072553999992000022921004+47030+005430FM-15+0196LFGJ V0202101N010810102019N0112651N1+00901+00701999999ADDGA1021+006009999GA2081+010209999GF108991999999999999999999MA1101081999999MW1611REMMET056LFGJ 292100Z 21021KT 9999 -RA FEW020 OVC034 09/07 Q1011;EQDQ01+000003PRSWM1Q02    003PRSWM1
0170072553999992000022922004+47030+005430FM-15+0196LFGJ V0202001N010810108019N0112651N1+00901+00701999999ADDGA1081+010809999GF108991999999999999999999MA1101021999999MW1611OC101801REMMET052LFGJ 292200Z 20021G35KT 9999 -RA OVC036 09/07 Q1010;EQDQ01+000003PRSWM1Q02    003PRSWM1
0162072553999992000022923004+47030+005430FM-15+0196LFGJ V0202001N009810102019N0080001N1+00901+00801999999ADDGA1021+004809999GA2081+010209999GF108991999999999999999999MA1100911999999MW1001REMMET052LFGJ 292300Z 20019KT 8000 FEW016 OVC034 09/08 Q1009;EQDQ01+000000PRSWM2
0159072553999992000030100004+47030+005430FM-15+0196LFGJ V0202101N009810099019N0080001N1+00901+00701999999ADDGA1081+009909999GF108991999999999999999999MA1100911999999MW1611REMMET049LFGJ 010000Z 21019KT 8000 -RA OVC033 09/07 Q1009;EQDQ01+000003PRSWM1Q02    003PRSWM1
0182072553999992000030101004+47030+005430FM-15+0196LFGJ V0202301N008710114019N0112651N1+00801+00601999999ADDGA1021+003009999GA2081+011409999GF108991999999999999999999MA1100911999999MW1611REMMET056LFGJ 010100Z 23017KT 9999 -RA FEW010 OVC038 08/06 Q1009;EQDQ01+000003PRSWM1Q02    003PRSWM1
0162072553999992000030119004+47030+005430FM-15+0196LFGJ V0203201N004610180019N0112651N1+00501+00301999999ADDGA1021+004809999GA2071+018009999GF107991999999999999999999MA1101391999999MW1001REMMET052LFGJ 011900Z 32009KT 9999 FEW016 BKN066 05/03 Q1014;EQDQ01+000000PRSWM2
0185072553999992000030120004+47030+005430FM-15+0196LFGJ V0203301N002110690019N0112651N1+00401+00301999999ADDGA1021+004809999GA2021+018009999GA3071+069009999GF107991999999999999999999MA1101491999999MW1001REMMET059LFGJ 012000Z 33004KT 9999 FEW016 SCT066 BKN230 04/03 Q1015;EQDQ01+000000PRSWM2
0162072553999992000030121004+47030+005430FM-15+0196LFGJ V0202601N001510180019N0112651N1+00401+00301999999ADDGA1021+009909999GA2071+018009999GF107991999999999999999999MA1101691999999MW1001REMMET052LFGJ 012100Z 26003KT 9999 FEW033 BKN066 04/03 Q1017;EQDQ01+000000PRSWM2
0091072553999992000030123004+47030+005430FM-15+0196LFGJ V0202901N00211220001CN0099001N1+00301+00201999999ADDMA1101901999999MW1001REMMET039LFGJ 012300Z 29004KT CAVOK 03/02 Q1019;EQDQ01+000000PRSWM2
0091072553999992000030200004+47030+005430FM-15+0196LFGJ V0203001N00211220001CN0099001N1+00401+00201999999ADDMA1102001999999MW1001REMMET039LFGJ 020000Z 30004KT CAVOK 04/02 Q1020;EQDQ01+000000PRSWM2
0091072553999992000030201004+47030+005430FM-15+0196LFGJ V0203101N00311220001CN0099001N1+00301+00201999999ADDMA1102101999999MW1001REMMET039LFGJ 020100Z 31006KT CAVOK 03/02 Q1021;EQDQ01+000000PRSWM2
0145072553999992000030219004+47030+005430FM-15+0196LFGJ V0202001N004112200019N0112651N1+00301+00001999999ADDGA1021+021009999GF102991999999999999999999MA1102611999999MW1001REMMET051LFGJ 021900Z 20008KT 9999 FEW070 03/00 Q1026 NOSIG;EQDQ01+000000PRSWM2
0091072553999992000030220004+47030+005430FM-15+0196LFGJ V0201901N00311220001CN0099001N1+00301-00101999999ADDMA1102611999999MW1001REMMET039LFGJ 022000Z 19006KTCAVOK 03/M01 Q1026;EQDQ01+000000PRSWM2
0140072553999992000030221004+47030+005430FM-15+0196LFGJ V0201901N005110141019N0112651N1+00401+00001999999ADDGA1071+014109999GF107991999999999999999999MA1102611999999MW1001REMMET046LFGJ 022100Z 19010KT 9999 BKN047 04/M00 Q1026;EQDQ01+000000PRSWM2
0140072553999992000030222004+47030+005430FM-15+0196LFGJ V0201901N005110144019N0112651N1+00401+00001999999ADDGA1071+014409999GF107991999999999999999999MA1102611999999MW1001REMMET046LFGJ 022200Z 19010KT 9999 BKN048 04/M00 Q1026;EQDQ01+000000PRSWM2
0163072553999992000030223004+47030+005430FM-15+0196LFGJ V0201901N006212200019N0112651N1+00401-00101999999ADDGA1021+014709999GA2021+069009999GF104991999999999999999999MA1102511999999MW1001REMMET053LFGJ 022300Z 19012KT 9999 FEW049 SCT230 04/M01 Q1025;EQDQ01+000000PRSWM2
0092072553999992000030300004+47030+005430FM-15+0196LFGJ V0202001N00621220001CN0099001N1+00401-00101999999ADDMA1102401999999MW1001REMMET040LFGJ 030000Z 20012KT CAVOK 04/M01 Q1024;EQDQ01+000000PRSWM2
0091072553999992000030301004+47030+005430FM-15+0196LFGJ V0202001N00571220001CN0099001N1+00401+00001999999ADDMA1102301999999MW1001REMMET039LFGJ 030100Z 20011KT CAVOK 04/00 Q1023;EQDQ01+000000PRSWM2
0139072553999992000030319004+47030+005430FM-15+0196LFGJ V0202001N008210102019N0112651N1+00901+00301999999ADDGA1081+010209999GF108991999999999999999999MA1101691999999MW1001REMMET045LFGJ 031900Z 20016KT 9999 OVC034 09/03 Q1017;EQDQ01+000000PRSWM2
0139072553999992000030320004+47030+005430FM-15+0196LFGJ V0202101N008210096019N0112651N1+00901+00301999999ADDGA1081+009609999GF108991999999999999999999MA1101591999999MW1001REMMET045LFGJ 032000Z 21016KT 9999 OVC032 09/03 Q1016;EQDQ01+000000PRSWM2
0139072553999992000030321004+47030+005430FM-15+0196LFGJ V0202101N008710102019N0112651N1+00901+00301999999ADDGA1081+010209999GF108991999999999999999999MA1101591999999MW1001REMMET045LFGJ 032100Z 21017KT 9999 OVC034 09/03 Q1016;EQDQ01+000000PRSWM2
0139072553999992000030322004+47030+005430FM-15+0196LFGJ V0202001N008710096019N0112651N1+00801+00301999999ADDGA1071+009609999GF107991999999999999999999MA1101491999999MW1001REMMET045LFGJ 032200Z 20017KT 9999 BKN032 08/03 Q1015;EQDQ01+000000PRSWM2
0159072553999992000030323004+47030+005430FM-15+0196LFGJ V0202001N008710093019N0112651N1+00801+00401999999ADDGA1081+009309999GF108991999999999999999999MA1101491999999MW1611REMMET049LFGJ 032300Z 20017KT 9999 -RA OVC031 08/04 Q1015;EQDQ01+000003PRSWM1Q02    003PRSWM1
0182072553999992000030400004+47030+005430FM-15+0196LFGJ V0202101N010810084019N0112651N1+00801+00401999999ADDGA1021+005109999GA2081+008409999GF108991999999999999999999MA1101391999999MW1611REMMET056LFGJ 040000Z 21021KT 9999 -RA FEW017 OVC028 08/04 Q1014;EQDQ01+000003PRSWM1Q02    003PRSWM1
0182072553999992000030401004+47030+005430FM-15+0196LFGJ V0202101N008710075019N0112651N1+00701+00501999999ADDGA1021+005109999GA2081+007509999GF108991999999999999999999MA1101391999999MW1611REMMET056LFGJ 040100Z 21017KT 9999 -RA FEW017 OVC025 07/05 Q1014;EQDQ01+000003PRSWM1Q02    003PRSWM1
0092072553999992000030619004+47030+005430FM-15+0196LFGJ V0209999C00001220001CN0099001N1+00401-00101999999ADDMA1102911999999MW1001REMMET040LFGJ 061900Z 00000KT CAVOK 04/M01 Q1029;EQDQ01+000000PRSWM2
0092072553999992000030621004+47030+005430FM-15+0196LFGJ V0200901N00211220001CN0099001N1+00101-00101999999ADDMA1102911999999MW1001REMMET040LFGJ 062100Z 09004KT CAVOK 01/M01 Q1029;EQDQ01+000000PRSWM2
0092072553999992000030622004+47030+005430FM-15+0196LFGJ V0200701N00211220001CN0099001N1+00001-00101999999ADDMA1102911999999MW1001REMMET040LFGJ 062200Z 07004KT CAVOK 00/M01 Q1029;EQDQ01+000000PRSWM2
0092072553999992000030623004+47030+005430FM-15+0196LFGJ V0200801N00101220001CN0099001N1+00101+00001999999ADDMA1102911999999MW1001REMMET040LFGJ 062300Z 08002KT CAVOK 01/M00 Q1029;EQDQ01+000000PRSWM2
0093072553999992000030700004+47030+005430FM-15+0196LFGJ V0200501N00151220001CN0099001N1+00001-00201999999ADDMA1102911999999MW1001REMMET041LFGJ 070000Z 05003KT CAVOK M00/M02 Q1029;EQDQ01+000000PRSWM2
0093072553999992000030701004+47030+005430FM-15+0196LFGJ V0200701N00211220001CN0099001N1-00101-00201999999ADDMA1102911999999MW1001REMMET041LFGJ 070100Z 07004KT CAVOK M01/M02 Q1029;EQDQ01+000000PRSWM2
0092072553999992000030719004+47030+005430FM-15+0196LFGJ V0209999C00001220001CN0099001N1+00501+00001999999ADDMA1102911999999MW1001REMMET040LFGJ 071900Z 00000KT CAVOK 05/M00 Q1029;EQDQ01+000000PRSWM2
0091072553999992000030720004+47030+005430FM-15+0196LFGJ V0200801N00101220001CN0099001N1+00401+00001999999ADDMA1102911999999MW1001REMMET039LFGJ 072000Z 08002KT CAVOK 04/00 Q1029;EQDQ01+000000PRSWM2
0091072553999992000030721004+47030+005430FM-15+0196LFGJ V0200801N00151220001CN0099001N1+00201+00001999999ADDMA1103011999999MW1001REMMET039LFGJ 072100Z 08003KT CAVOK 02/00 Q1030;EQDQ01+000000PRSWM2
0092072553999992000030722004+47030+005430FM-15+0196LFGJ V0200701N00211220001CN0099001N1+00201+00001999999ADDMA1103011999999MW1001REMMET040LFGJ 072200Z 07004KT CAVOK 02/M00 Q1030;EQDQ01+000000PRSWM2
0092072553999992000030723004+47030+005430FM-15+0196LFGJ V0200801N00211220001CN0099001N1+00101-00101999999ADDMA1103011999999MW1001REMMET040LFGJ 072300Z 08004KT CAVOK 01/M01 Q1030;EQDQ01+000000PRSWM2
0093072553999992000030800004+47030+005430FM-15+0196LFGJ V0200901N00211220001CN0099001N1+00001-00101999999ADDMA1103011999999MW1001REMMET041LFGJ 080000Z 09004KT CAVOK M00/M01 Q1030;EQDQ01+000000PRSWM2
0093072553999992000030801004+47030+005430FM-15+0196LFGJ V0200801N00211220001CN0099001N1+00001-00101999999ADDMA1103121999999MW1001REMMET041LFGJ 080100Z 08004KT CAVOK M00/M01 Q1031;EQDQ01+000000PRSWM2
0091072553999992000030819004+47030+005430FM-15+0196LFGJ V0202001N00311220001CN0099001N1+01101+00601999999ADDMA1103121999999MW1001REMMET039LFGJ 081900Z 20006KT CAVOK 11/06 Q1031;EQDQ01+000000PRSWM2
0091072553999992000030820004+47030+005430FM-15+0196LFGJ V0202101N00411220001CN0099001N1+00901+00501999999ADDMA1103121999999MW1001REMMET039LFGJ 082000Z 21008KT CAVOK 09/05 Q1031;EQDQ01+000000PRSWM2
0091072553999992000030821004+47030+005430FM-15+0196LFGJ V0202101N00311220001CN0099001N1+01001+00501999999ADDMA1103121999999MW1001REMMET039LFGJ 082100Z 21006KT CAVOK 10/05 Q1031;EQDQ01+000000PRSWM2
0091072553999992000030822004+47030+005430FM-15+0196LFGJ V0201901N00311220001CN0099001N1+00801+00501999999ADDMA1103181999999MW1001REMMET039LFGJ 082200Z 19006KT CAVOK 08/05 Q1032;EQDQ01+000000PRSWM2
0091072553999992000030823004+47030+005430FM-15+0196LFGJ V0201801N00311220001CN0099001N1+00801+00501999999ADDMA1103121999999MW1001REMMET039LFGJ 082300Z 18006KT CAVOK 08/05 Q1031;EQDQ01+000000PRSWM2
0091072553999992000030900004+47030+005430FM-15+0196LFGJ V0201901N00411220001CN0099001N1+01001+00501999999ADDMA1103121999999MW1001REMMET039LFGJ 090000Z 19008KT CAVOK 10/05 Q1031;EQDQ01+000000PRSWM2
0091072553999992000030901004+47030+005430FM-15+0196LFGJ V0201901N00411220001CN0099001N1+00801+00501999999ADDMA1103121999999MW1001REMMET039LFGJ 090100Z 19008KT CAVOK 08/05 Q1031;EQDQ01+000000PRSWM2
0139072553999992000030919004+47030+005430FM-15+0196LFGJ V0202501N002612200019N0112651N1+01401+00601999999ADDGA1021+014109999GF104991999999999999999999MA1102811999999MW1001REMMET045LFGJ 091900Z 25005KT 9999 SCT047 14/06 Q1028;EQDQ01+000000PRSWM2
0139072553999992000030920004+47030+005430FM-15+0196LFGJ V0202401N001010114019N0112651N1+01301+00701999999ADDGA1071+011409999GF107991999999999999999999MA1102811999999MW1001REMMET045LFGJ 092000Z 24002KT 9999 BKN038 13/07 Q1028;EQDQ01+000000PRSWM2
0139072553999992000030921004+47030+005430FM-15+0196LFGJ V0202701N003110105019N0112651N1+01301+00701999999ADDGA1071+010509999GF107991999999999999999999MA1102911999999MW1001REMMET045LFGJ 092100Z 27006KT 9999 BKN035 13/07 Q1029;EQDQ01+000000PRSWM2
0139072553999992000030922004+47030+005430FM-15+0196LFGJ V0202601N001010117019N0112651N1+01301+00901999999ADDGA1071+011709999GF107991999999999999999999MA1102911999999MW1001REMMET045LFGJ 092200Z 26002KT 9999 BKN039 13/09 Q1029;EQDQ01+000000PRSWM2
0139072553999992000030923004+47030+005430FM-15+0196LFGJ V0203401N002110087019N0112651N1+01301+00901999999ADDGA1071+008709999GF107991999999999999999999MA1102911999999MW1001REMMET045LFGJ 092300Z 34004KT 9999 BKN029 13/09 Q1029;EQDQ01+000000PRSWM2
0162072553999992000031000004+47030+005430FM-15+0196LFGJ V0200101N002110096019N0112651N1+01201+01001999999ADDGA1021+003009999GA2071+009609999GF107991999999999999999999MA1102911999999MW1001REMMET052LFGJ 100000Z 01004KT 9999 FEW010 BKN032 12/10 Q1029;EQDQ01+000000PRSWM2
0162072553999992000031001004+47030+005430FM-15+0196LFGJ V0202201N001010135019N0112651N1+01001+01001999999ADDGA1021+007209999GA2071+013509999GF107991999999999999999999MA1102911999999MW1001REMMET052LFGJ 100100Z 22002KT 9999 FEW024 BKN045 10/10 Q1029;EQDQ01+000000PRSWM2
0091072553999992000031019004+47030+005430FM-15+0196LFGJ V0201701N00101220001CN0099001N1+00801+00601999999ADDMA1102811999999MW1001REMMET039LFGJ 101900Z 17002KT CAVOK 08/06 Q1028;EQDQ01+000000PRSWM2
0091072553999992000031020004+47030+005430FM-15+0196LFGJ V0200901N00101220001CN0099001N1+00601+00501999999ADDMA1102711999999MW1001REMMET039LFGJ 102000Z 09002KT CAVOK 06/05 Q1027;EQDQ01+000000PRSWM2
0139072553999992000031021004+47030+005430FM-15+0196LFGJ V0201001N001512200019N0080001N1+00601+00501999999ADDGA1021+069009999GF102991999999999999999999MA1102711999999MW1001REMMET045LFGJ 102100Z 10003KT 8000 FEW230 06/05 Q1027;EQDQ01+000000PRSWM2
0160072553999992000031022004+47030+005430FM-15+0196LFGJ V0200501N001012200019N0060001N1+00501+00401999999ADDGA1021+069009999GF102991999999999999999999MA1102711999999MW1401REMMET050LFGJ 102200Z 05002KT 6000 VCFG FEW230 05/04 Q1027;EQDQ01+000003PRSWM1Q02    003PRSWM1
0160072553999992000031023004+47030+005430FM-15+0196LFGJ V0200701N001012200019N0030001N1+00401+00401999999ADDGA1021+069009999GF102991999999999999999999MA1102611999999MW1121REMMET050LFGJ 102300Z 07002KT 3000 MIFG FEW230 04/04 Q1026;EQDQ01+000003PRSWM1Q02    003PRSWM1
0160072553999992000031100004+47030+005430FM-15+0196LFGJ V0200801N001012200019N0030001N1+00201+00201999999ADDGA1021+069009999GF102991999999999999999999MA1102611999999MW1121REMMET050LFGJ 110000Z 08002KT 3000 MIFG FEW230 02/02 Q1026;EQDQ01+000003PRSWM1Q02    003PRSWM1
0180072553999992000031101004+47030+005430FM-15+0196LFGJ V0201001N001012200019N0020001N1+00201+00201999999ADDED199U05509GA1021+069009999GF102991999999999999999999MA1102611999999MW1121REMMET059LFGJ 110100Z 10002KT 2000 R06/0550 MIFG FEW230 02/02 Q1026;EQDQ01+000003PRSWM1Q02    003PRSWM1
0091072553999992000031319004+47030+005430FM-15+0196LFGJ V0200501N00211220001CN0099001N1+00901+00301999999ADDMA1102511999999MW1001REMMET039LFGJ 131900Z 05004KT CAVOK 09/03 Q1025;EQDQ01+000000PRSWM2
0091072553999992000031320004+47030+005430FM-15+0196LFGJ V0200201N00211220001CN0099001N1+00701+00301999999ADDMA1102511999999MW1001REMMET039LFGJ 132000Z 02004KT CAVOK 07/03 Q1025;EQDQ01+000000PRSWM2
0091072553999992000031321004+47030+005430FM-15+0196LFGJ V0203101N00101220001CN0099001N1+00801+00301999999ADDMA1102611999999MW1001REMMET039LFGJ 132100Z 31002KT CAVOK 08/03 Q1026;EQDQ01+000000PRSWM2
0091072553999992000031322004+47030+005430FM-15+0196LFGJ V0200101N00311220001CN0099001N1+00901+00301999999ADDMA1102611999999MW1001REMMET039LFGJ 132200Z 01006KT CAVOK 09/03 Q1026;EQDQ01+000000PRSWM2
0091072553999992000031323004+47030+005430FM-15+0196LFGJ V0203501N00411220001CN0099001N1+00901+00301999999ADDMA1102611999999MW1001REMMET039LFGJ 132300Z 35008KT CAVOK 09/03 Q1026;EQDQ01+000000PRSWM2
0056072553999992000031400004+47030+005430FM-16+0196LFGJ V02099999999992200019N0112651N1+99999+99999999999ADDMW1001REMMET019LFGJ 140000Z CAVOK;EQDQ01+000000PRSWM2
0091072553999992000031401004+47030+005430FM-15+0196LFGJ V0203601N00311220001CN0099001N1+00901+00401999999ADDMA1102611999999MW1001REMMET039LFGJ 140100Z 36006KT CAVOK 09/04 Q1026;EQDQ01+000000PRSWM2
0162072553999992000031419004+47030+005430FM-15+0196LFGJ V0202101N006210300019N0112651N1+01301+00901999999ADDGA1021+013809999GA2071+030009999GF107991999999999999999999MA1102301999999MW1001REMMET052LFGJ 141900Z 21012KT 9999 SCT046 BKN100 13/09 Q1023;EQDQ01+000000PRSWM2
0091072553999992000031420004+47030+005430FM-15+0196LFGJ V0202101N00621220001CN0099001N1+01301+00901999999ADDMA1102201999999MW1001REMMET039LFGJ 142000Z 21012KT CAVOK 13/09 Q1022;EQDQ01+000000PRSWM2
0162072553999992000031421004+47030+005430FM-15+0196LFGJ V0202301N005110138019N0112651N1+01201+00901999999ADDGA1021+010809999GA2071+013809999GF107991999999999999999999MA1102201999999MW1001REMMET052LFGJ 142100Z 23010KT 9999 SCT036 BKN046 12/09 Q1022;EQDQ01+000000PRSWM2
0162072553999992000031422004+47030+005430FM-15+0196LFGJ V0203301N005110240019N0112651N1+01201+00801999999ADDGA1021+007809999GA2071+024009999GF107991999999999999999999MA1102301999999MW1001REMMET052LFGJ 142200Z 33010KT 9999 FEW026 BKN083 12/08 Q1023;EQDQ01+000000PRSWM2
0162072553999992000031423004+47030+005430FM-15+0196LFGJ V0203401N005110123019N0112651N1+01001+00801999999ADDGA1021+007509999GA2071+012309999GF107991999999999999999999MA1102401999999MW1001REMMET052LFGJ 142300Z 34010KT 9999 FEW025 BKN041 10/08 Q1024;EQDQ01+000000PRSWM2
0185072553999992000031500004+47030+005430FM-15+0196LFGJ V0203601N003110147019N0112651N1+01001+00701999999ADDGA1021+006009999GA2021+008109999GA3071+014709999GF107991999999999999999999MA1102401999999MW1001REMMET059LFGJ 150000Z 36006KT 9999 FEW020 SCT027 BKN049 10/07 Q1024;EQDQ01+000000PRSWM2
0162072553999992000031501004+47030+005430FM-15+0196LFGJ V0200201N007710084019N0112651N1+00701+00301999999ADDGA1021+005709999GA2081+008409999GF108991999999999999999999MA1102511999999MW1001REMMET052LFGJ 150100Z 02015KT 9999 FEW019 OVC028 07/03 Q1025;EQDQ01+000000PRSWM2
0092072553999992000031519004+47030+005430FM-15+0196LFGJ V0200201N00411220001CN0099001N1+00301-00301999999ADDMA1103181999999MW1001REMMET040LFGJ 151900Z 02008KT CAVOK 03/M03 Q1032;EQDQ01+000000PRSWM2
0092072553999992000031520004+47030+005430FM-15+0196LFGJ V0200101N00311220001CN0099001N1+00401-00301999999ADDMA1103181999999MW1001REMMET040LFGJ 152000Z 01006KT CAVOK 04/M03 Q1032;EQDQ01+000000PRSWM2
0092072553999992000031522004+47030+005430FM-15+0196LFGJ V0200101N00511220001CN0099001N1+00401-00201999999ADDMA1103181999999MW1001REMMET040LFGJ 152200Z 01010KT CAVOK 04/M02 Q1032;EQDQ01+000000PRSWM2
0092072553999992000031523004+47030+005430FM-15+0196LFGJ V0200101N00411220001CN0099001N1+00301-00201999999ADDMA1103181999999MW1001REMMET040LFGJ 152300Z 01008KT CAVOK 03/M02 Q1032;EQDQ01+000000PRSWM2
0056072553999992000031600004+47030+005430FM-16+0196LFGJ V02099999999992200019N0064371N1+99999+99999999999ADDMW1001REMMET019LFGJ 160000Z CAVOK;EQDQ01+000000PRSWM2
0162072553999992000031619004+47030+005430FM-15+0196LFGJ V0200201N004610300019N0112651N1+00901+00401999999ADDGA1021+011409999GA2071+030009999GF107991999999999999999999MA1103121999999MW1001REMMET052LFGJ 161900Z 02009KT 9999 FEW038 BKN100 09/04 Q1031;EQDQ01+000000PRSWM2
0091072553999992000031620004+47030+005430FM-15+0196LFGJ V0200201N00411220001CN0099001N1+00801+00401999999ADDMA1103121999999MW1001REMMET039LFGJ 162000Z 02008KT CAVOK 08/04 Q1031;EQDQ01+000000PRSWM2
0091072553999992000031621004+47030+005430FM-15+0196LFGJ V0200201N00361220001CN0099001N1+00801+00401999999ADDMA1103121999999MW1001REMMET039LFGJ 162100Z 02007KT CAVOK 08/04 Q1031;EQDQ01+000000PRSWM2
0091072553999992000031622004+47030+005430FM-15+0196LFGJ V0200201N00411220001CN0099001N1+00801+00401999999ADDMA1103011999999MW1001REMMET039LFGJ 162200Z 02008KT CAVOK 08/04 Q1030;EQDQ01+000000PRSWM2
0162072553999992000031623004+47030+005430FM-15+0196LFGJ V0200201N005110300019N0112651N1+00801+00401999999ADDGA1021+010809999GA2071+030009999GF107991999999999999999999MA1103011999999MW1001REMMET052LFGJ 162300Z 02010KT 9999 FEW036 BKN100 08/04 Q1030;EQDQ01+000000PRSWM2
0162072553999992000031700004+47030+005430FM-15+0196LFGJ V0200201N003110240019N0112651N1+00701+00401999999ADDGA1021+008409999GA2071+024009999GF107991999999999999999999MA1103011999999MW1001REMMET052LFGJ 170000Z 02006KT 9999 FEW028 BKN083 07/04 Q1030;EQDQ01+000000PRSWM2
0185072553999992000031701004+47030+005430FM-15+0196LFGJ V0200401N002110240019N0112651N1+00701+00501999999ADDGA1021+010509999GA2021+013809999GA3071+024009999GF107991999999999999999999MA1102911999999MW1001REMMET059LFGJ 170100Z 04004KT 9999 FEW035 SCT046 BKN083 07/05 Q1029;EQDQ01+000000PRSWM2
0139072553999992000031719004+47030+005430FM-15+0196LFGJ V0200101N005110102019N0112651N1+01001+00501999999ADDGA1081+010209999GF108991999999999999999999MA1102711999999MW1001REMMET045LFGJ 171900Z 01010KT 9999 OVC034 10/05 Q1027;EQDQ01+000000PRSWM2
0139072553999992000031720004+47030+005430FM-15+0196LFGJ V0200101N005110117019N0112651N1+01001+00501999999ADDGA1081+011709999GF108991999999999999999999MA1102711999999MW1001REMMET045LFGJ 172000Z 01010KT 9999 OVC039 10/05 Q1027;EQDQ01+000000PRSWM2
0139072553999992000031721004+47030+005430FM-15+0196LFGJ V0203601N004110129019N0112651N1+00901+00501999999ADDGA1081+012909999GF108991999999999999999999MA1102711999999MW1001REMMET045LFGJ 172100Z 36008KT 9999 OVC043 09/05 Q1027;EQDQ01+000000PRSWM2
0139072553999992000031722004+47030+005430FM-15+0196LFGJ V0203601N003610123019N0112651N1+00901+00501999999ADDGA1081+012309999GF108991999999999999999999MA1102711999999MW1001REMMET045LFGJ 172200Z 36007KT 9999 OVC041 09/05 Q1027;EQDQ01+000000PRSWM2
0139072553999992000031723004+47030+005430FM-15+0196LFGJ V0203601N004110120019N0112651N1+00801+00501999999ADDGA1081+012009999GF108991999999999999999999MA1102711999999MW1001REMMET045LFGJ 172300Z 36008KT 9999 OVC040 08/05 Q1027;EQDQ01+000000PRSWM2
0139072553999992000031800004+47030+005430FM-15+0196LFGJ V0200201N004110120019N0080001N1+00801+00501999999ADDGA1081+012009999GF108991999999999999999999MA1102711999999MW1001REMMET045LFGJ 180000Z 02008KT 8000 OVC040 08/05 Q1027;EQDQ01+000000PRSWM2
0139072553999992000031801004+47030+005430FM-15+0196LFGJ V0203601N004110120019N0080001N1+00801+00501999999ADDGA1081+012009999GF108991999999999999999999MA1102711999999MW1001REMMET045LFGJ 180100Z 36008KT 8000 OVC040 08/05 Q1027;EQDQ01+000000PRSWM2
0092072553999992000032019004+47030+005430FM-15+0196LFGJ V0200201N00411220001CN0099001N1+00801+00001999999ADDMA1102101999999MW1001REMMET040LFGJ 201900Z 02008KT CAVOK 08/M00 Q1021;EQDQ01+000000PRSWM2
0092072553999992000032020004+47030+005430FM-15+0196LFGJ V0200301N00411220001CN0099001N1+00801+00001999999ADDMA1102101999999MW1001REMMET040LFGJ 202000Z 03008KT CAVOK 08/M00 Q1021;EQDQ01+000000PRSWM2
0092072553999992000032021004+47030+005430FM-15+0196LFGJ V0200501N00511220001CN0099001N1+00701+00001999999ADDMA1102101999999MW1001REMMET040LFGJ 202100Z 05010KT CAVOK 07/M00 Q1021;EQDQ01+000000PRSWM2
0092072553999992000032022004+47030+005430FM-15+0196LFGJ V0200501N00511220001CN0099001N1+00601+00001999999ADDMA1102101999999MW1001REMMET040LFGJ 202200Z 05010KT CAVOK 06/M00 Q1021;EQDQ01+000000PRSWM2
0092072553999992000032023004+47030+005430FM-15+0196LFGJ V0200401N00511220001CN0099001N1+00601-00101999999ADDMA1102101999999MW1001REMMET040LFGJ 202300Z 04010KT CAVOK 06/M01 Q1021;EQDQ01+000000PRSWM2
0056072553999992000032100004+47030+005430FM-16+0196LFGJ V02099999999992200019N0048281N1+99999+99999999999ADDMW1001REMMET019LFGJ 210000Z CAVOK;EQDQ01+000000PRSWM2
0092072553999992000032101004+47030+005430FM-15+0196LFGJ V0200101N00151220001CN0099001N1+00301-00101999999ADDMA1102101999999MW1001REMMET040LFGJ 210100Z 01003KT CAVOK 03/M01 Q1021;EQDQ01+000000PRSWM2
0091072553999992000032119004+47030+005430FM-15+0196LFGJ V0200401N00151220001CN0099001N1+00701+00101999999ADDMA1101801999999MW1001REMMET039LFGJ 211900Z 04003KT CAVOK 07/01 Q1018;EQDQ01+000000PRSWM2
0091072553999992000032120004+47030+005430FM-15+0196LFGJ V0200501N00101220001CN0099001N1+00601+00101999999ADDMA1101801999999MW1001REMMET039LFGJ 212000Z 05002KT CAVOK 06/01 Q1018;EQDQ01+000000PRSWM2
0091072553999992000032121004+47030+005430FM-15+0196LFGJ V0200801N00151220001CN0099001N1+00401+00001999999ADDMA1101901999999MW1001REMMET039LFGJ 212100Z 08003KT CAVOK 04/00 Q1019;EQDQ01+000000PRSWM2
0091072553999992000032122004+47030+005430FM-15+0196LFGJ V0200601N00101220001CN0099001N1+00401+00201999999ADDMA1101901999999MW1001REMMET039LFGJ 212200Z 06002KT CAVOK 04/02 Q1019;EQDQ01+000000PRSWM2
0092072553999992000032123004+47030+005430FM-15+0196LFGJ V0200701N00311220001CN0099001N1+00201+00001999999ADDMA1101901999999MW1001REMMET040LFGJ 212300Z 07006KT CAVOK 02/M00 Q1019;EQDQ01+000000PRSWM2
0092072553999992000032200004+47030+005430FM-15+0196LFGJ V0200801N00211220001CN0099001N1+00201+00001999999ADDMA1101901999999MW1001REMMET040LFGJ 220000Z 08004KT CAVOK 02/M00 Q1019;EQDQ01+000000PRSWM2
0092072553999992000032201004+47030+005430FM-15+0196LFGJ V0200801N00211220001CN0099001N1+00101+00001999999ADDMA1101901999999MW1001REMMET040LFGJ 220100Z 08004KT CAVOK 01/M00 Q1019;EQDQ01+000000PRSWM2
0091072553999992000032219004+47030+005430FM-15+0196LFGJ V0201601N00211220001CN0099001N1+01101+00101999999ADDMA1101591999999MW1001REMMET039LFGJ 221900Z 16004KT CAVOK 11/01 Q1016;EQDQ01+000000PRSWM2
0091072553999992000032220004+47030+005430FM-15+0196LFGJ V0201401N00101220001CN0099001N1+00801+00301999999ADDMA1101591999999MW1001REMMET039LFGJ 222000Z 14002KT CAVOK 08/03 Q1016;EQDQ01+000000PRSWM2
0091072553999992000032221004+47030+005430FM-15+0196LFGJ V0201701N00211220001CN0099001N1+00601+00201999999ADDMA1101691999999MW1001REMMET039LFGJ 222100Z 17004KT CAVOK 06/02 Q1017;EQDQ01+000000PRSWM2
0091072553999992000032222004+47030+005430FM-15+0196LFGJ V0201701N00211220001CN0099001N1+00601+00201999999ADDMA1101691999999MW1001REMMET039LFGJ 222200Z 17004KT CAVOK 06/02 Q1017;EQDQ01+000000PRSWM2
0091072553999992000032223004+47030+005430FM-15+0196LFGJ V0201901N00311220001CN0099001N1+00701+00201999999ADDMA1101691999999MW1001REMMET039LFGJ 222300Z 19006KT CAVOK 07/02 Q1017;EQDQ01+000000PRSWM2
0056072553999992000032300004+47030+005430FM-16+0196LFGJ V02099999999992200019N0100001N1+99999+99999999999ADDMW1001REMMET019LFGJ 230000Z CAVOK;EQDQ01+000000PRSWM2
0091072553999992000032301004+47030+005430FM-15+0196LFGJ V0202001N00311220001CN0099001N1+00801+00401999999ADDMA1101591999999MW1001REMMET039LFGJ 230100Z 20006KT CAVOK 08/04 Q1016;EQDQ01+000000PRSWM2
0091072553999992000032319004+47030+005430FM-15+0196LFGJ V0201301N00311220001CN0099001N1+00901+00301999999ADDMA1101081999999MW1001REMMET039LFGJ 231900Z 13006KT CAVOK 09/03 Q1011;EQDQ01+000000PRSWM2
0091072553999992000032320004+47030+005430FM-15+0196LFGJ V0201401N00411220001CN0099001N1+01101+00301999999ADDMA1101081999999MW1001REMMET039LFGJ 232000Z 14008KT CAVOK 11/03 Q1011;EQDQ01+000000PRSWM2
0091072553999992000032321004+47030+005430FM-15+0196LFGJ V0201601N00411220001CN0099001N1+01101+00401999999ADDMA1101081999999MW1001REMMET039LFGJ 232100Z 16008KT CAVOK 11/04 Q1011;EQDQ01+000000PRSWM2
0091072553999992000032322004+47030+005430FM-15+0196LFGJ V0201601N00211220001CN0099001N1+00901+00501999999ADDMA1101081999999MW1001REMMET039LFGJ 232200Z 16004KT CAVOK 09/05 Q1011;EQDQ01+000000PRSWM2
0091072553999992000032323004+47030+005430FM-15+0196LFGJ V0201801N00411220001CN0099001N1+01001+00501999999ADDMA1101081999999MW1001REMMET039LFGJ 232300Z 18008KT CAVOK 10/05 Q1011;EQDQ01+000000PRSWM2
0162072553999992000032400004+47030+005430FM-15+0196LFGJ V0202001N006210240019N0112651N1+01001+00701999999ADDGA1021+013809999GA2081+024009999GF108991999999999999999999MA1101081999999MW1001REMMET052LFGJ 240000Z 20012KT 9999 FEW046 OVC083 10/07 Q1011;EQDQ01+000000PRSWM2
0205072553999992000032401004+47030+005430FM-15+0196LFGJ V0201901N001010180019N0040001N1+00901+00701999999ADDGA1021+008709999GA2021+011709999GA3081+018009999GF108991999999999999999999MA1101081999999MW1611REMMET063LFGJ 240100Z 19002KT 4000 -RA FEW029 SCT039 OVC060 09/07 Q1011;EQDQ01+000003PRSWM1Q02    003PRSWM1
0091072553999992000032419004+47030+005430FM-15+0196LFGJ V0201401N00211220001CN0099001N1+00701+00601999999ADDMA1101491999999MW1001REMMET039LFGJ 241900Z 14004KT CAVOK 07/06 Q1015;EQDQ01+000000PRSWM2
0090072553999992000032419304+47030+005430FM-15+0196LFGJ V0200901N00051220001CN0099001N1+00601+00501999999ADDMA1101491999999MW1001REMMET038LFGJ 242030 09001KT CAVOK 06/05 Q1015;EQDQ01+000000PRSWM2
0091072553999992000032421004+47030+005430FM-15+0196LFGJ V0200901N00151220001CN0099001N1+00601+00601999999ADDMA1101591999999MW1001REMMET039LFGJ 242100Z 09003KT CAVOK 06/06 Q1016;EQDQ01+000000PRSWM2
0091072553999992000032422004+47030+005430FM-15+0196LFGJ V0209999C00001220001CN0099001N1+00601+00601999999ADDMA1101591999999MW1001REMMET039LFGJ 242200Z 00000KT CAVOK 06/06 Q1016;EQDQ01+000000PRSWM2
0091072553999992000032423004+47030+005430FM-15+0196LFGJ V0209999C00001220001CN0099001N1+00601+00601999999ADDMA1101591999999MW1001REMMET039LFGJ 242300Z 00000KT CAVOK 06/06 Q1016;EQDQ01+000000PRSWM2
0091072553999992000032500004+47030+005430FM-15+0196LFGJ V0201501N00101220001CN0099001N1+00601+00601999999ADDMA1101691999999MW1001REMMET039LFGJ 250000Z 15002KT CAVOK 06/06 Q1017;EQDQ01+000000PRSWM2
0091072553999992000032501004+47030+005430FM-15+0196LFGJ V0201701N00101220001CN0099001N1+00701+00601999999ADDMA1101691999999MW1001REMMET039LFGJ 250100Z 17002KT CAVOK 07/06 Q1017;EQDQ01+000000PRSWM2
0091072553999992000032718004+47030+005430FM-15+0196LFGJ V0201801N00211220001CN0099001N1+00601+00401999999ADDMA1100811999999MW1001REMMET039LFGJ 271800Z 18004KT CAVOK 06/04 Q1008;EQDQ01+000000PRSWM2
0091072553999992000032719004+47030+005430FM-15+0196LFGJ V0200901N00101220001CN0099001N1+00501+00301999999ADDMA1100811999999MW1001REMMET039LFGJ 271900Z 09002KT CAVOK 05/03 Q1008;EQDQ01+000000PRSWM2
0091072553999992000032720004+47030+005430FM-15+0196LFGJ V0201101N00101220001CN0099001N1+00301+00201999999ADDMA1100911999999MW1001REMMET039LFGJ 272000Z 11002KT CAVOK 03/02 Q1009;EQDQ01+000000PRSWM2
0091072553999992000032721004+47030+005430FM-15+0196LFGJ V0201101N00211220001CN0099001N1+00101+00101999999ADDMA1100911999999MW1001REMMET039LFGJ 272100Z 11004KT CAVOK 01/01 Q1009;EQDQ01+000000PRSWM2
0091072553999992000032722004+47030+005430FM-15+0196LFGJ V0200101N00211220001CN0099001N1+00201+00101999999ADDMA1100911999999MW1001REMMET039LFGJ 272200Z 01004KT CAVOK 02/01 Q1009;EQDQ01+000000PRSWM2
0091072553999992000032723004+47030+005430FM-15+0196LFGJ V0200601N00101220001CN0099001N1+00001+00001999999ADDMA1100911999999MW1001REMMET039LFGJ 272300Z 06002KT CAVOK 00/00 Q1009;EQDQ01+000000PRSWM2
0056072553999992000032800004+47030+005430FM-16+0196LFGJ V02099999999992200019N0300001N1+99999+99999999999ADDMW1001REMMET019LFGJ 280000Z CAVOK;EQDQ01+000000PRSWM2
0162072553999992000032818004+47030+005430FM-15+0196LFGJ V0200101N006210300019N0112651N1+00601+00401999999ADDGA1021+014709999GA2071+030009999GF107991999999999999999999MA1100811999999MW1001REMMET052LFGJ 281800Z 01012KT 9999 FEW049 BKN100 06/04 Q1008;EQDQ01+000000PRSWM2
0091072553999992000032819004+47030+005430FM-15+0196LFGJ V0200101N00511220001CN0099001N1+00601+00401999999ADDMA1100811999999MW1001REMMET039LFGJ 281900Z 01010KT CAVOK 06/04 Q1008;EQDQ01+000000PRSWM2
0091072553999992000032820004+47030+005430FM-15+0196LFGJ V0200301N00411220001CN0099001N1+00501+00301999999ADDMA1100811999999MW1001REMMET039LFGJ 282000Z 03008KT CAVOK 05/03 Q1008;EQDQ01+000000PRSWM2
0091072553999992000032821004+47030+005430FM-15+0196LFGJ V0200201N00411220001CN0099001N1+00401+00301999999ADDMA1100711999999MW1001REMMET039LFGJ 282100Z 02008KT CAVOK 04/03 Q1007;EQDQ01+000000PRSWM2
0091072553999992000032822004+47030+005430FM-15+0196LFGJ V0200101N00511220001CN0099001N1+00401+00301999999ADDMA1100711999999MW1001REMMET039LFGJ 282200Z 01010KT CAVOK 04/03 Q1007;EQDQ01+000000PRSWM2
0091072553999992000032823004+47030+005430FM-15+0196LFGJ V0203601N00511220001CN0099001N1+00401+00201999999ADDMA1100611999999MW1001REMMET039LFGJ 282300Z 36010KT CAVOK 04/02 Q1006;EQDQ01+000000PRSWM2
0139072553999992000032900004+47030+005430FM-15+0196LFGJ V0200101N004110690019N0080001N1+00401+00201999999ADDGA1071+069009999GF107991999999999999999999MA1100611999999MW1001REMMET045LFGJ 290000Z 01008KT 8000 BKN230 04/02 Q1006;EQDQ01+000000PRSWM2
0162072553999992000032918004+47030+005430FM-15+0196LFGJ V0202301N003610039019N0112651N1+00401+00301999999ADDGA1021+001809999GA2081+003909999GF108991999999999999999999MA1101021999999MW1001REMMET052LFGJ 291800Z 23007KT 9999 FEW006 OVC013 04/03 Q1010;EQDQ01+000000PRSWM2
0182072553999992000032919004+47030+005430FM-15+0196LFGJ V0202101N004110060019N0080001N1+00401+00301999999ADDGA1021+003909999GA2081+006009999GF108991999999999999999999MA1101021999999MW1611REMMET056LFGJ 291900Z 21008KT 8000 -RA FEW013 OVC020 04/03 Q1010;EQDQ01+000003PRSWM1Q02    003PRSWM1
0159072553999992000032920004+47030+005430FM-15+0196LFGJ V0201801N003110057019N0080001N1+00301+00301999999ADDGA1081+005709999GF108991999999999999999999MA1101081999999MW1611REMMET049LFGJ 292000Z 18006KT 8000 -RA OVC019 03/03 Q1011;EQDQ01+000003PRSWM1Q02    003PRSWM1
0159072553999992000032921004+47030+005430FM-15+0196LFGJ V0202001N005110081019N0080001N1+00301+00301999999ADDGA1071+008109999GF107991999999999999999999MA1101081999999MW1611REMMET049LFGJ 292100Z 20010KT 8000 -RA BKN027 03/03 Q1011;EQDQ01+000003PRSWM1Q02    003PRSWM1
0139072553999992000032922004+47030+005430FM-15+0196LFGJ V0202001N005110051019N0060001N1+00301+00301999999ADDGA1071+005109999GF107991999999999999999999MA1101191999999MW1001REMMET045LFGJ 292200Z 20010KT 6000 BKN017 03/03 Q1012;EQDQ01+000000PRSWM2
0139072553999992000032923004+47030+005430FM-15+0196LFGJ V0202001N005110063019N0060001N1+00401+00301999999ADDGA1071+006309999GF107991999999999999999999MA1101191999999MW1001REMMET045LFGJ 292300Z 20010KT 6000 BKN021 04/03 Q1012;EQDQ01+000000PRSWM2
0182072553999992000033000004+47030+005430FM-15+0196LFGJ V0202001N004110048019N0060001N1+00401+00301999999ADDGA1021+002109999GA2071+004809999GF107991999999999999999999MA1101291999999MW1611REMMET056LFGJ 300000Z 20008KT 6000 -RA FEW007 BKN016 04/03 Q1013;EQDQ01+000003PRSWM1Q02    003PRSWM1
0162072553999992000033018004+47030+005430FM-15+0196LFGJ V0202601N002110300019N0112651N1+00801+00401999999ADDGA1021+013809999GA2071+030009999GF107991999999999999999999MA1101291999999MW1001REMMET052LFGJ 301800Z 26004KT 9999 SCT046 BKN100 08/04 Q1013;EQDQ01+000000PRSWM2
0091072553999992000033019004+47030+005430FM-15+0196LFGJ V0201901N00311220001CN0099001N1+00501+00301999999ADDMA1101391999999MW1001REMMET039LFGJ 301900Z 19006KT CAVOK 05/03 Q1014;EQDQ01+000000PRSWM2
0091072553999992000033020004+47030+005430FM-15+0196LFGJ V0209999C00001220001CN0099001N1+00301+00201999999ADDMA1101391999999MW1001REMMET039LFGJ 302000Z 00000KT CAVOK 03/02 Q1014;EQDQ01+000000PRSWM2
0091072553999992000033021004+47030+005430FM-15+0196LFGJ V0201001N00101220001CN0099001N1+00201+00201999999ADDMA1101391999999MW1001REMMET039LFGJ 302100Z 10002KT CAVOK 02/02 Q1014;EQDQ01+000000PRSWM2
0091072553999992000033023004+47030+005430FM-15+0196LFGJ V0200901N00101220001CN0099001N1+00001+00001999999ADDMA1101291999999MW1001REMMET039LFGJ 302300Z 09002KT CAVOK 00/00 Q1013;EQDQ01+000000PRSWM2
