0128072650999992000010100004+47800+003550FM-12+0212LFLA V0202101N001019999999N9999999N1+00601+00591102501ADDAA103000791MA1999999099891MD1210081+9999REMSYN076AAXX  01004 07265 /6/// /2102 10060 20059 39989 40250 52008 69901 333 69907;
0122072650999992000010101004+47800+003550FM-12+0212LFLA V0202201N001019999999N9999999N1+00611+00601102511ADDAA101000791MA1999999099901MD1110071+9999REMSYN070AAXX  01014 07265 26/// /2202 10061 20060 39990 40251 51007 333 69905;
0122072650999992000010102004+47800+003550FM-12+0212LFLA V0202001N001019999999N9999999N1+00601+00591102521ADDAA101000791MA1999999099911MD1110041+9999REMSYN070AAXX  01024 07265 26/// /2002 10060 20059 39991 40252 51004 333 69905;
0122072650999992000010103004+47800+003550FM-12+0212LFLA V0201901N001019999999N9999999N1+00601+00591102531ADDAA103000791MA1999999099921MD1210031+9999REMSYN070AAXX  01034 07265 26/// /1902 10060 20059 39992 40253 52003 333 69907;
0122072650999992000010104004+47800+003550FM-12+0212LFLA V0202401N002119999999N9999999N1+00611+00601102531ADDAA101000791MA1999999099921MD1110021+9999REMSYN070AAXX  01044 07265 26/// /2404 10061 20060 39992 40253 51002 333 69905;
0204072650999992000010105004+47800+003550FM-12+0212LFLA V0202201N002110018019N0009001N1+00611+00601102561ADDAA101999929AY151999AY241999GA1071+001809069GF107991071071002501999999MA1999999099951MD1310041+9999MW1441REMSYN088AAXX  01054 07265 21309 72204 10061 20060 39995 40256 53004 74454 877// 333 69905 87706;
0322072650999992000010106004+47800+003550FM-12+0212LFLA V0202001N001010018019N0009001N1+00601+00591102601ADDAA103999999AA224002291AY151061AY241061GA1071+001809069GF107991071071002501999999GJ100009IA1019IA2999+00509KA1999M+00621KA2999N+00541MA1999999099991MD1310071+9999MW1441REMSYN124AAXX  01064 07265 /1309 72002 10060 20059 39999 40260 53007 69902 74454 877// 333 10062 20054 30005 55000 69907 70022 87706;EQDQ01  99992PRCP03
0131072650999992000010107004+47800+003550FM-12+0212LFLA V0201901N002119999999N9999999N1+00581+00571102631ADDAA106000091MA1999999100021MD1210101+9999REMSYN060AAXX  01074 07265 36/// /1904 10058 20057 30002 40263 52010;EQDQ01  00002PRCP06
0122072650999992000010108004+47800+003550FM-12+0212LFLA V0201801N002119999999N9999999N1+00581+00571102661ADDAA101000191MA1999999100051MD1110101+9999REMSYN070AAXX  01084 07265 26/// /1804 10058 20057 30005 40266 51010 333 69925;
0204072650999992000010109004+47800+003550FM-12+0212LFLA V0201901N002110018019N0002001N1+00611+00601102711ADDAA103000491AY141031AY241031GA1071+001809069GF107991071071002501999999MA1999999100101MD1310111+9999MW1461REMSYN088AAXX  01094 07265 21302 71904 10061 20060 30010 40271 53011 74644 877// 333 69947 87706;
0204072650999992000010110004+47800+003550FM-12+0212LFLA V0202001N002110018019N0002001N1+00661+00651102751ADDAA101000691AY151999AY251999GA1071+001809069GF107991071071002501999999MA1999999100141MD1310121+9999MW1501REMSYN088AAXX  01104 07265 21302 72004 10066 20065 30014 40275 53012 75055 877// 333 69965 87706;
0204072650999992000010111004+47800+003550FM-12+0212LFLA V0202301N003110018019N0002001N1+00711+00701102711ADDAA101000491AY151999AY251999GA1071+001809069GF107991071071002501999999MA1999999100111MD1010061+9999MW1501REMSYN088AAXX  01114 07265 21302 72306 10071 20070 30011 40271 50006 75055 877// 333 69945 87706;
0210072650999992000010112004+47800+003550FM-12+0212LFLA V0202701N001010018019N0002001N1+00761+00751102721ADDAA103001091AY151061AY241061GA1071+001809069GF107991071071002501999999MA1999999100121MD1110021+9999MW1501REMSYN094AAXX  01124 07265 /1302 72702 10076 20075 30012 40272 51002 60011 75054 877// 333 60017 87706;
0204072650999992000010113004+47800+003550FM-12+0212LFLA V0202901N002110018019N0002001N1+00791+00781102711ADDAA101000491AY151999AY251999GA1071+001809069GF107991071071002501999999MA1999999100121MD1610021+9999MW1501REMSYN088AAXX  01134 07265 21302 72904 10079 20078 30012 40271 56002 75055 877// 333 69945 87706;
0204072650999992000010114004+47800+003550FM-12+0212LFLA V0203001N002110018019N0007001N1+00801+00801102711ADDAA101000491AY151999AY251999GA1071+001809069GF107991071071002501999999MA1999999100121MD1110011+9999MW1501REMSYN088AAXX  01144 07265 21307 73004 10080 20080 30012 40271 51001 75055 877// 333 69945 87706;
0204072650999992000010115004+47800+003550FM-12+0212LFLA V0202901N002110018019N0012001N1+00801+00791102711ADDAA103001091AY151031AY241031GA1071+001809069GF107991071071002501999999MA1999999100121MD1410001+9999MW1281REMSYN088AAXX  01154 07265 21312 72904 10080 20079 30012 40271 54000 72854 877// 333 60017 87706;
0204072650999992000010116004+47800+003550FM-12+0212LFLA V0203101N001010039019N0045001N1+00791+00781102771ADDAA106000021AY121999AY221999GA1051+003909089GF108991081081004501999999MA1999999100171MD1310051+9999MW1101REMSYN088AAXX  01164 07265 31445 83102 10079 20078 30017 40277 53005 71022 888// 333 85813 87623;
0112072650999992000010117004+47800+003550FM-12+0212LFLA V0202501N001019999999N9999999N1+00771+00761102791ADDAA106000021MA1999999100191MD1310071+9999REMSYN060AAXX  01174 07265 36/// /2502 10077 20076 30019 40279 53007;
0160072650999992000010118004+47800+003550FM-12+0212LFLA V0203201N001019999999N9999999N1+00761+00751102851ADDAA112002091KA1999M+00811KA2999N+00581MA1999999100251MD1310131+9999REMSYN082AAXX  01184 07265 16/// /3202 10076 20075 30025 40285 53013 60022 333 10081 20058;
0112072650999992000010119004+47800+003550FM-12+0212LFLA V0203301N001019999999N9999999N1+00751+00741102881ADDAA106000021MA1999999100281MD1310111+9999REMSYN060AAXX  01194 07265 36/// /3302 10075 20074 30028 40288 53011;
0112072650999992000010120004+47800+003550FM-12+0212LFLA V0202501N001019999999N9999999N1+00751+00741102901ADDAA106000021MA1999999100301MD1110111+9999REMSYN060AAXX  01204 07265 36/// /2502 10075 20074 30030 40290 51011;
0131072650999992000010121004+47800+003550FM-12+0212LFLA V0202401N001019999999N9999999N1+00741+00731102921ADDAA106000091MA1999999100321MD1110071+9999REMSYN060AAXX  01214 07265 36/// /2402 10074 20073 30032 40292 51007;EQDQ01  00002PRCP06
0131072650999992000010122004+47800+003550FM-12+0212LFLA V0202701N001019999999N9999999N1+00741+00731102941ADDAA106000091MA1999999100331MD1110051+9999REMSYN060AAXX  01224 07265 36/// /2702 10074 20073 30033 40294 51005;EQDQ01  00002PRCP06
0131072650999992000010123004+47800+003550FM-12+0212LFLA V0202701N001019999999N9999999N1+00751+00741102951ADDAA106000091MA1999999100351MD1210051+9999REMSYN060AAXX  01234 07265 36/// /2702 10075 20074 30035 40295 52005;EQDQ01  00002PRCP06
0131072650999992000010200004+47800+003550FM-12+0212LFLA V0202601N001019999999N9999999N1+00751+00741102941ADDAA106000091MA1999999100341MD1010021+9999REMSYN060AAXX  02004 07265 36/// /2602 10075 20074 30034 40294 50002;EQDQ01  00002PRCP06
0131072650999992000010201004+47800+003550FM-12+0212LFLA V0202401N001019999999N9999999N1+00751+00741102921ADDAA106000091MA1999999100321MD1810011+9999REMSYN060AAXX  02014 07265 36/// /2402 10075 20074 30032 40292 58001;EQDQ01  00002PRCP06
0131072650999992000010202004+47800+003550FM-12+0212LFLA V0202401N002119999999N9999999N1+00741+00731102951ADDAA106000091MA1999999100341MD1510011+9999REMSYN060AAXX  02024 07265 36/// /2404 10074 20073 30034 40295 55001;EQDQ01  00002PRCP06
0131072650999992000010203004+47800+003550FM-12+0212LFLA V0202601N001019999999N9999999N1+00741+00731102961ADDAA106000091MA1999999100351MD1310011+9999REMSYN060AAXX  02034 07265 36/// /2602 10074 20073 30035 40296 53001;EQDQ01  00002PRCP06
0131072650999992000010204004+47800+003550FM-12+0212LFLA V0202401N001019999999N9999999N1+00741+00731102971ADDAA106000091MA1999999100361MD1110041+9999REMSYN060AAXX  02044 07265 36/// /2402 10074 20073 30036 40297 51004;EQDQ01  00002PRCP06
0217072650999992000010205004+47800+003550FM-12+0212LFLA V0202601N001010018019N0002001N1+00731+00721102991ADDAA106000091AY141999AY221999GA1071+001809069GF108991081071002501999999MA1999999100381MD1310041+9999MW1441REMSYN082AAXX  02054 07265 31302 82602 10073 20072 30038 40299 53004 74442 887// 333 87706;EQDQ01  00002PRCP06
0211072650999992000010206004+47800+003550FM-12+0212LFLA V0202401N001019999999N9999999N1+00731+00721103001ADDAA106000091GJ100009IA2999+00709KA1999M+00761KA2999N+00731MA1999999100391MD1210041+9999REMSYN094AAXX  02064 07265 36/// /2402 10073 20072 30039 40300 52004 333 10076 20073 3/007 55000 70024;EQDQ01  00002PRCP06
0217072650999992000010207004+47800+003550FM-12+0212LFLA V0202401N001010018019N0001001N1+00731+00721103021ADDAA106000091AY141999AY241999GA1081+001809069GF108991081071002501999999MA1999999100411MD1210051+9999MW1461REMSYN082AAXX  02074 07265 31301 82402 10073 20072 30041 40302 52005 74644 887// 333 88706;EQDQ01  00002PRCP06
0217072650999992000010208004+47800+003550FM-12+0212LFLA V0209999C000010018019N0001001N1+00731+00721103041ADDAA106000091AY141999AY241999GA1081+001809069GF108991081071002501999999MA1999999100431MD1310051+9999MW1461REMSYN082AAXX  02084 07265 31301 80000 10073 20072 30043 40304 53005 74644 887// 333 88706;EQDQ01  00002PRCP06
0217072650999992000010209004+47800+003550FM-12+0212LFLA V0209999C000010018019N0001001N1+00751+00751103071ADDAA106000091AY141031AY241031GA1081+001809069GF108991081071002501999999MA1999999100461MD1310071+9999MW1461REMSYN082AAXX  02094 07265 31301 80000 10075 20075 30046 40307 53007 74644 887// 333 88706;EQDQ01  00002PRCP06
0204072650999992000010210004+47800+003550FM-12+0212LFLA V0201301N001010018019N0002001N1+00811+00811103091ADDAA101000291AY141999AY241999GA1081+001809069GF108991081071002501999999MA1999999100491MD1310081+9999MW1421REMSYN088AAXX  02104 07265 21302 81302 10081 20081 30049 40309 53008 74244 887// 333 69925 88706;
0223072650999992000010211004+47800+003550FM-12+0212LFLA V0201901N00101009001CN0045001N1+00861+00861103061ADDAA106000091AY141999AY221999GA1031+003909089GF107991071081004501999999MA1999999100461MD1010031+9999MW1281REMSYN088AAXX  02114 07265 31445 71902 10086 20086 30046 40306 50003 72842 878// 333 83813 86623;EQDQ01  00002PRCP06
0216072650999992000010212004+47800+003550FM-12+0212LFLA V0201901N00101009001CN0050001N1+00921+00911103041ADDAA103000291AY141061AY221061GA1031+003909089GF107991071081004501999999MA1999999100451MD1810011+9999MW1011REMSYN100AAXX  02124 07265 /1450 71902 10092 20091 30045 40304 58001 69921 70142 878// 333 69927 83813 86623;
0195072650999992000010213004+47800+003550FM-12+0212LFLA V0202301N00101007501CN0200001N1+01051+00701102991ADDAA106000091GA1041+006909089GF105991051011008001001011MA1999999100411MD1810081+9999REMSYN082AAXX  02134 07265 32570 52302 10105 20070 30041 40299 58008 85101 333 84823 83075;EQDQ01  00002PRCP06
0195072650999992000010214004+47800+003550FM-12+0212LFLA V0200501N00211007501CN0200001N1+01101+00751102971ADDAA106000091GA1041+006909089GF105991051011008001001011MA1999999100401MD1710061+9999REMSYN082AAXX  02144 07265 32570 50504 10110 20075 30040 40297 57006 85101 333 84823 83075;EQDQ01  00002PRCP06
0195072650999992000010215004+47800+003550FM-12+0212LFLA V0200901N00101007501CN0200001N1+00881+00731102951ADDAA106000091GA1041+006909089GF105991051011008001001011MA1999999100361MD1710091+9999REMSYN082AAXX  02154 07265 32570 50902 10088 20073 30036 40295 57009 85101 333 84823 83075;EQDQ01  00002PRCP06
0195072650999992000010216004+47800+003550FM-12+0212LFLA V0200601N00101007501CN0200001N1+00811+00691102981ADDAA106000091GA1041+006909089GF105991051011008001001011MA1999999100381MD1510031+9999REMSYN082AAXX  02164 07265 32570 50602 10081 20069 30038 40298 55003 85101 333 84823 83075;EQDQ01  00002PRCP06
0131072650999992000010217004+47800+003550FM-12+0212LFLA V0200701N001019999999N9999999N1+00741+00651103001ADDAA106000091MA1999999100391MD1510011+9999REMSYN060AAXX  02174 07265 36/// /0702 10074 20065 30039 40300 55001;EQDQ01  00002PRCP06
0160072650999992000010218004+47800+003550FM-12+0212LFLA V0201001N002119999999N9999999N1+00661+00561103041ADDAA112000191KA1999M+01201KA2999N+00661MA1999999100421MD1310061+9999REMSYN082AAXX  02184 07265 16/// /1004 10066 20056 30042 40304 53006 69922 333 10120 20066;
0131072650999992000010219004+47800+003550FM-12+0212LFLA V0201701N001019999999N9999999N1+00571+00481103071ADDAA106000091MA1999999100441MD1310061+9999REMSYN060AAXX  02194 07265 36/// /1702 10057 20048 30044 40307 53006;EQDQ01  00002PRCP06
0131072650999992000010220004+47800+003550FM-12+0212LFLA V0201901N002119999999N9999999N1+00491+00451103081ADDAA106000091MA1999999100451MD1110061+9999REMSYN060AAXX  02204 07265 36/// /1904 10049 20045 30045 40308 51006;EQDQ01  00002PRCP06
0131072650999992000010221004+47800+003550FM-12+0212LFLA V0201801N002119999999N9999999N1+00431+00401103071ADDAA106000091MA1999999100431MD1010011+9999REMSYN060AAXX  02214 07265 36/// /1804 10043 20040 30043 40307 50001;EQDQ01  00002PRCP06
0131072650999992000010222004+47800+003550FM-12+0212LFLA V0201601N002119999999N9999999N1+00391+00361103051ADDAA106000091MA1999999100411MD1810031+9999REMSYN060AAXX  02224 07265 36/// /1604 10039 20036 30041 40305 58003;EQDQ01  00002PRCP06
0131072650999992000010223004+47800+003550FM-12+0212LFLA V0201501N003119999999N9999999N1+00301+00291103051ADDAA106000091MA1999999100401MD1610051+9999REMSYN060AAXX  02234 07265 36/// /1506 10030 20029 30040 40305 56005;EQDQ01  00002PRCP06
0131072650999992000010300004+47800+003550FM-12+0212LFLA V0201501N003119999999N9999999N1+00281+00271103041ADDAA106000091MA1999999100391MD1610041+9999REMSYN060AAXX  03004 07265 36/// /1506 10028 20027 30039 40304 56004;EQDQ01  00002PRCP06
0131072650999992000010301004+47800+003550FM-12+0212LFLA V0201601N002119999999N9999999N1+00221+00211103021ADDAA106000091MA1999999100361MD1810051+9999REMSYN060AAXX  03014 07265 36/// /1604 10022 20021 30036 40302 58005;EQDQ01  00002PRCP06
0131072650999992000010302004+47800+003550FM-12+0212LFLA V0201601N003119999999N9999999N1+00231+00221103031ADDAA106000091MA1999999100371MD1510031+9999REMSYN060AAXX  03024 07265 36/// /1606 10023 20022 30037 40303 55003;EQDQ01  00002PRCP06
0131072650999992000010303004+47800+003550FM-12+0212LFLA V0201801N004119999999N9999999N1+00201+00191103011ADDAA106000091MA1999999100351MD1610041+9999REMSYN060AAXX  03034 07265 36/// /1808 10020 20019 30035 40301 56004;EQDQ01  00002PRCP06
0131072650999992000010304004+47800+003550FM-12+0212LFLA V0201701N003119999999N9999999N1+00241+00231103031ADDAA106000091MA1999999100371MD1310011+9999REMSYN060AAXX  03044 07265 36/// /1706 10024 20023 30037 40303 53001;EQDQ01  00002PRCP06
0131072650999992000010305004+47800+003550FM-12+0212LFLA V0201701N004119999999N9999999N1+00281+00271103011ADDAA106000091MA1999999100361MD1610011+9999REMSYN060AAXX  03054 07265 36/// /1708 10028 20027 30036 40301 56001;EQDQ01  00002PRCP06
0310072650999992000010306004+47800+003550FM-12+0212LFLA V0201801N003110018019N0002001N1+00321+00311103001ADDAA106000091AA224000291AY141061AY221061GA1081+001809069GF108991081071002501999999GJ101149IA1099IA2999+00209KA1999M+00661KA2999N+00191MA1999999100351MD1010001+9999MW1441REMSYN112AAXX  03064 07265 31302 81806 10032 20031 30035 40300 50000 74442 887// 333 10066 20019 31002 55019 70002 88706;EQDQ01  00002PRCP06
0217072650999992000010307004+47800+003550FM-12+0212LFLA V0201901N002110018019N0002001N1+00331+00321103041ADDAA106000091AY141999AY241999GA1081+001809069GF108991081071002501999999MA1999999100391MD1310021+9999MW1441REMSYN082AAXX  03074 07265 31302 81904 10033 20032 30039 40304 53002 74444 887// 333 88706;EQDQ01  00002PRCP06
0217072650999992000010308004+47800+003550FM-12+0212LFLA V0201801N002110030019N0010001N1+00341+00331103041ADDAA106000091AY141999AY221999GA1071+003009069GF108991081071004501999999MA1999999100391MD1310031+9999MW1281REMSYN082AAXX  03084 07265 31410 81804 10034 20033 30039 40304 53003 72842 887// 333 87710;EQDQ01  00002PRCP06
0217072650999992000010309004+47800+003550FM-12+0212LFLA V0201701N003110030019N0030001N1+00381+00381103031ADDAA106000091AY141031AY221031GA1051+003009069GF105991051071004501001001MA1999999100391MD1110041+9999MW1101REMSYN082AAXX  03094 07265 31430 51706 10038 20038 30039 40303 51004 71042 85700 333 85710;EQDQ01  00002PRCP06
0217072650999992000010310004+47800+003550FM-12+0212LFLA V0202001N004110030019N0030001N1+00401+00391103031ADDAA106000091AY121999AY221999GA1051+003009069GF105991051071004501001001MA1999999100391MD1410001+9999MW1101REMSYN082AAXX  03104 07265 31430 52008 10040 20039 30039 40303 54000 71022 85700 333 85710;EQDQ01  00002PRCP06
0131072650999992000010311004+47800+003550FM-12+0212LFLA V0202001N002119999999N9999999N1+00531+00521102971ADDAA106000091MA1999999100341MD1810051+9999REMSYN060AAXX  03114 07265 36/// /2004 10053 20052 30034 40297 58005;EQDQ01  00002PRCP06
0223072650999992000010312004+47800+003550FM-12+0212LFLA V0202001N00411220001CN0040001N1+00661+00461102891ADDAA106000091AY141061AY221061GA1011+003009079GF105991011071004501001011MA1999999100281MD1810111+9999MW1101REMSYN088AAXX  03124 07265 31440 52008 10066 20046 30028 40289 58011 71042 81701 333 81710 84075;EQDQ01  00002PRCP06
0195072650999992000010313004+47800+003550FM-12+0212LFLA V0202001N00411220001CN0060001N1+00761+00441102821ADDAA106000091GA1011+004809089GF105991011011004501001011MA1999999100221MD1810171+9999REMSYN082AAXX  03134 07265 32456 52008 10076 20044 30022 40282 58017 81101 333 81816 84075;EQDQ01  00002PRCP06
0189072650999992000010314004+47800+003550FM-12+0212LFLA V0202001N004112200019N0100001N1+00861+00421102741ADDAA106000091GA1011+006009029GF104991011011008001001011MA1999999100151MD1810191+9999REMSYN076AAXX  03144 07265 32560 42008 10086 20042 30015 40274 58019 81101 333 81820;EQDQ01  00002PRCP06
0189072650999992000010315004+47800+003550FM-12+0212LFLA V0202101N003112200019N0100001N1+00851+00381102711ADDAA106000091GA1021+006009059GF104991021011008001001011MA1999999100121MD1610161+9999REMSYN076AAXX  03154 07265 32560 42106 10085 20038 30012 40271 56016 82101 333 82620;EQDQ01  00002PRCP06
0189072650999992000010316004+47800+003550FM-12+0212LFLA V0201901N002110090019N0100001N1+00681+00361102681ADDAA106000091GA1061+009009059GF106991061051008001001001MA1999999100071MD1610151+9999REMSYN076AAXX  03164 07265 32560 61904 10068 20036 30007 40268 56015 86500 333 86630;EQDQ01  00002PRCP06
0131072650999992000010317004+47800+003550FM-12+0212LFLA V0202201N003119999999N9999999N1+00631+00351102711ADDAA106000091MA1999999100101MD1510051+9999REMSYN060AAXX  03174 07265 36/// /2206 10063 20035 30010 40271 55005;EQDQ01  00002PRCP06
0173072650999992000010318004+47800+003550FM-12+0212LFLA V0202101N003119999999N9999999N1+00621+00341102701ADDAA106000091KA1999M+00881KA2999N+00321MA1999999100091MD1610031+9999REMSYN076AAXX  03184 07265 36/// /2106 10062 20034 30009 40270 56003 333 10088 20032;EQDQ01  00002PRCP06
0131072650999992000010319004+47800+003550FM-12+0212LFLA V0202201N004119999999N9999999N1+00621+00341102691ADDAA106000091MA1999999100081MD1010011+9999REMSYN060AAXX  03194 07265 36/// /2208 10062 20034 30008 40269 50001;EQDQ01  00002PRCP06
0131072650999992000010320004+47800+003550FM-12+0212LFLA V0202001N003119999999N9999999N1+00631+00411102681ADDAA106000091MA1999999100071MD1710031+9999REMSYN060AAXX  03204 07265 36/// /2006 10063 20041 30007 40268 57003;EQDQ01  00002PRCP06
0131072650999992000010321004+47800+003550FM-12+0212LFLA V0202101N004119999999N9999999N1+00651+00401102661ADDAA106000091MA1999999100051MD1810041+9999REMSYN060AAXX  03214 07265 36/// /2108 10065 20040 30005 40266 58004;EQDQ01  00002PRCP06
0131072650999992000010322004+47800+003550FM-12+0212LFLA V0202101N004119999999N9999999N1+00651+00401102641ADDAA106000091MA1999999100031MD1810051+9999REMSYN060AAXX  03224 07265 36/// /2108 10065 20040 30003 40264 58005;EQDQ01  00002PRCP06
0131072650999992000010323004+47800+003550FM-12+0212LFLA V0202001N003119999999N9999999N1+00621+00401102621ADDAA106000091MA1999999100011MD1710061+9999REMSYN060AAXX  03234 07265 36/// /2006 10062 20040 30001 40262 57006;EQDQ01  00002PRCP06
0131072650999992000010400004+47800+003550FM-12+0212LFLA V0202001N003119999999N9999999N1+00591+00411102591ADDAA106000091MA1999999099981MD1810071+9999REMSYN060AAXX  04004 07265 36/// /2006 10059 20041 39998 40259 58007;EQDQ01  00002PRCP06
0131072650999992000010401004+47800+003550FM-12+0212LFLA V0202101N004119999999N9999999N1+00631+00401102551ADDAA106000091MA1999999099941MD1810091+9999REMSYN060AAXX  04014 07265 36/// /2108 10063 20040 39994 40255 58009;EQDQ01  00002PRCP06
0131072650999992000010402004+47800+003550FM-12+0212LFLA V0202101N003119999999N9999999N1+00641+00391102541ADDAA106000091MA1999999099931MD1610081+9999REMSYN060AAXX  04024 07265 36/// /2106 10064 20039 39993 40254 56008;EQDQ01  00002PRCP06
0131072650999992000010403004+47800+003550FM-12+0212LFLA V0201901N003119999999N9999999N1+00641+00371102511ADDAA106000091MA1999999099901MD1610081+9999REMSYN060AAXX  04034 07265 36/// /1906 10064 20037 39990 40251 56008;EQDQ01  00002PRCP06
0189072650999992000010405004+47800+003550FM-12+0212LFLA V0201801N003110099019N0150001N1+00551+00351102471ADDAA106000091GA1071+009909059GF107991071051012501999999MA1999999099861MD1610071+9999REMSYN076AAXX  04054 07265 32665 71806 10055 20035 39986 40247 56007 875// 333 87633;EQDQ01  00002PRCP06
0282072650999992000010406004+47800+003550FM-12+0212LFLA V0201801N003110099019N0150001N1+00521+00371102451ADDAA106000091AA224000091GA1071+009909059GF107991071051012501999999GJ103129IA1019IA2999+00409KA1999M+00661KA2999N+00521MA1999999099831MD1710071+9999REMSYN106AAXX  04064 07265 32665 71806 10052 20037 39983 40245 57007 875// 333 10066 20052 30004 55052 70000 87633;EQDQ01  00002PRCP06
0189072650999992000010407004+47800+003550FM-12+0212LFLA V0201701N004110099019N0150001N1+00551+00371102411ADDAA106000091GA1081+009909059GF108991081051012501999999MA1999999099801MD1810071+9999REMSYN076AAXX  04074 07265 32665 81708 10055 20037 39980 40241 58007 885// 333 88633;EQDQ01  00002PRCP06
0195072650999992000010408004+47800+003550FM-12+0212LFLA V0201801N003110120019N0150001N1+00531+00351102401ADDAA106000091GA1051+012009069GF107991051051012501071011MA1999999099791MD1610071+9999REMSYN082AAXX  04084 07265 32665 71806 10053 20035 39979 40240 56007 85571 333 85640 85073;EQDQ01  00002PRCP06
0195072650999992000010410004+47800+003550FM-12+0212LFLA V0202001N005110120019N0150001N1+00671+00401102391ADDAA106000091GA1011+006009089GF107991071081008001999999MA1999999099791MD1610011+9999REMSYN082AAXX  04104 07265 32565 72010 10067 20040 39979 40239 56001 878// 333 81820 87640;EQDQ01  00002PRCP06
0195072650999992000010411004+47800+003550FM-12+0212LFLA V0202001N005110120019N0150001N1+00811+00471102331ADDAA106000091GA1031+006009089GF107991071081008001999999MA1999999099741MD1810051+9999REMSYN082AAXX  04114 07265 32565 72010 10081 20047 39974 40233 58005 878// 333 83820 87640;EQDQ01  00002PRCP06
0195072650999992000010412004+47800+003550FM-12+0212LFLA V0202201N007210060019N0200001N1+00861+00461102211ADDAA106000091GA1051+006009089GF107991071051008001999999MA1999999099631MD1810161+9999REMSYN082AAXX  04124 07265 32570 72214 10086 20046 39963 40221 58016 875// 333 85820 87650;EQDQ01  00002PRCP06
0210072650999992000010413004+47800+003550FM-12+0212LFLA V0202201N006210060019N0100001N1+00801+00531102161ADDAA101999929AY161999AY221999GA1051+006009089GF108991081051008001999999MA1999999099581MD1710211+9999MW1611REMSYN094AAXX  04134 07265 21560 82212 10080 20053 39958 40216 57021 76162 885// 333 69905 85820 88650;
0210072650999992000010414004+47800+003550FM-12+0212LFLA V0202101N007210060019N0100001N1+00761+00611102111ADDAA101999929AY161999AY261999GA1051+006009089GF108991081051008001999999MA1999999099531MD1610211+9999MW1611REMSYN094AAXX  04144 07265 21560 82114 10076 20061 39953 40211 56021 76166 885// 333 69905 85820 88650;
0204072650999992000010415004+47800+003550FM-12+0212LFLA V0202101N005110060019N0100001N1+00791+00671102141ADDAA103000291AY161031AY221031GA1071+006009059GF108991071051008001999999MA1999999099561MD1510071+9999MW1611REMSYN088AAXX  04154 07265 21560 82110 10079 20067 39956 40214 55007 76162 875// 333 69927 87620;
0204072650999992000010416004+47800+003550FM-12+0212LFLA V0202201N007210060019N0060001N1+00791+00681102121ADDAA101000691AY161999AY261999GA1081+006009059GF108991081051008001999999MA1999999099541MD1610041+9999MW1601REMSYN088AAXX  04164 07265 21556 82214 10079 20068 39954 40212 56004 76066 885// 333 69965 88620;
0122072650999992000010417004+47800+003550FM-12+0212LFLA V0202201N005119999999N9999999N1+00791+00731102141ADDAA101000591MA1999999099561MD1110031+9999REMSYN070AAXX  04174 07265 26/// /2210 10079 20073 39956 40214 51003 333 69945;
0166072650999992000010418004+47800+003550FM-12+0212LFLA V0202201N006219999999N9999999N1+00821+00741102171ADDAA103001091KA1999M+00871KA2999N+00521MA1999999099591MD1310031+9999REMSYN088AAXX  04184 07265 /6/// /2212 10082 20074 39959 40217 53003 60012 333 10087 20052 60017;
0122072650999992000010419004+47800+003550FM-12+0212LFLA V0202201N005119999999N9999999N1+00861+00781102211ADDAA101000791MA1999999099631MD1310091+9999REMSYN070AAXX  04194 07265 26/// /2210 10086 20078 39963 40221 53009 333 69905;
0122072650999992000010420004+47800+003550FM-12+0212LFLA V0202201N006219999999N9999999N1+00881+00821102231ADDAA101000791MA1999999099661MD1210101+9999REMSYN070AAXX  04204 07265 26/// /2212 10088 20082 39966 40223 52010 333 69905;
0122072650999992000010421004+47800+003550FM-12+0212LFLA V0202301N005119999999N9999999N1+00871+00841102291ADDAA103000591MA1999999099711MD1310121+9999REMSYN070AAXX  04214 07265 26/// /2310 10087 20084 39971 40229 53012 333 69967;
0122072650999992000010422004+47800+003550FM-12+0212LFLA V0202701N002119999999N9999999N1+00881+00851102331ADDAA101000591MA1999999099751MD1310121+9999REMSYN070AAXX  04224 07265 26/// /2704 10088 20085 39975 40233 53012 333 69965;
0122072650999992000010423004+47800+003550FM-12+0212LFLA V0203001N002119999999N9999999N1+00781+00751102391ADDAA101000591MA1999999099801MD1210141+9999REMSYN070AAXX  04234 07265 26/// /3004 10078 20075 39980 40239 52014 333 69945;
0128072650999992000010500004+47800+003550FM-12+0212LFLA V0202101N002119999999N9999999N1+00751+00721102371ADDAA103001091MA1999999099781MD1010071+9999REMSYN076AAXX  05004 07265 /6/// /2104 10075 20072 39978 40237 50007 60021 333 60017;
0122072650999992000010501004+47800+003550FM-12+0212LFLA V0202201N003119999999N9999999N1+00741+00711102351ADDAA101000791MA1999999099761MD1010011+9999REMSYN070AAXX  05014 07265 26/// /2206 10074 20071 39976 40235 50001 333 69905;
0122072650999992000010502004+47800+003550FM-12+0212LFLA V0202301N002119999999N9999999N1+00761+00731102391ADDAA101000791MA1999999099801MD1510001+9999REMSYN070AAXX  05024 07265 26/// /2304 10076 20073 39980 40239 55000 333 69905;
0122072650999992000010503004+47800+003550FM-12+0212LFLA V0202401N003119999999N9999999N1+00771+00761102401ADDAA103000791MA1999999099811MD1310031+9999REMSYN070AAXX  05034 07265 26/// /2406 10077 20076 39981 40240 53003 333 69907;
0122072650999992000010504004+47800+003550FM-12+0212LFLA V0202201N002119999999N9999999N1+00771+00761102381ADDAA101000791MA1999999099791MD1010031+9999REMSYN070AAXX  05044 07265 26/// /2204 10077 20076 39979 40238 50003 333 69905;
0189072650999992000010505004+47800+003550FM-12+0212LFLA V0202401N002110078019N0070001N1+00781+00771102381ADDAA106000091GA1071+007809059GF107991071051008001999999MA1999999099791MD1810011+9999REMSYN076AAXX  05054 07265 32557 72404 10078 20077 39979 40238 58001 875// 333 87626;EQDQ01  00002PRCP06
0269072650999992000010506004+47800+003550FM-12+0212LFLA V0202601N001012200019N0080001N1+00701+00671102411ADDAA112002091AA224003291GA1041+007809059GF104991041051008001001001GJ100009IA1019IA2999+00509KA1999M+00891KA2999N+00701MA1999999099811MD1510001+9999REMSYN112AAXX  05064 07265 12558 42602 10070 20067 39981 40241 55000 60022 84500 333 10089 20070 30005 55000 70032 84626;
0189072650999992000010507004+47800+003550FM-12+0212LFLA V0202101N003110078019N0060001N1+00721+00711102411ADDAA106000091GA1071+007809059GF107991071051008001001001MA1999999099821MD1310031+9999REMSYN076AAXX  05074 07265 32556 72106 10072 20071 39982 40241 53003 87500 333 87626;EQDQ01  00002PRCP06
0189072650999992000010508004+47800+003550FM-12+0212LFLA V0202101N003110078019N0050001N1+00731+00721102401ADDAA106000091GA1071+007809059GF107991071051008001001001MA1999999099811MD1010021+9999REMSYN076AAXX  05084 07265 32550 72106 10073 20072 39981 40240 50002 87500 333 87626;EQDQ01  00002PRCP06
0189072650999992000010509004+47800+003550FM-12+0212LFLA V0202101N002110099019N0060001N1+00771+00761102431ADDAA106000091GA1071+009909059GF107991071051012501001001MA1999999099841MD1310031+9999REMSYN076AAXX  05094 07265 32656 72104 10077 20076 39984 40243 53003 87500 333 87633;EQDQ01  00002PRCP06
0189072650999992000010510004+47800+003550FM-12+0212LFLA V0202001N003110099019N0070001N1+00861+00831102441ADDAA106000091GA1071+009909059GF107991071051012501001001MA1999999099861MD1310041+9999REMSYN076AAXX  05104 07265 32657 72006 10086 20083 39986 40244 53004 87500 333 87633;EQDQ01  00002PRCP06
0165072650999992000010512004+47800+003550FM-12+0212LFLA V0202101N00411009001CN0150001N1+01071+00781102311ADDGA1011+003009089GF107991071081004501001011MA1999999099751MD1810091+9999REMSYN082AAXX  05124 07265 42465 72108 10107 20078 39975 40231 58009 87801 333 81810 87073;
0195072650999992000010513004+47800+003550FM-12+0212LFLA V0202001N00311220001CN0150001N1+01131+00761102231ADDAA106000091GA1021+003909089GF107991021081004501001011MA1999999099681MD1810181+9999REMSYN082AAXX  05134 07265 32465 72006 10113 20076 39968 40223 58018 82801 333 82813 87073;EQDQ01  00002PRCP06
0195072650999992000010514004+47800+003550FM-12+0212LFLA V0202301N00311220001CN0170001N1+01231+00701102171ADDAA106000091GA1011+003909089GF107991011011004501001011MA1999999099631MD1610181+9999REMSYN082AAXX  05144 07265 32467 72306 10123 20070 39963 40217 56018 81101 333 81813 87073;EQDQ01  00002PRCP06
0165072650999992000010515004+47800+003550FM-12+0212LFLA V0202201N00211220001CN0200001N1+01071+00651102151ADDGA1031+006909089GF107991031011008001001011MA1999999099591MD1610161+9999REMSYN082AAXX  05154 07265 42570 72204 10107 20065 39959 40215 56016 83101 333 83823 86073;
0195072650999992000010516004+47800+003550FM-12+0212LFLA V0201801N001010069019N0200001N1+00961+00691102101ADDAA106000091GA1061+006909069GF107991061051008001001011MA1999999099541MD1710141+9999REMSYN082AAXX  05164 07265 32570 71802 10096 20069 39954 40210 57014 86501 333 86623 86073;EQDQ01  00002PRCP06
0131072650999992000010517004+47800+003550FM-12+0212LFLA V0201701N004119999999N9999999N1+00881+00681102101ADDAA106000091MA1999999099531MD1610101+9999REMSYN060AAXX  05174 07265 32/// /1708 10088 20068 39953 40210 56010;EQDQ01  00002PRCP06
0131072650999992000010519004+47800+003550FM-12+0212LFLA V0201601N003119999999N9999999N1+00761+00621102061ADDAA106000091MA1999999099481MD1810061+9999REMSYN060AAXX  05194 07265 36/// /1606 10076 20062 39948 40206 58006;EQDQ01  00002PRCP06
0131072650999992000010521004+47800+003550FM-12+0212LFLA V0201701N003119999999N9999999N1+00671+00581102041ADDAA106000091MA1999999099451MD1610061+9999REMSYN060AAXX  05214 07265 36/// /1706 10067 20058 39945 40204 56006;EQDQ01  00002PRCP06
0131072650999992000010522004+47800+003550FM-12+0212LFLA V0201601N002119999999N9999999N1+00581+00521102021ADDAA106000091MA1999999099421MD1810061+9999REMSYN060AAXX  05224 07265 36/// /1604 10058 20052 39942 40202 58006;EQDQ01  00002PRCP06
0131072650999992000010601004+47800+003550FM-12+0212LFLA V0201601N003119999999N9999999N1+00431+00391101981ADDAA106000091MA1999999099371MD1710051+9999REMSYN060AAXX  06014 07265 36/// /1606 10043 20039 39937 40198 57005;EQDQ01  00002PRCP06
0122072650999992000010602004+47800+003550FM-12+0212LFLA V0201501N004119999999N9999999N1+00401+00361101981ADDAA101000191MA1999999099371MD1610041+9999REMSYN070AAXX  06024 07265 26/// /1508 10040 20036 39937 40198 56004 333 69925;
0122072650999992000010603004+47800+003550FM-12+0212LFLA V0201601N003119999999N9999999N1+00361+00301101981ADDAA103000191MA1999999099361MD1710021+9999REMSYN070AAXX  06034 07265 26/// /1606 10036 20030 39936 40198 57002 333 69927;
0131072650999992000010604004+47800+003550FM-12+0212LFLA V0201701N004119999999N9999999N1+00371+00331101961ADDAA106000091MA1999999099341MD1810031+9999REMSYN060AAXX  06044 07265 36/// /1708 10037 20033 39934 40196 58003;EQDQ01  00002PRCP06
0217072650999992000010605004+47800+003550FM-12+0212LFLA V0201601N004110750019N0030001N1+00321+00281101961ADDAA106000091AY121999AY221999GA1051+075009019GF105991001001999999001011MA1999999099341MD1610031+9999MW1101REMSYN082AAXX  06054 07265 31930 51608 10032 20028 39934 40196 56003 71022 80001 333 85075;EQDQ01  00002PRCP06
0272072650999992000010606004+47800+003550FM-12+0212LFLA V0201701N005110750019N0030001N1+00331+00291101961ADDAA112000191AY121061AY221061GA1051+075009019GF105991001001999999001011IA1019IA2999+00209KA1999M+00801KA2999N+00311MA1999999099341MD1610021+9999MW1101REMSYN112AAXX  06064 07265 11930 51710 10033 20029 39934 40196 56002 69922 71022 80001 333 10080 20031 30002 55/// 85075;
0223072650999992000010607004+47800+003550FM-12+0212LFLA V0201701N00311220001CN0030001N1+00271+00231102031ADDAA106000091AY121999AY221999GA1021+009009069GF105991021051008001001011MA1999999099401MD1310061+9999MW1101REMSYN088AAXX  06074 07265 31530 51706 10027 20023 39940 40203 53006 71022 82501 333 82630 85075;EQDQ01  00002PRCP06
0223072650999992000010608004+47800+003550FM-12+0212LFLA V0201701N00411220001CN0030001N1+00301+00271102091ADDAA106000091AY121999AY221999GA1021+009009069GF105991021051008001001011MA1999999099461MD1310121+9999MW1101REMSYN088AAXX  06084 07265 31530 51708 10030 20027 39946 40209 53012 71022 82501 333 82630 85075;EQDQ01  00002PRCP06
0217072650999992000010609004+47800+003550FM-12+0212LFLA V0201801N003112200019N0030001N1+00491+00391102101ADDAA106000091AY111031AY211031GA1041+075009019GF104991001001999999001011MA1999999099491MD1110151+9999MW1101REMSYN082AAXX  06094 07265 31930 41806 10049 20039 39949 40210 51015 71011 80001 333 84075;EQDQ01  00002PRCP06
0217072650999992000010610004+47800+003550FM-12+0212LFLA V0201801N002112200019N0030001N1+00741+00471102171ADDAA106000091AY101999AY201999GA1041+075009019GF104991001001999999001011MA1999999099581MD1310181+9999MW1101REMSYN082AAXX  06104 07265 31930 41804 10074 20047 39958 40217 53018 71000 80001 333 84075;EQDQ01  00002PRCP06
0189072650999992000010611004+47800+003550FM-12+0212LFLA V0202001N003112200019N0050001N1+00941+00541102151ADDAA106000091GA1041+075009019GF104991001001999999001011MA1999999099581MD1110121+9999REMSYN076AAXX  06114 07265 32950 42006 10094 20054 39958 40215 51012 80001 333 84075;EQDQ01  00002PRCP06
0189072650999992000010612004+47800+003550FM-12+0212LFLA V0202201N005112200019N0100001N1+01071+00501102111ADDAA106000091GA1041+075009019GF104991001001999999001011MA1999999099551MD1010061+9999REMSYN076AAXX  06124 07265 32960 42210 10107 20050 39955 40211 50006 80001 333 84075;EQDQ01  00002PRCP06
0131072650999992000010613004+47800+003550FM-12+0212LFLA V0202201N006219999999N9999999N1+01041+00501102111ADDAA106000091MA1999999099551MD1710031+9999REMSYN060AAXX  06134 07265 36/// /2212 10104 20050 39955 40211 57003;EQDQ01  00002PRCP06
0189072650999992000010614004+47800+003550FM-12+0212LFLA V0202201N004110750019N0100001N1+01071+00571102111ADDAA106000091GA1061+075009019GF106991001001999999001021MA1999999099551MD1610031+9999REMSYN076AAXX  06144 07265 32960 62208 10107 20057 39955 40211 56003 80002 333 86075;EQDQ01  00002PRCP06
0189072650999992000010615004+47800+003550FM-12+0212LFLA V0202101N004110750019N0100001N1+01001+00561102161ADDAA106000091GA1061+075009019GF106991001001999999001021MA1999999099601MD1310051+9999REMSYN076AAXX  06154 07265 32960 62108 10100 20056 39960 40216 53005 80002 333 86075;EQDQ01  00002PRCP06
0195072650999992000010616004+47800+003550FM-12+0212LFLA V0202101N004119999999N0100001N1+00891+00581102211ADDAA106000091GA1021+033009039GF107991021001999999031021MA1999999099641MD1310091+9999REMSYN082AAXX  06164 07265 32960 72108 10089 20058 39964 40221 53009 82032 333 82361 87075;EQDQ01  00002PRCP06
0131072650999992000010617004+47800+003550FM-12+0212LFLA V0202001N003119999999N9999999N1+00791+00521102251ADDAA106000091MA1999999099671MD1110121+9999REMSYN060AAXX  06174 07265 36/// /2006 10079 20052 39967 40225 51012;EQDQ01  00002PRCP06
0173072650999992000010618004+47800+003550FM-12+0212LFLA V0202001N004119999999N9999999N1+00731+00491102281ADDAA106000091KA1999M+01101KA2999N+00261MA1999999099691MD1110091+9999REMSYN076AAXX  06184 07265 36/// /2008 10073 20049 39969 40228 51009 333 10110 20026;EQDQ01  00002PRCP06
0131072650999992000010620004+47800+003550FM-12+0212LFLA V0202101N004119999999N9999999N1+00791+00541102351ADDAA106000091MA1999999099761MD1310091+9999REMSYN060AAXX  06204 07265 36/// /2108 10079 20054 39976 40235 53009;EQDQ01  00002PRCP06
0131072650999992000010621004+47800+003550FM-12+0212LFLA V0202101N003119999999N9999999N1+00801+00511102391ADDAA106000091MA1999999099801MD1210111+9999REMSYN060AAXX  06214 07265 36/// /2106 10080 20051 39980 40239 52011;EQDQ01  00002PRCP06
0131072650999992000010622004+47800+003550FM-12+0212LFLA V0202201N004119999999N9999999N1+00791+00521102421ADDAA106000091MA1999999099831MD1210101+9999REMSYN060AAXX  06224 07265 36/// /2208 10079 20052 39983 40242 52010;EQDQ01  00002PRCP06
0122072650999992000010623004+47800+003550FM-12+0212LFLA V0202201N003119999999N9999999N1+00711+00591102471ADDAA101000191MA1999999099871MD1210111+9999REMSYN070AAXX  06234 07265 26/// /2206 10071 20059 39987 40247 52011 333 69925;
0128072650999992000010700004+47800+003550FM-12+0212LFLA V0202201N003119999999N9999999N1+00691+00601102471ADDAA103000891MA1999999099871MD1110071+9999REMSYN076AAXX  07004 07265 /6/// /2206 10069 20060 39987 40247 51007 69981 333 69987;
0131072650999992000010701004+47800+003550FM-12+0212LFLA V0202401N002119999999N9999999N1+00671+00631102501ADDAA106000091MA1999999099901MD1110071+9999REMSYN060AAXX  07014 07265 36/// /2404 10067 20063 39990 40250 51007;EQDQ01  00002PRCP06
0131072650999992000010702004+47800+003550FM-12+0212LFLA V0202501N002119999999N9999999N1+00671+00631102521ADDAA106000091MA1999999099921MD1310051+9999REMSYN060AAXX  07024 07265 36/// /2504 10067 20063 39992 40252 53005;EQDQ01  00002PRCP06
0131072650999992000010703004+47800+003550FM-12+0212LFLA V0202901N002119999999N9999999N1+00691+00651102571ADDAA106000091MA1999999099971MD1310101+9999REMSYN060AAXX  07034 07265 36/// /2904 10069 20065 39997 40257 53010;EQDQ01  00002PRCP06
0131072650999992000010704004+47800+003550FM-12+0212LFLA V0202601N001019999999N9999999N1+00621+00581102621ADDAA106000091MA1999999100011MD1310111+9999REMSYN060AAXX  07044 07265 36/// /2602 10062 20058 30001 40262 53011;EQDQ01  00002PRCP06
0189072650999992000010705004+47800+003550FM-12+0212LFLA V0202701N002110069019N0050001N1+00561+00531102641ADDAA106000091GA1071+006909059GF107991071051008001999999MA1999999100021MD1110101+9999REMSYN076AAXX  07054 07265 33550 72704 10056 20053 30002 40264 51010 875// 333 87623;EQDQ01  00002PRCP06
0297072650999992000010706004+47800+003550FM-12+0212LFLA V0202901N002110039019N0020001N1+00561+00531102691ADDAA112000891AA224000891AY121061AY221061GA1071+003909069GF107991071071004501999999GJ103309IA1019IA2999+00309KA1999M+00811KA2999N+00531MA1999999100071MD1310101+9999MW1101REMSYN118AAXX  07064 07265 11420 72904 10056 20053 30007 40269 53010 69982 71022 877// 333 10081 20053 30003 55055 70008 87713;
0217072650999992000010707004+47800+003550FM-12+0212LFLA V0202701N001010039019N0020001N1+00541+00511102701ADDAA106000091AY121011AY221011GA1071+003909069GF107991071071004501999999MA1999999100081MD1210071+9999MW1101REMSYN082AAXX  07074 07265 31420 72702 10054 20051 30008 40270 52007 71022 877// 333 87713;EQDQ01  00002PRCP06
0217072650999992000010708004+47800+003550FM-12+0212LFLA V0201801N001010018019N0002001N1+00521+00511102721ADDAA106000091AY141999AY221999GA1071+001809069GF107991071071002501999999MA1999999100101MD1110081+9999MW1461REMSYN082AAXX  07084 07265 31302 71802 10052 20051 30010 40272 51008 74642 877// 333 87706;EQDQ01  00002PRCP06
0217072650999992000010709004+47800+003550FM-12+0212LFLA V0201801N002110018019N0008001N1+00511+00501102761ADDAA106000091AY141031AY221031GA1071+001809069GF107991071071002501999999MA1999999100141MD1310071+9999MW1421REMSYN082AAXX  07094 07265 31308 71804 10051 20050 30014 40276 53007 74242 877// 333 87706;EQDQ01  00002PRCP06
0217072650999992000010710004+47800+003550FM-12+0212LFLA V0201801N002110018019N0005001N1+00501+00491102811ADDAA106000091AY141999AY241999GA1071+001809069GF107991071071002501999999MA1999999100181MD1310101+9999MW1461REMSYN082AAXX  07104 07265 31305 71804 10050 20049 30018 40281 53010 74644 877// 333 87706;EQDQ01  00002PRCP06
0223072650999992000010711004+47800+003550FM-12+0212LFLA V0202101N00101009001CN0030001N1+00561+00551102741ADDAA106000091AY141999AY221999GA1031+003909089GF107991071081004501999999MA1999999100121MD1010021+9999MW1281REMSYN088AAXX  07114 07265 31430 72102 10056 20055 30012 40274 50002 72842 878// 333 83813 87623;EQDQ01  00002PRCP06
0223072650999992000010712004+47800+003550FM-12+0212LFLA V0202401N00101009001CN0050001N1+00601+00561102651ADDAA106000091AY141061AY221061GA1031+003909089GF107991071081004501999999MA1999999100041MD1810101+9999MW1001REMSYN088AAXX  07124 07265 31450 72402 10060 20056 30004 40265 58010 70042 878// 333 83813 87623;EQDQ01  00002PRCP06
0195072650999992000010713004+47800+003550FM-12+0212LFLA V0202301N00211012001CN0020001N1+00651+00481102621ADDAA106000091GA1031+006009089GF107991071081008001999999MA1999999100011MD1610171+9999REMSYN082AAXX  07134 07265 32520 72304 10065 20048 30001 40262 56017 878// 333 83820 87630;EQDQ01  00002PRCP06
0195072650999992000010714004+47800+003550FM-12+0212LFLA V0202201N00211012001CN0200001N1+00651+00421102571ADDAA106000091GA1031+006009089GF107991071081008001999999MA1999999099961MD1610161+9999REMSYN082AAXX  07144 07265 32570 72204 10065 20042 39996 40257 56016 878// 333 83820 87630;EQDQ01  00002PRCP06
0189072650999992000010715004+47800+003550FM-12+0212LFLA V0202401N001010078019N0200001N1+00661+00431102551ADDAA106000091GA1071+007809059GF107991071081008001999999MA1999999099951MD1610091+9999REMSYN076AAXX  07154 07265 32570 72402 10066 20043 39995 40255 56009 878// 333 87626;EQDQ01  00002PRCP06
0189072650999992000010716004+47800+003550FM-12+0212LFLA V0202101N002110078019N0200001N1+00631+00401102541ADDAA106000091GA1071+007809059GF107991071081008001999999MA1999999099931MD1610081+9999REMSYN076AAXX  07164 07265 32570 72104 10063 20040 39993 40254 56008 878// 333 87626;EQDQ01  00002PRCP06
0131072650999992000010717004+47800+003550FM-12+0212LFLA V0202101N002119999999N9999999N1+00601+00371102531ADDAA106000091MA1999999099921MD1710041+9999REMSYN060AAXX  07174 07265 36/// /2104 10060 20037 39992 40253 57004;EQDQ01  00002PRCP06
0173072650999992000010718004+47800+003550FM-12+0212LFLA V0202101N003119999999N9999999N1+00591+00371102521ADDAA106000091KA1999M+00671KA2999N+00491MA1999999099911MD1610041+9999REMSYN076AAXX  07184 07265 36/// /2106 10059 20037 39991 40252 56004 333 10067 20049;EQDQ01  00002PRCP06
0131072650999992000010719004+47800+003550FM-12+0212LFLA V0202001N003119999999N9999999N1+00571+00321102521ADDAA106000091MA1999999099911MD1610021+9999REMSYN060AAXX  07194 07265 36/// /2006 10057 20032 39991 40252 56002;EQDQ01  00002PRCP06
0131072650999992000010720004+47800+003550FM-12+0212LFLA V0202301N002119999999N9999999N1+00511+00311102511ADDAA106000091MA1999999099891MD1810031+9999REMSYN060AAXX  07204 07265 36/// /2304 10051 20031 39989 40251 58003;EQDQ01  00002PRCP06
0131072650999992000010721004+47800+003550FM-12+0212LFLA V0201901N002119999999N9999999N1+00381+00251102511ADDAA106000091MA1999999099881MD1810031+9999REMSYN060AAXX  07214 07265 36/// /1904 10038 20025 39988 40251 58003;EQDQ01  00002PRCP06
0131072650999992000010722004+47800+003550FM-12+0212LFLA V0201901N002119999999N9999999N1+00291+00221102511ADDAA106000091MA1999999099871MD1610041+9999REMSYN060AAXX  07224 07265 36/// /1904 10029 20022 39987 40251 56004;EQDQ01  00002PRCP06
0131072650999992000010723004+47800+003550FM-12+0212LFLA V0201801N003119999999N9999999N1+00211+00171102451ADDAA106000091MA1999999099801MD1810091+9999REMSYN060AAXX  07234 07265 36/// /1806 10021 20017 39980 40245 58009;EQDQ01  00002PRCP06
0131072650999992000010800004+47800+003550FM-12+0212LFLA V0201701N003119999999N9999999N1+00201+00161102411ADDAA106000091MA1999999099761MD1810121+9999REMSYN060AAXX  08004 07265 36/// /1706 10020 20016 39976 40241 58012;EQDQ01  00002PRCP06
0131072650999992000010801004+47800+003550FM-12+0212LFLA V0201701N004119999999N9999999N1+00191+00161102351ADDAA106000091MA1999999099711MD1610161+9999REMSYN060AAXX  08014 07265 36/// /1708 10019 20016 39971 40235 56016;EQDQ01  00002PRCP06
0131072650999992000010802004+47800+003550FM-12+0212LFLA V0201701N004119999999N9999999N1+00261+00251102341ADDAA106000091MA1999999099701MD1610101+9999REMSYN060AAXX  08024 07265 36/// /1708 10026 20025 39970 40234 56010;EQDQ01  00002PRCP06
0131072650999992000010803004+47800+003550FM-12+0212LFLA V0201701N004119999999N9999999N1+00321+00311102321ADDAA106000091MA1999999099691MD1610071+9999REMSYN060AAXX  08034 07265 36/// /1708 10032 20031 39969 40232 56007;EQDQ01  00002PRCP06
0131072650999992000010804004+47800+003550FM-12+0212LFLA V0201701N004119999999N9999999N1+00351+00341102281ADDAA106000091MA1999999099651MD1810061+9999REMSYN060AAXX  08044 07265 36/// /1708 10035 20034 39965 40228 58006;EQDQ01  00002PRCP06
0303072650999992000010806004+47800+003550FM-12+0212LFLA V0202001N003110048019N0060001N1+00411+00401102291ADDAA103000291AA224000291AY161061AY221061GA1081+004809059GF108991081051004501999999GJ100009IA1099IA2999+00009KA1999M+00591KA2999N+00171MA1999999099671MD1510021+9999MW1021REMSYN124AAXX  08064 07265 /1456 82006 10041 20040 39967 40229 55002 69922 70262 885// 333 10059 20017 31000 55000 69927 70002 88616;
0189072650999992000010807004+47800+003550FM-12+0212LFLA V0201701N002110048019N0060001N1+00411+00401102301ADDAA106000091GA1081+004809059GF108991081051004501999999MA1999999099681MD1310031+9999REMSYN076AAXX  08074 07265 32456 81704 10041 20040 39968 40230 53003 885// 333 88616;EQDQ01  00002PRCP06
0189072650999992000010808004+47800+003550FM-12+0212LFLA V0201701N004110039019N0050001N1+00431+00401102291ADDAA106000091GA1081+003909059GF108991081051004501999999MA1999999099671MD1010021+9999REMSYN076AAXX  08084 07265 32450 81708 10043 20040 39967 40229 50002 885// 333 88613;EQDQ01  00002PRCP06
0189072650999992000010809004+47800+003550FM-12+0212LFLA V0201801N004110039019N0050001N1+00471+00441102341ADDAA106000091GA1081+003909059GF108991081051004501999999MA1999999099721MD1310051+9999REMSYN076AAXX  08094 07265 32450 81808 10047 20044 39972 40234 53005 885// 333 88613;EQDQ01  00002PRCP06
0189072650999992000010810004+47800+003550FM-12+0212LFLA V0201901N004110048019N0060001N1+00551+00481102351ADDAA106000091GA1071+004809059GF107991071051004501999999MA1999999099741MD1310061+9999REMSYN076AAXX  08104 07265 32456 71908 10055 20048 39974 40235 53006 875// 333 87616;EQDQ01  00002PRCP06
0189072650999992000010811004+47800+003550FM-12+0212LFLA V0201801N003110048019N0060001N1+00591+00501102291ADDAA106000091GA1081+004809069GF108991081061004501999999MA1999999099691MD1010021+9999REMSYN076AAXX  08114 07265 32456 81806 10059 20050 39969 40229 50002 886// 333 88716;EQDQ01  00002PRCP06
0189072650999992000010812004+47800+003550FM-12+0212LFLA V0201801N002110048019N0060001N1+00631+00561102251ADDAA106000091GA1081+004809069GF108991081061004501999999MA1999999099651MD1810071+9999REMSYN076AAXX  08124 07265 32456 81804 10063 20056 39965 40225 58007 886// 333 88716;EQDQ01  00002PRCP06
0204072650999992000010813004+47800+003550FM-12+0212LFLA V0201701N004110048019N0050001N1+00631+00571102211ADDAA101999929AY151999AY221999GA1081+004809069GF108991081071004501999999MA1999999099611MD1610131+9999MW1501REMSYN088AAXX  08134 07265 21450 81708 10063 20057 39961 40221 56013 75052 887// 333 69905 88716;
0204072650999992000010814004+47800+003550FM-12+0212LFLA V0201901N002110048019N0050001N1+00651+00581102201ADDAA101999929AY151999AY221999GA1081+004809069GF108991081071004501999999MA1999999099601MD1610091+9999MW1201REMSYN088AAXX  08144 07265 21450 81904 10065 20058 39960 40220 56009 72052 887// 333 69905 88716;
0204072650999992000010815004+47800+003550FM-12+0212LFLA V0201801N003110048019N0040001N1+00671+00611102181ADDAA103999929AY151031AY221031GA1081+004809069GF108991081071004501999999MA1999999099591MD1610061+9999MW1101REMSYN088AAXX  08154 07265 21440 81806 10067 20061 39959 40218 56006 71052 887// 333 69907 88716;
0204072650999992000010816004+47800+003550FM-12+0212LFLA V0201801N003110039019N0004001N1+00651+00621102191ADDAA101000291AY151999AY221999GA1081+003909069GF108991081071004501999999MA1999999099591MD1610021+9999MW1511REMSYN088AAXX  08164 07265 21404 81806 10065 20062 39959 40219 56002 75152 887// 333 69925 88713;
0122072650999992000010817004+47800+003550FM-12+0212LFLA V0201801N003119999999N9999999N1+00681+00671102191ADDAA101000191MA1999999099601MD1510001+9999REMSYN070AAXX  08174 07265 26/// /1806 10068 20067 39960 40219 55000 333 69925;
0166072650999992000010818004+47800+003550FM-12+0212LFLA V0201701N002119999999N9999999N1+00671+00661102191ADDAA103000591KA1999M+00681KA2999N+00411MA1999999099601MD1210011+9999REMSYN088AAXX  08184 07265 /6/// /1704 10067 20066 39960 40219 52001 69942 333 10068 20041 69947;
0122072650999992000010819004+47800+003550FM-12+0212LFLA V0201701N003119999999N9999999N1+00661+00651102191ADDAA101000791MA1999999099601MD1110011+9999REMSYN070AAXX  08194 07265 26/// /1706 10066 20065 39960 40219 51001 333 69905;
0122072650999992000010820004+47800+003550FM-12+0212LFLA V0201701N002119999999N9999999N1+00671+00661102181ADDAA101000591MA1999999099591MD1810011+9999REMSYN070AAXX  08204 07265 26/// /1704 10067 20066 39959 40218 58001 333 69945;
0122072650999992000010821004+47800+003550FM-12+0212LFLA V0201701N003119999999N9999999N1+00661+00651102161ADDAA103000891MA1999999099571MD1810031+9999REMSYN070AAXX  08214 07265 26/// /1706 10066 20065 39957 40216 58003 333 69987;
0122072650999992000010822004+47800+003550FM-12+0212LFLA V0201701N003119999999N9999999N1+00671+00661102151ADDAA101000191MA1999999099561MD1710041+9999REMSYN070AAXX  08224 07265 26/// /1706 10067 20066 39956 40215 57004 333 69925;
0122072650999992000010823004+47800+003550FM-12+0212LFLA V0201801N002119999999N9999999N1+00701+00691102131ADDAA101000191MA1999999099541MD1710051+9999REMSYN070AAXX  08234 07265 26/// /1804 10070 20069 39954 40213 57005 333 69925;
0128072650999992000010900004+47800+003550FM-12+0212LFLA V0201801N002119999999N9999999N1+00711+00701102101ADDAA103001091MA1999999099511MD1810061+9999REMSYN076AAXX  09004 07265 /6/// /1804 10071 20070 39951 40210 58006 60021 333 60017;
0122072650999992000010901004+47800+003550FM-12+0212LFLA V0201801N002119999999N9999999N1+00701+00691102071ADDAA101000591MA1999999099481MD1810081+9999REMSYN070AAXX  09014 07265 26/// /1804 10070 20069 39948 40207 58008 333 69945;
0122072650999992000010902004+47800+003550FM-12+0212LFLA V0201801N002119999999N9999999N1+00711+00701102081ADDAA101000191MA1999999099491MD1510051+9999REMSYN070AAXX  09024 07265 26/// /1804 10071 20070 39949 40208 55005 333 69925;
0122072650999992000010903004+47800+003550FM-12+0212LFLA V0202501N002119999999N9999999N1+00721+00711102081ADDAA103001091MA1999999099491MD1610021+9999REMSYN070AAXX  09034 07265 26/// /2504 10072 20071 39949 40208 56002 333 60017;
0122072650999992000010904004+47800+003550FM-12+0212LFLA V0203601N002119999999N9999999N1+00661+00651102101ADDAA101000591MA1999999099511MD1310031+9999REMSYN070AAXX  09044 07265 26/// /3604 10066 20065 39951 40210 53003 333 69965;
0204072650999992000010905004+47800+003550FM-12+0212LFLA V0200101N003110048019N0040001N1+00561+00551102161ADDAA101002091AY161999AY261999GA1081+004809069GF108991081071004501999999MA1999999099561MD1310071+9999MW1611REMSYN088AAXX  09054 07265 21440 80106 10056 20055 39956 40216 53007 76166 887// 333 60025 88716;
0210072650999992000010908004+47800+003550FM-12+0212LFLA V0203601N00101002101CN0060001N1+00481+00471102381ADDAA101000291AY161999AY261999GA1021+001809079GF108991081051002501999999MA1999999099761MD1310201+9999MW1601REMSYN094AAXX  09084 07265 21356 83602 10048 20047 39976 40238 53020 76066 885// 333 69925 82706 88630;
0210072650999992000010909004+47800+003550FM-12+0212LFLA V0203501N001010018019N0060001N1+00501+00491102451ADDAA103002091AY161031AY221031GA1051+001809079GF108991081051002501999999MA1999999099831MD1310211+9999MW1211REMSYN094AAXX  09094 07265 21356 83502 10050 20049 39983 40245 53021 72162 885// 333 60027 85706 88630;
0176072650999992000010910004+47800+003550FM-12+0212LFLA V0203601N00211002101CN0100001N1+00541+00531102491ADDAA106000021GA1011+001809079GF108991071051002501999999MA1999999099881MD1110221+9999REMSYN082AAXX  09104 07265 32360 83604 10054 20053 39988 40249 51022 875// 333 81706 87630;
0176072650999992000010911004+47800+003550FM-12+0212LFLA V0203601N00211002101CN0150001N1+00581+00571102521ADDAA106000021GA1011+001809079GF108991071051002501999999MA1999999099911MD1110151+9999REMSYN082AAXX  09114 07265 32365 83604 10058 20057 39991 40252 51015 875// 333 81706 87630;
0210072650999992000010912004+47800+003550FM-12+0212LFLA V0203601N002110039019N0150001N1+00641+00521102491ADDAA106002091AY161061AY221061GA1051+003909089GF108991081081004501999999MA1999999099891MD1010061+9999MW1031REMSYN094AAXX  09124 07265 11465 83604 10064 20052 39989 40249 50006 60021 70362 888// 333 85813 88650;
0176072650999992000010913004+47800+003550FM-12+0212LFLA V0203601N002110039019N0150001N1+00661+00441102511ADDAA106000021GA1051+003909089GF107991071081004501999999MA1999999099911MD1110031+9999REMSYN082AAXX  09134 07265 32465 73604 10066 20044 39991 40251 51003 878// 333 85813 87656;
0176072650999992000010914004+47800+003550FM-12+0212LFLA V0200101N00211036001CN0150001N1+00651+00401102551ADDAA106000021GA1021+003909089GF108991031081004501021999MA1999999099941MD1310031+9999REMSYN082AAXX  09144 07265 32465 80104 10065 20040 39994 40255 53003 8382/ 333 82813 88460;
0176072650999992000010915004+47800+003550FM-12+0212LFLA V0203601N00211036001CN0150001N1+00591+00361102631ADDAA106000021GA1021+003909089GF108991021011004501021999MA1999999100021MD1310131+9999REMSYN082AAXX  09154 07265 32465 83604 10059 20036 30002 40263 53013 8212/ 333 82813 88460;
0195072650999992000010916004+47800+003550FM-12+0212LFLA V0203601N00211036001CN0150001N1+00531+00321102721ADDAA106000091GA1021+003909089GF107991021011004501021999MA1999999100101MD1310191+9999REMSYN082AAXX  09164 07265 32465 73604 10053 20032 30010 40272 53019 8212/ 333 82813 87460;EQDQ01  00002PRCP06
0131072650999992000010917004+47800+003550FM-12+0212LFLA V0203601N001019999999N9999999N1+00471+00291102811ADDAA106000091MA1999999100181MD1210241+9999REMSYN060AAXX  09174 07265 36/// /3602 10047 20029 30018 40281 52024;EQDQ01  00002PRCP06
0160072650999992000010918004+47800+003550FM-12+0212LFLA V0203601N002119999999N9999999N1+00421+00271102881ADDAA112002091KA1999M+00671KA2999N+00421MA1999999100241MD1110221+9999REMSYN082AAXX  09184 07265 16/// /3604 10042 20027 30024 40288 51022 60022 333 10067 20042;
0131072650999992000010919004+47800+003550FM-12+0212LFLA V0203501N002119999999N9999999N1+00371+00251102951ADDAA106000091MA1999999100311MD1110211+9999REMSYN060AAXX  09194 07265 36/// /3504 10037 20025 30031 40295 51021;EQDQ01  00002PRCP06
0131072650999992000010920004+47800+003550FM-12+0212LFLA V0200101N002119999999N9999999N1+00351+00221103021ADDAA106000091MA1999999100371MD1210191+9999REMSYN060AAXX  09204 07265 36/// /0104 10035 20022 30037 40302 52019;EQDQ01  00002PRCP06
0131072650999992000010921004+47800+003550FM-12+0212LFLA V0203501N002119999999N9999999N1+00331+00211103091ADDAA106000091MA1999999100441MD1210201+9999REMSYN060AAXX  09214 07265 36/// /3504 10033 20021 30044 40309 52020;EQDQ01  00002PRCP06
0131072650999992000010922004+47800+003550FM-12+0212LFLA V0203601N001019999999N9999999N1+00271+00171103131ADDAA106000091MA1999999100471MD1110161+9999REMSYN060AAXX  09224 07265 36/// /3602 10027 20017 30047 40313 51016;EQDQ01  00002PRCP06
0131072650999992000010923004+47800+003550FM-12+0212LFLA V0203501N002119999999N9999999N1+00201+00141103191ADDAA106000091MA1999999100521MD1110151+9999REMSYN060AAXX  09234 07265 36/// /3504 10020 20014 30052 40319 51015;EQDQ01  00002PRCP06
0131072650999992000011000004+47800+003550FM-12+0212LFLA V0203401N002119999999N9999999N1+00151+00111103221ADDAA106000091MA1999999100551MD1210111+9999REMSYN060AAXX  10004 07265 36/// /3404 10015 20011 30055 40322 52011;EQDQ01  00002PRCP06
0131072650999992000011002004+47800+003550FM-12+0212LFLA V0203401N001019999999N9999999N1+00111+00081103331ADDAA106000091MA1999999100651MD1310131+9999REMSYN060AAXX  10024 07265 36/// /3402 10011 20008 30065 40333 53013;EQDQ01  00002PRCP06
0131072650999992000011003004+47800+003550FM-12+0212LFLA V0203301N002119999999N9999999N1+00091+00061103361ADDAA106000091MA1999999100681MD1110131+9999REMSYN060AAXX  10034 07265 36/// /3304 10009 20006 30068 40336 51013;EQDQ01  00002PRCP06
0131072650999992000011004004+47800+003550FM-12+0212LFLA V0203601N001019999999N9999999N1+00021-00011103391ADDAA106000091MA1999999100701MD1110111+9999REMSYN060AAXX  10044 07265 36/// /3602 10002 21001 30070 40339 51011;EQDQ01  00002PRCP06
0217072650999992000011005004+47800+003550FM-12+0212LFLA V0203101N001012200019N0015001N1-00041-00071103441ADDAA106000091AY101999AY201999GA1031+001509069GF103991031061001501001001MA1999999100741MD1310091+9999MW1101REMSYN082AAXX  10054 07265 31215 33102 11004 21007 30074 40344 53009 71000 83600 333 83705;EQDQ01  00002PRCP06
0310072650999992000011006004+47800+003550FM-12+0212LFLA V0203401N001012200019N0015001N1-00061-00091103491ADDAA106000091AA224001891AY101061AY201061GA1031+001509069GF103991031061001501001001GJ100009IA1019IA2999-00309KA1999M+00421KA2999N-00071MA1999999100791MD1310111+9999MW1101REMSYN112AAXX  10064 07265 31215 33402 11006 21009 30079 40349 53011 71000 83600 333 10042 21007 30103 55000 70018 83705;EQDQ01  00002PRCP06
0201072650999992000011007004+47800+003550FM-12+0212LFLA V0203501N001012200019N0006001N1-00111-00141103541ADDAA106000091AY141999AY201999GA1001+999999999GF100991001001999999001001MA1999999100831MD1210131+9999MW1461REMSYN066AAXX  10074 07265 31906 03502 11011 21014 30083 40354 52013 74640;EQDQ01  00002PRCP06
0201072650999992000011008004+47800+003550FM-12+0212LFLA V0203601N001010003019N0004001N1-00071-00081103621ADDAA106000091AY141999AY241999GA1091+999999999GF109991091999999999999999MA1999999100921MD1310181+9999MW1471REMSYN066AAXX  10084 07265 31/04 93602 11007 21008 30092 40362 53018 74744;EQDQ01  00002PRCP06
0217072650999992000011009004+47800+003550FM-12+0212LFLA V0200101N001010009019N0010001N1-00021-00031103661ADDAA106000091AY141031AY211031GA1081+000909069GF108991081061001501999999MA1999999100961MD1210171+9999MW1281REMSYN082AAXX  10094 07265 31210 80102 11002 21003 30096 40366 52017 72841 886// 333 88703;EQDQ01  00002PRCP06
0217072650999992000011010004+47800+003550FM-12+0212LFLA V0203601N001010009019N0010001N1+00051+00041103681ADDAA106000091AY121999AY221999GA1071+000909069GF107991071061001501999999MA1999999100991MD1110161+9999MW1101REMSYN082AAXX  10104 07265 31210 73602 10005 20004 30099 40368 51016 71022 876// 333 87703;EQDQ01  00002PRCP06
0217072650999992000011011004+47800+003550FM-12+0212LFLA V0200201N001012200019N0030001N1+00131+00121103691ADDAA106000091AY111999AY211999GA1031+001509029GF103991031011001501001001MA1999999101001MD1110081+9999MW1101REMSYN082AAXX  10114 07265 31230 30202 10013 20012 30100 40369 51008 71011 83100 333 83805;EQDQ01  00002PRCP06
0217072650999992000011012004+47800+003550FM-12+0212LFLA V0200501N002112200019N0040001N1+00201+00071103641ADDAA106000091AY141061AY211061GA1031+001809029GF103991031011002501001001MA1999999100961MD1010001+9999MW1101REMSYN082AAXX  10124 07265 31340 30504 10020 20007 30096 40364 50000 71041 83100 333 83806;EQDQ01  00002PRCP06
0189072650999992000011013004+47800+003550FM-12+0212LFLA V0200201N001012200019N0050001N1+00301+00091103611ADDAA106000091GA1031+001809029GF103991031011002501001001MA1999999100941MD1810051+9999REMSYN076AAXX  10134 07265 32350 30202 10030 20009 30094 40361 58005 83100 333 83806;EQDQ01  00002PRCP06
0189072650999992000011014004+47800+003550FM-12+0212LFLA V0200101N001012200019N0080001N1+00401+00091103591ADDAA106000091GA1031+001809029GF103991031011002501001001MA1999999100931MD1610071+9999REMSYN076AAXX  10144 07265 32358 30102 10040 20009 30093 40359 56007 83100 333 83806;EQDQ01  00002PRCP06
0189072650999992000011015004+47800+003550FM-12+0212LFLA V0203501N001012200019N0080001N1+00401+00121103621ADDAA106000091GA1021+001809029GF102991021011002501001001MA1999999100961MD1510001+9999REMSYN076AAXX  10154 07265 32358 23502 10040 20012 30096 40362 55000 82100 333 82806;EQDQ01  00002PRCP06
0189072650999992000011016004+47800+003550FM-12+0212LFLA V0203501N001012200019N0080001N1+00241+00051103651ADDAA106000091GA1021+001809029GF102991021011002501001001MA1999999100981MD1310041+9999REMSYN076AAXX  10164 07265 32358 23502 10024 20005 30098 40365 53004 82100 333 82806;EQDQ01  00002PRCP06
0131072650999992000011017004+47800+003550FM-12+0212LFLA V0203501N002119999999N9999999N1+00091+00001103721ADDAA106000091MA1999999101031MD1310101+9999REMSYN060AAXX  10174 07265 32/// /3504 10009 20000 30103 40372 53010;EQDQ01  00002PRCP06
0173072650999992000011018004+47800+003550FM-12+0212LFLA V0203301N002119999999N9999999N1+00051+00011103761ADDAA106000091KA1999M+00421KA2999N-00141MA1999999101061MD1310101+9999REMSYN076AAXX  10184 07265 36/// /3304 10005 20001 30106 40376 53010 333 10042 21014;EQDQ01  00002PRCP06
0131072650999992000011019004+47800+003550FM-12+0212LFLA V0203501N001019999999N9999999N1+00001-00031103771ADDAA106000091MA1999999101071MD1110091+9999REMSYN060AAXX  10194 07265 36/// /3502 10000 21003 30107 40377 51009;EQDQ01  00002PRCP06
0131072650999992000011020004+47800+003550FM-12+0212LFLA V0203501N001019999999N9999999N1+00001-00031103801ADDAA106000091MA1999999101101MD1210071+9999REMSYN060AAXX  10204 07265 36/// /3502 10000 21003 30110 40380 52007;EQDQ01  00002PRCP06
0131072650999992000011021004+47800+003550FM-12+0212LFLA V0203401N001019999999N9999999N1+00011+00001103801ADDAA106000091MA1999999101101MD1110041+9999REMSYN060AAXX  10214 07265 36/// /3402 10001 20000 30110 40380 51004;EQDQ01  00002PRCP06
0131072650999992000011022004+47800+003550FM-12+0212LFLA V0203201N002119999999N9999999N1+00001-00011103811ADDAA106000091MA1999999101111MD1110041+9999REMSYN060AAXX  10224 07265 36/// /3204 10000 21001 30111 40381 51004;EQDQ01  00002PRCP06
0131072650999992000011023004+47800+003550FM-12+0212LFLA V0203201N002119999999N9999999N1-00021-00031103831ADDAA106000091MA1999999101131MD1310031+9999REMSYN060AAXX  10234 07265 36/// /3204 11002 21003 30113 40383 53003;EQDQ01  00002PRCP06
0131072650999992000011100004+47800+003550FM-12+0212LFLA V0203301N002119999999N9999999N1-00031-00041103871ADDAA106000091MA1999999101161MD1310061+9999REMSYN060AAXX  11004 07265 36/// /3304 11003 21004 30116 40387 53006;EQDQ01  00002PRCP06
0131072650999992000011101004+47800+003550FM-12+0212LFLA V0203401N002119999999N9999999N1-00051-00061103861ADDAA106000091MA1999999101151MD1010041+9999REMSYN060AAXX  11014 07265 36/// /3404 11005 21006 30115 40386 50004;EQDQ01  00002PRCP06
0131072650999992000011102004+47800+003550FM-12+0212LFLA V0203401N001019999999N9999999N1-00081-00091103871ADDAA106000091MA1999999101161MD1110031+9999REMSYN060AAXX  11024 07265 36/// /3402 11008 21009 30116 40387 51003;EQDQ01  00002PRCP06
0131072650999992000011103004+47800+003550FM-12+0212LFLA V0203201N001019999999N9999999N1-00101-00111103881ADDAA106000091MA1999999101171MD1310011+9999REMSYN060AAXX  11034 07265 36/// /3202 11010 21011 30117 40388 53001;EQDQ01  00002PRCP06
0131072650999992000011104004+47800+003550FM-12+0212LFLA V0203301N001019999999N9999999N1-00131-00141103911ADDAA106000091MA1999999101191MD1310041+9999REMSYN060AAXX  11044 07265 36/// /3302 11013 21014 30119 40391 53004;EQDQ01  00002PRCP06
0201072650999992000011105004+47800+003550FM-12+0212LFLA V0203401N001010001519N0001001N1-00131-00141103931ADDAA106000091AY141999AY221999GA1091+999999999GF109991091999999999999999MA1999999101211MD1310051+9999MW1471REMSYN066AAXX  11054 07265 31/01 93402 11013 21014 30121 40393 53005 74742;EQDQ01  00002PRCP06
0287072650999992000011106004+47800+003550FM-12+0212LFLA V0209999C000010001519N0001001N1-00131-00141103951ADDAA106000091AY141061AY221061GA1091+999999999GF109991091999999999999999GJ101509IA1019IA2999-00109KA1999M+00041KA2999N-00141MA1999999101231MD1210061+9999MW1451REMSYN100AAXX  11064 07265 31/01 90000 11013 21014 30123 40395 52006 74542 333 10004 21014 30101 55025 70000;EQDQ01  00002PRCP06
0201072650999992000011107004+47800+003550FM-12+0212LFLA V0203401N001010001519N0001001N1-00151-00161103981ADDAA106000091AY141999AY241999GA1091+999999999GF109991091999999999999999MA1999999101261MD1310071+9999MW1451REMSYN066AAXX  11074 07265 31/01 93402 11015 21016 30126 40398 53007 74544;EQDQ01  00002PRCP06
0201072650999992000011108004+47800+003550FM-12+0212LFLA V0209999C000010001519N0001001N1-00141-00151103991ADDAA106000091AY141999AY241999GA1091+999999999GF109991091999999999999999MA1999999101271MD1110061+9999MW1451REMSYN066AAXX  11084 07265 31/01 90000 11014 21015 30127 40399 51006 74544;EQDQ01  00002PRCP06
0201072650999992000011109004+47800+003550FM-12+0212LFLA V0209999C000010001519N0001001N1-00111-00121104011ADDAA106000091AY141031AY241031GA1091+999999999GF109991091999999999999999MA1999999101291MD1110061+9999MW1451REMSYN066AAXX  11094 07265 31/01 90000 11011 21012 30129 40401 51006 74544;EQDQ01  00002PRCP06
0201072650999992000011110004+47800+003550FM-12+0212LFLA V0203101N001010001519N0001001N1-00131-00141104031ADDAA106000091AY141999AY241999GA1091+999999999GF109991091999999999999999MA1999999101311MD1310051+9999MW1451REMSYN066AAXX  11104 07265 31/01 93102 11013 21014 30131 40403 53005 74544;EQDQ01  00002PRCP06
0201072650999992000011111004+47800+003550FM-12+0212LFLA V0203001N001010001519N0001001N1-00101-00111103991ADDAA106000091AY141999AY241999GA1091+999999999GF109991091999999999999999MA1999999101271MD1010001+9999MW1451REMSYN066AAXX  11114 07265 31/01 93002 11010 21011 30127 40399 50000 74544;EQDQ01  00002PRCP06
0201072650999992000011112004+47800+003550FM-12+0212LFLA V0203601N001010001519N0001001N1-00071-00081103951ADDAA106000091AY141061AY241061GA1091+999999999GF109991091999999999999999MA1999999101241MD1810051+9999MW1451REMSYN066AAXX  11124 07265 31/01 93602 11007 21008 30124 40395 58005 74544;EQDQ01  00002PRCP06
0201072650999992000011113004+47800+003550FM-12+0212LFLA V0203601N001010001519N0001001N1-00071-00081103891ADDAA106000091AY141999AY241999GA1091+999999999GF109991091999999999999999MA1999999101181MD1810131+9999MW1451REMSYN066AAXX  11134 07265 31/01 93602 11007 21008 30118 40389 58013 74544;EQDQ01  00002PRCP06
0201072650999992000011114004+47800+003550FM-12+0212LFLA V0200301N001010001519N0001001N1-00061-00071103861ADDAA106000091AY141999AY241999GA1091+999999999GF109991091999999999999999MA1999999101151MD1710121+9999MW1451REMSYN066AAXX  11144 07265 31/01 90302 11006 21007 30115 40386 57012 74544;EQDQ01  00002PRCP06
0217072650999992000011115004+47800+003550FM-12+0212LFLA V0203601N001010006019N0003001N1-00051-00061103861ADDAA106000091AY141031AY241031GA1081+000609069GF108991081061000751999999MA1999999101151MD1610091+9999MW1421REMSYN082AAXX  11154 07265 31103 83602 11005 21006 30115 40386 56009 74244 886// 333 88702;EQDQ01  00002PRCP06
0217072650999992000011116004+47800+003550FM-12+0212LFLA V0200101N001010006019N0001001N1-00071-00081103851ADDAA106000091AY141999AY241999GA1081+000609069GF108991081061000751999999MA1999999101141MD1610041+9999MW1461REMSYN082AAXX  11164 07265 31101 80102 11007 21008 30114 40385 56004 74644 886// 333 88702;EQDQ01  00002PRCP06
0131072650999992000011117004+47800+003550FM-12+0212LFLA V0200201N002119999999N9999999N1-00091-00101103851ADDAA106000091MA1999999101141MD1710011+9999REMSYN060AAXX  11174 07265 36/// /0204 11009 21010 30114 40385 57001;EQDQ01  00002PRCP06
0173072650999992000011118004+47800+003550FM-12+0212LFLA V0203601N001019999999N9999999N1-00101-00111103851ADDAA106000091KA1999M-00041KA2999N-00151MA1999999101141MD1610011+9999REMSYN076AAXX  11184 07265 36/// /3602 11010 21011 30114 40385 56001 333 11004 21015;EQDQ01  00002PRCP06
0131072650999992000011119004+47800+003550FM-12+0212LFLA V0203601N001019999999N9999999N1-00101-00111103861ADDAA106000091MA1999999101151MD1310011+9999REMSYN060AAXX  11194 07265 36/// /3602 11010 21011 30115 40386 53001;EQDQ01  00002PRCP06
0131072650999992000011120004+47800+003550FM-12+0212LFLA V0209999C000019999999N9999999N1-00111-00121103831ADDAA106000091MA1999999101121MD1810021+9999REMSYN060AAXX  11204 07265 36/// /0000 11011 21012 30112 40383 58002;EQDQ01  00002PRCP06
0131072650999992000011121004+47800+003550FM-12+0212LFLA V0200101N001019999999N9999999N1-00121-00131103801ADDAA106000091MA1999999101091MD1810051+9999REMSYN060AAXX  11214 07265 36/// /0102 11012 21013 30109 40380 58005;EQDQ01  00002PRCP06
0131072650999992000011122004+47800+003550FM-12+0212LFLA V0200201N001019999999N9999999N1-00121-00131103751ADDAA106000091MA1999999101041MD1810111+9999REMSYN060AAXX  11224 07265 36/// /0202 11012 21013 30104 40375 58011;EQDQ01  00002PRCP06
0131072650999992000011123004+47800+003550FM-12+0212LFLA V0200301N001019999999N9999999N1-00101-00111103731ADDAA106000091MA1999999101021MD1610101+9999REMSYN060AAXX  11234 07265 36/// /0302 11010 21011 30102 40373 56010;EQDQ01  00002PRCP06
0131072650999992000011200004+47800+003550FM-12+0212LFLA V0209999C000019999999N9999999N1-00081-00091103681ADDAA106000091MA1999999100971MD1710121+9999REMSYN060AAXX  12004 07265 36/// /0000 11008 21009 30097 40368 57012;EQDQ01  00002PRCP06
0131072650999992000011201004+47800+003550FM-12+0212LFLA V0203601N002119999999N9999999N1-00091-00101103621ADDAA106000091MA1999999100911MD1810131+9999REMSYN060AAXX  12014 07265 36/// /3604 11009 21010 30091 40362 58013;EQDQ01  00002PRCP06
0131072650999992000011202004+47800+003550FM-12+0212LFLA V0203601N001019999999N9999999N1-00071-00081103571ADDAA106000091MA1999999100871MD1610151+9999REMSYN060AAXX  12024 07265 36/// /3602 11007 21008 30087 40357 56015;EQDQ01  00002PRCP06
0131072650999992000011203004+47800+003550FM-12+0212LFLA V0200401N001019999999N9999999N1-00071-00081103531ADDAA106000091MA1999999100831MD1610141+9999REMSYN060AAXX  12034 07265 36/// /0402 11007 21008 30083 40353 56014;EQDQ01  00002PRCP06
0131072650999992000011204004+47800+003550FM-12+0212LFLA V0200701N001019999999N9999999N1-00061-00071103461ADDAA106000091MA1999999100761MD1810151+9999REMSYN060AAXX  12044 07265 36/// /0702 11006 21007 30076 40346 58015;EQDQ01  00002PRCP06
0201072650999992000011205004+47800+003550FM-12+0212LFLA V0203401N001010003019N0005001N1-00051-00061103401ADDAA106000091AY141999AY221999GA1091+999999999GF109991091999999999999999MA1999999100701MD1810171+9999MW1471REMSYN066AAXX  12054 07265 31/05 93402 11005 21006 30070 40340 58017 74742;EQDQ01  00002PRCP06
0287072650999992000011206004+47800+003550FM-12+0212LFLA V0209999C000010006019N0006001N1-00031-00041103401ADDAA106000091AY141061AY221061GA1091+999999999GF109991091999999999999999GJ100009IA1099IA2999-00109KA1999M-00031KA2999N-00131MA1999999100711MD1510121+9999MW1431REMSYN100AAXX  12064 07265 31/06 90000 11003 21004 30071 40340 55012 74342 333 11003 21013 31101 55000 70000;EQDQ01  00002PRCP06
0201072650999992000011207004+47800+003550FM-12+0212LFLA V0209999C000010006019N0008001N1-00031-00041103391ADDAA106000091AY141999AY241999GA1091+999999999GF109991091999999999999999MA1999999100701MD1610061+9999MW1431REMSYN066AAXX  12074 07265 31/08 90000 11003 21004 30070 40339 56006 74344;EQDQ01  00002PRCP06
0201072650999992000011208004+47800+003550FM-12+0212LFLA V0200301N001010003019N0003001N1-00031-00041103381ADDAA106000091AY141999AY241999GA1091+999999999GF109991091999999999999999MA1999999100691MD1810011+9999MW1431REMSYN066AAXX  12084 07265 31/03 90302 11003 21004 30069 40338 58001 74344;EQDQ01  00002PRCP06
0223072650999992000011209004+47800+003550FM-12+0212LFLA V0200301N001010006019N0004001N1+00011+00001103361ADDAA106000091AY141031AY241031GA1051+000609079GF108991081051000751999999MA1999999100671MD1810041+9999MW1421REMSYN088AAXX  12094 07265 31104 80302 10001 20000 30067 40336 58004 74244 885// 333 85702 88626;EQDQ01  00002PRCP06
0223072650999992000011210004+47800+003550FM-12+0212LFLA V0200601N00101001201CN0010001N1+00071+00061103311ADDAA106000091AY141999AY221999GA1031+000909079GF108991081051001501999999MA1999999100631MD1810071+9999MW1281REMSYN088AAXX  12104 07265 31210 80602 10007 20006 30063 40331 58007 72842 885// 333 83703 88626;EQDQ01  00002PRCP06
0223072650999992000011211004+47800+003550FM-12+0212LFLA V0200401N00211002101CN0020001N1+00131+00121103241ADDAA106000091AY121999AY221999GA1031+001809079GF108991081051002501999999MA1999999100571MD1810121+9999MW1101REMSYN088AAXX  12114 07265 31320 80404 10013 20012 30057 40324 58012 71022 885// 333 83706 88630;EQDQ01  00002PRCP06
0223072650999992000011212004+47800+003550FM-12+0212LFLA V0200201N00101002101CN0025001N1+00161+00131103121ADDAA106000091AY141061AY221061GA1031+001809079GF108991081051002501999999MA1999999100451MD1810221+9999MW1101REMSYN088AAXX  12124 07265 31325 80202 10016 20013 30045 40312 58022 71042 885// 333 83706 88630;EQDQ01  00002PRCP06
0223072650999992000011213004+47800+003550FM-12+0212LFLA V0201001N00101002101CN0030001N1+00181+00061103021ADDAA106000091AY121999AY221999GA1011+001809079GF108991081051002501999999MA1999999100361MD1810271+9999MW1101REMSYN088AAXX  12134 07265 31330 81002 10018 20006 30036 40302 58027 71022 885// 333 81706 88640;EQDQ01  00002PRCP06
0223072650999992000011214004+47800+003550FM-12+0212LFLA V0200401N00101002101CN0040001N1+00211+00081102981ADDAA106000091AY121999AY221999GA1011+001809079GF108991081051002501999999MA1999999100321MD1610251+9999MW1101REMSYN088AAXX  12144 07265 31340 80402 10021 20008 30032 40298 56025 71022 885// 333 81706 88633;EQDQ01  00002PRCP06
0223072650999992000011215004+47800+003550FM-12+0212LFLA V0200301N00101002101CN0035001N1+00201+00071102921ADDAA106000091AY121031AY221031GA1011+001809079GF108991081051002501999999MA1999999100261MD1610191+9999MW1101REMSYN088AAXX  12154 07265 31335 80302 10020 20007 30026 40292 56019 71022 885// 333 81706 88633;EQDQ01  00002PRCP06
0223072650999992000011216004+47800+003550FM-12+0212LFLA V0200601N00101002101CN0020001N1+00191+00071102911ADDAA106000091AY121999AY221999GA1011+001809079GF108991081051002501999999MA1999999100251MD1610111+9999MW1101REMSYN088AAXX  12164 07265 31320 80602 10019 20007 30025 40291 56011 71022 885// 333 81706 88633;EQDQ01  00002PRCP06
0131072650999992000011217004+47800+003550FM-12+0212LFLA V0209999C000019999999N9999999N1+00161+00071102861ADDAA106000091MA1999999100201MD1610121+9999REMSYN060AAXX  12174 07265 36/// /0000 10016 20007 30020 40286 56012;EQDQ01  00002PRCP06
0173072650999992000011218004+47800+003550FM-12+0212LFLA V0209999C000019999999N9999999N1+00151+00091102811ADDAA106000091KA1999M+00211KA2999N-00031MA1999999100151MD1810111+9999REMSYN076AAXX  12184 07265 36/// /0000 10015 20009 30015 40281 58011 333 10021 21003;EQDQ01  00002PRCP06
0131072650999992000011219004+47800+003550FM-12+0212LFLA V0201601N001019999999N9999999N1+00181+00121102741ADDAA106000091MA1999999100081MD1810171+9999REMSYN060AAXX  12194 07265 36/// /1602 10018 20012 30008 40274 58017;EQDQ01  00002PRCP06
0131072650999992000011220004+47800+003550FM-12+0212LFLA V0201501N001019999999N9999999N1+00201+00131102671ADDAA106000091MA1999999100021MD1810181+9999REMSYN060AAXX  12204 07265 36/// /1502 10020 20013 30002 40267 58018;EQDQ01  00002PRCP06
0131072650999992000011221004+47800+003550FM-12+0212LFLA V0201701N002119999999N9999999N1+00201+00111102621ADDAA106000091MA1999999099971MD1610181+9999REMSYN060AAXX  12214 07265 36/// /1704 10020 20011 39997 40262 56018;EQDQ01  00002PRCP06
0131072650999992000011222004+47800+003550FM-12+0212LFLA V0201801N002119999999N9999999N1+00211+00111102551ADDAA106000091MA1999999099901MD1810181+9999REMSYN060AAXX  12224 07265 36/// /1804 10021 20011 39990 40255 58018;EQDQ01  00002PRCP06
0131072650999992000011223004+47800+003550FM-12+0212LFLA V0202001N002119999999N9999999N1+00211+00051102511ADDAA106000091MA1999999099861MD1610161+9999REMSYN060AAXX  12234 07265 36/// /2004 10021 20005 39986 40251 56016;EQDQ01  00002PRCP06
0131072650999992000011300004+47800+003550FM-12+0212LFLA V0201901N002119999999N9999999N1+00221-00071102441ADDAA106000091MA1999999099791MD1710181+9999REMSYN060AAXX  13004 07265 36/// /1904 10022 21007 39979 40244 57018;EQDQ01  00002PRCP06
0131072650999992000011301004+47800+003550FM-12+0212LFLA V0202001N005119999999N9999999N1+00181-00271102361ADDAA106000091MA1999999099711MD1810191+9999REMSYN060AAXX  13014 07265 36/// /2010 10018 21027 39971 40236 58019;EQDQ01  00002PRCP06
0131072650999992000011302004+47800+003550FM-12+0212LFLA V0202301N003119999999N9999999N1+00131-00251102341ADDAA106000091MA1999999099691MD1610171+9999REMSYN060AAXX  13024 07265 36/// /2306 10013 21025 39969 40234 56017;EQDQ01  00002PRCP06
0131072650999992000011303004+47800+003550FM-12+0212LFLA V0202201N004119999999N9999999N1+00101-00311102271ADDAA106000091MA1999999099621MD1610171+9999REMSYN060AAXX  13034 07265 36/// /2208 10010 21031 39962 40227 56017;EQDQ01  00002PRCP06
0131072650999992000011304004+47800+003550FM-12+0212LFLA V0202301N003119999999N9999999N1+00051-00361102251ADDAA106000091MA1999999099591MD1810121+9999REMSYN060AAXX  13044 07265 36/// /2306 10005 21036 39959 40225 58012;EQDQ01  00002PRCP06
0195072650999992000011305004+47800+003550FM-12+0212LFLA V0202201N00411004201CN0100001N1+00021-00371102221ADDAA106000091GA1031+003009079GF108991081051004501999999MA1999999099561MD1610131+9999REMSYN082AAXX  13054 07265 32460 82208 10002 21037 39956 40222 56013 885// 333 83710 87623;EQDQ01  00002PRCP06
0288072650999992000011306004+47800+003550FM-12+0212LFLA V0202101N00411004201CN0100001N1+00021-00321102151ADDAA106000091AA224000091GA1011+003009079GF108991081051004501999999GJ100009IA1019IA2999+00009KA1999M+00241KA2999N+00021MA1999999099491MD1810131+9999REMSYN112AAXX  13064 07265 32460 82108 10002 21032 39949 40215 58013 885// 333 10024 20002 30000 55000 70000 81710 87623;EQDQ01  00002PRCP06
0131072650999992000011307004+47800+003550FM-12+0212LFLA V0202101N004119999999N9999999N1-00021-00341102151ADDAA106000091MA1999999099491MD1610101+9999REMSYN060AAXX  13074 07265 36/// /2108 11002 21034 39949 40215 56010;EQDQ01  00002PRCP06
0195072650999992000011308004+47800+003550FM-12+0212LFLA V0202101N00311004201CN0100001N1-00071-00371102151ADDAA106000091GA1011+003009079GF106991061051004501001001MA1999999099481MD1610081+9999REMSYN082AAXX  13084 07265 32460 62106 11007 21037 39948 40215 56008 86500 333 81710 86623;EQDQ01  00002PRCP06
0195072650999992000011309004+47800+003550FM-12+0212LFLA V0202101N004112200019N0050001N1-00061-00391102161ADDAA106000091GA1021+003009079GF104991021071004501001011MA1999999099491MD1510001+9999REMSYN082AAXX  13094 07265 32450 42108 11006 21039 39949 40216 55000 82701 333 82710 83175;EQDQ01  00002PRCP06
0195072650999992000011310004+47800+003550FM-12+0212LFLA V0202101N003112200019N0050001N1+00051-00361102131ADDAA106000091GA1021+003009079GF104991021071004501001011MA1999999099481MD1710011+9999REMSYN082AAXX  13104 07265 32450 42106 10005 21036 39948 40213 57001 82701 333 82710 83075;EQDQ01  00002PRCP06
0189072650999992000011311004+47800+003550FM-12+0212LFLA V0202101N003112200019N0050001N1+00151-00371102111ADDAA106000091GA1031+075009019GF104991001001999999001011MA1999999099471MD1810011+9999REMSYN076AAXX  13114 07265 32950 42106 10015 21037 39947 40211 58001 80001 333 83075;EQDQ01  00002PRCP06
0195072650999992000011312004+47800+003550FM-12+0212LFLA V0201901N003112200019N0050001N1+00181-00271102001ADDAA106000091GA1031+012009069GF104991031051012501001011MA1999999099361MD1810131+9999REMSYN082AAXX  13124 07265 32650 41906 10018 21027 39936 40200 58013 83501 333 83640 83075;EQDQ01  00002PRCP06
0189072650999992000011313004+47800+003550FM-12+0212LFLA V0201701N003110120019N0050001N1+00181-00211101921ADDAA106000091GA1071+012009059GF107991071051012501999999MA1999999099281MD1810201+9999REMSYN076AAXX  13134 07265 32650 71706 10018 21021 39928 40192 58020 875// 333 87640;EQDQ01  00002PRCP06
0189072650999992000011314004+47800+003550FM-12+0212LFLA V0201701N003110120019N0080001N1+00251-00201101881ADDAA106000091GA1071+012009059GF107991071051012501999999MA1999999099251MD1610221+9999REMSYN076AAXX  13144 07265 32658 71706 10025 21020 39925 40188 56022 875// 333 87640;EQDQ01  00002PRCP06
0189072650999992000011315004+47800+003550FM-12+0212LFLA V0201701N003110120019N0080001N1+00291-00131101831ADDAA106000091GA1071+012009059GF107991071051012501999999MA1999999099211MD1610151+9999REMSYN076AAXX  13154 07265 32658 71706 10029 21013 39921 40183 56015 875// 333 87640;EQDQ01  00002PRCP06
0189072650999992000011316004+47800+003550FM-12+0212LFLA V0201701N003110099019N0050001N1+00291-00111101831ADDAA106000091GA1071+009909059GF107991071051012501999999MA1999999099211MD1610071+9999REMSYN076AAXX  13164 07265 32650 71706 10029 21011 39921 40183 56007 875// 333 87633;EQDQ01  00002PRCP06
0131072650999992000011317004+47800+003550FM-12+0212LFLA V0201701N004119999999N9999999N1+00301-00081101831ADDAA106000091MA1999999099211MD1610041+9999REMSYN060AAXX  13174 07265 36/// /1708 10030 21008 39921 40183 56004;EQDQ01  00002PRCP06
0173072650999992000011318004+47800+003550FM-12+0212LFLA V0201701N003119999999N9999999N1+00301-00101101841ADDAA106000091KA1999M+00301KA2999N-00081MA1999999099221MD1310011+9999REMSYN076AAXX  13184 07265 36/// /1706 10030 21010 39922 40184 53001 333 10030 21008;EQDQ01  00002PRCP06
0131072650999992000011319004+47800+003550FM-12+0212LFLA V0201501N003119999999N9999999N1+00281-00051101821ADDAA106000091MA1999999099201MD1810011+9999REMSYN060AAXX  13194 07265 36/// /1506 10028 21005 39920 40182 58001;EQDQ01  00002PRCP06
0135072650999992000011320004+47800+003550FM-12+021299999V0201701N004119999999N9999999N1+00301-00081101811ADDAA199000091MA1999999099191MD1810021+9999REMSYN064    AAXX  13204 07265 36/// /1708 10030 21008 39919 40181 58002;EQDQ01  00002PRCP99
0135072650999992000011321004+47800+003550FM-12+021299999V0201701N004119999999N9999999N1+00341-00151101791ADDAA199000091MA1999999099171MD1710051+9999REMSYN064    AAXX  13214 07265 36/// /1708 10034 21015 39917 40179 57005;EQDQ01  00002PRCP99
0135072650999992000011322004+47800+003550FM-12+021299999V0201701N003119999999N9999999N1+00341-00121101801ADDAA199000091MA1999999099181MD1510021+9999REMSYN064    AAXX  13224 07265 36/// /1706 10034 21012 39918 40180 55002;EQDQ01  00002PRCP99
0135072650999992000011323004+47800+003550FM-12+021299999V0201801N002119999999N9999999N1+00351-00091101791ADDAA199000091MA1999999099171MD1610021+9999REMSYN064    AAXX  13234 07265 36/// /1804 10035 21009 39917 40179 56002;EQDQ01  00002PRCP99
0135072650999992000011400004+47800+003550FM-12+021299999V0201701N003119999999N9999999N1+00371-00141101791ADDAA199000091MA1999999099181MD1210011+9999REMSYN064    AAXX  14004 07265 36/// /1706 10037 21014 39918 40179 52001;EQDQ01  00002PRCP99
0135072650999992000011401004+47800+003550FM-12+021299999V0201801N003119999999N9999999N1+00331-00111101791ADDAA199000091MA1999999099171MD1710011+9999REMSYN064    AAXX  14014 07265 36/// /1806 10033 21011 39917 40179 57001;EQDQ01  00002PRCP99
0135072650999992000011402004+47800+003550FM-12+021299999V0201601N003119999999N9999999N1+00291-00131101791ADDAA199000091MA1999999099171MD1010001+9999REMSYN064    AAXX  14024 07265 36/// /1606 10029 21013 39917 40179 50000;EQDQ01  00002PRCP99
0135072650999992000011403004+47800+003550FM-12+021299999V0201601N004119999999N9999999N1+00261-00171101801ADDAA199000091MA1999999099171MD1610011+9999REMSYN064    AAXX  14034 07265 36/// /1608 10026 21017 39917 40180 56001;EQDQ01  00002PRCP99
0135072650999992000011404004+47800+003550FM-12+021299999V0201701N003119999999N9999999N1+00231-00181101811ADDAA199000091MA1999999099181MD1310011+9999REMSYN064    AAXX  14044 07265 36/// /1706 10023 21018 39918 40181 53001;EQDQ01  00002PRCP99
0193072650999992000011405004+47800+003550FM-12+021299999V0201701N003112200019N0100001N1+00131-00211101821ADDAA199000091GA1011+075009019GF101991001001999999001011MA1999999099181MD1210011+9999REMSYN080    AAXX  14054 07265 32960 11706 10013 21021 39918 40182 52001 80001 333 81075;EQDQ01  00002PRCP99
0256072650999992000011406004+47800+003550FM-12+021299999V0201501N001012200019N0100001N1+00061-00231101841ADDAA124000091GA1011+075009019GF101991001001999999001011GJ101929IA1149IA2999-00109KA1999M+00381KA2999N+00061MA1999999099191MD1210021+9999REMSYN110    AAXX  14064 07265 32960 11502 10006 21023 39919 40184 52002 80001 333 10038 20006 34101 55032 70000 81075;
0135072650999992000011407004+47800+003550FM-12+021299999V0201501N003119999999N9999999N1+00081-00211101871ADDAA199000091MA1999999099231MD1310051+9999REMSYN064    AAXX  14074 07265 36/// /1506 10008 21021 39923 40187 53005;EQDQ01  00002PRCP99
0193072650999992000011408004+47800+003550FM-12+021299999V0201401N002112200019N0100001N1+00001-00221101921ADDAA199000091GA1011+075009019GF101991001001999999001011MA1999999099271MD1310091+9999REMSYN080    AAXX  14084 07265 32960 11404 10000 21022 39927 40192 53009 80001 333 81075;EQDQ01  00002PRCP99
0193072650999992000011409004+47800+003550FM-12+021299999V0209999C000012200019N0100001N1+00191-00171101981ADDAA199000091GA1011+075009019GF101991001001999999001011MA1999999099341MD1310151+9999REMSYN080    AAXX  14094 07265 32960 10000 10019 21017 39934 40198 53015 80001 333 81075;EQDQ01  00002PRCP99
0193072650999992000011410004+47800+003550FM-12+021299999V0201701N001012200019N0100001N1+00371-00141101991ADDAA199000091GA1011+075009019GF101991001001999999001011MA1999999099371MD1110141+9999REMSYN080    AAXX  14104 07265 32960 11702 10037 21014 39937 40199 51014 80001 333 81075;EQDQ01  00002PRCP99
0193072650999992000011411004+47800+003550FM-12+021299999V0203501N001012200019N0100001N1+00351-00071101991ADDAA199000091GA1011+075009019GF101991001001999999001011MA1999999099371MD1110101+9999REMSYN080    AAXX  14114 07265 32960 13502 10035 21007 39937 40199 51010 80001 333 81075;EQDQ01  00002PRCP99
0193072650999992000011412004+47800+003550FM-12+021299999V0201001N001012200019N0050001N1+00581-00161101941ADDAA199000091GA1011+075009019GF101991001001999999001011MA1999999099341MD1010001+9999REMSYN080    AAXX  14124 07265 32950 11002 10058 21016 39934 40194 50000 80001 333 81075;EQDQ01  00002PRCP99
0193072650999992000011413004+47800+003550FM-12+021299999V0200901N001012200019N0050001N1+00661-00061101921ADDAA199000091GA1011+075009019GF101991001001999999001011MA1999999099331MD1810041+9999REMSYN080    AAXX  14134 07265 32950 10902 10066 21006 39933 40192 58004 80001 333 81075;EQDQ01  00002PRCP99
0193072650999992000011414004+47800+003550FM-12+021299999V0200301N002112200019N0050001N1+00671-00011101931ADDAA199000091GA1011+075009019GF101991001001999999001011MA1999999099341MD1510031+9999REMSYN080    AAXX  14144 07265 32950 10304 10067 21001 39934 40193 55003 80001 333 81075;EQDQ01  00002PRCP99
0193072650999992000011415004+47800+003550FM-12+021299999V0200501N002112200019N0050001N1+00691-00011101951ADDAA199000091GA1011+075009019GF101991001001999999001011MA1999999099361MD1310021+9999REMSYN080    AAXX  14154 07265 32950 10504 10069 21001 39936 40195 53002 80001 333 81075;EQDQ01  00002PRCP99
0135072650999992000011416004+47800+003550FM-12+021299999V0200501N002119999999N9999999N1+00571+00051101971ADDAA199000091MA1999999099371MD1210041+9999REMSYN064    AAXX  14164 07265 36/// /0504 10057 20005 39937 40197 52004;EQDQ01  00002PRCP99
0135072650999992000011417004+47800+003550FM-12+021299999V0200601N002119999999N9999999N1+00501+00091102041ADDAA199000091MA1999999099431MD1310091+9999REMSYN064    AAXX  14174 07265 36/// /0604 10050 20009 39943 40204 53009;EQDQ01  00002PRCP99
0177072650999992000011418004+47800+003550FM-12+021299999V0200501N002119999999N9999999N1+00421+00051102101ADDAA199000091KA1999M+00711KA2999N+00001MA1999999099481MD1310121+9999REMSYN080    AAXX  14184 07265 36/// /0504 10042 20005 39948 40210 53012 333 10071 20000;EQDQ01  00002PRCP99
0135072650999992000011419004+47800+003550FM-12+021299999V0200601N001019999999N9999999N1+00391+00081102171ADDAA199000091MA1999999099551MD1310181+9999REMSYN064    AAXX  14194 07265 36/// /0602 10039 20008 39955 40217 53018;EQDQ01  00002PRCP99
0135072650999992000011420004+47800+003550FM-12+021299999V0200701N002119999999N9999999N1+00311+00071102251ADDAA199000091MA1999999099621MD1310191+9999REMSYN064    AAXX  14204 07265 36/// /0704 10031 20007 39962 40225 53019;EQDQ01  00002PRCP99
0135072650999992000011421004+47800+003550FM-12+021299999V0200301N002119999999N9999999N1+00241+00031102321ADDAA199000091MA1999999099681MD1110201+9999REMSYN064    AAXX  14214 07265 36/// /0304 10024 20003 39968 40232 51020;EQDQ01  00002PRCP99
0135072650999992000011422004+47800+003550FM-12+021299999V0200301N002119999999N9999999N1+00171-00011102371ADDAA199000091MA1999999099721MD1110171+9999REMSYN064    AAXX  14224 07265 36/// /0304 10017 21001 39972 40237 51017;EQDQ01  00002PRCP99
0135072650999992000011423004+47800+003550FM-12+021299999V0200301N002119999999N9999999N1+00131-00021102431ADDAA199000091MA1999999099781MD1210161+9999REMSYN064    AAXX  14234 07265 36/// /0304 10013 21002 39978 40243 52016;EQDQ01  00002PRCP99
0135072650999992000011500004+47800+003550FM-12+021299999V0200201N002119999999N9999999N1+00061-00051102451ADDAA199000091MA1999999099791MD1110111+9999REMSYN064    AAXX  15004 07265 36/// /0204 10006 21005 39979 40245 51011;EQDQ01  00002PRCP99
0135072650999992000011501004+47800+003550FM-12+021299999V0200301N002119999999N9999999N1+00011-00091102521ADDAA199000091MA1999999099851MD1210131+9999REMSYN064    AAXX  15014 07265 36/// /0304 10001 21009 39985 40252 52013;EQDQ01  00002PRCP99
0135072650999992000011502004+47800+003550FM-12+021299999V0200401N003119999999N9999999N1+00021-00081102581ADDAA199000091MA1999999099911MD1310131+9999REMSYN064    AAXX  15024 07265 36/// /0406 10002 21008 39991 40258 53013;EQDQ01  00002PRCP99
0135072650999992000011503004+47800+003550FM-12+021299999V0200301N003119999999N9999999N1-00031-00131102621ADDAA199000091MA1999999099951MD1110161+9999REMSYN064    AAXX  15034 07265 36/// /0306 11003 21013 39995 40262 51016;EQDQ01  00002PRCP99
0135072650999992000011504004+47800+003550FM-12+021299999V0200301N003119999999N9999999N1-00081-00161102661ADDAA199000091MA1999999099981MD1110131+9999REMSYN064    AAXX  15044 07265 36/// /0306 11008 21016 39998 40266 51013;EQDQ01  00002PRCP99
0177072650999992000011505004+47800+003550FM-12+021299999V0200401N004112200019N0100001N1-00051-00131102711ADDAA199000091GA1001+999999999GF100991001001999999001001MA1999999100031MD1310121+9999REMSYN064    AAXX  15054 07265 32960 00408 11005 21013 30003 40271 53012;EQDQ01  00002PRCP99
0263072650999992000011506004+47800+003550FM-12+021299999V0200301N003112200019N0070001N1-00121-00201102781ADDAA124000091GA1001+999999999GF100991001001999999001001GJ104629IA1149IA2999-00309KA1999M+00421KA2999N-00121MA1999999100091MD1310141+9999REMSYN098    AAXX  15064 07265 32957 00306 11012 21020 30009 40278 53014 333 10042 21012 34103 55077 70000;EQDQ01  00002PRCP24
0221072650999992000011507004+47800+003550FM-12+021299999V0200401N003112200019N0030001N1-00141-00211102861ADDAA199000091AY101999AY201999GA1011+039009079GF101991011001999999031001MA1999999100171MD1310191+9999MW1101REMSYN086    AAXX  15074 07265 31930 10406 11014 21021 30017 40286 53019 71000 81030 333 81363;EQDQ01  00002PRCP99
0205072650999992000011508004+47800+003550FM-12+021299999V0200501N002112200019N0030001N1-00111-00191102951ADDAA199000091AY101999AY201999GA1001+999999999GF100991001001999999001001MA1999999100261MD1310231+9999MW1101REMSYN070    AAXX  15084 07265 31930 00504 11011 21019 30026 40295 53023 71000;EQDQ01  00002PRCP99
0205072650999992000011509004+47800+003550FM-12+021299999V0200401N003112200019N0030001N1-00061-00161103001ADDAA199000091AY101031AY201031GA1001+999999999GF100991001001999999001001MA1999999100311MD1110221+9999MW1101REMSYN070    AAXX  15094 07265 31930 00406 11006 21016 30031 40300 51022 71000;EQDQ01  00002PRCP99
0205072650999992000011510004+47800+003550FM-12+021299999V0200301N004112200019N0040001N1+00061-00121103041ADDAA199000091AY101999AY201999GA1001+999999999GF100991001001999999001001MA1999999100361MD1110191+9999MW1101REMSYN070    AAXX  15104 07265 31940 00308 10006 21012 30036 40304 51019 71000;EQDQ01  00002PRCP99
0205072650999992000011511004+47800+003550FM-12+021299999V0200301N004112200019N0045001N1+00241-00071103041ADDAA199000091AY101999AY201999GA1001+999999999GF100991001001999999001001MA1999999100381MD1110121+9999MW1101REMSYN070    AAXX  15114 07265 31945 00308 10024 21007 30038 40304 51012 71000;EQDQ01  00002PRCP99
0177072650999992000011512004+47800+003550FM-12+021299999V0200301N003112200019N0050001N1+00401-00021102991ADDAA199000091GA1001+999999999GF100991001001999999001001MA1999999100351MD1010041+9999REMSYN064    AAXX  15124 07265 32950 00306 10040 21002 30035 40299 50004;EQDQ01  00002PRCP99
0177072650999992000011513004+47800+003550FM-12+021299999V0200301N005112200019N0050001N1+00501-00171102951ADDAA199000091GA1001+999999999GF100991001001999999001001MA1999999100321MD1810041+9999REMSYN064    AAXX  15134 07265 32950 00310 10050 21017 30032 40295 58004;EQDQ01  00002PRCP99
0177072650999992000011514004+47800+003550FM-12+021299999V0200301N005112200019N0050001N1+00521-00171102981ADDAA199000091GA1001+999999999GF100991001001999999001001MA1999999100351MD1510031+9999REMSYN064    AAXX  15144 07265 32950 00310 10052 21017 30035 40298 55003;EQDQ01  00002PRCP99
0177072650999992000011515004+47800+003550FM-12+021299999V0200201N003112200019N0060001N1+00491-00031103011ADDAA199000091GA1001+999999999GF100991001001999999001001MA1999999100381MD1310031+9999REMSYN064    AAXX  15154 07265 32956 00206 10049 21003 30038 40301 53003;EQDQ01  00002PRCP99
0177072650999992000011516004+47800+003550FM-12+021299999V0200201N003112200019N0060001N1+00331-00031103091ADDAA199000091GA1001+999999999GF100991001001999999001001MA1999999100441MD1310121+9999REMSYN064    AAXX  15164 07265 32956 00206 10033 21003 30044 40309 53012;EQDQ01  00002PRCP99
0135072650999992000011517004+47800+003550FM-12+021299999V0200201N004119999999N9999999N1+00201-00021103131ADDAA199000091MA1999999100471MD1210121+9999REMSYN064    AAXX  15174 07265 36/// /0208 10020 21002 30047 40313 52012;EQDQ01  00002PRCP99
0177072650999992000011518004+47800+003550FM-12+021299999V0200201N004119999999N9999999N1+00161+00011103201ADDAA199000091KA1999M+00541KA2999N-00141MA1999999100531MD1210151+9999REMSYN080    AAXX  15184 07265 36/// /0208 10016 20001 30053 40320 52015 333 10054 21014;EQDQ01  00002PRCP99
0135072650999992000011519004+47800+003550FM-12+021299999V0200201N003119999999N9999999N1+00111+00011103231ADDAA199000091MA1999999100551MD1110111+9999REMSYN064    AAXX  15194 07265 36/// /0206 10011 20001 30055 40323 51011;EQDQ01  00002PRCP99
0135072650999992000011521004+47800+003550FM-12+021299999V0200301N003119999999N9999999N1+00061-00041103301ADDAA199000091MA1999999100621MD1310091+9999REMSYN064    AAXX  15214 07265 36/// /0306 10006 21004 30062 40330 53009;EQDQ01  00002PRCP99
0135072650999992000011522004+47800+003550FM-12+021299999V0200301N003119999999N9999999N1+00031-00071103291ADDAA199000091MA1999999100601MD1010051+9999REMSYN064    AAXX  15224 07265 36/// /0306 10003 21007 30060 40329 50005;EQDQ01  00002PRCP99
0135072650999992000011523004+47800+003550FM-12+021299999V0200301N003119999999N9999999N1+00031-00051103351ADDAA199000091MA1999999100661MD1310081+9999REMSYN064    AAXX  15234 07265 36/// /0306 10003 21005 30066 40335 53008;EQDQ01  00002PRCP99
0135072650999992000011600004+47800+003550FM-12+021299999V0200201N001019999999N9999999N1+00051-00051103321ADDAA199000091MA1999999100641MD1210021+9999REMSYN064    AAXX  16004 07265 36/// /0202 10005 21005 30064 40332 52002;EQDQ01  00002PRCP99
0193072650999992000011605004+47800+003550FM-12+021299999V0200301N003110024019N0080001N1+00081-00101103371ADDAA199000091GA1081+002409059GF108991081061002501999999MA1999999100691MD1010011+9999REMSYN080    AAXX  16054 07265 32358 80306 10008 21010 30069 40337 50001 886// 333 88608;EQDQ01  00002PRCP99
0256072650999992000011606004+47800+003550FM-12+021299999V0200401N005110024019N0080001N1+00071-00141103391ADDAA124000091GA1081+002409069GF108991081061002501999999GJ104629IA1019IA2999-00109KA1999M+00151KA2999N+00021MA1999999100711MD1310011+9999REMSYN110    AAXX  16064 07265 32358 80410 10007 21014 30071 40339 53001 886// 333 10015 20002 30101 55077 70000 88708;
0193072650999992000011607004+47800+003550FM-12+021299999V0200301N004110039019N0080001N1+00061-00181103471ADDAA199000091GA1081+003909059GF108991081051004501999999MA1999999100781MD1310071+9999REMSYN080    AAXX  16074 07265 32458 80308 10006 21018 30078 40347 53007 885// 333 88613;EQDQ01  00002PRCP99
0193072650999992000011608004+47800+003550FM-12+021299999V0200301N003110078019N0060001N1+00031-00191103501ADDAA199000091GA1071+007809059GF108991071051008001999999MA1999999100811MD1310121+9999REMSYN080    AAXX  16084 07265 32556 80306 10003 21019 30081 40350 53012 875// 333 87626;EQDQ01  00002PRCP99
0199072650999992000011609004+47800+003550FM-12+021299999V0200401N00411004201CN0060001N1+00051-00221103531ADDAA199000091GA1021+003009079GF108991071051004501999999MA1999999100841MD1110131+9999REMSYN086    AAXX  16094 07265 32456 80408 10005 21022 30084 40353 51013 875// 333 82710 87626;EQDQ01  00002PRCP99
0209072650999992000011610004+47800+003550FM-12+021299999V0200401N003110240019N0060001N1+00021-00271103551ADDAA199000091GA1051+024009079GF105991051999022501031001MA1999999100861MD1110081+9999REMSYN080    AAXX  16104 07265 32856 50406 10002 21027 30086 40355 51008 85030 333 85358;EQDQ01  00002PRCP99Q02    003SCOLCG
0193072650999992000011611004+47800+003550FM-12+021299999V0200501N003112200019N0060001N1+00111-00261103501ADDAA199000091GA1021+036009079GF102991021001999999031001MA1999999100821MD1010011+9999REMSYN080    AAXX  16114 07265 32956 20506 10011 21026 30082 40350 50001 82030 333 82362;EQDQ01  00002PRCP99
0193072650999992000011612004+47800+003550FM-12+021299999V0200401N004110090019N0080001N1+00201-00231103481ADDAA199000091GA1051+009009059GF105991051051008001001001MA1999999100811MD1810031+9999REMSYN080    AAXX  16124 07265 32558 50408 10020 21023 30081 40348 58003 85500 333 85630;EQDQ01  00002PRCP99
0209072650999992000011613004+47800+003550FM-12+021299999V0200301N004112200019N0080001N1+00221-00291103451ADDAA199000091GA1011+015009059GF101991011051017501999001MA1999999100781MD1610081+9999REMSYN080    AAXX  16134 07265 32758 10308 10022 21029 30078 40345 56008 81500 333 81650;EQDQ01  00002PRCP99Q02    003SCOMCG
0177072650999992000011614004+47800+003550FM-12+021299999V0200301N003112200019N0060001N1+00271-00261103411ADDAA199000091GA1001+999999999GF100991001001999999001001MA1999999100741MD1810081+9999REMSYN064    AAXX  16144 07265 32956 00306 10027 21026 30074 40341 58008;EQDQ01  00002PRCP99
0177072650999992000011615004+47800+003550FM-12+021299999V0200401N005112200019N0060001N1+00231-00261103441ADDAA199000091GA1001+999999999GF100991001001999999001001MA1999999100771MD1510041+9999REMSYN064    AAXX  16154 07265 32956 00410 10023 21026 30077 40344 55004;EQDQ01  00002PRCP99
0177072650999992000011616004+47800+003550FM-12+021299999V0200301N003112200019N0100001N1+00141-00331103431ADDAA199000091GA1001+999999999GF100991001001999999001001MA1999999100751MD1610031+9999REMSYN064    AAXX  16164 07265 32960 00306 10014 21033 30075 40343 56003;EQDQ01  00002PRCP99
0135072650999992000011617004+47800+003550FM-12+021299999V0200201N003119999999N9999999N1+00031-00291103511ADDAA199000091MA1999999100821MD1310081+9999REMSYN064    AAXX  16174 07265 36/// /0206 10003 21029 30082 40351 53008;EQDQ01  00002PRCP99
0177072650999992000011618004+47800+003550FM-12+021299999V0200301N004119999999N9999999N1+00011-00241103521ADDAA199000091KA1999M+00271KA2999N+00001MA1999999100831MD1310061+9999REMSYN080    AAXX  16184 07265 36/// /0308 10001 21024 30083 40352 53006 333 10027 20000;EQDQ01  00002PRCP99
0135072650999992000011619004+47800+003550FM-12+021299999V0200301N003119999999N9999999N1+00001-00251103551ADDAA199000091MA1999999100851MD1110101+9999REMSYN064    AAXX  16194 07265 36/// /0306 10000 21025 30085 40355 51010;EQDQ01  00002PRCP99
