0163080230999992000010100004+43470-003820FM-12+006599999V0202201N005712200019N0200001N1+00881+00421102931ADDAA106000091GF104991041051008001999999MA1999999102201MD1210041+9999REMSYN066AAXX  01004 08023 32570 42211 10088 20042 30220 40293 52004 845//;EQDQ01  00002PRCP06
0133080230999992000010103004+43470-003820FM-12+006599999V0202001N005110075019N0200001N1+00791+00341102921ADDGF105991051051008001001001MA1999999102191MD1610011+9999REMSYN066AAXX  01034 08023 42570 52010 10079 20034 30219 40292 56001 85500;
0198080230999992000010106004+43470-003820FM-12+006599999V0202001N004110120019N0200001N1+00721+00231102891ADDAA106000091GF105991051051012501001001KA1120N+00721MA1999999102161MD1710031+9999REMSYN088AAXX  01064 08023 32670 52008 10072 20023 30216 40289 57003 85500 333 20072 50043 55022;EQDQ01  00002PRCP06
0133080230999992000010109004+43470-003820FM-12+006599999V0202101N004610090019N0300001N1+00791+00231103031ADDGF106991051081004501041001MA1999999102301MD1310141+9999REMSYN066AAXX  01094 08023 42480 62109 10079 20023 30230 40303 53014 85840;
0163080230999992000010112004+43470-003820FM-12+006599999V0202101N002610360019N0150001N1+01101+00401103001ADDAA106000091GF105991041081008001041001MA1999999102281MD1810021+9999REMSYN066AAXX  01124 08023 32565 52105 10110 20040 30228 40300 58002 84840;EQDQ01  00002PRCP06
0133080230999992000010115004+43470-003820FM-12+006599999V0203501N002612200019N0120001N1+01161+00701102921ADDGF104991021051008001081001MA1999999102201MD1510081+9999REMSYN066AAXX  01154 08023 42562 43505 10116 20070 30220 40292 55008 82580;
0196080230999992000010118004+43470-003820FM-12+006599999V0201101N002112200019N0150001N1+00961+00661103011ADDAA106000091GA1001+999999999GF100991001001999999001001KA1999M+01301MA1999999102281MD1110081+9999REMSYN070AAXX  01184 08023 32965 01104 10096 20066 30228 40301 51008 333 10130;EQDQ01  00002PRCP06
0143080230999992000010121004+43470-003820FM-12+006599999V0201801N004112200019N0120001N1+00821+00601103041ADDGA1001+999999999GF100991001001999999001001MA1999999102311MD1110031+9999REMSYN060AAXX  01214 08023 42962 01808 10082 20060 30231 40304 51003;
0173080230999992000010200004+43470-003820FM-12+006599999V0202201N004612200019N0100001N1+00681+00541103051ADDAA106000091GA1001+999999999GF100991001001999999001001MA1999999102321MD1410001+9999REMSYN060AAXX  02004 08023 32960 02209 10068 20054 30232 40305 54001;EQDQ01  00002PRCP06
0143080230999992000010203004+43470-003820FM-12+006599999V0202101N005112200019N0100001N1+00701+00471103011ADDGA1001+999999999GF100991001001999999001001MA1999999102281MD1810041+9999REMSYN060AAXX  02034 08023 42960 02110 10070 20047 30228 40301 58004;
0198080230999992000010206004+43470-003820FM-12+006599999V0201801N002610075019N0100001N1+00721+00491102991ADDAA106000091GF107991071051008001999999KA1120N+00641MA1999999102261MD1710021+9999REMSYN088AAXX  02064 08023 32560 71805 10072 20049 30226 40299 57002 875// 333 20064 50083 55059;EQDQ01  00002PRCP06
0133080230999992000010209004+43470-003820FM-12+006599999V0201701N003110075019N0200001N1+00801+00501103001ADDGF107991071051008001001001MA1999999102271MD1310011+9999REMSYN066AAXX  02094 08023 42570 71706 10080 20050 30227 40300 53001 87500;
0163080230999992000010212004+43470-003820FM-12+006599999V0200301N002112200019N0120001N1+01041+00791102911ADDAA106000091GF101991011051012501001001MA1999999102191MD1810081+9999REMSYN066AAXX  02124 08023 32662 10304 10104 20079 30219 40291 58008 81500;EQDQ01  00002PRCP06
0133080230999992000010215004+43470-003820FM-12+006599999V0200801N006212200019N0120001N1+01161+00881102781ADDGF104991031051012501001051MA1999999102061MD1710131+9999REMSYN066AAXX  02154 08023 42662 40812 10116 20088 30206 40278 57013 83505;
0186080230999992000010218004+43470-003820FM-12+006599999V0200801N007212200019N0120001N1+01061+00921102791ADDAA106000091GF102991001001999999001011KA1999M+01221MA1999999102071MD1010011+9999REMSYN076AAXX  02184 08023 32962 20814 10106 20092 30207 40279 50001 80001 333 10122;EQDQ01  00002PRCP06
0161080230999992000010221004+43470-003820FM-12+006599999V0201001N004112200019N0080001N1+01001+00981102841ADDAY101031AY201031GF102991001001999999001011MA1999999102121MD1010051+9999MW1101REMSYN072AAXX  02214 08023 41958 21008 10100 20098 30212 40284 50005 71000 80001;
0163080230999992000010300004+43470-003820FM-12+006599999V0201601N003112200019N0100001N1+00761+00671102811ADDAA106000091GF102991001001999999001011MA1999999102081MD1610041+9999REMSYN066AAXX  03004 08023 32960 21606 10076 20067 30208 40281 56004 80001;EQDQ01  00002PRCP06
0133080230999992000010303004+43470-003820FM-12+006599999V0202201N004612200019N0100001N1+00781+00301102771ADDGF101991001001999999001011MA1999999102041MD1610041+9999REMSYN066AAXX  03034 08023 42960 12209 10078 20030 30204 40277 56004 80001;
0198080230999992000010306004+43470-003820FM-12+006599999V0202301N005112200019N0120001N1+00691+00221102771ADDAA106000091GF101991001001999999001011KA1120N+00671MA1999999102041MD1410001+9999REMSYN088AAXX  03064 08023 32962 12310 10069 20022 30204 40277 54000 80001 333 20067 50143 55047;EQDQ01  00002PRCP06
0133080230999992000010309004+43470-003820FM-12+006599999V0202101N005112200019N0200001N1+00751+00121102801ADDGF102991001001999999001011MA1999999102071MD1110031+9999REMSYN066AAXX  03094 08023 42970 22110 10075 20012 30207 40280 51003 80001;
0163080230999992000010312004+43470-003820FM-12+006599999V0202201N003112200019N0250001N1+01221+00361102781ADDAA106000091GF103991001001999999001051MA1999999102061MD1810011+9999REMSYN066AAXX  03124 08023 32975 32206 10122 20036 30206 40278 58001 80005;EQDQ01  00002PRCP06
0133080230999992000010315004+43470-003820FM-12+006599999V0200801N001512200019N0150001N1+01161+00651102671ADDGF104991001001999999001041MA1999999101951MD1610111+9999REMSYN066AAXX  03154 08023 42965 40803 10116 20065 30195 40267 56011 80004;
0186080230999992000010318004+43470-003820FM-12+006599999V0202401N002612200019N0120001N1+01021+00701102711ADDAA106000091GF104991001001999999001041KA1999M+01321MA1999999101991MD1310041+9999REMSYN076AAXX  03184 08023 32962 42405 10102 20070 30199 40271 53004 80004 333 10132;EQDQ01  00002PRCP06
0171080230999992000010321004+43470-003820FM-12+006599999V0202101N004112200019N0090001N1+00921+00611102751ADDAY111031AY201031GA1001+999999999GF100991001001999999001001MA1999999102021MD1110031+9999MW1101REMSYN066AAXX  03214 08023 41959 02108 10092 20061 30202 40275 51003 71010;
0163080230999992000010400004+43470-003820FM-12+006599999V0201801N003112200019N0100001N1+00821+00301102711ADDAA106000091GF101991001001999999001011MA1999999101981MD1710041+9999REMSYN066AAXX  04004 08023 32960 11806 10082 20030 30198 40271 57004 80001;EQDQ01  00002PRCP06
0133080230999992000010403004+43470-003820FM-12+006599999V0202401N004612200019N0100001N1+00681+00181102671ADDGF101991001001999999001011MA1999999101941MD1510041+9999REMSYN066AAXX  04034 08023 42960 12409 10068 20018 30194 40267 55004 80001;
0133080230999992000010409004+43470-003820FM-12+006599999V0202001N007210900019N0250001N1+01001+00241102681ADDGF105991021051008001031081MA1999999101961MD1210061+9999REMSYN066AAXX  04094 08023 42575 52014 10100 20024 30196 40268 52006 82538;
0163080230999992000010412004+43470-003820FM-12+006599999V0202201N006210360019N0200001N1+01371+00481102621ADDAA106000091GF106991011051012501031091MA1999999101911MD1610051+9999REMSYN066AAXX  04124 08023 32670 62212 10137 20048 30191 40262 56005 81539;EQDQ01  00002PRCP06
0133080230999992000010415004+43470-003820FM-12+006599999V0202001N005110360019N0120001N1+01391+00511102591ADDGF107991021051012501031091MA1999999101881MD1610031+9999REMSYN066AAXX  04154 08023 42662 72010 10139 20051 30188 40259 56003 82539;
0186080230999992000010418004+43470-003820FM-12+006599999V0202701N005110360019N0150001N1+01141+00631102781ADDAA106000091GF107991021051012501031081KA1999M+01541MA1999999102061MD1210181+9999REMSYN076AAXX  04184 08023 32665 72710 10114 20063 30206 40278 52018 82538 333 10154;EQDQ01  00002PRCP06
0133080230999992000010421004+43470-003820FM-12+006599999V0202001N005110360019N0100001N1+01071+00731102801ADDGF107991041051012501031999MA1999999102081MD1110021+9999REMSYN066AAXX  04214 08023 42660 72010 10107 20073 30208 40280 51002 8453/;
0163080230999992000010500004+43470-003820FM-12+006599999V0202001N005110360019N0100001N1+01141+00501102701ADDAA106000091GF106991041051012501031001MA1999999101981MD1610101+9999REMSYN066AAXX  05004 08023 32660 62010 10114 20050 30198 40270 56010 84530;EQDQ01  00002PRCP06
0133080230999992000010503004+43470-003820FM-12+006599999V0201701N005112200019N0100001N1+01081+00681102561ADDGF103991011051012501031001MA1999999101841MD1610141+9999REMSYN066AAXX  05034 08023 42660 31710 10108 20068 30184 40256 56014 81530;
0198080230999992000010506004+43470-003820FM-12+006599999V0201401N004612200019N0100001N1+00951+00671102331ADDAA106000091GF102991011051012501041001KA1120N+00941MA1999999101611MD1710231+9999REMSYN088AAXX  05064 08023 32660 21409 10095 20067 30161 40233 57023 81540 333 20094 50183 55038;EQDQ01  00002PRCP06
0133080230999992000010509004+43470-003820FM-12+006599999V0201501N003110900019N0300001N1+00981+00611102221ADDGF105991031001017501071051MA1999999101501MD1610111+9999REMSYN066AAXX  05094 08023 42780 51506 10098 20061 30150 40222 56011 83075;
0163080230999992000010512004+43470-003820FM-12+006599999V0200601N001510900019N0250001N1+01211+00911102041ADDAA106000091GF107991031001017501071081MA1999999101331MD1810171+9999REMSYN066AAXX  05124 08023 32775 70603 10121 20091 30133 40204 58017 83078;EQDQ01  00002PRCP06
0133080230999992000010515004+43470-003820FM-12+006599999V0202001N008710900019N0300001N1+01451+00321101681ADDGF107991041001022501071081MA1999999100971MD1710361+9999REMSYN066AAXX  05154 08023 42880 72017 10145 20032 30097 40168 57036 84078;
0133080230999992000010521004+43470-003820FM-12+006599999V0202001N009812200019N0150001N1+01101-00191101661ADDGF104991011001017501041081MA1999999100951MD1310021+9999REMSYN066AAXX  05214 08023 42765 42019 10110 21019 30095 40166 53002 81048;
0133080230999992000010603004+43470-003820FM-12+006599999V0202101N008212200019N0100001N1+01081-00011101811ADDGF102991001001999999001081MA1999999101091MD1210031+9999REMSYN066AAXX  06034 08023 42960 22116 10108 21001 30109 40181 52003 80008;
0198080230999992000010606004+43470-003820FM-12+006599999V0202101N008712200019N0150001N1+01031+00011101871ADDAA106000091GF104991001001999999001081KA1120N+01031MA1999999101151MD1310061+9999REMSYN088AAXX  06064 08023 32965 42117 10103 20001 30115 40187 53006 80008 333 20103 50343 55010;EQDQ01  00002PRCP06
0133080230999992000010609004+43470-003820FM-12+006599999V0202101N009319999999N0200001N1+01061+00021102091ADDGF106991001001999999001061MA1999999101371MD1210221+9999REMSYN066AAXX  06094 08023 42970 62118 10106 20002 30137 40209 52022 80006;
0163080230999992000010612004+43470-003820FM-12+006599999V0202201N005112200019N0150001N1+01521+00271102261ADDAA106000091GF103991001001999999001011MA1999999101551MD1110181+9999REMSYN066AAXX  06124 08023 32965 32210 10152 20027 30155 40226 51018 80001;EQDQ01  00002PRCP06
0161080230999992000010615004+43470-003820FM-12+006599999V0200701N002110900019N0030001N1+01381+00821102341ADDAY121031AY221031GF107991041001017501041061MA1999999101631MD1310081+9999MW1051REMSYN072AAXX  06154 08023 41730 70704 10138 20082 30163 40234 53008 70522 84046;
0133080230999992000010621004+43470-003820FM-12+006599999V0202501N003612200019N0060001N1+01101+00581102641ADDGF104991041001017501041001MA1999999101921MD1210161+9999REMSYN066AAXX  06214 08023 42756 42507 10110 20058 30192 40264 52016 84040;
0173080230999992000010700004+43470-003820FM-12+006599999V0209999C000012200019N0100001N1+00981+00381102681ADDAA106000091GA1001+999999999GF100991001001999999001001MA1999999101961MD1210041+9999REMSYN060AAXX  07004 08023 32960 00000 10098 20038 30196 40268 52004;EQDQ01  00002PRCP06
0143080230999992000010703004+43470-003820FM-12+006599999V0202501N003112200019N0100001N1+01001+00461102681ADDGA1001+999999999GF100991001001999999001001MA1999999101961MD1410001+9999REMSYN060AAXX  07034 08023 42960 02506 10100 20046 30196 40268 54000;
0208080230999992000010706004+43470-003820FM-12+006599999V0202001N004612200019N0100001N1+00981+00161102681ADDAA106000091GA1001+999999999GF100991001001999999001001KA1120N+00921MA1999999101961MD1410001+9999REMSYN082AAXX  07064 08023 32960 02009 10098 20016 30196 40268 54000 333 20092 50103 55060;EQDQ01  00002PRCP06
0161080230999992000010709004+43470-003820FM-12+006599999V0202201N004112200019N0050001N1+01051+00161102711ADDAY101031AY201031GF101991011001999999031001MA1999999101991MD1310031+9999MW1121REMSYN072AAXX  07094 08023 41950 12208 10105 20016 30199 40271 53003 71200 81030;
0191080230999992000010712004+43470-003820FM-12+006599999V0202501N003112200019N0080001N1+01391+00451102661ADDAA106000091AY101061AY201061GF101991011001999999041001MA1999999101951MD1810041+9999MW1051REMSYN072AAXX  07124 08023 31958 12506 10139 20045 30195 40266 58004 70500 81040;EQDQ01  00002PRCP06
0143080230999992000010715004+43470-003820FM-12+006599999V0202901N001512200019N0100001N1+01401+00391102511ADDGA1001+999999999GF100991001001999999001001MA1999999101801MD1610151+9999REMSYN060AAXX  07154 08023 42960 02903 10140 20039 30180 40251 56015;
0186080230999992000010718004+43470-003820FM-12+006599999V0209999C000012200019N0200001N1+01171+00461102561ADDAA106000091GF101991011001999999071001KA1999M+01501MA1999999101841MD1310041+9999REMSYN076AAXX  07184 08023 32970 10000 10117 20046 30184 40256 53004 81070 333 10150;EQDQ01  00002PRCP06
0133080230999992000010721004+43470-003820FM-12+006599999V0202001N003110150019N0100001N1+01181+00371102581ADDGF107991071051017501001001MA1999999101861MD1210021+9999REMSYN066AAXX  07214 08023 42760 72006 10118 20037 30186 40258 52002 87500;
0163080230999992000010800004+43470-003820FM-12+006599999V0202001N002110150019N0150001N1+01201+00451102551ADDAA106000091GF107991071051017501001001MA1999999101831MD1810031+9999REMSYN066AAXX  08004 08023 32765 72004 10120 20045 30183 40255 58003 87500;EQDQ01  00002PRCP06
0133080230999992000010803004+43470-003820FM-12+006599999V0201601N002110150019N0100001N1+01041+00511102521ADDGF107991071051017501001001MA1999999101801MD1710031+9999REMSYN066AAXX  08034 08023 42760 71604 10104 20051 30180 40252 57003 87500;
0198080230999992000010806004+43470-003820FM-12+006599999V0202201N003610150019N0150001N1+01141+00371102481ADDAA106000091GF107991071051017501001001KA1120N+01001MA1999999101761MD1710041+9999REMSYN088AAXX  08064 08023 32765 72207 10114 20037 30176 40248 57004 87500 333 20100 50073 55083;EQDQ01  00002PRCP06
0133080230999992000010809004+43470-003820FM-12+006599999V0202001N005110210019N0200001N1+01281+00651102471ADDGF108991081001022501031001MA1999999101761MD1510001+9999REMSYN066AAXX  08094 08023 42870 82010 10128 20065 30176 40247 55000 88030;
0163080230999992000010812004+43470-003820FM-12+006599999V0202501N002112200019N0120001N1+01481+00581102451ADDAA106000091GF102991021001017501031001MA1999999101741MD1810021+9999REMSYN066AAXX  08124 08023 32762 22504 10148 20058 30174 40245 58002 82030;EQDQ01  00002PRCP06
0133080230999992000010815004+43470-003820FM-12+006599999V0202601N004610150019N0100001N1+01261+00901102371ADDGF106991061001017501031001MA1999999101661MD1610081+9999REMSYN066AAXX  08154 08023 42760 62609 10126 20090 30166 40237 56008 86030;
0186080230999992000010818004+43470-003820FM-12+006599999V0202401N001010150019N0100001N1+01311+00661102421ADDAA106000091GF106991061001017501031001KA1999M+01551MA1999999101711MD1310051+9999REMSYN076AAXX  08184 08023 32760 62402 10131 20066 30171 40242 53005 86030 333 10155;EQDQ01  00002PRCP06
0161080230999992000010821004+43470-003820FM-12+006599999V0202501N002110360019N0080001N1+01171+00931102411ADDAY121031AY221031GF108991031081008001031001MA1999999101691MD1510021+9999MW1211REMSYN072AAXX  08214 08023 41558 82504 10117 20093 30169 40241 55002 72122 83830;
0178080230999992000010900004+43470-003820FM-12+006599999V0202401N004610360019N0030001N1+01031+00891102431ADDAA106000791AY121061AY221061GF108991031081008001071999MA1999999101711MD1310021+9999MW1201REMSYN078AAXX  09004 08023 11530 82409 10103 20089 30171 40243 53002 69901 72022 8387/;
0140080230999992000010903004+43470-003820FM-12+006599999V0202401N007210360019N0100001N1+01041+00881102411ADDAY151031AY221031GF108991031081008001071999MD1110021+9999MW1021REMSYN066AAXX  09034 08023 41560 82414 10104 20088 40241 51002 70252 8387/;
0161080230999992000010909004+43470-003820FM-12+006599999V0200201N006710042019N0080001N1+01021+00771102901ADDAY151031AY221031GF107991071071004501999999MA1999999102181MD1210341+9999MW1161REMSYN072AAXX  09094 08023 41458 70213 10102 20077 30218 40290 52034 71652 877//;
0178080230999992000010912004+43470-003820FM-12+006599999V0200801N002110120019N0150001N1+00841+00801103001ADDAA106007991AY181061AY231061GF107991071081008001999999MA1999999102271MD1110091+9999MW1251REMSYN078AAXX  09124 08023 11565 70804 10084 20080 30227 40300 51009 60081 72583 878//;
0161080230999992000010915004+43470-003820FM-12+006599999V0200301N002610150019N0150001N1+00861+00501103001ADDAY161031AY221031GF107991051081012501071999MA1999999102271MD1410001+9999MW1601REMSYN072AAXX  09154 08023 41665 70305 10086 20050 30227 40300 54000 76062 8587/;
0220080230999992000010918004+43470-003820FM-12+006599999V0200201N009310360019N0150001N1+00921+00521103171ADDAA112007991AY181061AY221061GF105991031081008001071001KA1120M+01051KA2999N+00781MA1999999102441MD1310171+9999MW1151REMSYN094AAXX  09184 08023 11565 50218 10092 20052 30244 40317 53017 60082 71582 83870 333 10105 20078;
0133080230999992000010921004+43470-003820FM-12+006599999V0200501N005712200019N0150001N1+00881+00371103281ADDGF104991021081012501071001MA1999999102551MD1210111+9999REMSYN066AAXX  09214 08023 42665 40511 10088 20037 30255 40328 52011 82870;
0178080230999992000011000004+43470-003820FM-12+006599999V0201201N002610360019N0150001N1+00941+00161103291ADDAA106000591AY181061AY221061GF105991031081008001071001MA1999999102561MD1010011+9999MW1251REMSYN078AAXX  10004 08023 11565 51205 10094 20016 30256 40329 50001 69941 72582 83870;
0133080230999992000011003004+43470-003820FM-12+006599999V0203601N007710360019N0150001N1+00871+00161103331ADDGF106991031081008001071001MA1999999102601MD1310041+9999REMSYN066AAXX  10034 08023 42565 63615 10087 20016 30260 40333 53004 83870;
0209080230999992000011006004+43470-003820FM-12+006599999V0200501N006710120019N0150001N1+00851+00301103331ADDAA112000591GF106991051081008001071001IA1099IA2999+00009KA1120N+00531MA1999999102601MD1410001+9999REMSYN100AAXX  10064 08023 12565 60513 10085 20030 30260 40333 54000 69942 85870 333 20053 31000 50133 55007;
0161080230999992000011009004+43470-003820FM-12+006599999V0202001N001512200019N0080001N1+00671+00281103521ADDAY181031AY221031GF104991041081008001001001MA1999999102781MD1210181+9999MW1051REMSYN072AAXX  10094 08023 41558 42003 10067 20028 30278 40352 52018 70582 84800;
0178080230999992000011012004+43470-003820FM-12+006599999V0200601N005110120019N0100001N1+00921+00071103571ADDAA106000791AY181061AY221061GF106991061081008001001001MA1999999102841MD1010061+9999MW1021REMSYN078AAXX  10124 08023 11560 60610 10092 20007 30284 40357 50006 69901 70282 86800;
0133080230999992000011015004+43470-003820FM-12+006599999V0200401N005712200019N0300001N1+00911+00091103521ADDGF104991041081008001001001MA1999999102791MD1510051+9999REMSYN066AAXX  10154 08023 42580 40411 10091 20009 30279 40352 55005 84800;
0173080230999992000011018004+43470-003820FM-12+006599999V0200601N005112200019N0200001N1+00811-00121103601ADDAA112000191GF103991031081008001001001KA1999M+01041MA1999999102861MD1210071+9999REMSYN082AAXX  10184 08023 12570 30610 10081 21012 30286 40360 52007 69912 83800 333 10104;
0133080230999992000011021004+43470-003820FM-12+006599999V0201401N003112200019N0200001N1+00671+00081103611ADDGF102991021021008001001001MA1999999102871MD1110011+9999REMSYN066AAXX  10214 08023 42570 21406 10067 20008 30287 40361 51001 82200;
0163080230999992000011100004+43470-003820FM-12+006599999V0201801N002612200019N0200001N1+00591-00051103621ADDAA106000091GF101991011021008001001001MA1999999102881MD1410001+9999REMSYN066AAXX  11004 08023 32570 11805 10059 21005 30288 40362 54001 81200;EQDQ01  00002PRCP06
0133080230999992000011103004+43470-003820FM-12+006599999V0201901N002112200019N0200001N1+00481-00061103621ADDGF101991011021008001001001MA1999999102881MD1510001+9999REMSYN066AAXX  11034 08023 42570 11904 10048 21006 30288 40362 55000 81200;
0198080230999992000011106004+43470-003820FM-12+006599999V0201801N003612200019N0200001N1+00371-00071103651ADDAA106000091GF101991011021008001001001KA1120N+00361MA1999999102901MD1110021+9999REMSYN088AAXX  11064 08023 32570 11807 10037 21007 30290 40365 51002 81200 333 20036 50153 55061;EQDQ01  00002PRCP06
0133080230999992000011109004+43470-003820FM-12+006599999V0201701N003612200019N0150001N1+00421-00011103711ADDGF102991021011008001001001MA1999999102961MD1310061+9999REMSYN066AAXX  11094 08023 42565 21707 10042 21001 30296 40371 53006 82100;
0163080230999992000011112004+43470-003820FM-12+006599999V0201101N003612200019N0150001N1+00791+00081103611ADDAA106000091GF101991011011008001001001MA1999999102871MD1810091+9999REMSYN066AAXX  11124 08023 32565 11107 10079 20008 30287 40361 58009 81100;EQDQ01  00002PRCP06
0133080230999992000011115004+43470-003820FM-12+006599999V0200701N006712200019N0120001N1+00761+00161103411ADDGF101991011011008001001001MA1999999102681MD1710191+9999REMSYN066AAXX  11154 08023 42562 10713 10076 20016 30268 40341 57019 81100;
0186080230999992000011118004+43470-003820FM-12+006599999V0200601N005112200019N0120001N1+00671+00201103461ADDAA106000091GF101991011011008001001001KA1999M+00841MA1999999102721MD1310041+9999REMSYN076AAXX  11184 08023 32562 10610 10067 20020 30272 40346 53004 81100 333 10084;EQDQ01  00002PRCP06
0133080230999992000011121004+43470-003820FM-12+006599999V0201301N004112200019N0120001N1+00481+00121103421ADDGF101991011011008001001001MA1999999102681MD1810041+9999REMSYN066AAXX  11214 08023 42562 11308 10048 20012 30268 40342 58004 81100;
0163080230999992000011200004+43470-003820FM-12+006599999V0201301N004112200019N0100001N1+00421+00051103371ADDAA106000091GF101991011011008001001001MA1999999102631MD1710051+9999REMSYN066AAXX  12004 08023 32560 11308 10042 20005 30263 40337 57005 81100;EQDQ01  00002PRCP06
0143080230999992000011203004+43470-003820FM-12+006599999V0201501N002612200019N0100001N1+00381+00061103281ADDGA1001+999999999GF100991001001999999001001MA1999999102541MD1710091+9999REMSYN060AAXX  12034 08023 42960 01505 10038 20006 30254 40328 57009;
0208080230999992000011206004+43470-003820FM-12+006599999V0201501N004112200019N0100001N1+00361-00111103121ADDAA106000091GA1001+999999999GF100991001001999999001001KA1120N+00341MA1999999102381MD1710161+9999REMSYN082AAXX  12064 08023 32960 01508 10036 21011 30238 40312 57016 333 20034 50003 55077;EQDQ01  00002PRCP06
0161080230999992000011209004+43470-003820FM-12+006599999V0201501N003112200019N0090001N1+00561-00161103121ADDAY101031AY201031GF101991001001999999001011MA1999999102381MD1410001+9999MW1051REMSYN072AAXX  12094 08023 41959 11506 10056 21016 30238 40312 54000 70500 80001;
0163080230999992000011212004+43470-003820FM-12+006599999V0203301N001012200019N0040001N1+00861+00231103011ADDAA106000091GF101991001001999999001011MA1999999102281MD1710101+9999REMSYN066AAXX  12124 08023 31940 13302 10086 20023 30228 40301 57010 80001;EQDQ01  00002PRCP06
0133080230999992000011215004+43470-003820FM-12+006599999V0202701N003112200019N0180001N1+00981+00221102841ADDGF101991001001999999001011MA1999999102111MD1710171+9999REMSYN066AAXX  12154 08023 42968 12706 10098 20022 30211 40284 57017 80001;
0186080230999992000011218004+43470-003820FM-12+006599999V0201701N001012200019N0100001N1+00871+00581102791ADDAA106000091GF101991001001999999001011KA1999M+01021MA1999999102061MD1710051+9999REMSYN076AAXX  12184 08023 32960 11702 10087 20058 30206 40279 57005 80001 333 10102;EQDQ01  00002PRCP06
0143080230999992000011221004+43470-003820FM-12+006599999V0201801N005112200019N0100001N1+00731+00161102611ADDGA1001+999999999GF100991001001999999001001MA1999999101881MD1710181+9999REMSYN060AAXX  12214 08023 42960 01810 10073 20016 30188 40261 57018;
0173080230999992000011300004+43470-003820FM-12+006599999V0201901N006212200019N0100001N1+00621-00041102431ADDAA106000091GA1001+999999999GF100991001001999999001001MA1999999101701MD1710181+9999REMSYN060AAXX  13004 08023 32960 01912 10062 21004 30170 40243 57018;EQDQ01  00002PRCP06
0143080230999992000011303004+43470-003820FM-12+006599999V0201901N006212200019N0170001N1+00741+00111102181ADDGA1001+999999999GF100991001001999999001001MA1999999101451MD1710251+9999REMSYN060AAXX  13034 08023 42967 01912 10074 20011 30145 40218 57025;
0198080230999992000011306004+43470-003820FM-12+006599999V0201701N005112200019N0170001N1+00791-00141102031ADDAA106000091GF104991011051008001031011KA1120N+00601MA1999999101311MD1710141+9999REMSYN088AAXX  13064 08023 32567 41710 10079 21014 30131 40203 57014 81531 333 20060 50173 55084;EQDQ01  00002PRCP06
0133080230999992000011309004+43470-003820FM-12+006599999V0200901N001010360019N0150001N1+00921+00201101891ADDGF107991011051017501031011MA1999999101171MD1710141+9999REMSYN066AAXX  13094 08023 42765 70902 10092 20020 30117 40189 57014 81531;
0163080230999992000011312004+43470-003820FM-12+006599999V0202001N007710360019N0200001N1+01041+00091101631ADDAA106000091GF107991011051017501071081MA1999999100911MD1710261+9999REMSYN066AAXX  13124 08023 32770 72015 10104 20009 30091 40163 57026 81578;EQDQ01  00002PRCP06
0133080230999992000011315004+43470-003820FM-12+006599999V0202001N007710360019N0250001N1+01121+00081101421ADDGF106991011051022501071001MA1999999100711MD1710201+9999REMSYN066AAXX  13154 08023 42875 62015 10112 20008 30071 40142 57020 81570;
0186080230999992000011318004+43470-003820FM-12+006599999V0202101N007210360019N0250001N1+00981+00041101411ADDAA106000091GF107991011051017501071999KA1999M+01191MA1999999100691MD1510021+9999REMSYN076AAXX  13184 08023 32775 72114 10098 20004 30069 40141 55002 8157/ 333 10119;EQDQ01  00002PRCP06
0137080230999992000011321004+43470-003820FM-12+006599999V0202101N005710900019N0150001N1+00911+00101101381ADDGF108991041001017501071071MA1999999100661MD1610031+9999REMSYN070    AAXX  13214 08023 42765 82111 10091 20010 30066 40138 56003 84077;
0182080230999992000011400004+43470-003820FM-12+006599999V0201801N005110150019N0200001N1+00861+00271101311ADDAA106000791AY161061AY221061GF108991061001017501071071MA1999999100591MD1810071+9999MW1601REMSYN082    AAXX  14004 08023 11770 81810 10086 20027 30059 40131 58007 69901 76062 86077;
0165080230999992000011403004+43470-003820FM-12+006599999V0201901N002610210019N0200001N1+00861+00101101191ADDAY161031AY221031GF108991081001022501071999MA1999999100471MD1610121+9999MW1601REMSYN076    AAXX  14034 08023 41870 81905 10086 20010 30047 40119 56012 76062 8807/;
0217080230999992000011406004+43470-003820FM-12+006599999V0201901N002110210019N0150001N1+00761+00341101091ADDAA112000791AY161061AY221061GF108991081001022501071999KA1120N+00761MA1999999100371MD1610101+9999MW1021REMSYN104    AAXX  14064 08023 11865 81904 10076 20034 30037 40109 56010 69902 70262 8807/ 333 20076 50143 55025;
0165080230999992000011409004+43470-003820FM-12+006599999V0202601N000510042019N0030001N1+00661+00481101131ADDAY161031AY221031GF108991081071004501999999MA1999999100411MD1310041+9999MW1611REMSYN076    AAXX  14094 08023 41430 82601 10066 20048 30041 40113 53004 76162 887//;
0182080230999992000011412004+43470-003820FM-12+006599999V0201001N007210075019N0050001N1+00821+00321101051ADDAA106002091AY161061AY221061GF108991081071008001999999MA1999999100331MD1810081+9999MW1051REMSYN082    AAXX  14124 08023 11550 81014 10082 20032 30033 40105 58008 60021 70562 887//;
0137080230999992000011415004+43470-003820FM-12+006599999V0201001N006210150019N0100001N1+00961+00521100921ADDGF108991081001017501071999MA1999999100211MD1710121+9999REMSYN070    AAXX  14154 08023 42760 81012 10096 20052 30021 40092 57012 8807/;
0205080230999992000011418004+43470-003820FM-12+006599999V0201101N007710360019N0060001N1+00921+00261101101ADDAA112002091AY161061AY221061GF108991031051008001071999KA1999M+01001MA1999999100391MD1310181+9999MW1801REMSYN092    AAXX  14184 08023 11556 81115 10092 20026 30039 40110 53018 60022 78062 8357/ 333 10100;
0137080230999992000011421004+43470-003820FM-12+006599999V0201001N007710360019N0100001N1+00921+00311101251ADDGF108991021051008001071999MA1999999100531MD1210141+9999REMSYN070    AAXX  14214 08023 42560 81015 10092 20031 30053 40125 52014 8257/;
0182080230999992000011500004+43470-003820FM-12+006599999V0200901N007710210019N0100001N1+00981+00221101401ADDAA106000791AY161061AY221061GF108991081001022501071999MA1999999100691MD1210161+9999MW1021REMSYN082    AAXX  15004 08023 11860 80915 10098 20022 30069 40140 52016 69901 70262 8807/;
0137080230999992000011503004+43470-003820FM-12+006599999V0201001N006710210019N0100001N1+00961+00201101531ADDGF108991081001022501071999MA1999999100811MD1110121+9999REMSYN070    AAXX  15034 08023 42860 81013 10096 20020 30081 40153 51012 8807/;
0189080230999992000011506004+43470-003820FM-12+006599999V0201201N005110210019N0100001N1+00961+00071101691ADDAA112000791GF108991081001022501071999KA1120N+00861MA1999999100971MD1210161+9999REMSYN098    AAXX  15064 08023 12860 81210 10096 20007 30097 40169 52016 69902 8807/ 333 20086 50123 55000;
0137080230999992000011509004+43470-003820FM-12+006599999V0201001N005710360019N0150001N1+00981+00281101931ADDGF107991031021008001071011MA1999999101211MD1210241+9999REMSYN070    AAXX  15094 08023 42565 71011 10098 20028 30121 40193 52024 83271;
0167080230999992000011512004+43470-003820FM-12+006599999V0200701N006210900019N0150001N1+01141+00401102091ADDAA199000091GF105991021081008001041011MA1999999101371MD1110181+9999REMSYN070    AAXX  15124 08023 32565 50712 10114 20040 30137 40209 51018 82841;EQDQ01  00002PRCP99
0165080230999992000011515004+43470-003820FM-12+006599999V0200701N007710900019N0090001N1+01041+00751102171ADDAY111031AY211031GF105991011021008001071021MA1999999101451MD1110081+9999MW1101REMSYN076    AAXX  15154 08023 41559 50715 10104 20075 30145 40217 51008 71011 81272;
0218080230999992000011518004+43470-003820FM-12+006599999V0200801N007212200019N0090001N1+00981+00681102311ADDAA199000091AY111061AY211061GF102991011011008001071011KA1999M+01201MA1999999101591MD1210141+9999MW1101REMSYN086    AAXX  15184 08023 32559 20814 10098 20068 30159 40231 52014 71011 81171 333 10120;EQDQ01  00002PRCP99
0147080230999992000011521004+43470-003820FM-12+006599999V0201401N003112200019N0100001N1+00831+00631102511ADDGA1001+999999999GF100991001001999999001001MA1999999101781MD1210191+9999REMSYN064    AAXX  15214 08023 42960 01406 10083 20063 30178 40251 52019;
0177080230999992000011600004+43470-003820FM-12+006599999V0201001N004112200019N0090001N1+00781+00481102611ADDAA199000091GA1001+999999999GF100991001001999999001001MA1999999101881MD1110101+9999REMSYN064    AAXX  16004 08023 32959 01008 10078 20048 30188 40261 51010;EQDQ01  00002PRCP99
0175080230999992000011603004+43470-003820FM-12+006599999V0201601N002112200019N0090001N1+00701+00371102641ADDAY101031AY201031GA1001+999999999GF100991001001999999001001MA1999999101911MD1210031+9999MW1051REMSYN070    AAXX  16034 08023 42959 01604 10070 20037 30191 40264 52003 70500;
0230080230999992000011606004+43470-003820FM-12+006599999V0209999C000010075019N0090001N1+00691+00331102731ADDAA199000091AY111061AY211061GF107991071061008001999999KA1120N+00621MA1999999102001MD1210091+9999MW1051REMSYN098    AAXX  16064 08023 31559 70000 10069 20033 30200 40273 52009 70511 876// 333 20062 50093 55035;EQDQ01  00002PRCP99
0165080230999992000011609004+43470-003820FM-12+006599999V0202301N002610042019N0090001N1+00781+00411102911ADDAY121031AY221031GF107991071061004501999999MA1999999102181MD1210181+9999MW1051REMSYN076    AAXX  16094 08023 41459 72305 10078 20041 30218 40291 52018 70522 876//;
0195080230999992000011612004+43470-003820FM-12+006599999V0200301N006210042019N0090001N1+00921+00641102951ADDAA199000091AY121061AY221061GF108991081061004501999999MA1999999102221MD1110041+9999MW1101REMSYN076    AAXX  16124 08023 31459 80312 10092 20064 30222 40295 51004 71022 886//;EQDQ01  00002PRCP99
0165080230999992000011615004+43470-003820FM-12+006599999V0200401N006210042019N0070001N1+00811+00341102911ADDAY121031AY221031GF108991081061004501001001MA1999999102181MD1810041+9999MW1051REMSYN076    AAXX  16154 08023 41457 80412 10081 20034 30218 40291 58004 70522 88600;
0218080230999992000011618004+43470-003820FM-12+006599999V0200601N003610042019N0090001N1+00771+00231103031ADDAA199000091AY121061AY221061GF108991081061004501999999KA1999M+00941MA1999999102301MD1110121+9999MW1051REMSYN086    AAXX  16184 08023 31459 80607 10077 20023 30230 40303 51012 70522 886// 333 10094;EQDQ01  00002PRCP99
0165080230999992000011621004+43470-003820FM-12+006599999V0200301N004110042019N0090001N1+00801+00131103111ADDAY121031AY221031GF107991071061004501999999MA1999999102381MD1210081+9999MW1051REMSYN076    AAXX  16214 08023 41459 70308 10080 20013 30238 40311 52008 70522 876//;
0158080230999992000011700004+43470-003820FM-12+006599999V0201701N003119999999N0090001N1+99999+99999999999ADDAA199000091AY121061AY221061MD1710862+9999MW1051REMSYN064    AAXX  17004 08023 31459 /1706 20021 40/17 57086 70522 85///;EQDQ01+000862APC3  Q02  00002PRCP99
0137080230999992000011703004+43470-003820FM-12+006599999V0201801N002610042019N0100001N1+00681+00291103211ADDGF108991081061004501999999MA1999999102471MD1210031+9999REMSYN070    AAXX  17034 08023 42460 81805 10068 20029 30247 40321 52003 886//;
0202080230999992000011706004+43470-003820FM-12+006599999V0201901N002110042019N0100001N1+00671+00141103221ADDAA199000091GF108991081061004501999999KA1120N+00651MA1999999102481MD1310011+9999REMSYN092    AAXX  17064 08023 32460 81904 10067 20014 30248 40322 53001 886// 333 20065 50093 55000;EQDQ01  00002PRCP99
0137080230999992000011709004+43470-003820FM-12+006599999V0201801N002110075019N0150001N1+00691+00111103321ADDGF107991071051008001001001MA1999999102581MD1210101+9999REMSYN070    AAXX  17094 08023 42565 71804 10069 20011 30258 40332 52010 87500;
0167080230999992000011712004+43470-003820FM-12+006599999V0200601N002610120019N0180001N1+00801+00271103401ADDAA199000091GF108991081081008001999999MA1999999102671MD1110091+9999REMSYN070    AAXX  17124 08023 32568 80605 10080 20027 30267 40340 51009 888//;EQDQ01  00002PRCP99
0137080230999992000011715004+43470-003820FM-12+006599999V0209999V001010120019N0180001N1+00861+00201103331ADDGF106991061081008001001001MA1999999102601MD1710071+9999REMSYN070    AAXX  17154 08023 42568 69902 10086 20020 30260 40333 57007 86800;
0190080230999992000011718004+43470-003820FM-12+006599999V0200301N003112200019N0140001N1+00721+00231103371ADDAA199000091GF101991011011008001001001KA1999M+00921MA1999999102631MD1310031+9999REMSYN080    AAXX  17184 08023 32564 10306 10072 20023 30263 40337 53003 81100 333 10092;EQDQ01  00002PRCP99
0195080230999992000011800004+43470-003820FM-12+006599999V0201801N002110075019N0090001N1+00571+00301103341ADDAA199000091AY121061AY211061GF106991061051008001001001MA1999999102601MD1610041+9999MW1101REMSYN076    AAXX  18004 08023 31559 61804 10057 20030 30260 40334 56004 71021 86500;EQDQ01  00002PRCP99
0137080230999992000011803004+43470-003820FM-12+006599999V0202101N002110075019N0100001N1+00641+00191103321ADDGF108991081051008001999999MA1999999102581MD1810021+9999REMSYN070    AAXX  18034 08023 42560 82104 10064 20019 30258 40332 58002 885//;
0202080230999992000011806004+43470-003820FM-12+006599999V0202201N003610075019N0100001N1+00641+00131103181ADDAA199000091GF108991081051008001999999KA1120N+00551MA1999999102441MD1710141+9999REMSYN092    AAXX  18064 08023 32560 82207 10064 20013 30244 40318 57014 885// 333 20055 50073 55014;EQDQ01  00002PRCP99
0137080230999992000011809004+43470-003820FM-12+006599999V0202001N002610075019N0100001N1+00701+00291103211ADDGF107991071051008001999999MA1999999102481MD1310031+9999REMSYN070    AAXX  18094 08023 42560 72005 10070 20029 30248 40321 53003 875//;
0167080230999992000011812004+43470-003820FM-12+006599999V0202101N002610075019N0100001N1+00891+00381103161ADDAA199000091GF107991071051008001999999MA1999999102431MD1810051+9999REMSYN070    AAXX  18124 08023 32560 72105 10089 20038 30243 40316 58005 875//;EQDQ01  00002PRCP99
0137080230999992000011815004+43470-003820FM-12+006599999V0209999C000010120019N0100001N1+00921+00471102971ADDGF108991081051012501999999MA1999999102241MD1710191+9999REMSYN070    AAXX  18154 08023 42660 80000 10092 20047 30224 40297 57019 885//;
0190080230999992000011818004+43470-003820FM-12+006599999V0200501N006210075019N0100001N1+00881+00541103011ADDAA199000091GF107991071051008001999999KA1999M+00951MA1999999102281MD1310041+9999REMSYN080    AAXX  18184 08023 32560 70512 10088 20054 30228 40301 53004 875// 333 10095;EQDQ01  00002PRCP99
0137080230999992000011821004+43470-003820FM-12+006599999V0200501N005710075019N0150001N1+00871+00331103091ADDGF107991071051008001001001MA1999999102361MD1210081+9999REMSYN070    AAXX  18214 08023 42565 70511 10087 20033 30236 40309 52008 87500;
0167080230999992000011900004+43470-003820FM-12+006599999V0200601N006210075019N0150001N1+00841+00321103051ADDAA199000091GF108991081051008001999999MA1999999102321MD1810041+9999REMSYN070    AAXX  19004 08023 32565 80612 10084 20032 30232 40305 58004 885//;EQDQ01  00002PRCP99
0137080230999992000011903004+43470-003820FM-12+006599999V0201401N003110075019N0150001N1+00761+00331103051ADDGF108991081061008001999999MA1999999102321MD1410001+9999REMSYN070    AAXX  19034 08023 42565 81406 10076 20033 30232 40305 54000 886//;
0165080230999992000011909004+43470-003820FM-12+006599999V0202001N000510042019N0050001N1+00791+00471103171ADDAY121031AY221031GF108991081061004501001001MA1999999102441MD1210101+9999MW1101REMSYN076    AAXX  19094 08023 41450 82001 10079 20047 30244 40317 52010 71022 88600;
0167080230999992000011912004+43470-003820FM-12+006599999V0200601N008210075019N0120001N1+00961+00191103161ADDAA199000091GF108991081051008001001001MA1999999102431MD1810011+9999REMSYN070    AAXX  19124 08023 32562 80616 10096 20019 30243 40316 58001 88500;EQDQ01  00002PRCP99
0137080230999992000011915004+43470-003820FM-12+006599999V0200701N005110120019N0200001N1+00941+00221103111ADDGF107991071081008001001001MA1999999102381MD1610051+9999REMSYN070    AAXX  19154 08023 42570 70710 10094 20022 30238 40311 56005 87800;
0186080230999992000011918004+43470-003820FM-12+006599999V0200401N008210075019N0120001N1+00931+00291103171ADDAA199000091GF108991081051008001001001KA1999M+01001MA1999999102441MD1210061+9999REMSYN076AAXX  19184 08023 32562 80416 10093 20029 30244 40317 52006 88500 333 10100;EQDQ01  00002PRCP99
0133080230999992000011921004+43470-003820FM-12+006599999V0200701N005110075019N0120001N1+00861+00171103211ADDGF108991081051008001001001MA1999999102481MD1210041+9999REMSYN066AAXX  19214 08023 42562 80710 10086 20017 30248 40321 52004 88500;
0163080230999992000012000004+43470-003820FM-12+006599999V0200501N005110075019N0100001N1+00831+00141103191ADDAA199000091GF108991081061008001001001MA1999999102461MD1610021+9999REMSYN066AAXX  20004 08023 32560 80510 10083 20014 30246 40319 56002 88600;EQDQ01  00002PRCP99
0198080230999992000012006004+43470-003820FM-12+006599999V0200501N005710075019N0170001N1+00781+00131103211ADDAA199000091GF108991081061008001001001KA1120N+00741MA1999999102481MD1410001+9999REMSYN088AAXX  20064 08023 32567 80511 10078 20013 30248 40321 54000 88600 333 20074 50223 55002;EQDQ01  00002PRCP99
0133080230999992000012009004+43470-003820FM-12+006599999V0200601N004610075019N0150001N1+00781+00041103321ADDGF108991081051008001001001MA1999999102591MD1310111+9999REMSYN066AAXX  20094 08023 42565 80609 10078 20004 30259 40332 53011 88500;
0163080230999992000012012004+43470-003820FM-12+006599999V0200801N003110075019N0150001N1+00751+00061103351ADDAA199000091GF108991081051008001001001MA1999999102621MD1210031+9999REMSYN066AAXX  20124 08023 32565 80806 10075 20006 30262 40335 52003 88500;EQDQ01  00002PRCP99
0133080230999992000012015004+43470-003820FM-12+006599999V0201101N002110075019N0200001N1+00831+00171103291ADDGF107991071051008001999999MA1999999102561MD1810061+9999REMSYN066AAXX  20154 08023 42570 71104 10083 20017 30256 40329 58006 875//;
0205080230999992000012018004+43470-003820FM-12+006599999V0201201N002110075019N0200001N1+00701+00091103341ADDAA199000091GF107991071051008001001001KA1120M+00851KA2999N+00701MA1999999102601MD1310041+9999REMSYN082AAXX  20184 08023 32570 71204 10070 20009 30260 40334 53004 87500 333 10085 20070;EQDQ01  00002PRCP99
0133080230999992000012021004+43470-003820FM-12+006599999V0201101N002110075019N0200001N1+00671+00111103411ADDGF107991071051008001001001MA1999999102671MD1210071+9999REMSYN066AAXX  20214 08023 42570 71104 10067 20011 30267 40341 52007 87500;
0163080230999992000012100004+43470-003820FM-12+006599999V0202001N002610075019N0150001N1+00621+00081103381ADDAA199000091GF108991081051008001999999MA1999999102641MD1810031+9999REMSYN066AAXX  21004 08023 32565 82005 10062 20008 30264 40338 58003 885//;EQDQ01  00002PRCP99
0133080230999992000012103004+43470-003820FM-12+006599999V0202001N002110075019N0150001N1+00621+00361103301ADDGF107991071051008001999999MA1999999102561MD1710081+9999REMSYN066AAXX  21034 08023 42565 72004 10062 20036 30256 40330 57008 875//;
0192080230999992000012106004+43470-003820FM-12+006599999V0201901N003110075019N0150001N1+00601+00021103321ADDAA199000091GF108991081051008001999999KA1120N+00591MA1999999102581MD1310021+9999REMSYN082AAXX  21064 08023 32565 81906 10060 20002 30258 40332 53002 885// 333 20059 55001;EQDQ01  00002PRCP99
0133080230999992000012109004+43470-003820FM-12+006599999V0201901N003110075019N0150001N1+00641+00071103381ADDGF108991081051008001999999MA1999999102641MD1210061+9999REMSYN066AAXX  21094 08023 42565 81906 10064 20007 30264 40338 52006 885//;
0163080230999992000012112004+43470-003820FM-12+006599999V0200301N002610075019N0120001N1+00701+00151103381ADDAA199000091GF108991081051008001999999MA1999999102641MD1010001+9999REMSYN066AAXX  21124 08023 32562 80305 10070 20015 30264 40338 50000 885//;EQDQ01  00002PRCP99
0133080230999992000012115004+43470-003820FM-12+006599999V0201201N005110075019N0120001N1+00711+00251103261ADDGF108991081051008001999999MA1999999102521MD1610121+9999REMSYN066AAXX  21154 08023 42562 81210 10071 20025 30252 40326 56012 885//;
0186080230999992000012118004+43470-003820FM-12+006599999V0201201N004610075019N0120001N1+00661+00161103241ADDAA199000091GF108991081051008001999999KA1999M+00761MA1999999102501MD1610021+9999REMSYN076AAXX  21184 08023 32562 81209 10066 20016 30250 40324 56002 885// 333 10076;EQDQ01  00002PRCP99
0133080230999992000012121004+43470-003820FM-12+006599999V0201401N003110075019N0120001N1+00621+00051103201ADDGF108991081051008001999999MA1999999102461MD1710041+9999REMSYN066AAXX  21214 08023 42562 81406 10062 20005 30246 40320 57004 885//;
0163080230999992000012200004+43470-003820FM-12+006599999V0201401N005110075019N0100001N1+00591+00101103101ADDAA199000091GF108991081051008001999999MA1999999102361MD1710101+9999REMSYN066AAXX  22004 08023 32560 81410 10059 20010 30236 40310 57010 885//;EQDQ01  00002PRCP99
0133080230999992000012203004+43470-003820FM-12+006599999V0201501N004110075019N0100001N1+00601+00091102921ADDGF108991081051008001999999MA1999999102181MD1610181+9999REMSYN066AAXX  22034 08023 42560 81508 10060 20009 30218 40292 56018 885//;
0198080230999992000012206004+43470-003820FM-12+006599999V0201801N002610075019N0100001N1+00601-00041102841ADDAA199000091GF108991081051008001999999KA1120N+00561MA1999999102101MD1610081+9999REMSYN088AAXX  22064 08023 32560 81805 10060 21004 30210 40284 56008 885// 333 20056 50043 55000;EQDQ01  00002PRCP99
0133080230999992000012209004+43470-003820FM-12+006599999V0201901N001010120019N0120001N1+00651+00061102931ADDGF108991081081008001999999MA1999999102201MD1310101+9999REMSYN066AAXX  22094 08023 42562 81902 10065 20006 30220 40293 53010 888//;
0163080230999992000012212004+43470-003820FM-12+006599999V0202401N003110120019N0120001N1+00671+00081102931ADDAA199000091GF108991081081008001999999MA1999999102201MD1410001+9999REMSYN066AAXX  22124 08023 32562 82406 10067 20008 30220 40293 54000 888//;EQDQ01  00002PRCP99
0161080230999992000012215004+43470-003820FM-12+006599999V0202201N003610120019N0080001N1+00711+00131102771ADDAY121031AY221031GF108991081081008001999999MA1999999102041MD1810161+9999MW1051REMSYN072AAXX  22154 08023 41558 82207 10071 20013 30204 40277 58016 70522 888//;
0186080230999992000012218004+43470-003820FM-12+006599999V0202801N005110120019N0100001N1+00821+00301102761ADDAA199000091GF108991081081008001999999KA1999M+00821MA1999999102031MD1610011+9999REMSYN076AAXX  22184 08023 32560 82810 10082 20030 30203 40276 56001 888// 333 10082;EQDQ01  00002PRCP99
0161080230999992000012221004+43470-003820FM-12+006599999V0203401N007210120019N0100001N1+01021+00531102711ADDAY151031AY221031GF108991081081008001999999MA1999999101991MD1810041+9999MW1021REMSYN072AAXX  22214 08023 41560 83414 10102 20053 30199 40271 58004 70252 888//;
0178080230999992000012300004+43470-003820FM-12+006599999V0203001N008210360019N0100001N1+00951+00371102621ADDAA106000791AY151061AY221061GF107991021081008001071999MA1999999101901MD1710091+9999MW1021REMSYN078AAXX  23004 08023 11560 73016 10095 20037 30190 40262 57009 69901 70252 8287/;
0161080230999992000012303004+43470-003820FM-12+006599999V0203501N007210075019N0100001N1+00881+00571102551ADDAY161031AY221031GF108991081051008001999999MA1999999101821MD1710081+9999MW1611REMSYN072AAXX  23034 08023 41560 83514 10088 20057 30182 40255 57008 76162 885//;
0213080230999992000012306004+43470-003820FM-12+006599999V0200301N007210120019N0100001N1+00921+00471102481ADDAA112000891AY161061AY221061GF108991051081008001071999KA1120N+00801MA1999999101761MD1710061+9999MW1601REMSYN100AAXX  23064 08023 11560 80314 10092 20047 30176 40248 57006 69982 76062 8587/ 333 20080 50023 55000;
0161080230999992000012309004+43470-003820FM-12+006599999V0200601N007210120019N0200001N1+00941+00191102561ADDAY161031AY221031GF108991071081008001071999MA1999999101841MD1210081+9999MW1021REMSYN072AAXX  23094 08023 41570 80614 10094 20019 30184 40256 52008 70262 8787/;
0178080230999992000012312004+43470-003820FM-12+006599999V0200701N004110120019N0200001N1+00901+00111102531ADDAA106000791AY161061AY221061GF108991071081008001071999MA1999999101801MD1810041+9999MW1021REMSYN078AAXX  23124 08023 11570 80708 10090 20011 30180 40253 58004 69901 70262 8787/;
0133080230999992000012315004+43470-003820FM-12+006599999V0200501N001010120019N0200001N1+00871+00131102511ADDGF107991071081008001999999MA1999999101781MD1610021+9999REMSYN066AAXX  23154 08023 42570 70502 10087 20013 30178 40251 56002 878//;
0201080230999992000012318004+43470-003820FM-12+006599999V0203301N003110120019N0100001N1+00761+00491102521ADDAA112002091AY161061AY221061GF107991071081008001999999KA1999M+01001MA1999999101791MD1110011+9999MW1601REMSYN088AAXX  23184 08023 11560 73306 10076 20049 30179 40252 51001 60022 76062 878// 333 10100;
0161080230999992000012321004+43470-003820FM-12+006599999V0200501N004610120019N0150001N1+00811+00341102521ADDAY161031AY221031GF107991071081008001999999MA1999999101791MD1010001+9999MW1021REMSYN072AAXX  23214 08023 41565 70509 10081 20034 30179 40252 50000 70262 878//;
0178080230999992000012400004+43470-003820FM-12+006599999V0201901N002110120019N0150001N1+00681+00351102531ADDAA106001091AY161061AY221061GF107991071081008001999999MA1999999101801MD1010011+9999MW1021REMSYN078AAXX  24004 08023 11565 71904 10068 20035 30180 40253 50001 69991 70262 878//;
0161080230999992000012403004+43470-003820FM-12+006599999V0201501N002610120019N0150001N1+00621+00221102471ADDAY161031AY221031GF107991071081008001999999MA1999999101741MD1710061+9999MW1021REMSYN072AAXX  24034 08023 41565 71505 10062 20022 30174 40247 57006 70262 878//;
0213080230999992000012406004+43470-003820FM-12+006599999V0202401N001510120019N0150001N1+00591+00321102431ADDAA112001091AY161061AY221061GF107991071081008001999999KA1120N+00501MA1999999101701MD1710041+9999MW1501REMSYN100AAXX  24064 08023 11565 72403 10059 20032 30170 40243 57004 60012 75062 878// 333 20050 50093 55000;
0133080230999992000012409004+43470-003820FM-12+006599999V0202001N003110360019N0100001N1+00561+00371102441ADDGF107991021021008001031001MA1999999101711MD1110011+9999REMSYN066AAXX  24094 08023 42560 72006 10056 20037 30171 40244 51001 82230;
0144080230999992000012412004+43470-003820FM-12+006599999V0209999C000010120019N0100001N1+00781+00131102381ADDAA199000021GF108991061081008001041999MA1999999101651MD1810061+9999REMSYN066AAXX  24124 08023 32560 80000 10078 20013 30165 40238 58006 8684/;
0133080230999992000012415004+43470-003820FM-12+006599999V0200601N006210120019N0150001N1+00731+00381102221ADDGF108991071081008001041001MA1999999101491MD1710161+9999REMSYN066AAXX  24154 08023 42565 80612 10073 20038 30149 40222 57016 87840;
0167080230999992000012418004+43470-003820FM-12+006599999V0201501N003110360019N0100001N1+00561+00261102241ADDAA199000021GF108991011051008001031999KA1999M+00841MA1999999101511MD1310021+9999REMSYN076AAXX  24184 08023 32560 81506 10056 20026 30151 40224 53002 8153/ 333 10084;
0161080230999992000012421004+43470-003820FM-12+006599999V0201501N002610360019N0100001N1+00521+00171102221ADDAY181031AY221031GF108991031051008001031999MA1999999101491MD1810021+9999MW1021REMSYN072AAXX  24214 08023 42560 81505 10052 20017 30149 40222 58002 70282 8353/;
0178080230999992000012500004+43470-003820FM-12+006599999V0201701N003112200019N0100001N1+00481+00001102221ADDAA106000791AY181061AY221061GF102991021001022501031001MA1999999101491MD1410001+9999MW1021REMSYN078AAXX  25004 08023 11860 21706 10048 20000 30149 40222 54000 69901 70282 82030;
0133080230999992000012503004+43470-003820FM-12+006599999V0201801N003610075019N0100001N1+00441+00241102181ADDGF108991051051008001041999MA1999999101451MD1710041+9999REMSYN066AAXX  25034 08023 42560 81807 10044 20024 30145 40218 57004 8554/;
0213080230999992000012506004+43470-003820FM-12+006599999V0201101N001510360019N0070001N1+00421+00221102181ADDAA112002091AY181061AY221061GF108991041071008001041999KA1120N+00381MA1999999101451MD1410001+9999MW1611REMSYN100AAXX  25064 08023 11557 81103 10042 20022 30145 40218 54000 60022 76182 8474/ 333 20038 50063 55008;
0161080230999992000012509004+43470-003820FM-12+006599999V0209999C000010042019N0100001N1+00421+00161102241ADDAY161031AY221031GF107991071071004501999999MA1999999101501MD1110051+9999MW1501REMSYN072AAXX  25094 08023 41460 70000 10042 20016 30150 40224 51005 75062 877//;
0178080230999992000012512004+43470-003820FM-12+006599999V0200801N006210090019N0120001N1+00551+00091102241ADDAA106001091AY161061AY251061GF106991061081004501001001MA1999999101511MD1010011+9999MW1021REMSYN078AAXX  25124 08023 11462 60812 10055 20009 30151 40224 50001 69991 70265 86800;
0133080230999992000012515004+43470-003820FM-12+006599999V0200801N005710120019N0180001N1+00561-00151102141ADDGF106991061041012501001001MA1999999101411MD1610101+9999REMSYN066AAXX  25154 08023 42668 60811 10056 21015 30141 40214 56010 86400;
0192080230999992000012518004+43470-003820FM-12+006599999V0200801N005110075019N0150001N1+00461-00221102271ADDAA112001091GF105991051041008001001001KA1120M+00651KA2999N+00341MA1999999101531MD1310121+9999REMSYN088AAXX  25184 08023 12565 50810 10046 21022 30153 40227 53012 69992 85400 333 10065 20034;
0133080230999992000012521004+43470-003820FM-12+006599999V0201401N004112200019N0150001N1+00381-00251102311ADDGF104991041081004501001001MA1999999101571MD1210041+9999REMSYN066AAXX  25214 08023 42465 41408 10038 21025 30157 40231 52004 84800;
0173080230999992000012600004+43470-003820FM-12+006599999V0201301N005112200019N0150001N1+00231-00311102271ADDAA199000091GA1001+999999999GF100991001001999999001001MA1999999101531MD1710041+9999REMSYN060AAXX  26004 08023 32965 01310 10023 21031 30153 40227 57004;EQDQ01  00002PRCP99
0143080230999992000012603004+43470-003820FM-12+006599999V0201601N002112200019N0150001N1+00051-00351102221ADDGA1001+999999999GF100991001001999999001001MA1999999101471MD1610061+9999REMSYN060AAXX  26034 08023 42965 01604 10005 21035 30147 40222 56006;
0192080230999992000012606004+43470-003820FM-12+006599999V0201501N004612200019N0150001N1+00061-00341102201ADDAA199000091GF103991001001999999001051KA1120N+00011MA1999999101451MD1610021+9999REMSYN082AAXX  26064 08023 32965 31509 10006 21034 30145 40220 56002 80005 333 20001 55015;EQDQ01  00002PRCP99
0133080230999992000012609004+43470-003820FM-12+006599999V0201401N003112200019N0150001N1+00241-00401102271ADDGF104991031001999999041011MA1999999101531MD1210081+9999REMSYN066AAXX  26094 08023 42965 41406 10024 21040 30153 40227 52008 83041;
0163080230999992000012612004+43470-003820FM-12+006599999V0201401N003619999999N0150001N1+00791-00071102281ADDAA199000091GF105991021001999999041011MA1999999101551MD1010021+9999REMSYN066AAXX  26124 08023 32965 51407 10079 21007 30155 40228 50002 82041;EQDQ01  00002PRCP99
0133080230999992000012615004+43470-003820FM-12+006599999V0201101N004112200019N0150001N1+01091+00161102261ADDGF103991011001999999041011MA1999999101541MD1810011+9999REMSYN066AAXX  26154 08023 42965 31108 10109 20016 30154 40226 58001 81041;
0186080230999992000012618004+43470-003820FM-12+006599999V0201201N003612200019N0100001N1+00821-00031102361ADDAA199000091GF101991011011008001041001KA1999M+01181MA1999999101631MD1210091+9999REMSYN076AAXX  26184 08023 32560 11207 10082 21003 30163 40236 52009 81140 333 10118;EQDQ01  00002PRCP99
0133080230999992000012621004+43470-003820FM-12+006599999V0201501N005112200019N0150001N1+00791-00041102481ADDGF101991011001022501041001MA1999999101751MD1210121+9999REMSYN066AAXX  26214 08023 42865 11510 10079 21004 30175 40248 52012 81040;
0163080230999992000012700004+43470-003820FM-12+006599999V0201301N004112200019N0150001N1+00731+00071102571ADDAA199000091GF105991021001022501041011MA1999999101841MD1110091+9999REMSYN066AAXX  27004 08023 32865 51308 10073 20007 30184 40257 51009 82041;EQDQ01  00002PRCP99
0133080230999992000012703004+43470-003820FM-12+006599999V0201601N004112200019N0150001N1+00871+00101102561ADDGF104991041001022501041001MA1999999101831MD1710011+9999REMSYN066AAXX  27034 08023 42865 41608 10087 20010 30183 40256 57001 84040;
0198080230999992000012706004+43470-003820FM-12+006599999V0202001N005112200019N0150001N1+00941+00161102541ADDAA199000091GF102991021001022501041001KA1120N+00691MA1999999101821MD1510011+9999REMSYN088AAXX  27064 08023 32865 22010 10094 20016 30182 40254 55001 82040 333 20069 50133 55048;EQDQ01  00002PRCP99
0133080230999992000012709004+43470-003820FM-12+006599999V0201901N005119999999N0250001N1+00971+00111102631ADDGF105991011001999999071091MA1999999101911MD1210091+9999REMSYN066AAXX  27094 08023 42975 51910 10097 20011 30191 40263 52009 81079;
0133080230999992000012715004+43470-003820FM-12+006599999V0203201N002619999999N0200001N1+01181+00631102601ADDGF107991001001999999001021MA1999999101881MD1810031+9999REMSYN066AAXX  27154 08023 42970 73205 10118 20063 30188 40260 58003 80002;
0186080230999992000012718004+43470-003820FM-12+006599999V0200701N001512200019N0200001N1+01001+00721102681ADDAA199000091GF104991001001999999001021KA1999M+01441MA1999999101961MD1310081+9999REMSYN076AAXX  27184 08023 32970 40703 10100 20072 30196 40268 53008 80002 333 10144;EQDQ01  00002PRCP99
0133080230999992000012721004+43470-003820FM-12+006599999V0201901N003112200019N0200001N1+00921+00571102721ADDGF103991001001999999001021MA1999999101991MD1110031+9999REMSYN066AAXX  27214 08023 42970 31906 10092 20057 30199 40272 51003 80002;
0173080230999992000012800004+43470-003820FM-12+006599999V0202401N002112200019N0200001N1+00901+00341102731ADDAA199000091GA1001+999999999GF100991001001999999001001MA1999999102001MD1310011+9999REMSYN060AAXX  28004 08023 32970 02404 10090 20034 30200 40273 53001;EQDQ01  00002PRCP99
0133080230999992000012803004+43470-003820FM-12+006599999V0202401N002112200019N0200001N1+00861+00231102731ADDGF104991001001999999001011MA1999999102001MD1410001+9999REMSYN066AAXX  28034 08023 42970 42404 10086 20023 30200 40273 54000 80001;
0208080230999992000012806004+43470-003820FM-12+006599999V0202201N004112200019N0180001N1+00801+00101102731ADDAA199000091GA1001+999999999GF100991001001999999001001KA1120N+00761MA1999999102001MD1410001+9999REMSYN082AAXX  28064 08023 32968 02208 10080 20010 30200 40273 54000 333 20076 50173 55065;EQDQ01  00002PRCP99
0143080230999992000012809004+43470-003820FM-12+006599999V0202201N002612200019N0400001N1+00881+00141102771ADDGA1001+999999999GF100991001001999999001001MA1999999102041MD1310041+9999REMSYN060AAXX  28094 08023 42982 02205 10088 20014 30204 40277 53004;
0173080230999992000012812004+43470-003820FM-12+006599999V0200301N001012200019N0200001N1+01111+00441102721ADDAA199000091GA1001+999999999GF100991001001999999001001MA1999999102001MD1810041+9999REMSYN060AAXX  28124 08023 32970 00302 10111 20044 30200 40272 58004;EQDQ01  00002PRCP99
0186080230999992000012818004+43470-003820FM-12+006599999V0202501N004112200019N0180001N1+01001+00411102701ADDAA199000091GF101991001001999999001021KA1999M+01361MA1999999101981MD1310041+9999REMSYN076AAXX  28184 08023 32968 12508 10100 20041 30198 40270 53004 80002 333 10136;EQDQ01  00002PRCP99
0133080230999992000012821004+43470-003820FM-12+006599999V0202401N005112200019N0150001N1+01001+00411102781ADDGF102991021051012501001001MA1999999102061MD1310081+9999REMSYN066AAXX  28214 08023 42665 22410 10100 20041 30206 40278 53008 82500;
0163080230999992000012900004+43470-003820FM-12+006599999V0202201N004612200019N0150001N1+00891+00271102801ADDAA199000091GF103991031051017501001001MA1999999102071MD1110011+9999REMSYN066AAXX  29004 08023 32765 32209 10089 20027 30207 40280 51001 83500;EQDQ01  00002PRCP99
0133080230999992000012903004+43470-003820FM-12+006599999V0202401N006712200019N0150001N1+00901+00591102801ADDGF103991031051017501001001MA1999999102071MD1410001+9999REMSYN066AAXX  29034 08023 42765 32413 10090 20059 30207 40280 54000 83500;
0208080230999992000012906004+43470-003820FM-12+006599999V0202301N006712200019N0150001N1+00891+00461102791ADDAA199000091GA1001+999999999GF100991001001999999001001KA1120N+00851MA1999999102061MD1410001+9999REMSYN082AAXX  29064 08023 32965 02313 10089 20046 30206 40279 54001 333 20085 50053 55085;EQDQ01  00002PRCP99
0133080230999992000012909004+43470-003820FM-12+006599999V0202301N007210150019N0120001N1+01011+00641102911ADDGF106991061001017501051001MA1999999102191MD1310131+9999REMSYN066AAXX  29094 08023 42762 62314 10101 20064 30219 40291 53013 86050;
0163080230999992000012912004+43470-003820FM-12+006599999V0202401N006710150019N0120001N1+01231+00351102991ADDAA199000091GF108991081001017501071999MA1999999102271MD1110081+9999REMSYN066AAXX  29124 08023 32762 82413 10123 20035 30227 40299 51008 8807/;EQDQ01  00002PRCP99
0133080230999992000012915004+43470-003820FM-12+006599999V0202601N007210150019N0250001N1+01251+00731102901ADDGF108991081001017501071999MA1999999102181MD1710091+9999REMSYN066AAXX  29154 08023 42775 82614 10125 20073 30218 40290 57009 8807/;
0186080230999992000012918004+43470-003820FM-12+006599999V0202501N006210150019N0200001N1+01181+00811103001ADDAA199000091GF107991051001017501071021KA1999M+01351MA1999999102281MD1310101+9999REMSYN076AAXX  29184 08023 32770 72512 10118 20081 30228 40300 53010 85072 333 10135;EQDQ01  00002PRCP99
0133080230999992000012921004+43470-003820FM-12+006599999V0202401N007210150019N0100001N1+01151+00841103201ADDGF105991051001017501071001MA1999999102481MD1210201+9999REMSYN066AAXX  29214 08023 42760 52414 10115 20084 30248 40320 52020 85070;
0163080230999992000013000004+43470-003820FM-12+006599999V0202401N007212200019N0100001N1+01161+00651103301ADDAA199000091GF102991001001999999001021MA1999999102581MD1210101+9999REMSYN066AAXX  30004 08023 32960 22414 10116 20065 30258 40330 52010 80002;EQDQ01  00002PRCP99
0133080230999992000013003004+43470-003820FM-12+006599999V0202401N006210900019N0100001N1+01181+00851103381ADDGF106991031001017501071021MA1999999102661MD1310081+9999REMSYN066AAXX  30034 08023 42760 62412 10118 20085 30266 40338 53008 83072;
0198080230999992000013006004+43470-003820FM-12+006599999V0202401N006210075019N0100001N1+01141+00621103401ADDAA199000091GF108991051051008001071999KA1120N+01141MA1999999102681MD1310021+9999REMSYN088AAXX  30064 08023 32560 82412 10114 20062 30268 40340 53002 8557/ 333 20114 50173 55007;EQDQ01  00002PRCP99
0133080230999992000013009004+43470-003820FM-12+006599999V0202401N005710075019N0150001N1+01171+00681103481ADDGF107991071051008001999999MA1999999102761MD1210081+9999REMSYN066AAXX  30094 08023 42565 72411 10117 20068 30276 40348 52008 875//;
0163080230999992000013012004+43470-003820FM-12+006599999V0202501N003610075019N0100001N1+01321+00771103511ADDAA199000091GF107991071061008001999999MA1999999102791MD1010031+9999REMSYN066AAXX  30124 08023 32560 72507 10132 20077 30279 40351 50003 876//;EQDQ01  00002PRCP99
0133080230999992000013015004+43470-003820FM-12+006599999V0200601N003112200019N0200001N1+01301+00771103261ADDGF101991001001999999001011MA1999999102541MD1810251+9999REMSYN066AAXX  30154 08023 42970 10606 10130 20077 30254 40326 58025 80001;
0214080230999992000013018004+43470-003820FM-12+006599999V0200701N006712200019N0090001N1+01131+00991103201ADDAA199000091AY101061AY201061GF103991021061008001001011KA1999M+01441MA1999999102481MD1610061+9999MW1101REMSYN082AAXX  30184 08023 31559 30713 10113 20099 30248 40320 56006 71000 82601 333 10144;EQDQ01  00002PRCP99
0161080230999992000013021004+43470-003820FM-12+006599999V0200701N003110075019N0070001N1+01131+00951103311ADDAY111031AY211031GF106991061061008001001001MA1999999102591MD1210111+9999MW1101REMSYN072AAXX  30214 08023 41557 60706 10113 20095 30259 40331 52011 71011 86600;
0191080230999992000013100004+43470-003820FM-12+006599999V0201801N001010042019N0050001N1+01081+00921103321ADDAA199000091AY121061AY221061GF108991081061004501999999MA1999999102601MD1110011+9999MW1101REMSYN072AAXX  31004 08023 31450 81802 10108 20092 30260 40332 51001 71022 886//;EQDQ01  00002PRCP99
0161080230999992000013103004+43470-003820FM-12+006599999V0202001N003110042019N0070001N1+01021+00901103211ADDAY121031AY221031GF108991081061004501999999MA1999999102481MD1710111+9999MW1101REMSYN072AAXX  31034 08023 41457 82006 10102 20090 30248 40321 57011 71022 886//;
0236080230999992000013106004+43470-003820FM-12+006599999V0201301N003112200019N0050001N1+00951+00871103011ADDAA199000091AY111061AY211061GA1001+999999999GF100991001001999999001001KA1120N+00951MA1999999102281MD1710201+9999MW1101REMSYN088AAXX  31064 08023 31950 01306 10095 20087 30228 40301 57020 71011 333 20095 50093 55043;EQDQ01  00002PRCP99
0161080230999992000013109004+43470-003820FM-12+006599999V0201201N005112200019N0070001N1+00961+00811102961ADDAY111031AY211031GF104991021061004501001011MA1999999102231MD1710051+9999MW1101REMSYN072AAXX  31094 08023 41457 41210 10096 20081 30223 40296 57005 71011 82601;
0191080230999992000013112004+43470-003820FM-12+006599999V0200701N005112200019N0050001N1+01201+00961102881ADDAA199000091AY111061AY211061GF104991021061004501001081MA1999999102161MD1710071+9999MW1101REMSYN072AAXX  31124 08023 31450 40710 10120 20096 30216 40288 57007 71011 82608;EQDQ01  00002PRCP99
0161080230999992000013115004+43470-003820FM-12+006599999V0200301N002110042019N0040001N1+01061+00921102761ADDAY111031AY211031GF107991061061004501001081MA1999999102041MD1610121+9999MW1101REMSYN072AAXX  31154 08023 41440 70304 10106 20092 30204 40276 56012 71011 86608;
0233080230999992000013118004+43470-003820FM-12+006599999V0209999C000010042019N0040001N1+01041+00881102701ADDAA199000091AY121061AY211061GF107991061061004501001081KA1120M+01231KA2999N+00931MA1999999101981MD1710061+9999MW1101REMSYN088AAXX  31184 08023 31440 70000 10104 20088 30198 40270 57006 71021 86608 333 10123 20093;EQDQ01  00002PRCP99
0161080230999992000013121004+43470-003820FM-12+006599999V0202801N001012200019N0040001N1+00951+00851102681ADDAY121031AY221031GF106991041061004501001011MA1999999101961MD1710021+9999MW1101REMSYN072AAXX  31214 08023 41440 62802 10095 20085 30196 40268 57002 71022 84601;
0191080230999992000020100004+43470-003820FM-12+006599999V0201701N002610021019N0008001N1+00821+00781102641ADDAA199000091AY121061AY221061GF108991081061002501999999MA1999999101911MD1710051+9999MW1441REMSYN072AAXX  01004 08023 31308 81705 10082 20078 30191 40264 57005 74422 886//;EQDQ01  00002PRCP99
0161080230999992000020103004+43470-003820FM-12+006599999V0201101N002110021019N0004001N1+00811+00791102421ADDAY121031AY221031GF108991081061002501999999MA1999999101691MD1710221+9999MW1441REMSYN072AAXX  01034 08023 41304 81104 10081 20079 30169 40242 57022 74422 886//;
0226080230999992000020106004+43470-003820FM-12+006599999V0203001N001512200019N0040001N1+00831+00791102301ADDAA199000091AY121061AY221061GF103991031061004501001001KA1120N+00721MA1999999101581MD1710111+9999MW1101REMSYN094AAXX  01064 08023 31440 33003 10083 20079 30158 40230 57011 71022 83600 333 20072 50173 55045;EQDQ01  00002PRCP99
0133080230999992000020109004+43470-003820FM-12+006599999V0202001N007210900019N0100001N1+01441+00731102251ADDGF105991011051012501031011MA1999999101541MD1710041+9999REMSYN066AAXX  01094 08023 42660 52014 10144 20073 30154 40225 57004 81531;
0163080230999992000020112004+43470-003820FM-12+006599999V0202101N014910360019N0250001N1+01671+00751102071ADDAA199000091GF107991021051012501041001MA1999999101371MD1710171+9999REMSYN066AAXX  01124 08023 32675 72129 10167 20075 30137 40207 57017 82540;EQDQ01  00002PRCP99
0161080230999992000020115004+43470-003820FM-12+006599999V0202101N009310360019N0250001N1+01741+00801101991ADDAY161031AY221031GF107991011051017501071081MA1999999101291MD1610081+9999MW1021REMSYN072AAXX  01154 08023 41775 72118 10174 20080 30129 40199 56008 70262 81578;
0201080230999992000020118004+43470-003820FM-12+006599999V0202501N003110360019N0100001N1+01461+00931102241ADDAA112000791AY161061AY221061GF107991011051017501071001KA1999M+01821MA1999999101531MD1210241+9999MW1021REMSYN088AAXX  01184 08023 11760 72506 10146 20093 30153 40224 52024 69902 70262 81570 333 10182;
0161080230999992000020121004+43470-003820FM-12+006599999V0200201N002110360019N0100001N1+01451+00851102291ADDAY161031AY221031GF108991021051012501071001MA1999999101581MD1210051+9999MW1601REMSYN072AAXX  01214 08023 41660 80204 10145 20085 30158 40229 52005 76062 82570;
0178080230999992000020200004+43470-003820FM-12+006599999V0200601N000510120019N0100001N1+01321+01051102361ADDAA106000791AY161061AY221061GF108991051051012501071001MA1999999101651MD1210071+9999MW1021REMSYN078AAXX  02004 08023 11660 80601 10132 20105 30165 40236 52007 69901 70262 85570;
0133080230999992000020203004+43470-003820FM-12+006599999V0202101N002110120019N0100001N1+01331+01121102401ADDGF108991051051012501071001MA1999999101691MD1110041+9999REMSYN066AAXX  02034 08023 42660 82104 10133 20112 30169 40240 51004 85570;
0179080230999992000020206004+43470-003820FM-12+006599999V0202701N003610075019N0100001N1+01311+01021102511ADDAA199000021GF108991061051008001071001KA1120N+01231MA1999999101801MD1210111+9999REMSYN088AAXX  02064 08023 32560 82707 10131 20102 30180 40251 52011 86570 333 20123 50133 55015;
0161080230999992000020209004+43470-003820FM-12+006599999V0202401N005110075019N0120001N1+01301+01151102741ADDAY181031AY261031GF108991061051008001071999MA1999999102031MD1210231+9999MW1601REMSYN072AAXX  02094 08023 41562 82410 10130 20115 30203 40274 52023 76086 8657/;
0178080230999992000020212004+43470-003820FM-12+006599999V0202701N010310075019N0200001N1+01301+01111102921ADDAA106001091AY181061AY261061GF108991071071008001999999MA1999999102201MD1110171+9999MW1021REMSYN078AAXX  02124 08023 11570 82720 10130 20111 30220 40292 51017 60011 70286 877//;
0161080230999992000020215004+43470-003820FM-12+006599999V0202901N009810150019N0250001N1+01261+01171103021ADDAY151031AY221031GF108991081071017501999999MA1999999102301MD1310101+9999MW1501REMSYN072AAXX  02154 08023 41775 82919 10126 20117 30230 40302 53010 75052 887//;
0201080230999992000020218004+43470-003820FM-12+006599999V0203301N009810090019N0100001N1+01181+01001103311ADDAA112000191AY161061AY221061GF107991071081004501999999KA1999M+01381MA1999999102591MD1210291+9999MW1021REMSYN088AAXX  02184 08023 11460 73319 10118 20100 30259 40331 52029 69912 70262 878// 333 10138;
0133080230999992000020221004+43470-003820FM-12+006599999V0203501N006710090019N0100001N1+01171+00871103581ADDGF108991081081004501999999MA1999999102861MD1210271+9999REMSYN066AAXX  02214 08023 42460 83513 10117 20087 30286 40358 52027 888//;
0144080230999992000020300004+43470-003820FM-12+006599999V0203601N002610120019N0120001N1+01151+00801103691ADDAA199000021GF108991081081008001999999MA1999999102961MD1210101+9999REMSYN066AAXX  03004 08023 32562 83605 10115 20080 30296 40369 52010 888//;
0133080230999992000020303004+43470-003820FM-12+006599999V0201401N001510120019N0120001N1+01091+00751103691ADDGF108991081081008001999999MA1999999102961MD1510001+9999REMSYN066AAXX  03034 08023 42562 81403 10109 20075 30296 40369 55000 888//;
0198080230999992000020306004+43470-003820FM-12+006599999V0201301N003610075019N0150001N1+00981+00751103711ADDAA199000091GF105991051051008001001001KA1120N+00961MA1999999102981MD1310021+9999REMSYN088AAXX  03064 08023 32565 51307 10098 20075 30298 40371 53002 85500 333 20096 50153 55000;EQDQ01  00002PRCP99
0133080230999992000020309004+43470-003820FM-12+006599999V0201101N002612200019N0100001N1+01061+00811103771ADDGF101991011021008001001001MA1999999103041MD1210061+9999REMSYN066AAXX  03094 08023 42560 11105 10106 20081 30304 40377 52006 81200;
0163080230999992000020312004+43470-003820FM-12+006599999V0200801N007212200019N0150001N1+01201+00791103771ADDAA199000091GF101991011011008001001001MA1999999103041MD1010001+9999REMSYN066AAXX  03124 08023 32565 10814 10120 20079 30304 40377 50000 81100;EQDQ01  00002PRCP99
0133080230999992000020315004+43470-003820FM-12+006599999V0200801N007712200019N0120001N1+01191+00681103631ADDGF101991001001999999001011MA1999999102911MD1710131+9999REMSYN066AAXX  03154 08023 42962 10815 10119 20068 30291 40363 57013 80001;
0196080230999992000020318004+43470-003820FM-12+006599999V0201001N005712200019N0100001N1+01041+00701103611ADDAA199000091GA1001+999999999GF100991001001999999001001KA1999M+01261MA1999999102881MD1610031+9999REMSYN070AAXX  03184 08023 32960 01011 10104 20070 30288 40361 56003 333 10126;EQDQ01  00002PRCP99
0143080230999992000020321004+43470-003820FM-12+006599999V0201101N004112200019N0100001N1+00951+00741103631ADDGA1001+999999999GF100991001001999999001001MA1999999102901MD1310021+9999REMSYN060AAXX  03214 08023 42960 01108 10095 20074 30290 40363 53002;
0201080230999992000020400004+43470-003820FM-12+006599999V0201101N004112200019N0080001N1+00861+00691103631ADDAA199000091AY101061AY201061GA1001+999999999GF100991001001999999001001MA1999999102871MD1810031+9999MW1101REMSYN066AAXX  04004 08023 31958 01108 10086 20069 30287 40363 58003 71000;EQDQ01  00002PRCP99
0171080230999992000020403004+43470-003820FM-12+006599999V0201101N003112200019N0080001N1+00701+00521103481ADDAY101031AY201031GA1001+999999999GF100991001001999999001001MA1999999102741MD1710131+9999MW1101REMSYN066AAXX  04034 08023 41958 01106 10070 20052 30274 40348 57013 71000;
0208080230999992000020406004+43470-003820FM-12+006599999V0201301N005712200019N0100001N1+00661+00371103421ADDAA199000091GA1001+999999999GF100991001001999999001001KA1120N+00601MA1999999102681MD1710061+9999REMSYN082AAXX  04064 08023 32960 01311 10066 20037 30268 40342 57006 333 20060 50033 55090;EQDQ01  00002PRCP99
0133080230999992000020409004+43470-003820FM-12+006599999V0201201N004612200019N0200001N1+00861+00231103401ADDGF102991001001999999001041MA1999999102671MD1510011+9999REMSYN066AAXX  04094 08023 42970 21209 10086 20023 30267 40340 55001 80004;
0163080230999992000020412004+43470-003820FM-12+006599999V0200801N007219999999N0150001N1+01241+00771103361ADDAA199000091GF106991001001999999001081MA1999999102641MD1810031+9999REMSYN066AAXX  04124 08023 32965 60814 10124 20077 30264 40336 58003 80008;EQDQ01  00002PRCP99
0161080230999992000020415004+43470-003820FM-12+006599999V0200901N004119999999N0090001N1+01301+00861103071ADDAY121031AY201031GF106991001001999999001081MA1999999102351MD1710291+9999MW1051REMSYN072AAXX  04154 08023 41959 60908 10130 20086 30235 40307 57029 70520 80008;
0186080230999992000020418004+43470-003820FM-12+006599999V0201201N002119999999N0090001N1+01061+00851103121ADDAA199000091GF107991001001999999001081KA1999M+01301MA1999999102401MD1310051+9999REMSYN076AAXX  04184 08023 31959 71204 10106 20085 30240 40312 53005 80008 333 10130;EQDQ01  00002PRCP99
0133080230999992000020421004+43470-003820FM-12+006599999V0209999C000019999999N0120001N1+01061+00531103161ADDGF106991001001999999001081MA1999999102441MD1110041+9999REMSYN066AAXX  04214 08023 42962 60000 10106 20053 30244 40316 51004 80008;
0163080230999992000020500004+43470-003820FM-12+006599999V0209999C000019999999N0120001N1+01041+00611103131ADDAA199000091GF106991001001999999001081MA1999999102401MD1810041+9999REMSYN066AAXX  05004 08023 32962 60000 10104 20061 30240 40313 58004 80008;EQDQ01  00002PRCP99
0133080230999992000020503004+43470-003820FM-12+006599999V0202801N001519999999N0120001N1+01041+00561102981ADDGF108991001001999999001071MA1999999102261MD1710141+9999REMSYN066AAXX  05034 08023 42962 82803 10104 20056 30226 40298 57014 80007;
0198080230999992000020506004+43470-003820FM-12+006599999V0202601N003119999999N0150001N1+01041+00561102881ADDAA199000091GF108991001001999999001071KA1120N+00941MA1999999102161MD1610101+9999REMSYN088AAXX  05064 08023 32965 82606 10104 20056 30216 40288 56010 80007 333 20094 50073 55078;EQDQ01  00002PRCP99
0133080230999992000020509004+43470-003820FM-12+006599999V0202501N004619999999N0120001N1+01171+00321103001ADDGF105991001001999999001081MA1999999102281MD1310121+9999REMSYN066AAXX  05094 08023 42962 52509 10117 20032 30228 40300 53012 80008;
0163080230999992000020512004+43470-003820FM-12+006599999V0202801N006219999999N0120001N1+01361+00491103061ADDAA199000091GF106991001001999999001081MA1999999102341MD1010061+9999REMSYN066AAXX  05124 08023 32962 62812 10136 20049 30234 40306 50006 80008;EQDQ01  00002PRCP99
0133080230999992000020515004+43470-003820FM-12+006599999V0202701N003619999999N0100001N1+01451+00451102951ADDGF107991001001999999001081MA1999999102241MD1710101+9999REMSYN066AAXX  05154 08023 42960 72707 10145 20045 30224 40295 57010 80008;
0186080230999992000020518004+43470-003820FM-12+006599999V0201201N002119999999N0120001N1+01241+00501102991ADDAA199000091GF106991001001999999001081KA1999M+01501MA1999999102271MD1310031+9999REMSYN076AAXX  05184 08023 32962 61204 10124 20050 30227 40299 53003 80008 333 10150;EQDQ01  00002PRCP99
0133080230999992000020521004+43470-003820FM-12+006599999V0200401N001012200019N0120001N1+01261+00121103041ADDGF104991001001999999001081MA1999999102321MD1110051+9999REMSYN066AAXX  05214 08023 42962 40402 10126 20012 30232 40304 51005 80008;
0163080230999992000020600004+43470-003820FM-12+006599999V0202001N001012200019N0120001N1+01241+00391103021ADDAA199000091GF104991001001999999001081MA1999999102301MD1810021+9999REMSYN066AAXX  06004 08023 32962 42002 10124 20039 30230 40302 58002 80008;EQDQ01  00002PRCP99
0133080230999992000020603004+43470-003820FM-12+006599999V0202501N004612200019N0120001N1+01011+00071102971ADDGF103991001001999999001011MA1999999102241MD1610061+9999REMSYN066AAXX  06034 08023 42962 32509 10101 20007 30224 40297 56006 80001;
0198080230999992000020606004+43470-003820FM-12+006599999V0202301N004619999999N0120001N1+01061+00201102901ADDAA199000091GF106991001001999999001081KA1120N+00951MA1999999102181MD1710061+9999REMSYN088AAXX  06064 08023 32962 62309 10106 20020 30218 40290 57006 80008 333 20095 50233 55061;EQDQ01  00002PRCP99
0133080230999992000020609004+43470-003820FM-12+006599999V0202401N003119999999N0100001N1+01121+00041102881ADDGF108991051001999999071071MA1999999102161MD1610021+9999REMSYN066AAXX  06094 08023 42960 82406 10112 20004 30216 40288 56002 85077;
0191080230999992000020612004+43470-003820FM-12+006599999V0202501N002619999999N0060001N1+01261+00521102831ADDAA199000091AY121061AY221061GF108991031001999999071071MA1999999102111MD1810051+9999MW1051REMSYN072AAXX  06124 08023 31956 82505 10126 20052 30211 40283 58005 70522 83077;EQDQ01  00002PRCP99
0161080230999992000020615004+43470-003820FM-12+006599999V0202501N004619999999N0080001N1+01261+00991102781ADDAY121031AY221031GF105991021001999999071021MA1999999102061MD1710051+9999MW1101REMSYN072AAXX  06154 08023 41958 52509 10126 20099 30206 40278 57005 71022 82072;
0186080230999992000020618004+43470-003820FM-12+006599999V0209999V001010150019N0100001N1+01221+00621102801ADDAA199000091GF107991061051017501071001KA1999M+01381MA1999999102081MD1310021+9999REMSYN076AAXX  06184 08023 32760 79902 10122 20062 30208 40280 53002 86570 333 10138;EQDQ01  00002PRCP99
0161080230999992000020621004+43470-003820FM-12+006599999V0202101N005710120019N0100001N1+01241+00501102861ADDAY151031AY221031GF106991061051012501001001MA1999999102141MD1210061+9999MW1021REMSYN072AAXX  06214 08023 41660 62111 10124 20050 30214 40286 52006 70252 86500;
0178080230999992000020700004+43470-003820FM-12+006599999V0202801N007210075019N0080001N1+01221+00981103001ADDAA106000791AY161061AY251061GF108991081071008001999999MA1999999102281MD1210141+9999MW1501REMSYN078AAXX  07004 08023 11558 82814 10122 20098 30228 40300 52014 69901 75065 887//;
0161080230999992000020703004+43470-003820FM-12+006599999V0202601N003610120019N0100001N1+01241+01051103081ADDAY151031AY221031GF106991061081008001001001MA1999999102361MD1210081+9999MW1021REMSYN072AAXX  07034 08023 41560 62607 10124 20105 30236 40308 52008 70252 86800;
0213080230999992000020706004+43470-003820FM-12+006599999V0202101N004112200019N0100001N1+01181+00901103001ADDAA112000791AY151061AY221061GF103991031011008001001001KA1120N+01161MA1999999102281MD1710081+9999MW1021REMSYN100AAXX  07064 08023 11560 32108 10118 20090 30228 40300 57008 69902 70252 83100 333 20116 50113 55020;
0133080230999992000020709004+43470-003820FM-12+006599999V0202001N005719999999N0150001N1+01261+00621103101ADDGF107991041001999999051081MA1999999102381MD1310101+9999REMSYN066AAXX  07094 08023 42965 72011 10126 20062 30238 40310 53010 84058;
0144080230999992000020712004+43470-003820FM-12+006599999V0202101N003619999999N0180001N1+01541+00751102991ADDAA199000021GF107991061001999999021071MA1999999102281MD1810111+9999REMSYN066AAXX  07124 08023 32968 72107 10154 20075 30228 40299 58011 86027;
0161080230999992000020715004+43470-003820FM-12+006599999V0202301N005110210019N0100001N1+01541+00681102971ADDAY121031AY221031GF108991081001022501071999MA1999999102261MD1510021+9999MW1601REMSYN072AAXX  07154 08023 41860 82310 10154 20068 30226 40297 55002 76022 8807/;
0201080230999992000020718004+43470-003820FM-12+006599999V0202101N002110120019N0080001N1+01281+00921103101ADDAA112001091AY161061AY221061GF108991061051012501071001KA1999M+01621MA1999999102381MD1210131+9999MW1611REMSYN088AAXX  07184 08023 11658 82104 10128 20092 30238 40310 52013 60012 76162 86570 333 10162;
0161080230999992000020721004+43470-003820FM-12+006599999V0202101N006710360019N0100001N1+01361+00841103001ADDAY161031AY221031GF106991041051017501071001MA1999999102281MD1810101+9999MW1021REMSYN072AAXX  07214 08023 41760 62113 10136 20084 30228 40300 58010 70262 84570;
0150080230999992000020800004+43470-003820FM-12+006599999V0202201N004610360019N0150001N1+01481+00951102911ADDAA106000791GF105991041051017501071001MA1999999102201MD1710081+9999REMSYN072AAXX  08004 08023 12765 52209 10148 20095 30220 40291 57008 69901 84570;
0133080230999992000020803004+43470-003820FM-12+006599999V0202501N003112200019N0150001N1+01381+01071102791ADDGF104991011051017501071001MA1999999102081MD1710121+9999REMSYN066AAXX  08034 08023 42765 42506 10138 20107 30208 40279 57012 81570;
0195080230999992000020806004+43470-003820FM-12+006599999V0202501N002612200019N0150001N1+01221+00981102831ADDAA112000791GA1001+999999999GF100991001001999999001001KA1120N+01181MA1999999102121MD1310041+9999REMSYN088AAXX  08064 08023 12965 02505 10122 20098 30212 40283 53004 69902 333 20118 50043 55000;
0133080230999992000020809004+43470-003820FM-12+006599999V0201701N003110900019N0120001N1+01281+00971102881ADDGF105991031001017501041021MA1999999102161MD1110051+9999REMSYN066AAXX  08094 08023 42762 51706 10128 20097 30216 40288 51005 83042;
0163080230999992000020812004+43470-003820FM-12+006599999V0202301N002110900019N0100001N1+01521+01151102971ADDAA199000091GF107991041001017501071021MA1999999102261MD1110101+9999REMSYN066AAXX  08124 08023 32760 72304 10152 20115 30226 40297 51010 84072;EQDQ01  00002PRCP99
0133080230999992000020815004+43470-003820FM-12+006599999V0202301N006210150019N0250001N1+01701+00741102751ADDGF108991071001017501071999MA1999999102041MD1610221+9999REMSYN066AAXX  08154 08023 42775 82312 10170 20074 30204 40275 56022 8707/;
0201080230999992000020818004+43470-003820FM-12+006599999V0202801N008210120019N0100001N1+01321+01211102981ADDAA112000891AY161061AY221061GF108991051081008001071999KA1999M+01701MA1999999102261MD1210221+9999MW1211REMSYN088AAXX  08184 08023 11560 82816 10132 20121 30226 40298 52022 69972 72162 8587/ 333 10170;
0133080230999992000020820004+43470-003820FM-12+006599999V0202901N007710120019N0100001N1+01251+01191103231ADDGF108991061081008001071999MA1999999102511MD1210251+9999REMSYN066AAXX  08204 08023 42560 82915 10125 20119 30251 40323 52025 8687/;
0133080230999992000020821004+43470-003820FM-12+006599999V0202901N007710120019N0100001N1+01251+01191103231ADDGF108991061081008001071999MA1999999102511MD1210251+9999REMSYN066AAXX  08214 08023 42560 82915 10125 20119 30251 40323 52025 8687/;
0178080230999992000020900004+43470-003820FM-12+006599999V0202601N005110120019N0080001N1+01201+01081103391ADDAA106000591AY161061AY221061GF108991051081008001071999MA1999999102671MD1210161+9999MW1101REMSYN078AAXX  09004 08023 11558 82610 10120 20108 30267 40339 52016 69941 71062 8587/;
0161080230999992000020903004+43470-003820FM-12+006599999V0203001N005110360019N0080001N1+01181+00941103401ADDAY121031AY221031GF106991021021008001061001MA1999999102681MD1110011+9999MW1101REMSYN072AAXX  09034 08023 41558 63010 10118 20094 30268 40340 51001 71022 82260;
0213080230999992000020906004+43470-003820FM-12+006599999V0202301N002612200019N0080001N1+01071+00871103431ADDAA112000591AY121061AY221061GF101991011001017501051001KA1120N+01071MA1999999102701MD1110021+9999MW1101REMSYN100AAXX  09064 08023 11758 12305 10107 20087 30270 40343 51002 69942 71022 81050 333 20107 50123 55034;
0133080230999992000020909004+43470-003820FM-12+006599999V0201901N002612200019N0100001N1+01081+00811103521ADDGF103991011061004501031011MA1999999102791MD1310091+9999REMSYN066AAXX  09094 08023 42460 31905 10108 20081 30279 40352 53009 81631;
0191080230999992000020912004+43470-003820FM-12+006599999V0200801N002612200019N0090001N1+01381+00951103581ADDAA199000091AY101061AY201061GF103991011011004501031011MA1999999102861MD1010071+9999MW1051REMSYN072AAXX  09124 08023 31459 30805 10138 20095 30286 40358 50007 70500 81131;EQDQ01  00002PRCP99
0143080230999992000020915004+43470-003820FM-12+006599999V0200801N004112200019N0100001N1+01301+00941103201ADDGA1001+999999999GF100991001001999999001001MA1999999102481MD1810381+9999REMSYN060AAXX  09154 08023 42960 00808 10130 20094 30248 40320 58038;
0233080230999992000020918004+43470-003820FM-12+006599999V0201001N006712200019N0050001N1+01101+00811103121ADDAA199000091AY101061AY201061GF102991001001999999001011KA1120M+01401KA2999N+01001MA1999999102401MD1610081+9999MW1101REMSYN088AAXX  09184 08023 31950 21013 10110 20081 30240 40312 56008 71000 80001 333 10140 20100;EQDQ01  00002PRCP99
0161080230999992000020921004+43470-003820FM-12+006599999V0201301N004612200019N0090001N1+01021+00861103171ADDAY101031AY201031GF101991001001999999001011MA1999999102441MD1110041+9999MW1101REMSYN072AAXX  09214 08023 41959 11309 10102 20086 30244 40317 51004 71000 80001;
0173080230999992000021000004+43470-003820FM-12+006599999V0201601N004112200019N0100001N1+00841+00641103001ADDAA199000091GA1001+999999999GF100991001001999999001001MA1999999102271MD1810171+9999REMSYN060AAXX  10004 08023 32960 01608 10084 20064 30227 40300 58017;EQDQ01  00002PRCP99
0143080230999992000021003004+43470-003820FM-12+006599999V0201701N004612200019N0120001N1+01091+00331102841ADDGA1001+999999999GF100991001001999999001001MA1999999102121MD1710151+9999REMSYN060AAXX  10034 08023 42962 01709 10109 20033 30212 40284 57015;
0208080230999992000021006004+43470-003820FM-12+006599999V0202001N007212200019N0120001N1+01301+00361102661ADDAA199000091GA1001+999999999GF100991001001999999001001KA1120N+00841MA1999999101941MD1610181+9999REMSYN082AAXX  10064 08023 32962 02014 10130 20036 30194 40266 56018 333 20084 50163 55094;EQDQ01  00002PRCP99
0133080230999992000021009004+43470-003820FM-12+006599999V0202101N007210210019N0300001N1+01521+00551102671ADDGF107991071001022501071999MA1999999101961MD1310021+9999REMSYN066AAXX  10094 08023 42880 72114 10152 20055 30196 40267 53002 8707/;
0163080230999992000021012004+43470-003820FM-12+006599999V0201701N001512200019N0200001N1+01781+01051102641ADDAA199000091GF105991021001022501031081MA1999999101941MD1810021+9999REMSYN066AAXX  10124 08023 32870 51703 10178 20105 30194 40264 58002 82038;EQDQ01  00002PRCP99
0133080230999992000021015004+43470-003820FM-12+006599999V0203301N004610360019N0150001N1+01501+01001102581ADDGF107991011051008001071081MA1999999101871MD1610071+9999REMSYN066AAXX  10154 08023 42565 73309 10150 20100 30187 40258 56007 81578;
0186080230999992000021018004+43470-003820FM-12+006599999V0201901N001510360019N0150001N1+01421+01041102701ADDAA199000091GF108991011051008001071081KA1999M+01861MA1999999101991MD1310121+9999REMSYN076AAXX  10184 08023 32565 81903 10142 20104 30199 40270 53012 81578 333 10186;EQDQ01  00002PRCP99
0161080230999992000021021004+43470-003820FM-12+006599999V0202801N005110120019N0100001N1+01321+01111102781ADDAY121031AY221031GF108991051081008001071999MA1999999102071MD1210081+9999MW1611REMSYN072AAXX  10214 08023 41560 82810 10132 20111 30207 40278 52008 76122 8587/;
0178080230999992000021100004+43470-003820FM-12+006599999V0203001N002610042019N0050001N1+01161+01101102791ADDAA106000591AY161061AY221061GF108991061071004501071999MA1999999102071MD1410001+9999MW1511REMSYN078AAXX  11004 08023 11450 83005 10116 20110 30207 40279 54000 69961 75162 8677/;
0161080230999992000021103004+43470-003820FM-12+006599999V0200601N009310075019N0100001N1+01031+00971102871ADDAY151031AY251031GF108991051071008001071999MA1999999102151MD1310081+9999MW1501REMSYN072AAXX  11034 08023 41560 80618 10103 20097 30215 40287 53008 75055 8577/;
0213080230999992000021106004+43470-003820FM-12+006599999V0200901N006210075019N0100001N1+00871+00791103011ADDAA112004191AY151061AY251061GF108991051071008001071999KA1120N+00701MA1999999102281MD1210131+9999MW1501REMSYN100AAXX  11064 08023 11560 80912 10087 20079 30228 40301 52013 60042 75055 8577/ 333 20070 50033 55022;
0161080230999992000021109004+43470-003820FM-12+006599999V0200901N006710075019N0100001N1+00921+00641103121ADDAY151031AY221031GF108991061071008001071001MA1999999102391MD1210111+9999MW1021REMSYN072AAXX  11094 08023 41560 80913 10092 20064 30239 40312 52011 70252 86770;
0178080230999992000021112004+43470-003820FM-12+006599999V0201101N004610075019N0100001N1+00941+00681103091ADDAA106000791AY151061AY221061GF108991061071008001071001MA1999999102361MD1810031+9999MW1501REMSYN078AAXX  11124 08023 11560 81109 10094 20068 30236 40309 58003 69901 75052 86770;
0161080230999992000021115004+43470-003820FM-12+006599999V0201001N005710042019N0090001N1+00931+00651103011ADDAY151031AY221031GF108991061071004501071999MA1999999102281MD1710081+9999MW1501REMSYN072AAXX  11154 08023 41459 81011 10093 20065 30228 40301 57008 75052 8677/;
0201080230999992000021118004+43470-003820FM-12+006599999V0200801N007210042019N0100001N1+00861+00401103051ADDAA112000791AY151061AY221061GF108991071071004501071001KA1999M+01021MA1999999102321MD1110041+9999MW1021REMSYN088AAXX  11184 08023 11460 80814 10086 20040 30232 40305 51004 69902 70252 87770 333 10102;
0133080230999992000021121004+43470-003820FM-12+006599999V0200801N005110075019N0100001N1+00861+00521103091ADDGF108991081051008001001001MA1999999102361MD1210041+9999REMSYN066AAXX  11214 08023 42560 80810 10086 20052 30236 40309 52004 88500;
0144080230999992000021200004+43470-003820FM-12+006599999V0200701N003110075019N0100001N1+00861+00551103161ADDAA199000021GF108991081051008001001001MA1999999102431MD1210071+9999REMSYN066AAXX  12004 08023 32560 80706 10086 20055 30243 40316 52007 88500;
0226080230999992000021206004+43470-003820FM-12+006599999V0202201N002110360019N0080001N1+00801+00621103311ADDAA199000091AY121061AY221061GF108991041051008001071001KA1120N+00791MA1999999102581MD1210101+9999MW1101REMSYN094AAXX  12064 08023 31558 82204 10080 20062 30258 40331 52010 71022 84570 333 20079 50273 55000;EQDQ01  00002PRCP99
0133080230999992000021209004+43470-003820FM-12+006599999V0202201N003110120019N0100001N1+00811+00421103361ADDGF107991071081008001999999MA1999999102631MD1210051+9999REMSYN066AAXX  12094 08023 42560 72206 10081 20042 30263 40336 52005 878//;
0163080230999992000021212004+43470-003820FM-12+006599999V0202801N001010120019N0150001N1+00981+00411103491ADDAA199000091GF107991061081008001071999MA1999999102761MD1210131+9999REMSYN066AAXX  12124 08023 32565 72802 10098 20041 30276 40349 52013 8687/;EQDQ01  00002PRCP99
0133080230999992000021215004+43470-003820FM-12+006599999V0200301N001512200019N0250001N1+01041+00401103411ADDGF101991011081012501001001MA1999999102681MD1810081+9999REMSYN066AAXX  12154 08023 42675 10303 10104 20040 30268 40341 58008 81800;
0205080230999992000021218004+43470-003820FM-12+006599999V0209999V001010900019N0200001N1+00861+00291103401ADDAA199000091GF105991011041008001071011KA1120M+01081KA2999N+00761MA1999999102671MD1510011+9999REMSYN082AAXX  12184 08023 32570 59902 10086 20029 30267 40340 55001 81471 333 10108 20076;EQDQ01  00002PRCP99
0133080230999992000021221004+43470-003820FM-12+006599999V0202001N003112200019N0200001N1+00781+00301103451ADDGF103991011051008001071999MA1999999102721MD1010051+9999REMSYN066AAXX  12214 08023 42570 32006 10078 20030 30272 40345 50005 8157/;
0163080230999992000021300004+43470-003820FM-12+006599999V0202001N003112200019N0200001N1+00781+00301103451ADDAA199000091GF103991011051999999071999MA1999999102721MD1010051+9999REMSYN066AAXX  13004 08023 32970 32006 10078 20030 30272 40345 50005 8157/;EQDQ01  00002PRCP99
0163080230999992000021303004+43470-003820FM-12+006599999V0202001N004112200019N0150001N1+00661+00271103161ADDAA199000091GF103991031001999999071999MA1999999102421MD1010181+9999REMSYN066AAXX  13034 08023 32965 32008 10066 20027 30242 40316 50018 8307/;EQDQ01  00002PRCP99
0198080230999992000021306004+43470-003820FM-12+006599999V0202301N005710360019N0200001N1+00761+00381103111ADDAA199000091GF107991011051008001071999KA1120N+00661MA1999999102381MD1610041+9999REMSYN088AAXX  13064 08023 32570 72311 10076 20038 30238 40311 56004 8157/ 333 20066 50103 55060;EQDQ01  00002PRCP99
0133080230999992000021309004+43470-003820FM-12+006599999V0202301N006210150019N0100001N1+00921+00411103121ADDGF106991051001017501041051MA1999999102391MD1310011+9999REMSYN066AAXX  13094 08023 42760 62312 10092 20041 30239 40312 53001 85045;
0178080230999992000021312004+43470-003820FM-12+006599999V0202601N008210360019N0070001N1+01141+00721103101ADDAA106000791AY121061AY221061GF108991031051008001071999MA1999999102381MD1810011+9999MW1511REMSYN078AAXX  13124 08023 11557 82616 10114 20072 30238 40310 58001 69901 75122 8357/;
0161080230999992000021315004+43470-003820FM-12+006599999V0202601N008210075019N0060001N1+01121+00881103021ADDAY151031AY221031GF108991081071008001999999MA1999999102301MD1610081+9999MW1801REMSYN072AAXX  13154 08023 41556 82616 10112 20088 30230 40302 56008 78052 887//;
0201080230999992000021318004+43470-003820FM-12+006599999V0202701N009310360019N0050001N1+01201+01001103021ADDAA112002091AY151061AY221061GF108991021071008001071999KA1999M+01231MA1999999102301MD1510001+9999MW1511REMSYN088AAXX  13184 08023 11550 82718 10120 20100 30230 40302 55000 60022 75152 8277/ 333 10123;
0161080230999992000021321004+43470-003820FM-12+006599999V0202801N011810075019N0050001N1+01201+01041103031ADDAY151031AY221031GF108991081071008001999999MA1999999102311MD1110011+9999MW1511REMSYN072AAXX  13214 08023 41550 82823 10120 20104 30231 40303 51001 75152 887//;
0178080230999992000021400004+43470-003820FM-12+006599999V0202801N009810360019N0080001N1+01221+01021103031ADDAA106000591AY151061AY221061GF108991021071008001071999MA1999999102311MD1410001+9999MW1101REMSYN078AAXX  14004 08023 11558 82819 10122 20102 30231 40303 54000 69961 71052 8277/;
0213080230999992000021406004+43470-003820FM-12+006599999V0202701N011310075019N0070001N1+01181+01101103001ADDAA112002091AY161061AY221061GF108991051071008001071999KA1120N+01151MA1999999102281MD1710021+9999MW1101REMSYN100AAXX  14064 08023 11557 82722 10118 20110 30228 40300 57002 60022 71062 8577/ 333 20115 50013 55005;
0161080230999992000021409004+43470-003820FM-12+006599999V0202801N009310360019N0090001N1+01201+01121103141ADDAY121031AY221031GF108991031071004501071999MA1999999102421MD1310141+9999MW1101REMSYN072AAXX  14094 08023 41459 82818 10120 20112 30242 40314 53014 71022 8377/;
0163080230999992000021412004+43470-003820FM-12+006599999V0202701N008210042019N0100001N1+01241+01131103231ADDAA199000091GF108991081071004501999999MA1999999102511MD1110091+9999REMSYN066AAXX  14124 08023 32460 82716 10124 20113 30251 40323 51009 887//;EQDQ01  00002PRCP99
0186080230999992000021418004+43470-003820FM-12+006599999V0202701N006210075019N0150001N1+01221+01121103191ADDAA199000091GF108991071071008001071999KA1999M+01361MA1999999102471MD1310121+9999REMSYN076AAXX  14184 08023 32565 82712 10122 20112 30247 40319 53012 8777/ 333 10136;EQDQ01  00002PRCP99
0161080230999992000021421004+43470-003820FM-12+006599999V0202801N005710075019N0150001N1+01201+01161103231ADDAY151031AY221031GF108991061071008001071999MA1999999102511MD1110041+9999MW1021REMSYN072AAXX  14214 08023 41565 82811 10120 20116 30251 40323 51004 70252 8677/;
0178080230999992000021500004+43470-003820FM-12+006599999V0202301N005110120019N0100001N1+01121+01041103181ADDAA106000791AY151061AY221061GF108991061071012501071999MA1999999102461MD1810051+9999MW1021REMSYN078AAXX  15004 08023 11660 82310 10112 20104 30246 40318 58005 69901 70252 8677/;
0133080230999992000021503004+43470-003820FM-12+006599999V0202301N003610360019N0100001N1+01141+00981103121ADDGF108991021051012501071999MA1999999102401MD1610061+9999REMSYN066AAXX  15034 08023 42660 82307 10114 20098 30240 40312 56006 8257/;
0213080230999992000021506004+43470-003820FM-12+006599999V0202301N004610075019N0100001N1+01091+01031103121ADDAA112000791AY121061AY221061GF108991071071008001071999KA1120N+01091MA1999999102401MD1410001+9999MW1201REMSYN100AAXX  15064 08023 11560 82309 10109 20103 30240 40312 54000 69902 72022 8777/ 333 20109 50063 55012;
0133080230999992000021509004+43470-003820FM-12+006599999V0202401N005110120019N0100001N1+01111+00951103111ADDGF107991071081008001001001MA1999999102391MD1510011+9999REMSYN066AAXX  15094 08023 42560 72410 10111 20095 30239 40311 55001 87800;
0144080230999992000021512004+43470-003820FM-12+006599999V0202401N005112200019N0100001N1+01361+01011103061ADDAA199000021GF104991041081008001001001MA1999999102341MD1810051+9999REMSYN066AAXX  15124 08023 32560 42410 10136 20101 30234 40306 58005 84800;
0133080230999992000021515004+43470-003820FM-12+006599999V0202801N005110120019N0100001N1+01261+01071102841ADDGF108991051081008001071999MA1999999102121MD1710221+9999REMSYN066AAXX  15154 08023 42560 82810 10126 20107 30212 40284 57022 8587/;
0167080230999992000021518004+43470-003820FM-12+006599999V0202501N005110120019N0100001N1+01221+01001102761ADDAA199000021GF108991081081008001999999KA1999M+01491MA1999999102041MD1610081+9999REMSYN076AAXX  15184 08023 32560 82510 10122 20100 30204 40276 56008 888// 333 10149;
0133080230999992000021521004+43470-003820FM-12+006599999V0202401N006710120019N0100001N1+01241+01051102701ADDGF107991071081008001999999MA1999999101981MD1810061+9999REMSYN066AAXX  15214 08023 42560 72413 10124 20105 30198 40270 58006 878//;
0163080230999992000021600004+43470-003820FM-12+006599999V0203101N017010090019N0100001N1+01141+00981102591ADDAA199000091GF108991081081004501999999MA1999999101871MD1510111+9999REMSYN066AAXX  16004 08023 32460 83133 10114 20098 30187 40259 55011 888//;EQDQ01  00002PRCP99
0161080230999992000021603004+43470-003820FM-12+006599999V0202701N011810090019N0100001N1+01201+01001102541ADDAY181031AY221031GF108991081081004501999999MA1999999101821MD1810051+9999MW1021REMSYN072AAXX  16034 08023 41460 82723 10120 20100 30182 40254 58005 70282 888//;
0213080230999992000021606004+43470-003820FM-12+006599999V0202801N010810090019N0100001N1+01161+00881102561ADDAA112000791AY181061AY221061GF108991081081004501999999KA1120N+01091MA1999999101841MD1210021+9999MW1801REMSYN100AAXX  16064 08023 11460 82821 10116 20088 30184 40256 52002 69902 78082 888// 333 20109 50133 55018;
0161080230999992000021609004+43470-003820FM-12+006599999V0202801N009810042019N0060001N1+01051+00931102581ADDAY181031AY221031GF108991081071004501999999MA1999999101861MD1310021+9999MW1801REMSYN072AAXX  16094 08023 41456 82819 10105 20093 30186 40258 53002 78082 887//;
0178080230999992000021612004+43470-003820FM-12+006599999V0202901N014410120019N0120001N1+01081+00861102601ADDAA106004191AY181061AY221061GF106991051081008001071999MA1999999101881MD1310021+9999MW1021REMSYN078AAXX  16124 08023 11562 62928 10108 20086 30188 40260 53002 60041 70282 8587/;
0161080230999992000021615004+43470-003820FM-12+006599999V0202801N013910042019N0050001N1+01071+00871102521ADDAY181031AY221031GF107991061071004501071001MA1999999101801MD1610081+9999MW1151REMSYN072AAXX  16154 08023 41450 72827 10107 20087 30180 40252 56008 71582 86770;
0201080230999992000021618004+43470-003820FM-12+006599999V0202901N015910900019N0150001N1+01081+00811102591ADDAA112004191AY181061AY221061GF105991041081004501001021KA1999M+01191MA1999999101871MD1310071+9999MW1251REMSYN088AAXX  16184 08023 11465 52931 10108 20081 30187 40259 53007 60042 72582 84802 333 10119;
0133080230999992000021621004+43470-003820FM-12+006599999V0202901N014910120019N0150001N1+01101+00861102621ADDGF105991051081008001001001MA1999999101901MD1310031+9999REMSYN066AAXX  16214 08023 42565 52929 10110 20086 30190 40262 53003 85800;
0178080230999992000021700004+43470-003820FM-12+006599999V0202801N014910120019N0100001N1+01081+00861102621ADDAA106000791AY161061AY221061GF107991071081008001999999MA1999999101901MD1510001+9999MW1601REMSYN078AAXX  17004 08023 11560 72829 10108 20086 30190 40262 55000 69901 76062 878//;
0161080230999992000021703004+43470-003820FM-12+006599999V0202801N015910120019N0100001N1+01161+01161102541ADDAY161031AY221031GF107991071081008001999999MA1999999101821MD1810081+9999MW1021REMSYN072AAXX  17034 08023 41560 72831 10116 20116 30182 40254 58008 70262 878//;
0213080230999992000021706004+43470-003820FM-12+006599999V0202801N016410360019N0120001N1+01241+01031102361ADDAA112000791AY161061AY221061GF107991041081012501071999KA1120N+01061MA1999999101651MD1710171+9999MW1601REMSYN100AAXX  17064 08023 11662 72832 10124 20103 30165 40236 57017 69902 76062 8487/ 333 20106 50063 55007;
0205080230999992000021709004+43470-003820FM-12+006599999V0202801N015910042019N0020001N1+01221+01141102401ADDAY161031AY221031GF108991081071004501999999MA1999999101691MD1310041+9999MW1601OA149902631OA259901701REMSYN094AAXX  17094 08023 41420 82831 10122 20114 30169 40240 53004 76062 887// 333 91151 91233 91528;
0222080230999992000021712004+43470-003820FM-12+006599999V0202901N012910042019N0015001N1+01241+01201102601ADDAA106002091AY161061AY221061GF108991081071004501999999MA1999999101881MD1210191+9999MW1611OA149902631OA259901701REMSYN100AAXX  17124 08023 11415 82925 10124 20120 30188 40260 52019 60021 76162 887// 333 91151 91233 91528;
0161080230999992000021715004+43470-003820FM-12+006599999V0203001N010810042019N0030001N1+01241+01201102621ADDAY161031AY221031GF108991081071004501999999MA1999999101901MD1310021+9999MW1211REMSYN072AAXX  17154 08023 41430 83021 10124 20120 30190 40262 53002 72162 887//;
