0215085080999992000031212004+38750-027080FM-12+005599999V0201601N002110360019N0120001N1+99999+99999101801ADDAA199000091GA1021+006009089GF106991021081008001051021MA1999999101421MD1610041+9999SA1+1709REMSYN094AAXX  12124 08508 32562 61604 188/8 20128 30142 40180 56004 82852 222// 00170 333 82820 85099;EQDQ01  00002PRCP99
